
 12:50 09/05/97  FILE=ZIM$DBRA.:ZIC0TSI                                                                  1    BMAP - B00
                                         1  *M*      ZIG$DBRA
                                         2  *T***********************************************************
                                         3  *T*                                                         *
                                         4  *T* Copyright (c) Bull HN Information Systems Inc., 1997    *
                                         5  *T*                                                         *
                                         6  *T***********************************************************

 12:50 09/05/97  FILE=ZIM$DBRA.:ZIC0TSI       H6600H2.522     IDS/II FIND REL. W/I AREA      780113DBRA  2    BMAP - B00
                                         7         TTL     H6600H2.522     IDS/II FIND REL. W/I AREA      780113DBRA
                                         8         CPR     1974
                                         9         PMC     OFF
                                        10  *
                                        11         ENTDEF  ZIG$DBFRA
                                        12  *
                                        13         ENTREF  ZIQ$DBGRC
                                        14         ENTREF  ZIG$DBPFD
                                        15         ENTREF  ZIG$DBPNA
                                        16         ENTREF  ZIG$DBPPA
                                        17           ENTREF      ZIM$IFINDP
                                        18           ENTREF      ZIM$IFIND
                                        19           ENTREF      ZIM$IFINDN
                                        20         ENTREF  ZIG$DBUPC            Updates Currencies
                                        21         ENTREF  ZIG$DBUSR
                                        22  *
                                        23         LODM    Q2MA
                                        24  *
                                        25         Q2SYM
                                        26  *

 12:50 09/05/97  FILE=ZIM$DBRA.:ZIC0TSI       IDS-II  FIND RELATIVE WITHIN AREA                          3    BMAP - B00
                                        27         TTLS    IDS-II  FIND RELATIVE WITHIN AREA
                                        28  ****************************************************************
                                        29  *
                                        30  *  - DBFRA -
                                        31  *
                                        32  *      FIND.  Find a record relative to the current of area.
                                        33  *
                                        34  *      Parameter   Description
                                        35  *      ---------   -----------
                                        36  *
                                        37  *          0       IA
                                        38  *          1       UWA
                                        39  *          2       FPT
                                        40  *
                                        41  *      FPT Format...
                                        42  *
                                        43  *      Word 0:  Find Control Word
                                        44  *          HW 0:  Record to be located
                                        45  *              0  Prior
                                        46  *              1  Current
                                        47  *              2  Next
                                        48  *      Word 1:  RVA offset to a schema subset element which
                                        49  *          describes a data base record.  This argument will
                                        50  *          be zero if no record type is specified.
                                        51  *      Word 2:  RVA offset to a schema subset element which
                                        52  *          describes the area within which the record is to
                                        53  *          be found.
                                        54  *      Word 3:  Retention List Control Word
                                        55  *      Word 4:  Retention List.  RVA offsets to the
                                        56  *          schema subset elements which describe the sets
                                        57  *          for which currencies are to be retained.
                                        58  *
                                        59  ****************************************************************
                                        60  *
 0 000000                               61  ZIG$DBFRA NULL
   000000  X 000000 7000 00             62           DBSAV
   000001    000004 000000
 12:50 09/05/97  FILE=ZIM$DBRA.:ZIC0TSI       IDS-II  FIND RELATIVE WITHIN AREA                          4    BMAP - B00
                                        63  *  GET THE ARGUMENTS
   000002    000000 4704 07             64         LDP    PR0,VLPSID,DL            VLP$
   000003    000004 2350 03             65           LDA      4,DU                 Retention list
   000004    0 00003 2751 00            66           ORA      3,,PR0               RLCW
   000005    5 00025 7551 00            67           STA      GRLCW,,PR5           Save it
   000006    000003 4714 07             68           LDP      PR1,RVASID,DL           RVA$
   000007    0 00002 2201 00            69         LDX     X0,2,,PR0            Get offset to AC pointer from FPT
   000010    1 00000 2201 10            70           LDX      X0,,X0,PR1           Get AC offset from RVA
   000011    0 00001 2271 00            71         LDX     X7,1,,PR0            Get offset to RC pointer from FPT
   000012    1 00000 2271 17            72           LDX      X7,,X7,PR1           Get RC offset from RVA
   000013    000007 6000 04             73         TZE     NRC9,$          NO RC GIVEN
                                        74         IFE     A,1,%CK1
   000014    6 00000 2211 17            75         LDX     X1,DEF,X7,PR6   GET DEF TYPE FROM RC
   000015    100000 3010 03             76         CANX    X1,.RC,DU       IS IT AN RC
   000016 (0)000201 6000 00             77         TZE     CER9            NO - ERROR
                                        78  CK1    MARK
                                        79  *              CHECK THAT REC IS IN SUB-SCHEMA
   000017    6 00000 7211 17            80         LXL     X1,DEF,X7,PR6
   000020    100000 3010 03             81         CANX    X1,.SR,DU       IS IT IN SS
   000021    000165 6010 04             82         TNZ     RAE1,$          NO - ERROR
   000022                               83  NRC9   NULL
   000022    7 00517 7471 00            84         STX     X7,PRRC,,PR7    SAVE RC PTR
                                        85         IFE     A,1,%CK1
   000023    6 00000 2211 10            86         LDX     X1,DEF,X0,PR6   GET DEF TYPE FROM AC
   000024    200000 3010 03             87         CANX    X1,.AC,DU       IS IT AN AC
   000025 (0)000201 6000 00             88         TZE     CER10           NO - ERROR
                                        89  CK1    MARK
                                        90  *  GET THE CURRENT
   000026    7 00510 2231 00            91         LDX     X3,RVI,,PR7     SET X3 TO REC VAR IN
   000027    6 00003 2211 10            92         LDX     X1,WSOF,X0,PR6  GET WORK SPC OFST
   000030    7 00001 2361 11            93         LDQ     CURR,X1,PR7     GET CURRENT OF AREA
   000031 (0)000212 6000 00             94         TZE     NCUR3           NO CURRENT
   000032    7 00000 7561 13            95         STQ     DBKEY,X3,PR7    PUT IN REC VAR
   000033    7 00005 7401 13            96         STX     X0,ACPTR,X3,PR7  PUT AC IN REC VAR
   000034    6 00000 2221 10            97           LDX      X2,DEF,X0,PR6        Get def word for AC
   000035    000010 3020 03             98           CANX     X2,.INDEXED,DU       Is it indexed
   000036 (0)000112 6010 00             99           TNZ      RIND                 Yes.  Find relative for indexed
 12:50 09/05/97  FILE=ZIM$DBRA.:ZIC0TSI       IDS-II  FIND RELATIVE WITHIN AREA                          5    BMAP - B00
                                       100  *  GET FIND OPTION WORD & GO TO CORRECT ROUTINE
   000037    0 00000 2221 00           101           LDX      X2,0,,PR0            Get find control word from FPT
   000040    000003 3620 03            102           ANX      X2,3,DU              Isolate type
   000041 (0)000042 7100 12            103           TRA      *+1,X2               Go to proper routine
   000042 (0)000046 7100 00            104         TRA     PRRA            PRIOR
   000043 (0)000053 7100 00            105         TRA     CURNT           CURRENT
   000044 (0)000105 7100 00            106         TRA     NXTA            NEXT
   000045 (0)000201 7100 00            107           TRA      CER9                 Illegal parameter
                                       108  *  PRIOR RECORD REQUESTED
   000046                              109  PRRA   NULL                    PRIOR OF AREA
   000046  X 000000 7010 00            110           DBCAL    ZIG$DBPPA,,PGER4
   000047 (0)000227 7020 00
   000050    5 00006 2341 00
   000051    777776 6010 04
   000052 (0)000162 7100 00            111         TRA     RCFD3
                                       112  *  CURRENT RECORD REQUESTED
   000053                              113  CURNT  NULL                    CURRENT OF AREA
   000053    7 00000 2341 11           114         SZN     .CAE,X1,PR7     IS CURR ERASED
   000054    000136 6040 04            115         TMI     NCUR3,$         YES - ERROR
   000055  X 000000 7010 00            116           DBCAL    ZIG$DBPFD,,PGER3
   000056 (0)000227 7020 00
   000057    5 00006 2341 00
   000060    777776 6010 04
   000061    7 00510 2371 00           117         LDAQ    RVI,,PR7        * REVERE
   000062    7 00510 7561 00           118         STQ     RVI,,PR7        *  IN &
   000063    7 00511 7551 00           119         STA     RVO,,PR7        *   OUT REC VAR
   000064    7 00511 2221 00           120         LDX     X2,RVO,,PR7     SET X2 TO REC VAR OUT
   000065    7 00003 2351 12           121         LDA     RTP,X2,PR7      GET REC TYPE FOUND
   000066    7 00517 2271 00           122         LDX     X7,PRRC,,PR7    GET RC REQUESTED
   000067 (0)000075 6000 00            123         TZE     NRC11           NONE - GO ON
   000070    7 00057 2361 00           124         LDQ     CTMASK,,PR7     GET COMPLEMENT OF TYPE MASK
   000071    6 00003 2111 17           125         CMK     RTYP,X7,PR6     IS TYPE RETR. TYPE REQUESTED
   000072 (0)000216 6010 00            126         TNZ     RCER1           NO - ERROR
   000073    7 00006 7471 12           127         STX     X7,RCPTR,X2,PR7  SAVE RC PTR
   000074 (0)000162 7100 00            128         TRA     RCFD3           GO UPDATE CURRENCIES
   000075                              129  NRC11  NULL
   000075    7 00005 2201 12           130         LDX     X0,ACPTR,X2,PR7  GET AC PTR
 12:50 09/05/97  FILE=ZIM$DBRA.:ZIC0TSI       IDS-II  FIND RELATIVE WITHIN AREA                          6    BMAP - B00
   000076  X 000000 7010 00            131         ICCAL   ZIQ$DBGRC,,RCNF2 GET RC
   000077 (0)000226 7020 00
   000100    5 00006 2341 00
   000101    777776 6010 04
   000102    7 00511 2221 00           132         LDX     X2,RVO,,PR7
   000103    7 00006 7471 12           133         STX     X7,RCPTR,X2,PR7  SAVE RC PTR
   000104 (0)000162 7100 00            134         TRA     RCFD3
                                       135  *  NEXT RECORD REQUESTED
   000105                              136  NXTA   NULL
   000105  X 000000 7010 00            137           DBCAL    ZIG$DBPNA,,PGER5
   000106 (0)000227 7020 00
   000107    5 00006 2341 00
   000110    777776 6010 04
   000111 (0)000162 7100 00            138           TRA      RCFD3
                                       139  *
                                       140  *        Find relative within indexed area handled here
                                       141  *
   000112                              142  RIND     NULL
   000112    7 00010 4715 00           143           LDP      PR1,KEYPA,,PR7       Key process area
   000113    7 00012 2351 11           144           LDA      CIAWS,X1,PR7         Get length field
   000114    1 00000 7551 00           145           STA      0,,PR1               Set length in key process area
   000115    000033 7710 00            146           ARL      27                   Shift into place
   000116    000000 6360 11            147           EAQ      0,X1                 Into arithmetic register
   000117    000020 7320 00            148           QRS      16                   Change into bytes
   000120    000 0 140 1005 46         149           MLR      (1,1,,Q),(1,1)       Move
   000121    7 00012 2 0 0 0005        150           ADSC9    CIAWS,1,A,PR7         From current of area
   000122    1 00000 2 0 0 0005        151           ADSC9    0,1,A,PR1              To key process area
   000123    7 00517 2271 00           152           LDX      X7,PRRC,,PR7         Get RC pointer
   000124 (0)000130 6010 00            153           TNZ      GOTRC
   000125    6 00001 7241 10           154           LXL      X4,ACRAN,X0,PR6      Follow chain to
   000126    6 00002 2271 14           155           LDX      X7,RCRAH,X4,PR6      RC for area
   000127    7 00517 7471 00           156           STX      X7,PRRC,,PR7         Save RC
   000130                              157  GOTRC    NULL
   000130    6 00002 7251 17           158           LXL      X5,RCRSN,X7,PR6      Follow chain to
   000131    6 00003 7261 15           159           LXL      X6,SCRSH,X5,PR6      SC for primary (always first)
   000132    7 00520 7461 00           160           STX      X6,PRSC,,PR7         Save SC
                                       161  *  Parameters now set up for proper call
 12:50 09/05/97  FILE=ZIM$DBRA.:ZIC0TSI       IDS-II  FIND RELATIVE WITHIN AREA                          7    BMAP - B00
   000133    0 00000 2221 00           162           LDX      X2,0,,PR0            Get find control word in FPT
   000134    000003 3620 03            163           ANX      X2,3,DU              Isolate type
   000135 (0)000136 7100 12            164           TRA      *+1,X2               Go to proper routine
   000136 (0)000142 7100 00            165           TRA      IPRRA                Prior
   000137 (0)000147 7100 00            166           TRA      ICURNT               Current
   000140 (0)000156 7100 00            167           TRA      INXTA                Next
   000141 (0)000201 7100 00            168           TRA      CER9                 Illegal parameter
                                       169  *  Prior of indexed
   000142                              170  IPRRA    NULL
   000142  X 000000 7010 00            171           DBCAL    ZIM$IFINDP,,PGER3    Find prior
   000143 (0)000227 7020 00
   000144    5 00006 2341 00
   000145    777776 6010 04
   000146 (0)000162 7100 00            172           TRA      RCFD3
                                       173  *  Current of indexed
   000147                              174  ICURNT   NULL
   000147    7 00000 2341 11           175           SZN      .CAE,X1,PR7          Is curr erased
   000150 (0)000212 6040 00            176           TMI      NCUR3                Yes - error
   000151  X 000000 7010 00            177           DBCAL    ZIM$IFIND,,PGER3     Find using current of area
   000152 (0)000227 7020 00
   000153    5 00006 2341 00
   000154    777776 6010 04
   000155 (0)000162 7100 00            178           TRA      RCFD3
                                       179  *  Next of indexed
   000156                              180  INXTA    NULL
   000156  X 000000 7010 00            181           DBCAL    ZIM$IFINDN,,PGER3    Find next
   000157 (0)000227 7020 00
   000160    5 00006 2341 00
   000161    777776 6010 04
                                       182  *  CHECK RE PRIVACY
   000162                              183  RCFD3  NULL
   000162    7 00511 2221 00           184         LDX     X2,RVO,,PR7
   000163    7 00006 2271 12           185         LDX     X7,RCPTR,X2,PR7  GET RC
   000164    6 00004 2211 17           186         LDX     X1,RCWSO,X7,PR6  GET WORK SPACE OFST
   000165    7 00000 2211 11           187         LDX     X1,PRIV,X1,PR7
   000166    000004 3010 03            188         CANX    X1,PF,DU        IS PRIVACY SATISFIED
   000167 (0)000222 6000 00            189         TZE     PRVE1           NO
 12:50 09/05/97  FILE=ZIM$DBRA.:ZIC0TSI       IDS-II  FIND RELATIVE WITHIN AREA                          8    BMAP - B00
                                       190  *  UPDATE CURRENCIES
   000170  X 000000 7010 00            191           ICCAL    ZIG$DBUPC,,UCER7     Update currencies
   000171 (0)000226 7020 00
   000172    5 00006 2341 00
   000173    777776 6010 04
                                       192  *  MOVE NAMES TO SPEC. REGS.
   000174  X 000000 7010 00            193         DBCAL   ZIG$DBUSR,,USRE1
   000175 (0)000226 7020 00
   000176    5 00006 2341 00
   000177    777776 6010 04
                                       194  *  RETURN
   000200  X 000000 7020 00            195           DBRET
                                       196  *
                                       197  *  ERRORS DETECTED IN THIS ROUTINE
                                       198  *
                                       199         IFE     A,1,%CK1
   000201                              200  CER9   NULL                    ILLEGAL ARGUMENT - RC PTR
   000201                              201  CER10  NULL                    ILLEGAL ARGUMENT - AC PTR
   000201    210562 2350 07            202         LDA     ARGER,DL
   000202    000000 6200 00            203         EAX     X0,0            NULL AC
   000203    000000 6260 00            204         EAX     X6,0            NULL SC
   000204    000000 6270 00            205         EAX     X7,0            NULL RC
   000205 (0)000230 7100 00            206         TRA     RAR1
                                       207  CK1    MARK
   000206                              208  RAE1   NULL                    REC NOT IN SUB-SCHEMA
   000206    010150 2350 07            209         LDA     IRSN,DL
   000207    000000 6200 00            210         EAX     X0,0            NULL AC
   000210    000000 6260 00            211         EAX     X6,0            NULL SC
   000211    000017 7100 04            212         TRA     RAR1,$
   000212                              213  NCUR3  NULL                    NO CURRENT OF AREA ESTABLISHED
   000212    006034 2350 07            214         LDA     CNUL,DL
   000213    000000 6260 00            215         EAX     X6,0            NULL SC
   000214    000000 6270 00            216         EAX     X7,0            NULL RC
   000215 (0)000230 7100 00            217         TRA     RAR1
   000216                              218  RCER1  NULL                    CURR OF AREA NOT TYPE REQUESTED
   000216    004540 2350 07            219         LDA     RSEE,DL
   000217    7 00005 2201 12           220         LDX     X0,ACPTR,X2,PR7  GET AC PTR
 12:50 09/05/97  FILE=ZIM$DBRA.:ZIC0TSI       IDS-II  FIND RELATIVE WITHIN AREA                          9    BMAP - B00
   000220    000000 6260 00            221         EAX     X6,0            NULL SC
   000221 (0)000230 7100 00            222         TRA     RAR1
   000222                              223  PRVE1  NULL                    REC PRIVACY NOT SATISFIED
   000222    257764 2350 07            224         LDA     LR,DL
   000223    000000 6200 00            225         EAX     X0,0            NULL AC
   000224    000000 6260 00            226         EAX     X6,0            NULL SC
   000225 (0)000230 7100 00            227         TRA     RAR1
                                       228  *
                                       229  *  ERRORS DETECTED IN SUBORDINATE ROUTINES
                                       230  *
   000226                              231  RCNF2  NULL                    RC NOT FOUND FOR CURR OF AREA
   000226                              232  UCER7  NULL                    UPDATE CURRENCY ERROR
   000226                              233  USRE1  NULL                    UPDATE SPEC. REG. ERROR
   000226                              234  STER1  NULL                    ERROR ACCUMULATING STATISTICS
   000226 (0)000230 7100 00            235         TRA     RAR1
                                       236  *
                                       237  *  ERRORS DETECTED IN PRIMITIVES
                                       238  *
   000227                              239  PGER3  NULL                    PAGE ERROR - FIND CURRENT
   000227                              240  PGER4  NULL                    PAGE ERROR - FIND PRIOR
   000227                              241  PGER5  NULL                    PAGE ERROR - FIND NEXT
   000227                              242  PGER6  NULL                    PAGE ERROR - FIND NEXT LOGICAL DELETE    <EHW>
   000227 (0)000230 7100 00            243         TRA     RAR1
                                       244  *
                                       245  *  COMMON ERROR RETURN
                                       246  *
   000230  X 000000 7020 00            247  RAR1     DBALT
                                       248         END

  CONTROL SECTION TABLE

   0 CODE   EVEN  000231
   1 RODATA EVEN  000000 LITERALS

 12:50 09/05/97  FILE=ZIM$DBRA.:ZIC0TSI       SYMBOL TABLE                                               10   BMAP - B00
 41000000 000000200000 .AC            *25        87
 40000000 000000000100 .AG            *25
 40000000 000000002000 .ALTO          *25
 40000000 000000000077 .ANL           *25
 40000000 000000200000 .APDN          *25
 40000000 000000000100 .ATMP          *25
 40000000 000000400000 .AV            *25
 40000000 000000400000 .B0            *25
 40000000 000000200000 .B1            *25
 40000000 000000000200 .B10           *25
 40000000 000000000100 .B11           *25
 40000000 000000000040 .B12           *25
 40000000 000000000020 .B13           *25
 40000000 000000000010 .B14           *25
 40000000 000000000004 .B15           *25
 40000000 000000000002 .B16           *25
 40000000 000000000001 .B17           *25
 40000000 000000400000 .B18           *25
 40000000 000000200000 .B19           *25
 40000000 000000100000 .B2            *25
 40000000 000000100000 .B20           *25
 40000000 000000040000 .B21           *25
 40000000 000000020000 .B22           *25
 40000000 000000010000 .B23           *25
 40000000 000000004000 .B24           *25
 40000000 000000002000 .B25           *25
 40000000 000000001000 .B26           *25
 40000000 000000000400 .B27           *25
 40000000 000000000200 .B28           *25
 40000000 000000000100 .B29           *25
 40000000 000000040000 .B3            *25
 40000000 000000000040 .B30           *25
 40000000 000000000020 .B31           *25
 40000000 000000000010 .B32           *25
 40000000 000000000004 .B33           *25
 40000000 000000000002 .B34           *25
 40000000 000000000001 .B35           *25
 12:50 09/05/97  FILE=ZIM$DBRA.:ZIC0TSI       SYMBOL TABLE                                               11   BMAP - B00
 40000000 000000020000 .B4            *25
 40000000 000000010000 .B5            *25
 40000000 000000004000 .B6            *25
 40000000 000000002000 .B7            *25
 40000000 000000001000 .B8            *25
 40000000 000000000400 .B9            *25
 40000000 000000000001 .BREAK         *25
 40000000 000000010000 .BRK           *25
 40000000 000000020000 .BTB           *25
 40000000 000000000001 .CAC           *25
 41000000 000000000000 .CAE           *25       114       175
 40000000 000000000200 .CANSSS        *25
 40000000 000000000400 .CD            *25
 40000000 000000040000 .CFLC          *25
 40000000 000000400000 .CHKSUM        *25
 40000000 000000100000 .CJRNL         *25
 40000000 000000000077 .CNSZ          *25
 40000000 000000160000 .COMC          *25
 40000000 000000000020 .CONT          *25
 40000000 000000000000 .CSE           *25
 40000000 000000700000 .CTYP          *25
 41000000 000000000270 .DBEST         *25
 41000000 000000000470 .DBIC          *25
 40000000 000000077777 .DBPT          *25
 41000000 000000000370 .DBSTK         *25
 40000000 000000020000 .DELM          *25
 40000000 000000002000 .DIDP          *25
 40000000 000000000077 .DNDX          *25
 40000000 000000600000 .DORD          *25
 40000000 000000000200 .DP            *25
 40000000 000000100000 .DPS           *25
 40000000 000000200000 .DPSA          *25
 40000000 000000400000 .DPST          *25
 40000000 000000000002 .DUMP          *25
 40000000 000000002000 .DUPC          *25
 40000000 000000010000 .DUPP          *25
 40000000 000000200000 .EBCL          *25
 12:50 09/05/97  FILE=ZIM$DBRA.:ZIC0TSI       SYMBOL TABLE                                               12   BMAP - B00
 40000000 000000400000 .EBCM          *25
 40000000 000000200000 .ENCRP         *25
 40000000 000000000077 .ENDX          *25
 40000000 000000000400 .ENQ           *25
 40000000 000000004000 .ETC           *25
 40000000 000000000400 .EXIT          *25
 40000000 000000000200 .FMOD          *25
 40000000 000000000077 .FNL           *25
 40000000 000000000074 .FORG          *25
 40000000 000000002000 .FR            *25
 40000000 000000000100 .FSR           *25
 40000000 000000003400 .FUSE          *25
 40000000 000000010000 .FVF           *25
 40000000 000000040000 .FVR           *25
 41000000 000000000010 .INDEXED       *25        98
 40000000 000000777777 .IXID          *25
 40000000 000000001777 .IXNUM         *25
 40000000 000000000004 .KEYED         *25
 40000000 000000010000 .LCK           *25
 40000000 000000400000 .LEIL          *25
 40000000 000000001000 .LG            *25
 40000000 000000000002 .LOAD          *25
 40000000 000000020000 .MAR           *25
 40000000 000000000007 .MEMT          *25
 40000000 000000010000 .MRL           *25
 40000000 000000040000 .MSM           *25
 60000000 000000000001 .N6685         *25
 40000000 000000100000 .NAI           *25
 40000000 000000200000 .NBI           *25
 40000000 000000000002 .NCIA          *25
 40000000 000000040000 .NMV           *25
 40000000 000000017777 .NOENT         *25
 40000000 000000400000 .OA            *25
 40000000 000000740000 .OPEV          *25
 40000000 000000100000 .OSM           *25
 40000000 000000100000 .PAFIL         *25
 40000000 000000200000 .PAHVR         *25
 12:50 09/05/97  FILE=ZIM$DBRA.:ZIC0TSI       SYMBOL TABLE                                               13   BMAP - B00
 40000000 000000000001 .PAIA          *25
 40000000 000000040000 .PALIL         *25
 40000000 000000020000 .PALVR         *25
 40000000 000000400000 .PANLL         *25
 40000000 000000400000 .PCKD          *25
 40000000 000000001600 .PMOD          *25
 40000000 000000000520 .PRCSE         *25
 40000000 000000000007 .PSTO          *25
 40000000 000000006040 .PTAS          *25
 40000000 000000010100 .PTCHK         *25
 40000000 000000010200 .PTDEC         *25
 40000000 000000010140 .PTENC         *25
 40000000 000000020000 .RA            *25
 41000000 000000100000 .RC            *25        76
 40000000 000000400000 .RELEASE       *25
 40000000 000000000017 .RELT          *25
 40000000 000000004000 .RERA          *25
 40000000 000000400000 .RERS          *25
 40000000 000000010000 .RKEY          *25
 40000000 000000000077 .RNL           *25
 40000000 000000200000 .RSTO          *25
 40000000 000000007777 .RTYP          *25
 40000000 000000040000 .SC            *25
 40000000 000000000070 .SETM          *25
 40000000 000000740000 .SETO          *25
 40000000 000000000700 .SETT          *25
 40000000 000000040000 .SFNP          *25
 40000000 000000004000 .SM            *25
 40000000 000000020000 .SMOD          *25
 40000000 000000000077 .SNL           *25
 40000000 000000020000 .SNSS          *25
 40000000 000000010000 .SO            *25
 41000000 000000100000 .SR            *25        81
 40000000 000000004000 .SRCR          *25
 40000000 000000001000 .SS            *25
 40000000 000000000007 .SSTP          *25
 40000000 000000004000 .SYN           *25
 12:50 09/05/97  FILE=ZIM$DBRA.:ZIC0TSI       SYMBOL TABLE                                               14   BMAP - B00
 40000000 000000000040 .SYNC          *25
 40000000 000000020000 .TJRNL         *25
 40000000 000000040000 .TMPLT         *25
 40000000 000000040000 .TRACE         *25
 40000000 000000000001 .TRENTRY       *25
 40000000 000000000012 .TRIDEL        *25
 40000000 000000000021 .TRIDELENQ     *25
 40000000 000000000024 .TRIDEQ        *25
 40000000 000000000013 .TRIMOD        *25
 40000000 000000000022 .TRIMODENQ     *25
 40000000 000000000014 .TRIREAD       *25
 40000000 000000000023 .TRIREADENQ    *25
 40000000 000000000011 .TRISTO        *25
 40000000 000000000020 .TRISTOENQ     *25
 40000000 000000000017 .TRPDEQ        *25
 40000000 000000000004 .TRPMOD        *25
 40000000 000000000016 .TRPMODENQ     *25
 40000000 000000000002 .TRPREAD       *25
 40000000 000000000015 .TRPREADENQ    *25
 40000000 000000000003 .TRPWRITE      *25
 40000000 000000000010 .TRRACC        *25
 40000000 000000000006 .TRRDEL        *25
 40000000 000000000007 .TRRMOD        *25
 40000000 000000000005 .TRRSTO        *25
 40000000 000000004000 .ULCK          *25
 40000000 000000400000 .UPDT          *25
 40000000 000000000040 .VIA           *25
 61000000 000000000001 A              *25        74        85       199
 40000000 000000000002 ABAS           *25
 40000000 000000000001 AC             *25
 40000000 777777777760 ACDEF          *25
 40000000 000000211070 ACDNL          *25
 40000000 000000000003 ACID           *25
 40000000 000000001016 ACOPN          *25
 40000000 000000000002 ACP            *25
 41000000 000000000005 ACPTR          *25        96       130       220
 40000000 000000000002 ACRAH          *25
 12:50 09/05/97  FILE=ZIM$DBRA.:ZIC0TSI       SYMBOL TABLE                                               15   BMAP - B00
 41000000 000000000001 ACRAN          *25       154
 40000000 000000001003 ACREC          *25
 40000000 000000000001 ACTDBCB        *25
 40000000 000000000002 ACTDBNO        *25
 40000000 000000001017 ACTP           *25
 40000000 000000000000 ACTSSS         *25
 40000000 000000000000 ACTSZ          *25
 40000000 000000210565 AFNP           *25
 40000000 000000000635 AFT            *25
 40000000 000000022124 AIR            *25
 40000000 000000000016 AMAX           *25
 40000000 000000000026 ANAM           *25
 40000000 000000021614 ANR            *25
 40000000 000000000001 APNO           *25
 41000000 000000210562 ARGER          *25       202
 41000000 000000000020 ARGS           *25
 40000000 000000000077 ARGS2          *25
 40000000 000000210713 ARNAF          *25
 40000000 000000000003 ATBL           *25
 40000000 000000000000 ATRIB          *25
 40000000 000000000002 AVLN           *25
 40000000 000000000013 AWS$           *25
 40000000 000000000010 AWSZ           *25
 60000000 000000000001 B              *25
 40000000 000000001006 B32N           *25
 40000000 000000001007 B36N           *25
 40000000 000000001056 B72N           *25
 40000000 000000000001 BADDR          *25
 40000000 000000210712 BADSEED        *25
 40000000 777777777765 BDCW           *25
 40000000 000000000633 BEF            *25
 40000000 000000020000 BEFW           *25
 40000000 000000000751 BEMT           *25
 40000000 777777777761 BID            *25
 40000000 777777777762 BIND           *25
 40000000 000000000007 BLKD           *25
 40000000 000000303331 BME02          *25
 12:50 09/05/97  FILE=ZIM$DBRA.:ZIC0TSI       SYMBOL TABLE                                               16   BMAP - B00
 41000000 000000001203 BMPB           *25
 40000000 000000000652 BN1            *25
 40000000 000000000654 BN2            *25
 40000000 000000000004 BPL            *25
 40000000 000000000015 BPLDBK         *25
 40000000 000000000034 BSPG           *25
 40000000 777777777763 BSTAT          *25
 40000000 000000000750 BTX0           *25
 41000000 000000001160 BUF4           *25
 41000000 000000001170 BUF6           *25
 41000000 000000000000 BUFORG         *25
 40000000 000000001060 BUFRQ          *25
 40000000 000000000006 BURRID         *25
 41000000 000000000020 BWASZ          *25
 60000000 000000000001 C              *25
 40000000 000000000050 CAAC           *25
 40000000 000000000050 CACD           *25
 40000000 000000000111 CAG            *25
 40000000 000000001033 CAL            *25
 40000000 000000000026 CALLPM0        *25
 40000000 000000000003 CANSSS         *25
 40000000 000000000003 CBCPA          *25
 40000000 000000000002 CBCPO          *25
 40000000 000000000002 CBENO          *25
 40000000 000000000014 CBFSZ          *25
 40000000 000000000753 CBIB           *25
 40000000 000000001030 CBID           *25
 40000000 000000000014 CBRCE          *25
 40000000 000000000014 CBRCP          *25
 40000000 000000001033 CBRID          *25
 40000000 000000000015 CBRPA          *25
 40000000 000000000031 CCHAR          *25
 40000000 000000000040 CDBK           *25
 40000000 000000000030 CDES           *25
 40000000 000000000110 CDP            *25
 40000000 000000001044 CDPSI          *25
 40000000 000000000002 CDRH           *25
 12:50 09/05/97  FILE=ZIM$DBRA.:ZIC0TSI       SYMBOL TABLE                                               17   BMAP - B00
 40000000 000000000003 CDRN           *25
 40000000 000000000002 CDSH           *25
 40000000 000000000003 CDSN           *25
 40000000 000000000722 CENTRN         *25
 40000000 000000000722 CENTRO         *25
 40000000 000000000716 CENTRY         *25
 01101000 000000000201 CER10           88      *201
 01101000 000000000201 CER9            77       107       168      *200
 41000000 000000001053 CFCT           *25
 40000000 000000000670 CFLPT1         *25
 40000000 000000000672 CFLPT2         *25
 40000000 000000000015 CFSA           *25
 40000000 000000000646 CHDBK          *25
 40000000 000000000773 CHR            *25
 40000000 000000000006 CHRD           *25
 40000000 000000000772 CHRO           *25
 40000000 000000007640 CHRTP          *25
 40000000 000000001043 CIAC           *25
 41000000 000000000012 CIAWS          *25       144       150
 40000000 000000001051 CIBSI          *25
 40000000 000000000516 CIND           *25
 40000000 000000001041 CINVSZ         *25
 40000000 000000001042 CIPG           *25
 40000000 000000001050 CIPSI          *25
 40000000 000000000000 CIRUN          *25
 40000000 000000000002 CIRWS          *25
 40000000 000000000002 CISWS          *25
 40000000 000000000014 CIWSOF         *25
 40000000 000000303374 CKSM           *25
 40000000 000000000022 CLCN           *25
 40000000 000000000023 CLCP           *25
 40000000 000000000003 CLCRC          *25
 40000000 000000000003 CLCSC          *25
 40000000 000000000237 CLI            *25
 40000000 000000000026 CLNG           *25
 40000000 000000000052 CMPL           *25
 40000000 000000000002 CN             *25
 12:50 09/05/97  FILE=ZIM$DBRA.:ZIC0TSI       SYMBOL TABLE                                               18   BMAP - B00
 40000000 000000303315 CNE1           *25
 41000000 000000006034 CNUL           *25       214
 40000000 000000100000 COB74          *25
 40000000 000000000001 COFS           *25
 40000000 000000000045 CONCD          *25
 40000000 000000007764 CP6PGSZB       *25
 41000000 000000001775 CP6PGSZW       *25
 40000000 000000001000 CPGR           *25
 40000000 000000000723 CPTRN          *25
 40000000 000000000723 CPTRO          *25
 60000000 000000000004 CPW            *25
 40000000 000000000112 CRA            *25
 40000000 000000001004 CRD            *25
 40000000 000000000764 CREC           *25
 40000000 000000006344 CRIT           *25
 40000000 000000006200 CRNUL          *25
 40000000 000000007330 CRST           *25
 41000000 000000001223 CRUN           *25
 41000000 000000000000 CSECT          *25
 40000000 000000000007 CSMPP          *25
 40000000 000000001000 CSPAC          *25
 40000000 000000000004 CSPAH          *25
 40000000 777777777776 CSPES          *25
 40000000 777777777776 CSPSB          *25
 40000000 000000000115 CSTS           *25
 40000000 000000000071 CSUB           *25
 40000000 000000000017 CSZ            *25
 41000000 000000000057 CTMASK         *25       124
 40000000 000000000774 CTPAI          *25
 40000000 000000000240 CURLN          *25
 40000000 000000000236 CURLT          *25
 01101000 000000000053 CURNT          105      *113
 40000000 000000000770 CURPG          *25
 41000000 000000000001 CURR           *25        93
 40000000 000000000035 CURRS          *25
 40000000 000000000037 CURSS          *25
 40000000 000000001005 CWRT           *25
 12:50 09/05/97  FILE=ZIM$DBRA.:ZIC0TSI       SYMBOL TABLE                                               19   BMAP - B00
 40000000 000000000237 CWSOF          *25
 60000000 000000000001 D              *25
 40000000 000000000003 DBAN           *25
 40000000 000000000036 DBDR           *25
 40000000 000000000037 DBFN           *25
 40000000 000000000754 DBK            *25
 40000000 000000000777 DBKAC          *25
 41000000 000000000000 DBKEY          *25        95
 40000000 000000000000 DBKL           *25
 40000000 000000007474 DBKN           *25
 41000000 000000000776 DBKR           *25
 40000000 000000000777 DBKRQ          *25
 40000000 000000000234 DBKSI          *25
 40000000 000000000651 DBKSR          *25
 40000000 000000000047 DBKYN          *25
 40000000 000000210652 DBLC01         *25
 40000000 000000210653 DBLC05         *25
 40000000 000000303334 DBLC07         *25
 40000000 000000210655 DBLD01         *25
 40000000 000000000010 DBLIM          *25
 40000000 000000000033 DBPKY          *25
 40000000 000000000023 DBRN           *25
 40000000 000000000013 DBSN           *25
 40000000 000000000001 DBST           *25
 40000000 000000000757 DCDSR          *25
 40000000 000000210650 DCE1           *25
 40000000 000000001053 DCPR           *25
 40000000 000000001053 DCPW           *25
 40000000 000000000015 DCTBL          *25
 40000000 000000000032 DDBK           *25
 40000000 000000000006 DDCB           *25
 40000000 000000011754 DDI            *25
 41000000 000000000000 DEF            *25        75        80        86        97
 40000000 000000000014 DEF2           *25
 40000000 000000303413 DELAK          *25
 40000000 000000000036 DELRS          *25
 40000000 000000000732 DEPCW          *25
 12:50 09/05/97  FILE=ZIM$DBRA.:ZIC0TSI       SYMBOL TABLE                                               20   BMAP - B00
 40000000 000000303414 DLDBK          *25
 40000000 000000210627 DLE1           *25
 40000000 000000303310 DLE2           *25
 40000000 000000210631 DLE3           *25
 40000000 000000016040 DNES           *25
 40000000 777777777777 DPAGN          *25
 40000000 000000000020 DPPI           *25
 40000000 000000000053 DPSLW          *25
 40000000 000000000003 DS             *25
 40000000 000000001063 DSDES          *25
 40000000 000000303316 DSE1           *25
 40000000 000000000735 DUSEPA         *25
 60000000 000000000001 E              *25
 40000000 000000303251 EDPER          *25
 40000000 000000000026 EEIND          *25
 40000000 000000000713 EFIND          *25
 40000000 000000001030 ELO            *25
 40000000 000000210711 ENCPNA         *25
 40000000 000000000007 ENCRP          *25
 40000000 000000000752 ENDSR          *25
 40000000 000000210647 ENE1           *25
 40000000 000000000716 ENIND          *25
 40000000 000000000013 ENTBL          *25
 40000000 000000000710 ENTNO          *25
 40000000 000000000712 ENTPTR         *25
 40000000 000000000717 ENTSZ          *25
 40000000 000000000711 ENTTYP         *25
 40000000 000000004064 EOSR           *25
 40000000 000000000004 ES             *25
 41000000 000000000100 ESTSZ          *25
 40000000 000000000725 ESZ            *25
 40000000 000000000005 ETCADR         *25
 40000000 000000000005 ETCDBNO        *25
 40000000 000000000064 EXCCD          *25
 40000000 000000234534 FALRT          *25
 40000000 000000001055 FBF72          *25
 40000000 000000001025 FBU61          *25
 12:50 09/05/97  FILE=ZIM$DBRA.:ZIC0TSI       SYMBOL TABLE                                               21   BMAP - B00
 40000000 000000001020 FBUF           *25
 40000000 000000001026 FBUF1          *25
 40000000 000000001027 FBUF4          *25
 40000000 000000001024 FBUF6          *25
 40000000 000000001022 FBUFM          *25
 40000000 000000001021 FBUFU          *25
 40000000 000000001023 FBUMD          *25
 40000000 000000000004 FCN            *25
 40000000 000000000051 FCNT           *25
 40000000 000000000002 FCP            *25
 40000000 000000000047 FCSS           *25
 40000000 000000000005 FD             *25
 40000000 000000210637 FDE1           *25
 40000000 000000303320 FDE2           *25
 40000000 000000303321 FDE3           *25
 40000000 000000210642 FDE4           *25
 40000000 000000210643 FDE5           *25
 40000000 000000210644 FDE6           *25
 40000000 000000303325 FDE7           *25
 40000000 000000303326 FDE8           *25
 40000000 000000000021 FEASZ          *25
 40000000 000000000740 FETM           *25
 40000000 000000000006 FI             *25
 40000000 000000000103 FIAC           *25
 41000000 000000001100 FIB1           *25
 41000000 000000001130 FIBP           *25
 40000000 000000000000 FIBX           *25
 40000000 000000000102 FICNT          *25
 40000000 000000000005 FIPN           *25
 40000000 000000000054 FKIND          *25
 40000000 000000000015 FLAGS          *25
 40000000 000000000244 FLDDSC         *25
 40000000 000000000046 FLDTL          *25
 40000000 000000000020 FMSBF          *25
 40000000 000000000006 FNAM           *25
 40000000 000000000250 FNIND          *25
 40000000 000000000004 FNL            *25
 12:50 09/05/97  FILE=ZIM$DBRA.:ZIC0TSI       SYMBOL TABLE                                               22   BMAP - B00
 40000000 000000000101 FRAC           *25
 40000000 000000000002 FRANGE         *25
 40000000 000000211400 FRDNL          *25
 40000000 000000200000 FRTRN          *25
 40000000 000000000005 FRWSO          *25
 40000000 000000000767 FSLN           *25
 40000000 000000000766 FSOF           *25
 40000000 000000000060 FTIND          *25
 40000000 000000303240 FTLINCR        *25
 40000000 000000000021 FWSSZ          *25
 40000000 000000000246 GACDK          *25
 40000000 000000000014 GDCB           *25
 41000000 000000000006 GERROR         *25       110       116       131       137       171       177
                                      181       191       193
 40000000 000000000016 GINHIB         *25
 40000000 000000000020 GIOAWS         *25
 40000000 000000000022 GIOBUF         *25
 40000000 000000000021 GIOPGNO        *25
 01101000 000000000130 GOTRC          153      *157
 40000000 000000000015 GPAGE          *25
 40000000 000000000010 GRETAC         *25
 40000000 000000000011 GRETFR         *25
 40000000 000000000013 GRETRC         *25
 40000000 000000000012 GRETSC         *25
 41000000 000000000025 GRLCW          *25        67
 40000000 000000000014 GSTCD          *25
 40000000 000000000007 GSYSERR        *25
 40000000 000000000010 GT             *25
 40000000 000000000046 GTRNAME        *25
 40000000 000000000055 GTRPDCB        *25
 40000000 000000000056 GTRPNO         *25
 40000000 000000000057 GTRRDBK        *25
 40000000 000000000060 GTRRTYPE       *25
 40000000 000000000060 GTRTYPE        *25
 40000000 000000000027 HASH           *25
 40000000 000000000022 HIA            *25
 40000000 000000000775 HIDB           *25
 12:50 09/05/97  FILE=ZIM$DBRA.:ZIC0TSI       SYMBOL TABLE                                               23   BMAP - B00
 40000000 000000000003 HIGHDBK        *25
 40000000 000000000004 HIGHPG         *25
 40000000 000000001037 HIL            *25
 40000000 000000000002 HILN           *25
 40000000 000000000006 HPOS           *25
 40000000 000000000756 IAAC           *25
 40000000 000000001011 IACLN          *25
 40000000 000000001010 IALC           *25
 40000000 000000010314 IAN            *25
 40000000 000000001012 IANLN          *25
 40000000 000000000001 IASID          *23
 40000000 000000020320 ICA            *25
 40000000 000000000023 ICKSMP         *25
 40000000 000000000024 ICKSMV         *25
 40000000 000000210742 ICNR           *25
 41000000 000000000020 ICSIZ          *25
 01101000 000000000147 ICURNT         166      *174
 40000000 000000010004 IDBK           *25
 40000000 000000012120 IDI            *25
 40000000 000000000023 IDS            *25
 40000000 000000000011 IF             *25
 40000000 000000000021 IFIPN          *25
 40000000 000000000000 IFR            *25
 40000000 000000234546 IKSEQ          *25
 40000000 000000000113 INAFLAG        *25
 40000000 000000000016 INCHA          *25
 40000000 000000210566 INNM           *25
 40000000 000000210567 INSS           *25
 40000000 000000210575 INSST          *25
 40000000 000000303241 INTER          *25
 40000000 000000400000 INTII          *25
 40000000 000000000013 INTVL          *25
 40000000 000000001060 INVFLG         *25
 40000000 000000001043 INVOF          *25
 40000000 000000000014 INVT           *25
 01101000 000000000156 INXTA          167      *180
 40000000 000000000034 IOBLK          *25
 12:50 09/05/97  FILE=ZIM$DBRA.:ZIC0TSI       SYMBOL TABLE                                               24   BMAP - B00
 40000000 000000303354 IOCLSD         *25
 40000000 000000303355 IOCLSK         *25
 40000000 000000303257 IOE1           *25
 40000000 000000303264 IOE11          *25
 40000000 000000303265 IOE12          *25
 40000000 000000303266 IOE18          *25
 40000000 000000303260 IOE2           *25
 40000000 000000303261 IOE3           *25
 40000000 000000303262 IOE7           *25
 40000000 000000303263 IOE8           *25
 40000000 000000303363 IOFLSH         *25
 40000000 000000210676 IOGDCB         *25
 40000000 000000001002 IOINC          *25
 40000000 000000305160 IOINI          *25
 40000000 000000305155 IONOTIDS       *25
 40000000 000000305154 IONOTKEY       *25
 40000000 000000210677 IOOPND         *25
 40000000 000000210700 IOOPNK         *25
 40000000 000000303361 IORDD          *25
 40000000 000000305156 IOSCHEMA       *25
 40000000 000000001052 IOSTS          *25
 40000000 000000303362 IOWRTD         *25
 41000000 000000000750 IOWS           *25
 40000000 000000000647 IPC            *25
 40000000 000000000650 IPCF           *25
 01101000 000000000142 IPRRA          165      *170
 40000000 000000000006 IROLLFLAG      *25
 41000000 000000010150 IRSN           *25       209
 40000000 000000000004 ISYSDCB        *25
 40000000 000000000005 ISYSERR        *25
 40000000 000000000061 ITPTR          *25
 40000000 000000000060 ITRS           *25
 40000000 000000021760 IUM            *25
 40000000 000000000017 IUSZ           *25
 40000000 000000234522 IVDBK          *25
 40000000 000000000011 IXBUF$         *25
 40000000 000000000046 IXFBSZ         *25
 12:50 09/05/97  FILE=ZIM$DBRA.:ZIC0TSI       SYMBOL TABLE                                               25   BMAP - B00
 40000000 777777777776 IXID           *25
 40000000 777777777777 IXPLL          *25
 40000000 000000000523 KCARG0         *25
 40000000 000000000524 KCARG3         *25
 40000000 000000000525 KCARG4         *25
 40000000 000000000700 KCREG          *25
 40000000 000000000006 KDCB           *25
 40000000 000000000666 KEYDS          *25
 41000000 000000000010 KEYPA          *25       143
 40000000 777777777776 KLNG           *25
 40000000 000000000022 KPASZ          *25
 40000000 000000000006 KWSZ           *25
 40000000 000000000052 LANGC          *25
 40000000 000000001014 LAS            *25
 40000000 000000700000 LCODM          *25
 40000000 000000001045 LDPSI          *25
 40000000 000000001071 LINPT          *25
 40000000 000000001017 LNCNT          *25
 40000000 000000000762 LNNO           *25
 40000000 000000001036 LOL            *25
 40000000 000000000715 LOLIM          *25
 40000000 000000000023 LPASZ          *25
 40000000 000000000012 LPP            *25
 41000000 000000257764 LR             *25       224
 40000000 000000301270 LRA            *25
 40000000 000000000017 LRSZ           *25
 40000000 000000001035 LSPC           *25
 40000000 000000000750 LUPD           *25
 61000000 000000000001 M9             *25
 40000000 000000000013 MD             *25
 40000000 000000300000 MDQS           *25
 40000000 000000000730 MEMPTR         *25
 40000000 000000000727 MEMTYP         *25
 40000000 000000000045 MODCD          *25
 41000000 000000001207 MODFL          *25
 40000000 000000000042 MODFR          *25
 40000000 000000000044 MODIN          *25
 12:50 09/05/97  FILE=ZIM$DBRA.:ZIC0TSI       SYMBOL TABLE                                               26   BMAP - B00
 40000000 000000000044 MODRS          *25
 40000000 000000000043 MODSC          *25
 40000000 000000000047 MRBKI          *25
 40000000 000000210632 MRE4           *25
 40000000 000000303313 MRE5           *25
 40000000 000000210634 MRE7           *25
 40000000 000000400000 MW             *25
 40000000 000000000025 NCH            *25
 40000000 000000000002 NCHA           *25
 40000000 000000000005 NCHRS          *25
 01101000 000000000212 NCUR3           94       115       176      *213
 40000000 000000000014 NDCD           *25
 40000000 000000000012 NENC           *25
 40000000 000000000634 NEW            *25
 40000000 000000001072 NEWSIZ         *25
 40000000 000000235164 NKA            *25
 40000000 000000235020 NKDB           *25
 40000000 000000303415 NLDBK          *25
 40000000 777777777777 NLIND          *25
 40000000 000000001040 NLN            *25
 40000000 000000400000 NLNSA          *25
 41000000 000000001053 NOBF           *25
 40000000 000000000711 NOPTRS         *25
 40000000 000000000742 NPARCW         *25
 40000000 000000000630 NPIND          *25
 40000000 000000000004 NPOS           *25
 01101000 000000000075 NRC11          123      *129
 01101000 000000000022 NRC9            73       *83
 40000000 000000234510 NSA            *25
 40000000 000000234654 NSCS           *25
 40000000 000000234344 NSDB           *25
 40000000 000000000001 NSTS           *25
 40000000 000000000726 NUMENT         *25
 40000000 000000000727 NUMPTR         *25
 40000000 777777777760 NXBUF          *25
 40000000 000000000713 NXPRI          *25
 01101000 000000000105 NXTA           106      *136
 12:50 09/05/97  FILE=ZIM$DBRA.:ZIC0TSI       SYMBOL TABLE                                               27   BMAP - B00
 40000000 000000000771 NXTC           *25
 40000000 000000000001 OAACN          *25
 40000000 000000000022 OACIWSOF       *25
 40000000 000000000001 OAOFST         *25
 40000000 000000000002 OARCN          *25
 40000000 000000000001 OASCN          *25
 40000000 000000000014 OD             *25
 40000000 000000000074 ODBK           *25
 40000000 000000001072 OLDSIZ         *25
 40000000 000000000101 OPADP          *25
 40000000 000000000741 OPARCW         *25
 40000000 000000210570 ORDNI          *25
 40000000 777777777777 OTVL           *25
 40000000 000000000252 OWNPTR         *25
 40000000 000000000016 PABUF          *25
 40000000 000000001041 PACD           *25
 40000000 000000000001 PACW           *25
 40000000 000000000733 PADBK          *25
 40000000 000000000740 PADUP          *25
 40000000 000000000745 PAEN           *25
 40000000 000000000745 PAEO           *25
 40000000 000000000734 PAEOF          *25
 40000000 000000303336 PAER1          *25
 40000000 000000303337 PAER2          *25
 40000000 000000303340 PAER3          *25
 40000000 000000303341 PAER4          *25
 40000000 000000303342 PAER5          *25
 40000000 000000303343 PAER6          *25
 40000000 000000000747 PAESZ          *25
 40000000 000000001060 PAFLG          *25
 40000000 000000000731 PAOPTR         *25
 40000000 000000000734 PAPOF          *25
 40000000 000000000714 PARCW          *25
 40000000 000000000726 PARVPA         *25
 40000000 000000000724 PASPLT         *25
 40000000 000000000004 PAWSZ          *25
 40000000 777777777762 PBUF           *25
 12:50 09/05/97  FILE=ZIM$DBRA.:ZIC0TSI       SYMBOL TABLE                                               28   BMAP - B00
 40000000 000000000020 PC             *25
 41000000 000000000510 PCB            *25
 40000000 000000000642 PCD            *25
 40000000 000000000642 PCD2           *25
 40000000 000000000247 PCEXI          *25
 40000000 000000000675 PCMIN          *25
 40000000 000000004541 PCOMP          *25
 40000000 000000000010 PD             *25
 40000000 000000000040 PE             *25
 40000000 000000000017 PENDING        *25
 41000000 000000000004 PF             *25       188
 40000000 000000000400 PFG            *25
 40000000 000000000200 PFM            *25
 40000000 000000000100 PFS            *25
 40000000 000000000400 PG             *25
 01101000 000000000227 PGER3          116       171       177       181      *239
 01101000 000000000227 PGER4          110      *240
 01101000 000000000227 PGER5          137      *241
 00101000 000000000227 PGER6         *242
 40000000 000000001064 PGHD           *25
 40000000 000000000006 PGLIM          *25
 40000000 000000000003 PGRNG          *25
 40000000 000000000746 PGSIZE         *25
 40000000 000000000641 PGSPLT         *25
 40000000 000000000100 PKAW           *25
 40000000 000000001034 PLO            *25
 40000000 000000000004 PLSEP          *25
 40000000 000000000200 PM             *25
 40000000 000000001054 PNEOO          *25
 40000000 000000001047 POFSI          *25
 40000000 000000000005 PPOS           *25
 41000000 000000000000 PR0            *23        64        66        69        71       101       162
 41000000 000000000001 PR1            *23        68        70        72       143       145       151
 40000000 000000000002 PR2            *23
 40000000 000000000003 PR3            *23
 40000000 000000000004 PR4            *23
 41000000 000000000005 PR5            *23        67       110       116       131       137       171
 12:50 09/05/97  FILE=ZIM$DBRA.:ZIC0TSI       SYMBOL TABLE                                               29   BMAP - B00
                                      177       181       191       193
 41000000 000000000006 PR6            *23        75        80        86        92        97       125
                                      154       155       158       159       186
 41000000 000000000007 PR7            *23        84        91        93        95        96       114
                                      117       118       119       120       121       122       124
                                      127       130       132       133       143       144       150
                                      152       156       160       175       184       185       187
                                      220
 40000000 000000303267 PRE1           *25
 40000000 000000303277 PRE10          *25
 40000000 000000303270 PRE3           *25
 40000000 000000303271 PRE4           *25
 40000000 000000303272 PRE5           *25
 40000000 000000210613 PRE6           *25
 40000000 000000210614 PRE7           *25
 40000000 000000210615 PRE8           *25
 40000000 000000303276 PRE9           *25
 40000000 000000000522 PREXC          *25
 40000000 000000000521 PRFR           *25
 40000000 000000000521 PRFR2          *25
 41000000 000000000000 PRIV           *25       187
 40000000 000000000526 PROPA          *25
 01101000 000000000046 PRRA           104      *109
 41000000 000000000517 PRRC           *25        84       122       152       156
 40000000 000000000517 PRRS           *25
 41000000 000000000520 PRSC           *25       160
 40000000 000000000516 PRSS           *25
 40000000 000000000644 PRSTS          *25
 01101000 000000000222 PRVE1          189      *223
 40000000 000000000100 PS             *25
 41000000 000000000000 PS0SID         *23
 41000000 000000000001 PS1SID         *23
 41000000 000000000002 PS2SID         *23
 41000000 000000000003 PS3SID         *23
 41000000 000000000004 PS4SID         *23
 40000000 000000000005 PS5SID         *23
 40000000 000000000006 PS6SID         *23
 12:50 09/05/97  FILE=ZIM$DBRA.:ZIC0TSI       SYMBOL TABLE                                               30   BMAP - B00
 40000000 000000303416 PSA            *25
 40000000 000000000020 PSC            *25
 40000000 000000000010 PSD            *25
 40000000 000000000004 PSF            *25
 40000000 000000000400 PSO            *25
 40000000 000000000720 PTESZ          *25
 40000000 000000000631 PTR            *25
 40000000 000000000724 PTRESZ         *25
 40000000 000000000710 PTRNO          *25
 41000000 000000000630 PWS            *25
 40000000 000000000002 RADDR          *25
 40000000 000000000010 RADIX          *25
 01101000 000000000206 RAE1            82      *208
 40000000 000000000005 RAPTR          *25
 01101000 000000000230 RAR1           206       212       217       222       227       235       243
                                     *247
 40000000 000000000004 RAWSOF         *25
 40000000 777777777766 RBA            *25
 40000000 000000023432 RCBI           *25
 40000000 000000211234 RCDNL          *25
 01101000 000000000216 RCER1          126      *218
 01101000 000000000162 RCFD3          111       128       134       138       172       178      *183
 40000000 000000000005 RCFRH          *25
 40000000 000000000004 RCFRN          *25
 40000000 000000001075 RCHD           *25
 40000000 000000000001 RCID           *25
 01101000 000000000226 RCNF2          131      *231
 41000000 000000000006 RCPTR          *25       127       133       185
 41000000 000000000002 RCRAH          *25       155
 40000000 000000000001 RCRAN          *25
 40000000 000000000003 RCRSH          *25
 41000000 000000000002 RCRSN          *25       158
 40000000 000000210667 RCVER1         *25
 40000000 000000210670 RCVER2         *25
 40000000 000000210671 RCVER4         *25
 40000000 000000210672 RCVER5         *25
 40000000 000000210673 RCVER6         *25
 12:50 09/05/97  FILE=ZIM$DBRA.:ZIC0TSI       SYMBOL TABLE                                               31   BMAP - B00
 40000000 000000000736 RCW1           *25
 40000000 000000000737 RCW2           *25
 41000000 000000000004 RCWSO          *25       186
 40000000 000000000077 RDAC           *25
 40000000 000000000076 RDCNT          *25
 40000000 000000040000 RDI            *25
 40000000 000000015674 RDLT           *25
 40000000 000000000075 RDYCW          *25
 40000000 000000000066 RECAC          *25
 40000000 000000000065 RECFR          *25
 40000000 000000000070 RECRC          *25
 40000000 000000000067 RECSC          *25
 40000000 000000000003 RECSZ          *25
 40000000 000000000235 REMLT          *25
 40000000 000000000062 REM_RECOVER    *25
 40000000 000000000251 RETFR          *25
 40000000 000000210724 RFDNL          *25
 40000000 000000017644 RIM            *25
 01101000 000000000112 RIND            99      *142
 40000000 000000000005 RNAM           *25
 40000000 000000015706 RNDLT          *25
 40000000 000000000662 RNG1           *25
 40000000 000000000664 RNG2           *25
 40000000 000000000073 RNGD           *25
 40000000 000000000072 RNGO           *25
 40000000 000000000660 RNGTAL         *25
 40000000 000000020154 RNM            *25
 40000000 000000000041 ROCUR          *25
 40000000 000000000001 ROFST          *25
 40000000 000000002114 ROLL           *25
 40000000 000000020010 RPM            *25
 40000000 000000000001 RSCDH          *25
 40000000 000000000001 RSCDN          *25
 40000000 000000211710 RSDNL          *25
 41000000 000000004540 RSEE           *25       219
 40000000 000000000003 RSIZ           *25
 40000000 000000000110 RSPAM          *25
 12:50 09/05/97  FILE=ZIM$DBRA.:ZIC0TSI       SYMBOL TABLE                                               32   BMAP - B00
 40000000 000000000004 RSPTR          *25
 40000000 000000000037 RSREQ          *25
 40000000 000000000002 RSSSH          *25
 40000000 000000000001 RSSSN          *25
 40000000 000000210574 RSZER          *25
 40000000 000000000632 RSZTP          *25
 41000000 000000000003 RTP            *25       121
 41000000 000000000003 RTYP           *25       125
 40000000 000000000530 RV1            *25
 40000000 000000000550 RV2            *25
 40000000 000000000570 RV3            *25
 40000000 000000000610 RV4            *25
 41000000 000000000003 RVASID         *23        68
 41000000 000000000510 RVI            *25        91       117       118
 41000000 000000000511 RVO            *25       119       120       132       184
 40000000 000000000513 RVPA           *25
 40000000 000000000512 RVT            *25
 40000000 000000000022 RVTAL          *25
 40000000 000000000002 RWSZ           *25
 40000000 000000000015 RY             *25
 40000000 000000210620 RYE1           *25
 40000000 000000210621 RYE4           *25
 40000000 777777777767 SA             *25
 40000000 000000000005 SANAM          *25
 40000000 000000001062 SCDES          *25
 40000000 000000211544 SCDNL          *25
 40000000 000000000024 SCFC           *25
 40000000 000000000002 SCID           *25
 40000000 000000000024 SCLST          *25
 40000000 000000000004 SCNAM          *25
 40000000 000000000004 SCPTR          *25
 41000000 000000000003 SCRSH          *25       159
 40000000 000000000002 SCRSN          *25
 40000000 000000000001 SCWSO          *25
 40000000 000000001225 SFWS           *25
 40000000 000000001073 SIZCHG         *25
 40000000 000000000645 SKFLG          *25
 12:50 09/05/97  FILE=ZIM$DBRA.:ZIC0TSI       SYMBOL TABLE                                               33   BMAP - B00
 40000000 000000000643 SKIND          *25
 40000000 000000000641 SKTYP          *25
 40000000 000000020464 SMCR           *25
 40000000 000000000003 SNAM           *25
 40000000 000000000107 SNIND          *25
 40000000 000000000735 SNPAE          *25
 40000000 000000001046 SNSI           *25
 40000000 000000000743 SOE            *25
 40000000 000000020630 SORSA          *25
 40000000 000000004374 SOSE           *25
 40000000 000000000000 SPAV           *25
 40000000 000000000744 SPCAVN         *25
 40000000 000000000744 SPCAVO         *25
 40000000 000000000765 SPLF           *25
 41000000 000000000765 SPND           *25
 40000000 000000000006 SSDT           *25
 40000000 000000303243 SSER           *25
 40000000 000000303244 SSER1          *25
 40000000 000000000002 SSH            *25
 40000000 000000000005 SSNAM          *25
 40000000 000000210573 SSNF           *25
 40000000 000000210576 SSNV           *25
 40000000 000000000020 SSSPTR         *25
 40000000 000000000010 SSVDT          *25
 40000000 000000000033 SSZTP          *25
 40000000 000000000017 ST             *25
 40000000 000000000104 STBIN          *25
 40000000 000000000105 STDEC          *25
 40000000 000000303302 STE1           *25
 40000000 000000303303 STE2           *25
 40000000 000000210624 STE3           *25
 40000000 000000303305 STE4           *25
 40000000 000000303306 STE5           *25
 00101000 000000000226 STER1         *234
 41000000 000000000100 STKSIZ         *25
 40000000 000000000055 STMASK         *25
 40000000 000000000062 SUST           *25
 12:50 09/05/97  FILE=ZIM$DBRA.:ZIC0TSI       SYMBOL TABLE                                               34   BMAP - B00
 41000000 000000000020 SWS            *25
 40000000 000000000000 SWSAC          *25
 40000000 000000000002 SWSZ           *25
 40000000 000000000000 SYSSF          *25
 40000000 000000000765 SZREQ          *25
 40000000 000000000004 TBUF           *25
 40000000 000000001061 TCTRS          *25
 60000000 000000000000 TDS            *25
 41000000 000000000113 TEMP           *25
 40000000 000000000640 TFLD           *25
 40000000 000000000657 TFLD2          *25
 40000000 000000000056 TMASK          *25
 40000000 000000000061 TMODE          *25
 40000000 000000000676 TMPPA          *25
 40000000 000000000003 TPAI           *25
 40000000 000000500000 TPRCOD         *25
 40000000 000000001031 TSFN           *25
 40000000 000000000021 TSI            *25
 40000000 000000001013 UBRD2          *25
 41000000 000000001223 UBSZ           *25
 40000000 000000000667 UCADR          *25
 01101000 000000000226 UCER7          191      *232
 40000000 000000000036 UCRS           *25
 40000000 000000000024 UFSPK          *25
 40000000 000000000024 UFSPK2         *25
 40000000 000000000715 ULIM           *25
 40000000 000000004230 UNA            *25
 40000000 000000303417 UNIM           *25
 40000000 000000000002 UOFST          *25
 40000000 000000001035 UPACD          *25
 40000000 000000000721 UPACW          *25
 40000000 000000000007 UPFLAG         *25
 40000000 000000000103 UPPAI          *25
 40000000 000000000004 UPTSID         *23
 01101000 000000000226 USRE1          193      *233
 40000000 000000000674 USTAT          *25
 40000000 000000000002 UWASID         *23
 12:50 09/05/97  FILE=ZIM$DBRA.:ZIC0TSI       SYMBOL TABLE                                               35   BMAP - B00
 40000000 000000000002 UWSSZ          *25
 40000000 000000000020 UWSZ           *25
 40000000 000000000243 VFDSC          *25
 40000000 000000001070 VFDSR          *25
 40000000 000000000656 VFLD           *25
 40000000 000000001074 VFLNG          *25
 40000000 000000001124 VIB1           *25
 40000000 000000001154 VIBP           *25
 41000000 000000000000 VLPSID         *23        64
 40000000 000000001074 VRSIZ          *25
 40000000 000000001067 WLOA           *25
 40000000 000000100000 WRTI           *25
 40000000 000000000000 WSBID          *25
 41000000 000000000003 WSOF           *25        92
 41000000 000000000000 X0             *23        69        70        96       130       203       210
                                      220       225
 41000000 000000000001 X1             *23        75        76        80        81        86        87
                                       92       110       116       131       137       171       177
                                      181       186       187       188       191       193
 41000000 000000000002 X2             *23        97        98       101       102       120       132
                                      162       163       184
 41000000 000000000003 X3             *23        91
 41000000 000000000004 X4             *23       154
 41000000 000000000005 X5             *23       158
 41000000 000000000006 X6             *23       159       160       204       211       215       221
                                      226
 03201010 000000000000 X66_ARET       *23       195
 03201009 000000000000 X66_AUTO_0     *23        62
 41000000 000000000007 X7             *23        71        72        84       122       127       133
                                      152       155       156       185       205       216
 40000000 000000210665 XASL           *25
 40000000 000000303420 XLD            *25
 40000000 000000303421 XPD            *25
 40000000 000000000676 XPRS           *25
 40000000 000000210666 XROLL          *25
 40000000 000000210664 XUNEX          *25
 40000000 777777777777 XXDPN          *25
 12:50 09/05/97  FILE=ZIM$DBRA.:ZIC0TSI       SYMBOL TABLE                                               36   BMAP - B00
 03201011 000000000000 ZIB$DBALT     *247
 12101000 000000000000 ZIG$DBFRA       11       *61
 03201001 000000000000 ZIG$DBPFD      *14       116
 03201002 000000000000 ZIG$DBPNA      *15       137
 03201003 000000000000 ZIG$DBPPA      *16       110
 03201007 000000000000 ZIG$DBUPC      *20       191
 03201008 000000000000 ZIG$DBUSR      *21       193
 03201005 000000000000 ZIM$IFIND      *18       177
 03201006 000000000000 ZIM$IFINDN     *19       181
 03201004 000000000000 ZIM$IFINDP     *17       171
 03201000 000000000000 ZIQ$DBGRC      *13       131

     959 SYMBOLS

 12:50 09/05/97  FILE=ZIM$DBRA.:ZIC0TSI       MACRO TABLE                                                37   BMAP - B00
 CBSYM           25
 DBALT          247
 DBCAL          110       116       131       137       171       177       181       191       193
 DBRET          195
 DBSAV           62
 ICCAL          131       191
 Q2SYM           25
 SSSYM           25

      37 MACROS

    SYMBOL SPACE USED  9313 WORDS
     MACRO SPACE USED 13055 WORDS
   INPUT RECORDS READ  2298
 STATEMENTS PROCESSED  2262
         ELAPSED TIME  0:10.80
             CPU TIME    10.36 SEC.
        ASSEMBLY RATE 13100 STATEMENTS/CPU MIN.

      NO ERRORS

