
 12:50 09/05/97  FILE=ZIM$DBRI.:ZIC0TSI                                                                  1    BMAP - B00
                                         1  *M*      ZIG$DBRI
                                         2  *T***********************************************************
                                         3  *T*                                                         *
                                         4  *T* Copyright (c) Bull HN Information Systems Inc., 1997    *
                                         5  *T*                                                         *
                                         6  *T***********************************************************

 12:50 09/05/97  FILE=ZIM$DBRI.:ZIC0TSI       H6600H2.553     IDS/II FIND RELATIVE IN INDEX  780113DBRI  2    BMAP - B00
                                         7         TTL     H6600H2.553     IDS/II FIND RELATIVE IN INDEX  780113DBRI
                                         8         CPR     1977
                                         9         PMC     OFF
                                        10  *
                                        11         ENTDEF  ZIG$DBFRI
                                        12  *
                                        13         ENTREF  ZIG$DBUPC            Updates Currencies
                                        14           ENTREF      ZIM$KFINDN
                                        15           ENTREF      ZIM$KFINDF
                                        16           ENTREF      ZIM$IFINDN
                                        17           ENTREF      ZIM$IFINDF
                                        18         ENTREF  ZIG$DBUSR
                                        19  *
                                        20         LODM    Q2MA
                                        21  *
                                        22         Q2SYM
                                        23  *

 12:50 09/05/97  FILE=ZIM$DBRI.:ZIC0TSI       FIND RELATIVE IN INDEX                                     3    BMAP - B00
                                        24         TTLS    FIND RELATIVE IN INDEX
                                        25  ****************************************************************
                                        26  *
                                        27  *  - DBFRI -
                                        28  *
                                        29  *      FIND.  Find a record relative to the current record of
                                        30  *      a key.  (Key in index.)
                                        31  *
                                        32  *      Parameter   Description
                                        33  *      ---------   -----------
                                        34  *
                                        35  *          0       IA
                                        36  *          1       UWA
                                        37  *          2       FPT
                                        38  *
                                        39  *      FPT Format...
                                        40  *
                                        41  *      Word 0:  Find Control Word
                                        42  *          HW 0:  If 0, the desired record is the first
                                        43  *              record of the index.  If 1, the desired
                                        44  *              record is the next record in the index.
                                        45  *      Word 1:  RVA offset to a schema subset element which
                                        46  *          describes a data base record which has a record key.
                                        47  *          This argument will be zero if no record type is
                                        48  *          specified.
                                        49  *      Word 2:  RVA offset to a schema subset element which
                                        50  *          describes a set.
                                        51  *      Word 3:  Retention List Control Word
                                        52  *      Words 4->M: Retention List.  RVA offsets to the
                                        53  *          schema subset elements which describe the sets
                                        54  *          for which currencies are to be retained.
                                        55  *
                                        56  ****************************************************************
                                        57  *
 0 000000                               58  ZIG$DBFRI NULL
   000000  X 000000 7000 00             59           DBSAV
   000001    000004 000000
 12:50 09/05/97  FILE=ZIM$DBRI.:ZIC0TSI       FIND RELATIVE IN INDEX                                     4    BMAP - B00
                                        60  *  GET THE ARGUMENTS
   000002    000000 4704 07             61         LDP    PR0,VLPSID,DL            VLP$
   000003    000004 2350 03             62           LDA      4,DU                 Offset to retention list
   000004    0 00003 2751 00            63           ORA      3,,PR0               Or in RLCW
   000005    5 00025 7551 00            64           STA      GRLCW,,PR5           Save
   000006    000003 4714 07             65           LDP      PR1,RVASID,DL           RVA$
   000007    0 00002 2261 00            66         LDX     X6,2,,PR0            Get offset to SC pointer from FPT
   000010    1 00000 2261 16            67           LDX      X6,,X6,PR1           Get SC offset from RVA
   000011    0 00001 2271 00            68         LDX     X7,1,,PR0            Get offset to RC pointer from FPT
   000012    0 00000 2211 00            69         LDX     X1,0,,PR0      get Find Ctl Word from FPT
   000013    000003 3610 03             70         ANX     X1,3,DU        isolate type of find requested
   000014    7 00250 7411 00            71         STX     X1,FNIND,,PR7  save find type
   000015    1 00000 2271 17            72           LDX      X7,,X7,PR1           Get RC offset from RVA
   000016 (0)000025 6000 00             73         TZE     NRCRQ           NO RC REQUESTED
                                        74         IFE     A,1,%CK1
   000017    6 00000 2211 17            75         LDX     X1,DEF,X7,PR6   GET DEF TYPE FROM RC
   000020    100000 3010 03             76         CANX    X1,.RC,DU       IS IT AN RC
   000021 (0)000161 6000 00             77         TZE     CALE1           NO - ERROR
                                        78  CK1    MARK
                                        79  *  CHECK THAT RECORD IS IN SUBSCHEMA
   000022    6 00000 7211 17            80         LXL     X1,DEF,X7,PR6
   000023    100000 3010 03             81         CANX    X1,.SR,DU       IS REC IN SS
   000024 (0)000151 6010 00             82         TNZ     RNSSE           NO - ERROR
   000025                               83  NRCRQ  NULL
   000025    7 00517 7471 00            84         STX     X7,PRRC,,PR7    SAVE RC PTR IN PRIM REQ
                                        85         IFE     A,1,%CK1
   000026    6 00000 2211 16            86         LDX     X1,DEF,X6,PR6   GET DEF TYPE FROM SC
   000027    040000 3010 03             87         CANX    X1,.SC,DU       IS IT AN SC
   000030 (0)000161 6000 00             88         TZE     CALE2           NO - ERROR
                                        89  CK1    MARK
                                        90  *  CHECK THAT SET IS IN SUBSCHEMA
   000031    6 00000 7211 16            91         LXL     X1,DEF,X6,PR6
   000032    020000 3010 03             92         CANX    X1,.SNSS,DU     IS IT IN SS
   000033 (0)000155 6010 00             93         TNZ     SNSSE           NO - ERROR
   000034    7 00520 7461 00            94         STX     X6,PRSC,,PR7    SAVE SC PTR IN PRIM REQ
                                        95  *  GET THE DBK OF CURRENT OF KEY
   000035    6 00001 2221 16            96         LDX     X2,SCWSO,X6,PR6  GET WORK SPACE OFST FOR KEY
 12:50 09/05/97  FILE=ZIM$DBRI.:ZIC0TSI       FIND RELATIVE IN INDEX                                     5    BMAP - B00
   000036    7 00001 2351 12            97           LDA      CURR,X2,PR7          Get dbk of current of key
   000037 (0)000166 6000 00             98           TZE      NOCUR                No current - error.
   000040    7 00510 2211 00            99           LDX      X1,RVI,,PR7
   000041    7 00000 7551 11           100           STA      DBKEY,X1,PR7         Put DBK into RVI
   000042    7 00000 7231 12           101           LXL      X3,SWSAC,X2,PR7        Get AC for key currency
   000043    6 00000 2211 13           102           LDX      X1,DEF,X3,PR6        Get DEF work
   000044    000010 3010 03            103           CANX     X1,.INDEXED,DU           Is it an indexed area
   000045 (0)000074 6010 00            104           TNZ      INDEX                Yes.
   000046 (0)000200 7010 00            105           ICCAL    ZIG$DBGAC,,GACER     Get AC for that DBK
   000047 (0)000176 7020 00
   000050    5 00006 2341 00
   000051    777776 6010 04
   000052    7 00510 2211 00           106         LDX     X1,RVI,,PR7
   000053    7 00005 7431 11           107         STX     X3,ACPTR,X1,PR7      Put AC pointer in record variable
   000054    7 00250 2211 00           108         LDX     X1,FNIND,,PR7  Get type of find requested
   000055 (0)000056 7100 11            109         TRA     *+1,X1          GO TO CORRECT ROUTINE
   000056 (0)000062 7100 00            110         TRA     FRST            FIND FIRST
   000057 (0)000067 7100 00            111         TRA     NXT             FIND NEXT
   000060 (0)000161 7100 00            112         TRA     ILOP                 FIRST LOGICAL DELETE ILLEGAL
   000061 (0)000161 7100 00            113         TRA     ILOP                 NEXT LOGICAL DELETE ILLEGAL
                                       114  *  Find first in alternate key of integrated
   000062                              115  FRST     NULL
   000062  X 000000 7010 00            116           DBCAL    ZIM$KFINDF,,FFER     Find first in index
   000063 (0)000177 7020 00
   000064    5 00006 2341 00
   000065    777776 6010 04
   000066 (0)000132 7100 00            117         TRA     RECFN           GO UPDATE CURRENCIES AND RETURN
                                       118  *  Find next in alternate key of integrated
   000067                              119  NXT      NULL
   000067  X 000000 7010 00            120           DBCAL    ZIM$KFINDN,,FNER     Find next in index
   000070 (0)000177 7020 00
   000071    5 00006 2341 00
   000072    777776 6010 04
   000073 (0)000132 7100 00            121           TRA      RECFN
   000074                              122  INDEX    NULL
   000074    7 00510 2211 00           123           LDX      X1,RVI,,PR7
   000075    7 00000 7551 11           124           STA      DBKEY,X1,PR7         Put DBK into RVI
 12:50 09/05/97  FILE=ZIM$DBRI.:ZIC0TSI       FIND RELATIVE IN INDEX                                     6    BMAP - B00
   000076    7 00005 7431 11           125           STX      X3,ACPTR,X1,PR7      Save AC pointer
   000077    7 00250 2211 00           126           LDX      X1,FNIND,,PR7        Get type of find
   000100 (0)000101 7100 11            127           TRA      *+1,X1               Go to correct routine
   000101 (0)000105 7100 00            128           TRA      IFRST                Find first in index
   000102 (0)000114 7100 00            129           TRA      INXT                 Find next in index
   000103 (0)000161 7100 00            130           TRA      ILOP                 First logical delete illegal
   000104 (0)000161 7100 00            131           TRA      ILOP                 Next logical delete illegal
                                       132  *  Find first in indexed area
   000105                              133  IFRST    NULL
   000105    000001 2350 07            134           LDA      1,DL                 Want first record
   000106    7 00041 7551 00           135           STA      ROCUR,,PR7           Set occurrence number.
   000107  X 000000 7010 00            136           DBCAL    ZIM$IFINDF,,FFER     Find first in indexed area
   000110 (0)000177 7020 00
   000111    5 00006 2341 00
   000112    777776 6010 04
   000113 (0)000132 7100 00            137           TRA      RECFN
                                       138  *  Find next in indexed area
   000114                              139  INXT     NULL
   000114    6 00001 2211 16           140           LDX      X1,SCWSO,X6,PR6      Get set work space
   000115    7 00010 4715 00           141           LDP      PR1,KEYPA,,PR7       Key process area
   000116    7 00002 2351 11           142           LDA      CISWS,X1,PR7         Get length of key
   000117    1 00000 7551 00           143           STA      0,,PR1               Set length in key process area
   000120    000033 7710 00            144           ARL      27                   Shift into place
   000121    000000 6360 11            145           EAQ      0,X1                 Address of SC work space
   000122    000020 7320 00            146           QRS      16                   Change into bytes
   000123    000 0 140 1005 46         147           MLR      (1,1,,Q),(1,1)       Move
   000124    7 00002 2 0 0 0005        148           ADSC9    CISWS,1,A,PR7         From current of set
   000125    1 00000 2 0 0 0005        149           ADSC9    0,1,A,PR1              To key process area
   000126  X 000000 7010 00            150           DBCAL    ZIM$IFINDN,,FNER     Find next in indexed area
   000127 (0)000177 7020 00
   000130    5 00006 2341 00
   000131    777776 6010 04
   000132                              151  RECFN  NULL
                                       152  *  CHECK RECORD PRIVACY
   000132    7 00511 2211 00           153         LDX     X1,RVO,,PR7
   000133    7 00006 2271 11           154         LDX     X7,RCPTR,X1,PR7  GET RC
   000134    6 00004 2211 17           155         LDX     X1,RCWSO,X7,PR6  GET WORK SPACE OFST
 12:50 09/05/97  FILE=ZIM$DBRI.:ZIC0TSI       FIND RELATIVE IN INDEX                                     7    BMAP - B00
   000135    7 00000 2211 11           156         LDX     X1,PRIV,X1,PR7
   000136    000004 3010 03            157         CANX    X1,PF,DU        IS PRIVACY SATISFIED
   000137 (0)000172 6000 00            158         TZE     PRVER           NO - ERROR
                                       159  *  UPDATE CURRENCIES
   000140  X 000000 7010 00            160           ICCAL    ZIG$DBUPC,,UCERR     Update currencies
   000141 (0)000177 7020 00
   000142    5 00006 2341 00
   000143    777776 6010 04
                                       161  *  MOVE NAMES TO SPECIAL REGISTERS
   000144  X 000000 7010 00            162         DBCAL   ZIG$DBUSR,,USRER
   000145 (0)000177 7020 00
   000146    5 00006 2341 00
   000147    777776 6010 04
                                       163  *  NORMAL RETURN
   000150  X 000000 7020 00            164           DBRET
                                       165  *
                                       166  *  ERRORS DETECTED IN THIS ROUTINE
                                       167  *
                                       168         IFE     A,1,%CK1
          (0)000000000161              169  CALE1  EQU     ILOP           error in calling argument - RC
          (0)000000000161              170  CALE2  EQU     ILOP           error in calling argument - SC
                                       171  CK1    MARK
   000151                              172  RNSSE  NULL                    RECORD NOT IN SUBSCHEMA
   000151    010150 2350 07            173         LDA     IRSN,DL
   000152    000000 6200 00            174         EAX     X0,0            NULL AC
   000153    000000 6260 00            175         EAX     X6,0            NULL SC
   000154 (0)000177 7100 00            176         TRA     RICER
   000155                              177  SNSSE  NULL                    SET NOT IN SUBSCHEMA
   000155    010150 2350 07            178         LDA     IRSN,DL
   000156    000000 6200 00            179         EAX     X0,0            NULL AC
   000157    000000 6270 00            180         EAX     X7,0            NULL RC
   000160 (0)000177 7100 00            181         TRA     RICER
   000161                              182  ILOP   NULL                    ILLEGAL FIND OPTION
   000161    210562 2350 07            183         LDA     ARGER,DL
   000162    000000 6200 00            184         EAX     X0,0            NULL AC
   000163    000000 6260 00            185         EAX     X6,0            NULL SC
   000164    000000 6270 00            186         EAX     X7,0            NULL RC
 12:50 09/05/97  FILE=ZIM$DBRI.:ZIC0TSI       FIND RELATIVE IN INDEX                                     8    BMAP - B00
   000165 (0)000177 7100 00            187         TRA     RICER
   000166                              188  NOCUR  NULL                    NO CURRENT OF KEY
   000166    006034 2350 07            189         LDA     CNUL,DL
   000167    000000 6200 00            190         EAX     X0,0            NULL AC
   000170    000000 6270 00            191         EAX     X7,0            NULL RC
   000171 (0)000177 7100 00            192         TRA     RICER
   000172                              193  PRVER  NULL                    PRIVACY NOT SATISFIED FOR REC
   000172    257764 2350 07            194           LDA      LR,DL
   000173    000000 6200 00            195         EAX     X0,0            NULL AC
   000174    000000 6260 00            196         EAX     X6,0            NULL SC
   000175 (0)000177 7100 00            197         TRA     RICER
                                       198  *
                                       199  *  ERRORS DETECTED IN SUBORDINATE ROUTINES
                                       200  *
   000176                              201  GACER  NULL                    FIND AC PTR ERROR
   000176    000000 6200 13            202         EAX     X0,0,X3              Get X0 = X3 = Zero
   000177                              203  UCERR  NULL                    ERROR UPDATIN CURRENCIES
   000177                              204  UKER1  NULL                    ERROR UPDATING CURRENT OF KEY
   000177                              205  USRER  NULL                    ERROR UPDATING SPECIAL REGS
   000177                              206  ASER   NULL                    ERROR ACCUMULATING STATISTICS
                                       207  *
                                       208  *  ERRORS DETECTED IN PRIMITIVES
                                       209  *
   000177                              210  FFER   NULL                    FIND FIRST IN KEY ERROR
   000177                              211  FNER   NULL                    FIND NEXT IN KEY ERROR
                                       212  *
                                       213  *  COMMON ERROR RETURN
                                       214  *
   000177                              215  RICER  NULL
   000177  X 000000 7020 00            216           DBALT

 12:50 09/05/97  FILE=ZIM$DBRI.:ZIC0TSI       FIND AC FROM DBK                                           9    BMAP - B00
                                       217         TTLS    FIND AC FROM DBK
                                       218  *
                                       219  ****************************************************************
                                       220  *
                                       221  *  - DBGAC -
                                       222  *
                                       223  *      Find AC pointer from DBK
                                       224  *
                                       225  *      Calling
                                       226  *
                                       227  *              DBCAL   ZIG$DBGAC,,altret
                                       228  *
                                       229  *      Considerations
                                       230  *
                                       231  *              Note that no exception return is possible
                                       232  *              from this subroutine.
                                       233  *
                                       234  *      Input
                                       235  *
                                       236  *              AR = DBK
                                       237  *
                                       238  *      Output
                                       239  *
                                       240  *              X3 = AC pointer
                                       241  *
                                       242  ****************************************************************
                                       243  *
   000200                              244  ZIG$DBGAC NULL
   000200    7 00470 7411 56           245           ICSAV
                                       246  *  FIND AC DEFINITION
   000201    7 00246 7551 00           247         STA     GACDK,,PR7           Save DBK
   000202    7 00003 2211 00           248         LDX     X1,ATBL,,PR7    GET ADDR OF TBL
   000203    7 00003 7231 00           249         LXL     X3,ATBL,,PR7
   000204 (0)000217 6000 00            250         TZE     ANRDY           ZERO - NONE READY
   000205                              251  SRCHAC NULL
   000205    7 00000 2371 11           252         LDAQ    0,X1,PR7             Get Area entry
   000206    7 00246 1111 00           253           CWL   GACDK,,PR7              In this area?
 12:50 09/05/97  FILE=ZIM$DBRI.:ZIC0TSI       FIND AC FROM DBK                                           10   BMAP - B00
   000207 (0)000214 6000 00            254         TZE     GOTAC                B/ If we've got it
   000210    000004 0210 03            255         ADLX    X1,4,DU              Increment offset
   000211    000001 1230 03            256         SBLX    X3,1,DU              Decrement counter
   000212 (0)000205 6010 00            257         TNZ     SRCHAC               B/ Until all areas searched
   000213 (0)000217 7100 00            258         TRA     ANRDY                No areas ready
   000214                              259  GOTAC  NULL
   000214    7 00002 2231 11           260           LDX   X3,ACP,X1,PR7           get AC pointer
                                       261  *  RETURN
   000215    7 00470 2211 54           262           ICRET
   000216    000001 7100 11
                                       263  *
                                       264  *  ERRORS
                                       265  *
   000217                              266  ANRDY  NULL
   000217    004230 2350 07            267         LDA     UNA,DL          AREA NOT READIED
   000220    000000 6230 00            268         EAX     X3,0                 Null AC
   000221    000000 6260 00            269         EAX     X6,0            NULL SC
   000222    000000 6270 00            270         EAX     X7,0            NULL RC
   000223  X 000000 7020 00            271           ICALT
                                       272         END

  CONTROL SECTION TABLE

   0 CODE   EVEN  000224
   1 RODATA EVEN  000000 LITERALS

 12:50 09/05/97  FILE=ZIM$DBRI.:ZIC0TSI       SYMBOL TABLE                                               11   BMAP - B00
 40000000 000000200000 .AC            *22
 40000000 000000000100 .AG            *22
 40000000 000000002000 .ALTO          *22
 40000000 000000000077 .ANL           *22
 40000000 000000200000 .APDN          *22
 40000000 000000000100 .ATMP          *22
 40000000 000000400000 .AV            *22
 40000000 000000400000 .B0            *22
 40000000 000000200000 .B1            *22
 40000000 000000000200 .B10           *22
 40000000 000000000100 .B11           *22
 40000000 000000000040 .B12           *22
 40000000 000000000020 .B13           *22
 40000000 000000000010 .B14           *22
 40000000 000000000004 .B15           *22
 40000000 000000000002 .B16           *22
 40000000 000000000001 .B17           *22
 40000000 000000400000 .B18           *22
 40000000 000000200000 .B19           *22
 40000000 000000100000 .B2            *22
 40000000 000000100000 .B20           *22
 40000000 000000040000 .B21           *22
 40000000 000000020000 .B22           *22
 40000000 000000010000 .B23           *22
 40000000 000000004000 .B24           *22
 40000000 000000002000 .B25           *22
 40000000 000000001000 .B26           *22
 40000000 000000000400 .B27           *22
 40000000 000000000200 .B28           *22
 40000000 000000000100 .B29           *22
 40000000 000000040000 .B3            *22
 40000000 000000000040 .B30           *22
 40000000 000000000020 .B31           *22
 40000000 000000000010 .B32           *22
 40000000 000000000004 .B33           *22
 40000000 000000000002 .B34           *22
 40000000 000000000001 .B35           *22
 12:50 09/05/97  FILE=ZIM$DBRI.:ZIC0TSI       SYMBOL TABLE                                               12   BMAP - B00
 40000000 000000020000 .B4            *22
 40000000 000000010000 .B5            *22
 40000000 000000004000 .B6            *22
 40000000 000000002000 .B7            *22
 40000000 000000001000 .B8            *22
 40000000 000000000400 .B9            *22
 40000000 000000000001 .BREAK         *22
 40000000 000000010000 .BRK           *22
 40000000 000000020000 .BTB           *22
 40000000 000000000001 .CAC           *22
 40000000 000000000000 .CAE           *22
 40000000 000000000200 .CANSSS        *22
 40000000 000000000400 .CD            *22
 40000000 000000040000 .CFLC          *22
 40000000 000000400000 .CHKSUM        *22
 40000000 000000100000 .CJRNL         *22
 40000000 000000000077 .CNSZ          *22
 40000000 000000160000 .COMC          *22
 40000000 000000000020 .CONT          *22
 40000000 000000000000 .CSE           *22
 40000000 000000700000 .CTYP          *22
 41000000 000000000270 .DBEST         *22
 41000000 000000000470 .DBIC          *22       245       262
 40000000 000000077777 .DBPT          *22
 41000000 000000000370 .DBSTK         *22
 40000000 000000020000 .DELM          *22
 40000000 000000002000 .DIDP          *22
 40000000 000000000077 .DNDX          *22
 40000000 000000600000 .DORD          *22
 40000000 000000000200 .DP            *22
 40000000 000000100000 .DPS           *22
 40000000 000000200000 .DPSA          *22
 40000000 000000400000 .DPST          *22
 40000000 000000000002 .DUMP          *22
 40000000 000000002000 .DUPC          *22
 40000000 000000010000 .DUPP          *22
 40000000 000000200000 .EBCL          *22
 12:50 09/05/97  FILE=ZIM$DBRI.:ZIC0TSI       SYMBOL TABLE                                               13   BMAP - B00
 40000000 000000400000 .EBCM          *22
 40000000 000000200000 .ENCRP         *22
 40000000 000000000077 .ENDX          *22
 40000000 000000000400 .ENQ           *22
 40000000 000000004000 .ETC           *22
 40000000 000000000400 .EXIT          *22
 40000000 000000000200 .FMOD          *22
 40000000 000000000077 .FNL           *22
 40000000 000000000074 .FORG          *22
 40000000 000000002000 .FR            *22
 40000000 000000000100 .FSR           *22
 40000000 000000003400 .FUSE          *22
 40000000 000000010000 .FVF           *22
 40000000 000000040000 .FVR           *22
 41000000 000000000010 .INDEXED       *22       103
 40000000 000000777777 .IXID          *22
 40000000 000000001777 .IXNUM         *22
 40000000 000000000004 .KEYED         *22
 40000000 000000010000 .LCK           *22
 40000000 000000400000 .LEIL          *22
 40000000 000000001000 .LG            *22
 40000000 000000000002 .LOAD          *22
 40000000 000000020000 .MAR           *22
 40000000 000000000007 .MEMT          *22
 40000000 000000010000 .MRL           *22
 40000000 000000040000 .MSM           *22
 60000000 000000000001 .N6685         *22
 40000000 000000100000 .NAI           *22
 40000000 000000200000 .NBI           *22
 40000000 000000000002 .NCIA          *22
 40000000 000000040000 .NMV           *22
 40000000 000000017777 .NOENT         *22
 40000000 000000400000 .OA            *22
 40000000 000000740000 .OPEV          *22
 40000000 000000100000 .OSM           *22
 40000000 000000100000 .PAFIL         *22
 40000000 000000200000 .PAHVR         *22
 12:50 09/05/97  FILE=ZIM$DBRI.:ZIC0TSI       SYMBOL TABLE                                               14   BMAP - B00
 40000000 000000000001 .PAIA          *22
 40000000 000000040000 .PALIL         *22
 40000000 000000020000 .PALVR         *22
 40000000 000000400000 .PANLL         *22
 40000000 000000400000 .PCKD          *22
 40000000 000000001600 .PMOD          *22
 40000000 000000000520 .PRCSE         *22
 40000000 000000000007 .PSTO          *22
 40000000 000000006040 .PTAS          *22
 40000000 000000010100 .PTCHK         *22
 40000000 000000010200 .PTDEC         *22
 40000000 000000010140 .PTENC         *22
 40000000 000000020000 .RA            *22
 41000000 000000100000 .RC            *22        76
 40000000 000000400000 .RELEASE       *22
 40000000 000000000017 .RELT          *22
 40000000 000000004000 .RERA          *22
 40000000 000000400000 .RERS          *22
 40000000 000000010000 .RKEY          *22
 40000000 000000000077 .RNL           *22
 40000000 000000200000 .RSTO          *22
 40000000 000000007777 .RTYP          *22
 41000000 000000040000 .SC            *22        87
 40000000 000000000070 .SETM          *22
 40000000 000000740000 .SETO          *22
 40000000 000000000700 .SETT          *22
 40000000 000000040000 .SFNP          *22
 40000000 000000004000 .SM            *22
 40000000 000000020000 .SMOD          *22
 40000000 000000000077 .SNL           *22
 41000000 000000020000 .SNSS          *22        92
 40000000 000000010000 .SO            *22
 41000000 000000100000 .SR            *22        81
 40000000 000000004000 .SRCR          *22
 40000000 000000001000 .SS            *22
 40000000 000000000007 .SSTP          *22
 40000000 000000004000 .SYN           *22
 12:50 09/05/97  FILE=ZIM$DBRI.:ZIC0TSI       SYMBOL TABLE                                               15   BMAP - B00
 40000000 000000000040 .SYNC          *22
 40000000 000000020000 .TJRNL         *22
 40000000 000000040000 .TMPLT         *22
 40000000 000000040000 .TRACE         *22
 40000000 000000000001 .TRENTRY       *22
 40000000 000000000012 .TRIDEL        *22
 40000000 000000000021 .TRIDELENQ     *22
 40000000 000000000024 .TRIDEQ        *22
 40000000 000000000013 .TRIMOD        *22
 40000000 000000000022 .TRIMODENQ     *22
 40000000 000000000014 .TRIREAD       *22
 40000000 000000000023 .TRIREADENQ    *22
 40000000 000000000011 .TRISTO        *22
 40000000 000000000020 .TRISTOENQ     *22
 40000000 000000000017 .TRPDEQ        *22
 40000000 000000000004 .TRPMOD        *22
 40000000 000000000016 .TRPMODENQ     *22
 40000000 000000000002 .TRPREAD       *22
 40000000 000000000015 .TRPREADENQ    *22
 40000000 000000000003 .TRPWRITE      *22
 40000000 000000000010 .TRRACC        *22
 40000000 000000000006 .TRRDEL        *22
 40000000 000000000007 .TRRMOD        *22
 40000000 000000000005 .TRRSTO        *22
 40000000 000000004000 .ULCK          *22
 40000000 000000400000 .UPDT          *22
 40000000 000000000040 .VIA           *22
 61000000 000000000001 A              *22        74        85       168
 40000000 000000000002 ABAS           *22
 40000000 000000000001 AC             *22
 40000000 777777777760 ACDEF          *22
 40000000 000000211070 ACDNL          *22
 40000000 000000000003 ACID           *22
 40000000 000000001016 ACOPN          *22
 41000000 000000000002 ACP            *22       260
 41000000 000000000005 ACPTR          *22       107       125
 40000000 000000000002 ACRAH          *22
 12:50 09/05/97  FILE=ZIM$DBRI.:ZIC0TSI       SYMBOL TABLE                                               16   BMAP - B00
 40000000 000000000001 ACRAN          *22
 40000000 000000001003 ACREC          *22
 40000000 000000000001 ACTDBCB        *22
 40000000 000000000002 ACTDBNO        *22
 40000000 000000001017 ACTP           *22
 40000000 000000000000 ACTSSS         *22
 40000000 000000000000 ACTSZ          *22
 40000000 000000210565 AFNP           *22
 40000000 000000000635 AFT            *22
 40000000 000000022124 AIR            *22
 40000000 000000000016 AMAX           *22
 40000000 000000000026 ANAM           *22
 40000000 000000021614 ANR            *22
 01101000 000000000217 ANRDY          250       258      *266
 40000000 000000000001 APNO           *22
 41000000 000000210562 ARGER          *22       183
 41000000 000000000020 ARGS           *22
 40000000 000000000077 ARGS2          *22
 40000000 000000210713 ARNAF          *22
 00101000 000000000177 ASER          *206
 41000000 000000000003 ATBL           *22       248       249
 40000000 000000000000 ATRIB          *22
 40000000 000000000002 AVLN           *22
 40000000 000000000013 AWS$           *22
 40000000 000000000010 AWSZ           *22
 60000000 000000000001 B              *22
 40000000 000000001006 B32N           *22
 40000000 000000001007 B36N           *22
 40000000 000000001056 B72N           *22
 40000000 000000000001 BADDR          *22
 40000000 000000210712 BADSEED        *22
 40000000 777777777765 BDCW           *22
 40000000 000000000633 BEF            *22
 40000000 000000020000 BEFW           *22
 40000000 000000000751 BEMT           *22
 40000000 777777777761 BID            *22
 40000000 777777777762 BIND           *22
 12:50 09/05/97  FILE=ZIM$DBRI.:ZIC0TSI       SYMBOL TABLE                                               17   BMAP - B00
 40000000 000000000007 BLKD           *22
 40000000 000000303331 BME02          *22
 41000000 000000001203 BMPB           *22
 40000000 000000000652 BN1            *22
 40000000 000000000654 BN2            *22
 40000000 000000000004 BPL            *22
 40000000 000000000015 BPLDBK         *22
 40000000 000000000034 BSPG           *22
 40000000 777777777763 BSTAT          *22
 40000000 000000000750 BTX0           *22
 41000000 000000001160 BUF4           *22
 41000000 000000001170 BUF6           *22
 41000000 000000000000 BUFORG         *22
 40000000 000000001060 BUFRQ          *22
 40000000 000000000006 BURRID         *22
 41000000 000000000020 BWASZ          *22
 60000000 000000000001 C              *22
 40000000 000000000050 CAAC           *22
 40000000 000000000050 CACD           *22
 40000000 000000000111 CAG            *22
 40000000 000000001033 CAL            *22
 41101000 000000000161 CALE1           77      *169
 41101000 000000000161 CALE2           88      *170
 40000000 000000000026 CALLPM0        *22
 40000000 000000000003 CANSSS         *22
 40000000 000000000003 CBCPA          *22
 40000000 000000000002 CBCPO          *22
 40000000 000000000002 CBENO          *22
 40000000 000000000014 CBFSZ          *22
 40000000 000000000753 CBIB           *22
 40000000 000000001030 CBID           *22
 40000000 000000000014 CBRCE          *22
 40000000 000000000014 CBRCP          *22
 40000000 000000001033 CBRID          *22
 40000000 000000000015 CBRPA          *22
 40000000 000000000031 CCHAR          *22
 40000000 000000000040 CDBK           *22
 12:50 09/05/97  FILE=ZIM$DBRI.:ZIC0TSI       SYMBOL TABLE                                               18   BMAP - B00
 40000000 000000000030 CDES           *22
 40000000 000000000110 CDP            *22
 40000000 000000001044 CDPSI          *22
 40000000 000000000002 CDRH           *22
 40000000 000000000003 CDRN           *22
 40000000 000000000002 CDSH           *22
 40000000 000000000003 CDSN           *22
 40000000 000000000722 CENTRN         *22
 40000000 000000000722 CENTRO         *22
 40000000 000000000716 CENTRY         *22
 41000000 000000001053 CFCT           *22
 40000000 000000000670 CFLPT1         *22
 40000000 000000000672 CFLPT2         *22
 40000000 000000000015 CFSA           *22
 40000000 000000000646 CHDBK          *22
 40000000 000000000773 CHR            *22
 40000000 000000000006 CHRD           *22
 40000000 000000000772 CHRO           *22
 40000000 000000007640 CHRTP          *22
 40000000 000000001043 CIAC           *22
 40000000 000000000012 CIAWS          *22
 40000000 000000001051 CIBSI          *22
 40000000 000000000516 CIND           *22
 40000000 000000001041 CINVSZ         *22
 40000000 000000001042 CIPG           *22
 40000000 000000001050 CIPSI          *22
 40000000 000000000000 CIRUN          *22
 40000000 000000000002 CIRWS          *22
 41000000 000000000002 CISWS          *22       142       148
 40000000 000000000014 CIWSOF         *22
 40000000 000000303374 CKSM           *22
 40000000 000000000022 CLCN           *22
 40000000 000000000023 CLCP           *22
 40000000 000000000003 CLCRC          *22
 40000000 000000000003 CLCSC          *22
 40000000 000000000237 CLI            *22
 40000000 000000000026 CLNG           *22
 12:50 09/05/97  FILE=ZIM$DBRI.:ZIC0TSI       SYMBOL TABLE                                               19   BMAP - B00
 40000000 000000000052 CMPL           *22
 40000000 000000000002 CN             *22
 40000000 000000303315 CNE1           *22
 41000000 000000006034 CNUL           *22       189
 40000000 000000100000 COB74          *22
 40000000 000000000001 COFS           *22
 40000000 000000000045 CONCD          *22
 40000000 000000007764 CP6PGSZB       *22
 41000000 000000001775 CP6PGSZW       *22
 40000000 000000001000 CPGR           *22
 40000000 000000000723 CPTRN          *22
 40000000 000000000723 CPTRO          *22
 60000000 000000000004 CPW            *22
 40000000 000000000112 CRA            *22
 40000000 000000001004 CRD            *22
 40000000 000000000764 CREC           *22
 40000000 000000006344 CRIT           *22
 40000000 000000006200 CRNUL          *22
 40000000 000000007330 CRST           *22
 41000000 000000001223 CRUN           *22
 41000000 000000000000 CSECT          *22
 40000000 000000000007 CSMPP          *22
 40000000 000000001000 CSPAC          *22
 40000000 000000000004 CSPAH          *22
 40000000 777777777776 CSPES          *22
 40000000 777777777776 CSPSB          *22
 40000000 000000000115 CSTS           *22
 40000000 000000000071 CSUB           *22
 40000000 000000000017 CSZ            *22
 40000000 000000000057 CTMASK         *22
 40000000 000000000774 CTPAI          *22
 40000000 000000000240 CURLN          *22
 40000000 000000000236 CURLT          *22
 40000000 000000000770 CURPG          *22
 41000000 000000000001 CURR           *22        97
 40000000 000000000035 CURRS          *22
 40000000 000000000037 CURSS          *22
 12:50 09/05/97  FILE=ZIM$DBRI.:ZIC0TSI       SYMBOL TABLE                                               20   BMAP - B00
 40000000 000000001005 CWRT           *22
 40000000 000000000237 CWSOF          *22
 60000000 000000000001 D              *22
 40000000 000000000003 DBAN           *22
 40000000 000000000036 DBDR           *22
 40000000 000000000037 DBFN           *22
 40000000 000000000754 DBK            *22
 40000000 000000000777 DBKAC          *22
 41000000 000000000000 DBKEY          *22       100       124
 40000000 000000000000 DBKL           *22
 40000000 000000007474 DBKN           *22
 41000000 000000000776 DBKR           *22
 40000000 000000000777 DBKRQ          *22
 40000000 000000000234 DBKSI          *22
 40000000 000000000651 DBKSR          *22
 40000000 000000000047 DBKYN          *22
 40000000 000000210652 DBLC01         *22
 40000000 000000210653 DBLC05         *22
 40000000 000000303334 DBLC07         *22
 40000000 000000210655 DBLD01         *22
 40000000 000000000010 DBLIM          *22
 40000000 000000000033 DBPKY          *22
 40000000 000000000023 DBRN           *22
 40000000 000000000013 DBSN           *22
 40000000 000000000001 DBST           *22
 40000000 000000000757 DCDSR          *22
 40000000 000000210650 DCE1           *22
 40000000 000000001053 DCPR           *22
 40000000 000000001053 DCPW           *22
 40000000 000000000015 DCTBL          *22
 40000000 000000000032 DDBK           *22
 40000000 000000000006 DDCB           *22
 40000000 000000011754 DDI            *22
 41000000 000000000000 DEF            *22        75        80        86        91       102
 40000000 000000000014 DEF2           *22
 40000000 000000303413 DELAK          *22
 40000000 000000000036 DELRS          *22
 12:50 09/05/97  FILE=ZIM$DBRI.:ZIC0TSI       SYMBOL TABLE                                               21   BMAP - B00
 40000000 000000000732 DEPCW          *22
 40000000 000000303414 DLDBK          *22
 40000000 000000210627 DLE1           *22
 40000000 000000303310 DLE2           *22
 40000000 000000210631 DLE3           *22
 40000000 000000016040 DNES           *22
 40000000 777777777777 DPAGN          *22
 40000000 000000000020 DPPI           *22
 40000000 000000000053 DPSLW          *22
 40000000 000000000003 DS             *22
 40000000 000000001063 DSDES          *22
 40000000 000000303316 DSE1           *22
 40000000 000000000735 DUSEPA         *22
 60000000 000000000001 E              *22
 40000000 000000303251 EDPER          *22
 40000000 000000000026 EEIND          *22
 40000000 000000000713 EFIND          *22
 40000000 000000001030 ELO            *22
 40000000 000000210711 ENCPNA         *22
 40000000 000000000007 ENCRP          *22
 40000000 000000000752 ENDSR          *22
 40000000 000000210647 ENE1           *22
 40000000 000000000716 ENIND          *22
 40000000 000000000013 ENTBL          *22
 40000000 000000000710 ENTNO          *22
 40000000 000000000712 ENTPTR         *22
 40000000 000000000717 ENTSZ          *22
 40000000 000000000711 ENTTYP         *22
 40000000 000000004064 EOSR           *22
 40000000 000000000004 ES             *22
 41000000 000000000100 ESTSZ          *22
 40000000 000000000725 ESZ            *22
 40000000 000000000005 ETCADR         *22
 40000000 000000000005 ETCDBNO        *22
 40000000 000000000064 EXCCD          *22
 40000000 000000234534 FALRT          *22
 40000000 000000001055 FBF72          *22
 12:50 09/05/97  FILE=ZIM$DBRI.:ZIC0TSI       SYMBOL TABLE                                               22   BMAP - B00
 40000000 000000001025 FBU61          *22
 40000000 000000001020 FBUF           *22
 40000000 000000001026 FBUF1          *22
 40000000 000000001027 FBUF4          *22
 40000000 000000001024 FBUF6          *22
 40000000 000000001022 FBUFM          *22
 40000000 000000001021 FBUFU          *22
 40000000 000000001023 FBUMD          *22
 40000000 000000000004 FCN            *22
 40000000 000000000051 FCNT           *22
 40000000 000000000002 FCP            *22
 40000000 000000000047 FCSS           *22
 40000000 000000000005 FD             *22
 40000000 000000210637 FDE1           *22
 40000000 000000303320 FDE2           *22
 40000000 000000303321 FDE3           *22
 40000000 000000210642 FDE4           *22
 40000000 000000210643 FDE5           *22
 40000000 000000210644 FDE6           *22
 40000000 000000303325 FDE7           *22
 40000000 000000303326 FDE8           *22
 40000000 000000000021 FEASZ          *22
 40000000 000000000740 FETM           *22
 01101000 000000000177 FFER           116       136      *210
 40000000 000000000006 FI             *22
 40000000 000000000103 FIAC           *22
 41000000 000000001100 FIB1           *22
 41000000 000000001130 FIBP           *22
 40000000 000000000000 FIBX           *22
 40000000 000000000102 FICNT          *22
 40000000 000000000005 FIPN           *22
 40000000 000000000054 FKIND          *22
 40000000 000000000015 FLAGS          *22
 40000000 000000000244 FLDDSC         *22
 40000000 000000000046 FLDTL          *22
 40000000 000000000020 FMSBF          *22
 40000000 000000000006 FNAM           *22
 12:50 09/05/97  FILE=ZIM$DBRI.:ZIC0TSI       SYMBOL TABLE                                               23   BMAP - B00
 01101000 000000000177 FNER           120       150      *211
 41000000 000000000250 FNIND          *22        71       108       126
 40000000 000000000004 FNL            *22
 40000000 000000000101 FRAC           *22
 40000000 000000000002 FRANGE         *22
 40000000 000000211400 FRDNL          *22
 01101000 000000000062 FRST           110      *115
 40000000 000000200000 FRTRN          *22
 40000000 000000000005 FRWSO          *22
 40000000 000000000767 FSLN           *22
 40000000 000000000766 FSOF           *22
 40000000 000000000060 FTIND          *22
 40000000 000000303240 FTLINCR        *22
 40000000 000000000021 FWSSZ          *22
 41000000 000000000246 GACDK          *22       247       253
 01101000 000000000176 GACER          105      *201
 40000000 000000000014 GDCB           *22
 41000000 000000000006 GERROR         *22       105       116       120       136       150       160
                                      162
 40000000 000000000016 GINHIB         *22
 40000000 000000000020 GIOAWS         *22
 40000000 000000000022 GIOBUF         *22
 40000000 000000000021 GIOPGNO        *22
 01101000 000000000214 GOTAC          254      *259
 40000000 000000000015 GPAGE          *22
 40000000 000000000010 GRETAC         *22
 40000000 000000000011 GRETFR         *22
 40000000 000000000013 GRETRC         *22
 40000000 000000000012 GRETSC         *22
 41000000 000000000025 GRLCW          *22        64
 40000000 000000000014 GSTCD          *22
 40000000 000000000007 GSYSERR        *22
 40000000 000000000010 GT             *22
 40000000 000000000046 GTRNAME        *22
 40000000 000000000055 GTRPDCB        *22
 40000000 000000000056 GTRPNO         *22
 40000000 000000000057 GTRRDBK        *22
 12:50 09/05/97  FILE=ZIM$DBRI.:ZIC0TSI       SYMBOL TABLE                                               24   BMAP - B00
 40000000 000000000060 GTRRTYPE       *22
 40000000 000000000060 GTRTYPE        *22
 40000000 000000000027 HASH           *22
 40000000 000000000022 HIA            *22
 40000000 000000000775 HIDB           *22
 40000000 000000000003 HIGHDBK        *22
 40000000 000000000004 HIGHPG         *22
 40000000 000000001037 HIL            *22
 40000000 000000000002 HILN           *22
 40000000 000000000006 HPOS           *22
 40000000 000000000756 IAAC           *22
 40000000 000000001011 IACLN          *22
 40000000 000000001010 IALC           *22
 40000000 000000010314 IAN            *22
 40000000 000000001012 IANLN          *22
 40000000 000000000001 IASID          *20
 40000000 000000020320 ICA            *22
 40000000 000000000023 ICKSMP         *22
 40000000 000000000024 ICKSMV         *22
 40000000 000000210742 ICNR           *22
 41000000 000000000020 ICSIZ          *22
 40000000 000000010004 IDBK           *22
 40000000 000000012120 IDI            *22
 40000000 000000000023 IDS            *22
 40000000 000000000011 IF             *22
 40000000 000000000021 IFIPN          *22
 40000000 000000000000 IFR            *22
 01101000 000000000105 IFRST          128      *133
 40000000 000000234546 IKSEQ          *22
 01101000 000000000161 ILOP           112       113       130       131       169       170      *182
 40000000 000000000113 INAFLAG        *22
 40000000 000000000016 INCHA          *22
 01101000 000000000074 INDEX          104      *122
 40000000 000000210566 INNM           *22
 40000000 000000210567 INSS           *22
 40000000 000000210575 INSST          *22
 40000000 000000303241 INTER          *22
 12:50 09/05/97  FILE=ZIM$DBRI.:ZIC0TSI       SYMBOL TABLE                                               25   BMAP - B00
 40000000 000000400000 INTII          *22
 40000000 000000000013 INTVL          *22
 40000000 000000001060 INVFLG         *22
 40000000 000000001043 INVOF          *22
 40000000 000000000014 INVT           *22
 01101000 000000000114 INXT           129      *139
 40000000 000000000034 IOBLK          *22
 40000000 000000303354 IOCLSD         *22
 40000000 000000303355 IOCLSK         *22
 40000000 000000303257 IOE1           *22
 40000000 000000303264 IOE11          *22
 40000000 000000303265 IOE12          *22
 40000000 000000303266 IOE18          *22
 40000000 000000303260 IOE2           *22
 40000000 000000303261 IOE3           *22
 40000000 000000303262 IOE7           *22
 40000000 000000303263 IOE8           *22
 40000000 000000303363 IOFLSH         *22
 40000000 000000210676 IOGDCB         *22
 40000000 000000001002 IOINC          *22
 40000000 000000305160 IOINI          *22
 40000000 000000305155 IONOTIDS       *22
 40000000 000000305154 IONOTKEY       *22
 40000000 000000210677 IOOPND         *22
 40000000 000000210700 IOOPNK         *22
 40000000 000000303361 IORDD          *22
 40000000 000000305156 IOSCHEMA       *22
 40000000 000000001052 IOSTS          *22
 40000000 000000303362 IOWRTD         *22
 41000000 000000000750 IOWS           *22
 40000000 000000000647 IPC            *22
 40000000 000000000650 IPCF           *22
 40000000 000000000006 IROLLFLAG      *22
 41000000 000000010150 IRSN           *22       173       178
 40000000 000000000004 ISYSDCB        *22
 40000000 000000000005 ISYSERR        *22
 40000000 000000000061 ITPTR          *22
 12:50 09/05/97  FILE=ZIM$DBRI.:ZIC0TSI       SYMBOL TABLE                                               26   BMAP - B00
 40000000 000000000060 ITRS           *22
 40000000 000000021760 IUM            *22
 40000000 000000000017 IUSZ           *22
 40000000 000000234522 IVDBK          *22
 40000000 000000000011 IXBUF$         *22
 40000000 000000000046 IXFBSZ         *22
 40000000 777777777776 IXID           *22
 40000000 777777777777 IXPLL          *22
 40000000 000000000523 KCARG0         *22
 40000000 000000000524 KCARG3         *22
 40000000 000000000525 KCARG4         *22
 40000000 000000000700 KCREG          *22
 40000000 000000000006 KDCB           *22
 40000000 000000000666 KEYDS          *22
 41000000 000000000010 KEYPA          *22       141
 40000000 777777777776 KLNG           *22
 40000000 000000000022 KPASZ          *22
 40000000 000000000006 KWSZ           *22
 40000000 000000000052 LANGC          *22
 40000000 000000001014 LAS            *22
 40000000 000000700000 LCODM          *22
 40000000 000000001045 LDPSI          *22
 40000000 000000001071 LINPT          *22
 40000000 000000001017 LNCNT          *22
 40000000 000000000762 LNNO           *22
 40000000 000000001036 LOL            *22
 40000000 000000000715 LOLIM          *22
 40000000 000000000023 LPASZ          *22
 40000000 000000000012 LPP            *22
 41000000 000000257764 LR             *22       194
 40000000 000000301270 LRA            *22
 40000000 000000000017 LRSZ           *22
 40000000 000000001035 LSPC           *22
 40000000 000000000750 LUPD           *22
 61000000 000000000001 M9             *22
 40000000 000000000013 MD             *22
 40000000 000000300000 MDQS           *22
 12:50 09/05/97  FILE=ZIM$DBRI.:ZIC0TSI       SYMBOL TABLE                                               27   BMAP - B00
 40000000 000000000730 MEMPTR         *22
 40000000 000000000727 MEMTYP         *22
 40000000 000000000045 MODCD          *22
 41000000 000000001207 MODFL          *22
 40000000 000000000042 MODFR          *22
 40000000 000000000044 MODIN          *22
 40000000 000000000044 MODRS          *22
 40000000 000000000043 MODSC          *22
 40000000 000000000047 MRBKI          *22
 40000000 000000210632 MRE4           *22
 40000000 000000303313 MRE5           *22
 40000000 000000210634 MRE7           *22
 40000000 000000400000 MW             *22
 40000000 000000000025 NCH            *22
 40000000 000000000002 NCHA           *22
 40000000 000000000005 NCHRS          *22
 40000000 000000000014 NDCD           *22
 40000000 000000000012 NENC           *22
 40000000 000000000634 NEW            *22
 40000000 000000001072 NEWSIZ         *22
 40000000 000000235164 NKA            *22
 40000000 000000235020 NKDB           *22
 40000000 000000303415 NLDBK          *22
 40000000 777777777777 NLIND          *22
 40000000 000000001040 NLN            *22
 40000000 000000400000 NLNSA          *22
 41000000 000000001053 NOBF           *22
 01101000 000000000166 NOCUR           98      *188
 40000000 000000000711 NOPTRS         *22
 40000000 000000000742 NPARCW         *22
 40000000 000000000630 NPIND          *22
 40000000 000000000004 NPOS           *22
 01101000 000000000025 NRCRQ           73       *83
 40000000 000000234510 NSA            *22
 40000000 000000234654 NSCS           *22
 40000000 000000234344 NSDB           *22
 40000000 000000000001 NSTS           *22
 12:50 09/05/97  FILE=ZIM$DBRI.:ZIC0TSI       SYMBOL TABLE                                               28   BMAP - B00
 40000000 000000000726 NUMENT         *22
 40000000 000000000727 NUMPTR         *22
 40000000 777777777760 NXBUF          *22
 40000000 000000000713 NXPRI          *22
 01101000 000000000067 NXT            111      *119
 40000000 000000000771 NXTC           *22
 40000000 000000000001 OAACN          *22
 40000000 000000000022 OACIWSOF       *22
 40000000 000000000001 OAOFST         *22
 40000000 000000000002 OARCN          *22
 40000000 000000000001 OASCN          *22
 40000000 000000000014 OD             *22
 40000000 000000000074 ODBK           *22
 40000000 000000001072 OLDSIZ         *22
 40000000 000000000101 OPADP          *22
 40000000 000000000741 OPARCW         *22
 40000000 000000210570 ORDNI          *22
 40000000 777777777777 OTVL           *22
 40000000 000000000252 OWNPTR         *22
 40000000 000000000016 PABUF          *22
 40000000 000000001041 PACD           *22
 40000000 000000000001 PACW           *22
 40000000 000000000733 PADBK          *22
 40000000 000000000740 PADUP          *22
 40000000 000000000745 PAEN           *22
 40000000 000000000745 PAEO           *22
 40000000 000000000734 PAEOF          *22
 40000000 000000303336 PAER1          *22
 40000000 000000303337 PAER2          *22
 40000000 000000303340 PAER3          *22
 40000000 000000303341 PAER4          *22
 40000000 000000303342 PAER5          *22
 40000000 000000303343 PAER6          *22
 40000000 000000000747 PAESZ          *22
 40000000 000000001060 PAFLG          *22
 40000000 000000000731 PAOPTR         *22
 40000000 000000000734 PAPOF          *22
 12:50 09/05/97  FILE=ZIM$DBRI.:ZIC0TSI       SYMBOL TABLE                                               29   BMAP - B00
 40000000 000000000714 PARCW          *22
 40000000 000000000726 PARVPA         *22
 40000000 000000000724 PASPLT         *22
 40000000 000000000004 PAWSZ          *22
 40000000 777777777762 PBUF           *22
 40000000 000000000020 PC             *22
 41000000 000000000510 PCB            *22
 40000000 000000000642 PCD            *22
 40000000 000000000642 PCD2           *22
 40000000 000000000247 PCEXI          *22
 40000000 000000000675 PCMIN          *22
 40000000 000000004541 PCOMP          *22
 40000000 000000000010 PD             *22
 40000000 000000000040 PE             *22
 40000000 000000000017 PENDING        *22
 41000000 000000000004 PF             *22       157
 40000000 000000000400 PFG            *22
 40000000 000000000200 PFM            *22
 40000000 000000000100 PFS            *22
 40000000 000000000400 PG             *22
 40000000 000000001064 PGHD           *22
 40000000 000000000006 PGLIM          *22
 40000000 000000000003 PGRNG          *22
 40000000 000000000746 PGSIZE         *22
 40000000 000000000641 PGSPLT         *22
 40000000 000000000100 PKAW           *22
 40000000 000000001034 PLO            *22
 40000000 000000000004 PLSEP          *22
 40000000 000000000200 PM             *22
 40000000 000000001054 PNEOO          *22
 40000000 000000001047 POFSI          *22
 40000000 000000000005 PPOS           *22
 41000000 000000000000 PR0            *20        61        63        66        68        69
 41000000 000000000001 PR1            *20        65        67        72       141       143       149
 40000000 000000000002 PR2            *20
 40000000 000000000003 PR3            *20
 40000000 000000000004 PR4            *20
 12:50 09/05/97  FILE=ZIM$DBRI.:ZIC0TSI       SYMBOL TABLE                                               30   BMAP - B00
 41000000 000000000005 PR5            *20        64       105       116       120       136       150
                                      160       162
 41000000 000000000006 PR6            *20        75        80        86        91        96       102
                                      140       155
 41000000 000000000007 PR7            *20        71        84        94        97        99       100
                                      101       106       107       108       123       124       125
                                      126       135       141       142       148       153       154
                                      156       245       247       248       249       252       253
                                      260       262
 40000000 000000303267 PRE1           *22
 40000000 000000303277 PRE10          *22
 40000000 000000303270 PRE3           *22
 40000000 000000303271 PRE4           *22
 40000000 000000303272 PRE5           *22
 40000000 000000210613 PRE6           *22
 40000000 000000210614 PRE7           *22
 40000000 000000210615 PRE8           *22
 40000000 000000303276 PRE9           *22
 40000000 000000000522 PREXC          *22
 40000000 000000000521 PRFR           *22
 40000000 000000000521 PRFR2          *22
 41000000 000000000000 PRIV           *22       156
 40000000 000000000526 PROPA          *22
 41000000 000000000517 PRRC           *22        84
 40000000 000000000517 PRRS           *22
 41000000 000000000520 PRSC           *22        94
 40000000 000000000516 PRSS           *22
 40000000 000000000644 PRSTS          *22
 01101000 000000000172 PRVER          158      *193
 40000000 000000000100 PS             *22
 41000000 000000000000 PS0SID         *20
 41000000 000000000001 PS1SID         *20
 41000000 000000000002 PS2SID         *20
 41000000 000000000003 PS3SID         *20
 41000000 000000000004 PS4SID         *20
 40000000 000000000005 PS5SID         *20
 40000000 000000000006 PS6SID         *20
 12:50 09/05/97  FILE=ZIM$DBRI.:ZIC0TSI       SYMBOL TABLE                                               31   BMAP - B00
 40000000 000000303416 PSA            *22
 40000000 000000000020 PSC            *22
 40000000 000000000010 PSD            *22
 40000000 000000000004 PSF            *22
 40000000 000000000400 PSO            *22
 40000000 000000000720 PTESZ          *22
 40000000 000000000631 PTR            *22
 40000000 000000000724 PTRESZ         *22
 40000000 000000000710 PTRNO          *22
 41000000 000000000630 PWS            *22
 40000000 000000000002 RADDR          *22
 40000000 000000000010 RADIX          *22
 40000000 000000000005 RAPTR          *22
 40000000 000000000004 RAWSOF         *22
 40000000 777777777766 RBA            *22
 40000000 000000023432 RCBI           *22
 40000000 000000211234 RCDNL          *22
 40000000 000000000005 RCFRH          *22
 40000000 000000000004 RCFRN          *22
 40000000 000000001075 RCHD           *22
 40000000 000000000001 RCID           *22
 41000000 000000000006 RCPTR          *22       154
 40000000 000000000002 RCRAH          *22
 40000000 000000000001 RCRAN          *22
 40000000 000000000003 RCRSH          *22
 40000000 000000000002 RCRSN          *22
 40000000 000000210667 RCVER1         *22
 40000000 000000210670 RCVER2         *22
 40000000 000000210671 RCVER4         *22
 40000000 000000210672 RCVER5         *22
 40000000 000000210673 RCVER6         *22
 40000000 000000000736 RCW1           *22
 40000000 000000000737 RCW2           *22
 41000000 000000000004 RCWSO          *22       155
 40000000 000000000077 RDAC           *22
 40000000 000000000076 RDCNT          *22
 40000000 000000040000 RDI            *22
 12:50 09/05/97  FILE=ZIM$DBRI.:ZIC0TSI       SYMBOL TABLE                                               32   BMAP - B00
 40000000 000000015674 RDLT           *22
 40000000 000000000075 RDYCW          *22
 40000000 000000000066 RECAC          *22
 01101000 000000000132 RECFN          117       121       137      *151
 40000000 000000000065 RECFR          *22
 40000000 000000000070 RECRC          *22
 40000000 000000000067 RECSC          *22
 40000000 000000000003 RECSZ          *22
 40000000 000000000235 REMLT          *22
 40000000 000000000062 REM_RECOVER    *22
 40000000 000000000251 RETFR          *22
 40000000 000000210724 RFDNL          *22
 01101000 000000000177 RICER          176       181       187       192       197      *215
 40000000 000000017644 RIM            *22
 40000000 000000000005 RNAM           *22
 40000000 000000015706 RNDLT          *22
 40000000 000000000662 RNG1           *22
 40000000 000000000664 RNG2           *22
 40000000 000000000073 RNGD           *22
 40000000 000000000072 RNGO           *22
 40000000 000000000660 RNGTAL         *22
 40000000 000000020154 RNM            *22
 01101000 000000000151 RNSSE           82      *172
 41000000 000000000041 ROCUR          *22       135
 40000000 000000000001 ROFST          *22
 40000000 000000002114 ROLL           *22
 40000000 000000020010 RPM            *22
 40000000 000000000001 RSCDH          *22
 40000000 000000000001 RSCDN          *22
 40000000 000000211710 RSDNL          *22
 40000000 000000004540 RSEE           *22
 40000000 000000000003 RSIZ           *22
 40000000 000000000110 RSPAM          *22
 40000000 000000000004 RSPTR          *22
 40000000 000000000037 RSREQ          *22
 40000000 000000000002 RSSSH          *22
 40000000 000000000001 RSSSN          *22
 12:50 09/05/97  FILE=ZIM$DBRI.:ZIC0TSI       SYMBOL TABLE                                               33   BMAP - B00
 40000000 000000210574 RSZER          *22
 40000000 000000000632 RSZTP          *22
 40000000 000000000003 RTP            *22
 40000000 000000000003 RTYP           *22
 40000000 000000000530 RV1            *22
 40000000 000000000550 RV2            *22
 40000000 000000000570 RV3            *22
 40000000 000000000610 RV4            *22
 41000000 000000000003 RVASID         *20        65
 41000000 000000000510 RVI            *22        99       106       123
 41000000 000000000511 RVO            *22       153
 40000000 000000000513 RVPA           *22
 40000000 000000000512 RVT            *22
 40000000 000000000022 RVTAL          *22
 40000000 000000000002 RWSZ           *22
 40000000 000000000015 RY             *22
 40000000 000000210620 RYE1           *22
 40000000 000000210621 RYE4           *22
 40000000 777777777767 SA             *22
 40000000 000000000005 SANAM          *22
 40000000 000000001062 SCDES          *22
 40000000 000000211544 SCDNL          *22
 40000000 000000000024 SCFC           *22
 40000000 000000000002 SCID           *22
 40000000 000000000024 SCLST          *22
 40000000 000000000004 SCNAM          *22
 40000000 000000000004 SCPTR          *22
 40000000 000000000003 SCRSH          *22
 40000000 000000000002 SCRSN          *22
 41000000 000000000001 SCWSO          *22        96       140
 40000000 000000001225 SFWS           *22
 40000000 000000001073 SIZCHG         *22
 40000000 000000000645 SKFLG          *22
 40000000 000000000643 SKIND          *22
 40000000 000000000641 SKTYP          *22
 40000000 000000020464 SMCR           *22
 40000000 000000000003 SNAM           *22
 12:50 09/05/97  FILE=ZIM$DBRI.:ZIC0TSI       SYMBOL TABLE                                               34   BMAP - B00
 40000000 000000000107 SNIND          *22
 40000000 000000000735 SNPAE          *22
 40000000 000000001046 SNSI           *22
 01101000 000000000155 SNSSE           93      *177
 40000000 000000000743 SOE            *22
 40000000 000000020630 SORSA          *22
 40000000 000000004374 SOSE           *22
 40000000 000000000000 SPAV           *22
 40000000 000000000744 SPCAVN         *22
 40000000 000000000744 SPCAVO         *22
 40000000 000000000765 SPLF           *22
 41000000 000000000765 SPND           *22
 01101000 000000000205 SRCHAC        *251       257
 40000000 000000000006 SSDT           *22
 40000000 000000303243 SSER           *22
 40000000 000000303244 SSER1          *22
 40000000 000000000002 SSH            *22
 40000000 000000000005 SSNAM          *22
 40000000 000000210573 SSNF           *22
 40000000 000000210576 SSNV           *22
 40000000 000000000020 SSSPTR         *22
 40000000 000000000010 SSVDT          *22
 40000000 000000000033 SSZTP          *22
 40000000 000000000017 ST             *22
 40000000 000000000104 STBIN          *22
 40000000 000000000105 STDEC          *22
 40000000 000000303302 STE1           *22
 40000000 000000303303 STE2           *22
 40000000 000000210624 STE3           *22
 40000000 000000303305 STE4           *22
 40000000 000000303306 STE5           *22
 41000000 000000000100 STKSIZ         *22
 40000000 000000000055 STMASK         *22
 40000000 000000000062 SUST           *22
 41000000 000000000020 SWS            *22
 41000000 000000000000 SWSAC          *22       101
 40000000 000000000002 SWSZ           *22
 12:50 09/05/97  FILE=ZIM$DBRI.:ZIC0TSI       SYMBOL TABLE                                               35   BMAP - B00
 40000000 000000000000 SYSSF          *22
 40000000 000000000765 SZREQ          *22
 40000000 000000000004 TBUF           *22
 40000000 000000001061 TCTRS          *22
 60000000 000000000000 TDS            *22
 41000000 000000000113 TEMP           *22
 40000000 000000000640 TFLD           *22
 40000000 000000000657 TFLD2          *22
 40000000 000000000056 TMASK          *22
 40000000 000000000061 TMODE          *22
 40000000 000000000676 TMPPA          *22
 40000000 000000000003 TPAI           *22
 40000000 000000500000 TPRCOD         *22
 40000000 000000001031 TSFN           *22
 40000000 000000000021 TSI            *22
 40000000 000000001013 UBRD2          *22
 41000000 000000001223 UBSZ           *22
 40000000 000000000667 UCADR          *22
 01101000 000000000177 UCERR          160      *203
 40000000 000000000036 UCRS           *22
 40000000 000000000024 UFSPK          *22
 40000000 000000000024 UFSPK2         *22
 00101000 000000000177 UKER1         *204
 40000000 000000000715 ULIM           *22
 41000000 000000004230 UNA            *22       267
 40000000 000000303417 UNIM           *22
 40000000 000000000002 UOFST          *22
 40000000 000000001035 UPACD          *22
 40000000 000000000721 UPACW          *22
 40000000 000000000007 UPFLAG         *22
 40000000 000000000103 UPPAI          *22
 40000000 000000000004 UPTSID         *20
 01101000 000000000177 USRER          162      *205
 40000000 000000000674 USTAT          *22
 40000000 000000000002 UWASID         *20
 40000000 000000000002 UWSSZ          *22
 40000000 000000000020 UWSZ           *22
 12:50 09/05/97  FILE=ZIM$DBRI.:ZIC0TSI       SYMBOL TABLE                                               36   BMAP - B00
 40000000 000000000243 VFDSC          *22
 40000000 000000001070 VFDSR          *22
 40000000 000000000656 VFLD           *22
 40000000 000000001074 VFLNG          *22
 40000000 000000001124 VIB1           *22
 40000000 000000001154 VIBP           *22
 41000000 000000000000 VLPSID         *20        61
 40000000 000000001074 VRSIZ          *22
 40000000 000000001067 WLOA           *22
 40000000 000000100000 WRTI           *22
 40000000 000000000000 WSBID          *22
 40000000 000000000003 WSOF           *22
 41000000 000000000000 X0             *20       174       179       184       190       195       202
 41000000 000000000001 X1             *20        69        70        71        75        76        80
                                       81        86        87        91        92        99       102
                                      103       105       106       108       116       120       123
                                      126       136       140       150       153       155       156
                                      157       160       162       245       248       255       262
 41000000 000000000002 X2             *20        96
 41000000 000000000003 X3             *20       101       107       125       249       256       260
                                      268
 40000000 000000000004 X4             *20
 40000000 000000000005 X5             *20
 41000000 000000000006 X6             *20        66        67        94       175       185       196
                                      269
 03201007 000000000000 X66_ARET       *20       164
 03201006 000000000000 X66_AUTO_0     *20        59
 41000000 000000000007 X7             *20        68        72        84       154       180       186
                                      191       270
 40000000 000000210665 XASL           *22
 40000000 000000303420 XLD            *22
 40000000 000000303421 XPD            *22
 40000000 000000000676 XPRS           *22
 40000000 000000210666 XROLL          *22
 40000000 000000210664 XUNEX          *22
 40000000 777777777777 XXDPN          *22
 03201008 000000000000 ZIB$DBALT     *216
 12:50 09/05/97  FILE=ZIM$DBRI.:ZIC0TSI       SYMBOL TABLE                                               37   BMAP - B00
 03201009 000000000000 ZIB$ICALT     *271
 12101000 000000000000 ZIG$DBFRI       11       *58
 01101000 000000000200 ZIG$DBGAC      105      *244
 03201000 000000000000 ZIG$DBUPC      *13       160
 03201005 000000000000 ZIG$DBUSR      *18       162
 03201004 000000000000 ZIM$IFINDF     *17       136
 03201003 000000000000 ZIM$IFINDN     *16       150
 03201002 000000000000 ZIM$KFINDF     *15       116
 03201001 000000000000 ZIM$KFINDN     *14       120

     957 SYMBOLS

 12:50 09/05/97  FILE=ZIM$DBRI.:ZIC0TSI       MACRO TABLE                                                38   BMAP - B00
 CBSYM           22
 DBALT          216
 DBCAL          105       116       120       136       150       160       162
 DBRET          164
 DBSAV           59
 ICALT          271
 ICCAL          105       160
 ICRET          262
 ICSAV          245
 Q2SYM           22
 SSSYM           22

      37 MACROS

    SYMBOL SPACE USED  9276 WORDS
     MACRO SPACE USED 13055 WORDS
   INPUT RECORDS READ  2346
 STATEMENTS PROCESSED  2232
         ELAPSED TIME  0:10.76
             CPU TIME    10.36 SEC.
        ASSEMBLY RATE 12927 STATEMENTS/CPU MIN.

      NO ERRORS

