
 12:51 09/05/97  FILE=ZIM$DBST.:ZIC0TSI                                                                  1    BMAP - B00
                                         1  *M*      ZIG$DBST
                                         2  *T***********************************************************
                                         3  *T*                                                         *
                                         4  *T* Copyright (c) Bull HN Information Systems Inc., 1997    *
                                         5  *T*                                                         *
                                         6  *T***********************************************************

 12:51 09/05/97  FILE=ZIM$DBST.:ZIC0TSI       H6600H2.503     IDS/IT STORE                   780113DBST  2    BMAP - B00
                                         7         TTL     H6600H2.503     IDS/IT STORE                   780113DBST
                                         8         CPR     1974
                                         9         PMC     OFF
                                        10  *
                                        11         ENTDEF  ZIG$DBSTO
                                        12  *
                                        13         ENTREF  ZIG$DBAF
                                        14         ENTREF  ZIG$DBAKU
                                        15         ENTREF  ZIG$DBECK
                                        16         ENTREF  ZIQ$DBFCH
                                        17         ENTREF  ZIQ$DBGRC
                                        18         ENTREF  ZIG$DBGRS
                                        19         ENTREF  ZIQ$DBMAS
                                        20           ENTREF      ZIM$PCON
                                        21           ENTREF      ZIM$PCONO
                                        22         ENTREF  ZIG$DBPDR
                                        23           ENTREF      ZIM$PDIS
                                        24           ENTREF      ZIM$JSTO
                                        25           ENTREF      ZIM$JDEL
                                        26         ENTREF  ZIG$DBPFD
                                        27         ENTREF  ZIG$DBPFI
                                        28         ENTREF  ZIG$DBPFP
                                        29         ENTREF  ZIG$DBPFS
                                        30         ENTREF  ZIG$DBPMK
                                        31         ENTREF  ZIG$DBPMS
                                        32         ENTREF  ZIG$DBPMS
                                        33        ENTREF  ZIM$DBPLK,ZIM$DBPUL,ZIM$DBPMR
                                        34         ENTREF  ZIG$DBUPD
                                        35           ENTREF      ZIM$KCURR
                                        36           ENTREF      ZIM$KDEL
                                        37           ENTREF      ZIM$IDEL
                                        38           ENTREF      ZIM$KSTO
                                        39           ENTREF      ZIM$ISTO
                                        40         ENTREF  ZIG$DBUPP
                                        41         ENTREF  ZIG$DBUSR
                                        42         ENTREF  ZIG$DBXKU
                                        43           ENTREF      ZIM$TRACE
 12:51 09/05/97  FILE=ZIM$DBST.:ZIC0TSI       H6600H2.503     IDS/IT STORE                   780113DBST  3    BMAP - B00
                                        44      ENTREF ZIO$DBBCC
                                        45         ENTREF ZIB$FPTRECOVER
                                        46         ENTREF ZIB$CLRRECOVER
                                        47  *
                                        48         LODM    Q2MA
                                        49  *
                                        50         Q2SYM
                                        51  *

 12:51 09/05/97  FILE=ZIM$DBST.:ZIC0TSI       IDS-II STORE SUBROUTINE                                    4    BMAP - B00
                                        52         TTLS    IDS-II STORE SUBROUTINE
                                        53  ****************************************************************
                                        54  *
                                        55  *  - DBSTO -
                                        56  *
                                        57  *      STORE.  Store a record in the data base.
                                        58  *
                                        59  *      Parameter   Description
                                        60  *      ---------   -----------
                                        61  *
                                        62  *          0       IA
                                        63  *          1       UWA
                                        64  *          2       FPT
                                        65  *
                                        66  *      FPT Format...
                                        67  *
                                        68  *      Word 0:  RVA offset to a schema subset element which
                                        69  *          describes the data base record to be stored.  This
                                        70  *          argument will be zero if no record type is specified.
                                        71  *      Word 1:  Retention List Control Word
                                        72  *      Words 2->M:  Retention List.  RVA offsets to the
                                        73  *          schema subset elements which describe the sets
                                        74  *          for which currencies are to be retained.
                                        75  *
                                        76  ****************************************************************
                                        77  *
 0 000000                               78  ZIG$DBSTO NULL
   000000  X 000000 7000 00             79           DBSAV
   000001    000004 000000
                                        80  *  INIT REC VAR & CURRS FOR RECOVERY IN CASE OF ERROR
   000002    7 00512 2351 00            81         LDA     RVT,,PR7
   000003    7 00000 4501 01            82         STZ     DBKEY,AU,PR7    INIT DBK
   000004    7 00002 4501 01            83         STZ     RADDR,AU,PR7    INIT ADDRESS OF REC
   000005    7 00035 4501 00            84         STZ     CURRS,,PR7      INIT CURR RS PTR
                                        85  *  Set RECOVER addr for FPT checker
   000006  X 000000 7010 00             86           DBCAL     ZIB$FPTRECOVER,,STR1
   000007 (0)000656 7020 00
 12:51 09/05/97  FILE=ZIM$DBST.:ZIC0TSI       IDS-II STORE SUBROUTINE                                    5    BMAP - B00
   000010    5 00006 2341 00
   000011    777776 6010 04
   000012    000002 2350 03             87         LDA     2,DU                 Offset to Retention List in FPT
   000013    000000 4704 07             88         LDP    PR0,VLPSID,DL            VLP$
   000014    000003 4714 07             89           LDP      PR1,RVASID,DL           RVA$
   000015    0 00001 2751 00            90         ORA     1,,PR0               OR in Retention List Control Word
   000016    5 00025 7551 00            91           STA      GRLCW,,PR5           Save it.
                                        92  *  GET RC PTR FOR REC TO BE STORED
   000017    0 00000 2271 00            93         LDX     X7,0,,PR0            Get offset to RC pointer from FPT
   000020    1 00000 2271 17            94           LDX      X7,,X7,PR1           Get RC offset from RVA
   000021 (0)000613 6000 00             95         TZE     CALER2          calling error if RC not given
                                        96         IFE     A,1,%CK1
   000022    6 00000 2211 17            97         LDX     X1,DEF,X7,PR6   GET DEF TYPE
   000023    100000 3010 03             98         CANX    X1,.RC,DU       IS IT AN RC
   000024 (0)000613 6000 00             99         TZE     CALER1          NO
                                       100  CK1    MARK
                                       101  *  CHECK PRIVACY
   000025    6 00004 2211 17           102         LDX     X1,RCWSO,X7,PR6  GET WORK SPACE OFST
   000026    7 00000 2211 11           103         LDX     X1,PRIV,X1,PR7
   000027    000100 3010 03            104         CANX    X1,PS,DU        IS PRIVACY SATISFIED
   000030 (0)000624 6000 00            105         TZE     PRVE1           NO
                                       106  *  CHECK THAT THIS REC CAN BE STORED
   000031    6 00000 7211 17           107         LXL     X1,DEF,X7,PR6
   000032    300000 3010 03            108         CANX    X1,.RSTO+.SR,DU  CAN IT BE STORED
   000033 (0)000620 6010 00            109         TNZ     RER1            NO
                                       110  *  INIT THE REC VAR
   000034    7 00512 2211 00           111         LDX     X1,RVT,,PR7     SET X1 TO TEMP REC VAR
   000035    6 00003 2351 17           112         LDA     RTYP,X7,PR6     GET REC TYPE
   000036    7 00056 3751 00           113         ANA     TMASK,,PR7      ISOLATE
   000037    7 00003 7551 11           114         STA     RTP,X1,PR7      PUT IN REC VAR
   000040    7 00006 7471 11           115         STX     X7,RCPTR,X1,PR7  SAVE RC PTR
   000041    7 00004 4501 11           116         STZ     SCPTR,X1,PR7    ZERO SC & RS PTRS
                                       117  *  CHECK LOC MODE OF RECORD
   000042    6 00000 2211 17           118         LDX     X1,DEF,X7,PR6   GET LOC MODE
   000043    000007 3610 03            119         ANX     X1,.PSTO,DU     ISOLATE
   000044 (0)000045 7100 11            120         TRA     *+1,X1          GO TO APPROPRIATE ROUTINE
   000045 (0)000055 7100 00            121         TRA     DIR             LOC MODE = DIRECT
 12:51 09/05/97  FILE=ZIM$DBST.:ZIC0TSI       IDS-II STORE SUBROUTINE                                    6    BMAP - B00
   000046 (0)000125 7100 00            122         TRA     CALC            LOC MODE = CALC
   000047 (0)000162 7100 00            123         TRA     VIA             LOC MODE = VIA SET
   000050 (0)000650 7100 00            124         TRA     LMER            ILLEGAL LOC MODE
   000051 (0)000247 7100 00            125         TRA     IDX             LOC MODE = INDEX
   000052 (0)000650 7100 00            126         TRA     LMER            ILLEGAL LOC MODE
   000053 (0)000650 7100 00            127         TRA     LMER            ILLEGAL LOC MODE
   000054 (0)000650 7100 00            128         TRA     LMER            ILLEGAL LOC MODE
                                       129  *
                                       130  *  LOC MODE = DIRECT   FIND DBK
                                       131  *
   000055                              132  DIR    NULL
   000055    000000 6240 17            133         EAX     X4,,X7          INIT X4
   000056                              134  SLP1   NULL
   000056    6 00004 7241 14           135         LXL     X4,RCFRN,X4,PR6  GET NEXT FR
   000057 (0)000635 6000 00            136         TZE     FRNF            NO-ERROR
   000060    6 00000 2351 14           137         LDA     DEF,X4,PR6
   000061    003400 3750 07            138         ANA     .FUSE,DL        ISOLATE USAGE CODE
   000062    001400 1150 07            139         CMPA    =O1400,DL       IS IT THE DIRECT FIELD
   000063 (0)000056 6010 00            140         TNZ     SLP1            NO - CHECK NEXT
                                       141  *  FOUND FR - GET DBK FROM UWA
   000064    000002 4714 07            142         LDP    PR1,UWASID,DL            UWA$
   000065    000 0 100 1015 20         143         MRL     (1,,1),(1)          * MOVE
   000066    6 00002 0001 14           144         ARG     UOFST,X4,PR6        *  DBK FROM UWA TO
   000067    7 00032 0 0 0 0004        145         ADSC9   DDBK,0,4,PR7         Subroutine Work Space
   000070    7 00032 2361 00           146         LDQ     DDBK,,PR7
   000071    7 00512 2211 00           147         LDX     X1,RVT,,PR7     SET X1 TO TEMP REC VAR
   000072    7 00000 7561 11           148         STQ     DBKEY,X1,PR7    PUT DBK IN REC VAR
   000073    7 00034 7561 00           149         STQ     BSPG,,PR7       SAVE DBK GIVEN
                                       150  * GET AC & RA FOR RECORD
   000074  X 000000 7010 00            151         ICCAL   ZIQ$DBMAS,,ASER1
   000075 (0)000654 7020 00
   000076    5 00006 2341 00
   000077    777776 6010 04
   000100    7 00512 2211 00           152         LDX     X1,RVT,,PR7
   000101    7 00005 7401 11           153         STX     X0,ACPTR,X1,PR7  SAVE AC PTR
   000102    7 00005 4441 11           154         SXL     X4,RAPTR,X1,PR7  SAVE RA PTR
                                       155  *  GET RANGE THAT REC CAN BE STORED IN & CHECK DBK GIVEN
 12:51 09/05/97  FILE=ZIM$DBST.:ZIC0TSI       IDS-II STORE SUBROUTINE                                    7    BMAP - B00
   000103    7 00034 2351 00           156         LDA     BSPG,,PR7       GET DBK GIVEN
   000104 (0)000121 6000 00            157         TZE     UMIN            NULL - USE RANGE MIN
   000105    6 00003 1151 14           158         CMPA    PGRNG,X4,PR6    IS IT LESS THAN MIN
   000106 (0)000641 6020 00            159         TNC     INDB            YES - INVALD
   000107    6 00000 2231 14           160           LDX      X3,DEF,X4,PR6        Def word for RA
   000110    000002 3030 03            161           CANX     X3,FRANGE,DU         Full range
   000111 (0)000115 6000 00            162           TZE      RARNG1               No. Use RA value
   000112    6 00004 7231 14           163           LXL      X3,RAWSOF,X4,PR6     Get AWS offset
   000113    7 00003 2351 13           164           LDA      HIGHDBK,X3,PR7       Get High DBK of range
   000114    000002 7100 04            165           TRA      2,IC
   000115    6 00004 2351 14           166  RARNG1   LDA      PGRNG+1,X4,PR6       Get range max
   000116    7 00034 1151 00           167         CMPA    BSPG,,PR7       IS IT LESS THAN DBK GIVEN
   000117 (0)000641 6020 00            168         TNC     INDB            YES - INVALD
   000120 (0)000260 7100 00            169         TRA     FSPAC           GR. OR EQ. - USE DBK GIVEN
   000121                              170  UMIN   NULL
   000121    7 00512 2211 00           171         LDX     X1,RVT,,PR7     NO
   000122    6 00003 2351 14           172         LDA     PGRNG,X4,PR6    GET MIN OF RANGE
   000123    7 00000 7551 11           173         STA     DBKEY,X1,PR7    SAVE LO OF RNG AS BASE
   000124 (0)000260 7100 00            174         TRA     FSPAC
                                       175  *
                                       176  *  LOC MODE = CALC     FIND DBK OF CALC HEADER
                                       177  *
   000125                              178  CALC   NULL
   000125    6 00004 2261 00           179         LDX     X6,CLCSC+OAOFST,,PR6  GET SC FOR CALC SET
   000126  X 000000 7010 00            180         DBCAL   ZIG$DBGRS,,GRSE1 GET RS
   000127 (0)000654 7020 00
   000130    5 00006 2341 00
   000131    777776 6010 04
   000132    6 00001 7241 15           181         LXL     X4,RSSSN,X5,PR6  GET 1ST SS
   000133    7 00516 7441 00           182         STX     X4,PRSS,,PR7
   000134  X 000000 7010 00            183         DBCAL   ZIG$DBPMS,,MSER1 MOVE CALC KEYS TO TEMP REC BUF
   000135 (0)000654 7020 00
   000136    5 00006 2341 00
   000137    777776 6010 04
   000140    000000 6200 00            184         EAX     X0,0            ZERO X0 SO THAT .DBMAS WILL BE CALLED
   000141    7 00516 2241 00           185         LDX     X4,PRSS,,PR7
   000142  X 000000 7010 00            186         ICCAL   ZIQ$DBFCH,,HER1 GET CALC HDR REC(RETURN X4 = RA)
 12:51 09/05/97  FILE=ZIM$DBST.:ZIC0TSI       IDS-II STORE SUBROUTINE                                    8    BMAP - B00
   000143 (0)000654 7020 00
   000144    5 00006 2341 00
   000145    777776 6010 04
   000146    7 00510 2231 00           187         LDX     X3,RVI,,PR7
   000147    7 00000 2361 13           188         LDQ     DBKEY,X3,PR7    GET DBK OF CHR
   000150    7 00005 2201 13           189         LDX     X0,ACPTR,X3,PR7  GET AC
   000151    7 00034 7561 00           190         STQ     BSPG,,PR7       SAVE DBK OF CHR
   000152    7 00512 2211 00           191         LDX     X1,RVT,,PR7     SET X1 TO TEMP REC VAR
   000153    6 00003 1161 14           192         CMPQ    PGRNG,X4,PR6    IS CHR LESS THAN MIN
   000154 (0)000156 6030 00            193         TRC     *+2             NO
   000155    6 00003 2361 14           194         LDQ     PGRNG,X4,PR6    YES - USE MIN
   000156    7 00000 7561 11           195         STQ     DBKEY,X1,PR7    SAVE BASE PAGE
   000157    7 00005 7401 11           196         STX     X0,ACPTR,X1,PR7  SAVE AC PTR
   000160    7 00005 4441 11           197         SXL     X4,RAPTR,X1,PR7  SAVE RA PTR
   000161 (0)000260 7100 00            198         TRA     FSPAC
                                       199  *
                                       200  *  LOC MODE = VIA SET
                                       201  *
                                       202  *  FIND OWNER REC
   000162                              203  VIA    NULL
   000162    6 00002 7251 17           204         LXL     X5,RCRSN,X7,PR6  GET 1ST RS (MUST BE VIA SET)
   000163    004040 2210 03            205         LDX     X1,.SM+.VIA,DU
   000164    6 00000 2011 15           206         CNAX    X1,DEF,X5,PR6   IS IT VIA RS
   000165 (0)000644 6010 00            207         TNZ     RSER            NO - ERROR
   000166  X 000000 7010 00            208        DBCAL   ZIG$DBAF,NOEXC,AFER2          FIND OWNER REC
   000167 (0)000654 7020 00
                                       209  *  GET RANGE AND DISPLACEMENT OF OWNER
   000170    7 00510 2231 00           210         LDX     X3,RVI,,PR7     SET X3 TO INPUT REC VAR
   000171    7 00003 2351 13           211         LDA     RTP,X3,PR7      GET TYPE
   000172    7 00005 2201 13           212         LDX     X0,ACPTR,X3,PR7  GET AC
   000173  X 000000 7010 00            213         ICCAL   ZIQ$DBGRC,,RCER2    GET RA FOR REC
   000174 (0)000654 7020 00
   000175    5 00006 2341 00
   000176    777776 6010 04
   000177    6 00000 2231 14           214           LDX      X3,DEF,X4,PR6        Def word for RA
   000200    000002 3030 03            215           CANX     X3,FRANGE,DU         Full range
   000201 (0)000205 6000 00            216           TZE      RARNG2               No. Use RA value
 12:51 09/05/97  FILE=ZIM$DBST.:ZIC0TSI       IDS-II STORE SUBROUTINE                                    9    BMAP - B00
   000202    6 00004 7231 14           217           LXL      X3,RAWSOF,X4,PR6     Get AWS offset
   000203    7 00003 2361 13           218           LDQ      HIGHDBK,X3,PR7       Get high DBK of range
   000204    000002 7100 04            219           TRA      2,IC
   000205    6 00004 2361 14           220  RARNG2   LDQ      PGRNG+1,X4,PR6       Geg high DBK from RA
   000206    6 00003 1361 14           221         SBLQ    PGRNG,X4,PR6    SUB LO OF RNG
   000207    000001 0360 07            222         ADLQ    1,DL
   000210    7 00072 7561 00           223         STQ     RNGO,,PR7       SAVE LENGTH OF RANGE
   000211    7 00510 2231 00           224         LDX     X3,RVI,,PR7
   000212    7 00000 2361 13           225         LDQ     DBKEY,X3,PR7    GET DBK OF OWNER
   000213    6 00003 1361 14           226         SBLQ    PGRNG,X4,PR6    SUB LO OF RNG
   000214    7 00073 7561 00           227         STQ     RNGD,,PR7       SAVE DISPL. W/I RNG
                                       228  *  GET AC & RA FOR REC TO BE STORED
   000215    7 00512 2211 00           229         LDX     X1,RVT,,PR7
   000216    7 00006 2271 11           230         LDX     X7,RCPTR,X1,PR7
   000217  X 000000 7010 00            231         ICCAL   ZIQ$DBMAS,,ASER2
   000220 (0)000654 7020 00
   000221    5 00006 2341 00
   000222    777776 6010 04
   000223    7 00512 2211 00           232         LDX     X1,RVT,,PR7
   000224    7 00005 7401 11           233         STX     X0,ACPTR,X1,PR7  SAVE AC
   000225    7 00005 4441 11           234         SXL     X4,RAPTR,X1,PR7  SAVE RA
                                       235  *  DETERMINE BASE PAGE FOR REC TO BE STORED
   000226    6 00000 2231 14           236           LDX      X3,DEF,X4,PR6        Def word for RA
   000227    000002 3030 03            237           CANX     X3,FRANGE,DU         Full range
   000230 (0)000234 6000 00            238           TZE      RARNG3               No. Use RA value
   000231    6 00004 7231 14           239           LXL      X3,RAWSOF,X4,PR6     Get AWS offset
   000232    7 00003 2361 13           240           LDQ      HIGHDBK,X3,PR7       Get high DBK of range
   000233    000002 7100 04            241           TRA      2,IC
   000234    6 00004 2361 14           242  RARNG3   LDQ      PGRNG+1,X4,PR6       Geg high DBK from RA
   000235    6 00003 1361 14           243         SBLQ    PGRNG,X4,PR6    SUB LO OF RNG
   000236    000001 0360 07            244         ADLQ    1,DL
   000237    7 00073 4021 00           245         MPY     RNGD,,PR7       MPY BY DISPL. OF OWNER
   000240    000001 7370 00            246         LLS     1
   000241    7 00072 5071 00           247         DVF     RNGO,,PR7       DIVIDE BY LENGTH OF RNG OF OWNER
   000242    6 00003 0351 14           248         ADLA    PGRNG,X4,PR6    ADD STRT OF RNG
   000243    7 00512 2211 00           249         LDX     X1,RVT,,PR7
   000244    7 00000 7551 11           250         STA     DBKEY,X1,PR7    SAVE BASE PAGE
 12:51 09/05/97  FILE=ZIM$DBST.:ZIC0TSI       IDS-II STORE SUBROUTINE                                    10   BMAP - B00
   000245    7 00034 7551 00           251         STA     BSPG,,PR7       SAVE BASE PAGE
   000246 (0)000260 7100 00            252         TRA     FSPAC           GO FIND SPACE
                                       253  *
                                       254  *  LOC MODE = INDEX
                                       255  *
   000247                              256  IDX    NULL
   000247    7 00512 2211 00           257         LDX     X1,RVT,,PR7
   000250    7 00006 2271 11           258         LDX     X7,RCPTR,X1,PR7  GET RC PTR FOR REC
   000251  X 000000 7010 00            259         ICCAL   ZIQ$DBMAS,,ASER3 find RA & RC pointers
   000252 (0)000654 7020 00
   000253    5 00006 2341 00
   000254    777776 6010 04
   000255    7 00512 2211 00           260         LDX     X1,RVT,,PR7
   000256    7 00005 7401 11           261         STX     X0,ACPTR,X1,PR7  SAVE AC PTR
   000257    7 00005 4441 11           262         SXL     X4,RAPTR,X1,PR7  SAVE RA PTR
                                       263  *
                                       264  *  MOVE DATA FIELDS TO BUFFER
                                       265  *
   000260                              266  FSPAC  NULL                                                             <EHW>
   000260    7 00512 2211 00           267         LDX     X1,RVT,,PR7
   000261    7 00006 2271 11           268         LDX     X7,RCPTR,X1,PR7  GET RC
   000262    7 00521 7471 00           269         STX     X7,PRFR,,PR7    SAVE AS CURR FR
   000263    6 77777 7211 17           270         LXL     X1,OTVL,X7,PR6  FIXED SIZE OF VARIABLE LENGTH RECORD     <EHW>
   000264    7 01074 4411 00           271         SXL     X1,VRSIZ,,PR7                                            <EHW>
                                       272  *  ZERO TEMP BUF                                                        <EHW>
   000265    7 00004 4735 00           273         LDP     PR3,TBUF,,PR7   ADDRESS OF TEMP BUF                      <EHW>
   000266    6 00003 2211 17           274         LDX     X1,RSIZ,X7,PR6  MAX RECORD SIZE                          <EHW>
   000267    000 0 140 1004 00         275         MLR     ,(1,1),0        ZERO FILL                                <EHW>
   000270    000000 0 0 0 0000         276         ADSC9                                                            <EHW>
   000271    3 00000 0 0 0 0011        277         ADSC9   ,,X1,PR3        * RECORD BUFFER                          <EHW>
   000272                              278  STL1   NULL
   000272    7 00521 2241 00           279         LDX     X4,PRFR,,PR7    GET CURR FR
   000273    6 00004 7241 14           280         LXL     X4,RCFRN,X4,PR6  GET NEXT FR
   000274 (0)000317 6000 00            281         TZE     MWDN            NO - DONE
   000275    7 00521 7441 00           282         STX     X4,PRFR,,PR7    SAVE NEXT FR AS CURR
                                       283  *  CHECK THAT THIS FIELD IS IN UWA
   000276    6 00000 7211 14           284         LXL     X1,DEF,X4,PR6
 12:51 09/05/97  FILE=ZIM$DBST.:ZIC0TSI       IDS-II STORE SUBROUTINE                                    11   BMAP - B00
   000277    004100 3010 03            285         CANX    X1,.FSR+.SYN,DU  IS THIS FIELD IN THE UWA
   000300 (0)000272 6010 00            286         TNZ     STL1            NO - GET NEXT
                                       287  *  CHECK PRIVACY FOR FIELD
   000301    6 00005 7211 14           288         LXL     X1,FRWSO,X4,PR6  GET WORK SPACE OFST
   000302    7 00000 2211 11           289         LDX     X1,PRIV,X1,PR7
   000303    000100 3010 03            290         CANX    X1,PFS,DU       IS PRIVACY SATISFIED
   000304 (0)000630 6000 00            291         TZE     PRVE2           NO - ERROR
                                       292  *  MOVE A FIELD
   000305  X 000000 7010 00            293         DBCAL   ZIG$DBPMK,,MVER1    MOVE FIELD
   000306 (0)000655 7020 00
   000307    5 00006 2341 00
   000310    777776 6010 04
   000311    7 00521 2241 00           294         LDX     X4,PRFR,,PR7    GET CURRENT FR
                                       295  *  CALL A USERS CHECK PROCEDURE IF ONE EXISTS
   000312  X 000000 7010 00            296         DBCAL   ZIG$DBECK,,CKPE1    CALL USERS CHECK PROC
   000313 (0)000654 7020 00
   000314    5 00006 2341 00
   000315    777776 6010 04
   000316 (0)000272 7100 00            297         TRA     STL1            GO TO NEXT
                                       298  *  DONE MOVING
   000317                              299  MWDN   NULL
   000317    7 00512 2211 00           300         LDX     X1,RVT,,PR7     SET X1 TO TEMP REC VAR
   000320    7 00006 2271 11           301         LDX     X7,RCPTR,X1,PR7  SET X7 TO RC DEF
   000321    6 00000 2201 17           302           LDX      X0,DEF,X7,PR6        Get def word for RC
   000322    000007 3600 03            303           ANX      X0,.PSTO,DU          Mask out junk
   000323    000004 1000 03            304           CMPX     X0,4,DU              Is it indexed
   000324 (0)000342 6010 00            305           TNZ      MSZTY                No.  Continue for integrated.
                                       306  *
                                       307  *    Store indexed record
                                       308  *
   000325  X 000000 7010 00            309           DBCAL    ZIM$ISTO,,SIER1      Store indexed record
   000326 (0)000655 7020 00
   000327    5 00006 2341 00
   000330    777776 6010 04
   000331    7 00511 2351 00           310        LDA     RVO,,PR7
   000332    7 00512 2361 00           311        LDQ     RVT,,PR7
   000333    7 00512 7551 00           312        STA     RVT,,PR7
 12:51 09/05/97  FILE=ZIM$DBST.:ZIC0TSI       IDS-II STORE SUBROUTINE                                    12   BMAP - B00
   000334    7 00511 7561 00           313        STQ     RVO,,PR7
   000335  X 000000 7010 00            314        DBCAL   ZIG$DBUPD,,UCER1    UPDATE CURRENCIES
   000336 (0)000654 7020 00
   000337    5 00006 2341 00
   000340    777776 6010 04
   000341 (0)000604 7100 00            315        TRA     UPSNA               GOTO MOVE NAMES
                                       316  *
                                       317  *   MOVE REC SIZE & TYPE TO BUFFER
                                       318  *
   000342                              319  MSZTY    NULL
   000342    7 00004 4735 00           320         LDP     PR3,TBUF,,PR7   ADDRESS OF TEMP BUFFER
   000343    6 00003 2361 17           321         LDQ     RSIZ,X7,PR6
   000344    7 00055 3761 00           322         ANQ     STMASK,,PR7     ISOLATE
   000345    000022 7760 00            323         QLR     18              TYPE TO UPPER, SIZE TO LOWER
   000346    7 00033 7561 00           324         STQ     SSZTP,,PR7
   000347    6 00000 7201 17           325         LXL     X0,DEF,X7,PR6   GET DEFINITION                           <EHW>
   000350    040000 3000 03            326         CANX    X0,.FVR,DU      IS IT VARIABLE LENGTH RECORD             <EHW>
   000351 (0)000355 6000 00            327         TZE     *+4             NO                                       <EHW>
   000352    7 01074 7201 00           328         LXL     X0,VRSIZ,,PR7   YES - LENGTH IN VRSIZ                    <EHW>
   000353    7 00033 4401 00           329         SXL     X0,SSZTP,,PR7   SAVE FOR MOVE                            <EHW>
   000354 (0)000356 7100 00            330         TRA     *+2                                                      <EHW>
   000355    000000 6200 06            331         EAX     X0,,QL          SIZE TO X0                               <EHW>
   000356    7 00003 7401 11           332         STX     X0,RECSZ,X1,PR7  SAVE SIZE IN TEMP REC VAR                <EHW>
   000357    000 1 100 1005 00         333         MLR     (1),(1),,1      * MOVE
   000360    7 00033 0 0 0 0004        334         ADSC9   SSZTP,,4,PR7        *  SIZE & TYPE
   000361    3 00000 0 0 0 0004        335         ADSC9   0,0,4,PR3           *   REC IN BUF
                                       336  *                                                                       <EHW>
                                       337  *  FIND SPACE FOR RECORD                                                <EHW>
                                       338  *                                                                       <EHW>
   000362  X 000000 7010 00            339         DBCAL   ZIG$DBPFS,,SNSPC                                         <EHW>
   000363 (0)000655 7020 00
   000364    5 00006 2341 00
   000365    777776 6010 04
                                       340  *                                                                       <EHW>
                                       341  *  LOCK THE RECORD                                                      <EHW>
                                       342  *                                                                       <EHW>
   000366    7 00512 2231 00           343        LOCK    RVT                 LOCK THE NEW RECORD
 12:51 09/05/97  FILE=ZIM$DBST.:ZIC0TSI       IDS-II STORE SUBROUTINE                                    13   BMAP - B00
   000367  X 000000 7010 00
   000370    000000 0020 00
   000371    7 00512 2211 00           344         LDX     X1,RVT,,PR7     TEMP REC VAR
   000372    7 00002 4735 11           345         LDP     PR3,RADDR,X1,PR7  RECORD ADDRESS
   000373    7 00004 4745 00           346         LDP     PR4,TBUF,,PR7   TEMP BUFFER ADDRESS
   000374    7 00003 2211 11           347         LDX     X1,RECSZ,X1,PR7  GET RECORD SIZE
   000375    000 0 140 1005 40         348         MLR     (1,1),(1,1)         * MOVE RECORD
   000376    4 00000 0 0 0 0011        349         ADSC9   0,0,X1,PR4          *  FROM TEMP BUFFER
   000377    3 00000 0 0 0 0011        350         ADSC9   0,0,X1,PR3          *   TO DATA BUFFER
                                       351  *
                                       352  *    JOURNAL STORED RECORD
                                       353  *
   000400  X 000000 7010 00            354           DBCAL    ZIM$JSTO,,NOALT
   000401    000000 0020 00
                                       355  *
                                       356  *  INIT POINTER FIELDS & LINK TO AUTOMATIC SETS
                                       357  *
   000402                              358  IPF    NULL
   000402    7 00512 2211 00           359         LDX     X1,RVT,,PR7     SET X1 TO TEMP REC VAR
   000403    7 00006 2271 11           360         LDX     X7,RCPTR,X1,PR7  GET RC DEF PTR
   000404    7 00035 7471 00           361         STX     X7,CURRS,,PR7   SAVE AS CURRENT RS
   000405                              362  LOOP1  NULL
   000405    7 00035 2251 00           363         LDX     X5,CURRS,,PR7   GET CURRENT RS DEF
   000406    6 00002 7251 15           364         LXL     X5,RCRSN,X5,PR6  GET NEXT RS DEF
   000407    000134 6000 04            365         TZE     DSP,$           LAST RS PROCESSED
   000410    7 00035 7451 00           366         STX     X5,CURRS,,PR7   SAVE AS CURRENT
   000411    6 00000 2351 15           367         LDA     DEF,X5,PR6      GET DEF TYPE
   000412    010000 3150 03            368         CANA    .SO,DU          IS IT AN OWNER RS
   000413 (0)000423 6000 00            369         TZE     CKMEM           NO
                                       370  *  INIT POINTERS FOR SET OWNER
   000414    7 00512 2211 00           371         LDX     X1,RVT,,PR7     SET X1 TO TEMP REC VAR
                                       372  *           save RS in RVT and connect initial owner
   000415    7 00517 4451 00           373           SXL       X5,PRRS,,PR7        RS Parameter setup
   000416  X 000000 7010 00            374           DBCAL    ZIM$PCONO,,CNER1     Connect initial owner pointers
   000417 (0)000655 7020 00
   000420    5 00006 2341 00
   000421    777776 6010 04
 12:51 09/05/97  FILE=ZIM$DBST.:ZIC0TSI       IDS-II STORE SUBROUTINE                                    14   BMAP - B00
   000422 (0)000405 7100 00            375         TRA     LOOP1
   000423                              376  CKMEM  NULL
   000423    040000 3150 07            377         CANA    .MSM,DL         IS IT A MANUAL MEMBER
   000424 (0)000405 6010 00            378         TNZ     LOOP1           YES - DON'T LINK
   000425    6 00003 7261 15           379         LXL     X6,SCRSH,X5,PR6  GET SC PTR
   000426    6 00000 2361 16           380         LDQ     DEF,X6,PR6      GET SET TYPE
   000427    000700 3760 07            381         ANQ     .SETT,DL        ISOLATE
   000430    000200 1160 07            382         CMPQ    =O200,DL        IS IT A PRIMARY KEY
   000431 (0)000405 6000 00            383         TZE     LOOP1           YES - GET NEXT
   000432    000300 1160 07            384         CMPQ    =O300,DL        IS IT A SECONDARY KEY
   000433 (0)000472 6010 00            385         TNZ     UORC            NO - MUST BE USER OR CALC
                                       386  *
                                       387  *  RS FOR ALTERNATE KEY - ENTER KEY VALUE IN ALTERNATE
                                       388  *  INDEX IF NOT OPENED FOR BUILD MODE
                                       389  *
   000434    7 00512 2211 00           390           LDX      X1,RVT,,PR7
   000435    7 00005 2201 11           391           LDX      X0,ACPTR,X1,PR7      GET AC
   000436    6 00003 2221 10           392           LDX      X2,WSOF,X0,PR6       AREA WORK SPACE
   000437    7 00000 2351 12           393           LDA      ATRIB,X2,PR7         ARTIBUTES OF AREA
   000440    000002 3150 03            394           CANA     .LOAD,DU             LOAD MODE?
   000441 (0)000405 6010 00            395           TNZ      LOOP1                YES
   000442    7 00516 7451 00           396         STX     X5,PRSS,,PR7    SAVE RS PTR FOR PRIM REQ.
   000443    7 00676 4451 00           397         SXL     X5,XPRS,,PR7    SAVE RS FOR INDEX PRIMS
                                       398  *  MOVE ALTERNATE KEY TO PROCESS AREA
   000444  X 000000 7010 00            399         DBCAL   ZIG$DBXKU,,MKER2 MOVE KEY
   000445 (0)000654 7020 00
   000446    5 00006 2341 00
   000447    777776 6010 04
                                       400  *  PUT ENTRY INTO ALTERNATE INDEX
   000450  X 000000 7010 00            401           DBCAL    ZIM$KSTO,,SAER1      Store alternate entry
   000451 (0)000655 7020 00
   000452    5 00006 2341 00
   000453    777776 6010 04
                                       402  *  UPDATE CURRENT OF ALTERNATE KEY
   000454    7 00676 7251 00           403         LXL     X5,XPRS,,PR7    GET RS PTR
   000455    6 00003 7261 15           404         LXL     X6,SCRSH,X5,PR6  GET SC PTR
   000456    7 00520 7461 00           405         STX     X6,PRSC,,PR7    SAVE FOR CALL
 12:51 09/05/97  FILE=ZIM$DBST.:ZIC0TSI       IDS-II STORE SUBROUTINE                                    15   BMAP - B00
   000457    7 00512 2351 00           406         LDA     RVT,,PR7        * REVERSE
   000460    7 00511 2361 00           407         LDQ     RVO,,PR7        *  OUT & TEMP
   000461    7 00511 7551 00           408         STA     RVO,,PR7        *   RECORD VARIABLES
   000462    7 00512 7561 00           409         STQ     RVT,,PR7        *
   000463  X 000000 7010 00            410           DBCAL    ZIM$KCURR,,NOALT     Update current of key
   000464    000000 0020 00
   000465    7 00512 2351 00           411         LDA     RVT,,PR7        * REVERSE
   000466    7 00511 2361 00           412         LDQ     RVO,,PR7        *  OUT & TEMP
   000467    7 00511 7551 00           413         STA     RVO,,PR7        *   RECORD VARIABLES
   000470    7 00512 7561 00           414         STQ     RVT,,PR7        *
   000471 (0)000405 7100 00            415         TRA     LOOP1           GET  NEXT RS
                                       416  *
                                       417  *  RS FOR USER OR CALC SET
                                       418  *
   000472                              419  UORC   NULL
   000472    000040 3150 03            420         CANA    .VIA,DU         IS THIS THE VIA SET
   000473 (0)000501 6000 00            421         TZE     FOR
                                       422  *  RE-RETRIEVE THE REC IN REC VAR IN  -  THIS IS THE VIA SET
   000474  X 000000 7010 00            423           DBCAL    ZIG$DBPFD,,PGER2     GET THE RECORD
   000475 (0)000655 7020 00
   000476    5 00006 2341 00
   000477    777776 6010 04
   000500 (0)000503 7100 00            424         TRA     MSDK            GO MOVE SORT/DUP KEYS
                                       425  *  GET THE SCT OCCURRENCE TO LINK TO  - NON VIA SET
   000501                              426  FOR    NULL
   000501  X 000000 7010 00            427        DBCAL   ZIG$DBAF,NOEXC,AFER1          SELECT SET OCCUR TO LINK TO
   000502 (0)000654 7020 00
                                       428  *  MOVE THE SORT/DUP KEYS TO TEMP REC BUF
   000503                              429  MSDK   NULL
   000503    7 00035 2251 00           430         LDX     X5,CURRS,,PR7   GET CURRENT RS
   000504    6 00003 7261 15           431         LXL     X6,SCRSH,X5,PR6  GET SC FOR THIS RS
   000505    7 00520 7461 00           432         STX     X6,PRSC,,PR7    SAVE FOR CONNECT PRIM.
   000506    6 00004 1061 00           433         CMPX    X6,CLCSC+OAOFST,,PR6  IS THIS THE CALC SET
   000507 (0)000515 6000 00            434         TZE     DMCK                YES - KEYS ALREADY IN TEMP BUF
   000510    7 00516 7451 00           435         STX     X5,PRSS,,PR7    PUT RS IN PRIM REQ.
   000511  X 000000 7010 00            436         DBCAL   ZIG$DBPMS,,MKER6    MOVE KEYS
   000512 (0)000654 7020 00
 12:51 09/05/97  FILE=ZIM$DBST.:ZIC0TSI       IDS-II STORE SUBROUTINE                                    16   BMAP - B00
   000513    5 00006 2341 00
   000514    777776 6010 04
   000515                              437  DMCK   NULL
   000515    7 00516 2251 00           438         LDX     X5,PRSS,,PR7    GET RS PTR
   000516    6 00000 2211 15           439         LDX     X1,DEF,X5,PR6   GET MEMBER TYPE
   000517    000007 3610 03            440         ANX     X1,.MEMT,DU     ISOLATE
   000520    000001 1010 03            441         CMPX    X1,=O1,DU       IS IT A POINTER ARRAY MEMBER
   000521 (0)000526 6010 00            442         TNZ     DMCK2           NO
   000522  X 000000 7010 00            443         DBCAL   ZIG$DBAKU,,MPAKE YES - MOVE PA KEYS TO KEY PROCESS AREA
   000523 (0)000654 7020 00
   000524    5 00006 2341 00
   000525    777776 6010 04
   000526                              444  DMCK2  NULL
   000526  X 000000 7010 00            445         DBCAL   ZIG$DBPFI,,FIPE1 FIND INSERT POINT
   000527 (0)000655 7020 00
   000530    5 00006 2341 00
   000531    777776 6010 04
   000532  X 000000 7010 00            446           DBCAL    ZIM$PCON,,CNER1      Link it to the set
   000533 (0)000655 7020 00
   000534    5 00006 2341 00
   000535    777776 6010 04
   000536  X 000000 7010 00            447           ICCAL    ZIG$DBUPP,,UPAER     Update PA offset if PA set
   000537 (0)000654 7020 00
   000540    5 00006 2341 00
   000541    777776 6010 04
   000542 (0)000405 7100 00            448         TRA     LOOP1           GO GET NEXT RS
   000543                              449  DSP    NULL
   000543    000001 3350 07            450         LCA     1,DL            AR = -1
   000544    7 00035 7551 00           451         STA     CURRS,,PR7      SET ALL CONN. FOR BACKOUT
                                       452  *
                                       453  *  UNLOCK THE RECORD
                                       454  *
   000545    7 00512 2231 00           455        UNLOCK  RVT
   000546  X 000000 7010 00
   000547    000000 0020 00
                                       456  *
                                       457  *  UPDATE CURRENCY
 12:51 09/05/97  FILE=ZIM$DBST.:ZIC0TSI       IDS-II STORE SUBROUTINE                                    17   BMAP - B00
                                       458  *
   000550                              459  UPD      NULL
   000550    7 00511 2351 00           460         LDA     RVO,,PR7        *  MAKE THE
   000551    7 00512 2361 00           461         LDQ     RVT,,PR7        *   JUST STORED REC
   000552    7 00512 7551 00           462         STA     RVT,,PR7        *    THE OUTPUT
   000553    7 00511 7561 00           463         STQ     RVO,,PR7        *     REC VAR
   000554  X 000000 7010 00            464           ICCAL    ZIG$DBUPD,,UCER1     Update currencies
   000555 (0)000654 7020 00
   000556    5 00006 2341 00
   000557    777776 6010 04
                                       465  *
                                       466  *  Check for trace mode
                                       467  *
   000560    5 00061 2221 00           468           LDX      X2,TMODE,,PR5
   000561 (0)000604 6000 00            469           TZE      UPSNA                  No.  Skip.
   000562    7 00511 2211 00           470           LDX      X1,RVO,,PR7
   000563    7 00006 2271 11           471           LDX      X7,RCPTR,X1,PR7      Get RC
   000564    6 00000 2351 17           472           LDA      DEF,X7,PR6           Get def word
   000565    000077 3750 07            473           ANA      .ANL,DL              Length of name
   000566    000000 6360 17            474           EAQ      0,X7                 RC into Q
   000567    000002 7360 00            475           QLS      2                    Into byte count
   000570    040 0 100 1005 42         476           MLR      (1,1,,QU),(1),040    MOVE
   000571    6 00005 0 0 0 0005        477           ADSC9    RNAM,0,A,PR6          Record name
   000572    5 00046 0 0 0 0036        478           ADSC9    GTRNAME,0,30,PR5       To GLOBAL.PARAM.TRACE.NAME
   000573    7 01223 2361 00           479           LDQ      CRUN,,PR7
   000574    5 00057 7561 00           480           STQ      GTRRDBK,,PR5         DBK of record
   000575    6 00003 7211 17           481           LXL      X1,RTYP,X7,PR6
   000576    007777 3610 03            482           ANX      X1,.RTYP,DU
   000577    5 00060 4411 00           483           SXL      X1,GTRRTYPE,,PR5     Record type
   000600    000005 2210 03            484           LDX      X1,.TRRSTO,DU
   000601    5 00060 7411 00           485           STX      X1,GTRTYPE,,PR5      Type of trace
   000602  X 000000 7010 00            486           DBCAL    ZIM$TRACE,,NOALT
   000603    000000 0020 00
   000604                              487  UPSNA    NULL
                                       488  *  Clear RECOVER addr for FPT checker
   000604  X 000000 7010 00            489           DBCAL    ZIB$CLRRECOVER,,NOALT
   000605    000000 0020 00
 12:51 09/05/97  FILE=ZIM$DBST.:ZIC0TSI       IDS-II STORE SUBROUTINE                                    18   BMAP - B00
                                       490  *  MOVE NAMES TO SPECIAL REGISTERS
   000606  X 000000 7010 00            491         DBCAL   ZIG$DBUSR,,USRE1
   000607 (0)000654 7020 00
   000610    5 00006 2341 00
   000611    777776 6010 04
                                       492  *
                                       493  *  RETURN
                                       494  *
   000612  X 000000 7020 00            495           DBRET
                                       496  *
                                       497  *  ERRORS DETECTED IN THIS ROUTINE
                                       498  *
                                       499         IFE     A,1,%CK1
   000613                              500  CALER1 NULL                    CALL ERROR - RC POINTED TO NOT AN RC
   000613                              501  CALER2 NULL                    RC not specified by user
   000613    210562 2350 07            502         LDA     ARGER,DL
   000614    000000 6200 00            503         EAX     X0,0            NULL AC
   000615    000000 6260 00            504         EAX     X6,0            NULL SC
   000616    000000 6270 00            505         EAX     X7,0            NULL RC
   000617 (0)000656 7100 00            506         TRA     STR1
                                       507  CK1    MARK
   000620                              508  RER1   NULL
   000620    210624 2350 07            509         LDA     STE3,DL
   000621    000000 6200 00            510         EAX     X0,0            NULL AC
   000622    000000 6260 00            511         EAX     X6,0            NULL SC
   000623 (0)000656 7100 00            512         TRA     STR1
   000624                              513  PRVE1  NULL                    PRIVACY NOT SATISFIED
   000624    257764 2350 07            514         LDA     LR,DL
   000625    000000 6200 00            515         EAX     X0,0            NULL AC
   000626    000000 6260 00            516         EAX     X6,0            NULL SC
   000627 (0)000656 7100 00            517         TRA     STR1
   000630                              518  PRVE2  NULL                    PRIVACY NOT SATISFIED FOR FIELD
   000630    257764 2350 07            519         LDA     LR,DL
   000631    000000 6200 00            520         EAX     X0,0            NULL AC
   000632    000000 6260 00            521         EAX     X6,0            NULL SC
   000633    6 00005 2271 14           522         LDX     X7,RCFRH,X4,PR6  GET RC
   000634 (0)000656 7100 00            523         TRA     STR1
 12:51 09/05/97  FILE=ZIM$DBST.:ZIC0TSI       IDS-II STORE SUBROUTINE                                    19   BMAP - B00
   000635                              524  FRNF   NULL                    DIRECT REC - UNIQUE FR NOT FOUND
   000635    303302 2350 07            525         LDA     STE1,DL
   000636    000000 6200 00            526         EAX     X0,0            NULL AC
   000637    000000 6260 00            527         EAX     X6,0            NULL SC
   000640 (0)000656 7100 00            528         TRA     STR1
   000641                              529  INDB   NULL                    DBK GIVEN OUT OF RANGE FOR REC
   000641    010004 2350 07            530         LDA     IDBK,DL
   000642    000000 6260 00            531         EAX     X6,0            NULL SC
   000643 (0)000656 7100 00            532         TRA     STR1
   000644                              533  RSER   NULL                    SM NOT FOUND FOR LOC MODE = VIA
   000644    303306 2350 07            534         LDA     STE5,DL
   000645    000000 6200 00            535         EAX     X0,0            NULL AC
   000646    000000 6260 00            536         EAX     X6,0            NULL SC
   000647 (0)000656 7100 00            537         TRA     STR1
   000650                              538  LMER   NULL                    ILLEGAL LOC MODE ERROR
   000650    303303 2350 07            539         LDA     STE2,DL
   000651    000000 6200 00            540         EAX     X0,0            NULL AC
   000652    000000 6260 00            541         EAX     X6,0            NULL SC
   000653 (0)000656 7100 00            542         TRA     STR1
                                       543  *
                                       544  *  ERRORS DETECTED IN SUBORDINATE ROUTINES
                                       545  *
   000654                              546  GRSE1  NULL                    REC NOT IN CALC SET
   000654                              547  HER1   NULL                    ERROR IN HASHING - CALC ENTRY REC
   000654                              548  AFER1  NULL                    ERROR IN FINDING SET OCCUR. FOR INSERT
   000654                              549  AFER2  NULL                    ERROR IN FINDING OWNER FOR VIA LOC MODE
   000654                              550  ASER1  NULL                    FIND AREA ERROR
   000654                              551  RCER2  NULL                    RA NOT FOUND FOR OWNER REC
   000654                              552  ASER2  NULL                    FIND AREA ERROR
   000654                              553  MKER6  NULL                    ERROR MOVING SORT/DUP KEY TO TEMP REC BUF
   000654                              554  MSER1  NULL                    ERROR MOVING CALC KEYS TO TEMP REC BUF
   000654                              555  UCER1  NULL                    ERROR UPDATING CURRENCY
   000654                              556  USRE1  NULL                    UPDATE SPEC. REG. ERROR
   000654                              557  STER1  NULL                    ERROR ACCUMULATING STATISTICS
   000654                              558  CKPE1  NULL                    ERROR FOUND IN USERS CHECK PROC
   000654                              559  MKER1  NULL                    ERROR MOVING PRIME KEY TO PROCESS AREA
   000654                              560  MKER2  NULL                    ERROR MOVING ALTERNATE KEY TO PROCESS AREA
 12:51 09/05/97  FILE=ZIM$DBST.:ZIC0TSI       IDS-II STORE SUBROUTINE                                    20   BMAP - B00
   000654                              561  UPKE1  NULL                    ERROR UPDATING CURR OF PRIME KEY
   000654                              562  UPKE2  NULL                    ERROR UPDATING CURR OF ALT. KEY
   000654                              563  ASER3  NULL                    FIND INDEXED AREA ERROR
   000654                              564  MPAKE  NULL                    ERROR MOVING PA KEYS TO KEY PROCESS AREA
   000654                              565  UPAER  NULL                    ERROR UPDATING PA OFSTS FOR PA SET
   000654 (0)000656 7100 00            566         TRA     STR1
                                       567  *
                                       568  *  ERRORS DETECTED IN PRIMITIVES
                                       569  *
   000655                              570  SNSPC  NULL                    NO SPACE FOR RECORD
   000655                              571  LKER   NULL                    ERROR IN LOCKING RECORD
   000655                              572  MVER1  NULL                    ERROR MOVING WS FIELDS TO BUF
   000655                              573  PGER2  NULL                    PAGE ERROR
   000655                              574  FIPE1  NULL                    FIND INSERT POINT ERROR
   000655                              575  CNER1  NULL                    ERROR LINKING INTO SET
   000655                              576  SIER1  NULL                    ERROR FINDING SPACE FOR INDEX REC
   000655                              577  SAER1  NULL                    ERROR ADDING ENTRY TO ALT. INDEX
   000655                              578  ULER   NULL                    ERROR IN UNLOCKING RECORD
   000655 (0)000656 7100 00            579         TRA     STR1
                                       580  *
                                       581  *  COMMON ERROR RETURN
                                       582  *
   000656  X 000000 7020 00            583  STR1     DBALT    RECOVER

 12:51 09/05/97  FILE=ZIM$DBST.:ZIC0TSI       IDS-II STORE SUBROUTINE                                    21   BMAP - B00
                                       584         EJECT
                                       585  *
                                       586  ****************************************************************
                                       587  *
                                       588  *  Disconnect any sets that were connected
                                       589  *
                                       590  ****************************************************************
                                       591  *
   000657                              592  STR2   NULL
                                       593  *  Clear RECOVER addr for FPT checker
   000657  X 000000 7010 00            594         DBCAL   ZIB$CLRRECOVER,,NOALT
   000660    000000 0020 00
   000661    7 00512 2351 00           595         LDA     RVT,,PR7        *
   000662    7 00510 2361 00           596         LDQ     RVI,,PR7        * PUT NEW REC
   000663    7 00510 7551 00           597         STA     RVI,,PR7        *  IN INPUT REC VAR
   000664    7 00512 7561 00           598         STQ     RVT,,PR7        *
   000665    7 00035 2341 00           599         SZN     CURRS,,PR7      ANY CONNECTED
   000666 (0)001016 6000 00            600         TZE     DDS             NO
   000667    7 00510 2231 00           601         LDX     X3,RVI,,PR7
   000670    7 00006 2271 13           602         LDX     X7,RCPTR,X3,PR7  GET RC
   000671    7 00035 4471 00           603         SXL     X7,CURRS,,PR7   SAVE AS 1ST RS
   000672                              604  BOL1   NULL
   000672    7 00035 7251 00           605         LXL     X5,CURRS,,PR7   GET CURR RS
   000673    6 00002 7251 15           606         LXL     X5,RCRSN,X5,PR6  GET NEXT RS
   000674    000122 6000 04            607         TZE     DDS,$           LAST RS
   000675    7 00035 1051 00           608         CMPX    X5,CURRS,,PR7   IS THIS THE LAST RS
   000676 (0)001016 6000 00            609         TZE     DDS             YES
   000677    7 00035 4451 00           610         SXL     X5,CURRS,,PR7   SAVE AS CURR
   000700    6 00000 2211 15           611         LDX     X1,DEF,X5,PR6
   000701    010000 3010 03            612         CANX    X1,.SO,DU       IS IT AN SO
   000702 (0)000672 6010 00            613         TNZ     BOL1            YES
   000703    6 00000 7211 15           614         LXL     X1,DEF,X5,PR6
   000704    040000 3010 03            615         CANX    X1,.MSM,DU      IS IT A MANUAL MEMBER
   000705 (0)000672 6010 00            616         TNZ     BOL1            YES
   000706    6 00003 7261 15           617         LXL     X6,SCRSH,X5,PR6  GET SC PTR
   000707    6 00000 2361 16           618         LDQ     DEF,X6,PR6      GET SET TYPE
   000710    000700 3760 07            619         ANQ     .SETT,DL        ISOLATE
 12:51 09/05/97  FILE=ZIM$DBST.:ZIC0TSI       IDS-II STORE SUBROUTINE                                    22   BMAP - B00
   000711    000200 1160 07            620         CMPQ    =O200,DL        IS IT A PRIMARY KEY
   000712 (0)000672 6000 00            621         TZE     BOL1            YES - SKIP
   000713    000300 1160 07            622         CMPQ    =O300,DL        IS IT A SECONDARY KEY
   000714 (0)000747 6010 00            623         TNZ     UORC2           NO - A USER OR CALC SET
                                       624  *
                                       625  *  RS FOR ALTERNATE KEY - REMOVE KEY VALUE FROM ALTERNATE
                                       626  *  INDEX IF NOT OPENED FOR LOAD MODE
   000715    7 00510 2211 00           627           LDX      X1,RVI,,PR7
   000716    7 00005 2201 11           628           LDX      X0,ACPTR,X1,PR7      GET AC
   000717    6 00003 2221 10           629           LDX      X2,WSOF,X0,PR6       AREA WORK SPACE
   000720    7 00000 2351 12           630           LDA      ATRIB,X2,PR7         ATRIBUTES OF AREA
   000721    000002 3150 03            631           CANA     .LOAD,DU             LOAD MODE?
   000722 (0)000672 6010 00            632           TNZ      BOL1                 YES
   000723    6 00000 2211 17           633             LDX   X1,DEF,X7,PR6  DEF WORD OF RC
   000724    000007 3610 03            634             ANX   X1,.PSTO,DU    ISOLATE STORAGE MODE
   000725    000004 1010 03            635             CMPX  X1,4,DU        INDEXED?
   000726 (0)000672 6000 00            636             TZE   BOL1           YES. ALREADY DONE
   000727    7 00516 7451 00           637             STX   X5,PRSS,,PR7   SAVE RS FOR PRIM REQ
   000730    7 00676 4451 00           638           SXL       X5,XPRS,,PR7   SAVE RS FOR INDEX PRIMS
                                       639  *  MOVE ALTERNAMTE KEY TO PROCESS AREA
   000731  X 000000 7010 00            640             DBCAL ZIG$DBXKU,,BOE4   MOVE KEY
   000732 (0)001115 7020 00
   000733    5 00006 2341 00
   000734    777776 6010 04
                                       641  * REMOVE ENTRY FROM ALTERNNATE
   000735  X 000000 7010 00            642           DBCAL    ZIM$KDEL,,BOE7       Delete alternate key
   000736 (0)001115 7020 00
   000737    5 00006 2341 00
   000740    777776 6010 04
                                       643  *  SET CURRENT WAS ERASED INDICATOR
   000741    7 00676 7251 00           644         LXL     X5,XPRS,,PR7    GET RS PTR
   000742    6 00003 7261 15           645         LXL     X6,SCRSH,X5,PR6  GET SC PTR
   000743    6 00001 2211 16           646         LDX     X1,SCWSO,X6,PR6  WORKSPACE FOR SC
   000744    400000 6200 00            647         EAX     X0,.B0
   000745    7 00000 2401 11           648         ORSX    X0,.CSE,X1,PR7  SET CURR WAS ERASED IND.
   000746 (0)000672 7100 00            649         TRA     BOL1            GET NEXT RS
   000747                              650  UORC2  NULL
 12:51 09/05/97  FILE=ZIM$DBST.:ZIC0TSI       IDS-II STORE SUBROUTINE                                    23   BMAP - B00
                                       651  *
                                       652  *  RS FOR USER OR CALC SET
                                       653  *
                                       654  *    DISCONNECT FROM A SET
   000747    400000 2350 03            655         LDA     .B0,DU
   000750    7 00517 7551 00           656         STA     PRRC,,PR7       SET TYPE REQUEST TO NONE
   000751    6 00003 7261 15           657         LXL     X6,SCRSH,X5,PR6  GET SC
   000752    7 00520 7461 00           658         STX     X6,PRSC,,PR7    PUT IN PRIM. REQ.
   000753    7 00510 2231 00           659         LDX     X3,RVI,,PR7
   000754    7 00002 4735 13           660         LDP     PR3,RADDR,X3,PR7     PR3->Record
   000755    7 00006 2271 13           661         LDX     X7,RCPTR,X3,PR7  GET RC PTR FOR REC
   000756  X 000000 7010 00            662         DBCAL   ZIG$DBGRS,,BOE10 GET RS PTR
   000757 (0)001115 7020 00
   000760    5 00006 2341 00
   000761    777776 6010 04
   000762    7 00510 2231 00           663         LDX     X3,RVI,,PR7
   000763    000 1 100 1015 20         664         MRL     (1,,1),(1),0,1     * MOVE
   000764    6 00004 0001 15           665         ARG     CSPAH,X5,PR6       *  PA OWNER TO
   000765    7 00061 0 0 0 0004        666         ADSC9   ITPTR,0,4,PR7        Work Space
   000766    7 00061 2351 00           667         LDA     ITPTR,,PR7      GET PTR
   000767    7 00520 2261 00           668         LDX     X6,PRSC,,PR7    GET SC PTR
   000770    6 00000 7201 16           669         LXL     X0,DEF,X6,PR6   GET LOCAL/GLOBAL INDICATOR FROM SC
   000771    001000 3000 03            670         CANX    X0,.LG,DU       IS IT A GLOBAL SET
   000772 (0)000775 6010 00            671         TNZ     SPTR            YES - DONT NEED TO ADJUST
   000773    7 00005 2201 13           672         LDX     X0,ACPTR,X3,PR7  NO - GET AC PTR
   000774    6 00002 0351 10           673         ADLA    ABAS,X0,PR6     MAKE PTR GLOBAL DBK
   000775                              674  SPTR   NULL
   000775    7 00015 7551 13           675         STA     CBRPA,X3,PR7    SAVE GLOBAL DBK OF PA OWNER IN RVI
   000776    7 00014 4501 13           676         STZ     CBRCE,X3,PR7    ZERO OUT PA ENTRY AND PTR OFSTS IN RVI
   000777  X 000000 7010 00            677         DBCAL   ZIG$DBPFP,FMR,BOE1  FIND PRIOR OF SET
   001000 (0)001115 7020 00
   001001    5 00006 2341 00
   001002    000003 6000 04
   001003    5 00006 4501 00
   001004 (0)001005 7020 00
   001005                              678  FMR    NULL
   001005    7 00511 2351 00           679         LDA     RVO,,PR7        *
 12:51 09/05/97  FILE=ZIM$DBST.:ZIC0TSI       IDS-II STORE SUBROUTINE                                    24   BMAP - B00
   001006    7 00512 2361 00           680         LDQ     RVT,,PR7        * PUT PRIOR REC
   001007    7 00512 7551 00           681         STA     RVT,,PR7        *  IN TEMP REC VAR
   001010    7 00511 7561 00           682         STQ     RVO,,PR7        *
   001011  X 000000 7010 00            683           DBCAL    ZIM$PDIS,,BOE2       Disconnect from set
   001012 (0)001115 7020 00
   001013    5 00006 2341 00
   001014    777776 6010 04
   001015 (0)000672 7100 00            684         TRA     BOL1
   001016                              685  DDS    NULL
                                       686  *  DELETE NEW REC IF SPACE WAS ALLOC
   001016    7 00510 2231 00           687         LDX     X3,RVI,,PR7
   001017    7 00002 2341 13           688         SZN     RADDR,X3,PR7    IS SPACE ALLOCATED
   001020 (0)001114 6000 00            689         TZE     DDR             NO
   001021    7 00006 2271 13           690         LDX     X7,RCPTR,X3,PR7  GET RC PTR
   001022    6 00000 2211 17           691         LDX     X1,DEF,X7,PR6   GET LOCATION MODE
   001023    000007 3610 03            692         ANX     X1,.PSTO,DU     ISOLATE
   001024    000004 1010 03            693         CMPX    X1,4,DU         IS IT INDEX
   001025 (0)001114 6000 00            694         TZE     IXRC2           YES
                                       695  *
                                       696  *           Journal deletion of record
                                       697  *
   001026  X 000000 7010 00            698           DBCAL    ZIM$JDEL,,NOALT
   001027    000000 0020 00
   001030  X 000000 7010 00            699         DBCAL   ZIG$DBPDR,,BOE5
   001031 (0)001115 7020 00
   001032    5 00006 2341 00
   001033    777776 6010 04
   001034                              700  UNL0 NULL
   001034    7 00510 2231 00           701      LDX  X3,RVI,,PR7    while buffer assoc to RVI locked
   001035    7 00001 4735 13           702      LDP  PR3,BADDR,X3,PR7    unlock it...
   001036    5 00026 4535 00           703      STP  PR3,CALLPM0,,PR5
   001037  X 000000 7010 00            704      DBCAL ZIO$DBBCC,UNL1,NOALT
   001040    000000 0020 00
   001041    5 00006 2341 00
   001042    000003 6000 04
   001043    5 00006 4501 00
   001044 (0)001050 7020 00
 12:51 09/05/97  FILE=ZIM$DBST.:ZIC0TSI       IDS-II STORE SUBROUTINE                                    25   BMAP - B00
   001045    7 00510 2231 00           705      UNLOCK RVI
   001046  X 000000 7010 00
   001047    000000 0020 00
   001050                              706  UNL1 NULL               likewise for RVO...
   001050    7 00511 2231 00           707      LDX  X3,RVO,,PR7
   001051    7 00001 4735 13           708      LDP  PR3,BADDR,X3,PR7
   001052    5 00026 4535 00           709      STP  PR3,CALLPM0,,PR5
   001053  X 000000 7010 00            710      DBCAL ZIO$DBBCC,UNL2,NOALT
   001054    000000 0020 00
   001055    5 00006 2341 00
   001056    000003 6000 04
   001057    5 00006 4501 00
   001060 (0)001064 7020 00
   001061    7 00511 2231 00           711      UNLOCK RVO
   001062  X 000000 7010 00
   001063    000000 0020 00
   001064                              712  UNL2 NULL               and for RVT...
   001064    7 00512 2231 00           713      LDX  X3,RVT,,PR7
   001065    7 00001 4735 13           714      LDP  PR3,BADDR,X3,PR7
   001066    5 00026 4535 00           715      STP PR3,CALLPM0,,PR5
   001067  X 000000 7010 00            716      DBCAL ZIO$DBBCC,UNL3,NOALT
   001070    000000 0020 00
   001071    5 00006 2341 00
   001072    000003 6000 04
   001073    5 00006 4501 00
   001074 (0)001100 7020 00
   001075    7 00512 2231 00           717      UNLOCK RVT
   001076  X 000000 7010 00
   001077    000000 0020 00
   001100                              718  UNL3 NULL               and RVPA
   001100    7 00513 2231 00           719      LDX  X3,RVPA,,PR7
   001101    7 00001 4735 13           720      LDP  PR3,BADDR,X3,PR7
   001102    5 00026 4535 00           721      STP  PR3,CALLPM0,,PR5
   001103  X 000000 7010 00            722      DBCAL ZIO$DBBCC,UNL4,NOALT
   001104    000000 0020 00
   001105    5 00006 2341 00
   001106    000003 6000 04
 12:51 09/05/97  FILE=ZIM$DBST.:ZIC0TSI       IDS-II STORE SUBROUTINE                                    26   BMAP - B00
   001107    5 00006 4501 00
   001110 (0)001114 7020 00
   001111    7 00513 2231 00           723      UNLOCK RVPA
   001112  X 000000 7010 00
   001113    000000 0020 00
   001114                              724  UNL4 NULL
   001114                              725  BNLK   NULL
   001114                              726  DDR    NULL
   001114                              727  IXRC2    NULL
   001114  X 000000 7020 00            728           DBALTO
   001115                              729  BOE1   NULL
   001115                              730  BOE2   NULL
   001115                              731  BOE5   NULL
   001115                              732  BOE6   NULL
   001115                              733  BOE4   NULL
   001115                              734  BOE7   NULL
   001115                              735  BOE8   NULL
   001115                              736  BOE9   NULL
   001115                              737  BOE10  NULL                    ERROR FINDING RS PTR
   001115    000022 7350 00            738           DBREC    STE4
   001116    7 00062 2551 00
   001117    303305 2350 07
   001120  X 000000 7020 00
                                       739         END

  CONTROL SECTION TABLE

   0 CODE   EVEN  001121
   1 RODATA EVEN  000000 LITERALS

 12:51 09/05/97  FILE=ZIM$DBST.:ZIC0TSI       SYMBOL TABLE                                               27   BMAP - B00
 40000000 000000200000 .AC            *50
 40000000 000000000100 .AG            *50
 40000000 000000002000 .ALTO          *50
 41000000 000000000077 .ANL           *50       473
 40000000 000000200000 .APDN          *50
 40000000 000000000100 .ATMP          *50
 40000000 000000400000 .AV            *50
 41000000 000000400000 .B0            *50       647       655
 40000000 000000200000 .B1            *50
 40000000 000000000200 .B10           *50
 40000000 000000000100 .B11           *50
 40000000 000000000040 .B12           *50
 40000000 000000000020 .B13           *50
 40000000 000000000010 .B14           *50
 40000000 000000000004 .B15           *50
 40000000 000000000002 .B16           *50
 40000000 000000000001 .B17           *50
 40000000 000000400000 .B18           *50
 40000000 000000200000 .B19           *50
 40000000 000000100000 .B2            *50
 40000000 000000100000 .B20           *50
 40000000 000000040000 .B21           *50
 40000000 000000020000 .B22           *50
 40000000 000000010000 .B23           *50
 40000000 000000004000 .B24           *50
 40000000 000000002000 .B25           *50
 40000000 000000001000 .B26           *50
 40000000 000000000400 .B27           *50
 40000000 000000000200 .B28           *50
 40000000 000000000100 .B29           *50
 40000000 000000040000 .B3            *50
 40000000 000000000040 .B30           *50
 40000000 000000000020 .B31           *50
 40000000 000000000010 .B32           *50
 40000000 000000000004 .B33           *50
 40000000 000000000002 .B34           *50
 40000000 000000000001 .B35           *50
 12:51 09/05/97  FILE=ZIM$DBST.:ZIC0TSI       SYMBOL TABLE                                               28   BMAP - B00
 40000000 000000020000 .B4            *50
 40000000 000000010000 .B5            *50
 40000000 000000004000 .B6            *50
 40000000 000000002000 .B7            *50
 40000000 000000001000 .B8            *50
 40000000 000000000400 .B9            *50
 40000000 000000000001 .BREAK         *50
 40000000 000000010000 .BRK           *50
 40000000 000000020000 .BTB           *50
 40000000 000000000001 .CAC           *50
 40000000 000000000000 .CAE           *50
 40000000 000000000200 .CANSSS        *50
 40000000 000000000400 .CD            *50
 40000000 000000040000 .CFLC          *50
 40000000 000000400000 .CHKSUM        *50
 40000000 000000100000 .CJRNL         *50
 40000000 000000000077 .CNSZ          *50
 40000000 000000160000 .COMC          *50
 40000000 000000000020 .CONT          *50
 41000000 000000000000 .CSE           *50       648
 40000000 000000700000 .CTYP          *50
 41000000 000000000270 .DBEST         *50
 41000000 000000000470 .DBIC          *50
 40000000 000000077777 .DBPT          *50
 41000000 000000000370 .DBSTK         *50
 40000000 000000020000 .DELM          *50
 40000000 000000002000 .DIDP          *50
 40000000 000000000077 .DNDX          *50
 40000000 000000600000 .DORD          *50
 40000000 000000000200 .DP            *50
 40000000 000000100000 .DPS           *50
 40000000 000000200000 .DPSA          *50
 40000000 000000400000 .DPST          *50
 40000000 000000000002 .DUMP          *50
 40000000 000000002000 .DUPC          *50
 40000000 000000010000 .DUPP          *50
 40000000 000000200000 .EBCL          *50
 12:51 09/05/97  FILE=ZIM$DBST.:ZIC0TSI       SYMBOL TABLE                                               29   BMAP - B00
 40000000 000000400000 .EBCM          *50
 40000000 000000200000 .ENCRP         *50
 40000000 000000000077 .ENDX          *50
 40000000 000000000400 .ENQ           *50
 40000000 000000004000 .ETC           *50
 40000000 000000000400 .EXIT          *50
 40000000 000000000200 .FMOD          *50
 40000000 000000000077 .FNL           *50
 40000000 000000000074 .FORG          *50
 40000000 000000002000 .FR            *50
 41000000 000000000100 .FSR           *50       285
 41000000 000000003400 .FUSE          *50       138
 40000000 000000010000 .FVF           *50
 41000000 000000040000 .FVR           *50       326
 40000000 000000000010 .INDEXED       *50
 40000000 000000777777 .IXID          *50
 40000000 000000001777 .IXNUM         *50
 40000000 000000000004 .KEYED         *50
 40000000 000000010000 .LCK           *50
 40000000 000000400000 .LEIL          *50
 41000000 000000001000 .LG            *50       670
 41000000 000000000002 .LOAD          *50       394       631
 40000000 000000020000 .MAR           *50
 41000000 000000000007 .MEMT          *50       440
 40000000 000000010000 .MRL           *50
 41000000 000000040000 .MSM           *50       377       615
 60000000 000000000001 .N6685         *50
 40000000 000000100000 .NAI           *50
 40000000 000000200000 .NBI           *50
 40000000 000000000002 .NCIA          *50
 40000000 000000040000 .NMV           *50
 40000000 000000017777 .NOENT         *50
 40000000 000000400000 .OA            *50
 40000000 000000740000 .OPEV          *50
 40000000 000000100000 .OSM           *50
 40000000 000000100000 .PAFIL         *50
 40000000 000000200000 .PAHVR         *50
 12:51 09/05/97  FILE=ZIM$DBST.:ZIC0TSI       SYMBOL TABLE                                               30   BMAP - B00
 40000000 000000000001 .PAIA          *50
 40000000 000000040000 .PALIL         *50
 40000000 000000020000 .PALVR         *50
 40000000 000000400000 .PANLL         *50
 40000000 000000400000 .PCKD          *50
 40000000 000000001600 .PMOD          *50
 40000000 000000000520 .PRCSE         *50
 41000000 000000000007 .PSTO          *50       119       303       634       692
 40000000 000000006040 .PTAS          *50
 40000000 000000010100 .PTCHK         *50
 40000000 000000010200 .PTDEC         *50
 40000000 000000010140 .PTENC         *50
 40000000 000000020000 .RA            *50
 41000000 000000100000 .RC            *50        98
 40000000 000000400000 .RELEASE       *50
 40000000 000000000017 .RELT          *50
 40000000 000000004000 .RERA          *50
 40000000 000000400000 .RERS          *50
 40000000 000000010000 .RKEY          *50
 40000000 000000000077 .RNL           *50
 41000000 000000200000 .RSTO          *50       108
 41000000 000000007777 .RTYP          *50       482
 40000000 000000040000 .SC            *50
 40000000 000000000070 .SETM          *50
 40000000 000000740000 .SETO          *50
 41000000 000000000700 .SETT          *50       381       619
 40000000 000000040000 .SFNP          *50
 41000000 000000004000 .SM            *50       205
 40000000 000000020000 .SMOD          *50
 40000000 000000000077 .SNL           *50
 40000000 000000020000 .SNSS          *50
 41000000 000000010000 .SO            *50       368       612
 41000000 000000100000 .SR            *50       108
 40000000 000000004000 .SRCR          *50
 40000000 000000001000 .SS            *50
 40000000 000000000007 .SSTP          *50
 41000000 000000004000 .SYN           *50       285
 12:51 09/05/97  FILE=ZIM$DBST.:ZIC0TSI       SYMBOL TABLE                                               31   BMAP - B00
 40000000 000000000040 .SYNC          *50
 40000000 000000020000 .TJRNL         *50
 40000000 000000040000 .TMPLT         *50
 40000000 000000040000 .TRACE         *50
 40000000 000000000001 .TRENTRY       *50
 40000000 000000000012 .TRIDEL        *50
 40000000 000000000021 .TRIDELENQ     *50
 40000000 000000000024 .TRIDEQ        *50
 40000000 000000000013 .TRIMOD        *50
 40000000 000000000022 .TRIMODENQ     *50
 40000000 000000000014 .TRIREAD       *50
 40000000 000000000023 .TRIREADENQ    *50
 40000000 000000000011 .TRISTO        *50
 40000000 000000000020 .TRISTOENQ     *50
 40000000 000000000017 .TRPDEQ        *50
 40000000 000000000004 .TRPMOD        *50
 40000000 000000000016 .TRPMODENQ     *50
 40000000 000000000002 .TRPREAD       *50
 40000000 000000000015 .TRPREADENQ    *50
 40000000 000000000003 .TRPWRITE      *50
 40000000 000000000010 .TRRACC        *50
 40000000 000000000006 .TRRDEL        *50
 40000000 000000000007 .TRRMOD        *50
 41000000 000000000005 .TRRSTO        *50       484
 40000000 000000004000 .ULCK          *50
 40000000 000000400000 .UPDT          *50
 41000000 000000000040 .VIA           *50       205       420
 61000000 000000000001 A              *50        96       499
 41000000 000000000002 ABAS           *50       673
 40000000 000000000001 AC             *50
 40000000 777777777760 ACDEF          *50
 40000000 000000211070 ACDNL          *50
 40000000 000000000003 ACID           *50
 40000000 000000001016 ACOPN          *50
 40000000 000000000002 ACP            *50
 41000000 000000000005 ACPTR          *50       153       189       196       212       233       261
                                      391       628       672
 12:51 09/05/97  FILE=ZIM$DBST.:ZIC0TSI       SYMBOL TABLE                                               32   BMAP - B00
 40000000 000000000002 ACRAH          *50
 40000000 000000000001 ACRAN          *50
 40000000 000000001003 ACREC          *50
 40000000 000000000001 ACTDBCB        *50
 40000000 000000000002 ACTDBNO        *50
 40000000 000000001017 ACTP           *50
 40000000 000000000000 ACTSSS         *50
 40000000 000000000000 ACTSZ          *50
 01101000 000000000654 AFER1          427      *548
 01101000 000000000654 AFER2          208      *549
 40000000 000000210565 AFNP           *50
 40000000 000000000635 AFT            *50
 40000000 000000022124 AIR            *50
 40000000 000000000016 AMAX           *50
 40000000 000000000026 ANAM           *50
 40000000 000000021614 ANR            *50
 40000000 000000000001 APNO           *50
 41000000 000000210562 ARGER          *50       502
 41000000 000000000020 ARGS           *50
 40000000 000000000077 ARGS2          *50
 40000000 000000210713 ARNAF          *50
 01101000 000000000654 ASER1          151      *550
 01101000 000000000654 ASER2          231      *552
 01101000 000000000654 ASER3          259      *563
 40000000 000000000003 ATBL           *50
 41000000 000000000000 ATRIB          *50       393       630
 40000000 000000000002 AVLN           *50
 40000000 000000000013 AWS$           *50
 40000000 000000000010 AWSZ           *50
 60000000 000000000001 B              *50
 40000000 000000001006 B32N           *50
 40000000 000000001007 B36N           *50
 40000000 000000001056 B72N           *50
 41000000 000000000001 BADDR          *50       702       708       714       720
 40000000 000000210712 BADSEED        *50
 40000000 777777777765 BDCW           *50
 40000000 000000000633 BEF            *50
 12:51 09/05/97  FILE=ZIM$DBST.:ZIC0TSI       SYMBOL TABLE                                               33   BMAP - B00
 40000000 000000020000 BEFW           *50
 40000000 000000000751 BEMT           *50
 40000000 777777777761 BID            *50
 40000000 777777777762 BIND           *50
 40000000 000000000007 BLKD           *50
 40000000 000000303331 BME02          *50
 41000000 000000001203 BMPB           *50
 40000000 000000000652 BN1            *50
 40000000 000000000654 BN2            *50
 00101000 000000001114 BNLK          *725
 01101000 000000001115 BOE1           677      *729
 01101000 000000001115 BOE10          662      *737
 01101000 000000001115 BOE2           683      *730
 01101000 000000001115 BOE4           640      *733
 01101000 000000001115 BOE5           699      *731
 00101000 000000001115 BOE6          *732
 01101000 000000001115 BOE7           642      *734
 00101000 000000001115 BOE8          *735
 00101000 000000001115 BOE9          *736
 01101000 000000000672 BOL1          *604       613       616       621       632       636       649
                                      684
 40000000 000000000004 BPL            *50
 40000000 000000000015 BPLDBK         *50
 41000000 000000000034 BSPG           *50       149       156       167       190       251
 40000000 777777777763 BSTAT          *50
 40000000 000000000750 BTX0           *50
 41000000 000000001160 BUF4           *50
 41000000 000000001170 BUF6           *50
 41000000 000000000000 BUFORG         *50
 40000000 000000001060 BUFRQ          *50
 40000000 000000000006 BURRID         *50
 41000000 000000000020 BWASZ          *50
 60000000 000000000001 C              *50
 40000000 000000000050 CAAC           *50
 40000000 000000000050 CACD           *50
 40000000 000000000111 CAG            *50
 40000000 000000001033 CAL            *50
 12:51 09/05/97  FILE=ZIM$DBST.:ZIC0TSI       SYMBOL TABLE                                               34   BMAP - B00
 01101000 000000000125 CALC           122      *178
 01101000 000000000613 CALER1          99      *500
 01101000 000000000613 CALER2          95      *501
 41000000 000000000026 CALLPM0        *50       703       709       715       721
 40000000 000000000003 CANSSS         *50
 40000000 000000000003 CBCPA          *50
 40000000 000000000002 CBCPO          *50
 40000000 000000000002 CBENO          *50
 40000000 000000000014 CBFSZ          *50
 40000000 000000000753 CBIB           *50
 40000000 000000001030 CBID           *50
 41000000 000000000014 CBRCE          *50       676
 40000000 000000000014 CBRCP          *50
 40000000 000000001033 CBRID          *50
 41000000 000000000015 CBRPA          *50       675
 40000000 000000000031 CCHAR          *50
 40000000 000000000040 CDBK           *50
 40000000 000000000030 CDES           *50
 40000000 000000000110 CDP            *50
 40000000 000000001044 CDPSI          *50
 40000000 000000000002 CDRH           *50
 40000000 000000000003 CDRN           *50
 40000000 000000000002 CDSH           *50
 40000000 000000000003 CDSN           *50
 40000000 000000000722 CENTRN         *50
 40000000 000000000722 CENTRO         *50
 40000000 000000000716 CENTRY         *50
 41000000 000000001053 CFCT           *50
 40000000 000000000670 CFLPT1         *50
 40000000 000000000672 CFLPT2         *50
 40000000 000000000015 CFSA           *50
 40000000 000000000646 CHDBK          *50
 40000000 000000000773 CHR            *50
 40000000 000000000006 CHRD           *50
 40000000 000000000772 CHRO           *50
 40000000 000000007640 CHRTP          *50
 40000000 000000001043 CIAC           *50
 12:51 09/05/97  FILE=ZIM$DBST.:ZIC0TSI       SYMBOL TABLE                                               35   BMAP - B00
 40000000 000000000012 CIAWS          *50
 40000000 000000001051 CIBSI          *50
 40000000 000000000516 CIND           *50
 40000000 000000001041 CINVSZ         *50
 40000000 000000001042 CIPG           *50
 40000000 000000001050 CIPSI          *50
 40000000 000000000000 CIRUN          *50
 40000000 000000000002 CIRWS          *50
 40000000 000000000002 CISWS          *50
 40000000 000000000014 CIWSOF         *50
 01101000 000000000423 CKMEM          369      *376
 01101000 000000000654 CKPE1          296      *558
 40000000 000000303374 CKSM           *50
 40000000 000000000022 CLCN           *50
 40000000 000000000023 CLCP           *50
 40000000 000000000003 CLCRC          *50
 41000000 000000000003 CLCSC          *50       179       433
 40000000 000000000237 CLI            *50
 40000000 000000000026 CLNG           *50
 40000000 000000000052 CMPL           *50
 40000000 000000000002 CN             *50
 40000000 000000303315 CNE1           *50
 01101000 000000000655 CNER1          374       446      *575
 40000000 000000006034 CNUL           *50
 40000000 000000100000 COB74          *50
 40000000 000000000001 COFS           *50
 40000000 000000000045 CONCD          *50
 40000000 000000007764 CP6PGSZB       *50
 41000000 000000001775 CP6PGSZW       *50
 40000000 000000001000 CPGR           *50
 40000000 000000000723 CPTRN          *50
 40000000 000000000723 CPTRO          *50
 60000000 000000000004 CPW            *50
 40000000 000000000112 CRA            *50
 40000000 000000001004 CRD            *50
 40000000 000000000764 CREC           *50
 40000000 000000006344 CRIT           *50
 12:51 09/05/97  FILE=ZIM$DBST.:ZIC0TSI       SYMBOL TABLE                                               36   BMAP - B00
 40000000 000000006200 CRNUL          *50
 40000000 000000007330 CRST           *50
 41000000 000000001223 CRUN           *50       479
 41000000 000000000000 CSECT          *50
 40000000 000000000007 CSMPP          *50
 40000000 000000001000 CSPAC          *50
 41000000 000000000004 CSPAH          *50       665
 40000000 777777777776 CSPES          *50
 40000000 777777777776 CSPSB          *50
 40000000 000000000115 CSTS           *50
 40000000 000000000071 CSUB           *50
 40000000 000000000017 CSZ            *50
 40000000 000000000057 CTMASK         *50
 40000000 000000000774 CTPAI          *50
 40000000 000000000240 CURLN          *50
 40000000 000000000236 CURLT          *50
 40000000 000000000770 CURPG          *50
 40000000 000000000001 CURR           *50
 41000000 000000000035 CURRS          *50        84       361       363       366       430       451
                                      599       603       605       608       610
 40000000 000000000037 CURSS          *50
 40000000 000000001005 CWRT           *50
 40000000 000000000237 CWSOF          *50
 60000000 000000000001 D              *50
 40000000 000000000003 DBAN           *50
 40000000 000000000036 DBDR           *50
 40000000 000000000037 DBFN           *50
 40000000 000000000754 DBK            *50
 40000000 000000000777 DBKAC          *50
 41000000 000000000000 DBKEY          *50        82       148       173       188       195       225
                                      250
 40000000 000000000000 DBKL           *50
 40000000 000000007474 DBKN           *50
 41000000 000000000776 DBKR           *50
 40000000 000000000777 DBKRQ          *50
 40000000 000000000234 DBKSI          *50
 40000000 000000000651 DBKSR          *50
 12:51 09/05/97  FILE=ZIM$DBST.:ZIC0TSI       SYMBOL TABLE                                               37   BMAP - B00
 40000000 000000000047 DBKYN          *50
 40000000 000000210652 DBLC01         *50
 40000000 000000210653 DBLC05         *50
 40000000 000000303334 DBLC07         *50
 40000000 000000210655 DBLD01         *50
 40000000 000000000010 DBLIM          *50
 40000000 000000000033 DBPKY          *50
 40000000 000000000023 DBRN           *50
 40000000 000000000013 DBSN           *50
 40000000 000000000001 DBST           *50
 40000000 000000000757 DCDSR          *50
 40000000 000000210650 DCE1           *50
 40000000 000000001053 DCPR           *50
 40000000 000000001053 DCPW           *50
 40000000 000000000015 DCTBL          *50
 41000000 000000000032 DDBK           *50       145       146
 40000000 000000000006 DDCB           *50
 40000000 000000011754 DDI            *50
 01101000 000000001114 DDR            689      *726
 01101000 000000001016 DDS            600       607       609      *685
 41000000 000000000000 DEF            *50        97       107       118       137       160       206
                                      214       236       284       302       325       367       380
                                      439       472       611       614       618       633       669
                                      691
 40000000 000000000014 DEF2           *50
 40000000 000000303413 DELAK          *50
 40000000 000000000036 DELRS          *50
 40000000 000000000732 DEPCW          *50
 01101000 000000000055 DIR            121      *132
 40000000 000000303414 DLDBK          *50
 40000000 000000210627 DLE1           *50
 40000000 000000303310 DLE2           *50
 40000000 000000210631 DLE3           *50
 01101000 000000000515 DMCK           434      *437
 01101000 000000000526 DMCK2          442      *444
 40000000 000000016040 DNES           *50
 40000000 777777777777 DPAGN          *50
 12:51 09/05/97  FILE=ZIM$DBST.:ZIC0TSI       SYMBOL TABLE                                               38   BMAP - B00
 40000000 000000000020 DPPI           *50
 40000000 000000000053 DPSLW          *50
 40000000 000000000003 DS             *50
 40000000 000000001063 DSDES          *50
 40000000 000000303316 DSE1           *50
 01101000 000000000543 DSP            365      *449
 40000000 000000000735 DUSEPA         *50
 60000000 000000000001 E              *50
 40000000 000000303251 EDPER          *50
 40000000 000000000026 EEIND          *50
 40000000 000000000713 EFIND          *50
 40000000 000000001030 ELO            *50
 40000000 000000210711 ENCPNA         *50
 40000000 000000000007 ENCRP          *50
 40000000 000000000752 ENDSR          *50
 40000000 000000210647 ENE1           *50
 40000000 000000000716 ENIND          *50
 40000000 000000000013 ENTBL          *50
 40000000 000000000710 ENTNO          *50
 40000000 000000000712 ENTPTR         *50
 40000000 000000000717 ENTSZ          *50
 40000000 000000000711 ENTTYP         *50
 40000000 000000004064 EOSR           *50
 40000000 000000000004 ES             *50
 41000000 000000000100 ESTSZ          *50
 40000000 000000000725 ESZ            *50
 40000000 000000000005 ETCADR         *50
 40000000 000000000005 ETCDBNO        *50
 40000000 000000000064 EXCCD          *50
 40000000 000000234534 FALRT          *50
 40000000 000000001055 FBF72          *50
 40000000 000000001025 FBU61          *50
 40000000 000000001020 FBUF           *50
 40000000 000000001026 FBUF1          *50
 40000000 000000001027 FBUF4          *50
 40000000 000000001024 FBUF6          *50
 40000000 000000001022 FBUFM          *50
 12:51 09/05/97  FILE=ZIM$DBST.:ZIC0TSI       SYMBOL TABLE                                               39   BMAP - B00
 40000000 000000001021 FBUFU          *50
 40000000 000000001023 FBUMD          *50
 40000000 000000000004 FCN            *50
 40000000 000000000051 FCNT           *50
 40000000 000000000002 FCP            *50
 40000000 000000000047 FCSS           *50
 40000000 000000000005 FD             *50
 40000000 000000210637 FDE1           *50
 40000000 000000303320 FDE2           *50
 40000000 000000303321 FDE3           *50
 40000000 000000210642 FDE4           *50
 40000000 000000210643 FDE5           *50
 40000000 000000210644 FDE6           *50
 40000000 000000303325 FDE7           *50
 40000000 000000303326 FDE8           *50
 40000000 000000000021 FEASZ          *50
 40000000 000000000740 FETM           *50
 40000000 000000000006 FI             *50
 40000000 000000000103 FIAC           *50
 41000000 000000001100 FIB1           *50
 41000000 000000001130 FIBP           *50
 40000000 000000000000 FIBX           *50
 40000000 000000000102 FICNT          *50
 01101000 000000000655 FIPE1          445      *574
 40000000 000000000005 FIPN           *50
 40000000 000000000054 FKIND          *50
 40000000 000000000015 FLAGS          *50
 40000000 000000000244 FLDDSC         *50
 40000000 000000000046 FLDTL          *50
 01101000 000000001005 FMR            677      *678
 40000000 000000000020 FMSBF          *50
 40000000 000000000006 FNAM           *50
 40000000 000000000250 FNIND          *50
 40000000 000000000004 FNL            *50
 01101000 000000000501 FOR            421      *426
 40000000 000000000101 FRAC           *50
 41000000 000000000002 FRANGE         *50       161       215       237
 12:51 09/05/97  FILE=ZIM$DBST.:ZIC0TSI       SYMBOL TABLE                                               40   BMAP - B00
 40000000 000000211400 FRDNL          *50
 01101000 000000000635 FRNF           136      *524
 40000000 000000200000 FRTRN          *50
 41000000 000000000005 FRWSO          *50       288
 40000000 000000000767 FSLN           *50
 40000000 000000000766 FSOF           *50
 01101000 000000000260 FSPAC          169       174       198       252      *266
 40000000 000000000060 FTIND          *50
 40000000 000000303240 FTLINCR        *50
 40000000 000000000021 FWSSZ          *50
 40000000 000000000246 GACDK          *50
 40000000 000000000014 GDCB           *50
 41000000 000000000006 GERROR         *50        86       151       180       183       186       213
                                      231       259       293       296       309       314       339
                                      374       399       401       423       436       443       445
                                      446       447       464       491       640       642       662
                                      677       683       699       704       710       716       722
 40000000 000000000016 GINHIB         *50
 40000000 000000000020 GIOAWS         *50
 40000000 000000000022 GIOBUF         *50
 40000000 000000000021 GIOPGNO        *50
 40000000 000000000015 GPAGE          *50
 40000000 000000000010 GRETAC         *50
 40000000 000000000011 GRETFR         *50
 40000000 000000000013 GRETRC         *50
 40000000 000000000012 GRETSC         *50
 41000000 000000000025 GRLCW          *50        91
 01101000 000000000654 GRSE1          180      *546
 40000000 000000000014 GSTCD          *50
 40000000 000000000007 GSYSERR        *50
 40000000 000000000010 GT             *50
 41000000 000000000046 GTRNAME        *50       478
 40000000 000000000055 GTRPDCB        *50
 40000000 000000000056 GTRPNO         *50
 41000000 000000000057 GTRRDBK        *50       480
 41000000 000000000060 GTRRTYPE       *50       483
 41000000 000000000060 GTRTYPE        *50       485
 12:51 09/05/97  FILE=ZIM$DBST.:ZIC0TSI       SYMBOL TABLE                                               41   BMAP - B00
 40000000 000000000027 HASH           *50
 01101000 000000000654 HER1           186      *547
 40000000 000000000022 HIA            *50
 40000000 000000000775 HIDB           *50
 41000000 000000000003 HIGHDBK        *50       164       218       240
 40000000 000000000004 HIGHPG         *50
 40000000 000000001037 HIL            *50
 40000000 000000000002 HILN           *50
 40000000 000000000006 HPOS           *50
 40000000 000000000756 IAAC           *50
 40000000 000000001011 IACLN          *50
 40000000 000000001010 IALC           *50
 40000000 000000010314 IAN            *50
 40000000 000000001012 IANLN          *50
 40000000 000000000001 IASID          *48
 40000000 000000020320 ICA            *50
 40000000 000000000023 ICKSMP         *50
 40000000 000000000024 ICKSMV         *50
 40000000 000000210742 ICNR           *50
 41000000 000000000020 ICSIZ          *50
 41000000 000000010004 IDBK           *50       530
 40000000 000000012120 IDI            *50
 40000000 000000000023 IDS            *50
 01101000 000000000247 IDX            125      *256
 40000000 000000000011 IF             *50
 40000000 000000000021 IFIPN          *50
 40000000 000000000000 IFR            *50
 40000000 000000234546 IKSEQ          *50
 40000000 000000000113 INAFLAG        *50
 40000000 000000000016 INCHA          *50
 01101000 000000000641 INDB           159       168      *529
 40000000 000000210566 INNM           *50
 40000000 000000210567 INSS           *50
 40000000 000000210575 INSST          *50
 40000000 000000303241 INTER          *50
 40000000 000000400000 INTII          *50
 40000000 000000000013 INTVL          *50
 12:51 09/05/97  FILE=ZIM$DBST.:ZIC0TSI       SYMBOL TABLE                                               42   BMAP - B00
 40000000 000000001060 INVFLG         *50
 40000000 000000001043 INVOF          *50
 40000000 000000000014 INVT           *50
 40000000 000000000034 IOBLK          *50
 40000000 000000303354 IOCLSD         *50
 40000000 000000303355 IOCLSK         *50
 40000000 000000303257 IOE1           *50
 40000000 000000303264 IOE11          *50
 40000000 000000303265 IOE12          *50
 40000000 000000303266 IOE18          *50
 40000000 000000303260 IOE2           *50
 40000000 000000303261 IOE3           *50
 40000000 000000303262 IOE7           *50
 40000000 000000303263 IOE8           *50
 40000000 000000303363 IOFLSH         *50
 40000000 000000210676 IOGDCB         *50
 40000000 000000001002 IOINC          *50
 40000000 000000305160 IOINI          *50
 40000000 000000305155 IONOTIDS       *50
 40000000 000000305154 IONOTKEY       *50
 40000000 000000210677 IOOPND         *50
 40000000 000000210700 IOOPNK         *50
 40000000 000000303361 IORDD          *50
 40000000 000000305156 IOSCHEMA       *50
 40000000 000000001052 IOSTS          *50
 40000000 000000303362 IOWRTD         *50
 41000000 000000000750 IOWS           *50
 40000000 000000000647 IPC            *50
 40000000 000000000650 IPCF           *50
 00101000 000000000402 IPF           *358
 40000000 000000000006 IROLLFLAG      *50
 40000000 000000010150 IRSN           *50
 40000000 000000000004 ISYSDCB        *50
 40000000 000000000005 ISYSERR        *50
 41000000 000000000061 ITPTR          *50       666       667
 40000000 000000000060 ITRS           *50
 40000000 000000021760 IUM            *50
 12:51 09/05/97  FILE=ZIM$DBST.:ZIC0TSI       SYMBOL TABLE                                               43   BMAP - B00
 40000000 000000000017 IUSZ           *50
 40000000 000000234522 IVDBK          *50
 40000000 000000000011 IXBUF$         *50
 40000000 000000000046 IXFBSZ         *50
 40000000 777777777776 IXID           *50
 40000000 777777777777 IXPLL          *50
 01101000 000000001114 IXRC2          694      *727
 40000000 000000000523 KCARG0         *50
 40000000 000000000524 KCARG3         *50
 40000000 000000000525 KCARG4         *50
 40000000 000000000700 KCREG          *50
 40000000 000000000006 KDCB           *50
 40000000 000000000666 KEYDS          *50
 40000000 000000000010 KEYPA          *50
 40000000 777777777776 KLNG           *50
 40000000 000000000022 KPASZ          *50
 40000000 000000000006 KWSZ           *50
 40000000 000000000052 LANGC          *50
 40000000 000000001014 LAS            *50
 40000000 000000700000 LCODM          *50
 40000000 000000001045 LDPSI          *50
 40000000 000000001071 LINPT          *50
 00101000 000000000655 LKER          *571
 01101000 000000000650 LMER           124       126       127       128      *538
 40000000 000000001017 LNCNT          *50
 40000000 000000000762 LNNO           *50
 40000000 000000001036 LOL            *50
 40000000 000000000715 LOLIM          *50
 01101000 000000000405 LOOP1         *362       375       378       383       395       415       448
 40000000 000000000023 LPASZ          *50
 40000000 000000000012 LPP            *50
 41000000 000000257764 LR             *50       514       519
 40000000 000000301270 LRA            *50
 40000000 000000000017 LRSZ           *50
 40000000 000000001035 LSPC           *50
 40000000 000000000750 LUPD           *50
 61000000 000000000001 M9             *50
 12:51 09/05/97  FILE=ZIM$DBST.:ZIC0TSI       SYMBOL TABLE                                               44   BMAP - B00
 40000000 000000000013 MD             *50
 40000000 000000300000 MDQS           *50
 40000000 000000000730 MEMPTR         *50
 40000000 000000000727 MEMTYP         *50
 00101000 000000000654 MKER1         *559
 01101000 000000000654 MKER2          399      *560
 01101000 000000000654 MKER6          436      *553
 40000000 000000000045 MODCD          *50
 41000000 000000001207 MODFL          *50
 40000000 000000000042 MODFR          *50
 40000000 000000000044 MODIN          *50
 40000000 000000000044 MODRS          *50
 40000000 000000000043 MODSC          *50
 01101000 000000000654 MPAKE          443      *564
 40000000 000000000047 MRBKI          *50
 40000000 000000210632 MRE4           *50
 40000000 000000303313 MRE5           *50
 40000000 000000210634 MRE7           *50
 01101000 000000000503 MSDK           424      *429
 01101000 000000000654 MSER1          183      *554
 01101000 000000000342 MSZTY          305      *319
 01101000 000000000655 MVER1          293      *572
 40000000 000000400000 MW             *50
 01101000 000000000317 MWDN           281      *299
 40000000 000000000025 NCH            *50
 40000000 000000000002 NCHA           *50
 40000000 000000000005 NCHRS          *50
 40000000 000000000014 NDCD           *50
 40000000 000000000012 NENC           *50
 40000000 000000000634 NEW            *50
 40000000 000000001072 NEWSIZ         *50
 40000000 000000235164 NKA            *50
 40000000 000000235020 NKDB           *50
 40000000 000000303415 NLDBK          *50
 40000000 777777777777 NLIND          *50
 40000000 000000001040 NLN            *50
 40000000 000000400000 NLNSA          *50
 12:51 09/05/97  FILE=ZIM$DBST.:ZIC0TSI       SYMBOL TABLE                                               45   BMAP - B00
 41000000 000000001053 NOBF           *50
 40000000 000000000711 NOPTRS         *50
 40000000 000000000742 NPARCW         *50
 40000000 000000000630 NPIND          *50
 40000000 000000000004 NPOS           *50
 40000000 000000234510 NSA            *50
 40000000 000000234654 NSCS           *50
 40000000 000000234344 NSDB           *50
 40000000 000000000001 NSTS           *50
 40000000 000000000726 NUMENT         *50
 40000000 000000000727 NUMPTR         *50
 40000000 777777777760 NXBUF          *50
 40000000 000000000713 NXPRI          *50
 40000000 000000000771 NXTC           *50
 40000000 000000000001 OAACN          *50
 40000000 000000000022 OACIWSOF       *50
 41000000 000000000001 OAOFST         *50       179       433
 40000000 000000000002 OARCN          *50
 40000000 000000000001 OASCN          *50
 40000000 000000000014 OD             *50
 40000000 000000000074 ODBK           *50
 40000000 000000001072 OLDSIZ         *50
 40000000 000000000101 OPADP          *50
 40000000 000000000741 OPARCW         *50
 40000000 000000210570 ORDNI          *50
 41000000 777777777777 OTVL           *50       270
 40000000 000000000252 OWNPTR         *50
 40000000 000000000016 PABUF          *50
 40000000 000000001041 PACD           *50
 40000000 000000000001 PACW           *50
 40000000 000000000733 PADBK          *50
 40000000 000000000740 PADUP          *50
 40000000 000000000745 PAEN           *50
 40000000 000000000745 PAEO           *50
 40000000 000000000734 PAEOF          *50
 40000000 000000303336 PAER1          *50
 40000000 000000303337 PAER2          *50
 12:51 09/05/97  FILE=ZIM$DBST.:ZIC0TSI       SYMBOL TABLE                                               46   BMAP - B00
 40000000 000000303340 PAER3          *50
 40000000 000000303341 PAER4          *50
 40000000 000000303342 PAER5          *50
 40000000 000000303343 PAER6          *50
 40000000 000000000747 PAESZ          *50
 40000000 000000001060 PAFLG          *50
 40000000 000000000731 PAOPTR         *50
 40000000 000000000734 PAPOF          *50
 40000000 000000000714 PARCW          *50
 40000000 000000000726 PARVPA         *50
 40000000 000000000724 PASPLT         *50
 40000000 000000000004 PAWSZ          *50
 40000000 777777777762 PBUF           *50
 40000000 000000000020 PC             *50
 41000000 000000000510 PCB            *50
 40000000 000000000642 PCD            *50
 40000000 000000000642 PCD2           *50
 40000000 000000000247 PCEXI          *50
 40000000 000000000675 PCMIN          *50
 40000000 000000004541 PCOMP          *50
 40000000 000000000010 PD             *50
 40000000 000000000040 PE             *50
 40000000 000000000017 PENDING        *50
 40000000 000000000004 PF             *50
 40000000 000000000400 PFG            *50
 40000000 000000000200 PFM            *50
 41000000 000000000100 PFS            *50       290
 40000000 000000000400 PG             *50
 01101000 000000000655 PGER2          423      *573
 40000000 000000001064 PGHD           *50
 40000000 000000000006 PGLIM          *50
 41000000 000000000003 PGRNG          *50       158       166       172       192       194       220
                                      221       226       242       243       248
 40000000 000000000746 PGSIZE         *50
 40000000 000000000641 PGSPLT         *50
 40000000 000000000100 PKAW           *50
 40000000 000000001034 PLO            *50
 12:51 09/05/97  FILE=ZIM$DBST.:ZIC0TSI       SYMBOL TABLE                                               47   BMAP - B00
 40000000 000000000004 PLSEP          *50
 40000000 000000000200 PM             *50
 40000000 000000001054 PNEOO          *50
 40000000 000000001047 POFSI          *50
 40000000 000000000005 PPOS           *50
 41000000 000000000000 PR0            *48        88        90        93
 41000000 000000000001 PR1            *48        89        94       142
 40000000 000000000002 PR2            *48
 41000000 000000000003 PR3            *48       273       277       320       335       345       350
                                      660       702       703       708       709       714       715
                                      720       721
 41000000 000000000004 PR4            *48       346       349
 41000000 000000000005 PR5            *48        86        91       151       180       183       186
                                      213       231       259       293       296       309       314
                                      339       374       399       401       423       436       443
                                      445       446       447       464       468       478       480
                                      483       485       491       640       642       662       677
                                      683       699       703       704       709       710       715
                                      716       721       722
 41000000 000000000006 PR6            *48        97       102       107       112       118       135
                                      137       144       158       160       163       166       172
                                      179       181       192       194       204       206       214
                                      217       220       221       226       236       239       242
                                      243       248       270       274       280       284       288
                                      302       321       325       364       367       379       380
                                      392       404       431       433       439       472       477
                                      481       522       606       611       614       617       618
                                      629       633       645       646       657       665       669
                                      673       691
 41000000 000000000007 PR7            *48        81        82        83        84       103       111
                                      113       114       115       116       145       146       147
                                      148       149       152       153       154       156       164
                                      167       171       173       182       185       187       188
                                      189       190       191       195       196       197       210
                                      211       212       218       223       224       225       227
                                      229       230       232       233       234       240       245
                                      247       249       250       251       257       258       260
 12:51 09/05/97  FILE=ZIM$DBST.:ZIC0TSI       SYMBOL TABLE                                               48   BMAP - B00
                                      261       262       267       268       269       271       273
                                      279       282       289       294       300       301       310
                                      311       312       313       320       322       324       328
                                      329       332       334       343       344       345       346
                                      347       359       360       361       363       366       371
                                      373       390       391       393       396       397       403
                                      405       406       407       408       409       411       412
                                      413       414       430       432       435       438       451
                                      455       460       461       462       463       470       471
                                      479       595       596       597       598       599       601
                                      602       603       605       608       610       627       628
                                      630       637       638       644       648       656       658
                                      659       660       661       663       666       667       668
                                      672       675       676       679       680       681       682
                                      687       688       690       701       702       705       707
                                      708       711       713       714       717       719       720
                                      723       738
 40000000 000000303267 PRE1           *50
 40000000 000000303277 PRE10          *50
 40000000 000000303270 PRE3           *50
 40000000 000000303271 PRE4           *50
 40000000 000000303272 PRE5           *50
 40000000 000000210613 PRE6           *50
 40000000 000000210614 PRE7           *50
 40000000 000000210615 PRE8           *50
 40000000 000000303276 PRE9           *50
 40000000 000000000522 PREXC          *50
 41000000 000000000521 PRFR           *50       269       279       282       294
 40000000 000000000521 PRFR2          *50
 41000000 000000000000 PRIV           *50       103       289
 40000000 000000000526 PROPA          *50
 41000000 000000000517 PRRC           *50       656
 41000000 000000000517 PRRS           *50       373
 41000000 000000000520 PRSC           *50       405       432       658       668
 41000000 000000000516 PRSS           *50       182       185       396       435       438       637
 40000000 000000000644 PRSTS          *50
 01101000 000000000624 PRVE1          105      *513
 12:51 09/05/97  FILE=ZIM$DBST.:ZIC0TSI       SYMBOL TABLE                                               49   BMAP - B00
 01101000 000000000630 PRVE2          291      *518
 41000000 000000000100 PS             *50       104
 41000000 000000000000 PS0SID         *48
 41000000 000000000001 PS1SID         *48
 41000000 000000000002 PS2SID         *48
 41000000 000000000003 PS3SID         *48
 41000000 000000000004 PS4SID         *48
 40000000 000000000005 PS5SID         *48
 40000000 000000000006 PS6SID         *48
 40000000 000000303416 PSA            *50
 40000000 000000000020 PSC            *50
 40000000 000000000010 PSD            *50
 40000000 000000000004 PSF            *50
 40000000 000000000400 PSO            *50
 40000000 000000000720 PTESZ          *50
 40000000 000000000631 PTR            *50
 40000000 000000000724 PTRESZ         *50
 40000000 000000000710 PTRNO          *50
 41000000 000000000630 PWS            *50
 41000000 000000000002 RADDR          *50        83       345       660       688
 40000000 000000000010 RADIX          *50
 41000000 000000000005 RAPTR          *50       154       197       234       262
 01101000 000000000115 RARNG1         162      *166
 01101000 000000000205 RARNG2         216      *220
 01101000 000000000234 RARNG3         238      *242
 41000000 000000000004 RAWSOF         *50       163       217       239
 40000000 777777777766 RBA            *50
 40000000 000000023432 RCBI           *50
 40000000 000000211234 RCDNL          *50
 01101000 000000000654 RCER2          213      *551
 41000000 000000000005 RCFRH          *50       522
 41000000 000000000004 RCFRN          *50       135       280
 40000000 000000001075 RCHD           *50
 40000000 000000000001 RCID           *50
 41000000 000000000006 RCPTR          *50       115       230       258       268       301       360
                                      471       602       661       690
 40000000 000000000002 RCRAH          *50
 12:51 09/05/97  FILE=ZIM$DBST.:ZIC0TSI       SYMBOL TABLE                                               50   BMAP - B00
 40000000 000000000001 RCRAN          *50
 40000000 000000000003 RCRSH          *50
 41000000 000000000002 RCRSN          *50       204       364       606
 40000000 000000210667 RCVER1         *50
 40000000 000000210670 RCVER2         *50
 40000000 000000210671 RCVER4         *50
 40000000 000000210672 RCVER5         *50
 40000000 000000210673 RCVER6         *50
 40000000 000000000736 RCW1           *50
 40000000 000000000737 RCW2           *50
 41000000 000000000004 RCWSO          *50       102
 40000000 000000000077 RDAC           *50
 40000000 000000000076 RDCNT          *50
 40000000 000000040000 RDI            *50
 40000000 000000015674 RDLT           *50
 40000000 000000000075 RDYCW          *50
 40000000 000000000066 RECAC          *50
 40000000 000000000065 RECFR          *50
 40000000 000000000070 RECRC          *50
 40000000 000000000067 RECSC          *50
 41000000 000000000003 RECSZ          *50       332       347
 40000000 000000000235 REMLT          *50
 40000000 000000000062 REM_RECOVER    *50
 01101000 000000000620 RER1           109      *508
 40000000 000000000251 RETFR          *50
 40000000 000000210724 RFDNL          *50
 40000000 000000017644 RIM            *50
 41000000 000000000005 RNAM           *50       477
 40000000 000000015706 RNDLT          *50
 40000000 000000000662 RNG1           *50
 40000000 000000000664 RNG2           *50
 41000000 000000000073 RNGD           *50       227       245
 41000000 000000000072 RNGO           *50       223       247
 40000000 000000000660 RNGTAL         *50
 40000000 000000020154 RNM            *50
 40000000 000000000041 ROCUR          *50
 40000000 000000000001 ROFST          *50
 12:51 09/05/97  FILE=ZIM$DBST.:ZIC0TSI       SYMBOL TABLE                                               51   BMAP - B00
 40000000 000000002114 ROLL           *50
 40000000 000000020010 RPM            *50
 40000000 000000000001 RSCDH          *50
 40000000 000000000001 RSCDN          *50
 40000000 000000211710 RSDNL          *50
 40000000 000000004540 RSEE           *50
 01101000 000000000644 RSER           207      *533
 41000000 000000000003 RSIZ           *50       274       321
 40000000 000000000110 RSPAM          *50
 40000000 000000000004 RSPTR          *50
 40000000 000000000037 RSREQ          *50
 40000000 000000000002 RSSSH          *50
 41000000 000000000001 RSSSN          *50       181
 40000000 000000210574 RSZER          *50
 40000000 000000000632 RSZTP          *50
 41000000 000000000003 RTP            *50       114       211
 41000000 000000000003 RTYP           *50       112       481
 40000000 000000000530 RV1            *50
 40000000 000000000550 RV2            *50
 40000000 000000000570 RV3            *50
 40000000 000000000610 RV4            *50
 41000000 000000000003 RVASID         *48        89
 41000000 000000000510 RVI            *50       187       210       224       596       597       601
                                      627       659       663       687       701       705
 41000000 000000000511 RVO            *50       310       313       407       408       412       413
                                      460       463       470       679       682       707       711
 41000000 000000000513 RVPA           *50       719       723
 41000000 000000000512 RVT            *50        81       111       147       152       171       191
                                      229       232       249       257       260       267       300
                                      311       312       343       344       359       371       390
                                      406       409       411       414       455       461       462
                                      595       598       680       681       713       717
 40000000 000000000022 RVTAL          *50
 40000000 000000000002 RWSZ           *50
 40000000 000000000015 RY             *50
 40000000 000000210620 RYE1           *50
 40000000 000000210621 RYE4           *50
 12:51 09/05/97  FILE=ZIM$DBST.:ZIC0TSI       SYMBOL TABLE                                               52   BMAP - B00
 40000000 777777777767 SA             *50
 01101000 000000000655 SAER1          401      *577
 40000000 000000000005 SANAM          *50
 40000000 000000001062 SCDES          *50
 40000000 000000211544 SCDNL          *50
 40000000 000000000024 SCFC           *50
 40000000 000000000002 SCID           *50
 40000000 000000000024 SCLST          *50
 40000000 000000000004 SCNAM          *50
 41000000 000000000004 SCPTR          *50       116
 41000000 000000000003 SCRSH          *50       379       404       431       617       645       657
 40000000 000000000002 SCRSN          *50
 41000000 000000000001 SCWSO          *50       646
 40000000 000000001225 SFWS           *50
 01101000 000000000655 SIER1          309      *576
 40000000 000000001073 SIZCHG         *50
 40000000 000000000645 SKFLG          *50
 40000000 000000000643 SKIND          *50
 40000000 000000000641 SKTYP          *50
 01101000 000000000056 SLP1          *134       140
 40000000 000000020464 SMCR           *50
 40000000 000000000003 SNAM           *50
 40000000 000000000107 SNIND          *50
 40000000 000000000735 SNPAE          *50
 40000000 000000001046 SNSI           *50
 01101000 000000000655 SNSPC          339      *570
 40000000 000000000743 SOE            *50
 40000000 000000020630 SORSA          *50
 40000000 000000004374 SOSE           *50
 40000000 000000000000 SPAV           *50
 40000000 000000000744 SPCAVN         *50
 40000000 000000000744 SPCAVO         *50
 40000000 000000000765 SPLF           *50
 41000000 000000000765 SPND           *50
 01101000 000000000775 SPTR           671      *674
 40000000 000000000006 SSDT           *50
 40000000 000000303243 SSER           *50
 12:51 09/05/97  FILE=ZIM$DBST.:ZIC0TSI       SYMBOL TABLE                                               53   BMAP - B00
 40000000 000000303244 SSER1          *50
 40000000 000000000002 SSH            *50
 40000000 000000000005 SSNAM          *50
 40000000 000000210573 SSNF           *50
 40000000 000000210576 SSNV           *50
 40000000 000000000020 SSSPTR         *50
 40000000 000000000010 SSVDT          *50
 41000000 000000000033 SSZTP          *50       324       329       334
 40000000 000000000017 ST             *50
 40000000 000000000104 STBIN          *50
 40000000 000000000105 STDEC          *50
 41000000 000000303302 STE1           *50       525
 41000000 000000303303 STE2           *50       539
 41000000 000000210624 STE3           *50       509
 41000000 000000303305 STE4           *50       738
 41000000 000000303306 STE5           *50       534
 00101000 000000000654 STER1         *557
 41000000 000000000100 STKSIZ         *50
 01101000 000000000272 STL1          *278       286       297
 41000000 000000000055 STMASK         *50       322
 01101000 000000000656 STR1            86       506       512       517       523       528       532
                                      537       542       566       579      *583
 00101000 000000000657 STR2          *592
 41000000 000000000062 SUST           *50       738
 41000000 000000000020 SWS            *50
 40000000 000000000000 SWSAC          *50
 40000000 000000000002 SWSZ           *50
 40000000 000000000000 SYSSF          *50
 40000000 000000000765 SZREQ          *50
 41000000 000000000004 TBUF           *50       273       320       346
 40000000 000000001061 TCTRS          *50
 60000000 000000000000 TDS            *50
 41000000 000000000113 TEMP           *50
 40000000 000000000640 TFLD           *50
 40000000 000000000657 TFLD2          *50
 41000000 000000000056 TMASK          *50       113
 41000000 000000000061 TMODE          *50       468
 12:51 09/05/97  FILE=ZIM$DBST.:ZIC0TSI       SYMBOL TABLE                                               54   BMAP - B00
 40000000 000000000676 TMPPA          *50
 40000000 000000000003 TPAI           *50
 40000000 000000500000 TPRCOD         *50
 40000000 000000001031 TSFN           *50
 40000000 000000000021 TSI            *50
 40000000 000000001013 UBRD2          *50
 41000000 000000001223 UBSZ           *50
 40000000 000000000667 UCADR          *50
 01101000 000000000654 UCER1          314       464      *555
 40000000 000000000036 UCRS           *50
 40000000 000000000024 UFSPK          *50
 40000000 000000000024 UFSPK2         *50
 00101000 000000000655 ULER          *578
 40000000 000000000715 ULIM           *50
 01101000 000000000121 UMIN           157      *170
 40000000 000000004230 UNA            *50
 40000000 000000303417 UNIM           *50
 00101000 000000001034 UNL0          *700
 01101000 000000001050 UNL1           704      *706
 01101000 000000001064 UNL2           710      *712
 01101000 000000001100 UNL3           716      *718
 01101000 000000001114 UNL4           722      *724
 41000000 000000000002 UOFST          *50       144
 01101000 000000000472 UORC           385      *419
 01101000 000000000747 UORC2          623      *650
 40000000 000000001035 UPACD          *50
 40000000 000000000721 UPACW          *50
 01101000 000000000654 UPAER          447      *565
 00101000 000000000550 UPD           *459
 40000000 000000000007 UPFLAG         *50
 00101000 000000000654 UPKE1         *561
 00101000 000000000654 UPKE2         *562
 40000000 000000000103 UPPAI          *50
 01101000 000000000604 UPSNA          315       469      *487
 40000000 000000000004 UPTSID         *48
 01101000 000000000654 USRE1          491      *556
 40000000 000000000674 USTAT          *50
 12:51 09/05/97  FILE=ZIM$DBST.:ZIC0TSI       SYMBOL TABLE                                               55   BMAP - B00
 41000000 000000000002 UWASID         *48       142
 40000000 000000000002 UWSSZ          *50
 40000000 000000000020 UWSZ           *50
 40000000 000000000243 VFDSC          *50
 40000000 000000001070 VFDSR          *50
 40000000 000000000656 VFLD           *50
 40000000 000000001074 VFLNG          *50
 01101000 000000000162 VIA            123      *203
 40000000 000000001124 VIB1           *50
 40000000 000000001154 VIBP           *50
 41000000 000000000000 VLPSID         *48        88
 41000000 000000001074 VRSIZ          *50       271       328
 40000000 000000001067 WLOA           *50
 40000000 000000100000 WRTI           *50
 40000000 000000000000 WSBID          *50
 41000000 000000000003 WSOF           *50       392       629
 41000000 000000000000 X0             *48       153       184       189       196       212       233
                                      261       302       303       304       325       326       328
                                      329       331       332       391       503       510       515
                                      520       526       535       540       628       647       648
                                      669       670       672
 41000000 000000000001 X1             *48        86        97        98       102       103       104
                                      107       108       111       118       119       147       151
                                      152       171       180       183       186       191       205
                                      206       208       213       229       231       232       249
                                      257       259       260       267       270       271       274
                                      284       285       288       289       290       293       296
                                      300       309       314       339       343       344       347
                                      354       359       371       374       390       399       401
                                      410       423       427       436       439       440       441
                                      443       445       446       447       455       464       470
                                      481       482       483       484       485       486       489
                                      491       594       611       612       614       615       627
                                      633       634       635       640       642       646       662
                                      677       683       691       692       693       698       699
                                      704       705       710       711       716       717       722
                                      723
 12:51 09/05/97  FILE=ZIM$DBST.:ZIC0TSI       SYMBOL TABLE                                               56   BMAP - B00
 41000000 000000000002 X2             *48       392       468       629
 41000000 000000000003 X3             *48       160       161       163       187       210       214
                                      215       217       224       236       237       239       343
                                      455       601       659       663       687       701       705
                                      707       711       713       717       719       723
 41000000 000000000004 X4             *48       133       135       154       181       182       185
                                      197       234       262       279       280       282       294
 41000000 000000000005 X5             *48       204       363       364       366       373       396
                                      397       403       430       435       438       605       606
                                      608       610       637       638       644
 41000000 000000000006 X6             *48       179       379       404       405       431       432
                                      433       504       511       516       521       527       531
                                      536       541       617       645       657       658       668
 03201036 000000000000 X66_ARET       *48       495
 03201035 000000000000 X66_AUTO_0     *48        79
 41000000 000000000007 X7             *48        93        94       115       230       258       268
                                      269       301       360       361       471       505       522
                                      602       603       661       690
 40000000 000000210665 XASL           *50
 40000000 000000303420 XLD            *50
 40000000 000000303421 XPD            *50
 41000000 000000000676 XPRS           *50       397       403       638       644
 40000000 000000210666 XROLL          *50
 40000000 000000210664 XUNEX          *50
 40000000 777777777777 XXDPN          *50
 03201034 000000000000 ZIB$CLRRECOVER           *46       489       594
 03201039 000000000000 ZIB$DBALT     *738
 03201038 000000000000 ZIB$DBALTO    *728
 03201037 000000000000 ZIB$DBALTR    *583
 03201033 000000000000 ZIB$FPTRECOVER           *45        86
 03201000 000000000000 ZIG$DBAF       *13       208       427
 03201001 000000000000 ZIG$DBAKU      *14       443
 03201002 000000000000 ZIG$DBECK      *15       296
 03201005 000000000000 ZIG$DBGRS      *18       180       662
 03201009 000000000000 ZIG$DBPDR      *22       699
 03201013 000000000000 ZIG$DBPFD      *26       423
 03201014 000000000000 ZIG$DBPFI      *27       445
 12:51 09/05/97  FILE=ZIM$DBST.:ZIC0TSI       SYMBOL TABLE                                               57   BMAP - B00
 03201015 000000000000 ZIG$DBPFP      *28       677
 03201016 000000000000 ZIG$DBPFS      *29       339
 03201017 000000000000 ZIG$DBPMK      *30       293
 03201018 000000000000 ZIG$DBPMS      *31       *32       183       436
 12101000 000000000000 ZIG$DBSTO       11       *78
 03201022 000000000000 ZIG$DBUPD      *34       314       464
 03201028 000000000000 ZIG$DBUPP      *40       447
 03201029 000000000000 ZIG$DBUSR      *41       491
 03201030 000000000000 ZIG$DBXKU      *42       399       640
 03201019 000000000000 ZIM$DBPLK      *33       343
 02201021 000000000000 ZIM$DBPMR      *33
 03201020 000000000000 ZIM$DBPUL      *33       455       705       711       717       723
 02201025 000000000000 ZIM$IDEL       *37
 03201027 000000000000 ZIM$ISTO       *39       309
 03201012 000000000000 ZIM$JDEL       *25       698
 03201011 000000000000 ZIM$JSTO       *24       354
 03201023 000000000000 ZIM$KCURR      *35       410
 03201024 000000000000 ZIM$KDEL       *36       642
 03201026 000000000000 ZIM$KSTO       *38       401
 03201007 000000000000 ZIM$PCON       *20       446
 03201008 000000000000 ZIM$PCONO      *21       374
 03201010 000000000000 ZIM$PDIS       *23       683
 03201031 000000000000 ZIM$TRACE      *43       486
 03201032 000000000000 ZIO$DBBCC      *44       704       710       716       722
 03201003 000000000000 ZIQ$DBFCH      *16       186
 03201004 000000000000 ZIQ$DBGRC      *17       213
 03201006 000000000000 ZIQ$DBMAS      *19       151       231       259

    1047 SYMBOLS

 12:51 09/05/97  FILE=ZIM$DBST.:ZIC0TSI       MACRO TABLE                                                58   BMAP - B00
 CBSYM           50
 DBALT          583
 DBALTO         728
 DBCAL           86       151       180       183       186       208       213       231       259
                293       296       309       314       339       343       354       374       399
                401       410       423       427       436       443       445       446       447
                464       486       489       491       594       640       642       662       677
                683       698       699       704       710       716       722
 DBREC          738
 DBRET          495
 DBSAV           79
 ICCAL          151       186       213       231       259       447       464
 LOCK           343
 Q2SYM           50
 SSSYM           50
 UNLOCK         455       705       711       717       723

      37 MACROS

    SYMBOL SPACE USED 11789 WORDS
     MACRO SPACE USED 13055 WORDS
   INPUT RECORDS READ  3280
 STATEMENTS PROCESSED  3364
         ELAPSED TIME  0:16.72
             CPU TIME    16.10 SEC.
        ASSEMBLY RATE 12537 STATEMENTS/CPU MIN.

      NO ERRORS

