
 12:51 09/05/97  FILE=ZIM$DBUC.:ZIC0TSI                                                                  1    BMAP - B00
                                         1  *M*      ZIG$DBUC
                                         2  *T***********************************************************
                                         3  *T*                                                         *
                                         4  *T* Copyright (c) Bull HN Information Systems Inc., 1997    *
                                         5  *T*                                                         *
                                         6  *T***********************************************************

 12:51 09/05/97  FILE=ZIM$DBUC.:ZIC0TSI       H6600H2.526     IDS/II UPDATE CURRENCIES       780206DBUC  2    BMAP - B00
                                         7         TTL     H6600H2.526     IDS/II UPDATE CURRENCIES       780206DBUC
                                         8         CPR     1974
                                         9         PMC     OFF
                                        10  *
                                        11         ENTDEF  ZIG$DBUPC
                                        12         ENTDEF  ZIG$DBUPD
                                        13         ENTDEF  ZIG$DBUPP
                                        14         ENTDEF  ZIG$DBUSR
                                        15  *
                                        16        ENTREF   ZIM$REDUCEQ
                                        17         LODM    Q2MA
                                        18  *
                                        19         Q2SYM
                                        20  *

 12:51 09/05/97  FILE=ZIM$DBUC.:ZIC0TSI       UPDATE CURRENCIES                                          3    BMAP - B00
                                        21         TTLS    UPDATE CURRENCIES
                                        22  *
                                        23  ****************************************************************
                                        24  *
                                        25  *  - DBUPC -
                                        26  *
                                        27  *      Update Currencies for:
                                        28  *
                                        29  *              Current of Run
                                        30  *              Current of Record Type
                                        31  *              Current of Area
                                        32  *              Current of Sets
                                        33  *
                                        34  *      Calling
                                        35  *
                                        36  *                 ICCAL    ZIG$DBUPC,,ALTRET
                                        37  *
                                        38  *      Considerations
                                        39  *
                                        40  *              Note that no exception return is possible from
                                        41  *              this subroutine.  Should an error return be
                                        42  *              executed, the error code will be in the
                                        43  *              A register.
                                        44  *
                                        45  *      Input
                                        46  *           FROM GLOBAL.PARAM.RLCW
                                        47  *
                                        48  *              AU - Offset to the start of the Retention
                                        49  *                   List in the FPT.  (FPT is assumed to
                                        50  *                   be the second parameter on the parameter
                                        51  *                   stack.
                                        52  *
                                        53  *              AL - Retention List Control Word
                                        54  *
                                        55  *                   If Bit 18 = 1 Retain Currencies for AREA
                                        56  *                   If Bit 19 = 1 Retain Currencies for SETS
                                        57  *                   If Bit 20 = 1 Retain Currencies for the
 12:51 09/05/97  FILE=ZIM$DBUC.:ZIC0TSI       UPDATE CURRENCIES                                          4    BMAP - B00
                                        58  *                      RECORD TYPE.
                                        59  *                   Bits 28-35 Contains the count of the
                                        60  *                   entries in the Retention List.
                                        61  *
                                        62  *      Output
                                        63  *
                                        64  *              DBK of current record
                                        65  *              Offset to buffer containing the record
                                        66  *              RC pointer for the record
                                        67  *              Record Type
                                        68  *              AC pointer
                                        69  *
                                        70  ****************************************************************
                                        71  *
 0 000000                               72  ZIG$DBUPC NULL
   000000    7 00470 7411 56            73           ICSAV
   000001    000000 6210 00             74         EAX     X1,0            SET INDICATOR TO UPDATE PA OFSTS
   000002 (0)000005 7100 00             75         TRA     CITDS
   000003                               76  ZIG$DBUPD NULL
   000003    7 00470 7411 56            77           ICSAV
   000004    000001 6210 00             78         EAX     X1,1            SET INDICATOR TO NOT UPDATE PA OFSTS
   000005                               79  CITDS  NULL
   000005    5 00025 2351 00            80           LDA      GRLCW,,PR5           Get RLCW for this call
   000006    7 00103 4411 00            81         SXL     X1,UPPAI,,PR7   SAVE INDICATOR
   000007    7 00511 2221 00            82         LDX     X2,RVO,,PR7     SET X2 TO REC VAR OUT
                                        83  *  MARK RVO AS CURR OF RUN
   000010    000001 6210 00             84         EAX     X1,1
   000011    7 00511 4411 00            85         SXL     X1,RVO,,PR7     SET RVO LOWER TO NON-ZERO
                                        86  *  GET DBK & RC PTR
   000012    7 00000 2361 12            87         LDQ     DBKEY,X2,PR7    GET DBK FROM REC VAR
   000013    7 00006 2271 12            88         LDX     X7,RCPTR,X2,PR7  GET RC PTR
                                        89  *  SAVE CURRENT OF RUN
   000014    000002 4714 07             90         LDP    PR1,UWASID,DL            UWA$
   000015    1 00036 7561 00            91         STQ    DBDR,,PR1                PUT DBK IN DIRECT REFRENCE
   000016    7 01223 7561 00            92         STQ     CRUN,,PR7
   000017    7 01224 7471 00            93         STX     X7,CRUN+1,,PR7  SAVE RC PTR FOR CURR OF RUN
                                        94  *  SAVE CURRENT OF AREA
 12:51 09/05/97  FILE=ZIM$DBUC.:ZIC0TSI       UPDATE CURRENCIES                                          5    BMAP - B00
   000020    400000 3150 07             95         CANA    .B18,DL         IS CURRENT OF AREA TO BE RETAINED
   000021 (0)000027 6010 00             96         TNZ     ADON
   000022    7 00005 2201 12            97         LDX     X0,ACPTR,X2,PR7  GET AC PTR
   000023    6 00003 2211 10            98         LDX     X1,WSOF,X0,PR6  GET WORK SPACE OFFSET
   000024    7 00001 7561 11            99         STQ     CURR,X1,PR7     SAVE DBK AS CURRENT
   000025    377777 2200 03            100         LDX     X0,=O377777,DU
   000026    7 00000 3401 11           101         ANSX    X0,.CAE,X1,PR7  TURN OFF CURR IS ERASED INDICATOR
   000027                              102  ADON   NULL
                                       103  *  SAVE CURRENT OF REC TYPE
   000027    100000 3150 07            104         CANA    .B20,DL         IS CURRENT OF RECORD TO BE RETAINED
   000030 (0)000033 6010 00            105         TNZ     RDON            YES
   000031    6 00004 2211 17           106         LDX     X1,RCWSO,X7,PR6  GET WORK SPACE OFST
   000032    7 00001 7561 11           107         STQ     CURR,X1,PR7     SAVE DBK AS CURRENT
   000033                              108  RDON   NULL
                                       109  *  SAVE CURRENT OF SETS
   000033    200000 3150 07            110         CANA    .B19,DL         IS CURRENT OF SETS TO BE RETAINED
   000034 (0)000144 6010 00            111         TNZ     SDON            YES
   000035    7 00024 4501 00           112         STZ     SCLST,,PR7      INIT SC LIST COUNT
   000036    000377 3150 07            113         CANA    =O377,DL        ANY SC'S IN LIST
   000037 (0)000041 6000 00            114         TZE     NOSC            NO
   000040    7 00024 7551 00           115         STA     SCLST,,PR7      SAVE ADDR OF LST
   000041                              116  NOSC   NULL
   000041    000000 6250 17            117         EAX     X5,,X7          INIT X5
   000042                              118  LOOP1  NULL
   000042    6 00002 7251 15           119         LXL     X5,RCRSN,X5,PR6  GET NEXT RS DEF
   000043 (0)000144 6000 00            120         TZE     SDON            NO - DONE
   000044    6 00003 7261 15           121         LXL     X6,SCRSH,X5,PR6  GET SC DEF
   000045    6 00000 2351 16           122         LDA     DEF,X6,PR6      GET SET TYPE
   000046    000700 3750 07            123         ANA     .SETT,DL        ISOLATE
   000047    000200 1150 07            124         CMPA    =O200,DL        IS IT AN SC FOR A PRIME KEY
   000050 (0)000042 6000 00            125         TZE     LOOP1           YES - SKIP
   000051    000300 1150 07            126         CMPA    =O300,DL        IS IT AN SC FOR A SECONDARY KEY
   000052 (0)000042 6000 00            127         TZE     LOOP1           YES - SKIP
   000053    7 00024 7201 00           128         LXL     X0,SCLST,,PR7        Get count of elements in SC list
   000054    000377 3600 03            129         ANX     X0,=O377,DU          AND out control bits
   000055 (0)000067 6000 00            130         TZE     UPS                  B/ If count=0; i.e., No SC list
   000056    7 00024 2211 00           131         LDX     X1,SCLST,,PR7        Get offset to Retention List in FPT
 12:51 09/05/97  FILE=ZIM$DBUC.:ZIC0TSI       UPDATE CURRENCIES                                          6    BMAP - B00
   000057    000000 4704 07            132         LDP    PR0,VLPSID,DL            VLP$
   000060    000003 4714 07            133           LDP      PR1,RVASID,DL           RVA$
   000061                              134  LOOP1A NULL
   000061    0 00000 2231 11           135         LDX     X3,,X1,PR0           Get offset to SC from SC list
   000062    1 00000 1061 13           136           CMPX     X6,,X3,PR1           Is SC in the retention list
   000063 (0)000042 6000 00            137         TZE     LOOP1                B/ If it is.
   000064    000001 0210 03            138         ADLX    X1,1,DU              Increment offset into SC list
   000065    000001 1200 03            139         SBLX    X0,1,DU              Decrement count of SC list items
   000066 (0)000061 6010 00            140         TNZ     LOOP1A               B/ Until through Retention List
   000067                              141  UPS    NULL
                                       142  *  UPDATE CURRENCY FOR SET OWNER
                                       143  *  UPDATE CURRENCY FOR SET MEMBER
                                       144  *    IF REC IS OPTIONAL OR MANUAL AND NOT CURRENTLY A MEMBER OF THE
                                       145  *    SET - CURRENCY IS NOT UPDATED FOR THE SET
   000067    6 00000 2351 15           146         LDA     DEF,X5,PR6      GET DEF FROM RS
   000070    140000 3150 07            147         CANA    .MSM+.OSM,DL    IS IT MANUAL OR OPTIONAL
   000071 (0)000100 6000 00            148         TZE     NMOM            NO - GO AHEAD
   000072    7 00002 4735 12           149         LDP     PR3,RADDR,X2,PR7     PR3->Record
   000073    000 1 100 1015 20         150         MRL     (1,,1),(1),0,1  * MOVE
   000074    6 00004 0001 15           151         ARG     NPOS,X5,PR6     *  NEXT PTR TO
   000075    7 00061 0 0 0 0004        152         ADSC9   ITPTR,0,4,PR7        Work Space
   000076    7 00061 2341 00           153         SZN     ITPTR,,PR7      IS REC CURRENTLY A MEMBER
   000077 (0)000042 6000 00            154         TZE     LOOP1           NO - DON'T UPDATE CURRENCY
   000100                              155  NMOM   NULL
   000100    6 00001 2211 16           156         LDX     X1,SCWSO,X6,PR6  GET WORK SPC OFST
   000101    7 00001 7561 11           157         STQ     CURR,X1,PR7     SAVE DBK AS CURRENT
   000102    7 00005 2201 12           158           LDX      X0,ACPTR,X2,PR7      Get AC descriptor
   000103    7 00000 4401 11           159           SXL      X0,SWSAC,X1,PR7      Save in set work space
   000104    377777 2200 03            160         LDX     X0,=O377777,DU
   000105    7 00000 3401 11           161         ANSX    X0,.CSE,X1,PR7  TURN OFF CURR IS ERASED INDICATOR
                                       162  *  IF SET IS A PA SET, NEED TO UPDATE PA RECORD INFO IN SET CURRENCY
   000106    6 00000 2201 16           163         LDX     X0,DEF,X6,PR6   GET SET MODE
   000107    000070 3600 03            164         ANX     X0,.SETM,DU     ISOLATE
   000110    000020 1000 03            165         CMPX    X0,=O20,DU      IS IT POINTER ARRAY
   000111 (0)000042 6010 00            166         TNZ     LOOP1           NO - GO HANDLE NEXT SET
   000112    6 00000 2201 15           167         LDX     X0,DEF,X5,PR6
   000113    010000 3000 03            168         CANX    X0,.SO,DU       IS IT A SET OWNER
 12:51 09/05/97  FILE=ZIM$DBUC.:ZIC0TSI       UPDATE CURRENCIES                                          7    BMAP - B00
   000114 (0)000120 6000 00            169         TZE     SETM            NO
   000115    7 00002 4501 11           170         STZ     CBENO,X1,PR7    YES - ZERO PA ENTRY & PTR OFSTS IN SET WS
   000116    7 00003 4501 11           171         STZ     CBCPA,X1,PR7    ZERO DBK OF OWNER PA RECORD IN SET WS
   000117 (0)000042 7100 00            172         TRA     LOOP1
   000120                              173  SETM   NULL
   000120    7 00002 4735 12           174         LDP     PR3,RADDR,X2,PR7     PR3->Record
   000121    000 1 100 1015 20         175         MRL     (1,,1),(1),0,1     * MOVE
   000122    6 00004 0001 15           176         ARG     CSPAH,X5,PR6       *  DBK OF OWNER PA REC
   000123    7 00061 0 0 0 0004        177         ADSC9   ITPTR,0,4,PR7        To Work Space
   000124    7 00061 2351 00           178         LDA     ITPTR,,PR7      GET PTR
   000125    6 00000 7201 16           179         LXL     X0,DEF,X6,PR6   GETT DEF FROM SC
   000126    001000 3000 03            180         CANX    X0,.LG,DU       IS IT A GLOBAL SET
   000127 (0)000132 6010 00            181         TNZ     SVDBK           YES - DONT ADJUST
   000130    7 00005 2201 12           182         LDX     X0,ACPTR,X2,PR7  GET AC
   000131    6 00002 0351 10           183         ADLA    ABAS,X0,PR6     MAKE PTR GLOBAL DBK
   000132                              184  SVDBK  NULL
   000132    7 00003 7551 11           185         STA     CBCPA,X1,PR7    SAVE DBK OF OWNER PA IN SET WS
   000133    7 00103 7201 00           186         LXL     X0,UPPAI,,PR7   SHOULD PA ENTRY & PTR OFSTS BE UPDATED
   000134 (0)000042 6010 00            187         TNZ     LOOP1           NO
   000135    7 00015 1151 12           188         CMPA    CBRPA,X2,PR7    IS DBK OF PA REC IN RVO CORRECT
   000136 (0)000141 6000 00            189         TZE     *+3             YES-GET PA ENTRY & PTR OFSTS FROM RVO
   000137    000000 6350 00            190         EAA     0               NO - SET PA ENTRY & PTR OFSTS TO ZERO
   000140 (0)000142 7100 00            191         TRA     *+2
   000141    7 00014 2351 12           192         LDA     CBRCE,X2,PR7
   000142    7 00002 7551 11           193         STA     CBENO,X1,PR7    SAVE PA ENTRY & PTR OFSTS IN SET WS
   000143 (0)000042 7100 00            194         TRA     LOOP1           GO TO NEXT RS DEF
   000144                              195  SDON   NULL
                                       196  *
                                       197  *     ALL CURRENCIES HAS BEEN UPDATED
                                       198  *     NOW, IF THE CURR OF RUN BELONGS TO A CURRENCY ONLY AREA
                                       199  *     WE SHALL CALL ZIM$REDUCEQ TO DEQ THOSE PAGES THAT DO NOT
                                       200  *     OWN ANY CURRENCIES.  AND ALSO MARK CURRENCY PAGES SO THAT
                                       201  *     LATER ON, IF A BUFFER GETS SWAPPED OUT IN ORDER TO READ IN
                                       202  *     A PAGE FOR CURR ONLY AREA, WE CAN CHECK THE ENQ LIST TO DEQ
                                       203  *     ANY NON-CURR PAGE AGAIN.
                                       204  *
   000144    7 00005 2201 12           205        LDX     X0,ACPTR,X2,PR7     GET AC
 12:51 09/05/97  FILE=ZIM$DBUC.:ZIC0TSI       UPDATE CURRENCIES                                          8    BMAP - B00
   000145    6 00003 2211 10           206        LDX     X1,WSOF,X0,PR6      GET AWS
   000146    7 00000 2231 11           207        LDX     X3,0,X1,PR7         1ST HALF WORD IN AWS
   000147    200000 3630 03            208        ANX     X3,=O200000,DU         CHECK THE AWS.CURONLY BIT
   000150 (0)000155 6000 00            209        TZE     RET                 CRUN IS NOT IN CURR ONLY AREA
   000151  X 000000 7010 00            210        DBCAL   ZIM$REDUCEQ,,UCER    SHOULD NEVER ALTRETURNED
   000152 (0)000160 7020 00
   000153    5 00006 2341 00
   000154    777776 6010 04
   000155                              211  RET   NULL
   000155    7 00470 2211 54           212           ICRET
   000156    000001 7100 11
                                       213  *
                                       214  *  ERRORS DETECTED IN SUBORDINATE ROUTINES
                                       215  *
   000157 (0)000160 7100 00            216         TRA     UCER
                                       217  *
                                       218  *  COMMON ERROR RETURN
                                       219  *
   000160                              220  UCER   NULL
   000160  X 000000 7020 00            221           ICALT

 12:51 09/05/97  FILE=ZIM$DBUC.:ZIC0TSI       UPDATE CURRENT OF KEY                                      9    BMAP - B00
                                       222         TTLS    UPDATE CURRENT OF KEY

 12:51 09/05/97  FILE=ZIM$DBUC.:ZIC0TSI       UPDATE POINTER ARRAY OFFSETS                               10   BMAP - B00
                                       223         TTLS    UPDATE POINTER ARRAY OFFSETS
                                       224  *
                                       225  ****************************************************************
                                       226  *
                                       227  *  - DBUPP -
                                       228  *
                                       229  *      This subroutine will update the pointer array entry and
                                       230  *      pointer offsets in the set currency workspace if the
                                       231  *      set is a pointer array set and the currency is not to be
                                       232  *      retained.
                                       233  *
                                       234  *      Calling
                                       235  *
                                       236  *              DBCAL   ZIG$DBUPP,,altret
                                       237  *
                                       238  *      Considerations
                                       239  *
                                       240  *              Note that no exception return is possible
                                       241  *              from this subroutine.
                                       242  *
                                       243  *      Input
                                       244  *
                                       245  *              RVT  - PA record entry offset
                                       246  *                     PA record pointer offset
                                       247  *              PRSC - SC pointer
                                       248  *              PRSS - RS pointer
                                       249  *           GLOBAL.PARAM.RLCW - Retention list control word
                                       250  *                     AU - Offset to retention list in FPT
                                       251  *                     AL - Number of entries in the retention
                                       252  *                          list.
                                       253  *
                                       254  ****************************************************************
                                       255  *
   000161                              256  ZIG$DBUPP NULL
   000161    7 00470 7411 56           257           ICSAV
   000162    5 00025 2351 00           258           LDA      GRLCW,,PR5           Get RLCW for this call
                                       259  *  CHECK IF SET IS A POINTER ARRAY SET
 12:51 09/05/97  FILE=ZIM$DBUC.:ZIC0TSI       UPDATE POINTER ARRAY OFFSETS                               11   BMAP - B00
   000163    7 00520 2261 00           260         LDX     X6,PRSC,,PR7    GET SC PTR FOR SET TO UPDATE
   000164    6 00000 2201 16           261         LDX     X0,DEF,X6,PR6   GET SET MODE
   000165    000070 3600 03            262         ANX     X0,.SETM,DU     ISOLATE
   000166    000020 1000 03            263         CMPX    X0,=O20,DU      IS IT POINTER ARRAY
   000167 (0)000216 6010 00            264         TNZ     UPPRT           NO - RETURN
                                       265  *  SET IS A PA SET.  NOW CHECK IF SET CURRENCY IS TO BE RETAINED
   000170    200000 3150 07            266         CANA    .B19,DL         IS CURRENT OF ALL SETS TO BE RETAINED
   000171 (0)000216 6010 00            267         TNZ     UPPRT           YES - RETURN
   000172    7 00024 4501 00           268         STZ     SCLST,,PR7      INIT SC LIST COUNT
   000173    000377 3150 07            269         CANA    =O377,DL        ANY SC'S IN LIST
   000174 (0)000212 6000 00            270         TZE     UPSET           NO
   000175    7 00024 7551 00           271         STA     SCLST,,PR7      SAVE ADDR OF LIST
   000176    000000 6200 05            272         EAX     X0,,AL               Get count of elements in SC list
   000177    000377 3600 03            273         ANX     X0,=O377,DU          AND out control bits
   000200    7 00516 2251 00           274         LDX     X5,PRSS,,PR7         Set X5 = RS pointer for record in set
   000201    7 00024 2211 00           275         LDX     X1,SCLST,,PR7        Get offset to Retention List in FPT
   000202    000000 4704 07            276         LDP    PR0,VLPSID,DL            VLP$
   000203    000003 4714 07            277           LDP      PR1,RVASID,DL           RVA$
   000204                              278  LOOP2A NULL
   000204    0 00000 2231 11           279           LDX      X3,,X1,PR0           Get offset to SC pointer
   000205    1 00000 1061 13           280           CMPX     X6,,X3,PR1           Is SC in the retention list
   000206 (0)000216 6000 00            281         TZE     UPPRT                B/ If it is.
   000207    000001 0210 03            282         ADLX    X1,1,DU              Increment offset into SC List
   000210    000001 1200 03            283         SBLX    X0,1,DU              Decrement count of SC List elements
   000211 (0)000204 6010 00            284         TNZ     LOOP2A               B/ Until through Retention List
                                       285  *  THIS SET CURRENCY NOT TO BE RETAINED - UPDATE PA ENTRY
                                       286  *  AND POINTER OFFSETS.
   000212                              287  UPSET  NULL
   000212    7 00512 2211 00           288         LDX     X1,RVT,,PR7
   000213    7 00014 2351 11           289         LDA     CBRCE,X1,PR7    GET ENTRY AND PTR OFFSETS FROM RVT
   000214    6 00001 2211 16           290         LDX     X1,SCWSO,X6,PR6
   000215    7 00002 7551 11           291         STA     CBENO,X1,PR7    SAVE IN SET WS FOR PA SET
   000216                              292  UPPRT  NULL
   000216    7 00470 2211 54           293           ICRET
   000217    000001 7100 11

 12:51 09/05/97  FILE=ZIM$DBUC.:ZIC0TSI       UPDATE SPECIAL REGS                                        12   BMAP - B00
                                       294         TTLS    UPDATE SPECIAL REGS
                                       295  *
                                       296  ****************************************************************
                                       297  *
                                       298  *  - DBUSR -
                                       299  *
                                       300  *      Update Special Registers
                                       301  *
                                       302  *      Move area name and record name to special registers.
                                       303  *
                                       304  *      Calling
                                       305  *
                                       306  *              DBCAL    ZIG$DBUSR
                                       307  *
                                       308  *      Considerations
                                       309  *
                                       310  *              Note that neither an exception return or an
                                       311  *              alternate return is possible from this
                                       312  *              subroutine.
                                       313  *
                                       314  *      Input
                                       315  *
                                       316  *              RVO - RC pointer
                                       317  *                    AC pointer
                                       318  *
                                       319  *      Output
                                       320  *
                                       321  *              (None.)
                                       322  *
                                       323  ****************************************************************
                                       324  *
   000220                              325  ZIG$DBUSR NULL
   000220  X 000000 7000 00            326         DBSAV
   000221    000004 000000
   000222    7 00511 2221 00           327         LDX     X2,RVO,,PR7
                                       328  *  MOVE AREA NAME
   000223    7 00005 2361 12           329         LDQ     ACPTR,X2,PR7    GET AC OFST
 12:51 09/05/97  FILE=ZIM$DBUC.:ZIC0TSI       UPDATE SPECIAL REGS                                        13   BMAP - B00
   000224    5 00010 5521 60           330           STBQ     GRETAC,60,PR5        Put in AC ptr for spec regs.
   000225    6 00000 2351 02           331         LDA     DEF,QU,PR6      GET LENGTH OF AREA NAME
   000226    000077 3750 07            332         ANA     .ANL,DL         ISOLATE
   000227    777777 3760 03            333         ANQ     -1,DU
   000230    000002 7360 00            334         QLS     2               MAKE AC OFST BYTES
   000231    000002 4714 07            335         LDP    PR1,UWASID,DL            UWA$
   000232    040 1 100 1005 42         336         MLR     (1,1,,QU),(1),040,1 * MOVE
   000233    6 00026 0 0 0 0005        337         ADSC9   ANAM,0,A,PR6         From Schema Subset
   000234    1 00003 0 0 0 0036        338         ADSC9  DBAN,0,30,PR1                 TO UWA
                                       339  *  MOVE RECORD NAME
   000235    7 00006 2361 12           340         LDQ     RCPTR,X2,PR7    GET RC OFST
   000236    5 00013 5521 60           341           STBQ     GRETRC,60,PR5        Put in RC ptr for spec regs.
   000237    6 00000 2351 02           342         LDA     DEF,QU,PR6      GET LENGTH OF REC NAME
   000240    000077 3750 07            343         ANA     .ANL,DL         ISOLATE
   000241    777777 3760 03            344         ANQ     -1,DU
   000242    000002 7360 00            345         QLS     2               MAKE AC OFST BYTES
   000243    040 1 100 1005 42         346         MLR     (1,1,,QU),(1),040,1 * MOVE
   000244    6 00005 0 0 0 0005        347         ADSC9   RNAM,0,A,PR6         From Schema Subset
   000245    1 00023 0 0 0 0036        348         ADSC9  DBRN,0,30,PR1                 TO UWA
                                       349  *  RETURN
   000246  X 000000 7020 00            350         DBRET
                                       351         END

  CONTROL SECTION TABLE

   0 CODE   EVEN  000247
   1 RODATA EVEN  000000 LITERALS

 12:51 09/05/97  FILE=ZIM$DBUC.:ZIC0TSI       SYMBOL TABLE                                               14   BMAP - B00
 40000000 000000200000 .AC            *19
 40000000 000000000100 .AG            *19
 40000000 000000002000 .ALTO          *19
 41000000 000000000077 .ANL           *19       332       343
 40000000 000000200000 .APDN          *19
 40000000 000000000100 .ATMP          *19
 40000000 000000400000 .AV            *19
 40000000 000000400000 .B0            *19
 40000000 000000200000 .B1            *19
 40000000 000000000200 .B10           *19
 40000000 000000000100 .B11           *19
 40000000 000000000040 .B12           *19
 40000000 000000000020 .B13           *19
 40000000 000000000010 .B14           *19
 40000000 000000000004 .B15           *19
 40000000 000000000002 .B16           *19
 40000000 000000000001 .B17           *19
 41000000 000000400000 .B18           *19        95
 41000000 000000200000 .B19           *19       110       266
 40000000 000000100000 .B2            *19
 41000000 000000100000 .B20           *19       104
 40000000 000000040000 .B21           *19
 40000000 000000020000 .B22           *19
 40000000 000000010000 .B23           *19
 40000000 000000004000 .B24           *19
 40000000 000000002000 .B25           *19
 40000000 000000001000 .B26           *19
 40000000 000000000400 .B27           *19
 40000000 000000000200 .B28           *19
 40000000 000000000100 .B29           *19
 40000000 000000040000 .B3            *19
 40000000 000000000040 .B30           *19
 40000000 000000000020 .B31           *19
 40000000 000000000010 .B32           *19
 40000000 000000000004 .B33           *19
 40000000 000000000002 .B34           *19
 40000000 000000000001 .B35           *19
 12:51 09/05/97  FILE=ZIM$DBUC.:ZIC0TSI       SYMBOL TABLE                                               15   BMAP - B00
 40000000 000000020000 .B4            *19
 40000000 000000010000 .B5            *19
 40000000 000000004000 .B6            *19
 40000000 000000002000 .B7            *19
 40000000 000000001000 .B8            *19
 40000000 000000000400 .B9            *19
 40000000 000000000001 .BREAK         *19
 40000000 000000010000 .BRK           *19
 40000000 000000020000 .BTB           *19
 40000000 000000000001 .CAC           *19
 41000000 000000000000 .CAE           *19       101
 40000000 000000000200 .CANSSS        *19
 40000000 000000000400 .CD            *19
 40000000 000000040000 .CFLC          *19
 40000000 000000400000 .CHKSUM        *19
 40000000 000000100000 .CJRNL         *19
 40000000 000000000077 .CNSZ          *19
 40000000 000000160000 .COMC          *19
 40000000 000000000020 .CONT          *19
 41000000 000000000000 .CSE           *19       161
 40000000 000000700000 .CTYP          *19
 41000000 000000000270 .DBEST         *19
 41000000 000000000470 .DBIC          *19        73        77       212       257       293
 40000000 000000077777 .DBPT          *19
 41000000 000000000370 .DBSTK         *19
 40000000 000000020000 .DELM          *19
 40000000 000000002000 .DIDP          *19
 40000000 000000000077 .DNDX          *19
 40000000 000000600000 .DORD          *19
 40000000 000000000200 .DP            *19
 40000000 000000100000 .DPS           *19
 40000000 000000200000 .DPSA          *19
 40000000 000000400000 .DPST          *19
 40000000 000000000002 .DUMP          *19
 40000000 000000002000 .DUPC          *19
 40000000 000000010000 .DUPP          *19
 40000000 000000200000 .EBCL          *19
 12:51 09/05/97  FILE=ZIM$DBUC.:ZIC0TSI       SYMBOL TABLE                                               16   BMAP - B00
 40000000 000000400000 .EBCM          *19
 40000000 000000200000 .ENCRP         *19
 40000000 000000000077 .ENDX          *19
 40000000 000000000400 .ENQ           *19
 40000000 000000004000 .ETC           *19
 40000000 000000000400 .EXIT          *19
 40000000 000000000200 .FMOD          *19
 40000000 000000000077 .FNL           *19
 40000000 000000000074 .FORG          *19
 40000000 000000002000 .FR            *19
 40000000 000000000100 .FSR           *19
 40000000 000000003400 .FUSE          *19
 40000000 000000010000 .FVF           *19
 40000000 000000040000 .FVR           *19
 40000000 000000000010 .INDEXED       *19
 40000000 000000777777 .IXID          *19
 40000000 000000001777 .IXNUM         *19
 40000000 000000000004 .KEYED         *19
 40000000 000000010000 .LCK           *19
 40000000 000000400000 .LEIL          *19
 41000000 000000001000 .LG            *19       180
 40000000 000000000002 .LOAD          *19
 40000000 000000020000 .MAR           *19
 40000000 000000000007 .MEMT          *19
 40000000 000000010000 .MRL           *19
 41000000 000000040000 .MSM           *19       147
 60000000 000000000001 .N6685         *19
 40000000 000000100000 .NAI           *19
 40000000 000000200000 .NBI           *19
 40000000 000000000002 .NCIA          *19
 40000000 000000040000 .NMV           *19
 40000000 000000017777 .NOENT         *19
 40000000 000000400000 .OA            *19
 40000000 000000740000 .OPEV          *19
 41000000 000000100000 .OSM           *19       147
 40000000 000000100000 .PAFIL         *19
 40000000 000000200000 .PAHVR         *19
 12:51 09/05/97  FILE=ZIM$DBUC.:ZIC0TSI       SYMBOL TABLE                                               17   BMAP - B00
 40000000 000000000001 .PAIA          *19
 40000000 000000040000 .PALIL         *19
 40000000 000000020000 .PALVR         *19
 40000000 000000400000 .PANLL         *19
 40000000 000000400000 .PCKD          *19
 40000000 000000001600 .PMOD          *19
 40000000 000000000520 .PRCSE         *19
 40000000 000000000007 .PSTO          *19
 40000000 000000006040 .PTAS          *19
 40000000 000000010100 .PTCHK         *19
 40000000 000000010200 .PTDEC         *19
 40000000 000000010140 .PTENC         *19
 40000000 000000020000 .RA            *19
 40000000 000000100000 .RC            *19
 40000000 000000400000 .RELEASE       *19
 40000000 000000000017 .RELT          *19
 40000000 000000004000 .RERA          *19
 40000000 000000400000 .RERS          *19
 40000000 000000010000 .RKEY          *19
 40000000 000000000077 .RNL           *19
 40000000 000000200000 .RSTO          *19
 40000000 000000007777 .RTYP          *19
 40000000 000000040000 .SC            *19
 41000000 000000000070 .SETM          *19       164       262
 40000000 000000740000 .SETO          *19
 41000000 000000000700 .SETT          *19       123
 40000000 000000040000 .SFNP          *19
 40000000 000000004000 .SM            *19
 40000000 000000020000 .SMOD          *19
 40000000 000000000077 .SNL           *19
 40000000 000000020000 .SNSS          *19
 41000000 000000010000 .SO            *19       168
 40000000 000000100000 .SR            *19
 40000000 000000004000 .SRCR          *19
 40000000 000000001000 .SS            *19
 40000000 000000000007 .SSTP          *19
 40000000 000000004000 .SYN           *19
 12:51 09/05/97  FILE=ZIM$DBUC.:ZIC0TSI       SYMBOL TABLE                                               18   BMAP - B00
 40000000 000000000040 .SYNC          *19
 40000000 000000020000 .TJRNL         *19
 40000000 000000040000 .TMPLT         *19
 40000000 000000040000 .TRACE         *19
 40000000 000000000001 .TRENTRY       *19
 40000000 000000000012 .TRIDEL        *19
 40000000 000000000021 .TRIDELENQ     *19
 40000000 000000000024 .TRIDEQ        *19
 40000000 000000000013 .TRIMOD        *19
 40000000 000000000022 .TRIMODENQ     *19
 40000000 000000000014 .TRIREAD       *19
 40000000 000000000023 .TRIREADENQ    *19
 40000000 000000000011 .TRISTO        *19
 40000000 000000000020 .TRISTOENQ     *19
 40000000 000000000017 .TRPDEQ        *19
 40000000 000000000004 .TRPMOD        *19
 40000000 000000000016 .TRPMODENQ     *19
 40000000 000000000002 .TRPREAD       *19
 40000000 000000000015 .TRPREADENQ    *19
 40000000 000000000003 .TRPWRITE      *19
 40000000 000000000010 .TRRACC        *19
 40000000 000000000006 .TRRDEL        *19
 40000000 000000000007 .TRRMOD        *19
 40000000 000000000005 .TRRSTO        *19
 40000000 000000004000 .ULCK          *19
 40000000 000000400000 .UPDT          *19
 40000000 000000000040 .VIA           *19
 60000000 000000000001 A              *19
 41000000 000000000002 ABAS           *19       183
 40000000 000000000001 AC             *19
 40000000 777777777760 ACDEF          *19
 40000000 000000211070 ACDNL          *19
 40000000 000000000003 ACID           *19
 40000000 000000001016 ACOPN          *19
 40000000 000000000002 ACP            *19
 41000000 000000000005 ACPTR          *19        97       158       182       205       329
 40000000 000000000002 ACRAH          *19
 12:51 09/05/97  FILE=ZIM$DBUC.:ZIC0TSI       SYMBOL TABLE                                               19   BMAP - B00
 40000000 000000000001 ACRAN          *19
 40000000 000000001003 ACREC          *19
 40000000 000000000001 ACTDBCB        *19
 40000000 000000000002 ACTDBNO        *19
 40000000 000000001017 ACTP           *19
 40000000 000000000000 ACTSSS         *19
 40000000 000000000000 ACTSZ          *19
 01101000 000000000027 ADON            96      *102
 40000000 000000210565 AFNP           *19
 40000000 000000000635 AFT            *19
 40000000 000000022124 AIR            *19
 40000000 000000000016 AMAX           *19
 41000000 000000000026 ANAM           *19       337
 40000000 000000021614 ANR            *19
 40000000 000000000001 APNO           *19
 40000000 000000210562 ARGER          *19
 41000000 000000000020 ARGS           *19
 40000000 000000000077 ARGS2          *19
 40000000 000000210713 ARNAF          *19
 40000000 000000000003 ATBL           *19
 40000000 000000000000 ATRIB          *19
 40000000 000000000002 AVLN           *19
 40000000 000000000013 AWS$           *19
 40000000 000000000010 AWSZ           *19
 60000000 000000000001 B              *19
 40000000 000000001006 B32N           *19
 40000000 000000001007 B36N           *19
 40000000 000000001056 B72N           *19
 40000000 000000000001 BADDR          *19
 40000000 000000210712 BADSEED        *19
 40000000 777777777765 BDCW           *19
 40000000 000000000633 BEF            *19
 40000000 000000020000 BEFW           *19
 40000000 000000000751 BEMT           *19
 40000000 777777777761 BID            *19
 40000000 777777777762 BIND           *19
 40000000 000000000007 BLKD           *19
 12:51 09/05/97  FILE=ZIM$DBUC.:ZIC0TSI       SYMBOL TABLE                                               20   BMAP - B00
 40000000 000000303331 BME02          *19
 41000000 000000001203 BMPB           *19
 40000000 000000000652 BN1            *19
 40000000 000000000654 BN2            *19
 40000000 000000000004 BPL            *19
 40000000 000000000015 BPLDBK         *19
 40000000 000000000034 BSPG           *19
 40000000 777777777763 BSTAT          *19
 40000000 000000000750 BTX0           *19
 41000000 000000001160 BUF4           *19
 41000000 000000001170 BUF6           *19
 41000000 000000000000 BUFORG         *19
 40000000 000000001060 BUFRQ          *19
 40000000 000000000006 BURRID         *19
 41000000 000000000020 BWASZ          *19
 60000000 000000000001 C              *19
 40000000 000000000050 CAAC           *19
 40000000 000000000050 CACD           *19
 40000000 000000000111 CAG            *19
 40000000 000000001033 CAL            *19
 40000000 000000000026 CALLPM0        *19
 40000000 000000000003 CANSSS         *19
 41000000 000000000003 CBCPA          *19       171       185
 40000000 000000000002 CBCPO          *19
 41000000 000000000002 CBENO          *19       170       193       291
 40000000 000000000014 CBFSZ          *19
 40000000 000000000753 CBIB           *19
 40000000 000000001030 CBID           *19
 41000000 000000000014 CBRCE          *19       192       289
 40000000 000000000014 CBRCP          *19
 40000000 000000001033 CBRID          *19
 41000000 000000000015 CBRPA          *19       188
 40000000 000000000031 CCHAR          *19
 40000000 000000000040 CDBK           *19
 40000000 000000000030 CDES           *19
 40000000 000000000110 CDP            *19
 40000000 000000001044 CDPSI          *19
 12:51 09/05/97  FILE=ZIM$DBUC.:ZIC0TSI       SYMBOL TABLE                                               21   BMAP - B00
 40000000 000000000002 CDRH           *19
 40000000 000000000003 CDRN           *19
 40000000 000000000002 CDSH           *19
 40000000 000000000003 CDSN           *19
 40000000 000000000722 CENTRN         *19
 40000000 000000000722 CENTRO         *19
 40000000 000000000716 CENTRY         *19
 41000000 000000001053 CFCT           *19
 40000000 000000000670 CFLPT1         *19
 40000000 000000000672 CFLPT2         *19
 40000000 000000000015 CFSA           *19
 40000000 000000000646 CHDBK          *19
 40000000 000000000773 CHR            *19
 40000000 000000000006 CHRD           *19
 40000000 000000000772 CHRO           *19
 40000000 000000007640 CHRTP          *19
 40000000 000000001043 CIAC           *19
 40000000 000000000012 CIAWS          *19
 40000000 000000001051 CIBSI          *19
 40000000 000000000516 CIND           *19
 40000000 000000001041 CINVSZ         *19
 40000000 000000001042 CIPG           *19
 40000000 000000001050 CIPSI          *19
 40000000 000000000000 CIRUN          *19
 40000000 000000000002 CIRWS          *19
 40000000 000000000002 CISWS          *19
 01101000 000000000005 CITDS           75       *79
 40000000 000000000014 CIWSOF         *19
 40000000 000000303374 CKSM           *19
 40000000 000000000022 CLCN           *19
 40000000 000000000023 CLCP           *19
 40000000 000000000003 CLCRC          *19
 40000000 000000000003 CLCSC          *19
 40000000 000000000237 CLI            *19
 40000000 000000000026 CLNG           *19
 40000000 000000000052 CMPL           *19
 40000000 000000000002 CN             *19
 12:51 09/05/97  FILE=ZIM$DBUC.:ZIC0TSI       SYMBOL TABLE                                               22   BMAP - B00
 40000000 000000303315 CNE1           *19
 40000000 000000006034 CNUL           *19
 40000000 000000100000 COB74          *19
 40000000 000000000001 COFS           *19
 40000000 000000000045 CONCD          *19
 40000000 000000007764 CP6PGSZB       *19
 41000000 000000001775 CP6PGSZW       *19
 40000000 000000001000 CPGR           *19
 40000000 000000000723 CPTRN          *19
 40000000 000000000723 CPTRO          *19
 60000000 000000000004 CPW            *19
 40000000 000000000112 CRA            *19
 40000000 000000001004 CRD            *19
 40000000 000000000764 CREC           *19
 40000000 000000006344 CRIT           *19
 40000000 000000006200 CRNUL          *19
 40000000 000000007330 CRST           *19
 41000000 000000001223 CRUN           *19        92        93
 41000000 000000000000 CSECT          *19
 40000000 000000000007 CSMPP          *19
 40000000 000000001000 CSPAC          *19
 41000000 000000000004 CSPAH          *19       176
 40000000 777777777776 CSPES          *19
 40000000 777777777776 CSPSB          *19
 40000000 000000000115 CSTS           *19
 40000000 000000000071 CSUB           *19
 40000000 000000000017 CSZ            *19
 40000000 000000000057 CTMASK         *19
 40000000 000000000774 CTPAI          *19
 40000000 000000000240 CURLN          *19
 40000000 000000000236 CURLT          *19
 40000000 000000000770 CURPG          *19
 41000000 000000000001 CURR           *19        99       107       157
 40000000 000000000035 CURRS          *19
 40000000 000000000037 CURSS          *19
 40000000 000000001005 CWRT           *19
 40000000 000000000237 CWSOF          *19
 12:51 09/05/97  FILE=ZIM$DBUC.:ZIC0TSI       SYMBOL TABLE                                               23   BMAP - B00
 60000000 000000000001 D              *19
 41000000 000000000003 DBAN           *19       338
 41000000 000000000036 DBDR           *19        91
 40000000 000000000037 DBFN           *19
 40000000 000000000754 DBK            *19
 40000000 000000000777 DBKAC          *19
 41000000 000000000000 DBKEY          *19        87
 40000000 000000000000 DBKL           *19
 40000000 000000007474 DBKN           *19
 41000000 000000000776 DBKR           *19
 40000000 000000000777 DBKRQ          *19
 40000000 000000000234 DBKSI          *19
 40000000 000000000651 DBKSR          *19
 40000000 000000000047 DBKYN          *19
 40000000 000000210652 DBLC01         *19
 40000000 000000210653 DBLC05         *19
 40000000 000000303334 DBLC07         *19
 40000000 000000210655 DBLD01         *19
 40000000 000000000010 DBLIM          *19
 40000000 000000000033 DBPKY          *19
 41000000 000000000023 DBRN           *19       348
 40000000 000000000013 DBSN           *19
 40000000 000000000001 DBST           *19
 40000000 000000000757 DCDSR          *19
 40000000 000000210650 DCE1           *19
 40000000 000000001053 DCPR           *19
 40000000 000000001053 DCPW           *19
 40000000 000000000015 DCTBL          *19
 40000000 000000000032 DDBK           *19
 40000000 000000000006 DDCB           *19
 40000000 000000011754 DDI            *19
 41000000 000000000000 DEF            *19       122       146       163       167       179       261
                                      331       342
 40000000 000000000014 DEF2           *19
 40000000 000000303413 DELAK          *19
 40000000 000000000036 DELRS          *19
 40000000 000000000732 DEPCW          *19
 12:51 09/05/97  FILE=ZIM$DBUC.:ZIC0TSI       SYMBOL TABLE                                               24   BMAP - B00
 40000000 000000303414 DLDBK          *19
 40000000 000000210627 DLE1           *19
 40000000 000000303310 DLE2           *19
 40000000 000000210631 DLE3           *19
 40000000 000000016040 DNES           *19
 40000000 777777777777 DPAGN          *19
 40000000 000000000020 DPPI           *19
 40000000 000000000053 DPSLW          *19
 40000000 000000000003 DS             *19
 40000000 000000001063 DSDES          *19
 40000000 000000303316 DSE1           *19
 40000000 000000000735 DUSEPA         *19
 60000000 000000000001 E              *19
 40000000 000000303251 EDPER          *19
 40000000 000000000026 EEIND          *19
 40000000 000000000713 EFIND          *19
 40000000 000000001030 ELO            *19
 40000000 000000210711 ENCPNA         *19
 40000000 000000000007 ENCRP          *19
 40000000 000000000752 ENDSR          *19
 40000000 000000210647 ENE1           *19
 40000000 000000000716 ENIND          *19
 40000000 000000000013 ENTBL          *19
 40000000 000000000710 ENTNO          *19
 40000000 000000000712 ENTPTR         *19
 40000000 000000000717 ENTSZ          *19
 40000000 000000000711 ENTTYP         *19
 40000000 000000004064 EOSR           *19
 40000000 000000000004 ES             *19
 41000000 000000000100 ESTSZ          *19
 40000000 000000000725 ESZ            *19
 40000000 000000000005 ETCADR         *19
 40000000 000000000005 ETCDBNO        *19
 40000000 000000000064 EXCCD          *19
 40000000 000000234534 FALRT          *19
 40000000 000000001055 FBF72          *19
 40000000 000000001025 FBU61          *19
 12:51 09/05/97  FILE=ZIM$DBUC.:ZIC0TSI       SYMBOL TABLE                                               25   BMAP - B00
 40000000 000000001020 FBUF           *19
 40000000 000000001026 FBUF1          *19
 40000000 000000001027 FBUF4          *19
 40000000 000000001024 FBUF6          *19
 40000000 000000001022 FBUFM          *19
 40000000 000000001021 FBUFU          *19
 40000000 000000001023 FBUMD          *19
 40000000 000000000004 FCN            *19
 40000000 000000000051 FCNT           *19
 40000000 000000000002 FCP            *19
 40000000 000000000047 FCSS           *19
 40000000 000000000005 FD             *19
 40000000 000000210637 FDE1           *19
 40000000 000000303320 FDE2           *19
 40000000 000000303321 FDE3           *19
 40000000 000000210642 FDE4           *19
 40000000 000000210643 FDE5           *19
 40000000 000000210644 FDE6           *19
 40000000 000000303325 FDE7           *19
 40000000 000000303326 FDE8           *19
 40000000 000000000021 FEASZ          *19
 40000000 000000000740 FETM           *19
 40000000 000000000006 FI             *19
 40000000 000000000103 FIAC           *19
 41000000 000000001100 FIB1           *19
 41000000 000000001130 FIBP           *19
 40000000 000000000000 FIBX           *19
 40000000 000000000102 FICNT          *19
 40000000 000000000005 FIPN           *19
 40000000 000000000054 FKIND          *19
 40000000 000000000015 FLAGS          *19
 40000000 000000000244 FLDDSC         *19
 40000000 000000000046 FLDTL          *19
 40000000 000000000020 FMSBF          *19
 40000000 000000000006 FNAM           *19
 40000000 000000000250 FNIND          *19
 40000000 000000000004 FNL            *19
 12:51 09/05/97  FILE=ZIM$DBUC.:ZIC0TSI       SYMBOL TABLE                                               26   BMAP - B00
 40000000 000000000101 FRAC           *19
 40000000 000000000002 FRANGE         *19
 40000000 000000211400 FRDNL          *19
 40000000 000000200000 FRTRN          *19
 40000000 000000000005 FRWSO          *19
 40000000 000000000767 FSLN           *19
 40000000 000000000766 FSOF           *19
 40000000 000000000060 FTIND          *19
 40000000 000000303240 FTLINCR        *19
 40000000 000000000021 FWSSZ          *19
 40000000 000000000246 GACDK          *19
 40000000 000000000014 GDCB           *19
 41000000 000000000006 GERROR         *19       210
 40000000 000000000016 GINHIB         *19
 40000000 000000000020 GIOAWS         *19
 40000000 000000000022 GIOBUF         *19
 40000000 000000000021 GIOPGNO        *19
 40000000 000000000015 GPAGE          *19
 41000000 000000000010 GRETAC         *19       330
 40000000 000000000011 GRETFR         *19
 41000000 000000000013 GRETRC         *19       341
 40000000 000000000012 GRETSC         *19
 41000000 000000000025 GRLCW          *19        80       258
 40000000 000000000014 GSTCD          *19
 40000000 000000000007 GSYSERR        *19
 40000000 000000000010 GT             *19
 40000000 000000000046 GTRNAME        *19
 40000000 000000000055 GTRPDCB        *19
 40000000 000000000056 GTRPNO         *19
 40000000 000000000057 GTRRDBK        *19
 40000000 000000000060 GTRRTYPE       *19
 40000000 000000000060 GTRTYPE        *19
 40000000 000000000027 HASH           *19
 40000000 000000000022 HIA            *19
 40000000 000000000775 HIDB           *19
 40000000 000000000003 HIGHDBK        *19
 40000000 000000000004 HIGHPG         *19
 12:51 09/05/97  FILE=ZIM$DBUC.:ZIC0TSI       SYMBOL TABLE                                               27   BMAP - B00
 40000000 000000001037 HIL            *19
 40000000 000000000002 HILN           *19
 40000000 000000000006 HPOS           *19
 40000000 000000000756 IAAC           *19
 40000000 000000001011 IACLN          *19
 40000000 000000001010 IALC           *19
 40000000 000000010314 IAN            *19
 40000000 000000001012 IANLN          *19
 40000000 000000000001 IASID          *17
 40000000 000000020320 ICA            *19
 40000000 000000000023 ICKSMP         *19
 40000000 000000000024 ICKSMV         *19
 40000000 000000210742 ICNR           *19
 41000000 000000000020 ICSIZ          *19
 40000000 000000010004 IDBK           *19
 40000000 000000012120 IDI            *19
 40000000 000000000023 IDS            *19
 40000000 000000000011 IF             *19
 40000000 000000000021 IFIPN          *19
 40000000 000000000000 IFR            *19
 40000000 000000234546 IKSEQ          *19
 40000000 000000000113 INAFLAG        *19
 40000000 000000000016 INCHA          *19
 40000000 000000210566 INNM           *19
 40000000 000000210567 INSS           *19
 40000000 000000210575 INSST          *19
 40000000 000000303241 INTER          *19
 40000000 000000400000 INTII          *19
 40000000 000000000013 INTVL          *19
 40000000 000000001060 INVFLG         *19
 40000000 000000001043 INVOF          *19
 40000000 000000000014 INVT           *19
 40000000 000000000034 IOBLK          *19
 40000000 000000303354 IOCLSD         *19
 40000000 000000303355 IOCLSK         *19
 40000000 000000303257 IOE1           *19
 40000000 000000303264 IOE11          *19
 12:51 09/05/97  FILE=ZIM$DBUC.:ZIC0TSI       SYMBOL TABLE                                               28   BMAP - B00
 40000000 000000303265 IOE12          *19
 40000000 000000303266 IOE18          *19
 40000000 000000303260 IOE2           *19
 40000000 000000303261 IOE3           *19
 40000000 000000303262 IOE7           *19
 40000000 000000303263 IOE8           *19
 40000000 000000303363 IOFLSH         *19
 40000000 000000210676 IOGDCB         *19
 40000000 000000001002 IOINC          *19
 40000000 000000305160 IOINI          *19
 40000000 000000305155 IONOTIDS       *19
 40000000 000000305154 IONOTKEY       *19
 40000000 000000210677 IOOPND         *19
 40000000 000000210700 IOOPNK         *19
 40000000 000000303361 IORDD          *19
 40000000 000000305156 IOSCHEMA       *19
 40000000 000000001052 IOSTS          *19
 40000000 000000303362 IOWRTD         *19
 41000000 000000000750 IOWS           *19
 40000000 000000000647 IPC            *19
 40000000 000000000650 IPCF           *19
 40000000 000000000006 IROLLFLAG      *19
 40000000 000000010150 IRSN           *19
 40000000 000000000004 ISYSDCB        *19
 40000000 000000000005 ISYSERR        *19
 41000000 000000000061 ITPTR          *19       152       153       177       178
 40000000 000000000060 ITRS           *19
 40000000 000000021760 IUM            *19
 40000000 000000000017 IUSZ           *19
 40000000 000000234522 IVDBK          *19
 40000000 000000000011 IXBUF$         *19
 40000000 000000000046 IXFBSZ         *19
 40000000 777777777776 IXID           *19
 40000000 777777777777 IXPLL          *19
 40000000 000000000523 KCARG0         *19
 40000000 000000000524 KCARG3         *19
 40000000 000000000525 KCARG4         *19
 12:51 09/05/97  FILE=ZIM$DBUC.:ZIC0TSI       SYMBOL TABLE                                               29   BMAP - B00
 40000000 000000000700 KCREG          *19
 40000000 000000000006 KDCB           *19
 40000000 000000000666 KEYDS          *19
 40000000 000000000010 KEYPA          *19
 40000000 777777777776 KLNG           *19
 40000000 000000000022 KPASZ          *19
 40000000 000000000006 KWSZ           *19
 40000000 000000000052 LANGC          *19
 40000000 000000001014 LAS            *19
 40000000 000000700000 LCODM          *19
 40000000 000000001045 LDPSI          *19
 40000000 000000001071 LINPT          *19
 40000000 000000001017 LNCNT          *19
 40000000 000000000762 LNNO           *19
 40000000 000000001036 LOL            *19
 40000000 000000000715 LOLIM          *19
 01101000 000000000042 LOOP1         *118       125       127       137       154       166       172
                                      187       194
 01101000 000000000061 LOOP1A        *134       140
 01101000 000000000204 LOOP2A        *278       284
 40000000 000000000023 LPASZ          *19
 40000000 000000000012 LPP            *19
 40000000 000000257764 LR             *19
 40000000 000000301270 LRA            *19
 40000000 000000000017 LRSZ           *19
 40000000 000000001035 LSPC           *19
 40000000 000000000750 LUPD           *19
 61000000 000000000001 M9             *19
 40000000 000000000013 MD             *19
 40000000 000000300000 MDQS           *19
 40000000 000000000730 MEMPTR         *19
 40000000 000000000727 MEMTYP         *19
 40000000 000000000045 MODCD          *19
 41000000 000000001207 MODFL          *19
 40000000 000000000042 MODFR          *19
 40000000 000000000044 MODIN          *19
 40000000 000000000044 MODRS          *19
 12:51 09/05/97  FILE=ZIM$DBUC.:ZIC0TSI       SYMBOL TABLE                                               30   BMAP - B00
 40000000 000000000043 MODSC          *19
 40000000 000000000047 MRBKI          *19
 40000000 000000210632 MRE4           *19
 40000000 000000303313 MRE5           *19
 40000000 000000210634 MRE7           *19
 40000000 000000400000 MW             *19
 40000000 000000000025 NCH            *19
 40000000 000000000002 NCHA           *19
 40000000 000000000005 NCHRS          *19
 40000000 000000000014 NDCD           *19
 40000000 000000000012 NENC           *19
 40000000 000000000634 NEW            *19
 40000000 000000001072 NEWSIZ         *19
 40000000 000000235164 NKA            *19
 40000000 000000235020 NKDB           *19
 40000000 000000303415 NLDBK          *19
 40000000 777777777777 NLIND          *19
 40000000 000000001040 NLN            *19
 40000000 000000400000 NLNSA          *19
 01101000 000000000100 NMOM           148      *155
 41000000 000000001053 NOBF           *19
 40000000 000000000711 NOPTRS         *19
 01101000 000000000041 NOSC           114      *116
 40000000 000000000742 NPARCW         *19
 40000000 000000000630 NPIND          *19
 41000000 000000000004 NPOS           *19       151
 40000000 000000234510 NSA            *19
 40000000 000000234654 NSCS           *19
 40000000 000000234344 NSDB           *19
 40000000 000000000001 NSTS           *19
 40000000 000000000726 NUMENT         *19
 40000000 000000000727 NUMPTR         *19
 40000000 777777777760 NXBUF          *19
 40000000 000000000713 NXPRI          *19
 40000000 000000000771 NXTC           *19
 40000000 000000000001 OAACN          *19
 40000000 000000000022 OACIWSOF       *19
 12:51 09/05/97  FILE=ZIM$DBUC.:ZIC0TSI       SYMBOL TABLE                                               31   BMAP - B00
 40000000 000000000001 OAOFST         *19
 40000000 000000000002 OARCN          *19
 40000000 000000000001 OASCN          *19
 40000000 000000000014 OD             *19
 40000000 000000000074 ODBK           *19
 40000000 000000001072 OLDSIZ         *19
 40000000 000000000101 OPADP          *19
 40000000 000000000741 OPARCW         *19
 40000000 000000210570 ORDNI          *19
 40000000 777777777777 OTVL           *19
 40000000 000000000252 OWNPTR         *19
 40000000 000000000016 PABUF          *19
 40000000 000000001041 PACD           *19
 40000000 000000000001 PACW           *19
 40000000 000000000733 PADBK          *19
 40000000 000000000740 PADUP          *19
 40000000 000000000745 PAEN           *19
 40000000 000000000745 PAEO           *19
 40000000 000000000734 PAEOF          *19
 40000000 000000303336 PAER1          *19
 40000000 000000303337 PAER2          *19
 40000000 000000303340 PAER3          *19
 40000000 000000303341 PAER4          *19
 40000000 000000303342 PAER5          *19
 40000000 000000303343 PAER6          *19
 40000000 000000000747 PAESZ          *19
 40000000 000000001060 PAFLG          *19
 40000000 000000000731 PAOPTR         *19
 40000000 000000000734 PAPOF          *19
 40000000 000000000714 PARCW          *19
 40000000 000000000726 PARVPA         *19
 40000000 000000000724 PASPLT         *19
 40000000 000000000004 PAWSZ          *19
 40000000 777777777762 PBUF           *19
 40000000 000000000020 PC             *19
 41000000 000000000510 PCB            *19
 40000000 000000000642 PCD            *19
 12:51 09/05/97  FILE=ZIM$DBUC.:ZIC0TSI       SYMBOL TABLE                                               32   BMAP - B00
 40000000 000000000642 PCD2           *19
 40000000 000000000247 PCEXI          *19
 40000000 000000000675 PCMIN          *19
 40000000 000000004541 PCOMP          *19
 40000000 000000000010 PD             *19
 40000000 000000000040 PE             *19
 40000000 000000000017 PENDING        *19
 40000000 000000000004 PF             *19
 40000000 000000000400 PFG            *19
 40000000 000000000200 PFM            *19
 40000000 000000000100 PFS            *19
 40000000 000000000400 PG             *19
 40000000 000000001064 PGHD           *19
 40000000 000000000006 PGLIM          *19
 40000000 000000000003 PGRNG          *19
 40000000 000000000746 PGSIZE         *19
 40000000 000000000641 PGSPLT         *19
 40000000 000000000100 PKAW           *19
 40000000 000000001034 PLO            *19
 40000000 000000000004 PLSEP          *19
 40000000 000000000200 PM             *19
 40000000 000000001054 PNEOO          *19
 40000000 000000001047 POFSI          *19
 40000000 000000000005 PPOS           *19
 41000000 000000000000 PR0            *17       132       135       276       279
 41000000 000000000001 PR1            *17        90        91       133       136       277       280
                                      335       338       348
 40000000 000000000002 PR2            *17
 41000000 000000000003 PR3            *17       149       174
 40000000 000000000004 PR4            *17
 41000000 000000000005 PR5            *17        80       210       258       330       341
 41000000 000000000006 PR6            *17        98       106       119       121       122       146
                                      151       156       163       167       176       179       183
                                      206       261       290       331       337       342       347
 41000000 000000000007 PR7            *17        73        77        81        82        85        87
                                       88        92        93        97        99       101       107
                                      112       115       128       131       149       152       153
 12:51 09/05/97  FILE=ZIM$DBUC.:ZIC0TSI       SYMBOL TABLE                                               33   BMAP - B00
                                      157       158       159       161       170       171       174
                                      177       178       182       185       186       188       192
                                      193       205       207       212       257       260       268
                                      271       274       275       288       289       291       293
                                      327       329       340
 40000000 000000303267 PRE1           *19
 40000000 000000303277 PRE10          *19
 40000000 000000303270 PRE3           *19
 40000000 000000303271 PRE4           *19
 40000000 000000303272 PRE5           *19
 40000000 000000210613 PRE6           *19
 40000000 000000210614 PRE7           *19
 40000000 000000210615 PRE8           *19
 40000000 000000303276 PRE9           *19
 40000000 000000000522 PREXC          *19
 40000000 000000000521 PRFR           *19
 40000000 000000000521 PRFR2          *19
 40000000 000000000000 PRIV           *19
 40000000 000000000526 PROPA          *19
 40000000 000000000517 PRRC           *19
 40000000 000000000517 PRRS           *19
 41000000 000000000520 PRSC           *19       260
 41000000 000000000516 PRSS           *19       274
 40000000 000000000644 PRSTS          *19
 40000000 000000000100 PS             *19
 41000000 000000000000 PS0SID         *17
 41000000 000000000001 PS1SID         *17
 41000000 000000000002 PS2SID         *17
 41000000 000000000003 PS3SID         *17
 41000000 000000000004 PS4SID         *17
 40000000 000000000005 PS5SID         *17
 40000000 000000000006 PS6SID         *17
 40000000 000000303416 PSA            *19
 40000000 000000000020 PSC            *19
 40000000 000000000010 PSD            *19
 40000000 000000000004 PSF            *19
 40000000 000000000400 PSO            *19
 12:51 09/05/97  FILE=ZIM$DBUC.:ZIC0TSI       SYMBOL TABLE                                               34   BMAP - B00
 40000000 000000000720 PTESZ          *19
 40000000 000000000631 PTR            *19
 40000000 000000000724 PTRESZ         *19
 40000000 000000000710 PTRNO          *19
 41000000 000000000630 PWS            *19
 41000000 000000000002 RADDR          *19       149       174
 40000000 000000000010 RADIX          *19
 40000000 000000000005 RAPTR          *19
 40000000 000000000004 RAWSOF         *19
 40000000 777777777766 RBA            *19
 40000000 000000023432 RCBI           *19
 40000000 000000211234 RCDNL          *19
 40000000 000000000005 RCFRH          *19
 40000000 000000000004 RCFRN          *19
 40000000 000000001075 RCHD           *19
 40000000 000000000001 RCID           *19
 41000000 000000000006 RCPTR          *19        88       340
 40000000 000000000002 RCRAH          *19
 40000000 000000000001 RCRAN          *19
 40000000 000000000003 RCRSH          *19
 41000000 000000000002 RCRSN          *19       119
 40000000 000000210667 RCVER1         *19
 40000000 000000210670 RCVER2         *19
 40000000 000000210671 RCVER4         *19
 40000000 000000210672 RCVER5         *19
 40000000 000000210673 RCVER6         *19
 40000000 000000000736 RCW1           *19
 40000000 000000000737 RCW2           *19
 41000000 000000000004 RCWSO          *19       106
 40000000 000000000077 RDAC           *19
 40000000 000000000076 RDCNT          *19
 40000000 000000040000 RDI            *19
 40000000 000000015674 RDLT           *19
 01101000 000000000033 RDON           105      *108
 40000000 000000000075 RDYCW          *19
 40000000 000000000066 RECAC          *19
 40000000 000000000065 RECFR          *19
 12:51 09/05/97  FILE=ZIM$DBUC.:ZIC0TSI       SYMBOL TABLE                                               35   BMAP - B00
 40000000 000000000070 RECRC          *19
 40000000 000000000067 RECSC          *19
 40000000 000000000003 RECSZ          *19
 40000000 000000000235 REMLT          *19
 40000000 000000000062 REM_RECOVER    *19
 01101000 000000000155 RET            209      *211
 40000000 000000000251 RETFR          *19
 40000000 000000210724 RFDNL          *19
 40000000 000000017644 RIM            *19
 41000000 000000000005 RNAM           *19       347
 40000000 000000015706 RNDLT          *19
 40000000 000000000662 RNG1           *19
 40000000 000000000664 RNG2           *19
 40000000 000000000073 RNGD           *19
 40000000 000000000072 RNGO           *19
 40000000 000000000660 RNGTAL         *19
 40000000 000000020154 RNM            *19
 40000000 000000000041 ROCUR          *19
 40000000 000000000001 ROFST          *19
 40000000 000000002114 ROLL           *19
 40000000 000000020010 RPM            *19
 40000000 000000000001 RSCDH          *19
 40000000 000000000001 RSCDN          *19
 40000000 000000211710 RSDNL          *19
 40000000 000000004540 RSEE           *19
 40000000 000000000003 RSIZ           *19
 40000000 000000000110 RSPAM          *19
 40000000 000000000004 RSPTR          *19
 40000000 000000000037 RSREQ          *19
 40000000 000000000002 RSSSH          *19
 40000000 000000000001 RSSSN          *19
 40000000 000000210574 RSZER          *19
 40000000 000000000632 RSZTP          *19
 40000000 000000000003 RTP            *19
 40000000 000000000003 RTYP           *19
 40000000 000000000530 RV1            *19
 40000000 000000000550 RV2            *19
 12:51 09/05/97  FILE=ZIM$DBUC.:ZIC0TSI       SYMBOL TABLE                                               36   BMAP - B00
 40000000 000000000570 RV3            *19
 40000000 000000000610 RV4            *19
 41000000 000000000003 RVASID         *17       133       277
 40000000 000000000510 RVI            *19
 41000000 000000000511 RVO            *19        82        85       327
 40000000 000000000513 RVPA           *19
 41000000 000000000512 RVT            *19       288
 40000000 000000000022 RVTAL          *19
 40000000 000000000002 RWSZ           *19
 40000000 000000000015 RY             *19
 40000000 000000210620 RYE1           *19
 40000000 000000210621 RYE4           *19
 40000000 777777777767 SA             *19
 40000000 000000000005 SANAM          *19
 40000000 000000001062 SCDES          *19
 40000000 000000211544 SCDNL          *19
 40000000 000000000024 SCFC           *19
 40000000 000000000002 SCID           *19
 41000000 000000000024 SCLST          *19       112       115       128       131       268       271
                                      275
 40000000 000000000004 SCNAM          *19
 40000000 000000000004 SCPTR          *19
 41000000 000000000003 SCRSH          *19       121
 40000000 000000000002 SCRSN          *19
 41000000 000000000001 SCWSO          *19       156       290
 01101000 000000000144 SDON           111       120      *195
 01101000 000000000120 SETM           169      *173
 40000000 000000001225 SFWS           *19
 40000000 000000001073 SIZCHG         *19
 40000000 000000000645 SKFLG          *19
 40000000 000000000643 SKIND          *19
 40000000 000000000641 SKTYP          *19
 40000000 000000020464 SMCR           *19
 40000000 000000000003 SNAM           *19
 40000000 000000000107 SNIND          *19
 40000000 000000000735 SNPAE          *19
 40000000 000000001046 SNSI           *19
 12:51 09/05/97  FILE=ZIM$DBUC.:ZIC0TSI       SYMBOL TABLE                                               37   BMAP - B00
 40000000 000000000743 SOE            *19
 40000000 000000020630 SORSA          *19
 40000000 000000004374 SOSE           *19
 40000000 000000000000 SPAV           *19
 40000000 000000000744 SPCAVN         *19
 40000000 000000000744 SPCAVO         *19
 40000000 000000000765 SPLF           *19
 41000000 000000000765 SPND           *19
 40000000 000000000006 SSDT           *19
 40000000 000000303243 SSER           *19
 40000000 000000303244 SSER1          *19
 40000000 000000000002 SSH            *19
 40000000 000000000005 SSNAM          *19
 40000000 000000210573 SSNF           *19
 40000000 000000210576 SSNV           *19
 40000000 000000000020 SSSPTR         *19
 40000000 000000000010 SSVDT          *19
 40000000 000000000033 SSZTP          *19
 40000000 000000000017 ST             *19
 40000000 000000000104 STBIN          *19
 40000000 000000000105 STDEC          *19
 40000000 000000303302 STE1           *19
 40000000 000000303303 STE2           *19
 40000000 000000210624 STE3           *19
 40000000 000000303305 STE4           *19
 40000000 000000303306 STE5           *19
 41000000 000000000100 STKSIZ         *19
 40000000 000000000055 STMASK         *19
 40000000 000000000062 SUST           *19
 01101000 000000000132 SVDBK          181      *184
 41000000 000000000020 SWS            *19
 41000000 000000000000 SWSAC          *19       159
 40000000 000000000002 SWSZ           *19
 40000000 000000000000 SYSSF          *19
 40000000 000000000765 SZREQ          *19
 40000000 000000000004 TBUF           *19
 40000000 000000001061 TCTRS          *19
 12:51 09/05/97  FILE=ZIM$DBUC.:ZIC0TSI       SYMBOL TABLE                                               38   BMAP - B00
 60000000 000000000000 TDS            *19
 41000000 000000000113 TEMP           *19
 40000000 000000000640 TFLD           *19
 40000000 000000000657 TFLD2          *19
 40000000 000000000056 TMASK          *19
 40000000 000000000061 TMODE          *19
 40000000 000000000676 TMPPA          *19
 40000000 000000000003 TPAI           *19
 40000000 000000500000 TPRCOD         *19
 40000000 000000001031 TSFN           *19
 40000000 000000000021 TSI            *19
 40000000 000000001013 UBRD2          *19
 41000000 000000001223 UBSZ           *19
 40000000 000000000667 UCADR          *19
 01101000 000000000160 UCER           210       216      *220
 40000000 000000000036 UCRS           *19
 40000000 000000000024 UFSPK          *19
 40000000 000000000024 UFSPK2         *19
 40000000 000000000715 ULIM           *19
 40000000 000000004230 UNA            *19
 40000000 000000303417 UNIM           *19
 40000000 000000000002 UOFST          *19
 40000000 000000001035 UPACD          *19
 40000000 000000000721 UPACW          *19
 40000000 000000000007 UPFLAG         *19
 41000000 000000000103 UPPAI          *19        81       186
 01101000 000000000216 UPPRT          264       267       281      *292
 01101000 000000000067 UPS            130      *141
 01101000 000000000212 UPSET          270      *287
 40000000 000000000004 UPTSID         *17
 40000000 000000000674 USTAT          *19
 41000000 000000000002 UWASID         *17        90       335
 40000000 000000000002 UWSSZ          *19
 40000000 000000000020 UWSZ           *19
 40000000 000000000243 VFDSC          *19
 40000000 000000001070 VFDSR          *19
 40000000 000000000656 VFLD           *19
 12:51 09/05/97  FILE=ZIM$DBUC.:ZIC0TSI       SYMBOL TABLE                                               39   BMAP - B00
 40000000 000000001074 VFLNG          *19
 40000000 000000001124 VIB1           *19
 40000000 000000001154 VIBP           *19
 41000000 000000000000 VLPSID         *17       132       276
 40000000 000000001074 VRSIZ          *19
 40000000 000000001067 WLOA           *19
 40000000 000000100000 WRTI           *19
 40000000 000000000000 WSBID          *19
 41000000 000000000003 WSOF           *19        98       206
 41000000 000000000000 X0             *17        97       100       101       128       129       139
                                      158       159       160       161       163       164       165
                                      167       168       179       180       182       186       205
                                      261       262       263       272       273       283
 41000000 000000000001 X1             *17        73        74        77        78        81        84
                                       85        98       106       131       138       156       206
                                      210       212       257       275       282       288       290
                                      293
 41000000 000000000002 X2             *17        82       327
 41000000 000000000003 X3             *17       135       207       208       279
 40000000 000000000004 X4             *17
 41000000 000000000005 X5             *17       117       119       274
 41000000 000000000006 X6             *17       121       136       260       280
 03201002 000000000000 X66_ARET       *17       350
 03201001 000000000000 X66_AUTO_0     *17       326
 41000000 000000000007 X7             *17        88        93
 40000000 000000210665 XASL           *19
 40000000 000000303420 XLD            *19
 40000000 000000303421 XPD            *19
 40000000 000000000676 XPRS           *19
 40000000 000000210666 XROLL          *19
 40000000 000000210664 XUNEX          *19
 40000000 777777777777 XXDPN          *19
 03201003 000000000000 ZIB$ICALT     *221
 12101000 000000000000 ZIG$DBUPC       11       *72
 12101000 000000000003 ZIG$DBUPD       12       *76
 12101000 000000000161 ZIG$DBUPP       13      *256
 12101000 000000000220 ZIG$DBUSR       14      *325
 12:51 09/05/97  FILE=ZIM$DBUC.:ZIC0TSI       SYMBOL TABLE                                               40   BMAP - B00
 03201000 000000000000 ZIM$REDUCEQ    *16       210

     944 SYMBOLS

 12:51 09/05/97  FILE=ZIM$DBUC.:ZIC0TSI       MACRO TABLE                                                41   BMAP - B00
 CBSYM           19
 DBCAL          210
 DBRET          350
 DBSAV          326
 ICALT          221
 ICRET          212       293
 ICSAV           73        77       257
 Q2SYM           19
 SSSYM           19

      37 MACROS

    SYMBOL SPACE USED  9257 WORDS
     MACRO SPACE USED 13043 WORDS
   INPUT RECORDS READ  2504
 STATEMENTS PROCESSED  2120
         ELAPSED TIME  0:11.00
             CPU TIME    10.57 SEC.
        ASSEMBLY RATE 12034 STATEMENTS/CPU MIN.

      NO ERRORS

