
PL6.E3A0      #001=ZID$DUMP File=ZIM$DUMP.:ZIC0TSI                               FRI 09/05/97 12:52 Page:1
        1        1        /*M*     ZID$DUMP - dump during aborts    */
        2        2        /*T***********************************************************/
        3        3        /*T*                                                         */
        4        4        /*T* Copyright (c) Bull HN Information Systems Inc., 1997    */
        5        5        /*T*                                                         */
        6        6        /*T***********************************************************/
        7        7        ZID$DUMP: PROC(START$,SIZE,TITLE)
        8        8         /* USE($PR5 FOR GLOBAL$) */
        9        9               AVOID($PR5,$PR6,$PR7);
       10       10        %INCLUDE CP_6;
       11       91            %FPT_WRITE(FPTN=FPT$WRITE,STCLASS=BASED);
       12      122        %INCLUDE CP_6_SUBS;
       13      662        %INCLUDE ZI$GLOBAL;
       14     1148            %GLOBALS;
       15     1456        %INCLUDE ZI$USER;
       16     1601            %IA;
       17     1650    1   DCL START$ PTR;
       18     1651    1   DCL START(0:11) REDEF START$ UBIN(3) UNAL;
       19     1652    1   DCL SIZE SBIN(36);
       20     1653    1   DCL 1 TITLE,
       21     1654    1         2 COUNT UBIN(9) UNAL,
       22     1655    1         2 TEXT CHAR(TITLE.COUNT) UNAL;
       23     1656        /**/
       24     1657    1   DCL ZIO$DFLTOPN ENTRY(1) ALTRET;
       25     1658    1   DCL I SBIN;
       26     1659    1   DCL J SBIN;
       27     1660    1   DCL K SBIN;
       28     1661    1   DCL WPL UBIN(36); /* Words per line */
       29     1662    1   DCL WTL UBIN(36); /* Words this line */
       30     1663    1   DCL CPL UBIN(36); /* Char per line */
       31     1664    1   DCL LCNT SBIN;
       32     1665    1   DCL POS SBIN;
       33     1666    1   DCL RELADR SBIN;
       34     1667    1   DCL P$ PTR;
       35     1668    1   DCL 1 OCTVAL,
       36     1669    1         2 DIGIT(0:11) UBIN(3) UNAL,
       37     1670    1         2 CHR(0:3) REDEF DIGIT UBIN(9) UNAL;
PL6.E3A0      #001=ZID$DUMP File=ZIM$DUMP.:ZIC0TSI                               FRI 09/05/97 12:52 Page:2
       38     1671    1   DCL LINE BASED CHAR(CPL) UNAL;
       39     1672    1   DCL ONEWORD BIT(36) ALIGNED BASED;
       40     1673    2       DO INHIBIT;
       41     1674    2           GLOBAL.INHIB.DUMP=%YES#;
       42     1675    2           END;
       43     1676    1       GLOBAL.DCBNAME.TEXT='DUMP';
       44     1677    1       GLOBAL.DCBNAME.LENGTH=4;
       45     1678    1       CALL ZIO$DFLTOPN('LO  ') ALTRET(EXIT_OPN);
       46     1679    1       GLOBAL.WRITE$->FPT$WRITE.V.DCB#=GLOBAL.DCBNUMBER;
       47     1680    1       WPL=4;
       48     1681    1       CPL=WPL*4;
       49     1682    1       P$=START$;
       50     1683    1       WTL=WPL;
       51     1684    1       RELADR=0;
       52     1685    1       LCNT=(SIZE+WPL-1)/WPL;
       53     1686    1       GLOBAL.PRINTBUF.BUFFER=TITLE.TEXT;
       54     1687    1       CALL M$WRITE(GLOBAL.WRITE$->FPT$WRITE);
       55     1688    1       GLOBAL.PRINTBUF.BUFFER='B';
       56     1689    1       CALL M$WRITE(GLOBAL.WRITE$->FPT$WRITE);
       57     1690    1       GLOBAL.PRINTBUF.BUFFER='A pointer address =';
       58     1691    1       POS=20;
       59     1692    2       DO I=0 TO 11;
       60     1693    2           GLOBAL.PRINTBUF.LINE(POS)=BINASC(START(I)+48);
       61     1694    2           POS=POS+1;
       62     1695    2           END;
       63     1696    1       CALL M$WRITE(GLOBAL.WRITE$->FPT$WRITE);
       64     1697    1       GLOBAL.PRINTBUF.BUFFER='A';
       65     1698    2       DO I=1 TO LCNT;
       66     1699    2           IF GLOBAL.INHIB.DUMP=%NO# THEN
       67     1700    2               GOTO EXIT_OPN;
       68     1701    2           IF SIZE-(I-1)*WPL<=WPL THEN
       69     1702    3           DO; /* Partial (or just) last line */
       70     1703    3               WTL=SIZE-(I-1)*WPL;
       71     1704    3               GLOBAL.PRINTBUF.BUFFER='A'; /* Clear for partial */
       72     1705    3               END;
       73     1706    2           ELSE
       74     1707    2               IF SIZE-(I-1)*WPL>=2*WPL THEN /* Enough to compare */
PL6.E3A0      #001=ZID$DUMP File=ZIM$DUMP.:ZIC0TSI                               FRI 09/05/97 12:52 Page:3
       75     1708    2                   IF PINCRW(P$,RELADR)->LINE=PINCRW(P$,RELADR+WPL)->LINE THEN
       76     1709    2                       IF GLOBAL.PRINTBUF.LINE(8)='*' THEN
       77     1710    2                           GOTO NEXTI; /* Keep old offset */
       78     1711    2                       ELSE
       79     1712    2                           GLOBAL.PRINTBUF.LINE(8)='*';
       80     1713    2                   ELSE
       81     1714    2                       IF GLOBAL.PRINTBUF.LINE(8)='*' THEN
       82     1715    3                       DO;
       83     1716    3                           GLOBAL.PRINTBUF.LINE(8)=' ';
       84     1717    3                           GOTO NEXTI; /* Dont print if still same */
       85     1718    3                           END;
       86     1719    2                       ELSE
       87     1720    2                           IF GLOBAL.PRINTBUF.LINE(8)='*' THEN
       88     1721    3                           DO;
       89     1722    3                               GLOBAL.PRINTBUF.LINE(8)=' ';
       90     1723    3                               GOTO NEXTI; /* Dont print if still same */
       91     1724    3                               END;
       92     1725    2           OCTVAL=BINBIT(RELADR,36);
       93     1726    2           POS=2;
       94     1727    3           DO J=6 TO 11; /* Convert rel address */
       95     1728    3               GLOBAL.PRINTBUF.LINE(POS)=BINASC(OCTVAL.DIGIT(J)+48);
       96     1729    3               POS=POS+1;
       97     1730    3               END;
       98     1731    2           POS=POS+2;
       99     1732    3           DO J=0 TO WTL-1; /* Convert actual words */
      100     1733    3               OCTVAL=PINCRW(P$,RELADR+J)->ONEWORD;
      101     1734    4               DO K=0 TO 11;
      102     1735    4                   GLOBAL.PRINTBUF.LINE(POS)=BINASC(OCTVAL.DIGIT(K)+48);
      103     1736    4                   POS=POS+1;
      104     1737    4                   END;
      105     1738    3               POS=POS+1;
      106     1739    3               END;
      107     1740    2           POS=10+13*WPL+3;
      108     1741    3           DO J=0 TO WTL-1; /* Covert to ascii data */
      109     1742    3               OCTVAL=PINCRW(P$,RELADR+J)->ONEWORD;
      110     1743    4               DO K=0 TO 3;
      111     1744    4                   IF OCTVAL.CHR(K)>=32 AND OCTVAL.CHR(K)<=126 THEN
PL6.E3A0      #001=ZID$DUMP File=ZIM$DUMP.:ZIC0TSI                               FRI 09/05/97 12:52 Page:4
      112     1745    4                       GLOBAL.PRINTBUF.LINE(POS)=BINASC(OCTVAL.CHR(K));
      113     1746    4                   ELSE
      114     1747    4                       GLOBAL.PRINTBUF.LINE(POS)='.';
      115     1748    4                   POS=POS+1;
      116     1749    4                   END;
      117     1750    3               END;
      118     1751    2           CALL M$WRITE(GLOBAL.WRITE$->FPT$WRITE);
      119     1752    2   NEXTI:  RELADR=RELADR+WPL;
      120     1753    2           END;
      121     1754    1   EXIT_OPN: RETURN;
      122     1755    1   END ZID$DUMP;

PL6.E3A0      #001=ZID$DUMP File=ZIM$DUMP.:ZIC0TSI                               FRI 09/05/97 12:52 Page:5
--  Include file information  --

   ZI$USER.:ZIC0TOU  is referenced.
   ZI$GLOBAL.:ZIC0TOU  is referenced.
   CP_6_SUBS.:LIB_E05  is referenced.
   CP_6.:LIB_E05  cannot be made into a system file and is referenced.
   B$JIT_C.:E05TOU  was found in the system file and is never referenced.
   CP_6_C.:E05TOU  was found in the system file and is referenced.
      No diagnostics issued in procedure ZID$DUMP.

   Procedure ZID$DUMP requires 304 words for executable code.
   Procedure ZID$DUMP requires 20 words of local(AUTO) storage.

    No errors detected in file ZIM$DUMP.:ZIC0TSI    .

PL6.E3A0      #001=ZID$DUMP File=ZIM$DUMP.:ZIC0TSI                               FRI 09/05/97 12:52 Page:6

 Object Unit name= ZID$DUMP                                   File name= ZIM$DUMP.:ZIC0TOU
 UTS= SEP 05 '97 12:52:28.96 FRI                              Compiler= PL-6/E31         Sev=      00
 SharedLib= :SHARED_SYSTEM                                    Alt SharedLib=


    ****  Control sections  ****

 Sect   Type Bound  Init  Size OctSiz  Section name(segment info)
    0   DCB   even  none     0      0  M$UC
    1  RoData even  UTS      7      7  ZID$DUMP
    2   Proc  even  none   304    460  ZID$DUMP
    3  RoData even  none     6      6  ZID$DUMP

    ****  Entry defs  ****

                              Check   Calling
                             calling  sequence
  Sect OctLoc Primary Altret sequence   type   Parms  Name
     2      0   yes            yes      XStd       3  ZID$DUMP

  ****  Entry refs  ****

         Check        Calling
        calling       sequence
Altret sequence SRef   type   Args  Name
 yes     yes           XStd      1 ZIO$DFLTOPN
                       nStd      0 X66_AUTO_3
                       nStd      0 X66_ARET

  ****  Data refs  ****

  Flags:  r = read only, s = secondary
Flgs Name                             Flgs Name                             Flgs Name
     M$UC                             r    GLOBAL$                               IA$
PL6.E3A0      #001=ZID$DUMP File=ZIM$DUMP.:ZIC0TSI                               FRI 09/05/97 12:52 Page:7

  ****  Segment refs  ****

  Flags:  r = read only, s = secondary
Flgs Name                             Flgs Name                             Flgs Name
     ISSID
PL6.E3A0      #001=ZID$DUMP File=ZIM$DUMP.:ZIC0TSI                               FRI 09/05/97 12:52 Page:8


        1        1        /*M*     ZID$DUMP - dump during aborts    */
        2        2        /*T***********************************************************/
        3        3        /*T*                                                         */
        4        4        /*T* Copyright (c) Bull HN Information Systems Inc., 1997    */
        5        5        /*T*                                                         */
        6        6        /*T***********************************************************/
        7        7        ZID$DUMP: PROC(START$,SIZE,TITLE)

      7  2 000000   000000 700200 xent  ZID$DUMP     TSX0  ! X66_AUTO_3
         2 000001   000024 000003                    ZERO    20,3

        8        8         /* USE($PR5 FOR GLOBAL$) */
        9        9               AVOID($PR5,$PR6,$PR7);
       10       10        %INCLUDE CP_6;
       11       91            %FPT_WRITE(FPTN=FPT$WRITE,STCLASS=BASED);
       12      122        %INCLUDE CP_6_SUBS;
       13      662        %INCLUDE ZI$GLOBAL;
       14     1148            %GLOBALS;
       15     1456        %INCLUDE ZI$USER;
       16     1601            %IA;
       17     1650    1   DCL START$ PTR;
       18     1651    1   DCL START(0:11) REDEF START$ UBIN(3) UNAL;
       19     1652    1   DCL SIZE SBIN(36);
       20     1653    1   DCL 1 TITLE,
       21     1654    1         2 COUNT UBIN(9) UNAL,
       22     1655    1         2 TEXT CHAR(TITLE.COUNT) UNAL;
       23     1656        /**/
       24     1657    1   DCL ZIO$DFLTOPN ENTRY(1) ALTRET;
       25     1658    1   DCL I SBIN;
       26     1659    1   DCL J SBIN;
       27     1660    1   DCL K SBIN;
       28     1661    1   DCL WPL UBIN(36); /* Words per line */
       29     1662    1   DCL WTL UBIN(36); /* Words this line */
       30     1663    1   DCL CPL UBIN(36); /* Char per line */
       31     1664    1   DCL LCNT SBIN;
       32     1665    1   DCL POS SBIN;
PL6.E3A0      #001=ZID$DUMP File=ZIM$DUMP.:ZIC0TSI                               FRI 09/05/97 12:52 Page:9
       33     1666    1   DCL RELADR SBIN;
       34     1667    1   DCL P$ PTR;
       35     1668    1   DCL 1 OCTVAL,
       36     1669    1         2 DIGIT(0:11) UBIN(3) UNAL,
       37     1670    1         2 CHR(0:3) REDEF DIGIT UBIN(9) UNAL;
       38     1671    1   DCL LINE BASED CHAR(CPL) UNAL;
       39     1672    1   DCL ONEWORD BIT(36) ALIGNED BASED;
       40     1673    2       DO INHIBIT;

       41     1674    2           GLOBAL.INHIB.DUMP=%YES#;

   1674  2 000002   000000 470600 xsym               LDP0  ! GLOBAL$
         2 000003   000002 236207                    LDQ   ! 2,DL
         2 000004   000016 256300                    ORSQ  ! 14,,PR0

       42     1675    2           END;

       43     1676    1       GLOBAL.DCBNAME.TEXT='DUMP';

   1676  2 000005   040100 100400                    MLR     fill='040'O
         2 000006   000000 000004 1                  ADSC9   0                        cn=0,n=4
         2 000007   004734 200037                    ADSC9   2524,,PR0                cn=1,n=31

       44     1677    1       GLOBAL.DCBNAME.LENGTH=4;

   1677  2 000010   004000 236003                    LDQ     2048,DU
         2 000011   004734 552140                    STBQ    2524,'40'O,PR0

       45     1678    1       CALL ZIO$DFLTOPN('LO  ') ALTRET(EXIT_OPN);

   1678  2 000012   000001 630400 3                  EPPR0   1
         2 000013   000000 631400 3                  EPPR1   0
         2 000014   000000 701000 xent               TSX1    ZIO$DFLTOPN
         2 000015   000457 702000 2                  TSX2    EXIT_OPN

       46     1679    1       GLOBAL.WRITE$->FPT$WRITE.V.DCB#=GLOBAL.DCBNUMBER;

PL6.E3A0      #001=ZID$DUMP File=ZIM$DUMP.:ZIC0TSI                               FRI 09/05/97 12:52 Page:10
   1679  2 000016   000000 470400 xsym               LDP0    GLOBAL$
         2 000017   005113 471500                    LDP1    2635,,PR0
         2 000020   004623 720100                    LXL0    2451,,PR0
         2 000021   100010 740100                    STX0    8,,PR1

       47     1680    1       WPL=4;

   1680  2 000022   000004 235007                    LDA     4,DL
         2 000023   200011 755100                    STA     WPL,,AUTO

       48     1681    1       CPL=WPL*4;

   1681  2 000024   000002 735000                    ALS     2
         2 000025   200013 755100                    STA     CPL,,AUTO

       49     1682    1       P$=START$;

   1682  2 000026   200003 471500                    LDP1    @START$,,AUTO
         2 000027   100000 236100                    LDQ     0,,PR1
         2 000030   200017 756100                    STQ     P$,,AUTO

       50     1683    1       WTL=WPL;

   1683  2 000031   200011 235100                    LDA     WPL,,AUTO
         2 000032   200012 755100                    STA     WTL,,AUTO

       51     1684    1       RELADR=0;

   1684  2 000033   200016 450100                    STZ     RELADR,,AUTO

       52     1685    1       LCNT=(SIZE+WPL-1)/WPL;

   1685  2 000034   200004 473500                    LDP3    @SIZE,,AUTO
         2 000035   300000 236100                    LDQ     0,,PR3
         2 000036   200011 036100                    ADLQ    WPL,,AUTO
         2 000037   000001 136007                    SBLQ    1,DL
         2 000040   000000 115003                    CMPA    0,DU
PL6.E3A0      #001=ZID$DUMP File=ZIM$DUMP.:ZIC0TSI                               FRI 09/05/97 12:52 Page:11
         2 000041   000044 605000 2                  TPL     s:1685+8
         2 000042   000000 236003                    LDQ     0,DU
         2 000043   000045 710000 2                  TRA     s:1685+9
         2 000044   200011 506100                    DIV     WPL,,AUTO
         2 000045   200014 756100                    STQ     LCNT,,AUTO

       53     1686    1       GLOBAL.PRINTBUF.BUFFER=TITLE.TEXT;

   1686  2 000046   200005 474500                    LDP4    @TITLE,,AUTO
         2 000047   000100 101500                    MRL     fill='000'O
         2 000050   400000 000001                    ADSC9   0,,PR4                   cn=0,n=1
         2 000051   200022 000002                    ADSC9   OCTVAL+2,,AUTO           cn=0,n=2
         2 000052   200022 220100                    LDX0    OCTVAL+2,,AUTO
         2 000053   040100 100540                    MLR     fill='040'O
         2 000054   400000 200010                    ADSC9   0,,PR4                   cn=1,n=*X0
         2 000055   005025 000204                    ADSC9   2581,,PR0                cn=0,n=132

       54     1687    1       CALL M$WRITE(GLOBAL.WRITE$->FPT$WRITE);

   1687  2 000056   005113 471500                    LDP1    2635,,PR0
         2 000057   100000 630500                    EPPR0   0,,PR1
         2 000060   040001 713400                    CLIMB   write
         2 000061   401400 401760                    pmme    nvectors=4

       55     1688    1       GLOBAL.PRINTBUF.BUFFER='B';

   1688  2 000062   000000 470400 xsym               LDP0    GLOBAL$
         2 000063   040100 100400                    MLR     fill='040'O
         2 000064   000002 000001 3                  ADSC9   2                        cn=0,n=1
         2 000065   005025 000204                    ADSC9   2581,,PR0                cn=0,n=132

       56     1689    1       CALL M$WRITE(GLOBAL.WRITE$->FPT$WRITE);

   1689  2 000066   005113 471500                    LDP1    2635,,PR0
         2 000067   100000 630500                    EPPR0   0,,PR1
         2 000070   040001 713400                    CLIMB   write
         2 000071   401400 401760                    pmme    nvectors=4
PL6.E3A0      #001=ZID$DUMP File=ZIM$DUMP.:ZIC0TSI                               FRI 09/05/97 12:52 Page:12

       57     1690    1       GLOBAL.PRINTBUF.BUFFER='A pointer address =';

   1690  2 000072   000000 470400 xsym               LDP0    GLOBAL$
         2 000073   040100 100400                    MLR     fill='040'O
         2 000074   000002 000023 1                  ADSC9   2                        cn=0,n=19
         2 000075   005025 000204                    ADSC9   2581,,PR0                cn=0,n=132

       58     1691    1       POS=20;

   1691  2 000076   000024 235007                    LDA     20,DL
         2 000077   200015 755100                    STA     POS,,AUTO

       59     1692    2       DO I=0 TO 11;

   1692  2 000100   200006 450100                    STZ     I,,AUTO

       60     1693    2           GLOBAL.PRINTBUF.LINE(POS)=BINASC(START(I)+48);

   1693  2 000101   200006 236100                    LDQ     I,,AUTO
         2 000102   000003 402007                    MPY     3,DL
         2 000103   000000 116003                    CMPQ    0,DU
         2 000104   000106 605000 2                  TPL     s:1693+5
         2 000105   000044 036003                    ADLQ    36,DU
         2 000106   200003 470500                    LDP0    @START$,,AUTO
         2 000107   003100 061506                    CSR     bolr='003'O
         2 000110   000000 000003                    BDSC    0,Q,PR0                  by=0,bit=0,n=3
         2 000111   200022 000044                    BDSC    OCTVAL+2,,AUTO           by=0,bit=0,n=36
         2 000112   200022 236100                    LDQ     OCTVAL+2,,AUTO
         2 000113   000060 036007                    ADLQ    48,DL
         2 000114   000033 736000                    QLS     27
         2 000115   000003 276000 3                  ORQ     3
         2 000116   200023 756100                    STQ     OCTVAL+3,,AUTO
         2 000117   000000 471400 xsym               LDP1    GLOBAL$
         2 000120   200015 235100                    LDA     POS,,AUTO
         2 000121   040105 100500                    MLR     fill='040'O
         2 000122   200023 000004                    ADSC9   OCTVAL+3,,AUTO           cn=0,n=4
PL6.E3A0      #001=ZID$DUMP File=ZIM$DUMP.:ZIC0TSI                               FRI 09/05/97 12:52 Page:13
         2 000123   105025 000001                    ADSC9   2581,A,PR1               cn=0,n=1

       61     1694    2           POS=POS+1;

   1694  2 000124   200015 054100                    AOS     POS,,AUTO

       62     1695    2           END;

   1695  2 000125   200006 054100                    AOS     I,,AUTO
         2 000126   200006 235100                    LDA     I,,AUTO
         2 000127   000013 115007                    CMPA    11,DL
         2 000130   000101 604400 2                  TMOZ    s:1693

       63     1696    1       CALL M$WRITE(GLOBAL.WRITE$->FPT$WRITE);

   1696  2 000131   105113 473500                    LDP3    2635,,PR1
         2 000132   300000 630500                    EPPR0   0,,PR3
         2 000133   040001 713400                    CLIMB   write
         2 000134   401400 401760                    pmme    nvectors=4

       64     1697    1       GLOBAL.PRINTBUF.BUFFER='A';

   1697  2 000135   000000 470400 xsym               LDP0    GLOBAL$
         2 000136   040100 100400                    MLR     fill='040'O
         2 000137   000004 000001 3                  ADSC9   4                        cn=0,n=1
         2 000140   005025 000204                    ADSC9   2581,,PR0                cn=0,n=132

       65     1698    2       DO I=1 TO LCNT;

   1698  2 000141   000001 235007                    LDA     1,DL
         2 000142   200006 755100                    STA     I,,AUTO
         2 000143   000454 710000 2                  TRA     s:1753+1

       66     1699    2           IF GLOBAL.INHIB.DUMP=%NO# THEN

   1699  2 000144   000000 470400 xsym               LDP0    GLOBAL$
         2 000145   000016 236100                    LDQ     14,,PR0
PL6.E3A0      #001=ZID$DUMP File=ZIM$DUMP.:ZIC0TSI                               FRI 09/05/97 12:52 Page:14
         2 000146   000002 316007                    CANQ    2,DL
         2 000147   000457 600000 2                  TZE     EXIT_OPN

       67     1700    2               GOTO EXIT_OPN;
       68     1701    2           IF SIZE-(I-1)*WPL<=WPL THEN

   1701  2 000150   200006 236100                    LDQ     I,,AUTO
         2 000151   000001 136007                    SBLQ    1,DL
         2 000152   200011 402100                    MPY     WPL,,AUTO
         2 000153   200022 756100                    STQ     OCTVAL+2,,AUTO
         2 000154   200004 471500                    LDP1    @SIZE,,AUTO
         2 000155   100000 236100                    LDQ     0,,PR1
         2 000156   200022 136100                    SBLQ    OCTVAL+2,,AUTO
         2 000157   000163 604000 2                  TMI     s:1703
         2 000160   200011 116100                    CMPQ    WPL,,AUTO
         2 000161   000163 600000 2                  TZE     s:1703
         2 000162   000176 603000 2                  TRC     s:1707

       69     1702    3           DO; /* Partial (or just) last line */

       70     1703    3               WTL=SIZE-(I-1)*WPL;

   1703  2 000163   200006 236100                    LDQ     I,,AUTO
         2 000164   000001 136007                    SBLQ    1,DL
         2 000165   200011 402100                    MPY     WPL,,AUTO
         2 000166   200022 756100                    STQ     OCTVAL+2,,AUTO
         2 000167   100000 236100                    LDQ     0,,PR1
         2 000170   200022 136100                    SBLQ    OCTVAL+2,,AUTO
         2 000171   200012 756100                    STQ     WTL,,AUTO

       71     1704    3               GLOBAL.PRINTBUF.BUFFER='A'; /* Clear for partial */

   1704  2 000172   040100 100400                    MLR     fill='040'O
         2 000173   000004 000001 3                  ADSC9   4                        cn=0,n=1
         2 000174   005025 000204                    ADSC9   2581,,PR0                cn=0,n=132

       72     1705    3               END;
PL6.E3A0      #001=ZID$DUMP File=ZIM$DUMP.:ZIC0TSI                               FRI 09/05/97 12:52 Page:15

   1705  2 000175   000253 710000 2                  TRA     s:1725

       73     1706    2           ELSE
       74     1707    2               IF SIZE-(I-1)*WPL>=2*WPL THEN /* Enough to compare */

   1707  2 000176   200006 236100                    LDQ     I,,AUTO
         2 000177   000001 136007                    SBLQ    1,DL
         2 000200   200011 402100                    MPY     WPL,,AUTO
         2 000201   200022 756100                    STQ     OCTVAL+2,,AUTO
         2 000202   100000 236100                    LDQ     0,,PR1
         2 000203   200022 136100                    SBLQ    OCTVAL+2,,AUTO
         2 000204   200011 235100                    LDA     WPL,,AUTO
         2 000205   000001 735000                    ALS     1
         2 000206   200023 755100                    STA     OCTVAL+3,,AUTO
         2 000207   000000 116003                    CMPQ    0,DU
         2 000210   000253 604000 2                  TMI     s:1725
         2 000211   200023 116100                    CMPQ    OCTVAL+3,,AUTO
         2 000212   000253 602000 2                  TNC     s:1725

       75     1708    2                   IF PINCRW(P$,RELADR)->LINE=PINCRW(P$,RELADR+WPL)->LINE THEN

   1708  2 000213   200016 236100                    LDQ     RELADR,,AUTO
         2 000214   200011 036100                    ADLQ    WPL,,AUTO
         2 000215   200016 235100                    LDA     RELADR,,AUTO
         2 000216   000002 735000                    ALS     2
         2 000217   000002 736000                    QLS     2
         2 000220   200017 473500                    LDP3    P$,,AUTO
         2 000221   200013 720100                    LXL0    CPL,,AUTO
         2 000222   040146 106545                    CMPC    fill='040'O
         2 000223   300000 000010                    ADSC9   0,A,PR3                  cn=0,n=*X0
         2 000224   300000 000010                    ADSC9   0,Q,PR3                  cn=0,n=*X0
         2 000225   000235 601000 2                  TNZ     s:1714

       76     1709    2                       IF GLOBAL.PRINTBUF.LINE(8)='*' THEN

   1709  2 000226   005027 236100                    LDQ     2583,,PR0
PL6.E3A0      #001=ZID$DUMP File=ZIM$DUMP.:ZIC0TSI                               FRI 09/05/97 12:52 Page:16
         2 000227   777000 376003                    ANQ     -512,DU
         2 000230   052000 116003                    CMPQ    21504,DU
         2 000231   000450 600000 2                  TZE     NEXTI

       77     1710    2                           GOTO NEXTI; /* Keep old offset */
       78     1711    2                       ELSE
       79     1712    2                           GLOBAL.PRINTBUF.LINE(8)='*';

   1712  2 000232   052000 236003                    LDQ     21504,DU
         2 000233   005027 552140                    STBQ    2583,'40'O,PR0
         2 000234   000253 710000 2                  TRA     s:1725

       80     1713    2                   ELSE
       81     1714    2                       IF GLOBAL.PRINTBUF.LINE(8)='*' THEN

   1714  2 000235   005027 236100                    LDQ     2583,,PR0
         2 000236   777000 376003                    ANQ     -512,DU
         2 000237   052000 116003                    CMPQ    21504,DU
         2 000240   000244 601000 2                  TNZ     s:1720

       82     1715    3                       DO;

       83     1716    3                           GLOBAL.PRINTBUF.LINE(8)=' ';

   1716  2 000241   040000 236003                    LDQ     16384,DU
         2 000242   005027 552140                    STBQ    2583,'40'O,PR0

       84     1717    3                           GOTO NEXTI; /* Dont print if still same */

   1717  2 000243   000450 710000 2                  TRA     NEXTI

       85     1718    3                           END;
       86     1719    2                       ELSE
       87     1720    2                           IF GLOBAL.PRINTBUF.LINE(8)='*' THEN

   1720  2 000244   005027 236100                    LDQ     2583,,PR0
         2 000245   777000 376003                    ANQ     -512,DU
PL6.E3A0      #001=ZID$DUMP File=ZIM$DUMP.:ZIC0TSI                               FRI 09/05/97 12:52 Page:17
         2 000246   052000 116003                    CMPQ    21504,DU
         2 000247   000253 601000 2                  TNZ     s:1725

       88     1721    3                           DO;

       89     1722    3                               GLOBAL.PRINTBUF.LINE(8)=' ';

   1722  2 000250   040000 236003                    LDQ     16384,DU
         2 000251   005027 552140                    STBQ    2583,'40'O,PR0

       90     1723    3                               GOTO NEXTI; /* Dont print if still same */

   1723  2 000252   000450 710000 2                  TRA     NEXTI

       91     1724    3                               END;
       92     1725    2           OCTVAL=BINBIT(RELADR,36);

   1725  2 000253   200016 236100                    LDQ     RELADR,,AUTO
         2 000254   200020 756100                    STQ     OCTVAL,,AUTO

       93     1726    2           POS=2;

   1726  2 000255   000002 235007                    LDA     2,DL
         2 000256   200015 755100                    STA     POS,,AUTO

       94     1727    3           DO J=6 TO 11; /* Convert rel address */

   1727  2 000257   000006 235007                    LDA     6,DL
         2 000260   200007 755100                    STA     J,,AUTO

       95     1728    3               GLOBAL.PRINTBUF.LINE(POS)=BINASC(OCTVAL.DIGIT(J)+48);

   1728  2 000261   200007 236100                    LDQ     J,,AUTO
         2 000262   000003 402007                    MPY     3,DL
         2 000263   000000 116003                    CMPQ    0,DU
         2 000264   000266 605000 2                  TPL     s:1728+5
         2 000265   000044 036003                    ADLQ    36,DU
PL6.E3A0      #001=ZID$DUMP File=ZIM$DUMP.:ZIC0TSI                               FRI 09/05/97 12:52 Page:18
         2 000266   003100 061506                    CSR     bolr='003'O
         2 000267   200020 000003                    BDSC    OCTVAL,Q,AUTO            by=0,bit=0,n=3
         2 000270   200022 000044                    BDSC    OCTVAL+2,,AUTO           by=0,bit=0,n=36
         2 000271   200022 236100                    LDQ     OCTVAL+2,,AUTO
         2 000272   000060 036007                    ADLQ    48,DL
         2 000273   000033 736000                    QLS     27
         2 000274   000003 276000 3                  ORQ     3
         2 000275   200023 756100                    STQ     OCTVAL+3,,AUTO
         2 000276   000000 470400 xsym               LDP0    GLOBAL$
         2 000277   200015 235100                    LDA     POS,,AUTO
         2 000300   040105 100500                    MLR     fill='040'O
         2 000301   200023 000004                    ADSC9   OCTVAL+3,,AUTO           cn=0,n=4
         2 000302   005025 000001                    ADSC9   2581,A,PR0               cn=0,n=1

       96     1729    3               POS=POS+1;

   1729  2 000303   200015 054100                    AOS     POS,,AUTO

       97     1730    3               END;

   1730  2 000304   200007 054100                    AOS     J,,AUTO
         2 000305   200007 235100                    LDA     J,,AUTO
         2 000306   000013 115007                    CMPA    11,DL
         2 000307   000261 604400 2                  TMOZ    s:1728

       98     1731    2           POS=POS+2;

   1731  2 000310   000002 236007                    LDQ     2,DL
         2 000311   200015 056100                    ASQ     POS,,AUTO

       99     1732    3           DO J=0 TO WTL-1; /* Convert actual words */

   1732  2 000312   200007 450100                    STZ     J,,AUTO
         2 000313   000353 710000 2                  TRA     s:1739+1

      100     1733    3               OCTVAL=PINCRW(P$,RELADR+J)->ONEWORD;

PL6.E3A0      #001=ZID$DUMP File=ZIM$DUMP.:ZIC0TSI                               FRI 09/05/97 12:52 Page:19
   1733  2 000314   200016 236100                    LDQ     RELADR,,AUTO
         2 000315   200007 036100                    ADLQ    J,,AUTO
         2 000316   200017 470500                    LDP0    P$,,AUTO
         2 000317   000000 236106                    LDQ     0,QL,PR0
         2 000320   200020 756100                    STQ     OCTVAL,,AUTO

      101     1734    4               DO K=0 TO 11;

   1734  2 000321   200010 450100                    STZ     K,,AUTO

      102     1735    4                   GLOBAL.PRINTBUF.LINE(POS)=BINASC(OCTVAL.DIGIT(K)+48);

   1735  2 000322   200010 236100                    LDQ     K,,AUTO
         2 000323   000003 402007                    MPY     3,DL
         2 000324   000000 116003                    CMPQ    0,DU
         2 000325   000327 605000 2                  TPL     s:1735+5
         2 000326   000044 036003                    ADLQ    36,DU
         2 000327   003100 061506                    CSR     bolr='003'O
         2 000330   200020 000003                    BDSC    OCTVAL,Q,AUTO            by=0,bit=0,n=3
         2 000331   200022 000044                    BDSC    OCTVAL+2,,AUTO           by=0,bit=0,n=36
         2 000332   200022 236100                    LDQ     OCTVAL+2,,AUTO
         2 000333   000060 036007                    ADLQ    48,DL
         2 000334   000033 736000                    QLS     27
         2 000335   000003 276000 3                  ORQ     3
         2 000336   200023 756100                    STQ     OCTVAL+3,,AUTO
         2 000337   000000 470400 xsym               LDP0    GLOBAL$
         2 000340   200015 235100                    LDA     POS,,AUTO
         2 000341   040105 100500                    MLR     fill='040'O
         2 000342   200023 000004                    ADSC9   OCTVAL+3,,AUTO           cn=0,n=4
         2 000343   005025 000001                    ADSC9   2581,A,PR0               cn=0,n=1

      103     1736    4                   POS=POS+1;

   1736  2 000344   200015 054100                    AOS     POS,,AUTO

      104     1737    4                   END;

PL6.E3A0      #001=ZID$DUMP File=ZIM$DUMP.:ZIC0TSI                               FRI 09/05/97 12:52 Page:20
   1737  2 000345   200010 054100                    AOS     K,,AUTO
         2 000346   200010 235100                    LDA     K,,AUTO
         2 000347   000013 115007                    CMPA    11,DL
         2 000350   000322 604400 2                  TMOZ    s:1735

      105     1738    3               POS=POS+1;

   1738  2 000351   200015 054100                    AOS     POS,,AUTO

      106     1739    3               END;

   1739  2 000352   200007 054100                    AOS     J,,AUTO
         2 000353   200007 236100                    LDQ     J,,AUTO
         2 000354   000314 604000 2                  TMI     s:1733
         2 000355   200012 116100                    CMPQ    WTL,,AUTO
         2 000356   000314 602000 2                  TNC     s:1733

      107     1740    2           POS=10+13*WPL+3;

   1740  2 000357   200011 236100                    LDQ     WPL,,AUTO
         2 000360   000015 402007                    MPY     13,DL
         2 000361   000015 036007                    ADLQ    13,DL
         2 000362   200015 756100                    STQ     POS,,AUTO

      108     1741    3           DO J=0 TO WTL-1; /* Covert to ascii data */

   1741  2 000363   200007 450100                    STZ     J,,AUTO
         2 000364   000440 710000 2                  TRA     s:1750+1

      109     1742    3               OCTVAL=PINCRW(P$,RELADR+J)->ONEWORD;

   1742  2 000365   200016 236100                    LDQ     RELADR,,AUTO
         2 000366   200007 036100                    ADLQ    J,,AUTO
         2 000367   200017 470500                    LDP0    P$,,AUTO
         2 000370   000000 236106                    LDQ     0,QL,PR0
         2 000371   200020 756100                    STQ     OCTVAL,,AUTO

PL6.E3A0      #001=ZID$DUMP File=ZIM$DUMP.:ZIC0TSI                               FRI 09/05/97 12:52 Page:21
      110     1743    4               DO K=0 TO 3;

   1743  2 000372   200010 450100                    STZ     K,,AUTO

      111     1744    4                   IF OCTVAL.CHR(K)>=32 AND OCTVAL.CHR(K)<=126 THEN

   1744  2 000373   200010 235100                    LDA     K,,AUTO
         2 000374   000100 101505                    MRL     fill='000'O
         2 000375   200020 000001                    ADSC9   OCTVAL,A,AUTO            cn=0,n=1
         2 000376   200022 000004                    ADSC9   OCTVAL+2,,AUTO           cn=0,n=4
         2 000377   200022 236100                    LDQ     OCTVAL+2,,AUTO
         2 000400   000040 116007                    CMPQ    32,DL
         2 000401   000425 604000 2                  TMI     s:1747
         2 000402   000100 101505                    MRL     fill='000'O
         2 000403   200020 000001                    ADSC9   OCTVAL,A,AUTO            cn=0,n=1
         2 000404   200023 000004                    ADSC9   OCTVAL+3,,AUTO           cn=0,n=4
         2 000405   200023 236100                    LDQ     OCTVAL+3,,AUTO
         2 000406   000177 116007                    CMPQ    127,DL
         2 000407   000425 605000 2                  TPL     s:1747

      112     1745    4                       GLOBAL.PRINTBUF.LINE(POS)=BINASC(OCTVAL.CHR(K));

   1745  2 000410   000100 101505                    MRL     fill='000'O
         2 000411   200020 000001                    ADSC9   OCTVAL,A,AUTO            cn=0,n=1
         2 000412   200022 000004                    ADSC9   OCTVAL+2,,AUTO           cn=0,n=4
         2 000413   200022 236100                    LDQ     OCTVAL+2,,AUTO
         2 000414   000033 736000                    QLS     27
         2 000415   000003 276000 3                  ORQ     3
         2 000416   200023 756100                    STQ     OCTVAL+3,,AUTO
         2 000417   000000 470400 xsym               LDP0    GLOBAL$
         2 000420   200015 235100                    LDA     POS,,AUTO
         2 000421   040105 100500                    MLR     fill='040'O
         2 000422   200023 000004                    ADSC9   OCTVAL+3,,AUTO           cn=0,n=4
         2 000423   005025 000001                    ADSC9   2581,A,PR0               cn=0,n=1
         2 000424   000432 710000 2                  TRA     s:1748

      113     1746    4                   ELSE
PL6.E3A0      #001=ZID$DUMP File=ZIM$DUMP.:ZIC0TSI                               FRI 09/05/97 12:52 Page:22
      114     1747    4                       GLOBAL.PRINTBUF.LINE(POS)='.';

   1747  2 000425   000000 470400 xsym               LDP0    GLOBAL$
         2 000426   200015 236100                    LDQ     POS,,AUTO
         2 000427   040106 100400                    MLR     fill='040'O
         2 000430   000005 000001 3                  ADSC9   5                        cn=0,n=1
         2 000431   005025 000001                    ADSC9   2581,Q,PR0               cn=0,n=1

      115     1748    4                   POS=POS+1;

   1748  2 000432   200015 054100                    AOS     POS,,AUTO

      116     1749    4                   END;

   1749  2 000433   200010 054100                    AOS     K,,AUTO
         2 000434   200010 235100                    LDA     K,,AUTO
         2 000435   000003 115007                    CMPA    3,DL
         2 000436   000373 604400 2                  TMOZ    s:1744

      117     1750    3               END;

   1750  2 000437   200007 054100                    AOS     J,,AUTO
         2 000440   200007 236100                    LDQ     J,,AUTO
         2 000441   000365 604000 2                  TMI     s:1742
         2 000442   200012 116100                    CMPQ    WTL,,AUTO
         2 000443   000365 602000 2                  TNC     s:1742

      118     1751    2           CALL M$WRITE(GLOBAL.WRITE$->FPT$WRITE);

   1751  2 000444   005113 471500                    LDP1    2635,,PR0
         2 000445   100000 630500                    EPPR0   0,,PR1
         2 000446   040001 713400                    CLIMB   write
         2 000447   401400 401760                    pmme    nvectors=4

      119     1752    2   NEXTI:  RELADR=RELADR+WPL;

   1752  2 000450   200016 236100       NEXTI        LDQ     RELADR,,AUTO
PL6.E3A0      #001=ZID$DUMP File=ZIM$DUMP.:ZIC0TSI                               FRI 09/05/97 12:52 Page:23
         2 000451   200011 036100                    ADLQ    WPL,,AUTO
         2 000452   200016 756100                    STQ     RELADR,,AUTO

      120     1753    2           END;

   1753  2 000453   200006 054100                    AOS     I,,AUTO
         2 000454   200006 236100                    LDQ     I,,AUTO
         2 000455   200014 116100                    CMPQ    LCNT,,AUTO
         2 000456   000144 604400 2                  TMOZ    s:1699

      121     1754    1   EXIT_OPN: RETURN;

   1754  2 000457   000000 702200 xent  EXIT_OPN     TSX2  ! X66_ARET

(unnamed)
 Sect OctLoc
   1     000   104125 115120   114117 040040   101040 160157   151156 164145    DUMPLO  A pointe
   1     004   162040 141144   144162 145163   163040 075040                    r address =

(unnamed)
 Sect OctLoc
   3     000   000001 000000   000001 006000   102040 040040   000040 040040    ........B   .
   3     004   101040 040040   056040 040040                                    A   .
      122     1755    1   END ZID$DUMP;

PL6.E3A0      #001=ZID$DUMP File=ZIM$DUMP.:ZIC0TSI                               FRI 09/05/97 12:52 Page:24
--  Include file information  --

   ZI$USER.:ZIC0TOU  is referenced.
   ZI$GLOBAL.:ZIC0TOU  is referenced.
   CP_6_SUBS.:LIB_E05  is referenced.
   CP_6.:LIB_E05  cannot be made into a system file and is referenced.
   B$JIT_C.:E05TOU  was found in the system file and is never referenced.
   CP_6_C.:E05TOU  was found in the system file and is referenced.
      No diagnostics issued in procedure ZID$DUMP.

   Procedure ZID$DUMP requires 304 words for executable code.
   Procedure ZID$DUMP requires 20 words of local(AUTO) storage.

    No errors detected in file ZIM$DUMP.:ZIC0TSI    .
PL6.E3A0      #001=ZID$DUMP File=ZIM$DUMP.:ZIC0TSI                               FRI 09/05/97 12:52 Page:25
          *** CROSS REFERENCE LISTING ***
**     DENOTES     IDENTIFIER DEFINITION
<<                 IDENTIFIER'S VALUE SET
>>                 IDENTIFIER'S VALUE USED
<>                 IDENTIFIER SET AND/OR USED
--                 IDENTIFIER REFERENCED
PL6.E3A0      #001=ZID$DUMP File=ZIM$DUMP.:ZIC0TSI                               FRI 09/05/97 12:52 Page:26
          MINI XREF LISTING

CPL
      1663**DCL      1671--IMP-SIZ  1681<<ASSIGN   1708>>IF       1708>>IF
EXIT_OPN
      1754**LABEL    1678--CALLALT  1700--GOTO
FPT$WRITE
       108**DCL      1687<>CALL     1689<>CALL     1696<>CALL     1751<>CALL
FPT$WRITE.STATION_
       110**DCL       110--REDEF
FPT$WRITE.V.DCB#
       111**DCL      1679<<ASSIGN
FPT$WRITE.V.DVBYTE.VFC#
       117**DCL       117--REDEF
GLOBAL.ACTIVE.DBCB$
      1155**DCL      1156--REDEF
GLOBAL.ACTIVE.SSS$
      1151**DCL      1152--REDEF
GLOBAL.DCBNAME.LENGTH
      1370**DCL      1677<<ASSIGN
GLOBAL.DCBNAME.TEXT
      1371**DCL      1676<<ASSIGN
GLOBAL.DCBNUMBER
      1358**DCL      1679>>ASSIGN
GLOBAL.INHIB.DUMP
      1180**DCL      1674<<ASSIGN   1699>>IF
GLOBAL.KEY
      1359**DCL      1362--REDEF
GLOBAL.PARAN.TRACE.MODE
      1234**DCL      1241--REDEF
GLOBAL.PRINTBUF.BUFFER
      1393**DCL      1394--REDEF    1395--REDEF    1396--REDEF    1686<<ASSIGN   1688<<ASSIGN   1690<<ASSIGN
      1697<<ASSIGN   1704<<ASSIGN
GLOBAL.PRINTBUF.ERR.V
PL6.E3A0      #001=ZID$DUMP File=ZIM$DUMP.:ZIC0TSI                               FRI 09/05/97 12:52 Page:27
      1398**DCL      1401--REDEF    1402--REDEF    1403--REDEF
GLOBAL.PRINTBUF.LINE
      1394**DCL      1693<<ASSIGN   1709>>IF       1712<<ASSIGN   1714>>IF       1716<<ASSIGN   1720>>IF
      1722<<ASSIGN   1728<<ASSIGN   1735<<ASSIGN   1745<<ASSIGN   1747<<ASSIGN
GLOBAL.WRITE$
      1427**DCL      1679>>ASSIGN   1687>>CALL     1689>>CALL     1696>>CALL     1751>>CALL
GLOBAL$
      1453**DCL      1149--IMP-PTR  1674>>ASSIGN   1676>>ASSIGN   1677>>ASSIGN   1679>>ASSIGN   1679>>ASSIGN
      1686>>ASSIGN   1687>>CALL     1688>>ASSIGN   1689>>CALL     1690>>ASSIGN   1693>>ASSIGN   1696>>CALL
      1697>>ASSIGN   1699>>IF       1704>>ASSIGN   1709>>IF       1712>>ASSIGN   1714>>IF       1716>>ASSIGN
      1720>>IF       1722>>ASSIGN   1728>>ASSIGN   1735>>ASSIGN   1745>>ASSIGN   1747>>ASSIGN   1751>>CALL
I
      1658**DCL      1692<<DOINDEX  1693>>ASSIGN   1698<<DOINDEX  1701>>IF       1703>>ASSIGN   1707>>IF
IA.SNAME
      1626**DCL      1627--REDEF
IA.SSDT
      1638**DCL      1639--REDEF
IA.SSNAME
      1629**DCL      1630--REDEF
IA$
      1640**DCL      1605--IMP-PTR
J
      1659**DCL      1727<<DOINDEX  1728>>ASSIGN   1732<<DOINDEX  1733>>ASSIGN   1741<<DOINDEX  1742>>ASSIGN
K
      1660**DCL      1734<<DOINDEX  1735>>ASSIGN   1743<<DOINDEX  1744>>IF       1744>>IF       1745>>ASSIGN
LCNT
      1664**DCL      1685<<ASSIGN   1698>>DOINDEX
LINE
      1671**DCL      1708>>IF       1708>>IF
M$WRITE
        20**DCL-ENT  1687--CALL     1689--CALL     1696--CALL     1751--CALL
NEXTI
      1752**LABEL    1710--GOTO     1717--GOTO     1723--GOTO
OCTVAL
      1668**DCL      1725<<ASSIGN   1733<<ASSIGN   1742<<ASSIGN
OCTVAL.CHR
PL6.E3A0      #001=ZID$DUMP File=ZIM$DUMP.:ZIC0TSI                               FRI 09/05/97 12:52 Page:28
      1670**DCL      1744>>IF       1744>>IF       1745>>ASSIGN
OCTVAL.DIGIT
      1669**DCL      1670--REDEF    1728>>ASSIGN   1735>>ASSIGN
ONEWORD
      1672**DCL      1733>>ASSIGN   1742>>ASSIGN
P$
      1667**DCL      1682<<ASSIGN   1708>>IF       1708>>IF       1733>>ASSIGN   1742>>ASSIGN
POS
      1665**DCL      1691<<ASSIGN   1693>>ASSIGN   1694<<ASSIGN   1694>>ASSIGN   1726<<ASSIGN   1728>>ASSIGN
      1729<<ASSIGN   1729>>ASSIGN   1731<<ASSIGN   1731>>ASSIGN   1735>>ASSIGN   1736<<ASSIGN   1736>>ASSIGN
      1738<<ASSIGN   1738>>ASSIGN   1740<<ASSIGN   1745>>ASSIGN   1747>>ASSIGN   1748<<ASSIGN   1748>>ASSIGN
RELADR
      1666**DCL      1684<<ASSIGN   1708>>IF       1708>>IF       1725>>ASSIGN   1733>>ASSIGN   1742>>ASSIGN
      1752<<ASSIGN   1752>>ASSIGN
SIZE
      1652**DCL         7--PROC     1685>>ASSIGN   1701>>IF       1703>>ASSIGN   1707>>IF
START
      1651**DCL      1693>>ASSIGN
START$
      1650**DCL         7--PROC     1651--REDEF    1682>>ASSIGN
TITLE
      1653**DCL         7--PROC
TITLE.COUNT
      1654**DCL      1655--IMP-SIZ  1686>>ASSIGN
TITLE.TEXT
      1655**DCL      1686>>ASSIGN
WPL
      1661**DCL      1680<<ASSIGN   1681>>ASSIGN   1683>>ASSIGN   1685>>ASSIGN   1685>>ASSIGN   1701>>IF
      1701>>IF       1703>>ASSIGN   1707>>IF       1707>>IF       1708>>IF       1740>>ASSIGN   1752>>ASSIGN
WTL
      1662**DCL      1683<<ASSIGN   1703<<ASSIGN   1732>>DOINDEX  1741>>DOINDEX
ZIO$DFLTOPN
      1657**DCL-ENT  1678--CALL
