
 12:53 09/05/97  FILE=ZIM$ENTRY.:ZIC0TSI                                                                 1    BMAP - B00
                                         1  *M*  ZIR$ENTRY
                                         2  *T***********************************************************
                                         3  *T*                                                         *
                                         4  *T* Copyright (c) Bull HN Information Systems Inc., 1997    *
                                         5  *T*                                                         *
                                         6  *T***********************************************************
                                         7  *
                                         8  *F*  NAME:  ZIR$ENTRY
                                         9  *
                                        10  *      PURPOSE:
                                        11  *
                                        12  *        This routine receives all climbs to the DBCS, invoking
                                        13  *        the applicable DBCS entry routine for a specific climb
                                        14  *        function code.  Global, as well as automatic storage
                                        15  *        frames are obtained and initialized in behalf of the
                                        16  *        DBCS on receipt of the first climb.
                                        17  *
                                        18  *      PROCEDURE:
                                        19  *
                                        20  *              1)  If this is the first call to the DBCS
                                        21  *                  and the climb is for DBHIA -
                                        22  *
                                        23  *                  a)  The automatic storage frame is obtained.
                                        24  *
                                        25  *                  b)  ZIO$INIT is called to initialize global
                                        26  *                      storage for the DBCS.
                                        27  *
                                        28  *              2)  Whether or not this is the first call
                                        29  *                  to the DBCS, the following occurs -
                                        30  *
                                        31  *                  c)  The DBCS entry routine corresponding to the
                                        32  *                      function code given on the climb is called.
                                        33  *
                                        34  *                  d)  Upon completion, return is made to the user.
                                        35         ENTDEF  ZIR$ENTRY   ASL start addr (entered by climb sequence)
                                        36         ENTDEF  ZIR$ESCAPE  Special exit sequence for 'use' procedures
                                        37           ENTDEF   ZIR$EXIT             ASL exit address
 12:53 09/05/97  FILE=ZIM$ENTRY.:ZIC0TSI                                                                 2    BMAP - B00
                                        38  *
                                        39  *
                                        40           ENTREF      X66_MSTATIC
                                        41         ENTREF  ZIO$CHKSSN
                                        42         ENTREF  ZIO$INIT
                                        43           ENTREF      ZIM$RESAUTO
                                        44           ENTREF   ZID$ASTATS
                                        45           ENTREF      ZIM$USEP
                                        46           ENTREF      ZIM$CLEANUP
                                        47           ENTREF      ZIM$TRACE
                                        48           ENTREF      ZIB$CLRRECOVER
                                        49  *
                                        50         SYMREF  AUTOSEG$
                                        51         SYMREF  GLOBAL$
                                        52         SYMREF  IA$
                                        53         SYMREF  UWA$
                                        54        SYMREF   B$TCB$
                                        55  *
                                        56         SEGREF  PIASID
                                        57  *
                                        58  *      Bit masks for special PMME return flags in IA.UPFLAG.FLAGS
             000000400000               59  XCONFLG BOOL   400000         indicates exit-control while in ASL
             000000200000               60  BRKFLG  BOOL   200000         indicates break received by ASL
             000000600000               61  RTNFLGS BOOL   XCONFLG+BRKFLG
             777777177777               62  NORTNFLG BOOL  /RTNFLGS       flags unrelated to special PMME returns
                                        63  *
                                        64  *      CP-6 monitor PMME macros
             000000400000               65  ALTRETFLG BOOL 400000         ALTRET request flag for PMME
                                        66  M$INTRTN MACRO
                                        67         PMME    17+#1
                                        68         ENDM
                                        69  *
                                        70  *      Macro used for errors detected by this routine.
                                        71  ERROR MACRO    error_code
                                        72           LDA      #1,DL
                                        73           TRA      #2
                                        74         ENDM    ERROR
 12:53 09/05/97  FILE=ZIM$ENTRY.:ZIC0TSI                                                                 3    BMAP - B00
                                        75  *
                                        76  *      Information Area (IA) structure definitions
             000000000006               77  IAMODE EQU     6              IA.MODE
             000000000010               78  IAMODESTATSBIT BOOL 10        IA.MODE.STATS mask
                                        79  *
                                        80         LODM    Q2MA
                                        81         Q2SYM

 12:53 09/05/97  FILE=ZIM$ENTRY.:ZIC0TSI                                                                 4    BMAP - B00
                                        82         EJECT
                                        83  *  ZIR$ENTRY
                                        84  *
                                        85  *      First check for auto & global allocation, then  call the
                                        86  *      appropriate DBCS entry routine to perform function requested.
                                        87  *
 0 000000                               88  ZIR$ENTRY NULL
   000000    000000 6270 10             89         EAX     X7,0,X0              function code of climb into X7.
   000001 (0)000243 6044 00             90           TMOZ     BADFCN               Legal codes all positive
   000002    000063 1070 03             91           CMPX  X7,I$DBCSEXCFCN,DU   Maximum function code
   000003 (0)000243 6050 00             92           TPL   BADFCN               out of range
                                        93  *
                                        94  *      See if global allocation has been performed (1st call if not).
   000004  X 000000 4774 07             95         LDP     PR7,PIASID,DL        PR7 -> PIA segment
   000005  X 000000 4754 00             96           LDP      PR5,GLOBAL$          Preserved throughout
                                        97         INHIB   ON
   000006    7 00000 0557 00            98           STD      PR5,0,,PR7           Store global descriptor in PIA
   000007    7 00000 2353 00            99         LDA     0,,PR7               Load global descriptor flags
                                       100         INHIB   OFF
   000010    100600 3750 07            101         ANA     =O100600,DL          If Read Allowed, Bound Relevant,
   000011    100600 1150 07            102         CMPA    =O100600,DL          and Segment Present...
   000012 (0)000017 6010 00            103           TNZ      CHKAUTO              Not true. No Global.
   000013  X 000000 4724 00            104           LDP      PR2,AUTOSEG$         Pointer to AUTO segment
   000014    2 00000 7221 00           105           LXL      X2,0,,PR2            Offset to top auto frame
   000015    2 00001 5274 12           106           SWDX     1,X2,PR2             Compute pointer to frame
   000016 (0)000040 7100 00            107           TRA      SETUP                Proceed with function requested
   000017                              108  CHKAUTO  NULL
                                       109  *
                                       110  *      See if an automatic storage frame exists for the DBCS.
   000017  X 000000 4724 00            111           LDP      PR2,AUTOSEG$         Pointer to AUTO segment
                                       112           INHIB    ON
   000020    7 00000 0527 00           113           STD      PR2,0,,PR7           Store auto descriptor in PIA
   000021    7 00000 2353 00           114         LDA     0,,PR7               Load auto descriptor flags
                                       115         INHIB   OFF
   000022    100600 3750 07            116         ANA     =O100600,DL          If Read Allowed, Bound Relevant,
   000023    100600 1150 07            117         CMPA    =O100600,DL          and Segment Present...
   000024 (0)000030 6000 00            118         TZE     GOTAUTO              then automatic storage exists
 12:53 09/05/97  FILE=ZIM$ENTRY.:ZIC0TSI                                                                 5    BMAP - B00
   000025  X 000000 7000 00            119           TSX      X0,X66_MSTATIC       Set up initial AUTO frame
   000026    000000 000000             120           ZERO     0,0
   000027 (0)000032 7100 00            121           TRA      INIT
   000030    2 00000 7221 00           122  GOTAUTO  LXL      X2,0,,PR2            Offset to top auto frame
   000031    2 00001 5274 12           123           SWDX     1,X2,PR2             Compute pointer to frame
   000032                              124  INIT     NULL
                                       125  *      Perform DBCS initialization.
   000032  X 000000 7010 00            126           DBCAL    ZIO$INIT,,NOGLOBAL
   000033 (0)000245 7020 00
   000034    5 00006 2341 00
   000035    777776 6010 04
   000036  X 000000 7010 00            127           DBCAL    ZIM$RESAUTO,,NOALT   Reserve enough auto for future
   000037    000000 0020 00
                                       128  *        Context present at this point.
                                       129  *        Set up parameters for function requested.
   000040                              130  SETUP    NULL
   000040 (1)000000 6340 00            131           LDI  =O004010
   000041    5 00004 4471 00           132           SXL      X7,FCN,,PR5       function code of climb
   000042 (0)000262 2360 17            133           LDQ      ZI_FCNVCT-1,X7          Get transfer vector word
   000043    000011 7720 00            134           QRL      9                       Align statment code
   000044    000077 3760 07            135           ANQ      =O77,DL                 Mask out garbage
   000045    5 00015 4501 00           136           STZ      GPAGE,,PR5           Erase previous page no.
   000046    5 00014 7561 00           137           STQ      GSTCD,,PR5           Erase DCB# and save STCD
   000047    5 00006 4501 00           138           STZ      GERROR,,PR5          Erase previous error
   000050    5 00007 4501 00           139           STZ      GSYSERR,,PR5       Erase previous CP-6 error
   000051  X 000000 7010 00            140           DBCAL    ZIB$CLRRECOVER,,NOALT   Erase FPT RECOVER address
   000052    000000 0020 00
   000053    5 00002 4501 00           141           STZ      ACTDBNO,,PR5         No active DataBase
                                       142  *        see if an ETC is pending
   000054    5 00005 2361 00           143           LDQ      ETCDBNO,,PR5         ETC pending indicator
   000055 (0)000062 6000 00            144           TZE      DMLCHK               No
   000056    000054 1070 03            145           CMPX     X7,I$ETC,DU          Is this ETC
   000057 (0)000062 6000 00            146           TZE      DMLCHK               Yes proceed
   000060    210670 2350 07            147           ERROR    RCVER2,DMLALT      ETC Pending but not issued
   000061 (0)000136 7100 00
   000062                              148  DMLCHK
   000062 (0)000262 7200 17            149           LXL   X0,ZI_FCNVCT-1,X7      get transfer vector word
 12:53 09/05/97  FILE=ZIM$ENTRY.:ZIC0TSI                                                                 6    BMAP - B00
   000063    000001 3600 03            150           ANX   X0,1,DU              standard DML call
   000064    5 00004 7401 00           151           STX   X0,FCN,,PR5
   000065    5 00061 2221 00           152           LDX     X2,TMODE,,PR5  LOAD GLOBAL.PENDING
   000066 (0)000073 6000 00            153           TZE     NOTRACE          NO TRACE
   000067    000001 2210 03            154           LDX      X1,.TRENTRY,DU       Trace type
   000070    5 00060 7411 00           155           STX      X1,GTRTYPE,,PR5      Store in parameter block
   000071  X 000000 7010 00            156           DBCAL    ZIM$TRACE,,NOALT
   000072    000000 0020 00
   000073    5 00004 7271 00           157  NOTRACE  LXL      X7,FCN,,PR5         Load function code back into $X7
   000074 (0)000262 7200 17            158           LXL      X0,ZI_FCNVCT-1,X7    Get transfer vector word again
   000075    000001 3600 03            159           ANX      X0,1,DU              Check for standard DML call
   000076 (0)000126 6000 00            160           TZE   FUNCT                no. just perform function
   000077  X 000000 4704 00            161           LDP   PR0,IA$
   000100    0 00007 4501 00           162           STZ   UPFLAG,,PR0             Reset use procedure flag
   000101    0 00054 2351 00           163           LDA     44,,PR0          GET SPECIAL TRACE PASSWORD
   000102 (0)000111 6000 00            164           TZE     CHKX7            CHECK FUNC CODE
   000103 (0)000125 1150 00            165           CMPA    TRON
   000104 (0)000111 6010 00            166           TNZ     CHKX7            PASSWORD NOT RIGHT
   000105    0 00054 4501 00           167           STZ     44,,PR0          RESET
   000106    0 00053 2351 00           168           LDA     43,,PR0
   000107    760000 3750 03            169           ANA     =O760000,DU      GET TRACE OPTION
   000110    5 00061 7551 00           170           STA     TMODE,,PR5
   000111                              171  CHKX7    NULL
   000111    000002 1070 03            172           CMPX     X7,I$HIA,DU          Is this for DBHIA
   000112 (0)000117 6000 00            173           TZE      DMLCALL              Yes.  Skip Subschema check.
   000113  X 000000 7010 00            174           DBCAL    ZIO$CHKSSN,,NODATABASE  Select Database.
   000114 (0)000237 7020 00
   000115    5 00006 2341 00
   000116    777776 6010 04
   000117                              175  DMLCALL  NULL
   000117 (0)000262 2270 17            176           LDX      X7,ZI_FCNVCT-1,X7    Get address of routine
   000120    000000 7010 17            177           DBCAL    (0,X7),,DMLALT       Call it.
   000121 (0)000136 7020 00
   000122    5 00006 2341 00
   000123    777776 6010 04
   000124 (0)000147 7100 00            178           TRA      EXIT
   000125    124122117116              179  TRON     ASCII   1,TRON
 12:53 09/05/97  FILE=ZIM$ENTRY.:ZIC0TSI                                                                 7    BMAP - B00
   000126                              180  FUNCT    NULL
                                       181  *        Any non DML that altrets must have PS1 as a valid IA
   000126 (0)000262 2270 17            182           LDX      X7,ZI_FCNVCT-1,X7    Get address of routine
   000127    000000 7010 17            183           DBCAL    (0,X7),STATS,DMLALT  Call it.
   000130 (0)000136 7020 00
   000131    5 00006 2341 00
   000132    000003 6000 04
   000133    5 00006 4501 00
   000134 (0)000160 7020 00
   000135 (0)000160 7100 00            184           TRA      STATS

 12:53 09/05/97  FILE=ZIM$ENTRY.:ZIC0TSI                                                                 8    BMAP - B00
                                       185         EJECT
                                       186  *      An error has occurred while processing the requested function
   000136                              187  DMLALT   NULL
   000136  X 000000 7010 00            188           DBCAL    ZIM$USEP,,IGNORE1    Process exception returns
   000137 (0)000142 7020 00
   000140    5 00006 2341 00
   000141    777776 6010 04
   000142                              189  IGNORE1  NULL
   000142    5 00002 2341 00           190           SZN      ACTDBNO,,PR5            Is there an active DataBase
   000143 (0)000147 6000 00            191           TZE      EXIT                    No
                                       192  *  MARK RVO AS NOT CURR OF RUN
   000144    000000 6210 00            193         EAX     X1,0
   000145    7 00511 4411 00           194         SXL     X1,RVO,,PR7     SET RVO LOWER TO ZERO
                                       195  *  RESET INDICATOR TO USE PA RECORDS FOR A PA SET
   000146    7 00735 4411 00           196         SXL     X1,DUSEPA,,PR7  SET INDIC. TO USE PA
                                       197  *

 12:53 09/05/97  FILE=ZIM$ENTRY.:ZIC0TSI                                                                 9    BMAP - B00
                                       198         EJECT
                                       199  *
                                       200  *      DBCS exit to user sequence.
                                       201  *
   000147                              202  EXIT     NULL
   000147  X 000000 4704 00            203         LDP     PR0,UWA$
   000150    0 000 100 3015 00         204           BTD      (1),(1)              GLOBAL.RET.ERROR -> UWA.DBST
   000151    5 00006 0 0 0 00 04       205           NDSC9    GERROR,0,4,0,0,PR5   from binary
   000152    0 00001 0 0 3 00 07       206           NDSC9    DBST,0,7,3,0,PR0     to ASCII
   000153                              207  NDMLALT  NULL
   000153    5 00007 2351 00           208           LDA      GSYSERR,,PR5       Get possible CP-6 error
   000154  X 000000 4704 00            209           LDP      PR0,IA$              Pointer to IA
   000155    0 00005 7551 00           210           STA      ISYSERR,,PR0         Store in IA
   000156    5 00014 2211 00           211           LDX      X1,GDCB,,PR5         Possible DCB number
   000157    0 00004 4411 00           212           SXL      X1,ISYSDCB,,PR0      Save in IA
   000160                              213  STATS    NULL
   000160  X 000000 7010 00            214           DBCAL    ZID$ASTATS,,XEXIT    Accumulate statistics
   000161 (0)000164 7020 00
   000162    5 00006 2341 00
   000163    777776 6010 04
   000164                              215  XEXIT    NULL
   000164    5 00017 2351 00           216           LDA      PENDING,,PR5         Get pending flags
   000165    000400 3150 03            217           CANA     .EXIT,DU             Xcon exit pending
   000166 (0)000174 6000 00            218           TZE      RELEASE              No.
   000167    210664 2350 07            219           LDA      XUNEX,DL             Error code
   000170    5 00006 7551 00           220           STA      GERROR,,PR5          Store in GLOBAL.RET.ERROR#
   000171    000002 7134 00            221           PMME     2                    Yes. Issue M$ERR.
   000172    0 000 000 40 1760
   000173    000001 0020 00            222           DRL      1                    Should never get here.
   000174    5 00017 2341 00           223  RELEASE  SZN      PENDING,,PR5         Is release pending?
   000175 (0)000202 6050 00            224           TPL      BREAK                No.
   000176  X 000000 7010 00            225           TSX1     ZIM$CLEANUP          Try to release global
   000177 (0)000211 7100 00            226           TRA      ZIR$EXIT                  Altret.  Unsuccessful.
   000200    000000 0110 00            227           NOP      0              For release B00 call 6RAUT here
   000201 (0)000211 7100 00            228           TRA      ZIR$EXIT                  Cant check. No global.
                                       229           INHIB    ON
   000202    5 00016 2353 00           230  BREAK    LDA      GINHIB,,PR5          Get status word
 12:53 09/05/97  FILE=ZIM$ENTRY.:ZIC0TSI                                                                 10   BMAP - B00
   000203    000001 3152 07            231           CANA     .BREAK,DL            Was break hit during ASL
   000204 (0)000211 6002 00            232           TZE      ZIR$EXIT                  No.
   000205    000001 6752 07            233           ERA      .BREAK,DL            Clear pending break.
   000206    5 00016 7553 00           234           STA      GINHIB,,PR5          Restore status
   000207    400021 7134 00            235         M$INTRTN ALTRETFLG     return break occurance to user
   000210    0 000 000 40 1760
                                       236         INHIB   OFF
                                       237  *
                                       238  *      Perform the normal user return sequence
   000211                              239  ZIR$EXIT NULL
   000211    000000 0110 00            240           NOP   0                       To allow break point
   000212    000000 7134 00            241         EXIT                    return to user
   000213    0 000 000 01 0000

 12:53 09/05/97  FILE=ZIM$ENTRY.:ZIC0TSI                                                                 11   BMAP - B00
                                       242         EJECT
                                       243  *      Special entry routine to handle the user ETC request.
                                       244  *
   000214                              245  ZIR$DBETC NULL
                                       246  *      See if an ETC is pending in the DBCS.
   000214    5 00005 2361 00           247           LDQ      ETCDBNO,,PR5         get DBNO of pending ETC
   000215    777777 3760 07            248           ANQ      -1,DL                Mask out address portion
   000216    5 00002 1161 00           249           CMPQ     ACTDBNO,,PR5         was ETC issued for this one
   000217 (0)000233 6010 00            250         TNZ     ETCERR          error if active DB not pending for ETC
                                       251  *      Valid ETC function, return to DBCS at the point of escape.
   000220    000003 6210 00            252           EAX      X1,I$RDY             Ready function code
   000221    5 00004 4411 00           253           SXL      X1,FCN,,PR5       In case exits normaly
   000222    5 00005 2211 00           254           LDX      X1,ETCADR,,PR5       address of routine for ETC
   000223    5 00005 4501 00           255           STZ      ETCDBNO,,PR5         clear ETC pending flag
   000224    000001 7100 11            256         TRA     1,X1                 return to escaped DBCS process
                                       257  *
                                       258  *
                                       259  *      Special exit to user for execution of a 'use' procedure.
                                       260  *
   000225                              261  ZIR$ESCAPE NULL
   000225    5 00002 2361 00           262           LDQ      ACTDBNO,,PR5         get DBNO for pending ETC
   000226    5 00005 7561 00           263           STQ      ETCDBNO,,PR5         Remember it
   000227    5 00005 7411 00           264           STX      X1,ETCADR,,PR5       Address of routine for ETC
   000230    000054 6270 00            265           EAX      X7,I$ETC             Etcetera function code
   000231    5 00004 4471 00           266           SXL      X7,FCN,,PR5       Set for stats
   000232 (0)000160 7100 00            267           TRA      STATS
                                       268  *        For real sumulation of check privacy change above branch to
                                       269  *        ZIR$ENTRY+.4 and set only second change in ZID$DBCKP to
                                       270  *        force passwords to match

 12:53 09/05/97  FILE=ZIM$ENTRY.:ZIC0TSI                                                                 12   BMAP - B00
                                       271         EJECT
                                       272  *      Error return's
                                       273  *
   000233                              274  ETCERR   NULL
   000233    5 00002 4501 00           275           STZ      ACTDBNO,,PR5        Clear possible DB refrence
   000234    210667 2350 07            276           LDA      RCVER1,DL            Error code
   000235    5 00006 7551 00           277           STA      GERROR,,PR5          Put into GLOBAL.RET.ERROR#
   000236 (0)000136 7100 00            278           TRA      DMLALT               Enter error processing.
   000237                              279  NODATABASE  NULL
   000237    5 00002 4501 00           280           STZ      ACTDBNO,,PR5        Clear possible DB refrence
   000240    210672 2350 07            281           LDA      RCVER5,DL            Error code
   000241    5 00006 7551 00           282           STA      GERROR,,PR5          Put into GLOBAL.RET.ERROR#
   000242 (0)000136 7100 00            283           TRA      DMLALT               Enter error processing.
                                       284  * the following errors occur with no context available
                                       285  * all we can do is enter codes in UWA
   000243                              286  BADFCN   NULL
   000243    210673 2350 07            287           ERROR    RCVER6,ERRXIT        Invalid function code
   000244 (0)000247 7100 00
   000245                              288  NOGLOBAL NULL
   000245    210671 2350 07            289           ERROR    RCVER4,ERRXIT        Cant get memory for GLOBAL
   000246 (0)000247 7100 00
   000247                              290  ERRXIT   NULL
   000247  X 000000 4704 00            291           LDP      PR0,UWA$
   000250  X 000000 4774 07            292           LDP      PR7,PIASID,DL        PIA segment
                                       293           INHIB    ON
   000251    7 00000 7553 00           294           STA      0,,PR7               Store in PIA->0
   000252    0 000 100 3017 00         295           BTD      (1),(1)              PIA->0 -> UWA.STCD
   000253  X 000000 4706 00            296            LDP       PR0,B$TCB$          The TCB
   000254    0 00000 4707 00           297            LDP       PR0,0,,PR0          The altret frame.
   000255    0 00102 2353 00           298            LDA       66,,PR0             The error code.
   000256  X 000000 4706 00            299            LDP       PR0,IA$             The IA.
   000257    0 00005 7553 00           300            STA       ISYSERR,,PR0        Save the CP-6 error code.
   000260    7 00000 0 0 0 00 04       301           NDSC9    0,0,4,0,0,PR7        from binary
   000261    0 00001 0 0 3 00 07       302           NDSC9    DBST,0,7,3,0,PR0     to ASCII
   000262 (0)000211 7102 00            303           TRA      ZIR$EXIT
                                       304           INHIB    OFF

 12:53 09/05/97  FILE=ZIM$ENTRY.:ZIC0TSI                                                                 13   BMAP - B00
                                       305         EJECT
                                       306  *      Function code definitions, & corresponding DBCS entry table
                                       307  *
                                       308         LODM    ZI_DBCS_FCNS
                                       309           DBCS_FCNS  TABLE
                                             PMC ON

                                                 Data Base Control System climb function codes.


                                             DBCS_ENTRY I$ROL,ZIM$EROL,IDS,0    Rollback Transient File
             000000000001                   I$ROL EQU I$DBCSEXCFCN
                                             PMC ON
   000263  X 000000 023 000                  VFD 18/ZIM$EROL,9/IDS,9/0
                                             PMC ON
                                             DBCS_ENTRY I$HIA,ZIM$HEREIAM,HIA,1    Here I Am.
             000000000002                   I$HIA EQU I$DBCSEXCFCN
                                             PMC ON
   000264  X 000000 022 001                  VFD 18/ZIM$HEREIAM,9/HIA,9/1
                                             PMC ON
                                             DBCS_ENTRY I$RDY,ZIG$DBRDY,RY,1  READY
             000000000003                   I$RDY EQU I$DBCSEXCFCN
                                             PMC ON
   000265  X 000000 015 001                  VFD 18/ZIG$DBRDY,9/RY,9/1
                                             PMC ON
                                             DBCS_ENTRY I$FIN,ZIM$FINISH,FI,1   Finish
             000000000004                   I$FIN EQU I$DBCSEXCFCN
                                             PMC ON
   000266  X 000000 006 001                  VFD 18/ZIM$FINISH,9/FI,9/1
                                             PMC ON
                                             DBCS_ENTRY I$STO,ZIG$DBSTO,ST,1 STORE
             000000000005                   I$STO EQU I$DBCSEXCFCN
                                             PMC ON
   000267  X 000000 017 001                  VFD 18/ZIG$DBSTO,9/ST,9/1
                                             PMC ON
                                             DBCS_ENTRY I$ERS,ZIG$DBERS,ES,1 ERASE
             000000000006                   I$ERS EQU I$DBCSEXCFCN
 12:53 09/05/97  FILE=ZIM$ENTRY.:ZIC0TSI                                                                 14   BMAP - B00
                                             PMC ON
   000270  X 000000 004 001                  VFD 18/ZIG$DBERS,9/ES,9/1
                                             PMC ON
                                             DBCS_ENTRY I$MOD,ZIG$DBMOD,MD,1 MODIFY
             000000000007                   I$MOD EQU I$DBCSEXCFCN
                                             PMC ON
   000271  X 000000 013 001                  VFD 18/ZIG$DBMOD,9/MD,9/1
                                             PMC ON
                                             DBCS_ENTRY I$CON,ZIG$DBCON,CN,1 CONNECT
             000000000010                   I$CON EQU I$DBCSEXCFCN
                                             PMC ON
   000272  X 000000 002 001                  VFD 18/ZIG$DBCON,9/CN,9/1
                                             PMC ON
                                             DBCS_ENTRY I$DIS,ZIM$EDIS,DS,1 DISCONNECT
             000000000011                   I$DIS EQU I$DBCSEXCFCN
                                             PMC ON
   000273  X 000000 003 001                  VFD 18/ZIM$EDIS,9/DS,9/1
                                             PMC ON
                                             DBCS_ENTRY I$ACN,ZIG$DBACN,AC,1 MOVE;AREA NAME
             000000000012                   I$ACN EQU I$DBCSEXCFCN
                                             PMC ON
   000274  X 000000 001 001                  VFD 18/ZIG$DBACN,9/AC,9/1
                                             PMC ON
                                             DBCS_ENTRY I$ACC,ZIG$DBACC,AC,1 MOVE;CURRENCY INDICATOR
             000000000013                   I$ACC EQU I$DBCSEXCFCN
                                             PMC ON
   000275  X 000000 001 001                  VFD 18/ZIG$DBACC,9/AC,9/1
                                             PMC ON
                                             DBCS_ENTRY I$IFT,ZIG$DBIFT,IF,1  IF TENANT
             000000000014                   I$IFT EQU I$DBCSEXCFCN
                                             PMC ON
   000276  X 000000 011 001                  VFD 18/ZIG$DBIFT,9/IF,9/1
                                             PMC ON
                                             DBCS_ENTRY I$IST,ZIG$DBIST,IF,1  IF SET
             000000000015                   I$IST EQU I$DBCSEXCFCN
                                             PMC ON
   000277  X 000000 011 001                  VFD 18/ZIG$DBIST,9/IF,9/1
 12:53 09/05/97  FILE=ZIM$ENTRY.:ZIC0TSI                                                                 15   BMAP - B00
                                             PMC ON
                                             DBCS_ENTRY I$IFM,ZIG$DBIFM,IF,1  IF MEMBER
             000000000016                   I$IFM EQU I$DBCSEXCFCN
                                             PMC ON
   000300  X 000000 011 001                  VFD 18/ZIG$DBIFM,9/IF,9/1
                                             PMC ON
                                             DBCS_ENTRY I$FKY,ZIG$DBFKY,FD,1 FIND;WITH KEY
             000000000017                   I$FKY EQU I$DBCSEXCFCN
                                             PMC ON
   000301  X 000000 005 001                  VFD 18/ZIG$DBFKY,9/FD,9/1
                                             PMC ON
                                             DBCS_ENTRY I$FKC,ZIG$DBFKC,FD,1 FIND;WITH KEY IN CUR SET
             000000000020                   I$FKC EQU I$DBCSEXCFCN
                                             PMC ON
   000302  X 000000 005 001                  VFD 18/ZIG$DBFKC,9/FD,9/1
                                             PMC ON
                                             DBCS_ENTRY I$FDP,ZIG$DBFDP,FD,1 FIND;DUPLICATE RECORD
             000000000021                   I$FDP EQU I$DBCSEXCFCN
                                             PMC ON
   000303  X 000000 005 001                  VFD 18/ZIG$DBFDP,9/FD,9/1
                                             PMC ON
                                             DBCS_ENTRY I$FDC,ZIG$DBFDC,FD,1 FIND;CALC RECORD
             000000000022                   I$FDC EQU I$DBCSEXCFCN
                                             PMC ON
   000304  X 000000 005 001                  VFD 18/ZIG$DBFDC,9/FD,9/1
                                             PMC ON
                                             DBCS_ENTRY I$FCD,ZIG$DBFCD,FD,1 FIND;DUP CALC RECORD
             000000000023                   I$FCD EQU I$DBCSEXCFCN
                                             PMC ON
   000305  X 000000 005 001                  VFD 18/ZIG$DBFCD,9/FD,9/1
                                             PMC ON
                                             DBCS_ENTRY I$FOR,ZIG$DBFOR,FD,1 FIND;OWNER
             000000000024                   I$FOR EQU I$DBCSEXCFCN
                                             PMC ON
   000306  X 000000 005 001                  VFD 18/ZIG$DBFOR,9/FD,9/1
                                             PMC ON
                                             DBCS_ENTRY I$FCT,ZIG$DBFCT,FD,1 FIND;CUR OF REC TYPE
 12:53 09/05/97  FILE=ZIM$ENTRY.:ZIC0TSI                                                                 16   BMAP - B00
             000000000025                   I$FCT EQU I$DBCSEXCFCN
                                             PMC ON
   000307  X 000000 005 001                  VFD 18/ZIG$DBFCT,9/FD,9/1
                                             PMC ON
                                             DBCS_ENTRY I$FCR,ZIG$DBFCR,FD,1 FIND;CUR OF RUN
             000000000026                   I$FCR EQU I$DBCSEXCFCN
                                             PMC ON
   000310  X 000000 005 001                  VFD 18/ZIG$DBFCR,9/FD,9/1
                                             PMC ON
                                             DBCS_ENTRY I$FAS,ZIG$DBFAS,FD,1 FIND;ITH ABS REC IN SET
             000000000027                   I$FAS EQU I$DBCSEXCFCN
                                             PMC ON
   000311  X 000000 005 001                  VFD 18/ZIG$DBFAS,9/FD,9/1
                                             PMC ON
                                             DBCS_ENTRY I$FAA,ZIG$DBFAA,FD,1 FIND;ITH ABS REC IN AREA
             000000000030                   I$FAA EQU I$DBCSEXCFCN
                                             PMC ON
   000312  X 000000 005 001                  VFD 18/ZIG$DBFAA,9/FD,9/1
                                             PMC ON
                                             DBCS_ENTRY I$FRS,ZIG$DBFRS,FD,1 FIND;RELATIVE TO SET
             000000000031                   I$FRS EQU I$DBCSEXCFCN
                                             PMC ON
   000313  X 000000 005 001                  VFD 18/ZIG$DBFRS,9/FD,9/1
                                             PMC ON
                                             DBCS_ENTRY I$FRA,ZIG$DBFRA,FD,1 FIND;RELATIVE TO AREA
             000000000032                   I$FRA EQU I$DBCSEXCFCN
                                             PMC ON
   000314  X 000000 005 001                  VFD 18/ZIG$DBFRA,9/FD,9/1
                                             PMC ON
                                             DBCS_ENTRY I$FDR,ZIG$DBFDR,FD,1 FIND;DIRECT
             000000000033                   I$FDR EQU I$DBCSEXCFCN
                                             PMC ON
   000315  X 000000 005 001                  VFD 18/ZIG$DBFDR,9/FD,9/1
                                             PMC ON
                                             DBCS_ENTRY I$FUI,ZIG$DBFUI,FD,1  FIND;USING RECORD KEY
             000000000034                   I$FUI EQU I$DBCSEXCFCN
                                             PMC ON
 12:53 09/05/97  FILE=ZIM$ENTRY.:ZIC0TSI                                                                 17   BMAP - B00
   000316  X 000000 005 001                  VFD 18/ZIG$DBFUI,9/FD,9/1
                                             PMC ON
                                             DBCS_ENTRY I$FRI,ZIG$DBFRI,FD,1  FIND;RELATIVE TO INDEX
             000000000035                   I$FRI EQU I$DBCSEXCFCN
                                             PMC ON
   000317  X 000000 005 001                  VFD 18/ZIG$DBFRI,9/FD,9/1
                                             PMC ON
                                             DBCS_ENTRY I$GET,ZIG$DBGET,GT,1 GET;ALL FIELDS OF CUR REC
             000000000036                   I$GET EQU I$DBCSEXCFCN
                                             PMC ON
   000320  X 000000 010 001                  VFD 18/ZIG$DBGET,9/GT,9/1
                                             PMC ON
                                             DBCS_ENTRY I$GTF,ZIG$DBGTF,GT,1 GET;SPECIFIED FIELDS
             000000000037                   I$GTF EQU I$DBCSEXCFCN
                                             PMC ON
   000321  X 000000 010 001                  VFD 18/ZIG$DBGTF,9/GT,9/1
                                             PMC ON
                                             DBCS_ENTRY I$CHK,ZIM$ECKPT,IDS,0     Checkpoint the data base
             000000000040                   I$CHK EQU I$DBCSEXCFCN
                                             PMC ON
   000322  X 000000 023 000                  VFD 18/ZIM$ECKPT,9/IDS,9/0
                                             PMC ON
                                             DBCS_ENTRY I$TRON,ZIM$ETRON,IDS,0    TRACE ON
             000000000041                   I$TRON EQU I$DBCSEXCFCN
                                             PMC ON
   000323  X 000000 023 000                  VFD 18/ZIM$ETRON,9/IDS,9/0
                                             PMC ON
                                             DBCS_ENTRY I$TROFF,ZIM$ETROFF,IDS,0        OFF
             000000000042                   I$TROFF EQU I$DBCSEXCFCN
                                             PMC ON
   000324  X 000000 023 000                  VFD 18/ZIM$ETROFF,9/IDS,9/0
                                             PMC ON
                                             DBCS_ENTRY I$STON,ZIM$ESTON,IDS,0    STATS ON
             000000000043                   I$STON EQU I$DBCSEXCFCN
                                             PMC ON
   000325  X 000000 023 000                  VFD 18/ZIM$ESTON,9/IDS,9/0
                                             PMC ON
 12:53 09/05/97  FILE=ZIM$ENTRY.:ZIC0TSI                                                                 18   BMAP - B00
                                             DBCS_ENTRY I$STOFF,ZIM$ESTOFF,IDS,0        OFF
             000000000044                   I$STOFF EQU I$DBCSEXCFCN
                                             PMC ON
   000326  X 000000 023 000                  VFD 18/ZIM$ESTOFF,9/IDS,9/0
                                             PMC ON
                                             DBCS_ENTRY I$SHIN,ZIM$ESHIN,IDS,0    SHARE IN
             000000000045                   I$SHIN EQU I$DBCSEXCFCN
                                             PMC ON
   000327  X 000000 023 000                  VFD 18/ZIM$ESHIN,9/IDS,9/0
                                             PMC ON
                                             DBCS_ENTRY I$SHALL,ZIM$ESHALL,IDS,0        ALL
             000000000046                   I$SHALL EQU I$DBCSEXCFCN
                                             PMC ON
   000330  X 000000 023 000                  VFD 18/ZIM$ESHALL,9/IDS,9/0
                                             PMC ON
                                             DBCS_ENTRY I$SHNO,ZIM$ESHNO,IDS,0          NONE
             000000000047                   I$SHNO EQU I$DBCSEXCFCN
                                             PMC ON
   000331  X 000000 023 000                  VFD 18/ZIM$ESHNO,9/IDS,9/0
                                             PMC ON
                                             DBCS_ENTRY I$CRPT,ZIM$ECRPT,IDS,0    ENCRIPTION SEED
             000000000050                   I$CRPT EQU I$DBCSEXCFCN
                                             PMC ON
   000332  X 000000 023 000                  VFD 18/ZIM$ECRPT,9/IDS,9/0
                                             PMC ON
                                             DBCS_ENTRY I$RPT,ZIE$STATS,IDS,0      Report statistics
             000000000051                   I$RPT EQU I$DBCSEXCFCN
                                             PMC ON
   000333  X 000000 023 000                  VFD 18/ZIE$STATS,9/IDS,9/0
                                             PMC ON
                                             DBCS_ENTRY I$SHCUR,ZIM$ESHCUR,IDS,0   SHARE MODE CURRENCY ONLY
             000000000052                   I$SHCUR EQU I$DBCSEXCFCN
                                             PMC ON
   000334  X 000000 023 000                  VFD 18/ZIM$ESHCUR,9/IDS,9/0
                                             PMC ON
                                             DBCS_ENTRY I$NBF,ZIM$EADDBUF,IDS,0    Add number of buffers
             000000000053                   I$NBF EQU I$DBCSEXCFCN
 12:53 09/05/97  FILE=ZIM$ENTRY.:ZIC0TSI                                                                 19   BMAP - B00
                                             PMC ON
   000335  X 000000 023 000                  VFD 18/ZIM$EADDBUF,9/IDS,9/0
                                             PMC ON
                                             DBCS_ENTRY I$ETC,ZIR$DBETC,IDS,1      Continue for privacy
             000000000054                   I$ETC EQU I$DBCSEXCFCN
                                             PMC ON
   000336 (0)000214 023 001                  VFD 18/ZIR$DBETC,9/IDS,9/1
                                             PMC ON
                                             DBCS_ENTRY I$INA,ZIG$DBINA,RY,1   Ready & initialize area
             000000000055                   I$INA EQU I$DBCSEXCFCN
                                             PMC ON
   000337  X 000000 015 001                  VFD 18/ZIG$DBINA,9/RY,9/1
                                             PMC ON
                                             DBCS_ENTRY I$SHANY,ZIM$ESHANY,IDS,0   SHARE MODE ANY
             000000000056                   I$SHANY EQU I$DBCSEXCFCN
                                             PMC ON
   000340  X 000000 023 000                  VFD 18/ZIM$ESHANY,9/IDS,9/0
                                             PMC ON
                                             DBCS_ENTRY I$CALC,ZIM$CALC,IDS,1      Precalc routine
             000000000057                   I$CALC EQU I$DBCSEXCFCN
                                             PMC ON
   000341  X 000000 023 001                  VFD 18/ZIM$CALC,9/IDS,9/1
                                             PMC ON
                                             DBCS_ENTRY I$KEEP,ZIM$EKEEP,IDS,0      KEEP CRUN ENQED UNTIL CHECKPOINT
             000000000060                   I$KEEP EQU I$DBCSEXCFCN
                                             PMC ON
   000342  X 000000 023 000                  VFD 18/ZIM$EKEEP,9/IDS,9/0
                                             PMC ON
                                             DBCS_ENTRY I$REDUCEQ,ZIM$EREDUCEQ,IDS,0 PURGE ENQ TABLE EXCEPT CURRENCIES
             000000000061                   I$REDUCEQ EQU I$DBCSEXCFCN
                                             PMC ON
   000343  X 000000 023 000                  VFD 18/ZIM$EREDUCEQ,9/IDS,9/0
                                             PMC ON
                                             DBCS_ENTRY I$SHINCUR,ZIM$ESHINCUR,IDS,0  SHAREIN CURRENCY
             000000000062                   I$SHINCUR EQU I$DBCSEXCFCN
                                             PMC ON
   000344  X 000000 023 000                  VFD 18/ZIM$ESHINCUR,9/IDS,9/0
 12:53 09/05/97  FILE=ZIM$ENTRY.:ZIC0TSI                                                                 20   BMAP - B00
                                             PMC ON
                                       310  *
          (0)000000                    311         END     ZIR$ENTRY
 1 000000    000000004010

  CONTROL SECTION TABLE

   0 CODE   EVEN  000345
   1 RODATA EVEN  000001 LITERALS

 12:53 09/05/97  FILE=ZIM$ENTRY.:ZIC0TSI      SYMBOL TABLE                                               21   BMAP - B00
 40000000 000000200000 .AC            *81
 40000000 000000000100 .AG            *81
 40000000 000000002000 .ALTO          *81
 40000000 000000000077 .ANL           *81
 40000000 000000200000 .APDN          *81
 40000000 000000000100 .ATMP          *81
 40000000 000000400000 .AV            *81
 40000000 000000400000 .B0            *81
 40000000 000000200000 .B1            *81
 40000000 000000000200 .B10           *81
 40000000 000000000100 .B11           *81
 40000000 000000000040 .B12           *81
 40000000 000000000020 .B13           *81
 40000000 000000000010 .B14           *81
 40000000 000000000004 .B15           *81
 40000000 000000000002 .B16           *81
 40000000 000000000001 .B17           *81
 40000000 000000400000 .B18           *81
 40000000 000000200000 .B19           *81
 40000000 000000100000 .B2            *81
 40000000 000000100000 .B20           *81
 40000000 000000040000 .B21           *81
 40000000 000000020000 .B22           *81
 40000000 000000010000 .B23           *81
 40000000 000000004000 .B24           *81
 40000000 000000002000 .B25           *81
 40000000 000000001000 .B26           *81
 40000000 000000000400 .B27           *81
 40000000 000000000200 .B28           *81
 40000000 000000000100 .B29           *81
 40000000 000000040000 .B3            *81
 40000000 000000000040 .B30           *81
 40000000 000000000020 .B31           *81
 40000000 000000000010 .B32           *81
 40000000 000000000004 .B33           *81
 40000000 000000000002 .B34           *81
 40000000 000000000001 .B35           *81
 12:53 09/05/97  FILE=ZIM$ENTRY.:ZIC0TSI      SYMBOL TABLE                                               22   BMAP - B00
 40000000 000000020000 .B4            *81
 40000000 000000010000 .B5            *81
 40000000 000000004000 .B6            *81
 40000000 000000002000 .B7            *81
 40000000 000000001000 .B8            *81
 40000000 000000000400 .B9            *81
 41000000 000000000001 .BREAK         *81       231       233
 40000000 000000010000 .BRK           *81
 40000000 000000020000 .BTB           *81
 40000000 000000000001 .CAC           *81
 40000000 000000000000 .CAE           *81
 40000000 000000000200 .CANSSS        *81
 40000000 000000000400 .CD            *81
 40000000 000000040000 .CFLC          *81
 40000000 000000400000 .CHKSUM        *81
 40000000 000000100000 .CJRNL         *81
 40000000 000000000077 .CNSZ          *81
 40000000 000000160000 .COMC          *81
 40000000 000000000020 .CONT          *81
 40000000 000000000000 .CSE           *81
 40000000 000000700000 .CTYP          *81
 41000000 000000000270 .DBEST         *81
 41000000 000000000470 .DBIC          *81
 40000000 000000077777 .DBPT          *81
 41000000 000000000370 .DBSTK         *81
 40000000 000000020000 .DELM          *81
 40000000 000000002000 .DIDP          *81
 40000000 000000000077 .DNDX          *81
 40000000 000000600000 .DORD          *81
 40000000 000000000200 .DP            *81
 40000000 000000100000 .DPS           *81
 40000000 000000200000 .DPSA          *81
 40000000 000000400000 .DPST          *81
 40000000 000000000002 .DUMP          *81
 40000000 000000002000 .DUPC          *81
 40000000 000000010000 .DUPP          *81
 40000000 000000200000 .EBCL          *81
 12:53 09/05/97  FILE=ZIM$ENTRY.:ZIC0TSI      SYMBOL TABLE                                               23   BMAP - B00
 40000000 000000400000 .EBCM          *81
 40000000 000000200000 .ENCRP         *81
 40000000 000000000077 .ENDX          *81
 40000000 000000000400 .ENQ           *81
 40000000 000000004000 .ETC           *81
 41000000 000000000400 .EXIT          *81       217
 40000000 000000000200 .FMOD          *81
 40000000 000000000077 .FNL           *81
 40000000 000000000074 .FORG          *81
 40000000 000000002000 .FR            *81
 40000000 000000000100 .FSR           *81
 40000000 000000003400 .FUSE          *81
 40000000 000000010000 .FVF           *81
 40000000 000000040000 .FVR           *81
 40000000 000000000010 .INDEXED       *81
 40000000 000000777777 .IXID          *81
 40000000 000000001777 .IXNUM         *81
 40000000 000000000004 .KEYED         *81
 40000000 000000010000 .LCK           *81
 40000000 000000400000 .LEIL          *81
 40000000 000000001000 .LG            *81
 40000000 000000000002 .LOAD          *81
 40000000 000000020000 .MAR           *81
 40000000 000000000007 .MEMT          *81
 40000000 000000010000 .MRL           *81
 40000000 000000040000 .MSM           *81
 60000000 000000000001 .N6685         *81
 40000000 000000100000 .NAI           *81
 40000000 000000200000 .NBI           *81
 40000000 000000000002 .NCIA          *81
 40000000 000000040000 .NMV           *81
 40000000 000000017777 .NOENT         *81
 40000000 000000400000 .OA            *81
 40000000 000000740000 .OPEV          *81
 40000000 000000100000 .OSM           *81
 40000000 000000100000 .PAFIL         *81
 40000000 000000200000 .PAHVR         *81
 12:53 09/05/97  FILE=ZIM$ENTRY.:ZIC0TSI      SYMBOL TABLE                                               24   BMAP - B00
 40000000 000000000001 .PAIA          *81
 40000000 000000040000 .PALIL         *81
 40000000 000000020000 .PALVR         *81
 40000000 000000400000 .PANLL         *81
 40000000 000000400000 .PCKD          *81
 40000000 000000001600 .PMOD          *81
 40000000 000000000520 .PRCSE         *81
 40000000 000000000007 .PSTO          *81
 40000000 000000006040 .PTAS          *81
 40000000 000000010100 .PTCHK         *81
 40000000 000000010200 .PTDEC         *81
 40000000 000000010140 .PTENC         *81
 40000000 000000020000 .RA            *81
 40000000 000000100000 .RC            *81
 40000000 000000400000 .RELEASE       *81
 40000000 000000000017 .RELT          *81
 40000000 000000004000 .RERA          *81
 40000000 000000400000 .RERS          *81
 40000000 000000010000 .RKEY          *81
 40000000 000000000077 .RNL           *81
 40000000 000000200000 .RSTO          *81
 40000000 000000007777 .RTYP          *81
 40000000 000000040000 .SC            *81
 40000000 000000000070 .SETM          *81
 40000000 000000740000 .SETO          *81
 40000000 000000000700 .SETT          *81
 40000000 000000040000 .SFNP          *81
 40000000 000000004000 .SM            *81
 40000000 000000020000 .SMOD          *81
 40000000 000000000077 .SNL           *81
 40000000 000000020000 .SNSS          *81
 40000000 000000010000 .SO            *81
 40000000 000000100000 .SR            *81
 40000000 000000004000 .SRCR          *81
 40000000 000000001000 .SS            *81
 40000000 000000000007 .SSTP          *81
 40000000 000000004000 .SYN           *81
 12:53 09/05/97  FILE=ZIM$ENTRY.:ZIC0TSI      SYMBOL TABLE                                               25   BMAP - B00
 40000000 000000000040 .SYNC          *81
 40000000 000000020000 .TJRNL         *81
 40000000 000000040000 .TMPLT         *81
 40000000 000000040000 .TRACE         *81
 41000000 000000000001 .TRENTRY       *81       154
 40000000 000000000012 .TRIDEL        *81
 40000000 000000000021 .TRIDELENQ     *81
 40000000 000000000024 .TRIDEQ        *81
 40000000 000000000013 .TRIMOD        *81
 40000000 000000000022 .TRIMODENQ     *81
 40000000 000000000014 .TRIREAD       *81
 40000000 000000000023 .TRIREADENQ    *81
 40000000 000000000011 .TRISTO        *81
 40000000 000000000020 .TRISTOENQ     *81
 40000000 000000000017 .TRPDEQ        *81
 40000000 000000000004 .TRPMOD        *81
 40000000 000000000016 .TRPMODENQ     *81
 40000000 000000000002 .TRPREAD       *81
 40000000 000000000015 .TRPREADENQ    *81
 40000000 000000000003 .TRPWRITE      *81
 40000000 000000000010 .TRRACC        *81
 40000000 000000000006 .TRRDEL        *81
 40000000 000000000007 .TRRMOD        *81
 40000000 000000000005 .TRRSTO        *81
 40000000 000000004000 .ULCK          *81
 40000000 000000400000 .UPDT          *81
 40000000 000000000040 .VIA           *81
 61000000 000000000001 @1            *309
 60000000 000000000001 A              *81
 40000000 000000000002 ABAS           *81
 41000000 000000000001 AC             *81       309
 40000000 777777777760 ACDEF          *81
 40000000 000000211070 ACDNL          *81
 40000000 000000000003 ACID           *81
 40000000 000000001016 ACOPN          *81
 40000000 000000000002 ACP            *81
 40000000 000000000005 ACPTR          *81
 12:53 09/05/97  FILE=ZIM$ENTRY.:ZIC0TSI      SYMBOL TABLE                                               26   BMAP - B00
 40000000 000000000002 ACRAH          *81
 40000000 000000000001 ACRAN          *81
 40000000 000000001003 ACREC          *81
 40000000 000000000001 ACTDBCB        *81
 41000000 000000000002 ACTDBNO        *81       141       190       249       262       275       280
 40000000 000000001017 ACTP           *81
 40000000 000000000000 ACTSSS         *81
 40000000 000000000000 ACTSZ          *81
 40000000 000000210565 AFNP           *81
 40000000 000000000635 AFT            *81
 40000000 000000022124 AIR            *81
 41000000 000000400000 ALTRETFLG      *65       235
 40000000 000000000016 AMAX           *81
 40000000 000000000026 ANAM           *81
 40000000 000000021614 ANR            *81
 40000000 000000000001 APNO           *81
 40000000 000000210562 ARGER          *81
 41000000 000000000020 ARGS           *81
 40000000 000000000077 ARGS2          *81
 40000000 000000210713 ARNAF          *81
 40000000 000000000003 ATBL           *81
 40000000 000000000000 ATRIB          *81
 03301000 000000000000 AUTOSEG$       *50       104       111
 40000000 000000000002 AVLN           *81
 40000000 000000000013 AWS$           *81
 40000000 000000000010 AWSZ           *81
 60000000 000000000001 B              *81
 03301004 000000000000 B$TCB$         *54       296
 40000000 000000001006 B32N           *81
 40000000 000000001007 B36N           *81
 40000000 000000001056 B72N           *81
 40000000 000000000001 BADDR          *81
 01101000 000000000243 BADFCN          90        92      *286
 40000000 000000210712 BADSEED        *81
 40000000 777777777765 BDCW           *81
 40000000 000000000633 BEF            *81
 40000000 000000020000 BEFW           *81
 12:53 09/05/97  FILE=ZIM$ENTRY.:ZIC0TSI      SYMBOL TABLE                                               27   BMAP - B00
 40000000 000000000751 BEMT           *81
 40000000 777777777761 BID            *81
 40000000 777777777762 BIND           *81
 40000000 000000000007 BLKD           *81
 40000000 000000303331 BME02          *81
 41000000 000000001203 BMPB           *81
 40000000 000000000652 BN1            *81
 40000000 000000000654 BN2            *81
 40000000 000000000004 BPL            *81
 40000000 000000000015 BPLDBK         *81
 01101000 000000000202 BREAK          224      *230
 41000000 000000200000 BRKFLG         *60        61
 40000000 000000000034 BSPG           *81
 40000000 777777777763 BSTAT          *81
 40000000 000000000750 BTX0           *81
 41000000 000000001160 BUF4           *81
 41000000 000000001170 BUF6           *81
 41000000 000000000000 BUFORG         *81
 40000000 000000001060 BUFRQ          *81
 40000000 000000000006 BURRID         *81
 41000000 000000000020 BWASZ          *81
 60000000 000000000001 C              *81
 40000000 000000000050 CAAC           *81
 40000000 000000000050 CACD           *81
 40000000 000000000111 CAG            *81
 40000000 000000001033 CAL            *81
 40000000 000000000026 CALLPM0        *81
 40000000 000000000003 CANSSS         *81
 40000000 000000000003 CBCPA          *81
 40000000 000000000002 CBCPO          *81
 40000000 000000000002 CBENO          *81
 40000000 000000000014 CBFSZ          *81
 40000000 000000000753 CBIB           *81
 40000000 000000001030 CBID           *81
 40000000 000000000014 CBRCE          *81
 40000000 000000000014 CBRCP          *81
 40000000 000000001033 CBRID          *81
 12:53 09/05/97  FILE=ZIM$ENTRY.:ZIC0TSI      SYMBOL TABLE                                               28   BMAP - B00
 40000000 000000000015 CBRPA          *81
 40000000 000000000031 CCHAR          *81
 40000000 000000000040 CDBK           *81
 40000000 000000000030 CDES           *81
 40000000 000000000110 CDP            *81
 40000000 000000001044 CDPSI          *81
 40000000 000000000002 CDRH           *81
 40000000 000000000003 CDRN           *81
 40000000 000000000002 CDSH           *81
 40000000 000000000003 CDSN           *81
 40000000 000000000722 CENTRN         *81
 40000000 000000000722 CENTRO         *81
 40000000 000000000716 CENTRY         *81
 41000000 000000001053 CFCT           *81
 40000000 000000000670 CFLPT1         *81
 40000000 000000000672 CFLPT2         *81
 40000000 000000000015 CFSA           *81
 40000000 000000000646 CHDBK          *81
 01101000 000000000017 CHKAUTO        103      *108
 01101000 000000000111 CHKX7          164       166      *171
 40000000 000000000773 CHR            *81
 40000000 000000000006 CHRD           *81
 40000000 000000000772 CHRO           *81
 40000000 000000007640 CHRTP          *81
 40000000 000000001043 CIAC           *81
 40000000 000000000012 CIAWS          *81
 40000000 000000001051 CIBSI          *81
 40000000 000000000516 CIND           *81
 40000000 000000001041 CINVSZ         *81
 40000000 000000001042 CIPG           *81
 40000000 000000001050 CIPSI          *81
 40000000 000000000000 CIRUN          *81
 40000000 000000000002 CIRWS          *81
 40000000 000000000002 CISWS          *81
 40000000 000000000014 CIWSOF         *81
 40000000 000000303374 CKSM           *81
 40000000 000000000022 CLCN           *81
 12:53 09/05/97  FILE=ZIM$ENTRY.:ZIC0TSI      SYMBOL TABLE                                               29   BMAP - B00
 40000000 000000000023 CLCP           *81
 40000000 000000000003 CLCRC          *81
 40000000 000000000003 CLCSC          *81
 40000000 000000000237 CLI            *81
 40000000 000000000026 CLNG           *81
 40000000 000000000052 CMPL           *81
 41000000 000000000002 CN             *81       309
 40000000 000000303315 CNE1           *81
 40000000 000000006034 CNUL           *81
 40000000 000000100000 COB74          *81
 40000000 000000000001 COFS           *81
 40000000 000000000045 CONCD          *81
 40000000 000000007764 CP6PGSZB       *81
 41000000 000000001775 CP6PGSZW       *81
 40000000 000000001000 CPGR           *81
 40000000 000000000723 CPTRN          *81
 40000000 000000000723 CPTRO          *81
 60000000 000000000004 CPW            *81
 40000000 000000000112 CRA            *81
 40000000 000000001004 CRD            *81
 40000000 000000000764 CREC           *81
 40000000 000000006344 CRIT           *81
 40000000 000000006200 CRNUL          *81
 40000000 000000007330 CRST           *81
 41000000 000000001223 CRUN           *81
 41000000 000000000000 CSECT          *81
 40000000 000000000007 CSMPP          *81
 40000000 000000001000 CSPAC          *81
 40000000 000000000004 CSPAH          *81
 40000000 777777777776 CSPES          *81
 40000000 777777777776 CSPSB          *81
 40000000 000000000115 CSTS           *81
 40000000 000000000071 CSUB           *81
 40000000 000000000017 CSZ            *81
 40000000 000000000057 CTMASK         *81
 40000000 000000000774 CTPAI          *81
 40000000 000000000240 CURLN          *81
 12:53 09/05/97  FILE=ZIM$ENTRY.:ZIC0TSI      SYMBOL TABLE                                               30   BMAP - B00
 40000000 000000000236 CURLT          *81
 40000000 000000000770 CURPG          *81
 40000000 000000000001 CURR           *81
 40000000 000000000035 CURRS          *81
 40000000 000000000037 CURSS          *81
 40000000 000000001005 CWRT           *81
 40000000 000000000237 CWSOF          *81
 60000000 000000000001 D              *81
 40000000 000000000003 DBAN           *81
 40000000 000000000036 DBDR           *81
 40000000 000000000037 DBFN           *81
 40000000 000000000754 DBK            *81
 40000000 000000000777 DBKAC          *81
 40000000 000000000000 DBKEY          *81
 40000000 000000000000 DBKL           *81
 40000000 000000007474 DBKN           *81
 41000000 000000000776 DBKR           *81
 40000000 000000000777 DBKRQ          *81
 40000000 000000000234 DBKSI          *81
 40000000 000000000651 DBKSR          *81
 40000000 000000000047 DBKYN          *81
 40000000 000000210652 DBLC01         *81
 40000000 000000210653 DBLC05         *81
 40000000 000000303334 DBLC07         *81
 40000000 000000210655 DBLD01         *81
 40000000 000000000010 DBLIM          *81
 40000000 000000000033 DBPKY          *81
 40000000 000000000023 DBRN           *81
 40000000 000000000013 DBSN           *81
 41000000 000000000001 DBST           *81       206       302
 40000000 000000000757 DCDSR          *81
 40000000 000000210650 DCE1           *81
 40000000 000000001053 DCPR           *81
 40000000 000000001053 DCPW           *81
 40000000 000000000015 DCTBL          *81
 40000000 000000000032 DDBK           *81
 40000000 000000000006 DDCB           *81
 12:53 09/05/97  FILE=ZIM$ENTRY.:ZIC0TSI      SYMBOL TABLE                                               31   BMAP - B00
 40000000 000000011754 DDI            *81
 40000000 000000000000 DEF            *81
 40000000 000000000014 DEF2           *81
 40000000 000000303413 DELAK          *81
 40000000 000000000036 DELRS          *81
 40000000 000000000732 DEPCW          *81
 40000000 000000303414 DLDBK          *81
 40000000 000000210627 DLE1           *81
 40000000 000000303310 DLE2           *81
 40000000 000000210631 DLE3           *81
 01101000 000000000136 DMLALT         147       177       183      *187       278       283
 01101000 000000000117 DMLCALL        173      *175
 01101000 000000000062 DMLCHK         144       146      *148
 40000000 000000016040 DNES           *81
 40000000 777777777777 DPAGN          *81
 40000000 000000000020 DPPI           *81
 40000000 000000000053 DPSLW          *81
 41000000 000000000003 DS             *81       309
 40000000 000000001063 DSDES          *81
 40000000 000000303316 DSE1           *81
 41000000 000000000735 DUSEPA         *81       196
 60000000 000000000001 E              *81
 40000000 000000303251 EDPER          *81
 40000000 000000000026 EEIND          *81
 40000000 000000000713 EFIND          *81
 40000000 000000001030 ELO            *81
 40000000 000000210711 ENCPNA         *81
 40000000 000000000007 ENCRP          *81
 40000000 000000000752 ENDSR          *81
 40000000 000000210647 ENE1           *81
 40000000 000000000716 ENIND          *81
 40000000 000000000013 ENTBL          *81
 40000000 000000000710 ENTNO          *81
 40000000 000000000712 ENTPTR         *81
 40000000 000000000717 ENTSZ          *81
 40000000 000000000711 ENTTYP         *81
 40000000 000000004064 EOSR           *81
 12:53 09/05/97  FILE=ZIM$ENTRY.:ZIC0TSI      SYMBOL TABLE                                               32   BMAP - B00
 01101000 000000000247 ERRXIT         287       289      *290
 41000000 000000000004 ES             *81       309
 41000000 000000000100 ESTSZ          *81
 40000000 000000000725 ESZ            *81
 41000000 000000000005 ETCADR         *81       254       264
 41000000 000000000005 ETCDBNO        *81       143       247       255       263
 01101000 000000000233 ETCERR         250      *274
 40000000 000000000064 EXCCD          *81
 01101000 000000000147 EXIT           178       191      *202
 40000000 000000234534 FALRT          *81
 40000000 000000001055 FBF72          *81
 40000000 000000001025 FBU61          *81
 40000000 000000001020 FBUF           *81
 40000000 000000001026 FBUF1          *81
 40000000 000000001027 FBUF4          *81
 40000000 000000001024 FBUF6          *81
 40000000 000000001022 FBUFM          *81
 40000000 000000001021 FBUFU          *81
 40000000 000000001023 FBUMD          *81
 41000000 000000000004 FCN            *81       132       151       157       253       266
 40000000 000000000051 FCNT           *81
 40000000 000000000002 FCP            *81
 40000000 000000000047 FCSS           *81
 41000000 000000000005 FD             *81       309
 40000000 000000210637 FDE1           *81
 40000000 000000303320 FDE2           *81
 40000000 000000303321 FDE3           *81
 40000000 000000210642 FDE4           *81
 40000000 000000210643 FDE5           *81
 40000000 000000210644 FDE6           *81
 40000000 000000303325 FDE7           *81
 40000000 000000303326 FDE8           *81
 40000000 000000000021 FEASZ          *81
 40000000 000000000740 FETM           *81
 41000000 000000000006 FI             *81       309
 40000000 000000000103 FIAC           *81
 41000000 000000001100 FIB1           *81
 12:53 09/05/97  FILE=ZIM$ENTRY.:ZIC0TSI      SYMBOL TABLE                                               33   BMAP - B00
 41000000 000000001130 FIBP           *81
 40000000 000000000000 FIBX           *81
 40000000 000000000102 FICNT          *81
 40000000 000000000005 FIPN           *81
 40000000 000000000054 FKIND          *81
 40000000 000000000015 FLAGS          *81
 40000000 000000000244 FLDDSC         *81
 40000000 000000000046 FLDTL          *81
 40000000 000000000020 FMSBF          *81
 40000000 000000000006 FNAM           *81
 40000000 000000000250 FNIND          *81
 40000000 000000000004 FNL            *81
 40000000 000000000101 FRAC           *81
 40000000 000000000002 FRANGE         *81
 40000000 000000211400 FRDNL          *81
 40000000 000000200000 FRTRN          *81
 40000000 000000000005 FRWSO          *81
 40000000 000000000767 FSLN           *81
 40000000 000000000766 FSOF           *81
 40000000 000000000060 FTIND          *81
 40000000 000000303240 FTLINCR        *81
 01101000 000000000126 FUNCT          160      *180
 40000000 000000000021 FWSSZ          *81
 40000000 000000000246 GACDK          *81
 41000000 000000000014 GDCB           *81       211
 41000000 000000000006 GERROR         *81       126       138       174       177       183       188
                                      205       214       220       277       282
 41000000 000000000016 GINHIB         *81       230       234
 40000000 000000000020 GIOAWS         *81
 40000000 000000000022 GIOBUF         *81
 40000000 000000000021 GIOPGNO        *81
 03301001 000000000000 GLOBAL$        *51        96
 01101000 000000000030 GOTAUTO        118      *122
 41000000 000000000015 GPAGE          *81       136
 40000000 000000000010 GRETAC         *81
 40000000 000000000011 GRETFR         *81
 40000000 000000000013 GRETRC         *81
 12:53 09/05/97  FILE=ZIM$ENTRY.:ZIC0TSI      SYMBOL TABLE                                               34   BMAP - B00
 40000000 000000000012 GRETSC         *81
 40000000 000000000025 GRLCW          *81
 41000000 000000000014 GSTCD          *81       137
 41000000 000000000007 GSYSERR        *81       139       208
 41000000 000000000010 GT             *81       309
 40000000 000000000046 GTRNAME        *81
 40000000 000000000055 GTRPDCB        *81
 40000000 000000000056 GTRPNO         *81
 40000000 000000000057 GTRRDBK        *81
 40000000 000000000060 GTRRTYPE       *81
 41000000 000000000060 GTRTYPE        *81       155
 40000000 000000000027 HASH           *81
 41000000 000000000022 HIA            *81       309
 40000000 000000000775 HIDB           *81
 40000000 000000000003 HIGHDBK        *81
 40000000 000000000004 HIGHPG         *81
 40000000 000000001037 HIL            *81
 40000000 000000000002 HILN           *81
 40000000 000000000006 HPOS           *81
 46000000 000000000013 I$ACC         *309
 46000000 000000000012 I$ACN         *309
 46000000 000000000057 I$CALC        *309
 46000000 000000000040 I$CHK         *309
 46000000 000000000010 I$CON         *309
 46000000 000000000050 I$CRPT        *309
 60000000 000000000063 I$DBCSEXCFCN    91      *309
 46000000 000000000011 I$DIS         *309
 46000000 000000000006 I$ERS         *309
 47000000 000000000054 I$ETC          145       265      *309
 46000000 000000000030 I$FAA         *309
 46000000 000000000027 I$FAS         *309
 46000000 000000000023 I$FCD         *309
 46000000 000000000026 I$FCR         *309
 46000000 000000000025 I$FCT         *309
 46000000 000000000022 I$FDC         *309
 46000000 000000000021 I$FDP         *309
 46000000 000000000033 I$FDR         *309
 12:53 09/05/97  FILE=ZIM$ENTRY.:ZIC0TSI      SYMBOL TABLE                                               35   BMAP - B00
 46000000 000000000004 I$FIN         *309
 46000000 000000000020 I$FKC         *309
 46000000 000000000017 I$FKY         *309
 46000000 000000000024 I$FOR         *309
 46000000 000000000032 I$FRA         *309
 46000000 000000000035 I$FRI         *309
 46000000 000000000031 I$FRS         *309
 46000000 000000000034 I$FUI         *309
 46000000 000000000036 I$GET         *309
 46000000 000000000037 I$GTF         *309
 47000000 000000000002 I$HIA          172      *309
 46000000 000000000016 I$IFM         *309
 46000000 000000000014 I$IFT         *309
 46000000 000000000055 I$INA         *309
 46000000 000000000015 I$IST         *309
 46000000 000000000060 I$KEEP        *309
 46000000 000000000007 I$MOD         *309
 46000000 000000000053 I$NBF         *309
 47000000 000000000003 I$RDY          252      *309
 46000000 000000000061 I$REDUCEQ     *309
 46000000 000000000001 I$ROL         *309
 46000000 000000000051 I$RPT         *309
 46000000 000000000046 I$SHALL       *309
 46000000 000000000056 I$SHANY       *309
 46000000 000000000052 I$SHCUR       *309
 46000000 000000000045 I$SHIN        *309
 46000000 000000000062 I$SHINCUR     *309
 46000000 000000000047 I$SHNO        *309
 46000000 000000000005 I$STO         *309
 46000000 000000000044 I$STOFF       *309
 46000000 000000000043 I$STON        *309
 46000000 000000000042 I$TROFF       *309
 46000000 000000000041 I$TRON        *309
 03301002 000000000000 IA$            *52       161       209       299
 40000000 000000000756 IAAC           *81
 40000000 000000001011 IACLN          *81
 40000000 000000001010 IALC           *81
 12:53 09/05/97  FILE=ZIM$ENTRY.:ZIC0TSI      SYMBOL TABLE                                               36   BMAP - B00
 40000000 000000000006 IAMODE         *77
 40000000 000000000010 IAMODESTATSBIT           *78
 40000000 000000010314 IAN            *81
 40000000 000000001012 IANLN          *81
 40000000 000000000001 IASID          *80
 40000000 000000020320 ICA            *81
 40000000 000000000023 ICKSMP         *81
 40000000 000000000024 ICKSMV         *81
 40000000 000000210742 ICNR           *81
 41000000 000000000020 ICSIZ          *81
 40000000 000000010004 IDBK           *81
 40000000 000000012120 IDI            *81
 41000000 000000000023 IDS            *81       309
 41000000 000000000011 IF             *81       309
 40000000 000000000021 IFIPN          *81
 40000000 000000000000 IFR            *81
 01101000 000000000142 IGNORE1        188      *189
 40000000 000000234546 IKSEQ          *81
 40000000 000000000113 INAFLAG        *81
 40000000 000000000016 INCHA          *81
 01101000 000000000032 INIT           121      *124
 40000000 000000210566 INNM           *81
 40000000 000000210567 INSS           *81
 40000000 000000210575 INSST          *81
 40000000 000000303241 INTER          *81
 40000000 000000400000 INTII          *81
 40000000 000000000013 INTVL          *81
 40000000 000000001060 INVFLG         *81
 40000000 000000001043 INVOF          *81
 40000000 000000000014 INVT           *81
 40000000 000000000034 IOBLK          *81
 40000000 000000303354 IOCLSD         *81
 40000000 000000303355 IOCLSK         *81
 40000000 000000303257 IOE1           *81
 40000000 000000303264 IOE11          *81
 40000000 000000303265 IOE12          *81
 40000000 000000303266 IOE18          *81
 12:53 09/05/97  FILE=ZIM$ENTRY.:ZIC0TSI      SYMBOL TABLE                                               37   BMAP - B00
 40000000 000000303260 IOE2           *81
 40000000 000000303261 IOE3           *81
 40000000 000000303262 IOE7           *81
 40000000 000000303263 IOE8           *81
 40000000 000000303363 IOFLSH         *81
 40000000 000000210676 IOGDCB         *81
 40000000 000000001002 IOINC          *81
 40000000 000000305160 IOINI          *81
 40000000 000000305155 IONOTIDS       *81
 40000000 000000305154 IONOTKEY       *81
 40000000 000000210677 IOOPND         *81
 40000000 000000210700 IOOPNK         *81
 40000000 000000303361 IORDD          *81
 40000000 000000305156 IOSCHEMA       *81
 40000000 000000001052 IOSTS          *81
 40000000 000000303362 IOWRTD         *81
 41000000 000000000750 IOWS           *81
 40000000 000000000647 IPC            *81
 40000000 000000000650 IPCF           *81
 40000000 000000000006 IROLLFLAG      *81
 40000000 000000010150 IRSN           *81
 41000000 000000000004 ISYSDCB        *81       212
 41000000 000000000005 ISYSERR        *81       210       300
 40000000 000000000061 ITPTR          *81
 40000000 000000000060 ITRS           *81
 40000000 000000021760 IUM            *81
 40000000 000000000017 IUSZ           *81
 40000000 000000234522 IVDBK          *81
 40000000 000000000011 IXBUF$         *81
 40000000 000000000046 IXFBSZ         *81
 40000000 777777777776 IXID           *81
 40000000 777777777777 IXPLL          *81
 40000000 000000000523 KCARG0         *81
 40000000 000000000524 KCARG3         *81
 40000000 000000000525 KCARG4         *81
 40000000 000000000700 KCREG          *81
 40000000 000000000006 KDCB           *81
 12:53 09/05/97  FILE=ZIM$ENTRY.:ZIC0TSI      SYMBOL TABLE                                               38   BMAP - B00
 40000000 000000000666 KEYDS          *81
 40000000 000000000010 KEYPA          *81
 40000000 777777777776 KLNG           *81
 40000000 000000000022 KPASZ          *81
 40000000 000000000006 KWSZ           *81
 40000000 000000000052 LANGC          *81
 40000000 000000001014 LAS            *81
 40000000 000000700000 LCODM          *81
 40000000 000000001045 LDPSI          *81
 40000000 000000001071 LINPT          *81
 40000000 000000001017 LNCNT          *81
 40000000 000000000762 LNNO           *81
 40000000 000000001036 LOL            *81
 40000000 000000000715 LOLIM          *81
 40000000 000000000023 LPASZ          *81
 40000000 000000000012 LPP            *81
 40000000 000000257764 LR             *81
 40000000 000000301270 LRA            *81
 40000000 000000000017 LRSZ           *81
 40000000 000000001035 LSPC           *81
 40000000 000000000750 LUPD           *81
 61000000 000000000001 M9             *81
 41000000 000000000013 MD             *81       309
 40000000 000000300000 MDQS           *81
 40000000 000000000730 MEMPTR         *81
 40000000 000000000727 MEMTYP         *81
 40000000 000000000045 MODCD          *81
 41000000 000000001207 MODFL          *81
 40000000 000000000042 MODFR          *81
 40000000 000000000044 MODIN          *81
 40000000 000000000044 MODRS          *81
 40000000 000000000043 MODSC          *81
 40000000 000000000047 MRBKI          *81
 40000000 000000210632 MRE4           *81
 40000000 000000303313 MRE5           *81
 40000000 000000210634 MRE7           *81
 40000000 000000400000 MW             *81
 12:53 09/05/97  FILE=ZIM$ENTRY.:ZIC0TSI      SYMBOL TABLE                                               39   BMAP - B00
 40000000 000000000025 NCH            *81
 40000000 000000000002 NCHA           *81
 40000000 000000000005 NCHRS          *81
 40000000 000000000014 NDCD           *81
 00101000 000000000153 NDMLALT       *207
 40000000 000000000012 NENC           *81
 40000000 000000000634 NEW            *81
 40000000 000000001072 NEWSIZ         *81
 40000000 000000235164 NKA            *81
 40000000 000000235020 NKDB           *81
 40000000 000000303415 NLDBK          *81
 40000000 777777777777 NLIND          *81
 40000000 000000001040 NLN            *81
 40000000 000000400000 NLNSA          *81
 41000000 000000001053 NOBF           *81
 01101000 000000000237 NODATABASE     174      *279
 01101000 000000000245 NOGLOBAL       126      *288
 40000000 000000000711 NOPTRS         *81
 40000000 777777177777 NORTNFLG       *62
 01101000 000000000073 NOTRACE        153      *157
 40000000 000000000742 NPARCW         *81
 40000000 000000000630 NPIND          *81
 40000000 000000000004 NPOS           *81
 40000000 000000234510 NSA            *81
 40000000 000000234654 NSCS           *81
 40000000 000000234344 NSDB           *81
 40000000 000000000001 NSTS           *81
 40000000 000000000726 NUMENT         *81
 40000000 000000000727 NUMPTR         *81
 40000000 777777777760 NXBUF          *81
 40000000 000000000713 NXPRI          *81
 40000000 000000000771 NXTC           *81
 40000000 000000000001 OAACN          *81
 40000000 000000000022 OACIWSOF       *81
 40000000 000000000001 OAOFST         *81
 40000000 000000000002 OARCN          *81
 40000000 000000000001 OASCN          *81
 12:53 09/05/97  FILE=ZIM$ENTRY.:ZIC0TSI      SYMBOL TABLE                                               40   BMAP - B00
 40000000 000000000014 OD             *81
 40000000 000000000074 ODBK           *81
 40000000 000000001072 OLDSIZ         *81
 40000000 000000000101 OPADP          *81
 40000000 000000000741 OPARCW         *81
 40000000 000000210570 ORDNI          *81
 40000000 777777777777 OTVL           *81
 40000000 000000000252 OWNPTR         *81
 40000000 000000000016 PABUF          *81
 40000000 000000001041 PACD           *81
 40000000 000000000001 PACW           *81
 40000000 000000000733 PADBK          *81
 40000000 000000000740 PADUP          *81
 40000000 000000000745 PAEN           *81
 40000000 000000000745 PAEO           *81
 40000000 000000000734 PAEOF          *81
 40000000 000000303336 PAER1          *81
 40000000 000000303337 PAER2          *81
 40000000 000000303340 PAER3          *81
 40000000 000000303341 PAER4          *81
 40000000 000000303342 PAER5          *81
 40000000 000000303343 PAER6          *81
 40000000 000000000747 PAESZ          *81
 40000000 000000001060 PAFLG          *81
 40000000 000000000731 PAOPTR         *81
 40000000 000000000734 PAPOF          *81
 40000000 000000000714 PARCW          *81
 40000000 000000000726 PARVPA         *81
 40000000 000000000724 PASPLT         *81
 40000000 000000000004 PAWSZ          *81
 40000000 777777777762 PBUF           *81
 40000000 000000000020 PC             *81
 41000000 000000000510 PCB            *81
 40000000 000000000642 PCD            *81
 40000000 000000000642 PCD2           *81
 40000000 000000000247 PCEXI          *81
 40000000 000000000675 PCMIN          *81
 12:53 09/05/97  FILE=ZIM$ENTRY.:ZIC0TSI      SYMBOL TABLE                                               41   BMAP - B00
 40000000 000000004541 PCOMP          *81
 40000000 000000000010 PD             *81
 40000000 000000000040 PE             *81
 41000000 000000000017 PENDING        *81       216       223
 40000000 000000000004 PF             *81
 40000000 000000000400 PFG            *81
 40000000 000000000200 PFM            *81
 40000000 000000000100 PFS            *81
 40000000 000000000400 PG             *81
 40000000 000000001064 PGHD           *81
 40000000 000000000006 PGLIM          *81
 40000000 000000000003 PGRNG          *81
 40000000 000000000746 PGSIZE         *81
 40000000 000000000641 PGSPLT         *81
 03601000 000000000000 PIASID         *56        95       292
 40000000 000000000100 PKAW           *81
 40000000 000000001034 PLO            *81
 40000000 000000000004 PLSEP          *81
 40000000 000000000200 PM             *81
 40000000 000000001054 PNEOO          *81
 40000000 000000001047 POFSI          *81
 40000000 000000000005 PPOS           *81
 41000000 000000000000 PR0            *80       161       162       163       167       168       203
                                      206       209       210       212       291       296       297
                                      298       299       300       302
 40000000 000000000001 PR1            *80
 41000000 000000000002 PR2            *80       104       105       106       111       113       122
                                      123
 40000000 000000000003 PR3            *80
 40000000 000000000004 PR4            *80
 41000000 000000000005 PR5            *80        96        98       126       132       136       137
                                      138       139       141       143       151       152       155
                                      157       170       174       177       183       188       190
                                      205       208       211       214       216       220       223
                                      230       234       247       249       253       254       255
                                      262       263       264       266       275       277       280
                                      282
 12:53 09/05/97  FILE=ZIM$ENTRY.:ZIC0TSI      SYMBOL TABLE                                               42   BMAP - B00
 40000000 000000000006 PR6            *80
 41000000 000000000007 PR7            *80        95        98        99       113       114       194
                                      196       292       294       301
 40000000 000000303267 PRE1           *81
 40000000 000000303277 PRE10          *81
 40000000 000000303270 PRE3           *81
 40000000 000000303271 PRE4           *81
 40000000 000000303272 PRE5           *81
 40000000 000000210613 PRE6           *81
 40000000 000000210614 PRE7           *81
 40000000 000000210615 PRE8           *81
 40000000 000000303276 PRE9           *81
 40000000 000000000522 PREXC          *81
 40000000 000000000521 PRFR           *81
 40000000 000000000521 PRFR2          *81
 40000000 000000000000 PRIV           *81
 40000000 000000000526 PROPA          *81
 40000000 000000000517 PRRC           *81
 40000000 000000000517 PRRS           *81
 40000000 000000000520 PRSC           *81
 40000000 000000000516 PRSS           *81
 40000000 000000000644 PRSTS          *81
 40000000 000000000100 PS             *81
 41000000 000000000000 PS0SID         *80
 41000000 000000000001 PS1SID         *80
 41000000 000000000002 PS2SID         *80
 41000000 000000000003 PS3SID         *80
 41000000 000000000004 PS4SID         *80
 40000000 000000000005 PS5SID         *80
 40000000 000000000006 PS6SID         *80
 40000000 000000303416 PSA            *81
 40000000 000000000020 PSC            *81
 40000000 000000000010 PSD            *81
 40000000 000000000004 PSF            *81
 40000000 000000000400 PSO            *81
 40000000 000000000720 PTESZ          *81
 40000000 000000000631 PTR            *81
 12:53 09/05/97  FILE=ZIM$ENTRY.:ZIC0TSI      SYMBOL TABLE                                               43   BMAP - B00
 40000000 000000000724 PTRESZ         *81
 40000000 000000000710 PTRNO          *81
 41000000 000000000630 PWS            *81
 40000000 000000000002 RADDR          *81
 40000000 000000000010 RADIX          *81
 40000000 000000000005 RAPTR          *81
 40000000 000000000004 RAWSOF         *81
 40000000 777777777766 RBA            *81
 40000000 000000023432 RCBI           *81
 40000000 000000211234 RCDNL          *81
 40000000 000000000005 RCFRH          *81
 40000000 000000000004 RCFRN          *81
 40000000 000000001075 RCHD           *81
 40000000 000000000001 RCID           *81
 40000000 000000000006 RCPTR          *81
 40000000 000000000002 RCRAH          *81
 40000000 000000000001 RCRAN          *81
 40000000 000000000003 RCRSH          *81
 40000000 000000000002 RCRSN          *81
 41000000 000000210667 RCVER1         *81       276
 41000000 000000210670 RCVER2         *81       147
 41000000 000000210671 RCVER4         *81       289
 41000000 000000210672 RCVER5         *81       281
 41000000 000000210673 RCVER6         *81       287
 40000000 000000000736 RCW1           *81
 40000000 000000000737 RCW2           *81
 40000000 000000000004 RCWSO          *81
 40000000 000000000077 RDAC           *81
 40000000 000000000076 RDCNT          *81
 40000000 000000040000 RDI            *81
 40000000 000000015674 RDLT           *81
 40000000 000000000075 RDYCW          *81
 40000000 000000000066 RECAC          *81
 40000000 000000000065 RECFR          *81
 40000000 000000000070 RECRC          *81
 40000000 000000000067 RECSC          *81
 40000000 000000000003 RECSZ          *81
 12:53 09/05/97  FILE=ZIM$ENTRY.:ZIC0TSI      SYMBOL TABLE                                               44   BMAP - B00
 01101000 000000000174 RELEASE        218      *223
 40000000 000000000235 REMLT          *81
 40000000 000000000062 REM_RECOVER    *81
 40000000 000000000251 RETFR          *81
 40000000 000000210724 RFDNL          *81
 40000000 000000017644 RIM            *81
 40000000 000000000005 RNAM           *81
 40000000 000000015706 RNDLT          *81
 40000000 000000000662 RNG1           *81
 40000000 000000000664 RNG2           *81
 40000000 000000000073 RNGD           *81
 40000000 000000000072 RNGO           *81
 40000000 000000000660 RNGTAL         *81
 40000000 000000020154 RNM            *81
 40000000 000000000041 ROCUR          *81
 40000000 000000000001 ROFST          *81
 40000000 000000002114 ROLL           *81
 40000000 000000020010 RPM            *81
 40000000 000000000001 RSCDH          *81
 40000000 000000000001 RSCDN          *81
 40000000 000000211710 RSDNL          *81
 40000000 000000004540 RSEE           *81
 40000000 000000000003 RSIZ           *81
 40000000 000000000110 RSPAM          *81
 40000000 000000000004 RSPTR          *81
 40000000 000000000037 RSREQ          *81
 40000000 000000000002 RSSSH          *81
 40000000 000000000001 RSSSN          *81
 40000000 000000210574 RSZER          *81
 40000000 000000000632 RSZTP          *81
 41000000 000000600000 RTNFLGS        *61        62
 40000000 000000000003 RTP            *81
 40000000 000000000003 RTYP           *81
 40000000 000000000530 RV1            *81
 40000000 000000000550 RV2            *81
 40000000 000000000570 RV3            *81
 40000000 000000000610 RV4            *81
 12:53 09/05/97  FILE=ZIM$ENTRY.:ZIC0TSI      SYMBOL TABLE                                               45   BMAP - B00
 40000000 000000000003 RVASID         *80
 40000000 000000000510 RVI            *81
 41000000 000000000511 RVO            *81       194
 40000000 000000000513 RVPA           *81
 40000000 000000000512 RVT            *81
 40000000 000000000022 RVTAL          *81
 40000000 000000000002 RWSZ           *81
 41000000 000000000015 RY             *81       309
 40000000 000000210620 RYE1           *81
 40000000 000000210621 RYE4           *81
 40000000 777777777767 SA             *81
 40000000 000000000005 SANAM          *81
 40000000 000000001062 SCDES          *81
 40000000 000000211544 SCDNL          *81
 40000000 000000000024 SCFC           *81
 40000000 000000000002 SCID           *81
 40000000 000000000024 SCLST          *81
 40000000 000000000004 SCNAM          *81
 40000000 000000000004 SCPTR          *81
 40000000 000000000003 SCRSH          *81
 40000000 000000000002 SCRSN          *81
 40000000 000000000001 SCWSO          *81
 01101000 000000000040 SETUP          107      *130
 40000000 000000001225 SFWS           *81
 40000000 000000001073 SIZCHG         *81
 40000000 000000000645 SKFLG          *81
 40000000 000000000643 SKIND          *81
 40000000 000000000641 SKTYP          *81
 40000000 000000020464 SMCR           *81
 40000000 000000000003 SNAM           *81
 40000000 000000000107 SNIND          *81
 40000000 000000000735 SNPAE          *81
 40000000 000000001046 SNSI           *81
 40000000 000000000743 SOE            *81
 40000000 000000020630 SORSA          *81
 40000000 000000004374 SOSE           *81
 40000000 000000000000 SPAV           *81
 12:53 09/05/97  FILE=ZIM$ENTRY.:ZIC0TSI      SYMBOL TABLE                                               46   BMAP - B00
 40000000 000000000744 SPCAVN         *81
 40000000 000000000744 SPCAVO         *81
 40000000 000000000765 SPLF           *81
 41000000 000000000765 SPND           *81
 40000000 000000000006 SSDT           *81
 40000000 000000303243 SSER           *81
 40000000 000000303244 SSER1          *81
 40000000 000000000002 SSH            *81
 40000000 000000000005 SSNAM          *81
 40000000 000000210573 SSNF           *81
 40000000 000000210576 SSNV           *81
 40000000 000000000020 SSSPTR         *81
 40000000 000000000010 SSVDT          *81
 40000000 000000000033 SSZTP          *81
 41000000 000000000017 ST             *81       309
 01101000 000000000160 STATS          183       184      *213       267
 40000000 000000000104 STBIN          *81
 40000000 000000000105 STDEC          *81
 40000000 000000303302 STE1           *81
 40000000 000000303303 STE2           *81
 40000000 000000210624 STE3           *81
 40000000 000000303305 STE4           *81
 40000000 000000303306 STE5           *81
 41000000 000000000100 STKSIZ         *81
 40000000 000000000055 STMASK         *81
 40000000 000000000062 SUST           *81
 41000000 000000000020 SWS            *81
 40000000 000000000000 SWSAC          *81
 40000000 000000000002 SWSZ           *81
 40000000 000000000000 SYSSF          *81
 40000000 000000000765 SZREQ          *81
 40000000 000000000004 TBUF           *81
 40000000 000000001061 TCTRS          *81
 60000000 000000000000 TDS            *81
 41000000 000000000113 TEMP           *81
 40000000 000000000640 TFLD           *81
 40000000 000000000657 TFLD2          *81
 12:53 09/05/97  FILE=ZIM$ENTRY.:ZIC0TSI      SYMBOL TABLE                                               47   BMAP - B00
 40000000 000000000056 TMASK          *81
 41000000 000000000061 TMODE          *81       152       170
 40000000 000000000676 TMPPA          *81
 40000000 000000000003 TPAI           *81
 40000000 000000500000 TPRCOD         *81
 01101000 000000000125 TRON           165      *179
 40000000 000000001031 TSFN           *81
 40000000 000000000021 TSI            *81
 40000000 000000001013 UBRD2          *81
 41000000 000000001223 UBSZ           *81
 40000000 000000000667 UCADR          *81
 40000000 000000000036 UCRS           *81
 40000000 000000000024 UFSPK          *81
 40000000 000000000024 UFSPK2         *81
 40000000 000000000715 ULIM           *81
 40000000 000000004230 UNA            *81
 40000000 000000303417 UNIM           *81
 40000000 000000000002 UOFST          *81
 40000000 000000001035 UPACD          *81
 40000000 000000000721 UPACW          *81
 41000000 000000000007 UPFLAG         *81       162
 40000000 000000000103 UPPAI          *81
 40000000 000000000004 UPTSID         *80
 40000000 000000000674 USTAT          *81
 03301003 000000000000 UWA$           *53       203       291
 40000000 000000000002 UWASID         *80
 40000000 000000000002 UWSSZ          *81
 40000000 000000000020 UWSZ           *81
 40000000 000000000243 VFDSC          *81
 40000000 000000001070 VFDSR          *81
 40000000 000000000656 VFLD           *81
 40000000 000000001074 VFLNG          *81
 40000000 000000001124 VIB1           *81
 40000000 000000001154 VIBP           *81
 40000000 000000000000 VLPSID         *80
 40000000 000000001074 VRSIZ          *81
 40000000 000000001067 WLOA           *81
 12:53 09/05/97  FILE=ZIM$ENTRY.:ZIC0TSI      SYMBOL TABLE                                               48   BMAP - B00
 40000000 000000100000 WRTI           *81
 40000000 000000000000 WSBID          *81
 40000000 000000000003 WSOF           *81
 41000000 000000000000 X0             *80       119       149       150       151       158       159
 41000000 000000000001 X1             *80       126       127       140       154       155       156
                                      174       177       183       188       193       194       196
                                      211       212       214       252       253       254       264
 41000000 000000000002 X2             *80       105       122       152
 40000000 000000000003 X3             *80
 40000000 000000000004 X4             *80
 40000000 000000000005 X5             *80
 40000000 000000000006 X6             *80
 02201010 000000000000 X66_ARET       *80
 02201009 000000000000 X66_AUTO_0     *80
 03201000 000000000000 X66_MSTATIC    *40       119
 41000000 000000000007 X7             *80        89        91       132       145       157       172
                                      176       182       265       266
 40000000 000000210665 XASL           *81
 41000000 000000400000 XCONFLG        *59        61
 01101000 000000000164 XEXIT          214      *215
 40000000 000000303420 XLD            *81
 40000000 000000303421 XPD            *81
 40000000 000000000676 XPRS           *81
 40000000 000000210666 XROLL          *81
 41000000 000000210664 XUNEX          *81       219
 40000000 777777777777 XXDPN          *81
 03201008 000000000000 ZIB$CLRRECOVER           *48       140
 03201004 000000000000 ZID$ASTATS     *44       214
 03201051 000000000000 ZIE$STATS     *309
 03201021 000000000000 ZIG$DBACC     *309
 03201020 000000000000 ZIG$DBACN     *309
 03201018 000000000000 ZIG$DBCON     *309
 03201016 000000000000 ZIG$DBERS     *309
 03201034 000000000000 ZIG$DBFAA     *309
 03201033 000000000000 ZIG$DBFAS     *309
 03201029 000000000000 ZIG$DBFCD     *309
 03201032 000000000000 ZIG$DBFCR     *309
 12:53 09/05/97  FILE=ZIM$ENTRY.:ZIC0TSI      SYMBOL TABLE                                               49   BMAP - B00
 03201031 000000000000 ZIG$DBFCT     *309
 03201028 000000000000 ZIG$DBFDC     *309
 03201027 000000000000 ZIG$DBFDP     *309
 03201037 000000000000 ZIG$DBFDR     *309
 03201026 000000000000 ZIG$DBFKC     *309
 03201025 000000000000 ZIG$DBFKY     *309
 03201030 000000000000 ZIG$DBFOR     *309
 03201036 000000000000 ZIG$DBFRA     *309
 03201039 000000000000 ZIG$DBFRI     *309
 03201035 000000000000 ZIG$DBFRS     *309
 03201038 000000000000 ZIG$DBFUI     *309
 03201040 000000000000 ZIG$DBGET     *309
 03201041 000000000000 ZIG$DBGTF     *309
 03201024 000000000000 ZIG$DBIFM     *309
 03201022 000000000000 ZIG$DBIFT     *309
 03201054 000000000000 ZIG$DBINA     *309
 03201023 000000000000 ZIG$DBIST     *309
 03201017 000000000000 ZIG$DBMOD     *309
 03201013 000000000000 ZIG$DBRDY     *309
 03201015 000000000000 ZIG$DBSTO     *309
 03201056 000000000000 ZIM$CALC      *309
 03201006 000000000000 ZIM$CLEANUP    *46       225
 03201053 000000000000 ZIM$EADDBUF   *309
 03201042 000000000000 ZIM$ECKPT     *309
 03201050 000000000000 ZIM$ECRPT     *309
 03201019 000000000000 ZIM$EDIS      *309
 03201057 000000000000 ZIM$EKEEP     *309
 03201058 000000000000 ZIM$EREDUCEQ  *309
 03201011 000000000000 ZIM$EROL      *309
 03201048 000000000000 ZIM$ESHALL    *309
 03201055 000000000000 ZIM$ESHANY    *309
 03201052 000000000000 ZIM$ESHCUR    *309
 03201047 000000000000 ZIM$ESHIN     *309
 03201059 000000000000 ZIM$ESHINCUR  *309
 03201049 000000000000 ZIM$ESHNO     *309
 03201046 000000000000 ZIM$ESTOFF    *309
 03201045 000000000000 ZIM$ESTON     *309
 12:53 09/05/97  FILE=ZIM$ENTRY.:ZIC0TSI      SYMBOL TABLE                                               50   BMAP - B00
 03201044 000000000000 ZIM$ETROFF    *309
 03201043 000000000000 ZIM$ETRON     *309
 03201014 000000000000 ZIM$FINISH    *309
 03201012 000000000000 ZIM$HEREIAM   *309
 03201003 000000000000 ZIM$RESAUTO    *43       127
 03201007 000000000000 ZIM$TRACE      *47       156
 03201005 000000000000 ZIM$USEP       *45       188
 03201001 000000000000 ZIO$CHKSSN     *41       174
 03201002 000000000000 ZIO$INIT       *42       126
 01101000 000000000214 ZIR$DBETC     *245       309
 13101000 000000000000 ZIR$ENTRY       35       *88       311
 12101000 000000000225 ZIR$ESCAPE      36      *261
 13101000 000000000211 ZIR$EXIT        37       226       228       232      *239       303
 01101000 000000000263 ZI_FCNVCT      133       149       158       176       182      *309

    1073 SYMBOLS

 12:53 09/05/97  FILE=ZIM$ENTRY.:ZIC0TSI      MACRO TABLE                                                51   BMAP - B00
 CBSYM           81
 DBCAL          126       127       140       156       174       177       183       188       214
 DBCS_ENTRY     309
 DBCS_FCNS      309
 ERROR          147       287       289
 M$INTRTN       235
 Q2SYM           81
 SSSYM           81

      42 MACROS

    SYMBOL SPACE USED 10491 WORDS
     MACRO SPACE USED 13844 WORDS
   INPUT RECORDS READ  2516
 STATEMENTS PROCESSED  3190
         ELAPSED TIME  0:14.16
             CPU TIME    13.61 SEC.
        ASSEMBLY RATE 14063 STATEMENTS/CPU MIN.

      NO ERRORS

