
PL6.E3A0      #001=ZIM$FINISH File=ZIM$FINISH.:ZIC0TSI                           FRI 09/05/97 12:54 Page:1
        1        1        /*T***********************************************************/
        2        2        /*T*                                                         */
        3        3        /*T* Copyright (c) Bull HN Information Systems Inc., 1997    */
        4        4        /*T*                                                         */
        5        5        /*T***********************************************************/
        6        6        ZIM$FINISH: PROC ALTRET
        7        7               AVOID($PR5,$PR6,$PR7);
        8        8        %INCLUDE ZI$GLOBAL;
        9      494            %GLOBALS;
       10      802        %INCLUDE ZI$SSS;
       11     1351            %AC;
       12     1446        %INCLUDE ZI$DBCB;
       13     2088            %DBCB;
       14     2566            %AWS;
       15     2606        %INCLUDE ZI$USER;
       16     2751            %RVA;
       17     2764        %INCLUDE ZI$DBCSV_C;
       18     2902            %IPT$FIN_V;
       19     2906        %INCLUDE ZI_ERRORS_C;
       20     3232        %INCLUDE CP_6_SUBS;
       21     3772    1   DCL ZIM$DBIOQ ENTRY ALTRET;
       22     3773    1   DCL ZIM$FINALL ENTRY ALTRET;
       23     3774    1   DCL ZIM$CHKPT ENTRY(1) ALTRET;
       24     3775    1   DCL COUNT UBIN(36);
       25     3776    1   DCL I UBIN(36);
       26     3777    1   DCL VLP$ PTR SYMREF;
       27     3778    1   DCL ERROR UBIN(36);
       28     3779    1       DBCB$=GLOBAL.ACTIVE.DBCB$;
       29     3780    1       SSS$=GLOBAL.ACTIVE.SSS$;
       30     3781    1       CALL ZIM$CHKPT(0) ALTRET(ER_ALT);
       31     3782    1       COUNT=VLP$->IPT$FIN_V.ALCW.N_AREAS;
       32     3783    1       IF COUNT=0 THEN
       33     3784    1           CALL ZIM$FINALL ALTRET(ER_ALT);
       34     3785    1       ELSE
       35     3786    2       DO I=0 TO COUNT - 1;
       36     3787    2           AC$=PINCRW(SSS$,RVA.RVE.EO
       37     3788    2              (VLP$->IPT$FIN_V.AC_OFFSETS.RVA_OFFSET(I)-1));
PL6.E3A0      #001=ZIM$FINISH File=ZIM$FINISH.:ZIC0TSI                           FRI 09/05/97 12:54 Page:2
       38     3789    2           IF AC.DEF.TYPE~=AC_CLASS THEN
       39     3790    2               GOTO ER_ARG;
       40     3791    2           GLOBAL.PARAN.IO.AWS$=PINCRW(DBCB$,AC.WSOF);
       41     3792    2           DBCB.IOWS.ACOPN=POFFW(AC$,SSS$);
       42     3793    2           CALL ZIM$DBIOQ ALTRET(ER_ALT);
       43     3794    2           END;
       44     3795    1       RETURN;
       45     3796    1   ER_ARG: GLOBAL.RET.ERROR#=ERR#CM#ARGER;
       46     3797    1       GOTO ER_ALT;
       47     3798    1   ER_ALT: ;
       48     3799            %DBALT;
       49     3813    1   END ZIM$FINISH;
       50     3814        %EOD;

PL6.E3A0      #001=ZIM$FINISH File=ZIM$FINISH.:ZIC0TSI                           FRI 09/05/97 12:54 Page:3
--  Include file information  --

   CP_6_SUBS.:LIB_E05  is referenced.
   ZI_ERRORS_C.:ZIC0TOU  is referenced.
   ZI$DBCSV_C.:ZIC0TOU  is referenced.
   ZI$USER.:ZIC0TOU  is referenced.
   ZI$DBCB.:ZIC0TOU  is referenced.
   ZI$SSS.:ZIC0TOU  cannot be made into a system file and is referenced.
   ZI$GLOBAL.:ZIC0TOU  is referenced.
   B$JIT_C.:E05TOU  was found in the system file and is never referenced.
   CP_6_C.:E05TOU  was found in the system file and is never referenced.
      No diagnostics issued in procedure ZIM$FINISH.

   Procedure ZIM$FINISH requires 80 words for executable code.
   Procedure ZIM$FINISH requires 12 words of local(AUTO) storage.

PL6.E3A0      #001=ZIM$FINISH File=ZIM$FINISH.:ZIC0TSI                           FRI 09/05/97 12:54 Page:4

 Object Unit name= ZIM$FINISH                                 File name= ZIM$FINISH.:ZIC0TOU
 UTS= SEP 05 '97 12:54:33.88 FRI                              Compiler= PL-6/E31         Sev=      00
 SharedLib= :SHARED_SYSTEM                                    Alt SharedLib=


    ****  Control sections  ****

 Sect   Type Bound  Init  Size OctSiz  Section name(segment info)
    0   Proc  even  none    80    120  ZIM$FINISH
    1  RoData even  none     3      3  ZIM$FINISH

    ****  Entry defs  ****

                              Check   Calling
                             calling  sequence
  Sect OctLoc Primary Altret sequence   type   Parms  Name
     0      0   yes    yes     yes      XStd       0  ZIM$FINISH

  ****  Entry refs  ****

         Check        Calling
        calling       sequence
Altret sequence SRef   type   Args  Name
 yes     yes           XStd      1 ZIM$CHKPT
 yes     yes           XStd      0 ZIM$DBIOQ
         yes           XStd      0 ZIB$ERR
 yes     yes           XStd      0 ZIM$FINALL
                       nStd      0 X66_AUTO_0
                       nStd      0 X66_ARET
                       nStd      0 X66_AALT

  ****  Data refs  ****

  Flags:  r = read only, s = secondary
Flgs Name                             Flgs Name                             Flgs Name
r    GLOBAL$                               RVA$                                  VLP$
PL6.E3A0      #001=ZIM$FINISH File=ZIM$FINISH.:ZIC0TSI                           FRI 09/05/97 12:54 Page:5

  ****  Segment refs  ****

  Flags:  r = read only, s = secondary
Flgs Name                             Flgs Name                             Flgs Name
     ISSID
PL6.E3A0      #001=ZIM$FINISH File=ZIM$FINISH.:ZIC0TSI                           FRI 09/05/97 12:54 Page:6


        1        1        /*T***********************************************************/
        2        2        /*T*                                                         */
        3        3        /*T* Copyright (c) Bull HN Information Systems Inc., 1997    */
        4        4        /*T*                                                         */
        5        5        /*T***********************************************************/
        6        6        ZIM$FINISH: PROC ALTRET

      6  0 000000   000000 700200 xent  ZIM$FINISH   TSX0  ! X66_AUTO_0
         0 000001   000014 000000                    ZERO    12,0

        7        7               AVOID($PR5,$PR6,$PR7);
        8        8        %INCLUDE ZI$GLOBAL;
        9      494            %GLOBALS;
       10      802        %INCLUDE ZI$SSS;
       11     1351            %AC;
       12     1446        %INCLUDE ZI$DBCB;
       13     2088            %DBCB;
       14     2566            %AWS;
       15     2606        %INCLUDE ZI$USER;
       16     2751            %RVA;
       17     2764        %INCLUDE ZI$DBCSV_C;
       18     2902            %IPT$FIN_V;
       19     2906        %INCLUDE ZI_ERRORS_C;
       20     3232        %INCLUDE CP_6_SUBS;
       21     3772    1   DCL ZIM$DBIOQ ENTRY ALTRET;
       22     3773    1   DCL ZIM$FINALL ENTRY ALTRET;
       23     3774    1   DCL ZIM$CHKPT ENTRY(1) ALTRET;
       24     3775    1   DCL COUNT UBIN(36);
       25     3776    1   DCL I UBIN(36);
       26     3777    1   DCL VLP$ PTR SYMREF;
       27     3778    1   DCL ERROR UBIN(36);
       28     3779    1       DBCB$=GLOBAL.ACTIVE.DBCB$;

   3779  0 000002   000000 470400 xsym               LDP0    GLOBAL$
         0 000003   000001 236100                    LDQ     1,,PR0
         0 000004   200005 756100                    STQ     DBCB$,,AUTO
PL6.E3A0      #001=ZIM$FINISH File=ZIM$FINISH.:ZIC0TSI                           FRI 09/05/97 12:54 Page:7

       29     3780    1       SSS$=GLOBAL.ACTIVE.SSS$;

   3780  0 000005   000000 236100                    LDQ     0,,PR0
         0 000006   200003 756100                    STQ     SSS$,,AUTO

       30     3781    1       CALL ZIM$CHKPT(0) ALTRET(ER_ALT);

   3781  0 000007   000002 630400 1                  EPPR0   2
         0 000010   000000 631400 1                  EPPR1   0
         0 000011   000000 701000 xent               TSX1    ZIM$CHKPT
         0 000012   000077 702000 0                  TSX2    ER_ALT

       31     3782    1       COUNT=VLP$->IPT$FIN_V.ALCW.N_AREAS;

   3782  0 000013   000000 470400 xsym               LDP0    VLP$
         0 000014   000000 236100                    LDQ     0,,PR0
         0 000015   000022 732000                    QRS     18
         0 000016   200007 756100                    STQ     COUNT,,AUTO

       32     3783    1       IF COUNT=0 THEN

   3783  0 000017   000024 601000 0                  TNZ     s:3786

       33     3784    1           CALL ZIM$FINALL ALTRET(ER_ALT);

   3784  0 000020   000001 631400 1                  EPPR1   1
         0 000021   000000 701000 xent               TSX1    ZIM$FINALL
         0 000022   000077 702000 0                  TSX2    ER_ALT
         0 000023   000072 710000 0                  TRA     s:3795

       34     3785    1       ELSE
       35     3786    2       DO I=0 TO COUNT - 1;

   3786  0 000024   200010 450100                    STZ     I,,AUTO
         0 000025   000067 710000 0                  TRA     s:3794+3

PL6.E3A0      #001=ZIM$FINISH File=ZIM$FINISH.:ZIC0TSI                           FRI 09/05/97 12:54 Page:8
       36     3787    2           AC$=PINCRW(SSS$,RVA.RVE.EO

   3787  0 000026   000000 470400 xsym               LDP0    VLP$
         0 000027   200010 720100                    LXL0    I,,AUTO
         0 000030   000001 221110                    LDX1    1,X0,PR0
         0 000031   000000 471400 xsym               LDP1    RVA$
         0 000032   100000 222111                    LDX2    0,X1,PR1
         0 000033   000000 636012                    EAQ     0,X2
         0 000034   200003 036100                    ADLQ    SSS$,,AUTO
         0 000035   200004 756100                    STQ     AC$,,AUTO

       37     3788    2              (VLP$->IPT$FIN_V.AC_OFFSETS.RVA_OFFSET(I)-1));
       38     3789    2           IF AC.DEF.TYPE~=AC_CLASS THEN

   3789  0 000036   200004 473500                    LDP3    AC$,,AUTO
         0 000037   300000 236100                    LDQ     0,,PR3
         0 000040   777700 376003                    ANQ     -64,DU
         0 000041   200000 116003                    CMPQ    65536,DU
         0 000042   000073 601000 0                  TNZ     ER_ARG

       39     3790    2               GOTO ER_ARG;
       40     3791    2           GLOBAL.PARAN.IO.AWS$=PINCRW(DBCB$,AC.WSOF);

   3791  0 000043   300003 221100                    LDX1    3,,PR3
         0 000044   000000 636011                    EAQ     0,X1
         0 000045   200005 036100                    ADLQ    DBCB$,,AUTO
         0 000046   000000 474400 xsym               LDP4    GLOBAL$
         0 000047   400020 756100                    STQ     16,,PR4

       41     3792    2           DBCB.IOWS.ACOPN=POFFW(AC$,SSS$);

   3792  0 000050   200003 235100                    LDA     SSS$,,AUTO
         0 000051   000022 771000                    ARL     18
         0 000052   200012 755100                    STA     ERROR+1,,AUTO
         0 000053   200004 236100                    LDQ     AC$,,AUTO
         0 000054   000022 772000                    QRL     18
         0 000055   200012 136100                    SBLQ    ERROR+1,,AUTO
PL6.E3A0      #001=ZIM$FINISH File=ZIM$FINISH.:ZIC0TSI                           FRI 09/05/97 12:54 Page:9
         0 000056   000000 621006                    EAX1    0,QL
         0 000057   200005 470500                    LDP0    DBCB$,,AUTO
         0 000060   001016 741100                    STX1    526,,PR0

       42     3793    2           CALL ZIM$DBIOQ ALTRET(ER_ALT);

   3793  0 000061   000001 631400 1                  EPPR1   1
         0 000062   000000 701000 xent               TSX1    ZIM$DBIOQ
         0 000063   000077 702000 0                  TSX2    ER_ALT

       43     3794    2           END;

   3794  0 000064   200010 235100                    LDA     I,,AUTO
         0 000065   000001 035007                    ADLA    1,DL
         0 000066   200010 755100                    STA     I,,AUTO
         0 000067   200010 236100                    LDQ     I,,AUTO
         0 000070   200007 116100                    CMPQ    COUNT,,AUTO
         0 000071   000026 602000 0                  TNC     s:3787

       44     3795    1       RETURN;

   3795  0 000072   000000 702200 xent               TSX2  ! X66_ARET

       45     3796    1   ER_ARG: GLOBAL.RET.ERROR#=ERR#CM#ARGER;

   3796  0 000073   210562 235007       ER_ARG       LDA     70002,DL
         0 000074   000000 474400 xsym               LDP4    GLOBAL$
         0 000075   400006 755100                    STA     6,,PR4

       46     3797    1       GOTO ER_ALT;

   3797  0 000076   000077 710000 0                  TRA     ER_ALT

   3796  0 000077                       ER_ALT       null
       47     3798    1   ER_ALT: ;
       48     3799            %DBALT;

PL6.E3A0      #001=ZIM$FINISH File=ZIM$FINISH.:ZIC0TSI                           FRI 09/05/97 12:54 Page:10
   3800  0 000077   000000 470400 xsym               LDP0    GLOBAL$
         0 000100   000006 235100                    LDA     6,,PR0
         0 000101   000110 601000 0                  TNZ     s:3808

   3802  0 000102   000010 450100                    STZ     8,,PR0

   3803  0 000103   000012 450100                    STZ     10,,PR0

   3804  0 000104   000013 450100                    STZ     11,,PR0

   3805  0 000105   000011 450100                    STZ     9,,PR0

   3806  0 000106   200011 236100                    LDQ     ERROR,,AUTO
         0 000107   000006 756100                    STQ     6,,PR0

   3808  0 000110   000006 235100                    LDA     6,,PR0
         0 000111   303240 115007                    CMPA    100000,DL
         0 000112   000114 603000 0                  TRC     s:3811

   3809  0 000113   000000 702200 xent               TSX2  ! X66_AALT

   3811  0 000114   000001 631400 1                  EPPR1   1
         0 000115   000000 701000 xent               TSX1    ZIB$ERR
         0 000116   000000 011000                    NOP     0

       49     3813    1   END ZIM$FINISH;

   3813  0 000117   000000 702200 xent               TSX2  ! X66_ARET

(unnamed)
 Sect OctLoc
   1     000   000001 000000   000000 000000   000001 006000                    ............
       50     3814        %EOD;

PL6.E3A0      #001=ZIM$FINISH File=ZIM$FINISH.:ZIC0TSI                           FRI 09/05/97 12:54 Page:11
--  Include file information  --

   CP_6_SUBS.:LIB_E05  is referenced.
   ZI_ERRORS_C.:ZIC0TOU  is referenced.
   ZI$DBCSV_C.:ZIC0TOU  is referenced.
   ZI$USER.:ZIC0TOU  is referenced.
   ZI$DBCB.:ZIC0TOU  is referenced.
   ZI$SSS.:ZIC0TOU  cannot be made into a system file and is referenced.
   ZI$GLOBAL.:ZIC0TOU  is referenced.
   B$JIT_C.:E05TOU  was found in the system file and is never referenced.
   CP_6_C.:E05TOU  was found in the system file and is never referenced.
      No diagnostics issued in procedure ZIM$FINISH.

   Procedure ZIM$FINISH requires 80 words for executable code.
   Procedure ZIM$FINISH requires 12 words of local(AUTO) storage.
PL6.E3A0      #001=ZIM$FINISH File=ZIM$FINISH.:ZIC0TSI                           FRI 09/05/97 12:54 Page:12
          *** CROSS REFERENCE LISTING ***
**     DENOTES     IDENTIFIER DEFINITION
<<                 IDENTIFIER'S VALUE SET
>>                 IDENTIFIER'S VALUE USED
<>                 IDENTIFIER SET AND/OR USED
--                 IDENTIFIER REFERENCED
PL6.E3A0      #001=ZIM$FINISH File=ZIM$FINISH.:ZIC0TSI                           FRI 09/05/97 12:54 Page:13
          MINI XREF LISTING

AC.DEF.ANL
      1371**DCL      1442--IMP-SIZ
AC.DEF.FORG
      1358**DCL      1362--REDEF
AC.DEF.TYPE
      1357**DCL      3789>>IF
AC.WSOF
      1375**DCL      3791>>ASSIGN
AC$
      1354**DCL      1355--IMP-PTR  3787<<ASSIGN   3789>>IF       3791>>ASSIGN   3792>>ASSIGN
AWS$
      2567**DCL      2568--IMP-PTR
COUNT
      3775**DCL      3782<<ASSIGN   3783>>IF       3786>>DOINDEX
DBCB.IOWS.ACOPN
      2483**DCL      3792<<ASSIGN
DBCB.IOWS.CFCT
      2518**DCL      2519--REDEF
DBCB.IOWS.DBKF.RQ
      2461**DCL      2462--REDEF
DBCB.IOWS.DBKR
      2458**DCL      2459--REDEF
DBCB.IOWS.NOBF
      2520**DCL      2521--REDEF
DBCB.IOWS.SPND
      2446**DCL      2447--REDEF
DBCB.SWS.RDYCW
      2184**DCL      2185--REDEF
DBCB.SWS.TEMP.PTR1$
      2218**DCL      2219--REDEF    2220--REDEF
DBCB.SWS.TEMP.PTR2$
      2221**DCL      2222--REDEF
PL6.E3A0      #001=ZIM$FINISH File=ZIM$FINISH.:ZIC0TSI                           FRI 09/05/97 12:54 Page:14
DBCB$
      2089**DCL      2090--IMP-PTR  3779<<ASSIGN   3791>>ASSIGN   3792>>ASSIGN
ERROR
      3778**DCL      3806>>ASSIGN
ER_ALT
      3796**LABEL    3781--CALLALT  3784--CALLALT  3793--CALLALT  3797--GOTO
ER_ARG
      3796**LABEL    3790--GOTO
GLOBAL.ACTIVE.DBCB$
       501**DCL       502--REDEF    3779>>ASSIGN
GLOBAL.ACTIVE.SSS$
       497**DCL       498--REDEF    3780>>ASSIGN
GLOBAL.KEY
       705**DCL       708--REDEF
GLOBAL.PARAN.IO.AWS$
       544**DCL      3791<<ASSIGN
GLOBAL.PARAN.TRACE.MODE
       580**DCL       587--REDEF
GLOBAL.PRINTBUF.BUFFER
       739**DCL       740--REDEF     741--REDEF     742--REDEF
GLOBAL.PRINTBUF.ERR.V
       744**DCL       747--REDEF     748--REDEF     749--REDEF
GLOBAL.RET.AC#
       517**DCL      3802<<ASSIGN
GLOBAL.RET.ERROR#
       515**DCL      3796<<ASSIGN   3800>>IF       3806<<ASSIGN   3808>>IF
GLOBAL.RET.FR#
       518**DCL      3805<<ASSIGN
GLOBAL.RET.RC#
       520**DCL      3804<<ASSIGN
GLOBAL.RET.SC#
       519**DCL      3803<<ASSIGN
GLOBAL$
       799**DCL       495--IMP-PTR  3779>>ASSIGN   3780>>ASSIGN   3791>>ASSIGN   3796>>ASSIGN   3800>>IF
      3802>>ASSIGN   3803>>ASSIGN   3804>>ASSIGN   3805>>ASSIGN   3806>>ASSIGN   3808>>IF
I
PL6.E3A0      #001=ZIM$FINISH File=ZIM$FINISH.:ZIC0TSI                           FRI 09/05/97 12:54 Page:15
      3776**DCL      3786<<DOINDEX  3787>>ASSIGN
IPT$FIN_V.AC_OFFSETS.RVA_OFFSET
      2903**DCL      3787>>ASSIGN
IPT$FIN_V.ALCW.N_AREAS
      2903**DCL      3782>>ASSIGN
RVA.RVE.EO
      2760**DCL      2761--REDEF    3787>>ASSIGN
RVA$
      2753**DCL      2754--IMP-PTR  3787>>ASSIGN
SSS$
       809**DCL      3780<<ASSIGN   3787>>ASSIGN   3792>>ASSIGN
VLP$
      3777**DCL      3782>>ASSIGN   3787>>ASSIGN
ZIB$ERR
       800**DCL-ENT  3811--CALL
ZIM$CHKPT
      3774**DCL-ENT  3781--CALL
ZIM$DBIOQ
      3772**DCL-ENT  3793--CALL
ZIM$FINALL
      3773**DCL-ENT  3784--CALL

PL6.E3A0      #002=ZIM$FINALL File=ZIM$FINISH.:ZIC0TSI                           FRI 09/05/97 12:54 Page:16
       51        1        /*T***********************************************************/
       52        2        /*T*                                                         */
       53        3        /*T* Copyright (c) Bull HN Information Systems Inc., 1997    */
       54        4        /*T*                                                         */
       55        5        /*T***********************************************************/
       56        6        ZIM$FINALL: PROC ALTRET
       57        7               AVOID($PR5,$PR6,$PR7);
       58        8        %INCLUDE ZI$GLOBAL;
       59      494            %GLOBALS;
       60      802        %INCLUDE ZI$SSS;
       61     1351            %OA1;
       62     1359            %AC;
       63     1454        %INCLUDE ZI$DBCB;
       64     2096            %DBCB;
       65     2574        %INCLUDE CP_6_SUBS;
       66     3114            %AWS;
       67     3154    1   DCL ZIB$FIXREGS ENTRY;
       68     3155    1   DCL SFAC1 UBIN(36) SYMREF;
       69     3156    1   DCL ZIM$DBIOQ ENTRY ALTRET;
       70     3157    1   DCL ZIO$FREESSN ENTRY ALTRET;
       71     3158    1   DCL ERROR UBIN(36);
       72     3159    1       DBCB$=GLOBAL.ACTIVE.DBCB$;
       73     3160    1       SSS$=GLOBAL.ACTIVE.SSS$;
       74     3161    1       ERROR=0;
       75     3162    1       AC$=PINCRW(SSS$,SIZEW(OA1));
       76     3163    2       DO WHILE (AC.OAACN~=0);
       77     3164    2           AC$=PINCRW(SSS$,AC.OAACN);
       78     3165    2           GLOBAL.PARAN.IO.AWS$=PINCRW(DBCB$,AC.WSOF);
       79     3166    2           IF GLOBAL.PARAN.IO.AWS$->AWS.DDCB~=0 THEN
       80     3167    3           DO;
       81     3168    3               DBCB.IOWS.ACOPN=POFFW(AC$,SSS$);
       82     3169    3               CALL ZIM$DBIOQ ALTRET(ER_IOQ);
       83     3170    3               END;
       84     3171    2   NEXTAC: END;
       85     3172    1       GLOBAL.ACTIVE.SSS$=GLOBAL.CANSSS$;
       86     3173    1       CALL ZIB$FIXREGS;
       87     3174    1       AC$=ADDR(SFAC1);
PL6.E3A0      #002=ZIM$FINALL File=ZIM$FINISH.:ZIC0TSI                           FRI 09/05/97 12:54 Page:17
       88     3175    1       GLOBAL.PARAN.IO.AWS$=PINCRW(DBCB$,AC.WSOF);
       89     3176    1       IF GLOBAL.PARAN.IO.AWS$->AWS.DDCB~=0 THEN
       90     3177    2       DO;
       91     3178    2           DBCB.IOWS.ACOPN=POFFW(AC$,GLOBAL.CANSSS$);
       92     3179    2           CALL ZIM$DBIOQ ALTRET(IGNORE);
       93     3180    2           END;
       94     3181    1   IGNORE: GLOBAL.ACTIVE.SSS$=GLOBAL.DB.SSS$(GLOBAL.ACTIVE.DBNO);
       95     3182    1       CALL ZIB$FIXREGS;
       96     3183    1       GLOBAL.DB.COUNT=GLOBAL.DB.COUNT-1;
       97     3184    1       IF GLOBAL.DB.COUNT=0 THEN
       98     3185    1           GLOBAL.PENDING.RELEASE=%YES#;
       99     3186    1       CALL ZIO$FREESSN;
      100     3187    1       IF ERROR=0 THEN
      101     3188    1           RETURN;
      102     3189            %DBALT;
      103     3203    1   ER_FLSH: ;
      104     3204    1   ER_IOQ: ERROR=GLOBAL.RET.ERROR#;
      105     3205    1       GOTO NEXTAC;
      106     3206    1   END ZIM$FINALL;
      107     3207        %EOD;

PL6.E3A0      #002=ZIM$FINALL File=ZIM$FINISH.:ZIC0TSI                           FRI 09/05/97 12:54 Page:18
--  Include file information  --

   CP_6_SUBS.:LIB_E05  is referenced.
   ZI$DBCB.:ZIC0TOU  is referenced.
   ZI$SSS.:ZIC0TOU  cannot be made into a system file and is referenced.
   ZI$GLOBAL.:ZIC0TOU  is referenced.
   B$JIT_C.:E05TOU  was found in the system file and is never referenced.
   CP_6_C.:E05TOU  was found in the system file and is never referenced.
      No diagnostics issued in procedure ZIM$FINALL.

   Procedure ZIM$FINALL requires 111 words for executable code.
   Procedure ZIM$FINALL requires 12 words of local(AUTO) storage.

PL6.E3A0      #002=ZIM$FINALL File=ZIM$FINISH.:ZIC0TSI                           FRI 09/05/97 12:54 Page:19

 Object Unit name= ZIM$FINALL                                 File name= ZIM$FINISH.:ZIC0TOU
 UTS= SEP 05 '97 12:54:42.76 FRI                              Compiler= PL-6/E31         Sev=      00
 SharedLib= :SHARED_SYSTEM                                    Alt SharedLib=


    ****  Control sections  ****

 Sect   Type Bound  Init  Size OctSiz  Section name(segment info)
    0   Proc  even  none   111    157  ZIM$FINALL
    1  RoData even  none     3      3  ZIM$FINALL

    ****  Entry defs  ****

                              Check   Calling
                             calling  sequence
  Sect OctLoc Primary Altret sequence   type   Parms  Name
     0      0   yes    yes     yes      XStd       0  ZIM$FINALL

  ****  Entry refs  ****

         Check        Calling
        calling       sequence
Altret sequence SRef   type   Args  Name
 yes     yes           XStd      0 ZIM$DBIOQ
         yes           XStd      0 ZIB$FIXREGS
         yes           XStd      0 ZIB$ERR
 yes     yes           XStd      0 ZIO$FREESSN
                       nStd      0 X66_AUTO_0
                       nStd      0 X66_ARET
                       nStd      0 X66_AALT

  ****  Data refs  ****

  Flags:  r = read only, s = secondary
Flgs Name                             Flgs Name                             Flgs Name
r    GLOBAL$                               SFAC1
PL6.E3A0      #002=ZIM$FINALL File=ZIM$FINISH.:ZIC0TSI                           FRI 09/05/97 12:54 Page:20

  ****  Segment refs  ****

  Flags:  r = read only, s = secondary
Flgs Name                             Flgs Name                             Flgs Name
     NULLSID                               ISSID
PL6.E3A0      #002=ZIM$FINALL File=ZIM$FINISH.:ZIC0TSI                           FRI 09/05/97 12:54 Page:21


       51        1        /*T***********************************************************/
       52        2        /*T*                                                         */
       53        3        /*T* Copyright (c) Bull HN Information Systems Inc., 1997    */
       54        4        /*T*                                                         */
       55        5        /*T***********************************************************/
       56        6        ZIM$FINALL: PROC ALTRET

      6  0 000000   000000 700200 xent  ZIM$FINALL   TSX0  ! X66_AUTO_0
         0 000001   000014 000000                    ZERO    12,0

       57        7               AVOID($PR5,$PR6,$PR7);
       58        8        %INCLUDE ZI$GLOBAL;
       59      494            %GLOBALS;
       60      802        %INCLUDE ZI$SSS;
       61     1351            %OA1;
       62     1359            %AC;
       63     1454        %INCLUDE ZI$DBCB;
       64     2096            %DBCB;
       65     2574        %INCLUDE CP_6_SUBS;
       66     3114            %AWS;
       67     3154    1   DCL ZIB$FIXREGS ENTRY;
       68     3155    1   DCL SFAC1 UBIN(36) SYMREF;
       69     3156    1   DCL ZIM$DBIOQ ENTRY ALTRET;
       70     3157    1   DCL ZIO$FREESSN ENTRY ALTRET;
       71     3158    1   DCL ERROR UBIN(36);
       72     3159    1       DBCB$=GLOBAL.ACTIVE.DBCB$;

   3159  0 000002   000000 470400 xsym               LDP0    GLOBAL$
         0 000003   000001 236100                    LDQ     1,,PR0
         0 000004   200006 756100                    STQ     DBCB$,,AUTO

       73     3160    1       SSS$=GLOBAL.ACTIVE.SSS$;

   3160  0 000005   000000 236100                    LDQ     0,,PR0
         0 000006   200003 756100                    STQ     SSS$,,AUTO

PL6.E3A0      #002=ZIM$FINALL File=ZIM$FINISH.:ZIC0TSI                           FRI 09/05/97 12:54 Page:22
       74     3161    1       ERROR=0;

   3161  0 000007   200010 450100                    STZ     ERROR,,AUTO

       75     3162    1       AC$=PINCRW(SSS$,SIZEW(OA1));

   3162  0 000010   000001 036003                    ADLQ    1,DU
         0 000011   200005 756100                    STQ     AC$,,AUTO

       76     3163    2       DO WHILE (AC.OAACN~=0);

   3163  0 000012   200005 471500                    LDP1    AC$,,AUTO
         0 000013   100001 220100                    LDX0    1,,PR1
         0 000014   000052 600000 0                  TZE     s:3172

       77     3164    2           AC$=PINCRW(SSS$,AC.OAACN);

   3164  0 000015   200005 470500                    LDP0    AC$,,AUTO
         0 000016   000001 220100                    LDX0    1,,PR0
         0 000017   000000 636010                    EAQ     0,X0
         0 000020   200003 036100                    ADLQ    SSS$,,AUTO
         0 000021   200005 756100                    STQ     AC$,,AUTO

       78     3165    2           GLOBAL.PARAN.IO.AWS$=PINCRW(DBCB$,AC.WSOF);

   3165  0 000022   200005 470500                    LDP0    AC$,,AUTO
         0 000023   000003 220100                    LDX0    3,,PR0
         0 000024   000000 636010                    EAQ     0,X0
         0 000025   200006 036100                    ADLQ    DBCB$,,AUTO
         0 000026   000000 471400 xsym               LDP1    GLOBAL$
         0 000027   100020 756100                    STQ     16,,PR1

       79     3166    2           IF GLOBAL.PARAN.IO.AWS$->AWS.DDCB~=0 THEN

   3166  0 000030   100020 473500                    LDP3    16,,PR1
         0 000031   300006 220100                    LDX0    6,,PR3
         0 000032   000047 600000 0                  TZE     NEXTAC
PL6.E3A0      #002=ZIM$FINALL File=ZIM$FINISH.:ZIC0TSI                           FRI 09/05/97 12:54 Page:23

       80     3167    3           DO;

       81     3168    3               DBCB.IOWS.ACOPN=POFFW(AC$,SSS$);

   3168  0 000033   200003 235100                    LDA     SSS$,,AUTO
         0 000034   000022 771000                    ARL     18
         0 000035   200012 755100                    STA     ERROR+2,,AUTO
         0 000036   200005 236100                    LDQ     AC$,,AUTO
         0 000037   000022 772000                    QRL     18
         0 000040   200012 136100                    SBLQ    ERROR+2,,AUTO
         0 000041   000000 620006                    EAX0    0,QL
         0 000042   200006 474500                    LDP4    DBCB$,,AUTO
         0 000043   401016 740100                    STX0    526,,PR4

       82     3169    3               CALL ZIM$DBIOQ ALTRET(ER_IOQ);

   3169  0 000044   000001 631400 1                  EPPR1   1
         0 000045   000000 701000 xent               TSX1    ZIM$DBIOQ
         0 000046   000153 702000 0                  TSX2    ER_FLSH

       83     3170    3               END;

       84     3171    2   NEXTAC: END;

   3171  0 000047   200005 470500       NEXTAC       LDP0    AC$,,AUTO
         0 000050   000001 220100                    LDX0    1,,PR0
         0 000051   000015 601000 0                  TNZ     s:3164

       85     3172    1       GLOBAL.ACTIVE.SSS$=GLOBAL.CANSSS$;

   3172  0 000052   000000 470400 xsym               LDP0    GLOBAL$
         0 000053   000003 236100                    LDQ     3,,PR0
         0 000054   000000 756100                    STQ     0,,PR0

       86     3173    1       CALL ZIB$FIXREGS;

PL6.E3A0      #002=ZIM$FINALL File=ZIM$FINISH.:ZIC0TSI                           FRI 09/05/97 12:54 Page:24
   3173  0 000055   000001 631400 1                  EPPR1   1
         0 000056   000000 701000 xent               TSX1    ZIB$FIXREGS
         0 000057   000000 011000                    NOP     0

       87     3174    1       AC$=ADDR(SFAC1);

   3174  0 000060   000002 236000 1                  LDQ     2
         0 000061   200005 756100                    STQ     AC$,,AUTO

       88     3175    1       GLOBAL.PARAN.IO.AWS$=PINCRW(DBCB$,AC.WSOF);

   3175  0 000062   200005 470500                    LDP0    AC$,,AUTO
         0 000063   000003 220100                    LDX0    3,,PR0
         0 000064   000000 636010                    EAQ     0,X0
         0 000065   200006 036100                    ADLQ    DBCB$,,AUTO
         0 000066   000000 471400 xsym               LDP1    GLOBAL$
         0 000067   100020 756100                    STQ     16,,PR1

       89     3176    1       IF GLOBAL.PARAN.IO.AWS$->AWS.DDCB~=0 THEN

   3176  0 000070   100020 473500                    LDP3    16,,PR1
         0 000071   300006 220100                    LDX0    6,,PR3
         0 000072   000107 600000 0                  TZE     IGNORE

       90     3177    2       DO;

       91     3178    2           DBCB.IOWS.ACOPN=POFFW(AC$,GLOBAL.CANSSS$);

   3178  0 000073   100003 236100                    LDQ     3,,PR1
         0 000074   000022 772000                    QRL     18
         0 000075   200012 756100                    STQ     ERROR+2,,AUTO
         0 000076   200005 236100                    LDQ     AC$,,AUTO
         0 000077   000022 772000                    QRL     18
         0 000100   200012 136100                    SBLQ    ERROR+2,,AUTO
         0 000101   000000 620006                    EAX0    0,QL
         0 000102   200006 474500                    LDP4    DBCB$,,AUTO
         0 000103   401016 740100                    STX0    526,,PR4
PL6.E3A0      #002=ZIM$FINALL File=ZIM$FINISH.:ZIC0TSI                           FRI 09/05/97 12:54 Page:25

       92     3179    2           CALL ZIM$DBIOQ ALTRET(IGNORE);

   3179  0 000104   000001 631400 1                  EPPR1   1
         0 000105   000000 701000 xent               TSX1    ZIM$DBIOQ
         0 000106   000107 702000 0                  TSX2    IGNORE

       93     3180    2           END;

       94     3181    1   IGNORE: GLOBAL.ACTIVE.SSS$=GLOBAL.DB.SSS$(GLOBAL.ACTIVE.DBNO);

   3181  0 000107   000000 470400 xsym  IGNORE       LDP0    GLOBAL$
         0 000110   000002 235100                    LDA     2,,PR0
         0 000111   000153 236105                    LDQ     107,AL,PR0
         0 000112   000000 756100                    STQ     0,,PR0

       95     3182    1       CALL ZIB$FIXREGS;

   3182  0 000113   000001 631400 1                  EPPR1   1
         0 000114   000000 701000 xent               TSX1    ZIB$FIXREGS
         0 000115   000000 011000                    NOP     0

       96     3183    1       GLOBAL.DB.COUNT=GLOBAL.DB.COUNT-1;

   3183  0 000116   000000 470400 xsym               LDP0    GLOBAL$
         0 000117   000075 235100                    LDA     61,,PR0
         0 000120   000001 135007                    SBLA    1,DL
         0 000121   000075 755100                    STA     61,,PR0

       97     3184    1       IF GLOBAL.DB.COUNT=0 THEN

   3184  0 000122   000125 601000 0                  TNZ     s:3186

       98     3185    1           GLOBAL.PENDING.RELEASE=%YES#;

   3185  0 000123   400000 236003                    LDQ     -131072,DU
         0 000124   000017 256100                    ORSQ    15,,PR0
PL6.E3A0      #002=ZIM$FINALL File=ZIM$FINISH.:ZIC0TSI                           FRI 09/05/97 12:54 Page:26

       99     3186    1       CALL ZIO$FREESSN;

   3186  0 000125   000001 631400 1                  EPPR1   1
         0 000126   000000 701000 xent               TSX1    ZIO$FREESSN
         0 000127   000000 011000                    NOP     0

      100     3187    1       IF ERROR=0 THEN

   3187  0 000130   200010 235100                    LDA     ERROR,,AUTO
         0 000131   000133 601000 0                  TNZ     s:3190

      101     3188    1           RETURN;

   3188  0 000132   000000 702200 xent               TSX2  ! X66_ARET

      102     3189            %DBALT;

   3190  0 000133   000000 470400 xsym               LDP0    GLOBAL$
         0 000134   000006 235100                    LDA     6,,PR0
         0 000135   000144 601000 0                  TNZ     s:3198

   3192  0 000136   000010 450100                    STZ     8,,PR0

   3193  0 000137   000012 450100                    STZ     10,,PR0

   3194  0 000140   000013 450100                    STZ     11,,PR0

   3195  0 000141   000011 450100                    STZ     9,,PR0

   3196  0 000142   200010 236100                    LDQ     ERROR,,AUTO
         0 000143   000006 756100                    STQ     6,,PR0

   3198  0 000144   000006 235100                    LDA     6,,PR0
         0 000145   303240 115007                    CMPA    100000,DL
         0 000146   000150 603000 0                  TRC     s:3201

PL6.E3A0      #002=ZIM$FINALL File=ZIM$FINISH.:ZIC0TSI                           FRI 09/05/97 12:54 Page:27
   3199  0 000147   000000 702200 xent               TSX2  ! X66_AALT

   3201  0 000150   000001 631400 1                  EPPR1   1
         0 000151   000000 701000 xent               TSX1    ZIB$ERR
         0 000152   000000 011000                    NOP     0

   3198  0 000153                       ER_FLSH      null
      103     3203    1   ER_FLSH: ;
      104     3204    1   ER_IOQ: ERROR=GLOBAL.RET.ERROR#;

   3204  0 000153   000000 470400 xsym  ER_IOQ       LDP0    GLOBAL$
         0 000154   000006 235100                    LDA     6,,PR0
         0 000155   200010 755100                    STA     ERROR,,AUTO

      105     3205    1       GOTO NEXTAC;

   3205  0 000156   000047 710000 0                  TRA     NEXTAC

(unnamed)
 Sect OctLoc
   1     000   000000 006014   000000 000000   000000 006000                    ............
      106     3206    1   END ZIM$FINALL;
      107     3207        %EOD;

PL6.E3A0      #002=ZIM$FINALL File=ZIM$FINISH.:ZIC0TSI                           FRI 09/05/97 12:54 Page:28
--  Include file information  --

   CP_6_SUBS.:LIB_E05  is referenced.
   ZI$DBCB.:ZIC0TOU  is referenced.
   ZI$SSS.:ZIC0TOU  cannot be made into a system file and is referenced.
   ZI$GLOBAL.:ZIC0TOU  is referenced.
   B$JIT_C.:E05TOU  was found in the system file and is never referenced.
   CP_6_C.:E05TOU  was found in the system file and is never referenced.
      No diagnostics issued in procedure ZIM$FINALL.

   Procedure ZIM$FINALL requires 111 words for executable code.
   Procedure ZIM$FINALL requires 12 words of local(AUTO) storage.
PL6.E3A0      #002=ZIM$FINALL File=ZIM$FINISH.:ZIC0TSI                           FRI 09/05/97 12:54 Page:29
          *** CROSS REFERENCE LISTING ***
**     DENOTES     IDENTIFIER DEFINITION
<<                 IDENTIFIER'S VALUE SET
>>                 IDENTIFIER'S VALUE USED
<>                 IDENTIFIER SET AND/OR USED
--                 IDENTIFIER REFERENCED
PL6.E3A0      #002=ZIM$FINALL File=ZIM$FINISH.:ZIC0TSI                           FRI 09/05/97 12:54 Page:30
          MINI XREF LISTING

AC.DEF.ANL
      1379**DCL      1450--IMP-SIZ
AC.DEF.FORG
      1366**DCL      1370--REDEF
AC.OAACN
      1380**DCL      3163>>DOWHILE  3164>>ASSIGN
AC.WSOF
      1383**DCL      3165>>ASSIGN   3175>>ASSIGN
AC$
      1362**DCL      1363--IMP-PTR  3162<<ASSIGN   3163>>DOWHILE  3164<<ASSIGN   3164>>ASSIGN   3165>>ASSIGN
      3168>>ASSIGN   3174<<ASSIGN   3175>>ASSIGN   3178>>ASSIGN
AWS.DDCB
      3141**DCL      3166>>IF       3176>>IF
AWS$
      3115**DCL      3116--IMP-PTR
DBCB.IOWS.ACOPN
      2491**DCL      3168<<ASSIGN   3178<<ASSIGN
DBCB.IOWS.CFCT
      2526**DCL      2527--REDEF
DBCB.IOWS.DBKF.RQ
      2469**DCL      2470--REDEF
DBCB.IOWS.DBKR
      2466**DCL      2467--REDEF
DBCB.IOWS.NOBF
      2528**DCL      2529--REDEF
DBCB.IOWS.SPND
      2454**DCL      2455--REDEF
DBCB.SWS.RDYCW
      2192**DCL      2193--REDEF
DBCB.SWS.TEMP.PTR1$
      2226**DCL      2227--REDEF    2228--REDEF
DBCB.SWS.TEMP.PTR2$
PL6.E3A0      #002=ZIM$FINALL File=ZIM$FINISH.:ZIC0TSI                           FRI 09/05/97 12:54 Page:31
      2229**DCL      2230--REDEF
DBCB$
      2097**DCL      2098--IMP-PTR  3159<<ASSIGN   3165>>ASSIGN   3168>>ASSIGN   3175>>ASSIGN   3178>>ASSIGN
ERROR
      3158**DCL      3161<<ASSIGN   3187>>IF       3196>>ASSIGN   3204<<ASSIGN
ER_IOQ
      3204**LABEL    3169--CALLALT
GLOBAL.ACTIVE.DBCB$
       501**DCL       502--REDEF    3159>>ASSIGN
GLOBAL.ACTIVE.DBNO
       505**DCL      3181>>ASSIGN
GLOBAL.ACTIVE.SSS$
       497**DCL       498--REDEF    3160>>ASSIGN   3172<<ASSIGN   3181<<ASSIGN
GLOBAL.CANSSS$
       506**DCL      3172>>ASSIGN   3178>>ASSIGN
GLOBAL.DB.COUNT
       592**DCL      3183<<ASSIGN   3183>>ASSIGN   3184>>IF
GLOBAL.DB.SSS$
       594**DCL      3181>>ASSIGN
GLOBAL.KEY
       705**DCL       708--REDEF
GLOBAL.PARAN.IO.AWS$
       544**DCL      3165<<ASSIGN   3166>>IF       3175<<ASSIGN   3176>>IF
GLOBAL.PARAN.TRACE.MODE
       580**DCL       587--REDEF
GLOBAL.PENDING.RELEASE
       529**DCL      3185<<ASSIGN
GLOBAL.PRINTBUF.BUFFER
       739**DCL       740--REDEF     741--REDEF     742--REDEF
GLOBAL.PRINTBUF.ERR.V
       744**DCL       747--REDEF     748--REDEF     749--REDEF
GLOBAL.RET.AC#
       517**DCL      3192<<ASSIGN
GLOBAL.RET.ERROR#
       515**DCL      3190>>IF       3196<<ASSIGN   3198>>IF       3204>>ASSIGN
GLOBAL.RET.FR#
PL6.E3A0      #002=ZIM$FINALL File=ZIM$FINISH.:ZIC0TSI                           FRI 09/05/97 12:54 Page:32
       518**DCL      3195<<ASSIGN
GLOBAL.RET.RC#
       520**DCL      3194<<ASSIGN
GLOBAL.RET.SC#
       519**DCL      3193<<ASSIGN
GLOBAL$
       799**DCL       495--IMP-PTR  3159>>ASSIGN   3160>>ASSIGN   3165>>ASSIGN   3166>>IF       3172>>ASSIGN
      3172>>ASSIGN   3175>>ASSIGN   3176>>IF       3178>>ASSIGN   3181>>ASSIGN   3181>>ASSIGN   3181>>ASSIGN
      3183>>ASSIGN   3183>>ASSIGN   3184>>IF       3185>>ASSIGN   3190>>IF       3192>>ASSIGN   3193>>ASSIGN
      3194>>ASSIGN   3195>>ASSIGN   3196>>ASSIGN   3198>>IF       3204>>ASSIGN
IGNORE
      3181**LABEL    3179--CALLALT
NEXTAC
      3171**LABEL    3205--GOTO
OA1
      1354**DCL      3162--ASSIGN
OA1$
      1353**DCL      1354--IMP-PTR
SFAC1
      3155**DCL      3174--ASSIGN
SSS$
       809**DCL      3160<<ASSIGN   3162>>ASSIGN   3164>>ASSIGN   3168>>ASSIGN
ZIB$ERR
       800**DCL-ENT  3201--CALL
ZIB$FIXREGS
      3154**DCL-ENT  3173--CALL     3182--CALL
ZIM$DBIOQ
      3156**DCL-ENT  3169--CALL     3179--CALL
ZIO$FREESSN
      3157**DCL-ENT  3186--CALL

PL6.E3A0      #003=ZIM$NULL File=ZIM$FINISH.:ZIC0TSI                             FRI 09/05/97 12:54 Page:33
      108        1        /*T***********************************************************/
      109        2        /*T*                                                         */
      110        3        /*T* Copyright (c) Bull HN Information Systems Inc., 1997    */
      111        4        /*T*                                                         */
      112        5        /*T***********************************************************/
      113        6        ZIM$NULL: PROC ALTRET
      114        7               AVOID($PR5,$PR6,$PR7);
      115        8        %INCLUDE ZI$DBCB;
      116      650        %INCLUDE ZI$GLOBAL;
      117     1136            %GLOBALS;
      118     1444            %DBCB;
      119     1922            %AWS;
      120     1962            %RWS;
      121     1982            %SETWS;
      122     2001        %INCLUDE ZI$SSS;
      123     2550            %OA1;
      124     2558            %OA;
      125     2623            %AC;
      126     2718            %RC;
      127     2750            %SC;
      128     2777        %INCLUDE ZI$USER;
      129     2922            %UWA;
      130     2949        %INCLUDE CP_6_SUBS;
      131     3489        %INCLUDE ZI_ERRORS_C;
      132     3815    1   DCL IS$ PTR SYMREF;
      133     3816    1   DCL I$FIN UBIN(36) SYMREF;
      134     3817    1   DCL DBNO UBIN(36);
      135     3818    1   DCL ERROR UBIN(36);
      136     3819    1   DCL ZIM$DEQ_DCB ENTRY(1) ALTRET;
      137     3820    1       ERROR=0;
      138     3821    2       DO DBNO=1 TO DB#MAX;
      139     3822    2           IF GLOBAL.DB.SSS$(DBNO)~=ADDR(NIL) THEN
      140     3823    3           DO;
      141     3824    3               SSS$=GLOBAL.DB.SSS$(DBNO);
      142     3825    3               DBCB$=GLOBAL.DB.DBCB$(DBNO);
      143     3826        /*       Null current of run */
      144     3827    3               DBCB.CRUN='0'B;
PL6.E3A0      #003=ZIM$NULL File=ZIM$FINISH.:ZIC0TSI                             FRI 09/05/97 12:54 Page:34
      145     3828    3               DBCB.PCB.CRUN=0; /* RVO not current of run */
      146     3829    3               OA$=PINCRW(SSS$,SIZEW(OA1));
      147     3830    3               AC$=OA$;
      148     3831    4               DO WHILE (AC.OAACN~=0);
      149     3832    4                   AC$=PINCRW(SSS$,AC.OAACN);
      150     3833    4                   AWS$=PINCRW(DBCB$,AC.WSOF);
      151     3834    4                   AWS.CURR=0;
      152     3835    4                   IF AWS.ATRIB.CAC THEN
      153     3836    4                       CALL ZIM$DEQ_DCB(AWS.DDCB) ALTRET(ER_ALT);
      154     3837    4                   END;
      155     3838        /*       Null current of record for all records in this DB */
      156     3839    3               RC$=OA$;
      157     3840    4               DO WHILE (RC.OARCN~=0);
      158     3841    4                   RC$=PINCRW(SSS$,RC.OARCN);
      159     3842    4                   RWS$=PINCRW(DBCB$,RC.RCWSO);
      160     3843    4                   RWS.CURR=0;
      161     3844    4                   END;
      162     3845        /*       Null current of set for all sets in this DBea */
      163     3846    3               SC$=OA$;
      164     3847    4               DO WHILE (SC.OASCN~=0);
      165     3848    4                   SC$=PINCRW(SSS$,SC.OASCN);
      166     3849    4                   SETWS$=PINCRW(DBCB$,SC.SCWSO);
      167     3850    4                   SETWS.CURR=0;
      168     3851    4                   SETWS.PRIV.CSE='0'B;
      169     3852    4                   END;
      170     3853    3               END;
      171     3854    2           END;
      172     3855    1       IF POFFW(ADDR(I$FIN),IS$)=GLOBAL.FCN.CODE THEN
      173     3856    1           UWA.DBDR=0;
      174     3857    1       RETURN;
      175     3858    1   ER_ALT: ;
      176     3859            %DBALT;
      177     3873    1   END ZIM$NULL;

PL6.E3A0      #003=ZIM$NULL File=ZIM$FINISH.:ZIC0TSI                             FRI 09/05/97 12:54 Page:35
--  Include file information  --

   ZI_ERRORS_C.:ZIC0TOU  is referenced.
   CP_6_SUBS.:LIB_E05  is referenced.
   ZI$USER.:ZIC0TOU  is referenced.
   ZI$SSS.:ZIC0TOU  cannot be made into a system file and is referenced.
   ZI$GLOBAL.:ZIC0TOU  is referenced.
   ZI$DBCB.:ZIC0TOU  is referenced.
   B$JIT_C.:E05TOU  was found in the system file and is never referenced.
   CP_6_C.:E05TOU  was found in the system file and is never referenced.
      No diagnostics issued in procedure ZIM$NULL.

   Procedure ZIM$NULL requires 130 words for executable code.
   Procedure ZIM$NULL requires 20 words of local(AUTO) storage.

    No errors detected in file ZIM$FINISH.:ZIC0TSI    .

PL6.E3A0      #003=ZIM$NULL File=ZIM$FINISH.:ZIC0TSI                             FRI 09/05/97 12:54 Page:36

 Object Unit name= ZIM$NULL                                   File name= ZIM$FINISH.:ZIC0TOU
 UTS= SEP 05 '97 12:54:51.44 FRI                              Compiler= PL-6/E31         Sev=      00
 SharedLib= :SHARED_SYSTEM                                    Alt SharedLib=


    ****  Control sections  ****

 Sect   Type Bound  Init  Size OctSiz  Section name(segment info)
    0   Proc  even  none   130    202  ZIM$NULL
    1  RoData even  none     5      5  ZIM$NULL

    ****  Entry defs  ****

                              Check   Calling
                             calling  sequence
  Sect OctLoc Primary Altret sequence   type   Parms  Name
     0      0   yes    yes     yes      XStd       0  ZIM$NULL

  ****  Entry refs  ****

         Check        Calling
        calling       sequence
Altret sequence SRef   type   Args  Name
 yes     yes           XStd      1 ZIM$DEQ_DCB
         yes           XStd      0 ZIB$ERR
                       nStd      0 X66_AUTO_0
                       nStd      0 X66_ARET
                       nStd      0 X66_AALT

  ****  Data refs  ****

  Flags:  r = read only, s = secondary
Flgs Name                             Flgs Name                             Flgs Name
r    GLOBAL$                               UWA$                                  IS$
     I$FIN
PL6.E3A0      #003=ZIM$NULL File=ZIM$FINISH.:ZIC0TSI                             FRI 09/05/97 12:54 Page:37

  ****  Segment refs  ****

  Flags:  r = read only, s = secondary
Flgs Name                             Flgs Name                             Flgs Name
     NULLSID                               ISSID
PL6.E3A0      #003=ZIM$NULL File=ZIM$FINISH.:ZIC0TSI                             FRI 09/05/97 12:54 Page:38


      108        1        /*T***********************************************************/
      109        2        /*T*                                                         */
      110        3        /*T* Copyright (c) Bull HN Information Systems Inc., 1997    */
      111        4        /*T*                                                         */
      112        5        /*T***********************************************************/
      113        6        ZIM$NULL: PROC ALTRET

      6  0 000000   000000 700200 xent  ZIM$NULL     TSX0  ! X66_AUTO_0
         0 000001   000024 000000                    ZERO    20,0

      114        7               AVOID($PR5,$PR6,$PR7);
      115        8        %INCLUDE ZI$DBCB;
      116      650        %INCLUDE ZI$GLOBAL;
      117     1136            %GLOBALS;
      118     1444            %DBCB;
      119     1922            %AWS;
      120     1962            %RWS;
      121     1982            %SETWS;
      122     2001        %INCLUDE ZI$SSS;
      123     2550            %OA1;
      124     2558            %OA;
      125     2623            %AC;
      126     2718            %RC;
      127     2750            %SC;
      128     2777        %INCLUDE ZI$USER;
      129     2922            %UWA;
      130     2949        %INCLUDE CP_6_SUBS;
      131     3489        %INCLUDE ZI_ERRORS_C;
      132     3815    1   DCL IS$ PTR SYMREF;
      133     3816    1   DCL I$FIN UBIN(36) SYMREF;
      134     3817    1   DCL DBNO UBIN(36);
      135     3818    1   DCL ERROR UBIN(36);
      136     3819    1   DCL ZIM$DEQ_DCB ENTRY(1) ALTRET;
      137     3820    1       ERROR=0;

   3820  0 000002   200016 450100                    STZ     ERROR,,AUTO
PL6.E3A0      #003=ZIM$NULL File=ZIM$FINISH.:ZIC0TSI                             FRI 09/05/97 12:54 Page:39

      138     3821    2       DO DBNO=1 TO DB#MAX;

   3821  0 000003   000001 235007                    LDA     1,DL
         0 000004   200015 755100                    STA     DBNO,,AUTO
         0 000005   000136 710000 0                  TRA     s:3854+3

      139     3822    2           IF GLOBAL.DB.SSS$(DBNO)~=ADDR(NIL) THEN

   3822  0 000006   000000 470400 xsym               LDP0    GLOBAL$
         0 000007   200015 720100                    LXL0    DBNO,,AUTO
         0 000010   000153 236110                    LDQ     107,X0,PR0
         0 000011   000000 116000 1                  CMPQ    0
         0 000012   000133 600000 0                  TZE     s:3854

      140     3823    3           DO;

      141     3824    3               SSS$=GLOBAL.DB.SSS$(DBNO);

   3824  0 000013   200007 756100                    STQ     SSS$,,AUTO

      142     3825    3               DBCB$=GLOBAL.DB.DBCB$(DBNO);

   3825  0 000014   000161 236110                    LDQ     113,X0,PR0
         0 000015   200003 756100                    STQ     DBCB$,,AUTO

      143     3826        /*       Null current of run */
      144     3827    3               DBCB.CRUN='0'B;

   3827  0 000016   200003 471500                    LDP1    DBCB$,,AUTO
         0 000017   101223 450100                    STZ     659,,PR1
         0 000020   101224 450100                    STZ     660,,PR1

      145     3828    3               DBCB.PCB.CRUN=0; /* RVO not current of run */

   3828  0 000021   000000 221003                    LDX1    0,DU
         0 000022   100511 441100                    SXL1    329,,PR1
PL6.E3A0      #003=ZIM$NULL File=ZIM$FINISH.:ZIC0TSI                             FRI 09/05/97 12:54 Page:40

      146     3829    3               OA$=PINCRW(SSS$,SIZEW(OA1));

   3829  0 000023   200007 236100                    LDQ     SSS$,,AUTO
         0 000024   000001 036003                    ADLQ    1,DU
         0 000025   200011 756100                    STQ     OA$,,AUTO

      147     3830    3               AC$=OA$;

   3830  0 000026   200012 756100                    STQ     AC$,,AUTO

      148     3831    4               DO WHILE (AC.OAACN~=0);

   3831  0 000027   200012 473500                    LDP3    AC$,,AUTO
         0 000030   300001 222100                    LDX2    1,,PR3
         0 000031   000063 600000 0                  TZE     s:3839

      149     3832    4                   AC$=PINCRW(SSS$,AC.OAACN);

   3832  0 000032   200012 470500                    LDP0    AC$,,AUTO
         0 000033   000001 220100                    LDX0    1,,PR0
         0 000034   000000 636010                    EAQ     0,X0
         0 000035   200007 036100                    ADLQ    SSS$,,AUTO
         0 000036   200012 756100                    STQ     AC$,,AUTO

      150     3833    4                   AWS$=PINCRW(DBCB$,AC.WSOF);

   3833  0 000037   200012 470500                    LDP0    AC$,,AUTO
         0 000040   000003 220100                    LDX0    3,,PR0
         0 000041   000000 636010                    EAQ     0,X0
         0 000042   200003 036100                    ADLQ    DBCB$,,AUTO
         0 000043   200004 756100                    STQ     AWS$,,AUTO

      151     3834    4                   AWS.CURR=0;

   3834  0 000044   200004 471500                    LDP1    AWS$,,AUTO
         0 000045   100001 450100                    STZ     1,,PR1
PL6.E3A0      #003=ZIM$NULL File=ZIM$FINISH.:ZIC0TSI                             FRI 09/05/97 12:54 Page:41

      152     3835    4                   IF AWS.ATRIB.CAC THEN

   3835  0 000046   100000 236100                    LDQ     0,,PR1
         0 000047   000001 316003                    CANQ    1,DU
         0 000050   000060 600000 0                  TZE     s:3837

      153     3836    4                       CALL ZIM$DEQ_DCB(AWS.DDCB) ALTRET(ER_ALT);

   3836  0 000051   200004 236100                    LDQ     AWS$,,AUTO
         0 000052   000006 036003                    ADLQ    6,DU
         0 000053   200020 756100                    STQ     ERROR+2,,AUTO
         0 000054   200020 630500                    EPPR0   ERROR+2,,AUTO
         0 000055   000001 631400 1                  EPPR1   1
         0 000056   000000 701000 xent               TSX1    ZIM$DEQ_DCB
         0 000057   000161 702000 0                  TSX2    ER_ALT

      154     3837    4                   END;

   3837  0 000060   200012 470500                    LDP0    AC$,,AUTO
         0 000061   000001 220100                    LDX0    1,,PR0
         0 000062   000032 601000 0                  TNZ     s:3832

      155     3838        /*       Null current of record for all records in this DB */
      156     3839    3               RC$=OA$;

   3839  0 000063   200011 236100                    LDQ     OA$,,AUTO
         0 000064   200013 756100                    STQ     RC$,,AUTO

      157     3840    4               DO WHILE (RC.OARCN~=0);

   3840  0 000065   200013 470500                    LDP0    RC$,,AUTO
         0 000066   000002 220100                    LDX0    2,,PR0
         0 000067   000106 600000 0                  TZE     s:3846

      158     3841    4                   RC$=PINCRW(SSS$,RC.OARCN);

PL6.E3A0      #003=ZIM$NULL File=ZIM$FINISH.:ZIC0TSI                             FRI 09/05/97 12:54 Page:42
   3841  0 000070   200013 470500                    LDP0    RC$,,AUTO
         0 000071   000002 220100                    LDX0    2,,PR0
         0 000072   000000 636010                    EAQ     0,X0
         0 000073   200007 036100                    ADLQ    SSS$,,AUTO
         0 000074   200013 756100                    STQ     RC$,,AUTO

      159     3842    4                   RWS$=PINCRW(DBCB$,RC.RCWSO);

   3842  0 000075   200013 470500                    LDP0    RC$,,AUTO
         0 000076   000004 220100                    LDX0    4,,PR0
         0 000077   000000 636010                    EAQ     0,X0
         0 000100   200003 036100                    ADLQ    DBCB$,,AUTO
         0 000101   200005 756100                    STQ     RWS$,,AUTO

      160     3843    4                   RWS.CURR=0;

   3843  0 000102   200005 471500                    LDP1    RWS$,,AUTO
         0 000103   100001 450100                    STZ     1,,PR1

      161     3844    4                   END;

   3844  0 000104   000002 220100                    LDX0    2,,PR0
         0 000105   000070 601000 0                  TNZ     s:3841

      162     3845        /*       Null current of set for all sets in this DBea */
      163     3846    3               SC$=OA$;

   3846  0 000106   200011 236100                    LDQ     OA$,,AUTO
         0 000107   200014 756100                    STQ     SC$,,AUTO

      164     3847    4               DO WHILE (SC.OASCN~=0);

   3847  0 000110   200014 471500                    LDP1    SC$,,AUTO
         0 000111   100001 721100                    LXL1    1,,PR1
         0 000112   000133 600000 0                  TZE     s:3854

      165     3848    4                   SC$=PINCRW(SSS$,SC.OASCN);
PL6.E3A0      #003=ZIM$NULL File=ZIM$FINISH.:ZIC0TSI                             FRI 09/05/97 12:54 Page:43

   3848  0 000113   200014 470500                    LDP0    SC$,,AUTO
         0 000114   000001 720100                    LXL0    1,,PR0
         0 000115   000000 636010                    EAQ     0,X0
         0 000116   200007 036100                    ADLQ    SSS$,,AUTO
         0 000117   200014 756100                    STQ     SC$,,AUTO

      166     3849    4                   SETWS$=PINCRW(DBCB$,SC.SCWSO);

   3849  0 000120   200014 470500                    LDP0    SC$,,AUTO
         0 000121   000001 220100                    LDX0    1,,PR0
         0 000122   000000 636010                    EAQ     0,X0
         0 000123   200003 036100                    ADLQ    DBCB$,,AUTO
         0 000124   200006 756100                    STQ     SETWS$,,AUTO

      167     3850    4                   SETWS.CURR=0;

   3850  0 000125   200006 471500                    LDP1    SETWS$,,AUTO
         0 000126   100001 450100                    STZ     1,,PR1

      168     3851    4                   SETWS.PRIV.CSE='0'B;

   3851  0 000127   000002 236000 1                  LDQ     2
         0 000130   100000 356100                    ANSQ    0,,PR1

      169     3852    4                   END;

   3852  0 000131   000001 720100                    LXL0    1,,PR0
         0 000132   000113 601000 0                  TNZ     s:3848

      170     3853    3               END;

      171     3854    2           END;

   3854  0 000133   200015 235100                    LDA     DBNO,,AUTO
         0 000134   000001 035007                    ADLA    1,DL
         0 000135   200015 755100                    STA     DBNO,,AUTO
PL6.E3A0      #003=ZIM$NULL File=ZIM$FINISH.:ZIC0TSI                             FRI 09/05/97 12:54 Page:44
         0 000136   000006 115007                    CMPA    6,DL
         0 000137   000006 602000 0                  TNC     s:3822

      172     3855    1       IF POFFW(ADDR(I$FIN),IS$)=GLOBAL.FCN.CODE THEN

   3855  0 000140   000003 236000 1                  LDQ     3
         0 000141   000022 772000                    QRL     18
         0 000142   000000 235000 xsym               LDA     IS$
         0 000143   000022 771000                    ARL     18
         0 000144   200020 755100                    STA     ERROR+2,,AUTO
         0 000145   200020 136100                    SBLQ    ERROR+2,,AUTO
         0 000146   000000 470400 xsym               LDP0    GLOBAL$
         0 000147   200021 756100                    STQ     ERROR+3,,AUTO
         0 000150   000004 236100                    LDQ     4,,PR0
         0 000151   777777 376007                    ANQ     -1,DL
         0 000152   200022 756100                    STQ     ERROR+4,,AUTO
         0 000153   200021 236100                    LDQ     ERROR+3,,AUTO
         0 000154   200022 116100                    CMPQ    ERROR+4,,AUTO
         0 000155   000160 601000 0                  TNZ     s:3857

      173     3856    1           UWA.DBDR=0;

   3856  0 000156   000000 471400 xsym               LDP1    UWA$
         0 000157   100036 450100                    STZ     30,,PR1

      174     3857    1       RETURN;

   3857  0 000160   000000 702200 xent               TSX2  ! X66_ARET

   3855  0 000161                       ER_ALT       null
      175     3858    1   ER_ALT: ;
      176     3859            %DBALT;

   3860  0 000161   000000 470400 xsym               LDP0    GLOBAL$
         0 000162   000006 235100                    LDA     6,,PR0
         0 000163   000172 601000 0                  TNZ     s:3868

PL6.E3A0      #003=ZIM$NULL File=ZIM$FINISH.:ZIC0TSI                             FRI 09/05/97 12:54 Page:45
   3862  0 000164   000010 450100                    STZ     8,,PR0

   3863  0 000165   000012 450100                    STZ     10,,PR0

   3864  0 000166   000013 450100                    STZ     11,,PR0

   3865  0 000167   000011 450100                    STZ     9,,PR0

   3866  0 000170   200016 236100                    LDQ     ERROR,,AUTO
         0 000171   000006 756100                    STQ     6,,PR0

   3868  0 000172   000006 235100                    LDA     6,,PR0
         0 000173   303240 115007                    CMPA    100000,DL
         0 000174   000176 603000 0                  TRC     s:3871

   3869  0 000175   000000 702200 xent               TSX2  ! X66_AALT

   3871  0 000176   000004 631400 1                  EPPR1   4
         0 000177   000000 701000 xent               TSX1    ZIB$ERR
         0 000200   000000 011000                    NOP     0

      177     3873    1   END ZIM$NULL;

   3873  0 000201   000000 702200 xent               TSX2  ! X66_ARET

(unnamed)
 Sect OctLoc
   1     000   000000 006014   000001 000000   377777 777777   000000 006000    ................
   1     004   000000 000000                                                    ....

PL6.E3A0      #003=ZIM$NULL File=ZIM$FINISH.:ZIC0TSI                             FRI 09/05/97 12:54 Page:46
--  Include file information  --

   ZI_ERRORS_C.:ZIC0TOU  is referenced.
   CP_6_SUBS.:LIB_E05  is referenced.
   ZI$USER.:ZIC0TOU  is referenced.
   ZI$SSS.:ZIC0TOU  cannot be made into a system file and is referenced.
   ZI$GLOBAL.:ZIC0TOU  is referenced.
   ZI$DBCB.:ZIC0TOU  is referenced.
   B$JIT_C.:E05TOU  was found in the system file and is never referenced.
   CP_6_C.:E05TOU  was found in the system file and is never referenced.
      No diagnostics issued in procedure ZIM$NULL.

   Procedure ZIM$NULL requires 130 words for executable code.
   Procedure ZIM$NULL requires 20 words of local(AUTO) storage.

    No errors detected in file ZIM$FINISH.:ZIC0TSI    .
PL6.E3A0      #003=ZIM$NULL File=ZIM$FINISH.:ZIC0TSI                             FRI 09/05/97 12:54 Page:47
          *** CROSS REFERENCE LISTING ***
**     DENOTES     IDENTIFIER DEFINITION
<<                 IDENTIFIER'S VALUE SET
>>                 IDENTIFIER'S VALUE USED
<>                 IDENTIFIER SET AND/OR USED
--                 IDENTIFIER REFERENCED
PL6.E3A0      #003=ZIM$NULL File=ZIM$FINISH.:ZIC0TSI                             FRI 09/05/97 12:54 Page:48
          MINI XREF LISTING

AC.DEF.ANL
      2643**DCL      2714--IMP-SIZ
AC.DEF.FORG
      2630**DCL      2634--REDEF
AC.OAACN
      2644**DCL      3831>>DOWHILE  3832>>ASSIGN
AC.WSOF
      2647**DCL      3833>>ASSIGN
AC$
      2626**DCL      2627--IMP-PTR  3830<<ASSIGN   3831>>DOWHILE  3832<<ASSIGN   3832>>ASSIGN   3833>>ASSIGN
AWS.ATRIB.CAC
      1941**DCL      3835>>IF
AWS.CURR
      1944**DCL      3834<<ASSIGN
AWS.DDCB
      1949**DCL      3836<>CALL
AWS$
      1923**DCL      1924--IMP-PTR  3833<<ASSIGN   3834>>ASSIGN   3835>>IF       3836>>CALL
DBCB.CRUN
      1903**DCL      3827<<ASSIGN
DBCB.IOWS.CFCT
      1874**DCL      1875--REDEF
DBCB.IOWS.DBKF.RQ
      1817**DCL      1818--REDEF
DBCB.IOWS.DBKR
      1814**DCL      1815--REDEF
DBCB.IOWS.NOBF
      1876**DCL      1877--REDEF
DBCB.IOWS.SPND
      1802**DCL      1803--REDEF
DBCB.PCB.CRUN
      1653**DCL      3828<<ASSIGN
PL6.E3A0      #003=ZIM$NULL File=ZIM$FINISH.:ZIC0TSI                             FRI 09/05/97 12:54 Page:49
DBCB.SWS.RDYCW
      1540**DCL      1541--REDEF
DBCB.SWS.TEMP.PTR1$
      1574**DCL      1575--REDEF    1576--REDEF
DBCB.SWS.TEMP.PTR2$
      1577**DCL      1578--REDEF
DBCB$
      1445**DCL      1446--IMP-PTR  3825<<ASSIGN   3827>>ASSIGN   3828>>ASSIGN   3833>>ASSIGN   3842>>ASSIGN
      3849>>ASSIGN
DBNO
      3817**DCL      3821<<DOINDEX  3822>>IF       3824>>ASSIGN   3825>>ASSIGN
ERROR
      3818**DCL      3820<<ASSIGN   3866>>ASSIGN
ER_ALT
      3855**LABEL    3836--CALLALT
GLOBAL.ACTIVE.DBCB$
      1143**DCL      1144--REDEF
GLOBAL.ACTIVE.SSS$
      1139**DCL      1140--REDEF
GLOBAL.DB.DBCB$
      1237**DCL      3825>>ASSIGN
GLOBAL.DB.SSS$
      1236**DCL      3821--DOINDEX  3821--DOINDEX  3822>>IF       3824>>ASSIGN
GLOBAL.FCN.CODE
      1152**DCL      3855>>IF
GLOBAL.KEY
      1347**DCL      1350--REDEF
GLOBAL.PARAN.TRACE.MODE
      1222**DCL      1229--REDEF
GLOBAL.PRINTBUF.BUFFER
      1381**DCL      1382--REDEF    1383--REDEF    1384--REDEF
GLOBAL.PRINTBUF.ERR.V
      1386**DCL      1389--REDEF    1390--REDEF    1391--REDEF
GLOBAL.RET.AC#
      1159**DCL      3862<<ASSIGN
GLOBAL.RET.ERROR#
PL6.E3A0      #003=ZIM$NULL File=ZIM$FINISH.:ZIC0TSI                             FRI 09/05/97 12:54 Page:50
      1157**DCL      3860>>IF       3866<<ASSIGN   3868>>IF
GLOBAL.RET.FR#
      1160**DCL      3865<<ASSIGN
GLOBAL.RET.RC#
      1162**DCL      3864<<ASSIGN
GLOBAL.RET.SC#
      1161**DCL      3863<<ASSIGN
GLOBAL$
      1441**DCL      1137--IMP-PTR  3822>>IF       3824>>ASSIGN   3825>>ASSIGN   3855>>IF       3860>>IF
      3862>>ASSIGN   3863>>ASSIGN   3864>>ASSIGN   3865>>ASSIGN   3866>>ASSIGN   3868>>IF
I$FIN
      3816**DCL      3855--IF
IS$
      3815**DCL      3855>>IF
OA.SCNAM.EIS.COUNT
      2583**DCL      2618--IMP-SIZ
OA$
      2561**DCL      2562--IMP-PTR  3829<<ASSIGN   3830>>ASSIGN   3839>>ASSIGN   3846>>ASSIGN
OA1
      2553**DCL      3829--ASSIGN
OA1$
      2552**DCL      2553--IMP-PTR
RC.DEF.RNL
      2737**DCL      2747--IMP-SIZ
RC.OARCN
      2740**DCL      3840>>DOWHILE  3841>>ASSIGN
RC.RCWSO
      2745**DCL      3842>>ASSIGN
RC$
      2721**DCL      2722--IMP-PTR  3839<<ASSIGN   3840>>DOWHILE  3841<<ASSIGN   3841>>ASSIGN   3842>>ASSIGN
RWS.CURR
      1976**DCL      3843<<ASSIGN
RWS.KEY.LENGTH
      1978**DCL      1979--IMP-SIZ
RWS$
      1963**DCL      1964--IMP-PTR  3842<<ASSIGN   3843>>ASSIGN
PL6.E3A0      #003=ZIM$NULL File=ZIM$FINISH.:ZIC0TSI                             FRI 09/05/97 12:54 Page:51
SC.DEF.SNL
      2766**DCL      2771--IMP-SIZ
SC.OASCN
      2768**DCL      3847>>DOWHILE  3848>>ASSIGN
SC.SCWSO
      2767**DCL      3849>>ASSIGN
SC$
      2753**DCL      2754--IMP-PTR  3846<<ASSIGN   3847>>DOWHILE  3848<<ASSIGN   3848>>ASSIGN   3849>>ASSIGN
SETWS.CURR
      1995**DCL      3850<<ASSIGN
SETWS.KEY.LENGTH
      1997**DCL      1998--IMP-SIZ
SETWS.PRIV.CSE
      1986**DCL      3851<<ASSIGN
SETWS$
      1983**DCL      1984--IMP-PTR  3849<<ASSIGN   3850>>ASSIGN   3851>>ASSIGN
SSS$
      2008**DCL      3824<<ASSIGN   3829>>ASSIGN   3832>>ASSIGN   3841>>ASSIGN   3848>>ASSIGN
UWA.DBDR
      2940**DCL      3856<<ASSIGN
UWA.DBST
      2928**DCL      2929--REDEF
UWA$
      2947**DCL      2926--IMP-PTR  3856>>ASSIGN
ZIB$ERR
      1442**DCL-ENT  3871--CALL
ZIM$DEQ_DCB
      3819**DCL-ENT  3836--CALL
