
PL6.E3A0      #001=ZIM$ETRON File=ZIM$FLAGS.:ZIC0TSI                             FRI 09/05/97 12:55 Page:1
        1        1        /*M*     ZIE$FLAGS - settin of misc. user flags */
        2        2        /*T***********************************************************/
        3        3        /*T*                                                         */
        4        4        /*T* Copyright (c) Bull HN Information Systems Inc., 1997    */
        5        5        /*T*                                                         */
        6        6        /*T***********************************************************/
        7        7        ZIM$ETRON: PROC ALTRET
        8        8         /* USE($PR5 FOR GLOBAL$) */
        9        9               AVOID($PR5,$PR6,$PR7);
       10       10    1   DCL PS0$ PTR SYMREF;
       11       11    1   DCL TRCE_PARAM UBIN(36) BASED(PS0$);
       12       12        %INCLUDE ZI$GLOBAL;
       13      498         %GLOBALS;
       14      806        %INCLUDE ZI$USER;
       15      951        %INCLUDE CP_6_SUBS;
       16     1491    2       DO CASE(TRCE_PARAM);
       17     1492    2       CASE(0);
       18     1493    2           GLOBAL.PARAN.TRACE.MODE='760'O; /* TURN ALL 5 BITS ON */
       19     1494    2       CASE(1);
       20     1495    2           GLOBAL.PARAN.TRACE.MODE.ENTRY#='1'B;
       21     1496    2       CASE(2);
       22     1497    2           GLOBAL.PARAN.TRACE.MODE.PAGE#='1'B;
       23     1498    2       CASE(3);
       24     1499    2           GLOBAL.PARAN.TRACE.MODE.RUPD#='1'B;
       25     1500    2       CASE(4);
       26     1501    2           GLOBAL.PARAN.TRACE.MODE.RACC#='1'B;
       27     1502    2       CASE(5);
       28     1503    2           GLOBAL.PARAN.TRACE.MODE.INDEX#='1'B;
       29     1504    2           END;
       30     1505    1       RETURN;
       31     1506        %EJECT;
PL6.E3A0      #001=ZIM$ETRON File=ZIM$FLAGS.:ZIC0TSI                             FRI 09/05/97 12:55 Page:2
       32     1507    1   ZIM$ETROFF: ENTRY ALTRET;
       33     1508    2       DO CASE(TRCE_PARAM);
       34     1509    2       CASE(0);
       35     1510    2           GLOBAL.PARAN.TRACE.MODE='0'B;
       36     1511    2       CASE(1);
       37     1512    2           GLOBAL.PARAN.TRACE.MODE.ENTRY#=%NO#;
       38     1513    2       CASE(2);
       39     1514    2           GLOBAL.PARAN.TRACE.MODE.PAGE#=%NO#;
       40     1515    2       CASE(3);
       41     1516    2           GLOBAL.PARAN.TRACE.MODE.RUPD#=%NO#;
       42     1517    2       CASE(4);
       43     1518    2           GLOBAL.PARAN.TRACE.MODE.RACC#=%NO#;
       44     1519    2       CASE(5);
       45     1520    2           GLOBAL.PARAN.TRACE.MODE.INDEX#=%NO#;
       46     1521    2           END; /* CASE */
       47     1522    1       RETURN;
       48     1523        %EJECT;
PL6.E3A0      #001=ZIM$ETRON File=ZIM$FLAGS.:ZIC0TSI                             FRI 09/05/97 12:55 Page:3
       49     1524    1   ZIM$ESHIN: ENTRY ALTRET;
       50     1525    1       GLOBAL.PENDING.CURONLY=%NO#;
       51     1526    1   SHIN: GLOBAL.PENDING.SHANY=%NO#;
       52     1527    1       GLOBAL.PENDING.SHARE=%IN#;
       53     1528    1       RETURN;
       54     1529    1   ZIM$ESHALL: ENTRY ALTRET;
       55     1530    1       GLOBAL.PENDING.CURONLY=%NO#;
       56     1531    1   SHAL: GLOBAL.PENDING.SHANY=%NO#;
       57     1532    1       GLOBAL.PENDING.SHARE=%ALL#;
       58     1533    1       RETURN;
       59     1534    1   ZIM$ESHCUR: ENTRY ALTRET;
       60     1535    1       GLOBAL.PENDING.CURONLY=%YES#;
       61     1536    1       GOTO SHAL; /* SAME AS SHAREALL EXCEPT CURRENCY ONLY */
       62     1537    1   ZIM$ESHINCUR: ENTRY ALTRET;
       63     1538    1       GLOBAL.PENDING.CURONLY=%YES#;
       64     1539    1       GOTO SHIN; /* SAME AS SHAREIN EXCEPT CURRENCY ONLY */
       65     1540    1   ZIM$ESHNO: ENTRY ALTRET;
       66     1541    1       GLOBAL.PENDING.SHANY=%NO#;
       67     1542    1       GLOBAL.PENDING.SHARE=%NONE#;
       68     1543    1       GLOBAL.PENDING.CURONLY=%NO#;
       69     1544    1       RETURN;
       70     1545    1   ZIM$ESHANY: ENTRY ALTRET;
       71     1546    1       GLOBAL.PENDING.SHANY=%YES#;
       72     1547    1       GLOBAL.PENDING.SHARE=0;
       73     1548    1       RETURN;
       74     1549    1   END ZIM$ETRON;
       75     1550        %EOD;

PL6.E3A0      #001=ZIM$ETRON File=ZIM$FLAGS.:ZIC0TSI                             FRI 09/05/97 12:55 Page:4
--  Include file information  --

   CP_6_SUBS.:LIB_E05  is referenced.
   ZI$USER.:ZIC0TOU  is referenced.
   ZI$GLOBAL.:ZIC0TOU  is referenced.
   B$JIT_C.:E05TOU  was found in the system file and is never referenced.
   CP_6_C.:E05TOU  was found in the system file and is never referenced.
      No diagnostics issued in procedure ZIM$ETRON.

   Procedure ZIM$ETRON requires 129 words for executable code.
   Procedure ZIM$ETRON requires 4 words of local(AUTO) storage.

PL6.E3A0      #001=ZIM$ETRON File=ZIM$FLAGS.:ZIC0TSI                             FRI 09/05/97 12:55 Page:5

 Object Unit name= ZIM$ETRON                                  File name= ZIM$FLAGS.:ZIC0TOU
 UTS= SEP 05 '97 12:55:12.12 FRI                              Compiler= PL-6/E31         Sev=      00
 SharedLib= :SHARED_SYSTEM                                    Alt SharedLib=


    ****  Control sections  ****

 Sect   Type Bound  Init  Size OctSiz  Section name(segment info)
    0   Proc  even  none   129    201  ZIM$ETRON
    1  RoData even  none     8     10  ZIM$ETRON

    ****  Entry defs  ****

                              Check   Calling
                             calling  sequence
  Sect OctLoc Primary Altret sequence   type   Parms  Name
     0      0   yes    yes     yes      XStd       0  ZIM$ETRON
     0     45          yes     yes      XStd       0  ZIM$ETROFF
     0    111          yes     yes      XStd       0  ZIM$ESHIN
     0    126          yes     yes      XStd       0  ZIM$ESHALL
     0    143          yes     yes      XStd       0  ZIM$ESHCUR
     0    151          yes     yes      XStd       0  ZIM$ESHINCUR
     0    157          yes     yes      XStd       0  ZIM$ESHNO
     0    171          yes     yes      XStd       0  ZIM$ESHANY

  ****  Entry refs  ****

         Check        Calling
        calling       sequence
Altret sequence SRef   type   Args  Name
                       nStd      0 X66_AUTO_0
                       nStd      0 X66_ARET
PL6.E3A0      #001=ZIM$ETRON File=ZIM$FLAGS.:ZIC0TSI                             FRI 09/05/97 12:55 Page:6

  ****  Data refs  ****

  Flags:  r = read only, s = secondary
Flgs Name                             Flgs Name                             Flgs Name
     PS0$                             r    GLOBAL$
PL6.E3A0      #001=ZIM$ETRON File=ZIM$FLAGS.:ZIC0TSI                             FRI 09/05/97 12:55 Page:7


        1        1        /*M*     ZIE$FLAGS - settin of misc. user flags */
        2        2        /*T***********************************************************/
        3        3        /*T*                                                         */
        4        4        /*T* Copyright (c) Bull HN Information Systems Inc., 1997    */
        5        5        /*T*                                                         */
        6        6        /*T***********************************************************/
        7        7        ZIM$ETRON: PROC ALTRET

      7  0 000000   000000 700200 xent  ZIM$ETRON    TSX0  ! X66_AUTO_0
         0 000001   000004 000000                    ZERO    4,0

        8        8         /* USE($PR5 FOR GLOBAL$) */
        9        9               AVOID($PR5,$PR6,$PR7);
       10       10    1   DCL PS0$ PTR SYMREF;
       11       11    1   DCL TRCE_PARAM UBIN(36) BASED(PS0$);
       12       12        %INCLUDE ZI$GLOBAL;
       13      498         %GLOBALS;
       14      806        %INCLUDE ZI$USER;
       15      951        %INCLUDE CP_6_SUBS;
       16     1491    2       DO CASE(TRCE_PARAM);

   1491  0 000002   000000 470400 xsym               LDP0    PS0$
         0 000003   000000 235100                    LDA     0,,PR0
         0 000004   000006 115007                    CMPA    6,DL
         0 000005   000007 602005 0                  TNC     s:1491+5,AL
         0 000006   000044 710000 0                  TRA     s:1505
         0 000007   000015 710000 0                  TRA     s:1493
         0 000010   000021 710000 0                  TRA     s:1495
         0 000011   000025 710000 0                  TRA     s:1497
         0 000012   000031 710000 0                  TRA     s:1499
         0 000013   000035 710000 0                  TRA     s:1501
         0 000014   000041 710000 0                  TRA     s:1503

       17     1492    2       CASE(0);

       18     1493    2           GLOBAL.PARAN.TRACE.MODE='760'O; /* TURN ALL 5 BITS ON */
PL6.E3A0      #001=ZIM$ETRON File=ZIM$FLAGS.:ZIC0TSI                             FRI 09/05/97 12:55 Page:8

   1493  0 000015   760000 236003                    LDQ     -8192,DU
         0 000016   000000 471400 xsym               LDP1    GLOBAL$
         0 000017   100061 756100                    STQ     49,,PR1
         0 000020   000044 710000 0                  TRA     s:1505

       19     1494    2       CASE(1);

       20     1495    2           GLOBAL.PARAN.TRACE.MODE.ENTRY#='1'B;

   1495  0 000021   000000 471400 xsym               LDP1    GLOBAL$
         0 000022   400000 236003                    LDQ     -131072,DU
         0 000023   100061 256100                    ORSQ    49,,PR1
         0 000024   000044 710000 0                  TRA     s:1505

       21     1496    2       CASE(2);

       22     1497    2           GLOBAL.PARAN.TRACE.MODE.PAGE#='1'B;

   1497  0 000025   000000 471400 xsym               LDP1    GLOBAL$
         0 000026   200000 236003                    LDQ     65536,DU
         0 000027   100061 256100                    ORSQ    49,,PR1
         0 000030   000044 710000 0                  TRA     s:1505

       23     1498    2       CASE(3);

       24     1499    2           GLOBAL.PARAN.TRACE.MODE.RUPD#='1'B;

   1499  0 000031   000000 471400 xsym               LDP1    GLOBAL$
         0 000032   100000 236003                    LDQ     32768,DU
         0 000033   100061 256100                    ORSQ    49,,PR1
         0 000034   000044 710000 0                  TRA     s:1505

       25     1500    2       CASE(4);

       26     1501    2           GLOBAL.PARAN.TRACE.MODE.RACC#='1'B;

PL6.E3A0      #001=ZIM$ETRON File=ZIM$FLAGS.:ZIC0TSI                             FRI 09/05/97 12:55 Page:9
   1501  0 000035   000000 471400 xsym               LDP1    GLOBAL$
         0 000036   040000 236003                    LDQ     16384,DU
         0 000037   100061 256100                    ORSQ    49,,PR1
         0 000040   000044 710000 0                  TRA     s:1505

       27     1502    2       CASE(5);

       28     1503    2           GLOBAL.PARAN.TRACE.MODE.INDEX#='1'B;

   1503  0 000041   000000 471400 xsym               LDP1    GLOBAL$
         0 000042   020000 236003                    LDQ     8192,DU
         0 000043   100061 256100                    ORSQ    49,,PR1

       29     1504    2           END;

       30     1505    1       RETURN;

   1505  0 000044   000000 702200 xent               TSX2  ! X66_ARET

       31     1506        %EJECT;
PL6.E3A0      #001=ZIM$ETRON File=ZIM$FLAGS.:ZIC0TSI                             FRI 09/05/97 12:55 Page:10
       32     1507    1   ZIM$ETROFF: ENTRY ALTRET;

   1507  0 000045   000000 700200 xent  ZIM$ETROFF   TSX0  ! X66_AUTO_0
         0 000046   000004 000000                    ZERO    4,0

       33     1508    2       DO CASE(TRCE_PARAM);

   1508  0 000047   000000 470400 xsym               LDP0    PS0$
         0 000050   000000 235100                    LDA     0,,PR0
         0 000051   000006 115007                    CMPA    6,DL
         0 000052   000054 602005 0                  TNC     s:1508+5,AL
         0 000053   000110 710000 0                  TRA     s:1522
         0 000054   000062 710000 0                  TRA     s:1510
         0 000055   000065 710000 0                  TRA     s:1512
         0 000056   000071 710000 0                  TRA     s:1514
         0 000057   000075 710000 0                  TRA     s:1516
         0 000060   000101 710000 0                  TRA     s:1518
         0 000061   000105 710000 0                  TRA     s:1520

       34     1509    2       CASE(0);

       35     1510    2           GLOBAL.PARAN.TRACE.MODE='0'B;

   1510  0 000062   000000 471400 xsym               LDP1    GLOBAL$
         0 000063   100061 450100                    STZ     49,,PR1
         0 000064   000110 710000 0                  TRA     s:1522

       36     1511    2       CASE(1);

       37     1512    2           GLOBAL.PARAN.TRACE.MODE.ENTRY#=%NO#;

   1512  0 000065   000000 471400 xsym               LDP1    GLOBAL$
         0 000066   000000 236000 1                  LDQ     0
         0 000067   100061 356100                    ANSQ    49,,PR1
         0 000070   000110 710000 0                  TRA     s:1522

       38     1513    2       CASE(2);
PL6.E3A0      #001=ZIM$ETRON File=ZIM$FLAGS.:ZIC0TSI                             FRI 09/05/97 12:55 Page:11

       39     1514    2           GLOBAL.PARAN.TRACE.MODE.PAGE#=%NO#;

   1514  0 000071   000000 471400 xsym               LDP1    GLOBAL$
         0 000072   000001 236000 1                  LDQ     1
         0 000073   100061 356100                    ANSQ    49,,PR1
         0 000074   000110 710000 0                  TRA     s:1522

       40     1515    2       CASE(3);

       41     1516    2           GLOBAL.PARAN.TRACE.MODE.RUPD#=%NO#;

   1516  0 000075   000000 471400 xsym               LDP1    GLOBAL$
         0 000076   000002 236000 1                  LDQ     2
         0 000077   100061 356100                    ANSQ    49,,PR1
         0 000100   000110 710000 0                  TRA     s:1522

       42     1517    2       CASE(4);

       43     1518    2           GLOBAL.PARAN.TRACE.MODE.RACC#=%NO#;

   1518  0 000101   000000 471400 xsym               LDP1    GLOBAL$
         0 000102   000003 236000 1                  LDQ     3
         0 000103   100061 356100                    ANSQ    49,,PR1
         0 000104   000110 710000 0                  TRA     s:1522

       44     1519    2       CASE(5);

       45     1520    2           GLOBAL.PARAN.TRACE.MODE.INDEX#=%NO#;

   1520  0 000105   000000 471400 xsym               LDP1    GLOBAL$
         0 000106   000004 236000 1                  LDQ     4
         0 000107   100061 356100                    ANSQ    49,,PR1

       46     1521    2           END; /* CASE */

       47     1522    1       RETURN;
PL6.E3A0      #001=ZIM$ETRON File=ZIM$FLAGS.:ZIC0TSI                             FRI 09/05/97 12:55 Page:12

   1522  0 000110   000000 702200 xent               TSX2  ! X66_ARET

       48     1523        %EJECT;
PL6.E3A0      #001=ZIM$ETRON File=ZIM$FLAGS.:ZIC0TSI                             FRI 09/05/97 12:55 Page:13
       49     1524    1   ZIM$ESHIN: ENTRY ALTRET;

   1524  0 000111   000000 700200 xent  ZIM$ESHIN    TSX0  ! X66_AUTO_0
         0 000112   000004 000000                    ZERO    4,0

       50     1525    1       GLOBAL.PENDING.CURONLY=%NO#;

   1525  0 000113   000000 470400 xsym               LDP0    GLOBAL$
         0 000114   000005 236000 1                  LDQ     5
         0 000115   000017 356100                    ANSQ    15,,PR0

       51     1526    1   SHIN: GLOBAL.PENDING.SHANY=%NO#;

   1526  0 000116   000000 470400 xsym  SHIN         LDP0    GLOBAL$
         0 000117   000006 236000 1                  LDQ     6
         0 000120   000017 356100                    ANSQ    15,,PR0

       52     1527    1       GLOBAL.PENDING.SHARE=%IN#;

   1527  0 000121   000017 236100                    LDQ     15,,PR0
         0 000122   000007 376000 1                  ANQ     7
         0 000123   200000 276003                    ORQ     65536,DU
         0 000124   000017 756100                    STQ     15,,PR0

       53     1528    1       RETURN;

   1528  0 000125   000000 702200 xent               TSX2  ! X66_ARET

       54     1529    1   ZIM$ESHALL: ENTRY ALTRET;

   1529  0 000126   000000 700200 xent  ZIM$ESHALL   TSX0  ! X66_AUTO_0
         0 000127   000004 000000                    ZERO    4,0

       55     1530    1       GLOBAL.PENDING.CURONLY=%NO#;

   1530  0 000130   000000 470400 xsym               LDP0    GLOBAL$
         0 000131   000005 236000 1                  LDQ     5
PL6.E3A0      #001=ZIM$ETRON File=ZIM$FLAGS.:ZIC0TSI                             FRI 09/05/97 12:55 Page:14
         0 000132   000017 356100                    ANSQ    15,,PR0

       56     1531    1   SHAL: GLOBAL.PENDING.SHANY=%NO#;

   1531  0 000133   000000 470400 xsym  SHAL         LDP0    GLOBAL$
         0 000134   000006 236000 1                  LDQ     6
         0 000135   000017 356100                    ANSQ    15,,PR0

       57     1532    1       GLOBAL.PENDING.SHARE=%ALL#;

   1532  0 000136   000017 236100                    LDQ     15,,PR0
         0 000137   000007 376000 1                  ANQ     7
         0 000140   100000 276003                    ORQ     32768,DU
         0 000141   000017 756100                    STQ     15,,PR0

       58     1533    1       RETURN;

   1533  0 000142   000000 702200 xent               TSX2  ! X66_ARET

       59     1534    1   ZIM$ESHCUR: ENTRY ALTRET;

   1534  0 000143   000000 700200 xent  ZIM$ESHCUR   TSX0  ! X66_AUTO_0
         0 000144   000004 000000                    ZERO    4,0

       60     1535    1       GLOBAL.PENDING.CURONLY=%YES#;

   1535  0 000145   000000 470400 xsym               LDP0    GLOBAL$
         0 000146   000200 236003                    LDQ     128,DU
         0 000147   000017 256100                    ORSQ    15,,PR0

       61     1536    1       GOTO SHAL; /* SAME AS SHAREALL EXCEPT CURRENCY ONLY */

   1536  0 000150   000133 710000 0                  TRA     SHAL

       62     1537    1   ZIM$ESHINCUR: ENTRY ALTRET;

   1537  0 000151   000000 700200 xent  ZIM$ESHINCUR TSX0  ! X66_AUTO_0
PL6.E3A0      #001=ZIM$ETRON File=ZIM$FLAGS.:ZIC0TSI                             FRI 09/05/97 12:55 Page:15
         0 000152   000004 000000                    ZERO    4,0

       63     1538    1       GLOBAL.PENDING.CURONLY=%YES#;

   1538  0 000153   000000 470400 xsym               LDP0    GLOBAL$
         0 000154   000200 236003                    LDQ     128,DU
         0 000155   000017 256100                    ORSQ    15,,PR0

       64     1539    1       GOTO SHIN; /* SAME AS SHAREIN EXCEPT CURRENCY ONLY */

   1539  0 000156   000116 710000 0                  TRA     SHIN

       65     1540    1   ZIM$ESHNO: ENTRY ALTRET;

   1540  0 000157   000000 700200 xent  ZIM$ESHNO    TSX0  ! X66_AUTO_0
         0 000160   000004 000000                    ZERO    4,0

       66     1541    1       GLOBAL.PENDING.SHANY=%NO#;

   1541  0 000161   000000 470400 xsym               LDP0    GLOBAL$
         0 000162   000006 236000 1                  LDQ     6
         0 000163   000017 356100                    ANSQ    15,,PR0

       67     1542    1       GLOBAL.PENDING.SHARE=%NONE#;

   1542  0 000164   300000 236003                    LDQ     98304,DU
         0 000165   000017 256100                    ORSQ    15,,PR0

       68     1543    1       GLOBAL.PENDING.CURONLY=%NO#;

   1543  0 000166   000005 236000 1                  LDQ     5
         0 000167   000017 356100                    ANSQ    15,,PR0

       69     1544    1       RETURN;

   1544  0 000170   000000 702200 xent               TSX2  ! X66_ARET

PL6.E3A0      #001=ZIM$ETRON File=ZIM$FLAGS.:ZIC0TSI                             FRI 09/05/97 12:55 Page:16
       70     1545    1   ZIM$ESHANY: ENTRY ALTRET;

   1545  0 000171   000000 700200 xent  ZIM$ESHANY   TSX0  ! X66_AUTO_0
         0 000172   000004 000000                    ZERO    4,0

       71     1546    1       GLOBAL.PENDING.SHANY=%YES#;

   1546  0 000173   000000 470400 xsym               LDP0    GLOBAL$
         0 000174   002000 236003                    LDQ     1024,DU
         0 000175   000017 256100                    ORSQ    15,,PR0

       72     1547    1       GLOBAL.PENDING.SHARE=0;

   1547  0 000176   000007 236000 1                  LDQ     7
         0 000177   000017 356100                    ANSQ    15,,PR0

       73     1548    1       RETURN;

   1548  0 000200   000000 702200 xent               TSX2  ! X66_ARET

(unnamed)
 Sect OctLoc
   1     000   377777 777777   577777 777777   677777 777777   737777 777777    ................
   1     004   757777 777777   777577 777777   775777 777777   477777 777777    ................
       74     1549    1   END ZIM$ETRON;
       75     1550        %EOD;

PL6.E3A0      #001=ZIM$ETRON File=ZIM$FLAGS.:ZIC0TSI                             FRI 09/05/97 12:55 Page:17
--  Include file information  --

   CP_6_SUBS.:LIB_E05  is referenced.
   ZI$USER.:ZIC0TOU  is referenced.
   ZI$GLOBAL.:ZIC0TOU  is referenced.
   B$JIT_C.:E05TOU  was found in the system file and is never referenced.
   CP_6_C.:E05TOU  was found in the system file and is never referenced.
      No diagnostics issued in procedure ZIM$ETRON.

   Procedure ZIM$ETRON requires 129 words for executable code.
   Procedure ZIM$ETRON requires 4 words of local(AUTO) storage.
PL6.E3A0      #001=ZIM$ETRON File=ZIM$FLAGS.:ZIC0TSI                             FRI 09/05/97 12:55 Page:18
          *** CROSS REFERENCE LISTING ***
**     DENOTES     IDENTIFIER DEFINITION
<<                 IDENTIFIER'S VALUE SET
>>                 IDENTIFIER'S VALUE USED
<>                 IDENTIFIER SET AND/OR USED
--                 IDENTIFIER REFERENCED
PL6.E3A0      #001=ZIM$ETRON File=ZIM$FLAGS.:ZIC0TSI                             FRI 09/05/97 12:55 Page:19
          MINI XREF LISTING

GLOBAL.ACTIVE.DBCB$
       505**DCL       506--REDEF
GLOBAL.ACTIVE.SSS$
       501**DCL       502--REDEF
GLOBAL.KEY
       709**DCL       712--REDEF
GLOBAL.PARAN.TRACE.MODE
       584**DCL       591--REDEF    1493<<ASSIGN   1510<<ASSIGN
GLOBAL.PARAN.TRACE.MODE.ENTRY#
       585**DCL      1495<<ASSIGN   1512<<ASSIGN
GLOBAL.PARAN.TRACE.MODE.INDEX#
       589**DCL      1503<<ASSIGN   1520<<ASSIGN
GLOBAL.PARAN.TRACE.MODE.PAGE#
       586**DCL      1497<<ASSIGN   1514<<ASSIGN
GLOBAL.PARAN.TRACE.MODE.RACC#
       588**DCL      1501<<ASSIGN   1518<<ASSIGN
GLOBAL.PARAN.TRACE.MODE.RUPD#
       587**DCL      1499<<ASSIGN   1516<<ASSIGN
GLOBAL.PENDING.CURONLY
       542**DCL      1525<<ASSIGN   1530<<ASSIGN   1535<<ASSIGN   1538<<ASSIGN   1543<<ASSIGN
GLOBAL.PENDING.SHANY
       539**DCL      1526<<ASSIGN   1531<<ASSIGN   1541<<ASSIGN   1546<<ASSIGN
GLOBAL.PENDING.SHARE
       534**DCL      1527<<ASSIGN   1532<<ASSIGN   1542<<ASSIGN   1547<<ASSIGN
GLOBAL.PRINTBUF.BUFFER
       743**DCL       744--REDEF     745--REDEF     746--REDEF
GLOBAL.PRINTBUF.ERR.V
       748**DCL       751--REDEF     752--REDEF     753--REDEF
GLOBAL$
       803**DCL       499--IMP-PTR  1493>>ASSIGN   1495>>ASSIGN   1497>>ASSIGN   1499>>ASSIGN   1501>>ASSIGN
      1503>>ASSIGN   1510>>ASSIGN   1512>>ASSIGN   1514>>ASSIGN   1516>>ASSIGN   1518>>ASSIGN   1520>>ASSIGN
      1525>>ASSIGN   1526>>ASSIGN   1527>>ASSIGN   1530>>ASSIGN   1531>>ASSIGN   1532>>ASSIGN   1535>>ASSIGN
PL6.E3A0      #001=ZIM$ETRON File=ZIM$FLAGS.:ZIC0TSI                             FRI 09/05/97 12:55 Page:20
      1538>>ASSIGN   1541>>ASSIGN   1542>>ASSIGN   1543>>ASSIGN   1546>>ASSIGN   1547>>ASSIGN
PS0$
        10**DCL        11--IMP-PTR  1491>>DOCASE   1508>>DOCASE
SHAL
      1531**LABEL    1536--GOTO
SHIN
      1526**LABEL    1539--GOTO
TRCE_PARAM
        11**DCL      1491>>DOCASE   1508>>DOCASE

PL6.E3A0      #002=ZIM$ECRPT File=ZIM$FLAGS.:ZIC0TSI                             FRI 09/05/97 12:55 Page:21
       76        1        /*T***********************************************************/
       77        2        /*T*                                                         */
       78        3        /*T* Copyright (c) Bull HN Information Systems Inc., 1997    */
       79        4        /*T*                                                         */
       80        5        /*T***********************************************************/
       81        6        ZIM$ECRPT: PROC ALTRET
       82        7         /* USE($PR5 FOR GLOBAL$) */
       83        8               AVOID($PR5,$PR6,$PR7);
       84        9    1   DCL PS0$ PTR SYMREF;
       85       10    1   DCL SEED_PARM BASED(PS0$) BIT(36) ;
       86       11        %INCLUDE ZI$GLOBAL;
       87      497        %GLOBALS;
       88      805    1       GLOBAL.ENCRP=SEED_PARM;
       89      806    1       RETURN;
       90      807    1   END ZIM$ECRPT;
       91      808        %EOD;

PL6.E3A0      #002=ZIM$ECRPT File=ZIM$FLAGS.:ZIC0TSI                             FRI 09/05/97 12:55 Page:22
--  Include file information  --

   ZI$GLOBAL.:ZIC0TOU  is referenced.
   B$JIT_C.:E05TOU  was found in the system file and is never referenced.
   CP_6_C.:E05TOU  was found in the system file and is never referenced.
      No diagnostics issued in procedure ZIM$ECRPT.

   Procedure ZIM$ECRPT requires 8 words for executable code.
   Procedure ZIM$ECRPT requires 4 words of local(AUTO) storage.

PL6.E3A0      #002=ZIM$ECRPT File=ZIM$FLAGS.:ZIC0TSI                             FRI 09/05/97 12:55 Page:23

 Object Unit name= ZIM$ECRPT                                  File name= ZIM$FLAGS.:ZIC0TOU
 UTS= SEP 05 '97 12:55:17.76 FRI                              Compiler= PL-6/E31         Sev=      00
 SharedLib= :SHARED_SYSTEM                                    Alt SharedLib=


    ****  Control sections  ****

 Sect   Type Bound  Init  Size OctSiz  Section name(segment info)
    0   Proc  even  none     8     10  ZIM$ECRPT

    ****  Entry defs  ****

                              Check   Calling
                             calling  sequence
  Sect OctLoc Primary Altret sequence   type   Parms  Name
     0      0   yes    yes     yes      XStd       0  ZIM$ECRPT

  ****  Entry refs  ****

         Check        Calling
        calling       sequence
Altret sequence SRef   type   Args  Name
                       nStd      0 X66_AUTO_0
                       nStd      0 X66_ARET

  ****  Data refs  ****

  Flags:  r = read only, s = secondary
Flgs Name                             Flgs Name                             Flgs Name
     PS0$                             r    GLOBAL$
PL6.E3A0      #002=ZIM$ECRPT File=ZIM$FLAGS.:ZIC0TSI                             FRI 09/05/97 12:55 Page:24


       76        1        /*T***********************************************************/
       77        2        /*T*                                                         */
       78        3        /*T* Copyright (c) Bull HN Information Systems Inc., 1997    */
       79        4        /*T*                                                         */
       80        5        /*T***********************************************************/
       81        6        ZIM$ECRPT: PROC ALTRET

      6  0 000000   000000 700200 xent  ZIM$ECRPT    TSX0  ! X66_AUTO_0
         0 000001   000004 000000                    ZERO    4,0

       82        7         /* USE($PR5 FOR GLOBAL$) */
       83        8               AVOID($PR5,$PR6,$PR7);
       84        9    1   DCL PS0$ PTR SYMREF;
       85       10    1   DCL SEED_PARM BASED(PS0$) BIT(36) ;
       86       11        %INCLUDE ZI$GLOBAL;
       87      497        %GLOBALS;
       88      805    1       GLOBAL.ENCRP=SEED_PARM;

    805  0 000002   000000 470400 xsym               LDP0    PS0$
         0 000003   000000 471400 xsym               LDP1    GLOBAL$
         0 000004   003100 060500                    CSL     bolr='003'O
         0 000005   000000 000044                    BDSC    0,,PR0                   by=0,bit=0,n=36
         0 000006   105000 000044                    BDSC    2560,,PR1                by=0,bit=0,n=36

       89      806    1       RETURN;

    806  0 000007   000000 702200 xent               TSX2  ! X66_ARET
       90      807    1   END ZIM$ECRPT;
       91      808        %EOD;

PL6.E3A0      #002=ZIM$ECRPT File=ZIM$FLAGS.:ZIC0TSI                             FRI 09/05/97 12:55 Page:25
--  Include file information  --

   ZI$GLOBAL.:ZIC0TOU  is referenced.
   B$JIT_C.:E05TOU  was found in the system file and is never referenced.
   CP_6_C.:E05TOU  was found in the system file and is never referenced.
      No diagnostics issued in procedure ZIM$ECRPT.

   Procedure ZIM$ECRPT requires 8 words for executable code.
   Procedure ZIM$ECRPT requires 4 words of local(AUTO) storage.
PL6.E3A0      #002=ZIM$ECRPT File=ZIM$FLAGS.:ZIC0TSI                             FRI 09/05/97 12:55 Page:26
          *** CROSS REFERENCE LISTING ***
**     DENOTES     IDENTIFIER DEFINITION
<<                 IDENTIFIER'S VALUE SET
>>                 IDENTIFIER'S VALUE USED
<>                 IDENTIFIER SET AND/OR USED
--                 IDENTIFIER REFERENCED
PL6.E3A0      #002=ZIM$ECRPT File=ZIM$FLAGS.:ZIC0TSI                             FRI 09/05/97 12:55 Page:27
          MINI XREF LISTING

GLOBAL.ACTIVE.DBCB$
       504**DCL       505--REDEF
GLOBAL.ACTIVE.SSS$
       500**DCL       501--REDEF
GLOBAL.ENCRP
       729**DCL       805<<ASSIGN
GLOBAL.KEY
       708**DCL       711--REDEF
GLOBAL.PARAN.TRACE.MODE
       583**DCL       590--REDEF
GLOBAL.PRINTBUF.BUFFER
       742**DCL       743--REDEF     744--REDEF     745--REDEF
GLOBAL.PRINTBUF.ERR.V
       747**DCL       750--REDEF     751--REDEF     752--REDEF
GLOBAL$
       802**DCL       498--IMP-PTR   805>>ASSIGN
PS0$
         9**DCL        10--IMP-PTR   805>>ASSIGN
SEED_PARM
        10**DCL       805>>ASSIGN

PL6.E3A0      #003=ZIM$CLRPND File=ZIM$FLAGS.:ZIC0TSI                            FRI 09/05/97 12:55 Page:28
       92        1        /*T***********************************************************/
       93        2        /*T*                                                         */
       94        3        /*T* Copyright (c) Bull HN Information Systems Inc., 1997    */
       95        4        /*T*                                                         */
       96        5        /*T***********************************************************/
       97        6        ZIM$CLRPND: PROC ALTRET
       98        7               AVOID($PR5,$PR6,$PR7);
       99        8        %INCLUDE ZI$GLOBAL;
      100      494            %GLOBALS;
      101      802    1   DCL ZIM$CHKPT ENTRY(1) ALTRET;
      102      803    1       GLOBAL.ENCRP='0'B;
      103      804    1       GLOBAL.PENDING.SHARE=0;
      104      805    1       GLOBAL.PENDING.CURONLY='0'B;
      105      806    1       GLOBAL.PENDING.SHANY='0'B;
      106      807    1       CALL ZIM$CHKPT(0) ALTRET(ER_ALT);
      107      808    1       RETURN;
      108      809    1   ER_ALT: ;
      109      810    1       ALTRETURN;
      110      811    1   END ZIM$CLRPND;

PL6.E3A0      #003=ZIM$CLRPND File=ZIM$FLAGS.:ZIC0TSI                            FRI 09/05/97 12:55 Page:29
--  Include file information  --

   ZI$GLOBAL.:ZIC0TOU  is referenced.
   B$JIT_C.:E05TOU  was found in the system file and is never referenced.
   CP_6_C.:E05TOU  was found in the system file and is never referenced.
      No diagnostics issued in procedure ZIM$CLRPND.

   Procedure ZIM$CLRPND requires 16 words for executable code.
   Procedure ZIM$CLRPND requires 4 words of local(AUTO) storage.

    No errors detected in file ZIM$FLAGS.:ZIC0TSI    .

PL6.E3A0      #003=ZIM$CLRPND File=ZIM$FLAGS.:ZIC0TSI                            FRI 09/05/97 12:55 Page:30

 Object Unit name= ZIM$CLRPND                                 File name= ZIM$FLAGS.:ZIC0TOU
 UTS= SEP 05 '97 12:55:21.36 FRI                              Compiler= PL-6/E31         Sev=      00
 SharedLib= :SHARED_SYSTEM                                    Alt SharedLib=


    ****  Control sections  ****

 Sect   Type Bound  Init  Size OctSiz  Section name(segment info)
    0   Proc  even  none    16     20  ZIM$CLRPND
    1  RoData even  none     6      6  ZIM$CLRPND

    ****  Entry defs  ****

                              Check   Calling
                             calling  sequence
  Sect OctLoc Primary Altret sequence   type   Parms  Name
     0      0   yes    yes     yes      XStd       0  ZIM$CLRPND

  ****  Entry refs  ****

         Check        Calling
        calling       sequence
Altret sequence SRef   type   Args  Name
 yes     yes           XStd      1 ZIM$CHKPT
                       nStd      0 X66_AUTO_0
                       nStd      0 X66_ARET
                       nStd      0 X66_AALT

  ****  Data refs  ****

  Flags:  r = read only, s = secondary
Flgs Name                             Flgs Name                             Flgs Name
r    GLOBAL$
PL6.E3A0      #003=ZIM$CLRPND File=ZIM$FLAGS.:ZIC0TSI                            FRI 09/05/97 12:55 Page:31

  ****  Segment refs  ****

  Flags:  r = read only, s = secondary
Flgs Name                             Flgs Name                             Flgs Name
     ISSID
PL6.E3A0      #003=ZIM$CLRPND File=ZIM$FLAGS.:ZIC0TSI                            FRI 09/05/97 12:55 Page:32


       92        1        /*T***********************************************************/
       93        2        /*T*                                                         */
       94        3        /*T* Copyright (c) Bull HN Information Systems Inc., 1997    */
       95        4        /*T*                                                         */
       96        5        /*T***********************************************************/
       97        6        ZIM$CLRPND: PROC ALTRET

      6  0 000000   000000 700200 xent  ZIM$CLRPND   TSX0  ! X66_AUTO_0
         0 000001   000004 000000                    ZERO    4,0

       98        7               AVOID($PR5,$PR6,$PR7);
       99        8        %INCLUDE ZI$GLOBAL;
      100      494            %GLOBALS;
      101      802    1   DCL ZIM$CHKPT ENTRY(1) ALTRET;
      102      803    1       GLOBAL.ENCRP='0'B;

    803  0 000002   000000 470400 xsym               LDP0    GLOBAL$
         0 000003   005000 450100                    STZ     2560,,PR0

      103      804    1       GLOBAL.PENDING.SHARE=0;

    804  0 000004   000000 236000 1                  LDQ     0
         0 000005   000017 356100                    ANSQ    15,,PR0

      104      805    1       GLOBAL.PENDING.CURONLY='0'B;

    805  0 000006   000001 236000 1                  LDQ     1
         0 000007   000017 356100                    ANSQ    15,,PR0

      105      806    1       GLOBAL.PENDING.SHANY='0'B;

    806  0 000010   000002 236000 1                  LDQ     2
         0 000011   000017 356100                    ANSQ    15,,PR0

      106      807    1       CALL ZIM$CHKPT(0) ALTRET(ER_ALT);

PL6.E3A0      #003=ZIM$CLRPND File=ZIM$FLAGS.:ZIC0TSI                            FRI 09/05/97 12:55 Page:33
    807  0 000012   000005 630400 1                  EPPR0   5
         0 000013   000003 631400 1                  EPPR1   3
         0 000014   000000 701000 xent               TSX1    ZIM$CHKPT
         0 000015   000017 702000 0                  TSX2    ER_ALT

      107      808    1       RETURN;

    808  0 000016   000000 702200 xent               TSX2  ! X66_ARET

    806  0 000017                       ER_ALT       null
      108      809    1   ER_ALT: ;
      109      810    1       ALTRETURN;

    810  0 000017   000000 702200 xent               TSX2  ! X66_AALT

(unnamed)
 Sect OctLoc
   1     000   477777 777777   777577 777777   775777 777777   000001 000000    ................
   1     004   000000 000000   000004 006000                                    ........
      110      811    1   END ZIM$CLRPND;

PL6.E3A0      #003=ZIM$CLRPND File=ZIM$FLAGS.:ZIC0TSI                            FRI 09/05/97 12:55 Page:34
--  Include file information  --

   ZI$GLOBAL.:ZIC0TOU  is referenced.
   B$JIT_C.:E05TOU  was found in the system file and is never referenced.
   CP_6_C.:E05TOU  was found in the system file and is never referenced.
      No diagnostics issued in procedure ZIM$CLRPND.

   Procedure ZIM$CLRPND requires 16 words for executable code.
   Procedure ZIM$CLRPND requires 4 words of local(AUTO) storage.

    No errors detected in file ZIM$FLAGS.:ZIC0TSI    .
PL6.E3A0      #003=ZIM$CLRPND File=ZIM$FLAGS.:ZIC0TSI                            FRI 09/05/97 12:55 Page:35
          *** CROSS REFERENCE LISTING ***
**     DENOTES     IDENTIFIER DEFINITION
<<                 IDENTIFIER'S VALUE SET
>>                 IDENTIFIER'S VALUE USED
<>                 IDENTIFIER SET AND/OR USED
--                 IDENTIFIER REFERENCED
PL6.E3A0      #003=ZIM$CLRPND File=ZIM$FLAGS.:ZIC0TSI                            FRI 09/05/97 12:55 Page:36
          MINI XREF LISTING

ER_ALT
       806**LABEL     807--CALLALT
GLOBAL.ACTIVE.DBCB$
       501**DCL       502--REDEF
GLOBAL.ACTIVE.SSS$
       497**DCL       498--REDEF
GLOBAL.ENCRP
       726**DCL       803<<ASSIGN
GLOBAL.KEY
       705**DCL       708--REDEF
GLOBAL.PARAN.TRACE.MODE
       580**DCL       587--REDEF
GLOBAL.PENDING.CURONLY
       538**DCL       805<<ASSIGN
GLOBAL.PENDING.SHANY
       535**DCL       806<<ASSIGN
GLOBAL.PENDING.SHARE
       530**DCL       804<<ASSIGN
GLOBAL.PRINTBUF.BUFFER
       739**DCL       740--REDEF     741--REDEF     742--REDEF
GLOBAL.PRINTBUF.ERR.V
       744**DCL       747--REDEF     748--REDEF     749--REDEF
GLOBAL$
       799**DCL       495--IMP-PTR   803>>ASSIGN    804>>ASSIGN    805>>ASSIGN    806>>ASSIGN
ZIM$CHKPT
       802**DCL-ENT   807--CALL
