
PL6.E3A0      #001=ZIM$HEREIAM File=ZIM$HEREIAM.:ZIC0TSI                         FRI 09/05/97 12:56 Page:1
        1        1        /*M*     ZIM$HEREIAM - Here I Am.  Database Initialization */
        2        2        /*T***********************************************************/
        3        3        /*T*                                                         */
        4        4        /*T* Copyright (c) Bull HN Information Systems Inc., 1997    */
        5        5        /*T*                                                         */
        6        6        /*T***********************************************************/
        7        7        /*         ZIE$DBHIA
        8        8                   must be first call from user to dbcs for each database.
        9        9                   Multiple calls will be ignored.  Establishes environment
       10       10                   of the database                                        */
       11       11        ZIM$HEREIAM: PROC ALTRET
       12       12         /* USE($PR5 FOR GLOBAL$) */
       13       13               AVOID($PR5,$PR6,$PR7);
       14       14        %INCLUDE CP_6;
       15       95            %FPT_GETDCB(FPTN=FPT$GETDCB,STCLASS="BASED(FPT$)");
       16      110            %FPT_OPEN(FPTN=FPT$OPNSCRB,STCLASS="BASED(FPT$)");
       17      219            %FPT_MONINFO(FPTN=FPT$MONINFO,STCLASS=BASED);
       18      234            %SP_EQUS_C;
       19      241            %VLP_VECTOR (FPTN=VLP$VECTOR,STCLASS="BASED");
       20      256            %F$DCB(BASED="BASED(F$DCB$)");
       21      313            %B$TCB;
       22      316            %B$ALT;
       23      324        %INCLUDE CP_6_SUBS;
       24      864        %INCLUDE ZI$GLOBAL;
       25     1350            %GLOBALS;
       26     1658            %BUFFERS;
       27     1673        %INCLUDE ZI$SSS;
       28     2222            %OA;
       29     2287            %OA1;
       30     2295            %AC;
       31     2390            %RC;
       32     2422            %SC;
       33     2449            %SC1;
       34     2459            %FR;
       35     2505        %INCLUDE ZI$DBCB;
       36     3147            %DBCB;
       37     3625        %INCLUDE ZI$USER;
PL6.E3A0      #001=ZIM$HEREIAM File=ZIM$HEREIAM.:ZIC0TSI                         FRI 09/05/97 12:56 Page:2
       38     3770            %IA;
       39     3819            %RVA;
       40     3832            %UPT;
       41     3862        %INCLUDE ZI_ERRORS_C;
       42     4188    1   DCL ZIO$CHKSSN ENTRY ALTRET;
       43     4189    1   DCL ZIO$FREESSN ENTRY ALTRET;
       44     4190    1   DCL ZIO$GETSEG ENTRY(3) ALTRET;
       45     4191    1   DCL ZIO$FREESEG ENTRY(2);
       46     4192    1   DCL ERROR UBIN(36);
       47     4193    1   DCL ZIB$FIXREGS ENTRY(1);
       48     4194    1   DCL SSACCT CHAR(8);
       49     4195    1   DCL B$TCB$ PTR SYMREF;
       50     4196    1   DCL PTR$ PTR;
       51     4197    1   DCL FPT$ PTR;
       52     4198    1   DCL F$DCB$ PTR;
       53     4199    1       CALL ZIO$CHKSSN ALTRET (NOT_THERE);
       54     4200         /* Make sure rva is still bound.  Might be subroutine
       55     4201            using same sss but different upt and rva */
       56     4202    1       CALL IASSCHK ALTRET(ER_RRDY); /* Check corr of IA and SSS */
       57     4203    1       CALL BINDUPT; /* Bind RVA */
       58     4204    1       CALL BINDRVA ALTRET(ER_RRDY); /* Bind RVA */
       59     4205    1       RETURN;
       60     4206    1   NOT_THERE: IF GLOBAL.ACTIVE.DBNO = 0 THEN
       61     4207    1           GOTO ER; /* To many open at once */
       62     4208    1       GLOBAL.VLP$->VLP$VECTOR.PTR$=ADDR(NIL);
       63     4209    1       IF IA.SSNAME='UTL4' OR IA.SSNAME='SUB4' OR IA.SSNAME='VMS4' THEN
       64     4210    1           GLOBAL.DB.FLAGS.SYSSUB(GLOBAL.ACTIVE.DBNO)='1'B;
       65     4211    1       ELSE
       66     4212    1           GLOBAL.DB.FLAGS.SYSSUB(GLOBAL.ACTIVE.DBNO)='0'B;
       67     4213    1       CALL GETSSS ALTRET(ER_RDY); /* Read in schema subset */
       68     4214    1       CALL IASSCHK ALTRET(ER_RDY); /* Check corr of IA and SSS */
       69     4215    1       CALL BINDUPT; /* Bind RVA */
       70     4216    1       CALL BINDRVA ALTRET(ER_RDY); /* Bind rva */
       71     4217    1       CALL GETDBCB ALTRET(ER_RDY); /* Build dbcb */
       72     4218    1       GLOBAL.DB.COUNT=GLOBAL.DB.COUNT+1;
       73     4219    1       CALL ZIB$FIXREGS;
       74     4220    1       RETURN;
PL6.E3A0      #001=ZIM$HEREIAM File=ZIM$HEREIAM.:ZIC0TSI                         FRI 09/05/97 12:56 Page:3
       75     4221    1   ER_RDY: IF GLOBAL.VLP$->VLP$VECTOR.PTR$~=ADDR(NIL) THEN
       76     4222        /*          Memory has been allocated.  Release it. */
       77     4223    1           CALL ZIO$FREESEG(GLOBAL.VLP$->VLP$VECTOR.PTR$);
       78     4224    1       IF GLOBAL.DB.SSS$(GLOBAL.ACTIVE.DBNO)~=ADDR(NIL) THEN
       79     4225    1           CALL ZIO$FREESSN;
       80     4226    1   ER_RRDY: GLOBAL.ACTIVE.DBNO=0;
       81     4227    1   ER: ALTRETURN;
       82     4228        %EJECT;
PL6.E3A0      #001=ZIM$HEREIAM File=ZIM$HEREIAM.:ZIC0TSI                         FRI 09/05/97 12:56 Page:4
       83     4229    1   BINDUPT: PROC;
       84     4230    2   DCL I SBIN(36) ALIGNED;
       85     4231    2   DCL COUNT SBIN(36) ALIGNED;
       86     4232    2   DCL RFTBL(0:4) SBIN(36) INIT(0,2,3,6,1) CONSTANT;
       87     4233    2       IF UPT.W1.BOUND~=1 THEN
       88     4234    3       DO;
       89     4235    3           COUNT=UPT.W1.COUNT-1;
       90     4236    4           DO I=0 TO COUNT;
       91     4237    4               UPT.UPTE.UCW.PT(I)=RFTBL(UPT.UPTE.UCW.PT(I));
       92     4238    4               IF UPT.UPTE.UCW.PT(I)~=6 THEN
       93     4239    4                   IF UPT.UPTE.UCW.A(I)~=0 THEN
       94     4240    4                       UPT.UPTE.UCW.A(I)=RVA.RVE.NAME(UPT.UPTE.UCW.A(I)-1);
       95     4241    4               END;
       96     4242    3           UPT.W1.BOUND=1;
       97     4243    3           END;
       98     4244    2       RETURN;
       99     4245    2   END BINDUPT;
      100     4246        %EJECT;
PL6.E3A0      #001=ZIM$HEREIAM File=ZIM$HEREIAM.:ZIC0TSI                         FRI 09/05/97 12:56 Page:5
      101     4247    1   GETSSS: PROC ALTRET;
      102     4248    2   DCL B$DS3$ PTR SYMREF;
      103     4249    2   DCL B$DS5$ PTR SYMREF;
      104     4250    2   DCL B$DS7$ PTR SYMREF;
      105     4251    2   DCL ZI_SSACCT CHAR(8) CONSTANT SYMDEF INIT(':SYS    ');
      106     4252    2       GLOBAL.DCBNAME.TEXT=IA.SSNAME;
      107     4253    2       GLOBAL.DCBNAME.LENGTH=30;
      108     4254    3       DO WHILE (IA.SSNCHAR(GLOBAL.DCBNAME.LENGTH-1)=' ');
      109     4255    3           GLOBAL.DCBNAME.LENGTH=GLOBAL.DCBNAME.LENGTH-1;
      110     4256    3           IF GLOBAL.DCBNAME.LENGTH = 1 THEN
      111     4257    3               GOTO ER_LENGTH;
      112     4258    3           END;
      113     4259    2       FPT$=GLOBAL.GETDCB$;
      114     4260    3       IF GLOBAL.DB.FLAGS.SYSSUB(GLOBAL.ACTIVE.DBNO)='1'B THEN DO;
      115     4261    3           FPT$GETDCB.V.TEST#=%NO#;
      116     4262    3           CALL M$GETDCB(FPT$GETDCB) ALTRET(ER_GDCB);
      117     4263    3           F$DCB$=DCBADDR(GLOBAL.DCBNUMBER);
      118     4264    3           GLOBAL.FILENAME.LENGTH=GLOBAL.DCBNAME.LENGTH+2;
      119     4265    3           CALL CONCAT(GLOBAL.FILENAME.TEXT,'DB',IA.SSNAME);
      120     4266    3           GLOBAL.ACCT=ZI_SSACCT;
      121     4267    3           END;
      122     4268    3       ELSE DO;
      123     4269    3           FPT$GETDCB.V.TEST#=%YES#;
      124     4270    3           FPT$GETDCB.V.MERGE#=%YES#;
      125     4271    3           CALL M$GETDCB(FPT$GETDCB)
      126     4272    4           WHENALTRETURN DO;
      127     4273    4               FPT$GETDCB.V.MERGE#=%NO#;
      128     4274    4               GOTO ER_GDCB;
      129     4275    4               END;
      130     4276    3           FPT$GETDCB.V.MERGE#=%NO#;
      131     4277    4           IF GLOBAL.DCBNUMBER=0 THEN DO;
      132     4278    4               FPT$GETDCB.V.TEST#=%NO#;
      133     4279    4               FPT$GETDCB.V.MERGE#=%YES#;
      134     4280    4               CALL M$GETDCB(FPT$GETDCB)
      135     4281    5               WHENALTRETURN DO;
      136     4282    5                   FPT$GETDCB.V.MERGE#=%NO#;
      137     4283    5                   GOTO ER_GDCB;
PL6.E3A0      #001=ZIM$HEREIAM File=ZIM$HEREIAM.:ZIC0TSI                         FRI 09/05/97 12:56 Page:6
      138     4284    5                   END;
      139     4285    4               FPT$GETDCB.V.MERGE#=%NO#;
      140     4286    4               F$DCB$=DCBADDR(GLOBAL.DCBNUMBER);
      141     4287    4               GLOBAL.FILENAME=GLOBAL.DCBNAME;
      142     4288    4               IF F$DCB.NAME#.L=0 THEN
      143     4289    4                   GLOBAL.FILENAME=GLOBAL.DCBNAME;
      144     4290    4               ELSE
      145     4291    4                   GLOBAL.FILENAME=F$DCB.NAME#;
      146     4292    4               GLOBAL.ACCT=F$DCB$->F$DCB.ACCT#;
      147     4293    4               END;
      148     4294    4           ELSE DO;
      149     4295    4               F$DCB$=DCBADDR(GLOBAL.DCBNUMBER);
      150     4296    4               GLOBAL.FILENAME=F$DCB.NAME#;
      151     4297    4               GLOBAL.ACCT=F$DCB.ACCT#;
      152     4298    4               END;
      153     4299    3           END;
      154     4300    2       IF GLOBAL.FILENAME.LENGTH<31 THEN
      155     4301    2           GLOBAL.FILENAME.LENGTH=GLOBAL.FILENAME.LENGTH+1;
      156     4302    2       CALL INSERT(GLOBAL.FILENAME.TEXT,
      157     4303    2          GLOBAL.FILENAME.LENGTH-1,
      158     4304    2          1,':');
      159     4305    2       FPT$=GLOBAL.OPNSCRB$;
      160     4306    2       FPT$OPNSCRB.V.DCB#=GLOBAL.DCBNUMBER;
      161     4307    3       DO CASE(GLOBAL.DB.COUNT);
      162     4308    3       CASE(0);
      163     4309    3           FPT$OPNSCRB.V.ACS#=%DS3#;
      164     4310    3           SSS$=B$DS3$;
      165     4311    3       CASE(1);
      166     4312    3           FPT$OPNSCRB.V.ACS#=%DS5#;
      167     4313    3           SSS$=B$DS5$;
      168     4314    3       CASE(2);
      169     4315    3           FPT$OPNSCRB.V.ACS#=%DS7#;
      170     4316    3           SSS$=B$DS7$;
      171     4317    3       CASE(ELSE);
      172     4318    3           ERROR=ERR#SS#SEG; /* CANNOT HANDLER 4 OR MORE DB */
      173     4319    3           GOTO ALT;
      174     4320    3           END;
PL6.E3A0      #001=ZIM$HEREIAM File=ZIM$HEREIAM.:ZIC0TSI                         FRI 09/05/97 12:56 Page:7
      175     4321    2       FPT$OPNSCRB.V.ORG#=%RANDOM#;
      176     4322    2       FPT$OPNSCRB.V.SHARE#=%IN#;
      177     4323    2       FPT$OPNSCRB.V.FUN#=%IN#;
      178     4324    2       FPT$OPNSCRB.V.INITZ.SCRUB#=%NO#;
      179     4325    2       CALL M$OPEN(FPT$OPNSCRB)
      180     4326    3       WHENALTRETURN DO;
      181     4327    3           FPT$OPNSCRB.V.INITZ.SCRUB#=%YES#;
      182     4328    3           GOTO ER_OP;
      183     4329    3           END;
      184     4330    2       FPT$OPNSCRB.V.INITZ.SCRUB#=%YES#;
      185     4331    2       IF F$DCB$->F$DCB.UOPT#(0) THEN
      186     4332    2           GLOBAL.DB.FLAGS.NOTRANS(GLOBAL.ACTIVE.DBNO)=%YES#;
      187     4333    2       ELSE
      188     4334    2           GLOBAL.DB.FLAGS.NOTRANS(GLOBAL.ACTIVE.DBNO)=%NO#;
      189     4335    2       GLOBAL.ACTIVE.SSS$=SSS$;
      190     4336    2       GLOBAL.DB.SSS$(GLOBAL.ACTIVE.DBNO)=SSS$;
      191     4337    2       GLOBAL.DB.SSNAME(GLOBAL.ACTIVE.DBNO)=IA.SSNAME;
      192     4338    2       SSACCT=F$DCB$->F$DCB.ACCT#;
      193     4339    2       RETURN;
      194     4340    2   ER_LENGTH: ERROR=ERR#CM#INNM;
      195     4341    2       GOTO ALT;
      196     4342    2   ER_GDCB: ;
      197     4343    2       GLOBAL.GETDCB$->FPT$GETDCB.V.MERGE#=%NO#;
      198     4344    2   ER_OP: ERROR=ERR#LC#05;
      199     4345    2       GLOBAL.RET.SYSERR#=B$TCB$->B$TCB.ALT$->B$ALT.ERR;
      200     4346    2       GOTO ALT;
      201     4347    2   ALT: ;
      202     4348            %DBALT;
      203     4362    2   END GETSSS;
      204     4363        %EJECT;
PL6.E3A0      #001=ZIM$HEREIAM File=ZIM$HEREIAM.:ZIC0TSI                         FRI 09/05/97 12:56 Page:8
      205     4364    1   IASSCHK: PROC ALTRET;
      206     4365    2       SSS$=GLOBAL.ACTIVE.SSS$;
      207     4366    2       OA$=PINCRW(SSS$,SIZEW(OA1));
      208     4367    3       DO CASE(IA.EC);
      209     4368    3       CASE(%EC_FORTRAN#);
      210     4369    3           GLOBAL.STYPE=%FORTRAN_IDS#;
      211     4370    3       CASE(%EC_APL#);
      212     4371    3           GLOBAL.STYPE=%APL_IDS#;
      213     4372    3       CASE(%EC_BASIC#);
      214     4373    3           GLOBAL.STYPE=%BASIC_IDS#;
      215     4374    3       CASE(%EC_IDP#);
      216     4375    3           GLOBAL.STYPE=%IDP_IDS#;
      217     4376    3       CASE(ELSE);
      218     4377    3           GLOBAL.STYPE='0'B;
      219     4378    3           END;
      220     4379    2       IF GLOBAL.STYPE~='0'B THEN
      221     4380    2           CALL M$MONINFO(GLOBAL.MONINFO$->FPT$MONINFO) ALTRET(ER_NPAID);
      222     4381    2       IF SUBSTR(PINCRW(OA$,SIZEW(OA))->SSNAME,0,
      223     4382    2          OA.SSNAM.EIS.COUNT)~=IA.SSNAME THEN
      224     4383    2           GOTO ER_NAME;
      225     4384    2       IF GLOBAL.DB.FLAGS.SYSSUB(GLOBAL.ACTIVE.DBNO)=%NO# THEN
      226     4385    3       DO;
      227     4386    3           IF OA.SNAM~=IA.SNAME THEN
      228     4387    3               GOTO ER_NAME;
      229     4388    3           IF ~GLOBAL.DB.FLAGS.NOTRANS(GLOBAL.ACTIVE.DBNO) AND
      230     4389    3              OA.SSDT~=IA.SSDT THEN
      231     4390    3               GOTO ER_DATE;
      232     4391    3           END;
      233     4392    2       RETURN;
      234     4393    2   ER_NPAID: ERROR=ERR#CM#NPAID;
      235     4394    2       GOTO ALT;
      236     4395    2   ER_NAME: ERROR=ERR#CM#INNM;
      237     4396    2       GOTO ALT;
      238     4397    2   ER_DATE: ERROR=ERR#CM#INSS;
      239     4398    2   ALT: ;
      240     4399            %DBALT;
      241     4413    2   END IASSCHK;
PL6.E3A0      #001=ZIM$HEREIAM File=ZIM$HEREIAM.:ZIC0TSI                         FRI 09/05/97 12:56 Page:9
      242     4414        %EJECT;
PL6.E3A0      #001=ZIM$HEREIAM File=ZIM$HEREIAM.:ZIC0TSI                         FRI 09/05/97 12:56 Page:10
      243     4415    1   BINDRVA: PROC ALTRET;
      244     4416    2   DCL I SBIN(36) ALIGNED;
      245     4417    2   DCL COUNT SBIN(36) ALIGNED;
      246     4418    2   DCL ZIP$DBFSE ENTRY ALTRET;
      247     4419    2       IF RVA.W1.BOUND~=1 THEN
      248     4420    3       DO;
      249     4421    3           COUNT=RVA.W1.COUNT-1;
      250     4422    4           DO I=0 TO COUNT;
      251     4423    4               GLOBAL.PARAN.DBFSE.TYPE=RVA.RVE.T(I);
      252     4424    4               GLOBAL.PARAN.DBFSE.ID=RVA.RVE.NAME(I);
      253     4425                    %DBCAL(NAME=ZIP$DBFSE,ALT=ER_FSE);
      254     4441    4               RVA.RVE.EO(I)=GLOBAL.PARAN.DBFSE.SSOFST;
      255     4442    4               END;
      256     4443    3           RVA.W1.BOUND=1;
      257     4444    3           END;
      258     4445    2       RETURN;
      259     4446    2   ER_FSE: ALTRETURN;
      260     4447    2   END BINDRVA;
      261     4448        %EJECT;
PL6.E3A0      #001=ZIM$HEREIAM File=ZIM$HEREIAM.:ZIC0TSI                         FRI 09/05/97 12:56 Page:11
      262     4449    1   GETDBCB: PROC ALTRET;
      263     4450    2   DCL 1 DBCBEIS CONSTANT,
      264     4451    2         2 FBUF,
      265     4452    2           3 * UBIN(3) UNAL INIT(7),
      266     4453    2           3 * UBIN(15) UNAL INIT(0),
      267     4454    2           3 * UBIN(3) UNAL INIT(0),
      268     4455    2           3 * UBIN(1) UNAL INIT(1),
      269     4456    2           3 * UBIN(2) UNAL INIT(1),
      270     4457    2           3 * UBIN(6) UNAL INIT(0),
      271     4458    2           3 * UBIN(6) UNAL INIT(63),
      272     4459    2         2 FBUFU,
      273     4460    2           3 * UBIN(3) UNAL INIT(7),
      274     4461    2           3 * UBIN(15) UNAL INIT(0),
      275     4462    2           3 * UBIN(3) UNAL INIT(1),
      276     4463    2           3 * UBIN(1) UNAL INIT(1),
      277     4464    2           3 * UBIN(2) UNAL INIT(3),
      278     4465    2           3 * UBIN(6) UNAL INIT(0),
      279     4466    2           3 * UBIN(6) UNAL INIT(62),
      280     4467    2         2 FBUFM,
      281     4468    2           3 * UBIN(3) UNAL INIT(7),
      282     4469    2           3 * UBIN(15) UNAL INIT(0),
      283     4470    2           3 * UBIN(3) UNAL INIT(0),
      284     4471    2           3 * UBIN(1) UNAL INIT(1),
      285     4472    2           3 * UBIN(2) UNAL INIT(1),
      286     4473    2           3 * UBIN(6) UNAL INIT(0),
      287     4474    2           3 * UBIN(6) UNAL INIT(2),
      288     4475    2         2 FBUMD,
      289     4476    2           3 * UBIN(3) UNAL INIT(7),
      290     4477    2           3 * UBIN(15) UNAL INIT(0),
      291     4478    2           3 * UBIN(3) UNAL INIT(1),
      292     4479    2           3 * UBIN(2) UNAL INIT(2),
      293     4480    2           3 * UBIN(1) UNAL INIT(0),
      294     4481    2           3 * UBIN(12) UNAL INIT(1),
      295     4482    2         2 FBUF6,
      296     4483    2           3 * UBIN(3) UNAL INIT(7),
      297     4484    2           3 * UBIN(15) UNAL INIT(0),
      298     4485    2           3 * UBIN(3) UNAL INIT(0),
PL6.E3A0      #001=ZIM$HEREIAM File=ZIM$HEREIAM.:ZIC0TSI                         FRI 09/05/97 12:56 Page:12
      299     4486    2           3 * UBIN(2) UNAL INIT(1),
      300     4487    2           3 * UBIN(1) UNAL INIT(0),
      301     4488    2           3 * BIT(12) UNAL INIT('0012'O),
      302     4489    2         2 FBU61,
      303     4490    2           3 * UBIN(3) UNAL INIT(7),
      304     4491    2           3 * UBIN(15) UNAL INIT(0),
      305     4492    2           3 * UBIN(3) UNAL INIT(0),
      306     4493    2           3 * UBIN(2) UNAL INIT(1),
      307     4494    2           3 * UBIN(1) UNAL INIT(0),
      308     4495    2           3 * UBIN(12) UNAL INIT(1),
      309     4496    2         2 FBUF1,
      310     4497    2           3 * UBIN(3) UNAL INIT(7),
      311     4498    2           3 * UBIN(15) UNAL INIT(0),
      312     4499    2           3 * UBIN(3) UNAL INIT(0),
      313     4500    2           3 * UBIN(1) UNAL INIT(1),
      314     4501    2           3 * UBIN(2) UNAL INIT(1),
      315     4502    2           3 * UBIN(6) UNAL INIT(0),
      316     4503    2           3 * UBIN(6) UNAL INIT(12),
      317     4504    2         2 FBUF4,
      318     4505    2           3 * UBIN(3) UNAL INIT(7),
      319     4506    2           3 * UBIN(15) UNAL INIT(0),
      320     4507    2           3 * UBIN(3) UNAL INIT(0),
      321     4508    2           3 * UBIN(2) UNAL INIT(2),
      322     4509    2           3 * UBIN(1) UNAL INIT(0),
      323     4510    2           3 * UBIN(12) UNAL INIT(63),
      324     4511    2         2 FBF72,
      325     4512    2           3 * UBIN(3) UNAL INIT(7),
      326     4513    2           3 * UBIN(15) UNAL INIT(0),
      327     4514    2           3 * UBIN(3) UNAL INIT(0),
      328     4515    2           3 * UBIN(1) UNAL INIT(1),
      329     4516    2           3 * UBIN(2) UNAL INIT(1),
      330     4517    2           3 * UBIN(6) UNAL INIT(0),
      331     4518    2           3 * UBIN(6) UNAL INIT(23);
      332     4519    2   DCL RECCNT SBIN(36) ALIGNED;
      333     4520    2   DCL SETCNT SBIN(36) ALIGNED;
      334     4521    2   DCL KEYCNT SBIN(36) ALIGNED;
      335     4522    2   DCL PACNT SBIN(36) ALIGNED;
PL6.E3A0      #001=ZIM$HEREIAM File=ZIM$HEREIAM.:ZIC0TSI                         FRI 09/05/97 12:56 Page:13
      336     4523    2   DCL DBCBS SBIN(36) ALIGNED;
      337     4524    2   DCL 1 SPANDBCB BASED ALIGNED,
      338     4525    2         2 * CHAR(DBCBS);
      339     4526    2   DCL UBSZ SBIN(36) ALIGNED;
      340     4527    2   DCL OFFW SBIN(36) ALIGNED;
      341     4528    2   DCL 1 OFFSET,
      342     4529    2         2 ATBL SBIN(36) ALIGNED,
      343     4530    2         2 TBUF SBIN(36) ALIGNED,
      344     4531    2         2 IXBUF SBIN(36) ALIGNED,
      345     4532    2         2 PABUF SBIN(36) ALIGNED;
      346     4533    2   DCL DBCBSW SBIN(36) ALIGNED;
      347     4534        %TALLYD;
      348     4540        %ADSC;
      349     4552        %NDSC;
      350     4563    2       RECCNT=0;
      351     4564    2       RC$=PINCRW(SSS$,SIZEW(OA1));
      352     4565    3       DO WHILE (RC.OARCN~=0);
      353     4566    3           RC$=PINCRW(SSS$,RC.OARCN);
      354     4567    3           RECCNT=RECCNT+1;
      355     4568    3           END;
      356     4569    2       SETCNT=0;
      357     4570    2       KEYCNT=0;
      358     4571    2       PACNT=0;
      359     4572    2       SC$=PINCRW(SSS$,SIZEW(OA1));
      360     4573    3       DO WHILE (SC.OASCN~=0);
      361     4574    3           SC$=PINCRW(SSS$,SC.OASCN);
      362     4575    3           SETCNT=SETCNT+1;
      363     4576    3           IF SC.DEF.SETM=2 THEN
      364     4577    3               PACNT=PACNT+1;
      365     4578    3           ELSE
      366     4579    3               IF SC.DEF.SETT=2 OR SC.DEF.SETT=3 THEN
      367     4580    3                   KEYCNT=KEYCNT+1;
      368     4581    3           END;
      369     4582    2       UBSZ=SIZEW(DBCB)-(SIZEW(DBCB.CRUN)+SIZEW(DBCB.SFWS));
      370     4583    2       OFFSET.ATBL=MOD(UBSZ,2)+UBSZ
      371     4584    2          +MOD(OA.CSZ,2)+OA.CSZ
      372     4585    2          +MOD(OA.LSSZ,2)+OA.LSSZ;
PL6.E3A0      #001=ZIM$HEREIAM File=ZIM$HEREIAM.:ZIC0TSI                         FRI 09/05/97 12:56 Page:14
      373     4586    2       OFFSET.TBUF=OFFSET.ATBL
      374     4587    2          +4*(OA.ACNT+1);
      375     4588    2       OFFSET.IXBUF=OFFSET.TBUF+OA.LRSZ;
      376     4589    2       OFFSET.PABUF=OFFSET.IXBUF+OA.LRSZ;
      377     4590    2       DBCBS=OFFSET.PABUF+OA.LPASZ;
      378     4591    2       CALL ZIO$GETSEG(ADDR(NIL),DBCBS) ALTRET(ER_GS);
      379     4592    2       DBCB$=GLOBAL.VLP$->VLP$VECTOR.PTR$;
      380     4593    2       GLOBAL.ACTIVE.DBCB$=DBCB$;
      381     4594    2       GLOBAL.DB.DBCB$(GLOBAL.ACTIVE.DBNO)=DBCB$;
      382     4595    2       DBCBSW = DBCBS;
      383     4596    2       DBCBS=DBCBS*4;
      384     4597    2       DBCB$->SPANDBCB='0'B;
      385     4598    2       DBCB.CSECT.SSACCT=SSACCT;
      386     4599    2       DBCB.CSECT.ATBL.OFFSET=OFFSET.ATBL;
      387     4600    2       DBCB.CSECT.TBUF$=PINCRW(DBCB$,OFFSET.TBUF);
      388     4601    2       DBCB.CSECT.IXBUF$=PINCRW(DBCB$,OFFSET.IXBUF);
      389     4602    2       DBCB.CSECT.KEYPA$=ADDR(GLOBAL.SKEY);
      390     4603    2       DBCB.CSECT.CBFSZ=DBCBS;
      391     4604    2       DBCB.CSECT.PABUF=OFFSET.PABUF;
      392     4605    2       DBCB.SWS.STMASK='777777007777'O;
      393     4606    2       DBCB.SWS.TMASK='000000007777'O;
      394     4607    2       DBCB.SWS.CTMASK='777777770000'O;
      395     4608    2       PTR$=ADDR(DBCB.DBEST.CONTROL);
      396     4609         /* Offsets for tally's are from begining of segment */
      397     4610    2       PTR$->TALLYD.Y=
      398     4611    2          POFFW(ADDR(DBCB.DBEST.STACK),DBCB$);
      399     4612    2       PTR$->TALLYD.TALLY=SIZEW(DBCB.DBEST.STACK)/2;
      400     4613    2       PTR$->TALLYD.DELTA=2;
      401     4614    2       DBCB.DBEST.REFRESH=PTR$->TALLYD;
      402     4615    2       PTR$=ADDR(DBCB.DBSTK.CONTROL);
      403     4616    2       PTR$->TALLYD.Y=
      404     4617    2          POFFW(ADDR(DBCB.DBSTK.STACK),DBCB$);
      405     4618    2       PTR$->TALLYD.TALLY=SIZEW(DBCB.DBSTK.STACK);
      406     4619    2       DBCB.DBSTK.REFRESH=PTR$->TALLYD;
      407     4620    2       PTR$=ADDR(DBCB.DBIC.CONTROL);
      408     4621    2       PTR$->TALLYD.Y=
      409     4622    2          POFFW(ADDR(DBCB.DBIC.STACK),DBCB$);
PL6.E3A0      #001=ZIM$HEREIAM File=ZIM$HEREIAM.:ZIC0TSI                         FRI 09/05/97 12:56 Page:15
      410     4623    2       PTR$->TALLYD.TALLY=SIZEW(DBCB.DBIC.STACK);
      411     4624    2       DBCB.PWS.DBICREFRESH=PTR$->TALLYD;
      412     4625    2       DBCB.PCB.RVI=POFFW(ADDR(DBCB.PCB.RV1),DBCB$);
      413     4626    2       DBCB.PCB.RVO=POFFW(ADDR(DBCB.PCB.RV2),DBCB$);
      414     4627    2       DBCB.PCB.RVT=POFFW(ADDR(DBCB.PCB.RV3),DBCB$);
      415     4628    2       DBCB.PCB.RVPA=POFFW(ADDR(DBCB.PCB.RV4),DBCB$);
      416     4629    2       PTR$=ADDR(DBCB.PWS.RNGTAL.CURRENT);
      417     4630    2       PTR$->TALLYD.Y=
      418     4631    2          POFFW(ADDR(DBCB.PWS.RNG1),DBCB$);
      419     4632    2       PTR$->TALLYD.TALLY=2;
      420     4633    2       PTR$->TALLYD.DELTA=2;
      421     4634    2       DBCB.PWS.RNGTAL.REFRESH=PTR$->TALLYD;
      422     4635    2       DBCB.IOWS.CHR='007640000012'O;
      423     4636    2       OFFW=POFFW(ADDR(DBCB.BUF6),DBCB$);
      424     4637    2       DBCB.IOWS.FBUF6=DBCBEIS.FBUF6;
      425     4638    2       ADDR(DBCB.IOWS.FBUF6)->ADSC.OFFSET.Y=OFFW;
      426     4639    2       DBCB.IOWS.FBU61=DBCBEIS.FBU61;
      427     4640    2       ADDR(DBCB.IOWS.FBU61)->ADSC.OFFSET.Y=OFFW;
      428     4641    2       OFFW=POFFW(ADDR(DBCB.BUF4),DBCB$);
      429     4642    2       DBCB.IOWS.FBUF=DBCBEIS.FBUF;
      430     4643    2       ADDR(DBCB.IOWS.FBUF)->NDSC.OFFSET.Y=OFFW;
      431     4644    2       DBCB.IOWS.FBUFU=DBCBEIS.FBUFU;
      432     4645    2       ADDR(DBCB.IOWS.FBUFU)->NDSC.OFFSET.Y=OFFW;
      433     4646    2       DBCB.IOWS.FBUFM=DBCBEIS.FBUFM;
      434     4647    2       ADDR(DBCB.IOWS.FBUFM)->NDSC.OFFSET.Y=OFFW;
      435     4648    2       DBCB.IOWS.FBUMD=DBCBEIS.FBUMD;
      436     4649    2       ADDR(DBCB.IOWS.FBUMD)->ADSC.OFFSET.Y=OFFW;
      437     4650    2       DBCB.IOWS.FBUF1=DBCBEIS.FBUF1;
      438     4651    2       ADDR(DBCB.IOWS.FBUF1)->NDSC.OFFSET.Y=OFFW;
      439     4652    2       DBCB.IOWS.FBUF4=DBCBEIS.FBUF4;
      440     4653    2       ADDR(DBCB.IOWS.FBUF4)->ADSC.OFFSET.Y=OFFW;
      441     4654    2       DBCB.IOWS.FBF72=DBCBEIS.FBF72;
      442     4655    2       ADDR(DBCB.IOWS.FBF72)->NDSC.OFFSET.Y=OFFW;
      443     4656    2       DBCB.CSECT.CIWSOF=OA.CIWSOF;
      444     4657    2       RETURN;
      445     4658    2   ER_GS: ERROR=ERR#LC#01;
      446     4659    2       GLOBAL.RET.SYSERR#=B$TCB$->B$TCB.ALT$->B$ALT.ERR;
PL6.E3A0      #001=ZIM$HEREIAM File=ZIM$HEREIAM.:ZIC0TSI                         FRI 09/05/97 12:56 Page:16
      447     4660            %DBALT;
      448     4674    2   END GETDBCB;
      449     4675    1   END ZIM$HEREIAM;
      450     4676        %EOD;

PL6.E3A0      #001=ZIM$HEREIAM File=ZIM$HEREIAM.:ZIC0TSI                         FRI 09/05/97 12:56 Page:17
--  Include file information  --

   ZI_ERRORS_C.:ZIC0TOU  is referenced.
   ZI$USER.:ZIC0TOU  is referenced.
   ZI$DBCB.:ZIC0TOU  is referenced.
   ZI$SSS.:ZIC0TOU  cannot be made into a system file and is referenced.
   ZI$GLOBAL.:ZIC0TOU  is referenced.
   CP_6_SUBS.:LIB_E05  is referenced.
   CP_6.:LIB_E05  cannot be made into a system file and is referenced.
   B$JIT_C.:E05TOU  was found in the system file and is never referenced.
   CP_6_C.:E05TOU  was found in the system file and is referenced.
      No diagnostics issued in procedure ZIM$HEREIAM.

   Procedure ZIM$HEREIAM requires 880 words for executable code.
   Procedure ZIM$HEREIAM requires 38 words of local(AUTO) storage.

PL6.E3A0      #001=ZIM$HEREIAM File=ZIM$HEREIAM.:ZIC0TSI                         FRI 09/05/97 12:56 Page:18

 Object Unit name= ZIM$HEREIAM                                File name= ZIM$HEREIAM.:ZIC0TOU
 UTS= SEP 05 '97 12:56:00.04 FRI                              Compiler= PL-6/E31         Sev=      00
 SharedLib= :SHARED_SYSTEM                                    Alt SharedLib=


    ****  Control sections  ****

 Sect   Type Bound  Init  Size OctSiz  Section name(segment info)
    0   DCB   even  none     0      0  M$UC
    1  RoData even  UTS     28     34  ZIM$HEREIAM
    2   Proc  even  none   880   1560  ZIM$HEREIAM
    3  RoData even  none    14     16  ZIM$HEREIAM

    ****  Entry defs  ****

                              Check   Calling
                             calling  sequence
  Sect OctLoc Primary Altret sequence   type   Parms  Name
     2      0   yes    yes     yes      XStd       0  ZIM$HEREIAM

  ****  Data defs  ****

 Sect OctLoc  Name                           Sect OctLoc  Name
    1      5  ZI_SSACCT
PL6.E3A0      #001=ZIM$HEREIAM File=ZIM$HEREIAM.:ZIC0TSI                         FRI 09/05/97 12:56 Page:19

  ****  Entry refs  ****

         Check        Calling
        calling       sequence
Altret sequence SRef   type   Args  Name
 yes     yes           XStd      0 ZIO$CHKSSN
         yes           XStd      2 ZIO$FREESEG
         yes           XStd      1 ZIB$FIXREGS
 yes     yes           XStd      0 ZIO$FREESSN
         yes           XStd      0 ZIB$ERR
 yes     yes           XStd      0 ZIP$DBFSE
 yes     yes           XStd      3 ZIO$GETSEG
                       nStd      0 X66_AUTO_0
                       nStd      0 X66_ARET
                       nStd      0 X66_AALT

  ****  Data refs  ****

  Flags:  r = read only, s = secondary
Flgs Name                             Flgs Name                             Flgs Name
     M$UC                             r    GLOBAL$                               IA$
     RVA$                                  UPT$                                  B$TCB$
     B$DS3$                                B$DS5$                                B$DS7$

  ****  Segment refs  ****

  Flags:  r = read only, s = secondary
Flgs Name                             Flgs Name                             Flgs Name
     NULLSID                               ROSID
PL6.E3A0      #001=ZIM$HEREIAM File=ZIM$HEREIAM.:ZIC0TSI                         FRI 09/05/97 12:56 Page:20


        1        1        /*M*     ZIM$HEREIAM - Here I Am.  Database Initialization */
        2        2        /*T***********************************************************/
        3        3        /*T*                                                         */
        4        4        /*T* Copyright (c) Bull HN Information Systems Inc., 1997    */
        5        5        /*T*                                                         */
        6        6        /*T***********************************************************/
        7        7        /*         ZIE$DBHIA
        8        8                   must be first call from user to dbcs for each database.
        9        9                   Multiple calls will be ignored.  Establishes environment
       10       10                   of the database                                        */
       11       11        ZIM$HEREIAM: PROC ALTRET

     11  2 000000   000000 700200 xent  ZIM$HEREIAM  TSX0  ! X66_AUTO_0
         2 000001   000046 000000                    ZERO    38,0

       12       12         /* USE($PR5 FOR GLOBAL$) */
       13       13               AVOID($PR5,$PR6,$PR7);
       14       14        %INCLUDE CP_6;
       15       95            %FPT_GETDCB(FPTN=FPT$GETDCB,STCLASS="BASED(FPT$)");
       16      110            %FPT_OPEN(FPTN=FPT$OPNSCRB,STCLASS="BASED(FPT$)");
       17      219            %FPT_MONINFO(FPTN=FPT$MONINFO,STCLASS=BASED);
       18      234            %SP_EQUS_C;
       19      241            %VLP_VECTOR (FPTN=VLP$VECTOR,STCLASS="BASED");
       20      256            %F$DCB(BASED="BASED(F$DCB$)");
       21      313            %B$TCB;
       22      316            %B$ALT;
       23      324        %INCLUDE CP_6_SUBS;
       24      864        %INCLUDE ZI$GLOBAL;
       25     1350            %GLOBALS;
       26     1658            %BUFFERS;
       27     1673        %INCLUDE ZI$SSS;
       28     2222            %OA;
       29     2287            %OA1;
       30     2295            %AC;
       31     2390            %RC;
       32     2422            %SC;
PL6.E3A0      #001=ZIM$HEREIAM File=ZIM$HEREIAM.:ZIC0TSI                         FRI 09/05/97 12:56 Page:21
       33     2449            %SC1;
       34     2459            %FR;
       35     2505        %INCLUDE ZI$DBCB;
       36     3147            %DBCB;
       37     3625        %INCLUDE ZI$USER;
       38     3770            %IA;
       39     3819            %RVA;
       40     3832            %UPT;
       41     3862        %INCLUDE ZI_ERRORS_C;
       42     4188    1   DCL ZIO$CHKSSN ENTRY ALTRET;
       43     4189    1   DCL ZIO$FREESSN ENTRY ALTRET;
       44     4190    1   DCL ZIO$GETSEG ENTRY(3) ALTRET;
       45     4191    1   DCL ZIO$FREESEG ENTRY(2);
       46     4192    1   DCL ERROR UBIN(36);
       47     4193    1   DCL ZIB$FIXREGS ENTRY(1);
       48     4194    1   DCL SSACCT CHAR(8);
       49     4195    1   DCL B$TCB$ PTR SYMREF;
       50     4196    1   DCL PTR$ PTR;
       51     4197    1   DCL FPT$ PTR;
       52     4198    1   DCL F$DCB$ PTR;
       53     4199    1       CALL ZIO$CHKSSN ALTRET (NOT_THERE);

   4199  2 000002   000000 631400 3                  EPPR1   0
         2 000003   000000 701000 xent               TSX1    ZIO$CHKSSN
         2 000004   000014 702000 2                  TSX2    NOT_THERE

       54     4200         /* Make sure rva is still bound.  Might be subroutine
       55     4201            using same sss but different upt and rva */
       56     4202    1       CALL IASSCHK ALTRET(ER_RRDY); /* Check corr of IA and SSS */

   4202  2 000005   000600 701000 2                  TSX1    IASSCHK
         2 000006   000113 702000 2                  TSX2    ER_RRDY

       57     4203    1       CALL BINDUPT; /* Bind RVA */

   4203  2 000007   000116 701000 2                  TSX1    BINDUPT
         2 000010   000000 011000                    NOP     0
PL6.E3A0      #001=ZIM$HEREIAM File=ZIM$HEREIAM.:ZIC0TSI                         FRI 09/05/97 12:56 Page:22

       58     4204    1       CALL BINDRVA ALTRET(ER_RRDY); /* Bind RVA */

   4204  2 000011   000751 701000 2                  TSX1    BINDRVA
         2 000012   000113 702000 2                  TSX2    ER_RRDY

       59     4205    1       RETURN;

   4205  2 000013   000000 702200 xent               TSX2  ! X66_ARET

       60     4206    1   NOT_THERE: IF GLOBAL.ACTIVE.DBNO = 0 THEN

   4206  2 000014   000000 470400 xsym  NOT_THERE    LDP0    GLOBAL$
         2 000015   000002 235100                    LDA     2,,PR0
         2 000016   000115 600000 2                  TZE     ER

       61     4207    1           GOTO ER; /* To many open at once */
       62     4208    1       GLOBAL.VLP$->VLP$VECTOR.PTR$=ADDR(NIL);

   4208  2 000017   005112 471500                    LDP1    2634,,PR0
         2 000020   000001 236000 3                  LDQ     1
         2 000021   100001 756100                    STQ     1,,PR1

       63     4209    1       IF IA.SSNAME='UTL4' OR IA.SSNAME='SUB4' OR IA.SSNAME='VMS4' THEN

   4209  2 000022   000000 471400 xsym               LDP1    IA$
         2 000023   040000 106500                    CMPC    fill='040'O
         2 000024   100022 000036                    ADSC9   18,,PR1                  cn=0,n=30
         2 000025   000020 000004 1                  ADSC9   DBCBEIS+9                cn=0,n=4
         2 000026   000037 600000 2                  TZE     s:4210
         2 000027   040000 106500                    CMPC    fill='040'O
         2 000030   100022 000036                    ADSC9   18,,PR1                  cn=0,n=30
         2 000031   000021 000004 1                  ADSC9   DBCBEIS+10               cn=0,n=4
         2 000032   000037 600000 2                  TZE     s:4210
         2 000033   040000 106500                    CMPC    fill='040'O
         2 000034   100022 000036                    ADSC9   18,,PR1                  cn=0,n=30
         2 000035   000022 000004 1                  ADSC9   DBCBEIS+11               cn=0,n=4
PL6.E3A0      #001=ZIM$HEREIAM File=ZIM$HEREIAM.:ZIC0TSI                         FRI 09/05/97 12:56 Page:23
         2 000036   000043 601000 2                  TNZ     s:4212

       64     4210    1           GLOBAL.DB.FLAGS.SYSSUB(GLOBAL.ACTIVE.DBNO)='1'B;

   4210  2 000037   000002 235100                    LDA     2,,PR0
         2 000040   400000 236003                    LDQ     -131072,DU
         2 000041   000167 256105                    ORSQ    119,AL,PR0
         2 000042   000046 710000 2                  TRA     s:4213

       65     4211    1       ELSE
       66     4212    1           GLOBAL.DB.FLAGS.SYSSUB(GLOBAL.ACTIVE.DBNO)='0'B;

   4212  2 000043   000002 235100                    LDA     2,,PR0
         2 000044   000002 236000 3                  LDQ     2
         2 000045   000167 356105                    ANSQ    119,AL,PR0

       67     4213    1       CALL GETSSS ALTRET(ER_RDY); /* Read in schema subset */

   4213  2 000046   000172 701000 2                  TSX1    GETSSS
         2 000047   000070 702000 2                  TSX2    ER_RDY

       68     4214    1       CALL IASSCHK ALTRET(ER_RDY); /* Check corr of IA and SSS */

   4214  2 000050   000600 701000 2                  TSX1    IASSCHK
         2 000051   000070 702000 2                  TSX2    ER_RDY

       69     4215    1       CALL BINDUPT; /* Bind RVA */

   4215  2 000052   000116 701000 2                  TSX1    BINDUPT
         2 000053   000000 011000                    NOP     0

       70     4216    1       CALL BINDRVA ALTRET(ER_RDY); /* Bind rva */

   4216  2 000054   000751 701000 2                  TSX1    BINDRVA
         2 000055   000070 702000 2                  TSX2    ER_RDY

       71     4217    1       CALL GETDBCB ALTRET(ER_RDY); /* Build dbcb */
PL6.E3A0      #001=ZIM$HEREIAM File=ZIM$HEREIAM.:ZIC0TSI                         FRI 09/05/97 12:56 Page:24

   4217  2 000056   001024 701000 2                  TSX1    GETDBCB
         2 000057   000070 702000 2                  TSX2    ER_RDY

       72     4218    1       GLOBAL.DB.COUNT=GLOBAL.DB.COUNT+1;

   4218  2 000060   000000 470400 xsym               LDP0    GLOBAL$
         2 000061   000075 235100                    LDA     61,,PR0
         2 000062   000001 035007                    ADLA    1,DL
         2 000063   000075 755100                    STA     61,,PR0

       73     4219    1       CALL ZIB$FIXREGS;

   4219  2 000064   000000 631400 3                  EPPR1   0
         2 000065   000000 701000 xent               TSX1    ZIB$FIXREGS
         2 000066   000000 011000                    NOP     0

       74     4220    1       RETURN;

   4220  2 000067   000000 702200 xent               TSX2  ! X66_ARET

       75     4221    1   ER_RDY: IF GLOBAL.VLP$->VLP$VECTOR.PTR$~=ADDR(NIL) THEN

   4221  2 000070   000000 470400 xsym  ER_RDY       LDP0    GLOBAL$
         2 000071   005112 471500                    LDP1    2634,,PR0
         2 000072   100001 236100                    LDQ     1,,PR1
         2 000073   000001 116000 3                  CMPQ    1
         2 000074   000103 600000 2                  TZE     s:4224

       76     4222        /*          Memory has been allocated.  Release it. */
       77     4223    1           CALL ZIO$FREESEG(GLOBAL.VLP$->VLP$VECTOR.PTR$);

   4223  2 000075   100001 633500                    EPPR3   1,,PR1
         2 000076   200040 453500                    STP3    DBCBSW+2,,AUTO
         2 000077   200040 630500                    EPPR0   DBCBSW+2,,AUTO
         2 000100   000003 631400 3                  EPPR1   3
         2 000101   000000 701000 xent               TSX1    ZIO$FREESEG
PL6.E3A0      #001=ZIM$HEREIAM File=ZIM$HEREIAM.:ZIC0TSI                         FRI 09/05/97 12:56 Page:25
         2 000102   000000 011000                    NOP     0

       78     4224    1       IF GLOBAL.DB.SSS$(GLOBAL.ACTIVE.DBNO)~=ADDR(NIL) THEN

   4224  2 000103   000000 470400 xsym               LDP0    GLOBAL$
         2 000104   000002 235100                    LDA     2,,PR0
         2 000105   000153 236105                    LDQ     107,AL,PR0
         2 000106   000001 116000 3                  CMPQ    1
         2 000107   000113 600000 2                  TZE     ER_RRDY

       79     4225    1           CALL ZIO$FREESSN;

   4225  2 000110   000000 631400 3                  EPPR1   0
         2 000111   000000 701000 xent               TSX1    ZIO$FREESSN
         2 000112   000000 011000                    NOP     0

       80     4226    1   ER_RRDY: GLOBAL.ACTIVE.DBNO=0;

   4226  2 000113   000000 470400 xsym  ER_RRDY      LDP0    GLOBAL$
         2 000114   000002 450100                    STZ     2,,PR0

       81     4227    1   ER: ALTRETURN;

   4227  2 000115   000000 702200 xent  ER           TSX2  ! X66_AALT

       82     4228        %EJECT;
PL6.E3A0      #001=ZIM$HEREIAM File=ZIM$HEREIAM.:ZIC0TSI                         FRI 09/05/97 12:56 Page:26
       83     4229    1   BINDUPT: PROC;

   4229  2 000116   200022 741300       BINDUPT      STX1  ! F$DCB$+1,,AUTO

       84     4230    2   DCL I SBIN(36) ALIGNED;
       85     4231    2   DCL COUNT SBIN(36) ALIGNED;
       86     4232    2   DCL RFTBL(0:4) SBIN(36) INIT(0,2,3,6,1) CONSTANT;
       87     4233    2       IF UPT.W1.BOUND~=1 THEN

   4233  2 000117   000000 470400 xsym               LDP0    UPT$
         2 000120   000000 236100                    LDQ     0,,PR0
         2 000121   400000 376003                    ANQ     -131072,DU
         2 000122   000004 676000 3                  ERQ     4
         2 000123   000001 036007                    ADLQ    1,DL
         2 000124   400000 116003                    CMPQ    -131072,DU
         2 000125   000170 600000 2                  TZE     s:4244

       88     4234    3       DO;

       89     4235    3           COUNT=UPT.W1.COUNT-1;

   4235  2 000126   000000 236100                    LDQ     0,,PR0
         2 000127   000022 772000                    QRL     18
         2 000130   377777 376007                    ANQ     131071,DL
         2 000131   000001 136007                    SBLQ    1,DL
         2 000132   200024 756100                    STQ     COUNT,,AUTO

       90     4236    4           DO I=0 TO COUNT;

   4236  2 000133   200023 450100                    STZ     I,,AUTO
         2 000134   000162 710000 2                  TRA     s:4241+1

       91     4237    4               UPT.UPTE.UCW.PT(I)=RFTBL(UPT.UPTE.UCW.PT(I));

   4237  2 000135   200023 235100                    LDA     I,,AUTO
         2 000136   000001 735000                    ALS     1
         2 000137   000000 470400 xsym               LDP0    UPT$
PL6.E3A0      #001=ZIM$HEREIAM File=ZIM$HEREIAM.:ZIC0TSI                         FRI 09/05/97 12:56 Page:27
         2 000140   000001 236105                    LDQ     1,AL,PR0
         2 000141   000033 772000                    QRL     27
         2 000142   000000 236006 1                  LDQ     RFTBL,QL
         2 000143   000033 736000                    QLS     27
         2 000144   000001 676105                    ERQ     1,AL,PR0
         2 000145   777000 376003                    ANQ     -512,DU
         2 000146   000001 656105                    ERSQ    1,AL,PR0

       92     4238    4               IF UPT.UPTE.UCW.PT(I)~=6 THEN

   4238  2 000147   000000 470400 xsym               LDP0    UPT$
         2 000150   000001 236105                    LDQ     1,AL,PR0
         2 000151   777000 376003                    ANQ     -512,DU
         2 000152   006000 116003                    CMPQ    3072,DU
         2 000153   000161 600000 2                  TZE     s:4241

       93     4239    4                   IF UPT.UPTE.UCW.A(I)~=0 THEN

   4239  2 000154   000001 720105                    LXL0    1,AL,PR0
         2 000155   000161 600000 2                  TZE     s:4241

       94     4240    4                       UPT.UPTE.UCW.A(I)=RVA.RVE.NAME(UPT.UPTE.UCW.A(I)-1);

   4240  2 000156   000000 471400 xsym               LDP1    RVA$
         2 000157   100000 721110                    LXL1    0,X0,PR1
         2 000160   000001 441105                    SXL1    1,AL,PR0

       95     4241    4               END;

   4241  2 000161   200023 054100                    AOS     I,,AUTO
         2 000162   200023 236100                    LDQ     I,,AUTO
         2 000163   200024 116100                    CMPQ    COUNT,,AUTO
         2 000164   000135 604400 2                  TMOZ    s:4237

       96     4242    3           UPT.W1.BOUND=1;

   4242  2 000165   000000 470400 xsym               LDP0    UPT$
PL6.E3A0      #001=ZIM$HEREIAM File=ZIM$HEREIAM.:ZIC0TSI                         FRI 09/05/97 12:56 Page:28
         2 000166   400000 236003                    LDQ     -131072,DU
         2 000167   000000 256100                    ORSQ    0,,PR0

       97     4243    3           END;

       98     4244    2       RETURN;

   4244  2 000170   200022 221300                    LDX1  ! F$DCB$+1,,AUTO
         2 000171   000001 702211                    TSX2  ! 1,X1

       99     4245    2   END BINDUPT;
      100     4246        %EJECT;
PL6.E3A0      #001=ZIM$HEREIAM File=ZIM$HEREIAM.:ZIC0TSI                         FRI 09/05/97 12:56 Page:29
      101     4247    1   GETSSS: PROC ALTRET;

   4247  2 000172   200022 741300       GETSSS       STX1  ! F$DCB$+1,,AUTO

      102     4248    2   DCL B$DS3$ PTR SYMREF;
      103     4249    2   DCL B$DS5$ PTR SYMREF;
      104     4250    2   DCL B$DS7$ PTR SYMREF;
      105     4251    2   DCL ZI_SSACCT CHAR(8) CONSTANT SYMDEF INIT(':SYS    ');
      106     4252    2       GLOBAL.DCBNAME.TEXT=IA.SSNAME;

   4252  2 000173   000000 470400 xsym               LDP0    IA$
         2 000174   000000 471400 xsym               LDP1    GLOBAL$
         2 000175   040100 100500                    MLR     fill='040'O
         2 000176   000022 000036                    ADSC9   18,,PR0                  cn=0,n=30
         2 000177   104734 200037                    ADSC9   2524,,PR1                cn=1,n=31

      107     4253    2       GLOBAL.DCBNAME.LENGTH=30;

   4253  2 000200   036000 236003                    LDQ     15360,DU
         2 000201   104734 552140                    STBQ    2524,'40'O,PR1

      108     4254    3       DO WHILE (IA.SSNCHAR(GLOBAL.DCBNAME.LENGTH-1)=' ');

   4254  2 000202   104734 236100                    LDQ     2524,,PR1
         2 000203   000033 772000                    QRL     27
         2 000204   040000 106506                    CMPC    fill='040'O
         2 000205   000021 600001                    ADSC9   17,Q,PR0                 cn=3,n=1
         2 000206   000005 000001 3                  ADSC9   5                        cn=0,n=1
         2 000207   000227 601000 2                  TNZ     s:4259

      109     4255    3           GLOBAL.DCBNAME.LENGTH=GLOBAL.DCBNAME.LENGTH-1;

   4255  2 000210   000000 470400 xsym               LDP0    GLOBAL$
         2 000211   004734 236100                    LDQ     2524,,PR0
         2 000212   777000 036003                    ADLQ    -512,DU
         2 000213   004734 552140                    STBQ    2524,'40'O,PR0

PL6.E3A0      #001=ZIM$HEREIAM File=ZIM$HEREIAM.:ZIC0TSI                         FRI 09/05/97 12:56 Page:30
      110     4256    3           IF GLOBAL.DCBNAME.LENGTH = 1 THEN

   4256  2 000214   004734 236100                    LDQ     2524,,PR0
         2 000215   777000 376003                    ANQ     -512,DU
         2 000216   001000 116003                    CMPQ    512,DU
         2 000217   000536 600000 2                  TZE     ER_LENGTH

      111     4257    3               GOTO ER_LENGTH;
      112     4258    3           END;

   4258  2 000220   004734 236100                    LDQ     2524,,PR0
         2 000221   000033 772000                    QRL     27
         2 000222   000000 471400 xsym               LDP1    IA$
         2 000223   040000 106506                    CMPC    fill='040'O
         2 000224   100021 600001                    ADSC9   17,Q,PR1                 cn=3,n=1
         2 000225   000005 000001 3                  ADSC9   5                        cn=0,n=1
         2 000226   000210 600000 2                  TZE     s:4255

      113     4259    2       FPT$=GLOBAL.GETDCB$;

   4259  2 000227   000000 470400 xsym               LDP0    GLOBAL$
         2 000230   005104 236100                    LDQ     2628,,PR0
         2 000231   200020 756100                    STQ     FPT$,,AUTO

      114     4260    3       IF GLOBAL.DB.FLAGS.SYSSUB(GLOBAL.ACTIVE.DBNO)='1'B THEN DO;

   4260  2 000232   000002 235100                    LDA     2,,PR0
         2 000233   000167 234105                    SZN     119,AL,PR0
         2 000234   000273 605000 2                  TPL     s:4269

      115     4261    3           FPT$GETDCB.V.TEST#=%NO#;

   4261  2 000235   200020 471500                    LDP1    FPT$,,AUTO
         2 000236   000006 236000 3                  LDQ     6
         2 000237   100006 356100                    ANSQ    6,,PR1

      116     4262    3           CALL M$GETDCB(FPT$GETDCB) ALTRET(ER_GDCB);
PL6.E3A0      #001=ZIM$HEREIAM File=ZIM$HEREIAM.:ZIC0TSI                         FRI 09/05/97 12:56 Page:31

   4262  2 000240   100000 630500                    EPPR0   0,,PR1
         2 000241   460002 713400                    CLIMB   alt,+24578
         2 000242   401000 401760                    pmme    nvectors=3
         2 000243   000541 702000 2                  TSX2    ER_GDCB

      117     4263    3           F$DCB$=DCBADDR(GLOBAL.DCBNUMBER);

   4263  2 000244   000007 470400 3                  LDP0    7
         2 000245   000000 471500                    LDP1    0,,PR0
         2 000246   000000 473400 xsym               LDP3    GLOBAL$
         2 000247   304623 720100                    LXL0    2451,,PR3
         2 000250   100000 236110                    LDQ     0,X0,PR1
         2 000251   200021 756100                    STQ     F$DCB$,,AUTO

      118     4264    3           GLOBAL.FILENAME.LENGTH=GLOBAL.DCBNAME.LENGTH+2;

   4264  2 000252   304734 236100                    LDQ     2524,,PR3
         2 000253   000033 772000                    QRL     27
         2 000254   000002 036007                    ADLQ    2,DL
         2 000255   000033 736000                    QLS     27
         2 000256   304724 552140                    STBQ    2516,'40'O,PR3

      119     4265    3           CALL CONCAT(GLOBAL.FILENAME.TEXT,'DB',IA.SSNAME);

   4265  2 000257   000023 236000 1                  LDQ     DBCBEIS+12
         2 000260   000011 772000                    QRL     9
         2 000261   304724 552130                    STBQ    2516,'30'O,PR3
         2 000262   000000 474400 xsym               LDP4    IA$
         2 000263   040100 100500                    MLR     fill='040'O
         2 000264   400022 000035                    ADSC9   18,,PR4                  cn=0,n=29
         2 000265   304724 600035                    ADSC9   2516,,PR3                cn=3,n=29

      120     4266    3           GLOBAL.ACCT=ZI_SSACCT;

   4266  2 000266   000000 470400 xsym               LDP0    GLOBAL$
         2 000267   040100 100400                    MLR     fill='040'O
PL6.E3A0      #001=ZIM$HEREIAM File=ZIM$HEREIAM.:ZIC0TSI                         FRI 09/05/97 12:56 Page:32
         2 000270   000005 000010 1                  ADSC9   ZI_SSACCT                cn=0,n=8
         2 000271   004744 000010                    ADSC9   2532,,PR0                cn=0,n=8

      121     4267    3           END;

   4267  2 000272   000400 710000 2                  TRA     s:4300

      122     4268    3       ELSE DO;

      123     4269    3           FPT$GETDCB.V.TEST#=%YES#;

   4269  2 000273   200020 471500                    LDP1    FPT$,,AUTO
         2 000274   200000 236007                    LDQ     65536,DL
         2 000275   100006 256100                    ORSQ    6,,PR1

      124     4270    3           FPT$GETDCB.V.MERGE#=%YES#;

   4270  2 000276   400000 236007                    LDQ     -131072,DL
         2 000277   100006 256100                    ORSQ    6,,PR1

      125     4271    3           CALL M$GETDCB(FPT$GETDCB)

   4271  2 000300   100000 630500                    EPPR0   0,,PR1
         2 000301   460002 713400                    CLIMB   alt,+24578
         2 000302   401000 401760                    pmme    nvectors=3
         2 000303   000305 702000 2                  TSX2    s:4273
         2 000304   000311 710000 2                  TRA     s:4276

      126     4272    4           WHENALTRETURN DO;

      127     4273    4               FPT$GETDCB.V.MERGE#=%NO#;

   4273  2 000305   200020 470500                    LDP0    FPT$,,AUTO
         2 000306   000010 236000 3                  LDQ     8
         2 000307   000006 356100                    ANSQ    6,,PR0

      128     4274    4               GOTO ER_GDCB;
PL6.E3A0      #001=ZIM$HEREIAM File=ZIM$HEREIAM.:ZIC0TSI                         FRI 09/05/97 12:56 Page:33

   4274  2 000310   000541 710000 2                  TRA     ER_GDCB

      129     4275    4               END;
      130     4276    3           FPT$GETDCB.V.MERGE#=%NO#;

   4276  2 000311   200020 470500                    LDP0    FPT$,,AUTO
         2 000312   000010 236000 3                  LDQ     8
         2 000313   000006 356100                    ANSQ    6,,PR0

      131     4277    4           IF GLOBAL.DCBNUMBER=0 THEN DO;

   4277  2 000314   000000 471400 xsym               LDP1    GLOBAL$
         2 000315   104623 235100                    LDA     2451,,PR1
         2 000316   000365 601000 2                  TNZ     s:4295

      132     4278    4               FPT$GETDCB.V.TEST#=%NO#;

   4278  2 000317   000006 236000 3                  LDQ     6
         2 000320   000006 356100                    ANSQ    6,,PR0

      133     4279    4               FPT$GETDCB.V.MERGE#=%YES#;

   4279  2 000321   400000 236007                    LDQ     -131072,DL
         2 000322   000006 256100                    ORSQ    6,,PR0

      134     4280    4               CALL M$GETDCB(FPT$GETDCB)

   4280  2 000323   460002 713400                    CLIMB   alt,+24578
         2 000324   401000 401760                    pmme    nvectors=3
         2 000325   000327 702000 2                  TSX2    s:4282
         2 000326   000333 710000 2                  TRA     s:4285

      135     4281    5               WHENALTRETURN DO;

      136     4282    5                   FPT$GETDCB.V.MERGE#=%NO#;

PL6.E3A0      #001=ZIM$HEREIAM File=ZIM$HEREIAM.:ZIC0TSI                         FRI 09/05/97 12:56 Page:34
   4282  2 000327   200020 470500                    LDP0    FPT$,,AUTO
         2 000330   000010 236000 3                  LDQ     8
         2 000331   000006 356100                    ANSQ    6,,PR0

      137     4283    5                   GOTO ER_GDCB;

   4283  2 000332   000541 710000 2                  TRA     ER_GDCB

      138     4284    5                   END;
      139     4285    4               FPT$GETDCB.V.MERGE#=%NO#;

   4285  2 000333   200020 470500                    LDP0    FPT$,,AUTO
         2 000334   000010 236000 3                  LDQ     8
         2 000335   000006 356100                    ANSQ    6,,PR0

      140     4286    4               F$DCB$=DCBADDR(GLOBAL.DCBNUMBER);

   4286  2 000336   000007 471400 3                  LDP1    7
         2 000337   100000 473500                    LDP3    0,,PR1
         2 000340   000000 474400 xsym               LDP4    GLOBAL$
         2 000341   404623 720100                    LXL0    2451,,PR4
         2 000342   300000 236110                    LDQ     0,X0,PR3
         2 000343   200021 756100                    STQ     F$DCB$,,AUTO

      141     4287    4               GLOBAL.FILENAME=GLOBAL.DCBNAME;

   4287  2 000344   000100 100500                    MLR     fill='000'O
         2 000345   404734 000040                    ADSC9   2524,,PR4                cn=0,n=32
         2 000346   404724 000040                    ADSC9   2516,,PR4                cn=0,n=32

      142     4288    4               IF F$DCB.NAME#.L=0 THEN

   4288  2 000347   200021 470500                    LDP0    F$DCB$,,AUTO
         2 000350   000010 236100                    LDQ     8,,PR0
         2 000351   777000 316003                    CANQ    -512,DU
         2 000352   000357 601000 2                  TNZ     s:4291

PL6.E3A0      #001=ZIM$HEREIAM File=ZIM$HEREIAM.:ZIC0TSI                         FRI 09/05/97 12:56 Page:35
      143     4289    4                   GLOBAL.FILENAME=GLOBAL.DCBNAME;

   4289  2 000353   000100 100500                    MLR     fill='000'O
         2 000354   404734 000040                    ADSC9   2524,,PR4                cn=0,n=32
         2 000355   404724 000040                    ADSC9   2516,,PR4                cn=0,n=32
         2 000356   000362 710000 2                  TRA     s:4292

      144     4290    4               ELSE
      145     4291    4                   GLOBAL.FILENAME=F$DCB.NAME#;

   4291  2 000357   000100 100500                    MLR     fill='000'O
         2 000360   000010 000040                    ADSC9   8,,PR0                   cn=0,n=32
         2 000361   404724 000040                    ADSC9   2516,,PR4                cn=0,n=32

      146     4292    4               GLOBAL.ACCT=F$DCB$->F$DCB.ACCT#;

   4292  2 000362   000020 237100                    LDAQ    16,,PR0
         2 000363   404744 757100                    STAQ    2532,,PR4

      147     4293    4               END;

   4293  2 000364   000400 710000 2                  TRA     s:4300

      148     4294    4           ELSE DO;

      149     4295    4               F$DCB$=DCBADDR(GLOBAL.DCBNUMBER);

   4295  2 000365   000007 473400 3                  LDP3    7
         2 000366   300000 474500                    LDP4    0,,PR3
         2 000367   104623 720100                    LXL0    2451,,PR1
         2 000370   400000 236110                    LDQ     0,X0,PR4
         2 000371   200021 756100                    STQ     F$DCB$,,AUTO

      150     4296    4               GLOBAL.FILENAME=F$DCB.NAME#;

   4296  2 000372   200021 470500                    LDP0    F$DCB$,,AUTO
         2 000373   000100 100500                    MLR     fill='000'O
PL6.E3A0      #001=ZIM$HEREIAM File=ZIM$HEREIAM.:ZIC0TSI                         FRI 09/05/97 12:56 Page:36
         2 000374   000010 000040                    ADSC9   8,,PR0                   cn=0,n=32
         2 000375   104724 000040                    ADSC9   2516,,PR1                cn=0,n=32

      151     4297    4               GLOBAL.ACCT=F$DCB.ACCT#;

   4297  2 000376   000020 237100                    LDAQ    16,,PR0
         2 000377   104744 757100                    STAQ    2532,,PR1

      152     4298    4               END;

      153     4299    3           END;

      154     4300    2       IF GLOBAL.FILENAME.LENGTH<31 THEN

   4300  2 000400   000000 470400 xsym               LDP0    GLOBAL$
         2 000401   004724 236100                    LDQ     2516,,PR0
         2 000402   777000 376003                    ANQ     -512,DU
         2 000403   037000 116003                    CMPQ    15872,DU
         2 000404   000410 603000 2                  TRC     s:4302

      155     4301    2           GLOBAL.FILENAME.LENGTH=GLOBAL.FILENAME.LENGTH+1;

   4301  2 000405   004724 236100                    LDQ     2516,,PR0
         2 000406   001000 036003                    ADLQ    512,DU
         2 000407   004724 552140                    STBQ    2516,'40'O,PR0

      156     4302    2       CALL INSERT(GLOBAL.FILENAME.TEXT,

   4302  2 000410   004724 236100                    LDQ     2516,,PR0
         2 000411   000033 772000                    QRL     27
         2 000412   040106 100400                    MLR     fill='040'O
         2 000413   000011 000001 3                  ADSC9   9                        cn=0,n=1
         2 000414   004724 000001                    ADSC9   2516,Q,PR0               cn=0,n=1

      157     4303    2          GLOBAL.FILENAME.LENGTH-1,
      158     4304    2          1,':');
      159     4305    2       FPT$=GLOBAL.OPNSCRB$;
PL6.E3A0      #001=ZIM$HEREIAM File=ZIM$HEREIAM.:ZIC0TSI                         FRI 09/05/97 12:56 Page:37

   4305  2 000415   005070 236100                    LDQ     2616,,PR0
         2 000416   200020 756100                    STQ     FPT$,,AUTO

      160     4306    2       FPT$OPNSCRB.V.DCB#=GLOBAL.DCBNUMBER;

   4306  2 000417   004623 720100                    LXL0    2451,,PR0
         2 000420   200020 471500                    LDP1    FPT$,,AUTO
         2 000421   100044 740100                    STX0    36,,PR1

      161     4307    3       DO CASE(GLOBAL.DB.COUNT);

   4307  2 000422   000075 235100                    LDA     61,,PR0
         2 000423   000003 115007                    CMPA    3,DL
         2 000424   000426 602005 2                  TNC     s:4307+4,AL
         2 000425   000450 710000 2                  TRA     s:4318
         2 000426   000431 710000 2                  TRA     s:4309
         2 000427   000436 710000 2                  TRA     s:4312
         2 000430   000443 710000 2                  TRA     s:4315

      162     4308    3       CASE(0);

      163     4309    3           FPT$OPNSCRB.V.ACS#=%DS3#;

   4309  2 000431   000006 236007                    LDQ     6,DL
         2 000432   100046 552104                    STBQ    38,'04'O,PR1

      164     4310    3           SSS$=B$DS3$;

   4310  2 000433   000000 236000 xsym               LDQ     B$DS3$
         2 000434   200003 756100                    STQ     SSS$,,AUTO
         2 000435   000453 710000 2                  TRA     s:4321

      165     4311    3       CASE(1);

      166     4312    3           FPT$OPNSCRB.V.ACS#=%DS5#;

PL6.E3A0      #001=ZIM$HEREIAM File=ZIM$HEREIAM.:ZIC0TSI                         FRI 09/05/97 12:56 Page:38
   4312  2 000436   000010 236007                    LDQ     8,DL
         2 000437   100046 552104                    STBQ    38,'04'O,PR1

      167     4313    3           SSS$=B$DS5$;

   4313  2 000440   000000 236000 xsym               LDQ     B$DS5$
         2 000441   200003 756100                    STQ     SSS$,,AUTO
         2 000442   000453 710000 2                  TRA     s:4321

      168     4314    3       CASE(2);

      169     4315    3           FPT$OPNSCRB.V.ACS#=%DS7#;

   4315  2 000443   000012 236007                    LDQ     10,DL
         2 000444   100046 552104                    STBQ    38,'04'O,PR1

      170     4316    3           SSS$=B$DS7$;

   4316  2 000445   000000 236000 xsym               LDQ     B$DS7$
         2 000446   200003 756100                    STQ     SSS$,,AUTO
         2 000447   000453 710000 2                  TRA     s:4321

      171     4317    3       CASE(ELSE);

      172     4318    3           ERROR=ERR#SS#SEG; /* CANNOT HANDLER 4 OR MORE DB */

   4318  2 000450   210766 235007                    LDA     70134,DL
         2 000451   200014 755100                    STA     ERROR,,AUTO

      173     4319    3           GOTO ALT;

   4319  2 000452   000555 710000 2                  TRA     ALT

      174     4320    3           END;

      175     4321    2       FPT$OPNSCRB.V.ORG#=%RANDOM#;

PL6.E3A0      #001=ZIM$HEREIAM File=ZIM$HEREIAM.:ZIC0TSI                         FRI 09/05/97 12:56 Page:39
   4321  2 000453   003000 236007                    LDQ     1536,DL
         2 000454   100046 552110                    STBQ    38,'10'O,PR1

      176     4322    2       FPT$OPNSCRB.V.SHARE#=%IN#;

   4322  2 000455   100044 236100                    LDQ     36,,PR1
         2 000456   000012 376000 3                  ANQ     10
         2 000457   000020 276007                    ORQ     16,DL
         2 000460   100044 756100                    STQ     36,,PR1

      177     4323    2       FPT$OPNSCRB.V.FUN#=%IN#;

   4323  2 000461   002000 236007                    LDQ     1024,DL
         2 000462   100045 552110                    STBQ    37,'10'O,PR1

      178     4324    2       FPT$OPNSCRB.V.INITZ.SCRUB#=%NO#;

   4324  2 000463   000010 236000 3                  LDQ     8
         2 000464   100044 356100                    ANSQ    36,,PR1

      179     4325    2       CALL M$OPEN(FPT$OPNSCRB)

   4325  2 000465   100000 630500                    EPPR0   0,,PR1
         2 000466   450000 713400                    CLIMB   alt,open
         2 000467   410400 401760                    pmme    nvectors=18
         2 000470   000472 702000 2                  TSX2    s:4327
         2 000471   000476 710000 2                  TRA     s:4330

      180     4326    3       WHENALTRETURN DO;

      181     4327    3           FPT$OPNSCRB.V.INITZ.SCRUB#=%YES#;

   4327  2 000472   200020 470500                    LDP0    FPT$,,AUTO
         2 000473   400000 236007                    LDQ     -131072,DL
         2 000474   000044 256100                    ORSQ    36,,PR0

      182     4328    3           GOTO ER_OP;
PL6.E3A0      #001=ZIM$HEREIAM File=ZIM$HEREIAM.:ZIC0TSI                         FRI 09/05/97 12:56 Page:40

   4328  2 000475   000545 710000 2                  TRA     ER_OP

      183     4329    3           END;
      184     4330    2       FPT$OPNSCRB.V.INITZ.SCRUB#=%YES#;

   4330  2 000476   200020 470500                    LDP0    FPT$,,AUTO
         2 000477   400000 236007                    LDQ     -131072,DL
         2 000500   000044 256100                    ORSQ    36,,PR0

      185     4331    2       IF F$DCB$->F$DCB.UOPT#(0) THEN

   4331  2 000501   200021 471500                    LDP1    F$DCB$,,AUTO
         2 000502   100031 236100                    LDQ     25,,PR1
         2 000503   000400 316003                    CANQ    256,DU
         2 000504   000512 600000 2                  TZE     s:4334

      186     4332    2           GLOBAL.DB.FLAGS.NOTRANS(GLOBAL.ACTIVE.DBNO)=%YES#;

   4332  2 000505   000000 473400 xsym               LDP3    GLOBAL$
         2 000506   300002 235100                    LDA     2,,PR3
         2 000507   200000 236003                    LDQ     65536,DU
         2 000510   300167 256105                    ORSQ    119,AL,PR3
         2 000511   000516 710000 2                  TRA     s:4335

      187     4333    2       ELSE
      188     4334    2           GLOBAL.DB.FLAGS.NOTRANS(GLOBAL.ACTIVE.DBNO)=%NO#;

   4334  2 000512   000000 473400 xsym               LDP3    GLOBAL$
         2 000513   300002 235100                    LDA     2,,PR3
         2 000514   000013 236000 3                  LDQ     11
         2 000515   300167 356105                    ANSQ    119,AL,PR3

      189     4335    2       GLOBAL.ACTIVE.SSS$=SSS$;

   4335  2 000516   200003 236100                    LDQ     SSS$,,AUTO
         2 000517   300000 756100                    STQ     0,,PR3
PL6.E3A0      #001=ZIM$HEREIAM File=ZIM$HEREIAM.:ZIC0TSI                         FRI 09/05/97 12:56 Page:41

      190     4336    2       GLOBAL.DB.SSS$(GLOBAL.ACTIVE.DBNO)=SSS$;

   4336  2 000520   300002 235100                    LDA     2,,PR3
         2 000521   300153 756105                    STQ     107,AL,PR3

      191     4337    2       GLOBAL.DB.SSNAME(GLOBAL.ACTIVE.DBNO)=IA.SSNAME;

   4337  2 000522   300002 235100                    LDA     2,,PR3
         2 000523   000044 733000                    LRS     36
         2 000524   000036 402007                    MPY     30,DL
         2 000525   000000 474400 xsym               LDP4    IA$
         2 000526   040106 100500                    MLR     fill='040'O
         2 000527   400022 000036                    ADSC9   18,,PR4                  cn=0,n=30
         2 000530   300076 000036                    ADSC9   62,Q,PR3                 cn=0,n=30

      192     4338    2       SSACCT=F$DCB$->F$DCB.ACCT#;

   4338  2 000531   100020 237100                    LDAQ    16,,PR1
         2 000532   200015 755100                    STA     SSACCT,,AUTO
         2 000533   200016 756100                    STQ     SSACCT+1,,AUTO

      193     4339    2       RETURN;

   4339  2 000534   200022 221300                    LDX1  ! F$DCB$+1,,AUTO
         2 000535   000001 702211                    TSX2  ! 1,X1

      194     4340    2   ER_LENGTH: ERROR=ERR#CM#INNM;

   4340  2 000536   210566 235007       ER_LENGTH    LDA     70006,DL
         2 000537   200014 755100                    STA     ERROR,,AUTO

      195     4341    2       GOTO ALT;

   4341  2 000540   000555 710000 2                  TRA     ALT

   4338  2 000541                       ER_GDCB      null
PL6.E3A0      #001=ZIM$HEREIAM File=ZIM$HEREIAM.:ZIC0TSI                         FRI 09/05/97 12:56 Page:42
      196     4342    2   ER_GDCB: ;
      197     4343    2       GLOBAL.GETDCB$->FPT$GETDCB.V.MERGE#=%NO#;

   4343  2 000541   000000 470400 xsym               LDP0    GLOBAL$
         2 000542   005104 471500                    LDP1    2628,,PR0
         2 000543   000010 236000 3                  LDQ     8
         2 000544   100006 356100                    ANSQ    6,,PR1

      198     4344    2   ER_OP: ERROR=ERR#LC#05;

   4344  2 000545   210653 235007       ER_OP        LDA     70059,DL
         2 000546   200014 755100                    STA     ERROR,,AUTO

      199     4345    2       GLOBAL.RET.SYSERR#=B$TCB$->B$TCB.ALT$->B$ALT.ERR;

   4345  2 000547   000000 470400 xsym               LDP0    B$TCB$
         2 000550   000000 471500                    LDP1    0,,PR0
         2 000551   100102 236100                    LDQ     66,,PR1
         2 000552   000000 473400 xsym               LDP3    GLOBAL$
         2 000553   300007 756100                    STQ     7,,PR3

      200     4346    2       GOTO ALT;

   4346  2 000554   000555 710000 2                  TRA     ALT

   4345  2 000555                       ALT          null
      201     4347    2   ALT: ;
      202     4348            %DBALT;

   4349  2 000555   000000 470400 xsym               LDP0    GLOBAL$
         2 000556   000006 235100                    LDA     6,,PR0
         2 000557   000566 601000 2                  TNZ     s:4357

   4351  2 000560   000010 450100                    STZ     8,,PR0

   4352  2 000561   000012 450100                    STZ     10,,PR0

PL6.E3A0      #001=ZIM$HEREIAM File=ZIM$HEREIAM.:ZIC0TSI                         FRI 09/05/97 12:56 Page:43
   4353  2 000562   000013 450100                    STZ     11,,PR0

   4354  2 000563   000011 450100                    STZ     9,,PR0

   4355  2 000564   200014 236100                    LDQ     ERROR,,AUTO
         2 000565   000006 756100                    STQ     6,,PR0

   4357  2 000566   000006 235100                    LDA     6,,PR0
         2 000567   303240 115007                    CMPA    100000,DL
         2 000570   000573 603000 2                  TRC     s:4360

   4358  2 000571   200022 221300                    LDX1  ! F$DCB$+1,,AUTO
         2 000572   000000 702211                    TSX2  ! 0,X1

   4360  2 000573   000000 631400 3                  EPPR1   0
         2 000574   000000 701000 xent               TSX1    ZIB$ERR
         2 000575   000000 011000                    NOP     0

      203     4362    2   END GETSSS;

   4362  2 000576   200022 221300                    LDX1  ! F$DCB$+1,,AUTO
         2 000577   000001 702211                    TSX2  ! 1,X1

      204     4363        %EJECT;
PL6.E3A0      #001=ZIM$HEREIAM File=ZIM$HEREIAM.:ZIC0TSI                         FRI 09/05/97 12:56 Page:44
      205     4364    1   IASSCHK: PROC ALTRET;

   4364  2 000600   200022 741300       IASSCHK      STX1  ! F$DCB$+1,,AUTO

      206     4365    2       SSS$=GLOBAL.ACTIVE.SSS$;

   4365  2 000601   000000 470400 xsym               LDP0    GLOBAL$
         2 000602   000000 236100                    LDQ     0,,PR0
         2 000603   200003 756100                    STQ     SSS$,,AUTO

      207     4366    2       OA$=PINCRW(SSS$,SIZEW(OA1));

   4366  2 000604   000001 036003                    ADLQ    1,DU
         2 000605   200004 756100                    STQ     OA$,,AUTO

      208     4367    3       DO CASE(IA.EC);

   4367  2 000606   000000 471400 xsym               LDP1    IA$
         2 000607   100052 235100                    LDA     42,,PR1
         2 000610   000010 115007                    CMPA    8,DL
         2 000611   000613 602005 2                  TNC     s:4367+5,AL
         2 000612   000637 710000 2                  TRA     s:4377
         2 000613   000637 710000 2                  TRA     s:4377
         2 000614   000637 710000 2                  TRA     s:4377
         2 000615   000637 710000 2                  TRA     s:4377
         2 000616   000623 710000 2                  TRA     s:4369
         2 000617   000637 710000 2                  TRA     s:4377
         2 000620   000626 710000 2                  TRA     s:4371
         2 000621   000631 710000 2                  TRA     s:4373
         2 000622   000634 710000 2                  TRA     s:4375

      209     4368    3       CASE(%EC_FORTRAN#);

      210     4369    3           GLOBAL.STYPE=%FORTRAN_IDS#;

   4369  2 000623   000024 236000 1                  LDQ     DBCBEIS+13
         2 000624   005010 756100                    STQ     2568,,PR0
PL6.E3A0      #001=ZIM$HEREIAM File=ZIM$HEREIAM.:ZIC0TSI                         FRI 09/05/97 12:56 Page:45
         2 000625   000640 710000 2                  TRA     s:4379

      211     4370    3       CASE(%EC_APL#);

      212     4371    3           GLOBAL.STYPE=%APL_IDS#;

   4371  2 000626   000025 236000 1                  LDQ     DBCBEIS+14
         2 000627   005010 756100                    STQ     2568,,PR0
         2 000630   000640 710000 2                  TRA     s:4379

      213     4372    3       CASE(%EC_BASIC#);

      214     4373    3           GLOBAL.STYPE=%BASIC_IDS#;

   4373  2 000631   000026 236000 1                  LDQ     DBCBEIS+15
         2 000632   005010 756100                    STQ     2568,,PR0
         2 000633   000640 710000 2                  TRA     s:4379

      215     4374    3       CASE(%EC_IDP#);

      216     4375    3           GLOBAL.STYPE=%IDP_IDS#;

   4375  2 000634   000027 236000 1                  LDQ     DBCBEIS+16
         2 000635   005010 756100                    STQ     2568,,PR0
         2 000636   000640 710000 2                  TRA     s:4379

      217     4376    3       CASE(ELSE);

      218     4377    3           GLOBAL.STYPE='0'B;

   4377  2 000637   005010 450100                    STZ     2568,,PR0

      219     4378    3           END;

      220     4379    2       IF GLOBAL.STYPE~='0'B THEN

   4379  2 000640   005010 235100                    LDA     2568,,PR0
PL6.E3A0      #001=ZIM$HEREIAM File=ZIM$HEREIAM.:ZIC0TSI                         FRI 09/05/97 12:56 Page:46
         2 000641   000647 600000 2                  TZE     s:4381

      221     4380    2           CALL M$MONINFO(GLOBAL.MONINFO$->FPT$MONINFO) ALTRET(ER_NPAID);

   4380  2 000642   005126 473500                    LDP3    2646,,PR0
         2 000643   300000 630500                    EPPR0   0,,PR3
         2 000644   420023 713400                    CLIMB   alt,+8211
         2 000645   402400 401760                    pmme    nvectors=6
         2 000646   000716 702000 2                  TSX2    ER_NPAID

      222     4381    2       IF SUBSTR(PINCRW(OA$,SIZEW(OA))->SSNAME,0,

   4381  2 000647   200004 470500                    LDP0    OA$,,AUTO
         2 000650   000004 720100                    LXL0    4,,PR0
         2 000651   007777 360003                    ANX0    4095,DU
         2 000652   000124 621010                    EAX1    84,X0
         2 000653   000000 636011                    EAQ     0,X1
         2 000654   000022 772000                    QRL     18
         2 000655   000011 402007                    MPY     9,DL
         2 000656   000043 036007                    ADLQ    35,DL
         2 000657   000044 506007                    DIV     36,DL
         2 000660   000005 720100                    LXL0    5,,PR0
         2 000661   007777 360003                    ANX0    4095,DU
         2 000662   000002 736000                    QLS     2
         2 000663   000000 471400 xsym               LDP1    IA$
         2 000664   040100 106546                    CMPC    fill='040'O
         2 000665   000000 000010                    ADSC9   0,Q,PR0                  cn=0,n=*X0
         2 000666   100022 000036                    ADSC9   18,,PR1                  cn=0,n=30
         2 000667   000721 601000 2                  TNZ     ER_NAME

      223     4382    2          OA.SSNAM.EIS.COUNT)~=IA.SSNAME THEN
      224     4383    2           GOTO ER_NAME;
      225     4384    2       IF GLOBAL.DB.FLAGS.SYSSUB(GLOBAL.ACTIVE.DBNO)=%NO# THEN

   4384  2 000670   000000 473400 xsym               LDP3    GLOBAL$
         2 000671   300002 235100                    LDA     2,,PR3
         2 000672   300167 234105                    SZN     119,AL,PR3
PL6.E3A0      #001=ZIM$HEREIAM File=ZIM$HEREIAM.:ZIC0TSI                         FRI 09/05/97 12:56 Page:47
         2 000673   000714 604000 2                  TMI     s:4392

      226     4385    3       DO;

      227     4386    3           IF OA.SNAM~=IA.SNAME THEN

   4386  2 000674   000004 720100                    LXL0    4,,PR0
         2 000675   007777 360003                    ANX0    4095,DU
         2 000676   040100 106540                    CMPC    fill='040'O
         2 000677   000025 000010                    ADSC9   21,,PR0                  cn=0,n=*X0
         2 000700   100012 000036                    ADSC9   10,,PR1                  cn=0,n=30
         2 000701   000721 601000 2                  TNZ     ER_NAME

      228     4387    3               GOTO ER_NAME;
      229     4388    3           IF ~GLOBAL.DB.FLAGS.NOTRANS(GLOBAL.ACTIVE.DBNO) AND

   4388  2 000702   300002 235100                    LDA     2,,PR3
         2 000703   300167 236105                    LDQ     119,AL,PR3
         2 000704   000001 736000                    QLS     1
         2 000705   400000 376003                    ANQ     -131072,DU
         2 000706   400000 676003                    ERQ     -131072,DU
         2 000707   000714 600000 2                  TZE     s:4392
         2 000710   040100 106500                    CMPC    fill='040'O
         2 000711   000006 000010                    ADSC9   6,,PR0                   cn=0,n=8
         2 000712   100054 000010                    ADSC9   44,,PR1                  cn=0,n=8
         2 000713   000724 601000 2                  TNZ     ER_DATE

      230     4389    3              OA.SSDT~=IA.SSDT THEN
      231     4390    3               GOTO ER_DATE;
      232     4391    3           END;

      233     4392    2       RETURN;

   4392  2 000714   200022 221300                    LDX1  ! F$DCB$+1,,AUTO
         2 000715   000001 702211                    TSX2  ! 1,X1

      234     4393    2   ER_NPAID: ERROR=ERR#CM#NPAID;
PL6.E3A0      #001=ZIM$HEREIAM File=ZIM$HEREIAM.:ZIC0TSI                         FRI 09/05/97 12:56 Page:48

   4393  2 000716   210756 235007       ER_NPAID     LDA     70126,DL
         2 000717   200014 755100                    STA     ERROR,,AUTO

      235     4394    2       GOTO ALT;

   4394  2 000720   000726 710000 2                  TRA     ALT

      236     4395    2   ER_NAME: ERROR=ERR#CM#INNM;

   4395  2 000721   210566 235007       ER_NAME      LDA     70006,DL
         2 000722   200014 755100                    STA     ERROR,,AUTO

      237     4396    2       GOTO ALT;

   4396  2 000723   000726 710000 2                  TRA     ALT

      238     4397    2   ER_DATE: ERROR=ERR#CM#INSS;

   4397  2 000724   210567 235007       ER_DATE      LDA     70007,DL
         2 000725   200014 755100                    STA     ERROR,,AUTO

   4389  2 000726                       ALT          null
      239     4398    2   ALT: ;
      240     4399            %DBALT;

   4400  2 000726   000000 470400 xsym               LDP0    GLOBAL$
         2 000727   000006 235100                    LDA     6,,PR0
         2 000730   000737 601000 2                  TNZ     s:4408

   4402  2 000731   000010 450100                    STZ     8,,PR0

   4403  2 000732   000012 450100                    STZ     10,,PR0

   4404  2 000733   000013 450100                    STZ     11,,PR0

   4405  2 000734   000011 450100                    STZ     9,,PR0
PL6.E3A0      #001=ZIM$HEREIAM File=ZIM$HEREIAM.:ZIC0TSI                         FRI 09/05/97 12:56 Page:49

   4406  2 000735   200014 236100                    LDQ     ERROR,,AUTO
         2 000736   000006 756100                    STQ     6,,PR0

   4408  2 000737   000006 235100                    LDA     6,,PR0
         2 000740   303240 115007                    CMPA    100000,DL
         2 000741   000744 603000 2                  TRC     s:4411

   4409  2 000742   200022 221300                    LDX1  ! F$DCB$+1,,AUTO
         2 000743   000000 702211                    TSX2  ! 0,X1

   4411  2 000744   000000 631400 3                  EPPR1   0
         2 000745   000000 701000 xent               TSX1    ZIB$ERR
         2 000746   000000 011000                    NOP     0

      241     4413    2   END IASSCHK;

   4413  2 000747   200022 221300                    LDX1  ! F$DCB$+1,,AUTO
         2 000750   000001 702211                    TSX2  ! 1,X1

      242     4414        %EJECT;
PL6.E3A0      #001=ZIM$HEREIAM File=ZIM$HEREIAM.:ZIC0TSI                         FRI 09/05/97 12:56 Page:50
      243     4415    1   BINDRVA: PROC ALTRET;

   4415  2 000751   200022 741300       BINDRVA      STX1  ! F$DCB$+1,,AUTO

      244     4416    2   DCL I SBIN(36) ALIGNED;
      245     4417    2   DCL COUNT SBIN(36) ALIGNED;
      246     4418    2   DCL ZIP$DBFSE ENTRY ALTRET;
      247     4419    2       IF RVA.W1.BOUND~=1 THEN

   4419  2 000752   000000 470400 xsym               LDP0    RVA$
         2 000753   000000 236100                    LDQ     0,,PR0
         2 000754   400000 376003                    ANQ     -131072,DU
         2 000755   000004 676000 3                  ERQ     4
         2 000756   000001 036007                    ADLQ    1,DL
         2 000757   400000 116003                    CMPQ    -131072,DU
         2 000760   001020 600000 2                  TZE     s:4445

      248     4420    3       DO;

      249     4421    3           COUNT=RVA.W1.COUNT-1;

   4421  2 000761   000000 236100                    LDQ     0,,PR0
         2 000762   000022 772000                    QRL     18
         2 000763   377777 376007                    ANQ     131071,DL
         2 000764   000001 136007                    SBLQ    1,DL
         2 000765   200024 756100                    STQ     COUNT,,AUTO

      250     4422    4           DO I=0 TO COUNT;

   4422  2 000766   200023 450100                    STZ     I,,AUTO
         2 000767   001012 710000 2                  TRA     s:4442+1

      251     4423    4               GLOBAL.PARAN.DBFSE.TYPE=RVA.RVE.T(I);

   4423  2 000770   000000 470400 xsym               LDP0    RVA$
         2 000771   200023 720100                    LXL0    I,,AUTO
         2 000772   000001 221110                    LDX1    1,X0,PR0
PL6.E3A0      #001=ZIM$HEREIAM File=ZIM$HEREIAM.:ZIC0TSI                         FRI 09/05/97 12:56 Page:51
         2 000773   000000 471400 xsym               LDP1    GLOBAL$
         2 000774   100037 741100                    STX1    31,,PR1

      252     4424    4               GLOBAL.PARAN.DBFSE.ID=RVA.RVE.NAME(I);

   4424  2 000775   000001 722110                    LXL2    1,X0,PR0
         2 000776   100037 442100                    SXL2    31,,PR1

      253     4425                    %DBCAL(NAME=ZIP$DBFSE,ALT=ER_FSE);

   4429  2 000777   000000 631400 3                  EPPR1   0
         2 001000   000000 701000 xent               TSX1    ZIP$DBFSE
         2 001001   001022 702000 2                  TSX2    ER_FSE

   4430  2 001002   000000 470400 xsym               LDP0    GLOBAL$
         2 001003   000006 235100                    LDA     6,,PR0
         2 001004   001022 601000 2                  TNZ     ER_FSE

      254     4441    4               RVA.RVE.EO(I)=GLOBAL.PARAN.DBFSE.SSOFST;

   4441  2 001005   000040 220100                    LDX0    32,,PR0
         2 001006   000000 471400 xsym               LDP1    RVA$
         2 001007   200023 721100                    LXL1    I,,AUTO
         2 001010   100001 740111                    STX0    1,X1,PR1

      255     4442    4               END;

   4442  2 001011   200023 054100                    AOS     I,,AUTO
         2 001012   200023 236100                    LDQ     I,,AUTO
         2 001013   200024 116100                    CMPQ    COUNT,,AUTO
         2 001014   000770 604400 2                  TMOZ    s:4423

      256     4443    3           RVA.W1.BOUND=1;

   4443  2 001015   000000 470400 xsym               LDP0    RVA$
         2 001016   400000 236003                    LDQ     -131072,DU
         2 001017   000000 256100                    ORSQ    0,,PR0
PL6.E3A0      #001=ZIM$HEREIAM File=ZIM$HEREIAM.:ZIC0TSI                         FRI 09/05/97 12:56 Page:52

      257     4444    3           END;

      258     4445    2       RETURN;

   4445  2 001020   200022 221300                    LDX1  ! F$DCB$+1,,AUTO
         2 001021   000001 702211                    TSX2  ! 1,X1

      259     4446    2   ER_FSE: ALTRETURN;

   4446  2 001022   200022 221300       ER_FSE       LDX1  ! F$DCB$+1,,AUTO
         2 001023   000000 702211                    TSX2  ! 0,X1

      260     4447    2   END BINDRVA;
      261     4448        %EJECT;
PL6.E3A0      #001=ZIM$HEREIAM File=ZIM$HEREIAM.:ZIC0TSI                         FRI 09/05/97 12:56 Page:53
      262     4449    1   GETDBCB: PROC ALTRET;

   4449  2 001024   200022 741300       GETDBCB      STX1  ! F$DCB$+1,,AUTO

      263     4450    2   DCL 1 DBCBEIS CONSTANT,
      264     4451    2         2 FBUF,
      265     4452    2           3 * UBIN(3) UNAL INIT(7),
      266     4453    2           3 * UBIN(15) UNAL INIT(0),
      267     4454    2           3 * UBIN(3) UNAL INIT(0),
      268     4455    2           3 * UBIN(1) UNAL INIT(1),
      269     4456    2           3 * UBIN(2) UNAL INIT(1),
      270     4457    2           3 * UBIN(6) UNAL INIT(0),
      271     4458    2           3 * UBIN(6) UNAL INIT(63),
      272     4459    2         2 FBUFU,
      273     4460    2           3 * UBIN(3) UNAL INIT(7),
      274     4461    2           3 * UBIN(15) UNAL INIT(0),
      275     4462    2           3 * UBIN(3) UNAL INIT(1),
      276     4463    2           3 * UBIN(1) UNAL INIT(1),
      277     4464    2           3 * UBIN(2) UNAL INIT(3),
      278     4465    2           3 * UBIN(6) UNAL INIT(0),
      279     4466    2           3 * UBIN(6) UNAL INIT(62),
      280     4467    2         2 FBUFM,
      281     4468    2           3 * UBIN(3) UNAL INIT(7),
      282     4469    2           3 * UBIN(15) UNAL INIT(0),
      283     4470    2           3 * UBIN(3) UNAL INIT(0),
      284     4471    2           3 * UBIN(1) UNAL INIT(1),
      285     4472    2           3 * UBIN(2) UNAL INIT(1),
      286     4473    2           3 * UBIN(6) UNAL INIT(0),
      287     4474    2           3 * UBIN(6) UNAL INIT(2),
      288     4475    2         2 FBUMD,
      289     4476    2           3 * UBIN(3) UNAL INIT(7),
      290     4477    2           3 * UBIN(15) UNAL INIT(0),
      291     4478    2           3 * UBIN(3) UNAL INIT(1),
      292     4479    2           3 * UBIN(2) UNAL INIT(2),
      293     4480    2           3 * UBIN(1) UNAL INIT(0),
      294     4481    2           3 * UBIN(12) UNAL INIT(1),
      295     4482    2         2 FBUF6,
PL6.E3A0      #001=ZIM$HEREIAM File=ZIM$HEREIAM.:ZIC0TSI                         FRI 09/05/97 12:56 Page:54
      296     4483    2           3 * UBIN(3) UNAL INIT(7),
      297     4484    2           3 * UBIN(15) UNAL INIT(0),
      298     4485    2           3 * UBIN(3) UNAL INIT(0),
      299     4486    2           3 * UBIN(2) UNAL INIT(1),
      300     4487    2           3 * UBIN(1) UNAL INIT(0),
      301     4488    2           3 * BIT(12) UNAL INIT('0012'O),
      302     4489    2         2 FBU61,
      303     4490    2           3 * UBIN(3) UNAL INIT(7),
      304     4491    2           3 * UBIN(15) UNAL INIT(0),
      305     4492    2           3 * UBIN(3) UNAL INIT(0),
      306     4493    2           3 * UBIN(2) UNAL INIT(1),
      307     4494    2           3 * UBIN(1) UNAL INIT(0),
      308     4495    2           3 * UBIN(12) UNAL INIT(1),
      309     4496    2         2 FBUF1,
      310     4497    2           3 * UBIN(3) UNAL INIT(7),
      311     4498    2           3 * UBIN(15) UNAL INIT(0),
      312     4499    2           3 * UBIN(3) UNAL INIT(0),
      313     4500    2           3 * UBIN(1) UNAL INIT(1),
      314     4501    2           3 * UBIN(2) UNAL INIT(1),
      315     4502    2           3 * UBIN(6) UNAL INIT(0),
      316     4503    2           3 * UBIN(6) UNAL INIT(12),
      317     4504    2         2 FBUF4,
      318     4505    2           3 * UBIN(3) UNAL INIT(7),
      319     4506    2           3 * UBIN(15) UNAL INIT(0),
      320     4507    2           3 * UBIN(3) UNAL INIT(0),
      321     4508    2           3 * UBIN(2) UNAL INIT(2),
      322     4509    2           3 * UBIN(1) UNAL INIT(0),
      323     4510    2           3 * UBIN(12) UNAL INIT(63),
      324     4511    2         2 FBF72,
      325     4512    2           3 * UBIN(3) UNAL INIT(7),
      326     4513    2           3 * UBIN(15) UNAL INIT(0),
      327     4514    2           3 * UBIN(3) UNAL INIT(0),
      328     4515    2           3 * UBIN(1) UNAL INIT(1),
      329     4516    2           3 * UBIN(2) UNAL INIT(1),
      330     4517    2           3 * UBIN(6) UNAL INIT(0),
      331     4518    2           3 * UBIN(6) UNAL INIT(23);
      332     4519    2   DCL RECCNT SBIN(36) ALIGNED;
PL6.E3A0      #001=ZIM$HEREIAM File=ZIM$HEREIAM.:ZIC0TSI                         FRI 09/05/97 12:56 Page:55
      333     4520    2   DCL SETCNT SBIN(36) ALIGNED;
      334     4521    2   DCL KEYCNT SBIN(36) ALIGNED;
      335     4522    2   DCL PACNT SBIN(36) ALIGNED;
      336     4523    2   DCL DBCBS SBIN(36) ALIGNED;
      337     4524    2   DCL 1 SPANDBCB BASED ALIGNED,
      338     4525    2         2 * CHAR(DBCBS);
      339     4526    2   DCL UBSZ SBIN(36) ALIGNED;
      340     4527    2   DCL OFFW SBIN(36) ALIGNED;
      341     4528    2   DCL 1 OFFSET,
      342     4529    2         2 ATBL SBIN(36) ALIGNED,
      343     4530    2         2 TBUF SBIN(36) ALIGNED,
      344     4531    2         2 IXBUF SBIN(36) ALIGNED,
      345     4532    2         2 PABUF SBIN(36) ALIGNED;
      346     4533    2   DCL DBCBSW SBIN(36) ALIGNED;
      347     4534        %TALLYD;
      348     4540        %ADSC;
      349     4552        %NDSC;
      350     4563    2       RECCNT=0;

   4563  2 001025   200023 450100                    STZ     RECCNT,,AUTO

      351     4564    2       RC$=PINCRW(SSS$,SIZEW(OA1));

   4564  2 001026   200003 236100                    LDQ     SSS$,,AUTO
         2 001027   000001 036003                    ADLQ    1,DU
         2 001030   200007 756100                    STQ     RC$,,AUTO

      352     4565    3       DO WHILE (RC.OARCN~=0);

   4565  2 001031   200007 470500                    LDP0    RC$,,AUTO
         2 001032   000002 220100                    LDX0    2,,PR0
         2 001033   001045 600000 2                  TZE     s:4569

      353     4566    3           RC$=PINCRW(SSS$,RC.OARCN);

   4566  2 001034   200007 470500                    LDP0    RC$,,AUTO
         2 001035   000002 220100                    LDX0    2,,PR0
PL6.E3A0      #001=ZIM$HEREIAM File=ZIM$HEREIAM.:ZIC0TSI                         FRI 09/05/97 12:56 Page:56
         2 001036   000000 636010                    EAQ     0,X0
         2 001037   200003 036100                    ADLQ    SSS$,,AUTO
         2 001040   200007 756100                    STQ     RC$,,AUTO

      354     4567    3           RECCNT=RECCNT+1;

   4567  2 001041   200023 054100                    AOS     RECCNT,,AUTO

      355     4568    3           END;

   4568  2 001042   200007 470500                    LDP0    RC$,,AUTO
         2 001043   000002 220100                    LDX0    2,,PR0
         2 001044   001034 601000 2                  TNZ     s:4566

      356     4569    2       SETCNT=0;

   4569  2 001045   200024 450100                    STZ     SETCNT,,AUTO

      357     4570    2       KEYCNT=0;

   4570  2 001046   200025 450100                    STZ     KEYCNT,,AUTO

      358     4571    2       PACNT=0;

   4571  2 001047   200026 450100                    STZ     PACNT,,AUTO

      359     4572    2       SC$=PINCRW(SSS$,SIZEW(OA1));

   4572  2 001050   200003 236100                    LDQ     SSS$,,AUTO
         2 001051   000001 036003                    ADLQ    1,DU
         2 001052   200010 756100                    STQ     SC$,,AUTO

      360     4573    3       DO WHILE (SC.OASCN~=0);

   4573  2 001053   200010 471500                    LDP1    SC$,,AUTO
         2 001054   100001 721100                    LXL1    1,,PR1
         2 001055   001104 600000 2                  TZE     s:4582
PL6.E3A0      #001=ZIM$HEREIAM File=ZIM$HEREIAM.:ZIC0TSI                         FRI 09/05/97 12:56 Page:57

      361     4574    3           SC$=PINCRW(SSS$,SC.OASCN);

   4574  2 001056   200010 470500                    LDP0    SC$,,AUTO
         2 001057   000001 720100                    LXL0    1,,PR0
         2 001060   000000 636010                    EAQ     0,X0
         2 001061   200003 036100                    ADLQ    SSS$,,AUTO
         2 001062   200010 756100                    STQ     SC$,,AUTO

      362     4575    3           SETCNT=SETCNT+1;

   4575  2 001063   200024 054100                    AOS     SETCNT,,AUTO

      363     4576    3           IF SC.DEF.SETM=2 THEN

   4576  2 001064   200010 470500                    LDP0    SC$,,AUTO
         2 001065   000000 236100                    LDQ     0,,PR0
         2 001066   000070 376003                    ANQ     56,DU
         2 001067   000020 116003                    CMPQ    16,DU
         2 001070   001073 601000 2                  TNZ     s:4579

      364     4577    3               PACNT=PACNT+1;

   4577  2 001071   200026 054100                    AOS     PACNT,,AUTO
         2 001072   001102 710000 2                  TRA     s:4581

      365     4578    3           ELSE
      366     4579    3               IF SC.DEF.SETT=2 OR SC.DEF.SETT=3 THEN

   4579  2 001073   000000 236100                    LDQ     0,,PR0
         2 001074   000700 376007                    ANQ     448,DL
         2 001075   000200 116007                    CMPQ    128,DL
         2 001076   001101 600000 2                  TZE     s:4580
         2 001077   000300 116007                    CMPQ    192,DL
         2 001100   001102 601000 2                  TNZ     s:4581

      367     4580    3                   KEYCNT=KEYCNT+1;
PL6.E3A0      #001=ZIM$HEREIAM File=ZIM$HEREIAM.:ZIC0TSI                         FRI 09/05/97 12:56 Page:58

   4580  2 001101   200025 054100                    AOS     KEYCNT,,AUTO

      368     4581    3           END;

   4581  2 001102   000001 720100                    LXL0    1,,PR0
         2 001103   001056 601000 2                  TNZ     s:4574

      369     4582    2       UBSZ=SIZEW(DBCB)-(SIZEW(DBCB.CRUN)+SIZEW(DBCB.SFWS));

   4582  2 001104   001223 235007                    LDA     659,DL
         2 001105   200030 755100                    STA     UBSZ,,AUTO

      370     4583    2       OFFSET.ATBL=MOD(UBSZ,2)+UBSZ

   4583  2 001106   200030 236100                    LDQ     UBSZ,,AUTO
         2 001107   000002 506007                    DIV     2,DL
         2 001110   000044 733000                    LRS     36
         2 001111   200030 036100                    ADLQ    UBSZ,,AUTO
         2 001112   200004 470500                    LDP0    OA$,,AUTO
         2 001113   200040 756100                    STQ     DBCBSW+2,,AUTO
         2 001114   000017 236100                    LDQ     15,,PR0
         2 001115   000022 772000                    QRL     18
         2 001116   000001 376007                    ANQ     1,DL
         2 001117   200040 036100                    ADLQ    DBCBSW+2,,AUTO
         2 001120   200041 756100                    STQ     DBCBSW+3,,AUTO
         2 001121   000017 236100                    LDQ     15,,PR0
         2 001122   000022 772000                    QRL     18
         2 001123   200042 756100                    STQ     DBCBSW+4,,AUTO
         2 001124   200041 236100                    LDQ     DBCBSW+3,,AUTO
         2 001125   200042 036100                    ADLQ    DBCBSW+4,,AUTO
         2 001126   200043 756100                    STQ     DBCBSW+5,,AUTO
         2 001127   000020 236100                    LDQ     16,,PR0
         2 001130   777777 376007                    ANQ     -1,DL
         2 001131   000001 376007                    ANQ     1,DL
         2 001132   200043 036100                    ADLQ    DBCBSW+5,,AUTO
         2 001133   200044 756100                    STQ     DBCBSW+6,,AUTO
PL6.E3A0      #001=ZIM$HEREIAM File=ZIM$HEREIAM.:ZIC0TSI                         FRI 09/05/97 12:56 Page:59
         2 001134   000020 236100                    LDQ     16,,PR0
         2 001135   777777 376007                    ANQ     -1,DL
         2 001136   200045 756100                    STQ     DBCBSW+7,,AUTO
         2 001137   200044 236100                    LDQ     DBCBSW+6,,AUTO
         2 001140   200045 036100                    ADLQ    DBCBSW+7,,AUTO
         2 001141   200032 756100                    STQ     OFFSET,,AUTO

      371     4584    2          +MOD(OA.CSZ,2)+OA.CSZ
      372     4585    2          +MOD(OA.LSSZ,2)+OA.LSSZ;
      373     4586    2       OFFSET.TBUF=OFFSET.ATBL

   4586  2 001142   000016 236100                    LDQ     14,,PR0
         2 001143   000002 736000                    QLS     2
         2 001144   000014 376000 3                  ANQ     12
         2 001145   200032 036100                    ADLQ    OFFSET,,AUTO
         2 001146   000004 036007                    ADLQ    4,DL
         2 001147   200033 756100                    STQ     OFFSET+1,,AUTO

      374     4587    2          +4*(OA.ACNT+1);
      375     4588    2       OFFSET.IXBUF=OFFSET.TBUF+OA.LRSZ;

   4588  2 001150   000017 236100                    LDQ     15,,PR0
         2 001151   777777 376007                    ANQ     -1,DL
         2 001152   200033 036100                    ADLQ    OFFSET+1,,AUTO
         2 001153   200034 756100                    STQ     OFFSET+2,,AUTO

      376     4589    2       OFFSET.PABUF=OFFSET.IXBUF+OA.LRSZ;

   4589  2 001154   000017 236100                    LDQ     15,,PR0
         2 001155   777777 376007                    ANQ     -1,DL
         2 001156   200034 036100                    ADLQ    OFFSET+2,,AUTO
         2 001157   200035 756100                    STQ     OFFSET+3,,AUTO

      377     4590    2       DBCBS=OFFSET.PABUF+OA.LPASZ;

   4590  2 001160   000023 236100                    LDQ     19,,PR0
         2 001161   000022 772000                    QRL     18
PL6.E3A0      #001=ZIM$HEREIAM File=ZIM$HEREIAM.:ZIC0TSI                         FRI 09/05/97 12:56 Page:60
         2 001162   200035 036100                    ADLQ    OFFSET+3,,AUTO
         2 001163   200027 756100                    STQ     DBCBS,,AUTO

      378     4591    2       CALL ZIO$GETSEG(ADDR(NIL),DBCBS) ALTRET(ER_GS);

   4591  2 001164   000001 236000 3                  LDQ     1
         2 001165   200040 756100                    STQ     DBCBSW+2,,AUTO
         2 001166   200027 631500                    EPPR1   DBCBS,,AUTO
         2 001167   200043 451500                    STP1    DBCBSW+5,,AUTO
         2 001170   200040 633500                    EPPR3   DBCBSW+2,,AUTO
         2 001171   200042 453500                    STP3    DBCBSW+4,,AUTO
         2 001172   200042 630500                    EPPR0   DBCBSW+4,,AUTO
         2 001173   000015 631400 3                  EPPR1   13
         2 001174   000000 701000 xent               TSX1    ZIO$GETSEG
         2 001175   001530 702000 2                  TSX2    ER_GS

      379     4592    2       DBCB$=GLOBAL.VLP$->VLP$VECTOR.PTR$;

   4592  2 001176   000000 470400 xsym               LDP0    GLOBAL$
         2 001177   005112 471500                    LDP1    2634,,PR0
         2 001200   100001 236100                    LDQ     1,,PR1
         2 001201   200013 756100                    STQ     DBCB$,,AUTO

      380     4593    2       GLOBAL.ACTIVE.DBCB$=DBCB$;

   4593  2 001202   000001 756100                    STQ     1,,PR0

      381     4594    2       GLOBAL.DB.DBCB$(GLOBAL.ACTIVE.DBNO)=DBCB$;

   4594  2 001203   000002 235100                    LDA     2,,PR0
         2 001204   000161 756105                    STQ     113,AL,PR0

      382     4595    2       DBCBSW = DBCBS;

   4595  2 001205   200027 235100                    LDA     DBCBS,,AUTO
         2 001206   200036 755100                    STA     DBCBSW,,AUTO

PL6.E3A0      #001=ZIM$HEREIAM File=ZIM$HEREIAM.:ZIC0TSI                         FRI 09/05/97 12:56 Page:61
      383     4596    2       DBCBS=DBCBS*4;

   4596  2 001207   000002 735000                    ALS     2
         2 001210   200027 755100                    STA     DBCBS,,AUTO

      384     4597    2       DBCB$->SPANDBCB='0'B;

   4597  2 001211   200013 471500                    LDP1    DBCB$,,AUTO
         2 001212   000000 620005                    EAX0    0,AL
         2 001213   000140 100400                    MLR     fill='000'O
         2 001214   000000 000001 3                  ADSC9   0                        cn=0,n=1
         2 001215   100000 000010                    ADSC9   0,,PR1                   cn=0,n=*X0

      385     4598    2       DBCB.CSECT.SSACCT=SSACCT;

   4598  2 001216   040100 100500                    MLR     fill='040'O
         2 001217   200015 000010                    ADSC9   SSACCT,,AUTO             cn=0,n=8
         2 001220   100000 000010                    ADSC9   0,,PR1                   cn=0,n=8

      386     4599    2       DBCB.CSECT.ATBL.OFFSET=OFFSET.ATBL;

   4599  2 001221   200032 720100                    LXL0    OFFSET,,AUTO
         2 001222   100003 740100                    STX0    3,,PR1

      387     4600    2       DBCB.CSECT.TBUF$=PINCRW(DBCB$,OFFSET.TBUF);

   4600  2 001223   200033 236100                    LDQ     OFFSET+1,,AUTO
         2 001224   000022 736000                    QLS     18
         2 001225   200013 036100                    ADLQ    DBCB$,,AUTO
         2 001226   100004 756100                    STQ     4,,PR1

      388     4601    2       DBCB.CSECT.IXBUF$=PINCRW(DBCB$,OFFSET.IXBUF);

   4601  2 001227   200034 236100                    LDQ     OFFSET+2,,AUTO
         2 001230   000022 736000                    QLS     18
         2 001231   200013 036100                    ADLQ    DBCB$,,AUTO
         2 001232   100011 756100                    STQ     9,,PR1
PL6.E3A0      #001=ZIM$HEREIAM File=ZIM$HEREIAM.:ZIC0TSI                         FRI 09/05/97 12:56 Page:62

      389     4602    2       DBCB.CSECT.KEYPA$=ADDR(GLOBAL.SKEY);

   4602  2 001233   000000 236000 xsym               LDQ     GLOBAL$
         2 001234   004624 036003                    ADLQ    2452,DU
         2 001235   100010 756100                    STQ     8,,PR1

      390     4603    2       DBCB.CSECT.CBFSZ=DBCBS;

   4603  2 001236   200027 721100                    LXL1    DBCBS,,AUTO
         2 001237   100014 741100                    STX1    12,,PR1

      391     4604    2       DBCB.CSECT.PABUF=OFFSET.PABUF;

   4604  2 001240   200035 235100                    LDA     OFFSET+3,,AUTO
         2 001241   100016 755100                    STA     14,,PR1

      392     4605    2       DBCB.SWS.STMASK='777777007777'O;

   4605  2 001242   000030 236000 1                  LDQ     DBCBEIS+17
         2 001243   100055 756100                    STQ     45,,PR1

      393     4606    2       DBCB.SWS.TMASK='000000007777'O;

   4606  2 001244   000031 236000 1                  LDQ     DBCBEIS+18
         2 001245   100056 756100                    STQ     46,,PR1

      394     4607    2       DBCB.SWS.CTMASK='777777770000'O;

   4607  2 001246   000032 236000 1                  LDQ     DBCBEIS+19
         2 001247   100057 756100                    STQ     47,,PR1

      395     4608    2       PTR$=ADDR(DBCB.DBEST.CONTROL);

   4608  2 001250   200013 236100                    LDQ     DBCB$,,AUTO
         2 001251   000270 036003                    ADLQ    184,DU
         2 001252   200017 756100                    STQ     PTR$,,AUTO
PL6.E3A0      #001=ZIM$HEREIAM File=ZIM$HEREIAM.:ZIC0TSI                         FRI 09/05/97 12:56 Page:63

      396     4609         /* Offsets for tally's are from begining of segment */
      397     4610    2       PTR$->TALLYD.Y=

   4610  2 001253   200013 236100                    LDQ     DBCB$,,AUTO
         2 001254   000272 036003                    ADLQ    186,DU
         2 001255   000022 772000                    QRL     18
         2 001256   200013 235100                    LDA     DBCB$,,AUTO
         2 001257   000022 771000                    ARL     18
         2 001260   200040 755100                    STA     DBCBSW+2,,AUTO
         2 001261   200040 136100                    SBLQ    DBCBSW+2,,AUTO
         2 001262   000000 621006                    EAX1    0,QL
         2 001263   200017 473500                    LDP3    PTR$,,AUTO
         2 001264   300000 741100                    STX1    0,,PR3

      398     4611    2          POFFW(ADDR(DBCB.DBEST.STACK),DBCB$);
      399     4612    2       PTR$->TALLYD.TALLY=SIZEW(DBCB.DBEST.STACK)/2;

   4612  2 001265   003700 236007                    LDQ     1984,DL
         2 001266   300000 752106                    STCQ    0,'06'O,PR3

      400     4613    2       PTR$->TALLYD.DELTA=2;

   4613  2 001267   000002 236007                    LDQ     2,DL
         2 001270   300000 752101                    STCQ    0,'01'O,PR3

      401     4614    2       DBCB.DBEST.REFRESH=PTR$->TALLYD;

   4614  2 001271   300000 236100                    LDQ     0,,PR3
         2 001272   100271 756100                    STQ     185,,PR1

      402     4615    2       PTR$=ADDR(DBCB.DBSTK.CONTROL);

   4615  2 001273   200013 236100                    LDQ     DBCB$,,AUTO
         2 001274   000370 036003                    ADLQ    248,DU
         2 001275   200017 756100                    STQ     PTR$,,AUTO

PL6.E3A0      #001=ZIM$HEREIAM File=ZIM$HEREIAM.:ZIC0TSI                         FRI 09/05/97 12:56 Page:64
      403     4616    2       PTR$->TALLYD.Y=

   4616  2 001276   200013 236100                    LDQ     DBCB$,,AUTO
         2 001277   000372 036003                    ADLQ    250,DU
         2 001300   000022 772000                    QRL     18
         2 001301   200040 755100                    STA     DBCBSW+2,,AUTO
         2 001302   200040 136100                    SBLQ    DBCBSW+2,,AUTO
         2 001303   000000 621006                    EAX1    0,QL
         2 001304   200017 473500                    LDP3    PTR$,,AUTO
         2 001305   300000 741100                    STX1    0,,PR3

      404     4617    2          POFFW(ADDR(DBCB.DBSTK.STACK),DBCB$);
      405     4618    2       PTR$->TALLYD.TALLY=SIZEW(DBCB.DBSTK.STACK);

   4618  2 001306   007600 236007                    LDQ     3968,DL
         2 001307   300000 752106                    STCQ    0,'06'O,PR3

      406     4619    2       DBCB.DBSTK.REFRESH=PTR$->TALLYD;

   4619  2 001310   300000 236100                    LDQ     0,,PR3
         2 001311   100371 756100                    STQ     249,,PR1

      407     4620    2       PTR$=ADDR(DBCB.DBIC.CONTROL);

   4620  2 001312   200013 236100                    LDQ     DBCB$,,AUTO
         2 001313   000470 036003                    ADLQ    312,DU
         2 001314   200017 756100                    STQ     PTR$,,AUTO

      408     4621    2       PTR$->TALLYD.Y=

   4621  2 001315   200013 236100                    LDQ     DBCB$,,AUTO
         2 001316   000471 036003                    ADLQ    313,DU
         2 001317   000022 772000                    QRL     18
         2 001320   200040 755100                    STA     DBCBSW+2,,AUTO
         2 001321   200040 136100                    SBLQ    DBCBSW+2,,AUTO
         2 001322   000000 621006                    EAX1    0,QL
         2 001323   200017 473500                    LDP3    PTR$,,AUTO
PL6.E3A0      #001=ZIM$HEREIAM File=ZIM$HEREIAM.:ZIC0TSI                         FRI 09/05/97 12:56 Page:65
         2 001324   300000 741100                    STX1    0,,PR3

      409     4622    2          POFFW(ADDR(DBCB.DBIC.STACK),DBCB$);
      410     4623    2       PTR$->TALLYD.TALLY=SIZEW(DBCB.DBIC.STACK);

   4623  2 001325   001700 236007                    LDQ     960,DL
         2 001326   300000 752106                    STCQ    0,'06'O,PR3

      411     4624    2       DBCB.PWS.DBICREFRESH=PTR$->TALLYD;

   4624  2 001327   300000 236100                    LDQ     0,,PR3
         2 001330   100677 756100                    STQ     447,,PR1

      412     4625    2       DBCB.PCB.RVI=POFFW(ADDR(DBCB.PCB.RV1),DBCB$);

   4625  2 001331   200013 236100                    LDQ     DBCB$,,AUTO
         2 001332   000530 036003                    ADLQ    344,DU
         2 001333   000022 772000                    QRL     18
         2 001334   200040 755100                    STA     DBCBSW+2,,AUTO
         2 001335   200040 136100                    SBLQ    DBCBSW+2,,AUTO
         2 001336   000000 621006                    EAX1    0,QL
         2 001337   100510 741100                    STX1    328,,PR1

      413     4626    2       DBCB.PCB.RVO=POFFW(ADDR(DBCB.PCB.RV2),DBCB$);

   4626  2 001340   200013 236100                    LDQ     DBCB$,,AUTO
         2 001341   000550 036003                    ADLQ    360,DU
         2 001342   000022 772000                    QRL     18
         2 001343   200040 755100                    STA     DBCBSW+2,,AUTO
         2 001344   200040 136100                    SBLQ    DBCBSW+2,,AUTO
         2 001345   000000 622006                    EAX2    0,QL
         2 001346   100511 742100                    STX2    329,,PR1

      414     4627    2       DBCB.PCB.RVT=POFFW(ADDR(DBCB.PCB.RV3),DBCB$);

   4627  2 001347   200013 236100                    LDQ     DBCB$,,AUTO
         2 001350   000570 036003                    ADLQ    376,DU
PL6.E3A0      #001=ZIM$HEREIAM File=ZIM$HEREIAM.:ZIC0TSI                         FRI 09/05/97 12:56 Page:66
         2 001351   000022 772000                    QRL     18
         2 001352   200040 755100                    STA     DBCBSW+2,,AUTO
         2 001353   200040 136100                    SBLQ    DBCBSW+2,,AUTO
         2 001354   000000 623006                    EAX3    0,QL
         2 001355   100512 743100                    STX3    330,,PR1

      415     4628    2       DBCB.PCB.RVPA=POFFW(ADDR(DBCB.PCB.RV4),DBCB$);

   4628  2 001356   200013 236100                    LDQ     DBCB$,,AUTO
         2 001357   000610 036003                    ADLQ    392,DU
         2 001360   000022 772000                    QRL     18
         2 001361   200040 755100                    STA     DBCBSW+2,,AUTO
         2 001362   200040 136100                    SBLQ    DBCBSW+2,,AUTO
         2 001363   000000 624006                    EAX4    0,QL
         2 001364   100513 744100                    STX4    331,,PR1

      416     4629    2       PTR$=ADDR(DBCB.PWS.RNGTAL.CURRENT);

   4629  2 001365   200013 236100                    LDQ     DBCB$,,AUTO
         2 001366   000660 036003                    ADLQ    432,DU
         2 001367   200017 756100                    STQ     PTR$,,AUTO

      417     4630    2       PTR$->TALLYD.Y=

   4630  2 001370   200013 236100                    LDQ     DBCB$,,AUTO
         2 001371   000662 036003                    ADLQ    434,DU
         2 001372   000022 772000                    QRL     18
         2 001373   200040 755100                    STA     DBCBSW+2,,AUTO
         2 001374   200040 136100                    SBLQ    DBCBSW+2,,AUTO
         2 001375   000000 625006                    EAX5    0,QL
         2 001376   200017 473500                    LDP3    PTR$,,AUTO
         2 001377   300000 745100                    STX5    0,,PR3

      418     4631    2          POFFW(ADDR(DBCB.PWS.RNG1),DBCB$);
      419     4632    2       PTR$->TALLYD.TALLY=2;

   4632  2 001400   000200 236007                    LDQ     128,DL
PL6.E3A0      #001=ZIM$HEREIAM File=ZIM$HEREIAM.:ZIC0TSI                         FRI 09/05/97 12:56 Page:67
         2 001401   300000 752106                    STCQ    0,'06'O,PR3

      420     4633    2       PTR$->TALLYD.DELTA=2;

   4633  2 001402   000002 236007                    LDQ     2,DL
         2 001403   300000 752101                    STCQ    0,'01'O,PR3

      421     4634    2       DBCB.PWS.RNGTAL.REFRESH=PTR$->TALLYD;

   4634  2 001404   300000 236100                    LDQ     0,,PR3
         2 001405   100661 756100                    STQ     433,,PR1

      422     4635    2       DBCB.IOWS.CHR='007640000012'O;

   4635  2 001406   000033 236000 1                  LDQ     DBCBEIS+20
         2 001407   100773 756100                    STQ     507,,PR1

      423     4636    2       OFFW=POFFW(ADDR(DBCB.BUF6),DBCB$);

   4636  2 001410   200013 236100                    LDQ     DBCB$,,AUTO
         2 001411   001170 036003                    ADLQ    632,DU
         2 001412   000022 772000                    QRL     18
         2 001413   200040 755100                    STA     DBCBSW+2,,AUTO
         2 001414   200040 136100                    SBLQ    DBCBSW+2,,AUTO
         2 001415   200031 756100                    STQ     OFFW,,AUTO

      424     4637    2       DBCB.IOWS.FBUF6=DBCBEIS.FBUF6;

   4637  2 001416   000013 236000 1                  LDQ     DBCBEIS+4
         2 001417   101024 756100                    STQ     532,,PR1

      425     4638    2       ADDR(DBCB.IOWS.FBUF6)->ADSC.OFFSET.Y=OFFW;

   4638  2 001420   200031 236100                    LDQ     OFFW,,AUTO
         2 001421   000022 736000                    QLS     18
         2 001422   101024 676100                    ERQ     532,,PR1
         2 001423   077777 376003                    ANQ     32767,DU
PL6.E3A0      #001=ZIM$HEREIAM File=ZIM$HEREIAM.:ZIC0TSI                         FRI 09/05/97 12:56 Page:68
         2 001424   101024 656100                    ERSQ    532,,PR1

      426     4639    2       DBCB.IOWS.FBU61=DBCBEIS.FBU61;

   4639  2 001425   000014 236000 1                  LDQ     DBCBEIS+5
         2 001426   101025 756100                    STQ     533,,PR1

      427     4640    2       ADDR(DBCB.IOWS.FBU61)->ADSC.OFFSET.Y=OFFW;

   4640  2 001427   200031 236100                    LDQ     OFFW,,AUTO
         2 001430   000022 736000                    QLS     18
         2 001431   101025 676100                    ERQ     533,,PR1
         2 001432   077777 376003                    ANQ     32767,DU
         2 001433   101025 656100                    ERSQ    533,,PR1

      428     4641    2       OFFW=POFFW(ADDR(DBCB.BUF4),DBCB$);

   4641  2 001434   200013 236100                    LDQ     DBCB$,,AUTO
         2 001435   001160 036003                    ADLQ    624,DU
         2 001436   000022 772000                    QRL     18
         2 001437   200040 755100                    STA     DBCBSW+2,,AUTO
         2 001440   200040 136100                    SBLQ    DBCBSW+2,,AUTO
         2 001441   200031 756100                    STQ     OFFW,,AUTO

      429     4642    2       DBCB.IOWS.FBUF=DBCBEIS.FBUF;

   4642  2 001442   000007 236000 1                  LDQ     DBCBEIS
         2 001443   101020 756100                    STQ     528,,PR1

      430     4643    2       ADDR(DBCB.IOWS.FBUF)->NDSC.OFFSET.Y=OFFW;

   4643  2 001444   200031 236100                    LDQ     OFFW,,AUTO
         2 001445   000022 736000                    QLS     18
         2 001446   101020 676100                    ERQ     528,,PR1
         2 001447   077777 376003                    ANQ     32767,DU
         2 001450   101020 656100                    ERSQ    528,,PR1

PL6.E3A0      #001=ZIM$HEREIAM File=ZIM$HEREIAM.:ZIC0TSI                         FRI 09/05/97 12:56 Page:69
      431     4644    2       DBCB.IOWS.FBUFU=DBCBEIS.FBUFU;

   4644  2 001451   000010 236000 1                  LDQ     DBCBEIS+1
         2 001452   101021 756100                    STQ     529,,PR1

      432     4645    2       ADDR(DBCB.IOWS.FBUFU)->NDSC.OFFSET.Y=OFFW;

   4645  2 001453   200031 236100                    LDQ     OFFW,,AUTO
         2 001454   000022 736000                    QLS     18
         2 001455   101021 676100                    ERQ     529,,PR1
         2 001456   077777 376003                    ANQ     32767,DU
         2 001457   101021 656100                    ERSQ    529,,PR1

      433     4646    2       DBCB.IOWS.FBUFM=DBCBEIS.FBUFM;

   4646  2 001460   000011 236000 1                  LDQ     DBCBEIS+2
         2 001461   101022 756100                    STQ     530,,PR1

      434     4647    2       ADDR(DBCB.IOWS.FBUFM)->NDSC.OFFSET.Y=OFFW;

   4647  2 001462   200031 236100                    LDQ     OFFW,,AUTO
         2 001463   000022 736000                    QLS     18
         2 001464   101022 676100                    ERQ     530,,PR1
         2 001465   077777 376003                    ANQ     32767,DU
         2 001466   101022 656100                    ERSQ    530,,PR1

      435     4648    2       DBCB.IOWS.FBUMD=DBCBEIS.FBUMD;

   4648  2 001467   000012 236000 1                  LDQ     DBCBEIS+3
         2 001470   101023 756100                    STQ     531,,PR1

      436     4649    2       ADDR(DBCB.IOWS.FBUMD)->ADSC.OFFSET.Y=OFFW;

   4649  2 001471   200031 236100                    LDQ     OFFW,,AUTO
         2 001472   000022 736000                    QLS     18
         2 001473   101023 676100                    ERQ     531,,PR1
         2 001474   077777 376003                    ANQ     32767,DU
PL6.E3A0      #001=ZIM$HEREIAM File=ZIM$HEREIAM.:ZIC0TSI                         FRI 09/05/97 12:56 Page:70
         2 001475   101023 656100                    ERSQ    531,,PR1

      437     4650    2       DBCB.IOWS.FBUF1=DBCBEIS.FBUF1;

   4650  2 001476   000015 236000 1                  LDQ     DBCBEIS+6
         2 001477   101026 756100                    STQ     534,,PR1

      438     4651    2       ADDR(DBCB.IOWS.FBUF1)->NDSC.OFFSET.Y=OFFW;

   4651  2 001500   200031 236100                    LDQ     OFFW,,AUTO
         2 001501   000022 736000                    QLS     18
         2 001502   101026 676100                    ERQ     534,,PR1
         2 001503   077777 376003                    ANQ     32767,DU
         2 001504   101026 656100                    ERSQ    534,,PR1

      439     4652    2       DBCB.IOWS.FBUF4=DBCBEIS.FBUF4;

   4652  2 001505   000016 236000 1                  LDQ     DBCBEIS+7
         2 001506   101027 756100                    STQ     535,,PR1

      440     4653    2       ADDR(DBCB.IOWS.FBUF4)->ADSC.OFFSET.Y=OFFW;

   4653  2 001507   200031 236100                    LDQ     OFFW,,AUTO
         2 001510   000022 736000                    QLS     18
         2 001511   101027 676100                    ERQ     535,,PR1
         2 001512   077777 376003                    ANQ     32767,DU
         2 001513   101027 656100                    ERSQ    535,,PR1

      441     4654    2       DBCB.IOWS.FBF72=DBCBEIS.FBF72;

   4654  2 001514   000017 236000 1                  LDQ     DBCBEIS+8
         2 001515   101055 756100                    STQ     557,,PR1

      442     4655    2       ADDR(DBCB.IOWS.FBF72)->NDSC.OFFSET.Y=OFFW;

   4655  2 001516   200031 236100                    LDQ     OFFW,,AUTO
         2 001517   000022 736000                    QLS     18
PL6.E3A0      #001=ZIM$HEREIAM File=ZIM$HEREIAM.:ZIC0TSI                         FRI 09/05/97 12:56 Page:71
         2 001520   101055 676100                    ERQ     557,,PR1
         2 001521   077777 376003                    ANQ     32767,DU
         2 001522   101055 656100                    ERSQ    557,,PR1

      443     4656    2       DBCB.CSECT.CIWSOF=OA.CIWSOF;

   4656  2 001523   200004 474500                    LDP4    OA$,,AUTO
         2 001524   400022 721100                    LXL1    18,,PR4
         2 001525   100014 441100                    SXL1    12,,PR1

      444     4657    2       RETURN;

   4657  2 001526   200022 221300                    LDX1  ! F$DCB$+1,,AUTO
         2 001527   000001 702211                    TSX2  ! 1,X1

      445     4658    2   ER_GS: ERROR=ERR#LC#01;

   4658  2 001530   210652 235007       ER_GS        LDA     70058,DL
         2 001531   200014 755100                    STA     ERROR,,AUTO

      446     4659    2       GLOBAL.RET.SYSERR#=B$TCB$->B$TCB.ALT$->B$ALT.ERR;

   4659  2 001532   000000 470400 xsym               LDP0    B$TCB$
         2 001533   000000 471500                    LDP1    0,,PR0
         2 001534   100102 236100                    LDQ     66,,PR1
         2 001535   000000 473400 xsym               LDP3    GLOBAL$
         2 001536   300007 756100                    STQ     7,,PR3

      447     4660            %DBALT;

   4661  2 001537   300006 235100                    LDA     6,,PR3
         2 001540   001547 601000 2                  TNZ     s:4669

   4663  2 001541   300010 450100                    STZ     8,,PR3

   4664  2 001542   300012 450100                    STZ     10,,PR3

PL6.E3A0      #001=ZIM$HEREIAM File=ZIM$HEREIAM.:ZIC0TSI                         FRI 09/05/97 12:56 Page:72
   4665  2 001543   300013 450100                    STZ     11,,PR3

   4666  2 001544   300011 450100                    STZ     9,,PR3

   4667  2 001545   200014 235100                    LDA     ERROR,,AUTO
         2 001546   300006 755100                    STA     6,,PR3

   4669  2 001547   303240 115007                    CMPA    100000,DL
         2 001550   001553 603000 2                  TRC     s:4672

   4670  2 001551   200022 221300                    LDX1  ! F$DCB$+1,,AUTO
         2 001552   000000 702211                    TSX2  ! 0,X1

   4672  2 001553   000000 631400 3                  EPPR1   0
         2 001554   000000 701000 xent               TSX1    ZIB$ERR
         2 001555   000000 011000                    NOP     0

      448     4674    2   END GETDBCB;

   4674  2 001556   200022 221300                    LDX1  ! F$DCB$+1,,AUTO
         2 001557   000001 702211                    TSX2  ! 1,X1

RFTBL
 Sect OctLoc
   1     000   000000 000000   000000 000002   000000 000003   000000 000006    ................
   1     004   000000 000001                                                    ....

ZI_SSACCT
 Sect OctLoc
   1     005   072123 131123   040040 040040                                    :SYS

DBCBEIS
 Sect OctLoc
   1     007   700000 050077   700000 170076   700000 050002   700000 140001    ..(?..x>..(...`.
   1     013   700000 020012   700000 020001   700000 050014   700000 040077    ..........(... ?
   1     017   700000 050027                                                    ..(.

PL6.E3A0      #001=ZIM$HEREIAM File=ZIM$HEREIAM.:ZIC0TSI                         FRI 09/05/97 12:56 Page:73
(unnamed)
 Sect OctLoc
   1     020   125124 114064   123125 102064   126115 123064   104102 040040    UTL4SUB4VMS4DB
   1     024   000000 000002   000000 000001   000000 000004   000000 000010    ................
   1     030   777777 007777   000000 007777   777777 770000   007640 000012    ................

(unnamed)
 Sect OctLoc
   3     000   000000 000000   000000 006014   377777 777777   000001 000000    ................
   3     004   777777 777777   040040 040040   777777 577777   000000 006003    ....    ........
   3     010   777777 377777   072040 040040   777777 777747   577777 777777    ....:   ........
   3     014   000003 777774   000002 000000                                    ........
      449     4675    1   END ZIM$HEREIAM;
      450     4676        %EOD;

PL6.E3A0      #001=ZIM$HEREIAM File=ZIM$HEREIAM.:ZIC0TSI                         FRI 09/05/97 12:56 Page:74
--  Include file information  --

   ZI_ERRORS_C.:ZIC0TOU  is referenced.
   ZI$USER.:ZIC0TOU  is referenced.
   ZI$DBCB.:ZIC0TOU  is referenced.
   ZI$SSS.:ZIC0TOU  cannot be made into a system file and is referenced.
   ZI$GLOBAL.:ZIC0TOU  is referenced.
   CP_6_SUBS.:LIB_E05  is referenced.
   CP_6.:LIB_E05  cannot be made into a system file and is referenced.
   B$JIT_C.:E05TOU  was found in the system file and is never referenced.
   CP_6_C.:E05TOU  was found in the system file and is referenced.
      No diagnostics issued in procedure ZIM$HEREIAM.

   Procedure ZIM$HEREIAM requires 880 words for executable code.
   Procedure ZIM$HEREIAM requires 38 words of local(AUTO) storage.
PL6.E3A0      #001=ZIM$HEREIAM File=ZIM$HEREIAM.:ZIC0TSI                         FRI 09/05/97 12:56 Page:75
          *** CROSS REFERENCE LISTING ***
**     DENOTES     IDENTIFIER DEFINITION
<<                 IDENTIFIER'S VALUE SET
>>                 IDENTIFIER'S VALUE USED
<>                 IDENTIFIER SET AND/OR USED
--                 IDENTIFIER REFERENCED
PL6.E3A0      #001=ZIM$HEREIAM File=ZIM$HEREIAM.:ZIC0TSI                         FRI 09/05/97 12:56 Page:76
          MINI XREF LISTING

AC.DEF.ANL
      2315**DCL      2386--IMP-SIZ
AC.DEF.FORG
      2302**DCL      2306--REDEF
AC$
      2298**DCL      2299--IMP-PTR
ADSC.OFFSET.Y IN PROCEDURE GETDBCB
      4544**DCL      4638<<ASSIGN   4640<<ASSIGN   4649<<ASSIGN   4653<<ASSIGN
ALT IN PROCEDURE GETSSS
      4345**LABEL    4319--GOTO     4341--GOTO     4346--GOTO
ALT IN PROCEDURE IASSCHK
      4389**LABEL    4394--GOTO     4396--GOTO
B$ALT.CODE
       318**DCL       318--REDEF     319--REDEF     319--REDEF
B$ALT.ERR
       319**DCL      4345>>ASSIGN   4659>>ASSIGN
B$ALT.ERR.ERR#
       320**DCL       320--REDEF
B$ALT.EVID
       319**DCL       319--REDEF     319--REDEF
B$DS3$ IN PROCEDURE GETSSS
      4248**DCL      4310>>ASSIGN
B$DS5$ IN PROCEDURE GETSSS
      4249**DCL      4313>>ASSIGN
B$DS7$ IN PROCEDURE GETSSS
      4250**DCL      4316>>ASSIGN
B$TCB.ALT$
       314**DCL      4345>>ASSIGN   4659>>ASSIGN
B$TCB$
      4195**DCL      4345>>ASSIGN   4659>>ASSIGN
BINDRVA
      4415**PROC     4204--CALL     4216--CALL
PL6.E3A0      #001=ZIM$HEREIAM File=ZIM$HEREIAM.:ZIC0TSI                         FRI 09/05/97 12:56 Page:77
BINDUPT
      4229**PROC     4203--CALL     4215--CALL
COUNT IN PROCEDURE BINDRVA
      4417**DCL      4421<<ASSIGN   4422>>DOINDEX
COUNT IN PROCEDURE BINDUPT
      4231**DCL      4235<<ASSIGN   4236>>DOINDEX
DBCB
      3149**DCL      4582--ASSIGN
DBCB.BUF4
      3602**DCL      4641--ASSIGN
DBCB.BUF6
      3603**DCL      4636--ASSIGN
DBCB.CRUN
      3606**DCL      4582--ASSIGN
DBCB.CSECT.ATBL.OFFSET
      3157**DCL      4599<<ASSIGN
DBCB.CSECT.CBFSZ
      3167**DCL      4603<<ASSIGN
DBCB.CSECT.CIWSOF
      3168**DCL      4656<<ASSIGN
DBCB.CSECT.IXBUF$
      3165**DCL      4601<<ASSIGN
DBCB.CSECT.KEYPA$
      3164**DCL      4602<<ASSIGN
DBCB.CSECT.PABUF
      3170**DCL      4604<<ASSIGN
DBCB.CSECT.SSACCT
      3154**DCL      4598<<ASSIGN
DBCB.CSECT.TBUF$
      3159**DCL      4600<<ASSIGN
DBCB.DBEST.CONTROL
      3318**DCL      4608--ASSIGN
DBCB.DBEST.REFRESH
      3322**DCL      4614<<ASSIGN
DBCB.DBEST.STACK
      3326**DCL      4610--ASSIGN   4612--ASSIGN
PL6.E3A0      #001=ZIM$HEREIAM File=ZIM$HEREIAM.:ZIC0TSI                         FRI 09/05/97 12:56 Page:78
DBCB.DBIC.CONTROL
      3344**DCL      4620--ASSIGN
DBCB.DBIC.STACK
      3348**DCL      4621--ASSIGN   4623--ASSIGN
DBCB.DBSTK.CONTROL
      3331**DCL      4615--ASSIGN
DBCB.DBSTK.REFRESH
      3335**DCL      4619<<ASSIGN
DBCB.DBSTK.STACK
      3339**DCL      4616--ASSIGN   4618--ASSIGN
DBCB.IOWS.CFCT
      3577**DCL      3578--REDEF
DBCB.IOWS.CHR
      3514**DCL      4635<<ASSIGN
DBCB.IOWS.DBKF.RQ
      3520**DCL      3521--REDEF
DBCB.IOWS.DBKR
      3517**DCL      3518--REDEF
DBCB.IOWS.FBF72
      3582**DCL      4654<<ASSIGN   4655--ASSIGN
DBCB.IOWS.FBU61
      3551**DCL      4639<<ASSIGN   4640--ASSIGN
DBCB.IOWS.FBUF
      3546**DCL      4642<<ASSIGN   4643--ASSIGN
DBCB.IOWS.FBUF1
      3552**DCL      4650<<ASSIGN   4651--ASSIGN
DBCB.IOWS.FBUF4
      3553**DCL      4652<<ASSIGN   4653--ASSIGN
DBCB.IOWS.FBUF6
      3550**DCL      4637<<ASSIGN   4638--ASSIGN
DBCB.IOWS.FBUFM
      3548**DCL      4646<<ASSIGN   4647--ASSIGN
DBCB.IOWS.FBUFU
      3547**DCL      4644<<ASSIGN   4645--ASSIGN
DBCB.IOWS.FBUMD
      3549**DCL      4648<<ASSIGN   4649--ASSIGN
PL6.E3A0      #001=ZIM$HEREIAM File=ZIM$HEREIAM.:ZIC0TSI                         FRI 09/05/97 12:56 Page:79
DBCB.IOWS.NOBF
      3579**DCL      3580--REDEF
DBCB.IOWS.SPND
      3505**DCL      3506--REDEF
DBCB.PCB.RV1
      3378**DCL      4625--ASSIGN
DBCB.PCB.RV2
      3379**DCL      4626--ASSIGN
DBCB.PCB.RV3
      3380**DCL      4627--ASSIGN
DBCB.PCB.RV4
      3381**DCL      4628--ASSIGN
DBCB.PCB.RVI
      3353**DCL      4625<<ASSIGN
DBCB.PCB.RVO
      3355**DCL      4626<<ASSIGN
DBCB.PCB.RVPA
      3359**DCL      4628<<ASSIGN
DBCB.PCB.RVT
      3357**DCL      4627<<ASSIGN
DBCB.PWS.DBICREFRESH
      3436**DCL      4624<<ASSIGN
DBCB.PWS.RNG1
      3421**DCL      4630--ASSIGN
DBCB.PWS.RNGTAL.CURRENT
      3419**DCL      4629--ASSIGN
DBCB.PWS.RNGTAL.REFRESH
      3420**DCL      4634<<ASSIGN
DBCB.SFWS
      3610**DCL      4582--ASSIGN
DBCB.SWS.CTMASK
      3229**DCL      4607<<ASSIGN
DBCB.SWS.RDYCW
      3243**DCL      3244--REDEF
DBCB.SWS.STMASK
      3227**DCL      4605<<ASSIGN
PL6.E3A0      #001=ZIM$HEREIAM File=ZIM$HEREIAM.:ZIC0TSI                         FRI 09/05/97 12:56 Page:80
DBCB.SWS.TEMP.PTR1$
      3277**DCL      3278--REDEF    3279--REDEF
DBCB.SWS.TEMP.PTR2$
      3280**DCL      3281--REDEF
DBCB.SWS.TMASK
      3228**DCL      4606<<ASSIGN
DBCB$
      3148**DCL      3149--IMP-PTR  4592<<ASSIGN   4593>>ASSIGN   4594>>ASSIGN   4597>>ASSIGN   4598>>ASSIGN
      4599>>ASSIGN   4600>>ASSIGN   4600>>ASSIGN   4601>>ASSIGN   4601>>ASSIGN   4602>>ASSIGN   4603>>ASSIGN
      4604>>ASSIGN   4605>>ASSIGN   4606>>ASSIGN   4607>>ASSIGN   4608>>ASSIGN   4610>>ASSIGN   4610>>ASSIGN
      4614>>ASSIGN   4615>>ASSIGN   4616>>ASSIGN   4616>>ASSIGN   4619>>ASSIGN   4620>>ASSIGN   4621>>ASSIGN
      4621>>ASSIGN   4624>>ASSIGN   4625>>ASSIGN   4625>>ASSIGN   4625>>ASSIGN   4626>>ASSIGN   4626>>ASSIGN
      4626>>ASSIGN   4627>>ASSIGN   4627>>ASSIGN   4627>>ASSIGN   4628>>ASSIGN   4628>>ASSIGN   4628>>ASSIGN
      4629>>ASSIGN   4630>>ASSIGN   4630>>ASSIGN   4634>>ASSIGN   4635>>ASSIGN   4636>>ASSIGN   4636>>ASSIGN
      4637>>ASSIGN   4638>>ASSIGN   4639>>ASSIGN   4640>>ASSIGN   4641>>ASSIGN   4641>>ASSIGN   4642>>ASSIGN
      4643>>ASSIGN   4644>>ASSIGN   4645>>ASSIGN   4646>>ASSIGN   4647>>ASSIGN   4648>>ASSIGN   4649>>ASSIGN
      4650>>ASSIGN   4651>>ASSIGN   4652>>ASSIGN   4653>>ASSIGN   4654>>ASSIGN   4655>>ASSIGN   4656>>ASSIGN
DBCBEIS.FBF72 IN PROCEDURE GETDBCB
      4511**DCL      4654>>ASSIGN
DBCBEIS.FBU61 IN PROCEDURE GETDBCB
      4489**DCL      4639>>ASSIGN
DBCBEIS.FBUF IN PROCEDURE GETDBCB
      4451**DCL      4642>>ASSIGN
DBCBEIS.FBUF1 IN PROCEDURE GETDBCB
      4496**DCL      4650>>ASSIGN
DBCBEIS.FBUF4 IN PROCEDURE GETDBCB
      4504**DCL      4652>>ASSIGN
DBCBEIS.FBUF6 IN PROCEDURE GETDBCB
      4482**DCL      4637>>ASSIGN
DBCBEIS.FBUFM IN PROCEDURE GETDBCB
      4467**DCL      4646>>ASSIGN
DBCBEIS.FBUFU IN PROCEDURE GETDBCB
      4459**DCL      4644>>ASSIGN
DBCBEIS.FBUMD IN PROCEDURE GETDBCB
      4475**DCL      4648>>ASSIGN
DBCBS IN PROCEDURE GETDBCB
PL6.E3A0      #001=ZIM$HEREIAM File=ZIM$HEREIAM.:ZIC0TSI                         FRI 09/05/97 12:56 Page:81
      4523**DCL      4525--IMP-SIZ  4590<<ASSIGN   4591<>CALL     4595>>ASSIGN   4596<<ASSIGN   4596>>ASSIGN
      4597>>ASSIGN   4603>>ASSIGN
DBCBSW IN PROCEDURE GETDBCB
      4533**DCL      4595<<ASSIGN
ER
      4227**LABEL    4207--GOTO
ERROR
      4192**DCL      4318<<ASSIGN   4340<<ASSIGN   4344<<ASSIGN   4355>>ASSIGN   4393<<ASSIGN   4395<<ASSIGN
      4397<<ASSIGN   4406>>ASSIGN   4658<<ASSIGN   4667>>ASSIGN
ER_DATE IN PROCEDURE IASSCHK
      4397**LABEL    4390--GOTO
ER_FSE IN PROCEDURE BINDRVA
      4446**LABEL    4429--CALLALT  4432--GOTO
ER_GDCB IN PROCEDURE GETSSS
      4338**LABEL    4262--CALLALT  4274--GOTO     4283--GOTO
ER_GS IN PROCEDURE GETDBCB
      4658**LABEL    4591--CALLALT
ER_LENGTH IN PROCEDURE GETSSS
      4340**LABEL    4257--GOTO
ER_NAME IN PROCEDURE IASSCHK
      4395**LABEL    4383--GOTO     4387--GOTO
ER_NPAID IN PROCEDURE IASSCHK
      4393**LABEL    4380--CALLALT
ER_OP IN PROCEDURE GETSSS
      4344**LABEL    4328--GOTO
ER_RDY
      4221**LABEL    4213--CALLALT  4214--CALLALT  4216--CALLALT  4217--CALLALT
ER_RRDY
      4226**LABEL    4202--CALLALT  4204--CALLALT
F$DCB.ACCT#
       273**DCL      4292>>ASSIGN   4297>>ASSIGN   4338>>ASSIGN
F$DCB.ACTPOS
       289**DCL       289--REDEF
F$DCB.ARS#
       263**DCL       263--REDEF
F$DCB.ATTR
PL6.E3A0      #001=ZIM$HEREIAM File=ZIM$HEREIAM.:ZIC0TSI                         FRI 09/05/97 12:56 Page:82
       282**DCL       283--REDEF
F$DCB.BORROW
       297**DCL       297--REDEF     297--REDEF     297--REDEF
F$DCB.DCBNAME.L
       311**DCL       311--IMP-SIZ
F$DCB.EOMCHAR#
       267**DCL       267--REDEF
F$DCB.FLDID
       292**DCL       292--REDEF
F$DCB.FORM$
       286**DCL       286--REDEF
F$DCB.FSECT
       302**DCL       302--REDEF
F$DCB.FSN#
       279**DCL       279--REDEF     279--REDEF     280--REDEF
F$DCB.HEADER$
       285**DCL       285--REDEF
F$DCB.IXTNSIZE#
       283**DCL       283--REDEF
F$DCB.LASTSTA$
       272**DCL       272--REDEF
F$DCB.LVL
       298**DCL       298--REDEF
F$DCB.NAME#
       273**DCL      4291>>ASSIGN   4296>>ASSIGN
F$DCB.NAME#.C
       273**DCL       273--REDEF
F$DCB.NAME#.L
       273**DCL      4288>>IF
F$DCB.NOEOF
       295**DCL       295--REDEF
F$DCB.NRECS#
       284**DCL       284--REDEF
F$DCB.NRECX
       303**DCL       303--REDEF
F$DCB.OHDR
PL6.E3A0      #001=ZIM$HEREIAM File=ZIM$HEREIAM.:ZIC0TSI                         FRI 09/05/97 12:56 Page:83
       295**DCL       295--REDEF
F$DCB.ORG#
       278**DCL       278--REDEF
F$DCB.PRECNO
       301**DCL       301--REDEF
F$DCB.RCSZ
       307**DCL       307--REDEF
F$DCB.RES#
       274**DCL       274--REDEF
F$DCB.SETX
       286**DCL       286--REDEF
F$DCB.TAB$
       286**DCL       286--REDEF
F$DCB.TDA
       300**DCL       301--REDEF
F$DCB.UOPT#
       276**DCL      4331>>IF
F$DCB.WSN#
       274**DCL       274--REDEF
F$DCB$
      4198**DCL       257--IMP-PTR  4263<<ASSIGN   4286<<ASSIGN   4288>>IF       4291>>ASSIGN   4292>>ASSIGN
      4295<<ASSIGN   4296>>ASSIGN   4297>>ASSIGN   4331>>IF       4338>>ASSIGN
FPT$
      4197**DCL       106--IMP-PTR   175--IMP-PTR  4259<<ASSIGN   4261>>ASSIGN   4262>>CALL     4269>>ASSIGN
      4270>>ASSIGN   4271>>CALL     4273>>ASSIGN   4276>>ASSIGN   4278>>ASSIGN   4279>>ASSIGN   4280>>CALL
      4282>>ASSIGN   4285>>ASSIGN   4305<<ASSIGN   4306>>ASSIGN   4309>>ASSIGN   4312>>ASSIGN   4315>>ASSIGN
      4321>>ASSIGN   4322>>ASSIGN   4323>>ASSIGN   4324>>ASSIGN   4325>>CALL     4327>>ASSIGN   4330>>ASSIGN
FPT$GETDCB
       106**DCL      4262<>CALL     4271<>CALL     4280<>CALL
FPT$GETDCB.V.MERGE#
       107**DCL      4270<<ASSIGN   4273<<ASSIGN   4276<<ASSIGN   4279<<ASSIGN   4282<<ASSIGN   4285<<ASSIGN
      4343<<ASSIGN
FPT$GETDCB.V.TEST#
       108**DCL      4261<<ASSIGN   4269<<ASSIGN   4278<<ASSIGN
FPT$MONINFO
       230**DCL      4380<>CALL
PL6.E3A0      #001=ZIM$HEREIAM File=ZIM$HEREIAM.:ZIC0TSI                         FRI 09/05/97 12:56 Page:84
FPT$OPNSCRB
       175**DCL      4325<>CALL
FPT$OPNSCRB.ACSVEH_
       177**DCL       178--REDEF
FPT$OPNSCRB.ALTKEYS_
       183**DCL       184--REDEF     184--REDEF
FPT$OPNSCRB.HDR_
       182**DCL       183--REDEF
FPT$OPNSCRB.TAB_
       181**DCL       182--REDEF
FPT$OPNSCRB.UHL_
       175**DCL       176--REDEF     176--REDEF
FPT$OPNSCRB.V.ACS#
       195**DCL      4309<<ASSIGN   4312<<ASSIGN   4315<<ASSIGN
FPT$OPNSCRB.V.DCB#
       184**DCL      4306<<ASSIGN
FPT$OPNSCRB.V.FSN#
       215**DCL       215--REDEF     215--REDEF
FPT$OPNSCRB.V.FUN#
       194**DCL      4323<<ASSIGN
FPT$OPNSCRB.V.INITZ.SCRUB#
       185**DCL      4324<<ASSIGN   4327<<ASSIGN   4330<<ASSIGN
FPT$OPNSCRB.V.ORG#
       195**DCL      4321<<ASSIGN
FPT$OPNSCRB.V.SHARE#
       189**DCL      4322<<ASSIGN
FPT$OPNSCRB.WSN_
       181**DCL       181--REDEF
FR.FNL
      2498**DCL      2502--IMP-SIZ
FR.UOFST.EIS.OFFSET
      2488**DCL      2491--REDEF
FR$
      2462**DCL      2463--IMP-PTR
GETDBCB
      4449**PROC     4217--CALL
PL6.E3A0      #001=ZIM$HEREIAM File=ZIM$HEREIAM.:ZIC0TSI                         FRI 09/05/97 12:56 Page:85
GETSSS
      4247**PROC     4213--CALL
GLOBAL.ACCT
      1574**DCL      4266<<ASSIGN   4292<<ASSIGN   4297<<ASSIGN
GLOBAL.ACTIVE.DBCB$
      1357**DCL      1358--REDEF    4593<<ASSIGN
GLOBAL.ACTIVE.DBNO
      1361**DCL      4206>>IF       4210>>ASSIGN   4212>>ASSIGN   4224>>IF       4226<<ASSIGN   4260>>IF
      4332>>ASSIGN   4334>>ASSIGN   4336>>ASSIGN   4337>>ASSIGN   4384>>IF       4388>>IF       4594>>ASSIGN
GLOBAL.ACTIVE.SSS$
      1353**DCL      1354--REDEF    4335<<ASSIGN   4365>>ASSIGN
GLOBAL.DB.COUNT
      1448**DCL      4218<<ASSIGN   4218>>ASSIGN   4307>>DOCASE
GLOBAL.DB.DBCB$
      1451**DCL      4594<<ASSIGN
GLOBAL.DB.FLAGS.NOTRANS
      1454**DCL      4332<<ASSIGN   4334<<ASSIGN   4388>>IF
GLOBAL.DB.FLAGS.SYSSUB
      1453**DCL      4210<<ASSIGN   4212<<ASSIGN   4260>>IF       4384>>IF
GLOBAL.DB.SSNAME
      1449**DCL      4337<<ASSIGN
GLOBAL.DB.SSS$
      1450**DCL      4224>>IF       4336<<ASSIGN
GLOBAL.DCBNAME
      1571**DCL      4287>>ASSIGN   4289>>ASSIGN
GLOBAL.DCBNAME.LENGTH
      1572**DCL      4253<<ASSIGN   4254>>DOWHILE  4255<<ASSIGN   4255>>ASSIGN   4256>>IF       4264>>ASSIGN
GLOBAL.DCBNAME.TEXT
      1573**DCL      4252<<ASSIGN
GLOBAL.DCBNUMBER
      1560**DCL      4263--ASSIGN   4277>>IF       4286--ASSIGN   4295--ASSIGN   4306>>ASSIGN
GLOBAL.FILENAME
      1568**DCL      4287<<ASSIGN   4289<<ASSIGN   4291<<ASSIGN   4296<<ASSIGN
GLOBAL.FILENAME.LENGTH
      1569**DCL      4264<<ASSIGN   4300>>IF       4301<<ASSIGN   4301>>ASSIGN   4302>>CALLBLT
GLOBAL.FILENAME.TEXT
PL6.E3A0      #001=ZIM$HEREIAM File=ZIM$HEREIAM.:ZIC0TSI                         FRI 09/05/97 12:56 Page:86
      1570**DCL      4265<<CALLBLT  4302<<CALLBLT
GLOBAL.GETDCB$
      1622**DCL      4259>>ASSIGN   4343>>ASSIGN
GLOBAL.KEY
      1561**DCL      1564--REDEF
GLOBAL.MONINFO$
      1640**DCL      4380>>CALL
GLOBAL.OPNSCRB$
      1610**DCL      4305>>ASSIGN
GLOBAL.PARAN.DBFSE.ID
      1417**DCL      4424<<ASSIGN
GLOBAL.PARAN.DBFSE.SSOFST
      1418**DCL      4441>>ASSIGN
GLOBAL.PARAN.DBFSE.TYPE
      1416**DCL      4423<<ASSIGN
GLOBAL.PARAN.TRACE.MODE
      1436**DCL      1443--REDEF
GLOBAL.PRINTBUF.BUFFER
      1595**DCL      1596--REDEF    1597--REDEF    1598--REDEF
GLOBAL.PRINTBUF.ERR.V
      1600**DCL      1603--REDEF    1604--REDEF    1605--REDEF
GLOBAL.RET.AC#
      1373**DCL      4351<<ASSIGN   4402<<ASSIGN   4663<<ASSIGN
GLOBAL.RET.ERROR#
      1371**DCL      4349>>IF       4355<<ASSIGN   4357>>IF       4400>>IF       4406<<ASSIGN   4408>>IF
      4430>>IF       4661>>IF       4667<<ASSIGN   4669>>IF
GLOBAL.RET.FR#
      1374**DCL      4354<<ASSIGN   4405<<ASSIGN   4666<<ASSIGN
GLOBAL.RET.RC#
      1376**DCL      4353<<ASSIGN   4404<<ASSIGN   4665<<ASSIGN
GLOBAL.RET.SC#
      1375**DCL      4352<<ASSIGN   4403<<ASSIGN   4664<<ASSIGN
GLOBAL.RET.SYSERR#
      1372**DCL      4345<<ASSIGN   4659<<ASSIGN
GLOBAL.SKEY
      1564**DCL      4602--ASSIGN
PL6.E3A0      #001=ZIM$HEREIAM File=ZIM$HEREIAM.:ZIC0TSI                         FRI 09/05/97 12:56 Page:87
GLOBAL.STYPE
      1588**DCL      4369<<ASSIGN   4371<<ASSIGN   4373<<ASSIGN   4375<<ASSIGN   4377<<ASSIGN   4379>>IF
GLOBAL.VLP$
      1628**DCL      4208>>ASSIGN   4221>>IF       4223>>CALL     4592>>ASSIGN
GLOBAL$
      1655**DCL      1351--IMP-PTR  4206>>IF       4208>>ASSIGN   4210>>ASSIGN   4210>>ASSIGN   4212>>ASSIGN
      4212>>ASSIGN   4218>>ASSIGN   4218>>ASSIGN   4221>>IF       4223>>CALL     4224>>IF       4224>>IF
      4226>>ASSIGN   4252>>ASSIGN   4253>>ASSIGN   4254>>DOWHILE  4255>>ASSIGN   4255>>ASSIGN   4256>>IF
      4259>>ASSIGN   4260>>IF       4260>>IF       4263>>ASSIGN   4264>>ASSIGN   4264>>ASSIGN   4265>>CALLBLT
      4266>>ASSIGN   4277>>IF       4286>>ASSIGN   4287>>ASSIGN   4287>>ASSIGN   4289>>ASSIGN   4289>>ASSIGN
      4291>>ASSIGN   4292>>ASSIGN   4295>>ASSIGN   4296>>ASSIGN   4297>>ASSIGN   4300>>IF       4301>>ASSIGN
      4301>>ASSIGN   4302>>CALLBLT  4302>>CALLBLT  4305>>ASSIGN   4306>>ASSIGN   4307>>DOCASE   4332>>ASSIGN
      4332>>ASSIGN   4334>>ASSIGN   4334>>ASSIGN   4335>>ASSIGN   4336>>ASSIGN   4336>>ASSIGN   4337>>ASSIGN
      4337>>ASSIGN   4343>>ASSIGN   4345>>ASSIGN   4349>>IF       4351>>ASSIGN   4352>>ASSIGN   4353>>ASSIGN
      4354>>ASSIGN   4355>>ASSIGN   4357>>IF       4365>>ASSIGN   4369>>ASSIGN   4371>>ASSIGN   4373>>ASSIGN
      4375>>ASSIGN   4377>>ASSIGN   4379>>IF       4380>>CALL     4384>>IF       4384>>IF       4388>>IF
      4388>>IF       4400>>IF       4402>>ASSIGN   4403>>ASSIGN   4404>>ASSIGN   4405>>ASSIGN   4406>>ASSIGN
      4408>>IF       4423>>ASSIGN   4424>>ASSIGN   4430>>IF       4441>>ASSIGN   4592>>ASSIGN   4593>>ASSIGN
      4594>>ASSIGN   4594>>ASSIGN   4602>>ASSIGN   4659>>ASSIGN   4661>>IF       4663>>ASSIGN   4664>>ASSIGN
      4665>>ASSIGN   4666>>ASSIGN   4667>>ASSIGN   4669>>IF
I IN PROCEDURE BINDRVA
      4416**DCL      4422<<DOINDEX  4423>>ASSIGN   4424>>ASSIGN   4441>>ASSIGN
I IN PROCEDURE BINDUPT
      4230**DCL      4236<<DOINDEX  4237>>ASSIGN   4237>>ASSIGN   4238>>IF       4239>>IF       4240>>ASSIGN
      4240>>ASSIGN
IA.EC
      3805**DCL      4367>>DOCASE
IA.SNAME
      3795**DCL      3796--REDEF    4386>>IF
IA.SSDT
      3807**DCL      3808--REDEF    4388>>IF
IA.SSNAME
      3798**DCL      3799--REDEF    4209>>IF       4209>>IF       4209>>IF       4252>>ASSIGN   4265>>CALLBLT
      4337>>ASSIGN   4381>>IF
IA.SSNCHAR
      3799**DCL      4254>>DOWHILE
PL6.E3A0      #001=ZIM$HEREIAM File=ZIM$HEREIAM.:ZIC0TSI                         FRI 09/05/97 12:56 Page:88
IA$
      3809**DCL      3774--IMP-PTR  4209>>IF       4209>>IF       4209>>IF       4252>>ASSIGN   4254>>DOWHILE
      4265>>CALLBLT  4337>>ASSIGN   4367>>DOCASE   4381>>IF       4386>>IF       4388>>IF
IASSCHK
      4364**PROC     4202--CALL     4214--CALL
KEYCNT IN PROCEDURE GETDBCB
      4521**DCL      4570<<ASSIGN   4580<<ASSIGN   4580>>ASSIGN
M$GETDCB
        29**DCL-ENT  4262--CALL     4271--CALL     4280--CALL
M$MONINFO
        91**DCL-ENT  4380--CALL
M$OPEN
        23**DCL-ENT  4325--CALL
NDSC.OFFSET.Y IN PROCEDURE GETDBCB
      4556**DCL      4643<<ASSIGN   4645<<ASSIGN   4647<<ASSIGN   4651<<ASSIGN   4655<<ASSIGN
NOT_THERE
      4206**LABEL    4199--CALLALT
OA
      2226**DCL      4381--IF
OA.ACNT
      2269**DCL      4586>>ASSIGN
OA.CIWSOF
      2277**DCL      4656>>ASSIGN
OA.CSZ
      2270**DCL      4583>>ASSIGN   4583>>ASSIGN
OA.LPASZ
      2278**DCL      4590>>ASSIGN
OA.LRSZ
      2271**DCL      4588>>ASSIGN   4589>>ASSIGN
OA.LSSZ
      2273**DCL      4583>>ASSIGN   4583>>ASSIGN
OA.SCNAM.EIS.COUNT
      2247**DCL      2282--IMP-SIZ  4381>>IF       4386>>IF
OA.SNAM
      2282**DCL      4386>>IF
OA.SSDT
PL6.E3A0      #001=ZIM$HEREIAM File=ZIM$HEREIAM.:ZIC0TSI                         FRI 09/05/97 12:56 Page:89
      2257**DCL      4388>>IF
OA.SSNAM.EIS.COUNT
      2256**DCL      4381>>IF
OA$
      2225**DCL      2226--IMP-PTR  4366<<ASSIGN   4381>>IF       4381>>IF       4381>>IF       4381>>IF
      4386>>IF       4386>>IF       4388>>IF       4583>>ASSIGN   4583>>ASSIGN   4583>>ASSIGN   4583>>ASSIGN
      4586>>ASSIGN   4588>>ASSIGN   4589>>ASSIGN   4590>>ASSIGN   4656>>ASSIGN
OA1
      2290**DCL      4366--ASSIGN   4564--ASSIGN   4572--ASSIGN
OA1$
      2289**DCL      2290--IMP-PTR
OFFSET.ATBL IN PROCEDURE GETDBCB
      4529**DCL      4583<<ASSIGN   4586>>ASSIGN   4599>>ASSIGN
OFFSET.IXBUF IN PROCEDURE GETDBCB
      4531**DCL      4588<<ASSIGN   4589>>ASSIGN   4601>>ASSIGN
OFFSET.PABUF IN PROCEDURE GETDBCB
      4532**DCL      4589<<ASSIGN   4590>>ASSIGN   4604>>ASSIGN
OFFSET.TBUF IN PROCEDURE GETDBCB
      4530**DCL      4586<<ASSIGN   4588>>ASSIGN   4600>>ASSIGN
OFFW IN PROCEDURE GETDBCB
      4527**DCL      4636<<ASSIGN   4638>>ASSIGN   4640>>ASSIGN   4641<<ASSIGN   4643>>ASSIGN   4645>>ASSIGN
      4647>>ASSIGN   4649>>ASSIGN   4651>>ASSIGN   4653>>ASSIGN   4655>>ASSIGN
PACNT IN PROCEDURE GETDBCB
      4522**DCL      4571<<ASSIGN   4577<<ASSIGN   4577>>ASSIGN
PTR$
      4196**DCL      4608<<ASSIGN   4610>>ASSIGN   4612>>ASSIGN   4613>>ASSIGN   4614>>ASSIGN   4615<<ASSIGN
      4616>>ASSIGN   4618>>ASSIGN   4619>>ASSIGN   4620<<ASSIGN   4621>>ASSIGN   4623>>ASSIGN   4624>>ASSIGN
      4629<<ASSIGN   4630>>ASSIGN   4632>>ASSIGN   4633>>ASSIGN   4634>>ASSIGN
RC.DEF.RNL
      2409**DCL      2419--IMP-SIZ
RC.OARCN
      2412**DCL      4565>>DOWHILE  4566>>ASSIGN
RC$
      2393**DCL      2394--IMP-PTR  4564<<ASSIGN   4565>>DOWHILE  4566<<ASSIGN   4566>>ASSIGN
RECCNT IN PROCEDURE GETDBCB
      4519**DCL      4563<<ASSIGN   4567<<ASSIGN   4567>>ASSIGN
PL6.E3A0      #001=ZIM$HEREIAM File=ZIM$HEREIAM.:ZIC0TSI                         FRI 09/05/97 12:56 Page:90
RFTBL IN PROCEDURE BINDUPT
      4232**DCL      4237>>ASSIGN
RVA.RVE.EO
      3828**DCL      3829--REDEF    4441<<ASSIGN
RVA.RVE.NAME
      3830**DCL      4240>>ASSIGN   4424>>ASSIGN
RVA.RVE.T
      3829**DCL      4423>>ASSIGN
RVA.W1.BOUND
      3824**DCL      4419>>IF       4443<<ASSIGN
RVA.W1.COUNT
      3825**DCL      4421>>ASSIGN
RVA$
      3821**DCL      3822--IMP-PTR  4240>>ASSIGN   4419>>IF       4421>>ASSIGN   4423>>ASSIGN   4424>>ASSIGN
      4441>>ASSIGN   4443>>ASSIGN
SC.DEF.SETM
      2429**DCL      4576>>IF
SC.DEF.SETT
      2437**DCL      4579>>IF       4579>>IF
SC.DEF.SNL
      2438**DCL      2443--IMP-SIZ
SC.OASCN
      2440**DCL      4573>>DOWHILE  4574>>ASSIGN
SC$
      2425**DCL      2426--IMP-PTR  4572<<ASSIGN   4573>>DOWHILE  4574<<ASSIGN   4574>>ASSIGN   4576>>IF
      4579>>IF       4579>>IF
SC1$
      2451**DCL      2452--IMP-PTR
SETCNT IN PROCEDURE GETDBCB
      4520**DCL      4569<<ASSIGN   4575<<ASSIGN   4575>>ASSIGN
SPANDBCB IN PROCEDURE GETDBCB
      4524**DCL      4597<<ASSIGN
SSACCT
      4194**DCL      4338<<ASSIGN   4598>>ASSIGN
SSNAME
      2283**DCL      4381>>IF
PL6.E3A0      #001=ZIM$HEREIAM File=ZIM$HEREIAM.:ZIC0TSI                         FRI 09/05/97 12:56 Page:91
SSS$
      1680**DCL      4310<<ASSIGN   4313<<ASSIGN   4316<<ASSIGN   4335>>ASSIGN   4336>>ASSIGN   4365<<ASSIGN
      4366>>ASSIGN   4564>>ASSIGN   4566>>ASSIGN   4572>>ASSIGN   4574>>ASSIGN
TALLYD IN PROCEDURE GETDBCB
      4535**DCL      4614>>ASSIGN   4619>>ASSIGN   4624>>ASSIGN   4634>>ASSIGN
TALLYD.DELTA IN PROCEDURE GETDBCB
      4538**DCL      4613<<ASSIGN   4633<<ASSIGN
TALLYD.TALLY IN PROCEDURE GETDBCB
      4537**DCL      4612<<ASSIGN   4618<<ASSIGN   4623<<ASSIGN   4632<<ASSIGN
TALLYD.Y IN PROCEDURE GETDBCB
      4536**DCL      4610<<ASSIGN   4616<<ASSIGN   4621<<ASSIGN   4630<<ASSIGN
UBSZ IN PROCEDURE GETDBCB
      4526**DCL      4582<<ASSIGN   4583>>ASSIGN   4583>>ASSIGN
UPT.UPTE.UCW
      3840**DCL      3855--REDEF
UPT.UPTE.UCW.A
      3854**DCL      4239>>IF       4240<<ASSIGN   4240>>ASSIGN
UPT.UPTE.UCW.PB.PG
      3843**DCL      3844--REDEF
UPT.UPTE.UCW.PB.PM
      3845**DCL      3846--REDEF
UPT.UPTE.UCW.PT
      3841**DCL      4237<<ASSIGN   4237>>ASSIGN   4238>>IF
UPT.W1.BOUND
      3836**DCL      4233>>IF       4242<<ASSIGN
UPT.W1.COUNT
      3837**DCL      4235>>ASSIGN
UPT$
      3833**DCL      3834--IMP-PTR  4233>>IF       4235>>ASSIGN   4237>>ASSIGN   4237>>ASSIGN   4238>>IF
      4239>>IF       4240>>ASSIGN   4240>>ASSIGN   4242>>ASSIGN
VLP$VECTOR.PTR$
       254**DCL      4208<<ASSIGN   4221>>IF       4223<>CALL     4592>>ASSIGN
VLP$VECTOR.W2
       253**DCL       254--REDEF
ZIB$ERR
      1656**DCL-ENT  4360--CALL     4411--CALL     4672--CALL
PL6.E3A0      #001=ZIM$HEREIAM File=ZIM$HEREIAM.:ZIC0TSI                         FRI 09/05/97 12:56 Page:92
ZIB$FIXREGS
      4193**DCL-ENT  4219--CALL
ZIO$CHKSSN
      4188**DCL-ENT  4199--CALL
ZIO$FREESEG
      4191**DCL-ENT  4223--CALL
ZIO$FREESSN
      4189**DCL-ENT  4225--CALL
ZIO$GETSEG
      4190**DCL-ENT  4591--CALL
ZIP$DBFSE IN PROCEDURE BINDRVA
      4418**DCL-ENT  4429--CALL
ZI_SSACCT IN PROCEDURE GETSSS
      4251**DCL      4266>>ASSIGN

PL6.E3A0      #002=ZIO$CHKSSN File=ZIM$HEREIAM.:ZIC0TSI                          FRI 09/05/97 12:56 Page:93
      451        1        /*T***********************************************************/
      452        2        /*T*                                                         */
      453        3        /*T* Copyright (c) Bull HN Information Systems Inc., 1997    */
      454        4        /*T*                                                         */
      455        5        /*T***********************************************************/
      456        6        ZIO$CHKSSN: PROC ALTRET
      457        7        /*          USE ($PR5 FOR GLOBAL$)  */
      458        8               AVOID($PR5,$PR6,$PR7,$X7);
      459        9    1   DCL J SBIN;
      460       10    1   DCL ZIB$FIXREGS ENTRY;
      461       11    1   DCL ZIO$FREESEG ENTRY(2);
      462       12        %INCLUDE CP_6_SUBS;
      463      552        %INCLUDE CP_6;
      464      633         %FPT_CLOSE(FPTN=FPT$CLOSE,STCLASS=BASED);
      465      675         %FPT_GETDCB(FPTN=FPT$GETDCB,STCLASS=BASED);
      466      690         %FPT_RELDCB(FPTN=FPT$RELDCB,STCLASS=BASED);
      467      704         %B$TCB;
      468      707         %B$ALT;
      469      715        %INCLUDE ZI$GLOBAL;
      470     1201         %GLOBALS;
      471     1509        %INCLUDE ZI$USER;
      472     1654         %IA;
      473     1703        %INCLUDE ZI_ERRORS_C;
      474     2029    1   DCL ERROR UBIN(36);
      475     2030    1   DCL B$TCB$ PTR SYMREF;
      476     2031    1       GLOBAL.ACTIVE.DBNO=0;
      477     2032    2       DO J=1 TO DB#MAX;
      478     2033    2           IF GLOBAL.DB.SSS$(J)=ADDR(NIL) THEN
      479     2034    2               IF GLOBAL.ACTIVE.DBNO=0 THEN
      480     2035    2                   GLOBAL.ACTIVE.DBNO=J;
      481     2036    2               ELSE;
      482     2037    2           ELSE
      483     2038    3               IF GLOBAL.DB.SSNAME(J)=IA.SSNAME THEN DO;
      484     2039    3                   GLOBAL.ACTIVE.DBNO=J;
      485     2040    3                   GLOBAL.ACTIVE.DBCB$=GLOBAL.DB.DBCB$(J);
      486     2041    3                   GLOBAL.ACTIVE.SSS$=GLOBAL.DB.SSS$(J);
      487     2042    3                   CALL ZIB$FIXREGS;
PL6.E3A0      #002=ZIO$CHKSSN File=ZIM$HEREIAM.:ZIC0TSI                          FRI 09/05/97 12:56 Page:94
      488     2043    3                   RETURN;
      489     2044    3                   END;
      490     2045    2           END;
      491     2046    1       ALTRETURN;
      492     2047        %EJECT;
PL6.E3A0      #002=ZIO$CHKSSN File=ZIM$HEREIAM.:ZIC0TSI                          FRI 09/05/97 12:56 Page:95
      493     2048    1   ZIO$FREESSN: ENTRY;
      494     2049    1       GLOBAL.DCBNAME.TEXT=GLOBAL.DB.SSNAME(GLOBAL.ACTIVE.DBNO);
      495     2050    1       GLOBAL.DCBNAME.LENGTH=30;
      496     2051    2       DO WHILE (SUBSTR(GLOBAL.DCBNAME.TEXT,GLOBAL.DCBNAME.LENGTH-1,1)=' ');
      497     2052    2           GLOBAL.DCBNAME.LENGTH=GLOBAL.DCBNAME.LENGTH-1;
      498     2053    2           END;
      499     2054    1       CALL M$GETDCB(GLOBAL.GETDCB$->FPT$GETDCB) ALTRET(ER_GDCB);
      500     2055    1       GLOBAL.CLOSE$->FPT$CLOSE.V.DCB#=GLOBAL.DCBNUMBER;
      501     2056    1       CALL M$CLOSE(GLOBAL.CLOSE$->FPT$CLOSE) ALTRET(ER_CL);
      502     2057    1       GLOBAL.RELDCB$->FPT$RELDCB.V.DCB#=GLOBAL.DCBNUMBER;
      503     2058    1       CALL M$RELDCB(GLOBAL.RELDCB$->FPT$RELDCB) ALTRET(ER_RDCB);
      504     2059    1       IF GLOBAL.DB.DBCB$(GLOBAL.ACTIVE.DBNO)~=ADDR(NIL) THEN
      505     2060    1           CALL ZIO$FREESEG(GLOBAL.DB.DBCB$(GLOBAL.ACTIVE.DBNO));
      506     2061    1       GLOBAL.DB.DBCB$(GLOBAL.ACTIVE.DBNO)=ADDR(NIL);
      507     2062    1       GLOBAL.DB.SSS$(GLOBAL.ACTIVE.DBNO)=ADDR(NIL);
      508     2063    1       GLOBAL.ACTIVE.DBNO=0;
      509     2064    1       RETURN;
      510     2065    1   ER_CL: ;
      511     2066    1   ER_RDCB: ;
      512     2067    1   ER_GDCB: ERROR=ERR#LC#05;
      513     2068    1       GLOBAL.RET.SYSERR#=B$TCB$->B$TCB.ALT$->B$ALT.ERR;
      514     2069    1       GLOBAL.RET.DCB#=GLOBAL.DCBNUMBER;
      515     2070            %DBALT;
      516     2084    1   END ZIO$CHKSSN;
      517     2085        %EOD;

PL6.E3A0      #002=ZIO$CHKSSN File=ZIM$HEREIAM.:ZIC0TSI                          FRI 09/05/97 12:56 Page:96
--  Include file information  --

   ZI_ERRORS_C.:ZIC0TOU  is referenced.
   ZI$USER.:ZIC0TOU  is referenced.
   ZI$GLOBAL.:ZIC0TOU  is referenced.
   CP_6.:LIB_E05  cannot be made into a system file and is referenced.
   CP_6_SUBS.:LIB_E05  is referenced.
   B$JIT_C.:E05TOU  was found in the system file and is never referenced.
   CP_6_C.:E05TOU  was found in the system file and is referenced.
      No diagnostics issued in procedure ZIO$CHKSSN.

   Procedure ZIO$CHKSSN requires 132 words for executable code.
   Procedure ZIO$CHKSSN requires 8 words of local(AUTO) storage.

PL6.E3A0      #002=ZIO$CHKSSN File=ZIM$HEREIAM.:ZIC0TSI                          FRI 09/05/97 12:56 Page:97

 Object Unit name= ZIO$CHKSSN                                 File name= ZIM$HEREIAM.:ZIC0TOU
 UTS= SEP 05 '97 12:56:26.08 FRI                              Compiler= PL-6/E31         Sev=      00
 SharedLib= :SHARED_SYSTEM                                    Alt SharedLib=


    ****  Control sections  ****

 Sect   Type Bound  Init  Size OctSiz  Section name(segment info)
    0   DCB   even  none     0      0  M$UC
    1   Proc  even  none   132    204  ZIO$CHKSSN
    2  RoData even  none     4      4  ZIO$CHKSSN

    ****  Entry defs  ****

                              Check   Calling
                             calling  sequence
  Sect OctLoc Primary Altret sequence   type   Parms  Name
     1      0   yes    yes     yes      XStd       0  ZIO$CHKSSN
     1     47          yes     yes      XStd       0  ZIO$FREESSN

  ****  Entry refs  ****

         Check        Calling
        calling       sequence
Altret sequence SRef   type   Args  Name
         yes           XStd      0 ZIB$FIXREGS
         yes           XStd      2 ZIO$FREESEG
         yes           XStd      0 ZIB$ERR
                       nStd      0 X66_AUTO_0
                       nStd      0 X66_ARET
                       nStd      0 X66_AALT
PL6.E3A0      #002=ZIO$CHKSSN File=ZIM$HEREIAM.:ZIC0TSI                          FRI 09/05/97 12:56 Page:98

  ****  Data refs  ****

  Flags:  r = read only, s = secondary
Flgs Name                             Flgs Name                             Flgs Name
     M$UC                             r    GLOBAL$                               IA$
     B$TCB$

  ****  Segment refs  ****

  Flags:  r = read only, s = secondary
Flgs Name                             Flgs Name                             Flgs Name
     NULLSID
PL6.E3A0      #002=ZIO$CHKSSN File=ZIM$HEREIAM.:ZIC0TSI                          FRI 09/05/97 12:56 Page:99


      451        1        /*T***********************************************************/
      452        2        /*T*                                                         */
      453        3        /*T* Copyright (c) Bull HN Information Systems Inc., 1997    */
      454        4        /*T*                                                         */
      455        5        /*T***********************************************************/
      456        6        ZIO$CHKSSN: PROC ALTRET

      6  1 000000   000000 700200 xent  ZIO$CHKSSN   TSX0  ! X66_AUTO_0
         1 000001   000010 000000                    ZERO    8,0

      457        7        /*          USE ($PR5 FOR GLOBAL$)  */
      458        8               AVOID($PR5,$PR6,$PR7,$X7);
      459        9    1   DCL J SBIN;
      460       10    1   DCL ZIB$FIXREGS ENTRY;
      461       11    1   DCL ZIO$FREESEG ENTRY(2);
      462       12        %INCLUDE CP_6_SUBS;
      463      552        %INCLUDE CP_6;
      464      633         %FPT_CLOSE(FPTN=FPT$CLOSE,STCLASS=BASED);
      465      675         %FPT_GETDCB(FPTN=FPT$GETDCB,STCLASS=BASED);
      466      690         %FPT_RELDCB(FPTN=FPT$RELDCB,STCLASS=BASED);
      467      704         %B$TCB;
      468      707         %B$ALT;
      469      715        %INCLUDE ZI$GLOBAL;
      470     1201         %GLOBALS;
      471     1509        %INCLUDE ZI$USER;
      472     1654         %IA;
      473     1703        %INCLUDE ZI_ERRORS_C;
      474     2029    1   DCL ERROR UBIN(36);
      475     2030    1   DCL B$TCB$ PTR SYMREF;
      476     2031    1       GLOBAL.ACTIVE.DBNO=0;

   2031  1 000002   000000 470400 xsym               LDP0    GLOBAL$
         1 000003   000002 450100                    STZ     2,,PR0

      477     2032    2       DO J=1 TO DB#MAX;

PL6.E3A0      #002=ZIO$CHKSSN File=ZIM$HEREIAM.:ZIC0TSI                          FRI 09/05/97 12:56 Page:100
   2032  1 000004   000001 235007                    LDA     1,DL
         1 000005   200003 755100                    STA     J,,AUTO
         1 000006   000043 710000 1                  TRA     s:2045+1

      478     2033    2           IF GLOBAL.DB.SSS$(J)=ADDR(NIL) THEN

   2033  1 000007   000000 470400 xsym               LDP0    GLOBAL$
         1 000010   200003 720100                    LXL0    J,,AUTO
         1 000011   000153 236110                    LDQ     107,X0,PR0
         1 000012   000000 116000 2                  CMPQ    0
         1 000013   000021 601000 1                  TNZ     s:2038

      479     2034    2               IF GLOBAL.ACTIVE.DBNO=0 THEN

   2034  1 000014   000002 235100                    LDA     2,,PR0
         1 000015   000042 601000 1                  TNZ     s:2045

      480     2035    2                   GLOBAL.ACTIVE.DBNO=J;

   2035  1 000016   200003 235100                    LDA     J,,AUTO
         1 000017   000002 755100                    STA     2,,PR0
         1 000020   000042 710000 1                  TRA     s:2045

      481     2036    2               ELSE;
      482     2037    2           ELSE
      483     2038    3               IF GLOBAL.DB.SSNAME(J)=IA.SSNAME THEN DO;

   2038  1 000021   200003 236100                    LDQ     J,,AUTO
         1 000022   000036 402007                    MPY     30,DL
         1 000023   000000 471400 xsym               LDP1    IA$
         1 000024   040100 106506                    CMPC    fill='040'O
         1 000025   000076 000036                    ADSC9   62,Q,PR0                 cn=0,n=30
         1 000026   100022 000036                    ADSC9   18,,PR1                  cn=0,n=30
         1 000027   000042 601000 1                  TNZ     s:2045

      484     2039    3                   GLOBAL.ACTIVE.DBNO=J;

PL6.E3A0      #002=ZIO$CHKSSN File=ZIM$HEREIAM.:ZIC0TSI                          FRI 09/05/97 12:56 Page:101
   2039  1 000030   200003 235100                    LDA     J,,AUTO
         1 000031   000002 755100                    STA     2,,PR0

      485     2040    3                   GLOBAL.ACTIVE.DBCB$=GLOBAL.DB.DBCB$(J);

   2040  1 000032   000161 236110                    LDQ     113,X0,PR0
         1 000033   000001 756100                    STQ     1,,PR0

      486     2041    3                   GLOBAL.ACTIVE.SSS$=GLOBAL.DB.SSS$(J);

   2041  1 000034   000153 236110                    LDQ     107,X0,PR0
         1 000035   000000 756100                    STQ     0,,PR0

      487     2042    3                   CALL ZIB$FIXREGS;

   2042  1 000036   000001 631400 2                  EPPR1   1
         1 000037   000000 701000 xent               TSX1    ZIB$FIXREGS
         1 000040   000000 011000                    NOP     0

      488     2043    3                   RETURN;

   2043  1 000041   000000 702200 xent               TSX2  ! X66_ARET

      489     2044    3                   END;
      490     2045    2           END;

   2045  1 000042   200003 054100                    AOS     J,,AUTO
         1 000043   200003 235100                    LDA     J,,AUTO
         1 000044   000005 115007                    CMPA    5,DL
         1 000045   000007 604400 1                  TMOZ    s:2033

      491     2046    1       ALTRETURN;

   2046  1 000046   000000 702200 xent               TSX2  ! X66_AALT

      492     2047        %EJECT;
PL6.E3A0      #002=ZIO$CHKSSN File=ZIM$HEREIAM.:ZIC0TSI                          FRI 09/05/97 12:56 Page:102
      493     2048    1   ZIO$FREESSN: ENTRY;

   2048  1 000047   000000 700200 xent  ZIO$FREESSN  TSX0  ! X66_AUTO_0
         1 000050   000010 000000                    ZERO    8,0

      494     2049    1       GLOBAL.DCBNAME.TEXT=GLOBAL.DB.SSNAME(GLOBAL.ACTIVE.DBNO);

   2049  1 000051   000000 470400 xsym               LDP0    GLOBAL$
         1 000052   000002 235100                    LDA     2,,PR0
         1 000053   000044 733000                    LRS     36
         1 000054   000036 402007                    MPY     30,DL
         1 000055   040100 100506                    MLR     fill='040'O
         1 000056   000076 000036                    ADSC9   62,Q,PR0                 cn=0,n=30
         1 000057   004734 200037                    ADSC9   2524,,PR0                cn=1,n=31

      495     2050    1       GLOBAL.DCBNAME.LENGTH=30;

   2050  1 000060   036000 236003                    LDQ     15360,DU
         1 000061   004734 552140                    STBQ    2524,'40'O,PR0

      496     2051    2       DO WHILE (SUBSTR(GLOBAL.DCBNAME.TEXT,GLOBAL.DCBNAME.LENGTH-1,1)=' ');

   2051  1 000062   000067 710000 1                  TRA     s:2053

      497     2052    2           GLOBAL.DCBNAME.LENGTH=GLOBAL.DCBNAME.LENGTH-1;

   2052  1 000063   000000 470400 xsym               LDP0    GLOBAL$
         1 000064   004734 236100                    LDQ     2524,,PR0
         1 000065   777000 036003                    ADLQ    -512,DU
         1 000066   004734 552140                    STBQ    2524,'40'O,PR0

      498     2053    2           END;

   2053  1 000067   004734 236100                    LDQ     2524,,PR0
         1 000070   000033 772000                    QRL     27
         1 000071   040000 106506                    CMPC    fill='040'O
         1 000072   004734 000001                    ADSC9   2524,Q,PR0               cn=0,n=1
PL6.E3A0      #002=ZIO$CHKSSN File=ZIM$HEREIAM.:ZIC0TSI                          FRI 09/05/97 12:56 Page:103
         1 000073   000002 000001 2                  ADSC9   2                        cn=0,n=1
         1 000074   000063 600000 1                  TZE     s:2052

      499     2054    1       CALL M$GETDCB(GLOBAL.GETDCB$->FPT$GETDCB) ALTRET(ER_GDCB);

   2054  1 000075   005104 471500                    LDP1    2628,,PR0
         1 000076   100000 630500                    EPPR0   0,,PR1
         1 000077   460002 713400                    CLIMB   alt,+24578
         1 000100   401000 401760                    pmme    nvectors=3
         1 000101   000154 702000 1                  TSX2    ER_CL

      500     2055    1       GLOBAL.CLOSE$->FPT$CLOSE.V.DCB#=GLOBAL.DCBNUMBER;

   2055  1 000102   000000 470400 xsym               LDP0    GLOBAL$
         1 000103   005072 471500                    LDP1    2618,,PR0
         1 000104   004623 720100                    LXL0    2451,,PR0
         1 000105   100032 740100                    STX0    26,,PR1

      501     2056    1       CALL M$CLOSE(GLOBAL.CLOSE$->FPT$CLOSE) ALTRET(ER_CL);

   2056  1 000106   005072 471500                    LDP1    2618,,PR0
         1 000107   100000 630500                    EPPR0   0,,PR1
         1 000110   450001 713400                    CLIMB   alt,close
         1 000111   406000 401760                    pmme    nvectors=13
         1 000112   000154 702000 1                  TSX2    ER_CL

      502     2057    1       GLOBAL.RELDCB$->FPT$RELDCB.V.DCB#=GLOBAL.DCBNUMBER;

   2057  1 000113   000000 470400 xsym               LDP0    GLOBAL$
         1 000114   005105 471500                    LDP1    2629,,PR0
         1 000115   004623 720100                    LXL0    2451,,PR0
         1 000116   100002 740100                    STX0    2,,PR1

      503     2058    1       CALL M$RELDCB(GLOBAL.RELDCB$->FPT$RELDCB) ALTRET(ER_RDCB);

   2058  1 000117   005105 471500                    LDP1    2629,,PR0
         1 000120   100000 630500                    EPPR0   0,,PR1
PL6.E3A0      #002=ZIO$CHKSSN File=ZIM$HEREIAM.:ZIC0TSI                          FRI 09/05/97 12:56 Page:104
         1 000121   460003 713400                    CLIMB   alt,+24579
         1 000122   400000 401760                    pmme    nvectors=1
         1 000123   000154 702000 1                  TSX2    ER_CL

      504     2059    1       IF GLOBAL.DB.DBCB$(GLOBAL.ACTIVE.DBNO)~=ADDR(NIL) THEN

   2059  1 000124   000000 470400 xsym               LDP0    GLOBAL$
         1 000125   000002 235100                    LDA     2,,PR0
         1 000126   000161 236105                    LDQ     113,AL,PR0
         1 000127   000000 116000 2                  CMPQ    0
         1 000130   000143 600000 1                  TZE     s:2061

      505     2060    1           CALL ZIO$FREESEG(GLOBAL.DB.DBCB$(GLOBAL.ACTIVE.DBNO));

   2060  1 000131   000002 235100                    LDA     2,,PR0
         1 000132   000044 733000                    LRS     36
         1 000133   000022 736000                    QLS     18
         1 000134   000161 036003                    ADLQ    113,DU
         1 000135   000000 036000 xsym               ADLQ    GLOBAL$
         1 000136   200006 756100                    STQ     ERROR+2,,AUTO
         1 000137   200006 630500                    EPPR0   ERROR+2,,AUTO
         1 000140   000003 631400 2                  EPPR1   3
         1 000141   000000 701000 xent               TSX1    ZIO$FREESEG
         1 000142   000000 011000                    NOP     0

      506     2061    1       GLOBAL.DB.DBCB$(GLOBAL.ACTIVE.DBNO)=ADDR(NIL);

   2061  1 000143   000000 470400 xsym               LDP0    GLOBAL$
         1 000144   000002 235100                    LDA     2,,PR0
         1 000145   000000 236000 2                  LDQ     0
         1 000146   000161 756105                    STQ     113,AL,PR0

      507     2062    1       GLOBAL.DB.SSS$(GLOBAL.ACTIVE.DBNO)=ADDR(NIL);

   2062  1 000147   000002 235100                    LDA     2,,PR0
         1 000150   000000 236000 2                  LDQ     0
         1 000151   000153 756105                    STQ     107,AL,PR0
PL6.E3A0      #002=ZIO$CHKSSN File=ZIM$HEREIAM.:ZIC0TSI                          FRI 09/05/97 12:56 Page:105

      508     2063    1       GLOBAL.ACTIVE.DBNO=0;

   2063  1 000152   000002 450100                    STZ     2,,PR0

      509     2064    1       RETURN;

   2064  1 000153   000000 702200 xent               TSX2  ! X66_ARET

   2063  1 000154                       ER_CL        null
   2063  1 000154                       ER_RDCB      null
      510     2065    1   ER_CL: ;
      511     2066    1   ER_RDCB: ;
      512     2067    1   ER_GDCB: ERROR=ERR#LC#05;

   2067  1 000154   210653 235007       ER_GDCB      LDA     70059,DL
         1 000155   200004 755100                    STA     ERROR,,AUTO

      513     2068    1       GLOBAL.RET.SYSERR#=B$TCB$->B$TCB.ALT$->B$ALT.ERR;

   2068  1 000156   000000 470400 xsym               LDP0    B$TCB$
         1 000157   000000 471500                    LDP1    0,,PR0
         1 000160   100102 236100                    LDQ     66,,PR1
         1 000161   000000 473400 xsym               LDP3    GLOBAL$
         1 000162   300007 756100                    STQ     7,,PR3

      514     2069    1       GLOBAL.RET.DCB#=GLOBAL.DCBNUMBER;

   2069  1 000163   304623 720100                    LXL0    2451,,PR3
         1 000164   300014 740100                    STX0    12,,PR3

      515     2070            %DBALT;

   2071  1 000165   300006 235100                    LDA     6,,PR3
         1 000166   000175 601000 1                  TNZ     s:2079

   2073  1 000167   300010 450100                    STZ     8,,PR3
PL6.E3A0      #002=ZIO$CHKSSN File=ZIM$HEREIAM.:ZIC0TSI                          FRI 09/05/97 12:56 Page:106

   2074  1 000170   300012 450100                    STZ     10,,PR3

   2075  1 000171   300013 450100                    STZ     11,,PR3

   2076  1 000172   300011 450100                    STZ     9,,PR3

   2077  1 000173   200004 235100                    LDA     ERROR,,AUTO
         1 000174   300006 755100                    STA     6,,PR3

   2079  1 000175   303240 115007                    CMPA    100000,DL
         1 000176   000200 603000 1                  TRC     s:2082

   2080  1 000177   000000 702200 xent               TSX2  ! X66_AALT

   2082  1 000200   000001 631400 2                  EPPR1   1
         1 000201   000000 701000 xent               TSX1    ZIB$ERR
         1 000202   000000 011000                    NOP     0

      516     2084    1   END ZIO$CHKSSN;

   2084  1 000203   000000 702200 xent               TSX2  ! X66_ARET

(unnamed)
 Sect OctLoc
   2     000   000000 006014   000000 000000   040040 040040   000001 000000    ........    ....
      517     2085        %EOD;

PL6.E3A0      #002=ZIO$CHKSSN File=ZIM$HEREIAM.:ZIC0TSI                          FRI 09/05/97 12:56 Page:107
--  Include file information  --

   ZI_ERRORS_C.:ZIC0TOU  is referenced.
   ZI$USER.:ZIC0TOU  is referenced.
   ZI$GLOBAL.:ZIC0TOU  is referenced.
   CP_6.:LIB_E05  cannot be made into a system file and is referenced.
   CP_6_SUBS.:LIB_E05  is referenced.
   B$JIT_C.:E05TOU  was found in the system file and is never referenced.
   CP_6_C.:E05TOU  was found in the system file and is referenced.
      No diagnostics issued in procedure ZIO$CHKSSN.

   Procedure ZIO$CHKSSN requires 132 words for executable code.
   Procedure ZIO$CHKSSN requires 8 words of local(AUTO) storage.
PL6.E3A0      #002=ZIO$CHKSSN File=ZIM$HEREIAM.:ZIC0TSI                          FRI 09/05/97 12:56 Page:108
          *** CROSS REFERENCE LISTING ***
**     DENOTES     IDENTIFIER DEFINITION
<<                 IDENTIFIER'S VALUE SET
>>                 IDENTIFIER'S VALUE USED
<>                 IDENTIFIER SET AND/OR USED
--                 IDENTIFIER REFERENCED
PL6.E3A0      #002=ZIO$CHKSSN File=ZIM$HEREIAM.:ZIC0TSI                          FRI 09/05/97 12:56 Page:109
          MINI XREF LISTING

B$ALT.CODE
       709**DCL       709--REDEF     710--REDEF     710--REDEF
B$ALT.ERR
       710**DCL      2068>>ASSIGN
B$ALT.ERR.ERR#
       711**DCL       711--REDEF
B$ALT.EVID
       710**DCL       710--REDEF     710--REDEF
B$TCB.ALT$
       705**DCL      2068>>ASSIGN
B$TCB$
      2030**DCL      2068>>ASSIGN
ERROR
      2029**DCL      2067<<ASSIGN   2077>>ASSIGN
ER_CL
      2063**LABEL    2056--CALLALT
ER_GDCB
      2067**LABEL    2054--CALLALT
ER_RDCB
      2063**LABEL    2058--CALLALT
FPT$CLOSE
       656**DCL      2056<>CALL
FPT$CLOSE.SN_
       656**DCL       656--REDEF
FPT$CLOSE.UTL_
       657**DCL       657--REDEF
FPT$CLOSE.V.DCB#
       662**DCL      2055<<ASSIGN
FPT$CLOSE.V.EXPIRE#
       671**DCL       671--REDEF
FPT$CLOSE.V.TYPE#
       669**DCL       669--REDEF
PL6.E3A0      #002=ZIO$CHKSSN File=ZIM$HEREIAM.:ZIC0TSI                          FRI 09/05/97 12:56 Page:110
FPT$CLOSE.V.XTNSIZE#
       666**DCL       666--REDEF     668--REDEF
FPT$GETDCB
       686**DCL      2054<>CALL
FPT$RELDCB
       701**DCL      2058<>CALL
FPT$RELDCB.V.DCB#
       701**DCL      2057<<ASSIGN
GLOBAL.ACTIVE.DBCB$
      1208**DCL      1209--REDEF    2040<<ASSIGN
GLOBAL.ACTIVE.DBNO
      1212**DCL      2031<<ASSIGN   2034>>IF       2035<<ASSIGN   2039<<ASSIGN   2049>>ASSIGN   2059>>IF
      2060>>CALL     2061>>ASSIGN   2062>>ASSIGN   2063<<ASSIGN
GLOBAL.ACTIVE.SSS$
      1204**DCL      1205--REDEF    2041<<ASSIGN
GLOBAL.CLOSE$
      1463**DCL      2055>>ASSIGN   2056>>CALL
GLOBAL.DB.DBCB$
      1302**DCL      2040>>ASSIGN   2059>>IF       2060<>CALL     2061<<ASSIGN
GLOBAL.DB.SSNAME
      1300**DCL      2038>>IF       2049>>ASSIGN
GLOBAL.DB.SSS$
      1301**DCL      2032--DOINDEX  2032--DOINDEX  2033>>IF       2041>>ASSIGN   2062<<ASSIGN
GLOBAL.DCBNAME.LENGTH
      1423**DCL      2050<<ASSIGN   2051>>DOWHILE  2052<<ASSIGN   2052>>ASSIGN
GLOBAL.DCBNAME.TEXT
      1424**DCL      2049<<ASSIGN   2051>>DOWHILE
GLOBAL.DCBNUMBER
      1411**DCL      2055>>ASSIGN   2057>>ASSIGN   2069>>ASSIGN
GLOBAL.GETDCB$
      1473**DCL      2054>>CALL
GLOBAL.KEY
      1412**DCL      1415--REDEF
GLOBAL.PARAN.TRACE.MODE
      1287**DCL      1294--REDEF
GLOBAL.PRINTBUF.BUFFER
PL6.E3A0      #002=ZIO$CHKSSN File=ZIM$HEREIAM.:ZIC0TSI                          FRI 09/05/97 12:56 Page:111
      1446**DCL      1447--REDEF    1448--REDEF    1449--REDEF
GLOBAL.PRINTBUF.ERR.V
      1451**DCL      1454--REDEF    1455--REDEF    1456--REDEF
GLOBAL.RELDCB$
      1474**DCL      2057>>ASSIGN   2058>>CALL
GLOBAL.RET.AC#
      1224**DCL      2073<<ASSIGN
GLOBAL.RET.DCB#
      1228**DCL      2069<<ASSIGN
GLOBAL.RET.ERROR#
      1222**DCL      2071>>IF       2077<<ASSIGN   2079>>IF
GLOBAL.RET.FR#
      1225**DCL      2076<<ASSIGN
GLOBAL.RET.RC#
      1227**DCL      2075<<ASSIGN
GLOBAL.RET.SC#
      1226**DCL      2074<<ASSIGN
GLOBAL.RET.SYSERR#
      1223**DCL      2068<<ASSIGN
GLOBAL$
      1506**DCL      1202--IMP-PTR  2031>>ASSIGN   2033>>IF       2034>>IF       2035>>ASSIGN   2038>>IF
      2039>>ASSIGN   2040>>ASSIGN   2040>>ASSIGN   2041>>ASSIGN   2041>>ASSIGN   2049>>ASSIGN   2049>>ASSIGN
      2049>>ASSIGN   2050>>ASSIGN   2051>>DOWHILE  2051>>DOWHILE  2052>>ASSIGN   2052>>ASSIGN   2054>>CALL
      2055>>ASSIGN   2055>>ASSIGN   2056>>CALL     2057>>ASSIGN   2057>>ASSIGN   2058>>CALL     2059>>IF
      2059>>IF       2060>>CALL     2060>>CALL     2061>>ASSIGN   2061>>ASSIGN   2062>>ASSIGN   2062>>ASSIGN
      2063>>ASSIGN   2068>>ASSIGN   2069>>ASSIGN   2069>>ASSIGN   2071>>IF       2073>>ASSIGN   2074>>ASSIGN
      2075>>ASSIGN   2076>>ASSIGN   2077>>ASSIGN   2079>>IF
IA.SNAME
      1679**DCL      1680--REDEF
IA.SSDT
      1691**DCL      1692--REDEF
IA.SSNAME
      1682**DCL      1683--REDEF    2038>>IF
IA$
      1693**DCL      1658--IMP-PTR  2038>>IF
J
PL6.E3A0      #002=ZIO$CHKSSN File=ZIM$HEREIAM.:ZIC0TSI                          FRI 09/05/97 12:56 Page:112
         9**DCL      2032<<DOINDEX  2033>>IF       2035>>ASSIGN   2038>>IF       2039>>ASSIGN   2040>>ASSIGN
      2041>>ASSIGN
M$CLOSE
       561**DCL-ENT  2056--CALL
M$GETDCB
       567**DCL-ENT  2054--CALL
M$RELDCB
       567**DCL-ENT  2058--CALL
ZIB$ERR
      1507**DCL-ENT  2082--CALL
ZIB$FIXREGS
        10**DCL-ENT  2042--CALL
ZIO$FREESEG
        11**DCL-ENT  2060--CALL

PL6.E3A0      #003=ZIP$DBFSE File=ZIM$HEREIAM.:ZIC0TSI                           FRI 09/05/97 12:56 Page:113
      518        1        /*T***********************************************************/
      519        2        /*T*                                                         */
      520        3        /*T* Copyright (c) Bull HN Information Systems Inc., 1997    */
      521        4        /*T*                                                         */
      522        5        /*T***********************************************************/
      523        6        ZIP$DBFSE: PROC ALTRET
      524        7         /* USE($PR5 FOR GLOBAL$) */
      525        8               AVOID($PR5,$PR6,$PR7);
      526        9        %INCLUDE ZI$SSS;
      527      558            %OA1;
      528      566            %OA;
      529      631            %AC;
      530      726            %RC;
      531      758            %SC;
      532      785            %FR;
      533      831        %INCLUDE ZI$GLOBAL;
      534     1317            %GLOBALS;
      535     1625        %INCLUDE ZI_ERRORS_C;
      536     1951    1   DCL ERROR UBIN(36) ALIGNED;
      537     1952    1   DCL RCID UBIN(18);
      538     1953    1       SSS$=GLOBAL.ACTIVE.SSS$; /* Try materialize */
      539     1954    1       ERROR=1;
      540     1955    2       DO CASE (GLOBAL.PARAN.DBFSE.TYPE);
      541     1956    2       CASE(0);
      542     1957    2           AC$=PINCRW(SSS$,SIZEW(OA1));
      543     1958    3           DO WHILE (AC.OAACN~=0 AND ERROR=1);
      544     1959    3               AC$=PINCRW(SSS$,AC.OAACN);
      545     1960    3               IF GLOBAL.PARAN.DBFSE.ID=AC.ACID THEN
      546     1961    4               DO;
      547     1962    4                   GLOBAL.PARAN.DBFSE.SSOFST=POFFW(AC$,SSS$);
      548     1963    4                   GLOBAL.PARAN.DBFSE.WSOFST=AC.WSOF;
      549     1964    4                   ERROR=0;
      550     1965    4                   END;
      551     1966    3               END;
      552     1967    2       CASE(1);
      553     1968    2           SC$=PINCRW(SSS$,SIZEW(OA1));
      554     1969    3           DO WHILE (SC.OASCN~=0 AND ERROR=1);
PL6.E3A0      #003=ZIP$DBFSE File=ZIM$HEREIAM.:ZIC0TSI                           FRI 09/05/97 12:56 Page:114
      555     1970    3               SC$=PINCRW(SSS$,SC.OASCN);
      556     1971    3               IF GLOBAL.PARAN.DBFSE.ID=SC.SCID THEN
      557     1972    4               DO;
      558     1973    4                   GLOBAL.PARAN.DBFSE.SSOFST=POFFW(SC$,SSS$);
      559     1974    4                   GLOBAL.PARAN.DBFSE.WSOFST=SC.SCWSO;
      560     1975    4                   ERROR=0;
      561     1976    4                   END;
      562     1977    3               END;
      563     1978    2       CASE(2);
      564     1979    2           RC$=PINCRW(SSS$,SIZEW(OA1));
      565     1980    3           DO WHILE (RC.OARCN~=0 AND ERROR=1);
      566     1981    3               RC$=PINCRW(SSS$,RC.OARCN);
      567     1982    3               IF GLOBAL.PARAN.DBFSE.ID=RC.RCID THEN
      568     1983    4               DO;
      569     1984    4                   GLOBAL.PARAN.DBFSE.SSOFST=POFFW(RC$,SSS$);
      570     1985    4                   GLOBAL.PARAN.DBFSE.WSOFST=RC.RCWSO;
      571     1986    4                   ERROR=0;
      572     1987    4                   END;
      573     1988    3               END;
      574     1989    2       CASE(3);
      575     1990    2           RC$=PINCRW(SSS$,SIZEW(OA1));
      576     1991    3           DO WHILE (RC.OARCN~=0 AND ERROR=1);
      577     1992    3               RC$=PINCRW(SSS$,RC.OARCN);
      578     1993    4               IF RC.OARCN~=0 THEN DO;
      579     1994    4                   RCID=PINCRW(SSS$,RC.OARCN)->RC.RCID;
      580     1995    4                   IF RCID~=0 AND
      581     1996    4                      GLOBAL.PARAN.DBFSE.ID>RCID THEN
      582     1997    4                       GOTO NEXTRC;
      583     1998    4                   END;
      584     1999    3               FR$=RC$;
      585     2000    4               DO WHILE (FR.RCFRN~=0 AND ERROR=1);
      586     2001    4                   FR$=PINCRW(SSS$,FR.RCFRN);
      587     2002    4                   IF FR.DEF.SYN='0'B AND
      588     2003    4                      GLOBAL.PARAN.DBFSE.ID=FR.UOFST.EIS.FRID THEN
      589     2004    5                   DO;
      590     2005    5                       GLOBAL.PARAN.DBFSE.SSOFST=POFFW(FR$,SSS$);
      591     2006    5                       GLOBAL.PARAN.DBFSE.WSOFST=FR.FRWSO;
PL6.E3A0      #003=ZIP$DBFSE File=ZIM$HEREIAM.:ZIC0TSI                           FRI 09/05/97 12:56 Page:115
      592     2007    5                       ERROR=0;
      593     2008    5                       END;
      594     2009    4                   END;
      595     2010    3   NEXTRC:     END;
      596     2011    2       CASE(4);
      597     2012    2           GLOBAL.PARAN.DBFSE.SSOFST=0;
      598     2013    2           GLOBAL.PARAN.DBFSE.WSOFST=0;
      599     2014    2           ERROR=0;
      600     2015    2       CASE(5);
      601     2016    2           OA$=PINCRW(SSS$,SIZEW(OA1));
      602     2017    2           GLOBAL.PARAN.DBFSE.SSOFST=OA.CLCSC;
      603     2018    2           GLOBAL.PARAN.DBFSE.WSOFST=
      604     2019    2              PINCRW(SSS$,GLOBAL.PARAN.DBFSE.SSOFST)->SC.SCWSO;
      605     2020    2           ERROR=0;
      606     2021    2           END;
      607     2022    1       IF ERROR=0 THEN
      608     2023    1           RETURN;
      609     2024    1       ERROR=ERR#RY#E1;
      610     2025            %DBALT;
      611     2039    1       ALTRETURN;
      612     2040    1   END ZIP$DBFSE;

PL6.E3A0      #003=ZIP$DBFSE File=ZIM$HEREIAM.:ZIC0TSI                           FRI 09/05/97 12:56 Page:116
--  Include file information  --

   ZI_ERRORS_C.:ZIC0TOU  is referenced.
   ZI$GLOBAL.:ZIC0TOU  is referenced.
   ZI$SSS.:ZIC0TOU  cannot be made into a system file and is referenced.
   B$JIT_C.:E05TOU  was found in the system file and is never referenced.
   CP_6_C.:E05TOU  was found in the system file and is never referenced.
      No diagnostics issued in procedure ZIP$DBFSE.

   Procedure ZIP$DBFSE requires 212 words for executable code.
   Procedure ZIP$DBFSE requires 14 words of local(AUTO) storage.

    No errors detected in file ZIM$HEREIAM.:ZIC0TSI    .

PL6.E3A0      #003=ZIP$DBFSE File=ZIM$HEREIAM.:ZIC0TSI                           FRI 09/05/97 12:56 Page:117

 Object Unit name= ZIP$DBFSE                                  File name= ZIM$HEREIAM.:ZIC0TOU
 UTS= SEP 05 '97 12:56:33.96 FRI                              Compiler= PL-6/E31         Sev=      00
 SharedLib= :SHARED_SYSTEM                                    Alt SharedLib=


    ****  Control sections  ****

 Sect   Type Bound  Init  Size OctSiz  Section name(segment info)
    0   Proc  even  none   212    324  ZIP$DBFSE
    1  RoData even  none     2      2  ZIP$DBFSE

    ****  Entry defs  ****

                              Check   Calling
                             calling  sequence
  Sect OctLoc Primary Altret sequence   type   Parms  Name
     0      0   yes    yes     yes      XStd       0  ZIP$DBFSE

  ****  Entry refs  ****

         Check        Calling
        calling       sequence
Altret sequence SRef   type   Args  Name
         yes           XStd      0 ZIB$ERR
                       nStd      0 X66_AUTO_0
                       nStd      0 X66_ARET
                       nStd      0 X66_AALT

  ****  Data refs  ****

  Flags:  r = read only, s = secondary
Flgs Name                             Flgs Name                             Flgs Name
r    GLOBAL$
PL6.E3A0      #003=ZIP$DBFSE File=ZIM$HEREIAM.:ZIC0TSI                           FRI 09/05/97 12:56 Page:118

  ****  Segment refs  ****

  Flags:  r = read only, s = secondary
Flgs Name                             Flgs Name                             Flgs Name
     NULLSID
PL6.E3A0      #003=ZIP$DBFSE File=ZIM$HEREIAM.:ZIC0TSI                           FRI 09/05/97 12:56 Page:119


      518        1        /*T***********************************************************/
      519        2        /*T*                                                         */
      520        3        /*T* Copyright (c) Bull HN Information Systems Inc., 1997    */
      521        4        /*T*                                                         */
      522        5        /*T***********************************************************/
      523        6        ZIP$DBFSE: PROC ALTRET

      6  0 000000   000000 700200 xent  ZIP$DBFSE    TSX0  ! X66_AUTO_0
         0 000001   000016 000000                    ZERO    14,0

      524        7         /* USE($PR5 FOR GLOBAL$) */
      525        8               AVOID($PR5,$PR6,$PR7);
      526        9        %INCLUDE ZI$SSS;
      527      558            %OA1;
      528      566            %OA;
      529      631            %AC;
      530      726            %RC;
      531      758            %SC;
      532      785            %FR;
      533      831        %INCLUDE ZI$GLOBAL;
      534     1317            %GLOBALS;
      535     1625        %INCLUDE ZI_ERRORS_C;
      536     1951    1   DCL ERROR UBIN(36) ALIGNED;
      537     1952    1   DCL RCID UBIN(18);
      538     1953    1       SSS$=GLOBAL.ACTIVE.SSS$; /* Try materialize */

   1953  0 000002   000000 470400 xsym               LDP0    GLOBAL$
         0 000003   000000 236100                    LDQ     0,,PR0
         0 000004   200003 756100                    STQ     SSS$,,AUTO

      539     1954    1       ERROR=1;

   1954  0 000005   000001 235007                    LDA     1,DL
         0 000006   200012 755100                    STA     ERROR,,AUTO

      540     1955    2       DO CASE (GLOBAL.PARAN.DBFSE.TYPE);
PL6.E3A0      #003=ZIP$DBFSE File=ZIM$HEREIAM.:ZIC0TSI                           FRI 09/05/97 12:56 Page:120

   1955  0 000007   000037 220100                    LDX0    31,,PR0
         0 000010   000006 100003                    CMPX0   6,DU
         0 000011   000013 602010 0                  TNC     s:1955+4,X0
         0 000012   000277 710000 0                  TRA     s:2022
         0 000013   000021 710000 0                  TRA     s:1957
         0 000014   000061 710000 0                  TRA     s:1968
         0 000015   000121 710000 0                  TRA     s:1979
         0 000016   000161 710000 0                  TRA     s:1990
         0 000017   000261 710000 0                  TRA     s:2012
         0 000020   000266 710000 0                  TRA     s:2016

      541     1956    2       CASE(0);

      542     1957    2           AC$=PINCRW(SSS$,SIZEW(OA1));

   1957  0 000021   000001 036003                    ADLQ    1,DU
         0 000022   200006 756100                    STQ     AC$,,AUTO

      543     1958    3           DO WHILE (AC.OAACN~=0 AND ERROR=1);

   1958  0 000023   000052 710000 0                  TRA     s:1966

      544     1959    3               AC$=PINCRW(SSS$,AC.OAACN);

   1959  0 000024   200006 470500                    LDP0    AC$,,AUTO
         0 000025   000001 220100                    LDX0    1,,PR0
         0 000026   000000 636010                    EAQ     0,X0
         0 000027   200003 036100                    ADLQ    SSS$,,AUTO
         0 000030   200006 756100                    STQ     AC$,,AUTO

      545     1960    3               IF GLOBAL.PARAN.DBFSE.ID=AC.ACID THEN

   1960  0 000031   200006 470500                    LDP0    AC$,,AUTO
         0 000032   000000 471400 xsym               LDP1    GLOBAL$
         0 000033   100037 236100                    LDQ     31,,PR1
         0 000034   000003 676100                    ERQ     3,,PR0
PL6.E3A0      #003=ZIP$DBFSE File=ZIM$HEREIAM.:ZIC0TSI                           FRI 09/05/97 12:56 Page:121
         0 000035   777777 376007                    ANQ     -1,DL
         0 000036   000052 601000 0                  TNZ     s:1966

      546     1961    4               DO;

      547     1962    4                   GLOBAL.PARAN.DBFSE.SSOFST=POFFW(AC$,SSS$);

   1962  0 000037   200003 235100                    LDA     SSS$,,AUTO
         0 000040   000022 771000                    ARL     18
         0 000041   200014 755100                    STA     RCID+1,,AUTO
         0 000042   200006 236100                    LDQ     AC$,,AUTO
         0 000043   000022 772000                    QRL     18
         0 000044   200014 136100                    SBLQ    RCID+1,,AUTO
         0 000045   000000 620006                    EAX0    0,QL
         0 000046   100040 740100                    STX0    32,,PR1

      548     1963    4                   GLOBAL.PARAN.DBFSE.WSOFST=AC.WSOF;

   1963  0 000047   000003 221100                    LDX1    3,,PR0
         0 000050   100040 441100                    SXL1    32,,PR1

      549     1964    4                   ERROR=0;

   1964  0 000051   200012 450100                    STZ     ERROR,,AUTO

      550     1965    4                   END;

      551     1966    3               END;

   1966  0 000052   200006 470500                    LDP0    AC$,,AUTO
         0 000053   000001 220100                    LDX0    1,,PR0
         0 000054   000060 600000 0                  TZE     s:1966+6
         0 000055   200012 235100                    LDA     ERROR,,AUTO
         0 000056   000001 115007                    CMPA    1,DL
         0 000057   000024 600000 0                  TZE     s:1959
         0 000060   000277 710000 0                  TRA     s:2022

PL6.E3A0      #003=ZIP$DBFSE File=ZIM$HEREIAM.:ZIC0TSI                           FRI 09/05/97 12:56 Page:122
      552     1967    2       CASE(1);

      553     1968    2           SC$=PINCRW(SSS$,SIZEW(OA1));

   1968  0 000061   000001 036003                    ADLQ    1,DU
         0 000062   200010 756100                    STQ     SC$,,AUTO

      554     1969    3           DO WHILE (SC.OASCN~=0 AND ERROR=1);

   1969  0 000063   000112 710000 0                  TRA     s:1977

      555     1970    3               SC$=PINCRW(SSS$,SC.OASCN);

   1970  0 000064   200010 470500                    LDP0    SC$,,AUTO
         0 000065   000001 720100                    LXL0    1,,PR0
         0 000066   000000 636010                    EAQ     0,X0
         0 000067   200003 036100                    ADLQ    SSS$,,AUTO
         0 000070   200010 756100                    STQ     SC$,,AUTO

      556     1971    3               IF GLOBAL.PARAN.DBFSE.ID=SC.SCID THEN

   1971  0 000071   200010 470500                    LDP0    SC$,,AUTO
         0 000072   000000 471400 xsym               LDP1    GLOBAL$
         0 000073   100037 236100                    LDQ     31,,PR1
         0 000074   000002 676100                    ERQ     2,,PR0
         0 000075   777777 376007                    ANQ     -1,DL
         0 000076   000112 601000 0                  TNZ     s:1977

      557     1972    4               DO;

      558     1973    4                   GLOBAL.PARAN.DBFSE.SSOFST=POFFW(SC$,SSS$);

   1973  0 000077   200003 235100                    LDA     SSS$,,AUTO
         0 000100   000022 771000                    ARL     18
         0 000101   200014 755100                    STA     RCID+1,,AUTO
         0 000102   200010 236100                    LDQ     SC$,,AUTO
         0 000103   000022 772000                    QRL     18
PL6.E3A0      #003=ZIP$DBFSE File=ZIM$HEREIAM.:ZIC0TSI                           FRI 09/05/97 12:56 Page:123
         0 000104   200014 136100                    SBLQ    RCID+1,,AUTO
         0 000105   000000 620006                    EAX0    0,QL
         0 000106   100040 740100                    STX0    32,,PR1

      559     1974    4                   GLOBAL.PARAN.DBFSE.WSOFST=SC.SCWSO;

   1974  0 000107   000001 221100                    LDX1    1,,PR0
         0 000110   100040 441100                    SXL1    32,,PR1

      560     1975    4                   ERROR=0;

   1975  0 000111   200012 450100                    STZ     ERROR,,AUTO

      561     1976    4                   END;

      562     1977    3               END;

   1977  0 000112   200010 470500                    LDP0    SC$,,AUTO
         0 000113   000001 720100                    LXL0    1,,PR0
         0 000114   000120 600000 0                  TZE     s:1977+6
         0 000115   200012 235100                    LDA     ERROR,,AUTO
         0 000116   000001 115007                    CMPA    1,DL
         0 000117   000064 600000 0                  TZE     s:1970
         0 000120   000277 710000 0                  TRA     s:2022

      563     1978    2       CASE(2);

      564     1979    2           RC$=PINCRW(SSS$,SIZEW(OA1));

   1979  0 000121   000001 036003                    ADLQ    1,DU
         0 000122   200007 756100                    STQ     RC$,,AUTO

      565     1980    3           DO WHILE (RC.OARCN~=0 AND ERROR=1);

   1980  0 000123   000152 710000 0                  TRA     s:1988

      566     1981    3               RC$=PINCRW(SSS$,RC.OARCN);
PL6.E3A0      #003=ZIP$DBFSE File=ZIM$HEREIAM.:ZIC0TSI                           FRI 09/05/97 12:56 Page:124

   1981  0 000124   200007 470500                    LDP0    RC$,,AUTO
         0 000125   000002 220100                    LDX0    2,,PR0
         0 000126   000000 636010                    EAQ     0,X0
         0 000127   200003 036100                    ADLQ    SSS$,,AUTO
         0 000130   200007 756100                    STQ     RC$,,AUTO

      567     1982    3               IF GLOBAL.PARAN.DBFSE.ID=RC.RCID THEN

   1982  0 000131   200007 470500                    LDP0    RC$,,AUTO
         0 000132   000000 471400 xsym               LDP1    GLOBAL$
         0 000133   100037 236100                    LDQ     31,,PR1
         0 000134   000001 676100                    ERQ     1,,PR0
         0 000135   777777 376007                    ANQ     -1,DL
         0 000136   000152 601000 0                  TNZ     s:1988

      568     1983    4               DO;

      569     1984    4                   GLOBAL.PARAN.DBFSE.SSOFST=POFFW(RC$,SSS$);

   1984  0 000137   200003 235100                    LDA     SSS$,,AUTO
         0 000140   000022 771000                    ARL     18
         0 000141   200014 755100                    STA     RCID+1,,AUTO
         0 000142   200007 236100                    LDQ     RC$,,AUTO
         0 000143   000022 772000                    QRL     18
         0 000144   200014 136100                    SBLQ    RCID+1,,AUTO
         0 000145   000000 620006                    EAX0    0,QL
         0 000146   100040 740100                    STX0    32,,PR1

      570     1985    4                   GLOBAL.PARAN.DBFSE.WSOFST=RC.RCWSO;

   1985  0 000147   000004 221100                    LDX1    4,,PR0
         0 000150   100040 441100                    SXL1    32,,PR1

      571     1986    4                   ERROR=0;

   1986  0 000151   200012 450100                    STZ     ERROR,,AUTO
PL6.E3A0      #003=ZIP$DBFSE File=ZIM$HEREIAM.:ZIC0TSI                           FRI 09/05/97 12:56 Page:125

      572     1987    4                   END;

      573     1988    3               END;

   1988  0 000152   200007 470500                    LDP0    RC$,,AUTO
         0 000153   000002 220100                    LDX0    2,,PR0
         0 000154   000160 600000 0                  TZE     s:1988+6
         0 000155   200012 235100                    LDA     ERROR,,AUTO
         0 000156   000001 115007                    CMPA    1,DL
         0 000157   000124 600000 0                  TZE     s:1981
         0 000160   000277 710000 0                  TRA     s:2022

      574     1989    2       CASE(3);

      575     1990    2           RC$=PINCRW(SSS$,SIZEW(OA1));

   1990  0 000161   000001 036003                    ADLQ    1,DU
         0 000162   200007 756100                    STQ     RC$,,AUTO

      576     1991    3           DO WHILE (RC.OARCN~=0 AND ERROR=1);

   1991  0 000163   000252 710000 0                  TRA     NEXTRC

      577     1992    3               RC$=PINCRW(SSS$,RC.OARCN);

   1992  0 000164   200007 470500                    LDP0    RC$,,AUTO
         0 000165   000002 220100                    LDX0    2,,PR0
         0 000166   000000 636010                    EAQ     0,X0
         0 000167   200003 036100                    ADLQ    SSS$,,AUTO
         0 000170   200007 756100                    STQ     RC$,,AUTO

      578     1993    4               IF RC.OARCN~=0 THEN DO;

   1993  0 000171   200007 470500                    LDP0    RC$,,AUTO
         0 000172   000002 220100                    LDX0    2,,PR0
         0 000173   000205 600000 0                  TZE     s:1999
PL6.E3A0      #003=ZIP$DBFSE File=ZIM$HEREIAM.:ZIC0TSI                           FRI 09/05/97 12:56 Page:126

      579     1994    4                   RCID=PINCRW(SSS$,RC.OARCN)->RC.RCID;

   1994  0 000174   200003 471500                    LDP1    SSS$,,AUTO
         0 000175   100001 721110                    LXL1    1,X0,PR1
         0 000176   200013 741100                    STX1    RCID,,AUTO

      580     1995    4                   IF RCID~=0 AND

   1995  0 000177   000205 600000 0                  TZE     s:1999
         0 000200   000000 473400 xsym               LDP3    GLOBAL$
         0 000201   300037 722100                    LXL2    31,,PR3
         0 000202   200013 102100                    CMPX2   RCID,,AUTO
         0 000203   000205 600000 0                  TZE     s:1999
         0 000204   000252 603000 0                  TRC     NEXTRC

      581     1996    4                      GLOBAL.PARAN.DBFSE.ID>RCID THEN
      582     1997    4                       GOTO NEXTRC;
      583     1998    4                   END;

      584     1999    3               FR$=RC$;

   1999  0 000205   200011 756100                    STQ     FR$,,AUTO

      585     2000    4               DO WHILE (FR.RCFRN~=0 AND ERROR=1);

   2000  0 000206   000244 710000 0                  TRA     s:2009

      586     2001    4                   FR$=PINCRW(SSS$,FR.RCFRN);

   2001  0 000207   200011 470500                    LDP0    FR$,,AUTO
         0 000210   000004 720100                    LXL0    4,,PR0
         0 000211   000000 636010                    EAQ     0,X0
         0 000212   200003 036100                    ADLQ    SSS$,,AUTO
         0 000213   200011 756100                    STQ     FR$,,AUTO

      587     2002    4                   IF FR.DEF.SYN='0'B AND
PL6.E3A0      #003=ZIP$DBFSE File=ZIM$HEREIAM.:ZIC0TSI                           FRI 09/05/97 12:56 Page:127

   2002  0 000214   200011 470500                    LDP0    FR$,,AUTO
         0 000215   000000 236100                    LDQ     0,,PR0
         0 000216   004000 316007                    CANQ    2048,DL
         0 000217   000244 601000 0                  TNZ     s:2009
         0 000220   000002 236100                    LDQ     2,,PR0
         0 000221   000017 772000                    QRL     15
         0 000222   777777 376007                    ANQ     -1,DL
         0 000223   200014 756100                    STQ     RCID+1,,AUTO
         0 000224   000000 471400 xsym               LDP1    GLOBAL$
         0 000225   100037 236100                    LDQ     31,,PR1
         0 000226   777777 376007                    ANQ     -1,DL
         0 000227   200014 116100                    CMPQ    RCID+1,,AUTO
         0 000230   000244 601000 0                  TNZ     s:2009

      588     2003    4                      GLOBAL.PARAN.DBFSE.ID=FR.UOFST.EIS.FRID THEN
      589     2004    5                   DO;

      590     2005    5                       GLOBAL.PARAN.DBFSE.SSOFST=POFFW(FR$,SSS$);

   2005  0 000231   200003 235100                    LDA     SSS$,,AUTO
         0 000232   000022 771000                    ARL     18
         0 000233   200014 755100                    STA     RCID+1,,AUTO
         0 000234   200011 236100                    LDQ     FR$,,AUTO
         0 000235   000022 772000                    QRL     18
         0 000236   200014 136100                    SBLQ    RCID+1,,AUTO
         0 000237   000000 620006                    EAX0    0,QL
         0 000240   100040 740100                    STX0    32,,PR1

      591     2006    5                       GLOBAL.PARAN.DBFSE.WSOFST=FR.FRWSO;

   2006  0 000241   000005 721100                    LXL1    5,,PR0
         0 000242   100040 441100                    SXL1    32,,PR1

      592     2007    5                       ERROR=0;

   2007  0 000243   200012 450100                    STZ     ERROR,,AUTO
PL6.E3A0      #003=ZIP$DBFSE File=ZIM$HEREIAM.:ZIC0TSI                           FRI 09/05/97 12:56 Page:128

      593     2008    5                       END;

      594     2009    4                   END;

   2009  0 000244   200011 470500                    LDP0    FR$,,AUTO
         0 000245   000004 720100                    LXL0    4,,PR0
         0 000246   000252 600000 0                  TZE     NEXTRC
         0 000247   200012 235100                    LDA     ERROR,,AUTO
         0 000250   000001 115007                    CMPA    1,DL
         0 000251   000207 600000 0                  TZE     s:2001

      595     2010    3   NEXTRC:     END;

   2010  0 000252   200007 470500       NEXTRC       LDP0    RC$,,AUTO
         0 000253   000002 220100                    LDX0    2,,PR0
         0 000254   000260 600000 0                  TZE     NEXTRC+6
         0 000255   200012 235100                    LDA     ERROR,,AUTO
         0 000256   000001 115007                    CMPA    1,DL
         0 000257   000164 600000 0                  TZE     s:1992
         0 000260   000277 710000 0                  TRA     s:2022

      596     2011    2       CASE(4);

      597     2012    2           GLOBAL.PARAN.DBFSE.SSOFST=0;

   2012  0 000261   000000 221003                    LDX1    0,DU
         0 000262   000040 741100                    STX1    32,,PR0

      598     2013    2           GLOBAL.PARAN.DBFSE.WSOFST=0;

   2013  0 000263   000040 441100                    SXL1    32,,PR0

      599     2014    2           ERROR=0;

   2014  0 000264   200012 450100                    STZ     ERROR,,AUTO
         0 000265   000277 710000 0                  TRA     s:2022
PL6.E3A0      #003=ZIP$DBFSE File=ZIM$HEREIAM.:ZIC0TSI                           FRI 09/05/97 12:56 Page:129

      600     2015    2       CASE(5);

      601     2016    2           OA$=PINCRW(SSS$,SIZEW(OA1));

   2016  0 000266   000001 036003                    ADLQ    1,DU
         0 000267   200005 756100                    STQ     OA$,,AUTO

      602     2017    2           GLOBAL.PARAN.DBFSE.SSOFST=OA.CLCSC;

   2017  0 000270   200005 471500                    LDP1    OA$,,AUTO
         0 000271   100003 221100                    LDX1    3,,PR1
         0 000272   000040 741100                    STX1    32,,PR0

      603     2018    2           GLOBAL.PARAN.DBFSE.WSOFST=

   2018  0 000273   200003 473500                    LDP3    SSS$,,AUTO
         0 000274   300001 222111                    LDX2    1,X1,PR3
         0 000275   000040 442100                    SXL2    32,,PR0

      604     2019    2              PINCRW(SSS$,GLOBAL.PARAN.DBFSE.SSOFST)->SC.SCWSO;
      605     2020    2           ERROR=0;

   2020  0 000276   200012 450100                    STZ     ERROR,,AUTO

      606     2021    2           END;

      607     2022    1       IF ERROR=0 THEN

   2022  0 000277   200012 235100                    LDA     ERROR,,AUTO
         0 000300   000302 601000 0                  TNZ     s:2024

      608     2023    1           RETURN;

   2023  0 000301   000000 702200 xent               TSX2  ! X66_ARET

      609     2024    1       ERROR=ERR#RY#E1;
PL6.E3A0      #003=ZIP$DBFSE File=ZIM$HEREIAM.:ZIC0TSI                           FRI 09/05/97 12:56 Page:130

   2024  0 000302   210620 236007                    LDQ     70032,DL
         0 000303   200012 756100                    STQ     ERROR,,AUTO

      610     2025            %DBALT;

   2026  0 000304   000000 470400 xsym               LDP0    GLOBAL$
         0 000305   000006 235100                    LDA     6,,PR0
         0 000306   000314 601000 0                  TNZ     s:2034

   2028  0 000307   000010 450100                    STZ     8,,PR0

   2029  0 000310   000012 450100                    STZ     10,,PR0

   2030  0 000311   000013 450100                    STZ     11,,PR0

   2031  0 000312   000011 450100                    STZ     9,,PR0

   2032  0 000313   000006 756100                    STQ     6,,PR0

   2034  0 000314   000006 235100                    LDA     6,,PR0
         0 000315   303240 115007                    CMPA    100000,DL
         0 000316   000320 603000 0                  TRC     s:2037

   2035  0 000317   000000 702200 xent               TSX2  ! X66_AALT

   2037  0 000320   000001 631400 1                  EPPR1   1
         0 000321   000000 701000 xent               TSX1    ZIB$ERR
         0 000322   000000 011000                    NOP     0

      611     2039    1       ALTRETURN;

   2039  0 000323   000000 702200 xent               TSX2  ! X66_AALT

(unnamed)
 Sect OctLoc
   1     000   000000 006014   000000 000000                                    ........
PL6.E3A0      #003=ZIP$DBFSE File=ZIM$HEREIAM.:ZIC0TSI                           FRI 09/05/97 12:56 Page:131
      612     2040    1   END ZIP$DBFSE;

PL6.E3A0      #003=ZIP$DBFSE File=ZIM$HEREIAM.:ZIC0TSI                           FRI 09/05/97 12:56 Page:132
--  Include file information  --

   ZI_ERRORS_C.:ZIC0TOU  is referenced.
   ZI$GLOBAL.:ZIC0TOU  is referenced.
   ZI$SSS.:ZIC0TOU  cannot be made into a system file and is referenced.
   B$JIT_C.:E05TOU  was found in the system file and is never referenced.
   CP_6_C.:E05TOU  was found in the system file and is never referenced.
      No diagnostics issued in procedure ZIP$DBFSE.

   Procedure ZIP$DBFSE requires 212 words for executable code.
   Procedure ZIP$DBFSE requires 14 words of local(AUTO) storage.

    No errors detected in file ZIM$HEREIAM.:ZIC0TSI    .
PL6.E3A0      #003=ZIP$DBFSE File=ZIM$HEREIAM.:ZIC0TSI                           FRI 09/05/97 12:56 Page:133
          *** CROSS REFERENCE LISTING ***
**     DENOTES     IDENTIFIER DEFINITION
<<                 IDENTIFIER'S VALUE SET
>>                 IDENTIFIER'S VALUE USED
<>                 IDENTIFIER SET AND/OR USED
--                 IDENTIFIER REFERENCED
PL6.E3A0      #003=ZIP$DBFSE File=ZIM$HEREIAM.:ZIC0TSI                           FRI 09/05/97 12:56 Page:134
          MINI XREF LISTING

AC.ACID
       656**DCL      1960>>IF
AC.DEF.ANL
       651**DCL       722--IMP-SIZ
AC.DEF.FORG
       638**DCL       642--REDEF
AC.OAACN
       652**DCL      1958>>DOWHILE  1959>>ASSIGN
AC.WSOF
       655**DCL      1963>>ASSIGN
AC$
       634**DCL       635--IMP-PTR  1957<<ASSIGN   1958>>DOWHILE  1959<<ASSIGN   1959>>ASSIGN   1960>>IF
      1962>>ASSIGN   1963>>ASSIGN
ERROR
      1951**DCL      1954<<ASSIGN   1958>>DOWHILE  1964<<ASSIGN   1969>>DOWHILE  1975<<ASSIGN   1980>>DOWHILE
      1986<<ASSIGN   1991>>DOWHILE  2000>>DOWHILE  2007<<ASSIGN   2014<<ASSIGN   2020<<ASSIGN   2022>>IF
      2024<<ASSIGN   2032>>ASSIGN
FR.DEF.SYN
       797**DCL      2002>>IF
FR.FNL
       824**DCL       828--IMP-SIZ
FR.FRWSO
       827**DCL      2006>>ASSIGN
FR.RCFRN
       825**DCL      2000>>DOWHILE  2001>>ASSIGN
FR.UOFST.EIS.FRID
       817**DCL      2002>>IF
FR.UOFST.EIS.OFFSET
       814**DCL       817--REDEF
FR$
       788**DCL       789--IMP-PTR  1999<<ASSIGN   2000>>DOWHILE  2001<<ASSIGN   2001>>ASSIGN   2002>>IF
      2002>>IF       2005>>ASSIGN   2006>>ASSIGN
PL6.E3A0      #003=ZIP$DBFSE File=ZIM$HEREIAM.:ZIC0TSI                           FRI 09/05/97 12:56 Page:135
GLOBAL.ACTIVE.DBCB$
      1324**DCL      1325--REDEF
GLOBAL.ACTIVE.SSS$
      1320**DCL      1321--REDEF    1953>>ASSIGN
GLOBAL.KEY
      1528**DCL      1531--REDEF
GLOBAL.PARAN.DBFSE.ID
      1384**DCL      1960>>IF       1971>>IF       1982>>IF       1995>>IF       2002>>IF
GLOBAL.PARAN.DBFSE.SSOFST
      1385**DCL      1962<<ASSIGN   1973<<ASSIGN   1984<<ASSIGN   2005<<ASSIGN   2012<<ASSIGN   2017<<ASSIGN
      2018>>ASSIGN
GLOBAL.PARAN.DBFSE.TYPE
      1383**DCL      1955>>DOCASE
GLOBAL.PARAN.DBFSE.WSOFST
      1386**DCL      1963<<ASSIGN   1974<<ASSIGN   1985<<ASSIGN   2006<<ASSIGN   2013<<ASSIGN   2018<<ASSIGN
GLOBAL.PARAN.TRACE.MODE
      1403**DCL      1410--REDEF
GLOBAL.PRINTBUF.BUFFER
      1562**DCL      1563--REDEF    1564--REDEF    1565--REDEF
GLOBAL.PRINTBUF.ERR.V
      1567**DCL      1570--REDEF    1571--REDEF    1572--REDEF
GLOBAL.RET.AC#
      1340**DCL      2028<<ASSIGN
GLOBAL.RET.ERROR#
      1338**DCL      2026>>IF       2032<<ASSIGN   2034>>IF
GLOBAL.RET.FR#
      1341**DCL      2031<<ASSIGN
GLOBAL.RET.RC#
      1343**DCL      2030<<ASSIGN
GLOBAL.RET.SC#
      1342**DCL      2029<<ASSIGN
GLOBAL$
      1622**DCL      1318--IMP-PTR  1953>>ASSIGN   1955>>DOCASE   1960>>IF       1962>>ASSIGN   1963>>ASSIGN
      1971>>IF       1973>>ASSIGN   1974>>ASSIGN   1982>>IF       1984>>ASSIGN   1985>>ASSIGN   1995>>IF
      2002>>IF       2005>>ASSIGN   2006>>ASSIGN   2012>>ASSIGN   2013>>ASSIGN   2017>>ASSIGN   2018>>ASSIGN
      2018>>ASSIGN   2026>>IF       2028>>ASSIGN   2029>>ASSIGN   2030>>ASSIGN   2031>>ASSIGN   2032>>ASSIGN
PL6.E3A0      #003=ZIP$DBFSE File=ZIM$HEREIAM.:ZIC0TSI                           FRI 09/05/97 12:56 Page:136
      2034>>IF
NEXTRC
      2010**LABEL    1997--GOTO
OA.CLCSC
       581**DCL      2017>>ASSIGN
OA.SCNAM.EIS.COUNT
       591**DCL       626--IMP-SIZ
OA$
       569**DCL       570--IMP-PTR  2016<<ASSIGN   2017>>ASSIGN
OA1
       561**DCL      1957--ASSIGN   1968--ASSIGN   1979--ASSIGN   1990--ASSIGN   2016--ASSIGN
OA1$
       560**DCL       561--IMP-PTR
RC.DEF.RNL
       745**DCL       755--IMP-SIZ
RC.OARCN
       748**DCL      1980>>DOWHILE  1981>>ASSIGN   1991>>DOWHILE  1992>>ASSIGN   1993>>IF       1994>>ASSIGN
RC.RCID
       747**DCL      1982>>IF       1994>>ASSIGN
RC.RCWSO
       753**DCL      1985>>ASSIGN
RC$
       729**DCL       730--IMP-PTR  1979<<ASSIGN   1980>>DOWHILE  1981<<ASSIGN   1981>>ASSIGN   1982>>IF
      1984>>ASSIGN   1985>>ASSIGN   1990<<ASSIGN   1991>>DOWHILE  1992<<ASSIGN   1992>>ASSIGN   1993>>IF
      1994>>ASSIGN   1999>>ASSIGN
RCID
      1952**DCL      1994<<ASSIGN   1995>>IF       1995>>IF
SC.DEF.SNL
       774**DCL       779--IMP-SIZ
SC.OASCN
       776**DCL      1969>>DOWHILE  1970>>ASSIGN
SC.SCID
       778**DCL      1971>>IF
SC.SCWSO
       775**DCL      1974>>ASSIGN   2018>>ASSIGN
SC$
PL6.E3A0      #003=ZIP$DBFSE File=ZIM$HEREIAM.:ZIC0TSI                           FRI 09/05/97 12:56 Page:137
       761**DCL       762--IMP-PTR  1968<<ASSIGN   1969>>DOWHILE  1970<<ASSIGN   1970>>ASSIGN   1971>>IF
      1973>>ASSIGN   1974>>ASSIGN
SSS$
        16**DCL      1953<<ASSIGN   1957>>ASSIGN   1959>>ASSIGN   1962>>ASSIGN   1968>>ASSIGN   1970>>ASSIGN
      1973>>ASSIGN   1979>>ASSIGN   1981>>ASSIGN   1984>>ASSIGN   1990>>ASSIGN   1992>>ASSIGN   1994>>ASSIGN
      2001>>ASSIGN   2005>>ASSIGN   2016>>ASSIGN   2018>>ASSIGN
ZIB$ERR
      1623**DCL-ENT  2037--CALL
