PL6.E3A0      #006=ZIM$JSTO File=ZIM$JRNL.:ZIC0TSI                               FRI 09/05/97 13:00 Page:162
      657        1        /*T***********************************************************/
      658        2        /*T*                                                         */
      659        3        /*T* Copyright (c) Bull HN Information Systems Inc., 1997    */
      660        4        /*T*                                                         */
      661        5        /*T***********************************************************/
      662        6        ZIM$JSTO: PROC
      663        7               AVOID($PR5,$PR6,$PR7);
      664        8        %INCLUDE ZI$GLOBAL;
      665      494            %GLOBALS;
      666      802            %RECCW;
      667      807        %INCLUDE ZI$SSS;
      668     1356            %AC;
      669     1451        %INCLUDE ZI$DBCB;
      670     2093            %DBCB;
      671     2571            %RECVAR(STCLASS="BASED(RECVAR$)");
      672     2605            %AWS;
      673     2645        %INCLUDE ZI$JRNL;
      674     2753            %JRNL_REC(STCLASS=AUTO);
      675     2828        %INCLUDE CP_6;
      676     2909            %B$TCB;
      677     2912            %B$ALT;
      678     2920            %FPT_WRITE(FPTN=FPT$WRTJ,STCLASS="BASED(WRTJ$)");
      679     2951            %FPT_TIME(FPTN=FPT$TIME,STCLASS=BASED);
      680     2970        %INCLUDE CP_6_SUBS;
      681     3510        %INCLUDE B$JIT;
      682     3800        %INCLUDE ZI_ERRORS_C;
      683     4126        %INCLUDE B_ERRORS_C;
      684     5253    1   DCL RECVAR$ PTR;
      685     5254    1   DCL WRTJ$ PTR;
      686     5255    1   DCL B$JIT$ PTR SYMREF;
      687     5256    1   DCL B$TCB$ PTR SYMREF;
      688     5257    1   DCL ERROR UBIN(36);
      689     5258    1   DCL LENGTH UBIN(36);
      690     5259    1   DCL RECORD BASED CHAR(LENGTH);
      691     5260    1   DCL TYPE UBIN(36);
      692     5261    1       TYPE=T#STO;
      693     5262    1       RECVAR$=PINCRW(GLOBAL.ACTIVE.DBCB$,GLOBAL.ACTIVE.DBCB$->DBCB.PCB.RVT);
PL6.E3A0      #006=ZIM$JSTO File=ZIM$JRNL.:ZIC0TSI                               FRI 09/05/97 13:00 Page:163
      694     5263    1       GOTO COM;
      695     5264    1   ZIM$JDEL: ENTRY;
      696     5265    1       TYPE=T#DEL;
      697     5266    1       RECVAR$=PINCRW(GLOBAL.ACTIVE.DBCB$,GLOBAL.ACTIVE.DBCB$->DBCB.PCB.RVI);
      698     5267    1       GOTO COM;
      699     5268    1   ZIM$JMOD: ENTRY;
      700     5269    1       TYPE=T#MOD;
      701     5270    1       RECVAR$=PINCRW(GLOBAL.ACTIVE.DBCB$,GLOBAL.ACTIVE.DBCB$->DBCB.PCB.RVT);
      702     5271    1   COM: ERROR=0;
      703     5272    1       DBCB$=GLOBAL.ACTIVE.DBCB$;
      704     5273    1       SSS$=GLOBAL.ACTIVE.SSS$;
      705     5274    1       AWS$=RECVAR.AWS$;
      706     5275    1       IF ~GLOBAL.PENDING.ROLL AND
      707     5276    1          (AWS.ATRIB.TJRNL OR AWS.ATRIB.CJRNL) THEN
      708     5277    2       DO;
      709     5278    2           JRNL$=ADDR(GLOBAL.JRECORD);
      710     5279    2           WRTJ$=GLOBAL.WRTJ$;
      711     5280    2           AC$=PINCRW(SSS$,RECVAR.ACPTR);
      712     5281    2           CALL M$TIME(GLOBAL.TIME$->FPT$TIME);
      713     5282    2           JREC.TYPE=TYPE;
      714     5283    2           JREC.TIME=GLOBAL.TIME.TSTAMP;
      715     5284    2           JREC.USER#=B$JIT$->B$JIT.USER;
      716     5285    2           JREC.DCB#=AWS.DDCB;
      717     5286    2           JREC.PAGE=(RECVAR.DBKEY-AC.DBLIM.LOWDBK)/AC.LPP+1;
      718     5287    2           JREC.LINE=MOD(RECVAR.DBKEY-AC.DBLIM.LOWDBK,AC.LPP);
      719     5288    2           JREC.OFFSET=POFFC(RECVAR.RADDR$,RECVAR.BADDR$);
      720     5289    2           IF TYPE=T#STO THEN
      721     5290    3           DO;
      722     5291    3               IF AWS.ATRIB.TJRNL THEN
      723     5292    4               DO;
      724     5293    4                   JREC.LENGTH=4; /* Just control word */
      725     5294    4                   LENGTH=4;
      726     5295    4                   JREC.VALUE=RECVAR.RADDR$->RECORD;
      727     5296    4                   FPT$WRTJ.BUF_.BOUND=SIZEV(JREC);
      728     5297    4                   FPT$WRTJ.V.DCB#=GLOBAL.TJRNL.DCB#;
      729     5298    4                   CALL M$WRITE(FPT$WRTJ) ALTRET(ER_WRTT);
      730     5299    4                   END;
PL6.E3A0      #006=ZIM$JSTO File=ZIM$JRNL.:ZIC0TSI                               FRI 09/05/97 13:00 Page:164
      731     5300    3               IF AWS.ATRIB.CJRNL THEN
      732     5301    4               DO;
      733     5302    4                   JREC.LENGTH=RECVAR.RECSZ;
      734     5303    4                   LENGTH=JREC.LENGTH;
      735     5304    4                   JREC.VALUE=RECVAR.RADDR$->RECORD;
      736     5305    4                   FPT$WRTJ.BUF_.BOUND=SIZEV(JREC);
      737     5306    4                   FPT$WRTJ.V.DCB#=GLOBAL.CJRNL.DCB#;
      738     5307    4                   CALL M$WRITE(FPT$WRTJ) ALTRET(ER_WRTC);
      739     5308    4                   END;
      740     5309    3               END;
      741     5310    2           IF TYPE=T#DEL THEN
      742     5311    3           DO;
      743     5312    3               IF AWS.ATRIB.TJRNL THEN
      744     5313    4               DO;
      745     5314    4                   JREC.LENGTH=RECVAR.RECSZ;
      746     5315    4                   LENGTH=JREC.LENGTH;
      747     5316    4                   JREC.VALUE=RECVAR.RADDR$->RECORD;
      748     5317    4                   FPT$WRTJ.BUF_.BOUND=SIZEV(JREC);
      749     5318    4                   FPT$WRTJ.V.DCB#=GLOBAL.TJRNL.DCB#;
      750     5319    4                   CALL M$WRITE(FPT$WRTJ) ALTRET(ER_WRTT);
      751     5320    4                   END;
      752     5321    3               IF AWS.ATRIB.CJRNL THEN
      753     5322    4               DO;
      754     5323    4                   JREC.LENGTH=4;
      755     5324    4                   LENGTH=4;
      756     5325    4                   JREC.VALUE=RECVAR.RADDR$->RECORD;
      757     5326    4                   FPT$WRTJ.BUF_.BOUND=SIZEV(JREC);
      758     5327    4                   FPT$WRTJ.V.DCB#=GLOBAL.CJRNL.DCB#;
      759     5328    4                   CALL M$WRITE(FPT$WRTJ) ALTRET(ER_WRTC);
      760     5329    4                   END;
      761     5330    3               END;
      762     5331    2           IF TYPE=T#MOD THEN
      763     5332    3           DO;
      764     5333    3               IF AWS.ATRIB.TJRNL THEN
      765     5334    4               DO;
      766     5335    4                   JREC.LENGTH=RECVAR.RADDR$->RECCW.SIZE;
      767     5336    4                   LENGTH=JREC.LENGTH;
PL6.E3A0      #006=ZIM$JSTO File=ZIM$JRNL.:ZIC0TSI                               FRI 09/05/97 13:00 Page:165
      768     5337    4                   JREC.VALUE=RECVAR.RADDR$->RECORD;
      769     5338    4                   FPT$WRTJ.BUF_.BOUND=SIZEV(JREC);
      770     5339    4                   FPT$WRTJ.V.DCB#=GLOBAL.TJRNL.DCB#;
      771     5340    4                   CALL M$WRITE(FPT$WRTJ) ALTRET(ER_WRTT);
      772     5341    4                   END;
      773     5342    3               IF AWS.ATRIB.CJRNL THEN
      774     5343    4               DO;
      775     5344    4                   JREC.LENGTH=DBCB.CSECT.TBUF$->RECCW.SIZE;
      776     5345    4                   LENGTH=JREC.LENGTH;
      777     5346    4                   JREC.VALUE=DBCB.CSECT.TBUF$->RECORD;
      778     5347    4                   FPT$WRTJ.BUF_.BOUND=SIZEV(JREC);
      779     5348    4                   FPT$WRTJ.V.DCB#=GLOBAL.CJRNL.DCB#;
      780     5349    4                   CALL M$WRITE(FPT$WRTJ) ALTRET(ER_WRTC);
      781     5350    4                   END;
      782     5351    3               END;
      783     5352    2           END;
      784     5353    1       RETURN;
      785     5354    1   ER_WRTT: ERROR=ERR#IO#WRTT;
      786     5355    1       GLOBAL.RET.SYSERR#=B$TCB$->B$TCB.ALT$->B$ALT.ERR;
      787     5356    1       GLOBAL.RET.DCB#=GLOBAL.TJRNL.DCB#;
      788     5357    1       GOTO ALT;
      789     5358    1   ER_WRTC: IF B$TCB$->B$TCB.ALT$->B$ALT.ERR.ERR#=%E$JRNLCLSD THEN
      790     5359    1           ERROR=ERR#IO#NOOWNER;
      791     5360    1       ELSE
      792     5361    1           ERROR=ERR#IO#WRTC;
      793     5362    1       GLOBAL.RET.SYSERR#=B$TCB$->B$TCB.ALT$->B$ALT.ERR;
      794     5363    1       GLOBAL.RET.DCB#=GLOBAL.CJRNL.DCB#;
      795     5364    1       GLOBAL.CJRNL.DCB#=0;
      796     5365    1       GOTO ALT;
      797     5366    1   ALT: ;
      798     5367    1       GLOBAL.RET.ERROR#=ERROR;
      799     5368    1       CALL M$ERR;
      800     5369    1   END ZIM$JSTO;
      801     5370        %EOD;

PL6.E3A0      #006=ZIM$JSTO File=ZIM$JRNL.:ZIC0TSI                               FRI 09/05/97 13:00 Page:166
--  Include file information  --

   B_ERRORS_C.:LIB_E05  is referenced.
   ZI_ERRORS_C.:ZIC0TOU  is referenced.
   B$JIT.:LIB_E05  cannot be made into a system file and is referenced.
   CP_6_SUBS.:LIB_E05  is referenced.
   CP_6.:LIB_E05  cannot be made into a system file and is referenced.
   ZI$JRNL.:ZIC0TOU  is referenced.
   ZI$DBCB.:ZIC0TOU  is referenced.
   ZI$SSS.:ZIC0TOU  cannot be made into a system file and is referenced.
   ZI$GLOBAL.:ZIC0TOU  is referenced.
   B$JIT_C.:E05TOU  was found in the system file and is referenced.
   CP_6_C.:E05TOU  was found in the system file and is referenced.
      No diagnostics issued in procedure ZIM$JSTO.

   Procedure ZIM$JSTO requires 367 words for executable code.
   Procedure ZIM$JSTO requires 16 words of local(AUTO) storage.

PL6.E3A0      #006=ZIM$JSTO File=ZIM$JRNL.:ZIC0TSI                               FRI 09/05/97 13:00 Page:167

 Object Unit name= ZIM$JSTO                                   File name= ZIM$JRNL.:ZIC0TOU
 UTS= SEP 05 '97 13:00:45.32 FRI                              Compiler= PL-6/E31         Sev=      00
 SharedLib= :SHARED_SYSTEM                                    Alt SharedLib=


    ****  Control sections  ****

 Sect   Type Bound  Init  Size OctSiz  Section name(segment info)
    0   DCB   even  none     0      0  M$UC
    1   Proc  even  none   367    557  ZIM$JSTO
    2  RoData even  none     1      1  ZIM$JSTO

    ****  Entry defs  ****

                              Check   Calling
                             calling  sequence
  Sect OctLoc Primary Altret sequence   type   Parms  Name
     1      0   yes            yes      XStd       0  ZIM$JSTO
     1     12                  yes      XStd       0  ZIM$JDEL
     1     24                  yes      XStd       0  ZIM$JMOD

  ****  Entry refs  ****

         Check        Calling
        calling       sequence
Altret sequence SRef   type   Args  Name
                       nStd      0 X66_AUTO_0
                       nStd      0 X66_ARET

  ****  Data refs  ****

  Flags:  r = read only, s = secondary
Flgs Name                             Flgs Name                             Flgs Name
r    GLOBAL$                               M$UC                                  B$JIT$
     B$TCB$
PL6.E3A0      #006=ZIM$JSTO File=ZIM$JRNL.:ZIC0TSI                               FRI 09/05/97 13:00 Page:168


      657        1        /*T***********************************************************/
      658        2        /*T*                                                         */
      659        3        /*T* Copyright (c) Bull HN Information Systems Inc., 1997    */
      660        4        /*T*                                                         */
      661        5        /*T***********************************************************/
      662        6        ZIM$JSTO: PROC

      6  1 000000   000000 700200 xent  ZIM$JSTO     TSX0  ! X66_AUTO_0
         1 000001   000020 000000                    ZERO    16,0

      663        7               AVOID($PR5,$PR6,$PR7);
      664        8        %INCLUDE ZI$GLOBAL;
      665      494            %GLOBALS;
      666      802            %RECCW;
      667      807        %INCLUDE ZI$SSS;
      668     1356            %AC;
      669     1451        %INCLUDE ZI$DBCB;
      670     2093            %DBCB;
      671     2571            %RECVAR(STCLASS="BASED(RECVAR$)");
      672     2605            %AWS;
      673     2645        %INCLUDE ZI$JRNL;
      674     2753            %JRNL_REC(STCLASS=AUTO);
      675     2828        %INCLUDE CP_6;
      676     2909            %B$TCB;
      677     2912            %B$ALT;
      678     2920            %FPT_WRITE(FPTN=FPT$WRTJ,STCLASS="BASED(WRTJ$)");
      679     2951            %FPT_TIME(FPTN=FPT$TIME,STCLASS=BASED);
      680     2970        %INCLUDE CP_6_SUBS;
      681     3510        %INCLUDE B$JIT;
      682     3800        %INCLUDE ZI_ERRORS_C;
      683     4126        %INCLUDE B_ERRORS_C;
      684     5253    1   DCL RECVAR$ PTR;
      685     5254    1   DCL WRTJ$ PTR;
      686     5255    1   DCL B$JIT$ PTR SYMREF;
      687     5256    1   DCL B$TCB$ PTR SYMREF;
      688     5257    1   DCL ERROR UBIN(36);
PL6.E3A0      #006=ZIM$JSTO File=ZIM$JRNL.:ZIC0TSI                               FRI 09/05/97 13:00 Page:169
      689     5258    1   DCL LENGTH UBIN(36);
      690     5259    1   DCL RECORD BASED CHAR(LENGTH);
      691     5260    1   DCL TYPE UBIN(36);
      692     5261    1       TYPE=T#STO;

   5261  1 000002   000006 235007                    LDA     6,DL
         1 000003   200014 755100                    STA     TYPE,,AUTO

      693     5262    1       RECVAR$=PINCRW(GLOBAL.ACTIVE.DBCB$,GLOBAL.ACTIVE.DBCB$->DBCB.PCB.RVT);

   5262  1 000004   000000 470400 xsym               LDP0    GLOBAL$
         1 000005   000001 471500                    LDP1    1,,PR0
         1 000006   100512 220100                    LDX0    330,,PR1
         1 000007   100000 633510                    EPPR3   0,X0,PR1
         1 000010   200010 453500                    STP3    RECVAR$,,AUTO

      694     5263    1       GOTO COM;

   5263  1 000011   000035 710000 1                  TRA     COM

      695     5264    1   ZIM$JDEL: ENTRY;

   5264  1 000012   000000 700200 xent  ZIM$JDEL     TSX0  ! X66_AUTO_0
         1 000013   000020 000000                    ZERO    16,0

      696     5265    1       TYPE=T#DEL;

   5265  1 000014   000007 235007                    LDA     7,DL
         1 000015   200014 755100                    STA     TYPE,,AUTO

      697     5266    1       RECVAR$=PINCRW(GLOBAL.ACTIVE.DBCB$,GLOBAL.ACTIVE.DBCB$->DBCB.PCB.RVI);

   5266  1 000016   000000 470400 xsym               LDP0    GLOBAL$
         1 000017   000001 471500                    LDP1    1,,PR0
         1 000020   100510 220100                    LDX0    328,,PR1
         1 000021   100000 633510                    EPPR3   0,X0,PR1
         1 000022   200010 453500                    STP3    RECVAR$,,AUTO
PL6.E3A0      #006=ZIM$JSTO File=ZIM$JRNL.:ZIC0TSI                               FRI 09/05/97 13:00 Page:170

      698     5267    1       GOTO COM;

   5267  1 000023   000035 710000 1                  TRA     COM

      699     5268    1   ZIM$JMOD: ENTRY;

   5268  1 000024   000000 700200 xent  ZIM$JMOD     TSX0  ! X66_AUTO_0
         1 000025   000020 000000                    ZERO    16,0

      700     5269    1       TYPE=T#MOD;

   5269  1 000026   000010 235007                    LDA     8,DL
         1 000027   200014 755100                    STA     TYPE,,AUTO

      701     5270    1       RECVAR$=PINCRW(GLOBAL.ACTIVE.DBCB$,GLOBAL.ACTIVE.DBCB$->DBCB.PCB.RVT);

   5270  1 000030   000000 470400 xsym               LDP0    GLOBAL$
         1 000031   000001 471500                    LDP1    1,,PR0
         1 000032   100512 220100                    LDX0    330,,PR1
         1 000033   100000 633510                    EPPR3   0,X0,PR1
         1 000034   200010 453500                    STP3    RECVAR$,,AUTO

      702     5271    1   COM: ERROR=0;

   5271  1 000035   200012 450100       COM          STZ     ERROR,,AUTO

      703     5272    1       DBCB$=GLOBAL.ACTIVE.DBCB$;

   5272  1 000036   000001 236100                    LDQ     1,,PR0
         1 000037   200005 756100                    STQ     DBCB$,,AUTO

      704     5273    1       SSS$=GLOBAL.ACTIVE.SSS$;

   5273  1 000040   000000 236100                    LDQ     0,,PR0
         1 000041   200003 756100                    STQ     SSS$,,AUTO

PL6.E3A0      #006=ZIM$JSTO File=ZIM$JRNL.:ZIC0TSI                               FRI 09/05/97 13:00 Page:171
      705     5274    1       AWS$=RECVAR.AWS$;

   5274  1 000042   300013 236100                    LDQ     11,,PR3
         1 000043   200006 756100                    STQ     AWS$,,AUTO

      706     5275    1       IF ~GLOBAL.PENDING.ROLL AND

   5275  1 000044   000017 236100                    LDQ     15,,PR0
         1 000045   000010 736000                    QLS     8
         1 000046   400000 376003                    ANQ     -131072,DU
         1 000047   400000 676003                    ERQ     -131072,DU
         1 000050   000516 600000 1                  TZE     s:5353
         1 000051   200006 474500                    LDP4    AWS$,,AUTO
         1 000052   400000 236100                    LDQ     0,,PR4
         1 000053   020000 316003                    CANQ    8192,DU
         1 000054   000057 601000 1                  TNZ     s:5278
         1 000055   100000 316003                    CANQ    32768,DU
         1 000056   000516 600000 1                  TZE     s:5353

      707     5276    1          (AWS.ATRIB.TJRNL OR AWS.ATRIB.CJRNL) THEN
      708     5277    2       DO;

      709     5278    2           JRNL$=ADDR(GLOBAL.JRECORD);

   5278  1 000057   000000 236000 xsym               LDQ     GLOBAL$
         1 000060   002622 036003                    ADLQ    1426,DU
         1 000061   200007 756100                    STQ     JRNL$,,AUTO

      710     5279    2           WRTJ$=GLOBAL.WRTJ$;

   5279  1 000062   005115 236100                    LDQ     2637,,PR0
         1 000063   200011 756100                    STQ     WRTJ$,,AUTO

      711     5280    2           AC$=PINCRW(SSS$,RECVAR.ACPTR);

   5280  1 000064   300005 220100                    LDX0    5,,PR3
         1 000065   000000 636010                    EAQ     0,X0
PL6.E3A0      #006=ZIM$JSTO File=ZIM$JRNL.:ZIC0TSI                               FRI 09/05/97 13:00 Page:172
         1 000066   200003 036100                    ADLQ    SSS$,,AUTO
         1 000067   200004 756100                    STQ     AC$,,AUTO

      712     5281    2           CALL M$TIME(GLOBAL.TIME$->FPT$TIME);

   5281  1 000070   005117 471500                    LDP1    2639,,PR0
         1 000071   100000 630500                    EPPR0   0,,PR1
         1 000072   020004 713400                    CLIMB   8196
         1 000073   402000 401760                    pmme    nvectors=5

      713     5282    2           JREC.TYPE=TYPE;

   5282  1 000074   200007 470500                    LDP0    JRNL$,,AUTO
         1 000075   200014 236100                    LDQ     TYPE,,AUTO
         1 000076   000033 736000                    QLS     27
         1 000077   000001 552140                    STBQ    1,'40'O,PR0

      714     5283    2           JREC.TIME=GLOBAL.TIME.TSTAMP;

   5283  1 000100   000000 471400 xsym               LDP1    GLOBAL$
         1 000101   105001 235100                    LDA     2561,,PR1
         1 000102   000000 755100                    STA     0,,PR0

      715     5284    2           JREC.USER#=B$JIT$->B$JIT.USER;

   5284  1 000103   000000 473400 xsym               LDP3    B$JIT$
         1 000104   300000 236100                    LDQ     0,,PR3
         1 000105   000001 552120                    STBQ    1,'20'O,PR0

      716     5285    2           JREC.DCB#=AWS.DDCB;

   5285  1 000106   200006 474500                    LDP4    AWS$,,AUTO
         1 000107   400006 220100                    LDX0    6,,PR4
         1 000110   000001 440100                    SXL0    1,,PR0

      717     5286    2           JREC.PAGE=(RECVAR.DBKEY-AC.DBLIM.LOWDBK)/AC.LPP+1;

PL6.E3A0      #006=ZIM$JSTO File=ZIM$JRNL.:ZIC0TSI                               FRI 09/05/97 13:00 Page:173
   5286  1 000111   200004 470500                    LDP0    AC$,,AUTO
         1 000112   200010 471500                    LDP1    RECVAR$,,AUTO
         1 000113   100000 236100                    LDQ     0,,PR1
         1 000114   000010 136100                    SBLQ    8,,PR0
         1 000115   200016 756100                    STQ     TYPE+2,,AUTO
         1 000116   000012 236100                    LDQ     10,,PR0
         1 000117   777777 376007                    ANQ     -1,DL
         1 000120   200017 756100                    STQ     TYPE+3,,AUTO
         1 000121   200016 236100                    LDQ     TYPE+2,,AUTO
         1 000122   200017 506100                    DIV     TYPE+3,,AUTO
         1 000123   000001 036007                    ADLQ    1,DL
         1 000124   200007 470500                    LDP0    JRNL$,,AUTO
         1 000125   000002 756100                    STQ     2,,PR0

      718     5287    2           JREC.LINE=MOD(RECVAR.DBKEY-AC.DBLIM.LOWDBK,AC.LPP);

   5287  1 000126   200004 470500                    LDP0    AC$,,AUTO
         1 000127   100000 236100                    LDQ     0,,PR1
         1 000130   000010 136100                    SBLQ    8,,PR0
         1 000131   200016 756100                    STQ     TYPE+2,,AUTO
         1 000132   000012 236100                    LDQ     10,,PR0
         1 000133   777777 376007                    ANQ     -1,DL
         1 000134   200017 756100                    STQ     TYPE+3,,AUTO
         1 000135   200016 236100                    LDQ     TYPE+2,,AUTO
         1 000136   200017 506100                    DIV     TYPE+3,,AUTO
         1 000137   000000 620005                    EAX0    0,AL
         1 000140   200007 470500                    LDP0    JRNL$,,AUTO
         1 000141   000003 440100                    SXL0    3,,PR0

      719     5288    2           JREC.OFFSET=POFFC(RECVAR.RADDR$,RECVAR.BADDR$);

   5288  1 000142   100001 236100                    LDQ     1,,PR1
         1 000143   000020 772000                    QRL     16
         1 000144   200016 756100                    STQ     TYPE+2,,AUTO
         1 000145   100002 236100                    LDQ     2,,PR1
         1 000146   000020 772000                    QRL     16
         1 000147   200016 136100                    SBLQ    TYPE+2,,AUTO
PL6.E3A0      #006=ZIM$JSTO File=ZIM$JRNL.:ZIC0TSI                               FRI 09/05/97 13:00 Page:174
         1 000150   000000 620006                    EAX0    0,QL
         1 000151   000004 740100                    STX0    4,,PR0

      720     5289    2           IF TYPE=T#STO THEN

   5289  1 000152   200014 235100                    LDA     TYPE,,AUTO
         1 000153   000006 115007                    CMPA    6,DL
         1 000154   000263 601000 1                  TNZ     s:5310

      721     5290    3           DO;

      722     5291    3               IF AWS.ATRIB.TJRNL THEN

   5291  1 000155   400000 236100                    LDQ     0,,PR4
         1 000156   020000 316003                    CANQ    8192,DU
         1 000157   000217 600000 1                  TZE     s:5300

      723     5292    4               DO;

      724     5293    4                   JREC.LENGTH=4; /* Just control word */

   5293  1 000160   000004 221003                    LDX1    4,DU
         1 000161   000003 741100                    STX1    3,,PR0

      725     5294    4                   LENGTH=4;

   5294  1 000162   000004 236007                    LDQ     4,DL
         1 000163   200013 756100                    STQ     LENGTH,,AUTO

      726     5295    4                   JREC.VALUE=RECVAR.RADDR$->RECORD;

   5295  1 000164   100002 470500                    LDP0    2,,PR1
         1 000165   000000 620006                    EAX0    0,QL
         1 000166   200007 471500                    LDP1    JRNL$,,AUTO
         1 000167   040140 100540                    MLR     fill='040'O
         1 000170   000000 000010                    ADSC9   0,,PR0                   cn=0,n=*X0
         1 000171   100004 400011                    ADSC9   4,,PR1                   cn=2,n=*X1
PL6.E3A0      #006=ZIM$JSTO File=ZIM$JRNL.:ZIC0TSI                               FRI 09/05/97 13:00 Page:175

      727     5296    4                   FPT$WRTJ.BUF_.BOUND=SIZEV(JREC);

   5296  1 000172   100003 220100                    LDX0    3,,PR1
         1 000173   000022 622010                    EAX2    18,X0
         1 000174   000000 636012                    EAQ     0,X2
         1 000175   000022 772000                    QRL     18
         1 000176   000011 402007                    MPY     9,DL
         1 000177   000043 036007                    ADLQ    35,DL
         1 000200   000044 506007                    DIV     36,DL
         1 000201   200011 470500                    LDP0    WRTJ$,,AUTO
         1 000202   000002 736000                    QLS     2
         1 000203   000001 136007                    SBLQ    1,DL
         1 000204   000020 736000                    QLS     16
         1 000205   000004 676100                    ERQ     4,,PR0
         1 000206   000000 376000 2                  ANQ     0
         1 000207   000004 656100                    ERSQ    4,,PR0

      728     5297    4                   FPT$WRTJ.V.DCB#=GLOBAL.TJRNL.DCB#;

   5297  1 000210   000000 470400 xsym               LDP0    GLOBAL$
         1 000211   002604 720100                    LXL0    1412,,PR0
         1 000212   200011 470500                    LDP0    WRTJ$,,AUTO
         1 000213   000010 740100                    STX0    8,,PR0

      729     5298    4                   CALL M$WRITE(FPT$WRTJ) ALTRET(ER_WRTT);

   5298  1 000214   440001 713400                    CLIMB   alt,write
         1 000215   401400 401760                    pmme    nvectors=4
         1 000216   000517 702000 1                  TSX2    ER_WRTT

      730     5299    4                   END;

      731     5300    3               IF AWS.ATRIB.CJRNL THEN

   5300  1 000217   200006 470500                    LDP0    AWS$,,AUTO
         1 000220   000000 236100                    LDQ     0,,PR0
PL6.E3A0      #006=ZIM$JSTO File=ZIM$JRNL.:ZIC0TSI                               FRI 09/05/97 13:00 Page:176
         1 000221   100000 316003                    CANQ    32768,DU
         1 000222   000263 600000 1                  TZE     s:5310

      732     5301    4               DO;

      733     5302    4                   JREC.LENGTH=RECVAR.RECSZ;

   5302  1 000223   200010 471500                    LDP1    RECVAR$,,AUTO
         1 000224   100003 220100                    LDX0    3,,PR1
         1 000225   200007 473500                    LDP3    JRNL$,,AUTO
         1 000226   300003 740100                    STX0    3,,PR3

      734     5303    4                   LENGTH=JREC.LENGTH;

   5303  1 000227   300003 236100                    LDQ     3,,PR3
         1 000230   000022 772000                    QRL     18
         1 000231   200013 756100                    STQ     LENGTH,,AUTO

      735     5304    4                   JREC.VALUE=RECVAR.RADDR$->RECORD;

   5304  1 000232   100002 474500                    LDP4    2,,PR1
         1 000233   000000 621006                    EAX1    0,QL
         1 000234   040140 100540                    MLR     fill='040'O
         1 000235   400000 000011                    ADSC9   0,,PR4                   cn=0,n=*X1
         1 000236   300004 400010                    ADSC9   4,,PR3                   cn=2,n=*X0

      736     5305    4                   FPT$WRTJ.BUF_.BOUND=SIZEV(JREC);

   5305  1 000237   000022 621010                    EAX1    18,X0
         1 000240   000000 636011                    EAQ     0,X1
         1 000241   000022 772000                    QRL     18
         1 000242   000011 402007                    MPY     9,DL
         1 000243   000043 036007                    ADLQ    35,DL
         1 000244   000044 506007                    DIV     36,DL
         1 000245   200011 474500                    LDP4    WRTJ$,,AUTO
         1 000246   000002 736000                    QLS     2
         1 000247   000001 136007                    SBLQ    1,DL
PL6.E3A0      #006=ZIM$JSTO File=ZIM$JRNL.:ZIC0TSI                               FRI 09/05/97 13:00 Page:177
         1 000250   000020 736000                    QLS     16
         1 000251   400004 676100                    ERQ     4,,PR4
         1 000252   000000 376000 2                  ANQ     0
         1 000253   400004 656100                    ERSQ    4,,PR4

      737     5306    4                   FPT$WRTJ.V.DCB#=GLOBAL.CJRNL.DCB#;

   5306  1 000254   000000 470400 xsym               LDP0    GLOBAL$
         1 000255   002610 720100                    LXL0    1416,,PR0
         1 000256   400010 740100                    STX0    8,,PR4

      738     5307    4                   CALL M$WRITE(FPT$WRTJ) ALTRET(ER_WRTC);

   5307  1 000257   400000 630500                    EPPR0   0,,PR4
         1 000260   440001 713400                    CLIMB   alt,write
         1 000261   401400 401760                    pmme    nvectors=4
         1 000262   000531 702000 1                  TSX2    ER_WRTC

      739     5308    4                   END;

      740     5309    3               END;

      741     5310    2           IF TYPE=T#DEL THEN

   5310  1 000263   200014 235100                    LDA     TYPE,,AUTO
         1 000264   000007 115007                    CMPA    7,DL
         1 000265   000375 601000 1                  TNZ     s:5331

      742     5311    3           DO;

      743     5312    3               IF AWS.ATRIB.TJRNL THEN

   5312  1 000266   200006 470500                    LDP0    AWS$,,AUTO
         1 000267   000000 236100                    LDQ     0,,PR0
         1 000270   020000 316003                    CANQ    8192,DU
         1 000271   000332 600000 1                  TZE     s:5321

PL6.E3A0      #006=ZIM$JSTO File=ZIM$JRNL.:ZIC0TSI                               FRI 09/05/97 13:00 Page:178
      744     5313    4               DO;

      745     5314    4                   JREC.LENGTH=RECVAR.RECSZ;

   5314  1 000272   200010 471500                    LDP1    RECVAR$,,AUTO
         1 000273   100003 220100                    LDX0    3,,PR1
         1 000274   200007 473500                    LDP3    JRNL$,,AUTO
         1 000275   300003 740100                    STX0    3,,PR3

      746     5315    4                   LENGTH=JREC.LENGTH;

   5315  1 000276   300003 236100                    LDQ     3,,PR3
         1 000277   000022 772000                    QRL     18
         1 000300   200013 756100                    STQ     LENGTH,,AUTO

      747     5316    4                   JREC.VALUE=RECVAR.RADDR$->RECORD;

   5316  1 000301   100002 474500                    LDP4    2,,PR1
         1 000302   000000 621006                    EAX1    0,QL
         1 000303   040140 100540                    MLR     fill='040'O
         1 000304   400000 000011                    ADSC9   0,,PR4                   cn=0,n=*X1
         1 000305   300004 400010                    ADSC9   4,,PR3                   cn=2,n=*X0

      748     5317    4                   FPT$WRTJ.BUF_.BOUND=SIZEV(JREC);

   5317  1 000306   000022 621010                    EAX1    18,X0
         1 000307   000000 636011                    EAQ     0,X1
         1 000310   000022 772000                    QRL     18
         1 000311   000011 402007                    MPY     9,DL
         1 000312   000043 036007                    ADLQ    35,DL
         1 000313   000044 506007                    DIV     36,DL
         1 000314   200011 474500                    LDP4    WRTJ$,,AUTO
         1 000315   000002 736000                    QLS     2
         1 000316   000001 136007                    SBLQ    1,DL
         1 000317   000020 736000                    QLS     16
         1 000320   400004 676100                    ERQ     4,,PR4
         1 000321   000000 376000 2                  ANQ     0
PL6.E3A0      #006=ZIM$JSTO File=ZIM$JRNL.:ZIC0TSI                               FRI 09/05/97 13:00 Page:179
         1 000322   400004 656100                    ERSQ    4,,PR4

      749     5318    4                   FPT$WRTJ.V.DCB#=GLOBAL.TJRNL.DCB#;

   5318  1 000323   000000 470400 xsym               LDP0    GLOBAL$
         1 000324   002604 720100                    LXL0    1412,,PR0
         1 000325   400010 740100                    STX0    8,,PR4

      750     5319    4                   CALL M$WRITE(FPT$WRTJ) ALTRET(ER_WRTT);

   5319  1 000326   400000 630500                    EPPR0   0,,PR4
         1 000327   440001 713400                    CLIMB   alt,write
         1 000330   401400 401760                    pmme    nvectors=4
         1 000331   000517 702000 1                  TSX2    ER_WRTT

      751     5320    4                   END;

      752     5321    3               IF AWS.ATRIB.CJRNL THEN

   5321  1 000332   200006 470500                    LDP0    AWS$,,AUTO
         1 000333   000000 236100                    LDQ     0,,PR0
         1 000334   100000 316003                    CANQ    32768,DU
         1 000335   000375 600000 1                  TZE     s:5331

      753     5322    4               DO;

      754     5323    4                   JREC.LENGTH=4;

   5323  1 000336   000004 220003                    LDX0    4,DU
         1 000337   200007 471500                    LDP1    JRNL$,,AUTO
         1 000340   100003 740100                    STX0    3,,PR1

      755     5324    4                   LENGTH=4;

   5324  1 000341   000004 235007                    LDA     4,DL
         1 000342   200013 755100                    STA     LENGTH,,AUTO

PL6.E3A0      #006=ZIM$JSTO File=ZIM$JRNL.:ZIC0TSI                               FRI 09/05/97 13:00 Page:180
      756     5325    4                   JREC.VALUE=RECVAR.RADDR$->RECORD;

   5325  1 000343   200010 473500                    LDP3    RECVAR$,,AUTO
         1 000344   300002 474500                    LDP4    2,,PR3
         1 000345   000000 621005                    EAX1    0,AL
         1 000346   040140 100540                    MLR     fill='040'O
         1 000347   400000 000011                    ADSC9   0,,PR4                   cn=0,n=*X1
         1 000350   100004 400010                    ADSC9   4,,PR1                   cn=2,n=*X0

      757     5326    4                   FPT$WRTJ.BUF_.BOUND=SIZEV(JREC);

   5326  1 000351   000022 621010                    EAX1    18,X0
         1 000352   000000 636011                    EAQ     0,X1
         1 000353   000022 772000                    QRL     18
         1 000354   000011 402007                    MPY     9,DL
         1 000355   000043 036007                    ADLQ    35,DL
         1 000356   000044 506007                    DIV     36,DL
         1 000357   200011 474500                    LDP4    WRTJ$,,AUTO
         1 000360   000002 736000                    QLS     2
         1 000361   000001 136007                    SBLQ    1,DL
         1 000362   000020 736000                    QLS     16
         1 000363   400004 676100                    ERQ     4,,PR4
         1 000364   000000 376000 2                  ANQ     0
         1 000365   400004 656100                    ERSQ    4,,PR4

      758     5327    4                   FPT$WRTJ.V.DCB#=GLOBAL.CJRNL.DCB#;

   5327  1 000366   000000 470400 xsym               LDP0    GLOBAL$
         1 000367   002610 722100                    LXL2    1416,,PR0
         1 000370   400010 742100                    STX2    8,,PR4

      759     5328    4                   CALL M$WRITE(FPT$WRTJ) ALTRET(ER_WRTC);

   5328  1 000371   400000 630500                    EPPR0   0,,PR4
         1 000372   440001 713400                    CLIMB   alt,write
         1 000373   401400 401760                    pmme    nvectors=4
         1 000374   000531 702000 1                  TSX2    ER_WRTC
PL6.E3A0      #006=ZIM$JSTO File=ZIM$JRNL.:ZIC0TSI                               FRI 09/05/97 13:00 Page:181

      760     5329    4                   END;

      761     5330    3               END;

      762     5331    2           IF TYPE=T#MOD THEN

   5331  1 000375   200014 235100                    LDA     TYPE,,AUTO
         1 000376   000010 115007                    CMPA    8,DL
         1 000377   000516 601000 1                  TNZ     s:5353

      763     5332    3           DO;

      764     5333    3               IF AWS.ATRIB.TJRNL THEN

   5333  1 000400   200006 470500                    LDP0    AWS$,,AUTO
         1 000401   000000 236100                    LDQ     0,,PR0
         1 000402   020000 316003                    CANQ    8192,DU
         1 000403   000447 600000 1                  TZE     s:5342

      765     5334    4               DO;

      766     5335    4                   JREC.LENGTH=RECVAR.RADDR$->RECCW.SIZE;

   5335  1 000404   200010 471500                    LDP1    RECVAR$,,AUTO
         1 000405   100002 473500                    LDP3    2,,PR1
         1 000406   200007 474500                    LDP4    JRNL$,,AUTO
         1 000407   003100 060500                    CSL     bolr='003'O
         1 000410   300000 400022                    BDSC    0,,PR3                   by=2,bit=0,n=18
         1 000411   400003 000022                    BDSC    3,,PR4                   by=0,bit=0,n=18

      767     5336    4                   LENGTH=JREC.LENGTH;

   5336  1 000412   400003 236100                    LDQ     3,,PR4
         1 000413   000022 772000                    QRL     18
         1 000414   200013 756100                    STQ     LENGTH,,AUTO

PL6.E3A0      #006=ZIM$JSTO File=ZIM$JRNL.:ZIC0TSI                               FRI 09/05/97 13:00 Page:182
      768     5337    4                   JREC.VALUE=RECVAR.RADDR$->RECORD;

   5337  1 000415   400003 220100                    LDX0    3,,PR4
         1 000416   100002 473500                    LDP3    2,,PR1
         1 000417   000000 621006                    EAX1    0,QL
         1 000420   040140 100540                    MLR     fill='040'O
         1 000421   300000 000011                    ADSC9   0,,PR3                   cn=0,n=*X1
         1 000422   400004 400010                    ADSC9   4,,PR4                   cn=2,n=*X0

      769     5338    4                   FPT$WRTJ.BUF_.BOUND=SIZEV(JREC);

   5338  1 000423   000022 621010                    EAX1    18,X0
         1 000424   000000 636011                    EAQ     0,X1
         1 000425   000022 772000                    QRL     18
         1 000426   000011 402007                    MPY     9,DL
         1 000427   000043 036007                    ADLQ    35,DL
         1 000430   000044 506007                    DIV     36,DL
         1 000431   200011 473500                    LDP3    WRTJ$,,AUTO
         1 000432   000002 736000                    QLS     2
         1 000433   000001 136007                    SBLQ    1,DL
         1 000434   000020 736000                    QLS     16
         1 000435   300004 676100                    ERQ     4,,PR3
         1 000436   000000 376000 2                  ANQ     0
         1 000437   300004 656100                    ERSQ    4,,PR3

      770     5339    4                   FPT$WRTJ.V.DCB#=GLOBAL.TJRNL.DCB#;

   5339  1 000440   000000 470400 xsym               LDP0    GLOBAL$
         1 000441   002604 720100                    LXL0    1412,,PR0
         1 000442   300010 740100                    STX0    8,,PR3

      771     5340    4                   CALL M$WRITE(FPT$WRTJ) ALTRET(ER_WRTT);

   5340  1 000443   300000 630500                    EPPR0   0,,PR3
         1 000444   440001 713400                    CLIMB   alt,write
         1 000445   401400 401760                    pmme    nvectors=4
         1 000446   000517 702000 1                  TSX2    ER_WRTT
PL6.E3A0      #006=ZIM$JSTO File=ZIM$JRNL.:ZIC0TSI                               FRI 09/05/97 13:00 Page:183

      772     5341    4                   END;

      773     5342    3               IF AWS.ATRIB.CJRNL THEN

   5342  1 000447   200006 470500                    LDP0    AWS$,,AUTO
         1 000450   000000 236100                    LDQ     0,,PR0
         1 000451   100000 316003                    CANQ    32768,DU
         1 000452   000516 600000 1                  TZE     s:5353

      774     5343    4               DO;

      775     5344    4                   JREC.LENGTH=DBCB.CSECT.TBUF$->RECCW.SIZE;

   5344  1 000453   200005 471500                    LDP1    DBCB$,,AUTO
         1 000454   100004 473500                    LDP3    4,,PR1
         1 000455   200007 474500                    LDP4    JRNL$,,AUTO
         1 000456   003100 060500                    CSL     bolr='003'O
         1 000457   300000 400022                    BDSC    0,,PR3                   by=2,bit=0,n=18
         1 000460   400003 000022                    BDSC    3,,PR4                   by=0,bit=0,n=18

      776     5345    4                   LENGTH=JREC.LENGTH;

   5345  1 000461   400003 236100                    LDQ     3,,PR4
         1 000462   000022 772000                    QRL     18
         1 000463   200013 756100                    STQ     LENGTH,,AUTO

      777     5346    4                   JREC.VALUE=DBCB.CSECT.TBUF$->RECORD;

   5346  1 000464   400003 220100                    LDX0    3,,PR4
         1 000465   100004 473500                    LDP3    4,,PR1
         1 000466   000000 621006                    EAX1    0,QL
         1 000467   040140 100540                    MLR     fill='040'O
         1 000470   300000 000011                    ADSC9   0,,PR3                   cn=0,n=*X1
         1 000471   400004 400010                    ADSC9   4,,PR4                   cn=2,n=*X0

      778     5347    4                   FPT$WRTJ.BUF_.BOUND=SIZEV(JREC);
PL6.E3A0      #006=ZIM$JSTO File=ZIM$JRNL.:ZIC0TSI                               FRI 09/05/97 13:00 Page:184

   5347  1 000472   000022 621010                    EAX1    18,X0
         1 000473   000000 636011                    EAQ     0,X1
         1 000474   000022 772000                    QRL     18
         1 000475   000011 402007                    MPY     9,DL
         1 000476   000043 036007                    ADLQ    35,DL
         1 000477   000044 506007                    DIV     36,DL
         1 000500   200011 473500                    LDP3    WRTJ$,,AUTO
         1 000501   000002 736000                    QLS     2
         1 000502   000001 136007                    SBLQ    1,DL
         1 000503   000020 736000                    QLS     16
         1 000504   300004 676100                    ERQ     4,,PR3
         1 000505   000000 376000 2                  ANQ     0
         1 000506   300004 656100                    ERSQ    4,,PR3

      779     5348    4                   FPT$WRTJ.V.DCB#=GLOBAL.CJRNL.DCB#;

   5348  1 000507   000000 470400 xsym               LDP0    GLOBAL$
         1 000510   002610 720100                    LXL0    1416,,PR0
         1 000511   300010 740100                    STX0    8,,PR3

      780     5349    4                   CALL M$WRITE(FPT$WRTJ) ALTRET(ER_WRTC);

   5349  1 000512   300000 630500                    EPPR0   0,,PR3
         1 000513   440001 713400                    CLIMB   alt,write
         1 000514   401400 401760                    pmme    nvectors=4
         1 000515   000531 702000 1                  TSX2    ER_WRTC

      781     5350    4                   END;

      782     5351    3               END;

      783     5352    2           END;

      784     5353    1       RETURN;

   5353  1 000516   000000 702200 xent               TSX2  ! X66_ARET
PL6.E3A0      #006=ZIM$JSTO File=ZIM$JRNL.:ZIC0TSI                               FRI 09/05/97 13:00 Page:185

      785     5354    1   ER_WRTT: ERROR=ERR#IO#WRTT;

   5354  1 000517   210720 235007       ER_WRTT      LDA     70096,DL
         1 000520   200012 755100                    STA     ERROR,,AUTO

      786     5355    1       GLOBAL.RET.SYSERR#=B$TCB$->B$TCB.ALT$->B$ALT.ERR;

   5355  1 000521   000000 470400 xsym               LDP0    B$TCB$
         1 000522   000000 471500                    LDP1    0,,PR0
         1 000523   100102 236100                    LDQ     66,,PR1
         1 000524   000000 473400 xsym               LDP3    GLOBAL$
         1 000525   300007 756100                    STQ     7,,PR3

      787     5356    1       GLOBAL.RET.DCB#=GLOBAL.TJRNL.DCB#;

   5356  1 000526   302604 720100                    LXL0    1412,,PR3
         1 000527   300014 740100                    STX0    12,,PR3

      788     5357    1       GOTO ALT;

   5357  1 000530   000553 710000 1                  TRA     ALT

      789     5358    1   ER_WRTC: IF B$TCB$->B$TCB.ALT$->B$ALT.ERR.ERR#=%E$JRNLCLSD THEN

   5358  1 000531   000000 470400 xsym  ER_WRTC      LDP0    B$TCB$
         1 000532   000000 471500                    LDP1    0,,PR0
         1 000533   100102 236100                    LDQ     66,,PR1
         1 000534   377770 376007                    ANQ     131064,DL
         1 000535   001160 116007                    CMPQ    624,DL
         1 000536   000542 601000 1                  TNZ     s:5361

      790     5359    1           ERROR=ERR#IO#NOOWNER;

   5359  1 000537   210762 235007                    LDA     70130,DL
         1 000540   200012 755100                    STA     ERROR,,AUTO
         1 000541   000544 710000 1                  TRA     s:5362
PL6.E3A0      #006=ZIM$JSTO File=ZIM$JRNL.:ZIC0TSI                               FRI 09/05/97 13:00 Page:186

      791     5360    1       ELSE
      792     5361    1           ERROR=ERR#IO#WRTC;

   5361  1 000542   210721 235007                    LDA     70097,DL
         1 000543   200012 755100                    STA     ERROR,,AUTO

      793     5362    1       GLOBAL.RET.SYSERR#=B$TCB$->B$TCB.ALT$->B$ALT.ERR;

   5362  1 000544   100102 236100                    LDQ     66,,PR1
         1 000545   000000 473400 xsym               LDP3    GLOBAL$
         1 000546   300007 756100                    STQ     7,,PR3

      794     5363    1       GLOBAL.RET.DCB#=GLOBAL.CJRNL.DCB#;

   5363  1 000547   302610 720100                    LXL0    1416,,PR3
         1 000550   300014 740100                    STX0    12,,PR3

      795     5364    1       GLOBAL.CJRNL.DCB#=0;

   5364  1 000551   302610 450100                    STZ     1416,,PR3

      796     5365    1       GOTO ALT;

   5365  1 000552   000553 710000 1                  TRA     ALT

   5364  1 000553                       ALT          null
      797     5366    1   ALT: ;
      798     5367    1       GLOBAL.RET.ERROR#=ERROR;

   5367  1 000553   300006 755100                    STA     6,,PR3

      799     5368    1       CALL M$ERR;

   5368  1 000554   000002 713400                    CLIMB   err
         1 000555   000000 401760                    pmme    nvectors=0

PL6.E3A0      #006=ZIM$JSTO File=ZIM$JRNL.:ZIC0TSI                               FRI 09/05/97 13:00 Page:187
      800     5369    1   END ZIM$JSTO;

   5369  1 000556   000000 702200 xent               TSX2  ! X66_ARET

(unnamed)
 Sect OctLoc
   2     000   777777 600000                                                    ....
      801     5370        %EOD;

PL6.E3A0      #006=ZIM$JSTO File=ZIM$JRNL.:ZIC0TSI                               FRI 09/05/97 13:00 Page:188
--  Include file information  --

   B_ERRORS_C.:LIB_E05  is referenced.
   ZI_ERRORS_C.:ZIC0TOU  is referenced.
   B$JIT.:LIB_E05  cannot be made into a system file and is referenced.
   CP_6_SUBS.:LIB_E05  is referenced.
   CP_6.:LIB_E05  cannot be made into a system file and is referenced.
   ZI$JRNL.:ZIC0TOU  is referenced.
   ZI$DBCB.:ZIC0TOU  is referenced.
   ZI$SSS.:ZIC0TOU  cannot be made into a system file and is referenced.
   ZI$GLOBAL.:ZIC0TOU  is referenced.
   B$JIT_C.:E05TOU  was found in the system file and is referenced.
   CP_6_C.:E05TOU  was found in the system file and is referenced.
      No diagnostics issued in procedure ZIM$JSTO.

   Procedure ZIM$JSTO requires 367 words for executable code.
   Procedure ZIM$JSTO requires 16 words of local(AUTO) storage.
PL6.E3A0      #006=ZIM$JSTO File=ZIM$JRNL.:ZIC0TSI                               FRI 09/05/97 13:00 Page:189
          *** CROSS REFERENCE LISTING ***
**     DENOTES     IDENTIFIER DEFINITION
<<                 IDENTIFIER'S VALUE SET
>>                 IDENTIFIER'S VALUE USED
<>                 IDENTIFIER SET AND/OR USED
--                 IDENTIFIER REFERENCED
PL6.E3A0      #006=ZIM$JSTO File=ZIM$JRNL.:ZIC0TSI                               FRI 09/05/97 13:00 Page:190
          MINI XREF LISTING

AC.DBLIM.LOWDBK
      1397**DCL      5286>>ASSIGN   5287>>ASSIGN
AC.DEF.ANL
      1376**DCL      1447--IMP-SIZ
AC.DEF.FORG
      1363**DCL      1367--REDEF
AC.LPP
      1400**DCL      5286>>ASSIGN   5287>>ASSIGN
AC$
      1359**DCL      1360--IMP-PTR  5280<<ASSIGN   5286>>ASSIGN   5286>>ASSIGN   5287>>ASSIGN   5287>>ASSIGN
ALT
      5364**LABEL    5357--GOTO     5365--GOTO
AWS.ATRIB.CJRNL
      2611**DCL      5275>>IF       5300>>IF       5321>>IF       5342>>IF
AWS.ATRIB.TJRNL
      2613**DCL      5275>>IF       5291>>IF       5312>>IF       5333>>IF
AWS.DDCB
      2632**DCL      5285>>ASSIGN
AWS$
      2606**DCL      2607--IMP-PTR  5274<<ASSIGN   5275>>IF       5275>>IF       5285>>ASSIGN   5291>>IF
      5300>>IF       5312>>IF       5321>>IF       5333>>IF       5342>>IF
B$ALT.CODE
      2914**DCL      2914--REDEF    2915--REDEF    2915--REDEF
B$ALT.ERR
      2915**DCL      5355>>ASSIGN   5362>>ASSIGN
B$ALT.ERR.ERR#
      2916**DCL      2916--REDEF    5358>>IF
B$ALT.EVID
      2915**DCL      2915--REDEF    2915--REDEF
B$JIT.CPFLAGS1.SLEAZE
      3618**DCL      3618--REDEF
B$JIT.ERR.MID
PL6.E3A0      #006=ZIM$JSTO File=ZIM$JRNL.:ZIC0TSI                               FRI 09/05/97 13:00 Page:191
      3525**DCL      3525--REDEF
B$JIT.JRESPEAK
      3686**DCL      3687--REDEF
B$JIT.ORIGINATOR_PORT.FROM_CR
      3795**DCL      3795--REDEF    3796--REDEF
B$JIT.PNR
      3699**DCL      3699--REDEF
B$JIT.TSLINE
      3793**DCL      3794--REDEF
B$JIT.USER
      3524**DCL      5284>>ASSIGN
B$JIT$
      5255**DCL      3519--IMP-PTR  5284>>ASSIGN
B$TCB.ALT$
      2910**DCL      5355>>ASSIGN   5358>>IF       5362>>ASSIGN
B$TCB$
      5256**DCL      5355>>ASSIGN   5358>>IF       5362>>ASSIGN
BERC.DCB#
      2796**DCL      2797--REDEF
COM
      5271**LABEL    5263--GOTO     5267--GOTO
DBCB.CSECT.TBUF$
      2105**DCL      5344>>ASSIGN   5346>>ASSIGN
DBCB.IOWS.CFCT
      2523**DCL      2524--REDEF
DBCB.IOWS.DBKF.RQ
      2466**DCL      2467--REDEF
DBCB.IOWS.DBKR
      2463**DCL      2464--REDEF
DBCB.IOWS.NOBF
      2525**DCL      2526--REDEF
DBCB.IOWS.SPND
      2451**DCL      2452--REDEF
DBCB.PCB.RVI
      2299**DCL      5266>>ASSIGN
DBCB.PCB.RVT
PL6.E3A0      #006=ZIM$JSTO File=ZIM$JRNL.:ZIC0TSI                               FRI 09/05/97 13:00 Page:192
      2303**DCL      5262>>ASSIGN   5270>>ASSIGN
DBCB.SWS.RDYCW
      2189**DCL      2190--REDEF
DBCB.SWS.TEMP.PTR1$
      2223**DCL      2224--REDEF    2225--REDEF
DBCB.SWS.TEMP.PTR2$
      2226**DCL      2227--REDEF
DBCB$
      2094**DCL      2095--IMP-PTR  5272<<ASSIGN   5344>>ASSIGN   5346>>ASSIGN
ERROR
      5257**DCL      5271<<ASSIGN   5354<<ASSIGN   5359<<ASSIGN   5361<<ASSIGN   5367>>ASSIGN
ER_WRTC
      5358**LABEL    5307--CALLALT  5328--CALLALT  5349--CALLALT
ER_WRTT
      5354**LABEL    5298--CALLALT  5319--CALLALT  5340--CALLALT
FPT$TIME
      2962**DCL      5281<>CALL
FPT$WRTJ
      2937**DCL      5298<>CALL     5307<>CALL     5319<>CALL     5328<>CALL     5340<>CALL     5349<>CALL
FPT$WRTJ.BUF_.BOUND
      2937**DCL      5296<<ASSIGN   5305<<ASSIGN   5317<<ASSIGN   5326<<ASSIGN   5338<<ASSIGN   5347<<ASSIGN
FPT$WRTJ.STATION_
      2939**DCL      2939--REDEF
FPT$WRTJ.V.DCB#
      2940**DCL      5297<<ASSIGN   5306<<ASSIGN   5318<<ASSIGN   5327<<ASSIGN   5339<<ASSIGN   5348<<ASSIGN
FPT$WRTJ.V.DVBYTE.VFC#
      2946**DCL      2946--REDEF
GLOBAL.ACTIVE.DBCB$
       501**DCL       502--REDEF    5262>>ASSIGN   5262>>ASSIGN   5266>>ASSIGN   5266>>ASSIGN   5270>>ASSIGN
      5270>>ASSIGN   5272>>ASSIGN
GLOBAL.ACTIVE.SSS$
       497**DCL       498--REDEF    5273>>ASSIGN
GLOBAL.CJRNL.DCB#
       690**DCL      5306>>ASSIGN   5327>>ASSIGN   5348>>ASSIGN   5363>>ASSIGN   5364<<ASSIGN
GLOBAL.JRECORD
       700**DCL      5278--ASSIGN
PL6.E3A0      #006=ZIM$JSTO File=ZIM$JRNL.:ZIC0TSI                               FRI 09/05/97 13:00 Page:193
GLOBAL.KEY
       705**DCL       708--REDEF
GLOBAL.PARAN.TRACE.MODE
       580**DCL       587--REDEF
GLOBAL.PENDING.ROLL
       536**DCL      5275>>IF
GLOBAL.PRINTBUF.BUFFER
       739**DCL       740--REDEF     741--REDEF     742--REDEF
GLOBAL.PRINTBUF.ERR.V
       744**DCL       747--REDEF     748--REDEF     749--REDEF
GLOBAL.RET.DCB#
       521**DCL      5356<<ASSIGN   5363<<ASSIGN
GLOBAL.RET.ERROR#
       515**DCL      5367<<ASSIGN
GLOBAL.RET.SYSERR#
       516**DCL      5355<<ASSIGN   5362<<ASSIGN
GLOBAL.TIME.TSTAMP
       728**DCL      5283>>ASSIGN
GLOBAL.TIME$
       777**DCL      5281>>CALL
GLOBAL.TJRNL.DCB#
       684**DCL      5297>>ASSIGN   5318>>ASSIGN   5339>>ASSIGN   5356>>ASSIGN
GLOBAL.WRTJ$
       775**DCL      5279>>ASSIGN
GLOBAL$
       799**DCL       495--IMP-PTR  5262>>ASSIGN   5262>>ASSIGN   5266>>ASSIGN   5266>>ASSIGN   5270>>ASSIGN
      5270>>ASSIGN   5272>>ASSIGN   5273>>ASSIGN   5275>>IF       5278>>ASSIGN   5279>>ASSIGN   5281>>CALL
      5283>>ASSIGN   5297>>ASSIGN   5306>>ASSIGN   5318>>ASSIGN   5327>>ASSIGN   5339>>ASSIGN   5348>>ASSIGN
      5355>>ASSIGN   5356>>ASSIGN   5356>>ASSIGN   5362>>ASSIGN   5363>>ASSIGN   5363>>ASSIGN   5364>>ASSIGN
      5367>>ASSIGN
JREC
      2775**DCL      5296--ASSIGN   5305--ASSIGN   5317--ASSIGN   5326--ASSIGN   5338--ASSIGN   5347--ASSIGN
JREC.DCB#
      2779**DCL      5285<<ASSIGN
JREC.LENGTH
      2781**DCL      2784--IMP-SIZ  5293<<ASSIGN   5295>>ASSIGN   5296>>ASSIGN   5302<<ASSIGN   5303>>ASSIGN
PL6.E3A0      #006=ZIM$JSTO File=ZIM$JRNL.:ZIC0TSI                               FRI 09/05/97 13:00 Page:194
      5304>>ASSIGN   5305>>ASSIGN   5314<<ASSIGN   5315>>ASSIGN   5316>>ASSIGN   5317>>ASSIGN   5323<<ASSIGN
      5325>>ASSIGN   5326>>ASSIGN   5335<<ASSIGN   5336>>ASSIGN   5337>>ASSIGN   5338>>ASSIGN   5344<<ASSIGN
      5345>>ASSIGN   5346>>ASSIGN   5347>>ASSIGN
JREC.LINE
      2782**DCL      5287<<ASSIGN
JREC.OFFSET
      2783**DCL      5288<<ASSIGN
JREC.PAGE
      2780**DCL      5286<<ASSIGN
JREC.TIME
      2776**DCL      5283<<ASSIGN
JREC.TYPE
      2777**DCL      5282<<ASSIGN
JREC.USER#
      2778**DCL      5284<<ASSIGN
JREC.VALUE
      2784**DCL      5295<<ASSIGN   5304<<ASSIGN   5316<<ASSIGN   5325<<ASSIGN   5337<<ASSIGN   5346<<ASSIGN
JRNL$
      2754**DCL      2755--IMP-PTR  2775--IMP-PTR  2785--IMP-PTR  2792--IMP-PTR  2798--IMP-PTR  5278<<ASSIGN
      5282>>ASSIGN   5283>>ASSIGN   5284>>ASSIGN   5285>>ASSIGN   5286>>ASSIGN   5287>>ASSIGN   5288>>ASSIGN
      5293>>ASSIGN   5295>>ASSIGN   5295>>ASSIGN   5296>>ASSIGN   5296>>ASSIGN   5302>>ASSIGN   5303>>ASSIGN
      5304>>ASSIGN   5304>>ASSIGN   5305>>ASSIGN   5305>>ASSIGN   5314>>ASSIGN   5315>>ASSIGN   5316>>ASSIGN
      5316>>ASSIGN   5317>>ASSIGN   5317>>ASSIGN   5323>>ASSIGN   5325>>ASSIGN   5325>>ASSIGN   5326>>ASSIGN
      5326>>ASSIGN   5335>>ASSIGN   5336>>ASSIGN   5337>>ASSIGN   5337>>ASSIGN   5338>>ASSIGN   5338>>ASSIGN
      5344>>ASSIGN   5345>>ASSIGN   5346>>ASSIGN   5346>>ASSIGN   5347>>ASSIGN   5347>>ASSIGN
LENGTH
      5258**DCL      5259--IMP-SIZ  5294<<ASSIGN   5295>>ASSIGN   5303<<ASSIGN   5304>>ASSIGN   5315<<ASSIGN
      5316>>ASSIGN   5324<<ASSIGN   5325>>ASSIGN   5336<<ASSIGN   5337>>ASSIGN   5345<<ASSIGN   5346>>ASSIGN
M$ERR
      2849**DCL-ENT  5368--CALL
M$TIME
      2904**DCL-ENT  5281--CALL
M$WRITE
      2838**DCL-ENT  5298--CALL     5307--CALL     5319--CALL     5328--CALL     5340--CALL     5349--CALL
RECCW.SIZE
       805**DCL      5335>>ASSIGN   5344>>ASSIGN
PL6.E3A0      #006=ZIM$JSTO File=ZIM$JRNL.:ZIC0TSI                               FRI 09/05/97 13:00 Page:195
RECORD
      5259**DCL      5295>>ASSIGN   5304>>ASSIGN   5316>>ASSIGN   5325>>ASSIGN   5337>>ASSIGN   5346>>ASSIGN
RECVAR.ACPTR
      2592**DCL      5280>>ASSIGN
RECVAR.AWS$
      2598**DCL      5274>>ASSIGN
RECVAR.BADDR
      2574**DCL      2577--REDEF
RECVAR.BADDR$
      2577**DCL      5288>>ASSIGN
RECVAR.DBKEY
      2573**DCL      5286>>ASSIGN   5287>>ASSIGN
RECVAR.RADDR
      2578**DCL      2582--REDEF
RECVAR.RADDR$
      2582**DCL      5288>>ASSIGN   5295>>ASSIGN   5304>>ASSIGN   5316>>ASSIGN   5325>>ASSIGN   5335>>ASSIGN
      5337>>ASSIGN
RECVAR.RECSZ
      2583**DCL      5302>>ASSIGN   5314>>ASSIGN
RECVAR$
      5253**DCL      2572--IMP-PTR  5262<<ASSIGN   5266<<ASSIGN   5270<<ASSIGN   5274>>ASSIGN   5280>>ASSIGN
      5286>>ASSIGN   5287>>ASSIGN   5288>>ASSIGN   5288>>ASSIGN   5295>>ASSIGN   5302>>ASSIGN   5304>>ASSIGN
      5314>>ASSIGN   5316>>ASSIGN   5325>>ASSIGN   5335>>ASSIGN   5337>>ASSIGN
SSS$
       814**DCL      5273<<ASSIGN   5280>>ASSIGN
TYPE
      5260**DCL      5261<<ASSIGN   5265<<ASSIGN   5269<<ASSIGN   5282>>ASSIGN   5289>>IF       5310>>IF
      5331>>IF
WRTJ$
      5254**DCL      2937--IMP-PTR  5279<<ASSIGN   5296>>ASSIGN   5297>>ASSIGN   5298>>CALL     5305>>ASSIGN
      5306>>ASSIGN   5307>>CALL     5317>>ASSIGN   5318>>ASSIGN   5319>>CALL     5326>>ASSIGN   5327>>ASSIGN
      5328>>CALL     5338>>ASSIGN   5339>>ASSIGN   5340>>CALL     5347>>ASSIGN   5348>>ASSIGN   5349>>CALL

PL6.E3A0      #007=ZIM$JPA File=ZIM$JRNL.:ZIC0TSI                                FRI 09/05/97 13:01 Page:196
      802        1        /*T***********************************************************/
      803        2        /*T*                                                         */
      804        3        /*T* Copyright (c) Bull HN Information Systems Inc., 1997    */
      805        4        /*T*                                                         */
      806        5        /*T***********************************************************/
      807        6        ZIM$JPA: PROC
      808        7               MATERIALIZE($PR6 IN SSS$,$PR7 IN DBCB$)
      809        8               AVOID($PR5,$PR6,$PR7);
      810        9        %INCLUDE ZI$GLOBAL;
      811      495            %GLOBALS;
      812      803            %RECCW;
      813      808        %INCLUDE ZI$SSS;
      814     1357            %AC;
      815     1452            %RS;
      816     1528        %INCLUDE ZI$DBCB;
      817     2170            %DBCB;
      818     2648            %RECVAR(STCLASS="BASED(RECVAR$)");
      819     2682            %AWS;
      820     2722        %INCLUDE ZI$JRNL;
      821     2830            %JRNL_REC(STCLASS=AUTO);
      822     2905        %INCLUDE CP_6;
      823     2986            %B$TCB;
      824     2989            %B$ALT;
      825     2997            %FPT_WRITE(FPTN=FPT$WRTJ,STCLASS="BASED(WRTJ$)");
      826     3028            %FPT_TIME(FPTN=FPT$TIME,STCLASS=BASED);
      827     3047        %INCLUDE CP_6_SUBS;
      828     3587        %INCLUDE B$JIT;
      829     3877        %INCLUDE ZI_ERRORS_C;
      830     4203        %INCLUDE B_ERRORS_C;
      831     5330    1   DCL RECVAR$ PTR;
      832     5331    1   DCL WRTJ$ PTR;
      833     5332    1   DCL B$JIT$ PTR SYMREF;
      834     5333    1   DCL B$TCB$ PTR SYMREF;
      835     5334    1   DCL ERROR UBIN(36);
      836     5335    1   DCL LENGTH UBIN(36);
      837     5336    1   DCL RECORD BASED CHAR(LENGTH);
      838     5337    1   DCL TYPE UBIN(36);
PL6.E3A0      #007=ZIM$JPA File=ZIM$JRNL.:ZIC0TSI                                FRI 09/05/97 13:01 Page:197
      839     5338    1   DCL 1 PRCW_EIS ALIGNED, /* FIRST HALF WORD OF PA CONTROL WORD */
      840     5339    1         2 OFFSET UBIN(20) UNAL,
      841     5340    1         2 LENGTH UBIN(16) UNAL;
      842     5341    1   DCL 1 NEW_PRCW ALIGNED,
      843     5342    1         2 * BIT(2) UNAL,
      844     5343    1         2 PAFIL BIT(1) UNAL,
      845     5344    1         2 PALIL BIT(1) UNAL,
      846     5345    1         2 * BIT(32) UNAL;
      847     5346    1   DCL 1 PA_REC BASED UNAL,
      848     5347    1         2 * BIT(36) UNAL,
      849     5348    1         2 PRCW BIT(36) UNAL;
      850     5349    1   DCL ZIM$JSET ENTRY(3);
      851     5350
      852     5351    1   COMMON_PA: PROC ALTRET;
      853     5352
      854     5353    2       JRNL$=ADDR(GLOBAL.JRECORD);
      855     5354    2       AC$=PINCRW(SSS$,RECVAR.ACPTR);
      856     5355    2       CALL M$TIME(GLOBAL.TIME$->FPT$TIME);
      857     5356    2       JREC.TYPE=T#MOD;
      858     5357    2       JREC.TIME=GLOBAL.TIME.TSTAMP;
      859     5358    2       JREC.USER#=B$JIT$->B$JIT.USER;
      860     5359    2       JREC.DCB#=AWS.DDCB;
      861     5360    2       JREC.PAGE=(RECVAR.DBKEY-AC.DBLIM.LOWDBK)/AC.LPP+1;
      862     5361    2       JREC.LINE=MOD(RECVAR.DBKEY-AC.DBLIM.LOWDBK,AC.LPP);
      863     5362    2       JREC.OFFSET=POFFC(RECVAR.RADDR$,RECVAR.BADDR$);
      864     5363    2       JREC.LENGTH=RECVAR.RECSZ;
      865     5364    2       LENGTH=JREC.LENGTH;
      866     5365    2       JREC.VALUE=RECVAR.RADDR$->RECORD;
      867     5366    2       FPT$WRTJ.BUF_.BOUND=SIZEV(JREC);
      868     5367    2       CALL M$WRITE(FPT$WRTJ) ALTRET(ER_WRTT);
      869     5368    2       RETURN;
      870     5369
      871     5370    2   ER_WRTT:
      872     5371    3       IF FPT$WRTJ.V.DCB#=GLOBAL.TJRNL.DCB# THEN DO;
      873     5372    3           ERROR=ERR#IO#WRTT;
      874     5373    3           GLOBAL.RET.DCB#=GLOBAL.TJRNL.DCB#;
      875     5374    3           END;
PL6.E3A0      #007=ZIM$JPA File=ZIM$JRNL.:ZIC0TSI                                FRI 09/05/97 13:01 Page:198
      876     5375    3       ELSE DO;
      877     5376    3           IF B$TCB$->B$TCB.ALT$->B$ALT.ERR.ERR#=%E$JRNLCLSD THEN
      878     5377    3               ERROR=ERR#IO#NOOWNER;
      879     5378    3           ELSE
      880     5379    3               ERROR=ERR#IO#WRTC;
      881     5380    3           GLOBAL.RET.DCB#=GLOBAL.CJRNL.DCB#;
      882     5381    3           GLOBAL.CJRNL.DCB#=0;
      883     5382    3           END;
      884     5383    2       GLOBAL.RET.SYSERR#=B$TCB$->B$TCB.ALT$->B$ALT.ERR;
      885     5384    2       ALTRETURN;
      886     5385    2   END COMMON_PA;
      887     5386
      888     5387    1   ZIM$JBEFPA: ENTRY;
      889     5388
      890     5389    1       ERROR=0;
      891     5390    1       RECVAR$=PINCRW(DBCB$,DBCB.PCB.RVPA);
      892     5391    1       AWS$=RECVAR.AWS$;
      893     5392    1       WRTJ$=GLOBAL.WRTJ$;
      894     5393    1       FPT$WRTJ.V.DCB#=GLOBAL.TJRNL.DCB#;
      895     5394    1       IF AWS.ATRIB.TJRNL THEN
      896     5395    1           CALL COMMON_PA ALTRET(ALTRTN);
      897     5396    1       RETURN;
      898     5397
      899     5398    1   ZIM$JAFTPA: ENTRY;
      900     5399
      901     5400    1       ERROR=0;
      902     5401    1       RECVAR$=PINCRW(DBCB$,DBCB.PCB.RVPA);
      903     5402    1       AWS$=RECVAR.AWS$;
      904     5403    1       WRTJ$=GLOBAL.WRTJ$;
      905     5404    1       IF AWS.ATRIB.CJRNL THEN
      906     5405    2       DO;
      907     5406    2           FPT$WRTJ.V.DCB#=GLOBAL.CJRNL.DCB#;
      908     5407    2           CALL COMMON_PA ALTRET(ALTRTN);
      909     5408    2           IF DBCB.PWS.PASPLT ~=0 THEN
      910     5409    3           DO;
      911     5410    3               RECVAR$=PINCRW(DBCB$,DBCB.PCB.RVO);
      912     5411    3               CALL COMMON_PA ALTRET(ALTRTN);
PL6.E3A0      #007=ZIM$JPA File=ZIM$JRNL.:ZIC0TSI                                FRI 09/05/97 13:01 Page:199
      913     5412    3               END;
      914     5413    2           END;
      915     5414    1       RETURN;
      916     5415    1   ALTRTN: ;
      917     5416    1       GLOBAL.RET.ERROR#=ERROR;
      918     5417    1       CALL M$ERR;
      919     5418
      920     5419    1   ZIM$JPASET: ENTRY;
      921     5420
      922     5421        /*    UPDATE THE NEXT POINTER IF THE REC IN RVT IS A MEMBER OF PA SET
      923     5422              OR UPDATE THE OWNER POINTER IN THE REC IF IT IS A PA_REC */
      924     5423
      925     5424    1       RECVAR$=PINCRW(DBCB$,DBCB.PCB.RVT);
      926     5425    1       RS$=PINCRW(SSS$,RECVAR.RSPTR);
      927     5426    1       IF RS.DEF.MEMT=2 THEN /* REC IS A PA_REC */
      928     5427    1           CALL ZIM$JSET(RECVAR$,RS.HPOS.EIS,DBCB.PWS.PAOPTR);
      929     5428    1       ELSE
      930     5429    1           CALL ZIM$JSET(RECVAR$,RS.CSPAH.EIS,DBCB.PWS.PAOPTR);
      931     5430    1       RETURN;
      932     5431
      933     5432
      934     5433    1   ZIM$JPAMEM: ENTRY;
      935     5434
      936     5435        /*    STORE THE TWO PTRS IN A PA MEMBER */
      937     5436
      938     5437    1       RECVAR$=PINCRW(DBCB$,DBCB.PCB.RVT);
      939     5438    1       RS$=PINCRW(SSS$,RECVAR.RSPTR);
      940     5439    1       CALL ZIM$JSET(RECVAR$,RS.CSPAH.EIS,DBCB.PWS.PAOPTR);
      941     5440    1       CALL ZIM$JSET(RECVAR$,RS.HPOS.EIS,DBCB.PWS.NPOPTR);
      942     5441    1       RETURN;
      943     5442
      944     5443    1   ZIM$JPAFIL: ENTRY;
      945     5444
      946     5445        /*    UPDATE THE PA FIRST_IN_LEVEL BIT IN PA REC CONTROL WORD
      947     5446                     AND JOURNAL THE CONTROL WORD */
      948     5447
      949     5448    1       RECVAR$=PINCRW(DBCB$,DBCB.PCB.RVO); /* USE RVO */
PL6.E3A0      #007=ZIM$JPA File=ZIM$JRNL.:ZIC0TSI                                FRI 09/05/97 13:01 Page:200
      950     5449    1       PRCW_EIS.LENGTH=4; /* JOURNAL FOUR BYTES */
      951     5450    1       PRCW_EIS.OFFSET=4; /* PARCW IS ALWAYS OFFSET BY 4 */
      952     5451    1       NEW_PRCW=RECVAR.RADDR$->PA_REC.PRCW; /* SET NEW PRCW = OLD */
      953     5452    1       NEW_PRCW.PAFIL='1'B; /* THEN SET FIL BIT */
      954     5453    1       CALL ZIM$JSET(RECVAR$,PRCW_EIS,NEW_PRCW);
      955     5454    1       RETURN;
      956     5455
      957     5456    1   ZIM$JPALIL: ENTRY;
      958     5457
      959     5458    1       RECVAR$=PINCRW(DBCB$,DBCB.PCB.RVT);
      960     5459    1       PRCW_EIS.LENGTH=4;
      961     5460    1       PRCW_EIS.OFFSET=4;
      962     5461    1       NEW_PRCW=RECVAR.RADDR$->PA_REC.PRCW;
      963     5462    1       NEW_PRCW.PALIL='1'B;
      964     5463    1       CALL ZIM$JSET(RECVAR$,PRCW_EIS,NEW_PRCW);
      965     5464    1       RETURN;
      966     5465
      967     5466
      968     5467    1   END ZIM$JPA;
      969     5468        %EOD;

PL6.E3A0      #007=ZIM$JPA File=ZIM$JRNL.:ZIC0TSI                                FRI 09/05/97 13:01 Page:201
--  Include file information  --

   B_ERRORS_C.:LIB_E05  is referenced.
   ZI_ERRORS_C.:ZIC0TOU  is referenced.
   B$JIT.:LIB_E05  cannot be made into a system file and is referenced.
   CP_6_SUBS.:LIB_E05  is referenced.
   CP_6.:LIB_E05  cannot be made into a system file and is referenced.
   ZI$JRNL.:ZIC0TOU  is referenced.
   ZI$DBCB.:ZIC0TOU  is referenced.
   ZI$SSS.:ZIC0TOU  cannot be made into a system file and is referenced.
   ZI$GLOBAL.:ZIC0TOU  is referenced.
   B$JIT_C.:E05TOU  was found in the system file and is referenced.
   CP_6_C.:E05TOU  was found in the system file and is referenced.
      No diagnostics issued in procedure ZIM$JPA.

   Procedure ZIM$JPA requires 349 words for executable code.
   Procedure ZIM$JPA requires 22 words of local(AUTO) storage.

PL6.E3A0      #007=ZIM$JPA File=ZIM$JRNL.:ZIC0TSI                                FRI 09/05/97 13:01 Page:202

 Object Unit name= ZIM$JPA                                    File name= ZIM$JRNL.:ZIC0TOU
 UTS= SEP 05 '97 13:01:02.92 FRI                              Compiler= PL-6/E31         Sev=      00
 SharedLib= :SHARED_SYSTEM                                    Alt SharedLib=


    ****  Control sections  ****

 Sect   Type Bound  Init  Size OctSiz  Section name(segment info)
    0   DCB   even  none     0      0  M$UC
    1   Proc  even  none   349    535  ZIM$JPA
    2  RoData even  none     2      2  ZIM$JPA

    ****  Entry defs  ****

                              Check   Calling
                             calling  sequence
  Sect OctLoc Primary Altret sequence   type   Parms  Name
     1      0   yes            yes      XStd       0  ZIM$JPA
     1    205                  yes      XStd       0  ZIM$JBEFPA
     1    236                  yes      XStd       0  ZIM$JAFTPA
     1    306                  yes      XStd       0  ZIM$JPASET
     1    363                  yes      XStd       0  ZIM$JPAMEM
     1    431                  yes      XStd       0  ZIM$JPAFIL
     1    473                  yes      XStd       0  ZIM$JPALIL

  ****  Entry refs  ****

         Check        Calling
        calling       sequence
Altret sequence SRef   type   Args  Name
         yes           XStd      3 ZIM$JSET
                       nStd      0 X66_AUTO_0
                       nStd      0 X66_ARET
PL6.E3A0      #007=ZIM$JPA File=ZIM$JRNL.:ZIC0TSI                                FRI 09/05/97 13:01 Page:203

  ****  Data refs  ****

  Flags:  r = read only, s = secondary
Flgs Name                             Flgs Name                             Flgs Name
r    GLOBAL$                               M$UC                                  B$JIT$
     B$TCB$
PL6.E3A0      #007=ZIM$JPA File=ZIM$JRNL.:ZIC0TSI                                FRI 09/05/97 13:01 Page:204


      802        1        /*T***********************************************************/
      803        2        /*T*                                                         */
      804        3        /*T* Copyright (c) Bull HN Information Systems Inc., 1997    */
      805        4        /*T*                                                         */
      806        5        /*T***********************************************************/
      807        6        ZIM$JPA: PROC

      6  1 000000   000000 700200 xent  ZIM$JPA      TSX0  ! X66_AUTO_0
         1 000001   000026 000000                    ZERO    22,0
         1 000002   200003 456700                    STP6  ! SSS$,,AUTO
         1 000003   200006 457700                    STP7  ! DBCB$,,AUTO
         1 000004   000204 710000 1                  TRA     s:5384+2

      808        7               MATERIALIZE($PR6 IN SSS$,$PR7 IN DBCB$)
      809        8               AVOID($PR5,$PR6,$PR7);
      810        9        %INCLUDE ZI$GLOBAL;
      811      495            %GLOBALS;
      812      803            %RECCW;
      813      808        %INCLUDE ZI$SSS;
      814     1357            %AC;
      815     1452            %RS;
      816     1528        %INCLUDE ZI$DBCB;
      817     2170            %DBCB;
      818     2648            %RECVAR(STCLASS="BASED(RECVAR$)");
      819     2682            %AWS;
      820     2722        %INCLUDE ZI$JRNL;
      821     2830            %JRNL_REC(STCLASS=AUTO);
      822     2905        %INCLUDE CP_6;
      823     2986            %B$TCB;
      824     2989            %B$ALT;
      825     2997            %FPT_WRITE(FPTN=FPT$WRTJ,STCLASS="BASED(WRTJ$)");
      826     3028            %FPT_TIME(FPTN=FPT$TIME,STCLASS=BASED);
      827     3047        %INCLUDE CP_6_SUBS;
      828     3587        %INCLUDE B$JIT;
      829     3877        %INCLUDE ZI_ERRORS_C;
      830     4203        %INCLUDE B_ERRORS_C;
PL6.E3A0      #007=ZIM$JPA File=ZIM$JRNL.:ZIC0TSI                                FRI 09/05/97 13:01 Page:205
      831     5330    1   DCL RECVAR$ PTR;
      832     5331    1   DCL WRTJ$ PTR;
      833     5332    1   DCL B$JIT$ PTR SYMREF;
      834     5333    1   DCL B$TCB$ PTR SYMREF;
      835     5334    1   DCL ERROR UBIN(36);
      836     5335    1   DCL LENGTH UBIN(36);
      837     5336    1   DCL RECORD BASED CHAR(LENGTH);
      838     5337    1   DCL TYPE UBIN(36);
      839     5338    1   DCL 1 PRCW_EIS ALIGNED, /* FIRST HALF WORD OF PA CONTROL WORD */
      840     5339    1         2 OFFSET UBIN(20) UNAL,
      841     5340    1         2 LENGTH UBIN(16) UNAL;
      842     5341    1   DCL 1 NEW_PRCW ALIGNED,
      843     5342    1         2 * BIT(2) UNAL,
      844     5343    1         2 PAFIL BIT(1) UNAL,
      845     5344    1         2 PALIL BIT(1) UNAL,
      846     5345    1         2 * BIT(32) UNAL;
      847     5346    1   DCL 1 PA_REC BASED UNAL,
      848     5347    1         2 * BIT(36) UNAL,
      849     5348    1         2 PRCW BIT(36) UNAL;
      850     5349    1   DCL ZIM$JSET ENTRY(3);
      851     5350
      852     5351    1   COMMON_PA: PROC ALTRET;

   5351  1 000005   200020 741300       COMMON_PA    STX1  ! NEW_PRCW+1,,AUTO

      853     5352
      854     5353    2       JRNL$=ADDR(GLOBAL.JRECORD);

   5353  1 000006   000000 236000 xsym               LDQ     GLOBAL$
         1 000007   002622 036003                    ADLQ    1426,DU
         1 000010   200010 756100                    STQ     JRNL$,,AUTO

      855     5354    2       AC$=PINCRW(SSS$,RECVAR.ACPTR);

   5354  1 000011   200011 470500                    LDP0    RECVAR$,,AUTO
         1 000012   000005 220100                    LDX0    5,,PR0
         1 000013   000000 636010                    EAQ     0,X0
PL6.E3A0      #007=ZIM$JPA File=ZIM$JRNL.:ZIC0TSI                                FRI 09/05/97 13:01 Page:206
         1 000014   200003 036100                    ADLQ    SSS$,,AUTO
         1 000015   200004 756100                    STQ     AC$,,AUTO

      856     5355    2       CALL M$TIME(GLOBAL.TIME$->FPT$TIME);

   5355  1 000016   000000 471400 xsym               LDP1    GLOBAL$
         1 000017   105117 473500                    LDP3    2639,,PR1
         1 000020   300000 630500                    EPPR0   0,,PR3
         1 000021   020004 713400                    CLIMB   8196
         1 000022   402000 401760                    pmme    nvectors=5

      857     5356    2       JREC.TYPE=T#MOD;

   5356  1 000023   200010 470500                    LDP0    JRNL$,,AUTO
         1 000024   010000 236003                    LDQ     4096,DU
         1 000025   000001 552140                    STBQ    1,'40'O,PR0

      858     5357    2       JREC.TIME=GLOBAL.TIME.TSTAMP;

   5357  1 000026   000000 471400 xsym               LDP1    GLOBAL$
         1 000027   105001 235100                    LDA     2561,,PR1
         1 000030   000000 755100                    STA     0,,PR0

      859     5358    2       JREC.USER#=B$JIT$->B$JIT.USER;

   5358  1 000031   000000 473400 xsym               LDP3    B$JIT$
         1 000032   300000 236100                    LDQ     0,,PR3
         1 000033   000001 552120                    STBQ    1,'20'O,PR0

      860     5359    2       JREC.DCB#=AWS.DDCB;

   5359  1 000034   200007 474500                    LDP4    AWS$,,AUTO
         1 000035   400006 220100                    LDX0    6,,PR4
         1 000036   000001 440100                    SXL0    1,,PR0

      861     5360    2       JREC.PAGE=(RECVAR.DBKEY-AC.DBLIM.LOWDBK)/AC.LPP+1;

PL6.E3A0      #007=ZIM$JPA File=ZIM$JRNL.:ZIC0TSI                                FRI 09/05/97 13:01 Page:207
   5360  1 000037   200004 470500                    LDP0    AC$,,AUTO
         1 000040   200011 471500                    LDP1    RECVAR$,,AUTO
         1 000041   100000 236100                    LDQ     0,,PR1
         1 000042   000010 136100                    SBLQ    8,,PR0
         1 000043   200022 756100                    STQ     NEW_PRCW+3,,AUTO
         1 000044   000012 236100                    LDQ     10,,PR0
         1 000045   777777 376007                    ANQ     -1,DL
         1 000046   200023 756100                    STQ     NEW_PRCW+4,,AUTO
         1 000047   200022 236100                    LDQ     NEW_PRCW+3,,AUTO
         1 000050   200023 506100                    DIV     NEW_PRCW+4,,AUTO
         1 000051   000001 036007                    ADLQ    1,DL
         1 000052   200010 470500                    LDP0    JRNL$,,AUTO
         1 000053   000002 756100                    STQ     2,,PR0

      862     5361    2       JREC.LINE=MOD(RECVAR.DBKEY-AC.DBLIM.LOWDBK,AC.LPP);

   5361  1 000054   200004 471500                    LDP1    AC$,,AUTO
         1 000055   200011 470500                    LDP0    RECVAR$,,AUTO
         1 000056   000000 236100                    LDQ     0,,PR0
         1 000057   100010 136100                    SBLQ    8,,PR1
         1 000060   200022 756100                    STQ     NEW_PRCW+3,,AUTO
         1 000061   100012 236100                    LDQ     10,,PR1
         1 000062   777777 376007                    ANQ     -1,DL
         1 000063   200023 756100                    STQ     NEW_PRCW+4,,AUTO
         1 000064   200022 236100                    LDQ     NEW_PRCW+3,,AUTO
         1 000065   200023 506100                    DIV     NEW_PRCW+4,,AUTO
         1 000066   000000 620005                    EAX0    0,AL
         1 000067   200010 470500                    LDP0    JRNL$,,AUTO
         1 000070   000003 440100                    SXL0    3,,PR0

      863     5362    2       JREC.OFFSET=POFFC(RECVAR.RADDR$,RECVAR.BADDR$);

   5362  1 000071   200011 470500                    LDP0    RECVAR$,,AUTO
         1 000072   000001 236100                    LDQ     1,,PR0
         1 000073   000020 772000                    QRL     16
         1 000074   200022 756100                    STQ     NEW_PRCW+3,,AUTO
         1 000075   000002 236100                    LDQ     2,,PR0
PL6.E3A0      #007=ZIM$JPA File=ZIM$JRNL.:ZIC0TSI                                FRI 09/05/97 13:01 Page:208
         1 000076   000020 772000                    QRL     16
         1 000077   200022 136100                    SBLQ    NEW_PRCW+3,,AUTO
         1 000100   000000 620006                    EAX0    0,QL
         1 000101   200010 470500                    LDP0    JRNL$,,AUTO
         1 000102   000004 740100                    STX0    4,,PR0

      864     5363    2       JREC.LENGTH=RECVAR.RECSZ;

   5363  1 000103   200011 470500                    LDP0    RECVAR$,,AUTO
         1 000104   000003 220100                    LDX0    3,,PR0
         1 000105   200010 470500                    LDP0    JRNL$,,AUTO
         1 000106   000003 740100                    STX0    3,,PR0

      865     5364    2       LENGTH=JREC.LENGTH;

   5364  1 000107   000003 236100                    LDQ     3,,PR0
         1 000110   000022 772000                    QRL     18
         1 000111   200014 756100                    STQ     LENGTH,,AUTO

      866     5365    2       JREC.VALUE=RECVAR.RADDR$->RECORD;

   5365  1 000112   200011 470500                    LDP0    RECVAR$,,AUTO
         1 000113   000002 471500                    LDP1    2,,PR0
         1 000114   000000 621006                    EAX1    0,QL
         1 000115   200010 470500                    LDP0    JRNL$,,AUTO
         1 000116   040140 100540                    MLR     fill='040'O
         1 000117   100000 000011                    ADSC9   0,,PR1                   cn=0,n=*X1
         1 000120   000004 400010                    ADSC9   4,,PR0                   cn=2,n=*X0

      867     5366    2       FPT$WRTJ.BUF_.BOUND=SIZEV(JREC);

   5366  1 000121   000003 220100                    LDX0    3,,PR0
         1 000122   000022 621010                    EAX1    18,X0
         1 000123   000000 636011                    EAQ     0,X1
         1 000124   000022 772000                    QRL     18
         1 000125   000011 402007                    MPY     9,DL
         1 000126   000043 036007                    ADLQ    35,DL
PL6.E3A0      #007=ZIM$JPA File=ZIM$JRNL.:ZIC0TSI                                FRI 09/05/97 13:01 Page:209
         1 000127   000044 506007                    DIV     36,DL
         1 000130   200012 471500                    LDP1    WRTJ$,,AUTO
         1 000131   000002 736000                    QLS     2
         1 000132   000001 136007                    SBLQ    1,DL
         1 000133   000020 736000                    QLS     16
         1 000134   100004 676100                    ERQ     4,,PR1
         1 000135   000000 376000 2                  ANQ     0
         1 000136   100004 656100                    ERSQ    4,,PR1

      868     5367    2       CALL M$WRITE(FPT$WRTJ) ALTRET(ER_WRTT);

   5367  1 000137   100000 630500                    EPPR0   0,,PR1
         1 000140   440001 713400                    CLIMB   alt,write
         1 000141   401400 401760                    pmme    nvectors=4
         1 000142   000145 702000 1                  TSX2    ER_WRTT

      869     5368    2       RETURN;

   5368  1 000143   200020 221300                    LDX1  ! NEW_PRCW+1,,AUTO
         1 000144   000001 702211                    TSX2  ! 1,X1

      870     5369
      871     5370    2   ER_WRTT:
      872     5371    3       IF FPT$WRTJ.V.DCB#=GLOBAL.TJRNL.DCB# THEN DO;

   5371  1 000145   000000 470400 xsym  ER_WRTT      LDP0    GLOBAL$
         1 000146   200012 471500                    LDP1    WRTJ$,,AUTO
         1 000147   100010 236100                    LDQ     8,,PR1
         1 000150   000022 772000                    QRL     18
         1 000151   002604 116100                    CMPQ    1412,,PR0
         1 000152   000160 601000 1                  TNZ     s:5376

      873     5372    3           ERROR=ERR#IO#WRTT;

   5372  1 000153   210720 235007                    LDA     70096,DL
         1 000154   200013 755100                    STA     ERROR,,AUTO

PL6.E3A0      #007=ZIM$JPA File=ZIM$JRNL.:ZIC0TSI                                FRI 09/05/97 13:01 Page:210
      874     5373    3           GLOBAL.RET.DCB#=GLOBAL.TJRNL.DCB#;

   5373  1 000155   002604 720100                    LXL0    1412,,PR0
         1 000156   000014 740100                    STX0    12,,PR0

      875     5374    3           END;

   5374  1 000157   000176 710000 1                  TRA     s:5383

      876     5375    3       ELSE DO;

      877     5376    3           IF B$TCB$->B$TCB.ALT$->B$ALT.ERR.ERR#=%E$JRNLCLSD THEN

   5376  1 000160   000000 473400 xsym               LDP3    B$TCB$
         1 000161   300000 474500                    LDP4    0,,PR3
         1 000162   400102 236100                    LDQ     66,,PR4
         1 000163   377770 376007                    ANQ     131064,DL
         1 000164   001160 116007                    CMPQ    624,DL
         1 000165   000171 601000 1                  TNZ     s:5379

      878     5377    3               ERROR=ERR#IO#NOOWNER;

   5377  1 000166   210762 235007                    LDA     70130,DL
         1 000167   200013 755100                    STA     ERROR,,AUTO
         1 000170   000173 710000 1                  TRA     s:5380

      879     5378    3           ELSE
      880     5379    3               ERROR=ERR#IO#WRTC;

   5379  1 000171   210721 235007                    LDA     70097,DL
         1 000172   200013 755100                    STA     ERROR,,AUTO

      881     5380    3           GLOBAL.RET.DCB#=GLOBAL.CJRNL.DCB#;

   5380  1 000173   002610 720100                    LXL0    1416,,PR0
         1 000174   000014 740100                    STX0    12,,PR0

PL6.E3A0      #007=ZIM$JPA File=ZIM$JRNL.:ZIC0TSI                                FRI 09/05/97 13:01 Page:211
      882     5381    3           GLOBAL.CJRNL.DCB#=0;

   5381  1 000175   002610 450100                    STZ     1416,,PR0

      883     5382    3           END;

      884     5383    2       GLOBAL.RET.SYSERR#=B$TCB$->B$TCB.ALT$->B$ALT.ERR;

   5383  1 000176   000000 473400 xsym               LDP3    B$TCB$
         1 000177   300000 474500                    LDP4    0,,PR3
         1 000200   400102 236100                    LDQ     66,,PR4
         1 000201   000007 756100                    STQ     7,,PR0

      885     5384    2       ALTRETURN;

   5384  1 000202   200020 221300                    LDX1  ! NEW_PRCW+1,,AUTO
         1 000203   000000 702211                    TSX2  ! 0,X1
         1 000204   000211 710000 1                  TRA     s:5389

      886     5385    2   END COMMON_PA;
      887     5386
      888     5387    1   ZIM$JBEFPA: ENTRY;

   5387  1 000205   000000 700200 xent  ZIM$JBEFPA   TSX0  ! X66_AUTO_0
         1 000206   000026 000000                    ZERO    22,0
         1 000207   200003 456700                    STP6  ! SSS$,,AUTO
         1 000210   200006 457700                    STP7  ! DBCB$,,AUTO

      889     5388
      890     5389    1       ERROR=0;

   5389  1 000211   200013 450100                    STZ     ERROR,,AUTO

      891     5390    1       RECVAR$=PINCRW(DBCB$,DBCB.PCB.RVPA);

   5390  1 000212   700513 220100                    LDX0    331,,PR7
         1 000213   000000 636010                    EAQ     0,X0
PL6.E3A0      #007=ZIM$JPA File=ZIM$JRNL.:ZIC0TSI                                FRI 09/05/97 13:01 Page:212
         1 000214   200006 036100                    ADLQ    DBCB$,,AUTO
         1 000215   200011 756100                    STQ     RECVAR$,,AUTO

      892     5391    1       AWS$=RECVAR.AWS$;

   5391  1 000216   200011 470500                    LDP0    RECVAR$,,AUTO
         1 000217   000013 236100                    LDQ     11,,PR0
         1 000220   200007 756100                    STQ     AWS$,,AUTO

      893     5392    1       WRTJ$=GLOBAL.WRTJ$;

   5392  1 000221   000000 471400 xsym               LDP1    GLOBAL$
         1 000222   105115 236100                    LDQ     2637,,PR1
         1 000223   200012 756100                    STQ     WRTJ$,,AUTO

      894     5393    1       FPT$WRTJ.V.DCB#=GLOBAL.TJRNL.DCB#;

   5393  1 000224   102604 721100                    LXL1    1412,,PR1
         1 000225   200012 473500                    LDP3    WRTJ$,,AUTO
         1 000226   300010 741100                    STX1    8,,PR3

      895     5394    1       IF AWS.ATRIB.TJRNL THEN

   5394  1 000227   200007 470500                    LDP0    AWS$,,AUTO
         1 000230   000000 236100                    LDQ     0,,PR0
         1 000231   020000 316003                    CANQ    8192,DU
         1 000232   000235 600000 1                  TZE     s:5396

      896     5395    1           CALL COMMON_PA ALTRET(ALTRTN);

   5395  1 000233   000005 701000 1                  TSX1    COMMON_PA
         1 000234   000300 702000 1                  TSX2    ALTRTN

      897     5396    1       RETURN;

   5396  1 000235   000000 702200 xent               TSX2  ! X66_ARET

PL6.E3A0      #007=ZIM$JPA File=ZIM$JRNL.:ZIC0TSI                                FRI 09/05/97 13:01 Page:213
      898     5397
      899     5398    1   ZIM$JAFTPA: ENTRY;

   5398  1 000236   000000 700200 xent  ZIM$JAFTPA   TSX0  ! X66_AUTO_0
         1 000237   000026 000000                    ZERO    22,0
         1 000240   200003 456700                    STP6  ! SSS$,,AUTO
         1 000241   200006 457700                    STP7  ! DBCB$,,AUTO

      900     5399
      901     5400    1       ERROR=0;

   5400  1 000242   200013 450100                    STZ     ERROR,,AUTO

      902     5401    1       RECVAR$=PINCRW(DBCB$,DBCB.PCB.RVPA);

   5401  1 000243   700513 220100                    LDX0    331,,PR7
         1 000244   000000 636010                    EAQ     0,X0
         1 000245   200006 036100                    ADLQ    DBCB$,,AUTO
         1 000246   200011 756100                    STQ     RECVAR$,,AUTO

      903     5402    1       AWS$=RECVAR.AWS$;

   5402  1 000247   200011 470500                    LDP0    RECVAR$,,AUTO
         1 000250   000013 236100                    LDQ     11,,PR0
         1 000251   200007 756100                    STQ     AWS$,,AUTO

      904     5403    1       WRTJ$=GLOBAL.WRTJ$;

   5403  1 000252   000000 471400 xsym               LDP1    GLOBAL$
         1 000253   105115 236100                    LDQ     2637,,PR1
         1 000254   200012 756100                    STQ     WRTJ$,,AUTO

      905     5404    1       IF AWS.ATRIB.CJRNL THEN

   5404  1 000255   200007 473500                    LDP3    AWS$,,AUTO
         1 000256   300000 236100                    LDQ     0,,PR3
         1 000257   100000 316003                    CANQ    32768,DU
PL6.E3A0      #007=ZIM$JPA File=ZIM$JRNL.:ZIC0TSI                                FRI 09/05/97 13:01 Page:214
         1 000260   000277 600000 1                  TZE     s:5414

      906     5405    2       DO;

      907     5406    2           FPT$WRTJ.V.DCB#=GLOBAL.CJRNL.DCB#;

   5406  1 000261   102610 721100                    LXL1    1416,,PR1
         1 000262   200012 474500                    LDP4    WRTJ$,,AUTO
         1 000263   400010 741100                    STX1    8,,PR4

      908     5407    2           CALL COMMON_PA ALTRET(ALTRTN);

   5407  1 000264   000005 701000 1                  TSX1    COMMON_PA
         1 000265   000300 702000 1                  TSX2    ALTRTN

      909     5408    2           IF DBCB.PWS.PASPLT ~=0 THEN

   5408  1 000266   200006 470500                    LDP0    DBCB$,,AUTO
         1 000267   000724 720100                    LXL0    468,,PR0
         1 000270   000277 600000 1                  TZE     s:5414

      910     5409    3           DO;

      911     5410    3               RECVAR$=PINCRW(DBCB$,DBCB.PCB.RVO);

   5410  1 000271   000511 221100                    LDX1    329,,PR0
         1 000272   000000 636011                    EAQ     0,X1
         1 000273   200006 036100                    ADLQ    DBCB$,,AUTO
         1 000274   200011 756100                    STQ     RECVAR$,,AUTO

      912     5411    3               CALL COMMON_PA ALTRET(ALTRTN);

   5411  1 000275   000005 701000 1                  TSX1    COMMON_PA
         1 000276   000300 702000 1                  TSX2    ALTRTN

      913     5412    3               END;

PL6.E3A0      #007=ZIM$JPA File=ZIM$JRNL.:ZIC0TSI                                FRI 09/05/97 13:01 Page:215
      914     5413    2           END;

      915     5414    1       RETURN;

   5414  1 000277   000000 702200 xent               TSX2  ! X66_ARET

   5411  1 000300                       ALTRTN       null
      916     5415    1   ALTRTN: ;
      917     5416    1       GLOBAL.RET.ERROR#=ERROR;

   5416  1 000300   000000 470400 xsym               LDP0    GLOBAL$
         1 000301   200013 235100                    LDA     ERROR,,AUTO
         1 000302   000006 755100                    STA     6,,PR0

      918     5417    1       CALL M$ERR;

   5417  1 000303   000002 713400                    CLIMB   err
         1 000304   000000 401760                    pmme    nvectors=0
         1 000305   000312 710000 1                  TRA     s:5424

      919     5418
      920     5419    1   ZIM$JPASET: ENTRY;

   5419  1 000306   000000 700200 xent  ZIM$JPASET   TSX0  ! X66_AUTO_0
         1 000307   000026 000000                    ZERO    22,0
         1 000310   200003 456700                    STP6  ! SSS$,,AUTO
         1 000311   200006 457700                    STP7  ! DBCB$,,AUTO

      921     5420
      922     5421        /*    UPDATE THE NEXT POINTER IF THE REC IN RVT IS A MEMBER OF PA SET
      923     5422              OR UPDATE THE OWNER POINTER IN THE REC IF IT IS A PA_REC */
      924     5423
      925     5424    1       RECVAR$=PINCRW(DBCB$,DBCB.PCB.RVT);

   5424  1 000312   200006 470500                    LDP0    DBCB$,,AUTO
         1 000313   000512 220100                    LDX0    330,,PR0
         1 000314   000000 636010                    EAQ     0,X0
PL6.E3A0      #007=ZIM$JPA File=ZIM$JRNL.:ZIC0TSI                                FRI 09/05/97 13:01 Page:216
         1 000315   200006 036100                    ADLQ    DBCB$,,AUTO
         1 000316   200011 756100                    STQ     RECVAR$,,AUTO

      926     5425    1       RS$=PINCRW(SSS$,RECVAR.RSPTR);

   5425  1 000317   200011 471500                    LDP1    RECVAR$,,AUTO
         1 000320   100004 721100                    LXL1    4,,PR1
         1 000321   000000 636011                    EAQ     0,X1
         1 000322   200003 036100                    ADLQ    SSS$,,AUTO
         1 000323   200005 756100                    STQ     RS$,,AUTO

      927     5426    1       IF RS.DEF.MEMT=2 THEN /* REC IS A PA_REC */

   5426  1 000324   200005 473500                    LDP3    RS$,,AUTO
         1 000325   300000 236100                    LDQ     0,,PR3
         1 000326   000007 376003                    ANQ     7,DU
         1 000327   000002 116003                    CMPQ    2,DU
         1 000330   000346 601000 1                  TNZ     s:5429

      928     5427    1           CALL ZIM$JSET(RECVAR$,RS.HPOS.EIS,DBCB.PWS.PAOPTR);

   5427  1 000331   200006 236100                    LDQ     DBCB$,,AUTO
         1 000332   000731 036003                    ADLQ    473,DU
         1 000333   200024 756100                    STQ     NEW_PRCW+5,,AUTO
         1 000334   200005 236100                    LDQ     RS$,,AUTO
         1 000335   000006 036003                    ADLQ    6,DU
         1 000336   200023 756100                    STQ     NEW_PRCW+4,,AUTO
         1 000337   200011 634500                    EPPR4   RECVAR$,,AUTO
         1 000340   200022 454500                    STP4    NEW_PRCW+3,,AUTO
         1 000341   200022 630500                    EPPR0   NEW_PRCW+3,,AUTO
         1 000342   000001 631400 2                  EPPR1   1
         1 000343   000000 701000 xent               TSX1    ZIM$JSET
         1 000344   000000 011000                    NOP     0
         1 000345   000362 710000 1                  TRA     s:5430

      929     5428    1       ELSE
      930     5429    1           CALL ZIM$JSET(RECVAR$,RS.CSPAH.EIS,DBCB.PWS.PAOPTR);
PL6.E3A0      #007=ZIM$JPA File=ZIM$JRNL.:ZIC0TSI                                FRI 09/05/97 13:01 Page:217

   5429  1 000346   200006 236100                    LDQ     DBCB$,,AUTO
         1 000347   000731 036003                    ADLQ    473,DU
         1 000350   200024 756100                    STQ     NEW_PRCW+5,,AUTO
         1 000351   200005 236100                    LDQ     RS$,,AUTO
         1 000352   000004 036003                    ADLQ    4,DU
         1 000353   200023 756100                    STQ     NEW_PRCW+4,,AUTO
         1 000354   200011 634500                    EPPR4   RECVAR$,,AUTO
         1 000355   200022 454500                    STP4    NEW_PRCW+3,,AUTO
         1 000356   200022 630500                    EPPR0   NEW_PRCW+3,,AUTO
         1 000357   000001 631400 2                  EPPR1   1
         1 000360   000000 701000 xent               TSX1    ZIM$JSET
         1 000361   000000 011000                    NOP     0

      931     5430    1       RETURN;

   5430  1 000362   000000 702200 xent               TSX2  ! X66_ARET

      932     5431
      933     5432
      934     5433    1   ZIM$JPAMEM: ENTRY;

   5433  1 000363   000000 700200 xent  ZIM$JPAMEM   TSX0  ! X66_AUTO_0
         1 000364   000026 000000                    ZERO    22,0
         1 000365   200003 456700                    STP6  ! SSS$,,AUTO
         1 000366   200006 457700                    STP7  ! DBCB$,,AUTO

      935     5434
      936     5435        /*    STORE THE TWO PTRS IN A PA MEMBER */
      937     5436
      938     5437    1       RECVAR$=PINCRW(DBCB$,DBCB.PCB.RVT);

   5437  1 000367   700512 220100                    LDX0    330,,PR7
         1 000370   000000 636010                    EAQ     0,X0
         1 000371   200006 036100                    ADLQ    DBCB$,,AUTO
         1 000372   200011 756100                    STQ     RECVAR$,,AUTO

PL6.E3A0      #007=ZIM$JPA File=ZIM$JRNL.:ZIC0TSI                                FRI 09/05/97 13:01 Page:218
      939     5438    1       RS$=PINCRW(SSS$,RECVAR.RSPTR);

   5438  1 000373   200011 470500                    LDP0    RECVAR$,,AUTO
         1 000374   000004 721100                    LXL1    4,,PR0
         1 000375   000000 636011                    EAQ     0,X1
         1 000376   200003 036100                    ADLQ    SSS$,,AUTO
         1 000377   200005 756100                    STQ     RS$,,AUTO

      940     5439    1       CALL ZIM$JSET(RECVAR$,RS.CSPAH.EIS,DBCB.PWS.PAOPTR);

   5439  1 000400   200006 236100                    LDQ     DBCB$,,AUTO
         1 000401   000731 036003                    ADLQ    473,DU
         1 000402   200024 756100                    STQ     NEW_PRCW+5,,AUTO
         1 000403   200005 236100                    LDQ     RS$,,AUTO
         1 000404   000004 036003                    ADLQ    4,DU
         1 000405   200023 756100                    STQ     NEW_PRCW+4,,AUTO
         1 000406   200011 631500                    EPPR1   RECVAR$,,AUTO
         1 000407   200022 451500                    STP1    NEW_PRCW+3,,AUTO
         1 000410   200022 630500                    EPPR0   NEW_PRCW+3,,AUTO
         1 000411   000001 631400 2                  EPPR1   1
         1 000412   000000 701000 xent               TSX1    ZIM$JSET
         1 000413   000000 011000                    NOP     0

      941     5440    1       CALL ZIM$JSET(RECVAR$,RS.HPOS.EIS,DBCB.PWS.NPOPTR);

   5440  1 000414   200006 236100                    LDQ     DBCB$,,AUTO
         1 000415   000631 036003                    ADLQ    409,DU
         1 000416   200024 756100                    STQ     NEW_PRCW+5,,AUTO
         1 000417   200005 236100                    LDQ     RS$,,AUTO
         1 000420   000006 036003                    ADLQ    6,DU
         1 000421   200023 756100                    STQ     NEW_PRCW+4,,AUTO
         1 000422   200011 630500                    EPPR0   RECVAR$,,AUTO
         1 000423   200022 450500                    STP0    NEW_PRCW+3,,AUTO
         1 000424   200022 630500                    EPPR0   NEW_PRCW+3,,AUTO
         1 000425   000001 631400 2                  EPPR1   1
         1 000426   000000 701000 xent               TSX1    ZIM$JSET
         1 000427   000000 011000                    NOP     0
PL6.E3A0      #007=ZIM$JPA File=ZIM$JRNL.:ZIC0TSI                                FRI 09/05/97 13:01 Page:219

      942     5441    1       RETURN;

   5441  1 000430   000000 702200 xent               TSX2  ! X66_ARET

      943     5442
      944     5443    1   ZIM$JPAFIL: ENTRY;

   5443  1 000431   000000 700200 xent  ZIM$JPAFIL   TSX0  ! X66_AUTO_0
         1 000432   000026 000000                    ZERO    22,0
         1 000433   200003 456700                    STP6  ! SSS$,,AUTO
         1 000434   200006 457700                    STP7  ! DBCB$,,AUTO

      945     5444
      946     5445        /*    UPDATE THE PA FIRST_IN_LEVEL BIT IN PA REC CONTROL WORD
      947     5446                     AND JOURNAL THE CONTROL WORD */
      948     5447
      949     5448    1       RECVAR$=PINCRW(DBCB$,DBCB.PCB.RVO); /* USE RVO */

   5448  1 000435   700511 220100                    LDX0    329,,PR7
         1 000436   000000 636010                    EAQ     0,X0
         1 000437   200006 036100                    ADLQ    DBCB$,,AUTO
         1 000440   200011 756100                    STQ     RECVAR$,,AUTO

      950     5449    1       PRCW_EIS.LENGTH=4; /* JOURNAL FOUR BYTES */

   5449  1 000441   200016 236100                    LDQ     PRCW_EIS,,AUTO
         1 000442   000000 376000 2                  ANQ     0
         1 000443   000004 276007                    ORQ     4,DL
         1 000444   200016 756100                    STQ     PRCW_EIS,,AUTO

      951     5450    1       PRCW_EIS.OFFSET=4; /* PARCW IS ALWAYS OFFSET BY 4 */

   5450  1 000445   200016 236100                    LDQ     PRCW_EIS,,AUTO
         1 000446   177777 376007                    ANQ     65535,DL
         1 000447   000001 276003                    ORQ     1,DU
         1 000450   200016 756100                    STQ     PRCW_EIS,,AUTO
PL6.E3A0      #007=ZIM$JPA File=ZIM$JRNL.:ZIC0TSI                                FRI 09/05/97 13:01 Page:220

      952     5451    1       NEW_PRCW=RECVAR.RADDR$->PA_REC.PRCW; /* SET NEW PRCW = OLD */

   5451  1 000451   200011 470500                    LDP0    RECVAR$,,AUTO
         1 000452   000002 471500                    LDP1    2,,PR0
         1 000453   003100 060500                    CSL     bolr='003'O
         1 000454   100001 000044                    BDSC    1,,PR1                   by=0,bit=0,n=36
         1 000455   200017 000044                    BDSC    NEW_PRCW,,AUTO           by=0,bit=0,n=36

      953     5452    1       NEW_PRCW.PAFIL='1'B; /* THEN SET FIL BIT */

   5452  1 000456   100000 236003                    LDQ     32768,DU
         1 000457   200017 256100                    ORSQ    NEW_PRCW,,AUTO

      954     5453    1       CALL ZIM$JSET(RECVAR$,PRCW_EIS,NEW_PRCW);

   5453  1 000460   200017 631500                    EPPR1   NEW_PRCW,,AUTO
         1 000461   200024 451500                    STP1    NEW_PRCW+5,,AUTO
         1 000462   200016 633500                    EPPR3   PRCW_EIS,,AUTO
         1 000463   200023 453500                    STP3    NEW_PRCW+4,,AUTO
         1 000464   200011 634500                    EPPR4   RECVAR$,,AUTO
         1 000465   200022 454500                    STP4    NEW_PRCW+3,,AUTO
         1 000466   200022 630500                    EPPR0   NEW_PRCW+3,,AUTO
         1 000467   000001 631400 2                  EPPR1   1
         1 000470   000000 701000 xent               TSX1    ZIM$JSET
         1 000471   000000 011000                    NOP     0

      955     5454    1       RETURN;

   5454  1 000472   000000 702200 xent               TSX2  ! X66_ARET

      956     5455
      957     5456    1   ZIM$JPALIL: ENTRY;

   5456  1 000473   000000 700200 xent  ZIM$JPALIL   TSX0  ! X66_AUTO_0
         1 000474   000026 000000                    ZERO    22,0
         1 000475   200003 456700                    STP6  ! SSS$,,AUTO
PL6.E3A0      #007=ZIM$JPA File=ZIM$JRNL.:ZIC0TSI                                FRI 09/05/97 13:01 Page:221
         1 000476   200006 457700                    STP7  ! DBCB$,,AUTO

      958     5457
      959     5458    1       RECVAR$=PINCRW(DBCB$,DBCB.PCB.RVT);

   5458  1 000477   700512 220100                    LDX0    330,,PR7
         1 000500   000000 636010                    EAQ     0,X0
         1 000501   200006 036100                    ADLQ    DBCB$,,AUTO
         1 000502   200011 756100                    STQ     RECVAR$,,AUTO

      960     5459    1       PRCW_EIS.LENGTH=4;

   5459  1 000503   200016 236100                    LDQ     PRCW_EIS,,AUTO
         1 000504   000000 376000 2                  ANQ     0
         1 000505   000004 276007                    ORQ     4,DL
         1 000506   200016 756100                    STQ     PRCW_EIS,,AUTO

      961     5460    1       PRCW_EIS.OFFSET=4;

   5460  1 000507   200016 236100                    LDQ     PRCW_EIS,,AUTO
         1 000510   177777 376007                    ANQ     65535,DL
         1 000511   000001 276003                    ORQ     1,DU
         1 000512   200016 756100                    STQ     PRCW_EIS,,AUTO

      962     5461    1       NEW_PRCW=RECVAR.RADDR$->PA_REC.PRCW;

   5461  1 000513   200011 470500                    LDP0    RECVAR$,,AUTO
         1 000514   000002 471500                    LDP1    2,,PR0
         1 000515   003100 060500                    CSL     bolr='003'O
         1 000516   100001 000044                    BDSC    1,,PR1                   by=0,bit=0,n=36
         1 000517   200017 000044                    BDSC    NEW_PRCW,,AUTO           by=0,bit=0,n=36

      963     5462    1       NEW_PRCW.PALIL='1'B;

   5462  1 000520   040000 236003                    LDQ     16384,DU
         1 000521   200017 256100                    ORSQ    NEW_PRCW,,AUTO

PL6.E3A0      #007=ZIM$JPA File=ZIM$JRNL.:ZIC0TSI                                FRI 09/05/97 13:01 Page:222
      964     5463    1       CALL ZIM$JSET(RECVAR$,PRCW_EIS,NEW_PRCW);

   5463  1 000522   200017 631500                    EPPR1   NEW_PRCW,,AUTO
         1 000523   200024 451500                    STP1    NEW_PRCW+5,,AUTO
         1 000524   200016 633500                    EPPR3   PRCW_EIS,,AUTO
         1 000525   200023 453500                    STP3    NEW_PRCW+4,,AUTO
         1 000526   200011 634500                    EPPR4   RECVAR$,,AUTO
         1 000527   200022 454500                    STP4    NEW_PRCW+3,,AUTO
         1 000530   200022 630500                    EPPR0   NEW_PRCW+3,,AUTO
         1 000531   000001 631400 2                  EPPR1   1
         1 000532   000000 701000 xent               TSX1    ZIM$JSET
         1 000533   000000 011000                    NOP     0

      965     5464    1       RETURN;

   5464  1 000534   000000 702200 xent               TSX2  ! X66_ARET

(unnamed)
 Sect OctLoc
   2     000   777777 600000   000003 000000                                    ........
      966     5465
      967     5466
      968     5467    1   END ZIM$JPA;
      969     5468        %EOD;

PL6.E3A0      #007=ZIM$JPA File=ZIM$JRNL.:ZIC0TSI                                FRI 09/05/97 13:01 Page:223
--  Include file information  --

   B_ERRORS_C.:LIB_E05  is referenced.
   ZI_ERRORS_C.:ZIC0TOU  is referenced.
   B$JIT.:LIB_E05  cannot be made into a system file and is referenced.
   CP_6_SUBS.:LIB_E05  is referenced.
   CP_6.:LIB_E05  cannot be made into a system file and is referenced.
   ZI$JRNL.:ZIC0TOU  is referenced.
   ZI$DBCB.:ZIC0TOU  is referenced.
   ZI$SSS.:ZIC0TOU  cannot be made into a system file and is referenced.
   ZI$GLOBAL.:ZIC0TOU  is referenced.
   B$JIT_C.:E05TOU  was found in the system file and is referenced.
   CP_6_C.:E05TOU  was found in the system file and is referenced.
      No diagnostics issued in procedure ZIM$JPA.

   Procedure ZIM$JPA requires 349 words for executable code.
   Procedure ZIM$JPA requires 22 words of local(AUTO) storage.
PL6.E3A0      #007=ZIM$JPA File=ZIM$JRNL.:ZIC0TSI                                FRI 09/05/97 13:01 Page:224
          *** CROSS REFERENCE LISTING ***
**     DENOTES     IDENTIFIER DEFINITION
<<                 IDENTIFIER'S VALUE SET
>>                 IDENTIFIER'S VALUE USED
<>                 IDENTIFIER SET AND/OR USED
--                 IDENTIFIER REFERENCED
PL6.E3A0      #007=ZIM$JPA File=ZIM$JRNL.:ZIC0TSI                                FRI 09/05/97 13:01 Page:225
          MINI XREF LISTING

AC.DBLIM.LOWDBK
      1398**DCL      5360>>ASSIGN   5361>>ASSIGN
AC.DEF.ANL
      1377**DCL      1448--IMP-SIZ
AC.DEF.FORG
      1364**DCL      1368--REDEF
AC.LPP
      1401**DCL      5360>>ASSIGN   5361>>ASSIGN
AC$
      1360**DCL      1361--IMP-PTR  5354<<ASSIGN   5360>>ASSIGN   5360>>ASSIGN   5361>>ASSIGN   5361>>ASSIGN
ALTRTN
      5411**LABEL    5395--CALLALT  5407--CALLALT  5411--CALLALT
AWS.ATRIB.CJRNL
      2688**DCL      5404>>IF
AWS.ATRIB.TJRNL
      2690**DCL      5394>>IF
AWS.DDCB
      2709**DCL      5359>>ASSIGN
AWS$
      2683**DCL      2684--IMP-PTR  5359>>ASSIGN   5391<<ASSIGN   5394>>IF       5402<<ASSIGN   5404>>IF
B$ALT.CODE
      2991**DCL      2991--REDEF    2992--REDEF    2992--REDEF
B$ALT.ERR
      2992**DCL      5383>>ASSIGN
B$ALT.ERR.ERR#
      2993**DCL      2993--REDEF    5376>>IF
B$ALT.EVID
      2992**DCL      2992--REDEF    2992--REDEF
B$JIT.CPFLAGS1.SLEAZE
      3695**DCL      3695--REDEF
B$JIT.ERR.MID
      3602**DCL      3602--REDEF
PL6.E3A0      #007=ZIM$JPA File=ZIM$JRNL.:ZIC0TSI                                FRI 09/05/97 13:01 Page:226
B$JIT.JRESPEAK
      3763**DCL      3764--REDEF
B$JIT.ORIGINATOR_PORT.FROM_CR
      3872**DCL      3872--REDEF    3873--REDEF
B$JIT.PNR
      3776**DCL      3776--REDEF
B$JIT.TSLINE
      3870**DCL      3871--REDEF
B$JIT.USER
      3601**DCL      5358>>ASSIGN
B$JIT$
      5332**DCL      3596--IMP-PTR  5358>>ASSIGN
B$TCB.ALT$
      2987**DCL      5376>>IF       5383>>ASSIGN
B$TCB$
      5333**DCL      5376>>IF       5383>>ASSIGN
BERC.DCB#
      2873**DCL      2874--REDEF
COMMON_PA
      5351**PROC     5395--CALL     5407--CALL     5411--CALL
DBCB.IOWS.CFCT
      2600**DCL      2601--REDEF
DBCB.IOWS.DBKF.RQ
      2543**DCL      2544--REDEF
DBCB.IOWS.DBKR
      2540**DCL      2541--REDEF
DBCB.IOWS.NOBF
      2602**DCL      2603--REDEF
DBCB.IOWS.SPND
      2528**DCL      2529--REDEF
DBCB.PCB.RVO
      2378**DCL      5410>>ASSIGN   5448>>ASSIGN
DBCB.PCB.RVPA
      2382**DCL      5390>>ASSIGN   5401>>ASSIGN
DBCB.PCB.RVT
      2380**DCL      5424>>ASSIGN   5437>>ASSIGN   5458>>ASSIGN
PL6.E3A0      #007=ZIM$JPA File=ZIM$JRNL.:ZIC0TSI                                FRI 09/05/97 13:01 Page:227
DBCB.PWS.NPOPTR
      2410**DCL      5440<>CALL
DBCB.PWS.PAOPTR
      2491**DCL      5427<>CALL     5429<>CALL     5439<>CALL
DBCB.PWS.PASPLT
      2484**DCL      5408>>IF
DBCB.SWS.RDYCW
      2266**DCL      2267--REDEF
DBCB.SWS.TEMP.PTR1$
      2300**DCL      2301--REDEF    2302--REDEF
DBCB.SWS.TEMP.PTR2$
      2303**DCL      2304--REDEF
DBCB$
      2171**DCL         6--MATRLIZ  2172--IMP-PTR  5390>>ASSIGN   5390>>ASSIGN   5401>>ASSIGN   5401>>ASSIGN
      5408>>IF       5410>>ASSIGN   5410>>ASSIGN   5424>>ASSIGN   5424>>ASSIGN   5427>>CALL     5429>>CALL
      5437>>ASSIGN   5437>>ASSIGN   5439>>CALL     5440>>CALL     5448>>ASSIGN   5448>>ASSIGN   5458>>ASSIGN
      5458>>ASSIGN
ERROR
      5334**DCL      5372<<ASSIGN   5377<<ASSIGN   5379<<ASSIGN   5389<<ASSIGN   5400<<ASSIGN   5416>>ASSIGN
ER_WRTT IN PROCEDURE COMMON_PA
      5371**LABEL    5367--CALLALT
FPT$TIME
      3039**DCL      5355<>CALL
FPT$WRTJ
      3014**DCL      5367<>CALL
FPT$WRTJ.BUF_.BOUND
      3014**DCL      5366<<ASSIGN
FPT$WRTJ.STATION_
      3016**DCL      3016--REDEF
FPT$WRTJ.V.DCB#
      3017**DCL      5371>>IF       5393<<ASSIGN   5406<<ASSIGN
FPT$WRTJ.V.DVBYTE.VFC#
      3023**DCL      3023--REDEF
GLOBAL.ACTIVE.DBCB$
       502**DCL       503--REDEF
GLOBAL.ACTIVE.SSS$
PL6.E3A0      #007=ZIM$JPA File=ZIM$JRNL.:ZIC0TSI                                FRI 09/05/97 13:01 Page:228
       498**DCL       499--REDEF
GLOBAL.CJRNL.DCB#
       691**DCL      5380>>ASSIGN   5381<<ASSIGN   5406>>ASSIGN
GLOBAL.JRECORD
       701**DCL      5353--ASSIGN
GLOBAL.KEY
       706**DCL       709--REDEF
GLOBAL.PARAN.TRACE.MODE
       581**DCL       588--REDEF
GLOBAL.PRINTBUF.BUFFER
       740**DCL       741--REDEF     742--REDEF     743--REDEF
GLOBAL.PRINTBUF.ERR.V
       745**DCL       748--REDEF     749--REDEF     750--REDEF
GLOBAL.RET.DCB#
       522**DCL      5373<<ASSIGN   5380<<ASSIGN
GLOBAL.RET.ERROR#
       516**DCL      5416<<ASSIGN
GLOBAL.RET.SYSERR#
       517**DCL      5383<<ASSIGN
GLOBAL.TIME.TSTAMP
       729**DCL      5357>>ASSIGN
GLOBAL.TIME$
       778**DCL      5355>>CALL
GLOBAL.TJRNL.DCB#
       685**DCL      5371>>IF       5373>>ASSIGN   5393>>ASSIGN
GLOBAL.WRTJ$
       776**DCL      5392>>ASSIGN   5403>>ASSIGN
GLOBAL$
       800**DCL       496--IMP-PTR  5353>>ASSIGN   5355>>CALL     5357>>ASSIGN   5371>>IF       5373>>ASSIGN
      5373>>ASSIGN   5380>>ASSIGN   5380>>ASSIGN   5381>>ASSIGN   5383>>ASSIGN   5392>>ASSIGN   5393>>ASSIGN
      5403>>ASSIGN   5406>>ASSIGN   5416>>ASSIGN
JREC
      2852**DCL      5366--ASSIGN
JREC.DCB#
      2856**DCL      5359<<ASSIGN
JREC.LENGTH
PL6.E3A0      #007=ZIM$JPA File=ZIM$JRNL.:ZIC0TSI                                FRI 09/05/97 13:01 Page:229
      2858**DCL      2861--IMP-SIZ  5363<<ASSIGN   5364>>ASSIGN   5365>>ASSIGN   5366>>ASSIGN
JREC.LINE
      2859**DCL      5361<<ASSIGN
JREC.OFFSET
      2860**DCL      5362<<ASSIGN
JREC.PAGE
      2857**DCL      5360<<ASSIGN
JREC.TIME
      2853**DCL      5357<<ASSIGN
JREC.TYPE
      2854**DCL      5356<<ASSIGN
JREC.USER#
      2855**DCL      5358<<ASSIGN
JREC.VALUE
      2861**DCL      5365<<ASSIGN
JRNL$
      2831**DCL      2832--IMP-PTR  2852--IMP-PTR  2862--IMP-PTR  2869--IMP-PTR  2875--IMP-PTR  5353<<ASSIGN
      5356>>ASSIGN   5357>>ASSIGN   5358>>ASSIGN   5359>>ASSIGN   5360>>ASSIGN   5361>>ASSIGN   5362>>ASSIGN
      5363>>ASSIGN   5364>>ASSIGN   5365>>ASSIGN   5365>>ASSIGN   5366>>ASSIGN   5366>>ASSIGN
LENGTH
      5335**DCL      5336--IMP-SIZ  5364<<ASSIGN   5365>>ASSIGN
M$ERR
      2926**DCL-ENT  5417--CALL
M$TIME
      2981**DCL-ENT  5355--CALL
M$WRITE
      2915**DCL-ENT  5367--CALL
NEW_PRCW
      5341**DCL      5451<<ASSIGN   5453<>CALL     5461<<ASSIGN   5463<>CALL
NEW_PRCW.PAFIL
      5343**DCL      5452<<ASSIGN
NEW_PRCW.PALIL
      5344**DCL      5462<<ASSIGN
PA_REC.PRCW
      5348**DCL      5451>>ASSIGN   5461>>ASSIGN
PRCW_EIS
PL6.E3A0      #007=ZIM$JPA File=ZIM$JRNL.:ZIC0TSI                                FRI 09/05/97 13:01 Page:230
      5338**DCL      5453<>CALL     5463<>CALL
PRCW_EIS.LENGTH
      5340**DCL      5449<<ASSIGN   5459<<ASSIGN
PRCW_EIS.OFFSET
      5339**DCL      5450<<ASSIGN   5460<<ASSIGN
RECORD
      5336**DCL      5365>>ASSIGN
RECVAR.ACPTR
      2669**DCL      5354>>ASSIGN
RECVAR.AWS$
      2675**DCL      5391>>ASSIGN   5402>>ASSIGN
RECVAR.BADDR
      2651**DCL      2654--REDEF
RECVAR.BADDR$
      2654**DCL      5362>>ASSIGN
RECVAR.DBKEY
      2650**DCL      5360>>ASSIGN   5361>>ASSIGN
RECVAR.RADDR
      2655**DCL      2659--REDEF
RECVAR.RADDR$
      2659**DCL      5362>>ASSIGN   5365>>ASSIGN   5451>>ASSIGN   5461>>ASSIGN
RECVAR.RECSZ
      2660**DCL      5363>>ASSIGN
RECVAR.RSPTR
      2668**DCL      5425>>ASSIGN   5438>>ASSIGN
RECVAR$
      5330**DCL      2649--IMP-PTR  5354>>ASSIGN   5360>>ASSIGN   5361>>ASSIGN   5362>>ASSIGN   5362>>ASSIGN
      5363>>ASSIGN   5365>>ASSIGN   5390<<ASSIGN   5391>>ASSIGN   5401<<ASSIGN   5402>>ASSIGN   5410<<ASSIGN
      5424<<ASSIGN   5425>>ASSIGN   5427<>CALL     5429<>CALL     5437<<ASSIGN   5438>>ASSIGN   5439<>CALL
      5440<>CALL     5448<<ASSIGN   5451>>ASSIGN   5453<>CALL     5458<<ASSIGN   5461>>ASSIGN   5463<>CALL
RS.CSPAH.EIS
      1490**DCL      5429<>CALL     5439<>CALL
RS.DEF.MEMT
      1462**DCL      5426>>IF
RS.HPOS.EIS
      1508**DCL      5427<>CALL     5440<>CALL
PL6.E3A0      #007=ZIM$JPA File=ZIM$JRNL.:ZIC0TSI                                FRI 09/05/97 13:01 Page:231
RS.NPOS
      1480**DCL      1489--REDEF
RS$
      1454**DCL      1455--IMP-PTR  5425<<ASSIGN   5426>>IF       5427>>CALL     5429>>CALL     5438<<ASSIGN
      5439>>CALL     5440>>CALL
SSS$
       815**DCL         6--MATRLIZ  5354>>ASSIGN   5425>>ASSIGN   5438>>ASSIGN
WRTJ$
      5331**DCL      3014--IMP-PTR  5366>>ASSIGN   5367>>CALL     5371>>IF       5392<<ASSIGN   5393>>ASSIGN
      5403<<ASSIGN   5406>>ASSIGN
ZIM$JSET
      5349**DCL-ENT  5427--CALL     5429--CALL     5439--CALL     5440--CALL     5453--CALL     5463--CALL

PL6.E3A0      #008=ZIM$JISTO File=ZIM$JRNL.:ZIC0TSI                              FRI 09/05/97 13:01 Page:232
      970        1        /*T***********************************************************/
      971        2        /*T*                                                         */
      972        3        /*T* Copyright (c) Bull HN Information Systems Inc., 1997    */
      973        4        /*T*                                                         */
      974        5        /*T***********************************************************/
      975        6        ZIM$JISTO: PROC
      976        7               AVOID($PR5,$PR6,$PR7);
      977        8        %INCLUDE ZI$GLOBAL;
      978      494            %GLOBALS;
      979      802        %INCLUDE ZI$SSS;
      980     1351            %AC;
      981     1446        %INCLUDE ZI$DBCB;
      982     2088            %DBCB;
      983     2566            %RECVAR(STCLASS="BASED(RECVAR$)");
      984     2600            %AWS;
      985     2640            %CRUNI;
      986     2645        %INCLUDE ZI$JRNL;
      987     2753            %JRNL_REC(STCLASS=AUTO);
      988     2828        %INCLUDE CP_6;
      989     2909            %B$TCB;
      990     2912            %F$DCB;
      991     2969            %B$ALT;
      992     2977            %FPT_WRITE(FPTN=FPT$WRTJ,STCLASS="BASED(WRTJ$)");
      993     3008            %FPT_TIME(FPTN=FPT$TIME,STCLASS=BASED);
      994     3027        %INCLUDE CP_6_SUBS;
      995     3567        %INCLUDE B$JIT;
      996     3857        %INCLUDE ZI_ERRORS_C;
      997     4183        %INCLUDE B_ERRORS_C;
      998     5310    1   DCL RECVAR$ PTR;
      999     5311    1   DCL WRTJ$ PTR;
     1000     5312    1   DCL B$JIT$ PTR SYMREF;
     1001     5313    1   DCL B$TCB$ PTR SYMREF;
     1002     5314    1   DCL ERROR UBIN(36);
     1003     5315    1   DCL TYPE UBIN(36);
     1004     5316    1   DCL LENGTH UBIN(36);
     1005     5317    1   DCL KEYX# UBIN(18);
     1006     5318    1   DCL RECORD CHAR(LENGTH) BASED CALIGNED;
PL6.E3A0      #008=ZIM$JISTO File=ZIM$JRNL.:ZIC0TSI                              FRI 09/05/97 13:01 Page:233
     1007     5319    1       TYPE=T#ISTO;
     1008     5320    1       RECVAR$=PINCRW(GLOBAL.ACTIVE.DBCB$,GLOBAL.ACTIVE.DBCB$->DBCB.PCB.RVT);
     1009     5321    1       GOTO COM;
     1010     5322    1   ZIM$JIDEL: ENTRY;
     1011     5323    1       TYPE=T#IDEL;
     1012     5324    1       RECVAR$=PINCRW(GLOBAL.ACTIVE.DBCB$,GLOBAL.ACTIVE.DBCB$->DBCB.PCB.RVI);
     1013     5325    1       GOTO COM;
     1014     5326    1   ZIM$JIMOD: ENTRY;
     1015     5327    1       TYPE=T#IMOD;
     1016     5328    1       RECVAR$=PINCRW(GLOBAL.ACTIVE.DBCB$,GLOBAL.ACTIVE.DBCB$->DBCB.PCB.RVT);
     1017     5329    1   COM: ERROR=0;
     1018     5330    1       DBCB$=GLOBAL.ACTIVE.DBCB$;
     1019     5331    1       SSS$=GLOBAL.ACTIVE.SSS$;
     1020     5332    1       AWS$=RECVAR.AWS$;
     1021     5333    1       IF ~GLOBAL.PENDING.ROLL AND
     1022     5334    2          (AWS.ATRIB.TJRNL OR AWS.ATRIB.CJRNL) THEN DO;
     1023     5335    2           JRNL$=ADDR(GLOBAL.JRECORD);
     1024     5336    2           WRTJ$=GLOBAL.WRTJ$;
     1025     5337    2           AC$=PINCRW(SSS$,RECVAR.ACPTR);
     1026     5338    2           CALL M$TIME(GLOBAL.TIME$->FPT$TIME);
     1027     5339    2           JREC.TYPE=TYPE;
     1028     5340    2           JREC.TIME=GLOBAL.TIME.TSTAMP;
     1029     5341    2           JREC.USER#=B$JIT$->B$JIT.USER;
     1030     5342    2           JREC.DCB#=AWS.DDCB;
     1031     5343    2           JREC.PAGE=0;
     1032     5344    2           JREC.LINE=0;
     1033     5345    2           JREC.OFFSET=0;
     1034     5346    3           IF TYPE=T#ISTO THEN DO;
     1035     5347    4               IF AWS.ATRIB.TJRNL THEN DO;
     1036     5348    4                   LENGTH=DCBADDR(AWS.DDCB)->F$DCB.KEYL#;
     1037     5349    4                   KEYX#=DCBADDR(AWS.DDCB)->F$DCB.KEYX#;
     1038     5350    4                   JREC.LENGTH=LENGTH;
     1039     5351    4                   JREC.VALUE=SUBSTR(RECVAR.RADDR$->RECORD,KEYX#,LENGTH);
     1040     5352    4                   FPT$WRTJ.BUF_.BOUND=SIZEV(JREC);
     1041     5353    4                   FPT$WRTJ.V.DCB#=GLOBAL.TJRNL.DCB#;
     1042     5354    4                   CALL M$WRITE(FPT$WRTJ) ALTRET(ER_WRTT);
     1043     5355    4                   END;
PL6.E3A0      #008=ZIM$JISTO File=ZIM$JRNL.:ZIC0TSI                              FRI 09/05/97 13:01 Page:234
     1044     5356    4               IF AWS.ATRIB.CJRNL THEN DO;
     1045     5357    4                   LENGTH=RECVAR.RECSZ;
     1046     5358    4                   JREC.LENGTH=LENGTH;
     1047     5359    4                   JREC.VALUE=RECVAR.RADDR$->RECORD;
     1048     5360    4                   FPT$WRTJ.BUF_.BOUND=SIZEV(JREC);
     1049     5361    4                   FPT$WRTJ.V.DCB#=GLOBAL.CJRNL.DCB#;
     1050     5362    4                   CALL M$WRITE(FPT$WRTJ) ALTRET(ER_WRTC);
     1051     5363    4                   END;
     1052     5364    3               END;
     1053     5365    3           IF TYPE=T#IDEL THEN DO;
     1054     5366    4               IF AWS.ATRIB.TJRNL THEN DO;
     1055     5367    4                   LENGTH=RECVAR.RECSZ;
     1056     5368    4                   JREC.LENGTH=LENGTH;
     1057     5369    4                   JREC.VALUE=RECVAR.RADDR$->RECORD;
     1058     5370    4                   FPT$WRTJ.BUF_.BOUND=SIZEV(JREC);
     1059     5371    4                   FPT$WRTJ.V.DCB#=GLOBAL.TJRNL.DCB#;
     1060     5372    4                   CALL M$WRITE(FPT$WRTJ) ALTRET(ER_WRTT);
     1061     5373    4                   END;
     1062     5374    4               IF AWS.ATRIB.CJRNL THEN DO;
     1063     5375    4                   LENGTH=DCBADDR(AWS.DDCB)->F$DCB.KEYL#;
     1064     5376    4                   KEYX#=DCBADDR(AWS.DDCB)->F$DCB.KEYX#;
     1065     5377    4                   JREC.LENGTH=LENGTH;
     1066     5378    4                   JREC.VALUE=SUBSTR(RECVAR.RADDR$->RECORD,KEYX#,LENGTH);
     1067     5379    4                   FPT$WRTJ.BUF_.BOUND=SIZEV(JREC);
     1068     5380    4                   FPT$WRTJ.V.DCB#=GLOBAL.CJRNL.DCB#;
     1069     5381    4                   CALL M$WRITE(FPT$WRTJ) ALTRET(ER_WRTC);
     1070     5382    4                   END;
     1071     5383    3               END;
     1072     5384    3           IF TYPE=T#IMOD THEN DO;
     1073     5385    4               IF AWS.ATRIB.TJRNL THEN DO;
     1074     5386    4                   RECVAR$=PINCRW(DBCB$,DBCB.PCB.RVI);
     1075     5387    4                   LENGTH=RECVAR.RECSZ;
     1076     5388    4                   JREC.LENGTH=LENGTH;
     1077     5389    4                   JREC.VALUE=RECVAR.RADDR$->RECORD;
     1078     5390    4                   FPT$WRTJ.BUF_.BOUND=SIZEV(JREC);
     1079     5391    4                   FPT$WRTJ.V.DCB#=GLOBAL.TJRNL.DCB#;
     1080     5392    4                   CALL M$WRITE(FPT$WRTJ) ALTRET(ER_WRTT);
PL6.E3A0      #008=ZIM$JISTO File=ZIM$JRNL.:ZIC0TSI                              FRI 09/05/97 13:01 Page:235
     1081     5393    4                   END;
     1082     5394    4               IF AWS.ATRIB.CJRNL THEN DO;
     1083     5395    4                   RECVAR$=PINCRW(DBCB$,DBCB.PCB.RVT);
     1084     5396    4                   LENGTH=RECVAR.RECSZ;
     1085     5397    4                   JREC.LENGTH=LENGTH;
     1086     5398    4                   JREC.VALUE=RECVAR.RADDR$->RECORD;
     1087     5399    4                   FPT$WRTJ.BUF_.BOUND=SIZEV(JREC);
     1088     5400    4                   FPT$WRTJ.V.DCB#=GLOBAL.CJRNL.DCB#;
     1089     5401    4                   CALL M$WRITE(FPT$WRTJ) ALTRET(ER_WRTC);
     1090     5402    4                   END;
     1091     5403    3               END;
     1092     5404    2           END;
     1093     5405    1       RETURN;
     1094     5406    1   ER_WRTT: ERROR=ERR#IO#WRTT;
     1095     5407    1       GLOBAL.RET.SYSERR#=B$TCB$->B$TCB.ALT$->B$ALT.ERR;
     1096     5408    1       GLOBAL.RET.DCB#=GLOBAL.TJRNL.DCB#;
     1097     5409    1       GOTO ALT;
     1098     5410    1   ER_WRTC: IF B$TCB$->B$TCB.ALT$->B$ALT.ERR.ERR#=%E$JRNLCLSD THEN
     1099     5411    1           ERROR=ERR#IO#NOOWNER;
     1100     5412    1       ELSE
     1101     5413    1           ERROR=ERR#IO#WRTC;
     1102     5414    1       GLOBAL.RET.SYSERR#=B$TCB$->B$TCB.ALT$->B$ALT.ERR;
     1103     5415    1       GLOBAL.RET.DCB#=GLOBAL.CJRNL.DCB#;
     1104     5416    1       GLOBAL.CJRNL.DCB#=0;
     1105     5417    1       GOTO ALT;
     1106     5418    1   ALT: ;
     1107     5419    1       GLOBAL.RET.ERROR#=ERROR;
     1108     5420    1       CALL M$ERR;
     1109     5421    1   END ZIM$JISTO;

PL6.E3A0      #008=ZIM$JISTO File=ZIM$JRNL.:ZIC0TSI                              FRI 09/05/97 13:01 Page:236
--  Include file information  --

   B_ERRORS_C.:LIB_E05  is referenced.
   ZI_ERRORS_C.:ZIC0TOU  is referenced.
   B$JIT.:LIB_E05  cannot be made into a system file and is referenced.
   CP_6_SUBS.:LIB_E05  is referenced.
   CP_6.:LIB_E05  cannot be made into a system file and is referenced.
   ZI$JRNL.:ZIC0TOU  is referenced.
   ZI$DBCB.:ZIC0TOU  is referenced.
   ZI$SSS.:ZIC0TOU  cannot be made into a system file and is referenced.
   ZI$GLOBAL.:ZIC0TOU  is referenced.
   B$JIT_C.:E05TOU  was found in the system file and is referenced.
   CP_6_C.:E05TOU  was found in the system file and is referenced.
      No diagnostics issued in procedure ZIM$JISTO.

   Procedure ZIM$JISTO requires 368 words for executable code.
   Procedure ZIM$JISTO requires 14 words of local(AUTO) storage.

    No errors detected in file ZIM$JRNL.:ZIC0TSI    .

PL6.E3A0      #008=ZIM$JISTO File=ZIM$JRNL.:ZIC0TSI                              FRI 09/05/97 13:01 Page:237

 Object Unit name= ZIM$JISTO                                  File name= ZIM$JRNL.:ZIC0TOU
 UTS= SEP 05 '97 13:01:20.68 FRI                              Compiler= PL-6/E31         Sev=      00
 SharedLib= :SHARED_SYSTEM                                    Alt SharedLib=


    ****  Control sections  ****

 Sect   Type Bound  Init  Size OctSiz  Section name(segment info)
    0   DCB   even  none     0      0  M$UC
    1   Proc  even  none   368    560  ZIM$JISTO
    2  RoData even  none     2      2  ZIM$JISTO

    ****  Entry defs  ****

                              Check   Calling
                             calling  sequence
  Sect OctLoc Primary Altret sequence   type   Parms  Name
     1      0   yes            yes      XStd       0  ZIM$JISTO
     1     12                  yes      XStd       0  ZIM$JIDEL
     1     24                  yes      XStd       0  ZIM$JIMOD

  ****  Entry refs  ****

         Check        Calling
        calling       sequence
Altret sequence SRef   type   Args  Name
                       nStd      0 X66_AUTO_0
                       nStd      0 X66_ARET

  ****  Data refs  ****

  Flags:  r = read only, s = secondary
Flgs Name                             Flgs Name                             Flgs Name
r    GLOBAL$                               M$UC                                  B$JIT$
     B$TCB$
PL6.E3A0      #008=ZIM$JISTO File=ZIM$JRNL.:ZIC0TSI                              FRI 09/05/97 13:01 Page:238

  ****  Segment refs  ****

  Flags:  r = read only, s = secondary
Flgs Name                             Flgs Name                             Flgs Name
     ROSID
PL6.E3A0      #008=ZIM$JISTO File=ZIM$JRNL.:ZIC0TSI                              FRI 09/05/97 13:01 Page:239


      970        1        /*T***********************************************************/
      971        2        /*T*                                                         */
      972        3        /*T* Copyright (c) Bull HN Information Systems Inc., 1997    */
      973        4        /*T*                                                         */
      974        5        /*T***********************************************************/
      975        6        ZIM$JISTO: PROC

      6  1 000000   000000 700200 xent  ZIM$JISTO    TSX0  ! X66_AUTO_0
         1 000001   000016 000000                    ZERO    14,0

      976        7               AVOID($PR5,$PR6,$PR7);
      977        8        %INCLUDE ZI$GLOBAL;
      978      494            %GLOBALS;
      979      802        %INCLUDE ZI$SSS;
      980     1351            %AC;
      981     1446        %INCLUDE ZI$DBCB;
      982     2088            %DBCB;
      983     2566            %RECVAR(STCLASS="BASED(RECVAR$)");
      984     2600            %AWS;
      985     2640            %CRUNI;
      986     2645        %INCLUDE ZI$JRNL;
      987     2753            %JRNL_REC(STCLASS=AUTO);
      988     2828        %INCLUDE CP_6;
      989     2909            %B$TCB;
      990     2912            %F$DCB;
      991     2969            %B$ALT;
      992     2977            %FPT_WRITE(FPTN=FPT$WRTJ,STCLASS="BASED(WRTJ$)");
      993     3008            %FPT_TIME(FPTN=FPT$TIME,STCLASS=BASED);
      994     3027        %INCLUDE CP_6_SUBS;
      995     3567        %INCLUDE B$JIT;
      996     3857        %INCLUDE ZI_ERRORS_C;
      997     4183        %INCLUDE B_ERRORS_C;
      998     5310    1   DCL RECVAR$ PTR;
      999     5311    1   DCL WRTJ$ PTR;
     1000     5312    1   DCL B$JIT$ PTR SYMREF;
     1001     5313    1   DCL B$TCB$ PTR SYMREF;
PL6.E3A0      #008=ZIM$JISTO File=ZIM$JRNL.:ZIC0TSI                              FRI 09/05/97 13:01 Page:240
     1002     5314    1   DCL ERROR UBIN(36);
     1003     5315    1   DCL TYPE UBIN(36);
     1004     5316    1   DCL LENGTH UBIN(36);
     1005     5317    1   DCL KEYX# UBIN(18);
     1006     5318    1   DCL RECORD CHAR(LENGTH) BASED CALIGNED;
     1007     5319    1       TYPE=T#ISTO;

   5319  1 000002   000020 235007                    LDA     16,DL
         1 000003   200013 755100                    STA     TYPE,,AUTO

     1008     5320    1       RECVAR$=PINCRW(GLOBAL.ACTIVE.DBCB$,GLOBAL.ACTIVE.DBCB$->DBCB.PCB.RVT);

   5320  1 000004   000000 470400 xsym               LDP0    GLOBAL$
         1 000005   000001 471500                    LDP1    1,,PR0
         1 000006   100512 220100                    LDX0    330,,PR1
         1 000007   100000 633510                    EPPR3   0,X0,PR1
         1 000010   200010 453500                    STP3    RECVAR$,,AUTO

     1009     5321    1       GOTO COM;

   5321  1 000011   000035 710000 1                  TRA     COM

     1010     5322    1   ZIM$JIDEL: ENTRY;

   5322  1 000012   000000 700200 xent  ZIM$JIDEL    TSX0  ! X66_AUTO_0
         1 000013   000016 000000                    ZERO    14,0

     1011     5323    1       TYPE=T#IDEL;

   5323  1 000014   000021 235007                    LDA     17,DL
         1 000015   200013 755100                    STA     TYPE,,AUTO

     1012     5324    1       RECVAR$=PINCRW(GLOBAL.ACTIVE.DBCB$,GLOBAL.ACTIVE.DBCB$->DBCB.PCB.RVI);

   5324  1 000016   000000 470400 xsym               LDP0    GLOBAL$
         1 000017   000001 471500                    LDP1    1,,PR0
         1 000020   100510 220100                    LDX0    328,,PR1
PL6.E3A0      #008=ZIM$JISTO File=ZIM$JRNL.:ZIC0TSI                              FRI 09/05/97 13:01 Page:241
         1 000021   100000 633510                    EPPR3   0,X0,PR1
         1 000022   200010 453500                    STP3    RECVAR$,,AUTO

     1013     5325    1       GOTO COM;

   5325  1 000023   000035 710000 1                  TRA     COM

     1014     5326    1   ZIM$JIMOD: ENTRY;

   5326  1 000024   000000 700200 xent  ZIM$JIMOD    TSX0  ! X66_AUTO_0
         1 000025   000016 000000                    ZERO    14,0

     1015     5327    1       TYPE=T#IMOD;

   5327  1 000026   000022 235007                    LDA     18,DL
         1 000027   200013 755100                    STA     TYPE,,AUTO

     1016     5328    1       RECVAR$=PINCRW(GLOBAL.ACTIVE.DBCB$,GLOBAL.ACTIVE.DBCB$->DBCB.PCB.RVT);

   5328  1 000030   000000 470400 xsym               LDP0    GLOBAL$
         1 000031   000001 471500                    LDP1    1,,PR0
         1 000032   100512 220100                    LDX0    330,,PR1
         1 000033   100000 633510                    EPPR3   0,X0,PR1
         1 000034   200010 453500                    STP3    RECVAR$,,AUTO

     1017     5329    1   COM: ERROR=0;

   5329  1 000035   200012 450100       COM          STZ     ERROR,,AUTO

     1018     5330    1       DBCB$=GLOBAL.ACTIVE.DBCB$;

   5330  1 000036   000001 236100                    LDQ     1,,PR0
         1 000037   200005 756100                    STQ     DBCB$,,AUTO

     1019     5331    1       SSS$=GLOBAL.ACTIVE.SSS$;

   5331  1 000040   000000 236100                    LDQ     0,,PR0
PL6.E3A0      #008=ZIM$JISTO File=ZIM$JRNL.:ZIC0TSI                              FRI 09/05/97 13:01 Page:242
         1 000041   200003 756100                    STQ     SSS$,,AUTO

     1020     5332    1       AWS$=RECVAR.AWS$;

   5332  1 000042   300013 236100                    LDQ     11,,PR3
         1 000043   200006 756100                    STQ     AWS$,,AUTO

     1021     5333    1       IF ~GLOBAL.PENDING.ROLL AND

   5333  1 000044   000017 236100                    LDQ     15,,PR0
         1 000045   000010 736000                    QLS     8
         1 000046   400000 376003                    ANQ     -131072,DU
         1 000047   400000 676003                    ERQ     -131072,DU
         1 000050   000517 600000 1                  TZE     s:5405
         1 000051   200006 474500                    LDP4    AWS$,,AUTO
         1 000052   400000 236100                    LDQ     0,,PR4
         1 000053   020000 316003                    CANQ    8192,DU
         1 000054   000057 601000 1                  TNZ     s:5335
         1 000055   100000 316003                    CANQ    32768,DU
         1 000056   000517 600000 1                  TZE     s:5405

     1022     5334    2          (AWS.ATRIB.TJRNL OR AWS.ATRIB.CJRNL) THEN DO;

     1023     5335    2           JRNL$=ADDR(GLOBAL.JRECORD);

   5335  1 000057   000000 236000 xsym               LDQ     GLOBAL$
         1 000060   002622 036003                    ADLQ    1426,DU
         1 000061   200007 756100                    STQ     JRNL$,,AUTO

     1024     5336    2           WRTJ$=GLOBAL.WRTJ$;

   5336  1 000062   005115 236100                    LDQ     2637,,PR0
         1 000063   200011 756100                    STQ     WRTJ$,,AUTO

     1025     5337    2           AC$=PINCRW(SSS$,RECVAR.ACPTR);

   5337  1 000064   300005 220100                    LDX0    5,,PR3
PL6.E3A0      #008=ZIM$JISTO File=ZIM$JRNL.:ZIC0TSI                              FRI 09/05/97 13:01 Page:243
         1 000065   000000 636010                    EAQ     0,X0
         1 000066   200003 036100                    ADLQ    SSS$,,AUTO
         1 000067   200004 756100                    STQ     AC$,,AUTO

     1026     5338    2           CALL M$TIME(GLOBAL.TIME$->FPT$TIME);

   5338  1 000070   005117 471500                    LDP1    2639,,PR0
         1 000071   100000 630500                    EPPR0   0,,PR1
         1 000072   020004 713400                    CLIMB   8196
         1 000073   402000 401760                    pmme    nvectors=5

     1027     5339    2           JREC.TYPE=TYPE;

   5339  1 000074   200007 470500                    LDP0    JRNL$,,AUTO
         1 000075   200013 236100                    LDQ     TYPE,,AUTO
         1 000076   000033 736000                    QLS     27
         1 000077   000001 552140                    STBQ    1,'40'O,PR0

     1028     5340    2           JREC.TIME=GLOBAL.TIME.TSTAMP;

   5340  1 000100   000000 471400 xsym               LDP1    GLOBAL$
         1 000101   105001 235100                    LDA     2561,,PR1
         1 000102   000000 755100                    STA     0,,PR0

     1029     5341    2           JREC.USER#=B$JIT$->B$JIT.USER;

   5341  1 000103   000000 473400 xsym               LDP3    B$JIT$
         1 000104   300000 236100                    LDQ     0,,PR3
         1 000105   000001 552120                    STBQ    1,'20'O,PR0

     1030     5342    2           JREC.DCB#=AWS.DDCB;

   5342  1 000106   200006 474500                    LDP4    AWS$,,AUTO
         1 000107   400006 220100                    LDX0    6,,PR4
         1 000110   000001 440100                    SXL0    1,,PR0

     1031     5343    2           JREC.PAGE=0;
PL6.E3A0      #008=ZIM$JISTO File=ZIM$JRNL.:ZIC0TSI                              FRI 09/05/97 13:01 Page:244

   5343  1 000111   000002 450100                    STZ     2,,PR0

     1032     5344    2           JREC.LINE=0;

   5344  1 000112   000000 221003                    LDX1    0,DU
         1 000113   000003 441100                    SXL1    3,,PR0

     1033     5345    2           JREC.OFFSET=0;

   5345  1 000114   000004 741100                    STX1    4,,PR0

     1034     5346    3           IF TYPE=T#ISTO THEN DO;

   5346  1 000115   200013 236100                    LDQ     TYPE,,AUTO
         1 000116   000020 116007                    CMPQ    16,DL
         1 000117   000245 601000 1                  TNZ     s:5365

     1035     5347    4               IF AWS.ATRIB.TJRNL THEN DO;

   5347  1 000120   400000 236100                    LDQ     0,,PR4
         1 000121   020000 316003                    CANQ    8192,DU
         1 000122   000201 600000 1                  TZE     s:5356

     1036     5348    4                   LENGTH=DCBADDR(AWS.DDCB)->F$DCB.KEYL#;

   5348  1 000123   000000 470400 2                  LDP0    0
         1 000124   000000 471500                    LDP1    0,,PR0
         1 000125   400006 220100                    LDX0    6,,PR4
         1 000126   100000 470510                    LDP0    0,X0,PR1
         1 000127   000036 236100                    LDQ     30,,PR0
         1 000130   000011 772000                    QRL     9
         1 000131   000777 376007                    ANQ     511,DL
         1 000132   200014 756100                    STQ     LENGTH,,AUTO

     1037     5349    4                   KEYX#=DCBADDR(AWS.DDCB)->F$DCB.KEYX#;

PL6.E3A0      #008=ZIM$JISTO File=ZIM$JRNL.:ZIC0TSI                              FRI 09/05/97 13:01 Page:245
   5349  1 000133   000000 470400 2                  LDP0    0
         1 000134   000000 471500                    LDP1    0,,PR0
         1 000135   100000 470510                    LDP0    0,X0,PR1
         1 000136   000036 222100                    LDX2    30,,PR0
         1 000137   200015 742100                    STX2    KEYX#,,AUTO

     1038     5350    4                   JREC.LENGTH=LENGTH;

   5350  1 000140   000000 623006                    EAX3    0,QL
         1 000141   200007 470500                    LDP0    JRNL$,,AUTO
         1 000142   000003 743100                    STX3    3,,PR0

     1039     5351    4                   JREC.VALUE=SUBSTR(RECVAR.RADDR$->RECORD,KEYX#,LENGTH);

   5351  1 000143   200010 471500                    LDP1    RECVAR$,,AUTO
         1 000144   100002 470500                    LDP0    2,,PR1
         1 000145   200014 720100                    LXL0    LENGTH,,AUTO
         1 000146   200015 235100                    LDA     KEYX#,,AUTO
         1 000147   000022 771000                    ARL     18
         1 000150   200007 471500                    LDP1    JRNL$,,AUTO
         1 000151   040140 100545                    MLR     fill='040'O
         1 000152   000000 000010                    ADSC9   0,A,PR0                  cn=0,n=*X0
         1 000153   100004 400013                    ADSC9   4,,PR1                   cn=2,n=*X3

     1040     5352    4                   FPT$WRTJ.BUF_.BOUND=SIZEV(JREC);

   5352  1 000154   100003 223100                    LDX3    3,,PR1
         1 000155   000022 624013                    EAX4    18,X3
         1 000156   000000 636014                    EAQ     0,X4
         1 000157   000022 772000                    QRL     18
         1 000160   000011 402007                    MPY     9,DL
         1 000161   000043 036007                    ADLQ    35,DL
         1 000162   000044 506007                    DIV     36,DL
         1 000163   200011 470500                    LDP0    WRTJ$,,AUTO
         1 000164   000002 736000                    QLS     2
         1 000165   000001 136007                    SBLQ    1,DL
         1 000166   000020 736000                    QLS     16
PL6.E3A0      #008=ZIM$JISTO File=ZIM$JRNL.:ZIC0TSI                              FRI 09/05/97 13:01 Page:246
         1 000167   000004 676100                    ERQ     4,,PR0
         1 000170   000001 376000 2                  ANQ     1
         1 000171   000004 656100                    ERSQ    4,,PR0

     1041     5353    4                   FPT$WRTJ.V.DCB#=GLOBAL.TJRNL.DCB#;

   5353  1 000172   000000 470400 xsym               LDP0    GLOBAL$
         1 000173   002604 723100                    LXL3    1412,,PR0
         1 000174   200011 470500                    LDP0    WRTJ$,,AUTO
         1 000175   000010 743100                    STX3    8,,PR0

     1042     5354    4                   CALL M$WRITE(FPT$WRTJ) ALTRET(ER_WRTT);

   5354  1 000176   440001 713400                    CLIMB   alt,write
         1 000177   401400 401760                    pmme    nvectors=4
         1 000200   000520 702000 1                  TSX2    ER_WRTT

     1043     5355    4                   END;

     1044     5356    4               IF AWS.ATRIB.CJRNL THEN DO;

   5356  1 000201   200006 470500                    LDP0    AWS$,,AUTO
         1 000202   000000 236100                    LDQ     0,,PR0
         1 000203   100000 316003                    CANQ    32768,DU
         1 000204   000245 600000 1                  TZE     s:5365

     1045     5357    4                   LENGTH=RECVAR.RECSZ;

   5357  1 000205   200010 471500                    LDP1    RECVAR$,,AUTO
         1 000206   100003 236100                    LDQ     3,,PR1
         1 000207   000022 772000                    QRL     18
         1 000210   200014 756100                    STQ     LENGTH,,AUTO

     1046     5358    4                   JREC.LENGTH=LENGTH;

   5358  1 000211   000000 620006                    EAX0    0,QL
         1 000212   200007 473500                    LDP3    JRNL$,,AUTO
PL6.E3A0      #008=ZIM$JISTO File=ZIM$JRNL.:ZIC0TSI                              FRI 09/05/97 13:01 Page:247
         1 000213   300003 740100                    STX0    3,,PR3

     1047     5359    4                   JREC.VALUE=RECVAR.RADDR$->RECORD;

   5359  1 000214   100002 474500                    LDP4    2,,PR1
         1 000215   200014 721100                    LXL1    LENGTH,,AUTO
         1 000216   040140 100540                    MLR     fill='040'O
         1 000217   400000 000011                    ADSC9   0,,PR4                   cn=0,n=*X1
         1 000220   300004 400010                    ADSC9   4,,PR3                   cn=2,n=*X0

     1048     5360    4                   FPT$WRTJ.BUF_.BOUND=SIZEV(JREC);

   5360  1 000221   000022 622010                    EAX2    18,X0
         1 000222   000000 636012                    EAQ     0,X2
         1 000223   000022 772000                    QRL     18
         1 000224   000011 402007                    MPY     9,DL
         1 000225   000043 036007                    ADLQ    35,DL
         1 000226   000044 506007                    DIV     36,DL
         1 000227   200011 474500                    LDP4    WRTJ$,,AUTO
         1 000230   000002 736000                    QLS     2
         1 000231   000001 136007                    SBLQ    1,DL
         1 000232   000020 736000                    QLS     16
         1 000233   400004 676100                    ERQ     4,,PR4
         1 000234   000001 376000 2                  ANQ     1
         1 000235   400004 656100                    ERSQ    4,,PR4

     1049     5361    4                   FPT$WRTJ.V.DCB#=GLOBAL.CJRNL.DCB#;

   5361  1 000236   000000 470400 xsym               LDP0    GLOBAL$
         1 000237   002610 720100                    LXL0    1416,,PR0
         1 000240   400010 740100                    STX0    8,,PR4

     1050     5362    4                   CALL M$WRITE(FPT$WRTJ) ALTRET(ER_WRTC);

   5362  1 000241   400000 630500                    EPPR0   0,,PR4
         1 000242   440001 713400                    CLIMB   alt,write
         1 000243   401400 401760                    pmme    nvectors=4
PL6.E3A0      #008=ZIM$JISTO File=ZIM$JRNL.:ZIC0TSI                              FRI 09/05/97 13:01 Page:248
         1 000244   000532 702000 1                  TSX2    ER_WRTC

     1051     5363    4                   END;

     1052     5364    3               END;

     1053     5365    3           IF TYPE=T#IDEL THEN DO;

   5365  1 000245   200013 235100                    LDA     TYPE,,AUTO
         1 000246   000021 115007                    CMPA    17,DL
         1 000247   000372 601000 1                  TNZ     s:5384

     1054     5366    4               IF AWS.ATRIB.TJRNL THEN DO;

   5366  1 000250   200006 470500                    LDP0    AWS$,,AUTO
         1 000251   000000 236100                    LDQ     0,,PR0
         1 000252   020000 316003                    CANQ    8192,DU
         1 000253   000314 600000 1                  TZE     s:5374

     1055     5367    4                   LENGTH=RECVAR.RECSZ;

   5367  1 000254   200010 471500                    LDP1    RECVAR$,,AUTO
         1 000255   100003 236100                    LDQ     3,,PR1
         1 000256   000022 772000                    QRL     18
         1 000257   200014 756100                    STQ     LENGTH,,AUTO

     1056     5368    4                   JREC.LENGTH=LENGTH;

   5368  1 000260   000000 620006                    EAX0    0,QL
         1 000261   200007 473500                    LDP3    JRNL$,,AUTO
         1 000262   300003 740100                    STX0    3,,PR3

     1057     5369    4                   JREC.VALUE=RECVAR.RADDR$->RECORD;

   5369  1 000263   100002 474500                    LDP4    2,,PR1
         1 000264   200014 721100                    LXL1    LENGTH,,AUTO
         1 000265   040140 100540                    MLR     fill='040'O
PL6.E3A0      #008=ZIM$JISTO File=ZIM$JRNL.:ZIC0TSI                              FRI 09/05/97 13:01 Page:249
         1 000266   400000 000011                    ADSC9   0,,PR4                   cn=0,n=*X1
         1 000267   300004 400010                    ADSC9   4,,PR3                   cn=2,n=*X0

     1058     5370    4                   FPT$WRTJ.BUF_.BOUND=SIZEV(JREC);

   5370  1 000270   000022 622010                    EAX2    18,X0
         1 000271   000000 636012                    EAQ     0,X2
         1 000272   000022 772000                    QRL     18
         1 000273   000011 402007                    MPY     9,DL
         1 000274   000043 036007                    ADLQ    35,DL
         1 000275   000044 506007                    DIV     36,DL
         1 000276   200011 474500                    LDP4    WRTJ$,,AUTO
         1 000277   000002 736000                    QLS     2
         1 000300   000001 136007                    SBLQ    1,DL
         1 000301   000020 736000                    QLS     16
         1 000302   400004 676100                    ERQ     4,,PR4
         1 000303   000001 376000 2                  ANQ     1
         1 000304   400004 656100                    ERSQ    4,,PR4

     1059     5371    4                   FPT$WRTJ.V.DCB#=GLOBAL.TJRNL.DCB#;

   5371  1 000305   000000 470400 xsym               LDP0    GLOBAL$
         1 000306   002604 720100                    LXL0    1412,,PR0
         1 000307   400010 740100                    STX0    8,,PR4

     1060     5372    4                   CALL M$WRITE(FPT$WRTJ) ALTRET(ER_WRTT);

   5372  1 000310   400000 630500                    EPPR0   0,,PR4
         1 000311   440001 713400                    CLIMB   alt,write
         1 000312   401400 401760                    pmme    nvectors=4
         1 000313   000520 702000 1                  TSX2    ER_WRTT

     1061     5373    4                   END;

     1062     5374    4               IF AWS.ATRIB.CJRNL THEN DO;

   5374  1 000314   200006 470500                    LDP0    AWS$,,AUTO
PL6.E3A0      #008=ZIM$JISTO File=ZIM$JRNL.:ZIC0TSI                              FRI 09/05/97 13:01 Page:250
         1 000315   000000 236100                    LDQ     0,,PR0
         1 000316   100000 316003                    CANQ    32768,DU
         1 000317   000372 600000 1                  TZE     s:5384

     1063     5375    4                   LENGTH=DCBADDR(AWS.DDCB)->F$DCB.KEYL#;

   5375  1 000320   000000 471400 2                  LDP1    0
         1 000321   100000 473500                    LDP3    0,,PR1
         1 000322   000006 220100                    LDX0    6,,PR0
         1 000323   300000 474510                    LDP4    0,X0,PR3
         1 000324   400036 236100                    LDQ     30,,PR4
         1 000325   000011 772000                    QRL     9
         1 000326   000777 376007                    ANQ     511,DL
         1 000327   200014 756100                    STQ     LENGTH,,AUTO

     1064     5376    4                   KEYX#=DCBADDR(AWS.DDCB)->F$DCB.KEYX#;

   5376  1 000330   400036 221100                    LDX1    30,,PR4
         1 000331   200015 741100                    STX1    KEYX#,,AUTO

     1065     5377    4                   JREC.LENGTH=LENGTH;

   5377  1 000332   000000 622006                    EAX2    0,QL
         1 000333   200007 470500                    LDP0    JRNL$,,AUTO
         1 000334   000003 742100                    STX2    3,,PR0

     1066     5378    4                   JREC.VALUE=SUBSTR(RECVAR.RADDR$->RECORD,KEYX#,LENGTH);

   5378  1 000335   200010 474500                    LDP4    RECVAR$,,AUTO
         1 000336   400002 470500                    LDP0    2,,PR4
         1 000337   200014 720100                    LXL0    LENGTH,,AUTO
         1 000340   200015 235100                    LDA     KEYX#,,AUTO
         1 000341   000022 771000                    ARL     18
         1 000342   200007 471500                    LDP1    JRNL$,,AUTO
         1 000343   040140 100545                    MLR     fill='040'O
         1 000344   000000 000010                    ADSC9   0,A,PR0                  cn=0,n=*X0
         1 000345   100004 400012                    ADSC9   4,,PR1                   cn=2,n=*X2
PL6.E3A0      #008=ZIM$JISTO File=ZIM$JRNL.:ZIC0TSI                              FRI 09/05/97 13:01 Page:251

     1067     5379    4                   FPT$WRTJ.BUF_.BOUND=SIZEV(JREC);

   5379  1 000346   100003 222100                    LDX2    3,,PR1
         1 000347   000022 623012                    EAX3    18,X2
         1 000350   000000 636013                    EAQ     0,X3
         1 000351   000022 772000                    QRL     18
         1 000352   000011 402007                    MPY     9,DL
         1 000353   000043 036007                    ADLQ    35,DL
         1 000354   000044 506007                    DIV     36,DL
         1 000355   200011 470500                    LDP0    WRTJ$,,AUTO
         1 000356   000002 736000                    QLS     2
         1 000357   000001 136007                    SBLQ    1,DL
         1 000360   000020 736000                    QLS     16
         1 000361   000004 676100                    ERQ     4,,PR0
         1 000362   000001 376000 2                  ANQ     1
         1 000363   000004 656100                    ERSQ    4,,PR0

     1068     5380    4                   FPT$WRTJ.V.DCB#=GLOBAL.CJRNL.DCB#;

   5380  1 000364   000000 473400 xsym               LDP3    GLOBAL$
         1 000365   302610 722100                    LXL2    1416,,PR3
         1 000366   000010 742100                    STX2    8,,PR0

     1069     5381    4                   CALL M$WRITE(FPT$WRTJ) ALTRET(ER_WRTC);

   5381  1 000367   440001 713400                    CLIMB   alt,write
         1 000370   401400 401760                    pmme    nvectors=4
         1 000371   000532 702000 1                  TSX2    ER_WRTC

     1070     5382    4                   END;

     1071     5383    3               END;

     1072     5384    3           IF TYPE=T#IMOD THEN DO;

   5384  1 000372   200013 235100                    LDA     TYPE,,AUTO
PL6.E3A0      #008=ZIM$JISTO File=ZIM$JRNL.:ZIC0TSI                              FRI 09/05/97 13:01 Page:252
         1 000373   000022 115007                    CMPA    18,DL
         1 000374   000517 601000 1                  TNZ     s:5405

     1073     5385    4               IF AWS.ATRIB.TJRNL THEN DO;

   5385  1 000375   200006 470500                    LDP0    AWS$,,AUTO
         1 000376   000000 236100                    LDQ     0,,PR0
         1 000377   020000 316003                    CANQ    8192,DU
         1 000400   000446 600000 1                  TZE     s:5394

     1074     5386    4                   RECVAR$=PINCRW(DBCB$,DBCB.PCB.RVI);

   5386  1 000401   200005 471500                    LDP1    DBCB$,,AUTO
         1 000402   100510 220100                    LDX0    328,,PR1
         1 000403   000000 636010                    EAQ     0,X0
         1 000404   200005 036100                    ADLQ    DBCB$,,AUTO
         1 000405   200010 756100                    STQ     RECVAR$,,AUTO

     1075     5387    4                   LENGTH=RECVAR.RECSZ;

   5387  1 000406   200010 473500                    LDP3    RECVAR$,,AUTO
         1 000407   300003 236100                    LDQ     3,,PR3
         1 000410   000022 772000                    QRL     18
         1 000411   200014 756100                    STQ     LENGTH,,AUTO

     1076     5388    4                   JREC.LENGTH=LENGTH;

   5388  1 000412   000000 621006                    EAX1    0,QL
         1 000413   200007 474500                    LDP4    JRNL$,,AUTO
         1 000414   400003 741100                    STX1    3,,PR4

     1077     5389    4                   JREC.VALUE=RECVAR.RADDR$->RECORD;

   5389  1 000415   300002 470500                    LDP0    2,,PR3
         1 000416   200014 720100                    LXL0    LENGTH,,AUTO
         1 000417   040140 100540                    MLR     fill='040'O
         1 000420   000000 000010                    ADSC9   0,,PR0                   cn=0,n=*X0
PL6.E3A0      #008=ZIM$JISTO File=ZIM$JRNL.:ZIC0TSI                              FRI 09/05/97 13:01 Page:253
         1 000421   400004 400011                    ADSC9   4,,PR4                   cn=2,n=*X1

     1078     5390    4                   FPT$WRTJ.BUF_.BOUND=SIZEV(JREC);

   5390  1 000422   000022 622011                    EAX2    18,X1
         1 000423   000000 636012                    EAQ     0,X2
         1 000424   000022 772000                    QRL     18
         1 000425   000011 402007                    MPY     9,DL
         1 000426   000043 036007                    ADLQ    35,DL
         1 000427   000044 506007                    DIV     36,DL
         1 000430   200011 470500                    LDP0    WRTJ$,,AUTO
         1 000431   000002 736000                    QLS     2
         1 000432   000001 136007                    SBLQ    1,DL
         1 000433   000020 736000                    QLS     16
         1 000434   000004 676100                    ERQ     4,,PR0
         1 000435   000001 376000 2                  ANQ     1
         1 000436   000004 656100                    ERSQ    4,,PR0

     1079     5391    4                   FPT$WRTJ.V.DCB#=GLOBAL.TJRNL.DCB#;

   5391  1 000437   000000 470400 xsym               LDP0    GLOBAL$
         1 000440   002604 721100                    LXL1    1412,,PR0
         1 000441   200011 470500                    LDP0    WRTJ$,,AUTO
         1 000442   000010 741100                    STX1    8,,PR0

     1080     5392    4                   CALL M$WRITE(FPT$WRTJ) ALTRET(ER_WRTT);

   5392  1 000443   440001 713400                    CLIMB   alt,write
         1 000444   401400 401760                    pmme    nvectors=4
         1 000445   000520 702000 1                  TSX2    ER_WRTT

     1081     5393    4                   END;

     1082     5394    4               IF AWS.ATRIB.CJRNL THEN DO;

   5394  1 000446   200006 470500                    LDP0    AWS$,,AUTO
         1 000447   000000 236100                    LDQ     0,,PR0
PL6.E3A0      #008=ZIM$JISTO File=ZIM$JRNL.:ZIC0TSI                              FRI 09/05/97 13:01 Page:254
         1 000450   100000 316003                    CANQ    32768,DU
         1 000451   000517 600000 1                  TZE     s:5405

     1083     5395    4                   RECVAR$=PINCRW(DBCB$,DBCB.PCB.RVT);

   5395  1 000452   200005 471500                    LDP1    DBCB$,,AUTO
         1 000453   100512 220100                    LDX0    330,,PR1
         1 000454   000000 636010                    EAQ     0,X0
         1 000455   200005 036100                    ADLQ    DBCB$,,AUTO
         1 000456   200010 756100                    STQ     RECVAR$,,AUTO

     1084     5396    4                   LENGTH=RECVAR.RECSZ;

   5396  1 000457   200010 473500                    LDP3    RECVAR$,,AUTO
         1 000460   300003 236100                    LDQ     3,,PR3
         1 000461   000022 772000                    QRL     18
         1 000462   200014 756100                    STQ     LENGTH,,AUTO

     1085     5397    4                   JREC.LENGTH=LENGTH;

   5397  1 000463   000000 621006                    EAX1    0,QL
         1 000464   200007 474500                    LDP4    JRNL$,,AUTO
         1 000465   400003 741100                    STX1    3,,PR4

     1086     5398    4                   JREC.VALUE=RECVAR.RADDR$->RECORD;

   5398  1 000466   300002 470500                    LDP0    2,,PR3
         1 000467   200014 720100                    LXL0    LENGTH,,AUTO
         1 000470   040140 100540                    MLR     fill='040'O
         1 000471   000000 000010                    ADSC9   0,,PR0                   cn=0,n=*X0
         1 000472   400004 400011                    ADSC9   4,,PR4                   cn=2,n=*X1

     1087     5399    4                   FPT$WRTJ.BUF_.BOUND=SIZEV(JREC);

   5399  1 000473   000022 622011                    EAX2    18,X1
         1 000474   000000 636012                    EAQ     0,X2
         1 000475   000022 772000                    QRL     18
PL6.E3A0      #008=ZIM$JISTO File=ZIM$JRNL.:ZIC0TSI                              FRI 09/05/97 13:01 Page:255
         1 000476   000011 402007                    MPY     9,DL
         1 000477   000043 036007                    ADLQ    35,DL
         1 000500   000044 506007                    DIV     36,DL
         1 000501   200011 470500                    LDP0    WRTJ$,,AUTO
         1 000502   000002 736000                    QLS     2
         1 000503   000001 136007                    SBLQ    1,DL
         1 000504   000020 736000                    QLS     16
         1 000505   000004 676100                    ERQ     4,,PR0
         1 000506   000001 376000 2                  ANQ     1
         1 000507   000004 656100                    ERSQ    4,,PR0

     1088     5400    4                   FPT$WRTJ.V.DCB#=GLOBAL.CJRNL.DCB#;

   5400  1 000510   000000 470400 xsym               LDP0    GLOBAL$
         1 000511   002610 721100                    LXL1    1416,,PR0
         1 000512   200011 470500                    LDP0    WRTJ$,,AUTO
         1 000513   000010 741100                    STX1    8,,PR0

     1089     5401    4                   CALL M$WRITE(FPT$WRTJ) ALTRET(ER_WRTC);

   5401  1 000514   440001 713400                    CLIMB   alt,write
         1 000515   401400 401760                    pmme    nvectors=4
         1 000516   000532 702000 1                  TSX2    ER_WRTC

     1090     5402    4                   END;

     1091     5403    3               END;

     1092     5404    2           END;

     1093     5405    1       RETURN;

   5405  1 000517   000000 702200 xent               TSX2  ! X66_ARET

     1094     5406    1   ER_WRTT: ERROR=ERR#IO#WRTT;

   5406  1 000520   210720 235007       ER_WRTT      LDA     70096,DL
PL6.E3A0      #008=ZIM$JISTO File=ZIM$JRNL.:ZIC0TSI                              FRI 09/05/97 13:01 Page:256
         1 000521   200012 755100                    STA     ERROR,,AUTO

     1095     5407    1       GLOBAL.RET.SYSERR#=B$TCB$->B$TCB.ALT$->B$ALT.ERR;

   5407  1 000522   000000 470400 xsym               LDP0    B$TCB$
         1 000523   000000 471500                    LDP1    0,,PR0
         1 000524   100102 236100                    LDQ     66,,PR1
         1 000525   000000 473400 xsym               LDP3    GLOBAL$
         1 000526   300007 756100                    STQ     7,,PR3

     1096     5408    1       GLOBAL.RET.DCB#=GLOBAL.TJRNL.DCB#;

   5408  1 000527   302604 720100                    LXL0    1412,,PR3
         1 000530   300014 740100                    STX0    12,,PR3

     1097     5409    1       GOTO ALT;

   5409  1 000531   000554 710000 1                  TRA     ALT

     1098     5410    1   ER_WRTC: IF B$TCB$->B$TCB.ALT$->B$ALT.ERR.ERR#=%E$JRNLCLSD THEN

   5410  1 000532   000000 470400 xsym  ER_WRTC      LDP0    B$TCB$
         1 000533   000000 471500                    LDP1    0,,PR0
         1 000534   100102 236100                    LDQ     66,,PR1
         1 000535   377770 376007                    ANQ     131064,DL
         1 000536   001160 116007                    CMPQ    624,DL
         1 000537   000543 601000 1                  TNZ     s:5413

     1099     5411    1           ERROR=ERR#IO#NOOWNER;

   5411  1 000540   210762 235007                    LDA     70130,DL
         1 000541   200012 755100                    STA     ERROR,,AUTO
         1 000542   000545 710000 1                  TRA     s:5414

     1100     5412    1       ELSE
     1101     5413    1           ERROR=ERR#IO#WRTC;

PL6.E3A0      #008=ZIM$JISTO File=ZIM$JRNL.:ZIC0TSI                              FRI 09/05/97 13:01 Page:257
   5413  1 000543   210721 235007                    LDA     70097,DL
         1 000544   200012 755100                    STA     ERROR,,AUTO

     1102     5414    1       GLOBAL.RET.SYSERR#=B$TCB$->B$TCB.ALT$->B$ALT.ERR;

   5414  1 000545   100102 236100                    LDQ     66,,PR1
         1 000546   000000 473400 xsym               LDP3    GLOBAL$
         1 000547   300007 756100                    STQ     7,,PR3

     1103     5415    1       GLOBAL.RET.DCB#=GLOBAL.CJRNL.DCB#;

   5415  1 000550   302610 720100                    LXL0    1416,,PR3
         1 000551   300014 740100                    STX0    12,,PR3

     1104     5416    1       GLOBAL.CJRNL.DCB#=0;

   5416  1 000552   302610 450100                    STZ     1416,,PR3

     1105     5417    1       GOTO ALT;

   5417  1 000553   000554 710000 1                  TRA     ALT

   5416  1 000554                       ALT          null
     1106     5418    1   ALT: ;
     1107     5419    1       GLOBAL.RET.ERROR#=ERROR;

   5419  1 000554   300006 755100                    STA     6,,PR3

     1108     5420    1       CALL M$ERR;

   5420  1 000555   000002 713400                    CLIMB   err
         1 000556   000000 401760                    pmme    nvectors=0

     1109     5421    1   END ZIM$JISTO;

   5421  1 000557   000000 702200 xent               TSX2  ! X66_ARET

PL6.E3A0      #008=ZIM$JISTO File=ZIM$JRNL.:ZIC0TSI                              FRI 09/05/97 13:01 Page:258
(unnamed)
 Sect OctLoc
   2     000   000000 006003   777777 600000                                    ........

PL6.E3A0      #008=ZIM$JISTO File=ZIM$JRNL.:ZIC0TSI                              FRI 09/05/97 13:01 Page:259
--  Include file information  --

   B_ERRORS_C.:LIB_E05  is referenced.
   ZI_ERRORS_C.:ZIC0TOU  is referenced.
   B$JIT.:LIB_E05  cannot be made into a system file and is referenced.
   CP_6_SUBS.:LIB_E05  is referenced.
   CP_6.:LIB_E05  cannot be made into a system file and is referenced.
   ZI$JRNL.:ZIC0TOU  is referenced.
   ZI$DBCB.:ZIC0TOU  is referenced.
   ZI$SSS.:ZIC0TOU  cannot be made into a system file and is referenced.
   ZI$GLOBAL.:ZIC0TOU  is referenced.
   B$JIT_C.:E05TOU  was found in the system file and is referenced.
   CP_6_C.:E05TOU  was found in the system file and is referenced.
      No diagnostics issued in procedure ZIM$JISTO.

   Procedure ZIM$JISTO requires 368 words for executable code.
   Procedure ZIM$JISTO requires 14 words of local(AUTO) storage.

    No errors detected in file ZIM$JRNL.:ZIC0TSI    .
PL6.E3A0      #008=ZIM$JISTO File=ZIM$JRNL.:ZIC0TSI                              FRI 09/05/97 13:01 Page:260
          *** CROSS REFERENCE LISTING ***
**     DENOTES     IDENTIFIER DEFINITION
<<                 IDENTIFIER'S VALUE SET
>>                 IDENTIFIER'S VALUE USED
<>                 IDENTIFIER SET AND/OR USED
--                 IDENTIFIER REFERENCED
PL6.E3A0      #008=ZIM$JISTO File=ZIM$JRNL.:ZIC0TSI                              FRI 09/05/97 13:01 Page:261
          MINI XREF LISTING

AC.DEF.ANL
      1371**DCL      1442--IMP-SIZ
AC.DEF.FORG
      1358**DCL      1362--REDEF
AC$
      1354**DCL      1355--IMP-PTR  5337<<ASSIGN
ALT
      5416**LABEL    5409--GOTO     5417--GOTO
AWS.ATRIB.CJRNL
      2606**DCL      5333>>IF       5356>>IF       5374>>IF       5394>>IF
AWS.ATRIB.TJRNL
      2608**DCL      5333>>IF       5347>>IF       5366>>IF       5385>>IF
AWS.DDCB
      2627**DCL      5342>>ASSIGN   5348--ASSIGN   5349--ASSIGN   5375--ASSIGN   5376--ASSIGN
AWS$
      2601**DCL      2602--IMP-PTR  5332<<ASSIGN   5333>>IF       5333>>IF       5342>>ASSIGN   5347>>IF
      5348>>ASSIGN   5349>>ASSIGN   5356>>IF       5366>>IF       5374>>IF       5375>>ASSIGN   5376>>ASSIGN
      5385>>IF       5394>>IF
B$ALT.CODE
      2971**DCL      2971--REDEF    2972--REDEF    2972--REDEF
B$ALT.ERR
      2972**DCL      5407>>ASSIGN   5414>>ASSIGN
B$ALT.ERR.ERR#
      2973**DCL      2973--REDEF    5410>>IF
B$ALT.EVID
      2972**DCL      2972--REDEF    2972--REDEF
B$JIT.CPFLAGS1.SLEAZE
      3675**DCL      3675--REDEF
B$JIT.ERR.MID
      3582**DCL      3582--REDEF
B$JIT.JRESPEAK
      3743**DCL      3744--REDEF
PL6.E3A0      #008=ZIM$JISTO File=ZIM$JRNL.:ZIC0TSI                              FRI 09/05/97 13:01 Page:262
B$JIT.ORIGINATOR_PORT.FROM_CR
      3852**DCL      3852--REDEF    3853--REDEF
B$JIT.PNR
      3756**DCL      3756--REDEF
B$JIT.TSLINE
      3850**DCL      3851--REDEF
B$JIT.USER
      3581**DCL      5341>>ASSIGN
B$JIT$
      5312**DCL      3576--IMP-PTR  5341>>ASSIGN
B$TCB.ALT$
      2910**DCL      5407>>ASSIGN   5410>>IF       5414>>ASSIGN
B$TCB$
      5313**DCL      5407>>ASSIGN   5410>>IF       5414>>ASSIGN
BERC.DCB#
      2796**DCL      2797--REDEF
COM
      5329**LABEL    5321--GOTO     5325--GOTO
CRUNI.LENGTH
      2642**DCL      2643--IMP-SIZ
DBCB.IOWS.CFCT
      2518**DCL      2519--REDEF
DBCB.IOWS.DBKF.RQ
      2461**DCL      2462--REDEF
DBCB.IOWS.DBKR
      2458**DCL      2459--REDEF
DBCB.IOWS.NOBF
      2520**DCL      2521--REDEF
DBCB.IOWS.SPND
      2446**DCL      2447--REDEF
DBCB.PCB.RVI
      2294**DCL      5324>>ASSIGN   5386>>ASSIGN
DBCB.PCB.RVT
      2298**DCL      5320>>ASSIGN   5328>>ASSIGN   5395>>ASSIGN
DBCB.SWS.RDYCW
      2184**DCL      2185--REDEF
PL6.E3A0      #008=ZIM$JISTO File=ZIM$JRNL.:ZIC0TSI                              FRI 09/05/97 13:01 Page:263
DBCB.SWS.TEMP.PTR1$
      2218**DCL      2219--REDEF    2220--REDEF
DBCB.SWS.TEMP.PTR2$
      2221**DCL      2222--REDEF
DBCB$
      2089**DCL      2090--IMP-PTR  5330<<ASSIGN   5386>>ASSIGN   5386>>ASSIGN   5395>>ASSIGN   5395>>ASSIGN
ERROR
      5314**DCL      5329<<ASSIGN   5406<<ASSIGN   5411<<ASSIGN   5413<<ASSIGN   5419>>ASSIGN
ER_WRTC
      5410**LABEL    5362--CALLALT  5381--CALLALT  5401--CALLALT
ER_WRTT
      5406**LABEL    5354--CALLALT  5372--CALLALT  5392--CALLALT
F$DCB.ACTPOS
      2945**DCL      2945--REDEF
F$DCB.ARS#
      2919**DCL      2919--REDEF
F$DCB.ATTR
      2938**DCL      2939--REDEF
F$DCB.BORROW
      2953**DCL      2953--REDEF    2953--REDEF    2953--REDEF
F$DCB.DCBNAME.L
      2967**DCL      2967--IMP-SIZ
F$DCB.EOMCHAR#
      2923**DCL      2923--REDEF
F$DCB.FLDID
      2948**DCL      2948--REDEF
F$DCB.FORM$
      2942**DCL      2942--REDEF
F$DCB.FSECT
      2958**DCL      2958--REDEF
F$DCB.FSN#
      2935**DCL      2935--REDEF    2935--REDEF    2936--REDEF
F$DCB.HEADER$
      2941**DCL      2941--REDEF
F$DCB.IXTNSIZE#
      2939**DCL      2939--REDEF
PL6.E3A0      #008=ZIM$JISTO File=ZIM$JRNL.:ZIC0TSI                              FRI 09/05/97 13:01 Page:264
F$DCB.KEYL#
      2936**DCL      5348>>ASSIGN   5375>>ASSIGN
F$DCB.KEYX#
      2936**DCL      5349>>ASSIGN   5376>>ASSIGN
F$DCB.LASTSTA$
      2928**DCL      2928--REDEF
F$DCB.LVL
      2954**DCL      2954--REDEF
F$DCB.NAME#.C
      2929**DCL      2929--REDEF
F$DCB.NOEOF
      2951**DCL      2951--REDEF
F$DCB.NRECS#
      2940**DCL      2940--REDEF
F$DCB.NRECX
      2959**DCL      2959--REDEF
F$DCB.OHDR
      2951**DCL      2951--REDEF
F$DCB.ORG#
      2934**DCL      2934--REDEF
F$DCB.PRECNO
      2957**DCL      2957--REDEF
F$DCB.RCSZ
      2963**DCL      2963--REDEF
F$DCB.RES#
      2930**DCL      2930--REDEF
F$DCB.SETX
      2942**DCL      2942--REDEF
F$DCB.TAB$
      2942**DCL      2942--REDEF
F$DCB.TDA
      2956**DCL      2957--REDEF
F$DCB.WSN#
      2930**DCL      2930--REDEF
FPT$TIME
      3019**DCL      5338<>CALL
PL6.E3A0      #008=ZIM$JISTO File=ZIM$JRNL.:ZIC0TSI                              FRI 09/05/97 13:01 Page:265
FPT$WRTJ
      2994**DCL      5354<>CALL     5362<>CALL     5372<>CALL     5381<>CALL     5392<>CALL     5401<>CALL
FPT$WRTJ.BUF_.BOUND
      2994**DCL      5352<<ASSIGN   5360<<ASSIGN   5370<<ASSIGN   5379<<ASSIGN   5390<<ASSIGN   5399<<ASSIGN
FPT$WRTJ.STATION_
      2996**DCL      2996--REDEF
FPT$WRTJ.V.DCB#
      2997**DCL      5353<<ASSIGN   5361<<ASSIGN   5371<<ASSIGN   5380<<ASSIGN   5391<<ASSIGN   5400<<ASSIGN
FPT$WRTJ.V.DVBYTE.VFC#
      3003**DCL      3003--REDEF
GLOBAL.ACTIVE.DBCB$
       501**DCL       502--REDEF    5320>>ASSIGN   5320>>ASSIGN   5324>>ASSIGN   5324>>ASSIGN   5328>>ASSIGN
      5328>>ASSIGN   5330>>ASSIGN
GLOBAL.ACTIVE.SSS$
       497**DCL       498--REDEF    5331>>ASSIGN
GLOBAL.CJRNL.DCB#
       690**DCL      5361>>ASSIGN   5380>>ASSIGN   5400>>ASSIGN   5415>>ASSIGN   5416<<ASSIGN
GLOBAL.JRECORD
       700**DCL      5335--ASSIGN
GLOBAL.KEY
       705**DCL       708--REDEF
GLOBAL.PARAN.TRACE.MODE
       580**DCL       587--REDEF
GLOBAL.PENDING.ROLL
       536**DCL      5333>>IF
GLOBAL.PRINTBUF.BUFFER
       739**DCL       740--REDEF     741--REDEF     742--REDEF
GLOBAL.PRINTBUF.ERR.V
       744**DCL       747--REDEF     748--REDEF     749--REDEF
GLOBAL.RET.DCB#
       521**DCL      5408<<ASSIGN   5415<<ASSIGN
GLOBAL.RET.ERROR#
       515**DCL      5419<<ASSIGN
GLOBAL.RET.SYSERR#
       516**DCL      5407<<ASSIGN   5414<<ASSIGN
GLOBAL.TIME.TSTAMP
PL6.E3A0      #008=ZIM$JISTO File=ZIM$JRNL.:ZIC0TSI                              FRI 09/05/97 13:01 Page:266
       728**DCL      5340>>ASSIGN
GLOBAL.TIME$
       777**DCL      5338>>CALL
GLOBAL.TJRNL.DCB#
       684**DCL      5353>>ASSIGN   5371>>ASSIGN   5391>>ASSIGN   5408>>ASSIGN
GLOBAL.WRTJ$
       775**DCL      5336>>ASSIGN
GLOBAL$
       799**DCL       495--IMP-PTR  5320>>ASSIGN   5320>>ASSIGN   5324>>ASSIGN   5324>>ASSIGN   5328>>ASSIGN
      5328>>ASSIGN   5330>>ASSIGN   5331>>ASSIGN   5333>>IF       5335>>ASSIGN   5336>>ASSIGN   5338>>CALL
      5340>>ASSIGN   5353>>ASSIGN   5361>>ASSIGN   5371>>ASSIGN   5380>>ASSIGN   5391>>ASSIGN   5400>>ASSIGN
      5407>>ASSIGN   5408>>ASSIGN   5408>>ASSIGN   5414>>ASSIGN   5415>>ASSIGN   5415>>ASSIGN   5416>>ASSIGN
      5419>>ASSIGN
JREC
      2775**DCL      5352--ASSIGN   5360--ASSIGN   5370--ASSIGN   5379--ASSIGN   5390--ASSIGN   5399--ASSIGN
JREC.DCB#
      2779**DCL      5342<<ASSIGN
JREC.LENGTH
      2781**DCL      2784--IMP-SIZ  5350<<ASSIGN   5351>>ASSIGN   5352>>ASSIGN   5358<<ASSIGN   5359>>ASSIGN
      5360>>ASSIGN   5368<<ASSIGN   5369>>ASSIGN   5370>>ASSIGN   5377<<ASSIGN   5378>>ASSIGN   5379>>ASSIGN
      5388<<ASSIGN   5389>>ASSIGN   5390>>ASSIGN   5397<<ASSIGN   5398>>ASSIGN   5399>>ASSIGN
JREC.LINE
      2782**DCL      5344<<ASSIGN
JREC.OFFSET
      2783**DCL      5345<<ASSIGN
JREC.PAGE
      2780**DCL      5343<<ASSIGN
JREC.TIME
      2776**DCL      5340<<ASSIGN
JREC.TYPE
      2777**DCL      5339<<ASSIGN
JREC.USER#
      2778**DCL      5341<<ASSIGN
JREC.VALUE
      2784**DCL      5351<<ASSIGN   5359<<ASSIGN   5369<<ASSIGN   5378<<ASSIGN   5389<<ASSIGN   5398<<ASSIGN
JRNL$
PL6.E3A0      #008=ZIM$JISTO File=ZIM$JRNL.:ZIC0TSI                              FRI 09/05/97 13:01 Page:267
      2754**DCL      2755--IMP-PTR  2775--IMP-PTR  2785--IMP-PTR  2792--IMP-PTR  2798--IMP-PTR  5335<<ASSIGN
      5339>>ASSIGN   5340>>ASSIGN   5341>>ASSIGN   5342>>ASSIGN   5343>>ASSIGN   5344>>ASSIGN   5345>>ASSIGN
      5350>>ASSIGN   5351>>ASSIGN   5351>>ASSIGN   5352>>ASSIGN   5352>>ASSIGN   5358>>ASSIGN   5359>>ASSIGN
      5359>>ASSIGN   5360>>ASSIGN   5360>>ASSIGN   5368>>ASSIGN   5369>>ASSIGN   5369>>ASSIGN   5370>>ASSIGN
      5370>>ASSIGN   5377>>ASSIGN   5378>>ASSIGN   5378>>ASSIGN   5379>>ASSIGN   5379>>ASSIGN   5388>>ASSIGN
      5389>>ASSIGN   5389>>ASSIGN   5390>>ASSIGN   5390>>ASSIGN   5397>>ASSIGN   5398>>ASSIGN   5398>>ASSIGN
      5399>>ASSIGN   5399>>ASSIGN
KEYX#
      5317**DCL      5349<<ASSIGN   5351>>ASSIGN   5376<<ASSIGN   5378>>ASSIGN
LENGTH
      5316**DCL      5318--IMP-SIZ  5348<<ASSIGN   5350>>ASSIGN   5351>>ASSIGN   5351>>ASSIGN   5357<<ASSIGN
      5358>>ASSIGN   5359>>ASSIGN   5367<<ASSIGN   5368>>ASSIGN   5369>>ASSIGN   5375<<ASSIGN   5377>>ASSIGN
      5378>>ASSIGN   5378>>ASSIGN   5387<<ASSIGN   5388>>ASSIGN   5389>>ASSIGN   5396<<ASSIGN   5397>>ASSIGN
      5398>>ASSIGN
M$ERR
      2849**DCL-ENT  5420--CALL
M$TIME
      2904**DCL-ENT  5338--CALL
M$WRITE
      2838**DCL-ENT  5354--CALL     5362--CALL     5372--CALL     5381--CALL     5392--CALL     5401--CALL
RECORD
      5318**DCL      5351>>ASSIGN   5359>>ASSIGN   5369>>ASSIGN   5378>>ASSIGN   5389>>ASSIGN   5398>>ASSIGN
RECVAR.ACPTR
      2587**DCL      5337>>ASSIGN
RECVAR.AWS$
      2593**DCL      5332>>ASSIGN
RECVAR.BADDR
      2569**DCL      2572--REDEF
RECVAR.RADDR
      2573**DCL      2577--REDEF
RECVAR.RADDR$
      2577**DCL      5351>>ASSIGN   5359>>ASSIGN   5369>>ASSIGN   5378>>ASSIGN   5389>>ASSIGN   5398>>ASSIGN
RECVAR.RECSZ
      2578**DCL      5357>>ASSIGN   5367>>ASSIGN   5387>>ASSIGN   5396>>ASSIGN
RECVAR$
      5310**DCL      2567--IMP-PTR  5320<<ASSIGN   5324<<ASSIGN   5328<<ASSIGN   5332>>ASSIGN   5337>>ASSIGN
PL6.E3A0      #008=ZIM$JISTO File=ZIM$JRNL.:ZIC0TSI                              FRI 09/05/97 13:01 Page:268
      5351>>ASSIGN   5357>>ASSIGN   5359>>ASSIGN   5367>>ASSIGN   5369>>ASSIGN   5378>>ASSIGN   5386<<ASSIGN
      5387>>ASSIGN   5389>>ASSIGN   5395<<ASSIGN   5396>>ASSIGN   5398>>ASSIGN
SSS$
       809**DCL      5331<<ASSIGN   5337>>ASSIGN
TYPE
      5315**DCL      5319<<ASSIGN   5323<<ASSIGN   5327<<ASSIGN   5339>>ASSIGN   5346>>IF       5365>>IF
      5384>>IF
WRTJ$
      5311**DCL      2994--IMP-PTR  5336<<ASSIGN   5352>>ASSIGN   5353>>ASSIGN   5354>>CALL     5360>>ASSIGN
      5361>>ASSIGN   5362>>CALL     5370>>ASSIGN   5371>>ASSIGN   5372>>CALL     5379>>ASSIGN   5380>>ASSIGN
      5381>>CALL     5390>>ASSIGN   5391>>ASSIGN   5392>>CALL     5399>>ASSIGN   5400>>ASSIGN   5401>>CALL
