
 13:02 09/05/97  FILE=ZIM$MISC.:ZIC0TSI                                                                  1    BMAP - B00
                                         1  *M*    ZIB$MISC - Misc. BMAP CP-6 interface support routines.
                                         2  *T***********************************************************
                                         3  *T*                                                         *
                                         4  *T* Copyright (c) Bull HN Information Systems Inc., 1997    *
                                         5  *T*                                                         *
                                         6  *T***********************************************************
                                         7  *
                                         8  *
                                         9  *
                                        10  *      This module contains BMAP code which is considered to be
                                        11  *      interum solutions, & will be removed as the system matures.
                                        12  *
                                        13  *
                                        14         ENTDEF  ZIB$FIXREGS     Register restoration routine.
                                        15           ENTDEF   ZIB$DBALT
                                        16           ENTDEF   ZIB$DBALTR
                                        17           ENTDEF   ZIB$DBALTO
                                        18           ENTDEF   ZIB$DBEXC
                                        19           ENTDEF   ZIB$ICALT
                                        20           ENTDEF   ZIB$ICEXC
                                        21           ENTDEF      ZIB$SEGSIZE
                                        22           ENTDEF      ZIB$SEGDECODE
                                        23           ENTDEF      ZIB$FPTRECOVER
                                        24           ENTDEF      ZIB$CLRRECOVER
                                        25           ENTDEF      ZIB$ERR
                                        26           ENTDEF   ZIB$FIXPR5
                                        27           ENTDEF   ZIM$ICKSM,ZIM$ICKSMJ
                                        28           ENTDEF      ZIM$LKMAP         Stupid routine
                                        29           ENTDEF    ZIM$MRL_SHIFT
                                        30           ENTDEF   ZIM$RESAUTO
                                        31  *
                                        32  *
                                        33  *
                                        34         SYMDEF  GLOBAL$         Global context ptr for the user.
                                        35         SYMDEF  AUTOSEG$        Automatic storage segment pointer.
                                        36           SYMDEF   PSR$              Parameter stack pointer
                                        37           SYMDEF      IS$           Instruction segment
 13:02 09/05/97  FILE=ZIM$MISC.:ZIC0TSI                                                                  2    BMAP - B00
                                        38  *
                                        39  *
                                        40  *      symdef's to within the user.
                                        41  *
                                        42           SYMDEF   VLP$
                                        43         SYMDEF  IA$             Pointer to user's Information Area
                                        44         SYMDEF  UWA$            Pointer to user's Work Area
                                        45           SYMDEF   RVA$
                                        46           SYMDEF   UPT$
                                        47  *
                                        48  *
                                        49  *      symdef's for the parameter segments.
                                        50  *
                                        51         SYMDEF  PS0$            Parameter 0 pointer.
                                        52         SYMDEF  PS1$            Parameter 1 pointer.
                                        53         SYMDEF  PS2$            Parameter 2 pointer.
                                        54         SYMDEF  PS3$          Parameter 3 pointer.
                                        55           SYMDEF   PS4$
                                        56           SYMDEF   PS5$
                                        57           SYMDEF   PS6$
                                        58  *
                                        59         SEGREF  DS2SID
                                        60         SEGREF  AUTOSID
                                        61           SEGREF   PSRSID
                                        62           SEGREF   PIASID
                                        63           SEGREF   ISSID
                                        64  *
                                        65           ENTREF      X66_AALT
                                        66         LODM    Q2MA
                                        67         Q2SYM
                                        68         PMC     ON

 13:02 09/05/97  FILE=ZIM$MISC.:ZIC0TSI                                                                  3    BMAP - B00
                                        69         EJECT
                                        70  *F*      ZIB$FIXREGS - Load PR6 with SSS$, PR7 with DBCB$.
                                        71  *
                                        72  *
 0 000000                               73  ZIB$FIXREGS NULL
   000000    5 00000 4765 00            74           LDP      PR6,ACTSSS,,PR5         Schema Sub-Set pointer
   000001    5 00001 4775 00            75           LDP      PR7,ACTDBCB,,PR5        Data Base Control Block.
   000002    000001 7100 11             76         TRA     1,X1           Return
   000003                               77  ZIB$FIXPR5  NULL
                                        78           INHIB    ON          Called by EVENT while inhibited
   000003 (0)000246 4756 00             79           LDP      PR5,GLOBAL$
   000004    000001 7102 11             80           TRA      1,X1
                                        81           INHIB    OFF

 13:02 09/05/97  FILE=ZIM$MISC.:ZIC0TSI                                                                  4    BMAP - B00
                                        82           EJECT
                                        83  *F*      ZIB$DBALT
                                        84  *
                                        85  *        Save error code and SSS offsets relating to it.
                                        86  *        Then returns to allow routine do error recovery
                                        87  *
   000005                               88  ZIB$DBALT   NULL
   000005    5 00006 2341 00            89           SZN      GERROR,,PR5
   000006  X 000000 6010 00             90           TNZ      X66_AALT
   000007    5 00006 7551 00            91           STA      GERROR,,PR5
   000010    5 00010 4401 00            92           SXL      X0,GRETAC,,PR5
   000011    5 00011 4441 00            93           SXL      X4,GRETFR,,PR5
   000012    5 00012 4461 00            94           SXL      X6,GRETSC,,PR5
   000013    5 00013 4471 00            95           SXL      X7,GRETRC,,PR5
   000014    303240 1150 07             96           CMPA     100000,DL
   000015 (0)000114 6050 00             97           TPL      ZIB$ERR                 >= -> FATAL
   000016  X 000000 7100 00             98           TRA      X66_AALT
                                        99  *F*      ZIB$DBALTR
                                       100  *
                                       101  *        Save error code in SUST and return for recovery
                                       102  *
   000017                              103  ZIB$DBALTR  NULL
   000017    5 00006 2341 00           104           SZN      GERROR,,PR5
   000020 (0)000033 6000 00            105           TZE      CLEAN
   000021    5 00006 2351 00           106           LDA      GERROR,,PR5
   000022    5 00006 4501 00           107           STZ      GERROR,,PR5
   000023    5 00010 7201 00           108           LXL      X0,GRETAC,,PR5       Save
   000024    7 00066 7401 00           109           STX      X0,RECAC,,PR7         origional
   000025    5 00011 7241 00           110           LXL      X4,GRETFR,,PR5         values
   000026    7 00065 7441 00           111           STX      X4,RECFR,,PR7           while
   000027    5 00012 7261 00           112           LXL      X6,GRETSC,,PR5           trying
   000030    7 00067 7461 00           113           STX      X6,RECSC,,PR7             to
   000031    5 00013 7271 00           114           LXL      X7,GRETRC,,PR5             back
   000032    5 00070 7471 00           115           STX      X7,RECRC,,PR5               out
   000033                              116  CLEAN    NULL
   000033    002114 1150 07            117           CMPA     ROLL,DL              Was this due to rollback
   000034    000003 6010 04            118           TNZ      3,IC                 No.
 13:02 09/05/97  FILE=ZIM$MISC.:ZIC0TSI                                                                  5    BMAP - B00
   000035    5 00006 7551 00           119           STA      GERROR,,PR5          Reset error code
   000036  X 000000 7100 00            120           TRA      X66_AALT             And altret now
   000037    303240 1150 07            121           CMPA     100000,DL
   000040 (0)000005 6050 00            122           TPL      ZIB$DBALT                  Fatal.  Don't return.
   000041    7 00062 7551 00           123           STA      SUST,,PR7                  Save error code
   000042    000000 7100 12            124           TRA      0,X2                 RETURN

 13:02 09/05/97  FILE=ZIM$MISC.:ZIC0TSI                                                                  6    BMAP - B00
                                       125           EJECT
                                       126  *F*      ZIB$DBALTO
                                       127  *
                                       128  *        Restore origional error values and issue an altret
                                       129  *
   000043                              130  ZIB$DBALTO  NULL
   000043    7 00062 2351 00           131           LDA      SUST,,PR7
   000044    5 00006 7551 00           132           STA      GERROR,,PR5
   000045    7 00066 2201 00           133           LDX      X0,RECAC,,PR7
   000046    5 00010 4401 00           134           SXL      X0,GRETAC,,PR5
   000047    7 00065 2241 00           135           LDX      X4,RECFR,,PR7
   000050    5 00011 4441 00           136           SXL      X4,GRETFR,,PR5
   000051    7 00067 2261 00           137           LDX      X6,RECSC,,PR7
   000052    5 00012 4461 00           138           SXL      X6,GRETSC,,PR5
   000053    7 00070 2271 00           139           LDX      X7,RECRC,,PR7
   000054    5 00013 4471 00           140           SXL      X7,GRETRC,,PR5
   000055  X 000000 7100 00            141           TRA      X66_AALT
                                       142  *F*      ZIB$DBEXC
                                       143  *
                                       144  *        Save error code and SSS offsets relating to it.
                                       145  *        Then generate normal return
                                       146  *
   000056                              147  ZIB$DBEXC   NULL
   000056    000000 7350 00            148           ALS      0                    Dummy exception return?
   000057    000002 6010 04            149           TNZ      2,IC                 No. Real one.
   000060    000001 2350 07            150           LDA      1,DL                 Dummy exception code.
   000061    5 00006 7551 00           151           STA      GERROR,,PR5
   000062    5 00010 4401 00           152           SXL      X0,GRETAC,,PR5
   000063    5 00011 4441 00           153           SXL      X4,GRETFR,,PR5
   000064    5 00012 4461 00           154           SXL      X6,GRETSC,,PR5
   000065    5 00013 4471 00           155           SXL      X7,GRETRC,,PR5
   000066  X 000000 7100 00            156           TRA      X66_ARET

 13:02 09/05/97  FILE=ZIM$MISC.:ZIC0TSI                                                                  7    BMAP - B00
                                       157           EJECT
                                       158  *F*      ZIB$ICALT
                                       159  *
                                       160  *        Save error code and SSS offset relating to it.
                                       161  *        Then generate altreturn.
                                       162  *
   000067                              163  ZIB$ICALT   NULL
   000067    5 00006 2341 00           164           SZN      GERROR,,PR5
   000070 (0)000100 6010 00            165           TNZ      ICALT
   000071    5 00006 7551 00           166           STA      GERROR,,PR5
   000072    5 00010 4401 00           167           SXL      X0,GRETAC,,PR5
   000073    5 00011 4441 00           168           SXL      X4,GRETFR,,PR5
   000074    5 00012 4461 00           169           SXL      X6,GRETSC,,PR5
   000075    5 00013 4471 00           170           SXL      X7,GRETRC,,PR5
   000076    303240 1150 07            171           CMPA     100000,DL
   000077 (0)000114 6050 00            172           TPL      ZIB$ERR                 >= -> FATAL
   000100    7 00470 2211 54           173  ICALT    LDX      X1,.DBIC,DI,PR7         Return address
   000101    000000 7100 11            174           TRA      0,X1                    ALTRETURN

 13:02 09/05/97  FILE=ZIM$MISC.:ZIC0TSI                                                                  8    BMAP - B00
                                       175           EJECT
                                       176  *F*      ZIB$ICEXC
                                       177  *
                                       178  *        Save error code and SSS offset relating to it.
                                       179  *        Then generate normal return.
                                       180  *
   000102                              181  ZIB$ICEXC   NULL
   000102    000000 7350 00            182           ALS      0                    Dummy exception return?
   000103    000002 6010 04            183           TNZ      2,IC                 No. Real one.
   000104    000001 2350 07            184           LDA      1,DL                 Dummy exception code.
   000105    5 00006 7551 00           185           STA      GERROR,,PR5
   000106    5 00010 4401 00           186           SXL      X0,GRETAC,,PR5
   000107    5 00011 4441 00           187           SXL      X4,GRETFR,,PR5
   000110    5 00012 4461 00           188           SXL      X6,GRETSC,,PR5
   000111    5 00013 4471 00           189           SXL      X7,GRETRC,,PR5
   000112    7 00470 2211 54           190           LDX      X1,.DBIC,DI,PR7         GET RETURN ADDRESS
   000113    000001 7100 11            191           TRA      1,X1                    RETURN

 13:02 09/05/97  FILE=ZIM$MISC.:ZIC0TSI                                                                  9    BMAP - B00
                                       192           EJECT
                                       193  *
                                       194  *        Generate cp6 M$ERR and enter error processing
                                       195  *
   000114                              196  ZIB$ERR  NULL
   000114    000002 7134 00            197           PMME     2                       M$ERR
   000115    0 000 000 40 1760
   000116    000000 0020 00            198           DRL                              (just in case)

 13:02 09/05/97  FILE=ZIM$MISC.:ZIC0TSI                                                                  10   BMAP - B00
                                       199           EJECT
                                       200  *
                                       201  *M*      ZIM$ICKSM
                                       202  *
                                       203  *        Compute checksum for a page
                                       204  *
                                       205  *        INPUT:   GLOBAL.PARAM.ICKSM.P$   Pointer to page
                                       206  *        OUTPUT:  GLOBAL.PARAM.ICKSM.V    Value computed
   000117                              207  ZIM$ICKSM   NULL
   000117    5 00023 4705 00           208           LDP0     ICKSMP,,PR5
   000120    000000 2360 07            209           LDQ      0,DL
   000121    000003 6200 00            210           EAX      X0,3              Start after CP6 header
   000122    0 00000 0361 10           211  NEXTWORD ADLQ     0,X0,PR0          Add in next word
   000123    000001 6200 10            212           EAX      X0,1,X0           Increment index into page
   000124    002000 1000 03            213           CMPX     X0,1024,DU        Finished?
   000125 (0)000122 6040 00            214           TMI      NEXTWORD          No.
   000126    5 00024 7561 00           215           STQ      ICKSMV,,PR5       Save result
   000127    000001 7100 11            216           TRA      1,X1              Return
   000130                              217  ZIM$ICKSMJ  NULL
   000130    5 00023 4705 00           218           LDP0     ICKSMP,,PR5
   000131    000000 2360 07            219           LDQ      0,DL
   000132    0 00005 7201 00           220           LXL      X0,HILN+3,,PR0    Skip CP-6 header words
   000133    000000 6350 10            221           EAA      0,X0
   000134    000002 0350 03            222           ADLA     2,DU
   000135    000001 7710 00            223           ARL      1
   000136    000000 5310 00            224           NEG
   000137    001772 0750 03            225           ADA      1018,DU           No control words at all
   000140    000000 6200 01            226           EAX      X0,,AU
   000141    0 00000 0361 10           227  NEXTW    ADLQ     0,X0,PR0
   000142    000001 1200 03            228           SBLX     X0,1,DU
   000143    000006 1000 03            229           CMPX     X0,6,DU
   000144 (0)000141 6050 00            230           TPL      NEXTW
   000145    5 00024 7561 00           231           STQ      ICKSMV,,PR5
   000146    000001 7100 11            232           TRA      1,X1              Return

 13:02 09/05/97  FILE=ZIM$MISC.:ZIC0TSI                                                                  11   BMAP - B00
                                       233           EJECT
                                       234  *F*      ZIB$SEGSIZE
                                       235  *        Get segment size of segment identified by segid of pointer
                                       236  *
                                       237  *                    PARAMETER      DEFINITION
                                       238  *                    ---------      ----------
                                       239  *        INPUT:          1          pointer identifing segment
                                       240  *        OUTPUT:         2          size of segment
                                       241  *
   000147                              242  ZIB$SEGSIZE NULL
   000147    0 00000 4715 00           243           LDP      PR1,0,,PR0           Pointer to first parameter
   000150    0 00001 4735 00           244           LDP      PR3,1,,PR0           Pointer to second parameter
   000151  X 000000 4704 07            245           LDP      PR0,PIASID,DL  Free space but be carful
   000152    1 00000 4715 00           246           LDP      PR1,0,,PR1     Get actual pointer passed
                                       247           INHIB    ON
   000153    0 00000 0517 00           248           STD      PR1,0,,PR0     Store descriptor in PIA
   000154    0 00000 2353 00           249           LDA      0,,PR0         Get word 1 before interuppted
                                       250           INHIB    OFF
   000155    000020 7310 00            251           ARS   16                isolate bound
   000156    000001 0350 07            252           ADLA  1,DL              make into size
   000157    000002 7310 00            253           ARS   2                 size in words
   000160    3 00000 7551 00           254           STA      0,,PR3         return word count
   000161    000001 7100 11            255           TRA      1,X1           RETURN

 13:02 09/05/97  FILE=ZIM$MISC.:ZIC0TSI                                                                  12   BMAP - B00
                                       256           EJECT
                                       257  *F*      ZIB$SEGDECODE
                                       258  *        Decode a descriptor to determine the base and bound (in bytes)
                                       259  *        as well as the bit flags
                                       260  *
                                       261  *                    PARAMETER      DEFINITION
                                       262  *                    ---------      ----------
                                       263  *        INPUT:          1          pointer identifying segment
                                       264  *        OUTPUT:         2          size of segment--in bytes
                                       265  *                        3          bit flags for segment
                                       266  *                        4          base address of segment--in bytes
                                       267  *
   000162                              268  ZIB$SEGDECODE NULL
   000162    0 00000 4715 00           269           LDP      PR1,0,,PR0        Pointer to first param
   000163  X 000000 4734 07            270           LDP      PR3,PIASID,DL     Free space but be careful
   000164    1 00000 4715 00           271           LDP      PR1,0,,PR1        Get actual pntr passed
                                       272           INHIB    ON
   000165    3 00000 0517 00           273           STD      PR1,0,,PR3        Store descriptor in PIA
   000166    3 00000 2353 00           274           LDA      0,,PR3            Get word 1 before interrupted
   000167    3 00001 2363 00           275           LDQ      1,,PR3            Get word 2 before interrupted
                                       276           INHIB    OFF
   000170    0 00003 4745 00           277           LDP      PR4,3,,PR0        Pntr to fourth param (Base addr)
   000171    4 00000 7561 00           278           STQ      0,,PR4            Return byte count of Base Addr
   000172    000020 7730 00            279           LRL      16                Isolate the Bound
   000173    000001 0350 07            280           ADLA     1,DL              Make into size(add 1 since starts at 0)
   000174    0 00001 4745 00           281           LDP      PR4,1,,PR0        Pntr to second param (Bound addr)
   000175    4 00000 7551 00           282           STA      0,,PR4            Return byte count of Bound Addr
   000176    000011 7370 00            283           LLS      9                 Isolate Flags
   000177    000033 7350 00            284           ALS      27                Make it left-justified
   000200    0 00002 4745 00           285           LDP      PR4,2,,PR0        Pntr to third param (Flags)
   000201    4 00000 7551 00           286           STA      0,,PR4            Return bit Flags
   000202    000001 7100 11            287           TRA      1,X1              RETURN

 13:02 09/05/97  FILE=ZIM$MISC.:ZIC0TSI                                                                  13   BMAP - B00
                                       288           EJECT
                                       289  *F*      ZIB$FPTRECOVER
                                       290  *        Routine to load the address of the necessary RECOVER
                                       291  *        routine when backing out of IDS due to an FPT vector error
                                       292  *
   000203                              293  ZIB$FPTRECOVER NULL
   000203    5 00062 4525 00           294           STP      PR2,REM_RECOVER,,PR5    Get addr of ALTRET routine
   000204    000000 2200 11            295           LDX      X0,0,X1
   000205    5 00063 7401 00           296           STX      X0,REM_RECOVER+1,,PR5
   000206    000001 7100 11            297           TRA      1,X1                     RETURN

 13:02 09/05/97  FILE=ZIM$MISC.:ZIC0TSI                                                                  14   BMAP - B00
                                       298           EJECT
                                       299  *F*      ZIB$CLRRECOVER
                                       300  *        Routine to clear both words of the REMEMBER variable,
                                       301  *        GLOBAL.PARAN.REM_RECOVER
                                       302  *
   000207                              303  ZIB$CLRRECOVER NULL
   000207    5 00062 4501 00           304           STZ      REM_RECOVER,,PR5         Clear first word
   000210    5 00063 4501 00           305           STZ      REM_RECOVER+1,,PR5       Clear second word
   000211    000001 7100 11            306           TRA      1,X1                     RETURN

 13:02 09/05/97  FILE=ZIM$MISC.:ZIC0TSI                                                                  15   BMAP - B00
                                       307           EJECT
                                       308  *F*      ZIM$LKMAP
                                       309  *        Map lock into schema encripted fromat for comparison
                                       310  *
                                       311  *                       PARAMETER      DEFINITION
                                       312  *                          ---------      ----------
                                       313  *              INPUT:         1           UWA lock to encode
                                       314  *              OUTPUT:        2           Encoded value
                                       315  *
   000212                              316  ZIM$LKMAP   NULL
   000212    0 00000 4715 00           317           LDP      PR1,0,,PR0           Pointer to first parameter
   000213    0 00001 4735 00           318           LDP      PR3,1,,PR0           Pointer to second parameter
   000214    1 00000 2351 00           319           LDA      0,,PR1         First word of lock
   000215    000005 7750 00            320           ALR      5              Encode it to schema format
   000216    3 00000 7551 00           321           STA      0,,PR3         Store in result
   000217    1 00001 2351 00           322           LDA      1,,PR1         Same for second word
   000220    000005 7750 00            323           ALR      5
   000221    3 00001 7551 00           324           STA      1,,PR3
   000222    1 00002 2351 00           325           LDA      2,,PR1         Save for third word
   000223    000005 7750 00            326           ALR      5
   000224    3 00002 7551 00           327           STA      2,,PR3
   000225    000001 7100 11            328           TRA      1,X1           RETURN

 13:02 09/05/97  FILE=ZIM$MISC.:ZIC0TSI                                                                  16   BMAP - B00
                                       329          EJECT
   000226                              330  ZIM$MRL_SHIFT NULL
                                       331  *
                                       332  *  CALL ZIM$MRL_SHIFT(FROMSTR$,TOSTR$,LEN);
                                       333  *  DCL FROMSTR$ PTR;
                                       334  *  DCL TOSTR$ PTR;
                                       335  *  DCL LEN     UBIN WORD;
                                       336  *
   000226    0 00000 4715 00           337         LDP     PR1,0,,PR0              Pointer to first parameter
   000227    1 00000 4715 00           338           LDP      PR1,0,,PR1           First parameter
   000230    0 00001 4735 00           339         LDP     PR3,1,,PR0              Pointer to second parameter
   000231    3 00000 4735 00           340           LDP      PR3,0,,PR3           Second parameter
   000232    0 00002 4745 00           341         LDP     PR4,2,,PR0              Pointer to third parameter
   000233    4 00000 2361 00           342         LDQ     0,,PR4            GET LEN
   000234    000 0 140 1015 40         343         MRL     (1,1),(1,1),0
   000235    1 00000 0 0 0 0006        344         ADSC9   0,0,Q,PR1
   000236    3 00000 0 0 0 0006        345         ADSC9   0,0,Q,PR3
   000237    000001 7100 11            346         TRA     1,X1              *** RETURN ***

 13:02 09/05/97  FILE=ZIM$MISC.:ZIC0TSI                                                                  17   BMAP - B00
                                       347           EJECT
   000240                              348  ZIM$RESAUTO NULL
                                       349  *
                                       350  *        This routine makes sure that enough AUTO is allocated
                                       351  *        while ther is still memory available.  This guarantees
                                       352  *        that if a rollback should occur the memory it needs is
                                       353  *        always obtainable.  One page is deemed sufficient.
                                       354  *
   000240  X 000000 7000 00            355           TSX0     X66_AUTO_0
   000241    002000 000000             356           ZERO     1024,0      One page of memory
   000242  X 000000 7020 00            357           TSX2     X66_ARET             RETURN

 13:02 09/05/97  FILE=ZIM$MISC.:ZIC0TSI                                                                  18   BMAP - B00
                                       358         EJECT
                                       359  *      Various SYMDEF'd pointers.
                                       360  *
                                       361  *
   000243    00000000 X 0000           362  AUTOSEG$ VFD   24/0,12/AUTOSID Automatic storage pointer.
   000244    00000000 X 0000           363  PSR$     VFD      24/0,12/PSRSID    Parameter stack pointer
   000245    00000000 X 0000           364  IS$     VFD      24/0,12/ISSID    Instruction segment pointer
                                       365  *
   000246    000000 00 X 0000          366  GLOBAL$ VFD    18/GLBLDISP/,6/0,12/DS2SID Global context pointer
             000000000000              367  GLBLDISP EQU   0               Displacement from GLBLSEG base to
                                       368  *                              beginning of the global structure
                                       369  *
   000247    00000000 0000             370  PS0$   VFD     24/0,12/PS0SID      Parameter 0 pointer.
   000250    00000000 0001             371  PS1$   VFD     24/0,12/PS1SID      Parameter 1 pointer.
   000251    00000000 0002             372  PS2$   VFD     24/0,12/PS2SID      Parameter 2 pointer.
   000252    00000000 0003             373  PS3$   VFD     24/0,12/PS3SID      Parameter 3 pointer.
   000253    00000000 0004             374  PS4$     VFD   24/0,12/PS4SID
   000254    00000000 0005             375  PS5$     VFD   24/0,12/PS5SID
   000255    00000000 0006             376  PS6$     VFD   24/0,12/PS6SID
                                       377  *
          (0)000000000247              378  VLP$     EQU   PS0$           Pointer to users Vector Located Params
          (0)000000000250              379  IA$      EQU   PS1$           Pointer to users Information Area
          (0)000000000251              380  UWA$     EQU   PS2$           Pointer to User Work Area
          (0)000000000252              381  RVA$     EQU   PS3$           Pointer to Reference Vector Area
          (0)000000000253              382  UPT$     EQU   PS4$           Pointer to Use Procedure Table
                                       383         END

  CONTROL SECTION TABLE

   0 CODE   EVEN  000256
   1 RODATA EVEN  000000 LITERALS

 13:02 09/05/97  FILE=ZIM$MISC.:ZIC0TSI       SYMBOL TABLE                                               19   BMAP - B00
 40000000 000000200000 .AC            *67
 40000000 000000000100 .AG            *67
 40000000 000000002000 .ALTO          *67
 40000000 000000000077 .ANL           *67
 40000000 000000200000 .APDN          *67
 40000000 000000000100 .ATMP          *67
 40000000 000000400000 .AV            *67
 40000000 000000400000 .B0            *67
 40000000 000000200000 .B1            *67
 40000000 000000000200 .B10           *67
 40000000 000000000100 .B11           *67
 40000000 000000000040 .B12           *67
 40000000 000000000020 .B13           *67
 40000000 000000000010 .B14           *67
 40000000 000000000004 .B15           *67
 40000000 000000000002 .B16           *67
 40000000 000000000001 .B17           *67
 40000000 000000400000 .B18           *67
 40000000 000000200000 .B19           *67
 40000000 000000100000 .B2            *67
 40000000 000000100000 .B20           *67
 40000000 000000040000 .B21           *67
 40000000 000000020000 .B22           *67
 40000000 000000010000 .B23           *67
 40000000 000000004000 .B24           *67
 40000000 000000002000 .B25           *67
 40000000 000000001000 .B26           *67
 40000000 000000000400 .B27           *67
 40000000 000000000200 .B28           *67
 40000000 000000000100 .B29           *67
 40000000 000000040000 .B3            *67
 40000000 000000000040 .B30           *67
 40000000 000000000020 .B31           *67
 40000000 000000000010 .B32           *67
 40000000 000000000004 .B33           *67
 40000000 000000000002 .B34           *67
 40000000 000000000001 .B35           *67
 13:02 09/05/97  FILE=ZIM$MISC.:ZIC0TSI       SYMBOL TABLE                                               20   BMAP - B00
 40000000 000000020000 .B4            *67
 40000000 000000010000 .B5            *67
 40000000 000000004000 .B6            *67
 40000000 000000002000 .B7            *67
 40000000 000000001000 .B8            *67
 40000000 000000000400 .B9            *67
 40000000 000000000001 .BREAK         *67
 40000000 000000010000 .BRK           *67
 40000000 000000020000 .BTB           *67
 40000000 000000000001 .CAC           *67
 40000000 000000000000 .CAE           *67
 40000000 000000000200 .CANSSS        *67
 40000000 000000000400 .CD            *67
 40000000 000000040000 .CFLC          *67
 40000000 000000400000 .CHKSUM        *67
 40000000 000000100000 .CJRNL         *67
 40000000 000000000077 .CNSZ          *67
 40000000 000000160000 .COMC          *67
 40000000 000000000020 .CONT          *67
 40000000 000000000000 .CSE           *67
 40000000 000000700000 .CTYP          *67
 41000000 000000000270 .DBEST         *67
 41000000 000000000470 .DBIC          *67       173       190
 40000000 000000077777 .DBPT          *67
 41000000 000000000370 .DBSTK         *67
 40000000 000000020000 .DELM          *67
 40000000 000000002000 .DIDP          *67
 40000000 000000000077 .DNDX          *67
 40000000 000000600000 .DORD          *67
 40000000 000000000200 .DP            *67
 40000000 000000100000 .DPS           *67
 40000000 000000200000 .DPSA          *67
 40000000 000000400000 .DPST          *67
 40000000 000000000002 .DUMP          *67
 40000000 000000002000 .DUPC          *67
 40000000 000000010000 .DUPP          *67
 40000000 000000200000 .EBCL          *67
 13:02 09/05/97  FILE=ZIM$MISC.:ZIC0TSI       SYMBOL TABLE                                               21   BMAP - B00
 40000000 000000400000 .EBCM          *67
 40000000 000000200000 .ENCRP         *67
 40000000 000000000077 .ENDX          *67
 40000000 000000000400 .ENQ           *67
 40000000 000000004000 .ETC           *67
 40000000 000000000400 .EXIT          *67
 40000000 000000000200 .FMOD          *67
 40000000 000000000077 .FNL           *67
 40000000 000000000074 .FORG          *67
 40000000 000000002000 .FR            *67
 40000000 000000000100 .FSR           *67
 40000000 000000003400 .FUSE          *67
 40000000 000000010000 .FVF           *67
 40000000 000000040000 .FVR           *67
 40000000 000000000010 .INDEXED       *67
 40000000 000000777777 .IXID          *67
 40000000 000000001777 .IXNUM         *67
 40000000 000000000004 .KEYED         *67
 40000000 000000010000 .LCK           *67
 40000000 000000400000 .LEIL          *67
 40000000 000000001000 .LG            *67
 40000000 000000000002 .LOAD          *67
 40000000 000000020000 .MAR           *67
 40000000 000000000007 .MEMT          *67
 40000000 000000010000 .MRL           *67
 40000000 000000040000 .MSM           *67
 60000000 000000000001 .N6685         *67
 40000000 000000100000 .NAI           *67
 40000000 000000200000 .NBI           *67
 40000000 000000000002 .NCIA          *67
 40000000 000000040000 .NMV           *67
 40000000 000000017777 .NOENT         *67
 40000000 000000400000 .OA            *67
 40000000 000000740000 .OPEV          *67
 40000000 000000100000 .OSM           *67
 40000000 000000100000 .PAFIL         *67
 40000000 000000200000 .PAHVR         *67
 13:02 09/05/97  FILE=ZIM$MISC.:ZIC0TSI       SYMBOL TABLE                                               22   BMAP - B00
 40000000 000000000001 .PAIA          *67
 40000000 000000040000 .PALIL         *67
 40000000 000000020000 .PALVR         *67
 40000000 000000400000 .PANLL         *67
 40000000 000000400000 .PCKD          *67
 40000000 000000001600 .PMOD          *67
 40000000 000000000520 .PRCSE         *67
 40000000 000000000007 .PSTO          *67
 40000000 000000006040 .PTAS          *67
 40000000 000000010100 .PTCHK         *67
 40000000 000000010200 .PTDEC         *67
 40000000 000000010140 .PTENC         *67
 40000000 000000020000 .RA            *67
 40000000 000000100000 .RC            *67
 40000000 000000400000 .RELEASE       *67
 40000000 000000000017 .RELT          *67
 40000000 000000004000 .RERA          *67
 40000000 000000400000 .RERS          *67
 40000000 000000010000 .RKEY          *67
 40000000 000000000077 .RNL           *67
 40000000 000000200000 .RSTO          *67
 40000000 000000007777 .RTYP          *67
 40000000 000000040000 .SC            *67
 40000000 000000000070 .SETM          *67
 40000000 000000740000 .SETO          *67
 40000000 000000000700 .SETT          *67
 40000000 000000040000 .SFNP          *67
 40000000 000000004000 .SM            *67
 40000000 000000020000 .SMOD          *67
 40000000 000000000077 .SNL           *67
 40000000 000000020000 .SNSS          *67
 40000000 000000010000 .SO            *67
 40000000 000000100000 .SR            *67
 40000000 000000004000 .SRCR          *67
 40000000 000000001000 .SS            *67
 40000000 000000000007 .SSTP          *67
 40000000 000000004000 .SYN           *67
 13:02 09/05/97  FILE=ZIM$MISC.:ZIC0TSI       SYMBOL TABLE                                               23   BMAP - B00
 40000000 000000000040 .SYNC          *67
 40000000 000000020000 .TJRNL         *67
 40000000 000000040000 .TMPLT         *67
 40000000 000000040000 .TRACE         *67
 40000000 000000000001 .TRENTRY       *67
 40000000 000000000012 .TRIDEL        *67
 40000000 000000000021 .TRIDELENQ     *67
 40000000 000000000024 .TRIDEQ        *67
 40000000 000000000013 .TRIMOD        *67
 40000000 000000000022 .TRIMODENQ     *67
 40000000 000000000014 .TRIREAD       *67
 40000000 000000000023 .TRIREADENQ    *67
 40000000 000000000011 .TRISTO        *67
 40000000 000000000020 .TRISTOENQ     *67
 40000000 000000000017 .TRPDEQ        *67
 40000000 000000000004 .TRPMOD        *67
 40000000 000000000016 .TRPMODENQ     *67
 40000000 000000000002 .TRPREAD       *67
 40000000 000000000015 .TRPREADENQ    *67
 40000000 000000000003 .TRPWRITE      *67
 40000000 000000000010 .TRRACC        *67
 40000000 000000000006 .TRRDEL        *67
 40000000 000000000007 .TRRMOD        *67
 40000000 000000000005 .TRRSTO        *67
 40000000 000000004000 .ULCK          *67
 40000000 000000400000 .UPDT          *67
 40000000 000000000040 .VIA           *67
 60000000 000000000001 A              *67
 40000000 000000000002 ABAS           *67
 40000000 000000000001 AC             *67
 40000000 777777777760 ACDEF          *67
 40000000 000000211070 ACDNL          *67
 40000000 000000000003 ACID           *67
 40000000 000000001016 ACOPN          *67
 40000000 000000000002 ACP            *67
 40000000 000000000005 ACPTR          *67
 40000000 000000000002 ACRAH          *67
 13:02 09/05/97  FILE=ZIM$MISC.:ZIC0TSI       SYMBOL TABLE                                               24   BMAP - B00
 40000000 000000000001 ACRAN          *67
 40000000 000000001003 ACREC          *67
 41000000 000000000001 ACTDBCB        *67        75
 40000000 000000000002 ACTDBNO        *67
 40000000 000000001017 ACTP           *67
 41000000 000000000000 ACTSSS         *67        74
 40000000 000000000000 ACTSZ          *67
 40000000 000000210565 AFNP           *67
 40000000 000000000635 AFT            *67
 40000000 000000022124 AIR            *67
 40000000 000000000016 AMAX           *67
 40000000 000000000026 ANAM           *67
 40000000 000000021614 ANR            *67
 40000000 000000000001 APNO           *67
 40000000 000000210562 ARGER          *67
 41000000 000000000020 ARGS           *67
 40000000 000000000077 ARGS2          *67
 40000000 000000210713 ARNAF          *67
 40000000 000000000003 ATBL           *67
 40000000 000000000000 ATRIB          *67
 06101000 000000000243 AUTOSEG$        35      *362
 03601001 000000000000 AUTOSID        *60       362
 40000000 000000000002 AVLN           *67
 40000000 000000000013 AWS$           *67
 40000000 000000000010 AWSZ           *67
 60000000 000000000001 B              *67
 40000000 000000001006 B32N           *67
 40000000 000000001007 B36N           *67
 40000000 000000001056 B72N           *67
 40000000 000000000001 BADDR          *67
 40000000 000000210712 BADSEED        *67
 40000000 777777777765 BDCW           *67
 40000000 000000000633 BEF            *67
 40000000 000000020000 BEFW           *67
 40000000 000000000751 BEMT           *67
 40000000 777777777761 BID            *67
 40000000 777777777762 BIND           *67
 13:02 09/05/97  FILE=ZIM$MISC.:ZIC0TSI       SYMBOL TABLE                                               25   BMAP - B00
 40000000 000000000007 BLKD           *67
 40000000 000000303331 BME02          *67
 41000000 000000001203 BMPB           *67
 40000000 000000000652 BN1            *67
 40000000 000000000654 BN2            *67
 40000000 000000000004 BPL            *67
 40000000 000000000015 BPLDBK         *67
 40000000 000000000034 BSPG           *67
 40000000 777777777763 BSTAT          *67
 40000000 000000000750 BTX0           *67
 41000000 000000001160 BUF4           *67
 41000000 000000001170 BUF6           *67
 41000000 000000000000 BUFORG         *67
 40000000 000000001060 BUFRQ          *67
 40000000 000000000006 BURRID         *67
 41000000 000000000020 BWASZ          *67
 60000000 000000000001 C              *67
 40000000 000000000050 CAAC           *67
 40000000 000000000050 CACD           *67
 40000000 000000000111 CAG            *67
 40000000 000000001033 CAL            *67
 40000000 000000000026 CALLPM0        *67
 40000000 000000000003 CANSSS         *67
 40000000 000000000003 CBCPA          *67
 40000000 000000000002 CBCPO          *67
 40000000 000000000002 CBENO          *67
 40000000 000000000014 CBFSZ          *67
 40000000 000000000753 CBIB           *67
 40000000 000000001030 CBID           *67
 40000000 000000000014 CBRCE          *67
 40000000 000000000014 CBRCP          *67
 40000000 000000001033 CBRID          *67
 40000000 000000000015 CBRPA          *67
 40000000 000000000031 CCHAR          *67
 40000000 000000000040 CDBK           *67
 40000000 000000000030 CDES           *67
 40000000 000000000110 CDP            *67
 13:02 09/05/97  FILE=ZIM$MISC.:ZIC0TSI       SYMBOL TABLE                                               26   BMAP - B00
 40000000 000000001044 CDPSI          *67
 40000000 000000000002 CDRH           *67
 40000000 000000000003 CDRN           *67
 40000000 000000000002 CDSH           *67
 40000000 000000000003 CDSN           *67
 40000000 000000000722 CENTRN         *67
 40000000 000000000722 CENTRO         *67
 40000000 000000000716 CENTRY         *67
 41000000 000000001053 CFCT           *67
 40000000 000000000670 CFLPT1         *67
 40000000 000000000672 CFLPT2         *67
 40000000 000000000015 CFSA           *67
 40000000 000000000646 CHDBK          *67
 40000000 000000000773 CHR            *67
 40000000 000000000006 CHRD           *67
 40000000 000000000772 CHRO           *67
 40000000 000000007640 CHRTP          *67
 40000000 000000001043 CIAC           *67
 40000000 000000000012 CIAWS          *67
 40000000 000000001051 CIBSI          *67
 40000000 000000000516 CIND           *67
 40000000 000000001041 CINVSZ         *67
 40000000 000000001042 CIPG           *67
 40000000 000000001050 CIPSI          *67
 40000000 000000000000 CIRUN          *67
 40000000 000000000002 CIRWS          *67
 40000000 000000000002 CISWS          *67
 40000000 000000000014 CIWSOF         *67
 40000000 000000303374 CKSM           *67
 40000000 000000000022 CLCN           *67
 40000000 000000000023 CLCP           *67
 40000000 000000000003 CLCRC          *67
 40000000 000000000003 CLCSC          *67
 01101000 000000000033 CLEAN          105      *116
 40000000 000000000237 CLI            *67
 40000000 000000000026 CLNG           *67
 40000000 000000000052 CMPL           *67
 13:02 09/05/97  FILE=ZIM$MISC.:ZIC0TSI       SYMBOL TABLE                                               27   BMAP - B00
 40000000 000000000002 CN             *67
 40000000 000000303315 CNE1           *67
 40000000 000000006034 CNUL           *67
 40000000 000000100000 COB74          *67
 40000000 000000000001 COFS           *67
 40000000 000000000045 CONCD          *67
 40000000 000000007764 CP6PGSZB       *67
 41000000 000000001775 CP6PGSZW       *67
 40000000 000000001000 CPGR           *67
 40000000 000000000723 CPTRN          *67
 40000000 000000000723 CPTRO          *67
 60000000 000000000004 CPW            *67
 40000000 000000000112 CRA            *67
 40000000 000000001004 CRD            *67
 40000000 000000000764 CREC           *67
 40000000 000000006344 CRIT           *67
 40000000 000000006200 CRNUL          *67
 40000000 000000007330 CRST           *67
 41000000 000000001223 CRUN           *67
 41000000 000000000000 CSECT          *67
 40000000 000000000007 CSMPP          *67
 40000000 000000001000 CSPAC          *67
 40000000 000000000004 CSPAH          *67
 40000000 777777777776 CSPES          *67
 40000000 777777777776 CSPSB          *67
 40000000 000000000115 CSTS           *67
 40000000 000000000071 CSUB           *67
 40000000 000000000017 CSZ            *67
 40000000 000000000057 CTMASK         *67
 40000000 000000000774 CTPAI          *67
 40000000 000000000240 CURLN          *67
 40000000 000000000236 CURLT          *67
 40000000 000000000770 CURPG          *67
 40000000 000000000001 CURR           *67
 40000000 000000000035 CURRS          *67
 40000000 000000000037 CURSS          *67
 40000000 000000001005 CWRT           *67
 13:02 09/05/97  FILE=ZIM$MISC.:ZIC0TSI       SYMBOL TABLE                                               28   BMAP - B00
 40000000 000000000237 CWSOF          *67
 60000000 000000000001 D              *67
 40000000 000000000003 DBAN           *67
 40000000 000000000036 DBDR           *67
 40000000 000000000037 DBFN           *67
 40000000 000000000754 DBK            *67
 40000000 000000000777 DBKAC          *67
 40000000 000000000000 DBKEY          *67
 40000000 000000000000 DBKL           *67
 40000000 000000007474 DBKN           *67
 41000000 000000000776 DBKR           *67
 40000000 000000000777 DBKRQ          *67
 40000000 000000000234 DBKSI          *67
 40000000 000000000651 DBKSR          *67
 40000000 000000000047 DBKYN          *67
 40000000 000000210652 DBLC01         *67
 40000000 000000210653 DBLC05         *67
 40000000 000000303334 DBLC07         *67
 40000000 000000210655 DBLD01         *67
 40000000 000000000010 DBLIM          *67
 40000000 000000000033 DBPKY          *67
 40000000 000000000023 DBRN           *67
 40000000 000000000013 DBSN           *67
 40000000 000000000001 DBST           *67
 40000000 000000000757 DCDSR          *67
 40000000 000000210650 DCE1           *67
 40000000 000000001053 DCPR           *67
 40000000 000000001053 DCPW           *67
 40000000 000000000015 DCTBL          *67
 40000000 000000000032 DDBK           *67
 40000000 000000000006 DDCB           *67
 40000000 000000011754 DDI            *67
 40000000 000000000000 DEF            *67
 40000000 000000000014 DEF2           *67
 40000000 000000303413 DELAK          *67
 40000000 000000000036 DELRS          *67
 40000000 000000000732 DEPCW          *67
 13:02 09/05/97  FILE=ZIM$MISC.:ZIC0TSI       SYMBOL TABLE                                               29   BMAP - B00
 40000000 000000303414 DLDBK          *67
 40000000 000000210627 DLE1           *67
 40000000 000000303310 DLE2           *67
 40000000 000000210631 DLE3           *67
 40000000 000000016040 DNES           *67
 40000000 777777777777 DPAGN          *67
 40000000 000000000020 DPPI           *67
 40000000 000000000053 DPSLW          *67
 40000000 000000000003 DS             *67
 03601000 000000000000 DS2SID         *59       366
 40000000 000000001063 DSDES          *67
 40000000 000000303316 DSE1           *67
 40000000 000000000735 DUSEPA         *67
 60000000 000000000001 E              *67
 40000000 000000303251 EDPER          *67
 40000000 000000000026 EEIND          *67
 40000000 000000000713 EFIND          *67
 40000000 000000001030 ELO            *67
 40000000 000000210711 ENCPNA         *67
 40000000 000000000007 ENCRP          *67
 40000000 000000000752 ENDSR          *67
 40000000 000000210647 ENE1           *67
 40000000 000000000716 ENIND          *67
 40000000 000000000013 ENTBL          *67
 40000000 000000000710 ENTNO          *67
 40000000 000000000712 ENTPTR         *67
 40000000 000000000717 ENTSZ          *67
 40000000 000000000711 ENTTYP         *67
 40000000 000000004064 EOSR           *67
 40000000 000000000004 ES             *67
 41000000 000000000100 ESTSZ          *67
 40000000 000000000725 ESZ            *67
 40000000 000000000005 ETCADR         *67
 40000000 000000000005 ETCDBNO        *67
 40000000 000000000064 EXCCD          *67
 40000000 000000234534 FALRT          *67
 40000000 000000001055 FBF72          *67
 13:02 09/05/97  FILE=ZIM$MISC.:ZIC0TSI       SYMBOL TABLE                                               30   BMAP - B00
 40000000 000000001025 FBU61          *67
 40000000 000000001020 FBUF           *67
 40000000 000000001026 FBUF1          *67
 40000000 000000001027 FBUF4          *67
 40000000 000000001024 FBUF6          *67
 40000000 000000001022 FBUFM          *67
 40000000 000000001021 FBUFU          *67
 40000000 000000001023 FBUMD          *67
 40000000 000000000004 FCN            *67
 40000000 000000000051 FCNT           *67
 40000000 000000000002 FCP            *67
 40000000 000000000047 FCSS           *67
 40000000 000000000005 FD             *67
 40000000 000000210637 FDE1           *67
 40000000 000000303320 FDE2           *67
 40000000 000000303321 FDE3           *67
 40000000 000000210642 FDE4           *67
 40000000 000000210643 FDE5           *67
 40000000 000000210644 FDE6           *67
 40000000 000000303325 FDE7           *67
 40000000 000000303326 FDE8           *67
 40000000 000000000021 FEASZ          *67
 40000000 000000000740 FETM           *67
 40000000 000000000006 FI             *67
 40000000 000000000103 FIAC           *67
 41000000 000000001100 FIB1           *67
 41000000 000000001130 FIBP           *67
 40000000 000000000000 FIBX           *67
 40000000 000000000102 FICNT          *67
 40000000 000000000005 FIPN           *67
 40000000 000000000054 FKIND          *67
 40000000 000000000015 FLAGS          *67
 40000000 000000000244 FLDDSC         *67
 40000000 000000000046 FLDTL          *67
 40000000 000000000020 FMSBF          *67
 40000000 000000000006 FNAM           *67
 40000000 000000000250 FNIND          *67
 13:02 09/05/97  FILE=ZIM$MISC.:ZIC0TSI       SYMBOL TABLE                                               31   BMAP - B00
 40000000 000000000004 FNL            *67
 40000000 000000000101 FRAC           *67
 40000000 000000000002 FRANGE         *67
 40000000 000000211400 FRDNL          *67
 40000000 000000200000 FRTRN          *67
 40000000 000000000005 FRWSO          *67
 40000000 000000000767 FSLN           *67
 40000000 000000000766 FSOF           *67
 40000000 000000000060 FTIND          *67
 40000000 000000303240 FTLINCR        *67
 40000000 000000000021 FWSSZ          *67
 40000000 000000000246 GACDK          *67
 40000000 000000000014 GDCB           *67
 41000000 000000000006 GERROR         *67        89        91       104       106       107       119
                                      132       151       164       166       185
 40000000 000000000016 GINHIB         *67
 40000000 000000000020 GIOAWS         *67
 40000000 000000000022 GIOBUF         *67
 40000000 000000000021 GIOPGNO        *67
 41000000 000000000000 GLBLDISP       366      *367
 07101000 000000000246 GLOBAL$         34        79      *366
 40000000 000000000015 GPAGE          *67
 41000000 000000000010 GRETAC         *67        92       108       134       152       167       186
 41000000 000000000011 GRETFR         *67        93       110       136       153       168       187
 41000000 000000000013 GRETRC         *67        95       114       140       155       170       189
 41000000 000000000012 GRETSC         *67        94       112       138       154       169       188
 40000000 000000000025 GRLCW          *67
 40000000 000000000014 GSTCD          *67
 40000000 000000000007 GSYSERR        *67
 40000000 000000000010 GT             *67
 40000000 000000000046 GTRNAME        *67
 40000000 000000000055 GTRPDCB        *67
 40000000 000000000056 GTRPNO         *67
 40000000 000000000057 GTRRDBK        *67
 40000000 000000000060 GTRRTYPE       *67
 40000000 000000000060 GTRTYPE        *67
 40000000 000000000027 HASH           *67
 13:02 09/05/97  FILE=ZIM$MISC.:ZIC0TSI       SYMBOL TABLE                                               32   BMAP - B00
 40000000 000000000022 HIA            *67
 40000000 000000000775 HIDB           *67
 40000000 000000000003 HIGHDBK        *67
 40000000 000000000004 HIGHPG         *67
 40000000 000000001037 HIL            *67
 41000000 000000000002 HILN           *67       220
 40000000 000000000006 HPOS           *67
 46101000 000000000250 IA$             43      *379
 40000000 000000000756 IAAC           *67
 40000000 000000001011 IACLN          *67
 40000000 000000001010 IALC           *67
 40000000 000000010314 IAN            *67
 40000000 000000001012 IANLN          *67
 40000000 000000000001 IASID          *66
 40000000 000000020320 ICA            *67
 01101000 000000000100 ICALT          165      *173
 41000000 000000000023 ICKSMP         *67       208       218
 41000000 000000000024 ICKSMV         *67       215       231
 40000000 000000210742 ICNR           *67
 41000000 000000000020 ICSIZ          *67
 40000000 000000010004 IDBK           *67
 40000000 000000012120 IDI            *67
 40000000 000000000023 IDS            *67
 40000000 000000000011 IF             *67
 40000000 000000000021 IFIPN          *67
 40000000 000000000000 IFR            *67
 40000000 000000234546 IKSEQ          *67
 40000000 000000000113 INAFLAG        *67
 40000000 000000000016 INCHA          *67
 40000000 000000210566 INNM           *67
 40000000 000000210567 INSS           *67
 40000000 000000210575 INSST          *67
 40000000 000000303241 INTER          *67
 40000000 000000400000 INTII          *67
 40000000 000000000013 INTVL          *67
 40000000 000000001060 INVFLG         *67
 40000000 000000001043 INVOF          *67
 13:02 09/05/97  FILE=ZIM$MISC.:ZIC0TSI       SYMBOL TABLE                                               33   BMAP - B00
 40000000 000000000014 INVT           *67
 40000000 000000000034 IOBLK          *67
 40000000 000000303354 IOCLSD         *67
 40000000 000000303355 IOCLSK         *67
 40000000 000000303257 IOE1           *67
 40000000 000000303264 IOE11          *67
 40000000 000000303265 IOE12          *67
 40000000 000000303266 IOE18          *67
 40000000 000000303260 IOE2           *67
 40000000 000000303261 IOE3           *67
 40000000 000000303262 IOE7           *67
 40000000 000000303263 IOE8           *67
 40000000 000000303363 IOFLSH         *67
 40000000 000000210676 IOGDCB         *67
 40000000 000000001002 IOINC          *67
 40000000 000000305160 IOINI          *67
 40000000 000000305155 IONOTIDS       *67
 40000000 000000305154 IONOTKEY       *67
 40000000 000000210677 IOOPND         *67
 40000000 000000210700 IOOPNK         *67
 40000000 000000303361 IORDD          *67
 40000000 000000305156 IOSCHEMA       *67
 40000000 000000001052 IOSTS          *67
 40000000 000000303362 IOWRTD         *67
 41000000 000000000750 IOWS           *67
 40000000 000000000647 IPC            *67
 40000000 000000000650 IPCF           *67
 40000000 000000000006 IROLLFLAG      *67
 40000000 000000010150 IRSN           *67
 06101000 000000000245 IS$             37      *364
 03601004 000000000000 ISSID          *63       364
 40000000 000000000004 ISYSDCB        *67
 40000000 000000000005 ISYSERR        *67
 40000000 000000000061 ITPTR          *67
 40000000 000000000060 ITRS           *67
 40000000 000000021760 IUM            *67
 40000000 000000000017 IUSZ           *67
 13:02 09/05/97  FILE=ZIM$MISC.:ZIC0TSI       SYMBOL TABLE                                               34   BMAP - B00
 40000000 000000234522 IVDBK          *67
 40000000 000000000011 IXBUF$         *67
 40000000 000000000046 IXFBSZ         *67
 40000000 777777777776 IXID           *67
 40000000 777777777777 IXPLL          *67
 40000000 000000000523 KCARG0         *67
 40000000 000000000524 KCARG3         *67
 40000000 000000000525 KCARG4         *67
 40000000 000000000700 KCREG          *67
 40000000 000000000006 KDCB           *67
 40000000 000000000666 KEYDS          *67
 40000000 000000000010 KEYPA          *67
 40000000 777777777776 KLNG           *67
 40000000 000000000022 KPASZ          *67
 40000000 000000000006 KWSZ           *67
 40000000 000000000052 LANGC          *67
 40000000 000000001014 LAS            *67
 40000000 000000700000 LCODM          *67
 40000000 000000001045 LDPSI          *67
 40000000 000000001071 LINPT          *67
 40000000 000000001017 LNCNT          *67
 40000000 000000000762 LNNO           *67
 40000000 000000001036 LOL            *67
 40000000 000000000715 LOLIM          *67
 40000000 000000000023 LPASZ          *67
 40000000 000000000012 LPP            *67
 40000000 000000257764 LR             *67
 40000000 000000301270 LRA            *67
 40000000 000000000017 LRSZ           *67
 40000000 000000001035 LSPC           *67
 40000000 000000000750 LUPD           *67
 61000000 000000000001 M9             *67
 40000000 000000000013 MD             *67
 40000000 000000300000 MDQS           *67
 40000000 000000000730 MEMPTR         *67
 40000000 000000000727 MEMTYP         *67
 40000000 000000000045 MODCD          *67
 13:02 09/05/97  FILE=ZIM$MISC.:ZIC0TSI       SYMBOL TABLE                                               35   BMAP - B00
 41000000 000000001207 MODFL          *67
 40000000 000000000042 MODFR          *67
 40000000 000000000044 MODIN          *67
 40000000 000000000044 MODRS          *67
 40000000 000000000043 MODSC          *67
 40000000 000000000047 MRBKI          *67
 40000000 000000210632 MRE4           *67
 40000000 000000303313 MRE5           *67
 40000000 000000210634 MRE7           *67
 40000000 000000400000 MW             *67
 40000000 000000000025 NCH            *67
 40000000 000000000002 NCHA           *67
 40000000 000000000005 NCHRS          *67
 40000000 000000000014 NDCD           *67
 40000000 000000000012 NENC           *67
 40000000 000000000634 NEW            *67
 40000000 000000001072 NEWSIZ         *67
 01101000 000000000141 NEXTW         *227       230
 01101000 000000000122 NEXTWORD      *211       214
 40000000 000000235164 NKA            *67
 40000000 000000235020 NKDB           *67
 40000000 000000303415 NLDBK          *67
 40000000 777777777777 NLIND          *67
 40000000 000000001040 NLN            *67
 40000000 000000400000 NLNSA          *67
 41000000 000000001053 NOBF           *67
 40000000 000000000711 NOPTRS         *67
 40000000 000000000742 NPARCW         *67
 40000000 000000000630 NPIND          *67
 40000000 000000000004 NPOS           *67
 40000000 000000234510 NSA            *67
 40000000 000000234654 NSCS           *67
 40000000 000000234344 NSDB           *67
 40000000 000000000001 NSTS           *67
 40000000 000000000726 NUMENT         *67
 40000000 000000000727 NUMPTR         *67
 40000000 777777777760 NXBUF          *67
 13:02 09/05/97  FILE=ZIM$MISC.:ZIC0TSI       SYMBOL TABLE                                               36   BMAP - B00
 40000000 000000000713 NXPRI          *67
 40000000 000000000771 NXTC           *67
 40000000 000000000001 OAACN          *67
 40000000 000000000022 OACIWSOF       *67
 40000000 000000000001 OAOFST         *67
 40000000 000000000002 OARCN          *67
 40000000 000000000001 OASCN          *67
 40000000 000000000014 OD             *67
 40000000 000000000074 ODBK           *67
 40000000 000000001072 OLDSIZ         *67
 40000000 000000000101 OPADP          *67
 40000000 000000000741 OPARCW         *67
 40000000 000000210570 ORDNI          *67
 40000000 777777777777 OTVL           *67
 40000000 000000000252 OWNPTR         *67
 40000000 000000000016 PABUF          *67
 40000000 000000001041 PACD           *67
 40000000 000000000001 PACW           *67
 40000000 000000000733 PADBK          *67
 40000000 000000000740 PADUP          *67
 40000000 000000000745 PAEN           *67
 40000000 000000000745 PAEO           *67
 40000000 000000000734 PAEOF          *67
 40000000 000000303336 PAER1          *67
 40000000 000000303337 PAER2          *67
 40000000 000000303340 PAER3          *67
 40000000 000000303341 PAER4          *67
 40000000 000000303342 PAER5          *67
 40000000 000000303343 PAER6          *67
 40000000 000000000747 PAESZ          *67
 40000000 000000001060 PAFLG          *67
 40000000 000000000731 PAOPTR         *67
 40000000 000000000734 PAPOF          *67
 40000000 000000000714 PARCW          *67
 40000000 000000000726 PARVPA         *67
 40000000 000000000724 PASPLT         *67
 40000000 000000000004 PAWSZ          *67
 13:02 09/05/97  FILE=ZIM$MISC.:ZIC0TSI       SYMBOL TABLE                                               37   BMAP - B00
 40000000 777777777762 PBUF           *67
 40000000 000000000020 PC             *67
 41000000 000000000510 PCB            *67
 40000000 000000000642 PCD            *67
 40000000 000000000642 PCD2           *67
 40000000 000000000247 PCEXI          *67
 40000000 000000000675 PCMIN          *67
 40000000 000000004541 PCOMP          *67
 40000000 000000000010 PD             *67
 40000000 000000000040 PE             *67
 40000000 000000000017 PENDING        *67
 40000000 000000000004 PF             *67
 40000000 000000000400 PFG            *67
 40000000 000000000200 PFM            *67
 40000000 000000000100 PFS            *67
 40000000 000000000400 PG             *67
 40000000 000000001064 PGHD           *67
 40000000 000000000006 PGLIM          *67
 40000000 000000000003 PGRNG          *67
 40000000 000000000746 PGSIZE         *67
 40000000 000000000641 PGSPLT         *67
 03601003 000000000000 PIASID         *62       245       270
 40000000 000000000100 PKAW           *67
 40000000 000000001034 PLO            *67
 40000000 000000000004 PLSEP          *67
 40000000 000000000200 PM             *67
 40000000 000000001054 PNEOO          *67
 40000000 000000001047 POFSI          *67
 40000000 000000000005 PPOS           *67
 41000000 000000000000 PR0            *66       211       220       227       243       244       245
                                      248       249       269       277       281       285       317
                                      318       337       339       341
 41000000 000000000001 PR1            *66       243       246       248       269       271       273
                                      317       319       322       325       337       338       344
 41000000 000000000002 PR2            *66       294
 41000000 000000000003 PR3            *66       244       254       270       273       274       275
                                      318       321       324       327       339       340       345
 13:02 09/05/97  FILE=ZIM$MISC.:ZIC0TSI       SYMBOL TABLE                                               38   BMAP - B00
 41000000 000000000004 PR4            *66       277       278       281       282       285       286
                                      341       342
 41000000 000000000005 PR5            *66        74        75        79        89        91        92
                                       93        94        95       104       106       107       108
                                      110       112       114       115       119       132       134
                                      136       138       140       151       152       153       154
                                      155       164       166       167       168       169       170
                                      185       186       187       188       189       208       215
                                      218       231       294       296       304       305
 41000000 000000000006 PR6            *66        74
 41000000 000000000007 PR7            *66        75       109       111       113       123       131
                                      133       135       137       139       173       190
 40000000 000000303267 PRE1           *67
 40000000 000000303277 PRE10          *67
 40000000 000000303270 PRE3           *67
 40000000 000000303271 PRE4           *67
 40000000 000000303272 PRE5           *67
 40000000 000000210613 PRE6           *67
 40000000 000000210614 PRE7           *67
 40000000 000000210615 PRE8           *67
 40000000 000000303276 PRE9           *67
 40000000 000000000522 PREXC          *67
 40000000 000000000521 PRFR           *67
 40000000 000000000521 PRFR2          *67
 40000000 000000000000 PRIV           *67
 40000000 000000000526 PROPA          *67
 40000000 000000000517 PRRC           *67
 40000000 000000000517 PRRS           *67
 40000000 000000000520 PRSC           *67
 40000000 000000000516 PRSS           *67
 40000000 000000000644 PRSTS          *67
 40000000 000000000100 PS             *67
 07101000 000000000247 PS0$            51      *370       378
 41000000 000000000000 PS0SID         *66       370
 07101000 000000000250 PS1$            52      *371       379
 41000000 000000000001 PS1SID         *66       371
 07101000 000000000251 PS2$            53      *372       380
 13:02 09/05/97  FILE=ZIM$MISC.:ZIC0TSI       SYMBOL TABLE                                               39   BMAP - B00
 41000000 000000000002 PS2SID         *66       372
 07101000 000000000252 PS3$            54      *373       381
 41000000 000000000003 PS3SID         *66       373
 07101000 000000000253 PS4$            55      *374       382
 41000000 000000000004 PS4SID         *66       374
 06101000 000000000254 PS5$            56      *375
 41000000 000000000005 PS5SID         *66       375
 06101000 000000000255 PS6$            57      *376
 41000000 000000000006 PS6SID         *66       376
 40000000 000000303416 PSA            *67
 40000000 000000000020 PSC            *67
 40000000 000000000010 PSD            *67
 40000000 000000000004 PSF            *67
 40000000 000000000400 PSO            *67
 06101000 000000000244 PSR$            36      *363
 03601002 000000000000 PSRSID         *61       363
 40000000 000000000720 PTESZ          *67
 40000000 000000000631 PTR            *67
 40000000 000000000724 PTRESZ         *67
 40000000 000000000710 PTRNO          *67
 41000000 000000000630 PWS            *67
 40000000 000000000002 RADDR          *67
 40000000 000000000010 RADIX          *67
 40000000 000000000005 RAPTR          *67
 40000000 000000000004 RAWSOF         *67
 40000000 777777777766 RBA            *67
 40000000 000000023432 RCBI           *67
 40000000 000000211234 RCDNL          *67
 40000000 000000000005 RCFRH          *67
 40000000 000000000004 RCFRN          *67
 40000000 000000001075 RCHD           *67
 40000000 000000000001 RCID           *67
 40000000 000000000006 RCPTR          *67
 40000000 000000000002 RCRAH          *67
 40000000 000000000001 RCRAN          *67
 40000000 000000000003 RCRSH          *67
 40000000 000000000002 RCRSN          *67
 13:02 09/05/97  FILE=ZIM$MISC.:ZIC0TSI       SYMBOL TABLE                                               40   BMAP - B00
 40000000 000000210667 RCVER1         *67
 40000000 000000210670 RCVER2         *67
 40000000 000000210671 RCVER4         *67
 40000000 000000210672 RCVER5         *67
 40000000 000000210673 RCVER6         *67
 40000000 000000000736 RCW1           *67
 40000000 000000000737 RCW2           *67
 40000000 000000000004 RCWSO          *67
 40000000 000000000077 RDAC           *67
 40000000 000000000076 RDCNT          *67
 40000000 000000040000 RDI            *67
 40000000 000000015674 RDLT           *67
 40000000 000000000075 RDYCW          *67
 41000000 000000000066 RECAC          *67       109       133
 41000000 000000000065 RECFR          *67       111       135
 41000000 000000000070 RECRC          *67       115       139
 41000000 000000000067 RECSC          *67       113       137
 40000000 000000000003 RECSZ          *67
 40000000 000000000235 REMLT          *67
 41000000 000000000062 REM_RECOVER    *67       294       296       304       305
 40000000 000000000251 RETFR          *67
 40000000 000000210724 RFDNL          *67
 40000000 000000017644 RIM            *67
 40000000 000000000005 RNAM           *67
 40000000 000000015706 RNDLT          *67
 40000000 000000000662 RNG1           *67
 40000000 000000000664 RNG2           *67
 40000000 000000000073 RNGD           *67
 40000000 000000000072 RNGO           *67
 40000000 000000000660 RNGTAL         *67
 40000000 000000020154 RNM            *67
 40000000 000000000041 ROCUR          *67
 40000000 000000000001 ROFST          *67
 41000000 000000002114 ROLL           *67       117
 40000000 000000020010 RPM            *67
 40000000 000000000001 RSCDH          *67
 40000000 000000000001 RSCDN          *67
 13:02 09/05/97  FILE=ZIM$MISC.:ZIC0TSI       SYMBOL TABLE                                               41   BMAP - B00
 40000000 000000211710 RSDNL          *67
 40000000 000000004540 RSEE           *67
 40000000 000000000003 RSIZ           *67
 40000000 000000000110 RSPAM          *67
 40000000 000000000004 RSPTR          *67
 40000000 000000000037 RSREQ          *67
 40000000 000000000002 RSSSH          *67
 40000000 000000000001 RSSSN          *67
 40000000 000000210574 RSZER          *67
 40000000 000000000632 RSZTP          *67
 40000000 000000000003 RTP            *67
 40000000 000000000003 RTYP           *67
 40000000 000000000530 RV1            *67
 40000000 000000000550 RV2            *67
 40000000 000000000570 RV3            *67
 40000000 000000000610 RV4            *67
 46101000 000000000252 RVA$            45      *381
 40000000 000000000003 RVASID         *66
 40000000 000000000510 RVI            *67
 40000000 000000000511 RVO            *67
 40000000 000000000513 RVPA           *67
 40000000 000000000512 RVT            *67
 40000000 000000000022 RVTAL          *67
 40000000 000000000002 RWSZ           *67
 40000000 000000000015 RY             *67
 40000000 000000210620 RYE1           *67
 40000000 000000210621 RYE4           *67
 40000000 777777777767 SA             *67
 40000000 000000000005 SANAM          *67
 40000000 000000001062 SCDES          *67
 40000000 000000211544 SCDNL          *67
 40000000 000000000024 SCFC           *67
 40000000 000000000002 SCID           *67
 40000000 000000000024 SCLST          *67
 40000000 000000000004 SCNAM          *67
 40000000 000000000004 SCPTR          *67
 40000000 000000000003 SCRSH          *67
 13:02 09/05/97  FILE=ZIM$MISC.:ZIC0TSI       SYMBOL TABLE                                               42   BMAP - B00
 40000000 000000000002 SCRSN          *67
 40000000 000000000001 SCWSO          *67
 40000000 000000001225 SFWS           *67
 40000000 000000001073 SIZCHG         *67
 40000000 000000000645 SKFLG          *67
 40000000 000000000643 SKIND          *67
 40000000 000000000641 SKTYP          *67
 40000000 000000020464 SMCR           *67
 40000000 000000000003 SNAM           *67
 40000000 000000000107 SNIND          *67
 40000000 000000000735 SNPAE          *67
 40000000 000000001046 SNSI           *67
 40000000 000000000743 SOE            *67
 40000000 000000020630 SORSA          *67
 40000000 000000004374 SOSE           *67
 40000000 000000000000 SPAV           *67
 40000000 000000000744 SPCAVN         *67
 40000000 000000000744 SPCAVO         *67
 40000000 000000000765 SPLF           *67
 41000000 000000000765 SPND           *67
 40000000 000000000006 SSDT           *67
 40000000 000000303243 SSER           *67
 40000000 000000303244 SSER1          *67
 40000000 000000000002 SSH            *67
 40000000 000000000005 SSNAM          *67
 40000000 000000210573 SSNF           *67
 40000000 000000210576 SSNV           *67
 40000000 000000000020 SSSPTR         *67
 40000000 000000000010 SSVDT          *67
 40000000 000000000033 SSZTP          *67
 40000000 000000000017 ST             *67
 40000000 000000000104 STBIN          *67
 40000000 000000000105 STDEC          *67
 40000000 000000303302 STE1           *67
 40000000 000000303303 STE2           *67
 40000000 000000210624 STE3           *67
 40000000 000000303305 STE4           *67
 13:02 09/05/97  FILE=ZIM$MISC.:ZIC0TSI       SYMBOL TABLE                                               43   BMAP - B00
 40000000 000000303306 STE5           *67
 41000000 000000000100 STKSIZ         *67
 40000000 000000000055 STMASK         *67
 41000000 000000000062 SUST           *67       123       131
 41000000 000000000020 SWS            *67
 40000000 000000000000 SWSAC          *67
 40000000 000000000002 SWSZ           *67
 40000000 000000000000 SYSSF          *67
 40000000 000000000765 SZREQ          *67
 40000000 000000000004 TBUF           *67
 40000000 000000001061 TCTRS          *67
 60000000 000000000000 TDS            *67
 41000000 000000000113 TEMP           *67
 40000000 000000000640 TFLD           *67
 40000000 000000000657 TFLD2          *67
 40000000 000000000056 TMASK          *67
 40000000 000000000061 TMODE          *67
 40000000 000000000676 TMPPA          *67
 40000000 000000000003 TPAI           *67
 40000000 000000500000 TPRCOD         *67
 40000000 000000001031 TSFN           *67
 40000000 000000000021 TSI            *67
 40000000 000000001013 UBRD2          *67
 41000000 000000001223 UBSZ           *67
 40000000 000000000667 UCADR          *67
 40000000 000000000036 UCRS           *67
 40000000 000000000024 UFSPK          *67
 40000000 000000000024 UFSPK2         *67
 40000000 000000000715 ULIM           *67
 40000000 000000004230 UNA            *67
 40000000 000000303417 UNIM           *67
 40000000 000000000002 UOFST          *67
 40000000 000000001035 UPACD          *67
 40000000 000000000721 UPACW          *67
 40000000 000000000007 UPFLAG         *67
 40000000 000000000103 UPPAI          *67
 46101000 000000000253 UPT$            46      *382
 13:02 09/05/97  FILE=ZIM$MISC.:ZIC0TSI       SYMBOL TABLE                                               44   BMAP - B00
 40000000 000000000004 UPTSID         *66
 40000000 000000000674 USTAT          *67
 46101000 000000000251 UWA$            44      *380
 40000000 000000000002 UWASID         *66
 40000000 000000000002 UWSSZ          *67
 40000000 000000000020 UWSZ           *67
 40000000 000000000243 VFDSC          *67
 40000000 000000001070 VFDSR          *67
 40000000 000000000656 VFLD           *67
 40000000 000000001074 VFLNG          *67
 40000000 000000001124 VIB1           *67
 40000000 000000001154 VIBP           *67
 46101000 000000000247 VLP$            42      *378
 40000000 000000000000 VLPSID         *66
 40000000 000000001074 VRSIZ          *67
 40000000 000000001067 WLOA           *67
 40000000 000000100000 WRTI           *67
 40000000 000000000000 WSBID          *67
 40000000 000000000003 WSOF           *67
 41000000 000000000000 X0             *66        92       108       109       133       134       152
                                      167       186       210       212       213       220       226
                                      228       229       295       296
 41000000 000000000001 X1             *66       173       190
 40000000 000000000002 X2             *66
 40000000 000000000003 X3             *66
 41000000 000000000004 X4             *66        93       110       111       135       136       153
                                      168       187
 40000000 000000000005 X5             *66
 41000000 000000000006 X6             *66        94       112       113       137       138       154
                                      169       188
 03201000 000000000000 X66_AALT       *65        90        98       120       141
 03201002 000000000000 X66_ARET       *66       156       357
 03201001 000000000000 X66_AUTO_0     *66       355
 41000000 000000000007 X7             *66        95       114       115       139       140       155
                                      170       189
 40000000 000000210665 XASL           *67
 40000000 000000303420 XLD            *67
 13:02 09/05/97  FILE=ZIM$MISC.:ZIC0TSI       SYMBOL TABLE                                               45   BMAP - B00
 40000000 000000303421 XPD            *67
 40000000 000000000676 XPRS           *67
 40000000 000000210666 XROLL          *67
 40000000 000000210664 XUNEX          *67
 40000000 777777777777 XXDPN          *67
 12101000 000000000207 ZIB$CLRRECOVER            24      *303
 13101000 000000000005 ZIB$DBALT       15       *88       122
 12101000 000000000043 ZIB$DBALTO      17      *130
 12101000 000000000017 ZIB$DBALTR      16      *103
 12101000 000000000056 ZIB$DBEXC       18      *147
 13101000 000000000114 ZIB$ERR         25        97       172      *196
 12101000 000000000003 ZIB$FIXPR5      26       *77
 12101000 000000000000 ZIB$FIXREGS     14       *73
 12101000 000000000203 ZIB$FPTRECOVER            23      *293
 12101000 000000000067 ZIB$ICALT       19      *163
 12101000 000000000102 ZIB$ICEXC       20      *181
 12101000 000000000162 ZIB$SEGDECODE   22      *268
 12101000 000000000147 ZIB$SEGSIZE     21      *242
 12101000 000000000117 ZIM$ICKSM       27      *207
 12101000 000000000130 ZIM$ICKSMJ      27      *217
 12101000 000000000212 ZIM$LKMAP       28      *316
 12101000 000000000226 ZIM$MRL_SHIFT   29      *330
 12101000 000000000240 ZIM$RESAUTO     30      *348

     967 SYMBOLS

 13:02 09/05/97  FILE=ZIM$MISC.:ZIC0TSI       MACRO TABLE                                                46   BMAP - B00
 CBSYM           67
 Q2SYM           67
 SSSYM           67

      37 MACROS

    SYMBOL SPACE USED  9464 WORDS
     MACRO SPACE USED 13043 WORDS
   INPUT RECORDS READ  2568
 STATEMENTS PROCESSED  2162
         ELAPSED TIME  0:11.28
             CPU TIME    10.77 SEC.
        ASSEMBLY RATE 12045 STATEMENTS/CPU MIN.

      NO ERRORS

