
PL6.E3A0      #001=ZID$MOVN File=ZIM$MOVN.:ZIC0TSI                               FRI 09/05/97 13:03 Page:1
        1        1        /*M*   ZID$MOVN - move names to special registers
        2        2        */
        3        3        /*T***********************************************************/
        4        4        /*T*                                                         */
        5        5        /*T* Copyright (c) Bull HN Information Systems Inc., 1997    */
        6        6        /*T*                                                         */
        7        7        /*T***********************************************************/
        8        8        /*P*   NAME:   ZID$MOVN
        9        9               PURPOSE:  To provide the user with names corresponding to
       10       10                         recently accessed information by the dbcs.
       11       11        */
       12       12        /*D*   NAME:   ZID$MOVN
       13       13               CALL:   Call ZID$MOVN
       14       14               INTERFACE:  ZID$MOVN does not call any external routines.
       15       15                 INPUT:   GLOBAL.RET.AC# - AC offset
       16       16                          GLOBAL.RET.RC# - RC offset
       17       17                          GLOBAL.RET.SC# - SC offset
       18       18                          GLOBAL.RET.FR# - FR offset
       19       19               DESCRIPTION:  This routine moves names from the sss that
       20       20                             correspond with the input items to the uwa.
       21       21                             Uwa items for input not in correspondence
       22       22                             with the sss will be blank filled.
       23       23               OUTPUT:  UWA.DBAN - area name.
       24       24                        UWA.DBSN - set name.
       25       25                        UWA.DBRN - record name.
       26       26                        UWA.DBFN - field name.
       27       27                        UWA.DBKYN - key name (if calc set).
       28       28        */
       29       29        %EJECT;
PL6.E3A0      #001=ZID$MOVN File=ZIM$MOVN.:ZIC0TSI                               FRI 09/05/97 13:03 Page:2
       30       30        ZID$MOVN: PROC
       31       31               AVOID ($PR5, $PR6, $PR7);
       32       32        %INCLUDE ZI$GLOBAL;
       33      518            %GLOBALS;
       34      826        %INCLUDE ZI$SSS;
       35     1375            %OA1;
       36     1383            %AC;
       37     1478            %RC;
       38     1510            %SC;
       39     1537            %FR;
       40     1583        %INCLUDE ZI$USER;
       41     1728            %UWA;
       42     1755    1   DCL DISPL UBIN(36) ALIGNED;
       43     1756        %EJECT;
PL6.E3A0      #001=ZID$MOVN File=ZIM$MOVN.:ZIC0TSI                               FRI 09/05/97 13:03 Page:3
       44     1757    1       IF GLOBAL.ACTIVE.DBNO=0 THEN
       45     1758    1           RETURN;
       46     1759    1       SSS$=GLOBAL.ACTIVE.SSS$;
       47     1760        /*
       48     1761            Move area name to UWA.DBAN.
       49     1762        */
       50     1763    1       AC$ = PINCRW(SSS$,SIZEW(OA1));
       51     1764    1       DISPL = SIZEW(OA1);
       52     1765    2       DO WHILE ( AC.OAACN ~= 0 );
       53     1766    2           DISPL = AC.OAACN;
       54     1767    2           AC$ = PINCRW(SSS$,DISPL);
       55     1768    2           IF GLOBAL.RET.AC#=DISPL
       56     1769    3           THEN DO;
       57     1770    3               UWA.DBAN = AC.ANAM;
       58     1771    3               GOTO SCCHK;
       59     1772    3               END;
       60     1773    2           END;
       61     1774    1       UWA.DBAN = ' ';
       62     1775        /*
       63     1776            Move set name to UWA.DBSN.
       64     1777        */
       65     1778    1   SCCHK:
       66     1779    1       SC$ = PINCRW(SSS$,SIZEW(OA1));
       67     1780    1       DISPL = SIZEW(OA1);
       68     1781    2       DO WHILE ( SC.OASCN ~= 0 );
       69     1782    2           DISPL = SC.OASCN;
       70     1783    2           SC$ = PINCRW(SSS$,DISPL);
       71     1784    2           IF GLOBAL.RET.SC#=DISPL
       72     1785    3           THEN DO;
       73     1786    3               UWA.DBSN = SC.SNAM;
       74     1787    3               GOTO CALCCHK;
       75     1788    3               END;
       76     1789    2           END;
       77     1790    1       UWA.DBSN = ' ';
       78     1791        /*
       79     1792            Move key name to UWA.DBKYN.
       80     1793        */
PL6.E3A0      #001=ZID$MOVN File=ZIM$MOVN.:ZIC0TSI                               FRI 09/05/97 13:03 Page:4
       81     1794    1   CALCCHK:
       82     1795    1       IF ( SC.DEF.SETT = CALC_SET )
       83     1796    1       THEN
       84     1797    1           UWA.DBKYN = UWA.DBSN;
       85     1798    1       ELSE
       86     1799    1           UWA.DBKYN = ' ';
       87     1800        /*
       88     1801            Move record name to UWA.DBRN.
       89     1802        */
       90     1803    1       RC$ = PINCRW(SSS$,SIZEW(OA1));
       91     1804    1       DISPL = SIZEW(OA1);
       92     1805    1       UWA.DBFN = ' '; /* initialize field name */
       93     1806    2       DO WHILE ( RC.OARCN ~= 0 );
       94     1807    2           DISPL = RC.OARCN;
       95     1808    2           RC$ = PINCRW(SSS$,DISPL);
       96     1809    2           IF GLOBAL.RET.RC#=DISPL
       97     1810    3           THEN DO;
       98     1811        /*
       99     1812            Move field name to UWA.DBFN.
      100     1813        */
      101     1814    3               UWA.DBRN = RC.RNAM;
      102     1815    3               FR$ = RC$;
      103     1816    4               DO WHILE ( FR.RCFRN ~= 0 );
      104     1817    4                   DISPL = FR.RCFRN;
      105     1818    4                   IF GLOBAL.RET.FR#=DISPL
      106     1819    5                   THEN DO;
      107     1820    5                       UWA.DBFN = FR.FNAM;
      108     1821    5                       RETURN;
      109     1822    5                       END;
      110     1823    4                   FR$ = PINCRW(SSS$,DISPL);
      111     1824    4                   END;
      112     1825    3               RETURN;
      113     1826    3               END;
      114     1827    2           END;
      115     1828    1       UWA.DBRN = ' ';
      116     1829    1       RETURN;
      117     1830    1   END ZID$MOVN;
PL6.E3A0      #001=ZID$MOVN File=ZIM$MOVN.:ZIC0TSI                               FRI 09/05/97 13:03 Page:5

PL6.E3A0      #001=ZID$MOVN File=ZIM$MOVN.:ZIC0TSI                               FRI 09/05/97 13:03 Page:6
--  Include file information  --

   ZI$USER.:ZIC0TOU  is referenced.
   ZI$SSS.:ZIC0TOU  cannot be made into a system file and is referenced.
   ZI$GLOBAL.:ZIC0TOU  is referenced.
   B$JIT_C.:E05TOU  was found in the system file and is never referenced.
   CP_6_C.:E05TOU  was found in the system file and is never referenced.
      No diagnostics issued in procedure ZID$MOVN.

   Procedure ZID$MOVN requires 152 words for executable code.
   Procedure ZID$MOVN requires 10 words of local(AUTO) storage.

    No errors detected in file ZIM$MOVN.:ZIC0TSI    .

PL6.E3A0      #001=ZID$MOVN File=ZIM$MOVN.:ZIC0TSI                               FRI 09/05/97 13:03 Page:7

 Object Unit name= ZID$MOVN                                   File name= ZIM$MOVN.:ZIC0TOU
 UTS= SEP 05 '97 13:03:05.28 FRI                              Compiler= PL-6/E31         Sev=      00
 SharedLib= :SHARED_SYSTEM                                    Alt SharedLib=


    ****  Control sections  ****

 Sect   Type Bound  Init  Size OctSiz  Section name(segment info)
    0   Proc  even  none   152    230  ZID$MOVN
    1  RoData even  none     2      2  ZID$MOVN

    ****  Entry defs  ****

                              Check   Calling
                             calling  sequence
  Sect OctLoc Primary Altret sequence   type   Parms  Name
     0      0   yes            yes      XStd       0  ZID$MOVN

  ****  Entry refs  ****

         Check        Calling
        calling       sequence
Altret sequence SRef   type   Args  Name
                       nStd      0 X66_AUTO_0
                       nStd      0 X66_ARET

  ****  Data refs  ****

  Flags:  r = read only, s = secondary
Flgs Name                             Flgs Name                             Flgs Name
r    GLOBAL$                               UWA$
PL6.E3A0      #001=ZID$MOVN File=ZIM$MOVN.:ZIC0TSI                               FRI 09/05/97 13:03 Page:8

  ****  Segment refs  ****

  Flags:  r = read only, s = secondary
Flgs Name                             Flgs Name                             Flgs Name
     NULLSID
PL6.E3A0      #001=ZID$MOVN File=ZIM$MOVN.:ZIC0TSI                               FRI 09/05/97 13:03 Page:9


        1        1        /*M*   ZID$MOVN - move names to special registers
        2        2        */
        3        3        /*T***********************************************************/
        4        4        /*T*                                                         */
        5        5        /*T* Copyright (c) Bull HN Information Systems Inc., 1997    */
        6        6        /*T*                                                         */
        7        7        /*T***********************************************************/
        8        8        /*P*   NAME:   ZID$MOVN
        9        9               PURPOSE:  To provide the user with names corresponding to
       10       10                         recently accessed information by the dbcs.
       11       11        */
       12       12        /*D*   NAME:   ZID$MOVN
       13       13               CALL:   Call ZID$MOVN
       14       14               INTERFACE:  ZID$MOVN does not call any external routines.
       15       15                 INPUT:   GLOBAL.RET.AC# - AC offset
       16       16                          GLOBAL.RET.RC# - RC offset
       17       17                          GLOBAL.RET.SC# - SC offset
       18       18                          GLOBAL.RET.FR# - FR offset
       19       19               DESCRIPTION:  This routine moves names from the sss that
       20       20                             correspond with the input items to the uwa.
       21       21                             Uwa items for input not in correspondence
       22       22                             with the sss will be blank filled.
       23       23               OUTPUT:  UWA.DBAN - area name.
       24       24                        UWA.DBSN - set name.
       25       25                        UWA.DBRN - record name.
       26       26                        UWA.DBFN - field name.
       27       27                        UWA.DBKYN - key name (if calc set).
       28       28        */
       29       29        %EJECT;
PL6.E3A0      #001=ZID$MOVN File=ZIM$MOVN.:ZIC0TSI                               FRI 09/05/97 13:03 Page:10
       30       30        ZID$MOVN: PROC

     30  0 000000   000000 700200 xent  ZID$MOVN     TSX0  ! X66_AUTO_0
         0 000001   000012 000000                    ZERO    10,0

       31       31               AVOID ($PR5, $PR6, $PR7);
       32       32        %INCLUDE ZI$GLOBAL;
       33      518            %GLOBALS;
       34      826        %INCLUDE ZI$SSS;
       35     1375            %OA1;
       36     1383            %AC;
       37     1478            %RC;
       38     1510            %SC;
       39     1537            %FR;
       40     1583        %INCLUDE ZI$USER;
       41     1728            %UWA;
       42     1755    1   DCL DISPL UBIN(36) ALIGNED;
       43     1756        %EJECT;
PL6.E3A0      #001=ZID$MOVN File=ZIM$MOVN.:ZIC0TSI                               FRI 09/05/97 13:03 Page:11
       44     1757    1       IF GLOBAL.ACTIVE.DBNO=0 THEN

   1757  0 000002   000000 470400 xsym               LDP0    GLOBAL$
         0 000003   000002 235100                    LDA     2,,PR0
         0 000004   000006 601000 0                  TNZ     s:1759

       45     1758    1           RETURN;

   1758  0 000005   000000 702200 xent               TSX2  ! X66_ARET

       46     1759    1       SSS$=GLOBAL.ACTIVE.SSS$;

   1759  0 000006   000000 236100                    LDQ     0,,PR0
         0 000007   200003 756100                    STQ     SSS$,,AUTO

       47     1760        /*
       48     1761            Move area name to UWA.DBAN.
       49     1762        */
       50     1763    1       AC$ = PINCRW(SSS$,SIZEW(OA1));

   1763  0 000010   000001 036003                    ADLQ    1,DU
         0 000011   200005 756100                    STQ     AC$,,AUTO

       51     1764    1       DISPL = SIZEW(OA1);

   1764  0 000012   000001 235007                    LDA     1,DL
         0 000013   200011 755100                    STA     DISPL,,AUTO

       52     1765    2       DO WHILE ( AC.OAACN ~= 0 );

   1765  0 000014   200005 471500                    LDP1    AC$,,AUTO
         0 000015   100001 220100                    LDX0    1,,PR1
         0 000016   000045 600000 0                  TZE     s:1774

       53     1766    2           DISPL = AC.OAACN;

   1766  0 000017   200005 470500                    LDP0    AC$,,AUTO
PL6.E3A0      #001=ZID$MOVN File=ZIM$MOVN.:ZIC0TSI                               FRI 09/05/97 13:03 Page:12
         0 000020   000001 236100                    LDQ     1,,PR0
         0 000021   000022 772000                    QRL     18
         0 000022   200011 756100                    STQ     DISPL,,AUTO

       54     1767    2           AC$ = PINCRW(SSS$,DISPL);

   1767  0 000023   000022 736000                    QLS     18
         0 000024   200003 036100                    ADLQ    SSS$,,AUTO
         0 000025   200005 756100                    STQ     AC$,,AUTO

       55     1768    2           IF GLOBAL.RET.AC#=DISPL

   1768  0 000026   000000 470400 xsym               LDP0    GLOBAL$
         0 000027   000010 236100                    LDQ     8,,PR0
         0 000030   200011 116100                    CMPQ    DISPL,,AUTO
         0 000031   000042 601000 0                  TNZ     s:1773

       56     1769    3           THEN DO;

       57     1770    3               UWA.DBAN = AC.ANAM;

   1770  0 000032   200005 471500                    LDP1    AC$,,AUTO
         0 000033   100000 720100                    LXL0    0,,PR1
         0 000034   000077 360003                    ANX0    63,DU
         0 000035   000000 473400 xsym               LDP3    UWA$
         0 000036   040100 100540                    MLR     fill='040'O
         0 000037   100026 000010                    ADSC9   22,,PR1                  cn=0,n=*X0
         0 000040   300003 000036                    ADSC9   3,,PR3                   cn=0,n=30

       58     1771    3               GOTO SCCHK;

   1771  0 000041   000051 710000 0                  TRA     SCCHK

       59     1772    3               END;
       60     1773    2           END;

   1773  0 000042   200005 471500                    LDP1    AC$,,AUTO
PL6.E3A0      #001=ZID$MOVN File=ZIM$MOVN.:ZIC0TSI                               FRI 09/05/97 13:03 Page:13
         0 000043   100001 220100                    LDX0    1,,PR1
         0 000044   000017 601000 0                  TNZ     s:1766

       61     1774    1       UWA.DBAN = ' ';

   1774  0 000045   000000 473400 xsym               LDP3    UWA$
         0 000046   040100 100400                    MLR     fill='040'O
         0 000047   000001 000001 1                  ADSC9   1                        cn=0,n=1
         0 000050   300003 000036                    ADSC9   3,,PR3                   cn=0,n=30

       62     1775        /*
       63     1776            Move set name to UWA.DBSN.
       64     1777        */
       65     1778    1   SCCHK:
       66     1779    1       SC$ = PINCRW(SSS$,SIZEW(OA1));

   1779  0 000051   200003 236100       SCCHK        LDQ     SSS$,,AUTO
         0 000052   000001 036003                    ADLQ    1,DU
         0 000053   200007 756100                    STQ     SC$,,AUTO

       67     1780    1       DISPL = SIZEW(OA1);

   1780  0 000054   000001 235007                    LDA     1,DL
         0 000055   200011 755100                    STA     DISPL,,AUTO

       68     1781    2       DO WHILE ( SC.OASCN ~= 0 );

   1781  0 000056   200007 474500                    LDP4    SC$,,AUTO
         0 000057   400001 720100                    LXL0    1,,PR4
         0 000060   000107 600000 0                  TZE     s:1790

       69     1782    2           DISPL = SC.OASCN;

   1782  0 000061   200007 470500                    LDP0    SC$,,AUTO
         0 000062   000001 236100                    LDQ     1,,PR0
         0 000063   777777 376007                    ANQ     -1,DL
         0 000064   200011 756100                    STQ     DISPL,,AUTO
PL6.E3A0      #001=ZID$MOVN File=ZIM$MOVN.:ZIC0TSI                               FRI 09/05/97 13:03 Page:14

       70     1783    2           SC$ = PINCRW(SSS$,DISPL);

   1783  0 000065   000022 736000                    QLS     18
         0 000066   200003 036100                    ADLQ    SSS$,,AUTO
         0 000067   200007 756100                    STQ     SC$,,AUTO

       71     1784    2           IF GLOBAL.RET.SC#=DISPL

   1784  0 000070   000000 470400 xsym               LDP0    GLOBAL$
         0 000071   000012 236100                    LDQ     10,,PR0
         0 000072   200011 116100                    CMPQ    DISPL,,AUTO
         0 000073   000104 601000 0                  TNZ     s:1789

       72     1785    3           THEN DO;

       73     1786    3               UWA.DBSN = SC.SNAM;

   1786  0 000074   200007 471500                    LDP1    SC$,,AUTO
         0 000075   100000 720100                    LXL0    0,,PR1
         0 000076   000077 360003                    ANX0    63,DU
         0 000077   000000 473400 xsym               LDP3    UWA$
         0 000100   040100 100540                    MLR     fill='040'O
         0 000101   100003 000010                    ADSC9   3,,PR1                   cn=0,n=*X0
         0 000102   300013 000036                    ADSC9   11,,PR3                  cn=0,n=30

       74     1787    3               GOTO CALCCHK;

   1787  0 000103   000113 710000 0                  TRA     CALCCHK

       75     1788    3               END;
       76     1789    2           END;

   1789  0 000104   200007 471500                    LDP1    SC$,,AUTO
         0 000105   100001 720100                    LXL0    1,,PR1
         0 000106   000061 601000 0                  TNZ     s:1782

PL6.E3A0      #001=ZID$MOVN File=ZIM$MOVN.:ZIC0TSI                               FRI 09/05/97 13:03 Page:15
       77     1790    1       UWA.DBSN = ' ';

   1790  0 000107   000000 471400 xsym               LDP1    UWA$
         0 000110   040100 100400                    MLR     fill='040'O
         0 000111   000001 000001 1                  ADSC9   1                        cn=0,n=1
         0 000112   100013 000036                    ADSC9   11,,PR1                  cn=0,n=30

       78     1791        /*
       79     1792            Move key name to UWA.DBKYN.
       80     1793        */
       81     1794    1   CALCCHK:
       82     1795    1       IF ( SC.DEF.SETT = CALC_SET )

   1795  0 000113   200007 471500       CALCCHK      LDP1    SC$,,AUTO
         0 000114   100000 236100                    LDQ     0,,PR1
         0 000115   000700 376007                    ANQ     448,DL
         0 000116   000100 116007                    CMPQ    64,DL
         0 000117   000125 601000 0                  TNZ     s:1799

       83     1796    1       THEN
       84     1797    1           UWA.DBKYN = UWA.DBSN;

   1797  0 000120   000000 473400 xsym               LDP3    UWA$
         0 000121   040100 100500                    MLR     fill='040'O
         0 000122   300013 000036                    ADSC9   11,,PR3                  cn=0,n=30
         0 000123   300047 000036                    ADSC9   39,,PR3                  cn=0,n=30
         0 000124   000131 710000 0                  TRA     s:1803

       85     1798    1       ELSE
       86     1799    1           UWA.DBKYN = ' ';

   1799  0 000125   000000 473400 xsym               LDP3    UWA$
         0 000126   040100 100400                    MLR     fill='040'O
         0 000127   000001 000001 1                  ADSC9   1                        cn=0,n=1
         0 000130   300047 000036                    ADSC9   39,,PR3                  cn=0,n=30

       87     1800        /*
PL6.E3A0      #001=ZID$MOVN File=ZIM$MOVN.:ZIC0TSI                               FRI 09/05/97 13:03 Page:16
       88     1801            Move record name to UWA.DBRN.
       89     1802        */
       90     1803    1       RC$ = PINCRW(SSS$,SIZEW(OA1));

   1803  0 000131   200003 236100                    LDQ     SSS$,,AUTO
         0 000132   000001 036003                    ADLQ    1,DU
         0 000133   200006 756100                    STQ     RC$,,AUTO

       91     1804    1       DISPL = SIZEW(OA1);

   1804  0 000134   000001 235007                    LDA     1,DL
         0 000135   200011 755100                    STA     DISPL,,AUTO

       92     1805    1       UWA.DBFN = ' '; /* initialize field name */

   1805  0 000136   040100 100400                    MLR     fill='040'O
         0 000137   000001 000001 1                  ADSC9   1                        cn=0,n=1
         0 000140   300037 000036                    ADSC9   31,,PR3                  cn=0,n=30

       93     1806    2       DO WHILE ( RC.OARCN ~= 0 );

   1806  0 000141   200006 474500                    LDP4    RC$,,AUTO
         0 000142   400002 220100                    LDX0    2,,PR4
         0 000143   000223 600000 0                  TZE     s:1828

       94     1807    2           DISPL = RC.OARCN;

   1807  0 000144   200006 470500                    LDP0    RC$,,AUTO
         0 000145   000002 236100                    LDQ     2,,PR0
         0 000146   000022 772000                    QRL     18
         0 000147   200011 756100                    STQ     DISPL,,AUTO

       95     1808    2           RC$ = PINCRW(SSS$,DISPL);

   1808  0 000150   000022 736000                    QLS     18
         0 000151   200003 036100                    ADLQ    SSS$,,AUTO
         0 000152   200006 756100                    STQ     RC$,,AUTO
PL6.E3A0      #001=ZID$MOVN File=ZIM$MOVN.:ZIC0TSI                               FRI 09/05/97 13:03 Page:17

       96     1809    2           IF GLOBAL.RET.RC#=DISPL

   1809  0 000153   000000 470400 xsym               LDP0    GLOBAL$
         0 000154   000013 236100                    LDQ     11,,PR0
         0 000155   200011 116100                    CMPQ    DISPL,,AUTO
         0 000156   000220 601000 0                  TNZ     s:1827

       97     1810    3           THEN DO;

       98     1811        /*
       99     1812            Move field name to UWA.DBFN.
      100     1813        */
      101     1814    3               UWA.DBRN = RC.RNAM;

   1814  0 000157   200006 471500                    LDP1    RC$,,AUTO
         0 000160   100000 720100                    LXL0    0,,PR1
         0 000161   000077 360003                    ANX0    63,DU
         0 000162   000000 473400 xsym               LDP3    UWA$
         0 000163   040100 100540                    MLR     fill='040'O
         0 000164   100005 000010                    ADSC9   5,,PR1                   cn=0,n=*X0
         0 000165   300023 000036                    ADSC9   19,,PR3                  cn=0,n=30

      102     1815    3               FR$ = RC$;

   1815  0 000166   200006 236100                    LDQ     RC$,,AUTO
         0 000167   200010 756100                    STQ     FR$,,AUTO

      103     1816    4               DO WHILE ( FR.RCFRN ~= 0 );

   1816  0 000170   200010 474500                    LDP4    FR$,,AUTO
         0 000171   400004 720100                    LXL0    4,,PR4
         0 000172   000217 600000 0                  TZE     s:1825

      104     1817    4                   DISPL = FR.RCFRN;

   1817  0 000173   200010 470500                    LDP0    FR$,,AUTO
PL6.E3A0      #001=ZID$MOVN File=ZIM$MOVN.:ZIC0TSI                               FRI 09/05/97 13:03 Page:18
         0 000174   000004 236100                    LDQ     4,,PR0
         0 000175   777777 376007                    ANQ     -1,DL
         0 000176   200011 756100                    STQ     DISPL,,AUTO

      105     1818    4                   IF GLOBAL.RET.FR#=DISPL

   1818  0 000177   000000 471400 xsym               LDP1    GLOBAL$
         0 000200   100011 116100                    CMPQ    9,,PR1
         0 000201   000211 601000 0                  TNZ     s:1823

      106     1819    5                   THEN DO;

      107     1820    5                       UWA.DBFN = FR.FNAM;

   1820  0 000202   000004 220100                    LDX0    4,,PR0
         0 000203   000077 360003                    ANX0    63,DU
         0 000204   000000 473400 xsym               LDP3    UWA$
         0 000205   040100 100540                    MLR     fill='040'O
         0 000206   000006 000010                    ADSC9   6,,PR0                   cn=0,n=*X0
         0 000207   300037 000036                    ADSC9   31,,PR3                  cn=0,n=30

      108     1821    5                       RETURN;

   1821  0 000210   000000 702200 xent               TSX2  ! X66_ARET

      109     1822    5                       END;
      110     1823    4                   FR$ = PINCRW(SSS$,DISPL);

   1823  0 000211   000022 736000                    QLS     18
         0 000212   200003 036100                    ADLQ    SSS$,,AUTO
         0 000213   200010 756100                    STQ     FR$,,AUTO

      111     1824    4                   END;

   1824  0 000214   200010 470500                    LDP0    FR$,,AUTO
         0 000215   000004 720100                    LXL0    4,,PR0
         0 000216   000173 601000 0                  TNZ     s:1817
PL6.E3A0      #001=ZID$MOVN File=ZIM$MOVN.:ZIC0TSI                               FRI 09/05/97 13:03 Page:19

      112     1825    3               RETURN;

   1825  0 000217   000000 702200 xent               TSX2  ! X66_ARET

      113     1826    3               END;
      114     1827    2           END;

   1827  0 000220   200006 471500                    LDP1    RC$,,AUTO
         0 000221   100002 220100                    LDX0    2,,PR1
         0 000222   000144 601000 0                  TNZ     s:1807

      115     1828    1       UWA.DBRN = ' ';

   1828  0 000223   000000 471400 xsym               LDP1    UWA$
         0 000224   040100 100400                    MLR     fill='040'O
         0 000225   000001 000001 1                  ADSC9   1                        cn=0,n=1
         0 000226   100023 000036                    ADSC9   19,,PR1                  cn=0,n=30

      116     1829    1       RETURN;

   1829  0 000227   000000 702200 xent               TSX2  ! X66_ARET

(unnamed)
 Sect OctLoc
   1     000   000000 006014   040040 040040                                    ....
      117     1830    1   END ZID$MOVN;

PL6.E3A0      #001=ZID$MOVN File=ZIM$MOVN.:ZIC0TSI                               FRI 09/05/97 13:03 Page:20
--  Include file information  --

   ZI$USER.:ZIC0TOU  is referenced.
   ZI$SSS.:ZIC0TOU  cannot be made into a system file and is referenced.
   ZI$GLOBAL.:ZIC0TOU  is referenced.
   B$JIT_C.:E05TOU  was found in the system file and is never referenced.
   CP_6_C.:E05TOU  was found in the system file and is never referenced.
      No diagnostics issued in procedure ZID$MOVN.

   Procedure ZID$MOVN requires 152 words for executable code.
   Procedure ZID$MOVN requires 10 words of local(AUTO) storage.

    No errors detected in file ZIM$MOVN.:ZIC0TSI    .
PL6.E3A0      #001=ZID$MOVN File=ZIM$MOVN.:ZIC0TSI                               FRI 09/05/97 13:03 Page:21
          *** CROSS REFERENCE LISTING ***
**     DENOTES     IDENTIFIER DEFINITION
<<                 IDENTIFIER'S VALUE SET
>>                 IDENTIFIER'S VALUE USED
<>                 IDENTIFIER SET AND/OR USED
--                 IDENTIFIER REFERENCED
PL6.E3A0      #001=ZID$MOVN File=ZIM$MOVN.:ZIC0TSI                               FRI 09/05/97 13:03 Page:22
          MINI XREF LISTING

AC.ANAM
      1474**DCL      1770>>ASSIGN
AC.DEF.ANL
      1403**DCL      1474--IMP-SIZ  1770>>ASSIGN
AC.DEF.FORG
      1390**DCL      1394--REDEF
AC.OAACN
      1404**DCL      1765>>DOWHILE  1766>>ASSIGN
AC$
      1386**DCL      1387--IMP-PTR  1763<<ASSIGN   1765>>DOWHILE  1766>>ASSIGN   1767<<ASSIGN   1770>>ASSIGN
      1770>>ASSIGN
CALCCHK
      1795**LABEL    1787--GOTO
DISPL
      1755**DCL      1764<<ASSIGN   1766<<ASSIGN   1767>>ASSIGN   1768>>IF       1780<<ASSIGN   1782<<ASSIGN
      1783>>ASSIGN   1784>>IF       1804<<ASSIGN   1807<<ASSIGN   1808>>ASSIGN   1809>>IF       1817<<ASSIGN
      1818>>IF       1823>>ASSIGN
FR.FNAM
      1580**DCL      1820>>ASSIGN
FR.FNL
      1576**DCL      1580--IMP-SIZ  1820>>ASSIGN
FR.RCFRN
      1577**DCL      1816>>DOWHILE  1817>>ASSIGN
FR.UOFST.EIS.OFFSET
      1566**DCL      1569--REDEF
FR$
      1540**DCL      1541--IMP-PTR  1815<<ASSIGN   1816>>DOWHILE  1817>>ASSIGN   1820>>ASSIGN   1820>>ASSIGN
      1823<<ASSIGN
GLOBAL.ACTIVE.DBCB$
       525**DCL       526--REDEF
GLOBAL.ACTIVE.DBNO
       529**DCL      1757>>IF
PL6.E3A0      #001=ZID$MOVN File=ZIM$MOVN.:ZIC0TSI                               FRI 09/05/97 13:03 Page:23
GLOBAL.ACTIVE.SSS$
       521**DCL       522--REDEF    1759>>ASSIGN
GLOBAL.KEY
       729**DCL       732--REDEF
GLOBAL.PARAN.TRACE.MODE
       604**DCL       611--REDEF
GLOBAL.PRINTBUF.BUFFER
       763**DCL       764--REDEF     765--REDEF     766--REDEF
GLOBAL.PRINTBUF.ERR.V
       768**DCL       771--REDEF     772--REDEF     773--REDEF
GLOBAL.RET.AC#
       541**DCL      1768>>IF
GLOBAL.RET.FR#
       542**DCL      1818>>IF
GLOBAL.RET.RC#
       544**DCL      1809>>IF
GLOBAL.RET.SC#
       543**DCL      1784>>IF
GLOBAL$
       823**DCL       519--IMP-PTR  1757>>IF       1759>>ASSIGN   1768>>IF       1784>>IF       1809>>IF
      1818>>IF
OA1
      1378**DCL      1763--ASSIGN   1764--ASSIGN   1779--ASSIGN   1780--ASSIGN   1803--ASSIGN   1804--ASSIGN
OA1$
      1377**DCL      1378--IMP-PTR
RC.DEF.RNL
      1497**DCL      1507--IMP-SIZ  1814>>ASSIGN
RC.OARCN
      1500**DCL      1806>>DOWHILE  1807>>ASSIGN
RC.RNAM
      1507**DCL      1814>>ASSIGN
RC$
      1481**DCL      1482--IMP-PTR  1803<<ASSIGN   1806>>DOWHILE  1807>>ASSIGN   1808<<ASSIGN   1814>>ASSIGN
      1814>>ASSIGN   1815>>ASSIGN
SC.DEF.SETT
      1525**DCL      1795>>IF
PL6.E3A0      #001=ZID$MOVN File=ZIM$MOVN.:ZIC0TSI                               FRI 09/05/97 13:03 Page:24
SC.DEF.SNL
      1526**DCL      1531--IMP-SIZ  1786>>ASSIGN
SC.OASCN
      1528**DCL      1781>>DOWHILE  1782>>ASSIGN
SC.SNAM
      1531**DCL      1786>>ASSIGN
SC$
      1513**DCL      1514--IMP-PTR  1779<<ASSIGN   1781>>DOWHILE  1782>>ASSIGN   1783<<ASSIGN   1786>>ASSIGN
      1786>>ASSIGN   1795>>IF
SCCHK
      1779**LABEL    1771--GOTO
SSS$
       833**DCL      1759<<ASSIGN   1763>>ASSIGN   1767>>ASSIGN   1779>>ASSIGN   1783>>ASSIGN   1803>>ASSIGN
      1808>>ASSIGN   1823>>ASSIGN
UWA.DBAN
      1739**DCL      1770<<ASSIGN   1774<<ASSIGN
UWA.DBFN
      1747**DCL      1805<<ASSIGN   1820<<ASSIGN
UWA.DBKYN
      1749**DCL      1797<<ASSIGN   1799<<ASSIGN
UWA.DBRN
      1743**DCL      1814<<ASSIGN   1828<<ASSIGN
UWA.DBSN
      1741**DCL      1786<<ASSIGN   1790<<ASSIGN   1797>>ASSIGN
UWA.DBST
      1734**DCL      1735--REDEF
UWA$
      1753**DCL      1732--IMP-PTR  1770>>ASSIGN   1774>>ASSIGN   1786>>ASSIGN   1790>>ASSIGN   1797>>ASSIGN
      1797>>ASSIGN   1799>>ASSIGN   1805>>ASSIGN   1814>>ASSIGN   1820>>ASSIGN   1828>>ASSIGN
