
PL6.E3A0      #001=ZIP$DBPR2 File=ZIM$PRMTV.:ZIC0TSI                             FRI 09/05/97 13:05 Page:1
        1        1        /*M*     ZIP$DBPR2 - find RC and RS through SC-RS set */
        2        2        /*T***********************************************************/
        3        3        /*T*                                                         */
        4        4        /*T* Copyright (c) Bull HN Information Systems Inc., 1997    */
        5        5        /*T*                                                         */
        6        6        /*T***********************************************************/
        7        7        ZIP$DBPR2: PROC ALTRET
        8        8        /*      USE($PR5 FOR GLOBAL$)              */
        9        9               AVOID($PR5,$PR6,$PR7);
       10       10        /*P*       FINDS RC (AND RS) THROUGH SC-RS SET                      */
       11       11        %INCLUDE ZI$GLOBAL;
       12      497            %GLOBALS;
       13      805        %INCLUDE ZI$SSS;
       14     1354            %RC;
       15     1386            %RS;
       16     1462    1       SSS$=GLOBAL.ACTIVE.SSS$;
       17     1463    1       GLOBAL.PARAN.DBPR2.RS=GLOBAL.PARAN.DBPR2.SC;
       18     1464    2       DO WHILE (GLOBAL.PARAN.DBPR2.RS~=0);
       19     1465    2           GLOBAL.PARAN.DBPR2.RS=
       20     1466    2              PINCRW(SSS$,GLOBAL.PARAN.DBPR2.RS)->RS.SCRSN;
       21     1467    2           GLOBAL.PARAN.DBPR2.RC=
       22     1468    2              PINCRW(SSS$,GLOBAL.PARAN.DBPR2.RS)->RS.RCRSH;
       23     1469    2           IF PINCRW(SSS$,GLOBAL.PARAN.DBPR2.RC)->RC.RTYP=
       24     1470    2              GLOBAL.PARAN.DBPR2.TYPE THEN
       25     1471    2               RETURN;
       26     1472    2           END;
       27     1473    1       ALTRETURN;
       28     1474    1   END ZIP$DBPR2;
       29     1475        %EOD;

PL6.E3A0      #001=ZIP$DBPR2 File=ZIM$PRMTV.:ZIC0TSI                             FRI 09/05/97 13:05 Page:2
--  Include file information  --

   ZI$SSS.:ZIC0TOU  cannot be made into a system file and is referenced.
   ZI$GLOBAL.:ZIC0TOU  is referenced.
   B$JIT_C.:E05TOU  was found in the system file and is never referenced.
   CP_6_C.:E05TOU  was found in the system file and is never referenced.
      No diagnostics issued in procedure ZIP$DBPR2.

   Procedure ZIP$DBPR2 requires 26 words for executable code.
   Procedure ZIP$DBPR2 requires 8 words of local(AUTO) storage.

PL6.E3A0      #001=ZIP$DBPR2 File=ZIM$PRMTV.:ZIC0TSI                             FRI 09/05/97 13:05 Page:3

 Object Unit name= ZIP$DBPR2                                  File name= ZIM$PRMTV.:ZIC0TOU
 UTS= SEP 05 '97 13:05:07.80 FRI                              Compiler= PL-6/E31         Sev=      00
 SharedLib= :SHARED_SYSTEM                                    Alt SharedLib=


    ****  Control sections  ****

 Sect   Type Bound  Init  Size OctSiz  Section name(segment info)
    0   Proc  even  none    26     32  ZIP$DBPR2

    ****  Entry defs  ****

                              Check   Calling
                             calling  sequence
  Sect OctLoc Primary Altret sequence   type   Parms  Name
     0      0   yes    yes     yes      XStd       0  ZIP$DBPR2

  ****  Entry refs  ****

         Check        Calling
        calling       sequence
Altret sequence SRef   type   Args  Name
                       nStd      0 X66_AUTO_0
                       nStd      0 X66_ARET
                       nStd      0 X66_AALT

  ****  Data refs  ****

  Flags:  r = read only, s = secondary
Flgs Name                             Flgs Name                             Flgs Name
r    GLOBAL$
PL6.E3A0      #001=ZIP$DBPR2 File=ZIM$PRMTV.:ZIC0TSI                             FRI 09/05/97 13:05 Page:4


        1        1        /*M*     ZIP$DBPR2 - find RC and RS through SC-RS set */
        2        2        /*T***********************************************************/
        3        3        /*T*                                                         */
        4        4        /*T* Copyright (c) Bull HN Information Systems Inc., 1997    */
        5        5        /*T*                                                         */
        6        6        /*T***********************************************************/
        7        7        ZIP$DBPR2: PROC ALTRET

      7  0 000000   000000 700200 xent  ZIP$DBPR2    TSX0  ! X66_AUTO_0
         0 000001   000010 000000                    ZERO    8,0

        8        8        /*      USE($PR5 FOR GLOBAL$)              */
        9        9               AVOID($PR5,$PR6,$PR7);
       10       10        /*P*       FINDS RC (AND RS) THROUGH SC-RS SET                      */
       11       11        %INCLUDE ZI$GLOBAL;
       12      497            %GLOBALS;
       13      805        %INCLUDE ZI$SSS;
       14     1354            %RC;
       15     1386            %RS;
       16     1462    1       SSS$=GLOBAL.ACTIVE.SSS$;

   1462  0 000002   000000 470400 xsym               LDP0    GLOBAL$
         0 000003   000000 236100                    LDQ     0,,PR0
         0 000004   200003 756100                    STQ     SSS$,,AUTO

       17     1463    1       GLOBAL.PARAN.DBPR2.RS=GLOBAL.PARAN.DBPR2.SC;

   1463  0 000005   000041 720100                    LXL0    33,,PR0
         0 000006   000042 740100                    STX0    34,,PR0

       18     1464    2       DO WHILE (GLOBAL.PARAN.DBPR2.RS~=0);

   1464  0 000007   000031 600000 0                  TZE     s:1473

       19     1465    2           GLOBAL.PARAN.DBPR2.RS=

PL6.E3A0      #001=ZIP$DBPR2 File=ZIM$PRMTV.:ZIC0TSI                             FRI 09/05/97 13:05 Page:5
   1465  0 000010   000000 470400 xsym               LDP0    GLOBAL$
         0 000011   000042 220100                    LDX0    34,,PR0
         0 000012   200003 471500                    LDP1    SSS$,,AUTO
         0 000013   100002 221110                    LDX1    2,X0,PR1
         0 000014   000042 741100                    STX1    34,,PR0

       20     1466    2              PINCRW(SSS$,GLOBAL.PARAN.DBPR2.RS)->RS.SCRSN;
       21     1467    2           GLOBAL.PARAN.DBPR2.RC=

   1467  0 000015   100003 220111                    LDX0    3,X1,PR1
         0 000016   000042 440100                    SXL0    34,,PR0

       22     1468    2              PINCRW(SSS$,GLOBAL.PARAN.DBPR2.RS)->RS.RCRSH;
       23     1469    2           IF PINCRW(SSS$,GLOBAL.PARAN.DBPR2.RC)->RC.RTYP=

   1469  0 000017   000041 236100                    LDQ     33,,PR0
         0 000020   000022 772000                    QRL     18
         0 000021   200006 756100                    STQ     RS$+1,,AUTO
         0 000022   100003 236110                    LDQ     3,X0,PR1
         0 000023   007777 376007                    ANQ     4095,DL
         0 000024   200006 116100                    CMPQ    RS$+1,,AUTO
         0 000025   000027 601000 0                  TNZ     s:1472

       24     1470    2              GLOBAL.PARAN.DBPR2.TYPE THEN
       25     1471    2               RETURN;

   1471  0 000026   000000 702200 xent               TSX2  ! X66_ARET

       26     1472    2           END;

   1472  0 000027   000000 101003                    CMPX1   0,DU
         0 000030   000010 601000 0                  TNZ     s:1465

       27     1473    1       ALTRETURN;

   1473  0 000031   000000 702200 xent               TSX2  ! X66_AALT
       28     1474    1   END ZIP$DBPR2;
PL6.E3A0      #001=ZIP$DBPR2 File=ZIM$PRMTV.:ZIC0TSI                             FRI 09/05/97 13:05 Page:6
       29     1475        %EOD;

PL6.E3A0      #001=ZIP$DBPR2 File=ZIM$PRMTV.:ZIC0TSI                             FRI 09/05/97 13:05 Page:7
--  Include file information  --

   ZI$SSS.:ZIC0TOU  cannot be made into a system file and is referenced.
   ZI$GLOBAL.:ZIC0TOU  is referenced.
   B$JIT_C.:E05TOU  was found in the system file and is never referenced.
   CP_6_C.:E05TOU  was found in the system file and is never referenced.
      No diagnostics issued in procedure ZIP$DBPR2.

   Procedure ZIP$DBPR2 requires 26 words for executable code.
   Procedure ZIP$DBPR2 requires 8 words of local(AUTO) storage.
PL6.E3A0      #001=ZIP$DBPR2 File=ZIM$PRMTV.:ZIC0TSI                             FRI 09/05/97 13:05 Page:8
          *** CROSS REFERENCE LISTING ***
**     DENOTES     IDENTIFIER DEFINITION
<<                 IDENTIFIER'S VALUE SET
>>                 IDENTIFIER'S VALUE USED
<>                 IDENTIFIER SET AND/OR USED
--                 IDENTIFIER REFERENCED
PL6.E3A0      #001=ZIP$DBPR2 File=ZIM$PRMTV.:ZIC0TSI                             FRI 09/05/97 13:05 Page:9
          MINI XREF LISTING

GLOBAL.ACTIVE.DBCB$
       504**DCL       505--REDEF
GLOBAL.ACTIVE.SSS$
       500**DCL       501--REDEF    1462>>ASSIGN
GLOBAL.KEY
       708**DCL       711--REDEF
GLOBAL.PARAN.DBPR2.RC
       571**DCL      1467<<ASSIGN   1469>>IF
GLOBAL.PARAN.DBPR2.RS
       570**DCL      1463<<ASSIGN   1464>>DOWHILE  1465<<ASSIGN   1465>>ASSIGN   1467>>ASSIGN
GLOBAL.PARAN.DBPR2.SC
       569**DCL      1463>>ASSIGN
GLOBAL.PARAN.DBPR2.TYPE
       568**DCL      1469>>IF
GLOBAL.PARAN.TRACE.MODE
       583**DCL       590--REDEF
GLOBAL.PRINTBUF.BUFFER
       742**DCL       743--REDEF     744--REDEF     745--REDEF
GLOBAL.PRINTBUF.ERR.V
       747**DCL       750--REDEF     751--REDEF     752--REDEF
GLOBAL$
       802**DCL       498--IMP-PTR  1462>>ASSIGN   1463>>ASSIGN   1463>>ASSIGN   1464>>DOWHILE  1465>>ASSIGN
      1465>>ASSIGN   1467>>ASSIGN   1467>>ASSIGN   1469>>IF       1469>>IF
RC.DEF.RNL
      1373**DCL      1383--IMP-SIZ
RC.RTYP
      1380**DCL      1469>>IF
RC$
      1357**DCL      1358--IMP-PTR
RS.NPOS
      1414**DCL      1423--REDEF
RS.RCRSH
PL6.E3A0      #001=ZIP$DBPR2 File=ZIM$PRMTV.:ZIC0TSI                             FRI 09/05/97 13:05 Page:10
      1412**DCL      1467>>ASSIGN
RS.SCRSN
      1410**DCL      1465>>ASSIGN
RS$
      1388**DCL      1389--IMP-PTR
SSS$
       812**DCL      1462<<ASSIGN   1465>>ASSIGN   1467>>ASSIGN   1469>>IF

PL6.E3A0      #002=ZIM$GETRS File=ZIM$PRMTV.:ZIC0TSI                             FRI 09/05/97 13:05 Page:11
       30        1        /*T***********************************************************/
       31        2        /*T*                                                         */
       32        3        /*T* Copyright (c) Bull HN Information Systems Inc., 1997    */
       33        4        /*T*                                                         */
       34        5        /*T***********************************************************/
       35        6        ZIM$GETRS: PROC(SC$,RC$,RS$) ALTRET
       36        7               AVOID($PR5,$PR6,$PR7);
       37        8        %INCLUDE ZI$GLOBAL;
       38      494            %GLOBALS;
       39      802        %INCLUDE ZI$SSS;
       40     1351            %SC;
       41     1378            %RC;
       42     1410            %RS;
       43     1486        %INCLUDE ZI_ERRORS_C;
       44     1812    1   DCL ERROR UBIN(36);
       45     1813    1       SSS$=GLOBAL.ACTIVE.SSS$;
       46     1814    1       RS$=SC$;
       47     1815    2       DO WHILE(RS.SCRSN~=0);
       48     1816    2           RS$=PINCRW(SSS$,RS.SCRSN);
       49     1817    2           IF RC$=PINCRW(SSS$,RS.RCRSH) THEN
       50     1818    2               RETURN;
       51     1819    2           END;
       52     1820    1       ERROR=ERR#FD#E4;
       53     1821            %DBALT;
       54     1835    1   END ZIM$GETRS;

PL6.E3A0      #002=ZIM$GETRS File=ZIM$PRMTV.:ZIC0TSI                             FRI 09/05/97 13:05 Page:12
--  Include file information  --

   ZI_ERRORS_C.:ZIC0TOU  is referenced.
   ZI$SSS.:ZIC0TOU  cannot be made into a system file and is referenced.
   ZI$GLOBAL.:ZIC0TOU  is referenced.
   B$JIT_C.:E05TOU  was found in the system file and is never referenced.
   CP_6_C.:E05TOU  was found in the system file and is never referenced.
      No diagnostics issued in procedure ZIM$GETRS.

   Procedure ZIM$GETRS requires 47 words for executable code.
   Procedure ZIM$GETRS requires 8 words of local(AUTO) storage.

    No errors detected in file ZIM$PRMTV.:ZIC0TSI    .

PL6.E3A0      #002=ZIM$GETRS File=ZIM$PRMTV.:ZIC0TSI                             FRI 09/05/97 13:05 Page:13

 Object Unit name= ZIM$GETRS                                  File name= ZIM$PRMTV.:ZIC0TOU
 UTS= SEP 05 '97 13:05:11.92 FRI                              Compiler= PL-6/E31         Sev=      00
 SharedLib= :SHARED_SYSTEM                                    Alt SharedLib=


    ****  Control sections  ****

 Sect   Type Bound  Init  Size OctSiz  Section name(segment info)
    0   Proc  even  none    47     57  ZIM$GETRS
    1  RoData even  none     1      1  ZIM$GETRS

    ****  Entry defs  ****

                              Check   Calling
                             calling  sequence
  Sect OctLoc Primary Altret sequence   type   Parms  Name
     0      0   yes    yes     yes      XStd       3  ZIM$GETRS

  ****  Entry refs  ****

         Check        Calling
        calling       sequence
Altret sequence SRef   type   Args  Name
         yes           XStd      0 ZIB$ERR
                       nStd      0 X66_AUTO_3
                       nStd      0 X66_ARET
                       nStd      0 X66_AALT

  ****  Data refs  ****

  Flags:  r = read only, s = secondary
Flgs Name                             Flgs Name                             Flgs Name
r    GLOBAL$
PL6.E3A0      #002=ZIM$GETRS File=ZIM$PRMTV.:ZIC0TSI                             FRI 09/05/97 13:05 Page:14


       30        1        /*T***********************************************************/
       31        2        /*T*                                                         */
       32        3        /*T* Copyright (c) Bull HN Information Systems Inc., 1997    */
       33        4        /*T*                                                         */
       34        5        /*T***********************************************************/
       35        6        ZIM$GETRS: PROC(SC$,RC$,RS$) ALTRET

      6  0 000000   000000 700200 xent  ZIM$GETRS    TSX0  ! X66_AUTO_3
         0 000001   000010 000003                    ZERO    8,3

       36        7               AVOID($PR5,$PR6,$PR7);
       37        8        %INCLUDE ZI$GLOBAL;
       38      494            %GLOBALS;
       39      802        %INCLUDE ZI$SSS;
       40     1351            %SC;
       41     1378            %RC;
       42     1410            %RS;
       43     1486        %INCLUDE ZI_ERRORS_C;
       44     1812    1   DCL ERROR UBIN(36);
       45     1813    1       SSS$=GLOBAL.ACTIVE.SSS$;

   1813  0 000002   000000 470400 xsym               LDP0    GLOBAL$
         0 000003   000000 236100                    LDQ     0,,PR0
         0 000004   200006 756100                    STQ     SSS$,,AUTO

       46     1814    1       RS$=SC$;

   1814  0 000005   200003 471500                    LDP1    @SC$,,AUTO
         0 000006   100000 236100                    LDQ     0,,PR1
         0 000007   200005 473500                    LDP3    @RS$,,AUTO
         0 000010   300000 756100                    STQ     0,,PR3

       47     1815    2       DO WHILE(RS.SCRSN~=0);

   1815  0 000011   300000 474500                    LDP4    0,,PR3
         0 000012   400002 220100                    LDX0    2,,PR4
PL6.E3A0      #002=ZIM$GETRS File=ZIM$PRMTV.:ZIC0TSI                             FRI 09/05/97 13:05 Page:15
         0 000013   000034 600000 0                  TZE     s:1820

       48     1816    2           RS$=PINCRW(SSS$,RS.SCRSN);

   1816  0 000014   200005 470500                    LDP0    @RS$,,AUTO
         0 000015   000000 471500                    LDP1    0,,PR0
         0 000016   100002 220100                    LDX0    2,,PR1
         0 000017   000000 636010                    EAQ     0,X0
         0 000020   200006 036100                    ADLQ    SSS$,,AUTO
         0 000021   000000 756100                    STQ     0,,PR0

       49     1817    2           IF RC$=PINCRW(SSS$,RS.RCRSH) THEN

   1817  0 000022   000000 471500                    LDP1    0,,PR0
         0 000023   100003 220100                    LDX0    3,,PR1
         0 000024   200004 473500                    LDP3    @RC$,,AUTO
         0 000025   000000 636010                    EAQ     0,X0
         0 000026   200006 036100                    ADLQ    SSS$,,AUTO
         0 000027   300000 116100                    CMPQ    0,,PR3
         0 000030   000032 601000 0                  TNZ     s:1819

       50     1818    2               RETURN;

   1818  0 000031   000000 702200 xent               TSX2  ! X66_ARET

       51     1819    2           END;

   1819  0 000032   100002 221100                    LDX1    2,,PR1
         0 000033   000014 601000 0                  TNZ     s:1816

       52     1820    1       ERROR=ERR#FD#E4;

   1820  0 000034   210642 235007                    LDA     70050,DL
         0 000035   200007 755100                    STA     ERROR,,AUTO

       53     1821            %DBALT;

PL6.E3A0      #002=ZIM$GETRS File=ZIM$PRMTV.:ZIC0TSI                             FRI 09/05/97 13:05 Page:16
   1822  0 000036   000000 470400 xsym               LDP0    GLOBAL$
         0 000037   000006 235100                    LDA     6,,PR0
         0 000040   000047 601000 0                  TNZ     s:1830

   1824  0 000041   000010 450100                    STZ     8,,PR0

   1825  0 000042   000012 450100                    STZ     10,,PR0

   1826  0 000043   000013 450100                    STZ     11,,PR0

   1827  0 000044   000011 450100                    STZ     9,,PR0

   1828  0 000045   200007 236100                    LDQ     ERROR,,AUTO
         0 000046   000006 756100                    STQ     6,,PR0

   1830  0 000047   000006 235100                    LDA     6,,PR0
         0 000050   303240 115007                    CMPA    100000,DL
         0 000051   000053 603000 0                  TRC     s:1833

   1831  0 000052   000000 702200 xent               TSX2  ! X66_AALT

   1833  0 000053   000000 631400 1                  EPPR1   0
         0 000054   000000 701000 xent               TSX1    ZIB$ERR
         0 000055   000000 011000                    NOP     0

       54     1835    1   END ZIM$GETRS;

   1835  0 000056   000000 702200 xent               TSX2  ! X66_ARET

(unnamed)
 Sect OctLoc
   1     000   000000 000000                                                    ....

PL6.E3A0      #002=ZIM$GETRS File=ZIM$PRMTV.:ZIC0TSI                             FRI 09/05/97 13:05 Page:17
--  Include file information  --

   ZI_ERRORS_C.:ZIC0TOU  is referenced.
   ZI$SSS.:ZIC0TOU  cannot be made into a system file and is referenced.
   ZI$GLOBAL.:ZIC0TOU  is referenced.
   B$JIT_C.:E05TOU  was found in the system file and is never referenced.
   CP_6_C.:E05TOU  was found in the system file and is never referenced.
      No diagnostics issued in procedure ZIM$GETRS.

   Procedure ZIM$GETRS requires 47 words for executable code.
   Procedure ZIM$GETRS requires 8 words of local(AUTO) storage.

    No errors detected in file ZIM$PRMTV.:ZIC0TSI    .
PL6.E3A0      #002=ZIM$GETRS File=ZIM$PRMTV.:ZIC0TSI                             FRI 09/05/97 13:05 Page:18
          *** CROSS REFERENCE LISTING ***
**     DENOTES     IDENTIFIER DEFINITION
<<                 IDENTIFIER'S VALUE SET
>>                 IDENTIFIER'S VALUE USED
<>                 IDENTIFIER SET AND/OR USED
--                 IDENTIFIER REFERENCED
PL6.E3A0      #002=ZIM$GETRS File=ZIM$PRMTV.:ZIC0TSI                             FRI 09/05/97 13:05 Page:19
          MINI XREF LISTING

ERROR
      1812**DCL      1820<<ASSIGN   1828>>ASSIGN
GLOBAL.ACTIVE.DBCB$
       501**DCL       502--REDEF
GLOBAL.ACTIVE.SSS$
       497**DCL       498--REDEF    1813>>ASSIGN
GLOBAL.KEY
       705**DCL       708--REDEF
GLOBAL.PARAN.TRACE.MODE
       580**DCL       587--REDEF
GLOBAL.PRINTBUF.BUFFER
       739**DCL       740--REDEF     741--REDEF     742--REDEF
GLOBAL.PRINTBUF.ERR.V
       744**DCL       747--REDEF     748--REDEF     749--REDEF
GLOBAL.RET.AC#
       517**DCL      1824<<ASSIGN
GLOBAL.RET.ERROR#
       515**DCL      1822>>IF       1828<<ASSIGN   1830>>IF
GLOBAL.RET.FR#
       518**DCL      1827<<ASSIGN
GLOBAL.RET.RC#
       520**DCL      1826<<ASSIGN
GLOBAL.RET.SC#
       519**DCL      1825<<ASSIGN
GLOBAL$
       799**DCL       495--IMP-PTR  1813>>ASSIGN   1822>>IF       1824>>ASSIGN   1825>>ASSIGN   1826>>ASSIGN
      1827>>ASSIGN   1828>>ASSIGN   1830>>IF
RC.DEF.RNL
      1397**DCL      1407--IMP-SIZ
RC$
      1381**DCL         6--PROC     1382--IMP-PTR  1817>>IF
RS.NPOS
PL6.E3A0      #002=ZIM$GETRS File=ZIM$PRMTV.:ZIC0TSI                             FRI 09/05/97 13:05 Page:20
      1438**DCL      1447--REDEF
RS.RCRSH
      1436**DCL      1817>>IF
RS.SCRSN
      1434**DCL      1815>>DOWHILE  1816>>ASSIGN
RS$
      1412**DCL         6--PROC     1413--IMP-PTR  1814<<ASSIGN   1815>>DOWHILE  1816<<ASSIGN   1816>>ASSIGN
      1817>>IF
SC.DEF.SNL
      1367**DCL      1372--IMP-SIZ
SC$
      1354**DCL         6--PROC     1355--IMP-PTR  1814>>ASSIGN
SSS$
       809**DCL      1813<<ASSIGN   1816>>ASSIGN   1817>>IF
ZIB$ERR
       800**DCL-ENT  1833--CALL
