
PL6.E3A0      #001=ZID$STATS File=ZIM$STATS.:ZIC0TSI                             FRI 09/05/97 13:06 Page:1
        1        1        /*M* ZIE$STATS - Reports statistical counters */
        2        2        /*T***********************************************************/
        3        3        /*T*                                                         */
        4        4        /*T* Copyright (c) Bull HN Information Systems Inc., 1997    */
        5        5        /*T*                                                         */
        6        6        /*T***********************************************************/
        7        7        /*F*
        8        8        NAME: ZID$STATS
        9        9        PURPOSE: Reports statistical counters for DBCS
       10       10        */
       11       11
       12       12        ZID$STATS: PROC AVOID($PR5,$PR6,$PR7);
       13       13    1   DCL ZIO$DFLTOPN ENTRY(1) ALTRET;
       14       14    1   DCL DBNO SBIN;
       15       15    1   DCL BUFSTAT$ PTR;
       16       16    1   DCL J SBIN;
       17       17        /*       This table must contain one entry for each ids function.
       18       18                 In addition the order of the entries is dictated by the
       19       19                 function value.  To determine this order, should it change,
       20       20                 see the include file ZI_DBCS_FCNS                        */
       21       21    1   DCL 1 FCN(0:50) CONSTANT SYMDEF,
       22       22    1         2 NAME CHAR(12) INIT(
       23       23    1    '            ',
       24       24    1    'ROLLBACK    ',
       25       25    1    'HERE-I-AM   ',
       26       26    1    'READY       ',
       27       27    1    'FINISH      ',
       28       28    1    'STORE       ',
       29       29    1    'ERASE       ',
       30       30    1    'MODIFY      ',
       31       31    1    'CONNECT     ',
       32       32    1    'DISCONNECT  ',
       33       33    1    'ACCEPT AREA ',
       34       34    1    'ACCEPT CURR ',
       35       35    1    'IF TENANT   ',
       36       36    1    'IF SET      ',
       37       37    1    'IF MEMBER   ',
PL6.E3A0      #001=ZID$STATS File=ZIM$STATS.:ZIC0TSI                             FRI 09/05/97 13:06 Page:2
       38       38    1    'FND U/KY    ',
       39       39    1    'FND U/KY CUR',
       40       40    1    'FND DUP     ',
       41       41    1    'FND CALC    ',
       42       42    1    'FND DUP CALC',
       43       43    1    'FND OWNER   ',
       44       44    1    'FND CUR TYPE',
       45       45    1    'FND CUR RUN ',
       46       46    1    'FND ABS SET ',
       47       47    1    'FND ABS AREA',
       48       48    1    'FND REL SET ',
       49       49    1    'FND REL AREA',
       50       50    1    'FND DIRECT  ',
       51       51    1    'FND U/INDEX ',
       52       52    1    'FND REL INDX',
       53       53    1    'GET RECORD  ',
       54       54    1    'GET FIELDS  ',
       55       55    1    'CHECKPOINT  ',
       56       56    1    'TRACE ON    ',
       57       57    1    'TRACE OFF   ',
       58       58    1    'STATS ON    ',
       59       59    1    'STATS OFF   ',
       60       60    1    'SHARE IN    ',
       61       61    1    'SHARE ALL   ',
       62       62    1    'SHARE NONE  ',
       63       63    1    'ENCRYPTION  ',
       64       64    1    'REPORT STATS',
       65       65    1    'SHARE CUR   ',
       66       66    1    'BUFFERS     ',
       67       67    1    'PRIVACY     ',
       68       68    1    'INITIALIZE  ',
       69       69    1    'SHARE ANY   ',
       70       70    1    'CALC        ',
       71       71    1    'KEEP        ',
       72       72    1    'REDUCEQ     ',
       73       73    1    'SHAREIN CUR ');
       74       74    1   DCL H1 CONSTANT CHAR(73) INIT(
PL6.E3A0      #001=ZID$STATS File=ZIM$STATS.:ZIC0TSI                             FRI 09/05/97 13:06 Page:3
       75       75    1    'A*   *   *   *   *   *   *  SERVICE STATISTICS  *   *   *   *   *   *   *');
       76       76    1   DCL H2 CONSTANT CHAR(73) INIT(
       77       77    1    'BFunction           Calls       Reads      Writes        Enqs   Deadlocks');
       78       78    1   DCL HUSER CONSTANT CHAR(26) INIT('0USER REQUESTED STATISTICS');
       79       79    1   DCL HDBCS CONSTANT CHAR(25) INIT('0DBCS DATABASE STATISTICS');
       80       80    1   DCL M$DO DCB;
       81       81        %INCLUDE CP_6;
       82      162        %FPT_WRITE(FPTN=FPT$WRITE,STCLASS=BASED);
       83      193        %FPT_TIME(FPTN=FPT$TIME,STCLASS=BASED);
       84      212        %INCLUDE CP_6_SUBS;
       85      752        %INCLUDE B_MICROPS_C;
       86      924    1   DCL 1 MICRO_DEC12 CONSTANT, /* micro-op to suppress lead zeros */
       87      925    1         2 * BIT(9) UNAL INIT(%MVZB11),
       88      926    1         2 * BIT(9) UNAL INIT(%MVC1);
       89      927        %INCLUDE ZI$GLOBAL;
       90     1413        %GLOBALS;
       91     1721         %STATS;
       92     1737    1   DCL STATS$ PTR;
       93     1738    1   DCL BUFSTAT CHAR(12) BASED(BUFSTAT$);
       94     1739    1   DCL STRING3 CHAR(3) BASED CALIGNED;
       95     1740    1   DCL STRING30 CHAR(30) BASED;
       96     1741        %EJECT;
PL6.E3A0      #001=ZID$STATS File=ZIM$STATS.:ZIC0TSI                             FRI 09/05/97 13:06 Page:4
       97     1742    1       GLOBAL.PRINTBUF.BUFFER=HDBCS;
       98     1743    1       STATS$=ADDR(GLOBAL.STATS.DBCS);
       99     1744    1       CALL SVCSTATS;
      100     1745    1       RETURN;
      101     1746        %EJECT;
PL6.E3A0      #001=ZID$STATS File=ZIM$STATS.:ZIC0TSI                             FRI 09/05/97 13:06 Page:5
      102     1747        /*F*
      103     1748        NAME: ZIE$STATS
      104     1749        PURPOSE: Reports user controlled statisticl counters
      105     1750        */
      106     1751
      107     1752    1   ZIE$STATS: ENTRY;
      108     1753    1       GLOBAL.PRINTBUF.BUFFER=HUSER;
      109     1754    1       STATS$=ADDR(GLOBAL.STATS.USER);
      110     1755    1       CALL SVCSTATS;
      111     1756    1       RETURN;
      112     1757        %EJECT;
PL6.E3A0      #001=ZID$STATS File=ZIM$STATS.:ZIC0TSI                             FRI 09/05/97 13:06 Page:6
      113     1758    1   ZIM$ESTON: ENTRY;
      114     1759    1       STATS$=ADDR(GLOBAL.STATS.USER);
      115     1760    1       IF ~STATS.VALID THEN
      116     1761    2       DO;
      117     1762    2           CALL M$TIME(GLOBAL.TIME$->FPT$TIME) ALTRET(ER_TIME);
      118     1763    2           STATS.TSTAMP=GLOBAL.TIME.TSTAMP;
      119     1764    2           END;
      120     1765    1   ER_TIME: GLOBAL.PENDING.STATS=%YES#;
      121     1766    1       RETURN;
      122     1767    1   ZIM$ESTOFF: ENTRY;
      123     1768    1       GLOBAL.PENDING.STATS=%NO#;
      124     1769    1       RETURN;
      125     1770        %EJECT;
PL6.E3A0      #001=ZID$STATS File=ZIM$STATS.:ZIC0TSI                             FRI 09/05/97 13:06 Page:7
      126     1771    1   SVCSTATS: PROC;
      127     1772    2       CALL INSERT(GLOBAL.PRINTBUF.BUFFER,45,1,'-');
      128     1773    2       GLOBAL.TIME.TSTAMP=STATS.TSTAMP;
      129     1774    2       CALL M$TIME(GLOBAL.TIMEC$->FPT$TIME) ALTRET(ER_TIME);
      130     1775    2       CALL INSERT(GLOBAL.PRINTBUF.BUFFER,28,5,
      131     1776    2          SUBSTR(GLOBAL.TIME.TIME,0,5));
      132     1777    2       CALL INSERT(GLOBAL.PRINTBUF.BUFFER,34,10,GLOBAL.TIME.DATE);
      133     1778    2       CALL M$TIME(GLOBAL.TIME$->FPT$TIME) ALTRET(ER_TIME);
      134     1779    2       CALL M$TIME(GLOBAL.TIMEC$->FPT$TIME) ALTRET(ER_TIME);
      135     1780    2       CALL INSERT(GLOBAL.PRINTBUF.BUFFER,47,5,
      136     1781    2          SUBSTR(GLOBAL.TIME.TIME,0,5));
      137     1782    2       CALL INSERT(GLOBAL.PRINTBUF.BUFFER,53,10,GLOBAL.TIME.DATE);
      138     1783    2       IF STATS.VALID THEN
      139     1784    3       DO;
      140     1785    3           IF GLOBAL.STATS.DCB#=0 THEN
      141     1786    4           DO;
      142     1787    4               GLOBAL.DCBNAME.TEXT='STATS';
      143     1788    4               GLOBAL.DCBNAME.LENGTH=5;
      144     1789    4               CALL ZIO$DFLTOPN('NO  ') ALTRET(ER_OPEN);
      145     1790    4               GLOBAL.STATS.DCB#=GLOBAL.DCBNUMBER;
      146     1791    4               END;
      147     1792    3           GLOBAL.WRITE$->FPT$WRITE.V.DCB#=GLOBAL.STATS.DCB#;
      148     1793    3           CALL M$WRITE(GLOBAL.WRITE$->FPT$WRITE) ALTRET(HDR_ERR);
      149     1794    3           GLOBAL.PRINTBUF.BUFFER = 'C';
      150     1795    3           CALL M$WRITE(GLOBAL.WRITE$->FPT$WRITE) ALTRET(HDR_ERR);
      151     1796    3           BUFSTAT$ = PINCRC(ADDR(GLOBAL.PRINTBUF.BUFFER),14);
      152     1797    3           BUFSTAT$->STRING30 = 'page hits with XXX buffers.';
      153     1798    3           BUFSTAT$ = PINCRC(ADDR(GLOBAL.PRINTBUF.BUFFER),29);
      154     1799    3           CALL BINCHAR(BUFSTAT$->STRING3,GLOBAL.BCB.COUNT);
      155     1800    3           BUFSTAT$ = PINCRC(ADDR(GLOBAL.PRINTBUF.BUFFER),1);
      156     1801    3           CALL BINCHAR(BUFSTAT,STATS.HITS);
      157     1802    3           CALL EDITCHAR(BUFSTAT,,,MICRO_DEC12,BUFSTAT);
      158     1803    3           CALL M$WRITE(GLOBAL.WRITE$->FPT$WRITE) ALTRET(DTL_ERR);
      159     1804    3           BUFSTAT$=PINCRC(ADDR(GLOBAL.PRINTBUF.BUFFER),14);
      160     1805    3           BUFSTAT$->STRING30='I/O attempts.';
      161     1806    3           BUFSTAT$=PINCRC(ADDR(GLOBAL.PRINTBUF.BUFFER),1);
      162     1807    3           CALL BINCHAR(BUFSTAT,STATS.REQS);
PL6.E3A0      #001=ZID$STATS File=ZIM$STATS.:ZIC0TSI                             FRI 09/05/97 13:06 Page:8
      163     1808    3           CALL EDITCHAR(BUFSTAT,,,MICRO_DEC12,BUFSTAT);
      164     1809    3           CALL M$WRITE(GLOBAL.WRITE$->FPT$WRITE) ALTRET(DTL_ERR);
      165     1810    3           GLOBAL.PRINTBUF.BUFFER=H1;
      166     1811    3           CALL M$WRITE(GLOBAL.WRITE$->FPT$WRITE) ALTRET(HDR_ERR);
      167     1812    3           GLOBAL.PRINTBUF.BUFFER=H2;
      168     1813    3           CALL M$WRITE(GLOBAL.WRITE$->FPT$WRITE) ALTRET(HDR_ERR);
      169     1814    3           GLOBAL.PRINTBUF.BUFFER = 'A';
      170     1815    4           DO J = 0 TO LAST#RPT#FCN;
      171     1816    4               IF STATS.COUNT.CALLS(J)>0 THEN
      172     1817    5               DO;
      173     1818    5                   BUFSTAT$ = PINCRC(ADDR(GLOBAL.PRINTBUF.BUFFER),1);
      174     1819    5                   BUFSTAT = FCN.NAME(J);
      175     1820    5                   BUFSTAT$ = PINCRC(BUFSTAT$,12);
      176     1821    5                   CALL BINCHAR(BUFSTAT,STATS.COUNT.CALLS(J));
      177     1822    5                   CALL EDITCHAR(BUFSTAT,,,MICRO_DEC12,BUFSTAT);
      178     1823    5                   BUFSTAT$ = PINCRC(BUFSTAT$,12);
      179     1824    5                   CALL BINCHAR(BUFSTAT,STATS.COUNT.READS(J));
      180     1825    5                   CALL EDITCHAR(BUFSTAT,,,MICRO_DEC12,BUFSTAT);
      181     1826    5                   BUFSTAT$ = PINCRC(BUFSTAT$,12);
      182     1827    5                   CALL BINCHAR(BUFSTAT,STATS.COUNT.WRITES(J));
      183     1828    5                   CALL EDITCHAR(BUFSTAT,,,MICRO_DEC12,BUFSTAT);
      184     1829    5                   BUFSTAT$=PINCRC(BUFSTAT$,12);
      185     1830    5                   CALL BINCHAR(BUFSTAT,STATS.COUNT.ENQS(J));
      186     1831    5                   CALL EDITCHAR(BUFSTAT,,,MICRO_DEC12,BUFSTAT);
      187     1832    5                   BUFSTAT$=PINCRC(BUFSTAT$,12);
      188     1833    5                   CALL BINCHAR(BUFSTAT,STATS.COUNT.LOCKS(J));
      189     1834    5                   CALL EDITCHAR(BUFSTAT,,,MICRO_DEC12,BUFSTAT);
      190     1835    5                   CALL M$WRITE(GLOBAL.WRITE$->FPT$WRITE) ALTRET(DTL_ERR);
      191     1836    5                   END;
      192     1837    4               END;
      193     1838    3           END;
      194     1839    2       STATS='0'B; /* Clear all stats.  Including validity */
      195     1840    2       STATS.VALID=%NO#;
      196     1841    2       STATS.TSTAMP=GLOBAL.TIME.TSTAMP; /* New interval */
      197     1842    2       RETURN;
      198     1843        %EJECT;
PL6.E3A0      #001=ZID$STATS File=ZIM$STATS.:ZIC0TSI                             FRI 09/05/97 13:06 Page:9
      199     1844        /* can't output a statistic, return */
      200     1845    2   DTL_ERR: ;
      201     1846        /* can't output header line, return */
      202     1847    2   HDR_ERR: ;
      203     1848    2   ER_OPEN: ; /* Cannot open stats dcb */
      204     1849    2   ER_TIME: ;
      205     1850    2       RETURN;
      206     1851    2   END;
      207     1852    1   END ZID$STATS;
      208     1853        %EOD;

PL6.E3A0      #001=ZID$STATS File=ZIM$STATS.:ZIC0TSI                             FRI 09/05/97 13:06 Page:10
--  Include file information  --

   ZI$GLOBAL.:ZIC0TOU  is referenced.
   B_MICROPS_C.:LIB_E05  is referenced.
   CP_6_SUBS.:LIB_E05  is referenced.
   CP_6.:LIB_E05  cannot be made into a system file and is referenced.
   B$JIT_C.:E05TOU  was found in the system file and is never referenced.
   CP_6_C.:E05TOU  was found in the system file and is referenced.
      No diagnostics issued in procedure ZID$STATS.

   Procedure ZID$STATS requires 329 words for executable code.
   Procedure ZID$STATS requires 12 words of local(AUTO) storage.

PL6.E3A0      #001=ZID$STATS File=ZIM$STATS.:ZIC0TSI                             FRI 09/05/97 13:06 Page:11

 Object Unit name= ZID$STATS                                  File name= ZIM$STATS.:ZIC0TOU
 UTS= SEP 05 '97 13:06:04.80 FRI                              Compiler= PL-6/E31         Sev=      00
 SharedLib= :SHARED_SYSTEM                                    Alt SharedLib=


    ****  Control sections  ****

 Sect   Type Bound  Init  Size OctSiz  Section name(segment info)
    0  RoData even  UTS    220    334  ZID$STATS
    1   DCB   even  none     0      0  M$DO
    2   DCB   even  none     0      0  M$UC
    3   Proc  even  none   329    511  ZID$STATS
    4  RoData even  none    10     12  ZID$STATS

    ****  Entry defs  ****

                              Check   Calling
                             calling  sequence
  Sect OctLoc Primary Altret sequence   type   Parms  Name
     3      0   yes            yes      XStd       0  ZID$STATS
     3     14                  yes      XStd       0  ZIE$STATS
     3     30                  yes      XStd       0  ZIM$ESTON
     3     57                  yes      XStd       0  ZIM$ESTOFF

  ****  Data defs  ****

 Sect OctLoc  Name                           Sect OctLoc  Name
    0      0  FCN

  ****  Entry refs  ****

         Check        Calling
        calling       sequence
Altret sequence SRef   type   Args  Name
 yes     yes           XStd      1 ZIO$DFLTOPN
                       nStd      0 X66_AUTO_0
                       nStd      0 X66_ARET
PL6.E3A0      #001=ZID$STATS File=ZIM$STATS.:ZIC0TSI                             FRI 09/05/97 13:06 Page:12

  ****  Data refs  ****

  Flags:  r = read only, s = secondary
Flgs Name                             Flgs Name                             Flgs Name
     M$DO                                  M$UC                             r    GLOBAL$

  ****  Segment refs  ****

  Flags:  r = read only, s = secondary
Flgs Name                             Flgs Name                             Flgs Name
     ISSID
PL6.E3A0      #001=ZID$STATS File=ZIM$STATS.:ZIC0TSI                             FRI 09/05/97 13:06 Page:13


        1        1        /*M* ZIE$STATS - Reports statistical counters */
        2        2        /*T***********************************************************/
        3        3        /*T*                                                         */
        4        4        /*T* Copyright (c) Bull HN Information Systems Inc., 1997    */
        5        5        /*T*                                                         */
        6        6        /*T***********************************************************/
        7        7        /*F*
        8        8        NAME: ZID$STATS
        9        9        PURPOSE: Reports statistical counters for DBCS
       10       10        */
       11       11
       12       12        ZID$STATS: PROC AVOID($PR5,$PR6,$PR7);

     12  3 000000   000000 700200 xent  ZID$STATS    TSX0  ! X66_AUTO_0
         3 000001   000014 000000                    ZERO    12,0

       13       13    1   DCL ZIO$DFLTOPN ENTRY(1) ALTRET;
       14       14    1   DCL DBNO SBIN;
       15       15    1   DCL BUFSTAT$ PTR;
       16       16    1   DCL J SBIN;
       17       17        /*       This table must contain one entry for each ids function.
       18       18                 In addition the order of the entries is dictated by the
       19       19                 function value.  To determine this order, should it change,
       20       20                 see the include file ZI_DBCS_FCNS                        */
       21       21    1   DCL 1 FCN(0:50) CONSTANT SYMDEF,
       22       22    1         2 NAME CHAR(12) INIT(
       23       23    1    '            ',
       24       24    1    'ROLLBACK    ',
       25       25    1    'HERE-I-AM   ',
       26       26    1    'READY       ',
       27       27    1    'FINISH      ',
       28       28    1    'STORE       ',
       29       29    1    'ERASE       ',
       30       30    1    'MODIFY      ',
       31       31    1    'CONNECT     ',
       32       32    1    'DISCONNECT  ',
PL6.E3A0      #001=ZID$STATS File=ZIM$STATS.:ZIC0TSI                             FRI 09/05/97 13:06 Page:14
       33       33    1    'ACCEPT AREA ',
       34       34    1    'ACCEPT CURR ',
       35       35    1    'IF TENANT   ',
       36       36    1    'IF SET      ',
       37       37    1    'IF MEMBER   ',
       38       38    1    'FND U/KY    ',
       39       39    1    'FND U/KY CUR',
       40       40    1    'FND DUP     ',
       41       41    1    'FND CALC    ',
       42       42    1    'FND DUP CALC',
       43       43    1    'FND OWNER   ',
       44       44    1    'FND CUR TYPE',
       45       45    1    'FND CUR RUN ',
       46       46    1    'FND ABS SET ',
       47       47    1    'FND ABS AREA',
       48       48    1    'FND REL SET ',
       49       49    1    'FND REL AREA',
       50       50    1    'FND DIRECT  ',
       51       51    1    'FND U/INDEX ',
       52       52    1    'FND REL INDX',
       53       53    1    'GET RECORD  ',
       54       54    1    'GET FIELDS  ',
       55       55    1    'CHECKPOINT  ',
       56       56    1    'TRACE ON    ',
       57       57    1    'TRACE OFF   ',
       58       58    1    'STATS ON    ',
       59       59    1    'STATS OFF   ',
       60       60    1    'SHARE IN    ',
       61       61    1    'SHARE ALL   ',
       62       62    1    'SHARE NONE  ',
       63       63    1    'ENCRYPTION  ',
       64       64    1    'REPORT STATS',
       65       65    1    'SHARE CUR   ',
       66       66    1    'BUFFERS     ',
       67       67    1    'PRIVACY     ',
       68       68    1    'INITIALIZE  ',
       69       69    1    'SHARE ANY   ',
PL6.E3A0      #001=ZID$STATS File=ZIM$STATS.:ZIC0TSI                             FRI 09/05/97 13:06 Page:15
       70       70    1    'CALC        ',
       71       71    1    'KEEP        ',
       72       72    1    'REDUCEQ     ',
       73       73    1    'SHAREIN CUR ');
       74       74    1   DCL H1 CONSTANT CHAR(73) INIT(
       75       75    1    'A*   *   *   *   *   *   *  SERVICE STATISTICS  *   *   *   *   *   *   *');
       76       76    1   DCL H2 CONSTANT CHAR(73) INIT(
       77       77    1    'BFunction           Calls       Reads      Writes        Enqs   Deadlocks');
       78       78    1   DCL HUSER CONSTANT CHAR(26) INIT('0USER REQUESTED STATISTICS');
       79       79    1   DCL HDBCS CONSTANT CHAR(25) INIT('0DBCS DATABASE STATISTICS');
       80       80    1   DCL M$DO DCB;
       81       81        %INCLUDE CP_6;
       82      162        %FPT_WRITE(FPTN=FPT$WRITE,STCLASS=BASED);
       83      193        %FPT_TIME(FPTN=FPT$TIME,STCLASS=BASED);
       84      212        %INCLUDE CP_6_SUBS;
       85      752        %INCLUDE B_MICROPS_C;
       86      924    1   DCL 1 MICRO_DEC12 CONSTANT, /* micro-op to suppress lead zeros */
       87      925    1         2 * BIT(9) UNAL INIT(%MVZB11),
       88      926    1         2 * BIT(9) UNAL INIT(%MVC1);
       89      927        %INCLUDE ZI$GLOBAL;
       90     1413        %GLOBALS;
       91     1721         %STATS;
       92     1737    1   DCL STATS$ PTR;
       93     1738    1   DCL BUFSTAT CHAR(12) BASED(BUFSTAT$);
       94     1739    1   DCL STRING3 CHAR(3) BASED CALIGNED;
       95     1740    1   DCL STRING30 CHAR(30) BASED;
       96     1741        %EJECT;
PL6.E3A0      #001=ZID$STATS File=ZIM$STATS.:ZIC0TSI                             FRI 09/05/97 13:06 Page:16
       97     1742    1       GLOBAL.PRINTBUF.BUFFER=HDBCS;

   1742  3 000002   000000 470400 xsym               LDP0    GLOBAL$
         3 000003   040100 100400                    MLR     fill='040'O
         3 000004   000306 000031 0                  ADSC9   HDBCS                    cn=0,n=25
         3 000005   005025 000204                    ADSC9   2581,,PR0                cn=0,n=132

       98     1743    1       STATS$=ADDR(GLOBAL.STATS.DBCS);

   1743  3 000006   000000 236000 xsym               LDQ     GLOBAL$
         3 000007   001431 036003                    ADLQ    793,DU
         3 000010   200006 756100                    STQ     STATS$,,AUTO

       99     1744    1       CALL SVCSTATS;

   1744  3 000011   000065 701000 3                  TSX1    SVCSTATS
         3 000012   000000 011000                    NOP     0

      100     1745    1       RETURN;

   1745  3 000013   000000 702200 xent               TSX2  ! X66_ARET

      101     1746        %EJECT;
PL6.E3A0      #001=ZID$STATS File=ZIM$STATS.:ZIC0TSI                             FRI 09/05/97 13:06 Page:17
      102     1747        /*F*
      103     1748        NAME: ZIE$STATS
      104     1749        PURPOSE: Reports user controlled statisticl counters
      105     1750        */
      106     1751
      107     1752    1   ZIE$STATS: ENTRY;

   1752  3 000014   000000 700200 xent  ZIE$STATS    TSX0  ! X66_AUTO_0
         3 000015   000014 000000                    ZERO    12,0

      108     1753    1       GLOBAL.PRINTBUF.BUFFER=HUSER;

   1753  3 000016   000000 470400 xsym               LDP0    GLOBAL$
         3 000017   040100 100400                    MLR     fill='040'O
         3 000020   000277 000032 0                  ADSC9   HUSER                    cn=0,n=26
         3 000021   005025 000204                    ADSC9   2581,,PR0                cn=0,n=132

      109     1754    1       STATS$=ADDR(GLOBAL.STATS.USER);

   1754  3 000022   000000 236000 xsym               LDQ     GLOBAL$
         3 000023   002116 036003                    ADLQ    1102,DU
         3 000024   200006 756100                    STQ     STATS$,,AUTO

      110     1755    1       CALL SVCSTATS;

   1755  3 000025   000065 701000 3                  TSX1    SVCSTATS
         3 000026   000000 011000                    NOP     0

      111     1756    1       RETURN;

   1756  3 000027   000000 702200 xent               TSX2  ! X66_ARET

      112     1757        %EJECT;
PL6.E3A0      #001=ZID$STATS File=ZIM$STATS.:ZIC0TSI                             FRI 09/05/97 13:06 Page:18
      113     1758    1   ZIM$ESTON: ENTRY;

   1758  3 000030   000000 700200 xent  ZIM$ESTON    TSX0  ! X66_AUTO_0
         3 000031   000014 000000                    ZERO    12,0

      114     1759    1       STATS$=ADDR(GLOBAL.STATS.USER);

   1759  3 000032   000000 236000 xsym               LDQ     GLOBAL$
         3 000033   002116 036003                    ADLQ    1102,DU
         3 000034   200006 756100                    STQ     STATS$,,AUTO

      115     1760    1       IF ~STATS.VALID THEN

   1760  3 000035   200006 470500                    LDP0    STATS$,,AUTO
         3 000036   000001 236100                    LDQ     1,,PR0
         3 000037   000000 676000 4                  ERQ     0
         3 000040   000053 600000 3                  TZE     ER_TIME

      116     1761    2       DO;

      117     1762    2           CALL M$TIME(GLOBAL.TIME$->FPT$TIME) ALTRET(ER_TIME);

   1762  3 000041   000000 471400 xsym               LDP1    GLOBAL$
         3 000042   105117 473500                    LDP3    2639,,PR1
         3 000043   300000 630500                    EPPR0   0,,PR3
         3 000044   420004 713400                    CLIMB   alt,+8196
         3 000045   402000 401760                    pmme    nvectors=5
         3 000046   000053 702000 3                  TSX2    ER_TIME

      118     1763    2           STATS.TSTAMP=GLOBAL.TIME.TSTAMP;

   1763  3 000047   000000 470400 xsym               LDP0    GLOBAL$
         3 000050   200006 471500                    LDP1    STATS$,,AUTO
         3 000051   005001 235100                    LDA     2561,,PR0
         3 000052   100000 755100                    STA     0,,PR1

      119     1764    2           END;
PL6.E3A0      #001=ZID$STATS File=ZIM$STATS.:ZIC0TSI                             FRI 09/05/97 13:06 Page:19

      120     1765    1   ER_TIME: GLOBAL.PENDING.STATS=%YES#;

   1765  3 000053   000000 470400 xsym  ER_TIME      LDP0    GLOBAL$
         3 000054   020000 236003                    LDQ     8192,DU
         3 000055   000017 256100                    ORSQ    15,,PR0

      121     1766    1       RETURN;

   1766  3 000056   000000 702200 xent               TSX2  ! X66_ARET

      122     1767    1   ZIM$ESTOFF: ENTRY;

   1767  3 000057   000000 700200 xent  ZIM$ESTOFF   TSX0  ! X66_AUTO_0
         3 000060   000014 000000                    ZERO    12,0

      123     1768    1       GLOBAL.PENDING.STATS=%NO#;

   1768  3 000061   000000 470400 xsym               LDP0    GLOBAL$
         3 000062   000001 236000 4                  LDQ     1
         3 000063   000017 356100                    ANSQ    15,,PR0

      124     1769    1       RETURN;

   1769  3 000064   000000 702200 xent               TSX2  ! X66_ARET

      125     1770        %EJECT;
PL6.E3A0      #001=ZID$STATS File=ZIM$STATS.:ZIC0TSI                             FRI 09/05/97 13:06 Page:20
      126     1771    1   SVCSTATS: PROC;

   1771  3 000065   200010 741300       SVCSTATS     STX1  ! STATS$+2,,AUTO

      127     1772    2       CALL INSERT(GLOBAL.PRINTBUF.BUFFER,45,1,'-');

   1772  3 000066   000000 470400 xsym               LDP0    GLOBAL$
         3 000067   000055 236003                    LDQ     45,DU
         3 000070   005040 552120                    STBQ    2592,'20'O,PR0

      128     1773    2       GLOBAL.TIME.TSTAMP=STATS.TSTAMP;

   1773  3 000071   200006 471500                    LDP1    STATS$,,AUTO
         3 000072   100000 235100                    LDA     0,,PR1
         3 000073   005001 755100                    STA     2561,,PR0

      129     1774    2       CALL M$TIME(GLOBAL.TIMEC$->FPT$TIME) ALTRET(ER_TIME);

   1774  3 000074   005120 473500                    LDP3    2640,,PR0
         3 000075   300000 630500                    EPPR0   0,,PR3
         3 000076   420004 713400                    CLIMB   alt,+8196
         3 000077   402000 401760                    pmme    nvectors=5
         3 000100   000507 702000 3                  TSX2    DTL_ERR

      130     1775    2       CALL INSERT(GLOBAL.PRINTBUF.BUFFER,28,5,

   1775  3 000101   000000 470400 xsym               LDP0    GLOBAL$
         3 000102   040100 100500                    MLR     fill='040'O
         3 000103   005004 400005                    ADSC9   2564,,PR0                cn=2,n=5
         3 000104   005034 000005                    ADSC9   2588,,PR0                cn=0,n=5

      131     1776    2          SUBSTR(GLOBAL.TIME.TIME,0,5));
      132     1777    2       CALL INSERT(GLOBAL.PRINTBUF.BUFFER,34,10,GLOBAL.TIME.DATE);

   1777  3 000105   040100 100500                    MLR     fill='040'O
         3 000106   005002 000012                    ADSC9   2562,,PR0                cn=0,n=10
         3 000107   005035 400012                    ADSC9   2589,,PR0                cn=2,n=10
PL6.E3A0      #001=ZID$STATS File=ZIM$STATS.:ZIC0TSI                             FRI 09/05/97 13:06 Page:21

      133     1778    2       CALL M$TIME(GLOBAL.TIME$->FPT$TIME) ALTRET(ER_TIME);

   1778  3 000110   005117 471500                    LDP1    2639,,PR0
         3 000111   100000 630500                    EPPR0   0,,PR1
         3 000112   420004 713400                    CLIMB   alt,+8196
         3 000113   402000 401760                    pmme    nvectors=5
         3 000114   000507 702000 3                  TSX2    DTL_ERR

      134     1779    2       CALL M$TIME(GLOBAL.TIMEC$->FPT$TIME) ALTRET(ER_TIME);

   1779  3 000115   000000 470400 xsym               LDP0    GLOBAL$
         3 000116   005120 471500                    LDP1    2640,,PR0
         3 000117   100000 630500                    EPPR0   0,,PR1
         3 000120   420004 713400                    CLIMB   alt,+8196
         3 000121   402000 401760                    pmme    nvectors=5
         3 000122   000507 702000 3                  TSX2    DTL_ERR

      135     1780    2       CALL INSERT(GLOBAL.PRINTBUF.BUFFER,47,5,

   1780  3 000123   000000 470400 xsym               LDP0    GLOBAL$
         3 000124   040100 100500                    MLR     fill='040'O
         3 000125   005004 400005                    ADSC9   2564,,PR0                cn=2,n=5
         3 000126   005040 600005                    ADSC9   2592,,PR0                cn=3,n=5

      136     1781    2          SUBSTR(GLOBAL.TIME.TIME,0,5));
      137     1782    2       CALL INSERT(GLOBAL.PRINTBUF.BUFFER,53,10,GLOBAL.TIME.DATE);

   1782  3 000127   040100 100500                    MLR     fill='040'O
         3 000130   005002 000012                    ADSC9   2562,,PR0                cn=0,n=10
         3 000131   005042 200012                    ADSC9   2594,,PR0                cn=1,n=10

      138     1783    2       IF STATS.VALID THEN

   1783  3 000132   200006 471500                    LDP1    STATS$,,AUTO
         3 000133   100001 235100                    LDA     1,,PR1
         3 000134   000475 600000 3                  TZE     s:1839
PL6.E3A0      #001=ZID$STATS File=ZIM$STATS.:ZIC0TSI                             FRI 09/05/97 13:06 Page:22

      139     1784    3       DO;

      140     1785    3           IF GLOBAL.STATS.DCB#=0 THEN

   1785  3 000135   002603 235100                    LDA     1411,,PR0
         3 000136   000153 601000 3                  TNZ     s:1792

      141     1786    4           DO;

      142     1787    4               GLOBAL.DCBNAME.TEXT='STATS';

   1787  3 000137   040100 100400                    MLR     fill='040'O
         3 000140   000316 000005 0                  ADSC9   MICRO_DEC12+1            cn=0,n=5
         3 000141   004734 200037                    ADSC9   2524,,PR0                cn=1,n=31

      143     1788    4               GLOBAL.DCBNAME.LENGTH=5;

   1788  3 000142   005000 236003                    LDQ     2560,DU
         3 000143   004734 552140                    STBQ    2524,'40'O,PR0

      144     1789    4               CALL ZIO$DFLTOPN('NO  ') ALTRET(ER_OPEN);

   1789  3 000144   000003 630400 4                  EPPR0   3
         3 000145   000002 631400 4                  EPPR1   2
         3 000146   000000 701000 xent               TSX1    ZIO$DFLTOPN
         3 000147   000507 702000 3                  TSX2    DTL_ERR

      145     1790    4               GLOBAL.STATS.DCB#=GLOBAL.DCBNUMBER;

   1790  3 000150   000000 470400 xsym               LDP0    GLOBAL$
         3 000151   004623 235100                    LDA     2451,,PR0
         3 000152   002603 755100                    STA     1411,,PR0

      146     1791    4               END;

      147     1792    3           GLOBAL.WRITE$->FPT$WRITE.V.DCB#=GLOBAL.STATS.DCB#;
PL6.E3A0      #001=ZID$STATS File=ZIM$STATS.:ZIC0TSI                             FRI 09/05/97 13:06 Page:23

   1792  3 000153   005113 471500                    LDP1    2635,,PR0
         3 000154   002603 720100                    LXL0    1411,,PR0
         3 000155   100010 740100                    STX0    8,,PR1

      148     1793    3           CALL M$WRITE(GLOBAL.WRITE$->FPT$WRITE) ALTRET(HDR_ERR);

   1793  3 000156   005113 471500                    LDP1    2635,,PR0
         3 000157   100000 630500                    EPPR0   0,,PR1
         3 000160   440001 713400                    CLIMB   alt,write
         3 000161   401400 401760                    pmme    nvectors=4
         3 000162   000507 702000 3                  TSX2    DTL_ERR

      149     1794    3           GLOBAL.PRINTBUF.BUFFER = 'C';

   1794  3 000163   000000 470400 xsym               LDP0    GLOBAL$
         3 000164   040100 100400                    MLR     fill='040'O
         3 000165   000004 000001 4                  ADSC9   4                        cn=0,n=1
         3 000166   005025 000204                    ADSC9   2581,,PR0                cn=0,n=132

      150     1795    3           CALL M$WRITE(GLOBAL.WRITE$->FPT$WRITE) ALTRET(HDR_ERR);

   1795  3 000167   005113 471500                    LDP1    2635,,PR0
         3 000170   100000 630500                    EPPR0   0,,PR1
         3 000171   440001 713400                    CLIMB   alt,write
         3 000172   401400 401760                    pmme    nvectors=4
         3 000173   000507 702000 3                  TSX2    DTL_ERR

      151     1796    3           BUFSTAT$ = PINCRC(ADDR(GLOBAL.PRINTBUF.BUFFER),14);

   1796  3 000174   000000 236000 xsym               LDQ     GLOBAL$
         3 000175   000005 036000 4                  ADLQ    5
         3 000176   200004 756100                    STQ     BUFSTAT$,,AUTO

      152     1797    3           BUFSTAT$->STRING30 = 'page hits with XXX buffers.';

   1797  3 000177   200004 470500                    LDP0    BUFSTAT$,,AUTO
PL6.E3A0      #001=ZID$STATS File=ZIM$STATS.:ZIC0TSI                             FRI 09/05/97 13:06 Page:24
         3 000200   040100 100400                    MLR     fill='040'O
         3 000201   000321 000033 0                  ADSC9   MICRO_DEC12+4            cn=0,n=27
         3 000202   000000 000036                    ADSC9   0,,PR0                   cn=0,n=30

      153     1798    3           BUFSTAT$ = PINCRC(ADDR(GLOBAL.PRINTBUF.BUFFER),29);

   1798  3 000203   000000 236000 xsym               LDQ     GLOBAL$
         3 000204   000006 036000 4                  ADLQ    6
         3 000205   200004 756100                    STQ     BUFSTAT$,,AUTO

      154     1799    3           CALL BINCHAR(BUFSTAT$->STRING3,GLOBAL.BCB.COUNT);

   1799  3 000206   000000 470400 xsym               LDP0    GLOBAL$
         3 000207   000177 235100                    LDA     127,,PR0
         3 000210   000044 773000                    LRL     36
         3 000211   200012 757100                    STAQ    STATS$+4,,AUTO
         3 000212   200004 471500                    LDP1    BUFSTAT$,,AUTO
         3 000213   000100 301500                    BTD
         3 000214   200012 000010                    NDSC9   STATS$+4,,AUTO           cn=0,s=lsgnf,sf=0,n=8
         3 000215   100000 030003                    NDSC9   0,,PR1                   cn=0,s=nosgn,sf=0,n=3

      155     1800    3           BUFSTAT$ = PINCRC(ADDR(GLOBAL.PRINTBUF.BUFFER),1);

   1800  3 000216   000000 236000 xsym               LDQ     GLOBAL$
         3 000217   000007 036000 4                  ADLQ    7
         3 000220   200004 756100                    STQ     BUFSTAT$,,AUTO

      156     1801    3           CALL BINCHAR(BUFSTAT,STATS.HITS);

   1801  3 000221   200006 471500                    LDP1    STATS$,,AUTO
         3 000222   100003 235100                    LDA     3,,PR1
         3 000223   000044 773000                    LRL     36
         3 000224   200012 757100                    STAQ    STATS$+4,,AUTO
         3 000225   200004 473500                    LDP3    BUFSTAT$,,AUTO
         3 000226   000100 301500                    BTD
         3 000227   200012 000010                    NDSC9   STATS$+4,,AUTO           cn=0,s=lsgnf,sf=0,n=8
         3 000230   300000 030014                    NDSC9   0,,PR3                   cn=0,s=nosgn,sf=0,n=12
PL6.E3A0      #001=ZID$STATS File=ZIM$STATS.:ZIC0TSI                             FRI 09/05/97 13:06 Page:25

      157     1802    3           CALL EDITCHAR(BUFSTAT,,,MICRO_DEC12,BUFSTAT);

   1802  3 000231   100000 024500                    MVNE
         3 000232   300000 030014                    NDSC9   0,,PR3                   cn=0,s=nosgn,sf=0,n=12
         3 000233   000315 000002 0                  ADSC9   MICRO_DEC12              cn=0,n=2
         3 000234   300000 000014                    ADSC9   0,,PR3                   cn=0,n=12

      158     1803    3           CALL M$WRITE(GLOBAL.WRITE$->FPT$WRITE) ALTRET(DTL_ERR);

   1803  3 000235   005113 474500                    LDP4    2635,,PR0
         3 000236   400000 630500                    EPPR0   0,,PR4
         3 000237   440001 713400                    CLIMB   alt,write
         3 000240   401400 401760                    pmme    nvectors=4
         3 000241   000507 702000 3                  TSX2    DTL_ERR

      159     1804    3           BUFSTAT$=PINCRC(ADDR(GLOBAL.PRINTBUF.BUFFER),14);

   1804  3 000242   000000 236000 xsym               LDQ     GLOBAL$
         3 000243   000005 036000 4                  ADLQ    5
         3 000244   200004 756100                    STQ     BUFSTAT$,,AUTO

      160     1805    3           BUFSTAT$->STRING30='I/O attempts.';

   1805  3 000245   200004 470500                    LDP0    BUFSTAT$,,AUTO
         3 000246   040100 100400                    MLR     fill='040'O
         3 000247   000330 000015 0                  ADSC9   MICRO_DEC12+11           cn=0,n=13
         3 000250   000000 000036                    ADSC9   0,,PR0                   cn=0,n=30

      161     1806    3           BUFSTAT$=PINCRC(ADDR(GLOBAL.PRINTBUF.BUFFER),1);

   1806  3 000251   000000 236000 xsym               LDQ     GLOBAL$
         3 000252   000007 036000 4                  ADLQ    7
         3 000253   200004 756100                    STQ     BUFSTAT$,,AUTO

      162     1807    3           CALL BINCHAR(BUFSTAT,STATS.REQS);

PL6.E3A0      #001=ZID$STATS File=ZIM$STATS.:ZIC0TSI                             FRI 09/05/97 13:06 Page:26
   1807  3 000254   200006 470500                    LDP0    STATS$,,AUTO
         3 000255   000002 235100                    LDA     2,,PR0
         3 000256   000044 773000                    LRL     36
         3 000257   200012 757100                    STAQ    STATS$+4,,AUTO
         3 000260   200004 471500                    LDP1    BUFSTAT$,,AUTO
         3 000261   000100 301500                    BTD
         3 000262   200012 000010                    NDSC9   STATS$+4,,AUTO           cn=0,s=lsgnf,sf=0,n=8
         3 000263   100000 030014                    NDSC9   0,,PR1                   cn=0,s=nosgn,sf=0,n=12

      163     1808    3           CALL EDITCHAR(BUFSTAT,,,MICRO_DEC12,BUFSTAT);

   1808  3 000264   100000 024500                    MVNE
         3 000265   100000 030014                    NDSC9   0,,PR1                   cn=0,s=nosgn,sf=0,n=12
         3 000266   000315 000002 0                  ADSC9   MICRO_DEC12              cn=0,n=2
         3 000267   100000 000014                    ADSC9   0,,PR1                   cn=0,n=12

      164     1809    3           CALL M$WRITE(GLOBAL.WRITE$->FPT$WRITE) ALTRET(DTL_ERR);

   1809  3 000270   000000 473400 xsym               LDP3    GLOBAL$
         3 000271   305113 474500                    LDP4    2635,,PR3
         3 000272   400000 630500                    EPPR0   0,,PR4
         3 000273   440001 713400                    CLIMB   alt,write
         3 000274   401400 401760                    pmme    nvectors=4
         3 000275   000507 702000 3                  TSX2    DTL_ERR

      165     1810    3           GLOBAL.PRINTBUF.BUFFER=H1;

   1810  3 000276   000000 470400 xsym               LDP0    GLOBAL$
         3 000277   040100 100400                    MLR     fill='040'O
         3 000300   000231 000111 0                  ADSC9   H1                       cn=0,n=73
         3 000301   005025 000204                    ADSC9   2581,,PR0                cn=0,n=132

      166     1811    3           CALL M$WRITE(GLOBAL.WRITE$->FPT$WRITE) ALTRET(HDR_ERR);

   1811  3 000302   005113 471500                    LDP1    2635,,PR0
         3 000303   100000 630500                    EPPR0   0,,PR1
         3 000304   440001 713400                    CLIMB   alt,write
PL6.E3A0      #001=ZID$STATS File=ZIM$STATS.:ZIC0TSI                             FRI 09/05/97 13:06 Page:27
         3 000305   401400 401760                    pmme    nvectors=4
         3 000306   000507 702000 3                  TSX2    DTL_ERR

      167     1812    3           GLOBAL.PRINTBUF.BUFFER=H2;

   1812  3 000307   000000 470400 xsym               LDP0    GLOBAL$
         3 000310   040100 100400                    MLR     fill='040'O
         3 000311   000254 000111 0                  ADSC9   H2                       cn=0,n=73
         3 000312   005025 000204                    ADSC9   2581,,PR0                cn=0,n=132

      168     1813    3           CALL M$WRITE(GLOBAL.WRITE$->FPT$WRITE) ALTRET(HDR_ERR);

   1813  3 000313   005113 471500                    LDP1    2635,,PR0
         3 000314   100000 630500                    EPPR0   0,,PR1
         3 000315   440001 713400                    CLIMB   alt,write
         3 000316   401400 401760                    pmme    nvectors=4
         3 000317   000507 702000 3                  TSX2    DTL_ERR

      169     1814    3           GLOBAL.PRINTBUF.BUFFER = 'A';

   1814  3 000320   000000 470400 xsym               LDP0    GLOBAL$
         3 000321   040100 100400                    MLR     fill='040'O
         3 000322   000010 000001 4                  ADSC9   8                        cn=0,n=1
         3 000323   005025 000204                    ADSC9   2581,,PR0                cn=0,n=132

      170     1815    4           DO J = 0 TO LAST#RPT#FCN;

   1815  3 000324   200005 450100                    STZ     J,,AUTO

      171     1816    4               IF STATS.COUNT.CALLS(J)>0 THEN

   1816  3 000325   200005 236100                    LDQ     J,,AUTO
         3 000326   000005 402007                    MPY     5,DL
         3 000327   200006 470500                    LDP0    STATS$,,AUTO
         3 000330   000004 235106                    LDA     4,QL,PR0
         3 000331   000471 600000 3                  TZE     s:1837

PL6.E3A0      #001=ZID$STATS File=ZIM$STATS.:ZIC0TSI                             FRI 09/05/97 13:06 Page:28
      172     1817    5               DO;

      173     1818    5                   BUFSTAT$ = PINCRC(ADDR(GLOBAL.PRINTBUF.BUFFER),1);

   1818  3 000332   000000 236000 xsym               LDQ     GLOBAL$
         3 000333   000007 036000 4                  ADLQ    7
         3 000334   200004 756100                    STQ     BUFSTAT$,,AUTO

      174     1819    5                   BUFSTAT = FCN.NAME(J);

   1819  3 000335   200005 236100                    LDQ     J,,AUTO
         3 000336   000014 402007                    MPY     12,DL
         3 000337   200004 471500                    LDP1    BUFSTAT$,,AUTO
         3 000340   040100 100406                    MLR     fill='040'O
         3 000341   000000 000014 0                  ADSC9   FCN,Q                    cn=0,n=12
         3 000342   100000 000014                    ADSC9   0,,PR1                   cn=0,n=12

      175     1820    5                   BUFSTAT$ = PINCRC(BUFSTAT$,12);

   1820  3 000343   200004 236100                    LDQ     BUFSTAT$,,AUTO
         3 000344   000003 036003                    ADLQ    3,DU
         3 000345   200004 756100                    STQ     BUFSTAT$,,AUTO

      176     1821    5                   CALL BINCHAR(BUFSTAT,STATS.COUNT.CALLS(J));

   1821  3 000346   200005 236100                    LDQ     J,,AUTO
         3 000347   000005 402007                    MPY     5,DL
         3 000350   000004 235106                    LDA     4,QL,PR0
         3 000351   000044 773000                    LRL     36
         3 000352   200012 757100                    STAQ    STATS$+4,,AUTO
         3 000353   200004 471500                    LDP1    BUFSTAT$,,AUTO
         3 000354   000100 301500                    BTD
         3 000355   200012 000010                    NDSC9   STATS$+4,,AUTO           cn=0,s=lsgnf,sf=0,n=8
         3 000356   100000 030014                    NDSC9   0,,PR1                   cn=0,s=nosgn,sf=0,n=12

      177     1822    5                   CALL EDITCHAR(BUFSTAT,,,MICRO_DEC12,BUFSTAT);

PL6.E3A0      #001=ZID$STATS File=ZIM$STATS.:ZIC0TSI                             FRI 09/05/97 13:06 Page:29
   1822  3 000357   100000 024500                    MVNE
         3 000360   100000 030014                    NDSC9   0,,PR1                   cn=0,s=nosgn,sf=0,n=12
         3 000361   000315 000002 0                  ADSC9   MICRO_DEC12              cn=0,n=2
         3 000362   100000 000014                    ADSC9   0,,PR1                   cn=0,n=12

      178     1823    5                   BUFSTAT$ = PINCRC(BUFSTAT$,12);

   1823  3 000363   200004 236100                    LDQ     BUFSTAT$,,AUTO
         3 000364   000003 036003                    ADLQ    3,DU
         3 000365   200004 756100                    STQ     BUFSTAT$,,AUTO

      179     1824    5                   CALL BINCHAR(BUFSTAT,STATS.COUNT.READS(J));

   1824  3 000366   200005 236100                    LDQ     J,,AUTO
         3 000367   000005 402007                    MPY     5,DL
         3 000370   000005 235106                    LDA     5,QL,PR0
         3 000371   000044 773000                    LRL     36
         3 000372   200012 757100                    STAQ    STATS$+4,,AUTO
         3 000373   200004 471500                    LDP1    BUFSTAT$,,AUTO
         3 000374   000100 301500                    BTD
         3 000375   200012 000010                    NDSC9   STATS$+4,,AUTO           cn=0,s=lsgnf,sf=0,n=8
         3 000376   100000 030014                    NDSC9   0,,PR1                   cn=0,s=nosgn,sf=0,n=12

      180     1825    5                   CALL EDITCHAR(BUFSTAT,,,MICRO_DEC12,BUFSTAT);

   1825  3 000377   100000 024500                    MVNE
         3 000400   100000 030014                    NDSC9   0,,PR1                   cn=0,s=nosgn,sf=0,n=12
         3 000401   000315 000002 0                  ADSC9   MICRO_DEC12              cn=0,n=2
         3 000402   100000 000014                    ADSC9   0,,PR1                   cn=0,n=12

      181     1826    5                   BUFSTAT$ = PINCRC(BUFSTAT$,12);

   1826  3 000403   200004 236100                    LDQ     BUFSTAT$,,AUTO
         3 000404   000003 036003                    ADLQ    3,DU
         3 000405   200004 756100                    STQ     BUFSTAT$,,AUTO

      182     1827    5                   CALL BINCHAR(BUFSTAT,STATS.COUNT.WRITES(J));
PL6.E3A0      #001=ZID$STATS File=ZIM$STATS.:ZIC0TSI                             FRI 09/05/97 13:06 Page:30

   1827  3 000406   200005 236100                    LDQ     J,,AUTO
         3 000407   000005 402007                    MPY     5,DL
         3 000410   000006 235106                    LDA     6,QL,PR0
         3 000411   000044 773000                    LRL     36
         3 000412   200012 757100                    STAQ    STATS$+4,,AUTO
         3 000413   200004 471500                    LDP1    BUFSTAT$,,AUTO
         3 000414   000100 301500                    BTD
         3 000415   200012 000010                    NDSC9   STATS$+4,,AUTO           cn=0,s=lsgnf,sf=0,n=8
         3 000416   100000 030014                    NDSC9   0,,PR1                   cn=0,s=nosgn,sf=0,n=12

      183     1828    5                   CALL EDITCHAR(BUFSTAT,,,MICRO_DEC12,BUFSTAT);

   1828  3 000417   100000 024500                    MVNE
         3 000420   100000 030014                    NDSC9   0,,PR1                   cn=0,s=nosgn,sf=0,n=12
         3 000421   000315 000002 0                  ADSC9   MICRO_DEC12              cn=0,n=2
         3 000422   100000 000014                    ADSC9   0,,PR1                   cn=0,n=12

      184     1829    5                   BUFSTAT$=PINCRC(BUFSTAT$,12);

   1829  3 000423   200004 236100                    LDQ     BUFSTAT$,,AUTO
         3 000424   000003 036003                    ADLQ    3,DU
         3 000425   200004 756100                    STQ     BUFSTAT$,,AUTO

      185     1830    5                   CALL BINCHAR(BUFSTAT,STATS.COUNT.ENQS(J));

   1830  3 000426   200005 236100                    LDQ     J,,AUTO
         3 000427   000005 402007                    MPY     5,DL
         3 000430   000007 235106                    LDA     7,QL,PR0
         3 000431   000044 773000                    LRL     36
         3 000432   200012 757100                    STAQ    STATS$+4,,AUTO
         3 000433   200004 471500                    LDP1    BUFSTAT$,,AUTO
         3 000434   000100 301500                    BTD
         3 000435   200012 000010                    NDSC9   STATS$+4,,AUTO           cn=0,s=lsgnf,sf=0,n=8
         3 000436   100000 030014                    NDSC9   0,,PR1                   cn=0,s=nosgn,sf=0,n=12

      186     1831    5                   CALL EDITCHAR(BUFSTAT,,,MICRO_DEC12,BUFSTAT);
PL6.E3A0      #001=ZID$STATS File=ZIM$STATS.:ZIC0TSI                             FRI 09/05/97 13:06 Page:31

   1831  3 000437   100000 024500                    MVNE
         3 000440   100000 030014                    NDSC9   0,,PR1                   cn=0,s=nosgn,sf=0,n=12
         3 000441   000315 000002 0                  ADSC9   MICRO_DEC12              cn=0,n=2
         3 000442   100000 000014                    ADSC9   0,,PR1                   cn=0,n=12

      187     1832    5                   BUFSTAT$=PINCRC(BUFSTAT$,12);

   1832  3 000443   200004 236100                    LDQ     BUFSTAT$,,AUTO
         3 000444   000003 036003                    ADLQ    3,DU
         3 000445   200004 756100                    STQ     BUFSTAT$,,AUTO

      188     1833    5                   CALL BINCHAR(BUFSTAT,STATS.COUNT.LOCKS(J));

   1833  3 000446   200005 236100                    LDQ     J,,AUTO
         3 000447   000005 402007                    MPY     5,DL
         3 000450   000010 235106                    LDA     8,QL,PR0
         3 000451   000044 773000                    LRL     36
         3 000452   200012 757100                    STAQ    STATS$+4,,AUTO
         3 000453   200004 471500                    LDP1    BUFSTAT$,,AUTO
         3 000454   000100 301500                    BTD
         3 000455   200012 000010                    NDSC9   STATS$+4,,AUTO           cn=0,s=lsgnf,sf=0,n=8
         3 000456   100000 030014                    NDSC9   0,,PR1                   cn=0,s=nosgn,sf=0,n=12

      189     1834    5                   CALL EDITCHAR(BUFSTAT,,,MICRO_DEC12,BUFSTAT);

   1834  3 000457   100000 024500                    MVNE
         3 000460   100000 030014                    NDSC9   0,,PR1                   cn=0,s=nosgn,sf=0,n=12
         3 000461   000315 000002 0                  ADSC9   MICRO_DEC12              cn=0,n=2
         3 000462   100000 000014                    ADSC9   0,,PR1                   cn=0,n=12

      190     1835    5                   CALL M$WRITE(GLOBAL.WRITE$->FPT$WRITE) ALTRET(DTL_ERR);

   1835  3 000463   000000 473400 xsym               LDP3    GLOBAL$
         3 000464   305113 474500                    LDP4    2635,,PR3
         3 000465   400000 630500                    EPPR0   0,,PR4
         3 000466   440001 713400                    CLIMB   alt,write
PL6.E3A0      #001=ZID$STATS File=ZIM$STATS.:ZIC0TSI                             FRI 09/05/97 13:06 Page:32
         3 000467   401400 401760                    pmme    nvectors=4
         3 000470   000507 702000 3                  TSX2    DTL_ERR

      191     1836    5                   END;

      192     1837    4               END;

   1837  3 000471   200005 054100                    AOS     J,,AUTO
         3 000472   200005 235100                    LDA     J,,AUTO
         3 000473   000062 115007                    CMPA    50,DL
         3 000474   000325 604400 3                  TMOZ    s:1816

      193     1838    3           END;

      194     1839    2       STATS='0'B; /* Clear all stats.  Including validity */

   1839  3 000475   200006 470500                    LDP0    STATS$,,AUTO
         3 000476   000100 100400                    MLR     fill='000'O
         3 000477   000011 000001 4                  ADSC9   9                        cn=0,n=1
         3 000500   000000 002324                    ADSC9   0,,PR0                   cn=0,n=1236

      195     1840    2       STATS.VALID=%NO#;

   1840  3 000501   000001 450100                    STZ     1,,PR0

      196     1841    2       STATS.TSTAMP=GLOBAL.TIME.TSTAMP; /* New interval */

   1841  3 000502   000000 471400 xsym               LDP1    GLOBAL$
         3 000503   105001 235100                    LDA     2561,,PR1
         3 000504   000000 755100                    STA     0,,PR0

      197     1842    2       RETURN;

   1842  3 000505   200010 221300                    LDX1  ! STATS$+2,,AUTO
         3 000506   000001 702211                    TSX2  ! 1,X1

   1841  3 000507                       DTL_ERR      null
PL6.E3A0      #001=ZID$STATS File=ZIM$STATS.:ZIC0TSI                             FRI 09/05/97 13:06 Page:33
   1841  3 000507                       HDR_ERR      null
   1841  3 000507                       ER_OPEN      null
   1841  3 000507                       ER_TIME      null
      198     1843        %EJECT;
PL6.E3A0      #001=ZID$STATS File=ZIM$STATS.:ZIC0TSI                             FRI 09/05/97 13:06 Page:34
      199     1844        /* can't output a statistic, return */
      200     1845    2   DTL_ERR: ;
      201     1846        /* can't output header line, return */
      202     1847    2   HDR_ERR: ;
      203     1848    2   ER_OPEN: ; /* Cannot open stats dcb */
      204     1849    2   ER_TIME: ;
      205     1850    2       RETURN;

   1850  3 000507   200010 221300                    LDX1  ! STATS$+2,,AUTO
         3 000510   000001 702211                    TSX2  ! 1,X1

FCN
 Sect OctLoc
   0     000   040040 040040   040040 040040   040040 040040   122117 114114                ROLL
   0     004   102101 103113   040040 040040   110105 122105   055111 055101    BACK    HERE-I-A
   0     010   115040 040040   122105 101104   131040 040040   040040 040040    M   READY
   0     014   106111 116111   123110 040040   040040 040040   123124 117122    FINISH      STOR
   0     020   105040 040040   040040 040040   105122 101123   105040 040040    E       ERASE
   0     024   040040 040040   115117 104111   106131 040040   040040 040040        MODIFY
   0     030   103117 116116   105103 124040   040040 040040   104111 123103    CONNECT     DISC
   0     034   117116 116105   103124 040040   101103 103105   120124 040101    ONNECT  ACCEPT A
   0     040   122105 101040   101103 103105   120124 040103   125122 122040    REA ACCEPT CURR
   0     044   111106 040124   105116 101116   124040 040040   111106 040123    IF TENANT   IF S
   0     050   105124 040040   040040 040040   111106 040115   105115 102105    ET      IF MEMBE
   0     054   122040 040040   106116 104040   125057 113131   040040 040040    R   FND U/KY
   0     060   106116 104040   125057 113131   040103 125122   106116 104040    FND U/KY CURFND
   0     064   104125 120040   040040 040040   106116 104040   103101 114103    DUP     FND CALC
   0     070   040040 040040   106116 104040   104125 120040   103101 114103        FND DUP CALC
   0     074   106116 104040   117127 116105   122040 040040   106116 104040    FND OWNER   FND
   0     100   103125 122040   124131 120105   106116 104040   103125 122040    CUR TYPEFND CUR
   0     104   122125 116040   106116 104040   101102 123040   123105 124040    RUN FND ABS SET
   0     110   106116 104040   101102 123040   101122 105101   106116 104040    FND ABS AREAFND
   0     114   122105 114040   123105 124040   106116 104040   122105 114040    REL SET FND REL
   0     120   101122 105101   106116 104040   104111 122105   103124 040040    AREAFND DIRECT
   0     124   106116 104040   125057 111116   104105 130040   106116 104040    FND U/INDEX FND
   0     130   122105 114040   111116 104130   107105 124040   122105 103117    REL INDXGET RECO
   0     134   122104 040040   107105 124040   106111 105114   104123 040040    RD  GET FIELDS
PL6.E3A0      #001=ZID$STATS File=ZIM$STATS.:ZIC0TSI                             FRI 09/05/97 13:06 Page:35
   0     140   103110 105103   113120 117111   116124 040040   124122 101103    CHECKPOINT  TRAC
   0     144   105040 117116   040040 040040   124122 101103   105040 117106    E ON    TRACE OF
   0     150   106040 040040   123124 101124   123040 117116   040040 040040    F   STATS ON
   0     154   123124 101124   123040 117106   106040 040040   123110 101122    STATS OFF   SHAR
   0     160   105040 111116   040040 040040   123110 101122   105040 101114    E IN    SHARE AL
   0     164   114040 040040   123110 101122   105040 116117   116105 040040    L   SHARE NONE
   0     170   105116 103122   131120 124111   117116 040040   122105 120117    ENCRYPTION  REPO
   0     174   122124 040123   124101 124123   123110 101122   105040 103125    RT STATSSHARE CU
   0     200   122040 040040   102125 106106   105122 123040   040040 040040    R   BUFFERS
   0     204   120122 111126   101103 131040   040040 040040   111116 111124    PRIVACY     INIT
   0     210   111101 114111   132105 040040   123110 101122   105040 101116    IALIZE  SHARE AN
   0     214   131040 040040   103101 114103   040040 040040   040040 040040    Y   CALC
   0     220   113105 105120   040040 040040   040040 040040   122105 104125    KEEP        REDU
   0     224   103105 121040   040040 040040   123110 101122   105111 116040    CEQ     SHAREIN
   0     230   103125 122040                                                    CUR

H1
 Sect OctLoc
   0     231   101052 040040   040052 040040   040052 040040   040052 040040    A*   *   *   *
   0     235   040052 040040   040052 040040   040052 040040   123105 122126     *   *   *  SERV
   0     241   111103 105040   123124 101124   111123 124111   103123 040040    ICE STATISTICS
   0     245   052040 040040   052040 040040   052040 040040   052040 040040    *   *   *   *
   0     251   052040 040040   052040 040040   052*** ******                    *   *   *...

H2
 Sect OctLoc
   0     254   102106 165156   143164 151157   156040 040040   040040 040040    BFunction
   0     260   040040 040040   103141 154154   163040 040040   040040 040040        Calls
   0     264   122145 141144   163040 040040   040040 040127   162151 164145    Reads      Write
   0     270   163040 040040   040040 040040   040105 156161   163040 040040    s        Enqs
   0     274   104145 141144   154157 143153   163*** ******                    Deadlocks...

HUSER
 Sect OctLoc
   0     277   060125 123105   122040 122105   121125 105123   124105 104040    0USER REQUESTED
   0     303   123124 101124   111123 124111   103123 ******                    STATISTICS..

PL6.E3A0      #001=ZID$STATS File=ZIM$STATS.:ZIC0TSI                             FRI 09/05/97 13:06 Page:36
HDBCS
 Sect OctLoc
   0     306   060104 102103   123040 104101   124101 102101   123105 040123    0DBCS DATABASE S
   0     312   124101 124111   123124 111103   123*** ******                    TATISTICS...

MICRO_DEC12
 Sect OctLoc
   0     315   113321 ******                                                    K...

(unnamed)
 Sect OctLoc
   0     316   123124 101124   123040 040040   116117 040040   160141 147145    STATS   NO  page
   0     322   040150 151164   163040 167151   164150 040130   130130 040142     hits with XXX b
   0     326   165146 146145   162163 056040   111057 117040   141164 164145    uffers. I/O atte
   0     332   155160 164163   056040 040040                                    mpts.

(unnamed)
 Sect OctLoc
   4     000   777777 777777   757777 777777   000001 000000   000320 006000    ................
   4     004   103040 040040   005030 400000   005034 200000   005025 200000    C   ............
   4     010   101040 040040   000000 000000                                    A   ....
      206     1851    2   END;
      207     1852    1   END ZID$STATS;
      208     1853        %EOD;

PL6.E3A0      #001=ZID$STATS File=ZIM$STATS.:ZIC0TSI                             FRI 09/05/97 13:06 Page:37
--  Include file information  --

   ZI$GLOBAL.:ZIC0TOU  is referenced.
   B_MICROPS_C.:LIB_E05  is referenced.
   CP_6_SUBS.:LIB_E05  is referenced.
   CP_6.:LIB_E05  cannot be made into a system file and is referenced.
   B$JIT_C.:E05TOU  was found in the system file and is never referenced.
   CP_6_C.:E05TOU  was found in the system file and is referenced.
      No diagnostics issued in procedure ZID$STATS.

   Procedure ZID$STATS requires 329 words for executable code.
   Procedure ZID$STATS requires 12 words of local(AUTO) storage.
PL6.E3A0      #001=ZID$STATS File=ZIM$STATS.:ZIC0TSI                             FRI 09/05/97 13:06 Page:38
          *** CROSS REFERENCE LISTING ***
**     DENOTES     IDENTIFIER DEFINITION
<<                 IDENTIFIER'S VALUE SET
>>                 IDENTIFIER'S VALUE USED
<>                 IDENTIFIER SET AND/OR USED
--                 IDENTIFIER REFERENCED
PL6.E3A0      #001=ZID$STATS File=ZIM$STATS.:ZIC0TSI                             FRI 09/05/97 13:06 Page:39
          MINI XREF LISTING

BUFSTAT
      1738**DCL      1801<<CALLBLT  1802<<CALLBLT  1802>>CALLBLT  1807<<CALLBLT  1808<<CALLBLT  1808>>CALLBLT
      1819<<ASSIGN   1821<<CALLBLT  1822<<CALLBLT  1822>>CALLBLT  1824<<CALLBLT  1825<<CALLBLT  1825>>CALLBLT
      1827<<CALLBLT  1828<<CALLBLT  1828>>CALLBLT  1830<<CALLBLT  1831<<CALLBLT  1831>>CALLBLT  1833<<CALLBLT
      1834<<CALLBLT  1834>>CALLBLT
BUFSTAT$
        15**DCL      1738--IMP-PTR  1796<<ASSIGN   1797>>ASSIGN   1798<<ASSIGN   1799>>CALLBLT  1800<<ASSIGN
      1801>>CALLBLT  1802>>CALLBLT  1802>>CALLBLT  1804<<ASSIGN   1805>>ASSIGN   1806<<ASSIGN   1807>>CALLBLT
      1808>>CALLBLT  1808>>CALLBLT  1818<<ASSIGN   1819>>ASSIGN   1820<<ASSIGN   1820>>ASSIGN   1821>>CALLBLT
      1822>>CALLBLT  1822>>CALLBLT  1823<<ASSIGN   1823>>ASSIGN   1824>>CALLBLT  1825>>CALLBLT  1825>>CALLBLT
      1826<<ASSIGN   1826>>ASSIGN   1827>>CALLBLT  1828>>CALLBLT  1828>>CALLBLT  1829<<ASSIGN   1829>>ASSIGN
      1830>>CALLBLT  1831>>CALLBLT  1831>>CALLBLT  1832<<ASSIGN   1832>>ASSIGN   1833>>CALLBLT  1834>>CALLBLT
      1834>>CALLBLT
DTL_ERR IN PROCEDURE SVCSTATS
      1841**LABEL    1803--CALLALT  1809--CALLALT  1835--CALLALT
ER_OPEN IN PROCEDURE SVCSTATS
      1841**LABEL    1789--CALLALT
ER_TIME
      1765**LABEL    1762--CALLALT
ER_TIME IN PROCEDURE SVCSTATS
      1841**LABEL    1774--CALLALT  1778--CALLALT  1779--CALLALT
FCN.NAME
        22**DCL      1819>>ASSIGN
FPT$TIME
       204**DCL      1762<>CALL     1774<>CALL     1778<>CALL     1779<>CALL
FPT$WRITE
       179**DCL      1793<>CALL     1795<>CALL     1803<>CALL     1809<>CALL     1811<>CALL     1813<>CALL
      1835<>CALL
FPT$WRITE.STATION_
       181**DCL       181--REDEF
FPT$WRITE.V.DCB#
       182**DCL      1792<<ASSIGN
PL6.E3A0      #001=ZID$STATS File=ZIM$STATS.:ZIC0TSI                             FRI 09/05/97 13:06 Page:40
FPT$WRITE.V.DVBYTE.VFC#
       188**DCL       188--REDEF
GLOBAL.ACTIVE.DBCB$
      1420**DCL      1421--REDEF
GLOBAL.ACTIVE.SSS$
      1416**DCL      1417--REDEF
GLOBAL.BCB.COUNT
      1523**DCL      1799>>CALLBLT
GLOBAL.DCBNAME.LENGTH
      1635**DCL      1788<<ASSIGN
GLOBAL.DCBNAME.TEXT
      1636**DCL      1787<<ASSIGN
GLOBAL.DCBNUMBER
      1623**DCL      1790>>ASSIGN
GLOBAL.KEY
      1624**DCL      1627--REDEF
GLOBAL.PARAN.TRACE.MODE
      1499**DCL      1506--REDEF
GLOBAL.PENDING.STATS
      1451**DCL      1765<<ASSIGN   1768<<ASSIGN
GLOBAL.PRINTBUF.BUFFER
      1658**DCL      1659--REDEF    1660--REDEF    1661--REDEF    1742<<ASSIGN   1753<<ASSIGN   1772<<CALLBLT
      1775<<CALLBLT  1777<<CALLBLT  1780<<CALLBLT  1782<<CALLBLT  1794<<ASSIGN   1796--ASSIGN   1798--ASSIGN
      1800--ASSIGN   1804--ASSIGN   1806--ASSIGN   1810<<ASSIGN   1812<<ASSIGN   1814<<ASSIGN   1818--ASSIGN
GLOBAL.PRINTBUF.ERR.V
      1663**DCL      1666--REDEF    1667--REDEF    1668--REDEF
GLOBAL.STATS.DBCS
      1578**DCL      1743--ASSIGN
GLOBAL.STATS.DCB#
      1600**DCL      1785>>IF       1790<<ASSIGN   1792>>ASSIGN
GLOBAL.STATS.USER
      1589**DCL      1754--ASSIGN   1759--ASSIGN
GLOBAL.TIME.DATE
      1648**DCL      1777>>CALLBLT  1782>>CALLBLT
GLOBAL.TIME.TIME
      1649**DCL      1775>>CALLBLT  1780>>CALLBLT
PL6.E3A0      #001=ZID$STATS File=ZIM$STATS.:ZIC0TSI                             FRI 09/05/97 13:06 Page:41
GLOBAL.TIME.TSTAMP
      1647**DCL      1763>>ASSIGN   1773<<ASSIGN   1841>>ASSIGN
GLOBAL.TIME$
      1696**DCL      1762>>CALL     1778>>CALL
GLOBAL.TIMEC$
      1697**DCL      1774>>CALL     1779>>CALL
GLOBAL.WRITE$
      1692**DCL      1792>>ASSIGN   1793>>CALL     1795>>CALL     1803>>CALL     1809>>CALL     1811>>CALL
      1813>>CALL     1835>>CALL
GLOBAL$
      1718**DCL      1414--IMP-PTR  1742>>ASSIGN   1743>>ASSIGN   1753>>ASSIGN   1754>>ASSIGN   1759>>ASSIGN
      1762>>CALL     1763>>ASSIGN   1765>>ASSIGN   1768>>ASSIGN   1772>>CALLBLT  1773>>ASSIGN   1774>>CALL
      1775>>CALLBLT  1775>>CALLBLT  1777>>CALLBLT  1777>>CALLBLT  1778>>CALL     1779>>CALL     1780>>CALLBLT
      1780>>CALLBLT  1782>>CALLBLT  1782>>CALLBLT  1785>>IF       1787>>ASSIGN   1788>>ASSIGN   1790>>ASSIGN
      1790>>ASSIGN   1792>>ASSIGN   1792>>ASSIGN   1793>>CALL     1794>>ASSIGN   1795>>CALL     1796>>ASSIGN
      1798>>ASSIGN   1799>>CALLBLT  1800>>ASSIGN   1803>>CALL     1804>>ASSIGN   1806>>ASSIGN   1809>>CALL
      1810>>ASSIGN   1811>>CALL     1812>>ASSIGN   1813>>CALL     1814>>ASSIGN   1818>>ASSIGN   1835>>CALL
      1841>>ASSIGN
H1
        74**DCL      1810>>ASSIGN
H2
        76**DCL      1812>>ASSIGN
HDBCS
        79**DCL      1742>>ASSIGN
HDR_ERR IN PROCEDURE SVCSTATS
      1841**LABEL    1793--CALLALT  1795--CALLALT  1811--CALLALT  1813--CALLALT
HUSER
        78**DCL      1753>>ASSIGN
J
        16**DCL      1815<<DOINDEX  1816>>IF       1819>>ASSIGN   1821>>CALLBLT  1824>>CALLBLT  1827>>CALLBLT
      1830>>CALLBLT  1833>>CALLBLT
M$TIME
       157**DCL-ENT  1762--CALL     1774--CALL     1778--CALL     1779--CALL
M$WRITE
        91**DCL-ENT  1793--CALL     1795--CALL     1803--CALL     1809--CALL     1811--CALL     1813--CALL
      1835--CALL
PL6.E3A0      #001=ZID$STATS File=ZIM$STATS.:ZIC0TSI                             FRI 09/05/97 13:06 Page:42
MICRO_DEC12
       924**DCL      1802>>CALLBLT  1808>>CALLBLT  1822>>CALLBLT  1825>>CALLBLT  1828>>CALLBLT  1831>>CALLBLT
      1834>>CALLBLT
STATS
      1725**DCL      1839<<ASSIGN
STATS.COUNT.CALLS
      1731**DCL      1816>>IF       1821>>CALLBLT
STATS.COUNT.ENQS
      1734**DCL      1830>>CALLBLT
STATS.COUNT.LOCKS
      1735**DCL      1833>>CALLBLT
STATS.COUNT.READS
      1732**DCL      1824>>CALLBLT
STATS.COUNT.WRITES
      1733**DCL      1827>>CALLBLT
STATS.HITS
      1729**DCL      1801>>CALLBLT
STATS.REQS
      1728**DCL      1807>>CALLBLT
STATS.TSTAMP
      1726**DCL      1763<<ASSIGN   1773>>ASSIGN   1841<<ASSIGN
STATS.VALID
      1727**DCL      1760>>IF       1783>>IF       1840<<ASSIGN
STATS$
      1737**DCL      1725--IMP-PTR  1743<<ASSIGN   1754<<ASSIGN   1759<<ASSIGN   1760>>IF       1763>>ASSIGN
      1773>>ASSIGN   1783>>IF       1801>>CALLBLT  1807>>CALLBLT  1816>>IF       1821>>CALLBLT  1824>>CALLBLT
      1827>>CALLBLT  1830>>CALLBLT  1833>>CALLBLT  1839>>ASSIGN   1840>>ASSIGN   1841>>ASSIGN
STRING3
      1739**DCL      1799<<CALLBLT
STRING30
      1740**DCL      1797<<ASSIGN   1805<<ASSIGN
SVCSTATS
      1771**PROC     1744--CALL     1755--CALL
ZIO$DFLTOPN
        13**DCL-ENT  1789--CALL

PL6.E3A0      #002=ZID$ASTATS File=ZIM$STATS.:ZIC0TSI                            FRI 09/05/97 13:06 Page:43
      209        1        /*T***********************************************************/
      210        2        /*T*                                                         */
      211        3        /*T* Copyright (c) Bull HN Information Systems Inc., 1997    */
      212        4        /*T*                                                         */
      213        5        /*T***********************************************************/
      214        6        ZID$ASTATS: PROC
      215        7         /* USE($PR5 FOR GLOBAL$) */
      216        8               AVOID($PR5,$PR6,$PR7,$X5,$X6,$X7);
      217        9        %INCLUDE ZI$GLOBAL;
      218      495            %GLOBALS;
      219      803            %STATS;
      220      819        %INCLUDE CP_6_SUBS;
      221     1359    1   DCL STATS$ PTR;
      222     1360    1       STATS$=ADDR(GLOBAL.STATS.DBCS);
      223     1361    1       STATS.VALID=%YES#;
      224     1362    1       STATS.REQS=STATS.REQS+GLOBAL.STATS.CURR.REQS;
      225     1363    1       STATS.HITS=STATS.HITS+GLOBAL.STATS.CURR.HITS;
      226     1364    1       STATS.COUNT.CALLS(GLOBAL.FCN.CODE)=
      227     1365    1          STATS.COUNT.CALLS(GLOBAL.FCN.CODE)+1;
      228     1366    1       STATS.COUNT.READS(GLOBAL.FCN.CODE)=
      229     1367    1          STATS.COUNT.READS(GLOBAL.FCN.CODE)+GLOBAL.STATS.CURR.READS;
      230     1368    1       STATS.COUNT.WRITES(GLOBAL.FCN.CODE)=
      231     1369    1          STATS.COUNT.WRITES(GLOBAL.FCN.CODE)+GLOBAL.STATS.CURR.WRITES;
      232     1370    1       STATS.COUNT.ENQS(GLOBAL.FCN.CODE)=
      233     1371    1          STATS.COUNT.ENQS(GLOBAL.FCN.CODE)+GLOBAL.STATS.CURR.ENQS;
      234     1372    1       STATS.COUNT.LOCKS(GLOBAL.FCN.CODE)=
      235     1373    1          STATS.COUNT.LOCKS(GLOBAL.FCN.CODE)+GLOBAL.STATS.CURR.LOCKS;
      236     1374    1       IF GLOBAL.PENDING.STATS=%YES# THEN
      237     1375    2       DO;
      238     1376    2           STATS$=ADDR(GLOBAL.STATS.USER);
      239     1377    2           STATS.VALID=%YES#;
      240     1378    2           STATS.REQS=STATS.REQS+GLOBAL.STATS.CURR.REQS;
      241     1379    2           STATS.HITS=STATS.HITS+GLOBAL.STATS.CURR.HITS;
      242     1380    2           STATS.COUNT.CALLS(GLOBAL.FCN.CODE)=
      243     1381    2              STATS.COUNT.CALLS(GLOBAL.FCN.CODE)+1;
      244     1382    2           STATS.COUNT.READS(GLOBAL.FCN.CODE)=
      245     1383    2              STATS.COUNT.READS(GLOBAL.FCN.CODE)+GLOBAL.STATS.CURR.READS;
PL6.E3A0      #002=ZID$ASTATS File=ZIM$STATS.:ZIC0TSI                            FRI 09/05/97 13:06 Page:44
      246     1384    2           STATS.COUNT.WRITES(GLOBAL.FCN.CODE)=
      247     1385    2              STATS.COUNT.WRITES(GLOBAL.FCN.CODE)+GLOBAL.STATS.CURR.WRITES;
      248     1386    2           STATS.COUNT.ENQS(GLOBAL.FCN.CODE)=
      249     1387    2              STATS.COUNT.ENQS(GLOBAL.FCN.CODE)+GLOBAL.STATS.CURR.ENQS;
      250     1388    2           STATS.COUNT.LOCKS(GLOBAL.FCN.CODE)=
      251     1389    2              STATS.COUNT.LOCKS(GLOBAL.FCN.CODE)+GLOBAL.STATS.CURR.LOCKS;
      252     1390    2           END;
      253     1391    1       GLOBAL.STATS.CURR.REQS=0;
      254     1392    1       GLOBAL.STATS.CURR.HITS=0;
      255     1393    1       GLOBAL.STATS.CURR.READS=0;
      256     1394    1       GLOBAL.STATS.CURR.WRITES=0;
      257     1395    1       GLOBAL.STATS.CURR.ENQS=0;
      258     1396    1       GLOBAL.STATS.CURR.LOCKS=0;
      259     1397    1       RETURN;
      260     1398    1   END ZID$ASTATS;

PL6.E3A0      #002=ZID$ASTATS File=ZIM$STATS.:ZIC0TSI                            FRI 09/05/97 13:06 Page:45
--  Include file information  --

   CP_6_SUBS.:LIB_E05  is referenced.
   ZI$GLOBAL.:ZIC0TOU  is referenced.
   B$JIT_C.:E05TOU  was found in the system file and is never referenced.
   CP_6_C.:E05TOU  was found in the system file and is never referenced.
      No diagnostics issued in procedure ZID$ASTATS.

   Procedure ZID$ASTATS requires 105 words for executable code.
   Procedure ZID$ASTATS requires 4 words of local(AUTO) storage.

    No errors detected in file ZIM$STATS.:ZIC0TSI    .

PL6.E3A0      #002=ZID$ASTATS File=ZIM$STATS.:ZIC0TSI                            FRI 09/05/97 13:06 Page:46

 Object Unit name= ZID$ASTATS                                 File name= ZIM$STATS.:ZIC0TOU
 UTS= SEP 05 '97 13:06:18.84 FRI                              Compiler= PL-6/E31         Sev=      00
 SharedLib= :SHARED_SYSTEM                                    Alt SharedLib=


    ****  Control sections  ****

 Sect   Type Bound  Init  Size OctSiz  Section name(segment info)
    0   Proc  even  none   105    151  ZID$ASTATS

    ****  Entry defs  ****

                              Check   Calling
                             calling  sequence
  Sect OctLoc Primary Altret sequence   type   Parms  Name
     0      0   yes            yes      XStd       0  ZID$ASTATS

  ****  Entry refs  ****

         Check        Calling
        calling       sequence
Altret sequence SRef   type   Args  Name
                       nStd      0 X66_AUTO_0
                       nStd      0 X66_ARET

  ****  Data refs  ****

  Flags:  r = read only, s = secondary
Flgs Name                             Flgs Name                             Flgs Name
r    GLOBAL$
PL6.E3A0      #002=ZID$ASTATS File=ZIM$STATS.:ZIC0TSI                            FRI 09/05/97 13:06 Page:47


      209        1        /*T***********************************************************/
      210        2        /*T*                                                         */
      211        3        /*T* Copyright (c) Bull HN Information Systems Inc., 1997    */
      212        4        /*T*                                                         */
      213        5        /*T***********************************************************/
      214        6        ZID$ASTATS: PROC

      6  0 000000   000000 700200 xent  ZID$ASTATS   TSX0  ! X66_AUTO_0
         0 000001   000004 000000                    ZERO    4,0

      215        7         /* USE($PR5 FOR GLOBAL$) */
      216        8               AVOID($PR5,$PR6,$PR7,$X5,$X6,$X7);
      217        9        %INCLUDE ZI$GLOBAL;
      218      495            %GLOBALS;
      219      803            %STATS;
      220      819        %INCLUDE CP_6_SUBS;
      221     1359    1   DCL STATS$ PTR;
      222     1360    1       STATS$=ADDR(GLOBAL.STATS.DBCS);

   1360  0 000002   000000 236000 xsym               LDQ     GLOBAL$
         0 000003   001431 036003                    ADLQ    793,DU
         0 000004   200003 756100                    STQ     STATS$,,AUTO

      223     1361    1       STATS.VALID=%YES#;

   1361  0 000005   400000 236003                    LDQ     -131072,DU
         0 000006   200003 470500                    LDP0    STATS$,,AUTO
         0 000007   000001 756100                    STQ     1,,PR0

      224     1362    1       STATS.REQS=STATS.REQS+GLOBAL.STATS.CURR.REQS;

   1362  0 000010   000000 471400 xsym               LDP1    GLOBAL$
         0 000011   000002 236100                    LDQ     2,,PR0
         0 000012   101423 036100                    ADLQ    787,,PR1
         0 000013   000002 756100                    STQ     2,,PR0

PL6.E3A0      #002=ZID$ASTATS File=ZIM$STATS.:ZIC0TSI                            FRI 09/05/97 13:06 Page:48
      225     1363    1       STATS.HITS=STATS.HITS+GLOBAL.STATS.CURR.HITS;

   1363  0 000014   000003 236100                    LDQ     3,,PR0
         0 000015   101424 036100                    ADLQ    788,,PR1
         0 000016   000003 756100                    STQ     3,,PR0

      226     1364    1       STATS.COUNT.CALLS(GLOBAL.FCN.CODE)=

   1364  0 000017   100004 236100                    LDQ     4,,PR1
         0 000020   777777 376007                    ANQ     -1,DL
         0 000021   000005 402007                    MPY     5,DL
         0 000022   000004 235106                    LDA     4,QL,PR0
         0 000023   000001 035007                    ADLA    1,DL
         0 000024   000004 755106                    STA     4,QL,PR0

      227     1365    1          STATS.COUNT.CALLS(GLOBAL.FCN.CODE)+1;
      228     1366    1       STATS.COUNT.READS(GLOBAL.FCN.CODE)=

   1366  0 000025   100004 236100                    LDQ     4,,PR1
         0 000026   777777 376007                    ANQ     -1,DL
         0 000027   000005 402007                    MPY     5,DL
         0 000030   000000 620006                    EAX0    0,QL
         0 000031   000005 236106                    LDQ     5,QL,PR0
         0 000032   101425 036100                    ADLQ    789,,PR1
         0 000033   000005 756110                    STQ     5,X0,PR0

      229     1367    1          STATS.COUNT.READS(GLOBAL.FCN.CODE)+GLOBAL.STATS.CURR.READS;
      230     1368    1       STATS.COUNT.WRITES(GLOBAL.FCN.CODE)=

   1368  0 000034   100004 236100                    LDQ     4,,PR1
         0 000035   777777 376007                    ANQ     -1,DL
         0 000036   000005 402007                    MPY     5,DL
         0 000037   000000 620006                    EAX0    0,QL
         0 000040   000006 236106                    LDQ     6,QL,PR0
         0 000041   101426 036100                    ADLQ    790,,PR1
         0 000042   000006 756110                    STQ     6,X0,PR0

PL6.E3A0      #002=ZID$ASTATS File=ZIM$STATS.:ZIC0TSI                            FRI 09/05/97 13:06 Page:49
      231     1369    1          STATS.COUNT.WRITES(GLOBAL.FCN.CODE)+GLOBAL.STATS.CURR.WRITES;
      232     1370    1       STATS.COUNT.ENQS(GLOBAL.FCN.CODE)=

   1370  0 000043   100004 236100                    LDQ     4,,PR1
         0 000044   777777 376007                    ANQ     -1,DL
         0 000045   000005 402007                    MPY     5,DL
         0 000046   000000 620006                    EAX0    0,QL
         0 000047   000007 236106                    LDQ     7,QL,PR0
         0 000050   101427 036100                    ADLQ    791,,PR1
         0 000051   000007 756110                    STQ     7,X0,PR0

      233     1371    1          STATS.COUNT.ENQS(GLOBAL.FCN.CODE)+GLOBAL.STATS.CURR.ENQS;
      234     1372    1       STATS.COUNT.LOCKS(GLOBAL.FCN.CODE)=

   1372  0 000052   100004 236100                    LDQ     4,,PR1
         0 000053   777777 376007                    ANQ     -1,DL
         0 000054   000005 402007                    MPY     5,DL
         0 000055   000000 620006                    EAX0    0,QL
         0 000056   000010 236106                    LDQ     8,QL,PR0
         0 000057   101430 036100                    ADLQ    792,,PR1
         0 000060   000010 756110                    STQ     8,X0,PR0

      235     1373    1          STATS.COUNT.LOCKS(GLOBAL.FCN.CODE)+GLOBAL.STATS.CURR.LOCKS;
      236     1374    1       IF GLOBAL.PENDING.STATS=%YES# THEN

   1374  0 000061   100017 236100                    LDQ     15,,PR1
         0 000062   020000 316003                    CANQ    8192,DU
         0 000063   000142 600000 0                  TZE     s:1391

      237     1375    2       DO;

      238     1376    2           STATS$=ADDR(GLOBAL.STATS.USER);

   1376  0 000064   000000 236000 xsym               LDQ     GLOBAL$
         0 000065   002116 036003                    ADLQ    1102,DU
         0 000066   200003 756100                    STQ     STATS$,,AUTO

PL6.E3A0      #002=ZID$ASTATS File=ZIM$STATS.:ZIC0TSI                            FRI 09/05/97 13:06 Page:50
      239     1377    2           STATS.VALID=%YES#;

   1377  0 000067   400000 236003                    LDQ     -131072,DU
         0 000070   200003 470500                    LDP0    STATS$,,AUTO
         0 000071   000001 756100                    STQ     1,,PR0

      240     1378    2           STATS.REQS=STATS.REQS+GLOBAL.STATS.CURR.REQS;

   1378  0 000072   000002 236100                    LDQ     2,,PR0
         0 000073   101423 036100                    ADLQ    787,,PR1
         0 000074   000002 756100                    STQ     2,,PR0

      241     1379    2           STATS.HITS=STATS.HITS+GLOBAL.STATS.CURR.HITS;

   1379  0 000075   000003 236100                    LDQ     3,,PR0
         0 000076   101424 036100                    ADLQ    788,,PR1
         0 000077   000003 756100                    STQ     3,,PR0

      242     1380    2           STATS.COUNT.CALLS(GLOBAL.FCN.CODE)=

   1380  0 000100   100004 236100                    LDQ     4,,PR1
         0 000101   777777 376007                    ANQ     -1,DL
         0 000102   000005 402007                    MPY     5,DL
         0 000103   000004 235106                    LDA     4,QL,PR0
         0 000104   000001 035007                    ADLA    1,DL
         0 000105   000004 755106                    STA     4,QL,PR0

      243     1381    2              STATS.COUNT.CALLS(GLOBAL.FCN.CODE)+1;
      244     1382    2           STATS.COUNT.READS(GLOBAL.FCN.CODE)=

   1382  0 000106   100004 236100                    LDQ     4,,PR1
         0 000107   777777 376007                    ANQ     -1,DL
         0 000110   000005 402007                    MPY     5,DL
         0 000111   000000 620006                    EAX0    0,QL
         0 000112   000005 236106                    LDQ     5,QL,PR0
         0 000113   101425 036100                    ADLQ    789,,PR1
         0 000114   000005 756110                    STQ     5,X0,PR0
PL6.E3A0      #002=ZID$ASTATS File=ZIM$STATS.:ZIC0TSI                            FRI 09/05/97 13:06 Page:51

      245     1383    2              STATS.COUNT.READS(GLOBAL.FCN.CODE)+GLOBAL.STATS.CURR.READS;
      246     1384    2           STATS.COUNT.WRITES(GLOBAL.FCN.CODE)=

   1384  0 000115   100004 236100                    LDQ     4,,PR1
         0 000116   777777 376007                    ANQ     -1,DL
         0 000117   000005 402007                    MPY     5,DL
         0 000120   000000 620006                    EAX0    0,QL
         0 000121   000006 236106                    LDQ     6,QL,PR0
         0 000122   101426 036100                    ADLQ    790,,PR1
         0 000123   000006 756110                    STQ     6,X0,PR0

      247     1385    2              STATS.COUNT.WRITES(GLOBAL.FCN.CODE)+GLOBAL.STATS.CURR.WRITES;
      248     1386    2           STATS.COUNT.ENQS(GLOBAL.FCN.CODE)=

   1386  0 000124   100004 236100                    LDQ     4,,PR1
         0 000125   777777 376007                    ANQ     -1,DL
         0 000126   000005 402007                    MPY     5,DL
         0 000127   000000 620006                    EAX0    0,QL
         0 000130   000007 236106                    LDQ     7,QL,PR0
         0 000131   101427 036100                    ADLQ    791,,PR1
         0 000132   000007 756110                    STQ     7,X0,PR0

      249     1387    2              STATS.COUNT.ENQS(GLOBAL.FCN.CODE)+GLOBAL.STATS.CURR.ENQS;
      250     1388    2           STATS.COUNT.LOCKS(GLOBAL.FCN.CODE)=

   1388  0 000133   100004 236100                    LDQ     4,,PR1
         0 000134   777777 376007                    ANQ     -1,DL
         0 000135   000005 402007                    MPY     5,DL
         0 000136   000000 620006                    EAX0    0,QL
         0 000137   000010 236106                    LDQ     8,QL,PR0
         0 000140   101430 036100                    ADLQ    792,,PR1
         0 000141   000010 756110                    STQ     8,X0,PR0

      251     1389    2              STATS.COUNT.LOCKS(GLOBAL.FCN.CODE)+GLOBAL.STATS.CURR.LOCKS;
      252     1390    2           END;

PL6.E3A0      #002=ZID$ASTATS File=ZIM$STATS.:ZIC0TSI                            FRI 09/05/97 13:06 Page:52
      253     1391    1       GLOBAL.STATS.CURR.REQS=0;

   1391  0 000142   101423 450100                    STZ     787,,PR1

      254     1392    1       GLOBAL.STATS.CURR.HITS=0;

   1392  0 000143   101424 450100                    STZ     788,,PR1

      255     1393    1       GLOBAL.STATS.CURR.READS=0;

   1393  0 000144   101425 450100                    STZ     789,,PR1

      256     1394    1       GLOBAL.STATS.CURR.WRITES=0;

   1394  0 000145   101426 450100                    STZ     790,,PR1

      257     1395    1       GLOBAL.STATS.CURR.ENQS=0;

   1395  0 000146   101427 450100                    STZ     791,,PR1

      258     1396    1       GLOBAL.STATS.CURR.LOCKS=0;

   1396  0 000147   101430 450100                    STZ     792,,PR1

      259     1397    1       RETURN;

   1397  0 000150   000000 702200 xent               TSX2  ! X66_ARET
      260     1398    1   END ZID$ASTATS;

PL6.E3A0      #002=ZID$ASTATS File=ZIM$STATS.:ZIC0TSI                            FRI 09/05/97 13:06 Page:53
--  Include file information  --

   CP_6_SUBS.:LIB_E05  is referenced.
   ZI$GLOBAL.:ZIC0TOU  is referenced.
   B$JIT_C.:E05TOU  was found in the system file and is never referenced.
   CP_6_C.:E05TOU  was found in the system file and is never referenced.
      No diagnostics issued in procedure ZID$ASTATS.

   Procedure ZID$ASTATS requires 105 words for executable code.
   Procedure ZID$ASTATS requires 4 words of local(AUTO) storage.

    No errors detected in file ZIM$STATS.:ZIC0TSI    .
PL6.E3A0      #002=ZID$ASTATS File=ZIM$STATS.:ZIC0TSI                            FRI 09/05/97 13:06 Page:54
          *** CROSS REFERENCE LISTING ***
**     DENOTES     IDENTIFIER DEFINITION
<<                 IDENTIFIER'S VALUE SET
>>                 IDENTIFIER'S VALUE USED
<>                 IDENTIFIER SET AND/OR USED
--                 IDENTIFIER REFERENCED
PL6.E3A0      #002=ZID$ASTATS File=ZIM$STATS.:ZIC0TSI                            FRI 09/05/97 13:06 Page:55
          MINI XREF LISTING

GLOBAL.ACTIVE.DBCB$
       502**DCL       503--REDEF
GLOBAL.ACTIVE.SSS$
       498**DCL       499--REDEF
GLOBAL.FCN.CODE
       511**DCL      1364>>ASSIGN   1364>>ASSIGN   1366>>ASSIGN   1366>>ASSIGN   1368>>ASSIGN   1368>>ASSIGN
      1370>>ASSIGN   1370>>ASSIGN   1372>>ASSIGN   1372>>ASSIGN   1380>>ASSIGN   1380>>ASSIGN   1382>>ASSIGN
      1382>>ASSIGN   1384>>ASSIGN   1384>>ASSIGN   1386>>ASSIGN   1386>>ASSIGN   1388>>ASSIGN   1388>>ASSIGN
GLOBAL.KEY
       706**DCL       709--REDEF
GLOBAL.PARAN.TRACE.MODE
       581**DCL       588--REDEF
GLOBAL.PENDING.STATS
       533**DCL      1374>>IF
GLOBAL.PRINTBUF.BUFFER
       740**DCL       741--REDEF     742--REDEF     743--REDEF
GLOBAL.PRINTBUF.ERR.V
       745**DCL       748--REDEF     749--REDEF     750--REDEF
GLOBAL.STATS.CURR.ENQS
       658**DCL      1370>>ASSIGN   1386>>ASSIGN   1395<<ASSIGN
GLOBAL.STATS.CURR.HITS
       655**DCL      1363>>ASSIGN   1379>>ASSIGN   1392<<ASSIGN
GLOBAL.STATS.CURR.LOCKS
       659**DCL      1372>>ASSIGN   1388>>ASSIGN   1396<<ASSIGN
GLOBAL.STATS.CURR.READS
       656**DCL      1366>>ASSIGN   1382>>ASSIGN   1393<<ASSIGN
GLOBAL.STATS.CURR.REQS
       654**DCL      1362>>ASSIGN   1378>>ASSIGN   1391<<ASSIGN
GLOBAL.STATS.CURR.WRITES
       657**DCL      1368>>ASSIGN   1384>>ASSIGN   1394<<ASSIGN
GLOBAL.STATS.DBCS
       660**DCL      1360--ASSIGN
PL6.E3A0      #002=ZID$ASTATS File=ZIM$STATS.:ZIC0TSI                            FRI 09/05/97 13:06 Page:56
GLOBAL.STATS.USER
       671**DCL      1376--ASSIGN
GLOBAL$
       800**DCL       496--IMP-PTR  1360>>ASSIGN   1362>>ASSIGN   1363>>ASSIGN   1364>>ASSIGN   1364>>ASSIGN
      1366>>ASSIGN   1366>>ASSIGN   1366>>ASSIGN   1368>>ASSIGN   1368>>ASSIGN   1368>>ASSIGN   1370>>ASSIGN
      1370>>ASSIGN   1370>>ASSIGN   1372>>ASSIGN   1372>>ASSIGN   1372>>ASSIGN   1374>>IF       1376>>ASSIGN
      1378>>ASSIGN   1379>>ASSIGN   1380>>ASSIGN   1380>>ASSIGN   1382>>ASSIGN   1382>>ASSIGN   1382>>ASSIGN
      1384>>ASSIGN   1384>>ASSIGN   1384>>ASSIGN   1386>>ASSIGN   1386>>ASSIGN   1386>>ASSIGN   1388>>ASSIGN
      1388>>ASSIGN   1388>>ASSIGN   1391>>ASSIGN   1392>>ASSIGN   1393>>ASSIGN   1394>>ASSIGN   1395>>ASSIGN
      1396>>ASSIGN
STATS.COUNT.CALLS
       813**DCL      1364<<ASSIGN   1364>>ASSIGN   1380<<ASSIGN   1380>>ASSIGN
STATS.COUNT.ENQS
       816**DCL      1370<<ASSIGN   1370>>ASSIGN   1386<<ASSIGN   1386>>ASSIGN
STATS.COUNT.LOCKS
       817**DCL      1372<<ASSIGN   1372>>ASSIGN   1388<<ASSIGN   1388>>ASSIGN
STATS.COUNT.READS
       814**DCL      1366<<ASSIGN   1366>>ASSIGN   1382<<ASSIGN   1382>>ASSIGN
STATS.COUNT.WRITES
       815**DCL      1368<<ASSIGN   1368>>ASSIGN   1384<<ASSIGN   1384>>ASSIGN
STATS.HITS
       811**DCL      1363<<ASSIGN   1363>>ASSIGN   1379<<ASSIGN   1379>>ASSIGN
STATS.REQS
       810**DCL      1362<<ASSIGN   1362>>ASSIGN   1378<<ASSIGN   1378>>ASSIGN
STATS.VALID
       809**DCL      1361<<ASSIGN   1377<<ASSIGN
STATS$
      1359**DCL       807--IMP-PTR  1360<<ASSIGN   1361>>ASSIGN   1362>>ASSIGN   1362>>ASSIGN   1363>>ASSIGN
      1363>>ASSIGN   1364>>ASSIGN   1364>>ASSIGN   1366>>ASSIGN   1366>>ASSIGN   1368>>ASSIGN   1368>>ASSIGN
      1370>>ASSIGN   1370>>ASSIGN   1372>>ASSIGN   1372>>ASSIGN   1376<<ASSIGN   1377>>ASSIGN   1378>>ASSIGN
      1378>>ASSIGN   1379>>ASSIGN   1379>>ASSIGN   1380>>ASSIGN   1380>>ASSIGN   1382>>ASSIGN   1382>>ASSIGN
      1384>>ASSIGN   1384>>ASSIGN   1386>>ASSIGN   1386>>ASSIGN   1388>>ASSIGN   1388>>ASSIGN
