
PL6.E3A0      #001=ZIM$USEP File=ZIM$USEP.:ZIC0TSI                               FRI 09/05/97 13:06 Page:1
        1        1        /*M*     ZIM$USEP - execute use procedure */
        2        2        /*T***********************************************************/
        3        3        /*T*                                                         */
        4        4        /*T* Copyright (c) Bull HN Information Systems Inc., 1997    */
        5        5        /*T*                                                         */
        6        6        /*T***********************************************************/
        7        7        /*
        8        8                   called when an error is found to detect wether a use
        9        9                   procedure has been specified by the user to cover this
       10       10                   condition.  A search is made of the use procedure
       11       11                   table for the use procedure that handles the exception
       12       12                   found. There are three ways of specifying a use procedure
       13       13                   to handle a particular exception.  They are listed below
       14       14                   in the order that they take precedence where each one
       15       15                   takes precedence over the next in the list.
       16       16
       17       17                   1.  An exact match between the statment and status codes
       18       18                       specified for the procedure and the exception found.
       19       19                   2.  The statment code for the procedure is "00", the
       20       20                       exception found was not fatal, and the status code
       21       21                       for the procedure matches that of the exception found.
       22       22                       Or the equivalent if the statment code is "40" and
       23       23                       the exception found was fatal.
       24       24                   3.  The statment code for the procedue is "00",
       25       25                       the exception found was not fatal and the status code
       26       26                       for the procedure is"00000". Or the equivalent if the
       27       27                       statment code is "40" and the exception found was
       28       28                       fatal.
       29       29                   The address of the routine will be communicated
       30       30                   through the IA and we set an indicator specifing return
       31       31                   is to the applications program (see DBCKP for alternate
       32       32                   case).                                                    */
       33       33        ZIM$USEP: PROC
       34       34         /* USE($PR5 FOR GLOBAL$) */
       35       35               AVOID($PR5,$PR6,$PR7);
       36       36        %INCLUDE ZI$GLOBAL;
       37      522            %GLOBALS;
PL6.E3A0      #001=ZIM$USEP File=ZIM$USEP.:ZIC0TSI                               FRI 09/05/97 13:06 Page:2
       38      830        %INCLUDE ZI$USER;
       39      975            %UPT;
       40     1005            %IA;
       41     1054        %INCLUDE ZI_ERRORS_C;
       42     1380        %INCLUDE CP_6;
       43     1461    1   DCL ZID$MOVN ENTRY;
       44     1462    1   DCL ZID$ABORT ENTRY;
       45     1463    1   DCL 1 UWA_E,
       46     1464    1         2 STATUS UBIN(36),
       47     1465    1         2 STMTCD UBIN(36);
       48     1466    1   DCL 1 UPT_E,
       49     1467    1         2 STATUS UBIN(36),
       50     1468    1         2 STMTCD UBIN(36);
       51     1469    1   DCL I SBIN(36) ALIGNED;
       52     1470    1   DCL J SBIN(36) ALIGNED;
       53     1471    1   DCL FOUND SBIN(36) ALIGNED;
       54     1472    1   DCL IS$ PTR SYMREF;
       55     1473    1   DCL I$HIA UBIN(36) SYMREF;
       56     1474    1   DCL I$HIA_OFFSET UBIN;
       57     1475         /* Move special names into the uwa */
       58     1476    1       CALL ZID$MOVN;
       59     1477         /* If fatal error make statment code in range of 40's */
       60     1478    1       IF GLOBAL.RET.ERROR#>FTL#ERR#INCR THEN
       61     1479    1           CALL M$ERR;
       62     1480         /* Make into complete exception code */
       63     1481    1       GLOBAL.RET.ERROR#=
       64     1482    1          GLOBAL.RET.ERROR#+GLOBAL.RET.STCD#*FTL#ERR#INCR;
       65     1483    1       UWA_E.STMTCD=GLOBAL.RET.ERROR#/FTL#ERR#INCR;
       66     1484    1       UWA_E.STATUS=GLOBAL.RET.ERROR#-UWA_E.STMTCD*FTL#ERR#INCR;
       67     1485    1       FOUND=0;
       68     1486    1       I$HIA_OFFSET = POFFW(ADDR(I$HIA),IS$);
       69     1487    1       J=-1;
       70     1488         /* If dumpable error ignore users error handlers */
       71     1489    1       I=UPT.W1.COUNT;
       72     1490    2       DO WHILE (I>0 AND FOUND=0);
       73     1491    2           I=I-1;
       74     1492         /* Check for usep. If fcn=HIA, then 3 won't be translated
PL6.E3A0      #001=ZIM$USEP File=ZIM$USEP.:ZIC0TSI                               FRI 09/05/97 13:06 Page:3
       75     1493            into a 6 yet, so put in a kludgy check here. */
       76     1494    2           IF (GLOBAL.FCN.CODE=I$HIA_OFFSET AND UPT.UPTE.UCW.PT(I)=3)
       77     1495    2              OR (GLOBAL.FCN.CODE~=I$HIA_OFFSET AND UPT.UPTE.UCW.PT(I)=6)
       78     1496    2           THEN
       79     1497    2               IF UPT.UPTE.W1.EC(I)=GLOBAL.RET.ERROR# THEN
       80     1498         /* Exact match.  Exit loop */
       81     1499    2                   FOUND=1;
       82     1500    2               ELSE
       83     1501    3               DO;
       84     1502    3                   UPT_E.STMTCD=UPT.UPTE.W1.EC(I)/FTL#ERR#INCR;
       85     1503    3                   UPT_E.STATUS=UPT.UPTE.W1.EC(I)-UPT_E.STMTCD*FTL#ERR#INCR;
       86     1504    3                   IF UPT_E.STMTCD=0 THEN
       87     1505         /* Any statment specified.  Just check status */
       88     1506    3                       IF UPT_E.STATUS=UWA_E.STATUS THEN
       89     1507    3                           J=I;
       90     1508    3                       ELSE
       91     1509    3                           IF UPT_E.STATUS=0 THEN
       92     1510         /* Any status specified.  Ok if first found */
       93     1511    3                               IF J=-1 THEN
       94     1512    3                                   J=I;
       95     1513    3                   END;
       96     1514    2           END;
       97     1515    2       IF FOUND=0 AND J~=-1 THEN DO;
       98     1516    2           I=J;
       99     1517    2           FOUND=1;
      100     1518    2           END;
      101     1519    1       IF FOUND=1 THEN
      102     1520    2       DO;
      103     1521    2           IA.UPFLAG.UPADR=UPT.UPTE.W2.UPADR(I);
      104     1522    2           IA.UPFLAG.FLAGS.ETC='0'B; /* Return to user */
      105     1523    2           END;
      106     1524    1       RETURN;
      107     1525    1   END ZIM$USEP;

PL6.E3A0      #001=ZIM$USEP File=ZIM$USEP.:ZIC0TSI                               FRI 09/05/97 13:06 Page:4
--  Include file information  --

   CP_6.:LIB_E05  cannot be made into a system file and is referenced.
   ZI_ERRORS_C.:ZIC0TOU  is referenced.
   ZI$USER.:ZIC0TOU  is referenced.
   ZI$GLOBAL.:ZIC0TOU  is referenced.
   B$JIT_C.:E05TOU  was found in the system file and is never referenced.
   CP_6_C.:E05TOU  was found in the system file and is referenced.
      No diagnostics issued in procedure ZIM$USEP.

   Procedure ZIM$USEP requires 121 words for executable code.
   Procedure ZIM$USEP requires 14 words of local(AUTO) storage.

    No errors detected in file ZIM$USEP.:ZIC0TSI    .

PL6.E3A0      #001=ZIM$USEP File=ZIM$USEP.:ZIC0TSI                               FRI 09/05/97 13:06 Page:5

 Object Unit name= ZIM$USEP                                   File name= ZIM$USEP.:ZIC0TOU
 UTS= SEP 05 '97 13:06:56.36 FRI                              Compiler= PL-6/E31         Sev=      00
 SharedLib= :SHARED_SYSTEM                                    Alt SharedLib=


    ****  Control sections  ****

 Sect   Type Bound  Init  Size OctSiz  Section name(segment info)
    0   DCB   even  none     0      0  M$UC
    1   Proc  even  none   121    171  ZIM$USEP
    2  RoData even  none     6      6  ZIM$USEP

    ****  Entry defs  ****

                              Check   Calling
                             calling  sequence
  Sect OctLoc Primary Altret sequence   type   Parms  Name
     1      0   yes            yes      XStd       0  ZIM$USEP

  ****  Entry refs  ****

         Check        Calling
        calling       sequence
Altret sequence SRef   type   Args  Name
         yes           XStd      0 ZID$MOVN
                       nStd      0 X66_AUTO_0
                       nStd      0 X66_ARET

  ****  Data refs  ****

  Flags:  r = read only, s = secondary
Flgs Name                             Flgs Name                             Flgs Name
r    GLOBAL$                               UPT$                                  IA$
     M$UC                                  IS$                                   I$HIA
PL6.E3A0      #001=ZIM$USEP File=ZIM$USEP.:ZIC0TSI                               FRI 09/05/97 13:06 Page:6

  ****  Segment refs  ****

  Flags:  r = read only, s = secondary
Flgs Name                             Flgs Name                             Flgs Name
     ISSID
PL6.E3A0      #001=ZIM$USEP File=ZIM$USEP.:ZIC0TSI                               FRI 09/05/97 13:06 Page:7


        1        1        /*M*     ZIM$USEP - execute use procedure */
        2        2        /*T***********************************************************/
        3        3        /*T*                                                         */
        4        4        /*T* Copyright (c) Bull HN Information Systems Inc., 1997    */
        5        5        /*T*                                                         */
        6        6        /*T***********************************************************/
        7        7        /*
        8        8                   called when an error is found to detect wether a use
        9        9                   procedure has been specified by the user to cover this
       10       10                   condition.  A search is made of the use procedure
       11       11                   table for the use procedure that handles the exception
       12       12                   found. There are three ways of specifying a use procedure
       13       13                   to handle a particular exception.  They are listed below
       14       14                   in the order that they take precedence where each one
       15       15                   takes precedence over the next in the list.
       16       16
       17       17                   1.  An exact match between the statment and status codes
       18       18                       specified for the procedure and the exception found.
       19       19                   2.  The statment code for the procedure is "00", the
       20       20                       exception found was not fatal, and the status code
       21       21                       for the procedure matches that of the exception found.
       22       22                       Or the equivalent if the statment code is "40" and
       23       23                       the exception found was fatal.
       24       24                   3.  The statment code for the procedue is "00",
       25       25                       the exception found was not fatal and the status code
       26       26                       for the procedure is"00000". Or the equivalent if the
       27       27                       statment code is "40" and the exception found was
       28       28                       fatal.
       29       29                   The address of the routine will be communicated
       30       30                   through the IA and we set an indicator specifing return
       31       31                   is to the applications program (see DBCKP for alternate
       32       32                   case).                                                    */
       33       33        ZIM$USEP: PROC

     33  1 000000   000000 700200 xent  ZIM$USEP     TSX0  ! X66_AUTO_0
         1 000001   000016 000000                    ZERO    14,0
PL6.E3A0      #001=ZIM$USEP File=ZIM$USEP.:ZIC0TSI                               FRI 09/05/97 13:06 Page:8

       34       34         /* USE($PR5 FOR GLOBAL$) */
       35       35               AVOID($PR5,$PR6,$PR7);
       36       36        %INCLUDE ZI$GLOBAL;
       37      522            %GLOBALS;
       38      830        %INCLUDE ZI$USER;
       39      975            %UPT;
       40     1005            %IA;
       41     1054        %INCLUDE ZI_ERRORS_C;
       42     1380        %INCLUDE CP_6;
       43     1461    1   DCL ZID$MOVN ENTRY;
       44     1462    1   DCL ZID$ABORT ENTRY;
       45     1463    1   DCL 1 UWA_E,
       46     1464    1         2 STATUS UBIN(36),
       47     1465    1         2 STMTCD UBIN(36);
       48     1466    1   DCL 1 UPT_E,
       49     1467    1         2 STATUS UBIN(36),
       50     1468    1         2 STMTCD UBIN(36);
       51     1469    1   DCL I SBIN(36) ALIGNED;
       52     1470    1   DCL J SBIN(36) ALIGNED;
       53     1471    1   DCL FOUND SBIN(36) ALIGNED;
       54     1472    1   DCL IS$ PTR SYMREF;
       55     1473    1   DCL I$HIA UBIN(36) SYMREF;
       56     1474    1   DCL I$HIA_OFFSET UBIN;
       57     1475         /* Move special names into the uwa */
       58     1476    1       CALL ZID$MOVN;

   1476  1 000002   000000 631400 2                  EPPR1   0
         1 000003   000000 701000 xent               TSX1    ZID$MOVN
         1 000004   000000 011000                    NOP     0

       59     1477         /* If fatal error make statment code in range of 40's */
       60     1478    1       IF GLOBAL.RET.ERROR#>FTL#ERR#INCR THEN

   1478  1 000005   000000 470400 xsym               LDP0    GLOBAL$
         1 000006   000006 235100                    LDA     6,,PR0
         1 000007   303241 115007                    CMPA    100001,DL
PL6.E3A0      #001=ZIM$USEP File=ZIM$USEP.:ZIC0TSI                               FRI 09/05/97 13:06 Page:9
         1 000010   000013 602000 1                  TNC     s:1481

       61     1479    1           CALL M$ERR;

   1479  1 000011   000002 713400                    CLIMB   err
         1 000012   000000 401760                    pmme    nvectors=0

       62     1480         /* Make into complete exception code */
       63     1481    1       GLOBAL.RET.ERROR#=

   1481  1 000013   000000 470400 xsym               LDP0    GLOBAL$
         1 000014   000014 236100                    LDQ     12,,PR0
         1 000015   777777 376007                    ANQ     -1,DL
         1 000016   303240 402007                    MPY     100000,DL
         1 000017   000006 036100                    ADLQ    6,,PR0
         1 000020   000006 756100                    STQ     6,,PR0

       64     1482    1          GLOBAL.RET.ERROR#+GLOBAL.RET.STCD#*FTL#ERR#INCR;
       65     1483    1       UWA_E.STMTCD=GLOBAL.RET.ERROR#/FTL#ERR#INCR;

   1483  1 000021   000001 772000                    QRL     1
         1 000022   141520 506007                    DIV     50000,DL
         1 000023   200004 756100                    STQ     UWA_E+1,,AUTO

       66     1484    1       UWA_E.STATUS=GLOBAL.RET.ERROR#-UWA_E.STMTCD*FTL#ERR#INCR;

   1484  1 000024   000001 402000 2                  MPY     1
         1 000025   000006 036100                    ADLQ    6,,PR0
         1 000026   200003 756100                    STQ     UWA_E,,AUTO

       67     1485    1       FOUND=0;

   1485  1 000027   200011 450100                    STZ     FOUND,,AUTO

       68     1486    1       I$HIA_OFFSET = POFFW(ADDR(I$HIA),IS$);

   1486  1 000030   000002 236000 2                  LDQ     2
PL6.E3A0      #001=ZIM$USEP File=ZIM$USEP.:ZIC0TSI                               FRI 09/05/97 13:06 Page:10
         1 000031   000022 772000                    QRL     18
         1 000032   000000 235000 xsym               LDA     IS$
         1 000033   000022 771000                    ARL     18
         1 000034   200014 755100                    STA     I$HIA_OFFSET+2,,AUTO
         1 000035   200014 136100                    SBLQ    I$HIA_OFFSET+2,,AUTO
         1 000036   200012 756100                    STQ     I$HIA_OFFSET,,AUTO

       69     1487    1       J=-1;

   1487  1 000037   000001 335007                    LCA     1,DL
         1 000040   200010 755100                    STA     J,,AUTO

       70     1488         /* If dumpable error ignore users error handlers */
       71     1489    1       I=UPT.W1.COUNT;

   1489  1 000041   000000 471400 xsym               LDP1    UPT$
         1 000042   100000 236100                    LDQ     0,,PR1
         1 000043   000022 772000                    QRL     18
         1 000044   377777 376007                    ANQ     131071,DL
         1 000045   200007 756100                    STQ     I,,AUTO

       72     1490    2       DO WHILE (I>0 AND FOUND=0);

   1490  1 000046   000141 710000 1                  TRA     s:1514

       73     1491    2           I=I-1;

   1491  1 000047   000001 336007                    LCQ     1,DL
         1 000050   200007 056100                    ASQ     I,,AUTO

       74     1492         /* Check for usep. If fcn=HIA, then 3 won't be translated
       75     1493            into a 6 yet, so put in a kludgy check here. */
       76     1494    2           IF (GLOBAL.FCN.CODE=I$HIA_OFFSET AND UPT.UPTE.UCW.PT(I)=3)

   1494  1 000051   000000 470400 xsym               LDP0    GLOBAL$
         1 000052   000004 236100                    LDQ     4,,PR0
         1 000053   777777 376007                    ANQ     -1,DL
PL6.E3A0      #001=ZIM$USEP File=ZIM$USEP.:ZIC0TSI                               FRI 09/05/97 13:06 Page:11
         1 000054   200012 116100                    CMPQ    I$HIA_OFFSET,,AUTO
         1 000055   000065 601000 1                  TNZ     s:1494+12
         1 000056   200007 235100                    LDA     I,,AUTO
         1 000057   000001 735000                    ALS     1
         1 000060   000000 471400 xsym               LDP1    UPT$
         1 000061   100001 236105                    LDQ     1,AL,PR1
         1 000062   777000 376003                    ANQ     -512,DU
         1 000063   003000 116003                    CMPQ    1536,DU
         1 000064   000100 600000 1                  TZE     s:1497
         1 000065   000004 236100                    LDQ     4,,PR0
         1 000066   777777 376007                    ANQ     -1,DL
         1 000067   200012 116100                    CMPQ    I$HIA_OFFSET,,AUTO
         1 000070   000141 600000 1                  TZE     s:1514
         1 000071   200007 235100                    LDA     I,,AUTO
         1 000072   000001 735000                    ALS     1
         1 000073   000000 471400 xsym               LDP1    UPT$
         1 000074   100001 236105                    LDQ     1,AL,PR1
         1 000075   777000 376003                    ANQ     -512,DU
         1 000076   006000 116003                    CMPQ    3072,DU
         1 000077   000141 601000 1                  TNZ     s:1514

       77     1495    2              OR (GLOBAL.FCN.CODE~=I$HIA_OFFSET AND UPT.UPTE.UCW.PT(I)=6)
       78     1496    2           THEN
       79     1497    2               IF UPT.UPTE.W1.EC(I)=GLOBAL.RET.ERROR# THEN

   1497  1 000100   100001 236105                    LDQ     1,AL,PR1
         1 000101   000003 376000 2                  ANQ     3
         1 000102   000006 116100                    CMPQ    6,,PR0
         1 000103   000107 601000 1                  TNZ     s:1502

       80     1498         /* Exact match.  Exit loop */
       81     1499    2                   FOUND=1;

   1499  1 000104   000001 235007                    LDA     1,DL
         1 000105   200011 755100                    STA     FOUND,,AUTO
         1 000106   000141 710000 1                  TRA     s:1514

PL6.E3A0      #001=ZIM$USEP File=ZIM$USEP.:ZIC0TSI                               FRI 09/05/97 13:06 Page:12
       82     1500    2               ELSE
       83     1501    3               DO;

       84     1502    3                   UPT_E.STMTCD=UPT.UPTE.W1.EC(I)/FTL#ERR#INCR;

   1502  1 000107   303240 506007                    DIV     100000,DL
         1 000110   200006 756100                    STQ     UPT_E+1,,AUTO

       85     1503    3                   UPT_E.STATUS=UPT.UPTE.W1.EC(I)-UPT_E.STMTCD*FTL#ERR#INCR;

   1503  1 000111   200007 235100                    LDA     I,,AUTO
         1 000112   000001 735000                    ALS     1
         1 000113   100001 236105                    LDQ     1,AL,PR1
         1 000114   000003 376000 2                  ANQ     3
         1 000115   200014 756100                    STQ     I$HIA_OFFSET+2,,AUTO
         1 000116   000000 236003                    LDQ     0,DU
         1 000117   200006 136100                    SBLQ    UPT_E+1,,AUTO
         1 000120   303240 402007                    MPY     100000,DL
         1 000121   200014 036100                    ADLQ    I$HIA_OFFSET+2,,AUTO
         1 000122   200005 756100                    STQ     UPT_E,,AUTO

       86     1504    3                   IF UPT_E.STMTCD=0 THEN

   1504  1 000123   200006 235100                    LDA     UPT_E+1,,AUTO
         1 000124   000141 601000 1                  TNZ     s:1514

       87     1505         /* Any statment specified.  Just check status */
       88     1506    3                       IF UPT_E.STATUS=UWA_E.STATUS THEN

   1506  1 000125   200003 116100                    CMPQ    UWA_E,,AUTO
         1 000126   000132 601000 1                  TNZ     s:1509

       89     1507    3                           J=I;

   1507  1 000127   200007 235100                    LDA     I,,AUTO
         1 000130   200010 755100                    STA     J,,AUTO
         1 000131   000141 710000 1                  TRA     s:1514
PL6.E3A0      #001=ZIM$USEP File=ZIM$USEP.:ZIC0TSI                               FRI 09/05/97 13:06 Page:13

       90     1508    3                       ELSE
       91     1509    3                           IF UPT_E.STATUS=0 THEN

   1509  1 000132   000000 116003                    CMPQ    0,DU
         1 000133   000141 601000 1                  TNZ     s:1514

       92     1510         /* Any status specified.  Ok if first found */
       93     1511    3                               IF J=-1 THEN

   1511  1 000134   200010 235100                    LDA     J,,AUTO
         1 000135   000004 115000 2                  CMPA    4
         1 000136   000141 601000 1                  TNZ     s:1514

       94     1512    3                                   J=I;

   1512  1 000137   200007 235100                    LDA     I,,AUTO
         1 000140   200010 755100                    STA     J,,AUTO

       95     1513    3                   END;

       96     1514    2           END;

   1514  1 000141   200007 235100                    LDA     I,,AUTO
         1 000142   000145 604400 1                  TMOZ    s:1515
         1 000143   200011 236100                    LDQ     FOUND,,AUTO
         1 000144   000047 600000 1                  TZE     s:1491

       97     1515    2       IF FOUND=0 AND J~=-1 THEN DO;

   1515  1 000145   200011 236100                    LDQ     FOUND,,AUTO
         1 000146   000155 601000 1                  TNZ     s:1519
         1 000147   200010 235100                    LDA     J,,AUTO
         1 000150   000004 115000 2                  CMPA    4
         1 000151   000155 600000 1                  TZE     s:1519

       98     1516    2           I=J;
PL6.E3A0      #001=ZIM$USEP File=ZIM$USEP.:ZIC0TSI                               FRI 09/05/97 13:06 Page:14

   1516  1 000152   200007 755100                    STA     I,,AUTO

       99     1517    2           FOUND=1;

   1517  1 000153   000001 235007                    LDA     1,DL
         1 000154   200011 755100                    STA     FOUND,,AUTO

      100     1518    2           END;

      101     1519    1       IF FOUND=1 THEN

   1519  1 000155   200011 235100                    LDA     FOUND,,AUTO
         1 000156   000001 115007                    CMPA    1,DL
         1 000157   000170 601000 1                  TNZ     s:1524

      102     1520    2       DO;

      103     1521    2           IA.UPFLAG.UPADR=UPT.UPTE.W2.UPADR(I);

   1521  1 000160   200007 236100                    LDQ     I,,AUTO
         1 000161   000001 736000                    QLS     1
         1 000162   000000 471400 xsym               LDP1    UPT$
         1 000163   100002 220106                    LDX0    2,QL,PR1
         1 000164   000000 473400 xsym               LDP3    IA$
         1 000165   300007 740100                    STX0    7,,PR3

      104     1522    2           IA.UPFLAG.FLAGS.ETC='0'B; /* Return to user */

   1522  1 000166   000005 236000 2                  LDQ     5
         1 000167   300007 356100                    ANSQ    7,,PR3

      105     1523    2           END;

      106     1524    1       RETURN;

   1524  1 000170   000000 702200 xent               TSX2  ! X66_ARET
PL6.E3A0      #001=ZIM$USEP File=ZIM$USEP.:ZIC0TSI                               FRI 09/05/97 13:06 Page:15

(unnamed)
 Sect OctLoc
   2     000   000000 000000   777777 474540   000000 006000   000777 777777    ................
   2     004   777777 777777   777777 777776                                    ........
      107     1525    1   END ZIM$USEP;

PL6.E3A0      #001=ZIM$USEP File=ZIM$USEP.:ZIC0TSI                               FRI 09/05/97 13:06 Page:16
--  Include file information  --

   CP_6.:LIB_E05  cannot be made into a system file and is referenced.
   ZI_ERRORS_C.:ZIC0TOU  is referenced.
   ZI$USER.:ZIC0TOU  is referenced.
   ZI$GLOBAL.:ZIC0TOU  is referenced.
   B$JIT_C.:E05TOU  was found in the system file and is never referenced.
   CP_6_C.:E05TOU  was found in the system file and is referenced.
      No diagnostics issued in procedure ZIM$USEP.

   Procedure ZIM$USEP requires 121 words for executable code.
   Procedure ZIM$USEP requires 14 words of local(AUTO) storage.

    No errors detected in file ZIM$USEP.:ZIC0TSI    .
PL6.E3A0      #001=ZIM$USEP File=ZIM$USEP.:ZIC0TSI                               FRI 09/05/97 13:06 Page:17
          *** CROSS REFERENCE LISTING ***
**     DENOTES     IDENTIFIER DEFINITION
<<                 IDENTIFIER'S VALUE SET
>>                 IDENTIFIER'S VALUE USED
<>                 IDENTIFIER SET AND/OR USED
--                 IDENTIFIER REFERENCED
PL6.E3A0      #001=ZIM$USEP File=ZIM$USEP.:ZIC0TSI                               FRI 09/05/97 13:06 Page:18
          MINI XREF LISTING

FOUND
      1471**DCL      1485<<ASSIGN   1490>>DOWHILE  1499<<ASSIGN   1515>>IF       1517<<ASSIGN   1519>>IF
GLOBAL.ACTIVE.DBCB$
       529**DCL       530--REDEF
GLOBAL.ACTIVE.SSS$
       525**DCL       526--REDEF
GLOBAL.FCN.CODE
       538**DCL      1494>>IF       1494>>IF
GLOBAL.KEY
       733**DCL       736--REDEF
GLOBAL.PARAN.TRACE.MODE
       608**DCL       615--REDEF
GLOBAL.PRINTBUF.BUFFER
       767**DCL       768--REDEF     769--REDEF     770--REDEF
GLOBAL.PRINTBUF.ERR.V
       772**DCL       775--REDEF     776--REDEF     777--REDEF
GLOBAL.RET.ERROR#
       543**DCL      1478>>IF       1481<<ASSIGN   1481>>ASSIGN   1483>>ASSIGN   1484>>ASSIGN   1497>>IF
GLOBAL.RET.STCD#
       550**DCL      1481>>ASSIGN
GLOBAL$
       827**DCL       523--IMP-PTR  1478>>IF       1481>>ASSIGN   1481>>ASSIGN   1481>>ASSIGN   1483>>ASSIGN
      1484>>ASSIGN   1494>>IF       1494>>IF       1497>>IF
I
      1469**DCL      1489<<ASSIGN   1490>>DOWHILE  1491<<ASSIGN   1491>>ASSIGN   1494>>IF       1494>>IF
      1497>>IF       1502>>ASSIGN   1503>>ASSIGN   1507>>ASSIGN   1512>>ASSIGN   1516<<ASSIGN   1521>>ASSIGN
I$HIA
      1473**DCL      1486--ASSIGN
I$HIA_OFFSET
      1474**DCL      1486<<ASSIGN   1494>>IF       1494>>IF
IA.SNAME
      1030**DCL      1031--REDEF
PL6.E3A0      #001=ZIM$USEP File=ZIM$USEP.:ZIC0TSI                               FRI 09/05/97 13:06 Page:19
IA.SSDT
      1042**DCL      1043--REDEF
IA.SSNAME
      1033**DCL      1034--REDEF
IA.UPFLAG.FLAGS.ETC
      1027**DCL      1522<<ASSIGN
IA.UPFLAG.UPADR
      1020**DCL      1521<<ASSIGN
IA$
      1044**DCL      1009--IMP-PTR  1521>>ASSIGN   1522>>ASSIGN
IS$
      1472**DCL      1486>>ASSIGN
J
      1470**DCL      1487<<ASSIGN   1507<<ASSIGN   1511>>IF       1512<<ASSIGN   1515>>IF       1516>>ASSIGN
M$ERR
      1401**DCL-ENT  1479--CALL
UPT.UPTE.UCW
       983**DCL       998--REDEF
UPT.UPTE.UCW.PB.PG
       986**DCL       987--REDEF
UPT.UPTE.UCW.PB.PM
       988**DCL       989--REDEF
UPT.UPTE.UCW.PT
       984**DCL      1494>>IF       1494>>IF
UPT.UPTE.W1.EC
      1000**DCL      1497>>IF       1502>>ASSIGN   1503>>ASSIGN
UPT.UPTE.W2.UPADR
      1002**DCL      1521>>ASSIGN
UPT.W1.COUNT
       980**DCL      1489>>ASSIGN
UPT$
       976**DCL       977--IMP-PTR  1489>>ASSIGN   1494>>IF       1494>>IF       1497>>IF       1502>>ASSIGN
      1503>>ASSIGN   1521>>ASSIGN
UPT_E.STATUS
      1467**DCL      1503<<ASSIGN   1506>>IF       1509>>IF
UPT_E.STMTCD
PL6.E3A0      #001=ZIM$USEP File=ZIM$USEP.:ZIC0TSI                               FRI 09/05/97 13:06 Page:20
      1468**DCL      1502<<ASSIGN   1503>>ASSIGN   1504>>IF
UWA_E.STATUS
      1464**DCL      1484<<ASSIGN   1506>>IF
UWA_E.STMTCD
      1465**DCL      1483<<ASSIGN   1484>>ASSIGN
ZID$MOVN
      1461**DCL-ENT  1476--CALL
