
PL6.E3A0      #001=ZIU$ASSDCB File=ZIU$ASSDCB.:ZIC0TSI                           FRI 09/05/97 13:07 Page:1
        1        1        /*M* ZIU$ASSDCB   IDSII    ASSOCIATES DCBS TO FIDS FOR ROLL UTILITY */
        2        2        /*T***********************************************************/
        3        3        /*T*                                                         */
        4        4        /*T* Copyright (c) Bull HN Information Systems Inc., 1997    */
        5        5        /*T*                                                         */
        6        6        /*T***********************************************************/
        7        7        ZIU$ASSDCB: PROC(INDX) ALTRET;
        8        8
        9        9    1   DCL INDX SBIN WORD ALIGNED;
       10       10
       11       11    1   DCL CURRENTLY_ALLOC_DCBS SBIN WORD STATIC INIT(0);
       12       12    1   DCL 1 NXTDCB STATIC ALIGNED,
       13       13    1         2 L UBIN BYTE UNAL INIT(7),
       14       14    1         2 P CHAR(4) UNAL INIT('M$JR'),
       15       15    1         2 S CHAR(3) UNAL INIT('000');
       16       16    1   DCL DCBVAL UBIN WORD STATIC UNAL;
       17       17    1   DCL TEMP UBIN HALF STATIC UNAL;
       18       18
       19       19         %INCLUDE ZI_DBU_ROLL;
       20      103         %ROLL_SUBS;
       21      122         %ROLL_LIST;
       22      181         %INCLUDE ZI_GLOBAL_DBUTIL;
       23      359         %SYS_FUNC;
       24      451         %INCLUDE CP_6_SUBS;
       25      991         %INCLUDE ZI_ERRORS_SUBS;
       26     1511         %INCLUDE CP_6;
       27     1592         %F$DCB;
       28     1649         %FPT_OPEN(FPTN=OPNDCB);
       29     1758
       30     1759    1   DCL QUE_UP ENTRY(1);
       31     1760    1   DCL DE_QUE ENTRY(1);
       32     1761    1   DCL ZERO_SUP ENTRY(3);
       33     1762    1   DCL SYS_FUNC_GETDCB ENTRY ALTRET;
       34     1763    1   DCL SYS_FUNC_CLOS ENTRY ALTRET;
       35     1764    1   DCL SYS_FUNC_RELDCB ENTRY ALTRET;
       36     1765    1   DCL SYS_FUNC_ERRMSG ENTRY ALTRET;
       37     1766
PL6.E3A0      #001=ZIU$ASSDCB File=ZIU$ASSDCB.:ZIC0TSI                           FRI 09/05/97 13:07 Page:2
       38     1767
       39     1768    1   ASSOC_DCB: ENTRY(INDX) ALTRET; /* INDX= indx to fidlist tbl needing a dcb */
       40     1769
       41     1770    1       IF CURRENTLY_ALLOC_DCBS < NO.DCBS THEN
       42     1771    2       DO;
       43     1772    2           CALL CHARBIN(DCBVAL,NXTDCB.S);
       44     1773    2           CALL BINCHAR(NXTDCB.S,DCBVAL+1); /* ADD 1 TO DCB NAME */
       45     1774    2    /**/   DCBNMSF = VECTOR(NXTDCB);
       46     1775    2           CALL SYS_FUNC_GETDCB ALTRET(NO_GOT_DCB);
       47     1776    2           FIDLIST.DCB#(INDX) = DCBSF;
       48     1777    2           CURRENTLY_ALLOC_DCBS = CURRENTLY_ALLOC_DCBS +1;
       49     1778    2           RETURN;
       50     1779    2           END;
       51     1780
       52     1781    2       ELSE DO;
       53     1782    2           CALL STEAL_DCB(INDX); /* Since no more DCBS are avil */
       54     1783    2           RETURN; /* start sharing them. */
       55     1784    2           END;
       56     1785
       57     1786    1   NO_GOT_DCB:
       58     1787    1       IF CURRENTLY_ALLOC_DCBS < 1 THEN
       59     1788    1           ALTRETURN; /* Stop-have no dcbs to share */
       60     1789    2       ELSE DO;
       61     1790    2           NO.DCBS = CURRENTLY_ALLOC_DCBS; /* Set num dcbs to */
       62     1791    2           CALL STEAL_DCB(INDX); /* number we have */
       63     1792         /*E* ERROR: ZIU-DBU#NDCBS-C
       64     1793                          MESSAGE: Acquired a total of %U1 DCBs.      */
       65     1794    2           ERR_INSERT.CNT(0) = 3;
       66     1795    2           CALL BINCHAR(ERR_INSERT.TEXT(0),NO.DCBS);
       67     1796    2           CALL ZERO_SUP(ERR_INSERT.TEXT(0),32,'1'B);
       68     1797    2           ERRCODESF.ERR# = DBU#NDCBS;
       69     1798    2           MSGCODE = ERRCODE_RDEF;
       70     1799    2           CALL SYS_FUNC_ERRMSG;
       71     1800    2           RETURN;
       72     1801    2           END;
       73     1802        %EJECT;
PL6.E3A0      #001=ZIU$ASSDCB File=ZIU$ASSDCB.:ZIC0TSI                           FRI 09/05/97 13:07 Page:3
       74     1803
       75     1804
       76     1805    1   STEAL_DCB: PROC(INDX);
       77     1806    2   DCL INDX SBIN WORD CALIGNED;
       78     1807
       79     1808    2       TEMP = INDX; /* SAVE INDX TO FID GETTING THE DCB */
       80     1809    2       INDX = FIDLIST.QUE.NXT(0); /* GET INDX TO FID LEAST RECENTLY USED */
       81     1810    2       DCBVAL=FIDLIST.DCB#(INDX); /* GET ITS DCB NUMBER */
       82     1811
       83     1812    2       CALL DE_QUE(INDX); /* REMOVE THIS FID FROM THE DCB QUEUE */
       84     1813    2       FIDLIST.DCB#(INDX) = 0;
       85     1814
       86     1815    2       INDX = TEMP;
       87     1816    2       FIDLIST.DCB#(INDX)=DCBVAL; /* STORE ITS NEWLY ACQUIRED DCB NUMGER */
       88     1817    2   /**/ DCBSF = DCBVAL;
       89     1818    2       CALL SYS_FUNC_CLOS; /* CLOSE THE FILE THAT JUST LOST DCB. */
       90     1819
       91     1820    2       RETURN;
       92     1821    2   END STEAL_DCB;
       93     1822    1   END ZIU$ASSDCB;

PL6.E3A0      #001=ZIU$ASSDCB File=ZIU$ASSDCB.:ZIC0TSI                           FRI 09/05/97 13:07 Page:4
--  Include file information  --

   CP_6.:LIB_E05  cannot be made into a system file and is referenced.
   ZI_ERRORS_SUBS.:ZIC0TOU  is referenced.
   CP_6_SUBS.:LIB_E05  is referenced.
   ZI_GLOBAL_DBUTIL.:ZIC0TOU  is referenced.
   ZI_DBU_ROLL.:ZIC0TOU  is referenced.
   B$JIT_C.:E05TOU  was found in the system file and is never referenced.
   CP_6_C.:E05TOU  was found in the system file and is referenced.
      No diagnostics issued in procedure ZIU$ASSDCB.

   Procedure ZIU$ASSDCB requires 115 words for executable code.
   Procedure ZIU$ASSDCB requires 8 words of local(AUTO) storage.

    No errors detected in file ZIU$ASSDCB.:ZIC0TSI    .

PL6.E3A0      #001=ZIU$ASSDCB File=ZIU$ASSDCB.:ZIC0TSI                           FRI 09/05/97 13:07 Page:5

 Object Unit name= ZIU$ASSDCB                                 File name= ZIU$ASSDCB.:ZIC0TOU
 UTS= SEP 05 '97 13:07:11.16 FRI                              Compiler= PL-6/E31         Sev=      00
 SharedLib= :SHARED_SYSTEM                                    Alt SharedLib=


    ****  Control sections  ****

 Sect   Type Bound  Init  Size OctSiz  Section name(segment info)
    0   Data  even  none    64    100  ZIU$ASSDCB
    1   DCB   even  none     0      0  M$UC
    2   Proc  even  none   115    163  ZIU$ASSDCB
    3  RoData even  none    11     13  ZIU$ASSDCB

    ****  Entry defs  ****

                              Check   Calling
                             calling  sequence
  Sect OctLoc Primary Altret sequence   type   Parms  Name
     2      0   yes    yes     yes      Std        1  ZIU$ASSDCB
     2      3          yes     yes      Std        1  ASSOC_DCB

  ****  Entry refs  ****

         Check        Calling
        calling       sequence
Altret sequence SRef   type   Args  Name
 yes     yes           Std       0 SYS_FUNC_GETDCB
         yes           Std       3 ZERO_SUP
 yes     yes           Std       0 SYS_FUNC_ERRMSG
         yes           Std       1 DE_QUE
 yes     yes           Std       0 SYS_FUNC_CLOS
                       nStd      0 X66_AUTO_1
                       nStd      0 X66_ARET
                       nStd      0 X66_AALT
PL6.E3A0      #001=ZIU$ASSDCB File=ZIU$ASSDCB.:ZIC0TSI                           FRI 09/05/97 13:07 Page:6

  ****  Data refs  ****

  Flags:  r = read only, s = secondary
Flgs Name                             Flgs Name                             Flgs Name
     FID$                                  DCBLIST$                              USER$
     FID_INDXS$                            FID_INDXS                             NXT_AVIL_FIDSLOT
     NXT_AVIL_DCBSLOT                      LAST_UNUSED_DCBSLOT                   USER
     NO                                    FIRST                                 LAST
     MAX_DCBINDX                           MAX_FIDINDX                           FIDX
     DCBX                                  BRK_ROLL                              BLKLSF
     KEYLSF                                KEYXSF                                DCBSF
     ORGSF                                 KEYSF                                 KEYVSF
     ACSSF                                 NOTIMESF                              FUNSF
     ASNSF                                 TESTSF                                XTENSIZESF
     DISPSF                                WAITSF                                VFCSF
     FULLSF                                BKUPSF                                BUFLNSF
     BUFSF                                 SOURCESF                              DESTSF
     DATESF                                TIMESF                                UTSSF
     DAYSF                                 TSTAMPSF                              ENCRP_SEEDSF
     ERRCODESF                             MSGCODE                               INCL_ERR
     ERR_INSERT                            FIDSF_RD                              ACNT
     EXISTSF                               SHARESF                               DCBNMSF
     KEYRSF                                NO_KEYSF                              REASGNSF
     CARRY_ATTRIBUTESF                     SUBMESSF                              SPKY_OPNSF
     POSSF                                 ERRFLGSF                              MERGESF
     FSA_FLAG                              RELGSF                                UNUSED
     HELPCODE                              COUNTSF                               INDEXSF
     GAP                                   PSNSF                                 ACNTSF
     KEY_SHADWSF                           M$UC

  ****  Segment refs  ****

  Flags:  r = read only, s = secondary
Flgs Name                             Flgs Name                             Flgs Name
     ISSID                                 NULLSID
PL6.E3A0      #001=ZIU$ASSDCB File=ZIU$ASSDCB.:ZIC0TSI                           FRI 09/05/97 13:07 Page:7


        1        1        /*M* ZIU$ASSDCB   IDSII    ASSOCIATES DCBS TO FIDS FOR ROLL UTILITY */
        2        2        /*T***********************************************************/
        3        3        /*T*                                                         */
        4        4        /*T* Copyright (c) Bull HN Information Systems Inc., 1997    */
        5        5        /*T*                                                         */
        6        6        /*T***********************************************************/
        7        7        ZIU$ASSDCB: PROC(INDX) ALTRET;

      7  2 000000   000000 700200 xent  ZIU$ASSDCB   TSX0  ! X66_AUTO_1
         2 000001   000010 000001                    ZERO    8,1
         2 000002   000005 710000 2                  TRA     s:1770

        8        8
        9        9    1   DCL INDX SBIN WORD ALIGNED;
       10       10
       11       11    1   DCL CURRENTLY_ALLOC_DCBS SBIN WORD STATIC INIT(0);
       12       12    1   DCL 1 NXTDCB STATIC ALIGNED,
       13       13    1         2 L UBIN BYTE UNAL INIT(7),
       14       14    1         2 P CHAR(4) UNAL INIT('M$JR'),
       15       15    1         2 S CHAR(3) UNAL INIT('000');
       16       16    1   DCL DCBVAL UBIN WORD STATIC UNAL;
       17       17    1   DCL TEMP UBIN HALF STATIC UNAL;
       18       18
       19       19         %INCLUDE ZI_DBU_ROLL;
       20      103         %ROLL_SUBS;
       21      122         %ROLL_LIST;
       22      181         %INCLUDE ZI_GLOBAL_DBUTIL;
       23      359         %SYS_FUNC;
       24      451         %INCLUDE CP_6_SUBS;
       25      991         %INCLUDE ZI_ERRORS_SUBS;
       26     1511         %INCLUDE CP_6;
       27     1592         %F$DCB;
       28     1649         %FPT_OPEN(FPTN=OPNDCB);
       29     1758
       30     1759    1   DCL QUE_UP ENTRY(1);
       31     1760    1   DCL DE_QUE ENTRY(1);
PL6.E3A0      #001=ZIU$ASSDCB File=ZIU$ASSDCB.:ZIC0TSI                           FRI 09/05/97 13:07 Page:8
       32     1761    1   DCL ZERO_SUP ENTRY(3);
       33     1762    1   DCL SYS_FUNC_GETDCB ENTRY ALTRET;
       34     1763    1   DCL SYS_FUNC_CLOS ENTRY ALTRET;
       35     1764    1   DCL SYS_FUNC_RELDCB ENTRY ALTRET;
       36     1765    1   DCL SYS_FUNC_ERRMSG ENTRY ALTRET;
       37     1766
       38     1767
       39     1768    1   ASSOC_DCB: ENTRY(INDX) ALTRET; /* INDX= indx to fidlist tbl needing a dcb */

   1768  2 000003   000000 700200 xent  ASSOC_DCB    TSX0  ! X66_AUTO_1
         2 000004   000010 000001                    ZERO    8,1

       40     1769
       41     1770    1       IF CURRENTLY_ALLOC_DCBS < NO.DCBS THEN

   1770  2 000005   000000 236000 0                  LDQ     CURRENTLY_ALLOC_DCBS
         2 000006   000002 116000 xsym               CMPQ    NO+2
         2 000007   000041 605000 2                  TPL     s:1782

       42     1771    2       DO;

       43     1772    2           CALL CHARBIN(DCBVAL,NXTDCB.S);

   1772  2 000010   000100 305400                    DTB
         2 000011   000002 230003 0                  NDSC9   NXTDCB+1                 cn=1,s=nosgn,sf=0,n=3
         2 000012   200006 000010                    NDSC9   @INDX+1,,AUTO            cn=0,s=lsgnf,sf=0,n=8
         2 000013   200007 235100                    LDA     @INDX+2,,AUTO
         2 000014   000003 755000 0                  STA     DCBVAL

       44     1773    2           CALL BINCHAR(NXTDCB.S,DCBVAL+1); /* ADD 1 TO DCB NAME */

   1773  2 000015   000001 035007                    ADLA    1,DL
         2 000016   000044 773000                    LRL     36
         2 000017   200006 757100                    STAQ    @INDX+1,,AUTO
         2 000020   000000 301500                    BTD
         2 000021   200006 000010                    NDSC9   @INDX+1,,AUTO            cn=0,s=lsgnf,sf=0,n=8
         2 000022   000002 230003 0                  NDSC9   NXTDCB+1                 cn=1,s=nosgn,sf=0,n=3
PL6.E3A0      #001=ZIU$ASSDCB File=ZIU$ASSDCB.:ZIC0TSI                           FRI 09/05/97 13:07 Page:9

       45     1774    2    /**/   DCBNMSF = VECTOR(NXTDCB);

   1774  2 000023   000000 237000 3                  LDAQ    0
         2 000024   000000 755000 xsym               STA     DCBNMSF
         2 000025   000001 756000 xsym               STQ     DCBNMSF+1

       46     1775    2           CALL SYS_FUNC_GETDCB ALTRET(NO_GOT_DCB);

   1775  2 000026   000002 631400 3                  EPPR1   2
         2 000027   000000 701000 xent               TSX1    SYS_FUNC_GETDCB
         2 000030   000046 702000 2                  TSX2    NO_GOT_DCB

       47     1776    2           FIDLIST.DCB#(INDX) = DCBSF;

   1776  2 000031   200003 470500                    LDP0    @INDX,,AUTO
         2 000032   000000 236100                    LDQ     0,,PR0
         2 000033   000021 402007                    MPY     17,DL
         2 000034   000000 220000 xsym               LDX0    DCBSF
         2 000035   000000 471400 xsym               LDP1    FID$
         2 000036   100017 740106                    STX0    15,QL,PR1

       48     1777    2           CURRENTLY_ALLOC_DCBS = CURRENTLY_ALLOC_DCBS +1;

   1777  2 000037   000000 054000 0                  AOS     CURRENTLY_ALLOC_DCBS

       49     1778    2           RETURN;

   1778  2 000040   000000 702200 xent               TSX2  ! X66_ARET

       50     1779    2           END;
       51     1780
       52     1781    2       ELSE DO;

       53     1782    2           CALL STEAL_DCB(INDX); /* Since no more DCBS are avil */

   1782  2 000041   200003 236100                    LDQ     @INDX,,AUTO
PL6.E3A0      #001=ZIU$ASSDCB File=ZIU$ASSDCB.:ZIC0TSI                           FRI 09/05/97 13:07 Page:10
         2 000042   200005 756100                    STQ     @INDX+2,,AUTO
         2 000043   000100 701000 2                  TSX1    STEAL_DCB
         2 000044   000000 011000                    NOP     0

       54     1783    2           RETURN; /* start sharing them. */

   1783  2 000045   000000 702200 xent               TSX2  ! X66_ARET

       55     1784    2           END;
       56     1785
       57     1786    1   NO_GOT_DCB:
       58     1787    1       IF CURRENTLY_ALLOC_DCBS < 1 THEN

   1787  2 000046   000000 235000 0     NO_GOT_DCB   LDA     CURRENTLY_ALLOC_DCBS
         2 000047   000051 605400 2                  TPNZ    s:1790

       59     1788    1           ALTRETURN; /* Stop-have no dcbs to share */

   1788  2 000050   000000 702200 xent               TSX2  ! X66_AALT

       60     1789    2       ELSE DO;

       61     1790    2           NO.DCBS = CURRENTLY_ALLOC_DCBS; /* Set num dcbs to */

   1790  2 000051   000002 755000 xsym               STA     NO+2

       62     1791    2           CALL STEAL_DCB(INDX); /* number we have */

   1791  2 000052   200003 236100                    LDQ     @INDX,,AUTO
         2 000053   200005 756100                    STQ     @INDX+2,,AUTO
         2 000054   000100 701000 2                  TSX1    STEAL_DCB
         2 000055   000000 011000                    NOP     0

       63     1792         /*E* ERROR: ZIU-DBU#NDCBS-C
       64     1793                          MESSAGE: Acquired a total of %U1 DCBs.      */
       65     1794    2           ERR_INSERT.CNT(0) = 3;

PL6.E3A0      #001=ZIU$ASSDCB File=ZIU$ASSDCB.:ZIC0TSI                           FRI 09/05/97 13:07 Page:11
   1794  2 000056   003000 236003                    LDQ     1536,DU
         2 000057   000000 552040 xsym               STBQ    ERR_INSERT,'40'O

       66     1795    2           CALL BINCHAR(ERR_INSERT.TEXT(0),NO.DCBS);

   1795  2 000060   000000 301400                    BTD
         2 000061   000002 000004 xsym               NDSC9   NO+2                     cn=0,s=lsgnf,sf=0,n=4
         2 000062   000000 230036 xsym               NDSC9   ERR_INSERT               cn=1,s=nosgn,sf=0,n=30

       67     1796    2           CALL ZERO_SUP(ERR_INSERT.TEXT(0),32,'1'B);

   1796  2 000063   000006 630400 3                  EPPR0   6
         2 000064   000003 631400 3                  EPPR1   3
         2 000065   000000 701000 xent               TSX1    ZERO_SUP
         2 000066   000000 011000                    NOP     0

       68     1797    2           ERRCODESF.ERR# = DBU#NDCBS;

   1797  2 000067   000000 236000 xsym               LDQ     ERRCODESF
         2 000070   000011 376000 3                  ANQ     9
         2 000071   215150 276007                    ORQ     72296,DL
         2 000072   000000 756000 xsym               STQ     ERRCODESF

       69     1798    2           MSGCODE = ERRCODE_RDEF;

   1798  2 000073   000000 756000 xsym               STQ     MSGCODE

       70     1799    2           CALL SYS_FUNC_ERRMSG;

   1799  2 000074   000002 631400 3                  EPPR1   2
         2 000075   000000 701000 xent               TSX1    SYS_FUNC_ERRMSG
         2 000076   000000 011000                    NOP     0

       71     1800    2           RETURN;

   1800  2 000077   000000 702200 xent               TSX2  ! X66_ARET

PL6.E3A0      #001=ZIU$ASSDCB File=ZIU$ASSDCB.:ZIC0TSI                           FRI 09/05/97 13:07 Page:12
       72     1801    2           END;
       73     1802        %EJECT;
PL6.E3A0      #001=ZIU$ASSDCB File=ZIU$ASSDCB.:ZIC0TSI                           FRI 09/05/97 13:07 Page:13
       74     1803
       75     1804
       76     1805    1   STEAL_DCB: PROC(INDX);

   1805  2 000100   200004 741300       STEAL_DCB    STX1  ! @INDX+1,,AUTO

       77     1806    2   DCL INDX SBIN WORD CALIGNED;
       78     1807
       79     1808    2       TEMP = INDX; /* SAVE INDX TO FID GETTING THE DCB */

   1808  2 000101   200005 470500                    LDP0    @INDX,,AUTO
         2 000102   000000 101500                    MRL     fill='000'O
         2 000103   000000 000004                    ADSC9   0,,PR0                   cn=0,n=4
         2 000104   000004 000002 0                  ADSC9   TEMP                     cn=0,n=2

       80     1809    2       INDX = FIDLIST.QUE.NXT(0); /* GET INDX TO FID LEAST RECENTLY USED */

   1809  2 000105   000000 471400 xsym               LDP1    FID$
         2 000106   100020 236100                    LDQ     16,,PR1
         2 000107   000022 732000                    QRS     18
         2 000110   200006 756100                    STQ     @INDX+1,,AUTO
         2 000111   000100 100500                    MLR     fill='000'O
         2 000112   200006 000004                    ADSC9   @INDX+1,,AUTO            cn=0,n=4
         2 000113   000000 000004                    ADSC9   0,,PR0                   cn=0,n=4

       81     1810    2       DCBVAL=FIDLIST.DCB#(INDX); /* GET ITS DCB NUMBER */

   1810  2 000114   000100 100500                    MLR     fill='000'O
         2 000115   000000 000004                    ADSC9   0,,PR0                   cn=0,n=4
         2 000116   200006 000004                    ADSC9   @INDX+1,,AUTO            cn=0,n=4
         2 000117   200006 236100                    LDQ     @INDX+1,,AUTO
         2 000120   000021 402007                    MPY     17,DL
         2 000121   000000 471400 xsym               LDP1    FID$
         2 000122   100017 236106                    LDQ     15,QL,PR1
         2 000123   000022 772000                    QRL     18
         2 000124   000003 756000 0                  STQ     DCBVAL

PL6.E3A0      #001=ZIU$ASSDCB File=ZIU$ASSDCB.:ZIC0TSI                           FRI 09/05/97 13:07 Page:14
       82     1811
       83     1812    2       CALL DE_QUE(INDX); /* REMOVE THIS FID FROM THE DCB QUEUE */

   1812  2 000125   200005 630500                    EPPR0   @INDX,,AUTO
         2 000126   000012 631400 3                  EPPR1   10
         2 000127   000000 701000 xent               TSX1    DE_QUE
         2 000130   000000 011000                    NOP     0

       84     1813    2       FIDLIST.DCB#(INDX) = 0;

   1813  2 000131   200005 470500                    LDP0    @INDX,,AUTO
         2 000132   000100 100500                    MLR     fill='000'O
         2 000133   000000 000004                    ADSC9   0,,PR0                   cn=0,n=4
         2 000134   200006 000004                    ADSC9   @INDX+1,,AUTO            cn=0,n=4
         2 000135   200006 236100                    LDQ     @INDX+1,,AUTO
         2 000136   000021 402007                    MPY     17,DL
         2 000137   000000 220003                    LDX0    0,DU
         2 000140   000000 471400 xsym               LDP1    FID$
         2 000141   100017 740106                    STX0    15,QL,PR1

       85     1814
       86     1815    2       INDX = TEMP;

   1815  2 000142   000100 101400                    MRL     fill='000'O
         2 000143   000004 000002 0                  ADSC9   TEMP                     cn=0,n=2
         2 000144   000000 000004                    ADSC9   0,,PR0                   cn=0,n=4

       87     1816    2       FIDLIST.DCB#(INDX)=DCBVAL; /* STORE ITS NEWLY ACQUIRED DCB NUMGER */

   1816  2 000145   000100 100500                    MLR     fill='000'O
         2 000146   000000 000004                    ADSC9   0,,PR0                   cn=0,n=4
         2 000147   200006 000004                    ADSC9   @INDX+1,,AUTO            cn=0,n=4
         2 000150   200006 236100                    LDQ     @INDX+1,,AUTO
         2 000151   000021 402007                    MPY     17,DL
         2 000152   000003 721000 0                  LXL1    DCBVAL
         2 000153   000000 471400 xsym               LDP1    FID$
         2 000154   100017 741106                    STX1    15,QL,PR1
PL6.E3A0      #001=ZIU$ASSDCB File=ZIU$ASSDCB.:ZIC0TSI                           FRI 09/05/97 13:07 Page:15

       88     1817    2   /**/ DCBSF = DCBVAL;

   1817  2 000155   000000 741000 xsym               STX1    DCBSF

       89     1818    2       CALL SYS_FUNC_CLOS; /* CLOSE THE FILE THAT JUST LOST DCB. */

   1818  2 000156   000002 631400 3                  EPPR1   2
         2 000157   000000 701000 xent               TSX1    SYS_FUNC_CLOS
         2 000160   000000 011000                    NOP     0

       90     1819
       91     1820    2       RETURN;

   1820  2 000161   200004 221300                    LDX1  ! @INDX+1,,AUTO
         2 000162   000001 702211                    TSX2  ! 1,X1

CURRENTLY_ALLOC_DCBS
 Sect OctLoc
   0     000   000000 000000                                                    ....

NXTDCB
 Sect OctLoc
   0     001   007115 044112   122060 060060                                    .M$JR000

OPNDCB
 Sect OctLoc
   0     006   000025 777640   000052 006000   000000 177640   000000 006014    .....*..........
   0     012   000000 177640   000000 006014   000000 177640   000000 006014    ................
   0     052*  000000 000042   000000 000000   252525 000000   000040 252520    ..."......... ..
   0     056   000040 040040   000000 000000   000000 777777   000000 000000    .   ............
   0     062   000000 000000   000000 000000   000000 000000   000000 000000    ................
   0     066   251000 622000   000000 000000   000000 000000   111250 000000    ............I...
   0     072   040040 040040   000000 000000   000000 000000   000000 000000        ............
   0     076   000000 000000   ****** ******                                    ........

(unnamed)
PL6.E3A0      #001=ZIU$ASSDCB File=ZIU$ASSDCB.:ZIC0TSI                           FRI 09/05/97 13:07 Page:16
 Sect OctLoc
   3     000   000001 777640   000001 006000   000000 000000   000003 000000    ................
   3     004   000000 000040   400000 000000   000000 206000   000004 006000    ... ............
   3     010   000005 006000   777777 400007   000001 000000                    ............
       92     1821    2   END STEAL_DCB;
       93     1822    1   END ZIU$ASSDCB;

PL6.E3A0      #001=ZIU$ASSDCB File=ZIU$ASSDCB.:ZIC0TSI                           FRI 09/05/97 13:07 Page:17
--  Include file information  --

   CP_6.:LIB_E05  cannot be made into a system file and is referenced.
   ZI_ERRORS_SUBS.:ZIC0TOU  is referenced.
   CP_6_SUBS.:LIB_E05  is referenced.
   ZI_GLOBAL_DBUTIL.:ZIC0TOU  is referenced.
   ZI_DBU_ROLL.:ZIC0TOU  is referenced.
   B$JIT_C.:E05TOU  was found in the system file and is never referenced.
   CP_6_C.:E05TOU  was found in the system file and is referenced.
      No diagnostics issued in procedure ZIU$ASSDCB.

   Procedure ZIU$ASSDCB requires 115 words for executable code.
   Procedure ZIU$ASSDCB requires 8 words of local(AUTO) storage.

    No errors detected in file ZIU$ASSDCB.:ZIC0TSI    .
PL6.E3A0      #001=ZIU$ASSDCB File=ZIU$ASSDCB.:ZIC0TSI                           FRI 09/05/97 13:07 Page:18
          *** CROSS REFERENCE LISTING ***
**     DENOTES     IDENTIFIER DEFINITION
<<                 IDENTIFIER'S VALUE SET
>>                 IDENTIFIER'S VALUE USED
<>                 IDENTIFIER SET AND/OR USED
--                 IDENTIFIER REFERENCED
PL6.E3A0      #001=ZIU$ASSDCB File=ZIU$ASSDCB.:ZIC0TSI                           FRI 09/05/97 13:07 Page:19
          MINI XREF LISTING

COUNTSF
       440**DCL       441--REDEF
CURRENTLY_ALLOC_DCBS
        11**DCL      1770>>IF       1777<<ASSIGN   1777>>ASSIGN   1787>>IF       1790>>ASSIGN
DCBLIST$
       130**DCL       153--IMP-PTR
DCBNMSF
       421**DCL      1774<<ASSIGN
DCBSF
       369**DCL      1776>>ASSIGN   1817<<ASSIGN
DCBVAL
        16**DCL      1772<<CALLBLT  1773>>CALLBLT  1810<<ASSIGN   1816>>ASSIGN   1817>>ASSIGN
DE_QUE
      1760**DCL-ENT  1812--CALL
ENCRP_SEEDSF
       398**DCL       399--REDEF
ERRCODESF
       400**DCL       405--REDEF
ERRCODESF.ERR#
       403**DCL      1797<<ASSIGN
ERRCODE_RDEF
       405**DCL      1798>>ASSIGN
ERR_INSERT.CNT
       414**DCL      1794<<ASSIGN
ERR_INSERT.TEXT
       415**DCL      1795<<CALLBLT  1796<>CALL
F$DCB.ACTPOS
      1625**DCL      1625--REDEF
F$DCB.ARS#
      1599**DCL      1599--REDEF
F$DCB.ATTR
      1618**DCL      1619--REDEF
PL6.E3A0      #001=ZIU$ASSDCB File=ZIU$ASSDCB.:ZIC0TSI                           FRI 09/05/97 13:07 Page:20
F$DCB.BORROW
      1633**DCL      1633--REDEF    1633--REDEF    1633--REDEF
F$DCB.DCBNAME.L
      1647**DCL      1647--IMP-SIZ
F$DCB.EOMCHAR#
      1603**DCL      1603--REDEF
F$DCB.FLDID
      1628**DCL      1628--REDEF
F$DCB.FORM$
      1622**DCL      1622--REDEF
F$DCB.FSECT
      1638**DCL      1638--REDEF
F$DCB.FSN#
      1615**DCL      1615--REDEF    1615--REDEF    1616--REDEF
F$DCB.HEADER$
      1621**DCL      1621--REDEF
F$DCB.IXTNSIZE#
      1619**DCL      1619--REDEF
F$DCB.LASTSTA$
      1608**DCL      1608--REDEF
F$DCB.LVL
      1634**DCL      1634--REDEF
F$DCB.NAME#.C
      1609**DCL      1609--REDEF
F$DCB.NOEOF
      1631**DCL      1631--REDEF
F$DCB.NRECS#
      1620**DCL      1620--REDEF
F$DCB.NRECX
      1639**DCL      1639--REDEF
F$DCB.OHDR
      1631**DCL      1631--REDEF
F$DCB.ORG#
      1614**DCL      1614--REDEF
F$DCB.PRECNO
      1637**DCL      1637--REDEF
PL6.E3A0      #001=ZIU$ASSDCB File=ZIU$ASSDCB.:ZIC0TSI                           FRI 09/05/97 13:07 Page:21
F$DCB.RCSZ
      1643**DCL      1643--REDEF
F$DCB.RES#
      1610**DCL      1610--REDEF
F$DCB.SETX
      1622**DCL      1622--REDEF
F$DCB.TAB$
      1622**DCL      1622--REDEF
F$DCB.TDA
      1636**DCL      1637--REDEF
F$DCB.WSN#
      1610**DCL      1610--REDEF
FID$
       129**DCL       133--IMP-PTR  1776>>ASSIGN   1809>>ASSIGN   1810>>ASSIGN   1813>>ASSIGN   1816>>ASSIGN
FIDLIST.CRPT
       142**DCL       143--REDEF
FIDLIST.DCB#
       144**DCL      1776<<ASSIGN   1810>>ASSIGN   1813<<ASSIGN   1816<<ASSIGN
FIDLIST.QUE.NXT
       147**DCL      1809>>ASSIGN
FIDSF_RD
       416**DCL       417--REDEF
HELPCODE
       434**DCL       439--REDEF
INDX
         9**DCL         7--PROC     1768--ENTRY    1776>>ASSIGN   1782<>CALL     1791<>CALL
INDX IN PROCEDURE STEAL_DCB
      1806**DCL      1805--PROC     1808>>ASSIGN   1809<<ASSIGN   1810>>ASSIGN   1812<>CALL     1813>>ASSIGN
      1815<<ASSIGN   1816>>ASSIGN
KEYVSF
       372**DCL       377--REDEF
KEYVSF.WD_ONE
       374**DCL       375--REDEF
MSGCODE
       406**DCL       407--REDEF    1798<<ASSIGN
NO.DCBS
PL6.E3A0      #001=ZIU$ASSDCB File=ZIU$ASSDCB.:ZIC0TSI                           FRI 09/05/97 13:07 Page:22
       168**DCL      1770>>IF       1790<<ASSIGN   1795>>CALLBLT
NO_GOT_DCB
      1787**LABEL    1775--CALLALT
NXTDCB
        12**DCL      1774--ASSIGN
NXTDCB.S
        15**DCL      1772>>CALLBLT  1773<<CALLBLT
OPNDCB.ACSVEH_
      1716**DCL      1717--REDEF
OPNDCB.ALTKEYS_
      1722**DCL      1723--REDEF    1723--REDEF
OPNDCB.HDR_
      1721**DCL      1722--REDEF
OPNDCB.TAB_
      1720**DCL      1721--REDEF
OPNDCB.UHL_
      1714**DCL      1715--REDEF    1715--REDEF
OPNDCB.V
      1723**DCL      1714--DCLINIT
OPNDCB.V.FSN#
      1754**DCL      1754--REDEF    1754--REDEF
OPNDCB.WSN_
      1720**DCL      1720--REDEF
STEAL_DCB
      1805**PROC     1782--CALL     1791--CALL
SYS_FUNC_CLOS
      1763**DCL-ENT  1818--CALL
SYS_FUNC_ERRMSG
      1765**DCL-ENT  1799--CALL
SYS_FUNC_GETDCB
      1762**DCL-ENT  1775--CALL
TEMP
        17**DCL      1808<<ASSIGN   1815>>ASSIGN
ZERO_SUP
      1761**DCL-ENT  1796--CALL
