
PL6.E3A0      #001=ZIU$BRKCTL File=ZIU$BRKCTL.:ZIC0TSI                           FRI 09/05/97 13:07 Page:1
        1        1        /*M* ZIU$BRKCTL     IDS UTILITIES BREAK CONTROL ROUTINE      */
        2        2        /*T***********************************************************/
        3        3        /*T*                                                         */
        4        4        /*T* Copyright (c) Bull HN Information Systems Inc., 1997    */
        5        5        /*T*                                                         */
        6        6        /*T***********************************************************/
        7        7        /*P*
        8        8              NAME: ZIU$BRKCTL
        9        9           PURPOSE: This routine is entered each time the break key is pressed
       10       10              and sets a break control flag. Control is then returned to the
       11       11              routine in operation which will inturn check the flag periodicly
       12       12              and handle its own neccessary clean up.                       */
       13       13        ZIU$BRKCTL: PROC ASYNC;
       14       14    1   DCL 1 M$BREAK STATIC,
       15       15    1         2 CNT UBIN BYTE INIT(5) UNAL,
       16       16    1         2 TXT CHAR(5) INIT('M$BRK') UNAL;
       17       17    1   DCL M$BRK DCB;
       18       18    1   DCL 1 RESPONCE STATIC,
       19       19    1         2 A CHAR(1) UNAL;
       20       20    1   DCL BREAK_PRMPT CHAR(16) CONSTANT INIT('"C" to continue.') UNAL;
       21       21    1   DCL DBUTIL_PRMPT CHAR(1) CONSTANT UNAL INIT('-');
       22       22
       23       23        %INCLUDE CP_6;
       24      104        %INCLUDE CP_6_SUBS;
       25      644        %F$DCB;
       26      701        %FPT_PROMPT(PROMPT=BREAK_PRMPT,VFC=NO,DCB=M$UC);
       27      729        %FPT_READ(BUF=RESPONCE,DCB=M$BRK);
       28      768        %FPT_CLOSE(DCB=M$BRK);
       29      810        %FPT_TRMPRG(PURGEOUTPUT=YES,STCLASS="STATIC SYMDEF",
       30      811         PURGEINPUT=YES,
       31      812         RSTBRK=YES);
       32      841        %INCLUDE ZI_GLOBAL_DBUTIL;
       33     1019         %SYS_FUNC;
       34     1111    1   DCL BREAK_FLAG SBIN(36) SYMREF ALIGNED;
       35     1112
       36     1113
       37     1114    1       BREAK_FLAG = BREAK_FLAG+1;
PL6.E3A0      #001=ZIU$BRKCTL File=ZIU$BRKCTL.:ZIC0TSI                           FRI 09/05/97 13:07 Page:2
       38     1115    1       FPT_PROMPT.PROMPT_ = VECTOR(BREAK_PRMPT);
       39     1116    1       CALL M$PROMPT(FPT_PROMPT);
       40     1117    1   ACCEPT:
       41     1118    1       RESPONCE.A =' ';
       42     1119    1       CALL M$READ(FPT_READ);
       43     1120    1       CALL M$CLOSE(FPT_CLOSE);
       44     1121    1       FPT_PROMPT.PROMPT_ = VECTOR(DBUTIL_PRMPT); /* RESET PROMPT */
       45     1122    1       CALL M$PROMPT(FPT_PROMPT);
       46     1123
       47     1124    1       IF RESPONCE.A ~= 'C' THEN
       48     1125    2       DO;
       49     1126    2           CALL M$TRMPRG(FPT_TRMPRG);
       50     1127    2           RETURN; /* Return with flag set */
       51     1128    2           END;
       52     1129    2       ELSE DO;
       53     1130    2           BREAK_FLAG = 0;
       54     1131    2           RETURN;
       55     1132    2           END;
       56     1133
       57     1134    1   END ZIU$BRKCTL;

PL6.E3A0      #001=ZIU$BRKCTL File=ZIU$BRKCTL.:ZIC0TSI                           FRI 09/05/97 13:07 Page:3
--  Include file information  --

   ZI_GLOBAL_DBUTIL.:ZIC0TOU  is referenced.
   CP_6_SUBS.:LIB_E05  is referenced.
   CP_6.:LIB_E05  cannot be made into a system file and is referenced.
   B$JIT_C.:E05TOU  was found in the system file and is never referenced.
   CP_6_C.:E05TOU  was found in the system file and is referenced.
      No diagnostics issued in procedure ZIU$BRKCTL.

   Procedure ZIU$BRKCTL requires 31 words for executable code.
   Procedure ZIU$BRKCTL requires 4 words of local(AUTO) storage.

    No errors detected in file ZIU$BRKCTL.:ZIC0TSI    .

PL6.E3A0      #001=ZIU$BRKCTL File=ZIU$BRKCTL.:ZIC0TSI                           FRI 09/05/97 13:07 Page:4

 Object Unit name= ZIU$BRKCTL                                 File name= ZIU$BRKCTL.:ZIC0TOU
 UTS= SEP 05 '97 13:07:29.24 FRI                              Compiler= PL-6/E31         Sev=      00
 SharedLib= :SHARED_SYSTEM                                    Alt SharedLib=


    ****  Control sections  ****

 Sect   Type Bound  Init  Size OctSiz  Section name(segment info)
    0   Data  even  none    66    102  ZIU$BRKCTL
    1   DCB   even  none     0      0  M$BRK
    2  RoData even  UTS      5      5  ZIU$BRKCTL
    3   DCB   even  none     0      0  M$UC
    4   Proc  even  none    31     37  ZIU$BRKCTL
    5  RoData even  none     4      4  ZIU$BRKCTL

    ****  Entry defs  ****

                              Check   Calling
                             calling  sequence
  Sect OctLoc Primary Altret sequence   type   Parms  Name
     4      0   yes            yes     Async       0  ZIU$BRKCTL

  ****  Data defs  ****

 Sect OctLoc  Name                           Sect OctLoc  Name
    0     72  FPT_TRMPRG

  ****  Entry refs  ****

         Check        Calling
        calling       sequence
Altret sequence SRef   type   Args  Name
                       nStd      0 X66_AAUTO
                       nStd      0 X66_AARET
PL6.E3A0      #001=ZIU$BRKCTL File=ZIU$BRKCTL.:ZIC0TSI                           FRI 09/05/97 13:07 Page:5

  ****  Data refs  ****

  Flags:  r = read only, s = secondary
Flgs Name                             Flgs Name                             Flgs Name
     M$BRK                                 M$UC                                  BLKLSF
     KEYLSF                                KEYXSF                                DCBSF
     ORGSF                                 KEYSF                                 KEYVSF
     ACSSF                                 NOTIMESF                              FUNSF
     ASNSF                                 TESTSF                                XTENSIZESF
     DISPSF                                WAITSF                                VFCSF
     FULLSF                                BKUPSF                                BUFLNSF
     BUFSF                                 SOURCESF                              DESTSF
     DATESF                                TIMESF                                UTSSF
     DAYSF                                 TSTAMPSF                              ENCRP_SEEDSF
     ERRCODESF                             MSGCODE                               INCL_ERR
     ERR_INSERT                            FIDSF_RD                              ACNT
     EXISTSF                               SHARESF                               DCBNMSF
     KEYRSF                                NO_KEYSF                              REASGNSF
     CARRY_ATTRIBUTESF                     SUBMESSF                              SPKY_OPNSF
     POSSF                                 ERRFLGSF                              MERGESF
     FSA_FLAG                              RELGSF                                UNUSED
     HELPCODE                              COUNTSF                               INDEXSF
     GAP                                   PSNSF                                 ACNTSF
     KEY_SHADWSF                           BREAK_FLAG

  ****  Segment refs  ****

  Flags:  r = read only, s = secondary
Flgs Name                             Flgs Name                             Flgs Name
     ISSID                                 NULLSID
PL6.E3A0      #001=ZIU$BRKCTL File=ZIU$BRKCTL.:ZIC0TSI                           FRI 09/05/97 13:07 Page:6


        1        1        /*M* ZIU$BRKCTL     IDS UTILITIES BREAK CONTROL ROUTINE      */
        2        2        /*T***********************************************************/
        3        3        /*T*                                                         */
        4        4        /*T* Copyright (c) Bull HN Information Systems Inc., 1997    */
        5        5        /*T*                                                         */
        6        6        /*T***********************************************************/
        7        7        /*P*
        8        8              NAME: ZIU$BRKCTL
        9        9           PURPOSE: This routine is entered each time the break key is pressed
       10       10              and sets a break control flag. Control is then returned to the
       11       11              routine in operation which will inturn check the flag periodicly
       12       12              and handle its own neccessary clean up.                       */
       13       13        ZIU$BRKCTL: PROC ASYNC;

     13  4 000000   000000 700200 xent  ZIU$BRKCTL   TSX0  ! X66_AAUTO
         4 000001   000004 000000                    ZERO    4,0

       14       14    1   DCL 1 M$BREAK STATIC,
       15       15    1         2 CNT UBIN BYTE INIT(5) UNAL,
       16       16    1         2 TXT CHAR(5) INIT('M$BRK') UNAL;
       17       17    1   DCL M$BRK DCB;
       18       18    1   DCL 1 RESPONCE STATIC,
       19       19    1         2 A CHAR(1) UNAL;
       20       20    1   DCL BREAK_PRMPT CHAR(16) CONSTANT INIT('"C" to continue.') UNAL;
       21       21    1   DCL DBUTIL_PRMPT CHAR(1) CONSTANT UNAL INIT('-');
       22       22
       23       23        %INCLUDE CP_6;
       24      104        %INCLUDE CP_6_SUBS;
       25      644        %F$DCB;
       26      701        %FPT_PROMPT(PROMPT=BREAK_PRMPT,VFC=NO,DCB=M$UC);
       27      729        %FPT_READ(BUF=RESPONCE,DCB=M$BRK);
       28      768        %FPT_CLOSE(DCB=M$BRK);
       29      810        %FPT_TRMPRG(PURGEOUTPUT=YES,STCLASS="STATIC SYMDEF",
       30      811         PURGEINPUT=YES,
       31      812         RSTBRK=YES);
       32      841        %INCLUDE ZI_GLOBAL_DBUTIL;
PL6.E3A0      #001=ZIU$BRKCTL File=ZIU$BRKCTL.:ZIC0TSI                           FRI 09/05/97 13:07 Page:7
       33     1019         %SYS_FUNC;
       34     1111    1   DCL BREAK_FLAG SBIN(36) SYMREF ALIGNED;
       35     1112
       36     1113
       37     1114    1       BREAK_FLAG = BREAK_FLAG+1;

   1114  4 000002   000000 054000 xsym               AOS     BREAK_FLAG

       38     1115    1       FPT_PROMPT.PROMPT_ = VECTOR(BREAK_PRMPT);

   1115  4 000003   000000 237000 5                  LDAQ    0
         4 000004   000010 757000 0                  STAQ    FPT_PROMPT+4

       39     1116    1       CALL M$PROMPT(FPT_PROMPT);

   1116  4 000005   000004 630400 0                  EPPR0   FPT_PROMPT
         4 000006   160002 713400                    CLIMB   57346
         4 000007   401000 401760                    pmme    nvectors=3

       40     1117    1   ACCEPT:
       41     1118    1       RESPONCE.A =' ';

   1118  4 000010   040000 236003       ACCEPT       LDQ     16384,DU
         4 000011   000002 552040 0                  STBQ    RESPONCE,'40'O

       42     1119    1       CALL M$READ(FPT_READ);

   1119  4 000012   000016 630400 0                  EPPR0   FPT_READ
         4 000013   040000 713400                    CLIMB   read
         4 000014   401400 401760                    pmme    nvectors=4

       43     1120    1       CALL M$CLOSE(FPT_CLOSE);

   1120  4 000015   000034 630400 0                  EPPR0   FPT_CLOSE
         4 000016   050001 713400                    CLIMB   close
         4 000017   406000 401760                    pmme    nvectors=13

PL6.E3A0      #001=ZIU$BRKCTL File=ZIU$BRKCTL.:ZIC0TSI                           FRI 09/05/97 13:07 Page:8
       44     1121    1       FPT_PROMPT.PROMPT_ = VECTOR(DBUTIL_PRMPT); /* RESET PROMPT */

   1121  4 000020   000002 237000 5                  LDAQ    2
         4 000021   000010 757000 0                  STAQ    FPT_PROMPT+4

       45     1122    1       CALL M$PROMPT(FPT_PROMPT);

   1122  4 000022   000004 630400 0                  EPPR0   FPT_PROMPT
         4 000023   160002 713400                    CLIMB   57346
         4 000024   401000 401760                    pmme    nvectors=3

       46     1123
       47     1124    1       IF RESPONCE.A ~= 'C' THEN

   1124  4 000025   000002 236000 0                  LDQ     RESPONCE
         4 000026   777000 376003                    ANQ     -512,DU
         4 000027   103000 116003                    CMPQ    34304,DU
         4 000030   000035 600000 4                  TZE     s:1130

       48     1125    2       DO;

       49     1126    2           CALL M$TRMPRG(FPT_TRMPRG);

   1126  4 000031   000072 630400 0                  EPPR0   FPT_TRMPRG
         4 000032   160004 713400                    CLIMB   57348
         4 000033   400400 401760                    pmme    nvectors=2

       50     1127    2           RETURN; /* Return with flag set */

   1127  4 000034   000000 702200 xent               TSX2  ! X66_AARET

       51     1128    2           END;
       52     1129    2       ELSE DO;

       53     1130    2           BREAK_FLAG = 0;

   1130  4 000035   000000 450000 xsym               STZ     BREAK_FLAG
PL6.E3A0      #001=ZIU$BRKCTL File=ZIU$BRKCTL.:ZIC0TSI                           FRI 09/05/97 13:07 Page:9

       54     1131    2           RETURN;

   1131  4 000036   000000 702200 xent               TSX2  ! X66_AARET

M$BREAK
 Sect OctLoc
   0     000   005115 044102   122113 ******                                    .M$BRK..

FPT_PROMPT
 Sect OctLoc
   0     004   000003 777640   000012 006000   000000 177640   000000 006014    ................
   0     010   000003 777640   000000 006000   000000 000000   000000 000000    ................
   0     014   000000 000000   000000 000000                                    ........

FPT_READ
 Sect OctLoc
   0     016   000005 777640   000026 006000   000000 177640   000000 006014    ................
   0     022   000000 177640   000002 006000   000000 177640   000000 006014    ................
   0     026   000000 400000   000000 000000   000000 000000   000000 000000    ................
   0     032   000000 000000   000000 000000                                    ........

FPT_CLOSE
 Sect OctLoc
   0     034   000003 777640   000066 006000   000000 177640   000000 006014    .....6..........
   0     040   000000 177640   000000 006014   000000 177640   000000 006014    ................
   0     064*  000000 177640   000000 006014   000000 000000   000000 000040    ...............
   0     070   000220 000000   000000 000000                                    ........

FPT_TRMPRG
 Sect OctLoc
   0     072   000003 777640   000076 006000   000000 177640   000000 006014    .....>..........
   0     076   000000 000000   000000 000000   007000 000000   000000 000000    ................

BREAK_PRMPT
 Sect OctLoc
   2     000   042103 042040   164157 040143   157156 164151   156165 145056    "C" to continue.
PL6.E3A0      #001=ZIU$BRKCTL File=ZIU$BRKCTL.:ZIC0TSI                           FRI 09/05/97 13:07 Page:10

DBUTIL_PRMPT
 Sect OctLoc
   2     004   055*** ******                                                    -...

(unnamed)
 Sect OctLoc
   5     000   000003 777640   000000 006000   000000 177640   000004 006000    ................
       55     1132    2           END;
       56     1133
       57     1134    1   END ZIU$BRKCTL;

PL6.E3A0      #001=ZIU$BRKCTL File=ZIU$BRKCTL.:ZIC0TSI                           FRI 09/05/97 13:07 Page:11
--  Include file information  --

   ZI_GLOBAL_DBUTIL.:ZIC0TOU  is referenced.
   CP_6_SUBS.:LIB_E05  is referenced.
   CP_6.:LIB_E05  cannot be made into a system file and is referenced.
   B$JIT_C.:E05TOU  was found in the system file and is never referenced.
   CP_6_C.:E05TOU  was found in the system file and is referenced.
      No diagnostics issued in procedure ZIU$BRKCTL.

   Procedure ZIU$BRKCTL requires 31 words for executable code.
   Procedure ZIU$BRKCTL requires 4 words of local(AUTO) storage.

    No errors detected in file ZIU$BRKCTL.:ZIC0TSI    .
PL6.E3A0      #001=ZIU$BRKCTL File=ZIU$BRKCTL.:ZIC0TSI                           FRI 09/05/97 13:07 Page:12
          *** CROSS REFERENCE LISTING ***
**     DENOTES     IDENTIFIER DEFINITION
<<                 IDENTIFIER'S VALUE SET
>>                 IDENTIFIER'S VALUE USED
<>                 IDENTIFIER SET AND/OR USED
--                 IDENTIFIER REFERENCED
PL6.E3A0      #001=ZIU$BRKCTL File=ZIU$BRKCTL.:ZIC0TSI                           FRI 09/05/97 13:07 Page:13
          MINI XREF LISTING

BREAK_FLAG
      1111**DCL      1114<<ASSIGN   1114>>ASSIGN   1130<<ASSIGN
BREAK_PRMPT
        20**DCL       723--DCLINIT  1115--ASSIGN
COUNTSF
      1100**DCL      1101--REDEF
DBUTIL_PRMPT
        21**DCL      1121--ASSIGN
ENCRP_SEEDSF
      1058**DCL      1059--REDEF
ERRCODESF
      1060**DCL      1065--REDEF
F$DCB.ACTPOS
       677**DCL       677--REDEF
F$DCB.ARS#
       651**DCL       651--REDEF
F$DCB.ATTR
       670**DCL       671--REDEF
F$DCB.BORROW
       685**DCL       685--REDEF     685--REDEF     685--REDEF
F$DCB.DCBNAME.L
       699**DCL       699--IMP-SIZ
F$DCB.EOMCHAR#
       655**DCL       655--REDEF
F$DCB.FLDID
       680**DCL       680--REDEF
F$DCB.FORM$
       674**DCL       674--REDEF
F$DCB.FSECT
       690**DCL       690--REDEF
F$DCB.FSN#
       667**DCL       667--REDEF     667--REDEF     668--REDEF
PL6.E3A0      #001=ZIU$BRKCTL File=ZIU$BRKCTL.:ZIC0TSI                           FRI 09/05/97 13:07 Page:14
F$DCB.HEADER$
       673**DCL       673--REDEF
F$DCB.IXTNSIZE#
       671**DCL       671--REDEF
F$DCB.LASTSTA$
       660**DCL       660--REDEF
F$DCB.LVL
       686**DCL       686--REDEF
F$DCB.NAME#.C
       661**DCL       661--REDEF
F$DCB.NOEOF
       683**DCL       683--REDEF
F$DCB.NRECS#
       672**DCL       672--REDEF
F$DCB.NRECX
       691**DCL       691--REDEF
F$DCB.OHDR
       683**DCL       683--REDEF
F$DCB.ORG#
       666**DCL       666--REDEF
F$DCB.PRECNO
       689**DCL       689--REDEF
F$DCB.RCSZ
       695**DCL       695--REDEF
F$DCB.RES#
       662**DCL       662--REDEF
F$DCB.SETX
       674**DCL       674--REDEF
F$DCB.TAB$
       674**DCL       674--REDEF
F$DCB.TDA
       688**DCL       689--REDEF
F$DCB.WSN#
       662**DCL       662--REDEF
FIDSF_RD
      1076**DCL      1077--REDEF
PL6.E3A0      #001=ZIU$BRKCTL File=ZIU$BRKCTL.:ZIC0TSI                           FRI 09/05/97 13:07 Page:15
FPT_CLOSE
       791**DCL      1120<>CALL
FPT_CLOSE.SN_
       791**DCL       791--REDEF
FPT_CLOSE.UTL_
       792**DCL       792--REDEF
FPT_CLOSE.V
       796**DCL       791--DCLINIT
FPT_CLOSE.V.EXPIRE#
       806**DCL       806--REDEF
FPT_CLOSE.V.TYPE#
       804**DCL       804--REDEF
FPT_CLOSE.V.XTNSIZE#
       801**DCL       801--REDEF     803--REDEF
FPT_PROMPT
       717**DCL      1116<>CALL     1122<>CALL
FPT_PROMPT.PROMPT_
       723**DCL      1115<<ASSIGN   1121<<ASSIGN
FPT_PROMPT.V
       725**DCL       719--DCLINIT
FPT_READ
       746**DCL      1119<>CALL
FPT_READ.STATION_
       749**DCL       750--REDEF
FPT_READ.V
       750**DCL       746--DCLINIT
FPT_READ.V.DVBYTE.REREAD#
       761**DCL       761--REDEF
FPT_READ.V.INDX#
       759**DCL       759--REDEF
FPT_TRMPRG
       828**DCL      1126<>CALL
FPT_TRMPRG.V
       835**DCL       830--DCLINIT
FPT_TRMPRG.V.CTLFLG.RSTBRK#
       836**DCL       837--REDEF
PL6.E3A0      #001=ZIU$BRKCTL File=ZIU$BRKCTL.:ZIC0TSI                           FRI 09/05/97 13:07 Page:16
HELPCODE
      1094**DCL      1099--REDEF
KEYVSF
      1032**DCL      1037--REDEF
KEYVSF.WD_ONE
      1034**DCL      1035--REDEF
M$CLOSE
        32**DCL-ENT  1120--CALL
M$PROMPT
        56**DCL-ENT  1116--CALL     1122--CALL
M$READ
        33**DCL-ENT  1119--CALL
M$TRMPRG
        57**DCL-ENT  1126--CALL
MSGCODE
      1066**DCL      1067--REDEF
RESPONCE
        18**DCL       748--DCLINIT   749--DCLINIT
RESPONCE.A
        19**DCL      1118<<ASSIGN   1124>>IF
