
 13:08 09/05/97  FILE=ZIU$CHSUM.:ZIC0TSI                                                                 1    BMAP - B00
                                         1  *M*  ZIU$CHSUM   IDSII UTILITIES      CHECKSUM ROUTINE            *
                                         2  *T***********************************************************
                                         3  *T*                                                         *
                                         4  *T* Copyright (c) Bull HN Information Systems Inc., 1997    *
                                         5  *T*                                                         *
                                         6  *T***********************************************************
                                         7         ENTDEF  CHKSUM
                                         8         SYMREF  DATA$
                                         9         SYMREF  ICHKSUM
             000000000000               10  X0     EQU     0
             000000000000               11  PR0    EQU     0
             000000000001               12  X1     EQU     1
                                        13  *
                                        14  *      CALL CHKSUM
                                        15  *
                                        16  *      CHECKSUMS DATA PAGE AND PUTS RESULT IN ICHKSUM
                                        17  *
 0 000000                               18  CHKSUM NULL
   000000  X 000000 4704 00             19         LDP0    DATA$
   000001    000000 2360 07             20         LDQ     0,DL
   000002    000003 6200 00             21         EAX     X0,3
   000003    0 00000 0361 10            22  NXTWRD ADLQ    0,X0,PR0
   000004    000001 6200 10             23         EAX     X0,1,X0
   000005    002000 1000 03             24         CMPX    X0,1024,DU
   000006 (0)000003 6040 00             25         TMI     NXTWRD
   000007  X 000000 7560 00             26         STQ     ICHKSUM
   000010    000001 7100 11             27         TRA     1,X1            *** RETURN ***
                                        28         ENTDEF  CHKJRNL
             000000000000               29  X0     EQU     0
             000000000000               30  PR0    EQU     0
             000000000001               31  X1     EQU     1
                                        32  *
                                        33  *      CALL CHKSUM
                                        34  *
                                        35  *      CHECKSUMS DATA PAGE AND PUTS RESULT IN ICHKSUM
                                        36  *
   000011                               37  CHKJRNL NULL
 13:08 09/05/97  FILE=ZIU$CHSUM.:ZIC0TSI                                                                 2    BMAP - B00
   000011  X 000000 4704 00             38           LDP0     DATA$
   000012    000000 2360 07             39           LDQ      0,DL
   000013    0 00005 7201 00            40           LXL      X0,5,,PR0    Skip CP-6 header words
   000014    000000 6350 10             41           EAA      0,X0
   000015    000002 0350 03             42           ADLA     2,DU
   000016    000001 7710 00             43           ARL      1
   000017    000000 5310 00             44           NEG
   000020    001772 0750 03             45           ADA      1018,DU           No control words at all
   000021    000000 6200 01             46           EAX      X0,,AU
   000022    0 00000 0361 10            47  NEXTW    ADLQ     0,X0,PR0
   000023    000001 1200 03             48           SBLX     X0,1,DU
   000024    000006 1000 03             49           CMPX     X0,6,DU
   000025 (0)000022 6050 00             50           TPL      NEXTW
   000026  X 000000 7560 00             51           STQ      ICHKSUM
   000027    000001 7100 11             52           TRA      1,X1              Return
                                        53         END

  CONTROL SECTION TABLE

   0 CODE   EVEN  000030
   1 RODATA EVEN  000000 LITERALS

 13:08 09/05/97  FILE=ZIU$CHSUM.:ZIC0TSI      SYMBOL TABLE                                               3    BMAP - B00
 12101000 000000000011 CHKJRNL         28       *37
 12101000 000000000000 CHKSUM           7       *18
 03301000 000000000000 DATA$           *8        19        38
 03301001 000000000000 ICHKSUM         *9        26        51
 01101000 000000000022 NEXTW          *47        50
 01101000 000000000003 NXTWRD         *22        25
 41000000 000000000000 PR0            *11        22       *30        40        47
 41000000 000000000000 X0             *10        21        23        24       *29        40        46
                                       48        49
 40000000 000000000001 X1             *12       *31

       9 SYMBOLS

       0 MACROS

    SYMBOL SPACE USED   125 WORDS
     MACRO SPACE USED     0 WORDS
   INPUT RECORDS READ   106
 STATEMENTS PROCESSED    46
         ELAPSED TIME  0:00.60
             CPU TIME     0.47 SEC.
        ASSEMBLY RATE  5872 STATEMENTS/CPU MIN.

      NO ERRORS

