VERSION E05

 23:16 07/29/97  FILE=IVZ$CKSUM.:E05TSI                                                                  1    BMAP - B00
                                         1  *M* VOLINIT CHECKSUM ROUTINE FOR THE DEFECTIVE TRACK TABLE
                                         2  *T***********************************************************
                                         3  *T*                                                         *
                                         4  *T* Copyright (c) Bull HN Information Systems Inc., 1997    *
                                         5  *T*                                                         *
                                         6  *T***********************************************************
                                         7  *
                                         8  * REGISTER DEFINITIONS
                                         9  *
             000000000000               10  X0     EQU     0
             000000000001               11  X1     EQU     1
             000000000002               12  X2     EQU     2
             000000000003               13  X3     EQU     3
             000000000004               14  X4     EQU     4
             000000000005               15  X5     EQU     5
             000000000006               16  X6     EQU     6
             000000000007               17  X7     EQU     7
                                        18  *
             000000000000               19  PR0    EQU     0
             000000000001               20  PR1    EQU     1
             000000000002               21  PR2    EQU     2
             000000000003               22  PR3    EQU     3
             000000000004               23  PR4    EQU     4
             000000000005               24  PR5    EQU     5
             000000000006               25  PR6    EQU     6
             000000000007               26  PR7    EQU     7
                                        27  *
             000000000000               28  ARG$   EQU     PR0
             000000000001               29  ADSC$  EQU     PR1
             000000000002               30  AUTO$  EQU     PR2
                                        31  *
                                        32  * CALLING SEQUENCE:
                                        33  *
                                        34  *      CALL IVZ$CKSUM(DTT);
                                        35  *
 0 000000                               36         USE     IVZ$CKSUM,1
                                        37         ENTDEF  IVZ$CKSUM
 23:16 07/29/97  FILE=IVZ$CKSUM.:E05TSI                                                                  2    BMAP - B00
   000000                               38  IVZ$CKSUM NULL
   000000    0 00000 4745 00            39         LDP4    0,,ARG$         PTR TO DTT
   000001    4 00077 2351 00            40         LDA     63,,PR4         IS CHECKSUM ZERO?
   000002    000000 6000 11             41         TZE     0,X1            YES, NO DTT: ALTRETURN
   000003    004200 6340 07             42         LDI     =O004200,DL     CLEAR CARRY, SET OVERFLOW MASK AND MASTER MODE
   000004    4 00000 2351 00            43         LDA     0,,PR4          FIRST WORD OF DTT
   000005    174000 2200 03             44         LDX0    =O174000,DU     REMAINING WORD COUNT = 62
   000006    000001 2220 03             45         LDX2    1,DU
   000007    000000 5200 01             46         RPTX    ,1
   000010    4 00000 0711 12            47         AWCA    0,X2,PR4        CHECKSUM THE DTT
   000011    000000 0710 07             48         AWCA    0,DL            ADD IN LAST CARRY
   000012    4 00077 1151 00            49         CMPA    63,,PR4         VERIFY OLD CHECKSUM
   000013    4 00077 7551 00            50         STA     63,,PR4         STORE NEW CHECKSUM
   000014    000001 6000 11             51         TZE     1,X1            OLD CHECKSUM OK: RETURN
   000015    000000 7100 11             52         TRA     0,X1            OLD CHECKSUM FAILED: ALTRETURN

 23:16 07/29/97  FILE=IVZ$CKSUM.:E05TSI       IVZ$IDLE - Wait for Interrupt (Offline Only)               3    BMAP - B00
                                        53         TTL     IVZ$IDLE - Wait for Interrupt (Offline Only)
                                        54  *
                                        55  * CALLING SEQUENCE:
                                        56  *
                                        57  *      CALL IVZ$IDLE;
                                        58  *
                                        59  *
   000016                               60         USE     IVZ$CKSUM
                                        61         INHIB   OFF
                                        62         ENTDEF  IVZ$IDLE
   000016                               63  IVZ$IDLE NULL
   000016    000024 6370 03             64         LDT     =20,DU          TIME 20 MS. (~ MAX. DISK ACCESS TIME)
   000017    000000 6160 00             65         DIS                     WAIT FOR INTERRUPT
   000020    000001 7100 11             66         TRA     1,X1            RETURN
                                        67         END

  CONTROL SECTION TABLE

   0 CODE   EVEN  000021 IVZ$CKSUM
   1 RODATA EVEN  000000 LITERALS

 23:16 07/29/97  FILE=IVZ$CKSUM.:E05TSI       SYMBOL TABLE                                               4    BMAP - B00
 40000000 000000000001 ADSC$          *29
 41000000 000000000000 ARG$           *28        39
 40000000 000000000002 AUTO$          *30
 12101000 000000000000 IVZ$CKSUM       37       *38
 12101000 000000000016 IVZ$IDLE        62       *63
 41000000 000000000000 PR0            *19        28
 41000000 000000000001 PR1            *20        29
 41000000 000000000002 PR2            *21        30
 40000000 000000000003 PR3            *22
 41000000 000000000004 PR4            *23        40        43        47        49        50
 40000000 000000000005 PR5            *24
 40000000 000000000006 PR6            *25
 40000000 000000000007 PR7            *26
 40000000 000000000000 X0             *10
 40000000 000000000001 X1             *11
 40000000 000000000002 X2             *12
 40000000 000000000003 X3             *13
 40000000 000000000004 X4             *14
 40000000 000000000005 X5             *15
 40000000 000000000006 X6             *16
 40000000 000000000007 X7             *17

      21 SYMBOLS

       0 MACROS

    SYMBOL SPACE USED   216 WORDS
     MACRO SPACE USED     0 WORDS
   INPUT RECORDS READ   134
 STATEMENTS PROCESSED    69
         ELAPSED TIME  0:02.88
             CPU TIME     0.58 SEC.
        ASSEMBLY RATE  7138 STATEMENTS/CPU MIN.

      NO ERRORS

