VERSION E05

PL6.E3A0      #001=IV_DATA_D File=IV_DATA_D.:E05TSI                              TUE 07/29/97 23:16 Page:1
        1        1        /*M* IV_DATA_D - Static data for monitor VOLINIT */
        2        2        /*T***********************************************************/
        3        3        /*T*                                                         */
        4        4        /*T* Copyright (c) Bull HN Information Systems Inc., 1997    */
        5        5        /*T*                                                         */
        6        6        /*T***********************************************************/
        7        7        IV_DATA_D: PROC;
        8        8
        9        9    1   DCL CONSOLE_DCTX UBIN(15) STATIC SYMDEF; /* CONSOLE DCTX */
       10       10    1   DCL IN_DCTX UBIN(15) STATIC SYMDEF;     /* INPUT DCTX */
       11       11    1   DCL OUT_DCTX UBIN(15) STATIC SYMDEF;           /* OUTPUT DCTX */
       12       12    1   DCL PCB$ PTR STATIC SYMDEF;
       13       13    1   DCL PRCHAR CHAR(1) STATIC SYMDEF ALIGNED;      /* PROMPT CHARACTER */
       14       14    1   DCL IVO_OPINT BIT(1) STATIC SYMDEF;
       15       15    1   DCL CTR SBIN STATIC SYMDEF INIT(0);
       16       16    1   DCL 1 FREE STATIC SYMDEF DALIGNED,             /* FREE SPACE HEAD */
       17       17    1         2 * SBIN,
       18       18    1         2 FL$ PTR INIT(ADDR(FREE));
       19       19    1   DCL SEGSIZE SBIN STATIC SYMDEF INIT(0);        /* SIZE OF DATA SEGMENT */
       20       20    1   DCL 1 B_VERSION CONSTANT SYMDEF,
       21       21    1         2 * UBIN BYTE UNAL INIT(3),
       22       22    1         2 * CHAR(0) UNAL INIT('E05');
       23       23    1   DCL IV_IO$ PTR STATIC SYMDEF INIT(ADDR(NIL));
       24       24
       25       25    1   END IV_DATA_D;

PL6.E3A0      #001=IV_DATA_D File=IV_DATA_D.:E05TSI                              TUE 07/29/97 23:16 Page:2
      No diagnostics issued in procedure IV_DATA_D.

   No code generated for procedure IV_DATA_D .
   Procedure IV_DATA_D requires 4 words of local(AUTO) storage.

    No errors detected in file IV_DATA_D.:E05TSI    .

PL6.E3A0      #001=IV_DATA_D File=IV_DATA_D.:E05TSI                              TUE 07/29/97 23:16 Page:3

 Object Unit name= IV_DATA_D                                  File name= IV_DATA_D.:E05TOU
 UTS= JUL 29 '97 23:16:53.24 TUE                              Compiler= PL-6/E31         Sev=      00
 SharedLib= :SHARED_SYSTEM                                    Alt SharedLib=


    ****  Control sections  ****

 Sect   Type Bound  Init  Size OctSiz  Section name(segment info)
    0   Data  even  none    12     14  IV_DATA_D
    1  RoData even  UTS      1      1  IV_DATA_D
    2   Proc  even  none     0      0  IV_DATA_D

    ****  Entry defs  ****

                              Check   Calling
                             calling  sequence
  Sect OctLoc Primary Altret sequence   type   Parms  Name
     2      0   yes            yes     ~proc       0  IV_DATA_D

  ****  Data defs  ****

 Sect OctLoc  Name                           Sect OctLoc  Name
    0      0  CONSOLE_DCTX                       0      1  IN_DCTX
    0      2  OUT_DCTX                           0      3  PCB$
    0      4  PRCHAR                             0      5  IVO_OPINT
    0      6  CTR                                0     10  FREE
    0     12  SEGSIZE                            1      0  B_VERSION
    0     13  IV_IO$

  ****  Segment refs  ****

  Flags:  r = read only, s = secondary
Flgs Name                             Flgs Name                             Flgs Name
     ISSID                                 NULLSID
PL6.E3A0      #001=IV_DATA_D File=IV_DATA_D.:E05TSI                              TUE 07/29/97 23:16 Page:4


(unnamed)
 Sect OctLoc
   0     000   ****** ******   ****** ******   ****** ******   ****** ******    ................
   0     004*  ****** ******   ****** ******   000000 000000   ****** ******    ................

FREE
 Sect OctLoc
   0     010   ****** ******   000010 006000                                    ........

(unnamed)
 Sect OctLoc
   0     012   000000 000000   000000 006014                                    ........

(unnamed)
 Sect OctLoc
   1     000   003105 060065                                                    .E05
        1        1        /*M* IV_DATA_D - Static data for monitor VOLINIT */
        2        2        /*T***********************************************************/
        3        3        /*T*                                                         */
        4        4        /*T* Copyright (c) Bull HN Information Systems Inc., 1997    */
        5        5        /*T*                                                         */
        6        6        /*T***********************************************************/
        7        7        IV_DATA_D: PROC;
        8        8
        9        9    1   DCL CONSOLE_DCTX UBIN(15) STATIC SYMDEF; /* CONSOLE DCTX */
       10       10    1   DCL IN_DCTX UBIN(15) STATIC SYMDEF;     /* INPUT DCTX */
       11       11    1   DCL OUT_DCTX UBIN(15) STATIC SYMDEF;           /* OUTPUT DCTX */
       12       12    1   DCL PCB$ PTR STATIC SYMDEF;
       13       13    1   DCL PRCHAR CHAR(1) STATIC SYMDEF ALIGNED;      /* PROMPT CHARACTER */
       14       14    1   DCL IVO_OPINT BIT(1) STATIC SYMDEF;
       15       15    1   DCL CTR SBIN STATIC SYMDEF INIT(0);
       16       16    1   DCL 1 FREE STATIC SYMDEF DALIGNED,             /* FREE SPACE HEAD */
       17       17    1         2 * SBIN,
       18       18    1         2 FL$ PTR INIT(ADDR(FREE));
       19       19    1   DCL SEGSIZE SBIN STATIC SYMDEF INIT(0);        /* SIZE OF DATA SEGMENT */
       20       20    1   DCL 1 B_VERSION CONSTANT SYMDEF,
PL6.E3A0      #001=IV_DATA_D File=IV_DATA_D.:E05TSI                              TUE 07/29/97 23:16 Page:5
       21       21    1         2 * UBIN BYTE UNAL INIT(3),
       22       22    1         2 * CHAR(0) UNAL INIT('E05');
       23       23    1   DCL IV_IO$ PTR STATIC SYMDEF INIT(ADDR(NIL));
       24       24
       25       25    1   END IV_DATA_D;

PL6.E3A0      #001=IV_DATA_D File=IV_DATA_D.:E05TSI                              TUE 07/29/97 23:16 Page:6
      No diagnostics issued in procedure IV_DATA_D.
PL6.E3A0      #001=IV_DATA_D File=IV_DATA_D.:E05TSI                              TUE 07/29/97 23:16 Page:7

 **** Variables and constants ****

  ****  Section 000  Data  IV_DATA_D

  ****  Scalars and arrays  ****
OctLoc.c.b A Datatyp(siz) R M Lvl/name                 OctLoc.c.b A Datatyp(siz) R M Lvl/name

    10-0-0/d STRC(72)    r     1 FREE


   No code generated for procedure IV_DATA_D .
   Procedure IV_DATA_D requires 4 words of local(AUTO) storage.

    No errors detected in file IV_DATA_D.:E05TSI    .
PL6.E3A0      #001=IV_DATA_D File=IV_DATA_D.:E05TSI                              TUE 07/29/97 23:16 Page:8
          *** CROSS REFERENCE LISTING ***
**     DENOTES     IDENTIFIER DEFINITION
<<                 IDENTIFIER'S VALUE SET
>>                 IDENTIFIER'S VALUE USED
<>                 IDENTIFIER SET AND/OR USED
--                 IDENTIFIER REFERENCED
PL6.E3A0      #001=IV_DATA_D File=IV_DATA_D.:E05TSI                              TUE 07/29/97 23:16 Page:9
          MINI XREF LISTING

FREE
        16**DCL        18--DCLINIT
