VERSION E05

PL6.E3A0      #001=JC_DATA_D File=JC_DATA_D.:E05TSI                              TUE 07/29/97 23:20 Page:1
        1        1        /*M* JC_DATA_D   SLUG SYMDEF data */
        2        2        /*T***********************************************************/
        3        3        /*T*                                                         */
        4        4        /*T* Copyright (c) Bull HN Information Systems Inc., 1997    */
        5        5        /*T*                                                         */
        6        6        /*T***********************************************************/
        7        7        JC_DATA_D:  PROC;
        8        8        /* ! ! */
        9        9        %INCLUDE JC_MACRO_C;
       10      123        /* !R! */
       11      124    1   DCL JC_PHASE UBIN STATIC SYMDEF INIT(0);
       12      125                             /* JC_PHASE - Which phase of booting are we in.
       13      126                                     1 - Running SUPER to rebuild his files
       14      127                                     2 - KEYIN, ELF init, PIG init and DINGO
       15      128                                     3 - OUTSYM init, PRESCAN init, FROG init,
       16      129                                         INSYM init and MBS init
       17      130                                     4 - Msg to Phase 3 ghosts to 'Do anything
       18      131                                         but start users', start other MING ghosts,
       19      132                                         start RCVR2, start (or boot) FEPs,
       20      133                                         'OK to start users' msg to SLUG, MBS and
       21      134                                         GOOSE if NOUSERS bit reset
       22      135                                     5 - All the way up */
       23      136    1   DCL JC_WAITING(0:35) BIT(1) UNAL STATIC SYMDEF INIT('0'B*0);
       24      137                             /* JC_WAITING - Bit array of ghosts that SLUG is
       25      138                                waiting on during the current startup phase.
       26      139                                JC_WAITING(3)='1'B means that SLUG is waiting on
       27      140                                user number 3. */
       28      141    1   DCL JC_SUSROK BIT(1) ALIGNED STATIC SYMDEF INIT('0'B);
       29      142                             /* JC_SUSROK - Set if it is now OK to recieve a SUSR
       30      143                                event */
       31      144    1   DCL JC_SUSR BIT(1) ALIGNED STATIC SYMDEF INIT('0'B);
       32      145                             /* JC_SUSR - If set, allows SLUG to log on users,
       33      146                                devices, etc. */
       34      147    1   DCL JC_EVQCNT UBIN STATIC SYMDEF INIT(0);
       35      148                             /* JC_EVQCNT - Number of waiting events for SLUG in
       36      149                                his JC_QEV event queue */
       37      150        %JC_QEV (FPTN=JC_QEV,ARY=10,STCLASS="STATIC SYMDEF");
PL6.E3A0      #001=JC_DATA_D File=JC_DATA_D.:E05TSI                              TUE 07/29/97 23:20 Page:2
       38      177                             /* JC_QEV - SLUG's event queue */
       39      178    1   DCL JC_EVQHD$ PTR STATIC SYMDEF;
       40      179                             /* JC_EVQHD$ - Pointer to head of waiting events in
       41      180                                SLUG's event queue */
       42      181    1   DCL JC_EVQTL$ PTR STATIC SYMDEF;
       43      182                             /* JC_EVQTL$ - Pointer to last waiting event in SLUG's
       44      183                                event queue */
       45      184    1   DCL JC_FQHD$ PTR STATIC SYMDEF;
       46      185                             /* JC_FQHD$ - Pointer to head of SLUG's free event
       47      186                                blocks */
       48      187
       49      188    1   DCL JC_MARS UBIN STATIC SYMDEF;
       50      189                              /* JC_MARS - The size of the last message read */
       51      190    1   DCL JC_8000_FLG BIT(1) STATIC SYMDEF INIT('0'B);
       52      191                              /* JC_8000_FLG - set to '1'B if running on an 8000 */
       53      192    1   END JC_DATA_D;

PL6.E3A0      #001=JC_DATA_D File=JC_DATA_D.:E05TSI                              TUE 07/29/97 23:20 Page:3
--  Include file information  --

   JC_MACRO_C.:E05TOU  is referenced.
      No diagnostics issued in procedure JC_DATA_D.

   No code generated for procedure JC_DATA_D .
   Procedure JC_DATA_D requires 4 words of local(AUTO) storage.

    No errors detected in file JC_DATA_D.:E05TSI    .

PL6.E3A0      #001=JC_DATA_D File=JC_DATA_D.:E05TSI                              TUE 07/29/97 23:20 Page:4

 Object Unit name= JC_DATA_D                                  File name= JC_DATA_D.:E05TOU
 UTS= JUL 29 '97 23:20:00.12 TUE                              Compiler= PL-6/E31         Sev=      00
 SharedLib= :SHARED_SYSTEM                                    Alt SharedLib=


    ****  Control sections  ****

 Sect   Type Bound  Init  Size OctSiz  Section name(segment info)
    0   Data  even  none   110    156  JC_DATA_D
    1   Proc  even  none     0      0  JC_DATA_D

    ****  Entry defs  ****

                              Check   Calling
                             calling  sequence
  Sect OctLoc Primary Altret sequence   type   Parms  Name
     1      0   yes            yes     ~proc       0  JC_DATA_D

  ****  Data defs  ****

 Sect OctLoc  Name                           Sect OctLoc  Name
    0      0  JC_PHASE                           0      1  JC_WAITING
    0      2  JC_SUSROK                          0      3  JC_SUSR
    0      4  JC_EVQCNT                          0      5  JC_QEV
    0    151  JC_EVQHD$                          0    152  JC_EVQTL$
    0    153  JC_FQHD$                           0    154  JC_MARS
    0    155  JC_8000_FLG
PL6.E3A0      #001=JC_DATA_D File=JC_DATA_D.:E05TSI                              TUE 07/29/97 23:20 Page:5

        1        1        /*M* JC_DATA_D   SLUG SYMDEF data */
        2        2        /*T***********************************************************/
        3        3        /*T*                                                         */
        4        4        /*T* Copyright (c) Bull HN Information Systems Inc., 1997    */
        5        5        /*T*                                                         */
        6        6        /*T***********************************************************/
        7        7        JC_DATA_D:  PROC;
        8        8        /* ! ! */
        9        9        %INCLUDE JC_MACRO_C;
       10      123        /* !R! */
       11      124    1   DCL JC_PHASE UBIN STATIC SYMDEF INIT(0);
       12      125                             /* JC_PHASE - Which phase of booting are we in.
       13      126                                     1 - Running SUPER to rebuild his files
       14      127                                     2 - KEYIN, ELF init, PIG init and DINGO
       15      128                                     3 - OUTSYM init, PRESCAN init, FROG init,
       16      129                                         INSYM init and MBS init
       17      130                                     4 - Msg to Phase 3 ghosts to 'Do anything
       18      131                                         but start users', start other MING ghosts,
       19      132                                         start RCVR2, start (or boot) FEPs,
       20      133                                         'OK to start users' msg to SLUG, MBS and
       21      134                                         GOOSE if NOUSERS bit reset
       22      135                                     5 - All the way up */
       23      136    1   DCL JC_WAITING(0:35) BIT(1) UNAL STATIC SYMDEF INIT('0'B*0);
       24      137                             /* JC_WAITING - Bit array of ghosts that SLUG is
       25      138                                waiting on during the current startup phase.
       26      139                                JC_WAITING(3)='1'B means that SLUG is waiting on
       27      140                                user number 3. */
       28      141    1   DCL JC_SUSROK BIT(1) ALIGNED STATIC SYMDEF INIT('0'B);
       29      142                             /* JC_SUSROK - Set if it is now OK to recieve a SUSR
       30      143                                event */
       31      144    1   DCL JC_SUSR BIT(1) ALIGNED STATIC SYMDEF INIT('0'B);
       32      145                             /* JC_SUSR - If set, allows SLUG to log on users,
       33      146                                devices, etc. */
       34      147    1   DCL JC_EVQCNT UBIN STATIC SYMDEF INIT(0);
       35      148                             /* JC_EVQCNT - Number of waiting events for SLUG in
       36      149                                his JC_QEV event queue */
       37      150        %JC_QEV (FPTN=JC_QEV,ARY=10,STCLASS="STATIC SYMDEF");
PL6.E3A0      #001=JC_DATA_D File=JC_DATA_D.:E05TSI                              TUE 07/29/97 23:20 Page:6
       38      177                             /* JC_QEV - SLUG's event queue */
       39      178    1   DCL JC_EVQHD$ PTR STATIC SYMDEF;
       40      179                             /* JC_EVQHD$ - Pointer to head of waiting events in
       41      180                                SLUG's event queue */
       42      181    1   DCL JC_EVQTL$ PTR STATIC SYMDEF;
       43      182                             /* JC_EVQTL$ - Pointer to last waiting event in SLUG's
       44      183                                event queue */
       45      184    1   DCL JC_FQHD$ PTR STATIC SYMDEF;
       46      185                             /* JC_FQHD$ - Pointer to head of SLUG's free event
       47      186                                blocks */
       48      187
       49      188    1   DCL JC_MARS UBIN STATIC SYMDEF;
       50      189                              /* JC_MARS - The size of the last message read */
       51      190    1   DCL JC_8000_FLG BIT(1) STATIC SYMDEF INIT('0'B);
       52      191                              /* JC_8000_FLG - set to '1'B if running on an 8000 */
       53      192    1   END JC_DATA_D;

PL6.E3A0      #001=JC_DATA_D File=JC_DATA_D.:E05TSI                              TUE 07/29/97 23:20 Page:7
--  Include file information  --

   JC_MACRO_C.:E05TOU  is referenced.
      No diagnostics issued in procedure JC_DATA_D.
PL6.E3A0      #001=JC_DATA_D File=JC_DATA_D.:E05TSI                              TUE 07/29/97 23:20 Page:8

 **** Variables and constants ****


   No code generated for procedure JC_DATA_D .
   Procedure JC_DATA_D requires 4 words of local(AUTO) storage.

    No errors detected in file JC_DATA_D.:E05TSI    .
PL6.E3A0      #001=JC_DATA_D File=JC_DATA_D.:E05TSI                              TUE 07/29/97 23:20 Page:9
          *** CROSS REFERENCE LISTING ***
**     DENOTES     IDENTIFIER DEFINITION
<<                 IDENTIFIER'S VALUE SET
>>                 IDENTIFIER'S VALUE USED
<>                 IDENTIFIER SET AND/OR USED
--                 IDENTIFIER REFERENCED
PL6.E3A0      #001=JC_DATA_D File=JC_DATA_D.:E05TSI                              TUE 07/29/97 23:20 Page:10
          MINI XREF LISTING

