VERSION E05

PL6.E3A0      #001=JC_ROSEG_D File=JC_ROSEG_D.:E05TSI                            TUE 07/29/97 23:20 Page:1
        1        1        /*M* JC_ROSEG_D Static initial READ-ONLY-SEGMENT for slug built users*/
        2        2        /*T***********************************************************/
        3        3        /*T*                                                         */
        4        4        /*T* Copyright (c) Bull HN Information Systems Inc., 1997    */
        5        5        /*T*                                                         */
        6        6        /*T***********************************************************/
        7        7        /**/
        8        8        /**/
        9        9        JC_ROSEG_D: PROC;
       10       10        /**/
       11       11        /**/
       12       12        %INCLUDE F_DCB_D;
       13      100        %INCLUDE CP_6;
       14      181        %INCLUDE CP_6_SUBS;
       15      721        /**/
       16      722        /**/
       17      723        %MACRO DCBNAME (NM=DCBNAME,NAME=' ');
       18      724        DCL 1 NM STATIC SYMDEF DALIGNED,
       19      725              2 * UBIN BYTE UNAL INIT(LENGTHC(NAME)),
       20      726              2 * CHAR(7) UNAL INIT(NAME);
       21      727        %MEND;
       22      728        /**/
       23      729        /**/
       24      730    1   DCL 1 JC_ROSEG DALIGNED STATIC SYMDEF,
       25      731    1         2 DCBPTR$ PTR INIT(ADDR(JC_RODCB$)),
       26      732    1         2 TREE$ PTR INIT(ADDR(NIL)),
       27      733    1         2 NUMDCBS UBIN(18) UNAL INIT(15),
       28      734    1         2 * UBIN(18) UNAL INIT(0),
       29      735    1         2 AVAIL$ PTR INIT(ADDR(JC_ROIDCB$)),
       30      736    1         2 CPPIA(0:15) UBIN WORD INIT(0*16),
       31      737    1         2 ECCB(0:3),
       32      738    1           3 * BIT(72) INIT('0'B*4),
       33      739    1           3 * BIT(72) INIT('0'B*4),
       34      740    1           3 * BIT(72) INIT('0'B*4),
       35      741    1         2 LDEVNAME(0:15) CHAR(4) INIT('LP01','UC98','UC01','UC99','CP01',' '*11),
       36      742    1         2 STREAMID (0:15),
       37      743    1           3 FLG UBIN(2) UNAL INIT(0,1*3,0*12),
PL6.E3A0      #001=JC_ROSEG_D File=JC_ROSEG_D.:E05TSI                            TUE 07/29/97 23:20 Page:2
       38      744    1           3 F01 BIT(1) UNAL INIT('0'B*16),
       39      745    1           3 SUBNAME UBIN(9) UNAL INIT(0*16),
       40      746    1           3 F02 BIT(1) UNAL INIT('0'B*16),
       41      747    1           3 F03 BIT(1) UNAL INIT('0'B*16),
       42      748    1           3 * BIT(3) UNAL INIT('0'B*16),
       43      749    1           3 UC_STR BIT(1) UNAL INIT ('0'B,'1'B*3,'0'B*12),
       44      750    1           3 IDENT UBIN(18) UNAL INIT(0*16),
       45      751    1         2 CR01ID,
       46      752    1           3 FLG UBIN(2)UNAL INIT(3),
       47      753    1           3 * UBIN(16)UNAL INIT(0),
       48      754    1           3 POSN UBIN(18)UNAL INIT(0),
       49      755    1         2 CR01DCB UBIN(18)UNAL INIT(1),
       50      756    1         2 STREAMFILENO UBIN(18)UNAL INIT(1),
       51      757    1         2 DRIBLM$ PTR INIT(ADDR(NIL)),      /* DRIBBLE saves DCBADDR(M$LM) here*/
       52      758    1         2 STREAM_DCL(0:143) BIT(1) UNAL INIT('0'B,'1'B,'0'B*0),
       53      759    1         2 SPARE UBIN WORD INIT(0*0);
       54      760        /**/
       55      761        %M$MDCB (DCBN=M_STAR,STCLASS="STATIC SYMDEF DALIGNED");
       56      835        %DCBNAME (NM=STAR,NAME='M$*');
       57      840        /**/
       58      841        %M$MDCB (DCBN=M_LM,STCLASS="STATIC SYMDEF DALIGNED");
       59      915        %DCBNAME (NM=LM,NAME='M$LM');
       60      920        /**/
       61      921        %M$MDCB (DCBN=M_UC,STCLASS="STATIC SYMDEF DALIGNED",FUN=UPDATE);
       62      995        %DCBNAME (NM=UC,NAME='M$UC');
       63     1000        /**/
       64     1001        %M$MDCB (DCBN=M_DO,STCLASS="STATIC SYMDEF DALIGNED",ASN=DEVICE,RES='LO',FUN=CREATE);
       65     1075        %DCBNAME (NM=DOH,NAME='M$DO');
       66     1080        /**/
       67     1081        %VLP_TAB (FPTN=JC_UCTABS,STCLASS="STATIC SYMDEF");
       68     1095        /**/
       69     1096        %VLP_STATION (FPTN=JC_UCSTA,STCLASS="STATIC SYMDEF");
       70     1123        %VLP_SETSTA (FPTN=JC_UCSST,STCLASS="STATIC SYMDEF",OSTATION='KEYIN');
       71     1151        /**/
       72     1152    1   DCL JC_NEGDCB$ (0:%(-M$MAXNEG#-1)) PTR STATIC SYMDEF INIT(ADDR(NIL)*0);
       73     1153    1   DCL JC_RODCB$ (0:9) PTR STATIC SYMDEF INIT(ADDR(NIL),ADDR(M_STAR),ADDR(M_LM),
       74     1154    1                                           ADDR(M_UC),ADDR(M_DO),ADDR(NIL)*5);
PL6.E3A0      #001=JC_ROSEG_D File=JC_ROSEG_D.:E05TSI                            TUE 07/29/97 23:20 Page:3
       75     1155    1   DCL JC_ROIDCB$ (0:5) PTR STATIC SYMDEF INIT(ADDR(NIL)*6);
       76     1156    1   DCL 1 JC_ROAVL STATIC SYMDEF DALIGNED,
       77     1157    1         2 PTR$ PTR INIT(ADDR(NIL)),
       78     1158    1         2 SIZ SBIN INIT(0);
       79     1159        /**/
       80     1160    1   END;

PL6.E3A0      #001=JC_ROSEG_D File=JC_ROSEG_D.:E05TSI                            TUE 07/29/97 23:20 Page:4
--  Include file information  --

   CP_6_SUBS.:E05TOU  is referenced.
   CP_6.:E05TOU  cannot be made into a system file and is referenced.
   F_DCB_D.:E05TOU  is referenced.
   B$JIT_C.:E05TOU  was found in the system file and is never referenced.
   CP_6_C.:E05TOU  was found in the system file and is referenced.
      No diagnostics issued in procedure JC_ROSEG_D.

   No code generated for procedure JC_ROSEG_D .
   Procedure JC_ROSEG_D requires 4 words of local(AUTO) storage.

    No errors detected in file JC_ROSEG_D.:E05TSI    .

PL6.E3A0      #001=JC_ROSEG_D File=JC_ROSEG_D.:E05TSI                            TUE 07/29/97 23:20 Page:5

 Object Unit name= JC_ROSEG_D                                 File name= JC_ROSEG_D.:E05TOU
 UTS= JUL 29 '97 23:20:30.48 TUE                              Compiler= PL-6/E31         Sev=      00
 SharedLib= :SHARED_SYSTEM                                    Alt SharedLib=


    ****  Control sections  ****

 Sect   Type Bound  Init  Size OctSiz  Section name(segment info)
    0   DCB   even  none     0      0  M$UC
    1   Data  even  none   554   1052  JC_ROSEG_D
    2   Proc  even  none     0      0  JC_ROSEG_D

    ****  Entry defs  ****

                              Check   Calling
                             calling  sequence
  Sect OctLoc Primary Altret sequence   type   Parms  Name
     2      0   yes            yes     ~proc       0  JC_ROSEG_D
PL6.E3A0      #001=JC_ROSEG_D File=JC_ROSEG_D.:E05TSI                            TUE 07/29/97 23:20 Page:6

  ****  Data defs  ****

 Sect OctLoc  Name                           Sect OctLoc  Name
    1      0  JC_ROSEG                           1    124  M_STAR
    1    264  STAR                               1    266  M_LM
    1    426  LM                                 1    430  M_UC
    1    570  UC                                 1    572  M_DO
    1    732  DOH                                1    734  JC_UCTABS
    1    744  JC_UCSTA                           1    754  JC_UCSST
    1    770  JC_NEGDCB$                         1   1030  JC_RODCB$
    1   1042  JC_ROIDCB$                         1   1050  JC_ROAVL

  ****  Data refs  ****

  Flags:  r = read only, s = secondary
Flgs Name                             Flgs Name                             Flgs Name
     M$UC

  ****  Segment refs  ****

  Flags:  r = read only, s = secondary
Flgs Name                             Flgs Name                             Flgs Name
     ISSID                                 NULLSID
PL6.E3A0      #001=JC_ROSEG_D File=JC_ROSEG_D.:E05TSI                            TUE 07/29/97 23:20 Page:7

        1        1        /*M* JC_ROSEG_D Static initial READ-ONLY-SEGMENT for slug built users*/
        2        2        /*T***********************************************************/
        3        3        /*T*                                                         */
        4        4        /*T* Copyright (c) Bull HN Information Systems Inc., 1997    */
        5        5        /*T*                                                         */
        6        6        /*T***********************************************************/
        7        7        /**/
        8        8        /**/
        9        9        JC_ROSEG_D: PROC;
       10       10        /**/
       11       11        /**/
       12       12        %INCLUDE F_DCB_D;
       13      100        %INCLUDE CP_6;
       14      181        %INCLUDE CP_6_SUBS;
       15      721        /**/
       16      722        /**/
       17      723        %MACRO DCBNAME (NM=DCBNAME,NAME=' ');
       18      724        DCL 1 NM STATIC SYMDEF DALIGNED,
       19      725              2 * UBIN BYTE UNAL INIT(LENGTHC(NAME)),
       20      726              2 * CHAR(7) UNAL INIT(NAME);
       21      727        %MEND;
       22      728        /**/
       23      729        /**/
       24      730    1   DCL 1 JC_ROSEG DALIGNED STATIC SYMDEF,
       25      731    1         2 DCBPTR$ PTR INIT(ADDR(JC_RODCB$)),
       26      732    1         2 TREE$ PTR INIT(ADDR(NIL)),
       27      733    1         2 NUMDCBS UBIN(18) UNAL INIT(15),
       28      734    1         2 * UBIN(18) UNAL INIT(0),
       29      735    1         2 AVAIL$ PTR INIT(ADDR(JC_ROIDCB$)),
       30      736    1         2 CPPIA(0:15) UBIN WORD INIT(0*16),
       31      737    1         2 ECCB(0:3),
       32      738    1           3 * BIT(72) INIT('0'B*4),
       33      739    1           3 * BIT(72) INIT('0'B*4),
       34      740    1           3 * BIT(72) INIT('0'B*4),
       35      741    1         2 LDEVNAME(0:15) CHAR(4) INIT('LP01','UC98','UC01','UC99','CP01',' '*11),
       36      742    1         2 STREAMID (0:15),
       37      743    1           3 FLG UBIN(2) UNAL INIT(0,1*3,0*12),
PL6.E3A0      #001=JC_ROSEG_D File=JC_ROSEG_D.:E05TSI                            TUE 07/29/97 23:20 Page:8
       38      744    1           3 F01 BIT(1) UNAL INIT('0'B*16),
       39      745    1           3 SUBNAME UBIN(9) UNAL INIT(0*16),
       40      746    1           3 F02 BIT(1) UNAL INIT('0'B*16),
       41      747    1           3 F03 BIT(1) UNAL INIT('0'B*16),
       42      748    1           3 * BIT(3) UNAL INIT('0'B*16),
       43      749    1           3 UC_STR BIT(1) UNAL INIT ('0'B,'1'B*3,'0'B*12),
       44      750    1           3 IDENT UBIN(18) UNAL INIT(0*16),
       45      751    1         2 CR01ID,
       46      752    1           3 FLG UBIN(2)UNAL INIT(3),
       47      753    1           3 * UBIN(16)UNAL INIT(0),
       48      754    1           3 POSN UBIN(18)UNAL INIT(0),
       49      755    1         2 CR01DCB UBIN(18)UNAL INIT(1),
       50      756    1         2 STREAMFILENO UBIN(18)UNAL INIT(1),
       51      757    1         2 DRIBLM$ PTR INIT(ADDR(NIL)),      /* DRIBBLE saves DCBADDR(M$LM) here*/
       52      758    1         2 STREAM_DCL(0:143) BIT(1) UNAL INIT('0'B,'1'B,'0'B*0),
       53      759    1         2 SPARE UBIN WORD INIT(0*0);
       54      760        /**/
       55      761        %M$MDCB (DCBN=M_STAR,STCLASS="STATIC SYMDEF DALIGNED");
       56      835        %DCBNAME (NM=STAR,NAME='M$*');
       57      840        /**/
       58      841        %M$MDCB (DCBN=M_LM,STCLASS="STATIC SYMDEF DALIGNED");
       59      915        %DCBNAME (NM=LM,NAME='M$LM');
       60      920        /**/
       61      921        %M$MDCB (DCBN=M_UC,STCLASS="STATIC SYMDEF DALIGNED",FUN=UPDATE);
       62      995        %DCBNAME (NM=UC,NAME='M$UC');
       63     1000        /**/
       64     1001       %M$MDCB (DCBN=M_DO,STCLASS="STATIC SYMDEF DALIGNED",ASN=DEVICE,RES='LO',FUN=CREATE);
       65     1075        %DCBNAME (NM=DOH,NAME='M$DO');
       66     1080        /**/
       67     1081        %VLP_TAB (FPTN=JC_UCTABS,STCLASS="STATIC SYMDEF");
       68     1095        /**/
       69     1096        %VLP_STATION (FPTN=JC_UCSTA,STCLASS="STATIC SYMDEF");
       70     1123        %VLP_SETSTA (FPTN=JC_UCSST,STCLASS="STATIC SYMDEF",OSTATION='KEYIN');
       71     1151        /**/
       72     1152    1   DCL JC_NEGDCB$ (0:%(-M$MAXNEG#-1)) PTR STATIC SYMDEF INIT(ADDR(NIL)*0);
       73     1153    1   DCL JC_RODCB$ (0:9) PTR STATIC SYMDEF INIT(ADDR(NIL),ADDR(M_STAR),ADDR(M_LM),
       74     1154    1                                           ADDR(M_UC),ADDR(M_DO),ADDR(NIL)*5);
PL6.E3A0      #001=JC_ROSEG_D File=JC_ROSEG_D.:E05TSI                            TUE 07/29/97 23:20 Page:9
       75     1155    1   DCL JC_ROIDCB$ (0:5) PTR STATIC SYMDEF INIT(ADDR(NIL)*6);
       76     1156    1   DCL 1 JC_ROAVL STATIC SYMDEF DALIGNED,
       77     1157    1         2 PTR$ PTR INIT(ADDR(NIL)),
       78     1158    1         2 SIZ SBIN INIT(0);
       79     1159        /**/
       80     1160    1   END;

PL6.E3A0      #001=JC_ROSEG_D File=JC_ROSEG_D.:E05TSI                            TUE 07/29/97 23:20 Page:10
--  Include file information  --

   CP_6_SUBS.:E05TOU  is referenced.
   CP_6.:E05TOU  cannot be made into a system file and is referenced.
   F_DCB_D.:E05TOU  is referenced.
   B$JIT_C.:E05TOU  was found in the system file and is never referenced.
   CP_6_C.:E05TOU  was found in the system file and is referenced.
      No diagnostics issued in procedure JC_ROSEG_D.
PL6.E3A0      #001=JC_ROSEG_D File=JC_ROSEG_D.:E05TSI                            TUE 07/29/97 23:20 Page:11

 **** Variables and constants ****

  ****  Section 001  Data  JC_ROSEG_D

  ****  Scalars and arrays  ****
OctLoc.c.b A Datatyp(siz) R M Lvl/name                 OctLoc.c.b A Datatyp(siz) R M Lvl/name

  1030-0-0/w PTR         r     1 JC_RODCB$(0:9)
  1042-0-0/w PTR         r     1 JC_ROIDCB$(0:5)
   572-0-0/d STRC(3456)  r     1 M_DO                     266-0-0/d STRC(3456)  r     1 M_LM
   124-0-0/d STRC(3456)  r     1 M_STAR                   430-0-0/d STRC(3456)  r     1 M_UC


   No code generated for procedure JC_ROSEG_D .
   Procedure JC_ROSEG_D requires 4 words of local(AUTO) storage.

    No errors detected in file JC_ROSEG_D.:E05TSI    .
PL6.E3A0      #001=JC_ROSEG_D File=JC_ROSEG_D.:E05TSI                            TUE 07/29/97 23:20 Page:12
          *** CROSS REFERENCE LISTING ***
**     DENOTES     IDENTIFIER DEFINITION
<<                 IDENTIFIER'S VALUE SET
>>                 IDENTIFIER'S VALUE USED
<>                 IDENTIFIER SET AND/OR USED
--                 IDENTIFIER REFERENCED
PL6.E3A0      #001=JC_ROSEG_D File=JC_ROSEG_D.:E05TSI                            TUE 07/29/97 23:20 Page:13
          MINI XREF LISTING

JC_RODCB$
      1153**DCL       731--DCLINIT
JC_ROIDCB$
      1155**DCL       735--DCLINIT
JC_UCSTA.MSGIDXT
      1118**DCL      1121--REDEF
M_DO
      1002**DCL      1154--DCLINIT
M_DO.ACTPOS
      1043**DCL      1043--REDEF
M_DO.ARS#
      1002**DCL      1002--REDEF
M_DO.ATTR#
      1032**DCL      1032--REDEF    1034--REDEF
M_DO.BORROW
      1054**DCL      1054--REDEF    1054--REDEF    1054--REDEF
M_DO.EOMCHAR#
      1009**DCL      1010--REDEF
M_DO.FLDID
      1046**DCL      1047--REDEF
M_DO.FORM$
      1038**DCL      1038--REDEF
M_DO.FSECT
      1061**DCL      1061--REDEF
M_DO.FSN#
      1028**DCL      1028--REDEF    1028--REDEF    1029--REDEF
M_DO.HEADER$
      1037**DCL      1038--REDEF
M_DO.IXTNSIZE#
      1034**DCL      1035--REDEF
M_DO.LASTSTA$
      1018**DCL      1018--REDEF
PL6.E3A0      #001=JC_ROSEG_D File=JC_ROSEG_D.:E05TSI                            TUE 07/29/97 23:20 Page:14
M_DO.LVL
      1055**DCL      1055--REDEF
M_DO.NAME#.C
      1018**DCL      1019--REDEF
M_DO.NOEOF
      1050**DCL      1050--REDEF
M_DO.NRECS#
      1035**DCL      1035--REDEF
M_DO.NRECX
      1062**DCL      1062--REDEF
M_DO.OHDR
      1051**DCL      1051--REDEF
M_DO.ORG#
      1026**DCL      1027--REDEF
M_DO.PRECNO
      1059**DCL      1059--REDEF
M_DO.RCSZ
      1067**DCL      1067--REDEF
M_DO.RES#
      1020**DCL      1020--REDEF
M_DO.SETX
      1039**DCL      1039--REDEF
M_DO.TAB$
      1038**DCL      1038--REDEF
M_DO.TDA
      1058**DCL      1059--REDEF
M_DO.WSN#
      1020**DCL      1021--REDEF
M_LM
       842**DCL      1153--DCLINIT
M_LM.ACTPOS
       883**DCL       883--REDEF
M_LM.ARS#
       842**DCL       842--REDEF
M_LM.ATTR#
       872**DCL       872--REDEF     874--REDEF
PL6.E3A0      #001=JC_ROSEG_D File=JC_ROSEG_D.:E05TSI                            TUE 07/29/97 23:20 Page:15
M_LM.BORROW
       894**DCL       894--REDEF     894--REDEF     894--REDEF
M_LM.EOMCHAR#
       849**DCL       850--REDEF
M_LM.FLDID
       886**DCL       887--REDEF
M_LM.FORM$
       878**DCL       878--REDEF
M_LM.FSECT
       901**DCL       901--REDEF
M_LM.FSN#
       868**DCL       868--REDEF     868--REDEF     869--REDEF
M_LM.HEADER$
       877**DCL       878--REDEF
M_LM.IXTNSIZE#
       874**DCL       875--REDEF
M_LM.LASTSTA$
       858**DCL       858--REDEF
M_LM.LVL
       895**DCL       895--REDEF
M_LM.NAME#.C
       858**DCL       859--REDEF
M_LM.NOEOF
       890**DCL       890--REDEF
M_LM.NRECS#
       875**DCL       875--REDEF
M_LM.NRECX
       902**DCL       902--REDEF
M_LM.OHDR
       891**DCL       891--REDEF
M_LM.ORG#
       866**DCL       867--REDEF
M_LM.PRECNO
       899**DCL       899--REDEF
M_LM.RCSZ
       907**DCL       907--REDEF
PL6.E3A0      #001=JC_ROSEG_D File=JC_ROSEG_D.:E05TSI                            TUE 07/29/97 23:20 Page:16
M_LM.RES#
       860**DCL       860--REDEF
M_LM.SETX
       879**DCL       879--REDEF
M_LM.TAB$
       878**DCL       878--REDEF
M_LM.TDA
       898**DCL       899--REDEF
M_LM.WSN#
       860**DCL       861--REDEF
M_STAR
       762**DCL      1153--DCLINIT
M_STAR.ACTPOS
       803**DCL       803--REDEF
M_STAR.ARS#
       762**DCL       762--REDEF
M_STAR.ATTR#
       792**DCL       792--REDEF     794--REDEF
M_STAR.BORROW
       814**DCL       814--REDEF     814--REDEF     814--REDEF
M_STAR.EOMCHAR#
       769**DCL       770--REDEF
M_STAR.FLDID
       806**DCL       807--REDEF
M_STAR.FORM$
       798**DCL       798--REDEF
M_STAR.FSECT
       821**DCL       821--REDEF
M_STAR.FSN#
       788**DCL       788--REDEF     788--REDEF     789--REDEF
M_STAR.HEADER$
       797**DCL       798--REDEF
M_STAR.IXTNSIZE#
       794**DCL       795--REDEF
M_STAR.LASTSTA$
       778**DCL       778--REDEF
PL6.E3A0      #001=JC_ROSEG_D File=JC_ROSEG_D.:E05TSI                            TUE 07/29/97 23:20 Page:17
M_STAR.LVL
       815**DCL       815--REDEF
M_STAR.NAME#.C
       778**DCL       779--REDEF
M_STAR.NOEOF
       810**DCL       810--REDEF
M_STAR.NRECS#
       795**DCL       795--REDEF
M_STAR.NRECX
       822**DCL       822--REDEF
M_STAR.OHDR
       811**DCL       811--REDEF
M_STAR.ORG#
       786**DCL       787--REDEF
M_STAR.PRECNO
       819**DCL       819--REDEF
M_STAR.RCSZ
       827**DCL       827--REDEF
M_STAR.RES#
       780**DCL       780--REDEF
M_STAR.SETX
       799**DCL       799--REDEF
M_STAR.TAB$
       798**DCL       798--REDEF
M_STAR.TDA
       818**DCL       819--REDEF
M_STAR.WSN#
       780**DCL       781--REDEF
M_UC
       922**DCL      1154--DCLINIT
M_UC.ACTPOS
       963**DCL       963--REDEF
M_UC.ARS#
       922**DCL       922--REDEF
M_UC.ATTR#
       952**DCL       952--REDEF     954--REDEF
PL6.E3A0      #001=JC_ROSEG_D File=JC_ROSEG_D.:E05TSI                            TUE 07/29/97 23:20 Page:18
M_UC.BORROW
       974**DCL       974--REDEF     974--REDEF     974--REDEF
M_UC.EOMCHAR#
       929**DCL       930--REDEF
M_UC.FLDID
       966**DCL       967--REDEF
M_UC.FORM$
       958**DCL       958--REDEF
M_UC.FSECT
       981**DCL       981--REDEF
M_UC.FSN#
       948**DCL       948--REDEF     948--REDEF     949--REDEF
M_UC.HEADER$
       957**DCL       958--REDEF
M_UC.IXTNSIZE#
       954**DCL       955--REDEF
M_UC.LASTSTA$
       938**DCL       938--REDEF
M_UC.LVL
       975**DCL       975--REDEF
M_UC.NAME#.C
       938**DCL       939--REDEF
M_UC.NOEOF
       970**DCL       970--REDEF
M_UC.NRECS#
       955**DCL       955--REDEF
M_UC.NRECX
       982**DCL       982--REDEF
M_UC.OHDR
       971**DCL       971--REDEF
M_UC.ORG#
       946**DCL       947--REDEF
M_UC.PRECNO
       979**DCL       979--REDEF
M_UC.RCSZ
       987**DCL       987--REDEF
PL6.E3A0      #001=JC_ROSEG_D File=JC_ROSEG_D.:E05TSI                            TUE 07/29/97 23:20 Page:19
M_UC.RES#
       940**DCL       940--REDEF
M_UC.SETX
       959**DCL       959--REDEF
M_UC.TAB$
       958**DCL       958--REDEF
M_UC.TDA
       978**DCL       979--REDEF
M_UC.WSN#
       940**DCL       941--REDEF
