VERSION E05

PL6.E3A0      #001=JG_DATA_D File=JG_DATA_D.:E05TSI                              TUE 07/29/97 23:23 Page:1
        1        1        /*M* JG_DATA_D Data file for gjob start*/
        2        2        /*T***********************************************************/
        3        3        /*T*                                                         */
        4        4        /*T* Copyright (c) Bull HN Information Systems Inc., 1997    */
        5        5        /*T*                                                         */
        6        6        /*T***********************************************************/
        7        7        /*X*DMC,PLM=6,IND=2,ENU=2,DCI=4,CSU=2,ECU=2,THI=2,DTI=0*/
        8        8        /**/
        9        9        /**/
       10       10        JG_DATA_D: PROC;
       11       11        /**/
       12       12        /**/
       13       13 S      %INCLUDE B$JIT_C;
       14       14        %B$JIT0 (STCLASS=BASED);
       15      103        %A$JIT6X;
       16      106        %INCLUDE OC_MESSHD_C;
       17      159        %INCLUDE CP_6;
       18      240        %INCLUDE JG_GHOSTS_C;
       19      330        /**/
       20      331        /**/
       21      332    1   DCL M$CSCG DCB;
       22      333        /**/
       23      334        /**/
       24      335        %MACRO SGHST (NN=NULL,NAME='NULL',FNAME='NULL',CCBF='NULL',PI=0,LAST=",");
       25      336              2 NN,
       26      337                3 UNAME,
       27      338                  4 N UBIN(9) UNAL INIT(LENGTHC(NAME)),
       28      339                  4 TXT CHAR(12) INIT(NAME),
       29      340                3 FILE,
       30      341                  4 N UBIN(9) UNAL INIT(LENGTHC(FNAME)),
       31      342                  4 TXT CHAR(12) INIT(FNAME),
       32      343                3 CCBUF,
       33      344                  4 N UBIN(9) UNAL INIT(LENGTHC(CCBF)),
       34      345                  4 TXT CHAR(47) INIT(CCBF),
       35      346                3 PRIINC UBIN HALF UNAL INIT(PI) LAST
       36      347        %MEND;
       37      348        /**/
PL6.E3A0      #001=JG_DATA_D File=JG_DATA_D.:E05TSI                              TUE 07/29/97 23:23 Page:2
       38      349        /**/
       39      350        /*K* JG_SGT - An array of information on all of the system's MING ghosts.
       40      351             The array contains 4 elements. These are the UNAME of the MING
       41      352             ghost, Aa FILE to do existence checking on, and a string to place
       42      353             into JIT.CCBUF when the ghost is started. If the FILE specified does
       43      354             not exist in :SYS, the ghost will not be started.
       44      355        */
       45      356    1   DCL 1 JG_SGT CONSTANT SYMDEF ALIGNED,
       46      357        %SGHST (NN=NULL,NAME=' ',FNAME=' ',CCBF=' ',PI=4);
       47      370        %SGHST (NN=SLUG,NAME='SLUG',FNAME='SLUG',CCBF='SLUG',PI=4);
       48      383        %SGHST (NN=KEYIN,NAME='KEYIN',FNAME='KEYIN',CCBF='KEYIN',PI=4);
       49      396        %SGHST (NN=OUTSYM,NAME='OUTSYM',FNAME='OUTSYM',CCBF='OUTSYM',PI=4);
       50      409        %SGHST (NN=PRESCAN,NAME='PRESCAN',FNAME='PRESCAN',CCBF='PRESCAN',PI=4);
       51      422        %SGHST (NN=INSYM,NAME='INSYM',FNAME='INSYM',CCBF='INSYM',PI=4);
       52      435        %SGHST (NN=ELF,NAME='ELF',FNAME='ELF',CCBF='ELF',PI=4);
       53      448        %SGHST (NN=PIG,NAME='PIG',FNAME='PIG',CCBF='PIG',PI=4);
       54      461        %SGHST (NN=FROG,NAME='FROG',FNAME='FROG',CCBF='FROG',PI=4);
       55      474        %SGHST (NN=DOG,NAME='DOG',FNAME='DOG',CCBF='DOG',PI=2);
       56      487        %SGHST (NN=GOOSE,NAME='GOOSE',FNAME='GOOSE',CCBF='GOOSE',PI=2);
       57      500        %SGHST (NN=MAILMAN,NAME='MAILMAN',FNAME='MAILMAN',CCBF='MAILMAN',PI=2);
       58      513        %SGHST (NN=DINGO,NAME='DINGO',FNAME='$XINSTALL',CCBF='XEQ $XINSTALL BOOTFLAG=nn',PI=
               513            2);
       59      526        %SGHST (NN=JAYS,NAME='JAYS',FNAME='JAYS',CCBF='JAYS',PI=2);
       60      539        %SGHST (NN=SUPER,NAME='SUPER',FNAME='SUPER',CCBF='SUPER',PI=2);
       61      552        %SGHST (NN=SCOTTY,NAME='SCOTTY',FNAME='SCOTTY',CCBF='SCOTTY',PI=2,LAST=";");
       62      565    1   DCL JG_MXSGT UBIN WORD CONSTANT SYMDEF INIT(JG_MING#);
       63      566    1   DCL JG_SYSACCT CHAR(8) CONSTANT SYMDEF INIT(':SYS');
       64      567        %OC_MESSHD_W (NAME=JG_KRSP,STCLASS="ALIGNED STATIC SYMDEF",NPARMS=4);
       65      580    1         2 NCNT UBIN(9) UNAL INIT(LENGTHC(JG_KRSP.NAME)),
       66      581    1         2 ACCNT UBIN(9) UNAL INIT(LENGTHC(JG_KRSP.ACCT)),
       67      582    1         2 SIDCNT UBIN(9) UNAL INIT(LENGTHC(JG_KRSP.SID)),
       68      583    1         2 SSCNT UBIN(9) UNAL INIT(LENGTHC(JG_KRSP.SSID)),
       69      584    1         2 NAME CHAR(12) UNAL INIT(' '),
       70      585    1         2 ACCT CHAR(8) UNAL INIT(' '),
       71      586    1         2 SID UBIN(18) UNAL INIT(0),
       72      587    1         2 SSID UBIN(18) UNAL INIT(0);
       73      588        %FPT_WRITE (FPTN=JG_WKYN,STCLASS="CONSTANT SYMDEF",DCB=M$CSCG,
PL6.E3A0      #001=JG_DATA_D File=JG_DATA_D.:E05TSI                              TUE 07/29/97 23:23 Page:3
       74      589                    BUF=JG_KRSP);
       75      620        /**/
       76      621        /**/
       77      622    1   END JG_DATA_D;

PL6.E3A0      #001=JG_DATA_D File=JG_DATA_D.:E05TSI                              TUE 07/29/97 23:23 Page:4
--  Include file information  --

   JG_GHOSTS_C.:E05TOU  is referenced.
   CP_6.:E05TOU  cannot be made into a system file and is referenced.
   OC_MESSHD_C.:E05TOU  is referenced.
   B$JIT_C.:E05TOU  was found in the system file and is referenced.
   CP_6_C.:E05TOU  was found in the system file and is referenced.
      No diagnostics issued in procedure JG_DATA_D.

   No code generated for procedure JG_DATA_D .
   Procedure JG_DATA_D requires 4 words of local(AUTO) storage.

    No errors detected in file JG_DATA_D.:E05TSI    .

PL6.E3A0      #001=JG_DATA_D File=JG_DATA_D.:E05TSI                              TUE 07/29/97 23:23 Page:5

 Object Unit name= JG_DATA_D                                  File name= JG_DATA_D.:E05TOU
 UTS= JUL 29 '97 23:23:47.56 TUE                              Compiler= PL-6/E31         Sev=      00
 SharedLib= :SHARED_SYSTEM                                    Alt SharedLib=


    ****  Control sections  ****

 Sect   Type Bound  Init  Size OctSiz  Section name(segment info)
    0   DCB   even  none     0      0  M$UC
    1   DCB   even  none     0      0  M$CSCG
    2  RoData even  UTS    320    500  JG_DATA_D
    3   Data  even  none    12     14  JG_DATA_D
    4   Proc  even  none     0      0  JG_DATA_D

    ****  Entry defs  ****

                              Check   Calling
                             calling  sequence
  Sect OctLoc Primary Altret sequence   type   Parms  Name
     4      0   yes            yes     ~proc       0  JG_DATA_D

  ****  Data defs  ****

 Sect OctLoc  Name                           Sect OctLoc  Name
    2      0  JG_SGT                             2    460  JG_MXSGT
    2    461  JG_SYSACCT                         3      0  JG_KRSP
    2    464  JG_WKYN

  ****  Data refs  ****

  Flags:  r = read only, s = secondary
Flgs Name                             Flgs Name                             Flgs Name
     M$UC                                  M$CSCG
PL6.E3A0      #001=JG_DATA_D File=JG_DATA_D.:E05TSI                              TUE 07/29/97 23:23 Page:6

  ****  Segment refs  ****

  Flags:  r = read only, s = secondary
Flgs Name                             Flgs Name                             Flgs Name
     ISSID                                 NULLSID
PL6.E3A0      #001=JG_DATA_D File=JG_DATA_D.:E05TSI                              TUE 07/29/97 23:23 Page:7

        1        1        /*M* JG_DATA_D Data file for gjob start*/
        2        2        /*T***********************************************************/
        3        3        /*T*                                                         */
        4        4        /*T* Copyright (c) Bull HN Information Systems Inc., 1997    */
        5        5        /*T*                                                         */
        6        6        /*T***********************************************************/
        7        7        /*X*DMC,PLM=6,IND=2,ENU=2,DCI=4,CSU=2,ECU=2,THI=2,DTI=0*/
        8        8        /**/
        9        9        /**/
       10       10        JG_DATA_D: PROC;
       11       11        /**/
       12       12        /**/
       13       13 S      %INCLUDE B$JIT_C;
       14       14        %B$JIT0 (STCLASS=BASED);
       15      103        %A$JIT6X;
       16      106        %INCLUDE OC_MESSHD_C;
       17      159        %INCLUDE CP_6;
       18      240        %INCLUDE JG_GHOSTS_C;
       19      330        /**/
       20      331        /**/
       21      332    1   DCL M$CSCG DCB;
       22      333        /**/
       23      334        /**/
       24      335        %MACRO SGHST (NN=NULL,NAME='NULL',FNAME='NULL',CCBF='NULL',PI=0,LAST=",");
       25      336              2 NN,
       26      337                3 UNAME,
       27      338                  4 N UBIN(9) UNAL INIT(LENGTHC(NAME)),
       28      339                  4 TXT CHAR(12) INIT(NAME),
       29      340                3 FILE,
       30      341                  4 N UBIN(9) UNAL INIT(LENGTHC(FNAME)),
       31      342                  4 TXT CHAR(12) INIT(FNAME),
       32      343                3 CCBUF,
       33      344                  4 N UBIN(9) UNAL INIT(LENGTHC(CCBF)),
       34      345                  4 TXT CHAR(47) INIT(CCBF),
       35      346                3 PRIINC UBIN HALF UNAL INIT(PI) LAST
       36      347        %MEND;
       37      348        /**/
PL6.E3A0      #001=JG_DATA_D File=JG_DATA_D.:E05TSI                              TUE 07/29/97 23:23 Page:8
       38      349        /**/
       39      350        /*K* JG_SGT - An array of information on all of the system's MING ghosts.
       40      351             The array contains 4 elements. These are the UNAME of the MING
       41      352             ghost, Aa FILE to do existence checking on, and a string to place
       42      353             into JIT.CCBUF when the ghost is started. If the FILE specified does
       43      354             not exist in :SYS, the ghost will not be started.
       44      355        */
       45      356    1   DCL 1 JG_SGT CONSTANT SYMDEF ALIGNED,
       46      357        %SGHST (NN=NULL,NAME=' ',FNAME=' ',CCBF=' ',PI=4);
       47      370        %SGHST (NN=SLUG,NAME='SLUG',FNAME='SLUG',CCBF='SLUG',PI=4);
       48      383        %SGHST (NN=KEYIN,NAME='KEYIN',FNAME='KEYIN',CCBF='KEYIN',PI=4);
       49      396        %SGHST (NN=OUTSYM,NAME='OUTSYM',FNAME='OUTSYM',CCBF='OUTSYM',PI=4);
       50      409        %SGHST (NN=PRESCAN,NAME='PRESCAN',FNAME='PRESCAN',CCBF='PRESCAN',PI=4);
       51      422        %SGHST (NN=INSYM,NAME='INSYM',FNAME='INSYM',CCBF='INSYM',PI=4);
       52      435        %SGHST (NN=ELF,NAME='ELF',FNAME='ELF',CCBF='ELF',PI=4);
       53      448        %SGHST (NN=PIG,NAME='PIG',FNAME='PIG',CCBF='PIG',PI=4);
       54      461        %SGHST (NN=FROG,NAME='FROG',FNAME='FROG',CCBF='FROG',PI=4);
       55      474        %SGHST (NN=DOG,NAME='DOG',FNAME='DOG',CCBF='DOG',PI=2);
       56      487        %SGHST (NN=GOOSE,NAME='GOOSE',FNAME='GOOSE',CCBF='GOOSE',PI=2);
       57      500        %SGHST (NN=MAILMAN,NAME='MAILMAN',FNAME='MAILMAN',CCBF='MAILMAN',PI=2);
       58      513       %SGHST (NN=DINGO,NAME='DINGO',FNAME='$XINSTALL',CCBF='XEQ $XINSTALL BOOTFLAG=nn',PI=
               513            2);
       59      526        %SGHST (NN=JAYS,NAME='JAYS',FNAME='JAYS',CCBF='JAYS',PI=2);
       60      539        %SGHST (NN=SUPER,NAME='SUPER',FNAME='SUPER',CCBF='SUPER',PI=2);
       61      552        %SGHST (NN=SCOTTY,NAME='SCOTTY',FNAME='SCOTTY',CCBF='SCOTTY',PI=2,LAST=";");
       62      565    1   DCL JG_MXSGT UBIN WORD CONSTANT SYMDEF INIT(JG_MING#);
       63      566    1   DCL JG_SYSACCT CHAR(8) CONSTANT SYMDEF INIT(':SYS');
       64      567        %OC_MESSHD_W (NAME=JG_KRSP,STCLASS="ALIGNED STATIC SYMDEF",NPARMS=4);
       65      580    1         2 NCNT UBIN(9) UNAL INIT(LENGTHC(JG_KRSP.NAME)),
       66      581    1         2 ACCNT UBIN(9) UNAL INIT(LENGTHC(JG_KRSP.ACCT)),
       67      582    1         2 SIDCNT UBIN(9) UNAL INIT(LENGTHC(JG_KRSP.SID)),
       68      583    1         2 SSCNT UBIN(9) UNAL INIT(LENGTHC(JG_KRSP.SSID)),
       69      584    1         2 NAME CHAR(12) UNAL INIT(' '),
       70      585    1         2 ACCT CHAR(8) UNAL INIT(' '),
       71      586    1         2 SID UBIN(18) UNAL INIT(0),
       72      587    1         2 SSID UBIN(18) UNAL INIT(0);
       73      588        %FPT_WRITE (FPTN=JG_WKYN,STCLASS="CONSTANT SYMDEF",DCB=M$CSCG,
PL6.E3A0      #001=JG_DATA_D File=JG_DATA_D.:E05TSI                              TUE 07/29/97 23:23 Page:9
       74      589                    BUF=JG_KRSP);
       75      620        /**/
       76      621        /**/
       77      622    1   END JG_DATA_D;

PL6.E3A0      #001=JG_DATA_D File=JG_DATA_D.:E05TSI                              TUE 07/29/97 23:23 Page:10
--  Include file information  --

   JG_GHOSTS_C.:E05TOU  is referenced.
   CP_6.:E05TOU  cannot be made into a system file and is referenced.
   OC_MESSHD_C.:E05TOU  is referenced.
   B$JIT_C.:E05TOU  was found in the system file and is referenced.
   CP_6_C.:E05TOU  was found in the system file and is referenced.
      No diagnostics issued in procedure JG_DATA_D.
PL6.E3A0      #001=JG_DATA_D File=JG_DATA_D.:E05TSI                              TUE 07/29/97 23:23 Page:11

 **** Variables and constants ****

  ****  Section 002 RoData JG_DATA_D

  ****  Scalars and arrays  ****
OctLoc.c.b A Datatyp(siz) R M Lvl/name                 OctLoc.c.b A Datatyp(siz) R M Lvl/name

   464-0-0/d STRC(432)   r     1 JG_WKYN

  ****  Section 003  Data  JG_DATA_D

  ****  Scalars and arrays  ****
OctLoc.c.b A Datatyp(siz) R M Lvl/name                 OctLoc.c.b A Datatyp(siz) R M Lvl/name

     0-0-0/w STRC(432)   r     1 JG_KRSP

  ****  BASED and DCB variables  ****

  ****  Scalars and arrays  ****
OctLoc.c.b A Datatyp(siz) R M Lvl/name                 OctLoc.c.b A Datatyp(siz) R M Lvl/name

     0-0-0N  NULL        r     1 M$CSCG


   No code generated for procedure JG_DATA_D .
   Procedure JG_DATA_D requires 4 words of local(AUTO) storage.

    No errors detected in file JG_DATA_D.:E05TSI    .
PL6.E3A0      #001=JG_DATA_D File=JG_DATA_D.:E05TSI                              TUE 07/29/97 23:23 Page:12
          *** CROSS REFERENCE LISTING ***
**     DENOTES     IDENTIFIER DEFINITION
<<                 IDENTIFIER'S VALUE SET
>>                 IDENTIFIER'S VALUE USED
<>                 IDENTIFIER SET AND/OR USED
--                 IDENTIFIER REFERENCED
PL6.E3A0      #001=JG_DATA_D File=JG_DATA_D.:E05TSI                              TUE 07/29/97 23:23 Page:13
          MINI XREF LISTING

B$JIT.ERR.MID
        21**DCL        21--REDEF
JG_KRSP
       568**DCL       607--DCLINIT   608--DCLINIT
JG_KRSP.ACCT
       585**DCL       581--DCLINIT
JG_KRSP.FLAGS
       575**DCL       576--REDEF
JG_KRSP.MSGID
       571**DCL       572--REDEF
JG_KRSP.NAME
       584**DCL       580--DCLINIT
JG_KRSP.SID
       586**DCL       582--DCLINIT
JG_KRSP.SSID
       587**DCL       583--DCLINIT
JG_WKYN.STATION_
       608**DCL       608--REDEF
JG_WKYN.V
       609**DCL       606--DCLINIT
JG_WKYN.V.DVBYTE.VFC#
       615**DCL       615--REDEF
