VERSION E05

PL6.E3A0      #001=JG_MDATA_D File=JG_MDATA_D.:E05TSI                            TUE 07/29/97 23:24 Page:1
        1        1        /*M* JG_MDATA_D  System Ghosts data that resides in the monitor  */
        2        2        /*T***********************************************************/
        3        3        /*T*                                                         */
        4        4        /*T* Copyright (c) Bull HN Information Systems Inc., 1997    */
        5        5        /*T*                                                         */
        6        6        /*T***********************************************************/
        7        7
        8        8        JG_MDATA_D: PROC;
        9        9
       10       10        %INCLUDE JG_GHOSTS_C;
       11      100
       12      101        %MACRO SCREECHG (NN="*",SCREECH=0);
       13      102              2 NN SBIN INIT(SCREECH),
       14      103        %MEND;
       15      104
       16      105    1   DCL 1 JG_SCREECHG CONSTANT SYMDEF ALIGNED,
       17      106        %SCREECHG (NN=NULL   ,SCREECH=1);
       18      109        %SCREECHG (NN=SLUG   ,SCREECH=1);
       19      112        %SCREECHG (NN=KEYIN  ,SCREECH=1);
       20      115        %SCREECHG (NN=OUTSYM ,SCREECH=1);
       21      118        %SCREECHG (NN=PRESCAN,SCREECH=1);
       22      121        %SCREECHG (NN=INSYM  ,SCREECH=1);
       23      124        %SCREECHG (NN=ELF    ,SCREECH=1);
       24      127        %SCREECHG (NN=PIG    ,SCREECH=1);
       25      130        %SCREECHG (NN=FROG   ,SCREECH=0);
       26      133        %SCREECHG (NN=DOG    ,SCREECH=0);
       27      136        %SCREECHG (NN=GOOSE  ,SCREECH=0);
       28      139        %SCREECHG (NN=MAILMAN,SCREECH=0);
       29      142        %SCREECHG (NN=DINGO  ,SCREECH=0);
       30      145        %SCREECHG (NN=JAYS   ,SCREECH=1);
       31      148        %SCREECHG (NN=SUPER  ,SCREECH=0);
       32      151    1         2 * SBIN INIT(0);
       33      152
       34      153    1   DCL JG_MING SBIN CONSTANT SYMDEF INIT(JG_MING#);
       35      154                                                /* BMAP MODLULE (SCREECH) NEEDS THIS  */
       36      155    1   END;

PL6.E3A0      #001=JG_MDATA_D File=JG_MDATA_D.:E05TSI                            TUE 07/29/97 23:24 Page:2
--  Include file information  --

   JG_GHOSTS_C.:E05TOU  is referenced.
      No diagnostics issued in procedure JG_MDATA_D.

   No code generated for procedure JG_MDATA_D .
   Procedure JG_MDATA_D requires 4 words of local(AUTO) storage.

    No errors detected in file JG_MDATA_D.:E05TSI    .

PL6.E3A0      #001=JG_MDATA_D File=JG_MDATA_D.:E05TSI                            TUE 07/29/97 23:24 Page:3

 Object Unit name= JG_MDATA_D                                 File name= JG_MDATA_D.:E05TOU
 UTS= JUL 29 '97 23:24:35.32 TUE                              Compiler= PL-6/E31         Sev=      00
 SharedLib= :SHARED_SYSTEM                                    Alt SharedLib=


    ****  Control sections  ****

 Sect   Type Bound  Init  Size OctSiz  Section name(segment info)
    0  RoData even  UTS     17     21  JG_MDATA_D
    1   Proc  even  none     0      0  JG_MDATA_D

    ****  Entry defs  ****

                              Check   Calling
                             calling  sequence
  Sect OctLoc Primary Altret sequence   type   Parms  Name
     1      0   yes            yes     ~proc       0  JG_MDATA_D

  ****  Data defs  ****

 Sect OctLoc  Name                           Sect OctLoc  Name
    0      0  JG_SCREECHG                        0     20  JG_MING
PL6.E3A0      #001=JG_MDATA_D File=JG_MDATA_D.:E05TSI                            TUE 07/29/97 23:24 Page:4


(unnamed)
 Sect OctLoc
   0     000   000000 000001   000000 000001   000000 000001   000000 000001    ................
   0     010*  000000 000000   000000 000000   000000 000000   000000 000000    ................
   0     014   000000 000000   000000 000001   000000 000000   000000 000000    ................
   0     020   000000 000017                                                    ....
        1        1        /*M* JG_MDATA_D  System Ghosts data that resides in the monitor  */
        2        2        /*T***********************************************************/
        3        3        /*T*                                                         */
        4        4        /*T* Copyright (c) Bull HN Information Systems Inc., 1997    */
        5        5        /*T*                                                         */
        6        6        /*T***********************************************************/
        7        7
        8        8        JG_MDATA_D: PROC;
        9        9
       10       10        %INCLUDE JG_GHOSTS_C;
       11      100
       12      101        %MACRO SCREECHG (NN="*",SCREECH=0);
       13      102              2 NN SBIN INIT(SCREECH),
       14      103        %MEND;
       15      104
       16      105    1   DCL 1 JG_SCREECHG CONSTANT SYMDEF ALIGNED,
       17      106        %SCREECHG (NN=NULL   ,SCREECH=1);
       18      109        %SCREECHG (NN=SLUG   ,SCREECH=1);
       19      112        %SCREECHG (NN=KEYIN  ,SCREECH=1);
       20      115        %SCREECHG (NN=OUTSYM ,SCREECH=1);
       21      118        %SCREECHG (NN=PRESCAN,SCREECH=1);
       22      121        %SCREECHG (NN=INSYM  ,SCREECH=1);
       23      124        %SCREECHG (NN=ELF    ,SCREECH=1);
       24      127        %SCREECHG (NN=PIG    ,SCREECH=1);
       25      130        %SCREECHG (NN=FROG   ,SCREECH=0);
       26      133        %SCREECHG (NN=DOG    ,SCREECH=0);
       27      136        %SCREECHG (NN=GOOSE  ,SCREECH=0);
       28      139        %SCREECHG (NN=MAILMAN,SCREECH=0);
       29      142        %SCREECHG (NN=DINGO  ,SCREECH=0);
       30      145        %SCREECHG (NN=JAYS   ,SCREECH=1);
PL6.E3A0      #001=JG_MDATA_D File=JG_MDATA_D.:E05TSI                            TUE 07/29/97 23:24 Page:5
       31      148        %SCREECHG (NN=SUPER  ,SCREECH=0);
       32      151    1         2 * SBIN INIT(0);
       33      152
       34      153    1   DCL JG_MING SBIN CONSTANT SYMDEF INIT(JG_MING#);
       35      154                                                /* BMAP MODLULE (SCREECH) NEEDS THIS  */
       36      155    1   END;

PL6.E3A0      #001=JG_MDATA_D File=JG_MDATA_D.:E05TSI                            TUE 07/29/97 23:24 Page:6
--  Include file information  --

   JG_GHOSTS_C.:E05TOU  is referenced.
      No diagnostics issued in procedure JG_MDATA_D.
PL6.E3A0      #001=JG_MDATA_D File=JG_MDATA_D.:E05TSI                            TUE 07/29/97 23:24 Page:7

 **** Variables and constants ****


   No code generated for procedure JG_MDATA_D .
   Procedure JG_MDATA_D requires 4 words of local(AUTO) storage.

    No errors detected in file JG_MDATA_D.:E05TSI    .
PL6.E3A0      #001=JG_MDATA_D File=JG_MDATA_D.:E05TSI                            TUE 07/29/97 23:24 Page:8
          *** CROSS REFERENCE LISTING ***
**     DENOTES     IDENTIFIER DEFINITION
<<                 IDENTIFIER'S VALUE SET
>>                 IDENTIFIER'S VALUE USED
<>                 IDENTIFIER SET AND/OR USED
--                 IDENTIFIER REFERENCED
PL6.E3A0      #001=JG_MDATA_D File=JG_MDATA_D.:E05TSI                            TUE 07/29/97 23:24 Page:9
          MINI XREF LISTING

