VERSION E05

PL6.E3A0      #001=JMA_DATA_D File=JMA_DATA_D.:E05TSI                            TUE 07/29/97 23:26 Page:1
        1        1        /*M* JMA_DATA_D PARTITION TABLES & BATCH SCHEDULER INFORMATION IN MONITOR DATA */
        2        2        /*T***********************************************************/
        3        3        /*T*                                                         */
        4        4        /*T* Copyright (c) Bull HN Information Systems Inc., 1997    */
        5        5        /*T*                                                         */
        6        6        /*T***********************************************************/
        7        7        JMA_DATA_D: PROC;
        8        8        /**/
        9        9        /* ! ! */
       10       10        %INCLUDE JM$STRUCT;
       11      755        %INCLUDE JM_CNTRL_R;
       12     1644        /* !R! */
       13     1645        /**/
       14     1646    1   DCL JM_BFIS UBIN(36) STATIC SYMDEF INIT(0); /* Batch files in system          */
       15     1647        /**/
       16     1648    1   DCL JM_NRES SBIN STATIC SYMDEF INIT(12); /* # of resources used as
       17     1649                                                   partition attributes */
       18     1650        /**/
       19     1651    1   DCL JM_PPTR$(0:15) PTR STATIC SYMDEF INIT(ADDR(JM_PT.PT1),
       20     1652    1                                      ADDR(JM_PT.PT2),
       21     1653    1                                      ADDR(JM_PT.PT3),
       22     1654    1                                      ADDR(JM_PT.PT4),
       23     1655    1                                      ADDR(JM_PT.PT5),
       24     1656    1                                      ADDR(JM_PT.PT6),
       25     1657    1                                      ADDR(JM_PT.PT7),
       26     1658    1                                      ADDR(JM_PT.PT8),
       27     1659    1                                      ADDR(JM_PT.PT9),
       28     1660    1                                      ADDR(JM_PT.PT10),
       29     1661    1                                      ADDR(JM_PT.PT11),
       30     1662    1                                      ADDR(JM_PT.PT12),
       31     1663    1                                      ADDR(JM_PT.PT13),
       32     1664    1                                      ADDR(JM_PT.PT14),
       33     1665    1                                      ADDR(JM_PT.PT15),
       34     1666    1                                      ADDR(JM_PT.PT16));
       35     1667    1   END JMA_DATA_D;

PL6.E3A0      #001=JMA_DATA_D File=JMA_DATA_D.:E05TSI                            TUE 07/29/97 23:26 Page:2
--  Include file information  --

   JM_CNTRL_R.:E05TOU  cannot be made into a system file and is referenced.
   JM$STRUCT.:E05TOU  is referenced.
      No diagnostics issued in procedure JMA_DATA_D.

   No code generated for procedure JMA_DATA_D .
   Procedure JMA_DATA_D requires 4 words of local(AUTO) storage.

    No errors detected in file JMA_DATA_D.:E05TSI    .

PL6.E3A0      #001=JMA_DATA_D File=JMA_DATA_D.:E05TSI                            TUE 07/29/97 23:26 Page:3

 Object Unit name= JMA_DATA_D                                 File name= JMA_DATA_D.:E05TOU
 UTS= JUL 29 '97 23:26:14.20 TUE                              Compiler= PL-6/E31         Sev=      00
 SharedLib= :SHARED_SYSTEM                                    Alt SharedLib=


    ****  Control sections  ****

 Sect   Type Bound  Init  Size OctSiz  Section name(segment info)
    0   Data  even  none    18     22  JMA_DATA_D
    1   Proc  even  none     0      0  JMA_DATA_D

    ****  Entry defs  ****

                              Check   Calling
                             calling  sequence
  Sect OctLoc Primary Altret sequence   type   Parms  Name
     1      0   yes            yes     ~proc       0  JMA_DATA_D

  ****  Data defs  ****

 Sect OctLoc  Name                           Sect OctLoc  Name
    0      0  JM_BFIS                            0      1  JM_NRES
    0      2  JM_PPTR$

  ****  Data refs  ****

  Flags:  r = read only, s = secondary
Flgs Name                             Flgs Name                             Flgs Name
     JM_PT

  ****  Segment refs  ****

  Flags:  r = read only, s = secondary
Flgs Name                             Flgs Name                             Flgs Name
     ISSID
PL6.E3A0      #001=JMA_DATA_D File=JMA_DATA_D.:E05TSI                            TUE 07/29/97 23:26 Page:4


(unnamed)
 Sect OctLoc
   0     000   000000 000000   000000 000014   000000 006000   000023 006000    ................
   0     004   000046 006000   000071 006000   000114 006000   000137 006000    .&...9...L..._..
   0     010   000162 006000   000205 006000   000230 006000   000253 006000    .r..............
   0     014   000276 006000   000321 006000   000344 006000   000367 006000    ................
   0     020   000412 006000   000435 006000                                    ........
        1        1        /*M* JMA_DATA_D PARTITION TABLES & BATCH SCHEDULER INFORMATION IN MONITOR DATA */
        2        2        /*T***********************************************************/
        3        3        /*T*                                                         */
        4        4        /*T* Copyright (c) Bull HN Information Systems Inc., 1997    */
        5        5        /*T*                                                         */
        6        6        /*T***********************************************************/
        7        7        JMA_DATA_D: PROC;
        8        8        /**/
        9        9        /* ! ! */
       10       10        %INCLUDE JM$STRUCT;
       11      755        %INCLUDE JM_CNTRL_R;
       12     1644        /* !R! */
       13     1645        /**/
       14     1646    1   DCL JM_BFIS UBIN(36) STATIC SYMDEF INIT(0); /* Batch files in system          */
       15     1647        /**/
       16     1648    1   DCL JM_NRES SBIN STATIC SYMDEF INIT(12); /* # of resources used as
       17     1649                                                   partition attributes */
       18     1650        /**/
       19     1651    1   DCL JM_PPTR$(0:15) PTR STATIC SYMDEF INIT(ADDR(JM_PT.PT1),
       20     1652    1                                      ADDR(JM_PT.PT2),
       21     1653    1                                      ADDR(JM_PT.PT3),
       22     1654    1                                      ADDR(JM_PT.PT4),
       23     1655    1                                      ADDR(JM_PT.PT5),
       24     1656    1                                      ADDR(JM_PT.PT6),
       25     1657    1                                      ADDR(JM_PT.PT7),
       26     1658    1                                      ADDR(JM_PT.PT8),
       27     1659    1                                      ADDR(JM_PT.PT9),
       28     1660    1                                      ADDR(JM_PT.PT10),
       29     1661    1                                      ADDR(JM_PT.PT11),
PL6.E3A0      #001=JMA_DATA_D File=JMA_DATA_D.:E05TSI                            TUE 07/29/97 23:26 Page:5
       30     1662    1                                      ADDR(JM_PT.PT12),
       31     1663    1                                      ADDR(JM_PT.PT13),
       32     1664    1                                      ADDR(JM_PT.PT14),
       33     1665    1                                      ADDR(JM_PT.PT15),
       34     1666    1                                      ADDR(JM_PT.PT16));
       35     1667    1   END JMA_DATA_D;

PL6.E3A0      #001=JMA_DATA_D File=JMA_DATA_D.:E05TSI                            TUE 07/29/97 23:26 Page:6
--  Include file information  --

   JM_CNTRL_R.:E05TOU  cannot be made into a system file and is referenced.
   JM$STRUCT.:E05TOU  is referenced.
      No diagnostics issued in procedure JMA_DATA_D.
PL6.E3A0      #001=JMA_DATA_D File=JMA_DATA_D.:E05TSI                            TUE 07/29/97 23:26 Page:7

 **** Variables and constants ****

  ****  SYMREF variables  ****

  ****  Scalars and arrays  ****
OctLoc.c.b A Datatyp(siz) R M Lvl/name                 OctLoc.c.b A Datatyp(siz) R M Lvl/name

     0-0-0/w STRC(10944) r     1 JM_PT


   No code generated for procedure JMA_DATA_D .
   Procedure JMA_DATA_D requires 4 words of local(AUTO) storage.

    No errors detected in file JMA_DATA_D.:E05TSI    .
PL6.E3A0      #001=JMA_DATA_D File=JMA_DATA_D.:E05TSI                            TUE 07/29/97 23:26 Page:8
          *** CROSS REFERENCE LISTING ***
**     DENOTES     IDENTIFIER DEFINITION
<<                 IDENTIFIER'S VALUE SET
>>                 IDENTIFIER'S VALUE USED
<>                 IDENTIFIER SET AND/OR USED
--                 IDENTIFIER REFERENCED
PL6.E3A0      #001=JMA_DATA_D File=JMA_DATA_D.:E05TSI                            TUE 07/29/97 23:26 Page:9
          MINI XREF LISTING

JM_PT.PT1
       781**DCL      1651--DCLINIT
JM_PT.PT10
      1276**DCL      1660--DCLINIT
JM_PT.PT11
      1331**DCL      1661--DCLINIT
JM_PT.PT12
      1386**DCL      1662--DCLINIT
JM_PT.PT13
      1441**DCL      1663--DCLINIT
JM_PT.PT14
      1496**DCL      1664--DCLINIT
JM_PT.PT15
      1551**DCL      1665--DCLINIT
JM_PT.PT16
      1606**DCL      1666--DCLINIT
JM_PT.PT2
       836**DCL      1652--DCLINIT
JM_PT.PT3
       891**DCL      1653--DCLINIT
JM_PT.PT4
       946**DCL      1654--DCLINIT
JM_PT.PT5
      1001**DCL      1655--DCLINIT
JM_PT.PT6
      1056**DCL      1656--DCLINIT
JM_PT.PT7
      1111**DCL      1657--DCLINIT
JM_PT.PT8
      1166**DCL      1658--DCLINIT
JM_PT.PT9
      1221**DCL      1659--DCLINIT
