VERSION E05

PL6.E3A0      #001=JMC_DATA_D File=JMC_DATA_D.:E05TSI                            TUE 07/29/97 23:27 Page:1
        1        1        /*M* JMC_DATA_D BATCH SCHEDULER STATIC GLOBAL DATA                            */
        2        2        /*T***********************************************************/
        3        3        /*T*                                                         */
        4        4        /*T* Copyright (c) Bull HN Information Systems Inc., 1997    */
        5        5        /*T*                                                         */
        6        6        /*T***********************************************************/
        7        7        JMC_DATA_D: PROC;
        8        8        /**/
        9        9        /*! !*/
       10       10        %INCLUDE JM$STRUCT;
       11      755        %INCLUDE JMA_DATA_R;                    /* Monitor-resident mbs data          */
       12      764        %INCLUDE JM_CNTRL_R;
       13     1653        %INCLUDE JM_CNTRLD_R;
       14     1662        %INCLUDE SS_SCHED_R;                    /* Execution scheduler data refs      */
       15     1705        %INCLUDE FOO_MAC_C;
       16     2453        %INCLUDE FOS_SUBS_C;
       17     2470        %INCLUDE JM_SUBS_C;
       18     2576        /**/
       19     2577    1   DCL IRM_SYSID UBIN SYMREF;
       20     2578        /**/
       21     2579        /*!$R!*/
       22     2580        /* Structure of pointers to input file CHAINS: */
       23     2581    1   DCL 1 JMC_CH STATIC SYMDEF,
       24     2582    1         2 * PTR INIT(ADDR(NIL)),
       25     2583    1         2 * PTR INIT(ADDR(NIL)),
       26     2584    1         2 HWP$ PTR INIT(ADDR(NIL)),       /* Waiting for usable partition       */
       27     2585    1         2 TWP$ PTR INIT(ADDR(NIL)),
       28     2586    1         2 HWR$ PTR INIT(ADDR(NIL)),       /* Waiting for runafter time to pass  */
       29     2587    1         2 TWR$ PTR INIT(ADDR(NIL)),
       30     2588    1         2 HDC$ PTR INIT(ADDR(NIL)),       /* Waiting for dependency count = 0   */
       31     2589    1         2 TDC$ PTR INIT(ADDR(NIL)),
       32     2590    1         2 HJD$ PTR INIT(ADDR(NIL)),       /* Waiting on job id dependency       */
       33     2591    1         2 TJD$ PTR INIT(ADDR(NIL)),
       34     2592    1         2 HDP$ PTR INIT(ADDR(NIL)),       /* Waiting for packset                */
       35     2593    1         2 TDP$ PTR INIT(ADDR(NIL)),
       36     2594    1         2 HP0$ PTR INIT(ADDR(NIL)),       /* Priority zero (wont ever run)      */
       37     2595    1         2 TP0$ PTR INIT(ADDR(NIL)),
PL6.E3A0      #001=JMC_DATA_D File=JMC_DATA_D.:E05TSI                            TUE 07/29/97 23:27 Page:2
       38     2596    1         2 PRIO(0:14),                     /* Schedulable JOBS:                  */
       39     2597    1           3 HD$ PTR INIT(ADDR(NIL)*15),
       40     2598    1           3 TL$ PTR INIT(ADDR(NIL)*15),
       41     2599    1         2 HRUN$ PTR INIT(ADDR(NIL)),      /* Running jobs                       */
       42     2600    1         2 TRUN$ PTR INIT(ADDR(NIL)),
       43     2601    1         2 LOCK SBIN INIT(0),              /* LOCK for M$JOBSTATS : >0 = locked */
       44     2602    1         2 RCVR UBIN INIT(1);              /* Batch Q recovery flag for Jobstats */
       45     2603    1   DCL 1 JMC_CHAINS(0:23) REDEF JMC_CH,
       46     2604    1         2 HEAD$ PTR,
       47     2605    1         2 TAIL$ PTR;
       48     2606        /*!R!*/
       49     2607        /**/
       50     2608        /**/
       51     2609        /* Event queue & free queue heads, tails, and counts */
       52     2610    1   DCL JMC_EVQHD$ PTR STATIC SYMDEF INIT(ADDR(NIL));
       53     2611    1   DCL JMC_EVQTL$ PTR STATIC SYMDEF INIT(ADDR(NIL));
       54     2612    1   DCL JMC_EVQCNT SBIN STATIC SYMDEF INIT(0);
       55     2613    1   DCL JMC_FQHD$ PTR STATIC SYMDEF INIT(ADDR(NIL));
       56     2614    1   DCL JMC_FQTL$ PTR STATIC SYMDEF INIT(ADDR(NIL));
       57     2615    1   DCL JMC_FQCNT SBIN STATIC SYMDEF INIT(JMMI_EVMX#);
       58     2616        /* Head, tail, and count for the free list of slots used to build  */
       59     2617        /* Mbs's packset name/serial number lists and virtual resource     */
       60     2618        /* lists which are associated with each input job file.            */
       61     2619    1   DCL JMC_SLOTHD$ PTR STATIC SYMDEF INIT(ADDR(NIL));
       62     2620    1   DCL JMC_SLOTTL$ PTR STATIC SYMDEF INIT(ADDR(NIL));
       63     2621    1   DCL JMC_SLOTCNT SBIN STATIC SYMDEF INIT(0);
       64     2622        /**/
       65     2623        /*   Pointers into monitor-resident static data (segid's will be   */
       66     2624        /*   Set by JMM$INIT.                                              */
       67     2625    1   DCL JMC_LOCK$ PTR STATIC SYMDEF INIT(ADDR(JM_LOCK));
       68     2626    1   DCL JMC_CHNG$ PTR STATIC SYMDEF INIT(ADDR(JM_CHNG));
       69     2627    1   DCL JMC_BUAIS$ PTR STATIC SYMDEF INIT(ADDR(S_MUIS(1)));
       70     2628    1   DCL JMC_BUIS$ PTR STATIC SYMDEF INIT(ADDR(S_CUIS(1)));
       71     2629    1   DCL JMC_BFIS$ PTR STATIC SYMDEF INIT(ADDR(JM_BFIS));
       72     2630    1   DCL JMC_NPART$ PTR STATIC SYMDEF INIT(ADDR(JM_NPART));
       73     2631    1   DCL JMC_NRES$ PTR STATIC SYMDEF INIT(ADDR(JM_NRES));
       74     2632    1   DCL JMC_PPTR$ PTR STATIC SYMDEF INIT(ADDR(JM_PPTR$(0)));
PL6.E3A0      #001=JMC_DATA_D File=JMC_DATA_D.:E05TSI                            TUE 07/29/97 23:27 Page:3
       75     2633    1   DCL JMC_PI$ PTR STATIC SYMDEF INIT(ADDR(JM_PI));
       76     2634    1   DCL JMC_RVSYSID$ PTR STATIC SYMDEF INIT(ADDR(IRM_SYSID));
       77     2635    1   DCL JMC_MAX1ACCT$ PTR STATIC SYMDEF INIT(ADDR(JM_MAX1ACCT));
       78     2636    1   DCL JM_SCHEDOK BIT(1) STATIC SYMDEF INIT('0'B);
       79     2637        /*! !*/
       80     2638        /**/
       81     2639        %JM_IF (STCLASS="STATIC SYMDEF");
       82     2797        /**/
       83     2798        %FO_SCB                               (FPTN=JM_JOBSCB,
       84     2799                 SEG       = 3,
       85     2800                 FSIZ      ="SIZEW(JM_IF)",
       86     2801                 MAP       = YES,
       87     2802                 MAPSEG    = FOSS_MBSJOB#,
       88     2803                 NPG       = 1,
       89     2804                 STCLASS   ="STATIC SYMDEF");
       90     2834        /*! R!*/
       91     2835    1   DCL JM_CSCGBUF CHAR(140) STATIC SYMDEF DALIGNED;
       92     2836        /**/
       93     2837    1   END JMC_DATA_D;

PL6.E3A0      #001=JMC_DATA_D File=JMC_DATA_D.:E05TSI                            TUE 07/29/97 23:27 Page:4
--  Include file information  --

   JM_SUBS_C.:E05TOU  is referenced.
   FOS_SUBS_C.:E05TOU  is referenced.
   FOO_MAC_C.:E05TOU  is referenced.
   SS_CNTRLD_R.:E05TOU  cannot be made into a system file and is referenced.
   SS_CNTRL_R.:E05TOU  cannot be made into a system file and is referenced.
   SS_SCHED_R.:E05TOU  cannot be made into a system file and is referenced.
   JM_CNTRLD_R.:E05TOU  cannot be made into a system file and is referenced.
   JM_CNTRL_R.:E05TOU  cannot be made into a system file and is referenced.
   JMA_DATA_R.:E05TOU  cannot be made into a system file and is referenced.
   JM$STRUCT.:E05TOU  is referenced.
      No diagnostics issued in procedure JMC_DATA_D.

   No code generated for procedure JMC_DATA_D .
   Procedure JMC_DATA_D requires 4 words of local(AUTO) storage.

    No errors detected in file JMC_DATA_D.:E05TSI    .

PL6.E3A0      #001=JMC_DATA_D File=JMC_DATA_D.:E05TSI                            TUE 07/29/97 23:27 Page:5

 Object Unit name= JMC_DATA_D                                 File name= JMC_DATA_D.:E05TOU
 UTS= JUL 29 '97 23:27:01.52 TUE                              Compiler= PL-6/E31         Sev=      00
 SharedLib= :SHARED_SYSTEM                                    Alt SharedLib=


    ****  Control sections  ****

 Sect   Type Bound  Init  Size OctSiz  Section name(segment info)
    0   Data  even  none   168    250  JMC_DATA_D
    1   Proc  even  none     0      0  JMC_DATA_D

    ****  Entry defs  ****

                              Check   Calling
                             calling  sequence
  Sect OctLoc Primary Altret sequence   type   Parms  Name
     1      0   yes            yes     ~proc       0  JMC_DATA_D

  ****  Data defs  ****

 Sect OctLoc  Name                           Sect OctLoc  Name
    0      0  JMC_CH                             0     60  JMC_EVQHD$
    0     61  JMC_EVQTL$                         0     62  JMC_EVQCNT
    0     63  JMC_FQHD$                          0     64  JMC_FQTL$
    0     65  JMC_FQCNT                          0     66  JMC_SLOTHD$
    0     67  JMC_SLOTTL$                        0     70  JMC_SLOTCNT
    0     71  JMC_LOCK$                          0     72  JMC_CHNG$
    0     73  JMC_BUAIS$                         0     74  JMC_BUIS$
    0     75  JMC_BFIS$                          0     76  JMC_NPART$
    0     77  JMC_NRES$                          0    100  JMC_PPTR$
    0    101  JMC_PI$                            0    102  JMC_RVSYSID$
    0    103  JMC_MAX1ACCT$                      0    104  JM_SCHEDOK
    0    105  JM_IF                              0    173  JM_JOBSCB
    0    204  JM_CSCGBUF
PL6.E3A0      #001=JMC_DATA_D File=JMC_DATA_D.:E05TSI                            TUE 07/29/97 23:27 Page:6

  ****  Data refs  ****

  Flags:  r = read only, s = secondary
Flgs Name                             Flgs Name                             Flgs Name
     JM_BFIS                               JM_NRES                               JM_PPTR$
     JM_NPART                              JM_PI                                 JM_MAX1ACCT
     JM_LOCK                               JM_CHNG                               S_CUIS
     S_MUIS                                IRM_SYSID

  ****  Segment refs  ****

  Flags:  r = read only, s = secondary
Flgs Name                             Flgs Name                             Flgs Name
     NULLSID                               ISSID
PL6.E3A0      #001=JMC_DATA_D File=JMC_DATA_D.:E05TSI                            TUE 07/29/97 23:27 Page:7

        1        1        /*M* JMC_DATA_D BATCH SCHEDULER STATIC GLOBAL DATA                            */
        2        2        /*T***********************************************************/
        3        3        /*T*                                                         */
        4        4        /*T* Copyright (c) Bull HN Information Systems Inc., 1997    */
        5        5        /*T*                                                         */
        6        6        /*T***********************************************************/
        7        7        JMC_DATA_D: PROC;
        8        8        /**/
        9        9        /*! !*/
       10       10        %INCLUDE JM$STRUCT;
       11      755        %INCLUDE JMA_DATA_R;                    /* Monitor-resident mbs data          */
       12      764        %INCLUDE JM_CNTRL_R;
       13     1653        %INCLUDE JM_CNTRLD_R;
       14     1662        %INCLUDE SS_SCHED_R;                    /* Execution scheduler data refs      */
       15     1705        %INCLUDE FOO_MAC_C;
       16     2453        %INCLUDE FOS_SUBS_C;
       17     2470        %INCLUDE JM_SUBS_C;
       18     2576        /**/
       19     2577    1   DCL IRM_SYSID UBIN SYMREF;
       20     2578        /**/
       21     2579        /*!$R!*/
       22     2580        /* Structure of pointers to input file CHAINS: */
       23     2581    1   DCL 1 JMC_CH STATIC SYMDEF,
       24     2582    1         2 * PTR INIT(ADDR(NIL)),
       25     2583    1         2 * PTR INIT(ADDR(NIL)),
       26     2584    1         2 HWP$ PTR INIT(ADDR(NIL)),       /* Waiting for usable partition       */
       27     2585    1         2 TWP$ PTR INIT(ADDR(NIL)),
       28     2586    1         2 HWR$ PTR INIT(ADDR(NIL)),       /* Waiting for runafter time to pass  */
       29     2587    1         2 TWR$ PTR INIT(ADDR(NIL)),
       30     2588    1         2 HDC$ PTR INIT(ADDR(NIL)),       /* Waiting for dependency count = 0   */
       31     2589    1         2 TDC$ PTR INIT(ADDR(NIL)),
       32     2590    1         2 HJD$ PTR INIT(ADDR(NIL)),       /* Waiting on job id dependency       */
       33     2591    1         2 TJD$ PTR INIT(ADDR(NIL)),
       34     2592    1         2 HDP$ PTR INIT(ADDR(NIL)),       /* Waiting for packset                */
       35     2593    1         2 TDP$ PTR INIT(ADDR(NIL)),
       36     2594    1         2 HP0$ PTR INIT(ADDR(NIL)),       /* Priority zero (wont ever run)      */
       37     2595    1         2 TP0$ PTR INIT(ADDR(NIL)),
PL6.E3A0      #001=JMC_DATA_D File=JMC_DATA_D.:E05TSI                            TUE 07/29/97 23:27 Page:8
       38     2596    1         2 PRIO(0:14),                     /* Schedulable JOBS:                  */
       39     2597    1           3 HD$ PTR INIT(ADDR(NIL)*15),
       40     2598    1           3 TL$ PTR INIT(ADDR(NIL)*15),
       41     2599    1         2 HRUN$ PTR INIT(ADDR(NIL)),      /* Running jobs                       */
       42     2600    1         2 TRUN$ PTR INIT(ADDR(NIL)),
       43     2601    1         2 LOCK SBIN INIT(0),              /* LOCK for M$JOBSTATS : >0 = locked */
       44     2602    1         2 RCVR UBIN INIT(1);              /* Batch Q recovery flag for Jobstats */
       45     2603    1   DCL 1 JMC_CHAINS(0:23) REDEF JMC_CH,
       46     2604    1         2 HEAD$ PTR,
       47     2605    1         2 TAIL$ PTR;
       48     2606        /*!R!*/
       49     2607        /**/
       50     2608        /**/
       51     2609        /* Event queue & free queue heads, tails, and counts */
       52     2610    1   DCL JMC_EVQHD$ PTR STATIC SYMDEF INIT(ADDR(NIL));
       53     2611    1   DCL JMC_EVQTL$ PTR STATIC SYMDEF INIT(ADDR(NIL));
       54     2612    1   DCL JMC_EVQCNT SBIN STATIC SYMDEF INIT(0);
       55     2613    1   DCL JMC_FQHD$ PTR STATIC SYMDEF INIT(ADDR(NIL));
       56     2614    1   DCL JMC_FQTL$ PTR STATIC SYMDEF INIT(ADDR(NIL));
       57     2615    1   DCL JMC_FQCNT SBIN STATIC SYMDEF INIT(JMMI_EVMX#);
       58     2616        /* Head, tail, and count for the free list of slots used to build  */
       59     2617        /* Mbs's packset name/serial number lists and virtual resource     */
       60     2618        /* lists which are associated with each input job file.            */
       61     2619    1   DCL JMC_SLOTHD$ PTR STATIC SYMDEF INIT(ADDR(NIL));
       62     2620    1   DCL JMC_SLOTTL$ PTR STATIC SYMDEF INIT(ADDR(NIL));
       63     2621    1   DCL JMC_SLOTCNT SBIN STATIC SYMDEF INIT(0);
       64     2622        /**/
       65     2623        /*   Pointers into monitor-resident static data (segid's will be   */
       66     2624        /*   Set by JMM$INIT.                                              */
       67     2625    1   DCL JMC_LOCK$ PTR STATIC SYMDEF INIT(ADDR(JM_LOCK));
       68     2626    1   DCL JMC_CHNG$ PTR STATIC SYMDEF INIT(ADDR(JM_CHNG));
       69     2627    1   DCL JMC_BUAIS$ PTR STATIC SYMDEF INIT(ADDR(S_MUIS(1)));
       70     2628    1   DCL JMC_BUIS$ PTR STATIC SYMDEF INIT(ADDR(S_CUIS(1)));
       71     2629    1   DCL JMC_BFIS$ PTR STATIC SYMDEF INIT(ADDR(JM_BFIS));
       72     2630    1   DCL JMC_NPART$ PTR STATIC SYMDEF INIT(ADDR(JM_NPART));
       73     2631    1   DCL JMC_NRES$ PTR STATIC SYMDEF INIT(ADDR(JM_NRES));
       74     2632    1   DCL JMC_PPTR$ PTR STATIC SYMDEF INIT(ADDR(JM_PPTR$(0)));
PL6.E3A0      #001=JMC_DATA_D File=JMC_DATA_D.:E05TSI                            TUE 07/29/97 23:27 Page:9
       75     2633    1   DCL JMC_PI$ PTR STATIC SYMDEF INIT(ADDR(JM_PI));
       76     2634    1   DCL JMC_RVSYSID$ PTR STATIC SYMDEF INIT(ADDR(IRM_SYSID));
       77     2635    1   DCL JMC_MAX1ACCT$ PTR STATIC SYMDEF INIT(ADDR(JM_MAX1ACCT));
       78     2636    1   DCL JM_SCHEDOK BIT(1) STATIC SYMDEF INIT('0'B);
       79     2637        /*! !*/
       80     2638        /**/
       81     2639        %JM_IF (STCLASS="STATIC SYMDEF");
       82     2797        /**/
       83     2798        %FO_SCB                               (FPTN=JM_JOBSCB,
       84     2799                 SEG       = 3,
       85     2800                 FSIZ      ="SIZEW(JM_IF)",
       86     2801                 MAP       = YES,
       87     2802                 MAPSEG    = FOSS_MBSJOB#,
       88     2803                 NPG       = 1,
       89     2804                 STCLASS   ="STATIC SYMDEF");
       90     2834        /*! R!*/
       91     2835    1   DCL JM_CSCGBUF CHAR(140) STATIC SYMDEF DALIGNED;
       92     2836        /**/
       93     2837    1   END JMC_DATA_D;

PL6.E3A0      #001=JMC_DATA_D File=JMC_DATA_D.:E05TSI                            TUE 07/29/97 23:27 Page:10
--  Include file information  --

   JM_SUBS_C.:E05TOU  is referenced.
   FOS_SUBS_C.:E05TOU  is referenced.
   FOO_MAC_C.:E05TOU  is referenced.
   SS_CNTRLD_R.:E05TOU  cannot be made into a system file and is referenced.
   SS_CNTRL_R.:E05TOU  cannot be made into a system file and is referenced.
   SS_SCHED_R.:E05TOU  cannot be made into a system file and is referenced.
   JM_CNTRLD_R.:E05TOU  cannot be made into a system file and is referenced.
   JM_CNTRL_R.:E05TOU  cannot be made into a system file and is referenced.
   JMA_DATA_R.:E05TOU  cannot be made into a system file and is referenced.
   JM$STRUCT.:E05TOU  is referenced.
      No diagnostics issued in procedure JMC_DATA_D.
PL6.E3A0      #001=JMC_DATA_D File=JMC_DATA_D.:E05TSI                            TUE 07/29/97 23:27 Page:11

 **** Variables and constants ****

  ****  Section 000  Data  JMC_DATA_D

  ****  Scalars and arrays  ****
OctLoc.c.b A Datatyp(siz) R M Lvl/name                 OctLoc.c.b A Datatyp(siz) R M Lvl/name

   105-0-0/w STRC(1944)  r     1 JM_IF

  ****  SYMREF variables  ****

  ****  Scalars and arrays  ****
OctLoc.c.b A Datatyp(siz) R M Lvl/name                 OctLoc.c.b A Datatyp(siz) R M Lvl/name

     0-0-0/w UBIN        r     1 IRM_SYSID                  0-0-0/w UBIN        r     1 JM_BFIS
     0-0-0/b BIT (16)    r     1 JM_CHNG                    0-0-0/w SBIN        r     1 JM_LOCK
     0-0-0/w UBIN        r     1 JM_MAX1ACCT                0-0-0/w UBIN        r     1 JM_NPART
     0-0-0/w SBIN        r     1 JM_NRES                    0-0-0/w SBIN        r     1 JM_PI
     0-0-0/w PTR         r     1 JM_PPTR$(0:15)
     0-0-0/w SBIN        r     1 S_CUIS(0:4)                0-0-0/w SBIN        r     1 S_MUIS(0:4)


   No code generated for procedure JMC_DATA_D .
   Procedure JMC_DATA_D requires 4 words of local(AUTO) storage.

    No errors detected in file JMC_DATA_D.:E05TSI    .
PL6.E3A0      #001=JMC_DATA_D File=JMC_DATA_D.:E05TSI                            TUE 07/29/97 23:27 Page:12
          *** CROSS REFERENCE LISTING ***
**     DENOTES     IDENTIFIER DEFINITION
<<                 IDENTIFIER'S VALUE SET
>>                 IDENTIFIER'S VALUE USED
<>                 IDENTIFIER SET AND/OR USED
--                 IDENTIFIER REFERENCED
PL6.E3A0      #001=JMC_DATA_D File=JMC_DATA_D.:E05TSI                            TUE 07/29/97 23:27 Page:13
          MINI XREF LISTING

IRM_SYSID
      2577**DCL      2634--DCLINIT
JMC_CH
      2581**DCL      2603--REDEF
JM_BFIS
       763**DCL      2629--DCLINIT
JM_CHNG
      1661**DCL      2626--DCLINIT
JM_IF
      2652**DCL      2818--DCLINIT
JM_LOCK
      1661**DCL      2625--DCLINIT
JM_MAX1ACCT
       772**DCL      2635--DCLINIT
JM_NPART
       772**DCL      2630--DCLINIT
JM_NRES
       763**DCL      2631--DCLINIT
JM_PI
       772**DCL      2633--DCLINIT
JM_PPTR$
       763**DCL      2632--DCLINIT
S_CUIS
      1688**DCL      2628--DCLINIT
S_MUIS
      1688**DCL      2627--DCLINIT
