VERSION E05

PL6.E3A0      #001=JP_DATA_D File=JP_DATA_D.:E05TSI                              TUE 07/29/97 23:40 Page:1
        1        1        /*M* JP_DATA_D SYMDEFed data for the PRESCAN ghost */
        2        2        /*T***********************************************************/
        3        3        /*T*                                                         */
        4        4        /*T* Copyright (c) Bull HN Information Systems Inc., 1997    */
        5        5        /*T*                                                         */
        6        6        /*T***********************************************************/
        7        7        /*X*    DMC,DFC */
        8        8        /********************************************************************/
        9        9        /*P*    NAME:    JP_DATA_D
       10       10                PURPOSE: To provide a common module containing
       11       11                         constant data referenced by the various
       12       12                         modules in PRESCAN.
       13       13        */
       14       14        /********************************************************************/
       15       15        JP_DATA_D: PROC;
       16       16        /***** Include files *****/
       17       17          %INCLUDE AS_SUPER_C;
       18      452          %INCLUDE KL_SUPER_C;
       19     3354          %INCLUDE CP_6;
       20     3435          %INCLUDE B_SEGIDS_C;
       21     3974          %INCLUDE FOO_MAC_C;
       22     4722          %INCLUDE FOS_SUBS_C;
       23     4739          %INCLUDE JP_SUBS_C;
       24     4764          %INCLUDE JP_MACRO_C;
       25     4919          %INCLUDE PC_SUBS_C;
       26     5251        /***** Based structures required for data generation *******/
       27     5252        %JP$JOB;
       28     5262        /***** Fpts *****/
       29     5263        %FPT_LDEV (FPTN=PRINT_STREAMS,STREAMNAME='ALL ',STCLASS="CONSTANT SYMDEF");
       30     5288        %VLP_ACCT (FPTN=ACCT_SYMI,ACCT=':SYMI',STCLASS="CONSTANT SYMDEF");
       31     5301        %FPT_READ (FPTN=READ_CARD,DCB=M$EI,STCLASS="STATIC SYMDEF");
       32     5340        /***** Structures *****/
       33     5341    1   DCL  1  TEXT$ CONSTANT SYMDEF,
       34     5342    1           2  OFFSET UBIN(24) INIT(0) UNAL,
       35     5343    1           2  SID BIT(12) INIT(%DS2SID) UNAL;
       36     5344        /**/
       37     5345    1   DCL  1  PHYS_LIST$ CONSTANT SYMDEF,
PL6.E3A0      #001=JP_DATA_D File=JP_DATA_D.:E05TSI                              TUE 07/29/97 23:40 Page:2
       38     5346    1           2  OFFSET UBIN(24) INIT(0) UNAL,
       39     5347    1           2  SID BIT(12) INIT(%DS3SID) UNAL;
       40     5348        /**/
       41     5349    1   DCL  1  WORK$ CONSTANT SYMDEF,
       42     5350    1           2  OFFSET UBIN(24) INIT(0) UNAL,
       43     5351    1           2  SID BIT(12) INIT(%DS4SID) UNAL;
       44     5352        /**/
       45     5353        %AS_USERS (STR_NAME = AS_USERS,STCLASS = "STATIC SYMDEF");
       46     5531        %KL_DREC (NAME = KL_DREC,STCLASS = "STATIC SYMDEF",LAST=",");
       47     5644        %KL_FEBLK (NAME = FEBLK,STCLASS = "STATIC SYMDEF",RCNT=31,LVL=2,LAST=";");
       48     5693        /***** Commonly used flags *****/
       49     5694    1   DCL NHPSN# BIT(1) ALIGNED STATIC SYMDEF;
       50     5695    1   DCL SCAN_CMDS# BIT(1) ALIGNED STATIC SYMDEF;
       51     5696    1   DCL PASSWORD_OK# BIT(1) ALIGNED STATIC SYMDEF;
       52     5697    1   DCL PASS_TWO# BIT(1) ALIGNED STATIC SYMDEF;
       53     5698        /***** Dcbs *****/
       54     5699    1   DCL M$CG DCB;
       55     5700    1   DCL M$EI DCB;
       56     5701    1   DCL M$LO DCB;
       57     5702    1   DCL M$JOBSTAT DCB;
       58     5703    1   DCL M$HLP DCB;
       59     5704    1   DCL M$USERS DCB;
       60     5705        /***** Dcbs *****/
       61     5706    1   DCL M$CG$ PTR STATIC SYMDEF;
       62     5707    1   DCL M$EI$ PTR STATIC SYMDEF;
       63     5708    1   DCL M$LO$ PTR STATIC SYMDEF;
       64     5709    1   DCL M$JOBSTAT$ PTR STATIC SYMDEF;
       65     5710    1   DCL M$HLP$ PTR STATIC SYMDEF;
       66     5711    1   DCL M$USERS$ PTR STATIC SYMDEF;
       67     5712        /****** More data *******/
       68     5713    1   DCL JP_CSCGBUF      CHAR(256) STATIC SYMDEF DALIGNED;
       69     5714    1   DCL 1 JP_NOGO STATIC SYMDEF ALIGNED,
       70     5715                                /* JP_NOGO  : Mask of bits, one for each
       71     5716                                              thing we need in order to
       72     5717                                              be permitted to PRESCAN
       73     5718                                              stuff.  If bit is on, then
       74     5719                                              the named condition hasn't
PL6.E3A0      #001=JP_DATA_D File=JP_DATA_D.:E05TSI                              TUE 07/29/97 23:40 Page:3
       75     5720                                              been satisfied and we cannot
       76     5721                                              prescan stuff. */
       77     5722    1         2 BATCHON BIT(1) UNAL INIT('1'B),
       78     5723                                /* BATCHON  : We've never gotton !BATCH ON,
       79     5724                                              or !BATCH OFF is currently
       80     5725                                              in effect. */
       81     5726    1         2 OPFB BIT(1) UNAL INIT('1'B),
       82     5727                                /* OPFB     : SLUG hasn't told us the system
       83     5728                                              is open for business. */
       84     5729    1         2 SUSR BIT(1) UNAL INIT('1'B),
       85     5730                                /* SUSR     : SLUG hasn't told us that it's OK
       86     5731                                              to start users. */
       87     5732    1         2 * BIT(33) UNAL INIT('0'B);
       88     5733    1   DCL JP_GOODNGT      UBIN STATIC SYMDEF INIT(0);
       89     5734    1   DCL JP_NJFR         UBIN STATIC SYMDEF INIT(0);
       90     5735        %JP$Q (NAME=JP_Q,STCLASS="STATIC SYMDEF");
       91     5766        %FO_SCB                               (FPTN=JP_JOBSCB,
       92     5767                 SEG       = JPSN_JOB#,
       93     5768                 FSIZ      ="SIZEW(JP$JOB)",
       94     5769                 MAP       = YES,
       95     5770                 MAPSEG    = FOSS_PREJOB#,
       96     5771                 NPG       = 1,
       97     5772                 STCLASS   ="STATIC SYMDEF");
       98     5802        /***** Security logging data *****/
       99     5803    1   DCL ES$ PTR STATIC SYMDEF; /* Ptr to mapped version of ES_LOGSYSACC */
      100     5804    1   DCL ES_LOGSYSACC_DEFAULT UBIN WORD ALIGNED CONSTANT SYMDEF INIT(%PC_ES_NONE#);
      101     5805    1   END JP_DATA_D;

PL6.E3A0      #001=JP_DATA_D File=JP_DATA_D.:E05TSI                              TUE 07/29/97 23:40 Page:4
--  Include file information  --

   PC_SUBS_C.:E05TOU  is referenced.
   JP_MACRO_C.:E05TOU  is referenced.
   JP_SUBS_C.:E05TOU  is referenced.
   FOS_SUBS_C.:E05TOU  is referenced.
   FOO_MAC_C.:E05TOU  is referenced.
   B_SEGIDS_C.:E05TOU  is referenced.
   CP_6.:E05TOU  cannot be made into a system file and is referenced.
   KL_SUPER_C.:E05TOU  is referenced.
   AS_SUPER_C.:E05TOU  is referenced.
   B$JIT_C.:E05TOU  was found in the system file and is never referenced.
   CP_6_C.:E05TOU  was found in the system file and is referenced.
      No diagnostics issued in procedure JP_DATA_D.

   No code generated for procedure JP_DATA_D .
   Procedure JP_DATA_D requires 4 words of local(AUTO) storage.

    No errors detected in file JP_DATA_D.:E05TSI    .

PL6.E3A0      #001=JP_DATA_D File=JP_DATA_D.:E05TSI                              TUE 07/29/97 23:40 Page:5

 Object Unit name= JP_DATA_D                                  File name= JP_DATA_D.:E05TOU
 UTS= JUL 29 '97 23:40:11.52 TUE                              Compiler= PL-6/E31         Sev=      00
 SharedLib= :SHARED_SYSTEM                                    Alt SharedLib=


    ****  Control sections  ****

 Sect   Type Bound  Init  Size OctSiz  Section name(segment info)
    0   DCB   even  none     0      0  M$UC
    1  RoData even  UTS     26     32  JP_DATA_D
    2   Data  even  none   792   1430  JP_DATA_D
    3   DCB   even  none     0      0  M$CG
    4   DCB   even  none     0      0  M$EI
    5   DCB   even  none     0      0  M$LO
    6   DCB   even  none     0      0  M$JOBSTAT
    7   DCB   even  none     0      0  M$HLP
    8   DCB   even  none     0      0  M$USERS
    9   Proc  even  none     0      0  JP_DATA_D

    ****  Entry defs  ****

                              Check   Calling
                             calling  sequence
  Sect OctLoc Primary Altret sequence   type   Parms  Name
     9      0   yes            yes     ~proc       0  JP_DATA_D
PL6.E3A0      #001=JP_DATA_D File=JP_DATA_D.:E05TSI                              TUE 07/29/97 23:40 Page:6

  ****  Data defs  ****

 Sect OctLoc  Name                           Sect OctLoc  Name
    1      0  PRINT_STREAMS                      1     24  ACCT_SYMI
    2      0  READ_CARD                          1     26  TEXT$
    1     27  PHYS_LIST$                         1     30  WORK$
    2     16  AS_USERS                           2   1022  KL_DREC
    2   1273  NHPSN#                             2   1274  SCAN_CMDS#
    2   1275  PASSWORD_OK#                       2   1276  PASS_TWO#
    2   1277  M$CG$                              2   1300  M$EI$
    2   1301  M$LO$                              2   1302  M$JOBSTAT$
    2   1303  M$HLP$                             2   1304  M$USERS$
    2   1306  JP_CSCGBUF                         2   1406  JP_NOGO
    2   1407  JP_GOODNGT                         2   1410  JP_NJFR
    2   1411  JP_Q                               2   1417  JP_JOBSCB
    2   1427  ES$                                1     31  ES_LOGSYSACC_DEFAULT

  ****  Data refs  ****

  Flags:  r = read only, s = secondary
Flgs Name                             Flgs Name                             Flgs Name
     M$UC                                  M$CG                                  M$EI
     M$LO                                  M$JOBSTAT                             M$HLP
     M$USERS

  ****  Segment refs  ****

  Flags:  r = read only, s = secondary
Flgs Name                             Flgs Name                             Flgs Name
     ISSID                                 NULLSID
PL6.E3A0      #001=JP_DATA_D File=JP_DATA_D.:E05TSI                              TUE 07/29/97 23:40 Page:7

        1        1        /*M* JP_DATA_D SYMDEFed data for the PRESCAN ghost */
        2        2        /*T***********************************************************/
        3        3        /*T*                                                         */
        4        4        /*T* Copyright (c) Bull HN Information Systems Inc., 1997    */
        5        5        /*T*                                                         */
        6        6        /*T***********************************************************/
        7        7        /*X*    DMC,DFC */
        8        8        /********************************************************************/
        9        9        /*P*    NAME:    JP_DATA_D
       10       10                PURPOSE: To provide a common module containing
       11       11                         constant data referenced by the various
       12       12                         modules in PRESCAN.
       13       13        */
       14       14        /********************************************************************/
       15       15        JP_DATA_D: PROC;
       16       16        /***** Include files *****/
       17       17          %INCLUDE AS_SUPER_C;
       18      452          %INCLUDE KL_SUPER_C;
       19     3354          %INCLUDE CP_6;
       20     3435          %INCLUDE B_SEGIDS_C;
       21     3974          %INCLUDE FOO_MAC_C;
       22     4722          %INCLUDE FOS_SUBS_C;
       23     4739          %INCLUDE JP_SUBS_C;
       24     4764          %INCLUDE JP_MACRO_C;
       25     4919          %INCLUDE PC_SUBS_C;
       26     5251        /***** Based structures required for data generation *******/
       27     5252        %JP$JOB;
       28     5262        /***** Fpts *****/
       29     5263        %FPT_LDEV (FPTN=PRINT_STREAMS,STREAMNAME='ALL ',STCLASS="CONSTANT SYMDEF");
       30     5288        %VLP_ACCT (FPTN=ACCT_SYMI,ACCT=':SYMI',STCLASS="CONSTANT SYMDEF");
       31     5301        %FPT_READ (FPTN=READ_CARD,DCB=M$EI,STCLASS="STATIC SYMDEF");
       32     5340        /***** Structures *****/
       33     5341    1   DCL  1  TEXT$ CONSTANT SYMDEF,
       34     5342    1           2  OFFSET UBIN(24) INIT(0) UNAL,
       35     5343    1           2  SID BIT(12) INIT(%DS2SID) UNAL;
       36     5344        /**/
       37     5345    1   DCL  1  PHYS_LIST$ CONSTANT SYMDEF,
PL6.E3A0      #001=JP_DATA_D File=JP_DATA_D.:E05TSI                              TUE 07/29/97 23:40 Page:8
       38     5346    1           2  OFFSET UBIN(24) INIT(0) UNAL,
       39     5347    1           2  SID BIT(12) INIT(%DS3SID) UNAL;
       40     5348        /**/
       41     5349    1   DCL  1  WORK$ CONSTANT SYMDEF,
       42     5350    1           2  OFFSET UBIN(24) INIT(0) UNAL,
       43     5351    1           2  SID BIT(12) INIT(%DS4SID) UNAL;
       44     5352        /**/
       45     5353        %AS_USERS (STR_NAME = AS_USERS,STCLASS = "STATIC SYMDEF");
       46     5531        %KL_DREC (NAME = KL_DREC,STCLASS = "STATIC SYMDEF",LAST=",");
       47     5644        %KL_FEBLK (NAME = FEBLK,STCLASS = "STATIC SYMDEF",RCNT=31,LVL=2,LAST=";");
       48     5693        /***** Commonly used flags *****/
       49     5694    1   DCL NHPSN# BIT(1) ALIGNED STATIC SYMDEF;
       50     5695    1   DCL SCAN_CMDS# BIT(1) ALIGNED STATIC SYMDEF;
       51     5696    1   DCL PASSWORD_OK# BIT(1) ALIGNED STATIC SYMDEF;
       52     5697    1   DCL PASS_TWO# BIT(1) ALIGNED STATIC SYMDEF;
       53     5698        /***** Dcbs *****/
       54     5699    1   DCL M$CG DCB;
       55     5700    1   DCL M$EI DCB;
       56     5701    1   DCL M$LO DCB;
       57     5702    1   DCL M$JOBSTAT DCB;
       58     5703    1   DCL M$HLP DCB;
       59     5704    1   DCL M$USERS DCB;
       60     5705        /***** Dcbs *****/
       61     5706    1   DCL M$CG$ PTR STATIC SYMDEF;
       62     5707    1   DCL M$EI$ PTR STATIC SYMDEF;
       63     5708    1   DCL M$LO$ PTR STATIC SYMDEF;
       64     5709    1   DCL M$JOBSTAT$ PTR STATIC SYMDEF;
       65     5710    1   DCL M$HLP$ PTR STATIC SYMDEF;
       66     5711    1   DCL M$USERS$ PTR STATIC SYMDEF;
       67     5712        /****** More data *******/
       68     5713    1   DCL JP_CSCGBUF      CHAR(256) STATIC SYMDEF DALIGNED;
       69     5714    1   DCL 1 JP_NOGO STATIC SYMDEF ALIGNED,
       70     5715                                /* JP_NOGO  : Mask of bits, one for each
       71     5716                                              thing we need in order to
       72     5717                                              be permitted to PRESCAN
       73     5718                                              stuff.  If bit is on, then
       74     5719                                              the named condition hasn't
PL6.E3A0      #001=JP_DATA_D File=JP_DATA_D.:E05TSI                              TUE 07/29/97 23:40 Page:9
       75     5720                                              been satisfied and we cannot
       76     5721                                              prescan stuff. */
       77     5722    1         2 BATCHON BIT(1) UNAL INIT('1'B),
       78     5723                                /* BATCHON  : We've never gotton !BATCH ON,
       79     5724                                              or !BATCH OFF is currently
       80     5725                                              in effect. */
       81     5726    1         2 OPFB BIT(1) UNAL INIT('1'B),
       82     5727                                /* OPFB     : SLUG hasn't told us the system
       83     5728                                              is open for business. */
       84     5729    1         2 SUSR BIT(1) UNAL INIT('1'B),
       85     5730                                /* SUSR     : SLUG hasn't told us that it's OK
       86     5731                                              to start users. */
       87     5732    1         2 * BIT(33) UNAL INIT('0'B);
       88     5733    1   DCL JP_GOODNGT      UBIN STATIC SYMDEF INIT(0);
       89     5734    1   DCL JP_NJFR         UBIN STATIC SYMDEF INIT(0);
       90     5735        %JP$Q (NAME=JP_Q,STCLASS="STATIC SYMDEF");
       91     5766        %FO_SCB                               (FPTN=JP_JOBSCB,
       92     5767                 SEG       = JPSN_JOB#,
       93     5768                 FSIZ      ="SIZEW(JP$JOB)",
       94     5769                 MAP       = YES,
       95     5770                 MAPSEG    = FOSS_PREJOB#,
       96     5771                 NPG       = 1,
       97     5772                 STCLASS   ="STATIC SYMDEF");
       98     5802        /***** Security logging data *****/
       99     5803    1   DCL ES$ PTR STATIC SYMDEF; /* Ptr to mapped version of ES_LOGSYSACC */
      100     5804    1   DCL ES_LOGSYSACC_DEFAULT UBIN WORD ALIGNED CONSTANT SYMDEF INIT(%PC_ES_NONE#);
      101     5805    1   END JP_DATA_D;

PL6.E3A0      #001=JP_DATA_D File=JP_DATA_D.:E05TSI                              TUE 07/29/97 23:40 Page:10
--  Include file information  --

   PC_SUBS_C.:E05TOU  is referenced.
   JP_MACRO_C.:E05TOU  is referenced.
   JP_SUBS_C.:E05TOU  is referenced.
   FOS_SUBS_C.:E05TOU  is referenced.
   FOO_MAC_C.:E05TOU  is referenced.
   B_SEGIDS_C.:E05TOU  is referenced.
   CP_6.:E05TOU  cannot be made into a system file and is referenced.
   KL_SUPER_C.:E05TOU  is referenced.
   AS_SUPER_C.:E05TOU  is referenced.
   B$JIT_C.:E05TOU  was found in the system file and is never referenced.
   CP_6_C.:E05TOU  was found in the system file and is referenced.
      No diagnostics issued in procedure JP_DATA_D.
PL6.E3A0      #001=JP_DATA_D File=JP_DATA_D.:E05TSI                              TUE 07/29/97 23:40 Page:11

 **** Variables and constants ****

  ****  Section 001 RoData JP_DATA_D

  ****  Scalars and arrays  ****
OctLoc.c.b A Datatyp(siz) R M Lvl/name                 OctLoc.c.b A Datatyp(siz) R M Lvl/name

     0-0-0/d STRC(720)   r     1 PRINT_STREAMS

  ****  Section 002  Data  JP_DATA_D

  ****  Scalars and arrays  ****
OctLoc.c.b A Datatyp(siz) R M Lvl/name                 OctLoc.c.b A Datatyp(siz) R M Lvl/name

     0-0-0/d STRC(504)   r     1 READ_CARD

  ****  BASED and DCB variables  ****

  ****  Scalars and arrays  ****
OctLoc.c.b A Datatyp(siz) R M Lvl/name                 OctLoc.c.b A Datatyp(siz) R M Lvl/name

     0-0-0/w STRC(72)    r     1 JP$JOB                     0-0-0N  NULL        r     1 M$EI


   No code generated for procedure JP_DATA_D .
   Procedure JP_DATA_D requires 4 words of local(AUTO) storage.

    No errors detected in file JP_DATA_D.:E05TSI    .
PL6.E3A0      #001=JP_DATA_D File=JP_DATA_D.:E05TSI                              TUE 07/29/97 23:40 Page:12
          *** CROSS REFERENCE LISTING ***
**     DENOTES     IDENTIFIER DEFINITION
<<                 IDENTIFIER'S VALUE SET
>>                 IDENTIFIER'S VALUE USED
<>                 IDENTIFIER SET AND/OR USED
--                 IDENTIFIER REFERENCED
PL6.E3A0      #001=JP_DATA_D File=JP_DATA_D.:E05TSI                              TUE 07/29/97 23:40 Page:13
          MINI XREF LISTING

AS_USERS.BANNER_PERM
      5481**DCL      5482--REDEF
AS_USERS.BUDGET.MACCT
      5386**DCL      5390--REDEF
AS_USERS.BUDGET.MAX_PROJECTS
      5399**DCL      5402--REDEF
AS_USERS.BUDGET.PACCUM
      5382**DCL      5384--REDEF
AS_USERS.BUDGET.PMAXC
      5377**DCL      5379--REDEF
AS_USERS.SETUP_CHRA.TXT
      5497**DCL      5498--REDEF    5499--REDEF
JP$JOB
      5253**DCL      5786--DCLINIT
KL_DREC.PASSWORD
      5602**DCL      5606--REDEF
KL_DREC.RENAME
      5625**DCL      5626--REDEF
PRINT_STREAMS.V
      5277**DCL      5275--DCLINIT
READ_CARD.STATION_
      5321**DCL      5322--REDEF
READ_CARD.V
      5322**DCL      5318--DCLINIT
READ_CARD.V.DVBYTE.REREAD#
      5333**DCL      5333--REDEF
READ_CARD.V.INDX#
      5331**DCL      5331--REDEF
