VERSION E05

PL6.E3A0      #001=JZC$FIND File=JZC$MISC.:E05TSI                                TUE 07/29/97 23:53 Page:1
        1        1        /*T***********************************************************/
        2        2        /*T*                                                         */
        3        3        /*T* Copyright (c) Bull HN Information Systems Inc., 1997    */
        4        4        /*T*                                                         */
        5        5        /*T***********************************************************/
        6        6        /*X* PLM=3,IND=5,ENU=0,ECU=0    */
        7        7
        8        8        /*F*    NAME:   JZC$FIND
        9        9                PURPOSE: To locate a given account,name on the list of
       10       10                        suspended users.
       11       11        */
       12       12
       13       13        JZC$FIND: PROC(ACCT,UNAME,BLOCK$) ALTRET;
       14       14
       15       15    1   DCL ACCT CHAR(8);
       16       16    1   DCL UNAME CHAR(12);
       17       17    1   DCL BLOCK$ PTR;
       18       18
       19       19        %INCLUDE JZ_DATA_R;
       20      572
       21      573    1      BLOCK$ = JZ_SAVEHD$;
       22      574    2      DO WHILE (BLOCK$ ~= ADDR(JZ_SAVEHD$));
       23      575    2           IF (BLOCK$->JZ$INFO.ACCT = ACCT) AND
       24      576    2             (BLOCK$->JZ$INFO.UNAME = UNAME)
       25      577    2           THEN RETURN;
       26      578    2           BLOCK$ = BLOCK$->JZ$INFO.NXT_BLK$;
       27      579    2           END;
       28      580    1      ALTRETURN;
       29      581    1   END JZC$FIND;
       30      582        %EOD;

PL6.E3A0      #001=JZC$FIND File=JZC$MISC.:E05TSI                                TUE 07/29/97 23:53 Page:2
--  Include file information  --

   B_SEGIDS_C.:E05TOU  is referenced.
   JZ_DATA_R.:E05TOU  cannot be made into a system file and is referenced.
      No diagnostics issued in procedure JZC$FIND.

   Procedure JZC$FIND requires 25 words for executable code.
   Procedure JZC$FIND requires 6 words of local(AUTO) storage.

PL6.E3A0      #001=JZC$FIND File=JZC$MISC.:E05TSI                                TUE 07/29/97 23:53 Page:3

 Object Unit name= JZC$FIND                                   File name= JZC$MISC.:E05TOU
 UTS= JUL 29 '97 23:53:26.20 TUE                              Compiler= PL-6/E31         Sev=      00
 SharedLib= :SHARED_SYSTEM                                    Alt SharedLib=


    ****  Control sections  ****

 Sect   Type Bound  Init  Size OctSiz  Section name(segment info)
    0   Proc  even  none    25     31  JZC$FIND
    1  RoData even  none     1      1  JZC$FIND

    ****  Entry defs  ****

                              Check   Calling
                             calling  sequence
  Sect OctLoc Primary Altret sequence   type   Parms  Name
     0      0   yes    yes     yes      Std        3  JZC$FIND

  ****  Entry refs  ****

         Check        Calling
        calling       sequence
Altret sequence SRef   type   Args  Name
                       nStd      0 X66_AUTO_3
                       nStd      0 X66_ARET
                       nStd      0 X66_AALT

  ****  Data refs  ****

  Flags:  r = read only, s = secondary
Flgs Name                             Flgs Name                             Flgs Name
     JZ_SAVEHD$                            JZ_PAGE
PL6.E3A0      #001=JZC$FIND File=JZC$MISC.:E05TSI                                TUE 07/29/97 23:53 Page:4

  ****  Segment refs  ****

  Flags:  r = read only, s = secondary
Flgs Name                             Flgs Name                             Flgs Name
     ISSID
PL6.E3A0      #001=JZC$FIND File=JZC$MISC.:E05TSI                                TUE 07/29/97 23:53 Page:5


        1        1        /*T***********************************************************/
        2        2        /*T*                                                         */
        3        3        /*T* Copyright (c) Bull HN Information Systems Inc., 1997    */
        4        4        /*T*                                                         */
        5        5        /*T***********************************************************/
        6        6        /*X* PLM=3,IND=5,ENU=0,ECU=0    */
        7        7
        8        8        /*F*    NAME:   JZC$FIND
        9        9                PURPOSE: To locate a given account,name on the list of
       10       10                        suspended users.
       11       11        */
       12       12
       13       13        JZC$FIND: PROC(ACCT,UNAME,BLOCK$) ALTRET;

     13  0 000000   000000 700200 xent  JZC$FIND     TSX0  ! X66_AUTO_3
         0 000001   000006 000003                    ZERO    6,3

       14       14
       15       15    1   DCL ACCT CHAR(8);
       16       16    1   DCL UNAME CHAR(12);
       17       17    1   DCL BLOCK$ PTR;
       18       18
       19       19        %INCLUDE JZ_DATA_R;
       20      572
       21      573    1      BLOCK$ = JZ_SAVEHD$;

    573  0 000002   000000 236000 xsym               LDQ     JZ_SAVEHD$
         0 000003   200005 470500                    LDP0    @BLOCK$,,AUTO
         0 000004   000000 756100                    STQ     0,,PR0

       22      574    2      DO WHILE (BLOCK$ ~= ADDR(JZ_SAVEHD$));

    574  0 000005   000025 710000 0                  TRA     s:579

       23      575    2           IF (BLOCK$->JZ$INFO.ACCT = ACCT) AND

PL6.E3A0      #001=JZC$FIND File=JZC$MISC.:E05TSI                                TUE 07/29/97 23:53 Page:6
    575  0 000006   200005 470500                    LDP0    @BLOCK$,,AUTO
         0 000007   000000 471500                    LDP1    0,,PR0
         0 000010   200003 473500                    LDP3    @ACCT,,AUTO
         0 000011   040100 106500                    CMPC    fill='040'O
         0 000012   100003 000010                    ADSC9   3,,PR1                   cn=0,n=8
         0 000013   300000 000010                    ADSC9   0,,PR3                   cn=0,n=8
         0 000014   000023 601000 0                  TNZ     s:578
         0 000015   200004 474500                    LDP4    @UNAME,,AUTO
         0 000016   040100 106500                    CMPC    fill='040'O
         0 000017   100005 000014                    ADSC9   5,,PR1                   cn=0,n=12
         0 000020   400000 000014                    ADSC9   0,,PR4                   cn=0,n=12
         0 000021   000023 601000 0                  TNZ     s:578

       24      576    2             (BLOCK$->JZ$INFO.UNAME = UNAME)
       25      577    2           THEN RETURN;

    577  0 000022   000000 702200 xent               TSX2  ! X66_ARET

       26      578    2           BLOCK$ = BLOCK$->JZ$INFO.NXT_BLK$;

    578  0 000023   100000 236100                    LDQ     0,,PR1
         0 000024   000000 756100                    STQ     0,,PR0

       27      579    2           END;

    579  0 000025   000000 236000 1                  LDQ     0
         0 000026   000000 116100                    CMPQ    0,,PR0
         0 000027   000006 601000 0                  TNZ     s:575

       28      580    1      ALTRETURN;

    580  0 000030   000000 702200 xent               TSX2  ! X66_AALT

(unnamed)
 Sect OctLoc
   1     000   000000 006000                                                    ....
       29      581    1   END JZC$FIND;
PL6.E3A0      #001=JZC$FIND File=JZC$MISC.:E05TSI                                TUE 07/29/97 23:53 Page:7
       30      582        %EOD;

PL6.E3A0      #001=JZC$FIND File=JZC$MISC.:E05TSI                                TUE 07/29/97 23:53 Page:8
--  Include file information  --

   B_SEGIDS_C.:E05TOU  is referenced.
   JZ_DATA_R.:E05TOU  cannot be made into a system file and is referenced.
      No diagnostics issued in procedure JZC$FIND.
PL6.E3A0      #001=JZC$FIND File=JZC$MISC.:E05TSI                                TUE 07/29/97 23:53 Page:9

 **** Variables and constants ****

  ****  Auto variables  ****

  ****  Scalars and arrays  ****
OctLoc.c.b A Datatyp(siz) R M Lvl/name                 OctLoc.c.b A Datatyp(siz) R M Lvl/name

     3-0-0/w PTR         r     1 @ACCT                      5-0-0/w PTR         r     1 @BLOCK$
     4-0-0/w PTR         r     1 @UNAME                    *0-0-0/c CHAR(8)     r     1 ACCT
    *0-0-0/w PTR         r     1 BLOCK$                    *0-0-0/c CHAR(12)    r     1 UNAME

  ****  SYMREF variables  ****

  ****  Scalars and arrays  ****
OctLoc.c.b A Datatyp(siz) R M Lvl/name                 OctLoc.c.b A Datatyp(siz) R M Lvl/name

     0-0-0/w PTR         r     1 JZ_SAVEHD$

  ****  BASED and DCB variables  ****

  ****  Scalars and arrays  ****
OctLoc.c.b A Datatyp(siz) R M Lvl/name                 OctLoc.c.b A Datatyp(siz) R M Lvl/name

     0-0-0/w STRC(4896)  r     1 JZ$INFO


   Procedure JZC$FIND requires 25 words for executable code.
   Procedure JZC$FIND requires 6 words of local(AUTO) storage.
PL6.E3A0      #001=JZC$FIND File=JZC$MISC.:E05TSI                                TUE 07/29/97 23:53 Page:10
          *** CROSS REFERENCE LISTING ***
**     DENOTES     IDENTIFIER DEFINITION
<<                 IDENTIFIER'S VALUE SET
>>                 IDENTIFIER'S VALUE USED
<>                 IDENTIFIER SET AND/OR USED
--                 IDENTIFIER REFERENCED
PL6.E3A0      #001=JZC$FIND File=JZC$MISC.:E05TSI                                TUE 07/29/97 23:53 Page:11
          MINI XREF LISTING

ACCT
        15**DCL        13--PROC      575>>IF
BLOCK$
        17**DCL        13--PROC      573<<ASSIGN    574>>DOWHILE   575>>IF        575>>IF        578<<ASSIGN
       578>>ASSIGN
JZ$INFO.ACCT
       571**DCL       571--REDEF     575>>IF
JZ$INFO.BLK_COUNT
       570**DCL       570--REDEF
JZ$INFO.NXT_BLK$
       569**DCL       578>>ASSIGN
JZ$INFO.UNAME
       571**DCL       575>>IF
JZ_PAGE
       566**DCL       566--REDEF
JZ_SAVEHD$
       566**DCL       573>>ASSIGN    574--DOWHILE
UNAME
        16**DCL        13--PROC      575>>IF

PL6.E3A0      #002=JZC$INSERT File=JZC$MISC.:E05TSI                              TUE 07/29/97 23:53 Page:12
       31        1        /*T***********************************************************/
       32        2        /*T*                                                         */
       33        3        /*T* Copyright (c) Bull HN Information Systems Inc., 1997    */
       34        4        /*T*                                                         */
       35        5        /*T***********************************************************/
       36        6        /*F*    NAME:   JZC$INSERT
       37        7                PURPOSE: To add a JZ$INFO block to the list of suspended
       38        8                        users.
       39        9        */
       40       10
       41       11        JZC$INSERT: PROC(BLOCK$);
       42       12
       43       13    1   DCL BLOCK$ PTR;
       44       14
       45       15        %INCLUDE JZ_DATA_R;
       46      568
       47      569    1      BLOCK$->JZ$INFO.NXT_BLK$ = JZ_SAVEHD$;
       48      570    1      JZ_SAVEHD$ = BLOCK$;
       49      571    1      RETURN;
       50      572    1   END JZC$INSERT;
       51      573        %EOD;

PL6.E3A0      #002=JZC$INSERT File=JZC$MISC.:E05TSI                              TUE 07/29/97 23:53 Page:13
--  Include file information  --

   B_SEGIDS_C.:E05TOU  is referenced.
   JZ_DATA_R.:E05TOU  cannot be made into a system file and is referenced.
      No diagnostics issued in procedure JZC$INSERT.

   Procedure JZC$INSERT requires 9 words for executable code.
   Procedure JZC$INSERT requires 4 words of local(AUTO) storage.

PL6.E3A0      #002=JZC$INSERT File=JZC$MISC.:E05TSI                              TUE 07/29/97 23:53 Page:14

 Object Unit name= JZC$INSERT                                 File name= JZC$MISC.:E05TOU
 UTS= JUL 29 '97 23:53:30.88 TUE                              Compiler= PL-6/E31         Sev=      00
 SharedLib= :SHARED_SYSTEM                                    Alt SharedLib=


    ****  Control sections  ****

 Sect   Type Bound  Init  Size OctSiz  Section name(segment info)
    0   Proc  even  none     9     11  JZC$INSERT

    ****  Entry defs  ****

                              Check   Calling
                             calling  sequence
  Sect OctLoc Primary Altret sequence   type   Parms  Name
     0      0   yes            yes      Std        1  JZC$INSERT

  ****  Entry refs  ****

         Check        Calling
        calling       sequence
Altret sequence SRef   type   Args  Name
                       nStd      0 X66_AUTO_1
                       nStd      0 X66_ARET

  ****  Data refs  ****

  Flags:  r = read only, s = secondary
Flgs Name                             Flgs Name                             Flgs Name
     JZ_SAVEHD$                            JZ_PAGE
PL6.E3A0      #002=JZC$INSERT File=JZC$MISC.:E05TSI                              TUE 07/29/97 23:53 Page:15


       31        1        /*T***********************************************************/
       32        2        /*T*                                                         */
       33        3        /*T* Copyright (c) Bull HN Information Systems Inc., 1997    */
       34        4        /*T*                                                         */
       35        5        /*T***********************************************************/
       36        6        /*F*    NAME:   JZC$INSERT
       37        7                PURPOSE: To add a JZ$INFO block to the list of suspended
       38        8                        users.
       39        9        */
       40       10
       41       11        JZC$INSERT: PROC(BLOCK$);

     11  0 000000   000000 700200 xent  JZC$INSERT   TSX0  ! X66_AUTO_1
         0 000001   000004 000001                    ZERO    4,1

       42       12
       43       13    1   DCL BLOCK$ PTR;
       44       14
       45       15        %INCLUDE JZ_DATA_R;
       46      568
       47      569    1      BLOCK$->JZ$INFO.NXT_BLK$ = JZ_SAVEHD$;

    569  0 000002   200003 470500                    LDP0    @BLOCK$,,AUTO
         0 000003   000000 471500                    LDP1    0,,PR0
         0 000004   000000 236000 xsym               LDQ     JZ_SAVEHD$
         0 000005   100000 756100                    STQ     0,,PR1

       48      570    1      JZ_SAVEHD$ = BLOCK$;

    570  0 000006   000000 236100                    LDQ     0,,PR0
         0 000007   000000 756000 xsym               STQ     JZ_SAVEHD$

       49      571    1      RETURN;

    571  0 000010   000000 702200 xent               TSX2  ! X66_ARET
       50      572    1   END JZC$INSERT;
PL6.E3A0      #002=JZC$INSERT File=JZC$MISC.:E05TSI                              TUE 07/29/97 23:53 Page:16
       51      573        %EOD;

PL6.E3A0      #002=JZC$INSERT File=JZC$MISC.:E05TSI                              TUE 07/29/97 23:53 Page:17
--  Include file information  --

   B_SEGIDS_C.:E05TOU  is referenced.
   JZ_DATA_R.:E05TOU  cannot be made into a system file and is referenced.
      No diagnostics issued in procedure JZC$INSERT.
PL6.E3A0      #002=JZC$INSERT File=JZC$MISC.:E05TSI                              TUE 07/29/97 23:53 Page:18

 **** Variables and constants ****

  ****  Auto variables  ****

  ****  Scalars and arrays  ****
OctLoc.c.b A Datatyp(siz) R M Lvl/name                 OctLoc.c.b A Datatyp(siz) R M Lvl/name

     3-0-0/w PTR         r     1 @BLOCK$                   *0-0-0/w PTR         r     1 BLOCK$

  ****  SYMREF variables  ****

  ****  Scalars and arrays  ****
OctLoc.c.b A Datatyp(siz) R M Lvl/name                 OctLoc.c.b A Datatyp(siz) R M Lvl/name

     0-0-0/w PTR         r     1 JZ_SAVEHD$

  ****  BASED and DCB variables  ****

  ****  Scalars and arrays  ****
OctLoc.c.b A Datatyp(siz) R M Lvl/name                 OctLoc.c.b A Datatyp(siz) R M Lvl/name

     0-0-0/w STRC(4896)  r     1 JZ$INFO


   Procedure JZC$INSERT requires 9 words for executable code.
   Procedure JZC$INSERT requires 4 words of local(AUTO) storage.
PL6.E3A0      #002=JZC$INSERT File=JZC$MISC.:E05TSI                              TUE 07/29/97 23:53 Page:19
          *** CROSS REFERENCE LISTING ***
**     DENOTES     IDENTIFIER DEFINITION
<<                 IDENTIFIER'S VALUE SET
>>                 IDENTIFIER'S VALUE USED
<>                 IDENTIFIER SET AND/OR USED
--                 IDENTIFIER REFERENCED
PL6.E3A0      #002=JZC$INSERT File=JZC$MISC.:E05TSI                              TUE 07/29/97 23:53 Page:20
          MINI XREF LISTING

BLOCK$
        13**DCL        11--PROC      569>>ASSIGN    570>>ASSIGN
JZ$INFO.ACCT
       567**DCL       567--REDEF
JZ$INFO.BLK_COUNT
       566**DCL       566--REDEF
JZ$INFO.NXT_BLK$
       565**DCL       569<<ASSIGN
JZ_PAGE
       562**DCL       562--REDEF
JZ_SAVEHD$
       562**DCL       569>>ASSIGN    570<<ASSIGN

PL6.E3A0      #003=JZC$DELETE File=JZC$MISC.:E05TSI                              TUE 07/29/97 23:53 Page:21
       52        1        /*T***********************************************************/
       53        2        /*T*                                                         */
       54        3        /*T* Copyright (c) Bull HN Information Systems Inc., 1997    */
       55        4        /*T*                                                         */
       56        5        /*T***********************************************************/
       57        6        /*F*    NAME:   JZC$DELETE
       58        7                PURPOSE: To remove a user's entry in the list of suspended
       59        8                        users.
       60        9        */
       61       10
       62       11        JZC$DELETE: PROC(BLOCK$);
       63       12
       64       13    1   DCL BLOCK$ PTR;
       65       14    1   DCL PRE$ PTR;
       66       15
       67       16        %INCLUDE JZ_DATA_R;
       68      569
       69      570    1      PRE$ = ADDR(JZ_SAVEHD$);
       70      571    2      DO WHILE (PRE$->JZ$INFO.NXT_BLK$ ~= BLOCK$);
       71      572    2           PRE$ = PRE$->JZ$INFO.NXT_BLK$;
       72      573    2           END;
       73      574    1      PRE$->JZ$INFO.NXT_BLK$ = BLOCK$->JZ$INFO.NXT_BLK$;
       74      575    1      RETURN;
       75      576    1   END JZC$DELETE;

PL6.E3A0      #003=JZC$DELETE File=JZC$MISC.:E05TSI                              TUE 07/29/97 23:53 Page:22
--  Include file information  --

   B_SEGIDS_C.:E05TOU  is referenced.
   JZ_DATA_R.:E05TOU  cannot be made into a system file and is referenced.
      No diagnostics issued in procedure JZC$DELETE.

   Procedure JZC$DELETE requires 21 words for executable code.
   Procedure JZC$DELETE requires 6 words of local(AUTO) storage.

    No errors detected in file JZC$MISC.:E05TSI    .

PL6.E3A0      #003=JZC$DELETE File=JZC$MISC.:E05TSI                              TUE 07/29/97 23:53 Page:23

 Object Unit name= JZC$DELETE                                 File name= JZC$MISC.:E05TOU
 UTS= JUL 29 '97 23:53:34.80 TUE                              Compiler= PL-6/E31         Sev=      00
 SharedLib= :SHARED_SYSTEM                                    Alt SharedLib=


    ****  Control sections  ****

 Sect   Type Bound  Init  Size OctSiz  Section name(segment info)
    0   Proc  even  none    21     25  JZC$DELETE
    1  RoData even  none     1      1  JZC$DELETE

    ****  Entry defs  ****

                              Check   Calling
                             calling  sequence
  Sect OctLoc Primary Altret sequence   type   Parms  Name
     0      0   yes            yes      Std        1  JZC$DELETE

  ****  Entry refs  ****

         Check        Calling
        calling       sequence
Altret sequence SRef   type   Args  Name
                       nStd      0 X66_AUTO_1
                       nStd      0 X66_ARET

  ****  Data refs  ****

  Flags:  r = read only, s = secondary
Flgs Name                             Flgs Name                             Flgs Name
     JZ_SAVEHD$                            JZ_PAGE
PL6.E3A0      #003=JZC$DELETE File=JZC$MISC.:E05TSI                              TUE 07/29/97 23:53 Page:24

  ****  Segment refs  ****

  Flags:  r = read only, s = secondary
Flgs Name                             Flgs Name                             Flgs Name
     ISSID
PL6.E3A0      #003=JZC$DELETE File=JZC$MISC.:E05TSI                              TUE 07/29/97 23:53 Page:25


       52        1        /*T***********************************************************/
       53        2        /*T*                                                         */
       54        3        /*T* Copyright (c) Bull HN Information Systems Inc., 1997    */
       55        4        /*T*                                                         */
       56        5        /*T***********************************************************/
       57        6        /*F*    NAME:   JZC$DELETE
       58        7                PURPOSE: To remove a user's entry in the list of suspended
       59        8                        users.
       60        9        */
       61       10
       62       11        JZC$DELETE: PROC(BLOCK$);

     11  0 000000   000000 700200 xent  JZC$DELETE   TSX0  ! X66_AUTO_1
         0 000001   000006 000001                    ZERO    6,1

       63       12
       64       13    1   DCL BLOCK$ PTR;
       65       14    1   DCL PRE$ PTR;
       66       15
       67       16        %INCLUDE JZ_DATA_R;
       68      569
       69      570    1      PRE$ = ADDR(JZ_SAVEHD$);

    570  0 000002   000000 236000 1                  LDQ     0
         0 000003   200004 756100                    STQ     PRE$,,AUTO

       70      571    2      DO WHILE (PRE$->JZ$INFO.NXT_BLK$ ~= BLOCK$);

    571  0 000004   200004 470500                    LDP0    PRE$,,AUTO
         0 000005   200003 471500                    LDP1    @BLOCK$,,AUTO
         0 000006   000000 236100                    LDQ     0,,PR0
         0 000007   100000 116100                    CMPQ    0,,PR1
         0 000010   000021 600000 0                  TZE     s:574

       71      572    2           PRE$ = PRE$->JZ$INFO.NXT_BLK$;

PL6.E3A0      #003=JZC$DELETE File=JZC$MISC.:E05TSI                              TUE 07/29/97 23:53 Page:26
    572  0 000011   200004 470500                    LDP0    PRE$,,AUTO
         0 000012   000000 236100                    LDQ     0,,PR0
         0 000013   200004 756100                    STQ     PRE$,,AUTO

       72      573    2           END;

    573  0 000014   200004 470500                    LDP0    PRE$,,AUTO
         0 000015   200003 471500                    LDP1    @BLOCK$,,AUTO
         0 000016   000000 236100                    LDQ     0,,PR0
         0 000017   100000 116100                    CMPQ    0,,PR1
         0 000020   000011 601000 0                  TNZ     s:572

       73      574    1      PRE$->JZ$INFO.NXT_BLK$ = BLOCK$->JZ$INFO.NXT_BLK$;

    574  0 000021   100000 473500                    LDP3    0,,PR1
         0 000022   300000 236100                    LDQ     0,,PR3
         0 000023   000000 756100                    STQ     0,,PR0

       74      575    1      RETURN;

    575  0 000024   000000 702200 xent               TSX2  ! X66_ARET

(unnamed)
 Sect OctLoc
   1     000   000000 006000                                                    ....
       75      576    1   END JZC$DELETE;

PL6.E3A0      #003=JZC$DELETE File=JZC$MISC.:E05TSI                              TUE 07/29/97 23:53 Page:27
--  Include file information  --

   B_SEGIDS_C.:E05TOU  is referenced.
   JZ_DATA_R.:E05TOU  cannot be made into a system file and is referenced.
      No diagnostics issued in procedure JZC$DELETE.
PL6.E3A0      #003=JZC$DELETE File=JZC$MISC.:E05TSI                              TUE 07/29/97 23:53 Page:28

 **** Variables and constants ****

  ****  Auto variables  ****

  ****  Scalars and arrays  ****
OctLoc.c.b A Datatyp(siz) R M Lvl/name                 OctLoc.c.b A Datatyp(siz) R M Lvl/name

     3-0-0/w PTR         r     1 @BLOCK$                   *0-0-0/w PTR         r     1 BLOCK$
     4-0-0/w PTR         r     1 PRE$

  ****  SYMREF variables  ****

  ****  Scalars and arrays  ****
OctLoc.c.b A Datatyp(siz) R M Lvl/name                 OctLoc.c.b A Datatyp(siz) R M Lvl/name

     0-0-0/w PTR         r     1 JZ_SAVEHD$

  ****  BASED and DCB variables  ****

  ****  Scalars and arrays  ****
OctLoc.c.b A Datatyp(siz) R M Lvl/name                 OctLoc.c.b A Datatyp(siz) R M Lvl/name

     0-0-0/w STRC(4896)  r     1 JZ$INFO


   Procedure JZC$DELETE requires 21 words for executable code.
   Procedure JZC$DELETE requires 6 words of local(AUTO) storage.

    No errors detected in file JZC$MISC.:E05TSI    .
PL6.E3A0      #003=JZC$DELETE File=JZC$MISC.:E05TSI                              TUE 07/29/97 23:53 Page:29
          *** CROSS REFERENCE LISTING ***
**     DENOTES     IDENTIFIER DEFINITION
<<                 IDENTIFIER'S VALUE SET
>>                 IDENTIFIER'S VALUE USED
<>                 IDENTIFIER SET AND/OR USED
--                 IDENTIFIER REFERENCED
PL6.E3A0      #003=JZC$DELETE File=JZC$MISC.:E05TSI                              TUE 07/29/97 23:53 Page:30
          MINI XREF LISTING

BLOCK$
        13**DCL        11--PROC      571>>DOWHILE   574>>ASSIGN
JZ$INFO.ACCT
       568**DCL       568--REDEF
JZ$INFO.BLK_COUNT
       567**DCL       567--REDEF
JZ$INFO.NXT_BLK$
       566**DCL       571>>DOWHILE   572>>ASSIGN    574<<ASSIGN    574>>ASSIGN
JZ_PAGE
       563**DCL       563--REDEF
JZ_SAVEHD$
       563**DCL       570--ASSIGN
PRE$
        14**DCL       570<<ASSIGN    571>>DOWHILE   572<<ASSIGN    572>>ASSIGN    574>>ASSIGN
