VERSION E05

PL6.E3A0      #001=JZ_DATA_D File=JZ_DATA_D.:E05TSI                              TUE 07/29/97 23:53 Page:1
        1        1        /*M* JZ_DATA_D  Global data for autosave                           */
        2        2        /*T***********************************************************/
        3        3        /*T*                                                         */
        4        4        /*T* Copyright (c) Bull HN Information Systems Inc., 1997    */
        5        5        /*T*                                                         */
        6        6        /*T***********************************************************/
        7        7        JZ_DATA_D: PROC;
        8        8        %INCLUDE B_SEGIDS_C;
        9      547        /**/
       10      548    1   DCL JZ_SAVEHD$ PTR STATIC SYMDEF INIT(ADDR(JZ_SAVEHD$));
       11      549    1   DCL 1 JZ_PAGE STATIC SYMDEF,
       12      550    1         2 PG# UBIN(8) UNAL INIT(0),
       13      551    1         2 * UBIN(16) UNAL INIT(0),
       14      552    1         2 SEGID BIT(12) UNAL INIT(%DS2SID);
       15      553    1   DCL JZ_PAGE$ REDEF JZ_PAGE PTR;
       16      554    1   DCL 1 JZ_AVAILHD STATIC SYMDEF,
       17      555    1         2 NXT_BLK$ PTR INIT(ADDR(NIL)),
       18      556    1         2 TSLINE# BIT(36) UNAL INIT('0'B),
       19      557    1         2 * UBIN(27) UNAL INIT(0),
       20      558    1         2 BLK_COUNT UBIN BYTE UNAL INIT(0),
       21      559    1         2 LNK,
       22      560    1           3 NXT_PG$ PTR INIT(ADDR(JZ_AVAILHD)),
       23      561    1           3 PREV_PG$ PTR INIT(ADDR(JZ_AVAILHD));
       24      562    1   DCL 1 JZ_AVAIL_INIT CONSTANT SYMDEF,
       25      563    1         2 NXT_BLK$ PTR INIT(ADDR(NIL)),
       26      564    1         2 TSLINE# BIT(36) UNAL INIT('0'B),
       27      565    1         2 USER# UBIN BYTE UNAL INIT(0),
       28      566    1         2 LDCT# UBIN HALF UNAL INIT(0),
       29      567    1         2 BLK_COUNT UBIN BYTE UNAL INIT(0),
       30      568    1         2 LNK,
       31      569    1           3 NXT_PG$ PTR INIT(ADDR(NIL)),
       32      570    1           3 PREV_PG$ PTR INIT(ADDR(NIL)),
       33      571    1         2 UNAME CHAR(12) INIT(' '),
       34      572    1         2 TERM_INFO CHAR(168) INIT(' ');
       35      573        /**/
       36      574        /* Following is the structure used by autosave for keeping track   */
       37      575        /* of suspended users.  Pages of these blocks are allocated as     */
PL6.E3A0      #001=JZ_DATA_D File=JZ_DATA_D.:E05TSI                              TUE 07/29/97 23:53 Page:2
       38      576        /* needed from monitor data segment #2.                            */
       39      577    1   DCL 1 JZ$INFO BASED ALIGNED,
       40      578    1         2 NXT_BLK$ PTR,                   /* PTR to next block in list          */
       41      579    1         2 TSLINE# BIT(36) UNAL,           /* TSLINE info from JIT               */
       42      580    1         2 USER# UBIN BYTE UNAL,           /* User # to give to reconnected user */
       43      581    1         2 LDCT# UBIN HALF UNAL,           /* LDCT index to give to reconn. user */
       44      582    1         2 BLK_COUNT UBIN BYTE UNAL, /* # of free blocks in this page -
       45      583                                             free pg. header node only */
       46      584    1         2 INFO_SIZE REDEF BLK_COUNT UBIN BYTE UNAL,
       47      585                                                /* # of bytes of saved term. info     */
       48      586    1         2 ACCT CHAR(8),                   /* Account of suspended user          */
       49      587    1         2 LNK REDEF ACCT,                 /* Link info for free pg hdr only     */
       50      588    1           3 NXT_PG$ PTR,                  /* PTR to next free pg. header        */
       51      589    1           3 PREV_PG$ PTR,                 /* PTR to prev. free pg. header       */
       52      590    1         2 UNAME CHAR(12),                 /* User name of suspended user        */
       53      591    1         2 TERM_INFO CHAR(512);            /* User's terminal info               */
       54      592        /**/
       55      593    1   END JZ_DATA_D;

PL6.E3A0      #001=JZ_DATA_D File=JZ_DATA_D.:E05TSI                              TUE 07/29/97 23:53 Page:3
--  Include file information  --

   B_SEGIDS_C.:E05TOU  is referenced.
      No diagnostics issued in procedure JZ_DATA_D.

   No code generated for procedure JZ_DATA_D .
   Procedure JZ_DATA_D requires 4 words of local(AUTO) storage.

    No errors detected in file JZ_DATA_D.:E05TSI    .

PL6.E3A0      #001=JZ_DATA_D File=JZ_DATA_D.:E05TSI                              TUE 07/29/97 23:53 Page:4

 Object Unit name= JZ_DATA_D                                  File name= JZ_DATA_D.:E05TOU
 UTS= JUL 29 '97 23:53:52.80 TUE                              Compiler= PL-6/E31         Sev=      00
 SharedLib= :SHARED_SYSTEM                                    Alt SharedLib=


    ****  Control sections  ****

 Sect   Type Bound  Init  Size OctSiz  Section name(segment info)
    0   Data  even  none     7      7  JZ_DATA_D
    1  RoData even  UTS     50     62  JZ_DATA_D
    2   Proc  even  none     0      0  JZ_DATA_D

    ****  Entry defs  ****

                              Check   Calling
                             calling  sequence
  Sect OctLoc Primary Altret sequence   type   Parms  Name
     2      0   yes            yes     ~proc       0  JZ_DATA_D

  ****  Data defs  ****

 Sect OctLoc  Name                           Sect OctLoc  Name
    0      0  JZ_SAVEHD$                         0      1  JZ_PAGE
    0      2  JZ_AVAILHD                         1      0  JZ_AVAIL_INIT

  ****  Segment refs  ****

  Flags:  r = read only, s = secondary
Flgs Name                             Flgs Name                             Flgs Name
     ISSID                                 NULLSID
PL6.E3A0      #001=JZ_DATA_D File=JZ_DATA_D.:E05TSI                              TUE 07/29/97 23:53 Page:5


JZ_SAVEHD$
 Sect OctLoc
   0     000   000000 006000                                                    ....

(unnamed)
 Sect OctLoc
   0     001   000000 006005                                                    ....

JZ_AVAILHD
 Sect OctLoc
   0     002   000000 006014   000000 000000   000000 000000   000002 006000    ................
   0     006   000002 006000                                                    ....

(unnamed)
 Sect OctLoc
   1     000   000000 006014   000000 000000   000000 000000   000000 006014    ................
   1     004   000000 006014   040040 040040   040040 040040   040040 040040    ....
   1     010   040040 040040   040040 040040   040040 040040   040040 040040
   1     060*  040040 040040   040040 040040
        1        1        /*M* JZ_DATA_D  Global data for autosave                           */
        2        2        /*T***********************************************************/
        3        3        /*T*                                                         */
        4        4        /*T* Copyright (c) Bull HN Information Systems Inc., 1997    */
        5        5        /*T*                                                         */
        6        6        /*T***********************************************************/
        7        7        JZ_DATA_D: PROC;
        8        8        %INCLUDE B_SEGIDS_C;
        9      547        /**/
       10      548    1   DCL JZ_SAVEHD$ PTR STATIC SYMDEF INIT(ADDR(JZ_SAVEHD$));
       11      549    1   DCL 1 JZ_PAGE STATIC SYMDEF,
       12      550    1         2 PG# UBIN(8) UNAL INIT(0),
       13      551    1         2 * UBIN(16) UNAL INIT(0),
       14      552    1         2 SEGID BIT(12) UNAL INIT(%DS2SID);
       15      553    1   DCL JZ_PAGE$ REDEF JZ_PAGE PTR;
       16      554    1   DCL 1 JZ_AVAILHD STATIC SYMDEF,
       17      555    1         2 NXT_BLK$ PTR INIT(ADDR(NIL)),
PL6.E3A0      #001=JZ_DATA_D File=JZ_DATA_D.:E05TSI                              TUE 07/29/97 23:53 Page:6
       18      556    1         2 TSLINE# BIT(36) UNAL INIT('0'B),
       19      557    1         2 * UBIN(27) UNAL INIT(0),
       20      558    1         2 BLK_COUNT UBIN BYTE UNAL INIT(0),
       21      559    1         2 LNK,
       22      560    1           3 NXT_PG$ PTR INIT(ADDR(JZ_AVAILHD)),
       23      561    1           3 PREV_PG$ PTR INIT(ADDR(JZ_AVAILHD));
       24      562    1   DCL 1 JZ_AVAIL_INIT CONSTANT SYMDEF,
       25      563    1         2 NXT_BLK$ PTR INIT(ADDR(NIL)),
       26      564    1         2 TSLINE# BIT(36) UNAL INIT('0'B),
       27      565    1         2 USER# UBIN BYTE UNAL INIT(0),
       28      566    1         2 LDCT# UBIN HALF UNAL INIT(0),
       29      567    1         2 BLK_COUNT UBIN BYTE UNAL INIT(0),
       30      568    1         2 LNK,
       31      569    1           3 NXT_PG$ PTR INIT(ADDR(NIL)),
       32      570    1           3 PREV_PG$ PTR INIT(ADDR(NIL)),
       33      571    1         2 UNAME CHAR(12) INIT(' '),
       34      572    1         2 TERM_INFO CHAR(168) INIT(' ');
       35      573        /**/
       36      574        /* Following is the structure used by autosave for keeping track   */
       37      575        /* of suspended users.  Pages of these blocks are allocated as     */
       38      576        /* needed from monitor data segment #2.                            */
       39      577    1   DCL 1 JZ$INFO BASED ALIGNED,
       40      578    1         2 NXT_BLK$ PTR,                   /* PTR to next block in list          */
       41      579    1         2 TSLINE# BIT(36) UNAL,           /* TSLINE info from JIT               */
       42      580    1         2 USER# UBIN BYTE UNAL,           /* User # to give to reconnected user */
       43      581    1         2 LDCT# UBIN HALF UNAL,           /* LDCT index to give to reconn. user */
       44      582    1         2 BLK_COUNT UBIN BYTE UNAL, /* # of free blocks in this page -
       45      583                                             free pg. header node only */
       46      584    1         2 INFO_SIZE REDEF BLK_COUNT UBIN BYTE UNAL,
       47      585                                                /* # of bytes of saved term. info     */
       48      586    1         2 ACCT CHAR(8),                   /* Account of suspended user          */
       49      587    1         2 LNK REDEF ACCT,                 /* Link info for free pg hdr only     */
       50      588    1           3 NXT_PG$ PTR,                  /* PTR to next free pg. header        */
       51      589    1           3 PREV_PG$ PTR,                 /* PTR to prev. free pg. header       */
       52      590    1         2 UNAME CHAR(12),                 /* User name of suspended user        */
       53      591    1         2 TERM_INFO CHAR(512);            /* User's terminal info               */
       54      592        /**/
PL6.E3A0      #001=JZ_DATA_D File=JZ_DATA_D.:E05TSI                              TUE 07/29/97 23:53 Page:7
       55      593    1   END JZ_DATA_D;

PL6.E3A0      #001=JZ_DATA_D File=JZ_DATA_D.:E05TSI                              TUE 07/29/97 23:53 Page:8
--  Include file information  --

   B_SEGIDS_C.:E05TOU  is referenced.
      No diagnostics issued in procedure JZ_DATA_D.
PL6.E3A0      #001=JZ_DATA_D File=JZ_DATA_D.:E05TSI                              TUE 07/29/97 23:53 Page:9

 **** Variables and constants ****

  ****  Section 000  Data  JZ_DATA_D

  ****  Scalars and arrays  ****
OctLoc.c.b A Datatyp(siz) R M Lvl/name                 OctLoc.c.b A Datatyp(siz) R M Lvl/name

     2-0-0/w STRC(180)   r     1 JZ_AVAILHD                 0-0-0/w PTR         r     1 JZ_SAVEHD$


   No code generated for procedure JZ_DATA_D .
   Procedure JZ_DATA_D requires 4 words of local(AUTO) storage.

    No errors detected in file JZ_DATA_D.:E05TSI    .
PL6.E3A0      #001=JZ_DATA_D File=JZ_DATA_D.:E05TSI                              TUE 07/29/97 23:53 Page:10
          *** CROSS REFERENCE LISTING ***
**     DENOTES     IDENTIFIER DEFINITION
<<                 IDENTIFIER'S VALUE SET
>>                 IDENTIFIER'S VALUE USED
<>                 IDENTIFIER SET AND/OR USED
--                 IDENTIFIER REFERENCED
PL6.E3A0      #001=JZ_DATA_D File=JZ_DATA_D.:E05TSI                              TUE 07/29/97 23:53 Page:11
          MINI XREF LISTING

JZ$INFO.ACCT
       586**DCL       587--REDEF
JZ$INFO.BLK_COUNT
       582**DCL       584--REDEF
JZ_AVAILHD
       554**DCL       560--DCLINIT   561--DCLINIT
JZ_PAGE
       549**DCL       553--REDEF
JZ_SAVEHD$
       548**DCL       548--DCLINIT
