VERSION E05

PL6.E3A0      #001=J_DATA_D File=J_DATA_D.:E05TSI                                TUE 07/29/97 23:54 Page:1
        1        1        /*M* EXECUTION CONTROL DATA DEFINITIONS                            */
        2        2        /*T***********************************************************/
        3        3        /*T*                                                         */
        4        4        /*T* Copyright (c) Bull HN Information Systems Inc., 1997    */
        5        5        /*T*                                                         */
        6        6        /*T***********************************************************/
        7        7        J_DATA_D: PROC;
        8        8        %INCLUDE M_INFO_C;
        9      148        %INCLUDE B_LSDATA_C;
       10     3354        %INCLUDE F_CP6;
       11     4379        %INCLUDE JG_GHOSTS_C;
       12     4469
       13     4470    1   DCL J_PLOCK STATIC SYMDEF BIT(72) DALIGNED INIT ('1'B); /* PROCESSOR LOCK     */
       14     4471    1   DCL J_SAVSSR STATIC SYMDEF BIT(72) DALIGNED; /* USED BY JSN$ZAPFRAME          */
       15     4472    1   DCL J_CRASHUN STATIC SYMDEF SBIN;       /* USER # BEING ABORTED BY MONITOR    */
       16     4473    1   DCL J_PHASE2FLG UBIN STATIC SYMDEF ALIGNED INIT(0);
       17     4474
       18     4475    1   DCL J_SYSTXT CHAR(8) CONSTANT SYMDEF INIT(':SYS  ');
       19     4476    1   DCL J_SYS$ PTR CONSTANT SYMDEF INIT(ADDR(J_SYSTXT));
       20     4477        %JG_GHOSTS (ARRAY=NO,STCLASS="CONSTANT SYMDEF");
       21     4515    1   DCL 1 J_CPNAME CONSTANT SYMDEF,
       22     4516    1         2 CNT UBIN(9) INIT(4) UNAL,
       23     4517    1         2 NAME CHAR(7) UNAL INIT('IBEX   ');
       24     4518    1   DCL 1 J_LOGON CONSTANT SYMDEF,
       25     4519    1         2 CNT UBIN(9) UNAL INIT(5),
       26     4520    1         2 NAME CHAR(7) UNAL INIT('LOGON  ');
       27     4521    1   DCL 1 J_ATILA CONSTANT SYMDEF,
       28     4522    1         2 CNT UBIN(9) UNAL INIT(5),
       29     4523    1         2 NAME CHAR(7) UNAL INIT('ATILA  ');
       30     4524    1   DCL 1 J_INITSSR CONSTANT SYMDEF DALIGNED, /* INITIAL CONTENTS OF SSR          */
       31     4525    1         2 BOUND UBIN(20) UNAL INIT(%(SSS_BOUND%-64)),
       32     4526    1         2 FLGS BIT(9) UNAL INIT('743'O),
       33     4527    1         2 WSR UBIN(3) UNAL INIT(7),
       34     4528    1         2 TYP UBIN(4) UNAL INIT(1),
       35     4529    1         2 BASE UBIN(36) INIT(%(SSS_BASE%+64));
       36     4530
       37     4531
PL6.E3A0      #001=J_DATA_D File=J_DATA_D.:E05TSI                                TUE 07/29/97 23:54 Page:2
       38     4532    1   DCL 1 J_ASR_E CONSTANT SYMDEF DALIGNED,
       39     4533    1         2 BOUND UBIN(20) UNAL INIT(0),
       40     4534    1         2 FLGS BIT(9) UNAL INIT('741'O),
       41     4535    1         2 WSR UBIN(3) UNAL INIT(7),
       42     4536    1         2 TYPE UBIN(4) UNAL INIT(1),
       43     4537    1         2 BASE UBIN(36) INIT(AS_BASE%);
       44     4538
       45     4539    1   DCL 1 J_PSR_E CONSTANT SYMDEF DALIGNED,
       46     4540    1         2 BOUND UBIN(20) UNAL INIT(0),
       47     4541    1         2 FLGS BIT(9) UNAL INIT('101'O),
       48     4542    1         2 WSR UBIN(3) UNAL INIT(7),
       49     4543    1         2 TYPE UBIN(4) UNAL INIT(1),
       50     4544    1         2 BASE UBIN(36) INIT(0);
       51     4545
       52     4546
       53     4547        %EQU SMALL_SSF = 16*4;  /*byte size of small safe store frame */
       54     4548        %EQU LARGE_SSF = 64*4;  /*byte size of large safe store frame */
       55     4549        %EQU SIZE_FPT = 18*2*4; /*byte size of PS required for M$OPEN */
       56     4550
       57     4551    1   DCL J_USRMXSS_D CONSTANT SYMDEF UBIN(36)
       58     4552    1                 INIT(%(SSS_BASE%+%SMALL_SSF));
       59     4553    1   DCL J_ASLMXSS_D CONSTANT SYMDEF UBIN(36)
       60     4554    1                 INIT(%(SSS_BASE%+%SMALL_SSF+%LARGE_SSF+%SMALL_SSF));
       61     4555    1   DCL J_DBMXSS_D CONSTANT SYMDEF UBIN(36)
       62     4556    1                INIT(%(SSS_BASE%+%SMALL_SSF+2*%LARGE_SSF+%SMALL_SSF));
       63     4557    1   DCL J_CPMXSS_D CONSTANT SYMDEF UBIN(36)
       64     4558    1                INIT(%(SSS_BASE%+%SMALL_SSF+3*%LARGE_SSF+%SMALL_SSF));
       65     4559    1   DCL J_DBMXAS_D CONSTANT SYMDEF UBIN(36)
       66     4560    1                INIT(%((HJIT_BASE%+HJIT_BOUND%+1) - %SIZE_FPT));
       67     4561    1   DCL J_CPMXAS_D CONSTANT SYMDEF UBIN(36)
       68     4562    1                INIT(%((HJIT_BASE%+HJIT_BOUND%+1) - %SIZE_FPT));
       69     4563
       70     4564
       71     4565        %FPT_CLOSE (FPTN=J_FPT_CL_SAVE, STCLASS=STATIC SYMDEF, DISP=SAVE);
       72     4607        %FPT_CLOSE (FPTN=J_FPT_CL_REL, STCLASS=STATIC SYMDEF, DISP=SCRATCH);
       73     4649        %FPT_CLOSE (FPTN=J_FPT_CL_RELG, STCLASS=STATIC SYMDEF, DISP=SAVE, RELG=YES);
       74     4691        %FPT_PFIL (FPTN=J_FPT_PFIL, STCLASS=STATIC SYMDEF, BOF=NO);
PL6.E3A0      #001=J_DATA_D File=J_DATA_D.:E05TSI                                TUE 07/29/97 23:54 Page:3
       75     4706        %FPT_RESCTL (FPTN=J_FPT_RESCTL,STCLASS=CONSTANT SYMDEF);
       76     4723
       77     4724    1   END J_DATA_D;

PL6.E3A0      #001=J_DATA_D File=J_DATA_D.:E05TSI                                TUE 07/29/97 23:54 Page:4
--  Include file information  --

   JG_GHOSTS_C.:E05TOU  is referenced.
   F_CP6.:E05TOU  is referenced.
   B_MLSMAC_C.:E05TOU  is referenced.
   B_ULSMAC_C.:E05TOU  is referenced.
   B_LSDATA_C.:E05TOU  cannot be made into a system file and is referenced.
   M_INFO_C.:E05TOU  is referenced.
      No diagnostics issued in procedure J_DATA_D.

   No code generated for procedure J_DATA_D .
   Procedure J_DATA_D requires 4 words of local(AUTO) storage.

    No errors detected in file J_DATA_D.:E05TSI    .

PL6.E3A0      #001=J_DATA_D File=J_DATA_D.:E05TSI                                TUE 07/29/97 23:54 Page:5

 Object Unit name= J_DATA_D                                   File name= J_DATA_D.:E05TOU
 UTS= JUL 29 '97 23:54:13.44 TUE                              Compiler= PL-6/E31         Sev=      00
 SharedLib= :SHARED_SYSTEM                                    Alt SharedLib=


    ****  Control sections  ****

 Sect   Type Bound  Init  Size OctSiz  Section name(segment info)
    0   Data  even  none   100    144  J_DATA_D
    1  RoData even  UTS     74    112  J_DATA_D
    2   Proc  even  none     0      0  J_DATA_D

    ****  Entry defs  ****

                              Check   Calling
                             calling  sequence
  Sect OctLoc Primary Altret sequence   type   Parms  Name
     2      0   yes            yes     ~proc       0  J_DATA_D
PL6.E3A0      #001=J_DATA_D File=J_DATA_D.:E05TSI                                TUE 07/29/97 23:54 Page:6

  ****  Data defs  ****

 Sect OctLoc  Name                           Sect OctLoc  Name
    0      0  J_PLOCK                            0      2  J_SAVSSR
    0      4  J_CRASHUN                          0      5  J_PHASE2FLG
    1      0  J_SYSTXT                           1      2  J_SYS$
    1      4  J_GHOST1                           1      6  J_SLUG
    1     10  J_MBS                              1     12  J_KEYIN
    1     14  J_OUTSYM                           1     16  J_PRESCAN
    1     20  J_INSYM                            1     22  J_ELF
    1     24  J_PIG                              1     26  J_FROG
    1     30  J_DOG                              1     32  J_GOOSE
    1     34  J_MAILMAN                          1     36  J_DINGO
    1     40  J_JAYS                             1     42  J_SUPER
    1     44  J_SCOTTY                           1     46  J_CPNAME
    1     50  J_LOGON                            1     52  J_ATILA
    1     54  J_INITSSR                          1     56  J_ASR_E
    1     60  J_PSR_E                            1     62  J_USRMXSS_D
    1     63  J_ASLMXSS_D                        1     64  J_DBMXSS_D
    1     65  J_CPMXSS_D                         1     66  J_DBMXAS_D
    1     67  J_CPMXAS_D                         0      6  J_FPT_CL_SAVE
    0     44  J_FPT_CL_REL                       0    102  J_FPT_CL_RELG
    0    140  J_FPT_PFIL                         1     70  J_FPT_RESCTL

  ****  Segment refs  ****

  Flags:  r = read only, s = secondary
Flgs Name                             Flgs Name                             Flgs Name
     ISSID                                 NULLSID
PL6.E3A0      #001=J_DATA_D File=J_DATA_D.:E05TSI                                TUE 07/29/97 23:54 Page:7


(unnamed)
 Sect OctLoc
   0     000   400000 000000   000000 000000   ****** ******   ****** ******    ................
   0     004   ****** ******   000000 000000                                    ........

J_FPT_CL_SAVE
 Sect OctLoc
   0     006   000003 777640   000040 006000   000000 177640   000000 006014    ..... ..........
   0     012   000000 177640   000000 006014   000000 177640   000000 006014    ................
   0     036*  000000 177640   000000 006014   000000 000002   000000 000040    ...............
   0     042   000220 000000   000000 000000                                    ........

J_FPT_CL_REL
 Sect OctLoc
   0     044   000003 777640   000076 006000   000000 177640   000000 006014    .....>..........
   0     050   000000 177640   000000 006014   000000 177640   000000 006014    ................
   0     074*  000000 177640   000000 006014   000000 000001   000000 000040    ...............
   0     100   000220 000000   000000 000000                                    ........

J_FPT_CL_RELG
 Sect OctLoc
   0     102   000003 777640   000134 006000   000000 177640   000000 006014    .....\..........
   0     106   000000 177640   000000 006014   000000 177640   000000 006014    ................
   0     132*  000000 177640   000000 006014   000000 200002   000000 000040    ...............
   0     136   000220 000000   000000 000000                                    ........

J_FPT_PFIL
 Sect OctLoc
   0     140   000001 777640   000142 006000   000000 000000   000000 000000    .....b..........

J_SYSTXT
 Sect OctLoc
   1     000   072123 131123   040040 040040                                    :SYS

(unnamed)
 Sect OctLoc
PL6.E3A0      #001=J_DATA_D File=J_DATA_D.:E05TSI                                TUE 07/29/97 23:54 Page:8
   1     002   000000 006000   ****** ******   107110 117123   124061 040040    ........GHOST1
   1     006   123114 125107   040040 040040   115102 123040   040040 040040    SLUG    MBS
   1     012   113105 131111   116040 040040   117125 124123   131115 040040    KEYIN   OUTSYM
   1     016   120122 105123   103101 116040   111116 123131   115040 040040    PRESCAN INSYM
   1     022   105114 106040   040040 040040   120111 107040   040040 040040    ELF     PIG
   1     026   106122 117107   040040 040040   104117 107040   040040 040040    FROG    DOG
   1     032   107117 117123   105040 040040   115101 111114   115101 116040    GOOSE   MAILMAN
   1     036   104111 116107   117040 040040   112101 131123   040040 040040    DINGO   JAYS
   1     042   123125 120105   122040 040040   123103 117124   124131 040040    SUPER   SCOTTY
   1     046   004111 102105   130040 040040   005114 117107   117116 040040    .IBEX   .LOGON
   1     052   005101 124111   114101 040040   001077 770761   000000 152400    .ATILA  .?....j.
   1     056   000000 170361   000000 157000   000000 020361   000000 000000    ..x...o.........
   1     062   000000 152400   000000 153100   000000 153500   000000 154100    ..j...k@..k...l@
   1     066   000000 157560   000000 157560                                    ..o...o.

J_FPT_RESCTL
 Sect OctLoc
   1     070   000005 777640   000104 006000   000000 177640   000000 006014    .....D..........
   1     074   000000 177640   000000 006014   000000 177640   000000 006014    ................
   1     104*  000000 000000   000000 000000   000000 000000   000000 000000    ................
   1     110   000000 000000   000000 000000                                    ........
        1        1        /*M* EXECUTION CONTROL DATA DEFINITIONS                            */
        2        2        /*T***********************************************************/
        3        3        /*T*                                                         */
        4        4        /*T* Copyright (c) Bull HN Information Systems Inc., 1997    */
        5        5        /*T*                                                         */
        6        6        /*T***********************************************************/
        7        7        J_DATA_D: PROC;
        8        8        %INCLUDE M_INFO_C;
        9      148        %INCLUDE B_LSDATA_C;
       10     3354        %INCLUDE F_CP6;
       11     4379        %INCLUDE JG_GHOSTS_C;
       12     4469
       13     4470    1   DCL J_PLOCK STATIC SYMDEF BIT(72) DALIGNED INIT ('1'B); /* PROCESSOR LOCK     */
       14     4471    1   DCL J_SAVSSR STATIC SYMDEF BIT(72) DALIGNED; /* USED BY JSN$ZAPFRAME          */
       15     4472    1   DCL J_CRASHUN STATIC SYMDEF SBIN;       /* USER # BEING ABORTED BY MONITOR    */
       16     4473    1   DCL J_PHASE2FLG UBIN STATIC SYMDEF ALIGNED INIT(0);
PL6.E3A0      #001=J_DATA_D File=J_DATA_D.:E05TSI                                TUE 07/29/97 23:54 Page:9
       17     4474
       18     4475    1   DCL J_SYSTXT CHAR(8) CONSTANT SYMDEF INIT(':SYS  ');
       19     4476    1   DCL J_SYS$ PTR CONSTANT SYMDEF INIT(ADDR(J_SYSTXT));
       20     4477        %JG_GHOSTS (ARRAY=NO,STCLASS="CONSTANT SYMDEF");
       21     4515    1   DCL 1 J_CPNAME CONSTANT SYMDEF,
       22     4516    1         2 CNT UBIN(9) INIT(4) UNAL,
       23     4517    1         2 NAME CHAR(7) UNAL INIT('IBEX   ');
       24     4518    1   DCL 1 J_LOGON CONSTANT SYMDEF,
       25     4519    1         2 CNT UBIN(9) UNAL INIT(5),
       26     4520    1         2 NAME CHAR(7) UNAL INIT('LOGON  ');
       27     4521    1   DCL 1 J_ATILA CONSTANT SYMDEF,
       28     4522    1         2 CNT UBIN(9) UNAL INIT(5),
       29     4523    1         2 NAME CHAR(7) UNAL INIT('ATILA  ');
       30     4524    1   DCL 1 J_INITSSR CONSTANT SYMDEF DALIGNED, /* INITIAL CONTENTS OF SSR          */
       31     4525    1         2 BOUND UBIN(20) UNAL INIT(%(SSS_BOUND%-64)),
       32     4526    1         2 FLGS BIT(9) UNAL INIT('743'O),
       33     4527    1         2 WSR UBIN(3) UNAL INIT(7),
       34     4528    1         2 TYP UBIN(4) UNAL INIT(1),
       35     4529    1         2 BASE UBIN(36) INIT(%(SSS_BASE%+64));
       36     4530
       37     4531
       38     4532    1   DCL 1 J_ASR_E CONSTANT SYMDEF DALIGNED,
       39     4533    1         2 BOUND UBIN(20) UNAL INIT(0),
       40     4534    1         2 FLGS BIT(9) UNAL INIT('741'O),
       41     4535    1         2 WSR UBIN(3) UNAL INIT(7),
       42     4536    1         2 TYPE UBIN(4) UNAL INIT(1),
       43     4537    1         2 BASE UBIN(36) INIT(AS_BASE%);
       44     4538
       45     4539    1   DCL 1 J_PSR_E CONSTANT SYMDEF DALIGNED,
       46     4540    1         2 BOUND UBIN(20) UNAL INIT(0),
       47     4541    1         2 FLGS BIT(9) UNAL INIT('101'O),
       48     4542    1         2 WSR UBIN(3) UNAL INIT(7),
       49     4543    1         2 TYPE UBIN(4) UNAL INIT(1),
       50     4544    1         2 BASE UBIN(36) INIT(0);
       51     4545
       52     4546
       53     4547        %EQU SMALL_SSF = 16*4;  /*byte size of small safe store frame */
PL6.E3A0      #001=J_DATA_D File=J_DATA_D.:E05TSI                                TUE 07/29/97 23:54 Page:10
       54     4548        %EQU LARGE_SSF = 64*4;  /*byte size of large safe store frame */
       55     4549        %EQU SIZE_FPT = 18*2*4; /*byte size of PS required for M$OPEN */
       56     4550
       57     4551    1   DCL J_USRMXSS_D CONSTANT SYMDEF UBIN(36)
       58     4552    1                 INIT(%(SSS_BASE%+%SMALL_SSF));
       59     4553    1   DCL J_ASLMXSS_D CONSTANT SYMDEF UBIN(36)
       60     4554    1                 INIT(%(SSS_BASE%+%SMALL_SSF+%LARGE_SSF+%SMALL_SSF));
       61     4555    1   DCL J_DBMXSS_D CONSTANT SYMDEF UBIN(36)
       62     4556    1                INIT(%(SSS_BASE%+%SMALL_SSF+2*%LARGE_SSF+%SMALL_SSF));
       63     4557    1   DCL J_CPMXSS_D CONSTANT SYMDEF UBIN(36)
       64     4558    1                INIT(%(SSS_BASE%+%SMALL_SSF+3*%LARGE_SSF+%SMALL_SSF));
       65     4559    1   DCL J_DBMXAS_D CONSTANT SYMDEF UBIN(36)
       66     4560    1                INIT(%((HJIT_BASE%+HJIT_BOUND%+1) - %SIZE_FPT));
       67     4561    1   DCL J_CPMXAS_D CONSTANT SYMDEF UBIN(36)
       68     4562    1                INIT(%((HJIT_BASE%+HJIT_BOUND%+1) - %SIZE_FPT));
       69     4563
       70     4564
       71     4565        %FPT_CLOSE (FPTN=J_FPT_CL_SAVE, STCLASS=STATIC SYMDEF, DISP=SAVE);
       72     4607        %FPT_CLOSE (FPTN=J_FPT_CL_REL, STCLASS=STATIC SYMDEF, DISP=SCRATCH);
       73     4649        %FPT_CLOSE (FPTN=J_FPT_CL_RELG, STCLASS=STATIC SYMDEF, DISP=SAVE, RELG=YES);
       74     4691        %FPT_PFIL (FPTN=J_FPT_PFIL, STCLASS=STATIC SYMDEF, BOF=NO);
       75     4706        %FPT_RESCTL (FPTN=J_FPT_RESCTL,STCLASS=CONSTANT SYMDEF);
       76     4723
       77     4724    1   END J_DATA_D;

PL6.E3A0      #001=J_DATA_D File=J_DATA_D.:E05TSI                                TUE 07/29/97 23:54 Page:11
--  Include file information  --

   JG_GHOSTS_C.:E05TOU  is referenced.
   F_CP6.:E05TOU  is referenced.
   B_MLSMAC_C.:E05TOU  is referenced.
   B_ULSMAC_C.:E05TOU  is referenced.
   B_LSDATA_C.:E05TOU  cannot be made into a system file and is referenced.
   M_INFO_C.:E05TOU  is referenced.
      No diagnostics issued in procedure J_DATA_D.
PL6.E3A0      #001=J_DATA_D File=J_DATA_D.:E05TSI                                TUE 07/29/97 23:54 Page:12

 **** Variables and constants ****

  ****  Section 000  Data  J_DATA_D

  ****  Scalars and arrays  ****
OctLoc.c.b A Datatyp(siz) R M Lvl/name                 OctLoc.c.b A Datatyp(siz) R M Lvl/name

    44-0-0/d STRC(1080)  r     1 J_FPT_CL_REL             102-0-0/d STRC(1080)  r     1 J_FPT_CL_RELG
     6-0-0/d STRC(1080)  r     1 J_FPT_CL_SAVE            140-0-0/d STRC(144)   r     1 J_FPT_PFIL

  ****  Section 001 RoData J_DATA_D

  ****  Scalars and arrays  ****
OctLoc.c.b A Datatyp(siz) R M Lvl/name                 OctLoc.c.b A Datatyp(siz) R M Lvl/name

    70-0-0/d STRC(648)   r     1 J_FPT_RESCTL               0-0-0/c CHAR(8)     r     1 J_SYSTXT


   No code generated for procedure J_DATA_D .
   Procedure J_DATA_D requires 4 words of local(AUTO) storage.

    No errors detected in file J_DATA_D.:E05TSI    .
PL6.E3A0      #001=J_DATA_D File=J_DATA_D.:E05TSI                                TUE 07/29/97 23:54 Page:13
          *** CROSS REFERENCE LISTING ***
**     DENOTES     IDENTIFIER DEFINITION
<<                 IDENTIFIER'S VALUE SET
>>                 IDENTIFIER'S VALUE USED
<>                 IDENTIFIER SET AND/OR USED
--                 IDENTIFIER REFERENCED
PL6.E3A0      #001=J_DATA_D File=J_DATA_D.:E05TSI                                TUE 07/29/97 23:54 Page:14
          MINI XREF LISTING

J_FPT_CL_REL.SN_
      4630**DCL      4630--REDEF
J_FPT_CL_REL.UTL_
      4631**DCL      4631--REDEF
J_FPT_CL_REL.V
      4635**DCL      4630--DCLINIT
J_FPT_CL_REL.V.EXPIRE#
      4645**DCL      4645--REDEF
J_FPT_CL_REL.V.TYPE#
      4643**DCL      4643--REDEF
J_FPT_CL_REL.V.XTNSIZE#
      4640**DCL      4640--REDEF    4642--REDEF
J_FPT_CL_RELG.SN_
      4672**DCL      4672--REDEF
J_FPT_CL_RELG.UTL_
      4673**DCL      4673--REDEF
J_FPT_CL_RELG.V
      4677**DCL      4672--DCLINIT
J_FPT_CL_RELG.V.EXPIRE#
      4687**DCL      4687--REDEF
J_FPT_CL_RELG.V.TYPE#
      4685**DCL      4685--REDEF
J_FPT_CL_RELG.V.XTNSIZE#
      4682**DCL      4682--REDEF    4684--REDEF
J_FPT_CL_SAVE.SN_
      4588**DCL      4588--REDEF
J_FPT_CL_SAVE.UTL_
      4589**DCL      4589--REDEF
J_FPT_CL_SAVE.V
      4593**DCL      4588--DCLINIT
J_FPT_CL_SAVE.V.EXPIRE#
      4603**DCL      4603--REDEF
PL6.E3A0      #001=J_DATA_D File=J_DATA_D.:E05TSI                                TUE 07/29/97 23:54 Page:15
J_FPT_CL_SAVE.V.TYPE#
      4601**DCL      4601--REDEF
J_FPT_CL_SAVE.V.XTNSIZE#
      4598**DCL      4598--REDEF    4600--REDEF
J_FPT_PFIL.V
      4702**DCL      4702--DCLINIT
J_FPT_RESCTL.V
      4719**DCL      4717--DCLINIT
J_SYSTXT
      4475**DCL      4476--DCLINIT
