PL6.E3A0      #007=KAO$ASNRQS File=KAO$OTP.:E05TSI                               WED 07/30/97 00:02 Page:160
      964        1        /*T***********************************************************/
      965        2        /*T*                                                         */
      966        3        /*T* Copyright (c) Bull HN Information Systems Inc., 1997    */
      967        4        /*T*                                                         */
      968        5        /*T***********************************************************/
      969        6        /*X*     NSO,PLM=3,SQB=Y,AND=Y,ENI=0,SDI=3,MCL=10,CSI=0,ECI=0,IAD=3,IND=0 */
      970        7
      971        8
      972        9        KAO$ASNRQS: PROC (PRM_ASNRQS,PRM_OVRRIDASNRQS,CHN) ALTRET;
      973       10        %INCLUDE LCP_6;
      974      201        %INCLUDE KV_ASCCHR_E;                   /*  EQU'S FOR ASCII CHR'S             */
      975      338        %INCLUDE KV_GLBASM_E;
      976      356 S      %INCLUDE KV_GLBCNS_E;
      977      357        %KV_INPOPRX_E;
      978      369        %KV_STRTYP_E;
      979      407        %KV_VDH_FNC_E;
      980      427        %KV_SCHRSN_E;                           /*  Schedule reasons                  */
      981      434
      982      435 S      %INCLUDE KV$GLB;
      983      436 S      %INCLUDE KV$GLBCTX;
      984      437        %INCLUDE KA$GLB;
      985      578        %INCLUDE KA_GLB;
      986      655        %INCLUDE KA_GLB_E;
      987      733        %KA_HLTOTP_E;
      988      742        %KA_MSC;
      989      764        %INCLUDE KV_GLB_M;                      /*  VDH-user macros                   */
      990      886        %INCLUDE KV_INT_M;                      /*  TRACE ROUTINES                    */
      991     1029        %INCLUDE KH$CHN;
      992     1151        %KH$CHN (STCLASS="BASED(BCHN$)");       /*  CHANNEL TABLES ITEM DEFINITONS    */
      993     1275        %EQU KH_CHN=CHARTEXT('KH$CHN');
      994     1276        %INCLUDE KH_CHN;
      995     1316        %KH_CHNDAT;                             /*  CHANNEL TABLES ITEM DEFINITONS    */
      996     1334        %INCLUDE GH_IOFNC_E;                    /*  IO FUNCTION CODES                 */
      997     1403        %INCLUDE KW_LCT_E;                      /*  MLCP LCT DEFINITIONS              */
      998     1758        %INCLUDE KW_ALCT_E;                     /*  MLCP ASYNC LCT DEFINITIONS        */
      999     1948        %INCLUDE KA_LCT_E;                      /*  MLCP ASYNC LCT DEFINITIONS        */
     1000     2072        %KV$PTR;                                /*  VDH Pointers, status              */
PL6.E3A0      #007=KAO$ASNRQS File=KAO$OTP.:E05TSI                               WED 07/30/97 00:02 Page:161
     1001     2115        %KV$VDI;                                /*  VDI (VDH < ->VDH user interface)  */
     1002     2186        %INCLUDE KH$IO;
     1003     2433        %KH$IO(FPTN=KH_IO_INPLCTBYT,FNC=%GH#IO_INPLCTBYT,OTPCHN=YES,STCLASS=CONSTANT);
     1004     2547        %KH$IO(FPTN=KH_IO_OTPLCTBYT,FNC=%GH#IO_OTPLCTBYT,OTPCHN=YES,STCLASS=CONSTANT);
     1005     2661        %KH$IO(FPTN=KH@IO_INPLCTBYT,FNC=%GH#IO_INPLCTBYT,OTPCHN=YES,STCLASS=AUTO);
     1006     2775        %KH$IO(FPTN=KH@IO_OTPLCTBYT,FNC=%GH#IO_OTPLCTBYT,OTPCHN=YES,STCLASS=AUTO);
     1007     2889
     1008     2890        %INCLUDE KA_PERR_C;
     1009     2909 S      %INCLUDE GT_LCP6_M;
     1010     2910        %FPT_WRSYSLOG (FPTN = FPT_WRSYSLOG_OTPASNRQSFAL, STCLASS = CONSTANT, FCG = KA, MID =
              2910            O, ERR = %E$ASN_OTPASNRQSFAL, SEV = 3);
     1011     3005
     1012     3006    1   DCL KHI$IO_INPLCTBYT ENTRY(2) ALTRET;
     1013     3007    1   DCL KHI$IO_OTPLCTBYT ENTRY(2) ALTRET;
     1014     3008    1   DCL KHD$ERRLOG_SETTERMID_CHN ENTRY(2) ALTRET;
     1015     3009
     1016     3010
     1017     3011
     1018     3012
     1019     3013
     1020     3014    1   DCL Y@CNT1 UBIN WORD;
     1021     3015    1   DCL Y@CNT2 UBIN WORD;
     1022     3016    1   DCL BCHN$ PTR;
     1023     3017    1   DCL CHN UBIN;                 /* Passed channel table entry if NO_CTX entry.  */
     1024     3018
     1025     3019    1   DCL PRM_ASNRQS UBIN;
     1026     3020    1   DCL PRM_OVRRIDASNRQS UBIN;
     1027     3021
     1028     3022        %FPT_WRSYSLOG (FPTN=Y@WRSYSLOG, STCLASS=AUTO);
     1029     3117    1   DCL DW UBIN(32) BASED ALIGNED;
     1030     3118
     1031     3119    1      BCHN$ = %KV_VDI.CHN$;
     1032     3120    1      GOTO SUB_COMMON;
     1033     3121    1   KAO$ASNRQSNO_CTX: ENTRY (PRM_ASNRQS,PRM_OVRRIDASNRQS,CHN) ALTRET;
     1034     3122
     1035     3123    1      BCHN$ = ADDR(CHN);
     1036     3124
PL6.E3A0      #007=KAO$ASNRQS File=KAO$OTP.:E05TSI                               WED 07/30/97 00:02 Page:162
     1037     3125    1   SUB_COMMON:;
     1038     3126        /**************************************************************************   */
     1039     3127        /***** THIS CODE MAY BE BEING EXECUTED WITHOUT A CONTEXT BLOCK. *****         */
     1040     3128        /***** BE CAREFUL ABOUT REFERENCES TO KA$CTX. *****                           */
     1041     3129        /**************************************************************************   */
     1042     3130    1      Y@CNT1 = 10;
     1043     3131    1      KH@IO_OTPLCTBYT = KH_IO_OTPLCTBYT;
     1044     3132    2   LOOP: DO WHILE ('1'B);                  /* LOOP START                         */
     1045     3133
     1046     3134        /* THIS LOOP IS TRAVERSED FOR EACH ATTEMPT TO READ A 0 OUT OF                 */
     1047     3135        /* KA_LCT_OTPASNRQS IN THE COMM LINE CONTROLLER'S RAM. IF WE DON'T FIND A 0 AF*/
     1048     3136        /* A WHILE, GIVE UP.                                                          */
     1049     3137
     1050     3138    2         KH@IO_INPLCTBYT = KH_IO_INPLCTBYT;
     1051     3139    2         KH@IO_INPLCTBYT.LCTBYT.ADR = %KA_LCT_OTPASNRQS;
     1052     3140    2         CALL KHI$IO_INPLCTBYT(%KH_CHN,KH@IO_INPLCTBYT)
     1053     3141    3         WHENALTRETURN DO;
     1054     3142
     1055     3143        /* WE GOT A NAK ON THE INPUT LCT BYTE (OR MAYBE OUTPUT LCT BYTE).             */
     1056     3144
     1057     3145    3            ALTRETURN;
     1058     3146    3         END /* IF */;
     1059     3147    2         IF (KH@IO_INPLCTBYT.LCTBYT.DAT = 0) THEN EXIT LOOP;
     1060     3148
     1061     3149        /* WE READ A 0 OUT OF KA_LCT_OTPASNRQS                                        */
     1062     3150
     1063     3151    3         ELSE IF (KH@IO_INPLCTBYT.LCTBYT.DAT = PRM_ASNRQS) THEN DO;
     1064     3152
     1065     3153        /* THE MLCP IS ALREADY WORKING ON THIS TYPE OF OUTPUT                         */
     1066     3154        /* ASYNCHRONOUS REQUEST. IGNORE THIS ONE                                      */
     1067     3155
     1068     3156    3            GOTO POKE_IT;                  /* Just in case it's hung up          */
     1069     3157    2         END; ELSE IF (ADDR(PRM_OVRRIDASNRQS) ~= ADDR(NIL))
     1070     3158    2         THEN IF (KH@IO_INPLCTBYT.LCTBYT.DAT = PRM_OVRRIDASNRQS)
     1071     3159
     1072     3160        /* The asynchronous request we're trying to communicate to the                */
     1073     3161        /* MLCP should over-ride the asynchronous request the MLCP is                 */
PL6.E3A0      #007=KAO$ASNRQS File=KAO$OTP.:E05TSI                               WED 07/30/97 00:02 Page:163
     1074     3162        /* currently waiting to do. Store the new request ID. .                       */
     1075     3163
     1076     3164    2         THEN EXIT LOOP;                   /* LOOK BELOW                         */
     1077     3165    2         Y@CNT1 = Y@CNT1 - 1;
     1078     3166    3         IF (Y@CNT1 <= 0) THEN DO;
     1079     3167
     1080     3168        /* WE FAILED ON FINDING A 0 IN KA_LCT_OTPASNRQS*                              */
     1081     3169
     1082     3170        /*E* ERROR: KAO-E$ASN_OTPASNRQSFAL                                         */
     1083     3171        /*E* MESSAGE: Asynchronous output request to MLCP failed                      */
     1084     3172        /*E* DESCRIPTION: We tried to do an asynchronous output operation through     */
     1085     3173        /*,* the MLCP and it was busy with another asynchronous operation.            */
     1086     3174
     1087     3175    3            IF %KH_CHN.BUG THEN GOTO POKE_IT;
     1088     3176    3            %KH_CHN.BUG = '1'B;
     1089     3177    3            Y@WRSYSLOG = FPT_WRSYSLOG_OTPASNRQSFAL;
     1090     3178    3            Y@WRSYSLOG.V.VALUES(0) = PRM_ASNRQS;
     1091     3179    3            Y@WRSYSLOG.V.VALUES(1) = KH@IO_INPLCTBYT.LCTBYT.DAT;
     1092     3180    3            ADDR(Y@WRSYSLOG.V.VALUES(2))->DW =
     1093     3181    3              PINCRW(ADDR(Y@CNT1),-14)->DW;
     1094     3182    3            CALL KHD$ERRLOG_SETTERMID_CHN (Y@WRSYSLOG, %KH_CHN);
     1095     3183    3            GOTO POKE_IT;
     1096     3184    3         END /* IF */;
     1097     3185
     1098     3186        /* SPIN FOR A WHILE ON FAILURE                                                */
     1099     3187
     1100     3188    3         DO Y@CNT2 = 0 TO 199; END;
     1101     3189    2      END LOOP;
     1102     3190    1      %KH_CHN.BUG = '0'B;
     1103     3191    1      KH@IO_OTPLCTBYT.LCTBYT.ADR = %KA_LCT_OTPASNRQS;
     1104     3192    1      KH@IO_OTPLCTBYT.LCTBYT.DAT = PRM_ASNRQS;
     1105     3193    1      CALL KHI$IO_OTPLCTBYT(%KH_CHN,KH@IO_OTPLCTBYT);
     1106     3194
     1107     3195        /* GET THE COMM LINE CONTROLLER GOING.                                        */
     1108     3196
     1109     3197    1   POKE_IT:;
     1110     3198    1      KH@IO_OTPLCTBYT.LCTBYT.ADR = %KW#TRNSTT;
PL6.E3A0      #007=KAO$ASNRQS File=KAO$OTP.:E05TSI                               WED 07/30/97 00:02 Page:164
     1111     3199    1      KH@IO_OTPLCTBYT.LCTBYT.DAT = BITBIN('1F'X);
     1112     3200    1      CALL KHI$IO_OTPLCTBYT(%KH_CHN,KH@IO_OTPLCTBYT);
     1113     3201    1      KH@IO_OTPLCTBYT.LCTBYT.ADR = %KW#TRNSTTMSK;
     1114     3202    1      KH@IO_OTPLCTBYT.LCTBYT.DAT = BITBIN('FF'X);
     1115     3203    1      CALL KHI$IO_OTPLCTBYT(%KH_CHN,KH@IO_OTPLCTBYT);
     1116     3204    1      IF %KH_CHN.BUG THEN ALTRETURN;
     1117     3205    1   END KAO$ASNRQS;
     1118     3206
     1119     3207        %EOD;

PL6.E3A0      #007=KAO$ASNRQS File=KAO$OTP.:E05TSI                               WED 07/30/97 00:02 Page:165
--  Include file information  --

   KA_PERR_C.:E05TOU  is referenced.
   KH$IO.:E05TOU  is referenced.
   KA_LCT_E.:E05TOU  is referenced.
   KW_ALCT_E.:E05TOU  is referenced.
   KW_LCT_E.:E05TOU  is referenced.
   GH_IOFNC_E.:E05TOU  is referenced.
   KH_CHN.:E05TOU  is referenced.
   KH$CHN.:E05TOU  is referenced.
   KV_INT_M.:E05TOU  is referenced.
   KV_GLB_M.:E05TOU  is referenced.
   KA_GLB_E.:E05TOU  is referenced.
   KA_GLB.:E05TOU  is referenced.
   KA$GLB.:E05TOU  is referenced.
   KV_GLBASM_E.:E05TOU  is referenced.
   KV_ASCCHR_E.:E05TOU  is referenced.
   LCP_6.:E05TOU  cannot be made into a system file and is referenced.
   KV_PRMID_E.:E05TOU  was found in the system file and is never referenced.
   KV_GLBCNS_E.:E05TOU  was found in the system file and is referenced.
   KV$VDO.:E05TOU  was found in the system file and is never referenced.
   KV$VDH.:E05TOU  was found in the system file and is never referenced.
   KV$USR.:E05TOU  was found in the system file and is never referenced.
   KV$SND.:E05TOU  was found in the system file and is never referenced.
   KV$INT.:E05TOU  was found in the system file and is never referenced.
   KV$GLBCTX.:E05TOU  was found in the system file and is referenced.
   KV$GLB.:E05TOU  was found in the system file and is referenced.
   G_LCP6_E.:E05TOU  was found in the system file and is referenced.
   GT_LCP6_M.:E05TOU  was found in the system file and is referenced.
   KI_CP6.:E05TOU  was found in the system file and is referenced.
   GF_LCP6_M.:E05TOU  was found in the system file and is referenced.
   GM_LCP6_M.:E05TOU  was found in the system file and is referenced.
   GU_LCP6_M.:E05TOU  was found in the system file and is referenced.
   GJ_LCP6_M.:E05TOU  was found in the system file and is referenced.
   GH_LCP6_M.:E05TOU  was found in the system file and is referenced.
      No diagnostics issued in procedure KAO$ASNRQS.
PL6.E3A0      #007=KAO$ASNRQS File=KAO$OTP.:E05TSI                               WED 07/30/97 00:02 Page:166

   Procedure KAO$ASNRQS requires 228 words for executable code.
   Procedure KAO$ASNRQS requires 44 words of local(AUTO) storage.

PL6.E3A0      #007=KAO$ASNRQS File=KAO$OTP.:E05TSI                               WED 07/30/97 00:02 Page:167

 Object Unit name= KAO$ASNRQS                                 File name= KAO$OTP.:E05TOU
 UTS= JUL 30 '97 00:02:29.48 WED                              Compiler= PL-6/E31         Sev=      00
 SharedLib= :SHARED_LCP6_SYSTEM                               Alt SharedLib=


    ****  Control sections  ****

 Sect   Type Bound  Init  Size HexSiz  Section name
    0  RoData even  UTS     25     19  KAO$ASNRQS
    1   Proc  even  none   228     E4  KAO$ASNRQS

    ****  Entry defs  ****

                              Check   Calling
                             calling  sequence
  Sect HexLoc Primary Altret sequence   type   Parms  Name
     1      0   yes    yes     yes      Std        3  KAO$ASNRQS
     1      E          yes     yes      Std        3  KAO$ASNRQSNO_CTX

  ****  Entry refs  ****

         Check        Calling
        calling       sequence
Altret sequence SRef   type   Args  Name
 yes     yes           Std       2 KHI$IO_INPLCTBYT
 yes     yes           Std       2 KHD$ERRLOG_SETTERMID_CHN
 yes     yes           Std       2 KHI$IO_OTPLCTBYT
                       nStd      0 X6A_AUTO_3
                       nStd      0 X6A_AALT
                       nStd      0 X6A_ARET
PL6.E3A0      #007=KAO$ASNRQS File=KAO$OTP.:E05TSI                               WED 07/30/97 00:02 Page:168

  ****  Data refs  ****

  Flags:  r = read only, s = secondary
Flgs Name                             Flgs Name                             Flgs Name
r    KH_CHNHI                         r    KH_CHNLOW                             KV$PTR$
r    G$ROS$
PL6.E3A0      #007=KAO$ASNRQS File=KAO$OTP.:E05TSI                               WED 07/30/97 00:02 Page:169


      964        1        /*T***********************************************************/
      965        2        /*T*                                                         */
      966        3        /*T* Copyright (c) Bull HN Information Systems Inc., 1997    */
      967        4        /*T*                                                         */
      968        5        /*T***********************************************************/
      969        6        /*X*     NSO,PLM=3,SQB=Y,AND=Y,ENI=0,SDI=3,MCL=10,CSI=0,ECI=0,IAD=3,IND=0 */
      970        7
      971        8
      972        9        KAO$ASNRQS: PROC (PRM_ASNRQS,PRM_OVRRIDASNRQS,CHN) ALTRET;

      9   1 000000  D380 0000 0000  xent KAO$ASNRQS      LNJ,B5   X6A_AUTO_3
          1 000003       002C 0003                       DC       44,3

      973       10        %INCLUDE LCP_6;
      974      201        %INCLUDE KV_ASCCHR_E;                   /*  EQU'S FOR ASCII CHR'S             */
      975      338        %INCLUDE KV_GLBASM_E;
      976      356 S      %INCLUDE KV_GLBCNS_E;
      977      357        %KV_INPOPRX_E;
      978      369        %KV_STRTYP_E;
      979      407        %KV_VDH_FNC_E;
      980      427        %KV_SCHRSN_E;                           /*  Schedule reasons                  */
      981      434
      982      435 S      %INCLUDE KV$GLB;
      983      436 S      %INCLUDE KV$GLBCTX;
      984      437        %INCLUDE KA$GLB;
      985      578        %INCLUDE KA_GLB;
      986      655        %INCLUDE KA_GLB_E;
      987      733        %KA_HLTOTP_E;
      988      742        %KA_MSC;
      989      764        %INCLUDE KV_GLB_M;                      /*  VDH-user macros                   */
      990      886        %INCLUDE KV_INT_M;                      /*  TRACE ROUTINES                    */
      991     1029        %INCLUDE KH$CHN;
      992     1151        %KH$CHN (STCLASS="BASED(BCHN$)");       /*  CHANNEL TABLES ITEM DEFINITONS    */
      993     1275        %EQU KH_CHN=CHARTEXT('KH$CHN');
      994     1276        %INCLUDE KH_CHN;
      995     1316        %KH_CHNDAT;                             /*  CHANNEL TABLES ITEM DEFINITONS    */
PL6.E3A0      #007=KAO$ASNRQS File=KAO$OTP.:E05TSI                               WED 07/30/97 00:02 Page:170
      996     1334        %INCLUDE GH_IOFNC_E;                    /*  IO FUNCTION CODES                 */
      997     1403        %INCLUDE KW_LCT_E;                      /*  MLCP LCT DEFINITIONS              */
      998     1758        %INCLUDE KW_ALCT_E;                     /*  MLCP ASYNC LCT DEFINITIONS        */
      999     1948        %INCLUDE KA_LCT_E;                      /*  MLCP ASYNC LCT DEFINITIONS        */
     1000     2072        %KV$PTR;                                /*  VDH Pointers, status              */
     1001     2115        %KV$VDI;                                /*  VDI (VDH < ->VDH user interface)  */
     1002     2186        %INCLUDE KH$IO;
     1003     2433        %KH$IO(FPTN=KH_IO_INPLCTBYT,FNC=%GH#IO_INPLCTBYT,OTPCHN=YES,STCLASS=CONSTANT);
     1004     2547        %KH$IO(FPTN=KH_IO_OTPLCTBYT,FNC=%GH#IO_OTPLCTBYT,OTPCHN=YES,STCLASS=CONSTANT);
     1005     2661        %KH$IO(FPTN=KH@IO_INPLCTBYT,FNC=%GH#IO_INPLCTBYT,OTPCHN=YES,STCLASS=AUTO);
     1006     2775        %KH$IO(FPTN=KH@IO_OTPLCTBYT,FNC=%GH#IO_OTPLCTBYT,OTPCHN=YES,STCLASS=AUTO);
     1007     2889
     1008     2890        %INCLUDE KA_PERR_C;
     1009     2909 S      %INCLUDE GT_LCP6_M;
     1010     2910       %FPT_WRSYSLOG (FPTN = FPT_WRSYSLOG_OTPASNRQSFAL, STCLASS = CONSTANT, FCG = KA, MID =
              2910            O, ERR = %E$ASN_OTPASNRQSFAL, SEV = 3);
     1011     3005
     1012     3006    1   DCL KHI$IO_INPLCTBYT ENTRY(2) ALTRET;
     1013     3007    1   DCL KHI$IO_OTPLCTBYT ENTRY(2) ALTRET;
     1014     3008    1   DCL KHD$ERRLOG_SETTERMID_CHN ENTRY(2) ALTRET;
     1015     3009
     1016     3010
     1017     3011
     1018     3012
     1019     3013
     1020     3014    1   DCL Y@CNT1 UBIN WORD;
     1021     3015    1   DCL Y@CNT2 UBIN WORD;
     1022     3016    1   DCL BCHN$ PTR;
     1023     3017    1   DCL CHN UBIN;                 /* Passed channel table entry if NO_CTX entry.  */
     1024     3018
     1025     3019    1   DCL PRM_ASNRQS UBIN;
     1026     3020    1   DCL PRM_OVRRIDASNRQS UBIN;
     1027     3021
     1028     3022        %FPT_WRSYSLOG (FPTN=Y@WRSYSLOG, STCLASS=AUTO);
     1029     3117    1   DCL DW UBIN(32) BASED ALIGNED;
     1030     3118
     1031     3119    1      BCHN$ = %KV_VDI.CHN$;
PL6.E3A0      #007=KAO$ASNRQS File=KAO$OTP.:E05TSI                               WED 07/30/97 00:02 Page:171

   3119   1 000005  EC80 0000 0000  xsym                 LDB,B6   KV$PTR$
          1 000008  DC86                                 LDB,B5   ,B6
          1 000009  CC85                                 LDB,B4   ,B5
          1 00000A  CFC7 0010                            STB,B4   BCHN$,AUTO

     1032     3120    1      GOTO SUB_COMMON;

   3120   1 00000C  0F81 000A                            B        s:3123,PREL

     1033     3121    1   KAO$ASNRQSNO_CTX: ENTRY (PRM_ASNRQS,PRM_OVRRIDASNRQS,CHN) ALTRET;

   3121   1 00000E  D380 0000 0000  xent KAO$ASNRQSNO_CTXLNJ,B5   X6A_AUTO_3
          1 000011       002C 0003                       DC       44,3

     1034     3122
     1035     3123    1      BCHN$ = ADDR(CHN);

   3123   1 000013  ECC7 0008                            LDB,B6   @CHN,AUTO
          1 000015  EFC7 0010                            STB,B6   BCHN$,AUTO

   3123   1                              SUB_COMMON      null
     1036     3124
     1037     3125    1   SUB_COMMON:;
     1038     3126        /**************************************************************************   */
     1039     3127        /***** THIS CODE MAY BE BEING EXECUTED WITHOUT A CONTEXT BLOCK. *****         */
     1040     3128        /***** BE CAREFUL ABOUT REFERENCES TO KA$CTX. *****                           */
     1041     3129        /**************************************************************************   */
     1042     3130    1      Y@CNT1 = 10;

   3130   1 000017  6C0A                 SUB_COMMON      LDV,R6   10
          1 000018  EF47 000E                            STR,R6   Y@CNT1,AUTO

     1043     3131    1      KH@IO_OTPLCTBYT = KH_IO_OTPLCTBYT;

   3131   1 00001A  8C80 0000 0002  00                   LDI      KH_IO_OTPLCTBYT
          1 00001D  8D47 000C                            SDI      KH@IO_OTPLCTBYT,AUTO
PL6.E3A0      #007=KAO$ASNRQS File=KAO$OTP.:E05TSI                               WED 07/30/97 00:02 Page:172

     1044     3132    2   LOOP: DO WHILE ('1'B);                  /* LOOP START                         */

   3132   1                              LOOP            null
     1045     3133
     1046     3134        /* THIS LOOP IS TRAVERSED FOR EACH ATTEMPT TO READ A 0 OUT OF                 */
     1047     3135        /* KA_LCT_OTPASNRQS IN THE COMM LINE CONTROLLER'S RAM. IF WE DON'T FIND A 0 AF*/
     1048     3136        /* A WHILE, GIVE UP.                                                          */
     1049     3137
     1050     3138    2         KH@IO_INPLCTBYT = KH_IO_INPLCTBYT;

   3138   1 00001F  8C80 0000 0000  00   LOOP            LDI      KH_IO_INPLCTBYT
          1 000022  8D47 000A                            SDI      KH@IO_INPLCTBYT,AUTO

     1051     3139    2         KH@IO_INPLCTBYT.LCTBYT.ADR = %KA_LCT_OTPASNRQS;

   3139   1 000024  5C17                                 LDV,R5   23
          1 000025  DAC7 000B                            SRM,R5,'00FF'X    KH@IO_INPLCTBYT+1,AUTO
          1 000027       00FF

     1052     3140    2         CALL KHI$IO_INPLCTBYT(%KH_CHN,KH@IO_INPLCTBYT)

   3140   1 000028  EBC7 000A                            LAB,B6   KH@IO_INPLCTBYT,AUTO
          1 00002A  EFC7 002A                            STB,B6   Y@WRSYSLOG+24,AUTO
          1 00002C  DCC7 0010                            LDB,B5   BCHN$,AUTO
          1 00002E  DFC7 0028                            STB,B5   Y@WRSYSLOG+22,AUTO
          1 000030  BBC7 0028                            LAB,B3   Y@WRSYSLOG+22,AUTO
          1 000032  CBF0 0200                            LAB,B4   512,IMO
          1 000034  E380 0000 0000  xent                 LNJ,B6   KHI$IO_INPLCTBYT
          1 000037       0003                            DC       s:3145,PREL
          1 000038  0F81 0004                            B        s:3147,PREL

     1053     3141    3         WHENALTRETURN DO;

     1054     3142
     1055     3143        /* WE GOT A NAK ON THE INPUT LCT BYTE (OR MAYBE OUTPUT LCT BYTE).             */
     1056     3144
PL6.E3A0      #007=KAO$ASNRQS File=KAO$OTP.:E05TSI                               WED 07/30/97 00:02 Page:173
     1057     3145    3            ALTRETURN;

   3145   1 00003A  C380 0000 0000  xent                 LNJ,B4   X6A_AALT

     1058     3146    3         END /* IF */;
     1059     3147    2         IF (KH@IO_INPLCTBYT.LCTBYT.DAT = 0) THEN EXIT LOOP;

   3147   1 00003D  E2C7 000B                            LLH,R6   KH@IO_INPLCTBYT+1,AUTO
          1 00003F  6901 004E                            BEZ,R6   s:3190,PREL

     1060     3148
     1061     3149        /* WE READ A 0 OUT OF KA_LCT_OTPASNRQS                                        */
     1062     3150
     1063     3151    3         ELSE IF (KH@IO_INPLCTBYT.LCTBYT.DAT = PRM_ASNRQS) THEN DO;

   3151   1 000041  ECC7 0004                            LDB,B6   @PRM_ASNRQS,AUTO
          1 000043  E906                                 CMR,R6   ,B6
          1 000044  0981 0003                            BNE      s:3157,PREL

     1064     3152
     1065     3153        /* THE MLCP IS ALREADY WORKING ON THIS TYPE OF OUTPUT                         */
     1066     3154        /* ASYNCHRONOUS REQUEST. IGNORE THIS ONE                                      */
     1067     3155
     1068     3156    3            GOTO POKE_IT;                  /* Just in case it's hung up          */

   3156   1 000046  0F81 0063                            B        s:3192,PREL

     1069     3157    2         END; ELSE IF (ADDR(PRM_OVRRIDASNRQS) ~= ADDR(NIL))

   3157   1 000048  DCC7 0006                            LDB,B5   @PRM_OVRRIDASNRQS,AUTO
          1 00004A  8DD5                                 CMN      B5
          1 00004B  0901 0004                            BE       s:3165,PREL

     1070     3158    2         THEN IF (KH@IO_INPLCTBYT.LCTBYT.DAT = PRM_OVRRIDASNRQS)

   3158   1 00004D  E905                                 CMR,R6   ,B5
          1 00004E  0901 003F                            BE       s:3190,PREL
PL6.E3A0      #007=KAO$ASNRQS File=KAO$OTP.:E05TSI                               WED 07/30/97 00:02 Page:174

     1071     3159
     1072     3160        /* The asynchronous request we're trying to communicate to the                */
     1073     3161        /* MLCP should over-ride the asynchronous request the MLCP is                 */
     1074     3162        /* currently waiting to do. Store the new request ID. .                       */
     1075     3163
     1076     3164    2         THEN EXIT LOOP;                   /* LOOK BELOW                         */
     1077     3165    2         Y@CNT1 = Y@CNT1 - 1;

   3165   1 000050  88C7 000E                            DEC      Y@CNT1,AUTO

     1078     3166    3         IF (Y@CNT1 <= 0) THEN DO;

   3166   1 000052  D847 000E                            LDR,R5   Y@CNT1,AUTO
          1 000054  5981 002E                            BNEZ,R5  s:3188,PREL

     1079     3167
     1080     3168        /* WE FAILED ON FINDING A 0 IN KA_LCT_OTPASNRQS*                              */
     1081     3169
     1082     3170        /*E* ERROR: KAO-E$ASN_OTPASNRQSFAL                                         */
     1083     3171        /*E* MESSAGE: Asynchronous output request to MLCP failed                      */
     1084     3172        /*E* DESCRIPTION: We tried to do an asynchronous output operation through     */
     1085     3173        /*,* the MLCP and it was busy with another asynchronous operation.            */
     1086     3174
     1087     3175    3            IF %KH_CHN.BUG THEN GOTO POKE_IT;

   3175   1 000056  CCC7 0010                            LDB,B4   BCHN$,AUTO
          1 000058  89C4 0009                            CMZ      9,B4
          1 00005A  0801 004F                            BAL      s:3192,PREL

     1088     3176    3            %KH_CHN.BUG = '1'B;

   3176   1 00005C  8944 0009                            LBT,'8000'X       9,B4
   3176   1 00005E       8000

     1089     3177    3            Y@WRSYSLOG = FPT_WRSYSLOG_OTPASNRQSFAL;

PL6.E3A0      #007=KAO$ASNRQS File=KAO$OTP.:E05TSI                               WED 07/30/97 00:02 Page:175
   3177   1 00005F  AB80 0000 0000  00                   LAB,B2   KH_IO_INPLCTBYT
          1 000062  2C08                                 LDV,R2   8
          1 000063  6C2A                                 LDV,R6   42
          1 000064  BB87                                 LAB,B3   ,AUTO
          1 000065  3C24                                 LDV,R3   36
          1 000066  0008                                 MMM

     1090     3178    3            Y@WRSYSLOG.V.VALUES(0) = PRM_ASNRQS;

   3178   1 000067  E806                                 LDR,R6   ,B6
          1 000068  EF47 0022                            STR,R6   Y@WRSYSLOG+16,AUTO

     1091     3179    3            Y@WRSYSLOG.V.VALUES(1) = KH@IO_INPLCTBYT.LCTBYT.DAT;

   3179   1 00006A  D2C7 000B                            LLH,R5   KH@IO_INPLCTBYT+1,AUTO
          1 00006C  DF47 0023                            STR,R5   Y@WRSYSLOG+17,AUTO

     1092     3180    3            ADDR(Y@WRSYSLOG.V.VALUES(2))->DW =

   3180   1 00006E  8C87                                 LDI      ,AUTO
          1 00006F  8D47 0024                            SDI      Y@WRSYSLOG+18,AUTO

     1093     3181    3              PINCRW(ADDR(Y@CNT1),-14)->DW;
     1094     3182    3            CALL KHD$ERRLOG_SETTERMID_CHN (Y@WRSYSLOG, %KH_CHN);

   3182   1 000071  CCC7 0010                            LDB,B4   BCHN$,AUTO
          1 000073  CFC7 002A                            STB,B4   Y@WRSYSLOG+24,AUTO
          1 000075  ABC7 0012                            LAB,B2   Y@WRSYSLOG,AUTO
          1 000077  AFC7 0028                            STB,B2   Y@WRSYSLOG+22,AUTO
          1 000079  BBC7 0028                            LAB,B3   Y@WRSYSLOG+22,AUTO
          1 00007B  CBF0 0200                            LAB,B4   512,IMO
          1 00007D  E380 0000 0000  xent                 LNJ,B6   KHD$ERRLOG_SETTERMID_CHN
          1 000080       0001                            DC       s:3183,PREL

     1095     3183    3            GOTO POKE_IT;

   3183   1 000081  0F81 0028                            B        s:3192,PREL
PL6.E3A0      #007=KAO$ASNRQS File=KAO$OTP.:E05TSI                               WED 07/30/97 00:02 Page:176

     1096     3184    3         END /* IF */;
     1097     3185
     1098     3186        /* SPIN FOR A WHILE ON FAILURE                                                */
     1099     3187
     1100     3188    3         DO Y@CNT2 = 0 TO 199; END;

   3188   1 000083  8747 000F                            CL       Y@CNT2,AUTO

   3188   1 000085  8AC7 000F                            INC      Y@CNT2,AUTO
          1 000087  E847 000F                            LDR,R6   Y@CNT2,AUTO
          1 000089  E970 00C7                            CMR,R6   199,IMO
          1 00008B  03FA                                 BLE      s:3188+2,SPREL

     1101     3189    2      END LOOP;

   3189   1 00008C  0F81 FF92                            B        s:3132,PREL

     1102     3190    1      %KH_CHN.BUG = '0'B;

   3190   1 00008E  ECC7 0010                            LDB,B6   BCHN$,AUTO
          1 000090  8846 0009                            LBF,'8000'X       9,B6
          1 000092       8000

     1103     3191    1      KH@IO_OTPLCTBYT.LCTBYT.ADR = %KA_LCT_OTPASNRQS;

   3191   1 000093  6C17                                 LDV,R6   23
          1 000094  EAC7 000D                            SRM,R6,'00FF'X    KH@IO_OTPLCTBYT+1,AUTO
          1 000096       00FF

     1104     3192    1      KH@IO_OTPLCTBYT.LCTBYT.DAT = PRM_ASNRQS;

   3192   1 000097  DCC7 0004                            LDB,B5   @PRM_ASNRQS,AUTO
          1 000099  D805                                 LDR,R5   ,B5
          1 00009A  D7C7 000D                            STH,R5   KH@IO_OTPLCTBYT+1,AUTO

     1105     3193    1      CALL KHI$IO_OTPLCTBYT(%KH_CHN,KH@IO_OTPLCTBYT);
PL6.E3A0      #007=KAO$ASNRQS File=KAO$OTP.:E05TSI                               WED 07/30/97 00:02 Page:177

   3193   1 00009C  CBC7 000C                            LAB,B4   KH@IO_OTPLCTBYT,AUTO
          1 00009E  CFC7 002A                            STB,B4   Y@WRSYSLOG+24,AUTO
          1 0000A0  EFC7 0028                            STB,B6   Y@WRSYSLOG+22,AUTO
          1 0000A2  BBC7 0028                            LAB,B3   Y@WRSYSLOG+22,AUTO
          1 0000A4  CBF0 0200                            LAB,B4   512,IMO
          1 0000A6  E380 0000 0000  xent                 LNJ,B6   KHI$IO_OTPLCTBYT
          1 0000A9       0001                            DC       s:3192,PREL

   3192   1                              POKE_IT         null
     1106     3194
     1107     3195        /* GET THE COMM LINE CONTROLLER GOING.                                        */
     1108     3196
     1109     3197    1   POKE_IT:;
     1110     3198    1      KH@IO_OTPLCTBYT.LCTBYT.ADR = %KW#TRNSTT;

   3198   1 0000AA  6C2E                 POKE_IT         LDV,R6   46
          1 0000AB  EAC7 000D                            SRM,R6,'00FF'X    KH@IO_OTPLCTBYT+1,AUTO
          1 0000AD       00FF

     1111     3199    1      KH@IO_OTPLCTBYT.LCTBYT.DAT = BITBIN('1F'X);

   3199   1 0000AE  5C1F                                 LDV,R5   31
          1 0000AF  D7C7 000D                            STH,R5   KH@IO_OTPLCTBYT+1,AUTO

     1112     3200    1      CALL KHI$IO_OTPLCTBYT(%KH_CHN,KH@IO_OTPLCTBYT);

   3200   1 0000B1  EBC7 000C                            LAB,B6   KH@IO_OTPLCTBYT,AUTO
          1 0000B3  EFC7 002A                            STB,B6   Y@WRSYSLOG+24,AUTO
          1 0000B5  DCC7 0010                            LDB,B5   BCHN$,AUTO
          1 0000B7  DFC7 0028                            STB,B5   Y@WRSYSLOG+22,AUTO
          1 0000B9  BBC7 0028                            LAB,B3   Y@WRSYSLOG+22,AUTO
          1 0000BB  CBF0 0200                            LAB,B4   512,IMO
          1 0000BD  E380 0000 0000  xent                 LNJ,B6   KHI$IO_OTPLCTBYT
          1 0000C0       0001                            DC       s:3201,PREL

     1113     3201    1      KH@IO_OTPLCTBYT.LCTBYT.ADR = %KW#TRNSTTMSK;
PL6.E3A0      #007=KAO$ASNRQS File=KAO$OTP.:E05TSI                               WED 07/30/97 00:02 Page:178

   3201   1 0000C1  6C2F                                 LDV,R6   47
          1 0000C2  EAC7 000D                            SRM,R6,'00FF'X    KH@IO_OTPLCTBYT+1,AUTO
          1 0000C4       00FF

     1114     3202    1      KH@IO_OTPLCTBYT.LCTBYT.DAT = BITBIN('FF'X);

   3202   1 0000C5  8947 000D                            LBT,'FF00'X       KH@IO_OTPLCTBYT+1,AUTO
   3202   1 0000C7       FF00

     1115     3203    1      CALL KHI$IO_OTPLCTBYT(%KH_CHN,KH@IO_OTPLCTBYT);

   3203   1 0000C8  EBC7 000C                            LAB,B6   KH@IO_OTPLCTBYT,AUTO
          1 0000CA  EFC7 002A                            STB,B6   Y@WRSYSLOG+24,AUTO
          1 0000CC  DCC7 0010                            LDB,B5   BCHN$,AUTO
          1 0000CE  DFC7 0028                            STB,B5   Y@WRSYSLOG+22,AUTO
          1 0000D0  BBC7 0028                            LAB,B3   Y@WRSYSLOG+22,AUTO
          1 0000D2  CBF0 0200                            LAB,B4   512,IMO
          1 0000D4  E380 0000 0000  xent                 LNJ,B6   KHI$IO_OTPLCTBYT
          1 0000D7       0001                            DC       s:3204,PREL

     1116     3204    1      IF %KH_CHN.BUG THEN ALTRETURN;

   3204   1 0000D8  ECC7 0010                            LDB,B6   BCHN$,AUTO
          1 0000DA  89C6 0009                            CMZ      9,B6
          1 0000DC  0881 0004                            BAGE     s:3205,PREL

   3204   1 0000DE  C380 0000 0000  xent                 LNJ,B4   X6A_AALT

     1117     3205    1   END KAO$ASNRQS;

   3205   1 0000E1  C380 0000 0000  xent                 LNJ,B4   X6A_ARET
     1118     3206
     1119     3207        %EOD;

PL6.E3A0      #007=KAO$ASNRQS File=KAO$OTP.:E05TSI                               WED 07/30/97 00:02 Page:179
--  Include file information  --

   KA_PERR_C.:E05TOU  is referenced.
   KH$IO.:E05TOU  is referenced.
   KA_LCT_E.:E05TOU  is referenced.
   KW_ALCT_E.:E05TOU  is referenced.
   KW_LCT_E.:E05TOU  is referenced.
   GH_IOFNC_E.:E05TOU  is referenced.
   KH_CHN.:E05TOU  is referenced.
   KH$CHN.:E05TOU  is referenced.
   KV_INT_M.:E05TOU  is referenced.
   KV_GLB_M.:E05TOU  is referenced.
   KA_GLB_E.:E05TOU  is referenced.
   KA_GLB.:E05TOU  is referenced.
   KA$GLB.:E05TOU  is referenced.
   KV_GLBASM_E.:E05TOU  is referenced.
   KV_ASCCHR_E.:E05TOU  is referenced.
   LCP_6.:E05TOU  cannot be made into a system file and is referenced.
   KV_PRMID_E.:E05TOU  was found in the system file and is never referenced.
   KV_GLBCNS_E.:E05TOU  was found in the system file and is referenced.
   KV$VDO.:E05TOU  was found in the system file and is never referenced.
   KV$VDH.:E05TOU  was found in the system file and is never referenced.
   KV$USR.:E05TOU  was found in the system file and is never referenced.
   KV$SND.:E05TOU  was found in the system file and is never referenced.
   KV$INT.:E05TOU  was found in the system file and is never referenced.
   KV$GLBCTX.:E05TOU  was found in the system file and is referenced.
   KV$GLB.:E05TOU  was found in the system file and is referenced.
   G_LCP6_E.:E05TOU  was found in the system file and is referenced.
   GT_LCP6_M.:E05TOU  was found in the system file and is referenced.
   KI_CP6.:E05TOU  was found in the system file and is referenced.
   GF_LCP6_M.:E05TOU  was found in the system file and is referenced.
   GM_LCP6_M.:E05TOU  was found in the system file and is referenced.
   GU_LCP6_M.:E05TOU  was found in the system file and is referenced.
   GJ_LCP6_M.:E05TOU  was found in the system file and is referenced.
   GH_LCP6_M.:E05TOU  was found in the system file and is referenced.
      No diagnostics issued in procedure KAO$ASNRQS.
PL6.E3A0      #007=KAO$ASNRQS File=KAO$OTP.:E05TSI                               WED 07/30/97 00:02 Page:180

 **** Variables and constants ****

  ****  Section 000 RoData KAO$ASNRQS

  ****  Scalars and arrays  ****
HexLoc.c.b A Datatyp(siz) R M Lvl/name                 HexLoc.c.b A Datatyp(siz) R M Lvl/name

     4-0-0/w STRC(336)   r     1 FPT_WRSYSLOG_OTPASNRQSFAL
     0-0-0/w STRC(32)    r     1 KH_IO_INPLCTBYT            2-0-0/w STRC(32)    r     1 KH_IO_OTPLCTBYT

  ****  Auto variables  ****

  ****  Scalars and arrays  ****
HexLoc.c.b A Datatyp(siz) R M Lvl/name                 HexLoc.c.b A Datatyp(siz) R M Lvl/name

     8-0-0/w PTR         r     1 @CHN                       4-0-0/w PTR         r     1 @PRM_ASNRQS
     6-0-0/w PTR         r     1 @PRM_OVRRIDASNRQS         10-0-0/w PTR         r     1 BCHN$
    *0-0-0/w UBIN(16)    r     1 CHN                        A-0-0/w STRC(32)    r     1 KH@IO_INPLCTBYT
     C-0-0/w STRC(32)    r     1 KH@IO_OTPLCTBYT           *0-0-0/w UBIN(16)    r     1 PRM_ASNRQS
    *0-0-0/w UBIN(16)    r     1 PRM_OVRRIDASNRQS           E-0-0/w UBIN(16)    r     1 Y@CNT1
     F-0-0/w UBIN(16)    r     1 Y@CNT2                    12-0-0/w STRC(336)   r     1 Y@WRSYSLOG

  ****  SYMREF variables  ****

  ****  Scalars and arrays  ****
HexLoc.c.b A Datatyp(siz) R M Lvl/name                 HexLoc.c.b A Datatyp(siz) R M Lvl/name

     0-0-0/w PTR         r     1 KV$PTR$

  ****  BASED and DCB variables  ****

  ****  Scalars and arrays  ****
HexLoc.c.b A Datatyp(siz) R M Lvl/name                 HexLoc.c.b A Datatyp(siz) R M Lvl/name

     0-0-0/w UBIN(32)    r     1 DW                         0-0-0/w STRC(512)   r     1 KH$CHN
     0-0-0/w STRC(480)   r     1 KV$PTR                     0-0-0/w STRC(512)   r     1 KV$VDI

PL6.E3A0      #007=KAO$ASNRQS File=KAO$OTP.:E05TSI                               WED 07/30/97 00:02 Page:181

   Procedure KAO$ASNRQS requires 228 words for executable code.
   Procedure KAO$ASNRQS requires 44 words of local(AUTO) storage.
PL6.E3A0      #007=KAO$ASNRQS File=KAO$OTP.:E05TSI                               WED 07/30/97 00:02 Page:182
          *** CROSS REFERENCE LISTING ***
**     DENOTES     IDENTIFIER DEFINITION
<<                 IDENTIFIER'S VALUE SET
>>                 IDENTIFIER'S VALUE USED
<>                 IDENTIFIER SET AND/OR USED
--                 IDENTIFIER REFERENCED
PL6.E3A0      #007=KAO$ASNRQS File=KAO$OTP.:E05TSI                               WED 07/30/97 00:02 Page:183
          MINI XREF LISTING

BCHN$
      3016**DCL      1166--IMP-PTR  3119<<ASSIGN   3123<<ASSIGN   3140>>CALL     3175>>IF       3176>>ASSIGN
      3182>>CALL     3190>>ASSIGN   3193>>CALL     3200>>CALL     3203>>CALL     3204>>IF
CHN
      3017**DCL         9--PROC     3121--ENTRY    3123--ASSIGN
DW
      3117**DCL      3180<<ASSIGN   3180>>ASSIGN
FPT_WRSYSLOG_OTPASNRQSFAL
      2923**DCL      3177>>ASSIGN
FPT_WRSYSLOG_OTPASNRQSFAL.V
      2927**DCL      2925--DCLINIT
FPT_WRSYSLOG_OTPASNRQSFAL.V.TERMID.TERM
      2992**DCL      3001--REDEF
KH$CHN
      1166**DCL      3140<>CALL     3182<>CALL     3193<>CALL     3200<>CALL     3203<>CALL
KH$CHN.BUG
      1224**DCL      3175>>IF       3176<<ASSIGN   3190<<ASSIGN   3204>>IF
KH$CHN.TERMID.TERM
      1262**DCL      1271--REDEF
KH@IO_INPLCTBYT
      2673**DCL      3138<<ASSIGN   3140<>CALL
KH@IO_INPLCTBYT.ASNSTT
      2682**DCL      2683--REDEF    2689--REDEF    2694--REDEF    2698--REDEF    2702--REDEF    2706--REDEF
      2713--REDEF    2719--REDEF    2725--REDEF    2730--REDEF    2737--REDEF    2740--REDEF    2744--REDEF
      2751--REDEF    2755--REDEF    2759--REDEF    2763--REDEF    2768--REDEF    2772--REDEF
KH@IO_INPLCTBYT.LCTBYT.ADR
      2689**DCL      3139<<ASSIGN
KH@IO_INPLCTBYT.LCTBYT.DAT
      2689**DCL      3147>>IF       3151>>IF       3158>>IF       3179>>ASSIGN
KH@IO_OTPLCTBYT
      2787**DCL      3131<<ASSIGN   3193<>CALL     3200<>CALL     3203<>CALL
KH@IO_OTPLCTBYT.ASNSTT
PL6.E3A0      #007=KAO$ASNRQS File=KAO$OTP.:E05TSI                               WED 07/30/97 00:02 Page:184
      2796**DCL      2797--REDEF    2803--REDEF    2808--REDEF    2812--REDEF    2816--REDEF    2820--REDEF
      2827--REDEF    2833--REDEF    2839--REDEF    2844--REDEF    2851--REDEF    2854--REDEF    2858--REDEF
      2865--REDEF    2869--REDEF    2873--REDEF    2877--REDEF    2882--REDEF    2886--REDEF
KH@IO_OTPLCTBYT.LCTBYT.ADR
      2803**DCL      3191<<ASSIGN   3198<<ASSIGN   3201<<ASSIGN
KH@IO_OTPLCTBYT.LCTBYT.DAT
      2803**DCL      3192<<ASSIGN   3199<<ASSIGN   3202<<ASSIGN
KHD$ERRLOG_SETTERMID_CHN
      3008**DCL-ENT  3182--CALL
KHI$IO_INPLCTBYT
      3006**DCL-ENT  3140--CALL
KHI$IO_OTPLCTBYT
      3007**DCL-ENT  3193--CALL     3200--CALL     3203--CALL
KH_CHNHI
      1329**DCL      1330--REDEF
KH_CHNLOW
      1330**DCL      1331--REDEF
KH_IO_INPLCTBYT
      2445**DCL      3138>>ASSIGN
KH_IO_OTPLCTBYT
      2559**DCL      3131>>ASSIGN
KV$PTR.INPCNDPND
      2099**DCL      2108--REDEF    2112--REDEF
KV$PTR.LINLST$
      2095**DCL      2096--REDEF
KV$PTR.VDI$
      2093**DCL      3119>>ASSIGN
KV$PTR$
      2087**DCL      2093--IMP-PTR  3119>>ASSIGN
KV$VDI.CHN$
      2136**DCL      3119>>ASSIGN
LOOP
      3132**LABEL    3147--EXIT     3164--EXIT
POKE_IT
      3192**LABEL    3156--GOTO     3175--GOTO     3183--GOTO
PRM_ASNRQS
PL6.E3A0      #007=KAO$ASNRQS File=KAO$OTP.:E05TSI                               WED 07/30/97 00:02 Page:185
      3019**DCL         9--PROC     3121--ENTRY    3151>>IF       3178>>ASSIGN   3192>>ASSIGN
PRM_OVRRIDASNRQS
      3020**DCL         9--PROC     3121--ENTRY    3157--IF       3158>>IF
SUB_COMMON
      3123**LABEL    3120--GOTO
Y@CNT1
      3014**DCL      3130<<ASSIGN   3165<<ASSIGN   3165>>ASSIGN   3166>>IF       3180--ASSIGN
Y@CNT2
      3015**DCL      3188<<DOINDEX
Y@WRSYSLOG
      3035**DCL      3177<<ASSIGN   3182<>CALL
Y@WRSYSLOG.V.TERMID.TERM
      3104**DCL      3113--REDEF
Y@WRSYSLOG.V.VALUES
      3115**DCL      3178<<ASSIGN   3179<<ASSIGN   3180--ASSIGN

PL6.E3A0      #008=KAO$SNCFLWCTRHLT File=KAO$OTP.:E05TSI                         WED 07/30/97 00:03 Page:186
     1120        1        /*T***********************************************************/
     1121        2        /*T*                                                         */
     1122        3        /*T* Copyright (c) Bull HN Information Systems Inc., 1997    */
     1123        4        /*T*                                                         */
     1124        5        /*T***********************************************************/
     1125        6        /*X*     NSO,PLM=3,SQB=Y,AND=Y,ENI=0,SDI=3,MCL=10,CSI=0,ECI=0,IAD=3,IND=0 */
     1126        7
     1127        8
     1128        9        KAO$SNCFLWCTRHLT: PROC (PARM);
     1129       10        %INCLUDE LCP_6;
     1130      201        %INCLUDE KL_MACRO_C;                    /* For KA_STT/KV$STT                  */
     1131     3553        %INCLUDE KL_AFCN_C;                     /* For KA_STT/KV$STT                  */
     1132     3654        %INCLUDE K_ID_E;                        /* For KA_STT/KV$STT                  */
     1133     3704         %K#ENTID_E;                            /* For KA_STT/KV$STT                  */
     1134     3723         %K#LYRID_E;                            /* For KA_STT/KV$STT                  */
     1135     3730        %INCLUDE KH$STT;                        /* For KA_STT                         */
     1136     3760        %INCLUDE KV$BPC;
     1137     3789        %INCLUDE KH$CHN;
     1138     3911        %KH$CHN;                                /*  CHANNEL TABLES ITEM DEFINITONS    */
     1139     4035        %INCLUDE KH_CHN;
     1140     4075        %KH_CHNDAT;                             /*  CHANNEL TABLES ITEM DEFINITONS    */
     1141     4093 S      %INCLUDE KV$GLB;
     1142     4094        %INCLUDE KV_ASCCHR_E;
     1143     4231 S      %INCLUDE KV_GLBCNS_E;
     1144     4232 S      %INCLUDE KV$GLBCTX;
     1145     4233
     1146     4234        %INCLUDE KV_GLB_M;
     1147     4356        %INCLUDE KA$GLB;
     1148     4497        %INCLUDE KA_GLB;
     1149     4574        %INCLUDE KA_GLB_E;
     1150     4652        %KA_HLTOTP_E;
     1151     4661        %KA_STT;                                /*  STATISTICS                        */
     1152     5024        %KA_MSC;
     1153     5046 S      %INCLUDE KV$VDH;
     1154     5047        %KA$CTX;                           /*  ASYNC CONTEXT BLOCK ITEM DEFINITIONS   */
     1155     5171        %KA$OTPBFR;                             /*  ASYNC output buffer               */
     1156     5199        %KV$SSN;                                /*  VDH Session                       */
PL6.E3A0      #008=KAO$SNCFLWCTRHLT File=KAO$OTP.:E05TSI                         WED 07/30/97 00:03 Page:187
     1157     5278        %KV$STT (NAME = KV_STT, STCLASS = SYMREF);
     1158     5672        %KV$PTR;                                /*  VDH Pointers, status              */
     1159     5715        %KV$VDI;                                /*  VDI (VDH < ->VDH user interface)  */
     1160     5786        %KV$MRD;                                /* MASTER REAL DEVICE                 */
     1161     5833        %KV$ERD;                                /* EXTENDED REAL DEVICE               */
     1162     5917
     1163     5918    1   DCL KAV$VDI ENTRY(1) ALTRET;
     1164     5919    1   DCL KAO$OTPBNRCHR ENTRY(1);
     1165     5920    1   DCL KAO$TRNOTPIOLD ENTRY;
     1166     5921    1   DCL FLWBYT UBIN;
     1167     5922    1   DCL PARM1 UBIN;
     1168     5923    1   DCL PARM UBIN;
     1169     5924        %KV$USR_GETOTPBFR (NAME=KV_USR_GETOTPBFR, STCLASS=SYMREF READONLY);
     1170     5959    1   DCL Y$BYT(0:0) UBIN BYTE BASED CALIGNED;
     1171     5960
     1172     5961
     1173     5962    1      %KV_VDI.TMPOTPCHRCNT = 1;            /* (counting this one)                */
     1174     5963    2      IF (%KV_ERD.DVCOTPBFRSIZ >= 10) THEN DO;
     1175     5964
     1176     5965        /* THE OUTPUT BUFFER IN THE DEVICE IS REASONABLY LARGE.                       */
     1177     5966        /* DO FLOW CONTROL FOR THE DEVICE.                                            */
     1178     5967
     1179     5968    2         %KA_CTX.OTPCHRCNTUTLHLT = %KV_ERD.DVCOTPBFRSIZ;
     1180     5969    2      END; ELSE DO;
     1181     5970
     1182     5971        /* THE DECLARED SIZE OF THE OUTPUT BUFFER IN THE DEVICE ISN'T                 */
     1183     5972        /* REASONABLY LARGE. IT'S PROBABLY MISDECLARED. WE CAN'T USE IT.              */
     1184     5973
     1185     5974    2         %KA_CTX.OTPCHRCNTUTLHLT = 256;
     1186     5975    2      END /* IF */;
     1187     5976    1      FLWBYT = KA_DVCFLWCTRCHR(%KV_MRD.DVCFLWCTRALG);
     1188     5977    1      CALL Y$SNDBYT;
     1189     5978    1      PARM1 = %KA#HLTOTP_DVCX;
     1190     5979    1      GOTO SUB_COMMON;
     1191     5980    1   KAO$SNCHLTOTP: ENTRY (PARM);
     1192     5981    1      PARM1 = PARM;
     1193     5982    1   SUB_COMMON:;
PL6.E3A0      #008=KAO$SNCFLWCTRHLT File=KAO$OTP.:E05TSI                         WED 07/30/97 00:03 Page:188
     1194     5983    2      IF (%KV_SSN.USRHLTINH AND (PARM1 = %KA#HLTOTP_USRX)) THEN DO;
     1195     5984
     1196     5985        /* THIS IS A USER OUTPUT HALT REQUEST, AND USER HALTS ARE INHIBITED.          */
     1197     5986
     1198     5987    2         RETURN;
     1199     5988    2      END /* IF */;
     1200     5989    1      IF (%KV_VDI.HALFDUPLEXPAPERTAPE OR %KV_VDI.FULLDUPLEXPAPERTAPE)
     1201     5990    2        AND NOT %KV_SSN.REDRQSPND THEN DO;
     1202     5991    2         FLWBYT = BITBIN(%ASCIIDC1);
     1203     5992    2         CALL Y$SNDBYT;
     1204     5993    1      END; ELSE FLWBYT = 0;
     1205     5994    1      CALL KAO$TRNOTPIOLD;
     1206     5995    2      IF (%KA_CTX.OTPBFRTAL$ ~= ADDR(NIL)) THEN DO;
     1207     5996
     1208     5997        /* WE HAVE AN OUTPUT BUFFER CHAIN* SET THE HALT BIT IN THE NEXT OUTPUT BUFFER */
     1209     5998
     1210     5999    2         %KA_CTX.HLTOTPNXTBFR.BITT(PARM1) = '1'B;
     1211     6000    2      END; ELSE DO;
     1212     6001
     1213     6002        /* THERE IS NO OUTPUT BUFFER CHAIN* OUTPUT IS CURRENTLY HALTED.               */
     1214     6003
     1215     6004    2         %KA_CTX.HLTOTP.BITT(PARM1) = '1'B;
     1216     6005    2      END /* IF */;
     1217     6006    2      IF FLWBYT~=0 THEN DO;
     1218     6007    2         FLWBYT = BITBIN(%ASCIIDC3);
     1219     6008    2         CALL Y$SNDBYT;
     1220     6009    2      END;
     1221     6010    1      RETURN;
     1222     6011
     1223     6012    1   Y$SNDBYT: PROC;
     1224     6013
     1225     6014    3      IF %KV_VDI.OTPBFR_.BYTSIZ=0 THEN DO;
     1226     6015    4         CALL KAV$VDI (KV_USR_GETOTPBFR) WHENALTRETURN DO;
     1227     6016    4            RETURN;
     1228     6017    4         END;
     1229     6018    3      END;
     1230     6019
PL6.E3A0      #008=KAO$SNCFLWCTRHLT File=KAO$OTP.:E05TSI                         WED 07/30/97 00:03 Page:189
     1231     6020    2      %KV_SSN.OTPCHRCNT = %KV_SSN.OTPCHRCNT+1;
     1232     6021    2      KV_STT.OTPCHRCNT = KV_STT.OTPCHRCNT+1;
     1233     6022
     1234     6023    2      %KV_VDI.OTPBFR_.ADR$->Y$BYT(%KV_VDI.OTPBFR_.BYTX) = FLWBYT;
     1235     6024    2      %KV_VDI.OTPBFR_.BYTX = %KV_VDI.OTPBFR_.BYTX+1;
     1236     6025    2      %KV_VDI.OTPBFR_.BYTSIZ = %KV_VDI.OTPBFR_.BYTSIZ-1;
     1237     6026    2      RETURN;
     1238     6027    2   END Y$SNDBYT;
     1239     6028    1   END KAO$SNCFLWCTRHLT;
     1240     6029
     1241     6030        %EOD;

PL6.E3A0      #008=KAO$SNCFLWCTRHLT File=KAO$OTP.:E05TSI                         WED 07/30/97 00:03 Page:190
--  Include file information  --

   KA_GLB_E.:E05TOU  is referenced.
   KA_GLB.:E05TOU  is referenced.
   KA$GLB.:E05TOU  is referenced.
   KV_GLB_M.:E05TOU  is referenced.
   KV_ASCCHR_E.:E05TOU  is referenced.
   KH_CHN.:E05TOU  is referenced.
   KH$CHN.:E05TOU  is referenced.
   KV$BPC.:E05TOU  is referenced.
   KH$STT.:E05TOU  is referenced.
   K_ID_E.:E05TOU  is referenced.
   KL_AFCN_C.:E05TOU  is referenced.
   KL_MACRO_C.:E05TOU  is referenced.
   LCP_6.:E05TOU  cannot be made into a system file and is referenced.
   KV_PRMID_E.:E05TOU  was found in the system file and is never referenced.
   KV_GLBCNS_E.:E05TOU  was found in the system file and is referenced.
   KV$VDO.:E05TOU  was found in the system file and is never referenced.
   KV$VDH.:E05TOU  was found in the system file and is referenced.
   KV$USR.:E05TOU  was found in the system file and is never referenced.
   KV$SND.:E05TOU  was found in the system file and is never referenced.
   KV$INT.:E05TOU  was found in the system file and is never referenced.
   KV$GLBCTX.:E05TOU  was found in the system file and is referenced.
   KV$GLB.:E05TOU  was found in the system file and is referenced.
   G_LCP6_E.:E05TOU  was found in the system file and is referenced.
   GT_LCP6_M.:E05TOU  was found in the system file and is referenced.
   KI_CP6.:E05TOU  was found in the system file and is referenced.
   GF_LCP6_M.:E05TOU  was found in the system file and is referenced.
   GM_LCP6_M.:E05TOU  was found in the system file and is referenced.
   GU_LCP6_M.:E05TOU  was found in the system file and is referenced.
   GJ_LCP6_M.:E05TOU  was found in the system file and is referenced.
   GH_LCP6_M.:E05TOU  was found in the system file and is referenced.
      No diagnostics issued in procedure KAO$SNCFLWCTRHLT.

   Procedure KAO$SNCFLWCTRHLT requires 210 words for executable code.
   Procedure KAO$SNCFLWCTRHLT requires 10 words of local(AUTO) storage.
PL6.E3A0      #008=KAO$SNCFLWCTRHLT File=KAO$OTP.:E05TSI                         WED 07/30/97 00:03 Page:191

PL6.E3A0      #008=KAO$SNCFLWCTRHLT File=KAO$OTP.:E05TSI                         WED 07/30/97 00:03 Page:192

 Object Unit name= KAO$SNCFLWCTRHLT                           File name= KAO$OTP.:E05TOU
 UTS= JUL 30 '97 00:03:19.00 WED                              Compiler= PL-6/E31         Sev=      00
 SharedLib= :SHARED_LCP6_SYSTEM                               Alt SharedLib=


    ****  Control sections  ****

 Sect   Type Bound  Init  Size HexSiz  Section name
    0   Proc  even  none   210     D2  KAO$SNCFLWCTRHLT
    1  RoData even  none     2      2  KAO$SNCFLWCTRHLT

    ****  Entry defs  ****

                              Check   Calling
                             calling  sequence
  Sect HexLoc Primary Altret sequence   type   Parms  Name
     0      0   yes            yes      Std        1  KAO$SNCFLWCTRHLT
     0     36                  yes      Std        1  KAO$SNCHLTOTP

  ****  Entry refs  ****

         Check        Calling
        calling       sequence
Altret sequence SRef   type   Args  Name
         yes           Std       0 KAO$TRNOTPIOLD
 yes     yes           Std       1 KAV$VDI
                       nStd      0 X6A_AUTO_1
                       nStd      0 X6A_ARET

  ****  Data refs  ****

  Flags:  r = read only, s = secondary
Flgs Name                             Flgs Name                             Flgs Name
r    KH_CHNHI                         r    KH_CHNLOW                             KA_DVCFLWCTRCHR
     KV_STT                                KV$PTR$                          r    KV_USR_GETOTPBFR
r    G$ROS$
PL6.E3A0      #008=KAO$SNCFLWCTRHLT File=KAO$OTP.:E05TSI                         WED 07/30/97 00:03 Page:193


     1120        1        /*T***********************************************************/
     1121        2        /*T*                                                         */
     1122        3        /*T* Copyright (c) Bull HN Information Systems Inc., 1997    */
     1123        4        /*T*                                                         */
     1124        5        /*T***********************************************************/
     1125        6        /*X*     NSO,PLM=3,SQB=Y,AND=Y,ENI=0,SDI=3,MCL=10,CSI=0,ECI=0,IAD=3,IND=0 */
     1126        7
     1127        8
     1128        9        KAO$SNCFLWCTRHLT: PROC (PARM);

      9   0 000000  D380 0000 0000  xent KAO$SNCFLWCTRHLTLNJ,B5   X6A_AUTO_1
          0 000003       000A 0001                       DC       10,1

     1129       10        %INCLUDE LCP_6;
     1130      201        %INCLUDE KL_MACRO_C;                    /* For KA_STT/KV$STT                  */
     1131     3553        %INCLUDE KL_AFCN_C;                     /* For KA_STT/KV$STT                  */
     1132     3654        %INCLUDE K_ID_E;                        /* For KA_STT/KV$STT                  */
     1133     3704         %K#ENTID_E;                            /* For KA_STT/KV$STT                  */
     1134     3723         %K#LYRID_E;                            /* For KA_STT/KV$STT                  */
     1135     3730        %INCLUDE KH$STT;                        /* For KA_STT                         */
     1136     3760        %INCLUDE KV$BPC;
     1137     3789        %INCLUDE KH$CHN;
     1138     3911        %KH$CHN;                                /*  CHANNEL TABLES ITEM DEFINITONS    */
     1139     4035        %INCLUDE KH_CHN;
     1140     4075        %KH_CHNDAT;                             /*  CHANNEL TABLES ITEM DEFINITONS    */
     1141     4093 S      %INCLUDE KV$GLB;
     1142     4094        %INCLUDE KV_ASCCHR_E;
     1143     4231 S      %INCLUDE KV_GLBCNS_E;
     1144     4232 S      %INCLUDE KV$GLBCTX;
     1145     4233
     1146     4234        %INCLUDE KV_GLB_M;
     1147     4356        %INCLUDE KA$GLB;
     1148     4497        %INCLUDE KA_GLB;
     1149     4574        %INCLUDE KA_GLB_E;
     1150     4652        %KA_HLTOTP_E;
     1151     4661        %KA_STT;                                /*  STATISTICS                        */
PL6.E3A0      #008=KAO$SNCFLWCTRHLT File=KAO$OTP.:E05TSI                         WED 07/30/97 00:03 Page:194
     1152     5024        %KA_MSC;
     1153     5046 S      %INCLUDE KV$VDH;
     1154     5047        %KA$CTX;                           /*  ASYNC CONTEXT BLOCK ITEM DEFINITIONS   */
     1155     5171        %KA$OTPBFR;                             /*  ASYNC output buffer               */
     1156     5199        %KV$SSN;                                /*  VDH Session                       */
     1157     5278        %KV$STT (NAME = KV_STT, STCLASS = SYMREF);
     1158     5672        %KV$PTR;                                /*  VDH Pointers, status              */
     1159     5715        %KV$VDI;                                /*  VDI (VDH < ->VDH user interface)  */
     1160     5786        %KV$MRD;                                /* MASTER REAL DEVICE                 */
     1161     5833        %KV$ERD;                                /* EXTENDED REAL DEVICE               */
     1162     5917
     1163     5918    1   DCL KAV$VDI ENTRY(1) ALTRET;
     1164     5919    1   DCL KAO$OTPBNRCHR ENTRY(1);
     1165     5920    1   DCL KAO$TRNOTPIOLD ENTRY;
     1166     5921    1   DCL FLWBYT UBIN;
     1167     5922    1   DCL PARM1 UBIN;
     1168     5923    1   DCL PARM UBIN;
     1169     5924        %KV$USR_GETOTPBFR (NAME=KV_USR_GETOTPBFR, STCLASS=SYMREF READONLY);
     1170     5959    1   DCL Y$BYT(0:0) UBIN BYTE BASED CALIGNED;
     1171     5960
     1172     5961
     1173     5962    1      %KV_VDI.TMPOTPCHRCNT = 1;            /* (counting this one)                */

   5962   0 000005  EC80 0000 0000  xsym                 LDB,B6   KV$PTR$
          0 000008  DC86                                 LDB,B5   ,B6
          0 000009  6C01                                 LDV,R6   1
          0 00000A  EF45 0015                            STR,R6   21,B5

     1174     5963    2      IF (%KV_ERD.DVCOTPBFRSIZ >= 10) THEN DO;

   5963   0 00000C  DCC6 0008                            LDB,B5   8,B6
          0 00000E  CCC5 0008                            LDB,B4   8,B5
          0 000010  D844 0013                            LDR,R5   19,B4
          0 000012  5D0A                                 CMV,R5   10
          0 000013  0201 0008                            BL       s:5974,PREL

     1175     5964
PL6.E3A0      #008=KAO$SNCFLWCTRHLT File=KAO$OTP.:E05TSI                         WED 07/30/97 00:03 Page:195
     1176     5965        /* THE OUTPUT BUFFER IN THE DEVICE IS REASONABLY LARGE.                       */
     1177     5966        /* DO FLOW CONTROL FOR THE DEVICE.                                            */
     1178     5967
     1179     5968    2         %KA_CTX.OTPCHRCNTUTLHLT = %KV_ERD.DVCOTPBFRSIZ;

   5968   0 000015  BC86                                 LDB,B3   ,B6
          0 000016  ACC3 0002                            LDB,B2   2,B3
          0 000018  DF42 000C                            STR,R5   12,B2

     1180     5969    2      END; ELSE DO;

   5969   0 00001A  0F81 0008                            B        s:5976,PREL

     1181     5970
     1182     5971        /* THE DECLARED SIZE OF THE OUTPUT BUFFER IN THE DEVICE ISN'T                 */
     1183     5972        /* REASONABLY LARGE. IT'S PROBABLY MISDECLARED. WE CAN'T USE IT.              */
     1184     5973
     1185     5974    2         %KA_CTX.OTPCHRCNTUTLHLT = 256;

   5974   0 00001C  BC86                                 LDB,B3   ,B6
          0 00001D  ACC3 0002                            LDB,B2   2,B3
          0 00001F  C870 0100                            LDR,R4   256,IMO
          0 000021  CF42 000C                            STR,R4   12,B2

     1186     5975    2      END /* IF */;

     1187     5976    1      FLWBYT = KA_DVCFLWCTRCHR(%KV_MRD.DVCFLWCTRALG);

   5976   0 000023  DCC6 0008                            LDB,B5   8,B6
          0 000025  B845 0015                            LDR,R3   21,B5
          0 000027  B570 00FF                            AND,R3   255,IMO
          0 000029  3001                                 SOL,R3   1
          0 00002A  D2B0 0000 0000  xsym                 LLH,R5   KA_DVCFLWCTRCHR,R3
          0 00002D  DF47 0006                            STR,R5   FLWBYT,AUTO

     1188     5977    1      CALL Y$SNDBYT;

PL6.E3A0      #008=KAO$SNCFLWCTRHLT File=KAO$OTP.:E05TSI                         WED 07/30/97 00:03 Page:196
   5977   0 00002F  E3C0 0065                            LNJ,B6   s:0,PREL
          0 000031       0001                            DC       s:5978,PREL

     1189     5978    1      PARM1 = %KA#HLTOTP_DVCX;

   5978   0 000032  8747 0007                            CL       PARM1,AUTO

     1190     5979    1      GOTO SUB_COMMON;

   5979   0 000034  0F81 000B                            B        s:5981,PREL

     1191     5980    1   KAO$SNCHLTOTP: ENTRY (PARM);

   5980   0 000036  D380 0000 0000  xent KAO$SNCHLTOTP   LNJ,B5   X6A_AUTO_1
          0 000039       000A 0001                       DC       10,1

     1192     5981    1      PARM1 = PARM;

   5981   0 00003B  ECC7 0004                            LDB,B6   @PARM,AUTO
          0 00003D  E806                                 LDR,R6   ,B6
          0 00003E  EF47 0007                            STR,R6   PARM1,AUTO

   5981   0                              SUB_COMMON      null
     1193     5982    1   SUB_COMMON:;
     1194     5983    2      IF (%KV_SSN.USRHLTINH AND (PARM1 = %KA#HLTOTP_USRX)) THEN DO;

   5983   0 000040  EC80 0000 0000  xsym SUB_COMMON      LDB,B6   KV$PTR$
          0 000043  DCC6 0002                            LDB,B5   2,B6
          0 000045  82C5 0028                            LB,'0010'X        40,B5
          0 000047       0010
          0 000048  0581 0009                            BBF      s:5989,PREL
          0 00004A  E847 0007                            LDR,R6   PARM1,AUTO
          0 00004C  6D01                                 CMV,R6   1
          0 00004D  0981 0004                            BNE      s:5989,PREL

     1195     5984
     1196     5985        /* THIS IS A USER OUTPUT HALT REQUEST, AND USER HALTS ARE INHIBITED.          */
PL6.E3A0      #008=KAO$SNCFLWCTRHLT File=KAO$OTP.:E05TSI                         WED 07/30/97 00:03 Page:197
     1197     5986
     1198     5987    2         RETURN;

   5987   0 00004F  C380 0000 0000  xent                 LNJ,B4   X6A_ARET

     1199     5988    2      END /* IF */;
     1200     5989    1      IF (%KV_VDI.HALFDUPLEXPAPERTAPE OR %KV_VDI.FULLDUPLEXPAPERTAPE)

   5989   0 000052  CC86                                 LDB,B4   ,B6
          0 000053  82C4 0019                            LB,'0002'X        25,B4
          0 000055       0002
          0 000056  0501 0006                            BBT      s:5989+11,PREL
          0 000058  82C4 0019                            LB,'0020'X        25,B4
          0 00005A       0020
          0 00005B  0581 000E                            BBF      s:5993+2,PREL
          0 00005D  82C5 0028                            LB,'0002'X        40,B5
          0 00005F       0002
          0 000060  0501 0009                            BBT      s:5993+2,PREL

     1201     5990    2        AND NOT %KV_SSN.REDRQSPND THEN DO;

     1202     5991    2         FLWBYT = BITBIN(%ASCIIDC1);

   5991   0 000062  6C11                                 LDV,R6   17
          0 000063  EF47 0006                            STR,R6   FLWBYT,AUTO

     1203     5992    2         CALL Y$SNDBYT;

   5992   0 000065  E3C0 002F                            LNJ,B6   s:0,PREL
          0 000067       0001                            DC       s:5993,PREL

     1204     5993    1      END; ELSE FLWBYT = 0;

   5993   0 000068  0F81 0003                            B        s:5994,PREL

   5993   0 00006A  8747 0006                            CL       FLWBYT,AUTO

PL6.E3A0      #008=KAO$SNCFLWCTRHLT File=KAO$OTP.:E05TSI                         WED 07/30/97 00:03 Page:198
     1205     5994    1      CALL KAO$TRNOTPIOLD;

   5994   0 00006C  CBF0 0000                            LAB,B4   0,IMO
          0 00006E  E380 0000 0000  xent                 LNJ,B6   KAO$TRNOTPIOLD
          0 000071       0001                            DC       s:5995,PREL

     1206     5995    2      IF (%KA_CTX.OTPBFRTAL$ ~= ADDR(NIL)) THEN DO;

   5995   0 000072  EC80 0000 0000  xsym                 LDB,B6   KV$PTR$
          0 000075  DC86                                 LDB,B5   ,B6
          0 000076  CCC5 0002                            LDB,B4   2,B5
          0 000078  8DC4 0006                            CMN      6,B4
          0 00007A  0901 0008                            BE       s:6004,PREL

     1207     5996
     1208     5997        /* WE HAVE AN OUTPUT BUFFER CHAIN* SET THE HALT BIT IN THE NEXT OUTPUT BUFFER */
     1209     5998
     1210     5999    2         %KA_CTX.HLTOTPNXTBFR.BITT(PARM1) = '1'B;

   5999   0 00007C  BBC4 001D                            LAB,B3   29,B4
          0 00007E  B847 0007                            LDR,R3   PARM1,AUTO
          0 000080  8933                                 LBT      ,B3,R3

     1211     6000    2      END; ELSE DO;

   6000   0 000081  0F81 0006                            B        s:6006,PREL

     1212     6001
     1213     6002        /* THERE IS NO OUTPUT BUFFER CHAIN* OUTPUT IS CURRENTLY HALTED.               */
     1214     6003
     1215     6004    2         %KA_CTX.HLTOTP.BITT(PARM1) = '1'B;

   6004   0 000083  BBC4 001C                            LAB,B3   28,B4
          0 000085  B847 0007                            LDR,R3   PARM1,AUTO
          0 000087  8933                                 LBT      ,B3,R3

     1216     6005    2      END /* IF */;
PL6.E3A0      #008=KAO$SNCFLWCTRHLT File=KAO$OTP.:E05TSI                         WED 07/30/97 00:03 Page:199

     1217     6006    2      IF FLWBYT~=0 THEN DO;

   6006   0 000088  E847 0006                            LDR,R6   FLWBYT,AUTO
          0 00008A  6901 0007                            BEZ,R6   s:6010,PREL

     1218     6007    2         FLWBYT = BITBIN(%ASCIIDC3);

   6007   0 00008C  6C13                                 LDV,R6   19
          0 00008D  EF47 0006                            STR,R6   FLWBYT,AUTO

     1219     6008    2         CALL Y$SNDBYT;

   6008   0 00008F  E3C0 0005                            LNJ,B6   s:0,PREL
          0 000091       0001                            DC       s:6010,PREL

     1220     6009    2      END;

     1221     6010    1      RETURN;

   6010   0 000092  C380 0000 0000  xent                 LNJ,B4   X6A_ARET

     1222     6011
     1223     6012    1   Y$SNDBYT: PROC;

   6012   0 000095  EFC7 0008            Y$SNDBYT        STB,B6   PARM1+1,AUTO

     1224     6013
     1225     6014    3      IF %KV_VDI.OTPBFR_.BYTSIZ=0 THEN DO;

   6014   0 000097  DC80 0000 0000  xsym                 LDB,B5   KV$PTR$
          0 00009A  CC85                                 LDB,B4   ,B5
          0 00009B  E844 000D                            LDR,R6   13,B4
          0 00009D  6981 0010                            BNEZ,R6  s:6020,PREL

     1226     6015    4         CALL KAV$VDI (KV_USR_GETOTPBFR) WHENALTRETURN DO;

PL6.E3A0      #008=KAO$SNCFLWCTRHLT File=KAO$OTP.:E05TSI                         WED 07/30/97 00:03 Page:200
   6015   0 00009F  BB80 0000 0000  01                   LAB,B3   0
          0 0000A2  CBF0 0100                            LAB,B4   256,IMO
          0 0000A4  E380 0000 0000  xent                 LNJ,B6   KAV$VDI
          0 0000A7       0003                            DC       s:6016,PREL
          0 0000A8  0F81 0005                            B        s:6020,PREL

     1227     6016    4            RETURN;

   6016   0 0000AA  ECC7 0008                            LDB,B6   PARM1+1,AUTO
          0 0000AC  C3C6 0001                            LNJ,B4   1,B6

     1228     6017    4         END;
     1229     6018    3      END;

     1230     6019
     1231     6020    2      %KV_SSN.OTPCHRCNT = %KV_SSN.OTPCHRCNT+1;

   6020   0 0000AE  EC80 0000 0000  xsym                 LDB,B6   KV$PTR$
          0 0000B1  DCC6 0002                            LDB,B5   2,B6
          0 0000B3  8AC5 0019                            INC      25,B5
          0 0000B5  8EC5 0018                            CAD      24,B5

     1232     6021    2      KV_STT.OTPCHRCNT = KV_STT.OTPCHRCNT+1;

   6021   0 0000B7  8A80 0000 0035  xsym                 INC      KV_STT+53
          0 0000BA  8E80 0000 0034  xsym                 CAD      KV_STT+52

     1233     6022
     1234     6023    2      %KV_VDI.OTPBFR_.ADR$->Y$BYT(%KV_VDI.OTPBFR_.BYTX) = FLWBYT;

   6023   0 0000BD  DC86                                 LDB,B5   ,B6
          0 0000BE  CCC5 000A                            LDB,B4   10,B5
          0 0000C0  B845 000C                            LDR,R3   12,B5
          0 0000C2  E847 0006                            LDR,R6   FLWBYT,AUTO
          0 0000C4  E7B4                                 STH,R6   ,B4,R3

     1235     6024    2      %KV_VDI.OTPBFR_.BYTX = %KV_VDI.OTPBFR_.BYTX+1;
PL6.E3A0      #008=KAO$SNCFLWCTRHLT File=KAO$OTP.:E05TSI                         WED 07/30/97 00:03 Page:201

   6024   0 0000C5  EC80 0000 0000  xsym                 LDB,B6   KV$PTR$
          0 0000C8  DC86                                 LDB,B5   ,B6
          0 0000C9  8AC5 000C                            INC      12,B5

     1236     6025    2      %KV_VDI.OTPBFR_.BYTSIZ = %KV_VDI.OTPBFR_.BYTSIZ-1;

   6025   0 0000CB  DC86                                 LDB,B5   ,B6
          0 0000CC  88C5 000D                            DEC      13,B5

     1237     6026    2      RETURN;

   6026   0 0000CE  ECC7 0008                            LDB,B6   PARM1+1,AUTO
          0 0000D0  C3C6 0001                            LNJ,B4   1,B6
     1238     6027    2   END Y$SNDBYT;
     1239     6028    1   END KAO$SNCFLWCTRHLT;
     1240     6029
     1241     6030        %EOD;

PL6.E3A0      #008=KAO$SNCFLWCTRHLT File=KAO$OTP.:E05TSI                         WED 07/30/97 00:03 Page:202
--  Include file information  --

   KA_GLB_E.:E05TOU  is referenced.
   KA_GLB.:E05TOU  is referenced.
   KA$GLB.:E05TOU  is referenced.
   KV_GLB_M.:E05TOU  is referenced.
   KV_ASCCHR_E.:E05TOU  is referenced.
   KH_CHN.:E05TOU  is referenced.
   KH$CHN.:E05TOU  is referenced.
   KV$BPC.:E05TOU  is referenced.
   KH$STT.:E05TOU  is referenced.
   K_ID_E.:E05TOU  is referenced.
   KL_AFCN_C.:E05TOU  is referenced.
   KL_MACRO_C.:E05TOU  is referenced.
   LCP_6.:E05TOU  cannot be made into a system file and is referenced.
   KV_PRMID_E.:E05TOU  was found in the system file and is never referenced.
   KV_GLBCNS_E.:E05TOU  was found in the system file and is referenced.
   KV$VDO.:E05TOU  was found in the system file and is never referenced.
   KV$VDH.:E05TOU  was found in the system file and is referenced.
   KV$USR.:E05TOU  was found in the system file and is never referenced.
   KV$SND.:E05TOU  was found in the system file and is never referenced.
   KV$INT.:E05TOU  was found in the system file and is never referenced.
   KV$GLBCTX.:E05TOU  was found in the system file and is referenced.
   KV$GLB.:E05TOU  was found in the system file and is referenced.
   G_LCP6_E.:E05TOU  was found in the system file and is referenced.
   GT_LCP6_M.:E05TOU  was found in the system file and is referenced.
   KI_CP6.:E05TOU  was found in the system file and is referenced.
   GF_LCP6_M.:E05TOU  was found in the system file and is referenced.
   GM_LCP6_M.:E05TOU  was found in the system file and is referenced.
   GU_LCP6_M.:E05TOU  was found in the system file and is referenced.
   GJ_LCP6_M.:E05TOU  was found in the system file and is referenced.
   GH_LCP6_M.:E05TOU  was found in the system file and is referenced.
      No diagnostics issued in procedure KAO$SNCFLWCTRHLT.
PL6.E3A0      #008=KAO$SNCFLWCTRHLT File=KAO$OTP.:E05TSI                         WED 07/30/97 00:03 Page:203

 **** Variables and constants ****

  ****  Auto variables  ****

  ****  Scalars and arrays  ****
HexLoc.c.b A Datatyp(siz) R M Lvl/name                 HexLoc.c.b A Datatyp(siz) R M Lvl/name

     4-0-0/w PTR         r     1 @PARM                      6-0-0/w UBIN(16)    r     1 FLWBYT
    *0-0-0/w UBIN(16)    r     1 PARM                       7-0-0/w UBIN(16)    r     1 PARM1

  ****  SYMREF variables  ****

  ****  Scalars and arrays  ****
HexLoc.c.b A Datatyp(siz) R M Lvl/name                 HexLoc.c.b A Datatyp(siz) R M Lvl/name

     0-0-0/w UBIN(8)     r     1 KA_DVCFLWCTRCHR(0:3)
     0-0-0/w PTR         r     1 KV$PTR$                    0-0-0/w STRC(8960)  r     1 KV_STT
     0-0-0/w STRC(32)    r     1 KV_USR_GETOTPBFR

  ****  BASED and DCB variables  ****

  ****  Scalars and arrays  ****
HexLoc.c.b A Datatyp(siz) R M Lvl/name                 HexLoc.c.b A Datatyp(siz) R M Lvl/name

     0-0-0/w STRC(512)   r     1 KA$CTX                     0-0-0/w STRC(728)   r     1 KV$ERD
     0-0-0/w STRC(512)   r     1 KV$MRD                     0-0-0/w STRC(480)   r     1 KV$PTR
     0-0-0/w STRC(1024)  r     1 KV$SSN                     0-0-0/w STRC(512)   r     1 KV$VDI
     0-0-0/c UBIN(8)     r     1 Y$BYT(0:0)


   Procedure KAO$SNCFLWCTRHLT requires 210 words for executable code.
   Procedure KAO$SNCFLWCTRHLT requires 10 words of local(AUTO) storage.
PL6.E3A0      #008=KAO$SNCFLWCTRHLT File=KAO$OTP.:E05TSI                         WED 07/30/97 00:03 Page:204
          *** CROSS REFERENCE LISTING ***
**     DENOTES     IDENTIFIER DEFINITION
<<                 IDENTIFIER'S VALUE SET
>>                 IDENTIFIER'S VALUE USED
<>                 IDENTIFIER SET AND/OR USED
--                 IDENTIFIER REFERENCED
PL6.E3A0      #008=KAO$SNCFLWCTRHLT File=KAO$OTP.:E05TSI                         WED 07/30/97 00:03 Page:205
          MINI XREF LISTING

FLWBYT
      5921**DCL      5976<<ASSIGN   5991<<ASSIGN   5993<<ASSIGN   6006>>IF       6007<<ASSIGN   6023>>ASSIGN
KA$CTX.HLTOTP
      5161**DCL      5163--REDEF
KA$CTX.HLTOTP.BITT
      5163**DCL      6004<<ASSIGN
KA$CTX.HLTOTPNXTBFR
      5165**DCL      5166--REDEF
KA$CTX.HLTOTPNXTBFR.BITT
      5166**DCL      5999<<ASSIGN
KA$CTX.OTPBFRTAL$
      5074**DCL      5995>>IF
KA$CTX.OTPCHRCNTUTLHLT
      5076**DCL      5968<<ASSIGN   5974<<ASSIGN
KA$OTPBFR.HLTOTP
      5194**DCL      5195--REDEF
KAO$TRNOTPIOLD
      5920**DCL-ENT  5994--CALL
KAV$VDI
      5918**DCL-ENT  6015--CALL
KA_DVCFLWCTRCHR
      5042**DCL      5976>>ASSIGN
KA_STT.REQSTATS.DSPMSK
      4922**DCL      4928--REDEF
KA_STT.REQSTATS.SLCMSK
      4963**DCL      4970--REDEF
KH$CHN.TERMID.TERM
      4022**DCL      4031--REDEF
KH_CHNHI
      4088**DCL      4089--REDEF
KH_CHNLOW
      4089**DCL      4090--REDEF
PL6.E3A0      #008=KAO$SNCFLWCTRHLT File=KAO$OTP.:E05TSI                         WED 07/30/97 00:03 Page:206
KV$ERD.DVCOTPBFRSIZ
      5890**DCL      5963>>IF       5968>>ASSIGN
KV$ERD.EXTSRD_CHR
      5911**DCL      5911--REDEF    5912--REDEF
KV$MRD.DVCFLWCTRALG
      5812**DCL      5976>>ASSIGN
KV$MRD.ERD$
      5808**DCL      5963>>IF       5968>>ASSIGN
KV$PTR.INPCNDPND
      5699**DCL      5708--REDEF    5712--REDEF
KV$PTR.LINLST$
      5695**DCL      5696--REDEF
KV$PTR.MRD$
      5694**DCL      5963>>IF       5968>>ASSIGN   5976>>ASSIGN
KV$PTR.SSN$
      5693**DCL      5983>>IF       5989>>IF       6020>>ASSIGN   6020>>ASSIGN
KV$PTR.VDI$
      5693**DCL      5962>>ASSIGN   5968>>ASSIGN   5974>>ASSIGN   5989>>IF       5989>>IF       5995>>IF
      5999>>ASSIGN   6004>>ASSIGN   6014>>IF       6023>>ASSIGN   6023>>ASSIGN   6024>>ASSIGN   6024>>ASSIGN
      6025>>ASSIGN   6025>>ASSIGN
KV$PTR$
      5687**DCL      5693--IMP-PTR  5962>>ASSIGN   5963>>IF       5968>>ASSIGN   5968>>ASSIGN   5974>>ASSIGN
      5976>>ASSIGN   5983>>IF       5989>>IF       5989>>IF       5989>>IF       5995>>IF       5999>>ASSIGN
      6004>>ASSIGN   6014>>IF       6020>>ASSIGN   6020>>ASSIGN   6023>>ASSIGN   6023>>ASSIGN   6024>>ASSIGN
      6024>>ASSIGN   6025>>ASSIGN   6025>>ASSIGN
KV$SSN.OTPCHRCNT
      5228**DCL      6020<<ASSIGN   6020>>ASSIGN
KV$SSN.REDRQSPND
      5240**DCL      5989>>IF
KV$SSN.REDRSPCNT
      5228**DCL      5229--REDEF
KV$SSN.USRHLTINH
      5239**DCL      5983>>IF
KV$VDI.FULLDUPLEXPAPERTAPE
      5771**DCL      5989>>IF
KV$VDI.HALFDUPLEXPAPERTAPE
PL6.E3A0      #008=KAO$SNCFLWCTRHLT File=KAO$OTP.:E05TSI                         WED 07/30/97 00:03 Page:207
      5772**DCL      5989>>IF
KV$VDI.OTPBFR_.ADR$
      5762**DCL      6023>>ASSIGN
KV$VDI.OTPBFR_.BYTSIZ
      5762**DCL      6014>>IF       6025<<ASSIGN   6025>>ASSIGN
KV$VDI.OTPBFR_.BYTX
      5762**DCL      6023>>ASSIGN   6024<<ASSIGN   6024>>ASSIGN
KV$VDI.TMPOTPCHRCNT
      5767**DCL      5962<<ASSIGN
KV$VDI.USRCTX$
      5736**DCL      5968>>ASSIGN   5974>>ASSIGN   5995>>IF       5999>>ASSIGN   6004>>ASSIGN
KV_STT.OTPCHRCNT
      5660**DCL      6021<<ASSIGN   6021>>ASSIGN
KV_STT.REQSTATS.DSPMSK
      5551**DCL      5557--REDEF
KV_STT.REQSTATS.SLCMSK
      5592**DCL      5599--REDEF
KV_USR_GETOTPBFR
      5951**DCL      6015<>CALL
PARM
      5923**DCL         9--PROC     5980--ENTRY    5981>>ASSIGN
PARM1
      5922**DCL      5978<<ASSIGN   5981<<ASSIGN   5983>>IF       5999>>ASSIGN   6004>>ASSIGN
SUB_COMMON
      5981**LABEL    5979--GOTO
Y$BYT
      5959**DCL      6023<<ASSIGN
Y$SNDBYT
      6012**PROC     5977--CALL     5992--CALL     6008--CALL

PL6.E3A0      #009=KAO$BFRCTRSTR File=KAO$OTP.:E05TSI                            WED 07/30/97 00:04 Page:208
     1242        1        /*T***********************************************************/
     1243        2        /*T*                                                         */
     1244        3        /*T* Copyright (c) Bull HN Information Systems Inc., 1997    */
     1245        4        /*T*                                                         */
     1246        5        /*T***********************************************************/
     1247        6        /*X*     NSO,PLM=3,SQB=Y,AND=Y,ENI=0,SDI=3,MCL=10,CSI=0,ECI=0,IAD=3,IND=0 */
     1248        7
     1249        8
     1250        9
     1251       10        /* THE PURPOSE OF THIS ROUTINE IS TO OUTPUT THE CONTROL STRING PASSED         */
     1252       11        /* AS AN ARGUMENT IN THE KA$BFRCTRSTR STRUCTURE                               */
     1253       12
     1254       13
     1255       14        KAO$BFRCTRSTR: PROC(PRM_BFRCTRSTR);
     1256       15
     1257       16 S      %INCLUDE KV$GLB;
     1258       17 S      %INCLUDE KV$GLBCTX;
     1259       18        %INCLUDE KA$GLB;
     1260      159        %INCLUDE KA_GLB;
     1261      236        %INCLUDE KA_GLB_E;
     1262      314        %KA_HLTOTP_E;
     1263      323        %KA$CTX;
     1264      447        %KV$PTR;                                /*  VDH Pointers, status              */
     1265      490        %KV$VDI;                                /*  VDI (VDH < ->VDH user interface)  */
     1266      561
     1267      562 S      %INCLUDE KV$USR;
     1268      563
     1269      564    1   DCL KAO$TRNOTPIOLD ENTRY;
     1270      565    1   DCL KAV$VDI ENTRY(1) ALTRET;
     1271      566
     1272      567
     1273      568        %KV$USR_GETOTPBFR (NAME=Y@USR_GETOTPBFR, STCLASS=AUTO);
     1274      603        %KV$USR_GETOTPBFR (NAME=KV_USR_GETOTPBFR, STCLASS=SYMREF);
     1275      638        %KA$BFRCTRSTR(FPTN=PRM_BFRCTRSTR,STCLASS=);
     1276      665
     1277      666    1   DCL Y$BYT CHAR(PRM_BFRCTRSTR.TXTSIZ) CALIGNED BASED;
     1278      667
PL6.E3A0      #009=KAO$BFRCTRSTR File=KAO$OTP.:E05TSI                            WED 07/30/97 00:04 Page:209
     1279      668    2      IF %KV_VDI.OTPBFR_.BYTSIZ<PRM_BFRCTRSTR.TXTSIZ THEN DO;
     1280      669
     1281      670    2         Y@USR_GETOTPBFR = KV_USR_GETOTPBFR;
     1282      671    2         Y@USR_GETOTPBFR.ESTBYTSIZ = PRM_BFRCTRSTR.TXTSIZ;
     1283      672    2         CALL KAV$VDI(Y@USR_GETOTPBFR) ;
     1284      673    3         IF %KV_VDI.OTPBFR_.BYTSIZ < PRM_BFRCTRSTR.TXTSIZ THEN DO;
     1285      674    3            CALL KAO$TRNOTPIOLD;           /* Get rid of this one, its too small */
     1286      675    3            %KA_CTX.PRVOTPBFRDATEXCSML = '1'B;
     1287      676    3            CALL KAV$VDI (Y@USR_GETOTPBFR);
     1288      677    3            IF %KV_VDI.OTPBFR_.BYTSIZ = 0 THEN RETURN; /* Got aborted            */
     1289      678    3         END;
     1290      679    2      END /* IF */;
     1291      680
     1292      681        /* MOVE IN THE CONTROL STRING                                                 */
     1293      682
     1294      683    1      PINCRC (%KV_VDI.OTPBFR_.ADR$, %KV_VDI.OTPBFR_.BYTX)->Y$BYT =
     1295      684    1        PINCRC (ADDR(PRM_BFRCTRSTR),1)->Y$BYT;
     1296      685
     1297      686    1      %KV_VDI.OTPBFR_.BYTX = %KV_VDI.OTPBFR_.BYTX+PRM_BFRCTRSTR.TXTSIZ;
     1298      687    1      %KV_VDI.OTPBFR_.BYTSIZ = %KV_VDI.OTPBFR_.BYTSIZ-PRM_BFRCTRSTR.TXTSIZ;
     1299      688
     1300      689    1   END KAO$BFRCTRSTR;
     1301      690
     1302      691        %EOD;

PL6.E3A0      #009=KAO$BFRCTRSTR File=KAO$OTP.:E05TSI                            WED 07/30/97 00:04 Page:210
--  Include file information  --

   KA_GLB_E.:E05TOU  is referenced.
   KA_GLB.:E05TOU  is referenced.
   KA$GLB.:E05TOU  is referenced.
   KV_PRMID_E.:E05TOU  was found in the system file and is never referenced.
   KV_GLBCNS_E.:E05TOU  was found in the system file and is never referenced.
   KV$VDO.:E05TOU  was found in the system file and is never referenced.
   KV$VDH.:E05TOU  was found in the system file and is never referenced.
   KV$USR.:E05TOU  was found in the system file and is referenced.
   KV$SND.:E05TOU  was found in the system file and is never referenced.
   KV$INT.:E05TOU  was found in the system file and is never referenced.
   KV$GLBCTX.:E05TOU  was found in the system file and is referenced.
   KV$GLB.:E05TOU  was found in the system file and is referenced.
   G_LCP6_E.:E05TOU  was found in the system file and is never referenced.
   GT_LCP6_M.:E05TOU  was found in the system file and is never referenced.
   KI_CP6.:E05TOU  was found in the system file and is never referenced.
   GF_LCP6_M.:E05TOU  was found in the system file and is never referenced.
   GM_LCP6_M.:E05TOU  was found in the system file and is never referenced.
   GU_LCP6_M.:E05TOU  was found in the system file and is never referenced.
   GJ_LCP6_M.:E05TOU  was found in the system file and is never referenced.
   GH_LCP6_M.:E05TOU  was found in the system file and is never referenced.
      No diagnostics issued in procedure KAO$BFRCTRSTR.

   Procedure KAO$BFRCTRSTR requires 115 words for executable code.
   Procedure KAO$BFRCTRSTR requires 10 words of local(AUTO) storage.

PL6.E3A0      #009=KAO$BFRCTRSTR File=KAO$OTP.:E05TSI                            WED 07/30/97 00:04 Page:211

 Object Unit name= KAO$BFRCTRSTR                              File name= KAO$OTP.:E05TOU
 UTS= JUL 30 '97 00:04:00.88 WED                              Compiler= PL-6/E31         Sev=      00
 SharedLib= :SHARED_LCP6_SYSTEM                               Alt SharedLib=


    ****  Control sections  ****

 Sect   Type Bound  Init  Size HexSiz  Section name
    0   Proc  even  none   115     73  KAO$BFRCTRSTR

    ****  Entry defs  ****

                              Check   Calling
                             calling  sequence
  Sect HexLoc Primary Altret sequence   type   Parms  Name
     0      0   yes            yes      Std        1  KAO$BFRCTRSTR

  ****  Entry refs  ****

         Check        Calling
        calling       sequence
Altret sequence SRef   type   Args  Name
 yes     yes           Std       1 KAV$VDI
         yes           Std       0 KAO$TRNOTPIOLD
                       nStd      0 X6A_AUTO_1
                       nStd      0 X6A_ARET

  ****  Data refs  ****

  Flags:  r = read only, s = secondary
Flgs Name                             Flgs Name                             Flgs Name
     KV$PTR$                               KV_USR_GETOTPBFR                 r    G$ROS$
PL6.E3A0      #009=KAO$BFRCTRSTR File=KAO$OTP.:E05TSI                            WED 07/30/97 00:04 Page:212


     1242        1        /*T***********************************************************/
     1243        2        /*T*                                                         */
     1244        3        /*T* Copyright (c) Bull HN Information Systems Inc., 1997    */
     1245        4        /*T*                                                         */
     1246        5        /*T***********************************************************/
     1247        6        /*X*     NSO,PLM=3,SQB=Y,AND=Y,ENI=0,SDI=3,MCL=10,CSI=0,ECI=0,IAD=3,IND=0 */
     1248        7
     1249        8
     1250        9
     1251       10        /* THE PURPOSE OF THIS ROUTINE IS TO OUTPUT THE CONTROL STRING PASSED         */
     1252       11        /* AS AN ARGUMENT IN THE KA$BFRCTRSTR STRUCTURE                               */
     1253       12
     1254       13
     1255       14        KAO$BFRCTRSTR: PROC(PRM_BFRCTRSTR);

     14   0 000000  D380 0000 0000  xent KAO$BFRCTRSTR   LNJ,B5   X6A_AUTO_1
          0 000003       000A 0001                       DC       10,1

     1256       15
     1257       16 S      %INCLUDE KV$GLB;
     1258       17 S      %INCLUDE KV$GLBCTX;
     1259       18        %INCLUDE KA$GLB;
     1260      159        %INCLUDE KA_GLB;
     1261      236        %INCLUDE KA_GLB_E;
     1262      314        %KA_HLTOTP_E;
     1263      323        %KA$CTX;
     1264      447        %KV$PTR;                                /*  VDH Pointers, status              */
     1265      490        %KV$VDI;                                /*  VDI (VDH < ->VDH user interface)  */
     1266      561
     1267      562 S      %INCLUDE KV$USR;
     1268      563
     1269      564    1   DCL KAO$TRNOTPIOLD ENTRY;
     1270      565    1   DCL KAV$VDI ENTRY(1) ALTRET;
     1271      566
     1272      567
     1273      568        %KV$USR_GETOTPBFR (NAME=Y@USR_GETOTPBFR, STCLASS=AUTO);
PL6.E3A0      #009=KAO$BFRCTRSTR File=KAO$OTP.:E05TSI                            WED 07/30/97 00:04 Page:213
     1274      603        %KV$USR_GETOTPBFR (NAME=KV_USR_GETOTPBFR, STCLASS=SYMREF);
     1275      638        %KA$BFRCTRSTR(FPTN=PRM_BFRCTRSTR,STCLASS=);
     1276      665
     1277      666    1   DCL Y$BYT CHAR(PRM_BFRCTRSTR.TXTSIZ) CALIGNED BASED;
     1278      667
     1279      668    2      IF %KV_VDI.OTPBFR_.BYTSIZ<PRM_BFRCTRSTR.TXTSIZ THEN DO;

    668   0 000005  EC80 0000 0000  xsym                 LDB,B6   KV$PTR$
          0 000008  DC86                                 LDB,B5   ,B6
          0 000009  CCC7 0004                            LDB,B4   @PRM_BFRCTRSTR,AUTO
          0 00000B  E284                                 LLH,R6   ,B4
          0 00000C  E945 000D                            CMR,R6   13,B5
          0 00000E  0381 0046                            BLE      s:683,PREL

     1280      669
     1281      670    2         Y@USR_GETOTPBFR = KV_USR_GETOTPBFR;

    670   0 000010  8C80 0000 0000  xsym                 LDI      KV_USR_GETOTPBFR
          0 000013  8D47 0006                            SDI      Y@USR_GETOTPBFR,AUTO

     1282      671    2         Y@USR_GETOTPBFR.ESTBYTSIZ = PRM_BFRCTRSTR.TXTSIZ;

    671   0 000015  D284                                 LLH,R5   ,B4
          0 000016  DF47 0007                            STR,R5   Y@USR_GETOTPBFR+1,AUTO

     1283      672    2         CALL KAV$VDI(Y@USR_GETOTPBFR) ;

    672   0 000018  DBC7 0006                            LAB,B5   Y@USR_GETOTPBFR,AUTO
          0 00001A  DFC7 0008                            STB,B5   Y@USR_GETOTPBFR+2,AUTO
          0 00001C  BBC7 0008                            LAB,B3   Y@USR_GETOTPBFR+2,AUTO
          0 00001E  CBF0 0100                            LAB,B4   256,IMO
          0 000020  E380 0000 0000  xent                 LNJ,B6   KAV$VDI
          0 000023       0001                            DC       s:673,PREL

     1284      673    3         IF %KV_VDI.OTPBFR_.BYTSIZ < PRM_BFRCTRSTR.TXTSIZ THEN DO;

    673   0 000024  EC80 0000 0000  xsym                 LDB,B6   KV$PTR$
PL6.E3A0      #009=KAO$BFRCTRSTR File=KAO$OTP.:E05TSI                            WED 07/30/97 00:04 Page:214
          0 000027  DC86                                 LDB,B5   ,B6
          0 000028  CCC7 0004                            LDB,B4   @PRM_BFRCTRSTR,AUTO
          0 00002A  E284                                 LLH,R6   ,B4
          0 00002B  E945 000D                            CMR,R6   13,B5
          0 00002D  0381 0027                            BLE      s:683,PREL

     1285      674    3            CALL KAO$TRNOTPIOLD;           /* Get rid of this one, its too small */

    674   0 00002F  CBF0 0000                            LAB,B4   0,IMO
          0 000031  E380 0000 0000  xent                 LNJ,B6   KAO$TRNOTPIOLD
          0 000034       0001                            DC       s:675,PREL

     1286      675    3            %KA_CTX.PRVOTPBFRDATEXCSML = '1'B;

    675   0 000035  EC80 0000 0000  xsym                 LDB,B6   KV$PTR$
          0 000038  DC86                                 LDB,B5   ,B6
          0 000039  CCC5 0002                            LDB,B4   2,B5
          0 00003B  8944 001C                            LBT,'2000'X       28,B4
          0 00003D       2000

     1287      676    3            CALL KAV$VDI (Y@USR_GETOTPBFR);

    676   0 00003E  DBC7 0006                            LAB,B5   Y@USR_GETOTPBFR,AUTO
          0 000040  DFC7 0008                            STB,B5   Y@USR_GETOTPBFR+2,AUTO
          0 000042  BBC7 0008                            LAB,B3   Y@USR_GETOTPBFR+2,AUTO
          0 000044  CBF0 0100                            LAB,B4   256,IMO
          0 000046  E380 0000 0000  xent                 LNJ,B6   KAV$VDI
          0 000049       0001                            DC       s:677,PREL

     1288      677    3            IF %KV_VDI.OTPBFR_.BYTSIZ = 0 THEN RETURN; /* Got aborted            */

    677   0 00004A  EC80 0000 0000  xsym                 LDB,B6   KV$PTR$
          0 00004D  DC86                                 LDB,B5   ,B6
          0 00004E  E845 000D                            LDR,R6   13,B5
          0 000050  6981 0004                            BNEZ,R6  s:683,PREL

    677   0 000052  C380 0000 0000  xent                 LNJ,B4   X6A_ARET
PL6.E3A0      #009=KAO$BFRCTRSTR File=KAO$OTP.:E05TSI                            WED 07/30/97 00:04 Page:215

     1289      678    3         END;
     1290      679    2      END /* IF */;
     1291      680
     1292      681        /* MOVE IN THE CONTROL STRING                                                 */
     1293      682
     1294      683    1      PINCRC (%KV_VDI.OTPBFR_.ADR$, %KV_VDI.OTPBFR_.BYTX)->Y$BYT =

    683   0 000055  B845 000C                            LDR,R3   12,B5
          0 000057  CCC5 000A                            LDB,B4   10,B5
          0 000059  BCC7 0004                            LDB,B3   @PRM_BFRCTRSTR,AUTO
          0 00005B  E283                                 LLH,R6   ,B3
          0 00005C  AB83                                 LAB,B2   ,B3
          0 00005D  2C01                                 LDV,R2   1
          0 00005E  BB84                                 LAB,B3   ,B4
          0 00005F  0008                                 MMM

     1295      684    1        PINCRC (ADDR(PRM_BFRCTRSTR),1)->Y$BYT;
     1296      685
     1297      686    1      %KV_VDI.OTPBFR_.BYTX = %KV_VDI.OTPBFR_.BYTX+PRM_BFRCTRSTR.TXTSIZ;

    686   0 000060  EC80 0000 0000  xsym                 LDB,B6   KV$PTR$
          0 000063  DC86                                 LDB,B5   ,B6
          0 000064  E282                                 LLH,R6   ,B2
          0 000065  EA45 000C                            ADD,R6   12,B5
          0 000067  EF45 000C                            STR,R6   12,B5

     1298      687    1      %KV_VDI.OTPBFR_.BYTSIZ = %KV_VDI.OTPBFR_.BYTSIZ-PRM_BFRCTRSTR.TXTSIZ;

    687   0 000069  DC86                                 LDB,B5   ,B6
          0 00006A  E282                                 LLH,R6   ,B2
          0 00006B  E245 000D                            SUB,R6   13,B5
          0 00006D  8256                                 NEG      R6
          0 00006E  EF45 000D                            STR,R6   13,B5

     1299      688
     1300      689    1   END KAO$BFRCTRSTR;
PL6.E3A0      #009=KAO$BFRCTRSTR File=KAO$OTP.:E05TSI                            WED 07/30/97 00:04 Page:216

    689   0 000070  C380 0000 0000  xent                 LNJ,B4   X6A_ARET
     1301      690
     1302      691        %EOD;

PL6.E3A0      #009=KAO$BFRCTRSTR File=KAO$OTP.:E05TSI                            WED 07/30/97 00:04 Page:217
--  Include file information  --

   KA_GLB_E.:E05TOU  is referenced.
   KA_GLB.:E05TOU  is referenced.
   KA$GLB.:E05TOU  is referenced.
   KV_PRMID_E.:E05TOU  was found in the system file and is never referenced.
   KV_GLBCNS_E.:E05TOU  was found in the system file and is never referenced.
   KV$VDO.:E05TOU  was found in the system file and is never referenced.
   KV$VDH.:E05TOU  was found in the system file and is never referenced.
   KV$USR.:E05TOU  was found in the system file and is referenced.
   KV$SND.:E05TOU  was found in the system file and is never referenced.
   KV$INT.:E05TOU  was found in the system file and is never referenced.
   KV$GLBCTX.:E05TOU  was found in the system file and is referenced.
   KV$GLB.:E05TOU  was found in the system file and is referenced.
   G_LCP6_E.:E05TOU  was found in the system file and is never referenced.
   GT_LCP6_M.:E05TOU  was found in the system file and is never referenced.
   KI_CP6.:E05TOU  was found in the system file and is never referenced.
   GF_LCP6_M.:E05TOU  was found in the system file and is never referenced.
   GM_LCP6_M.:E05TOU  was found in the system file and is never referenced.
   GU_LCP6_M.:E05TOU  was found in the system file and is never referenced.
   GJ_LCP6_M.:E05TOU  was found in the system file and is never referenced.
   GH_LCP6_M.:E05TOU  was found in the system file and is never referenced.
      No diagnostics issued in procedure KAO$BFRCTRSTR.
PL6.E3A0      #009=KAO$BFRCTRSTR File=KAO$OTP.:E05TSI                            WED 07/30/97 00:04 Page:218

 **** Variables and constants ****

  ****  Auto variables  ****

  ****  Scalars and arrays  ****
HexLoc.c.b A Datatyp(siz) R M Lvl/name                 HexLoc.c.b A Datatyp(siz) R M Lvl/name

     4-0-0/w PTR         r     1 @PRM_BFRCTRSTR            *0-0-0/w STRC(40)    r     1 PRM_BFRCTRSTR
     6-0-0/w STRC(32)    r     1 Y@USR_GETOTPBFR

  ****  SYMREF variables  ****

  ****  Scalars and arrays  ****
HexLoc.c.b A Datatyp(siz) R M Lvl/name                 HexLoc.c.b A Datatyp(siz) R M Lvl/name

     0-0-0/w PTR         r     1 KV$PTR$                    0-0-0/w STRC(32)    r     1 KV_USR_GETOTPBFR

  ****  BASED and DCB variables  ****

  ****  Scalars and arrays  ****
HexLoc.c.b A Datatyp(siz) R M Lvl/name                 HexLoc.c.b A Datatyp(siz) R M Lvl/name

     0-0-0/w STRC(512)   r     1 KA$CTX                     0-0-0/w STRC(480)   r     1 KV$PTR
     0-0-0/w STRC(512)   r     1 KV$VDI                     0-0-0/c ACHR        r     1 Y$BYT


   Procedure KAO$BFRCTRSTR requires 115 words for executable code.
   Procedure KAO$BFRCTRSTR requires 10 words of local(AUTO) storage.
PL6.E3A0      #009=KAO$BFRCTRSTR File=KAO$OTP.:E05TSI                            WED 07/30/97 00:04 Page:219
          *** CROSS REFERENCE LISTING ***
**     DENOTES     IDENTIFIER DEFINITION
<<                 IDENTIFIER'S VALUE SET
>>                 IDENTIFIER'S VALUE USED
<>                 IDENTIFIER SET AND/OR USED
--                 IDENTIFIER REFERENCED
PL6.E3A0      #009=KAO$BFRCTRSTR File=KAO$OTP.:E05TSI                            WED 07/30/97 00:04 Page:220
          MINI XREF LISTING

KA$CTX.HLTOTP
       437**DCL       439--REDEF
KA$CTX.HLTOTPNXTBFR
       441**DCL       442--REDEF
KA$CTX.PRVOTPBFRDATEXCSML
       439**DCL       675<<ASSIGN
KAO$TRNOTPIOLD
       564**DCL-ENT   674--CALL
KAV$VDI
       565**DCL-ENT   672--CALL      676--CALL
KV$PTR.INPCNDPND
       474**DCL       483--REDEF     487--REDEF
KV$PTR.LINLST$
       470**DCL       471--REDEF
KV$PTR.VDI$
       468**DCL       668>>IF        673>>IF        675>>ASSIGN    677>>IF        683>>ASSIGN    683>>ASSIGN
       686>>ASSIGN    686>>ASSIGN    687>>ASSIGN    687>>ASSIGN
KV$PTR$
       462**DCL       468--IMP-PTR   668>>IF        673>>IF        675>>ASSIGN    677>>IF        683>>ASSIGN
       683>>ASSIGN    686>>ASSIGN    686>>ASSIGN    687>>ASSIGN    687>>ASSIGN
KV$VDI.OTPBFR_.ADR$
       537**DCL       683>>ASSIGN
KV$VDI.OTPBFR_.BYTSIZ
       537**DCL       668>>IF        673>>IF        677>>IF        687<<ASSIGN    687>>ASSIGN
KV$VDI.OTPBFR_.BYTX
       537**DCL       683>>ASSIGN    686<<ASSIGN    686>>ASSIGN
KV$VDI.USRCTX$
       511**DCL       675>>ASSIGN
KV_USR_GETOTPBFR
       630**DCL       670>>ASSIGN
PRM_BFRCTRSTR
       651**DCL        14--PROC      683--ASSIGN
PL6.E3A0      #009=KAO$BFRCTRSTR File=KAO$OTP.:E05TSI                            WED 07/30/97 00:04 Page:221
PRM_BFRCTRSTR.TXTSIZ
       651**DCL       666--IMP-SIZ   668>>IF        671>>ASSIGN    673>>IF        683>>ASSIGN    683>>ASSIGN
       686>>ASSIGN    687>>ASSIGN
Y$BYT
       666**DCL       683<<ASSIGN    683>>ASSIGN
Y@USR_GETOTPBFR
       595**DCL       670<<ASSIGN    672<>CALL      676<>CALL
Y@USR_GETOTPBFR.ESTBYTSIZ
       601**DCL       671<<ASSIGN

PL6.E3A0      #010=KAO$BFRCRTCNF File=KAO$OTP.:E05TSI                            WED 07/30/97 00:04 Page:222
     1303        1        /*T***********************************************************/
     1304        2        /*T*                                                         */
     1305        3        /*T* Copyright (c) Bull HN Information Systems Inc., 1997    */
     1306        4        /*T*                                                         */
     1307        5        /*T***********************************************************/
     1308        6        /*X*     NSO,PLM=3,SQB=Y,AND=Y,ENI=0,SDI=3,MCL=10,CSI=0,ECI=0,IAD=3,IND=0 */
     1309        7
     1310        8
     1311        9
     1312       10
     1313       11        KAO$BFRCRTCNF: PROC;
     1314       12 S      %INCLUDE KV_GLBCNS_E;
     1315       13        %KV_VDH_FNC_E;
     1316       33 S      %INCLUDE KV$GLB;
     1317       34 S      %INCLUDE KV$GLBCTX;
     1318       35        %KV$PTR;
     1319       78        %KV$VDI;
     1320      149        %KV$MRD;
     1321      196        %KV$ERD;
     1322      280
     1323      281        %INCLUDE KV_ASCCHR_E;
     1324      418        %INCLUDE KA_GLB;
     1325      495        %KA_MSC;                                /* to get KV_FLWCTRALG_.. equates     */
     1326      517        %INCLUDE KA_GLBASM_E;
     1327      599        %INCLUDE KA_GLB_E;
     1328      677        %KA_HLTOTP_E;
     1329      686        %INCLUDE KA$GLB;
     1330      827        %KA$OTPBFR;
     1331      855        %INCLUDE KH$CHN;
     1332      977        %KH$CHN;
     1333     1101    1   DCL KAO$BFRCTRSTR ENTRY(1);
     1334     1102
     1335     1103
     1336     1104
     1337     1105        %KA$BFRCTRSTR(FPTN=KA_BFRCTRSTR,FNC=CRTCNF,STCLASS=STATIC);
     1338     1132        %KA$BFRCTRSTR(FPTN=KA@BFRCTRSTR,FNC=CRTCNF,STCLASS=AUTO);
     1339     1159
PL6.E3A0      #010=KAO$BFRCRTCNF File=KAO$OTP.:E05TSI                            WED 07/30/97 00:04 Page:223
     1340     1160
     1341     1161        /*
     1342     1162           If ERD is not set up yet, just return because the configuration
     1343     1163           is going to change again shortly.
     1344     1164        */
     1345     1165
     1346     1166    1      IF (%KV_MRD.ERD$ = ADDR(NIL)) THEN RETURN;
     1347     1167
     1348     1168        /* SETUP THE CONTROL STRING TO INDICATE BUFFER CURRENT CONFIG                 */
     1349     1169
     1350     1170    1      KA@BFRCTRSTR = KA_BFRCTRSTR;
     1351     1171    1      KA@BFRCTRSTR.CRTCNF.LINSPD = %KV_VDI.LINSPD;
     1352     1172    1      KA@BFRCTRSTR.CRTCNF.PRT = 4 - %KV_VDI.PRTTYP;
     1353     1173    1      IF (%KV_MRD.DVCFLWCTRALG = %G_DVCFLWCTRALG_DC1DC3#)
     1354     1174    1        OR %KH_CHN.DC1DC3NTWOTPFLWCTR THEN
     1355     1175    1      KA@BFRCTRSTR.CRTCNF.DC1DC3FLWCTR = '1'B;
     1356     1176    1      ELSE KA@BFRCTRSTR.CRTCNF.DC1DC3FLWCTR = '0'B;
     1357     1177    1      KA@BFRCTRSTR.TXTSIZ = 3;
     1358     1178    1      CALL KAO$BFRCTRSTR(KA@BFRCTRSTR) ;
     1359     1179    1      IF %KV_VDI.OTPBFR_.ADR$~=ADDR(NIL)
     1360     1180    1      THEN %KV_VDI.OTPBFR_.ADR$->KA$OTPBFR.CRTCNF_IN_BFR = '1'B;
     1361     1181    1   END KAO$BFRCRTCNF;
     1362     1182
     1363     1183        %EOD;

PL6.E3A0      #010=KAO$BFRCRTCNF File=KAO$OTP.:E05TSI                            WED 07/30/97 00:04 Page:224
--  Include file information  --

   KH$CHN.:E05TOU  is referenced.
   KA$GLB.:E05TOU  is referenced.
   KA_GLB_E.:E05TOU  is referenced.
   KA_GLBASM_E.:E05TOU  is referenced.
   KA_GLB.:E05TOU  is referenced.
   KV_ASCCHR_E.:E05TOU  is referenced.
   KV_PRMID_E.:E05TOU  was found in the system file and is never referenced.
   KV_GLBCNS_E.:E05TOU  was found in the system file and is referenced.
   KV$VDO.:E05TOU  was found in the system file and is never referenced.
   KV$VDH.:E05TOU  was found in the system file and is never referenced.
   KV$USR.:E05TOU  was found in the system file and is never referenced.
   KV$SND.:E05TOU  was found in the system file and is never referenced.
   KV$INT.:E05TOU  was found in the system file and is never referenced.
   KV$GLBCTX.:E05TOU  was found in the system file and is referenced.
   KV$GLB.:E05TOU  was found in the system file and is referenced.
   G_LCP6_E.:E05TOU  was found in the system file and is never referenced.
   GT_LCP6_M.:E05TOU  was found in the system file and is never referenced.
   KI_CP6.:E05TOU  was found in the system file and is never referenced.
   GF_LCP6_M.:E05TOU  was found in the system file and is never referenced.
   GM_LCP6_M.:E05TOU  was found in the system file and is never referenced.
   GU_LCP6_M.:E05TOU  was found in the system file and is never referenced.
   GJ_LCP6_M.:E05TOU  was found in the system file and is never referenced.
   GH_LCP6_M.:E05TOU  was found in the system file and is never referenced.
      No diagnostics issued in procedure KAO$BFRCRTCNF.

   Procedure KAO$BFRCRTCNF requires 98 words for executable code.
   Procedure KAO$BFRCRTCNF requires 10 words of local(AUTO) storage.

PL6.E3A0      #010=KAO$BFRCRTCNF File=KAO$OTP.:E05TSI                            WED 07/30/97 00:04 Page:225

 Object Unit name= KAO$BFRCRTCNF                              File name= KAO$OTP.:E05TOU
 UTS= JUL 30 '97 00:04:12.24 WED                              Compiler= PL-6/E31         Sev=      00
 SharedLib= :SHARED_LCP6_SYSTEM                               Alt SharedLib=


    ****  Control sections  ****

 Sect   Type Bound  Init  Size HexSiz  Section name
    0   Data  even  none     3      3  KAO$BFRCRTCNF
    1   Proc  even  none    98     62  KAO$BFRCRTCNF

    ****  Entry defs  ****

                              Check   Calling
                             calling  sequence
  Sect HexLoc Primary Altret sequence   type   Parms  Name
     1      0   yes            yes      Std        0  KAO$BFRCRTCNF

  ****  Entry refs  ****

         Check        Calling
        calling       sequence
Altret sequence SRef   type   Args  Name
         yes           Std       1 KAO$BFRCTRSTR
                       nStd      0 X6A_AUTO_0
                       nStd      0 X6A_ARET

  ****  Data refs  ****

  Flags:  r = read only, s = secondary
Flgs Name                             Flgs Name                             Flgs Name
     KV$PTR$                          r    G$ROS$
PL6.E3A0      #010=KAO$BFRCRTCNF File=KAO$OTP.:E05TSI                            WED 07/30/97 00:04 Page:226


     1303        1        /*T***********************************************************/
     1304        2        /*T*                                                         */
     1305        3        /*T* Copyright (c) Bull HN Information Systems Inc., 1997    */
     1306        4        /*T*                                                         */
     1307        5        /*T***********************************************************/
     1308        6        /*X*     NSO,PLM=3,SQB=Y,AND=Y,ENI=0,SDI=3,MCL=10,CSI=0,ECI=0,IAD=3,IND=0 */
     1309        7
     1310        8
     1311        9
     1312       10
     1313       11        KAO$BFRCRTCNF: PROC;

     11   1 000000  D380 0000 0000  xent KAO$BFRCRTCNF   LNJ,B5   X6A_AUTO_0
          1 000003       000A 0000                       DC       10,0

     1314       12 S      %INCLUDE KV_GLBCNS_E;
     1315       13        %KV_VDH_FNC_E;
     1316       33 S      %INCLUDE KV$GLB;
     1317       34 S      %INCLUDE KV$GLBCTX;
     1318       35        %KV$PTR;
     1319       78        %KV$VDI;
     1320      149        %KV$MRD;
     1321      196        %KV$ERD;
     1322      280
     1323      281        %INCLUDE KV_ASCCHR_E;
     1324      418        %INCLUDE KA_GLB;
     1325      495        %KA_MSC;                                /* to get KV_FLWCTRALG_.. equates     */
     1326      517        %INCLUDE KA_GLBASM_E;
     1327      599        %INCLUDE KA_GLB_E;
     1328      677        %KA_HLTOTP_E;
     1329      686        %INCLUDE KA$GLB;
     1330      827        %KA$OTPBFR;
     1331      855        %INCLUDE KH$CHN;
     1332      977        %KH$CHN;
     1333     1101    1   DCL KAO$BFRCTRSTR ENTRY(1);
     1334     1102
PL6.E3A0      #010=KAO$BFRCRTCNF File=KAO$OTP.:E05TSI                            WED 07/30/97 00:04 Page:227
     1335     1103
     1336     1104
     1337     1105        %KA$BFRCTRSTR(FPTN=KA_BFRCTRSTR,FNC=CRTCNF,STCLASS=STATIC);
     1338     1132        %KA$BFRCTRSTR(FPTN=KA@BFRCTRSTR,FNC=CRTCNF,STCLASS=AUTO);
     1339     1159
     1340     1160
     1341     1161        /*
     1342     1162           If ERD is not set up yet, just return because the configuration
     1343     1163           is going to change again shortly.
     1344     1164        */
     1345     1165
     1346     1166    1      IF (%KV_MRD.ERD$ = ADDR(NIL)) THEN RETURN;

   1166   1 000005  EC80 0000 0000  xsym                 LDB,B6   KV$PTR$
          1 000008  DCC6 0008                            LDB,B5   8,B6
          1 00000A  8DC5 0008                            CMN      8,B5
          1 00000C  0981 0004                            BNE      s:1170,PREL

   1166   1 00000E  C380 0000 0000  xent                 LNJ,B4   X6A_ARET

     1347     1167
     1348     1168        /* SETUP THE CONTROL STRING TO INDICATE BUFFER CURRENT CONFIG                 */
     1349     1169
     1350     1170    1      KA@BFRCTRSTR = KA_BFRCTRSTR;

   1170   1 000011  AB80 0000 0000  00                   LAB,B2   KA_BFRCTRSTR
          1 000014  2C00                                 LDV,R2   0
          1 000015  6C05                                 LDV,R6   5
          1 000016  BB87                                 LAB,B3   ,AUTO
          1 000017  3C08                                 LDV,R3   8
          1 000018  0008                                 MMM

     1351     1171    1      KA@BFRCTRSTR.CRTCNF.LINSPD = %KV_VDI.LINSPD;

   1171   1 000019  EC80 0000 0000  xsym                 LDB,B6   KV$PTR$
          1 00001C  DC86                                 LDB,B5   ,B6
          1 00001D  E2C5 001E                            LLH,R6   30,B5
PL6.E3A0      #010=KAO$BFRCRTCNF File=KAO$OTP.:E05TSI                            WED 07/30/97 00:04 Page:228
          1 00001F  EAC7 0005                            SRM,R6,'000F'X    KA@BFRCTRSTR+1,AUTO
          1 000021       000F

     1352     1172    1      KA@BFRCTRSTR.CRTCNF.PRT = 4 - %KV_VDI.PRTTYP;

   1172   1 000022  DC86                                 LDB,B5   ,B6
          1 000023  E2C5 0019                            LLH,R6   25,B5
          1 000025  8256                                 NEG      R6
          1 000026  6E04                                 ADV,R6   4
          1 000027  6005                                 SOL,R6   5
          1 000028  EAC7 0005                            SRM,R6,'00E0'X    KA@BFRCTRSTR+1,AUTO
          1 00002A       00E0

     1353     1173    1      IF (%KV_MRD.DVCFLWCTRALG = %G_DVCFLWCTRALG_DC1DC3#)

   1173   1 00002B  DCC6 0008                            LDB,B5   8,B6
          1 00002D  E845 0015                            LDR,R6   21,B5
          1 00002F  E570 00FF                            AND,R6   255,IMO
          1 000031  6D03                                 CMV,R6   3
          1 000032  0901 0008                            BE       s:1175,PREL
          1 000034  CC86                                 LDB,B4   ,B6
          1 000035  AC84                                 LDB,B2   ,B4
          1 000036  82C2 0009                            LB,'4000'X        9,B2
          1 000038       4000
          1 000039  0581 0006                            BBF      s:1176,PREL

     1354     1174    1        OR %KH_CHN.DC1DC3NTWOTPFLWCTR THEN
     1355     1175    1      KA@BFRCTRSTR.CRTCNF.DC1DC3FLWCTR = '1'B;

   1175   1 00003B  8947 0005                            LBT,'0010'X       KA@BFRCTRSTR+1,AUTO
   1175   1 00003D       0010
          1 00003E  0F81 0004                            B        s:1177,PREL

     1356     1176    1      ELSE KA@BFRCTRSTR.CRTCNF.DC1DC3FLWCTR = '0'B;

   1176   1 000040  8847 0005                            LBF,'0010'X       KA@BFRCTRSTR+1,AUTO
   1176   1 000042       0010
PL6.E3A0      #010=KAO$BFRCRTCNF File=KAO$OTP.:E05TSI                            WED 07/30/97 00:04 Page:229

     1357     1177    1      KA@BFRCTRSTR.TXTSIZ = 3;

   1177   1 000043  5C03                                 LDV,R5   3
          1 000044  D7C7 0004                            STH,R5   KA@BFRCTRSTR,AUTO

     1358     1178    1      CALL KAO$BFRCTRSTR(KA@BFRCTRSTR) ;

   1178   1 000046  CBC7 0004                            LAB,B4   KA@BFRCTRSTR,AUTO
          1 000048  CFC7 0008                            STB,B4   KA@BFRCTRSTR+4,AUTO
          1 00004A  BBC7 0008                            LAB,B3   KA@BFRCTRSTR+4,AUTO
          1 00004C  CBF0 0100                            LAB,B4   256,IMO
          1 00004E  E380 0000 0000  xent                 LNJ,B6   KAO$BFRCTRSTR
          1 000051       0001                            DC       s:1179,PREL

     1359     1179    1      IF %KV_VDI.OTPBFR_.ADR$~=ADDR(NIL)

   1179   1 000052  EC80 0000 0000  xsym                 LDB,B6   KV$PTR$
          1 000055  DC86                                 LDB,B5   ,B6
          1 000056  8DC5 000A                            CMN      10,B5
          1 000058  0901 0006                            BE       s:1181,PREL

     1360     1180    1      THEN %KV_VDI.OTPBFR_.ADR$->KA$OTPBFR.CRTCNF_IN_BFR = '1'B;

   1180   1 00005A  CCC5 000A                            LDB,B4   10,B5
          1 00005C  8944 0003                            LBT,'0200'X       3,B4
          1 00005E       0200

     1361     1181    1   END KAO$BFRCRTCNF;

   1181   1 00005F  C380 0000 0000  xent                 LNJ,B4   X6A_ARET
     1362     1182
     1363     1183        %EOD;

PL6.E3A0      #010=KAO$BFRCRTCNF File=KAO$OTP.:E05TSI                            WED 07/30/97 00:04 Page:230
--  Include file information  --

   KH$CHN.:E05TOU  is referenced.
   KA$GLB.:E05TOU  is referenced.
   KA_GLB_E.:E05TOU  is referenced.
   KA_GLBASM_E.:E05TOU  is referenced.
   KA_GLB.:E05TOU  is referenced.
   KV_ASCCHR_E.:E05TOU  is referenced.
   KV_PRMID_E.:E05TOU  was found in the system file and is never referenced.
   KV_GLBCNS_E.:E05TOU  was found in the system file and is referenced.
   KV$VDO.:E05TOU  was found in the system file and is never referenced.
   KV$VDH.:E05TOU  was found in the system file and is never referenced.
   KV$USR.:E05TOU  was found in the system file and is never referenced.
   KV$SND.:E05TOU  was found in the system file and is never referenced.
   KV$INT.:E05TOU  was found in the system file and is never referenced.
   KV$GLBCTX.:E05TOU  was found in the system file and is referenced.
   KV$GLB.:E05TOU  was found in the system file and is referenced.
   G_LCP6_E.:E05TOU  was found in the system file and is never referenced.
   GT_LCP6_M.:E05TOU  was found in the system file and is never referenced.
   KI_CP6.:E05TOU  was found in the system file and is never referenced.
   GF_LCP6_M.:E05TOU  was found in the system file and is never referenced.
   GM_LCP6_M.:E05TOU  was found in the system file and is never referenced.
   GU_LCP6_M.:E05TOU  was found in the system file and is never referenced.
   GJ_LCP6_M.:E05TOU  was found in the system file and is never referenced.
   GH_LCP6_M.:E05TOU  was found in the system file and is never referenced.
      No diagnostics issued in procedure KAO$BFRCRTCNF.
PL6.E3A0      #010=KAO$BFRCRTCNF File=KAO$OTP.:E05TSI                            WED 07/30/97 00:04 Page:231

 **** Variables and constants ****

  ****  Section 000  Data  KAO$BFRCRTCNF

  ****  Scalars and arrays  ****
HexLoc.c.b A Datatyp(siz) R M Lvl/name                 HexLoc.c.b A Datatyp(siz) R M Lvl/name

     0-0-0/w STRC(40)    r     1 KA_BFRCTRSTR

  ****  Auto variables  ****

  ****  Scalars and arrays  ****
HexLoc.c.b A Datatyp(siz) R M Lvl/name                 HexLoc.c.b A Datatyp(siz) R M Lvl/name

     4-0-0/w STRC(40)    r     1 KA@BFRCTRSTR

  ****  SYMREF variables  ****

  ****  Scalars and arrays  ****
HexLoc.c.b A Datatyp(siz) R M Lvl/name                 HexLoc.c.b A Datatyp(siz) R M Lvl/name

     0-0-0/w PTR         r     1 KV$PTR$

  ****  BASED and DCB variables  ****

  ****  Scalars and arrays  ****
HexLoc.c.b A Datatyp(siz) R M Lvl/name                 HexLoc.c.b A Datatyp(siz) R M Lvl/name

     0-0-0/w STRC(64)    r     1 KA$OTPBFR                  0-0-0/w STRC(512)   r     1 KH$CHN
     0-0-0/w STRC(512)   r     1 KV$MRD                     0-0-0/w STRC(480)   r     1 KV$PTR
     0-0-0/w STRC(512)   r     1 KV$VDI


   Procedure KAO$BFRCRTCNF requires 98 words for executable code.
   Procedure KAO$BFRCRTCNF requires 10 words of local(AUTO) storage.
PL6.E3A0      #010=KAO$BFRCRTCNF File=KAO$OTP.:E05TSI                            WED 07/30/97 00:04 Page:232
          *** CROSS REFERENCE LISTING ***
**     DENOTES     IDENTIFIER DEFINITION
<<                 IDENTIFIER'S VALUE SET
>>                 IDENTIFIER'S VALUE USED
<>                 IDENTIFIER SET AND/OR USED
--                 IDENTIFIER REFERENCED
PL6.E3A0      #010=KAO$BFRCRTCNF File=KAO$OTP.:E05TSI                            WED 07/30/97 00:04 Page:233
          MINI XREF LISTING

KA$OTPBFR.CRTCNF_IN_BFR
       853**DCL      1180<<ASSIGN
KA$OTPBFR.HLTOTP
       850**DCL       851--REDEF
KA@BFRCTRSTR
      1145**DCL      1170<<ASSIGN   1178<>CALL
KA@BFRCTRSTR.CRTCNF
      1147**DCL      1149--REDEF
KA@BFRCTRSTR.CRTCNF.DC1DC3FLWCTR
      1148**DCL      1175<<ASSIGN   1176<<ASSIGN
KA@BFRCTRSTR.CRTCNF.LINSPD
      1148**DCL      1171<<ASSIGN
KA@BFRCTRSTR.CRTCNF.PRT
      1147**DCL      1172<<ASSIGN
KA@BFRCTRSTR.TXTSIZ
      1145**DCL      1177<<ASSIGN
KAO$BFRCTRSTR
      1101**DCL-ENT  1178--CALL
KA_BFRCTRSTR
      1118**DCL      1170>>ASSIGN
KA_BFRCTRSTR.CRTCNF
      1120**DCL      1122--REDEF
KH$CHN.DC1DC3NTWOTPFLWCTR
      1050**DCL      1173>>IF
KH$CHN.TERMID.TERM
      1088**DCL      1097--REDEF
KV$ERD.EXTSRD_CHR
       274**DCL       274--REDEF     275--REDEF
KV$MRD.DVCFLWCTRALG
       175**DCL      1173>>IF
KV$MRD.ERD$
       171**DCL      1166>>IF
PL6.E3A0      #010=KAO$BFRCRTCNF File=KAO$OTP.:E05TSI                            WED 07/30/97 00:04 Page:234
KV$PTR.INPCNDPND
        62**DCL        71--REDEF      75--REDEF
KV$PTR.LINLST$
        58**DCL        59--REDEF
KV$PTR.MRD$
        57**DCL      1166>>IF       1173>>IF
KV$PTR.VDI$
        56**DCL      1171>>ASSIGN   1172>>ASSIGN   1173>>IF       1179>>IF       1180>>ASSIGN
KV$PTR$
        50**DCL        56--IMP-PTR  1166>>IF       1171>>ASSIGN   1172>>ASSIGN   1173>>IF       1173>>IF
      1179>>IF       1180>>ASSIGN
KV$VDI.CHN$
        99**DCL      1173>>IF
KV$VDI.LINSPD
       141**DCL      1171>>ASSIGN
KV$VDI.OTPBFR_.ADR$
       125**DCL      1179>>IF       1180>>ASSIGN
KV$VDI.PRTTYP
       133**DCL      1172>>ASSIGN

PL6.E3A0      #011=KAO$MRK File=KAO$OTP.:E05TSI                                  WED 07/30/97 00:04 Page:235
     1364        1        /*T***********************************************************/
     1365        2        /*T*                                                         */
     1366        3        /*T* Copyright (c) Bull HN Information Systems Inc., 1997    */
     1367        4        /*T*                                                         */
     1368        5        /*T***********************************************************/
     1369        6        /*X*     NSO,PLM=3,SQB=Y,AND=Y,ENI=0,SDI=3,MCL=10,CSI=0,ECI=0,IAD=3,IND=0 */
     1370        7        %EJECT;
PL6.E3A0      #011=KAO$MRK File=KAO$OTP.:E05TSI                                  WED 07/30/97 00:04 Page:236
     1371        8
     1372        9        /*P*
     1373       10            NAME: KAO$MRK
     1374       11            PURPOSE:
     1375       12                  To return markers in output buffers to VDH.
     1376       13        */
     1377       14        /*D*
     1378       15            NAME: KAO$MRK
     1379       16            CALL: CALL KAO$MRK(KA$OTPBFR)
     1380       17                  There is no altret.
     1381       18            PARAMETERS:
     1382       19                  The parameter is an async output buffer (KA$OTPBFR),
     1383       20                  with the number of bytes successfully processed
     1384       21                  in this output buffer indicated in its BYTCNT field.
     1385       22            INTERFACE:
     1386       23                  It calls KVV$VDI to return the markers to VDH.
     1387       24            DESCRIPTION:
     1388       25                  Markers are stacked in reverse order (last marker in
     1389       26                  lower physical memory) at the bottom of the output
     1390       27                  buffers. KAO$MRK compares the byte count of each such
     1391       28                  marker with Y@BYTCNT to determine if output prior to
     1392       29                  this marker has been successfully processed. It then
     1393       30                  calls KVV$VDI with the marker data and the appropiate
     1394       31                  completion code (completed or deleted).
     1395       32        */
     1396       33        KAO$MRK: PROC(KA$OTPBFR);
     1397       34
     1398       35 S      %INCLUDE KV_GLBCNS_E;
     1399       36        %KV_CMPCOD_E;                           /* marker completion codes            */
     1400       50
     1401       51 S      %INCLUDE KV$GLB;
     1402       52 S      %INCLUDE KV$VDH;
     1403       53        %KV$VDH_OTPMRK(NAME = KV_VDH_OTPMRK, STCLASS = CONSTANT);
     1404      115        %KV$VDH_OTPMRK(NAME = KV@VDH_OTPMRK, STCLASS = AUTO);
     1405      177
     1406      178        %INCLUDE KA_GLB_E;
     1407      256        %KA_HLTOTP_E;
PL6.E3A0      #011=KAO$MRK File=KAO$OTP.:E05TSI                                  WED 07/30/97 00:04 Page:237
     1408      265        %INCLUDE KA$GLB;
     1409      406        %KA$OTPBFR(STCLASS = PARAM);
     1410      434
     1411      435    1   DCL 1 KA$OTPMRK ALIGNED BASED(Y@MRK$),
     1412      436        %KV$OTPMRK(NAME = DAT, LVL = 2, LAST = ",");
     1413      463    1          2 BYTCNT SBIN WORD ALIGNED;
     1414      464
     1415      465    1   DCL Y@BYTCNT SBIN;
     1416      466    1   DCL Y@MRK$ PTR;
     1417      467    1   DCL Y_POWER_OF_2(0:15) SBIN WORD CONSTANT INIT(1, 2, 4, 8, 16, 32, 64, 128, 256,
     1418      468    1    512, 1024, 2048, 4096, 8192, 16384, 32764);
     1419      469    1   DCL I UBIN;
     1420      470
     1421      471    1   DCL KVV$VDI ENTRY(1) ALTRET;
     1422      472
     1423      473
     1424      474        /* nothing to do if there are no markers in the buffer. */
     1425      475
     1426      476    1      IF KA$OTPBFR.NMBMRK = 0 THEN RETURN;
     1427      477
     1428      478        /* loop to go thru all the markers */
     1429      479
     1430      480    1      Y@BYTCNT = KA$OTPBFR.BYTCNT;
     1431      481    1      KV@VDH_OTPMRK = KV_VDH_OTPMRK;
     1432      482    1      Y@MRK$ = PINCRW(ADDR(KA$OTPBFR), Y_POWER_OF_2(KA$OTPBFR.BYTSIZLOG2)/2);
     1433      483    2      DO I = 0 TO KA$OTPBFR.NMBMRK - 1;
     1434      484    2         Y@MRK$ = PINCRW(Y@MRK$, -SIZEW(KA$OTPMRK));
     1435      485    2         KV@VDH_OTPMRK.DAT = KA$OTPMRK.DAT;
     1436      486    2         IF Y@BYTCNT >= KA$OTPMRK.BYTCNT THEN
     1437      487    2         KV@VDH_OTPMRK.CMPCOD = %KV_CMPCOD_NRM;
     1438      488    2         ELSE KV@VDH_OTPMRK.CMPCOD = %KV_CMPCOD_DLT;
     1439      489    2         CALL KVV$VDI(KV@VDH_OTPMRK);
     1440      490    2      END; /* DO I = .... */
     1441      491    1      RETURN;
     1442      492    1   END KAO$MRK;

PL6.E3A0      #011=KAO$MRK File=KAO$OTP.:E05TSI                                  WED 07/30/97 00:04 Page:238
--  Include file information  --

   KA$GLB.:E05TOU  is referenced.
   KA_GLB_E.:E05TOU  is referenced.
   KV_PRMID_E.:E05TOU  was found in the system file and is never referenced.
   KV_GLBCNS_E.:E05TOU  was found in the system file and is referenced.
   KV$VDO.:E05TOU  was found in the system file and is never referenced.
   KV$VDH.:E05TOU  was found in the system file and is referenced.
   KV$USR.:E05TOU  was found in the system file and is never referenced.
   KV$SND.:E05TOU  was found in the system file and is never referenced.
   KV$INT.:E05TOU  was found in the system file and is never referenced.
   KV$GLBCTX.:E05TOU  was found in the system file and is never referenced.
   KV$GLB.:E05TOU  was found in the system file and is referenced.
   G_LCP6_E.:E05TOU  was found in the system file and is never referenced.
   GT_LCP6_M.:E05TOU  was found in the system file and is never referenced.
   KI_CP6.:E05TOU  was found in the system file and is never referenced.
   GF_LCP6_M.:E05TOU  was found in the system file and is never referenced.
   GM_LCP6_M.:E05TOU  was found in the system file and is never referenced.
   GU_LCP6_M.:E05TOU  was found in the system file and is never referenced.
   GJ_LCP6_M.:E05TOU  was found in the system file and is never referenced.
   GH_LCP6_M.:E05TOU  was found in the system file and is never referenced.
      No diagnostics issued in procedure KAO$MRK.

   Procedure KAO$MRK requires 99 words for executable code.
   Procedure KAO$MRK requires 18 words of local(AUTO) storage.

    No errors detected in file KAO$OTP.:E05TSI    .

PL6.E3A0      #011=KAO$MRK File=KAO$OTP.:E05TSI                                  WED 07/30/97 00:04 Page:239

 Object Unit name= KAO$MRK                                    File name= KAO$OTP.:E05TOU
 UTS= JUL 30 '97 00:04:28.32 WED                              Compiler= PL-6/E31         Sev=      00
 SharedLib= :SHARED_LCP6_SYSTEM                               Alt SharedLib=


    ****  Control sections  ****

 Sect   Type Bound  Init  Size HexSiz  Section name
    0  RoData even  UTS     21     15  KAO$MRK
    1   Proc  even  none    99     63  KAO$MRK

    ****  Entry defs  ****

                              Check   Calling
                             calling  sequence
  Sect HexLoc Primary Altret sequence   type   Parms  Name
     1      0   yes            yes      Std        1  KAO$MRK

  ****  Entry refs  ****

         Check        Calling
        calling       sequence
Altret sequence SRef   type   Args  Name
 yes     yes           Std       1 KVV$VDI
                       nStd      0 X6A_AUTO_1
                       nStd      0 X6A_ARET

  ****  Data refs  ****

  Flags:  r = read only, s = secondary
Flgs Name                             Flgs Name                             Flgs Name
r    G$ROS$
PL6.E3A0      #011=KAO$MRK File=KAO$OTP.:E05TSI                                  WED 07/30/97 00:04 Page:240


     1364        1        /*T***********************************************************/
     1365        2        /*T*                                                         */
     1366        3        /*T* Copyright (c) Bull HN Information Systems Inc., 1997    */
     1367        4        /*T*                                                         */
     1368        5        /*T***********************************************************/
     1369        6        /*X*     NSO,PLM=3,SQB=Y,AND=Y,ENI=0,SDI=3,MCL=10,CSI=0,ECI=0,IAD=3,IND=0 */
     1370        7        %EJECT;
PL6.E3A0      #011=KAO$MRK File=KAO$OTP.:E05TSI                                  WED 07/30/97 00:04 Page:241
     1371        8
     1372        9        /*P*
     1373       10            NAME: KAO$MRK
     1374       11            PURPOSE:
     1375       12                  To return markers in output buffers to VDH.
     1376       13        */
     1377       14        /*D*
     1378       15            NAME: KAO$MRK
     1379       16            CALL: CALL KAO$MRK(KA$OTPBFR)
     1380       17                  There is no altret.
     1381       18            PARAMETERS:
     1382       19                  The parameter is an async output buffer (KA$OTPBFR),
     1383       20                  with the number of bytes successfully processed
     1384       21                  in this output buffer indicated in its BYTCNT field.
     1385       22            INTERFACE:
     1386       23                  It calls KVV$VDI to return the markers to VDH.
     1387       24            DESCRIPTION:
     1388       25                  Markers are stacked in reverse order (last marker in
     1389       26                  lower physical memory) at the bottom of the output
     1390       27                  buffers. KAO$MRK compares the byte count of each such
     1391       28                  marker with Y@BYTCNT to determine if output prior to
     1392       29                  this marker has been successfully processed. It then
     1393       30                  calls KVV$VDI with the marker data and the appropiate
     1394       31                  completion code (completed or deleted).
     1395       32        */
     1396       33        KAO$MRK: PROC(KA$OTPBFR);

     33   1 000000  D380 0000 0000  xent KAO$MRK         LNJ,B5   X6A_AUTO_1
          1 000003       0012 0001                       DC       18,1

     1397       34
     1398       35 S      %INCLUDE KV_GLBCNS_E;
     1399       36        %KV_CMPCOD_E;                           /* marker completion codes            */
     1400       50
     1401       51 S      %INCLUDE KV$GLB;
     1402       52 S      %INCLUDE KV$VDH;
     1403       53        %KV$VDH_OTPMRK(NAME = KV_VDH_OTPMRK, STCLASS = CONSTANT);
PL6.E3A0      #011=KAO$MRK File=KAO$OTP.:E05TSI                                  WED 07/30/97 00:04 Page:242
     1404      115        %KV$VDH_OTPMRK(NAME = KV@VDH_OTPMRK, STCLASS = AUTO);
     1405      177
     1406      178        %INCLUDE KA_GLB_E;
     1407      256        %KA_HLTOTP_E;
     1408      265        %INCLUDE KA$GLB;
     1409      406        %KA$OTPBFR(STCLASS = PARAM);
     1410      434
     1411      435    1   DCL 1 KA$OTPMRK ALIGNED BASED(Y@MRK$),
     1412      436        %KV$OTPMRK(NAME = DAT, LVL = 2, LAST = ",");
     1413      463    1          2 BYTCNT SBIN WORD ALIGNED;
     1414      464
     1415      465    1   DCL Y@BYTCNT SBIN;
     1416      466    1   DCL Y@MRK$ PTR;
     1417      467    1   DCL Y_POWER_OF_2(0:15) SBIN WORD CONSTANT INIT(1, 2, 4, 8, 16, 32, 64, 128, 256,
     1418      468    1    512, 1024, 2048, 4096, 8192, 16384, 32764);
     1419      469    1   DCL I UBIN;
     1420      470
     1421      471    1   DCL KVV$VDI ENTRY(1) ALTRET;
     1422      472
     1423      473
     1424      474        /* nothing to do if there are no markers in the buffer. */
     1425      475
     1426      476    1      IF KA$OTPBFR.NMBMRK = 0 THEN RETURN;

    476   1 000005  ECC7 0004                            LDB,B6   @KA$OTPBFR,AUTO
          1 000007  82C6 0003                            LB,'FC00'X        3,B6
          1 000009       FC00
          1 00000A  0501 0004                            BBT      s:480,PREL

    476   1 00000C  C380 0000 0000  xent                 LNJ,B4   X6A_ARET

     1427      477
     1428      478        /* loop to go thru all the markers */
     1429      479
     1430      480    1      Y@BYTCNT = KA$OTPBFR.BYTCNT;

    480   1 00000F  E846 0002                            LDR,R6   2,B6
PL6.E3A0      #011=KAO$MRK File=KAO$OTP.:E05TSI                                  WED 07/30/97 00:04 Page:243
          1 000011  E570 03FF                            AND,R6   1023,IMO
          1 000013  EF47 000B                            STR,R6   Y@BYTCNT,AUTO

     1431      481    1      KV@VDH_OTPMRK = KV_VDH_OTPMRK;

    481   1 000015  AB80 0000 0000  00                   LAB,B2   KV_VDH_OTPMRK
          1 000018  2C00                                 LDV,R2   0
          1 000019  6C0A                                 LDV,R6   10
          1 00001A  BB87                                 LAB,B3   ,AUTO
          1 00001B  3C0C                                 LDV,R3   12
          1 00001C  0008                                 MMM

     1432      482    1      Y@MRK$ = PINCRW(ADDR(KA$OTPBFR), Y_POWER_OF_2(KA$OTPBFR.BYTSIZLOG2)/2);

    482   1 00001D  B846 0002                            LDR,R3   2,B6
          1 00001F  304A                                 SOR,R3   10
          1 000020  B570 000F                            AND,R3   15,IMO
          1 000022  E830 0000 0005  00                   LDR,R6   Y_POWER_OF_2,R3
          1 000025  E370 0002                            DIV,R6   2,IMO
          1 000027  A856                                 LDR,R2   R6
          1 000028  DBA6                                 LAB,B5   ,B6,R2
          1 000029  DFC7 000C                            STB,B5   Y@MRK$,AUTO

     1433      483    2      DO I = 0 TO KA$OTPBFR.NMBMRK - 1;

    483   1 00002B  8747 000E                            CL       I,AUTO
          1 00002D  0F81 002A                            B        s:490+2,PREL

     1434      484    2         Y@MRK$ = PINCRW(Y@MRK$, -SIZEW(KA$OTPMRK));

    484   1 00002F  ECC7 000C                            LDB,B6   Y@MRK$,AUTO
          1 000031  DBC6 FFFC                            LAB,B5   -4,B6
          1 000033  DFC7 000C                            STB,B5   Y@MRK$,AUTO

     1435      485    2         KV@VDH_OTPMRK.DAT = KA$OTPMRK.DAT;

    485   1 000035  AB85                                 LAB,B2   ,B5
PL6.E3A0      #011=KAO$MRK File=KAO$OTP.:E05TSI                                  WED 07/30/97 00:04 Page:244
          1 000036  2C00                                 LDV,R2   0
          1 000037  6C06                                 LDV,R6   6
          1 000038  BB87                                 LAB,B3   ,AUTO
          1 000039  3C0E                                 LDV,R3   14
          1 00003A  0008                                 MMM

     1436      486    2         IF Y@BYTCNT >= KA$OTPMRK.BYTCNT THEN

    486   1 00003B  ECC7 000C                            LDB,B6   Y@MRK$,AUTO
          1 00003D  E847 000B                            LDR,R6   Y@BYTCNT,AUTO
          1 00003F  E946 0003                            CMR,R6   3,B6
          1 000041  0801 0005                            BAL      s:488,PREL

     1437      487    2         KV@VDH_OTPMRK.CMPCOD = %KV_CMPCOD_NRM;

    487   1 000043  8747 000A                            CL       KV@VDH_OTPMRK+4,AUTO
          1 000045  0F81 0004                            B        s:489,PREL

     1438      488    2         ELSE KV@VDH_OTPMRK.CMPCOD = %KV_CMPCOD_DLT;

    488   1 000047  5C0C                                 LDV,R5   12
          1 000048  DF47 000A                            STR,R5   KV@VDH_OTPMRK+4,AUTO

     1439      489    2         CALL KVV$VDI(KV@VDH_OTPMRK);

    489   1 00004A  CBC7 0006                            LAB,B4   KV@VDH_OTPMRK,AUTO
          1 00004C  CFC7 0010                            STB,B4   I+2,AUTO
          1 00004E  BBC7 0010                            LAB,B3   I+2,AUTO
          1 000050  CBF0 0100                            LAB,B4   256,IMO
          1 000052  E380 0000 0000  xent                 LNJ,B6   KVV$VDI
          1 000055       0001                            DC       s:490,PREL

     1440      490    2      END; /* DO I = .... */

    490   1 000056  8AC7 000E                            INC      I,AUTO
          1 000058  ECC7 0004                            LDB,B6   @KA$OTPBFR,AUTO
          1 00005A  E846 0003                            LDR,R6   3,B6
PL6.E3A0      #011=KAO$MRK File=KAO$OTP.:E05TSI                                  WED 07/30/97 00:04 Page:245
          1 00005C  604A                                 SOR,R6   10
          1 00005D  E947 000E                            CMR,R6   I,AUTO
          1 00005F  0350                                 BG       s:484,SPREL

     1441      491    1      RETURN;

    491   1 000060  C380 0000 0000  xent                 LNJ,B4   X6A_ARET
     1442      492    1   END KAO$MRK;

PL6.E3A0      #011=KAO$MRK File=KAO$OTP.:E05TSI                                  WED 07/30/97 00:04 Page:246
--  Include file information  --

   KA$GLB.:E05TOU  is referenced.
   KA_GLB_E.:E05TOU  is referenced.
   KV_PRMID_E.:E05TOU  was found in the system file and is never referenced.
   KV_GLBCNS_E.:E05TOU  was found in the system file and is referenced.
   KV$VDO.:E05TOU  was found in the system file and is never referenced.
   KV$VDH.:E05TOU  was found in the system file and is referenced.
   KV$USR.:E05TOU  was found in the system file and is never referenced.
   KV$SND.:E05TOU  was found in the system file and is never referenced.
   KV$INT.:E05TOU  was found in the system file and is never referenced.
   KV$GLBCTX.:E05TOU  was found in the system file and is never referenced.
   KV$GLB.:E05TOU  was found in the system file and is referenced.
   G_LCP6_E.:E05TOU  was found in the system file and is never referenced.
   GT_LCP6_M.:E05TOU  was found in the system file and is never referenced.
   KI_CP6.:E05TOU  was found in the system file and is never referenced.
   GF_LCP6_M.:E05TOU  was found in the system file and is never referenced.
   GM_LCP6_M.:E05TOU  was found in the system file and is never referenced.
   GU_LCP6_M.:E05TOU  was found in the system file and is never referenced.
   GJ_LCP6_M.:E05TOU  was found in the system file and is never referenced.
   GH_LCP6_M.:E05TOU  was found in the system file and is never referenced.
      No diagnostics issued in procedure KAO$MRK.
PL6.E3A0      #011=KAO$MRK File=KAO$OTP.:E05TSI                                  WED 07/30/97 00:04 Page:247

 **** Variables and constants ****

  ****  Section 000 RoData KAO$MRK

  ****  Scalars and arrays  ****
HexLoc.c.b A Datatyp(siz) R M Lvl/name                 HexLoc.c.b A Datatyp(siz) R M Lvl/name

     0-0-0/w STRC(80)    r     1 KV_VDH_OTPMRK
     5-0-0/w SBIN(16)    r     1 Y_POWER_OF_2(0:15)

  ****  Auto variables  ****

  ****  Scalars and arrays  ****
HexLoc.c.b A Datatyp(siz) R M Lvl/name                 HexLoc.c.b A Datatyp(siz) R M Lvl/name

     4-0-0/w PTR         r     1 @KA$OTPBFR                 E-0-0/w UBIN(16)    r     1 I
    *0-0-0/w STRC(64)    r     1 KA$OTPBFR                  6-0-0/w STRC(80)    r     1 KV@VDH_OTPMRK
     B-0-0/w SBIN(16)    r     1 Y@BYTCNT                   C-0-0/w PTR         r     1 Y@MRK$

  ****  BASED and DCB variables  ****

  ****  Scalars and arrays  ****
HexLoc.c.b A Datatyp(siz) R M Lvl/name                 HexLoc.c.b A Datatyp(siz) R M Lvl/name

     0-0-0/w STRC(64)    r     1 KA$OTPMRK


   Procedure KAO$MRK requires 99 words for executable code.
   Procedure KAO$MRK requires 18 words of local(AUTO) storage.

    No errors detected in file KAO$OTP.:E05TSI    .
PL6.E3A0      #011=KAO$MRK File=KAO$OTP.:E05TSI                                  WED 07/30/97 00:04 Page:248
          *** CROSS REFERENCE LISTING ***
**     DENOTES     IDENTIFIER DEFINITION
<<                 IDENTIFIER'S VALUE SET
>>                 IDENTIFIER'S VALUE USED
<>                 IDENTIFIER SET AND/OR USED
--                 IDENTIFIER REFERENCED
PL6.E3A0      #011=KAO$MRK File=KAO$OTP.:E05TSI                                  WED 07/30/97 00:04 Page:249
          MINI XREF LISTING

I
       469**DCL       483<<DOINDEX
KA$OTPBFR
       425**DCL        33--PROC      482--ASSIGN
KA$OTPBFR.BYTCNT
       431**DCL       480>>ASSIGN
KA$OTPBFR.BYTSIZLOG2
       430**DCL       482>>ASSIGN
KA$OTPBFR.HLTOTP
       429**DCL       430--REDEF
KA$OTPBFR.NMBMRK
       431**DCL       476>>IF        483>>DOINDEX
KA$OTPMRK
       435**DCL       484--ASSIGN
KA$OTPMRK.BYTCNT
       463**DCL       486>>IF
KA$OTPMRK.DAT
       457**DCL       485>>ASSIGN
KA$OTPMRK.DAT.ID
       460**DCL       460--REDEF     461--REDEF
KV@VDH_OTPMRK
       142**DCL       481<<ASSIGN    489<>CALL
KV@VDH_OTPMRK.CMPCOD
       175**DCL       487<<ASSIGN    488<<ASSIGN
KV@VDH_OTPMRK.DAT
       169**DCL       485<<ASSIGN
KV@VDH_OTPMRK.DAT.ID
       172**DCL       172--REDEF     173--REDEF
KVV$VDI
       471**DCL-ENT   489--CALL
KV_VDH_OTPMRK
        80**DCL       481>>ASSIGN
PL6.E3A0      #011=KAO$MRK File=KAO$OTP.:E05TSI                                  WED 07/30/97 00:04 Page:250
KV_VDH_OTPMRK.DAT.ID
       110**DCL       110--REDEF     111--REDEF
Y@BYTCNT
       465**DCL       480<<ASSIGN    486>>IF
Y@MRK$
       466**DCL       435--IMP-PTR   482<<ASSIGN    484<<ASSIGN    484>>ASSIGN    485>>ASSIGN    486>>IF
Y_POWER_OF_2
       467**DCL       482>>ASSIGN
