VERSION E05

PL6.E3A0      #001=KAS$BOT File=KAS$BOT.:E05TSI                                  WED 07/30/97 00:00 Page:1
        1        1        /*M* KAS$BOT - Main routine for the ASYNC handler */
        2        2        /*T***********************************************************/
        3        3        /*T*                                                         */
        4        4        /*T* Copyright (c) Bull HN Information Systems Inc., 1997    */
        5        5        /*T*                                                         */
        6        6        /*T***********************************************************/
        7        7        /*X*     NSO,PLM=3,SQB=Y,AND=Y,ENI=0,SDI=3,MCL=10,CSI=0,ECI=0,IAD=3,IND=0 */
        8        8        KAS$BOT: PROC MAIN;
        9        9        /**/
       10       10        %INCLUDE G_JIT_M;
       11      275        %G$JIT_E;
       12      337        %INCLUDE LCP_6;
       13      528        %INCLUDE KV_ASCCHR_E;
       14      665        %INCLUDE KH$STT;
       15      695        %INCLUDE KH_MACRO_C;
       16     1438        %INCLUDE KL_CONTROL_C;
       17     1818        %INCLUDE KL_AFCN_C;
       18     1919        %INCLUDE KL_MACRO_C;
       19     5271        %INCLUDE K_ID_E;
       20     5321        %K#ENTID_E;
       21     5340        %INCLUDE KA_GLB;
       22     5417        %KA_MSC;
       23     5439 S      %INCLUDE KV_GLBCNS_E;
       24     5440 S      %INCLUDE KV_PRMID_E;
       25     5441        %INCLUDE KV$BPC;
       26     5470 S      %INCLUDE KV$VDH;
       27     5471 S      %INCLUDE KV$GLB;
       28     5472 S      %INCLUDE KV$GLBCTX;
       29     5473        %INCLUDE KV$PRM;
       30     5686 S      %INCLUDE KV$USR;
       31     5687        %KV$STT (NAME = KV_STT, STCLASS = SYMREF);
       32     6081        %KA_STT (NAME = KA_STT, STCLASS = SYMREF);
       33     6444        /**/
       34     6445        %KV$VDH_VDHINT (STCLASS=STATIC);
       35     6464        %VLP_PRIV (FPTN=PRIVS, MSYS=ON, INTCON=ON, CQ=ON, SCREECH=ON, SNAP=ON, EXMM=ON);
       36     6493        %FPT_SPRIV (AUTH=YES,PRC=YES,PRIV=PRIVS);
       37     6516        %FPT_INTCON (FPTN=FPT_INTCON_INP, IENTRY=KAI$INP,
PL6.E3A0      #001=KAS$BOT File=KAS$BOT.:E05TSI                                  WED 07/30/97 00:00 Page:2
       38     6517         PRIVILEGED=YES);
       39     6538        %FPT_INTCON (FPTN=FPT_INTCON_OTP, IENTRY=KAO$OTP,
       40     6539         PRIVILEGED=YES);
       41     6560        %FPT_GDS (RESULTS=SEGMENT,
       42     6561         IOBUF=YES);
       43     6585        %VLP_SEGMENT (FPTN=SEGMENT);
       44     6606        %KV_PRMID_E;
       45     6762        %KV_STRTYP_E;
       46     6800        /**/
       47     6801    1   DCL KAA$ADM ENTRY(1) ALTRET;
       48     6802    1   DCL Y_ADMPTR EPTR CONSTANT INIT(ENTADDR(KAA$ADM));
       49     6803    1   DCL KAA$INIT ENTRY ALTRET;
       50     6804        %KH_ENTDEFS;
       51     6811    1   DCL KAI$INP ENTRY ASYNC;
       52     6812    1   DCL KAO$OTP ENTRY ASYNC;
       53     6813    1   DCL KVV$VDHINT ENTRY(1) ALTRET;
       54     6814    1   DCL KVM$RCV ENTRY;
       55     6815        /**/
       56     6816    1   DCL KH_CTLTBL$ PTR SYMREF;
       57     6817        %KH$CTLTBL (FPTN=KH_CTLTBL,STCLASS="CONSTANT SYMDEF",
       58     6818         INTLVL = KA_INT_LEV,
       59     6819         MEM = KA_MEM,
       60     6820         RES = KA_RES,
       61     6821         ATTR = KA_ATTR,
       62     6822         VDHTRC = KA_VDHTRCBFRBYTSIZ,
       63     6823         RCVCQBYTSIZ = KV$VDH_VDHINT.RCVCQ_BYTSIZ,
       64     6824         SNDCQBYTSIZ = KV$VDH_VDHINT.SNDCQ_BYTSIZ,
       65     6825         BLOCK = KA_OTPBLKLMT,
       66     6826         UNBLOCK = KA_OTPUN_BLKLMT,
       67     6827         OTPBFRBYTSIZBIG = KA_OTPBFRBYTSIZ_BIG,
       68     6828         OTPBFRBYTSIZSML = KA_OTPBFRBYTSIZ_SML,
       69     6829         MMRINTCHC = KV$VDH_VDHINT.DBG,
       70     6830         LINERRLOGLMT = KA_LINERRLOGLMT,
       71     6831         LINERRDSCLMT = KA_LINERRDSCLMT,
       72     6832         HIPARM=KL_ASYNC_HI);
       73     7044        /**/
       74     7045        /*N*
PL6.E3A0      #001=KAS$BOT File=KAS$BOT.:E05TSI                                  WED 07/30/97 00:00 Page:3
       75     7046        DCL the following as SYMREF here. It may be done in an include
       76     7047        file later.
       77     7048        */
       78     7049    1   DCL KA_INT_LEV UBIN SYMREF;
       79     7050    1   DCL KA_MEM UBIN SYMREF;
       80     7051    1   DCL KA_RES CHAR(2) WALIGNED SYMREF;
       81     7052    1   DCL KA_ATTR BIT(16) SYMREF;
       82     7053    1   DCL KV_SSNCNT UBIN SYMREF;
       83     7054
       84     7055        %EJECT;
PL6.E3A0      #001=KAS$BOT File=KAS$BOT.:E05TSI                                  WED 07/30/97 00:00 Page:4
       85     7056    1      CALL M$SPRIV(FPT_SPRIV) ALTRET(BAD_NEWS);
       86     7057    1      CALL KHA$INIT ALTRET(BAD_NEWS);
       87     7058    1      KH_CTLTBL$ = ADDR(KH_CTLTBL);
       88     7059    1      CALL KHA$INIT_CONTROL(KH_CTLTBL) ALTRET(BAD_NEWS);
       89     7060    1      CALL KAA$INIT;             /* CONVERT OTPBFRBYTSIZES TO LOG VALUES, TOO    */
       90     7061    1      FPT_GDS.V.PAGES = KA_MEM;
       91     7062    1      CALL M$GDS(FPT_GDS) ALTRET(BAD_NEWS);
       92     7063    1      CALL M$SYS ALTRET(BAD_NEWS);
       93     7064
       94     7065    1      KV_STT.REQSTATS.SLCENT(%KH#ENTID_ASYNC) = '1'B;
       95     7066    1      KV_STT.REQSTATS.SLCENT(%KH#ENTID_VDH) = '1'B;
       96     7067    1      KV_STT.REQSTATS.DSPENT(%KH#ENTID_VDH) = '1'B;
       97     7068
       98     7069    1      KV$VDH_VDHINT.BFRBGN$ = SEGMENT.BASE$;
       99     7070    1      KV$VDH_VDHINT.BFREND$ = PINCRW(SEGMENT.BASE$,SEGMENT.PAGES*256);
      100     7071    1      CALL KVV$VDHINT(KV$VDH_VDHINT) ALTRET(BAD_NEWS);
      101     7072        /* Establish the interupt connections */
      102     7073    1      FPT_INTCON_INP.V.RUNLEVEL = KA_INT_LEV;
      103     7074    1      FPT_INTCON_INP.V.LEVEL = KA_INT_LEV + 1;
      104     7075    1      CALL M$INTCON(FPT_INTCON_INP) ALTRET(BAD_NEWS);
      105     7076    1      FPT_INTCON_OTP.V.RUNLEVEL = KA_INT_LEV;
      106     7077    1      FPT_INTCON_OTP.V.LEVEL = KA_INT_LEV + 2;
      107     7078    1      CALL M$INTCON(FPT_INTCON_OTP) ALTRET(BAD_NEWS);
      108     7079    1      CALL KHA$INIT_CHANTBL(KA_RES,KA_ATTR,Y_ADMPTR) ALTRET(BAD_NEWS);
      109     7080    1      CALL KHA$INIT_DONE ALTRET(BAD_NEWS);
      110     7081    1      KV_SSNCNT = 0;
      111     7082
      112     7083         /* Now exit to VDH - this call never returns */
      113     7084    1      CALL KVM$RCV;
      114     7085    1      RETURN;
      115     7086    1   BAD_NEWS:;
      116     7087    1      CALL M$XXX;
      117     7088    1   END KAS$BOT;

PL6.E3A0      #001=KAS$BOT File=KAS$BOT.:E05TSI                                  WED 07/30/97 00:00 Page:5
--  Include file information  --

   KV$PRM.:E05TOU  is referenced.
   KV$BPC.:E05TOU  is referenced.
   KA_GLB.:E05TOU  is referenced.
   K_ID_E.:E05TOU  is referenced.
   KL_MACRO_C.:E05TOU  is referenced.
   KL_AFCN_C.:E05TOU  is referenced.
   KL_CONTROL_C.:E05TOU  is referenced.
   KH_MACRO_C.:E05TOU  is referenced.
   KH$STT.:E05TOU  is referenced.
   KV_ASCCHR_E.:E05TOU  is referenced.
   LCP_6.:E05TOU  cannot be made into a system file and is referenced.
   G_JIT_M.:E05TOU  is referenced.
   KV_PRMID_E.:E05TOU  was found in the system file and is referenced.
   KV_GLBCNS_E.:E05TOU  was found in the system file and is referenced.
   KV$VDO.:E05TOU  was found in the system file and is never referenced.
   KV$VDH.:E05TOU  was found in the system file and is referenced.
   KV$USR.:E05TOU  was found in the system file and is referenced.
   KV$SND.:E05TOU  was found in the system file and is never referenced.
   KV$INT.:E05TOU  was found in the system file and is never referenced.
   KV$GLBCTX.:E05TOU  was found in the system file and is referenced.
   KV$GLB.:E05TOU  was found in the system file and is referenced.
   G_LCP6_E.:E05TOU  was found in the system file and is referenced.
   GT_LCP6_M.:E05TOU  was found in the system file and is referenced.
   KI_CP6.:E05TOU  was found in the system file and is referenced.
   GF_LCP6_M.:E05TOU  was found in the system file and is referenced.
   GM_LCP6_M.:E05TOU  was found in the system file and is referenced.
   GU_LCP6_M.:E05TOU  was found in the system file and is referenced.
   GJ_LCP6_M.:E05TOU  was found in the system file and is referenced.
   GH_LCP6_M.:E05TOU  was found in the system file and is referenced.
      No diagnostics issued in procedure KAS$BOT.

   Procedure KAS$BOT requires 161 words for executable code.
   Procedure KAS$BOT requires 4 words of local(AUTO) storage.
PL6.E3A0      #001=KAS$BOT File=KAS$BOT.:E05TSI                                  WED 07/30/97 00:00 Page:6

    No errors detected in file KAS$BOT.:E05TSI    .

PL6.E3A0      #001=KAS$BOT File=KAS$BOT.:E05TSI                                  WED 07/30/97 00:00 Page:7

 Object Unit name= KAS$BOT                                    File name= KAS$BOT.:E05TOU
 UTS= JUL 30 '97 00:00:18.80 WED                              Compiler= PL-6/E31         Sev=      00
 SharedLib= :SHARED_LCP6_SYSTEM                               Alt SharedLib=


    ****  Control sections  ****

 Sect   Type Bound  Init  Size HexSiz  Section name
    0   Data  even  none    49     31  KAS$BOT
    1  RoData even  UTS     99     63  KAS$BOT
    2   Proc  even  none   161     A1  KAS$BOT
    3  RoData even  none    10      A  KAS$BOT

    ****  Entry defs  ****

                              Check   Calling
                             calling  sequence
  Sect HexLoc Primary Altret sequence   type   Parms  Name
     2      0   yes            yes      Main       0  KAS$BOT

  ****  Data defs  ****

 Sect HexLoc  Name                           Sect HexLoc  Name
    1      2  KH_CTLTBL
PL6.E3A0      #001=KAS$BOT File=KAS$BOT.:E05TSI                                  WED 07/30/97 00:00 Page:8

  ****  Entry refs  ****

         Check        Calling
        calling       sequence
Altret sequence SRef   type   Args  Name
         yes          Async      0 KAI$INP
         yes          Async      0 KAO$OTP
 yes     yes           Std       1 KAA$ADM
 yes     yes           Std       3 KHA$INIT_DONE
 yes     yes           Std       3 KHA$INIT
 yes     yes           Std       3 KHA$INIT_CHANTBL
         yes           Std       0 KVM$RCV
 yes     yes           Std       0 KAA$INIT
 yes     yes           Std       1 KVV$VDHINT
 yes     yes           Std       3 KHA$INIT_CONTROL
                       nStd      0 X6A_MAUTO
                       nStd      0 X6A_MARET

  ****  Data refs  ****

  Flags:  r = read only, s = secondary
Flgs Name                             Flgs Name                             Flgs Name
     KA_OTPBFRBYTSIZ_BIG                   KA_OTPBFRBYTSIZ_SML                   KA_OTPUN_BLKLMT
     KA_OTPBLKLMT                          KA_VDHTRCBFRBYTSIZ                    KA_LINERRDSCLMT
     KA_LINERRLOGLMT                       KV_STT                                KH_CTLTBL$
     KA_INT_LEV                            KA_MEM                                KA_RES
     KA_ATTR                               KV_SSNCNT                        r    G$ROS$
PL6.E3A0      #001=KAS$BOT File=KAS$BOT.:E05TSI                                  WED 07/30/97 00:00 Page:9


        1        1        /*M* KAS$BOT - Main routine for the ASYNC handler */
        2        2        /*T***********************************************************/
        3        3        /*T*                                                         */
        4        4        /*T* Copyright (c) Bull HN Information Systems Inc., 1997    */
        5        5        /*T*                                                         */
        6        6        /*T***********************************************************/
        7        7        /*X*     NSO,PLM=3,SQB=Y,AND=Y,ENI=0,SDI=3,MCL=10,CSI=0,ECI=0,IAD=3,IND=0 */
        8        8        KAS$BOT: PROC MAIN;

      8   2 000000  D380 0000 0000  xent KAS$BOT         LNJ,B5   X6A_MAUTO
          2 000003       0004 0000                       DC       4,0

        9        9        /**/
       10       10        %INCLUDE G_JIT_M;
       11      275        %G$JIT_E;
       12      337        %INCLUDE LCP_6;
       13      528        %INCLUDE KV_ASCCHR_E;
       14      665        %INCLUDE KH$STT;
       15      695        %INCLUDE KH_MACRO_C;
       16     1438        %INCLUDE KL_CONTROL_C;
       17     1818        %INCLUDE KL_AFCN_C;
       18     1919        %INCLUDE KL_MACRO_C;
       19     5271        %INCLUDE K_ID_E;
       20     5321        %K#ENTID_E;
       21     5340        %INCLUDE KA_GLB;
       22     5417        %KA_MSC;
       23     5439 S      %INCLUDE KV_GLBCNS_E;
       24     5440 S      %INCLUDE KV_PRMID_E;
       25     5441        %INCLUDE KV$BPC;
       26     5470 S      %INCLUDE KV$VDH;
       27     5471 S      %INCLUDE KV$GLB;
       28     5472 S      %INCLUDE KV$GLBCTX;
       29     5473        %INCLUDE KV$PRM;
       30     5686 S      %INCLUDE KV$USR;
       31     5687        %KV$STT (NAME = KV_STT, STCLASS = SYMREF);
       32     6081        %KA_STT (NAME = KA_STT, STCLASS = SYMREF);
PL6.E3A0      #001=KAS$BOT File=KAS$BOT.:E05TSI                                  WED 07/30/97 00:00 Page:10
       33     6444        /**/
       34     6445        %KV$VDH_VDHINT (STCLASS=STATIC);
       35     6464        %VLP_PRIV (FPTN=PRIVS, MSYS=ON, INTCON=ON, CQ=ON, SCREECH=ON, SNAP=ON, EXMM=ON);
       36     6493        %FPT_SPRIV (AUTH=YES,PRC=YES,PRIV=PRIVS);
       37     6516        %FPT_INTCON (FPTN=FPT_INTCON_INP, IENTRY=KAI$INP,
       38     6517         PRIVILEGED=YES);
       39     6538        %FPT_INTCON (FPTN=FPT_INTCON_OTP, IENTRY=KAO$OTP,
       40     6539         PRIVILEGED=YES);
       41     6560        %FPT_GDS (RESULTS=SEGMENT,
       42     6561         IOBUF=YES);
       43     6585        %VLP_SEGMENT (FPTN=SEGMENT);
       44     6606        %KV_PRMID_E;
       45     6762        %KV_STRTYP_E;
       46     6800        /**/
       47     6801    1   DCL KAA$ADM ENTRY(1) ALTRET;
       48     6802    1   DCL Y_ADMPTR EPTR CONSTANT INIT(ENTADDR(KAA$ADM));
       49     6803    1   DCL KAA$INIT ENTRY ALTRET;
       50     6804        %KH_ENTDEFS;
       51     6811    1   DCL KAI$INP ENTRY ASYNC;
       52     6812    1   DCL KAO$OTP ENTRY ASYNC;
       53     6813    1   DCL KVV$VDHINT ENTRY(1) ALTRET;
       54     6814    1   DCL KVM$RCV ENTRY;
       55     6815        /**/
       56     6816    1   DCL KH_CTLTBL$ PTR SYMREF;
       57     6817        %KH$CTLTBL (FPTN=KH_CTLTBL,STCLASS="CONSTANT SYMDEF",
       58     6818         INTLVL = KA_INT_LEV,
       59     6819         MEM = KA_MEM,
       60     6820         RES = KA_RES,
       61     6821         ATTR = KA_ATTR,
       62     6822         VDHTRC = KA_VDHTRCBFRBYTSIZ,
       63     6823         RCVCQBYTSIZ = KV$VDH_VDHINT.RCVCQ_BYTSIZ,
       64     6824         SNDCQBYTSIZ = KV$VDH_VDHINT.SNDCQ_BYTSIZ,
       65     6825         BLOCK = KA_OTPBLKLMT,
       66     6826         UNBLOCK = KA_OTPUN_BLKLMT,
       67     6827         OTPBFRBYTSIZBIG = KA_OTPBFRBYTSIZ_BIG,
       68     6828         OTPBFRBYTSIZSML = KA_OTPBFRBYTSIZ_SML,
       69     6829         MMRINTCHC = KV$VDH_VDHINT.DBG,
PL6.E3A0      #001=KAS$BOT File=KAS$BOT.:E05TSI                                  WED 07/30/97 00:00 Page:11
       70     6830         LINERRLOGLMT = KA_LINERRLOGLMT,
       71     6831         LINERRDSCLMT = KA_LINERRDSCLMT,
       72     6832         HIPARM=KL_ASYNC_HI);
       73     7044        /**/
       74     7045        /*N*
       75     7046        DCL the following as SYMREF here. It may be done in an include
       76     7047        file later.
       77     7048        */
       78     7049    1   DCL KA_INT_LEV UBIN SYMREF;
       79     7050    1   DCL KA_MEM UBIN SYMREF;
       80     7051    1   DCL KA_RES CHAR(2) WALIGNED SYMREF;
       81     7052    1   DCL KA_ATTR BIT(16) SYMREF;
       82     7053    1   DCL KV_SSNCNT UBIN SYMREF;
       83     7054
       84     7055        %EJECT;
PL6.E3A0      #001=KAS$BOT File=KAS$BOT.:E05TSI                                  WED 07/30/97 00:00 Page:12
       85     7056    1      CALL M$SPRIV(FPT_SPRIV) ALTRET(BAD_NEWS);

   7056   2 000005  BB80 0000 000A  00                   LAB,B3   FPT_SPRIV
          2 000008  B870 0CD0                            LDR,R3   3280,IMO
          2 00000A  0001                                 MCL
          2 00000B       008F                            DC       s:7081,PREL

       86     7057    1      CALL KHA$INIT ALTRET(BAD_NEWS);

   7057   2 00000C  CBF0 0000                            LAB,B4   0,IMO
          2 00000E  E380 0000 0000  xent                 LNJ,B6   KHA$INIT
          2 000011       0089                            DC       s:7081,PREL

       87     7058    1      KH_CTLTBL$ = ADDR(KH_CTLTBL);

   7058   2 000012  EB80 0000 0002  01                   LAB,B6   KH_CTLTBL
          2 000015  EF80 0000 0000  xsym                 STB,B6   KH_CTLTBL$

       88     7059    1      CALL KHA$INIT_CONTROL(KH_CTLTBL) ALTRET(BAD_NEWS);

   7059   2 000018  BB80 0000 0000  03                   LAB,B3   0
          2 00001B  CBF0 0100                            LAB,B4   256,IMO
          2 00001D  E380 0000 0000  xent                 LNJ,B6   KHA$INIT_CONTROL
          2 000020       007A                            DC       s:7081,PREL

       89     7060    1      CALL KAA$INIT;             /* CONVERT OTPBFRBYTSIZES TO LOG VALUES, TOO    */

   7060   2 000021  CBF0 0000                            LAB,B4   0,IMO
          2 000023  E380 0000 0000  xent                 LNJ,B6   KAA$INIT
          2 000026       0001                            DC       s:7061,PREL

       90     7061    1      FPT_GDS.V.PAGES = KA_MEM;

   7061   2 000027  E800 0000 0000  xsym                 LDR,R6   KA_MEM
          2 00002A  EF00 0000 002C  00                   STR,R6   FPT_GDS+6

       91     7062    1      CALL M$GDS(FPT_GDS) ALTRET(BAD_NEWS);
PL6.E3A0      #001=KAS$BOT File=KAS$BOT.:E05TSI                                  WED 07/30/97 00:00 Page:13

   7062   2 00002D  BB80 0000 0026  00                   LAB,B3   FPT_GDS
          2 000030  B870 0902                            LDR,R3   2306,IMO
          2 000032  0001                                 MCL
          2 000033       0067                            DC       s:7081,PREL

       92     7063    1      CALL M$SYS ALTRET(BAD_NEWS);

   7063   2 000034  3C43                                 LDV,R3   67
          2 000035  0001                                 MCL
          2 000036       0064                            DC       s:7081,PREL

       93     7064
       94     7065    1      KV_STT.REQSTATS.SLCENT(%KH#ENTID_ASYNC) = '1'B;

   7065   2 000037  8900 0000 0012  xsym                 LBT,'4000'X       KV_STT+18
   7065   2 00003A       4000

       95     7066    1      KV_STT.REQSTATS.SLCENT(%KH#ENTID_VDH) = '1'B;

   7066   2 00003B  8900 0000 0012  xsym                 LBT,'0020'X       KV_STT+18
   7066   2 00003E       0020

       96     7067    1      KV_STT.REQSTATS.DSPENT(%KH#ENTID_VDH) = '1'B;

   7067   2 00003F  8900 0000 0010  xsym                 LBT,'0020'X       KV_STT+16
   7067   2 000042       0020

       97     7068
       98     7069    1      KV$VDH_VDHINT.BFRBGN$ = SEGMENT.BASE$;

   7069   2 000043  EC80 0000 002E  00                   LDB,B6   SEGMENT
          2 000046  EF80 0000 0000  00                   STB,B6   KV$VDH_VDHINT

       99     7070    1      KV$VDH_VDHINT.BFREND$ = PINCRW(SEGMENT.BASE$,SEGMENT.PAGES*256);

   7070   2 000049  F800 0000 0030  00                   LDR,R7   SEGMENT+2
PL6.E3A0      #001=KAS$BOT File=KAS$BOT.:E05TSI                                  WED 07/30/97 00:00 Page:14
          2 00004C  6C00                                 LDV,R6   0
          2 00004D  7088                                 DOL,R7   8
          2 00004E  8400 0000 002E  00                   AID      SEGMENT
          2 000051  8D00 0000 0002  00                   SDI      KV$VDH_VDHINT+2

      100     7071    1      CALL KVV$VDHINT(KV$VDH_VDHINT) ALTRET(BAD_NEWS);

   7071   2 000054  BB80 0000 0002  03                   LAB,B3   +2
          2 000057  CBF0 0100                            LAB,B4   256,IMO
          2 000059  E380 0000 0000  xent                 LNJ,B6   KVV$VDHINT
          2 00005C       003E                            DC       s:7081,PREL

      101     7072        /* Establish the interupt connections */
      102     7073    1      FPT_INTCON_INP.V.RUNLEVEL = KA_INT_LEV;

   7073   2 00005D  E800 0000 0000  xsym                 LDR,R6   KA_INT_LEV
          2 000060  EF00 0000 001A  00                   STR,R6   FPT_INTCON_INP+6

      103     7074    1      FPT_INTCON_INP.V.LEVEL = KA_INT_LEV + 1;

   7074   2 000063  6E01                                 ADV,R6   1
          2 000064  EF00 0000 0019  00                   STR,R6   FPT_INTCON_INP+5

      104     7075    1      CALL M$INTCON(FPT_INTCON_INP) ALTRET(BAD_NEWS);

   7075   2 000067  BB80 0000 0014  00                   LAB,B3   FPT_INTCON_INP
          2 00006A  B870 0441                            LDR,R3   1089,IMO
          2 00006C  0001                                 MCL
          2 00006D       002D                            DC       s:7081,PREL

      105     7076    1      FPT_INTCON_OTP.V.RUNLEVEL = KA_INT_LEV;

   7076   2 00006E  E800 0000 0000  xsym                 LDR,R6   KA_INT_LEV
          2 000071  EF00 0000 0023  00                   STR,R6   FPT_INTCON_OTP+6

      106     7077    1      FPT_INTCON_OTP.V.LEVEL = KA_INT_LEV + 2;

PL6.E3A0      #001=KAS$BOT File=KAS$BOT.:E05TSI                                  WED 07/30/97 00:00 Page:15
   7077   2 000074  6E02                                 ADV,R6   2
          2 000075  EF00 0000 0022  00                   STR,R6   FPT_INTCON_OTP+5

      107     7078    1      CALL M$INTCON(FPT_INTCON_OTP) ALTRET(BAD_NEWS);

   7078   2 000078  BB80 0000 001D  00                   LAB,B3   FPT_INTCON_OTP
          2 00007B  B870 0441                            LDR,R3   1089,IMO
          2 00007D  0001                                 MCL
          2 00007E       001C                            DC       s:7081,PREL

      108     7079    1      CALL KHA$INIT_CHANTBL(KA_RES,KA_ATTR,Y_ADMPTR) ALTRET(BAD_NEWS);

   7079   2 00007F  BB80 0000 0004  03                   LAB,B3   +4
          2 000082  CBF0 0300                            LAB,B4   768,IMO
          2 000084  E380 0000 0000  xent                 LNJ,B6   KHA$INIT_CHANTBL
          2 000087       0013                            DC       s:7081,PREL

      109     7080    1      CALL KHA$INIT_DONE ALTRET(BAD_NEWS);

   7080   2 000088  CBF0 0000                            LAB,B4   0,IMO
          2 00008A  E380 0000 0000  xent                 LNJ,B6   KHA$INIT_DONE
          2 00008D       000D                            DC       s:7081,PREL

      110     7081    1      KV_SSNCNT = 0;

   7081   2 00008E  8700 0000 0000  xsym                 CL       KV_SSNCNT

      111     7082
      112     7083         /* Now exit to VDH - this call never returns */
      113     7084    1      CALL KVM$RCV;

   7084   2 000091  CBF0 0000                            LAB,B4   0,IMO
          2 000093  E380 0000 0000  xent                 LNJ,B6   KVM$RCV
          2 000096       0001                            DC       s:7085,PREL

      114     7085    1      RETURN;

PL6.E3A0      #001=KAS$BOT File=KAS$BOT.:E05TSI                                  WED 07/30/97 00:00 Page:16
   7085   2 000097  C380 0000 0000  xent                 LNJ,B4   X6A_MARET

   7081   2                              BAD_NEWS        null
      115     7086    1   BAD_NEWS:;
      116     7087    1      CALL M$XXX;

   7087   2 00009A  B870 0082            BAD_NEWS        LDR,R3   130,IMO
          2 00009C  0001                                 MCL
          2 00009D       0000                            DC       s:7081+3,PREL

      117     7088    1   END KAS$BOT;

   7088   2 00009E  C380 0000 0000  xent                 LNJ,B4   X6A_MARET

PL6.E3A0      #001=KAS$BOT File=KAS$BOT.:E05TSI                                  WED 07/30/97 00:00 Page:17
--  Include file information  --

   KV$PRM.:E05TOU  is referenced.
   KV$BPC.:E05TOU  is referenced.
   KA_GLB.:E05TOU  is referenced.
   K_ID_E.:E05TOU  is referenced.
   KL_MACRO_C.:E05TOU  is referenced.
   KL_AFCN_C.:E05TOU  is referenced.
   KL_CONTROL_C.:E05TOU  is referenced.
   KH_MACRO_C.:E05TOU  is referenced.
   KH$STT.:E05TOU  is referenced.
   KV_ASCCHR_E.:E05TOU  is referenced.
   LCP_6.:E05TOU  cannot be made into a system file and is referenced.
   G_JIT_M.:E05TOU  is referenced.
   KV_PRMID_E.:E05TOU  was found in the system file and is referenced.
   KV_GLBCNS_E.:E05TOU  was found in the system file and is referenced.
   KV$VDO.:E05TOU  was found in the system file and is never referenced.
   KV$VDH.:E05TOU  was found in the system file and is referenced.
   KV$USR.:E05TOU  was found in the system file and is referenced.
   KV$SND.:E05TOU  was found in the system file and is never referenced.
   KV$INT.:E05TOU  was found in the system file and is never referenced.
   KV$GLBCTX.:E05TOU  was found in the system file and is referenced.
   KV$GLB.:E05TOU  was found in the system file and is referenced.
   G_LCP6_E.:E05TOU  was found in the system file and is referenced.
   GT_LCP6_M.:E05TOU  was found in the system file and is referenced.
   KI_CP6.:E05TOU  was found in the system file and is referenced.
   GF_LCP6_M.:E05TOU  was found in the system file and is referenced.
   GM_LCP6_M.:E05TOU  was found in the system file and is referenced.
   GU_LCP6_M.:E05TOU  was found in the system file and is referenced.
   GJ_LCP6_M.:E05TOU  was found in the system file and is referenced.
   GH_LCP6_M.:E05TOU  was found in the system file and is referenced.
      No diagnostics issued in procedure KAS$BOT.
PL6.E3A0      #001=KAS$BOT File=KAS$BOT.:E05TSI                                  WED 07/30/97 00:00 Page:18

 **** Variables and constants ****

  ****  Section 000  Data  KAS$BOT

  ****  Scalars and arrays  ****
HexLoc.c.b A Datatyp(siz) R M Lvl/name                 HexLoc.c.b A Datatyp(siz) R M Lvl/name

    26-0-0/w STRC(128)   r     1 FPT_GDS                   14-0-0/w STRC(144)   r     1 FPT_INTCON_INP
    1D-0-0/w STRC(144)   r     1 FPT_INTCON_OTP             A-0-0/w STRC(160)   r     1 FPT_SPRIV
     0-0-0/w STRC(128)   r     1 KV$VDH_VDHINT              8-0-0/w STRC(32)    r     1 PRIVS
    2E-0-0/w STRC(48)    r     1 SEGMENT

  ****  Section 001 RoData KAS$BOT

  ****  Scalars and arrays  ****
HexLoc.c.b A Datatyp(siz) R M Lvl/name                 HexLoc.c.b A Datatyp(siz) R M Lvl/name

     2-0-0/w STRC(1552)  r     1 KH_CTLTBL                  0-0-0/w EPTR        r     1 Y_ADMPTR

  ****  SYMREF variables  ****

  ****  Scalars and arrays  ****
HexLoc.c.b A Datatyp(siz) R M Lvl/name                 HexLoc.c.b A Datatyp(siz) R M Lvl/name

     0-0-0/b BIT (16)    r     1 KA_ATTR                    0-0-0/w UBIN(16)    r     1 KA_INT_LEV
     0-0-0/w UBIN(16)    r     1 KA_LINERRDSCLMT            0-0-0/w UBIN(16)    r     1 KA_LINERRLOGLMT
     0-0-0/w UBIN(16)    r     1 KA_MEM                     0-0-0/w UBIN(16)    r     1 KA_OTPBFRBYTSIZ_BIG
     0-0-0/w UBIN(16)    r     1 KA_OTPBFRBYTSIZ_SML
     0-0-0/w UBIN(16)    r     1 KA_OTPBLKLMT(0:15)
     0-0-0/w UBIN(16)    r     1 KA_OTPUN_BLKLMT(0:15)
     0-0-0/w CHAR(2)     r     1 KA_RES                     0-0-0/w UBIN(16)    r     1 KA_VDHTRCBFRBYTSIZ
     0-0-0/w PTR         r     1 KH_CTLTBL$                 0-0-0/w UBIN(16)    r     1 KV_SSNCNT
     0-0-0/w STRC(8960)  r     1 KV_STT


   Procedure KAS$BOT requires 161 words for executable code.
PL6.E3A0      #001=KAS$BOT File=KAS$BOT.:E05TSI                                  WED 07/30/97 00:00 Page:19
   Procedure KAS$BOT requires 4 words of local(AUTO) storage.

    No errors detected in file KAS$BOT.:E05TSI    .
PL6.E3A0      #001=KAS$BOT File=KAS$BOT.:E05TSI                                  WED 07/30/97 00:00 Page:20
          *** CROSS REFERENCE LISTING ***
**     DENOTES     IDENTIFIER DEFINITION
<<                 IDENTIFIER'S VALUE SET
>>                 IDENTIFIER'S VALUE USED
<>                 IDENTIFIER SET AND/OR USED
--                 IDENTIFIER REFERENCED
PL6.E3A0      #001=KAS$BOT File=KAS$BOT.:E05TSI                                  WED 07/30/97 00:00 Page:21
          MINI XREF LISTING

BAD_NEWS
      7081**LABEL    7056--CALLALT  7057--CALLALT  7059--CALLALT  7062--CALLALT  7063--CALLALT  7071--CALLALT
      7075--CALLALT  7078--CALLALT  7079--CALLALT  7080--CALLALT
FPT_GDS
      6574**DCL      7062<>CALL
FPT_GDS.V
      6577**DCL      6577--DCLINIT
FPT_GDS.V.PAGES
      6581**DCL      7061<<ASSIGN
FPT_INTCON_INP
      6530**DCL      7075<>CALL
FPT_INTCON_INP.V
      6534**DCL      6532--DCLINIT
FPT_INTCON_INP.V.LEVEL
      6534**DCL      7074<<ASSIGN
FPT_INTCON_INP.V.RUNLEVEL
      6534**DCL      7073<<ASSIGN
FPT_INTCON_OTP
      6552**DCL      7078<>CALL
FPT_INTCON_OTP.V
      6556**DCL      6554--DCLINIT
FPT_INTCON_OTP.V.LEVEL
      6556**DCL      7077<<ASSIGN
FPT_INTCON_OTP.V.RUNLEVEL
      6556**DCL      7076<<ASSIGN
FPT_SPRIV
      6506**DCL      7056<>CALL
FPT_SPRIV.V
      6508**DCL      6508--DCLINIT
KAA$ADM
      6801**DCL-ENT  6802--DCLINIT
KAA$INIT
PL6.E3A0      #001=KAS$BOT File=KAS$BOT.:E05TSI                                  WED 07/30/97 00:00 Page:22
      6803**DCL-ENT  7060--CALL
KAI$INP
      6811**DCL-ENT  6534--DCLINIT
KAO$OTP
      6812**DCL-ENT  6556--DCLINIT
KA_ATTR
      7052**DCL      6981--DCLINIT  7079<>CALL
KA_INT_LEV
      7049**DCL      6977--DCLINIT  7073>>ASSIGN   7074>>ASSIGN   7076>>ASSIGN   7077>>ASSIGN
KA_LINERRDSCLMT
      5436**DCL      6984--DCLINIT
KA_LINERRLOGLMT
      5436**DCL      6983--DCLINIT
KA_MEM
      7050**DCL      6978--DCLINIT  7061>>ASSIGN
KA_OTPBFRBYTSIZ_BIG
      5430**DCL      7009--DCLINIT
KA_OTPBFRBYTSIZ_SML
      5430**DCL      7007--DCLINIT
KA_OTPBLKLMT
      5432**DCL      7021--DCLINIT
KA_OTPUN_BLKLMT
      5431**DCL      7023--DCLINIT
KA_RES
      7051**DCL      6980--DCLINIT  7079<>CALL
KA_STT.REQSTATS.DSPMSK
      6342**DCL      6348--REDEF
KA_STT.REQSTATS.SLCMSK
      6383**DCL      6390--REDEF
KA_VDHTRCBFRBYTSIZ
      5435**DCL      6986--DCLINIT
KHA$INIT
      6806**DCL-ENT  7057--CALL
KHA$INIT_CHANTBL
      6808**DCL-ENT  7079--CALL
KHA$INIT_CONTROL
PL6.E3A0      #001=KAS$BOT File=KAS$BOT.:E05TSI                                  WED 07/30/97 00:00 Page:23
      6807**DCL-ENT  7059--CALL
KHA$INIT_DONE
      6809**DCL-ENT  7080--CALL
KH_CTLTBL
      6849**DCL      7058--ASSIGN   7059<>CALL
KH_CTLTBL$
      6816**DCL      7058<<ASSIGN
KV$VDH_VDHINT
      6458**DCL      7071<>CALL
KV$VDH_VDHINT.BFRBGN$
      6458**DCL      7069<<ASSIGN
KV$VDH_VDHINT.BFREND$
      6458**DCL      7070<<ASSIGN
KV$VDH_VDHINT.DBG
      6459**DCL      6991--DCLINIT
KV$VDH_VDHINT.RCVCQ_BYTSIZ
      6462**DCL      6989--DCLINIT
KV$VDH_VDHINT.SNDCQ_BYTSIZ
      6462**DCL      6990--DCLINIT
KVM$RCV
      6814**DCL-ENT  7084--CALL
KVV$VDHINT
      6813**DCL-ENT  7071--CALL
KV_SSNCNT
      7053**DCL      7081<<ASSIGN
KV_STT.REQSTATS.DSPENT
      5966**DCL      7067<<ASSIGN
KV_STT.REQSTATS.DSPMSK
      5960**DCL      5966--REDEF
KV_STT.REQSTATS.SLCENT
      6008**DCL      7065<<ASSIGN   7066<<ASSIGN
KV_STT.REQSTATS.SLCMSK
      6001**DCL      6008--REDEF
M$GDS
       504**DCL-ENT  7062--CALL
M$INTCON
PL6.E3A0      #001=KAS$BOT File=KAS$BOT.:E05TSI                                  WED 07/30/97 00:00 Page:24
       483**DCL-ENT  7075--CALL     7078--CALL
M$SPRIV
       498**DCL-ENT  7056--CALL
M$SYS
       484**DCL-ENT  7063--CALL
M$XXX
       487**DCL-ENT  7087--CALL
PRIVS
      6478**DCL      6508--DCLINIT
SEGMENT
      6599**DCL      6577--DCLINIT
SEGMENT.BASE
      6603**DCL      6603--REDEF
SEGMENT.BASE$
      6603**DCL      7069>>ASSIGN   7070>>ASSIGN
SEGMENT.PAGES
      6603**DCL      7070>>ASSIGN
Y_ADMPTR
      6802**DCL      7079<>CALL
