VERSION E05

PL6.E3A0      #001=KA_GLB_D File=KA_GLB_D.:E05TSI                                WED 07/30/97 00:04 Page:1
        1        1        /*M* KA_GLB_D Async handler global data */
        2        2        /*T***********************************************************/
        3        3        /*T*                                                         */
        4        4        /*T* Copyright (c) Bull HN Information Systems Inc., 1997    */
        5        5        /*T*                                                         */
        6        6        /*T***********************************************************/
        7        7        KA_GLB_D: PROC;
        8        8        /*
        9        9        INCLUDEs.
       10       10        */
       11       11 S      %INCLUDE G_LCP6_E;
       12       12        %INCLUDE KH$STT;  /* For KA_STT */
       13       42        %INCLUDE KL_AFCN_C;  /* For KA_STT/KV$STT */
       14      143        %INCLUDE KL_MACRO_C;  /* For KA_STT/KV$STT */
       15     3495        %INCLUDE K_ID_E;  /* For KA_STT/KV$STT */
       16     3545        %K#ENTID_E;  /* For KA_STT/KV$STT */
       17     3564        %K#LYRID_E;  /* For KA_STT/KV$STT */
       18     3571        %INCLUDE KV$BPC; /* For KA_STT */
       19     3600        %INCLUDE KV_GLB_M;
       20     3722        %INCLUDE KV_GLBASM_E;
       21     3740 S      %INCLUDE KV_GLBCNS_E;
       22     3741        %KV_STRTYP_E;
       23     3779        %INCLUDE KV_ASCCHR_E;
       24     3916        %KV_INPOPRX_E;
       25     3928 S      %INCLUDE KV_PRMID_E;
       26     3929        %KV_PRMID_E;
       27     4085 S      %INCLUDE KV$VDH;
       28     4086 S      %INCLUDE KV$GLBCTX;
       29     4087 S      %INCLUDE KV$GLB;
       30     4088        %INCLUDE KA_GLB_E;
       31     4166        %KA_HLTOTP_E;
       32     4175        %INCLUDE KA$GLB;
       33     4316        %INCLUDE KA_GLB;
       34     4393        /*
       35     4394        External declarations.
       36     4395        */
       37     4396    1   DCL KAV$VDI ENTRY(1) ALTRET;
PL6.E3A0      #001=KA_GLB_D File=KA_GLB_D.:E05TSI                                WED 07/30/97 00:04 Page:2
       38     4397    1   DCL KA_ASC95 UBIN WORD SYMREF READONLY;
       39     4398    1   DCL KA_APLBF UBIN WORD SYMREF READONLY;
       40     4399    1   DCL KA_APLBP UBIN WORD SYMREF READONLY;
       41     4400    1   DCL KA_APLTF UBIN WORD SYMREF READONLY;
       42     4401    1   DCL KA_APLTP UBIN WORD SYMREF READONLY;
       43     4402    1   DCL KA_INPFNCTBLHED$ PTR SYMREF READONLY;
       44     4403        /*
       45     4404        Invoke structures/data items to build static initialized copies.
       46     4405        */
       47     4406        %KA$CTX (NAME = KA_CTX, STCLASS = CONSTANT SYMDEF);
       48     4530        %KA_STT (NAME = KA_STT, STCLASS = STATIC SYMDEF);
       49     4893        %KV$STT (NAME = KV_STT, STCLASS = STATIC SYMDEF);
       50     5287        %KA_MSC (STCLASS = STATIC SYMDEF);
       51     5309        %KA_TRNTBL_MSC (STCLASS = STATIC SYMDEF);
       52     5330        /*
       53     5331        Initialize the KV$USRPRM structure.
       54     5332        */
       55     5333        %KV$USRPRM_INT;
       56     5347
       57     5348        %KV$SETPRMPREPRC (PRMID = KV_PRMID_CRTLINSPD);
       58     5361
       59     5362        %KV$SETPRMPSTPRC (PRMID = KV_PRMID_CRTLINSPD);
       60     5375        %KV$SETPRMPSTPRC (PRMID = KV_PRMID_CTRCHR);
       61     5388        %KV$SETPRMPSTPRC (PRMID = KV_PRMID_DVCFLWCTRALG);
       62     5401        %KV$SETPRMPSTPRC (PRMID = KV_PRMID_HALFDUPLEXPAPERTAPE);
       63     5414        %KV$SETPRMPSTPRC (PRMID = KV_PRMID_FULLDUPLEXPAPERTAPE);
       64     5427        %KV$SETPRMPSTPRC (PRMID = KV_PRMID_PARITY);
       65     5440
       66     5441        %KV$STREVTENB (STRTYP = KV_STRTYP_MRD);
       67     5446        %KV$STREVTENB (STRTYP = KV_STRTYP_VDI);
       68     5451
       69     5452        %KV$USRPRM (NAME = KA_USRPRM, STCLASS = STATIC SYMDEF,
       70     5453        TRNTBLHEDPTR$ = KA_TRNTBLHED$,
       71     5454        INPFNCTBLHEDPTR$ = KA_INPFNCTBLHED$,
       72     5455        USRSBR = KAV$VDI,
       73     5456        STT = KV_STT);
       74     5507
PL6.E3A0      #001=KA_GLB_D File=KA_GLB_D.:E05TSI                                WED 07/30/97 00:04 Page:3
       75     5508    1   DCL KA_TRNTBLHED$ PTR INIT(ADDR(KA_ASC95)) STATIC;
       76     5509        /*
       77     5510        Define KHA data items
       78     5511        */
       79     5512    1   DCL KA_ATTR BIT(16) INIT(%G_ATTR_CL_ASYNC) STATIC SYMDEF;
       80     5513    1   DCL KA_RES CHAR(2) INIT('CL') STATIC SYMDEF;
       81     5514    1   DCL KA_INT_LEV UBIN WORD INIT(32) STATIC SYMDEF;
       82     5515    1   DCL KA_MEM UBIN WORD INIT(192) STATIC SYMDEF;
       83     5516    1   END;

PL6.E3A0      #001=KA_GLB_D File=KA_GLB_D.:E05TSI                                WED 07/30/97 00:04 Page:4
--  Include file information  --

   KA_GLB.:E05TOU  is referenced.
   KA$GLB.:E05TOU  is referenced.
   KA_GLB_E.:E05TOU  is referenced.
   KV_ASCCHR_E.:E05TOU  is referenced.
   KV_GLBASM_E.:E05TOU  is referenced.
   KV_GLB_M.:E05TOU  is referenced.
   KV$BPC.:E05TOU  is referenced.
   K_ID_E.:E05TOU  is referenced.
   KL_MACRO_C.:E05TOU  is referenced.
   KL_AFCN_C.:E05TOU  is referenced.
   KH$STT.:E05TOU  is referenced.
   KV_PRMID_E.:E05TOU  was found in the system file and is referenced.
   KV_GLBCNS_E.:E05TOU  was found in the system file and is referenced.
   KV$VDO.:E05TOU  was found in the system file and is never referenced.
   KV$VDH.:E05TOU  was found in the system file and is referenced.
   KV$USR.:E05TOU  was found in the system file and is never referenced.
   KV$SND.:E05TOU  was found in the system file and is never referenced.
   KV$INT.:E05TOU  was found in the system file and is never referenced.
   KV$GLBCTX.:E05TOU  was found in the system file and is referenced.
   KV$GLB.:E05TOU  was found in the system file and is referenced.
   G_LCP6_E.:E05TOU  was found in the system file and is referenced.
   GT_LCP6_M.:E05TOU  was found in the system file and is never referenced.
   KI_CP6.:E05TOU  was found in the system file and is never referenced.
   GF_LCP6_M.:E05TOU  was found in the system file and is never referenced.
   GM_LCP6_M.:E05TOU  was found in the system file and is never referenced.
   GU_LCP6_M.:E05TOU  was found in the system file and is never referenced.
   GJ_LCP6_M.:E05TOU  was found in the system file and is never referenced.
   GH_LCP6_M.:E05TOU  was found in the system file and is never referenced.
      No diagnostics issued in procedure KA_GLB_D.

   No code generated for procedure KA_GLB_D .
   Procedure KA_GLB_D requires 4 words of local(AUTO) storage.
PL6.E3A0      #001=KA_GLB_D File=KA_GLB_D.:E05TSI                                WED 07/30/97 00:04 Page:5

    No errors detected in file KA_GLB_D.:E05TSI    .

PL6.E3A0      #001=KA_GLB_D File=KA_GLB_D.:E05TSI                                WED 07/30/97 00:04 Page:6

 Object Unit name= KA_GLB_D                                   File name= KA_GLB_D.:E05TOU
 UTS= JUL 30 '97 00:04:59.08 WED                              Compiler= PL-6/E31         Sev=      00
 SharedLib= :SHARED_LCP6_SYSTEM                               Alt SharedLib=


    ****  Control sections  ****

 Sect   Type Bound  Init  Size HexSiz  Section name
    0  RoData even  UTS     32     20  KA_GLB_D
    1   Data  even  none   872    368  KA_GLB_D
    2   Proc  even  none     0      0  KA_GLB_D

    ****  Entry defs  ****

                              Check   Calling
                             calling  sequence
  Sect HexLoc Primary Altret sequence   type   Parms  Name
     2      0   yes            yes     ~proc       0  KA_GLB_D
PL6.E3A0      #001=KA_GLB_D File=KA_GLB_D.:E05TSI                                WED 07/30/97 00:04 Page:7

  ****  Data defs  ****

 Sect HexLoc  Name                           Sect HexLoc  Name
    0      0  KA_CTX                             1      0  KA_STT
    1     9E  KV_STT                             1    2CE  KA_OTPBFRBYTSIZ_BIG
    1    2CF  KA_OTPBFRBYTSIZ_BIGLOG2            1    2D0  KA_OTPBFRBYTSIZ_SML
    1    2D1  KA_OTPBFRBYTSIZ_SMLLOG2            1    2D2  KA_OTPUN_BLKLMT
    1    2E2  KA_OTPBLKLMT                       1    2F2  KA_MINSP_FORPST
    1    302  KA_INPLVL                          1    303  KA_OTPLVL
    1    304  KA_VDHTRCBFRBYTSIZ                 1    305  KA_DVCFLWCTRCHR
    1    309  KA_LINERRDSCLMT                    1    30A  KA_LINERRLOGLMT
    1    30B  KA_TRNTBLCHNCHR_ASC                1    30D  KA_TRNTBLCHNCHR_APLB
    1    30F  KA_TRNTBLCHNCHR_APLT               1    311  KA_TRNTBLCHNCHR$
    1    319  KA_TRNTBL_FUL$                     1    321  KA_TRNTBL_PRT$
    1    329  KA_USRPRM                          1    364  KA_ATTR
    1    365  KA_RES                             1    366  KA_INT_LEV
    1    367  KA_MEM

  ****  Entry refs  ****

         Check        Calling
        calling       sequence
Altret sequence SRef   type   Args  Name
 yes     yes           Std       1 KAV$VDI

  ****  Data refs  ****

  Flags:  r = read only, s = secondary
Flgs Name                             Flgs Name                             Flgs Name
r    KA_ASC95                         r    KA_APLBF                         r    KA_APLBP
r    KA_APLTF                         r    KA_APLTP                         r    KA_INPFNCTBLHED$
r    G$ROS$
PL6.E3A0      #001=KA_GLB_D File=KA_GLB_D.:E05TSI                                WED 07/30/97 00:04 Page:8

        1        1        /*M* KA_GLB_D Async handler global data */
        2        2        /*T***********************************************************/
        3        3        /*T*                                                         */
        4        4        /*T* Copyright (c) Bull HN Information Systems Inc., 1997    */
        5        5        /*T*                                                         */
        6        6        /*T***********************************************************/
        7        7        KA_GLB_D: PROC;
        8        8        /*
        9        9        INCLUDEs.
       10       10        */
       11       11 S      %INCLUDE G_LCP6_E;
       12       12        %INCLUDE KH$STT;  /* For KA_STT */
       13       42        %INCLUDE KL_AFCN_C;  /* For KA_STT/KV$STT */
       14      143        %INCLUDE KL_MACRO_C;  /* For KA_STT/KV$STT */
       15     3495        %INCLUDE K_ID_E;  /* For KA_STT/KV$STT */
       16     3545        %K#ENTID_E;  /* For KA_STT/KV$STT */
       17     3564        %K#LYRID_E;  /* For KA_STT/KV$STT */
       18     3571        %INCLUDE KV$BPC; /* For KA_STT */
       19     3600        %INCLUDE KV_GLB_M;
       20     3722        %INCLUDE KV_GLBASM_E;
       21     3740 S      %INCLUDE KV_GLBCNS_E;
       22     3741        %KV_STRTYP_E;
       23     3779        %INCLUDE KV_ASCCHR_E;
       24     3916        %KV_INPOPRX_E;
       25     3928 S      %INCLUDE KV_PRMID_E;
       26     3929        %KV_PRMID_E;
       27     4085 S      %INCLUDE KV$VDH;
       28     4086 S      %INCLUDE KV$GLBCTX;
       29     4087 S      %INCLUDE KV$GLB;
       30     4088        %INCLUDE KA_GLB_E;
       31     4166        %KA_HLTOTP_E;
       32     4175        %INCLUDE KA$GLB;
       33     4316        %INCLUDE KA_GLB;
       34     4393        /*
       35     4394        External declarations.
       36     4395        */
       37     4396    1   DCL KAV$VDI ENTRY(1) ALTRET;
PL6.E3A0      #001=KA_GLB_D File=KA_GLB_D.:E05TSI                                WED 07/30/97 00:04 Page:9
       38     4397    1   DCL KA_ASC95 UBIN WORD SYMREF READONLY;
       39     4398    1   DCL KA_APLBF UBIN WORD SYMREF READONLY;
       40     4399    1   DCL KA_APLBP UBIN WORD SYMREF READONLY;
       41     4400    1   DCL KA_APLTF UBIN WORD SYMREF READONLY;
       42     4401    1   DCL KA_APLTP UBIN WORD SYMREF READONLY;
       43     4402    1   DCL KA_INPFNCTBLHED$ PTR SYMREF READONLY;
       44     4403        /*
       45     4404        Invoke structures/data items to build static initialized copies.
       46     4405        */
       47     4406        %KA$CTX (NAME = KA_CTX, STCLASS = CONSTANT SYMDEF);
       48     4530        %KA_STT (NAME = KA_STT, STCLASS = STATIC SYMDEF);
       49     4893        %KV$STT (NAME = KV_STT, STCLASS = STATIC SYMDEF);
       50     5287        %KA_MSC (STCLASS = STATIC SYMDEF);
       51     5309        %KA_TRNTBL_MSC (STCLASS = STATIC SYMDEF);
       52     5330        /*
       53     5331        Initialize the KV$USRPRM structure.
       54     5332        */
       55     5333        %KV$USRPRM_INT;
       56     5347
       57     5348        %KV$SETPRMPREPRC (PRMID = KV_PRMID_CRTLINSPD);
       58     5361
       59     5362        %KV$SETPRMPSTPRC (PRMID = KV_PRMID_CRTLINSPD);
       60     5375        %KV$SETPRMPSTPRC (PRMID = KV_PRMID_CTRCHR);
       61     5388        %KV$SETPRMPSTPRC (PRMID = KV_PRMID_DVCFLWCTRALG);
       62     5401        %KV$SETPRMPSTPRC (PRMID = KV_PRMID_HALFDUPLEXPAPERTAPE);
       63     5414        %KV$SETPRMPSTPRC (PRMID = KV_PRMID_FULLDUPLEXPAPERTAPE);
       64     5427        %KV$SETPRMPSTPRC (PRMID = KV_PRMID_PARITY);
       65     5440
       66     5441        %KV$STREVTENB (STRTYP = KV_STRTYP_MRD);
       67     5446        %KV$STREVTENB (STRTYP = KV_STRTYP_VDI);
       68     5451
       69     5452        %KV$USRPRM (NAME = KA_USRPRM, STCLASS = STATIC SYMDEF,
       70     5453        TRNTBLHEDPTR$ = KA_TRNTBLHED$,
       71     5454        INPFNCTBLHEDPTR$ = KA_INPFNCTBLHED$,
       72     5455        USRSBR = KAV$VDI,
       73     5456        STT = KV_STT);
       74     5507
PL6.E3A0      #001=KA_GLB_D File=KA_GLB_D.:E05TSI                                WED 07/30/97 00:04 Page:10
       75     5508    1   DCL KA_TRNTBLHED$ PTR INIT(ADDR(KA_ASC95)) STATIC;
       76     5509        /*
       77     5510        Define KHA data items
       78     5511        */
       79     5512    1   DCL KA_ATTR BIT(16) INIT(%G_ATTR_CL_ASYNC) STATIC SYMDEF;
       80     5513    1   DCL KA_RES CHAR(2) INIT('CL') STATIC SYMDEF;
       81     5514    1   DCL KA_INT_LEV UBIN WORD INIT(32) STATIC SYMDEF;
       82     5515    1   DCL KA_MEM UBIN WORD INIT(192) STATIC SYMDEF;
       83     5516    1   END;

PL6.E3A0      #001=KA_GLB_D File=KA_GLB_D.:E05TSI                                WED 07/30/97 00:04 Page:11
--  Include file information  --

   KA_GLB.:E05TOU  is referenced.
   KA$GLB.:E05TOU  is referenced.
   KA_GLB_E.:E05TOU  is referenced.
   KV_ASCCHR_E.:E05TOU  is referenced.
   KV_GLBASM_E.:E05TOU  is referenced.
   KV_GLB_M.:E05TOU  is referenced.
   KV$BPC.:E05TOU  is referenced.
   K_ID_E.:E05TOU  is referenced.
   KL_MACRO_C.:E05TOU  is referenced.
   KL_AFCN_C.:E05TOU  is referenced.
   KH$STT.:E05TOU  is referenced.
   KV_PRMID_E.:E05TOU  was found in the system file and is referenced.
   KV_GLBCNS_E.:E05TOU  was found in the system file and is referenced.
   KV$VDO.:E05TOU  was found in the system file and is never referenced.
   KV$VDH.:E05TOU  was found in the system file and is referenced.
   KV$USR.:E05TOU  was found in the system file and is never referenced.
   KV$SND.:E05TOU  was found in the system file and is never referenced.
   KV$INT.:E05TOU  was found in the system file and is never referenced.
   KV$GLBCTX.:E05TOU  was found in the system file and is referenced.
   KV$GLB.:E05TOU  was found in the system file and is referenced.
   G_LCP6_E.:E05TOU  was found in the system file and is referenced.
   GT_LCP6_M.:E05TOU  was found in the system file and is never referenced.
   KI_CP6.:E05TOU  was found in the system file and is never referenced.
   GF_LCP6_M.:E05TOU  was found in the system file and is never referenced.
   GM_LCP6_M.:E05TOU  was found in the system file and is never referenced.
   GU_LCP6_M.:E05TOU  was found in the system file and is never referenced.
   GJ_LCP6_M.:E05TOU  was found in the system file and is never referenced.
   GH_LCP6_M.:E05TOU  was found in the system file and is never referenced.
      No diagnostics issued in procedure KA_GLB_D.
PL6.E3A0      #001=KA_GLB_D File=KA_GLB_D.:E05TSI                                WED 07/30/97 00:04 Page:12

 **** Variables and constants ****

  ****  Section 001  Data  KA_GLB_D

  ****  Scalars and arrays  ****
HexLoc.c.b A Datatyp(siz) R M Lvl/name                 HexLoc.c.b A Datatyp(siz) R M Lvl/name

   30D-0-0/b UBIN(8)     r     1 KA_TRNTBLCHNCHR_APLB(0:3)
   30F-0-0/b UBIN(8)     r     1 KA_TRNTBLCHNCHR_APLT(0:3)
   30B-0-0/b UBIN(8)     r     1 KA_TRNTBLCHNCHR_ASC(0:3)
   362-0-0/w PTR         r     1 KA_TRNTBLHED$             9E-0-0/w STRC(8960)  r     1 KV_STT

  ****  SYMREF variables  ****

  ****  Scalars and arrays  ****
HexLoc.c.b A Datatyp(siz) R M Lvl/name                 HexLoc.c.b A Datatyp(siz) R M Lvl/name

     0-0-0/w UBIN(16)    r     1 KA_APLBF                   0-0-0/w UBIN(16)    r     1 KA_APLBP
     0-0-0/w UBIN(16)    r     1 KA_APLTF                   0-0-0/w UBIN(16)    r     1 KA_APLTP
     0-0-0/w UBIN(16)    r     1 KA_ASC95                   0-0-0/w PTR         r     1 KA_INPFNCTBLHED$


   No code generated for procedure KA_GLB_D .
   Procedure KA_GLB_D requires 4 words of local(AUTO) storage.

    No errors detected in file KA_GLB_D.:E05TSI    .
PL6.E3A0      #001=KA_GLB_D File=KA_GLB_D.:E05TSI                                WED 07/30/97 00:04 Page:13
          *** CROSS REFERENCE LISTING ***
**     DENOTES     IDENTIFIER DEFINITION
<<                 IDENTIFIER'S VALUE SET
>>                 IDENTIFIER'S VALUE USED
<>                 IDENTIFIER SET AND/OR USED
--                 IDENTIFIER REFERENCED
PL6.E3A0      #001=KA_GLB_D File=KA_GLB_D.:E05TSI                                WED 07/30/97 00:04 Page:14
          MINI XREF LISTING

KAV$VDI
      4396**DCL-ENT  5504--DCLINIT
KA_APLBF
      4398**DCL      5326--DCLINIT
KA_APLBP
      4399**DCL      5327--DCLINIT
KA_APLTF
      4400**DCL      5326--DCLINIT
KA_APLTP
      4401**DCL      5327--DCLINIT
KA_ASC95
      4397**DCL      5326--DCLINIT  5327--DCLINIT  5508--DCLINIT
KA_CTX.HLTOTP
      4520**DCL      4522--REDEF
KA_CTX.HLTOTPNXTBFR
      4524**DCL      4525--REDEF
KA_INPFNCTBLHED$
      4402**DCL      5503--DCLINIT
KA_STT.REQSTATS.DSPMSK
      4791**DCL      4797--REDEF
KA_STT.REQSTATS.SLCMSK
      4832**DCL      4839--REDEF
KA_TRNTBLCHNCHR_APLB
      5322**DCL      5325--DCLINIT
KA_TRNTBLCHNCHR_APLT
      5323**DCL      5325--DCLINIT
KA_TRNTBLCHNCHR_ASC
      5322**DCL      5325--DCLINIT
KA_TRNTBLHED$
      5508**DCL      5504--DCLINIT
KV_STT
      4920**DCL      5504--DCLINIT
PL6.E3A0      #001=KA_GLB_D File=KA_GLB_D.:E05TSI                                WED 07/30/97 00:04 Page:15
KV_STT.REQSTATS.DSPMSK
      5166**DCL      5172--REDEF
KV_STT.REQSTATS.SLCMSK
      5207**DCL      5214--REDEF
