PL6.E3A0      #004=KCD$PFPRG File=KCD$CGDEV.:E05TSI                              WED 07/30/97 00:13 Page:145
      925        1        /*T***********************************************************/
      926        2        /*T*                                                         */
      927        3        /*T* Copyright (c) Bull HN Information Systems Inc., 1997    */
      928        4        /*T*                                                         */
      929        5        /*T***********************************************************/
      930        6        /*D* NAME:        KCD$PFPRG
      931        7             PURPOSE:     To create a pure FPRG station
      932        8             CALL:        CALL KCD$PFPRG(KQ_STA,VLP_STATION) ALTRET(LBL);
      933        9             INPUT:       KQ_STA - Station from which to build the new
      934       10                                   pure FPRG station
      935       11                          VLP_STATION - Station name of the new pure FPRG
      936       12                                        station
      937       13             OUTPUT:      A new pure FPRG station
      938       14             DESCRIPTION: KCD$PFPRG is called with no gates locked but with
      939       15                          KQ_STA.LOCKCNT counted up. A new station is obtained
      940       16                          (or a PERM station is used), an LDCT is obtained and
      941       17                          connected to the new station and a KL_STRTU message
      942       18                          is sent to the appropriate node's Node Admin process.
      943       19                          The calling user is REGged awaiting response from
      944       20                          this message. When we are un-REGged, KCD$PFPRG will
      945       21                          RETURN normally if the path was successfully
      946       22                          established, otherwise we will ALTRETURN with an
      947       23                          error in B$JIT.ERR.
      948       24
      949       25                          Must be called on behalf of the AU user.
      950       26                          KQ_STA's LDCT need not be inACTIVE.
      951       27        */
      952       28        KCD$PFPRG: PROC(KQ_STA,VLP_STATION) ALTRET;
      953       29        %INCLUDE B$JIT;
      954      632        %INCLUDE B_ERRORS_C;
      955     1759        %INCLUDE CP_6_SUBS;
      956     2299        %INCLUDE F_MACROS_C;
      957     2310        %INCLUDE G_JIT_M;
      958     2575        %INCLUDE HF_LOCK_C;
      959     2589        %INCLUDE KC$CP6V_C;
      960     2709        %INCLUDE KC_CP6;
      961     3269        %INCLUDE KC_DATA_R;
PL6.E3A0      #004=KCD$PFPRG File=KCD$CGDEV.:E05TSI                              WED 07/30/97 00:13 Page:146
      962     3282        %INCLUDE KL_AFCN_C;
      963     3383        %INCLUDE KL_MACRO_C;
      964     6735        %INCLUDE KL_SUPER_C;
      965     9637        %INCLUDE KQ_MAC_C;
      966    12187        %INCLUDE K_DATA_R;
      967    12898        %INCLUDE NK$LDCT;
      968    13000        %INCLUDE NK_SUBS;
      969    13025        %INCLUDE SS_SCHED_C;
      970    13258                    /***************************/
      971    13259                    /*    PARAMETERS           */
      972    13260                    /***************************/
      973    13261        %KQ_STA (FPTN=KQ_STA,STCLASS=PARAM);
      974    13600        %VLP_STATION (FPTN=VLP_STATION,STCLASS=PARAM);
      975    13627                    /***************************/
      976    13628                    /*    AUTO                 */
      977    13629                    /***************************/
      978    13630    1   DCL NLDCT$ PTR;
      979    13631    1   DCL FPSTA$ PTR;
      980    13632    1   DCL LDCT$ PTR;
      981    13633    1   DCL CG$ PTR;
      982    13634    1   DCL I SBIN;
      983    13635    1   DCL KEY CHAR(8);
      984    13636        %KL_STRTU (FPTN=STRTU,STCLASS=AUTO);
      985    13809    1   DCL T$ PTR;
      986    13810                    /***************************/
      987    13811                    /*    BASED                */
      988    13812                    /***************************/
      989    13813        %FPT$ACTIVATE_V;
      990    13819        %KQ_CG (FPTN=KQ$CG,STCLASS="BASED(CG$)");
      991    14558        %KQ_STA (FPTN=KQ$STA,STCLASS=BASED);
      992    14897        %NK$LDCT (NAME=LDCT,STCLASS="BASED(LDCT$)");
      993    14943        %NK$LDCT (NAME=NLDCT,STCLASS="BASED(NLDCT$)");
      994    14989                    /***************************/
      995    14990                    /*    EQUs                 */
      996    14991                    /***************************/
      997    14992        %G$JIT_E;
      998    15054                    /***************************/
PL6.E3A0      #004=KCD$PFPRG File=KCD$CGDEV.:E05TSI                              WED 07/30/97 00:13 Page:147
      999    15055                    /*    CONSTANTS            */
     1000    15056                    /***************************/
     1001    15057        %SUB FCG#='1303'O;
     1002    15058        %SUB MID#='04'O;
     1003    15059        %ERRCODE (NAME=E_DUPNM,COD#=%E$DUPNM);
     1004    15063        %ERRCODE (NAME=E_NOMEM,COD#=%E$NOMEM);
     1005    15067        %ERRCODE (NAME=E_PCNLDCT,COD#=%E$PCNLDCT);
     1006    15071        %ERRCODE (NAME=E_STACHAR,COD#=%E$STACHAR);
     1007    15075                    /***************************/
     1008    15076                    /*    SYMREFs              */
     1009    15077                    /***************************/
     1010    15078    1   DCL B$JIT$ PTR SYMREF;
     1011    15079    1   DCL B$PS0$ PTR SYMREF READONLY;
     1012    15080    1   DCL S_CUN UBIN SYMREF;
     1013    15081                    /***************************/
     1014    15082                    /*    ENTREFs              */
     1015    15083                    /***************************/
     1016    15084    1   DCL KCF$FERDS ENTRY(1) ALTRET;
     1017    15085    1   DCL KQB$SRCH ENTRY(3) ALTRET;
     1018    15086    1   DCL KQL$DELMLH ENTRY(2) ALTRET;
     1019    15087    1   DCL KQP$UNLOCK ENTRY(1) ALTRET;
     1020    15088    1   DCL KQT$GETSTA ENTRY(3) ALTRET;
     1021    15089    1   DCL KUB$WRITE ENTRY(3) ALTRET;
     1022    15090    1   DCL NKL$GETDCT ENTRY(1) ALTRET;
     1023    15091    1   DCL NKL$RELDCT ENTRY(1) ALTRET;
     1024    15092    1   DCL SSR$REG ENTRY(3) ALTRET;
     1025    15093        /**/
     1026    15094        /**/
     1027    15095    1         KEY=VLP_STATION.STATION#;
     1028    15096    1         CALL INDEX(I,SUBSTR(KEY,0,1),KC_LGL1ST)
     1029    15097    2         WHENALTRETURN DO;
     1030    15098    2           B$JIT$->B$JIT.ERR=E_STACHAR;
     1031    15099        /*E* ERROR: KCD-E$STACHAR-E
     1032    15100           MESSAGE: Illegal first character in new FPRG station name
     1033    15101        */
     1034    15102    2           ALTRETURN;
     1035    15103    2           END;
PL6.E3A0      #004=KCD$PFPRG File=KCD$CGDEV.:E05TSI                              WED 07/30/97 00:13 Page:148
     1036    15104    1         CALL SETUP ALTRET(JUSTALT);
     1037    15105              %LOCK (G=KQ$CG.STREE.GATE);
     1038    15108    1         CALL KQB$SRCH(KQ$CG.STREE,KEY,T$)
     1039    15109    2         WHENRETURN DO;
     1040    15110    2           FPSTA$=T$;
     1041    15111                %LOCK (G=FPSTA$->KQ$STA.GATE);
     1042    15114    2           IF FPSTA$->KQ$STA.LDCT$~=ADDR(NIL) OR FPSTA$->KQ$STA.IDSC
     1043    15115    3           THEN DO;
     1044    15116                  %UNLOCK (G=FPSTA$->KQ$STA.GATE);
     1045    15119    3             B$JIT$->B$JIT.ERR=E_DUPNM;
     1046    15120        /*E* ERROR: KCD-E$DUPNM-E
     1047    15121           MESSAGE: The station name you intended for your FPRG is already in use
     1048    15122        */
     1049    15123                  %UNLOCK (G=KQ$CG.STREE.GATE);
     1050    15126    3             GOTO RELDCT;
     1051    15127    3             END;
     1052    15128    2           END;
     1053    15129    2         WHENALTRETURN DO;
     1054    15130    2           CALL KQT$GETSTA(KQ$CG,T$,KEY)
     1055    15131    3           WHENALTRETURN DO;
     1056    15132    3             B$JIT$->B$JIT.ERR=E_NOMEM;
     1057    15133        /*E* ERROR: KCD-E$NOMEM-E
     1058    15134           MESSAGE: No room available in your comgroup to create your FPRG station
     1059    15135        */
     1060    15136    3   RELDCT:   T$=NLDCT$; CALL NKL$RELDCT(T$);
     1061    15137    3             ALTRETURN;
     1062    15138    3             END;
     1063    15139    2           FPSTA$=T$;
     1064    15140                %LOCK (G=FPSTA$->KQ$STA.GATE);
     1065    15143    2           END;
     1066    15144              %UNLOCK (G=KQ$CG.STREE.GATE);
     1067    15147    1         FPSTA$->KQ$STA.TOLDAU='0'B;
     1068    15148    1         FPSTA$->KQ$STA.USEAUACCT=KQ_STA.USEAUACCT;
     1069    15149    1         FPSTA$->KQ$STA.OPNBLKED='0'B;
     1070    15150    1         FPSTA$->KQ$STA.DSCREQW='0'B;
     1071    15151    1         FPSTA$->KQ$STA.DSCREQS='0'B;
     1072    15152    1         FPSTA$->KQ$STA.STARSDUN='0'B;
PL6.E3A0      #004=KCD$PFPRG File=KCD$CGDEV.:E05TSI                              WED 07/30/97 00:13 Page:149
     1073    15153    1         FPSTA$->KQ$STA.PVGSENSE='0'B;
     1074    15154    1         FPSTA$->KQ$STA.SUCCREAD='0'B;
     1075    15155    1         FPSTA$->KQ$STA.IDSC='0'B;
     1076    15156    1         FPSTA$->KQ$STA.SAVIDSC='0'B;
     1077    15157    1         FPSTA$->KQ$STA.AU='0'B;
     1078    15158    1         FPSTA$->KQ$STA.EVNT='0'B;
     1079    15159    1         FPSTA$->KQ$STA.DSID=KQ$CG.MSGID;
     1080    15160    1         FPSTA$->KQ$STA.WRITES=0;
     1081    15161    1         FPSTA$->KQ$STA.READS=0;
     1082    15162    1         FPSTA$->KQ$STA.CNNCTDDA=0;
     1083    15163    1         FPSTA$->KQ$STA.USR#=0;
     1084    15164    1         FPSTA$->KQ$STA.TERM='1'B;
     1085    15165    1         KQ$CG.STATS.NUMTERMS=KQ$CG.STATS.NUMTERMS+1;
     1086    15166    1         GOTO CMN;
     1087    15167        /**/
     1088    15168        /**/
     1089    15169        /*D* NAME:        KCD$TFPRG
     1090    15170             PURPOSE:     To transform an existing TERMINAL station into an FPRG station
     1091    15171             CALL:        CALL KCD$TFPRG(KQ_STA) ALTRET(LBL);
     1092    15172             INPUT:       KQ_STA - The station block to be transformed
     1093    15173             OUTPUT:      KQ_STA - A transformed station
     1094    15174             DESCRIPTION: KCD$TFPRG is called with no gates locked but
     1095    15175                          KQ_STA.LOCKCNT counted up. If KQ_STA's LDCT is
     1096    15176                          ACTIVE, we RETURN immediately.
     1097    15177                          An LDCT is obtained and attached to KQ_STA; KQ_STA's
     1098    15178                          original LDCT is saved in KQ_STA.SAVLDCT$.
     1099    15179                          A KL_STRTU message is sent to Node Admin and the
     1100    15180                          calling user is REGged awaiting the results. If
     1101    15181                          the path is successfully established, we RETURN
     1102    15182                          otherwise we ALTRETURN with an error in B$JIT.ERR.
     1103    15183        */
     1104    15184    1   KCD$TFPRG: ENTRY(KQ_STA) ALTRET;
     1105    15185        /**/
     1106    15186        /**/
     1107    15187    1         IF KQ_STA.LDCT$->LDCT.LKFLG.ACTIVE THEN RETURN;
     1108    15188    1         CALL SETUP ALTRET(JUSTALT);
     1109    15189              %LOCK (G=KQ_STA.GATE);
PL6.E3A0      #004=KCD$PFPRG File=KCD$CGDEV.:E05TSI                              WED 07/30/97 00:13 Page:150
     1110    15192    1         KQ_STA.SAVLDCT$=KQ_STA.LDCT$;
     1111    15193    1         KQ_STA.LDCT$=ADDR(NIL);
     1112    15194    1         FPSTA$=ADDR(KQ_STA);
     1113    15195
     1114    15196
     1115    15197    1   CMN:  ;
     1116    15198    1         IF B$PS0$->FPT$ACTIVATE_V.FLUSH
     1117    15199    1         THEN CALL KQL$DELMLH(KQ$CG,ADDR(FPSTA$->KQ$STA.MLH));
     1118    15200    1         FPSTA$->KQ$STA.DVBYTE=B$PS0$->FPT$ACTIVATE_V.DVBYTE;
     1119    15201    1         NLDCT.DEVNM=FPSTA$->KQ$STA.BTN.KEY;
     1120    15202    1         NLDCT.CG$=LDCT.CG$;
     1121    15203              /* Allow FPRG to do both INPUT and OUTPUT;  don't take values from term sta */
     1122    15204    1         NLDCT.DFLG.INPUT='1'B;
     1123    15205    1         NLDCT.DFLG.OUTPUT='1'B;
     1124    15206    1         NLDCT.DFLG.CM='1'B;
     1125    15207    1         NLDCT.DFLG.CONSOLE=LDCT.DFLG.CONSOLE;
     1126    15208    1         NLDCT.DFLG.SYMBIONT=LDCT.DFLG.SYMBIONT;
     1127    15209    1         NLDCT.RESCOD=NK_CGFPRG;
     1128    15210    1         NLDCT.USER=S_CUN;
     1129    15211    1         NLDCT.TERMID.TTYP=LDCT.TERMID.TTYP;
     1130    15212    1         NLDCT.RLCID.NODE=LDCT.RLCID.NODE;
     1131    15213    1         NLDCT.RLCID.LDCTX = 0;
     1132    15214    1         NLDCT.ERR = '0'B;
     1133    15215    1         NLDCT.STA$=FPSTA$;
     1134    15216    1         NLDCT.LOGON_ACCT = LDCT.LOGON_ACCT;
     1135    15217    1         FPSTA$->KQ$STA.LDCT$=NLDCT$;
     1136    15218
     1137    15219    1         STRTU='0'B;
     1138    15220    2         IF FPSTA$->KQ$STA.USEAUACCT THEN DO;
     1139    15221    2           STRTU.ACCT = B$JIT$->B$JIT.ACCN;
     1140    15222    2           STRTU.UNAME = B$JIT$->B$JIT.UNAME;
     1141    15223    2           END;
     1142    15224    2         ELSE DO;
     1143    15225    2           STRTU.ACCT=NLDCT.LOGON_ACCT;
     1144    15226    2           STRTU.UNAME=B$JIT$->B$JIT.ACCN;
     1145    15227    2           END;
     1146    15228    1         STRTU.FCN=IGA_STRTU;
PL6.E3A0      #004=KCD$PFPRG File=KCD$CGDEV.:E05TSI                              WED 07/30/97 00:13 Page:151
     1147    15229    1         STRTU.NODE=NLDCT.RLCID.NODE;
     1148    15230    1         STRTU.NETADR_FROM.NODE=K_NODE#;
     1149    15231    1         STRTU.NETADR_FROM.GENERATION=NLDCT.GENERATION;
     1150    15232    1         STRTU.NETADR_FROM.LDX.BYT(0)=NLDCT.LDCTX/256;
     1151    15233    1         STRTU.NETADR_FROM.LDX.BYT(1)=NLDCT.LDCTX-STRTU.NETADR_FROM.LDX.BYT(0)*256;
     1152    15234    1         STRTU.NETADR_TO=LDCT.RLCID;
     1153    15235    1         STRTU.MODE=%G_M_CG#;
     1154    15236    1   /*N*/ STRTU.DB_ACCT='?';               /* For now, anyway */
     1155    15237
     1156    15238    1         FPSTA$->KQ$STA.LOCKCNT=FPSTA$->KQ$STA.LOCKCNT+1;
     1157    15239                                               /* To keep any disconnect of the LDCT */
     1158    15240                                               /* from causing the LDCT to disappear */
     1159    15241                                               /* in the window between path         */
     1160    15242                                               /* completion (first possible disc)   */
     1161    15243                                               /* and our locking of the LDCT after  */
     1162    15244                                               /* returning from the REG             */
     1163    15245              %UNLOCK (G=FPSTA$->KQ$STA.GATE);
     1164    15248
     1165    15249    1         I=SIZEC(STRTU);
     1166    15250    1         CALL KUB$WRITE(STRTU,I,'HLPADMIN');
     1167    15251                       /* Now we REG the user until this process completes so that
     1168    15252                          we may ALTRET to him if any error occurs.
     1169    15253
     1170    15254                          When we return from the REG, we may be in any of
     1171    15255                          several states:
     1172    15256                             1) NLDCT.ERR ~=0
     1173    15257                                We got an error BEFORE establishing the path.
     1174    15258                                We must report NLDCT.ERR to the user and fake
     1175    15259                                up a disconnect on this station so that
     1176    15260                                KQP$UNLOCK will continue with the disconnect
     1177    15261                                process and repair the damage.
     1178    15262                             2) NLDCT.ERR=0 but NLDCT.LKFLG.OLDSC has been set
     1179    15263                                No need to do anything for this since KQP$UNLOCK
     1180    15264                                will do all that is necessary.
     1181    15265                             3) Everything OK
     1182    15266                                We must set LDCT.LKFLG.ACTIVE and call
     1183    15267                                KCF$FERDS to get reads to the new station
PL6.E3A0      #004=KCD$PFPRG File=KCD$CGDEV.:E05TSI                              WED 07/30/97 00:13 Page:152
     1184    15268                                started.
     1185    15269        */
     1186    15270
     1187    15271              %LOCK (G=NLDCT.LOCK);
     1188    15274    2         IF (NLDCT.RLCID.LDCTX = 0) AND (NLDCT.ERR = '0'B) THEN DO;
     1189    15275    2           NLDCT.LKFLG.REGGED='1'B;
     1190    15276    2           CALL SSR$REG(%SS_CW,FPSTA$->KQ$STA.LDCT$);
     1191    15277                %LOCK (G=NLDCT.LOCK);
     1192    15280    2           END;
     1193    15281    1         IF NLDCT.ERR
     1194    15282    1         THEN IF (NLDCT.ERR.CODE=%E$NO_START OR /* unix fep? */
     1195    15283    1          NLDCT.ERR.CODE=1872)
     1196    15284    1          AND NLDCT.TERMID.TTYP=%KLTY_LINEDEV# /* running cp6fprg? */
     1197    15285    2          AND FPSTA$->KQ$STA.SAVLDCT$~=ADDR(NIL) THEN DO;
     1198    15286    2            FPSTA$->KQ$STA.SAVLDCT$=ADDR(NIL);
     1199    15287    2            FPSTA$->KQ$STA.LDCT$=LDCT$;
     1200    15288                 %UNLOCK (G=NLDCT.LOCK);
     1201    15291    2            T$=NLDCT$; CALL NKL$RELDCT(T$);
     1202    15292    2            LDCT.RESCOD=NK_CGFPRG;
     1203    15293    2            LDCT.DFLG.INPUT='1'B;
     1204    15294    2            LDCT.LKFLG.FPSTEP='1'B;
     1205    15295    2            LDCT.LKFLG.ACTIVE='1'B;
     1206    15296    2            CALL KCF$FERDS(LDCT);
     1207    15297    2            END;
     1208    15298    2          ELSE DO;
     1209    15299    2            B$JIT$->B$JIT.ERR=NLDCT.ERR;
     1210    15300    2            NLDCT.ERR='0'B;
     1211    15301    2            NLDCT.DFLG.FEDN='1'B;         /* So that we don't try to write      */
     1212    15302                                               /* to the FEP since we have no path.  */
     1213    15303    2            NLDCT.DFLG.PRLS='1'B;         /* Release LDCT when done. */
     1214    15304                 %UNLOCK (G=NLDCT.LOCK);
     1215    15307                 %LOCK (G=FPSTA$->KQ$STA.GATE);
     1216    15310    2            FPSTA$->KQ$STA.IDSC='1'B;     /* To get KQP$UNLOCK to continue disc */
     1217    15311                 %UNLOCK (G=FPSTA$->KQ$STA.GATE);
     1218    15314    2            END;
     1219    15315    2         ELSE DO;
     1220    15316    2           NLDCT.LKFLG.ACTIVE='1'B;
PL6.E3A0      #004=KCD$PFPRG File=KCD$CGDEV.:E05TSI                              WED 07/30/97 00:13 Page:153
     1221    15317                %UNLOCK (G=NLDCT.LOCK);
     1222    15320    2           CALL KCF$FERDS(NLDCT);
     1223    15321    2           END;
     1224    15322    1         CALL KQP$UNLOCK(FPSTA$->KQ$STA);
     1225    15323    1         IF B$JIT$->B$JIT.ERR.CODE~=0 THEN
     1226    15324    1   JUSTALT: ALTRETURN;
     1227    15325    1         RETURN;
     1228    15326
     1229    15327
     1230    15328    1   SETUP: PROC ALTRET;
     1231    15329    2         LDCT$=KQ_STA.LDCT$;
     1232    15330    2         CG$=LDCT.CG$;
     1233    15331    3         CALL NKL$GETDCT(T$) WHENALTRETURN DO;
     1234    15332    3           B$JIT$->B$JIT.ERR=E_PCNLDCT;
     1235    15333        /*E* ERROR: KCD-E$PCNLDCT-E
     1236    15334             MESSAGE: No LDCTs available to ACTIVATE your FPRG user
     1237    15335        */
     1238    15336    3           ALTRETURN;
     1239    15337    3           END;
     1240    15338    2         NLDCT$=T$;
     1241    15339    2         RETURN;
     1242    15340    2   END SETUP;
     1243    15341    1   END KCD$PFPRG;

PL6.E3A0      #004=KCD$PFPRG File=KCD$CGDEV.:E05TSI                              WED 07/30/97 00:13 Page:154
--  Include file information  --

   SS_SCHED_C.:E05TOU  is referenced.
   NK_SUBS.:E05TOU  is referenced.
   NK$LDCT.:E05TOU  is referenced.
   K$RWPARM.:E05TOU  is referenced.
   K_DATA_R.:E05TOU  cannot be made into a system file and is referenced.
   KQ_MAC_C.:E05TOU  is referenced.
   KL_SUPER_C.:E05TOU  is referenced.
   KL_MACRO_C.:E05TOU  is referenced.
   KL_AFCN_C.:E05TOU  is referenced.
   KC_DATA_R.:E05TOU  cannot be made into a system file and is referenced.
   KC_CP6.:E05TOU  is referenced.
   KC$CP6V_C.:E05TOU  is referenced.
   HF_LOCK_C.:E05TOU  cannot be made into a system file and is referenced.
   G_JIT_M.:E05TOU  is referenced.
   F_MACROS_C.:E05TOU  is referenced.
   CP_6_SUBS.:E05TOU  is referenced.
   B_ERRORS_C.:E05TOU  is referenced.
   B$JIT_C.:E05TOU  is referenced.
   B$JIT.:E05TOU  cannot be made into a system file and is referenced.
      No diagnostics issued in procedure KCD$PFPRG.

   Procedure KCD$PFPRG requires 474 words for executable code.
   Procedure KCD$PFPRG requires 64 words of local(AUTO) storage.

    No errors detected in file KCD$CGDEV.:E05TSI    .

PL6.E3A0      #004=KCD$PFPRG File=KCD$CGDEV.:E05TSI                              WED 07/30/97 00:13 Page:155

 Object Unit name= KCD$PFPRG                                  File name= KCD$CGDEV.:E05TOU
 UTS= JUL 30 '97 00:13:18.12 WED                              Compiler= PL-6/E31         Sev=      00
 SharedLib= :SHARED_SYSTEM                                    Alt SharedLib=


    ****  Control sections  ****

 Sect   Type Bound  Init  Size OctSiz  Section name(segment info)
    0  RoData even  UTS      6      6  KCD$PFPRG
    1   Proc  even  none   474    732  KCD$PFPRG
    2  RoData even  none    14     16  KCD$PFPRG

    ****  Entry defs  ****

                              Check   Calling
                             calling  sequence
  Sect OctLoc Primary Altret sequence   type   Parms  Name
     1      0   yes    yes     yes      Std        2  KCD$PFPRG
     1    222          yes     yes      Std        1  KCD$TFPRG
PL6.E3A0      #004=KCD$PFPRG File=KCD$CGDEV.:E05TSI                              WED 07/30/97 00:13 Page:156

  ****  Entry refs  ****

         Check        Calling
        calling       sequence
Altret sequence SRef   type   Args  Name
 yes     yes           Std       3 SSR$REG
         yes           Std       1 HFC$LOCK
 yes     yes           Std       3 KQB$SRCH
         yes           Std       1 HFC$UNLOCK
 yes     yes           Std       1 KQP$UNLOCK
 yes     yes           Std       3 KQT$GETSTA
 yes     yes           Std       2 KQL$DELMLH
 yes     yes           Std       1 KCF$FERDS
 yes     yes           Std       1 NKL$RELDCT
 yes     yes           Std       3 KUB$WRITE
 yes     yes           Std       1 NKL$GETDCT
                       nStd      0 X66_AUTO_2
                       nStd      0 X66_AALT
                       Std       0 B_CONSPOOL_D
                       nStd      0 X66_ARET

  ****  Data refs  ****

  Flags:  r = read only, s = secondary
Flgs Name                             Flgs Name                             Flgs Name
     KC_LGL1ST                             K_NODE#                               B$JIT$
r    B$PS0$                                S_CUN                                 B_VECTNIL

  ****  Segment refs  ****

  Flags:  r = read only, s = secondary
Flgs Name                             Flgs Name                             Flgs Name
     ISSID
PL6.E3A0      #004=KCD$PFPRG File=KCD$CGDEV.:E05TSI                              WED 07/30/97 00:13 Page:157


      925        1        /*T***********************************************************/
      926        2        /*T*                                                         */
      927        3        /*T* Copyright (c) Bull HN Information Systems Inc., 1997    */
      928        4        /*T*                                                         */
      929        5        /*T***********************************************************/
      930        6        /*D* NAME:        KCD$PFPRG
      931        7             PURPOSE:     To create a pure FPRG station
      932        8             CALL:        CALL KCD$PFPRG(KQ_STA,VLP_STATION) ALTRET(LBL);
      933        9             INPUT:       KQ_STA - Station from which to build the new
      934       10                                   pure FPRG station
      935       11                          VLP_STATION - Station name of the new pure FPRG
      936       12                                        station
      937       13             OUTPUT:      A new pure FPRG station
      938       14             DESCRIPTION: KCD$PFPRG is called with no gates locked but with
      939       15                          KQ_STA.LOCKCNT counted up. A new station is obtained
      940       16                          (or a PERM station is used), an LDCT is obtained and
      941       17                          connected to the new station and a KL_STRTU message
      942       18                          is sent to the appropriate node's Node Admin process.
      943       19                          The calling user is REGged awaiting response from
      944       20                          this message. When we are un-REGged, KCD$PFPRG will
      945       21                          RETURN normally if the path was successfully
      946       22                          established, otherwise we will ALTRETURN with an
      947       23                          error in B$JIT.ERR.
      948       24
      949       25                          Must be called on behalf of the AU user.
      950       26                          KQ_STA's LDCT need not be inACTIVE.
      951       27        */
      952       28        KCD$PFPRG: PROC(KQ_STA,VLP_STATION) ALTRET;

     28  1 000000   000000 700200 xent  KCD$PFPRG    TSX0  ! X66_AUTO_2
         1 000001   000100 000002                    ZERO    64,2

      953       29        %INCLUDE B$JIT;
      954      632        %INCLUDE B_ERRORS_C;
      955     1759        %INCLUDE CP_6_SUBS;
      956     2299        %INCLUDE F_MACROS_C;
PL6.E3A0      #004=KCD$PFPRG File=KCD$CGDEV.:E05TSI                              WED 07/30/97 00:13 Page:158
      957     2310        %INCLUDE G_JIT_M;
      958     2575        %INCLUDE HF_LOCK_C;
      959     2589        %INCLUDE KC$CP6V_C;
      960     2709        %INCLUDE KC_CP6;
      961     3269        %INCLUDE KC_DATA_R;
      962     3282        %INCLUDE KL_AFCN_C;
      963     3383        %INCLUDE KL_MACRO_C;
      964     6735        %INCLUDE KL_SUPER_C;
      965     9637        %INCLUDE KQ_MAC_C;
      966    12187        %INCLUDE K_DATA_R;
      967    12898        %INCLUDE NK$LDCT;
      968    13000        %INCLUDE NK_SUBS;
      969    13025        %INCLUDE SS_SCHED_C;
      970    13258                    /***************************/
      971    13259                    /*    PARAMETERS           */
      972    13260                    /***************************/
      973    13261        %KQ_STA (FPTN=KQ_STA,STCLASS=PARAM);
      974    13600        %VLP_STATION (FPTN=VLP_STATION,STCLASS=PARAM);
      975    13627                    /***************************/
      976    13628                    /*    AUTO                 */
      977    13629                    /***************************/
      978    13630    1   DCL NLDCT$ PTR;
      979    13631    1   DCL FPSTA$ PTR;
      980    13632    1   DCL LDCT$ PTR;
      981    13633    1   DCL CG$ PTR;
      982    13634    1   DCL I SBIN;
      983    13635    1   DCL KEY CHAR(8);
      984    13636        %KL_STRTU (FPTN=STRTU,STCLASS=AUTO);
      985    13809    1   DCL T$ PTR;
      986    13810                    /***************************/
      987    13811                    /*    BASED                */
      988    13812                    /***************************/
      989    13813        %FPT$ACTIVATE_V;
      990    13819        %KQ_CG (FPTN=KQ$CG,STCLASS="BASED(CG$)");
      991    14558        %KQ_STA (FPTN=KQ$STA,STCLASS=BASED);
      992    14897        %NK$LDCT (NAME=LDCT,STCLASS="BASED(LDCT$)");
      993    14943        %NK$LDCT (NAME=NLDCT,STCLASS="BASED(NLDCT$)");
PL6.E3A0      #004=KCD$PFPRG File=KCD$CGDEV.:E05TSI                              WED 07/30/97 00:13 Page:159
      994    14989                    /***************************/
      995    14990                    /*    EQUs                 */
      996    14991                    /***************************/
      997    14992        %G$JIT_E;
      998    15054                    /***************************/
      999    15055                    /*    CONSTANTS            */
     1000    15056                    /***************************/
     1001    15057        %SUB FCG#='1303'O;
     1002    15058        %SUB MID#='04'O;
     1003    15059        %ERRCODE (NAME=E_DUPNM,COD#=%E$DUPNM);
     1004    15063        %ERRCODE (NAME=E_NOMEM,COD#=%E$NOMEM);
     1005    15067        %ERRCODE (NAME=E_PCNLDCT,COD#=%E$PCNLDCT);
     1006    15071        %ERRCODE (NAME=E_STACHAR,COD#=%E$STACHAR);
     1007    15075                    /***************************/
     1008    15076                    /*    SYMREFs              */
     1009    15077                    /***************************/
     1010    15078    1   DCL B$JIT$ PTR SYMREF;
     1011    15079    1   DCL B$PS0$ PTR SYMREF READONLY;
     1012    15080    1   DCL S_CUN UBIN SYMREF;
     1013    15081                    /***************************/
     1014    15082                    /*    ENTREFs              */
     1015    15083                    /***************************/
     1016    15084    1   DCL KCF$FERDS ENTRY(1) ALTRET;
     1017    15085    1   DCL KQB$SRCH ENTRY(3) ALTRET;
     1018    15086    1   DCL KQL$DELMLH ENTRY(2) ALTRET;
     1019    15087    1   DCL KQP$UNLOCK ENTRY(1) ALTRET;
     1020    15088    1   DCL KQT$GETSTA ENTRY(3) ALTRET;
     1021    15089    1   DCL KUB$WRITE ENTRY(3) ALTRET;
     1022    15090    1   DCL NKL$GETDCT ENTRY(1) ALTRET;
     1023    15091    1   DCL NKL$RELDCT ENTRY(1) ALTRET;
     1024    15092    1   DCL SSR$REG ENTRY(3) ALTRET;
     1025    15093        /**/
     1026    15094        /**/
     1027    15095    1         KEY=VLP_STATION.STATION#;

  15095  1 000002   200004 470500                    LDP0    @VLP_STATION,,AUTO
         1 000003   040100 100500                    MLR     fill='040'O
PL6.E3A0      #004=KCD$PFPRG File=KCD$CGDEV.:E05TSI                              WED 07/30/97 00:13 Page:160
         1 000004   000000 000010                    ADSC9   0,,PR0                   cn=0,n=8
         1 000005   200012 000010                    ADSC9   KEY,,AUTO                cn=0,n=8

     1028    15096    1         CALL INDEX(I,SUBSTR(KEY,0,1),KC_LGL1ST)

  15096  1 000006   000100 124400                    SCM     mask='000'O
         1 000007   000000 000104 xsym               ADSC9   KC_LGL1ST                cn=0,n=68
         1 000010   200012 000001                    ADSC9   KEY,,AUTO                cn=0,n=1
         1 000011   200011 000100                    ARG     I,,AUTO
         1 000012   000014 606400 1                  TTN     s:15098
         1 000013   000020 710000 1                  TRA     s:15104

     1029    15097    2         WHENALTRETURN DO;

     1030    15098    2           B$JIT$->B$JIT.ERR=E_STACHAR;

  15098  1 000014   000003 236000 0                  LDQ     E_STACHAR
         1 000015   000000 470400 xsym               LDP0    B$JIT$
         1 000016   000012 756100                    STQ     10,,PR0

     1031    15099        /*E* ERROR: KCD-E$STACHAR-E
     1032    15100           MESSAGE: Illegal first character in new FPRG station name
     1033    15101        */
     1034    15102    2           ALTRETURN;

  15102  1 000017   000000 702200 xent               TSX2  ! X66_AALT

     1035    15103    2           END;
     1036    15104    1         CALL SETUP ALTRET(JUSTALT);

  15104  1 000020   000703 701000 1                  TSX1    SETUP
         1 000021   000701 702000 1                  TSX2    JUSTALT

     1037    15105              %LOCK (G=KQ$CG.STREE.GATE);

  15106  1 000022   200010 236100                    LDQ     CG$,,AUTO
         1 000023   000075 036003                    ADLQ    61,DU
PL6.E3A0      #004=KCD$PFPRG File=KCD$CGDEV.:E05TSI                              WED 07/30/97 00:13 Page:161
         1 000024   200074 756100                    STQ     T$+3,,AUTO
         1 000025   200074 630500                    EPPR0   T$+3,,AUTO
         1 000026   000017 631400 xsym               EPPR1   B_VECTNIL+15
         1 000027   000000 701000 xent               TSX1    HFC$LOCK
         1 000030   000000 011000                    NOP     0

     1038    15108    1         CALL KQB$SRCH(KQ$CG.STREE,KEY,T$)

  15108  1 000031   200071 630500                    EPPR0   T$,,AUTO
         1 000032   200076 450500                    STP0    T$+5,,AUTO
         1 000033   200012 631500                    EPPR1   KEY,,AUTO
         1 000034   200075 451500                    STP1    T$+4,,AUTO
         1 000035   200010 236100                    LDQ     CG$,,AUTO
         1 000036   000075 036003                    ADLQ    61,DU
         1 000037   200074 756100                    STQ     T$+3,,AUTO
         1 000040   200074 630500                    EPPR0   T$+3,,AUTO
         1 000041   000021 631400 xsym               EPPR1   B_VECTNIL+17
         1 000042   000000 701000 xent               TSX1    KQB$SRCH
         1 000043   000105 702000 1                  TSX2    s:15130

     1039    15109    2         WHENRETURN DO;

     1040    15110    2           FPSTA$=T$;

  15110  1 000044   200071 236100                    LDQ     T$,,AUTO
         1 000045   200006 756100                    STQ     FPSTA$,,AUTO

     1041    15111                %LOCK (G=FPSTA$->KQ$STA.GATE);

  15112  1 000046   000016 036003                    ADLQ    14,DU
         1 000047   200074 756100                    STQ     T$+3,,AUTO
         1 000050   200074 630500                    EPPR0   T$+3,,AUTO
         1 000051   000017 631400 xsym               EPPR1   B_VECTNIL+15
         1 000052   000000 701000 xent               TSX1    HFC$LOCK
         1 000053   000000 011000                    NOP     0

     1042    15114    2           IF FPSTA$->KQ$STA.LDCT$~=ADDR(NIL) OR FPSTA$->KQ$STA.IDSC
PL6.E3A0      #004=KCD$PFPRG File=KCD$CGDEV.:E05TSI                              WED 07/30/97 00:13 Page:162

  15114  1 000054   200006 470500                    LDP0    FPSTA$,,AUTO
         1 000055   000010 236100                    LDQ     8,,PR0
         1 000056   000001 116000 xsym               CMPQ    B_VECTNIL+1
         1 000057   000062 601000 1                  TNZ     s:15117
         1 000060   000020 234100                    SZN     16,,PR0
         1 000061   000104 605000 1                  TPL     s:15126+1

     1043    15115    3           THEN DO;

     1044    15116                  %UNLOCK (G=FPSTA$->KQ$STA.GATE);

  15117  1 000062   200006 236100                    LDQ     FPSTA$,,AUTO
         1 000063   000016 036003                    ADLQ    14,DU
         1 000064   200074 756100                    STQ     T$+3,,AUTO
         1 000065   200074 630500                    EPPR0   T$+3,,AUTO
         1 000066   000017 631400 xsym               EPPR1   B_VECTNIL+15
         1 000067   000000 701000 xent               TSX1    HFC$UNLOCK
         1 000070   000000 011000                    NOP     0

     1045    15119    3             B$JIT$->B$JIT.ERR=E_DUPNM;

  15119  1 000071   000000 236000 0                  LDQ     E_DUPNM
         1 000072   000000 470400 xsym               LDP0    B$JIT$
         1 000073   000012 756100                    STQ     10,,PR0

     1046    15120        /*E* ERROR: KCD-E$DUPNM-E
     1047    15121           MESSAGE: The station name you intended for your FPRG is already in use
     1048    15122        */
     1049    15123                  %UNLOCK (G=KQ$CG.STREE.GATE);

  15124  1 000074   200010 236100                    LDQ     CG$,,AUTO
         1 000075   000075 036003                    ADLQ    61,DU
         1 000076   200074 756100                    STQ     T$+3,,AUTO
         1 000077   200074 630500                    EPPR0   T$+3,,AUTO
         1 000100   000017 631400 xsym               EPPR1   B_VECTNIL+15
         1 000101   000000 701000 xent               TSX1    HFC$UNLOCK
PL6.E3A0      #004=KCD$PFPRG File=KCD$CGDEV.:E05TSI                              WED 07/30/97 00:13 Page:163
         1 000102   000000 011000                    NOP     0

     1050    15126    3             GOTO RELDCT;

  15126  1 000103   000123 710000 1                  TRA     RELDCT
         1 000104   000144 710000 1                  TRA     s:15145

     1051    15127    3             END;
     1052    15128    2           END;
     1053    15129    2         WHENALTRETURN DO;

     1054    15130    2           CALL KQT$GETSTA(KQ$CG,T$,KEY)

  15130  1 000105   200012 630500                    EPPR0   KEY,,AUTO
         1 000106   200076 450500                    STP0    T$+5,,AUTO
         1 000107   200071 631500                    EPPR1   T$,,AUTO
         1 000110   200075 451500                    STP1    T$+4,,AUTO
         1 000111   200010 236100                    LDQ     CG$,,AUTO
         1 000112   200074 756100                    STQ     T$+3,,AUTO
         1 000113   200074 630500                    EPPR0   T$+3,,AUTO
         1 000114   000021 631400 xsym               EPPR1   B_VECTNIL+17
         1 000115   000000 701000 xent               TSX1    KQT$GETSTA
         1 000116   000120 702000 1                  TSX2    s:15132
         1 000117   000134 710000 1                  TRA     s:15139

     1055    15131    3           WHENALTRETURN DO;

     1056    15132    3             B$JIT$->B$JIT.ERR=E_NOMEM;

  15132  1 000120   000001 236000 0                  LDQ     E_NOMEM
         1 000121   000000 470400 xsym               LDP0    B$JIT$
         1 000122   000012 756100                    STQ     10,,PR0

     1057    15133        /*E* ERROR: KCD-E$NOMEM-E
     1058    15134           MESSAGE: No room available in your comgroup to create your FPRG station
     1059    15135        */
     1060    15136    3   RELDCT:   T$=NLDCT$; CALL NKL$RELDCT(T$);
PL6.E3A0      #004=KCD$PFPRG File=KCD$CGDEV.:E05TSI                              WED 07/30/97 00:13 Page:164

  15136  1 000123   200005 236100       RELDCT       LDQ     NLDCT$,,AUTO
         1 000124   200071 756100                    STQ     T$,,AUTO

  15136  1 000125   200071 630500                    EPPR0   T$,,AUTO
         1 000126   200074 450500                    STP0    T$+3,,AUTO
         1 000127   200074 630500                    EPPR0   T$+3,,AUTO
         1 000130   000017 631400 xsym               EPPR1   B_VECTNIL+15
         1 000131   000000 701000 xent               TSX1    NKL$RELDCT
         1 000132   000000 011000                    NOP     0

     1061    15137    3             ALTRETURN;

  15137  1 000133   000000 702200 xent               TSX2  ! X66_AALT

     1062    15138    3             END;
     1063    15139    2           FPSTA$=T$;

  15139  1 000134   200071 236100                    LDQ     T$,,AUTO
         1 000135   200006 756100                    STQ     FPSTA$,,AUTO

     1064    15140                %LOCK (G=FPSTA$->KQ$STA.GATE);

  15141  1 000136   000016 036003                    ADLQ    14,DU
         1 000137   200074 756100                    STQ     T$+3,,AUTO
         1 000140   200074 630500                    EPPR0   T$+3,,AUTO
         1 000141   000017 631400 xsym               EPPR1   B_VECTNIL+15
         1 000142   000000 701000 xent               TSX1    HFC$LOCK
         1 000143   000000 011000                    NOP     0

     1065    15143    2           END;

     1066    15144              %UNLOCK (G=KQ$CG.STREE.GATE);

  15145  1 000144   200010 236100                    LDQ     CG$,,AUTO
         1 000145   000075 036003                    ADLQ    61,DU
         1 000146   200074 756100                    STQ     T$+3,,AUTO
PL6.E3A0      #004=KCD$PFPRG File=KCD$CGDEV.:E05TSI                              WED 07/30/97 00:13 Page:165
         1 000147   200074 630500                    EPPR0   T$+3,,AUTO
         1 000150   000017 631400 xsym               EPPR1   B_VECTNIL+15
         1 000151   000000 701000 xent               TSX1    HFC$UNLOCK
         1 000152   000000 011000                    NOP     0

     1067    15147    1         FPSTA$->KQ$STA.TOLDAU='0'B;

  15147  1 000153   200006 470500                    LDP0    FPSTA$,,AUTO
         1 000154   000000 236000 2                  LDQ     0
         1 000155   000020 356100                    ANSQ    16,,PR0

     1068    15148    1         FPSTA$->KQ$STA.USEAUACCT=KQ_STA.USEAUACCT;

  15148  1 000156   200003 471500                    LDP1    @KQ_STA,,AUTO
         1 000157   100023 236100                    LDQ     19,,PR1
         1 000160   000023 676100                    ERQ     19,,PR0
         1 000161   000200 376007                    ANQ     128,DL
         1 000162   000023 656100                    ERSQ    19,,PR0

     1069    15149    1         FPSTA$->KQ$STA.OPNBLKED='0'B;

  15149  1 000163   000001 236000 2                  LDQ     1
         1 000164   000023 356100                    ANSQ    19,,PR0

     1070    15150    1         FPSTA$->KQ$STA.DSCREQW='0'B;

  15150  1 000165   000023 356100                    ANSQ    19,,PR0

     1071    15151    1         FPSTA$->KQ$STA.DSCREQS='0'B;

  15151  1 000166   000002 236000 2                  LDQ     2
         1 000167   000023 356100                    ANSQ    19,,PR0

     1072    15152    1         FPSTA$->KQ$STA.STARSDUN='0'B;

  15152  1 000170   000003 236000 2                  LDQ     3
         1 000171   000023 356100                    ANSQ    19,,PR0
PL6.E3A0      #004=KCD$PFPRG File=KCD$CGDEV.:E05TSI                              WED 07/30/97 00:13 Page:166

     1073    15153    1         FPSTA$->KQ$STA.PVGSENSE='0'B;

  15153  1 000172   000004 236000 2                  LDQ     4
         1 000173   000023 356100                    ANSQ    19,,PR0

     1074    15154    1         FPSTA$->KQ$STA.SUCCREAD='0'B;

  15154  1 000174   000005 236000 2                  LDQ     5
         1 000175   000020 356100                    ANSQ    16,,PR0

     1075    15155    1         FPSTA$->KQ$STA.IDSC='0'B;

  15155  1 000176   000031 236000 xsym               LDQ     B_VECTNIL+25
         1 000177   000020 356100                    ANSQ    16,,PR0

     1076    15156    1         FPSTA$->KQ$STA.SAVIDSC='0'B;

  15156  1 000200   000006 236000 2                  LDQ     6
         1 000201   000023 356100                    ANSQ    19,,PR0

     1077    15157    1         FPSTA$->KQ$STA.AU='0'B;

  15157  1 000202   000007 236000 2                  LDQ     7
         1 000203   000020 356100                    ANSQ    16,,PR0

     1078    15158    1         FPSTA$->KQ$STA.EVNT='0'B;

  15158  1 000204   000010 236000 2                  LDQ     8
         1 000205   000020 356100                    ANSQ    16,,PR0

     1079    15159    1         FPSTA$->KQ$STA.DSID=KQ$CG.MSGID;

  15159  1 000206   200010 473500                    LDP3    CG$,,AUTO
         1 000207   300113 235100                    LDA     75,,PR3
         1 000210   000022 755100                    STA     18,,PR0

PL6.E3A0      #004=KCD$PFPRG File=KCD$CGDEV.:E05TSI                              WED 07/30/97 00:13 Page:167
     1080    15160    1         FPSTA$->KQ$STA.WRITES=0;

  15160  1 000211   000027 450100                    STZ     23,,PR0

     1081    15161    1         FPSTA$->KQ$STA.READS=0;

  15161  1 000212   000026 450100                    STZ     22,,PR0

     1082    15162    1         FPSTA$->KQ$STA.CNNCTDDA=0;

  15162  1 000213   000021 450100                    STZ     17,,PR0

     1083    15163    1         FPSTA$->KQ$STA.USR#=0;

  15163  1 000214   000000 236003                    LDQ     0,DU
         1 000215   000020 552110                    STBQ    16,'10'O,PR0

     1084    15164    1         FPSTA$->KQ$STA.TERM='1'B;

  15164  1 000216   040000 236003                    LDQ     16384,DU
         1 000217   000020 256100                    ORSQ    16,,PR0

     1085    15165    1         KQ$CG.STATS.NUMTERMS=KQ$CG.STATS.NUMTERMS+1;

  15165  1 000220   300174 054100                    AOS     124,,PR3

     1086    15166    1         GOTO CMN;

  15166  1 000221   000252 710000 1                  TRA     CMN

     1087    15167        /**/
     1088    15168        /**/
     1089    15169        /*D* NAME:        KCD$TFPRG
     1090    15170             PURPOSE:     To transform an existing TERMINAL station into an FPRG station
     1091    15171             CALL:        CALL KCD$TFPRG(KQ_STA) ALTRET(LBL);
     1092    15172             INPUT:       KQ_STA - The station block to be transformed
     1093    15173             OUTPUT:      KQ_STA - A transformed station
PL6.E3A0      #004=KCD$PFPRG File=KCD$CGDEV.:E05TSI                              WED 07/30/97 00:13 Page:168
     1094    15174             DESCRIPTION: KCD$TFPRG is called with no gates locked but
     1095    15175                          KQ_STA.LOCKCNT counted up. If KQ_STA's LDCT is
     1096    15176                          ACTIVE, we RETURN immediately.
     1097    15177                          An LDCT is obtained and attached to KQ_STA; KQ_STA's
     1098    15178                          original LDCT is saved in KQ_STA.SAVLDCT$.
     1099    15179                          A KL_STRTU message is sent to Node Admin and the
     1100    15180                          calling user is REGged awaiting the results. If
     1101    15181                          the path is successfully established, we RETURN
     1102    15182                          otherwise we ALTRETURN with an error in B$JIT.ERR.
     1103    15183        */
     1104    15184    1   KCD$TFPRG: ENTRY(KQ_STA) ALTRET;

  15184  1 000222   000000 700200 xent  KCD$TFPRG    TSX0  ! X66_AUTO_2
         1 000223   000100 000002                    ZERO    64,2

     1105    15185        /**/
     1106    15186        /**/
     1107    15187    1         IF KQ_STA.LDCT$->LDCT.LKFLG.ACTIVE THEN RETURN;

  15187  1 000224   200003 470500                    LDP0    @KQ_STA,,AUTO
         1 000225   000010 471500                    LDP1    8,,PR0
         1 000226   100011 236100                    LDQ     9,,PR1
         1 000227   000040 316003                    CANQ    32,DU
         1 000230   000232 600000 1                  TZE     s:15188

  15187  1 000231   000000 702200 xent               TSX2  ! X66_ARET

     1108    15188    1         CALL SETUP ALTRET(JUSTALT);

  15188  1 000232   000703 701000 1                  TSX1    SETUP
         1 000233   000701 702000 1                  TSX2    JUSTALT

     1109    15189              %LOCK (G=KQ_STA.GATE);

  15190  1 000234   200003 236100                    LDQ     @KQ_STA,,AUTO
         1 000235   000016 036003                    ADLQ    14,DU
         1 000236   200074 756100                    STQ     T$+3,,AUTO
PL6.E3A0      #004=KCD$PFPRG File=KCD$CGDEV.:E05TSI                              WED 07/30/97 00:13 Page:169
         1 000237   200074 630500                    EPPR0   T$+3,,AUTO
         1 000240   000017 631400 xsym               EPPR1   B_VECTNIL+15
         1 000241   000000 701000 xent               TSX1    HFC$LOCK
         1 000242   000000 011000                    NOP     0

     1110    15192    1         KQ_STA.SAVLDCT$=KQ_STA.LDCT$;

  15192  1 000243   200003 470500                    LDP0    @KQ_STA,,AUTO
         1 000244   000010 236100                    LDQ     8,,PR0
         1 000245   000031 756100                    STQ     25,,PR0

     1111    15193    1         KQ_STA.LDCT$=ADDR(NIL);

  15193  1 000246   000001 236000 xsym               LDQ     B_VECTNIL+1
         1 000247   000010 756100                    STQ     8,,PR0

     1112    15194    1         FPSTA$=ADDR(KQ_STA);

  15194  1 000250   200003 236100                    LDQ     @KQ_STA,,AUTO
         1 000251   200006 756100                    STQ     FPSTA$,,AUTO

  15194  1 000252                       CMN          null
     1113    15195
     1114    15196
     1115    15197    1   CMN:  ;
     1116    15198    1         IF B$PS0$->FPT$ACTIVATE_V.FLUSH

  15198  1 000252   000000 470400 xsym               LDP0    B$PS0$
         1 000253   000002 236100                    LDQ     2,,PR0
         1 000254   200000 316003                    CANQ    65536,DU
         1 000255   000271 600000 1                  TZE     s:15200

     1117    15199    1         THEN CALL KQL$DELMLH(KQ$CG,ADDR(FPSTA$->KQ$STA.MLH));

  15199  1 000256   200006 236100                    LDQ     FPSTA$,,AUTO
         1 000257   000034 036003                    ADLQ    28,DU
         1 000260   200074 756100                    STQ     T$+3,,AUTO
PL6.E3A0      #004=KCD$PFPRG File=KCD$CGDEV.:E05TSI                              WED 07/30/97 00:13 Page:170
         1 000261   200074 631500                    EPPR1   T$+3,,AUTO
         1 000262   200077 451500                    STP1    T$+6,,AUTO
         1 000263   200010 236100                    LDQ     CG$,,AUTO
         1 000264   200076 756100                    STQ     T$+5,,AUTO
         1 000265   200076 630500                    EPPR0   T$+5,,AUTO
         1 000266   000020 631400 xsym               EPPR1   B_VECTNIL+16
         1 000267   000000 701000 xent               TSX1    KQL$DELMLH
         1 000270   000000 011000                    NOP     0

     1118    15200    1         FPSTA$->KQ$STA.DVBYTE=B$PS0$->FPT$ACTIVATE_V.DVBYTE;

  15200  1 000271   200006 470500                    LDP0    FPSTA$,,AUTO
         1 000272   000000 471400 xsym               LDP1    B$PS0$
         1 000273   100000 236100                    LDQ     0,,PR1
         1 000274   000022 736000                    QLS     18
         1 000275   000023 552120                    STBQ    19,'20'O,PR0

     1119    15201    1         NLDCT.DEVNM=FPSTA$->KQ$STA.BTN.KEY;

  15201  1 000276   200005 473500                    LDP3    NLDCT$,,AUTO
         1 000277   040100 100500                    MLR     fill='040'O
         1 000300   000005 000010                    ADSC9   5,,PR0                   cn=0,n=8
         1 000301   300002 000010                    ADSC9   2,,PR3                   cn=0,n=8

     1120    15202    1         NLDCT.CG$=LDCT.CG$;

  15202  1 000302   200007 474500                    LDP4    LDCT$,,AUTO
         1 000303   400027 236100                    LDQ     23,,PR4
         1 000304   300027 756100                    STQ     23,,PR3

     1121    15203              /* Allow FPRG to do both INPUT and OUTPUT; don't take values from term sta */
     1122    15204    1         NLDCT.DFLG.INPUT='1'B;

  15204  1 000305   400000 236007                    LDQ     -131072,DL
         1 000306   300006 256100                    ORSQ    6,,PR3

     1123    15205    1         NLDCT.DFLG.OUTPUT='1'B;
PL6.E3A0      #004=KCD$PFPRG File=KCD$CGDEV.:E05TSI                              WED 07/30/97 00:13 Page:171

  15205  1 000307   200000 236007                    LDQ     65536,DL
         1 000310   300006 256100                    ORSQ    6,,PR3

     1124    15206    1         NLDCT.DFLG.CM='1'B;

  15206  1 000311   100000 236007                    LDQ     32768,DL
         1 000312   300006 256100                    ORSQ    6,,PR3

     1125    15207    1         NLDCT.DFLG.CONSOLE=LDCT.DFLG.CONSOLE;

  15207  1 000313   400006 236100                    LDQ     6,,PR4
         1 000314   300006 676100                    ERQ     6,,PR3
         1 000315   040000 376007                    ANQ     16384,DL
         1 000316   300006 656100                    ERSQ    6,,PR3

     1126    15208    1         NLDCT.DFLG.SYMBIONT=LDCT.DFLG.SYMBIONT;

  15208  1 000317   400006 236100                    LDQ     6,,PR4
         1 000320   300006 676100                    ERQ     6,,PR3
         1 000321   020000 376007                    ANQ     8192,DL
         1 000322   300006 656100                    ERSQ    6,,PR3

     1127    15209    1         NLDCT.RESCOD=NK_CGFPRG;

  15209  1 000323   300006 236100                    LDQ     6,,PR3
         1 000324   000011 376000 2                  ANQ     9
         1 000325   000011 276007                    ORQ     9,DL
         1 000326   300006 756100                    STQ     6,,PR3

     1128    15210    1         NLDCT.USER=S_CUN;

  15210  1 000327   000000 236000 xsym               LDQ     S_CUN
         1 000330   000022 736000                    QLS     18
         1 000331   300007 552120                    STBQ    7,'20'O,PR3

     1129    15211    1         NLDCT.TERMID.TTYP=LDCT.TERMID.TTYP;
PL6.E3A0      #004=KCD$PFPRG File=KCD$CGDEV.:E05TSI                              WED 07/30/97 00:13 Page:172

  15211  1 000332   400022 236100                    LDQ     18,,PR4
         1 000333   300022 552120                    STBQ    18,'20'O,PR3

     1130    15212    1         NLDCT.RLCID.NODE=LDCT.RLCID.NODE;

  15212  1 000334   400015 236100                    LDQ     13,,PR4
         1 000335   300015 552140                    STBQ    13,'40'O,PR3

     1131    15213    1         NLDCT.RLCID.LDCTX = 0;

  15213  1 000336   000000 220003                    LDX0    0,DU
         1 000337   300015 440100                    SXL0    13,,PR3

     1132    15214    1         NLDCT.ERR = '0'B;

  15214  1 000340   300000 450100                    STZ     0,,PR3

     1133    15215    1         NLDCT.STA$=FPSTA$;

  15215  1 000341   200006 236100                    LDQ     FPSTA$,,AUTO
         1 000342   300012 756100                    STQ     10,,PR3

     1134    15216    1         NLDCT.LOGON_ACCT = LDCT.LOGON_ACCT;

  15216  1 000343   400024 237100                    LDAQ    20,,PR4
         1 000344   300024 757100                    STAQ    20,,PR3

     1135    15217    1         FPSTA$->KQ$STA.LDCT$=NLDCT$;

  15217  1 000345   200005 236100                    LDQ     NLDCT$,,AUTO
         1 000346   000010 756100                    STQ     8,,PR0

     1136    15218
     1137    15219    1         STRTU='0'B;

  15219  1 000347   000100 100400                    MLR     fill='000'O
PL6.E3A0      #004=KCD$PFPRG File=KCD$CGDEV.:E05TSI                              WED 07/30/97 00:13 Page:173
         1 000350   000002 000001 xsym               ADSC9   B_VECTNIL+2              cn=0,n=1
         1 000351   200014 000264                    ADSC9   STRTU,,AUTO              cn=0,n=180

     1138    15220    2         IF FPSTA$->KQ$STA.USEAUACCT THEN DO;

  15220  1 000352   000023 236100                    LDQ     19,,PR0
         1 000353   000200 316007                    CANQ    128,DL
         1 000354   000365 600000 1                  TZE     s:15225

     1139    15221    2           STRTU.ACCT = B$JIT$->B$JIT.ACCN;

  15221  1 000355   000000 475400 xsym               LDP5    B$JIT$
         1 000356   040100 100500                    MLR     fill='040'O
         1 000357   500001 000010                    ADSC9   1,,PR5                   cn=0,n=8
         1 000360   200021 400010                    ADSC9   STRTU+5,,AUTO            cn=2,n=8

     1140    15222    2           STRTU.UNAME = B$JIT$->B$JIT.UNAME;

  15222  1 000361   040100 100500                    MLR     fill='040'O
         1 000362   500003 000014                    ADSC9   3,,PR5                   cn=0,n=12
         1 000363   200016 400014                    ADSC9   STRTU+2,,AUTO            cn=2,n=12

     1141    15223    2           END;

  15223  1 000364   000374 710000 1                  TRA     s:15228

     1142    15224    2         ELSE DO;

     1143    15225    2           STRTU.ACCT=NLDCT.LOGON_ACCT;

  15225  1 000365   040100 100500                    MLR     fill='040'O
         1 000366   300024 000010                    ADSC9   20,,PR3                  cn=0,n=8
         1 000367   200021 400010                    ADSC9   STRTU+5,,AUTO            cn=2,n=8

     1144    15226    2           STRTU.UNAME=B$JIT$->B$JIT.ACCN;

  15226  1 000370   000000 475400 xsym               LDP5    B$JIT$
PL6.E3A0      #004=KCD$PFPRG File=KCD$CGDEV.:E05TSI                              WED 07/30/97 00:13 Page:174
         1 000371   040100 100500                    MLR     fill='040'O
         1 000372   500001 000010                    ADSC9   1,,PR5                   cn=0,n=8
         1 000373   200016 400014                    ADSC9   STRTU+2,,AUTO            cn=2,n=12

     1145    15227    2           END;

     1146    15228    1         STRTU.FCN=IGA_STRTU;

  15228  1 000374   033000 236003                    LDQ     13824,DU
         1 000375   200014 552140                    STBQ    STRTU,'40'O,AUTO

     1147    15229    1         STRTU.NODE=NLDCT.RLCID.NODE;

  15229  1 000376   300015 236100                    LDQ     13,,PR3
         1 000377   000011 772000                    QRL     9
         1 000400   200014 552120                    STBQ    STRTU,'20'O,AUTO

     1148    15230    1         STRTU.NETADR_FROM.NODE=K_NODE#;

  15230  1 000401   000000 236000 xsym               LDQ     K_NODE#
         1 000402   000011 736000                    QLS     9
         1 000403   200014 552110                    STBQ    STRTU,'10'O,AUTO

     1149    15231    1         STRTU.NETADR_FROM.GENERATION=NLDCT.GENERATION;

  15231  1 000404   300014 236100                    LDQ     12,,PR3
         1 000405   000377 376003                    ANQ     255,DU
         1 000406   000022 772000                    QRL     18
         1 000407   200014 552104                    STBQ    STRTU,'04'O,AUTO

     1150    15232    1         STRTU.NETADR_FROM.LDX.BYT(0)=NLDCT.LDCTX/256;

  15232  1 000410   300006 236100                    LDQ     6,,PR3
         1 000411   000022 772000                    QRL     18
         1 000412   000010 772000                    QRL     8
         1 000413   000033 736000                    QLS     27
         1 000414   200015 676100                    ERQ     STRTU+1,,AUTO
PL6.E3A0      #004=KCD$PFPRG File=KCD$CGDEV.:E05TSI                              WED 07/30/97 00:13 Page:175
         1 000415   377000 376003                    ANQ     130560,DU
         1 000416   200015 656100                    ERSQ    STRTU+1,,AUTO

     1151    15233    1         STRTU.NETADR_FROM.LDX.BYT(1)=NLDCT.LDCTX-STRTU.NETADR_FROM.LDX.BYT(0)*256;

  15233  1 000417   300006 236100                    LDQ     6,,PR3
         1 000420   000022 772000                    QRL     18
         1 000421   200074 756100                    STQ     T$+3,,AUTO
         1 000422   200015 236100                    LDQ     STRTU+1,,AUTO
         1 000423   000023 772000                    QRL     19
         1 000424   177400 376007                    ANQ     65280,DL
         1 000425   000027 676000 xsym               ERQ     B_VECTNIL+23
         1 000426   000001 036007                    ADLQ    1,DL
         1 000427   200074 036100                    ADLQ    T$+3,,AUTO
         1 000430   000022 736000                    QLS     18
         1 000431   200015 676100                    ERQ     STRTU+1,,AUTO
         1 000432   000377 376003                    ANQ     255,DU
         1 000433   200015 656100                    ERSQ    STRTU+1,,AUTO

     1152    15234    1         STRTU.NETADR_TO=LDCT.RLCID;

  15234  1 000434   000100 100500                    MLR     fill='000'O
         1 000435   400015 000004                    ADSC9   13,,PR4                  cn=0,n=4
         1 000436   200015 400004                    ADSC9   STRTU+1,,AUTO            cn=2,n=4

     1153    15235    1         STRTU.MODE=%G_M_CG#;

  15235  1 000437   002000 236007                    LDQ     1024,DL
         1 000440   200025 552110                    STBQ    STRTU+9,'10'O,AUTO

     1154    15236    1   /*N*/ STRTU.DB_ACCT='?';               /* For now, anyway */

  15236  1 000441   040100 100400                    MLR     fill='040'O
         1 000442   000012 000001 2                  ADSC9   10                       cn=0,n=1
         1 000443   200023 400010                    ADSC9   STRTU+7,,AUTO            cn=2,n=8

     1155    15237
PL6.E3A0      #004=KCD$PFPRG File=KCD$CGDEV.:E05TSI                              WED 07/30/97 00:13 Page:176
     1156    15238    1         FPSTA$->KQ$STA.LOCKCNT=FPSTA$->KQ$STA.LOCKCNT+1;

  15238  1 000444   000020 236100                    LDQ     16,,PR0
         1 000445   000001 036007                    ADLQ    1,DL
         1 000446   000020 552104                    STBQ    16,'04'O,PR0

     1157    15239                                               /* To keep any disconnect of the LDCT */
     1158    15240                                               /* from causing the LDCT to disappear */
     1159    15241                                               /* in the window between path         */
     1160    15242                                               /* completion (first possible disc)   */
     1161    15243                                               /* and our locking of the LDCT after  */
     1162    15244                                               /* returning from the REG             */
     1163    15245              %UNLOCK (G=FPSTA$->KQ$STA.GATE);

  15246  1 000447   200006 236100                    LDQ     FPSTA$,,AUTO
         1 000450   000016 036003                    ADLQ    14,DU
         1 000451   200074 756100                    STQ     T$+3,,AUTO
         1 000452   200074 630500                    EPPR0   T$+3,,AUTO
         1 000453   000017 631400 xsym               EPPR1   B_VECTNIL+15
         1 000454   000000 701000 xent               TSX1    HFC$UNLOCK
         1 000455   000000 011000                    NOP     0

     1164    15248
     1165    15249    1         I=SIZEC(STRTU);

  15249  1 000456   000264 235007                    LDA     180,DL
         1 000457   200011 755100                    STA     I,,AUTO

     1166    15250    1         CALL KUB$WRITE(STRTU,I,'HLPADMIN');

  15250  1 000460   000013 236000 2                  LDQ     11
         1 000461   200076 756100                    STQ     T$+5,,AUTO
         1 000462   200011 630500                    EPPR0   I,,AUTO
         1 000463   200075 450500                    STP0    T$+4,,AUTO
         1 000464   200014 631500                    EPPR1   STRTU,,AUTO
         1 000465   200074 451500                    STP1    T$+3,,AUTO
         1 000466   200074 630500                    EPPR0   T$+3,,AUTO
PL6.E3A0      #004=KCD$PFPRG File=KCD$CGDEV.:E05TSI                              WED 07/30/97 00:13 Page:177
         1 000467   000021 631400 xsym               EPPR1   B_VECTNIL+17
         1 000470   000000 701000 xent               TSX1    KUB$WRITE
         1 000471   000000 011000                    NOP     0

     1167    15251                       /* Now we REG the user until this process completes so that
     1168    15252                          we may ALTRET to him if any error occurs.
     1169    15253
     1170    15254                          When we return from the REG, we may be in any of
     1171    15255                          several states:
     1172    15256                             1) NLDCT.ERR ~=0
     1173    15257                                We got an error BEFORE establishing the path.
     1174    15258                                We must report NLDCT.ERR to the user and fake
     1175    15259                                up a disconnect on this station so that
     1176    15260                                KQP$UNLOCK will continue with the disconnect
     1177    15261                                process and repair the damage.
     1178    15262                             2) NLDCT.ERR=0 but NLDCT.LKFLG.OLDSC has been set
     1179    15263                                No need to do anything for this since KQP$UNLOCK
     1180    15264                                will do all that is necessary.
     1181    15265                             3) Everything OK
     1182    15266                                We must set LDCT.LKFLG.ACTIVE and call
     1183    15267                                KCF$FERDS to get reads to the new station
     1184    15268                                started.
     1185    15269        */
     1186    15270
     1187    15271              %LOCK (G=NLDCT.LOCK);

  15272  1 000472   200005 236100                    LDQ     NLDCT$,,AUTO
         1 000473   000020 036003                    ADLQ    16,DU
         1 000474   200074 756100                    STQ     T$+3,,AUTO
         1 000475   200074 630500                    EPPR0   T$+3,,AUTO
         1 000476   000017 631400 xsym               EPPR1   B_VECTNIL+15
         1 000477   000000 701000 xent               TSX1    HFC$LOCK
         1 000500   000000 011000                    NOP     0

     1188    15274    2         IF (NLDCT.RLCID.LDCTX = 0) AND (NLDCT.ERR = '0'B) THEN DO;

  15274  1 000501   200005 470500                    LDP0    NLDCT$,,AUTO
PL6.E3A0      #004=KCD$PFPRG File=KCD$CGDEV.:E05TSI                              WED 07/30/97 00:13 Page:178
         1 000502   000015 720100                    LXL0    13,,PR0
         1 000503   000527 601000 1                  TNZ     s:15281
         1 000504   000000 235100                    LDA     0,,PR0
         1 000505   000527 601000 1                  TNZ     s:15281

     1189    15275    2           NLDCT.LKFLG.REGGED='1'B;

  15275  1 000506   100000 236003                    LDQ     32768,DU
         1 000507   000011 256100                    ORSQ    9,,PR0

     1190    15276    2           CALL SSR$REG(%SS_CW,FPSTA$->KQ$STA.LDCT$);

  15276  1 000510   200006 236100                    LDQ     FPSTA$,,AUTO
         1 000511   000010 036003                    ADLQ    8,DU
         1 000512   000015 235000 2                  LDA     13
         1 000513   200074 757100                    STAQ    T$+3,,AUTO
         1 000514   200074 630500                    EPPR0   T$+3,,AUTO
         1 000515   000020 631400 xsym               EPPR1   B_VECTNIL+16
         1 000516   000000 701000 xent               TSX1    SSR$REG
         1 000517   000000 011000                    NOP     0

     1191    15277                %LOCK (G=NLDCT.LOCK);

  15278  1 000520   200005 236100                    LDQ     NLDCT$,,AUTO
         1 000521   000020 036003                    ADLQ    16,DU
         1 000522   200074 756100                    STQ     T$+3,,AUTO
         1 000523   200074 630500                    EPPR0   T$+3,,AUTO
         1 000524   000017 631400 xsym               EPPR1   B_VECTNIL+15
         1 000525   000000 701000 xent               TSX1    HFC$LOCK
         1 000526   000000 011000                    NOP     0

     1192    15280    2           END;

     1193    15281    1         IF NLDCT.ERR

  15281  1 000527   200005 470500                    LDP0    NLDCT$,,AUTO
         1 000530   000000 235100                    LDA     0,,PR0
PL6.E3A0      #004=KCD$PFPRG File=KCD$CGDEV.:E05TSI                              WED 07/30/97 00:13 Page:179
         1 000531   000654 600000 1                  TZE     s:15316

     1194    15282    1         THEN IF (NLDCT.ERR.CODE=%E$NO_START OR /* unix fep? */

  15282  1 000532   000000 236100                    LDQ     0,,PR0
         1 000533   377770 376007                    ANQ     131064,DL
         1 000534   003140 116007                    CMPQ    1632,DL
         1 000535   000540 600000 1                  TZE     s:15282+6
         1 000536   035200 116007                    CMPQ    14976,DL
         1 000537   000613 601000 1                  TNZ     s:15299
         1 000540   000022 236100                    LDQ     18,,PR0
         1 000541   000777 376003                    ANQ     511,DU
         1 000542   000012 116003                    CMPQ    10,DU
         1 000543   000613 601000 1                  TNZ     s:15299
         1 000544   200006 471500                    LDP1    FPSTA$,,AUTO
         1 000545   100031 236100                    LDQ     25,,PR1
         1 000546   000001 116000 xsym               CMPQ    B_VECTNIL+1
         1 000547   000613 600000 1                  TZE     s:15299

     1195    15283    1          NLDCT.ERR.CODE=1872)
     1196    15284    1          AND NLDCT.TERMID.TTYP=%KLTY_LINEDEV# /* running cp6fprg? */
     1197    15285    2          AND FPSTA$->KQ$STA.SAVLDCT$~=ADDR(NIL) THEN DO;

     1198    15286    2            FPSTA$->KQ$STA.SAVLDCT$=ADDR(NIL);

  15286  1 000550   000001 236000 xsym               LDQ     B_VECTNIL+1
         1 000551   100031 756100                    STQ     25,,PR1

     1199    15287    2            FPSTA$->KQ$STA.LDCT$=LDCT$;

  15287  1 000552   200007 236100                    LDQ     LDCT$,,AUTO
         1 000553   100010 756100                    STQ     8,,PR1

     1200    15288                 %UNLOCK (G=NLDCT.LOCK);

  15289  1 000554   200005 236100                    LDQ     NLDCT$,,AUTO
         1 000555   000020 036003                    ADLQ    16,DU
PL6.E3A0      #004=KCD$PFPRG File=KCD$CGDEV.:E05TSI                              WED 07/30/97 00:13 Page:180
         1 000556   200074 756100                    STQ     T$+3,,AUTO
         1 000557   200074 630500                    EPPR0   T$+3,,AUTO
         1 000560   000017 631400 xsym               EPPR1   B_VECTNIL+15
         1 000561   000000 701000 xent               TSX1    HFC$UNLOCK
         1 000562   000000 011000                    NOP     0

     1201    15291    2            T$=NLDCT$; CALL NKL$RELDCT(T$);

  15291  1 000563   200005 236100                    LDQ     NLDCT$,,AUTO
         1 000564   200071 756100                    STQ     T$,,AUTO

  15291  1 000565   200071 630500                    EPPR0   T$,,AUTO
         1 000566   200074 450500                    STP0    T$+3,,AUTO
         1 000567   200074 630500                    EPPR0   T$+3,,AUTO
         1 000570   000017 631400 xsym               EPPR1   B_VECTNIL+15
         1 000571   000000 701000 xent               TSX1    NKL$RELDCT
         1 000572   000000 011000                    NOP     0

     1202    15292    2            LDCT.RESCOD=NK_CGFPRG;

  15292  1 000573   200007 470500                    LDP0    LDCT$,,AUTO
         1 000574   000006 236100                    LDQ     6,,PR0
         1 000575   000011 376000 2                  ANQ     9
         1 000576   000011 276007                    ORQ     9,DL
         1 000577   000006 756100                    STQ     6,,PR0

     1203    15293    2            LDCT.DFLG.INPUT='1'B;

  15293  1 000600   400000 236007                    LDQ     -131072,DL
         1 000601   000006 256100                    ORSQ    6,,PR0

     1204    15294    2            LDCT.LKFLG.FPSTEP='1'B;

  15294  1 000602   000010 236003                    LDQ     8,DU
         1 000603   000011 256100                    ORSQ    9,,PR0

     1205    15295    2            LDCT.LKFLG.ACTIVE='1'B;
PL6.E3A0      #004=KCD$PFPRG File=KCD$CGDEV.:E05TSI                              WED 07/30/97 00:13 Page:181

  15295  1 000604   000040 236003                    LDQ     32,DU
         1 000605   000011 256100                    ORSQ    9,,PR0

     1206    15296    2            CALL KCF$FERDS(LDCT);

  15296  1 000606   200007 630500                    EPPR0   LDCT$,,AUTO
         1 000607   000017 631400 xsym               EPPR1   B_VECTNIL+15
         1 000610   000000 701000 xent               TSX1    KCF$FERDS
         1 000611   000000 011000                    NOP     0

     1207    15297    2            END;

  15297  1 000612   000671 710000 1                  TRA     s:15322

     1208    15298    2          ELSE DO;

     1209    15299    2            B$JIT$->B$JIT.ERR=NLDCT.ERR;

  15299  1 000613   000000 236100                    LDQ     0,,PR0
         1 000614   000000 471400 xsym               LDP1    B$JIT$
         1 000615   100012 756100                    STQ     10,,PR1

     1210    15300    2            NLDCT.ERR='0'B;

  15300  1 000616   000000 450100                    STZ     0,,PR0

     1211    15301    2            NLDCT.DFLG.FEDN='1'B;         /* So that we don't try to write      */

  15301  1 000617   000020 236007                    LDQ     16,DL
         1 000620   000006 256100                    ORSQ    6,,PR0

     1212    15302                                               /* to the FEP since we have no path.  */
     1213    15303    2            NLDCT.DFLG.PRLS='1'B;         /* Release LDCT when done. */

  15303  1 000621   000200 236007                    LDQ     128,DL
         1 000622   000006 256100                    ORSQ    6,,PR0
PL6.E3A0      #004=KCD$PFPRG File=KCD$CGDEV.:E05TSI                              WED 07/30/97 00:13 Page:182

     1214    15304                 %UNLOCK (G=NLDCT.LOCK);

  15305  1 000623   200005 236100                    LDQ     NLDCT$,,AUTO
         1 000624   000020 036003                    ADLQ    16,DU
         1 000625   200074 756100                    STQ     T$+3,,AUTO
         1 000626   200074 630500                    EPPR0   T$+3,,AUTO
         1 000627   000017 631400 xsym               EPPR1   B_VECTNIL+15
         1 000630   000000 701000 xent               TSX1    HFC$UNLOCK
         1 000631   000000 011000                    NOP     0

     1215    15307                 %LOCK (G=FPSTA$->KQ$STA.GATE);

  15308  1 000632   200006 236100                    LDQ     FPSTA$,,AUTO
         1 000633   000016 036003                    ADLQ    14,DU
         1 000634   200074 756100                    STQ     T$+3,,AUTO
         1 000635   200074 630500                    EPPR0   T$+3,,AUTO
         1 000636   000017 631400 xsym               EPPR1   B_VECTNIL+15
         1 000637   000000 701000 xent               TSX1    HFC$LOCK
         1 000640   000000 011000                    NOP     0

     1216    15310    2            FPSTA$->KQ$STA.IDSC='1'B;     /* To get KQP$UNLOCK to continue disc */

  15310  1 000641   200006 470500                    LDP0    FPSTA$,,AUTO
         1 000642   400000 236003                    LDQ     -131072,DU
         1 000643   000020 256100                    ORSQ    16,,PR0

     1217    15311                 %UNLOCK (G=FPSTA$->KQ$STA.GATE);

  15312  1 000644   200006 236100                    LDQ     FPSTA$,,AUTO
         1 000645   000016 036003                    ADLQ    14,DU
         1 000646   200074 756100                    STQ     T$+3,,AUTO
         1 000647   200074 630500                    EPPR0   T$+3,,AUTO
         1 000650   000017 631400 xsym               EPPR1   B_VECTNIL+15
         1 000651   000000 701000 xent               TSX1    HFC$UNLOCK
         1 000652   000000 011000                    NOP     0

PL6.E3A0      #004=KCD$PFPRG File=KCD$CGDEV.:E05TSI                              WED 07/30/97 00:13 Page:183
     1218    15314    2            END;

  15314  1 000653   000671 710000 1                  TRA     s:15322

     1219    15315    2         ELSE DO;

     1220    15316    2           NLDCT.LKFLG.ACTIVE='1'B;

  15316  1 000654   000040 236003                    LDQ     32,DU
         1 000655   000011 256100                    ORSQ    9,,PR0

     1221    15317                %UNLOCK (G=NLDCT.LOCK);

  15318  1 000656   200005 236100                    LDQ     NLDCT$,,AUTO
         1 000657   000020 036003                    ADLQ    16,DU
         1 000660   200074 756100                    STQ     T$+3,,AUTO
         1 000661   200074 630500                    EPPR0   T$+3,,AUTO
         1 000662   000017 631400 xsym               EPPR1   B_VECTNIL+15
         1 000663   000000 701000 xent               TSX1    HFC$UNLOCK
         1 000664   000000 011000                    NOP     0

     1222    15320    2           CALL KCF$FERDS(NLDCT);

  15320  1 000665   200005 630500                    EPPR0   NLDCT$,,AUTO
         1 000666   000017 631400 xsym               EPPR1   B_VECTNIL+15
         1 000667   000000 701000 xent               TSX1    KCF$FERDS
         1 000670   000000 011000                    NOP     0

     1223    15321    2           END;

     1224    15322    1         CALL KQP$UNLOCK(FPSTA$->KQ$STA);

  15322  1 000671   200006 630500                    EPPR0   FPSTA$,,AUTO
         1 000672   000017 631400 xsym               EPPR1   B_VECTNIL+15
         1 000673   000000 701000 xent               TSX1    KQP$UNLOCK
         1 000674   000000 011000                    NOP     0

PL6.E3A0      #004=KCD$PFPRG File=KCD$CGDEV.:E05TSI                              WED 07/30/97 00:13 Page:184
     1225    15323    1         IF B$JIT$->B$JIT.ERR.CODE~=0 THEN

  15323  1 000675   000000 470400 xsym               LDP0    B$JIT$
         1 000676   000012 236100                    LDQ     10,,PR0
         1 000677   377770 316007                    CANQ    131064,DL
         1 000700   000702 600000 1                  TZE     s:15325

     1226    15324    1   JUSTALT: ALTRETURN;

  15324  1 000701   000000 702200 xent  JUSTALT      TSX2  ! X66_AALT

     1227    15325    1         RETURN;

  15325  1 000702   000000 702200 xent               TSX2  ! X66_ARET

     1228    15326
     1229    15327
     1230    15328    1   SETUP: PROC ALTRET;

  15328  1 000703   200072 741300       SETUP        STX1  ! T$+1,,AUTO

     1231    15329    2         LDCT$=KQ_STA.LDCT$;

  15329  1 000704   200003 470500                    LDP0    @KQ_STA,,AUTO
         1 000705   000010 236100                    LDQ     8,,PR0
         1 000706   200007 756100                    STQ     LDCT$,,AUTO

     1232    15330    2         CG$=LDCT.CG$;

  15330  1 000707   200007 471500                    LDP1    LDCT$,,AUTO
         1 000710   100027 236100                    LDQ     23,,PR1
         1 000711   200010 756100                    STQ     CG$,,AUTO

     1233    15331    3         CALL NKL$GETDCT(T$) WHENALTRETURN DO;

  15331  1 000712   200071 633500                    EPPR3   T$,,AUTO
         1 000713   200074 453500                    STP3    T$+3,,AUTO
PL6.E3A0      #004=KCD$PFPRG File=KCD$CGDEV.:E05TSI                              WED 07/30/97 00:13 Page:185
         1 000714   200074 630500                    EPPR0   T$+3,,AUTO
         1 000715   000017 631400 xsym               EPPR1   B_VECTNIL+15
         1 000716   000000 701000 xent               TSX1    NKL$GETDCT
         1 000717   000721 702000 1                  TSX2    s:15332
         1 000720   000726 710000 1                  TRA     s:15338

     1234    15332    3           B$JIT$->B$JIT.ERR=E_PCNLDCT;

  15332  1 000721   000002 236000 0                  LDQ     E_PCNLDCT
         1 000722   000000 470400 xsym               LDP0    B$JIT$
         1 000723   000012 756100                    STQ     10,,PR0

     1235    15333        /*E* ERROR: KCD-E$PCNLDCT-E
     1236    15334             MESSAGE: No LDCTs available to ACTIVATE your FPRG user
     1237    15335        */
     1238    15336    3           ALTRETURN;

  15336  1 000724   200072 221300                    LDX1  ! T$+1,,AUTO
         1 000725   000000 702211                    TSX2  ! 0,X1

     1239    15337    3           END;
     1240    15338    2         NLDCT$=T$;

  15338  1 000726   200071 236100                    LDQ     T$,,AUTO
         1 000727   200005 756100                    STQ     NLDCT$,,AUTO

     1241    15339    2         RETURN;

  15339  1 000730   200072 221300                    LDX1  ! T$+1,,AUTO
         1 000731   000001 702211                    TSX2  ! 1,X1

E_DUPNM
 Sect OctLoc
   0     000   130304 015432                                                    X...

E_NOMEM
 Sect OctLoc
PL6.E3A0      #004=KCD$PFPRG File=KCD$CGDEV.:E05TSI                              WED 07/30/97 00:13 Page:186
   0     001   130304 015442                                                    X...

E_PCNLDCT
 Sect OctLoc
   0     002   130304 022612                                                    X...

E_STACHAR
 Sect OctLoc
   0     003   130304 015362                                                    X...

(unnamed)
 Sect OctLoc
   0     004   110114 120101   104115 111116                                    HLPADMIN

(unnamed)
 Sect OctLoc
   2     000   773777 777777   777777 757777   777777 767777   777777 775777    ................
   2     004   777777 776777   767777 777777   777777 777377   577777 777777    ................
   2     010   775777 777777   777777 777760   077040 040040   000004 006000    ........?   ....
   2     014   000000 000047   000014 006000                                    ...'....
     1242    15340    2   END SETUP;
     1243    15341    1   END KCD$PFPRG;

PL6.E3A0      #004=KCD$PFPRG File=KCD$CGDEV.:E05TSI                              WED 07/30/97 00:13 Page:187
--  Include file information  --

   SS_SCHED_C.:E05TOU  is referenced.
   NK_SUBS.:E05TOU  is referenced.
   NK$LDCT.:E05TOU  is referenced.
   K$RWPARM.:E05TOU  is referenced.
   K_DATA_R.:E05TOU  cannot be made into a system file and is referenced.
   KQ_MAC_C.:E05TOU  is referenced.
   KL_SUPER_C.:E05TOU  is referenced.
   KL_MACRO_C.:E05TOU  is referenced.
   KL_AFCN_C.:E05TOU  is referenced.
   KC_DATA_R.:E05TOU  cannot be made into a system file and is referenced.
   KC_CP6.:E05TOU  is referenced.
   KC$CP6V_C.:E05TOU  is referenced.
   HF_LOCK_C.:E05TOU  cannot be made into a system file and is referenced.
   G_JIT_M.:E05TOU  is referenced.
   F_MACROS_C.:E05TOU  is referenced.
   CP_6_SUBS.:E05TOU  is referenced.
   B_ERRORS_C.:E05TOU  is referenced.
   B$JIT_C.:E05TOU  is referenced.
   B$JIT.:E05TOU  cannot be made into a system file and is referenced.
      No diagnostics issued in procedure KCD$PFPRG.
PL6.E3A0      #004=KCD$PFPRG File=KCD$CGDEV.:E05TSI                              WED 07/30/97 00:13 Page:188

 **** Variables and constants ****

  ****  Section 000 RoData KCD$PFPRG

  ****  Scalars and arrays  ****
OctLoc.c.b A Datatyp(siz) R M Lvl/name                 OctLoc.c.b A Datatyp(siz) R M Lvl/name

     0-0-0/b STRC        r     1 E_DUPNM                    1-0-0/b STRC        r     1 E_NOMEM
     2-0-0/b STRC        r     1 E_PCNLDCT                  3-0-0/b STRC        r     1 E_STACHAR

  ****  Auto variables  ****

  ****  Scalars and arrays  ****
OctLoc.c.b A Datatyp(siz) R M Lvl/name                 OctLoc.c.b A Datatyp(siz) R M Lvl/name

     3-0-0/w PTR         r     1 @KQ_STA                    4-0-0/w PTR         r     1 @VLP_STATION
    10-0-0/w PTR         r     1 CG$                        6-0-0/w PTR         r     1 FPSTA$
    11-0-0/w SBIN        r     1 I                         12-0-0/c CHAR(8)     r     1 KEY
    *0-0-0/d STRC(1296)  r     1 KQ_STA                     7-0-0/w PTR         r     1 LDCT$
     5-0-0/w PTR         r     1 NLDCT$                    14-0-0/w STRC(1620)  r     1 STRTU
    71-0-0/w PTR         r     1 T$                        *0-0-0/w STRC(288)   r     1 VLP_STATION

  ****  SYMREF variables  ****

  ****  Scalars and arrays  ****
OctLoc.c.b A Datatyp(siz) R M Lvl/name                 OctLoc.c.b A Datatyp(siz) R M Lvl/name

     0-0-0/w PTR         r     1 B$JIT$                     0-0-0/w PTR         r     1 B$PS0$
     0-0-0/c CHAR(68)    r     1 KC_LGL1ST                  0-0-0/w UBIN        r     1 K_NODE#
     0-0-0/w UBIN        r     1 S_CUN

  ****  BASED and DCB variables  ****

  ****  Scalars and arrays  ****
OctLoc.c.b A Datatyp(siz) R M Lvl/name                 OctLoc.c.b A Datatyp(siz) R M Lvl/name

     0-0-0/d STRC(8856)  r     1 B$JIT                      0-0-0/d STRC(288)   r     1 FPT$ACTIVATE_V
PL6.E3A0      #004=KCD$PFPRG File=KCD$CGDEV.:E05TSI                              WED 07/30/97 00:13 Page:189
     0-0-0/d STRC(6516)  r     1 KQ$CG                      0-0-0/d STRC(1296)  r     1 KQ$STA
     0-0-0/d STRC(864)   r     1 NK$LDCT                    0-0-0/d STRC(864)   r     1 NLDCT


   Procedure KCD$PFPRG requires 474 words for executable code.
   Procedure KCD$PFPRG requires 64 words of local(AUTO) storage.

    No errors detected in file KCD$CGDEV.:E05TSI    .
PL6.E3A0      #004=KCD$PFPRG File=KCD$CGDEV.:E05TSI                              WED 07/30/97 00:13 Page:190
          *** CROSS REFERENCE LISTING ***
**     DENOTES     IDENTIFIER DEFINITION
<<                 IDENTIFIER'S VALUE SET
>>                 IDENTIFIER'S VALUE USED
<>                 IDENTIFIER SET AND/OR USED
--                 IDENTIFIER REFERENCED
PL6.E3A0      #004=KCD$PFPRG File=KCD$CGDEV.:E05TSI                              WED 07/30/97 00:13 Page:191
          MINI XREF LISTING

B$JIT.ACCN
       356**DCL     15221>>ASSIGN  15226>>ASSIGN
B$JIT.CPFLAGS1.SLEAZE
       450**DCL       450--REDEF
B$JIT.ERR
       356**DCL     15098<<ASSIGN  15119<<ASSIGN  15132<<ASSIGN  15299<<ASSIGN  15332<<ASSIGN
B$JIT.ERR.CODE
       357**DCL     15323>>IF
B$JIT.ERR.MID
       357**DCL       357--REDEF
B$JIT.JRESPEAK
       518**DCL       519--REDEF
B$JIT.ORIGINATOR_PORT.FROM_CR
       627**DCL       627--REDEF     628--REDEF
B$JIT.PNR
       531**DCL       531--REDEF
B$JIT.TSLINE
       625**DCL       626--REDEF
B$JIT.UNAME
       356**DCL     15222>>ASSIGN
B$JIT$
     15078**DCL       351--IMP-PTR 15098>>ASSIGN  15119>>ASSIGN  15132>>ASSIGN  15221>>ASSIGN  15222>>ASSIGN
     15226>>ASSIGN  15299>>ASSIGN  15323>>IF      15332>>ASSIGN
B$PS0$
     15079**DCL     15198>>IF      15200>>ASSIGN
CG$
     13633**DCL     13834--IMP-PTR 15106>>CALL    15108>>CALL    15124>>CALL    15130>>CALL    15145>>CALL
     15159>>ASSIGN  15165>>ASSIGN  15165>>ASSIGN  15199>>CALL    15330<<ASSIGN
CMN
     15194**LABEL   15166--GOTO
E_DUPNM
     15060**DCL     15119>>ASSIGN
PL6.E3A0      #004=KCD$PFPRG File=KCD$CGDEV.:E05TSI                              WED 07/30/97 00:13 Page:192
E_NOMEM
     15064**DCL     15132>>ASSIGN
E_PCNLDCT
     15068**DCL     15332>>ASSIGN
E_STACHAR
     15072**DCL     15098>>ASSIGN
FPSTA$
     13631**DCL     15110<<ASSIGN  15112>>CALL    15114>>IF      15114>>IF      15117>>CALL    15139<<ASSIGN
     15141>>CALL    15147>>ASSIGN  15148>>ASSIGN  15149>>ASSIGN  15150>>ASSIGN  15151>>ASSIGN  15152>>ASSIGN
     15153>>ASSIGN  15154>>ASSIGN  15155>>ASSIGN  15156>>ASSIGN  15157>>ASSIGN  15158>>ASSIGN  15159>>ASSIGN
     15160>>ASSIGN  15161>>ASSIGN  15162>>ASSIGN  15163>>ASSIGN  15164>>ASSIGN  15194<<ASSIGN  15199>>CALL
     15200>>ASSIGN  15201>>ASSIGN  15215>>ASSIGN  15217>>ASSIGN  15220>>IF      15238>>ASSIGN  15238>>ASSIGN
     15246>>CALL    15276>>CALL    15282>>IF      15286>>ASSIGN  15287>>ASSIGN  15308>>CALL    15310>>ASSIGN
     15312>>CALL    15322>>CALL
FPT$ACTIVATE_V.DVBYTE
     13814**DCL     15200>>ASSIGN
FPT$ACTIVATE_V.DVBYTE.REREAD
     13814**DCL     13814--REDEF
FPT$ACTIVATE_V.FLUSH
     13815**DCL     15198>>IF
HFC$LOCK
      2588**DCL-ENT 15106--CALL    15112--CALL    15141--CALL    15190--CALL    15272--CALL    15278--CALL
     15308--CALL
HFC$UNLOCK
      2588**DCL-ENT 15117--CALL    15124--CALL    15145--CALL    15246--CALL    15289--CALL    15305--CALL
     15312--CALL    15318--CALL
I
     13634**DCL     15096<<CALLBLT 15249<<ASSIGN  15250<>CALL
JUSTALT
     15324**LABEL   15104--CALLALT 15188--CALLALT
KCF$FERDS
     15084**DCL-ENT 15296--CALL    15320--CALL
KC_LGL1ST
      3279**DCL     15096>>CALLBLT
KEY
     13635**DCL     15095<<ASSIGN  15096>>CALLBLT 15108<>CALL    15130<>CALL
PL6.E3A0      #004=KCD$PFPRG File=KCD$CGDEV.:E05TSI                              WED 07/30/97 00:13 Page:193
KQ$CG
     13834**DCL     15130<>CALL    15199<>CALL
KQ$CG.AUCTL.DVBYTE.REREAD
     14277**DCL     14278--REDEF
KQ$CG.MSGID
     14228**DCL     15159>>ASSIGN
KQ$CG.STATS.NUMTERMS
     14327**DCL     15165<<ASSIGN  15165>>ASSIGN
KQ$CG.STREE
     14166**DCL     15108<>CALL
KQ$CG.STREE.GATE
     14168**DCL     15106<>CALL    15124<>CALL    15145<>CALL
KQ$STA
     14572**DCL     15322<>CALL
KQ$STA.ACTTYC
     14624**DCL     14628--REDEF
KQ$STA.AU
     14654**DCL     15157<<ASSIGN
KQ$STA.BTN.KEY
     14608**DCL     15201>>ASSIGN
KQ$STA.CNNCTDDA
     14709**DCL     15162<<ASSIGN
KQ$STA.DCBLNK$
     14631**DCL     14634--REDEF   14638--REDEF
KQ$STA.DSCREQS
     14752**DCL     15151<<ASSIGN
KQ$STA.DSCREQW
     14747**DCL     15150<<ASSIGN
KQ$STA.DSID
     14711**DCL     15159<<ASSIGN
KQ$STA.DVBYTE
     14723**DCL     15200<<ASSIGN
KQ$STA.EVCNT
     14717**DCL     14720--REDEF
KQ$STA.EVNT
     14683**DCL     14687--REDEF   14690--REDEF   15158<<ASSIGN
PL6.E3A0      #004=KCD$PFPRG File=KCD$CGDEV.:E05TSI                              WED 07/30/97 00:13 Page:194
KQ$STA.GATE
     14650**DCL     15112<>CALL    15117<>CALL    15141<>CALL    15246<>CALL    15308<>CALL    15312<>CALL
KQ$STA.IDSC
     14652**DCL     15114>>IF      15155<<ASSIGN  15310<<ASSIGN
KQ$STA.LDCT$
     14613**DCL     15114>>IF      15217<<ASSIGN  15276<>CALL    15287<<ASSIGN
KQ$STA.LOCKCNT
     14706**DCL     15238<<ASSIGN  15238>>ASSIGN
KQ$STA.MLH
     14840**DCL     15199--CALL
KQ$STA.OPNBLKED
     14744**DCL     14747--REDEF   15149<<ASSIGN
KQ$STA.OPNREJ
     14750**DCL     14752--REDEF
KQ$STA.PVGSENSE
     14767**DCL     15153<<ASSIGN
KQ$STA.READS
     14798**DCL     15161<<ASSIGN
KQ$STA.SAVIDSC
     14771**DCL     15156<<ASSIGN
KQ$STA.SAVLDCT$
     14811**DCL     15282>>IF      15286<<ASSIGN
KQ$STA.STARSDUN
     14760**DCL     15152<<ASSIGN
KQ$STA.SUCCREAD
     14673**DCL     14677--REDEF   15154<<ASSIGN
KQ$STA.TCOUNT
     14802**DCL     14808--REDEF
KQ$STA.TERM
     14668**DCL     15164<<ASSIGN
KQ$STA.TOLDAU
     14680**DCL     15147<<ASSIGN
KQ$STA.USEAUACCT
     14775**DCL     15148<<ASSIGN  15220>>IF
KQ$STA.USR#
     14703**DCL     15163<<ASSIGN
PL6.E3A0      #004=KCD$PFPRG File=KCD$CGDEV.:E05TSI                              WED 07/30/97 00:13 Page:195
KQ$STA.VGOT$
     14787**DCL     14791--REDEF   14795--REDEF
KQ$STA.WRITES
     14800**DCL     15160<<ASSIGN
KQB$SRCH
     15085**DCL-ENT 15108--CALL
KQL$DELMLH
     15086**DCL-ENT 15199--CALL
KQP$UNLOCK
     15087**DCL-ENT 15322--CALL
KQT$GETSTA
     15088**DCL-ENT 15130--CALL
KQ_STA
     13275**DCL        28--PROC    15184--ENTRY   15194--ASSIGN
KQ_STA.ACTTYC
     13327**DCL     13331--REDEF
KQ_STA.DCBLNK$
     13334**DCL     13337--REDEF   13341--REDEF
KQ_STA.EVCNT
     13420**DCL     13423--REDEF
KQ_STA.EVNT
     13386**DCL     13390--REDEF   13393--REDEF
KQ_STA.GATE
     13353**DCL     15190<>CALL
KQ_STA.LDCT$
     13316**DCL     15187>>IF      15192>>ASSIGN  15193<<ASSIGN  15329>>ASSIGN
KQ_STA.OPNBLKED
     13447**DCL     13450--REDEF
KQ_STA.OPNREJ
     13453**DCL     13455--REDEF
KQ_STA.SAVLDCT$
     13514**DCL     15192<<ASSIGN
KQ_STA.SUCCREAD
     13376**DCL     13380--REDEF
KQ_STA.TCOUNT
     13505**DCL     13511--REDEF
PL6.E3A0      #004=KCD$PFPRG File=KCD$CGDEV.:E05TSI                              WED 07/30/97 00:13 Page:196
KQ_STA.USEAUACCT
     13478**DCL     15148>>ASSIGN
KQ_STA.VGOT$
     13490**DCL     13494--REDEF   13498--REDEF
KUB$WRITE
     15089**DCL-ENT 15250--CALL
K_NODE#
     12897**DCL     15230>>ASSIGN
K_RWPARM_CON.BLKREC
     12628**DCL     12653--REDEF
K_RWPARM_CON.BLKREC.BLKU#
     12629**DCL     12631--REDEF
K_RWPARM_CON.BLKREC.RECU#
     12641**DCL     12643--REDEF
K_RWPARM_CON.DVE.DVBYTE.VFC
     12668**DCL     12669--REDEF
K_RWPARM_CON.DVE.EOMCHAR
     12676**DCL     12680--REDEF
K_RWPARM_CON.ERR
     12740**DCL     12745--REDEF
K_RWPARM_CON.FC
     12704**DCL     12705--REDEF
K_RWPARM_CON.FLDID
     12886**DCL     12887--REDEF
K_RWPARM_CON.FPT$
     12767**DCL     12774--REDEF
K_RWPARM_CON.KEYTYPE
     12893**DCL     12894--REDEF
K_RWPARM_CON.MSG$
     12603**DCL     12609--REDEF
K_RWPARM_CON.MSGID
     12715**DCL     12720--REDEF
K_RWPARM_CON.MSGIDXT
     12728**DCL     12732--REDEF
K_RWPARM_CON.ORG
     12864**DCL     12865--REDEF
PL6.E3A0      #004=KCD$PFPRG File=KCD$CGDEV.:E05TSI                              WED 07/30/97 00:13 Page:197
K_RWPARM_CON.THDRSZ
     12808**DCL     12812--REDEF
K_RWPARM_CON.VDOFLGS
     12866**DCL     12877--REDEF
LDCT$
     13632**DCL     14910--IMP-PTR 15202>>ASSIGN  15207>>ASSIGN  15208>>ASSIGN  15211>>ASSIGN  15212>>ASSIGN
     15216>>ASSIGN  15234>>ASSIGN  15287>>ASSIGN  15292>>ASSIGN  15293>>ASSIGN  15294>>ASSIGN  15295>>ASSIGN
     15296>>CALL    15329<<ASSIGN  15330>>ASSIGN
NK$LDCT
     14910**DCL     15296<>CALL
NK$LDCT.CG$
     14941**DCL     15202>>ASSIGN  15330>>ASSIGN
NK$LDCT.DDT$
     14912**DCL     14912--REDEF
NK$LDCT.DFLG.CONSOLE
     14915**DCL     15207>>ASSIGN
NK$LDCT.DFLG.INPUT
     14914**DCL     15293<<ASSIGN
NK$LDCT.DFLG.SYMBIONT
     14915**DCL     15208>>ASSIGN
NK$LDCT.IOQ$
     14911**DCL     14912--REDEF
NK$LDCT.LDCTX
     14913**DCL     14913--REDEF
NK$LDCT.LKFLG.ABORTED
     14925**DCL     14926--REDEF
NK$LDCT.LKFLG.ACTIVE
     14929**DCL     15187>>IF      15295<<ASSIGN
NK$LDCT.LKFLG.FPSTEP
     14930**DCL     15294<<ASSIGN
NK$LDCT.LOGON_ACCT
     14940**DCL     15216>>ASSIGN
NK$LDCT.RESCOD
     14918**DCL     15292<<ASSIGN
NK$LDCT.RLCID
     14934**DCL     15234>>ASSIGN
PL6.E3A0      #004=KCD$PFPRG File=KCD$CGDEV.:E05TSI                              WED 07/30/97 00:13 Page:198
NK$LDCT.RLCID.LDCTX
     14935**DCL     14935--REDEF
NK$LDCT.RLCID.NODE
     14934**DCL     15212>>ASSIGN
NK$LDCT.STA$
     14931**DCL     14932--REDEF
NK$LDCT.SYMB$
     14910**DCL     14910--REDEF   14910--REDEF   14911--REDEF
NK$LDCT.TERMID.TTYP
     14938**DCL     15211>>ASSIGN
NKL$GETDCT
     15090**DCL-ENT 15331--CALL
NKL$RELDCT
     15091**DCL-ENT 15136--CALL    15291--CALL
NLDCT
     14956**DCL     15320<>CALL
NLDCT.CG$
     14987**DCL     15202<<ASSIGN
NLDCT.DDT$
     14958**DCL     14958--REDEF
NLDCT.DEVNM
     14958**DCL     15201<<ASSIGN
NLDCT.DFLG.CM
     14960**DCL     15206<<ASSIGN
NLDCT.DFLG.CONSOLE
     14961**DCL     15207<<ASSIGN
NLDCT.DFLG.FEDN
     14964**DCL     15301<<ASSIGN
NLDCT.DFLG.INPUT
     14960**DCL     15204<<ASSIGN
NLDCT.DFLG.OUTPUT
     14960**DCL     15205<<ASSIGN
NLDCT.DFLG.PRLS
     14963**DCL     15303<<ASSIGN
NLDCT.DFLG.SYMBIONT
     14961**DCL     15208<<ASSIGN
PL6.E3A0      #004=KCD$PFPRG File=KCD$CGDEV.:E05TSI                              WED 07/30/97 00:13 Page:199
NLDCT.ERR
     14957**DCL     15214<<ASSIGN  15274>>IF      15281>>IF      15299>>ASSIGN  15300<<ASSIGN
NLDCT.ERR.CODE
     14957**DCL     15282>>IF      15282>>IF
NLDCT.GENERATION
     14979**DCL     15231>>ASSIGN
NLDCT.IOQ$
     14957**DCL     14958--REDEF
NLDCT.LDCTX
     14959**DCL     14959--REDEF   15232>>ASSIGN  15233>>ASSIGN
NLDCT.LKFLG.ABORTED
     14971**DCL     14972--REDEF
NLDCT.LKFLG.ACTIVE
     14975**DCL     15316<<ASSIGN
NLDCT.LKFLG.REGGED
     14972**DCL     15275<<ASSIGN
NLDCT.LOCK
     14984**DCL     15272<>CALL    15278<>CALL    15289<>CALL    15305<>CALL    15318<>CALL
NLDCT.LOGON_ACCT
     14986**DCL     15216<<ASSIGN  15225>>ASSIGN
NLDCT.RESCOD
     14964**DCL     15209<<ASSIGN
NLDCT.RLCID.LDCTX
     14981**DCL     14981--REDEF   15213<<ASSIGN  15274>>IF
NLDCT.RLCID.NODE
     14980**DCL     15212<<ASSIGN  15229>>ASSIGN
NLDCT.STA$
     14977**DCL     14978--REDEF   15215<<ASSIGN
NLDCT.SYMB$
     14956**DCL     14956--REDEF   14956--REDEF   14957--REDEF
NLDCT.TERMID.TTYP
     14984**DCL     15211<<ASSIGN  15282>>IF
NLDCT.USER
     14966**DCL     15210<<ASSIGN
NLDCT$
     13630**DCL     14956--IMP-PTR 15136>>ASSIGN  15201>>ASSIGN  15202>>ASSIGN  15204>>ASSIGN  15205>>ASSIGN
PL6.E3A0      #004=KCD$PFPRG File=KCD$CGDEV.:E05TSI                              WED 07/30/97 00:13 Page:200
     15206>>ASSIGN  15207>>ASSIGN  15208>>ASSIGN  15209>>ASSIGN  15210>>ASSIGN  15211>>ASSIGN  15212>>ASSIGN
     15213>>ASSIGN  15214>>ASSIGN  15215>>ASSIGN  15216>>ASSIGN  15217>>ASSIGN  15225>>ASSIGN  15229>>ASSIGN
     15231>>ASSIGN  15232>>ASSIGN  15233>>ASSIGN  15272>>CALL    15274>>IF      15274>>IF      15275>>ASSIGN
     15278>>CALL    15281>>IF      15282>>IF      15282>>IF      15282>>IF      15289>>CALL    15291>>ASSIGN
     15299>>ASSIGN  15300>>ASSIGN  15301>>ASSIGN  15303>>ASSIGN  15305>>CALL    15316>>ASSIGN  15318>>CALL
     15320>>CALL    15338<<ASSIGN
RELDCT
     15136**LABEL   15126--GOTO
SETUP
     15328**PROC    15104--CALL    15188--CALL
SSR$REG
     15092**DCL-ENT 15276--CALL
STRTU
     13651**DCL     15219<<ASSIGN  15249--ASSIGN  15250<>CALL
STRTU.ACCT
     13692**DCL     15221<<ASSIGN  15225<<ASSIGN
STRTU.DB_ACCT
     13696**DCL     15236<<ASSIGN
STRTU.FCN
     13652**DCL     15228<<ASSIGN
STRTU.MODE
     13700**DCL     15235<<ASSIGN
STRTU.NETADR_FROM.GENERATION
     13664**DCL     15231<<ASSIGN
STRTU.NETADR_FROM.LDX.BYT
     13668**DCL     15232<<ASSIGN  15233<<ASSIGN  15233>>ASSIGN
STRTU.NETADR_FROM.NODE
     13663**DCL     15230<<ASSIGN
STRTU.NETADR_TO
     13675**DCL     15234<<ASSIGN
STRTU.NODE
     13658**DCL     15229<<ASSIGN
STRTU.UNAME
     13688**DCL     15222<<ASSIGN  15226<<ASSIGN
S_CUN
     15080**DCL     15210>>ASSIGN
PL6.E3A0      #004=KCD$PFPRG File=KCD$CGDEV.:E05TSI                              WED 07/30/97 00:13 Page:201
T$
     13809**DCL     15108<>CALL    15110>>ASSIGN  15130<>CALL    15136<<ASSIGN  15136<>CALL    15139>>ASSIGN
     15291<<ASSIGN  15291<>CALL    15331<>CALL    15338>>ASSIGN
VLP_STATION
     13612**DCL        28--PROC
VLP_STATION.MSGIDXT
     13622**DCL     13625--REDEF
VLP_STATION.STATION#
     13616**DCL     15095>>ASSIGN
