VERSION E05

PL6.E3A0      #001=KCO$OPCG File=KCO$OPCG.:E05TSI                                WED 07/30/97 00:16 Page:1
        1        1        /*M* KCO$OPCG - Open routines for COMGROUPS */
        2        2        /*T***********************************************************/
        3        3        /*T*                                                         */
        4        4        /*T* Copyright (c) Bull HN Information Systems Inc., 1997    */
        5        5        /*T*                                                         */
        6        6        /*T***********************************************************/
        7        7        /**/
        8        8        /*X* DMC,PLM=6,IND=0,IDT=2,SDI=2,CTI=0,ENU=0,AND,DCI=4,CSU=2,ECU=4,THI=0,DTI=0,STI=1
                 8        ,IAD=0,PRB */
        9        9        /**/
       10       10        /*P* NAME:         KCO$OPCG
       11       11
       12       12             PURPOSE:      To provide open service for COMGROUPS.
       13       13
       14       14        */
       15       15
       16       16
       17       17        /*F* NAME:         KCO$OPCG
       18       18
       19       19             PURPOSE:      Initial routine called to open to COMGROUP
       20       20
       21       21        */
       22       22
       23       23
       24       24        KCO$OPCG: PROC(PN$);
       25       25
       26       26
       27       27        /**/
       28       28        /* INCLUDES */
       29       29        /**/
       30       30        %INCLUDE CP_6_SUBS;
       31      570        %INCLUDE B_STRINGS_C;
       32      699        %INCLUDE F$JIT_C;
       33     1129        %MACRO F$DCB#(BASED=BASED);
       34     1130        %INCLUDE F$DCB;
       35     1179        %MEND;
       36     1180        %INCLUDE FM$MACROS;
PL6.E3A0      #001=KCO$OPCG File=KCO$OPCG.:E05TSI                                WED 07/30/97 00:16 Page:2
       37     1555        %INCLUDE F_FMTCODE_C;
       38     1589        %INCLUDE KC_ERRORS_C;
       39     1636        %INCLUDE F_ERRORS_C;
       40     1876        %INCLUDE M_INFO_C;
       41     2016        %INCLUDE B$MAP;
       42     2115
       43     2116
       44     2117        /**/
       45     2118        /* PARAMETERS */
       46     2119        /**/
       47     2120    1   DCL PN$ PTR;
       48     2121
       49     2122
       50     2123        /**/
       51     2124        /* BASED STRUCTURES */
       52     2125        /**/
       53     2126        %F$DCB# (BASED="BASED(JDCB$)");
       54     2176        %FM$CFU (BASED="BASED(CFU$)");
       55     2182
       56     2183
       57     2184        /**/
       58     2185        /* AUTO */
       59     2186        /**/
       60     2187    1   DCL JDCB$ PTR;
       61     2188    1   DCL CFU$ PTR;
       62     2189    1   DCL I UBIN;
       63     2190
       64     2191
       65     2192        /**/
       66     2193        /* EXTERNAL DATA */
       67     2194        /**/
       68     2195    1   DCL B$JIT$ PTR SYMREF;
       69     2196
       70     2197
       71     2198        /**/
       72     2199        /* EXTERNAL ROUTINES */
       73     2200        /**/
PL6.E3A0      #001=KCO$OPCG File=KCO$OPCG.:E05TSI                                WED 07/30/97 00:16 Page:3
       74     2201    1   DCL FMD$FLSHBUF ENTRY(1);
       75     2202    1   DCL FMN$OPNF ENTRY(1);
       76     2203    1   DCL FMO$GETDOMAIN ENTRY(1);
       77     2204    1   DCL FMP$CLSERR ENTRY;
       78     2205
       79     2206
       80     2207        /**/
       81     2208        /* CONSTANT */
       82     2209        /**/
       83     2210        %SUB FCG#='1303'O;
       84     2211        %SUB MID#='17'O;
       85     2212        %ERRCODE (NAME=ERRCGSHARE,COD#=%E$CGSHARE);
       86     2216        %ERRCODE (NAME=ERRFILECG,COD#=%E$FILECG);
       87     2220        /**/
       88     2221        %EJECT;
PL6.E3A0      #001=KCO$OPCG File=KCO$OPCG.:E05TSI                                WED 07/30/97 00:16 Page:4
       89     2222
       90     2223
       91     2224        /*D* NAME:         KCO$OPCG
       92     2225
       93     2226             CALL:         CALL KCO$OPCG(PN$) ALTRET;
       94     2227
       95     2228             DESCRIPTION:  This routine is called from FMM$OPN for ASN=COMGROUP
       96     2229                           after the FPT has been merged into the DCB.  It
       97     2230                           sets some values into the DCB and calls FMN$OPNF
       98     2231                           to create a new disk file or to open to an existing
       99     2232                           one.  A normal return from FMN$OPNF indicates that
      100     2233                           the file was opened successfully, and some
      101     2234                           clean-up is done before returning to the caller.
      102     2235                           If FMN$OPNF ALTRETs, it is assumed that all
      103     2236                           necessary clean-up has already been done.
      104     2237
      105     2238        */
      106     2239
      107     2240
      108     2241    1         B$JIT.ERR='0'B;
      109     2242    1         JDCB$=B$JIT.DCB$;
      110     2243    1         F$DCB.IASN=%FILE#;
      111     2244    1         F$DCB.ORG=%CG#;
      112     2245    1         F$DCB.TDA=%TERMINAL#;  /* For FMN$OPNF */
      113     2246    1         IF F$DCB.IXTNSIZE=1 THEN
      114     2247    1          F$DCB.IXTNSIZE=3;
      115     2248    1         ELSE IF F$DCB.IXTNSIZE=2 THEN
      116     2249    1           F$DCB.IXTNSIZE=30;
      117     2250    1         IF F$DCB.SHARE=0 THEN
      118     2251    1          F$DCB.SHARE=%ALL#;
      119     2252    1         IF F$DCB.SHARE~=%ALL# AND NOT F$DCB.AU THEN
      120     2253    2           DO;
      121     2254    2           B$JIT.ERR=ERRCGSHARE;
      122     2255    2           GOTO ERR;
      123     2256    2           END;
      124     2257        /*E*    ERROR: KCO-E$CGSHARE-2
      125     2258                MESSAGE: Only the AU may open a comgroup with other than
PL6.E3A0      #001=KCO$OPCG File=KCO$OPCG.:E05TSI                                WED 07/30/97 00:16 Page:5
      126     2259                         SHARE=ALL
      127     2260        */
      128     2261
      129     2262    1         CALL FMN$OPNF(PN$);
      130     2263
      131     2264    1         IF B$JIT.ERR.CODE~=0 THEN
      132     2265    1          GOTO ERR;
      133     2266    1         IF F$DCB.FCD='0'B THEN           /* Test open */
      134     2267    1          IF F$DCB.ORG~=%CG# THEN
      135     2268    2            DO;
      136     2269    2            B$JIT.ERR=ERRFILECG;
      137     2270    2            GOTO ERR;
      138     2271    2            END;
      139     2272    1          ELSE
      140     2273    1           RETURN;
      141     2274    2           DO I=0 TO 4;
      142     2275    2           CALL FMD$FLSHBUF(I);
      143     2276    2           END;
      144     2277    1         IF F$DCB.ORG~=%CG# THEN
      145     2278    2           DO;
      146     2279    2           CALL FMP$CLSERR;
      147     2280    2           B$JIT.ERR=ERRFILECG;
      148     2281    2           GOTO ERR;
      149     2282    2           END;
      150     2283        /*    Attempt to open a non-comgroup file with
      151     2284                            ASN=COMGROUP.  Message text is in KCO$INIT.
      152     2285        */
      153     2286    1         F$DCB.EOMCHAR=%EOM_EOR#;
      154     2287    1         IF F$DCB.DVFC=BINASC(0) THEN
      155     2288    1          F$DCB.DVFC='A';
      156     2289    1         F$DCB.ORG=%TERMINAL#;
      157     2290    1         F$DCB.IFMT=%FMTFPRG#;            /* Not really FPRG but gives us the   */
      158     2291    1         F$DCB.ATTR.BIN = '1'B;
      159     2292                                               /* right handling in FSE$FORMAT       */
      160     2293    1         RETURN;
      161     2294
      162     2295    1   ERR:  ;
PL6.E3A0      #001=KCO$OPCG File=KCO$OPCG.:E05TSI                                WED 07/30/97 00:16 Page:6
      163     2296    1         IF B$JIT.ERR.CODE=%E$FILEBUSY OR B$JIT.ERR.CODE=%E$NOFILE THEN
      164     2297    2           DO;
      165     2298    2           B$JIT.ERR.FCG=FCG#;
      166     2299    2           B$JIT.ERR.MID=MID#;
      167     2300    2           END;
      168     2301        /*E*  ERROR: KCO-E$FILEBUSY-2
      169     2302              MESSAGE: Comgroup% %UF% is busy
      170     2303        */
      171     2304        /*E*  ERROR: KCO-E$NOFILE-2
      172     2305              MESSAGE: Comgroup% %UF% does not exist
      173     2306              MESSAGE1:Comgroup %UF does not exist in DP#%SN.%AC
      174     2307        */
      175     2308    1         RETURN;
      176     2309
      177     2310    1   END KCO$OPCG;
      178     2311        %EOD;

PL6.E3A0      #001=KCO$OPCG File=KCO$OPCG.:E05TSI                                WED 07/30/97 00:16 Page:7
--  Include file information  --

   B$MAP.:E05TOU  cannot be made into a system file and is referenced.
   M_INFO_C.:E05TOU  is referenced.
   F_ERRORS_C.:E05TOU  is referenced.
   KC_ERRORS_C.:E05TOU  is referenced.
   F_FMTCODE_C.:E05TOU  is referenced.
   FM$MACROS.:E05TOU  is referenced.
   F$DCB.:E05TOU  is referenced.
   B$JIT_C.:E05TOU  is referenced.
   F$JIT_C.:E05TOU  cannot be made into a system file and is referenced.
   B_STRINGS_C.:E05TOU  is referenced.
   CP_6_SUBS.:E05TOU  is referenced.
      No diagnostics issued in procedure KCO$OPCG.

   Procedure KCO$OPCG requires 109 words for executable code.
   Procedure KCO$OPCG requires 10 words of local(AUTO) storage.

PL6.E3A0      #001=KCO$OPCG File=KCO$OPCG.:E05TSI                                WED 07/30/97 00:16 Page:8

 Object Unit name= KCO$OPCG                                   File name= KCO$OPCG.:E05TOU
 UTS= JUL 30 '97 00:16:16.56 WED                              Compiler= PL-6/E31         Sev=      00
 SharedLib= :SHARED_SYSTEM                                    Alt SharedLib=


    ****  Control sections  ****

 Sect   Type Bound  Init  Size OctSiz  Section name(segment info)
    0  RoData even  UTS      2      2  KCO$OPCG
    1   Proc  even  none   109    155  KCO$OPCG
    2  RoData even  none     1      1  KCO$OPCG

    ****  Entry defs  ****

                              Check   Calling
                             calling  sequence
  Sect OctLoc Primary Altret sequence   type   Parms  Name
     1      0   yes            yes      Std        1  KCO$OPCG

  ****  Entry refs  ****

         Check        Calling
        calling       sequence
Altret sequence SRef   type   Args  Name
         yes           Std       1 FMN$OPNF
         yes           Std       1 FMD$FLSHBUF
         yes           Std       0 FMP$CLSERR
                       nStd      0 X66_AUTO_1
                       Std       0 B_CONSPOOL_D
                       nStd      0 X66_ARET

  ****  Data refs  ****

  Flags:  r = read only, s = secondary
Flgs Name                             Flgs Name                             Flgs Name
     B$JIT$                                B_VECTNIL
PL6.E3A0      #001=KCO$OPCG File=KCO$OPCG.:E05TSI                                WED 07/30/97 00:16 Page:9


        1        1        /*M* KCO$OPCG - Open routines for COMGROUPS */
        2        2        /*T***********************************************************/
        3        3        /*T*                                                         */
        4        4        /*T* Copyright (c) Bull HN Information Systems Inc., 1997    */
        5        5        /*T*                                                         */
        6        6        /*T***********************************************************/
        7        7        /**/
        8        8       /*X* DMC,PLM=6,IND=0,IDT=2,SDI=2,CTI=0,ENU=0,AND,DCI=4,CSU=2,ECU=4,THI=0,DTI=0,STI=1
                 8        ,IAD=0,PRB */
        9        9        /**/
       10       10        /*P* NAME:         KCO$OPCG
       11       11
       12       12             PURPOSE:      To provide open service for COMGROUPS.
       13       13
       14       14        */
       15       15
       16       16
       17       17        /*F* NAME:         KCO$OPCG
       18       18
       19       19             PURPOSE:      Initial routine called to open to COMGROUP
       20       20
       21       21        */
       22       22
       23       23
       24       24        KCO$OPCG: PROC(PN$);

     24  1 000000   000000 700200 xent  KCO$OPCG     TSX0  ! X66_AUTO_1
         1 000001   000012 000001                    ZERO    10,1

       25       25
       26       26
       27       27        /**/
       28       28        /* INCLUDES */
       29       29        /**/
       30       30        %INCLUDE CP_6_SUBS;
       31      570        %INCLUDE B_STRINGS_C;
PL6.E3A0      #001=KCO$OPCG File=KCO$OPCG.:E05TSI                                WED 07/30/97 00:16 Page:10
       32      699        %INCLUDE F$JIT_C;
       33     1129        %MACRO F$DCB#(BASED=BASED);
       34     1130        %INCLUDE F$DCB;
       35     1179        %MEND;
       36     1180        %INCLUDE FM$MACROS;
       37     1555        %INCLUDE F_FMTCODE_C;
       38     1589        %INCLUDE KC_ERRORS_C;
       39     1636        %INCLUDE F_ERRORS_C;
       40     1876        %INCLUDE M_INFO_C;
       41     2016        %INCLUDE B$MAP;
       42     2115
       43     2116
       44     2117        /**/
       45     2118        /* PARAMETERS */
       46     2119        /**/
       47     2120    1   DCL PN$ PTR;
       48     2121
       49     2122
       50     2123        /**/
       51     2124        /* BASED STRUCTURES */
       52     2125        /**/
       53     2126        %F$DCB# (BASED="BASED(JDCB$)");
       54     2176        %FM$CFU (BASED="BASED(CFU$)");
       55     2182
       56     2183
       57     2184        /**/
       58     2185        /* AUTO */
       59     2186        /**/
       60     2187    1   DCL JDCB$ PTR;
       61     2188    1   DCL CFU$ PTR;
       62     2189    1   DCL I UBIN;
       63     2190
       64     2191
       65     2192        /**/
       66     2193        /* EXTERNAL DATA */
       67     2194        /**/
       68     2195    1   DCL B$JIT$ PTR SYMREF;
PL6.E3A0      #001=KCO$OPCG File=KCO$OPCG.:E05TSI                                WED 07/30/97 00:16 Page:11
       69     2196
       70     2197
       71     2198        /**/
       72     2199        /* EXTERNAL ROUTINES */
       73     2200        /**/
       74     2201    1   DCL FMD$FLSHBUF ENTRY(1);
       75     2202    1   DCL FMN$OPNF ENTRY(1);
       76     2203    1   DCL FMO$GETDOMAIN ENTRY(1);
       77     2204    1   DCL FMP$CLSERR ENTRY;
       78     2205
       79     2206
       80     2207        /**/
       81     2208        /* CONSTANT */
       82     2209        /**/
       83     2210        %SUB FCG#='1303'O;
       84     2211        %SUB MID#='17'O;
       85     2212        %ERRCODE (NAME=ERRCGSHARE,COD#=%E$CGSHARE);
       86     2216        %ERRCODE (NAME=ERRFILECG,COD#=%E$FILECG);
       87     2220        /**/
       88     2221        %EJECT;
PL6.E3A0      #001=KCO$OPCG File=KCO$OPCG.:E05TSI                                WED 07/30/97 00:16 Page:12
       89     2222
       90     2223
       91     2224        /*D* NAME:         KCO$OPCG
       92     2225
       93     2226             CALL:         CALL KCO$OPCG(PN$) ALTRET;
       94     2227
       95     2228             DESCRIPTION:  This routine is called from FMM$OPN for ASN=COMGROUP
       96     2229                           after the FPT has been merged into the DCB.  It
       97     2230                           sets some values into the DCB and calls FMN$OPNF
       98     2231                           to create a new disk file or to open to an existing
       99     2232                           one.  A normal return from FMN$OPNF indicates that
      100     2233                           the file was opened successfully, and some
      101     2234                           clean-up is done before returning to the caller.
      102     2235                           If FMN$OPNF ALTRETs, it is assumed that all
      103     2236                           necessary clean-up has already been done.
      104     2237
      105     2238        */
      106     2239
      107     2240
      108     2241    1         B$JIT.ERR='0'B;

   2241  1 000002   000000 470400 xsym               LDP0    B$JIT$
         1 000003   000012 450100                    STZ     10,,PR0

      109     2242    1         JDCB$=B$JIT.DCB$;

   2242  1 000004   000232 236100                    LDQ     154,,PR0
         1 000005   200004 756100                    STQ     JDCB$,,AUTO

      110     2243    1         F$DCB.IASN=%FILE#;

   2243  1 000006   200004 471500                    LDP1    JDCB$,,AUTO
         1 000007   000001 236007                    LDQ     1,DL
         1 000010   100103 552104                    STBQ    67,'04'O,PR1

      111     2244    1         F$DCB.ORG=%CG#;

PL6.E3A0      #001=KCO$OPCG File=KCO$OPCG.:E05TSI                                WED 07/30/97 00:16 Page:13
   2244  1 000011   013000 236003                    LDQ     5632,DU
         1 000012   100032 552140                    STBQ    26,'40'O,PR1

      112     2245    1         F$DCB.TDA=%TERMINAL#;  /* For FMN$OPNF */

   2245  1 000013   000010 236007                    LDQ     8,DL
         1 000014   100070 552134                    STBQ    56,'34'O,PR1

      113     2246    1         IF F$DCB.IXTNSIZE=1 THEN

   2246  1 000015   100041 235100                    LDA     33,,PR1
         1 000016   000001 115007                    CMPA    1,DL
         1 000017   000023 601000 1                  TNZ     s:2248

      114     2247    1          F$DCB.IXTNSIZE=3;

   2247  1 000020   000003 235007                    LDA     3,DL
         1 000021   100041 755100                    STA     33,,PR1
         1 000022   000027 710000 1                  TRA     s:2250

      115     2248    1         ELSE IF F$DCB.IXTNSIZE=2 THEN

   2248  1 000023   000002 115007                    CMPA    2,DL
         1 000024   000027 601000 1                  TNZ     s:2250

      116     2249    1           F$DCB.IXTNSIZE=30;

   2249  1 000025   000036 235007                    LDA     30,DL
         1 000026   100041 755100                    STA     33,,PR1

      117     2250    1         IF F$DCB.SHARE=0 THEN

   2250  1 000027   100031 236100                    LDQ     25,,PR1
         1 000030   000600 316007                    CANQ    384,DL
         1 000031   000035 601000 1                  TNZ     s:2252

      118     2251    1          F$DCB.SHARE=%ALL#;
PL6.E3A0      #001=KCO$OPCG File=KCO$OPCG.:E05TSI                                WED 07/30/97 00:16 Page:14

   2251  1 000032   000000 376000 2                  ANQ     0
         1 000033   000200 276007                    ORQ     128,DL
         1 000034   100031 756100                    STQ     25,,PR1

      119     2252    1         IF F$DCB.SHARE~=%ALL# AND NOT F$DCB.AU THEN

   2252  1 000035   100031 236100                    LDQ     25,,PR1
         1 000036   000600 376007                    ANQ     384,DL
         1 000037   000200 116007                    CMPQ    128,DL
         1 000040   000047 600000 1                  TZE     s:2262
         1 000041   100031 236100                    LDQ     25,,PR1
         1 000042   200000 316003                    CANQ    65536,DU
         1 000043   000047 601000 1                  TNZ     s:2262

      120     2253    2           DO;

      121     2254    2           B$JIT.ERR=ERRCGSHARE;

   2254  1 000044   000000 236000 0                  LDQ     ERRCGSHARE
         1 000045   000012 756100                    STQ     10,,PR0

      122     2255    2           GOTO ERR;

   2255  1 000046   000142 710000 1                  TRA     ERR

      123     2256    2           END;
      124     2257        /*E*    ERROR: KCO-E$CGSHARE-2
      125     2258                MESSAGE: Only the AU may open a comgroup with other than
      126     2259                         SHARE=ALL
      127     2260        */
      128     2261
      129     2262    1         CALL FMN$OPNF(PN$);

   2262  1 000047   200003 630500                    EPPR0   @PN$,,AUTO
         1 000050   000017 631400 xsym               EPPR1   B_VECTNIL+15
         1 000051   000000 701000 xent               TSX1    FMN$OPNF
PL6.E3A0      #001=KCO$OPCG File=KCO$OPCG.:E05TSI                                WED 07/30/97 00:16 Page:15
         1 000052   000000 011000                    NOP     0

      130     2263
      131     2264    1         IF B$JIT.ERR.CODE~=0 THEN

   2264  1 000053   000000 470400 xsym               LDP0    B$JIT$
         1 000054   000012 236100                    LDQ     10,,PR0
         1 000055   377770 316007                    CANQ    131064,DL
         1 000056   000142 601000 1                  TNZ     ERR

      132     2265    1          GOTO ERR;
      133     2266    1         IF F$DCB.FCD='0'B THEN           /* Test open */

   2266  1 000057   200004 471500                    LDP1    JDCB$,,AUTO
         1 000060   100031 236100                    LDQ     25,,PR1
         1 000061   020000 316007                    CANQ    8192,DL
         1 000062   000073 601000 1                  TNZ     s:2274

      134     2267    1          IF F$DCB.ORG~=%CG# THEN

   2267  1 000063   100032 236100                    LDQ     26,,PR1
         1 000064   777000 376003                    ANQ     -512,DU
         1 000065   013000 116003                    CMPQ    5632,DU
         1 000066   000072 600000 1                  TZE     s:2273

      135     2268    2            DO;

      136     2269    2            B$JIT.ERR=ERRFILECG;

   2269  1 000067   000001 236000 0                  LDQ     ERRFILECG
         1 000070   000012 756100                    STQ     10,,PR0

      137     2270    2            GOTO ERR;

   2270  1 000071   000142 710000 1                  TRA     ERR

      138     2271    2            END;
PL6.E3A0      #001=KCO$OPCG File=KCO$OPCG.:E05TSI                                WED 07/30/97 00:16 Page:16
      139     2272    1          ELSE
      140     2273    1           RETURN;

   2273  1 000072   000000 702200 xent               TSX2  ! X66_ARET

      141     2274    2           DO I=0 TO 4;

   2274  1 000073   200006 450100                    STZ     I,,AUTO

      142     2275    2           CALL FMD$FLSHBUF(I);

   2275  1 000074   200006 630500                    EPPR0   I,,AUTO
         1 000075   200010 450500                    STP0    I+2,,AUTO
         1 000076   200010 630500                    EPPR0   I+2,,AUTO
         1 000077   000017 631400 xsym               EPPR1   B_VECTNIL+15
         1 000100   000000 701000 xent               TSX1    FMD$FLSHBUF
         1 000101   000000 011000                    NOP     0

      143     2276    2           END;

   2276  1 000102   200006 235100                    LDA     I,,AUTO
         1 000103   000001 035007                    ADLA    1,DL
         1 000104   200006 755100                    STA     I,,AUTO
         1 000105   000005 115007                    CMPA    5,DL
         1 000106   000074 602000 1                  TNC     s:2275

      144     2277    1         IF F$DCB.ORG~=%CG# THEN

   2277  1 000107   200004 470500                    LDP0    JDCB$,,AUTO
         1 000110   000032 236100                    LDQ     26,,PR0
         1 000111   777000 376003                    ANQ     -512,DU
         1 000112   013000 116003                    CMPQ    5632,DU
         1 000113   000123 600000 1                  TZE     s:2286

      145     2278    2           DO;

      146     2279    2           CALL FMP$CLSERR;
PL6.E3A0      #001=KCO$OPCG File=KCO$OPCG.:E05TSI                                WED 07/30/97 00:16 Page:17

   2279  1 000114   000002 631400 xsym               EPPR1   B_VECTNIL+2
         1 000115   000000 701000 xent               TSX1    FMP$CLSERR
         1 000116   000000 011000                    NOP     0

      147     2280    2           B$JIT.ERR=ERRFILECG;

   2280  1 000117   000001 236000 0                  LDQ     ERRFILECG
         1 000120   000000 470400 xsym               LDP0    B$JIT$
         1 000121   000012 756100                    STQ     10,,PR0

      148     2281    2           GOTO ERR;

   2281  1 000122   000142 710000 1                  TRA     ERR

      149     2282    2           END;
      150     2283        /*    Attempt to open a non-comgroup file with
      151     2284                            ASN=COMGROUP.  Message text is in KCO$INIT.
      152     2285        */
      153     2286    1         F$DCB.EOMCHAR=%EOM_EOR#;

   2286  1 000123   000501 236007                    LDQ     321,DL
         1 000124   000003 552104                    STBQ    3,'04'O,PR0

      154     2287    1         IF F$DCB.DVFC=BINASC(0) THEN

   2287  1 000125   000044 236100                    LDQ     36,,PR0
         1 000126   777000 376007                    ANQ     -512,DL
         1 000127   000000 116003                    CMPQ    0,DU
         1 000130   000133 601000 1                  TNZ     s:2289

      155     2288    1          F$DCB.DVFC='A';

   2288  1 000131   101000 236007                    LDQ     33280,DL
         1 000132   000044 552110                    STBQ    36,'10'O,PR0

      156     2289    1         F$DCB.ORG=%TERMINAL#;
PL6.E3A0      #001=KCO$OPCG File=KCO$OPCG.:E05TSI                                WED 07/30/97 00:16 Page:18

   2289  1 000133   010000 236003                    LDQ     4096,DU
         1 000134   000032 552140                    STBQ    26,'40'O,PR0

      157     2290    1         F$DCB.IFMT=%FMTFPRG#;            /* Not really FPRG but gives us the   */

   2290  1 000135   023000 236003                    LDQ     9728,DU
         1 000136   000103 552140                    STBQ    67,'40'O,PR0

      158     2291    1         F$DCB.ATTR.BIN = '1'B;

   2291  1 000137   000002 236007                    LDQ     2,DL
         1 000140   000040 256100                    ORSQ    32,,PR0

      159     2292                                               /* right handling in FSE$FORMAT       */
      160     2293    1         RETURN;

   2293  1 000141   000000 702200 xent               TSX2  ! X66_ARET

   2291  1 000142                       ERR          null
      161     2294
      162     2295    1   ERR:  ;
      163     2296    1         IF B$JIT.ERR.CODE=%E$FILEBUSY OR B$JIT.ERR.CODE=%E$NOFILE THEN

   2296  1 000142   000012 236100                    LDQ     10,,PR0
         1 000143   377770 376007                    ANQ     131064,DL
         1 000144   001550 116007                    CMPQ    872,DL
         1 000145   000150 600000 1                  TZE     s:2298
         1 000146   001610 116007                    CMPQ    904,DL
         1 000147   000154 601000 1                  TNZ     s:2308

      164     2297    2           DO;

      165     2298    2           B$JIT.ERR.FCG=FCG#;

   2298  1 000150   130300 236003                    LDQ     45248,DU
         1 000151   000012 752160                    STCQ    10,'60'O,PR0
PL6.E3A0      #001=KCO$OPCG File=KCO$OPCG.:E05TSI                                WED 07/30/97 00:16 Page:19

      166     2299    2           B$JIT.ERR.MID=MID#;

   2299  1 000152   000017 236003                    LDQ     15,DU
         1 000153   000012 752110                    STCQ    10,'10'O,PR0

      167     2300    2           END;

      168     2301        /*E*  ERROR: KCO-E$FILEBUSY-2
      169     2302              MESSAGE: Comgroup% %UF% is busy
      170     2303        */
      171     2304        /*E*  ERROR: KCO-E$NOFILE-2
      172     2305              MESSAGE: Comgroup% %UF% does not exist
      173     2306              MESSAGE1:Comgroup %UF does not exist in DP#%SN.%AC
      174     2307        */
      175     2308    1         RETURN;

   2308  1 000154   000000 702200 xent               TSX2  ! X66_ARET

ERRCGSHARE
 Sect OctLoc
   0     000   130317 015652                                                    X...

ERRFILECG
 Sect OctLoc
   0     001   130317 002012                                                    X...

(unnamed)
 Sect OctLoc
   2     000   777777 777177                                                    ....
      176     2309
      177     2310    1   END KCO$OPCG;
      178     2311        %EOD;

PL6.E3A0      #001=KCO$OPCG File=KCO$OPCG.:E05TSI                                WED 07/30/97 00:16 Page:20
--  Include file information  --

   B$MAP.:E05TOU  cannot be made into a system file and is referenced.
   M_INFO_C.:E05TOU  is referenced.
   F_ERRORS_C.:E05TOU  is referenced.
   KC_ERRORS_C.:E05TOU  is referenced.
   F_FMTCODE_C.:E05TOU  is referenced.
   FM$MACROS.:E05TOU  is referenced.
   F$DCB.:E05TOU  is referenced.
   B$JIT_C.:E05TOU  is referenced.
   F$JIT_C.:E05TOU  cannot be made into a system file and is referenced.
   B_STRINGS_C.:E05TOU  is referenced.
   CP_6_SUBS.:E05TOU  is referenced.
      No diagnostics issued in procedure KCO$OPCG.
PL6.E3A0      #001=KCO$OPCG File=KCO$OPCG.:E05TSI                                WED 07/30/97 00:16 Page:21

 **** Variables and constants ****

  ****  Section 000 RoData KCO$OPCG

  ****  Scalars and arrays  ****
OctLoc.c.b A Datatyp(siz) R M Lvl/name                 OctLoc.c.b A Datatyp(siz) R M Lvl/name

     0-0-0/b STRC        r     1 ERRCGSHARE                 1-0-0/b STRC        r     1 ERRFILECG

  ****  Auto variables  ****

  ****  Scalars and arrays  ****
OctLoc.c.b A Datatyp(siz) R M Lvl/name                 OctLoc.c.b A Datatyp(siz) R M Lvl/name

     3-0-0/w PTR         r     1 @PN$                       5-0-0/w PTR         r     1 CFU$
     6-0-0/w UBIN        r     1 I                          4-0-0/w PTR         r     1 JDCB$
    *0-0-0/w PTR         r     1 PN$

  ****  SYMREF variables  ****

  ****  Scalars and arrays  ****
OctLoc.c.b A Datatyp(siz) R M Lvl/name                 OctLoc.c.b A Datatyp(siz) R M Lvl/name

     0-0-0/w PTR         r     1 B$JIT$

  ****  BASED and DCB variables  ****

  ****  Scalars and arrays  ****
OctLoc.c.b A Datatyp(siz) R M Lvl/name                 OctLoc.c.b A Datatyp(siz) R M Lvl/name

     0-0-0/d STRC(8856)  r     1 B$JIT                      0-0-0/d ASTR(3528)  r     1 F$DCB


   Procedure KCO$OPCG requires 109 words for executable code.
   Procedure KCO$OPCG requires 10 words of local(AUTO) storage.
PL6.E3A0      #001=KCO$OPCG File=KCO$OPCG.:E05TSI                                WED 07/30/97 00:16 Page:22
          *** CROSS REFERENCE LISTING ***
**     DENOTES     IDENTIFIER DEFINITION
<<                 IDENTIFIER'S VALUE SET
>>                 IDENTIFIER'S VALUE USED
<>                 IDENTIFIER SET AND/OR USED
--                 IDENTIFIER REFERENCED
PL6.E3A0      #001=KCO$OPCG File=KCO$OPCG.:E05TSI                                WED 07/30/97 00:16 Page:23
          MINI XREF LISTING

B$JIT.DCB$
      1116**DCL      2242>>ASSIGN
B$JIT.ERR
      1026**DCL      2241<<ASSIGN   2254<<ASSIGN   2269<<ASSIGN   2280<<ASSIGN
B$JIT.ERR.CODE
      1027**DCL      2264>>IF       2296>>IF       2296>>IF
B$JIT.ERR.FCG
      1026**DCL      2298<<ASSIGN
B$JIT.ERR.MID
      1027**DCL      1027--REDEF    2299<<ASSIGN
B$JIT$
      2195**DCL      1021--IMP-PTR  2241>>ASSIGN   2242>>ASSIGN   2254>>ASSIGN   2264>>IF       2269>>ASSIGN
      2280>>ASSIGN   2296>>IF       2296>>IF       2298>>ASSIGN   2299>>ASSIGN
B$MAP.SCTRL
      2059**DCL      2060--REDEF
CFU$
      2188**DCL      2177--IMP-PTR
ERR
      2291**LABEL    2255--GOTO     2265--GOTO     2270--GOTO     2281--GOTO
ERRCGSHARE
      2213**DCL      2254>>ASSIGN
ERRFILECG
      2217**DCL      2269>>ASSIGN   2280>>ASSIGN
F$DCB.ACTPOS
      2152**DCL      2152--REDEF
F$DCB.ARS
      2127**DCL      2127--REDEF
F$DCB.ATTR
      2145**DCL      2146--REDEF
F$DCB.ATTR.BIN
      2146**DCL      2291<<ASSIGN
F$DCB.AU
PL6.E3A0      #001=KCO$OPCG File=KCO$OPCG.:E05TSI                                WED 07/30/97 00:16 Page:24
      2138**DCL      2252>>IF
F$DCB.BORROW
      2160**DCL      2160--REDEF    2160--REDEF    2160--REDEF
F$DCB.DCBNAME.L
      2174**DCL      2174--IMP-SIZ
F$DCB.DVFC
      2148**DCL      2287>>IF       2288<<ASSIGN
F$DCB.EOMCHAR
      2131**DCL      2131--REDEF    2286<<ASSIGN
F$DCB.FCD
      2140**DCL      2266>>IF
F$DCB.FLDID
      2155**DCL      2155--REDEF
F$DCB.FORM$
      2149**DCL      2149--REDEF
F$DCB.FSECT
      2165**DCL      2165--REDEF
F$DCB.FSN
      2142**DCL      2142--REDEF    2142--REDEF    2143--REDEF
F$DCB.HEADER$
      2148**DCL      2148--REDEF
F$DCB.IASN
      2168**DCL      2243<<ASSIGN
F$DCB.IFMT
      2167**DCL      2290<<ASSIGN
F$DCB.IXTNSIZE
      2146**DCL      2146--REDEF    2246>>IF       2247<<ASSIGN   2248>>IF       2249<<ASSIGN
F$DCB.LASTSTA$
      2136**DCL      2136--REDEF
F$DCB.LVL
      2161**DCL      2161--REDEF
F$DCB.NAME.C
      2136**DCL      2136--REDEF
F$DCB.NOEOF
      2157**DCL      2157--REDEF
F$DCB.NRECS
PL6.E3A0      #001=KCO$OPCG File=KCO$OPCG.:E05TSI                                WED 07/30/97 00:16 Page:25
      2147**DCL      2147--REDEF
F$DCB.NRECX
      2166**DCL      2166--REDEF
F$DCB.OHDR
      2158**DCL      2158--REDEF
F$DCB.ORG
      2141**DCL      2141--REDEF    2244<<ASSIGN   2267>>IF       2277>>IF       2289<<ASSIGN
F$DCB.PRECNO
      2164**DCL      2164--REDEF
F$DCB.RCSZ
      2169**DCL      2169--REDEF
F$DCB.RES
      2137**DCL      2137--REDEF
F$DCB.SETX
      2149**DCL      2149--REDEF
F$DCB.SHARE
      2140**DCL      2250>>IF       2251<<ASSIGN   2252>>IF
F$DCB.TAB$
      2148**DCL      2149--REDEF
F$DCB.TDA
      2163**DCL      2163--REDEF    2245<<ASSIGN
F$DCB.WSN
      2138**DCL      2138--REDEF
FM$CFU.ACCTX
      2178**DCL      2178--REDEF
FMD$FLSHBUF
      2201**DCL-ENT  2275--CALL
FMN$OPNF
      2202**DCL-ENT  2262--CALL
FMP$CLSERR
      2204**DCL-ENT  2279--CALL
I
      2189**DCL      2274<<DOINDEX  2275<>CALL
JDCB$
      2187**DCL      2127--IMP-PTR  2242<<ASSIGN   2243>>ASSIGN   2244>>ASSIGN   2245>>ASSIGN   2246>>IF
      2247>>ASSIGN   2248>>IF       2249>>ASSIGN   2250>>IF       2251>>ASSIGN   2252>>IF       2252>>IF
PL6.E3A0      #001=KCO$OPCG File=KCO$OPCG.:E05TSI                                WED 07/30/97 00:16 Page:26
      2266>>IF       2267>>IF       2277>>IF       2286>>ASSIGN   2287>>IF       2288>>ASSIGN   2289>>ASSIGN
      2290>>ASSIGN   2291>>ASSIGN
PN$
      2120**DCL        24--PROC     2262<>CALL

