VERSION E05

PL6.E3A0      #001=KC_DATA_D File=KC_DATA_D.:E05TSI                              WED 07/30/97 00:19 Page:1
        1        1        /*M* KC_DATA_D Static data for comgroups */
        2        2        /*T***********************************************************/
        3        3        /*T*                                                         */
        4        4        /*T* Copyright (c) Bull HN Information Systems Inc., 1997    */
        5        5        /*T*                                                         */
        6        6        /*T***********************************************************/
        7        7        /*X*DMC,PLM=6,IND=2,ENU=2,DCI=4,CSU=2,ECU=2,THI=2,DTI=0*/
        8        8        /**/
        9        9        /**/
       10       10        KC_DATA_D: PROC;
       11       11        /**/
       12       12        /**/
       13       13        %INCLUDE K$RWPARM;
       14      399        %INCLUDE KI_SUBS_C;
       15      535        %INCLUDE CP_6;
       16     6094        %INCLUDE KC$CGBLK;
       17     6142        %INCLUDE OC$INFO;
       18     6198        /**/
       19     6199        /**/
       20     6200
       21     6201        /* Area to save information for hog */
       22     6202    1   DCL KC_HOG$ PTR STATIC SYMDEF INIT(ADDR(NIL));
       23     6203        %B$CGAUCI (FPTN=KC_HOG_INFO,LAST=",",STCLASS="STATIC SYMDEF");
       24     6225        %OC$INFO (LVL=2,STCLASS="STATIC SYMDEF");
       25     6262
       26     6263    1   DCL KC_NOCG$ PTR STATIC SYMDEF INIT(ADDR(NIL));
       27     6264        /**/
       28     6265        %K$RWPARM (NAME=KC_CRWP,STCLASS="CONSTANT SYMDEF",SIZ=140);
       29     6581        /**/
       30     6582        %VLP_STATION (FPTN=KC_VLPSTATION,STCLASS="CONSTANT SYMDEF");
       31     6609        %VLP_SETSTA  (FPTN=KC_VLPSETSTA ,STCLASS="CONSTANT SYMDEF");
       32     6637        /**/
       33     6638    1   DCL KC_LGL1ST CHAR(68) CONSTANT SYMDEF INIT(
       34     6639    1    '?ETOAINSHRDLUBCFGJKMPQVWXYZ0123456789_:$&-etoainshrdlubcfgjkmpqvwxyz');
       35     6640        /**/
       36     6641        %KC$CGID (FPTN=KC_OSID ,STCLASS="CONSTANT SYMDEF",NAME='OSCG');
       37     6667        %KC$CGID (FPTN=KC_ISID ,STCLASS="CONSTANT SYMDEF",NAME='ISCG');
PL6.E3A0      #001=KC_DATA_D File=KC_DATA_D.:E05TSI                              WED 07/30/97 00:19 Page:2
       38     6693        %KC$CGID (FPTN=KC_OCID ,STCLASS="CONSTANT SYMDEF",NAME='OCCG');
       39     6719        %KC$CGID (FPTN=KC_HLPID,STCLASS="CONSTANT SYMDEF",NAME='HLPCG');
       40     6745        %KC$CGID (FPTN=KC_CSID ,STCLASS="CONSTANT SYMDEF",NAME='CSCG');
       41     6771        %KC$CGID (FPTN=KC_FEID ,STCLASS="CONSTANT SYMDEF",NAME='FECG');
       42     6797        /**/
       43     6798    1   END;
       44     6799        /**/

PL6.E3A0      #001=KC_DATA_D File=KC_DATA_D.:E05TSI                              WED 07/30/97 00:19 Page:3
--  Include file information  --

   OC$INFO.:E05TOU  is referenced.
   KC$CGBLK.:E05TOU  is referenced.
   CP_6_C.:E05TOU  is referenced.
   CP_6.:E05TOU  cannot be made into a system file and is referenced.
   KI_SUBS_C.:E05TOU  is referenced.
   K$RWPARM.:E05TOU  is referenced.
      No diagnostics issued in procedure KC_DATA_D.

   No code generated for procedure KC_DATA_D .
   Procedure KC_DATA_D requires 4 words of local(AUTO) storage.

    No errors detected in file KC_DATA_D.:E05TSI    .

PL6.E3A0      #001=KC_DATA_D File=KC_DATA_D.:E05TSI                              WED 07/30/97 00:19 Page:4

 Object Unit name= KC_DATA_D                                  File name= KC_DATA_D.:E05TOU
 UTS= JUL 30 '97 00:19:16.40 WED                              Compiler= PL-6/E31         Sev=      00
 SharedLib= :SHARED_SYSTEM                                    Alt SharedLib=


    ****  Control sections  ****

 Sect   Type Bound  Init  Size OctSiz  Section name(segment info)
    0   DCB   even  none     0      0  M$UC
    1   Data  even  none    39     47  KC_DATA_D
    2  RoData even  UTS    149    225  KC_DATA_D
    3   Proc  even  none     0      0  KC_DATA_D

    ****  Entry defs  ****

                              Check   Calling
                             calling  sequence
  Sect OctLoc Primary Altret sequence   type   Parms  Name
     3      0   yes            yes     ~proc       0  KC_DATA_D

  ****  Data defs  ****

 Sect OctLoc  Name                           Sect OctLoc  Name
    1      0  KC_HOG$                            1      1  KC_HOG_INFO
    1     46  KC_NOCG$                           2      0  KC_CRWP
    2     50  KC_VLPSTATION                      2     60  KC_VLPSETSTA
    2     74  KC_LGL1ST                          2    115  KC_OSID
    2    131  KC_ISID                            2    145  KC_OCID
    2    161  KC_HLPID                           2    175  KC_CSID
    2    211  KC_FEID

  ****  Data refs  ****

  Flags:  r = read only, s = secondary
Flgs Name                             Flgs Name                             Flgs Name
     M$UC
PL6.E3A0      #001=KC_DATA_D File=KC_DATA_D.:E05TSI                              WED 07/30/97 00:19 Page:5

  ****  Segment refs  ****

  Flags:  r = read only, s = secondary
Flgs Name                             Flgs Name                             Flgs Name
     NULLSID
PL6.E3A0      #001=KC_DATA_D File=KC_DATA_D.:E05TSI                              WED 07/30/97 00:19 Page:6


(unnamed)
 Sect OctLoc
   1     000   000000 006014   000000 000000   000000 000000   000000 000000    ................
   1     004   040040 040040   040040 040040   040040 040040   040040 040040
   1     010   040040 040040   000000 000014   000000 040007   000000 000000        ...... .....
   1     014   114117 103101   114040 040040   114117 103101   114040 040040    LOCAL   LOCAL
   1     020   000000 000000   000000 000000   040040 040040   040040 040040    ........
   1     024   040040 040040   040040 040040   040040 040040   040040 040040
   1     044*  040040 040040   040040 040040   000000 006014                            ....

(unnamed)
 Sect OctLoc
   2     000   000000 006014   000000 000214   040040 040040   040040 040040    ........
   2     004   040040 040040   040040 040040   000000 000000   000000 000000            ........
   2     010   200501 000000   000000 000000   000000 000000   000000 000000    ................
   2     014   000000 006014   000000 000000   000000 006014   000000 006014    ................
   2     020   000000 000000   000000 000000   000000 006014   000000 000000    ................
   2     024   000000 006014   000000 000000   000000 006014   000000 000000    ................
   2     030   000000 000000   000000 006014   000000 000000   000000 000000    ................
   2     034   000000 006014   000000 006014   000000 006014   000000 000000    ................
   2     040   000000 000001   000000 000000   000000 ******   000000 006014    ................
   2     044   000000 006014   000000 000000   000000 000000   ****** ******    ................
   2     050   040040 040040   040040 040040   040040 040040   040040 040040
   2     054   001000 000000   000000 000000   000000 000000   000000 000000    ................
   2     060   040040 040040   040040 040040   040040 040040   040040 040040
   2     064   040040 040040   040040 040040   000000 000000   040040 040040            ....
   2     070   040040 040040   040040 040040   040040 040040   000000 000000                ....
   2     074   077105 124117   101111 116123   110122 104114   125102 103106    ?ETOAINSHRDLUBCF
   2     100   107112 113115   120121 126127   130131 132060   061062 063064    GJKMPQVWXYZ01234
   2     104   065066 067070   071137 072044   046055 145164   157141 151156    56789_:$&-etoain
   2     110   163150 162144   154165 142143   146147 152153   155160 161166    shrdlubcfgjkmpqv
   2     114   167170 171172   072123 131123   040040 040040   040040 040040    wxyz:SYS
   2     120   040040 000000   004117 123103   107040 040040   040040 040040      ...OSCG
   2     124   040040 040040   040040 040040   040040 040040   040040 040040
   2     130   040040 040040   072123 131123   040040 040040   040040 040040        :SYS
   2     134   040040 000000   004111 123103   107040 040040   040040 040040      ...ISCG
PL6.E3A0      #001=KC_DATA_D File=KC_DATA_D.:E05TSI                              WED 07/30/97 00:19 Page:7
   2     140   040040 040040   040040 040040   040040 040040   040040 040040
   2     144   040040 040040   072123 131123   040040 040040   040040 040040        :SYS
   2     150   040040 000000   004117 103103   107040 040040   040040 040040      ...OCCG
   2     154   040040 040040   040040 040040   040040 040040   040040 040040
   2     160   040040 040040   072123 131123   040040 040040   040040 040040        :SYS
   2     164   040040 000000   005110 114120   103107 040040   040040 040040      ...HLPCG
   2     170   040040 040040   040040 040040   040040 040040   040040 040040
   2     174   040040 040040   072123 131123   040040 040040   040040 040040        :SYS
   2     200   040040 000000   004103 123103   107040 040040   040040 040040      ...CSCG
   2     204   040040 040040   040040 040040   040040 040040   040040 040040
   2     210   040040 040040   072123 131123   040040 040040   040040 040040        :SYS
   2     214   040040 000000   004106 105103   107040 040040   040040 040040      ...FECG
   2     220   040040 040040   040040 040040   040040 040040   040040 040040
   2     224   040040 040040
        1        1        /*M* KC_DATA_D Static data for comgroups */
        2        2        /*T***********************************************************/
        3        3        /*T*                                                         */
        4        4        /*T* Copyright (c) Bull HN Information Systems Inc., 1997    */
        5        5        /*T*                                                         */
        6        6        /*T***********************************************************/
        7        7        /*X*DMC,PLM=6,IND=2,ENU=2,DCI=4,CSU=2,ECU=2,THI=2,DTI=0*/
        8        8        /**/
        9        9        /**/
       10       10        KC_DATA_D: PROC;
       11       11        /**/
       12       12        /**/
       13       13        %INCLUDE K$RWPARM;
       14      399        %INCLUDE KI_SUBS_C;
       15      535        %INCLUDE CP_6;
       16     6094        %INCLUDE KC$CGBLK;
       17     6142        %INCLUDE OC$INFO;
       18     6198        /**/
       19     6199        /**/
       20     6200
       21     6201        /* Area to save information for hog */
       22     6202    1   DCL KC_HOG$ PTR STATIC SYMDEF INIT(ADDR(NIL));
       23     6203        %B$CGAUCI (FPTN=KC_HOG_INFO,LAST=",",STCLASS="STATIC SYMDEF");
PL6.E3A0      #001=KC_DATA_D File=KC_DATA_D.:E05TSI                              WED 07/30/97 00:19 Page:8
       24     6225        %OC$INFO (LVL=2,STCLASS="STATIC SYMDEF");
       25     6262
       26     6263    1   DCL KC_NOCG$ PTR STATIC SYMDEF INIT(ADDR(NIL));
       27     6264        /**/
       28     6265        %K$RWPARM (NAME=KC_CRWP,STCLASS="CONSTANT SYMDEF",SIZ=140);
       29     6581        /**/
       30     6582        %VLP_STATION (FPTN=KC_VLPSTATION,STCLASS="CONSTANT SYMDEF");
       31     6609        %VLP_SETSTA  (FPTN=KC_VLPSETSTA ,STCLASS="CONSTANT SYMDEF");
       32     6637        /**/
       33     6638    1   DCL KC_LGL1ST CHAR(68) CONSTANT SYMDEF INIT(
       34     6639    1    '?ETOAINSHRDLUBCFGJKMPQVWXYZ0123456789_:$&-etoainshrdlubcfgjkmpqvwxyz');
       35     6640        /**/
       36     6641        %KC$CGID (FPTN=KC_OSID ,STCLASS="CONSTANT SYMDEF",NAME='OSCG');
       37     6667        %KC$CGID (FPTN=KC_ISID ,STCLASS="CONSTANT SYMDEF",NAME='ISCG');
       38     6693        %KC$CGID (FPTN=KC_OCID ,STCLASS="CONSTANT SYMDEF",NAME='OCCG');
       39     6719        %KC$CGID (FPTN=KC_HLPID,STCLASS="CONSTANT SYMDEF",NAME='HLPCG');
       40     6745        %KC$CGID (FPTN=KC_CSID ,STCLASS="CONSTANT SYMDEF",NAME='CSCG');
       41     6771        %KC$CGID (FPTN=KC_FEID ,STCLASS="CONSTANT SYMDEF",NAME='FECG');
       42     6797        /**/
       43     6798    1   END;
       44     6799        /**/

PL6.E3A0      #001=KC_DATA_D File=KC_DATA_D.:E05TSI                              WED 07/30/97 00:19 Page:9
--  Include file information  --

   OC$INFO.:E05TOU  is referenced.
   KC$CGBLK.:E05TOU  is referenced.
   CP_6_C.:E05TOU  is referenced.
   CP_6.:E05TOU  cannot be made into a system file and is referenced.
   KI_SUBS_C.:E05TOU  is referenced.
   K$RWPARM.:E05TOU  is referenced.
      No diagnostics issued in procedure KC_DATA_D.
PL6.E3A0      #001=KC_DATA_D File=KC_DATA_D.:E05TSI                              WED 07/30/97 00:19 Page:10

 **** Variables and constants ****


   No code generated for procedure KC_DATA_D .
   Procedure KC_DATA_D requires 4 words of local(AUTO) storage.

    No errors detected in file KC_DATA_D.:E05TSI    .
PL6.E3A0      #001=KC_DATA_D File=KC_DATA_D.:E05TSI                              WED 07/30/97 00:19 Page:11
          *** CROSS REFERENCE LISTING ***
**     DENOTES     IDENTIFIER DEFINITION
<<                 IDENTIFIER'S VALUE SET
>>                 IDENTIFIER'S VALUE USED
<>                 IDENTIFIER SET AND/OR USED
--                 IDENTIFIER REFERENCED
PL6.E3A0      #001=KC_DATA_D File=KC_DATA_D.:E05TSI                              WED 07/30/97 00:19 Page:12
          MINI XREF LISTING

KC_CRWP.BLKREC
      6312**DCL      6337--REDEF
KC_CRWP.BLKREC.BLKU#
      6313**DCL      6315--REDEF
KC_CRWP.BLKREC.RECU#
      6325**DCL      6327--REDEF
KC_CRWP.DVE.DVBYTE.VFC
      6352**DCL      6353--REDEF
KC_CRWP.DVE.EOMCHAR
      6360**DCL      6364--REDEF
KC_CRWP.ERR
      6424**DCL      6429--REDEF
KC_CRWP.FC
      6388**DCL      6389--REDEF
KC_CRWP.FLDID
      6570**DCL      6571--REDEF
KC_CRWP.FPT$
      6451**DCL      6458--REDEF
KC_CRWP.KEYTYPE
      6577**DCL      6578--REDEF
KC_CRWP.MSG$
      6287**DCL      6293--REDEF
KC_CRWP.MSGID
      6399**DCL      6404--REDEF
KC_CRWP.MSGIDXT
      6412**DCL      6416--REDEF
KC_CRWP.ORG
      6548**DCL      6549--REDEF
KC_CRWP.THDRSZ
      6492**DCL      6496--REDEF
KC_CRWP.VDOFLGS
      6550**DCL      6561--REDEF
PL6.E3A0      #001=KC_DATA_D File=KC_DATA_D.:E05TSI                              WED 07/30/97 00:19 Page:13
KC_HOG_INFO.ATTR
      6222**DCL      6222--REDEF
KC_VLPSTATION.MSGIDXT
      6604**DCL      6607--REDEF
