VERSION E05

PL6.E3A0      #001=KFD$WRT_NA File=KFD$WRT_NA.:E05TSI                            WED 07/30/97 00:20 Page:1
        1        1        /*T***********************************************************/
        2        2        /*T*                                                         */
        3        3        /*T* Copyright (c) Bull HN Information Systems Inc., 1997    */
        4        4        /*T*                                                         */
        5        5        /*T***********************************************************/
        6        6        /*F*    Name: KFD$WRT_NA
        7        7                Purpose:  Send message from FROG to NA when performing dumps
        8        8                          for remote FEPs and all SNAPs and SUAs.
        9        9
       10       10                Call: CALL KFD$WRT_NA(DUMPMSG,SIZE) ALTRET;
       11       11
       12       12                Input: DUMPMSG - Message buffer defined by the KL_DUMPMSG
       13       13                                 structure in KL_MACRO_C.
       14       14                         SIZE - Size of data portion of message.
       15       15
       16       16                Description:
       17       17                   The message is sent to SLUG as a keyin with a keyin number
       18       18                of KEY_FROG2NA.  The CADDR field of the keyin header contains
       19       19                the size of the message body in bytes.  The FEX field of the
       20       20                keyin header contains the FEX.  An ALTRET occurs if the write
       21       21                to CSCG altreturns.
       22       22                                                                           */
       23       23
       24       24        KFD$WRT_NA: PROC(DUMPMSG,SIZE) ALTRET;
       25       25
       26       26        %INCLUDE KL_MACRO_C;
       27     3378
       28     3379        %KL_DUMPMSG (FPTN=DUMPMSG,STCLASS=PARAM,DSIZE=SIZE);
       29     3420    1   DCL SIZE UBIN;
       30     3421
       31     3422        %INCLUDE CP_6;
       32     3503        %INCLUDE OC_SUBS_C;
       33     4234
       34     4235    1   DCL M$CS DCB;
       35     4236        %FPT_WRITE (FPTN=WRITE_SLUG,
       36     4237                    DCB=M$CS,
       37     4238                    STATION=SLUG,
PL6.E3A0      #001=KFD$WRT_NA File=KFD$WRT_NA.:E05TSI                            WED 07/30/97 00:20 Page:2
       38     4239                    WAIT=YES);
       39     4270        %VLP_STATION (FPTN=SLUG,
       40     4271                      STATION='SLUG');
       41     4298
       42     4299    1           DUMPMSG.CSHDR.KEY#=KEY_FROG2NA;
       43     4300    1           WRITE_SLUG.BUF_=VECTOR(DUMPMSG);
       44     4301    2           CALL M$WRITE(WRITE_SLUG) WHENALTRETURN DO;
       45     4302    2              ALTRETURN;
       46     4303    2              END;
       47     4304    1           RETURN;
       48     4305
       49     4306    1   END KFD$WRT_NA;

PL6.E3A0      #001=KFD$WRT_NA File=KFD$WRT_NA.:E05TSI                            WED 07/30/97 00:20 Page:3
--  Include file information  --

   OC_SUBS_C.:E05TOU  is referenced.
   CP_6.:E05TOU  cannot be made into a system file and is referenced.
   KL_MACRO_C.:E05TOU  is referenced.
   B$JIT_C.:E05TOU  was found in the system file and is never referenced.
   CP_6_C.:E05TOU  was found in the system file and is referenced.
      No diagnostics issued in procedure KFD$WRT_NA.

   Procedure KFD$WRT_NA requires 20 words for executable code.
   Procedure KFD$WRT_NA requires 6 words of local(AUTO) storage.

    No errors detected in file KFD$WRT_NA.:E05TSI    .

PL6.E3A0      #001=KFD$WRT_NA File=KFD$WRT_NA.:E05TSI                            WED 07/30/97 00:20 Page:4

 Object Unit name= KFD$WRT_NA                                 File name= KFD$WRT_NA.:E05TOU
 UTS= JUL 30 '97 00:20:33.60 WED                              Compiler= PL-6/E31         Sev=      00
 SharedLib= :SHARED_SYSTEM                                    Alt SharedLib=


    ****  Control sections  ****

 Sect   Type Bound  Init  Size OctSiz  Section name(segment info)
    0   DCB   even  none     0      0  M$UC
    1   DCB   even  none     0      0  M$CS
    2   Data  even  none    20     24  KFD$WRT_NA
    3   Proc  even  none    20     24  KFD$WRT_NA

    ****  Entry defs  ****

                              Check   Calling
                             calling  sequence
  Sect OctLoc Primary Altret sequence   type   Parms  Name
     3      0   yes    yes     yes      Std        2  KFD$WRT_NA

  ****  Entry refs  ****

         Check        Calling
        calling       sequence
Altret sequence SRef   type   Args  Name
                       nStd      0 X66_AUTO_2
                       nStd      0 X66_AALT
                       nStd      0 X66_ARET

  ****  Data refs  ****

  Flags:  r = read only, s = secondary
Flgs Name                             Flgs Name                             Flgs Name
     M$UC                                  M$CS
PL6.E3A0      #001=KFD$WRT_NA File=KFD$WRT_NA.:E05TSI                            WED 07/30/97 00:20 Page:5

  ****  Segment refs  ****

  Flags:  r = read only, s = secondary
Flgs Name                             Flgs Name                             Flgs Name
     ISSID                                 NULLSID
PL6.E3A0      #001=KFD$WRT_NA File=KFD$WRT_NA.:E05TSI                            WED 07/30/97 00:20 Page:6


        1        1        /*T***********************************************************/
        2        2        /*T*                                                         */
        3        3        /*T* Copyright (c) Bull HN Information Systems Inc., 1997    */
        4        4        /*T*                                                         */
        5        5        /*T***********************************************************/
        6        6        /*F*    Name: KFD$WRT_NA
        7        7                Purpose:  Send message from FROG to NA when performing dumps
        8        8                          for remote FEPs and all SNAPs and SUAs.
        9        9
       10       10                Call: CALL KFD$WRT_NA(DUMPMSG,SIZE) ALTRET;
       11       11
       12       12                Input: DUMPMSG - Message buffer defined by the KL_DUMPMSG
       13       13                                 structure in KL_MACRO_C.
       14       14                         SIZE - Size of data portion of message.
       15       15
       16       16                Description:
       17       17                   The message is sent to SLUG as a keyin with a keyin number
       18       18                of KEY_FROG2NA.  The CADDR field of the keyin header contains
       19       19                the size of the message body in bytes.  The FEX field of the
       20       20                keyin header contains the FEX.  An ALTRET occurs if the write
       21       21                to CSCG altreturns.
       22       22                                                                           */
       23       23
       24       24        KFD$WRT_NA: PROC(DUMPMSG,SIZE) ALTRET;

     24  3 000000   000000 700200 xent  KFD$WRT_NA   TSX0  ! X66_AUTO_2
         3 000001   000006 000002                    ZERO    6,2

       25       25
       26       26        %INCLUDE KL_MACRO_C;
       27     3378
       28     3379        %KL_DUMPMSG (FPTN=DUMPMSG,STCLASS=PARAM,DSIZE=SIZE);
       29     3420    1   DCL SIZE UBIN;
       30     3421
       31     3422        %INCLUDE CP_6;
       32     3503        %INCLUDE OC_SUBS_C;
PL6.E3A0      #001=KFD$WRT_NA File=KFD$WRT_NA.:E05TSI                            WED 07/30/97 00:20 Page:7
       33     4234
       34     4235    1   DCL M$CS DCB;
       35     4236        %FPT_WRITE (FPTN=WRITE_SLUG,
       36     4237                    DCB=M$CS,
       37     4238                    STATION=SLUG,
       38     4239                    WAIT=YES);
       39     4270        %VLP_STATION (FPTN=SLUG,
       40     4271                      STATION='SLUG');
       41     4298
       42     4299    1           DUMPMSG.CSHDR.KEY#=KEY_FROG2NA;

   4299  3 000002   000037 220003                    LDX0    31,DU
         3 000003   200003 470500                    LDP0    @DUMPMSG,,AUTO
         3 000004   000000 740100                    STX0    0,,PR0

       43     4300    1           WRITE_SLUG.BUF_=VECTOR(DUMPMSG);

   4300  3 000005   200004 471500                    LDP1    @SIZE,,AUTO
         3 000006   100000 721100                    LXL1    0,,PR1
         3 000007   000014 622011                    EAX2    12,X1
         3 000010   000000 635012                    EAA     0,X2
         3 000011   000002 771000                    ARL     2
         3 000012   000140 135007                    SBLA    96,DL
         3 000013   200003 236100                    LDQ     @DUMPMSG,,AUTO
         3 000014   000004 757000 2                  STAQ    WRITE_SLUG+4

       44     4301    2           CALL M$WRITE(WRITE_SLUG) WHENALTRETURN DO;

   4301  3 000015   000000 630400 2                  EPPR0   WRITE_SLUG
         3 000016   440001 713400                    CLIMB   alt,write
         3 000017   401400 401760                    pmme    nvectors=4
         3 000020   000022 702000 3                  TSX2    s:4302
         3 000021   000023 710000 3                  TRA     s:4304

       45     4302    2              ALTRETURN;

   4302  3 000022   000000 702200 xent               TSX2  ! X66_AALT
PL6.E3A0      #001=KFD$WRT_NA File=KFD$WRT_NA.:E05TSI                            WED 07/30/97 00:20 Page:8

       46     4303    2              END;
       47     4304    1           RETURN;

   4304  3 000023   000000 702200 xent               TSX2  ! X66_ARET
       48     4305
       49     4306    1   END KFD$WRT_NA;

PL6.E3A0      #001=KFD$WRT_NA File=KFD$WRT_NA.:E05TSI                            WED 07/30/97 00:20 Page:9
--  Include file information  --

   OC_SUBS_C.:E05TOU  is referenced.
   CP_6.:E05TOU  cannot be made into a system file and is referenced.
   KL_MACRO_C.:E05TOU  is referenced.
   B$JIT_C.:E05TOU  was found in the system file and is never referenced.
   CP_6_C.:E05TOU  was found in the system file and is referenced.
      No diagnostics issued in procedure KFD$WRT_NA.
PL6.E3A0      #001=KFD$WRT_NA File=KFD$WRT_NA.:E05TSI                            WED 07/30/97 00:20 Page:10

 **** Variables and constants ****

  ****  Section 002  Data  KFD$WRT_NA

  ****  Scalars and arrays  ****
OctLoc.c.b A Datatyp(siz) R M Lvl/name                 OctLoc.c.b A Datatyp(siz) R M Lvl/name

    14-0-0/w STRC(288)   r     1 SLUG                       0-0-0/d STRC(432)   r     1 WRITE_SLUG

  ****  Auto variables  ****

  ****  Scalars and arrays  ****
OctLoc.c.b A Datatyp(siz) R M Lvl/name                 OctLoc.c.b A Datatyp(siz) R M Lvl/name

     3-0-0/w PTR         r     1 @DUMPMSG                   4-0-0/w PTR         r     1 @SIZE
    *0-0-0/w ASTR(108)   r     1 DUMPMSG                   *0-0-0/w UBIN        r     1 SIZE

  ****  BASED and DCB variables  ****

  ****  Scalars and arrays  ****
OctLoc.c.b A Datatyp(siz) R M Lvl/name                 OctLoc.c.b A Datatyp(siz) R M Lvl/name

     0-0-0N  NULL        r     1 M$CS


   Procedure KFD$WRT_NA requires 20 words for executable code.
   Procedure KFD$WRT_NA requires 6 words of local(AUTO) storage.

    No errors detected in file KFD$WRT_NA.:E05TSI    .
PL6.E3A0      #001=KFD$WRT_NA File=KFD$WRT_NA.:E05TSI                            WED 07/30/97 00:20 Page:11
          *** CROSS REFERENCE LISTING ***
**     DENOTES     IDENTIFIER DEFINITION
<<                 IDENTIFIER'S VALUE SET
>>                 IDENTIFIER'S VALUE USED
<>                 IDENTIFIER SET AND/OR USED
--                 IDENTIFIER REFERENCED
PL6.E3A0      #001=KFD$WRT_NA File=KFD$WRT_NA.:E05TSI                            WED 07/30/97 00:20 Page:12
          MINI XREF LISTING

DUMPMSG
      3399**DCL        24--PROC     4300--ASSIGN
DUMPMSG.CSHDR.KEY#
      3402**DCL      4299<<ASSIGN
M$WRITE
      3432**DCL-ENT  4301--CALL
SIZE
      3420**DCL        24--PROC     3418--IMP-SIZ  4300>>ASSIGN
SLUG
      4283**DCL      4258--DCLINIT
SLUG.MSGIDXT
      4293**DCL      4296--REDEF
WRITE_SLUG
      4256**DCL      4301<>CALL
WRITE_SLUG.BUF_
      4256**DCL      4300<<ASSIGN
WRITE_SLUG.STATION_
      4258**DCL      4258--REDEF
WRITE_SLUG.V
      4259**DCL      4256--DCLINIT
WRITE_SLUG.V.DVBYTE.VFC#
      4265**DCL      4265--REDEF
