VERSION E05

PL6.E3A0      #001=KFE$ERP File=KFE$ERR_MSG.:E05TSI                              WED 07/30/97 00:21 Page:1
        1        1        /*M*             KFE$ERR_MSG - handle msgs for frog */
        2        2        /*T***********************************************************/
        3        3        /*T*                                                         */
        4        4        /*T* Copyright (c) Bull HN Information Systems Inc., 1997    */
        5        5        /*T*                                                         */
        6        6        /*T***********************************************************/
        7        7        /*X* CCE CRM 70 IND 5 ECU 10 THI 0 DCI 10 CSU 5 ENU 5 */
        8        8        /**/
        9        9        KFE$ERP: PROC (ERMSG);
       10       10        /**/
       11       11        %INCLUDE CP_6;
       12       92        %B$TCB;
       13       95        %B$ALT;
       14      103        /**/
       15      104        /**/
       16      105    1   DCL B$TCB$ PTR SYMREF;
       17      106    1   DCL ERMSG CHAR(8);
       18      107    1   DCL ESIZE UBIN(36);
       19      108    1   DCL 1 ERRM STATIC ALIGNED,
       20      109    1         2 ERRM2 UNAL,
       21      110    1           3 * CHAR(0) INIT('!!ERROR IN FROG FROM '),
       22      111    1           3 ERTXT CHAR(8) INIT('HUH?????');
       23      112        /**/
       24      113        %FPT_ERRMSG(CODE=VLP_ERRCODE,BUF=Y_ERRMSGBUF,
       25      114                 OUTDCB1=M$LO);
       26      141        %VLP_ERRCODE;
       27      186    1   DCL Y_ERRMSGBUF CHAR(300) STATIC;
       28      187    1   DCL M$LO DCB;
       29      188        /**/
       30      189    1           ERRM.ERRM2.ERTXT = ERMSG;
       31      190    1           ESIZE = LENGTHC(ERRM);
       32      191    1           CALL KFE$WMSG(ERRM,ESIZE);
       33      192    1           VLP_ERRCODE = B$TCB$->B$TCB.ALT$->B$ALT.ERR;
       34      193    1           CALL M$ERRMSG(FPT_ERRMSG) ALTRET(BDERMSG);
       35      194    1           RETURN;
       36      195    1   BDERMSG:
       37      196    1           RETURN;
PL6.E3A0      #001=KFE$ERP File=KFE$ERR_MSG.:E05TSI                              WED 07/30/97 00:21 Page:2
       38      197    1   KFE$ERRTXT: ENTRY (ERMSG);
       39      198    1           ERRM.ERRM2.ERTXT = ERMSG;
       40      199    1           ESIZE = LENGTHC(ERRM.ERRM2);
       41      200    1   WMSG:   CALL KFE$WMSG(ERRM,ESIZE);
       42      201    1           RETURN;
       43      202        /*F*     NAME: KFE$WMSG
       44      203                 PURPOSE: Write an error msg to eo   */
       45      204        /**/
       46      205        /*        MAY BE EITHER FILE OR TTY          */
       47      206    1   KFE$WMSG: PROC (M,MSZ);
       48      207    2   DCL M$DO DCB;
       49      208    2   DCL MBUF UBIN(36) STATIC;
       50      209    2   DCL M UBIN(36);
       51      210    2   DCL MSZ UBIN(36);
       52      211    2   DCL CGERROUT ENTRY;
       53      212        /**/
       54      213        /**/
       55      214        %FPT_WRITE (FPTN=WTEO,DCB=M$DO,BUF=MBUF);
       56      245        /**/
       57      246        /**/
       58      247    2           WTEO.BUF_.BUF$=ADDR(M);
       59      248    2           WTEO.BUF_.BOUND=MSZ-1;
       60      249    2           CALL M$WRITE (WTEO);
       61      250    2           RETURN;
       62      251    2   END KFE$WMSG;
       63      252    1   END KFE$ERP;

PL6.E3A0      #001=KFE$ERP File=KFE$ERR_MSG.:E05TSI                              WED 07/30/97 00:21 Page:3
--  Include file information  --

   CP_6.:E05TOU  cannot be made into a system file and is referenced.
   B$JIT_C.:E05TOU  was found in the system file and is never referenced.
   CP_6_C.:E05TOU  was found in the system file and is referenced.
      No diagnostics issued in procedure KFE$ERP.

   Procedure KFE$ERP requires 54 words for executable code.
   Procedure KFE$ERP requires 10 words of local(AUTO) storage.

    No errors detected in file KFE$ERR_MSG.:E05TSI    .

PL6.E3A0      #001=KFE$ERP File=KFE$ERR_MSG.:E05TSI                              WED 07/30/97 00:21 Page:4

 Object Unit name= KFE$ERP                                    File name= KFE$ERR_MSG.:E05TOU
 UTS= JUL 30 '97 00:21:00.56 WED                              Compiler= PL-6/E31         Sev=      00
 SharedLib= :SHARED_SYSTEM                                    Alt SharedLib=


    ****  Control sections  ****

 Sect   Type Bound  Init  Size OctSiz  Section name(segment info)
    0   DCB   even  none     0      0  M$UC
    1   Data  even  none   124    174  KFE$ERP
    2   DCB   even  none     0      0  M$LO
    3   DCB   even  none     0      0  M$DO
    4   Proc  even  none    54     66  KFE$ERP
    5  RoData even  none     1      1  KFE$ERP

    ****  Entry defs  ****

                              Check   Calling
                             calling  sequence
  Sect OctLoc Primary Altret sequence   type   Parms  Name
     4      0   yes            yes      Std        1  KFE$ERP
     4     30                  yes      Std        1  KFE$ERRTXT

  ****  Entry refs  ****

         Check        Calling
        calling       sequence
Altret sequence SRef   type   Args  Name
                       nStd      0 X66_AUTO_1
                       nStd      0 X66_ARET
                       Std       0 B_CONSPOOL_D
PL6.E3A0      #001=KFE$ERP File=KFE$ERR_MSG.:E05TSI                              WED 07/30/97 00:21 Page:5

  ****  Data refs  ****

  Flags:  r = read only, s = secondary
Flgs Name                             Flgs Name                             Flgs Name
     M$UC                                  B$TCB$                                M$LO
     M$DO                                  B_VECTNIL

  ****  Segment refs  ****

  Flags:  r = read only, s = secondary
Flgs Name                             Flgs Name                             Flgs Name
     ISSID                                 NULLSID
PL6.E3A0      #001=KFE$ERP File=KFE$ERR_MSG.:E05TSI                              WED 07/30/97 00:21 Page:6


        1        1        /*M*             KFE$ERR_MSG - handle msgs for frog */
        2        2        /*T***********************************************************/
        3        3        /*T*                                                         */
        4        4        /*T* Copyright (c) Bull HN Information Systems Inc., 1997    */
        5        5        /*T*                                                         */
        6        6        /*T***********************************************************/
        7        7        /*X* CCE CRM 70 IND 5 ECU 10 THI 0 DCI 10 CSU 5 ENU 5 */
        8        8        /**/
        9        9        KFE$ERP: PROC (ERMSG);

      9  4 000000   000000 700200 xent  KFE$ERP      TSX0  ! X66_AUTO_1
         4 000001   000012 000001                    ZERO    10,1

       10       10        /**/
       11       11        %INCLUDE CP_6;
       12       92        %B$TCB;
       13       95        %B$ALT;
       14      103        /**/
       15      104        /**/
       16      105    1   DCL B$TCB$ PTR SYMREF;
       17      106    1   DCL ERMSG CHAR(8);
       18      107    1   DCL ESIZE UBIN(36);
       19      108    1   DCL 1 ERRM STATIC ALIGNED,
       20      109    1         2 ERRM2 UNAL,
       21      110    1           3 * CHAR(0) INIT('!!ERROR IN FROG FROM '),
       22      111    1           3 ERTXT CHAR(8) INIT('HUH?????');
       23      112        /**/
       24      113        %FPT_ERRMSG(CODE=VLP_ERRCODE,BUF=Y_ERRMSGBUF,
       25      114                 OUTDCB1=M$LO);
       26      141        %VLP_ERRCODE;
       27      186    1   DCL Y_ERRMSGBUF CHAR(300) STATIC;
       28      187    1   DCL M$LO DCB;
       29      188        /**/
       30      189    1           ERRM.ERRM2.ERTXT = ERMSG;

    189  4 000002   200003 470500                    LDP0    @ERMSG,,AUTO
PL6.E3A0      #001=KFE$ERP File=KFE$ERR_MSG.:E05TSI                              WED 07/30/97 00:21 Page:7
         4 000003   040000 100500                    MLR     fill='040'O
         4 000004   000000 000010                    ADSC9   0,,PR0                   cn=0,n=8
         4 000005   000005 200010 1                  ADSC9   ERRM+5                   cn=1,n=8

       31      190    1           ESIZE = LENGTHC(ERRM);

    190  4 000006   000035 235007                    LDA     29,DL
         4 000007   200004 755100                    STA     ESIZE,,AUTO

       32      191    1           CALL KFE$WMSG(ERRM,ESIZE);

    191  4 000010   200004 631500                    EPPR1   ESIZE,,AUTO
         4 000011   200010 451500                    STP1    @M+1,,AUTO
         4 000012   000000 236000 5                  LDQ     0
         4 000013   200007 756100                    STQ     ESIZE+3,,AUTO
         4 000014   000047 701000 4                  TSX1    KFE$WMSG
         4 000015   000000 011000                    NOP     0

       33      192    1           VLP_ERRCODE = B$TCB$->B$TCB.ALT$->B$ALT.ERR;

    192  4 000016   000000 470400 xsym               LDP0    B$TCB$
         4 000017   000000 471500                    LDP1    0,,PR0
         4 000020   100102 236100                    LDQ     66,,PR1
         4 000021   000042 756000 1                  STQ     VLP_ERRCODE

       34      193    1           CALL M$ERRMSG(FPT_ERRMSG) ALTRET(BDERMSG);

    193  4 000022   000010 630400 1                  EPPR0   FPT_ERRMSG
         4 000023   420000 713400                    CLIMB   alt,+8192
         4 000024   405000 401760                    pmme    nvectors=11
         4 000025   000027 702000 4                  TSX2    BDERMSG

       35      194    1           RETURN;

    194  4 000026   000000 702200 xent               TSX2  ! X66_ARET

       36      195    1   BDERMSG:
PL6.E3A0      #001=KFE$ERP File=KFE$ERR_MSG.:E05TSI                              WED 07/30/97 00:21 Page:8
       37      196    1           RETURN;

    196  4 000027   000000 702200 xent  BDERMSG      TSX2  ! X66_ARET

       38      197    1   KFE$ERRTXT: ENTRY (ERMSG);

    197  4 000030   000000 700200 xent  KFE$ERRTXT   TSX0  ! X66_AUTO_1
         4 000031   000012 000001                    ZERO    10,1

       39      198    1           ERRM.ERRM2.ERTXT = ERMSG;

    198  4 000032   200003 470500                    LDP0    @ERMSG,,AUTO
         4 000033   040000 100500                    MLR     fill='040'O
         4 000034   000000 000010                    ADSC9   0,,PR0                   cn=0,n=8
         4 000035   000005 200010 1                  ADSC9   ERRM+5                   cn=1,n=8

       40      199    1           ESIZE = LENGTHC(ERRM.ERRM2);

    199  4 000036   000035 235007                    LDA     29,DL
         4 000037   200004 755100                    STA     ESIZE,,AUTO

       41      200    1   WMSG:   CALL KFE$WMSG(ERRM,ESIZE);

    200  4 000040   200004 631500       WMSG         EPPR1   ESIZE,,AUTO
         4 000041   200010 451500                    STP1    @M+1,,AUTO
         4 000042   000000 236000 5                  LDQ     0
         4 000043   200007 756100                    STQ     ESIZE+3,,AUTO
         4 000044   000047 701000 4                  TSX1    KFE$WMSG
         4 000045   000000 011000                    NOP     0

       42      201    1           RETURN;

    201  4 000046   000000 702200 xent               TSX2  ! X66_ARET

       43      202        /*F*     NAME: KFE$WMSG
       44      203                 PURPOSE: Write an error msg to eo   */
       45      204        /**/
PL6.E3A0      #001=KFE$ERP File=KFE$ERR_MSG.:E05TSI                              WED 07/30/97 00:21 Page:9
       46      205        /*        MAY BE EITHER FILE OR TTY          */
       47      206    1   KFE$WMSG: PROC (M,MSZ);

    206  4 000047   200006 741300       KFE$WMSG     STX1  ! ESIZE+2,,AUTO

       48      207    2   DCL M$DO DCB;
       49      208    2   DCL MBUF UBIN(36) STATIC;
       50      209    2   DCL M UBIN(36);
       51      210    2   DCL MSZ UBIN(36);
       52      211    2   DCL CGERROUT ENTRY;
       53      212        /**/
       54      213        /**/
       55      214        %FPT_WRITE (FPTN=WTEO,DCB=M$DO,BUF=MBUF);
       56      245        /**/
       57      246        /**/
       58      247    2           WTEO.BUF_.BUF$=ADDR(M);

    247  4 000050   200007 236100                    LDQ     @M,,AUTO
         4 000051   000165 756000 1                  STQ     WTEO+5

       59      248    2           WTEO.BUF_.BOUND=MSZ-1;

    248  4 000052   200010 470500                    LDP0    @MSZ,,AUTO
         4 000053   000000 236100                    LDQ     0,,PR0
         4 000054   000001 136007                    SBLQ    1,DL
         4 000055   000020 736000                    QLS     16
         4 000056   000164 676000 1                  ERQ     WTEO+4
         4 000057   000034 376000 xsym               ANQ     B_VECTNIL+28
         4 000060   000164 656000 1                  ERSQ    WTEO+4

       60      249    2           CALL M$WRITE (WTEO);

    249  4 000061   000160 630400 1                  EPPR0   WTEO
         4 000062   040001 713400                    CLIMB   write
         4 000063   401400 401760                    pmme    nvectors=4

       61      250    2           RETURN;
PL6.E3A0      #001=KFE$ERP File=KFE$ERR_MSG.:E05TSI                              WED 07/30/97 00:21 Page:10

    250  4 000064   200006 221300                    LDX1  ! ESIZE+2,,AUTO
         4 000065   000001 702211                    TSX2  ! 1,X1
       62      251    2   END KFE$WMSG;
       63      252    1   END KFE$ERP;

PL6.E3A0      #001=KFE$ERP File=KFE$ERR_MSG.:E05TSI                              WED 07/30/97 00:21 Page:11
--  Include file information  --

   CP_6.:E05TOU  cannot be made into a system file and is referenced.
   B$JIT_C.:E05TOU  was found in the system file and is never referenced.
   CP_6_C.:E05TOU  was found in the system file and is referenced.
      No diagnostics issued in procedure KFE$ERP.
PL6.E3A0      #001=KFE$ERP File=KFE$ERR_MSG.:E05TSI                              WED 07/30/97 00:21 Page:12

 **** Variables and constants ****

  ****  Section 001  Data  KFE$ERP

  ****  Scalars and arrays  ****
OctLoc.c.b A Datatyp(siz) R M Lvl/name                 OctLoc.c.b A Datatyp(siz) R M Lvl/name

     0-0-0/w STRC(261)   r     1 ERRM                      10-0-0/d STRC(936)   r     1 FPT_ERRMSG
   156-0-0/w UBIN        r     1 MBUF                      42-0-0/w STRC        r     1 VLP_ERRCODE
   160-0-0/d STRC(432)   r     1 WTEO                      43-0-0/c CHAR(300)   r     1 Y_ERRMSGBUF

  ****  Auto variables  ****

  ****  Scalars and arrays  ****
OctLoc.c.b A Datatyp(siz) R M Lvl/name                 OctLoc.c.b A Datatyp(siz) R M Lvl/name

     3-0-0/w PTR         r     1 @ERMSG                     7-0-0/w PTR         r     1 @M
    10-0-0/w PTR         r     1 @MSZ                      *0-0-0/c CHAR(8)     r     1 ERMSG
     4-0-0/w UBIN        r     1 ESIZE                     *0-0-0/w UBIN        r     1 M
    *0-0-0/w UBIN        r     1 MSZ

  ****  SYMREF variables  ****

  ****  Scalars and arrays  ****
OctLoc.c.b A Datatyp(siz) R M Lvl/name                 OctLoc.c.b A Datatyp(siz) R M Lvl/name

     0-0-0/w PTR         r     1 B$TCB$

  ****  BASED and DCB variables  ****

  ****  Scalars and arrays  ****
OctLoc.c.b A Datatyp(siz) R M Lvl/name                 OctLoc.c.b A Datatyp(siz) R M Lvl/name

     0-0-0/w STRC(2448)  r     1 B$ALT                      0-0-0/w STRC(144)   r     1 B$TCB
     0-0-0N  NULL        r     1 M$DO                       0-0-0N  NULL        r     1 M$LO

PL6.E3A0      #001=KFE$ERP File=KFE$ERR_MSG.:E05TSI                              WED 07/30/97 00:21 Page:13

   Procedure KFE$ERP requires 54 words for executable code.
   Procedure KFE$ERP requires 10 words of local(AUTO) storage.

    No errors detected in file KFE$ERR_MSG.:E05TSI    .
PL6.E3A0      #001=KFE$ERP File=KFE$ERR_MSG.:E05TSI                              WED 07/30/97 00:21 Page:14
          *** CROSS REFERENCE LISTING ***
**     DENOTES     IDENTIFIER DEFINITION
<<                 IDENTIFIER'S VALUE SET
>>                 IDENTIFIER'S VALUE USED
<>                 IDENTIFIER SET AND/OR USED
--                 IDENTIFIER REFERENCED
PL6.E3A0      #001=KFE$ERP File=KFE$ERR_MSG.:E05TSI                              WED 07/30/97 00:21 Page:15
          MINI XREF LISTING

B$ALT.CODE
        97**DCL        97--REDEF      98--REDEF      98--REDEF
B$ALT.ERR
        98**DCL       192>>ASSIGN
B$ALT.ERR.ERR#
        99**DCL        99--REDEF
B$ALT.EVID
        98**DCL        98--REDEF      98--REDEF
B$TCB.ALT$
        93**DCL       192>>ASSIGN
B$TCB$
       105**DCL       192>>ASSIGN
BDERMSG
       196**LABEL     193--CALLALT
ERMSG
       106**DCL         9--PROC      189>>ASSIGN    197--ENTRY     198>>ASSIGN
ERRM
       108**DCL       190--ASSIGN    191<>CALL      200<>CALL
ERRM.ERRM2
       109**DCL       199--ASSIGN
ERRM.ERRM2.ERTXT
       111**DCL       189<<ASSIGN    198<<ASSIGN
ESIZE
       107**DCL       190<<ASSIGN    191<>CALL      199<<ASSIGN    200<>CALL
FPT_ERRMSG
       125**DCL       193<>CALL
FPT_ERRMSG.V
       129**DCL       125--DCLINIT
KFE$WMSG
       206**PROC      191--CALL      200--CALL
M IN PROCEDURE KFE$WMSG
       209**DCL       206--PROC      247--ASSIGN
PL6.E3A0      #001=KFE$ERP File=KFE$ERR_MSG.:E05TSI                              WED 07/30/97 00:21 Page:16
M$ERRMSG
        83**DCL-ENT   193--CALL
M$WRITE
        21**DCL-ENT   249--CALL
MBUF IN PROCEDURE KFE$WMSG
       208**DCL       232--DCLINIT   233--DCLINIT
MSZ IN PROCEDURE KFE$WMSG
       210**DCL       206--PROC      248>>ASSIGN
VLP_ERRCODE
       153**DCL       125--DCLINIT   192<<ASSIGN
WTEO IN PROCEDURE KFE$WMSG
       231**DCL       249<>CALL
WTEO.BUF_.BOUND IN PROCEDURE KFE$WMSG
       231**DCL       248<<ASSIGN
WTEO.BUF_.BUF$ IN PROCEDURE KFE$WMSG
       233**DCL       247<<ASSIGN
WTEO.STATION_ IN PROCEDURE KFE$WMSG
       233**DCL       233--REDEF
WTEO.V IN PROCEDURE KFE$WMSG
       234**DCL       231--DCLINIT
WTEO.V.DVBYTE.VFC# IN PROCEDURE KFE$WMSG
       240**DCL       240--REDEF
Y_ERRMSGBUF
       186**DCL       126--DCLINIT
