VERSION E05

PL6.E3A0      #001=KFW$WRT_MSG File=KFW$WRT_MSG.:E05TSI                          WED 07/30/97 00:24 Page:1
        1        1        /*M*      KFW$WRT_MSG - write a msg to the fecg        */
        2        2        /*T***********************************************************/
        3        3        /*T*                                                         */
        4        4        /*T* Copyright (c) Bull HN Information Systems Inc., 1997    */
        5        5        /*T*                                                         */
        6        6        /*T***********************************************************/
        7        7        /*X* CCE CRM 70 IND 5 ECU 10 THI 0 DCI 10 CSU 5 ENU 5 */
        8        8        /**/
        9        9        /************************************************************************/
       10       10        /**/
       11       11        /*P*      NAME:     KFW$WRT_MSG
       12       12                  PURPOSE: To write msgs to the fecg.
       13       13                  */
       14       14        /*D*      NAME: KFW$WRT_MSG
       15       15                  CALL:     Call KFW$WRT_MSG(P$ARS,P$STA,P$BUF)
       16       16                  INTERFACE:  This subroutine sets up a write fpt to
       17       17                            write to the front end comgroup and then
       18       18                            performs that write.
       19       19                  INPUT:    P$ARS - ubin word - byte count of msg
       20       20                            P$STA - char(8) - the 8 char station name to write to.
       21       21                            P$BUF -  char(140) - a buffer that contains the msg to be sent.
       22       22                  DESCRIPTION: The parameters are used to  update  the write
       23       23                            fpt and then an M4$WRITE is performed.
       24       24        */
       25       25        /*****************************************************************************/
       26       26        /**/
       27       27        KFW$WRT_MSG: PROC (P$ARS,P$STA,P$BUF);
       28       28        /**/
       29       29        /**/
       30       30        /*        INSERT ALL INCLUDE FILES HERE      */
       31       31        /**/
       32       32        %INCLUDE CP_6;
       33      113        %INCLUDE KF$SUBS;
       34      180        %INCLUDE KF$MSG_C;
       35      247        %INCLUDE KF_DAT_R;
       36      266        /**/
       37      267        /*        INSERT ALL MSG MACRO CALLS HERE    */
PL6.E3A0      #001=KFW$WRT_MSG File=KFW$WRT_MSG.:E05TSI                          WED 07/30/97 00:24 Page:2
       38      268        /**/
       39      269        %KF$MSG;
       40      274        /**/
       41      275        /*        INSERT ALL LOCAL VARIABLES HERE         */
       42      276        /**/
       43      277        /**/
       44      278    1   DCL P$ARS UBIN WORD;
       45      279    1   DCL P$STA CHAR(8);
       46      280    1   DCL P$BUF CHAR(140);
       47      281    1   DCL Y$STA CHAR(8) STATIC;
       48      282    1   DCL KFE$ERP ENTRY(1);
       49      283        /**/
       50      284        /*        INSERT ALL FPTS HERE               */
       51      285        /**/
       52      286        %FPT_WRITE (FPTN=WRFECGW,DCB=M$FE,STATION=VLP_STAFE,
       53      287                 WAIT=YES);
       54      318        %VLP_STATION (FPTN=VLP_STAFE);
       55      345        %EJECT;
PL6.E3A0      #001=KFW$WRT_MSG File=KFW$WRT_MSG.:E05TSI                          WED 07/30/97 00:24 Page:3
       56      346    1           VLP_STAFE.MSGTYP# = '$$$$';
       57      347        /*
       58      348                            Now set up the fpt.
       59      349        */
       60      350    1           VLP_STAFE.STATION# = P$STA;
       61      351        /**/
       62      352    1           WRFECGW.BUF_.BOUND = P$ARS-1;
       63      353    1           WRFECGW.BUF_.BUF$ = ADDR(P$BUF);
       64      354    1           CALL M$WRITE(WRFECGW) ALTRET(BDWR);
       65      355    1           RETURN;
       66      356        /**/
       67      357    1   BDWR:   CALL KFE$ERP('WRFE0001');
       68      358    1   END;

PL6.E3A0      #001=KFW$WRT_MSG File=KFW$WRT_MSG.:E05TSI                          WED 07/30/97 00:24 Page:4
--  Include file information  --

   KF_DAT_R.:E05TOU  cannot be made into a system file and is referenced.
   KF$MSG_C.:E05TOU  is referenced.
   KF$SUBS.:E05TOU  is referenced.
   CP_6.:E05TOU  cannot be made into a system file and is referenced.
   B$JIT_C.:E05TOU  was found in the system file and is never referenced.
   CP_6_C.:E05TOU  was found in the system file and is referenced.
      No diagnostics issued in procedure KFW$WRT_MSG.

   Procedure KFW$WRT_MSG requires 28 words for executable code.
   Procedure KFW$WRT_MSG requires 6 words of local(AUTO) storage.

    No errors detected in file KFW$WRT_MSG.:E05TSI    .

PL6.E3A0      #001=KFW$WRT_MSG File=KFW$WRT_MSG.:E05TSI                          WED 07/30/97 00:24 Page:5

 Object Unit name= KFW$WRT_MSG                                File name= KFW$WRT_MSG.:E05TOU
 UTS= JUL 30 '97 00:24:28.64 WED                              Compiler= PL-6/E31         Sev=      00
 SharedLib= :SHARED_SYSTEM                                    Alt SharedLib=


    ****  Control sections  ****

 Sect   Type Bound  Init  Size OctSiz  Section name(segment info)
    0   DCB   even  none     0      0  M$UC
    1   DCB   even  none     0      0  M$FE
    2   DCB   even  none     0      0  M$CS
    3   DCB   even  none     0      0  M$HLPF
    4   DCB   even  none     0      0  M$PROF
    5   DCB   even  none     0      0  M$NETCON
    6   Data  even  none    22     26  KFW$WRT_MSG
    7  RoData even  UTS      3      3  KFW$WRT_MSG
    8   Proc  even  none    28     34  KFW$WRT_MSG
    9  RoData even  none     1      1  KFW$WRT_MSG

    ****  Entry defs  ****

                              Check   Calling
                             calling  sequence
  Sect OctLoc Primary Altret sequence   type   Parms  Name
     8      0   yes            yes      Std        3  KFW$WRT_MSG

  ****  Entry refs  ****

         Check        Calling
        calling       sequence
Altret sequence SRef   type   Args  Name
         yes           Std       1 KFE$ERP
                       nStd      0 X66_AUTO_3
                       Std       0 B_CONSPOOL_D
                       nStd      0 X66_ARET
PL6.E3A0      #001=KFW$WRT_MSG File=KFW$WRT_MSG.:E05TSI                          WED 07/30/97 00:24 Page:6

  ****  Data refs  ****

  Flags:  r = read only, s = secondary
Flgs Name                             Flgs Name                             Flgs Name
     M$UC                                  M$FE                                  M$CS
     M$HLPF                                M$PROF                                M$NETCON
     B_VECTNIL

  ****  Segment refs  ****

  Flags:  r = read only, s = secondary
Flgs Name                             Flgs Name                             Flgs Name
     ISSID                                 NULLSID
PL6.E3A0      #001=KFW$WRT_MSG File=KFW$WRT_MSG.:E05TSI                          WED 07/30/97 00:24 Page:7


        1        1        /*M*      KFW$WRT_MSG - write a msg to the fecg        */
        2        2        /*T***********************************************************/
        3        3        /*T*                                                         */
        4        4        /*T* Copyright (c) Bull HN Information Systems Inc., 1997    */
        5        5        /*T*                                                         */
        6        6        /*T***********************************************************/
        7        7        /*X* CCE CRM 70 IND 5 ECU 10 THI 0 DCI 10 CSU 5 ENU 5 */
        8        8        /**/
        9        9        /************************************************************************/
       10       10        /**/
       11       11        /*P*      NAME:     KFW$WRT_MSG
       12       12                  PURPOSE: To write msgs to the fecg.
       13       13                  */
       14       14        /*D*      NAME: KFW$WRT_MSG
       15       15                  CALL:     Call KFW$WRT_MSG(P$ARS,P$STA,P$BUF)
       16       16                  INTERFACE:  This subroutine sets up a write fpt to
       17       17                            write to the front end comgroup and then
       18       18                            performs that write.
       19       19                  INPUT:    P$ARS - ubin word - byte count of msg
       20       20                            P$STA - char(8) - the 8 char station name to write to.
       21       21                            P$BUF -  char(140) - a buffer that contains the msg to be sent.
       22       22                  DESCRIPTION: The parameters are used to  update  the write
       23       23                            fpt and then an M4$WRITE is performed.
       24       24        */
       25       25        /*****************************************************************************/
       26       26        /**/
       27       27        KFW$WRT_MSG: PROC (P$ARS,P$STA,P$BUF);

     27  8 000000   000000 700200 xent  KFW$WRT_MSG  TSX0  ! X66_AUTO_3
         8 000001   000006 000003                    ZERO    6,3

       28       28        /**/
       29       29        /**/
       30       30        /*        INSERT ALL INCLUDE FILES HERE      */
       31       31        /**/
       32       32        %INCLUDE CP_6;
PL6.E3A0      #001=KFW$WRT_MSG File=KFW$WRT_MSG.:E05TSI                          WED 07/30/97 00:24 Page:8
       33      113        %INCLUDE KF$SUBS;
       34      180        %INCLUDE KF$MSG_C;
       35      247        %INCLUDE KF_DAT_R;
       36      266        /**/
       37      267        /*        INSERT ALL MSG MACRO CALLS HERE    */
       38      268        /**/
       39      269        %KF$MSG;
       40      274        /**/
       41      275        /*        INSERT ALL LOCAL VARIABLES HERE         */
       42      276        /**/
       43      277        /**/
       44      278    1   DCL P$ARS UBIN WORD;
       45      279    1   DCL P$STA CHAR(8);
       46      280    1   DCL P$BUF CHAR(140);
       47      281    1   DCL Y$STA CHAR(8) STATIC;
       48      282    1   DCL KFE$ERP ENTRY(1);
       49      283        /**/
       50      284        /*        INSERT ALL FPTS HERE               */
       51      285        /**/
       52      286        %FPT_WRITE (FPTN=WRFECGW,DCB=M$FE,STATION=VLP_STAFE,
       53      287                 WAIT=YES);
       54      318        %VLP_STATION (FPTN=VLP_STAFE);
       55      345        %EJECT;
PL6.E3A0      #001=KFW$WRT_MSG File=KFW$WRT_MSG.:E05TSI                          WED 07/30/97 00:24 Page:9
       56      346    1           VLP_STAFE.MSGTYP# = '$$$$';

    346  8 000002   000000 235000 7                  LDA     0
         8 000003   000035 236000 xsym               LDQ     B_VECTNIL+29
         8 000004   000020 757000 6                  STAQ    VLP_STAFE+2

       57      347        /*
       58      348                            Now set up the fpt.
       59      349        */
       60      350    1           VLP_STAFE.STATION# = P$STA;

    350  8 000005   200004 470500                    LDP0    @P$STA,,AUTO
         8 000006   040000 100500                    MLR     fill='040'O
         8 000007   000000 000010                    ADSC9   0,,PR0                   cn=0,n=8
         8 000010   000016 000010 6                  ADSC9   VLP_STAFE                cn=0,n=8

       61      351        /**/
       62      352    1           WRFECGW.BUF_.BOUND = P$ARS-1;

    352  8 000011   200003 471500                    LDP1    @P$ARS,,AUTO
         8 000012   100000 236100                    LDQ     0,,PR1
         8 000013   000001 136007                    SBLQ    1,DL
         8 000014   000020 736000                    QLS     16
         8 000015   000006 676000 6                  ERQ     WRFECGW+4
         8 000016   000034 376000 xsym               ANQ     B_VECTNIL+28
         8 000017   000006 656000 6                  ERSQ    WRFECGW+4

       63      353    1           WRFECGW.BUF_.BUF$ = ADDR(P$BUF);

    353  8 000020   200005 236100                    LDQ     @P$BUF,,AUTO
         8 000021   000007 756000 6                  STQ     WRFECGW+5

       64      354    1           CALL M$WRITE(WRFECGW) ALTRET(BDWR);

    354  8 000022   000002 630400 6                  EPPR0   WRFECGW
         8 000023   440001 713400                    CLIMB   alt,write
         8 000024   401400 401760                    pmme    nvectors=4
PL6.E3A0      #001=KFW$WRT_MSG File=KFW$WRT_MSG.:E05TSI                          WED 07/30/97 00:24 Page:10
         8 000025   000027 702000 8                  TSX2    BDWR

       65      355    1           RETURN;

    355  8 000026   000000 702200 xent               TSX2  ! X66_ARET

       66      356        /**/
       67      357    1   BDWR:   CALL KFE$ERP('WRFE0001');

    357  8 000027   000000 630400 9     BDWR         EPPR0   0
         8 000030   000017 631400 xsym               EPPR1   B_VECTNIL+15
         8 000031   000000 701000 xent               TSX1    KFE$ERP
         8 000032   000000 011000                    NOP     0

       68      358    1   END;

    358  8 000033   000000 702200 xent               TSX2  ! X66_ARET

PL6.E3A0      #001=KFW$WRT_MSG File=KFW$WRT_MSG.:E05TSI                          WED 07/30/97 00:24 Page:11
--  Include file information  --

   KF_DAT_R.:E05TOU  cannot be made into a system file and is referenced.
   KF$MSG_C.:E05TOU  is referenced.
   KF$SUBS.:E05TOU  is referenced.
   CP_6.:E05TOU  cannot be made into a system file and is referenced.
   B$JIT_C.:E05TOU  was found in the system file and is never referenced.
   CP_6_C.:E05TOU  was found in the system file and is referenced.
      No diagnostics issued in procedure KFW$WRT_MSG.
PL6.E3A0      #001=KFW$WRT_MSG File=KFW$WRT_MSG.:E05TSI                          WED 07/30/97 00:24 Page:12

 **** Variables and constants ****

  ****  Section 006  Data  KFW$WRT_MSG

  ****  Scalars and arrays  ****
OctLoc.c.b A Datatyp(siz) R M Lvl/name                 OctLoc.c.b A Datatyp(siz) R M Lvl/name

    16-0-0/w STRC(288)   r     1 VLP_STAFE                  2-0-0/d STRC(432)   r     1 WRFECGW

  ****  Auto variables  ****

  ****  Scalars and arrays  ****
OctLoc.c.b A Datatyp(siz) R M Lvl/name                 OctLoc.c.b A Datatyp(siz) R M Lvl/name

     3-0-0/w PTR         r     1 @P$ARS                     5-0-0/w PTR         r     1 @P$BUF
     4-0-0/w PTR         r     1 @P$STA                    *0-0-0/w UBIN        r     1 P$ARS
    *0-0-0/c CHAR(140)   r     1 P$BUF                     *0-0-0/c CHAR(8)     r     1 P$STA

  ****  BASED and DCB variables  ****

  ****  Scalars and arrays  ****
OctLoc.c.b A Datatyp(siz) R M Lvl/name                 OctLoc.c.b A Datatyp(siz) R M Lvl/name

     0-0-0N  NULL        r     1 M$FE


   Procedure KFW$WRT_MSG requires 28 words for executable code.
   Procedure KFW$WRT_MSG requires 6 words of local(AUTO) storage.

    No errors detected in file KFW$WRT_MSG.:E05TSI    .
PL6.E3A0      #001=KFW$WRT_MSG File=KFW$WRT_MSG.:E05TSI                          WED 07/30/97 00:24 Page:13
          *** CROSS REFERENCE LISTING ***
**     DENOTES     IDENTIFIER DEFINITION
<<                 IDENTIFIER'S VALUE SET
>>                 IDENTIFIER'S VALUE USED
<>                 IDENTIFIER SET AND/OR USED
--                 IDENTIFIER REFERENCED
PL6.E3A0      #001=KFW$WRT_MSG File=KFW$WRT_MSG.:E05TSI                          WED 07/30/97 00:24 Page:14
          MINI XREF LISTING

BDWR
       357**LABEL     354--CALLALT
KFE$ERP
       282**DCL-ENT   357--CALL
KF_UTBL.STATION
       260**DCL       260--REDEF
M$WRITE
        42**DCL-ENT   354--CALL
P$ARS
       278**DCL        27--PROC      352>>ASSIGN
P$BUF
       280**DCL        27--PROC      353--ASSIGN
P$STA
       279**DCL        27--PROC      350>>ASSIGN
VLP_STAFE
       330**DCL       306--DCLINIT
VLP_STAFE.MSGIDXT
       340**DCL       343--REDEF
VLP_STAFE.MSGTYP#
       334**DCL       346<<ASSIGN
VLP_STAFE.STATION#
       334**DCL       350<<ASSIGN
WRFECGW
       304**DCL       354<>CALL
WRFECGW.BUF_.BOUND
       304**DCL       352<<ASSIGN
WRFECGW.BUF_.BUF$
       306**DCL       353<<ASSIGN
WRFECGW.STATION_
       306**DCL       306--REDEF
WRFECGW.V
       307**DCL       304--DCLINIT
PL6.E3A0      #001=KFW$WRT_MSG File=KFW$WRT_MSG.:E05TSI                          WED 07/30/97 00:24 Page:15
WRFECGW.V.DVBYTE.VFC#
       313**DCL       313--REDEF
