VERSION E05

PL6.E3A0      #001=KF_DAT_D File=KF_DAT_D.:E05TSI                                WED 07/30/97 00:24 Page:1
        1        1        /*M*           KF_DAT_D - data area for frog      */
        2        2        /*T***********************************************************/
        3        3        /*T*                                                         */
        4        4        /*T* Copyright (c) Bull HN Information Systems Inc., 1997    */
        5        5        /*T*                                                         */
        6        6        /*T***********************************************************/
        7        7        /*X* CCE CRM 70 IND 5 ECU 10 THI 0 DCI 10 CSU 5 ENU 5 */
        8        8        KF_DAT_D: PROC NOAUTO;
        9        9        /**/
       10       10        /*! ! munger stuff       */
       11       11        %INCLUDE KF$MSG_SUBS;
       12       57        %INCLUDE KF$SUBS;
       13      124        %INCLUDE KF$MSG_C;
       14      191        /* munger stuff  ! R !   */
       15      192        /**/
       16      193    1   DCL 1 KF_EVMSG_QUEUE (0:50) STATIC SYMDEF,
       17      194    1         2 EVID UBIN WORD,
       18      195    1         2 SCOD UBIN WORD;
       19      196        /**/
       20      197    1   DCL KF_QINSERT UBIN WORD STATIC SYMDEF;
       21      198    1   DCL KF_QREMOVE UBIN WORD STATIC SYMDEF;
       22      199    1   DCL KF_FECG_READ BIT(1) STATIC SYMDEF;
       23      200    1   DCL KF_CSCG_READ BIT(1) STATIC SYMDEF;
       24      201    1   DCL KF_WAIT4SLUG BIT(1) STATIC SYMDEF;
       25      202    1   DCL KF_EVCOUNT  UBIN WORD STATIC SYMDEF;
       26      203        /**/
       27      204    1   DCL KF_RUN_FLAG UBIN WORD STATIC SYMDEF;
       28      205    1   DCL KF_SIBUF CHAR(80) STATIC SYMDEF;
       29      206    1   DCL KF_FECGBUF CHAR(600) STATIC SYMDEF; /*BUFFER FOR FECG READS     */
       30      207    1   DCL KF_FECG_OUTBUF CHAR(600) STATIC SYMDEF; /*BUFFER FOR FECG WRITES*/
       31      208    1   DCL KF_FECG_STA CHAR(8) STATIC SYMDEF; /* STOREAGE FOR CURRENT FECG STA*/
       32      209    1   DCL KF_FECG_MSGTYP CHAR(8) STATIC SYMDEF; /*STOREGE FOR CURRENT FECG MSGTYP*/
       33      210    1   DCL KF_USER_COUNT UBIN WORD STATIC SYMDEF;
       34      211        /**/
       35      212    1   DCL KF_CSCG_INBUF CHAR(1024) STATIC SYMDEF;
       36      213    1   DCL KF_CSKEYID  UBIN HALF STATIC SYMDEF;
       37      214        /**/
PL6.E3A0      #001=KF_DAT_D File=KF_DAT_D.:E05TSI                                WED 07/30/97 00:24 Page:2
       38      215    1   DCL M$FE DCB;
       39      216    1   DCL M$CS DCB;
       40      217    1   DCL M$HLPF DCB;
       41      218    1   DCL M$PROF DCB;
       42      219    1   DCL M$NETCON DCB;
       43      220        /**/
       44      221    1   DCL 1 KF_UTBL (0:%KF_UTBL_MAX##) STATIC SYMDEF,
       45      222    1         2 STATION CHAR(8) UNAL,
       46      223    1         2 STA REDEF STATION,
       47      224    1           3 ID CHAR(4) UNAL,
       48      225    1           3 NODID CHAR(4) UNAL,
       49      226    1         2 STATE UBIN(18) UNAL,  /*CURRENT STATE OF THIS USER ENTYR*/
       50      227    1         2 FLAGS,
       51      228    1           3 FEPCONSTART BIT(1) UNAL,      /*FEPCON IS STARTED         */
       52      229    1           3 KEYIN_IN_PROCESS BIT(1) UNAL, /*KEYIN BEING PROCESD FOR THIS FEP*/
       53      230    1           3 EXCLDCB BIT(1) UNAL, /* SOME DCB IS EXCLUSIVE USER OF THIS TERM */
       54      231    1           3 * BIT(15) UNAL,
       55      232    1         2 LFLAGS UBIN WORD,               /*FLAGS FROM CGAURD TABLE*/
       56      233    1         2 TDTYP UBIN(18) UNAL,            /*TRM OR DCB                */
       57      234    1         2 FEX UBIN(18) UNAL,              /*NODE # OF FEP IF TRM*/
       58      235    1         2 KEYIN_CODE UBIN(18) UNAL,       /*CODE OF CURRENT KEYIN*/
       59      236    1         2 FRGTYP UBIN(18) UNAL,
       60      237    1         2 DISC UBIN(18) UNAL,   /* DISCONNECTS THIS GUY CARES ABOUT   */
       61      238    1         2 DCBSTATION CHAR(8) UNAL; /* IF EXCLDCB SET, THIS IS THE STATION NAME */
       62      239        /**/
       63      240        /*             STATIC STRUCTURE FOR THE ERLOG
       64      241        */
       65      242        /**/
       66      243        /**/
       67      244    1   DCL 1 KF_NAKMSG STATIC SYMDEF,
       68      245    1         2 CODE UBIN(9) UNAL INIT(%KF_MSGC_NAK#),
       69      246    1         2 SUBC UBIN(9) UNAL INIT(0);
       70      247        /**/
       71      248    1   DCL 1 KF_ACKMSG STATIC SYMDEF,
       72      249    1         2 CODE UBIN(9) UNAL INIT(%KF_MSGC_ACK#),
       73      250    1         2 SUBC UBIN(9) UNAL INIT(0);
       74      251    1   DCL 1 KF_LOGBUF STATIC SYMDEF,
PL6.E3A0      #001=KF_DAT_D File=KF_DAT_D.:E05TSI                                WED 07/30/97 00:24 Page:3
       75      252    1         2 STA CHAR(8),
       76      253    1         2 READDATA CHAR(150);
       77      254        /**/
       78      255    1   DCL 1 KF_FLGS STATIC SYMDEF,
       79      256    1         2 MSGLOG BIT(1) UNAL,
       80      257    1         2 FEPTRACE BIT(1) UNAL, /*USED TO TRACE ALL MSGS THRU FROG*/
       81      258    1         2 KILLFROG BIT(1) UNAL; /*USED TO FLAG THAT A KILLFROG KEYIN WAS RECVD*/
       82      259        /**/
       83      260    1   DCL KF_MAX_FEP UBIN STATIC SYMDEF INIT(0);
       84      261    1   DCL 1 KF_FEP_FLAGS STATIC SYMDEF,
       85      262    1         2 BOOT(0:255) BIT(1) UNAL INIT('0'B*0),
       86      263    1         2 BOOTING(0:255) BIT(1) UNAL INIT('0'B*0);
       87      264    1   DCL KF_FEPS_BOOTING SBIN STATIC SYMDEF INIT(0);
       88      265    1   END KF_DAT_D;

PL6.E3A0      #001=KF_DAT_D File=KF_DAT_D.:E05TSI                                WED 07/30/97 00:24 Page:4
--  Include file information  --

   KF$MSG_C.:E05TOU  is referenced.
   KF$SUBS.:E05TOU  is referenced.
   KF$MSG_SUBS.:E05TOU  is referenced.
      No diagnostics issued in procedure KF_DAT_D.

   No code generated for procedure KF_DAT_D .
   Procedure KF_DAT_D is declared NOAUTO and requires 942 words of local(STATIC) storage.

    No errors detected in file KF_DAT_D.:E05TSI    .

PL6.E3A0      #001=KF_DAT_D File=KF_DAT_D.:E05TSI                                WED 07/30/97 00:24 Page:5

 Object Unit name= KF_DAT_D                                   File name= KF_DAT_D.:E05TOU
 UTS= JUL 30 '97 00:24:52.36 WED                              Compiler= PL-6/E31         Sev=      00
 SharedLib= :SHARED_SYSTEM                                    Alt SharedLib=


    ****  Control sections  ****

 Sect   Type Bound  Init  Size OctSiz  Section name(segment info)
    0   Data  even  none   942   1656  KF_DAT_D
    1   DCB   even  none     0      0  M$FE
    2   DCB   even  none     0      0  M$CS
    3   DCB   even  none     0      0  M$HLPF
    4   DCB   even  none     0      0  M$PROF
    5   DCB   even  none     0      0  M$NETCON
    6   Proc  even  none     0      0  KF_DAT_D

    ****  Entry defs  ****

                              Check   Calling
                             calling  sequence
  Sect OctLoc Primary Altret sequence   type   Parms  Name
     6      0   yes            yes     ~proc       0  KF_DAT_D
PL6.E3A0      #001=KF_DAT_D File=KF_DAT_D.:E05TSI                                WED 07/30/97 00:24 Page:6

  ****  Data defs  ****

 Sect OctLoc  Name                           Sect OctLoc  Name
    0      1  KF_EVMSG_QUEUE                     0    147  KF_QINSERT
    0    150  KF_QREMOVE                         0    151  KF_FECG_READ
    0    152  KF_CSCG_READ                       0    153  KF_WAIT4SLUG
    0    154  KF_EVCOUNT                         0    155  KF_RUN_FLAG
    0    156  KF_SIBUF                           0    202  KF_FECGBUF
    0    430  KF_FECG_OUTBUF                     0    656  KF_FECG_STA
    0    660  KF_FECG_MSGTYP                     0    662  KF_USER_COUNT
    0    663  KF_CSCG_INBUF                      0   1263  KF_CSKEYID
    0   1264  KF_UTBL                            0   1561  KF_NAKMSG
    0   1562  KF_ACKMSG                          0   1563  KF_LOGBUF
    0   1633  KF_FLGS                            0   1634  KF_MAX_FEP
    0   1635  KF_FEP_FLAGS                       0   1654  KF_FEPS_BOOTING

  ****  Data refs  ****

  Flags:  r = read only, s = secondary
Flgs Name                             Flgs Name                             Flgs Name
     M$FE                                  M$CS                                  M$HLPF
     M$PROF                                M$NETCON
PL6.E3A0      #001=KF_DAT_D File=KF_DAT_D.:E05TSI                                WED 07/30/97 00:24 Page:7

        1        1        /*M*           KF_DAT_D - data area for frog      */
        2        2        /*T***********************************************************/
        3        3        /*T*                                                         */
        4        4        /*T* Copyright (c) Bull HN Information Systems Inc., 1997    */
        5        5        /*T*                                                         */
        6        6        /*T***********************************************************/
        7        7        /*X* CCE CRM 70 IND 5 ECU 10 THI 0 DCI 10 CSU 5 ENU 5 */
        8        8        KF_DAT_D: PROC NOAUTO;
        9        9        /**/
       10       10        /*! ! munger stuff       */
       11       11        %INCLUDE KF$MSG_SUBS;
       12       57        %INCLUDE KF$SUBS;
       13      124        %INCLUDE KF$MSG_C;
       14      191        /* munger stuff  ! R !   */
       15      192        /**/
       16      193    1   DCL 1 KF_EVMSG_QUEUE (0:50) STATIC SYMDEF,
       17      194    1         2 EVID UBIN WORD,
       18      195    1         2 SCOD UBIN WORD;
       19      196        /**/
       20      197    1   DCL KF_QINSERT UBIN WORD STATIC SYMDEF;
       21      198    1   DCL KF_QREMOVE UBIN WORD STATIC SYMDEF;
       22      199    1   DCL KF_FECG_READ BIT(1) STATIC SYMDEF;
       23      200    1   DCL KF_CSCG_READ BIT(1) STATIC SYMDEF;
       24      201    1   DCL KF_WAIT4SLUG BIT(1) STATIC SYMDEF;
       25      202    1   DCL KF_EVCOUNT  UBIN WORD STATIC SYMDEF;
       26      203        /**/
       27      204    1   DCL KF_RUN_FLAG UBIN WORD STATIC SYMDEF;
       28      205    1   DCL KF_SIBUF CHAR(80) STATIC SYMDEF;
       29      206    1   DCL KF_FECGBUF CHAR(600) STATIC SYMDEF; /*BUFFER FOR FECG READS     */
       30      207    1   DCL KF_FECG_OUTBUF CHAR(600) STATIC SYMDEF; /*BUFFER FOR FECG WRITES*/
       31      208    1   DCL KF_FECG_STA CHAR(8) STATIC SYMDEF; /* STOREAGE FOR CURRENT FECG STA*/
       32      209    1   DCL KF_FECG_MSGTYP CHAR(8) STATIC SYMDEF; /*STOREGE FOR CURRENT FECG MSGTYP*/
       33      210    1   DCL KF_USER_COUNT UBIN WORD STATIC SYMDEF;
       34      211        /**/
       35      212    1   DCL KF_CSCG_INBUF CHAR(1024) STATIC SYMDEF;
       36      213    1   DCL KF_CSKEYID  UBIN HALF STATIC SYMDEF;
       37      214        /**/
PL6.E3A0      #001=KF_DAT_D File=KF_DAT_D.:E05TSI                                WED 07/30/97 00:24 Page:8
       38      215    1   DCL M$FE DCB;
       39      216    1   DCL M$CS DCB;
       40      217    1   DCL M$HLPF DCB;
       41      218    1   DCL M$PROF DCB;
       42      219    1   DCL M$NETCON DCB;
       43      220        /**/
       44      221    1   DCL 1 KF_UTBL (0:%KF_UTBL_MAX##) STATIC SYMDEF,
       45      222    1         2 STATION CHAR(8) UNAL,
       46      223    1         2 STA REDEF STATION,
       47      224    1           3 ID CHAR(4) UNAL,
       48      225    1           3 NODID CHAR(4) UNAL,
       49      226    1         2 STATE UBIN(18) UNAL,  /*CURRENT STATE OF THIS USER ENTYR*/
       50      227    1         2 FLAGS,
       51      228    1           3 FEPCONSTART BIT(1) UNAL,      /*FEPCON IS STARTED         */
       52      229    1           3 KEYIN_IN_PROCESS BIT(1) UNAL, /*KEYIN BEING PROCESD FOR THIS FEP*/
       53      230    1           3 EXCLDCB BIT(1) UNAL, /* SOME DCB IS EXCLUSIVE USER OF THIS TERM */
       54      231    1           3 * BIT(15) UNAL,
       55      232    1         2 LFLAGS UBIN WORD,               /*FLAGS FROM CGAURD TABLE*/
       56      233    1         2 TDTYP UBIN(18) UNAL,            /*TRM OR DCB                */
       57      234    1         2 FEX UBIN(18) UNAL,              /*NODE # OF FEP IF TRM*/
       58      235    1         2 KEYIN_CODE UBIN(18) UNAL,       /*CODE OF CURRENT KEYIN*/
       59      236    1         2 FRGTYP UBIN(18) UNAL,
       60      237    1         2 DISC UBIN(18) UNAL,   /* DISCONNECTS THIS GUY CARES ABOUT   */
       61      238    1         2 DCBSTATION CHAR(8) UNAL; /* IF EXCLDCB SET, THIS IS THE STATION NAME */
       62      239        /**/
       63      240        /*             STATIC STRUCTURE FOR THE ERLOG
       64      241        */
       65      242        /**/
       66      243        /**/
       67      244    1   DCL 1 KF_NAKMSG STATIC SYMDEF,
       68      245    1         2 CODE UBIN(9) UNAL INIT(%KF_MSGC_NAK#),
       69      246    1         2 SUBC UBIN(9) UNAL INIT(0);
       70      247        /**/
       71      248    1   DCL 1 KF_ACKMSG STATIC SYMDEF,
       72      249    1         2 CODE UBIN(9) UNAL INIT(%KF_MSGC_ACK#),
       73      250    1         2 SUBC UBIN(9) UNAL INIT(0);
       74      251    1   DCL 1 KF_LOGBUF STATIC SYMDEF,
PL6.E3A0      #001=KF_DAT_D File=KF_DAT_D.:E05TSI                                WED 07/30/97 00:24 Page:9
       75      252    1         2 STA CHAR(8),
       76      253    1         2 READDATA CHAR(150);
       77      254        /**/
       78      255    1   DCL 1 KF_FLGS STATIC SYMDEF,
       79      256    1         2 MSGLOG BIT(1) UNAL,
       80      257    1         2 FEPTRACE BIT(1) UNAL, /*USED TO TRACE ALL MSGS THRU FROG*/
       81      258    1         2 KILLFROG BIT(1) UNAL; /*USED TO FLAG THAT A KILLFROG KEYIN WAS RECVD*/
       82      259        /**/
       83      260    1   DCL KF_MAX_FEP UBIN STATIC SYMDEF INIT(0);
       84      261    1   DCL 1 KF_FEP_FLAGS STATIC SYMDEF,
       85      262    1         2 BOOT(0:255) BIT(1) UNAL INIT('0'B*0),
       86      263    1         2 BOOTING(0:255) BIT(1) UNAL INIT('0'B*0);
       87      264    1   DCL KF_FEPS_BOOTING SBIN STATIC SYMDEF INIT(0);
       88      265    1   END KF_DAT_D;

PL6.E3A0      #001=KF_DAT_D File=KF_DAT_D.:E05TSI                                WED 07/30/97 00:24 Page:10
--  Include file information  --

   KF$MSG_C.:E05TOU  is referenced.
   KF$SUBS.:E05TOU  is referenced.
   KF$MSG_SUBS.:E05TOU  is referenced.
      No diagnostics issued in procedure KF_DAT_D.
PL6.E3A0      #001=KF_DAT_D File=KF_DAT_D.:E05TSI                                WED 07/30/97 00:24 Page:11

 **** Variables and constants ****


   No code generated for procedure KF_DAT_D .
   Procedure KF_DAT_D is declared NOAUTO and requires 942 words of local(STATIC) storage.

    No errors detected in file KF_DAT_D.:E05TSI    .
PL6.E3A0      #001=KF_DAT_D File=KF_DAT_D.:E05TSI                                WED 07/30/97 00:24 Page:12
          *** CROSS REFERENCE LISTING ***
**     DENOTES     IDENTIFIER DEFINITION
<<                 IDENTIFIER'S VALUE SET
>>                 IDENTIFIER'S VALUE USED
<>                 IDENTIFIER SET AND/OR USED
--                 IDENTIFIER REFERENCED
PL6.E3A0      #001=KF_DAT_D File=KF_DAT_D.:E05TSI                                WED 07/30/97 00:24 Page:13
          MINI XREF LISTING

KF_UTBL.STATION
       222**DCL       223--REDEF
