PL6.E3A0      #004=KHA$DVCADM File=KHA$ADMIN.:E05TSI                             WED 07/30/97 00:26 Page:142
      915        1        /*T***********************************************************/
      916        2        /*T*                                                         */
      917        3        /*T* Copyright (c) Bull HN Information Systems Inc., 1997    */
      918        4        /*T*                                                         */
      919        5        /*T***********************************************************/
      920        6        KHA$DVCADM: PROC (OPERATION,ERROR,TERMLO,TERMHI,DATAVEC,NORETRAN) ALTRET;
      921        7
      922        8        /*F* NAME: KHA$DVCADM - Change Channel State
      923        9
      924       10        The library device administration routine, KHA$DVCADM, maintains
      925       11        KH$CHN.STT which contains a value that reflects the state of a channel.
      926       12        This routine may be called by the library administrative routine,
      927       13        KHA$ADMIN, or by user handler routines.  The KHA$DVCADM routine may in turn
      928       14        call the user handler administrative point when necessary to
      929       15        complete the state transition.
      930       16
      931       17        The following is a table of the state transitions and the functions
      932       18        that are done:
      933       19
      934       20        .fif
      935       21        }Operation: Indicates what function is being requested of KHA$DVCADM
      936       22        }           for this channel.  The value used for operation is
      937       23        }           from the KHA_FNC_E include file and is of the form
      938       24        }           KHA_FNC_operation.  See KHA_FNC_E for more detail.
      939       25        }
      940       26        }Caller:   Indicates who originated the state transition request.
      941       27        }
      942       28        }          s(system) - refers to NODEADMN, SLUG(KEYIN,STATS or NETCON).
      943       29        }          h         - refers to the handler.
      944       30        }
      945       31        }Flags:    Indicates which channel table flags must be on for the requested
      946       32        }          state transition.  See KH$CHN.flag for more detail.
      947       33        }
      948       34        }Handler function:
      949       35        }          Indicates the value that will be supplied in KH$ADMIT_FPT.FNC
      950       36        }          when the handler is called at its administrative point to
      951       37        }          complete the operation.  This value is from the KHA_FNC_E
PL6.E3A0      #004=KHA$DVCADM File=KHA$ADMIN.:E05TSI                             WED 07/30/97 00:26 Page:143
      952       38        }          include file and is of the form KHA_FNC_function.  See
      953       39        }          KHA_FNC_E for more detail.
      954       40        }
      955       41        }          If a handler function is not specified the handler's
      956       42        }          administrative entry will not be called.
      957       43        }
      958       44        }State:    States are defined in KH$CHN.STT.
      959       45        }
      960       46        .bbk
      961       47        }Operation        Caller  Old state  New state       Flags      Hndlr function
      962       48        }---------        ------  ---------  ---------     -----------  --------------
      963       49        }ENABLE           s or h   enable      enable                    ENABLE
      964       50        }                          disable     enable        ~DED        ENABLE
      965       51        }                          bsydsbpnd   busy                      ENABLE
      966       52        }                          uninit      uninit         DED
      967       53        }                          uninit      enable                    ENABLE
      968       54        }
      969       55        .bek
      970       56        }DISABLE          s or h   disable     disable
      971       57        }                          enable      disable                   DISABLE
      972       58        }                          busy        bsydsbpnd                 DISABLE
      973       59        }                          bsydsbpnd   bsydsbpnd
      974       60        }                          lpp_enable  disable                   DISABLE
      975       61        }                          lpp_busy    lpp_bsydsbpnd
      976       62        }                          lpp_bsydsbpnd lpp_bsydsbpnd
      977       63        }
      978       64        }KILL             s or h   enable      disable                   DISABLE
      979       65        }                          busy        bsydsbpnd                 KILL
      980       66        }                          bsydsbpnd   bsydsbpnd                 KILL
      981       67        }                          lpp_enable  disable                   DISABLE
      982       68        }                          lpp_busy    bsydsbpnd                 KILL
      983       69        }                          lpp_bsydsbpnd bsydsbpnd               KILL
      984       70        }                          disable     disable        DED
      985       71        }
      986       72        }PARTITION        s        enable      partition                 KILL
      987       73        }                          disable     partition                 KILL
      988       74        }                          uninit      partition                 KILL
PL6.E3A0      #004=KHA$DVCADM File=KHA$ADMIN.:E05TSI                             WED 07/30/97 00:26 Page:144
      989       75        }
      990       76        }RETURN           s        partition   uninit
      991       77        }
      992       78        }DISCONNECT_EVT * h        busy        enable         REENB
      993       79        }                          busy        disable                   DISABLE
      994       80        }                          bsydsbpnd   disable                   DISABLE
      995       81        }
      996       82        }DISCONNECT_RQS   s or h   busy        busy                   DISCONNECT_RQS
      997       83        }                          bsydsbpnd   bsydsbpnd              DISCONNECT_RQS
      998       84        }                          lpp_busy    lpp_busy               DISCONNECT_RQS
      999       85        }                          lpp_bsydsbpnd lpp_bsydsbpnd        DISCONNECT_RQS
     1000       86        }
     1001       87        }CONNECT *        h        enable      busy
     1002       88        }
     1003       89        }INTDVC           s        uninit      enable         ENB        ENABLE
     1004       90        }                          uninit      uninit         DED        DISABLE
     1005       91        }                          partition   partition
     1006       92        }                          uninit      disable        ERR        DISABLE
     1007       93        }
     1008       94        }CNFG             s        all         same as old               CNFG
     1009       95        }
     1010       96        }RQSLINPRO        h        enable      lpp_enable
     1011       97        }                          busy        lpp_busy
     1012       98        }                          bsydsbpnd   lpp_bsydsbpnd
     1013       99        }
     1014      100        }BLDLINPRO        s        lpp_enable  enable
     1015      101        }                          lpp_busy    busy
     1016      102        }                          lpp_bsydspnd bsydsbpnd
     1017      103        }
     1018      104        }SGNRJC           s        lpp_enable  enable                    SGNRJC
     1019      105        }                          lpp_busy     busy                     SGNRJC
     1020      106        }                          lpp_bsydspnd bsydsbpnd                SGNRJC
     1021      107        }
     1022      108        }CNCRQSLINPRO     h        lpp_enable  enable
     1023      109        }                          lpp_busy    busy
     1024      110        }                          lpp_bsydspnd bsydsbpnd
     1025      111        }
PL6.E3A0      #004=KHA$DVCADM File=KHA$ADMIN.:E05TSI                             WED 07/30/97 00:26 Page:145
     1026      112        }DVCERR           h        all         same as old
     1027      113        }
     1028      114        }DVCERRRSP        s        all         same as old               DVCERRRSP
     1029      115        }
     1030      116        }HOSTDOWN         s        enable      disable        DSBHSTDWN  DISABLE
     1031      117        }                          enable      disable        KLLHSTDWN  KILL
     1032      118        }                          busy        bsydsbpnd      DSBHSTDWN
     1033      119        }                          busy        bsydsbpnd      KLLHSTDWN  KILL
     1034      120        }                          lpp_enb     disable        KLLHSTDWN  KILL
     1035      121        }                          lpp_bsy     bsydsbpnd      KLLHSTDWN  KILL
     1036      122        }                          lpp_bsydsbpnd bsydsbpnd    KLLHSTDWN  KILL
     1037      123        }                          lpp_bsy     bsydsbpnd      DSBHSTDWN  DISABLE
     1038      124        }                          lpp_enb     disable        DSBHSTDWN  DISABLE
     1039      125        }
     1040      126        }HOSTUP           s        disable     enable         ENBHSTUP   ENABLE
     1041      127        }                          bsydsbpnd   busy           ENBHSTUP
     1042      128        }
     1043      129        }ACTIVE *         h        all         same as old
     1044      130        }
     1045      131        }NOTACTIVE *      h        all         same as old
     1046      132        }
     1047      133        }        * sends administrative event to host.
     1048      134
     1049      135
     1050      136        .fin
     1051      137
     1052      138        Any requested operation which does not have a transition function
     1053      139        defined will result in an illegal state transition error and
     1054      140        the alternate return will be taken.
     1055      141
     1056      142        The form of this call is:
     1057      143
     1058      144          CALL KHA$DVCADM (operation,error,term_low,term_hi,datavec,noretran) ALTRET(label);
     1059      145
     1060      146        where:
     1061      147        */
     1062      148        /*K* operation - UBIN(16).
PL6.E3A0      #004=KHA$DVCADM File=KHA$ADMIN.:E05TSI                             WED 07/30/97 00:26 Page:146
     1063      149        contains a value that indicates what function
     1064      150        is to be performed.  Please refer to the description of KHA_FNC_E.
     1065      151        */
     1066      152
     1067      153        /*K* error - is where an error code will be returned
     1068      154        if the alternate return is taken.  This parameter is
     1069      155        in VLP_ERRCODE format.
     1070      156        The error codes are in the CP6 error message file, :ERRMSG.
     1071      157        */
     1072      158
     1073      159        /*K* term_low - a B$TERMINAL_ID structure that defines the
     1074      160        first item to be affected by this operation.
     1075      161        */
     1076      162
     1077      163        /*K* term_hi - a B$TERMINAL_ID structure that defines the
     1078      164        last item to be affected by this operation.
     1079      165        */
     1080      166
     1081      167        /*K* noretran - if specified, indicates that the caller does
     1082      168        not want the KHA$DVCADM routine to re-transmit any message
     1083      169        if any usage of M$WRITE fails.
     1084      170        */
     1085      171
     1086      172        /*K* datavec - is a vector to optional data:
     1087      173
     1088      174        .bbk
     1089      175        .fif
     1090      176                   operation            datavec structure
     1091      177                   --------             -----------------
     1092      178                   KHA_FNC_DVCERR       KL_KEYMES from file KL_MACRO_C
     1093      179                   KHA_FNC_RQSLINPRO    CHAR(255) TEXT signon string
     1094      180        .fin
     1095      181        .bek
     1096      182        */
     1097      183        /* Includes */
     1098      184        %INCLUDE LCP_6;
     1099     4463        %INCLUDE CP_6_SUBS;
PL6.E3A0      #004=KHA$DVCADM File=KHA$ADMIN.:E05TSI                             WED 07/30/97 00:26 Page:147
     1100     5003        %INCLUDE KH$CHN;
     1101     5125        %INCLUDE KH_CHN;
     1102     5165        %INCLUDE KHA_FNC_E;
     1103     5265        %INCLUDE KL_CONTROL_C;
     1104     5645        %INCLUDE KL_AFCN_C;
     1105     5746        %INCLUDE KL_MACRO_C;
     1106     9098        %INCLUDE KH_MACRO_C;
     1107     9841        %INCLUDE KHC_MAC_C;
     1108     9882        %INCLUDE B_ERRORS_C;
     1109    11009
     1110    11010        /* Parameters */
     1111    11011    1   DCL OPERATION UBIN;
     1112    11012        %VLP_ERRCODE (FPTN=ERROR,STCLASS="");
     1113    11058        %B$TERMINAL_ID (FPTN=TERMLO,STCLASS=PARAM,ALGN=ALIGNED);
     1114    11087        %B$TERMINAL_ID (FPTN=TERMHI,STCLASS=PARAM,ALGN=ALIGNED);
     1115    11116    1   DCL DATAVEC VECTOR;
     1116    11117    1   DCL NORETRAN UBIN;
     1117    11118
     1118    11119        /* Entry DCLs */
     1119    11120    1   DCL KHA$GET_CTX_PTR ENTRY(2) ALTRET;
     1120    11121    1   DCL KHA$CHK_TRM_RNG ENTRY(2) ALTRET;
     1121    11122    1   DCL KHA$UPD_CHN ENTRY(2);
     1122    11123    1   DCL KHA$BLDLINPRO ENTRY(2) ALTRET;
     1123    11124    1   DCL KHA$SETCLK ENTRY(1) ALTRET;
     1124    11125        %INHIBIT_DCLS;
     1125    11137
     1126    11138        /* Equates */
     1127    11139        /* The Following equates are for the flags in the CHN table */
     1128    11140        %EQU Y#NON = 0;
     1129    11141        %EQU Y#DED = 1;
     1130    11142        %EQU Y#ERR = 2;
     1131    11143        %EQU Y#ENB = 3;
     1132    11144        %EQU Y#REENB = 4;
     1133    11145        %EQU Y#CTR = 5;
     1134    11146        %EQU Y#NOTDED = 6;
     1135    11147        %EQU Y#KLLHSTDWN = 7;
     1136    11148        %EQU Y#DSBHSTDWN = 8;
PL6.E3A0      #004=KHA$DVCADM File=KHA$ADMIN.:E05TSI                             WED 07/30/97 00:26 Page:148
     1137    11149        %EQU Y#ENBHSTUP = 9;
     1138    11150
     1139    11151        /* The following equates are for the SOP (special operation) */
     1140    11152        %EQU Y#SOP_NON = 0;
     1141    11153        %EQU Y#SOP_INTCTR = 1;
     1142    11154        %EQU Y#SOP_ENB = 2;
     1143    11155        %EQU Y#SOP_PRT = 3;
     1144    11156        %EQU Y#SOP_UPDCHN = 4;
     1145    11157        %EQU Y#SOP_RQSLINPRO = 5;
     1146    11158        %EQU Y#SOP_BLDLINPRO = 6;
     1147    11159        %EQU Y#SOP_DVCERR = 7;
     1148    11160        %EQU Y#SOP_DVCERRRSP = 8;
     1149    11161        %EQU Y#SOP_SETENBHSTUP = 9;
     1150    11162        %EQU Y#SOP_CLRENBHSTUP = 10;
     1151    11163        %EQU Y#SOP_SNDADM = 11;
     1152    11164        %EQU Y#SOP_RSTDED = 13;
     1153    11165
     1154    11166        %MACRO TRANS (FPTN=X,
     1155    11167                       NEW(UNINT=%KH#CHN_STT_UN_INT,
     1156    11168                                BSY=%KH#CHN_STT_BSY,
     1157    11169                                BSYDSBPND=%KH#CHN_STT_BSYDSBPND,
     1158    11170                                BSYPRTPND=%KH#CHN_STT_BSYPRTPND,
     1159    11171                                DSB=%KH#CHN_STT_DSB,
     1160    11172                                ENB=%KH#CHN_STT_ENB,
     1161    11173                                LINPROPND_ENB=%KH#CHN_STT_LINPROPND_ENB,
     1162    11174                                LINPROPND_BSY=%KH#CHN_STT_LINPROPND_BSY,
     1163    11175                                LINPROPND_BSYDSBPND=%KH#CHN_STT_LINPROPND_BSYDSBPND,
     1164    11176                                PRT=%KH#CHN_STT_PRT)=-1,
     1165    11177                       OLD(UNINT=%KH#CHN_STT_UN_INT,
     1166    11178                                BSY=%KH#CHN_STT_BSY,
     1167    11179                                BSYDSBPND=%KH#CHN_STT_BSYDSBPND,
     1168    11180                                BSYPRTPND=%KH#CHN_STT_BSYPRTPND,
     1169    11181                                DSB=%KH#CHN_STT_DSB,
     1170    11182                                ENB=%KH#CHN_STT_ENB,
     1171    11183                                LINPROPND_ENB=%KH#CHN_STT_LINPROPND_ENB,
     1172    11184                                LINPROPND_BSY=%KH#CHN_STT_LINPROPND_BSY,
     1173    11185                                LINPROPND_BSYDSBPND=%KH#CHN_STT_LINPROPND_BSYDSBPND,
PL6.E3A0      #004=KHA$DVCADM File=KHA$ADMIN.:E05TSI                             WED 07/30/97 00:26 Page:149
     1174    11186                                PRT=%KH#CHN_STT_PRT)=-1,
     1175    11187                       HOP=%KHA_FNC_NON,
     1176    11188                       BSOP=%Y#SOP_NON,
     1177    11189                       ASOP=%Y#SOP_NON,
     1178    11190             FLGS(DED=%Y#DED,ERR=%Y#ERR,ENB=%Y#ENB,REENB=%Y#REENB,CTR=%Y#CTR,NOTDED=
             11190                 %Y#NOTDED,
     1179    11191                  KLLHSTDWN=%Y#KLLHSTDWN,DSBHSTDWN=%Y#DSBHSTDWN,ENBHSTUP=%Y#ENBHSTUP)=%Y#NON
             11191                      ,
     1180    11192                  STCLASS=CONSTANT,
     1181    11193                  LVL=2,
     1182    11194                  LAST(YES=1,NO=0)=0);
     1183    11195
     1184    11196        %LSET LISTDIR = '0'B;
     1185    11197        %LSET LISTEXP = '1'B;
     1186    11198        %LSET LISTCOM = '0'B;
     1187    11199        %LSET LISTSUB = '1'B;
     1188    11200        %LSET STR = SUBSTR(CONCAT(TEXTCHAR(STCLASS), '   '), 0, 3);
     1189    11201        %IF (STR = 'STA') OR (STR = 'CON') OR (STR = 'EXT');
     1190    11202        %LSET INIT = CHARTEXT(' INIT');
     1191    11203        %LSET ENIT = CHARTEXT('');
     1192    11204        %ELSE;
     1193    11205        %LSET INIT = CHARTEXT('/*');
     1194    11206        %LSET ENIT = CHARTEXT('*/');
     1195    11207        %ENDIF;
     1196    11208
     1197    11209        %IF LVL=1;
     1198    11210        DCL 1 FPTN STCLASS ALIGNED,
     1199    11211
     1200    11212                 2 %CHARTEXT('OLD ') SBIN BYTE CALIGNED %INIT(OLD)%ENIT,
     1201    11213                 2 %CHARTEXT('NEW ') SBIN BYTE CALIGNED %INIT(NEW)%ENIT,
     1202    11214                 2 %CHARTEXT('HOP ') UBIN BYTE CALIGNED %INIT(HOP)%ENIT,
     1203    11215                 2 %CHARTEXT('BSOP ') UBIN BYTE CALIGNED %INIT(BSOP)%ENIT,
     1204    11216                 2 %CHARTEXT('ASOP ') UBIN BYTE CALIGNED %INIT(ASOP)%ENIT,
     1205    11217                 2 %CHARTEXT('FLGS ') UBIN BYTE CALIGNED %INIT(FLGS)%ENIT,
     1206    11218                 2 * UBIN BYTE CALIGNED %INIT(0*0)%ENIT,
     1207    11219        %IF LAST=0;
     1208    11220                 2 %CHARTEXT('LAST ') BIT(1) %INIT('0'B)%ENIT,
PL6.E3A0      #004=KHA$DVCADM File=KHA$ADMIN.:E05TSI                             WED 07/30/97 00:26 Page:150
     1209    11221        %ELSE;
     1210    11222                 2 %CHARTEXT('LAST ') BIT(1) %INIT('1'B)%ENIT;
     1211    11223        %ENDIF;
     1212    11224        %ELSE;
     1213    11225                 2 * SBIN BYTE CALIGNED %INIT(OLD)%ENIT,
     1214    11226                 2 * SBIN BYTE CALIGNED %INIT(NEW)%ENIT,
     1215    11227                 2 * UBIN BYTE CALIGNED %INIT(HOP)%ENIT,
     1216    11228                 2 * UBIN BYTE CALIGNED %INIT(BSOP)%ENIT,
     1217    11229                 2 * UBIN BYTE CALIGNED %INIT(ASOP)%ENIT,
     1218    11230                 2 * UBIN BYTE CALIGNED %INIT(FLGS)%ENIT,
     1219    11231                 2 * UBIN BYTE CALIGNED %INIT(0*0)%ENIT,
     1220    11232        %IF LAST=0;
     1221    11233                 2 * BIT(1) %INIT('0'B)%ENIT,
     1222    11234        %ELSE;
     1223    11235                 2 * BIT(1) %INIT('1'B)%ENIT;
     1224    11236        %ENDIF;
     1225    11237        %ENDIF;
     1226    11238
     1227    11239        %MEND;
     1228    11240
     1229    11241        /* State transition table */
     1230    11242
     1231    11243        /*
     1232    11244             EVENT: DISABLE
     1233    11245         */
     1234    11246    1   DCL 1 TRAN_DISABLE CONSTANT,
     1235    11247             %TRANS (OLD=DSB,NEW=DSB);
     1236    11289             %TRANS (OLD=ENB,NEW=DSB,HOP=%KHA_FNC_DISABLE);
     1237    11331             %TRANS (OLD=BSY,NEW=BSYDSBPND,HOP=%KHA_FNC_DISABLE);
     1238    11373             %TRANS (OLD=BSYDSBPND,NEW=BSYDSBPND);
     1239    11415             %TRANS (OLD=LINPROPND_ENB,NEW=DSB,HOP=%KHA_FNC_DISABLE);
     1240    11457             %TRANS (OLD=LINPROPND_BSY,NEW=LINPROPND_BSYDSBPND);
     1241    11499             %TRANS (OLD=LINPROPND_BSYDSBPND,NEW=LINPROPND_BSYDSBPND);
     1242    11541             %TRANS (LAST=YES);
     1243    11583
     1244    11584        /*
     1245    11585             EVENT: ENABLE
PL6.E3A0      #004=KHA$DVCADM File=KHA$ADMIN.:E05TSI                             WED 07/30/97 00:26 Page:151
     1246    11586         */
     1247    11587    1   DCL 1 TRAN_ENABLE CONSTANT,
     1248    11588             %TRANS (OLD=ENB,NEW=ENB,HOP=%KHA_FNC_ENABLE,ASOP=%Y#SOP_ENB);
     1249    11630             %TRANS (OLD=DSB,NEW=ENB,HOP=%KHA_FNC_ENABLE,ASOP=%Y#SOP_ENB,FLGS=NOTDED);
     1250    11672             %TRANS (OLD=BSYDSBPND,NEW=BSY,HOP=%KHA_FNC_ENABLE);
     1251    11714             %TRANS (OLD=UNINT,NEW=UNINT,FLGS=DED);
     1252    11756             %TRANS (OLD=UNINT,NEW=ENB,HOP=%KHA_FNC_ENABLE,BSOP=%Y#SOP_INTCTR,ASOP=
             11756                 %Y#SOP_ENB);
     1253    11798             %TRANS (LAST=YES);
     1254    11840
     1255    11841        /*
     1256    11842             EVENT: KILL
     1257    11843         */
     1258    11844    1   DCL 1 TRAN_KILL CONSTANT,
     1259    11845             %TRANS (OLD=ENB,NEW=DSB,HOP=%KHA_FNC_DISABLE);
     1260    11887             %TRANS (OLD=BSY,NEW=BSYDSBPND,HOP=%KHA_FNC_KILL);
     1261    11929             %TRANS (OLD=BSYDSBPND,NEW=BSYDSBPND,HOP=%KHA_FNC_KILL);
     1262    11971             %TRANS (OLD=LINPROPND_ENB,NEW=DSB,HOP=%KHA_FNC_DISABLE);
     1263    12013             %TRANS (OLD=LINPROPND_BSY,NEW=BSYDSBPND,HOP=%KHA_FNC_KILL);
     1264    12055             %TRANS (OLD=LINPROPND_BSYDSBPND,NEW=BSYDSBPND,HOP=%KHA_FNC_KILL);
     1265    12097             %TRANS (OLD=DSB,NEW=DSB,FLGS=DED,ASOP=%Y#SOP_RSTDED);
     1266    12139             %TRANS (LAST=YES);
     1267    12181
     1268    12182        /*
     1269    12183             EVENT: INTDVC
     1270    12184         */
     1271    12185    1   DCL 1 TRAN_INTDVC CONSTANT,
     1272    12186             %TRANS (OLD=PRT,NEW=PRT);
     1273    12228             %TRANS (OLD=UNINT,NEW=DSB,HOP=%KHA_FNC_DISABLE,BSOP=%Y#SOP_INTCTR,FLGS=ERR);
     1274    12270             %TRANS (OLD=UNINT,NEW=UNINT,HOP=%KHA_FNC_DISABLE,BSOP=%Y#SOP_INTCTR,FLGS=DED);
     1275    12312             %TRANS (OLD=UNINT,NEW=ENB,HOP=%KHA_FNC_ENABLE,BSOP=%Y#SOP_INTCTR,FLGS=ENB,ASOP=
             12312                 %Y#SOP_ENB);
     1276    12354             %TRANS (OLD=UNINT,NEW=DSB,HOP=%KHA_FNC_DISABLE,BSOP=%Y#SOP_INTCTR);
     1277    12396             %TRANS (LAST=YES);
     1278    12438
     1279    12439        /*
     1280    12440             EVENT: DISCONNECT_EVT (from a handler)
PL6.E3A0      #004=KHA$DVCADM File=KHA$ADMIN.:E05TSI                             WED 07/30/97 00:26 Page:152
     1281    12441         */
     1282    12442    1   DCL 1 TRAN_DISCONNECT_EVT CONSTANT,
     1283    12443             %TRANS (OLD=BSY,NEW=ENB,FLGS=REENB,ASOP=%Y#SOP_SNDADM);
     1284    12485             %TRANS (OLD=BSY,NEW=DSB,HOP=%KHA_FNC_DISABLE,ASOP=%Y#SOP_SNDADM);
     1285    12527             %TRANS (OLD=BSYDSBPND,NEW=DSB,HOP=%KHA_FNC_DISABLE,ASOP=%Y#SOP_SNDADM);
     1286    12569             %TRANS (LAST=YES);
     1287    12611
     1288    12612        /*
     1289    12613             EVENT: DISCONNECT_RQS (from a host)
     1290    12614         */
     1291    12615    1   DCL 1 TRAN_DISCONNECT_RQS CONSTANT,
     1292    12616             %TRANS (OLD=BSY,NEW=BSY,HOP=%KHA_FNC_DISCONNECT_RQS);
     1293    12658             %TRANS (OLD=BSYDSBPND,NEW=BSYDSBPND,HOP=%KHA_FNC_DISCONNECT_RQS);
     1294    12700             %TRANS (OLD=LINPROPND_BSY,NEW=LINPROPND_BSY,HOP=%KHA_FNC_DISCONNECT_RQS);
     1295    12742             %TRANS (OLD=LINPROPND_BSYDSBPND,NEW=LINPROPND_BSYDSBPND,HOP=
             12742                 %KHA_FNC_DISCONNECT_RQS);
     1296    12784             %TRANS (LAST=YES);
     1297    12826
     1298    12827        /*
     1299    12828             EVENT: CONNECT
     1300    12829         */
     1301    12830    1   DCL 1 TRAN_CONNECT CONSTANT,
     1302    12831             %TRANS (OLD=ENB,NEW=BSY,ASOP=%Y#SOP_SNDADM);
     1303    12873             %TRANS (LAST=YES);
     1304    12915
     1305    12916        /*
     1306    12917             EVENT: CONFIG
     1307    12918         */
     1308    12919    1   DCL 1 TRAN_CONFIG CONSTANT,
     1309    12920             %TRANS (OLD=DSB,NEW=DSB,BSOP=%Y#SOP_UPDCHN,HOP=%KHA_FNC_CNFG);
     1310    12962             %TRANS (OLD=ENB,NEW=ENB,BSOP=%Y#SOP_UPDCHN,HOP=%KHA_FNC_CNFG);
     1311    13004             %TRANS (OLD=BSY,NEW=BSY,BSOP=%Y#SOP_UPDCHN,HOP=%KHA_FNC_CNFG);
     1312    13046             %TRANS (OLD=BSYDSBPND,NEW=BSYDSBPND,BSOP=%Y#SOP_UPDCHN,HOP=%KHA_FNC_CNFG);
     1313    13088             %TRANS (OLD=UNINT,NEW=UNINT,BSOP=%Y#SOP_UPDCHN);
     1314    13130             %TRANS (LAST=YES);
     1315    13172
     1316    13173        /*
PL6.E3A0      #004=KHA$DVCADM File=KHA$ADMIN.:E05TSI                             WED 07/30/97 00:26 Page:153
     1317    13174             EVENT: RELEASE
     1318    13175         */
     1319    13176    1   DCL 1 TRAN_PARTITION CONSTANT,
     1320    13177             %TRANS (OLD=DSB,NEW=PRT,HOP=%KHA_FNC_KILL,ASOP=%Y#SOP_PRT);
     1321    13219             %TRANS (OLD=UNINT,NEW=PRT,HOP=%KHA_FNC_KILL,ASOP=%Y#SOP_PRT);
     1322    13261             %TRANS (LAST=YES);
     1323    13303
     1324    13304        /*
     1325    13305             EVENT: RETURN
     1326    13306         */
     1327    13307    1   DCL 1 TRAN_RETURN CONSTANT,
     1328    13308             %TRANS (OLD=PRT,NEW=UNINT);
     1329    13350             %TRANS (LAST=YES);
     1330    13392
     1331    13393        /*
     1332    13394             EVENT: SGNRJC
     1333    13395        */
     1334    13396    1   DCL 1 TRAN_SGNRJC CONSTANT,
     1335    13397             %TRANS (OLD=LINPROPND_ENB,NEW=ENB,HOP=%KHA_FNC_SGNRJC);
     1336    13439             %TRANS (OLD=LINPROPND_BSY,NEW=BSY,HOP=%KHA_FNC_SGNRJC);
     1337    13481             %TRANS (OLD=LINPROPND_BSYDSBPND,NEW=BSYDSBPND,HOP=%KHA_FNC_SGNRJC);
     1338    13523             %TRANS (LAST=YES);
     1339    13565
     1340    13566        /*
     1341    13567             EVENT: BLDLINPRO
     1342    13568        */
     1343    13569    1   DCL 1 TRAN_BLDLINPRO CONSTANT,
     1344    13570             %TRANS (OLD=LINPROPND_ENB,NEW=ENB,BSOP=%Y#SOP_BLDLINPRO);
     1345    13612             %TRANS (OLD=LINPROPND_BSY,NEW=BSY,BSOP=%Y#SOP_BLDLINPRO);
     1346    13654             %TRANS (OLD=LINPROPND_BSYDSBPND,NEW=BSYDSBPND,BSOP=%Y#SOP_BLDLINPRO);
     1347    13696             %TRANS (LAST=YES);
     1348    13738
     1349    13739        /*
     1350    13740             EVENT: RQSLINPRO
     1351    13741        */
     1352    13742    1   DCL 1 TRAN_RQSLINPRO CONSTANT,
     1353    13743             %TRANS (OLD=ENB,NEW=LINPROPND_ENB,BSOP=%Y#SOP_RQSLINPRO);
PL6.E3A0      #004=KHA$DVCADM File=KHA$ADMIN.:E05TSI                             WED 07/30/97 00:26 Page:154
     1354    13785             %TRANS (OLD=BSY,NEW=LINPROPND_BSY,BSOP=%Y#SOP_RQSLINPRO);
     1355    13827             %TRANS (OLD=BSYDSBPND,NEW=LINPROPND_BSYDSBPND,BSOP=%Y#SOP_RQSLINPRO);
     1356    13869             %TRANS (LAST=YES);
     1357    13911
     1358    13912        /*
     1359    13913             EVENT: CNCRQSLINPRO
     1360    13914        */
     1361    13915    1   DCL 1 TRAN_CNCRQSLINPRO CONSTANT,
     1362    13916              %TRANS (OLD=LINPROPND_ENB,NEW=ENB);
     1363    13958              %TRANS (OLD=LINPROPND_BSY,NEW=BSY);
     1364    14000              %TRANS (OLD=LINPROPND_BSYDSBPND,NEW=BSYDSBPND);
     1365    14042              %TRANS (LAST=YES);
     1366    14084
     1367    14085        /*
     1368    14086             EVENT: DVCERR
     1369    14087        */
     1370    14088    1   DCL 1 TRAN_DVCERR CONSTANT,
     1371    14089              %TRANS (OLD=UNINT,NEW=UNINT,BSOP=%Y#SOP_DVCERR);
     1372    14131              %TRANS (OLD=BSY,NEW=BSY,BSOP=%Y#SOP_DVCERR);
     1373    14173              %TRANS (OLD=BSYDSBPND,NEW=BSYDSBPND,BSOP=%Y#SOP_DVCERR);
     1374    14215              %TRANS (OLD=BSYPRTPND,NEW=BSYPRTPND,BSOP=%Y#SOP_DVCERR);
     1375    14257              %TRANS (OLD=DSB,NEW=DSB,BSOP=%Y#SOP_DVCERR);
     1376    14299              %TRANS (OLD=ENB,NEW=ENB,BSOP=%Y#SOP_DVCERR);
     1377    14341              %TRANS (OLD=LINPROPND_ENB,NEW=LINPROPND_ENB,BSOP=%Y#SOP_DVCERR);
     1378    14383              %TRANS (OLD=LINPROPND_BSY,NEW=LINPROPND_BSY,BSOP=%Y#SOP_DVCERR);
     1379    14425              %TRANS (OLD=LINPROPND_BSYDSBPND,NEW=LINPROPND_BSYDSBPND,BSOP=%Y#SOP_DVCERR);
     1380    14467              %TRANS (OLD=PRT,NEW=PRT,BSOP=%Y#SOP_DVCERR);
     1381    14509              %TRANS (LAST=YES);
     1382    14551
     1383    14552        /*
     1384    14553             EVENT: DVCERRRSP
     1385    14554        */
     1386    14555    1   DCL 1 TRAN_DVCERRRSP CONSTANT,
     1387    14556              %TRANS (OLD=UNINT,NEW=UNINT,BSOP=%Y#SOP_DVCERRRSP,HOP=%KHA_FNC_DVCERRRSP);
     1388    14598              %TRANS (OLD=BSY,NEW=BSY,BSOP=%Y#SOP_DVCERRRSP,HOP=%KHA_FNC_DVCERRRSP);
     1389    14640              %TRANS (OLD=BSYDSBPND,NEW=BSYDSBPND,BSOP=%Y#SOP_DVCERRRSP,HOP=
             14640                  %KHA_FNC_DVCERRRSP);
PL6.E3A0      #004=KHA$DVCADM File=KHA$ADMIN.:E05TSI                             WED 07/30/97 00:26 Page:155
     1390    14682              %TRANS (OLD=BSYPRTPND,NEW=BSYPRTPND,BSOP=%Y#SOP_DVCERRRSP,HOP=
             14682                  %KHA_FNC_DVCERRRSP);
     1391    14724              %TRANS (OLD=DSB,NEW=DSB,BSOP=%Y#SOP_DVCERRRSP,HOP=%KHA_FNC_DVCERRRSP);
     1392    14766              %TRANS (OLD=ENB,NEW=ENB,BSOP=%Y#SOP_DVCERRRSP,HOP=%KHA_FNC_DVCERRRSP);
     1393    14808              %TRANS (OLD=LINPROPND_ENB,NEW=LINPROPND_ENB,BSOP=%Y#SOP_DVCERRRSP,HOP=
             14808                  %KHA_FNC_DVCERRRSP);
     1394    14850              %TRANS (OLD=LINPROPND_BSY,NEW=LINPROPND_BSY,BSOP=%Y#SOP_DVCERRRSP,HOP=
             14850                  %KHA_FNC_DVCERRRSP);
     1395    14892              %TRANS (OLD=LINPROPND_BSYDSBPND,NEW=LINPROPND_BSYDSBPND,BSOP=%Y#SOP_DVCERRRSP,
             14892                  HOP=%KHA_FNC_DVCERRRSP);
     1396    14934              %TRANS (OLD=PRT,NEW=PRT,BSOP=%Y#SOP_DVCERRRSP,HOP=%KHA_FNC_DVCERRRSP);
     1397    14976              %TRANS (LAST=YES);
     1398    15018
     1399    15019        /*
     1400    15020             EVENT: HOSTDOWN
     1401    15021         */
     1402    15022    1   DCL 1 TRAN_HOSTDOWN CONSTANT,
     1403    15023             %TRANS(OLD=ENB,NEW=DSB,HOP=%KHA_FNC_DISABLE,ASOP=%Y#SOP_SETENBHSTUP,FLGS=
             15023                 DSBHSTDWN);
     1404    15065             %TRANS(OLD=ENB,NEW=DSB,HOP=%KHA_FNC_KILL,ASOP=%Y#SOP_SETENBHSTUP,FLGS=KLLHSTDWN
             15065                 );
     1405    15107             %TRANS(OLD=BSY,NEW=BSYDSBPND,ASOP=%Y#SOP_SETENBHSTUP,FLGS=DSBHSTDWN);
     1406    15149             %TRANS(OLD=BSY,NEW=BSYDSBPND,HOP=%KHA_FNC_KILL,ASOP=%Y#SOP_SETENBHSTUP,FLGS=
             15149                 KLLHSTDWN);
     1407    15191             %TRANS(OLD=LINPROPND_ENB,NEW=DSB,HOP=%KHA_FNC_KILL,ASOP=%Y#SOP_SETENBHSTUP,FLGS
             15191                 =KLLHSTDWN);
     1408    15233             %TRANS(OLD=LINPROPND_BSY,NEW=BSYDSBPND,HOP=%KHA_FNC_KILL,ASOP=
             15233                 %Y#SOP_SETENBHSTUP,FLGS=KLLHSTDWN);
     1409    15275             %TRANS(OLD=LINPROPND_BSYDSBPND,NEW=BSYDSBPND,HOP=%KHA_FNC_KILL,ASOP=
             15275                 %Y#SOP_SETENBHSTUP,FLGS=KLLHSTDWN);
     1410    15317             %TRANS(OLD=LINPROPND_ENB,NEW=DSB,HOP=%KHA_FNC_DISABLE,ASOP=%Y#SOP_SETENBHSTUP,
             15317                 FLGS=DSBHSTDWN);
     1411    15359             %TRANS(OLD=LINPROPND_BSY,NEW=BSYDSBPND,HOP=%KHA_FNC_DISABLE,ASOP=
             15359                 %Y#SOP_SETENBHSTUP,FLGS=DSBHSTDWN);
     1412    15401             %TRANS(LAST=YES);
     1413    15443
     1414    15444        /*
PL6.E3A0      #004=KHA$DVCADM File=KHA$ADMIN.:E05TSI                             WED 07/30/97 00:26 Page:156
     1415    15445             HOST UP
     1416    15446
     1417    15447         */
     1418    15448    1   DCL 1 TRAN_HOSTUP CONSTANT,
     1419    15449             %TRANS(OLD=DSB,NEW=ENB,HOP=%KHA_FNC_ENABLE,BSOP=%Y#SOP_CLRENBHSTUP,FLGS=
             15449                 ENBHSTUP);
     1420    15491             %TRANS(OLD=BSYDSBPND,NEW=BSY,BSOP=%Y#SOP_CLRENBHSTUP,FLGS=ENBHSTUP);
     1421    15533        %TRANS(OLD=BSY,NEW=BSY,HOP=%KHA_FNC_HOSTUP);
     1422    15575        %TRANS(OLD=ENB,NEW=ENB,HOP=%KHA_FNC_HOSTUP);
     1423    15617             %TRANS (LAST=YES);
     1424    15659
     1425    15660
     1426    15661        /*
     1427    15662             EVENT: ACTIVE
     1428    15663         */
     1429    15664    1   DCL 1 TRAN_ACTIVE CONSTANT,
     1430    15665             %TRANS(ASOP=%Y#SOP_SNDADM);
     1431    15707             %TRANS(LAST=YES);
     1432    15749
     1433    15750        /*E* ERROR: KHA-E$ILGLTRANS
     1434    15751             MESSAGE: That function is illegal for the current state.
     1435    15752           MESSAGE1: The function specified conflicts with the current state of the channel.
     1436    15753         */
     1437    15754        /*E* ERROR: KHA-E$DEDCHN
     1438    15755             MESSAGE: That channel is dead.  KILL channel and try again.
     1439    15756             MESSAGE1: That function is illegal on a dead channel.
     1440    15757        */
     1441    15758        /*E* ERROR: KHA-E$CLKFAILED
     1442    15759             MESSAGE: KHC$CLOCK altreturned.
     1443    15760             MESSAGE1: An M$READ or M$WRITE failed.  A clock setup to
     1444    15761                      reissue the read/write also failed.
     1445    15762        */
     1446    15763
     1447    15764
     1448    15765        /*
     1449    15766             The next item is an array pointing to the different transition
     1450    15767              table for each event.  If KHA_FNC_E changes this table needs to
PL6.E3A0      #004=KHA$DVCADM File=KHA$ADMIN.:E05TSI                             WED 07/30/97 00:26 Page:157
     1451    15768              change also.
     1452    15769         */
     1453    15770    1   DCL TRANS_TABLE$(0:%KHA_FNC_HI) PTR CONSTANT INIT(
     1454    15771    1                          ADDR(NIL) ,      /* %KHA_FNC_NON                       */
     1455    15772    1                       ADDR(TRAN_ENABLE) , /* %KHA_FNC_ENABLE                    */
     1456    15773    1                      ADDR(TRAN_DISABLE) , /* %KHA_FNC_DISABLE                   */
     1457    15774    1                         ADDR(TRAN_KILL) , /* %KHA_FNC_KILL                      */
     1458    15775    1                               ADDR(NIL) , /* %KHA_FNC_REQSTATS                  */
     1459    15776    1                               ADDR(NIL) , /* %KHA_FNC_CONTROL                   */
     1460    15777    1                      ADDR(NIL)          , /* %KHA_FNC_RELEASE                   */
     1461    15778    1                    ADDR(TRAN_PARTITION) , /* %KHA_FNC_PARTITION                 */
     1462    15779    1                    ADDR(TRAN_PARTITION) , /* %KHA_FNC_PARTITION_DGN             */
     1463    15780    1                       ADDR(TRAN_RETURN) , /* %KHA_FNC_RETURN                    */
     1464    15781    1                               ADDR(NIL) , /* %KHA_FNC_BLDCTX                    */
     1465    15782    1                               ADDR(NIL) , /* %KHA_FNC_BLDCTXCMP                 */
     1466    15783    1               ADDR(TRAN_DISCONNECT_EVT) , /* %KHA_FNC_DISCONNECT_EVT        */
     1467    15784    1               ADDR(TRAN_DISCONNECT_RQS) , /* %KHA_FNC_DISCONNECT_RQS        */
     1468    15785    1                      ADDR(TRAN_CONNECT) , /* %KHA_FNC_CONNECT                   */
     1469    15786    1                       ADDR(NIL) ,         /* %KHA_FNC_INTCTR                    */
     1470    15787    1                       ADDR(TRAN_INTDVC) , /* %KHA_FNC_INTDVC                    */
     1471    15788    1                       ADDR(TRAN_CONFIG) , /* %KHA_FNC_CNFG                      */
     1472    15789    1                  ADDR(TRAN_RQSLINPRO) ,   /* %KHA_FNC_RQSLINPRO              */
     1473    15790    1                  ADDR(TRAN_BLDLINPRO) ,   /* %KHA_FNC_BLDLINPRO                 */
     1474    15791    1                               ADDR(NIL) , /* %KHA_FNC_RQSDEFPRO                 */
     1475    15792    1                   ADDR(TRAN_SGNRJC),      /* %KHA_FNC_SGNRJC                 */
     1476    15793    1                  ADDR(TRAN_CNCRQSLINPRO), /* %KHA_FNC_CNCRQSLINPRO */
     1477    15794    1                    ADDR(TRAN_DVCERR),     /* %KHA_FNC_DVCERR */
     1478    15795    1                    ADDR(TRAN_DVCERRRSP),  /* %KHA_FNC_DVCERRRSP                 */
     1479    15796    1                   ADDR(TRAN_HOSTDOWN),    /* %KHA_FNC_HOSTDOWN                  */
     1480    15797    1                   ADDR(TRAN_HOSTUP),      /* %KHA_FNC_HOSTUP                    */
     1481    15798    1                   ADDR(NIL),              /* %KHA_FNC_CHNTBL  */
     1482    15799    1                   ADDR(TRAN_ACTIVE),      /* %KHA_FNC_ACTIVE                    */
     1483    15800    1                   ADDR(TRAN_ACTIVE)  /* %KHA_FNC_NOTACTIVE                    */
     1484    15801    1                                     );
     1485    15802
     1486    15803
     1487    15804        %KH$CHN(NAME=CHN_C,STCLASS=CONSTANT);
PL6.E3A0      #004=KHA$DVCADM File=KHA$ADMIN.:E05TSI                             WED 07/30/97 00:26 Page:158
     1488    15928        %KH$CHN(NAME=CHN,STCLASS=AUTO);
     1489    16052        /* SYMREFS */
     1490    16053        %KH_CHNDAT;
     1491    16071    1   DCL KH_ADMIN$ EPTR SYMREF;
     1492    16072    1   DCL KH_NA_DCB# UBIN SYMREF;
     1493    16073    1   DCL KH_CTLTBL$ PTR SYMREF;
     1494    16074    1   DCL KH_INHLVL UBIN SYMREF;
     1495    16075    1   DCL KH_FLDWRTS SBIN SYMREF;
     1496    16076
     1497    16077        /* Auto */
     1498    16078    1   DCL TRANS$ PTR;
     1499    16079    1   DCL CHN$ PTR;
     1500    16080    1   DCL CTR$ PTR;
     1501    16081    1   DCL CTRCHN UBIN;
     1502    16082    1   DCL CTRTYPE UBIN;
     1503    16083    1   DCL LEV UBIN;
     1504    16084        %B$TERMINAL_ID (FPTN=TERMID,STCLASS=AUTO);
     1505    16113        %B$TERMINAL_ID (FPTN=TMP_TERMID,STCLASS=AUTO);
     1506    16142        %B$TERMINAL_ID (FPTN=TERMID_C,STCLASS=CONSTANT);
     1507    16171    1   DCL LIN$ PTR;
     1508    16172    1   DCL SIZE UBIN;
     1509    16173        %KH$ADMIN_FPT (FPTN=ADMIN_FPT,STCLASS=AUTO);
     1510    16384    1   DCL HOP UBIN;
     1511    16385    1   DCL BSOP UBIN;
     1512    16386    1   DCL ASOP UBIN;
     1513    16387    1   DCL NEW SBIN;
     1514    16388    1   DCL OLD UBIN;
     1515    16389    1   DCL STOP_FLAG BIT(1);
     1516    16390    1   DCL CHAN UBIN;
     1517    16391    1   DCL CHANLO UBIN;
     1518    16392    1   DCL CHANHI UBIN;
     1519    16393    1   DCL SUB UBIN;
     1520    16394    1   DCL SUBLO UBIN;
     1521    16395    1   DCL SUBHI UBIN;
     1522    16396    1   DCL SUBSUB UBIN;
     1523    16397    1   DCL SUBSUBLO UBIN;
     1524    16398    1   DCL SUBSUBHI UBIN;
PL6.E3A0      #004=KHA$DVCADM File=KHA$ADMIN.:E05TSI                             WED 07/30/97 00:26 Page:159
     1525    16399    1   DCL RQSPRO_BUF(0:59) UBIN WORD;
     1526    16400    1   DCL RQSPRO$ PTR;
     1527    16401        %KL_RQSCHN (FPTN=KL_RQSPRO,STCLASS="BASED(RQSPRO$)");
     1528    16504        %FPT_WRITE (FPTN=KHA_WRITE,STCLASS=SYMREF);
     1529    16528        %KL_ADMIN (FPTN=ADMINC,STCLASS=CONSTANT,ORIGIN='KHA$ADMN');
     1530    16689        %KL_ADMIN (FPTN=ADMIN,STCLASS=AUTO,ORIGIN='KHA$ADMN');
     1531    16850    1   DCL KEYIN UBIN;
     1532    16851
     1533    16852        /* Based */
     1534    16853        %TRANS (FPTN=B$TRANS,STCLASS="BASED(TRANS$)",LVL=1,LAST=YES);
     1535    16895        %KH$CHN (STCLASS="BASED(CHN$)");
     1536    17019        %KL_HNDCMN_INFO (FPTN=KHA,STCLASS=BASED,LAST=";");
     1537    17099    1   DCL ONEWORD UBIN WORD BASED;
     1538    17100    1   DCL SIGNON CHAR(SIZE) BASED;
     1539    17101        %KH$CTLTBL (STCLASS="BASED(KH_CTLTBL$)");
     1540    17313
     1541    17314        /* ERRCODES */
     1542    17315        %VLP_ERRCODE (FPTN=ERR_BADCHN,FCG=KH,MID=A,MON='1'B,ERR#=%E$CHAN_NOT_THERE,STCLASS=
             17315            CONSTANT);
     1543    17361        /*E* ERROR: KHA-E$CHAN_NOT_THERE
     1544    17362             MESSAGE: That channel is undefined.
     1545    17363         */
     1546    17364        %VLP_ERRCODE (FPTN=ERR_ILGLTRANS,FCG=KH,MID=A,MON='1'B,ERR#=%E$ILGLTRANS,STCLASS=
             17364            CONSTANT);
     1547    17410        %VLP_ERRCODE(FPTN=ERR_CLKFAILED,FCG=KH,MID=A,MON='1'B,ERR#=%E$CLKFAILED,STCLASS=
             17410            CONSTANT);
     1548    17456        %VLP_ERRCODE (FPTN=ERR_DEDCHN,FCG=KH,MID=A,MON='1'B,ERR#=%E$DEDCHN,STCLASS=CONSTANT)
             17456            ;
     1549    17502        %EJECT;
PL6.E3A0      #004=KHA$DVCADM File=KHA$ADMIN.:E05TSI                             WED 07/30/97 00:26 Page:160
     1550    17503    1        INHIBIT_LEVEL = KH_INHLVL;
     1551    17504             %DISABLE;
     1552    17508    1        LEV = TERMLO.LEV;
     1553    17509    1        CHANLO = TERMLO.TERM.CHANNEL / 128;
     1554    17510    1        CHANHI = CHANLO;
     1555    17511    1        SUBLO = TERMLO.TERM.SUBDEVICE;
     1556    17512    1        SUBHI = SUBLO;
     1557    17513    1        SUBSUBLO = TERMLO.TERM.SUBSUBDEVICE;
     1558    17514    1        SUBSUBHI = SUBSUBLO;
     1559    17515    1        STOP_FLAG = '1'B;
     1560    17516    1        GOTO COMMON;
     1561    17517        %EJECT;
PL6.E3A0      #004=KHA$DVCADM File=KHA$ADMIN.:E05TSI                             WED 07/30/97 00:26 Page:161
     1562    17518    1   KHA$DVCADM_RNG: ENTRY (OPERATION,ERROR,TERMLO,TERMHI,DATAVEC,NORETRAN) ALTRET;
     1563    17519    1        INHIBIT_LEVEL = KH_INHLVL;
     1564    17520             %DISABLE;
     1565    17524    2        CALL KHA$CHK_TRM_RNG(TERMLO,TERMHI) WHENALTRETURN DO;
     1566    17525    2             ERROR = ERR_BADCHN;
     1567    17526                  %ENABLE;
     1568    17532    2             ALTRETURN;
     1569    17533    2           END;                            /* WHENALTRETURN */
     1570    17534    1        LEV = TERMLO.LEV;
     1571    17535    1        CHANLO = TERMLO.TERM.CHANNEL / 128;
     1572    17536    1        CHANHI = TERMHI.TERM.CHANNEL / 128;
     1573    17537    1        SUBLO = TERMLO.TERM.SUBDEVICE;
     1574    17538    1        SUBHI = TERMHI.TERM.SUBDEVICE;
     1575    17539    1        SUBSUBLO = TERMLO.TERM.SUBSUBDEVICE;
     1576    17540    1        SUBSUBHI = TERMHI.TERM.SUBSUBDEVICE;
     1577    17541    1        STOP_FLAG = '0'B;
     1578    17542    1        GOTO COMMON;
     1579    17543        %EJECT;
PL6.E3A0      #004=KHA$DVCADM File=KHA$ADMIN.:E05TSI                             WED 07/30/97 00:26 Page:162
     1580    17544    1   KHA$DVCADM_ALL: ENTRY (OPERATION,ERROR,TERMLO,TERMHI,DATAVEC,NORETRAN) ALTRET;
     1581    17545    1        INHIBIT_LEVEL = KH_INHLVL;
     1582    17546             %DISABLE;
     1583    17550    1        CHANLO = KH_CHNLOW$->KH$CHN.CHNBIT0_9 * 64 / 128;
     1584    17551    1        CHANHI = KH_CHNHI$->KH$CHN.CHNBIT0_9 * 64 / 128;
     1585    17552    1        SUBLO = 0;
     1586    17553    1        SUBHI = 0;
     1587    17554    1        SUBSUBLO = 0;
     1588    17555    1        SUBSUBHI = 0;
     1589    17556    1        LEV = %TERMINAL_ID_LEV_CHAN#;
     1590    17557    1        STOP_FLAG = '0'B;
     1591    17558        %EJECT;
PL6.E3A0      #004=KHA$DVCADM File=KHA$ADMIN.:E05TSI                             WED 07/30/97 00:26 Page:163
     1592    17559    1   COMMON: ;
     1593    17560    1        ERROR = '0'B;
     1594    17561    1        IF OPERATION > %KHA_FNC_HI+1
     1595    17562    2        THEN DO;
     1596    17563    2             ERROR = ERR_ILGLTRANS;
     1597    17564                  %ENABLE;
     1598    17570    2             ALTRETURN;
     1599    17571    2           END;
     1600    17572    1        TERMID = TERMID_C;
     1601    17573    1        IF ADDR(TERMLO) ~= ADDR(NIL)
     1602    17574    1        THEN
     1603    17575    1             TERMID.TERM.TERM_NAME = TERMLO.TERM.TERM_NAME;
     1604    17576    1        TERMID.LEV = LEV;
     1605    17577    2        DO CHAN = CHANLO TO CHANHI;
     1606    17578    2             TERMID.TERM.CHANNEL = CHAN * 128;
     1607    17579    3             DO SUB = SUBLO TO SUBHI;
     1608    17580    3                  TERMID.TERM.SUBDEVICE = SUB;
     1609    17581    4                  DO SUBSUB = SUBSUBLO TO SUBSUBHI;
     1610    17582    4                       TERMID.TERM.SUBSUBDEVICE = SUBSUB;
     1611    17583    5                       CALL KHA$GET_CTX_PTR(TERMID,CHN$) WHENALTRETURN DO;
     1612    17584    5                            ERROR = ERR_BADCHN;
     1613    17585    5                            GOTO ERROR_CHECK;
     1614    17586    5                          END;             /* WHENALTRETURN */
     1615    17587    5                       IF LEV = %TERMINAL_ID_LEV_CHAN# THEN DO;
     1616    17588    5                            LIN$ = CHN$;
     1617    17589    5                          END;             /* IF */
     1618    17590    5                       ELSE DO;
     1619    17591    5                            TMP_TERMID = TERMID;
     1620    17592    5                            TMP_TERMID.LEV = %TERMINAL_ID_LEV_CHAN#;
     1621    17593    5                            TMP_TERMID.TERM.SUBDEVICE = 0;
     1622    17594    5                            TMP_TERMID.TERM.SUBSUBDEVICE = 0;
     1623    17595    5                            CALL KHA$GET_CTX_PTR(TMP_TERMID,LIN$);
     1624    17596    5                          END;             /* ELSE */
     1625    17597    4                       OLD = KH$CHN.STT;
     1626    17598        /* Find the transition table */
     1627    17599    4                       TRANS$ = TRANS_TABLE$(OPERATION);
     1628    17600    4                       IF TRANS$ = ADDR(NIL)
PL6.E3A0      #004=KHA$DVCADM File=KHA$ADMIN.:E05TSI                             WED 07/30/97 00:26 Page:164
     1629    17601    5                       THEN DO;
     1630    17602                                 %ENABLE;
     1631    17608    5                            RETURN;
     1632    17609    5                          END;
     1633    17610
     1634    17611    5                       DO WHILE (NOT B$TRANS.LAST);
     1635    17612    5                            IF B$TRANS.OLD = OLD OR B$TRANS.OLD = -1
     1636    17613    5                            THEN
     1637    17614    6                            DO CASE (B$TRANS.FLGS);
     1638    17615
     1639    17616    6                            CASE (%Y#ENB);
     1640    17617    6                               IF KH$CHN.ENB
     1641    17618    6                               THEN
     1642    17619    6                                    GOTO GOT_TRANS;
     1643    17620
     1644    17621    6                            CASE (%Y#REENB);
     1645    17622    6                               IF KH$CHN.RE_ENB
     1646    17623    6                               THEN
     1647    17624    6                                    GOTO GOT_TRANS;
     1648    17625
     1649    17626    6                            CASE (%Y#DED);
     1650    17627    6                               IF KH$CHN.DED
     1651    17628    6                               THEN
     1652    17629    6                                    GOTO GOT_TRANS;
     1653    17630
     1654    17631    6                            CASE (%Y#CTR);
     1655    17632    6                               IF KH$CHN.CTR
     1656    17633    6                               THEN
     1657    17634    6                                    GOTO GOT_TRANS;
     1658    17635
     1659    17636
     1660    17637    6                            CASE (%Y#ERR);
     1661    17638
     1662    17639    6                            CASE (%Y#NOTDED);
     1663    17640    6                               IF ~KH$CHN.DED
     1664    17641    7                               THEN DO;
     1665    17642    7                                    ERROR = '0'B;
PL6.E3A0      #004=KHA$DVCADM File=KHA$ADMIN.:E05TSI                             WED 07/30/97 00:26 Page:165
     1666    17643    7                                    GOTO GOT_TRANS;
     1667    17644    7                                  END;
     1668    17645    6                               ERROR = ERR_DEDCHN;
     1669    17646    6                            CASE (%Y#KLLHSTDWN);
     1670    17647    6                               IF KH$CHN.KLLHSTDWN
     1671    17648    6                               THEN
     1672    17649    6                                    GOTO GOT_TRANS;
     1673    17650
     1674    17651    6                            CASE (%Y#DSBHSTDWN);
     1675    17652    6                               IF KH$CHN.DSBHSTDWN
     1676    17653    6                               THEN
     1677    17654    6                                    GOTO GOT_TRANS;
     1678    17655
     1679    17656    6                            CASE (%Y#ENBHSTUP);
     1680    17657    6                               IF KH$CHN.ENBHSTUP
     1681    17658    6                               THEN
     1682    17659    6                                    GOTO GOT_TRANS;
     1683    17660
     1684    17661
     1685    17662    6                            CASE (ELSE);
     1686    17663    6                               GOTO GOT_TRANS;
     1687    17664
     1688    17665    6                            END /* END CASES */;
     1689    17666    5                            TRANS$ = PINCRW(TRANS$,SIZEW(B$TRANS));
     1690    17667    5                          END;             /* End DO WHILE (B$TRANS.LAST)        */
     1691    17668
     1692    17669    4                       IF ERROR = '0'B THEN
     1693    17670    4                            ERROR = ERR_ILGLTRANS;
     1694    17671    4                       GOTO ERROR_CHECK;
     1695    17672
     1696    17673    4   GOT_TRANS:          ;
     1697    17674    4                       IF B$TRANS.NEW = -1
     1698    17675    4                       THEN
     1699    17676    4                            NEW = OLD;
     1700    17677    4                       ELSE
     1701    17678    4                            NEW = B$TRANS.NEW;
     1702    17679    4                       IF NEW = -1         /* Illegal state transition           */
PL6.E3A0      #004=KHA$DVCADM File=KHA$ADMIN.:E05TSI                             WED 07/30/97 00:26 Page:166
     1703    17680    5                       THEN DO;
     1704    17681    5                            ERROR = ERR_ILGLTRANS;
     1705    17682    5                            GOTO ERROR_CHECK;
     1706    17683    5                          END;
     1707    17684    4                       HOP = B$TRANS.HOP;
     1708    17685    4                       BSOP = B$TRANS.BSOP;
     1709    17686    4                       ASOP = B$TRANS.ASOP;
     1710    17687    4                       KH$CHN.STT = NEW;
     1711    17688
     1712    17689        /* Do any special operations before the call to admin */
     1713    17690    5                       DO CASE (BSOP);
     1714    17691
     1715    17692    5                       CASE (%Y#SOP_INTCTR);
     1716    17693    5                          CALL GET_CONTROLLER;
     1717    17694    5                          IF NOT CTR$->KH$CHN.CCPDWNLD(CTRTYPE) AND
     1718    17695    5                               KH$CHN.TERMID.LEV    = %TERMINAL_ID_LEV_CHAN#
     1719    17696    6                          THEN DO;
     1720    17697    6                               ADMIN_FPT.FNC = %KHA_FNC_INTCTR;
     1721    17698    6                               ADMIN_FPT.TERMID = TERMID;
     1722    17699    6                               ADMIN_FPT.CHN$ = CHN$;
     1723    17700    6                               ADMIN_FPT.LIN$ = LIN$;
     1724    17701    6                               CALL KH_ADMIN$(ADMIN_FPT)
     1725    17702    7                               WHENALTRETURN DO;
     1726    17703    7                                    ERROR = ADMIN_FPT.RESULTS;
     1727    17704    7                                    KH$CHN.STT = OLD;
     1728    17705    7                                    GOTO ERROR_CHECK;
     1729    17706    7                                  END;
     1730    17707    6                               CTR$->KH$CHN.CCPDWNLD(CTRTYPE) = '1'B;
     1731    17708    6                             END;
     1732    17709    5                       CASE(%Y#SOP_UPDCHN);
     1733    17710    5                       CASE(%Y#SOP_RQSLINPRO);
     1734    17711    5                          RQSPRO$ = ADDR(RQSPRO_BUF);
     1735    17712    5                          RQSPRO_BUF = '0'B;
     1736    17713    5                          KL_RQSPRO.FCN = IGA_RQSCHN;
     1737    17714    5                          KL_RQSPRO.LINE_PROFILE = '1'B;
     1738    17715    5                          KL_RQSPRO.TERMINAL_ID = TERMID;
     1739    17716    5                          KL_RQSPRO.TERMINAL_ID.TTYP = TERMLO.TTYP;
PL6.E3A0      #004=KHA$DVCADM File=KHA$ADMIN.:E05TSI                             WED 07/30/97 00:26 Page:167
     1740    17717    6                          IF ADDR(DATAVEC) ~= ADDR(NIL) THEN DO;
     1741    17718    6                               KL_RQSPRO.SGN.L = VBOUND(DATAVEC) + 1;
     1742    17719    6                               SIZE = VBOUND(DATAVEC) + 1;
     1743    17720    6                               KL_RQSPRO.SGN.TXT = VBASE(DATAVEC)->SIGNON;
     1744    17721    6                             END;          /* IF */
     1745    17722    6                          ELSE DO;
     1746    17723    6                               KL_RQSPRO.SGN.L = 0;
     1747    17724    6                               KL_RQSPRO.SGN.TXT = ' ';
     1748    17725    6                             END;          /* ELSE */
     1749    17726    5                          KHA_WRITE.BUF_ = VECTOR(RQSPRO_BUF);
     1750    17727    5                          IF KH_FLDWRTS > 0 THEN
     1751    17728    6                          DO;
     1752    17729    6                               IF ADDR(NORETRAN) ~= ADDR(NIL) AND NORETRAN ~= 0 THEN
     1753    17730    6                                    ALTRETURN;
     1754    17731    6                               CALL KHA$SETCLK(KHA_WRITE) WHENALTRETURN
     1755    17732    7                               DO;
     1756    17733    7                                    ERROR = ERR_CLKFAILED;
     1757    17734    7                                    GOTO ERROR_CHECK;
     1758    17735    7                                  END;
     1759    17736    6                             END;
     1760    17737    5                          ELSE
     1761    17738    5                               CALL M$WRITE(KHA_WRITE) WHENALTRETURN
     1762    17739    6                               DO;
     1763    17740    6                                    IF ADDR(NORETRAN) ~= ADDR(NIL) AND NORETRAN ~= 0
             17740                                             THEN
     1764    17741    6                                         ALTRETURN;
     1765    17742    6                                    ELSE
     1766    17743    6                                         CALL KHA$SETCLK(KHA_WRITE) WHENALTRETURN
     1767    17744    7                                         DO;
     1768    17745    7                                              ERROR = ERR_CLKFAILED;
     1769    17746    7                                              GOTO ERROR_CHECK;
     1770    17747    7                                            END;
     1771    17748    6                                  END;
     1772    17749
     1773    17750    5                       CASE(%Y#SOP_BLDLINPRO);
     1774    17751    5                          CALL KHA$BLDLINPRO(TERMID,VBASE(DATAVEC)) ALTRET(ERROR_CHECK)
             17751                                   ;
PL6.E3A0      #004=KHA$DVCADM File=KHA$ADMIN.:E05TSI                             WED 07/30/97 00:26 Page:168
     1775    17752    5                       CASE(%Y#SOP_DVCERR);
     1776    17753    5                          KHA_WRITE.BUF_ = DATAVEC;
     1777    17754    5                          IF KH_FLDWRTS > 0 THEN
     1778    17755    6                          DO;
     1779    17756    6                               IF ADDR(NORETRAN) ~= ADDR(NIL) AND NORETRAN ~= 0 THEN
     1780    17757    6                                    ALTRETURN;
     1781    17758    6                               CALL KHA$SETCLK(KHA_WRITE) WHENALTRETURN
     1782    17759    7                               DO;
     1783    17760    7                                    ERROR = ERR_CLKFAILED;
     1784    17761    7                                    GOTO ERROR_CHECK;
     1785    17762    7                                  END;
     1786    17763    6                             END;
     1787    17764    5                          ELSE
     1788    17765    5                               CALL M$WRITE(KHA_WRITE) WHENALTRETURN
     1789    17766    6                               DO;
     1790    17767    6                                    IF ADDR(NORETRAN) ~= ADDR(NIL) AND NORETRAN ~= 0
             17767                                             THEN
     1791    17768    6                                         ALTRETURN;
     1792    17769    6                                    ELSE
     1793    17770    6                                         CALL KHA$SETCLK(KHA_WRITE) WHENALTRETURN
     1794    17771    7                                         DO;
     1795    17772    7                                              ERROR = ERR_CLKFAILED;
     1796    17773    7                                              GOTO ERROR_CHECK;
     1797    17774    7                                            END;
     1798    17775    6                                  END;
     1799    17776
     1800    17777    5                       CASE(%Y#SOP_DVCERRRSP);
     1801    17778    5                          ADMIN = ADMINC;
     1802    17779    5                          KEYIN = VBASE(DATAVEC)->ONEWORD;
     1803    17780    5                          ADMIN_FPT.CTX$ = ADDR(KEYIN);
     1804    17781
     1805    17782    5                       CASE(%Y#SOP_CLRENBHSTUP);
     1806    17783    5                          KH$CHN.ENBHSTUP = '0'B;
     1807    17784
     1808    17785    5                       END;                /* End cases                          */
     1809    17786
     1810    17787        /* Call the handler admin routine */
PL6.E3A0      #004=KHA$DVCADM File=KHA$ADMIN.:E05TSI                             WED 07/30/97 00:26 Page:169
     1811    17788    4                       IF HOP ~= %KHA_FNC_NON
     1812    17789    5                       THEN DO;
     1813    17790    5                            ADMIN_FPT.FNC = HOP;
     1814    17791    5                            ADMIN_FPT.TERMID = TERMID;
     1815    17792    5                            ADMIN_FPT.CHN$ = CHN$;
     1816    17793    5                            ADMIN_FPT.LIN$ = LIN$;
     1817    17794    5                            CALL KH_ADMIN$(ADMIN_FPT)
     1818    17795    6                            WHENALTRETURN DO;
     1819    17796    6                                 ERROR = ADMIN_FPT.RESULTS;
     1820    17797    6                                 KH$CHN.STT = OLD;
     1821    17798    6                                 GOTO ERROR_CHECK;
     1822    17799    6                               END;        /* WHENALTRETURN */
     1823    17800    5                          END;             /* IF HOP ~= NON */
     1824    17801
     1825    17802        /* Do any special processing after operation */
     1826    17803    5                       DO CASE (ASOP);
     1827    17804    5                       CASE(%Y#SOP_RSTDED);
     1828    17805    5                          KH$CHN.DED = '0'B;
     1829    17806
     1830    17807
     1831    17808    5                       CASE (%Y#SOP_PRT);
     1832    17809    5                          KH$CHN.DWNLOD = '0'B;
     1833    17810    5                          KH$CHN.DED = '0'B;
     1834    17811    5                          KH$CHN.HAND$ = ADDR(NIL);
     1835    17812    5                          KH$CHN.SYSID = 0;
     1836    17813    5                          CALL GET_CONTROLLER;
     1837    17814    5                          CTR$->KH$CHN.CCPDWNLD(CTRTYPE) = '0'B;
     1838    17815
     1839    17816    5                       CASE (%Y#SOP_ENB);
     1840    17817    5                          KH$CHN.DWNLOD = '1'B;
     1841    17818
     1842    17819    5                       CASE (%Y#SOP_SETENBHSTUP);
     1843    17820    5                          KH$CHN.ENBHSTUP = '1'B;
     1844    17821
     1845    17822    5                       CASE (%Y#SOP_SNDADM);
     1846    17823    5                          ADMIN = ADMINC;
     1847    17824    5                          ADMIN.TERMID_LO = KH$CHN.TERMID;
PL6.E3A0      #004=KHA$DVCADM File=KHA$ADMIN.:E05TSI                             WED 07/30/97 00:26 Page:170
     1848    17825    5                          ADMIN.TERMID_HI = KH$CHN.TERMID;
     1849    17826    5                          ADMIN.FNC = OPERATION;
     1850    17827    5                          KHA_WRITE.BUF_ = VECTOR(ADMIN);
     1851    17828    5                          IF KH_FLDWRTS > 0 THEN
     1852    17829    6                          DO;
     1853    17830    6                               IF ADDR(NORETRAN) ~= ADDR(NIL) AND NORETRAN ~= 0 THEN
     1854    17831    6                                    ALTRETURN;
     1855    17832    6                               CALL KHA$SETCLK(KHA_WRITE) WHENALTRETURN
     1856    17833    7                               DO;
     1857    17834    7                                    ERROR = ERR_CLKFAILED;
     1858    17835    7                                    GOTO ERROR_CHECK;
     1859    17836    7                                  END;
     1860    17837    6                             END;
     1861    17838    5                          ELSE
     1862    17839    5                               CALL M$WRITE(KHA_WRITE) WHENALTRETURN
     1863    17840    6                               DO;
     1864    17841    6                                    IF ADDR(NORETRAN) ~= ADDR(NIL) AND NORETRAN ~= 0
             17841                                             THEN
     1865    17842    6                                         ALTRETURN;
     1866    17843    6                                    ELSE
     1867    17844    6                                         CALL KHA$SETCLK(KHA_WRITE) WHENALTRETURN
     1868    17845    7                                         DO;
     1869    17846    7                                              ERROR = ERR_CLKFAILED;
     1870    17847    7                                              GOTO ERROR_CHECK;
     1871    17848    7                                            END;
     1872    17849    6                                  END;
     1873    17850
     1874    17851    5                       END;                /* end cases                          */
     1875    17852
     1876    17853    4   NEXT_CHANNEL:       ;
     1877    17854    4                     END;                  /* DO SUBSUB */
     1878    17855    3                END;                       /* DO SUB */
     1879    17856    2           END;                            /* DO CHAN */
     1880    17857             %ENABLE;
     1881    17863    1        RETURN;
     1882    17864
     1883    17865    1   ERROR_CHECK: ;
PL6.E3A0      #004=KHA$DVCADM File=KHA$ADMIN.:E05TSI                             WED 07/30/97 00:26 Page:171
     1884    17866                 /*N* ERRORLOG */
     1885    17867    1        IF STOP_FLAG
     1886    17868    2        THEN DO;
     1887    17869                  %ENABLE;
     1888    17875    2             ALTRETURN;
     1889    17876    2           END;                            /* IF */
     1890    17877    1        GOTO NEXT_CHANNEL;
     1891    17878
     1892    17879        %EJECT;
PL6.E3A0      #004=KHA$DVCADM File=KHA$ADMIN.:E05TSI                             WED 07/30/97 00:26 Page:172
     1893    17880    1   GET_CONTROLLER: PROC;
     1894    17881    3        DO SELECT(KH$CHN.DVCID & 'FF00'X);
     1895    17882
     1896    17883    3             SELECT ('2100'X);             /* MLC-8 */
     1897    17884    3             CTRCHN = (TERMID.TERM.CHANNEL/(64*16))*64*16;
     1898    17885    3   SET_CCPTYPE: ;
     1899    17886    3             IF KH$CHN.ATTR & %G_ATTR_CL_ASYNC
     1900    17887    3             THEN
     1901    17888    3                  CTRTYPE = %KH#CHN_CCPDWNLD_ASYNC;
     1902    17889    3             ELSE
     1903    17890    3                  IF KH$CHN.ATTR & %G_ATTR_CL_SYNC
     1904    17891    3                  THEN
     1905    17892    3                       CTRTYPE=%KH#CHN_CCPDWNLD_SYNC;
     1906    17893    3                  ELSE
     1907    17894    3                       IF KH$CHN.ATTR & %G_ATTR_CL_HDLC
     1908    17895    3                       THEN
     1909    17896    3                            CTRTYPE=%KH#CHN_CCPDWNLD_HDLC;
     1910    17897    3                       ELSE
     1911    17898    3                            CTRTYPE=%KH#CHN_CCPDWNLD_OTHER;
     1912    17899
     1913    17900    3             SELECT ('2900'X);
     1914    17901    3             CTRCHN = (TERMID.TERM.CHANNEL/(64*32))*64*32;
     1915    17902    3             GOTO SET_CCPTYPE;
     1916    17903
     1917    17904    3             SELECT (ELSE);
     1918    17905    3        CTRCHN = TERMID.TERM.CHANNEL;
     1919    17906    3        CTRTYPE=%KH#CHN_CCPDWNLD_OTHER;
     1920    17907
     1921    17908    3           END;
     1922    17909    2        CTR$ = PINCRW(KH_CHNLOW$,CTRCHN/128*SIZEW(KH$CHN));
     1923    17910
     1924    17911    2        RETURN;
     1925    17912
     1926    17913    2   END GET_CONTROLLER;
     1927    17914    1   END KHA$DVCADM;

PL6.E3A0      #004=KHA$DVCADM File=KHA$ADMIN.:E05TSI                             WED 07/30/97 00:26 Page:173
--  Include file information  --

   B_ERRORS_C.:E05TOU  is referenced.
   KHC_MAC_C.:E05TOU  is referenced.
   KH_MACRO_C.:E05TOU  is referenced.
   KL_MACRO_C.:E05TOU  is referenced.
   KL_AFCN_C.:E05TOU  is referenced.
   KL_CONTROL_C.:E05TOU  is referenced.
   KHA_FNC_E.:E05TOU  is referenced.
   KH_CHN.:E05TOU  is referenced.
   KH$CHN.:E05TOU  is referenced.
   CP_6_SUBS.:E05TOU  is referenced.
   G_LCP6_E.:E05TOU  is referenced.
   GT_LCP6_M.:E05TOU  is referenced.
   KI_CP6.:E05TOU  is referenced.
   GF_LCP6_M.:E05TOU  is referenced.
   GM_LCP6_M.:E05TOU  is referenced.
   GU_LCP6_M.:E05TOU  is referenced.
   GJ_LCP6_M.:E05TOU  is referenced.
   GH_LCP6_M.:E05TOU  is referenced.
   LCP_6.:E05TOU  cannot be made into a system file and is referenced.
      No diagnostics issued in procedure KHA$DVCADM.

   Procedure KHA$DVCADM requires 1403 words for executable code.
   Procedure KHA$DVCADM requires 216 words of local(AUTO) storage.

    No errors detected in file KHA$ADMIN.:E05TSI    .

PL6.E3A0      #004=KHA$DVCADM File=KHA$ADMIN.:E05TSI                             WED 07/30/97 00:26 Page:174

 Object Unit name= KHA$DVCADM                                 File name= KHA$ADMIN.:E05TOU
 UTS= JUL 30 '97 00:26:42.16 WED                              Compiler= PL-6/E31         Sev=      00
 SharedLib= :SHARED_LCP6_SYSTEM                               Alt SharedLib=


    ****  Control sections  ****

 Sect   Type Bound  Init  Size HexSiz  Section name
    0  RoData even  UTS    562    232  KHA$DVCADM
    1   Proc  even  none  1403    57B  KHA$DVCADM
    2  RoData even  none     3      3  KHA$DVCADM

    ****  Entry defs  ****

                              Check   Calling
                             calling  sequence
  Sect HexLoc Primary Altret sequence   type   Parms  Name
     1      0   yes    yes     yes      Std        6  KHA$DVCADM
     1     37          yes     yes      Std        6  KHA$DVCADM_RNG
     1     95          yes     yes      Std        6  KHA$DVCADM_ALL

  ****  Entry refs  ****

         Check        Calling
        calling       sequence
Altret sequence SRef   type   Args  Name
         yes           Std       1 KHI$DISABLE
         yes           Std       0 KHI$ENABLE
 yes     yes           Std       2 KHA$GET_CTX_PTR
 yes     yes           Std       2 KHA$CHK_TRM_RNG
 yes     yes           Std       1 KHA$SETCLK
 yes     yes           Std       2 KHA$BLDLINPRO
                       nStd      0 X6A_AUTO_N
                       nStd      0 X6A_AALT
                       nStd      0 X6A_ARET
                       nStd      0 X6C_ALR
PL6.E3A0      #004=KHA$DVCADM File=KHA$ADMIN.:E05TSI                             WED 07/30/97 00:26 Page:175

  ****  Data refs  ****

  Flags:  r = read only, s = secondary
Flgs Name                             Flgs Name                             Flgs Name
r    KH_CHNLOW$                       r    KH_CHNHI$                        r    KH_CHNHI
r    KH_CHNLOW                             KH_ADMIN$                             KH_CTLTBL$
     KH_INHLVL                             KH_FLDWRTS                            KHA_WRITE
r    G$ROS$
PL6.E3A0      #004=KHA$DVCADM File=KHA$ADMIN.:E05TSI                             WED 07/30/97 00:26 Page:176


      915        1        /*T***********************************************************/
      916        2        /*T*                                                         */
      917        3        /*T* Copyright (c) Bull HN Information Systems Inc., 1997    */
      918        4        /*T*                                                         */
      919        5        /*T***********************************************************/
      920        6        KHA$DVCADM: PROC (OPERATION,ERROR,TERMLO,TERMHI,DATAVEC,NORETRAN) ALTRET;

      6   1 000000  D380 0000 0000  xent KHA$DVCADM      LNJ,B5   X6A_AUTO_N
          1 000003       00D8 0006                       DC       216,6

      921        7
      922        8        /*F* NAME: KHA$DVCADM - Change Channel State
      923        9
      924       10        The library device administration routine, KHA$DVCADM, maintains
      925       11        KH$CHN.STT which contains a value that reflects the state of a channel.
      926       12        This routine may be called by the library administrative routine,
      927       13        KHA$ADMIN, or by user handler routines.  The KHA$DVCADM routine may in turn
      928       14        call the user handler administrative point when necessary to
      929       15        complete the state transition.
      930       16
      931       17        The following is a table of the state transitions and the functions
      932       18        that are done:
      933       19
      934       20        .fif
      935       21        }Operation: Indicates what function is being requested of KHA$DVCADM
      936       22        }           for this channel.  The value used for operation is
      937       23        }           from the KHA_FNC_E include file and is of the form
      938       24        }           KHA_FNC_operation.  See KHA_FNC_E for more detail.
      939       25        }
      940       26        }Caller:   Indicates who originated the state transition request.
      941       27        }
      942       28        }          s(system) - refers to NODEADMN, SLUG(KEYIN,STATS or NETCON).
      943       29        }          h         - refers to the handler.
      944       30        }
      945       31        }Flags:    Indicates which channel table flags must be on for the requested
      946       32        }          state transition.  See KH$CHN.flag for more detail.
PL6.E3A0      #004=KHA$DVCADM File=KHA$ADMIN.:E05TSI                             WED 07/30/97 00:26 Page:177
      947       33        }
      948       34        }Handler function:
      949       35        }          Indicates the value that will be supplied in KH$ADMIT_FPT.FNC
      950       36        }          when the handler is called at its administrative point to
      951       37        }          complete the operation.  This value is from the KHA_FNC_E
      952       38        }          include file and is of the form KHA_FNC_function.  See
      953       39        }          KHA_FNC_E for more detail.
      954       40        }
      955       41        }          If a handler function is not specified the handler's
      956       42        }          administrative entry will not be called.
      957       43        }
      958       44        }State:    States are defined in KH$CHN.STT.
      959       45        }
      960       46        .bbk
      961       47        }Operation        Caller  Old state  New state       Flags      Hndlr function
      962       48        }---------        ------  ---------  ---------     -----------  --------------
      963       49        }ENABLE           s or h   enable      enable                    ENABLE
      964       50        }                          disable     enable        ~DED        ENABLE
      965       51        }                          bsydsbpnd   busy                      ENABLE
      966       52        }                          uninit      uninit         DED
      967       53        }                          uninit      enable                    ENABLE
      968       54        }
      969       55        .bek
      970       56        }DISABLE          s or h   disable     disable
      971       57        }                          enable      disable                   DISABLE
      972       58        }                          busy        bsydsbpnd                 DISABLE
      973       59        }                          bsydsbpnd   bsydsbpnd
      974       60        }                          lpp_enable  disable                   DISABLE
      975       61        }                          lpp_busy    lpp_bsydsbpnd
      976       62        }                          lpp_bsydsbpnd lpp_bsydsbpnd
      977       63        }
      978       64        }KILL             s or h   enable      disable                   DISABLE
      979       65        }                          busy        bsydsbpnd                 KILL
      980       66        }                          bsydsbpnd   bsydsbpnd                 KILL
      981       67        }                          lpp_enable  disable                   DISABLE
      982       68        }                          lpp_busy    bsydsbpnd                 KILL
      983       69        }                          lpp_bsydsbpnd bsydsbpnd               KILL
PL6.E3A0      #004=KHA$DVCADM File=KHA$ADMIN.:E05TSI                             WED 07/30/97 00:26 Page:178
      984       70        }                          disable     disable        DED
      985       71        }
      986       72        }PARTITION        s        enable      partition                 KILL
      987       73        }                          disable     partition                 KILL
      988       74        }                          uninit      partition                 KILL
      989       75        }
      990       76        }RETURN           s        partition   uninit
      991       77        }
      992       78        }DISCONNECT_EVT * h        busy        enable         REENB
      993       79        }                          busy        disable                   DISABLE
      994       80        }                          bsydsbpnd   disable                   DISABLE
      995       81        }
      996       82        }DISCONNECT_RQS   s or h   busy        busy                   DISCONNECT_RQS
      997       83        }                          bsydsbpnd   bsydsbpnd              DISCONNECT_RQS
      998       84        }                          lpp_busy    lpp_busy               DISCONNECT_RQS
      999       85        }                          lpp_bsydsbpnd lpp_bsydsbpnd        DISCONNECT_RQS
     1000       86        }
     1001       87        }CONNECT *        h        enable      busy
     1002       88        }
     1003       89        }INTDVC           s        uninit      enable         ENB        ENABLE
     1004       90        }                          uninit      uninit         DED        DISABLE
     1005       91        }                          partition   partition
     1006       92        }                          uninit      disable        ERR        DISABLE
     1007       93        }
     1008       94        }CNFG             s        all         same as old               CNFG
     1009       95        }
     1010       96        }RQSLINPRO        h        enable      lpp_enable
     1011       97        }                          busy        lpp_busy
     1012       98        }                          bsydsbpnd   lpp_bsydsbpnd
     1013       99        }
     1014      100        }BLDLINPRO        s        lpp_enable  enable
     1015      101        }                          lpp_busy    busy
     1016      102        }                          lpp_bsydspnd bsydsbpnd
     1017      103        }
     1018      104        }SGNRJC           s        lpp_enable  enable                    SGNRJC
     1019      105        }                          lpp_busy     busy                     SGNRJC
     1020      106        }                          lpp_bsydspnd bsydsbpnd                SGNRJC
PL6.E3A0      #004=KHA$DVCADM File=KHA$ADMIN.:E05TSI                             WED 07/30/97 00:26 Page:179
     1021      107        }
     1022      108        }CNCRQSLINPRO     h        lpp_enable  enable
     1023      109        }                          lpp_busy    busy
     1024      110        }                          lpp_bsydspnd bsydsbpnd
     1025      111        }
     1026      112        }DVCERR           h        all         same as old
     1027      113        }
     1028      114        }DVCERRRSP        s        all         same as old               DVCERRRSP
     1029      115        }
     1030      116        }HOSTDOWN         s        enable      disable        DSBHSTDWN  DISABLE
     1031      117        }                          enable      disable        KLLHSTDWN  KILL
     1032      118        }                          busy        bsydsbpnd      DSBHSTDWN
     1033      119        }                          busy        bsydsbpnd      KLLHSTDWN  KILL
     1034      120        }                          lpp_enb     disable        KLLHSTDWN  KILL
     1035      121        }                          lpp_bsy     bsydsbpnd      KLLHSTDWN  KILL
     1036      122        }                          lpp_bsydsbpnd bsydsbpnd    KLLHSTDWN  KILL
     1037      123        }                          lpp_bsy     bsydsbpnd      DSBHSTDWN  DISABLE
     1038      124        }                          lpp_enb     disable        DSBHSTDWN  DISABLE
     1039      125        }
     1040      126        }HOSTUP           s        disable     enable         ENBHSTUP   ENABLE
     1041      127        }                          bsydsbpnd   busy           ENBHSTUP
     1042      128        }
     1043      129        }ACTIVE *         h        all         same as old
     1044      130        }
     1045      131        }NOTACTIVE *      h        all         same as old
     1046      132        }
     1047      133        }        * sends administrative event to host.
     1048      134
     1049      135
     1050      136        .fin
     1051      137
     1052      138        Any requested operation which does not have a transition function
     1053      139        defined will result in an illegal state transition error and
     1054      140        the alternate return will be taken.
     1055      141
     1056      142        The form of this call is:
     1057      143
PL6.E3A0      #004=KHA$DVCADM File=KHA$ADMIN.:E05TSI                             WED 07/30/97 00:26 Page:180
     1058      144         CALL KHA$DVCADM (operation,error,term_low,term_hi,datavec,noretran) ALTRET(label);
     1059      145
     1060      146        where:
     1061      147        */
     1062      148        /*K* operation - UBIN(16).
     1063      149        contains a value that indicates what function
     1064      150        is to be performed.  Please refer to the description of KHA_FNC_E.
     1065      151        */
     1066      152
     1067      153        /*K* error - is where an error code will be returned
     1068      154        if the alternate return is taken.  This parameter is
     1069      155        in VLP_ERRCODE format.
     1070      156        The error codes are in the CP6 error message file, :ERRMSG.
     1071      157        */
     1072      158
     1073      159        /*K* term_low - a B$TERMINAL_ID structure that defines the
     1074      160        first item to be affected by this operation.
     1075      161        */
     1076      162
     1077      163        /*K* term_hi - a B$TERMINAL_ID structure that defines the
     1078      164        last item to be affected by this operation.
     1079      165        */
     1080      166
     1081      167        /*K* noretran - if specified, indicates that the caller does
     1082      168        not want the KHA$DVCADM routine to re-transmit any message
     1083      169        if any usage of M$WRITE fails.
     1084      170        */
     1085      171
     1086      172        /*K* datavec - is a vector to optional data:
     1087      173
     1088      174        .bbk
     1089      175        .fif
     1090      176                   operation            datavec structure
     1091      177                   --------             -----------------
     1092      178                   KHA_FNC_DVCERR       KL_KEYMES from file KL_MACRO_C
     1093      179                   KHA_FNC_RQSLINPRO    CHAR(255) TEXT signon string
     1094      180        .fin
PL6.E3A0      #004=KHA$DVCADM File=KHA$ADMIN.:E05TSI                             WED 07/30/97 00:26 Page:181
     1095      181        .bek
     1096      182        */
     1097      183        /* Includes */
     1098      184        %INCLUDE LCP_6;
     1099     4463        %INCLUDE CP_6_SUBS;
     1100     5003        %INCLUDE KH$CHN;
     1101     5125        %INCLUDE KH_CHN;
     1102     5165        %INCLUDE KHA_FNC_E;
     1103     5265        %INCLUDE KL_CONTROL_C;
     1104     5645        %INCLUDE KL_AFCN_C;
     1105     5746        %INCLUDE KL_MACRO_C;
     1106     9098        %INCLUDE KH_MACRO_C;
     1107     9841        %INCLUDE KHC_MAC_C;
     1108     9882        %INCLUDE B_ERRORS_C;
     1109    11009
     1110    11010        /* Parameters */
     1111    11011    1   DCL OPERATION UBIN;
     1112    11012        %VLP_ERRCODE (FPTN=ERROR,STCLASS="");
     1113    11058        %B$TERMINAL_ID (FPTN=TERMLO,STCLASS=PARAM,ALGN=ALIGNED);
     1114    11087        %B$TERMINAL_ID (FPTN=TERMHI,STCLASS=PARAM,ALGN=ALIGNED);
     1115    11116    1   DCL DATAVEC VECTOR;
     1116    11117    1   DCL NORETRAN UBIN;
     1117    11118
     1118    11119        /* Entry DCLs */
     1119    11120    1   DCL KHA$GET_CTX_PTR ENTRY(2) ALTRET;
     1120    11121    1   DCL KHA$CHK_TRM_RNG ENTRY(2) ALTRET;
     1121    11122    1   DCL KHA$UPD_CHN ENTRY(2);
     1122    11123    1   DCL KHA$BLDLINPRO ENTRY(2) ALTRET;
     1123    11124    1   DCL KHA$SETCLK ENTRY(1) ALTRET;
     1124    11125        %INHIBIT_DCLS;
     1125    11137
     1126    11138        /* Equates */
     1127    11139        /* The Following equates are for the flags in the CHN table */
     1128    11140        %EQU Y#NON = 0;
     1129    11141        %EQU Y#DED = 1;
     1130    11142        %EQU Y#ERR = 2;
     1131    11143        %EQU Y#ENB = 3;
PL6.E3A0      #004=KHA$DVCADM File=KHA$ADMIN.:E05TSI                             WED 07/30/97 00:26 Page:182
     1132    11144        %EQU Y#REENB = 4;
     1133    11145        %EQU Y#CTR = 5;
     1134    11146        %EQU Y#NOTDED = 6;
     1135    11147        %EQU Y#KLLHSTDWN = 7;
     1136    11148        %EQU Y#DSBHSTDWN = 8;
     1137    11149        %EQU Y#ENBHSTUP = 9;
     1138    11150
     1139    11151        /* The following equates are for the SOP (special operation) */
     1140    11152        %EQU Y#SOP_NON = 0;
     1141    11153        %EQU Y#SOP_INTCTR = 1;
     1142    11154        %EQU Y#SOP_ENB = 2;
     1143    11155        %EQU Y#SOP_PRT = 3;
     1144    11156        %EQU Y#SOP_UPDCHN = 4;
     1145    11157        %EQU Y#SOP_RQSLINPRO = 5;
     1146    11158        %EQU Y#SOP_BLDLINPRO = 6;
     1147    11159        %EQU Y#SOP_DVCERR = 7;
     1148    11160        %EQU Y#SOP_DVCERRRSP = 8;
     1149    11161        %EQU Y#SOP_SETENBHSTUP = 9;
     1150    11162        %EQU Y#SOP_CLRENBHSTUP = 10;
     1151    11163        %EQU Y#SOP_SNDADM = 11;
     1152    11164        %EQU Y#SOP_RSTDED = 13;
     1153    11165
     1154    11166        %MACRO TRANS (FPTN=X,
     1155    11167                       NEW(UNINT=%KH#CHN_STT_UN_INT,
     1156    11168                                BSY=%KH#CHN_STT_BSY,
     1157    11169                                BSYDSBPND=%KH#CHN_STT_BSYDSBPND,
     1158    11170                                BSYPRTPND=%KH#CHN_STT_BSYPRTPND,
     1159    11171                                DSB=%KH#CHN_STT_DSB,
     1160    11172                                ENB=%KH#CHN_STT_ENB,
     1161    11173                                LINPROPND_ENB=%KH#CHN_STT_LINPROPND_ENB,
     1162    11174                                LINPROPND_BSY=%KH#CHN_STT_LINPROPND_BSY,
     1163    11175                                LINPROPND_BSYDSBPND=%KH#CHN_STT_LINPROPND_BSYDSBPND,
     1164    11176                                PRT=%KH#CHN_STT_PRT)=-1,
     1165    11177                       OLD(UNINT=%KH#CHN_STT_UN_INT,
     1166    11178                                BSY=%KH#CHN_STT_BSY,
     1167    11179                                BSYDSBPND=%KH#CHN_STT_BSYDSBPND,
     1168    11180                                BSYPRTPND=%KH#CHN_STT_BSYPRTPND,
PL6.E3A0      #004=KHA$DVCADM File=KHA$ADMIN.:E05TSI                             WED 07/30/97 00:26 Page:183
     1169    11181                                DSB=%KH#CHN_STT_DSB,
     1170    11182                                ENB=%KH#CHN_STT_ENB,
     1171    11183                                LINPROPND_ENB=%KH#CHN_STT_LINPROPND_ENB,
     1172    11184                                LINPROPND_BSY=%KH#CHN_STT_LINPROPND_BSY,
     1173    11185                                LINPROPND_BSYDSBPND=%KH#CHN_STT_LINPROPND_BSYDSBPND,
     1174    11186                                PRT=%KH#CHN_STT_PRT)=-1,
     1175    11187                       HOP=%KHA_FNC_NON,
     1176    11188                       BSOP=%Y#SOP_NON,
     1177    11189                       ASOP=%Y#SOP_NON,
     1178    11190             FLGS(DED=%Y#DED,ERR=%Y#ERR,ENB=%Y#ENB,REENB=%Y#REENB,CTR=%Y#CTR,NOTDED=
             11190                 %Y#NOTDED,
     1179    11191                 KLLHSTDWN=%Y#KLLHSTDWN,DSBHSTDWN=%Y#DSBHSTDWN,ENBHSTUP=%Y#ENBHSTUP)=%Y#NON
             11191                      ,
     1180    11192                  STCLASS=CONSTANT,
     1181    11193                  LVL=2,
     1182    11194                  LAST(YES=1,NO=0)=0);
     1183    11195
     1184    11196        %LSET LISTDIR = '0'B;
     1185    11197        %LSET LISTEXP = '1'B;
     1186    11198        %LSET LISTCOM = '0'B;
     1187    11199        %LSET LISTSUB = '1'B;
     1188    11200        %LSET STR = SUBSTR(CONCAT(TEXTCHAR(STCLASS), '   '), 0, 3);
     1189    11201        %IF (STR = 'STA') OR (STR = 'CON') OR (STR = 'EXT');
     1190    11202        %LSET INIT = CHARTEXT(' INIT');
     1191    11203        %LSET ENIT = CHARTEXT('');
     1192    11204        %ELSE;
     1193    11205        %LSET INIT = CHARTEXT('/*');
     1194    11206        %LSET ENIT = CHARTEXT('*/');
     1195    11207        %ENDIF;
     1196    11208
     1197    11209        %IF LVL=1;
     1198    11210        DCL 1 FPTN STCLASS ALIGNED,
     1199    11211
     1200    11212                 2 %CHARTEXT('OLD ') SBIN BYTE CALIGNED %INIT(OLD)%ENIT,
     1201    11213                 2 %CHARTEXT('NEW ') SBIN BYTE CALIGNED %INIT(NEW)%ENIT,
     1202    11214                 2 %CHARTEXT('HOP ') UBIN BYTE CALIGNED %INIT(HOP)%ENIT,
     1203    11215                 2 %CHARTEXT('BSOP ') UBIN BYTE CALIGNED %INIT(BSOP)%ENIT,
PL6.E3A0      #004=KHA$DVCADM File=KHA$ADMIN.:E05TSI                             WED 07/30/97 00:26 Page:184
     1204    11216                 2 %CHARTEXT('ASOP ') UBIN BYTE CALIGNED %INIT(ASOP)%ENIT,
     1205    11217                 2 %CHARTEXT('FLGS ') UBIN BYTE CALIGNED %INIT(FLGS)%ENIT,
     1206    11218                 2 * UBIN BYTE CALIGNED %INIT(0*0)%ENIT,
     1207    11219        %IF LAST=0;
     1208    11220                 2 %CHARTEXT('LAST ') BIT(1) %INIT('0'B)%ENIT,
     1209    11221        %ELSE;
     1210    11222                 2 %CHARTEXT('LAST ') BIT(1) %INIT('1'B)%ENIT;
     1211    11223        %ENDIF;
     1212    11224        %ELSE;
     1213    11225                 2 * SBIN BYTE CALIGNED %INIT(OLD)%ENIT,
     1214    11226                 2 * SBIN BYTE CALIGNED %INIT(NEW)%ENIT,
     1215    11227                 2 * UBIN BYTE CALIGNED %INIT(HOP)%ENIT,
     1216    11228                 2 * UBIN BYTE CALIGNED %INIT(BSOP)%ENIT,
     1217    11229                 2 * UBIN BYTE CALIGNED %INIT(ASOP)%ENIT,
     1218    11230                 2 * UBIN BYTE CALIGNED %INIT(FLGS)%ENIT,
     1219    11231                 2 * UBIN BYTE CALIGNED %INIT(0*0)%ENIT,
     1220    11232        %IF LAST=0;
     1221    11233                 2 * BIT(1) %INIT('0'B)%ENIT,
     1222    11234        %ELSE;
     1223    11235                 2 * BIT(1) %INIT('1'B)%ENIT;
     1224    11236        %ENDIF;
     1225    11237        %ENDIF;
     1226    11238
     1227    11239        %MEND;
     1228    11240
     1229    11241        /* State transition table */
     1230    11242
     1231    11243        /*
     1232    11244             EVENT: DISABLE
     1233    11245         */
     1234    11246    1   DCL 1 TRAN_DISABLE CONSTANT,
     1235    11247             %TRANS (OLD=DSB,NEW=DSB);
     1236    11289             %TRANS (OLD=ENB,NEW=DSB,HOP=%KHA_FNC_DISABLE);
     1237    11331             %TRANS (OLD=BSY,NEW=BSYDSBPND,HOP=%KHA_FNC_DISABLE);
     1238    11373             %TRANS (OLD=BSYDSBPND,NEW=BSYDSBPND);
     1239    11415             %TRANS (OLD=LINPROPND_ENB,NEW=DSB,HOP=%KHA_FNC_DISABLE);
     1240    11457             %TRANS (OLD=LINPROPND_BSY,NEW=LINPROPND_BSYDSBPND);
PL6.E3A0      #004=KHA$DVCADM File=KHA$ADMIN.:E05TSI                             WED 07/30/97 00:26 Page:185
     1241    11499             %TRANS (OLD=LINPROPND_BSYDSBPND,NEW=LINPROPND_BSYDSBPND);
     1242    11541             %TRANS (LAST=YES);
     1243    11583
     1244    11584        /*
     1245    11585             EVENT: ENABLE
     1246    11586         */
     1247    11587    1   DCL 1 TRAN_ENABLE CONSTANT,
     1248    11588             %TRANS (OLD=ENB,NEW=ENB,HOP=%KHA_FNC_ENABLE,ASOP=%Y#SOP_ENB);
     1249    11630             %TRANS (OLD=DSB,NEW=ENB,HOP=%KHA_FNC_ENABLE,ASOP=%Y#SOP_ENB,FLGS=NOTDED);
     1250    11672             %TRANS (OLD=BSYDSBPND,NEW=BSY,HOP=%KHA_FNC_ENABLE);
     1251    11714             %TRANS (OLD=UNINT,NEW=UNINT,FLGS=DED);
     1252    11756             %TRANS (OLD=UNINT,NEW=ENB,HOP=%KHA_FNC_ENABLE,BSOP=%Y#SOP_INTCTR,ASOP=
             11756                 %Y#SOP_ENB);
     1253    11798             %TRANS (LAST=YES);
     1254    11840
     1255    11841        /*
     1256    11842             EVENT: KILL
     1257    11843         */
     1258    11844    1   DCL 1 TRAN_KILL CONSTANT,
     1259    11845             %TRANS (OLD=ENB,NEW=DSB,HOP=%KHA_FNC_DISABLE);
     1260    11887             %TRANS (OLD=BSY,NEW=BSYDSBPND,HOP=%KHA_FNC_KILL);
     1261    11929             %TRANS (OLD=BSYDSBPND,NEW=BSYDSBPND,HOP=%KHA_FNC_KILL);
     1262    11971             %TRANS (OLD=LINPROPND_ENB,NEW=DSB,HOP=%KHA_FNC_DISABLE);
     1263    12013             %TRANS (OLD=LINPROPND_BSY,NEW=BSYDSBPND,HOP=%KHA_FNC_KILL);
     1264    12055             %TRANS (OLD=LINPROPND_BSYDSBPND,NEW=BSYDSBPND,HOP=%KHA_FNC_KILL);
     1265    12097             %TRANS (OLD=DSB,NEW=DSB,FLGS=DED,ASOP=%Y#SOP_RSTDED);
     1266    12139             %TRANS (LAST=YES);
     1267    12181
     1268    12182        /*
     1269    12183             EVENT: INTDVC
     1270    12184         */
     1271    12185    1   DCL 1 TRAN_INTDVC CONSTANT,
     1272    12186             %TRANS (OLD=PRT,NEW=PRT);
     1273    12228             %TRANS (OLD=UNINT,NEW=DSB,HOP=%KHA_FNC_DISABLE,BSOP=%Y#SOP_INTCTR,FLGS=ERR);
     1274    12270             %TRANS (OLD=UNINT,NEW=UNINT,HOP=%KHA_FNC_DISABLE,BSOP=%Y#SOP_INTCTR,FLGS=DED);
     1275    12312            %TRANS (OLD=UNINT,NEW=ENB,HOP=%KHA_FNC_ENABLE,BSOP=%Y#SOP_INTCTR,FLGS=ENB,ASOP=
             12312                 %Y#SOP_ENB);
PL6.E3A0      #004=KHA$DVCADM File=KHA$ADMIN.:E05TSI                             WED 07/30/97 00:26 Page:186
     1276    12354             %TRANS (OLD=UNINT,NEW=DSB,HOP=%KHA_FNC_DISABLE,BSOP=%Y#SOP_INTCTR);
     1277    12396             %TRANS (LAST=YES);
     1278    12438
     1279    12439        /*
     1280    12440             EVENT: DISCONNECT_EVT (from a handler)
     1281    12441         */
     1282    12442    1   DCL 1 TRAN_DISCONNECT_EVT CONSTANT,
     1283    12443             %TRANS (OLD=BSY,NEW=ENB,FLGS=REENB,ASOP=%Y#SOP_SNDADM);
     1284    12485             %TRANS (OLD=BSY,NEW=DSB,HOP=%KHA_FNC_DISABLE,ASOP=%Y#SOP_SNDADM);
     1285    12527             %TRANS (OLD=BSYDSBPND,NEW=DSB,HOP=%KHA_FNC_DISABLE,ASOP=%Y#SOP_SNDADM);
     1286    12569             %TRANS (LAST=YES);
     1287    12611
     1288    12612        /*
     1289    12613             EVENT: DISCONNECT_RQS (from a host)
     1290    12614         */
     1291    12615    1   DCL 1 TRAN_DISCONNECT_RQS CONSTANT,
     1292    12616             %TRANS (OLD=BSY,NEW=BSY,HOP=%KHA_FNC_DISCONNECT_RQS);
     1293    12658             %TRANS (OLD=BSYDSBPND,NEW=BSYDSBPND,HOP=%KHA_FNC_DISCONNECT_RQS);
     1294    12700             %TRANS (OLD=LINPROPND_BSY,NEW=LINPROPND_BSY,HOP=%KHA_FNC_DISCONNECT_RQS);
     1295    12742             %TRANS (OLD=LINPROPND_BSYDSBPND,NEW=LINPROPND_BSYDSBPND,HOP=
             12742                 %KHA_FNC_DISCONNECT_RQS);
     1296    12784             %TRANS (LAST=YES);
     1297    12826
     1298    12827        /*
     1299    12828             EVENT: CONNECT
     1300    12829         */
     1301    12830    1   DCL 1 TRAN_CONNECT CONSTANT,
     1302    12831             %TRANS (OLD=ENB,NEW=BSY,ASOP=%Y#SOP_SNDADM);
     1303    12873             %TRANS (LAST=YES);
     1304    12915
     1305    12916        /*
     1306    12917             EVENT: CONFIG
     1307    12918         */
     1308    12919    1   DCL 1 TRAN_CONFIG CONSTANT,
     1309    12920             %TRANS (OLD=DSB,NEW=DSB,BSOP=%Y#SOP_UPDCHN,HOP=%KHA_FNC_CNFG);
     1310    12962             %TRANS (OLD=ENB,NEW=ENB,BSOP=%Y#SOP_UPDCHN,HOP=%KHA_FNC_CNFG);
     1311    13004             %TRANS (OLD=BSY,NEW=BSY,BSOP=%Y#SOP_UPDCHN,HOP=%KHA_FNC_CNFG);
PL6.E3A0      #004=KHA$DVCADM File=KHA$ADMIN.:E05TSI                             WED 07/30/97 00:26 Page:187
     1312    13046             %TRANS (OLD=BSYDSBPND,NEW=BSYDSBPND,BSOP=%Y#SOP_UPDCHN,HOP=%KHA_FNC_CNFG);
     1313    13088             %TRANS (OLD=UNINT,NEW=UNINT,BSOP=%Y#SOP_UPDCHN);
     1314    13130             %TRANS (LAST=YES);
     1315    13172
     1316    13173        /*
     1317    13174             EVENT: RELEASE
     1318    13175         */
     1319    13176    1   DCL 1 TRAN_PARTITION CONSTANT,
     1320    13177             %TRANS (OLD=DSB,NEW=PRT,HOP=%KHA_FNC_KILL,ASOP=%Y#SOP_PRT);
     1321    13219             %TRANS (OLD=UNINT,NEW=PRT,HOP=%KHA_FNC_KILL,ASOP=%Y#SOP_PRT);
     1322    13261             %TRANS (LAST=YES);
     1323    13303
     1324    13304        /*
     1325    13305             EVENT: RETURN
     1326    13306         */
     1327    13307    1   DCL 1 TRAN_RETURN CONSTANT,
     1328    13308             %TRANS (OLD=PRT,NEW=UNINT);
     1329    13350             %TRANS (LAST=YES);
     1330    13392
     1331    13393        /*
     1332    13394             EVENT: SGNRJC
     1333    13395        */
     1334    13396    1   DCL 1 TRAN_SGNRJC CONSTANT,
     1335    13397             %TRANS (OLD=LINPROPND_ENB,NEW=ENB,HOP=%KHA_FNC_SGNRJC);
     1336    13439             %TRANS (OLD=LINPROPND_BSY,NEW=BSY,HOP=%KHA_FNC_SGNRJC);
     1337    13481             %TRANS (OLD=LINPROPND_BSYDSBPND,NEW=BSYDSBPND,HOP=%KHA_FNC_SGNRJC);
     1338    13523             %TRANS (LAST=YES);
     1339    13565
     1340    13566        /*
     1341    13567             EVENT: BLDLINPRO
     1342    13568        */
     1343    13569    1   DCL 1 TRAN_BLDLINPRO CONSTANT,
     1344    13570             %TRANS (OLD=LINPROPND_ENB,NEW=ENB,BSOP=%Y#SOP_BLDLINPRO);
     1345    13612             %TRANS (OLD=LINPROPND_BSY,NEW=BSY,BSOP=%Y#SOP_BLDLINPRO);
     1346    13654             %TRANS (OLD=LINPROPND_BSYDSBPND,NEW=BSYDSBPND,BSOP=%Y#SOP_BLDLINPRO);
     1347    13696             %TRANS (LAST=YES);
     1348    13738
PL6.E3A0      #004=KHA$DVCADM File=KHA$ADMIN.:E05TSI                             WED 07/30/97 00:26 Page:188
     1349    13739        /*
     1350    13740             EVENT: RQSLINPRO
     1351    13741        */
     1352    13742    1   DCL 1 TRAN_RQSLINPRO CONSTANT,
     1353    13743             %TRANS (OLD=ENB,NEW=LINPROPND_ENB,BSOP=%Y#SOP_RQSLINPRO);
     1354    13785             %TRANS (OLD=BSY,NEW=LINPROPND_BSY,BSOP=%Y#SOP_RQSLINPRO);
     1355    13827             %TRANS (OLD=BSYDSBPND,NEW=LINPROPND_BSYDSBPND,BSOP=%Y#SOP_RQSLINPRO);
     1356    13869             %TRANS (LAST=YES);
     1357    13911
     1358    13912        /*
     1359    13913             EVENT: CNCRQSLINPRO
     1360    13914        */
     1361    13915    1   DCL 1 TRAN_CNCRQSLINPRO CONSTANT,
     1362    13916              %TRANS (OLD=LINPROPND_ENB,NEW=ENB);
     1363    13958              %TRANS (OLD=LINPROPND_BSY,NEW=BSY);
     1364    14000              %TRANS (OLD=LINPROPND_BSYDSBPND,NEW=BSYDSBPND);
     1365    14042              %TRANS (LAST=YES);
     1366    14084
     1367    14085        /*
     1368    14086             EVENT: DVCERR
     1369    14087        */
     1370    14088    1   DCL 1 TRAN_DVCERR CONSTANT,
     1371    14089              %TRANS (OLD=UNINT,NEW=UNINT,BSOP=%Y#SOP_DVCERR);
     1372    14131              %TRANS (OLD=BSY,NEW=BSY,BSOP=%Y#SOP_DVCERR);
     1373    14173              %TRANS (OLD=BSYDSBPND,NEW=BSYDSBPND,BSOP=%Y#SOP_DVCERR);
     1374    14215              %TRANS (OLD=BSYPRTPND,NEW=BSYPRTPND,BSOP=%Y#SOP_DVCERR);
     1375    14257              %TRANS (OLD=DSB,NEW=DSB,BSOP=%Y#SOP_DVCERR);
     1376    14299              %TRANS (OLD=ENB,NEW=ENB,BSOP=%Y#SOP_DVCERR);
     1377    14341              %TRANS (OLD=LINPROPND_ENB,NEW=LINPROPND_ENB,BSOP=%Y#SOP_DVCERR);
     1378    14383              %TRANS (OLD=LINPROPND_BSY,NEW=LINPROPND_BSY,BSOP=%Y#SOP_DVCERR);
     1379    14425              %TRANS (OLD=LINPROPND_BSYDSBPND,NEW=LINPROPND_BSYDSBPND,BSOP=%Y#SOP_DVCERR);
     1380    14467              %TRANS (OLD=PRT,NEW=PRT,BSOP=%Y#SOP_DVCERR);
     1381    14509              %TRANS (LAST=YES);
     1382    14551
     1383    14552        /*
     1384    14553             EVENT: DVCERRRSP
     1385    14554        */
PL6.E3A0      #004=KHA$DVCADM File=KHA$ADMIN.:E05TSI                             WED 07/30/97 00:26 Page:189
     1386    14555    1   DCL 1 TRAN_DVCERRRSP CONSTANT,
     1387    14556              %TRANS (OLD=UNINT,NEW=UNINT,BSOP=%Y#SOP_DVCERRRSP,HOP=%KHA_FNC_DVCERRRSP);
     1388    14598              %TRANS (OLD=BSY,NEW=BSY,BSOP=%Y#SOP_DVCERRRSP,HOP=%KHA_FNC_DVCERRRSP);
     1389    14640              %TRANS (OLD=BSYDSBPND,NEW=BSYDSBPND,BSOP=%Y#SOP_DVCERRRSP,HOP=
             14640                  %KHA_FNC_DVCERRRSP);
     1390    14682              %TRANS (OLD=BSYPRTPND,NEW=BSYPRTPND,BSOP=%Y#SOP_DVCERRRSP,HOP=
             14682                  %KHA_FNC_DVCERRRSP);
     1391    14724              %TRANS (OLD=DSB,NEW=DSB,BSOP=%Y#SOP_DVCERRRSP,HOP=%KHA_FNC_DVCERRRSP);
     1392    14766              %TRANS (OLD=ENB,NEW=ENB,BSOP=%Y#SOP_DVCERRRSP,HOP=%KHA_FNC_DVCERRRSP);
     1393    14808              %TRANS (OLD=LINPROPND_ENB,NEW=LINPROPND_ENB,BSOP=%Y#SOP_DVCERRRSP,HOP=
             14808                  %KHA_FNC_DVCERRRSP);
     1394    14850              %TRANS (OLD=LINPROPND_BSY,NEW=LINPROPND_BSY,BSOP=%Y#SOP_DVCERRRSP,HOP=
             14850                  %KHA_FNC_DVCERRRSP);
     1395    14892             %TRANS (OLD=LINPROPND_BSYDSBPND,NEW=LINPROPND_BSYDSBPND,BSOP=%Y#SOP_DVCERRRSP,
             14892                  HOP=%KHA_FNC_DVCERRRSP);
     1396    14934              %TRANS (OLD=PRT,NEW=PRT,BSOP=%Y#SOP_DVCERRRSP,HOP=%KHA_FNC_DVCERRRSP);
     1397    14976              %TRANS (LAST=YES);
     1398    15018
     1399    15019        /*
     1400    15020             EVENT: HOSTDOWN
     1401    15021         */
     1402    15022    1   DCL 1 TRAN_HOSTDOWN CONSTANT,
     1403    15023             %TRANS(OLD=ENB,NEW=DSB,HOP=%KHA_FNC_DISABLE,ASOP=%Y#SOP_SETENBHSTUP,FLGS=
             15023                 DSBHSTDWN);
     1404    15065            %TRANS(OLD=ENB,NEW=DSB,HOP=%KHA_FNC_KILL,ASOP=%Y#SOP_SETENBHSTUP,FLGS=KLLHSTDWN
             15065                 );
     1405    15107             %TRANS(OLD=BSY,NEW=BSYDSBPND,ASOP=%Y#SOP_SETENBHSTUP,FLGS=DSBHSTDWN);
     1406    15149             %TRANS(OLD=BSY,NEW=BSYDSBPND,HOP=%KHA_FNC_KILL,ASOP=%Y#SOP_SETENBHSTUP,FLGS=
             15149                 KLLHSTDWN);
     1407    15191            %TRANS(OLD=LINPROPND_ENB,NEW=DSB,HOP=%KHA_FNC_KILL,ASOP=%Y#SOP_SETENBHSTUP,FLGS
             15191                 =KLLHSTDWN);
     1408    15233             %TRANS(OLD=LINPROPND_BSY,NEW=BSYDSBPND,HOP=%KHA_FNC_KILL,ASOP=
             15233                 %Y#SOP_SETENBHSTUP,FLGS=KLLHSTDWN);
     1409    15275             %TRANS(OLD=LINPROPND_BSYDSBPND,NEW=BSYDSBPND,HOP=%KHA_FNC_KILL,ASOP=
             15275                 %Y#SOP_SETENBHSTUP,FLGS=KLLHSTDWN);
     1410    15317             %TRANS(OLD=LINPROPND_ENB,NEW=DSB,HOP=%KHA_FNC_DISABLE,ASOP=%Y#SOP_SETENBHSTUP,
             15317                 FLGS=DSBHSTDWN);
PL6.E3A0      #004=KHA$DVCADM File=KHA$ADMIN.:E05TSI                             WED 07/30/97 00:26 Page:190
     1411    15359             %TRANS(OLD=LINPROPND_BSY,NEW=BSYDSBPND,HOP=%KHA_FNC_DISABLE,ASOP=
             15359                 %Y#SOP_SETENBHSTUP,FLGS=DSBHSTDWN);
     1412    15401             %TRANS(LAST=YES);
     1413    15443
     1414    15444        /*
     1415    15445             HOST UP
     1416    15446
     1417    15447         */
     1418    15448    1   DCL 1 TRAN_HOSTUP CONSTANT,
     1419    15449             %TRANS(OLD=DSB,NEW=ENB,HOP=%KHA_FNC_ENABLE,BSOP=%Y#SOP_CLRENBHSTUP,FLGS=
             15449                 ENBHSTUP);
     1420    15491             %TRANS(OLD=BSYDSBPND,NEW=BSY,BSOP=%Y#SOP_CLRENBHSTUP,FLGS=ENBHSTUP);
     1421    15533        %TRANS(OLD=BSY,NEW=BSY,HOP=%KHA_FNC_HOSTUP);
     1422    15575        %TRANS(OLD=ENB,NEW=ENB,HOP=%KHA_FNC_HOSTUP);
     1423    15617             %TRANS (LAST=YES);
     1424    15659
     1425    15660
     1426    15661        /*
     1427    15662             EVENT: ACTIVE
     1428    15663         */
     1429    15664    1   DCL 1 TRAN_ACTIVE CONSTANT,
     1430    15665             %TRANS(ASOP=%Y#SOP_SNDADM);
     1431    15707             %TRANS(LAST=YES);
     1432    15749
     1433    15750        /*E* ERROR: KHA-E$ILGLTRANS
     1434    15751             MESSAGE: That function is illegal for the current state.
     1435    15752          MESSAGE1: The function specified conflicts with the current state of the channel.
     1436    15753         */
     1437    15754        /*E* ERROR: KHA-E$DEDCHN
     1438    15755             MESSAGE: That channel is dead.  KILL channel and try again.
     1439    15756             MESSAGE1: That function is illegal on a dead channel.
     1440    15757        */
     1441    15758        /*E* ERROR: KHA-E$CLKFAILED
     1442    15759             MESSAGE: KHC$CLOCK altreturned.
     1443    15760             MESSAGE1: An M$READ or M$WRITE failed.  A clock setup to
     1444    15761                      reissue the read/write also failed.
     1445    15762        */
PL6.E3A0      #004=KHA$DVCADM File=KHA$ADMIN.:E05TSI                             WED 07/30/97 00:26 Page:191
     1446    15763
     1447    15764
     1448    15765        /*
     1449    15766             The next item is an array pointing to the different transition
     1450    15767              table for each event.  If KHA_FNC_E changes this table needs to
     1451    15768              change also.
     1452    15769         */
     1453    15770    1   DCL TRANS_TABLE$(0:%KHA_FNC_HI) PTR CONSTANT INIT(
     1454    15771    1                          ADDR(NIL) ,      /* %KHA_FNC_NON                       */
     1455    15772    1                       ADDR(TRAN_ENABLE) , /* %KHA_FNC_ENABLE                    */
     1456    15773    1                      ADDR(TRAN_DISABLE) , /* %KHA_FNC_DISABLE                   */
     1457    15774    1                         ADDR(TRAN_KILL) , /* %KHA_FNC_KILL                      */
     1458    15775    1                               ADDR(NIL) , /* %KHA_FNC_REQSTATS                  */
     1459    15776    1                               ADDR(NIL) , /* %KHA_FNC_CONTROL                   */
     1460    15777    1                      ADDR(NIL)          , /* %KHA_FNC_RELEASE                   */
     1461    15778    1                    ADDR(TRAN_PARTITION) , /* %KHA_FNC_PARTITION                 */
     1462    15779    1                    ADDR(TRAN_PARTITION) , /* %KHA_FNC_PARTITION_DGN             */
     1463    15780    1                       ADDR(TRAN_RETURN) , /* %KHA_FNC_RETURN                    */
     1464    15781    1                               ADDR(NIL) , /* %KHA_FNC_BLDCTX                    */
     1465    15782    1                               ADDR(NIL) , /* %KHA_FNC_BLDCTXCMP                 */
     1466    15783    1               ADDR(TRAN_DISCONNECT_EVT) , /* %KHA_FNC_DISCONNECT_EVT        */
     1467    15784    1               ADDR(TRAN_DISCONNECT_RQS) , /* %KHA_FNC_DISCONNECT_RQS        */
     1468    15785    1                      ADDR(TRAN_CONNECT) , /* %KHA_FNC_CONNECT                   */
     1469    15786    1                       ADDR(NIL) ,         /* %KHA_FNC_INTCTR                    */
     1470    15787    1                       ADDR(TRAN_INTDVC) , /* %KHA_FNC_INTDVC                    */
     1471    15788    1                       ADDR(TRAN_CONFIG) , /* %KHA_FNC_CNFG                      */
     1472    15789    1                  ADDR(TRAN_RQSLINPRO) ,   /* %KHA_FNC_RQSLINPRO              */
     1473    15790    1                  ADDR(TRAN_BLDLINPRO) ,   /* %KHA_FNC_BLDLINPRO                 */
     1474    15791    1                               ADDR(NIL) , /* %KHA_FNC_RQSDEFPRO                 */
     1475    15792    1                   ADDR(TRAN_SGNRJC),      /* %KHA_FNC_SGNRJC                 */
     1476    15793    1                  ADDR(TRAN_CNCRQSLINPRO), /* %KHA_FNC_CNCRQSLINPRO */
     1477    15794    1                    ADDR(TRAN_DVCERR),     /* %KHA_FNC_DVCERR */
     1478    15795    1                    ADDR(TRAN_DVCERRRSP),  /* %KHA_FNC_DVCERRRSP                 */
     1479    15796    1                   ADDR(TRAN_HOSTDOWN),    /* %KHA_FNC_HOSTDOWN                  */
     1480    15797    1                   ADDR(TRAN_HOSTUP),      /* %KHA_FNC_HOSTUP                    */
     1481    15798    1                   ADDR(NIL),              /* %KHA_FNC_CHNTBL  */
     1482    15799    1                   ADDR(TRAN_ACTIVE),      /* %KHA_FNC_ACTIVE                    */
PL6.E3A0      #004=KHA$DVCADM File=KHA$ADMIN.:E05TSI                             WED 07/30/97 00:26 Page:192
     1483    15800    1                   ADDR(TRAN_ACTIVE)  /* %KHA_FNC_NOTACTIVE                    */
     1484    15801    1                                     );
     1485    15802
     1486    15803
     1487    15804        %KH$CHN(NAME=CHN_C,STCLASS=CONSTANT);
     1488    15928        %KH$CHN(NAME=CHN,STCLASS=AUTO);
     1489    16052        /* SYMREFS */
     1490    16053        %KH_CHNDAT;
     1491    16071    1   DCL KH_ADMIN$ EPTR SYMREF;
     1492    16072    1   DCL KH_NA_DCB# UBIN SYMREF;
     1493    16073    1   DCL KH_CTLTBL$ PTR SYMREF;
     1494    16074    1   DCL KH_INHLVL UBIN SYMREF;
     1495    16075    1   DCL KH_FLDWRTS SBIN SYMREF;
     1496    16076
     1497    16077        /* Auto */
     1498    16078    1   DCL TRANS$ PTR;
     1499    16079    1   DCL CHN$ PTR;
     1500    16080    1   DCL CTR$ PTR;
     1501    16081    1   DCL CTRCHN UBIN;
     1502    16082    1   DCL CTRTYPE UBIN;
     1503    16083    1   DCL LEV UBIN;
     1504    16084        %B$TERMINAL_ID (FPTN=TERMID,STCLASS=AUTO);
     1505    16113        %B$TERMINAL_ID (FPTN=TMP_TERMID,STCLASS=AUTO);
     1506    16142        %B$TERMINAL_ID (FPTN=TERMID_C,STCLASS=CONSTANT);
     1507    16171    1   DCL LIN$ PTR;
     1508    16172    1   DCL SIZE UBIN;
     1509    16173        %KH$ADMIN_FPT (FPTN=ADMIN_FPT,STCLASS=AUTO);
     1510    16384    1   DCL HOP UBIN;
     1511    16385    1   DCL BSOP UBIN;
     1512    16386    1   DCL ASOP UBIN;
     1513    16387    1   DCL NEW SBIN;
     1514    16388    1   DCL OLD UBIN;
     1515    16389    1   DCL STOP_FLAG BIT(1);
     1516    16390    1   DCL CHAN UBIN;
     1517    16391    1   DCL CHANLO UBIN;
     1518    16392    1   DCL CHANHI UBIN;
     1519    16393    1   DCL SUB UBIN;
PL6.E3A0      #004=KHA$DVCADM File=KHA$ADMIN.:E05TSI                             WED 07/30/97 00:26 Page:193
     1520    16394    1   DCL SUBLO UBIN;
     1521    16395    1   DCL SUBHI UBIN;
     1522    16396    1   DCL SUBSUB UBIN;
     1523    16397    1   DCL SUBSUBLO UBIN;
     1524    16398    1   DCL SUBSUBHI UBIN;
     1525    16399    1   DCL RQSPRO_BUF(0:59) UBIN WORD;
     1526    16400    1   DCL RQSPRO$ PTR;
     1527    16401        %KL_RQSCHN (FPTN=KL_RQSPRO,STCLASS="BASED(RQSPRO$)");
     1528    16504        %FPT_WRITE (FPTN=KHA_WRITE,STCLASS=SYMREF);
     1529    16528        %KL_ADMIN (FPTN=ADMINC,STCLASS=CONSTANT,ORIGIN='KHA$ADMN');
     1530    16689        %KL_ADMIN (FPTN=ADMIN,STCLASS=AUTO,ORIGIN='KHA$ADMN');
     1531    16850    1   DCL KEYIN UBIN;
     1532    16851
     1533    16852        /* Based */
     1534    16853        %TRANS (FPTN=B$TRANS,STCLASS="BASED(TRANS$)",LVL=1,LAST=YES);
     1535    16895        %KH$CHN (STCLASS="BASED(CHN$)");
     1536    17019        %KL_HNDCMN_INFO (FPTN=KHA,STCLASS=BASED,LAST=";");
     1537    17099    1   DCL ONEWORD UBIN WORD BASED;
     1538    17100    1   DCL SIGNON CHAR(SIZE) BASED;
     1539    17101        %KH$CTLTBL (STCLASS="BASED(KH_CTLTBL$)");
     1540    17313
     1541    17314        /* ERRCODES */
     1542    17315        %VLP_ERRCODE (FPTN=ERR_BADCHN,FCG=KH,MID=A,MON='1'B,ERR#=%E$CHAN_NOT_THERE,STCLASS=
             17315            CONSTANT);
     1543    17361        /*E* ERROR: KHA-E$CHAN_NOT_THERE
     1544    17362             MESSAGE: That channel is undefined.
     1545    17363         */
     1546    17364        %VLP_ERRCODE (FPTN=ERR_ILGLTRANS,FCG=KH,MID=A,MON='1'B,ERR#=%E$ILGLTRANS,STCLASS=
             17364            CONSTANT);
     1547    17410        %VLP_ERRCODE(FPTN=ERR_CLKFAILED,FCG=KH,MID=A,MON='1'B,ERR#=%E$CLKFAILED,STCLASS=
             17410            CONSTANT);
     1548    17456       %VLP_ERRCODE (FPTN=ERR_DEDCHN,FCG=KH,MID=A,MON='1'B,ERR#=%E$DEDCHN,STCLASS=CONSTANT)
             17456            ;
     1549    17502        %EJECT;
PL6.E3A0      #004=KHA$DVCADM File=KHA$ADMIN.:E05TSI                             WED 07/30/97 00:26 Page:194
     1550    17503    1        INHIBIT_LEVEL = KH_INHLVL;

  17503   1 000005  E800 0000 0000  xsym                 LDR,R6   KH_INHLVL
          1 000008  EF47 0010                            STR,R6   INHIBIT_LEVEL,AUTO

     1551    17504             %DISABLE;

  17505   1 00000A  EF47 0011                            STR,R6   DISABLE_LEVEL,AUTO

  17506   1 00000C  EBC7 0011                            LAB,B6   DISABLE_LEVEL,AUTO
          1 00000E  EFC7 00D2                            STB,B6   KEYIN+3,AUTO
          1 000010  BBC7 00D2                            LAB,B3   KEYIN+3,AUTO
          1 000012  CBF0 0100                            LAB,B4   256,IMO
          1 000014  E380 0000 0000  xent                 LNJ,B6   KHI$DISABLE
          1 000017       0001                            DC       s:17508,PREL

     1552    17508    1        LEV = TERMLO.LEV;

  17508   1 000018  ECC7 0008                            LDB,B6   @TERMLO,AUTO
          1 00001A  E806                                 LDR,R6   ,B6
          1 00001B  E570 00FF                            AND,R6   255,IMO
          1 00001D  EF47 003A                            STR,R6   LEV,AUTO

     1553    17509    1        CHANLO = TERMLO.TERM.CHANNEL / 128;

  17509   1 00001F  D846 0001                            LDR,R5   1,B6
          1 000021  5047                                 SOR,R5   7
          1 000022  DF47 0067                            STR,R5   CHANLO,AUTO

     1554    17510    1        CHANHI = CHANLO;

  17510   1 000024  DF47 0068                            STR,R5   CHANHI,AUTO

     1555    17511    1        SUBLO = TERMLO.TERM.SUBDEVICE;

  17511   1 000026  C846 0002                            LDR,R4   2,B6
          1 000028  CF47 006A                            STR,R4   SUBLO,AUTO
PL6.E3A0      #004=KHA$DVCADM File=KHA$ADMIN.:E05TSI                             WED 07/30/97 00:26 Page:195

     1556    17512    1        SUBHI = SUBLO;

  17512   1 00002A  CF47 006B                            STR,R4   SUBHI,AUTO

     1557    17513    1        SUBSUBLO = TERMLO.TERM.SUBSUBDEVICE;

  17513   1 00002C  B846 0003                            LDR,R3   3,B6
          1 00002E  BF47 006D                            STR,R3   SUBSUBLO,AUTO

     1558    17514    1        SUBSUBHI = SUBSUBLO;

  17514   1 000030  BF47 006E                            STR,R3   SUBSUBHI,AUTO

     1559    17515    1        STOP_FLAG = '1'B;

  17515   1 000032  8947 0065                            LBT,'8000'X       STOP_FLAG,AUTO
  17515   1 000034       8000

     1560    17516    1        GOTO COMMON;

  17516   1 000035  0F81 0096                            B        s:17557,PREL

     1561    17517        %EJECT;
PL6.E3A0      #004=KHA$DVCADM File=KHA$ADMIN.:E05TSI                             WED 07/30/97 00:26 Page:196
     1562    17518    1   KHA$DVCADM_RNG: ENTRY (OPERATION,ERROR,TERMLO,TERMHI,DATAVEC,NORETRAN) ALTRET;

  17518   1 000037  D380 0000 0000  xent KHA$DVCADM_RNG  LNJ,B5   X6A_AUTO_N
          1 00003A       00D8 0006                       DC       216,6

     1563    17519    1        INHIBIT_LEVEL = KH_INHLVL;

  17519   1 00003C  E800 0000 0000  xsym                 LDR,R6   KH_INHLVL
          1 00003F  EF47 0010                            STR,R6   INHIBIT_LEVEL,AUTO

     1564    17520             %DISABLE;

  17521   1 000041  EF47 0011                            STR,R6   DISABLE_LEVEL,AUTO

  17522   1 000043  EBC7 0011                            LAB,B6   DISABLE_LEVEL,AUTO
          1 000045  EFC7 00D2                            STB,B6   KEYIN+3,AUTO
          1 000047  BBC7 00D2                            LAB,B3   KEYIN+3,AUTO
          1 000049  CBF0 0100                            LAB,B4   256,IMO
          1 00004B  E380 0000 0000  xent                 LNJ,B6   KHI$DISABLE
          1 00004E       0001                            DC       s:17524,PREL

     1565    17524    2        CALL KHA$CHK_TRM_RNG(TERMLO,TERMHI) WHENALTRETURN DO;

  17524   1 00004F  BBC7 0008                            LAB,B3   @TERMLO,AUTO
          1 000051  CBF0 0200                            LAB,B4   512,IMO
          1 000053  E380 0000 0000  xent                 LNJ,B6   KHA$CHK_TRM_RNG
          1 000056       0003                            DC       s:17525,PREL
          1 000057  0F81 0016                            B        s:17534,PREL

     1566    17525    2             ERROR = ERR_BADCHN;

  17525   1 000059  8C80 0000 022A  00                   LDI      ERR_BADCHN
          1 00005C  ECC7 0006                            LDB,B6   @ERROR,AUTO
          1 00005E  8D06                                 SDI      ,B6

     1567    17526                  %ENABLE;

PL6.E3A0      #004=KHA$DVCADM File=KHA$ADMIN.:E05TSI                             WED 07/30/97 00:26 Page:197
  17527   1 00005F  D847 0011                            LDR,R5   DISABLE_LEVEL,AUTO
          1 000061  D947 0010                            CMR,R5   INHIBIT_LEVEL,AUTO
          1 000063  0901 0007                            BE       s:17532,PREL

  17529   1 000065  CBF0 0000                            LAB,B4   0,IMO
          1 000067  E380 0000 0000  xent                 LNJ,B6   KHI$ENABLE
          1 00006A       0001                            DC       s:17532,PREL

     1568    17532    2             ALTRETURN;

  17532   1 00006B  C380 0000 0000  xent                 LNJ,B4   X6A_AALT

     1569    17533    2           END;                            /* WHENALTRETURN */
     1570    17534    1        LEV = TERMLO.LEV;

  17534   1 00006E  ECC7 0008                            LDB,B6   @TERMLO,AUTO
          1 000070  E806                                 LDR,R6   ,B6
          1 000071  E570 00FF                            AND,R6   255,IMO
          1 000073  EF47 003A                            STR,R6   LEV,AUTO

     1571    17535    1        CHANLO = TERMLO.TERM.CHANNEL / 128;

  17535   1 000075  D846 0001                            LDR,R5   1,B6
          1 000077  5047                                 SOR,R5   7
          1 000078  DF47 0067                            STR,R5   CHANLO,AUTO

     1572    17536    1        CHANHI = TERMHI.TERM.CHANNEL / 128;

  17536   1 00007A  DCC7 000A                            LDB,B5   @TERMHI,AUTO
          1 00007C  C845 0001                            LDR,R4   1,B5
          1 00007E  4047                                 SOR,R4   7
          1 00007F  CF47 0068                            STR,R4   CHANHI,AUTO

     1573    17537    1        SUBLO = TERMLO.TERM.SUBDEVICE;

  17537   1 000081  B846 0002                            LDR,R3   2,B6
          1 000083  BF47 006A                            STR,R3   SUBLO,AUTO
PL6.E3A0      #004=KHA$DVCADM File=KHA$ADMIN.:E05TSI                             WED 07/30/97 00:26 Page:198

     1574    17538    1        SUBHI = TERMHI.TERM.SUBDEVICE;

  17538   1 000085  A845 0002                            LDR,R2   2,B5
          1 000087  AF47 006B                            STR,R2   SUBHI,AUTO

     1575    17539    1        SUBSUBLO = TERMLO.TERM.SUBSUBDEVICE;

  17539   1 000089  9846 0003                            LDR,R1   3,B6
          1 00008B  9F47 006D                            STR,R1   SUBSUBLO,AUTO

     1576    17540    1        SUBSUBHI = TERMHI.TERM.SUBSUBDEVICE;

  17540   1 00008D  E845 0003                            LDR,R6   3,B5
          1 00008F  EF47 006E                            STR,R6   SUBSUBHI,AUTO

     1577    17541    1        STOP_FLAG = '0'B;

  17541   1 000091  8747 0065                            CL       STOP_FLAG,AUTO

     1578    17542    1        GOTO COMMON;

  17542   1 000093  0F81 0038                            B        s:17557,PREL

     1579    17543        %EJECT;
PL6.E3A0      #004=KHA$DVCADM File=KHA$ADMIN.:E05TSI                             WED 07/30/97 00:26 Page:199
     1580    17544    1   KHA$DVCADM_ALL: ENTRY (OPERATION,ERROR,TERMLO,TERMHI,DATAVEC,NORETRAN) ALTRET;

  17544   1 000095  D380 0000 0000  xent KHA$DVCADM_ALL  LNJ,B5   X6A_AUTO_N
          1 000098       00D8 0006                       DC       216,6

     1581    17545    1        INHIBIT_LEVEL = KH_INHLVL;

  17545   1 00009A  E800 0000 0000  xsym                 LDR,R6   KH_INHLVL
          1 00009D  EF47 0010                            STR,R6   INHIBIT_LEVEL,AUTO

     1582    17546             %DISABLE;

  17547   1 00009F  EF47 0011                            STR,R6   DISABLE_LEVEL,AUTO

  17548   1 0000A1  EBC7 0011                            LAB,B6   DISABLE_LEVEL,AUTO
          1 0000A3  EFC7 00D2                            STB,B6   KEYIN+3,AUTO
          1 0000A5  BBC7 00D2                            LAB,B3   KEYIN+3,AUTO
          1 0000A7  CBF0 0100                            LAB,B4   256,IMO
          1 0000A9  E380 0000 0000  xent                 LNJ,B6   KHI$DISABLE
          1 0000AC       0001                            DC       s:17550,PREL

     1583    17550    1        CHANLO = KH_CHNLOW$->KH$CHN.CHNBIT0_9 * 64 / 128;

  17550   1 0000AD  EC80 0000 0000  xsym                 LDB,B6   KH_CHNLOW$
          1 0000B0  E806                                 LDR,R6   ,B6
          1 0000B1  E570 FFC0                            AND,R6   -64,IMO
          1 0000B3  6047                                 SOR,R6   7
          1 0000B4  EF47 0067                            STR,R6   CHANLO,AUTO

     1584    17551    1        CHANHI = KH_CHNHI$->KH$CHN.CHNBIT0_9 * 64 / 128;

  17551   1 0000B6  DC80 0000 0000  xsym                 LDB,B5   KH_CHNHI$
          1 0000B9  D805                                 LDR,R5   ,B5
          1 0000BA  D570 FFC0                            AND,R5   -64,IMO
          1 0000BC  5047                                 SOR,R5   7
          1 0000BD  DF47 0068                            STR,R5   CHANHI,AUTO

PL6.E3A0      #004=KHA$DVCADM File=KHA$ADMIN.:E05TSI                             WED 07/30/97 00:26 Page:200
     1585    17552    1        SUBLO = 0;

  17552   1 0000BF  8747 006A                            CL       SUBLO,AUTO

     1586    17553    1        SUBHI = 0;

  17553   1 0000C1  8747 006B                            CL       SUBHI,AUTO

     1587    17554    1        SUBSUBLO = 0;

  17554   1 0000C3  8747 006D                            CL       SUBSUBLO,AUTO

     1588    17555    1        SUBSUBHI = 0;

  17555   1 0000C5  8747 006E                            CL       SUBSUBHI,AUTO

     1589    17556    1        LEV = %TERMINAL_ID_LEV_CHAN#;

  17556   1 0000C7  4C01                                 LDV,R4   1
          1 0000C8  CF47 003A                            STR,R4   LEV,AUTO

     1590    17557    1        STOP_FLAG = '0'B;

  17557   1 0000CA  8747 0065                            CL       STOP_FLAG,AUTO

  17557   1                              COMMON          null
     1591    17558        %EJECT;
PL6.E3A0      #004=KHA$DVCADM File=KHA$ADMIN.:E05TSI                             WED 07/30/97 00:26 Page:201
     1592    17559    1   COMMON: ;
     1593    17560    1        ERROR = '0'B;

  17560   1 0000CC  ECC7 0006            COMMON          LDB,B6   @ERROR,AUTO
          1 0000CE  8706                                 CL       ,B6
          1 0000CF  8746 0001                            CL       1,B6

     1594    17561    1        IF OPERATION > %KHA_FNC_HI+1

  17561   1 0000D1  DCC7 0004                            LDB,B5   @OPERATION,AUTO
          1 0000D3  E805                                 LDR,R6   ,B5
          1 0000D4  6D1E                                 CMV,R6   30
          1 0000D5  0381 0014                            BLE      s:17572,PREL

     1595    17562    2        THEN DO;

     1596    17563    2             ERROR = ERR_ILGLTRANS;

  17563   1 0000D7  8C80 0000 022C  00                   LDI      ERR_ILGLTRANS
          1 0000DA  8D06                                 SDI      ,B6

     1597    17564                  %ENABLE;

  17565   1 0000DB  D847 0011                            LDR,R5   DISABLE_LEVEL,AUTO
          1 0000DD  D947 0010                            CMR,R5   INHIBIT_LEVEL,AUTO
          1 0000DF  0901 0007                            BE       s:17570,PREL

  17567   1 0000E1  CBF0 0000                            LAB,B4   0,IMO
          1 0000E3  E380 0000 0000  xent                 LNJ,B6   KHI$ENABLE
          1 0000E6       0001                            DC       s:17570,PREL

     1598    17570    2             ALTRETURN;

  17570   1 0000E7  C380 0000 0000  xent                 LNJ,B4   X6A_AALT

     1599    17571    2           END;
     1600    17572    1        TERMID = TERMID_C;
PL6.E3A0      #004=KHA$DVCADM File=KHA$ADMIN.:E05TSI                             WED 07/30/97 00:26 Page:202

  17572   1 0000EA  AB80 0000 0200  00                   LAB,B2   TERMID_C
          1 0000ED  2C00                                 LDV,R2   0
          1 0000EE  6C10                                 LDV,R6   16
          1 0000EF  BB87                                 LAB,B3   ,AUTO
          1 0000F0  3C76                                 LDV,R3   118
          1 0000F1  0008                                 MMM

     1601    17573    1        IF ADDR(TERMLO) ~= ADDR(NIL)

  17573   1 0000F2  CCC7 0008                            LDB,B4   @TERMLO,AUTO
          1 0000F4  8DD4                                 CMN      B4
          1 0000F5  0901 0007                            BE       s:17576,PREL

     1602    17574    1        THEN
     1603    17575    1             TERMID.TERM.TERM_NAME = TERMLO.TERM.TERM_NAME;

  17575   1 0000F7  AB84                                 LAB,B2   ,B4
          1 0000F8  2C08                                 LDV,R2   8
          1 0000F9  6C08                                 LDV,R6   8
          1 0000FA  BB87                                 LAB,B3   ,AUTO
          1 0000FB  3C7E                                 LDV,R3   126
          1 0000FC  0008                                 MMM

     1604    17576    1        TERMID.LEV = LEV;

  17576   1 0000FD  E847 003A                            LDR,R6   LEV,AUTO
          1 0000FF  EAC7 003B                            SRM,R6,'00FF'X    TERMID,AUTO
          1 000101       00FF

     1605    17577    2        DO CHAN = CHANLO TO CHANHI;

  17577   1 000102  D847 0067                            LDR,R5   CHANLO,AUTO
          1 000104  DF47 0066                            STR,R5   CHAN,AUTO
          1 000106  0F81 03ED                            B        s:17856+2,PREL

     1606    17578    2             TERMID.TERM.CHANNEL = CHAN * 128;
PL6.E3A0      #004=KHA$DVCADM File=KHA$ADMIN.:E05TSI                             WED 07/30/97 00:26 Page:203

  17578   1 000108  E847 0066                            LDR,R6   CHAN,AUTO
          1 00010A  6007                                 SOL,R6   7
          1 00010B  EF47 003C                            STR,R6   TERMID+1,AUTO

     1607    17579    3             DO SUB = SUBLO TO SUBHI;

  17579   1 00010D  D847 006A                            LDR,R5   SUBLO,AUTO
          1 00010F  DF47 0069                            STR,R5   SUB,AUTO
          1 000111  0F81 03DA                            B        s:17855+2,PREL

     1608    17580    3                  TERMID.TERM.SUBDEVICE = SUB;

  17580   1 000113  E847 0069                            LDR,R6   SUB,AUTO
          1 000115  EF47 003D                            STR,R6   TERMID+2,AUTO

     1609    17581    4                  DO SUBSUB = SUBSUBLO TO SUBSUBHI;

  17581   1 000117  D847 006D                            LDR,R5   SUBSUBLO,AUTO
          1 000119  DF47 006C                            STR,R5   SUBSUB,AUTO
          1 00011B  0F81 03C8                            B        s:17851+2,PREL

     1610    17582    4                       TERMID.TERM.SUBSUBDEVICE = SUBSUB;

  17582   1 00011D  E847 006C                            LDR,R6   SUBSUB,AUTO
          1 00011F  EF47 003E                            STR,R6   TERMID+3,AUTO

     1611    17583    5                       CALL KHA$GET_CTX_PTR(TERMID,CHN$) WHENALTRETURN DO;

  17583   1 000121  EBC7 0034                            LAB,B6   CHN$,AUTO
          1 000123  EFC7 00D4                            STB,B6   KEYIN+5,AUTO
          1 000125  DBC7 003B                            LAB,B5   TERMID,AUTO
          1 000127  DFC7 00D2                            STB,B5   KEYIN+3,AUTO
          1 000129  BBC7 00D2                            LAB,B3   KEYIN+3,AUTO
          1 00012B  CBF0 0200                            LAB,B4   512,IMO
          1 00012D  E380 0000 0000  xent                 LNJ,B6   KHA$GET_CTX_PTR
          1 000130       0003                            DC       s:17584,PREL
PL6.E3A0      #004=KHA$DVCADM File=KHA$ADMIN.:E05TSI                             WED 07/30/97 00:26 Page:204
          1 000131  0F81 0009                            B        s:17587,PREL

     1612    17584    5                            ERROR = ERR_BADCHN;

  17584   1 000133  8C80 0000 022A  00                   LDI      ERR_BADCHN
          1 000136  ECC7 0006                            LDB,B6   @ERROR,AUTO
          1 000138  8D06                                 SDI      ,B6

     1613    17585    5                            GOTO ERROR_CHECK;

  17585   1 000139  0F81 03CF                            B        s:17858,PREL

     1614    17586    5                          END;             /* WHENALTRETURN */
     1615    17587    5                       IF LEV = %TERMINAL_ID_LEV_CHAN# THEN DO;

  17587   1 00013B  E847 003A                            LDR,R6   LEV,AUTO
          1 00013D  6D01                                 CMV,R6   1
          1 00013E  0981 0007                            BNE      s:17591,PREL

     1616    17588    5                            LIN$ = CHN$;

  17588   1 000140  ECC7 0034                            LDB,B6   CHN$,AUTO
          1 000142  EFC7 004B                            STB,B6   LIN$,AUTO

     1617    17589    5                          END;             /* IF */

  17589   1 000144  0F81 0020                            B        s:17597,PREL

     1618    17590    5                       ELSE DO;

     1619    17591    5                            TMP_TERMID = TERMID;

  17591   1 000146  AB87                                 LAB,B2   ,AUTO
          1 000147  2C76                                 LDV,R2   118
          1 000148  6C10                                 LDV,R6   16
          1 000149  BBC7 0043                            LAB,B3   TMP_TERMID,AUTO
          1 00014B  3C00                                 LDV,R3   0
PL6.E3A0      #004=KHA$DVCADM File=KHA$ADMIN.:E05TSI                             WED 07/30/97 00:26 Page:205
          1 00014C  0008                                 MMM

     1620    17592    5                            TMP_TERMID.LEV = %TERMINAL_ID_LEV_CHAN#;

  17592   1 00014D  6C01                                 LDV,R6   1
          1 00014E  EAC7 0043                            SRM,R6,'00FF'X    TMP_TERMID,AUTO
          1 000150       00FF

     1621    17593    5                            TMP_TERMID.TERM.SUBDEVICE = 0;

  17593   1 000151  8747 0045                            CL       TMP_TERMID+2,AUTO

     1622    17594    5                            TMP_TERMID.TERM.SUBSUBDEVICE = 0;

  17594   1 000153  8747 0046                            CL       TMP_TERMID+3,AUTO

     1623    17595    5                            CALL KHA$GET_CTX_PTR(TMP_TERMID,LIN$);

  17595   1 000155  EBC7 004B                            LAB,B6   LIN$,AUTO
          1 000157  EFC7 00D4                            STB,B6   KEYIN+5,AUTO
          1 000159  DBC7 0043                            LAB,B5   TMP_TERMID,AUTO
          1 00015B  DFC7 00D2                            STB,B5   KEYIN+3,AUTO
          1 00015D  BBC7 00D2                            LAB,B3   KEYIN+3,AUTO
          1 00015F  CBF0 0200                            LAB,B4   512,IMO
          1 000161  E380 0000 0000  xent                 LNJ,B6   KHA$GET_CTX_PTR
          1 000164       0001                            DC       s:17597,PREL

     1624    17596    5                          END;             /* ELSE */

     1625    17597    4                       OLD = KH$CHN.STT;

  17597   1 000165  ECC7 0034                            LDB,B6   CHN$,AUTO
          1 000167  E2C6 0001                            LLH,R6   1,B6
          1 000169  EF47 0064                            STR,R6   OLD,AUTO

     1626    17598        /* Find the transition table */
     1627    17599    4                       TRANS$ = TRANS_TABLE$(OPERATION);
PL6.E3A0      #004=KHA$DVCADM File=KHA$ADMIN.:E05TSI                             WED 07/30/97 00:26 Page:206

  17599   1 00016B  DCC7 0004                            LDB,B5   @OPERATION,AUTO
          1 00016D  B805                                 LDR,R3   ,B5
          1 00016E  CCB0 0000 01A4  00                   LDB,B4   TRANS_TABLE$,R3
          1 000171  CFC7 0032                            STB,B4   TRANS$,AUTO

     1628    17600    4                       IF TRANS$ = ADDR(NIL)

  17600   1 000173  8DC7 0032                            CMN      TRANS$,AUTO
          1 000175  0981 0010                            BNE      s:17611,PREL

     1629    17601    5                       THEN DO;

     1630    17602                                 %ENABLE;

  17603   1 000177  D847 0011                            LDR,R5   DISABLE_LEVEL,AUTO
          1 000179  D947 0010                            CMR,R5   INHIBIT_LEVEL,AUTO
          1 00017B  0901 0007                            BE       s:17608,PREL

  17605   1 00017D  CBF0 0000                            LAB,B4   0,IMO
          1 00017F  E380 0000 0000  xent                 LNJ,B6   KHI$ENABLE
          1 000182       0001                            DC       s:17608,PREL

     1631    17608    5                            RETURN;

  17608   1 000183  C380 0000 0000  xent                 LNJ,B4   X6A_ARET

     1632    17609    5                          END;
     1633    17610
     1634    17611    5                       DO WHILE (NOT B$TRANS.LAST);

  17611   1 000186  0F81 0083                            B        s:17667,PREL

     1635    17612    5                            IF B$TRANS.OLD = OLD OR B$TRANS.OLD = -1

  17612   1 000188  ECC7 0032                            LDB,B6   TRANS$,AUTO
          1 00018A  E086                                 LDH,R6   ,B6
PL6.E3A0      #004=KHA$DVCADM File=KHA$ADMIN.:E05TSI                             WED 07/30/97 00:26 Page:207
          1 00018B  6801 0005                            BLZ,R6   s:17612+9,PREL
          1 00018D  E947 0064                            CMR,R6   OLD,AUTO
          1 00018F  0901 0004                            BE       s:17614,PREL
          1 000191  6DFF                                 CMV,R6   -1
          1 000192  0981 0073                            BNE      s:17666,PREL

     1636    17613    5                            THEN
     1637    17614    6                            DO CASE (B$TRANS.FLGS);

  17614   1 000194  B846 0002                            LDR,R3   2,B6
          1 000196  B570 00FF                            AND,R3   255,IMO
          1 000198  3D0A                                 CMV,R3   10
          1 000199  0281 006A                            BGE      s:17663,PREL
          1 00019B  A830 0000 01A1  01                   LDR,R2   s:17614+13,R3
          1 00019E  83A0 0000 01AB  01                   JMP      s:17617,R2
          1 0001A1       0059                            DC       s:17663,PREL
          1 0001A2       0012                            DC       s:17627,PREL
          1 0001A3       005B                            DC       s:17666,PREL
          1 0001A4       0000                            DC       s:17617,PREL
          1 0001A5       0009                            DC       s:17622,PREL
          1 0001A6       001B                            DC       s:17632,PREL
          1 0001A7       0024                            DC       s:17640,PREL
          1 0001A8       003E                            DC       s:17647,PREL
          1 0001A9       0047                            DC       s:17652,PREL
          1 0001AA       0050                            DC       s:17657,PREL

     1638    17615
     1639    17616    6                            CASE (%Y#ENB);

     1640    17617    6                               IF KH$CHN.ENB

  17617   1 0001AB  DCC7 0034                            LDB,B5   CHN$,AUTO
          1 0001AD  82C5 0007                            LB,'0040'X        7,B5
          1 0001AF       0040
          1 0001B0  0501 0073                            BBT      s:17669,PREL
          1 0001B2  0F81 0053                            B        s:17666,PREL

PL6.E3A0      #004=KHA$DVCADM File=KHA$ADMIN.:E05TSI                             WED 07/30/97 00:26 Page:208
     1641    17618    6                               THEN
     1642    17619    6                                    GOTO GOT_TRANS;
     1643    17620
     1644    17621    6                            CASE (%Y#REENB);

     1645    17622    6                               IF KH$CHN.RE_ENB

  17622   1 0001B4  DCC7 0034                            LDB,B5   CHN$,AUTO
          1 0001B6  82C5 0007                            LB,'0080'X        7,B5
          1 0001B8       0080
          1 0001B9  0501 006A                            BBT      s:17669,PREL
          1 0001BB  0F81 004A                            B        s:17666,PREL

     1646    17623    6                               THEN
     1647    17624    6                                    GOTO GOT_TRANS;
     1648    17625
     1649    17626    6                            CASE (%Y#DED);

     1650    17627    6                               IF KH$CHN.DED

  17627   1 0001BD  DCC7 0034                            LDB,B5   CHN$,AUTO
          1 0001BF  82C5 0009                            LB,'0100'X        9,B5
          1 0001C1       0100
          1 0001C2  0501 0061                            BBT      s:17669,PREL
          1 0001C4  0F81 0041                            B        s:17666,PREL

     1651    17628    6                               THEN
     1652    17629    6                                    GOTO GOT_TRANS;
     1653    17630
     1654    17631    6                            CASE (%Y#CTR);

     1655    17632    6                               IF KH$CHN.CTR

  17632   1 0001C6  DCC7 0034                            LDB,B5   CHN$,AUTO
          1 0001C8  82C5 0007                            LB,'0020'X        7,B5
          1 0001CA       0020
          1 0001CB  0501 0058                            BBT      s:17669,PREL
PL6.E3A0      #004=KHA$DVCADM File=KHA$ADMIN.:E05TSI                             WED 07/30/97 00:26 Page:209
          1 0001CD  0F81 0038                            B        s:17666,PREL

     1656    17633    6                               THEN
     1657    17634    6                                    GOTO GOT_TRANS;
     1658    17635
     1659    17636
     1660    17637    6                            CASE (%Y#ERR);

     1661    17638
     1662    17639    6                            CASE (%Y#NOTDED);

     1663    17640    6                               IF ~KH$CHN.DED

  17640   1 0001CF  DCC7 0034                            LDB,B5   CHN$,AUTO
          1 0001D1  D845 0009                            LDR,R5   9,B5
          1 0001D3  5007                                 SOL,R5   7
          1 0001D4  D570 8000                            AND,R5   -32768,IMO
          1 0001D6  D670 8000                            XOR,R5   -32768,IMO
          1 0001D8  5901 0008                            BEZ,R5   s:17645,PREL

     1664    17641    7                               THEN DO;

     1665    17642    7                                    ERROR = '0'B;

  17642   1 0001DA  CCC7 0006                            LDB,B4   @ERROR,AUTO
          1 0001DC  8704                                 CL       ,B4
          1 0001DD  8744 0001                            CL       1,B4

     1666    17643    7                                    GOTO GOT_TRANS;

  17643   1 0001DF  0F81 0044                            B        s:17669,PREL

     1667    17644    7                                  END;
     1668    17645    6                               ERROR = ERR_DEDCHN;

  17645   1 0001E1  8C80 0000 0230  00                   LDI      ERR_DEDCHN
          1 0001E4  CCC7 0006                            LDB,B4   @ERROR,AUTO
PL6.E3A0      #004=KHA$DVCADM File=KHA$ADMIN.:E05TSI                             WED 07/30/97 00:26 Page:210
          1 0001E6  8D04                                 SDI      ,B4
          1 0001E7  0F81 001E                            B        s:17666,PREL

     1669    17646    6                            CASE (%Y#KLLHSTDWN);

     1670    17647    6                               IF KH$CHN.KLLHSTDWN

  17647   1 0001E9  DCC7 0034                            LDB,B5   CHN$,AUTO
          1 0001EB  82C5 0009                            LB,'1000'X        9,B5
          1 0001ED       1000
          1 0001EE  0501 0035                            BBT      s:17669,PREL
          1 0001F0  0F81 0015                            B        s:17666,PREL

     1671    17648    6                               THEN
     1672    17649    6                                    GOTO GOT_TRANS;
     1673    17650
     1674    17651    6                            CASE (%Y#DSBHSTDWN);

     1675    17652    6                               IF KH$CHN.DSBHSTDWN

  17652   1 0001F2  DCC7 0034                            LDB,B5   CHN$,AUTO
          1 0001F4  82C5 0009                            LB,'2000'X        9,B5
          1 0001F6       2000
          1 0001F7  0501 002C                            BBT      s:17669,PREL
          1 0001F9  0F81 000C                            B        s:17666,PREL

     1676    17653    6                               THEN
     1677    17654    6                                    GOTO GOT_TRANS;
     1678    17655
     1679    17656    6                            CASE (%Y#ENBHSTUP);

     1680    17657    6                               IF KH$CHN.ENBHSTUP

  17657   1 0001FB  DCC7 0034                            LDB,B5   CHN$,AUTO
          1 0001FD  82C5 0009                            LB,'0800'X        9,B5
          1 0001FF       0800
          1 000200  0501 0023                            BBT      s:17669,PREL
PL6.E3A0      #004=KHA$DVCADM File=KHA$ADMIN.:E05TSI                             WED 07/30/97 00:26 Page:211
          1 000202  0F81 0003                            B        s:17666,PREL

     1681    17658    6                               THEN
     1682    17659    6                                    GOTO GOT_TRANS;
     1683    17660
     1684    17661
     1685    17662    6                            CASE (ELSE);

     1686    17663    6                               GOTO GOT_TRANS;

  17663   1 000204  0F81 001F                            B        s:17669,PREL

     1687    17664
     1688    17665    6                            END /* END CASES */;

     1689    17666    5                            TRANS$ = PINCRW(TRANS$,SIZEW(B$TRANS));

  17666   1 000206  DBC6 0004                            LAB,B5   4,B6
          1 000208  DFC7 0032                            STB,B5   TRANS$,AUTO

     1690    17667    5                          END;             /* End DO WHILE (B$TRANS.LAST)        */

  17667   1 00020A  ECC7 0032                            LDB,B6   TRANS$,AUTO
          1 00020C  82C6 0003                            LB,'0080'X        3,B6
          1 00020E       0080
          1 00020F  0581 FF78                            BBF      s:17612,PREL

     1691    17668
     1692    17669    4                       IF ERROR = '0'B THEN

  17669   1 000211  DCC7 0006                            LDB,B5   @ERROR,AUTO
          1 000213  CB80 0000 0000  02                   LAB,B4   0
          1 000216  5C01                                 LDV,R5   1
          1 000217  0022                                 ACM      ;
          1 000218       4405 0000                                ALPHANUM(0,B5,,4,FILL),;
          1 00021A       4004 0000                                ALPHANUM(0,B4,,R5,FILL)
          1 00021C  5301 0005                            CBNE     s:17671,PREL
PL6.E3A0      #004=KHA$DVCADM File=KHA$ADMIN.:E05TSI                             WED 07/30/97 00:26 Page:212

     1693    17670    4                            ERROR = ERR_ILGLTRANS;

  17670   1 00021E  8C80 0000 022C  00                   LDI      ERR_ILGLTRANS
          1 000221  8D05                                 SDI      ,B5

     1694    17671    4                       GOTO ERROR_CHECK;

  17671   1 000222  0F81 02E6                            B        s:17858,PREL

  17669   1                              GOT_TRANS       null
     1695    17672
     1696    17673    4   GOT_TRANS:          ;
     1697    17674    4                       IF B$TRANS.NEW = -1

  17674   1 000224  E806                 GOT_TRANS       LDR,R6   ,B6
          1 000225  6008                                 SOL,R6   8
          1 000226  6068                                 SAR,R6   8
          1 000227  6DFF                                 CMV,R6   -1
          1 000228  0981 0007                            BNE      s:17678,PREL

     1698    17675    4                       THEN
     1699    17676    4                            NEW = OLD;

  17676   1 00022A  D847 0064                            LDR,R5   OLD,AUTO
          1 00022C  DF47 0063                            STR,R5   NEW,AUTO
          1 00022E  0F81 0003                            B        s:17679,PREL

     1700    17677    4                       ELSE
     1701    17678    4                            NEW = B$TRANS.NEW;

  17678   1 000230  EF47 0063                            STR,R6   NEW,AUTO

     1702    17679    4                       IF NEW = -1         /* Illegal state transition           */

  17679   1 000232  D847 0063                            LDR,R5   NEW,AUTO
          1 000234  5DFF                                 CMV,R5   -1
PL6.E3A0      #004=KHA$DVCADM File=KHA$ADMIN.:E05TSI                             WED 07/30/97 00:26 Page:213
          1 000235  0981 0009                            BNE      s:17684,PREL

     1703    17680    5                       THEN DO;

     1704    17681    5                            ERROR = ERR_ILGLTRANS;

  17681   1 000237  8C80 0000 022C  00                   LDI      ERR_ILGLTRANS
          1 00023A  DCC7 0006                            LDB,B5   @ERROR,AUTO
          1 00023C  8D05                                 SDI      ,B5

     1705    17682    5                            GOTO ERROR_CHECK;

  17682   1 00023D  0F81 02CB                            B        s:17858,PREL

     1706    17683    5                          END;
     1707    17684    4                       HOP = B$TRANS.HOP;

  17684   1 00023F  C2C6 0001                            LLH,R4   1,B6
          1 000241  CF47 0060                            STR,R4   HOP,AUTO

     1708    17685    4                       BSOP = B$TRANS.BSOP;

  17685   1 000243  B846 0001                            LDR,R3   1,B6
          1 000245  B570 00FF                            AND,R3   255,IMO
          1 000247  BF47 0061                            STR,R3   BSOP,AUTO

     1709    17686    4                       ASOP = B$TRANS.ASOP;

  17686   1 000249  A2C6 0002                            LLH,R2   2,B6
          1 00024B  AF47 0062                            STR,R2   ASOP,AUTO

     1710    17687    4                       KH$CHN.STT = NEW;

  17687   1 00024D  DCC7 0034                            LDB,B5   CHN$,AUTO
          1 00024F  D7C5 0001                            STH,R5   1,B5

     1711    17688
PL6.E3A0      #004=KHA$DVCADM File=KHA$ADMIN.:E05TSI                             WED 07/30/97 00:26 Page:214
     1712    17689        /* Do any special operations before the call to admin */
     1713    17690    5                       DO CASE (BSOP);

  17690   1 000251  3D0B                                 CMV,R3   11
          1 000252  0281 0196                            BGE      s:17788,PREL
          1 000254  9830 0000 025A  01                   LDR,R1   s:17690+9,R3
          1 000257  8390 0000 0265  01                   JMP      s:17693,R1
          1 00025A       0184                            DC       s:17788,PREL
          1 00025B       0000                            DC       s:17693,PREL
          1 00025C       0184                            DC       s:17788,PREL
          1 00025D       0184                            DC       s:17788,PREL
          1 00025E       0184                            DC       s:17788,PREL
          1 00025F       004A                            DC       s:17711,PREL
          1 000260       00FE                            DC       s:17751,PREL
          1 000261       0112                            DC       s:17753,PREL
          1 000262       0169                            DC       s:17778,PREL
          1 000263       0184                            DC       s:17788,PREL
          1 000264       017F                            DC       s:17783,PREL

     1714    17691
     1715    17692    5                       CASE (%Y#SOP_INTCTR);

     1716    17693    5                          CALL GET_CONTROLLER;

  17693   1 000265  E3C0 02B7                            LNJ,B6   s:0,PREL
          1 000267       0001                            DC       s:17694,PREL

     1717    17694    5                          IF NOT CTR$->KH$CHN.CCPDWNLD(CTRTYPE) AND

  17694   1 000268  ECC7 0036                            LDB,B6   CTR$,AUTO
          1 00026A  B847 0039                            LDR,R3   CTRTYPE,AUTO
          1 00026C  3E19                                 ADV,R3   25
          1 00026D  82B6                                 LB       ,B6,R3
          1 00026E  0501 017A                            BBT      s:17788,PREL
          1 000270  DCC7 0034                            LDB,B5   CHN$,AUTO
          1 000272  E845 0012                            LDR,R6   18,B5
          1 000274  E570 00FF                            AND,R6   255,IMO
PL6.E3A0      #004=KHA$DVCADM File=KHA$ADMIN.:E05TSI                             WED 07/30/97 00:26 Page:215
          1 000276  6D01                                 CMV,R6   1
          1 000277  0981 0171                            BNE      s:17788,PREL

     1718    17695    5                               KH$CHN.TERMID.LEV    = %TERMINAL_ID_LEV_CHAN#
     1719    17696    6                          THEN DO;

     1720    17697    6                               ADMIN_FPT.FNC = %KHA_FNC_INTCTR;

  17697   1 000279  5C0F                                 LDV,R5   15
          1 00027A  DF47 004E                            STR,R5   ADMIN_FPT,AUTO

     1721    17698    6                               ADMIN_FPT.TERMID = TERMID;

  17698   1 00027C  AB87                                 LAB,B2   ,AUTO
          1 00027D  2C76                                 LDV,R2   118
          1 00027E  6C10                                 LDV,R6   16
          1 00027F  BBC7 004F                            LAB,B3   ADMIN_FPT+1,AUTO
          1 000281  3C00                                 LDV,R3   0
          1 000282  0008                                 MMM

     1722    17699    6                               ADMIN_FPT.CHN$ = CHN$;

  17699   1 000283  ECC7 0034                            LDB,B6   CHN$,AUTO
          1 000285  EFC7 0059                            STB,B6   ADMIN_FPT+11,AUTO

     1723    17700    6                               ADMIN_FPT.LIN$ = LIN$;

  17700   1 000287  DCC7 004B                            LDB,B5   LIN$,AUTO
          1 000289  DFC7 005B                            STB,B5   ADMIN_FPT+13,AUTO

     1724    17701    6                               CALL KH_ADMIN$(ADMIN_FPT)

  17701   1 00028B  CBC7 004E                            LAB,B4   ADMIN_FPT,AUTO
          1 00028D  CFC7 00D2                            STB,B4   KEYIN+3,AUTO
          1 00028F  BBC7 00D2                            LAB,B3   KEYIN+3,AUTO
          1 000291  9C80 0000 0000  xsym                 LDB,B1   KH_ADMIN$
          1 000294  CBF0 0100                            LAB,B4   256,IMO
PL6.E3A0      #004=KHA$DVCADM File=KHA$ADMIN.:E05TSI                             WED 07/30/97 00:26 Page:216
          1 000296  E381                                 LNJ,B6   ,B1
          1 000297       0003                            DC       s:17703,PREL
          1 000298  0F81 000E                            B        s:17707,PREL

     1725    17702    7                               WHENALTRETURN DO;

     1726    17703    7                                    ERROR = ADMIN_FPT.RESULTS;

  17703   1 00029A  8CC7 005D                            LDI      ADMIN_FPT+15,AUTO
          1 00029C  ECC7 0006                            LDB,B6   @ERROR,AUTO
          1 00029E  8D06                                 SDI      ,B6

     1727    17704    7                                    KH$CHN.STT = OLD;

  17704   1 00029F  D847 0064                            LDR,R5   OLD,AUTO
          1 0002A1  DCC7 0034                            LDB,B5   CHN$,AUTO
          1 0002A3  D7C5 0001                            STH,R5   1,B5

     1728    17705    7                                    GOTO ERROR_CHECK;

  17705   1 0002A5  0F81 0263                            B        s:17858,PREL

     1729    17706    7                                  END;
     1730    17707    6                               CTR$->KH$CHN.CCPDWNLD(CTRTYPE) = '1'B;

  17707   1 0002A7  ECC7 0036                            LDB,B6   CTR$,AUTO
          1 0002A9  B847 0039                            LDR,R3   CTRTYPE,AUTO
          1 0002AB  3E19                                 ADV,R3   25
          1 0002AC  8936                                 LBT      ,B6,R3

     1731    17708    6                             END;

  17708   1 0002AD  0F81 013B                            B        s:17788,PREL

     1732    17709    5                       CASE(%Y#SOP_UPDCHN);

     1733    17710    5                       CASE(%Y#SOP_RQSLINPRO);
PL6.E3A0      #004=KHA$DVCADM File=KHA$ADMIN.:E05TSI                             WED 07/30/97 00:26 Page:217

     1734    17711    5                          RQSPRO$ = ADDR(RQSPRO_BUF);

  17711   1 0002AF  DBC7 006F                            LAB,B5   RQSPRO_BUF,AUTO
          1 0002B1  DFC7 00AB                            STB,B5   RQSPRO$,AUTO

     1735    17712    5                          RQSPRO_BUF = '0'B;

  17712   1 0002B3  5C78                                 LDV,R5   120
          1 0002B4  0021                                 ALR      ;
          1 0002B5       4178 0000                                ALPHANUM('0000'X,IMO,,1),;
          1 0002B7       4007 006F                                ALPHANUM(RQSPRO_BUF,AUTO,,R5,FILL)

     1736    17713    5                          KL_RQSPRO.FCN = IGA_RQSCHN;

  17713   1 0002B9  6C3D                                 LDV,R6   61
          1 0002BA  437F                                 CSYNC    s:17713,SPREL
          1 0002BB  DCC7 00AB                            LDB,B5   RQSPRO$,AUTO
          1 0002BD  E785                                 STH,R6   ,B5

     1737    17714    5                          KL_RQSPRO.LINE_PROFILE = '1'B;

  17714   1 0002BE  8905                                 LBT,'0080'X       ,B5
  17714   1 0002BF       0080

     1738    17715    5                          KL_RQSPRO.TERMINAL_ID = TERMID;

  17715   1 0002C0  AB87                                 LAB,B2   ,AUTO
          1 0002C1  2C76                                 LDV,R2   118
          1 0002C2  6C10                                 LDV,R6   16
          1 0002C3  BB85                                 LAB,B3   ,B5
          1 0002C4  3C0A                                 LDV,R3   10
          1 0002C5  0008                                 MMM

     1739    17716    5                          KL_RQSPRO.TERMINAL_ID.TTYP = TERMLO.TTYP;

  17716   1 0002C6  ECC7 0008                            LDB,B6   @TERMLO,AUTO
PL6.E3A0      #004=KHA$DVCADM File=KHA$ADMIN.:E05TSI                             WED 07/30/97 00:26 Page:218
          1 0002C8  E286                                 LLH,R6   ,B6
          1 0002C9  CCC7 00AB                            LDB,B4   RQSPRO$,AUTO
          1 0002CB  E7C4 0005                            STH,R6   5,B4

     1740    17717    6                          IF ADDR(DATAVEC) ~= ADDR(NIL) THEN DO;

  17717   1 0002CD  9CC7 000C                            LDB,B1   @DATAVEC,AUTO
          1 0002CF  8DD1                                 CMN      B1
          1 0002D0  0901 0027                            BE       s:17723,PREL

     1741    17718    6                               KL_RQSPRO.SGN.L = VBOUND(DATAVEC) + 1;

  17718   1 0002D2  E801                                 LDR,R6   ,B1
          1 0002D3  6E01                                 ADV,R6   1
          1 0002D4  E7C4 000D                            STH,R6   13,B4

     1742    17719    6                               SIZE = VBOUND(DATAVEC) + 1;

  17719   1 0002D6  E801                                 LDR,R6   ,B1
          1 0002D7  6E01                                 ADV,R6   1
          1 0002D8  EF47 004D                            STR,R6   SIZE,AUTO

     1743    17720    6                               KL_RQSPRO.SGN.TXT = VBASE(DATAVEC)->SIGNON;

  17720   1 0002DA  C2C4 000D                            LLH,R4   13,B4
          1 0002DC  8CC1 0001                            LDI      1,B1
          1 0002DE  B856                                 LDR,R3   R6
          1 0002DF  E570 7FFF                            AND,R6   32767,IMO
          1 0002E1  8D47 00D2                            SDI      KEYIN+3,AUTO
          1 0002E3  ECC7 00D2                            LDB,B6   KEYIN+3,AUTO
          1 0002E5  304F                                 SOR,R3   15
          1 0002E6  BF47 00D4                            STR,R3   KEYIN+5,AUTO
          1 0002E8  CF47 00D5                            STR,R4   KEYIN+6,AUTO
          1 0002EA  EFC7 00D6                            STB,B6   KEYIN+7,AUTO
          1 0002EC  AB86                                 LAB,B2   ,B6
          1 0002ED  A853                                 LDR,R2   R3
          1 0002EE  E847 004D                            LDR,R6   SIZE,AUTO
PL6.E3A0      #004=KHA$DVCADM File=KHA$ADMIN.:E05TSI                             WED 07/30/97 00:26 Page:219
          1 0002F0  BB84                                 LAB,B3   ,B4
          1 0002F1  3C1B                                 LDV,R3   27
          1 0002F2  F854                                 LDR,R7   R4
          1 0002F3  D380 0000 0000  xent                 LNJ,B5   X6C_ALR

     1744    17721    6                             END;          /* IF */

  17721   1 0002F6  0F81 000D                            B        s:17726,PREL

     1745    17722    6                          ELSE DO;

     1746    17723    6                               KL_RQSPRO.SGN.L = 0;

  17723   1 0002F8  87C4 000D                            CLH      13,B4

     1747    17724    6                               KL_RQSPRO.SGN.TXT = ' ';

  17724   1 0002FA  E2C4 000D                            LLH,R6   13,B4
          1 0002FC  D856                                 LDR,R5   R6
          1 0002FD  DA70 2000                            ADD,R5   8192,IMO
          1 0002FF  0021                                 ALR      ;
          1 000300       4178 2000                                ALPHANUM('2000'X,IMO,,1),;
          1 000302       C004 000D                                ALPHANUM(13,B4,1,R5,FILL)

     1748    17725    6                             END;          /* ELSE */

     1749    17726    5                          KHA_WRITE.BUF_ = VECTOR(RQSPRO_BUF);

  17726   1 000304  EBC7 006F                            LAB,B6   RQSPRO_BUF,AUTO
          1 000306  437F                                 CSYNC    s:17726+1,SPREL
          1 000307  EFC7 00D3                            STB,B6   KEYIN+4,AUTO
          1 000309  6C77                                 LDV,R6   119
          1 00030A  EF47 00D2                            STR,R6   KEYIN+3,AUTO
          1 00030C  ABC7 00D2                            LAB,B2   KEYIN+3,AUTO
          1 00030E  2C00                                 LDV,R2   0
          1 00030F  6C06                                 LDV,R6   6
          1 000310  BB80 0000 0000  xsym                 LAB,B3   KHA_WRITE
PL6.E3A0      #004=KHA$DVCADM File=KHA$ADMIN.:E05TSI                             WED 07/30/97 00:26 Page:220
          1 000313  3C0C                                 LDV,R3   12
          1 000314  0008                                 MMM

     1750    17727    5                          IF KH_FLDWRTS > 0 THEN

  17727   1 000315  E800 0000 0000  xsym                 LDR,R6   KH_FLDWRTS
          1 000318  6A81 0021                            BLEZ,R6  s:17738,PREL

     1751    17728    6                          DO;

     1752    17729    6                               IF ADDR(NORETRAN) ~= ADDR(NIL) AND NORETRAN ~= 0 THEN

  17729   1 00031A  ECC7 000E                            LDB,B6   @NORETRAN,AUTO
          1 00031C  8DD6                                 CMN      B6
          1 00031D  0901 0007                            BE       s:17731,PREL
          1 00031F  D806                                 LDR,R5   ,B6
          1 000320  5901 0004                            BEZ,R5   s:17731,PREL

     1753    17730    6                                    ALTRETURN;

  17730   1 000322  C380 0000 0000  xent                 LNJ,B4   X6A_AALT

     1754    17731    6                               CALL KHA$SETCLK(KHA_WRITE) WHENALTRETURN

  17731   1 000325  BB80 0000 0001  02                   LAB,B3   +1
          1 000328  CBF0 0100                            LAB,B4   256,IMO
          1 00032A  E380 0000 0000  xent                 LNJ,B6   KHA$SETCLK
          1 00032D       0003                            DC       s:17733,PREL
          1 00032E  0F81 0009                            B        s:17736,PREL

     1755    17732    7                               DO;

     1756    17733    7                                    ERROR = ERR_CLKFAILED;

  17733   1 000330  8C80 0000 022E  00                   LDI      ERR_CLKFAILED
          1 000333  ECC7 0006                            LDB,B6   @ERROR,AUTO
          1 000335  8D06                                 SDI      ,B6
PL6.E3A0      #004=KHA$DVCADM File=KHA$ADMIN.:E05TSI                             WED 07/30/97 00:26 Page:221

     1757    17734    7                                    GOTO ERROR_CHECK;

  17734   1 000336  0F81 01D2                            B        s:17858,PREL

     1758    17735    7                                  END;
     1759    17736    6                             END;

  17736   1 000338  0F81 00B0                            B        s:17788,PREL

     1760    17737    5                          ELSE
     1761    17738    5                               CALL M$WRITE(KHA_WRITE) WHENALTRETURN

  17738   1 00033A  BB80 0000 0000  xsym                 LAB,B3   KHA_WRITE
          1 00033D  B870 1543                            LDR,R3   5443,IMO
          1 00033F  0001                                 MCL
          1 000340       0003                            DC       s:17740,PREL
          1 000341  0F81 001F                            B        s:17748,PREL

     1762    17739    6                               DO;

     1763    17740    6                                    IF ADDR(NORETRAN) ~= ADDR(NIL) AND NORETRAN ~= 0
             17740                                             THEN

  17740   1 000343  ECC7 000E                            LDB,B6   @NORETRAN,AUTO
          1 000345  8DD6                                 CMN      B6
          1 000346  0901 0007                            BE       s:17743,PREL
          1 000348  E806                                 LDR,R6   ,B6
          1 000349  6901 0004                            BEZ,R6   s:17743,PREL

     1764    17741    6                                         ALTRETURN;

  17741   1 00034B  C380 0000 0000  xent                 LNJ,B4   X6A_AALT

     1765    17742    6                                    ELSE
     1766    17743    6                                         CALL KHA$SETCLK(KHA_WRITE) WHENALTRETURN

PL6.E3A0      #004=KHA$DVCADM File=KHA$ADMIN.:E05TSI                             WED 07/30/97 00:26 Page:222
  17743   1 00034E  BB80 0000 0001  02                   LAB,B3   +1
          1 000351  CBF0 0100                            LAB,B4   256,IMO
          1 000353  E380 0000 0000  xent                 LNJ,B6   KHA$SETCLK
          1 000356       0003                            DC       s:17745,PREL
          1 000357  0F81 0009                            B        s:17748,PREL

     1767    17744    7                                         DO;

     1768    17745    7                                              ERROR = ERR_CLKFAILED;

  17745   1 000359  8C80 0000 022E  00                   LDI      ERR_CLKFAILED
          1 00035C  ECC7 0006                            LDB,B6   @ERROR,AUTO
          1 00035E  8D06                                 SDI      ,B6

     1769    17746    7                                              GOTO ERROR_CHECK;

  17746   1 00035F  0F81 01A9                            B        s:17858,PREL

     1770    17747    7                                            END;
     1771    17748    6                                  END;

  17748   1 000361  0F81 0087                            B        s:17788,PREL

     1772    17749
     1773    17750    5                       CASE(%Y#SOP_BLDLINPRO);

     1774    17751    5                         CALL KHA$BLDLINPRO(TERMID,VBASE(DATAVEC)) ALTRET(ERROR_CHECK)
             17751                                   ;

  17751   1 000363  DCC7 000C                            LDB,B5   @DATAVEC,AUTO
          1 000365  CBC5 0001                            LAB,B4   1,B5
          1 000367  CFC7 00D4                            STB,B4   KEYIN+5,AUTO
          1 000369  BBC7 003B                            LAB,B3   TERMID,AUTO
          1 00036B  BFC7 00D2                            STB,B3   KEYIN+3,AUTO
          1 00036D  BBC7 00D2                            LAB,B3   KEYIN+3,AUTO
          1 00036F  CBF0 0200                            LAB,B4   512,IMO
          1 000371  E380 0000 0000  xent                 LNJ,B6   KHA$BLDLINPRO
PL6.E3A0      #004=KHA$DVCADM File=KHA$ADMIN.:E05TSI                             WED 07/30/97 00:26 Page:223
          1 000374       0195                            DC       s:17858,PREL
          1 000375  0F81 0073                            B        s:17788,PREL

     1775    17752    5                       CASE(%Y#SOP_DVCERR);

     1776    17753    5                          KHA_WRITE.BUF_ = DATAVEC;

  17753   1 000377  ACC7 000C                            LDB,B2   @DATAVEC,AUTO
          1 000379  2C00                                 LDV,R2   0
          1 00037A  6C06                                 LDV,R6   6
          1 00037B  BB80 0000 0000  xsym                 LAB,B3   KHA_WRITE
          1 00037E  3C0C                                 LDV,R3   12
          1 00037F  0008                                 MMM

     1777    17754    5                          IF KH_FLDWRTS > 0 THEN

  17754   1 000380  E800 0000 0000  xsym                 LDR,R6   KH_FLDWRTS
          1 000383  6A81 0021                            BLEZ,R6  s:17765,PREL

     1778    17755    6                          DO;

     1779    17756    6                               IF ADDR(NORETRAN) ~= ADDR(NIL) AND NORETRAN ~= 0 THEN

  17756   1 000385  ECC7 000E                            LDB,B6   @NORETRAN,AUTO
          1 000387  8DD6                                 CMN      B6
          1 000388  0901 0007                            BE       s:17758,PREL
          1 00038A  D806                                 LDR,R5   ,B6
          1 00038B  5901 0004                            BEZ,R5   s:17758,PREL

     1780    17757    6                                    ALTRETURN;

  17757   1 00038D  C380 0000 0000  xent                 LNJ,B4   X6A_AALT

     1781    17758    6                               CALL KHA$SETCLK(KHA_WRITE) WHENALTRETURN

  17758   1 000390  BB80 0000 0001  02                   LAB,B3   +1
          1 000393  CBF0 0100                            LAB,B4   256,IMO
PL6.E3A0      #004=KHA$DVCADM File=KHA$ADMIN.:E05TSI                             WED 07/30/97 00:26 Page:224
          1 000395  E380 0000 0000  xent                 LNJ,B6   KHA$SETCLK
          1 000398       0003                            DC       s:17760,PREL
          1 000399  0F81 0009                            B        s:17763,PREL

     1782    17759    7                               DO;

     1783    17760    7                                    ERROR = ERR_CLKFAILED;

  17760   1 00039B  8C80 0000 022E  00                   LDI      ERR_CLKFAILED
          1 00039E  ECC7 0006                            LDB,B6   @ERROR,AUTO
          1 0003A0  8D06                                 SDI      ,B6

     1784    17761    7                                    GOTO ERROR_CHECK;

  17761   1 0003A1  0F81 0167                            B        s:17858,PREL

     1785    17762    7                                  END;
     1786    17763    6                             END;

  17763   1 0003A3  0F81 0045                            B        s:17788,PREL

     1787    17764    5                          ELSE
     1788    17765    5                               CALL M$WRITE(KHA_WRITE) WHENALTRETURN

  17765   1 0003A5  BB80 0000 0000  xsym                 LAB,B3   KHA_WRITE
          1 0003A8  B870 1543                            LDR,R3   5443,IMO
          1 0003AA  0001                                 MCL
          1 0003AB       0003                            DC       s:17767,PREL
          1 0003AC  0F81 001F                            B        s:17775,PREL

     1789    17766    6                               DO;

     1790    17767    6                                    IF ADDR(NORETRAN) ~= ADDR(NIL) AND NORETRAN ~= 0
             17767                                             THEN

  17767   1 0003AE  ECC7 000E                            LDB,B6   @NORETRAN,AUTO
          1 0003B0  8DD6                                 CMN      B6
PL6.E3A0      #004=KHA$DVCADM File=KHA$ADMIN.:E05TSI                             WED 07/30/97 00:26 Page:225
          1 0003B1  0901 0007                            BE       s:17770,PREL
          1 0003B3  E806                                 LDR,R6   ,B6
          1 0003B4  6901 0004                            BEZ,R6   s:17770,PREL

     1791    17768    6                                         ALTRETURN;

  17768   1 0003B6  C380 0000 0000  xent                 LNJ,B4   X6A_AALT

     1792    17769    6                                    ELSE
     1793    17770    6                                         CALL KHA$SETCLK(KHA_WRITE) WHENALTRETURN

  17770   1 0003B9  BB80 0000 0001  02                   LAB,B3   +1
          1 0003BC  CBF0 0100                            LAB,B4   256,IMO
          1 0003BE  E380 0000 0000  xent                 LNJ,B6   KHA$SETCLK
          1 0003C1       0003                            DC       s:17772,PREL
          1 0003C2  0F81 0009                            B        s:17775,PREL

     1794    17771    7                                         DO;

     1795    17772    7                                              ERROR = ERR_CLKFAILED;

  17772   1 0003C4  8C80 0000 022E  00                   LDI      ERR_CLKFAILED
          1 0003C7  ECC7 0006                            LDB,B6   @ERROR,AUTO
          1 0003C9  8D06                                 SDI      ,B6

     1796    17773    7                                              GOTO ERROR_CHECK;

  17773   1 0003CA  0F81 013E                            B        s:17858,PREL

     1797    17774    7                                            END;
     1798    17775    6                                  END;

  17775   1 0003CC  0F81 001C                            B        s:17788,PREL

     1799    17776
     1800    17777    5                       CASE(%Y#SOP_DVCERRRSP);

PL6.E3A0      #004=KHA$DVCADM File=KHA$ADMIN.:E05TSI                             WED 07/30/97 00:26 Page:226
     1801    17778    5                          ADMIN = ADMINC;

  17778   1 0003CE  AB80 0000 0208  00                   LAB,B2   ADMINC
          1 0003D1  2C00                                 LDV,R2   0
          1 0003D2  6C44                                 LDV,R6   68
          1 0003D3  BBC7 00AD                            LAB,B3   ADMIN,AUTO
          1 0003D5  3C00                                 LDV,R3   0
          1 0003D6  0008                                 MMM

     1802    17779    5                          KEYIN = VBASE(DATAVEC)->ONEWORD;

  17779   1 0003D7  ECC7 000C                            LDB,B6   @DATAVEC,AUTO
          1 0003D9  DCC6 0001                            LDB,B5   1,B6
          1 0003DB  E805                                 LDR,R6   ,B5
          1 0003DC  EF47 00CF                            STR,R6   KEYIN,AUTO

     1803    17780    5                          ADMIN_FPT.CTX$ = ADDR(KEYIN);

  17780   1 0003DE  DBC7 00CF                            LAB,B5   KEYIN,AUTO
          1 0003E0  DFC7 0057                            STB,B5   ADMIN_FPT+9,AUTO
          1 0003E2  0F81 0006                            B        s:17788,PREL

     1804    17781
     1805    17782    5                       CASE(%Y#SOP_CLRENBHSTUP);

     1806    17783    5                          KH$CHN.ENBHSTUP = '0'B;

  17783   1 0003E4  DCC7 0034                            LDB,B5   CHN$,AUTO
          1 0003E6  8845 0009                            LBF,'0800'X       9,B5
          1 0003E8       0800

     1807    17784
     1808    17785    5                       END;                /* End cases                          */

     1809    17786
     1810    17787        /* Call the handler admin routine */
     1811    17788    4                       IF HOP ~= %KHA_FNC_NON
PL6.E3A0      #004=KHA$DVCADM File=KHA$ADMIN.:E05TSI                             WED 07/30/97 00:26 Page:227

  17788   1 0003E9  E847 0060                            LDR,R6   HOP,AUTO
          1 0003EB  6901 002E                            BEZ,R6   s:17803,PREL

     1812    17789    5                       THEN DO;

     1813    17790    5                            ADMIN_FPT.FNC = HOP;

  17790   1 0003ED  EF47 004E                            STR,R6   ADMIN_FPT,AUTO

     1814    17791    5                            ADMIN_FPT.TERMID = TERMID;

  17791   1 0003EF  AB87                                 LAB,B2   ,AUTO
          1 0003F0  2C76                                 LDV,R2   118
          1 0003F1  6C10                                 LDV,R6   16
          1 0003F2  BBC7 004F                            LAB,B3   ADMIN_FPT+1,AUTO
          1 0003F4  3C00                                 LDV,R3   0
          1 0003F5  0008                                 MMM

     1815    17792    5                            ADMIN_FPT.CHN$ = CHN$;

  17792   1 0003F6  ECC7 0034                            LDB,B6   CHN$,AUTO
          1 0003F8  EFC7 0059                            STB,B6   ADMIN_FPT+11,AUTO

     1816    17793    5                            ADMIN_FPT.LIN$ = LIN$;

  17793   1 0003FA  DCC7 004B                            LDB,B5   LIN$,AUTO
          1 0003FC  DFC7 005B                            STB,B5   ADMIN_FPT+13,AUTO

     1817    17794    5                            CALL KH_ADMIN$(ADMIN_FPT)

  17794   1 0003FE  CBC7 004E                            LAB,B4   ADMIN_FPT,AUTO
          1 000400  CFC7 00D2                            STB,B4   KEYIN+3,AUTO
          1 000402  BBC7 00D2                            LAB,B3   KEYIN+3,AUTO
          1 000404  9C80 0000 0000  xsym                 LDB,B1   KH_ADMIN$
          1 000407  CBF0 0100                            LAB,B4   256,IMO
          1 000409  E381                                 LNJ,B6   ,B1
PL6.E3A0      #004=KHA$DVCADM File=KHA$ADMIN.:E05TSI                             WED 07/30/97 00:26 Page:228
          1 00040A       0003                            DC       s:17796,PREL
          1 00040B  0F81 000E                            B        s:17803,PREL

     1818    17795    6                            WHENALTRETURN DO;

     1819    17796    6                                 ERROR = ADMIN_FPT.RESULTS;

  17796   1 00040D  8CC7 005D                            LDI      ADMIN_FPT+15,AUTO
          1 00040F  ECC7 0006                            LDB,B6   @ERROR,AUTO
          1 000411  8D06                                 SDI      ,B6

     1820    17797    6                                 KH$CHN.STT = OLD;

  17797   1 000412  D847 0064                            LDR,R5   OLD,AUTO
          1 000414  DCC7 0034                            LDB,B5   CHN$,AUTO
          1 000416  D7C5 0001                            STH,R5   1,B5

     1821    17798    6                                 GOTO ERROR_CHECK;

  17798   1 000418  0F81 00F0                            B        s:17858,PREL

     1822    17799    6                               END;        /* WHENALTRETURN */
     1823    17800    5                          END;             /* IF HOP ~= NON */

     1824    17801
     1825    17802        /* Do any special processing after operation */
     1826    17803    5                       DO CASE (ASOP);

  17803   1 00041A  B847 0062                            LDR,R3   ASOP,AUTO
          1 00041C  3D0E                                 CMV,R3   14
          1 00041D  0281 00C4                            BGE      s:17851,PREL
          1 00041F  A830 0000 0425  01                   LDR,R2   s:17803+11,R3
          1 000422  83A0 0000 0433  01                   JMP      s:17805,R2
          1 000425       00AF                            DC       s:17851,PREL
          1 000426       00AF                            DC       s:17851,PREL
          1 000427       0027                            DC       s:17817,PREL
          1 000428       0007                            DC       s:17809,PREL
PL6.E3A0      #004=KHA$DVCADM File=KHA$ADMIN.:E05TSI                             WED 07/30/97 00:26 Page:229
          1 000429       00AF                            DC       s:17851,PREL
          1 00042A       00AF                            DC       s:17851,PREL
          1 00042B       00AF                            DC       s:17851,PREL
          1 00042C       00AF                            DC       s:17851,PREL
          1 00042D       00AF                            DC       s:17851,PREL
          1 00042E       002E                            DC       s:17820,PREL
          1 00042F       00AF                            DC       s:17851,PREL
          1 000430       0035                            DC       s:17823,PREL
          1 000431       00AF                            DC       s:17851,PREL
          1 000432       0000                            DC       s:17805,PREL

     1827    17804    5                       CASE(%Y#SOP_RSTDED);

     1828    17805    5                          KH$CHN.DED = '0'B;

  17805   1 000433  ECC7 0034                            LDB,B6   CHN$,AUTO
          1 000435  8846 0009                            LBF,'0100'X       9,B6
          1 000437       0100
          1 000438  0F81 00A9                            B        s:17851,PREL

     1829    17806
     1830    17807
     1831    17808    5                       CASE (%Y#SOP_PRT);

     1832    17809    5                          KH$CHN.DWNLOD = '0'B;

  17809   1 00043A  ECC7 0034                            LDB,B6   CHN$,AUTO
          1 00043C  8846 0007                            LBF,'1000'X       7,B6
          1 00043E       1000

     1833    17810    5                          KH$CHN.DED = '0'B;

  17810   1 00043F  ECC7 0034                            LDB,B6   CHN$,AUTO
          1 000441  8846 0009                            LBF,'0100'X       9,B6
          1 000443       0100

     1834    17811    5                          KH$CHN.HAND$ = ADDR(NIL);
PL6.E3A0      #004=KHA$DVCADM File=KHA$ADMIN.:E05TSI                             WED 07/30/97 00:26 Page:230

  17811   1 000444  EB80 0000 0000                       LAB,B6   0
          1 000447  DCC7 0034                            LDB,B5   CHN$,AUTO
          1 000449  EFC5 001E                            STB,B6   30,B5

     1835    17812    5                          KH$CHN.SYSID = 0;

  17812   1 00044B  ECC7 0034                            LDB,B6   CHN$,AUTO
          1 00044D  8746 0006                            CL       6,B6

     1836    17813    5                          CALL GET_CONTROLLER;

  17813   1 00044F  E3C0 00CD                            LNJ,B6   s:0,PREL
          1 000451       0001                            DC       s:17814,PREL

     1837    17814    5                          CTR$->KH$CHN.CCPDWNLD(CTRTYPE) = '0'B;

  17814   1 000452  ECC7 0036                            LDB,B6   CTR$,AUTO
          1 000454  B847 0039                            LDR,R3   CTRTYPE,AUTO
          1 000456  3E19                                 ADV,R3   25
          1 000457  8836                                 LBF      ,B6,R3
          1 000458  0F81 0089                            B        s:17851,PREL

     1838    17815
     1839    17816    5                       CASE (%Y#SOP_ENB);

     1840    17817    5                          KH$CHN.DWNLOD = '1'B;

  17817   1 00045A  ECC7 0034                            LDB,B6   CHN$,AUTO
          1 00045C  8946 0007                            LBT,'1000'X       7,B6
          1 00045E       1000
          1 00045F  0F81 0082                            B        s:17851,PREL

     1841    17818
     1842    17819    5                       CASE (%Y#SOP_SETENBHSTUP);

     1843    17820    5                          KH$CHN.ENBHSTUP = '1'B;
PL6.E3A0      #004=KHA$DVCADM File=KHA$ADMIN.:E05TSI                             WED 07/30/97 00:26 Page:231

  17820   1 000461  ECC7 0034                            LDB,B6   CHN$,AUTO
          1 000463  8946 0009                            LBT,'0800'X       9,B6
          1 000465       0800
          1 000466  0F81 007B                            B        s:17851,PREL

     1844    17821
     1845    17822    5                       CASE (%Y#SOP_SNDADM);

     1846    17823    5                          ADMIN = ADMINC;

  17823   1 000468  AB80 0000 0208  00                   LAB,B2   ADMINC
          1 00046B  2C00                                 LDV,R2   0
          1 00046C  6C44                                 LDV,R6   68
          1 00046D  BBC7 00AD                            LAB,B3   ADMIN,AUTO
          1 00046F  3C00                                 LDV,R3   0
          1 000470  0008                                 MMM

     1847    17824    5                          ADMIN.TERMID_LO = KH$CHN.TERMID;

  17824   1 000471  ACC7 0034                            LDB,B2   CHN$,AUTO
          1 000473  2C24                                 LDV,R2   36
          1 000474  6C10                                 LDV,R6   16
          1 000475  BBC7 00BF                            LAB,B3   ADMIN+18,AUTO
          1 000477  3C00                                 LDV,R3   0
          1 000478  0008                                 MMM

     1848    17825    5                          ADMIN.TERMID_HI = KH$CHN.TERMID;

  17825   1 000479  ACC7 0034                            LDB,B2   CHN$,AUTO
          1 00047B  2C24                                 LDV,R2   36
          1 00047C  6C10                                 LDV,R6   16
          1 00047D  BBC7 00C7                            LAB,B3   ADMIN+26,AUTO
          1 00047F  3C00                                 LDV,R3   0
          1 000480  0008                                 MMM

     1849    17826    5                          ADMIN.FNC = OPERATION;
PL6.E3A0      #004=KHA$DVCADM File=KHA$ADMIN.:E05TSI                             WED 07/30/97 00:26 Page:232

  17826   1 000481  ECC7 0004                            LDB,B6   @OPERATION,AUTO
          1 000483  E806                                 LDR,R6   ,B6
          1 000484  EF47 00BE                            STR,R6   ADMIN+17,AUTO

     1850    17827    5                          KHA_WRITE.BUF_ = VECTOR(ADMIN);

  17827   1 000486  DBC7 00AD                            LAB,B5   ADMIN,AUTO
          1 000488  DFC7 00D3                            STB,B5   KEYIN+4,AUTO
          1 00048A  5C43                                 LDV,R5   67
          1 00048B  DF47 00D2                            STR,R5   KEYIN+3,AUTO
          1 00048D  ABC7 00D2                            LAB,B2   KEYIN+3,AUTO
          1 00048F  2C00                                 LDV,R2   0
          1 000490  6C06                                 LDV,R6   6
          1 000491  BB80 0000 0000  xsym                 LAB,B3   KHA_WRITE
          1 000494  3C0C                                 LDV,R3   12
          1 000495  0008                                 MMM

     1851    17828    5                          IF KH_FLDWRTS > 0 THEN

  17828   1 000496  E800 0000 0000  xsym                 LDR,R6   KH_FLDWRTS
          1 000499  6A81 0021                            BLEZ,R6  s:17839,PREL

     1852    17829    6                          DO;

     1853    17830    6                               IF ADDR(NORETRAN) ~= ADDR(NIL) AND NORETRAN ~= 0 THEN

  17830   1 00049B  DCC7 000E                            LDB,B5   @NORETRAN,AUTO
          1 00049D  8DD5                                 CMN      B5
          1 00049E  0901 0007                            BE       s:17832,PREL
          1 0004A0  C805                                 LDR,R4   ,B5
          1 0004A1  4901 0004                            BEZ,R4   s:17832,PREL

     1854    17831    6                                    ALTRETURN;

  17831   1 0004A3  C380 0000 0000  xent                 LNJ,B4   X6A_AALT

PL6.E3A0      #004=KHA$DVCADM File=KHA$ADMIN.:E05TSI                             WED 07/30/97 00:26 Page:233
     1855    17832    6                               CALL KHA$SETCLK(KHA_WRITE) WHENALTRETURN

  17832   1 0004A6  BB80 0000 0001  02                   LAB,B3   +1
          1 0004A9  CBF0 0100                            LAB,B4   256,IMO
          1 0004AB  E380 0000 0000  xent                 LNJ,B6   KHA$SETCLK
          1 0004AE       0003                            DC       s:17834,PREL
          1 0004AF  0F81 0009                            B        s:17837,PREL

     1856    17833    7                               DO;

     1857    17834    7                                    ERROR = ERR_CLKFAILED;

  17834   1 0004B1  8C80 0000 022E  00                   LDI      ERR_CLKFAILED
          1 0004B4  ECC7 0006                            LDB,B6   @ERROR,AUTO
          1 0004B6  8D06                                 SDI      ,B6

     1858    17835    7                                    GOTO ERROR_CHECK;

  17835   1 0004B7  0F81 0051                            B        s:17858,PREL

     1859    17836    7                                  END;
     1860    17837    6                             END;

  17837   1 0004B9  0F81 0028                            B        s:17851,PREL

     1861    17838    5                          ELSE
     1862    17839    5                               CALL M$WRITE(KHA_WRITE) WHENALTRETURN

  17839   1 0004BB  BB80 0000 0000  xsym                 LAB,B3   KHA_WRITE
          1 0004BE  B870 1543                            LDR,R3   5443,IMO
          1 0004C0  0001                                 MCL
          1 0004C1       0003                            DC       s:17841,PREL
          1 0004C2  0F81 001F                            B        s:17851,PREL

     1863    17840    6                               DO;

     1864    17841    6                                    IF ADDR(NORETRAN) ~= ADDR(NIL) AND NORETRAN ~= 0
PL6.E3A0      #004=KHA$DVCADM File=KHA$ADMIN.:E05TSI                             WED 07/30/97 00:26 Page:234
             17841                                             THEN

  17841   1 0004C4  ECC7 000E                            LDB,B6   @NORETRAN,AUTO
          1 0004C6  8DD6                                 CMN      B6
          1 0004C7  0901 0007                            BE       s:17844,PREL
          1 0004C9  E806                                 LDR,R6   ,B6
          1 0004CA  6901 0004                            BEZ,R6   s:17844,PREL

     1865    17842    6                                         ALTRETURN;

  17842   1 0004CC  C380 0000 0000  xent                 LNJ,B4   X6A_AALT

     1866    17843    6                                    ELSE
     1867    17844    6                                         CALL KHA$SETCLK(KHA_WRITE) WHENALTRETURN

  17844   1 0004CF  BB80 0000 0001  02                   LAB,B3   +1
          1 0004D2  CBF0 0100                            LAB,B4   256,IMO
          1 0004D4  E380 0000 0000  xent                 LNJ,B6   KHA$SETCLK
          1 0004D7       0003                            DC       s:17846,PREL
          1 0004D8  0F81 0009                            B        s:17851,PREL

     1868    17845    7                                         DO;

     1869    17846    7                                              ERROR = ERR_CLKFAILED;

  17846   1 0004DA  8C80 0000 022E  00                   LDI      ERR_CLKFAILED
          1 0004DD  ECC7 0006                            LDB,B6   @ERROR,AUTO
          1 0004DF  8D06                                 SDI      ,B6

     1870    17847    7                                              GOTO ERROR_CHECK;

  17847   1 0004E0  0F81 0028                            B        s:17858,PREL

     1871    17848    7                                            END;
     1872    17849    6                                  END;

     1873    17850
PL6.E3A0      #004=KHA$DVCADM File=KHA$ADMIN.:E05TSI                             WED 07/30/97 00:26 Page:235
     1874    17851    5                       END;                /* end cases                          */

  17846   1                              NEXT_CHANNEL    null
     1875    17852
     1876    17853    4   NEXT_CHANNEL:       ;
     1877    17854    4                     END;                  /* DO SUBSUB */

  17854   1 0004E2  8AC7 006C            NEXT_CHANNEL    INC      SUBSUB,AUTO
          1 0004E4  E847 006C                            LDR,R6   SUBSUB,AUTO
          1 0004E6  E947 006E                            CMR,R6   SUBSUBHI,AUTO
          1 0004E8  0381 FC34                            BLE      s:17582,PREL

     1878    17855    3                END;                       /* DO SUB */

  17855   1 0004EA  8AC7 0069                            INC      SUB,AUTO
          1 0004EC  E847 0069                            LDR,R6   SUB,AUTO
          1 0004EE  E947 006B                            CMR,R6   SUBHI,AUTO
          1 0004F0  0381 FC22                            BLE      s:17580,PREL

     1879    17856    2           END;                            /* DO CHAN */

  17856   1 0004F2  8AC7 0066                            INC      CHAN,AUTO
          1 0004F4  E847 0066                            LDR,R6   CHAN,AUTO
          1 0004F6  E947 0068                            CMR,R6   CHANHI,AUTO
          1 0004F8  0381 FC0F                            BLE      s:17578,PREL

     1880    17857             %ENABLE;

  17858   1 0004FA  D847 0011                            LDR,R5   DISABLE_LEVEL,AUTO
          1 0004FC  D947 0010                            CMR,R5   INHIBIT_LEVEL,AUTO
          1 0004FE  0901 0007                            BE       s:17863,PREL

  17860   1 000500  CBF0 0000                            LAB,B4   0,IMO
          1 000502  E380 0000 0000  xent                 LNJ,B6   KHI$ENABLE
          1 000505       0001                            DC       s:17863,PREL

     1881    17863    1        RETURN;
PL6.E3A0      #004=KHA$DVCADM File=KHA$ADMIN.:E05TSI                             WED 07/30/97 00:26 Page:236

  17863   1 000506  C380 0000 0000  xent                 LNJ,B4   X6A_ARET

  17858   1                              ERROR_CHECK     null
     1882    17864
     1883    17865    1   ERROR_CHECK: ;
     1884    17866                 /*N* ERRORLOG */
     1885    17867    1        IF STOP_FLAG

  17867   1 000509  89C7 0065            ERROR_CHECK     CMZ      STOP_FLAG,AUTO
          1 00050B  0881 0010                            BAGE     s:17877,PREL

     1886    17868    2        THEN DO;

     1887    17869                  %ENABLE;

  17870   1 00050D  E847 0011                            LDR,R6   DISABLE_LEVEL,AUTO
          1 00050F  E947 0010                            CMR,R6   INHIBIT_LEVEL,AUTO
          1 000511  0901 0007                            BE       s:17875,PREL

  17872   1 000513  CBF0 0000                            LAB,B4   0,IMO
          1 000515  E380 0000 0000  xent                 LNJ,B6   KHI$ENABLE
          1 000518       0001                            DC       s:17875,PREL

     1888    17875    2             ALTRETURN;

  17875   1 000519  C380 0000 0000  xent                 LNJ,B4   X6A_AALT

     1889    17876    2           END;                            /* IF */
     1890    17877    1        GOTO NEXT_CHANNEL;

  17877   1 00051C  0FC6                                 B        s:17851,SPREL

     1891    17878
     1892    17879        %EJECT;
PL6.E3A0      #004=KHA$DVCADM File=KHA$ADMIN.:E05TSI                             WED 07/30/97 00:26 Page:237
     1893    17880    1   GET_CONTROLLER: PROC;

  17880   1 00051D  EFC7 00D0            GET_CONTROLLER  STB,B6   KEYIN+1,AUTO

     1894    17881    3        DO SELECT(KH$CHN.DVCID & 'FF00'X);

  17881   1 00051F  DCC7 0034                            LDB,B5   CHN$,AUTO
          1 000521  E845 0002                            LDR,R6   2,B5
          1 000523  E570 FF00                            AND,R6   -256,IMO
          1 000525  E970 2100                            CMR,R6   8448,IMO
          1 000527  0201 003D                            BL       s:17905,PREL
          1 000529  0901 0007                            BE       s:17884,PREL
          1 00052B  E970 2900                            CMR,R6   10496,IMO
          1 00052D  0981 0037                            BNE      s:17905,PREL
          1 00052F  0F81 002E                            B        s:17901,PREL

     1895    17882
     1896    17883    3             SELECT ('2100'X);             /* MLC-8 */

     1897    17884    3             CTRCHN = (TERMID.TERM.CHANNEL/(64*16))*64*16;

  17884   1 000531  E847 003C                            LDR,R6   TERMID+1,AUTO
          1 000533  604A                                 SOR,R6   10
          1 000534  600A                                 SOL,R6   10
          1 000535  EF47 0038                            STR,R6   CTRCHN,AUTO

  17884   1                              SET_CCPTYPE     null
     1898    17885    3   SET_CCPTYPE: ;
     1899    17886    3             IF KH$CHN.ATTR & %G_ATTR_CL_ASYNC

  17886   1 000537  ECC7 0034            SET_CCPTYPE     LDB,B6   CHN$,AUTO
          1 000539  E846 0005                            LDR,R6   5,B6
          1 00053B  E570 8000                            AND,R6   -32768,IMO
          1 00053D  6901 0005                            BEZ,R6   s:17890,PREL

     1900    17887    3             THEN
     1901    17888    3                  CTRTYPE = %KH#CHN_CCPDWNLD_ASYNC;
PL6.E3A0      #004=KHA$DVCADM File=KHA$ADMIN.:E05TSI                             WED 07/30/97 00:26 Page:238

  17888   1 00053F  8747 0039                            CL       CTRTYPE,AUTO
          1 000541  0F81 002A                            B        s:17909,PREL

     1902    17889    3             ELSE
     1903    17890    3                  IF KH$CHN.ATTR & %G_ATTR_CL_SYNC

  17890   1 000543  E846 0005                            LDR,R6   5,B6
          1 000545  E570 1000                            AND,R6   4096,IMO
          1 000547  6901 0006                            BEZ,R6   s:17894,PREL

     1904    17891    3                  THEN
     1905    17892    3                       CTRTYPE=%KH#CHN_CCPDWNLD_SYNC;

  17892   1 000549  6C01                                 LDV,R6   1
          1 00054A  EF47 0039                            STR,R6   CTRTYPE,AUTO
          1 00054C  0F81 001F                            B        s:17909,PREL

     1906    17893    3                  ELSE
     1907    17894    3                       IF KH$CHN.ATTR & %G_ATTR_CL_HDLC

  17894   1 00054E  E846 0005                            LDR,R6   5,B6
          1 000550  E570 2000                            AND,R6   8192,IMO
          1 000552  6901 0006                            BEZ,R6   s:17898,PREL

     1908    17895    3                       THEN
     1909    17896    3                            CTRTYPE=%KH#CHN_CCPDWNLD_HDLC;

  17896   1 000554  6C02                                 LDV,R6   2
          1 000555  EF47 0039                            STR,R6   CTRTYPE,AUTO
          1 000557  0F81 0014                            B        s:17909,PREL

     1910    17897    3                       ELSE
     1911    17898    3                            CTRTYPE=%KH#CHN_CCPDWNLD_OTHER;

  17898   1 000559  6C03                                 LDV,R6   3
          1 00055A  EF47 0039                            STR,R6   CTRTYPE,AUTO
PL6.E3A0      #004=KHA$DVCADM File=KHA$ADMIN.:E05TSI                             WED 07/30/97 00:26 Page:239
          1 00055C  0F81 000F                            B        s:17909,PREL

     1912    17899
     1913    17900    3             SELECT ('2900'X);

     1914    17901    3             CTRCHN = (TERMID.TERM.CHANNEL/(64*32))*64*32;

  17901   1 00055E  E847 003C                            LDR,R6   TERMID+1,AUTO
          1 000560  604B                                 SOR,R6   11
          1 000561  600B                                 SOL,R6   11
          1 000562  EF47 0038                            STR,R6   CTRCHN,AUTO

     1915    17902    3             GOTO SET_CCPTYPE;

  17902   1 000564  0FD3                                 B        s:17884,SPREL

     1916    17903
     1917    17904    3             SELECT (ELSE);

     1918    17905    3        CTRCHN = TERMID.TERM.CHANNEL;

  17905   1 000565  E847 003C                            LDR,R6   TERMID+1,AUTO
          1 000567  EF47 0038                            STR,R6   CTRCHN,AUTO

     1919    17906    3        CTRTYPE=%KH#CHN_CCPDWNLD_OTHER;

  17906   1 000569  5C03                                 LDV,R5   3
          1 00056A  DF47 0039                            STR,R5   CTRTYPE,AUTO

     1920    17907
     1921    17908    3           END;

     1922    17909    2        CTR$ = PINCRW(KH_CHNLOW$,CTRCHN/128*SIZEW(KH$CHN));

  17909   1 00056C  E847 0038                            LDR,R6   CTRCHN,AUTO
          1 00056E  6047                                 SOR,R6   7
          1 00056F  F856                                 LDR,R7   R6
PL6.E3A0      #004=KHA$DVCADM File=KHA$ADMIN.:E05TSI                             WED 07/30/97 00:26 Page:240
          1 000570  6C00                                 LDV,R6   0
          1 000571  7085                                 DOL,R7   5
          1 000572  8400 0000 0000  xsym                 AID      KH_CHNLOW$
          1 000575  8D47 0036                            SDI      CTR$,AUTO

     1923    17910
     1924    17911    2        RETURN;

  17911   1 000577  ECC7 00D0                            LDB,B6   KEYIN+1,AUTO
          1 000579  C3C6 0001                            LNJ,B4   1,B6
     1925    17912
     1926    17913    2   END GET_CONTROLLER;
     1927    17914    1   END KHA$DVCADM;

PL6.E3A0      #004=KHA$DVCADM File=KHA$ADMIN.:E05TSI                             WED 07/30/97 00:26 Page:241
--  Include file information  --

   B_ERRORS_C.:E05TOU  is referenced.
   KHC_MAC_C.:E05TOU  is referenced.
   KH_MACRO_C.:E05TOU  is referenced.
   KL_MACRO_C.:E05TOU  is referenced.
   KL_AFCN_C.:E05TOU  is referenced.
   KL_CONTROL_C.:E05TOU  is referenced.
   KHA_FNC_E.:E05TOU  is referenced.
   KH_CHN.:E05TOU  is referenced.
   KH$CHN.:E05TOU  is referenced.
   CP_6_SUBS.:E05TOU  is referenced.
   G_LCP6_E.:E05TOU  is referenced.
   GT_LCP6_M.:E05TOU  is referenced.
   KI_CP6.:E05TOU  is referenced.
   GF_LCP6_M.:E05TOU  is referenced.
   GM_LCP6_M.:E05TOU  is referenced.
   GU_LCP6_M.:E05TOU  is referenced.
   GJ_LCP6_M.:E05TOU  is referenced.
   GH_LCP6_M.:E05TOU  is referenced.
   LCP_6.:E05TOU  cannot be made into a system file and is referenced.
      No diagnostics issued in procedure KHA$DVCADM.
PL6.E3A0      #004=KHA$DVCADM File=KHA$ADMIN.:E05TSI                             WED 07/30/97 00:26 Page:242

 **** Variables and constants ****

  ****  Section 000 RoData KHA$DVCADM

  ****  Scalars and arrays  ****
HexLoc.c.b A Datatyp(siz) R M Lvl/name                 HexLoc.c.b A Datatyp(siz) R M Lvl/name

   208-0-0/w STRC(544)   r     1 ADMINC                   22A-0-0/w STRC(32)    r     1 ERR_BADCHN
   22E-0-0/w STRC(32)    r     1 ERR_CLKFAILED            230-0-0/w STRC(32)    r     1 ERR_DEDCHN
   22C-0-0/w STRC(32)    r     1 ERR_ILGLTRANS            200-0-0/c STRC(128)   r     1 TERMID_C
   1A4-0-0/w PTR         r     1 TRANS_TABLE$(0:29)
   19C-0-0/c STRC(121)   r     1 TRAN_ACTIVE               D8-0-0/c STRC(249)   r     1 TRAN_BLDLINPRO
    F8-0-0/c STRC(249)   r     1 TRAN_CNCRQSLINPRO         9C-0-0/c STRC(377)   r     1 TRAN_CONFIG
    94-0-0/c STRC(121)   r     1 TRAN_CONNECT               0-0-0/c STRC(505)   r     1 TRAN_DISABLE
    70-0-0/c STRC(249)   r     1 TRAN_DISCONNECT_EVT       80-0-0/c STRC(313)   r     1 TRAN_DISCONNECT_RQS
   108-0-0/c STRC(697)   r     1 TRAN_DVCERR              134-0-0/c STRC(697)   r     1 TRAN_DVCERRRSP
    20-0-0/c STRC(377)   r     1 TRAN_ENABLE              160-0-0/c STRC(633)   r     1 TRAN_HOSTDOWN
   188-0-0/c STRC(313)   r     1 TRAN_HOSTUP               58-0-0/c STRC(377)   r     1 TRAN_INTDVC
    38-0-0/c STRC(505)   r     1 TRAN_KILL                 B4-0-0/c STRC(185)   r     1 TRAN_PARTITION
    C0-0-0/c STRC(121)   r     1 TRAN_RETURN               E8-0-0/c STRC(249)   r     1 TRAN_RQSLINPRO
    C8-0-0/c STRC(249)   r     1 TRAN_SGNRJC

  ****  Auto variables  ****

  ****  Scalars and arrays  ****
HexLoc.c.b A Datatyp(siz) R M Lvl/name                 HexLoc.c.b A Datatyp(siz) R M Lvl/name

     C-0-0/w PTR         r     1 @DATAVEC                   6-0-0/w PTR         r     1 @ERROR
     E-0-0/w PTR         r     1 @NORETRAN                  4-0-0/w PTR         r     1 @OPERATION
     A-0-0/w PTR         r     1 @TERMHI                    8-0-0/w PTR         r     1 @TERMLO
    AD-0-0/w STRC(544)   r     1 ADMIN                     4E-0-0/w STRC(288)   r     1 ADMIN_FPT
    62-0-0/w UBIN(16)    r     1 ASOP                      61-0-0/w UBIN(16)    r     1 BSOP
    66-0-0/w UBIN(16)    r     1 CHAN                      68-0-0/w UBIN(16)    r     1 CHANHI
    67-0-0/w UBIN(16)    r     1 CHANLO                    34-0-0/w PTR         r     1 CHN$
    36-0-0/w PTR         r     1 CTR$                      38-0-0/w UBIN(16)    r     1 CTRCHN
    39-0-0/w UBIN(16)    r     1 CTRTYPE                   *0-0-0/w VECT        r     1 DATAVEC
    11-0-0/w UBIN(16)    r     1 DISABLE_LEVEL             *0-0-0/w STRC(32)    r     1 ERROR
PL6.E3A0      #004=KHA$DVCADM File=KHA$ADMIN.:E05TSI                             WED 07/30/97 00:26 Page:243
    60-0-0/w UBIN(16)    r     1 HOP                       10-0-0/w UBIN(16)    r     1 INHIBIT_LEVEL
    CF-0-0/w UBIN(16)    r     1 KEYIN                     3A-0-0/w UBIN(16)    r     1 LEV
    4B-0-0/w PTR         r     1 LIN$                      63-0-0/w SBIN(16)    r     1 NEW
    *0-0-0/w UBIN(16)    r     1 NORETRAN                  64-0-0/w UBIN(16)    r     1 OLD
    *0-0-0/w UBIN(16)    r     1 OPERATION                 AB-0-0/w PTR         r     1 RQSPRO$
    6F-0-0/w UBIN(16)    r     1 RQSPRO_BUF(0:59)
    4D-0-0/w UBIN(16)    r     1 SIZE                      65-0-0/b BIT         r     1 STOP_FLAG
    69-0-0/w UBIN(16)    r     1 SUB                       6B-0-0/w UBIN(16)    r     1 SUBHI
    6A-0-0/w UBIN(16)    r     1 SUBLO                     6C-0-0/w UBIN(16)    r     1 SUBSUB
    6E-0-0/w UBIN(16)    r     1 SUBSUBHI                  6D-0-0/w UBIN(16)    r     1 SUBSUBLO
    *0-0-0/w STRC(128)   r     1 TERMHI                    3B-0-0/c STRC(128)   r     1 TERMID
    *0-0-0/w STRC(128)   r     1 TERMLO                    43-0-0/c STRC(128)   r     1 TMP_TERMID
    32-0-0/w PTR         r     1 TRANS$

  ****  SYMREF variables  ****

  ****  Scalars and arrays  ****
HexLoc.c.b A Datatyp(siz) R M Lvl/name                 HexLoc.c.b A Datatyp(siz) R M Lvl/name

     0-0-0/w STRC(288)   r     1 KHA_WRITE                  0-0-0/w EPTR        r     1 KH_ADMIN$
     0-0-0/w PTR         r     1 KH_CHNHI$                  0-0-0/w PTR         r     1 KH_CHNLOW$
     0-0-0/w PTR         r     1 KH_CTLTBL$                 0-0-0/w SBIN(16)    r     1 KH_FLDWRTS
     0-0-0/w UBIN(16)    r     1 KH_INHLVL

  ****  BASED and DCB variables  ****

  ****  Scalars and arrays  ****
HexLoc.c.b A Datatyp(siz) R M Lvl/name                 HexLoc.c.b A Datatyp(siz) R M Lvl/name

     0-0-0/w STRC(57)    r     1 B$TRANS                    0-0-0/w STRC(512)   r     1 KH$CHN
     0-0-0/w ASTR(216)   r     1 KL_RQSPRO                  0-0-0/w UBIN(16)    r     1 ONEWORD
     0-0-0/c ACHR        r     1 SIGNON


   Procedure KHA$DVCADM requires 1403 words for executable code.
   Procedure KHA$DVCADM requires 216 words of local(AUTO) storage.
PL6.E3A0      #004=KHA$DVCADM File=KHA$ADMIN.:E05TSI                             WED 07/30/97 00:26 Page:244

    No errors detected in file KHA$ADMIN.:E05TSI    .
PL6.E3A0      #004=KHA$DVCADM File=KHA$ADMIN.:E05TSI                             WED 07/30/97 00:26 Page:245
          *** CROSS REFERENCE LISTING ***
**     DENOTES     IDENTIFIER DEFINITION
<<                 IDENTIFIER'S VALUE SET
>>                 IDENTIFIER'S VALUE USED
<>                 IDENTIFIER SET AND/OR USED
--                 IDENTIFIER REFERENCED
PL6.E3A0      #004=KHA$DVCADM File=KHA$ADMIN.:E05TSI                             WED 07/30/97 00:26 Page:246
          MINI XREF LISTING

ADMIN
     16721**DCL     17778<<ASSIGN  17823<<ASSIGN  17827--ASSIGN
ADMIN.FNC
     16787**DCL     17826<<ASSIGN
ADMIN.TERMID_HI
     16836**DCL     17825<<ASSIGN
ADMIN.TERMID_HI.TERM
     16838**DCL     16847--REDEF
ADMIN.TERMID_LO
     16807**DCL     17824<<ASSIGN
ADMIN.TERMID_LO.TERM
     16809**DCL     16818--REDEF
ADMINC
     16560**DCL     17778>>ASSIGN  17823>>ASSIGN
ADMINC.TERMID_HI.TERM
     16677**DCL     16686--REDEF
ADMINC.TERMID_LO.TERM
     16648**DCL     16657--REDEF
ADMIN_FPT
     16188**DCL     17701<>CALL    17794<>CALL
ADMIN_FPT.CHN$
     16315**DCL     17699<<ASSIGN  17792<<ASSIGN
ADMIN_FPT.CTX$
     16244**DCL     17780<<ASSIGN
ADMIN_FPT.FNC
     16189**DCL     17697<<ASSIGN  17790<<ASSIGN
ADMIN_FPT.LIN$
     16319**DCL     17700<<ASSIGN  17793<<ASSIGN
ADMIN_FPT.RESULTS
     16340**DCL     17703>>ASSIGN  17796>>ASSIGN
ADMIN_FPT.TERMID
     16210**DCL     17698<<ASSIGN  17791<<ASSIGN
PL6.E3A0      #004=KHA$DVCADM File=KHA$ADMIN.:E05TSI                             WED 07/30/97 00:26 Page:247
ADMIN_FPT.TERMID.TERM
     16212**DCL     16221--REDEF
ASOP
     16386**DCL     17686<<ASSIGN  17803>>DOCASE
B$TRANS
     16867**DCL     17666--ASSIGN
B$TRANS.ASOP
     16872**DCL     17686>>ASSIGN
B$TRANS.BSOP
     16871**DCL     17685>>ASSIGN
B$TRANS.FLGS
     16873**DCL     17614>>DOCASE
B$TRANS.HOP
     16870**DCL     17684>>ASSIGN
B$TRANS.LAST
     16878**DCL     17611>>DOWHILE
B$TRANS.NEW
     16869**DCL     17674>>IF      17678>>ASSIGN
B$TRANS.OLD
     16868**DCL     17612>>IF      17612>>IF
BSOP
     16385**DCL     17685<<ASSIGN  17690>>DOCASE
CHAN
     16390**DCL     17577<<DOINDEX 17578>>ASSIGN
CHANHI
     16392**DCL     17510<<ASSIGN  17536<<ASSIGN  17551<<ASSIGN  17577>>DOINDEX
CHANLO
     16391**DCL     17509<<ASSIGN  17510>>ASSIGN  17535<<ASSIGN  17550<<ASSIGN  17577>>DOINDEX
CHN.TERMID.TERM
     16039**DCL     16048--REDEF
CHN$
     16079**DCL     16910--IMP-PTR 17583<>CALL    17588>>ASSIGN  17597>>ASSIGN  17617>>IF      17622>>IF
     17627>>IF      17632>>IF      17640>>IF      17647>>IF      17652>>IF      17657>>IF      17687>>ASSIGN
     17694>>IF      17699>>ASSIGN  17704>>ASSIGN  17783>>ASSIGN  17792>>ASSIGN  17797>>ASSIGN  17805>>ASSIGN
     17809>>ASSIGN  17810>>ASSIGN  17811>>ASSIGN  17812>>ASSIGN  17817>>ASSIGN  17820>>ASSIGN  17824>>ASSIGN
     17825>>ASSIGN  17881>>DOSELCT 17886>>IF      17890>>IF      17894>>IF
PL6.E3A0      #004=KHA$DVCADM File=KHA$ADMIN.:E05TSI                             WED 07/30/97 00:26 Page:248
CHN_C.TERMID.TERM
     15915**DCL     15924--REDEF
COMMON
     17557**LABEL   17516--GOTO    17542--GOTO
CTR$
     16080**DCL     17694>>IF      17707>>ASSIGN  17814>>ASSIGN  17909<<ASSIGN
CTRCHN
     16081**DCL     17884<<ASSIGN  17901<<ASSIGN  17905<<ASSIGN  17909>>ASSIGN
CTRTYPE
     16082**DCL     17694>>IF      17707>>ASSIGN  17814>>ASSIGN  17888<<ASSIGN  17892<<ASSIGN  17896<<ASSIGN
     17898<<ASSIGN  17906<<ASSIGN
DATAVEC
     11116**DCL         6--PROC    17518--ENTRY   17544--ENTRY   17717--IF      17718>>ASSIGN  17719>>ASSIGN
     17720>>ASSIGN  17751<>CALL    17753>>ASSIGN  17779>>ASSIGN
DISABLE_LEVEL
     11135**DCL     17505<<ASSIGN  17506<>CALL    17521<<ASSIGN  17522<>CALL    17527>>IF      17547<<ASSIGN
     17548<>CALL    17565>>IF      17603>>IF      17858>>IF      17870>>IF
ERROR
     11026**DCL         6--PROC    17518--ENTRY   17525<<ASSIGN  17544--ENTRY   17560<<ASSIGN  17563<<ASSIGN
     17584<<ASSIGN  17642<<ASSIGN  17645<<ASSIGN  17669>>IF      17670<<ASSIGN  17681<<ASSIGN  17703<<ASSIGN
     17733<<ASSIGN  17745<<ASSIGN  17760<<ASSIGN  17772<<ASSIGN  17796<<ASSIGN  17834<<ASSIGN  17846<<ASSIGN
ERROR_CHECK
     17858**LABEL   17585--GOTO    17671--GOTO    17682--GOTO    17705--GOTO    17734--GOTO    17746--GOTO
     17751--CALLALT 17761--GOTO    17773--GOTO    17798--GOTO    17835--GOTO    17847--GOTO
ERR_BADCHN
     17329**DCL     17525>>ASSIGN  17584>>ASSIGN
ERR_CLKFAILED
     17424**DCL     17733>>ASSIGN  17745>>ASSIGN  17760>>ASSIGN  17772>>ASSIGN  17834>>ASSIGN  17846>>ASSIGN
ERR_DEDCHN
     17470**DCL     17645>>ASSIGN
ERR_ILGLTRANS
     17378**DCL     17563>>ASSIGN  17670>>ASSIGN  17681>>ASSIGN
GET_CONTROLLER
     17880**PROC    17693--CALL    17813--CALL
GOT_TRANS
     17669**LABEL   17619--GOTO    17624--GOTO    17629--GOTO    17634--GOTO    17643--GOTO    17649--GOTO
PL6.E3A0      #004=KHA$DVCADM File=KHA$ADMIN.:E05TSI                             WED 07/30/97 00:26 Page:249
     17654--GOTO    17659--GOTO    17663--GOTO
HOP
     16384**DCL     17684<<ASSIGN  17788>>IF      17790>>ASSIGN
INHIBIT_LEVEL
     11132**DCL     17503<<ASSIGN  17505>>ASSIGN  17519<<ASSIGN  17521>>ASSIGN  17527>>IF      17545<<ASSIGN
     17547>>ASSIGN  17565>>IF      17603>>IF      17858>>IF      17870>>IF
KEYIN
     16850**DCL     17779<<ASSIGN  17780--ASSIGN
KH$CHN
     16910**DCL     17909--ASSIGN
KH$CHN.ATTR
     16943**DCL     17886>>IF      17890>>IF      17894>>IF
KH$CHN.CCPDWNLD
     16931**DCL     17694>>IF      17707<<ASSIGN  17814<<ASSIGN
KH$CHN.CHNBIT0_9
     16917**DCL     17550>>ASSIGN  17551>>ASSIGN
KH$CHN.CTR
     16953**DCL     17632>>IF
KH$CHN.DED
     16970**DCL     17627>>IF      17640>>IF      17805<<ASSIGN  17810<<ASSIGN
KH$CHN.DSBHSTDWN
     16968**DCL     17652>>IF
KH$CHN.DVCID
     16936**DCL     17881>>DOSELCT
KH$CHN.DWNLOD
     16948**DCL     17809<<ASSIGN  17817<<ASSIGN
KH$CHN.ENB
     16953**DCL     17617>>IF
KH$CHN.ENBHSTUP
     16969**DCL     17657>>IF      17783<<ASSIGN  17820<<ASSIGN
KH$CHN.HAND$
     17017**DCL     17811<<ASSIGN
KH$CHN.KLLHSTDWN
     16969**DCL     17647>>IF
KH$CHN.RE_ENB
     16953**DCL     17622>>IF
PL6.E3A0      #004=KHA$DVCADM File=KHA$ADMIN.:E05TSI                             WED 07/30/97 00:26 Page:250
KH$CHN.STT
     16926**DCL     17597>>ASSIGN  17687<<ASSIGN  17704<<ASSIGN  17797<<ASSIGN
KH$CHN.SYSID
     16943**DCL     17812<<ASSIGN
KH$CHN.TERMID
     17004**DCL     17824>>ASSIGN  17825>>ASSIGN
KH$CHN.TERMID.LEV
     17006**DCL     17694>>IF
KH$CHN.TERMID.TERM
     17006**DCL     17015--REDEF
KHA$BLDLINPRO
     11123**DCL-ENT 17751--CALL
KHA$CHK_TRM_RNG
     11121**DCL-ENT 17524--CALL
KHA$GET_CTX_PTR
     11120**DCL-ENT 17583--CALL    17595--CALL
KHA$SETCLK
     11124**DCL-ENT 17731--CALL    17743--CALL    17758--CALL    17770--CALL    17832--CALL    17844--CALL
KHA_WRITE
     16517**DCL     17731<>CALL    17738<>CALL    17743<>CALL    17758<>CALL    17765<>CALL    17770<>CALL
     17832<>CALL    17839<>CALL    17844<>CALL
KHA_WRITE.BUF_
     16519**DCL     17726<<ASSIGN  17753<<ASSIGN  17827<<ASSIGN
KHI$DISABLE
     11129**DCL-ENT 17506--CALL    17522--CALL    17548--CALL
KHI$ENABLE
     11128**DCL-ENT 17529--CALL    17567--CALL    17605--CALL    17860--CALL    17872--CALL
KH_ADMIN$
     16071**DCL     17701>>CALL    17794>>CALL
KH_CHNHI
     16066**DCL     16067--REDEF
KH_CHNHI$
     16066**DCL     17551>>ASSIGN
KH_CHNLOW
     16067**DCL     16068--REDEF
KH_CHNLOW$
PL6.E3A0      #004=KHA$DVCADM File=KHA$ADMIN.:E05TSI                             WED 07/30/97 00:26 Page:251
     16066**DCL     17550>>ASSIGN  17909>>ASSIGN
KH_CTLTBL$
     16073**DCL     17118--IMP-PTR
KH_FLDWRTS
     16075**DCL     17727>>IF      17754>>IF      17828>>IF
KH_INHLVL
     16074**DCL     17503>>ASSIGN  17519>>ASSIGN  17545>>ASSIGN
KL_RQSPRO.FCN
     16417**DCL     17713<<ASSIGN
KL_RQSPRO.LINE_PROFILE
     16423**DCL     17714<<ASSIGN
KL_RQSPRO.SGN.L
     16490**DCL     16498--IMP-SIZ 17718<<ASSIGN  17720>>ASSIGN  17723<<ASSIGN  17724>>ASSIGN
KL_RQSPRO.SGN.TXT
     16498**DCL     17720<<ASSIGN  17724<<ASSIGN
KL_RQSPRO.TERMINAL_ID
     16468**DCL     17715<<ASSIGN
KL_RQSPRO.TERMINAL_ID.TERM
     16470**DCL     16479--REDEF
KL_RQSPRO.TERMINAL_ID.TTYP
     16470**DCL     17716<<ASSIGN
LEV
     16083**DCL     17508<<ASSIGN  17534<<ASSIGN  17556<<ASSIGN  17576>>ASSIGN  17587>>IF
LIN$
     16171**DCL     17588<<ASSIGN  17595<>CALL    17700>>ASSIGN  17793>>ASSIGN
M$WRITE
      4445**DCL-ENT 17738--CALL    17765--CALL    17839--CALL
NEW
     16387**DCL     17676<<ASSIGN  17678<<ASSIGN  17679>>IF      17687>>ASSIGN
NEXT_CHANNEL
     17846**LABEL   17877--GOTO
NORETRAN
     11117**DCL         6--PROC    17518--ENTRY   17544--ENTRY   17729--IF      17729>>IF      17740--IF
     17740>>IF      17756--IF      17756>>IF      17767--IF      17767>>IF      17830--IF      17830>>IF
     17841--IF      17841>>IF
OLD
PL6.E3A0      #004=KHA$DVCADM File=KHA$ADMIN.:E05TSI                             WED 07/30/97 00:26 Page:252
     16388**DCL     17597<<ASSIGN  17612>>IF      17676>>ASSIGN  17704>>ASSIGN  17797>>ASSIGN
ONEWORD
     17099**DCL     17779>>ASSIGN
OPERATION
     11011**DCL         6--PROC    17518--ENTRY   17544--ENTRY   17561>>IF      17599>>ASSIGN  17826>>ASSIGN
RQSPRO$
     16400**DCL     16416--IMP-PTR 17711<<ASSIGN  17713>>ASSIGN  17714>>ASSIGN  17715>>ASSIGN  17716>>ASSIGN
     17718>>ASSIGN  17720>>ASSIGN  17720>>ASSIGN  17723>>ASSIGN  17724>>ASSIGN  17724>>ASSIGN
RQSPRO_BUF
     16399**DCL     17711--ASSIGN  17712<<ASSIGN  17726--ASSIGN
SET_CCPTYPE IN PROCEDURE GET_CONTROLLER
     17884**LABEL   17902--GOTO
SIGNON
     17100**DCL     17720>>ASSIGN
SIZE
     16172**DCL     17100--IMP-SIZ 17719<<ASSIGN  17720>>ASSIGN
STOP_FLAG
     16389**DCL     17515<<ASSIGN  17541<<ASSIGN  17557<<ASSIGN  17867>>IF
SUB
     16393**DCL     17579<<DOINDEX 17580>>ASSIGN
SUBHI
     16395**DCL     17512<<ASSIGN  17538<<ASSIGN  17553<<ASSIGN  17579>>DOINDEX
SUBLO
     16394**DCL     17511<<ASSIGN  17512>>ASSIGN  17537<<ASSIGN  17552<<ASSIGN  17579>>DOINDEX
SUBSUB
     16396**DCL     17581<<DOINDEX 17582>>ASSIGN
SUBSUBHI
     16398**DCL     17514<<ASSIGN  17540<<ASSIGN  17555<<ASSIGN  17581>>DOINDEX
SUBSUBLO
     16397**DCL     17513<<ASSIGN  17514>>ASSIGN  17539<<ASSIGN  17554<<ASSIGN  17581>>DOINDEX
TERMHI
     11101**DCL         6--PROC    17518--ENTRY   17524<>CALL    17544--ENTRY
TERMHI.TERM
     11105**DCL     11114--REDEF
TERMHI.TERM.CHANNEL
     11111**DCL     17536>>ASSIGN
PL6.E3A0      #004=KHA$DVCADM File=KHA$ADMIN.:E05TSI                             WED 07/30/97 00:26 Page:253
TERMHI.TERM.SUBDEVICE
     11111**DCL     17538>>ASSIGN
TERMHI.TERM.SUBSUBDEVICE
     11111**DCL     17540>>ASSIGN
TERMID
     16098**DCL     17572<<ASSIGN  17583<>CALL    17591>>ASSIGN  17698>>ASSIGN  17715>>ASSIGN  17751<>CALL
     17791>>ASSIGN
TERMID.LEV
     16102**DCL     17576<<ASSIGN
TERMID.TERM
     16102**DCL     16111--REDEF
TERMID.TERM.CHANNEL
     16108**DCL     17578<<ASSIGN  17884>>ASSIGN  17901>>ASSIGN  17905>>ASSIGN
TERMID.TERM.SUBDEVICE
     16108**DCL     17580<<ASSIGN
TERMID.TERM.SUBSUBDEVICE
     16108**DCL     17582<<ASSIGN
TERMID.TERM.TERM_NAME
     16111**DCL     17575<<ASSIGN
TERMID_C
     16156**DCL     17572>>ASSIGN
TERMID_C.TERM
     16160**DCL     16169--REDEF
TERMLO
     11072**DCL         6--PROC    17518--ENTRY   17524<>CALL    17544--ENTRY   17573--IF
TERMLO.LEV
     11076**DCL     17508>>ASSIGN  17534>>ASSIGN
TERMLO.TERM
     11076**DCL     11085--REDEF
TERMLO.TERM.CHANNEL
     11082**DCL     17509>>ASSIGN  17535>>ASSIGN
TERMLO.TERM.SUBDEVICE
     11082**DCL     17511>>ASSIGN  17537>>ASSIGN
TERMLO.TERM.SUBSUBDEVICE
     11082**DCL     17513>>ASSIGN  17539>>ASSIGN
TERMLO.TERM.TERM_NAME
PL6.E3A0      #004=KHA$DVCADM File=KHA$ADMIN.:E05TSI                             WED 07/30/97 00:26 Page:254
     11085**DCL     17575>>ASSIGN
TERMLO.TTYP
     11076**DCL     17716>>ASSIGN
TMP_TERMID
     16127**DCL     17591<<ASSIGN  17595<>CALL
TMP_TERMID.LEV
     16131**DCL     17592<<ASSIGN
TMP_TERMID.TERM
     16131**DCL     16140--REDEF
TMP_TERMID.TERM.SUBDEVICE
     16137**DCL     17593<<ASSIGN
TMP_TERMID.TERM.SUBSUBDEVICE
     16137**DCL     17594<<ASSIGN
TRANS$
     16078**DCL     16867--IMP-PTR 17599<<ASSIGN  17600>>IF      17611>>DOWHILE 17612>>IF      17612>>IF
     17614>>DOCASE  17666<<ASSIGN  17666>>ASSIGN  17674>>IF      17678>>ASSIGN  17684>>ASSIGN  17685>>ASSIGN
     17686>>ASSIGN
TRANS_TABLE$
     15770**DCL     17599>>ASSIGN
TRAN_ACTIVE
     15664**DCL     15799--DCLINIT 15800--DCLINIT
TRAN_BLDLINPRO
     13569**DCL     15790--DCLINIT
TRAN_CNCRQSLINPRO
     13915**DCL     15793--DCLINIT
TRAN_CONFIG
     12919**DCL     15788--DCLINIT
TRAN_CONNECT
     12830**DCL     15785--DCLINIT
TRAN_DISABLE
     11246**DCL     15773--DCLINIT
TRAN_DISCONNECT_EVT
     12442**DCL     15783--DCLINIT
TRAN_DISCONNECT_RQS
     12615**DCL     15784--DCLINIT
TRAN_DVCERR
PL6.E3A0      #004=KHA$DVCADM File=KHA$ADMIN.:E05TSI                             WED 07/30/97 00:26 Page:255
     14088**DCL     15794--DCLINIT
TRAN_DVCERRRSP
     14555**DCL     15795--DCLINIT
TRAN_ENABLE
     11587**DCL     15772--DCLINIT
TRAN_HOSTDOWN
     15022**DCL     15796--DCLINIT
TRAN_HOSTUP
     15448**DCL     15797--DCLINIT
TRAN_INTDVC
     12185**DCL     15787--DCLINIT
TRAN_KILL
     11844**DCL     15774--DCLINIT
TRAN_PARTITION
     13176**DCL     15778--DCLINIT 15779--DCLINIT
TRAN_RETURN
     13307**DCL     15780--DCLINIT
TRAN_RQSLINPRO
     13742**DCL     15789--DCLINIT
TRAN_SGNRJC
     13396**DCL     15792--DCLINIT
