PL6.E3A0      #008=KIA$MSG File=KIA$APPLC.:E05TSI                                WED 07/30/97 00:36 Page:383
     1992        1        /*T***********************************************************/
     1993        2        /*T*                                                         */
     1994        3        /*T* Copyright (c) Bull HN Information Systems Inc., 1997    */
     1995        4        /*T*                                                         */
     1996        5        /*T***********************************************************/
     1997        6
     1998        7
     1999        8        KIA$MSG: PROC (K$RWPARM) ALTRET;
     2000        9
     2001       10        /*F*
     2002       11             NAME: KIA$MSG
     2003       12             PURPOSE:
     2004       13                  This routine decodes an read response and merges the information
     2005       14                  into K$RWPARM.
     2006       15             DESCRIPTION:
     2007       16                  None.
     2008       17        */
     2009       18
     2010       19        %INCLUDE CP_6_SUBS;
     2011      559        %INCLUDE KV$VDO;
     2012     1574        %INCLUDE K$RWPARM;
     2013     1960        %INCLUDE KI$CP6V_C;
     2014     2399        %INCLUDE KV_PRMID_E;
     2015     2573        %KV_PRMID_E;
     2016     2729        %INCLUDE KI_DATA_R;
     2017     2755        %INCLUDE UM_CP6;
     2018     3607
     2019     3608        %VLP$EDTCTL_V (FPTN=VLP$EDTCTL, FILCHRS=0, ALGN=CALIGNED);
     2020     3628        %VLP$WINDOW_V (FPTN=VLP$WINDOW, FILCHRS=0, ALGN=CALIGNED);
     2021     3650        %K$RWPARM (NAME=K$RWPARM);
     2022     3966        %KV_VDO_E;
     2023     4002        %KV_VDOVLP_E;
     2024     4016        %KV_VDOMRKTYP_E;
     2025     4022        %KV_DATMOD_E;
     2026     4028        %KV_DATCTRCHRTYP_E;
     2027     4034        %VLP_ERRCODE (FPTN=VLP$ERRCODE,STCLASS=BASED);
     2028     4079
PL6.E3A0      #008=KIA$MSG File=KIA$APPLC.:E05TSI                                WED 07/30/97 00:36 Page:384
     2029     4080        /* Table size of all vdos */
     2030     4081        %KV_VDOBYTSIZ (NAME=KI_VDOBYTSIZ,STCLASS=SYMREF);
     2031     4101        %KV$VDO_DAT (NAME=KV$CQVDO_DAT, STCLASS="BASED(K$RWPARM.UHDR$)");
     2032     4146        %KV$VDOVLP;
     2033     4182        %KV$VDOVLP_ACTPOS (STCLASS="BASED(MSG$)");
     2034     4233        %KV$VDOVLP_CG_MSGID (STCLASS="BASED(MSG$)");
     2035     4285        %KV$VDOVLP_CG_MSGTYP (STCLASS="BASED(MSG$)");
     2036     4337        %KV$VDOVLP_CG_STA (STCLASS="BASED(MSG$)");
     2037     4388        %KV$VDOVLP_DAT1 (STCLASS="BASED(MSG$)",LAST=",");
     2038     4438    1         2 MSG CHAR(K$RWPARM.MSGSZ);
     2039     4439        %KV$VDOVLP_DAT2 (STCLASS="BASED(MSG$)",LAST=",");
     2040     4489    1         2 MSG CHAR(K$RWPARM.MSGSZ);
     2041     4490        %KV$VDOVLP_ERR (STCLASS="BASED(MSG$)");
     2042     4586        %KV$VDOVLP_FLDID (STCLASS="BASED(MSG$)");
     2043     4637        %KV$VDOVLP_KEY (STCLASS="BASED(MSG$)",LAST=",");
     2044     4687    1         2 KEY CHAR(K$RWPARM.KEYSZ);
     2045     4688    1   DCL 1 CNT CALIGNED BASED,
     2046     4689    1         2 * BIT(1),
     2047     4690    1         2 N SBIN(8) UNAL;
     2048     4691        %KV$VDOVLP_MRK (STCLASS="BASED(MSG$)");
     2049     4744        %KV$VDOVLP_ENTSRD(STCLASS="BASED(MSG$)",LAST=",");
     2050     4794    1         2 MSG CHAR(KV$VDOVLP_ENTSRD.BYTSIZ);
     2051     4795
     2052     4796
     2053     4797    1   DCL MSG$ PTR;
     2054     4798    1   DCL B$HWORD UBIN(18) BASED HALIGNED;
     2055     4799    1   DCL TMP_SZ UBIN/*(18) til PL6 does it right */;
     2056     4800    1   DCL END_VDO UBIN/*(18) til PL6 does it right */;
     2057     4801    1   DCL 1 CVT BASED HALIGNED,
     2058     4802    1         2 HOST,
     2059     4803    1           3 * BIT(1),
     2060     4804    1           3 HI BIT(9),
     2061     4805    1           3 LO BIT(8),
     2062     4806    1         2 FEP REDEF HOST,
     2063     4807    1           3 HI BIT(9),
     2064     4808    1           3 LO BIT(9),
     2065     4809    1         2 HOSTL,
PL6.E3A0      #008=KIA$MSG File=KIA$APPLC.:E05TSI                                WED 07/30/97 00:36 Page:385
     2066     4810    1           3 * BIT(1),
     2067     4811    1           3 HI BIT(9),
     2068     4812    1           3 LO BIT(8),
     2069     4813    1         2 FEPL REDEF HOSTL,
     2070     4814    1           3 HI BIT(9),
     2071     4815    1           3 LO BIT(9);
     2072     4816        %KV$VDO_DAT (STCLASS="");
     2073     4861        %KV$VDO_DAT (NAME=KV$VDO, STCLASS=REDEF KV$VDO_DAT);
     2074     4906    1   DCL ERR BIT(36);
     2075     4907    1   DCL 1 TYC,
     2076     4908    1         2 TYCBIT(0:35) BIT(1) UNAL;
     2077     4909
     2078     4910        /* Entries */
     2079     4911    1   DCL EMR$FEP2HOST ENTRY(2);
     2080     4912    1   DCL KIA$8TO9 ENTRY(3);
     2081     4913
     2082     4914
     2083     4915    1           KV$VDO_DAT = KV$CQVDO_DAT;
     2084     4916    1           TMP_SZ = KI_VDOBYTSIZ(KV$VDO_DAT.FNC);
     2085     4917    1           END_VDO = K$RWPARM.UHDRSZ;
     2086     4918    1           END_VDO = END_VDO+MOD(END_VDO,2);
     2087     4919    1           IF KV$VDO.FNC = 0 OR KV$VDO.FNC > %KV_VDO_FNC_HI OR END_VDO < TMP_SZ
     2088     4920    2             THEN DO;
     2089     4921    2               CALL PROTOCOL_ERR;
     2090     4922    2               ALTRETURN;
     2091     4923    2               END;
     2092     4924    1           K$RWPARM.STR = KV$VDO.STR;
     2093     4925
     2094     4926    2           IF KV$VDO.FNC = %KV_VDO_FNC_DAT THEN DO;
     2095     4927    2               IF KV$VDO_DAT.DATCTRCHRTYP = %KV_DATCTRCHRTYP_ACT
     2096     4928    2                 THEN
     2097     4929    2                   K$RWPARM.DVE.EOMCHAR = KV$VDO_DAT.DATCTRCHR;
     2098     4930    2                 ELSE
     2099     4931    2                   IF KV$VDO_DAT.DATCTRCHRTYP = %KV_DATCTRCHRTYP_VFC
     2100     4932    3                     THEN DO;
     2101     4933    3                       K$RWPARM.DVE.VFC = KV$VDO_DAT.DATCTRCHR;
     2102     4934    3                       K$RWPARM.DVE.DVBYTE.VFC = '1'B;
PL6.E3A0      #008=KIA$MSG File=KIA$APPLC.:E05TSI                                WED 07/30/97 00:36 Page:386
     2103     4935    3                       END;
     2104     4936    3                     ELSE DO;
     2105     4937    3                       K$RWPARM.DVE.EOMCHAR = %EOM_EOR#;
     2106     4938    3                       IF KV$VDO_DAT.DATCTRCHRTYP = %KV_DATCTRCHRTYP_CNT
     2107     4939    3                         THEN
     2108     4940    3                           K$RWPARM.MSGSZ = ADDR(KV$VDO_DAT.DATCTRCHR)->CNT.N;
     2109     4941    3                       END;
     2110     4942    2               IF KV$VDO_DAT.DATMOD = %KV_DATMOD_TRN
     2111     4943    2                 THEN
     2112     4944    2                   K$RWPARM.DVE.DVBYTE.TRANS = '1'B;
     2113     4945
     2114     4946    2               END;
     2115     4947
     2116     4948
     2117     4949    1           IF KV$VDO_DAT.VLP
     2118     4950    1             THEN
     2119     4951    2             DO WHILE '1'B;
     2120     4952
     2121     4953    2               MSG$ = PINCRC(K$RWPARM.UHDR$,TMP_SZ);
     2122     4954
     2123     4955    3               DO CASE (MSG$->KV$VDOVLP.TYP);
     2124     4956
     2125     4957    3                 CASE (%KV_VDOVLP_TYP_ACTPOS);
     2126     4958    3                   K$RWPARM.ACTPOS = KV$VDOVLP_ACTPOS.ACTPOS;
     2127     4959    3                   ADDR(K$RWPARM.ACTPOS)->CVT.HOST.HI =
     2128     4960    3                     ADDR(K$RWPARM.ACTPOS)->CVT.FEP.HI;
     2129     4961    3                   TMP_SZ = TMP_SZ + SIZEC(KV$VDOVLP_ACTPOS);
     2130     4962
     2131     4963    3                 CASE (%KV_VDOVLP_TYP_CG_MSGID);
     2132     4964                  /* Even though the MSGIDXT is present, don't put it in K$RWPARM     */
     2133     4965                                      /* KCF doesn't need it and it wipes out IP$     */
     2134     4966    3                   CALL KIA$8TO9 (MSG$->KV$VDOVLP_CG_MSGID.CG_MSGID,K$RWPARM.MSGID,4);
     2135     4967    3                   TMP_SZ = TMP_SZ + SIZEC(KV$VDOVLP_CG_MSGID);
     2136     4968
     2137     4969    3                 CASE (%KV_VDOVLP_TYP_CG_MSGTYP);
     2138     4970    3                   K$RWPARM.MSGTYP = MSG$->KV$VDOVLP_CG_MSGTYP.CG_MSGTYP;
     2139     4971    3                   TMP_SZ = TMP_SZ + SIZEC(KV$VDOVLP_CG_MSGTYP);
PL6.E3A0      #008=KIA$MSG File=KIA$APPLC.:E05TSI                                WED 07/30/97 00:36 Page:387
     2140     4972
     2141     4973    3                 CASE (%KV_VDOVLP_TYP_CG_STA);
     2142     4974    3                   K$RWPARM.STATION = MSG$->KV$VDOVLP_CG_STA.CG_STA;
     2143     4975    3                   TMP_SZ = TMP_SZ + SIZEC(KV$VDOVLP_CG_STA);
     2144     4976
     2145     4977    3                 CASE (%KV_VDOVLP_TYP_DAT1);
     2146     4978    3                   K$RWPARM.MSGSZ = MSG$->KV$VDOVLP_DAT1.BYTSIZ;
     2147     4979    3                   K$RWPARM.MSG$ = ADDR(KV$VDOVLP_DAT1.MSG);
     2148     4980    3                   TMP_SZ = TMP_SZ + SIZEC(KV$VDOVLP_DAT1);
     2149     4981
     2150     4982    3                 CASE (%KV_VDOVLP_TYP_DAT2);
     2151     4983    3                   K$RWPARM.MSGSZ = KV$VDOVLP_DAT2.BYTSIZ;
     2152     4984    3                   ADDR(K$RWPARM.MSGSZ)->CVT.HOSTL.HI =
     2153     4985    3                     ADDR(K$RWPARM.MSGSZ)->CVT.FEPL.HI;
     2154     4986    3                   K$RWPARM.MSG$ = ADDR(KV$VDOVLP_DAT2.MSG);
     2155     4987    3                   TMP_SZ = TMP_SZ + SIZEC(KV$VDOVLP_DAT2);
     2156     4988
     2157     4989    3                 CASE (%KV_VDOVLP_TYP_ERR);
     2158     4990
     2159     4991    3                   ERR = KV$VDOVLP_ERR.ERRCODE;
     2160     4992    3                   CALL EMR$FEP2HOST(ERR,K$RWPARM.MSG_ERRCODE);
     2161     4993    3                   TYC = '1'B;
     2162     4994    3                   IF ADDR(K$RWPARM.MSG_ERRCODE)->VLP$ERRCODE.ERR# < 36
     2163     4995    3                     THEN
     2164     4996    3                       TYC.TYCBIT(ADDR(K$RWPARM.MSG_ERRCODE)->VLP$ERRCODE.ERR#) = '1'B;
     2165     4997    3                   K$RWPARM.TYC = K$RWPARM.TYC | TYC;
     2166     4998    3                   TMP_SZ = TMP_SZ + SIZEC(KV$VDOVLP_ERR);
     2167     4999
     2168     5000    3                 CASE (%KV_VDOVLP_TYP_FLDID);
     2169     5001    3                   IF K$RWPARM.KEYTYPE = %KEYTYPE_FLDID#
     2170     5002    4                     THEN DO;
     2171     5003    4                       K$RWPARM.KEYSZ = KV$VDOVLP_FLDID.BYTSIZ;
     2172     5004    4                       K$RWPARM.KEY$ = ADDR(K$RWPARM.FLDID);
     2173     5005    4                       END;
     2174     5006    3                   K$RWPARM.FLDID = KV$VDOVLP_FLDID.FLDID;
     2175     5007    3                   ADDR(K$RWPARM.FLDID)->CVT.HOST.HI =
     2176     5008    3                     ADDR(K$RWPARM.FLDID)->CVT.FEP.HI;
PL6.E3A0      #008=KIA$MSG File=KIA$APPLC.:E05TSI                                WED 07/30/97 00:36 Page:388
     2177     5009    3                   TMP_SZ = TMP_SZ + SIZEC(KV$VDOVLP_FLDID);
     2178     5010
     2179     5011    3                 CASE (%KV_VDOVLP_TYP_KEY);
     2180     5012    3                   IF K$RWPARM.KEYTYPE ~= %KEYTYPE_FLDID#
     2181     5013    4                     THEN DO;
     2182     5014    4                       K$RWPARM.KEYSZ = KV$VDOVLP_KEY.BYTSIZ;
     2183     5015    4                       K$RWPARM.KEY$ = ADDR(KV$VDOVLP_KEY.KEY);
     2184     5016    4                       IF K$RWPARM.KEYTYPE = %KEYTYPE_BIN10#
     2185     5017    4                         OR K$RWPARM.KEYTYPE = %KEYTYPE_BINHLF#
     2186     5018    4                         OR K$RWPARM.KEYTYPE = %KEYTYPE_BIN521#
     2187     5019    5                         THEN DO;
     2188     5020    5                           CALL KIA$8TO9 (KV$VDOVLP_KEY.KEY, KV$VDOVLP_KEY.KEY,
     2189     5021    5                             SIZEC (KV$VDOVLP_KEY.KEY));
     2190     5022    5                           END;
     2191     5023    4                       END;
     2192     5024    3                   TMP_SZ = TMP_SZ + SIZEC(KV$VDOVLP_KEY);
     2193     5025
     2194     5026    3                 CASE (%KV_VDOVLP_TYP_MRK);
     2195     5027    3                   K$RWPARM.MARKER = KV$VDOVLP_MRK.ID;
     2196     5028    3                   K$RWPARM.MRKTYP = KV$VDOVLP_MRK.MRKTYP;
     2197     5029    3                   IF K$RWPARM.MRKTYP = %KV_VDOMRKTYP_LSTRCRID
     2198     5030    4                     THEN DO;
     2199     5031    4                       ADDR(K$RWPARM.BLKREC.BLKU#)->CVT.HOST.HI =
     2200     5032    4                         ADDR(K$RWPARM.BLKREC.BLKU#)->CVT.FEP.HI;
     2201     5033    4                       ADDR(K$RWPARM.BLKREC.RECU#)->CVT.HOST.HI =
     2202     5034    4                         ADDR(K$RWPARM.BLKREC.RECU#)->CVT.FEP.HI;
     2203     5035    4                       END;
     2204     5036    3                   K$RWPARM.DVE.DVBYTE.RRR = '1'B;
     2205     5037    3                   TMP_SZ = TMP_SZ + SIZEC(KV$VDOVLP_MRK);
     2206     5038
     2207     5039    3                 CASE (%KV_VDOVLP_TYP_ENTSRD);
     2208     5040    3                   TMP_SZ = TMP_SZ + SIZEC(KV$VDOVLP_ENTSRD);
     2209     5041
     2210     5042    3                 CASE (ELSE);
     2211     5043    3                   CALL PROTOCOL_ERR;
     2212     5044    3                   ALTRETURN;
     2213     5045
PL6.E3A0      #008=KIA$MSG File=KIA$APPLC.:E05TSI                                WED 07/30/97 00:36 Page:389
     2214     5046    3                 END;                      /* End cases                          */
     2215     5047
     2216     5048    2               TMP_SZ = TMP_SZ+MOD(TMP_SZ,2);
     2217     5049    2               IF MSG$->KV$VDOVLP.LST
     2218     5050    2                 THEN
     2219     5051    2                   EXIT;
     2220     5052    2               IF TMP_SZ>=END_VDO
     2221     5053    3                 THEN DO;
     2222     5054    3                   CALL PROTOCOL_ERR;
     2223     5055    3                   ALTRETURN;
     2224     5056    3                   END;
     2225     5057    2               END;
     2226     5058
     2227     5059    1           IF TMP_SZ~=END_VDO
     2228     5060    2             THEN DO;
     2229     5061    2               CALL PROTOCOL_ERR;
     2230     5062    2               ALTRETURN;
     2231     5063    2               END;
     2232     5064    1           IF KV$VDO.FNC=%KV_VDO_FNC_PRM_RSP
     2233     5065    2             THEN DO SELECT K$RWPARM.PRMID;
     2234     5066    2               SELECT %KV_PRMID_EDTCTL;
     2235     5067    2               IF K$RWPARM.MSGSZ>=LENGTHC(VLP$EDTCTL)
     2236     5068    2                 THEN CALL KIA$8TO9(K$RWPARM.MSG$->VLP$EDTCTL.KEYINCR,
     2237     5069    2                     K$RWPARM.MSG$->VLP$EDTCTL.KEYINCR,2);
     2238     5070    2               SELECT %KV_PRMID_WINDOW;
     2239     5071    2               IF K$RWPARM.MSGSZ<LENGTHC(VLP$WINDOW) THEN EXIT;
     2240     5072    2               CALL KIA$8TO9(K$RWPARM.MSG$->VLP$WINDOW.LENGTH,
     2241     5073    2                 K$RWPARM.MSG$->VLP$WINDOW.LENGTH,2);
     2242     5074    2               CALL KIA$8TO9(K$RWPARM.MSG$->VLP$WINDOW.WIDTH,
     2243     5075    2                 K$RWPARM.MSG$->VLP$WINDOW.WIDTH,2);
     2244     5076    2               CALL KIA$8TO9(K$RWPARM.MSG$->VLP$WINDOW.ORG_PST.COLUMN,
     2245     5077    2                 K$RWPARM.MSG$->VLP$WINDOW.ORG_PST.COLUMN,2);
     2246     5078    2               END;
     2247     5079
     2248     5080    1           RETURN;
     2249     5081
     2250     5082    1   PROTOCOL_ERR: PROC;
PL6.E3A0      #008=KIA$MSG File=KIA$APPLC.:E05TSI                                WED 07/30/97 00:36 Page:390
     2251     5083
     2252     5084                  /*N* Error log */
     2253     5085    2           RETURN;
     2254     5086    2   END PROTOCOL_ERR;
     2255     5087
     2256     5088
     2257     5089    1   END KIA$MSG;
     2258     5090        %EOD;

PL6.E3A0      #008=KIA$MSG File=KIA$APPLC.:E05TSI                                WED 07/30/97 00:36 Page:391
--  Include file information  --

   UM_CP6.:E05TOU  is referenced.
   KI_DATA_R.:E05TOU  cannot be made into a system file and is referenced.
   KV_PRMID_E.:E05TOU  is referenced.
   KI$CP6V_C.:E05TOU  is referenced.
   K$RWPARM.:E05TOU  is referenced.
   KV$VDO.:E05TOU  is referenced.
   CP_6_SUBS.:E05TOU  is referenced.
      No diagnostics issued in procedure KIA$MSG.

   Procedure KIA$MSG requires 425 words for executable code.
   Procedure KIA$MSG requires 18 words of local(AUTO) storage.

PL6.E3A0      #008=KIA$MSG File=KIA$APPLC.:E05TSI                                WED 07/30/97 00:36 Page:392

 Object Unit name= KIA$MSG                                    File name= KIA$APPLC.:E05TOU
 UTS= JUL 30 '97 00:36:25.80 WED                              Compiler= PL-6/E31         Sev=      00
 SharedLib= :SHARED_SYSTEM                                    Alt SharedLib=


    ****  Control sections  ****

 Sect   Type Bound  Init  Size OctSiz  Section name(segment info)
    0   Proc  even  none   425    651  KIA$MSG
    1  RoData even  none     5      5  KIA$MSG

    ****  Entry defs  ****

                              Check   Calling
                             calling  sequence
  Sect OctLoc Primary Altret sequence   type   Parms  Name
     0      0   yes    yes     yes      Std        1  KIA$MSG

  ****  Entry refs  ****

         Check        Calling
        calling       sequence
Altret sequence SRef   type   Args  Name
         yes           Std       3 KIA$8TO9
         yes           Std       2 EMR$FEP2HOST
                       nStd      0 X66_AUTO_1
                       nStd      0 X66_AALT
                       Std       0 B_CONSPOOL_D
                       nStd      0 X66_ARET

  ****  Data refs  ****

  Flags:  r = read only, s = secondary
Flgs Name                             Flgs Name                             Flgs Name
     KI_FEI$$                              KI_VDOBYTSIZ                          B_VECTNIL
PL6.E3A0      #008=KIA$MSG File=KIA$APPLC.:E05TSI                                WED 07/30/97 00:36 Page:393

  ****  Segment refs  ****

  Flags:  r = read only, s = secondary
Flgs Name                             Flgs Name                             Flgs Name
     ISSID
PL6.E3A0      #008=KIA$MSG File=KIA$APPLC.:E05TSI                                WED 07/30/97 00:36 Page:394


     1992        1        /*T***********************************************************/
     1993        2        /*T*                                                         */
     1994        3        /*T* Copyright (c) Bull HN Information Systems Inc., 1997    */
     1995        4        /*T*                                                         */
     1996        5        /*T***********************************************************/
     1997        6
     1998        7
     1999        8        KIA$MSG: PROC (K$RWPARM) ALTRET;

      8  0 000000   000000 700200 xent  KIA$MSG      TSX0  ! X66_AUTO_1
         0 000001   000022 000001                    ZERO    18,1

     2000        9
     2001       10        /*F*
     2002       11             NAME: KIA$MSG
     2003       12             PURPOSE:
     2004       13                  This routine decodes an read response and merges the information
     2005       14                  into K$RWPARM.
     2006       15             DESCRIPTION:
     2007       16                  None.
     2008       17        */
     2009       18
     2010       19        %INCLUDE CP_6_SUBS;
     2011      559        %INCLUDE KV$VDO;
     2012     1574        %INCLUDE K$RWPARM;
     2013     1960        %INCLUDE KI$CP6V_C;
     2014     2399        %INCLUDE KV_PRMID_E;
     2015     2573        %KV_PRMID_E;
     2016     2729        %INCLUDE KI_DATA_R;
     2017     2755        %INCLUDE UM_CP6;
     2018     3607
     2019     3608        %VLP$EDTCTL_V (FPTN=VLP$EDTCTL, FILCHRS=0, ALGN=CALIGNED);
     2020     3628        %VLP$WINDOW_V (FPTN=VLP$WINDOW, FILCHRS=0, ALGN=CALIGNED);
     2021     3650        %K$RWPARM (NAME=K$RWPARM);
     2022     3966        %KV_VDO_E;
     2023     4002        %KV_VDOVLP_E;
PL6.E3A0      #008=KIA$MSG File=KIA$APPLC.:E05TSI                                WED 07/30/97 00:36 Page:395
     2024     4016        %KV_VDOMRKTYP_E;
     2025     4022        %KV_DATMOD_E;
     2026     4028        %KV_DATCTRCHRTYP_E;
     2027     4034        %VLP_ERRCODE (FPTN=VLP$ERRCODE,STCLASS=BASED);
     2028     4079
     2029     4080        /* Table size of all vdos */
     2030     4081        %KV_VDOBYTSIZ (NAME=KI_VDOBYTSIZ,STCLASS=SYMREF);
     2031     4101        %KV$VDO_DAT (NAME=KV$CQVDO_DAT, STCLASS="BASED(K$RWPARM.UHDR$)");
     2032     4146        %KV$VDOVLP;
     2033     4182        %KV$VDOVLP_ACTPOS (STCLASS="BASED(MSG$)");
     2034     4233        %KV$VDOVLP_CG_MSGID (STCLASS="BASED(MSG$)");
     2035     4285        %KV$VDOVLP_CG_MSGTYP (STCLASS="BASED(MSG$)");
     2036     4337        %KV$VDOVLP_CG_STA (STCLASS="BASED(MSG$)");
     2037     4388        %KV$VDOVLP_DAT1 (STCLASS="BASED(MSG$)",LAST=",");
     2038     4438    1         2 MSG CHAR(K$RWPARM.MSGSZ);
     2039     4439        %KV$VDOVLP_DAT2 (STCLASS="BASED(MSG$)",LAST=",");
     2040     4489    1         2 MSG CHAR(K$RWPARM.MSGSZ);
     2041     4490        %KV$VDOVLP_ERR (STCLASS="BASED(MSG$)");
     2042     4586        %KV$VDOVLP_FLDID (STCLASS="BASED(MSG$)");
     2043     4637        %KV$VDOVLP_KEY (STCLASS="BASED(MSG$)",LAST=",");
     2044     4687    1         2 KEY CHAR(K$RWPARM.KEYSZ);
     2045     4688    1   DCL 1 CNT CALIGNED BASED,
     2046     4689    1         2 * BIT(1),
     2047     4690    1         2 N SBIN(8) UNAL;
     2048     4691        %KV$VDOVLP_MRK (STCLASS="BASED(MSG$)");
     2049     4744        %KV$VDOVLP_ENTSRD(STCLASS="BASED(MSG$)",LAST=",");
     2050     4794    1         2 MSG CHAR(KV$VDOVLP_ENTSRD.BYTSIZ);
     2051     4795
     2052     4796
     2053     4797    1   DCL MSG$ PTR;
     2054     4798    1   DCL B$HWORD UBIN(18) BASED HALIGNED;
     2055     4799    1   DCL TMP_SZ UBIN/*(18) til PL6 does it right */;
     2056     4800    1   DCL END_VDO UBIN/*(18) til PL6 does it right */;
     2057     4801    1   DCL 1 CVT BASED HALIGNED,
     2058     4802    1         2 HOST,
     2059     4803    1           3 * BIT(1),
     2060     4804    1           3 HI BIT(9),
PL6.E3A0      #008=KIA$MSG File=KIA$APPLC.:E05TSI                                WED 07/30/97 00:36 Page:396
     2061     4805    1           3 LO BIT(8),
     2062     4806    1         2 FEP REDEF HOST,
     2063     4807    1           3 HI BIT(9),
     2064     4808    1           3 LO BIT(9),
     2065     4809    1         2 HOSTL,
     2066     4810    1           3 * BIT(1),
     2067     4811    1           3 HI BIT(9),
     2068     4812    1           3 LO BIT(8),
     2069     4813    1         2 FEPL REDEF HOSTL,
     2070     4814    1           3 HI BIT(9),
     2071     4815    1           3 LO BIT(9);
     2072     4816        %KV$VDO_DAT (STCLASS="");
     2073     4861        %KV$VDO_DAT (NAME=KV$VDO, STCLASS=REDEF KV$VDO_DAT);
     2074     4906    1   DCL ERR BIT(36);
     2075     4907    1   DCL 1 TYC,
     2076     4908    1         2 TYCBIT(0:35) BIT(1) UNAL;
     2077     4909
     2078     4910        /* Entries */
     2079     4911    1   DCL EMR$FEP2HOST ENTRY(2);
     2080     4912    1   DCL KIA$8TO9 ENTRY(3);
     2081     4913
     2082     4914
     2083     4915    1           KV$VDO_DAT = KV$CQVDO_DAT;

   4915  0 000002   200003 470500                    LDP0    @K$RWPARM,,AUTO
         0 000003   000014 471500                    LDP1    12,,PR0
         0 000004   000100 100500                    MLR     fill='000'O
         0 000005   100000 000004                    ADSC9   0,,PR1                   cn=0,n=4
         0 000006   200007 000004                    ADSC9   KV$VDO_DAT,,AUTO         cn=0,n=4

     2084     4916    1           TMP_SZ = KI_VDOBYTSIZ(KV$VDO_DAT.FNC);

   4916  0 000007   200007 236100                    LDQ     KV$VDO_DAT,,AUTO
         0 000010   000033 772000                    QRL     27
         0 000011   000100 101406                    MRL     fill='000'O
         0 000012   000000 000001 xsym               ADSC9   KI_VDOBYTSIZ,Q           cn=0,n=1
         0 000013   200005 000004                    ADSC9   TMP_SZ,,AUTO             cn=0,n=4
PL6.E3A0      #008=KIA$MSG File=KIA$APPLC.:E05TSI                                WED 07/30/97 00:36 Page:397

     2085     4917    1           END_VDO = K$RWPARM.UHDRSZ;

   4917  0 000014   000015 235100                    LDA     13,,PR0
         0 000015   200006 755100                    STA     END_VDO,,AUTO

     2086     4918    1           END_VDO = END_VDO+MOD(END_VDO,2);

   4918  0 000016   200006 236100                    LDQ     END_VDO,,AUTO
         0 000017   000001 376007                    ANQ     1,DL
         0 000020   200006 036100                    ADLQ    END_VDO,,AUTO
         0 000021   200006 756100                    STQ     END_VDO,,AUTO

     2087     4919    1           IF KV$VDO.FNC = 0 OR KV$VDO.FNC > %KV_VDO_FNC_HI OR END_VDO < TMP_SZ

   4919  0 000022   200007 236100                    LDQ     KV$VDO_DAT,,AUTO
         0 000023   777000 316003                    CANQ    -512,DU
         0 000024   000034 600000 0                  TZE     s:4921
         0 000025   200007 236100                    LDQ     KV$VDO_DAT,,AUTO
         0 000026   777000 376003                    ANQ     -512,DU
         0 000027   043000 116003                    CMPQ    17920,DU
         0 000030   000034 603000 0                  TRC     s:4921
         0 000031   200006 236100                    LDQ     END_VDO,,AUTO
         0 000032   200005 116100                    CMPQ    TMP_SZ,,AUTO
         0 000033   000037 603000 0                  TRC     s:4924

     2088     4920    2             THEN DO;

     2089     4921    2               CALL PROTOCOL_ERR;

   4921  0 000034   000647 701000 0                  TSX1    PROTOCOL_ERR
         0 000035   000000 011000                    NOP     0

     2090     4922    2               ALTRETURN;

   4922  0 000036   000000 702200 xent               TSX2  ! X66_AALT

PL6.E3A0      #008=KIA$MSG File=KIA$APPLC.:E05TSI                                WED 07/30/97 00:36 Page:398
     2091     4923    2               END;
     2092     4924    1           K$RWPARM.STR = KV$VDO.STR;

   4924  0 000037   200007 236100                    LDQ     KV$VDO_DAT,,AUTO
         0 000040   000177 376003                    ANQ     127,DU
         0 000041   000022 772000                    QRL     18
         0 000042   000040 552104                    STBQ    32,'04'O,PR0

     2093     4925
     2094     4926    2           IF KV$VDO.FNC = %KV_VDO_FNC_DAT THEN DO;

   4926  0 000043   200007 236100                    LDQ     KV$VDO_DAT,,AUTO
         0 000044   777000 376003                    ANQ     -512,DU
         0 000045   005000 116003                    CMPQ    2560,DU
         0 000046   000107 601000 0                  TNZ     s:4949

     2095     4927    2               IF KV$VDO_DAT.DATCTRCHRTYP = %KV_DATCTRCHRTYP_ACT

   4927  0 000047   200007 236100                    LDQ     KV$VDO_DAT,,AUTO
         0 000050   014000 376007                    ANQ     6144,DL
         0 000051   004000 116007                    CMPQ    2048,DL
         0 000052   000057 601000 0                  TNZ     s:4931

     2096     4928    2                 THEN
     2097     4929    2                   K$RWPARM.DVE.EOMCHAR = KV$VDO_DAT.DATCTRCHR;

   4929  0 000053   200007 236100                    LDQ     KV$VDO_DAT,,AUTO
         0 000054   000022 736000                    QLS     18
         0 000055   000010 552120                    STBQ    8,'20'O,PR0
         0 000056   000101 710000 0                  TRA     s:4942

     2098     4930    2                 ELSE
     2099     4931    2                   IF KV$VDO_DAT.DATCTRCHRTYP = %KV_DATCTRCHRTYP_VFC

   4931  0 000057   010000 116007                    CMPQ    4096,DL
         0 000060   000067 601000 0                  TNZ     s:4937

PL6.E3A0      #008=KIA$MSG File=KIA$APPLC.:E05TSI                                WED 07/30/97 00:36 Page:399
     2100     4932    3                     THEN DO;

     2101     4933    3                       K$RWPARM.DVE.VFC = KV$VDO_DAT.DATCTRCHR;

   4933  0 000061   200007 236100                    LDQ     KV$VDO_DAT,,AUTO
         0 000062   000022 736000                    QLS     18
         0 000063   000010 552120                    STBQ    8,'20'O,PR0

     2102     4934    3                       K$RWPARM.DVE.DVBYTE.VFC = '1'B;

   4934  0 000064   100000 236003                    LDQ     32768,DU
         0 000065   000010 256100                    ORSQ    8,,PR0

     2103     4935    3                       END;

   4935  0 000066   000101 710000 0                  TRA     s:4942

     2104     4936    3                     ELSE DO;

     2105     4937    3                       K$RWPARM.DVE.EOMCHAR = %EOM_EOR#;

   4937  0 000067   000501 236003                    LDQ     321,DU
         0 000070   000010 552120                    STBQ    8,'20'O,PR0

     2106     4938    3                       IF KV$VDO_DAT.DATCTRCHRTYP = %KV_DATCTRCHRTYP_CNT

   4938  0 000071   200007 236100                    LDQ     KV$VDO_DAT,,AUTO
         0 000072   014000 376007                    ANQ     6144,DL
         0 000073   014000 116007                    CMPQ    6144,DL
         0 000074   000101 601000 0                  TNZ     s:4942

     2107     4939    3                         THEN
     2108     4940    3                           K$RWPARM.MSGSZ = ADDR(KV$VDO_DAT.DATCTRCHR)->CNT.N;

   4940  0 000075   200007 236100                    LDQ     KV$VDO_DAT,,AUTO
         0 000076   000034 736000                    QLS     28
         0 000077   000034 732000                    QRS     28
PL6.E3A0      #008=KIA$MSG File=KIA$APPLC.:E05TSI                                WED 07/30/97 00:36 Page:400
         0 000100   000001 756100                    STQ     1,,PR0

     2109     4941    3                       END;

     2110     4942    2               IF KV$VDO_DAT.DATMOD = %KV_DATMOD_TRN

   4942  0 000101   200007 236100                    LDQ     KV$VDO_DAT,,AUTO
         0 000102   003000 376007                    ANQ     1536,DL
         0 000103   001000 116007                    CMPQ    512,DL
         0 000104   000107 601000 0                  TNZ     s:4949

     2111     4943    2                 THEN
     2112     4944    2                   K$RWPARM.DVE.DVBYTE.TRANS = '1'B;

   4944  0 000105   020000 236003                    LDQ     8192,DU
         0 000106   000010 256100                    ORSQ    8,,PR0

     2113     4945
     2114     4946    2               END;

     2115     4947
     2116     4948
     2117     4949    1           IF KV$VDO_DAT.VLP

   4949  0 000107   200007 236100                    LDQ     KV$VDO_DAT,,AUTO
         0 000110   000200 316003                    CANQ    128,DU
         0 000111   000521 600000 0                  TZE     s:5059

     2118     4950    1             THEN
     2119     4951    2             DO WHILE '1'B;

     2120     4952
     2121     4953    2               MSG$ = PINCRC(K$RWPARM.UHDR$,TMP_SZ);

   4953  0 000112   200003 470500                    LDP0    @K$RWPARM,,AUTO
         0 000113   000014 471500                    LDP1    12,,PR0
         0 000114   200005 236100                    LDQ     TMP_SZ,,AUTO
PL6.E3A0      #008=KIA$MSG File=KIA$APPLC.:E05TSI                                WED 07/30/97 00:36 Page:401
         0 000115   000011 402007                    MPY     9,DL
         0 000116   100000 503506                    ABD     0,QL,PR1
         0 000117   200004 451500                    STP1    MSG$,,AUTO

     2122     4954
     2123     4955    3               DO CASE (MSG$->KV$VDOVLP.TYP);

   4955  0 000120   003100 061500                    CSR     bolr='003'O
         0 000121   100000 020007                    BDSC    0,,PR1                   by=0,bit=2,n=7
         0 000122   200014 000022                    BDSC    TYC+3,,AUTO              by=0,bit=0,n=18
         0 000123   200014 220100                    LDX0    TYC+3,,AUTO
         0 000124   000014 100003                    CMPX0   12,DU
         0 000125   000127 602010 0                  TNC     s:4955+7,X0
         0 000126   000500 710000 0                  TRA     s:5043
         0 000127   000500 710000 0                  TRA     s:5043
         0 000130   000157 710000 0                  TRA     s:4966
         0 000131   000177 710000 0                  TRA     s:4970
         0 000132   000206 710000 0                  TRA     s:4974
         0 000133   000215 710000 0                  TRA     s:4978
         0 000134   000236 710000 0                  TRA     s:4983
         0 000135   000264 710000 0                  TRA     s:4991
         0 000136   000324 710000 0                  TRA     s:5001
         0 000137   000352 710000 0                  TRA     s:5012
         0 000140   000430 710000 0                  TRA     s:5027
         0 000141   000462 710000 0                  TRA     s:5040
         0 000142   000143 710000 0                  TRA     s:4958

     2124     4956
     2125     4957    3                 CASE (%KV_VDOVLP_TYP_ACTPOS);

     2126     4958    3                   K$RWPARM.ACTPOS = KV$VDOVLP_ACTPOS.ACTPOS;

   4958  0 000143   000100 100500                    MLR     fill='000'O
         0 000144   100000 400002                    ADSC9   0,,PR1                   cn=2,n=2
         0 000145   000046 000002                    ADSC9   38,,PR0                  cn=0,n=2

     2127     4959    3                   ADDR(K$RWPARM.ACTPOS)->CVT.HOST.HI =
PL6.E3A0      #008=KIA$MSG File=KIA$APPLC.:E05TSI                                WED 07/30/97 00:36 Page:402

   4959  0 000146   000046 236100                    LDQ     38,,PR0
         0 000147   000001 772000                    QRL     1
         0 000150   000046 676100                    ERQ     38,,PR0
         0 000151   377400 376003                    ANQ     130816,DU
         0 000152   000046 656100                    ERSQ    38,,PR0

     2128     4960    3                     ADDR(K$RWPARM.ACTPOS)->CVT.FEP.HI;
     2129     4961    3                   TMP_SZ = TMP_SZ + SIZEC(KV$VDOVLP_ACTPOS);

   4961  0 000153   200005 235100                    LDA     TMP_SZ,,AUTO
         0 000154   000004 035007                    ADLA    4,DL
         0 000155   200005 755100                    STA     TMP_SZ,,AUTO
         0 000156   000503 710000 0                  TRA     s:5048

     2130     4962
     2131     4963    3                 CASE (%KV_VDOVLP_TYP_CG_MSGID);

     2132     4964                  /* Even though the MSGIDXT is present, don't put it in K$RWPARM     */
     2133     4965                                      /* KCF doesn't need it and it wipes out IP$     */
     2134     4966    3                   CALL KIA$8TO9 (MSG$->KV$VDOVLP_CG_MSGID.CG_MSGID,K$RWPARM.MSGID,4);

   4966  0 000157   000000 236000 1                  LDQ     0
         0 000160   200016 756100                    STQ     TYC+5,,AUTO
         0 000161   200003 236100                    LDQ     @K$RWPARM,,AUTO
         0 000162   000011 036003                    ADLQ    9,DU
         0 000163   200015 756100                    STQ     TYC+4,,AUTO
         0 000164   200004 236100                    LDQ     MSG$,,AUTO
         0 000165   000001 036003                    ADLQ    1,DU
         0 000166   200014 756100                    STQ     TYC+3,,AUTO
         0 000167   200014 630500                    EPPR0   TYC+3,,AUTO
         0 000170   000021 631400 xsym               EPPR1   B_VECTNIL+17
         0 000171   000000 701000 xent               TSX1    KIA$8TO9
         0 000172   000000 011000                    NOP     0

     2135     4967    3                   TMP_SZ = TMP_SZ + SIZEC(KV$VDOVLP_CG_MSGID);

PL6.E3A0      #008=KIA$MSG File=KIA$APPLC.:E05TSI                                WED 07/30/97 00:36 Page:403
   4967  0 000173   200005 235100                    LDA     TMP_SZ,,AUTO
         0 000174   000014 035007                    ADLA    12,DL
         0 000175   200005 755100                    STA     TMP_SZ,,AUTO
         0 000176   000503 710000 0                  TRA     s:5048

     2136     4968
     2137     4969    3                 CASE (%KV_VDOVLP_TYP_CG_MSGTYP);

     2138     4970    3                   K$RWPARM.MSGTYP = MSG$->KV$VDOVLP_CG_MSGTYP.CG_MSGTYP;

   4970  0 000177   040100 100500                    MLR     fill='040'O
         0 000200   100001 000010                    ADSC9   1,,PR1                   cn=0,n=8
         0 000201   000004 000010                    ADSC9   4,,PR0                   cn=0,n=8

     2139     4971    3                   TMP_SZ = TMP_SZ + SIZEC(KV$VDOVLP_CG_MSGTYP);

   4971  0 000202   200005 235100                    LDA     TMP_SZ,,AUTO
         0 000203   000014 035007                    ADLA    12,DL
         0 000204   200005 755100                    STA     TMP_SZ,,AUTO
         0 000205   000503 710000 0                  TRA     s:5048

     2140     4972
     2141     4973    3                 CASE (%KV_VDOVLP_TYP_CG_STA);

     2142     4974    3                   K$RWPARM.STATION = MSG$->KV$VDOVLP_CG_STA.CG_STA;

   4974  0 000206   040100 100500                    MLR     fill='040'O
         0 000207   100001 000010                    ADSC9   1,,PR1                   cn=0,n=8
         0 000210   000002 000010                    ADSC9   2,,PR0                   cn=0,n=8

     2143     4975    3                   TMP_SZ = TMP_SZ + SIZEC(KV$VDOVLP_CG_STA);

   4975  0 000211   200005 235100                    LDA     TMP_SZ,,AUTO
         0 000212   000014 035007                    ADLA    12,DL
         0 000213   200005 755100                    STA     TMP_SZ,,AUTO
         0 000214   000503 710000 0                  TRA     s:5048

PL6.E3A0      #008=KIA$MSG File=KIA$APPLC.:E05TSI                                WED 07/30/97 00:36 Page:404
     2144     4976
     2145     4977    3                 CASE (%KV_VDOVLP_TYP_DAT1);

     2146     4978    3                   K$RWPARM.MSGSZ = MSG$->KV$VDOVLP_DAT1.BYTSIZ;

   4978  0 000215   000100 101500                    MRL     fill='000'O
         0 000216   100000 200001                    ADSC9   0,,PR1                   cn=1,n=1
         0 000217   000001 000004                    ADSC9   1,,PR0                   cn=0,n=4

     2147     4979    3                   K$RWPARM.MSG$ = ADDR(KV$VDOVLP_DAT1.MSG);

   4979  0 000220   200004 236100                    LDQ     MSG$,,AUTO
         0 000221   400000 036007                    ADLQ    -131072,DL
         0 000222   000000 756100                    STQ     0,,PR0

     2148     4980    3                   TMP_SZ = TMP_SZ + SIZEC(KV$VDOVLP_DAT1);

   4980  0 000223   000001 721100                    LXL1    1,,PR0
         0 000224   000002 622011                    EAX2    2,X1
         0 000225   000000 636012                    EAQ     0,X2
         0 000226   000022 732000                    QRS     18
         0 000227   000011 402007                    MPY     9,DL
         0 000230   000021 036007                    ADLQ    17,DL
         0 000231   000022 506007                    DIV     18,DL
         0 000232   000001 736000                    QLS     1
         0 000233   200005 036100                    ADLQ    TMP_SZ,,AUTO
         0 000234   200005 756100                    STQ     TMP_SZ,,AUTO
         0 000235   000503 710000 0                  TRA     s:5048

     2149     4981
     2150     4982    3                 CASE (%KV_VDOVLP_TYP_DAT2);

     2151     4983    3                   K$RWPARM.MSGSZ = KV$VDOVLP_DAT2.BYTSIZ;

   4983  0 000236   000100 101500                    MRL     fill='000'O
         0 000237   100000 400002                    ADSC9   0,,PR1                   cn=2,n=2
         0 000240   000001 000004                    ADSC9   1,,PR0                   cn=0,n=4
PL6.E3A0      #008=KIA$MSG File=KIA$APPLC.:E05TSI                                WED 07/30/97 00:36 Page:405

     2152     4984    3                   ADDR(K$RWPARM.MSGSZ)->CVT.HOSTL.HI =

   4984  0 000241   000001 236100                    LDQ     1,,PR0
         0 000242   000001 772000                    QRL     1
         0 000243   000001 676100                    ERQ     1,,PR0
         0 000244   377400 376007                    ANQ     130816,DL
         0 000245   000001 656100                    ERSQ    1,,PR0

     2153     4985    3                     ADDR(K$RWPARM.MSGSZ)->CVT.FEPL.HI;
     2154     4986    3                   K$RWPARM.MSG$ = ADDR(KV$VDOVLP_DAT2.MSG);

   4986  0 000246   200004 236100                    LDQ     MSG$,,AUTO
         0 000247   000001 036003                    ADLQ    1,DU
         0 000250   000000 756100                    STQ     0,,PR0

     2155     4987    3                   TMP_SZ = TMP_SZ + SIZEC(KV$VDOVLP_DAT2);

   4987  0 000251   000001 721100                    LXL1    1,,PR0
         0 000252   000004 622011                    EAX2    4,X1
         0 000253   000000 636012                    EAQ     0,X2
         0 000254   000022 732000                    QRS     18
         0 000255   000011 402007                    MPY     9,DL
         0 000256   000021 036007                    ADLQ    17,DL
         0 000257   000022 506007                    DIV     18,DL
         0 000260   000001 736000                    QLS     1
         0 000261   200005 036100                    ADLQ    TMP_SZ,,AUTO
         0 000262   200005 756100                    STQ     TMP_SZ,,AUTO
         0 000263   000503 710000 0                  TRA     s:5048

     2156     4988
     2157     4989    3                 CASE (%KV_VDOVLP_TYP_ERR);

     2158     4990
     2159     4991    3                   ERR = KV$VDOVLP_ERR.ERRCODE;

   4991  0 000264   000100 100500                    MLR     fill='000'O
PL6.E3A0      #008=KIA$MSG File=KIA$APPLC.:E05TSI                                WED 07/30/97 00:36 Page:406
         0 000265   100000 400004                    ADSC9   0,,PR1                   cn=2,n=4
         0 000266   200010 000004                    ADSC9   ERR,,AUTO                cn=0,n=4

     2160     4992    3                   CALL EMR$FEP2HOST(ERR,K$RWPARM.MSG_ERRCODE);

   4992  0 000267   200003 236100                    LDQ     @K$RWPARM,,AUTO
         0 000270   000037 036003                    ADLQ    31,DU
         0 000271   200015 756100                    STQ     TYC+4,,AUTO
         0 000272   200010 633500                    EPPR3   ERR,,AUTO
         0 000273   200014 453500                    STP3    TYC+3,,AUTO
         0 000274   200014 630500                    EPPR0   TYC+3,,AUTO
         0 000275   000020 631400 xsym               EPPR1   B_VECTNIL+16
         0 000276   000000 701000 xent               TSX1    EMR$FEP2HOST
         0 000277   000000 011000                    NOP     0

     2161     4993    3                   TYC = '1'B;

   4993  0 000300   400000 236003                    LDQ     -131072,DU
         0 000301   200011 756100                    STQ     TYC,,AUTO

     2162     4994    3                   IF ADDR(K$RWPARM.MSG_ERRCODE)->VLP$ERRCODE.ERR# < 36

   4994  0 000302   200003 470500                    LDP0    @K$RWPARM,,AUTO
         0 000303   000037 236100                    LDQ     31,,PR0
         0 000304   377770 376007                    ANQ     131064,DL
         0 000305   000440 116007                    CMPQ    288,DL
         0 000306   000315 603000 0                  TRC     s:4997

     2163     4995    3                     THEN
     2164     4996    3                      TYC.TYCBIT(ADDR(K$RWPARM.MSG_ERRCODE)->VLP$ERRCODE.ERR#) = '1'B;

   4996  0 000307   000037 236100                    LDQ     31,,PR0
         0 000310   000003 772000                    QRL     3
         0 000311   037777 376007                    ANQ     16383,DL
         0 000312   003106 060400                    CSL     bolr='003'O
         0 000313   000030 000001 xsym               BDSC    B_VECTNIL+24             by=0,bit=0,n=1
         0 000314   200011 000001                    BDSC    TYC,Q,AUTO               by=0,bit=0,n=1
PL6.E3A0      #008=KIA$MSG File=KIA$APPLC.:E05TSI                                WED 07/30/97 00:36 Page:407

     2165     4997    3                   K$RWPARM.TYC = K$RWPARM.TYC | TYC;

   4997  0 000315   000006 236100                    LDQ     6,,PR0
         0 000316   200011 276100                    ORQ     TYC,,AUTO
         0 000317   000006 756100                    STQ     6,,PR0

     2166     4998    3                   TMP_SZ = TMP_SZ + SIZEC(KV$VDOVLP_ERR);

   4998  0 000320   200005 235100                    LDA     TMP_SZ,,AUTO
         0 000321   000006 035007                    ADLA    6,DL
         0 000322   200005 755100                    STA     TMP_SZ,,AUTO
         0 000323   000503 710000 0                  TRA     s:5048

     2167     4999
     2168     5000    3                 CASE (%KV_VDOVLP_TYP_FLDID);

     2169     5001    3                   IF K$RWPARM.KEYTYPE = %KEYTYPE_FLDID#

   5001  0 000324   000046 236100                    LDQ     38,,PR0
         0 000325   777000 376007                    ANQ     -512,DL
         0 000326   001000 116007                    CMPQ    512,DL
         0 000327   000336 601000 0                  TNZ     s:5006

     2170     5002    4                     THEN DO;

     2171     5003    4                       K$RWPARM.KEYSZ = KV$VDOVLP_FLDID.BYTSIZ;

   5003  0 000330   000100 100500                    MLR     fill='000'O
         0 000331   100000 200001                    ADSC9   0,,PR1                   cn=1,n=1
         0 000332   000046 600001                    ADSC9   38,,PR0                  cn=3,n=1

     2172     5004    4                       K$RWPARM.KEY$ = ADDR(K$RWPARM.FLDID);

   5004  0 000333   200003 236100                    LDQ     @K$RWPARM,,AUTO
         0 000334   000001 036000 1                  ADLQ    1
         0 000335   000044 756100                    STQ     36,,PR0
PL6.E3A0      #008=KIA$MSG File=KIA$APPLC.:E05TSI                                WED 07/30/97 00:36 Page:408

     2173     5005    4                       END;

     2174     5006    3                   K$RWPARM.FLDID = KV$VDOVLP_FLDID.FLDID;

   5006  0 000336   000100 100500                    MLR     fill='000'O
         0 000337   100000 400002                    ADSC9   0,,PR1                   cn=2,n=2
         0 000340   000045 400002                    ADSC9   37,,PR0                  cn=2,n=2

     2175     5007    3                   ADDR(K$RWPARM.FLDID)->CVT.HOST.HI =

   5007  0 000341   000045 236100                    LDQ     37,,PR0
         0 000342   000001 772000                    QRL     1
         0 000343   000045 676100                    ERQ     37,,PR0
         0 000344   377400 376007                    ANQ     130816,DL
         0 000345   000045 656100                    ERSQ    37,,PR0

     2176     5008    3                     ADDR(K$RWPARM.FLDID)->CVT.FEP.HI;
     2177     5009    3                   TMP_SZ = TMP_SZ + SIZEC(KV$VDOVLP_FLDID);

   5009  0 000346   200005 235100                    LDA     TMP_SZ,,AUTO
         0 000347   000004 035007                    ADLA    4,DL
         0 000350   200005 755100                    STA     TMP_SZ,,AUTO
         0 000351   000503 710000 0                  TRA     s:5048

     2178     5010
     2179     5011    3                 CASE (%KV_VDOVLP_TYP_KEY);

     2180     5012    3                   IF K$RWPARM.KEYTYPE ~= %KEYTYPE_FLDID#

   5012  0 000352   000046 236100                    LDQ     38,,PR0
         0 000353   777000 376007                    ANQ     -512,DL
         0 000354   001000 116007                    CMPQ    512,DL
         0 000355   000413 600000 0                  TZE     s:5024

     2181     5013    4                     THEN DO;

PL6.E3A0      #008=KIA$MSG File=KIA$APPLC.:E05TSI                                WED 07/30/97 00:36 Page:409
     2182     5014    4                       K$RWPARM.KEYSZ = KV$VDOVLP_KEY.BYTSIZ;

   5014  0 000356   000100 100500                    MLR     fill='000'O
         0 000357   100000 200001                    ADSC9   0,,PR1                   cn=1,n=1
         0 000360   000046 600001                    ADSC9   38,,PR0                  cn=3,n=1

     2183     5015    4                       K$RWPARM.KEY$ = ADDR(KV$VDOVLP_KEY.KEY);

   5015  0 000361   200004 236100                    LDQ     MSG$,,AUTO
         0 000362   400000 036007                    ADLQ    -131072,DL
         0 000363   000044 756100                    STQ     36,,PR0

     2184     5016    4                       IF K$RWPARM.KEYTYPE = %KEYTYPE_BIN10#

   5016  0 000364   000046 236100                    LDQ     38,,PR0
         0 000365   777000 376007                    ANQ     -512,DL
         0 000366   004000 116007                    CMPQ    2048,DL
         0 000367   000374 600000 0                  TZE     s:5020
         0 000370   005000 116007                    CMPQ    2560,DL
         0 000371   000374 600000 0                  TZE     s:5020
         0 000372   006000 116007                    CMPQ    3072,DL
         0 000373   000413 601000 0                  TNZ     s:5024

     2185     5017    4                         OR K$RWPARM.KEYTYPE = %KEYTYPE_BINHLF#
     2186     5018    4                         OR K$RWPARM.KEYTYPE = %KEYTYPE_BIN521#
     2187     5019    5                         THEN DO;

     2188     5020    5                           CALL KIA$8TO9 (KV$VDOVLP_KEY.KEY, KV$VDOVLP_KEY.KEY,

   5020  0 000374   000046 721100                    LXL1    38,,PR0
         0 000375   000777 361003                    ANX1    511,DU
         0 000376   000000 635011                    EAA     0,X1
         0 000377   000022 771000                    ARL     18
         0 000400   200014 755100                    STA     TYC+3,,AUTO
         0 000401   200014 633500                    EPPR3   TYC+3,,AUTO
         0 000402   200017 453500                    STP3    TYC+6,,AUTO
         0 000403   200004 236100                    LDQ     MSG$,,AUTO
PL6.E3A0      #008=KIA$MSG File=KIA$APPLC.:E05TSI                                WED 07/30/97 00:36 Page:410
         0 000404   400000 036007                    ADLQ    -131072,DL
         0 000405   200016 756100                    STQ     TYC+5,,AUTO
         0 000406   200015 756100                    STQ     TYC+4,,AUTO
         0 000407   200015 630500                    EPPR0   TYC+4,,AUTO
         0 000410   000021 631400 xsym               EPPR1   B_VECTNIL+17
         0 000411   000000 701000 xent               TSX1    KIA$8TO9
         0 000412   000000 011000                    NOP     0

     2189     5021    5                             SIZEC (KV$VDOVLP_KEY.KEY));
     2190     5022    5                           END;

     2191     5023    4                       END;

     2192     5024    3                   TMP_SZ = TMP_SZ + SIZEC(KV$VDOVLP_KEY);

   5024  0 000413   200003 470500                    LDP0    @K$RWPARM,,AUTO
         0 000414   000046 720100                    LXL0    38,,PR0
         0 000415   000777 360003                    ANX0    511,DU
         0 000416   000002 621010                    EAX1    2,X0
         0 000417   000000 636011                    EAQ     0,X1
         0 000420   000022 772000                    QRL     18
         0 000421   000011 402007                    MPY     9,DL
         0 000422   000021 036007                    ADLQ    17,DL
         0 000423   000022 506007                    DIV     18,DL
         0 000424   000001 736000                    QLS     1
         0 000425   200005 036100                    ADLQ    TMP_SZ,,AUTO
         0 000426   200005 756100                    STQ     TMP_SZ,,AUTO
         0 000427   000503 710000 0                  TRA     s:5048

     2193     5025
     2194     5026    3                 CASE (%KV_VDOVLP_TYP_MRK);

     2195     5027    3                   K$RWPARM.MARKER = KV$VDOVLP_MRK.ID;

   5027  0 000430   000100 100500                    MLR     fill='000'O
         0 000431   100001 000004                    ADSC9   1,,PR1                   cn=0,n=4
         0 000432   000007 000004                    ADSC9   7,,PR0                   cn=0,n=4
PL6.E3A0      #008=KIA$MSG File=KIA$APPLC.:E05TSI                                WED 07/30/97 00:36 Page:411

     2196     5028    3                   K$RWPARM.MRKTYP = KV$VDOVLP_MRK.MRKTYP;

   5028  0 000433   000100 100500                    MLR     fill='000'O
         0 000434   100000 600001                    ADSC9   0,,PR1                   cn=3,n=1
         0 000435   000040 400001                    ADSC9   32,,PR0                  cn=2,n=1

     2197     5029    3                   IF K$RWPARM.MRKTYP = %KV_VDOMRKTYP_LSTRCRID

   5029  0 000436   000040 236100                    LDQ     32,,PR0
         0 000437   777000 376007                    ANQ     -512,DL
         0 000440   002000 116007                    CMPQ    1024,DL
         0 000441   000454 601000 0                  TNZ     s:5036

     2198     5030    4                     THEN DO;

     2199     5031    4                       ADDR(K$RWPARM.BLKREC.BLKU#)->CVT.HOST.HI =

   5031  0 000442   000007 236100                    LDQ     7,,PR0
         0 000443   000001 772000                    QRL     1
         0 000444   000007 676100                    ERQ     7,,PR0
         0 000445   377400 376003                    ANQ     130816,DU
         0 000446   000007 656100                    ERSQ    7,,PR0

     2200     5032    4                         ADDR(K$RWPARM.BLKREC.BLKU#)->CVT.FEP.HI;
     2201     5033    4                       ADDR(K$RWPARM.BLKREC.RECU#)->CVT.HOST.HI =

   5033  0 000447   000007 236100                    LDQ     7,,PR0
         0 000450   000001 772000                    QRL     1
         0 000451   000007 676100                    ERQ     7,,PR0
         0 000452   377400 376007                    ANQ     130816,DL
         0 000453   000007 656100                    ERSQ    7,,PR0

     2202     5034    4                         ADDR(K$RWPARM.BLKREC.RECU#)->CVT.FEP.HI;
     2203     5035    4                       END;

     2204     5036    3                   K$RWPARM.DVE.DVBYTE.RRR = '1'B;
PL6.E3A0      #008=KIA$MSG File=KIA$APPLC.:E05TSI                                WED 07/30/97 00:36 Page:412

   5036  0 000454   010000 236003                    LDQ     4096,DU
         0 000455   000010 256100                    ORSQ    8,,PR0

     2205     5037    3                   TMP_SZ = TMP_SZ + SIZEC(KV$VDOVLP_MRK);

   5037  0 000456   200005 235100                    LDA     TMP_SZ,,AUTO
         0 000457   000010 035007                    ADLA    8,DL
         0 000460   200005 755100                    STA     TMP_SZ,,AUTO
         0 000461   000503 710000 0                  TRA     s:5048

     2206     5038
     2207     5039    3                 CASE (%KV_VDOVLP_TYP_ENTSRD);

     2208     5040    3                   TMP_SZ = TMP_SZ + SIZEC(KV$VDOVLP_ENTSRD);

   5040  0 000462   000100 101500                    MRL     fill='000'O
         0 000463   100000 200001                    ADSC9   0,,PR1                   cn=1,n=1
         0 000464   200014 000002                    ADSC9   TYC+3,,AUTO              cn=0,n=2
         0 000465   200014 220100                    LDX0    TYC+3,,AUTO
         0 000466   000002 621010                    EAX1    2,X0
         0 000467   000000 636011                    EAQ     0,X1
         0 000470   000022 772000                    QRL     18
         0 000471   000011 402007                    MPY     9,DL
         0 000472   000021 036007                    ADLQ    17,DL
         0 000473   000022 506007                    DIV     18,DL
         0 000474   000001 736000                    QLS     1
         0 000475   200005 036100                    ADLQ    TMP_SZ,,AUTO
         0 000476   200005 756100                    STQ     TMP_SZ,,AUTO
         0 000477   000503 710000 0                  TRA     s:5048

     2209     5041
     2210     5042    3                 CASE (ELSE);

     2211     5043    3                   CALL PROTOCOL_ERR;

   5043  0 000500   000647 701000 0                  TSX1    PROTOCOL_ERR
PL6.E3A0      #008=KIA$MSG File=KIA$APPLC.:E05TSI                                WED 07/30/97 00:36 Page:413
         0 000501   000000 011000                    NOP     0

     2212     5044    3                   ALTRETURN;

   5044  0 000502   000000 702200 xent               TSX2  ! X66_AALT

     2213     5045
     2214     5046    3                 END;                      /* End cases                          */

     2215     5047
     2216     5048    2               TMP_SZ = TMP_SZ+MOD(TMP_SZ,2);

   5048  0 000503   200005 236100                    LDQ     TMP_SZ,,AUTO
         0 000504   000001 376007                    ANQ     1,DL
         0 000505   200005 036100                    ADLQ    TMP_SZ,,AUTO
         0 000506   200005 756100                    STQ     TMP_SZ,,AUTO

     2217     5049    2               IF MSG$->KV$VDOVLP.LST

   5049  0 000507   200004 470500                    LDP0    MSG$,,AUTO
         0 000510   000000 066500                    CMPB    filb='0'B
         0 000511   000000 010001                    BDSC    0,,PR0                   by=0,bit=1,n=1
         0 000512   000002 000022 xsym               BDSC    B_VECTNIL+2              by=0,bit=0,n=18
         0 000513   000521 601000 0                  TNZ     s:5059

     2218     5050    2                 THEN
     2219     5051    2                   EXIT;
     2220     5052    2               IF TMP_SZ>=END_VDO

   5052  0 000514   200006 116100                    CMPQ    END_VDO,,AUTO
         0 000515   000112 602000 0                  TNC     s:4953

     2221     5053    3                 THEN DO;

     2222     5054    3                   CALL PROTOCOL_ERR;

   5054  0 000516   000647 701000 0                  TSX1    PROTOCOL_ERR
PL6.E3A0      #008=KIA$MSG File=KIA$APPLC.:E05TSI                                WED 07/30/97 00:36 Page:414
         0 000517   000000 011000                    NOP     0

     2223     5055    3                   ALTRETURN;

   5055  0 000520   000000 702200 xent               TSX2  ! X66_AALT

     2224     5056    3                   END;
     2225     5057    2               END;

     2226     5058
     2227     5059    1           IF TMP_SZ~=END_VDO

   5059  0 000521   200005 236100                    LDQ     TMP_SZ,,AUTO
         0 000522   200006 116100                    CMPQ    END_VDO,,AUTO
         0 000523   000527 600000 0                  TZE     s:5064

     2228     5060    2             THEN DO;

     2229     5061    2               CALL PROTOCOL_ERR;

   5061  0 000524   000647 701000 0                  TSX1    PROTOCOL_ERR
         0 000525   000000 011000                    NOP     0

     2230     5062    2               ALTRETURN;

   5062  0 000526   000000 702200 xent               TSX2  ! X66_AALT

     2231     5063    2               END;
     2232     5064    1           IF KV$VDO.FNC=%KV_VDO_FNC_PRM_RSP

   5064  0 000527   200007 236100                    LDQ     KV$VDO_DAT,,AUTO
         0 000530   777000 376003                    ANQ     -512,DU
         0 000531   022000 116003                    CMPQ    9216,DU
         0 000532   000646 601000 0                  TNZ     s:5080

     2233     5065    2             THEN DO SELECT K$RWPARM.PRMID;

PL6.E3A0      #008=KIA$MSG File=KIA$APPLC.:E05TSI                                WED 07/30/97 00:36 Page:415
   5065  0 000533   200003 470500                    LDP0    @K$RWPARM,,AUTO
         0 000534   000045 236100                    LDQ     37,,PR0
         0 000535   777777 376007                    ANQ     -1,DL
         0 000536   000014 116007                    CMPQ    12,DL
         0 000537   000646 602000 0                  TNC     s:5080
         0 000540   000545 600000 0                  TZE     s:5067
         0 000541   000045 720100                    LXL0    37,,PR0
         0 000542   000020 100003                    CMPX0   16,DU
         0 000543   000646 601000 0                  TNZ     s:5080
         0 000544   000570 710000 0                  TRA     s:5071

     2234     5066    2               SELECT %KV_PRMID_EDTCTL;

     2235     5067    2               IF K$RWPARM.MSGSZ>=LENGTHC(VLP$EDTCTL)

   5067  0 000545   000001 235100                    LDA     1,,PR0
         0 000546   000011 115007                    CMPA    9,DL
         0 000547   000646 604000 0                  TMI     s:5080

     2236     5068    2                 THEN CALL KIA$8TO9(K$RWPARM.MSG$->VLP$EDTCTL.KEYINCR,

   5068  0 000550   000000 471500                    LDP1    0,,PR0
         0 000551   000002 236000 1                  LDQ     2
         0 000552   200016 756100                    STQ     TYC+5,,AUTO
         0 000553   200017 451500                    STP1    TYC+6,,AUTO
         0 000554   200017 236100                    LDQ     TYC+6,,AUTO
         0 000555   000003 036000 1                  ADLQ    3
         0 000556   200015 756100                    STQ     TYC+4,,AUTO
         0 000557   200020 451500                    STP1    TYC+7,,AUTO
         0 000560   200020 236100                    LDQ     TYC+7,,AUTO
         0 000561   000003 036000 1                  ADLQ    3
         0 000562   200014 756100                    STQ     TYC+3,,AUTO
         0 000563   200014 630500                    EPPR0   TYC+3,,AUTO
         0 000564   000021 631400 xsym               EPPR1   B_VECTNIL+17
         0 000565   000000 701000 xent               TSX1    KIA$8TO9
         0 000566   000000 011000                    NOP     0
         0 000567   000646 710000 0                  TRA     s:5080
PL6.E3A0      #008=KIA$MSG File=KIA$APPLC.:E05TSI                                WED 07/30/97 00:36 Page:416

     2237     5069    2                     K$RWPARM.MSG$->VLP$EDTCTL.KEYINCR,2);
     2238     5070    2               SELECT %KV_PRMID_WINDOW;

     2239     5071    2               IF K$RWPARM.MSGSZ<LENGTHC(VLP$WINDOW) THEN EXIT;

   5071  0 000570   000001 235100                    LDA     1,,PR0
         0 000571   000023 115007                    CMPA    19,DL
         0 000572   000646 604000 0                  TMI     s:5080

     2240     5072    2               CALL KIA$8TO9(K$RWPARM.MSG$->VLP$WINDOW.LENGTH,

   5072  0 000573   000000 471500                    LDP1    0,,PR0
         0 000574   000002 236000 1                  LDQ     2
         0 000575   200016 756100                    STQ     TYC+5,,AUTO
         0 000576   100001 633500                    EPPR3   1,,PR1
         0 000577   200015 453500                    STP3    TYC+4,,AUTO
         0 000600   100001 634500                    EPPR4   1,,PR1
         0 000601   200014 454500                    STP4    TYC+3,,AUTO
         0 000602   200014 630500                    EPPR0   TYC+3,,AUTO
         0 000603   000021 631400 xsym               EPPR1   B_VECTNIL+17
         0 000604   000000 701000 xent               TSX1    KIA$8TO9
         0 000605   000000 011000                    NOP     0

     2241     5073    2                 K$RWPARM.MSG$->VLP$WINDOW.LENGTH,2);
     2242     5074    2               CALL KIA$8TO9(K$RWPARM.MSG$->VLP$WINDOW.WIDTH,

   5074  0 000606   200003 470500                    LDP0    @K$RWPARM,,AUTO
         0 000607   000000 471500                    LDP1    0,,PR0
         0 000610   000002 236000 1                  LDQ     2
         0 000611   200016 756100                    STQ     TYC+5,,AUTO
         0 000612   200017 451500                    STP1    TYC+6,,AUTO
         0 000613   200017 236100                    LDQ     TYC+6,,AUTO
         0 000614   000003 036000 1                  ADLQ    3
         0 000615   200015 756100                    STQ     TYC+4,,AUTO
         0 000616   200020 451500                    STP1    TYC+7,,AUTO
         0 000617   200020 236100                    LDQ     TYC+7,,AUTO
PL6.E3A0      #008=KIA$MSG File=KIA$APPLC.:E05TSI                                WED 07/30/97 00:36 Page:417
         0 000620   000003 036000 1                  ADLQ    3
         0 000621   200014 756100                    STQ     TYC+3,,AUTO
         0 000622   200014 630500                    EPPR0   TYC+3,,AUTO
         0 000623   000021 631400 xsym               EPPR1   B_VECTNIL+17
         0 000624   000000 701000 xent               TSX1    KIA$8TO9
         0 000625   000000 011000                    NOP     0

     2243     5075    2                 K$RWPARM.MSG$->VLP$WINDOW.WIDTH,2);
     2244     5076    2               CALL KIA$8TO9(K$RWPARM.MSG$->VLP$WINDOW.ORG_PST.COLUMN,

   5076  0 000626   200003 470500                    LDP0    @K$RWPARM,,AUTO
         0 000627   000000 471500                    LDP1    0,,PR0
         0 000630   000002 236000 1                  LDQ     2
         0 000631   200016 756100                    STQ     TYC+5,,AUTO
         0 000632   200017 451500                    STP1    TYC+6,,AUTO
         0 000633   200017 236100                    LDQ     TYC+6,,AUTO
         0 000634   000004 036000 1                  ADLQ    4
         0 000635   200015 756100                    STQ     TYC+4,,AUTO
         0 000636   200020 451500                    STP1    TYC+7,,AUTO
         0 000637   200020 236100                    LDQ     TYC+7,,AUTO
         0 000640   000004 036000 1                  ADLQ    4
         0 000641   200014 756100                    STQ     TYC+3,,AUTO
         0 000642   200014 630500                    EPPR0   TYC+3,,AUTO
         0 000643   000021 631400 xsym               EPPR1   B_VECTNIL+17
         0 000644   000000 701000 xent               TSX1    KIA$8TO9
         0 000645   000000 011000                    NOP     0

     2245     5077    2                 K$RWPARM.MSG$->VLP$WINDOW.ORG_PST.COLUMN,2);
     2246     5078    2               END;

     2247     5079
     2248     5080    1           RETURN;

   5080  0 000646   000000 702200 xent               TSX2  ! X66_ARET

     2249     5081
     2250     5082    1   PROTOCOL_ERR: PROC;
PL6.E3A0      #008=KIA$MSG File=KIA$APPLC.:E05TSI                                WED 07/30/97 00:36 Page:418

   5082  0 000647   200012 741300       PROTOCOL_ERR STX1  ! TYC+1,,AUTO

     2251     5083
     2252     5084                  /*N* Error log */
     2253     5085    2           RETURN;

   5085  0 000650   000001 702211                    TSX2  ! 1,X1

(unnamed)
 Sect OctLoc
   1     000   000006 006000   000045 400000   000004 006000   000001 400000    .....%..........
   1     004   000002 400000                                                    ....
     2254     5086    2   END PROTOCOL_ERR;
     2255     5087
     2256     5088
     2257     5089    1   END KIA$MSG;
     2258     5090        %EOD;

PL6.E3A0      #008=KIA$MSG File=KIA$APPLC.:E05TSI                                WED 07/30/97 00:36 Page:419
--  Include file information  --

   UM_CP6.:E05TOU  is referenced.
   KI_DATA_R.:E05TOU  cannot be made into a system file and is referenced.
   KV_PRMID_E.:E05TOU  is referenced.
   KI$CP6V_C.:E05TOU  is referenced.
   K$RWPARM.:E05TOU  is referenced.
   KV$VDO.:E05TOU  is referenced.
   CP_6_SUBS.:E05TOU  is referenced.
      No diagnostics issued in procedure KIA$MSG.
PL6.E3A0      #008=KIA$MSG File=KIA$APPLC.:E05TSI                                WED 07/30/97 00:36 Page:420

 **** Variables and constants ****

  ****  Auto variables  ****

  ****  Scalars and arrays  ****
OctLoc.c.b A Datatyp(siz) R M Lvl/name                 OctLoc.c.b A Datatyp(siz) R M Lvl/name

     3-0-0/w PTR         r     1 @K$RWPARM                  6-0-0/w UBIN        r     1 END_VDO
    10-0-0/b BIT         r     1 ERR                       *0-0-0/d STRC(1404)  r     1 K$RWPARM
     7-0-0/h STRC        r     1 KV$VDO                     7-0-0/h STRC        r     1 KV$VDO_DAT
     4-0-0/w PTR         r     1 MSG$                       5-0-0/w UBIN        r     1 TMP_SZ
    11-0-0/b STRC        r     1 TYC

  ****  SYMREF variables  ****

  ****  Scalars and arrays  ****
OctLoc.c.b A Datatyp(siz) R M Lvl/name                 OctLoc.c.b A Datatyp(siz) R M Lvl/name

     0-0-0/w PTR         r     1 KI_FEI$$
     0-0-0/c UBIN(9)     r     1 KI_VDOBYTSIZ(0:34)

  ****  BASED and DCB variables  ****

  ****  Scalars and arrays  ****
OctLoc.c.b A Datatyp(siz) R M Lvl/name                 OctLoc.c.b A Datatyp(siz) R M Lvl/name

     0-0-0/c STRC(9)     r     1 CNT                        0-0-0/h STRC        r     1 CVT
     0-0-0/h STRC        r     1 KV$CQVDO_DAT               0-0-0/h STRC(18)    r     1 KV$VDOVLP
     0-0-0/h STRC        r     1 KV$VDOVLP_ACTPOS           0-0-0/h STRC(108)   r     1 KV$VDOVLP_CG_MSGID
     0-0-0/h STRC(108)   r     1 KV$VDOVLP_CG_MSGTYP        0-0-0/h STRC(108)   r     1 KV$VDOVLP_CG_STA
     0-0-0/h ASTR(18)    r     1 KV$VDOVLP_DAT1             0-0-0/h ASTR        r     1 KV$VDOVLP_DAT2
     0-0-0/h ASTR(18)    r     1 KV$VDOVLP_ENTSRD           0-0-0/h STRC(54)    r     1 KV$VDOVLP_ERR
     0-0-0/h STRC        r     1 KV$VDOVLP_FLDID            0-0-0/h ASTR(18)    r     1 KV$VDOVLP_KEY
     0-0-0/h STRC(72)    r     1 KV$VDOVLP_MRK              0-0-0/c STRC(81)    r     1 VLP$EDTCTL
     0-0-0/w STRC        r     1 VLP$ERRCODE                0-0-0/w STRC(171)   r     1 VLP$WINDOW

PL6.E3A0      #008=KIA$MSG File=KIA$APPLC.:E05TSI                                WED 07/30/97 00:36 Page:421

   Procedure KIA$MSG requires 425 words for executable code.
   Procedure KIA$MSG requires 18 words of local(AUTO) storage.
PL6.E3A0      #008=KIA$MSG File=KIA$APPLC.:E05TSI                                WED 07/30/97 00:36 Page:422
          *** CROSS REFERENCE LISTING ***
**     DENOTES     IDENTIFIER DEFINITION
<<                 IDENTIFIER'S VALUE SET
>>                 IDENTIFIER'S VALUE USED
<>                 IDENTIFIER SET AND/OR USED
--                 IDENTIFIER REFERENCED
PL6.E3A0      #008=KIA$MSG File=KIA$APPLC.:E05TSI                                WED 07/30/97 00:36 Page:423
          MINI XREF LISTING

CNT.N
      4690**DCL      4940>>ASSIGN
CVT.FEP.HI
      4807**DCL      4959>>ASSIGN   5007>>ASSIGN   5031>>ASSIGN   5033>>ASSIGN
CVT.FEPL.HI
      4814**DCL      4984>>ASSIGN
CVT.HOST
      4802**DCL      4806--REDEF
CVT.HOST.HI
      4804**DCL      4959<<ASSIGN   5007<<ASSIGN   5031<<ASSIGN   5033<<ASSIGN
CVT.HOSTL
      4809**DCL      4813--REDEF
CVT.HOSTL.HI
      4811**DCL      4984<<ASSIGN
EMR$FEP2HOST
      4911**DCL-ENT  4992--CALL
END_VDO
      4800**DCL      4917<<ASSIGN   4918<<ASSIGN   4918>>ASSIGN   4918>>ASSIGN   4919>>IF       5052>>IF
      5059>>IF
ERR
      4906**DCL      4991<<ASSIGN   4992<>CALL
K$RWPARM
      3671**DCL         8--PROC
K$RWPARM.ACTPOS
      3957**DCL      4958<<ASSIGN   4959--ASSIGN   4959--ASSIGN
K$RWPARM.BLKREC
      3697**DCL      3722--REDEF
K$RWPARM.BLKREC.BLKU#
      3698**DCL      3700--REDEF    5031--ASSIGN   5031--ASSIGN
K$RWPARM.BLKREC.RECU#
      3710**DCL      3712--REDEF    5033--ASSIGN   5033--ASSIGN
K$RWPARM.DVE.DVBYTE.RRR
PL6.E3A0      #008=KIA$MSG File=KIA$APPLC.:E05TSI                                WED 07/30/97 00:36 Page:424
      3741**DCL      5036<<ASSIGN
K$RWPARM.DVE.DVBYTE.TRANS
      3740**DCL      4944<<ASSIGN
K$RWPARM.DVE.DVBYTE.VFC
      3737**DCL      3738--REDEF    4934<<ASSIGN
K$RWPARM.DVE.EOMCHAR
      3745**DCL      3749--REDEF    4929<<ASSIGN   4937<<ASSIGN
K$RWPARM.DVE.VFC
      3749**DCL      4933<<ASSIGN
K$RWPARM.ERR
      3809**DCL      3814--REDEF
K$RWPARM.FC
      3773**DCL      3774--REDEF
K$RWPARM.FLDID
      3955**DCL      3956--REDEF    5004--ASSIGN   5006<<ASSIGN   5007--ASSIGN   5007--ASSIGN
K$RWPARM.FPT$
      3836**DCL      3843--REDEF
K$RWPARM.KEY$
      3953**DCL      5004<<ASSIGN   5015<<ASSIGN
K$RWPARM.KEYSZ
      3964**DCL      4687--IMP-SIZ  5003<<ASSIGN   5014<<ASSIGN   5020>>CALL     5020>>CALL     5020>>CALL
      5024>>ASSIGN
K$RWPARM.KEYTYPE
      3962**DCL      3963--REDEF    5001>>IF       5012>>IF       5016>>IF       5016>>IF       5016>>IF
K$RWPARM.MARKER
      3722**DCL      5027<<ASSIGN
K$RWPARM.MRKTYP
      3947**DCL      5028<<ASSIGN   5029>>IF
K$RWPARM.MSG$
      3672**DCL      3678--REDEF    4979<<ASSIGN   4986<<ASSIGN   5068>>CALL     5068>>CALL     5072>>CALL
      5072>>CALL     5074>>CALL     5074>>CALL     5076>>CALL     5076>>CALL
K$RWPARM.MSGID
      3784**DCL      3789--REDEF    4966<>CALL
K$RWPARM.MSGIDXT
      3797**DCL      3801--REDEF
K$RWPARM.MSGSZ
PL6.E3A0      #008=KIA$MSG File=KIA$APPLC.:E05TSI                                WED 07/30/97 00:36 Page:425
      3679**DCL      4438--IMP-SIZ  4489--IMP-SIZ  4940<<ASSIGN   4978<<ASSIGN   4980>>ASSIGN   4983<<ASSIGN
      4984--ASSIGN   4984--ASSIGN   4987>>ASSIGN   5067>>IF       5071>>IF
K$RWPARM.MSGTYP
      3688**DCL      4970<<ASSIGN
K$RWPARM.MSG_ERRCODE
      3932**DCL      4992<>CALL     4994--IF       4996--ASSIGN
K$RWPARM.ORG
      3933**DCL      3934--REDEF
K$RWPARM.PRMID
      3956**DCL      5065>>DOSELCT
K$RWPARM.STATION
      3683**DCL      4974<<ASSIGN
K$RWPARM.STR
      3948**DCL      4924<<ASSIGN
K$RWPARM.THDRSZ
      3877**DCL      3881--REDEF
K$RWPARM.TYC
      3693**DCL      4997<<ASSIGN   4997>>ASSIGN
K$RWPARM.UHDR$
      3822**DCL      4134--IMP-PTR  4915>>ASSIGN   4953>>ASSIGN
K$RWPARM.UHDRSZ
      3827**DCL      4917>>ASSIGN
K$RWPARM.VDOFLGS
      3935**DCL      3946--REDEF
KIA$8TO9
      4912**DCL-ENT  4966--CALL     5020--CALL     5068--CALL     5072--CALL     5074--CALL     5076--CALL
KI_FEI$$
      2740**DCL      2741--IMP-PTR
KI_VDOBYTSIZ
      4094**DCL      4916>>ASSIGN
KV$CQVDO_DAT
      4134**DCL      4915>>ASSIGN
KV$VDO.FNC
      4898**DCL      4919>>IF       4919>>IF       4926>>IF       5064>>IF
KV$VDO.STR
      4898**DCL      4924>>ASSIGN
PL6.E3A0      #008=KIA$MSG File=KIA$APPLC.:E05TSI                                WED 07/30/97 00:36 Page:426
KV$VDOVLP.LST
      4172**DCL      5049>>IF
KV$VDOVLP.TYP
      4172**DCL      4955>>DOCASE
KV$VDOVLP_ACTPOS
      4217**DCL      4961--ASSIGN
KV$VDOVLP_ACTPOS.ACTPOS
      4231**DCL      4958>>ASSIGN
KV$VDOVLP_CG_MSGID
      4268**DCL      4967--ASSIGN
KV$VDOVLP_CG_MSGID.CG_MSGID
      4282**DCL      4966<>CALL
KV$VDOVLP_CG_MSGTYP
      4320**DCL      4971--ASSIGN
KV$VDOVLP_CG_MSGTYP.CG_MSGTYP
      4334**DCL      4970>>ASSIGN
KV$VDOVLP_CG_STA
      4372**DCL      4975--ASSIGN
KV$VDOVLP_CG_STA.CG_STA
      4386**DCL      4974>>ASSIGN
KV$VDOVLP_DAT1
      4423**DCL      4980--ASSIGN
KV$VDOVLP_DAT1.BYTSIZ
      4429**DCL      4978>>ASSIGN
KV$VDOVLP_DAT1.MSG
      4438**DCL      4979--ASSIGN
KV$VDOVLP_DAT2
      4474**DCL      4987--ASSIGN
KV$VDOVLP_DAT2.BYTSIZ
      4482**DCL      4983>>ASSIGN
KV$VDOVLP_DAT2.MSG
      4489**DCL      4986--ASSIGN
KV$VDOVLP_ENTSRD
      4779**DCL      5040--ASSIGN
KV$VDOVLP_ENTSRD.BYTSIZ
      4785**DCL      4794--IMP-SIZ  5040>>ASSIGN
PL6.E3A0      #008=KIA$MSG File=KIA$APPLC.:E05TSI                                WED 07/30/97 00:36 Page:427
KV$VDOVLP_ERR
      4525**DCL      4998--ASSIGN
KV$VDOVLP_ERR.ERRCODE
      4554**DCL      4991>>ASSIGN
KV$VDOVLP_FLDID
      4621**DCL      5009--ASSIGN
KV$VDOVLP_FLDID.BYTSIZ
      4627**DCL      5003>>ASSIGN
KV$VDOVLP_FLDID.FLDID
      4635**DCL      5006>>ASSIGN
KV$VDOVLP_KEY
      4672**DCL      5024--ASSIGN
KV$VDOVLP_KEY.BYTSIZ
      4678**DCL      5014>>ASSIGN
KV$VDOVLP_KEY.KEY
      4687**DCL      5015--ASSIGN   5020<>CALL     5020<>CALL     5020--CALL
KV$VDOVLP_MRK
      4726**DCL      5037--ASSIGN
KV$VDOVLP_MRK.ID
      4741**DCL      5027>>ASSIGN
KV$VDOVLP_MRK.MRKTYP
      4740**DCL      5028>>ASSIGN
KV$VDO_DAT
      4849**DCL      4894--REDEF    4915<<ASSIGN
KV$VDO_DAT.DATCTRCHR
      4858**DCL      4929>>ASSIGN   4933>>ASSIGN   4940--ASSIGN
KV$VDO_DAT.DATCTRCHRTYP
      4857**DCL      4927>>IF       4931>>IF       4938>>IF
KV$VDO_DAT.DATMOD
      4858**DCL      4942>>IF
KV$VDO_DAT.FNC
      4853**DCL      4916>>ASSIGN
KV$VDO_DAT.VLP
      4853**DCL      4949>>IF
MSG$
      4797**DCL      4217--IMP-PTR  4268--IMP-PTR  4320--IMP-PTR  4372--IMP-PTR  4423--IMP-PTR  4474--IMP-PTR
PL6.E3A0      #008=KIA$MSG File=KIA$APPLC.:E05TSI                                WED 07/30/97 00:36 Page:428
      4525--IMP-PTR  4621--IMP-PTR  4672--IMP-PTR  4726--IMP-PTR  4779--IMP-PTR  4953<<ASSIGN   4955>>DOCASE
      4958>>ASSIGN   4966>>CALL     4970>>ASSIGN   4974>>ASSIGN   4978>>ASSIGN   4979>>ASSIGN   4983>>ASSIGN
      4986>>ASSIGN   4991>>ASSIGN   5003>>ASSIGN   5006>>ASSIGN   5014>>ASSIGN   5015>>ASSIGN   5020>>CALL
      5020>>CALL     5027>>ASSIGN   5028>>ASSIGN   5040>>ASSIGN   5040>>ASSIGN   5049>>IF
PROTOCOL_ERR
      5082**PROC     4921--CALL     5043--CALL     5054--CALL     5061--CALL
TMP_SZ
      4799**DCL      4916<<ASSIGN   4919>>IF       4953>>ASSIGN   4961<<ASSIGN   4961>>ASSIGN   4967<<ASSIGN
      4967>>ASSIGN   4971<<ASSIGN   4971>>ASSIGN   4975<<ASSIGN   4975>>ASSIGN   4980<<ASSIGN   4980>>ASSIGN
      4987<<ASSIGN   4987>>ASSIGN   4998<<ASSIGN   4998>>ASSIGN   5009<<ASSIGN   5009>>ASSIGN   5024<<ASSIGN
      5024>>ASSIGN   5037<<ASSIGN   5037>>ASSIGN   5040<<ASSIGN   5040>>ASSIGN   5048<<ASSIGN   5048>>ASSIGN
      5048>>ASSIGN   5052>>IF       5059>>IF
TYC
      4907**DCL      4993<<ASSIGN   4997>>ASSIGN
TYC.TYCBIT
      4908**DCL      4996<<ASSIGN
VLP$EDTCTL
      3621**DCL      5067--IF
VLP$EDTCTL.KEYINCR
      3622**DCL      5068<>CALL     5068<>CALL
VLP$ERRCODE.ERR#
      4076**DCL      4994>>IF       4996>>ASSIGN
VLP$WINDOW
      3641**DCL      5071--IF
VLP$WINDOW.FWINDOW
      3641**DCL      3641--REDEF    3641--REDEF
VLP$WINDOW.LENGTH
      3642**DCL      5072<>CALL     5072<>CALL
VLP$WINDOW.ORG_PST.COLUMN
      3642**DCL      5076<>CALL     5076<>CALL
VLP$WINDOW.WIDTH
      3642**DCL      5074<>CALL     5074<>CALL

PL6.E3A0      #009=KIA$FPRGIN File=KIA$APPLC.:E05TSI                             WED 07/30/97 00:37 Page:429
     2259        1        /*T***********************************************************/
     2260        2        /*T*                                                         */
     2261        3        /*T* Copyright (c) Bull HN Information Systems Inc., 1997    */
     2262        4        /*T*                                                         */
     2263        5        /*T***********************************************************/
     2264        6        KIA$FPRGIN: PROC (NK$LDCT,K$RWPARM) ALTRET;
     2265        7
     2266        8        /*F*
     2267        9             NAME: KIA$FPRGIN
     2268       10             PURPOSE: To handle incoming messages for FPRG connections.
     2269       11             DESCRIPTION:
     2270       12                  This routine handle any special handling of messages for
     2271       13                  FPRG connections.
     2272       14         */
     2273       15
     2274       16        /* Include files */
     2275       17        %INCLUDE B$USER;
     2276      233        %INCLUDE GJ_MSG_M;
     2277      546        %INCLUDE HF_LOCK_C;
     2278      560        %INCLUDE KC$CP6V_C;
     2279      680        %INCLUDE KC_CP6;
     2280     1240        %INCLUDE KV$VDO;
     2281     2255        %INCLUDE NK$LDCT;
     2282     2357        %INCLUDE NK_SUBS;
     2283     2382        %INCLUDE K_DATA_R;
     2284     3093        %INCLUDE SS_SCHED_C;
     2285     3326
     2286     3327        /* Parameters */
     2287     3328        %NK$LDCT (STCLASS="");
     2288     3374        %K$RWPARM (NAME=K$RWPARM,STCLASS="");
     2289     3690
     2290     3691        /* Entry points */
     2291     3692    1   DCL KCF$FEIN ENTRY(2) ALTRET;
     2292     3693    1   DCL KIA$UCIN ENTRY(2) ALTRET;
     2293     3694    1   DCL KIA$MSG ENTRY(1) ALTRET;
     2294     3695    1   DCL KIF$FPRGEVNT ENTRY(3);
     2295     3696    1   DCL KIF$LDTRC ENTRY(1) ALTRET;
PL6.E3A0      #009=KIA$FPRGIN File=KIA$APPLC.:E05TSI                             WED 07/30/97 00:37 Page:430
     2296     3697    1   DCL SSR$RUE ENTRY(4);
     2297     3698    1   DCL EMR$FEP2HOST ENTRY(2);
     2298     3699
     2299     3700        /* Auto */
     2300     3701    1   DCL ERR BIT(36);
     2301     3702    1   DCL EVNT UBIN;
     2302     3703    1   DCL NEWERR BIT(36);
     2303     3704
     2304     3705        /* Symref */
     2305     3706    1   DCL B$USRT$ PTR SYMREF;
     2306     3707
     2307     3708        %GJ_FCN#;
     2308     3734        %GJ_FCN_MSG (STCLASS="BASED(K$RWPARM.MSG$)",ALGN=CALIGNED);
     2309     3759        %KV_VDO_E;
     2310     3795        %KV_VDOVLP_E;
     2311     3809        %KV_VDOMRKTYP_E;
     2312     3815        %KV_DATMOD_E;
     2313     3821        %KV_DATCTRCHRTYP_E;
     2314     3827        %KV$VDO_DAT (STCLASS="BASED(K$RWPARM.UHDR$)");
     2315     3872        %EJECT;
PL6.E3A0      #009=KIA$FPRGIN File=KIA$APPLC.:E05TSI                             WED 07/30/97 00:37 Page:431
     2316     3873
     2317     3874    2           DO CASE (KV$VDO_DAT.FNC);
     2318     3875
     2319     3876    2             CASE (%KV_VDO_FNC_DAT_IMD);   /* Front end telling of an event      */
     2320     3877    2               CALL KIA$MSG(K$RWPARM);
     2321     3878
     2322     3879        /* Now do the appropiate function for the message coming in from
     2323     3880             the monitor on th L6.
     2324     3881         */
     2325     3882    3               DO CASE (GJ_FCN_MSG.FCN);
     2326     3883
     2327     3884
     2328     3885    3                 CASE (%GJ_PROG_ABRT#,%GJ_PROG_EXIT#);
     2329     3886                        %LOCK (G=NK$LDCT.LOCK);
     2330     3889    3                   IF NK$LDCT.LKFLG.WAITINGEXIT AND
     2331     3890    3                     (B$USRT$->B$USER.FLG(NK$LDCT.USER)&%U_SCIO) AND
     2332     3891    3                     B$USRT$->B$USER.MISC$(NK$LDCT.USER) = ADDR(NK$LDCT)
     2333     3892    4                     THEN DO;
     2334     3893    4                       NK$LDCT.LKFLG.WAITINGEXIT = '0'B;
     2335     3894    4                       CALL SSR$RUE(%SS_CIC,NK$LDCT.USER);
     2336     3895    4                       END;
     2337     3896    3                   NK$LDCT.LKFLG.FPSTEP='1'B;
     2338     3897    3                   NK$LDCT.LKFLG.ABORTED='1'B;
     2339     3898    3                   ERR = GJ_FCN_MSG.ERR;
     2340     3899    3                   CALL EMR$FEP2HOST(ERR,NEWERR);
     2341     3900    3                   IF (NOT NK$LDCT.DFLG.SYMBIONT)
     2342     3901    3                     THEN
     2343     3902    3                       NK$LDCT.ERR = NEWERR;
     2344     3903                        %UNLOCK (G=NK$LDCT.LOCK);
     2345     3906    3                   EVNT = GJ_FCN_MSG.FCN;
     2346     3907    3                   CALL KIF$FPRGEVNT(NK$LDCT,EVNT,NEWERR);
     2347     3908    3                   IF NK$LDCT.RESCOD = NK_TSFPRG
     2348     3909    3                     THEN
     2349     3910    3                       CALL SSR$RUE(%SS_FPEVNT,NK$LDCT.USER);
     2350     3911
     2351     3912    3                 CASE (%GJ_PROG_LDTRC#);
     2352     3913                        %LOCK (G=NK$LDCT.LOCK);
PL6.E3A0      #009=KIA$FPRGIN File=KIA$APPLC.:E05TSI                             WED 07/30/97 00:37 Page:432
     2353     3916    3                   NK$LDCT.LKFLG.FPPM='1'B;
     2354     3917                        %UNLOCK (G=NK$LDCT.LOCK);
     2355     3920    3                   CALL SSR$RUE (%SS_FPLDTRC,NK$LDCT.USER,ADDR(NK$LDCT));
     2356     3921
     2357     3922    3                 CASE (ELSE);
     2358     3923                                                /* Should snap                        */
     2359     3924
     2360     3925    3                 END/*case gj_fcn_msg.fcn*/;
     2361     3926
     2362     3927    2             CASE (%KV_VDO_FNC_EVT);
     2363     3928
     2364     3929    2             CASE (%KV_VDO_FNC_DAT,%KV_VDO_FNC_RQSDAT,%KV_VDO_FNC_PRM_RSP,%
              3929                      KV_VDO_FNC_BLKDAT);
     2365     3930    2               IF NK$LDCT.LKFLG.FPPM OR NK$LDCT.LKFLG.FPSTEP
     2366     3931    2                 THEN GOTO UCIN;
     2367     3932    2                 ELSE GOTO CELSE;
     2368     3933    2             CASE(ELSE);
     2369     3934    3   CELSE:      DO CASE (NK$LDCT.RESCOD);
     2370     3935
     2371     3936    3                 CASE (NK_TSFPRG);
     2372     3937    4   UCIN:           CALL KIA$UCIN (NK$LDCT,K$RWPARM) WHENALTRETURN DO;
     2373     3938    4                       ALTRETURN;
     2374     3939    4                       END;
     2375     3940
     2376     3941    3                 CASE (NK_CGFPRG);
     2377     3942    4                   CALL KCF$FEIN(NK$LDCT,K$RWPARM) WHENALTRETURN DO;
     2378     3943    4                       ALTRETURN;
     2379     3944    4                       END;
     2380     3945    3                 END/*case rescod*/;
     2381     3946    2             END/*case vdo_dat.fcn*/;
     2382     3947
     2383     3948    1           RETURN;
     2384     3949
     2385     3950    1   END KIA$FPRGIN;
     2386     3951        %EOD;

PL6.E3A0      #009=KIA$FPRGIN File=KIA$APPLC.:E05TSI                             WED 07/30/97 00:37 Page:433
--  Include file information  --

   SS_SCHED_C.:E05TOU  is referenced.
   K$RWPARM.:E05TOU  is referenced.
   K_DATA_R.:E05TOU  cannot be made into a system file and is referenced.
   NK_SUBS.:E05TOU  is referenced.
   NK$LDCT.:E05TOU  is referenced.
   KV$VDO.:E05TOU  is referenced.
   KC_CP6.:E05TOU  is referenced.
   KC$CP6V_C.:E05TOU  is referenced.
   HF_LOCK_C.:E05TOU  cannot be made into a system file and is referenced.
   GJ_MSG_M.:E05TOU  is referenced.
   B$USER.:E05TOU  cannot be made into a system file and is referenced.
      No diagnostics issued in procedure KIA$FPRGIN.

   Procedure KIA$FPRGIN requires 205 words for executable code.
   Procedure KIA$FPRGIN requires 12 words of local(AUTO) storage.

PL6.E3A0      #009=KIA$FPRGIN File=KIA$APPLC.:E05TSI                             WED 07/30/97 00:37 Page:434

 Object Unit name= KIA$FPRGIN                                 File name= KIA$APPLC.:E05TOU
 UTS= JUL 30 '97 00:37:07.00 WED                              Compiler= PL-6/E31         Sev=      00
 SharedLib= :SHARED_SYSTEM                                    Alt SharedLib=


    ****  Control sections  ****

 Sect   Type Bound  Init  Size OctSiz  Section name(segment info)
    0  RoData even  UTS      1      1  KIA$FPRGIN
    1   Proc  even  none   205    315  KIA$FPRGIN
    2  RoData even  none     7      7  KIA$FPRGIN

    ****  Entry defs  ****

                              Check   Calling
                             calling  sequence
  Sect OctLoc Primary Altret sequence   type   Parms  Name
     1      0   yes    yes     yes      Std        2  KIA$FPRGIN

  ****  Entry refs  ****

         Check        Calling
        calling       sequence
Altret sequence SRef   type   Args  Name
 yes     yes           Std       1 KIA$MSG
         yes           Std       1 HFC$LOCK
         yes           Std       1 HFC$UNLOCK
         yes           Std       3 KIF$FPRGEVNT
         yes           Std       4 SSR$RUE
         yes           Std       2 EMR$FEP2HOST
 yes     yes           Std       2 KCF$FEIN
 yes     yes           Std       2 KIA$UCIN
                       nStd      0 X66_AUTO_2
                       Std       0 B_CONSPOOL_D
                       nStd      0 X66_AALT
                       nStd      0 X66_ARET
PL6.E3A0      #009=KIA$FPRGIN File=KIA$APPLC.:E05TSI                             WED 07/30/97 00:37 Page:435

  ****  Data refs  ****

  Flags:  r = read only, s = secondary
Flgs Name                             Flgs Name                             Flgs Name
     B$USRT$                               B_VECTNIL

  ****  Segment refs  ****

  Flags:  r = read only, s = secondary
Flgs Name                             Flgs Name                             Flgs Name
     ISSID
PL6.E3A0      #009=KIA$FPRGIN File=KIA$APPLC.:E05TSI                             WED 07/30/97 00:37 Page:436


     2259        1        /*T***********************************************************/
     2260        2        /*T*                                                         */
     2261        3        /*T* Copyright (c) Bull HN Information Systems Inc., 1997    */
     2262        4        /*T*                                                         */
     2263        5        /*T***********************************************************/
     2264        6        KIA$FPRGIN: PROC (NK$LDCT,K$RWPARM) ALTRET;

      6  1 000000   000000 700200 xent  KIA$FPRGIN   TSX0  ! X66_AUTO_2
         1 000001   000014 000002                    ZERO    12,2

     2265        7
     2266        8        /*F*
     2267        9             NAME: KIA$FPRGIN
     2268       10             PURPOSE: To handle incoming messages for FPRG connections.
     2269       11             DESCRIPTION:
     2270       12                  This routine handle any special handling of messages for
     2271       13                  FPRG connections.
     2272       14         */
     2273       15
     2274       16        /* Include files */
     2275       17        %INCLUDE B$USER;
     2276      233        %INCLUDE GJ_MSG_M;
     2277      546        %INCLUDE HF_LOCK_C;
     2278      560        %INCLUDE KC$CP6V_C;
     2279      680        %INCLUDE KC_CP6;
     2280     1240        %INCLUDE KV$VDO;
     2281     2255        %INCLUDE NK$LDCT;
     2282     2357        %INCLUDE NK_SUBS;
     2283     2382        %INCLUDE K_DATA_R;
     2284     3093        %INCLUDE SS_SCHED_C;
     2285     3326
     2286     3327        /* Parameters */
     2287     3328        %NK$LDCT (STCLASS="");
     2288     3374        %K$RWPARM (NAME=K$RWPARM,STCLASS="");
     2289     3690
     2290     3691        /* Entry points */
PL6.E3A0      #009=KIA$FPRGIN File=KIA$APPLC.:E05TSI                             WED 07/30/97 00:37 Page:437
     2291     3692    1   DCL KCF$FEIN ENTRY(2) ALTRET;
     2292     3693    1   DCL KIA$UCIN ENTRY(2) ALTRET;
     2293     3694    1   DCL KIA$MSG ENTRY(1) ALTRET;
     2294     3695    1   DCL KIF$FPRGEVNT ENTRY(3);
     2295     3696    1   DCL KIF$LDTRC ENTRY(1) ALTRET;
     2296     3697    1   DCL SSR$RUE ENTRY(4);
     2297     3698    1   DCL EMR$FEP2HOST ENTRY(2);
     2298     3699
     2299     3700        /* Auto */
     2300     3701    1   DCL ERR BIT(36);
     2301     3702    1   DCL EVNT UBIN;
     2302     3703    1   DCL NEWERR BIT(36);
     2303     3704
     2304     3705        /* Symref */
     2305     3706    1   DCL B$USRT$ PTR SYMREF;
     2306     3707
     2307     3708        %GJ_FCN#;
     2308     3734        %GJ_FCN_MSG (STCLASS="BASED(K$RWPARM.MSG$)",ALGN=CALIGNED);
     2309     3759        %KV_VDO_E;
     2310     3795        %KV_VDOVLP_E;
     2311     3809        %KV_VDOMRKTYP_E;
     2312     3815        %KV_DATMOD_E;
     2313     3821        %KV_DATCTRCHRTYP_E;
     2314     3827        %KV$VDO_DAT (STCLASS="BASED(K$RWPARM.UHDR$)");
     2315     3872        %EJECT;
PL6.E3A0      #009=KIA$FPRGIN File=KIA$APPLC.:E05TSI                             WED 07/30/97 00:37 Page:438
     2316     3873
     2317     3874    2           DO CASE (KV$VDO_DAT.FNC);

   3874  1 000002   200004 470500                    LDP0    @K$RWPARM,,AUTO
         1 000003   000014 471500                    LDP1    12,,PR0
         1 000004   000100 101500                    MRL     fill='000'O
         1 000005   100000 000001                    ADSC9   0,,PR1                   cn=0,n=1
         1 000006   200010 000002                    ADSC9   NEWERR+1,,AUTO           cn=0,n=2
         1 000007   200010 220100                    LDX0    NEWERR+1,,AUTO
         1 000010   000027 100003                    CMPX0   23,DU
         1 000011   000013 602010 1                  TNC     s:3874+9,X0
         1 000012   000266 710000 1                  TRA     CELSE
         1 000013   000266 710000 1                  TRA     CELSE
         1 000014   000266 710000 1                  TRA     CELSE
         1 000015   000257 710000 1                  TRA     s:3930
         1 000016   000266 710000 1                  TRA     CELSE
         1 000017   000266 710000 1                  TRA     CELSE
         1 000020   000257 710000 1                  TRA     s:3930
         1 000021   000042 710000 1                  TRA     s:3877
         1 000022   000266 710000 1                  TRA     CELSE
         1 000023   000266 710000 1                  TRA     CELSE
         1 000024   000266 710000 1                  TRA     CELSE
         1 000025   000266 710000 1                  TRA     CELSE
         1 000026   000266 710000 1                  TRA     CELSE
         1 000027   000266 710000 1                  TRA     CELSE
         1 000030   000314 710000 1                  TRA     s:3948
         1 000031   000266 710000 1                  TRA     CELSE
         1 000032   000266 710000 1                  TRA     CELSE
         1 000033   000266 710000 1                  TRA     CELSE
         1 000034   000266 710000 1                  TRA     CELSE
         1 000035   000257 710000 1                  TRA     s:3930
         1 000036   000266 710000 1                  TRA     CELSE
         1 000037   000266 710000 1                  TRA     CELSE
         1 000040   000266 710000 1                  TRA     CELSE
         1 000041   000257 710000 1                  TRA     s:3930

     2318     3875
PL6.E3A0      #009=KIA$FPRGIN File=KIA$APPLC.:E05TSI                             WED 07/30/97 00:37 Page:439
     2319     3876    2             CASE (%KV_VDO_FNC_DAT_IMD);   /* Front end telling of an event      */

     2320     3877    2               CALL KIA$MSG(K$RWPARM);

   3877  1 000042   200004 630500                    EPPR0   @K$RWPARM,,AUTO
         1 000043   000017 631400 xsym               EPPR1   B_VECTNIL+15
         1 000044   000000 701000 xent               TSX1    KIA$MSG
         1 000045   000000 011000                    NOP     0

     2321     3878
     2322     3879        /* Now do the appropiate function for the message coming in from
     2323     3880             the monitor on th L6.
     2324     3881         */
     2325     3882    3               DO CASE (GJ_FCN_MSG.FCN);

   3882  1 000046   200004 470500                    LDP0    @K$RWPARM,,AUTO
         1 000047   000000 471500                    LDP1    0,,PR0
         1 000050   000100 101500                    MRL     fill='000'O
         1 000051   100000 000001                    ADSC9   0,,PR1                   cn=0,n=1
         1 000052   200010 000004                    ADSC9   NEWERR+1,,AUTO           cn=0,n=4
         1 000053   200010 236100                    LDQ     NEWERR+1,,AUTO
         1 000054   000006 136007                    SBLQ    6,DL
         1 000055   000003 116007                    CMPQ    3,DL
         1 000056   000060 602006 1                  TNC     s:3882+10,QL
         1 000057   000314 710000 1                  TRA     s:3948
         1 000060   000063 710000 1                  TRA     s:3887
         1 000061   000063 710000 1                  TRA     s:3887
         1 000062   000221 710000 1                  TRA     s:3914

     2326     3883
     2327     3884
     2328     3885    3                 CASE (%GJ_PROG_ABRT#,%GJ_PROG_EXIT#);

     2329     3886                        %LOCK (G=NK$LDCT.LOCK);

   3887  1 000063   200003 236100                    LDQ     @NK$LDCT,,AUTO
         1 000064   000020 036003                    ADLQ    16,DU
PL6.E3A0      #009=KIA$FPRGIN File=KIA$APPLC.:E05TSI                             WED 07/30/97 00:37 Page:440
         1 000065   200010 756100                    STQ     NEWERR+1,,AUTO
         1 000066   200010 630500                    EPPR0   NEWERR+1,,AUTO
         1 000067   000017 631400 xsym               EPPR1   B_VECTNIL+15
         1 000070   000000 701000 xent               TSX1    HFC$LOCK
         1 000071   000000 011000                    NOP     0

     2330     3889    3                   IF NK$LDCT.LKFLG.WAITINGEXIT AND

   3889  1 000072   200003 470500                    LDP0    @NK$LDCT,,AUTO
         1 000073   000011 236100                    LDQ     9,,PR0
         1 000074   010000 316003                    CANQ    4096,DU
         1 000075   000125 600000 1                  TZE     s:3896
         1 000076   000007 236100                    LDQ     7,,PR0
         1 000077   000016 772000                    QRL     14
         1 000100   017760 376007                    ANQ     8176,DL
         1 000101   000000 471400 xsym               LDP1    B$USRT$
         1 000102   100000 236106                    LDQ     0,QL,PR1
         1 000103   000000 376000 0                  ANQ     0
         1 000104   000125 600000 1                  TZE     s:3896
         1 000105   000007 236100                    LDQ     7,,PR0
         1 000106   000016 772000                    QRL     14
         1 000107   017760 376007                    ANQ     8176,DL
         1 000110   100017 236106                    LDQ     15,QL,PR1
         1 000111   200003 116100                    CMPQ    @NK$LDCT,,AUTO
         1 000112   000125 601000 1                  TNZ     s:3896

     2331     3890    3                     (B$USRT$->B$USER.FLG(NK$LDCT.USER)&%U_SCIO) AND
     2332     3891    3                     B$USRT$->B$USER.MISC$(NK$LDCT.USER) = ADDR(NK$LDCT)
     2333     3892    4                     THEN DO;

     2334     3893    4                       NK$LDCT.LKFLG.WAITINGEXIT = '0'B;

   3893  1 000113   000000 236000 2                  LDQ     0
         1 000114   000011 356100                    ANSQ    9,,PR0

     2335     3894    4                       CALL SSR$RUE(%SS_CIC,NK$LDCT.USER);

PL6.E3A0      #009=KIA$FPRGIN File=KIA$APPLC.:E05TSI                             WED 07/30/97 00:37 Page:441
   3894  1 000115   200003 236100                    LDQ     @NK$LDCT,,AUTO
         1 000116   000001 036000 2                  ADLQ    1
         1 000117   000002 235000 2                  LDA     2
         1 000120   200010 757100                    STAQ    NEWERR+1,,AUTO
         1 000121   200010 630500                    EPPR0   NEWERR+1,,AUTO
         1 000122   000020 631400 xsym               EPPR1   B_VECTNIL+16
         1 000123   000000 701000 xent               TSX1    SSR$RUE
         1 000124   000000 011000                    NOP     0

     2336     3895    4                       END;

     2337     3896    3                   NK$LDCT.LKFLG.FPSTEP='1'B;

   3896  1 000125   200003 470500                    LDP0    @NK$LDCT,,AUTO
         1 000126   000010 236003                    LDQ     8,DU
         1 000127   000011 256100                    ORSQ    9,,PR0

     2338     3897    3                   NK$LDCT.LKFLG.ABORTED='1'B;

   3897  1 000130   100000 236003                    LDQ     32768,DU
         1 000131   000011 256100                    ORSQ    9,,PR0

     2339     3898    3                   ERR = GJ_FCN_MSG.ERR;

   3898  1 000132   200004 471500                    LDP1    @K$RWPARM,,AUTO
         1 000133   100000 473500                    LDP3    0,,PR1
         1 000134   000100 100500                    MLR     fill='000'O
         1 000135   300000 400004                    ADSC9   0,,PR3                   cn=2,n=4
         1 000136   200005 000004                    ADSC9   ERR,,AUTO                cn=0,n=4

     2340     3899    3                   CALL EMR$FEP2HOST(ERR,NEWERR);

   3899  1 000137   200007 633500                    EPPR3   NEWERR,,AUTO
         1 000140   200011 453500                    STP3    NEWERR+2,,AUTO
         1 000141   200005 634500                    EPPR4   ERR,,AUTO
         1 000142   200010 454500                    STP4    NEWERR+1,,AUTO
         1 000143   200010 630500                    EPPR0   NEWERR+1,,AUTO
PL6.E3A0      #009=KIA$FPRGIN File=KIA$APPLC.:E05TSI                             WED 07/30/97 00:37 Page:442
         1 000144   000020 631400 xsym               EPPR1   B_VECTNIL+16
         1 000145   000000 701000 xent               TSX1    EMR$FEP2HOST
         1 000146   000000 011000                    NOP     0

     2341     3900    3                   IF (NOT NK$LDCT.DFLG.SYMBIONT)

   3900  1 000147   200003 470500                    LDP0    @NK$LDCT,,AUTO
         1 000150   000006 236100                    LDQ     6,,PR0
         1 000151   020000 316007                    CANQ    8192,DL
         1 000152   000155 601000 1                  TNZ     s:3904

     2342     3901    3                     THEN
     2343     3902    3                       NK$LDCT.ERR = NEWERR;

   3902  1 000153   200007 236100                    LDQ     NEWERR,,AUTO
         1 000154   000000 756100                    STQ     0,,PR0

     2344     3903                        %UNLOCK (G=NK$LDCT.LOCK);

   3904  1 000155   200003 236100                    LDQ     @NK$LDCT,,AUTO
         1 000156   000020 036003                    ADLQ    16,DU
         1 000157   200010 756100                    STQ     NEWERR+1,,AUTO
         1 000160   200010 630500                    EPPR0   NEWERR+1,,AUTO
         1 000161   000017 631400 xsym               EPPR1   B_VECTNIL+15
         1 000162   000000 701000 xent               TSX1    HFC$UNLOCK
         1 000163   000000 011000                    NOP     0

     2345     3906    3                   EVNT = GJ_FCN_MSG.FCN;

   3906  1 000164   200004 470500                    LDP0    @K$RWPARM,,AUTO
         1 000165   000000 471500                    LDP1    0,,PR0
         1 000166   000100 101500                    MRL     fill='000'O
         1 000167   100000 000001                    ADSC9   0,,PR1                   cn=0,n=1
         1 000170   200006 000004                    ADSC9   EVNT,,AUTO               cn=0,n=4

     2346     3907    3                   CALL KIF$FPRGEVNT(NK$LDCT,EVNT,NEWERR);

PL6.E3A0      #009=KIA$FPRGIN File=KIA$APPLC.:E05TSI                             WED 07/30/97 00:37 Page:443
   3907  1 000171   200007 631500                    EPPR1   NEWERR,,AUTO
         1 000172   200012 451500                    STP1    NEWERR+3,,AUTO
         1 000173   200006 633500                    EPPR3   EVNT,,AUTO
         1 000174   200011 453500                    STP3    NEWERR+2,,AUTO
         1 000175   200003 236100                    LDQ     @NK$LDCT,,AUTO
         1 000176   200010 756100                    STQ     NEWERR+1,,AUTO
         1 000177   200010 630500                    EPPR0   NEWERR+1,,AUTO
         1 000200   000021 631400 xsym               EPPR1   B_VECTNIL+17
         1 000201   000000 701000 xent               TSX1    KIF$FPRGEVNT
         1 000202   000000 011000                    NOP     0

     2347     3908    3                   IF NK$LDCT.RESCOD = NK_TSFPRG

   3908  1 000203   200003 470500                    LDP0    @NK$LDCT,,AUTO
         1 000204   000006 236100                    LDQ     6,,PR0
         1 000205   000017 376007                    ANQ     15,DL
         1 000206   000010 116007                    CMPQ    8,DL
         1 000207   000314 601000 1                  TNZ     s:3948

     2348     3909    3                     THEN
     2349     3910    3                       CALL SSR$RUE(%SS_FPEVNT,NK$LDCT.USER);

   3910  1 000210   200003 236100                    LDQ     @NK$LDCT,,AUTO
         1 000211   000001 036000 2                  ADLQ    1
         1 000212   000004 235000 2                  LDA     4
         1 000213   200010 757100                    STAQ    NEWERR+1,,AUTO
         1 000214   200010 630500                    EPPR0   NEWERR+1,,AUTO
         1 000215   000020 631400 xsym               EPPR1   B_VECTNIL+16
         1 000216   000000 701000 xent               TSX1    SSR$RUE
         1 000217   000000 011000                    NOP     0
         1 000220   000314 710000 1                  TRA     s:3948

     2350     3911
     2351     3912    3                 CASE (%GJ_PROG_LDTRC#);

     2352     3913                        %LOCK (G=NK$LDCT.LOCK);

PL6.E3A0      #009=KIA$FPRGIN File=KIA$APPLC.:E05TSI                             WED 07/30/97 00:37 Page:444
   3914  1 000221   200003 236100                    LDQ     @NK$LDCT,,AUTO
         1 000222   000020 036003                    ADLQ    16,DU
         1 000223   200010 756100                    STQ     NEWERR+1,,AUTO
         1 000224   200010 630500                    EPPR0   NEWERR+1,,AUTO
         1 000225   000017 631400 xsym               EPPR1   B_VECTNIL+15
         1 000226   000000 701000 xent               TSX1    HFC$LOCK
         1 000227   000000 011000                    NOP     0

     2353     3916    3                   NK$LDCT.LKFLG.FPPM='1'B;

   3916  1 000230   200003 470500                    LDP0    @NK$LDCT,,AUTO
         1 000231   000004 236003                    LDQ     4,DU
         1 000232   000011 256100                    ORSQ    9,,PR0

     2354     3917                        %UNLOCK (G=NK$LDCT.LOCK);

   3918  1 000233   200003 236100                    LDQ     @NK$LDCT,,AUTO
         1 000234   000020 036003                    ADLQ    16,DU
         1 000235   200010 756100                    STQ     NEWERR+1,,AUTO
         1 000236   200010 630500                    EPPR0   NEWERR+1,,AUTO
         1 000237   000017 631400 xsym               EPPR1   B_VECTNIL+15
         1 000240   000000 701000 xent               TSX1    HFC$UNLOCK
         1 000241   000000 011000                    NOP     0

     2355     3920    3                   CALL SSR$RUE (%SS_FPLDTRC,NK$LDCT.USER,ADDR(NK$LDCT));

   3920  1 000242   200003 236100                    LDQ     @NK$LDCT,,AUTO
         1 000243   200010 756100                    STQ     NEWERR+1,,AUTO
         1 000244   200010 630500                    EPPR0   NEWERR+1,,AUTO
         1 000245   200013 450500                    STP0    NEWERR+4,,AUTO
         1 000246   000001 036000 2                  ADLQ    1
         1 000247   200012 756100                    STQ     NEWERR+3,,AUTO
         1 000250   000006 236000 2                  LDQ     6
         1 000251   200011 756100                    STQ     NEWERR+2,,AUTO
         1 000252   200011 630500                    EPPR0   NEWERR+2,,AUTO
         1 000253   000021 631400 xsym               EPPR1   B_VECTNIL+17
         1 000254   000000 701000 xent               TSX1    SSR$RUE
PL6.E3A0      #009=KIA$FPRGIN File=KIA$APPLC.:E05TSI                             WED 07/30/97 00:37 Page:445
         1 000255   000000 011000                    NOP     0
         1 000256   000314 710000 1                  TRA     s:3948

     2356     3921
     2357     3922    3                 CASE (ELSE);

     2358     3923                                                /* Should snap                        */
     2359     3924
     2360     3925    3                 END/*case gj_fcn_msg.fcn*/;

     2361     3926
     2362     3927    2             CASE (%KV_VDO_FNC_EVT);

     2363     3928
     2364     3929    2             CASE (%KV_VDO_FNC_DAT,%KV_VDO_FNC_RQSDAT,%KV_VDO_FNC_PRM_RSP,%
              3929                      KV_VDO_FNC_BLKDAT);

     2365     3930    2               IF NK$LDCT.LKFLG.FPPM OR NK$LDCT.LKFLG.FPSTEP

   3930  1 000257   200003 473500                    LDP3    @NK$LDCT,,AUTO
         1 000260   300011 236100                    LDQ     9,,PR3
         1 000261   000004 316003                    CANQ    4,DU
         1 000262   000277 601000 1                  TNZ     UCIN
         1 000263   000010 316003                    CANQ    8,DU
         1 000264   000277 601000 1                  TNZ     UCIN

     2366     3931    2                 THEN GOTO UCIN;
     2367     3932    2                 ELSE GOTO CELSE;

   3932  1 000265   000266 710000 1                  TRA     CELSE

     2368     3933    2             CASE(ELSE);

     2369     3934    3   CELSE:      DO CASE (NK$LDCT.RESCOD);

   3934  1 000266   200003 473500       CELSE        LDP3    @NK$LDCT,,AUTO
         1 000267   300006 236100                    LDQ     6,,PR3
PL6.E3A0      #009=KIA$FPRGIN File=KIA$APPLC.:E05TSI                             WED 07/30/97 00:37 Page:446
         1 000270   000017 376007                    ANQ     15,DL
         1 000271   000010 136007                    SBLQ    8,DL
         1 000272   000002 116007                    CMPQ    2,DL
         1 000273   000275 602006 1                  TNC     CELSE+7,QL
         1 000274   000314 710000 1                  TRA     s:3948
         1 000275   000277 710000 1                  TRA     UCIN
         1 000276   000306 710000 1                  TRA     s:3942

     2370     3935
     2371     3936    3                 CASE (NK_TSFPRG);

     2372     3937    4   UCIN:           CALL KIA$UCIN (NK$LDCT,K$RWPARM) WHENALTRETURN DO;

   3937  1 000277   200003 630500       UCIN         EPPR0   @NK$LDCT,,AUTO
         1 000300   000020 631400 xsym               EPPR1   B_VECTNIL+16
         1 000301   000000 701000 xent               TSX1    KIA$UCIN
         1 000302   000304 702000 1                  TSX2    s:3938
         1 000303   000305 710000 1                  TRA     s:3938+1

     2373     3938    4                       ALTRETURN;

   3938  1 000304   000000 702200 xent               TSX2  ! X66_AALT
         1 000305   000314 710000 1                  TRA     s:3948

     2374     3939    4                       END;
     2375     3940
     2376     3941    3                 CASE (NK_CGFPRG);

     2377     3942    4                   CALL KCF$FEIN(NK$LDCT,K$RWPARM) WHENALTRETURN DO;

   3942  1 000306   200003 630500                    EPPR0   @NK$LDCT,,AUTO
         1 000307   000020 631400 xsym               EPPR1   B_VECTNIL+16
         1 000310   000000 701000 xent               TSX1    KCF$FEIN
         1 000311   000313 702000 1                  TSX2    s:3943
         1 000312   000314 710000 1                  TRA     s:3948

     2378     3943    4                       ALTRETURN;
PL6.E3A0      #009=KIA$FPRGIN File=KIA$APPLC.:E05TSI                             WED 07/30/97 00:37 Page:447

   3943  1 000313   000000 702200 xent               TSX2  ! X66_AALT

     2379     3944    4                       END;
     2380     3945    3                 END/*case rescod*/;

     2381     3946    2             END/*case vdo_dat.fcn*/;

     2382     3947
     2383     3948    1           RETURN;

   3948  1 000314   000000 702200 xent               TSX2  ! X66_ARET

(unnamed)
 Sect OctLoc
   0     000   000000 002000                                                    ....

(unnamed)
 Sect OctLoc
   2     000   767777 777777   000007 200000   000007 006000   000000 000053    ...............+
   2     004   000003 006000   000000 000051   000005 006000                    .......)....
     2384     3949
     2385     3950    1   END KIA$FPRGIN;
     2386     3951        %EOD;

PL6.E3A0      #009=KIA$FPRGIN File=KIA$APPLC.:E05TSI                             WED 07/30/97 00:37 Page:448
--  Include file information  --

   SS_SCHED_C.:E05TOU  is referenced.
   K$RWPARM.:E05TOU  is referenced.
   K_DATA_R.:E05TOU  cannot be made into a system file and is referenced.
   NK_SUBS.:E05TOU  is referenced.
   NK$LDCT.:E05TOU  is referenced.
   KV$VDO.:E05TOU  is referenced.
   KC_CP6.:E05TOU  is referenced.
   KC$CP6V_C.:E05TOU  is referenced.
   HF_LOCK_C.:E05TOU  cannot be made into a system file and is referenced.
   GJ_MSG_M.:E05TOU  is referenced.
   B$USER.:E05TOU  cannot be made into a system file and is referenced.
      No diagnostics issued in procedure KIA$FPRGIN.
PL6.E3A0      #009=KIA$FPRGIN File=KIA$APPLC.:E05TSI                             WED 07/30/97 00:37 Page:449

 **** Variables and constants ****

  ****  Auto variables  ****

  ****  Scalars and arrays  ****
OctLoc.c.b A Datatyp(siz) R M Lvl/name                 OctLoc.c.b A Datatyp(siz) R M Lvl/name

     4-0-0/w PTR         r     1 @K$RWPARM                  3-0-0/w PTR         r     1 @NK$LDCT
     5-0-0/b BIT         r     1 ERR                        6-0-0/w UBIN        r     1 EVNT
    *0-0-0/d STRC(1404)  r     1 K$RWPARM                   7-0-0/b BIT         r     1 NEWERR
    *0-0-0/d STRC(864)   r     1 NK$LDCT

  ****  SYMREF variables  ****

  ****  Scalars and arrays  ****
OctLoc.c.b A Datatyp(siz) R M Lvl/name                 OctLoc.c.b A Datatyp(siz) R M Lvl/name

     0-0-0/w PTR         r     1 B$USRT$

  ****  BASED and DCB variables  ****

  ****  Scalars and arrays  ****
OctLoc.c.b A Datatyp(siz) R M Lvl/name                 OctLoc.c.b A Datatyp(siz) R M Lvl/name

     0-0-0/w STRC(576)   r     1 B$USER(0:0)                0-0-0/c STRC(54)    r     1 GJ_FCN_MSG
     0-0-0/h STRC        r     1 KV$VDO_DAT


   Procedure KIA$FPRGIN requires 205 words for executable code.
   Procedure KIA$FPRGIN requires 12 words of local(AUTO) storage.
PL6.E3A0      #009=KIA$FPRGIN File=KIA$APPLC.:E05TSI                             WED 07/30/97 00:37 Page:450
          *** CROSS REFERENCE LISTING ***
**     DENOTES     IDENTIFIER DEFINITION
<<                 IDENTIFIER'S VALUE SET
>>                 IDENTIFIER'S VALUE USED
<>                 IDENTIFIER SET AND/OR USED
--                 IDENTIFIER REFERENCED
PL6.E3A0      #009=KIA$FPRGIN File=KIA$APPLC.:E05TSI                             WED 07/30/97 00:37 Page:451
          MINI XREF LISTING

B$DO.ECCINFO
       168**DCL       169--REDEF
B$U.MISC
       147**DCL       148--REDEF
B$USER.FLG
       193**DCL      3889>>IF
B$USER.MISC
       223**DCL       224--REDEF
B$USER.MISC$
       224**DCL      3889>>IF
B$USRT$
      3706**DCL      3889>>IF       3889>>IF
CELSE
      3934**LABEL    3932--GOTO
EMR$FEP2HOST
      3698**DCL-ENT  3899--CALL
ERR
      3701**DCL      3898<<ASSIGN   3899<>CALL
EVNT
      3702**DCL      3906<<ASSIGN   3907<>CALL
GJ_FCN_MSG.ERR
      3754**DCL      3898>>ASSIGN
GJ_FCN_MSG.FCN
      3747**DCL      3882>>DOCASE   3906>>ASSIGN
HFC$LOCK
       559**DCL-ENT  3887--CALL     3914--CALL
HFC$UNLOCK
       559**DCL-ENT  3904--CALL     3918--CALL
K$RWPARM
      3395**DCL         6--PROC     3877<>CALL     3937<>CALL     3942<>CALL
K$RWPARM.BLKREC
      3421**DCL      3446--REDEF
PL6.E3A0      #009=KIA$FPRGIN File=KIA$APPLC.:E05TSI                             WED 07/30/97 00:37 Page:452
K$RWPARM.BLKREC.BLKU#
      3422**DCL      3424--REDEF
K$RWPARM.BLKREC.RECU#
      3434**DCL      3436--REDEF
K$RWPARM.DVE.DVBYTE.VFC
      3461**DCL      3462--REDEF
K$RWPARM.DVE.EOMCHAR
      3469**DCL      3473--REDEF
K$RWPARM.ERR
      3533**DCL      3538--REDEF
K$RWPARM.FC
      3497**DCL      3498--REDEF
K$RWPARM.FLDID
      3679**DCL      3680--REDEF
K$RWPARM.FPT$
      3560**DCL      3567--REDEF
K$RWPARM.KEYTYPE
      3686**DCL      3687--REDEF
K$RWPARM.MSG$
      3396**DCL      3402--REDEF    3747--IMP-PTR  3882>>DOCASE   3898>>ASSIGN   3906>>ASSIGN
K$RWPARM.MSGID
      3508**DCL      3513--REDEF
K$RWPARM.MSGIDXT
      3521**DCL      3525--REDEF
K$RWPARM.ORG
      3657**DCL      3658--REDEF
K$RWPARM.THDRSZ
      3601**DCL      3605--REDEF
K$RWPARM.UHDR$
      3546**DCL      3860--IMP-PTR  3874>>DOCASE
K$RWPARM.VDOFLGS
      3659**DCL      3670--REDEF
KCF$FEIN
      3692**DCL-ENT  3942--CALL
KIA$MSG
      3694**DCL-ENT  3877--CALL
PL6.E3A0      #009=KIA$FPRGIN File=KIA$APPLC.:E05TSI                             WED 07/30/97 00:37 Page:453
KIA$UCIN
      3693**DCL-ENT  3937--CALL
KIF$FPRGEVNT
      3695**DCL-ENT  3907--CALL
KV$VDO_DAT.FNC
      3864**DCL      3874>>DOCASE
K_RWPARM_CON.BLKREC
      2823**DCL      2848--REDEF
K_RWPARM_CON.BLKREC.BLKU#
      2824**DCL      2826--REDEF
K_RWPARM_CON.BLKREC.RECU#
      2836**DCL      2838--REDEF
K_RWPARM_CON.DVE.DVBYTE.VFC
      2863**DCL      2864--REDEF
K_RWPARM_CON.DVE.EOMCHAR
      2871**DCL      2875--REDEF
K_RWPARM_CON.ERR
      2935**DCL      2940--REDEF
K_RWPARM_CON.FC
      2899**DCL      2900--REDEF
K_RWPARM_CON.FLDID
      3081**DCL      3082--REDEF
K_RWPARM_CON.FPT$
      2962**DCL      2969--REDEF
K_RWPARM_CON.KEYTYPE
      3088**DCL      3089--REDEF
K_RWPARM_CON.MSG$
      2798**DCL      2804--REDEF
K_RWPARM_CON.MSGID
      2910**DCL      2915--REDEF
K_RWPARM_CON.MSGIDXT
      2923**DCL      2927--REDEF
K_RWPARM_CON.ORG
      3059**DCL      3060--REDEF
K_RWPARM_CON.THDRSZ
      3003**DCL      3007--REDEF
PL6.E3A0      #009=KIA$FPRGIN File=KIA$APPLC.:E05TSI                             WED 07/30/97 00:37 Page:454
K_RWPARM_CON.VDOFLGS
      3061**DCL      3072--REDEF
NEWERR
      3703**DCL      3899<>CALL     3902>>ASSIGN   3907<>CALL
NK$LDCT
      3341**DCL         6--PROC     3889--IF       3907<>CALL     3920--CALL     3937<>CALL     3942<>CALL
NK$LDCT.DDT$
      3343**DCL      3343--REDEF
NK$LDCT.DFLG.SYMBIONT
      3346**DCL      3900>>IF
NK$LDCT.ERR
      3342**DCL      3902<<ASSIGN
NK$LDCT.IOQ$
      3342**DCL      3343--REDEF
NK$LDCT.LDCTX
      3344**DCL      3344--REDEF
NK$LDCT.LKFLG.ABORTED
      3356**DCL      3357--REDEF    3897<<ASSIGN
NK$LDCT.LKFLG.FPPM
      3361**DCL      3916<<ASSIGN   3930>>IF
NK$LDCT.LKFLG.FPSTEP
      3361**DCL      3896<<ASSIGN   3930>>IF
NK$LDCT.LKFLG.WAITINGEXIT
      3358**DCL      3889>>IF       3893<<ASSIGN
NK$LDCT.LOCK
      3369**DCL      3887<>CALL     3904<>CALL     3914<>CALL     3918<>CALL
NK$LDCT.RESCOD
      3349**DCL      3908>>IF       3934>>DOCASE
NK$LDCT.RLCID.LDCTX
      3366**DCL      3366--REDEF
NK$LDCT.STA$
      3362**DCL      3363--REDEF
NK$LDCT.SYMB$
      3341**DCL      3341--REDEF    3341--REDEF    3342--REDEF
NK$LDCT.USER
      3351**DCL      3889>>IF       3889>>IF       3894<>CALL     3910<>CALL     3920<>CALL
PL6.E3A0      #009=KIA$FPRGIN File=KIA$APPLC.:E05TSI                             WED 07/30/97 00:37 Page:455
SSR$RUE
      3697**DCL-ENT  3894--CALL     3910--CALL     3920--CALL
UCIN
      3937**LABEL    3931--GOTO

PL6.E3A0      #010=KIA$FPCNCT File=KIA$APPLC.:E05TSI                             WED 07/30/97 00:37 Page:456
     2387        1        /*T***********************************************************/
     2388        2        /*T*                                                         */
     2389        3        /*T* Copyright (c) Bull HN Information Systems Inc., 1997    */
     2390        4        /*T*                                                         */
     2391        5        /*T***********************************************************/
     2392        6        /*D* NAME:        KIA$FPCNCT
     2393        7             PURPOSE:     To complete the path connection process for FPRG connects
     2394        8             CALL:        CALL KIA$FPCNCT (NK$LDCT);
     2395        9             INPUT:       NK$LDCT - The LDCT that is completing connection
     2396       10                          NK$LDCT.LOCK - Locked on entry
     2397       11             OUTPUT:      NK$LDCT.LOCK - Unlocked on exit
     2398       12                          NK$LDCT - Possibly released
     2399       13                          NK$LDCT.LKFLG.FPSTEP - Set
     2400       14             DESCRIPTION: KIA$FPCNCT is called to complete the path connection
     2401       15                          process for NK$LDCT.RESCOD=NK_TSFPRG or NK_CGFPRG
     2402       16                          type connects. It is called with NK$LDCT.LOCK locked
     2403       17                          since **BEFORE** NK$LDCT.RLCID was set non-zero
     2404       18                          so that we can be sure that no other comgroup
     2405       19                          deactivate process has sent KX_DREQ down the path.
     2406       20                          KIA$FPCNCT sets NK$LDCT.LKFLG.FPSTEP indicating that the
     2407       21                          FPRG at the other end is at jobstep awaiting M$SETFP.
     2408       22                          If a user is waiting, that user is RUEed. Finally,
     2409       23                          if this is a CGFPRG connection and the LDCT is still
     2410       24                          marked ACTIVE, we start reads for the terminal.
     2411       25        */
     2412       26
     2413       27        KIA$FPCNCT: PROC(NK$LDCT) ALTRET;
     2414       28        %INCLUDE B_ERRORS_C;
     2415     1155        %INCLUDE FM$MACROS;
     2416     1530        %INCLUDE GJ_MSG_M;
     2417     1843        %INCLUDE HF_LOCK_C;
     2418     1857        %INCLUDE K_DATA_R;
     2419     2568        %INCLUDE K_SUBS_C;
     2420     2601        %INCLUDE NK$LDCT;
     2421     2703        %INCLUDE NK_SUBS;
     2422     2728        %INCLUDE SS_SCHED_C;
     2423     2961        %GJ_FCN#;
PL6.E3A0      #010=KIA$FPCNCT File=KIA$APPLC.:E05TSI                             WED 07/30/97 00:37 Page:457
     2424     2987        %NK$LDCT (STCLASS="");
     2425     3033        %K$RWPARM (NAME=K$RWPARM,STCLASS="");
     2426     3349        %SUB FCG#='1311'O;
     2427     3350        %SUB MID#='01'O;
     2428     3351        %ERRCODE (NAME=E_LDSC,COD#=%E$LDSC);
     2429     3355    1   DCL KCF$FERDS  ENTRY(1) ALTRET;
     2430     3356    1   DCL SSR$RUE    ENTRY(4);
     2431     3357    1   DCL KIS$SEND ENTRY(1) ALTRET;
     2432     3358
     2433     3359    1           K$RWPARM = K_RWPARM_CON;
     2434     3360    1           K$RWPARM.LDCT$ = ADDR(NK$LDCT);
     2435     3361    1           K$RWPARM.FUNCTION = %K_CONNECT_ACK;
     2436     3362    2           CALL KIS$SEND (K$RWPARM) WHENALTRETURN DO;
     2437     3363    2               ALTRETURN;
     2438     3364    2               END;
     2439     3365    1           IF NK$LDCT.LKFLG.REGGED
     2440     3366    1             THEN CALL SSR$RUE(%SS_CIC,NK$LDCT.USER);
     2441     3367    1           NK$LDCT.LKFLG.FPSTEP='1'B;
     2442     3368    1           NK$LDCT.LKFLG.REGGED='0'B;
     2443     3369    1           NK$LDCT.ERR = '0'B;
     2444     3370                %UNLOCK (G=NK$LDCT.LOCK);
     2445     3373    1           IF NK$LDCT.RESCOD=NK_CGFPRG AND NK$LDCT.LKFLG.REGGED='1'B
     2446     3374    1             AND NK$LDCT.DFLG.INPUT='1'B
     2447     3375    1             THEN CALL KCF$FERDS(NK$LDCT);
     2448     3376    1           RETURN;
     2449     3377    1   END KIA$FPCNCT;
     2450     3378        %EOD;

PL6.E3A0      #010=KIA$FPCNCT File=KIA$APPLC.:E05TSI                             WED 07/30/97 00:37 Page:458
--  Include file information  --

   SS_SCHED_C.:E05TOU  is referenced.
   NK_SUBS.:E05TOU  is referenced.
   NK$LDCT.:E05TOU  is referenced.
   K_SUBS_C.:E05TOU  is referenced.
   K$RWPARM.:E05TOU  is referenced.
   K_DATA_R.:E05TOU  cannot be made into a system file and is referenced.
   HF_LOCK_C.:E05TOU  cannot be made into a system file and is referenced.
   GJ_MSG_M.:E05TOU  is referenced.
   FM$MACROS.:E05TOU  is referenced.
   B_ERRORS_C.:E05TOU  is referenced.
      No diagnostics issued in procedure KIA$FPCNCT.

   Procedure KIA$FPCNCT requires 58 words for executable code.
   Procedure KIA$FPCNCT requires 46 words of local(AUTO) storage.

PL6.E3A0      #010=KIA$FPCNCT File=KIA$APPLC.:E05TSI                             WED 07/30/97 00:37 Page:459

 Object Unit name= KIA$FPCNCT                                 File name= KIA$APPLC.:E05TOU
 UTS= JUL 30 '97 00:37:32.84 WED                              Compiler= PL-6/E31         Sev=      00
 SharedLib= :SHARED_SYSTEM                                    Alt SharedLib=


    ****  Control sections  ****

 Sect   Type Bound  Init  Size OctSiz  Section name(segment info)
    0  RoData even  UTS      1      1  KIA$FPCNCT
    1   Proc  even  none    58     72  KIA$FPCNCT
    2  RoData even  none     3      3  KIA$FPCNCT

    ****  Entry defs  ****

                              Check   Calling
                             calling  sequence
  Sect OctLoc Primary Altret sequence   type   Parms  Name
     1      0   yes    yes     yes      Std        1  KIA$FPCNCT

  ****  Entry refs  ****

         Check        Calling
        calling       sequence
Altret sequence SRef   type   Args  Name
 yes     yes           Std       1 KIS$SEND
         yes           Std       1 HFC$UNLOCK
         yes           Std       4 SSR$RUE
 yes     yes           Std       1 KCF$FERDS
                       nStd      0 X66_AUTO_1
                       Std       0 B_CONSPOOL_D
                       nStd      0 X66_AALT
                       nStd      0 X66_ARET
PL6.E3A0      #010=KIA$FPCNCT File=KIA$APPLC.:E05TSI                             WED 07/30/97 00:37 Page:460

  ****  Data refs  ****

  Flags:  r = read only, s = secondary
Flgs Name                             Flgs Name                             Flgs Name
r    K_RWPARM_CON                          B_VECTNIL

  ****  Segment refs  ****

  Flags:  r = read only, s = secondary
Flgs Name                             Flgs Name                             Flgs Name
     ISSID
PL6.E3A0      #010=KIA$FPCNCT File=KIA$APPLC.:E05TSI                             WED 07/30/97 00:37 Page:461


     2387        1        /*T***********************************************************/
     2388        2        /*T*                                                         */
     2389        3        /*T* Copyright (c) Bull HN Information Systems Inc., 1997    */
     2390        4        /*T*                                                         */
     2391        5        /*T***********************************************************/
     2392        6        /*D* NAME:        KIA$FPCNCT
     2393        7             PURPOSE:     To complete the path connection process for FPRG connects
     2394        8             CALL:        CALL KIA$FPCNCT (NK$LDCT);
     2395        9             INPUT:       NK$LDCT - The LDCT that is completing connection
     2396       10                          NK$LDCT.LOCK - Locked on entry
     2397       11             OUTPUT:      NK$LDCT.LOCK - Unlocked on exit
     2398       12                          NK$LDCT - Possibly released
     2399       13                          NK$LDCT.LKFLG.FPSTEP - Set
     2400       14             DESCRIPTION: KIA$FPCNCT is called to complete the path connection
     2401       15                          process for NK$LDCT.RESCOD=NK_TSFPRG or NK_CGFPRG
     2402       16                          type connects. It is called with NK$LDCT.LOCK locked
     2403       17                          since **BEFORE** NK$LDCT.RLCID was set non-zero
     2404       18                          so that we can be sure that no other comgroup
     2405       19                          deactivate process has sent KX_DREQ down the path.
     2406       20                          KIA$FPCNCT sets NK$LDCT.LKFLG.FPSTEP indicating that the
     2407       21                          FPRG at the other end is at jobstep awaiting M$SETFP.
     2408       22                          If a user is waiting, that user is RUEed. Finally,
     2409       23                          if this is a CGFPRG connection and the LDCT is still
     2410       24                          marked ACTIVE, we start reads for the terminal.
     2411       25        */
     2412       26
     2413       27        KIA$FPCNCT: PROC(NK$LDCT) ALTRET;

     27  1 000000   000000 700200 xent  KIA$FPCNCT   TSX0  ! X66_AUTO_1
         1 000001   000056 000001                    ZERO    46,1

     2414       28        %INCLUDE B_ERRORS_C;
     2415     1155        %INCLUDE FM$MACROS;
     2416     1530        %INCLUDE GJ_MSG_M;
     2417     1843        %INCLUDE HF_LOCK_C;
     2418     1857        %INCLUDE K_DATA_R;
PL6.E3A0      #010=KIA$FPCNCT File=KIA$APPLC.:E05TSI                             WED 07/30/97 00:37 Page:462
     2419     2568        %INCLUDE K_SUBS_C;
     2420     2601        %INCLUDE NK$LDCT;
     2421     2703        %INCLUDE NK_SUBS;
     2422     2728        %INCLUDE SS_SCHED_C;
     2423     2961        %GJ_FCN#;
     2424     2987        %NK$LDCT (STCLASS="");
     2425     3033        %K$RWPARM (NAME=K$RWPARM,STCLASS="");
     2426     3349        %SUB FCG#='1311'O;
     2427     3350        %SUB MID#='01'O;
     2428     3351        %ERRCODE (NAME=E_LDSC,COD#=%E$LDSC);
     2429     3355    1   DCL KCF$FERDS  ENTRY(1) ALTRET;
     2430     3356    1   DCL SSR$RUE    ENTRY(4);
     2431     3357    1   DCL KIS$SEND ENTRY(1) ALTRET;
     2432     3358
     2433     3359    1           K$RWPARM = K_RWPARM_CON;

   3359  1 000002   000100 100400                    MLR     fill='000'O
         1 000003   000000 000234 xsym               ADSC9   K_RWPARM_CON             cn=0,n=156
         1 000004   200004 000234                    ADSC9   K$RWPARM,,AUTO           cn=0,n=156

     2434     3360    1           K$RWPARM.LDCT$ = ADDR(NK$LDCT);

   3360  1 000005   200003 236100                    LDQ     @NK$LDCT,,AUTO
         1 000006   200022 756100                    STQ     K$RWPARM+14,,AUTO

     2435     3361    1           K$RWPARM.FUNCTION = %K_CONNECT_ACK;

   3361  1 000007   000012 235007                    LDA     10,DL
         1 000010   200024 755100                    STA     K$RWPARM+16,,AUTO

     2436     3362    2           CALL KIS$SEND (K$RWPARM) WHENALTRETURN DO;

   3362  1 000011   200004 630500                    EPPR0   K$RWPARM,,AUTO
         1 000012   200054 450500                    STP0    K$RWPARM+40,,AUTO
         1 000013   200054 630500                    EPPR0   K$RWPARM+40,,AUTO
         1 000014   000017 631400 xsym               EPPR1   B_VECTNIL+15
         1 000015   000000 701000 xent               TSX1    KIS$SEND
PL6.E3A0      #010=KIA$FPCNCT File=KIA$APPLC.:E05TSI                             WED 07/30/97 00:37 Page:463
         1 000016   000020 702000 1                  TSX2    s:3363
         1 000017   000021 710000 1                  TRA     s:3365

     2437     3363    2               ALTRETURN;

   3363  1 000020   000000 702200 xent               TSX2  ! X66_AALT

     2438     3364    2               END;
     2439     3365    1           IF NK$LDCT.LKFLG.REGGED

   3365  1 000021   200003 470500                    LDP0    @NK$LDCT,,AUTO
         1 000022   000011 236100                    LDQ     9,,PR0
         1 000023   100000 316003                    CANQ    32768,DU
         1 000024   000035 600000 1                  TZE     s:3367

     2440     3366    1             THEN CALL SSR$RUE(%SS_CIC,NK$LDCT.USER);

   3366  1 000025   200003 236100                    LDQ     @NK$LDCT,,AUTO
         1 000026   000000 036000 2                  ADLQ    0
         1 000027   000001 235000 2                  LDA     1
         1 000030   200054 757100                    STAQ    K$RWPARM+40,,AUTO
         1 000031   200054 630500                    EPPR0   K$RWPARM+40,,AUTO
         1 000032   000020 631400 xsym               EPPR1   B_VECTNIL+16
         1 000033   000000 701000 xent               TSX1    SSR$RUE
         1 000034   000000 011000                    NOP     0

     2441     3367    1           NK$LDCT.LKFLG.FPSTEP='1'B;

   3367  1 000035   200003 470500                    LDP0    @NK$LDCT,,AUTO
         1 000036   000010 236003                    LDQ     8,DU
         1 000037   000011 256100                    ORSQ    9,,PR0

     2442     3368    1           NK$LDCT.LKFLG.REGGED='0'B;

   3368  1 000040   000002 236000 2                  LDQ     2
         1 000041   000011 356100                    ANSQ    9,,PR0

PL6.E3A0      #010=KIA$FPCNCT File=KIA$APPLC.:E05TSI                             WED 07/30/97 00:37 Page:464
     2443     3369    1           NK$LDCT.ERR = '0'B;

   3369  1 000042   000000 450100                    STZ     0,,PR0

     2444     3370                %UNLOCK (G=NK$LDCT.LOCK);

   3371  1 000043   200003 236100                    LDQ     @NK$LDCT,,AUTO
         1 000044   000020 036003                    ADLQ    16,DU
         1 000045   200054 756100                    STQ     K$RWPARM+40,,AUTO
         1 000046   200054 630500                    EPPR0   K$RWPARM+40,,AUTO
         1 000047   000017 631400 xsym               EPPR1   B_VECTNIL+15
         1 000050   000000 701000 xent               TSX1    HFC$UNLOCK
         1 000051   000000 011000                    NOP     0

     2445     3373    1           IF NK$LDCT.RESCOD=NK_CGFPRG AND NK$LDCT.LKFLG.REGGED='1'B

   3373  1 000052   200003 470500                    LDP0    @NK$LDCT,,AUTO
         1 000053   000006 236100                    LDQ     6,,PR0
         1 000054   000017 376007                    ANQ     15,DL
         1 000055   000011 116007                    CMPQ    9,DL
         1 000056   000071 601000 1                  TNZ     s:3376
         1 000057   000011 236100                    LDQ     9,,PR0
         1 000060   100000 316003                    CANQ    32768,DU
         1 000061   000071 600000 1                  TZE     s:3376
         1 000062   000006 236100                    LDQ     6,,PR0
         1 000063   400000 316007                    CANQ    -131072,DL
         1 000064   000071 600000 1                  TZE     s:3376

     2446     3374    1             AND NK$LDCT.DFLG.INPUT='1'B
     2447     3375    1             THEN CALL KCF$FERDS(NK$LDCT);

   3375  1 000065   200003 630500                    EPPR0   @NK$LDCT,,AUTO
         1 000066   000017 631400 xsym               EPPR1   B_VECTNIL+15
         1 000067   000000 701000 xent               TSX1    KCF$FERDS
         1 000070   000000 011000                    NOP     0

     2448     3376    1           RETURN;
PL6.E3A0      #010=KIA$FPCNCT File=KIA$APPLC.:E05TSI                             WED 07/30/97 00:37 Page:465

   3376  1 000071   000000 702200 xent               TSX2  ! X66_ARET

(unnamed)
 Sect OctLoc
   0     000   131101 000142                                                    YA.b

(unnamed)
 Sect OctLoc
   2     000   000007 200000   000007 006000   677777 777777                    ............
     2449     3377    1   END KIA$FPCNCT;
     2450     3378        %EOD;

PL6.E3A0      #010=KIA$FPCNCT File=KIA$APPLC.:E05TSI                             WED 07/30/97 00:37 Page:466
--  Include file information  --

   SS_SCHED_C.:E05TOU  is referenced.
   NK_SUBS.:E05TOU  is referenced.
   NK$LDCT.:E05TOU  is referenced.
   K_SUBS_C.:E05TOU  is referenced.
   K$RWPARM.:E05TOU  is referenced.
   K_DATA_R.:E05TOU  cannot be made into a system file and is referenced.
   HF_LOCK_C.:E05TOU  cannot be made into a system file and is referenced.
   GJ_MSG_M.:E05TOU  is referenced.
   FM$MACROS.:E05TOU  is referenced.
   B_ERRORS_C.:E05TOU  is referenced.
      No diagnostics issued in procedure KIA$FPCNCT.
PL6.E3A0      #010=KIA$FPCNCT File=KIA$APPLC.:E05TSI                             WED 07/30/97 00:37 Page:467

 **** Variables and constants ****

  ****  Auto variables  ****

  ****  Scalars and arrays  ****
OctLoc.c.b A Datatyp(siz) R M Lvl/name                 OctLoc.c.b A Datatyp(siz) R M Lvl/name

     3-0-0/w PTR         r     1 @NK$LDCT                   4-0-0/d STRC(1404)  r     1 K$RWPARM
    *0-0-0/d STRC(864)   r     1 NK$LDCT

  ****  SYMREF variables  ****

  ****  Scalars and arrays  ****
OctLoc.c.b A Datatyp(siz) R M Lvl/name                 OctLoc.c.b A Datatyp(siz) R M Lvl/name

     0-0-0/d STRC(1404)  r     1 K_RWPARM_CON


   Procedure KIA$FPCNCT requires 58 words for executable code.
   Procedure KIA$FPCNCT requires 46 words of local(AUTO) storage.
PL6.E3A0      #010=KIA$FPCNCT File=KIA$APPLC.:E05TSI                             WED 07/30/97 00:37 Page:468
          *** CROSS REFERENCE LISTING ***
**     DENOTES     IDENTIFIER DEFINITION
<<                 IDENTIFIER'S VALUE SET
>>                 IDENTIFIER'S VALUE USED
<>                 IDENTIFIER SET AND/OR USED
--                 IDENTIFIER REFERENCED
PL6.E3A0      #010=KIA$FPCNCT File=KIA$APPLC.:E05TSI                             WED 07/30/97 00:37 Page:469
          MINI XREF LISTING

HFC$UNLOCK
      1856**DCL-ENT  3371--CALL
K$RWPARM
      3054**DCL      3359<<ASSIGN   3362<>CALL
K$RWPARM.BLKREC
      3080**DCL      3105--REDEF
K$RWPARM.BLKREC.BLKU#
      3081**DCL      3083--REDEF
K$RWPARM.BLKREC.RECU#
      3093**DCL      3095--REDEF
K$RWPARM.DVE.DVBYTE.VFC
      3120**DCL      3121--REDEF
K$RWPARM.DVE.EOMCHAR
      3128**DCL      3132--REDEF
K$RWPARM.ERR
      3192**DCL      3197--REDEF
K$RWPARM.FC
      3156**DCL      3157--REDEF
K$RWPARM.FLDID
      3338**DCL      3339--REDEF
K$RWPARM.FPT$
      3219**DCL      3226--REDEF
K$RWPARM.FUNCTION
      3233**DCL      3361<<ASSIGN
K$RWPARM.KEYTYPE
      3345**DCL      3346--REDEF
K$RWPARM.LDCT$
      3215**DCL      3360<<ASSIGN
K$RWPARM.MSG$
      3055**DCL      3061--REDEF
K$RWPARM.MSGID
      3167**DCL      3172--REDEF
PL6.E3A0      #010=KIA$FPCNCT File=KIA$APPLC.:E05TSI                             WED 07/30/97 00:37 Page:470
K$RWPARM.MSGIDXT
      3180**DCL      3184--REDEF
K$RWPARM.ORG
      3316**DCL      3317--REDEF
K$RWPARM.THDRSZ
      3260**DCL      3264--REDEF
K$RWPARM.VDOFLGS
      3318**DCL      3329--REDEF
KCF$FERDS
      3355**DCL-ENT  3375--CALL
KIS$SEND
      3357**DCL-ENT  3362--CALL
K_RWPARM_CON
      2272**DCL      3359>>ASSIGN
K_RWPARM_CON.BLKREC
      2298**DCL      2323--REDEF
K_RWPARM_CON.BLKREC.BLKU#
      2299**DCL      2301--REDEF
K_RWPARM_CON.BLKREC.RECU#
      2311**DCL      2313--REDEF
K_RWPARM_CON.DVE.DVBYTE.VFC
      2338**DCL      2339--REDEF
K_RWPARM_CON.DVE.EOMCHAR
      2346**DCL      2350--REDEF
K_RWPARM_CON.ERR
      2410**DCL      2415--REDEF
K_RWPARM_CON.FC
      2374**DCL      2375--REDEF
K_RWPARM_CON.FLDID
      2556**DCL      2557--REDEF
K_RWPARM_CON.FPT$
      2437**DCL      2444--REDEF
K_RWPARM_CON.KEYTYPE
      2563**DCL      2564--REDEF
K_RWPARM_CON.MSG$
      2273**DCL      2279--REDEF
PL6.E3A0      #010=KIA$FPCNCT File=KIA$APPLC.:E05TSI                             WED 07/30/97 00:37 Page:471
K_RWPARM_CON.MSGID
      2385**DCL      2390--REDEF
K_RWPARM_CON.MSGIDXT
      2398**DCL      2402--REDEF
K_RWPARM_CON.ORG
      2534**DCL      2535--REDEF
K_RWPARM_CON.THDRSZ
      2478**DCL      2482--REDEF
K_RWPARM_CON.VDOFLGS
      2536**DCL      2547--REDEF
NK$LDCT
      3000**DCL        27--PROC     3360--ASSIGN   3375<>CALL
NK$LDCT.DDT$
      3002**DCL      3002--REDEF
NK$LDCT.DFLG.INPUT
      3004**DCL      3373>>IF
NK$LDCT.ERR
      3001**DCL      3369<<ASSIGN
NK$LDCT.IOQ$
      3001**DCL      3002--REDEF
NK$LDCT.LDCTX
      3003**DCL      3003--REDEF
NK$LDCT.LKFLG.ABORTED
      3015**DCL      3016--REDEF
NK$LDCT.LKFLG.FPSTEP
      3020**DCL      3367<<ASSIGN
NK$LDCT.LKFLG.REGGED
      3016**DCL      3365>>IF       3368<<ASSIGN   3373>>IF
NK$LDCT.LOCK
      3028**DCL      3371<>CALL
NK$LDCT.RESCOD
      3008**DCL      3373>>IF
NK$LDCT.RLCID.LDCTX
      3025**DCL      3025--REDEF
NK$LDCT.STA$
      3021**DCL      3022--REDEF
PL6.E3A0      #010=KIA$FPCNCT File=KIA$APPLC.:E05TSI                             WED 07/30/97 00:37 Page:472
NK$LDCT.SYMB$
      3000**DCL      3000--REDEF    3000--REDEF    3001--REDEF
NK$LDCT.USER
      3010**DCL      3366<>CALL
SSR$RUE
      3356**DCL-ENT  3366--CALL

