PL6.E3A0      #014=KIA$GETEVNT File=KIA$APPLC.:E05TSI                            WED 07/30/97 00:39 Page:614
     3261        1        /*T***********************************************************/
     3262        2        /*T*                                                         */
     3263        3        /*T* Copyright (c) Bull HN Information Systems Inc., 1997    */
     3264        4        /*T*                                                         */
     3265        5        /*T***********************************************************/
     3266        6        /*D* NAME:        KIA$GETEVNT
     3267        7             PURPOSE:     To obtain the EVENT value from this LDCT's DCB
     3268        8             CALL:        CALL KIA$GETEVNT (NK$LDCT,EVNT);
     3269        9             INPUT:       NK$LDCT - The LDCT
     3270       10             OUTPUT:      EVNT - The DCB's event value or zero if no DCB or no
     3271       11                                 user in the LDCT.
     3272       12             DESCRIPTION: KIA$GETEVNT maps onto this LDCT's user's ROSEG and
     3273       13                          obtains the event from this LDCT's DCB. EVNT is returned
     3274       14                          as zero if no event is to be found.
     3275       15        */
     3276       16
     3277       17        KIA$GETEVNT: PROC(NK$LDCT,PRM2,DMN);
     3278       18        %INCLUDE B$ROSEG;
     3279       81        %INCLUDE B$USER;
     3280      297        %INCLUDE B_SEGIDS_C;
     3281      836        %INCLUDE B_STRINGS_C;
     3282      965        %INCLUDE CP_6;
     3283     6524        %INCLUDE CP_6_SUBS;
     3284     7064        %INCLUDE F$DCB;
     3285     7113        %INCLUDE FM$MACROS;
     3286     7488        %INCLUDE HF_LOCK_C;
     3287     7502        %INCLUDE K$RWPARM;
     3288     7888        %INCLUDE NK$LDCT;
     3289     7990        %INCLUDE SS_SCHED_C;
     3290     8223        %INCLUDE S_WSPTD_R;
     3291     8239        %INCLUDE HF_DATA_R;
     3292     8282        /**/
     3293     8283
     3294     8284        /* Equates */
     3295     8285        %SUB_EXC;
     3296     8332
     3297     8333        /* Parameters */
PL6.E3A0      #014=KIA$GETEVNT File=KIA$APPLC.:E05TSI                            WED 07/30/97 00:39 Page:615
     3298     8334        /**/
     3299     8335        %NK$LDCT(STCLASS="");
     3300     8381    1   DCL PRM2 CHAR(EVNT) ALIGNED;
     3301     8382    1   DCL EVNT REDEF PRM2 UBIN ALIGNED;
     3302     8383        %K$RWPARM (NAME=K$RWPARM,STCLASS=REDEF PRM2);
     3303     8699    1   DCL DMN UBIN;
     3304     8700        /**/
     3305     8701        /* AUTO variables */
     3306     8702        /**/
     3307     8703    1   DCL P$ PTR;
     3308     8704    1   DCL 1 P REDEF P$,
     3309     8705    1         2 * BIT(24) UNAL,
     3310     8706    1         2 SEGID BIT(12) UNAL;
     3311     8707    1   DCL USRT$ PTR;
     3312     8708    1   DCL MEDDCB$ PTR;
     3313     8709    1   DCL DCBPTR$ PTR;
     3314     8710    1   DCL MSGSIZE UBIN;
     3315     8711    1   DCL BUFSIZE UBIN;
     3316     8712    1   DCL EVID REDEF BUFSIZE UBIN;
     3317     8713    1   DCL XDMN UBIN;
     3318     8714    1   DCL WAIT BIT(1);
     3319     8715        %B$NWIO (NAME=NWIO,STCLASS=AUTO,PARONLY=1);
     3320     8796
     3321     8797        /* Based */
     3322     8798    1   DCL 1 B$$XFPTW BASED,
     3323     8799    1         2 PP(0:1) BIT(18) ALIGNED;
     3324     8800    1   DCL BUFFER CHAR(BUFSIZE) BASED;
     3325     8801    1   DCL MESSAGE CHAR(MSGSIZE) BASED;
     3326     8802    1   DCL 1 BFEPIO BASED,
     3327     8803    1         2 *(0:1) UBIN ALIGNED,
     3328     8804    1         2 BPPWORD UBIN ALIGNED;
     3329     8805        /**/
     3330     8806        /* CONSTANT */
     3331     8807        /**/
     3332     8808    1   DCL TWOPTWS(0:1) UBIN INIT(48*2) CONSTANT; /* 48= PRESENT AND WRITABLE        */
     3333     8809        /**/
     3334     8810        /* SYMREF variables */
PL6.E3A0      #014=KIA$GETEVNT File=KIA$APPLC.:E05TSI                            WED 07/30/97 00:39 Page:616
     3335     8811        /**/
     3336     8812    1   DCL B$ROSEG8$ PTR SYMREF;
     3337     8813    1   DCL B$USRT$ PTR SYMREF;
     3338     8814    1   DCL F_DCBLOCK BIT(72) SYMREF;
     3339     8815    1   DCL KQ_XFGATE BIT(72) DALIGNED SYMREF;
     3340     8816    1   DCL NI_MFGATE BIT(72) SYMREF;
     3341     8817    1   DCL B$CGPT$ PTR SYMREF;
     3342     8818    1   DCL B$CGCTXT$ PTR SYMREF;
     3343     8819        /**/
     3344     8820        /* External procedures */
     3345     8821        /**/
     3346     8822    1   DCL HFC$ASSOCCLR ENTRY (3);
     3347     8823    1   DCL HFF$TRAPALT ENTRY ALTRET;
     3348     8824    1   DCL KIA$MSG ENTRY(1) ALTRET;
     3349     8825    1   DCL SSR$RUE ENTRY(4);
     3350     8826    1   DCL SSV$EVENT ENTRY(7);
     3351     8827
     3352     8828    2           IF NK$LDCT.DCBNO=0 OR NK$LDCT.USER=0 THEN DO;
     3353     8829    2               EVNT=0;
     3354     8830    2               RETURN;
     3355     8831    2               END;
     3356     8832    2           DO INHIBIT;                     /* I/O interrupt could clobber        */
     3357     8833                                                /* WSQ 8 while we are using it.       */
     3358     8834    2             S_WSPTD.BLKNO(%IOENDWSQ)=B$USRT$->B$USER.PT(NK$LDCT.USER);
     3359     8835                                                /* Map onto the user in order to see  */
     3360     8836                                                /* his ROSEG.                         */
     3361     8837    2             CALL HFC$ASSOCCLR(%IOENDWSQ,0,16384); /*MAX Dense PT*/
     3362     8838    3             IF NK$LDCT.DCBNO > B$ROSEG8$->B$ROSEG.NUMDCBS THEN DO;
     3363     8839    3                 EVNT = 0;
     3364     8840    3                 RETURN;
     3365     8841    3                 END;
     3366     8842    2             P$=B$ROSEG8$->B$ROSEG.DCBPTR$;
     3367     8843    2             P.SEGID=%ROSEG8SID;
     3368     8844    2             P$=P$->B$RODCB$(NK$LDCT.DCBNO);
     3369     8845    2             P.SEGID=%ROSEG8SID;
     3370     8846    2             EVNT=P$->F$DCB.EVENT;
     3371     8847    2             IF ADDR(DMN) ~= ADDR(NIL) THEN
PL6.E3A0      #014=KIA$GETEVNT File=KIA$APPLC.:E05TSI                            WED 07/30/97 00:39 Page:617
     3372     8848    3               DO;
     3373     8849    3                 DMN = P$->F$DCB.WSR;
     3374     8850    3                 END;
     3375     8851    2             END;
     3376     8852    1           RETURN;
     3377     8853        %EJECT;
PL6.E3A0      #014=KIA$GETEVNT File=KIA$APPLC.:E05TSI                            WED 07/30/97 00:39 Page:618
     3378     8854    1   KIA$COMP: ENTRY(NK$LDCT,PRM2);
     3379     8855
     3380     8856    1           USRT$ = ADDR(B$USRT$->B$USER(NK$LDCT.USER));
     3381     8857
     3382     8858        /*
     3383     8859             Map in the user into the input output end action WSQ
     3384     8860         */
     3385     8861                %LOCK (G=F_DCBLOCK);
     3386     8864    1           S_WSPTD.BLKNO(%IOENDWSQ) = USRT$->B$USER.PT(0);
     3387     8865    1           CALL HFC$ASSOCCLR (%IOENDWSQ,0,16384); /*MAX Dense PT*/
     3388     8866
     3389     8867        /*
     3390     8868             Get pointers to the DCBs in the IOENDROS
     3391     8869         */
     3392     8870    1           P$ = B$ROSEG8$->B$ROSEG.DCBPTR$;
     3393     8871    1           P.SEGID = %ROSEG8SID;
     3394     8872    1           DCBPTR$ = P$;
     3395     8873    1           P$ = DCBPTR$->B$RODCB$(NK$LDCT.DCBNO);
     3396     8874    1           P.SEGID = %ROSEG8SID;
     3397     8875    1           MEDDCB$ = P$;
     3398     8876
     3399     8877        /*
     3400     8878             Decrement the count in the DCB
     3401     8879         */
     3402     8880    1           WAIT = MEDDCB$->F$DCB.FCN.F(0);
     3403     8881    1           MEDDCB$->F$DCB.FCN(0) = BINBIT(MEDDCB$->F$DCB.FCN.CNT(0) - 1, 9);
     3404     8882
     3405     8883        /*
     3406     8884             Check to see if there is a streamed DCB that the function
     3407     8885             count must be decremented in
     3408     8886         */
     3409     8887    1           IF NK$LDCT.NOWAIT.DCB# ~= NK$LDCT.DCBNO
     3410     8888    1             AND DCBPTR$->B$RODCB$(NK$LDCT.NOWAIT.DCB#) ~= ADDR(NIL)
     3411     8889    2             THEN DO;
     3412     8890    2               P$ = DCBPTR$->B$RODCB$(NK$LDCT.NOWAIT.DCB#);
     3413     8891    2               P.SEGID = %ROSEG8SID;
     3414     8892    2               WAIT = WAIT | P$->F$DCB.FCN.F(0);
PL6.E3A0      #014=KIA$GETEVNT File=KIA$APPLC.:E05TSI                            WED 07/30/97 00:39 Page:619
     3415     8893    2               P$->F$DCB.FCN(0) = BINBIT(P$->F$DCB.FCN.CNT(0) - 1, 9);
     3416     8894    2               END;
     3417     8895        /*
     3418     8896             Decrement the master function count in the user table
     3419     8897         */
     3420     8898                %LOCK (G=NI_MFGATE);
     3421     8901    1           USRT$->B$USER.CMF(0) = USRT$->B$USER.CMF(0) - 1;
     3422     8902    1           IF NOT WAIT THEN
     3423     8903    1               USRT$->B$USER.MF(0) = USRT$->B$USER.MF(0) - 1;
     3424     8904                %UNLOCK (G=NI_MFGATE);
     3425     8907
     3426     8908        /*
     3427     8909             Get ready for the transfer.  We map the user's buffer and key
     3428     8910             buffer by placing his PTWs for the buffer and key into the
     3429     8911             page table slots for $LS116.
     3430     8912         */
     3431     8913                %LOCK (G=KQ_XFGATE);
     3432     8916    1           CALL HFF$TRAPALT ALTRET(BADBUF);
     3433     8917    1           IF MEDDCB$->F$DCB.FEPSIZ.BUF~=0 AND K$RWPARM.MSG$~=ADDR(NIL)
     3434     8918    2             THEN DO;
     3435     8919    2               B$CGPT$->B$$XFPTW = TWOPTWS;
     3436     8920    2               B$CGPT$->B$$XFPTW.PP(0) = MEDDCB$->F$DCB.FEPIO.BPP(0);
     3437     8921    2               B$CGPT$->B$$XFPTW.PP(1) = MEDDCB$->F$DCB.FEPIO.BPP(1);
     3438     8922    2               CALL HFC$ASSOCCLR (%IOENDWSQ,0,2);
     3439     8923    2               MSGSIZE = MINIMUM (K$RWPARM.MSGSZ, MEDDCB$->F$DCB.FEPSIZ.BUF);
     3440     8924    2               PINCRC(B$CGCTXT$,MEDDCB$->F$DCB.FEPIO.BUFX)->MESSAGE =
     3441     8925    2                 K$RWPARM.MSG$->MESSAGE;
     3442     8926    2               END;
     3443     8927
     3444     8928        /*
     3445     8929             Now move the key if necessary
     3446     8930         */
     3447     8931    1           IF MEDDCB$->F$DCB.FEPSIZ.KEY~=0 AND K$RWPARM.KEY$~=ADDR(NIL)
     3448     8932    2             THEN DO;
     3449     8933    2               B$CGPT$->B$$XFPTW = TWOPTWS;
     3450     8934    2               B$CGPT$->B$$XFPTW.PP(0) = MEDDCB$->F$DCB.FEPIO.KPP(0);
     3451     8935    2               B$CGPT$->B$$XFPTW.PP(1) = MEDDCB$->F$DCB.FEPIO.KPP(1);
PL6.E3A0      #014=KIA$GETEVNT File=KIA$APPLC.:E05TSI                            WED 07/30/97 00:39 Page:620
     3452     8936    2               CALL HFC$ASSOCCLR (%IOENDWSQ,0,2);
     3453     8937    2               MSGSIZE = MINIMUM (K$RWPARM.KEYSZ, MEDDCB$->F$DCB.FEPSIZ.KEY);
     3454     8938    2               PINCRC(B$CGCTXT$,MEDDCB$->F$DCB.FEPIO.KEYX)->MESSAGE =
     3455     8939    2                 K$RWPARM.KEY$->MESSAGE;
     3456     8940    2               END;
     3457     8941    2           DO WHILE('0'B);
     3458     8942    2   BADBUF:   K$RWPARM.TYC = K$RWPARM.TYC | %TYC_MTRAP;
     3459     8943    2             END;
     3460     8944                %UNLOCK (G=KQ_XFGATE);
     3461     8947
     3462     8948        /*
     3463     8949             Report an I/O complete event on the user
     3464     8950         */
     3465     8951    1           NWIO = '0'B;
     3466     8952    1           NWIO.P# = SIZEW(NWIO) - SIZEW(NWIO.P#);
     3467     8953    1           NWIO.TYC = K$RWPARM.TYC;
     3468     8954    1           NWIO.ARS = K$RWPARM.MSGSZ;
     3469     8955    1           NWIO.DVE.DVBYTE = K$RWPARM.DVE.DVBYTE;
     3470     8956    1           NWIO.DVE.EOMCHAR = K$RWPARM.DVE.EOMCHAR;
     3471     8957    1           NWIO.IOERRCODE = K$RWPARM.MSG_ERRCODE;
     3472     8958    1           XDMN = NK$LDCT.NOWAIT.DMN;
     3473     8959    1           EVID = MEDDCB$->F$DCB.FEPIO.EVENT;
     3474     8960
     3475     8961        /*
     3476     8962             Move the results into the DCBs
     3477     8963         */
     3478     8964    1           P$->F$DCB.DVBYTE = K$RWPARM.DVE.DVBYTE;
     3479     8965    1           P$->F$DCB.EOMCHAR = K$RWPARM.DVE.EOMCHAR;
     3480     8966    1           P$->F$DCB.ARS = K$RWPARM.MSGSZ;
     3481     8967    1           MEDDCB$->F$DCB.DVBYTE = K$RWPARM.DVE.DVBYTE;
     3482     8968    1           MEDDCB$->F$DCB.EOMCHAR = K$RWPARM.DVE.EOMCHAR;
     3483     8969    1           MEDDCB$->F$DCB.ARS = K$RWPARM.MSGSZ;
     3484     8970
     3485     8971        /*
     3486     8972             Reset the no wait pending flag in the LDCT if it's the last one.
     3487     8973         */
     3488     8974    1           IF ADDR( MEDDCB$->F$DCB.FEPIO2)->BFEPIO.BPPWORD = 0
PL6.E3A0      #014=KIA$GETEVNT File=KIA$APPLC.:E05TSI                            WED 07/30/97 00:39 Page:621
     3489     8975    1             THEN NK$LDCT.LKFLG.NOWAIT = '0'B;
     3490     8976    1           MEDDCB$->F$DCB.FEPIO = MEDDCB$->F$DCB.FEPIO2;
     3491     8977    1           MEDDCB$->F$DCB.FEPIO2 = MEDDCB$->F$DCB.FEPIO3;
     3492     8978    1           ADDR( MEDDCB$->F$DCB.FEPIO3)->BFEPIO.BPPWORD = 0;
     3493     8979                %UNLOCK (G=F_DCBLOCK);
     3494     8982    1           IF WAIT THEN
     3495     8983    1               CALL SSR$RUE (%SS_IOCU,NK$LDCT.USER);
     3496     8984    1           CALL SSV$EVENT(NK$LDCT.USER,XDMN,%SUBC_IO#,EVID,K$RWPARM.MSG_ERRCODE,ADDR(
              8984                    NWIO));
     3497     8985    1           CALL SSR$RUE (%SS_FPEVNT,NK$LDCT.USER);
     3498     8986    1           RETURN;
     3499     8987
     3500     8988    1   END KIA$GETEVNT;
     3501     8989        %EOD;

PL6.E3A0      #014=KIA$GETEVNT File=KIA$APPLC.:E05TSI                            WED 07/30/97 00:39 Page:622
--  Include file information  --

   HF_DATA_R.:E05TOU  cannot be made into a system file and is referenced.
   S_WSPTD_R.:E05TOU  cannot be made into a system file and is referenced.
   SS_SCHED_C.:E05TOU  is referenced.
   NK$LDCT.:E05TOU  is referenced.
   K$RWPARM.:E05TOU  is referenced.
   HF_LOCK_C.:E05TOU  cannot be made into a system file and is referenced.
   FM$MACROS.:E05TOU  is referenced.
   F$DCB.:E05TOU  cannot be made into a system file and is referenced.
   CP_6_SUBS.:E05TOU  is referenced.
   CP_6_C.:E05TOU  is referenced.
   CP_6.:E05TOU  cannot be made into a system file and is referenced.
   B_STRINGS_C.:E05TOU  is referenced.
   B_SEGIDS_C.:E05TOU  is referenced.
   B$USER.:E05TOU  cannot be made into a system file and is referenced.
   B$ROSEG.:E05TOU  cannot be made into a system file and is referenced.
      No diagnostics issued in procedure KIA$GETEVNT.

   Procedure KIA$GETEVNT requires 351 words for executable code.
   Procedure KIA$GETEVNT requires 36 words of local(AUTO) storage.

PL6.E3A0      #014=KIA$GETEVNT File=KIA$APPLC.:E05TSI                            WED 07/30/97 00:39 Page:623

 Object Unit name= KIA$GETEVNT                                File name= KIA$APPLC.:E05TOU
 UTS= JUL 30 '97 00:39:53.52 WED                              Compiler= PL-6/E31         Sev=      00
 SharedLib= :SHARED_SYSTEM                                    Alt SharedLib=


    ****  Control sections  ****

 Sect   Type Bound  Init  Size OctSiz  Section name(segment info)
    0   DCB   even  none     0      0  M$UC
    1  RoData even  UTS      3      3  KIA$GETEVNT
    2   Proc  even  none   351    537  KIA$GETEVNT
    3  RoData even  none    17     21  KIA$GETEVNT

    ****  Entry defs  ****

                              Check   Calling
                             calling  sequence
  Sect OctLoc Primary Altret sequence   type   Parms  Name
     2      0   yes            yes      Std        3  KIA$GETEVNT
     2     74                  yes      Std        2  KIA$COMP

  ****  Entry refs  ****

         Check        Calling
        calling       sequence
Altret sequence SRef   type   Args  Name
         yes           Std       3 HFC$ASSOCCLR
         yes           Std       1 HFC$UNLOCK
         yes           Std       1 HFC$LOCK
 yes     yes           Std       0 HFF$TRAPALT
         yes           Std       7 SSV$EVENT
         yes           Std       4 SSR$RUE
                       nStd      0 X66_AUTO_3
                       nStd      0 X66_ARET
                       Std       0 B_CONSPOOL_D
PL6.E3A0      #014=KIA$GETEVNT File=KIA$APPLC.:E05TSI                            WED 07/30/97 00:39 Page:624

  ****  Data refs  ****

  Flags:  r = read only, s = secondary
Flgs Name                             Flgs Name                             Flgs Name
     M$UC                                  S_WSPTD                               B$ROSEG8$
     B$USRT$                               F_DCBLOCK                             KQ_XFGATE
     NI_MFGATE                             B$CGPT$                               B$CGCTXT$
     B_VECTNIL

  ****  Segment refs  ****

  Flags:  r = read only, s = secondary
Flgs Name                             Flgs Name                             Flgs Name
     ISSID
PL6.E3A0      #014=KIA$GETEVNT File=KIA$APPLC.:E05TSI                            WED 07/30/97 00:39 Page:625


     3261        1        /*T***********************************************************/
     3262        2        /*T*                                                         */
     3263        3        /*T* Copyright (c) Bull HN Information Systems Inc., 1997    */
     3264        4        /*T*                                                         */
     3265        5        /*T***********************************************************/
     3266        6        /*D* NAME:        KIA$GETEVNT
     3267        7             PURPOSE:     To obtain the EVENT value from this LDCT's DCB
     3268        8             CALL:        CALL KIA$GETEVNT (NK$LDCT,EVNT);
     3269        9             INPUT:       NK$LDCT - The LDCT
     3270       10             OUTPUT:      EVNT - The DCB's event value or zero if no DCB or no
     3271       11                                 user in the LDCT.
     3272       12             DESCRIPTION: KIA$GETEVNT maps onto this LDCT's user's ROSEG and
     3273       13                          obtains the event from this LDCT's DCB. EVNT is returned
     3274       14                          as zero if no event is to be found.
     3275       15        */
     3276       16
     3277       17        KIA$GETEVNT: PROC(NK$LDCT,PRM2,DMN);

     17  2 000000   000000 700200 xent  KIA$GETEVNT  TSX0  ! X66_AUTO_3
         2 000001   000044 000003                    ZERO    36,3

     3278       18        %INCLUDE B$ROSEG;
     3279       81        %INCLUDE B$USER;
     3280      297        %INCLUDE B_SEGIDS_C;
     3281      836        %INCLUDE B_STRINGS_C;
     3282      965        %INCLUDE CP_6;
     3283     6524        %INCLUDE CP_6_SUBS;
     3284     7064        %INCLUDE F$DCB;
     3285     7113        %INCLUDE FM$MACROS;
     3286     7488        %INCLUDE HF_LOCK_C;
     3287     7502        %INCLUDE K$RWPARM;
     3288     7888        %INCLUDE NK$LDCT;
     3289     7990        %INCLUDE SS_SCHED_C;
     3290     8223        %INCLUDE S_WSPTD_R;
     3291     8239        %INCLUDE HF_DATA_R;
     3292     8282        /**/
PL6.E3A0      #014=KIA$GETEVNT File=KIA$APPLC.:E05TSI                            WED 07/30/97 00:39 Page:626
     3293     8283
     3294     8284        /* Equates */
     3295     8285        %SUB_EXC;
     3296     8332
     3297     8333        /* Parameters */
     3298     8334        /**/
     3299     8335        %NK$LDCT(STCLASS="");
     3300     8381    1   DCL PRM2 CHAR(EVNT) ALIGNED;
     3301     8382    1   DCL EVNT REDEF PRM2 UBIN ALIGNED;
     3302     8383        %K$RWPARM (NAME=K$RWPARM,STCLASS=REDEF PRM2);
     3303     8699    1   DCL DMN UBIN;
     3304     8700        /**/
     3305     8701        /* AUTO variables */
     3306     8702        /**/
     3307     8703    1   DCL P$ PTR;
     3308     8704    1   DCL 1 P REDEF P$,
     3309     8705    1         2 * BIT(24) UNAL,
     3310     8706    1         2 SEGID BIT(12) UNAL;
     3311     8707    1   DCL USRT$ PTR;
     3312     8708    1   DCL MEDDCB$ PTR;
     3313     8709    1   DCL DCBPTR$ PTR;
     3314     8710    1   DCL MSGSIZE UBIN;
     3315     8711    1   DCL BUFSIZE UBIN;
     3316     8712    1   DCL EVID REDEF BUFSIZE UBIN;
     3317     8713    1   DCL XDMN UBIN;
     3318     8714    1   DCL WAIT BIT(1);
     3319     8715        %B$NWIO (NAME=NWIO,STCLASS=AUTO,PARONLY=1);
     3320     8796
     3321     8797        /* Based */
     3322     8798    1   DCL 1 B$$XFPTW BASED,
     3323     8799    1         2 PP(0:1) BIT(18) ALIGNED;
     3324     8800    1   DCL BUFFER CHAR(BUFSIZE) BASED;
     3325     8801    1   DCL MESSAGE CHAR(MSGSIZE) BASED;
     3326     8802    1   DCL 1 BFEPIO BASED,
     3327     8803    1         2 *(0:1) UBIN ALIGNED,
     3328     8804    1         2 BPPWORD UBIN ALIGNED;
     3329     8805        /**/
PL6.E3A0      #014=KIA$GETEVNT File=KIA$APPLC.:E05TSI                            WED 07/30/97 00:39 Page:627
     3330     8806        /* CONSTANT */
     3331     8807        /**/
     3332     8808    1   DCL TWOPTWS(0:1) UBIN INIT(48*2) CONSTANT; /* 48= PRESENT AND WRITABLE        */
     3333     8809        /**/
     3334     8810        /* SYMREF variables */
     3335     8811        /**/
     3336     8812    1   DCL B$ROSEG8$ PTR SYMREF;
     3337     8813    1   DCL B$USRT$ PTR SYMREF;
     3338     8814    1   DCL F_DCBLOCK BIT(72) SYMREF;
     3339     8815    1   DCL KQ_XFGATE BIT(72) DALIGNED SYMREF;
     3340     8816    1   DCL NI_MFGATE BIT(72) SYMREF;
     3341     8817    1   DCL B$CGPT$ PTR SYMREF;
     3342     8818    1   DCL B$CGCTXT$ PTR SYMREF;
     3343     8819        /**/
     3344     8820        /* External procedures */
     3345     8821        /**/
     3346     8822    1   DCL HFC$ASSOCCLR ENTRY (3);
     3347     8823    1   DCL HFF$TRAPALT ENTRY ALTRET;
     3348     8824    1   DCL KIA$MSG ENTRY(1) ALTRET;
     3349     8825    1   DCL SSR$RUE ENTRY(4);
     3350     8826    1   DCL SSV$EVENT ENTRY(7);
     3351     8827
     3352     8828    2           IF NK$LDCT.DCBNO=0 OR NK$LDCT.USER=0 THEN DO;

   8828  2 000002   200003 470500                    LDP0    @NK$LDCT,,AUTO
         2 000003   000014 236100                    LDQ     12,,PR0
         2 000004   000777 316007                    CANQ    511,DL
         2 000005   000011 600000 2                  TZE     s:8829
         2 000006   000007 236100                    LDQ     7,,PR0
         2 000007   000777 316003                    CANQ    511,DU
         2 000010   000014 601000 2                  TNZ     s:8834

     3353     8829    2               EVNT=0;

   8829  2 000011   200004 471500                    LDP1    @PRM2,,AUTO
         2 000012   100000 450100                    STZ     0,,PR1

PL6.E3A0      #014=KIA$GETEVNT File=KIA$APPLC.:E05TSI                            WED 07/30/97 00:39 Page:628
     3354     8830    2               RETURN;

   8830  2 000013   000000 702200 xent               TSX2  ! X66_ARET

     3355     8831    2               END;
     3356     8832    2           DO INHIBIT;                     /* I/O interrupt could clobber        */

     3357     8833                                                /* WSQ 8 while we are using it.       */
     3358     8834    2             S_WSPTD.BLKNO(%IOENDWSQ)=B$USRT$->B$USER.PT(NK$LDCT.USER);

   8834  2 000014   000007 236300                    LDQ   ! 7,,PR0
         2 000015   000016 772200                    QRL   ! 14
         2 000016   017760 376207                    ANQ   ! 8176,DL
         2 000017   000000 471600 xsym               LDP1  ! B$USRT$
         2 000020   100014 220306                    LDX0  ! 12,QL,PR1
         2 000021   000007 740200 xsym               STX0  ! S_WSPTD+7

     3359     8835                                                /* Map onto the user in order to see  */
     3360     8836                                                /* his ROSEG.                         */
     3361     8837    2             CALL HFC$ASSOCCLR(%IOENDWSQ,0,16384); /*MAX Dense PT*/

   8837  2 000022   000001 630600 3                  EPPR0 ! 1
         2 000023   000021 631600 xsym               EPPR1 ! B_VECTNIL+17
         2 000024   000000 701200 xent               TSX1  ! HFC$ASSOCCLR
         2 000025   000000 011200                    NOP   ! 0

     3362     8838    3             IF NK$LDCT.DCBNO > B$ROSEG8$->B$ROSEG.NUMDCBS THEN DO;

   8838  2 000026   200003 470700                    LDP0  ! @NK$LDCT,,AUTO
         2 000027   000014 236300                    LDQ   ! 12,,PR0
         2 000030   000033 736200                    QLS   ! 27
         2 000031   000033 732200                    QRS   ! 27
         2 000032   200034 756300                    STQ   ! NWIO+14,,AUTO
         2 000033   000000 471600 xsym               LDP1  ! B$ROSEG8$
         2 000034   100002 236300                    LDQ   ! 2,,PR1
         2 000035   000022 772200                    QRL   ! 18
         2 000036   200034 116300                    CMPQ  ! NWIO+14,,AUTO
PL6.E3A0      #014=KIA$GETEVNT File=KIA$APPLC.:E05TSI                            WED 07/30/97 00:39 Page:629
         2 000037   000043 605200 2                  TPL   ! s:8842

     3363     8839    3                 EVNT = 0;

   8839  2 000040   200004 473700                    LDP3  ! @PRM2,,AUTO
         2 000041   300000 450300                    STZ   ! 0,,PR3

     3364     8840    3                 RETURN;

   8840  2 000042   000000 702200 xent               TSX2  ! X66_ARET

     3365     8841    3                 END;
     3366     8842    2             P$=B$ROSEG8$->B$ROSEG.DCBPTR$;

   8842  2 000043   100000 236300                    LDQ   ! 0,,PR1
         2 000044   200006 756300                    STQ   ! P$,,AUTO

     3367     8843    2             P.SEGID=%ROSEG8SID;

   8843  2 000045   006125 236207                    LDQ   ! 3157,DL
         2 000046   200006 752303                    STCQ  ! P$,'03'O,AUTO

     3368     8844    2             P$=P$->B$RODCB$(NK$LDCT.DCBNO);

   8844  2 000047   000014 236300                    LDQ   ! 12,,PR0
         2 000050   000033 736200                    QLS   ! 27
         2 000051   000033 732200                    QRS   ! 27
         2 000052   200006 473700                    LDP3  ! P$,,AUTO
         2 000053   300000 236306                    LDQ   ! 0,QL,PR3
         2 000054   200006 756300                    STQ   ! P$,,AUTO

     3369     8845    2             P.SEGID=%ROSEG8SID;

   8845  2 000055   006125 236207                    LDQ   ! 3157,DL
         2 000056   200006 752303                    STCQ  ! P$,'03'O,AUTO

     3370     8846    2             EVNT=P$->F$DCB.EVENT;
PL6.E3A0      #014=KIA$GETEVNT File=KIA$APPLC.:E05TSI                            WED 07/30/97 00:39 Page:630

   8846  2 000057   200006 473700                    LDP3  ! P$,,AUTO
         2 000060   300055 235300                    LDA   ! 45,,PR3
         2 000061   200004 474700                    LDP4  ! @PRM2,,AUTO
         2 000062   400000 755300                    STA   ! 0,,PR4

     3371     8847    2             IF ADDR(DMN) ~= ADDR(NIL) THEN

   8847  2 000063   200005 236300                    LDQ   ! @DMN,,AUTO
         2 000064   000001 116200 xsym               CMPQ  ! B_VECTNIL+1
         2 000065   000073 600200 2                  TZE   ! s:8852

     3372     8848    3               DO;

     3373     8849    3                 DMN = P$->F$DCB.WSR;

   8849  2 000066   200005 471700                    LDP1  ! @DMN,,AUTO
         2 000067   300040 236300                    LDQ   ! 32,,PR3
         2 000070   000022 772200                    QRL   ! 18
         2 000071   000777 376207                    ANQ   ! 511,DL
         2 000072   100000 756300                    STQ   ! 0,,PR1

     3374     8850    3                 END;

     3375     8851    2             END;

     3376     8852    1           RETURN;

   8852  2 000073   000000 702200 xent               TSX2  ! X66_ARET

     3377     8853        %EJECT;
PL6.E3A0      #014=KIA$GETEVNT File=KIA$APPLC.:E05TSI                            WED 07/30/97 00:39 Page:631
     3378     8854    1   KIA$COMP: ENTRY(NK$LDCT,PRM2);

   8854  2 000074   000000 700200 xent  KIA$COMP     TSX0  ! X66_AUTO_3
         2 000075   000044 000003                    ZERO    36,3

     3379     8855
     3380     8856    1           USRT$ = ADDR(B$USRT$->B$USER(NK$LDCT.USER));

   8856  2 000076   200003 470500                    LDP0    @NK$LDCT,,AUTO
         2 000077   000007 236100                    LDQ     7,,PR0
         2 000100   000016 772000                    QRL     14
         2 000101   017760 376007                    ANQ     8176,DL
         2 000102   000022 736000                    QLS     18
         2 000103   000000 036000 xsym               ADLQ    B$USRT$
         2 000104   200007 756100                    STQ     USRT$,,AUTO

     3381     8857
     3382     8858        /*
     3383     8859             Map in the user into the input output end action WSQ
     3384     8860         */
     3385     8861                %LOCK (G=F_DCBLOCK);

   8862  2 000105   000004 630400 3                  EPPR0   4
         2 000106   000017 631400 xsym               EPPR1   B_VECTNIL+15
         2 000107   000000 701000 xent               TSX1    HFC$LOCK
         2 000110   000000 011000                    NOP     0

     3386     8864    1           S_WSPTD.BLKNO(%IOENDWSQ) = USRT$->B$USER.PT(0);

   8864  2 000111   200007 470500                    LDP0    USRT$,,AUTO
         2 000112   000014 220100                    LDX0    12,,PR0
         2 000113   000007 740000 xsym               STX0    S_WSPTD+7

     3387     8865    1           CALL HFC$ASSOCCLR (%IOENDWSQ,0,16384); /*MAX Dense PT*/

   8865  2 000114   000001 630400 3                  EPPR0   1
         2 000115   000021 631400 xsym               EPPR1   B_VECTNIL+17
PL6.E3A0      #014=KIA$GETEVNT File=KIA$APPLC.:E05TSI                            WED 07/30/97 00:39 Page:632
         2 000116   000000 701000 xent               TSX1    HFC$ASSOCCLR
         2 000117   000000 011000                    NOP     0

     3388     8866
     3389     8867        /*
     3390     8868             Get pointers to the DCBs in the IOENDROS
     3391     8869         */
     3392     8870    1           P$ = B$ROSEG8$->B$ROSEG.DCBPTR$;

   8870  2 000120   000000 470400 xsym               LDP0    B$ROSEG8$
         2 000121   000000 236100                    LDQ     0,,PR0
         2 000122   200006 756100                    STQ     P$,,AUTO

     3393     8871    1           P.SEGID = %ROSEG8SID;

   8871  2 000123   006125 236007                    LDQ     3157,DL
         2 000124   200006 752103                    STCQ    P$,'03'O,AUTO

     3394     8872    1           DCBPTR$ = P$;

   8872  2 000125   200006 236100                    LDQ     P$,,AUTO
         2 000126   200011 756100                    STQ     DCBPTR$,,AUTO

     3395     8873    1           P$ = DCBPTR$->B$RODCB$(NK$LDCT.DCBNO);

   8873  2 000127   200003 471500                    LDP1    @NK$LDCT,,AUTO
         2 000130   100014 236100                    LDQ     12,,PR1
         2 000131   000033 736000                    QLS     27
         2 000132   000033 732000                    QRS     27
         2 000133   200011 473500                    LDP3    DCBPTR$,,AUTO
         2 000134   300000 236106                    LDQ     0,QL,PR3
         2 000135   200006 756100                    STQ     P$,,AUTO

     3396     8874    1           P.SEGID = %ROSEG8SID;

   8874  2 000136   006125 236007                    LDQ     3157,DL
         2 000137   200006 752103                    STCQ    P$,'03'O,AUTO
PL6.E3A0      #014=KIA$GETEVNT File=KIA$APPLC.:E05TSI                            WED 07/30/97 00:39 Page:633

     3397     8875    1           MEDDCB$ = P$;

   8875  2 000140   200006 236100                    LDQ     P$,,AUTO
         2 000141   200010 756100                    STQ     MEDDCB$,,AUTO

     3398     8876
     3399     8877        /*
     3400     8878             Decrement the count in the DCB
     3401     8879         */
     3402     8880    1           WAIT = MEDDCB$->F$DCB.FCN.F(0);

   8880  2 000142   200010 474500                    LDP4    MEDDCB$,,AUTO
         2 000143   400074 236100                    LDQ     60,,PR4
         2 000144   400000 376003                    ANQ     -131072,DU
         2 000145   200015 756100                    STQ     WAIT,,AUTO

     3403     8881    1           MEDDCB$->F$DCB.FCN(0) = BINBIT(MEDDCB$->F$DCB.FCN.CNT(0) - 1, 9);

   8881  2 000146   400074 236100                    LDQ     60,,PR4
         2 000147   000033 772000                    QRL     27
         2 000150   000377 376007                    ANQ     255,DL
         2 000151   000001 136007                    SBLQ    1,DL
         2 000152   000033 736000                    QLS     27
         2 000153   400074 552140                    STBQ    60,'40'O,PR4

     3404     8882
     3405     8883        /*
     3406     8884             Check to see if there is a streamed DCB that the function
     3407     8885             count must be decremented in
     3408     8886         */
     3409     8887    1           IF NK$LDCT.NOWAIT.DCB# ~= NK$LDCT.DCBNO

   8887  2 000154   100014 236100                    LDQ     12,,PR1
         2 000155   000033 736000                    QLS     27
         2 000156   000033 732000                    QRS     27
         2 000157   200034 756100                    STQ     NWIO+14,,AUTO
PL6.E3A0      #014=KIA$GETEVNT File=KIA$APPLC.:E05TSI                            WED 07/30/97 00:39 Page:634
         2 000160   100010 236100                    LDQ     8,,PR1
         2 000161   000011 772000                    QRL     9
         2 000162   000777 376007                    ANQ     511,DL
         2 000163   200034 116100                    CMPQ    NWIO+14,,AUTO
         2 000164   000215 600000 2                  TZE     s:8899
         2 000165   300000 236106                    LDQ     0,QL,PR3
         2 000166   000001 116000 xsym               CMPQ    B_VECTNIL+1
         2 000167   000215 600000 2                  TZE     s:8899

     3410     8888    1             AND DCBPTR$->B$RODCB$(NK$LDCT.NOWAIT.DCB#) ~= ADDR(NIL)
     3411     8889    2             THEN DO;

     3412     8890    2               P$ = DCBPTR$->B$RODCB$(NK$LDCT.NOWAIT.DCB#);

   8890  2 000170   100010 236100                    LDQ     8,,PR1
         2 000171   000011 772000                    QRL     9
         2 000172   000777 376007                    ANQ     511,DL
         2 000173   300000 236106                    LDQ     0,QL,PR3
         2 000174   200006 756100                    STQ     P$,,AUTO

     3413     8891    2               P.SEGID = %ROSEG8SID;

   8891  2 000175   006125 236007                    LDQ     3157,DL
         2 000176   200006 752103                    STCQ    P$,'03'O,AUTO

     3414     8892    2               WAIT = WAIT | P$->F$DCB.FCN.F(0);

   8892  2 000177   200006 475500                    LDP5    P$,,AUTO
         2 000200   500074 236100                    LDQ     60,,PR5
         2 000201   400000 376003                    ANQ     -131072,DU
         2 000202   200034 756100                    STQ     NWIO+14,,AUTO
         2 000203   200015 236100                    LDQ     WAIT,,AUTO
         2 000204   400000 376003                    ANQ     -131072,DU
         2 000205   200034 276100                    ORQ     NWIO+14,,AUTO
         2 000206   200015 756100                    STQ     WAIT,,AUTO

     3415     8893    2               P$->F$DCB.FCN(0) = BINBIT(P$->F$DCB.FCN.CNT(0) - 1, 9);
PL6.E3A0      #014=KIA$GETEVNT File=KIA$APPLC.:E05TSI                            WED 07/30/97 00:39 Page:635

   8893  2 000207   500074 236100                    LDQ     60,,PR5
         2 000210   000033 772000                    QRL     27
         2 000211   000377 376007                    ANQ     255,DL
         2 000212   000001 136007                    SBLQ    1,DL
         2 000213   000033 736000                    QLS     27
         2 000214   500074 552140                    STBQ    60,'40'O,PR5

     3416     8894    2               END;

     3417     8895        /*
     3418     8896             Decrement the master function count in the user table
     3419     8897         */
     3420     8898                %LOCK (G=NI_MFGATE);

   8899  2 000215   000005 630400 3                  EPPR0   5
         2 000216   000017 631400 xsym               EPPR1   B_VECTNIL+15
         2 000217   000000 701000 xent               TSX1    HFC$LOCK
         2 000220   000000 011000                    NOP     0

     3421     8901    1           USRT$->B$USER.CMF(0) = USRT$->B$USER.CMF(0) - 1;

   8901  2 000221   200007 470500                    LDP0    USRT$,,AUTO
         2 000222   000007 236100                    LDQ     7,,PR0
         2 000223   000077 036007                    ADLQ    63,DL
         2 000224   000007 752101                    STCQ    7,'01'O,PR0

     3422     8902    1           IF NOT WAIT THEN

   8902  2 000225   200015 234100                    SZN     WAIT,,AUTO
         2 000226   000232 604000 2                  TMI     s:8905

     3423     8903    1               USRT$->B$USER.MF(0) = USRT$->B$USER.MF(0) - 1;

   8903  2 000227   000006 236100                    LDQ     6,,PR0
         2 000230   777000 036003                    ADLQ    -512,DU
         2 000231   000006 552140                    STBQ    6,'40'O,PR0
PL6.E3A0      #014=KIA$GETEVNT File=KIA$APPLC.:E05TSI                            WED 07/30/97 00:39 Page:636

     3424     8904                %UNLOCK (G=NI_MFGATE);

   8905  2 000232   000005 630400 3                  EPPR0   5
         2 000233   000017 631400 xsym               EPPR1   B_VECTNIL+15
         2 000234   000000 701000 xent               TSX1    HFC$UNLOCK
         2 000235   000000 011000                    NOP     0

     3425     8907
     3426     8908        /*
     3427     8909             Get ready for the transfer.  We map the user's buffer and key
     3428     8910             buffer by placing his PTWs for the buffer and key into the
     3429     8911             page table slots for $LS116.
     3430     8912         */
     3431     8913                %LOCK (G=KQ_XFGATE);

   8914  2 000236   000006 630400 3                  EPPR0   6
         2 000237   000017 631400 xsym               EPPR1   B_VECTNIL+15
         2 000240   000000 701000 xent               TSX1    HFC$LOCK
         2 000241   000000 011000                    NOP     0

     3432     8916    1           CALL HFF$TRAPALT ALTRET(BADBUF);

   8916  2 000242   000002 631400 xsym               EPPR1   B_VECTNIL+2
         2 000243   000000 701000 xent               TSX1    HFF$TRAPALT
         2 000244   000364 702000 2                  TSX2    BADBUF

     3433     8917    1           IF MEDDCB$->F$DCB.FEPSIZ.BUF~=0 AND K$RWPARM.MSG$~=ADDR(NIL)

   8917  2 000245   200010 470500                    LDP0    MEDDCB$,,AUTO
         2 000246   000106 220100                    LDX0    70,,PR0
         2 000247   000313 600000 2                  TZE     s:8931
         2 000250   200004 471500                    LDP1    @PRM2,,AUTO
         2 000251   100000 236100                    LDQ     0,,PR1
         2 000252   000001 116000 xsym               CMPQ    B_VECTNIL+1
         2 000253   000313 600000 2                  TZE     s:8931

PL6.E3A0      #014=KIA$GETEVNT File=KIA$APPLC.:E05TSI                            WED 07/30/97 00:39 Page:637
     3434     8918    2             THEN DO;

     3435     8919    2               B$CGPT$->B$$XFPTW = TWOPTWS;

   8919  2 000254   000000 473400 xsym               LDP3    B$CGPT$
         2 000255   000000 237000 1                  LDAQ    TWOPTWS
         2 000256   300000 755100                    STA     0,,PR3
         2 000257   300001 756100                    STQ     1,,PR3

     3436     8920    2               B$CGPT$->B$$XFPTW.PP(0) = MEDDCB$->F$DCB.FEPIO.BPP(0);

   8920  2 000260   000112 220100                    LDX0    74,,PR0
         2 000261   000000 473400 xsym               LDP3    B$CGPT$
         2 000262   300000 740100                    STX0    0,,PR3

     3437     8921    2               B$CGPT$->B$$XFPTW.PP(1) = MEDDCB$->F$DCB.FEPIO.BPP(1);

   8921  2 000263   000112 720100                    LXL0    74,,PR0
         2 000264   000000 473400 xsym               LDP3    B$CGPT$
         2 000265   300001 740100                    STX0    1,,PR3

     3438     8922    2               CALL HFC$ASSOCCLR (%IOENDWSQ,0,2);

   8922  2 000266   000007 630400 3                  EPPR0   7
         2 000267   000021 631400 xsym               EPPR1   B_VECTNIL+17
         2 000270   000000 701000 xent               TSX1    HFC$ASSOCCLR
         2 000271   000000 011000                    NOP     0

     3439     8923    2               MSGSIZE = MINIMUM (K$RWPARM.MSGSZ, MEDDCB$->F$DCB.FEPSIZ.BUF);

   8923  2 000272   200010 470500                    LDP0    MEDDCB$,,AUTO
         2 000273   000106 236100                    LDQ     70,,PR0
         2 000274   000022 772000                    QRL     18
         2 000275   200004 471500                    LDP1    @PRM2,,AUTO
         2 000276   000301 604000 2                  TMI     s:8923+7
         2 000277   100001 116100                    CMPQ    1,,PR1
         2 000300   000302 604400 2                  TMOZ    s:8923+8
PL6.E3A0      #014=KIA$GETEVNT File=KIA$APPLC.:E05TSI                            WED 07/30/97 00:39 Page:638
         2 000301   100001 236100                    LDQ     1,,PR1
         2 000302   200012 756100                    STQ     MSGSIZE,,AUTO

     3440     8924    2               PINCRC(B$CGCTXT$,MEDDCB$->F$DCB.FEPIO.BUFX)->MESSAGE =

   8924  2 000303   000111 236100                    LDQ     73,,PR0
         2 000304   777777 376007                    ANQ     -1,DL
         2 000305   100000 473500                    LDP3    0,,PR1
         2 000306   200012 720100                    LXL0    MSGSIZE,,AUTO
         2 000307   000000 474400 xsym               LDP4    B$CGCTXT$
         2 000310   040146 100540                    MLR     fill='040'O
         2 000311   300000 000010                    ADSC9   0,,PR3                   cn=0,n=*X0
         2 000312   400000 000010                    ADSC9   0,Q,PR4                  cn=0,n=*X0

     3441     8925    2                 K$RWPARM.MSG$->MESSAGE;
     3442     8926    2               END;

     3443     8927
     3444     8928        /*
     3445     8929             Now move the key if necessary
     3446     8930         */
     3447     8931    1           IF MEDDCB$->F$DCB.FEPSIZ.KEY~=0 AND K$RWPARM.KEY$~=ADDR(NIL)

   8931  2 000313   000106 720100                    LXL0    70,,PR0
         2 000314   000363 600000 2                  TZE     s:8941
         2 000315   200004 471500                    LDP1    @PRM2,,AUTO
         2 000316   100044 236100                    LDQ     36,,PR1
         2 000317   000001 116000 xsym               CMPQ    B_VECTNIL+1
         2 000320   000363 600000 2                  TZE     s:8941

     3448     8932    2             THEN DO;

     3449     8933    2               B$CGPT$->B$$XFPTW = TWOPTWS;

   8933  2 000321   000000 473400 xsym               LDP3    B$CGPT$
         2 000322   000000 237000 1                  LDAQ    TWOPTWS
         2 000323   300000 755100                    STA     0,,PR3
PL6.E3A0      #014=KIA$GETEVNT File=KIA$APPLC.:E05TSI                            WED 07/30/97 00:39 Page:639
         2 000324   300001 756100                    STQ     1,,PR3

     3450     8934    2               B$CGPT$->B$$XFPTW.PP(0) = MEDDCB$->F$DCB.FEPIO.KPP(0);

   8934  2 000325   000113 220100                    LDX0    75,,PR0
         2 000326   000000 473400 xsym               LDP3    B$CGPT$
         2 000327   300000 740100                    STX0    0,,PR3

     3451     8935    2               B$CGPT$->B$$XFPTW.PP(1) = MEDDCB$->F$DCB.FEPIO.KPP(1);

   8935  2 000330   000113 720100                    LXL0    75,,PR0
         2 000331   000000 473400 xsym               LDP3    B$CGPT$
         2 000332   300001 740100                    STX0    1,,PR3

     3452     8936    2               CALL HFC$ASSOCCLR (%IOENDWSQ,0,2);

   8936  2 000333   000007 630400 3                  EPPR0   7
         2 000334   000021 631400 xsym               EPPR1   B_VECTNIL+17
         2 000335   000000 701000 xent               TSX1    HFC$ASSOCCLR
         2 000336   000000 011000                    NOP     0

     3453     8937    2               MSGSIZE = MINIMUM (K$RWPARM.KEYSZ, MEDDCB$->F$DCB.FEPSIZ.KEY);

   8937  2 000337   200010 470500                    LDP0    MEDDCB$,,AUTO
         2 000340   000106 236100                    LDQ     70,,PR0
         2 000341   777777 376007                    ANQ     -1,DL
         2 000342   200004 471500                    LDP1    @PRM2,,AUTO
         2 000343   200034 756100                    STQ     NWIO+14,,AUTO
         2 000344   100046 236100                    LDQ     38,,PR1
         2 000345   000777 376007                    ANQ     511,DL
         2 000346   200034 116100                    CMPQ    NWIO+14,,AUTO
         2 000347   000352 602000 2                  TNC     s:8937+11
         2 000350   000352 600000 2                  TZE     s:8937+11
         2 000351   200034 236100                    LDQ     NWIO+14,,AUTO
         2 000352   200012 756100                    STQ     MSGSIZE,,AUTO

     3454     8938    2               PINCRC(B$CGCTXT$,MEDDCB$->F$DCB.FEPIO.KEYX)->MESSAGE =
PL6.E3A0      #014=KIA$GETEVNT File=KIA$APPLC.:E05TSI                            WED 07/30/97 00:39 Page:640

   8938  2 000353   000111 236100                    LDQ     73,,PR0
         2 000354   000022 772000                    QRL     18
         2 000355   100044 473500                    LDP3    36,,PR1
         2 000356   200012 720100                    LXL0    MSGSIZE,,AUTO
         2 000357   000000 474400 xsym               LDP4    B$CGCTXT$
         2 000360   040146 100540                    MLR     fill='040'O
         2 000361   300000 000010                    ADSC9   0,,PR3                   cn=0,n=*X0
         2 000362   400000 000010                    ADSC9   0,Q,PR4                  cn=0,n=*X0

     3455     8939    2                 K$RWPARM.KEY$->MESSAGE;
     3456     8940    2               END;

     3457     8941    2           DO WHILE('0'B);

   8941  2 000363   000370 710000 2                  TRA     s:8945

     3458     8942    2   BADBUF:   K$RWPARM.TYC = K$RWPARM.TYC | %TYC_MTRAP;

   8942  2 000364   200004 470500       BADBUF       LDP0    @PRM2,,AUTO
         2 000365   000006 236100                    LDQ     6,,PR0
         2 000366   000002 276000 1                  ORQ     TWOPTWS+2
         2 000367   000006 756100                    STQ     6,,PR0

     3459     8943    2             END;

     3460     8944                %UNLOCK (G=KQ_XFGATE);

   8945  2 000370   000006 630400 3                  EPPR0   6
         2 000371   000017 631400 xsym               EPPR1   B_VECTNIL+15
         2 000372   000000 701000 xent               TSX1    HFC$UNLOCK
         2 000373   000000 011000                    NOP     0

     3461     8947
     3462     8948        /*
     3463     8949             Report an I/O complete event on the user
     3464     8950         */
PL6.E3A0      #014=KIA$GETEVNT File=KIA$APPLC.:E05TSI                            WED 07/30/97 00:39 Page:641
     3465     8951    1           NWIO = '0'B;

   8951  2 000374   000100 100400                    MLR     fill='000'O
         2 000375   000002 000001 xsym               ADSC9   B_VECTNIL+2              cn=0,n=1
         2 000376   200016 000064                    ADSC9   NWIO,,AUTO               cn=0,n=52

     3466     8952    1           NWIO.P# = SIZEW(NWIO) - SIZEW(NWIO.P#);

   8952  2 000377   000014 235007                    LDA     12,DL
         2 000400   200016 755100                    STA     NWIO,,AUTO

     3467     8953    1           NWIO.TYC = K$RWPARM.TYC;

   8953  2 000401   200004 470500                    LDP0    @PRM2,,AUTO
         2 000402   000006 236100                    LDQ     6,,PR0
         2 000403   200017 756100                    STQ     NWIO+1,,AUTO

     3468     8954    1           NWIO.ARS = K$RWPARM.MSGSZ;

   8954  2 000404   000001 235100                    LDA     1,,PR0
         2 000405   200020 755100                    STA     NWIO+2,,AUTO

     3469     8955    1           NWIO.DVE.DVBYTE = K$RWPARM.DVE.DVBYTE;

   8955  2 000406   000010 236100                    LDQ     8,,PR0
         2 000407   200021 676100                    ERQ     NWIO+3,,AUTO
         2 000410   776000 376003                    ANQ     -1024,DU
         2 000411   200021 656100                    ERSQ    NWIO+3,,AUTO

     3470     8956    1           NWIO.DVE.EOMCHAR = K$RWPARM.DVE.EOMCHAR;

   8956  2 000412   000010 236100                    LDQ     8,,PR0
         2 000413   200021 552120                    STBQ    NWIO+3,'20'O,AUTO

     3471     8957    1           NWIO.IOERRCODE = K$RWPARM.MSG_ERRCODE;

   8957  2 000414   000037 236100                    LDQ     31,,PR0
PL6.E3A0      #014=KIA$GETEVNT File=KIA$APPLC.:E05TSI                            WED 07/30/97 00:39 Page:642
         2 000415   200032 756100                    STQ     NWIO+12,,AUTO

     3472     8958    1           XDMN = NK$LDCT.NOWAIT.DMN;

   8958  2 000416   200003 471500                    LDP1    @NK$LDCT,,AUTO
         2 000417   100010 236100                    LDQ     8,,PR1
         2 000420   000033 772000                    QRL     27
         2 000421   000007 376007                    ANQ     7,DL
         2 000422   200014 756100                    STQ     XDMN,,AUTO

     3473     8959    1           EVID = MEDDCB$->F$DCB.FEPIO.EVENT;

   8959  2 000423   200010 473500                    LDP3    MEDDCB$,,AUTO
         2 000424   300110 235100                    LDA     72,,PR3
         2 000425   200013 755100                    STA     BUFSIZE,,AUTO

     3474     8960
     3475     8961        /*
     3476     8962             Move the results into the DCBs
     3477     8963         */
     3478     8964    1           P$->F$DCB.DVBYTE = K$RWPARM.DVE.DVBYTE;

   8964  2 000426   200006 474500                    LDP4    P$,,AUTO
         2 000427   000010 236100                    LDQ     8,,PR0
         2 000430   400003 676100                    ERQ     3,,PR4
         2 000431   776000 376003                    ANQ     -1024,DU
         2 000432   400003 656100                    ERSQ    3,,PR4

     3479     8965    1           P$->F$DCB.EOMCHAR = K$RWPARM.DVE.EOMCHAR;

   8965  2 000433   000010 236100                    LDQ     8,,PR0
         2 000434   000022 772000                    QRL     18
         2 000435   400003 552104                    STBQ    3,'04'O,PR4

     3480     8966    1           P$->F$DCB.ARS = K$RWPARM.MSGSZ;

   8966  2 000436   000001 235100                    LDA     1,,PR0
PL6.E3A0      #014=KIA$GETEVNT File=KIA$APPLC.:E05TSI                            WED 07/30/97 00:39 Page:643
         2 000437   400000 755100                    STA     0,,PR4

     3481     8967    1           MEDDCB$->F$DCB.DVBYTE = K$RWPARM.DVE.DVBYTE;

   8967  2 000440   000010 236100                    LDQ     8,,PR0
         2 000441   300003 676100                    ERQ     3,,PR3
         2 000442   776000 376003                    ANQ     -1024,DU
         2 000443   300003 656100                    ERSQ    3,,PR3

     3482     8968    1           MEDDCB$->F$DCB.EOMCHAR = K$RWPARM.DVE.EOMCHAR;

   8968  2 000444   000010 236100                    LDQ     8,,PR0
         2 000445   000022 772000                    QRL     18
         2 000446   300003 552104                    STBQ    3,'04'O,PR3

     3483     8969    1           MEDDCB$->F$DCB.ARS = K$RWPARM.MSGSZ;

   8969  2 000447   000001 235100                    LDA     1,,PR0
         2 000450   300000 755100                    STA     0,,PR3

     3484     8970
     3485     8971        /*
     3486     8972             Reset the no wait pending flag in the LDCT if it's the last one.
     3487     8973         */
     3488     8974    1           IF ADDR( MEDDCB$->F$DCB.FEPIO2)->BFEPIO.BPPWORD = 0

   8974  2 000451   300131 235100                    LDA     89,,PR3
         2 000452   000455 601000 2                  TNZ     s:8976

     3489     8975    1             THEN NK$LDCT.LKFLG.NOWAIT = '0'B;

   8975  2 000453   000012 236000 3                  LDQ     10
         2 000454   100011 356100                    ANSQ    9,,PR1

     3490     8976    1           MEDDCB$->F$DCB.FEPIO = MEDDCB$->F$DCB.FEPIO2;

   8976  2 000455   000100 100500                    MLR     fill='000'O
PL6.E3A0      #014=KIA$GETEVNT File=KIA$APPLC.:E05TSI                            WED 07/30/97 00:39 Page:644
         2 000456   300127 000020                    ADSC9   87,,PR3                  cn=0,n=16
         2 000457   300110 000020                    ADSC9   72,,PR3                  cn=0,n=16

     3491     8977    1           MEDDCB$->F$DCB.FEPIO2 = MEDDCB$->F$DCB.FEPIO3;

   8977  2 000460   000100 100500                    MLR     fill='000'O
         2 000461   300133 000020                    ADSC9   91,,PR3                  cn=0,n=16
         2 000462   300127 000020                    ADSC9   87,,PR3                  cn=0,n=16

     3492     8978    1           ADDR( MEDDCB$->F$DCB.FEPIO3)->BFEPIO.BPPWORD = 0;

   8978  2 000463   300135 450100                    STZ     93,,PR3

     3493     8979                %UNLOCK (G=F_DCBLOCK);

   8980  2 000464   000004 630400 3                  EPPR0   4
         2 000465   000017 631400 xsym               EPPR1   B_VECTNIL+15
         2 000466   000000 701000 xent               TSX1    HFC$UNLOCK
         2 000467   000000 011000                    NOP     0

     3494     8982    1           IF WAIT THEN

   8982  2 000470   200015 234100                    SZN     WAIT,,AUTO
         2 000471   000502 605000 2                  TPL     s:8984

     3495     8983    1               CALL SSR$RUE (%SS_IOCU,NK$LDCT.USER);

   8983  2 000472   200003 236100                    LDQ     @NK$LDCT,,AUTO
         2 000473   000014 036000 3                  ADLQ    12
         2 000474   000015 235000 3                  LDA     13
         2 000475   200034 757100                    STAQ    NWIO+14,,AUTO
         2 000476   200034 630500                    EPPR0   NWIO+14,,AUTO
         2 000477   000020 631400 xsym               EPPR1   B_VECTNIL+16
         2 000500   000000 701000 xent               TSX1    SSR$RUE
         2 000501   000000 011000                    NOP     0

     3496     8984    1           CALL SSV$EVENT(NK$LDCT.USER,XDMN,%SUBC_IO#,EVID,K$RWPARM.MSG_ERRCODE,ADDR(
PL6.E3A0      #014=KIA$GETEVNT File=KIA$APPLC.:E05TSI                            WED 07/30/97 00:39 Page:645
              8984                    NWIO));

   8984  2 000502   200016 630500                    EPPR0   NWIO,,AUTO
         2 000503   200034 450500                    STP0    NWIO+14,,AUTO
         2 000504   200034 631500                    EPPR1   NWIO+14,,AUTO
         2 000505   200043 451500                    STP1    NWIO+21,,AUTO
         2 000506   200004 236100                    LDQ     @PRM2,,AUTO
         2 000507   000037 036003                    ADLQ    31,DU
         2 000510   200042 756100                    STQ     NWIO+20,,AUTO
         2 000511   200013 633500                    EPPR3   BUFSIZE,,AUTO
         2 000512   200041 453500                    STP3    NWIO+19,,AUTO
         2 000513   000016 236000 3                  LDQ     14
         2 000514   200040 756100                    STQ     NWIO+18,,AUTO
         2 000515   200014 634500                    EPPR4   XDMN,,AUTO
         2 000516   200037 454500                    STP4    NWIO+17,,AUTO
         2 000517   200003 236100                    LDQ     @NK$LDCT,,AUTO
         2 000520   000014 036000 3                  ADLQ    12
         2 000521   200036 756100                    STQ     NWIO+16,,AUTO
         2 000522   200036 630500                    EPPR0   NWIO+16,,AUTO
         2 000523   000024 631400 xsym               EPPR1   B_VECTNIL+20
         2 000524   000000 701000 xent               TSX1    SSV$EVENT
         2 000525   000000 011000                    NOP     0

     3497     8985    1           CALL SSR$RUE (%SS_FPEVNT,NK$LDCT.USER);

   8985  2 000526   200003 236100                    LDQ     @NK$LDCT,,AUTO
         2 000527   000014 036000 3                  ADLQ    12
         2 000530   000020 235000 3                  LDA     16
         2 000531   200034 757100                    STAQ    NWIO+14,,AUTO
         2 000532   200034 630500                    EPPR0   NWIO+14,,AUTO
         2 000533   000020 631400 xsym               EPPR1   B_VECTNIL+16
         2 000534   000000 701000 xent               TSX1    SSR$RUE
         2 000535   000000 011000                    NOP     0

     3498     8986    1           RETURN;

   8986  2 000536   000000 702200 xent               TSX2  ! X66_ARET
PL6.E3A0      #014=KIA$GETEVNT File=KIA$APPLC.:E05TSI                            WED 07/30/97 00:39 Page:646

TWOPTWS
 Sect OctLoc
   1     000   000000 000060   000000 000060                                    ...0...0

(unnamed)
 Sect OctLoc
   1     002   000100 000000                                                    .@..

(unnamed)
 Sect OctLoc
   3     000   000000 040000   000011 006000   000002 006000   000000 006000    .. .............
   3     004   000000 006000   000000 006000   000000 006000   000011 006000    ................
   3     010   000002 006000   000004 006000   777776 777777   000000 000037    ................
   3     014   000007 200000   000013 006000   000003 006000   000000 000053    ...............+
   3     020   000017 006000                                                    ....
     3499     8987
     3500     8988    1   END KIA$GETEVNT;
     3501     8989        %EOD;

PL6.E3A0      #014=KIA$GETEVNT File=KIA$APPLC.:E05TSI                            WED 07/30/97 00:39 Page:647
--  Include file information  --

   HF_DATA_R.:E05TOU  cannot be made into a system file and is referenced.
   S_WSPTD_R.:E05TOU  cannot be made into a system file and is referenced.
   SS_SCHED_C.:E05TOU  is referenced.
   NK$LDCT.:E05TOU  is referenced.
   K$RWPARM.:E05TOU  is referenced.
   HF_LOCK_C.:E05TOU  cannot be made into a system file and is referenced.
   FM$MACROS.:E05TOU  is referenced.
   F$DCB.:E05TOU  cannot be made into a system file and is referenced.
   CP_6_SUBS.:E05TOU  is referenced.
   CP_6_C.:E05TOU  is referenced.
   CP_6.:E05TOU  cannot be made into a system file and is referenced.
   B_STRINGS_C.:E05TOU  is referenced.
   B_SEGIDS_C.:E05TOU  is referenced.
   B$USER.:E05TOU  cannot be made into a system file and is referenced.
   B$ROSEG.:E05TOU  cannot be made into a system file and is referenced.
      No diagnostics issued in procedure KIA$GETEVNT.
PL6.E3A0      #014=KIA$GETEVNT File=KIA$APPLC.:E05TSI                            WED 07/30/97 00:39 Page:648

 **** Variables and constants ****

  ****  Section 001 RoData KIA$GETEVNT

  ****  Scalars and arrays  ****
OctLoc.c.b A Datatyp(siz) R M Lvl/name                 OctLoc.c.b A Datatyp(siz) R M Lvl/name

     0-0-0/w UBIN        r     1 TWOPTWS(0:1)

  ****  Auto variables  ****

  ****  Scalars and arrays  ****
OctLoc.c.b A Datatyp(siz) R M Lvl/name                 OctLoc.c.b A Datatyp(siz) R M Lvl/name

     5-0-0/w PTR         r     1 @DMN                       3-0-0/w PTR         r     1 @NK$LDCT
     4-0-0/w PTR         r     1 @PRM2                     13-0-0/w UBIN        r     1 BUFSIZE
    11-0-0/w PTR         r     1 DCBPTR$                   *0-0-0/w UBIN        r     1 DMN
    13-0-0/w UBIN        r     1 EVID                      *0-0-0/w UBIN        r     1 EVNT
    *0-0-0/d STRC(1404)  r     1 K$RWPARM                  10-0-0/w PTR         r     1 MEDDCB$
    12-0-0/w UBIN        r     1 MSGSIZE                   *0-0-0/d STRC(864)   r     1 NK$LDCT
    16-0-0/w STRC(468)   r     1 NWIO                       6-0-0/w STRC        r     1 P
     6-0-0/w PTR         r     1 P$                        *0-0-0/d ACHR        r     1 PRM2
     7-0-0/w PTR         r     1 USRT$                     15-0-0/b BIT         r     1 WAIT
    14-0-0/w UBIN        r     1 XDMN

  ****  SYMREF variables  ****

  ****  Scalars and arrays  ****
OctLoc.c.b A Datatyp(siz) R M Lvl/name                 OctLoc.c.b A Datatyp(siz) R M Lvl/name

     0-0-0/w PTR         r     1 B$CGCTXT$                  0-0-0/w PTR         r     1 B$CGPT$
     0-0-0/w PTR         r     1 B$ROSEG8$                  0-0-0/w PTR         r     1 B$USRT$
     0-0-0/b BIT (72)    r     1 F_DCBLOCK                  0-0-0/d BIT (72)    r     1 KQ_XFGATE
     0-0-0/b BIT (72)    r     1 NI_MFGATE                  0-0-0/w STRC        r     1 S_WSPTD(0:28)

  ****  BASED and DCB variables  ****

PL6.E3A0      #014=KIA$GETEVNT File=KIA$APPLC.:E05TSI                            WED 07/30/97 00:39 Page:649
  ****  Scalars and arrays  ****
OctLoc.c.b A Datatyp(siz) R M Lvl/name                 OctLoc.c.b A Datatyp(siz) R M Lvl/name

     0-0-0/w STRC(72)    r     1 B$$XFPTW
     0-0-0/w PTR         r     1 B$RODCB$(0:0)
     0-0-0/d STRC(3024)  r     1 B$ROSEG                    0-0-0/w STRC(576)   r     1 B$USER(0:0)
     0-0-0/w STRC(108)   r     1 BFEPIO                     0-0-0/d ASTR(3528)  r     1 F$DCB
     0-0-0/c ACHR        r     1 MESSAGE


   Procedure KIA$GETEVNT requires 351 words for executable code.
   Procedure KIA$GETEVNT requires 36 words of local(AUTO) storage.
PL6.E3A0      #014=KIA$GETEVNT File=KIA$APPLC.:E05TSI                            WED 07/30/97 00:39 Page:650
          *** CROSS REFERENCE LISTING ***
**     DENOTES     IDENTIFIER DEFINITION
<<                 IDENTIFIER'S VALUE SET
>>                 IDENTIFIER'S VALUE USED
<>                 IDENTIFIER SET AND/OR USED
--                 IDENTIFIER REFERENCED
PL6.E3A0      #014=KIA$GETEVNT File=KIA$APPLC.:E05TSI                            WED 07/30/97 00:39 Page:651
          MINI XREF LISTING

B$$XFPTW
      8798**DCL      8919<<ASSIGN   8933<<ASSIGN
B$$XFPTW.PP
      8799**DCL      8920<<ASSIGN   8921<<ASSIGN   8934<<ASSIGN   8935<<ASSIGN
B$CGCTXT$
      8818**DCL      8924>>ASSIGN   8938>>ASSIGN
B$CGPT$
      8817**DCL      8919>>ASSIGN   8920>>ASSIGN   8921>>ASSIGN   8933>>ASSIGN   8934>>ASSIGN   8935>>ASSIGN
B$DO.ECCINFO
       232**DCL       233--REDEF
B$RODCB$
        65**DCL      8844>>ASSIGN   8873>>ASSIGN   8887>>IF       8890>>ASSIGN
B$ROSEG.DCBPTR$
        29**DCL      8842>>ASSIGN   8870>>ASSIGN
B$ROSEG.NUMDCBS
        31**DCL      8838>>IF
B$ROSEG8$
      8812**DCL      8838>>IF       8842>>ASSIGN   8870>>ASSIGN
B$U.MISC
       211**DCL       212--REDEF
B$USER
       256**DCL      8856--ASSIGN
B$USER.CMF
       270**DCL      8901<<ASSIGN   8901>>ASSIGN
B$USER.MF
       263**DCL      8903<<ASSIGN   8903>>ASSIGN
B$USER.MISC
       287**DCL       288--REDEF
B$USER.PT
       281**DCL      8834>>ASSIGN   8864>>ASSIGN
B$USRT$
      8813**DCL      8834>>ASSIGN   8856>>ASSIGN
PL6.E3A0      #014=KIA$GETEVNT File=KIA$APPLC.:E05TSI                            WED 07/30/97 00:39 Page:652
BADBUF
      8942**LABEL    8916--CALLALT
BFEPIO.BPPWORD
      8804**DCL      8974>>IF       8978<<ASSIGN
BUFSIZE
      8711**DCL      8712--REDEF    8800--IMP-SIZ
DCBPTR$
      8709**DCL      8872<<ASSIGN   8873>>ASSIGN   8887>>IF       8890>>ASSIGN
DMN
      8699**DCL        17--PROC     8847--IF       8849<<ASSIGN
EVID
      8712**DCL      8959<<ASSIGN   8984<>CALL
EVNT
      8382**DCL      8381--IMP-SIZ  8829<<ASSIGN   8839<<ASSIGN   8846<<ASSIGN
F$DCB.ACTPOS
      7090**DCL      7090--REDEF
F$DCB.ARS
      7065**DCL      7065--REDEF    8966<<ASSIGN   8969<<ASSIGN
F$DCB.ATTR
      7083**DCL      7084--REDEF
F$DCB.BORROW
      7098**DCL      7098--REDEF    7098--REDEF    7098--REDEF
F$DCB.DCBNAME.L
      7112**DCL      7112--IMP-SIZ
F$DCB.DVBYTE
      7068**DCL      8964<<ASSIGN   8967<<ASSIGN
F$DCB.EOMCHAR
      7069**DCL      7069--REDEF    8965<<ASSIGN   8968<<ASSIGN
F$DCB.EVENT
      7089**DCL      8846>>ASSIGN
F$DCB.FCN
      7102**DCL      8881<<ASSIGN   8893<<ASSIGN
F$DCB.FCN.CNT
      7102**DCL      8881>>ASSIGN   8893>>ASSIGN
F$DCB.FCN.F
      7102**DCL      8880>>ASSIGN   8892>>ASSIGN
PL6.E3A0      #014=KIA$GETEVNT File=KIA$APPLC.:E05TSI                            WED 07/30/97 00:39 Page:653
F$DCB.FEPIO
      7108**DCL      8976<<ASSIGN
F$DCB.FEPIO.BPP
      7109**DCL      8920>>ASSIGN   8921>>ASSIGN
F$DCB.FEPIO.BUFX
      7109**DCL      8924>>ASSIGN
F$DCB.FEPIO.EVENT
      7108**DCL      8959>>ASSIGN
F$DCB.FEPIO.KEYX
      7108**DCL      8938>>ASSIGN
F$DCB.FEPIO.KPP
      7109**DCL      8934>>ASSIGN   8935>>ASSIGN
F$DCB.FEPIO2
      7111**DCL      8974--IF       8976>>ASSIGN   8977<<ASSIGN
F$DCB.FEPIO3
      7111**DCL      8977>>ASSIGN   8978--ASSIGN
F$DCB.FEPSIZ.BUF
      7108**DCL      8917>>IF       8923>>ASSIGN
F$DCB.FEPSIZ.KEY
      7108**DCL      8931>>IF       8937>>ASSIGN
F$DCB.FLDID
      7093**DCL      7093--REDEF
F$DCB.FORM$
      7087**DCL      7087--REDEF
F$DCB.FSECT
      7103**DCL      7103--REDEF
F$DCB.FSN
      7080**DCL      7080--REDEF    7080--REDEF    7081--REDEF
F$DCB.HEADER$
      7086**DCL      7086--REDEF
F$DCB.IXTNSIZE
      7084**DCL      7084--REDEF
F$DCB.LASTSTA$
      7074**DCL      7074--REDEF
F$DCB.LVL
      7099**DCL      7099--REDEF
PL6.E3A0      #014=KIA$GETEVNT File=KIA$APPLC.:E05TSI                            WED 07/30/97 00:39 Page:654
F$DCB.NAME.C
      7074**DCL      7074--REDEF
F$DCB.NOEOF
      7095**DCL      7095--REDEF
F$DCB.NRECS
      7085**DCL      7085--REDEF
F$DCB.NRECX
      7104**DCL      7104--REDEF
F$DCB.OHDR
      7096**DCL      7096--REDEF
F$DCB.ORG
      7079**DCL      7079--REDEF
F$DCB.PRECNO
      7102**DCL      7102--REDEF
F$DCB.RCSZ
      7107**DCL      7107--REDEF
F$DCB.RES
      7075**DCL      7075--REDEF
F$DCB.SETX
      7087**DCL      7087--REDEF
F$DCB.TAB$
      7086**DCL      7087--REDEF
F$DCB.TDA
      7101**DCL      7101--REDEF
F$DCB.WSN
      7076**DCL      7076--REDEF
F$DCB.WSR
      7082**DCL      8849>>ASSIGN
F_DCBLOCK
      8814**DCL      8862<>CALL     8980<>CALL
HFC$ASSOCCLR
      8822**DCL-ENT  8837--CALL     8865--CALL     8922--CALL     8936--CALL
HFC$LOCK
      7501**DCL-ENT  8862--CALL     8899--CALL     8914--CALL
HFC$UNLOCK
      7501**DCL-ENT  8905--CALL     8945--CALL     8980--CALL
PL6.E3A0      #014=KIA$GETEVNT File=KIA$APPLC.:E05TSI                            WED 07/30/97 00:39 Page:655
HFF$TRAPALT
      8823**DCL-ENT  8916--CALL
K$RWPARM.BLKREC
      8430**DCL      8455--REDEF
K$RWPARM.BLKREC.BLKU#
      8431**DCL      8433--REDEF
K$RWPARM.BLKREC.RECU#
      8443**DCL      8445--REDEF
K$RWPARM.DVE.DVBYTE
      8462**DCL      8955>>ASSIGN   8964>>ASSIGN   8967>>ASSIGN
K$RWPARM.DVE.DVBYTE.VFC
      8470**DCL      8471--REDEF
K$RWPARM.DVE.EOMCHAR
      8478**DCL      8482--REDEF    8956>>ASSIGN   8965>>ASSIGN   8968>>ASSIGN
K$RWPARM.ERR
      8542**DCL      8547--REDEF
K$RWPARM.FC
      8506**DCL      8507--REDEF
K$RWPARM.FLDID
      8688**DCL      8689--REDEF
K$RWPARM.FPT$
      8569**DCL      8576--REDEF
K$RWPARM.KEY$
      8686**DCL      8931>>IF       8938>>ASSIGN
K$RWPARM.KEYSZ
      8697**DCL      8937>>ASSIGN
K$RWPARM.KEYTYPE
      8695**DCL      8696--REDEF
K$RWPARM.MSG$
      8405**DCL      8411--REDEF    8917>>IF       8924>>ASSIGN
K$RWPARM.MSGID
      8517**DCL      8522--REDEF
K$RWPARM.MSGIDXT
      8530**DCL      8534--REDEF
K$RWPARM.MSGSZ
      8412**DCL      8923>>ASSIGN   8954>>ASSIGN   8966>>ASSIGN   8969>>ASSIGN
PL6.E3A0      #014=KIA$GETEVNT File=KIA$APPLC.:E05TSI                            WED 07/30/97 00:39 Page:656
K$RWPARM.MSG_ERRCODE
      8665**DCL      8957>>ASSIGN   8984<>CALL
K$RWPARM.ORG
      8666**DCL      8667--REDEF
K$RWPARM.THDRSZ
      8610**DCL      8614--REDEF
K$RWPARM.TYC
      8426**DCL      8942<<ASSIGN   8942>>ASSIGN   8953>>ASSIGN
K$RWPARM.VDOFLGS
      8668**DCL      8679--REDEF
KQ_XFGATE
      8815**DCL      8914<>CALL     8945<>CALL
MEDDCB$
      8708**DCL      8875<<ASSIGN   8880>>ASSIGN   8881>>ASSIGN   8881>>ASSIGN   8917>>IF       8920>>ASSIGN
      8921>>ASSIGN   8923>>ASSIGN   8924>>ASSIGN   8931>>IF       8934>>ASSIGN   8935>>ASSIGN   8937>>ASSIGN
      8938>>ASSIGN   8959>>ASSIGN   8967>>ASSIGN   8968>>ASSIGN   8969>>ASSIGN   8974>>IF       8976>>ASSIGN
      8976>>ASSIGN   8977>>ASSIGN   8977>>ASSIGN   8978>>ASSIGN
MESSAGE
      8801**DCL      8924<<ASSIGN   8924>>ASSIGN   8938<<ASSIGN   8938>>ASSIGN
MSGSIZE
      8710**DCL      8801--IMP-SIZ  8923<<ASSIGN   8924>>ASSIGN   8924>>ASSIGN   8937<<ASSIGN   8938>>ASSIGN
      8938>>ASSIGN
NI_MFGATE
      8816**DCL      8899<>CALL     8905<>CALL
NK$LDCT
      8348**DCL        17--PROC     8854--ENTRY
NK$LDCT.DCBNO
      8372**DCL      8828>>IF       8838>>IF       8844>>ASSIGN   8873>>ASSIGN   8887>>IF
NK$LDCT.DDT$
      8350**DCL      8350--REDEF
NK$LDCT.IOQ$
      8349**DCL      8350--REDEF
NK$LDCT.LDCTX
      8351**DCL      8351--REDEF
NK$LDCT.LKFLG.ABORTED
      8363**DCL      8364--REDEF
PL6.E3A0      #014=KIA$GETEVNT File=KIA$APPLC.:E05TSI                            WED 07/30/97 00:39 Page:657
NK$LDCT.LKFLG.NOWAIT
      8369**DCL      8975<<ASSIGN
NK$LDCT.NOWAIT.DCB#
      8360**DCL      8887>>IF       8887>>IF       8890>>ASSIGN
NK$LDCT.NOWAIT.DMN
      8359**DCL      8958>>ASSIGN
NK$LDCT.RLCID.LDCTX
      8373**DCL      8373--REDEF
NK$LDCT.STA$
      8369**DCL      8370--REDEF
NK$LDCT.SYMB$
      8348**DCL      8348--REDEF    8348--REDEF    8349--REDEF
NK$LDCT.USER
      8358**DCL      8828>>IF       8834>>ASSIGN   8856>>ASSIGN   8983<>CALL     8984<>CALL     8985<>CALL
NWIO
      8719**DCL      8951<<ASSIGN   8952--ASSIGN   8984--CALL
NWIO.ARS
      8721**DCL      8954<<ASSIGN
NWIO.CGPARM.MSGIDXT
      8745**DCL      8748--REDEF
NWIO.DVE.DVBYTE
      8721**DCL      8955<<ASSIGN
NWIO.DVE.EOMCHAR
      8721**DCL      8956<<ASSIGN
NWIO.IOERRCODE
      8764**DCL      8957<<ASSIGN
NWIO.P#
      8721**DCL      8952<<ASSIGN   8952--ASSIGN
NWIO.TYC
      8721**DCL      8953<<ASSIGN
P.SEGID
      8706**DCL      8843<<ASSIGN   8845<<ASSIGN   8871<<ASSIGN   8874<<ASSIGN   8891<<ASSIGN
P$
      8703**DCL      8704--REDEF    8842<<ASSIGN   8844<<ASSIGN   8844>>ASSIGN   8846>>ASSIGN   8849>>ASSIGN
      8870<<ASSIGN   8872>>ASSIGN   8873<<ASSIGN   8875>>ASSIGN   8890<<ASSIGN   8892>>ASSIGN   8893>>ASSIGN
      8893>>ASSIGN   8964>>ASSIGN   8965>>ASSIGN   8966>>ASSIGN
PL6.E3A0      #014=KIA$GETEVNT File=KIA$APPLC.:E05TSI                            WED 07/30/97 00:39 Page:658
PRM2
      8381**DCL        17--PROC     8382--REDEF    8404--REDEF    8854--ENTRY
SSR$RUE
      8825**DCL-ENT  8983--CALL     8985--CALL
SSV$EVENT
      8826**DCL-ENT  8984--CALL
S_WSPTD.BLKNO
      8231**DCL      8834<<ASSIGN   8864<<ASSIGN
TWOPTWS
      8808**DCL      8919>>ASSIGN   8933>>ASSIGN
USRT$
      8707**DCL      8856<<ASSIGN   8864>>ASSIGN   8901>>ASSIGN   8901>>ASSIGN   8903>>ASSIGN   8903>>ASSIGN
WAIT
      8714**DCL      8880<<ASSIGN   8892<<ASSIGN   8892>>ASSIGN   8902>>IF       8982>>IF
XDMN
      8713**DCL      8958<<ASSIGN   8984<>CALL

PL6.E3A0      #015=KIA$NETERR2ERR File=KIA$APPLC.:E05TSI                         WED 07/30/97 00:40 Page:659
     3502        1        /*T***********************************************************/
     3503        2        /*T*                                                         */
     3504        3        /*T* Copyright (c) Bull HN Information Systems Inc., 1997    */
     3505        4        /*T*                                                         */
     3506        5        /*T***********************************************************/
     3507        6        KIA$NETERR2ERR: PROC(NETERR,ERR);
     3508        7        /*D* NAME:        KIA$NETERR2ERR
     3509        8             PURPOSE:     To convert a network error code to a host error code
     3510        9             CALL:        CALL KIA$NETERR2ERR(NETERR,ERR);
     3511       10             INPUT:       NETERR - A KL_NETERR structure defining a network
     3512       11                                   error code.
     3513       12             OUTPUT:      ERR - A host error code suitable for stuffing into
     3514       13                                B$JIT.ERR.
     3515       14             DESCRIPTION: KIA$NETERR2ERR accepts a KL_NETERR structure
     3516       15                          describing a network error code and converts it to
     3517       16                          a host error code. All conversion necessary including
     3518       17                          removal of coupler slack bits and HOST-originated
     3519       18                          versus FEP-originated detection is performed.
     3520       19        */
     3521       20
     3522       21        %INCLUDE KL_MACRO_C;
     3523     3373        %KL_NETERR(FPTN=NETERR,ALGN=CALIGNED,STCLASS=PARAM,LAST=";");
     3524     3410    1   DCL ERR BIT(36) CALIGNED;
     3525     3411    1   DCL 1 TERR,
     3526     3412    1         2 * UBIN BYTE UNAL,
     3527     3413    1         2 SIGNIF BIT(36) UNAL;
     3528     3414    1   DCL EMR$FEP2HOST ENTRY(2);
     3529     3415    1   DCL KIA$8TO9 ENTRY(3);
     3530     3416
     3531     3417    1           IF NETERR.HOSTERR
     3532     3418    2             THEN DO;
     3533     3419    2               TERR='0'B;
     3534     3420    2               CALL KIA$8TO9(NETERR.ERR,TERR,5);
     3535     3421    2               ERR=TERR.SIGNIF;
     3536     3422    2               END;
     3537     3423    2             ELSE DO;
     3538     3424    2               CALL EMR$FEP2HOST(NETERR.ERR.L6,ERR);
PL6.E3A0      #015=KIA$NETERR2ERR File=KIA$APPLC.:E05TSI                         WED 07/30/97 00:40 Page:660
     3539     3425    2               END;
     3540     3426    1           RETURN;
     3541     3427    1   END KIA$NETERR2ERR;

PL6.E3A0      #015=KIA$NETERR2ERR File=KIA$APPLC.:E05TSI                         WED 07/30/97 00:40 Page:661
--  Include file information  --

   KL_MACRO_C.:E05TOU  is referenced.
      No diagnostics issued in procedure KIA$NETERR2ERR.

   Procedure KIA$NETERR2ERR requires 35 words for executable code.
   Procedure KIA$NETERR2ERR requires 12 words of local(AUTO) storage.

    No errors detected in file KIA$APPLC.:E05TSI    .

PL6.E3A0      #015=KIA$NETERR2ERR File=KIA$APPLC.:E05TSI                         WED 07/30/97 00:40 Page:662

 Object Unit name= KIA$NETERR2ERR                             File name= KIA$APPLC.:E05TOU
 UTS= JUL 30 '97 00:40:52.96 WED                              Compiler= PL-6/E31         Sev=      00
 SharedLib= :SHARED_SYSTEM                                    Alt SharedLib=


    ****  Control sections  ****

 Sect   Type Bound  Init  Size OctSiz  Section name(segment info)
    0   Proc  even  none    35     43  KIA$NETERR2ERR
    1  RoData even  none     1      1  KIA$NETERR2ERR

    ****  Entry defs  ****

                              Check   Calling
                             calling  sequence
  Sect OctLoc Primary Altret sequence   type   Parms  Name
     0      0   yes            yes      Std        2  KIA$NETERR2ERR

  ****  Entry refs  ****

         Check        Calling
        calling       sequence
Altret sequence SRef   type   Args  Name
         yes           Std       3 KIA$8TO9
         yes           Std       2 EMR$FEP2HOST
                       nStd      0 X66_AUTO_2
                       Std       0 B_CONSPOOL_D
                       nStd      0 X66_ARET

  ****  Data refs  ****

  Flags:  r = read only, s = secondary
Flgs Name                             Flgs Name                             Flgs Name
     B_VECTNIL
PL6.E3A0      #015=KIA$NETERR2ERR File=KIA$APPLC.:E05TSI                         WED 07/30/97 00:40 Page:663

  ****  Segment refs  ****

  Flags:  r = read only, s = secondary
Flgs Name                             Flgs Name                             Flgs Name
     ISSID
PL6.E3A0      #015=KIA$NETERR2ERR File=KIA$APPLC.:E05TSI                         WED 07/30/97 00:40 Page:664


     3502        1        /*T***********************************************************/
     3503        2        /*T*                                                         */
     3504        3        /*T* Copyright (c) Bull HN Information Systems Inc., 1997    */
     3505        4        /*T*                                                         */
     3506        5        /*T***********************************************************/
     3507        6        KIA$NETERR2ERR: PROC(NETERR,ERR);

      6  0 000000   000000 700200 xent  KIA$NETERR2* TSX0  ! X66_AUTO_2
         0 000001   000014 000002                    ZERO    12,2

     3508        7        /*D* NAME:        KIA$NETERR2ERR
     3509        8             PURPOSE:     To convert a network error code to a host error code
     3510        9             CALL:        CALL KIA$NETERR2ERR(NETERR,ERR);
     3511       10             INPUT:       NETERR - A KL_NETERR structure defining a network
     3512       11                                   error code.
     3513       12             OUTPUT:      ERR - A host error code suitable for stuffing into
     3514       13                                B$JIT.ERR.
     3515       14             DESCRIPTION: KIA$NETERR2ERR accepts a KL_NETERR structure
     3516       15                          describing a network error code and converts it to
     3517       16                          a host error code. All conversion necessary including
     3518       17                          removal of coupler slack bits and HOST-originated
     3519       18                          versus FEP-originated detection is performed.
     3520       19        */
     3521       20
     3522       21        %INCLUDE KL_MACRO_C;
     3523     3373        %KL_NETERR(FPTN=NETERR,ALGN=CALIGNED,STCLASS=PARAM,LAST=";");
     3524     3410    1   DCL ERR BIT(36) CALIGNED;
     3525     3411    1   DCL 1 TERR,
     3526     3412    1         2 * UBIN BYTE UNAL,
     3527     3413    1         2 SIGNIF BIT(36) UNAL;
     3528     3414    1   DCL EMR$FEP2HOST ENTRY(2);
     3529     3415    1   DCL KIA$8TO9 ENTRY(3);
     3530     3416
     3531     3417    1           IF NETERR.HOSTERR

   3417  0 000002   200003 470500                    LDP0    @NETERR,,AUTO
PL6.E3A0      #015=KIA$NETERR2ERR File=KIA$APPLC.:E05TSI                         WED 07/30/97 00:40 Page:665
         0 000003   000000 066500                    CMPB    filb='0'B
         0 000004   000000 010001                    BDSC    0,,PR0                   by=0,bit=1,n=1
         0 000005   000002 000022 xsym               BDSC    B_VECTNIL+2              by=0,bit=0,n=18
         0 000006   000031 600000 0                  TZE     s:3424

     3532     3418    2             THEN DO;

     3533     3419    2               TERR='0'B;

   3419  0 000007   200005 450100                    STZ     TERR,,AUTO
         0 000010   200006 450100                    STZ     TERR+1,,AUTO

     3534     3420    2               CALL KIA$8TO9(NETERR.ERR,TERR,5);

   3420  0 000011   000000 236000 1                  LDQ     0
         0 000012   200012 756100                    STQ     TERR+5,,AUTO
         0 000013   200005 631500                    EPPR1   TERR,,AUTO
         0 000014   200011 451500                    STP1    TERR+4,,AUTO
         0 000015   200003 236100                    LDQ     @NETERR,,AUTO
         0 000016   200000 036007                    ADLQ    65536,DL
         0 000017   200010 756100                    STQ     TERR+3,,AUTO
         0 000020   200010 630500                    EPPR0   TERR+3,,AUTO
         0 000021   000021 631400 xsym               EPPR1   B_VECTNIL+17
         0 000022   000000 701000 xent               TSX1    KIA$8TO9
         0 000023   000000 011000                    NOP     0

     3535     3421    2               ERR=TERR.SIGNIF;

   3421  0 000024   200004 470500                    LDP0    @ERR,,AUTO
         0 000025   000100 100500                    MLR     fill='000'O
         0 000026   200005 200004                    ADSC9   TERR,,AUTO               cn=1,n=4
         0 000027   000000 000004                    ADSC9   0,,PR0                   cn=0,n=4

     3536     3422    2               END;

   3422  0 000030   000042 710000 0                  TRA     s:3426

PL6.E3A0      #015=KIA$NETERR2ERR File=KIA$APPLC.:E05TSI                         WED 07/30/97 00:40 Page:666
     3537     3423    2             ELSE DO;

     3538     3424    2               CALL EMR$FEP2HOST(NETERR.ERR.L6,ERR);

   3424  0 000031   200004 236100                    LDQ     @ERR,,AUTO
         0 000032   200011 756100                    STQ     TERR+4,,AUTO
         0 000033   200003 236100                    LDQ     @NETERR,,AUTO
         0 000034   400000 036007                    ADLQ    -131072,DL
         0 000035   200010 756100                    STQ     TERR+3,,AUTO
         0 000036   200010 630500                    EPPR0   TERR+3,,AUTO
         0 000037   000020 631400 xsym               EPPR1   B_VECTNIL+16
         0 000040   000000 701000 xent               TSX1    EMR$FEP2HOST
         0 000041   000000 011000                    NOP     0

     3539     3425    2               END;

     3540     3426    1           RETURN;

   3426  0 000042   000000 702200 xent               TSX2  ! X66_ARET

(unnamed)
 Sect OctLoc
   1     000   000007 006000                                                    ....
     3541     3427    1   END KIA$NETERR2ERR;

PL6.E3A0      #015=KIA$NETERR2ERR File=KIA$APPLC.:E05TSI                         WED 07/30/97 00:40 Page:667
--  Include file information  --

   KL_MACRO_C.:E05TOU  is referenced.
      No diagnostics issued in procedure KIA$NETERR2ERR.
PL6.E3A0      #015=KIA$NETERR2ERR File=KIA$APPLC.:E05TSI                         WED 07/30/97 00:40 Page:668

 **** Variables and constants ****

  ****  Auto variables  ****

  ****  Scalars and arrays  ****
OctLoc.c.b A Datatyp(siz) R M Lvl/name                 OctLoc.c.b A Datatyp(siz) R M Lvl/name

     4-0-0/w PTR         r     1 @ERR                       3-0-0/w PTR         r     1 @NETERR
    *0-0-0/c BIT         r     1 ERR                       *0-0-0/c STRC(54)    r     1 NETERR
     5-0-0/b STRC(45)    r     1 TERR


   Procedure KIA$NETERR2ERR requires 35 words for executable code.
   Procedure KIA$NETERR2ERR requires 12 words of local(AUTO) storage.

    No errors detected in file KIA$APPLC.:E05TSI    .
PL6.E3A0      #015=KIA$NETERR2ERR File=KIA$APPLC.:E05TSI                         WED 07/30/97 00:40 Page:669
          *** CROSS REFERENCE LISTING ***
**     DENOTES     IDENTIFIER DEFINITION
<<                 IDENTIFIER'S VALUE SET
>>                 IDENTIFIER'S VALUE USED
<>                 IDENTIFIER SET AND/OR USED
--                 IDENTIFIER REFERENCED
PL6.E3A0      #015=KIA$NETERR2ERR File=KIA$APPLC.:E05TSI                         WED 07/30/97 00:40 Page:670
          MINI XREF LISTING

EMR$FEP2HOST
      3414**DCL-ENT  3424--CALL
ERR
      3410**DCL         6--PROC     3421<<ASSIGN   3424<>CALL
KIA$8TO9
      3415**DCL-ENT  3420--CALL
NETERR
      3387**DCL         6--PROC
NETERR.ERR
      3399**DCL      3420<>CALL
NETERR.ERR.L6
      3402**DCL      3424<>CALL
NETERR.HOSTERR
      3394**DCL      3417>>IF
TERR
      3411**DCL      3419<<ASSIGN   3420<>CALL
TERR.SIGNIF
      3413**DCL      3421>>ASSIGN
