PL6.E3A0      #011=KIA$VDO File=KIA$APPLC.:E05TSI                                WED 07/30/97 00:37 Page:473
     2451        1        /*T***********************************************************/
     2452        2        /*T*                                                         */
     2453        3        /*T* Copyright (c) Bull HN Information Systems Inc., 1997    */
     2454        4        /*T*                                                         */
     2455        5        /*T***********************************************************/
     2456        6        KIA$VDO: PROC(FUNCTION,K$RWPARM,HDR) ALTRET;
     2457        7
     2458        8        %INCLUDE CP_6_SUBS;
     2459      548        %INCLUDE KI$CP6V_C;
     2460      987        %INCLUDE KV$VDO;
     2461     2002        %INCLUDE K_DATA_R;
     2462     2713        %INCLUDE K_SUBS_C;
     2463     2746        %INCLUDE KI_DATA_R;
     2464     2772        %INCLUDE NK$LDCT;
     2465     2874        %INCLUDE NK_VFC_C;
     2466     2948        %INCLUDE KV_PRMID_E;
     2467     3122        %KV_PRMID_E;
     2468     3278        %INCLUDE UM_CP6;
     2469     4130        %INCLUDE K_CP6_M;
     2470     4326
     2471     4327        /* Parameters */
     2472     4328    1   DCL FUNCTION UBIN;
     2473     4329        %NK$LDCT (STCLASS="");
     2474     4375        %K$RWPARM (NAME=K$RWPARM);
     2475     4691    1   DCL HDR CHAR(100);
     2476     4692
     2477     4693        /* Based structures */
     2478     4694    1   DCL B$UHDR CHAR(K$RWPARM.UHDRSZ) BASED;
     2479     4695    1   DCL 1 TL BASED(HDR$) CALIGNED,
     2480     4696    1         2 PRMID UBIN BYTE UNAL,
     2481     4697    1         2 LENGTH UBIN BYTE UNAL;
     2482     4698    1   DCL 1 SIN BASED(HDR$) CALIGNED,
     2483     4699    1         2 STR UBIN BYTE CALIGNED,
     2484     4700    1         2 FIL,
     2485     4701    1           3 CLM BIT(18),
     2486     4702    1           3 * BIT(9);
     2487     4703        %NK$VFC;
PL6.E3A0      #011=KIA$VDO File=KIA$APPLC.:E05TSI                                WED 07/30/97 00:37 Page:474
     2488     4721        %KV_VDO_ALL;
     2489     6863        %KV$VDOVLP_MRK (NAME=VDOVLP_MRK,STCLASS=BASED,LAST=",");
     2490     6916    1         2 BMRK REDEF ID,
     2491     6917    1           3 BLK# UBIN (18) UNAL,
     2492     6918    1           3 REC# UBIN (18) UNAL;
     2493     6919    1   DCL 1 VDO BASED,
     2494     6920    1         2 * CHAR(VDOSZ);
     2495     6921    1   DCL B$FLDID CHAR(2) UNAL BASED;
     2496     6922    1   DCL KEY CHAR(K$RWPARM.KEYSZ) BASED;
     2497     6923        %FPT$DCLFLD_V(BASED="BASED(K$RWPARM.V$)");
     2498     6943        %FPT$ERASE_V(BASED="BASED(K$RWPARM.V$)");
     2499     6959        %FPT$MDFFLD_V(BASED="BASED(K$RWPARM.V$)");
     2500     6975        %FPT$TRMPRG_V(BASED="BASED(K$RWPARM.V$)");
     2501     6987        %VLP$FLDATR_V(FPTN=VLP$FLDATR,BASED="BASED(K$RWPARM.VLP$)");
     2502     7004        /* Auto */
     2503     7005    1   DCL HDR$ PTR;
     2504     7006    1   DCL 1 HDRA REDEF HDR$,
     2505     7007    1         2 * BIT(18) UNAL,
     2506     7008    1         2 NHWA BIT(1) UNAL ,
     2507     7009    1         2 * BIT(17) UNAL;
     2508     7010
     2509     7011    1   DCL LHDR$ PTR;
     2510     7012    1   DCL TEMP1 REDEF LHDR$ UBIN WORD ;
     2511     7013    1   DCL TEMP1S REDEF LHDR$ SBIN WORD ;
     2512     7014    1   DCL VDOSZ UBIN;
     2513     7015    1   DCL 1 GLOM ,
     2514     7016    1         2 FLDID,
     2515     7017    1           3 FILLER UBIN HALF HALIGNED,
     2516     7018    1           3 ID UBIN HALF HALIGNED,
     2517     7019    1           3 IDC REDEF ID CHAR(2),
     2518     7020    1         2 OP6$ REDEF FLDID PTR ,
     2519     7021    1         2 ERR BIT(36) ALIGNED,
     2520     7022    1         2 TEMP0 REDEF ERR UBIN WORD ,
     2521     7023    1         2 TEMP0S REDEF ERR SBIN WORD ,
     2522     7024    1         2 TEMP2 REDEF ERR,
     2523     7025    1           3 * BIT(4) UNAL,
     2524     7026    1           3 B1 UBIN(8) UNAL,
PL6.E3A0      #011=KIA$VDO File=KIA$APPLC.:E05TSI                                WED 07/30/97 00:37 Page:475
     2525     7027    1           3 B2 UBIN(8) UNAL ,
     2526     7028    1           3 B3 UBIN(8) UNAL ,
     2527     7029    1           3 B4 UBIN(8) UNAL ,
     2528     7030    1         2 TEMP3 REDEF ERR,
     2529     7031    1           3 BY1 UBIN(9) UNAL ,
     2530     7032    1           3 BY2 UBIN(9) UNAL ,
     2531     7033    1           3 BY3 UBIN(9) UNAL ,
     2532     7034    1           3 BY4 UBIN(9) UNAL ,
     2533     7035    1         2 OP$ PTR,
     2534     7036    1         2 TEMP5 REDEF OP$ UBIN,
     2535     7037    1         2 TEMP5S REDEF OP$ SBIN,
     2536     7038    1         2 TEMP4 REDEF OP$ BIT(36) ;
     2537     7039    1   DCL MSGSZ UBIN;
     2538     7040    1   DCL B$CHAR CHAR(1) BASED(GLOM.OP$) UNAL;
     2539     7041    1   DCL 1 SPREAD BASED UNAL ,
     2540     7042    1         2 HI UBIN(10) UNAL ,
     2541     7043    1         2 LO8 UBIN(8) UNAL ;
     2542     7044
     2543     7045        /* Refs */
     2544     7046    1   DCL NK_BLNKSUPTBL CHAR(512) DALIGNED SYMREF; /* Can NOT be B$SR_xxx
     2545     7047                                              because this runs at interrupt
     2546     7048                                              and there might not be a user mapped */
     2547     7049        %KV$VDOVLP_CG_MSGID (NAME=KI_VDOVLP_CG_MSGID,STCLASS=SYMREF);
     2548     7101        %KV$VDOVLP_CG_MSGTYP (NAME=KI_VDOVLP_CG_MSGTYP,STCLASS=SYMREF);
     2549     7153        %KV$VDOVLP_CG_STA (NAME=KI_VDOVLP_CG_STA,STCLASS=SYMREF);
     2550     7204        %KV$VDOVLP_DAT1 (NAME=KI_VDOVLP_DAT1,STCLASS=SYMREF);
     2551     7254        %KV$VDOVLP_DAT2 (NAME=KI_VDOVLP_DAT2,STCLASS=SYMREF);
     2552     7304        %KV$VDOVLP_ERR (NAME=KI_VDOVLP_ERR,STCLASS=SYMREF);
     2553     7400        %KV$VDOVLP_FLDID (NAME=KI_VDOVLP_FLDID,STCLASS=SYMREF);
     2554     7451        %KV$VDOVLP_KEY (NAME=KI_VDOVLP_KEY,STCLASS=SYMREF);
     2555     7501        %KV$VDOVLP_MRK (NAME=KI_VDOVLP_MRK,STCLASS=SYMREF);
     2556     7554        %KV_VDOBYTSIZ (NAME=KI_VDOBYTSIZ,STCLASS=SYMREF);
     2557     7574    1   DCL 1 WAVDO BASED(HDR$) ALIGNED ,
     2558     7575                 %KV$VDO (LVL=2) ;
     2559     7602    1   DCL 1 WACLSSTR BASED(HDR$) ALIGNED ,
     2560     7603                  %KV$VDO_CLSSTR (LVL=2) ;
     2561     7646    1   DCL 1 WABLKDAT BASED(HDR$) ALIGNED ,
PL6.E3A0      #011=KIA$VDO File=KIA$APPLC.:E05TSI                                WED 07/30/97 00:37 Page:476
     2562     7647                  %KV$VDO_BLKDAT (LVL=2) ;
     2563     7690    1   DCL BIT2BSD BIT(2) BASED UNAL ;
     2564     7691    1   DCL UBN3BSD UBIN(3) BASED UNAL;
     2565     7692    1   DCL CHR12BSD CHAR(12) CALIGNED BASED;
     2566     7693    1   DCL BT36 BIT(36) BASED UNAL    ;
     2567     7694    1   DCL CHR4BSD CHAR(4) BASED CALIGNED;
     2568     7695    1   DCL 1 SOURCE BASED(GLOM.OP6$) UNAL ,
     2569     7696    1         2 BY1 UBIN(8) UNAL,
     2570     7697    1         2 BY2 UBIN(8) UNAL,
     2571     7698    1         2 BY3 UBIN(8) UNAL,
     2572     7699    1         2 BY4 UBIN(8) UNAL;
     2573     7700    1   DCL 1 DEST BASED(HDR$) CALIGNED ,
     2574     7701    1         2 * BIT(1) UNAL , 2 BY1 UBIN(8) UNAL ,
     2575     7702    1         2 * BIT(1) UNAL , 2 BY2 UBIN(8) UNAL ,
     2576     7703    1         2 * BIT(1) UNAL , 2 BY3 UBIN(8) UNAL ,
     2577     7704    1         2 * BIT(1) UNAL , 2 BY4 UBIN(8) UNAL ;
     2578     7705
     2579     7706    1   DCL CHRMSG CHAR(GLOM.TEMP5) BASED ;
     2580     7707    1   DCL 1 WADAT BASED(HDR$) ALIGNED,
     2581     7708                  %KV$VDO_DAT (LVL=2) ;
     2582     7753    1   DCL 1 WADCLFLD BASED(HDR$) ALIGNED ,
     2583     7754                  %KV$VDO_DCLFLD (LVL=2) ;
     2584     7880    1   DCL 1 WADCLSTR BASED(HDR$) ALIGNED ,
     2585     7881                  %KV$VDO_DCLSTR (LVL=2) ;
     2586     7924    1   DCL 1 WADLT BASED(HDR$) ALIGNED ,
     2587     7925                  %KV$VDO_DLT (LVL=2) ;
     2588     7970    1   DCL 1 WAERS BASED(HDR$) ALIGNED ,
     2589     7971                  %KV$VDO_ERS (LVL=2) ;
     2590     8014    1   DCL 1 WAOPNSTR BASED(HDR$) ALIGNED ,
     2591     8015                  %KV$VDO_OPNSTR (LVL=2) ;
     2592     8058    1   DCL 1 WARQSDAT BASED(HDR$) ALIGNED ,
     2593     8059                  %KV$VDO_RQSDAT (LVL=2) ;
     2594     8107    1   DCL 1 WARQSPRM BASED(HDR$) ALIGNED ,
     2595     8108                  %KV$VDO_RQSPRM (LVL=2) ;
     2596     8151    1   DCL 1 WASLCGRPRND BASED(HDR$) ALIGNED ,
     2597     8152                  %KV$VDO_SLCGRPRND (LVL=2) ;
     2598     8234    1   DCL 1 WASLCQLF BASED(HDR$) ALIGNED ,
PL6.E3A0      #011=KIA$VDO File=KIA$APPLC.:E05TSI                                WED 07/30/97 00:37 Page:477
     2599     8235                  %KV$VDO_SLCQLF (LVL=2) ;
     2600     8320    1   DCL KIA$9TO8 ENTRY(3);
     2601     8321    1   DCL EMR$HOST2FEP ENTRY(2);
     2602     8322    1   DCL HFF$TRAPALT ENTRY ALTRET;
     2603     8323    1   DCL SC_BADVDOFNC ENTRY CONV(2,0);
     2604     8324
     2605     8325
     2606     8326        /* Constant */
     2607     8327        /* This table translates VFC to the proper PRMID for VDH */
     2608     8328    1   DCL 1 TRAN_PRMID(0:15) UBIN BYTE CONSTANT UNAL INIT(0,
     2609     8329    1                         %KV_PRMID_OTPTAB, /* VFCS_OTAB                          */
     2610     8330    1                                      0,   /* VFCS_SEQN                          */
     2611     8331    1                         %KV_PRMID_INPTAB, /* VFCS_ITAB                          */
     2612     8332    1                                      0,   /* VFCS_SPRM                          */
     2613     8333    1                                      0,   /* VFCS_SPRO                          */
     2614     8334    1                      %KV_PRMID_EDTBFR,    /* %VFC_SLLN                          */
     2615     8335    1                      %KV_PRMID_REREADCLM, /* VFCS_SLLP                          */
     2616     8336    1                         %KV_PRMID_DCBHDR, /* VFCS_SHDR                          */
     2617     8337    1                                      0,   /* VFCS_SLPP                          */
     2618     8338    1                                      0,   /* VFCS_SPND                          */
     2619     8339    1                            0,             /* VFCS_SVFU                          */
     2620     8340    1                                      0,   /* VFCS_SLCHN                         */
     2621     8341    1                                      0,   /* VFCS_CLRWND                        */
     2622     8342    1                                      0,   /* VFCS_TRS0                          */
     2623     8343    1                                      0);  /* VFCS_TRS1                          */
     2624     8344        %EJECT;
PL6.E3A0      #011=KIA$VDO File=KIA$APPLC.:E05TSI                                WED 07/30/97 00:37 Page:478
     2625     8345
     2626     8346
     2627     8347
     2628     8348    1           HDR$ = ADDR(HDR);
     2629     8349    1           IF FUNCTION > %KV_VDO_FNC_HI
     2630     8350    2             THEN DO;
     2631     8351    2               CALL SC_BADVDOFNC;
     2632     8352    2               RETURN;
     2633     8353    2               END;
     2634     8354    1           VDOSZ = KI_VDOBYTSIZ(FUNCTION);
     2635     8355    1           HDR$->VDO = '0'B;
     2636     8356    1           WAVDO.KV$VDO.FNC = FUNCTION;
     2637     8357
     2638     8358    1           WAVDO.KV$VDO.STR = K$RWPARM.STR;
     2639     8359    1           IF K$RWPARM.MSG$ = ADDR(NIL)
     2640     8360    1             THEN
     2641     8361    1               MSGSZ = 0;
     2642     8362    2             ELSE DO;
     2643     8363    2               IF K$RWPARM.DVE.DVBYTE.BIN
     2644     8364    2                 THEN
     2645     8365    2                   K$RWPARM.MSGSZ = (K$RWPARM.MSGSZ * 9 + 7) / 8;
     2646     8366    2               MSGSZ = K$RWPARM.MSGSZ;
     2647     8367    2               END;
     2648     8368
     2649     8369    2           DO CASE (FUNCTION);
     2650     8370
     2651     8371    2             CASE (%KV_VDO_FNC_BLKDAT);
     2652     8372    2               GLOM.TEMP0 = K$RWPARM.MAXRCRBYTSIZ ;
     2653     8373    2               WABLKDAT.KV$VDO_BLKDAT.RCRBYTSIZ = GLOM.TEMP0+GLOM.TEMP0/256*256;
     2654     8374    2               WABLKDAT.KV$VDO_BLKDAT.RSN = K$RWPARM.RSN;
     2655     8375
     2656     8376    2             CASE (%KV_VDO_FNC_CLSSTR);
     2657     8377    2               ADDR(WACLSSTR.KV$VDO_CLSSTR.DLT)->BIT2BSD = ADDR(K$RWPARM.VDOFLGS.DLTSTR
              8377                        )->BIT2BSD;
     2658     8378
     2659     8379    2             CASE (%KV_VDO_FNC_DCLFLD);
     2660     8380    2               LHDR$ = K$RWPARM.V$ ;
PL6.E3A0      #011=KIA$VDO File=KIA$APPLC.:E05TSI                                WED 07/30/97 00:37 Page:479
     2661     8381    2               WADCLFLD.KV$VDO_DCLFLD.LIN = LHDR$->FPT$DCLFLD_V.LIN;
     2662     8382    2               WADCLFLD.KV$VDO_DCLFLD.CLM = LHDR$->FPT$DCLFLD_V.CLM;
     2663     8383    2               WADCLFLD.KV$VDO_DCLFLD.WDT = LHDR$->FPT$DCLFLD_V.WDT;
     2664     8384    2               TEMP1 = LHDR$->FPT$DCLFLD_V.ID;
     2665     8385    2               WADCLFLD.KV$VDO_DCLFLD.ID = TEMP1+TEMP1/256*256;
     2666     8386    2               IF VLP$FLDATR.ABSGRPRND ~= 0
     2667     8387    3                 THEN DO;
     2668     8388    3                   WADCLFLD.KV$VDO_DCLFLD.GRPRND = BINBIT(VLP$FLDATR.ABSGRPRND,SIZEB(
              8388                            KV$VDO_DCLFLD.GRPRND));
     2669     8389    3                   WADCLFLD.KV$VDO_DCLFLD.GRPRND.ABS = '1'B;
     2670     8390    3                   END;
     2671     8391    2                 ELSE
     2672     8392    2                   WADCLFLD.KV$VDO_DCLFLD.GRPRND = VLP$FLDATR.GRPRND;
     2673     8393    2               WADCLFLD.KV$VDO_DCLFLD.QLF = VLP$FLDATR.QLF;
     2674     8394
     2675     8395    2             CASE (%KV_VDO_FNC_DCLSTR);
     2676     8396    2               WADCLSTR.KV$VDO_DCLSTR.STRID = K$RWPARM.STRID;
     2677     8397    2               WADCLSTR.KV$VDO_DCLSTR.RE_STR = K$RWPARM.VDOFLGS.REDSTR;
     2678     8398
     2679     8399    2             CASE (%KV_VDO_FNC_DAT,%KV_VDO_FNC_DAT_IMD);
     2680     8400    2               WADAT.KV$VDO_DAT.DATCTRCHRTYP = %KV_DATCTRCHRTYP_VFC;
     2681     8401    2               WADAT.KV$VDO_DAT.DATCTRCHR = K$RWPARM.DVE.VFC;
     2682     8402    2               WADAT.KV$VDO_DAT.DCBHDR = K$RWPARM.DVE.DVBYTE.DCBHDR;
     2683     8403    2               IF K$RWPARM.DVE.DVBYTE.TRANS
     2684     8404    2                 THEN
     2685     8405    2                   WADAT.KV$VDO_DAT.DATMOD = %KV_DATMOD_TRN;
     2686     8406
     2687     8407    2             CASE (%KV_VDO_FNC_DLT);
     2688     8408    2               WADLT.KV$VDO_DLT.CTLFLG = FPT$TRMPRG_V.CTLFLG;
     2689     8409
     2690     8410    2             CASE (%KV_VDO_FNC_ERS);
     2691     8411    2               ADDR(WAERS.KV$VDO_ERS.PRT)->BIT2BSD =
     2692     8412    2                 ADDR(FPT$ERASE_V.PRT)->BIT2BSD;
     2693     8413
     2694     8414    2             CASE (%KV_VDO_FNC_OPNSTR);
     2695     8415    2               WAOPNSTR.KV$VDO_OPNSTR.ORG = K$RWPARM.ORG;
     2696     8416    2               WAOPNSTR.KV$VDO_OPNSTR.NRECS = K$RWPARM.NRECS;
PL6.E3A0      #011=KIA$VDO File=KIA$APPLC.:E05TSI                                WED 07/30/97 00:37 Page:480
     2697     8417    2               WAOPNSTR.KV$VDO_OPNSTR.KEYL = K$RWPARM.KEYSZ;
     2698     8418    2               WAOPNSTR.KV$VDO_OPNSTR.SPARE = K$RWPARM.SPARE;
     2699     8419
     2700     8420    2             CASE (%KV_VDO_FNC_PRM_SET);
     2701     8421    2               IF K$RWPARM.V$~=ADDR(NIL)
     2702     8422    2                 THEN
     2703     8423    2                   MSGSZ = MSGSZ+K$RWPARM.VSZ;
     2704     8424    2               IF K$RWPARM.PRMID=0 AND K$RWPARM.DVE.DVBYTE.VFC
     2705     8425    2                 AND ADDR(K$RWPARM.DVE.VFC)->NK$VFC.FCN = %VFCF_SPC
     2706     8426    2                 THEN
     2707     8427    2                   K$RWPARM.PRMID = TRAN_PRMID(ADDR(K$RWPARM.DVE.VFC)->NK$VFC.COUNT);
     2708     8428    2               IF K$RWPARM.PRMID ~= 0
     2709     8429    3                 THEN DO;
     2710     8430    3                   IF K$RWPARM.PRMID = %KV_PRMID_EDTBFR
     2711     8431    3                     THEN
     2712     8432    3                       MSGSZ = MSGSZ + LENGTHC(SIN);
     2713     8433    3                   IF K$RWPARM.PRMID = %KV_PRMID_REREADCLM
     2714     8434    3                     THEN
     2715     8435    3                       MSGSZ = MSGSZ + LENGTHV(SIN);
     2716     8436    3                   IF MSGSZ>255 THEN MSGSZ = MSGSZ+2;
     2717     8437    3                   MSGSZ = MSGSZ + 2;
     2718     8438    3                   END;
     2719     8439
     2720     8440    2             CASE (%KV_VDO_FNC_RQSDAT);
     2721     8441    2               WARQSDAT.KV$VDO_RQSDAT.WAT = K$RWPARM.VDOFLGS.WAIT;
     2722     8442    2               WARQSDAT.KV$VDO_RQSDAT.INCMAXNMBRCR = K$RWPARM.VDOFLGS.INCNMBRCR;
     2723     8443    2               WARQSDAT.KV$VDO_RQSDAT.RE_RED = K$RWPARM.DVE.DVBYTE.REREAD;
     2724     8444    2               WARQSDAT.KV$VDO_RQSDAT.EOFNO_DAT = K$RWPARM.DVE.DVBYTE.NODAT;
     2725     8445    2               WARQSDAT.KV$VDO_RQSDAT.BP = K$RWPARM.DVE.DVBYTE.BP;
     2726     8446    2               IF K$RWPARM.DVE.DVBYTE.TRANS
     2727     8447    2                 THEN
     2728     8448    2                   WARQSDAT.KV$VDO_RQSDAT.DATMOD = %KV_DATMOD_TRN;
     2729     8449    2               WARQSDAT.KV$VDO_RQSDAT.MAXNMBRCR = K$RWPARM.MAXNMBRCR;
     2730     8450    2               GLOM.TEMP0 = K$RWPARM.MAXNMBBYT ;
     2731     8451    2               WARQSDAT.KV$VDO_RQSDAT.MAXNMBBYT = GLOM.TEMP0+GLOM.TEMP0/256*256;
     2732     8452    2               GLOM.TEMP0 = K$RWPARM.MAXRCRBYTSIZ ;
     2733     8453    2               WARQSDAT.KV$VDO_RQSDAT.MAXRCRBYTSIZ = GLOM.TEMP0+GLOM.TEMP0/256*256;
PL6.E3A0      #011=KIA$VDO File=KIA$APPLC.:E05TSI                                WED 07/30/97 00:37 Page:481
     2734     8454
     2735     8455    2             CASE (%KV_VDO_FNC_RQSPRM);
     2736     8456    2               WARQSPRM.KV$VDO_RQSPRM.PRMID = K$RWPARM.PRMID;
     2737     8457    2               GLOM.TEMP0 = K$RWPARM.MAXRCRBYTSIZ ;
     2738     8458    2               WARQSPRM.KV$VDO_RQSPRM.MAXNMBBYT = GLOM.TEMP0+GLOM.TEMP0/256*256;
     2739     8459
     2740     8460    2             CASE (%KV_VDO_FNC_SLCGRPRND);
     2741     8461    2               IF VLP$FLDATR.ABSGRPRND ~= 0
     2742     8462    3                 THEN DO;
     2743     8463    3                   WASLCGRPRND.KV$VDO_SLCGRPRND.GRPRND = BINBIT(VLP$FLDATR.ABSGRPRND,
              8463                            SIZEB(KV$VDO_SLCGRPRND.GRPRND));
     2744     8464    3                   WASLCGRPRND.KV$VDO_SLCGRPRND.GRPRND.ABS = '1'B;
     2745     8465    3                   END;
     2746     8466    2                 ELSE
     2747     8467    2                   WASLCGRPRND.KV$VDO_SLCGRPRND.GRPRND = VLP$FLDATR.GRPRND;
     2748     8468
     2749     8469    2             CASE (%KV_VDO_FNC_SLCQLF);
     2750     8470    2               WASLCQLF.KV$VDO_SLCQLF.QLF = VLP$FLDATR.QLF;
     2751     8471
     2752     8472    2             END /* CASES */;
     2753     8473
     2754     8474    1           LHDR$ = HDR$;
     2755     8475    1           HDR$ = PINCRC(HDR$,VDOSZ);
     2756     8476    1           IF K$RWPARM.MSGID ~= 0
     2757     8477    2             THEN DO;
     2758     8478    2               GLOM.TEMP0 = K$RWPARM.MSGID ;
     2759     8479    2               GLOM.FLDID = ADDR(KI_VDOVLP_CG_MSGID)->BT36;
     2760     8480    2               GLOM.TEMP4 = K$RWPARM.MSGIDXT;
     2761     8481    2               GLOM.TEMP3.BY1 = GLOM.TEMP2.B1;
     2762     8482    2               GLOM.TEMP3.BY2 = GLOM.TEMP2.B2 ;
     2763     8483    2               GLOM.TEMP3.BY3 = GLOM.TEMP2.B3 ;
     2764     8484    2               GLOM.TEMP3.BY4 = GLOM.TEMP2.B4 ;
     2765     8485    2               ADDR(HDR$->KV$VDOVLP_CG_MSGID)->CHR12BSD = ADDR(GLOM)->CHR12BSD ;
     2766     8486
     2767     8487    2               LHDR$ = HDR$;
     2768     8488    2               HDR$ = PINCRC(HDR$,SIZEC(KI_VDOVLP_CG_MSGID));
     2769     8489    2               END;
PL6.E3A0      #011=KIA$VDO File=KIA$APPLC.:E05TSI                                WED 07/30/97 00:37 Page:482
     2770     8490        /* CG message type */
     2771     8491    1           IF K$RWPARM.MSGTYP ~= ' '
     2772     8492    2             THEN DO;
     2773     8493    2               ADDR(HDR$->KV$VDOVLP_CG_MSGTYP)->CHR4BSD = ADDR(KI_VDOVLP_CG_MSGTYP)->
              8493                        CHR4BSD;
     2774     8494    2               HDR$->KV$VDOVLP_CG_MSGTYP.CG_MSGTYP = K$RWPARM.MSGTYP;
     2775     8495    2               LHDR$ = HDR$;
     2776     8496    2               HDR$ = PINCRC(HDR$,SIZEC(KI_VDOVLP_CG_MSGTYP));
     2777     8497    2               IF K$RWPARM.STATION ~= ' '
     2778     8498    3                 THEN DO;
     2779     8499    3                   ADDR(HDR$->KV$VDOVLP_CG_STA)->CHR4BSD = ADDR(KI_VDOVLP_CG_STA)->
              8499                            CHR4BSD;
     2780     8500    3                   HDR$->KV$VDOVLP_CG_STA.CG_STA = K$RWPARM.STATION;
     2781     8501    3                   LHDR$ = HDR$;
     2782     8502    3                   HDR$ = PINCRC(HDR$,SIZEC(KI_VDOVLP_CG_STA));
     2783     8503    3                   END;
     2784     8504    2               END;
     2785     8505    1           IF K$RWPARM.MSG_ERRCODE
     2786     8506    2             THEN DO;
     2787     8507    2               CALL EMR$HOST2FEP (GLOM.ERR,K$RWPARM.MSG_ERRCODE);
     2788     8508    2               HDR$->KV$VDOVLP_ERR = KI_VDOVLP_ERR;
     2789     8509    2               HDR$->KV$VDOVLP_ERR.ERRCODE = GLOM.ERR;
     2790     8510    2               LHDR$ = HDR$;
     2791     8511    2               HDR$ = PINCRC(HDR$,SIZEC(KI_VDOVLP_ERR));
     2792     8512    2               END;
     2793     8513    1           IF K$RWPARM.KEY$ ~= ADDR(NIL) AND K$RWPARM.KEYSZ ~= 0
     2794     8514    1             THEN
     2795     8515    1               IF K$RWPARM.KEYTYPE ~= %KEYTYPE_FLDID#
     2796     8516    2                 THEN DO;
     2797     8517    2                   IF K$RWPARM.KEYSZ>32 THEN EXIT;
     2798     8518    2                   HDR$->KV$VDOVLP_KEY = KI_VDOVLP_KEY;
     2799     8519    2                   HDR$->KV$VDOVLP_KEY.BYTSIZ = K$RWPARM.KEYSZ;
     2800     8520    2                   LHDR$ = HDR$;
     2801     8521    2                   HDR$ = PINCRC(HDR$,SIZEC(KI_VDOVLP_KEY));
     2802     8522    2                   GLOM.TEMP0 = K$RWPARM.KEYSZ ;
     2803     8523    2                   HDR$->KEY = K$RWPARM.KEY$->KEY;
     2804     8524    2                   IF GLOM.TEMP0 < 5 AND
PL6.E3A0      #011=KIA$VDO File=KIA$APPLC.:E05TSI                                WED 07/30/97 00:37 Page:483
     2805     8525    2                     (K$RWPARM.KEYTYPE=%KEYTYPE_BIN10#
     2806     8526    2                     OR K$RWPARM.KEYTYPE=%KEYTYPE_BINHLF#
     2807     8527    2                     OR K$RWPARM.KEYTYPE=%KEYTYPE_BIN521#)
     2808     8528    3                     THEN DO;
     2809     8529    3                       GLOM.OP6$ = PINCRB(HDR$,GLOM.TEMP0);
     2810     8530        /*     HDR$->KEY = ' ' ;    Hi order bits of each byte to '0'B */
     2811     8531    3                       DEST.BY1 = SOURCE.BY1 ;
     2812     8532    3                       IF GLOM.TEMP0 =1 THEN EXIT;
     2813     8533    3                       DEST.BY2 = SOURCE.BY2 ;
     2814     8534    3                       IF GLOM.TEMP0 =2 THEN EXIT;
     2815     8535    3                       DEST.BY3 = SOURCE.BY3 ;
     2816     8536    3                       IF GLOM.TEMP0 =3 THEN EXIT;
     2817     8537    3                       DEST.BY4 = SOURCE.BY4 ;
     2818     8538    3                       END;
     2819     8539    3                     ELSE DO;
     2820     8540    3                       K$RWPARM.CVTDAT = '0'B;
     2821     8541    3                       IF K$RWPARM.KEYTYPE=%KEYTYPE_ENTSRD#
     2822     8542    3                         THEN
     2823     8543    3                           LHDR$->KV$VDOVLP_KEY.TYP = %KV_VDOVLP_TYP_ENTSRD;
     2824     8544    3                       END;
     2825     8545    2   L1:
     2826     8546    2                   HDR$ = PINCRC(HDR$,((K$RWPARM.KEYSZ+1)/2)*2);
     2827     8547    2                   END;
     2828     8548    1                 ELSE
     2829     8549    1                   IF K$RWPARM.KEYSZ >= 2
     2830     8550    2                     THEN DO;
     2831     8551    2                       HDR$->KV$VDOVLP_FLDID = KI_VDOVLP_FLDID;
     2832     8552    2                       HDR$->KV$VDOVLP_FLDID.BYTSIZ = 2;
     2833     8553    2                       LHDR$ = HDR$;
     2834     8554    2                       GLOM.FLDID.IDC = K$RWPARM.KEY$->B$FLDID;
     2835     8555    2                       HDR$->KV$VDOVLP_FLDID.FLDID = GLOM.FLDID.ID+GLOM.FLDID.ID/256*
              8555                                256;
     2836     8556    2                       HDR$ = PINCRC(HDR$,SIZEC(KI_VDOVLP_FLDID));
     2837     8557    2                       END;
     2838     8558    1           IF K$RWPARM.MRKTYP ~= 0
     2839     8559    2             THEN DO;
     2840     8560    2               HDR$->VDOVLP_MRK = KI_VDOVLP_MRK;
PL6.E3A0      #011=KIA$VDO File=KIA$APPLC.:E05TSI                                WED 07/30/97 00:37 Page:484
     2841     8561    2               IF FUNCTION = %KV_VDO_FNC_MRK
     2842     8562    2                 THEN
     2843     8563    2                   HDR$->VDOVLP_MRK.RSP = '1'B;
     2844     8564    2               HDR$->VDOVLP_MRK.MRKTYP = K$RWPARM.MRKTYP;
     2845     8565    2               IF K$RWPARM.MRKTYP = %KV_VDOMRKTYP_SNDLSTRCRID
     2846     8566    3                 THEN DO;
     2847     8567    3                   GLOM.TEMP0 = K$RWPARM.BLKREC.BLKU# ;
     2848     8568    3                   HDR$->VDOVLP_MRK.BMRK.BLK# = GLOM.TEMP0+GLOM.TEMP0/256*256;
     2849     8569    3                   GLOM.TEMP0 = K$RWPARM.BLKREC.RECU# ;
     2850     8570    3                   HDR$->VDOVLP_MRK.BMRK.REC# = GLOM.TEMP0+GLOM.TEMP0/256*256;
     2851     8571    3                   HDR$->VDOVLP_MRK.BYTSIZ = SIZEC(K$RWPARM.BLKREC);
     2852     8572    3                   END;
     2853     8573    3                 ELSE DO;
     2854     8574    3                   HDR$->VDOVLP_MRK.ID = K$RWPARM.MARKER;
     2855     8575    3                   HDR$->VDOVLP_MRK.BYTSIZ = SIZEC(HDR$->VDOVLP_MRK.ID);
     2856     8576    3                   END;
     2857     8577    2               LHDR$ = HDR$;
     2858     8578    2               HDR$ = PINCRC(HDR$,SIZEC(KI_VDOVLP_MRK));
     2859     8579    2               END;
     2860     8580        %EJECT;
PL6.E3A0      #011=KIA$VDO File=KIA$APPLC.:E05TSI                                WED 07/30/97 00:37 Page:485
     2861     8581    1           IF (FUNCTION = %KV_VDO_FNC_DAT OR FUNCTION = %KV_VDO_FNC_DAT_IMD
     2862     8582    1             OR FUNCTION = %KV_VDO_FNC_STT)
     2863     8583    1             AND NOT K$RWPARM.DVE.DVBYTE.BP AND NOT K$RWPARM.DVE.DVBYTE.TRANS
     2864     8584    1             AND NOT K$RWPARM.DVE.DVBYTE.BIN
     2865     8585    1             AND K$RWPARM.MSG$ ~= ADDR(NIL)
     2866     8586    2             THEN DO;
     2867     8587    2               IF MSGSZ = 0 THEN GOTO BPEND2;
     2868     8588    2               CALL HFF$TRAPALT ALTRET( BAD_BUFFER);
     2869     8589    2               IF MSGSZ > 7
     2870     8590    3                 THEN DO;
     2871     8591        /*
     2872     8592                         This strange code is due to a problem with the
     2873     8593                         implementation of the TCTR instruction which faults
     2874     8594                         when accessing the first doubleword of a segment
     2875     8595                         which is not doubleword aligned. The TCTR instruction
     2876     8596                         is used for all of the data back to the first seven
     2877     8597                         bytes.  If a non-blank has not been found, the first
     2878     8598                         seven bytes are examined one byte at a time.
     2879     8599        */
     2880     8600    3                   GLOM.TEMP5 = MSGSZ - 7;
     2881     8601    3                   CALL SEARCHR (MSGSZ , GLOM.TEMP5 , NK_BLNKSUPTBL ,
     2882     8602    3                     PINCRC(K$RWPARM.MSG$,7)->CHRMSG) ALTRET(BPALLBLANK);
     2883     8603    3                   MSGSZ = MSGSZ + 8;
     2884     8604    3                   GOTO BPEND;
     2885     8605    3   BPALLBLANK:     MSGSZ = 7;
     2886     8606    3                   END;
     2887     8607    2   BPLOOPER:   IF PINCRC (K$RWPARM.MSG$ , MSGSZ-1) -> B$CHAR = ' '
     2888     8608    3                 THEN DO;
     2889     8609    3                   MSGSZ = MSGSZ - 1;
     2890     8610    3                   IF MSGSZ ~= 0 THEN GOTO BPLOOPER;
     2891     8611    3                   END;
     2892     8612    2   BPEND:
     2893     8613    2               CALL HFF$TRAPALT;           /* Don't trap bad buffer anymore      */
     2894     8614    2   BPEND2:
     2895     8615    2               K$RWPARM.MSGSZ = MSGSZ;
     2896     8616    2               END;
     2897     8617        %EJECT;
PL6.E3A0      #011=KIA$VDO File=KIA$APPLC.:E05TSI                                WED 07/30/97 00:37 Page:486
     2898     8618
     2899     8619    1           IF MSGSZ > 0
     2900     8620    2             THEN DO;
     2901     8621    2               LHDR$ = HDR$;
     2902     8622    2               IF MSGSZ > 255
     2903     8623    3                 THEN DO;
     2904     8624    3                   HDR$->KV$VDOVLP_DAT2 = KI_VDOVLP_DAT2;
     2905     8625    3                   HDR$->KV$VDOVLP_DAT2.BYTSIZ = MSGSZ+MSGSZ/256*256;
     2906     8626    3                   HDR$ = PINCRC (HDR$,SIZEC(KI_VDOVLP_DAT2));
     2907     8627    3                   END;
     2908     8628    3                 ELSE DO;
     2909     8629    3                   HDR$->KV$VDOVLP_DAT1 = KI_VDOVLP_DAT1;
     2910     8630    3                   HDR$->KV$VDOVLP_DAT1.BYTSIZ = MSGSZ;
     2911     8631    3                   HDR$ = PINCRC (HDR$,SIZEC(KI_VDOVLP_DAT1));
     2912     8632    3                   IF K$RWPARM.CVTDAT AND MSGSZ=K$RWPARM.KEYSZ
     2913     8633    4                     THEN DO;
     2914     8634    4                       SUBSTR(ADDR(K$RWPARM.VLP$)->B$CHAR,0,MSGSZ)
     2915     8635    4                         = SUBSTR(K$RWPARM.MSG$->B$CHAR,0,MSGSZ);
     2916     8636    4                       K$RWPARM.MSG$ = ADDR(K$RWPARM.VLP$);
     2917     8637    4                       K$RWPARM.CVTDAT = '0'B;
     2918     8638    4                       CALL KIA$9TO8 (K$RWPARM.VLP$, K$RWPARM.VLP$, MSGSZ);
     2919     8639    4                       END;
     2920     8640    3                   END;
     2921     8641    2               END;
     2922     8642    1           IF LHDR$ ~= ADDR(HDR)           /* vlps                               */
     2923     8643    2             THEN DO;
     2924     8644    2               ADDR(HDR)->KV$VDO.VLP = '1'B;
     2925     8645    2               LHDR$->KV$VDOVLP.LST = '1'B;
     2926     8646    2               END;
     2927     8647
     2928     8648        /* If this is a PRM_SET then create the TL structure if needed */
     2929     8649    1           IF FUNCTION = %KV_VDO_FNC_PRM_SET
     2930     8650    2             THEN DO;
     2931     8651    2               IF K$RWPARM.PRMID ~= 0
     2932     8652    3                 THEN DO;
     2933     8653    3                   TL.PRMID = K$RWPARM.PRMID;
     2934     8654    3                   IF K$RWPARM.PRMID = %KV_PRMID_EDTBFR OR K$RWPARM.PRMID = %
PL6.E3A0      #011=KIA$VDO File=KIA$APPLC.:E05TSI                                WED 07/30/97 00:37 Page:487
              8654                            KV_PRMID_REREADCLM
     2935     8655    4                     THEN DO;
     2936     8656    4                       VDOSZ = 0;          /* Flag to remember by                */
     2937     8657    4                       TL.PRMID = %KV_PRMID_SINPUT;
     2938     8658    4                       END;
     2939     8659    3                   MSGSZ = MSGSZ-2;
     2940     8660    3                   IF MSGSZ < 256
     2941     8661    4                     THEN DO;
     2942     8662    4                       TL.LENGTH = MSGSZ;
     2943     8663    4                       HDR$ = PINCRC(HDR$,LENGTHC(TL));
     2944     8664    4                       END;
     2945     8665    4                     ELSE DO;
     2946     8666    4                       MSGSZ = MSGSZ-2;
     2947     8667    4                       TL.LENGTH = TL.PRMID;
     2948     8668    4                       TL.PRMID = %KV_PRMID_BIGTL;
     2949     8669    4                       PINCRC(HDR$,LENGTHC(TL))->TL.PRMID = MSGSZ/256;
     2950     8670    4                       PINCRC(HDR$,LENGTHC(TL))->TL.LENGTH = MOD(MSGSZ,256);
     2951     8671    4                       HDR$ = PINCRC(HDR$,LENGTHC(TL)*2);
     2952     8672    4                       END;
     2953     8673    3                   IF VDOSZ = 0
     2954     8674    4                     THEN DO;
     2955     8675    4                       SIN.STR = K$RWPARM.STR;
     2956     8676    4                       SIN.FIL = '0'B;
     2957     8677    4                       HDR$ = PINCRC(HDR$,LENGTHV(SIN));
     2958     8678    4                       IF K$RWPARM.PRMID = %KV_PRMID_EDTBFR
     2959     8679    4                         THEN
     2960     8680    4                           HDR$ = PINCRC(HDR$,1);
     2961     8681    4                       END;
     2962     8682    3                   END;
     2963     8683    2               IF K$RWPARM.V$~=ADDR(NIL)
     2964     8684    3                 THEN DO;
     2965     8685    3                   SUBSTR(HDR$->B$CHAR,0,K$RWPARM.VSZ) =
     2966     8686    3                     SUBSTR(K$RWPARM.V$->B$CHAR,0,K$RWPARM.VSZ);
     2967     8687    3                   HDR$ = PINCRC(HDR$,K$RWPARM.VSZ);
     2968     8688    3                   END;
     2969     8689
     2970     8690    2               END;
PL6.E3A0      #011=KIA$VDO File=KIA$APPLC.:E05TSI                                WED 07/30/97 00:37 Page:488
     2971     8691
     2972     8692    1           K$RWPARM.UHDR$ = ADDR(HDR);
     2973     8693    1           K$RWPARM.UHDRSZ = POFFC(HDR$,ADDR(HDR));
     2974     8694    1           RETURN;
     2975     8695    1   BAD_BUFFER:
     2976     8696    1           CALL HFF$TRAPALT;               /* Don't trap bad buffer anymore      */
     2977     8697    1           K$RWPARM.ERR = %K$BAD_BUFFER;
     2978     8698    1           ALTRETURN;
     2979     8699
     2980     8700    1   END KIA$VDO;
     2981     8701        %EOD;

PL6.E3A0      #011=KIA$VDO File=KIA$APPLC.:E05TSI                                WED 07/30/97 00:37 Page:489
--  Include file information  --

   K_CP6_M.:E05TOU  is referenced.
   UM_CP6.:E05TOU  is referenced.
   KV_PRMID_E.:E05TOU  is referenced.
   NK_VFC_C.:E05TOU  is referenced.
   NK$LDCT.:E05TOU  is referenced.
   KI_DATA_R.:E05TOU  cannot be made into a system file and is referenced.
   K_SUBS_C.:E05TOU  is referenced.
   K$RWPARM.:E05TOU  is referenced.
   K_DATA_R.:E05TOU  cannot be made into a system file and is referenced.
   KV$VDO.:E05TOU  is referenced.
   KI$CP6V_C.:E05TOU  is referenced.
   CP_6_SUBS.:E05TOU  is referenced.
      No diagnostics issued in procedure KIA$VDO.

   Procedure KIA$VDO requires 831 words for executable code.
   Procedure KIA$VDO requires 42 words of local(AUTO) storage.

PL6.E3A0      #011=KIA$VDO File=KIA$APPLC.:E05TSI                                WED 07/30/97 00:37 Page:490

 Object Unit name= KIA$VDO                                    File name= KIA$APPLC.:E05TOU
 UTS= JUL 30 '97 00:37:53.32 WED                              Compiler= PL-6/E31         Sev=      00
 SharedLib= :SHARED_SYSTEM                                    Alt SharedLib=


    ****  Control sections  ****

 Sect   Type Bound  Init  Size OctSiz  Section name(segment info)
    0  RoData even  UTS      4      4  KIA$VDO
    1   Proc  even  none   831   1477  KIA$VDO
    2  RoData even  none     9     11  KIA$VDO

    ****  Entry defs  ****

                              Check   Calling
                             calling  sequence
  Sect OctLoc Primary Altret sequence   type   Parms  Name
     1      0   yes    yes     yes      Std        3  KIA$VDO

  ****  Entry refs  ****

         Check        Calling
        calling       sequence
Altret sequence SRef   type   Args  Name
 yes     yes           Std       0 HFF$TRAPALT
         yes           Std       3 KIA$9TO8
         yes           Std       2 EMR$HOST2FEP
                       nStd      0 X66_AUTO_3
                       nStd      0 X66_ARET
                       Std       0 B_CONSPOOL_D
                       nStd      0 X66_AALT
PL6.E3A0      #011=KIA$VDO File=KIA$APPLC.:E05TSI                                WED 07/30/97 00:37 Page:491

  ****  Data refs  ****

  Flags:  r = read only, s = secondary
Flgs Name                             Flgs Name                             Flgs Name
     SC_BADVDOFNC                          KI_FEI$$                              NK_BLNKSUPTBL
     KI_VDOVLP_CG_MSGID                    KI_VDOVLP_CG_MSGTYP                   KI_VDOVLP_CG_STA
     KI_VDOVLP_DAT1                        KI_VDOVLP_DAT2                        KI_VDOVLP_ERR
     KI_VDOVLP_FLDID                       KI_VDOVLP_KEY                         KI_VDOVLP_MRK
     KI_VDOBYTSIZ                          B_VECTNIL

  ****  Segment refs  ****

  Flags:  r = read only, s = secondary
Flgs Name                             Flgs Name                             Flgs Name
     ASLENTSID
PL6.E3A0      #011=KIA$VDO File=KIA$APPLC.:E05TSI                                WED 07/30/97 00:37 Page:492


     2451        1        /*T***********************************************************/
     2452        2        /*T*                                                         */
     2453        3        /*T* Copyright (c) Bull HN Information Systems Inc., 1997    */
     2454        4        /*T*                                                         */
     2455        5        /*T***********************************************************/
     2456        6        KIA$VDO: PROC(FUNCTION,K$RWPARM,HDR) ALTRET;

      6  1 000000   000000 700200 xent  KIA$VDO      TSX0  ! X66_AUTO_3
         1 000001   000052 000003                    ZERO    42,3

     2457        7
     2458        8        %INCLUDE CP_6_SUBS;
     2459      548        %INCLUDE KI$CP6V_C;
     2460      987        %INCLUDE KV$VDO;
     2461     2002        %INCLUDE K_DATA_R;
     2462     2713        %INCLUDE K_SUBS_C;
     2463     2746        %INCLUDE KI_DATA_R;
     2464     2772        %INCLUDE NK$LDCT;
     2465     2874        %INCLUDE NK_VFC_C;
     2466     2948        %INCLUDE KV_PRMID_E;
     2467     3122        %KV_PRMID_E;
     2468     3278        %INCLUDE UM_CP6;
     2469     4130        %INCLUDE K_CP6_M;
     2470     4326
     2471     4327        /* Parameters */
     2472     4328    1   DCL FUNCTION UBIN;
     2473     4329        %NK$LDCT (STCLASS="");
     2474     4375        %K$RWPARM (NAME=K$RWPARM);
     2475     4691    1   DCL HDR CHAR(100);
     2476     4692
     2477     4693        /* Based structures */
     2478     4694    1   DCL B$UHDR CHAR(K$RWPARM.UHDRSZ) BASED;
     2479     4695    1   DCL 1 TL BASED(HDR$) CALIGNED,
     2480     4696    1         2 PRMID UBIN BYTE UNAL,
     2481     4697    1         2 LENGTH UBIN BYTE UNAL;
     2482     4698    1   DCL 1 SIN BASED(HDR$) CALIGNED,
PL6.E3A0      #011=KIA$VDO File=KIA$APPLC.:E05TSI                                WED 07/30/97 00:37 Page:493
     2483     4699    1         2 STR UBIN BYTE CALIGNED,
     2484     4700    1         2 FIL,
     2485     4701    1           3 CLM BIT(18),
     2486     4702    1           3 * BIT(9);
     2487     4703        %NK$VFC;
     2488     4721        %KV_VDO_ALL;
     2489     6863        %KV$VDOVLP_MRK (NAME=VDOVLP_MRK,STCLASS=BASED,LAST=",");
     2490     6916    1         2 BMRK REDEF ID,
     2491     6917    1           3 BLK# UBIN (18) UNAL,
     2492     6918    1           3 REC# UBIN (18) UNAL;
     2493     6919    1   DCL 1 VDO BASED,
     2494     6920    1         2 * CHAR(VDOSZ);
     2495     6921    1   DCL B$FLDID CHAR(2) UNAL BASED;
     2496     6922    1   DCL KEY CHAR(K$RWPARM.KEYSZ) BASED;
     2497     6923        %FPT$DCLFLD_V(BASED="BASED(K$RWPARM.V$)");
     2498     6943        %FPT$ERASE_V(BASED="BASED(K$RWPARM.V$)");
     2499     6959        %FPT$MDFFLD_V(BASED="BASED(K$RWPARM.V$)");
     2500     6975        %FPT$TRMPRG_V(BASED="BASED(K$RWPARM.V$)");
     2501     6987        %VLP$FLDATR_V(FPTN=VLP$FLDATR,BASED="BASED(K$RWPARM.VLP$)");
     2502     7004        /* Auto */
     2503     7005    1   DCL HDR$ PTR;
     2504     7006    1   DCL 1 HDRA REDEF HDR$,
     2505     7007    1         2 * BIT(18) UNAL,
     2506     7008    1         2 NHWA BIT(1) UNAL ,
     2507     7009    1         2 * BIT(17) UNAL;
     2508     7010
     2509     7011    1   DCL LHDR$ PTR;
     2510     7012    1   DCL TEMP1 REDEF LHDR$ UBIN WORD ;
     2511     7013    1   DCL TEMP1S REDEF LHDR$ SBIN WORD ;
     2512     7014    1   DCL VDOSZ UBIN;
     2513     7015    1   DCL 1 GLOM ,
     2514     7016    1         2 FLDID,
     2515     7017    1           3 FILLER UBIN HALF HALIGNED,
     2516     7018    1           3 ID UBIN HALF HALIGNED,
     2517     7019    1           3 IDC REDEF ID CHAR(2),
     2518     7020    1         2 OP6$ REDEF FLDID PTR ,
     2519     7021    1         2 ERR BIT(36) ALIGNED,
PL6.E3A0      #011=KIA$VDO File=KIA$APPLC.:E05TSI                                WED 07/30/97 00:37 Page:494
     2520     7022    1         2 TEMP0 REDEF ERR UBIN WORD ,
     2521     7023    1         2 TEMP0S REDEF ERR SBIN WORD ,
     2522     7024    1         2 TEMP2 REDEF ERR,
     2523     7025    1           3 * BIT(4) UNAL,
     2524     7026    1           3 B1 UBIN(8) UNAL,
     2525     7027    1           3 B2 UBIN(8) UNAL ,
     2526     7028    1           3 B3 UBIN(8) UNAL ,
     2527     7029    1           3 B4 UBIN(8) UNAL ,
     2528     7030    1         2 TEMP3 REDEF ERR,
     2529     7031    1           3 BY1 UBIN(9) UNAL ,
     2530     7032    1           3 BY2 UBIN(9) UNAL ,
     2531     7033    1           3 BY3 UBIN(9) UNAL ,
     2532     7034    1           3 BY4 UBIN(9) UNAL ,
     2533     7035    1         2 OP$ PTR,
     2534     7036    1         2 TEMP5 REDEF OP$ UBIN,
     2535     7037    1         2 TEMP5S REDEF OP$ SBIN,
     2536     7038    1         2 TEMP4 REDEF OP$ BIT(36) ;
     2537     7039    1   DCL MSGSZ UBIN;
     2538     7040    1   DCL B$CHAR CHAR(1) BASED(GLOM.OP$) UNAL;
     2539     7041    1   DCL 1 SPREAD BASED UNAL ,
     2540     7042    1         2 HI UBIN(10) UNAL ,
     2541     7043    1         2 LO8 UBIN(8) UNAL ;
     2542     7044
     2543     7045        /* Refs */
     2544     7046    1   DCL NK_BLNKSUPTBL CHAR(512) DALIGNED SYMREF; /* Can NOT be B$SR_xxx
     2545     7047                                              because this runs at interrupt
     2546     7048                                              and there might not be a user mapped */
     2547     7049        %KV$VDOVLP_CG_MSGID (NAME=KI_VDOVLP_CG_MSGID,STCLASS=SYMREF);
     2548     7101        %KV$VDOVLP_CG_MSGTYP (NAME=KI_VDOVLP_CG_MSGTYP,STCLASS=SYMREF);
     2549     7153        %KV$VDOVLP_CG_STA (NAME=KI_VDOVLP_CG_STA,STCLASS=SYMREF);
     2550     7204        %KV$VDOVLP_DAT1 (NAME=KI_VDOVLP_DAT1,STCLASS=SYMREF);
     2551     7254        %KV$VDOVLP_DAT2 (NAME=KI_VDOVLP_DAT2,STCLASS=SYMREF);
     2552     7304        %KV$VDOVLP_ERR (NAME=KI_VDOVLP_ERR,STCLASS=SYMREF);
     2553     7400        %KV$VDOVLP_FLDID (NAME=KI_VDOVLP_FLDID,STCLASS=SYMREF);
     2554     7451        %KV$VDOVLP_KEY (NAME=KI_VDOVLP_KEY,STCLASS=SYMREF);
     2555     7501        %KV$VDOVLP_MRK (NAME=KI_VDOVLP_MRK,STCLASS=SYMREF);
     2556     7554        %KV_VDOBYTSIZ (NAME=KI_VDOBYTSIZ,STCLASS=SYMREF);
PL6.E3A0      #011=KIA$VDO File=KIA$APPLC.:E05TSI                                WED 07/30/97 00:37 Page:495
     2557     7574    1   DCL 1 WAVDO BASED(HDR$) ALIGNED ,
     2558     7575                 %KV$VDO (LVL=2) ;
     2559     7602    1   DCL 1 WACLSSTR BASED(HDR$) ALIGNED ,
     2560     7603                  %KV$VDO_CLSSTR (LVL=2) ;
     2561     7646    1   DCL 1 WABLKDAT BASED(HDR$) ALIGNED ,
     2562     7647                  %KV$VDO_BLKDAT (LVL=2) ;
     2563     7690    1   DCL BIT2BSD BIT(2) BASED UNAL ;
     2564     7691    1   DCL UBN3BSD UBIN(3) BASED UNAL;
     2565     7692    1   DCL CHR12BSD CHAR(12) CALIGNED BASED;
     2566     7693    1   DCL BT36 BIT(36) BASED UNAL    ;
     2567     7694    1   DCL CHR4BSD CHAR(4) BASED CALIGNED;
     2568     7695    1   DCL 1 SOURCE BASED(GLOM.OP6$) UNAL ,
     2569     7696    1         2 BY1 UBIN(8) UNAL,
     2570     7697    1         2 BY2 UBIN(8) UNAL,
     2571     7698    1         2 BY3 UBIN(8) UNAL,
     2572     7699    1         2 BY4 UBIN(8) UNAL;
     2573     7700    1   DCL 1 DEST BASED(HDR$) CALIGNED ,
     2574     7701    1         2 * BIT(1) UNAL , 2 BY1 UBIN(8) UNAL ,
     2575     7702    1         2 * BIT(1) UNAL , 2 BY2 UBIN(8) UNAL ,
     2576     7703    1         2 * BIT(1) UNAL , 2 BY3 UBIN(8) UNAL ,
     2577     7704    1         2 * BIT(1) UNAL , 2 BY4 UBIN(8) UNAL ;
     2578     7705
     2579     7706    1   DCL CHRMSG CHAR(GLOM.TEMP5) BASED ;
     2580     7707    1   DCL 1 WADAT BASED(HDR$) ALIGNED,
     2581     7708                  %KV$VDO_DAT (LVL=2) ;
     2582     7753    1   DCL 1 WADCLFLD BASED(HDR$) ALIGNED ,
     2583     7754                  %KV$VDO_DCLFLD (LVL=2) ;
     2584     7880    1   DCL 1 WADCLSTR BASED(HDR$) ALIGNED ,
     2585     7881                  %KV$VDO_DCLSTR (LVL=2) ;
     2586     7924    1   DCL 1 WADLT BASED(HDR$) ALIGNED ,
     2587     7925                  %KV$VDO_DLT (LVL=2) ;
     2588     7970    1   DCL 1 WAERS BASED(HDR$) ALIGNED ,
     2589     7971                  %KV$VDO_ERS (LVL=2) ;
     2590     8014    1   DCL 1 WAOPNSTR BASED(HDR$) ALIGNED ,
     2591     8015                  %KV$VDO_OPNSTR (LVL=2) ;
     2592     8058    1   DCL 1 WARQSDAT BASED(HDR$) ALIGNED ,
     2593     8059                  %KV$VDO_RQSDAT (LVL=2) ;
PL6.E3A0      #011=KIA$VDO File=KIA$APPLC.:E05TSI                                WED 07/30/97 00:37 Page:496
     2594     8107    1   DCL 1 WARQSPRM BASED(HDR$) ALIGNED ,
     2595     8108                  %KV$VDO_RQSPRM (LVL=2) ;
     2596     8151    1   DCL 1 WASLCGRPRND BASED(HDR$) ALIGNED ,
     2597     8152                  %KV$VDO_SLCGRPRND (LVL=2) ;
     2598     8234    1   DCL 1 WASLCQLF BASED(HDR$) ALIGNED ,
     2599     8235                  %KV$VDO_SLCQLF (LVL=2) ;
     2600     8320    1   DCL KIA$9TO8 ENTRY(3);
     2601     8321    1   DCL EMR$HOST2FEP ENTRY(2);
     2602     8322    1   DCL HFF$TRAPALT ENTRY ALTRET;
     2603     8323    1   DCL SC_BADVDOFNC ENTRY CONV(2,0);
     2604     8324
     2605     8325
     2606     8326        /* Constant */
     2607     8327        /* This table translates VFC to the proper PRMID for VDH */
     2608     8328    1   DCL 1 TRAN_PRMID(0:15) UBIN BYTE CONSTANT UNAL INIT(0,
     2609     8329    1                         %KV_PRMID_OTPTAB, /* VFCS_OTAB                          */
     2610     8330    1                                      0,   /* VFCS_SEQN                          */
     2611     8331    1                         %KV_PRMID_INPTAB, /* VFCS_ITAB                          */
     2612     8332    1                                      0,   /* VFCS_SPRM                          */
     2613     8333    1                                      0,   /* VFCS_SPRO                          */
     2614     8334    1                      %KV_PRMID_EDTBFR,    /* %VFC_SLLN                          */
     2615     8335    1                      %KV_PRMID_REREADCLM, /* VFCS_SLLP                          */
     2616     8336    1                         %KV_PRMID_DCBHDR, /* VFCS_SHDR                          */
     2617     8337    1                                      0,   /* VFCS_SLPP                          */
     2618     8338    1                                      0,   /* VFCS_SPND                          */
     2619     8339    1                            0,             /* VFCS_SVFU                          */
     2620     8340    1                                      0,   /* VFCS_SLCHN                         */
     2621     8341    1                                      0,   /* VFCS_CLRWND                        */
     2622     8342    1                                      0,   /* VFCS_TRS0                          */
     2623     8343    1                                      0);  /* VFCS_TRS1                          */
     2624     8344        %EJECT;
PL6.E3A0      #011=KIA$VDO File=KIA$APPLC.:E05TSI                                WED 07/30/97 00:37 Page:497
     2625     8345
     2626     8346
     2627     8347
     2628     8348    1           HDR$ = ADDR(HDR);

   8348  1 000002   200005 236100                    LDQ     @HDR,,AUTO
         1 000003   200036 756100                    STQ     HDR$,,AUTO

     2629     8349    1           IF FUNCTION > %KV_VDO_FNC_HI

   8349  1 000004   200003 470500                    LDP0    @FUNCTION,,AUTO
         1 000005   000000 235100                    LDA     0,,PR0
         1 000006   000043 115007                    CMPA    35,DL
         1 000007   000013 602000 1                  TNC     s:8354

     2630     8350    2             THEN DO;

     2631     8351    2               CALL SC_BADVDOFNC;

   8351  1 000010   000000 713400 xsym               CLIMB   SC_BADVDOFNC
         1 000011   000000 600000 xsid               climb   nvectors=         0

     2632     8352    2               RETURN;

   8352  1 000012   000000 702200 xent               TSX2  ! X66_ARET

     2633     8353    2               END;
     2634     8354    1           VDOSZ = KI_VDOBYTSIZ(FUNCTION);

   8354  1 000013   000100 101405                    MRL     fill='000'O
         1 000014   000000 000001 xsym               ADSC9   KI_VDOBYTSIZ,A           cn=0,n=1
         1 000015   200040 000004                    ADSC9   VDOSZ,,AUTO              cn=0,n=4

     2635     8355    1           HDR$->VDO = '0'B;

   8355  1 000016   200036 471500                    LDP1    HDR$,,AUTO
         1 000017   200040 720100                    LXL0    VDOSZ,,AUTO
PL6.E3A0      #011=KIA$VDO File=KIA$APPLC.:E05TSI                                WED 07/30/97 00:37 Page:498
         1 000020   000140 100400                    MLR     fill='000'O
         1 000021   000002 000001 xsym               ADSC9   B_VECTNIL+2              cn=0,n=1
         1 000022   100000 000010                    ADSC9   0,,PR1                   cn=0,n=*X0

     2636     8356    1           WAVDO.KV$VDO.FNC = FUNCTION;

   8356  1 000023   000000 236100                    LDQ     0,,PR0
         1 000024   000033 736000                    QLS     27
         1 000025   100000 552140                    STBQ    0,'40'O,PR1

     2637     8357
     2638     8358    1           WAVDO.KV$VDO.STR = K$RWPARM.STR;

   8358  1 000026   200004 473500                    LDP3    @K$RWPARM,,AUTO
         1 000027   300040 236100                    LDQ     32,,PR3
         1 000030   000022 736000                    QLS     18
         1 000031   100000 676100                    ERQ     0,,PR1
         1 000032   000177 376003                    ANQ     127,DU
         1 000033   100000 656100                    ERSQ    0,,PR1

     2639     8359    1           IF K$RWPARM.MSG$ = ADDR(NIL)

   8359  1 000034   300000 236100                    LDQ     0,,PR3
         1 000035   000001 116000 xsym               CMPQ    B_VECTNIL+1
         1 000036   000041 601000 1                  TNZ     s:8363

     2640     8360    1             THEN
     2641     8361    1               MSGSZ = 0;

   8361  1 000037   200044 450100                    STZ     MSGSZ,,AUTO
         1 000040   000053 710000 1                  TRA     s:8369

     2642     8362    2             ELSE DO;

     2643     8363    2               IF K$RWPARM.DVE.DVBYTE.BIN

   8363  1 000041   300010 236100                    LDQ     8,,PR3
PL6.E3A0      #011=KIA$VDO File=KIA$APPLC.:E05TSI                                WED 07/30/97 00:37 Page:499
         1 000042   040000 316003                    CANQ    16384,DU
         1 000043   000051 600000 1                  TZE     s:8366

     2644     8364    2                 THEN
     2645     8365    2                   K$RWPARM.MSGSZ = (K$RWPARM.MSGSZ * 9 + 7) / 8;

   8365  1 000044   300001 236100                    LDQ     1,,PR3
         1 000045   000011 402007                    MPY     9,DL
         1 000046   000007 036007                    ADLQ    7,DL
         1 000047   000010 506007                    DIV     8,DL
         1 000050   300001 756100                    STQ     1,,PR3

     2646     8366    2               MSGSZ = K$RWPARM.MSGSZ;

   8366  1 000051   300001 235100                    LDA     1,,PR3
         1 000052   200044 755100                    STA     MSGSZ,,AUTO

     2647     8367    2               END;

     2648     8368
     2649     8369    2           DO CASE (FUNCTION);

   8369  1 000053   000000 235100                    LDA     0,,PR0
         1 000054   000043 115007                    CMPA    35,DL
         1 000055   000057 602005 1                  TNC     s:8369+4,AL
         1 000056   000506 710000 1                  TRA     s:8474
         1 000057   000506 710000 1                  TRA     s:8474
         1 000060   000506 710000 1                  TRA     s:8474
         1 000061   000122 710000 1                  TRA     s:8372
         1 000062   000506 710000 1                  TRA     s:8474
         1 000063   000506 710000 1                  TRA     s:8474
         1 000064   000230 710000 1                  TRA     s:8400
         1 000065   000230 710000 1                  TRA     s:8400
         1 000066   000144 710000 1                  TRA     s:8380
         1 000067   000217 710000 1                  TRA     s:8396
         1 000070   000254 710000 1                  TRA     s:8408
         1 000071   000506 710000 1                  TRA     s:8474
PL6.E3A0      #011=KIA$VDO File=KIA$APPLC.:E05TSI                                WED 07/30/97 00:37 Page:500
         1 000072   000506 710000 1                  TRA     s:8474
         1 000073   000261 710000 1                  TRA     s:8411
         1 000074   000506 710000 1                  TRA     s:8474
         1 000075   000506 710000 1                  TRA     s:8474
         1 000076   000506 710000 1                  TRA     s:8474
         1 000077   000506 710000 1                  TRA     s:8474
         1 000100   000506 710000 1                  TRA     s:8474
         1 000101   000506 710000 1                  TRA     s:8474
         1 000102   000304 710000 1                  TRA     s:8421
         1 000103   000506 710000 1                  TRA     s:8474
         1 000104   000506 710000 1                  TRA     s:8474
         1 000105   000356 710000 1                  TRA     s:8441
         1 000106   000440 710000 1                  TRA     s:8456
         1 000107   000506 710000 1                  TRA     s:8474
         1 000110   000506 710000 1                  TRA     s:8474
         1 000111   000454 710000 1                  TRA     s:8461
         1 000112   000500 710000 1                  TRA     s:8470
         1 000113   000506 710000 1                  TRA     s:8474
         1 000114   000506 710000 1                  TRA     s:8474
         1 000115   000506 710000 1                  TRA     s:8474
         1 000116   000506 710000 1                  TRA     s:8474
         1 000117   000506 710000 1                  TRA     s:8474
         1 000120   000270 710000 1                  TRA     s:8415
         1 000121   000136 710000 1                  TRA     s:8377

     2650     8370
     2651     8371    2             CASE (%KV_VDO_FNC_BLKDAT);

     2652     8372    2               GLOM.TEMP0 = K$RWPARM.MAXRCRBYTSIZ ;

   8372  1 000122   300042 236100                    LDQ     34,,PR3
         1 000123   000022 772000                    QRL     18
         1 000124   200042 756100                    STQ     GLOM+1,,AUTO

     2653     8373    2               WABLKDAT.KV$VDO_BLKDAT.RCRBYTSIZ = GLOM.TEMP0+GLOM.TEMP0/256*256;

   8373  1 000125   000010 772000                    QRL     8
PL6.E3A0      #011=KIA$VDO File=KIA$APPLC.:E05TSI                                WED 07/30/97 00:37 Page:501
         1 000126   000010 736000                    QLS     8
         1 000127   200042 036100                    ADLQ    GLOM+1,,AUTO
         1 000130   000000 621006                    EAX1    0,QL
         1 000131   100000 441100                    SXL1    0,,PR1

     2654     8374    2               WABLKDAT.KV$VDO_BLKDAT.RSN = K$RWPARM.RSN;

   8374  1 000132   300010 236100                    LDQ     8,,PR3
         1 000133   000033 736000                    QLS     27
         1 000134   100001 552140                    STBQ    1,'40'O,PR1
         1 000135   000506 710000 1                  TRA     s:8474

     2655     8375
     2656     8376    2             CASE (%KV_VDO_FNC_CLSSTR);

     2657     8377    2              ADDR(WACLSSTR.KV$VDO_CLSSTR.DLT)->BIT2BSD = ADDR(K$RWPARM.VDOFLGS.DLTSTR
              8377                        )->BIT2BSD;

   8377  1 000136   300040 236100                    LDQ     32,,PR3
         1 000137   000011 772000                    QRL     9
         1 000140   100000 676100                    ERQ     0,,PR1
         1 000141   300000 376007                    ANQ     98304,DL
         1 000142   100000 656100                    ERSQ    0,,PR1
         1 000143   000506 710000 1                  TRA     s:8474

     2658     8378
     2659     8379    2             CASE (%KV_VDO_FNC_DCLFLD);

     2660     8380    2               LHDR$ = K$RWPARM.V$ ;

   8380  1 000144   300043 236100                    LDQ     35,,PR3
         1 000145   200037 756100                    STQ     LHDR$,,AUTO

     2661     8381    2               WADCLFLD.KV$VDO_DCLFLD.LIN = LHDR$->FPT$DCLFLD_V.LIN;

   8381  1 000146   200037 474500                    LDP4    LHDR$,,AUTO
         1 000147   400001 221100                    LDX1    1,,PR4
PL6.E3A0      #011=KIA$VDO File=KIA$APPLC.:E05TSI                                WED 07/30/97 00:37 Page:502
         1 000150   100000 441100                    SXL1    0,,PR1

     2662     8382    2               WADCLFLD.KV$VDO_DCLFLD.CLM = LHDR$->FPT$DCLFLD_V.CLM;

   8382  1 000151   400001 722100                    LXL2    1,,PR4
         1 000152   100001 742100                    STX2    1,,PR1

     2663     8383    2               WADCLFLD.KV$VDO_DCLFLD.WDT = LHDR$->FPT$DCLFLD_V.WDT;

   8383  1 000153   400002 723100                    LXL3    2,,PR4
         1 000154   100001 443100                    SXL3    1,,PR1

     2664     8384    2               TEMP1 = LHDR$->FPT$DCLFLD_V.ID;

   8384  1 000155   400002 236100                    LDQ     2,,PR4
         1 000156   000022 772000                    QRL     18
         1 000157   200037 756100                    STQ     LHDR$,,AUTO

     2665     8385    2               WADCLFLD.KV$VDO_DCLFLD.ID = TEMP1+TEMP1/256*256;

   8385  1 000160   000010 772000                    QRL     8
         1 000161   000010 736000                    QLS     8
         1 000162   200037 036100                    ADLQ    LHDR$,,AUTO
         1 000163   000000 624006                    EAX4    0,QL
         1 000164   100002 444100                    SXL4    2,,PR1

     2666     8386    2               IF VLP$FLDATR.ABSGRPRND ~= 0

   8386  1 000165   300036 474500                    LDP4    30,,PR3
         1 000166   400001 236100                    LDQ     1,,PR4
         1 000167   777000 316003                    CANQ    -512,DU
         1 000170   000203 600000 1                  TZE     s:8392

     2667     8387    3                 THEN DO;

     2668     8388    3                   WADCLFLD.KV$VDO_DCLFLD.GRPRND = BINBIT(VLP$FLDATR.ABSGRPRND,SIZEB(
              8388                            KV$VDO_DCLFLD.GRPRND));
PL6.E3A0      #011=KIA$VDO File=KIA$APPLC.:E05TSI                                WED 07/30/97 00:37 Page:503

   8388  1 000171   400001 236100                    LDQ     1,,PR4
         1 000172   000033 772000                    QRL     27
         1 000173   000034 736000                    QLS     28
         1 000174   000012 772000                    QRL     10
         1 000175   100002 676100                    ERQ     2,,PR1
         1 000176   000377 376003                    ANQ     255,DU
         1 000177   100002 656100                    ERSQ    2,,PR1

     2669     8389    3                   WADCLFLD.KV$VDO_DCLFLD.GRPRND.ABS = '1'B;

   8389  1 000200   000200 236003                    LDQ     128,DU
         1 000201   100002 256100                    ORSQ    2,,PR1

     2670     8390    3                   END;

   8390  1 000202   000210 710000 1                  TRA     s:8393

     2671     8391    2                 ELSE
     2672     8392    2                   WADCLFLD.KV$VDO_DCLFLD.GRPRND = VLP$FLDATR.GRPRND;

   8392  1 000203   400000 236100                    LDQ     0,,PR4
         1 000204   000012 772000                    QRL     10
         1 000205   100002 676100                    ERQ     2,,PR1
         1 000206   000377 376003                    ANQ     255,DU
         1 000207   100002 656100                    ERSQ    2,,PR1

     2673     8393    2               WADCLFLD.KV$VDO_DCLFLD.QLF = VLP$FLDATR.QLF;

   8393  1 000210   300036 474500                    LDP4    30,,PR3
         1 000211   400000 236100                    LDQ     0,,PR4
         1 000212   000021 736000                    QLS     17
         1 000213   100002 676100                    ERQ     2,,PR1
         1 000214   377000 376003                    ANQ     130560,DU
         1 000215   100002 656100                    ERSQ    2,,PR1
         1 000216   000506 710000 1                  TRA     s:8474

PL6.E3A0      #011=KIA$VDO File=KIA$APPLC.:E05TSI                                WED 07/30/97 00:37 Page:504
     2674     8394
     2675     8395    2             CASE (%KV_VDO_FNC_DCLSTR);

     2676     8396    2               WADCLSTR.KV$VDO_DCLSTR.STRID = K$RWPARM.STRID;

   8396  1 000217   300040 236100                    LDQ     32,,PR3
         1 000220   000022 772000                    QRL     18
         1 000221   100000 552110                    STBQ    0,'10'O,PR1

     2677     8397    2               WADCLSTR.KV$VDO_DCLSTR.RE_STR = K$RWPARM.VDOFLGS.REDSTR;

   8397  1 000222   300040 236100                    LDQ     32,,PR3
         1 000223   000020 772000                    QRL     16
         1 000224   100000 676100                    ERQ     0,,PR1
         1 000225   000200 376007                    ANQ     128,DL
         1 000226   100000 656100                    ERSQ    0,,PR1
         1 000227   000506 710000 1                  TRA     s:8474

     2678     8398
     2679     8399    2             CASE (%KV_VDO_FNC_DAT,%KV_VDO_FNC_DAT_IMD);

     2680     8400    2               WADAT.KV$VDO_DAT.DATCTRCHRTYP = %KV_DATCTRCHRTYP_VFC;

   8400  1 000230   100000 236100                    LDQ     0,,PR1
         1 000231   000000 376000 2                  ANQ     0
         1 000232   010000 276007                    ORQ     4096,DL
         1 000233   100000 756100                    STQ     0,,PR1

     2681     8401    2               WADAT.KV$VDO_DAT.DATCTRCHR = K$RWPARM.DVE.VFC;

   8401  1 000234   300010 236100                    LDQ     8,,PR3
         1 000235   000022 772000                    QRL     18
         1 000236   100000 552104                    STBQ    0,'04'O,PR1

     2682     8402    2               WADAT.KV$VDO_DAT.DCBHDR = K$RWPARM.DVE.DVBYTE.DCBHDR;

   8402  1 000237   300010 236100                    LDQ     8,,PR3
PL6.E3A0      #011=KIA$VDO File=KIA$APPLC.:E05TSI                                WED 07/30/97 00:37 Page:505
         1 000240   000016 772000                    QRL     14
         1 000241   100000 676100                    ERQ     0,,PR1
         1 000242   040000 376007                    ANQ     16384,DL
         1 000243   100000 656100                    ERSQ    0,,PR1

     2683     8403    2               IF K$RWPARM.DVE.DVBYTE.TRANS

   8403  1 000244   300010 236100                    LDQ     8,,PR3
         1 000245   020000 316003                    CANQ    8192,DU
         1 000246   000506 600000 1                  TZE     s:8474

     2684     8404    2                 THEN
     2685     8405    2                   WADAT.KV$VDO_DAT.DATMOD = %KV_DATMOD_TRN;

   8405  1 000247   100000 236100                    LDQ     0,,PR1
         1 000250   000001 376000 2                  ANQ     1
         1 000251   001000 276007                    ORQ     512,DL
         1 000252   100000 756100                    STQ     0,,PR1
         1 000253   000506 710000 1                  TRA     s:8474

     2686     8406
     2687     8407    2             CASE (%KV_VDO_FNC_DLT);

     2688     8408    2               WADLT.KV$VDO_DLT.CTLFLG = FPT$TRMPRG_V.CTLFLG;

   8408  1 000254   300043 474500                    LDP4    35,,PR3
         1 000255   400002 236100                    LDQ     2,,PR4
         1 000256   000022 772000                    QRL     18
         1 000257   100000 552110                    STBQ    0,'10'O,PR1
         1 000260   000506 710000 1                  TRA     s:8474

     2689     8409
     2690     8410    2             CASE (%KV_VDO_FNC_ERS);

     2691     8411    2               ADDR(WAERS.KV$VDO_ERS.PRT)->BIT2BSD =

   8411  1 000261   300043 474500                    LDP4    35,,PR3
PL6.E3A0      #011=KIA$VDO File=KIA$APPLC.:E05TSI                                WED 07/30/97 00:37 Page:506
         1 000262   400001 236100                    LDQ     1,,PR4
         1 000263   000001 772000                    QRL     1
         1 000264   100000 676100                    ERQ     0,,PR1
         1 000265   300000 376007                    ANQ     98304,DL
         1 000266   100000 656100                    ERSQ    0,,PR1
         1 000267   000506 710000 1                  TRA     s:8474

     2692     8412    2                 ADDR(FPT$ERASE_V.PRT)->BIT2BSD;
     2693     8413
     2694     8414    2             CASE (%KV_VDO_FNC_OPNSTR);

     2695     8415    2               WAOPNSTR.KV$VDO_OPNSTR.ORG = K$RWPARM.ORG;

   8415  1 000270   300040 236100                    LDQ     32,,PR3
         1 000271   000022 772000                    QRL     18
         1 000272   100000 552110                    STBQ    0,'10'O,PR1

     2696     8416    2               WAOPNSTR.KV$VDO_OPNSTR.NRECS = K$RWPARM.NRECS;

   8416  1 000273   300046 236100                    LDQ     38,,PR3
         1 000274   000011 772000                    QRL     9
         1 000275   100000 552104                    STBQ    0,'04'O,PR1

     2697     8417    2               WAOPNSTR.KV$VDO_OPNSTR.KEYL = K$RWPARM.KEYSZ;

   8417  1 000276   300046 236100                    LDQ     38,,PR3
         1 000277   000033 736000                    QLS     27
         1 000300   100001 552140                    STBQ    1,'40'O,PR1

     2698     8418    2               WAOPNSTR.KV$VDO_OPNSTR.SPARE = K$RWPARM.SPARE;

   8418  1 000301   300040 236100                    LDQ     32,,PR3
         1 000302   100001 552120                    STBQ    1,'20'O,PR1
         1 000303   000506 710000 1                  TRA     s:8474

     2699     8419
     2700     8420    2             CASE (%KV_VDO_FNC_PRM_SET);
PL6.E3A0      #011=KIA$VDO File=KIA$APPLC.:E05TSI                                WED 07/30/97 00:37 Page:507

     2701     8421    2               IF K$RWPARM.V$~=ADDR(NIL)

   8421  1 000304   300043 236100                    LDQ     35,,PR3
         1 000305   000001 116000 xsym               CMPQ    B_VECTNIL+1
         1 000306   000313 600000 1                  TZE     s:8424

     2702     8422    2                 THEN
     2703     8423    2                   MSGSZ = MSGSZ+K$RWPARM.VSZ;

   8423  1 000307   300045 236100                    LDQ     37,,PR3
         1 000310   000022 772000                    QRL     18
         1 000311   200044 036100                    ADLQ    MSGSZ,,AUTO
         1 000312   200044 756100                    STQ     MSGSZ,,AUTO

     2704     8424    2               IF K$RWPARM.PRMID=0 AND K$RWPARM.DVE.DVBYTE.VFC

   8424  1 000313   300045 721100                    LXL1    37,,PR3
         1 000314   000332 601000 1                  TNZ     s:8428
         1 000315   300010 236100                    LDQ     8,,PR3
         1 000316   100000 316003                    CANQ    32768,DU
         1 000317   000332 600000 1                  TZE     s:8428
         1 000320   300010 236100                    LDQ     8,,PR3
         1 000321   000160 376003                    ANQ     112,DU
         1 000322   000020 116003                    CMPQ    16,DU
         1 000323   000332 601000 1                  TNZ     s:8428

     2705     8425    2                 AND ADDR(K$RWPARM.DVE.VFC)->NK$VFC.FCN = %VFCF_SPC
     2706     8426    2                 THEN
     2707     8427    2                   K$RWPARM.PRMID = TRAN_PRMID(ADDR(K$RWPARM.DVE.VFC)->NK$VFC.COUNT);

   8427  1 000324   300010 236100                    LDQ     8,,PR3
         1 000325   000022 772000                    QRL     18
         1 000326   000017 376007                    ANQ     15,DL
         1 000327   000100 101406                    MRL     fill='000'O
         1 000330   000000 000001 0                  ADSC9   TRAN_PRMID,Q             cn=0,n=1
         1 000331   300045 400002                    ADSC9   37,,PR3                  cn=2,n=2
PL6.E3A0      #011=KIA$VDO File=KIA$APPLC.:E05TSI                                WED 07/30/97 00:37 Page:508

     2708     8428    2               IF K$RWPARM.PRMID ~= 0

   8428  1 000332   300045 721100                    LXL1    37,,PR3
         1 000333   000506 600000 1                  TZE     s:8474

     2709     8429    3                 THEN DO;

     2710     8430    3                   IF K$RWPARM.PRMID = %KV_PRMID_EDTBFR

   8430  1 000334   000203 101003                    CMPX1   131,DU
         1 000335   000341 601000 1                  TNZ     s:8433

     2711     8431    3                     THEN
     2712     8432    3                       MSGSZ = MSGSZ + LENGTHC(SIN);

   8432  1 000336   200044 235100                    LDA     MSGSZ,,AUTO
         1 000337   000004 035007                    ADLA    4,DL
         1 000340   200044 755100                    STA     MSGSZ,,AUTO

     2713     8433    3                   IF K$RWPARM.PRMID = %KV_PRMID_REREADCLM

   8433  1 000341   000212 101003                    CMPX1   138,DU
         1 000342   000346 601000 1                  TNZ     s:8436

     2714     8434    3                     THEN
     2715     8435    3                       MSGSZ = MSGSZ + LENGTHV(SIN);

   8435  1 000343   200044 235100                    LDA     MSGSZ,,AUTO
         1 000344   000003 035007                    ADLA    3,DL
         1 000345   200044 755100                    STA     MSGSZ,,AUTO

     2716     8436    3                   IF MSGSZ>255 THEN MSGSZ = MSGSZ+2;

   8436  1 000346   200044 235100                    LDA     MSGSZ,,AUTO
         1 000347   000400 115007                    CMPA    256,DL
         1 000350   000353 602000 1                  TNC     s:8437
PL6.E3A0      #011=KIA$VDO File=KIA$APPLC.:E05TSI                                WED 07/30/97 00:37 Page:509

   8436  1 000351   000002 035007                    ADLA    2,DL
         1 000352   200044 755100                    STA     MSGSZ,,AUTO

     2717     8437    3                   MSGSZ = MSGSZ + 2;

   8437  1 000353   000002 035007                    ADLA    2,DL
         1 000354   200044 755100                    STA     MSGSZ,,AUTO

     2718     8438    3                   END;

   8438  1 000355   000506 710000 1                  TRA     s:8474

     2719     8439
     2720     8440    2             CASE (%KV_VDO_FNC_RQSDAT);

     2721     8441    2               WARQSDAT.KV$VDO_RQSDAT.WAT = K$RWPARM.VDOFLGS.WAIT;

   8441  1 000356   300040 236100                    LDQ     32,,PR3
         1 000357   000006 736000                    QLS     6
         1 000360   100002 676100                    ERQ     2,,PR1
         1 000361   002000 376003                    ANQ     1024,DU
         1 000362   100002 656100                    ERSQ    2,,PR1

     2722     8442    2               WARQSDAT.KV$VDO_RQSDAT.INCMAXNMBRCR = K$RWPARM.VDOFLGS.INCNMBRCR;

   8442  1 000363   300040 236100                    LDQ     32,,PR3
         1 000364   000016 736000                    QLS     14
         1 000365   100002 676100                    ERQ     2,,PR1
         1 000366   200000 376003                    ANQ     65536,DU
         1 000367   100002 656100                    ERSQ    2,,PR1

     2723     8443    2               WARQSDAT.KV$VDO_RQSDAT.RE_RED = K$RWPARM.DVE.DVBYTE.REREAD;

   8443  1 000370   300010 236100                    LDQ     8,,PR3
         1 000371   000001 772000                    QRL     1
         1 000372   100002 676100                    ERQ     2,,PR1
PL6.E3A0      #011=KIA$VDO File=KIA$APPLC.:E05TSI                                WED 07/30/97 00:37 Page:510
         1 000373   040000 376003                    ANQ     16384,DU
         1 000374   100002 656100                    ERSQ    2,,PR1

     2724     8444    2               WARQSDAT.KV$VDO_RQSDAT.EOFNO_DAT = K$RWPARM.DVE.DVBYTE.NODAT;

   8444  1 000375   300010 236100                    LDQ     8,,PR3
         1 000376   100002 676100                    ERQ     2,,PR1
         1 000377   004000 376003                    ANQ     2048,DU
         1 000400   100002 656100                    ERSQ    2,,PR1

     2725     8445    2               WARQSDAT.KV$VDO_RQSDAT.BP = K$RWPARM.DVE.DVBYTE.BP;

   8445  1 000401   300010 236100                    LDQ     8,,PR3
         1 000402   000007 772000                    QRL     7
         1 000403   100002 676100                    ERQ     2,,PR1
         1 000404   001000 376003                    ANQ     512,DU
         1 000405   100002 656100                    ERSQ    2,,PR1

     2726     8446    2               IF K$RWPARM.DVE.DVBYTE.TRANS

   8446  1 000406   300010 236100                    LDQ     8,,PR3
         1 000407   020000 316003                    CANQ    8192,DU
         1 000410   000415 600000 1                  TZE     s:8449

     2727     8447    2                 THEN
     2728     8448    2                   WARQSDAT.KV$VDO_RQSDAT.DATMOD = %KV_DATMOD_TRN;

   8448  1 000411   100002 236100                    LDQ     2,,PR1
         1 000412   000002 376000 2                  ANQ     2
         1 000413   010000 276003                    ORQ     4096,DU
         1 000414   100002 756100                    STQ     2,,PR1

     2729     8449    2               WARQSDAT.KV$VDO_RQSDAT.MAXNMBRCR = K$RWPARM.MAXNMBRCR;

   8449  1 000415   300041 221100                    LDX1    33,,PR3
         1 000416   100001 741100                    STX1    1,,PR1

PL6.E3A0      #011=KIA$VDO File=KIA$APPLC.:E05TSI                                WED 07/30/97 00:37 Page:511
     2730     8450    2               GLOM.TEMP0 = K$RWPARM.MAXNMBBYT ;

   8450  1 000417   300041 236100                    LDQ     33,,PR3
         1 000420   777777 376007                    ANQ     -1,DL
         1 000421   200042 756100                    STQ     GLOM+1,,AUTO

     2731     8451    2               WARQSDAT.KV$VDO_RQSDAT.MAXNMBBYT = GLOM.TEMP0+GLOM.TEMP0/256*256;

   8451  1 000422   000010 772000                    QRL     8
         1 000423   000010 736000                    QLS     8
         1 000424   200042 036100                    ADLQ    GLOM+1,,AUTO
         1 000425   000000 621006                    EAX1    0,QL
         1 000426   100001 441100                    SXL1    1,,PR1

     2732     8452    2               GLOM.TEMP0 = K$RWPARM.MAXRCRBYTSIZ ;

   8452  1 000427   300042 236100                    LDQ     34,,PR3
         1 000430   000022 772000                    QRL     18
         1 000431   200042 756100                    STQ     GLOM+1,,AUTO

     2733     8453    2               WARQSDAT.KV$VDO_RQSDAT.MAXRCRBYTSIZ = GLOM.TEMP0+GLOM.TEMP0/256*256;

   8453  1 000432   000010 772000                    QRL     8
         1 000433   000010 736000                    QLS     8
         1 000434   200042 036100                    ADLQ    GLOM+1,,AUTO
         1 000435   000000 621006                    EAX1    0,QL
         1 000436   100000 441100                    SXL1    0,,PR1
         1 000437   000506 710000 1                  TRA     s:8474

     2734     8454
     2735     8455    2             CASE (%KV_VDO_FNC_RQSPRM);

     2736     8456    2               WARQSPRM.KV$VDO_RQSPRM.PRMID = K$RWPARM.PRMID;

   8456  1 000440   300045 236100                    LDQ     37,,PR3
         1 000441   000011 736000                    QLS     9
         1 000442   100000 552110                    STBQ    0,'10'O,PR1
PL6.E3A0      #011=KIA$VDO File=KIA$APPLC.:E05TSI                                WED 07/30/97 00:37 Page:512

     2737     8457    2               GLOM.TEMP0 = K$RWPARM.MAXRCRBYTSIZ ;

   8457  1 000443   300042 236100                    LDQ     34,,PR3
         1 000444   000022 772000                    QRL     18
         1 000445   200042 756100                    STQ     GLOM+1,,AUTO

     2738     8458    2               WARQSPRM.KV$VDO_RQSPRM.MAXNMBBYT = GLOM.TEMP0+GLOM.TEMP0/256*256;

   8458  1 000446   000010 772000                    QRL     8
         1 000447   000010 736000                    QLS     8
         1 000450   200042 036100                    ADLQ    GLOM+1,,AUTO
         1 000451   000000 621006                    EAX1    0,QL
         1 000452   100001 741100                    STX1    1,,PR1
         1 000453   000506 710000 1                  TRA     s:8474

     2739     8459
     2740     8460    2             CASE (%KV_VDO_FNC_SLCGRPRND);

     2741     8461    2               IF VLP$FLDATR.ABSGRPRND ~= 0

   8461  1 000454   300036 474500                    LDP4    30,,PR3
         1 000455   400001 236100                    LDQ     1,,PR4
         1 000456   777000 316003                    CANQ    -512,DU
         1 000457   000472 600000 1                  TZE     s:8467

     2742     8462    3                 THEN DO;

     2743     8463    3                   WASLCGRPRND.KV$VDO_SLCGRPRND.GRPRND = BINBIT(VLP$FLDATR.ABSGRPRND,
              8463                            SIZEB(KV$VDO_SLCGRPRND.GRPRND));

   8463  1 000460   400001 236100                    LDQ     1,,PR4
         1 000461   000033 772000                    QRL     27
         1 000462   000034 736000                    QLS     28
         1 000463   000023 772000                    QRL     19
         1 000464   100000 676100                    ERQ     0,,PR1
         1 000465   377000 376007                    ANQ     130560,DL
PL6.E3A0      #011=KIA$VDO File=KIA$APPLC.:E05TSI                                WED 07/30/97 00:37 Page:513
         1 000466   100000 656100                    ERSQ    0,,PR1

     2744     8464    3                   WASLCGRPRND.KV$VDO_SLCGRPRND.GRPRND.ABS = '1'B;

   8464  1 000467   200000 236007                    LDQ     65536,DL
         1 000470   100000 256100                    ORSQ    0,,PR1

     2745     8465    3                   END;

   8465  1 000471   000506 710000 1                  TRA     s:8474

     2746     8466    2                 ELSE
     2747     8467    2                   WASLCGRPRND.KV$VDO_SLCGRPRND.GRPRND = VLP$FLDATR.GRPRND;

   8467  1 000472   400000 236100                    LDQ     0,,PR4
         1 000473   000023 772000                    QRL     19
         1 000474   100000 676100                    ERQ     0,,PR1
         1 000475   377000 376007                    ANQ     130560,DL
         1 000476   100000 656100                    ERSQ    0,,PR1
         1 000477   000506 710000 1                  TRA     s:8474

     2748     8468
     2749     8469    2             CASE (%KV_VDO_FNC_SLCQLF);

     2750     8470    2               WASLCQLF.KV$VDO_SLCQLF.QLF = VLP$FLDATR.QLF;

   8470  1 000500   300036 474500                    LDP4    30,,PR3
         1 000501   400000 236100                    LDQ     0,,PR4
         1 000502   000001 772000                    QRL     1
         1 000503   100000 676100                    ERQ     0,,PR1
         1 000504   377000 376007                    ANQ     130560,DL
         1 000505   100000 656100                    ERSQ    0,,PR1

     2751     8471
     2752     8472    2             END /* CASES */;

     2753     8473
PL6.E3A0      #011=KIA$VDO File=KIA$APPLC.:E05TSI                                WED 07/30/97 00:37 Page:514
     2754     8474    1           LHDR$ = HDR$;

   8474  1 000506   200036 236100                    LDQ     HDR$,,AUTO
         1 000507   200037 756100                    STQ     LHDR$,,AUTO

     2755     8475    1           HDR$ = PINCRC(HDR$,VDOSZ);

   8475  1 000510   200040 236100                    LDQ     VDOSZ,,AUTO
         1 000511   000020 736000                    QLS     16
         1 000512   200036 036100                    ADLQ    HDR$,,AUTO
         1 000513   200036 756100                    STQ     HDR$,,AUTO

     2756     8476    1           IF K$RWPARM.MSGID ~= 0

   8476  1 000514   300011 235100                    LDA     9,,PR3
         1 000515   000552 600000 1                  TZE     s:8491

     2757     8477    2             THEN DO;

     2758     8478    2               GLOM.TEMP0 = K$RWPARM.MSGID ;

   8478  1 000516   200042 755100                    STA     GLOM+1,,AUTO

     2759     8479    2               GLOM.FLDID = ADDR(KI_VDOVLP_CG_MSGID)->BT36;

   8479  1 000517   000000 236000 xsym               LDQ     KI_VDOVLP_CG_MSGID
         1 000520   200041 756100                    STQ     GLOM,,AUTO

     2760     8480    2               GLOM.TEMP4 = K$RWPARM.MSGIDXT;

   8480  1 000521   300012 236100                    LDQ     10,,PR3
         1 000522   200043 756100                    STQ     GLOM+2,,AUTO

     2761     8481    2               GLOM.TEMP3.BY1 = GLOM.TEMP2.B1;

   8481  1 000523   200042 236100                    LDQ     GLOM+1,,AUTO
         1 000524   037700 376003                    ANQ     16320,DU
PL6.E3A0      #011=KIA$VDO File=KIA$APPLC.:E05TSI                                WED 07/30/97 00:37 Page:515
         1 000525   000003 736000                    QLS     3
         1 000526   200042 552140                    STBQ    GLOM+1,'40'O,AUTO

     2762     8482    2               GLOM.TEMP3.BY2 = GLOM.TEMP2.B2 ;

   8482  1 000527   200042 236100                    LDQ     GLOM+1,,AUTO
         1 000530   000003 376000 2                  ANQ     3
         1 000531   000002 736000                    QLS     2
         1 000532   200042 552120                    STBQ    GLOM+1,'20'O,AUTO

     2763     8483    2               GLOM.TEMP3.BY3 = GLOM.TEMP2.B3 ;

   8483  1 000533   200042 236100                    LDQ     GLOM+1,,AUTO
         1 000534   177400 376007                    ANQ     65280,DL
         1 000535   000001 736000                    QLS     1
         1 000536   200042 552110                    STBQ    GLOM+1,'10'O,AUTO

     2764     8484    2               GLOM.TEMP3.BY4 = GLOM.TEMP2.B4 ;

   8484  1 000537   200042 236100                    LDQ     GLOM+1,,AUTO
         1 000540   000377 376007                    ANQ     255,DL
         1 000541   200042 552104                    STBQ    GLOM+1,'04'O,AUTO

     2765     8485    2               ADDR(HDR$->KV$VDOVLP_CG_MSGID)->CHR12BSD = ADDR(GLOM)->CHR12BSD ;

   8485  1 000542   200036 471500                    LDP1    HDR$,,AUTO
         1 000543   040100 100500                    MLR     fill='040'O
         1 000544   200041 000014                    ADSC9   GLOM,,AUTO               cn=0,n=12
         1 000545   100000 000014                    ADSC9   0,,PR1                   cn=0,n=12

     2766     8486
     2767     8487    2               LHDR$ = HDR$;

   8487  1 000546   200036 236100                    LDQ     HDR$,,AUTO
         1 000547   200037 756100                    STQ     LHDR$,,AUTO

     2768     8488    2               HDR$ = PINCRC(HDR$,SIZEC(KI_VDOVLP_CG_MSGID));
PL6.E3A0      #011=KIA$VDO File=KIA$APPLC.:E05TSI                                WED 07/30/97 00:37 Page:516

   8488  1 000550   000003 036003                    ADLQ    3,DU
         1 000551   200036 756100                    STQ     HDR$,,AUTO

     2769     8489    2               END;

     2770     8490        /* CG message type */
     2771     8491    1           IF K$RWPARM.MSGTYP ~= ' '

   8491  1 000552   300004 237100                    LDAQ    4,,PR3
         1 000553   000004 117000 2                  CMPAQ   4
         1 000554   000606 600000 1                  TZE     s:8505

     2772     8492    2             THEN DO;

     2773     8493    2               ADDR(HDR$->KV$VDOVLP_CG_MSGTYP)->CHR4BSD = ADDR(KI_VDOVLP_CG_MSGTYP)->
              8493                        CHR4BSD;

   8493  1 000555   200036 471500                    LDP1    HDR$,,AUTO
         1 000556   040100 100400                    MLR     fill='040'O
         1 000557   000000 000004 xsym               ADSC9   KI_VDOVLP_CG_MSGTYP      cn=0,n=4
         1 000560   100000 000004                    ADSC9   0,,PR1                   cn=0,n=4

     2774     8494    2               HDR$->KV$VDOVLP_CG_MSGTYP.CG_MSGTYP = K$RWPARM.MSGTYP;

   8494  1 000561   040100 100500                    MLR     fill='040'O
         1 000562   300004 000010                    ADSC9   4,,PR3                   cn=0,n=8
         1 000563   100001 000010                    ADSC9   1,,PR1                   cn=0,n=8

     2775     8495    2               LHDR$ = HDR$;

   8495  1 000564   200036 236100                    LDQ     HDR$,,AUTO
         1 000565   200037 756100                    STQ     LHDR$,,AUTO

     2776     8496    2               HDR$ = PINCRC(HDR$,SIZEC(KI_VDOVLP_CG_MSGTYP));

   8496  1 000566   000003 036003                    ADLQ    3,DU
PL6.E3A0      #011=KIA$VDO File=KIA$APPLC.:E05TSI                                WED 07/30/97 00:37 Page:517
         1 000567   200036 756100                    STQ     HDR$,,AUTO

     2777     8497    2               IF K$RWPARM.STATION ~= ' '

   8497  1 000570   300002 237100                    LDAQ    2,,PR3
         1 000571   000004 117000 2                  CMPAQ   4
         1 000572   000606 600000 1                  TZE     s:8505

     2778     8498    3                 THEN DO;

     2779     8499    3                   ADDR(HDR$->KV$VDOVLP_CG_STA)->CHR4BSD = ADDR(KI_VDOVLP_CG_STA)->
              8499                            CHR4BSD;

   8499  1 000573   200036 471500                    LDP1    HDR$,,AUTO
         1 000574   040100 100400                    MLR     fill='040'O
         1 000575   000000 000004 xsym               ADSC9   KI_VDOVLP_CG_STA         cn=0,n=4
         1 000576   100000 000004                    ADSC9   0,,PR1                   cn=0,n=4

     2780     8500    3                   HDR$->KV$VDOVLP_CG_STA.CG_STA = K$RWPARM.STATION;

   8500  1 000577   040100 100500                    MLR     fill='040'O
         1 000600   300002 000010                    ADSC9   2,,PR3                   cn=0,n=8
         1 000601   100001 000010                    ADSC9   1,,PR1                   cn=0,n=8

     2781     8501    3                   LHDR$ = HDR$;

   8501  1 000602   200036 236100                    LDQ     HDR$,,AUTO
         1 000603   200037 756100                    STQ     LHDR$,,AUTO

     2782     8502    3                   HDR$ = PINCRC(HDR$,SIZEC(KI_VDOVLP_CG_STA));

   8502  1 000604   000003 036003                    ADLQ    3,DU
         1 000605   200036 756100                    STQ     HDR$,,AUTO

     2783     8503    3                   END;

     2784     8504    2               END;
PL6.E3A0      #011=KIA$VDO File=KIA$APPLC.:E05TSI                                WED 07/30/97 00:37 Page:518

     2785     8505    1           IF K$RWPARM.MSG_ERRCODE

   8505  1 000606   300037 235100                    LDA     31,,PR3
         1 000607   000634 600000 1                  TZE     s:8513

     2786     8506    2             THEN DO;

     2787     8507    2               CALL EMR$HOST2FEP (GLOM.ERR,K$RWPARM.MSG_ERRCODE);

   8507  1 000610   200004 236100                    LDQ     @K$RWPARM,,AUTO
         1 000611   000037 036003                    ADLQ    31,DU
         1 000612   200047 756100                    STQ     MSGSZ+3,,AUTO
         1 000613   200042 631500                    EPPR1   GLOM+1,,AUTO
         1 000614   200046 451500                    STP1    MSGSZ+2,,AUTO
         1 000615   200046 630500                    EPPR0   MSGSZ+2,,AUTO
         1 000616   000020 631400 xsym               EPPR1   B_VECTNIL+16
         1 000617   000000 701000 xent               TSX1    EMR$HOST2FEP
         1 000620   000000 011000                    NOP     0

     2788     8508    2               HDR$->KV$VDOVLP_ERR = KI_VDOVLP_ERR;

   8508  1 000621   200036 470500                    LDP0    HDR$,,AUTO
         1 000622   000100 100400                    MLR     fill='000'O
         1 000623   000000 000006 xsym               ADSC9   KI_VDOVLP_ERR            cn=0,n=6
         1 000624   000000 000006                    ADSC9   0,,PR0                   cn=0,n=6

     2789     8509    2               HDR$->KV$VDOVLP_ERR.ERRCODE = GLOM.ERR;

   8509  1 000625   000100 100500                    MLR     fill='000'O
         1 000626   200042 000004                    ADSC9   GLOM+1,,AUTO             cn=0,n=4
         1 000627   000000 400004                    ADSC9   0,,PR0                   cn=2,n=4

     2790     8510    2               LHDR$ = HDR$;

   8510  1 000630   200036 236100                    LDQ     HDR$,,AUTO
         1 000631   200037 756100                    STQ     LHDR$,,AUTO
PL6.E3A0      #011=KIA$VDO File=KIA$APPLC.:E05TSI                                WED 07/30/97 00:37 Page:519

     2791     8511    2               HDR$ = PINCRC(HDR$,SIZEC(KI_VDOVLP_ERR));

   8511  1 000632   000006 036000 2                  ADLQ    6
         1 000633   200036 756100                    STQ     HDR$,,AUTO

     2792     8512    2               END;

     2793     8513    1           IF K$RWPARM.KEY$ ~= ADDR(NIL) AND K$RWPARM.KEYSZ ~= 0

   8513  1 000634   200004 470500                    LDP0    @K$RWPARM,,AUTO
         1 000635   000044 236100                    LDQ     36,,PR0
         1 000636   000001 116000 xsym               CMPQ    B_VECTNIL+1
         1 000637   001033 600000 1                  TZE     s:8558
         1 000640   000046 236100                    LDQ     38,,PR0
         1 000641   000777 316007                    CANQ    511,DL
         1 000642   001033 600000 1                  TZE     s:8558

     2794     8514    1             THEN
     2795     8515    1               IF K$RWPARM.KEYTYPE ~= %KEYTYPE_FLDID#

   8515  1 000643   000046 236100                    LDQ     38,,PR0
         1 000644   777000 376007                    ANQ     -512,DL
         1 000645   001000 116007                    CMPQ    512,DL
         1 000646   000771 600000 1                  TZE     s:8549

     2796     8516    2                 THEN DO;

     2797     8517    2                   IF K$RWPARM.KEYSZ>32 THEN EXIT;

   8517  1 000647   000046 236100                    LDQ     38,,PR0
         1 000650   000777 376007                    ANQ     511,DL
         1 000651   000041 116007                    CMPQ    33,DL
         1 000652   000770 603000 1                  TRC     s:8547

     2798     8518    2                   HDR$->KV$VDOVLP_KEY = KI_VDOVLP_KEY;

PL6.E3A0      #011=KIA$VDO File=KIA$APPLC.:E05TSI                                WED 07/30/97 00:37 Page:520
   8518  1 000653   200036 471500                    LDP1    HDR$,,AUTO
         1 000654   000100 100400                    MLR     fill='000'O
         1 000655   000000 000002 xsym               ADSC9   KI_VDOVLP_KEY            cn=0,n=2
         1 000656   100000 000002                    ADSC9   0,,PR1                   cn=0,n=2

     2799     8519    2                   HDR$->KV$VDOVLP_KEY.BYTSIZ = K$RWPARM.KEYSZ;

   8519  1 000657   000100 100500                    MLR     fill='000'O
         1 000660   000046 600001                    ADSC9   38,,PR0                  cn=3,n=1
         1 000661   100000 200001                    ADSC9   0,,PR1                   cn=1,n=1

     2800     8520    2                   LHDR$ = HDR$;

   8520  1 000662   200036 236100                    LDQ     HDR$,,AUTO
         1 000663   200037 756100                    STQ     LHDR$,,AUTO

     2801     8521    2                   HDR$ = PINCRC(HDR$,SIZEC(KI_VDOVLP_KEY));

   8521  1 000664   400000 036007                    ADLQ    -131072,DL
         1 000665   200036 756100                    STQ     HDR$,,AUTO

     2802     8522    2                   GLOM.TEMP0 = K$RWPARM.KEYSZ ;

   8522  1 000666   000046 236100                    LDQ     38,,PR0
         1 000667   000777 376007                    ANQ     511,DL
         1 000670   200042 756100                    STQ     GLOM+1,,AUTO

     2803     8523    2                   HDR$->KEY = K$RWPARM.KEY$->KEY;

   8523  1 000671   000046 720100                    LXL0    38,,PR0
         1 000672   000777 360003                    ANX0    511,DU
         1 000673   000044 471500                    LDP1    36,,PR0
         1 000674   200036 473500                    LDP3    HDR$,,AUTO
         1 000675   040140 100540                    MLR     fill='040'O
         1 000676   100000 000010                    ADSC9   0,,PR1                   cn=0,n=*X0
         1 000677   300000 000010                    ADSC9   0,,PR3                   cn=0,n=*X0

PL6.E3A0      #011=KIA$VDO File=KIA$APPLC.:E05TSI                                WED 07/30/97 00:37 Page:521
     2804     8524    2                   IF GLOM.TEMP0 < 5 AND

   8524  1 000700   200042 235100                    LDA     GLOM+1,,AUTO
         1 000701   000005 115007                    CMPA    5,DL
         1 000702   000747 603000 1                  TRC     s:8540
         1 000703   000046 236100                    LDQ     38,,PR0
         1 000704   777000 376007                    ANQ     -512,DL
         1 000705   004000 116007                    CMPQ    2048,DL
         1 000706   000713 600000 1                  TZE     s:8529
         1 000707   005000 116007                    CMPQ    2560,DL
         1 000710   000713 600000 1                  TZE     s:8529
         1 000711   006000 116007                    CMPQ    3072,DL
         1 000712   000747 601000 1                  TNZ     s:8540

     2805     8525    2                     (K$RWPARM.KEYTYPE=%KEYTYPE_BIN10#
     2806     8526    2                     OR K$RWPARM.KEYTYPE=%KEYTYPE_BINHLF#
     2807     8527    2                     OR K$RWPARM.KEYTYPE=%KEYTYPE_BIN521#)
     2808     8528    3                     THEN DO;

     2809     8529    3                       GLOM.OP6$ = PINCRB(HDR$,GLOM.TEMP0);

   8529  1 000713   300000 503505                    ABD     0,AL,PR3
         1 000714   200041 453500                    STP3    GLOM,,AUTO

     2810     8530        /*     HDR$->KEY = ' ' ;    Hi order bits of each byte to '0'B */
     2811     8531    3                       DEST.BY1 = SOURCE.BY1 ;

   8531  1 000715   200036 471500                    LDP1    HDR$,,AUTO
         1 000716   003100 060500                    CSL     bolr='003'O
         1 000717   300000 000010                    BDSC    0,,PR3                   by=0,bit=0,n=8
         1 000720   100000 010010                    BDSC    0,,PR1                   by=0,bit=1,n=8

     2812     8532    3                       IF GLOM.TEMP0 =1 THEN EXIT;

   8532  1 000721   200042 235100                    LDA     GLOM+1,,AUTO
         1 000722   000001 115007                    CMPA    1,DL
         1 000723   000746 600000 1                  TZE     s:8538
PL6.E3A0      #011=KIA$VDO File=KIA$APPLC.:E05TSI                                WED 07/30/97 00:37 Page:522

     2813     8533    3                       DEST.BY2 = SOURCE.BY2 ;

   8533  1 000724   200041 473500                    LDP3    GLOM,,AUTO
         1 000725   003100 060500                    CSL     bolr='003'O
         1 000726   300000 100010                    BDSC    0,,PR3                   by=0,bit=8,n=8
         1 000727   100000 210010                    BDSC    0,,PR1                   by=1,bit=1,n=8

     2814     8534    3                       IF GLOM.TEMP0 =2 THEN EXIT;

   8534  1 000730   200042 235100                    LDA     GLOM+1,,AUTO
         1 000731   000002 115007                    CMPA    2,DL
         1 000732   000746 600000 1                  TZE     s:8538

     2815     8535    3                       DEST.BY3 = SOURCE.BY3 ;

   8535  1 000733   200041 473500                    LDP3    GLOM,,AUTO
         1 000734   003100 060500                    CSL     bolr='003'O
         1 000735   300000 270010                    BDSC    0,,PR3                   by=1,bit=7,n=8
         1 000736   100000 410010                    BDSC    0,,PR1                   by=2,bit=1,n=8

     2816     8536    3                       IF GLOM.TEMP0 =3 THEN EXIT;

   8536  1 000737   200042 235100                    LDA     GLOM+1,,AUTO
         1 000740   000003 115007                    CMPA    3,DL
         1 000741   000746 600000 1                  TZE     s:8538

     2817     8537    3                       DEST.BY4 = SOURCE.BY4 ;

   8537  1 000742   200041 473500                    LDP3    GLOM,,AUTO
         1 000743   003100 060500                    CSL     bolr='003'O
         1 000744   300000 460010                    BDSC    0,,PR3                   by=2,bit=6,n=8
         1 000745   100000 610010                    BDSC    0,,PR1                   by=3,bit=1,n=8

     2818     8538    3                       END;

   8538  1 000746   000761 710000 1                  TRA     L1
PL6.E3A0      #011=KIA$VDO File=KIA$APPLC.:E05TSI                                WED 07/30/97 00:37 Page:523

     2819     8539    3                     ELSE DO;

     2820     8540    3                       K$RWPARM.CVTDAT = '0'B;

   8540  1 000747   000007 236000 2                  LDQ     7
         1 000750   000010 356100                    ANSQ    8,,PR0

     2821     8541    3                       IF K$RWPARM.KEYTYPE=%KEYTYPE_ENTSRD#

   8541  1 000751   000046 236100                    LDQ     38,,PR0
         1 000752   777000 376007                    ANQ     -512,DL
         1 000753   003000 116007                    CMPQ    1536,DL
         1 000754   000761 601000 1                  TNZ     L1

     2822     8542    3                         THEN
     2823     8543    3                           LHDR$->KV$VDOVLP_KEY.TYP = %KV_VDOVLP_TYP_ENTSRD;

   8543  1 000755   200037 471500                    LDP1    LHDR$,,AUTO
         1 000756   003100 061400                    CSR     bolr='003'O
         1 000757   000014 000044 xsym               BDSC    B_VECTNIL+12             by=0,bit=0,n=36
         1 000760   100000 020007                    BDSC    0,,PR1                   by=0,bit=2,n=7

     2824     8544    3                       END;

     2825     8545    2   L1:
     2826     8546    2                   HDR$ = PINCRC(HDR$,((K$RWPARM.KEYSZ+1)/2)*2);

   8546  1 000761   000046 236100       L1           LDQ     38,,PR0
         1 000762   000777 376007                    ANQ     511,DL
         1 000763   000001 036007                    ADLQ    1,DL
         1 000764   000001 772000                    QRL     1
         1 000765   000021 736000                    QLS     17
         1 000766   200036 036100                    ADLQ    HDR$,,AUTO
         1 000767   200036 756100                    STQ     HDR$,,AUTO

     2827     8547    2                   END;
PL6.E3A0      #011=KIA$VDO File=KIA$APPLC.:E05TSI                                WED 07/30/97 00:37 Page:524

   8547  1 000770   001033 710000 1                  TRA     s:8558

     2828     8548    1                 ELSE
     2829     8549    1                   IF K$RWPARM.KEYSZ >= 2

   8549  1 000771   000046 236100                    LDQ     38,,PR0
         1 000772   000777 376007                    ANQ     511,DL
         1 000773   000002 116007                    CMPQ    2,DL
         1 000774   001033 602000 1                  TNC     s:8558

     2830     8550    2                     THEN DO;

     2831     8551    2                       HDR$->KV$VDOVLP_FLDID = KI_VDOVLP_FLDID;

   8551  1 000775   200036 471500                    LDP1    HDR$,,AUTO
         1 000776   000100 100400                    MLR     fill='000'O
         1 000777   000000 000004 xsym               ADSC9   KI_VDOVLP_FLDID          cn=0,n=4
         1 001000   100000 000004                    ADSC9   0,,PR1                   cn=0,n=4

     2832     8552    2                       HDR$->KV$VDOVLP_FLDID.BYTSIZ = 2;

   8552  1 001001   000100 101400                    MRL     fill='000'O
         1 001002   000004 000004 xsym               ADSC9   B_VECTNIL+4              cn=0,n=4
         1 001003   100000 200001                    ADSC9   0,,PR1                   cn=1,n=1

     2833     8553    2                       LHDR$ = HDR$;

   8553  1 001004   200036 236100                    LDQ     HDR$,,AUTO
         1 001005   200037 756100                    STQ     LHDR$,,AUTO

     2834     8554    2                       GLOM.FLDID.IDC = K$RWPARM.KEY$->B$FLDID;

   8554  1 001006   000044 473500                    LDP3    36,,PR0
         1 001007   040100 100500                    MLR     fill='040'O
         1 001010   300000 000002                    ADSC9   0,,PR3                   cn=0,n=2
         1 001011   200041 400002                    ADSC9   GLOM,,AUTO               cn=2,n=2
PL6.E3A0      #011=KIA$VDO File=KIA$APPLC.:E05TSI                                WED 07/30/97 00:37 Page:525

     2835     8555    2                       HDR$->KV$VDOVLP_FLDID.FLDID = GLOM.FLDID.ID+GLOM.FLDID.ID/256*
              8555                                256;

   8555  1 001012   200041 236100                    LDQ     GLOM,,AUTO
         1 001013   777777 376007                    ANQ     -1,DL
         1 001014   000010 772000                    QRL     8
         1 001015   200046 756100                    STQ     MSGSZ+2,,AUTO
         1 001016   200041 236100                    LDQ     GLOM,,AUTO
         1 001017   777777 376007                    ANQ     -1,DL
         1 001020   200047 756100                    STQ     MSGSZ+3,,AUTO
         1 001021   200046 236100                    LDQ     MSGSZ+2,,AUTO
         1 001022   000010 736000                    QLS     8
         1 001023   200047 036100                    ADLQ    MSGSZ+3,,AUTO
         1 001024   200050 756100                    STQ     MSGSZ+4,,AUTO
         1 001025   000100 101500                    MRL     fill='000'O
         1 001026   200050 000004                    ADSC9   MSGSZ+4,,AUTO            cn=0,n=4
         1 001027   100000 400002                    ADSC9   0,,PR1                   cn=2,n=2

     2836     8556    2                       HDR$ = PINCRC(HDR$,SIZEC(KI_VDOVLP_FLDID));

   8556  1 001030   200036 236100                    LDQ     HDR$,,AUTO
         1 001031   000001 036003                    ADLQ    1,DU
         1 001032   200036 756100                    STQ     HDR$,,AUTO

     2837     8557    2                       END;

     2838     8558    1           IF K$RWPARM.MRKTYP ~= 0

   8558  1 001033   000040 236100                    LDQ     32,,PR0
         1 001034   777000 316007                    CANQ    -512,DL
         1 001035   001122 600000 1                  TZE     s:8581

     2839     8559    2             THEN DO;

     2840     8560    2               HDR$->VDOVLP_MRK = KI_VDOVLP_MRK;

PL6.E3A0      #011=KIA$VDO File=KIA$APPLC.:E05TSI                                WED 07/30/97 00:37 Page:526
   8560  1 001036   200036 471500                    LDP1    HDR$,,AUTO
         1 001037   000100 100400                    MLR     fill='000'O
         1 001040   000000 000010 xsym               ADSC9   KI_VDOVLP_MRK            cn=0,n=8
         1 001041   100000 000010                    ADSC9   0,,PR1                   cn=0,n=8

     2841     8561    2               IF FUNCTION = %KV_VDO_FNC_MRK

   8561  1 001042   200003 473500                    LDP3    @FUNCTION,,AUTO
         1 001043   300000 235100                    LDA     0,,PR3
         1 001044   000037 115007                    CMPA    31,DL
         1 001045   001051 601000 1                  TNZ     s:8564

     2842     8562    2                 THEN
     2843     8563    2                   HDR$->VDOVLP_MRK.RSP = '1'B;

   8563  1 001046   003100 060400                    CSL     bolr='003'O
         1 001047   000030 000001 xsym               BDSC    B_VECTNIL+24             by=0,bit=0,n=1
         1 001050   100000 410001                    BDSC    0,,PR1                   by=2,bit=1,n=1

     2844     8564    2               HDR$->VDOVLP_MRK.MRKTYP = K$RWPARM.MRKTYP;

   8564  1 001051   000100 100500                    MLR     fill='000'O
         1 001052   000040 400001                    ADSC9   32,,PR0                  cn=2,n=1
         1 001053   100000 600001                    ADSC9   0,,PR1                   cn=3,n=1

     2845     8565    2               IF K$RWPARM.MRKTYP = %KV_VDOMRKTYP_SNDLSTRCRID

   8565  1 001054   000040 236100                    LDQ     32,,PR0
         1 001055   777000 376007                    ANQ     -512,DL
         1 001056   004000 116007                    CMPQ    2048,DL
         1 001057   001110 601000 1                  TNZ     s:8574

     2846     8566    3                 THEN DO;

     2847     8567    3                   GLOM.TEMP0 = K$RWPARM.BLKREC.BLKU# ;

   8567  1 001060   000007 236100                    LDQ     7,,PR0
PL6.E3A0      #011=KIA$VDO File=KIA$APPLC.:E05TSI                                WED 07/30/97 00:37 Page:527
         1 001061   000022 772000                    QRL     18
         1 001062   200042 756100                    STQ     GLOM+1,,AUTO

     2848     8568    3                   HDR$->VDOVLP_MRK.BMRK.BLK# = GLOM.TEMP0+GLOM.TEMP0/256*256;

   8568  1 001063   000010 772000                    QRL     8
         1 001064   000010 736000                    QLS     8
         1 001065   200042 036100                    ADLQ    GLOM+1,,AUTO
         1 001066   200046 756100                    STQ     MSGSZ+2,,AUTO
         1 001067   000100 101500                    MRL     fill='000'O
         1 001070   200046 000004                    ADSC9   MSGSZ+2,,AUTO            cn=0,n=4
         1 001071   100001 000002                    ADSC9   1,,PR1                   cn=0,n=2

     2849     8569    3                   GLOM.TEMP0 = K$RWPARM.BLKREC.RECU# ;

   8569  1 001072   000007 236100                    LDQ     7,,PR0
         1 001073   777777 376007                    ANQ     -1,DL
         1 001074   200042 756100                    STQ     GLOM+1,,AUTO

     2850     8570    3                   HDR$->VDOVLP_MRK.BMRK.REC# = GLOM.TEMP0+GLOM.TEMP0/256*256;

   8570  1 001075   000010 772000                    QRL     8
         1 001076   000010 736000                    QLS     8
         1 001077   200042 036100                    ADLQ    GLOM+1,,AUTO
         1 001100   200046 756100                    STQ     MSGSZ+2,,AUTO
         1 001101   000100 101500                    MRL     fill='000'O
         1 001102   200046 000004                    ADSC9   MSGSZ+2,,AUTO            cn=0,n=4
         1 001103   100001 400002                    ADSC9   1,,PR1                   cn=2,n=2

     2851     8571    3                   HDR$->VDOVLP_MRK.BYTSIZ = SIZEC(K$RWPARM.BLKREC);

   8571  1 001104   000100 101400                    MRL     fill='000'O
         1 001105   000006 000004 xsym               ADSC9   B_VECTNIL+6              cn=0,n=4
         1 001106   100000 200001                    ADSC9   0,,PR1                   cn=1,n=1

     2852     8572    3                   END;

PL6.E3A0      #011=KIA$VDO File=KIA$APPLC.:E05TSI                                WED 07/30/97 00:37 Page:528
   8572  1 001107   001116 710000 1                  TRA     s:8577

     2853     8573    3                 ELSE DO;

     2854     8574    3                   HDR$->VDOVLP_MRK.ID = K$RWPARM.MARKER;

   8574  1 001110   000100 100500                    MLR     fill='000'O
         1 001111   000007 000004                    ADSC9   7,,PR0                   cn=0,n=4
         1 001112   100001 000004                    ADSC9   1,,PR1                   cn=0,n=4

     2855     8575    3                   HDR$->VDOVLP_MRK.BYTSIZ = SIZEC(HDR$->VDOVLP_MRK.ID);

   8575  1 001113   000100 101400                    MRL     fill='000'O
         1 001114   000006 000004 xsym               ADSC9   B_VECTNIL+6              cn=0,n=4
         1 001115   100000 200001                    ADSC9   0,,PR1                   cn=1,n=1

     2856     8576    3                   END;

     2857     8577    2               LHDR$ = HDR$;

   8577  1 001116   200036 236100                    LDQ     HDR$,,AUTO
         1 001117   200037 756100                    STQ     LHDR$,,AUTO

     2858     8578    2               HDR$ = PINCRC(HDR$,SIZEC(KI_VDOVLP_MRK));

   8578  1 001120   000002 036003                    ADLQ    2,DU
         1 001121   200036 756100                    STQ     HDR$,,AUTO

     2859     8579    2               END;

     2860     8580        %EJECT;
PL6.E3A0      #011=KIA$VDO File=KIA$APPLC.:E05TSI                                WED 07/30/97 00:37 Page:529
     2861     8581    1           IF (FUNCTION = %KV_VDO_FNC_DAT OR FUNCTION = %KV_VDO_FNC_DAT_IMD

   8581  1 001122   200003 471500                    LDP1    @FUNCTION,,AUTO
         1 001123   100000 235100                    LDA     0,,PR1
         1 001124   000005 115007                    CMPA    5,DL
         1 001125   001132 600000 1                  TZE     s:8581+8
         1 001126   000006 115007                    CMPA    6,DL
         1 001127   001132 600000 1                  TZE     s:8581+8
         1 001130   000035 115007                    CMPA    29,DL
         1 001131   001223 601000 1                  TNZ     s:8619
         1 001132   000010 236100                    LDQ     8,,PR0
         1 001133   200000 316003                    CANQ    65536,DU
         1 001134   001223 601000 1                  TNZ     s:8619
         1 001135   020000 316003                    CANQ    8192,DU
         1 001136   001223 601000 1                  TNZ     s:8619
         1 001137   040000 316003                    CANQ    16384,DU
         1 001140   001223 601000 1                  TNZ     s:8619
         1 001141   000000 236100                    LDQ     0,,PR0
         1 001142   000001 116000 xsym               CMPQ    B_VECTNIL+1
         1 001143   001223 600000 1                  TZE     s:8619

     2862     8582    1             OR FUNCTION = %KV_VDO_FNC_STT)
     2863     8583    1             AND NOT K$RWPARM.DVE.DVBYTE.BP AND NOT K$RWPARM.DVE.DVBYTE.TRANS
     2864     8584    1             AND NOT K$RWPARM.DVE.DVBYTE.BIN
     2865     8585    1             AND K$RWPARM.MSG$ ~= ADDR(NIL)
     2866     8586    2             THEN DO;

     2867     8587    2               IF MSGSZ = 0 THEN GOTO BPEND2;

   8587  1 001144   200044 235100                    LDA     MSGSZ,,AUTO
         1 001145   001220 600000 1                  TZE     BPEND2

     2868     8588    2               CALL HFF$TRAPALT ALTRET( BAD_BUFFER);

   8588  1 001146   000002 631400 xsym               EPPR1   B_VECTNIL+2
         1 001147   000000 701000 xent               TSX1    HFF$TRAPALT
         1 001150   001470 702000 1                  TSX2    BAD_BUFFER
PL6.E3A0      #011=KIA$VDO File=KIA$APPLC.:E05TSI                                WED 07/30/97 00:37 Page:530

     2869     8589    2               IF MSGSZ > 7

   8589  1 001151   200044 235100                    LDA     MSGSZ,,AUTO
         1 001152   000010 115007                    CMPA    8,DL
         1 001153   001203 602000 1                  TNC     BPLOOPER

     2870     8590    3                 THEN DO;

     2871     8591        /*
     2872     8592                         This strange code is due to a problem with the
     2873     8593                         implementation of the TCTR instruction which faults
     2874     8594                         when accessing the first doubleword of a segment
     2875     8595                         which is not doubleword aligned. The TCTR instruction
     2876     8596                         is used for all of the data back to the first seven
     2877     8597                         bytes.  If a non-blank has not been found, the first
     2878     8598                         seven bytes are examined one byte at a time.
     2879     8599        */
     2880     8600    3                   GLOM.TEMP5 = MSGSZ - 7;

   8600  1 001154   000007 135007                    SBLA    7,DL
         1 001155   200043 755100                    STA     GLOM+2,,AUTO

     2881     8601    3                   CALL SEARCHR (MSGSZ , GLOM.TEMP5 , NK_BLNKSUPTBL ,

   8601  1 001156   200004 470500                    LDP0    @K$RWPARM,,AUTO
         1 001157   000000 471500                    LDP1    0,,PR0
         1 001160   200043 236100                    LDQ     GLOM+2,,AUTO
         1 001161   000000 620006                    EAX0    0,QL
         1 001162   000000 165540                    TCTR
         1 001163   100001 600010                    ADSC9   1,,PR1                   cn=3,n=*X0
         1 001164   000000 000000 xsym               ARG     NK_BLNKSUPTBL
         1 001165   200044 000100                    ARG     MSGSZ,,AUTO
         1 001166   200044 235100                    LDA     MSGSZ,,AUTO
         1 001167   000033 771000                    ARL     27
         1 001170   200043 755100                    STA     GLOM+2,,AUTO
         1 001171   200044 551140                    STBA    MSGSZ,'40'O,AUTO
PL6.E3A0      #011=KIA$VDO File=KIA$APPLC.:E05TSI                                WED 07/30/97 00:37 Page:531
         1 001172   001201 606400 1                  TTN     BPALLBLANK
         1 001173   200044 054100                    AOS     MSGSZ,,AUTO
         1 001174   200044 156100                    SSQ     MSGSZ,,AUTO

     2882     8602    3                     PINCRC(K$RWPARM.MSG$,7)->CHRMSG) ALTRET(BPALLBLANK);
     2883     8603    3                   MSGSZ = MSGSZ + 8;

   8603  1 001175   200044 236100                    LDQ     MSGSZ,,AUTO
         1 001176   000010 036007                    ADLQ    8,DL
         1 001177   200044 756100                    STQ     MSGSZ,,AUTO

     2884     8604    3                   GOTO BPEND;

   8604  1 001200   001215 710000 1                  TRA     BPEND

     2885     8605    3   BPALLBLANK:     MSGSZ = 7;

   8605  1 001201   000007 235007       BPALLBLANK   LDA     7,DL
         1 001202   200044 755100                    STA     MSGSZ,,AUTO

     2886     8606    3                   END;

     2887     8607    2   BPLOOPER:   IF PINCRC (K$RWPARM.MSG$ , MSGSZ-1) -> B$CHAR = ' '

   8607  1 001203   200004 470500       BPLOOPER     LDP0    @K$RWPARM,,AUTO
         1 001204   000000 471500                    LDP1    0,,PR0
         1 001205   200044 235100                    LDA     MSGSZ,,AUTO
         1 001206   040000 106505                    CMPC    fill='040'O
         1 001207   177777 600001                    ADSC9   -1,A,PR1                 cn=3,n=1
         1 001210   000035 000001 xsym               ADSC9   B_VECTNIL+29             cn=0,n=1
         1 001211   001215 601000 1                  TNZ     BPEND

     2888     8608    3                 THEN DO;

     2889     8609    3                   MSGSZ = MSGSZ - 1;

   8609  1 001212   000001 135007                    SBLA    1,DL
PL6.E3A0      #011=KIA$VDO File=KIA$APPLC.:E05TSI                                WED 07/30/97 00:37 Page:532
         1 001213   200044 755100                    STA     MSGSZ,,AUTO

     2890     8610    3                   IF MSGSZ ~= 0 THEN GOTO BPLOOPER;

   8610  1 001214   001203 601000 1                  TNZ     BPLOOPER

     2891     8611    3                   END;

     2892     8612    2   BPEND:
     2893     8613    2               CALL HFF$TRAPALT;           /* Don't trap bad buffer anymore      */

   8613  1 001215   000002 631400 xsym  BPEND        EPPR1   B_VECTNIL+2
         1 001216   000000 701000 xent               TSX1    HFF$TRAPALT
         1 001217   000000 011000                    NOP     0

     2894     8614    2   BPEND2:
     2895     8615    2               K$RWPARM.MSGSZ = MSGSZ;

   8615  1 001220   200044 235100       BPEND2       LDA     MSGSZ,,AUTO
         1 001221   200004 470500                    LDP0    @K$RWPARM,,AUTO
         1 001222   000001 755100                    STA     1,,PR0

     2896     8616    2               END;

     2897     8617        %EJECT;
PL6.E3A0      #011=KIA$VDO File=KIA$APPLC.:E05TSI                                WED 07/30/97 00:37 Page:533
     2898     8618
     2899     8619    1           IF MSGSZ > 0

   8619  1 001223   200044 235100                    LDA     MSGSZ,,AUTO
         1 001224   001315 600000 1                  TZE     s:8642

     2900     8620    2             THEN DO;

     2901     8621    2               LHDR$ = HDR$;

   8621  1 001225   200036 236100                    LDQ     HDR$,,AUTO
         1 001226   200037 756100                    STQ     LHDR$,,AUTO

     2902     8622    2               IF MSGSZ > 255

   8622  1 001227   000400 115007                    CMPA    256,DL
         1 001230   001251 602000 1                  TNC     s:8629

     2903     8623    3                 THEN DO;

     2904     8624    3                   HDR$->KV$VDOVLP_DAT2 = KI_VDOVLP_DAT2;

   8624  1 001231   200036 471500                    LDP1    HDR$,,AUTO
         1 001232   000100 100400                    MLR     fill='000'O
         1 001233   000000 000004 xsym               ADSC9   KI_VDOVLP_DAT2           cn=0,n=4
         1 001234   100000 000004                    ADSC9   0,,PR1                   cn=0,n=4

     2905     8625    3                   HDR$->KV$VDOVLP_DAT2.BYTSIZ = MSGSZ+MSGSZ/256*256;

   8625  1 001235   200044 236100                    LDQ     MSGSZ,,AUTO
         1 001236   000010 772000                    QRL     8
         1 001237   000010 736000                    QLS     8
         1 001240   200044 036100                    ADLQ    MSGSZ,,AUTO
         1 001241   200046 756100                    STQ     MSGSZ+2,,AUTO
         1 001242   000100 101500                    MRL     fill='000'O
         1 001243   200046 000004                    ADSC9   MSGSZ+2,,AUTO            cn=0,n=4
         1 001244   100000 400002                    ADSC9   0,,PR1                   cn=2,n=2
PL6.E3A0      #011=KIA$VDO File=KIA$APPLC.:E05TSI                                WED 07/30/97 00:37 Page:534

     2906     8626    3                   HDR$ = PINCRC (HDR$,SIZEC(KI_VDOVLP_DAT2));

   8626  1 001245   200036 236100                    LDQ     HDR$,,AUTO
         1 001246   000001 036003                    ADLQ    1,DU
         1 001247   200036 756100                    STQ     HDR$,,AUTO

     2907     8627    3                   END;

   8627  1 001250   001315 710000 1                  TRA     s:8642

     2908     8628    3                 ELSE DO;

     2909     8629    3                   HDR$->KV$VDOVLP_DAT1 = KI_VDOVLP_DAT1;

   8629  1 001251   200036 471500                    LDP1    HDR$,,AUTO
         1 001252   000100 100400                    MLR     fill='000'O
         1 001253   000000 000002 xsym               ADSC9   KI_VDOVLP_DAT1           cn=0,n=2
         1 001254   100000 000002                    ADSC9   0,,PR1                   cn=0,n=2

     2910     8630    3                   HDR$->KV$VDOVLP_DAT1.BYTSIZ = MSGSZ;

   8630  1 001255   000100 101500                    MRL     fill='000'O
         1 001256   200044 000004                    ADSC9   MSGSZ,,AUTO              cn=0,n=4
         1 001257   100000 200001                    ADSC9   0,,PR1                   cn=1,n=1

     2911     8631    3                   HDR$ = PINCRC (HDR$,SIZEC(KI_VDOVLP_DAT1));

   8631  1 001260   400000 036007                    ADLQ    -131072,DL
         1 001261   200036 756100                    STQ     HDR$,,AUTO

     2912     8632    3                   IF K$RWPARM.CVTDAT AND MSGSZ=K$RWPARM.KEYSZ

   8632  1 001262   000010 236100                    LDQ     8,,PR0
         1 001263   100000 316007                    CANQ    32768,DL
         1 001264   001315 600000 1                  TZE     s:8642
         1 001265   000046 236100                    LDQ     38,,PR0
PL6.E3A0      #011=KIA$VDO File=KIA$APPLC.:E05TSI                                WED 07/30/97 00:37 Page:535
         1 001266   000777 376007                    ANQ     511,DL
         1 001267   200044 116100                    CMPQ    MSGSZ,,AUTO
         1 001270   001315 601000 1                  TNZ     s:8642

     2913     8633    4                     THEN DO;

     2914     8634    4                       SUBSTR(ADDR(K$RWPARM.VLP$)->B$CHAR,0,MSGSZ)

   8634  1 001271   000000 471500                    LDP1    0,,PR0
         1 001272   200044 720100                    LXL0    MSGSZ,,AUTO
         1 001273   040140 100540                    MLR     fill='040'O
         1 001274   100000 000010                    ADSC9   0,,PR1                   cn=0,n=*X0
         1 001275   000036 000010                    ADSC9   30,,PR0                  cn=0,n=*X0

     2915     8635    4                         = SUBSTR(K$RWPARM.MSG$->B$CHAR,0,MSGSZ);
     2916     8636    4                       K$RWPARM.MSG$ = ADDR(K$RWPARM.VLP$);

   8636  1 001276   200004 236100                    LDQ     @K$RWPARM,,AUTO
         1 001277   000036 036003                    ADLQ    30,DU
         1 001300   000000 756100                    STQ     0,,PR0

     2917     8637    4                       K$RWPARM.CVTDAT = '0'B;

   8637  1 001301   000007 236000 2                  LDQ     7
         1 001302   000010 356100                    ANSQ    8,,PR0

     2918     8638    4                       CALL KIA$9TO8 (K$RWPARM.VLP$, K$RWPARM.VLP$, MSGSZ);

   8638  1 001303   200044 631500                    EPPR1   MSGSZ,,AUTO
         1 001304   200050 451500                    STP1    MSGSZ+4,,AUTO
         1 001305   200004 236100                    LDQ     @K$RWPARM,,AUTO
         1 001306   000036 036003                    ADLQ    30,DU
         1 001307   200047 756100                    STQ     MSGSZ+3,,AUTO
         1 001310   200046 756100                    STQ     MSGSZ+2,,AUTO
         1 001311   200046 630500                    EPPR0   MSGSZ+2,,AUTO
         1 001312   000021 631400 xsym               EPPR1   B_VECTNIL+17
         1 001313   000000 701000 xent               TSX1    KIA$9TO8
PL6.E3A0      #011=KIA$VDO File=KIA$APPLC.:E05TSI                                WED 07/30/97 00:37 Page:536
         1 001314   000000 011000                    NOP     0

     2919     8639    4                       END;

     2920     8640    3                   END;

     2921     8641    2               END;

     2922     8642    1           IF LHDR$ ~= ADDR(HDR)           /* vlps                               */

   8642  1 001315   200037 236100                    LDQ     LHDR$,,AUTO
         1 001316   200005 116100                    CMPQ    @HDR,,AUTO
         1 001317   001330 600000 1                  TZE     s:8649

     2923     8643    2             THEN DO;

     2924     8644    2               ADDR(HDR)->KV$VDO.VLP = '1'B;

   8644  1 001320   200005 470500                    LDP0    @HDR,,AUTO
         1 001321   003100 060400                    CSL     bolr='003'O
         1 001322   000030 000001 xsym               BDSC    B_VECTNIL+24             by=0,bit=0,n=1
         1 001323   000000 210001                    BDSC    0,,PR0                   by=1,bit=1,n=1

     2925     8645    2               LHDR$->KV$VDOVLP.LST = '1'B;

   8645  1 001324   200037 471500                    LDP1    LHDR$,,AUTO
         1 001325   003100 060400                    CSL     bolr='003'O
         1 001326   000030 000001 xsym               BDSC    B_VECTNIL+24             by=0,bit=0,n=1
         1 001327   100000 010001                    BDSC    0,,PR1                   by=0,bit=1,n=1

     2926     8646    2               END;

     2927     8647
     2928     8648        /* If this is a PRM_SET then create the TL structure if needed */
     2929     8649    1           IF FUNCTION = %KV_VDO_FNC_PRM_SET

   8649  1 001330   200003 470500                    LDP0    @FUNCTION,,AUTO
PL6.E3A0      #011=KIA$VDO File=KIA$APPLC.:E05TSI                                WED 07/30/97 00:37 Page:537
         1 001331   000000 235100                    LDA     0,,PR0
         1 001332   000023 115007                    CMPA    19,DL
         1 001333   001456 601000 1                  TNZ     s:8692

     2930     8650    2             THEN DO;

     2931     8651    2               IF K$RWPARM.PRMID ~= 0

   8651  1 001334   200004 471500                    LDP1    @K$RWPARM,,AUTO
         1 001335   100045 720100                    LXL0    37,,PR1
         1 001336   001437 600000 1                  TZE     s:8683

     2932     8652    3                 THEN DO;

     2933     8653    3                   TL.PRMID = K$RWPARM.PRMID;

   8653  1 001337   200036 473500                    LDP3    HDR$,,AUTO
         1 001340   000100 101500                    MRL     fill='000'O
         1 001341   100045 400002                    ADSC9   37,,PR1                  cn=2,n=2
         1 001342   300000 000001                    ADSC9   0,,PR3                   cn=0,n=1

     2934     8654    3                   IF K$RWPARM.PRMID = %KV_PRMID_EDTBFR OR K$RWPARM.PRMID = %
              8654                            KV_PRMID_REREADCLM

   8654  1 001343   100045 720100                    LXL0    37,,PR1
         1 001344   000203 100003                    CMPX0   131,DU
         1 001345   001350 600000 1                  TZE     s:8656
         1 001346   000212 100003                    CMPX0   138,DU
         1 001347   001354 601000 1                  TNZ     s:8659

     2935     8655    4                     THEN DO;

     2936     8656    4                       VDOSZ = 0;          /* Flag to remember by                */

   8656  1 001350   200040 450100                    STZ     VDOSZ,,AUTO

     2937     8657    4                       TL.PRMID = %KV_PRMID_SINPUT;
PL6.E3A0      #011=KIA$VDO File=KIA$APPLC.:E05TSI                                WED 07/30/97 00:37 Page:538

   8657  1 001351   000100 101400                    MRL     fill='000'O
         1 001352   000015 000004 xsym               ADSC9   B_VECTNIL+13             cn=0,n=4
         1 001353   300000 000001                    ADSC9   0,,PR3                   cn=0,n=1

     2938     8658    4                       END;

     2939     8659    3                   MSGSZ = MSGSZ-2;

   8659  1 001354   200044 235100                    LDA     MSGSZ,,AUTO
         1 001355   000002 135007                    SBLA    2,DL
         1 001356   200044 755100                    STA     MSGSZ,,AUTO

     2940     8660    3                   IF MSGSZ < 256

   8660  1 001357   000400 115007                    CMPA    256,DL
         1 001360   001370 603000 1                  TRC     s:8666

     2941     8661    4                     THEN DO;

     2942     8662    4                       TL.LENGTH = MSGSZ;

   8662  1 001361   000100 101500                    MRL     fill='000'O
         1 001362   200044 000004                    ADSC9   MSGSZ,,AUTO              cn=0,n=4
         1 001363   300000 200001                    ADSC9   0,,PR3                   cn=1,n=1

     2943     8663    4                       HDR$ = PINCRC(HDR$,LENGTHC(TL));

   8663  1 001364   200036 236100                    LDQ     HDR$,,AUTO
         1 001365   400000 036007                    ADLQ    -131072,DL
         1 001366   200036 756100                    STQ     HDR$,,AUTO

     2944     8664    4                       END;

   8664  1 001367   001417 710000 1                  TRA     s:8673

     2945     8665    4                     ELSE DO;
PL6.E3A0      #011=KIA$VDO File=KIA$APPLC.:E05TSI                                WED 07/30/97 00:37 Page:539

     2946     8666    4                       MSGSZ = MSGSZ-2;

   8666  1 001370   000002 135007                    SBLA    2,DL
         1 001371   200044 755100                    STA     MSGSZ,,AUTO

     2947     8667    4                       TL.LENGTH = TL.PRMID;

   8667  1 001372   000100 100500                    MLR     fill='000'O
         1 001373   300000 000001                    ADSC9   0,,PR3                   cn=0,n=1
         1 001374   300000 200001                    ADSC9   0,,PR3                   cn=1,n=1

     2948     8668    4                       TL.PRMID = %KV_PRMID_BIGTL;

   8668  1 001375   000100 101400                    MRL     fill='000'O
         1 001376   000010 000004 2                  ADSC9   8                        cn=0,n=4
         1 001377   300000 000001                    ADSC9   0,,PR3                   cn=0,n=1

     2949     8669    4                       PINCRC(HDR$,LENGTHC(TL))->TL.PRMID = MSGSZ/256;

   8669  1 001400   200044 236100                    LDQ     MSGSZ,,AUTO
         1 001401   000010 772000                    QRL     8
         1 001402   200046 756100                    STQ     MSGSZ+2,,AUTO
         1 001403   000100 101500                    MRL     fill='000'O
         1 001404   200046 000004                    ADSC9   MSGSZ+2,,AUTO            cn=0,n=4
         1 001405   300000 400001                    ADSC9   0,,PR3                   cn=2,n=1

     2950     8670    4                       PINCRC(HDR$,LENGTHC(TL))->TL.LENGTH = MOD(MSGSZ,256);

   8670  1 001406   200044 236100                    LDQ     MSGSZ,,AUTO
         1 001407   000377 376007                    ANQ     255,DL
         1 001410   200046 756100                    STQ     MSGSZ+2,,AUTO
         1 001411   000100 101500                    MRL     fill='000'O
         1 001412   200046 000004                    ADSC9   MSGSZ+2,,AUTO            cn=0,n=4
         1 001413   300000 600001                    ADSC9   0,,PR3                   cn=3,n=1

     2951     8671    4                       HDR$ = PINCRC(HDR$,LENGTHC(TL)*2);
PL6.E3A0      #011=KIA$VDO File=KIA$APPLC.:E05TSI                                WED 07/30/97 00:37 Page:540

   8671  1 001414   200036 236100                    LDQ     HDR$,,AUTO
         1 001415   000001 036003                    ADLQ    1,DU
         1 001416   200036 756100                    STQ     HDR$,,AUTO

     2952     8672    4                       END;

     2953     8673    3                   IF VDOSZ = 0

   8673  1 001417   200040 235100                    LDA     VDOSZ,,AUTO
         1 001420   001437 601000 1                  TNZ     s:8683

     2954     8674    4                     THEN DO;

     2955     8675    4                       SIN.STR = K$RWPARM.STR;

   8675  1 001421   200036 473500                    LDP3    HDR$,,AUTO
         1 001422   000100 100500                    MLR     fill='000'O
         1 001423   100040 600001                    ADSC9   32,,PR1                  cn=3,n=1
         1 001424   300000 000001                    ADSC9   0,,PR3                   cn=0,n=1

     2956     8676    4                       SIN.FIL = '0'B;

   8676  1 001425   000100 100400                    MLR     fill='000'O
         1 001426   000002 000001 xsym               ADSC9   B_VECTNIL+2              cn=0,n=1
         1 001427   300000 200003                    ADSC9   0,,PR3                   cn=1,n=3

     2957     8677    4                       HDR$ = PINCRC(HDR$,LENGTHV(SIN));

   8677  1 001430   600000 036007                    ADLQ    -65536,DL
         1 001431   200036 756100                    STQ     HDR$,,AUTO

     2958     8678    4                       IF K$RWPARM.PRMID = %KV_PRMID_EDTBFR

   8678  1 001432   100045 720100                    LXL0    37,,PR1
         1 001433   000203 100003                    CMPX0   131,DU
         1 001434   001437 601000 1                  TNZ     s:8683
PL6.E3A0      #011=KIA$VDO File=KIA$APPLC.:E05TSI                                WED 07/30/97 00:37 Page:541

     2959     8679    4                         THEN
     2960     8680    4                           HDR$ = PINCRC(HDR$,1);

   8680  1 001435   200000 036007                    ADLQ    65536,DL
         1 001436   200036 756100                    STQ     HDR$,,AUTO

     2961     8681    4                       END;

     2962     8682    3                   END;

     2963     8683    2               IF K$RWPARM.V$~=ADDR(NIL)

   8683  1 001437   100043 236100                    LDQ     35,,PR1
         1 001440   000001 116000 xsym               CMPQ    B_VECTNIL+1
         1 001441   001456 600000 1                  TZE     s:8692

     2964     8684    3                 THEN DO;

     2965     8685    3                   SUBSTR(HDR$->B$CHAR,0,K$RWPARM.VSZ) =

   8685  1 001442   100045 220100                    LDX0    37,,PR1
         1 001443   100043 473500                    LDP3    35,,PR1
         1 001444   100045 221100                    LDX1    37,,PR1
         1 001445   200036 474500                    LDP4    HDR$,,AUTO
         1 001446   040140 100540                    MLR     fill='040'O
         1 001447   300000 000011                    ADSC9   0,,PR3                   cn=0,n=*X1
         1 001450   400000 000010                    ADSC9   0,,PR4                   cn=0,n=*X0

     2966     8686    3                     SUBSTR(K$RWPARM.V$->B$CHAR,0,K$RWPARM.VSZ);
     2967     8687    3                   HDR$ = PINCRC(HDR$,K$RWPARM.VSZ);

   8687  1 001451   100045 236100                    LDQ     37,,PR1
         1 001452   000022 772000                    QRL     18
         1 001453   000020 736000                    QLS     16
         1 001454   200036 036100                    ADLQ    HDR$,,AUTO
         1 001455   200036 756100                    STQ     HDR$,,AUTO
PL6.E3A0      #011=KIA$VDO File=KIA$APPLC.:E05TSI                                WED 07/30/97 00:37 Page:542

     2968     8688    3                   END;

     2969     8689
     2970     8690    2               END;

     2971     8691
     2972     8692    1           K$RWPARM.UHDR$ = ADDR(HDR);

   8692  1 001456   200005 236100                    LDQ     @HDR,,AUTO
         1 001457   200004 471500                    LDP1    @K$RWPARM,,AUTO
         1 001460   100014 756100                    STQ     12,,PR1

     2973     8693    1           K$RWPARM.UHDRSZ = POFFC(HDR$,ADDR(HDR));

   8693  1 001461   000020 772000                    QRL     16
         1 001462   200046 756100                    STQ     MSGSZ+2,,AUTO
         1 001463   200036 236100                    LDQ     HDR$,,AUTO
         1 001464   000020 772000                    QRL     16
         1 001465   200046 136100                    SBLQ    MSGSZ+2,,AUTO
         1 001466   100015 756100                    STQ     13,,PR1

     2974     8694    1           RETURN;

   8694  1 001467   000000 702200 xent               TSX2  ! X66_ARET

     2975     8695    1   BAD_BUFFER:
     2976     8696    1           CALL HFF$TRAPALT;               /* Don't trap bad buffer anymore      */

   8696  1 001470   000002 631400 xsym  BAD_BUFFER   EPPR1   B_VECTNIL+2
         1 001471   000000 701000 xent               TSX1    HFF$TRAPALT
         1 001472   000000 011000                    NOP     0

     2977     8697    1           K$RWPARM.ERR = %K$BAD_BUFFER;

   8697  1 001473   000002 235007                    LDA     2,DL
         1 001474   200004 470500                    LDP0    @K$RWPARM,,AUTO
PL6.E3A0      #011=KIA$VDO File=KIA$APPLC.:E05TSI                                WED 07/30/97 00:37 Page:543
         1 001475   000013 755100                    STA     11,,PR0

     2978     8698    1           ALTRETURN;

   8698  1 001476   000000 702200 xent               TSX2  ! X66_AALT

TRAN_PRMID
 Sect OctLoc
   0     000   000026 000025   000000 203212   024000 000000   000000 000000    ................

(unnamed)
 Sect OctLoc
   2     000   777777 763777   777777 774777   747777 777777   000077 600000    .............?..
   2     004   040040 040040   040040 040040   000001 400000   777777 677777            ........
   2     010   000000 000377                                                    ....
     2979     8699
     2980     8700    1   END KIA$VDO;
     2981     8701        %EOD;

PL6.E3A0      #011=KIA$VDO File=KIA$APPLC.:E05TSI                                WED 07/30/97 00:37 Page:544
--  Include file information  --

   K_CP6_M.:E05TOU  is referenced.
   UM_CP6.:E05TOU  is referenced.
   KV_PRMID_E.:E05TOU  is referenced.
   NK_VFC_C.:E05TOU  is referenced.
   NK$LDCT.:E05TOU  is referenced.
   KI_DATA_R.:E05TOU  cannot be made into a system file and is referenced.
   K_SUBS_C.:E05TOU  is referenced.
   K$RWPARM.:E05TOU  is referenced.
   K_DATA_R.:E05TOU  cannot be made into a system file and is referenced.
   KV$VDO.:E05TOU  is referenced.
   KI$CP6V_C.:E05TOU  is referenced.
   CP_6_SUBS.:E05TOU  is referenced.
      No diagnostics issued in procedure KIA$VDO.
PL6.E3A0      #011=KIA$VDO File=KIA$APPLC.:E05TSI                                WED 07/30/97 00:37 Page:545

 **** Variables and constants ****

  ****  Section 000 RoData KIA$VDO

  ****  Scalars and arrays  ****
OctLoc.c.b A Datatyp(siz) R M Lvl/name                 OctLoc.c.b A Datatyp(siz) R M Lvl/name

     0-0-0/b UBIN(9)     r     1 TRAN_PRMID(0:15)

  ****  Auto variables  ****

  ****  Scalars and arrays  ****
OctLoc.c.b A Datatyp(siz) R M Lvl/name                 OctLoc.c.b A Datatyp(siz) R M Lvl/name

     3-0-0/w PTR         r     1 @FUNCTION                  5-0-0/w PTR         r     1 @HDR
     4-0-0/w PTR         r     1 @K$RWPARM                 *0-0-0/w UBIN        r     1 FUNCTION
    41-0-0/w STRC(108)   r     1 GLOM                      *0-0-0/c CHAR(100)   r     1 HDR
    36-0-0/w PTR         r     1 HDR$                      *0-0-0/d STRC(1404)  r     1 K$RWPARM
    37-0-0/w PTR         r     1 LHDR$                     44-0-0/w UBIN        r     1 MSGSZ
    37-0-0/w UBIN        r     1 TEMP1                     40-0-0/w UBIN        r     1 VDOSZ

  ****  SYMREF variables  ****

  ****  Scalars and arrays  ****
OctLoc.c.b A Datatyp(siz) R M Lvl/name                 OctLoc.c.b A Datatyp(siz) R M Lvl/name

     0-0-0/w PTR         r     1 KI_FEI$$
     0-0-0/c UBIN(9)     r     1 KI_VDOBYTSIZ(0:34)
     0-0-0/h STRC(108)   r     1 KI_VDOVLP_CG_MSGID         0-0-0/h STRC(108)   r     1 KI_VDOVLP_CG_MSGTYP
     0-0-0/h STRC(108)   r     1 KI_VDOVLP_CG_STA           0-0-0/h STRC(18)    r     1 KI_VDOVLP_DAT1
     0-0-0/h STRC        r     1 KI_VDOVLP_DAT2             0-0-0/h STRC(54)    r     1 KI_VDOVLP_ERR
     0-0-0/h STRC        r     1 KI_VDOVLP_FLDID            0-0-0/h STRC(18)    r     1 KI_VDOVLP_KEY
     0-0-0/h STRC(72)    r     1 KI_VDOVLP_MRK              0-0-0/d CHAR(512)   r     1 NK_BLNKSUPTBL

  ****  BASED and DCB variables  ****

  ****  Scalars and arrays  ****
PL6.E3A0      #011=KIA$VDO File=KIA$APPLC.:E05TSI                                WED 07/30/97 00:37 Page:546
OctLoc.c.b A Datatyp(siz) R M Lvl/name                 OctLoc.c.b A Datatyp(siz) R M Lvl/name

     0-0-0/c CHAR        r     1 B$CHAR                     0-0-0/c CHAR(2)     r     1 B$FLDID
     0-0-0/b BIT (2)     r     1 BIT2BSD                    0-0-0/b BIT         r     1 BT36
     0-0-0/c CHAR(12)    r     1 CHR12BSD                   0-0-0/c CHAR(4)     r     1 CHR4BSD
     0-0-0/c ACHR        r     1 CHRMSG                     0-0-0/c STRC        r     1 DEST
     0-0-0/d STRC(144)   r     1 FPT$DCLFLD_V               0-0-0/d STRC(72)    r     1 FPT$ERASE_V
     0-0-0/d STRC(144)   r     1 FPT$TRMPRG_V               0-0-0/c ACHR        r     1 KEY
     0-0-0/h STRC(18)    r     1 KV$VDO                     0-0-0/h STRC(18)    r     1 KV$VDOVLP
     0-0-0/h STRC(108)   r     1 KV$VDOVLP_CG_MSGID         0-0-0/h STRC(108)   r     1 KV$VDOVLP_CG_MSGTYP
     0-0-0/h STRC(108)   r     1 KV$VDOVLP_CG_STA           0-0-0/h STRC(18)    r     1 KV$VDOVLP_DAT1
     0-0-0/h STRC        r     1 KV$VDOVLP_DAT2             0-0-0/h STRC(54)    r     1 KV$VDOVLP_ERR
     0-0-0/h STRC        r     1 KV$VDOVLP_FLDID            0-0-0/h STRC(18)    r     1 KV$VDOVLP_KEY
     0-0-0/h STRC(108)   r     1 KV$VDO_DCLFLD              0-0-0/h STRC        r     1 KV$VDO_SLCGRPRND
     0-0-0/c STRC(9)     r     1 NK$VFC                     0-0-0/c STRC        r     1 SIN
     0-0-0/b STRC(32)    r     1 SOURCE                     0-0-0/c STRC(18)    r     1 TL
     0-0-0/c ASTR(0)     r     1 VDO                        0-0-0/h STRC(72)    r     1 VDOVLP_MRK
     0-0-0/d STRC(72)    r     1 VLP$FLDATR                 0-0-0/w STRC(54)    r     1 WABLKDAT
     0-0-0/w STRC        r     1 WACLSSTR                   0-0-0/w STRC        r     1 WADAT
     0-0-0/w STRC(108)   r     1 WADCLFLD                   0-0-0/w STRC        r     1 WADCLSTR
     0-0-0/w STRC        r     1 WADLT                      0-0-0/w STRC        r     1 WAERS
     0-0-0/w STRC(54)    r     1 WAOPNSTR                   0-0-0/w STRC(90)    r     1 WARQSDAT
     0-0-0/w STRC(54)    r     1 WARQSPRM                   0-0-0/w STRC        r     1 WASLCGRPRND
     0-0-0/w STRC        r     1 WASLCQLF                   0-0-0/w STRC(18)    r     1 WAVDO


   Procedure KIA$VDO requires 831 words for executable code.
   Procedure KIA$VDO requires 42 words of local(AUTO) storage.
PL6.E3A0      #011=KIA$VDO File=KIA$APPLC.:E05TSI                                WED 07/30/97 00:37 Page:547
          *** CROSS REFERENCE LISTING ***
**     DENOTES     IDENTIFIER DEFINITION
<<                 IDENTIFIER'S VALUE SET
>>                 IDENTIFIER'S VALUE USED
<>                 IDENTIFIER SET AND/OR USED
--                 IDENTIFIER REFERENCED
PL6.E3A0      #011=KIA$VDO File=KIA$APPLC.:E05TSI                                WED 07/30/97 00:37 Page:548
          MINI XREF LISTING

B$CHAR
      7040**DCL      8607>>IF       8634<<ASSIGN   8634>>ASSIGN   8685<<ASSIGN   8685>>ASSIGN
B$FLDID
      6921**DCL      8554>>ASSIGN
BAD_BUFFER
      8696**LABEL    8588--CALLALT
BIT2BSD
      7690**DCL      8377<<ASSIGN   8377>>ASSIGN   8411<<ASSIGN   8411>>ASSIGN
BPALLBLANK
      8605**LABEL    8601--CALLALT
BPEND
      8613**LABEL    8604--GOTO
BPEND2
      8615**LABEL    8587--GOTO
BPLOOPER
      8607**LABEL    8610--GOTO
BT36
      7693**DCL      8479>>ASSIGN
CHR12BSD
      7692**DCL      8485<<ASSIGN   8485>>ASSIGN
CHR4BSD
      7694**DCL      8493<<ASSIGN   8493>>ASSIGN   8499<<ASSIGN   8499>>ASSIGN
CHRMSG
      7706**DCL      8601>>CALLBLT
DEST.BY1
      7701**DCL      8531<<ASSIGN
DEST.BY2
      7702**DCL      8533<<ASSIGN
DEST.BY3
      7703**DCL      8535<<ASSIGN
DEST.BY4
      7704**DCL      8537<<ASSIGN
PL6.E3A0      #011=KIA$VDO File=KIA$APPLC.:E05TSI                                WED 07/30/97 00:37 Page:549
EMR$HOST2FEP
      8321**DCL-ENT  8507--CALL
FPT$DCLFLD_V.CLM
      6941**DCL      8382>>ASSIGN
FPT$DCLFLD_V.ID
      6941**DCL      8384>>ASSIGN
FPT$DCLFLD_V.LIN
      6940**DCL      8381>>ASSIGN
FPT$DCLFLD_V.WDT
      6941**DCL      8383>>ASSIGN
FPT$ERASE_V.PRT
      6957**DCL      8411--ASSIGN
FPT$TRMPRG_V.CTLFLG
      6984**DCL      8408>>ASSIGN
FPT$TRMPRG_V.CTLFLG.RSTBRK
      6985**DCL      6985--REDEF
FUNCTION
      4328**DCL         6--PROC     8349>>IF       8354>>ASSIGN   8356>>ASSIGN   8369>>DOCASE   8561>>IF
      8581>>IF       8581>>IF       8581>>IF       8649>>IF
GLOM
      7015**DCL      8485--ASSIGN
GLOM.ERR
      7021**DCL      7022--REDEF    7023--REDEF    7024--REDEF    7030--REDEF    8507<>CALL     8509>>ASSIGN
GLOM.FLDID
      7016**DCL      7020--REDEF    8479<<ASSIGN
GLOM.FLDID.ID
      7018**DCL      7019--REDEF    8555>>ASSIGN   8555>>ASSIGN
GLOM.FLDID.IDC
      7019**DCL      8554<<ASSIGN
GLOM.OP$
      7035**DCL      7036--REDEF    7037--REDEF    7038--REDEF    7040--IMP-PTR
GLOM.OP6$
      7020**DCL      7695--IMP-PTR  8529<<ASSIGN   8531>>ASSIGN   8533>>ASSIGN   8535>>ASSIGN   8537>>ASSIGN
GLOM.TEMP0
      7022**DCL      8372<<ASSIGN   8373>>ASSIGN   8373>>ASSIGN   8450<<ASSIGN   8451>>ASSIGN   8451>>ASSIGN
      8452<<ASSIGN   8453>>ASSIGN   8453>>ASSIGN   8457<<ASSIGN   8458>>ASSIGN   8458>>ASSIGN   8478<<ASSIGN
PL6.E3A0      #011=KIA$VDO File=KIA$APPLC.:E05TSI                                WED 07/30/97 00:37 Page:550
      8522<<ASSIGN   8524>>IF       8529>>ASSIGN   8532>>IF       8534>>IF       8536>>IF       8567<<ASSIGN
      8568>>ASSIGN   8568>>ASSIGN   8569<<ASSIGN   8570>>ASSIGN   8570>>ASSIGN
GLOM.TEMP2.B1
      7026**DCL      8481>>ASSIGN
GLOM.TEMP2.B2
      7027**DCL      8482>>ASSIGN
GLOM.TEMP2.B3
      7028**DCL      8483>>ASSIGN
GLOM.TEMP2.B4
      7029**DCL      8484>>ASSIGN
GLOM.TEMP3.BY1
      7031**DCL      8481<<ASSIGN
GLOM.TEMP3.BY2
      7032**DCL      8482<<ASSIGN
GLOM.TEMP3.BY3
      7033**DCL      8483<<ASSIGN
GLOM.TEMP3.BY4
      7034**DCL      8484<<ASSIGN
GLOM.TEMP4
      7038**DCL      8480<<ASSIGN
GLOM.TEMP5
      7036**DCL      7706--IMP-SIZ  8600<<ASSIGN   8601<<CALLBLT  8601>>CALLBLT
HDR
      4691**DCL         6--PROC     8348--ASSIGN   8642--IF       8644--ASSIGN   8692--ASSIGN   8693--ASSIGN
HDR$
      7005**DCL      4695--IMP-PTR  4698--IMP-PTR  7006--REDEF    7574--IMP-PTR  7602--IMP-PTR  7646--IMP-PTR
      7700--IMP-PTR  7707--IMP-PTR  7753--IMP-PTR  7880--IMP-PTR  7924--IMP-PTR  7970--IMP-PTR  8014--IMP-PTR
      8058--IMP-PTR  8107--IMP-PTR  8151--IMP-PTR  8234--IMP-PTR  8348<<ASSIGN   8355>>ASSIGN   8356>>ASSIGN
      8358>>ASSIGN   8373>>ASSIGN   8374>>ASSIGN   8377>>ASSIGN   8381>>ASSIGN   8382>>ASSIGN   8383>>ASSIGN
      8385>>ASSIGN   8388>>ASSIGN   8389>>ASSIGN   8392>>ASSIGN   8393>>ASSIGN   8396>>ASSIGN   8397>>ASSIGN
      8400>>ASSIGN   8401>>ASSIGN   8402>>ASSIGN   8405>>ASSIGN   8408>>ASSIGN   8411>>ASSIGN   8415>>ASSIGN
      8416>>ASSIGN   8417>>ASSIGN   8418>>ASSIGN   8441>>ASSIGN   8442>>ASSIGN   8443>>ASSIGN   8444>>ASSIGN
      8445>>ASSIGN   8448>>ASSIGN   8449>>ASSIGN   8451>>ASSIGN   8453>>ASSIGN   8456>>ASSIGN   8458>>ASSIGN
      8463>>ASSIGN   8464>>ASSIGN   8467>>ASSIGN   8470>>ASSIGN   8474>>ASSIGN   8475<<ASSIGN   8475>>ASSIGN
      8485>>ASSIGN   8487>>ASSIGN   8488<<ASSIGN   8488>>ASSIGN   8493>>ASSIGN   8494>>ASSIGN   8495>>ASSIGN
      8496<<ASSIGN   8496>>ASSIGN   8499>>ASSIGN   8500>>ASSIGN   8501>>ASSIGN   8502<<ASSIGN   8502>>ASSIGN
PL6.E3A0      #011=KIA$VDO File=KIA$APPLC.:E05TSI                                WED 07/30/97 00:37 Page:551
      8508>>ASSIGN   8509>>ASSIGN   8510>>ASSIGN   8511<<ASSIGN   8511>>ASSIGN   8518>>ASSIGN   8519>>ASSIGN
      8520>>ASSIGN   8521<<ASSIGN   8521>>ASSIGN   8523>>ASSIGN   8529>>ASSIGN   8531>>ASSIGN   8533>>ASSIGN
      8535>>ASSIGN   8537>>ASSIGN   8546<<ASSIGN   8546>>ASSIGN   8551>>ASSIGN   8552>>ASSIGN   8553>>ASSIGN
      8555>>ASSIGN   8556<<ASSIGN   8556>>ASSIGN   8560>>ASSIGN   8563>>ASSIGN   8564>>ASSIGN   8568>>ASSIGN
      8570>>ASSIGN   8571>>ASSIGN   8574>>ASSIGN   8575>>ASSIGN   8575>>ASSIGN   8577>>ASSIGN   8578<<ASSIGN
      8578>>ASSIGN   8621>>ASSIGN   8624>>ASSIGN   8625>>ASSIGN   8626<<ASSIGN   8626>>ASSIGN   8629>>ASSIGN
      8630>>ASSIGN   8631<<ASSIGN   8631>>ASSIGN   8653>>ASSIGN   8657>>ASSIGN   8662>>ASSIGN   8663<<ASSIGN
      8663>>ASSIGN   8667>>ASSIGN   8667>>ASSIGN   8668>>ASSIGN   8669>>ASSIGN   8670>>ASSIGN   8671<<ASSIGN
      8671>>ASSIGN   8675>>ASSIGN   8676>>ASSIGN   8677<<ASSIGN   8677>>ASSIGN   8680<<ASSIGN   8680>>ASSIGN
      8685>>ASSIGN   8687<<ASSIGN   8687>>ASSIGN   8693>>ASSIGN
HFF$TRAPALT
      8322**DCL-ENT  8588--CALL     8613--CALL     8696--CALL
K$RWPARM
      4396**DCL         6--PROC
K$RWPARM.BLKREC
      4422**DCL      4447--REDEF    8571--ASSIGN
K$RWPARM.BLKREC.BLKU#
      4423**DCL      4425--REDEF    8567>>ASSIGN
K$RWPARM.BLKREC.RECU#
      4435**DCL      4437--REDEF    8569>>ASSIGN
K$RWPARM.CVTDAT
      4488**DCL      8540<<ASSIGN   8632>>IF       8637<<ASSIGN
K$RWPARM.DVE.DVBYTE.BIN
      4464**DCL      8363>>IF       8581>>IF
K$RWPARM.DVE.DVBYTE.BP
      4461**DCL      8445>>ASSIGN   8581>>IF
K$RWPARM.DVE.DVBYTE.DCBHDR
      4468**DCL      8402>>ASSIGN
K$RWPARM.DVE.DVBYTE.NODAT
      4467**DCL      8444>>ASSIGN
K$RWPARM.DVE.DVBYTE.REREAD
      4463**DCL      8443>>ASSIGN
K$RWPARM.DVE.DVBYTE.TRANS
      4465**DCL      8403>>IF       8446>>IF       8581>>IF
K$RWPARM.DVE.DVBYTE.VFC
      4462**DCL      4463--REDEF    8424>>IF
PL6.E3A0      #011=KIA$VDO File=KIA$APPLC.:E05TSI                                WED 07/30/97 00:37 Page:552
K$RWPARM.DVE.EOMCHAR
      4470**DCL      4474--REDEF
K$RWPARM.DVE.VFC
      4474**DCL      8401>>ASSIGN   8424--IF       8427--ASSIGN
K$RWPARM.ERR
      4534**DCL      4539--REDEF    8697<<ASSIGN
K$RWPARM.FC
      4498**DCL      4499--REDEF
K$RWPARM.FLDID
      4680**DCL      4681--REDEF
K$RWPARM.FPT$
      4561**DCL      4568--REDEF
K$RWPARM.KEY$
      4678**DCL      8513>>IF       8523>>ASSIGN   8554>>ASSIGN
K$RWPARM.KEYSZ
      4689**DCL      6922--IMP-SIZ  8417>>ASSIGN   8513>>IF       8517>>IF       8519>>ASSIGN   8522>>ASSIGN
      8523>>ASSIGN   8523>>ASSIGN   8546>>ASSIGN   8549>>IF       8632>>IF
K$RWPARM.KEYTYPE
      4687**DCL      4688--REDEF    8515>>IF       8524>>IF       8524>>IF       8524>>IF       8541>>IF
K$RWPARM.MARKER
      4447**DCL      8574>>ASSIGN
K$RWPARM.MAXNMBBYT
      4675**DCL      8450>>ASSIGN
K$RWPARM.MAXNMBRCR
      4674**DCL      8449>>ASSIGN
K$RWPARM.MAXRCRBYTSIZ
      4676**DCL      8372>>ASSIGN   8452>>ASSIGN   8457>>ASSIGN
K$RWPARM.MRKTYP
      4672**DCL      8558>>IF       8564>>ASSIGN   8565>>IF
K$RWPARM.MSG$
      4397**DCL      4403--REDEF    8359>>IF       8581>>IF       8601>>CALLBLT  8607>>IF       8634>>ASSIGN
      8636<<ASSIGN
K$RWPARM.MSGID
      4509**DCL      4514--REDEF    8476>>IF       8478>>ASSIGN
K$RWPARM.MSGIDXT
      4522**DCL      4526--REDEF    8480>>ASSIGN
PL6.E3A0      #011=KIA$VDO File=KIA$APPLC.:E05TSI                                WED 07/30/97 00:37 Page:553
K$RWPARM.MSGSZ
      4404**DCL      8365<<ASSIGN   8365>>ASSIGN   8366>>ASSIGN   8615<<ASSIGN
K$RWPARM.MSGTYP
      4413**DCL      8491>>IF       8494>>ASSIGN
K$RWPARM.MSG_ERRCODE
      4657**DCL      8505>>IF       8507<>CALL
K$RWPARM.NRECS
      4688**DCL      8416>>ASSIGN
K$RWPARM.ORG
      4658**DCL      4659--REDEF    8415>>ASSIGN
K$RWPARM.PRMID
      4681**DCL      8424>>IF       8427<<ASSIGN   8428>>IF       8430>>IF       8433>>IF       8456>>ASSIGN
      8651>>IF       8653>>ASSIGN   8654>>IF       8654>>IF       8678>>IF
K$RWPARM.RSN
      4499**DCL      8374>>ASSIGN
K$RWPARM.SPARE
      4671**DCL      8418>>ASSIGN
K$RWPARM.STATION
      4408**DCL      8497>>IF       8500>>ASSIGN
K$RWPARM.STR
      4673**DCL      8358>>ASSIGN   8675>>ASSIGN
K$RWPARM.STRID
      4659**DCL      8396>>ASSIGN
K$RWPARM.THDRSZ
      4602**DCL      4606--REDEF
K$RWPARM.UHDR$
      4547**DCL      8692<<ASSIGN
K$RWPARM.UHDRSZ
      4552**DCL      4694--IMP-SIZ  8693<<ASSIGN
K$RWPARM.V$
      4677**DCL      6932--IMP-PTR  6952--IMP-PTR  6968--IMP-PTR  6984--IMP-PTR  8380>>ASSIGN   8408>>ASSIGN
      8411>>ASSIGN   8421>>IF       8683>>IF       8685>>ASSIGN
K$RWPARM.VDOFLGS
      4660**DCL      4671--REDEF
K$RWPARM.VDOFLGS.DLTSTR
      4664**DCL      8377--ASSIGN
PL6.E3A0      #011=KIA$VDO File=KIA$APPLC.:E05TSI                                WED 07/30/97 00:37 Page:554
K$RWPARM.VDOFLGS.INCNMBRCR
      4669**DCL      8442>>ASSIGN
K$RWPARM.VDOFLGS.REDSTR
      4666**DCL      8397>>ASSIGN
K$RWPARM.VDOFLGS.WAIT
      4667**DCL      8441>>ASSIGN
K$RWPARM.VLP$
      4652**DCL      7000--IMP-PTR  8386>>IF       8388>>ASSIGN   8392>>ASSIGN   8393>>ASSIGN   8461>>IF
      8463>>ASSIGN   8467>>ASSIGN   8470>>ASSIGN   8634--ASSIGN   8636--ASSIGN   8638<>CALL     8638<>CALL
K$RWPARM.VSZ
      4679**DCL      8423>>ASSIGN   8685>>ASSIGN   8685>>ASSIGN   8687>>ASSIGN
KEY
      6922**DCL      8523<<ASSIGN   8523>>ASSIGN
KIA$9TO8
      8320**DCL-ENT  8638--CALL
KI_FEI$$
      2757**DCL      2758--IMP-PTR
KI_VDOBYTSIZ
      7567**DCL      8354>>ASSIGN
KI_VDOVLP_CG_MSGID
      7084**DCL      8479--ASSIGN   8488--ASSIGN
KI_VDOVLP_CG_MSGTYP
      7136**DCL      8493--ASSIGN   8496--ASSIGN
KI_VDOVLP_CG_STA
      7188**DCL      8499--ASSIGN   8502--ASSIGN
KI_VDOVLP_DAT1
      7239**DCL      8629>>ASSIGN   8631--ASSIGN
KI_VDOVLP_DAT2
      7289**DCL      8624>>ASSIGN   8626--ASSIGN
KI_VDOVLP_ERR
      7339**DCL      8508>>ASSIGN   8511--ASSIGN
KI_VDOVLP_FLDID
      7435**DCL      8551>>ASSIGN   8556--ASSIGN
KI_VDOVLP_KEY
      7486**DCL      8518>>ASSIGN   8521--ASSIGN
KI_VDOVLP_MRK
PL6.E3A0      #011=KIA$VDO File=KIA$APPLC.:E05TSI                                WED 07/30/97 00:37 Page:555
      7536**DCL      8560>>ASSIGN   8578--ASSIGN
KV$VDO.VLP
      4826**DCL      8644<<ASSIGN
KV$VDOVLP.LST
      6235**DCL      8645<<ASSIGN
KV$VDOVLP_CG_MSGID
      6333**DCL      8485--ASSIGN
KV$VDOVLP_CG_MSGTYP
      6386**DCL      8493--ASSIGN
KV$VDOVLP_CG_MSGTYP.CG_MSGTYP
      6400**DCL      8494<<ASSIGN
KV$VDOVLP_CG_STA
      6439**DCL      8499--ASSIGN
KV$VDOVLP_CG_STA.CG_STA
      6453**DCL      8500<<ASSIGN
KV$VDOVLP_DAT1
      6491**DCL      8629<<ASSIGN
KV$VDOVLP_DAT1.BYTSIZ
      6497**DCL      8630<<ASSIGN
KV$VDOVLP_DAT2
      6542**DCL      8624<<ASSIGN
KV$VDOVLP_DAT2.BYTSIZ
      6550**DCL      8625<<ASSIGN
KV$VDOVLP_ERR
      6644**DCL      8508<<ASSIGN
KV$VDOVLP_ERR.ERRCODE
      6673**DCL      8509<<ASSIGN
KV$VDOVLP_FLDID
      6741**DCL      8551<<ASSIGN
KV$VDOVLP_FLDID.BYTSIZ
      6747**DCL      8552<<ASSIGN
KV$VDOVLP_FLDID.FLDID
      6755**DCL      8555<<ASSIGN
KV$VDOVLP_KEY
      6793**DCL      8518<<ASSIGN
KV$VDOVLP_KEY.BYTSIZ
PL6.E3A0      #011=KIA$VDO File=KIA$APPLC.:E05TSI                                WED 07/30/97 00:37 Page:556
      6799**DCL      8519<<ASSIGN
KV$VDOVLP_KEY.TYP
      6797**DCL      8543<<ASSIGN
KV$VDO_DCLFLD.GRPRND
      5109**DCL      8388--ASSIGN
KV$VDO_SLCGRPRND.GRPRND
      5971**DCL      8463--ASSIGN
K_RWPARM_CON.BLKREC
      2443**DCL      2468--REDEF
K_RWPARM_CON.BLKREC.BLKU#
      2444**DCL      2446--REDEF
K_RWPARM_CON.BLKREC.RECU#
      2456**DCL      2458--REDEF
K_RWPARM_CON.DVE.DVBYTE.VFC
      2483**DCL      2484--REDEF
K_RWPARM_CON.DVE.EOMCHAR
      2491**DCL      2495--REDEF
K_RWPARM_CON.ERR
      2555**DCL      2560--REDEF
K_RWPARM_CON.FC
      2519**DCL      2520--REDEF
K_RWPARM_CON.FLDID
      2701**DCL      2702--REDEF
K_RWPARM_CON.FPT$
      2582**DCL      2589--REDEF
K_RWPARM_CON.KEYTYPE
      2708**DCL      2709--REDEF
K_RWPARM_CON.MSG$
      2418**DCL      2424--REDEF
K_RWPARM_CON.MSGID
      2530**DCL      2535--REDEF
K_RWPARM_CON.MSGIDXT
      2543**DCL      2547--REDEF
K_RWPARM_CON.ORG
      2679**DCL      2680--REDEF
K_RWPARM_CON.THDRSZ
PL6.E3A0      #011=KIA$VDO File=KIA$APPLC.:E05TSI                                WED 07/30/97 00:37 Page:557
      2623**DCL      2627--REDEF
K_RWPARM_CON.VDOFLGS
      2681**DCL      2692--REDEF
LHDR$
      7011**DCL      7012--REDEF    7013--REDEF    8380<<ASSIGN   8381>>ASSIGN   8382>>ASSIGN   8383>>ASSIGN
      8384>>ASSIGN   8474<<ASSIGN   8487<<ASSIGN   8495<<ASSIGN   8501<<ASSIGN   8510<<ASSIGN   8520<<ASSIGN
      8543>>ASSIGN   8553<<ASSIGN   8577<<ASSIGN   8621<<ASSIGN   8642>>IF       8645>>ASSIGN
MSGSZ
      7039**DCL      8361<<ASSIGN   8366<<ASSIGN   8423<<ASSIGN   8423>>ASSIGN   8432<<ASSIGN   8432>>ASSIGN
      8435<<ASSIGN   8435>>ASSIGN   8436>>IF       8436<<ASSIGN   8436>>ASSIGN   8437<<ASSIGN   8437>>ASSIGN
      8587>>IF       8589>>IF       8600>>ASSIGN   8601<<CALLBLT  8603<<ASSIGN   8603>>ASSIGN   8605<<ASSIGN
      8607>>IF       8609<<ASSIGN   8609>>ASSIGN   8610>>IF       8615>>ASSIGN   8619>>IF       8622>>IF
      8625>>ASSIGN   8625>>ASSIGN   8630>>ASSIGN   8632>>IF       8634>>ASSIGN   8634>>ASSIGN   8638<>CALL
      8659<<ASSIGN   8659>>ASSIGN   8660>>IF       8662>>ASSIGN   8666<<ASSIGN   8666>>ASSIGN   8669>>ASSIGN
      8670>>ASSIGN
NK$LDCT.DDT$
      4344**DCL      4344--REDEF
NK$LDCT.IOQ$
      4343**DCL      4344--REDEF
NK$LDCT.LDCTX
      4345**DCL      4345--REDEF
NK$LDCT.LKFLG.ABORTED
      4357**DCL      4358--REDEF
NK$LDCT.RLCID.LDCTX
      4367**DCL      4367--REDEF
NK$LDCT.STA$
      4363**DCL      4364--REDEF
NK$LDCT.SYMB$
      4342**DCL      4342--REDEF    4342--REDEF    4343--REDEF
NK$VFC.COUNT
      4718**DCL      8427>>ASSIGN
NK$VFC.FCN
      4718**DCL      8424>>IF
NK_BLNKSUPTBL
      7046**DCL      8601>>CALLBLT
SC_BADVDOFNC
PL6.E3A0      #011=KIA$VDO File=KIA$APPLC.:E05TSI                                WED 07/30/97 00:37 Page:558
      8323**DCL-ENT  8351--CALL
SIN
      4698**DCL      8432--ASSIGN   8435--ASSIGN   8677--ASSIGN
SIN.FIL
      4700**DCL      8676<<ASSIGN
SIN.STR
      4699**DCL      8675<<ASSIGN
SOURCE.BY1
      7696**DCL      8531>>ASSIGN
SOURCE.BY2
      7697**DCL      8533>>ASSIGN
SOURCE.BY3
      7698**DCL      8535>>ASSIGN
SOURCE.BY4
      7699**DCL      8537>>ASSIGN
TEMP1
      7012**DCL      8384<<ASSIGN   8385>>ASSIGN   8385>>ASSIGN
TL
      4695**DCL      8663--ASSIGN   8669--ASSIGN   8670--ASSIGN   8671--ASSIGN
TL.LENGTH
      4697**DCL      8662<<ASSIGN   8667<<ASSIGN   8670<<ASSIGN
TL.PRMID
      4696**DCL      8653<<ASSIGN   8657<<ASSIGN   8667>>ASSIGN   8668<<ASSIGN   8669<<ASSIGN
TRAN_PRMID
      8328**DCL      8427>>ASSIGN
VDO
      6919**DCL      8355<<ASSIGN
VDOSZ
      7014**DCL      6920--IMP-SIZ  8354<<ASSIGN   8355>>ASSIGN   8475>>ASSIGN   8656<<ASSIGN   8673>>IF
VDOVLP_MRK
      6898**DCL      8560<<ASSIGN
VDOVLP_MRK.BMRK.BLK#
      6917**DCL      8568<<ASSIGN
VDOVLP_MRK.BMRK.REC#
      6918**DCL      8570<<ASSIGN
VDOVLP_MRK.BYTSIZ
PL6.E3A0      #011=KIA$VDO File=KIA$APPLC.:E05TSI                                WED 07/30/97 00:37 Page:559
      6904**DCL      8571<<ASSIGN   8575<<ASSIGN
VDOVLP_MRK.ID
      6913**DCL      6916--REDEF    8574<<ASSIGN   8575--ASSIGN
VDOVLP_MRK.MRKTYP
      6912**DCL      8564<<ASSIGN
VDOVLP_MRK.RSP
      6912**DCL      8563<<ASSIGN
VLP$FLDATR.ABSGRPRND
      7002**DCL      8386>>IF       8388>>ASSIGN   8461>>IF       8463>>ASSIGN
VLP$FLDATR.GRPRND
      7000**DCL      8392>>ASSIGN   8467>>ASSIGN
VLP$FLDATR.QLF
      7001**DCL      8393>>ASSIGN   8470>>ASSIGN
WABLKDAT.KV$VDO_BLKDAT.RCRBYTSIZ
      7687**DCL      8373<<ASSIGN
WABLKDAT.KV$VDO_BLKDAT.RSN
      7687**DCL      8374<<ASSIGN
WACLSSTR.KV$VDO_CLSSTR.DLT
      7643**DCL      8377--ASSIGN
WADAT.KV$VDO_DAT.DATCTRCHR
      7750**DCL      8401<<ASSIGN
WADAT.KV$VDO_DAT.DATCTRCHRTYP
      7749**DCL      8400<<ASSIGN
WADAT.KV$VDO_DAT.DATMOD
      7750**DCL      8405<<ASSIGN
WADAT.KV$VDO_DAT.DCBHDR
      7749**DCL      8402<<ASSIGN
WADCLFLD.KV$VDO_DCLFLD.CLM
      7794**DCL      8382<<ASSIGN
WADCLFLD.KV$VDO_DCLFLD.GRPRND
      7856**DCL      8388<<ASSIGN   8392<<ASSIGN
WADCLFLD.KV$VDO_DCLFLD.GRPRND.ABS
      7862**DCL      8389<<ASSIGN
WADCLFLD.KV$VDO_DCLFLD.ID
      7878**DCL      8385<<ASSIGN
WADCLFLD.KV$VDO_DCLFLD.LIN
PL6.E3A0      #011=KIA$VDO File=KIA$APPLC.:E05TSI                                WED 07/30/97 00:37 Page:560
      7794**DCL      8381<<ASSIGN
WADCLFLD.KV$VDO_DCLFLD.QLF
      7813**DCL      8393<<ASSIGN
WADCLFLD.KV$VDO_DCLFLD.WDT
      7795**DCL      8383<<ASSIGN
WADCLSTR.KV$VDO_DCLSTR.RE_STR
      7921**DCL      8397<<ASSIGN
WADCLSTR.KV$VDO_DCLSTR.STRID
      7921**DCL      8396<<ASSIGN
WADLT.KV$VDO_DLT.CTLFLG
      7965**DCL      8408<<ASSIGN
WAERS.KV$VDO_ERS.PRT
      8011**DCL      8411--ASSIGN
WAOPNSTR.KV$VDO_OPNSTR.KEYL
      8056**DCL      8417<<ASSIGN
WAOPNSTR.KV$VDO_OPNSTR.NRECS
      8055**DCL      8416<<ASSIGN
WAOPNSTR.KV$VDO_OPNSTR.ORG
      8055**DCL      8415<<ASSIGN
WAOPNSTR.KV$VDO_OPNSTR.SPARE
      8056**DCL      8418<<ASSIGN
WARQSDAT.KV$VDO_RQSDAT.BP
      8103**DCL      8445<<ASSIGN
WARQSDAT.KV$VDO_RQSDAT.DATMOD
      8102**DCL      8448<<ASSIGN
WARQSDAT.KV$VDO_RQSDAT.EOFNO_DAT
      8103**DCL      8444<<ASSIGN
WARQSDAT.KV$VDO_RQSDAT.INCMAXNMBRCR
      8101**DCL      8442<<ASSIGN
WARQSDAT.KV$VDO_RQSDAT.MAXNMBBYT
      8100**DCL      8451<<ASSIGN
WARQSDAT.KV$VDO_RQSDAT.MAXNMBRCR
      8099**DCL      8449<<ASSIGN
WARQSDAT.KV$VDO_RQSDAT.MAXRCRBYTSIZ
      8099**DCL      8453<<ASSIGN
WARQSDAT.KV$VDO_RQSDAT.RE_RED
PL6.E3A0      #011=KIA$VDO File=KIA$APPLC.:E05TSI                                WED 07/30/97 00:37 Page:561
      8102**DCL      8443<<ASSIGN
WARQSDAT.KV$VDO_RQSDAT.WAT
      8103**DCL      8441<<ASSIGN
WARQSPRM.KV$VDO_RQSPRM.MAXNMBBYT
      8148**DCL      8458<<ASSIGN
WARQSPRM.KV$VDO_RQSPRM.PRMID
      8148**DCL      8456<<ASSIGN
WASLCGRPRND.KV$VDO_SLCGRPRND.GRPRND
      8210**DCL      8463<<ASSIGN   8467<<ASSIGN
WASLCGRPRND.KV$VDO_SLCGRPRND.GRPRND.ABS
      8216**DCL      8464<<ASSIGN
WASLCQLF.KV$VDO_SLCQLF.QLF
      8293**DCL      8470<<ASSIGN
WAVDO.KV$VDO.FNC
      7599**DCL      8356<<ASSIGN
WAVDO.KV$VDO.STR
      7599**DCL      8358<<ASSIGN

PL6.E3A0      #012=KIA$WRITE File=KIA$APPLC.:E05TSI                              WED 07/30/97 00:39 Page:562
     2982        1        /*T***********************************************************/
     2983        2        /*T*                                                         */
     2984        3        /*T* Copyright (c) Bull HN Information Systems Inc., 1997    */
     2985        4        /*T*                                                         */
     2986        5        /*T***********************************************************/
     2987        6        KIA$WRITE: PROC (NK$LDCT,K$RWPARM) ALTRET;
     2988        7
     2989        8        /* Includes */
     2990        9        %INCLUDE B_ERRORS_C;
     2991     1136        %INCLUDE KI_SUBS_C;
     2992     1272        %INCLUDE UD_SEV_C;
     2993     1286        %INCLUDE K_DATA_R;
     2994     1997        %INCLUDE NK$LDCT;
     2995     2099        %INCLUDE HF_LOCK_C;
     2996     2113        %INCLUDE K_SUBS_C;
     2997     2146        %INCLUDE KV$VDO;
     2998     3161        %INCLUDE CP_6_SUBS;
     2999     3701        %INCLUDE NK_VFC_C;
     3000     3775
     3001     3776        /* Vdo refs */
     3002     3777        %KV_VDO_ALL_E;
     3003     3856        %KV$VDO_BLKDAT;
     3004     3899        %KV$VDO_DAT;
     3005     3944
     3006     3945        /* Other refs */
     3007     3946    1   DCL KIA_TCTLMAX SBIN SYMREF;
     3008     3947
     3009     3948        /* Parameters */
     3010     3949        %NK$LDCT (STCLASS="");
     3011     3995        %K$RWPARM (NAME=K$RWPARM,STCLASS="");
     3012     4311
     3013     4312        /* Based stuctures */
     3014     4313        %NK$VFC;
     3015     4331
     3016     4332        /* Auto */
     3017     4333    1   DCL SVMSG$ PTR;
     3018     4334    1   DCL SVMSGSZ UBIN;
PL6.E3A0      #012=KIA$WRITE File=KIA$APPLC.:E05TSI                              WED 07/30/97 00:39 Page:563
     3019     4335    1   DCL USER BIT(1);
     3020     4336    1   DCL FNC UBIN;
     3021     4337    1   DCL THRT BIT(1);
     3022     4338
     3023     4339        %K$RWPARM (NAME=S_RWPARM,STCLASS=SYMREF);
     3024     4655    1   DCL 1 LD CONSTANT ALIGNED,
     3025     4656    1         2 FCG BIT(18) UNAL INIT('131101'O),
     3026     4657    1         2 ERR UBIN(15) UNAL INIT (%E$LD),
     3027     4658    1         2 SEV UBIN(3) UNAL INIT (SEV_CONT#);
     3028     4659
     3029     4660        /* Entry refs */
     3030     4661    1   DCL KIA$FCNO ENTRY(3) ALTRET;
     3031     4662    1   DCL KIA$FCNOU ENTRY(3) ALTRET;
     3032     4663    1   DCL KIA$OQFL ENTRY(1) ALTRET;
     3033     4664        %EJECT;
PL6.E3A0      #012=KIA$WRITE File=KIA$APPLC.:E05TSI                              WED 07/30/97 00:39 Page:564
     3034     4665    1           USER = '0'B;
     3035     4666    1           GOTO MAIN_PROC;
     3036     4667
     3037     4668    1   KIA$WRITE_USER: ENTRY (NK$LDCT,K$RWPARM) ALTRET;
     3038     4669
     3039     4670    1           USER = '1'B;
     3040     4671
     3041     4672    1   MAIN_PROC: ;
     3042     4673    1           IF K$RWPARM.DVE.DVBYTE.VFC AND ADDR(K$RWPARM.DVE.VFC)->NK$VFC.FCN = %
              4673                    VFCF_SPC
     3043     4674    1             AND ADDR(K$RWPARM.DVE.VFC)->NK$VFC.COUNT < %VFCS_CLRWND
     3044     4675    1             AND ADDR(K$RWPARM.DVE.VFC)->NK$VFC.COUNT ~= %VFCS_PGND
     3045     4676    2             THEN DO;
     3046     4677    2               IF ADDR(K$RWPARM.DVE.VFC)->NK$VFC.COUNT ~= %VFCS_SLPP /* aka IMP  */
     3047     4678    2                 THEN
     3048     4679    2                   FNC = %KV_VDO_FNC_PRM_SET;
     3049     4680    2                 ELSE
     3050     4681    2                   FNC = %KV_VDO_FNC_DAT;
     3051     4682    2               THRT = '0'B;
     3052     4683    2               IF NOT USER THEN EXIT;      /* Won't work if there's no blockee   */
     3053     4684    2               NK$LDCT.TCTLCNT = NK$LDCT.TCTLCNT + 1;
     3054     4685    2               IF NK$LDCT.TCTLCNT >= KIA_TCTLMAX THEN
     3055     4686    2                   K$RWPARM.MRKTYP = %KV_VDOMRKTYP_ENDACK;
     3056     4687    2               END;
     3057     4688    2             ELSE DO;
     3058     4689    2               FNC = %KV_VDO_FNC_DAT;
     3059     4690    2               THRT = '1'B;
     3060     4691    2               END;
     3061     4692    1           IF NK$LDCT.TH.MAXNMBRCR = 0 OR K$RWPARM.MSGSZ > NK$LDCT.TH.MAXNMBBYT
     3062     4693    1             OR ((K$RWPARM.STR = KIDM_MON | NK$LDCT.TH.STR = KIDM_MON)
     3063     4694    1             AND K$RWPARM.STR ~= NK$LDCT.TH.STR) AND THRT
     3064     4695    2             THEN DO;
     3065     4696    2               NK$LDCT.LKFLG.OBLK = '1'B;
     3066     4697    2   TRY_BLK_AGAIN: ;
     3067     4698    2               S_RWPARM = K_RWPARM_CON;
     3068     4699    2               S_RWPARM.MAXRCRBYTSIZ = K$RWPARM.MSGSZ;
     3069     4700    2               S_RWPARM.STR = K$RWPARM.STR;
PL6.E3A0      #012=KIA$WRITE File=KIA$APPLC.:E05TSI                              WED 07/30/97 00:39 Page:565
     3070     4701    2               IF NK$LDCT.TH.MAXNMBRCR = 0
     3071     4702    2                 THEN
     3072     4703    2                   S_RWPARM.RSN = %KV_BLKRSN_MAXNMBRCR;
     3073     4704    2                 ELSE
     3074     4705    2                   S_RWPARM.RSN = %KV_BLKRSN_MAXNMBBYT;
     3075     4706    2               CALL KIA$FCNO (NK$LDCT,%KV_VDO_FNC_BLKDAT,S_RWPARM)
     3076     4707    3                 WHENALTRETURN DO;
     3077     4708    3                   IF USER
     3078     4709    3                     THEN
     3079     4710    3                       CALL KIA$OQFL(NK$LDCT)
     3080     4711    4                         WHENRETURN DO;
     3081     4712    4                           GOTO TRY_BLK_AGAIN;
     3082     4713    4                           END;
     3083     4714    3                   K$RWPARM.ERR = S_RWPARM.ERR;
     3084     4715    3                   ALTRETURN;
     3085     4716    3                   END;
     3086     4717    2               K$RWPARM.ERR = %K$NO_THROT;
     3087     4718    2               ALTRETURN;
     3088     4719    2               END;
     3089     4720
     3090     4721        /*
     3091     4722             Get pointers to the DCBs in the IOENDROS
     3092     4723         */
     3093     4724
     3094     4725        /* Throttling is available lets send it */
     3095     4726    1           IF THRT
     3096     4727    2             THEN DO;
     3097     4728    2               IF K$RWPARM.MSGSZ > NK$LDCT.TH.MAXRCRBYTSIZ
     3098     4729    3                 THEN DO;
     3099     4730    3                   IF NK$LDCT.TH.MAXRCRBYTSIZ = 0
     3100     4731    4                     THEN DO;
     3101     4732        /* OUTPUTDISCARD is probably on - don't send anything,
     3102     4733           but don't wait for a marker response, either. */
     3103     4734    4                       K$RWPARM.MRKTYP = 0;
     3104     4735    4                       RETURN;
     3105     4736    4                       END;
     3106     4737    3                   K$RWPARM.MSGSZ = NK$LDCT.TH.MAXRCRBYTSIZ;
PL6.E3A0      #012=KIA$WRITE File=KIA$APPLC.:E05TSI                              WED 07/30/97 00:39 Page:566
     3107     4738    3   RETRY:
     3108     4739    3                   K$RWPARM.MSG_ERRCODE = LD;
     3109     4740    3                   K$RWPARM.TYC = K$RWPARM.TYC|%TYC_LD;
     3110     4741                       /*E* ERROR: KIA-E$LD-0
     3111     4742                            MESSAGE: Lost data %on %DC%.
     3112     4743                            MESSAGE1: The buffer on the receiving end was less
     3113     4744                                      than the amount of data that needed to be
     3114     4745                                      sent.
     3115     4746         */
     3116     4747    3                   END;
     3117     4748    2               NK$LDCT.TH.MAXNMBBYT = NK$LDCT.TH.MAXNMBBYT - K$RWPARM.MSGSZ;
     3118     4749    2               NK$LDCT.TH.MAXNMBRCR = NK$LDCT.TH.MAXNMBRCR - 1;
     3119     4750    2               END;
     3120     4751    1           IF USER
     3121     4752    1             THEN
     3122     4753    1               CALL KIA$FCNOU(NK$LDCT,FNC,K$RWPARM) ALTRET(DISC);
     3123     4754    1             ELSE
     3124     4755    1               CALL KIA$FCNO(NK$LDCT,FNC,K$RWPARM)
     3125     4756    2                 WHENALTRETURN DO;
     3126     4757    2   DISC:           ;
     3127     4758    2                   IF THRT
     3128     4759    3                     THEN DO;
     3129     4760    3                       NK$LDCT.TH.MAXNMBBYT = NK$LDCT.TH.MAXNMBBYT + K$RWPARM.MSGSZ;
     3130     4761    3                       NK$LDCT.TH.MAXNMBRCR = NK$LDCT.TH.MAXNMBRCR + 1;
     3131     4762    3                       END;
     3132     4763    3                   IF K$RWPARM.ERR = %K$Q2SMALL THEN DO;
     3133     4764    3                       K$RWPARM.MSGSZ = K$RWPARM.MSGSZ-BITBIN(K$RWPARM.MSG_ERRCODE);
     3134     4765    3                       GOTO RETRY;
     3135     4766    3                       END;
     3136     4767    2                   ALTRETURN;
     3137     4768    2                   END;
     3138     4769
     3139     4770    1           RETURN;
     3140     4771
     3141     4772    1   END KIA$WRITE;
     3142     4773        %EOD;

PL6.E3A0      #012=KIA$WRITE File=KIA$APPLC.:E05TSI                              WED 07/30/97 00:39 Page:567
--  Include file information  --

   NK_VFC_C.:E05TOU  is referenced.
   CP_6_SUBS.:E05TOU  is referenced.
   KV$VDO.:E05TOU  is referenced.
   K_SUBS_C.:E05TOU  is referenced.
   HF_LOCK_C.:E05TOU  cannot be made into a system file and is referenced.
   NK$LDCT.:E05TOU  is referenced.
   K$RWPARM.:E05TOU  is referenced.
   K_DATA_R.:E05TOU  cannot be made into a system file and is referenced.
   UD_SEV_C.:E05TOU  is referenced.
   KI_SUBS_C.:E05TOU  is referenced.
   B_ERRORS_C.:E05TOU  is referenced.
      No diagnostics issued in procedure KIA$WRITE.

   Procedure KIA$WRITE requires 201 words for executable code.
   Procedure KIA$WRITE requires 14 words of local(AUTO) storage.

PL6.E3A0      #012=KIA$WRITE File=KIA$APPLC.:E05TSI                              WED 07/30/97 00:39 Page:568

 Object Unit name= KIA$WRITE                                  File name= KIA$APPLC.:E05TOU
 UTS= JUL 30 '97 00:39:14.40 WED                              Compiler= PL-6/E31         Sev=      00
 SharedLib= :SHARED_SYSTEM                                    Alt SharedLib=


    ****  Control sections  ****

 Sect   Type Bound  Init  Size OctSiz  Section name(segment info)
    0  RoData even  UTS      2      2  KIA$WRITE
    1   Proc  even  none   201    311  KIA$WRITE
    2  RoData even  none     2      2  KIA$WRITE

    ****  Entry defs  ****

                              Check   Calling
                             calling  sequence
  Sect OctLoc Primary Altret sequence   type   Parms  Name
     1      0   yes    yes     yes      Std        2  KIA$WRITE
     1      4          yes     yes      Std        2  KIA$WRITE_USER

  ****  Entry refs  ****

         Check        Calling
        calling       sequence
Altret sequence SRef   type   Args  Name
 yes     yes           Std       3 KIA$FCNO
 yes     yes           Std       1 KIA$OQFL
 yes     yes           Std       3 KIA$FCNOU
                       nStd      0 X66_AUTO_2
                       Std       0 B_CONSPOOL_D
                       nStd      0 X66_AALT
                       nStd      0 X66_ARET
PL6.E3A0      #012=KIA$WRITE File=KIA$APPLC.:E05TSI                              WED 07/30/97 00:39 Page:569

  ****  Data refs  ****

  Flags:  r = read only, s = secondary
Flgs Name                             Flgs Name                             Flgs Name
r    K_RWPARM_CON                          KIA_TCTLMAX                           S_RWPARM
     B_VECTNIL

  ****  Segment refs  ****

  Flags:  r = read only, s = secondary
Flgs Name                             Flgs Name                             Flgs Name
     ISSID
PL6.E3A0      #012=KIA$WRITE File=KIA$APPLC.:E05TSI                              WED 07/30/97 00:39 Page:570


     2982        1        /*T***********************************************************/
     2983        2        /*T*                                                         */
     2984        3        /*T* Copyright (c) Bull HN Information Systems Inc., 1997    */
     2985        4        /*T*                                                         */
     2986        5        /*T***********************************************************/
     2987        6        KIA$WRITE: PROC (NK$LDCT,K$RWPARM) ALTRET;

      6  1 000000   000000 700200 xent  KIA$WRITE    TSX0  ! X66_AUTO_2
         1 000001   000016 000002                    ZERO    14,2

     2988        7
     2989        8        /* Includes */
     2990        9        %INCLUDE B_ERRORS_C;
     2991     1136        %INCLUDE KI_SUBS_C;
     2992     1272        %INCLUDE UD_SEV_C;
     2993     1286        %INCLUDE K_DATA_R;
     2994     1997        %INCLUDE NK$LDCT;
     2995     2099        %INCLUDE HF_LOCK_C;
     2996     2113        %INCLUDE K_SUBS_C;
     2997     2146        %INCLUDE KV$VDO;
     2998     3161        %INCLUDE CP_6_SUBS;
     2999     3701        %INCLUDE NK_VFC_C;
     3000     3775
     3001     3776        /* Vdo refs */
     3002     3777        %KV_VDO_ALL_E;
     3003     3856        %KV$VDO_BLKDAT;
     3004     3899        %KV$VDO_DAT;
     3005     3944
     3006     3945        /* Other refs */
     3007     3946    1   DCL KIA_TCTLMAX SBIN SYMREF;
     3008     3947
     3009     3948        /* Parameters */
     3010     3949        %NK$LDCT (STCLASS="");
     3011     3995        %K$RWPARM (NAME=K$RWPARM,STCLASS="");
     3012     4311
     3013     4312        /* Based stuctures */
PL6.E3A0      #012=KIA$WRITE File=KIA$APPLC.:E05TSI                              WED 07/30/97 00:39 Page:571
     3014     4313        %NK$VFC;
     3015     4331
     3016     4332        /* Auto */
     3017     4333    1   DCL SVMSG$ PTR;
     3018     4334    1   DCL SVMSGSZ UBIN;
     3019     4335    1   DCL USER BIT(1);
     3020     4336    1   DCL FNC UBIN;
     3021     4337    1   DCL THRT BIT(1);
     3022     4338
     3023     4339        %K$RWPARM (NAME=S_RWPARM,STCLASS=SYMREF);
     3024     4655    1   DCL 1 LD CONSTANT ALIGNED,
     3025     4656    1         2 FCG BIT(18) UNAL INIT('131101'O),
     3026     4657    1         2 ERR UBIN(15) UNAL INIT (%E$LD),
     3027     4658    1         2 SEV UBIN(3) UNAL INIT (SEV_CONT#);
     3028     4659
     3029     4660        /* Entry refs */
     3030     4661    1   DCL KIA$FCNO ENTRY(3) ALTRET;
     3031     4662    1   DCL KIA$FCNOU ENTRY(3) ALTRET;
     3032     4663    1   DCL KIA$OQFL ENTRY(1) ALTRET;
     3033     4664        %EJECT;
PL6.E3A0      #012=KIA$WRITE File=KIA$APPLC.:E05TSI                              WED 07/30/97 00:39 Page:572
     3034     4665    1           USER = '0'B;

   4665  1 000002   200007 450100                    STZ     USER,,AUTO

     3035     4666    1           GOTO MAIN_PROC;

   4666  1 000003   000010 710000 1                  TRA     MAIN_PROC

     3036     4667
     3037     4668    1   KIA$WRITE_USER: ENTRY (NK$LDCT,K$RWPARM) ALTRET;

   4668  1 000004   000000 700200 xent  KIA$WRITE_U* TSX0  ! X66_AUTO_2
         1 000005   000016 000002                    ZERO    14,2

     3038     4669
     3039     4670    1           USER = '1'B;

   4670  1 000006   400000 236003                    LDQ     -131072,DU
         1 000007   200007 756100                    STQ     USER,,AUTO

   4670  1 000010                       MAIN_PROC    null
     3040     4671
     3041     4672    1   MAIN_PROC: ;
     3042     4673    1           IF K$RWPARM.DVE.DVBYTE.VFC AND ADDR(K$RWPARM.DVE.VFC)->NK$VFC.FCN = %
              4673                    VFCF_SPC

   4673  1 000010   200004 470500                    LDP0    @K$RWPARM,,AUTO
         1 000011   000010 236100                    LDQ     8,,PR0
         1 000012   100000 316003                    CANQ    32768,DU
         1 000013   000054 600000 1                  TZE     s:4689
         1 000014   000010 236100                    LDQ     8,,PR0
         1 000015   000160 376003                    ANQ     112,DU
         1 000016   000020 116003                    CMPQ    16,DU
         1 000017   000054 601000 1                  TNZ     s:4689
         1 000020   000010 236100                    LDQ     8,,PR0
         1 000021   000017 376003                    ANQ     15,DU
         1 000022   000015 116003                    CMPQ    13,DU
PL6.E3A0      #012=KIA$WRITE File=KIA$APPLC.:E05TSI                              WED 07/30/97 00:39 Page:573
         1 000023   000054 603000 1                  TRC     s:4689
         1 000024   000012 116003                    CMPQ    10,DU
         1 000025   000054 600000 1                  TZE     s:4689

     3043     4674    1             AND ADDR(K$RWPARM.DVE.VFC)->NK$VFC.COUNT < %VFCS_CLRWND
     3044     4675    1             AND ADDR(K$RWPARM.DVE.VFC)->NK$VFC.COUNT ~= %VFCS_PGND
     3045     4676    2             THEN DO;

     3046     4677    2               IF ADDR(K$RWPARM.DVE.VFC)->NK$VFC.COUNT ~= %VFCS_SLPP /* aka IMP  */

   4677  1 000026   000011 116003                    CMPQ    9,DU
         1 000027   000033 600000 1                  TZE     s:4681

     3047     4678    2                 THEN
     3048     4679    2                   FNC = %KV_VDO_FNC_PRM_SET;

   4679  1 000030   000023 235007                    LDA     19,DL
         1 000031   200010 755100                    STA     FNC,,AUTO
         1 000032   000035 710000 1                  TRA     s:4682

     3049     4680    2                 ELSE
     3050     4681    2                   FNC = %KV_VDO_FNC_DAT;

   4681  1 000033   000005 235007                    LDA     5,DL
         1 000034   200010 755100                    STA     FNC,,AUTO

     3051     4682    2               THRT = '0'B;

   4682  1 000035   200011 450100                    STZ     THRT,,AUTO

     3052     4683    2               IF NOT USER THEN EXIT;      /* Won't work if there's no blockee   */

   4683  1 000036   200007 234100                    SZN     USER,,AUTO
         1 000037   000053 605000 1                  TPL     s:4687

     3053     4684    2               NK$LDCT.TCTLCNT = NK$LDCT.TCTLCNT + 1;

PL6.E3A0      #012=KIA$WRITE File=KIA$APPLC.:E05TSI                              WED 07/30/97 00:39 Page:574
   4684  1 000040   200003 471500                    LDP1    @NK$LDCT,,AUTO
         1 000041   100026 236100                    LDQ     22,,PR1
         1 000042   001000 036007                    ADLQ    512,DL
         1 000043   100026 552110                    STBQ    22,'10'O,PR1

     3054     4685    2               IF NK$LDCT.TCTLCNT >= KIA_TCTLMAX THEN

   4685  1 000044   100026 236100                    LDQ     22,,PR1
         1 000045   000011 772000                    QRL     9
         1 000046   000777 376007                    ANQ     511,DL
         1 000047   000000 116000 xsym               CMPQ    KIA_TCTLMAX
         1 000050   000060 604000 1                  TMI     s:4692

     3055     4686    2                   K$RWPARM.MRKTYP = %KV_VDOMRKTYP_ENDACK;

   4686  1 000051   001000 236007                    LDQ     512,DL
         1 000052   000040 552110                    STBQ    32,'10'O,PR0

     3056     4687    2               END;

   4687  1 000053   000060 710000 1                  TRA     s:4692

     3057     4688    2             ELSE DO;

     3058     4689    2               FNC = %KV_VDO_FNC_DAT;

   4689  1 000054   000005 235007                    LDA     5,DL
         1 000055   200010 755100                    STA     FNC,,AUTO

     3059     4690    2               THRT = '1'B;

   4690  1 000056   400000 236003                    LDQ     -131072,DU
         1 000057   200011 756100                    STQ     THRT,,AUTO

     3060     4691    2               END;

     3061     4692    1           IF NK$LDCT.TH.MAXNMBRCR = 0 OR K$RWPARM.MSGSZ > NK$LDCT.TH.MAXNMBBYT
PL6.E3A0      #012=KIA$WRITE File=KIA$APPLC.:E05TSI                              WED 07/30/97 00:39 Page:575

   4692  1 000060   200003 471500                    LDP1    @NK$LDCT,,AUTO
         1 000061   100016 720100                    LXL0    14,,PR1
         1 000062   000123 600000 1                  TZE     s:4696
         1 000063   100017 236100                    LDQ     15,,PR1
         1 000064   000022 736000                    QLS     18
         1 000065   000022 732000                    QRS     18
         1 000066   000001 116100                    CMPQ    1,,PR0
         1 000067   000123 604000 1                  TMI     s:4696
         1 000070   400000 221003                    LDX1    -131072,DU
         1 000071   000040 236100                    LDQ     32,,PR0
         1 000072   000777 376007                    ANQ     511,DL
         1 000073   000177 116007                    CMPQ    127,DL
         1 000074   000076 600000 1                  TZE     s:4692+14
         1 000075   000000 221003                    LDX1    0,DU
         1 000076   400000 222003                    LDX2    -131072,DU
         1 000077   100016 236100                    LDQ     14,,PR1
         1 000100   000777 376003                    ANQ     511,DU
         1 000101   000177 116003                    CMPQ    127,DU
         1 000102   000104 600000 1                  TZE     s:4692+20
         1 000103   000000 222003                    LDX2    0,DU
         1 000104   000000 636012                    EAQ     0,X2
         1 000105   200012 756100                    STQ     THRT+1,,AUTO
         1 000106   000000 636011                    EAQ     0,X1
         1 000107   200012 276100                    ORQ     THRT+1,,AUTO
         1 000110   000176 600000 1                  TZE     s:4726
         1 000111   100016 236100                    LDQ     14,,PR1
         1 000112   000022 772000                    QRL     18
         1 000113   000777 376007                    ANQ     511,DL
         1 000114   200013 756100                    STQ     THRT+2,,AUTO
         1 000115   000040 236100                    LDQ     32,,PR0
         1 000116   000777 376007                    ANQ     511,DL
         1 000117   200013 116100                    CMPQ    THRT+2,,AUTO
         1 000120   000176 600000 1                  TZE     s:4726
         1 000121   200011 234100                    SZN     THRT,,AUTO
         1 000122   000176 605000 1                  TPL     s:4726

PL6.E3A0      #012=KIA$WRITE File=KIA$APPLC.:E05TSI                              WED 07/30/97 00:39 Page:576
     3062     4693    1             OR ((K$RWPARM.STR = KIDM_MON | NK$LDCT.TH.STR = KIDM_MON)
     3063     4694    1             AND K$RWPARM.STR ~= NK$LDCT.TH.STR) AND THRT
     3064     4695    2             THEN DO;

     3065     4696    2               NK$LDCT.LKFLG.OBLK = '1'B;

   4696  1 000123   200000 236003                    LDQ     65536,DU
         1 000124   100011 256100                    ORSQ    9,,PR1

   4696  1 000125                       TRY_BLK_AGA* null
     3066     4697    2   TRY_BLK_AGAIN: ;
     3067     4698    2               S_RWPARM = K_RWPARM_CON;

   4698  1 000125   000000 100400                    MLR     fill='000'O
         1 000126   000000 000234 xsym               ADSC9   K_RWPARM_CON             cn=0,n=156
         1 000127   000000 000234 xsym               ADSC9   S_RWPARM                 cn=0,n=156

     3068     4699    2               S_RWPARM.MAXRCRBYTSIZ = K$RWPARM.MSGSZ;

   4699  1 000130   200004 470500                    LDP0    @K$RWPARM,,AUTO
         1 000131   000001 720100                    LXL0    1,,PR0
         1 000132   000042 740000 xsym               STX0    S_RWPARM+34

     3069     4700    2               S_RWPARM.STR = K$RWPARM.STR;

   4700  1 000133   000040 236100                    LDQ     32,,PR0
         1 000134   000040 552004 xsym               STBQ    S_RWPARM+32,'04'O

     3070     4701    2               IF NK$LDCT.TH.MAXNMBRCR = 0

   4701  1 000135   200003 471500                    LDP1    @NK$LDCT,,AUTO
         1 000136   100016 721100                    LXL1    14,,PR1
         1 000137   000143 601000 1                  TNZ     s:4705

     3071     4702    2                 THEN
     3072     4703    2                   S_RWPARM.RSN = %KV_BLKRSN_MAXNMBRCR;

PL6.E3A0      #012=KIA$WRITE File=KIA$APPLC.:E05TSI                              WED 07/30/97 00:39 Page:577
   4703  1 000140   000002 236007                    LDQ     2,DL
         1 000141   000010 552004 xsym               STBQ    S_RWPARM+8,'04'O
         1 000142   000145 710000 1                  TRA     s:4706

     3073     4704    2                 ELSE
     3074     4705    2                   S_RWPARM.RSN = %KV_BLKRSN_MAXNMBBYT;

   4705  1 000143   000001 236007                    LDQ     1,DL
         1 000144   000010 552004 xsym               STBQ    S_RWPARM+8,'04'O

     3075     4706    2               CALL KIA$FCNO (NK$LDCT,%KV_VDO_FNC_BLKDAT,S_RWPARM)

   4706  1 000145   000000 236000 2                  LDQ     0
         1 000146   200014 756100                    STQ     THRT+3,,AUTO
         1 000147   000001 236000 2                  LDQ     1
         1 000150   200003 235100                    LDA     @NK$LDCT,,AUTO
         1 000151   200012 757100                    STAQ    THRT+1,,AUTO
         1 000152   200012 630500                    EPPR0   THRT+1,,AUTO
         1 000153   000021 631400 xsym               EPPR1   B_VECTNIL+17
         1 000154   000000 701000 xent               TSX1    KIA$FCNO
         1 000155   000157 702000 1                  TSX2    s:4708
         1 000156   000172 710000 1                  TRA     s:4717

     3076     4707    3                 WHENALTRETURN DO;

     3077     4708    3                   IF USER

   4708  1 000157   200007 234100                    SZN     USER,,AUTO
         1 000160   000166 605000 1                  TPL     s:4714

     3078     4709    3                     THEN
     3079     4710    3                       CALL KIA$OQFL(NK$LDCT)

   4710  1 000161   200003 630500                    EPPR0   @NK$LDCT,,AUTO
         1 000162   000017 631400 xsym               EPPR1   B_VECTNIL+15
         1 000163   000000 701000 xent               TSX1    KIA$OQFL
         1 000164   000166 702000 1                  TSX2    s:4714
PL6.E3A0      #012=KIA$WRITE File=KIA$APPLC.:E05TSI                              WED 07/30/97 00:39 Page:578

     3080     4711    4                         WHENRETURN DO;

     3081     4712    4                           GOTO TRY_BLK_AGAIN;

   4712  1 000165   000125 710000 1                  TRA     TRY_BLK_AGAIN

     3082     4713    4                           END;
     3083     4714    3                   K$RWPARM.ERR = S_RWPARM.ERR;

   4714  1 000166   200004 470500                    LDP0    @K$RWPARM,,AUTO
         1 000167   000013 235000 xsym               LDA     S_RWPARM+11
         1 000170   000013 755100                    STA     11,,PR0

     3084     4715    3                   ALTRETURN;

   4715  1 000171   000000 702200 xent               TSX2  ! X66_AALT

     3085     4716    3                   END;
     3086     4717    2               K$RWPARM.ERR = %K$NO_THROT;

   4717  1 000172   000004 235007                    LDA     4,DL
         1 000173   200004 470500                    LDP0    @K$RWPARM,,AUTO
         1 000174   000013 755100                    STA     11,,PR0

     3087     4718    2               ALTRETURN;

   4718  1 000175   000000 702200 xent               TSX2  ! X66_AALT

     3088     4719    2               END;
     3089     4720
     3090     4721        /*
     3091     4722             Get pointers to the DCBs in the IOENDROS
     3092     4723         */
     3093     4724
     3094     4725        /* Throttling is available lets send it */
     3095     4726    1           IF THRT
PL6.E3A0      #012=KIA$WRITE File=KIA$APPLC.:E05TSI                              WED 07/30/97 00:39 Page:579

   4726  1 000176   200011 234100                    SZN     THRT,,AUTO
         1 000177   000232 605000 1                  TPL     s:4751

     3096     4727    2             THEN DO;

     3097     4728    2               IF K$RWPARM.MSGSZ > NK$LDCT.TH.MAXRCRBYTSIZ

   4728  1 000200   100017 236100                    LDQ     15,,PR1
         1 000201   000022 732000                    QRS     18
         1 000202   000001 116100                    CMPQ    1,,PR0
         1 000203   000220 605000 1                  TPL     s:4748

     3098     4729    3                 THEN DO;

     3099     4730    3                   IF NK$LDCT.TH.MAXRCRBYTSIZ = 0

   4730  1 000204   100017 221100                    LDX1    15,,PR1
         1 000205   000211 601000 1                  TNZ     s:4737

     3100     4731    4                     THEN DO;

     3101     4732        /* OUTPUTDISCARD is probably on - don't send anything,
     3102     4733           but don't wait for a marker response, either. */
     3103     4734    4                       K$RWPARM.MRKTYP = 0;

   4734  1 000206   000000 236003                    LDQ     0,DU
         1 000207   000040 552110                    STBQ    32,'10'O,PR0

     3104     4735    4                       RETURN;

   4735  1 000210   000000 702200 xent               TSX2  ! X66_ARET

     3105     4736    4                       END;
     3106     4737    3                   K$RWPARM.MSGSZ = NK$LDCT.TH.MAXRCRBYTSIZ;

   4737  1 000211   000001 756100                    STQ     1,,PR0
PL6.E3A0      #012=KIA$WRITE File=KIA$APPLC.:E05TSI                              WED 07/30/97 00:39 Page:580

     3107     4738    3   RETRY:
     3108     4739    3                   K$RWPARM.MSG_ERRCODE = LD;

   4739  1 000212   000000 236000 0     RETRY        LDQ     LD
         1 000213   200004 470500                    LDP0    @K$RWPARM,,AUTO
         1 000214   000037 756100                    STQ     31,,PR0

     3109     4740    3                   K$RWPARM.TYC = K$RWPARM.TYC|%TYC_LD;

   4740  1 000215   000006 236100                    LDQ     6,,PR0
         1 000216   000001 276000 0                  ORQ     LD+1
         1 000217   000006 756100                    STQ     6,,PR0

     3110     4741                       /*E* ERROR: KIA-E$LD-0
     3111     4742                            MESSAGE: Lost data %on %DC%.
     3112     4743                            MESSAGE1: The buffer on the receiving end was less
     3113     4744                                      than the amount of data that needed to be
     3114     4745                                      sent.
     3115     4746         */
     3116     4747    3                   END;

     3117     4748    2               NK$LDCT.TH.MAXNMBBYT = NK$LDCT.TH.MAXNMBBYT - K$RWPARM.MSGSZ;

   4748  1 000220   200003 471500                    LDP1    @NK$LDCT,,AUTO
         1 000221   100017 236100                    LDQ     15,,PR1
         1 000222   000022 736000                    QLS     18
         1 000223   000022 732000                    QRS     18
         1 000224   000001 136100                    SBLQ    1,,PR0
         1 000225   000000 620006                    EAX0    0,QL
         1 000226   100017 440100                    SXL0    15,,PR1

     3118     4749    2               NK$LDCT.TH.MAXNMBRCR = NK$LDCT.TH.MAXNMBRCR - 1;

   4749  1 000227   100016 721100                    LXL1    14,,PR1
         1 000230   777777 622011                    EAX2    -1,X1
         1 000231   100016 442100                    SXL2    14,,PR1
PL6.E3A0      #012=KIA$WRITE File=KIA$APPLC.:E05TSI                              WED 07/30/97 00:39 Page:581

     3119     4750    2               END;

     3120     4751    1           IF USER

   4751  1 000232   200007 234100                    SZN     USER,,AUTO
         1 000233   000247 605000 1                  TPL     s:4755

     3121     4752    1             THEN
     3122     4753    1               CALL KIA$FCNOU(NK$LDCT,FNC,K$RWPARM) ALTRET(DISC);

   4753  1 000234   200004 236100                    LDQ     @K$RWPARM,,AUTO
         1 000235   200014 756100                    STQ     THRT+3,,AUTO
         1 000236   200010 633500                    EPPR3   FNC,,AUTO
         1 000237   200013 453500                    STP3    THRT+2,,AUTO
         1 000240   200003 236100                    LDQ     @NK$LDCT,,AUTO
         1 000241   200012 756100                    STQ     THRT+1,,AUTO
         1 000242   200012 630500                    EPPR0   THRT+1,,AUTO
         1 000243   000021 631400 xsym               EPPR1   B_VECTNIL+17
         1 000244   000000 701000 xent               TSX1    KIA$FCNOU
         1 000245   000262 702000 1                  TSX2    DISC
         1 000246   000310 710000 1                  TRA     s:4770

     3123     4754    1             ELSE
     3124     4755    1               CALL KIA$FCNO(NK$LDCT,FNC,K$RWPARM)

   4755  1 000247   200004 236100                    LDQ     @K$RWPARM,,AUTO
         1 000250   200014 756100                    STQ     THRT+3,,AUTO
         1 000251   200010 633500                    EPPR3   FNC,,AUTO
         1 000252   200013 453500                    STP3    THRT+2,,AUTO
         1 000253   200003 236100                    LDQ     @NK$LDCT,,AUTO
         1 000254   200012 756100                    STQ     THRT+1,,AUTO
         1 000255   200012 630500                    EPPR0   THRT+1,,AUTO
         1 000256   000021 631400 xsym               EPPR1   B_VECTNIL+17
         1 000257   000000 701000 xent               TSX1    KIA$FCNO
         1 000260   000262 702000 1                  TSX2    DISC
         1 000261   000310 710000 1                  TRA     s:4770
PL6.E3A0      #012=KIA$WRITE File=KIA$APPLC.:E05TSI                              WED 07/30/97 00:39 Page:582

     3125     4756    2                 WHENALTRETURN DO;

   4753  1 000262                       DISC         null
     3126     4757    2   DISC:           ;
     3127     4758    2                   IF THRT

   4758  1 000262   200011 234100                    SZN     THRT,,AUTO
         1 000263   000277 605000 1                  TPL     s:4763

     3128     4759    3                     THEN DO;

     3129     4760    3                       NK$LDCT.TH.MAXNMBBYT = NK$LDCT.TH.MAXNMBBYT + K$RWPARM.MSGSZ;

   4760  1 000264   200004 470500                    LDP0    @K$RWPARM,,AUTO
         1 000265   200003 471500                    LDP1    @NK$LDCT,,AUTO
         1 000266   100017 236100                    LDQ     15,,PR1
         1 000267   000022 736000                    QLS     18
         1 000270   000022 732000                    QRS     18
         1 000271   000001 036100                    ADLQ    1,,PR0
         1 000272   000000 620006                    EAX0    0,QL
         1 000273   100017 440100                    SXL0    15,,PR1

     3130     4761    3                       NK$LDCT.TH.MAXNMBRCR = NK$LDCT.TH.MAXNMBRCR + 1;

   4761  1 000274   100016 721100                    LXL1    14,,PR1
         1 000275   000001 622011                    EAX2    1,X1
         1 000276   100016 442100                    SXL2    14,,PR1

     3131     4762    3                       END;

     3132     4763    3                   IF K$RWPARM.ERR = %K$Q2SMALL THEN DO;

   4763  1 000277   200004 470500                    LDP0    @K$RWPARM,,AUTO
         1 000300   000013 235100                    LDA     11,,PR0
         1 000301   000007 115007                    CMPA    7,DL
         1 000302   000307 601000 1                  TNZ     s:4767
PL6.E3A0      #012=KIA$WRITE File=KIA$APPLC.:E05TSI                              WED 07/30/97 00:39 Page:583

     3133     4764    3                       K$RWPARM.MSGSZ = K$RWPARM.MSGSZ-BITBIN(K$RWPARM.MSG_ERRCODE);

   4764  1 000303   000001 236100                    LDQ     1,,PR0
         1 000304   000037 136100                    SBLQ    31,,PR0
         1 000305   000001 756100                    STQ     1,,PR0

     3134     4765    3                       GOTO RETRY;

   4765  1 000306   000212 710000 1                  TRA     RETRY

     3135     4766    3                       END;
     3136     4767    2                   ALTRETURN;

   4767  1 000307   000000 702200 xent               TSX2  ! X66_AALT

     3137     4768    2                   END;
     3138     4769
     3139     4770    1           RETURN;

   4770  1 000310   000000 702200 xent               TSX2  ! X66_ARET

LD
 Sect OctLoc
   0     000   131101 000070                                                    YA.8

(unnamed)
 Sect OctLoc
   0     001   002000 000000                                                    ....

(unnamed)
 Sect OctLoc
   2     000   000000 006000   000004 006000                                    ........
     3140     4771
     3141     4772    1   END KIA$WRITE;
     3142     4773        %EOD;

PL6.E3A0      #012=KIA$WRITE File=KIA$APPLC.:E05TSI                              WED 07/30/97 00:39 Page:584
--  Include file information  --

   NK_VFC_C.:E05TOU  is referenced.
   CP_6_SUBS.:E05TOU  is referenced.
   KV$VDO.:E05TOU  is referenced.
   K_SUBS_C.:E05TOU  is referenced.
   HF_LOCK_C.:E05TOU  cannot be made into a system file and is referenced.
   NK$LDCT.:E05TOU  is referenced.
   K$RWPARM.:E05TOU  is referenced.
   K_DATA_R.:E05TOU  cannot be made into a system file and is referenced.
   UD_SEV_C.:E05TOU  is referenced.
   KI_SUBS_C.:E05TOU  is referenced.
   B_ERRORS_C.:E05TOU  is referenced.
      No diagnostics issued in procedure KIA$WRITE.
PL6.E3A0      #012=KIA$WRITE File=KIA$APPLC.:E05TSI                              WED 07/30/97 00:39 Page:585

 **** Variables and constants ****

  ****  Section 000 RoData KIA$WRITE

  ****  Scalars and arrays  ****
OctLoc.c.b A Datatyp(siz) R M Lvl/name                 OctLoc.c.b A Datatyp(siz) R M Lvl/name

     0-0-0/w STRC        r     1 LD

  ****  Auto variables  ****

  ****  Scalars and arrays  ****
OctLoc.c.b A Datatyp(siz) R M Lvl/name                 OctLoc.c.b A Datatyp(siz) R M Lvl/name

     4-0-0/w PTR         r     1 @K$RWPARM                  3-0-0/w PTR         r     1 @NK$LDCT
    10-0-0/w UBIN        r     1 FNC                       *0-0-0/d STRC(1404)  r     1 K$RWPARM
    *0-0-0/d STRC(864)   r     1 NK$LDCT                   11-0-0/b BIT         r     1 THRT
     7-0-0/b BIT         r     1 USER

  ****  SYMREF variables  ****

  ****  Scalars and arrays  ****
OctLoc.c.b A Datatyp(siz) R M Lvl/name                 OctLoc.c.b A Datatyp(siz) R M Lvl/name

     0-0-0/w SBIN        r     1 KIA_TCTLMAX                0-0-0/d STRC(1404)  r     1 K_RWPARM_CON
     0-0-0/d STRC(1404)  r     1 S_RWPARM

  ****  BASED and DCB variables  ****

  ****  Scalars and arrays  ****
OctLoc.c.b A Datatyp(siz) R M Lvl/name                 OctLoc.c.b A Datatyp(siz) R M Lvl/name

     0-0-0/c STRC(9)     r     1 NK$VFC


   Procedure KIA$WRITE requires 201 words for executable code.
PL6.E3A0      #012=KIA$WRITE File=KIA$APPLC.:E05TSI                              WED 07/30/97 00:39 Page:586
   Procedure KIA$WRITE requires 14 words of local(AUTO) storage.
PL6.E3A0      #012=KIA$WRITE File=KIA$APPLC.:E05TSI                              WED 07/30/97 00:39 Page:587
          *** CROSS REFERENCE LISTING ***
**     DENOTES     IDENTIFIER DEFINITION
<<                 IDENTIFIER'S VALUE SET
>>                 IDENTIFIER'S VALUE USED
<>                 IDENTIFIER SET AND/OR USED
--                 IDENTIFIER REFERENCED
PL6.E3A0      #012=KIA$WRITE File=KIA$APPLC.:E05TSI                              WED 07/30/97 00:39 Page:588
          MINI XREF LISTING

DISC
      4753**LABEL    4753--CALLALT
FNC
      4336**DCL      4679<<ASSIGN   4681<<ASSIGN   4689<<ASSIGN   4753<>CALL     4755<>CALL
K$RWPARM
      4016**DCL         6--PROC     4668--ENTRY    4753<>CALL     4755<>CALL
K$RWPARM.BLKREC
      4042**DCL      4067--REDEF
K$RWPARM.BLKREC.BLKU#
      4043**DCL      4045--REDEF
K$RWPARM.BLKREC.RECU#
      4055**DCL      4057--REDEF
K$RWPARM.DVE.DVBYTE.VFC
      4082**DCL      4083--REDEF    4673>>IF
K$RWPARM.DVE.EOMCHAR
      4090**DCL      4094--REDEF
K$RWPARM.DVE.VFC
      4094**DCL      4673--IF       4673--IF       4673--IF       4677--IF
K$RWPARM.ERR
      4154**DCL      4159--REDEF    4714<<ASSIGN   4717<<ASSIGN   4763>>IF
K$RWPARM.FC
      4118**DCL      4119--REDEF
K$RWPARM.FLDID
      4300**DCL      4301--REDEF
K$RWPARM.FPT$
      4181**DCL      4188--REDEF
K$RWPARM.KEYTYPE
      4307**DCL      4308--REDEF
K$RWPARM.MRKTYP
      4292**DCL      4686<<ASSIGN   4734<<ASSIGN
K$RWPARM.MSG$
      4017**DCL      4023--REDEF
PL6.E3A0      #012=KIA$WRITE File=KIA$APPLC.:E05TSI                              WED 07/30/97 00:39 Page:589
K$RWPARM.MSGID
      4129**DCL      4134--REDEF
K$RWPARM.MSGIDXT
      4142**DCL      4146--REDEF
K$RWPARM.MSGSZ
      4024**DCL      4692>>IF       4699>>ASSIGN   4728>>IF       4737<<ASSIGN   4748>>ASSIGN   4760>>ASSIGN
      4764<<ASSIGN   4764>>ASSIGN
K$RWPARM.MSG_ERRCODE
      4277**DCL      4739<<ASSIGN   4764>>ASSIGN
K$RWPARM.ORG
      4278**DCL      4279--REDEF
K$RWPARM.STR
      4293**DCL      4692>>IF       4692>>IF       4700>>ASSIGN
K$RWPARM.THDRSZ
      4222**DCL      4226--REDEF
K$RWPARM.TYC
      4038**DCL      4740<<ASSIGN   4740>>ASSIGN
K$RWPARM.VDOFLGS
      4280**DCL      4291--REDEF
KIA$FCNO
      4661**DCL-ENT  4706--CALL     4755--CALL
KIA$FCNOU
      4662**DCL-ENT  4753--CALL
KIA$OQFL
      4663**DCL-ENT  4710--CALL
KIA_TCTLMAX
      3946**DCL      4685>>IF
K_RWPARM_CON
      1701**DCL      4698>>ASSIGN
K_RWPARM_CON.BLKREC
      1727**DCL      1752--REDEF
K_RWPARM_CON.BLKREC.BLKU#
      1728**DCL      1730--REDEF
K_RWPARM_CON.BLKREC.RECU#
      1740**DCL      1742--REDEF
K_RWPARM_CON.DVE.DVBYTE.VFC
PL6.E3A0      #012=KIA$WRITE File=KIA$APPLC.:E05TSI                              WED 07/30/97 00:39 Page:590
      1767**DCL      1768--REDEF
K_RWPARM_CON.DVE.EOMCHAR
      1775**DCL      1779--REDEF
K_RWPARM_CON.ERR
      1839**DCL      1844--REDEF
K_RWPARM_CON.FC
      1803**DCL      1804--REDEF
K_RWPARM_CON.FLDID
      1985**DCL      1986--REDEF
K_RWPARM_CON.FPT$
      1866**DCL      1873--REDEF
K_RWPARM_CON.KEYTYPE
      1992**DCL      1993--REDEF
K_RWPARM_CON.MSG$
      1702**DCL      1708--REDEF
K_RWPARM_CON.MSGID
      1814**DCL      1819--REDEF
K_RWPARM_CON.MSGIDXT
      1827**DCL      1831--REDEF
K_RWPARM_CON.ORG
      1963**DCL      1964--REDEF
K_RWPARM_CON.THDRSZ
      1907**DCL      1911--REDEF
K_RWPARM_CON.VDOFLGS
      1965**DCL      1976--REDEF
LD
      4655**DCL      4739>>ASSIGN
MAIN_PROC
      4670**LABEL    4666--GOTO
NK$LDCT
      3962**DCL         6--PROC     4668--ENTRY    4706<>CALL     4710<>CALL     4753<>CALL     4755<>CALL
NK$LDCT.DDT$
      3964**DCL      3964--REDEF
NK$LDCT.IOQ$
      3963**DCL      3964--REDEF
NK$LDCT.LDCTX
PL6.E3A0      #012=KIA$WRITE File=KIA$APPLC.:E05TSI                              WED 07/30/97 00:39 Page:591
      3965**DCL      3965--REDEF
NK$LDCT.LKFLG.ABORTED
      3977**DCL      3978--REDEF
NK$LDCT.LKFLG.OBLK
      3977**DCL      4696<<ASSIGN
NK$LDCT.RLCID.LDCTX
      3987**DCL      3987--REDEF
NK$LDCT.STA$
      3983**DCL      3984--REDEF
NK$LDCT.SYMB$
      3962**DCL      3962--REDEF    3962--REDEF    3963--REDEF
NK$LDCT.TCTLCNT
      3992**DCL      4684<<ASSIGN   4684>>ASSIGN   4685>>IF
NK$LDCT.TH.MAXNMBBYT
      3989**DCL      4692>>IF       4748<<ASSIGN   4748>>ASSIGN   4760<<ASSIGN   4760>>ASSIGN
NK$LDCT.TH.MAXNMBRCR
      3988**DCL      4692>>IF       4701>>IF       4749<<ASSIGN   4749>>ASSIGN   4761<<ASSIGN   4761>>ASSIGN
NK$LDCT.TH.MAXRCRBYTSIZ
      3989**DCL      4728>>IF       4730>>IF       4737>>ASSIGN
NK$LDCT.TH.STR
      3988**DCL      4692>>IF       4692>>IF
NK$VFC.COUNT
      4328**DCL      4673>>IF       4673>>IF       4677>>IF
NK$VFC.FCN
      4328**DCL      4673>>IF
RETRY
      4739**LABEL    4765--GOTO
S_RWPARM
      4360**DCL      4698<<ASSIGN   4706<>CALL
S_RWPARM.BLKREC
      4386**DCL      4411--REDEF
S_RWPARM.BLKREC.BLKU#
      4387**DCL      4389--REDEF
S_RWPARM.BLKREC.RECU#
      4399**DCL      4401--REDEF
S_RWPARM.DVE.DVBYTE.VFC
PL6.E3A0      #012=KIA$WRITE File=KIA$APPLC.:E05TSI                              WED 07/30/97 00:39 Page:592
      4426**DCL      4427--REDEF
S_RWPARM.DVE.EOMCHAR
      4434**DCL      4438--REDEF
S_RWPARM.ERR
      4498**DCL      4503--REDEF    4714>>ASSIGN
S_RWPARM.FC
      4462**DCL      4463--REDEF
S_RWPARM.FLDID
      4644**DCL      4645--REDEF
S_RWPARM.FPT$
      4525**DCL      4532--REDEF
S_RWPARM.KEYTYPE
      4651**DCL      4652--REDEF
S_RWPARM.MAXRCRBYTSIZ
      4640**DCL      4699<<ASSIGN
S_RWPARM.MSG$
      4361**DCL      4367--REDEF
S_RWPARM.MSGID
      4473**DCL      4478--REDEF
S_RWPARM.MSGIDXT
      4486**DCL      4490--REDEF
S_RWPARM.ORG
      4622**DCL      4623--REDEF
S_RWPARM.RSN
      4463**DCL      4703<<ASSIGN   4705<<ASSIGN
S_RWPARM.STR
      4637**DCL      4700<<ASSIGN
S_RWPARM.THDRSZ
      4566**DCL      4570--REDEF
S_RWPARM.VDOFLGS
      4624**DCL      4635--REDEF
THRT
      4337**DCL      4682<<ASSIGN   4690<<ASSIGN   4692>>IF       4726>>IF       4758>>IF
TRY_BLK_AGAIN
      4696**LABEL    4712--GOTO
USER
PL6.E3A0      #012=KIA$WRITE File=KIA$APPLC.:E05TSI                              WED 07/30/97 00:39 Page:593
      4335**DCL      4665<<ASSIGN   4670<<ASSIGN   4683>>IF       4708>>IF       4751>>IF

PL6.E3A0      #013=KIA$9TO8 File=KIA$APPLC.:E05TSI                               WED 07/30/97 00:39 Page:594
     3143        1        /*T***********************************************************/
     3144        2        /*T*                                                         */
     3145        3        /*T* Copyright (c) Bull HN Information Systems Inc., 1997    */
     3146        4        /*T*                                                         */
     3147        5        /*T***********************************************************/
     3148        6        /*D* NAME:        KIA$9TO8
     3149        7             PURPOSE:     To ready strings to be sent to the FEP over the coupler
     3150        8             CALL:        CALL KIA$9TO8(SOURCE,DESTINATION,BYTES);
     3151        9             INPUT:       SOURCE - The source string
     3152       10                          BYTES  - Number of bytes in SOURCE and DESTINATION
     3153       11             OUTPUT:      DESTINATION - The destination string
     3154       12             DESCRIPTION: KIA$9TO8 takes the BYTES bytes long SOURCE string and
     3155       13                          strips off the first BYTES bits and then places the
     3156       14                          remaining BYTES 8-bit chunks into DESTINATION adding
     3157       15                          slack bits as it goes along.
     3158       16
     3159       17                          As the conversion takes place left to right,
     3160       18                          SOURCE and DESTINATION should not overlap unless
     3161       19                          ADDR(SOURCE) >= ADDR(DESTINATION).
     3162       20        */
     3163       21
     3164       22        KIA$9TO8: PROC(SOURCE,DEST,BYTES);
     3165       23        /**/
     3166       24        /**/
     3167       25    1   DCL SOURCE(0:0) UBIN BYTE UNAL;
     3168       26    1   DCL DEST(0:0) UBIN BYTE UNAL;
     3169       27    1   DCL BYTES UBIN;
     3170       28    1   DCL TEMP SBIN;
     3171       29    1   DCL TEMPU REDEF TEMP UBIN;
     3172       30    1   DCL TEMPC REDEF TEMP CHAR(4);
     3173       31    1   DCL TEMPB REDEF TEMP BIT(36);
     3174       32    1   DCL SRC$ PTR;
     3175       33    1   DCL DST$ PTR;
     3176       34    1   DCL TEMPU1 REDEF DST$ UBIN;
     3177       35    1   DCL 1 DPTR REDEF DST$,
     3178       36    1         2 * BIT(18),                      /* WORD OFFSET                        */
     3179       37    1         2 HW BIT(1),                      /* RIGHT HALFWORD FLAG                */
PL6.E3A0      #013=KIA$9TO8 File=KIA$APPLC.:E05TSI                               WED 07/30/97 00:39 Page:595
     3180       38    1         2 BYT BIT(1),                     /* ODD BYTE FLAG                      */
     3181       39    1         2 BT BIT(4),                      /* NON-BYTE-ALIGNED FLAG              */
     3182       40    1         2 * BIT(12);                      /* SEGID                              */
     3183       41    1   DCL CHRS CALIGNED BASED(DST$) CHAR(BYTES);
     3184       42    1   DCL TEMPU9 UBIN;
     3185       43    1   DCL BYT$8(0:0) UBIN(8) UNAL BASED;
     3186       44    1   DCL BIT$S BIT(TEMPU9) UNAL BASED;
     3187       45    1   DCL SRCEBYT UBIN(8) UNAL BASED(SRC$);
     3188       46    1   DCL 1 DESTBYT CALIGNED BASED(DST$) ,
     3189       47    1         2 BIT1 BIT(1) UNAL,
     3190       48    1         2 BYT UBIN(8) UNAL;
     3191       49
     3192       50    1           TEMPU = BYTES ;
     3193       51    1           SRC$=PINCRB(ADDR(SOURCE),TEMPU);
     3194       52    1           DST$ = ADDR(DEST) ;
     3195       53        /*           DESTBYT.BIT1 = '0'B ;               */
     3196       54    1           DESTBYT.BYT = SRCEBYT ;
     3197       55    1           TEMP = -TEMP;
     3198       56    1           GOTO L2 ;
     3199       57    1   L1:
     3200       58    1           DST$ = PINCRC(DST$,1) ;
     3201       59    1           SRC$ = PINCRB(SRC$,8) ;
     3202       60        /*           DESTBYT.BIT1 = '0'B ;               */
     3203       61    1           DESTBYT.BYT = SRCEBYT ;
     3204       62    1   L2:
     3205       63    1           TEMP = TEMP + 1 ;
     3206       64    1           IF TEMP < 0 THEN
     3207       65    1               GOTO L1 ;
     3208       66
     3209       67    1           RETURN;
     3210       68
     3211       69        /**/
     3212       70        /**/
     3213       71        /*D* NAME:        KIA$8TO9
     3214       72            PURPOSE:     To remove slack bits from data read from the FEP across the coupler
     3215       73             CALL:        CALL KIA$8TO9(SOURCE,DESTINATION,BYTES);
     3216       74             DESCRIPTION: This is the reverse of KIA$9TO8, including the direction
PL6.E3A0      #013=KIA$9TO8 File=KIA$APPLC.:E05TSI                               WED 07/30/97 00:39 Page:596
     3217       75                          of conversion, implying that overlap requires that
     3218       76                          ADDR(SOURCE) <= ADDR(DESTINATION).
     3219       77        */
     3220       78    1   KIA$8TO9: ENTRY(SOURCE,DEST,BYTES);
     3221       79        /**/
     3222       80        /**/
     3223       81    2           IF ADDR(SOURCE) = ADDR(DEST) THEN DO;
     3224       82        /* If converting in place, try not to use EIS instructions.
     3225       83           Since it's probably in the ICQ, and they'll bleed results into the next
     3226       84           word, sometimes clobbering something important (like the message-free
     3227       85           flag) in a multiprocessing environment. */
     3228       86    2               DST$ = ADDR(SOURCE);
     3229       87    2               IF DPTR.BT THEN EXIT;
     3230       88    2               IF BYTES = 1 THEN RETURN;
     3231       89    2               IF BYTES > 4 THEN EXIT;
     3232       90    2               TEMPC = CHRS;
     3233       91    2               TEMPU = TEMPU + BITBIN(TEMPB&'007FC01FF'X);
     3234       92    2               TEMPU = TEMPU + MOD(TEMPU,262144);
     3235       93    2               TEMPU = TEMPU + MOD(TEMPU,262144);
     3236       94    2               IF BYTES < 3 THEN TEMPU = TEMPU/2;
     3237       95    2                 ELSE IF BYTES > 3 THEN TEMPU = TEMPU/8;
     3238       96    2                     ELSE TEMPU = TEMPU/4;
     3239       97    2               CHRS = TEMPC;
     3240       98    2               RETURN;
     3241       99    2               END;
     3242      100    1           TEMPU = BYTES ; TEMPU9 = TEMPU ;
     3243      101    1           TEMPU1 = 8*TEMPU + TEMPU - 9 ;
     3244      102    1           SRC$ = PINCRB(ADDR(SOURCE),TEMPU1) ;
     3245      103    1           DST$=PINCRB(ADDR(DEST),TEMPU1+1);
     3246      104    1           TEMP = -TEMP;
     3247      105    1           DST$->SRCEBYT = SRC$->DESTBYT.BYT ;
     3248      106    1           GOTO L4 ;
     3249      107    1   L3:
     3250      108    1           SRC$ = PINCRC(SRC$,-1) ;
     3251      109    1           DST$ = PINCRB(DST$,-8) ;
     3252      110    1           DST$->SRCEBYT = SRC$->DESTBYT.BYT ;
     3253      111    1   L4:
PL6.E3A0      #013=KIA$9TO8 File=KIA$APPLC.:E05TSI                               WED 07/30/97 00:39 Page:597
     3254      112    1           TEMP = TEMP + 1 ;
     3255      113    1           IF TEMP < 0 THEN
     3256      114    1               GOTO L3 ;
     3257      115    1           ADDR(DEST)->BIT$S='0'B;
     3258      116    1           RETURN;
     3259      117    1   END KIA$9TO8;
     3260      118        %EOD;

PL6.E3A0      #013=KIA$9TO8 File=KIA$APPLC.:E05TSI                               WED 07/30/97 00:39 Page:598
      No diagnostics issued in procedure KIA$9TO8.

   Procedure KIA$9TO8 requires 120 words for executable code.
   Procedure KIA$9TO8 requires 10 words of local(AUTO) storage.

PL6.E3A0      #013=KIA$9TO8 File=KIA$APPLC.:E05TSI                               WED 07/30/97 00:39 Page:599

 Object Unit name= KIA$9TO8                                   File name= KIA$APPLC.:E05TOU
 UTS= JUL 30 '97 00:39:45.32 WED                              Compiler= PL-6/E31         Sev=      00
 SharedLib= :SHARED_SYSTEM                                    Alt SharedLib=


    ****  Control sections  ****

 Sect   Type Bound  Init  Size OctSiz  Section name(segment info)
    0  RoData even  UTS      1      1  KIA$9TO8
    1   Proc  even  none   120    170  KIA$9TO8

    ****  Entry defs  ****

                              Check   Calling
                             calling  sequence
  Sect OctLoc Primary Altret sequence   type   Parms  Name
     1      0   yes            yes      Std        3  KIA$9TO8
     1     37                  yes      Std        3  KIA$8TO9

  ****  Entry refs  ****

         Check        Calling
        calling       sequence
Altret sequence SRef   type   Args  Name
                       nStd      0 X66_AUTO_3
                       nStd      0 X66_ARET
                       Std       0 B_CONSPOOL_D

  ****  Data refs  ****

  Flags:  r = read only, s = secondary
Flgs Name                             Flgs Name                             Flgs Name
     B_VECTNIL
PL6.E3A0      #013=KIA$9TO8 File=KIA$APPLC.:E05TSI                               WED 07/30/97 00:39 Page:600


     3143        1        /*T***********************************************************/
     3144        2        /*T*                                                         */
     3145        3        /*T* Copyright (c) Bull HN Information Systems Inc., 1997    */
     3146        4        /*T*                                                         */
     3147        5        /*T***********************************************************/
     3148        6        /*D* NAME:        KIA$9TO8
     3149        7             PURPOSE:     To ready strings to be sent to the FEP over the coupler
     3150        8             CALL:        CALL KIA$9TO8(SOURCE,DESTINATION,BYTES);
     3151        9             INPUT:       SOURCE - The source string
     3152       10                          BYTES  - Number of bytes in SOURCE and DESTINATION
     3153       11             OUTPUT:      DESTINATION - The destination string
     3154       12             DESCRIPTION: KIA$9TO8 takes the BYTES bytes long SOURCE string and
     3155       13                          strips off the first BYTES bits and then places the
     3156       14                          remaining BYTES 8-bit chunks into DESTINATION adding
     3157       15                          slack bits as it goes along.
     3158       16
     3159       17                          As the conversion takes place left to right,
     3160       18                          SOURCE and DESTINATION should not overlap unless
     3161       19                          ADDR(SOURCE) >= ADDR(DESTINATION).
     3162       20        */
     3163       21
     3164       22        KIA$9TO8: PROC(SOURCE,DEST,BYTES);

     22  1 000000   000000 700200 xent  KIA$9TO8     TSX0  ! X66_AUTO_3
         1 000001   000012 000003                    ZERO    10,3

     3165       23        /**/
     3166       24        /**/
     3167       25    1   DCL SOURCE(0:0) UBIN BYTE UNAL;
     3168       26    1   DCL DEST(0:0) UBIN BYTE UNAL;
     3169       27    1   DCL BYTES UBIN;
     3170       28    1   DCL TEMP SBIN;
     3171       29    1   DCL TEMPU REDEF TEMP UBIN;
     3172       30    1   DCL TEMPC REDEF TEMP CHAR(4);
     3173       31    1   DCL TEMPB REDEF TEMP BIT(36);
     3174       32    1   DCL SRC$ PTR;
PL6.E3A0      #013=KIA$9TO8 File=KIA$APPLC.:E05TSI                               WED 07/30/97 00:39 Page:601
     3175       33    1   DCL DST$ PTR;
     3176       34    1   DCL TEMPU1 REDEF DST$ UBIN;
     3177       35    1   DCL 1 DPTR REDEF DST$,
     3178       36    1         2 * BIT(18),                      /* WORD OFFSET                        */
     3179       37    1         2 HW BIT(1),                      /* RIGHT HALFWORD FLAG                */
     3180       38    1         2 BYT BIT(1),                     /* ODD BYTE FLAG                      */
     3181       39    1         2 BT BIT(4),                      /* NON-BYTE-ALIGNED FLAG              */
     3182       40    1         2 * BIT(12);                      /* SEGID                              */
     3183       41    1   DCL CHRS CALIGNED BASED(DST$) CHAR(BYTES);
     3184       42    1   DCL TEMPU9 UBIN;
     3185       43    1   DCL BYT$8(0:0) UBIN(8) UNAL BASED;
     3186       44    1   DCL BIT$S BIT(TEMPU9) UNAL BASED;
     3187       45    1   DCL SRCEBYT UBIN(8) UNAL BASED(SRC$);
     3188       46    1   DCL 1 DESTBYT CALIGNED BASED(DST$) ,
     3189       47    1         2 BIT1 BIT(1) UNAL,
     3190       48    1         2 BYT UBIN(8) UNAL;
     3191       49
     3192       50    1           TEMPU = BYTES ;

     50  1 000002   200005 470500                    LDP0    @BYTES,,AUTO
         1 000003   000000 235100                    LDA     0,,PR0
         1 000004   200006 755100                    STA     TEMP,,AUTO

     3193       51    1           SRC$=PINCRB(ADDR(SOURCE),TEMPU);

     51  1 000005   200003 471500                    LDP1    @SOURCE,,AUTO
         1 000006   100000 503505                    ABD     0,AL,PR1
         1 000007   200007 451500                    STP1    SRC$,,AUTO

     3194       52    1           DST$ = ADDR(DEST) ;

     52  1 000010   200004 236100                    LDQ     @DEST,,AUTO
         1 000011   200010 756100                    STQ     DST$,,AUTO

     3195       53        /*           DESTBYT.BIT1 = '0'B ;               */
     3196       54    1           DESTBYT.BYT = SRCEBYT ;

PL6.E3A0      #013=KIA$9TO8 File=KIA$APPLC.:E05TSI                               WED 07/30/97 00:39 Page:602
     54  1 000012   200010 473500                    LDP3    DST$,,AUTO
         1 000013   003100 060500                    CSL     bolr='003'O
         1 000014   100000 000010                    BDSC    0,,PR1                   by=0,bit=0,n=8
         1 000015   300000 010010                    BDSC    0,,PR3                   by=0,bit=1,n=8

     3197       55    1           TEMP = -TEMP;

     55  1 000016   200006 335100                    LCA     TEMP,,AUTO
         1 000017   200006 755100                    STA     TEMP,,AUTO

     3198       56    1           GOTO L2 ;

     56  1 000020   000034 710000 1                  TRA     L2

     3199       57    1   L1:
     3200       58    1           DST$ = PINCRC(DST$,1) ;

     58  1 000021   200010 236100       L1           LDQ     DST$,,AUTO
         1 000022   200000 036007                    ADLQ    65536,DL
         1 000023   200010 756100                    STQ     DST$,,AUTO

     3201       59    1           SRC$ = PINCRB(SRC$,8) ;

     59  1 000024   200007 470500                    LDP0    SRC$,,AUTO
         1 000025   000010 220003                    LDX0    8,DU
         1 000026   000000 503510                    ABD     0,X0,PR0
         1 000027   200007 450500                    STP0    SRC$,,AUTO

     3202       60        /*           DESTBYT.BIT1 = '0'B ;               */
     3203       61    1           DESTBYT.BYT = SRCEBYT ;

     61  1 000030   200010 471500                    LDP1    DST$,,AUTO
         1 000031   003100 060500                    CSL     bolr='003'O
         1 000032   000000 000010                    BDSC    0,,PR0                   by=0,bit=0,n=8
         1 000033   100000 010010                    BDSC    0,,PR1                   by=0,bit=1,n=8

     3204       62    1   L2:
PL6.E3A0      #013=KIA$9TO8 File=KIA$APPLC.:E05TSI                               WED 07/30/97 00:39 Page:603
     3205       63    1           TEMP = TEMP + 1 ;

     63  1 000034   200006 054100       L2           AOS     TEMP,,AUTO

     3206       64    1           IF TEMP < 0 THEN

     64  1 000035   000021 604000 1                  TMI     L1

     3207       65    1               GOTO L1 ;
     3208       66
     3209       67    1           RETURN;

     67  1 000036   000000 702200 xent               TSX2  ! X66_ARET

     3210       68
     3211       69        /**/
     3212       70        /**/
     3213       71        /*D* NAME:        KIA$8TO9
     3214       72            PURPOSE:    To remove slack bits from data read from the FEP across the coupler
     3215       73             CALL:        CALL KIA$8TO9(SOURCE,DESTINATION,BYTES);
     3216       74             DESCRIPTION: This is the reverse of KIA$9TO8, including the direction
     3217       75                          of conversion, implying that overlap requires that
     3218       76                          ADDR(SOURCE) <= ADDR(DESTINATION).
     3219       77        */
     3220       78    1   KIA$8TO9: ENTRY(SOURCE,DEST,BYTES);

     78  1 000037   000000 700200 xent  KIA$8TO9     TSX0  ! X66_AUTO_3
         1 000040   000012 000003                    ZERO    10,3

     3221       79        /**/
     3222       80        /**/
     3223       81    2           IF ADDR(SOURCE) = ADDR(DEST) THEN DO;

     81  1 000041   200003 236100                    LDQ     @SOURCE,,AUTO
         1 000042   200004 116100                    CMPQ    @DEST,,AUTO
         1 000043   000116 601000 1                  TNZ     s:100

PL6.E3A0      #013=KIA$9TO8 File=KIA$APPLC.:E05TSI                               WED 07/30/97 00:39 Page:604
     3224       82        /* If converting in place, try not to use EIS instructions.
     3225       83           Since it's probably in the ICQ, and they'll bleed results into the next
     3226       84           word, sometimes clobbering something important (like the message-free
     3227       85           flag) in a multiprocessing environment. */
     3228       86    2               DST$ = ADDR(SOURCE);

     86  1 000044   200010 756100                    STQ     DST$,,AUTO

     3229       87    2               IF DPTR.BT THEN EXIT;

     87  1 000045   200010 236100                    LDQ     DST$,,AUTO
         1 000046   170000 316007                    CANQ    61440,DL
         1 000047   000116 601000 1                  TNZ     s:100

     3230       88    2               IF BYTES = 1 THEN RETURN;

     88  1 000050   200005 470500                    LDP0    @BYTES,,AUTO
         1 000051   000000 235100                    LDA     0,,PR0
         1 000052   000001 115007                    CMPA    1,DL
         1 000053   000055 601000 1                  TNZ     s:89

     88  1 000054   000000 702200 xent               TSX2  ! X66_ARET

     3231       89    2               IF BYTES > 4 THEN EXIT;

     89  1 000055   000005 115007                    CMPA    5,DL
         1 000056   000116 603000 1                  TRC     s:100

     3232       90    2               TEMPC = CHRS;

     90  1 000057   000000 720100                    LXL0    0,,PR0
         1 000060   200010 471500                    LDP1    DST$,,AUTO
         1 000061   040100 100540                    MLR     fill='040'O
         1 000062   100000 000010                    ADSC9   0,,PR1                   cn=0,n=*X0
         1 000063   200006 000004                    ADSC9   TEMP,,AUTO               cn=0,n=4

     3233       91    2               TEMPU = TEMPU + BITBIN(TEMPB&'007FC01FF'X);
PL6.E3A0      #013=KIA$9TO8 File=KIA$APPLC.:E05TSI                               WED 07/30/97 00:39 Page:605

     91  1 000064   200006 236100                    LDQ     TEMP,,AUTO
         1 000065   000000 376000 0                  ANQ     0
         1 000066   200006 036100                    ADLQ    TEMP,,AUTO
         1 000067   200006 756100                    STQ     TEMP,,AUTO

     3234       92    2               TEMPU = TEMPU + MOD(TEMPU,262144);

     92  1 000070   777777 376007                    ANQ     -1,DL
         1 000071   200006 036100                    ADLQ    TEMP,,AUTO
         1 000072   200006 756100                    STQ     TEMP,,AUTO

     3235       93    2               TEMPU = TEMPU + MOD(TEMPU,262144);

     93  1 000073   777777 376007                    ANQ     -1,DL
         1 000074   200006 036100                    ADLQ    TEMP,,AUTO
         1 000075   200006 756100                    STQ     TEMP,,AUTO

     3236       94    2               IF BYTES < 3 THEN TEMPU = TEMPU/2;

     94  1 000076   000003 115007                    CMPA    3,DL
         1 000077   000103 603000 1                  TRC     s:95

     94  1 000100   000001 772000                    QRL     1
         1 000101   200006 756100                    STQ     TEMP,,AUTO
         1 000102   000112 710000 1                  TRA     s:97

     3237       95    2                 ELSE IF BYTES > 3 THEN TEMPU = TEMPU/8;

     95  1 000103   000004 115007                    CMPA    4,DL
         1 000104   000110 602000 1                  TNC     s:96

     95  1 000105   000003 772000                    QRL     3
         1 000106   200006 756100                    STQ     TEMP,,AUTO
         1 000107   000112 710000 1                  TRA     s:97

     3238       96    2                     ELSE TEMPU = TEMPU/4;
PL6.E3A0      #013=KIA$9TO8 File=KIA$APPLC.:E05TSI                               WED 07/30/97 00:39 Page:606

     96  1 000110   000002 772000                    QRL     2
         1 000111   200006 756100                    STQ     TEMP,,AUTO

     3239       97    2               CHRS = TEMPC;

     97  1 000112   040140 100500                    MLR     fill='040'O
         1 000113   200006 000004                    ADSC9   TEMP,,AUTO               cn=0,n=4
         1 000114   100000 000010                    ADSC9   0,,PR1                   cn=0,n=*X0

     3240       98    2               RETURN;

     98  1 000115   000000 702200 xent               TSX2  ! X66_ARET

     3241       99    2               END;
     3242      100    1           TEMPU = BYTES ; TEMPU9 = TEMPU ;

    100  1 000116   200005 470500                    LDP0    @BYTES,,AUTO
         1 000117   000000 235100                    LDA     0,,PR0
         1 000120   200006 755100                    STA     TEMP,,AUTO

    100  1 000121   200011 755100                    STA     TEMPU9,,AUTO

     3243      101    1           TEMPU1 = 8*TEMPU + TEMPU - 9 ;

    101  1 000122   200006 236100                    LDQ     TEMP,,AUTO
         1 000123   000003 736000                    QLS     3
         1 000124   200006 036100                    ADLQ    TEMP,,AUTO
         1 000125   000011 136007                    SBLQ    9,DL
         1 000126   200010 756100                    STQ     DST$,,AUTO

     3244      102    1           SRC$ = PINCRB(ADDR(SOURCE),TEMPU1) ;

    102  1 000127   200003 471500                    LDP1    @SOURCE,,AUTO
         1 000130   100000 503506                    ABD     0,QL,PR1
         1 000131   200007 451500                    STP1    SRC$,,AUTO

PL6.E3A0      #013=KIA$9TO8 File=KIA$APPLC.:E05TSI                               WED 07/30/97 00:39 Page:607
     3245      103    1           DST$=PINCRB(ADDR(DEST),TEMPU1+1);

    103  1 000132   200004 473500                    LDP3    @DEST,,AUTO
         1 000133   200010 235100                    LDA     DST$,,AUTO
         1 000134   000001 035007                    ADLA    1,DL
         1 000135   300000 503505                    ABD     0,AL,PR3
         1 000136   200010 453500                    STP3    DST$,,AUTO

     3246      104    1           TEMP = -TEMP;

    104  1 000137   200006 335100                    LCA     TEMP,,AUTO
         1 000140   200006 755100                    STA     TEMP,,AUTO

     3247      105    1           DST$->SRCEBYT = SRC$->DESTBYT.BYT ;

    105  1 000141   003100 060500                    CSL     bolr='003'O
         1 000142   100000 010010                    BDSC    0,,PR1                   by=0,bit=1,n=8
         1 000143   300000 000010                    BDSC    0,,PR3                   by=0,bit=0,n=8

     3248      106    1           GOTO L4 ;

    106  1 000144   000160 710000 1                  TRA     L4

     3249      107    1   L3:
     3250      108    1           SRC$ = PINCRC(SRC$,-1) ;

    108  1 000145   200007 236100       L3           LDQ     SRC$,,AUTO
         1 000146   000034 036000 xsym               ADLQ    B_VECTNIL+28
         1 000147   200007 756100                    STQ     SRC$,,AUTO

     3251      109    1           DST$ = PINCRB(DST$,-8) ;

    109  1 000150   200010 470500                    LDP0    DST$,,AUTO
         1 000151   000010 220003                    LDX0    8,DU
         1 000152   000000 523510                    SBD     0,X0,PR0
         1 000153   200010 450500                    STP0    DST$,,AUTO

PL6.E3A0      #013=KIA$9TO8 File=KIA$APPLC.:E05TSI                               WED 07/30/97 00:39 Page:608
     3252      110    1           DST$->SRCEBYT = SRC$->DESTBYT.BYT ;

    110  1 000154   200007 471500                    LDP1    SRC$,,AUTO
         1 000155   003100 060500                    CSL     bolr='003'O
         1 000156   100000 010010                    BDSC    0,,PR1                   by=0,bit=1,n=8
         1 000157   000000 000010                    BDSC    0,,PR0                   by=0,bit=0,n=8

     3253      111    1   L4:
     3254      112    1           TEMP = TEMP + 1 ;

    112  1 000160   200006 054100       L4           AOS     TEMP,,AUTO

     3255      113    1           IF TEMP < 0 THEN

    113  1 000161   000145 604000 1                  TMI     L3

     3256      114    1               GOTO L3 ;
     3257      115    1           ADDR(DEST)->BIT$S='0'B;

    115  1 000162   200004 470500                    LDP0    @DEST,,AUTO
         1 000163   200011 720100                    LXL0    TEMPU9,,AUTO
         1 000164   003140 060400                    CSL     bolr='003'O
         1 000165   000002 000001 xsym               BDSC    B_VECTNIL+2              by=0,bit=0,n=1
         1 000166   000000 000010                    BDSC    0,,PR0                   by=0,bit=0,n=*X0

     3258      116    1           RETURN;

    116  1 000167   000000 702200 xent               TSX2  ! X66_ARET

(unnamed)
 Sect OctLoc
   0     000   000777 000777                                                    ....
     3259      117    1   END KIA$9TO8;
     3260      118        %EOD;

PL6.E3A0      #013=KIA$9TO8 File=KIA$APPLC.:E05TSI                               WED 07/30/97 00:39 Page:609
      No diagnostics issued in procedure KIA$9TO8.
PL6.E3A0      #013=KIA$9TO8 File=KIA$APPLC.:E05TSI                               WED 07/30/97 00:39 Page:610

 **** Variables and constants ****

  ****  Auto variables  ****

  ****  Scalars and arrays  ****
OctLoc.c.b A Datatyp(siz) R M Lvl/name                 OctLoc.c.b A Datatyp(siz) R M Lvl/name

     5-0-0/w PTR         r     1 @BYTES                     4-0-0/w PTR         r     1 @DEST
     3-0-0/w PTR         r     1 @SOURCE                   *0-0-0/w UBIN        r     1 BYTES
    *0-0-0/b UBIN(9)     r     1 DEST(0:0)                 10-0-0/w STRC        r     1 DPTR
    10-0-0/w PTR         r     1 DST$                      *0-0-0/b UBIN(9)     r     1 SOURCE(0:0)
     7-0-0/w PTR         r     1 SRC$                       6-0-0/w SBIN        r     1 TEMP
     6-0-0/w BIT         r     1 TEMPB                      6-0-0/w CHAR(4)     r     1 TEMPC
     6-0-0/w UBIN        r     1 TEMPU                     10-0-0/w UBIN        r     1 TEMPU1
    11-0-0/w UBIN        r     1 TEMPU9

  ****  BASED and DCB variables  ****

  ****  Scalars and arrays  ****
OctLoc.c.b A Datatyp(siz) R M Lvl/name                 OctLoc.c.b A Datatyp(siz) R M Lvl/name

     0-0-0/b ABIT        r     1 BIT$S                      0-0-0/c ACHR        r     1 CHRS
     0-0-0/c STRC(9)     r     1 DESTBYT                    0-0-0/b UBIN(8)     r     1 SRCEBYT


   Procedure KIA$9TO8 requires 120 words for executable code.
   Procedure KIA$9TO8 requires 10 words of local(AUTO) storage.
PL6.E3A0      #013=KIA$9TO8 File=KIA$APPLC.:E05TSI                               WED 07/30/97 00:39 Page:611
          *** CROSS REFERENCE LISTING ***
**     DENOTES     IDENTIFIER DEFINITION
<<                 IDENTIFIER'S VALUE SET
>>                 IDENTIFIER'S VALUE USED
<>                 IDENTIFIER SET AND/OR USED
--                 IDENTIFIER REFERENCED
PL6.E3A0      #013=KIA$9TO8 File=KIA$APPLC.:E05TSI                               WED 07/30/97 00:39 Page:612
          MINI XREF LISTING

BIT$S
        44**DCL       115<<ASSIGN
BYTES
        27**DCL        22--PROC       41--IMP-SIZ    50>>ASSIGN     78--ENTRY      88>>IF         89>>IF
        90>>ASSIGN     94>>IF         95>>IF         97>>ASSIGN    100>>ASSIGN
CHRS
        41**DCL        90>>ASSIGN     97<<ASSIGN
DEST
        26**DCL        22--PROC       52--ASSIGN     78--ENTRY      81--IF        103--ASSIGN    115--ASSIGN
DESTBYT.BYT
        48**DCL        54<<ASSIGN     61<<ASSIGN    105>>ASSIGN    110>>ASSIGN
DPTR.BT
        39**DCL        87>>IF
DST$
        33**DCL        34--REDEF      35--REDEF      41--IMP-PTR    46--IMP-PTR    52<<ASSIGN     54>>ASSIGN
        58<<ASSIGN     58>>ASSIGN     61>>ASSIGN     86<<ASSIGN     90>>ASSIGN     97>>ASSIGN    103<<ASSIGN
       105>>ASSIGN    109<<ASSIGN    109>>ASSIGN    110>>ASSIGN
L1
        58**LABEL      65--GOTO
L2
        63**LABEL      56--GOTO
L3
       108**LABEL     114--GOTO
L4
       112**LABEL     106--GOTO
SOURCE
        25**DCL        22--PROC       51--ASSIGN     78--ENTRY      81--IF         86--ASSIGN    102--ASSIGN
SRC$
        32**DCL        45--IMP-PTR    51<<ASSIGN     54>>ASSIGN     59<<ASSIGN     59>>ASSIGN     61>>ASSIGN
       102<<ASSIGN    105>>ASSIGN    108<<ASSIGN    108>>ASSIGN    110>>ASSIGN
SRCEBYT
        45**DCL        54>>ASSIGN     61>>ASSIGN    105<<ASSIGN    110<<ASSIGN
PL6.E3A0      #013=KIA$9TO8 File=KIA$APPLC.:E05TSI                               WED 07/30/97 00:39 Page:613
TEMP
        28**DCL        29--REDEF      30--REDEF      31--REDEF      55<<ASSIGN     55>>ASSIGN     63<<ASSIGN
        63>>ASSIGN     64>>IF        104<<ASSIGN    104>>ASSIGN    112<<ASSIGN    112>>ASSIGN    113>>IF
TEMPB
        31**DCL        91>>ASSIGN
TEMPC
        30**DCL        90<<ASSIGN     97>>ASSIGN
TEMPU
        29**DCL        50<<ASSIGN     51>>ASSIGN     91<<ASSIGN     91>>ASSIGN     92<<ASSIGN     92>>ASSIGN
        92>>ASSIGN     93<<ASSIGN     93>>ASSIGN     93>>ASSIGN     94<<ASSIGN     94>>ASSIGN     95<<ASSIGN
        95>>ASSIGN     96<<ASSIGN     96>>ASSIGN    100<<ASSIGN    100>>ASSIGN    101>>ASSIGN    101>>ASSIGN
TEMPU1
        34**DCL       101<<ASSIGN    102>>ASSIGN    103>>ASSIGN
TEMPU9
        42**DCL        44--IMP-SIZ   100<<ASSIGN    115>>ASSIGN

