PL6.E3A0      #002=KIA$UCIN File=KIA$APPLC.:E05TSI                               WED 07/30/97 00:32 Page:188
     1094        1        /*T***********************************************************/
     1095        2        /*T*                                                         */
     1096        3        /*T* Copyright (c) Bull HN Information Systems Inc., 1997    */
     1097        4        /*T*                                                         */
     1098        5        /*T***********************************************************/
     1099        6
     1100        7
     1101        8        KIA$UCIN: PROC (NK$LDCT,K$RWPARM) ALTRET;
     1102        9
     1103       10        /*F*
     1104       11             NAME: KIA$UCIN
     1105       12             PURPOSE:
     1106       13                  This routine is the receiver for all messages destined for
     1107       14                  a time sharing terminal.
     1108       15             DESCRIPTION:
     1109       16                  When ever a message comes in to the host for a time sharing
     1110       17                  terminal KIA$UCIN is called from KIA$ISCAN to determine what
     1111       18                  functions needs to be performed. KIA$UCIN will return normally
     1112       19                  if it processed the message, altreturn with the error K$WAIT_READ
     1113       20                  to specify leave the message in the queue and a read will be
     1114       21                  done for it later, or altreturn with K$DEFER_IO which says
     1115       22                  it can not process the message right now, but call back later.
     1116       23        */
     1117       24
     1118       25        %INCLUDE B_STRINGS_C;
     1119      154        %INCLUDE CP_6;
     1120     5713        %INCLUDE KI$MHDR;
     1121     5854        %INCLUDE KV$VDO;
     1122     6869        %INCLUDE KI_DATA_R;
     1123     6895        %INCLUDE HF_LOCK_C;
     1124     6909        %INCLUDE NK$LDCT;
     1125     7011        %INCLUDE NK_SUBS;
     1126     7036        %INCLUDE KI_SUBS_C;
     1127     7172        %INCLUDE K_SUBS_C;
     1128     7205        %INCLUDE SS_SCHED_C;
     1129     7438        %INCLUDE K_DATA_R;
     1130     8149        %INCLUDE B$USER;
PL6.E3A0      #002=KIA$UCIN File=KIA$APPLC.:E05TSI                               WED 07/30/97 00:32 Page:189
     1131     8365        %INCLUDE KL_MACRO_C;
     1132    11717        %INCLUDE KL_AFCN_C;
     1133    11818
     1134    11819        %NK$LDCT (STCLASS="");
     1135    11865        %K$RWPARM (NAME=K$RWPARM);
     1136    12181        %KI$QMHDR;
     1137    12230        %KL_FEPST(STCLASS="");
     1138    12265        %KV_VDO_ALL_E;
     1139    12344        %KV$VDO (STCLASS="BASED(K$RWPARM.UHDR$)");
     1140    12371        %KV$VDO_PRM;
     1141    12412        %KV$VDO_EVT (STCLASS="BASED(K$RWPARM.UHDR$)");
     1142    12454        %KV$VDO_DLT (STCLASS="BASED(K$RWPARM.UHDR$)");
     1143    12499        %KV$VDO_BLKDAT (STCLASS="BASED(K$RWPARM.UHDR$)");
     1144    12542        %KV$VDO_RQSDAT (STCLASS="BASED(K$RWPARM.UHDR$)");
     1145    12590
     1146    12591        %B$COMIO (NAME=COMIOEV,STCLASS=AUTO,PARONLY=1);
     1147    12600        %K$RWPARM (NAME=OPARM,STCLASS=AUTO);
     1148    12916        %KV$VDO_EVT (STCLASS=AUTO,NAME=VDO);
     1149    12958    1   DCL 1 VDO1 REDEF VDO,
     1150    12959    1            2 * BIT(18) UNAL ,
     1151    12960    1            2 RCRBYTSIZ UBIN(18) UNAL ;
     1152    12961    1   DCL UBNBSD UBIN WORD ALIGNED BASED;
     1153    12962    1   DCL OCQ$ PTR;
     1154    12963    1   DCL P$ PTR;
     1155    12964    1   DCL BCNT UBIN WORD;
     1156    12965    1   DCL DOMN REDEF BCNT UBIN WORD;
     1157    12966    1   DCL EVNT UBIN WORD;
     1158    12967    1   DCL TSTATE REDEF EVNT CHAR(4);
     1159    12968    1   DCL FEI UBIN WORD;
     1160    12969    1   DCL USER UBIN BYTE UNAL;
     1161    12970    1   DCL MARKER BIT(36);
     1162    12971    1   DCL SSC$TSTATE ENTRY(2);
     1163    12972    1   DCL SSV$EVENT ENTRY(7);
     1164    12973    1   DCL KIA$FCNO ENTRY (3) ALTRET;
     1165    12974    1   DCL SSR$RUE ENTRY(4);
     1166    12975    1   DCL KIA$COMP ENTRY(2);
     1167    12976    1   DCL KIQ$FEABT ENTRY(2);
PL6.E3A0      #002=KIA$UCIN File=KIA$APPLC.:E05TSI                               WED 07/30/97 00:32 Page:190
     1168    12977    1   DCL KIA$DSCTS ENTRY(2) ALTRET;
     1169    12978    1   DCL KIA$GETEVNT ENTRY(3);
     1170    12979    1   DCL KUB$WRITE ENTRY(3) ALTRET;
     1171    12980
     1172    12981        %SUB_EXC;
     1173    13028    1   DCL KIA$MSG ENTRY(1) ALTRET;
     1174    13029
     1175    13030    1   DCL B$USRT$ PTR SYMREF;
     1176    13031
     1177    13032
     1178    13033    1        FEI=LDCT.IPFEI#;
     1179    13034    1        VDO = KV$VDO_EVT ;
     1180    13035
     1181    13036    2        DO CASE (VDO.FNC);
     1182    13037        %EJECT;
PL6.E3A0      #002=KIA$UCIN File=KIA$APPLC.:E05TSI                               WED 07/30/97 00:32 Page:191
     1183    13038    2        CASE(%KV_VDO_FNC_EVT);
     1184    13039    2           IF VDO.TYP = %KV_EVTTYP_MNTATN THEN
     1185    13040    2                GOTO L1 ;
     1186    13041    3           ELSE DO;
     1187    13042    3                BCNT = VDO.BRKCNT;
     1188    13043    3                IF BCNT > 3
     1189    13044    3                THEN
     1190    13045    3   L1:
     1191    13046    3                     EVNT=%SS_CEC;
     1192    13047    3                ELSE
     1193    13048    3                     EVNT = %SS_CBK;
     1194    13049    3              END;
     1195    13050
     1196    13051        /* Reset both RDPND and RRRPND */
     1197    13052                %LOCK (G=NK$LDCT.LOCK);
     1198    13055
     1199    13056    2           IF K$RWPARM.MRKTYP ~= 0
     1200    13057    3           THEN DO;
     1201    13058        /* If there is already a marker pending send a mark response */
     1202    13059    3                IF LDCT.LKFLG.MRKPND
     1203    13060    4                THEN DO;
     1204    13061    4                     MARKER = LDCT.MARKER;
     1205    13062    4                     LDCT.LKFLG.MRKPND = '0'B;
     1206    13063    4                     CALL SEND_MARKER ALTRET (GETOUT);
     1207    13064    4                   END;
     1208    13065
     1209    13066    3                MARKER = K$RWPARM.MARKER;
     1210    13067    3                LDCT.MARKER = MARKER;
     1211    13068    3                IF B$USRT$->B$USER.FLG(LDCT.USER)&%U_SCIO
     1212    13069    3                     AND B$USRT$->B$USER.MISC$(LDCT.USER) = ADDR(LDCT)
     1213    13070    3                THEN LDCT.LKFLG.MRKPND = '1'B;
     1214    13071    3                ELSE CALL SEND_MARKER ALTRET(GETOUT);
     1215    13072    3              END;
     1216    13073    2           CALL SSR$RUE (EVNT,LDCT.USER,BCNT);
     1217    13074                %UNLOCK (G=NK$LDCT.LOCK);
     1218    13077
     1219    13078        %EJECT;
PL6.E3A0      #002=KIA$UCIN File=KIA$APPLC.:E05TSI                               WED 07/30/97 00:32 Page:192
     1220    13079    2        CASE (%KV_VDO_FNC_DAT,%KV_VDO_FNC_PRM_RSP);
     1221    13080                %LOCK (G=NK$LDCT.LOCK);
     1222    13083    2           IF K$RWPARM.MRKTYP ~= 0
     1223    13084    3           THEN DO;
     1224    13085    3                MARKER = K$RWPARM.MARKER;
     1225    13086    3                CALL SEND_MARKER ALTRET(GETOUT);
     1226    13087    3              END;
     1227    13088
     1228    13089    2           IF VDO.FNC = %KV_VDO_FNC_DAT AND NK$LDCT.LKFLG.NOWAIT
     1229    13090    3           THEN DO;
     1230    13091    3                CALL KIA$COMP(NK$LDCT,K$RWPARM);
     1231    13092                     %UNLOCK (G=NK$LDCT.LOCK);
     1232    13095    3                RETURN;
     1233    13096    3              END;
     1234    13097    2           P$ = ADDR(B$USRT$->B$USER(LDCT.USER));
     1235    13098    2           IF P$->B$U.FLG & %U_SCIO AND
     1236    13099    2                P$->B$U.MISC$ = ADDR(NK$LDCT) AND
     1237    13100    2                (P$->B$U.US = %SS_STI OR
     1238    13101    2                P$->B$U.US = %SS_SCW)
     1239    13102    2           THEN
     1240    13103    2                CALL SSR$RUE (%SS_CIC,LDCT.USER);
     1241    13104    2           GOTO L4 ;
     1242    13105
     1243    13106        %EJECT;
PL6.E3A0      #002=KIA$UCIN File=KIA$APPLC.:E05TSI                               WED 07/30/97 00:32 Page:193
     1244    13107    2        CASE(%KV_VDO_FNC_DSC_RQS);
     1245    13108    2           CALL KIA$DSCTS (LDCT,K$RWPARM) ALTRET(GETOUT);
     1246    13109
     1247    13110
     1248    13111    2        CASE(%KV_VDO_FNC_OPNSSN_RQS);
     1249    13112
     1250    13113
     1251    13114
     1252    13115    2        CASE(%KV_VDO_FNC_RQSSTT);
     1253    13116    2           CALL SSC$TSTATE (LDCT.USER,TSTATE);
     1254    13117    2           OPARM = K_RWPARM_CON;
     1255    13118    2           OPARM.MSG$ = ADDR(TSTATE);
     1256    13119    2           OPARM.MSGSZ = LENGTHC(TSTATE);
     1257    13120    2           CALL KIA$FCNO(LDCT,%KV_VDO_FNC_STT,OPARM) ALTRET(GETOUT);
     1258    13121
     1259    13122        %EJECT;
PL6.E3A0      #002=KIA$UCIN File=KIA$APPLC.:E05TSI                               WED 07/30/97 00:32 Page:194
     1260    13123    2        CASE(%KV_VDO_FNC_RQSDAT);
     1261    13124                %LOCK (G=NK$LDCT.LOCK);
     1262    13127    2           IF NK$LDCT.TH.MAXNMBRCR = 0 OR NK$LDCT.TH.MAXNMBBYT = 0
     1263    13128    3           THEN DO;
     1264    13129    3                OPARM = K_RWPARM_CON;
     1265    13130    3                CALL KIA$FCNO(NK$LDCT,%KV_VDO_FNC_BLKDAT,OPARM)
     1266    13131    4                WHENALTRETURN DO;
     1267    13132                          %UNLOCK (G=NK$LDCT.LOCK);
     1268    13135    4                     GOTO GETOUT;
     1269    13136    4                   END;
     1270    13137    3                IF K$RWPARM.MRKTYP ~= 0
     1271    13138    4                THEN DO;
     1272    13139    4                     MARKER = K$RWPARM.MARKER;
     1273    13140    4                     CALL SEND_MARKER ALTRET(GETOUT);
     1274    13141    4                   END;
     1275    13142                     %UNLOCK (G=NK$LDCT.LOCK);
     1276    13145    3                RETURN;
     1277    13146    3              END;
     1278    13147                %UNLOCK (G=NK$LDCT.LOCK);
     1279    13150                       /* Report COMIO event to user if an event is specified     */
     1280    13151                       /* in the DCB.                                             */
     1281    13152    2           IF VDO.STR~=KIDM_MON AND VDO.STR~=KIDM_DB
     1282    13153    3           THEN DO;
     1283    13154    3                CALL KIA$GETEVNT(LDCT,EVNT,DOMN);
     1284    13155    4                IF EVNT~=0 THEN DO;
     1285    13156    4                     CALL SSR$RUE (%SS_FPEVNT,LDCT.USER);
     1286    13157    4                     COMIOEV='0'B;
     1287    13158    4                     IF DOMN=%DBWSR THEN COMIOEV.FLAGS.DELTA='1'B; /* DELTA only  */
     1288    13159    4                     COMIOEV.P#=SIZEW(COMIOEV)-SIZEW(COMIOEV.P#);
     1289    13160    4                     COMIOEV.SUBC2=%SUBC2_DATA_RQS#;
     1290    13161    4                     COMIOEV.ARS=256*VDO1.RCRBYTSIZ/512+MOD(VDO1.RCRBYTSIZ,512);
     1291    13162    4                     CALL SSV$EVENT(LDCT.USER,DOMN,%SUBC_COMIO#,EVNT,0,ADDR(COMIOEV));
     1292    13163    4                   END;
     1293    13164    3              END;                         /* CASE */
     1294    13165    2           IF NK$LDCT.TH.MAXNMBRCR > 0 OR NK$LDCT.TH.MAXNMBBYT > 0
     1295    13166    2           THEN
     1296    13167    2                CALL SSR$RUE (%SS_CUB,LDCT.USER);
PL6.E3A0      #002=KIA$UCIN File=KIA$APPLC.:E05TSI                               WED 07/30/97 00:32 Page:195
     1297    13168
     1298    13169        %EJECT;
PL6.E3A0      #002=KIA$UCIN File=KIA$APPLC.:E05TSI                               WED 07/30/97 00:32 Page:196
     1299    13170    2        CASE(%KV_VDO_FNC_MRK);
     1300    13171                %LOCK (G=NK$LDCT.LOCK);
     1301    13174    2           IF (B$USRT$->B$USER.FLG(LDCT.USER)&%U_SCIO)
     1302    13175    2                AND B$USRT$->B$USER.MISC$(LDCT.USER) = ADDR(LDCT)
     1303    13176    2           THEN
     1304    13177    2                CALL SSR$RUE (%SS_CIC,LDCT.USER);
     1305    13178    2           IF LDCT.LKFLG.WTMRK             /* Waiting marker */
     1306    13179    3           THEN DO;
     1307    13180    3                LDCT.LKFLG.WTMRK = '0'B;
     1308    13181                     %UNLOCK (G=NK$LDCT.LOCK);
     1309    13184    3                RETURN;
     1310    13185    3              END;
     1311    13186    2   L4:     ;
     1312    13187    2           IF LDCT.IP$ ~= ADDR(NIL)
     1313    13188    3           THEN DO;
     1314    13189                     %UNLOCK (G=NK$LDCT.LOCK);
     1315    13192    3                GOTO CRASH_IT;
     1316    13193    3              END;
     1317    13194    2           LDCT.IP$ = K$RWPARM.IP$;
     1318    13195    2           LDCT.IPFEI# = K$RWPARM.IP$->KI$QMHDR.FEI#;
     1319    13196                %UNLOCK (G=NK$LDCT.LOCK);
     1320    13199    2           ADDR(K$RWPARM.IP$->KI$QMHDR.OFFSET)->UBNBSD = POFFC(K$RWPARM.UHDR$,K$RWPARM.
             13199                    IP$)
     1321    13200    2                * 262144 + K$RWPARM.UHDRSZ;
     1322    13201    2           K$RWPARM.ERR = %K$WAIT_READ;
     1323    13202    2           ALTRETURN;
     1324    13203
     1325    13204
     1326    13205        %EJECT;
PL6.E3A0      #002=KIA$UCIN File=KIA$APPLC.:E05TSI                               WED 07/30/97 00:32 Page:197
     1327    13206    2        CASE(%KV_VDO_FNC_BLKDAT);
     1328    13207                       /* Report COMIO event to user if an event is specified     */
     1329    13208                       /* in the DCB                                              */
     1330    13209    2           IF VDO.STR=KIDM_MON THEN RETURN;
     1331    13210    2           CALL KIA$GETEVNT(LDCT,EVNT,DOMN);
     1332    13211        /*
     1333    13212             if sched for i/o but remote write was issued before rqsdat,
     1334    13213             just return and wait for data.
     1335    13214        */
     1336    13215    2           P$ = ADDR(B$USRT$->B$USER(LDCT.USER));
     1337    13216    2           IF P$->B$U.FLG & %U_SCIO AND
     1338    13217    2                P$->B$U.MISC$ = ADDR(NK$LDCT) AND
     1339    13218    2                KV$VDO_BLKDAT.RSN = %KV_BLKRSN_MAXNMBRCR AND
     1340    13219    2                (P$->B$U.US = %SS_STI OR
     1341    13220    2                P$->B$U.US = %SS_SCW)
     1342    13221    2           THEN
     1343    13222    2                RETURN;
     1344    13223    3           IF EVNT~=0 THEN DO;
     1345    13224    3                CALL SSR$RUE (%SS_FPEVNT,LDCT.USER);
     1346    13225    3                COMIOEV='0'B;
     1347    13226    3                IF DOMN=%DBWSR THEN COMIOEV.FLAGS.DELTA='1'B; /* DELTA only */
     1348    13227    3                COMIOEV.P#=SIZEW(COMIOEV)-SIZEW(COMIOEV.P#);
     1349    13228    3                COMIOEV.SUBC2=%SUBC2_DATA_AVL#;
     1350    13229    3                COMIOEV.ARS=256*VDO1.RCRBYTSIZ/512+MOD(VDO1.RCRBYTSIZ,512);
     1351    13230    3                CALL SSV$EVENT(LDCT.USER,DOMN,%SUBC_COMIO#,EVNT,0,ADDR(COMIOEV));
     1352    13231    3              END;
     1353    13232
     1354    13233        %EJECT;
PL6.E3A0      #002=KIA$UCIN File=KIA$APPLC.:E05TSI                               WED 07/30/97 00:32 Page:198
     1355    13234    2        CASE(ELSE);
     1356    13235    2   CRASH_IT: ;                   /* Lop off this diseased branch of the network */
     1357    13236    2           KL_FEPST.FEP = K$RWPARM.FEX;
     1358    13237    2           KL_FEPST.FCN = IGA_CRASHFEP_BF;
     1359    13238    2           CALL KUB$WRITE(KL_FEPST, LENGTHC(KL_FEPST), 'HLPADMIN');
     1360    13239    2           K$RWPARM.ERR = %K$WAIT_READ;
     1361    13240    2           ALTRETURN;       /* Freeze the Q so that there's something to see */
     1362    13241    2        END;
     1363    13242    1   OUT: ;
     1364    13243    1        RETURN;
     1365    13244
     1366    13245    1   GETOUT: ;
     1367    13246    1        K$RWPARM.ERR = %K$DEFER_IO;
     1368    13247    1        ALTRETURN;
     1369    13248        %EJECT;
PL6.E3A0      #002=KIA$UCIN File=KIA$APPLC.:E05TSI                               WED 07/30/97 00:32 Page:199
     1370    13249        /*I* NAME: SEND_MARKER
     1371    13250             DESCRIPTION: Returns a marker, using the auto variable as data.
     1372    13251        */
     1373    13252    1   SEND_MARKER: PROC ALTRET;
     1374    13253    2        OPARM = K_RWPARM_CON;
     1375    13254    2        OPARM.MARKER = MARKER;
     1376    13255    2        OPARM.MRKTYP = %KV_VDOMRKTYP_MRK;
     1377    13256    2        CALL KIA$FCNO (LDCT,%KV_VDO_FNC_MRK,OPARM)
     1378    13257    3        WHENALTRETURN DO;
     1379    13258                  %UNLOCK (G=LDCT.LOCK);
     1380    13261    3             ALTRETURN;
     1381    13262    3           END;
     1382    13263    2        RETURN;
     1383    13264    2   END SEND_MARKER;
     1384    13265
     1385    13266    1   END KIA$UCIN;
     1386    13267
     1387    13268
     1388    13269        %EOD;

PL6.E3A0      #002=KIA$UCIN File=KIA$APPLC.:E05TSI                               WED 07/30/97 00:32 Page:200
--  Include file information  --

   KL_AFCN_C.:E05TOU  is referenced.
   KL_MACRO_C.:E05TOU  is referenced.
   B$USER.:E05TOU  cannot be made into a system file and is referenced.
   K$RWPARM.:E05TOU  is referenced.
   K_DATA_R.:E05TOU  cannot be made into a system file and is referenced.
   SS_SCHED_C.:E05TOU  is referenced.
   K_SUBS_C.:E05TOU  is referenced.
   KI_SUBS_C.:E05TOU  is referenced.
   NK_SUBS.:E05TOU  is referenced.
   NK$LDCT.:E05TOU  is referenced.
   HF_LOCK_C.:E05TOU  cannot be made into a system file and is referenced.
   KI_DATA_R.:E05TOU  cannot be made into a system file and is referenced.
   KV$VDO.:E05TOU  is referenced.
   KI$MHDR.:E05TOU  is referenced.
   CP_6_C.:E05TOU  is referenced.
   CP_6.:E05TOU  cannot be made into a system file and is referenced.
   B_STRINGS_C.:E05TOU  is referenced.
      No diagnostics issued in procedure KIA$UCIN.

   Procedure KIA$UCIN requires 592 words for executable code.
   Procedure KIA$UCIN requires 70 words of local(AUTO) storage.

PL6.E3A0      #002=KIA$UCIN File=KIA$APPLC.:E05TSI                               WED 07/30/97 00:32 Page:201

 Object Unit name= KIA$UCIN                                   File name= KIA$APPLC.:E05TOU
 UTS= JUL 30 '97 00:32:35.84 WED                              Compiler= PL-6/E31         Sev=      00
 SharedLib= :SHARED_SYSTEM                                    Alt SharedLib=


    ****  Control sections  ****

 Sect   Type Bound  Init  Size OctSiz  Section name(segment info)
    0   DCB   even  none     0      0  M$UC
    1  RoData even  UTS      3      3  KIA$UCIN
    2   Proc  even  none   592   1120  KIA$UCIN
    3  RoData even  none    17     21  KIA$UCIN

    ****  Entry defs  ****

                              Check   Calling
                             calling  sequence
  Sect OctLoc Primary Altret sequence   type   Parms  Name
     2      0   yes    yes     yes      Std        2  KIA$UCIN
PL6.E3A0      #002=KIA$UCIN File=KIA$APPLC.:E05TSI                               WED 07/30/97 00:32 Page:202

  ****  Entry refs  ****

         Check        Calling
        calling       sequence
Altret sequence SRef   type   Args  Name
         yes           Std       1 HFC$LOCK
         yes           Std       1 HFC$UNLOCK
         yes           Std       2 SSC$TSTATE
         yes           Std       2 KIA$COMP
         yes           Std       3 KIA$GETEVNT
         yes           Std       7 SSV$EVENT
         yes           Std       4 SSR$RUE
 yes     yes           Std       2 KIA$DSCTS
 yes     yes           Std       3 KIA$FCNO
 yes     yes           Std       3 KUB$WRITE
                       nStd      0 X66_AUTO_2
                       Std       0 B_CONSPOOL_D
                       nStd      0 X66_ARET
                       nStd      0 X66_AALT

  ****  Data refs  ****

  Flags:  r = read only, s = secondary
Flgs Name                             Flgs Name                             Flgs Name
     M$UC                                  KI_FEI$$                         r    K_RWPARM_CON
     B$USRT$                               B_VECTNIL

  ****  Segment refs  ****

  Flags:  r = read only, s = secondary
Flgs Name                             Flgs Name                             Flgs Name
     ISSID
PL6.E3A0      #002=KIA$UCIN File=KIA$APPLC.:E05TSI                               WED 07/30/97 00:32 Page:203


     1094        1        /*T***********************************************************/
     1095        2        /*T*                                                         */
     1096        3        /*T* Copyright (c) Bull HN Information Systems Inc., 1997    */
     1097        4        /*T*                                                         */
     1098        5        /*T***********************************************************/
     1099        6
     1100        7
     1101        8        KIA$UCIN: PROC (NK$LDCT,K$RWPARM) ALTRET;

      8  2 000000   000000 700200 xent  KIA$UCIN     TSX0  ! X66_AUTO_2
         2 000001   000106 000002                    ZERO    70,2

     1102        9
     1103       10        /*F*
     1104       11             NAME: KIA$UCIN
     1105       12             PURPOSE:
     1106       13                  This routine is the receiver for all messages destined for
     1107       14                  a time sharing terminal.
     1108       15             DESCRIPTION:
     1109       16                  When ever a message comes in to the host for a time sharing
     1110       17                  terminal KIA$UCIN is called from KIA$ISCAN to determine what
     1111       18                  functions needs to be performed. KIA$UCIN will return normally
     1112       19                  if it processed the message, altreturn with the error K$WAIT_READ
     1113       20                  to specify leave the message in the queue and a read will be
     1114       21                  done for it later, or altreturn with K$DEFER_IO which says
     1115       22                  it can not process the message right now, but call back later.
     1116       23        */
     1117       24
     1118       25        %INCLUDE B_STRINGS_C;
     1119      154        %INCLUDE CP_6;
     1120     5713        %INCLUDE KI$MHDR;
     1121     5854        %INCLUDE KV$VDO;
     1122     6869        %INCLUDE KI_DATA_R;
     1123     6895        %INCLUDE HF_LOCK_C;
     1124     6909        %INCLUDE NK$LDCT;
     1125     7011        %INCLUDE NK_SUBS;
PL6.E3A0      #002=KIA$UCIN File=KIA$APPLC.:E05TSI                               WED 07/30/97 00:32 Page:204
     1126     7036        %INCLUDE KI_SUBS_C;
     1127     7172        %INCLUDE K_SUBS_C;
     1128     7205        %INCLUDE SS_SCHED_C;
     1129     7438        %INCLUDE K_DATA_R;
     1130     8149        %INCLUDE B$USER;
     1131     8365        %INCLUDE KL_MACRO_C;
     1132    11717        %INCLUDE KL_AFCN_C;
     1133    11818
     1134    11819        %NK$LDCT (STCLASS="");
     1135    11865        %K$RWPARM (NAME=K$RWPARM);
     1136    12181        %KI$QMHDR;
     1137    12230        %KL_FEPST(STCLASS="");
     1138    12265        %KV_VDO_ALL_E;
     1139    12344        %KV$VDO (STCLASS="BASED(K$RWPARM.UHDR$)");
     1140    12371        %KV$VDO_PRM;
     1141    12412        %KV$VDO_EVT (STCLASS="BASED(K$RWPARM.UHDR$)");
     1142    12454        %KV$VDO_DLT (STCLASS="BASED(K$RWPARM.UHDR$)");
     1143    12499        %KV$VDO_BLKDAT (STCLASS="BASED(K$RWPARM.UHDR$)");
     1144    12542        %KV$VDO_RQSDAT (STCLASS="BASED(K$RWPARM.UHDR$)");
     1145    12590
     1146    12591        %B$COMIO (NAME=COMIOEV,STCLASS=AUTO,PARONLY=1);
     1147    12600        %K$RWPARM (NAME=OPARM,STCLASS=AUTO);
     1148    12916        %KV$VDO_EVT (STCLASS=AUTO,NAME=VDO);
     1149    12958    1   DCL 1 VDO1 REDEF VDO,
     1150    12959    1            2 * BIT(18) UNAL ,
     1151    12960    1            2 RCRBYTSIZ UBIN(18) UNAL ;
     1152    12961    1   DCL UBNBSD UBIN WORD ALIGNED BASED;
     1153    12962    1   DCL OCQ$ PTR;
     1154    12963    1   DCL P$ PTR;
     1155    12964    1   DCL BCNT UBIN WORD;
     1156    12965    1   DCL DOMN REDEF BCNT UBIN WORD;
     1157    12966    1   DCL EVNT UBIN WORD;
     1158    12967    1   DCL TSTATE REDEF EVNT CHAR(4);
     1159    12968    1   DCL FEI UBIN WORD;
     1160    12969    1   DCL USER UBIN BYTE UNAL;
     1161    12970    1   DCL MARKER BIT(36);
     1162    12971    1   DCL SSC$TSTATE ENTRY(2);
PL6.E3A0      #002=KIA$UCIN File=KIA$APPLC.:E05TSI                               WED 07/30/97 00:32 Page:205
     1163    12972    1   DCL SSV$EVENT ENTRY(7);
     1164    12973    1   DCL KIA$FCNO ENTRY (3) ALTRET;
     1165    12974    1   DCL SSR$RUE ENTRY(4);
     1166    12975    1   DCL KIA$COMP ENTRY(2);
     1167    12976    1   DCL KIQ$FEABT ENTRY(2);
     1168    12977    1   DCL KIA$DSCTS ENTRY(2) ALTRET;
     1169    12978    1   DCL KIA$GETEVNT ENTRY(3);
     1170    12979    1   DCL KUB$WRITE ENTRY(3) ALTRET;
     1171    12980
     1172    12981        %SUB_EXC;
     1173    13028    1   DCL KIA$MSG ENTRY(1) ALTRET;
     1174    13029
     1175    13030    1   DCL B$USRT$ PTR SYMREF;
     1176    13031
     1177    13032
     1178    13033    1        FEI=LDCT.IPFEI#;

  13033  2 000002   200003 470500                    LDP0    @NK$LDCT,,AUTO
         2 000003   000014 236100                    LDQ     12,,PR0
         2 000004   000011 772000                    QRL     9
         2 000005   000777 376007                    ANQ     511,DL
         2 000006   200071 756100                    STQ     FEI,,AUTO

     1179    13034    1        VDO = KV$VDO_EVT ;

  13034  2 000007   200004 471500                    LDP1    @K$RWPARM,,AUTO
         2 000010   100014 473500                    LDP3    12,,PR1
         2 000011   000100 100500                    MLR     fill='000'O
         2 000012   300000 000004                    ADSC9   0,,PR3                   cn=0,n=4
         2 000013   200064 000004                    ADSC9   VDO,,AUTO                cn=0,n=4

     1180    13035
     1181    13036    2        DO CASE (VDO.FNC);

  13036  2 000014   200064 236100                    LDQ     VDO,,AUTO
         2 000015   000033 772000                    QRL     27
         2 000016   000040 116007                    CMPQ    32,DL
PL6.E3A0      #002=KIA$UCIN File=KIA$APPLC.:E05TSI                               WED 07/30/97 00:32 Page:206
         2 000017   000021 602006 2                  TNC     s:13036+5,QL
         2 000020   001032 710000 2                  TRA     CRASH_IT
         2 000021   001032 710000 2                  TRA     CRASH_IT
         2 000022   001032 710000 2                  TRA     CRASH_IT
         2 000023   000672 710000 2                  TRA     s:13209
         2 000024   001032 710000 2                  TRA     CRASH_IT
         2 000025   001032 710000 2                  TRA     CRASH_IT
         2 000026   000176 710000 2                  TRA     s:13081
         2 000027   001032 710000 2                  TRA     CRASH_IT
         2 000030   001032 710000 2                  TRA     CRASH_IT
         2 000031   001032 710000 2                  TRA     CRASH_IT
         2 000032   001032 710000 2                  TRA     CRASH_IT
         2 000033   000276 710000 2                  TRA     s:13108
         2 000034   001032 710000 2                  TRA     CRASH_IT
         2 000035   001032 710000 2                  TRA     CRASH_IT
         2 000036   000061 710000 2                  TRA     s:13039
         2 000037   001032 710000 2                  TRA     CRASH_IT
         2 000040   001032 710000 2                  TRA     CRASH_IT
         2 000041   001056 710000 2                  TRA     OUT
         2 000042   001032 710000 2                  TRA     CRASH_IT
         2 000043   000176 710000 2                  TRA     s:13081
         2 000044   001032 710000 2                  TRA     CRASH_IT
         2 000045   001032 710000 2                  TRA     CRASH_IT
         2 000046   001032 710000 2                  TRA     CRASH_IT
         2 000047   000335 710000 2                  TRA     s:13125
         2 000050   001032 710000 2                  TRA     CRASH_IT
         2 000051   000303 710000 2                  TRA     s:13116
         2 000052   001032 710000 2                  TRA     CRASH_IT
         2 000053   001032 710000 2                  TRA     CRASH_IT
         2 000054   001032 710000 2                  TRA     CRASH_IT
         2 000055   001032 710000 2                  TRA     CRASH_IT
         2 000056   001032 710000 2                  TRA     CRASH_IT
         2 000057   001032 710000 2                  TRA     CRASH_IT
         2 000060   000546 710000 2                  TRA     s:13172

     1182    13037        %EJECT;
PL6.E3A0      #002=KIA$UCIN File=KIA$APPLC.:E05TSI                               WED 07/30/97 00:32 Page:207
     1183    13038    2        CASE(%KV_VDO_FNC_EVT);

     1184    13039    2           IF VDO.TYP = %KV_EVTTYP_MNTATN THEN

  13039  2 000061   200064 236100                    LDQ     VDO,,AUTO
         2 000062   000777 376007                    ANQ     511,DL
         2 000063   000002 116007                    CMPQ    2,DL
         2 000064   000073 600000 2                  TZE     L1

     1185    13040    2                GOTO L1 ;
     1186    13041    3           ELSE DO;

     1187    13042    3                BCNT = VDO.BRKCNT;

  13042  2 000065   200064 236100                    LDQ     VDO,,AUTO
         2 000066   000011 772000                    QRL     9
         2 000067   000777 376007                    ANQ     511,DL
         2 000070   200067 756100                    STQ     BCNT,,AUTO

     1188    13043    3                IF BCNT > 3

  13043  2 000071   000004 116007                    CMPQ    4,DL
         2 000072   000076 602000 2                  TNC     s:13048

     1189    13044    3                THEN
     1190    13045    3   L1:
     1191    13046    3                     EVNT=%SS_CEC;

  13046  2 000073   000014 235007       L1           LDA     12,DL
         2 000074   200070 755100                    STA     EVNT,,AUTO
         2 000075   000100 710000 2                  TRA     s:13053

     1192    13047    3                ELSE
     1193    13048    3                     EVNT = %SS_CBK;

  13048  2 000076   000012 235007                    LDA     10,DL
         2 000077   200070 755100                    STA     EVNT,,AUTO
PL6.E3A0      #002=KIA$UCIN File=KIA$APPLC.:E05TSI                               WED 07/30/97 00:32 Page:208

     1194    13049    3              END;

     1195    13050
     1196    13051        /* Reset both RDPND and RRRPND */
     1197    13052                %LOCK (G=NK$LDCT.LOCK);

  13053  2 000100   200003 236100                    LDQ     @NK$LDCT,,AUTO
         2 000101   000020 036003                    ADLQ    16,DU
         2 000102   200076 756100                    STQ     MARKER+3,,AUTO
         2 000103   200076 630500                    EPPR0   MARKER+3,,AUTO
         2 000104   000017 631400 xsym               EPPR1   B_VECTNIL+15
         2 000105   000000 701000 xent               TSX1    HFC$LOCK
         2 000106   000000 011000                    NOP     0

     1198    13055
     1199    13056    2           IF K$RWPARM.MRKTYP ~= 0

  13056  2 000107   200004 470500                    LDP0    @K$RWPARM,,AUTO
         2 000110   000040 236100                    LDQ     32,,PR0
         2 000111   777000 316007                    CANQ    -512,DL
         2 000112   000153 600000 2                  TZE     s:13073

     1200    13057    3           THEN DO;

     1201    13058        /* If there is already a marker pending send a mark response */
     1202    13059    3                IF LDCT.LKFLG.MRKPND

  13059  2 000113   200003 471500                    LDP1    @NK$LDCT,,AUTO
         2 000114   100011 234100                    SZN     9,,PR1
         2 000115   000124 605000 2                  TPL     s:13066

     1203    13060    4                THEN DO;

     1204    13061    4                     MARKER = LDCT.MARKER;

  13061  2 000116   100001 236100                    LDQ     1,,PR1
PL6.E3A0      #002=KIA$UCIN File=KIA$APPLC.:E05TSI                               WED 07/30/97 00:32 Page:209
         2 000117   200073 756100                    STQ     MARKER,,AUTO

     1205    13062    4                     LDCT.LKFLG.MRKPND = '0'B;

  13062  2 000120   000031 236000 xsym               LDQ     B_VECTNIL+25
         2 000121   100011 356100                    ANSQ    9,,PR1

     1206    13063    4                     CALL SEND_MARKER ALTRET (GETOUT);

  13063  2 000122   001063 701000 2                  TSX1    SEND_MARKER
         2 000123   001057 702000 2                  TSX2    GETOUT

     1207    13064    4                   END;

     1208    13065
     1209    13066    3                MARKER = K$RWPARM.MARKER;

  13066  2 000124   200004 470500                    LDP0    @K$RWPARM,,AUTO
         2 000125   000007 236100                    LDQ     7,,PR0
         2 000126   200073 756100                    STQ     MARKER,,AUTO

     1210    13067    3                LDCT.MARKER = MARKER;

  13067  2 000127   200003 471500                    LDP1    @NK$LDCT,,AUTO
         2 000130   100001 756100                    STQ     1,,PR1

     1211    13068    3                IF B$USRT$->B$USER.FLG(LDCT.USER)&%U_SCIO

  13068  2 000131   100007 236100                    LDQ     7,,PR1
         2 000132   000016 772000                    QRL     14
         2 000133   017760 376007                    ANQ     8176,DL
         2 000134   000000 473400 xsym               LDP3    B$USRT$
         2 000135   300000 236106                    LDQ     0,QL,PR3
         2 000136   000000 376000 1                  ANQ     0
         2 000137   000151 600000 2                  TZE     s:13071
         2 000140   100007 236100                    LDQ     7,,PR1
         2 000141   000016 772000                    QRL     14
PL6.E3A0      #002=KIA$UCIN File=KIA$APPLC.:E05TSI                               WED 07/30/97 00:32 Page:210
         2 000142   017760 376007                    ANQ     8176,DL
         2 000143   300017 236106                    LDQ     15,QL,PR3
         2 000144   200003 116100                    CMPQ    @NK$LDCT,,AUTO
         2 000145   000151 601000 2                  TNZ     s:13071

     1212    13069    3                     AND B$USRT$->B$USER.MISC$(LDCT.USER) = ADDR(LDCT)
     1213    13070    3                THEN LDCT.LKFLG.MRKPND = '1'B;

  13070  2 000146   400000 236003                    LDQ     -131072,DU
         2 000147   100011 256100                    ORSQ    9,,PR1
         2 000150   000153 710000 2                  TRA     s:13073

     1214    13071    3                ELSE CALL SEND_MARKER ALTRET(GETOUT);

  13071  2 000151   001063 701000 2                  TSX1    SEND_MARKER
         2 000152   001057 702000 2                  TSX2    GETOUT

     1215    13072    3              END;

     1216    13073    2           CALL SSR$RUE (EVNT,LDCT.USER,BCNT);

  13073  2 000153   200067 630500                    EPPR0   BCNT,,AUTO
         2 000154   200100 450500                    STP0    MARKER+5,,AUTO
         2 000155   200003 236100                    LDQ     @NK$LDCT,,AUTO
         2 000156   000000 036000 3                  ADLQ    0
         2 000157   200077 756100                    STQ     MARKER+4,,AUTO
         2 000160   200070 631500                    EPPR1   EVNT,,AUTO
         2 000161   200076 451500                    STP1    MARKER+3,,AUTO
         2 000162   200076 630500                    EPPR0   MARKER+3,,AUTO
         2 000163   000021 631400 xsym               EPPR1   B_VECTNIL+17
         2 000164   000000 701000 xent               TSX1    SSR$RUE
         2 000165   000000 011000                    NOP     0

     1217    13074                %UNLOCK (G=NK$LDCT.LOCK);

  13075  2 000166   200003 236100                    LDQ     @NK$LDCT,,AUTO
         2 000167   000020 036003                    ADLQ    16,DU
PL6.E3A0      #002=KIA$UCIN File=KIA$APPLC.:E05TSI                               WED 07/30/97 00:32 Page:211
         2 000170   200076 756100                    STQ     MARKER+3,,AUTO
         2 000171   200076 630500                    EPPR0   MARKER+3,,AUTO
         2 000172   000017 631400 xsym               EPPR1   B_VECTNIL+15
         2 000173   000000 701000 xent               TSX1    HFC$UNLOCK
         2 000174   000000 011000                    NOP     0
         2 000175   001056 710000 2                  TRA     OUT

     1218    13077
     1219    13078        %EJECT;
PL6.E3A0      #002=KIA$UCIN File=KIA$APPLC.:E05TSI                               WED 07/30/97 00:32 Page:212
     1220    13079    2        CASE (%KV_VDO_FNC_DAT,%KV_VDO_FNC_PRM_RSP);

     1221    13080                %LOCK (G=NK$LDCT.LOCK);

  13081  2 000176   200003 236100                    LDQ     @NK$LDCT,,AUTO
         2 000177   000020 036003                    ADLQ    16,DU
         2 000200   200076 756100                    STQ     MARKER+3,,AUTO
         2 000201   200076 630500                    EPPR0   MARKER+3,,AUTO
         2 000202   000017 631400 xsym               EPPR1   B_VECTNIL+15
         2 000203   000000 701000 xent               TSX1    HFC$LOCK
         2 000204   000000 011000                    NOP     0

     1222    13083    2           IF K$RWPARM.MRKTYP ~= 0

  13083  2 000205   200004 470500                    LDP0    @K$RWPARM,,AUTO
         2 000206   000040 236100                    LDQ     32,,PR0
         2 000207   777000 316007                    CANQ    -512,DL
         2 000210   000215 600000 2                  TZE     s:13089

     1223    13084    3           THEN DO;

     1224    13085    3                MARKER = K$RWPARM.MARKER;

  13085  2 000211   000007 236100                    LDQ     7,,PR0
         2 000212   200073 756100                    STQ     MARKER,,AUTO

     1225    13086    3                CALL SEND_MARKER ALTRET(GETOUT);

  13086  2 000213   001063 701000 2                  TSX1    SEND_MARKER
         2 000214   001057 702000 2                  TSX2    GETOUT

     1226    13087    3              END;

     1227    13088
     1228    13089    2           IF VDO.FNC = %KV_VDO_FNC_DAT AND NK$LDCT.LKFLG.NOWAIT

  13089  2 000215   200064 236100                    LDQ     VDO,,AUTO
PL6.E3A0      #002=KIA$UCIN File=KIA$APPLC.:E05TSI                               WED 07/30/97 00:32 Page:213
         2 000216   777000 376003                    ANQ     -512,DU
         2 000217   005000 116003                    CMPQ    2560,DU
         2 000220   000241 601000 2                  TNZ     s:13097
         2 000221   200003 470500                    LDP0    @NK$LDCT,,AUTO
         2 000222   000011 236100                    LDQ     9,,PR0
         2 000223   000001 316003                    CANQ    1,DU
         2 000224   000241 600000 2                  TZE     s:13097

     1229    13090    3           THEN DO;

     1230    13091    3                CALL KIA$COMP(NK$LDCT,K$RWPARM);

  13091  2 000225   200003 630500                    EPPR0   @NK$LDCT,,AUTO
         2 000226   000020 631400 xsym               EPPR1   B_VECTNIL+16
         2 000227   000000 701000 xent               TSX1    KIA$COMP
         2 000230   000000 011000                    NOP     0

     1231    13092                     %UNLOCK (G=NK$LDCT.LOCK);

  13093  2 000231   200003 236100                    LDQ     @NK$LDCT,,AUTO
         2 000232   000020 036003                    ADLQ    16,DU
         2 000233   200076 756100                    STQ     MARKER+3,,AUTO
         2 000234   200076 630500                    EPPR0   MARKER+3,,AUTO
         2 000235   000017 631400 xsym               EPPR1   B_VECTNIL+15
         2 000236   000000 701000 xent               TSX1    HFC$UNLOCK
         2 000237   000000 011000                    NOP     0

     1232    13095    3                RETURN;

  13095  2 000240   000000 702200 xent               TSX2  ! X66_ARET

     1233    13096    3              END;
     1234    13097    2           P$ = ADDR(B$USRT$->B$USER(LDCT.USER));

  13097  2 000241   200003 470500                    LDP0    @NK$LDCT,,AUTO
         2 000242   000007 236100                    LDQ     7,,PR0
         2 000243   000016 772000                    QRL     14
PL6.E3A0      #002=KIA$UCIN File=KIA$APPLC.:E05TSI                               WED 07/30/97 00:32 Page:214
         2 000244   017760 376007                    ANQ     8176,DL
         2 000245   000022 736000                    QLS     18
         2 000246   000000 036000 xsym               ADLQ    B$USRT$
         2 000247   200066 756100                    STQ     P$,,AUTO

     1235    13098    2           IF P$->B$U.FLG & %U_SCIO AND

  13098  2 000250   200066 471500                    LDP1    P$,,AUTO
         2 000251   100000 236100                    LDQ     0,,PR1
         2 000252   000000 376000 1                  ANQ     0
         2 000253   000275 600000 2                  TZE     s:13104
         2 000254   100017 236100                    LDQ     15,,PR1
         2 000255   200003 116100                    CMPQ    @NK$LDCT,,AUTO
         2 000256   000275 601000 2                  TNZ     s:13104
         2 000257   100011 236100                    LDQ     9,,PR1
         2 000260   770000 376003                    ANQ     -4096,DU
         2 000261   250000 116003                    CMPQ    86016,DU
         2 000262   000265 600000 2                  TZE     s:13103
         2 000263   270000 116003                    CMPQ    94208,DU
         2 000264   000275 601000 2                  TNZ     s:13104

     1236    13099    2                P$->B$U.MISC$ = ADDR(NK$LDCT) AND
     1237    13100    2                (P$->B$U.US = %SS_STI OR
     1238    13101    2                P$->B$U.US = %SS_SCW)
     1239    13102    2           THEN
     1240    13103    2                CALL SSR$RUE (%SS_CIC,LDCT.USER);

  13103  2 000265   200003 236100                    LDQ     @NK$LDCT,,AUTO
         2 000266   000000 036000 3                  ADLQ    0
         2 000267   000001 235000 3                  LDA     1
         2 000270   200076 757100                    STAQ    MARKER+3,,AUTO
         2 000271   200076 630500                    EPPR0   MARKER+3,,AUTO
         2 000272   000020 631400 xsym               EPPR1   B_VECTNIL+16
         2 000273   000000 701000 xent               TSX1    SSR$RUE
         2 000274   000000 011000                    NOP     0

     1241    13104    2           GOTO L4 ;
PL6.E3A0      #002=KIA$UCIN File=KIA$APPLC.:E05TSI                               WED 07/30/97 00:32 Page:215

  13104  2 000275   000621 710000 2                  TRA     L4

     1242    13105
     1243    13106        %EJECT;
PL6.E3A0      #002=KIA$UCIN File=KIA$APPLC.:E05TSI                               WED 07/30/97 00:32 Page:216
     1244    13107    2        CASE(%KV_VDO_FNC_DSC_RQS);

     1245    13108    2           CALL KIA$DSCTS (LDCT,K$RWPARM) ALTRET(GETOUT);

  13108  2 000276   200003 630500                    EPPR0   @NK$LDCT,,AUTO
         2 000277   000020 631400 xsym               EPPR1   B_VECTNIL+16
         2 000300   000000 701000 xent               TSX1    KIA$DSCTS
         2 000301   001057 702000 2                  TSX2    GETOUT
         2 000302   001056 710000 2                  TRA     OUT

     1246    13109
     1247    13110
     1248    13111    2        CASE(%KV_VDO_FNC_OPNSSN_RQS);

     1249    13112
     1250    13113
     1251    13114
     1252    13115    2        CASE(%KV_VDO_FNC_RQSSTT);

     1253    13116    2           CALL SSC$TSTATE (LDCT.USER,TSTATE);

  13116  2 000303   200070 634500                    EPPR4   EVNT,,AUTO
         2 000304   200077 454500                    STP4    MARKER+4,,AUTO
         2 000305   200003 236100                    LDQ     @NK$LDCT,,AUTO
         2 000306   000000 036000 3                  ADLQ    0
         2 000307   200076 756100                    STQ     MARKER+3,,AUTO
         2 000310   200076 630500                    EPPR0   MARKER+3,,AUTO
         2 000311   000020 631400 xsym               EPPR1   B_VECTNIL+16
         2 000312   000000 701000 xent               TSX1    SSC$TSTATE
         2 000313   000000 011000                    NOP     0

     1254    13117    2           OPARM = K_RWPARM_CON;

  13117  2 000314   000100 100400                    MLR     fill='000'O
         2 000315   000000 000234 xsym               ADSC9   K_RWPARM_CON             cn=0,n=156
         2 000316   200014 000234                    ADSC9   OPARM,,AUTO              cn=0,n=156

PL6.E3A0      #002=KIA$UCIN File=KIA$APPLC.:E05TSI                               WED 07/30/97 00:32 Page:217
     1255    13118    2           OPARM.MSG$ = ADDR(TSTATE);

  13118  2 000317   200070 630500                    EPPR0   EVNT,,AUTO
         2 000320   200014 450500                    STP0    OPARM,,AUTO

     1256    13119    2           OPARM.MSGSZ = LENGTHC(TSTATE);

  13119  2 000321   000004 235007                    LDA     4,DL
         2 000322   200015 755100                    STA     OPARM+1,,AUTO

     1257    13120    2           CALL KIA$FCNO(LDCT,%KV_VDO_FNC_STT,OPARM) ALTRET(GETOUT);

  13120  2 000323   200014 631500                    EPPR1   OPARM,,AUTO
         2 000324   200100 451500                    STP1    MARKER+5,,AUTO
         2 000325   000003 236000 3                  LDQ     3
         2 000326   200003 235100                    LDA     @NK$LDCT,,AUTO
         2 000327   200076 757100                    STAQ    MARKER+3,,AUTO
         2 000330   200076 630500                    EPPR0   MARKER+3,,AUTO
         2 000331   000021 631400 xsym               EPPR1   B_VECTNIL+17
         2 000332   000000 701000 xent               TSX1    KIA$FCNO
         2 000333   001057 702000 2                  TSX2    GETOUT
         2 000334   001056 710000 2                  TRA     OUT

     1258    13121
     1259    13122        %EJECT;
PL6.E3A0      #002=KIA$UCIN File=KIA$APPLC.:E05TSI                               WED 07/30/97 00:32 Page:218
     1260    13123    2        CASE(%KV_VDO_FNC_RQSDAT);

     1261    13124                %LOCK (G=NK$LDCT.LOCK);

  13125  2 000335   200003 236100                    LDQ     @NK$LDCT,,AUTO
         2 000336   000020 036003                    ADLQ    16,DU
         2 000337   200076 756100                    STQ     MARKER+3,,AUTO
         2 000340   200076 630500                    EPPR0   MARKER+3,,AUTO
         2 000341   000017 631400 xsym               EPPR1   B_VECTNIL+15
         2 000342   000000 701000 xent               TSX1    HFC$LOCK
         2 000343   000000 011000                    NOP     0

     1262    13127    2           IF NK$LDCT.TH.MAXNMBRCR = 0 OR NK$LDCT.TH.MAXNMBBYT = 0

  13127  2 000344   200003 470500                    LDP0    @NK$LDCT,,AUTO
         2 000345   000016 720100                    LXL0    14,,PR0
         2 000346   000351 600000 2                  TZE     s:13129
         2 000347   000017 721100                    LXL1    15,,PR0
         2 000350   000416 601000 2                  TNZ     s:13148

     1263    13128    3           THEN DO;

     1264    13129    3                OPARM = K_RWPARM_CON;

  13129  2 000351   000100 100400                    MLR     fill='000'O
         2 000352   000000 000234 xsym               ADSC9   K_RWPARM_CON             cn=0,n=156
         2 000353   200014 000234                    ADSC9   OPARM,,AUTO              cn=0,n=156

     1265    13130    3                CALL KIA$FCNO(NK$LDCT,%KV_VDO_FNC_BLKDAT,OPARM)

  13130  2 000354   200014 631500                    EPPR1   OPARM,,AUTO
         2 000355   200100 451500                    STP1    MARKER+5,,AUTO
         2 000356   000004 236000 3                  LDQ     4
         2 000357   200003 235100                    LDA     @NK$LDCT,,AUTO
         2 000360   200076 757100                    STAQ    MARKER+3,,AUTO
         2 000361   200076 630500                    EPPR0   MARKER+3,,AUTO
         2 000362   000021 631400 xsym               EPPR1   B_VECTNIL+17
PL6.E3A0      #002=KIA$UCIN File=KIA$APPLC.:E05TSI                               WED 07/30/97 00:32 Page:219
         2 000363   000000 701000 xent               TSX1    KIA$FCNO
         2 000364   000366 702000 2                  TSX2    s:13133
         2 000365   000376 710000 2                  TRA     s:13137

     1266    13131    4                WHENALTRETURN DO;

     1267    13132                          %UNLOCK (G=NK$LDCT.LOCK);

  13133  2 000366   200003 236100                    LDQ     @NK$LDCT,,AUTO
         2 000367   000020 036003                    ADLQ    16,DU
         2 000370   200076 756100                    STQ     MARKER+3,,AUTO
         2 000371   200076 630500                    EPPR0   MARKER+3,,AUTO
         2 000372   000017 631400 xsym               EPPR1   B_VECTNIL+15
         2 000373   000000 701000 xent               TSX1    HFC$UNLOCK
         2 000374   000000 011000                    NOP     0

     1268    13135    4                     GOTO GETOUT;

  13135  2 000375   001057 710000 2                  TRA     GETOUT

     1269    13136    4                   END;
     1270    13137    3                IF K$RWPARM.MRKTYP ~= 0

  13137  2 000376   200004 470500                    LDP0    @K$RWPARM,,AUTO
         2 000377   000040 236100                    LDQ     32,,PR0
         2 000400   777000 316007                    CANQ    -512,DL
         2 000401   000406 600000 2                  TZE     s:13143

     1271    13138    4                THEN DO;

     1272    13139    4                     MARKER = K$RWPARM.MARKER;

  13139  2 000402   000007 236100                    LDQ     7,,PR0
         2 000403   200073 756100                    STQ     MARKER,,AUTO

     1273    13140    4                     CALL SEND_MARKER ALTRET(GETOUT);

PL6.E3A0      #002=KIA$UCIN File=KIA$APPLC.:E05TSI                               WED 07/30/97 00:32 Page:220
  13140  2 000404   001063 701000 2                  TSX1    SEND_MARKER
         2 000405   001057 702000 2                  TSX2    GETOUT

     1274    13141    4                   END;

     1275    13142                     %UNLOCK (G=NK$LDCT.LOCK);

  13143  2 000406   200003 236100                    LDQ     @NK$LDCT,,AUTO
         2 000407   000020 036003                    ADLQ    16,DU
         2 000410   200076 756100                    STQ     MARKER+3,,AUTO
         2 000411   200076 630500                    EPPR0   MARKER+3,,AUTO
         2 000412   000017 631400 xsym               EPPR1   B_VECTNIL+15
         2 000413   000000 701000 xent               TSX1    HFC$UNLOCK
         2 000414   000000 011000                    NOP     0

     1276    13145    3                RETURN;

  13145  2 000415   000000 702200 xent               TSX2  ! X66_ARET

     1277    13146    3              END;
     1278    13147                %UNLOCK (G=NK$LDCT.LOCK);

  13148  2 000416   200003 236100                    LDQ     @NK$LDCT,,AUTO
         2 000417   000020 036003                    ADLQ    16,DU
         2 000420   200076 756100                    STQ     MARKER+3,,AUTO
         2 000421   200076 630500                    EPPR0   MARKER+3,,AUTO
         2 000422   000017 631400 xsym               EPPR1   B_VECTNIL+15
         2 000423   000000 701000 xent               TSX1    HFC$UNLOCK
         2 000424   000000 011000                    NOP     0

     1279    13150                       /* Report COMIO event to user if an event is specified     */
     1280    13151                       /* in the DCB.                                             */
     1281    13152    2           IF VDO.STR~=KIDM_MON AND VDO.STR~=KIDM_DB

  13152  2 000425   200064 236100                    LDQ     VDO,,AUTO
         2 000426   000177 376003                    ANQ     127,DU
         2 000427   000177 116003                    CMPQ    127,DU
PL6.E3A0      #002=KIA$UCIN File=KIA$APPLC.:E05TSI                               WED 07/30/97 00:32 Page:221
         2 000430   000530 600000 2                  TZE     s:13165
         2 000431   000003 116003                    CMPQ    3,DU
         2 000432   000530 600000 2                  TZE     s:13165

     1282    13153    3           THEN DO;

     1283    13154    3                CALL KIA$GETEVNT(LDCT,EVNT,DOMN);

  13154  2 000433   200067 630500                    EPPR0   BCNT,,AUTO
         2 000434   200100 450500                    STP0    MARKER+5,,AUTO
         2 000435   200070 631500                    EPPR1   EVNT,,AUTO
         2 000436   200077 451500                    STP1    MARKER+4,,AUTO
         2 000437   200003 236100                    LDQ     @NK$LDCT,,AUTO
         2 000440   200076 756100                    STQ     MARKER+3,,AUTO
         2 000441   200076 630500                    EPPR0   MARKER+3,,AUTO
         2 000442   000021 631400 xsym               EPPR1   B_VECTNIL+17
         2 000443   000000 701000 xent               TSX1    KIA$GETEVNT
         2 000444   000000 011000                    NOP     0

     1284    13155    4                IF EVNT~=0 THEN DO;

  13155  2 000445   200070 235100                    LDA     EVNT,,AUTO
         2 000446   000530 600000 2                  TZE     s:13165

     1285    13156    4                     CALL SSR$RUE (%SS_FPEVNT,LDCT.USER);

  13156  2 000447   200003 236100                    LDQ     @NK$LDCT,,AUTO
         2 000450   000000 036000 3                  ADLQ    0
         2 000451   000006 235000 3                  LDA     6
         2 000452   200076 757100                    STAQ    MARKER+3,,AUTO
         2 000453   200076 630500                    EPPR0   MARKER+3,,AUTO
         2 000454   000020 631400 xsym               EPPR1   B_VECTNIL+16
         2 000455   000000 701000 xent               TSX1    SSR$RUE
         2 000456   000000 011000                    NOP     0

     1286    13157    4                     COMIOEV='0'B;

PL6.E3A0      #002=KIA$UCIN File=KIA$APPLC.:E05TSI                               WED 07/30/97 00:32 Page:222
  13157  2 000457   000100 100400                    MLR     fill='000'O
         2 000460   000002 000001 xsym               ADSC9   B_VECTNIL+2              cn=0,n=1
         2 000461   200011 000014                    ADSC9   COMIOEV,,AUTO            cn=0,n=12

     1287    13158    4                     IF DOMN=%DBWSR THEN COMIOEV.FLAGS.DELTA='1'B; /* DELTA only  */

  13158  2 000462   200067 235100                    LDA     BCNT,,AUTO
         2 000463   000005 115007                    CMPA    5,DL
         2 000464   000467 601000 2                  TNZ     s:13159

  13158  2 000465   400000 236007                    LDQ     -131072,DL
         2 000466   200012 256100                    ORSQ    COMIOEV+1,,AUTO

     1288    13159    4                     COMIOEV.P#=SIZEW(COMIOEV)-SIZEW(COMIOEV.P#);

  13159  2 000467   000002 236007                    LDQ     2,DL
         2 000470   200011 756100                    STQ     COMIOEV,,AUTO

     1289    13160    4                     COMIOEV.SUBC2=%SUBC2_DATA_RQS#;

  13160  2 000471   000001 236007                    LDQ     1,DL
         2 000472   200012 552104                    STBQ    COMIOEV+1,'04'O,AUTO

     1290    13161    4                     COMIOEV.ARS=256*VDO1.RCRBYTSIZ/512+MOD(VDO1.RCRBYTSIZ,512);

  13161  2 000473   200064 236100                    LDQ     VDO,,AUTO
         2 000474   000010 736000                    QLS     8
         2 000475   000007 376000 3                  ANQ     7
         2 000476   000011 772000                    QRL     9
         2 000477   200076 756100                    STQ     MARKER+3,,AUTO
         2 000500   200064 236100                    LDQ     VDO,,AUTO
         2 000501   777777 376007                    ANQ     -1,DL
         2 000502   000777 376007                    ANQ     511,DL
         2 000503   200076 036100                    ADLQ    MARKER+3,,AUTO
         2 000504   200013 756100                    STQ     COMIOEV+2,,AUTO

     1291    13162    4                     CALL SSV$EVENT(LDCT.USER,DOMN,%SUBC_COMIO#,EVNT,0,ADDR(COMIOEV));
PL6.E3A0      #002=KIA$UCIN File=KIA$APPLC.:E05TSI                               WED 07/30/97 00:32 Page:223

  13162  2 000505   200011 630500                    EPPR0   COMIOEV,,AUTO
         2 000506   200076 450500                    STP0    MARKER+3,,AUTO
         2 000507   200076 631500                    EPPR1   MARKER+3,,AUTO
         2 000510   200105 451500                    STP1    MARKER+10,,AUTO
         2 000511   000010 236000 3                  LDQ     8
         2 000512   200104 756100                    STQ     MARKER+9,,AUTO
         2 000513   200070 633500                    EPPR3   EVNT,,AUTO
         2 000514   200103 453500                    STP3    MARKER+8,,AUTO
         2 000515   000011 236000 3                  LDQ     9
         2 000516   200102 756100                    STQ     MARKER+7,,AUTO
         2 000517   200067 634500                    EPPR4   BCNT,,AUTO
         2 000520   200101 454500                    STP4    MARKER+6,,AUTO
         2 000521   200003 236100                    LDQ     @NK$LDCT,,AUTO
         2 000522   000000 036000 3                  ADLQ    0
         2 000523   200100 756100                    STQ     MARKER+5,,AUTO
         2 000524   200100 630500                    EPPR0   MARKER+5,,AUTO
         2 000525   000024 631400 xsym               EPPR1   B_VECTNIL+20
         2 000526   000000 701000 xent               TSX1    SSV$EVENT
         2 000527   000000 011000                    NOP     0

     1292    13163    4                   END;

     1293    13164    3              END;                         /* CASE */

     1294    13165    2           IF NK$LDCT.TH.MAXNMBRCR > 0 OR NK$LDCT.TH.MAXNMBBYT > 0

  13165  2 000530   200003 470500                    LDP0    @NK$LDCT,,AUTO
         2 000531   000016 720100                    LXL0    14,,PR0
         2 000532   000535 605400 2                  TPNZ    s:13167
         2 000533   000017 721100                    LXL1    15,,PR0
         2 000534   001056 604400 2                  TMOZ    OUT

     1295    13166    2           THEN
     1296    13167    2                CALL SSR$RUE (%SS_CUB,LDCT.USER);

  13167  2 000535   200003 236100                    LDQ     @NK$LDCT,,AUTO
PL6.E3A0      #002=KIA$UCIN File=KIA$APPLC.:E05TSI                               WED 07/30/97 00:32 Page:224
         2 000536   000000 036000 3                  ADLQ    0
         2 000537   000012 235000 3                  LDA     10
         2 000540   200076 757100                    STAQ    MARKER+3,,AUTO
         2 000541   200076 630500                    EPPR0   MARKER+3,,AUTO
         2 000542   000020 631400 xsym               EPPR1   B_VECTNIL+16
         2 000543   000000 701000 xent               TSX1    SSR$RUE
         2 000544   000000 011000                    NOP     0
         2 000545   001056 710000 2                  TRA     OUT

     1297    13168
     1298    13169        %EJECT;
PL6.E3A0      #002=KIA$UCIN File=KIA$APPLC.:E05TSI                               WED 07/30/97 00:32 Page:225
     1299    13170    2        CASE(%KV_VDO_FNC_MRK);

     1300    13171                %LOCK (G=NK$LDCT.LOCK);

  13172  2 000546   200003 236100                    LDQ     @NK$LDCT,,AUTO
         2 000547   000020 036003                    ADLQ    16,DU
         2 000550   200076 756100                    STQ     MARKER+3,,AUTO
         2 000551   200076 630500                    EPPR0   MARKER+3,,AUTO
         2 000552   000017 631400 xsym               EPPR1   B_VECTNIL+15
         2 000553   000000 701000 xent               TSX1    HFC$LOCK
         2 000554   000000 011000                    NOP     0

     1301    13174    2           IF (B$USRT$->B$USER.FLG(LDCT.USER)&%U_SCIO)

  13174  2 000555   200003 470500                    LDP0    @NK$LDCT,,AUTO
         2 000556   000007 236100                    LDQ     7,,PR0
         2 000557   000016 772000                    QRL     14
         2 000560   017760 376007                    ANQ     8176,DL
         2 000561   000000 471400 xsym               LDP1    B$USRT$
         2 000562   100000 236106                    LDQ     0,QL,PR1
         2 000563   000000 376000 1                  ANQ     0
         2 000564   000603 600000 2                  TZE     s:13178
         2 000565   000007 236100                    LDQ     7,,PR0
         2 000566   000016 772000                    QRL     14
         2 000567   017760 376007                    ANQ     8176,DL
         2 000570   100017 236106                    LDQ     15,QL,PR1
         2 000571   200003 116100                    CMPQ    @NK$LDCT,,AUTO
         2 000572   000603 601000 2                  TNZ     s:13178

     1302    13175    2                AND B$USRT$->B$USER.MISC$(LDCT.USER) = ADDR(LDCT)
     1303    13176    2           THEN
     1304    13177    2                CALL SSR$RUE (%SS_CIC,LDCT.USER);

  13177  2 000573   200003 236100                    LDQ     @NK$LDCT,,AUTO
         2 000574   000000 036000 3                  ADLQ    0
         2 000575   000001 235000 3                  LDA     1
         2 000576   200076 757100                    STAQ    MARKER+3,,AUTO
PL6.E3A0      #002=KIA$UCIN File=KIA$APPLC.:E05TSI                               WED 07/30/97 00:32 Page:226
         2 000577   200076 630500                    EPPR0   MARKER+3,,AUTO
         2 000600   000020 631400 xsym               EPPR1   B_VECTNIL+16
         2 000601   000000 701000 xent               TSX1    SSR$RUE
         2 000602   000000 011000                    NOP     0

     1305    13178    2           IF LDCT.LKFLG.WTMRK             /* Waiting marker */

  13178  2 000603   200003 470500                    LDP0    @NK$LDCT,,AUTO
         2 000604   000011 236100                    LDQ     9,,PR0
         2 000605   020000 316003                    CANQ    8192,DU
         2 000606   000621 600000 2                  TZE     L4

     1306    13179    3           THEN DO;

     1307    13180    3                LDCT.LKFLG.WTMRK = '0'B;

  13180  2 000607   000013 236000 3                  LDQ     11
         2 000610   000011 356100                    ANSQ    9,,PR0

     1308    13181                     %UNLOCK (G=NK$LDCT.LOCK);

  13182  2 000611   200003 236100                    LDQ     @NK$LDCT,,AUTO
         2 000612   000020 036003                    ADLQ    16,DU
         2 000613   200076 756100                    STQ     MARKER+3,,AUTO
         2 000614   200076 630500                    EPPR0   MARKER+3,,AUTO
         2 000615   000017 631400 xsym               EPPR1   B_VECTNIL+15
         2 000616   000000 701000 xent               TSX1    HFC$UNLOCK
         2 000617   000000 011000                    NOP     0

     1309    13184    3                RETURN;

  13184  2 000620   000000 702200 xent               TSX2  ! X66_ARET

  13178  2 000621                       L4           null
     1310    13185    3              END;
     1311    13186    2   L4:     ;
     1312    13187    2           IF LDCT.IP$ ~= ADDR(NIL)
PL6.E3A0      #002=KIA$UCIN File=KIA$APPLC.:E05TSI                               WED 07/30/97 00:32 Page:227

  13187  2 000621   200003 470500                    LDP0    @NK$LDCT,,AUTO
         2 000622   000013 236100                    LDQ     11,,PR0
         2 000623   000001 116000 xsym               CMPQ    B_VECTNIL+1
         2 000624   000635 600000 2                  TZE     s:13194

     1313    13188    3           THEN DO;

     1314    13189                     %UNLOCK (G=NK$LDCT.LOCK);

  13190  2 000625   200003 236100                    LDQ     @NK$LDCT,,AUTO
         2 000626   000020 036003                    ADLQ    16,DU
         2 000627   200076 756100                    STQ     MARKER+3,,AUTO
         2 000630   200076 630500                    EPPR0   MARKER+3,,AUTO
         2 000631   000017 631400 xsym               EPPR1   B_VECTNIL+15
         2 000632   000000 701000 xent               TSX1    HFC$UNLOCK
         2 000633   000000 011000                    NOP     0

     1315    13192    3                GOTO CRASH_IT;

  13192  2 000634   001032 710000 2                  TRA     CRASH_IT

     1316    13193    3              END;
     1317    13194    2           LDCT.IP$ = K$RWPARM.IP$;

  13194  2 000635   200004 471500                    LDP1    @K$RWPARM,,AUTO
         2 000636   100012 236100                    LDQ     10,,PR1
         2 000637   000013 756100                    STQ     11,,PR0

     1318    13195    2           LDCT.IPFEI# = K$RWPARM.IP$->KI$QMHDR.FEI#;

  13195  2 000640   100012 473500                    LDP3    10,,PR1
         2 000641   300000 236100                    LDQ     0,,PR3
         2 000642   377000 376003                    ANQ     130560,DU
         2 000643   000022 772000                    QRL     18
         2 000644   000014 552110                    STBQ    12,'10'O,PR0

PL6.E3A0      #002=KIA$UCIN File=KIA$APPLC.:E05TSI                               WED 07/30/97 00:32 Page:228
     1319    13196                %UNLOCK (G=NK$LDCT.LOCK);

  13197  2 000645   200003 236100                    LDQ     @NK$LDCT,,AUTO
         2 000646   000020 036003                    ADLQ    16,DU
         2 000647   200076 756100                    STQ     MARKER+3,,AUTO
         2 000650   200076 630500                    EPPR0   MARKER+3,,AUTO
         2 000651   000017 631400 xsym               EPPR1   B_VECTNIL+15
         2 000652   000000 701000 xent               TSX1    HFC$UNLOCK
         2 000653   000000 011000                    NOP     0

     1320    13199    2          ADDR(K$RWPARM.IP$->KI$QMHDR.OFFSET)->UBNBSD = POFFC(K$RWPARM.UHDR$,K$RWPARM.
             13199                    IP$)

  13199  2 000654   200004 470500                    LDP0    @K$RWPARM,,AUTO
         2 000655   000012 471500                    LDP1    10,,PR0
         2 000656   000012 236100                    LDQ     10,,PR0
         2 000657   000020 772000                    QRL     16
         2 000660   200076 756100                    STQ     MARKER+3,,AUTO
         2 000661   000014 236100                    LDQ     12,,PR0
         2 000662   000020 772000                    QRL     16
         2 000663   200076 136100                    SBLQ    MARKER+3,,AUTO
         2 000664   000022 736000                    QLS     18
         2 000665   000015 036100                    ADLQ    13,,PR0
         2 000666   100001 756100                    STQ     1,,PR1

     1321    13200    2                * 262144 + K$RWPARM.UHDRSZ;
     1322    13201    2           K$RWPARM.ERR = %K$WAIT_READ;

  13201  2 000667   000006 235007                    LDA     6,DL
         2 000670   000013 755100                    STA     11,,PR0

     1323    13202    2           ALTRETURN;

  13202  2 000671   000000 702200 xent               TSX2  ! X66_AALT

     1324    13203
     1325    13204
PL6.E3A0      #002=KIA$UCIN File=KIA$APPLC.:E05TSI                               WED 07/30/97 00:32 Page:229
     1326    13205        %EJECT;
PL6.E3A0      #002=KIA$UCIN File=KIA$APPLC.:E05TSI                               WED 07/30/97 00:32 Page:230
     1327    13206    2        CASE(%KV_VDO_FNC_BLKDAT);

     1328    13207                       /* Report COMIO event to user if an event is specified     */
     1329    13208                       /* in the DCB                                              */
     1330    13209    2           IF VDO.STR=KIDM_MON THEN RETURN;

  13209  2 000672   200064 236100                    LDQ     VDO,,AUTO
         2 000673   000177 376003                    ANQ     127,DU
         2 000674   000177 116003                    CMPQ    127,DU
         2 000675   000677 601000 2                  TNZ     s:13210

  13209  2 000676   000000 702200 xent               TSX2  ! X66_ARET

     1331    13210    2           CALL KIA$GETEVNT(LDCT,EVNT,DOMN);

  13210  2 000677   200067 634500                    EPPR4   BCNT,,AUTO
         2 000700   200100 454500                    STP4    MARKER+5,,AUTO
         2 000701   200070 633500                    EPPR3   EVNT,,AUTO
         2 000702   200077 453500                    STP3    MARKER+4,,AUTO
         2 000703   200003 236100                    LDQ     @NK$LDCT,,AUTO
         2 000704   200076 756100                    STQ     MARKER+3,,AUTO
         2 000705   200076 630500                    EPPR0   MARKER+3,,AUTO
         2 000706   000021 631400 xsym               EPPR1   B_VECTNIL+17
         2 000707   000000 701000 xent               TSX1    KIA$GETEVNT
         2 000710   000000 011000                    NOP     0

     1332    13211        /*
     1333    13212             if sched for i/o but remote write was issued before rqsdat,
     1334    13213             just return and wait for data.
     1335    13214        */
     1336    13215    2           P$ = ADDR(B$USRT$->B$USER(LDCT.USER));

  13215  2 000711   200003 470500                    LDP0    @NK$LDCT,,AUTO
         2 000712   000007 236100                    LDQ     7,,PR0
         2 000713   000016 772000                    QRL     14
         2 000714   017760 376007                    ANQ     8176,DL
         2 000715   000022 736000                    QLS     18
PL6.E3A0      #002=KIA$UCIN File=KIA$APPLC.:E05TSI                               WED 07/30/97 00:32 Page:231
         2 000716   000000 036000 xsym               ADLQ    B$USRT$
         2 000717   200066 756100                    STQ     P$,,AUTO

     1337    13216    2           IF P$->B$U.FLG & %U_SCIO AND

  13216  2 000720   200066 471500                    LDP1    P$,,AUTO
         2 000721   100000 236100                    LDQ     0,,PR1
         2 000722   000000 376000 1                  ANQ     0
         2 000723   000746 600000 2                  TZE     s:13223
         2 000724   100017 236100                    LDQ     15,,PR1
         2 000725   200003 116100                    CMPQ    @NK$LDCT,,AUTO
         2 000726   000746 601000 2                  TNZ     s:13223
         2 000727   200004 473500                    LDP3    @K$RWPARM,,AUTO
         2 000730   300014 474500                    LDP4    12,,PR3
         2 000731   000100 101500                    MRL     fill='000'O
         2 000732   400001 000001                    ADSC9   1,,PR4                   cn=0,n=1
         2 000733   200076 000004                    ADSC9   MARKER+3,,AUTO           cn=0,n=4
         2 000734   200076 236100                    LDQ     MARKER+3,,AUTO
         2 000735   000002 116007                    CMPQ    2,DL
         2 000736   000746 601000 2                  TNZ     s:13223
         2 000737   100011 236100                    LDQ     9,,PR1
         2 000740   770000 376003                    ANQ     -4096,DU
         2 000741   250000 116003                    CMPQ    86016,DU
         2 000742   000745 600000 2                  TZE     s:13222
         2 000743   270000 116003                    CMPQ    94208,DU
         2 000744   000746 601000 2                  TNZ     s:13223

     1338    13217    2                P$->B$U.MISC$ = ADDR(NK$LDCT) AND
     1339    13218    2                KV$VDO_BLKDAT.RSN = %KV_BLKRSN_MAXNMBRCR AND
     1340    13219    2                (P$->B$U.US = %SS_STI OR
     1341    13220    2                P$->B$U.US = %SS_SCW)
     1342    13221    2           THEN
     1343    13222    2                RETURN;

  13222  2 000745   000000 702200 xent               TSX2  ! X66_ARET

     1344    13223    3           IF EVNT~=0 THEN DO;
PL6.E3A0      #002=KIA$UCIN File=KIA$APPLC.:E05TSI                               WED 07/30/97 00:32 Page:232

  13223  2 000746   200070 235100                    LDA     EVNT,,AUTO
         2 000747   001056 600000 2                  TZE     OUT

     1345    13224    3                CALL SSR$RUE (%SS_FPEVNT,LDCT.USER);

  13224  2 000750   200003 236100                    LDQ     @NK$LDCT,,AUTO
         2 000751   000000 036000 3                  ADLQ    0
         2 000752   000006 235000 3                  LDA     6
         2 000753   200076 757100                    STAQ    MARKER+3,,AUTO
         2 000754   200076 630500                    EPPR0   MARKER+3,,AUTO
         2 000755   000020 631400 xsym               EPPR1   B_VECTNIL+16
         2 000756   000000 701000 xent               TSX1    SSR$RUE
         2 000757   000000 011000                    NOP     0

     1346    13225    3                COMIOEV='0'B;

  13225  2 000760   000100 100400                    MLR     fill='000'O
         2 000761   000002 000001 xsym               ADSC9   B_VECTNIL+2              cn=0,n=1
         2 000762   200011 000014                    ADSC9   COMIOEV,,AUTO            cn=0,n=12

     1347    13226    3                IF DOMN=%DBWSR THEN COMIOEV.FLAGS.DELTA='1'B; /* DELTA only */

  13226  2 000763   200067 235100                    LDA     BCNT,,AUTO
         2 000764   000005 115007                    CMPA    5,DL
         2 000765   000770 601000 2                  TNZ     s:13227

  13226  2 000766   400000 236007                    LDQ     -131072,DL
         2 000767   200012 256100                    ORSQ    COMIOEV+1,,AUTO

     1348    13227    3                COMIOEV.P#=SIZEW(COMIOEV)-SIZEW(COMIOEV.P#);

  13227  2 000770   000002 236007                    LDQ     2,DL
         2 000771   200011 756100                    STQ     COMIOEV,,AUTO

     1349    13228    3                COMIOEV.SUBC2=%SUBC2_DATA_AVL#;

PL6.E3A0      #002=KIA$UCIN File=KIA$APPLC.:E05TSI                               WED 07/30/97 00:32 Page:233
  13228  2 000772   000002 236007                    LDQ     2,DL
         2 000773   200012 552104                    STBQ    COMIOEV+1,'04'O,AUTO

     1350    13229    3                COMIOEV.ARS=256*VDO1.RCRBYTSIZ/512+MOD(VDO1.RCRBYTSIZ,512);

  13229  2 000774   200064 236100                    LDQ     VDO,,AUTO
         2 000775   000010 736000                    QLS     8
         2 000776   000007 376000 3                  ANQ     7
         2 000777   000011 772000                    QRL     9
         2 001000   200076 756100                    STQ     MARKER+3,,AUTO
         2 001001   200064 236100                    LDQ     VDO,,AUTO
         2 001002   777777 376007                    ANQ     -1,DL
         2 001003   000777 376007                    ANQ     511,DL
         2 001004   200076 036100                    ADLQ    MARKER+3,,AUTO
         2 001005   200013 756100                    STQ     COMIOEV+2,,AUTO

     1351    13230    3                CALL SSV$EVENT(LDCT.USER,DOMN,%SUBC_COMIO#,EVNT,0,ADDR(COMIOEV));

  13230  2 001006   200011 630500                    EPPR0   COMIOEV,,AUTO
         2 001007   200076 450500                    STP0    MARKER+3,,AUTO
         2 001010   200076 631500                    EPPR1   MARKER+3,,AUTO
         2 001011   200105 451500                    STP1    MARKER+10,,AUTO
         2 001012   000010 236000 3                  LDQ     8
         2 001013   200104 756100                    STQ     MARKER+9,,AUTO
         2 001014   200070 633500                    EPPR3   EVNT,,AUTO
         2 001015   200103 453500                    STP3    MARKER+8,,AUTO
         2 001016   000011 236000 3                  LDQ     9
         2 001017   200102 756100                    STQ     MARKER+7,,AUTO
         2 001020   200067 634500                    EPPR4   BCNT,,AUTO
         2 001021   200101 454500                    STP4    MARKER+6,,AUTO
         2 001022   200003 236100                    LDQ     @NK$LDCT,,AUTO
         2 001023   000000 036000 3                  ADLQ    0
         2 001024   200100 756100                    STQ     MARKER+5,,AUTO
         2 001025   200100 630500                    EPPR0   MARKER+5,,AUTO
         2 001026   000024 631400 xsym               EPPR1   B_VECTNIL+20
         2 001027   000000 701000 xent               TSX1    SSV$EVENT
         2 001030   000000 011000                    NOP     0
PL6.E3A0      #002=KIA$UCIN File=KIA$APPLC.:E05TSI                               WED 07/30/97 00:32 Page:234

     1352    13231    3              END;

  13231  2 001031   001056 710000 2                  TRA     OUT

     1353    13232
     1354    13233        %EJECT;
PL6.E3A0      #002=KIA$UCIN File=KIA$APPLC.:E05TSI                               WED 07/30/97 00:32 Page:235
     1355    13234    2        CASE(ELSE);

  13230  2 001032                       CRASH_IT     null
     1356    13235    2   CRASH_IT: ;                   /* Lop off this diseased branch of the network */
     1357    13236    2           KL_FEPST.FEP = K$RWPARM.FEX;

  13236  2 001032   200004 470500                    LDP0    @K$RWPARM,,AUTO
         2 001033   000021 236100                    LDQ     17,,PR0
         2 001034   000022 736000                    QLS     18
         2 001035   200005 552120                    STBQ    KL_FEPST,'20'O,AUTO

     1358    13237    2           KL_FEPST.FCN = IGA_CRASHFEP_BF;

  13237  2 001036   120000 236003                    LDQ     40960,DU
         2 001037   200005 552140                    STBQ    KL_FEPST,'40'O,AUTO

     1359    13238    2           CALL KUB$WRITE(KL_FEPST, LENGTHC(KL_FEPST), 'HLPADMIN');

  13238  2 001040   000015 236000 3                  LDQ     13
         2 001041   200100 756100                    STQ     MARKER+5,,AUTO
         2 001042   000016 236000 3                  LDQ     14
         2 001043   200077 756100                    STQ     MARKER+4,,AUTO
         2 001044   200005 631500                    EPPR1   KL_FEPST,,AUTO
         2 001045   200076 451500                    STP1    MARKER+3,,AUTO
         2 001046   200076 630500                    EPPR0   MARKER+3,,AUTO
         2 001047   000021 631400 xsym               EPPR1   B_VECTNIL+17
         2 001050   000000 701000 xent               TSX1    KUB$WRITE
         2 001051   000000 011000                    NOP     0

     1360    13239    2           K$RWPARM.ERR = %K$WAIT_READ;

  13239  2 001052   000006 235007                    LDA     6,DL
         2 001053   200004 470500                    LDP0    @K$RWPARM,,AUTO
         2 001054   000013 755100                    STA     11,,PR0

     1361    13240    2           ALTRETURN;       /* Freeze the Q so that there's something to see */

PL6.E3A0      #002=KIA$UCIN File=KIA$APPLC.:E05TSI                               WED 07/30/97 00:32 Page:236
  13240  2 001055   000000 702200 xent               TSX2  ! X66_AALT

     1362    13241    2        END;

  13236  2 001056                       OUT          null
     1363    13242    1   OUT: ;
     1364    13243    1        RETURN;

  13243  2 001056   000000 702200 xent               TSX2  ! X66_ARET

  13236  2 001057                       GETOUT       null
     1365    13244
     1366    13245    1   GETOUT: ;
     1367    13246    1        K$RWPARM.ERR = %K$DEFER_IO;

  13246  2 001057   000003 235007                    LDA     3,DL
         2 001060   200004 470500                    LDP0    @K$RWPARM,,AUTO
         2 001061   000013 755100                    STA     11,,PR0

     1368    13247    1        ALTRETURN;

  13247  2 001062   000000 702200 xent               TSX2  ! X66_AALT

     1369    13248        %EJECT;
PL6.E3A0      #002=KIA$UCIN File=KIA$APPLC.:E05TSI                               WED 07/30/97 00:32 Page:237
     1370    13249        /*I* NAME: SEND_MARKER
     1371    13250             DESCRIPTION: Returns a marker, using the auto variable as data.
     1372    13251        */
     1373    13252    1   SEND_MARKER: PROC ALTRET;

  13252  2 001063   200074 741300       SEND_MARKER  STX1  ! MARKER+1,,AUTO

     1374    13253    2        OPARM = K_RWPARM_CON;

  13253  2 001064   000100 100400                    MLR     fill='000'O
         2 001065   000000 000234 xsym               ADSC9   K_RWPARM_CON             cn=0,n=156
         2 001066   200014 000234                    ADSC9   OPARM,,AUTO              cn=0,n=156

     1375    13254    2        OPARM.MARKER = MARKER;

  13254  2 001067   200073 236100                    LDQ     MARKER,,AUTO
         2 001070   200023 756100                    STQ     OPARM+7,,AUTO

     1376    13255    2        OPARM.MRKTYP = %KV_VDOMRKTYP_MRK;

  13255  2 001071   003000 236007                    LDQ     1536,DL
         2 001072   200054 552110                    STBQ    OPARM+32,'10'O,AUTO

     1377    13256    2        CALL KIA$FCNO (LDCT,%KV_VDO_FNC_MRK,OPARM)

  13256  2 001073   200014 630500                    EPPR0   OPARM,,AUTO
         2 001074   200100 450500                    STP0    MARKER+5,,AUTO
         2 001075   000020 236000 3                  LDQ     16
         2 001076   200003 235100                    LDA     @NK$LDCT,,AUTO
         2 001077   200076 757100                    STAQ    MARKER+3,,AUTO
         2 001100   200076 630500                    EPPR0   MARKER+3,,AUTO
         2 001101   000021 631400 xsym               EPPR1   B_VECTNIL+17
         2 001102   000000 701000 xent               TSX1    KIA$FCNO
         2 001103   001105 702000 2                  TSX2    s:13259
         2 001104   001116 710000 2                  TRA     s:13263

     1378    13257    3        WHENALTRETURN DO;
PL6.E3A0      #002=KIA$UCIN File=KIA$APPLC.:E05TSI                               WED 07/30/97 00:32 Page:238

     1379    13258                  %UNLOCK (G=LDCT.LOCK);

  13259  2 001105   200003 236100                    LDQ     @NK$LDCT,,AUTO
         2 001106   000020 036003                    ADLQ    16,DU
         2 001107   200076 756100                    STQ     MARKER+3,,AUTO
         2 001110   200076 630500                    EPPR0   MARKER+3,,AUTO
         2 001111   000017 631400 xsym               EPPR1   B_VECTNIL+15
         2 001112   000000 701000 xent               TSX1    HFC$UNLOCK
         2 001113   000000 011000                    NOP     0

     1380    13261    3             ALTRETURN;

  13261  2 001114   200074 221300                    LDX1  ! MARKER+1,,AUTO
         2 001115   000000 702211                    TSX2  ! 0,X1

     1381    13262    3           END;
     1382    13263    2        RETURN;

  13263  2 001116   200074 221300                    LDX1  ! MARKER+1,,AUTO
         2 001117   000001 702211                    TSX2  ! 1,X1

(unnamed)
 Sect OctLoc
   1     000   000000 002000   110114 120101   104115 111116                    ....HLPADMIN

(unnamed)
 Sect OctLoc
   3     000   000007 200000   000007 006000   000000 000035   000002 006000    ................
   3     004   000004 006000   000000 000053   000005 006000   000377 777400    .......+........
   3     010   000002 006000   000010 006000   000012 006000   757777 777777    ................
   3     014   000000 000016   000001 006000   000014 006000   000000 000037    ................
   3     020   000017 006000                                                    ....
     1383    13264    2   END SEND_MARKER;
     1384    13265
     1385    13266    1   END KIA$UCIN;
     1386    13267
PL6.E3A0      #002=KIA$UCIN File=KIA$APPLC.:E05TSI                               WED 07/30/97 00:32 Page:239
     1387    13268
     1388    13269        %EOD;

PL6.E3A0      #002=KIA$UCIN File=KIA$APPLC.:E05TSI                               WED 07/30/97 00:32 Page:240
--  Include file information  --

   KL_AFCN_C.:E05TOU  is referenced.
   KL_MACRO_C.:E05TOU  is referenced.
   B$USER.:E05TOU  cannot be made into a system file and is referenced.
   K$RWPARM.:E05TOU  is referenced.
   K_DATA_R.:E05TOU  cannot be made into a system file and is referenced.
   SS_SCHED_C.:E05TOU  is referenced.
   K_SUBS_C.:E05TOU  is referenced.
   KI_SUBS_C.:E05TOU  is referenced.
   NK_SUBS.:E05TOU  is referenced.
   NK$LDCT.:E05TOU  is referenced.
   HF_LOCK_C.:E05TOU  cannot be made into a system file and is referenced.
   KI_DATA_R.:E05TOU  cannot be made into a system file and is referenced.
   KV$VDO.:E05TOU  is referenced.
   KI$MHDR.:E05TOU  is referenced.
   CP_6_C.:E05TOU  is referenced.
   CP_6.:E05TOU  cannot be made into a system file and is referenced.
   B_STRINGS_C.:E05TOU  is referenced.
      No diagnostics issued in procedure KIA$UCIN.
PL6.E3A0      #002=KIA$UCIN File=KIA$APPLC.:E05TSI                               WED 07/30/97 00:32 Page:241

 **** Variables and constants ****

  ****  Auto variables  ****

  ****  Scalars and arrays  ****
OctLoc.c.b A Datatyp(siz) R M Lvl/name                 OctLoc.c.b A Datatyp(siz) R M Lvl/name

     4-0-0/w PTR         r     1 @K$RWPARM                  3-0-0/w PTR         r     1 @NK$LDCT
    67-0-0/w UBIN        r     1 BCNT                      11-0-0/w STRC(108)   r     1 COMIOEV
    67-0-0/w UBIN        r     1 DOMN                      70-0-0/w UBIN        r     1 EVNT
    71-0-0/w UBIN        r     1 FEI                       *0-0-0/d STRC(1404)  r     1 K$RWPARM
     5-0-0/w STRC(126)   r     1 KL_FEPST                  73-0-0/b BIT         r     1 MARKER
    *0-0-0/d STRC(864)   r     1 NK$LDCT                   14-0-0/d STRC(1404)  r     1 OPARM
    66-0-0/w PTR         r     1 P$                        70-0-0/w CHAR(4)     r     1 TSTATE
    64-0-0/h STRC        r     1 VDO                       64-0-0/h STRC        r     1 VDO1

  ****  SYMREF variables  ****

  ****  Scalars and arrays  ****
OctLoc.c.b A Datatyp(siz) R M Lvl/name                 OctLoc.c.b A Datatyp(siz) R M Lvl/name

     0-0-0/w PTR         r     1 B$USRT$                    0-0-0/w PTR         r     1 KI_FEI$$
     0-0-0/d STRC(1404)  r     1 K_RWPARM_CON

  ****  BASED and DCB variables  ****

  ****  Scalars and arrays  ****
OctLoc.c.b A Datatyp(siz) R M Lvl/name                 OctLoc.c.b A Datatyp(siz) R M Lvl/name

     0-0-0/d STRC(576)   r     1 B$U                        0-0-0/w STRC(576)   r     1 B$USER(0:0)
     0-0-0/w STRC(144)   r     1 KI$QMHDR                   0-0-0/h STRC(54)    r     1 KV$VDO_BLKDAT
     0-0-0/h STRC        r     1 KV$VDO_EVT                 0-0-0/w UBIN        r     1 UBNBSD


   Procedure KIA$UCIN requires 592 words for executable code.
   Procedure KIA$UCIN requires 70 words of local(AUTO) storage.
PL6.E3A0      #002=KIA$UCIN File=KIA$APPLC.:E05TSI                               WED 07/30/97 00:32 Page:242
          *** CROSS REFERENCE LISTING ***
**     DENOTES     IDENTIFIER DEFINITION
<<                 IDENTIFIER'S VALUE SET
>>                 IDENTIFIER'S VALUE USED
<>                 IDENTIFIER SET AND/OR USED
--                 IDENTIFIER REFERENCED
PL6.E3A0      #002=KIA$UCIN File=KIA$APPLC.:E05TSI                               WED 07/30/97 00:32 Page:243
          MINI XREF LISTING

B$DO.ECCINFO
      8300**DCL      8301--REDEF
B$U.FLG
      8166**DCL     13098>>IF      13216>>IF
B$U.MISC
      8279**DCL      8280--REDEF
B$U.MISC$
      8280**DCL     13098>>IF      13216>>IF
B$U.US
      8266**DCL     13098>>IF      13098>>IF      13216>>IF      13216>>IF
B$USER
      8324**DCL     13097--ASSIGN  13215--ASSIGN
B$USER.FLG
      8325**DCL     13068>>IF      13174>>IF
B$USER.MISC
      8355**DCL      8356--REDEF
B$USER.MISC$
      8356**DCL     13068>>IF      13174>>IF
B$USRT$
     13030**DCL     13068>>IF      13068>>IF      13097>>ASSIGN  13174>>IF      13174>>IF      13215>>ASSIGN
BCNT
     12964**DCL     12965--REDEF   13042<<ASSIGN  13043>>IF      13073<>CALL
COMIOEV
     12595**DCL     13157<<ASSIGN  13159--ASSIGN  13162--CALL    13225<<ASSIGN  13227--ASSIGN  13230--CALL
COMIOEV.ARS
     12597**DCL     12597--REDEF   13161<<ASSIGN  13229<<ASSIGN
COMIOEV.FLAGS.DELTA
     12597**DCL     13158<<ASSIGN  13226<<ASSIGN
COMIOEV.P#
     12597**DCL     13159<<ASSIGN  13159--ASSIGN  13227<<ASSIGN  13227--ASSIGN
COMIOEV.SUBC2
     12597**DCL     13160<<ASSIGN  13228<<ASSIGN
PL6.E3A0      #002=KIA$UCIN File=KIA$APPLC.:E05TSI                               WED 07/30/97 00:32 Page:244
CRASH_IT
     13230**LABEL   13192--GOTO
DOMN
     12965**DCL     13154<>CALL    13158>>IF      13162<>CALL    13210<>CALL    13226>>IF      13230<>CALL
EVNT
     12966**DCL     12967--REDEF   13046<<ASSIGN  13048<<ASSIGN  13073<>CALL    13154<>CALL    13155>>IF
     13162<>CALL    13210<>CALL    13223>>IF      13230<>CALL
FEI
     12968**DCL     13033<<ASSIGN
GETOUT
     13236**LABEL   13063--CALLALT 13071--CALLALT 13086--CALLALT 13108--CALLALT 13120--CALLALT 13135--GOTO
     13140--CALLALT
HFC$LOCK
      6908**DCL-ENT 13053--CALL    13081--CALL    13125--CALL    13172--CALL
HFC$UNLOCK
      6908**DCL-ENT 13075--CALL    13093--CALL    13133--CALL    13143--CALL    13148--CALL    13182--CALL
     13190--CALL    13197--CALL    13259--CALL
K$RWPARM
     11886**DCL         8--PROC    13091<>CALL    13108<>CALL
K$RWPARM.BLKREC
     11912**DCL     11937--REDEF
K$RWPARM.BLKREC.BLKU#
     11913**DCL     11915--REDEF
K$RWPARM.BLKREC.RECU#
     11925**DCL     11927--REDEF
K$RWPARM.DVE.DVBYTE.VFC
     11952**DCL     11953--REDEF
K$RWPARM.DVE.EOMCHAR
     11960**DCL     11964--REDEF
K$RWPARM.ERR
     12024**DCL     12029--REDEF   13201<<ASSIGN  13239<<ASSIGN  13246<<ASSIGN
K$RWPARM.FC
     11988**DCL     11989--REDEF
K$RWPARM.FEX
     12070**DCL     13236>>ASSIGN
K$RWPARM.FLDID
PL6.E3A0      #002=KIA$UCIN File=KIA$APPLC.:E05TSI                               WED 07/30/97 00:32 Page:245
     12170**DCL     12171--REDEF
K$RWPARM.FPT$
     12051**DCL     12058--REDEF
K$RWPARM.IP$
     12016**DCL     13194>>ASSIGN  13195>>ASSIGN  13199>>ASSIGN  13199>>ASSIGN
K$RWPARM.KEYTYPE
     12177**DCL     12178--REDEF
K$RWPARM.MARKER
     11937**DCL     13066>>ASSIGN  13085>>ASSIGN  13139>>ASSIGN
K$RWPARM.MRKTYP
     12162**DCL     13056>>IF      13083>>IF      13137>>IF
K$RWPARM.MSG$
     11887**DCL     11893--REDEF
K$RWPARM.MSGID
     11999**DCL     12004--REDEF
K$RWPARM.MSGIDXT
     12012**DCL     12016--REDEF
K$RWPARM.ORG
     12148**DCL     12149--REDEF
K$RWPARM.THDRSZ
     12092**DCL     12096--REDEF
K$RWPARM.UHDR$
     12037**DCL     12364--IMP-PTR 12445--IMP-PTR 12487--IMP-PTR 12532--IMP-PTR 12575--IMP-PTR 13034>>ASSIGN
     13199>>ASSIGN  13216>>IF
K$RWPARM.UHDRSZ
     12042**DCL     13199>>ASSIGN
K$RWPARM.VDOFLGS
     12150**DCL     12161--REDEF
KI$QMHDR.FEI#
     12184**DCL     13195>>ASSIGN
KI$QMHDR.FPTSZ
     12217**DCL     12218--REDEF
KI$QMHDR.MSGSZ
     12223**DCL     12224--REDEF
KI$QMHDR.OFFSET
     12211**DCL     13199--ASSIGN
PL6.E3A0      #002=KIA$UCIN File=KIA$APPLC.:E05TSI                               WED 07/30/97 00:32 Page:246
KI$QMHDR.UID
     12213**DCL     12214--REDEF
KIA$COMP
     12975**DCL-ENT 13091--CALL
KIA$DSCTS
     12977**DCL-ENT 13108--CALL
KIA$FCNO
     12973**DCL-ENT 13120--CALL    13130--CALL    13256--CALL
KIA$GETEVNT
     12978**DCL-ENT 13154--CALL    13210--CALL
KI_FEI$$
      6880**DCL      6881--IMP-PTR
KL_FEPST
     12243**DCL     13238<>CALL    13238--CALL
KL_FEPST.FCN
     12244**DCL     13237<<ASSIGN
KL_FEPST.FEP
     12246**DCL     13236<<ASSIGN
KUB$WRITE
     12979**DCL-ENT 13238--CALL
KV$VDO_BLKDAT.RSN
     12539**DCL     13216>>IF
KV$VDO_EVT
     12445**DCL     13034>>ASSIGN
K_RWPARM_CON
      7853**DCL     13117>>ASSIGN  13129>>ASSIGN  13253>>ASSIGN
K_RWPARM_CON.BLKREC
      7879**DCL      7904--REDEF
K_RWPARM_CON.BLKREC.BLKU#
      7880**DCL      7882--REDEF
K_RWPARM_CON.BLKREC.RECU#
      7892**DCL      7894--REDEF
K_RWPARM_CON.DVE.DVBYTE.VFC
      7919**DCL      7920--REDEF
K_RWPARM_CON.DVE.EOMCHAR
      7927**DCL      7931--REDEF
PL6.E3A0      #002=KIA$UCIN File=KIA$APPLC.:E05TSI                               WED 07/30/97 00:32 Page:247
K_RWPARM_CON.ERR
      7991**DCL      7996--REDEF
K_RWPARM_CON.FC
      7955**DCL      7956--REDEF
K_RWPARM_CON.FLDID
      8137**DCL      8138--REDEF
K_RWPARM_CON.FPT$
      8018**DCL      8025--REDEF
K_RWPARM_CON.KEYTYPE
      8144**DCL      8145--REDEF
K_RWPARM_CON.MSG$
      7854**DCL      7860--REDEF
K_RWPARM_CON.MSGID
      7966**DCL      7971--REDEF
K_RWPARM_CON.MSGIDXT
      7979**DCL      7983--REDEF
K_RWPARM_CON.ORG
      8115**DCL      8116--REDEF
K_RWPARM_CON.THDRSZ
      8059**DCL      8063--REDEF
K_RWPARM_CON.VDOFLGS
      8117**DCL      8128--REDEF
L1
     13046**LABEL   13040--GOTO
L4
     13178**LABEL   13104--GOTO
MARKER
     12970**DCL     13061<<ASSIGN  13066<<ASSIGN  13067>>ASSIGN  13085<<ASSIGN  13139<<ASSIGN  13254>>ASSIGN
NK$LDCT
     11832**DCL         8--PROC    13068--IF      13091<>CALL    13098--IF      13108<>CALL    13120<>CALL
     13130<>CALL    13154<>CALL    13174--IF      13210<>CALL    13216--IF      13256<>CALL
NK$LDCT.DDT$
     11834**DCL     11834--REDEF
NK$LDCT.IOQ$
     11833**DCL     11834--REDEF
NK$LDCT.IP$
PL6.E3A0      #002=KIA$UCIN File=KIA$APPLC.:E05TSI                               WED 07/30/97 00:32 Page:248
     11854**DCL     13187>>IF      13194<<ASSIGN
NK$LDCT.IPFEI#
     11855**DCL     13033>>ASSIGN  13195<<ASSIGN
NK$LDCT.LDCTX
     11835**DCL     11835--REDEF
NK$LDCT.LKFLG.ABORTED
     11847**DCL     11848--REDEF
NK$LDCT.LKFLG.MRKPND
     11847**DCL     13059>>IF      13062<<ASSIGN  13070<<ASSIGN
NK$LDCT.LKFLG.NOWAIT
     11853**DCL     13089>>IF
NK$LDCT.LKFLG.WTMRK
     11848**DCL     13178>>IF      13180<<ASSIGN
NK$LDCT.LOCK
     11860**DCL     13053<>CALL    13075<>CALL    13081<>CALL    13093<>CALL    13125<>CALL    13133<>CALL
     13143<>CALL    13148<>CALL    13172<>CALL    13182<>CALL    13190<>CALL    13197<>CALL    13259<>CALL
NK$LDCT.MARKER
     11834**DCL     13061>>ASSIGN  13067<<ASSIGN
NK$LDCT.RLCID.LDCTX
     11857**DCL     11857--REDEF
NK$LDCT.STA$
     11853**DCL     11854--REDEF
NK$LDCT.SYMB$
     11832**DCL     11832--REDEF   11832--REDEF   11833--REDEF
NK$LDCT.TH.MAXNMBBYT
     11859**DCL     13127>>IF      13165>>IF
NK$LDCT.TH.MAXNMBRCR
     11858**DCL     13127>>IF      13165>>IF
NK$LDCT.USER
     11842**DCL     13068>>IF      13068>>IF      13073<>CALL    13097>>ASSIGN  13103<>CALL    13116<>CALL
     13156<>CALL    13162<>CALL    13167<>CALL    13174>>IF      13174>>IF      13177<>CALL    13215>>ASSIGN
     13224<>CALL    13230<>CALL
OPARM
     12621**DCL     13117<<ASSIGN  13120<>CALL    13129<<ASSIGN  13130<>CALL    13253<<ASSIGN  13256<>CALL
OPARM.BLKREC
     12647**DCL     12672--REDEF
PL6.E3A0      #002=KIA$UCIN File=KIA$APPLC.:E05TSI                               WED 07/30/97 00:32 Page:249
OPARM.BLKREC.BLKU#
     12648**DCL     12650--REDEF
OPARM.BLKREC.RECU#
     12660**DCL     12662--REDEF
OPARM.DVE.DVBYTE.VFC
     12687**DCL     12688--REDEF
OPARM.DVE.EOMCHAR
     12695**DCL     12699--REDEF
OPARM.ERR
     12759**DCL     12764--REDEF
OPARM.FC
     12723**DCL     12724--REDEF
OPARM.FLDID
     12905**DCL     12906--REDEF
OPARM.FPT$
     12786**DCL     12793--REDEF
OPARM.KEYTYPE
     12912**DCL     12913--REDEF
OPARM.MARKER
     12672**DCL     13254<<ASSIGN
OPARM.MRKTYP
     12897**DCL     13255<<ASSIGN
OPARM.MSG$
     12622**DCL     12628--REDEF   13118<<ASSIGN
OPARM.MSGID
     12734**DCL     12739--REDEF
OPARM.MSGIDXT
     12747**DCL     12751--REDEF
OPARM.MSGSZ
     12629**DCL     13119<<ASSIGN
OPARM.ORG
     12883**DCL     12884--REDEF
OPARM.THDRSZ
     12827**DCL     12831--REDEF
OPARM.VDOFLGS
     12885**DCL     12896--REDEF
PL6.E3A0      #002=KIA$UCIN File=KIA$APPLC.:E05TSI                               WED 07/30/97 00:32 Page:250
P$
     12963**DCL     13097<<ASSIGN  13098>>IF      13098>>IF      13098>>IF      13098>>IF      13215<<ASSIGN
     13216>>IF      13216>>IF      13216>>IF      13216>>IF
SEND_MARKER
     13252**PROC    13063--CALL    13071--CALL    13086--CALL    13140--CALL
SSC$TSTATE
     12971**DCL-ENT 13116--CALL
SSR$RUE
     12974**DCL-ENT 13073--CALL    13103--CALL    13156--CALL    13167--CALL    13177--CALL    13224--CALL
SSV$EVENT
     12972**DCL-ENT 13162--CALL    13230--CALL
TSTATE
     12967**DCL     13116<>CALL    13118--ASSIGN  13119--ASSIGN
UBNBSD
     12961**DCL     13199<<ASSIGN
VDO
     12949**DCL     12958--REDEF   13034<<ASSIGN
VDO.BRKCNT
     12956**DCL     13042>>ASSIGN
VDO.FNC
     12953**DCL     13036>>DOCASE  13089>>IF
VDO.STR
     12953**DCL     13152>>IF      13152>>IF      13209>>IF
VDO.TYP
     12956**DCL     13039>>IF
VDO1.RCRBYTSIZ
     12960**DCL     13161>>ASSIGN  13161>>ASSIGN  13229>>ASSIGN  13229>>ASSIGN

PL6.E3A0      #003=KIA$DSCTS File=KIA$APPLC.:E05TSI                              WED 07/30/97 00:33 Page:251
     1389        1        /*T***********************************************************/
     1390        2        /*T*                                                         */
     1391        3        /*T* Copyright (c) Bull HN Information Systems Inc., 1997    */
     1392        4        /*T*                                                         */
     1393        5        /*T***********************************************************/
     1394        6
     1395        7
     1396        8        KIA$DSCTS: PROC (NK$LDCT,K$RWPARM) ALTRET;
     1397        9
     1398       10        /*F*
     1399       11             NAME: KIA$DSCTS
     1400       12             PURPOSE:
     1401       13                  To report disconnect events for TS users.
     1402       14             DESCRIPTION:
     1403       15                  On receipt of an disconnect from the front end, KIA$DSCTS will
     1404       16                  set the LDCT to show a disconnect was received and report a
     1405       17                  disconnect event if it has not already been reported.
     1406       18        */
     1407       19
     1408       20        %INCLUDE B$USER;
     1409      236        %INCLUDE B_ERRORS_C;
     1410     1363        %INCLUDE B_STRINGS_C;
     1411     1492        %INCLUDE CP_6;
     1412     7051        %INCLUDE CP_6_SUBS;
     1413     7591        %INCLUDE SS_SCHED_C;
     1414     7824        %INCLUDE HF_LOCK_C;
     1415     7838        %INCLUDE NK$LDCT;
     1416     7940        %INCLUDE KI_DATA_R;
     1417     7966        %INCLUDE K_DATA_R;
     1418     8677        %INCLUDE NK_SUBS;
     1419     8702        %INCLUDE NK_VFC_C;
     1420     8776
     1421     8777        %NK$LDCT (STCLASS="");
     1422     8823        %K$RWPARM (NAME=K$RWPARM);
     1423     9139
     1424     9140    1   DCL TOLD BIT(36) ALIGNED;
     1425     9141        %VLP_ERRCODE (FPTN=ERR_DISC,FCG=KI,MID=A,MON='1'B,ERR#=%E$LDSC,SEV=7,STCLASS=
PL6.E3A0      #003=KIA$DSCTS File=KIA$APPLC.:E05TSI                              WED 07/30/97 00:33 Page:252
              9141            CONSTANT);
     1426     9186    1   DCL SSR$RUE ENTRY(4);
     1427     9187    1   DCL KIA$COMP ENTRY(2);
     1428     9188
     1429     9189                %LOCK (G#=NK$LDCT.LOCK);
     1430     9192    2        DO WHILE (NK$LDCT.LKFLG.NOWAIT);   /* Kill any no wait reads */
     1431     9193    2             K$RWPARM.TYC = %TYC_DISC;
     1432     9194    2             K$RWPARM.MSG_ERRCODE = ERR_DISC;
     1433     9195    2             CALL KIA$COMP(NK$LDCT,K$RWPARM);
     1434     9196    2           END;
     1435     9197    1        TOLD=LDCT.DFLG.OLDSC;
     1436     9198    1        LDCT.DFLG.OLDSC='1'B;
     1437     9199             %UNLOCK (G#=NK$LDCT.LOCK);
     1438     9202    1        IF TOLD='0'B AND NK$LDCT.DEVNM = '*TSTERM*'
     1439     9203    2        THEN DO;
     1440     9204    2             CALL SSR$RUE (%SS_DISC,LDCT.USER);
     1441     9205    2           END;
     1442     9206    1        RETURN;
     1443     9207
     1444     9208    1   END KIA$DSCTS;
     1445     9209
     1446     9210
     1447     9211        %EOD;

PL6.E3A0      #003=KIA$DSCTS File=KIA$APPLC.:E05TSI                              WED 07/30/97 00:33 Page:253
--  Include file information  --

   NK_VFC_C.:E05TOU  is referenced.
   NK_SUBS.:E05TOU  is referenced.
   K$RWPARM.:E05TOU  is referenced.
   K_DATA_R.:E05TOU  cannot be made into a system file and is referenced.
   KI_DATA_R.:E05TOU  cannot be made into a system file and is referenced.
   NK$LDCT.:E05TOU  is referenced.
   HF_LOCK_C.:E05TOU  cannot be made into a system file and is referenced.
   SS_SCHED_C.:E05TOU  is referenced.
   CP_6_SUBS.:E05TOU  is referenced.
   CP_6_C.:E05TOU  is referenced.
   CP_6.:E05TOU  cannot be made into a system file and is referenced.
   B_STRINGS_C.:E05TOU  is referenced.
   B_ERRORS_C.:E05TOU  is referenced.
   B$USER.:E05TOU  cannot be made into a system file and is referenced.
      No diagnostics issued in procedure KIA$DSCTS.

   Procedure KIA$DSCTS requires 54 words for executable code.
   Procedure KIA$DSCTS requires 8 words of local(AUTO) storage.

PL6.E3A0      #003=KIA$DSCTS File=KIA$APPLC.:E05TSI                              WED 07/30/97 00:33 Page:254

 Object Unit name= KIA$DSCTS                                  File name= KIA$APPLC.:E05TOU
 UTS= JUL 30 '97 00:33:56.36 WED                              Compiler= PL-6/E31         Sev=      00
 SharedLib= :SHARED_SYSTEM                                    Alt SharedLib=


    ****  Control sections  ****

 Sect   Type Bound  Init  Size OctSiz  Section name(segment info)
    0   DCB   even  none     0      0  M$UC
    1  RoData even  UTS      4      4  KIA$DSCTS
    2   Proc  even  none    54     66  KIA$DSCTS
    3  RoData even  none     3      3  KIA$DSCTS

    ****  Entry defs  ****

                              Check   Calling
                             calling  sequence
  Sect OctLoc Primary Altret sequence   type   Parms  Name
     2      0   yes    yes     yes      Std        2  KIA$DSCTS

  ****  Entry refs  ****

         Check        Calling
        calling       sequence
Altret sequence SRef   type   Args  Name
         yes           Std       1 HFC$LOCK
         yes           Std       2 KIA$COMP
         yes           Std       1 HFC$UNLOCK
         yes           Std       4 SSR$RUE
                       nStd      0 X66_AUTO_2
                       Std       0 B_CONSPOOL_D
                       nStd      0 X66_ARET
PL6.E3A0      #003=KIA$DSCTS File=KIA$APPLC.:E05TSI                              WED 07/30/97 00:33 Page:255

  ****  Data refs  ****

  Flags:  r = read only, s = secondary
Flgs Name                             Flgs Name                             Flgs Name
     M$UC                                  KI_FEI$$                              B_VECTNIL

  ****  Segment refs  ****

  Flags:  r = read only, s = secondary
Flgs Name                             Flgs Name                             Flgs Name
     ISSID
PL6.E3A0      #003=KIA$DSCTS File=KIA$APPLC.:E05TSI                              WED 07/30/97 00:33 Page:256


     1389        1        /*T***********************************************************/
     1390        2        /*T*                                                         */
     1391        3        /*T* Copyright (c) Bull HN Information Systems Inc., 1997    */
     1392        4        /*T*                                                         */
     1393        5        /*T***********************************************************/
     1394        6
     1395        7
     1396        8        KIA$DSCTS: PROC (NK$LDCT,K$RWPARM) ALTRET;

      8  2 000000   000000 700200 xent  KIA$DSCTS    TSX0  ! X66_AUTO_2
         2 000001   000010 000002                    ZERO    8,2

     1397        9
     1398       10        /*F*
     1399       11             NAME: KIA$DSCTS
     1400       12             PURPOSE:
     1401       13                  To report disconnect events for TS users.
     1402       14             DESCRIPTION:
     1403       15                  On receipt of an disconnect from the front end, KIA$DSCTS will
     1404       16                  set the LDCT to show a disconnect was received and report a
     1405       17                  disconnect event if it has not already been reported.
     1406       18        */
     1407       19
     1408       20        %INCLUDE B$USER;
     1409      236        %INCLUDE B_ERRORS_C;
     1410     1363        %INCLUDE B_STRINGS_C;
     1411     1492        %INCLUDE CP_6;
     1412     7051        %INCLUDE CP_6_SUBS;
     1413     7591        %INCLUDE SS_SCHED_C;
     1414     7824        %INCLUDE HF_LOCK_C;
     1415     7838        %INCLUDE NK$LDCT;
     1416     7940        %INCLUDE KI_DATA_R;
     1417     7966        %INCLUDE K_DATA_R;
     1418     8677        %INCLUDE NK_SUBS;
     1419     8702        %INCLUDE NK_VFC_C;
     1420     8776
PL6.E3A0      #003=KIA$DSCTS File=KIA$APPLC.:E05TSI                              WED 07/30/97 00:33 Page:257
     1421     8777        %NK$LDCT (STCLASS="");
     1422     8823        %K$RWPARM (NAME=K$RWPARM);
     1423     9139
     1424     9140    1   DCL TOLD BIT(36) ALIGNED;
     1425     9141        %VLP_ERRCODE (FPTN=ERR_DISC,FCG=KI,MID=A,MON='1'B,ERR#=%E$LDSC,SEV=7,STCLASS=
              9141            CONSTANT);
     1426     9186    1   DCL SSR$RUE ENTRY(4);
     1427     9187    1   DCL KIA$COMP ENTRY(2);
     1428     9188
     1429     9189                %LOCK (G#=NK$LDCT.LOCK);

   9190  2 000002   200003 236100                    LDQ     @NK$LDCT,,AUTO
         2 000003   000020 036003                    ADLQ    16,DU
         2 000004   200006 756100                    STQ     TOLD+1,,AUTO
         2 000005   200006 630500                    EPPR0   TOLD+1,,AUTO
         2 000006   000017 631400 xsym               EPPR1   B_VECTNIL+15
         2 000007   000000 701000 xent               TSX1    HFC$LOCK
         2 000010   000000 011000                    NOP     0

     1430     9192    2        DO WHILE (NK$LDCT.LKFLG.NOWAIT);   /* Kill any no wait reads */

   9192  2 000011   200003 470500                    LDP0    @NK$LDCT,,AUTO
         2 000012   000011 236100                    LDQ     9,,PR0
         2 000013   000001 316003                    CANQ    1,DU
         2 000014   000032 600000 2                  TZE     s:9197

     1431     9193    2             K$RWPARM.TYC = %TYC_DISC;

   9193  2 000015   000001 236000 1                  LDQ     ERR_DISC+1
         2 000016   200004 470500                    LDP0    @K$RWPARM,,AUTO
         2 000017   000006 756100                    STQ     6,,PR0

     1432     9194    2             K$RWPARM.MSG_ERRCODE = ERR_DISC;

   9194  2 000020   000000 236000 1                  LDQ     ERR_DISC
         2 000021   000037 756100                    STQ     31,,PR0

PL6.E3A0      #003=KIA$DSCTS File=KIA$APPLC.:E05TSI                              WED 07/30/97 00:33 Page:258
     1433     9195    2             CALL KIA$COMP(NK$LDCT,K$RWPARM);

   9195  2 000022   200003 630500                    EPPR0   @NK$LDCT,,AUTO
         2 000023   000020 631400 xsym               EPPR1   B_VECTNIL+16
         2 000024   000000 701000 xent               TSX1    KIA$COMP
         2 000025   000000 011000                    NOP     0

     1434     9196    2           END;

   9196  2 000026   200003 470500                    LDP0    @NK$LDCT,,AUTO
         2 000027   000011 236100                    LDQ     9,,PR0
         2 000030   000001 316003                    CANQ    1,DU
         2 000031   000015 601000 2                  TNZ     s:9193

     1435     9197    1        TOLD=LDCT.DFLG.OLDSC;

   9197  2 000032   000006 236100                    LDQ     6,,PR0
         2 000033   000027 736000                    QLS     23
         2 000034   400000 376003                    ANQ     -131072,DU
         2 000035   200005 756100                    STQ     TOLD,,AUTO

     1436     9198    1        LDCT.DFLG.OLDSC='1'B;

   9198  2 000036   010000 236007                    LDQ     4096,DL
         2 000037   000006 256100                    ORSQ    6,,PR0

     1437     9199             %UNLOCK (G#=NK$LDCT.LOCK);

   9200  2 000040   200003 236100                    LDQ     @NK$LDCT,,AUTO
         2 000041   000020 036003                    ADLQ    16,DU
         2 000042   200006 756100                    STQ     TOLD+1,,AUTO
         2 000043   200006 630500                    EPPR0   TOLD+1,,AUTO
         2 000044   000017 631400 xsym               EPPR1   B_VECTNIL+15
         2 000045   000000 701000 xent               TSX1    HFC$UNLOCK
         2 000046   000000 011000                    NOP     0

     1438     9202    1        IF TOLD='0'B AND NK$LDCT.DEVNM = '*TSTERM*'
PL6.E3A0      #003=KIA$DSCTS File=KIA$APPLC.:E05TSI                              WED 07/30/97 00:33 Page:259

   9202  2 000047   200005 235100                    LDA     TOLD,,AUTO
         2 000050   000065 601000 2                  TNZ     s:9206
         2 000051   200003 470500                    LDP0    @NK$LDCT,,AUTO
         2 000052   000002 237100                    LDAQ    2,,PR0
         2 000053   000002 117000 1                  CMPAQ   ERR_DISC+2
         2 000054   000065 601000 2                  TNZ     s:9206

     1439     9203    2        THEN DO;

     1440     9204    2             CALL SSR$RUE (%SS_DISC,LDCT.USER);

   9204  2 000055   200003 236100                    LDQ     @NK$LDCT,,AUTO
         2 000056   000001 036000 3                  ADLQ    1
         2 000057   000002 235000 3                  LDA     2
         2 000060   200006 757100                    STAQ    TOLD+1,,AUTO
         2 000061   200006 630500                    EPPR0   TOLD+1,,AUTO
         2 000062   000020 631400 xsym               EPPR1   B_VECTNIL+16
         2 000063   000000 701000 xent               TSX1    SSR$RUE
         2 000064   000000 011000                    NOP     0

     1441     9205    2           END;

     1442     9206    1        RETURN;

   9206  2 000065   000000 702200 xent               TSX2  ! X66_ARET

ERR_DISC
 Sect OctLoc
   1     000   131101 400147                                                    YA.g

(unnamed)
 Sect OctLoc
   1     001   000040 000000   052124 123124   105122 115052                    . ..*TSTERM*

(unnamed)
 Sect OctLoc
PL6.E3A0      #003=KIA$DSCTS File=KIA$APPLC.:E05TSI                              WED 07/30/97 00:33 Page:260
   3     000   000000 000024   000007 200000   000000 006000                    ............
     1443     9207
     1444     9208    1   END KIA$DSCTS;
     1445     9209
     1446     9210
     1447     9211        %EOD;

PL6.E3A0      #003=KIA$DSCTS File=KIA$APPLC.:E05TSI                              WED 07/30/97 00:33 Page:261
--  Include file information  --

   NK_VFC_C.:E05TOU  is referenced.
   NK_SUBS.:E05TOU  is referenced.
   K$RWPARM.:E05TOU  is referenced.
   K_DATA_R.:E05TOU  cannot be made into a system file and is referenced.
   KI_DATA_R.:E05TOU  cannot be made into a system file and is referenced.
   NK$LDCT.:E05TOU  is referenced.
   HF_LOCK_C.:E05TOU  cannot be made into a system file and is referenced.
   SS_SCHED_C.:E05TOU  is referenced.
   CP_6_SUBS.:E05TOU  is referenced.
   CP_6_C.:E05TOU  is referenced.
   CP_6.:E05TOU  cannot be made into a system file and is referenced.
   B_STRINGS_C.:E05TOU  is referenced.
   B_ERRORS_C.:E05TOU  is referenced.
   B$USER.:E05TOU  cannot be made into a system file and is referenced.
      No diagnostics issued in procedure KIA$DSCTS.
PL6.E3A0      #003=KIA$DSCTS File=KIA$APPLC.:E05TSI                              WED 07/30/97 00:33 Page:262

 **** Variables and constants ****

  ****  Section 001 RoData KIA$DSCTS

  ****  Scalars and arrays  ****
OctLoc.c.b A Datatyp(siz) R M Lvl/name                 OctLoc.c.b A Datatyp(siz) R M Lvl/name

     0-0-0/w STRC        r     1 ERR_DISC

  ****  Auto variables  ****

  ****  Scalars and arrays  ****
OctLoc.c.b A Datatyp(siz) R M Lvl/name                 OctLoc.c.b A Datatyp(siz) R M Lvl/name

     4-0-0/w PTR         r     1 @K$RWPARM                  3-0-0/w PTR         r     1 @NK$LDCT
    *0-0-0/d STRC(1404)  r     1 K$RWPARM                  *0-0-0/d STRC(864)   r     1 NK$LDCT
     5-0-0/w BIT         r     1 TOLD

  ****  SYMREF variables  ****

  ****  Scalars and arrays  ****
OctLoc.c.b A Datatyp(siz) R M Lvl/name                 OctLoc.c.b A Datatyp(siz) R M Lvl/name

     0-0-0/w PTR         r     1 KI_FEI$$


   Procedure KIA$DSCTS requires 54 words for executable code.
   Procedure KIA$DSCTS requires 8 words of local(AUTO) storage.
PL6.E3A0      #003=KIA$DSCTS File=KIA$APPLC.:E05TSI                              WED 07/30/97 00:33 Page:263
          *** CROSS REFERENCE LISTING ***
**     DENOTES     IDENTIFIER DEFINITION
<<                 IDENTIFIER'S VALUE SET
>>                 IDENTIFIER'S VALUE USED
<>                 IDENTIFIER SET AND/OR USED
--                 IDENTIFIER REFERENCED
PL6.E3A0      #003=KIA$DSCTS File=KIA$APPLC.:E05TSI                              WED 07/30/97 00:33 Page:264
          MINI XREF LISTING

B$DO.ECCINFO
       171**DCL       172--REDEF
B$U.MISC
       150**DCL       151--REDEF
B$USER.MISC
       226**DCL       227--REDEF
ERR_DISC
      9153**DCL      9194>>ASSIGN
HFC$LOCK
      7837**DCL-ENT  9190--CALL
HFC$UNLOCK
      7837**DCL-ENT  9200--CALL
K$RWPARM
      8844**DCL         8--PROC     9195<>CALL
K$RWPARM.BLKREC
      8870**DCL      8895--REDEF
K$RWPARM.BLKREC.BLKU#
      8871**DCL      8873--REDEF
K$RWPARM.BLKREC.RECU#
      8883**DCL      8885--REDEF
K$RWPARM.DVE.DVBYTE.VFC
      8910**DCL      8911--REDEF
K$RWPARM.DVE.EOMCHAR
      8918**DCL      8922--REDEF
K$RWPARM.ERR
      8982**DCL      8987--REDEF
K$RWPARM.FC
      8946**DCL      8947--REDEF
K$RWPARM.FLDID
      9128**DCL      9129--REDEF
K$RWPARM.FPT$
      9009**DCL      9016--REDEF
PL6.E3A0      #003=KIA$DSCTS File=KIA$APPLC.:E05TSI                              WED 07/30/97 00:33 Page:265
K$RWPARM.KEYTYPE
      9135**DCL      9136--REDEF
K$RWPARM.MSG$
      8845**DCL      8851--REDEF
K$RWPARM.MSGID
      8957**DCL      8962--REDEF
K$RWPARM.MSGIDXT
      8970**DCL      8974--REDEF
K$RWPARM.MSG_ERRCODE
      9105**DCL      9194<<ASSIGN
K$RWPARM.ORG
      9106**DCL      9107--REDEF
K$RWPARM.THDRSZ
      9050**DCL      9054--REDEF
K$RWPARM.TYC
      8866**DCL      9193<<ASSIGN
K$RWPARM.VDOFLGS
      9108**DCL      9119--REDEF
KIA$COMP
      9187**DCL-ENT  9195--CALL
KI_FEI$$
      7951**DCL      7952--IMP-PTR
K_RWPARM_CON.BLKREC
      8407**DCL      8432--REDEF
K_RWPARM_CON.BLKREC.BLKU#
      8408**DCL      8410--REDEF
K_RWPARM_CON.BLKREC.RECU#
      8420**DCL      8422--REDEF
K_RWPARM_CON.DVE.DVBYTE.VFC
      8447**DCL      8448--REDEF
K_RWPARM_CON.DVE.EOMCHAR
      8455**DCL      8459--REDEF
K_RWPARM_CON.ERR
      8519**DCL      8524--REDEF
K_RWPARM_CON.FC
      8483**DCL      8484--REDEF
PL6.E3A0      #003=KIA$DSCTS File=KIA$APPLC.:E05TSI                              WED 07/30/97 00:33 Page:266
K_RWPARM_CON.FLDID
      8665**DCL      8666--REDEF
K_RWPARM_CON.FPT$
      8546**DCL      8553--REDEF
K_RWPARM_CON.KEYTYPE
      8672**DCL      8673--REDEF
K_RWPARM_CON.MSG$
      8382**DCL      8388--REDEF
K_RWPARM_CON.MSGID
      8494**DCL      8499--REDEF
K_RWPARM_CON.MSGIDXT
      8507**DCL      8511--REDEF
K_RWPARM_CON.ORG
      8643**DCL      8644--REDEF
K_RWPARM_CON.THDRSZ
      8587**DCL      8591--REDEF
K_RWPARM_CON.VDOFLGS
      8645**DCL      8656--REDEF
NK$LDCT
      8790**DCL         8--PROC     9195<>CALL
NK$LDCT.DDT$
      8792**DCL      8792--REDEF
NK$LDCT.DEVNM
      8792**DCL      9202>>IF
NK$LDCT.DFLG.OLDSC
      8795**DCL      9197>>ASSIGN   9198<<ASSIGN
NK$LDCT.IOQ$
      8791**DCL      8792--REDEF
NK$LDCT.LDCTX
      8793**DCL      8793--REDEF
NK$LDCT.LKFLG.ABORTED
      8805**DCL      8806--REDEF
NK$LDCT.LKFLG.NOWAIT
      8811**DCL      9192>>DOWHILE
NK$LDCT.LOCK
      8818**DCL      9190<>CALL     9200<>CALL
PL6.E3A0      #003=KIA$DSCTS File=KIA$APPLC.:E05TSI                              WED 07/30/97 00:33 Page:267
NK$LDCT.RLCID.LDCTX
      8815**DCL      8815--REDEF
NK$LDCT.STA$
      8811**DCL      8812--REDEF
NK$LDCT.SYMB$
      8790**DCL      8790--REDEF    8790--REDEF    8791--REDEF
NK$LDCT.USER
      8800**DCL      9204<>CALL
SSR$RUE
      9186**DCL-ENT  9204--CALL
TOLD
      9140**DCL      9197<<ASSIGN   9202>>IF

PL6.E3A0      #004=KIA$ISCAN File=KIA$APPLC.:E05TSI                              WED 07/30/97 00:34 Page:268
     1448        1        /*T***********************************************************/
     1449        2        /*T*                                                         */
     1450        3        /*T* Copyright (c) Bull HN Information Systems Inc., 1997    */
     1451        4        /*T*                                                         */
     1452        5        /*T***********************************************************/
     1453        6        /*X* DTI=2,DCI=4,THI=2,CSI=2,ECI=2,STI=2,IND=2,ENI=2 */
     1454        7
     1455        8
     1456        9        KIA$ISCAN: PROC (NK$LDCT,K$RWPARM) ALTRET;
     1457       10
     1458       11        /*F*
     1459       12             NAME: KIA$ISCAN
     1460       13             PURPOSE:
     1461       14                  KIA$ISCAN does the initial scanning for all messages from the
     1462       15                  front end.
     1463       16             DESCRIPTION:
     1464       17                  Messages received from the front end are initially scanned
     1465       18                  here to determine what function needs to be performed.
     1466       19                  KIA$ISCAN performs all functions that are common to all front
     1467       20                  end connected devices. If the messages needs to be handles
     1468       21                  further the resource code in the LDCT determines what routine
     1469       22                  to be called for further processing.
     1470       23        */
     1471       24
     1472       25        %PLIST;
     1473       26        %INCLUDE B$USER;
     1474      242        %INCLUDE KV$VDO;
     1475     1257        %INCLUDE HF_LOCK_C;
     1476     1271        %INCLUDE NK$LDCT;
     1477     1373        %INCLUDE NK_LDCT_R;
     1478     1382        %INCLUDE KI_DATA_R;
     1479     1408        %INCLUDE KC_SUBS_C;
     1480     1424        %INCLUDE NK_SUBS;
     1481     1449        %INCLUDE SS_SCHED_C;
     1482     1682        %INCLUDE KL_AFCN_C;
     1483     1783        %INCLUDE KL_SUBS_C;
     1484     1837        %INCLUDE K_DATA_R;
PL6.E3A0      #004=KIA$ISCAN File=KIA$APPLC.:E05TSI                              WED 07/30/97 00:34 Page:269
     1485     2548        %INCLUDE K_SUBS_C;
     1486     2581        %INCLUDE KI_ERRORS_C;
     1487     2666        %INCLUDE UM_CP6;
     1488     3518        %INCLUDE KL_MACRO_C;
     1489     6870
     1490     6871        %NK$LDCT (STCLASS="");
     1491     6917        %K$RWPARM (NAME=K$RWPARM);
     1492     7233        %K$RWPARM (NAME=OPARM);
     1493     7549        %KL_FEPST(STCLASS="");
     1494     7584        %KV_VDO_ALL_E;
     1495     7663        %KV$VDO (STCLASS="BASED(K$RWPARM.UHDR$)");
     1496     7690        %KV$VDO_PRM (STCLASS="BASED(K$RWPARM.UHDR$)");
     1497     7731        %KV$VDO_RQSDAT (STCLASS="BASED(K$RWPARM.UHDR$)",NAME=VDO);
     1498     7779        %KV$VDO_RQSDAT (STCLASS=AUTO);
     1499     7827        %KV$VDO_DSC (STCLASS="BASED(K$RWPARM.UHDR$)");
     1500     7869
     1501     7870    1   DCL KIA_NODAT BIT(36) SYMREF ALIGNED;
     1502     7871        %VLP_ERRCODE (FPTN=ERR_TERM,FCG=KI,MID=A,MON='1'B,ERR#=%E$TERM,SEV=7,STCLASS=
              7871            CONSTANT);
     1503     7916
     1504     7917    1   DCL MSIZC SBIN WORD;
     1505     7918    1   DCL 1 MZC REDEF MSIZC,
     1506     7919    1         2 TOP UBIN(28) UNAL,
     1507     7920    1         2 BOT UBIN(8) UNAL;
     1508     7921    1   DCL MSIZW UBIN(36);
     1509     7922    1   DCL FPA$ODIN ENTRY(2) ALTRET;
     1510     7923    1   DCL FPA$ODDN ENTRY(1) ALTRET;
     1511     7924    1   DCL FRF$DISC ENTRY(1) ALTRET;
     1512     7925    1   DCL FRF$IN ENTRY(2) ALTRET;
     1513     7926    1   DCL KIA$DSC ENTRY(3) ALTRET;
     1514     7927    1   DCL KIA$FCNO ENTRY(3) ALTRET;
     1515     7928    1   DCL KIA$UCIN ENTRY(2) ALTRET;
     1516     7929    1   DCL KIA$FPRGIN ENTRY(2) ALTRET;
     1517     7930    1   DCL KCF$FEIN ENTRY(2) ALTRET;
     1518     7931    1   DCL KCF$QNF ENTRY(1);
     1519     7932    1   DCL SSR$RUE ENTRY(4);
     1520     7933    1   DCL KQP$EVNT ENTRY(2) ALTRET;
PL6.E3A0      #004=KIA$ISCAN File=KIA$APPLC.:E05TSI                              WED 07/30/97 00:34 Page:270
     1521     7934    1   DCL KCF$NOCG ENTRY(2) ALTRET;
     1522     7935    1   DCL MMS$VREL ENTRY(2) ALTRET;
     1523     7936    1   DCL KIA$ACUP ENTRY(2) ALTRET;
     1524     7937    1   DCL KIA$MSG ENTRY(1) ALTRET;
     1525     7938    1   DCL NKL$RELDCTP ENTRY(1) ALTRET;
     1526     7939    1   DCL SC_BADRCD ENTRY CONV(2,0);
     1527     7940    1   DCL KCD$DSCTRM ENTRY(2);
     1528     7941    1   DCL KCF$RLNCG ENTRY(1);
     1529     7942    1   DCL KIA$DSCTS ENTRY(2) ALTRET;
     1530     7943    1   DCL KIS$SEND ENTRY(1) ALTRET;
     1531     7944    1   DCL NKL$RELDCT ENTRY(1) ALTRET;
     1532     7945
     1533     7946    1   DCL KUB$WRITE ENTRY(3) ALTRET;
     1534     7947    1   DCL SC_BDRCDI ENTRY CONV(2,0);
     1535     7948    1   DCL B$USRT$ PTR SYMREF;
     1536     7949
     1537     7950
     1538     7951    1   DCL 1 SPREAD BASED UNAL ,
     1539     7952    1         2 * BIT(1) UNAL,
     1540     7953    1         2 HI8 UBIN(8) UNAL ,
     1541     7954    1         2 * BIT(1) UNAL ,
     1542     7955    1         2 LO8 UBIN(8) UNAL ;
     1543     7956    1   DCL TP$ PTR;
     1544     7957        %EJECT;
PL6.E3A0      #004=KIA$ISCAN File=KIA$APPLC.:E05TSI                              WED 07/30/97 00:34 Page:271
     1545     7958    1           IF NK$LDCT.LKFLG.NOWAIT
     1546     7959    1             THEN K$RWPARM.KEYTYPE = NK$LDCT.NOWAIT.KEYTYP;
     1547     7960    1           CALL KIA$MSG (K$RWPARM)
     1548     7961    2             WHENALTRETURN DO;
     1549     7962    2               KL_FEPST.FEP = K$RWPARM.FEX;
     1550     7963    2               KL_FEPST.FCN = IGA_CRASHFEP_BF; /*request GJA-166-3 dump from fep*/
     1551     7964    3               CALL KUB$WRITE (KL_FEPST,LENGTHC(KL_FEPST),'HLPADMIN') WHENALTRETURN DO;
     1552     7965    3                   CALL SC_BDRCDI;
     1553     7966    3                   END;
     1554     7967    2               K$RWPARM.ERR = %K$WAIT_READ;
     1555     7968    2               ALTRETURN;
     1556     7969        /*N*
     1557     7970                  CALL KIA$TERM(NK$LDCT) ALTRET(GETOUT);
     1558     7971         */
     1559     7972    2               END;
     1560     7973    2           DO CASE (KV$VDO.FNC);
     1561     7974
     1562     7975        %EJECT;
PL6.E3A0      #004=KIA$ISCAN File=KIA$APPLC.:E05TSI                              WED 07/30/97 00:34 Page:272
     1563     7976    2             CASE(%KV_VDO_FNC_RQSMRK);
     1564     7977    2               CALL KIA$FCNO (NK$LDCT,%KV_VDO_FNC_MRK,K$RWPARM) ALTRET (GETOUT);
     1565     7978
     1566     7979        %EJECT;
PL6.E3A0      #004=KIA$ISCAN File=KIA$APPLC.:E05TSI                              WED 07/30/97 00:34 Page:273
     1567     7980    2             CASE(%KV_VDO_FNC_RQSDAT);
     1568     7981    2               KV$VDO_RQSDAT = VDO ;
     1569     7982
     1570     7983                    %LOCK(G=NK$LDCT.LOCK);
     1571     7986
     1572     7987        /* IF EOF_NONE BIT SET SEND ERROR NODAT */
     1573     7988    2               IF KV$VDO_RQSDAT.EOFNO_DAT AND NOT NK$LDCT.LKFLG.OBLK
     1574     7989    3                 THEN DO;
     1575     7990    3                   K$RWPARM.MSG_ERRCODE = KIA_NODAT;
     1576     7991    4                   CALL KIA$FCNO (NK$LDCT,%KV_VDO_FNC_DAT,K$RWPARM) WHENALTRETURN DO;
     1577     7992                            %UNLOCK (G=NK$LDCT.LOCK);
     1578     7995    4                       GOTO GETOUT;
     1579     7996    4                       END;
     1580     7997    3                   END;
     1581     7998    3                 ELSE DO;
     1582     7999    3                   IF KV$VDO_RQSDAT.STR ~= LDCT.TH.STR
     1583     8000    3                     THEN
     1584     8001    3                       LDCT.TH = '0'B;
     1585     8002    3                   NK$LDCT.TH.STR = KV$VDO_RQSDAT.STR;
     1586     8003
     1587     8004                       /* If we are blocked and this is an increment throw it away    */
     1588     8005    3                   TP$ = ADDR(KV$VDO_RQSDAT.MAXNMBBYT);
     1589     8006    3                   IF KV$VDO_RQSDAT.INCMAXNMBBYT THEN
     1590     8007    3                       IF LDCT.LKFLG.OBLK
     1591     8008    4                         THEN DO;
     1592     8009                                %UNLOCK (G=LDCT.LOCK);
     1593     8012    4                           RETURN;
     1594     8013    4                           END;
     1595     8014        /* Check to see if we are incrementing throttling */
     1596     8015    3                         ELSE
     1597     8016    3                           LDCT.TH.MAXNMBBYT = LDCT.TH.MAXNMBBYT + TP$->SPREAD.HI8*256
              8016                                    + TP$->SPREAD.LO8;
     1598     8017    3                     ELSE
     1599     8018    3                       LDCT.TH.MAXNMBBYT = TP$->SPREAD.HI8*256 + TP$->SPREAD.LO8;
     1600     8019        /* Check to see if we are incrementing throttling */
     1601     8020    3                   TP$ = ADDR(KV$VDO_RQSDAT.MAXNMBRCR);
     1602     8021    3                   IF KV$VDO_RQSDAT.INCMAXNMBRCR
PL6.E3A0      #004=KIA$ISCAN File=KIA$APPLC.:E05TSI                              WED 07/30/97 00:34 Page:274
     1603     8022    3                     THEN
     1604     8023    3                       LDCT.TH.MAXNMBRCR = LDCT.TH.MAXNMBRCR + TP$->SPREAD.HI8*256 +
              8023                                TP$->SPREAD.LO8;
     1605     8024    3                     ELSE
     1606     8025    3                       LDCT.TH.MAXNMBRCR = TP$->SPREAD.HI8*256 + TP$->SPREAD.LO8;
     1607     8026    3                   TP$ = ADDR(KV$VDO_RQSDAT.MAXRCRBYTSIZ);
     1608     8027    3                   LDCT.TH.MAXRCRBYTSIZ = TP$->SPREAD.HI8*256 + TP$->SPREAD.LO8;
     1609     8028    3                   IF LDCT.LKFLG.OBLK      /* User is blocked for output         */
     1610     8029    3                     THEN
     1611     8030    3                       IF LDCT.TH.MAXNMBBYT ~= 0 AND LDCT.TH.MAXNMBRCR ~= 0
     1612     8031    4                         THEN DO;
     1613     8032    4                           LDCT.LKFLG.OBLK = '0'B;
     1614     8033                                %UNLOCK (G=NK$LDCT.LOCK);
     1615     8036    4                           GOTO CALLOUT;
     1616     8037    4                           END;
     1617     8038    3                         ELSE
     1618     8039    3                           GOTO L1 ;
     1619     8040    3                   IF LDCT.TH.MAXNMBBYT = 0 OR LDCT.TH.MAXNMBRCR = 0
     1620     8041    4                     THEN DO;
     1621     8042    4   L1:
     1622     8043                            %UNLOCK(G=NK$LDCT.LOCK);
     1623     8046    4                       GOTO CALLOUT;
     1624     8047    4                       END;
     1625     8048    3                   END;
     1626     8049                    %UNLOCK (G=NK$LDCT.LOCK);
     1627     8052
     1628     8053        %EJECT;
PL6.E3A0      #004=KIA$ISCAN File=KIA$APPLC.:E05TSI                              WED 07/30/97 00:34 Page:275
     1629     8054    2             CASE (%KV_VDO_FNC_DSC_RQS);
     1630     8055    2               IF NK$LDCT.ACCTNG THEN
     1631     8056    2                   CALL KIA$ACUP (NK$LDCT,K$RWPARM) ALTRET (GETOUT);
     1632     8057    2               IF NOT NK$LDCT.DFLG.SYMBIONT
     1633     8058    2                 THEN
     1634     8059    2                   NK$LDCT.ERR = K$RWPARM.MSG_ERRCODE;
     1635     8060    2               GOTO CALLOUT;
     1636     8061
     1637     8062        %EJECT;
PL6.E3A0      #004=KIA$ISCAN File=KIA$APPLC.:E05TSI                              WED 07/30/97 00:34 Page:276
     1638     8063        /*        CASE (%KV_VDO_FNC_DAT,%KV_VDO_FNC_PRM_RSP);
     1639     8064                    GOTO CALLOUT; */            /* CALLOUT IS CASE (ELSE)             */
     1640     8065
     1641     8066        %EJECT;
PL6.E3A0      #004=KIA$ISCAN File=KIA$APPLC.:E05TSI                              WED 07/30/97 00:34 Page:277
     1642     8067    2             CASE(ELSE);
     1643     8068        /* The message must be handled further. Call the appropiate routine
     1644     8069        determined by the resource code.
     1645     8070         */
     1646     8071    2   CALLOUT:    IF NK$LDCT.DFLG.RLSE='0'B
     1647     8072    3                 THEN DO;
     1648     8073    4                   DO CASE (NK$LDCT.RESCOD);
     1649     8074    4                     CASE(NK_TSTRM);
     1650     8075    4                       CALL KIA$UCIN (NK$LDCT,K$RWPARM) ALTRET (ARET);
     1651     8076    4                     CASE(NK_CGTRM);
     1652     8077    4                       CALL KCF$FEIN (NK$LDCT,K$RWPARM) ALTRET (ARET);
     1653     8078    4                     CASE(NK_NOCG,NK_TRMPTH);
     1654     8079    4                       CALL KCF$NOCG (NK$LDCT,K$RWPARM) ALTRET (ARET);
     1655     8080    4                     CASE (NK_TSFPRG,NK_CGFPRG);
     1656     8081    4                       CALL KIA$FPRGIN (NK$LDCT,K$RWPARM) ALTRET (ARET);
     1657     8082    4                     CASE (NK_RES);
     1658     8083    4                       CALL FRF$IN(NK$LDCT,K$RWPARM) ALTRET (ARET);
     1659     8084    4                     CASE (NK_OPCTL);
     1660     8085    4                       CALL FPA$ODIN (NK$LDCT,K$RWPARM) ALTRET (ARET);
     1661     8086    4                     CASE(ELSE);
     1662     8087    4                       CALL SC_BDRCDI;
     1663     8088        /*S*  SCREECH_CODE:  KIN-S$BADRCD
     1664     8089              TYPE:          Screech
     1665     8090              MESSAGE:       Bad resource code in remote LDCT (at message input)
     1666     8091              REMARKS:       This screech occurs when the LDCT for a remote
     1667     8092                             device has an impossible RESCOD for remote devices.
     1668     8093                             Either we have dual LDCT allocation or the LDCT has
     1669     8094                             been clobbered.  This code is also reported by
     1670     8095                             KIQ$FEINIT (KIS-S$BADRCD) when this condition is
     1671     8096                             discovered on an FEP crash.                             */
     1672     8097    4                     END;
     1673     8098    3                   END;
     1674     8099    2             END;
     1675     8100    1           RETURN;
     1676     8101        %EJECT;
PL6.E3A0      #004=KIA$ISCAN File=KIA$APPLC.:E05TSI                              WED 07/30/97 00:34 Page:278
     1677     8102        /* GETOUT will set the error telling the lower layers that the message
     1678     8103           can not be handled right now. KIS$SEND will call back at a later
     1679     8104           time with the same message.
     1680     8105         */
     1681     8106    1   GETOUT: ;
     1682     8107    1           K$RWPARM.ERR = %K$DEFER_IO;
     1683     8108    1   ARET:   ;
     1684     8109    1           ALTRETURN;
     1685     8110
     1686     8111
     1687     8112
     1688     8113
     1689     8114    1   KIA$TERM: ENTRY (NK$LDCT) ALTRET;
     1690     8115
     1691     8116
     1692     8117    1           IF NOT NK$LDCT.DFLG.SYMBIONT
     1693     8118    1             THEN
     1694     8119    1               NK$LDCT.ERR = ERR_TERM;
     1695     8120             /*E* ERROR: KIA-%E$TERM-7
     1696     8121                  MESSAGE: Your connection %thru %DC %has been terminated.
     1697     8122                  MESSAGE1: The session connection has been terminated.
     1698     8123                   */
     1699     8124    1           CALL KIA$ACUP(NK$LDCT)
     1700     8125    2             WHENALTRETURN DO;
     1701     8126    2               ALTRETURN;
     1702     8127    2               END;
     1703     8128    1           OPARM = K_RWPARM_CON;
     1704     8129    1           IF NOT NK$LDCT.DFLG.FEDN
     1705     8130    1             THEN
     1706     8131    1               CALL KIA$DSC (NK$LDCT,%KV_VDO_FNC_DSC_RSP,OPARM)
     1707     8132    2                 WHENALTRETURN DO;
     1708     8133    2                   IF OPARM.ERR = %K$QFULL
     1709     8134    2                     THEN
     1710     8135    2                       ALTRETURN;
     1711     8136    2                   END;
     1712     8137    1           IF B$USRT$->B$USER.FLG(NK$LDCT.USER) & %U_SCIO
     1713     8138    1             AND B$USRT$->B$USER.MISC$(NK$LDCT.USER) = ADDR(NK$LDCT)
PL6.E3A0      #004=KIA$ISCAN File=KIA$APPLC.:E05TSI                              WED 07/30/97 00:34 Page:279
     1714     8139    1             THEN
     1715     8140    1               CALL SSR$RUE (%SS_FC,NK$LDCT.USER);
     1716     8141    2           DO INHIBIT;
     1717     8142    2             NK$LDCT.DFLG.FEDN='1'B;
     1718     8143    2             NK$LDCT.DFLG.PRLS='1'B;
     1719     8144    2             END;
     1720     8145    1           IF NK$LDCT.DFLG.RLSE
     1721     8146    1             THEN
     1722     8147    1               CALL NKL$RELDCT (ADDR(NK$LDCT));
     1723     8148    1             ELSE IF NOT NK$LDCT.QFL.RLS
     1724     8149    2                 THEN DO CASE (NK$LDCT.RESCOD);
     1725     8150    2                   CASE(NK_TSTRM,NK_TSFPRG);
     1726     8151    2                     CALL KIA$DSCTS (NK$LDCT,OPARM);
     1727     8152    2                   CASE(NK_CGTRM,NK_CGFPRG);
     1728     8153    2                     CALL KCD$DSCTRM (NK$LDCT,OPARM);
     1729     8154    2                   CASE(NK_NOCG,NK_TRMPTH);
     1730     8155    2                     CALL KCF$RLNCG (NK$LDCT);
     1731     8156    2                   CASE (NK_LOGON);
     1732     8157    2                     CALL NKL$RELDCT (ADDR(NK$LDCT));
     1733     8158    2                   CASE (NK_RES);
     1734     8159    2                     CALL FRF$DISC (NK$LDCT);
     1735     8160    2                   CASE (NK_OPCTL);
     1736     8161    2                     CALL FPA$ODDN (NK$LDCT);
     1737     8162
     1738     8163
     1739     8164    2                   CASE (ELSE);
     1740     8165    2                     CALL SC_BADRCD;
     1741     8166        /*S*  SCREECH_CODE:  KIS-S$BADRCD
     1742     8167              TYPE:          Screech
     1743     8168              MESSAGE:       Bad resource code in remote LDCT (at FEP down)
     1744     8169                    */                /*
     1745     8170              REMARKS:       When an FEP goes down the entire list of LDCTs is
     1746     8171                             run to find and disconnect those of the lost FEP.
     1747     8172                             This presents an opportunity to check their validity.
     1748     8173                             This screech occurs when a remote LDCT has an
     1749     8174                             impossible resource code (RESCOD).  The same code
     1750     8175                             is also reported by KIN$ISCAN (KIN-S$BADRCD) when
PL6.E3A0      #004=KIA$ISCAN File=KIA$APPLC.:E05TSI                              WED 07/30/97 00:34 Page:280
     1751     8176                             it finds this condition in a recieving LDCT.            */
     1752     8177    2                   END;
     1753     8178
     1754     8179    1           IF NK$LDCT.LKFLG.QFL
     1755     8180    1             THEN
     1756     8181    1               CALL KCF$QNF(NK$LDCT);
     1757     8182
     1758     8183
     1759     8184    1           RETURN;
     1760     8185    1   END KIA$ISCAN;
     1761     8186
     1762     8187
     1763     8188        %EOD;

PL6.E3A0      #004=KIA$ISCAN File=KIA$APPLC.:E05TSI                              WED 07/30/97 00:34 Page:281
--  Include file information  --

   KL_MACRO_C.:E05TOU  is referenced.
   UM_CP6.:E05TOU  is referenced.
   KI_ERRORS_C.:E05TOU  is referenced.
   K_SUBS_C.:E05TOU  is referenced.
   K$RWPARM.:E05TOU  is referenced.
   K_DATA_R.:E05TOU  cannot be made into a system file and is referenced.
   KL_SUBS_C.:E05TOU  is referenced.
   KL_AFCN_C.:E05TOU  is referenced.
   SS_SCHED_C.:E05TOU  is referenced.
   NK_SUBS.:E05TOU  is referenced.
   KC_SUBS_C.:E05TOU  is referenced.
   KI_DATA_R.:E05TOU  cannot be made into a system file and is referenced.
   NK_LDCT_R.:E05TOU  cannot be made into a system file and is referenced.
   NK$LDCT.:E05TOU  is referenced.
   HF_LOCK_C.:E05TOU  cannot be made into a system file and is referenced.
   KV$VDO.:E05TOU  is referenced.
   B$USER.:E05TOU  cannot be made into a system file and is referenced.
      No diagnostics issued in procedure KIA$ISCAN.

   Procedure KIA$ISCAN requires 498 words for executable code.
   Procedure KIA$ISCAN requires 60 words of local(AUTO) storage.

PL6.E3A0      #004=KIA$ISCAN File=KIA$APPLC.:E05TSI                              WED 07/30/97 00:34 Page:282

 Object Unit name= KIA$ISCAN                                  File name= KIA$APPLC.:E05TOU
 UTS= JUL 30 '97 00:34:43.60 WED                              Compiler= PL-6/E31         Sev=      00
 SharedLib= :SHARED_SYSTEM                                    Alt SharedLib=


    ****  Control sections  ****

 Sect   Type Bound  Init  Size OctSiz  Section name(segment info)
    0  RoData even  UTS      4      4  KIA$ISCAN
    1   Proc  even  none   498    762  KIA$ISCAN
    2  RoData even  none    13     15  KIA$ISCAN

    ****  Entry defs  ****

                              Check   Calling
                             calling  sequence
  Sect OctLoc Primary Altret sequence   type   Parms  Name
     1      0   yes    yes     yes      Std        2  KIA$ISCAN
     1    534          yes     yes      Std        1  KIA$TERM
PL6.E3A0      #004=KIA$ISCAN File=KIA$APPLC.:E05TSI                              WED 07/30/97 00:34 Page:283

  ****  Entry refs  ****

         Check        Calling
        calling       sequence
Altret sequence SRef   type   Args  Name
 yes     yes           Std       1 KIA$MSG
 yes     yes           Std       3 KUB$WRITE
         yes           Std       1 HFC$LOCK
         yes           Std       1 HFC$UNLOCK
 yes     yes           Std       2 KCF$NOCG
         yes           Std       1 KCF$RLNCG
 yes     yes           Std       2 KIA$ACUP
 yes     yes           Std       2 FPA$ODIN
 yes     yes           Std       1 FRF$DISC
         yes           Std       1 KCF$QNF
 yes     yes           Std       2 FRF$IN
         yes           Std       4 SSR$RUE
 yes     yes           Std       1 FPA$ODDN
 yes     yes           Std       3 KIA$FCNO
 yes     yes           Std       2 KCF$FEIN
         yes           Std       2 KCD$DSCTRM
 yes     yes           Std       3 KIA$DSC
 yes     yes           Std       2 KIA$FPRGIN
 yes     yes           Std       1 NKL$RELDCT
 yes     yes           Std       2 KIA$DSCTS
 yes     yes           Std       2 KIA$UCIN
                       nStd      0 X66_AUTO_2
                       Std       0 B_CONSPOOL_D
                       nStd      0 X66_AALT
                       nStd      0 X66_ARET
PL6.E3A0      #004=KIA$ISCAN File=KIA$APPLC.:E05TSI                              WED 07/30/97 00:34 Page:284

  ****  Data refs  ****

  Flags:  r = read only, s = secondary
Flgs Name                             Flgs Name                             Flgs Name
     SC_BADRCD                             SC_BDRCDI                             N$DCT$$
     KI_FEI$$                         r    K_RWPARM_CON                          KIA_NODAT
     B$USRT$                               B_VECTNIL

  ****  Segment refs  ****

  Flags:  r = read only, s = secondary
Flgs Name                             Flgs Name                             Flgs Name
     ASLENTSID                             ISSID
PL6.E3A0      #004=KIA$ISCAN File=KIA$APPLC.:E05TSI                              WED 07/30/97 00:34 Page:285


     1448        1        /*T***********************************************************/
     1449        2        /*T*                                                         */
     1450        3        /*T* Copyright (c) Bull HN Information Systems Inc., 1997    */
     1451        4        /*T*                                                         */
     1452        5        /*T***********************************************************/
     1453        6        /*X* DTI=2,DCI=4,THI=2,CSI=2,ECI=2,STI=2,IND=2,ENI=2 */
     1454        7
     1455        8
     1456        9        KIA$ISCAN: PROC (NK$LDCT,K$RWPARM) ALTRET;

      9  1 000000   000000 700200 xent  KIA$ISCAN    TSX0  ! X66_AUTO_2
         1 000001   000074 000002                    ZERO    60,2

     1457       10
     1458       11        /*F*
     1459       12             NAME: KIA$ISCAN
     1460       13             PURPOSE:
     1461       14                  KIA$ISCAN does the initial scanning for all messages from the
     1462       15                  front end.
     1463       16             DESCRIPTION:
     1464       17                  Messages received from the front end are initially scanned
     1465       18                  here to determine what function needs to be performed.
     1466       19                  KIA$ISCAN performs all functions that are common to all front
     1467       20                  end connected devices. If the messages needs to be handles
     1468       21                  further the resource code in the LDCT determines what routine
     1469       22                  to be called for further processing.
     1470       23        */
     1471       24
     1472       25        %PLIST;
     1473       26        %INCLUDE B$USER;
     1474      242        %INCLUDE KV$VDO;
     1475     1257        %INCLUDE HF_LOCK_C;
     1476     1271        %INCLUDE NK$LDCT;
     1477     1373        %INCLUDE NK_LDCT_R;
     1478     1382        %INCLUDE KI_DATA_R;
     1479     1408        %INCLUDE KC_SUBS_C;
PL6.E3A0      #004=KIA$ISCAN File=KIA$APPLC.:E05TSI                              WED 07/30/97 00:34 Page:286
     1480     1424        %INCLUDE NK_SUBS;
     1481     1449        %INCLUDE SS_SCHED_C;
     1482     1682        %INCLUDE KL_AFCN_C;
     1483     1783        %INCLUDE KL_SUBS_C;
     1484     1837        %INCLUDE K_DATA_R;
     1485     2548        %INCLUDE K_SUBS_C;
     1486     2581        %INCLUDE KI_ERRORS_C;
     1487     2666        %INCLUDE UM_CP6;
     1488     3518        %INCLUDE KL_MACRO_C;
     1489     6870
     1490     6871        %NK$LDCT (STCLASS="");
     1491     6917        %K$RWPARM (NAME=K$RWPARM);
     1492     7233        %K$RWPARM (NAME=OPARM);
     1493     7549        %KL_FEPST(STCLASS="");
     1494     7584        %KV_VDO_ALL_E;
     1495     7663        %KV$VDO (STCLASS="BASED(K$RWPARM.UHDR$)");
     1496     7690        %KV$VDO_PRM (STCLASS="BASED(K$RWPARM.UHDR$)");
     1497     7731        %KV$VDO_RQSDAT (STCLASS="BASED(K$RWPARM.UHDR$)",NAME=VDO);
     1498     7779        %KV$VDO_RQSDAT (STCLASS=AUTO);
     1499     7827        %KV$VDO_DSC (STCLASS="BASED(K$RWPARM.UHDR$)");
     1500     7869
     1501     7870    1   DCL KIA_NODAT BIT(36) SYMREF ALIGNED;
     1502     7871        %VLP_ERRCODE (FPTN=ERR_TERM,FCG=KI,MID=A,MON='1'B,ERR#=%E$TERM,SEV=7,STCLASS=
              7871            CONSTANT);
     1503     7916
     1504     7917    1   DCL MSIZC SBIN WORD;
     1505     7918    1   DCL 1 MZC REDEF MSIZC,
     1506     7919    1         2 TOP UBIN(28) UNAL,
     1507     7920    1         2 BOT UBIN(8) UNAL;
     1508     7921    1   DCL MSIZW UBIN(36);
     1509     7922    1   DCL FPA$ODIN ENTRY(2) ALTRET;
     1510     7923    1   DCL FPA$ODDN ENTRY(1) ALTRET;
     1511     7924    1   DCL FRF$DISC ENTRY(1) ALTRET;
     1512     7925    1   DCL FRF$IN ENTRY(2) ALTRET;
     1513     7926    1   DCL KIA$DSC ENTRY(3) ALTRET;
     1514     7927    1   DCL KIA$FCNO ENTRY(3) ALTRET;
     1515     7928    1   DCL KIA$UCIN ENTRY(2) ALTRET;
PL6.E3A0      #004=KIA$ISCAN File=KIA$APPLC.:E05TSI                              WED 07/30/97 00:34 Page:287
     1516     7929    1   DCL KIA$FPRGIN ENTRY(2) ALTRET;
     1517     7930    1   DCL KCF$FEIN ENTRY(2) ALTRET;
     1518     7931    1   DCL KCF$QNF ENTRY(1);
     1519     7932    1   DCL SSR$RUE ENTRY(4);
     1520     7933    1   DCL KQP$EVNT ENTRY(2) ALTRET;
     1521     7934    1   DCL KCF$NOCG ENTRY(2) ALTRET;
     1522     7935    1   DCL MMS$VREL ENTRY(2) ALTRET;
     1523     7936    1   DCL KIA$ACUP ENTRY(2) ALTRET;
     1524     7937    1   DCL KIA$MSG ENTRY(1) ALTRET;
     1525     7938    1   DCL NKL$RELDCTP ENTRY(1) ALTRET;
     1526     7939    1   DCL SC_BADRCD ENTRY CONV(2,0);
     1527     7940    1   DCL KCD$DSCTRM ENTRY(2);
     1528     7941    1   DCL KCF$RLNCG ENTRY(1);
     1529     7942    1   DCL KIA$DSCTS ENTRY(2) ALTRET;
     1530     7943    1   DCL KIS$SEND ENTRY(1) ALTRET;
     1531     7944    1   DCL NKL$RELDCT ENTRY(1) ALTRET;
     1532     7945
     1533     7946    1   DCL KUB$WRITE ENTRY(3) ALTRET;
     1534     7947    1   DCL SC_BDRCDI ENTRY CONV(2,0);
     1535     7948    1   DCL B$USRT$ PTR SYMREF;
     1536     7949
     1537     7950
     1538     7951    1   DCL 1 SPREAD BASED UNAL ,
     1539     7952    1         2 * BIT(1) UNAL,
     1540     7953    1         2 HI8 UBIN(8) UNAL ,
     1541     7954    1         2 * BIT(1) UNAL ,
     1542     7955    1         2 LO8 UBIN(8) UNAL ;
     1543     7956    1   DCL TP$ PTR;
     1544     7957        %EJECT;
PL6.E3A0      #004=KIA$ISCAN File=KIA$APPLC.:E05TSI                              WED 07/30/97 00:34 Page:288
     1545     7958    1           IF NK$LDCT.LKFLG.NOWAIT

   7958  1 000002   200003 470500                    LDP0    @NK$LDCT,,AUTO
         1 000003   000011 236100                    LDQ     9,,PR0
         1 000004   000001 316003                    CANQ    1,DU
         1 000005   000013 600000 1                  TZE     s:7960

     1546     7959    1             THEN K$RWPARM.KEYTYPE = NK$LDCT.NOWAIT.KEYTYP;

   7959  1 000006   200004 471500                    LDP1    @K$RWPARM,,AUTO
         1 000007   000010 236100                    LDQ     8,,PR0
         1 000010   770000 376003                    ANQ     -4096,DU
         1 000011   000025 772000                    QRL     21
         1 000012   100046 552110                    STBQ    38,'10'O,PR1

     1547     7960    1           CALL KIA$MSG (K$RWPARM)

   7960  1 000013   200004 630500                    EPPR0   @K$RWPARM,,AUTO
         1 000014   000017 631400 xsym               EPPR1   B_VECTNIL+15
         1 000015   000000 701000 xent               TSX1    KIA$MSG
         1 000016   000020 702000 1                  TSX2    s:7962
         1 000017   000047 710000 1                  TRA     s:7973

     1548     7961    2             WHENALTRETURN DO;

     1549     7962    2               KL_FEPST.FEP = K$RWPARM.FEX;

   7962  1 000020   200004 470500                    LDP0    @K$RWPARM,,AUTO
         1 000021   000021 236100                    LDQ     17,,PR0
         1 000022   000022 736000                    QLS     18
         1 000023   200056 552120                    STBQ    KL_FEPST,'20'O,AUTO

     1550     7963    2               KL_FEPST.FCN = IGA_CRASHFEP_BF; /*request GJA-166-3 dump from fep*/

   7963  1 000024   120000 236003                    LDQ     40960,DU
         1 000025   200056 552140                    STBQ    KL_FEPST,'40'O,AUTO

PL6.E3A0      #004=KIA$ISCAN File=KIA$APPLC.:E05TSI                              WED 07/30/97 00:34 Page:289
     1551     7964    3              CALL KUB$WRITE (KL_FEPST,LENGTHC(KL_FEPST),'HLPADMIN') WHENALTRETURN DO;

   7964  1 000026   000001 236000 2                  LDQ     1
         1 000027   200072 756100                    STQ     TP$+3,,AUTO
         1 000030   000002 236000 2                  LDQ     2
         1 000031   200071 756100                    STQ     TP$+2,,AUTO
         1 000032   200056 631500                    EPPR1   KL_FEPST,,AUTO
         1 000033   200070 451500                    STP1    TP$+1,,AUTO
         1 000034   200070 630500                    EPPR0   TP$+1,,AUTO
         1 000035   000021 631400 xsym               EPPR1   B_VECTNIL+17
         1 000036   000000 701000 xent               TSX1    KUB$WRITE
         1 000037   000041 702000 1                  TSX2    s:7965
         1 000040   000043 710000 1                  TRA     s:7967

     1552     7965    3                   CALL SC_BDRCDI;

   7965  1 000041   000000 713400 xsym               CLIMB   SC_BDRCDI
         1 000042   000000 600000 xsid               climb   nvectors=         0

     1553     7966    3                   END;

     1554     7967    2               K$RWPARM.ERR = %K$WAIT_READ;

   7967  1 000043   000006 235007                    LDA     6,DL
         1 000044   200004 470500                    LDP0    @K$RWPARM,,AUTO
         1 000045   000013 755100                    STA     11,,PR0

     1555     7968    2               ALTRETURN;

   7968  1 000046   000000 702200 xent               TSX2  ! X66_AALT

     1556     7969        /*N*
     1557     7970                  CALL KIA$TERM(NK$LDCT) ALTRET(GETOUT);
     1558     7971         */
     1559     7972    2               END;
     1560     7973    2           DO CASE (KV$VDO.FNC);

PL6.E3A0      #004=KIA$ISCAN File=KIA$APPLC.:E05TSI                              WED 07/30/97 00:34 Page:290
   7973  1 000047   200004 470500                    LDP0    @K$RWPARM,,AUTO
         1 000050   000014 471500                    LDP1    12,,PR0
         1 000051   000100 101500                    MRL     fill='000'O
         1 000052   100000 000001                    ADSC9   0,,PR1                   cn=0,n=1
         1 000053   200070 000004                    ADSC9   TP$+1,,AUTO              cn=0,n=4
         1 000054   200070 236100                    LDQ     TP$+1,,AUTO
         1 000055   000012 136007                    SBLQ    10,DL
         1 000056   000027 116007                    CMPQ    23,DL
         1 000057   000061 602006 1                  TNC     s:7973+10,QL
         1 000060   000437 710000 1                  TRA     CALLOUT
         1 000061   000420 710000 1                  TRA     s:8055
         1 000062   000437 710000 1                  TRA     CALLOUT
         1 000063   000437 710000 1                  TRA     CALLOUT
         1 000064   000437 710000 1                  TRA     CALLOUT
         1 000065   000437 710000 1                  TRA     CALLOUT
         1 000066   000437 710000 1                  TRA     CALLOUT
         1 000067   000437 710000 1                  TRA     CALLOUT
         1 000070   000437 710000 1                  TRA     CALLOUT
         1 000071   000437 710000 1                  TRA     CALLOUT
         1 000072   000437 710000 1                  TRA     CALLOUT
         1 000073   000437 710000 1                  TRA     CALLOUT
         1 000074   000437 710000 1                  TRA     CALLOUT
         1 000075   000122 710000 1                  TRA     s:7981
         1 000076   000437 710000 1                  TRA     CALLOUT
         1 000077   000437 710000 1                  TRA     CALLOUT
         1 000100   000437 710000 1                  TRA     CALLOUT
         1 000101   000437 710000 1                  TRA     CALLOUT
         1 000102   000437 710000 1                  TRA     CALLOUT
         1 000103   000437 710000 1                  TRA     CALLOUT
         1 000104   000437 710000 1                  TRA     CALLOUT
         1 000105   000437 710000 1                  TRA     CALLOUT
         1 000106   000437 710000 1                  TRA     CALLOUT
         1 000107   000110 710000 1                  TRA     s:7977

     1561     7974
     1562     7975        %EJECT;
PL6.E3A0      #004=KIA$ISCAN File=KIA$APPLC.:E05TSI                              WED 07/30/97 00:34 Page:291
     1563     7976    2             CASE(%KV_VDO_FNC_RQSMRK);

     1564     7977    2               CALL KIA$FCNO (NK$LDCT,%KV_VDO_FNC_MRK,K$RWPARM) ALTRET (GETOUT);

   7977  1 000110   200004 236100                    LDQ     @K$RWPARM,,AUTO
         1 000111   200072 756100                    STQ     TP$+3,,AUTO
         1 000112   000004 236000 2                  LDQ     4
         1 000113   200003 235100                    LDA     @NK$LDCT,,AUTO
         1 000114   200070 757100                    STAQ    TP$+1,,AUTO
         1 000115   200070 630500                    EPPR0   TP$+1,,AUTO
         1 000116   000021 631400 xsym               EPPR1   B_VECTNIL+17
         1 000117   000000 701000 xent               TSX1    KIA$FCNO
         1 000120   000530 702000 1                  TSX2    GETOUT
         1 000121   000527 710000 1                  TRA     s:8100

     1565     7978
     1566     7979        %EJECT;
PL6.E3A0      #004=KIA$ISCAN File=KIA$APPLC.:E05TSI                              WED 07/30/97 00:34 Page:292
     1567     7980    2             CASE(%KV_VDO_FNC_RQSDAT);

     1568     7981    2               KV$VDO_RQSDAT = VDO ;

   7981  1 000122   000014 471500                    LDP1    12,,PR0
         1 000123   000100 100500                    MLR     fill='000'O
         1 000124   100000 000012                    ADSC9   0,,PR1                   cn=0,n=10
         1 000125   200062 000012                    ADSC9   KV$VDO_RQSDAT,,AUTO      cn=0,n=10

     1569     7982
     1570     7983                    %LOCK(G=NK$LDCT.LOCK);

   7984  1 000126   200003 236100                    LDQ     @NK$LDCT,,AUTO
         1 000127   000020 036003                    ADLQ    16,DU
         1 000130   200070 756100                    STQ     TP$+1,,AUTO
         1 000131   200070 630500                    EPPR0   TP$+1,,AUTO
         1 000132   000017 631400 xsym               EPPR1   B_VECTNIL+15
         1 000133   000000 701000 xent               TSX1    HFC$LOCK
         1 000134   000000 011000                    NOP     0

     1571     7986
     1572     7987        /* IF EOF_NONE BIT SET SEND ERROR NODAT */
     1573     7988    2               IF KV$VDO_RQSDAT.EOFNO_DAT AND NOT NK$LDCT.LKFLG.OBLK

   7988  1 000135   200064 236100                    LDQ     KV$VDO_RQSDAT+2,,AUTO
         1 000136   004000 316003                    CANQ    2048,DU
         1 000137   000172 600000 1                  TZE     s:7999
         1 000140   200003 470500                    LDP0    @NK$LDCT,,AUTO
         1 000141   000011 236100                    LDQ     9,,PR0
         1 000142   200000 316003                    CANQ    65536,DU
         1 000143   000172 601000 1                  TNZ     s:7999

     1574     7989    3                 THEN DO;

     1575     7990    3                   K$RWPARM.MSG_ERRCODE = KIA_NODAT;

   7990  1 000144   000000 236000 xsym               LDQ     KIA_NODAT
PL6.E3A0      #004=KIA$ISCAN File=KIA$APPLC.:E05TSI                              WED 07/30/97 00:34 Page:293
         1 000145   200004 471500                    LDP1    @K$RWPARM,,AUTO
         1 000146   100037 756100                    STQ     31,,PR1

     1576     7991    4                   CALL KIA$FCNO (NK$LDCT,%KV_VDO_FNC_DAT,K$RWPARM) WHENALTRETURN DO;

   7991  1 000147   200004 236100                    LDQ     @K$RWPARM,,AUTO
         1 000150   200072 756100                    STQ     TP$+3,,AUTO
         1 000151   000005 236000 2                  LDQ     5
         1 000152   200003 235100                    LDA     @NK$LDCT,,AUTO
         1 000153   200070 757100                    STAQ    TP$+1,,AUTO
         1 000154   200070 630500                    EPPR0   TP$+1,,AUTO
         1 000155   000021 631400 xsym               EPPR1   B_VECTNIL+17
         1 000156   000000 701000 xent               TSX1    KIA$FCNO
         1 000157   000161 702000 1                  TSX2    s:7993
         1 000160   000171 710000 1                  TRA     s:7997

     1577     7992                            %UNLOCK (G=NK$LDCT.LOCK);

   7993  1 000161   200003 236100                    LDQ     @NK$LDCT,,AUTO
         1 000162   000020 036003                    ADLQ    16,DU
         1 000163   200070 756100                    STQ     TP$+1,,AUTO
         1 000164   200070 630500                    EPPR0   TP$+1,,AUTO
         1 000165   000017 631400 xsym               EPPR1   B_VECTNIL+15
         1 000166   000000 701000 xent               TSX1    HFC$UNLOCK
         1 000167   000000 011000                    NOP     0

     1578     7995    4                       GOTO GETOUT;

   7995  1 000170   000530 710000 1                  TRA     GETOUT

     1579     7996    4                       END;
     1580     7997    3                   END;

   7997  1 000171   000410 710000 1                  TRA     s:8050

     1581     7998    3                 ELSE DO;

PL6.E3A0      #004=KIA$ISCAN File=KIA$APPLC.:E05TSI                              WED 07/30/97 00:34 Page:294
     1582     7999    3                   IF KV$VDO_RQSDAT.STR ~= LDCT.TH.STR

   7999  1 000172   200003 470500                    LDP0    @NK$LDCT,,AUTO
         1 000173   000016 236100                    LDQ     14,,PR0
         1 000174   000022 772000                    QRL     18
         1 000175   000777 376007                    ANQ     511,DL
         1 000176   200070 756100                    STQ     TP$+1,,AUTO
         1 000177   200062 236100                    LDQ     KV$VDO_RQSDAT,,AUTO
         1 000200   000022 772000                    QRL     18
         1 000201   000177 376007                    ANQ     127,DL
         1 000202   200070 116100                    CMPQ    TP$+1,,AUTO
         1 000203   000207 600000 1                  TZE     s:8002

     1583     8000    3                     THEN
     1584     8001    3                       LDCT.TH = '0'B;

   8001  1 000204   000100 100400                    MLR     fill='000'O
         1 000205   000002 000001 xsym               ADSC9   B_VECTNIL+2              cn=0,n=1
         1 000206   000016 200007                    ADSC9   14,,PR0                  cn=1,n=7

     1585     8002    3                   NK$LDCT.TH.STR = KV$VDO_RQSDAT.STR;

   8002  1 000207   200062 236100                    LDQ     KV$VDO_RQSDAT,,AUTO
         1 000210   000177 376003                    ANQ     127,DU
         1 000211   000016 552120                    STBQ    14,'20'O,PR0

     1586     8003
     1587     8004                       /* If we are blocked and this is an increment throw it away    */
     1588     8005    3                   TP$ = ADDR(KV$VDO_RQSDAT.MAXNMBBYT);

   8005  1 000212   200070 452500                    STP2    TP$+1,,AUTO
         1 000213   200070 236100                    LDQ     TP$+1,,AUTO
         1 000214   000006 036000 2                  ADLQ    6
         1 000215   200067 756100                    STQ     TP$,,AUTO

     1589     8006    3                   IF KV$VDO_RQSDAT.INCMAXNMBBYT THEN

PL6.E3A0      #004=KIA$ISCAN File=KIA$APPLC.:E05TSI                              WED 07/30/97 00:34 Page:295
   8006  1 000216   200064 236100                    LDQ     KV$VDO_RQSDAT+2,,AUTO
         1 000217   100000 316003                    CANQ    32768,DU
         1 000220   000256 600000 1                  TZE     s:8018

     1590     8007    3                       IF LDCT.LKFLG.OBLK

   8007  1 000221   000011 236100                    LDQ     9,,PR0
         1 000222   200000 316003                    CANQ    65536,DU
         1 000223   000234 600000 1                  TZE     s:8016

     1591     8008    4                         THEN DO;

     1592     8009                                %UNLOCK (G=LDCT.LOCK);

   8010  1 000224   200003 236100                    LDQ     @NK$LDCT,,AUTO
         1 000225   000020 036003                    ADLQ    16,DU
         1 000226   200070 756100                    STQ     TP$+1,,AUTO
         1 000227   200070 630500                    EPPR0   TP$+1,,AUTO
         1 000230   000017 631400 xsym               EPPR1   B_VECTNIL+15
         1 000231   000000 701000 xent               TSX1    HFC$UNLOCK
         1 000232   000000 011000                    NOP     0

     1593     8012    4                           RETURN;

   8012  1 000233   000000 702200 xent               TSX2  ! X66_ARET

     1594     8013    4                           END;
     1595     8014        /* Check to see if we are incrementing throttling */
     1596     8015    3                         ELSE
     1597     8016    3                           LDCT.TH.MAXNMBBYT = LDCT.TH.MAXNMBBYT + TP$->SPREAD.HI8*256
              8016                                    + TP$->SPREAD.LO8;

   8016  1 000234   000017 236100                    LDQ     15,,PR0
         1 000235   000022 736000                    QLS     18
         1 000236   000022 732000                    QRS     18
         1 000237   200070 756100                    STQ     TP$+1,,AUTO
         1 000240   200067 471500                    LDP1    TP$,,AUTO
PL6.E3A0      #004=KIA$ISCAN File=KIA$APPLC.:E05TSI                              WED 07/30/97 00:34 Page:296
         1 000241   003100 061500                    CSR     bolr='003'O
         1 000242   100000 010010                    BDSC    0,,PR1                   by=0,bit=1,n=8
         1 000243   200071 000044                    BDSC    TP$+2,,AUTO              by=0,bit=0,n=36
         1 000244   200071 236100                    LDQ     TP$+2,,AUTO
         1 000245   000010 736000                    QLS     8
         1 000246   200070 036100                    ADLQ    TP$+1,,AUTO
         1 000247   003100 061500                    CSR     bolr='003'O
         1 000250   100000 210010                    BDSC    0,,PR1                   by=1,bit=1,n=8
         1 000251   200072 000044                    BDSC    TP$+3,,AUTO              by=0,bit=0,n=36
         1 000252   200072 036100                    ADLQ    TP$+3,,AUTO
         1 000253   000000 620006                    EAX0    0,QL
         1 000254   000017 440100                    SXL0    15,,PR0
         1 000255   000272 710000 1                  TRA     s:8020

     1598     8017    3                     ELSE
     1599     8018    3                       LDCT.TH.MAXNMBBYT = TP$->SPREAD.HI8*256 + TP$->SPREAD.LO8;

   8018  1 000256   200067 471500                    LDP1    TP$,,AUTO
         1 000257   003100 061500                    CSR     bolr='003'O
         1 000260   100000 210010                    BDSC    0,,PR1                   by=1,bit=1,n=8
         1 000261   200070 000044                    BDSC    TP$+1,,AUTO              by=0,bit=0,n=36
         1 000262   003100 061500                    CSR     bolr='003'O
         1 000263   100000 010010                    BDSC    0,,PR1                   by=0,bit=1,n=8
         1 000264   200071 000044                    BDSC    TP$+2,,AUTO              by=0,bit=0,n=36
         1 000265   200071 236100                    LDQ     TP$+2,,AUTO
         1 000266   000010 736000                    QLS     8
         1 000267   200070 036100                    ADLQ    TP$+1,,AUTO
         1 000270   000000 620006                    EAX0    0,QL
         1 000271   000017 440100                    SXL0    15,,PR0

     1600     8019        /* Check to see if we are incrementing throttling */
     1601     8020    3                   TP$ = ADDR(KV$VDO_RQSDAT.MAXNMBRCR);

   8020  1 000272   200063 633500                    EPPR3   KV$VDO_RQSDAT+1,,AUTO
         1 000273   200067 453500                    STP3    TP$,,AUTO

     1602     8021    3                   IF KV$VDO_RQSDAT.INCMAXNMBRCR
PL6.E3A0      #004=KIA$ISCAN File=KIA$APPLC.:E05TSI                              WED 07/30/97 00:34 Page:297

   8021  1 000274   200064 236100                    LDQ     KV$VDO_RQSDAT+2,,AUTO
         1 000275   200000 316003                    CANQ    65536,DU
         1 000276   000320 600000 1                  TZE     s:8025

     1603     8022    3                     THEN
     1604     8023    3                       LDCT.TH.MAXNMBRCR = LDCT.TH.MAXNMBRCR + TP$->SPREAD.HI8*256 +
              8023                                TP$->SPREAD.LO8;

   8023  1 000277   000016 236100                    LDQ     14,,PR0
         1 000300   000022 736000                    QLS     18
         1 000301   000022 732000                    QRS     18
         1 000302   200070 756100                    STQ     TP$+1,,AUTO
         1 000303   003100 061500                    CSR     bolr='003'O
         1 000304   300000 010010                    BDSC    0,,PR3                   by=0,bit=1,n=8
         1 000305   200071 000044                    BDSC    TP$+2,,AUTO              by=0,bit=0,n=36
         1 000306   200071 236100                    LDQ     TP$+2,,AUTO
         1 000307   000010 736000                    QLS     8
         1 000310   200070 036100                    ADLQ    TP$+1,,AUTO
         1 000311   003100 061500                    CSR     bolr='003'O
         1 000312   300000 210010                    BDSC    0,,PR3                   by=1,bit=1,n=8
         1 000313   200072 000044                    BDSC    TP$+3,,AUTO              by=0,bit=0,n=36
         1 000314   200072 036100                    ADLQ    TP$+3,,AUTO
         1 000315   000000 620006                    EAX0    0,QL
         1 000316   000016 440100                    SXL0    14,,PR0
         1 000317   000333 710000 1                  TRA     s:8026

     1605     8024    3                     ELSE
     1606     8025    3                       LDCT.TH.MAXNMBRCR = TP$->SPREAD.HI8*256 + TP$->SPREAD.LO8;

   8025  1 000320   003100 061500                    CSR     bolr='003'O
         1 000321   300000 210010                    BDSC    0,,PR3                   by=1,bit=1,n=8
         1 000322   200070 000044                    BDSC    TP$+1,,AUTO              by=0,bit=0,n=36
         1 000323   003100 061500                    CSR     bolr='003'O
         1 000324   300000 010010                    BDSC    0,,PR3                   by=0,bit=1,n=8
         1 000325   200071 000044                    BDSC    TP$+2,,AUTO              by=0,bit=0,n=36
         1 000326   200071 236100                    LDQ     TP$+2,,AUTO
PL6.E3A0      #004=KIA$ISCAN File=KIA$APPLC.:E05TSI                              WED 07/30/97 00:34 Page:298
         1 000327   000010 736000                    QLS     8
         1 000330   200070 036100                    ADLQ    TP$+1,,AUTO
         1 000331   000000 620006                    EAX0    0,QL
         1 000332   000016 440100                    SXL0    14,,PR0

     1607     8026    3                   TP$ = ADDR(KV$VDO_RQSDAT.MAXRCRBYTSIZ);

   8026  1 000333   200070 452500                    STP2    TP$+1,,AUTO
         1 000334   200070 236100                    LDQ     TP$+1,,AUTO
         1 000335   000007 036000 2                  ADLQ    7
         1 000336   200067 756100                    STQ     TP$,,AUTO

     1608     8027    3                   LDCT.TH.MAXRCRBYTSIZ = TP$->SPREAD.HI8*256 + TP$->SPREAD.LO8;

   8027  1 000337   200067 471500                    LDP1    TP$,,AUTO
         1 000340   003100 061500                    CSR     bolr='003'O
         1 000341   100000 210010                    BDSC    0,,PR1                   by=1,bit=1,n=8
         1 000342   200070 000044                    BDSC    TP$+1,,AUTO              by=0,bit=0,n=36
         1 000343   003100 061500                    CSR     bolr='003'O
         1 000344   100000 010010                    BDSC    0,,PR1                   by=0,bit=1,n=8
         1 000345   200071 000044                    BDSC    TP$+2,,AUTO              by=0,bit=0,n=36
         1 000346   200071 236100                    LDQ     TP$+2,,AUTO
         1 000347   000010 736000                    QLS     8
         1 000350   200070 036100                    ADLQ    TP$+1,,AUTO
         1 000351   000000 620006                    EAX0    0,QL
         1 000352   000017 740100                    STX0    15,,PR0

     1609     8028    3                   IF LDCT.LKFLG.OBLK      /* User is blocked for output         */

   8028  1 000353   000011 236100                    LDQ     9,,PR0
         1 000354   200000 316003                    CANQ    65536,DU
         1 000355   000374 600000 1                  TZE     s:8040

     1610     8029    3                     THEN
     1611     8030    3                       IF LDCT.TH.MAXNMBBYT ~= 0 AND LDCT.TH.MAXNMBRCR ~= 0

   8030  1 000356   000017 721100                    LXL1    15,,PR0
PL6.E3A0      #004=KIA$ISCAN File=KIA$APPLC.:E05TSI                              WED 07/30/97 00:34 Page:299
         1 000357   000400 600000 1                  TZE     L1
         1 000360   000016 722100                    LXL2    14,,PR0
         1 000361   000400 600000 1                  TZE     L1

     1612     8031    4                         THEN DO;

     1613     8032    4                           LDCT.LKFLG.OBLK = '0'B;

   8032  1 000362   000010 236000 2                  LDQ     8
         1 000363   000011 356100                    ANSQ    9,,PR0

     1614     8033                                %UNLOCK (G=NK$LDCT.LOCK);

   8034  1 000364   200003 236100                    LDQ     @NK$LDCT,,AUTO
         1 000365   000020 036003                    ADLQ    16,DU
         1 000366   200070 756100                    STQ     TP$+1,,AUTO
         1 000367   200070 630500                    EPPR0   TP$+1,,AUTO
         1 000370   000017 631400 xsym               EPPR1   B_VECTNIL+15
         1 000371   000000 701000 xent               TSX1    HFC$UNLOCK
         1 000372   000000 011000                    NOP     0

     1615     8036    4                           GOTO CALLOUT;

   8036  1 000373   000437 710000 1                  TRA     CALLOUT

     1616     8037    4                           END;
     1617     8038    3                         ELSE
     1618     8039    3                           GOTO L1 ;
     1619     8040    3                   IF LDCT.TH.MAXNMBBYT = 0 OR LDCT.TH.MAXNMBRCR = 0

   8040  1 000374   000017 721100                    LXL1    15,,PR0
         1 000375   000400 600000 1                  TZE     L1
         1 000376   000016 722100                    LXL2    14,,PR0
         1 000377   000410 601000 1                  TNZ     s:8050

     1620     8041    4                     THEN DO;

PL6.E3A0      #004=KIA$ISCAN File=KIA$APPLC.:E05TSI                              WED 07/30/97 00:34 Page:300
     1621     8042    4   L1:
     1622     8043                            %UNLOCK(G=NK$LDCT.LOCK);

   8044  1 000400   200003 236100       L1           LDQ     @NK$LDCT,,AUTO
         1 000401   000020 036003                    ADLQ    16,DU
         1 000402   200070 756100                    STQ     TP$+1,,AUTO
         1 000403   200070 630500                    EPPR0   TP$+1,,AUTO
         1 000404   000017 631400 xsym               EPPR1   B_VECTNIL+15
         1 000405   000000 701000 xent               TSX1    HFC$UNLOCK
         1 000406   000000 011000                    NOP     0

     1623     8046    4                       GOTO CALLOUT;

   8046  1 000407   000437 710000 1                  TRA     CALLOUT

     1624     8047    4                       END;
     1625     8048    3                   END;
     1626     8049                    %UNLOCK (G=NK$LDCT.LOCK);

   8050  1 000410   200003 236100                    LDQ     @NK$LDCT,,AUTO
         1 000411   000020 036003                    ADLQ    16,DU
         1 000412   200070 756100                    STQ     TP$+1,,AUTO
         1 000413   200070 630500                    EPPR0   TP$+1,,AUTO
         1 000414   000017 631400 xsym               EPPR1   B_VECTNIL+15
         1 000415   000000 701000 xent               TSX1    HFC$UNLOCK
         1 000416   000000 011000                    NOP     0
         1 000417   000527 710000 1                  TRA     s:8100

     1627     8052
     1628     8053        %EJECT;
PL6.E3A0      #004=KIA$ISCAN File=KIA$APPLC.:E05TSI                              WED 07/30/97 00:34 Page:301
     1629     8054    2             CASE (%KV_VDO_FNC_DSC_RQS);

     1630     8055    2               IF NK$LDCT.ACCTNG THEN

   8055  1 000420   200003 471500                    LDP1    @NK$LDCT,,AUTO
         1 000421   100007 430100                    FSZN    7,,PR1
         1 000422   000427 605000 1                  TPL     s:8057

     1631     8056    2                   CALL KIA$ACUP (NK$LDCT,K$RWPARM) ALTRET (GETOUT);

   8056  1 000423   200003 630500                    EPPR0   @NK$LDCT,,AUTO
         1 000424   000020 631400 xsym               EPPR1   B_VECTNIL+16
         1 000425   000000 701000 xent               TSX1    KIA$ACUP
         1 000426   000530 702000 1                  TSX2    GETOUT

     1632     8057    2               IF NOT NK$LDCT.DFLG.SYMBIONT

   8057  1 000427   200003 470500                    LDP0    @NK$LDCT,,AUTO
         1 000430   000006 236100                    LDQ     6,,PR0
         1 000431   020000 316007                    CANQ    8192,DL
         1 000432   000436 601000 1                  TNZ     s:8060

     1633     8058    2                 THEN
     1634     8059    2                   NK$LDCT.ERR = K$RWPARM.MSG_ERRCODE;

   8059  1 000433   200004 471500                    LDP1    @K$RWPARM,,AUTO
         1 000434   100037 236100                    LDQ     31,,PR1
         1 000435   000000 756100                    STQ     0,,PR0

     1635     8060    2               GOTO CALLOUT;

   8060  1 000436   000437 710000 1                  TRA     CALLOUT

     1636     8061
     1637     8062        %EJECT;
PL6.E3A0      #004=KIA$ISCAN File=KIA$APPLC.:E05TSI                              WED 07/30/97 00:34 Page:302
     1638     8063        /*        CASE (%KV_VDO_FNC_DAT,%KV_VDO_FNC_PRM_RSP);
     1639     8064                    GOTO CALLOUT; */            /* CALLOUT IS CASE (ELSE)             */
     1640     8065
     1641     8066        %EJECT;
PL6.E3A0      #004=KIA$ISCAN File=KIA$APPLC.:E05TSI                              WED 07/30/97 00:34 Page:303
     1642     8067    2             CASE(ELSE);

     1643     8068        /* The message must be handled further. Call the appropiate routine
     1644     8069        determined by the resource code.
     1645     8070         */
     1646     8071    2   CALLOUT:    IF NK$LDCT.DFLG.RLSE='0'B

   8071  1 000437   200003 470500       CALLOUT      LDP0    @NK$LDCT,,AUTO
         1 000440   000006 236100                    LDQ     6,,PR0
         1 000441   000400 316007                    CANQ    256,DL
         1 000442   000527 601000 1                  TNZ     s:8100

     1647     8072    3                 THEN DO;

     1648     8073    4                   DO CASE (NK$LDCT.RESCOD);

   8073  1 000443   000006 720100                    LXL0    6,,PR0
         1 000444   000017 360003                    ANX0    15,DU
         1 000445   000017 100003                    CMPX0   15,DU
         1 000446   000450 602010 1                  TNC     s:8073+5,X0
         1 000447   000525 710000 1                  TRA     s:8087
         1 000450   000525 710000 1                  TRA     s:8087
         1 000451   000467 710000 1                  TRA     s:8075
         1 000452   000474 710000 1                  TRA     s:8077
         1 000453   000525 710000 1                  TRA     s:8087
         1 000454   000525 710000 1                  TRA     s:8087
         1 000455   000501 710000 1                  TRA     s:8079
         1 000456   000501 710000 1                  TRA     s:8079
         1 000457   000525 710000 1                  TRA     s:8087
         1 000460   000506 710000 1                  TRA     s:8081
         1 000461   000506 710000 1                  TRA     s:8081
         1 000462   000525 710000 1                  TRA     s:8087
         1 000463   000513 710000 1                  TRA     s:8083
         1 000464   000525 710000 1                  TRA     s:8087
         1 000465   000525 710000 1                  TRA     s:8087
         1 000466   000520 710000 1                  TRA     s:8085

PL6.E3A0      #004=KIA$ISCAN File=KIA$APPLC.:E05TSI                              WED 07/30/97 00:34 Page:304
     1649     8074    4                     CASE(NK_TSTRM);

     1650     8075    4                       CALL KIA$UCIN (NK$LDCT,K$RWPARM) ALTRET (ARET);

   8075  1 000467   200003 630500                    EPPR0   @NK$LDCT,,AUTO
         1 000470   000020 631400 xsym               EPPR1   B_VECTNIL+16
         1 000471   000000 701000 xent               TSX1    KIA$UCIN
         1 000472   000533 702000 1                  TSX2    ARET
         1 000473   000527 710000 1                  TRA     s:8100

     1651     8076    4                     CASE(NK_CGTRM);

     1652     8077    4                       CALL KCF$FEIN (NK$LDCT,K$RWPARM) ALTRET (ARET);

   8077  1 000474   200003 630500                    EPPR0   @NK$LDCT,,AUTO
         1 000475   000020 631400 xsym               EPPR1   B_VECTNIL+16
         1 000476   000000 701000 xent               TSX1    KCF$FEIN
         1 000477   000533 702000 1                  TSX2    ARET
         1 000500   000527 710000 1                  TRA     s:8100

     1653     8078    4                     CASE(NK_NOCG,NK_TRMPTH);

     1654     8079    4                       CALL KCF$NOCG (NK$LDCT,K$RWPARM) ALTRET (ARET);

   8079  1 000501   200003 630500                    EPPR0   @NK$LDCT,,AUTO
         1 000502   000020 631400 xsym               EPPR1   B_VECTNIL+16
         1 000503   000000 701000 xent               TSX1    KCF$NOCG
         1 000504   000533 702000 1                  TSX2    ARET
         1 000505   000527 710000 1                  TRA     s:8100

     1655     8080    4                     CASE (NK_TSFPRG,NK_CGFPRG);

     1656     8081    4                       CALL KIA$FPRGIN (NK$LDCT,K$RWPARM) ALTRET (ARET);

   8081  1 000506   200003 630500                    EPPR0   @NK$LDCT,,AUTO
         1 000507   000020 631400 xsym               EPPR1   B_VECTNIL+16
         1 000510   000000 701000 xent               TSX1    KIA$FPRGIN
PL6.E3A0      #004=KIA$ISCAN File=KIA$APPLC.:E05TSI                              WED 07/30/97 00:34 Page:305
         1 000511   000533 702000 1                  TSX2    ARET
         1 000512   000527 710000 1                  TRA     s:8100

     1657     8082    4                     CASE (NK_RES);

     1658     8083    4                       CALL FRF$IN(NK$LDCT,K$RWPARM) ALTRET (ARET);

   8083  1 000513   200003 630500                    EPPR0   @NK$LDCT,,AUTO
         1 000514   000020 631400 xsym               EPPR1   B_VECTNIL+16
         1 000515   000000 701000 xent               TSX1    FRF$IN
         1 000516   000533 702000 1                  TSX2    ARET
         1 000517   000527 710000 1                  TRA     s:8100

     1659     8084    4                     CASE (NK_OPCTL);

     1660     8085    4                       CALL FPA$ODIN (NK$LDCT,K$RWPARM) ALTRET (ARET);

   8085  1 000520   200003 630500                    EPPR0   @NK$LDCT,,AUTO
         1 000521   000020 631400 xsym               EPPR1   B_VECTNIL+16
         1 000522   000000 701000 xent               TSX1    FPA$ODIN
         1 000523   000533 702000 1                  TSX2    ARET
         1 000524   000527 710000 1                  TRA     s:8100

     1661     8086    4                     CASE(ELSE);

     1662     8087    4                       CALL SC_BDRCDI;

   8087  1 000525   000000 713400 xsym               CLIMB   SC_BDRCDI
         1 000526   000000 600000 xsid               climb   nvectors=         0

     1663     8088        /*S*  SCREECH_CODE:  KIN-S$BADRCD
     1664     8089              TYPE:          Screech
     1665     8090              MESSAGE:       Bad resource code in remote LDCT (at message input)
     1666     8091              REMARKS:       This screech occurs when the LDCT for a remote
     1667     8092                             device has an impossible RESCOD for remote devices.
     1668     8093                             Either we have dual LDCT allocation or the LDCT has
     1669     8094                             been clobbered.  This code is also reported by
PL6.E3A0      #004=KIA$ISCAN File=KIA$APPLC.:E05TSI                              WED 07/30/97 00:34 Page:306
     1670     8095                             KIQ$FEINIT (KIS-S$BADRCD) when this condition is
     1671     8096                             discovered on an FEP crash.                             */
     1672     8097    4                     END;

     1673     8098    3                   END;

     1674     8099    2             END;

     1675     8100    1           RETURN;

   8100  1 000527   000000 702200 xent               TSX2  ! X66_ARET

   8086  1 000530                       GETOUT       null
     1676     8101        %EJECT;
PL6.E3A0      #004=KIA$ISCAN File=KIA$APPLC.:E05TSI                              WED 07/30/97 00:34 Page:307
     1677     8102        /* GETOUT will set the error telling the lower layers that the message
     1678     8103           can not be handled right now. KIS$SEND will call back at a later
     1679     8104           time with the same message.
     1680     8105         */
     1681     8106    1   GETOUT: ;
     1682     8107    1           K$RWPARM.ERR = %K$DEFER_IO;

   8107  1 000530   000003 235007                    LDA     3,DL
         1 000531   200004 470500                    LDP0    @K$RWPARM,,AUTO
         1 000532   000013 755100                    STA     11,,PR0

   8107  1 000533                       ARET         null
     1683     8108    1   ARET:   ;
     1684     8109    1           ALTRETURN;

   8109  1 000533   000000 702200 xent               TSX2  ! X66_AALT

     1685     8110
     1686     8111
     1687     8112
     1688     8113
     1689     8114    1   KIA$TERM: ENTRY (NK$LDCT) ALTRET;

   8114  1 000534   000000 700200 xent  KIA$TERM     TSX0  ! X66_AUTO_2
         1 000535   000074 000002                    ZERO    60,2

     1690     8115
     1691     8116
     1692     8117    1           IF NOT NK$LDCT.DFLG.SYMBIONT

   8117  1 000536   200003 470500                    LDP0    @NK$LDCT,,AUTO
         1 000537   000006 236100                    LDQ     6,,PR0
         1 000540   020000 316007                    CANQ    8192,DL
         1 000541   000544 601000 1                  TNZ     s:8124

     1693     8118    1             THEN
     1694     8119    1               NK$LDCT.ERR = ERR_TERM;
PL6.E3A0      #004=KIA$ISCAN File=KIA$APPLC.:E05TSI                              WED 07/30/97 00:34 Page:308

   8119  1 000542   000000 236000 0                  LDQ     ERR_TERM
         1 000543   000000 756100                    STQ     0,,PR0

     1695     8120             /*E* ERROR: KIA-%E$TERM-7
     1696     8121                  MESSAGE: Your connection %thru %DC %has been terminated.
     1697     8122                  MESSAGE1: The session connection has been terminated.
     1698     8123                   */
     1699     8124    1           CALL KIA$ACUP(NK$LDCT)

   8124  1 000544   200003 630500                    EPPR0   @NK$LDCT,,AUTO
         1 000545   000017 631400 xsym               EPPR1   B_VECTNIL+15
         1 000546   000000 701000 xent               TSX1    KIA$ACUP
         1 000547   000551 702000 1                  TSX2    s:8126
         1 000550   000552 710000 1                  TRA     s:8128

     1700     8125    2             WHENALTRETURN DO;

     1701     8126    2               ALTRETURN;

   8126  1 000551   000000 702200 xent               TSX2  ! X66_AALT

     1702     8127    2               END;
     1703     8128    1           OPARM = K_RWPARM_CON;

   8128  1 000552   000100 100400                    MLR     fill='000'O
         1 000553   000000 000234 xsym               ADSC9   K_RWPARM_CON             cn=0,n=156
         1 000554   200006 000234                    ADSC9   OPARM,,AUTO              cn=0,n=156

     1704     8129    1           IF NOT NK$LDCT.DFLG.FEDN

   8129  1 000555   200003 470500                    LDP0    @NK$LDCT,,AUTO
         1 000556   000006 236100                    LDQ     6,,PR0
         1 000557   000020 316007                    CANQ    16,DL
         1 000560   000577 601000 1                  TNZ     s:8137

     1705     8130    1             THEN
PL6.E3A0      #004=KIA$ISCAN File=KIA$APPLC.:E05TSI                              WED 07/30/97 00:34 Page:309
     1706     8131    1               CALL KIA$DSC (NK$LDCT,%KV_VDO_FNC_DSC_RSP,OPARM)

   8131  1 000561   200006 631500                    EPPR1   OPARM,,AUTO
         1 000562   200072 451500                    STP1    TP$+3,,AUTO
         1 000563   000011 236000 2                  LDQ     9
         1 000564   200003 235100                    LDA     @NK$LDCT,,AUTO
         1 000565   200070 757100                    STAQ    TP$+1,,AUTO
         1 000566   200070 630500                    EPPR0   TP$+1,,AUTO
         1 000567   000021 631400 xsym               EPPR1   B_VECTNIL+17
         1 000570   000000 701000 xent               TSX1    KIA$DSC
         1 000571   000573 702000 1                  TSX2    s:8133
         1 000572   000577 710000 1                  TRA     s:8137

     1707     8132    2                 WHENALTRETURN DO;

     1708     8133    2                   IF OPARM.ERR = %K$QFULL

   8133  1 000573   200021 235100                    LDA     OPARM+11,,AUTO
         1 000574   000001 115007                    CMPA    1,DL
         1 000575   000577 601000 1                  TNZ     s:8137

     1709     8134    2                     THEN
     1710     8135    2                       ALTRETURN;

   8135  1 000576   000000 702200 xent               TSX2  ! X66_AALT

     1711     8136    2                   END;
     1712     8137    1           IF B$USRT$->B$USER.FLG(NK$LDCT.USER) & %U_SCIO

   8137  1 000577   200003 470500                    LDP0    @NK$LDCT,,AUTO
         1 000600   000007 236100                    LDQ     7,,PR0
         1 000601   000016 772000                    QRL     14
         1 000602   017760 376007                    ANQ     8176,DL
         1 000603   000000 471400 xsym               LDP1    B$USRT$
         1 000604   100000 236106                    LDQ     0,QL,PR1
         1 000605   000003 376000 0                  ANQ     ERR_TERM+3
         1 000606   000625 600000 1                  TZE     s:8142
PL6.E3A0      #004=KIA$ISCAN File=KIA$APPLC.:E05TSI                              WED 07/30/97 00:34 Page:310
         1 000607   000007 236100                    LDQ     7,,PR0
         1 000610   000016 772000                    QRL     14
         1 000611   017760 376007                    ANQ     8176,DL
         1 000612   100017 236106                    LDQ     15,QL,PR1
         1 000613   200003 116100                    CMPQ    @NK$LDCT,,AUTO
         1 000614   000625 601000 1                  TNZ     s:8142

     1713     8138    1             AND B$USRT$->B$USER.MISC$(NK$LDCT.USER) = ADDR(NK$LDCT)
     1714     8139    1             THEN
     1715     8140    1               CALL SSR$RUE (%SS_FC,NK$LDCT.USER);

   8140  1 000615   200003 236100                    LDQ     @NK$LDCT,,AUTO
         1 000616   000013 036000 2                  ADLQ    11
         1 000617   000014 235000 2                  LDA     12
         1 000620   200070 757100                    STAQ    TP$+1,,AUTO
         1 000621   200070 630500                    EPPR0   TP$+1,,AUTO
         1 000622   000020 631400 xsym               EPPR1   B_VECTNIL+16
         1 000623   000000 701000 xent               TSX1    SSR$RUE
         1 000624   000000 011000                    NOP     0

     1716     8141    2           DO INHIBIT;

     1717     8142    2             NK$LDCT.DFLG.FEDN='1'B;

   8142  1 000625   200003 470700                    LDP0  ! @NK$LDCT,,AUTO
         1 000626   000020 236207                    LDQ   ! 16,DL
         1 000627   000006 256300                    ORSQ  ! 6,,PR0

     1718     8143    2             NK$LDCT.DFLG.PRLS='1'B;

   8143  1 000630   000200 236207                    LDQ   ! 128,DL
         1 000631   000006 256300                    ORSQ  ! 6,,PR0

     1719     8144    2             END;

     1720     8145    1           IF NK$LDCT.DFLG.RLSE

PL6.E3A0      #004=KIA$ISCAN File=KIA$APPLC.:E05TSI                              WED 07/30/97 00:34 Page:311
   8145  1 000632   000006 236100                    LDQ     6,,PR0
         1 000633   000400 316007                    CANQ    256,DL
         1 000634   000646 600000 1                  TZE     s:8148

     1721     8146    1             THEN
     1722     8147    1               CALL NKL$RELDCT (ADDR(NK$LDCT));

   8147  1 000635   200003 236100                    LDQ     @NK$LDCT,,AUTO
         1 000636   200070 756100                    STQ     TP$+1,,AUTO
         1 000637   200070 631500                    EPPR1   TP$+1,,AUTO
         1 000640   200071 451500                    STP1    TP$+2,,AUTO
         1 000641   200071 630500                    EPPR0   TP$+2,,AUTO
         1 000642   000017 631400 xsym               EPPR1   B_VECTNIL+15
         1 000643   000000 701000 xent               TSX1    NKL$RELDCT
         1 000644   000000 011000                    NOP     0
         1 000645   000751 710000 1                  TRA     s:8179

     1723     8148    1             ELSE IF NOT NK$LDCT.QFL.RLS

   8148  1 000646   000010 236100                    LDQ     8,,PR0
         1 000647   000040 316007                    CANQ    32,DL
         1 000650   000751 601000 1                  TNZ     s:8179

     1724     8149    2                 THEN DO CASE (NK$LDCT.RESCOD);

   8149  1 000651   000006 720100                    LXL0    6,,PR0
         1 000652   000017 360003                    ANX0    15,DU
         1 000653   000017 100003                    CMPX0   15,DU
         1 000654   000656 602010 1                  TNC     s:8149+5,X0
         1 000655   000747 710000 1                  TRA     s:8165
         1 000656   000747 710000 1                  TRA     s:8165
         1 000657   000675 710000 1                  TRA     s:8151
         1 000660   000706 710000 1                  TRA     s:8153
         1 000661   000747 710000 1                  TRA     s:8165
         1 000662   000747 710000 1                  TRA     s:8165
         1 000663   000717 710000 1                  TRA     s:8155
         1 000664   000717 710000 1                  TRA     s:8155
PL6.E3A0      #004=KIA$ISCAN File=KIA$APPLC.:E05TSI                              WED 07/30/97 00:34 Page:312
         1 000665   000747 710000 1                  TRA     s:8165
         1 000666   000675 710000 1                  TRA     s:8151
         1 000667   000706 710000 1                  TRA     s:8153
         1 000670   000724 710000 1                  TRA     s:8157
         1 000671   000735 710000 1                  TRA     s:8159
         1 000672   000747 710000 1                  TRA     s:8165
         1 000673   000747 710000 1                  TRA     s:8165
         1 000674   000742 710000 1                  TRA     s:8161

     1725     8150    2                   CASE(NK_TSTRM,NK_TSFPRG);

     1726     8151    2                     CALL KIA$DSCTS (NK$LDCT,OPARM);

   8151  1 000675   200006 631500                    EPPR1   OPARM,,AUTO
         1 000676   200071 451500                    STP1    TP$+2,,AUTO
         1 000677   200003 236100                    LDQ     @NK$LDCT,,AUTO
         1 000700   200070 756100                    STQ     TP$+1,,AUTO
         1 000701   200070 630500                    EPPR0   TP$+1,,AUTO
         1 000702   000020 631400 xsym               EPPR1   B_VECTNIL+16
         1 000703   000000 701000 xent               TSX1    KIA$DSCTS
         1 000704   000000 011000                    NOP     0
         1 000705   000751 710000 1                  TRA     s:8179

     1727     8152    2                   CASE(NK_CGTRM,NK_CGFPRG);

     1728     8153    2                     CALL KCD$DSCTRM (NK$LDCT,OPARM);

   8153  1 000706   200006 631500                    EPPR1   OPARM,,AUTO
         1 000707   200071 451500                    STP1    TP$+2,,AUTO
         1 000710   200003 236100                    LDQ     @NK$LDCT,,AUTO
         1 000711   200070 756100                    STQ     TP$+1,,AUTO
         1 000712   200070 630500                    EPPR0   TP$+1,,AUTO
         1 000713   000020 631400 xsym               EPPR1   B_VECTNIL+16
         1 000714   000000 701000 xent               TSX1    KCD$DSCTRM
         1 000715   000000 011000                    NOP     0
         1 000716   000751 710000 1                  TRA     s:8179

PL6.E3A0      #004=KIA$ISCAN File=KIA$APPLC.:E05TSI                              WED 07/30/97 00:34 Page:313
     1729     8154    2                   CASE(NK_NOCG,NK_TRMPTH);

     1730     8155    2                     CALL KCF$RLNCG (NK$LDCT);

   8155  1 000717   200003 630500                    EPPR0   @NK$LDCT,,AUTO
         1 000720   000017 631400 xsym               EPPR1   B_VECTNIL+15
         1 000721   000000 701000 xent               TSX1    KCF$RLNCG
         1 000722   000000 011000                    NOP     0
         1 000723   000751 710000 1                  TRA     s:8179

     1731     8156    2                   CASE (NK_LOGON);

     1732     8157    2                     CALL NKL$RELDCT (ADDR(NK$LDCT));

   8157  1 000724   200003 236100                    LDQ     @NK$LDCT,,AUTO
         1 000725   200070 756100                    STQ     TP$+1,,AUTO
         1 000726   200070 631500                    EPPR1   TP$+1,,AUTO
         1 000727   200071 451500                    STP1    TP$+2,,AUTO
         1 000730   200071 630500                    EPPR0   TP$+2,,AUTO
         1 000731   000017 631400 xsym               EPPR1   B_VECTNIL+15
         1 000732   000000 701000 xent               TSX1    NKL$RELDCT
         1 000733   000000 011000                    NOP     0
         1 000734   000751 710000 1                  TRA     s:8179

     1733     8158    2                   CASE (NK_RES);

     1734     8159    2                     CALL FRF$DISC (NK$LDCT);

   8159  1 000735   200003 630500                    EPPR0   @NK$LDCT,,AUTO
         1 000736   000017 631400 xsym               EPPR1   B_VECTNIL+15
         1 000737   000000 701000 xent               TSX1    FRF$DISC
         1 000740   000000 011000                    NOP     0
         1 000741   000751 710000 1                  TRA     s:8179

     1735     8160    2                   CASE (NK_OPCTL);

     1736     8161    2                     CALL FPA$ODDN (NK$LDCT);
PL6.E3A0      #004=KIA$ISCAN File=KIA$APPLC.:E05TSI                              WED 07/30/97 00:34 Page:314

   8161  1 000742   200003 630500                    EPPR0   @NK$LDCT,,AUTO
         1 000743   000017 631400 xsym               EPPR1   B_VECTNIL+15
         1 000744   000000 701000 xent               TSX1    FPA$ODDN
         1 000745   000000 011000                    NOP     0
         1 000746   000751 710000 1                  TRA     s:8179

     1737     8162
     1738     8163
     1739     8164    2                   CASE (ELSE);

     1740     8165    2                     CALL SC_BADRCD;

   8165  1 000747   000000 713400 xsym               CLIMB   SC_BADRCD
         1 000750   000000 600000 xsid               climb   nvectors=         0

     1741     8166        /*S*  SCREECH_CODE:  KIS-S$BADRCD
     1742     8167              TYPE:          Screech
     1743     8168              MESSAGE:       Bad resource code in remote LDCT (at FEP down)
     1744     8169                    */                /*
     1745     8170              REMARKS:       When an FEP goes down the entire list of LDCTs is
     1746     8171                             run to find and disconnect those of the lost FEP.
     1747     8172                             This presents an opportunity to check their validity.
     1748     8173                             This screech occurs when a remote LDCT has an
     1749     8174                             impossible resource code (RESCOD).  The same code
     1750     8175                             is also reported by KIN$ISCAN (KIN-S$BADRCD) when
     1751     8176                             it finds this condition in a recieving LDCT.            */
     1752     8177    2                   END;

     1753     8178
     1754     8179    1           IF NK$LDCT.LKFLG.QFL

   8179  1 000751   200003 470500                    LDP0    @NK$LDCT,,AUTO
         1 000752   000011 236100                    LDQ     9,,PR0
         1 000753   000100 316003                    CANQ    64,DU
         1 000754   000761 600000 1                  TZE     s:8184

PL6.E3A0      #004=KIA$ISCAN File=KIA$APPLC.:E05TSI                              WED 07/30/97 00:34 Page:315
     1755     8180    1             THEN
     1756     8181    1               CALL KCF$QNF(NK$LDCT);

   8181  1 000755   200003 630500                    EPPR0   @NK$LDCT,,AUTO
         1 000756   000017 631400 xsym               EPPR1   B_VECTNIL+15
         1 000757   000000 701000 xent               TSX1    KCF$QNF
         1 000760   000000 011000                    NOP     0

     1757     8182
     1758     8183
     1759     8184    1           RETURN;

   8184  1 000761   000000 702200 xent               TSX2  ! X66_ARET

ERR_TERM
 Sect OctLoc
   0     000   131101 421107                                                    YA.G

(unnamed)
 Sect OctLoc
   0     001   110114 120101   104115 111116   000000 002000                    HLPADMIN....

(unnamed)
 Sect OctLoc
   2     000   000000 000016   000001 006000   000000 006000   000000 000037    ................
   2     004   000003 006000   000007 006000   000063 400000   000062 400000    .........3...2..
   2     010   577777 777777   000015 006000   000000 000050   000007 200000    ...........(....
   2     014   000012 006000                                                    ....
     1760     8185    1   END KIA$ISCAN;
     1761     8186
     1762     8187
     1763     8188        %EOD;

PL6.E3A0      #004=KIA$ISCAN File=KIA$APPLC.:E05TSI                              WED 07/30/97 00:34 Page:316
--  Include file information  --

   KL_MACRO_C.:E05TOU  is referenced.
   UM_CP6.:E05TOU  is referenced.
   KI_ERRORS_C.:E05TOU  is referenced.
   K_SUBS_C.:E05TOU  is referenced.
   K$RWPARM.:E05TOU  is referenced.
   K_DATA_R.:E05TOU  cannot be made into a system file and is referenced.
   KL_SUBS_C.:E05TOU  is referenced.
   KL_AFCN_C.:E05TOU  is referenced.
   SS_SCHED_C.:E05TOU  is referenced.
   NK_SUBS.:E05TOU  is referenced.
   KC_SUBS_C.:E05TOU  is referenced.
   KI_DATA_R.:E05TOU  cannot be made into a system file and is referenced.
   NK_LDCT_R.:E05TOU  cannot be made into a system file and is referenced.
   NK$LDCT.:E05TOU  is referenced.
   HF_LOCK_C.:E05TOU  cannot be made into a system file and is referenced.
   KV$VDO.:E05TOU  is referenced.
   B$USER.:E05TOU  cannot be made into a system file and is referenced.
      No diagnostics issued in procedure KIA$ISCAN.
PL6.E3A0      #004=KIA$ISCAN File=KIA$APPLC.:E05TSI                              WED 07/30/97 00:34 Page:317

 **** Variables and constants ****

  ****  Section 000 RoData KIA$ISCAN

  ****  Scalars and arrays  ****
OctLoc.c.b A Datatyp(siz) R M Lvl/name                 OctLoc.c.b A Datatyp(siz) R M Lvl/name

     0-0-0/w STRC        r     1 ERR_TERM

  ****  Auto variables  ****

  ****  Scalars and arrays  ****
OctLoc.c.b A Datatyp(siz) R M Lvl/name                 OctLoc.c.b A Datatyp(siz) R M Lvl/name

     4-0-0/w PTR         r     1 @K$RWPARM                  3-0-0/w PTR         r     1 @NK$LDCT
    *0-0-0/d STRC(1404)  r     1 K$RWPARM                  56-0-0/w STRC(126)   r     1 KL_FEPST
    62-0-0/h STRC(90)    r     1 KV$VDO_RQSDAT             *0-0-0/d STRC(864)   r     1 NK$LDCT
     6-0-0/d STRC(1404)  r     1 OPARM                     67-0-0/w PTR         r     1 TP$

  ****  SYMREF variables  ****

  ****  Scalars and arrays  ****
OctLoc.c.b A Datatyp(siz) R M Lvl/name                 OctLoc.c.b A Datatyp(siz) R M Lvl/name

     0-0-0/w PTR         r     1 B$USRT$                    0-0-0/w BIT         r     1 KIA_NODAT
     0-0-0/w PTR         r     1 KI_FEI$$                   0-0-0/d STRC(1404)  r     1 K_RWPARM_CON
     0-0-0/w PTR         r     1 N$DCT$$

  ****  BASED and DCB variables  ****

  ****  Scalars and arrays  ****
OctLoc.c.b A Datatyp(siz) R M Lvl/name                 OctLoc.c.b A Datatyp(siz) R M Lvl/name

     0-0-0/w STRC(576)   r     1 B$USER(0:0)                0-0-0/h STRC(18)    r     1 KV$VDO
     0-0-0/b STRC(18)    r     1 SPREAD                     0-0-0/h STRC(90)    r     1 VDO

PL6.E3A0      #004=KIA$ISCAN File=KIA$APPLC.:E05TSI                              WED 07/30/97 00:34 Page:318

   Procedure KIA$ISCAN requires 498 words for executable code.
   Procedure KIA$ISCAN requires 60 words of local(AUTO) storage.
PL6.E3A0      #004=KIA$ISCAN File=KIA$APPLC.:E05TSI                              WED 07/30/97 00:34 Page:319
          *** CROSS REFERENCE LISTING ***
**     DENOTES     IDENTIFIER DEFINITION
<<                 IDENTIFIER'S VALUE SET
>>                 IDENTIFIER'S VALUE USED
<>                 IDENTIFIER SET AND/OR USED
--                 IDENTIFIER REFERENCED
PL6.E3A0      #004=KIA$ISCAN File=KIA$APPLC.:E05TSI                              WED 07/30/97 00:34 Page:320
          MINI XREF LISTING

ARET
      8107**LABEL    8075--CALLALT  8077--CALLALT  8079--CALLALT  8081--CALLALT  8083--CALLALT  8085--CALLALT
B$DO.ECCINFO
       177**DCL       178--REDEF
B$U.MISC
       156**DCL       157--REDEF
B$USER.FLG
       202**DCL      8137>>IF
B$USER.MISC
       232**DCL       233--REDEF
B$USER.MISC$
       233**DCL      8137>>IF
B$USRT$
      7948**DCL      8137>>IF       8137>>IF
CALLOUT
      8071**LABEL    8036--GOTO     8046--GOTO     8060--GOTO
ERR_TERM
      7883**DCL      8119>>ASSIGN
FPA$ODDN
      7923**DCL-ENT  8161--CALL
FPA$ODIN
      7922**DCL-ENT  8085--CALL
FRF$DISC
      7924**DCL-ENT  8159--CALL
FRF$IN
      7925**DCL-ENT  8083--CALL
GETOUT
      8086**LABEL    7977--CALLALT  7995--GOTO     8056--CALLALT
HFC$LOCK
      1270**DCL-ENT  7984--CALL
HFC$UNLOCK
      1270**DCL-ENT  7993--CALL     8010--CALL     8034--CALL     8044--CALL     8050--CALL
PL6.E3A0      #004=KIA$ISCAN File=KIA$APPLC.:E05TSI                              WED 07/30/97 00:34 Page:321
K$RWPARM
      6938**DCL         9--PROC     7960<>CALL     7977<>CALL     7991<>CALL     8056<>CALL     8075<>CALL
      8077<>CALL     8079<>CALL     8081<>CALL     8083<>CALL     8085<>CALL
K$RWPARM.BLKREC
      6964**DCL      6989--REDEF
K$RWPARM.BLKREC.BLKU#
      6965**DCL      6967--REDEF
K$RWPARM.BLKREC.RECU#
      6977**DCL      6979--REDEF
K$RWPARM.DVE.DVBYTE.VFC
      7004**DCL      7005--REDEF
K$RWPARM.DVE.EOMCHAR
      7012**DCL      7016--REDEF
K$RWPARM.ERR
      7076**DCL      7081--REDEF    7967<<ASSIGN   8107<<ASSIGN
K$RWPARM.FC
      7040**DCL      7041--REDEF
K$RWPARM.FEX
      7122**DCL      7962>>ASSIGN
K$RWPARM.FLDID
      7222**DCL      7223--REDEF
K$RWPARM.FPT$
      7103**DCL      7110--REDEF
K$RWPARM.KEYTYPE
      7229**DCL      7230--REDEF    7959<<ASSIGN
K$RWPARM.MSG$
      6939**DCL      6945--REDEF
K$RWPARM.MSGID
      7051**DCL      7056--REDEF
K$RWPARM.MSGIDXT
      7064**DCL      7068--REDEF
K$RWPARM.MSG_ERRCODE
      7199**DCL      7990<<ASSIGN   8059>>ASSIGN
K$RWPARM.ORG
      7200**DCL      7201--REDEF
K$RWPARM.THDRSZ
PL6.E3A0      #004=KIA$ISCAN File=KIA$APPLC.:E05TSI                              WED 07/30/97 00:34 Page:322
      7144**DCL      7148--REDEF
K$RWPARM.UHDR$
      7089**DCL      7683--IMP-PTR  7723--IMP-PTR  7764--IMP-PTR  7860--IMP-PTR  7973>>DOCASE   7981>>ASSIGN
K$RWPARM.VDOFLGS
      7202**DCL      7213--REDEF
KCD$DSCTRM
      7940**DCL-ENT  8153--CALL
KCF$FEIN
      7930**DCL-ENT  8077--CALL
KCF$NOCG
      7934**DCL-ENT  8079--CALL
KCF$QNF
      7931**DCL-ENT  8181--CALL
KCF$RLNCG
      7941**DCL-ENT  8155--CALL
KIA$ACUP
      7936**DCL-ENT  8056--CALL     8124--CALL
KIA$DSC
      7926**DCL-ENT  8131--CALL
KIA$DSCTS
      7942**DCL-ENT  8151--CALL
KIA$FCNO
      7927**DCL-ENT  7977--CALL     7991--CALL
KIA$FPRGIN
      7929**DCL-ENT  8081--CALL
KIA$MSG
      7937**DCL-ENT  7960--CALL
KIA$UCIN
      7928**DCL-ENT  8075--CALL
KIA_NODAT
      7870**DCL      7990>>ASSIGN
KI_FEI$$
      1393**DCL      1394--IMP-PTR
KL_FEPST
      7562**DCL      7964<>CALL     7964--CALL
KL_FEPST.FCN
PL6.E3A0      #004=KIA$ISCAN File=KIA$APPLC.:E05TSI                              WED 07/30/97 00:34 Page:323
      7563**DCL      7963<<ASSIGN
KL_FEPST.FEP
      7565**DCL      7962<<ASSIGN
KUB$WRITE
      7946**DCL-ENT  7964--CALL
KV$VDO.FNC
      7687**DCL      7973>>DOCASE
KV$VDO_RQSDAT
      7812**DCL      7981<<ASSIGN
KV$VDO_RQSDAT.EOFNO_DAT
      7823**DCL      7988>>IF
KV$VDO_RQSDAT.INCMAXNMBBYT
      7821**DCL      8006>>IF
KV$VDO_RQSDAT.INCMAXNMBRCR
      7821**DCL      8021>>IF
KV$VDO_RQSDAT.MAXNMBBYT
      7820**DCL      8005--ASSIGN
KV$VDO_RQSDAT.MAXNMBRCR
      7819**DCL      8020--ASSIGN
KV$VDO_RQSDAT.MAXRCRBYTSIZ
      7819**DCL      8026--ASSIGN
KV$VDO_RQSDAT.STR
      7816**DCL      7999>>IF       8002>>ASSIGN
K_RWPARM_CON
      2252**DCL      8128>>ASSIGN
K_RWPARM_CON.BLKREC
      2278**DCL      2303--REDEF
K_RWPARM_CON.BLKREC.BLKU#
      2279**DCL      2281--REDEF
K_RWPARM_CON.BLKREC.RECU#
      2291**DCL      2293--REDEF
K_RWPARM_CON.DVE.DVBYTE.VFC
      2318**DCL      2319--REDEF
K_RWPARM_CON.DVE.EOMCHAR
      2326**DCL      2330--REDEF
K_RWPARM_CON.ERR
PL6.E3A0      #004=KIA$ISCAN File=KIA$APPLC.:E05TSI                              WED 07/30/97 00:34 Page:324
      2390**DCL      2395--REDEF
K_RWPARM_CON.FC
      2354**DCL      2355--REDEF
K_RWPARM_CON.FLDID
      2536**DCL      2537--REDEF
K_RWPARM_CON.FPT$
      2417**DCL      2424--REDEF
K_RWPARM_CON.KEYTYPE
      2543**DCL      2544--REDEF
K_RWPARM_CON.MSG$
      2253**DCL      2259--REDEF
K_RWPARM_CON.MSGID
      2365**DCL      2370--REDEF
K_RWPARM_CON.MSGIDXT
      2378**DCL      2382--REDEF
K_RWPARM_CON.ORG
      2514**DCL      2515--REDEF
K_RWPARM_CON.THDRSZ
      2458**DCL      2462--REDEF
K_RWPARM_CON.VDOFLGS
      2516**DCL      2527--REDEF
L1
      8044**LABEL    8039--GOTO
MSIZC
      7917**DCL      7918--REDEF
N$DCT$$
      1380**DCL      1380--IMP-PTR
NK$LDCT
      6884**DCL         9--PROC     7977<>CALL     7991<>CALL     8056<>CALL     8075<>CALL     8077<>CALL
      8079<>CALL     8081<>CALL     8083<>CALL     8085<>CALL     8114--ENTRY    8124<>CALL     8131<>CALL
      8137--IF       8147--CALL     8151<>CALL     8153<>CALL     8155<>CALL     8157--CALL     8159<>CALL
      8161<>CALL     8181<>CALL
NK$LDCT.ACCTNG
      6894**DCL      8055>>IF
NK$LDCT.DDT$
      6886**DCL      6886--REDEF
PL6.E3A0      #004=KIA$ISCAN File=KIA$APPLC.:E05TSI                              WED 07/30/97 00:34 Page:325
NK$LDCT.DFLG.FEDN
      6892**DCL      8129>>IF       8142<<ASSIGN
NK$LDCT.DFLG.PRLS
      6891**DCL      8143<<ASSIGN
NK$LDCT.DFLG.RLSE
      6891**DCL      8071>>IF       8145>>IF
NK$LDCT.DFLG.SYMBIONT
      6889**DCL      8057>>IF       8117>>IF
NK$LDCT.ERR
      6885**DCL      8059<<ASSIGN   8119<<ASSIGN
NK$LDCT.IOQ$
      6885**DCL      6886--REDEF
NK$LDCT.LDCTX
      6887**DCL      6887--REDEF
NK$LDCT.LKFLG.ABORTED
      6899**DCL      6900--REDEF
NK$LDCT.LKFLG.NOWAIT
      6905**DCL      7958>>IF
NK$LDCT.LKFLG.OBLK
      6899**DCL      7988>>IF       8007>>IF       8028>>IF       8032<<ASSIGN
NK$LDCT.LKFLG.QFL
      6903**DCL      8179>>IF
NK$LDCT.LOCK
      6912**DCL      7984<>CALL     7993<>CALL     8010<>CALL     8034<>CALL     8044<>CALL     8050<>CALL
NK$LDCT.NOWAIT.KEYTYP
      6895**DCL      7959>>ASSIGN
NK$LDCT.QFL.RLS
      6897**DCL      8148>>IF
NK$LDCT.RESCOD
      6892**DCL      8073>>DOCASE   8149>>DOCASE
NK$LDCT.RLCID.LDCTX
      6909**DCL      6909--REDEF
NK$LDCT.STA$
      6905**DCL      6906--REDEF
NK$LDCT.SYMB$
      6884**DCL      6884--REDEF    6884--REDEF    6885--REDEF
PL6.E3A0      #004=KIA$ISCAN File=KIA$APPLC.:E05TSI                              WED 07/30/97 00:34 Page:326
NK$LDCT.TH
      6910**DCL      8001<<ASSIGN
NK$LDCT.TH.MAXNMBBYT
      6911**DCL      8016<<ASSIGN   8016>>ASSIGN   8018<<ASSIGN   8030>>IF       8040>>IF
NK$LDCT.TH.MAXNMBRCR
      6910**DCL      8023<<ASSIGN   8023>>ASSIGN   8025<<ASSIGN   8030>>IF       8040>>IF
NK$LDCT.TH.MAXRCRBYTSIZ
      6911**DCL      8027<<ASSIGN
NK$LDCT.TH.STR
      6910**DCL      7999>>IF       8002<<ASSIGN
NK$LDCT.USER
      6894**DCL      8137>>IF       8137>>IF       8140<>CALL
NKL$RELDCT
      7944**DCL-ENT  8147--CALL     8157--CALL
OPARM
      7254**DCL      8128<<ASSIGN   8131<>CALL     8151<>CALL     8153<>CALL
OPARM.BLKREC
      7280**DCL      7305--REDEF
OPARM.BLKREC.BLKU#
      7281**DCL      7283--REDEF
OPARM.BLKREC.RECU#
      7293**DCL      7295--REDEF
OPARM.DVE.DVBYTE.VFC
      7320**DCL      7321--REDEF
OPARM.DVE.EOMCHAR
      7328**DCL      7332--REDEF
OPARM.ERR
      7392**DCL      7397--REDEF    8133>>IF
OPARM.FC
      7356**DCL      7357--REDEF
OPARM.FLDID
      7538**DCL      7539--REDEF
OPARM.FPT$
      7419**DCL      7426--REDEF
OPARM.KEYTYPE
      7545**DCL      7546--REDEF
PL6.E3A0      #004=KIA$ISCAN File=KIA$APPLC.:E05TSI                              WED 07/30/97 00:34 Page:327
OPARM.MSG$
      7255**DCL      7261--REDEF
OPARM.MSGID
      7367**DCL      7372--REDEF
OPARM.MSGIDXT
      7380**DCL      7384--REDEF
OPARM.ORG
      7516**DCL      7517--REDEF
OPARM.THDRSZ
      7460**DCL      7464--REDEF
OPARM.VDOFLGS
      7518**DCL      7529--REDEF
SC_BADRCD
      7939**DCL-ENT  8165--CALL
SC_BDRCDI
      7947**DCL-ENT  7965--CALL     8087--CALL
SPREAD.HI8
      7953**DCL      8016>>ASSIGN   8018>>ASSIGN   8023>>ASSIGN   8025>>ASSIGN   8027>>ASSIGN
SPREAD.LO8
      7955**DCL      8016>>ASSIGN   8018>>ASSIGN   8023>>ASSIGN   8025>>ASSIGN   8027>>ASSIGN
SSR$RUE
      7932**DCL-ENT  8140--CALL
TP$
      7956**DCL      8005<<ASSIGN   8016>>ASSIGN   8016>>ASSIGN   8018>>ASSIGN   8018>>ASSIGN   8020<<ASSIGN
      8023>>ASSIGN   8023>>ASSIGN   8025>>ASSIGN   8025>>ASSIGN   8026<<ASSIGN   8027>>ASSIGN   8027>>ASSIGN
VDO
      7764**DCL      7981>>ASSIGN

PL6.E3A0      #005=KIA$ACUP File=KIA$APPLC.:E05TSI                               WED 07/30/97 00:35 Page:328
     1764        1        /*T***********************************************************/
     1765        2        /*T*                                                         */
     1766        3        /*T* Copyright (c) Bull HN Information Systems Inc., 1997    */
     1767        4        /*T*                                                         */
     1768        5        /*T***********************************************************/
     1769        6
     1770        7
     1771        8        KIA$ACUP: PROC (NK$LDCT,K$RWPARM) ALTRET;
     1772        9
     1773       10        /*F*
     1774       11             NAME: KIA$ACUP
     1775       12             PURPOSE:
     1776       13                  Updated the accounting information for a LDCT.
     1777       14             DESCRIPTION:
     1778       15                  None.
     1779       16        */
     1780       17
     1781       18        %INCLUDE EL_SUBS_C;
     1782      102        %INCLUDE ES_TABLES_M;
     1783      496        %INCLUDE K$RWPARM;
     1784      882        %INCLUDE KI_DATA_R;
     1785      908        %INCLUDE KL_MACRO_C;
     1786     4260        %INCLUDE KL_SUBS_C;
     1787     4314        %INCLUDE NK$LDCT;
     1788     4416        %INCLUDE NK_LDCT_R;
     1789     4425        %INCLUDE NK_SUBS;
     1790     4450
     1791     4451        %NK$LDCT (STCLASS="");
     1792     4497        %KL_ACCTNG (STCLASS="");
     1793     4511        %K$RWPARM (NAME=K$RWPARM);
     1794     4827        %ES$SYS_EXIT (STCLASS=);
     1795     4841    1   DCL BUBIN BASED ALIGNED UBIN;
     1796     4842    1   DCL TEMP UBIN WORD;
     1797     4843    1   DCL KIA$8TO9 ENTRY(3);
     1798     4844    1   DCL ELA$SYSLOG ENTRY(6) ALTRET;
     1799     4845
     1800     4846
PL6.E3A0      #005=KIA$ACUP File=KIA$APPLC.:E05TSI                               WED 07/30/97 00:35 Page:329
     1801     4847    1           IF NOT NK$LDCT.ACCTNG
     1802     4848    1             THEN
     1803     4849    1               RETURN;
     1804     4850    1           KL_ACCTNG='0'B;
     1805     4851    1           KL_ACCTNG.REASON=%KLDR_OFF;
     1806     4852    2           IF ADDR(K$RWPARM)=ADDR(NIL) THEN DO;
     1807     4853    2               IF NK$LDCT.DFLG.RLSE OR NOT NK$LDCT.DFLG.FEDN THEN EXIT;
     1808     4854    2               KL_ACCTNG.REASON=%KLDR_FCRSH;
     1809     4855    2               END;
     1810     4856    2             ELSE DO;
     1811     4857    2               IF K$RWPARM.MSG$=ADDR(NIL) THEN EXIT;
     1812     4858    3               DO TEMP=0 TO 3;
     1813     4859    3                 CALL KIA$8TO9 (PINCRW(K$RWPARM.MSG$,TEMP)->BUBIN,
     1814     4860    3                   PINCRW(ADDR(KL_ACCTNG.CHARIN),TEMP)->BUBIN, 4);
     1815     4861    3                 END;
     1816     4862    2               END;
     1817     4863    1           TEMP = LDCT.RLCID.NODE;
     1818     4864    1           KL_ACCTNG.FEX = TEMP;
     1819     4865    1           KL_ACCTNG.DEVNM=LDCT.DEVNM;
     1820     4866    1           KL_ACCTNG.LDCTX=LDCT.LDCTX;
     1821     4867    1           CALL ELA$SYSLOG (EL_DISC,KL_ACCTNG,SIZEW(KL_ACCTNG),'0'B,2,TEMP) ALTRET (
              4867                    ALTRT);
     1822     4868    2           IF NK$LDCT.RESCOD=NK_CGTRM AND NK$LDCT.TERMID.LEV~=2 THEN DO;
     1823     4869        /* LOG SYSEXITS FOR NON-STATION CG TRMS. */
     1824     4870    2               ES$SYS_EXIT = '0'B;
     1825     4871    2               ES$SYS_EXIT.JIT$ = ADDR(NK$LDCT);
     1826     4872    2               CALL ELA$SYSLOG (EL_SYS_EXIT, ES$SYS_EXIT, 2, 0, EL_SEC, TEMP);
     1827     4873    2               END;
     1828     4874    1           NK$LDCT.ACCTNG = '0'B;
     1829     4875    1           RETURN;
     1830     4876    1   ALTRT:  ;
     1831     4877    1           ALTRETURN;
     1832     4878
     1833     4879    1   END KIA$ACUP;
     1834     4880
     1835     4881
     1836     4882        %EOD;
PL6.E3A0      #005=KIA$ACUP File=KIA$APPLC.:E05TSI                               WED 07/30/97 00:35 Page:330

PL6.E3A0      #005=KIA$ACUP File=KIA$APPLC.:E05TSI                               WED 07/30/97 00:35 Page:331
--  Include file information  --

   NK_SUBS.:E05TOU  is referenced.
   NK_LDCT_R.:E05TOU  cannot be made into a system file and is referenced.
   NK$LDCT.:E05TOU  is referenced.
   KL_SUBS_C.:E05TOU  is referenced.
   KL_MACRO_C.:E05TOU  is referenced.
   KI_DATA_R.:E05TOU  cannot be made into a system file and is referenced.
   K$RWPARM.:E05TOU  is referenced.
   ES_TABLES_M.:E05TOU  is referenced.
   EL_SUBS_C.:E05TOU  is referenced.
      No diagnostics issued in procedure KIA$ACUP.

   Procedure KIA$ACUP requires 102 words for executable code.
   Procedure KIA$ACUP requires 22 words of local(AUTO) storage.

PL6.E3A0      #005=KIA$ACUP File=KIA$APPLC.:E05TSI                               WED 07/30/97 00:35 Page:332

 Object Unit name= KIA$ACUP                                   File name= KIA$APPLC.:E05TOU
 UTS= JUL 30 '97 00:35:34.88 WED                              Compiler= PL-6/E31         Sev=      00
 SharedLib= :SHARED_SYSTEM                                    Alt SharedLib=


    ****  Control sections  ****

 Sect   Type Bound  Init  Size OctSiz  Section name(segment info)
    0   Proc  even  none   102    146  KIA$ACUP
    1  RoData even  none    10     12  KIA$ACUP

    ****  Entry defs  ****

                              Check   Calling
                             calling  sequence
  Sect OctLoc Primary Altret sequence   type   Parms  Name
     0      0   yes    yes     yes      Std        2  KIA$ACUP

  ****  Entry refs  ****

         Check        Calling
        calling       sequence
Altret sequence SRef   type   Args  Name
         yes           Std       3 KIA$8TO9
 yes     yes           Std       6 ELA$SYSLOG
                       nStd      0 X66_AUTO_2
                       nStd      0 X66_ARET
                       Std       0 B_CONSPOOL_D
                       nStd      0 X66_AALT

  ****  Data refs  ****

  Flags:  r = read only, s = secondary
Flgs Name                             Flgs Name                             Flgs Name
     KI_FEI$$                              N$DCT$$                               B_VECTNIL
PL6.E3A0      #005=KIA$ACUP File=KIA$APPLC.:E05TSI                               WED 07/30/97 00:35 Page:333

  ****  Segment refs  ****

  Flags:  r = read only, s = secondary
Flgs Name                             Flgs Name                             Flgs Name
     ISSID
PL6.E3A0      #005=KIA$ACUP File=KIA$APPLC.:E05TSI                               WED 07/30/97 00:35 Page:334


     1764        1        /*T***********************************************************/
     1765        2        /*T*                                                         */
     1766        3        /*T* Copyright (c) Bull HN Information Systems Inc., 1997    */
     1767        4        /*T*                                                         */
     1768        5        /*T***********************************************************/
     1769        6
     1770        7
     1771        8        KIA$ACUP: PROC (NK$LDCT,K$RWPARM) ALTRET;

      8  0 000000   000000 700200 xent  KIA$ACUP     TSX0  ! X66_AUTO_2
         0 000001   000026 000002                    ZERO    22,2

     1772        9
     1773       10        /*F*
     1774       11             NAME: KIA$ACUP
     1775       12             PURPOSE:
     1776       13                  Updated the accounting information for a LDCT.
     1777       14             DESCRIPTION:
     1778       15                  None.
     1779       16        */
     1780       17
     1781       18        %INCLUDE EL_SUBS_C;
     1782      102        %INCLUDE ES_TABLES_M;
     1783      496        %INCLUDE K$RWPARM;
     1784      882        %INCLUDE KI_DATA_R;
     1785      908        %INCLUDE KL_MACRO_C;
     1786     4260        %INCLUDE KL_SUBS_C;
     1787     4314        %INCLUDE NK$LDCT;
     1788     4416        %INCLUDE NK_LDCT_R;
     1789     4425        %INCLUDE NK_SUBS;
     1790     4450
     1791     4451        %NK$LDCT (STCLASS="");
     1792     4497        %KL_ACCTNG (STCLASS="");
     1793     4511        %K$RWPARM (NAME=K$RWPARM);
     1794     4827        %ES$SYS_EXIT (STCLASS=);
     1795     4841    1   DCL BUBIN BASED ALIGNED UBIN;
PL6.E3A0      #005=KIA$ACUP File=KIA$APPLC.:E05TSI                               WED 07/30/97 00:35 Page:335
     1796     4842    1   DCL TEMP UBIN WORD;
     1797     4843    1   DCL KIA$8TO9 ENTRY(3);
     1798     4844    1   DCL ELA$SYSLOG ENTRY(6) ALTRET;
     1799     4845
     1800     4846
     1801     4847    1           IF NOT NK$LDCT.ACCTNG

   4847  0 000002   200003 470500                    LDP0    @NK$LDCT,,AUTO
         0 000003   000007 430100                    FSZN    7,,PR0
         0 000004   000006 604000 0                  TMI     s:4850

     1802     4848    1             THEN
     1803     4849    1               RETURN;

   4849  0 000005   000000 702200 xent               TSX2  ! X66_ARET

     1804     4850    1           KL_ACCTNG='0'B;

   4850  0 000006   000100 100400                    MLR     fill='000'O
         0 000007   000002 000001 xsym               ADSC9   B_VECTNIL+2              cn=0,n=1
         0 000010   200005 000034                    ADSC9   KL_ACCTNG,,AUTO          cn=0,n=28

     1805     4851    1           KL_ACCTNG.REASON=%KLDR_OFF;

   4851  0 000011   000002 236003                    LDQ     2,DU
         0 000012   200005 552120                    STBQ    KL_ACCTNG,'20'O,AUTO

     1806     4852    2           IF ADDR(K$RWPARM)=ADDR(NIL) THEN DO;

   4852  0 000013   200004 236100                    LDQ     @K$RWPARM,,AUTO
         0 000014   000001 116000 xsym               CMPQ    B_VECTNIL+1
         0 000015   000026 601000 0                  TNZ     s:4857

     1807     4853    2               IF NK$LDCT.DFLG.RLSE OR NOT NK$LDCT.DFLG.FEDN THEN EXIT;

   4853  0 000016   000006 236100                    LDQ     6,,PR0
         0 000017   000400 316007                    CANQ    256,DL
PL6.E3A0      #005=KIA$ACUP File=KIA$APPLC.:E05TSI                               WED 07/30/97 00:35 Page:336
         0 000020   000025 601000 0                  TNZ     s:4855
         0 000021   000020 316007                    CANQ    16,DL
         0 000022   000025 600000 0                  TZE     s:4855

     1808     4854    2               KL_ACCTNG.REASON=%KLDR_FCRSH;

   4854  0 000023   000004 236003                    LDQ     4,DU
         0 000024   200005 552120                    STBQ    KL_ACCTNG,'20'O,AUTO

     1809     4855    2               END;

   4855  0 000025   000055 710000 0                  TRA     s:4863

     1810     4856    2             ELSE DO;

     1811     4857    2               IF K$RWPARM.MSG$=ADDR(NIL) THEN EXIT;

   4857  0 000026   200004 471500                    LDP1    @K$RWPARM,,AUTO
         0 000027   100000 236100                    LDQ     0,,PR1
         0 000030   000001 116000 xsym               CMPQ    B_VECTNIL+1
         0 000031   000055 600000 0                  TZE     s:4863

     1812     4858    3               DO TEMP=0 TO 3;

   4858  0 000032   200016 450100                    STZ     TEMP,,AUTO

     1813     4859    3                 CALL KIA$8TO9 (PINCRW(K$RWPARM.MSG$,TEMP)->BUBIN,

   4859  0 000033   200004 470500                    LDP0    @K$RWPARM,,AUTO
         0 000034   000000 471500                    LDP1    0,,PR0
         0 000035   000000 236000 1                  LDQ     0
         0 000036   200022 756100                    STQ     TEMP+4,,AUTO
         0 000037   200016 720100                    LXL0    TEMP,,AUTO
         0 000040   200010 633510                    EPPR3   KL_ACCTNG+3,X0,AUTO
         0 000041   200021 453500                    STP3    TEMP+3,,AUTO
         0 000042   100000 634510                    EPPR4   0,X0,PR1
         0 000043   200020 454500                    STP4    TEMP+2,,AUTO
PL6.E3A0      #005=KIA$ACUP File=KIA$APPLC.:E05TSI                               WED 07/30/97 00:35 Page:337
         0 000044   200020 630500                    EPPR0   TEMP+2,,AUTO
         0 000045   000021 631400 xsym               EPPR1   B_VECTNIL+17
         0 000046   000000 701000 xent               TSX1    KIA$8TO9
         0 000047   000000 011000                    NOP     0

     1814     4860    3                   PINCRW(ADDR(KL_ACCTNG.CHARIN),TEMP)->BUBIN, 4);
     1815     4861    3                 END;

   4861  0 000050   200016 235100                    LDA     TEMP,,AUTO
         0 000051   000001 035007                    ADLA    1,DL
         0 000052   200016 755100                    STA     TEMP,,AUTO
         0 000053   000004 115007                    CMPA    4,DL
         0 000054   000033 602000 0                  TNC     s:4859

     1816     4862    2               END;

     1817     4863    1           TEMP = LDCT.RLCID.NODE;

   4863  0 000055   200003 470500                    LDP0    @NK$LDCT,,AUTO
         0 000056   000015 236100                    LDQ     13,,PR0
         0 000057   000033 772000                    QRL     27
         0 000060   200016 756100                    STQ     TEMP,,AUTO

     1818     4864    1           KL_ACCTNG.FEX = TEMP;

   4864  0 000061   000033 736000                    QLS     27
         0 000062   200005 552140                    STBQ    KL_ACCTNG,'40'O,AUTO

     1819     4865    1           KL_ACCTNG.DEVNM=LDCT.DEVNM;

   4865  0 000063   000002 237100                    LDAQ    2,,PR0
         0 000064   200006 757100                    STAQ    KL_ACCTNG+1,,AUTO

     1820     4866    1           KL_ACCTNG.LDCTX=LDCT.LDCTX;

   4866  0 000065   000006 220100                    LDX0    6,,PR0
         0 000066   200005 440100                    SXL0    KL_ACCTNG,,AUTO
PL6.E3A0      #005=KIA$ACUP File=KIA$APPLC.:E05TSI                               WED 07/30/97 00:35 Page:338

     1821     4867    1           CALL ELA$SYSLOG (EL_DISC,KL_ACCTNG,SIZEW(KL_ACCTNG),'0'B,2,TEMP) ALTRET (
              4867                    ALTRT);

   4867  0 000067   200016 631500                    EPPR1   TEMP,,AUTO
         0 000070   200025 451500                    STP1    TEMP+7,,AUTO
         0 000071   000001 236000 1                  LDQ     1
         0 000072   200024 756100                    STQ     TEMP+6,,AUTO
         0 000073   000002 237000 1                  LDAQ    2
         0 000074   200022 757100                    STAQ    TEMP+4,,AUTO
         0 000075   200005 633500                    EPPR3   KL_ACCTNG,,AUTO
         0 000076   200021 453500                    STP3    TEMP+3,,AUTO
         0 000077   000001 236000 1                  LDQ     1
         0 000100   200020 756100                    STQ     TEMP+2,,AUTO
         0 000101   200020 630500                    EPPR0   TEMP+2,,AUTO
         0 000102   000024 631400 xsym               EPPR1   B_VECTNIL+20
         0 000103   000000 701000 xent               TSX1    ELA$SYSLOG
         0 000104   000145 702000 0                  TSX2    ALTRT

     1822     4868    2           IF NK$LDCT.RESCOD=NK_CGTRM AND NK$LDCT.TERMID.LEV~=2 THEN DO;

   4868  0 000105   200003 470500                    LDP0    @NK$LDCT,,AUTO
         0 000106   000006 236100                    LDQ     6,,PR0
         0 000107   000017 376007                    ANQ     15,DL
         0 000110   000002 116007                    CMPQ    2,DL
         0 000111   000141 601000 0                  TNZ     s:4874
         0 000112   000022 236100                    LDQ     18,,PR0
         0 000113   777000 376003                    ANQ     -512,DU
         0 000114   002000 116003                    CMPQ    1024,DU
         0 000115   000141 600000 0                  TZE     s:4874

     1823     4869        /* LOG SYSEXITS FOR NON-STATION CG TRMS. */
     1824     4870    2               ES$SYS_EXIT = '0'B;

   4870  0 000116   000000 235003                    LDA     0,DU
         0 000117   000000 236003                    LDQ     0,DU
         0 000120   200014 757100                    STAQ    ES$SYS_EXIT,,AUTO
PL6.E3A0      #005=KIA$ACUP File=KIA$APPLC.:E05TSI                               WED 07/30/97 00:35 Page:339

     1825     4871    2               ES$SYS_EXIT.JIT$ = ADDR(NK$LDCT);

   4871  0 000121   200003 236100                    LDQ     @NK$LDCT,,AUTO
         0 000122   200015 756100                    STQ     ES$SYS_EXIT+1,,AUTO

     1826     4872    2               CALL ELA$SYSLOG (EL_SYS_EXIT, ES$SYS_EXIT, 2, 0, EL_SEC, TEMP);

   4872  0 000123   200016 631500                    EPPR1   TEMP,,AUTO
         0 000124   200025 451500                    STP1    TEMP+7,,AUTO
         0 000125   000005 236000 1                  LDQ     5
         0 000126   200024 756100                    STQ     TEMP+6,,AUTO
         0 000127   000006 237000 1                  LDAQ    6
         0 000130   200022 757100                    STAQ    TEMP+4,,AUTO
         0 000131   200014 633500                    EPPR3   ES$SYS_EXIT,,AUTO
         0 000132   200021 453500                    STP3    TEMP+3,,AUTO
         0 000133   000010 236000 1                  LDQ     8
         0 000134   200020 756100                    STQ     TEMP+2,,AUTO
         0 000135   200020 630500                    EPPR0   TEMP+2,,AUTO
         0 000136   000024 631400 xsym               EPPR1   B_VECTNIL+20
         0 000137   000000 701000 xent               TSX1    ELA$SYSLOG
         0 000140   000000 011000                    NOP     0

     1827     4873    2               END;

     1828     4874    1           NK$LDCT.ACCTNG = '0'B;

   4874  0 000141   200003 470500                    LDP0    @NK$LDCT,,AUTO
         0 000142   000011 236000 1                  LDQ     9
         0 000143   000007 356100                    ANSQ    7,,PR0

     1829     4875    1           RETURN;

   4875  0 000144   000000 702200 xent               TSX2  ! X66_ARET

   4874  0 000145                       ALTRT        null
     1830     4876    1   ALTRT:  ;
PL6.E3A0      #005=KIA$ACUP File=KIA$APPLC.:E05TSI                               WED 07/30/97 00:35 Page:340
     1831     4877    1           ALTRETURN;

   4877  0 000145   000000 702200 xent               TSX2  ! X66_AALT

(unnamed)
 Sect OctLoc
   1     000   000006 006000   000004 006000   000011 006000   000002 006000    ................
   1     004   000000 000771   000005 006000   000004 006000   000002 006000    ................
   1     010   000004 006000   776777 777777                                    ........
     1832     4878
     1833     4879    1   END KIA$ACUP;
     1834     4880
     1835     4881
     1836     4882        %EOD;

PL6.E3A0      #005=KIA$ACUP File=KIA$APPLC.:E05TSI                               WED 07/30/97 00:35 Page:341
--  Include file information  --

   NK_SUBS.:E05TOU  is referenced.
   NK_LDCT_R.:E05TOU  cannot be made into a system file and is referenced.
   NK$LDCT.:E05TOU  is referenced.
   KL_SUBS_C.:E05TOU  is referenced.
   KL_MACRO_C.:E05TOU  is referenced.
   KI_DATA_R.:E05TOU  cannot be made into a system file and is referenced.
   K$RWPARM.:E05TOU  is referenced.
   ES_TABLES_M.:E05TOU  is referenced.
   EL_SUBS_C.:E05TOU  is referenced.
      No diagnostics issued in procedure KIA$ACUP.
PL6.E3A0      #005=KIA$ACUP File=KIA$APPLC.:E05TSI                               WED 07/30/97 00:35 Page:342

 **** Variables and constants ****

  ****  Auto variables  ****

  ****  Scalars and arrays  ****
OctLoc.c.b A Datatyp(siz) R M Lvl/name                 OctLoc.c.b A Datatyp(siz) R M Lvl/name

     4-0-0/w PTR         r     1 @K$RWPARM                  3-0-0/w PTR         r     1 @NK$LDCT
    14-0-0/w STRC(72)    r     1 ES$SYS_EXIT               *0-0-0/d STRC(1404)  r     1 K$RWPARM
     5-0-0/w STRC(252)   r     1 KL_ACCTNG                 *0-0-0/d STRC(864)   r     1 NK$LDCT
    16-0-0/w UBIN        r     1 TEMP

  ****  SYMREF variables  ****

  ****  Scalars and arrays  ****
OctLoc.c.b A Datatyp(siz) R M Lvl/name                 OctLoc.c.b A Datatyp(siz) R M Lvl/name

     0-0-0/w PTR         r     1 KI_FEI$$                   0-0-0/w PTR         r     1 N$DCT$$

  ****  BASED and DCB variables  ****

  ****  Scalars and arrays  ****
OctLoc.c.b A Datatyp(siz) R M Lvl/name                 OctLoc.c.b A Datatyp(siz) R M Lvl/name

     0-0-0/w UBIN        r     1 BUBIN


   Procedure KIA$ACUP requires 102 words for executable code.
   Procedure KIA$ACUP requires 22 words of local(AUTO) storage.
PL6.E3A0      #005=KIA$ACUP File=KIA$APPLC.:E05TSI                               WED 07/30/97 00:35 Page:343
          *** CROSS REFERENCE LISTING ***
**     DENOTES     IDENTIFIER DEFINITION
<<                 IDENTIFIER'S VALUE SET
>>                 IDENTIFIER'S VALUE USED
<>                 IDENTIFIER SET AND/OR USED
--                 IDENTIFIER REFERENCED
PL6.E3A0      #005=KIA$ACUP File=KIA$APPLC.:E05TSI                               WED 07/30/97 00:35 Page:344
          MINI XREF LISTING

ALTRT
      4874**LABEL    4867--CALLALT
BUBIN
      4841**DCL      4859<>CALL     4859<>CALL
ELA$SYSLOG
      4844**DCL-ENT  4867--CALL     4872--CALL
ES$SYS_EXIT
      4838**DCL      4870<<ASSIGN   4872<>CALL
ES$SYS_EXIT.JIT$
      4838**DCL      4871<<ASSIGN
K$RWPARM
      4532**DCL         8--PROC     4852--IF
K$RWPARM.BLKREC
      4558**DCL      4583--REDEF
K$RWPARM.BLKREC.BLKU#
      4559**DCL      4561--REDEF
K$RWPARM.BLKREC.RECU#
      4571**DCL      4573--REDEF
K$RWPARM.DVE.DVBYTE.VFC
      4598**DCL      4599--REDEF
K$RWPARM.DVE.EOMCHAR
      4606**DCL      4610--REDEF
K$RWPARM.ERR
      4670**DCL      4675--REDEF
K$RWPARM.FC
      4634**DCL      4635--REDEF
K$RWPARM.FLDID
      4816**DCL      4817--REDEF
K$RWPARM.FPT$
      4697**DCL      4704--REDEF
K$RWPARM.KEYTYPE
      4823**DCL      4824--REDEF
PL6.E3A0      #005=KIA$ACUP File=KIA$APPLC.:E05TSI                               WED 07/30/97 00:35 Page:345
K$RWPARM.MSG$
      4533**DCL      4539--REDEF    4857>>IF       4859>>CALL
K$RWPARM.MSGID
      4645**DCL      4650--REDEF
K$RWPARM.MSGIDXT
      4658**DCL      4662--REDEF
K$RWPARM.ORG
      4794**DCL      4795--REDEF
K$RWPARM.THDRSZ
      4738**DCL      4742--REDEF
K$RWPARM.VDOFLGS
      4796**DCL      4807--REDEF
KIA$8TO9
      4843**DCL-ENT  4859--CALL
KI_FEI$$
       893**DCL       894--IMP-PTR
KL_ACCTNG
      4498**DCL      4850<<ASSIGN   4867<>CALL     4867--CALL
KL_ACCTNG.CHARIN
      4506**DCL      4859--CALL
KL_ACCTNG.DEVNM
      4502**DCL      4503--REDEF    4865<<ASSIGN
KL_ACCTNG.FEX
      4499**DCL      4864<<ASSIGN
KL_ACCTNG.LDCTX
      4501**DCL      4866<<ASSIGN
KL_ACCTNG.REASON
      4500**DCL      4851<<ASSIGN   4854<<ASSIGN
N$DCT$$
      4423**DCL      4423--IMP-PTR
NK$LDCT
      4464**DCL         8--PROC     4871--ASSIGN
NK$LDCT.ACCTNG
      4474**DCL      4847>>IF       4874<<ASSIGN
NK$LDCT.DDT$
      4466**DCL      4466--REDEF
PL6.E3A0      #005=KIA$ACUP File=KIA$APPLC.:E05TSI                               WED 07/30/97 00:35 Page:346
NK$LDCT.DEVNM
      4466**DCL      4865>>ASSIGN
NK$LDCT.DFLG.FEDN
      4472**DCL      4853>>IF
NK$LDCT.DFLG.RLSE
      4471**DCL      4853>>IF
NK$LDCT.IOQ$
      4465**DCL      4466--REDEF
NK$LDCT.LDCTX
      4467**DCL      4467--REDEF    4866>>ASSIGN
NK$LDCT.LKFLG.ABORTED
      4479**DCL      4480--REDEF
NK$LDCT.RESCOD
      4472**DCL      4868>>IF
NK$LDCT.RLCID.LDCTX
      4489**DCL      4489--REDEF
NK$LDCT.RLCID.NODE
      4488**DCL      4863>>ASSIGN
NK$LDCT.STA$
      4485**DCL      4486--REDEF
NK$LDCT.SYMB$
      4464**DCL      4464--REDEF    4464--REDEF    4465--REDEF
NK$LDCT.TERMID.LEV
      4492**DCL      4868>>IF
TEMP
      4842**DCL      4858<<DOINDEX  4859>>CALL     4859>>CALL     4863<<ASSIGN   4864>>ASSIGN   4867<>CALL
      4872<>CALL

PL6.E3A0      #006=KIA$FCNO File=KIA$APPLC.:E05TSI                               WED 07/30/97 00:35 Page:347
     1837        1        /*T***********************************************************/
     1838        2        /*T*                                                         */
     1839        3        /*T* Copyright (c) Bull HN Information Systems Inc., 1997    */
     1840        4        /*T*                                                         */
     1841        5        /*T***********************************************************/
     1842        6
     1843        7
     1844        8
     1845        9
     1846       10        KIA$FCNO: PROC (NK$LDCT,FCN,K$RWPARM) ALTRET;
     1847       11
     1848       12        /*F*
     1849       13             NAME: KIA$FCNO
     1850       14             PURPOSE:
     1851       15                  To output a message with a specific function code.
     1852       16             DESCRIPTION:
     1853       17                  None.
     1854       18        */
     1855       19
     1856       20        %INCLUDE NK$LDCT;
     1857      122        %INCLUDE KV$VDO;
     1858     1137        %INCLUDE KI_DATA_R;
     1859     1163        %INCLUDE NK_SUBS;
     1860     1188        %INCLUDE K_DATA_R;
     1861     1899        %INCLUDE K_SUBS_C;
     1862     1932
     1863     1933        %NK$LDCT (STCLASS="");
     1864     1979        %KV_VDO_E;
     1865     2015        %KV_VDOVLP_E;
     1866     2029        %KV_VDOMRKTYP_E;
     1867     2035        %KV_DATMOD_E;
     1868     2041        %KV_DATCTRCHRTYP_E;
     1869     2047    1   DCL HDR CHAR(100);
     1870     2048        %K$RWPARM (NAME=K$RWPARM);
     1871     2364
     1872     2365    1   DCL FCN UBIN(36);
     1873     2366    1   DCL NFCN UBIN;
PL6.E3A0      #006=KIA$FCNO File=KIA$APPLC.:E05TSI                               WED 07/30/97 00:35 Page:348
     1874     2367    1   DCL U UBIN(36);
     1875     2368    1   DCL KIA$OQFL ENTRY(1) ALTRET;
     1876     2369    1   DCL KIS$SEND ENTRY(1) ALTRET;
     1877     2370    1   DCL KIA$VDO ENTRY(3) ALTRET;
     1878     2371
     1879     2372
     1880     2373    1           U=0;
     1881     2374    1           NFCN = %K_WRITE;
     1882     2375    1           GOTO FCNO;
     1883     2376
     1884     2377    1   KIA$FCNOU: ENTRY (LDCT,FCN,K$RWPARM) ALTRET;
     1885     2378
     1886     2379    1           U=1;
     1887     2380    1           NFCN = %K_WRITE;
     1888     2381    1   FCNO:   ;
     1889     2382    1           CALL KIA$VDO (FCN,K$RWPARM,HDR) ALTRET (FCNA);
     1890     2383
     1891     2384    1           K$RWPARM.LDCT$ = ADDR(NK$LDCT);
     1892     2385    1           K$RWPARM.FUNCTION = NFCN;
     1893     2386    1           CALL KIS$SEND (K$RWPARM) ALTRET (FCNA);
     1894     2387    1           RETURN;
     1895     2388
     1896     2389    1   FCNA:   ;
     1897     2390    1           IF U = 0 OR K$RWPARM.ERR ~= %K$QFULL
     1898     2391    1             THEN
     1899     2392    1               ALTRETURN;
     1900     2393    1           CALL KIA$OQFL (LDCT) ALTRET (ALTRT);
     1901     2394    1           GOTO FCNO;
     1902     2395
     1903     2396
     1904     2397    1   ALTRT:  ;
     1905     2398    1           ALTRETURN;
     1906     2399
     1907     2400        %EJECT;
PL6.E3A0      #006=KIA$FCNO File=KIA$APPLC.:E05TSI                               WED 07/30/97 00:35 Page:349
     1908     2401    1   KIA$DSC: ENTRY (LDCT,FCN,K$RWPARM) ALTRET;
     1909     2402
     1910     2403    1           U=0;
     1911     2404    1           NFCN = %K_DISCONNECT;
     1912     2405    1           GOTO FCNO;
     1913     2406
     1914     2407    1   KIA$DSCU: ENTRY (LDCT,FCN,K$RWPARM) ALTRET;
     1915     2408
     1916     2409    1           U = 1;
     1917     2410    1           NFCN = %K_DISCONNECT;
     1918     2411    1           GOTO FCNO;
     1919     2412
     1920     2413    1   END KIA$FCNO;
     1921     2414
     1922     2415
     1923     2416        %EOD;

PL6.E3A0      #006=KIA$FCNO File=KIA$APPLC.:E05TSI                               WED 07/30/97 00:35 Page:350
--  Include file information  --

   K_SUBS_C.:E05TOU  is referenced.
   K$RWPARM.:E05TOU  is referenced.
   K_DATA_R.:E05TOU  cannot be made into a system file and is referenced.
   NK_SUBS.:E05TOU  is referenced.
   KI_DATA_R.:E05TOU  cannot be made into a system file and is referenced.
   KV$VDO.:E05TOU  is referenced.
   NK$LDCT.:E05TOU  is referenced.
      No diagnostics issued in procedure KIA$FCNO.

   Procedure KIA$FCNO requires 55 words for executable code.
   Procedure KIA$FCNO requires 38 words of local(AUTO) storage.

PL6.E3A0      #006=KIA$FCNO File=KIA$APPLC.:E05TSI                               WED 07/30/97 00:35 Page:351

 Object Unit name= KIA$FCNO                                   File name= KIA$APPLC.:E05TOU
 UTS= JUL 30 '97 00:35:55.52 WED                              Compiler= PL-6/E31         Sev=      00
 SharedLib= :SHARED_SYSTEM                                    Alt SharedLib=


    ****  Control sections  ****

 Sect   Type Bound  Init  Size OctSiz  Section name(segment info)
    0   Proc  even  none    55     67  KIA$FCNO

    ****  Entry defs  ****

                              Check   Calling
                             calling  sequence
  Sect OctLoc Primary Altret sequence   type   Parms  Name
     0      0   yes    yes     yes      Std        3  KIA$FCNO
     0      6          yes     yes      Std        3  KIA$FCNOU
     0     52          yes     yes      Std        3  KIA$DSC
     0     60          yes     yes      Std        3  KIA$DSCU

  ****  Entry refs  ****

         Check        Calling
        calling       sequence
Altret sequence SRef   type   Args  Name
 yes     yes           Std       3 KIA$VDO
 yes     yes           Std       1 KIS$SEND
 yes     yes           Std       1 KIA$OQFL
                       nStd      0 X66_AUTO_3
                       Std       0 B_CONSPOOL_D
                       nStd      0 X66_ARET
                       nStd      0 X66_AALT
PL6.E3A0      #006=KIA$FCNO File=KIA$APPLC.:E05TSI                               WED 07/30/97 00:35 Page:352

  ****  Data refs  ****

  Flags:  r = read only, s = secondary
Flgs Name                             Flgs Name                             Flgs Name
     KI_FEI$$                              B_VECTNIL
PL6.E3A0      #006=KIA$FCNO File=KIA$APPLC.:E05TSI                               WED 07/30/97 00:35 Page:353


     1837        1        /*T***********************************************************/
     1838        2        /*T*                                                         */
     1839        3        /*T* Copyright (c) Bull HN Information Systems Inc., 1997    */
     1840        4        /*T*                                                         */
     1841        5        /*T***********************************************************/
     1842        6
     1843        7
     1844        8
     1845        9
     1846       10        KIA$FCNO: PROC (NK$LDCT,FCN,K$RWPARM) ALTRET;

     10  0 000000   000000 700200 xent  KIA$FCNO     TSX0  ! X66_AUTO_3
         0 000001   000046 000003                    ZERO    38,3

     1847       11
     1848       12        /*F*
     1849       13             NAME: KIA$FCNO
     1850       14             PURPOSE:
     1851       15                  To output a message with a specific function code.
     1852       16             DESCRIPTION:
     1853       17                  None.
     1854       18        */
     1855       19
     1856       20        %INCLUDE NK$LDCT;
     1857      122        %INCLUDE KV$VDO;
     1858     1137        %INCLUDE KI_DATA_R;
     1859     1163        %INCLUDE NK_SUBS;
     1860     1188        %INCLUDE K_DATA_R;
     1861     1899        %INCLUDE K_SUBS_C;
     1862     1932
     1863     1933        %NK$LDCT (STCLASS="");
     1864     1979        %KV_VDO_E;
     1865     2015        %KV_VDOVLP_E;
     1866     2029        %KV_VDOMRKTYP_E;
     1867     2035        %KV_DATMOD_E;
     1868     2041        %KV_DATCTRCHRTYP_E;
PL6.E3A0      #006=KIA$FCNO File=KIA$APPLC.:E05TSI                               WED 07/30/97 00:35 Page:354
     1869     2047    1   DCL HDR CHAR(100);
     1870     2048        %K$RWPARM (NAME=K$RWPARM);
     1871     2364
     1872     2365    1   DCL FCN UBIN(36);
     1873     2366    1   DCL NFCN UBIN;
     1874     2367    1   DCL U UBIN(36);
     1875     2368    1   DCL KIA$OQFL ENTRY(1) ALTRET;
     1876     2369    1   DCL KIS$SEND ENTRY(1) ALTRET;
     1877     2370    1   DCL KIA$VDO ENTRY(3) ALTRET;
     1878     2371
     1879     2372
     1880     2373    1           U=0;

   2373  0 000002   200040 450100                    STZ     U,,AUTO

     1881     2374    1           NFCN = %K_WRITE;

   2374  0 000003   000001 235007                    LDA     1,DL
         0 000004   200037 755100                    STA     NFCN,,AUTO

     1882     2375    1           GOTO FCNO;

   2375  0 000005   000013 710000 0                  TRA     FCNO

     1883     2376
     1884     2377    1   KIA$FCNOU: ENTRY (LDCT,FCN,K$RWPARM) ALTRET;

   2377  0 000006   000000 700200 xent  KIA$FCNOU    TSX0  ! X66_AUTO_3
         0 000007   000046 000003                    ZERO    38,3

     1885     2378
     1886     2379    1           U=1;

   2379  0 000010   000001 235007                    LDA     1,DL
         0 000011   200040 755100                    STA     U,,AUTO

     1887     2380    1           NFCN = %K_WRITE;
PL6.E3A0      #006=KIA$FCNO File=KIA$APPLC.:E05TSI                               WED 07/30/97 00:35 Page:355

   2380  0 000012   200037 755100                    STA     NFCN,,AUTO

   2380  0 000013                       FCNO         null
     1888     2381    1   FCNO:   ;
     1889     2382    1           CALL KIA$VDO (FCN,K$RWPARM,HDR) ALTRET (FCNA);

   2382  0 000013   200006 630500                    EPPR0   HDR,,AUTO
         0 000014   200044 450500                    STP0    U+4,,AUTO
         0 000015   200004 237100                    LDAQ    @FCN,,AUTO
         0 000016   200042 757100                    STAQ    U+2,,AUTO
         0 000017   200042 630500                    EPPR0   U+2,,AUTO
         0 000020   000021 631400 xsym               EPPR1   B_VECTNIL+17
         0 000021   000000 701000 xent               TSX1    KIA$VDO
         0 000022   000035 702000 0                  TSX2    FCNA

     1890     2383
     1891     2384    1           K$RWPARM.LDCT$ = ADDR(NK$LDCT);

   2384  0 000023   200003 236100                    LDQ     @NK$LDCT,,AUTO
         0 000024   200005 470500                    LDP0    @K$RWPARM,,AUTO
         0 000025   000016 756100                    STQ     14,,PR0

     1892     2385    1           K$RWPARM.FUNCTION = NFCN;

   2385  0 000026   200037 235100                    LDA     NFCN,,AUTO
         0 000027   000020 755100                    STA     16,,PR0

     1893     2386    1           CALL KIS$SEND (K$RWPARM) ALTRET (FCNA);

   2386  0 000030   200005 630500                    EPPR0   @K$RWPARM,,AUTO
         0 000031   000017 631400 xsym               EPPR1   B_VECTNIL+15
         0 000032   000000 701000 xent               TSX1    KIS$SEND
         0 000033   000035 702000 0                  TSX2    FCNA

     1894     2387    1           RETURN;

PL6.E3A0      #006=KIA$FCNO File=KIA$APPLC.:E05TSI                               WED 07/30/97 00:35 Page:356
   2387  0 000034   000000 702200 xent               TSX2  ! X66_ARET

   2385  0 000035                       FCNA         null
     1895     2388
     1896     2389    1   FCNA:   ;
     1897     2390    1           IF U = 0 OR K$RWPARM.ERR ~= %K$QFULL

   2390  0 000035   200040 235100                    LDA     U,,AUTO
         0 000036   000043 600000 0                  TZE     s:2392
         0 000037   200005 470500                    LDP0    @K$RWPARM,,AUTO
         0 000040   000013 235100                    LDA     11,,PR0
         0 000041   000001 115007                    CMPA    1,DL
         0 000042   000044 600000 0                  TZE     s:2393

     1898     2391    1             THEN
     1899     2392    1               ALTRETURN;

   2392  0 000043   000000 702200 xent               TSX2  ! X66_AALT

     1900     2393    1           CALL KIA$OQFL (LDCT) ALTRET (ALTRT);

   2393  0 000044   200003 630500                    EPPR0   @NK$LDCT,,AUTO
         0 000045   000017 631400 xsym               EPPR1   B_VECTNIL+15
         0 000046   000000 701000 xent               TSX1    KIA$OQFL
         0 000047   000051 702000 0                  TSX2    ALTRT

     1901     2394    1           GOTO FCNO;

   2394  0 000050   000013 710000 0                  TRA     FCNO

   2390  0 000051                       ALTRT        null
     1902     2395
     1903     2396
     1904     2397    1   ALTRT:  ;
     1905     2398    1           ALTRETURN;

   2398  0 000051   000000 702200 xent               TSX2  ! X66_AALT
PL6.E3A0      #006=KIA$FCNO File=KIA$APPLC.:E05TSI                               WED 07/30/97 00:35 Page:357

     1906     2399
     1907     2400        %EJECT;
PL6.E3A0      #006=KIA$FCNO File=KIA$APPLC.:E05TSI                               WED 07/30/97 00:35 Page:358
     1908     2401    1   KIA$DSC: ENTRY (LDCT,FCN,K$RWPARM) ALTRET;

   2401  0 000052   000000 700200 xent  KIA$DSC      TSX0  ! X66_AUTO_3
         0 000053   000046 000003                    ZERO    38,3

     1909     2402
     1910     2403    1           U=0;

   2403  0 000054   200040 450100                    STZ     U,,AUTO

     1911     2404    1           NFCN = %K_DISCONNECT;

   2404  0 000055   000004 235007                    LDA     4,DL
         0 000056   200037 755100                    STA     NFCN,,AUTO

     1912     2405    1           GOTO FCNO;

   2405  0 000057   000013 710000 0                  TRA     FCNO

     1913     2406
     1914     2407    1   KIA$DSCU: ENTRY (LDCT,FCN,K$RWPARM) ALTRET;

   2407  0 000060   000000 700200 xent  KIA$DSCU     TSX0  ! X66_AUTO_3
         0 000061   000046 000003                    ZERO    38,3

     1915     2408
     1916     2409    1           U = 1;

   2409  0 000062   000001 235007                    LDA     1,DL
         0 000063   200040 755100                    STA     U,,AUTO

     1917     2410    1           NFCN = %K_DISCONNECT;

   2410  0 000064   000004 236007                    LDQ     4,DL
         0 000065   200037 756100                    STQ     NFCN,,AUTO

     1918     2411    1           GOTO FCNO;
PL6.E3A0      #006=KIA$FCNO File=KIA$APPLC.:E05TSI                               WED 07/30/97 00:35 Page:359

   2411  0 000066   000013 710000 0                  TRA     FCNO
     1919     2412
     1920     2413    1   END KIA$FCNO;
     1921     2414
     1922     2415
     1923     2416        %EOD;

PL6.E3A0      #006=KIA$FCNO File=KIA$APPLC.:E05TSI                               WED 07/30/97 00:35 Page:360
--  Include file information  --

   K_SUBS_C.:E05TOU  is referenced.
   K$RWPARM.:E05TOU  is referenced.
   K_DATA_R.:E05TOU  cannot be made into a system file and is referenced.
   NK_SUBS.:E05TOU  is referenced.
   KI_DATA_R.:E05TOU  cannot be made into a system file and is referenced.
   KV$VDO.:E05TOU  is referenced.
   NK$LDCT.:E05TOU  is referenced.
      No diagnostics issued in procedure KIA$FCNO.
PL6.E3A0      #006=KIA$FCNO File=KIA$APPLC.:E05TSI                               WED 07/30/97 00:35 Page:361

 **** Variables and constants ****

  ****  Auto variables  ****

  ****  Scalars and arrays  ****
OctLoc.c.b A Datatyp(siz) R M Lvl/name                 OctLoc.c.b A Datatyp(siz) R M Lvl/name

     4-0-0/w PTR         r     1 @FCN                       5-0-0/w PTR         r     1 @K$RWPARM
     3-0-0/w PTR         r     1 @NK$LDCT                  *0-0-0/w UBIN        r     1 FCN
     6-0-0/c CHAR(100)   r     1 HDR                       *0-0-0/d STRC(1404)  r     1 K$RWPARM
    37-0-0/w UBIN        r     1 NFCN                      *0-0-0/d STRC(864)   r     1 NK$LDCT
    40-0-0/w UBIN        r     1 U

  ****  SYMREF variables  ****

  ****  Scalars and arrays  ****
OctLoc.c.b A Datatyp(siz) R M Lvl/name                 OctLoc.c.b A Datatyp(siz) R M Lvl/name

     0-0-0/w PTR         r     1 KI_FEI$$


   Procedure KIA$FCNO requires 55 words for executable code.
   Procedure KIA$FCNO requires 38 words of local(AUTO) storage.
PL6.E3A0      #006=KIA$FCNO File=KIA$APPLC.:E05TSI                               WED 07/30/97 00:35 Page:362
          *** CROSS REFERENCE LISTING ***
**     DENOTES     IDENTIFIER DEFINITION
<<                 IDENTIFIER'S VALUE SET
>>                 IDENTIFIER'S VALUE USED
<>                 IDENTIFIER SET AND/OR USED
--                 IDENTIFIER REFERENCED
PL6.E3A0      #006=KIA$FCNO File=KIA$APPLC.:E05TSI                               WED 07/30/97 00:35 Page:363
          MINI XREF LISTING

ALTRT
      2390**LABEL    2393--CALLALT
FCN
      2365**DCL        10--PROC     2377--ENTRY    2382<>CALL     2401--ENTRY    2407--ENTRY
FCNA
      2385**LABEL    2382--CALLALT  2386--CALLALT
FCNO
      2380**LABEL    2375--GOTO     2394--GOTO     2405--GOTO     2411--GOTO
HDR
      2047**DCL      2382<>CALL
K$RWPARM
      2069**DCL        10--PROC     2377--ENTRY    2382<>CALL     2386<>CALL     2401--ENTRY    2407--ENTRY
K$RWPARM.BLKREC
      2095**DCL      2120--REDEF
K$RWPARM.BLKREC.BLKU#
      2096**DCL      2098--REDEF
K$RWPARM.BLKREC.RECU#
      2108**DCL      2110--REDEF
K$RWPARM.DVE.DVBYTE.VFC
      2135**DCL      2136--REDEF
K$RWPARM.DVE.EOMCHAR
      2143**DCL      2147--REDEF
K$RWPARM.ERR
      2207**DCL      2212--REDEF    2390>>IF
K$RWPARM.FC
      2171**DCL      2172--REDEF
K$RWPARM.FLDID
      2353**DCL      2354--REDEF
K$RWPARM.FPT$
      2234**DCL      2241--REDEF
K$RWPARM.FUNCTION
      2248**DCL      2385<<ASSIGN
PL6.E3A0      #006=KIA$FCNO File=KIA$APPLC.:E05TSI                               WED 07/30/97 00:35 Page:364
K$RWPARM.KEYTYPE
      2360**DCL      2361--REDEF
K$RWPARM.LDCT$
      2230**DCL      2384<<ASSIGN
K$RWPARM.MSG$
      2070**DCL      2076--REDEF
K$RWPARM.MSGID
      2182**DCL      2187--REDEF
K$RWPARM.MSGIDXT
      2195**DCL      2199--REDEF
K$RWPARM.ORG
      2331**DCL      2332--REDEF
K$RWPARM.THDRSZ
      2275**DCL      2279--REDEF
K$RWPARM.VDOFLGS
      2333**DCL      2344--REDEF
KIA$OQFL
      2368**DCL-ENT  2393--CALL
KIA$VDO
      2370**DCL-ENT  2382--CALL
KIS$SEND
      2369**DCL-ENT  2386--CALL
KI_FEI$$
      1148**DCL      1149--IMP-PTR
K_RWPARM_CON.BLKREC
      1629**DCL      1654--REDEF
K_RWPARM_CON.BLKREC.BLKU#
      1630**DCL      1632--REDEF
K_RWPARM_CON.BLKREC.RECU#
      1642**DCL      1644--REDEF
K_RWPARM_CON.DVE.DVBYTE.VFC
      1669**DCL      1670--REDEF
K_RWPARM_CON.DVE.EOMCHAR
      1677**DCL      1681--REDEF
K_RWPARM_CON.ERR
      1741**DCL      1746--REDEF
PL6.E3A0      #006=KIA$FCNO File=KIA$APPLC.:E05TSI                               WED 07/30/97 00:35 Page:365
K_RWPARM_CON.FC
      1705**DCL      1706--REDEF
K_RWPARM_CON.FLDID
      1887**DCL      1888--REDEF
K_RWPARM_CON.FPT$
      1768**DCL      1775--REDEF
K_RWPARM_CON.KEYTYPE
      1894**DCL      1895--REDEF
K_RWPARM_CON.MSG$
      1604**DCL      1610--REDEF
K_RWPARM_CON.MSGID
      1716**DCL      1721--REDEF
K_RWPARM_CON.MSGIDXT
      1729**DCL      1733--REDEF
K_RWPARM_CON.ORG
      1865**DCL      1866--REDEF
K_RWPARM_CON.THDRSZ
      1809**DCL      1813--REDEF
K_RWPARM_CON.VDOFLGS
      1867**DCL      1878--REDEF
NFCN
      2366**DCL      2374<<ASSIGN   2380<<ASSIGN   2385>>ASSIGN   2404<<ASSIGN   2410<<ASSIGN
NK$LDCT
      1946**DCL        10--PROC     2377--ENTRY    2384--ASSIGN   2393<>CALL     2401--ENTRY    2407--ENTRY
NK$LDCT.DDT$
      1948**DCL      1948--REDEF
NK$LDCT.IOQ$
      1947**DCL      1948--REDEF
NK$LDCT.LDCTX
      1949**DCL      1949--REDEF
NK$LDCT.LKFLG.ABORTED
      1961**DCL      1962--REDEF
NK$LDCT.RLCID.LDCTX
      1971**DCL      1971--REDEF
NK$LDCT.STA$
      1967**DCL      1968--REDEF
PL6.E3A0      #006=KIA$FCNO File=KIA$APPLC.:E05TSI                               WED 07/30/97 00:35 Page:366
NK$LDCT.SYMB$
      1946**DCL      1946--REDEF    1946--REDEF    1947--REDEF
U
      2367**DCL      2373<<ASSIGN   2379<<ASSIGN   2390>>IF       2403<<ASSIGN   2409<<ASSIGN

PL6.E3A0      #007=KIA$OQFL File=KIA$APPLC.:E05TSI                               WED 07/30/97 00:36 Page:367
     1924        1        /*T***********************************************************/
     1925        2        /*T*                                                         */
     1926        3        /*T* Copyright (c) Bull HN Information Systems Inc., 1997    */
     1927        4        /*T*                                                         */
     1928        5        /*T***********************************************************/
     1929        6
     1930        7
     1931        8        KIA$OQFL: PROC (NK$LDCT) ALTRET;
     1932        9
     1933       10        /*F*
     1934       11             NAME: KIA$OQFL
     1935       12             PURPOSE:
     1936       13                  The routine will reg the user pending space in the output circular
     1937       14                  queue.
     1938       15             DESCRIPTION:
     1939       16                  None.
     1940       17        */
     1941       18
     1942       19        %INCLUDE NK$LDCT;
     1943      121        %INCLUDE HF_LOCK_C;
     1944      135        %INCLUDE KI_DATA_R;
     1945      161        %INCLUDE SS_SCHED_C;
     1946      394        %INCLUDE NK_SUBS;
     1947      419        %INCLUDE K_DATA_R;
     1948     1130
     1949     1131        %NK$LDCT (STCLASS="");
     1950     1177    1   DCL S_CUN UBIN SYMREF;
     1951     1178
     1952     1179
     1953     1180    1   DCL SSR$REG ENTRY(3) ALTRET;
     1954     1181
     1955     1182
     1956     1183    1           IF LDCT.LKFLG.QNFL
     1957     1184    2             THEN DO;
     1958     1185    2               LDCT.LKFLG.QNFL = '0'B;
     1959     1186    2               RETURN;
     1960     1187    2               END;
PL6.E3A0      #007=KIA$OQFL File=KIA$APPLC.:E05TSI                               WED 07/30/97 00:36 Page:368
     1961     1188    2           IF LDCT.DFLG.FEDN THEN DO;
     1962     1189    2               ALTRETURN;
     1963     1190    2               END;
     1964     1191        /* SS WILL UNLOCK NK$LDCT.LOCK */
     1965     1192    1           IF NK$LDCT.USER = S_CUN
     1966     1193    1             THEN
     1967     1194    1               CALL SSR$REG (%SS_CBL,ADDR(LDCT))
     1968     1195    2                 WHENALTRETURN DO;
     1969     1196                        %LOCK (G=NK$LDCT.LOCK);
     1970     1199    2                   ALTRETURN;
     1971     1200    2                   END;
     1972     1201    2             ELSE DO;
     1973     1202                    %UNLOCK (G=NK$LDCT.LOCK);
     1974     1205    2               CALL SSR$REG (%SS_CBF,ADDR(LDCT))
     1975     1206    3                 WHENALTRETURN DO;
     1976     1207                        %LOCK (G=NK$LDCT.LOCK);
     1977     1210    3                   ALTRETURN;
     1978     1211    3                   END;
     1979     1212    2               IF LDCT.DFLG.FEDN
     1980     1213    3                 THEN DO;
     1981     1214                        %LOCK (G=NK$LDCT.LOCK);
     1982     1217    3                   ALTRETURN;
     1983     1218    3                   END;
     1984     1219    2               END;
     1985     1220                %LOCK (G=NK$LDCT.LOCK);
     1986     1223    1           RETURN;
     1987     1224
     1988     1225    1   END KIA$OQFL;
     1989     1226
     1990     1227
     1991     1228        %EOD;

PL6.E3A0      #007=KIA$OQFL File=KIA$APPLC.:E05TSI                               WED 07/30/97 00:36 Page:369
--  Include file information  --

   K$RWPARM.:E05TOU  is referenced.
   K_DATA_R.:E05TOU  cannot be made into a system file and is referenced.
   NK_SUBS.:E05TOU  is referenced.
   SS_SCHED_C.:E05TOU  is referenced.
   KI_DATA_R.:E05TOU  cannot be made into a system file and is referenced.
   HF_LOCK_C.:E05TOU  cannot be made into a system file and is referenced.
   NK$LDCT.:E05TOU  is referenced.
      No diagnostics issued in procedure KIA$OQFL.

   Procedure KIA$OQFL requires 84 words for executable code.
   Procedure KIA$OQFL requires 8 words of local(AUTO) storage.

PL6.E3A0      #007=KIA$OQFL File=KIA$APPLC.:E05TSI                               WED 07/30/97 00:36 Page:370

 Object Unit name= KIA$OQFL                                   File name= KIA$APPLC.:E05TOU
 UTS= JUL 30 '97 00:36:12.48 WED                              Compiler= PL-6/E31         Sev=      00
 SharedLib= :SHARED_SYSTEM                                    Alt SharedLib=


    ****  Control sections  ****

 Sect   Type Bound  Init  Size OctSiz  Section name(segment info)
    0   Proc  even  none    84    124  KIA$OQFL
    1  RoData even  none     4      4  KIA$OQFL

    ****  Entry defs  ****

                              Check   Calling
                             calling  sequence
  Sect OctLoc Primary Altret sequence   type   Parms  Name
     0      0   yes    yes     yes      Std        1  KIA$OQFL

  ****  Entry refs  ****

         Check        Calling
        calling       sequence
Altret sequence SRef   type   Args  Name
 yes     yes           Std       3 SSR$REG
         yes           Std       1 HFC$LOCK
         yes           Std       1 HFC$UNLOCK
                       nStd      0 X66_AUTO_1
                       nStd      0 X66_ARET
                       nStd      0 X66_AALT
                       Std       0 B_CONSPOOL_D

  ****  Data refs  ****

  Flags:  r = read only, s = secondary
Flgs Name                             Flgs Name                             Flgs Name
     KI_FEI$$                              S_CUN                                 B_VECTNIL
PL6.E3A0      #007=KIA$OQFL File=KIA$APPLC.:E05TSI                               WED 07/30/97 00:36 Page:371

  ****  Segment refs  ****

  Flags:  r = read only, s = secondary
Flgs Name                             Flgs Name                             Flgs Name
     ISSID
PL6.E3A0      #007=KIA$OQFL File=KIA$APPLC.:E05TSI                               WED 07/30/97 00:36 Page:372


     1924        1        /*T***********************************************************/
     1925        2        /*T*                                                         */
     1926        3        /*T* Copyright (c) Bull HN Information Systems Inc., 1997    */
     1927        4        /*T*                                                         */
     1928        5        /*T***********************************************************/
     1929        6
     1930        7
     1931        8        KIA$OQFL: PROC (NK$LDCT) ALTRET;

      8  0 000000   000000 700200 xent  KIA$OQFL     TSX0  ! X66_AUTO_1
         0 000001   000010 000001                    ZERO    8,1

     1932        9
     1933       10        /*F*
     1934       11             NAME: KIA$OQFL
     1935       12             PURPOSE:
     1936       13                  The routine will reg the user pending space in the output circular
     1937       14                  queue.
     1938       15             DESCRIPTION:
     1939       16                  None.
     1940       17        */
     1941       18
     1942       19        %INCLUDE NK$LDCT;
     1943      121        %INCLUDE HF_LOCK_C;
     1944      135        %INCLUDE KI_DATA_R;
     1945      161        %INCLUDE SS_SCHED_C;
     1946      394        %INCLUDE NK_SUBS;
     1947      419        %INCLUDE K_DATA_R;
     1948     1130
     1949     1131        %NK$LDCT (STCLASS="");
     1950     1177    1   DCL S_CUN UBIN SYMREF;
     1951     1178
     1952     1179
     1953     1180    1   DCL SSR$REG ENTRY(3) ALTRET;
     1954     1181
     1955     1182
PL6.E3A0      #007=KIA$OQFL File=KIA$APPLC.:E05TSI                               WED 07/30/97 00:36 Page:373
     1956     1183    1           IF LDCT.LKFLG.QNFL

   1183  0 000002   200003 470500                    LDP0    @NK$LDCT,,AUTO
         0 000003   000011 236100                    LDQ     9,,PR0
         0 000004   040000 316003                    CANQ    16384,DU
         0 000005   000011 600000 0                  TZE     s:1188

     1957     1184    2             THEN DO;

     1958     1185    2               LDCT.LKFLG.QNFL = '0'B;

   1185  0 000006   000000 236000 1                  LDQ     0
         0 000007   000011 356100                    ANSQ    9,,PR0

     1959     1186    2               RETURN;

   1186  0 000010   000000 702200 xent               TSX2  ! X66_ARET

     1960     1187    2               END;
     1961     1188    2           IF LDCT.DFLG.FEDN THEN DO;

   1188  0 000011   000006 236100                    LDQ     6,,PR0
         0 000012   000020 316007                    CANQ    16,DL
         0 000013   000015 600000 0                  TZE     s:1192

     1962     1189    2               ALTRETURN;

   1189  0 000014   000000 702200 xent               TSX2  ! X66_AALT

     1963     1190    2               END;
     1964     1191        /* SS WILL UNLOCK NK$LDCT.LOCK */
     1965     1192    1           IF NK$LDCT.USER = S_CUN

   1192  0 000015   000007 236100                    LDQ     7,,PR0
         0 000016   000022 772000                    QRL     18
         0 000017   000777 376007                    ANQ     511,DL
         0 000020   000000 116000 xsym               CMPQ    S_CUN
PL6.E3A0      #007=KIA$OQFL File=KIA$APPLC.:E05TSI                               WED 07/30/97 00:36 Page:374
         0 000021   000046 601000 0                  TNZ     s:1203

     1966     1193    1             THEN
     1967     1194    1               CALL SSR$REG (%SS_CBL,ADDR(LDCT))

   1194  0 000022   200003 236100                    LDQ     @NK$LDCT,,AUTO
         0 000023   200004 756100                    STQ     @NK$LDCT+1,,AUTO
         0 000024   200004 631500                    EPPR1   @NK$LDCT+1,,AUTO
         0 000025   200007 451500                    STP1    @NK$LDCT+4,,AUTO
         0 000026   000001 236000 1                  LDQ     1
         0 000027   200006 756100                    STQ     @NK$LDCT+3,,AUTO
         0 000030   200006 630500                    EPPR0   @NK$LDCT+3,,AUTO
         0 000031   000020 631400 xsym               EPPR1   B_VECTNIL+16
         0 000032   000000 701000 xent               TSX1    SSR$REG
         0 000033   000035 702000 0                  TSX2    s:1197
         0 000034   000045 710000 0                  TRA     s:1199+1

     1968     1195    2                 WHENALTRETURN DO;

     1969     1196                        %LOCK (G=NK$LDCT.LOCK);

   1197  0 000035   200003 236100                    LDQ     @NK$LDCT,,AUTO
         0 000036   000020 036003                    ADLQ    16,DU
         0 000037   200004 756100                    STQ     @NK$LDCT+1,,AUTO
         0 000040   200004 630500                    EPPR0   @NK$LDCT+1,,AUTO
         0 000041   000017 631400 xsym               EPPR1   B_VECTNIL+15
         0 000042   000000 701000 xent               TSX1    HFC$LOCK
         0 000043   000000 011000                    NOP     0

     1970     1199    2                   ALTRETURN;

   1199  0 000044   000000 702200 xent               TSX2  ! X66_AALT
         0 000045   000114 710000 0                  TRA     s:1221

     1971     1200    2                   END;
     1972     1201    2             ELSE DO;

PL6.E3A0      #007=KIA$OQFL File=KIA$APPLC.:E05TSI                               WED 07/30/97 00:36 Page:375
     1973     1202                    %UNLOCK (G=NK$LDCT.LOCK);

   1203  0 000046   200003 236100                    LDQ     @NK$LDCT,,AUTO
         0 000047   000020 036003                    ADLQ    16,DU
         0 000050   200004 756100                    STQ     @NK$LDCT+1,,AUTO
         0 000051   200004 630500                    EPPR0   @NK$LDCT+1,,AUTO
         0 000052   000017 631400 xsym               EPPR1   B_VECTNIL+15
         0 000053   000000 701000 xent               TSX1    HFC$UNLOCK
         0 000054   000000 011000                    NOP     0

     1974     1205    2               CALL SSR$REG (%SS_CBF,ADDR(LDCT))

   1205  0 000055   200003 236100                    LDQ     @NK$LDCT,,AUTO
         0 000056   200004 756100                    STQ     @NK$LDCT+1,,AUTO
         0 000057   200004 630500                    EPPR0   @NK$LDCT+1,,AUTO
         0 000060   200007 450500                    STP0    @NK$LDCT+4,,AUTO
         0 000061   000003 236000 1                  LDQ     3
         0 000062   200006 756100                    STQ     @NK$LDCT+3,,AUTO
         0 000063   200006 630500                    EPPR0   @NK$LDCT+3,,AUTO
         0 000064   000020 631400 xsym               EPPR1   B_VECTNIL+16
         0 000065   000000 701000 xent               TSX1    SSR$REG
         0 000066   000070 702000 0                  TSX2    s:1208
         0 000067   000100 710000 0                  TRA     s:1212

     1975     1206    3                 WHENALTRETURN DO;

     1976     1207                        %LOCK (G=NK$LDCT.LOCK);

   1208  0 000070   200003 236100                    LDQ     @NK$LDCT,,AUTO
         0 000071   000020 036003                    ADLQ    16,DU
         0 000072   200004 756100                    STQ     @NK$LDCT+1,,AUTO
         0 000073   200004 630500                    EPPR0   @NK$LDCT+1,,AUTO
         0 000074   000017 631400 xsym               EPPR1   B_VECTNIL+15
         0 000075   000000 701000 xent               TSX1    HFC$LOCK
         0 000076   000000 011000                    NOP     0

     1977     1210    3                   ALTRETURN;
PL6.E3A0      #007=KIA$OQFL File=KIA$APPLC.:E05TSI                               WED 07/30/97 00:36 Page:376

   1210  0 000077   000000 702200 xent               TSX2  ! X66_AALT

     1978     1211    3                   END;
     1979     1212    2               IF LDCT.DFLG.FEDN

   1212  0 000100   200003 470500                    LDP0    @NK$LDCT,,AUTO
         0 000101   000006 236100                    LDQ     6,,PR0
         0 000102   000020 316007                    CANQ    16,DL
         0 000103   000114 600000 0                  TZE     s:1221

     1980     1213    3                 THEN DO;

     1981     1214                        %LOCK (G=NK$LDCT.LOCK);

   1215  0 000104   200003 236100                    LDQ     @NK$LDCT,,AUTO
         0 000105   000020 036003                    ADLQ    16,DU
         0 000106   200004 756100                    STQ     @NK$LDCT+1,,AUTO
         0 000107   200004 630500                    EPPR0   @NK$LDCT+1,,AUTO
         0 000110   000017 631400 xsym               EPPR1   B_VECTNIL+15
         0 000111   000000 701000 xent               TSX1    HFC$LOCK
         0 000112   000000 011000                    NOP     0

     1982     1217    3                   ALTRETURN;

   1217  0 000113   000000 702200 xent               TSX2  ! X66_AALT

     1983     1218    3                   END;
     1984     1219    2               END;
     1985     1220                %LOCK (G=NK$LDCT.LOCK);

   1221  0 000114   200003 236100                    LDQ     @NK$LDCT,,AUTO
         0 000115   000020 036003                    ADLQ    16,DU
         0 000116   200004 756100                    STQ     @NK$LDCT+1,,AUTO
         0 000117   200004 630500                    EPPR0   @NK$LDCT+1,,AUTO
         0 000120   000017 631400 xsym               EPPR1   B_VECTNIL+15
         0 000121   000000 701000 xent               TSX1    HFC$LOCK
PL6.E3A0      #007=KIA$OQFL File=KIA$APPLC.:E05TSI                               WED 07/30/97 00:36 Page:377
         0 000122   000000 011000                    NOP     0

     1986     1223    1           RETURN;

   1223  0 000123   000000 702200 xent               TSX2  ! X66_ARET

(unnamed)
 Sect OctLoc
   1     000   737777 777777   000011 006000   000000 000076   000002 006000    ...........>....
     1987     1224
     1988     1225    1   END KIA$OQFL;
     1989     1226
     1990     1227
     1991     1228        %EOD;

PL6.E3A0      #007=KIA$OQFL File=KIA$APPLC.:E05TSI                               WED 07/30/97 00:36 Page:378
--  Include file information  --

   K$RWPARM.:E05TOU  is referenced.
   K_DATA_R.:E05TOU  cannot be made into a system file and is referenced.
   NK_SUBS.:E05TOU  is referenced.
   SS_SCHED_C.:E05TOU  is referenced.
   KI_DATA_R.:E05TOU  cannot be made into a system file and is referenced.
   HF_LOCK_C.:E05TOU  cannot be made into a system file and is referenced.
   NK$LDCT.:E05TOU  is referenced.
      No diagnostics issued in procedure KIA$OQFL.
PL6.E3A0      #007=KIA$OQFL File=KIA$APPLC.:E05TSI                               WED 07/30/97 00:36 Page:379

 **** Variables and constants ****

  ****  Auto variables  ****

  ****  Scalars and arrays  ****
OctLoc.c.b A Datatyp(siz) R M Lvl/name                 OctLoc.c.b A Datatyp(siz) R M Lvl/name

     3-0-0/w PTR         r     1 @NK$LDCT                  *0-0-0/d STRC(864)   r     1 NK$LDCT

  ****  SYMREF variables  ****

  ****  Scalars and arrays  ****
OctLoc.c.b A Datatyp(siz) R M Lvl/name                 OctLoc.c.b A Datatyp(siz) R M Lvl/name

     0-0-0/w PTR         r     1 KI_FEI$$                   0-0-0/w UBIN        r     1 S_CUN


   Procedure KIA$OQFL requires 84 words for executable code.
   Procedure KIA$OQFL requires 8 words of local(AUTO) storage.
PL6.E3A0      #007=KIA$OQFL File=KIA$APPLC.:E05TSI                               WED 07/30/97 00:36 Page:380
          *** CROSS REFERENCE LISTING ***
**     DENOTES     IDENTIFIER DEFINITION
<<                 IDENTIFIER'S VALUE SET
>>                 IDENTIFIER'S VALUE USED
<>                 IDENTIFIER SET AND/OR USED
--                 IDENTIFIER REFERENCED
PL6.E3A0      #007=KIA$OQFL File=KIA$APPLC.:E05TSI                               WED 07/30/97 00:36 Page:381
          MINI XREF LISTING

HFC$LOCK
       134**DCL-ENT  1197--CALL     1208--CALL     1215--CALL     1221--CALL
HFC$UNLOCK
       134**DCL-ENT  1203--CALL
KI_FEI$$
       146**DCL       147--IMP-PTR
K_RWPARM_CON.BLKREC
       860**DCL       885--REDEF
K_RWPARM_CON.BLKREC.BLKU#
       861**DCL       863--REDEF
K_RWPARM_CON.BLKREC.RECU#
       873**DCL       875--REDEF
K_RWPARM_CON.DVE.DVBYTE.VFC
       900**DCL       901--REDEF
K_RWPARM_CON.DVE.EOMCHAR
       908**DCL       912--REDEF
K_RWPARM_CON.ERR
       972**DCL       977--REDEF
K_RWPARM_CON.FC
       936**DCL       937--REDEF
K_RWPARM_CON.FLDID
      1118**DCL      1119--REDEF
K_RWPARM_CON.FPT$
       999**DCL      1006--REDEF
K_RWPARM_CON.KEYTYPE
      1125**DCL      1126--REDEF
K_RWPARM_CON.MSG$
       835**DCL       841--REDEF
K_RWPARM_CON.MSGID
       947**DCL       952--REDEF
K_RWPARM_CON.MSGIDXT
       960**DCL       964--REDEF
PL6.E3A0      #007=KIA$OQFL File=KIA$APPLC.:E05TSI                               WED 07/30/97 00:36 Page:382
K_RWPARM_CON.ORG
      1096**DCL      1097--REDEF
K_RWPARM_CON.THDRSZ
      1040**DCL      1044--REDEF
K_RWPARM_CON.VDOFLGS
      1098**DCL      1109--REDEF
NK$LDCT
      1144**DCL         8--PROC     1194--CALL     1205--CALL
NK$LDCT.DDT$
      1146**DCL      1146--REDEF
NK$LDCT.DFLG.FEDN
      1152**DCL      1188>>IF       1212>>IF
NK$LDCT.IOQ$
      1145**DCL      1146--REDEF
NK$LDCT.LDCTX
      1147**DCL      1147--REDEF
NK$LDCT.LKFLG.ABORTED
      1159**DCL      1160--REDEF
NK$LDCT.LKFLG.QNFL
      1160**DCL      1183>>IF       1185<<ASSIGN
NK$LDCT.LOCK
      1172**DCL      1197<>CALL     1203<>CALL     1208<>CALL     1215<>CALL     1221<>CALL
NK$LDCT.RLCID.LDCTX
      1169**DCL      1169--REDEF
NK$LDCT.STA$
      1165**DCL      1166--REDEF
NK$LDCT.SYMB$
      1144**DCL      1144--REDEF    1144--REDEF    1145--REDEF
NK$LDCT.USER
      1154**DCL      1192>>IF
SSR$REG
      1180**DCL-ENT  1194--CALL     1205--CALL
S_CUN
      1177**DCL      1192>>IF

