PL6.E3A0      #001=KIA$UCIOND File=KIA$APPLC.:E05TSI                             WED 07/30/97 00:30 Page:1
        1        1        /*M* KIA$APPLC - Application layer service routines*/
        2        2        /*T***********************************************************/
        3        3        /*T*                                                         */
        4        4        /*T* Copyright (c) Bull HN Information Systems Inc., 1997    */
        5        5        /*T*                                                         */
        6        6        /*T***********************************************************/
        7        7        /*X* DMR,PLM=5,IND=5,CTI=5,SDI=5,MCL=10,CSI=0,ECI=0 */
        8        8
        9        9        /*P*
       10       10             NAME: KIA$APPLC
       11       11             PURPOSE:
       12       12                  The module contains the routines that are the application and
       13       13                  presentation layers of the network.
       14       14             DESCRIPTION:
       15       15                  None.
       16       16        */
       17       17        KIA$UCIOND: PROC (FCN,DVBYTE,VFC,EVENT,BUF$,BUFLEN,NDLDCT) ALTRET;
       18       18
       19       19        /*F*
       20       20              NAME:        KIA$UCIOND
       21       21              PURPOSE:     To interface with TS terminals with an LDCT$ instead of a DCB
       22       22              INPUT:       FCN - read, write, etc.
       23       23                           DVBYTE
       24       24                           VFC
       25       25                           EVENT
       26       26                           BUF$ - Pointer to the caller's buffer
       27       27                           BUFLEN - Byte length of the caller's buffer
       28       28                           NDLDCT - The caller's LDCT
       29       29              OUTPUT:      Caller's buffer may be filled in if write
       30       30                           DVBYTE
       31       31                           EOMCHAR is passed back in VFC parameter
       32       32                           TYC is passed back in EVENT parameter
       33       33                           ARS is passed back in BUFLEN parameter
       34       34              DESCRIPTION: KIA$UCIOND is called passing an LDCT instead of
       35       35                           JIT.DCB$. LDCT, MSGSZ, and UB$ are passed as parameters
       36       36                           instead of via JIT.DCB$. Also DVBYTE, EOMCHAR, TYC
       37       37                           and ARS are passed back as parameters instead of in
PL6.E3A0      #001=KIA$UCIOND File=KIA$APPLC.:E05TSI                             WED 07/30/97 00:30 Page:2
       38       38                           JIT.DCB$.                                                 */
       39       39        %PLIST;
       40       40        %INCLUDE B$ROSEG;
       41      103        %INCLUDE B_STRINGS_C;
       42      232        %INCLUDE F$CP6V_C;
       43      458        %INCLUDE NK_LDCT_R;
       44      467        %INCLUDE B$TABLES_C;
       45      575        %B$XL_UR;
       46      579        %B$XL_UPPER_UR;
       47      583        %INCLUDE KI_DATA_R;
       48      609        %INCLUDE B$USER;
       49      825        %B$USERREFS;
       50      829        %INCLUDE B$JIT_C;
       51     1143        %B$JIT0;
       52     1232        %U$JIT1;
       53     1306        %M$JIT2X;
       54     1309        %F$JIT3;
       55     1314        %S$JIT4X;
       56     1317        %J$JIT5;
       57     1405        %A$JIT6;
       58     1415        %INCLUDE NK$LDCT;
       59     1517        %INCLUDE F$DCB;
       60     1566        %INCLUDE KI$MHDR;
       61     1707        %INCLUDE KV$VDO;
       62     2722        %INCLUDE KI$CP6V_C;
       63     3161        %INCLUDE KV_GLBCNS_E;
       64     3502        %INCLUDE KV_PRMID_E;
       65     3676        %INCLUDE HF_LOCK_C;
       66     3690        %INCLUDE F_FPTCODE_C;
       67     3726        %INCLUDE CP_6_SUBS;
       68     4266        %INCLUDE SS_SCHED_C;
       69     4499        %INCLUDE NK_SUBS;
       70     4524        %INCLUDE KI_SUBS_C;
       71     4660        %INCLUDE K_SUBS_C;
       72     4693        %INCLUDE K_DATA_R;
       73     5404
       74     5405        %NK$LDCT;
PL6.E3A0      #001=KIA$UCIOND File=KIA$APPLC.:E05TSI                             WED 07/30/97 00:30 Page:3
       75     5451        %K$RWPARM (STCLASS="",NAME=K$RWPARM);
       76     5767        %KV_PRMID_E;
       77     5923        %KV_VDO_ALL_E;
       78     6002        %KV#VD_ORG_E;
       79     6010        %FPT$READ_V;
       80     6017        %FPT$WRITE_V;
       81     6023    1   DCL USRKEY CHAR(USRKEYSZ) BASED;
       82     6024    1   DCL KEY CHAR(K$RWPARM.KEYSZ) BASED;
       83     6025    1   DCL USRKEYSZ UBIN;
       84     6026    1   DCL 1 FEPSIZ REDEF USRKEYSZ,
       85     6027    1            2 BUF UBIN(18) UNAL,
       86     6028    1            2 KEY UBIN(18) UNAL;
       87     6029    1   DCL DCB_FCN_CNT0 REDEF USRKEYSZ UBIN;
       88     6030    1   DCL 1 NOWAIT,
       89     6031    1            2 KEYTYP UBIN(6) UNAL,
       90     6032    1            2 DMN UBIN(3) UNAL,
       91     6033    1            2 STREAM UBIN(9) UNAL,
       92     6034    1            2 DCB# UBIN(9) UNAL,
       93     6035    1            2 * UBIN(9) UNAL;
       94     6036    1   DCL 1 FEPIO,
       95     6037    1            2 EVENT SBIN,
       96     6038    1            2 KEYX SBIN(18) UNAL,
       97     6039    1            2 BUFX SBIN(18) UNAL,
       98     6040    1            2 BPP(0:1) BIT(18) UNAL,
       99     6041    1            2 KPP(0:1) BIT(18) UNAL;
      100     6042    1   DCL 1 PTW(0:1),
      101     6043    1            2 PP BIT(18) ALIGNED;
      102     6044    1   DCL FPT$ PTR;
      103     6045        %KV$VDO_PRM (STCLASS="BASED(K$RWPARM.UHDR$)");
      104     6086        %KV$VDO_DAT (STCLASS="BASED(K$RWPARM.UHDR$)");
      105     6131        %KV$VDO_RQSDAT (STCLASS="BASED(K$RWPARM.UHDR$)");
      106     6179        %KV$VDO_RQSPRM (STCLASS="BASED(K$RWPARM.UHDR$)");
      107     6222        %KI$QMHDR;
      108     6271        %KV$VDOVLP_DAT1;
      109     6321        %KV$VDOVLP_DAT2;
      110     6371        %KV$VDOVLP_MRK;
      111     6424        %KV$VDO_MRK (NAME=KV$VDO_MRKRSP,STCLASS="BASED(K$RWPARM.UHDR$)",LAST=",");
PL6.E3A0      #001=KIA$UCIOND File=KIA$APPLC.:E05TSI                             WED 07/30/97 00:30 Page:4
      112     6465        %KV$VDOVLP_MRK (NAME=MRKR,LVL=2);
      113     6518        %VLP$WINDOW_V;
      114     6540        %VLP$WINDOW_V(FPTN=WINDOW,ALGN=CALIGNED);
      115     6562        %K$RWPARM (NAME=KI$RWPARM,STCLASS=BASED);
      116     6878
      117     6879        /* Symrefs */
      118     6880
      119     6881    1   DCL FCN UBIN WORD;
      120     6882    1   DCL FCN1 UBIN WORD;
      121     6883    1   DCL DVBYTE BIT(9) CALIGNED;
      122     6884    1   DCL TFCN REDEF DVBYTE UBIN(9) CALIGNED;
      123     6885    1   DCL DVBYTE1 BIT(9);
      124     6886    1   DCL VFC CHAR(1) UNAL;
      125     6887    1   DCL EOMCHAR REDEF VFC CHAR(1);
      126     6888    1   DCL PCODE REDEF VFC UBIN BYTE UNAL;
      127     6889    1   DCL 1 SPREAD BASED UNAL ,
      128     6890    1            2 HI UBIN(10) UNAL ,
      129     6891    1            2 LO8 UBIN(8) UNAL ;
      130     6892    1   DCL EVENT UBIN WORD;
      131     6893    1   DCL TYC REDEF EVENT BIT(36);
      132     6894    1   DCL BUF$ PTR;
      133     6895    1   DCL BUFLEN UBIN;
      134     6896    1   DCL NDLDCT UBIN;    /* Actually an LDCT, but its address is copied to LDCT$ */
      135     6897    1   DCL ENTFLG UBIN;
      136     6898        %EQU DCB#=0;
      137     6899        %EQU NODCB#=1;
      138     6900    1   DCL MSG$ PTR;
      139     6901    1   DCL TDVB BIT(36) ALIGNED;
      140     6902    1   DCL MSGSZ UBIN WORD;
      141     6903    1   DCL 1 MSZ REDEF MSGSZ,
      142     6904        %INCLUDE UM_CP6;
      143     7756    1            2 TOP UBIN(28) UNAL,
      144     7757    1            2 BOT UBIN(8) UNAL;
      145     7758    1   DCL DCB$ PTR;
      146     7759    1   DCL LDCT$ PTR;
      147     7760    1   DCL PFCN UBIN WORD;
      148     7761    1   DCL B$CGCTXT$ PTR SYMREF READONLY;
PL6.E3A0      #001=KIA$UCIOND File=KIA$APPLC.:E05TSI                             WED 07/30/97 00:30 Page:5
      149     7762    1   DCL B$JIT$ PTR SYMREF READONLY;
      150     7763    1   DCL B$PS1$ PTR SYMREF READONLY;
      151     7764    1   DCL B$ROSEG$ PTR SYMREF READONLY;
      152     7765    1   DCL B$M$UC$ PTR SYMREF READONLY;
      153     7766    1   DCL KIA_TCTLMAX SBIN CONSTANT SYMDEF INIT(16);
      154     7767    1   DCL NI_MFGATE BIT(72) SYMREF;
      155     7768    1   DCL PFB UBIN WORD;
      156     7769    1   DCL MSGSZT REDEF PFB UBIN WORD;
      157     7770    1   DCL 1 MSZT REDEF PFB,
      158     7771    1            2 T UBIN(28) UNAL,
      159     7772    1            2 B UBIN(8) UNAL;
      160     7773    1   DCL VCHRM CHAR(MSGSZ) BASED CALIGNED;
      161     7774    1   DCL STR UBIN BASED;
      162     7775    1   DCL STRID UBIN BASED;
      163     7776    1   DCL DLTSTR BIT(1) BASED;
      164     7777    1   DCL NEWSSN BIT(1) BASED;
      165     7778    1   DCL RPTR$ PTR;
      166     7779    1   DCL WINDOW$ PTR BASED;
      167     7780    1   DCL 1 VSIN ,
      168     7781    1            2 PFB UBIN BYTE CALIGNED,
      169     7782    1            2 RFU UBIN BYTE CALIGNED,
      170     7783    1            2 POS UBIN(18) CALIGNED,
      171     7784    1            2 POSL6 REDEF POS,
      172     7785    1                 3 T BIT(9), 3 * BIT(9),
      173     7786    1            2 POSL66 REDEF POS,
      174     7787    1                 3 T BIT(10), 3 * BIT(8);
      175     7788
      176     7789        /* Entry point references */
      177     7790    1   DCL FMO$GETDOMAIN ENTRY(1);
      178     7791    1   DCL KIA$COMP ENTRY(2);
      179     7792    1   DCL FSN$CONV_STR ENTRY(2) ALTRET;
      180     7793    1   DCL KIQ$MAPFEP ENTRY(1);
      181     7794    1   DCL KIA$9TO8 ENTRY(3);
      182     7795    1   DCL KIA$FCNOU ENTRY(3) ALTRET;
      183     7796    1   DCL KIA$OQFL ENTRY(1) ALTRET;
      184     7797    1   DCL KIA$MSG ENTRY(1) ALTRET;
      185     7798    1   DCL KIA$WRITE_USER ENTRY(2) ALTRET;
PL6.E3A0      #001=KIA$UCIOND File=KIA$APPLC.:E05TSI                             WED 07/30/97 00:30 Page:6
      186     7799    1   DCL KIS$SEND ENTRY(1) ALTRET;
      187     7800    1   DCL SSR$REG ENTRY(3) ALTRET;
      188     7801    1   DCL HFF$DSIZ ENTRY(2);
      189     7802    1   DCL HFF$NILERASE ENTRY(1) ALTRET;
      190     7803    1   DCL HFF$TRAPALT ENTRY ALTRET;
      191     7804    1   DCL HFF$WRITE1 ENTRY(1) ALTRET;
      192     7805    1   DCL MMS$SETUP_BUF ENTRY(5) ALTRET;
      193     7806    1   DCL NKA$EVENT ENTRY(2);
      194     7807    1   DCL UMD$DIN ENTRY(1) ALTRET;
      195     7808    1   DCL UMD$DPMT ENTRY ALTRET;
      196     7809    1   DCL UMD$DOU ENTRY(2) ALTRET;
      197     7810
      198     7811    1   DCL SC_NTSDCTI ENTRY CONV(2,0);
      199     7812    1   DCL SC_NTSLCL ENTRY CONV(2,0);
      200     7813    1   DCL SC_BTSFCN ENTRY CONV(2,0);
      201     7814    1   DCL SC_ICQLST ENTRY CONV(2,0);
      202     7815
      203     7816        %INCLUDE KI_ERRORS_C;
      204     7901        %INCLUDE KV_ERRORS_C;
      205     7961        %INCLUDE F_ERRORS_C;
      206     8201        %INCLUDE UD_SEV_C;
      207     8215        %MACRO ERRCODE( NAME=ERRDUMMY, CODE=0, STC=CONSTANT, SL=SEV_CONT#);
      208     8216            %VLP_ERRCODE( FPTN=NAME, STCLASS=STC, FCG='KI', MID='A',
      209     8217                          MON='1'B, ERR#=CODE, SEV=SL);
      210     8218        %MEND;
      211     8219            %ERRCODE( NAME=BADFMT, CODE=%E$BADFMT, SL=SEV_ABORT#);
      212     8267            %ERRCODE( NAME=BYD, CODE=%E$BYD);
      213     8315            %ERRCODE( NAME=BYDR, CODE=%E$BYDR);
      214     8363            %ERRCODE( NAME=DELRECER, CODE=%E$RECORD_DELETED, SL=0);
      215     8411            %ERRCODE( NAME=EOFERR, CODE=%E$EOF, SL=0);
      216     8459            %ERRCODE( NAME=KIA_NODAT, CODE=%E$NODAT, STC="CONSTANT SYMDEF");
      217     8507            %ERRCODE( NAME=LDSC, CODE=%E$LDSC, SL=SEV_ABORT#);
      218     8555            %ERRCODE( NAME=MTRAPERR, CODE=%E$MTRAP, SL=7);
      219     8603            %ERRCODE( NAME=NOFPRG, CODE=%E$NOFPRG, SL=SEV_ABORT#);
      220     8651            %ERRCODE( NAME=NORES, CODE=%E$NOFEPRES, SL=SEV_ABORT#);
      221     8699            %ERRCODE( NAME=XTRARD, CODE=%E$XTRARD);
      222     8747        %EJECT;
PL6.E3A0      #001=KIA$UCIOND File=KIA$APPLC.:E05TSI                             WED 07/30/97 00:30 Page:7
      223     8748    1        ENTFLG=%NODCB#;
      224     8749    1        DCB$=ADDR(NIL);               /* So we trap if I screwed up coding this */
      225     8750    1        FPT$ = ADDR(NIL);
      226     8751    1        LDCT$=ADDR(NDLDCT);
      227     8752    1        MSGSZ=BUFLEN;
      228     8753    1        MSG$=BUF$;
      229     8754    1        PFB = KIDM_MON;
      230     8755    1        IF LDCT$->NK$LDCT.RESCOD=NK_RES
      231     8756    1        THEN PFB = KIDM_CP;
      232     8757    1        GOTO CMN;
      233     8758
      234     8759
      235     8760        %EJECT;
PL6.E3A0      #001=KIA$UCIOND File=KIA$APPLC.:E05TSI                             WED 07/30/97 00:30 Page:8
      236     8761    1   KIA$UCIOD: ENTRY (FCN,DVBYTE,VFC,EVENT) ALTRET;
      237     8762
      238     8763        /*F*
      239     8764             NAME: KIA$UCIOD
      240     8765             PURPOSE:
      241     8766                  This routine is the read and write interface for TS terminals.
      242     8767             DESCRIPTION:
      243     8768                  KIA$UCIOD is called from FSE$FORMAT whenever there is a write
      244     8769                  or read to a time sharing terminal It is also called from
      245     8770                  KIP$PMME when a terminal control function needs to be performed.
      246     8771        */
      247     8772
      248     8773    1   KIA$UCIO: ENTRY (FCN,DVBYTE,VFC,EVENT,BUF$) ALTRET;
      249     8774    1        IF ADDR(BUF$)=ADDR(NIL) THEN
      250     8775    1             FPT$=ADDR(NIL);
      251     8776    1        ELSE
      252     8777    1             FPT$=BUF$;
      253     8778
      254     8779    1        ENTFLG=%DCB#;
      255     8780    1        DCB$=B$JIT$->B$JIT.DCB$;
      256     8781    1        IF DCB$->F$DCB.IASN = %STREAM#
      257     8782    1        THEN
      258     8783    1             LDCT$ = NK$LDCT$(DCB$->F$DCB.CFU$->F$DCB.LDCTX);
      259     8784    1        ELSE
      260     8785    1             LDCT$=NK$LDCT$(DCB$->F$DCB.LDCTX);
      261     8786    1        MSGSZ=DCB$->F$DCB.UBYTES;
      262     8787    1        MSG$=DCB$->F$DCB.UB$;
      263     8788    1        PFB = DCB$->F$DCB.STR;
      264     8789
      265     8790
      266     8791        %EJECT;
PL6.E3A0      #001=KIA$UCIOND File=KIA$APPLC.:E05TSI                             WED 07/30/97 00:30 Page:9
      267     8792    1   CMN: ;
      268     8793    1        IF LDCT$=ADDR(NIL)
      269     8794    1        THEN
      270     8795    1             CALL SC_NTSDCTI;
      271     8796        /*S*  SCREECH_CODE:  KIA-S$NTSDCT
      272     8797              TYPE:          SUA
      273     8798              MESSAGE:       LDCT for timesharing users terminal lost (during I/O)
      274     8799              REMARKS:       This SUA occurs when LDCTX in a timesharing user's
      275     8800                             M$UC DCB does not point to a valid LDCT entry.  This
      276     8801                             suggests that either the DCB is clobbered or KIA$UCIO
      277     8802                             has been incorrectly called.  The same screech code
      278     8803                             is reported by NKU$UCCLS (NKU-S$NTSDCT) when it
      279     8804                             detects the same problem.                               */
      280     8805
      281     8806        /* If there is a marker pending a break, control Y or disconnect
      282     8807             has come in.  If B$U.ASYNC not reset then return with back IC
      283     8808             set otherwise just send the marker.
      284     8809         */
      285     8810             %LOCK (G=LDCT$->NK$LDCT.LOCK);
      286     8813    1        IF LDCT$->LDCT.DFLG.FEDN
      287     8814    2        THEN DO;
      288     8815    2   DISC:     ;
      289     8816    2             B$JIT.ERR=LDSC;
      290     8817        /*E*  ERROR:         KIA-E$LDSC-A
      291     8818               MESSAGE: Your timesharing line %thru %DC %is disconnected!
      292     8819              DESCRIPTION:   Only logoff should see this error JIT.BAKIC would
      293     8820                             loop.                                                   */
      294     8821                  %UNLOCK (G=LDCT$->NK$LDCT.LOCK);
      295     8824    2             ALTRETURN;
      296     8825    2           END;
      297     8826    1        IF S$CU$->B$U.ASYNCH&%(~U_RESET) AND ENTFLG = %DCB#
      298     8827    1             AND NOT S$CU$->B$U.FLG&%U_STIP
      299     8828    2        THEN DO;
      300     8829                  %UNLOCK (G=LDCT$->NK$LDCT.LOCK);
      301     8832    2             B$JIT$->B$JIT.ERR = BYD;
      302     8833    2             B$JIT$->B$JIT.JUNK = B$JIT$->B$JIT.JUNK | %JJ_BAKIC#;
      303     8834    2             ALTRETURN;
PL6.E3A0      #001=KIA$UCIOND File=KIA$APPLC.:E05TSI                             WED 07/30/97 00:30 Page:10
      304     8835    2           END;
      305     8836
      306     8837    1        IF LDCT$->LDCT.LKFLG.MRKPND
      307     8838    2        THEN DO;
      308     8839    2             K$RWPARM = K_RWPARM_CON;
      309     8840    2             K$RWPARM.MRKTYP = %KV_VDOMRKTYP_MRK;
      310     8841    2             K$RWPARM.MARKER = LDCT$->LDCT.MARKER;
      311     8842    2             CALL KIA$FCNOU (LDCT$->NK$LDCT,%KV_VDO_FNC_MRK,K$RWPARM) ALTRET(BRKOUT);
      312     8843    2             LDCT$->LDCT.LKFLG.MRKPND = '0'B;
      313     8844    2           END;
      314     8845
      315     8846             %UNLOCK (G=LDCT$->NK$LDCT.LOCK);
      316     8849
      317     8850
      318     8851
      319     8852    1   RESTART:
      320     8853    1        K$RWPARM = K_RWPARM_CON;
      321     8854    1        DVBYTE1 = DVBYTE;
      322     8855    1        K$RWPARM.DVE.DVBYTE = DVBYTE1;
      323     8856    1        K$RWPARM.DVE.VFC = VFC;
      324     8857    1        K$RWPARM.STR = PFB;
      325     8858    1        IF FPT$ ~= ADDR(NIL)
      326     8859    1        THEN
      327     8860    1             IF DCB$->F$DCB.ORG=%SE# OR FPT$->FPT$WRITE_V.KEYTYPE = 0
      328     8861    1             THEN
      329     8862    1                  K$RWPARM.KEYTYPE = DCB$->F$DCB.KEYTYPE;
      330     8863    1             ELSE
      331     8864    1                  K$RWPARM.KEYTYPE = FPT$->FPT$WRITE_V.KEYTYPE;
      332     8865    1        IF MSGSZ<=4096
      333     8866    1        THEN
      334     8867    1             K$RWPARM.TYC='0'B;
      335     8868    2        ELSE DO;
      336     8869    2             MSGSZ=4096;
      337     8870    2             K$RWPARM.TYC=%TYC_LD|%TYC_EGV;
      338     8871    2           END;
      339     8872    1        K$RWPARM.MAXNMBBYT = MSGSZ + 40;
      340     8873    1        K$RWPARM.MAXRCRBYTSIZ = MSGSZ;
PL6.E3A0      #001=KIA$UCIOND File=KIA$APPLC.:E05TSI                             WED 07/30/97 00:30 Page:11
      341     8874    1        K$RWPARM.MAXNMBRCR = 1;
      342     8875
      343     8876
      344     8877    1        FCN1 = FCN ;
      345     8878    2        DO CASE (FCN1);
      346     8879        %EJECT;
PL6.E3A0      #001=KIA$UCIOND File=KIA$APPLC.:E05TSI                             WED 07/30/97 00:30 Page:12
      347     8880    2        CASE (MFC_DELREC);
      348     8881    2           K$RWPARM.MSG_ERRCODE = DELRECER;
      349     8882    2           K$RWPARM.KEYTYPE = DCB$->F$DCB.KEYTYPE;
      350     8883    2           DVBYTE1 = DVBYTE1|%DVBYTE_TRANS#;
      351     8884    2           K$RWPARM.CVTDAT = '1'B;
      352     8885    2           GOTO WRT1;
      353     8886        %EJECT;
PL6.E3A0      #001=KIA$UCIOND File=KIA$APPLC.:E05TSI                             WED 07/30/97 00:30 Page:13
      354     8887    2        CASE (MFC_WEOF);
      355     8888    2           K$RWPARM.MSG_ERRCODE = EOFERR;
      356     8889    2           GOTO WRT1;
      357     8890        %EJECT;
PL6.E3A0      #001=KIA$UCIOND File=KIA$APPLC.:E05TSI                             WED 07/30/97 00:30 Page:14
      358     8891    2        CASE (MFC_WRIMD);
      359     8892    2           K$RWPARM.MSG$ = MSG$;
      360     8893    2           K$RWPARM.MSGSZ = MSGSZ;
      361     8894                %LOCK(G=LDCT$->LDCT.LOCK);
      362     8897    2           CALL KIA$FCNOU(LDCT$->NK$LDCT,%KV_VDO_FNC_DAT_IMD,K$RWPARM) ALTRET(BRKOUT);
      363     8898                %UNLOCK (G=LDCT$->LDCT.LOCK);
      364     8901
      365     8902        %EJECT;
PL6.E3A0      #001=KIA$UCIOND File=KIA$APPLC.:E05TSI                             WED 07/30/97 00:30 Page:15
      366     8903    2        CASE (MFC_WRITE,MFC_WRUR,MFC_WRBIN,MFC_WRURUC);
      367     8904    2   WRT1:   ;
      368     8905    3           IF LDCT$->LDCT.LKFLG.FPSTEP AND ENTFLG=%DCB# THEN DO;
      369     8906    3                B$JIT.ERR = LDCT$->NK$LDCT.ERR;
      370     8907    3                ALTRETURN;
      371     8908    3              END;
      372     8909    2           K$RWPARM.MSG$ = MSG$;
      373     8910    2           K$RWPARM.MSGSZ = MSGSZ;
      374     8911    2           IF FPT$ ~= ADDR(NIL)
      375     8912    3           THEN DO;
      376     8913    3                CALL HFF$NILERASE (1) ALTRET (NOWRTKEY);
      377     8914    3                CALL HFF$DSIZ(1,USRKEYSZ);
      378     8915    3                USRKEYSZ = MINIMUM(255,USRKEYSZ);
      379     8916    3                K$RWPARM.KEYSZ = USRKEYSZ;
      380     8917    3                K$RWPARM.KEY$ = B$PS1$;
      381     8918    3              END;
      382     8919    2   NOWRTKEY: ;
      383     8920    2           IF FCN1=MFC_WRUR
      384     8921    2           THEN
      385     8922    2                K$RWPARM.TRANS$ = B$XL_UR$;
      386     8923    2           ELSE
      387     8924    2                IF FCN1=MFC_WRURUC
      388     8925    2                THEN
      389     8926    2                     K$RWPARM.TRANS$ = B$XL_UPPER_UR$;
      390     8927    2                ELSE
      391     8928    2                     K$RWPARM.TRANS$ = ADDR(NIL);
      392     8929                %LOCK (G=LDCT$->LDCT.LOCK);
      393     8932    2           IF DVBYTE1&%DVBYTE_RRR#
      394     8933    3           THEN DO;
      395     8934    3                K$RWPARM.MRKTYP = %KV_VDOMRKTYP_ENDACK;
      396     8935    3              END;
      397     8936
      398     8937    2           K$RWPARM.DVE.DVBYTE = DVBYTE1;
      399     8938
      400     8939
      401     8940    2   TRY_WRT_AGAIN:;
      402     8941    2           CALL KIA$WRITE_USER (LDCT$->LDCT,K$RWPARM)
PL6.E3A0      #001=KIA$UCIOND File=KIA$APPLC.:E05TSI                             WED 07/30/97 00:30 Page:16
      403     8942    3           WHENALTRETURN DO;
      404     8943
      405     8944    3                IF S$CU$->B$U.ASYNCH & %(~U_RESET) AND (ENTFLG=%DCB#)
      406     8945    3                     AND NOT S$CU$->B$U.FLG & %U_STIP
      407     8946    3                     OR LDCT$->NK$LDCT.DFLG.FEDN
      408     8947    3                THEN
      409     8948    3                     GOTO BRKOUT;
      410     8949    3                IF K$RWPARM.ERR = %K$NO_THROT
      411     8950    3                THEN
      412     8951    3                     IF K$RWPARM.DVE.DVBYTE.NODAT
      413     8952    4                     THEN DO;
      414     8953    4                          B$JIT.ERR = KIA_NODAT;
      415     8954               /*E* ERROR: KIA-E$NODAT-C
      416     8955                    MESSAGE: No throttling to write %thru %DC %and NODAT specified.
      417     8956                   */
      418     8957    4                          GOTO BRKOUT;
      419     8958    4                        END;
      420     8959    4                     ELSE DO;
      421     8960    4                          CALL SSR$REG (%SS_CBL,LDCT$);
      422     8961                               %LOCK (G=LDCT$->NK$LDCT.LOCK);
      423     8964    4                          GOTO TRY_WRT_AGAIN ;
      424     8965    4                        END;
      425     8966
      426     8967    3                IF K$RWPARM.ERR ~= %K$QFULL
      427     8968    3                THEN
      428     8969    3                     GOTO BRKOUT;
      429     8970    3                CALL KIA$OQFL (LDCT$->LDCT) ALTRET(BRKOUT) ;
      430     8971    3                GOTO TRY_WRT_AGAIN ;
      431     8972    3              END;
      432     8973    2   WAIT_RRR_RESP: ;
      433     8974    2           IF K$RWPARM.MRKTYP ~= 0         /* Must wait for output complete      */
      434     8975    3           THEN DO;
      435     8976    3                PFB = K$RWPARM.STR;        /* clobbered by KIA$MSG (probably) */
      436     8977        /* S unlocks LDCT$->NK$LDCT.LOCK */
      437     8978    3                CALL SSR$REG (%SS_CW,LDCT$);
      438     8979                     %LOCK (G=LDCT$->NK$LDCT.LOCK);
      439     8982    3                K$RWPARM.IP$ = LDCT$->LDCT.IP$;
PL6.E3A0      #001=KIA$UCIOND File=KIA$APPLC.:E05TSI                             WED 07/30/97 00:30 Page:17
      440     8983
      441     8984    3                LDCT$->LDCT.IP$ = ADDR(NIL);
      442     8985    3                IF K$RWPARM.IP$ = ADDR(NIL)
      443     8986    3                THEN
      444     8987    3                     GOTO BRKOUT ;
      445     8988
      446     8989    3                CALL KIQ$MAPFEP(LDCT$->LDCT.IPFEI#);
      447     8990    3                K$RWPARM.UHDR$ = PINCRC(K$RWPARM.IP$,K$RWPARM.IP$->KI$QMHDR.OFFSET);
      448     8991    3                K$RWPARM.UHDRSZ = K$RWPARM.IP$->KI$QMHDR.SIZE;
      449     8992    3                CALL KIA$MSG (K$RWPARM);
      450     8993    3                B$JIT.ERR = K$RWPARM.MSG_ERRCODE;
      451     8994    3                IF NOT B$JIT.ERR
      452     8995    3                THEN
      453     8996    3                     IF K$RWPARM.VDOFLGS.NEWSSN
      454     8997    3                     THEN
      455     8998    3                          B$ROSEG$->B$ROSEG.STREAM_VALID(PFB) = '0'B;
      456     8999    3                     ELSE
      457     9000    3                          B$ROSEG$->B$ROSEG.STREAM_VALID(PFB) = '1'B;
      458     9001    3                IF ENTFLG = %DCB#
      459     9002    3                THEN
      460     9003    3                     DCB$->F$DCB.FLDID = K$RWPARM.FLDID;
      461     9004    3                K$RWPARM.LDCT$ = LDCT$;
      462     9005    3                K$RWPARM.FUNCTION = %K_READDONE;
      463     9006    3                CALL KIS$SEND (K$RWPARM);
      464     9007    3              END;
      465     9008
      466     9009                %UNLOCK (G=LDCT$->LDCT.LOCK);
      467     9012    2           IF B$JIT$->B$JIT.CPFLAGS1 & %CP_DRIBBLE# AND ENTFLG = %DCB#
      468     9013    2                AND DCB$ = B$M$UC$ AND (FCN1 ~= MFC_TCTL)
      469     9014    2           THEN
      470     9015    2                CALL UMD$DOU(DVBYTE,VFC);
      471     9016    2           IF K$RWPARM.TYC
      472     9017    2           THEN
      473     9018    2                B$JIT.ERR = K$RWPARM.MSG_ERRCODE;
      474     9019
      475     9020
      476     9021        %EJECT;
PL6.E3A0      #001=KIA$UCIOND File=KIA$APPLC.:E05TSI                             WED 07/30/97 00:30 Page:18
      477     9022    2        CASE (MFC_READ);
      478     9023
      479     9024         /* If the front end has reported a disconnect read is no longer allowedA */
      480     9025    2           IF LDCT$->NK$LDCT.DFLG.OLDSC
      481     9026    3           THEN DO;
      482     9027    3                B$JIT.ERR = LDSC;
      483     9028    3                ALTRETURN;
      484     9029    3              END;
      485     9030
      486     9031    2           CALL HFF$DSIZ(0,USRKEYSZ);
      487     9032    2           IF FPT$~= ADDR(NIL)
      488     9033    2           THEN
      489     9034    2                IF USRKEYSZ = SIZEC(FPT$->FPT$READ_V)
      490     9035    2                THEN
      491     9036    2                     IF FPT$->FPT$READ_V.SINPUTSIZE ~= 0 AND
      492     9037    2                          NOT (ENTFLG = %DCB# AND
      493     9038    2                          (DCB$ -> F$DCB.ORG = %SE# OR
      494     9039    2                          DCB$ -> F$DCB.ORG = %FORM#))
      495     9040    3                     THEN DO;
      496     9041    3                          K$RWPARM.V$ = ADDR(VSIN);
      497     9042    3                          K$RWPARM.VSZ = LENGTHC(VSIN);
      498     9043    3                          K$RWPARM.PRMID = %KV_PRMID_SINPUT;
      499     9044    3                          K$RWPARM.MSG$ = MSG$;
      500     9045    3                          K$RWPARM.MSGSZ = MINIMUM(MSGSZ,FPT$->FPT$READ_V.SINPUTSIZE);
      501     9046    3                          VSIN.PFB = PFB;
      502     9047    3                          VSIN.POS = FPT$->FPT$READ_V.REREADPOS;
      503     9048    3                          VSIN.POSL6.T = VSIN.POSL66.T;
      504     9049                               %LOCK (G=LDCT$->NK$LDCT.LOCK);
      505     9052    3                          CALL KIA$FCNOU(LDCT$->NK$LDCT,%KV_VDO_FNC_PRM_SET,K$RWPARM)
              9052                                   ALTRET(BRKOUT);
      506     9053                               %UNLOCK (G=LDCT$->NK$LDCT.LOCK);
      507     9056    3                          K$RWPARM.MSGSZ = 0;
      508     9057    3                          K$RWPARM.MSG$ = ADDR(NIL);
      509     9058    3                        END;
      510     9059
      511     9060    3           IF LDCT$->LDCT.LKFLG.FPSTEP AND ENTFLG=%DCB# THEN DO;
      512     9061    3                B$JIT.ERR=NOFPRG;
PL6.E3A0      #001=KIA$UCIOND File=KIA$APPLC.:E05TSI                             WED 07/30/97 00:30 Page:19
      513     9062    3                ALTRETURN;
      514     9063    3              END;
      515     9064    2           IF FPT$ ~= ADDR(NIL) AND FPT$->FPT$READ_V.KEYS
      516     9065    3           THEN DO;
      517     9066    3                CALL HFF$NILERASE (1) ALTRET (NORDKEY);
      518     9067    3                CALL HFF$DSIZ(1,USRKEYSZ);
      519     9068    3                USRKEYSZ = MINIMUM(31,USRKEYSZ);
      520     9069    3                K$RWPARM.KEYSZ = USRKEYSZ;
      521     9070    3                K$RWPARM.KEY$ = B$PS1$;
      522     9071    3              END;
      523     9072    2   NORDKEY: ;
      524     9073    2           TDVB=DVBYTE1;                   /* TO AVOID CALLING TRAPALT           */
      525     9074
      526     9075                %LOCK (G=LDCT$->NK$LDCT.LOCK);
      527     9078
      528     9079        /* If there is a no wait read pending, cancel it */
      529     9080    2           IF DCB$ ~= ADDR(NIL)
      530     9081    2           THEN IF DCB$->F$DCB.WAIT~=0 AND DCB$->F$DCB.FCN.CNT(0) ~= 0
      531     9082    3                THEN DO;
      532     9083
      533     9084    3   CANCEL_READ:      ;
      534     9085        /*
      535     9086             Send a cancel down to other end
      536     9087         */
      537     9088    3                     K$RWPARM = K_RWPARM_CON;
      538     9089    3                     K$RWPARM.STR = LDCT$->NK$LDCT.NOWAIT.STREAM;
      539     9090    3                     K$RWPARM.MRKTYP = %KV_VDOMRKTYP_ENDACK;
      540     9091    3                     CALL KIA$FCNOU(LDCT$->NK$LDCT,%KV_VDO_FNC_RQSDAT,K$RWPARM)
      541     9092    3                          ALTRET (BRKOUT);
      542     9093
      543     9094        /*
      544     9095             Wait for cancel to be acked
      545     9096         */
      546     9097    3                     LDCT$->NK$LDCT.LKFLG.WTMRK = '1'B;
      547     9098    3                     CALL SSR$REG(%SS_CW,LDCT$);
      548     9099                          %LOCK (G=LDCT$->NK$LDCT.LOCK);
      549     9102
PL6.E3A0      #001=KIA$UCIOND File=KIA$APPLC.:E05TSI                             WED 07/30/97 00:30 Page:20
      550     9103        /*
      551     9104             Check to see if the no wait read is still pending
      552     9105          */
      553     9106    4                     DO WHILE LDCT$->NK$LDCT.LKFLG.NOWAIT; /* Need to event */
      554     9107
      555     9108    4                          K$RWPARM = K_RWPARM_CON;
      556     9109    4                          K$RWPARM.MSG_ERRCODE = XTRARD;
      557     9110        /*E* ERROR: KIA-E$XTRARD
      558     9111             MESSAGE: Nowait read %thru %DC %canceled by another read request.
      559     9112             MESSAGE1: A nowait read %thru %DC %was canceled either because
      560     9113                       a subsequent read request specified wait, a different
      561     9114                       buffer size, key size, or keytype, or would have exceeded
      562     9115                       the system maximum of three nowait reads per connection.
      563     9116           */
      564     9117    4                          K$RWPARM.TYC = %TYC_XTRARD;
      565     9118    4                          CALL KIA$COMP(LDCT$->NK$LDCT,K$RWPARM);
      566     9119    4                        END;
      567     9120                          %UNLOCK (G=LDCT$->NK$LDCT.LOCK);
      568     9123    3                     GOTO CMN;             /* rebuild K$RWPARM */
      569     9124    3                   END;
      570     9125                %UNLOCK (G=LDCT$->NK$LDCT.LOCK);
      571     9128        %EJECT;
PL6.E3A0      #001=KIA$UCIOND File=KIA$APPLC.:E05TSI                             WED 07/30/97 00:30 Page:21
      572     9129    2           IF DCB$~=ADDR(NIL) AND DCB$->F$DCB.WAIT=0
      573     9130    3           THEN DO;
      574     9131        /*I*
      575     9132             NAME: NOWAIT_READ
      576     9133             PURPOSE:
      577     9134                  To set up a no wait read function to a terminal
      578     9135             DATA:
      579     9136                  K$RWPARM - Set up with the read information
      580     9137                  LDCT$    - Pointing to the TS's terminal LDCT
      581     9138             DESCRIPTION:
      582     9139                  When a no wait read is performed to a terminal this
      583     9140                  routine sets up the information.  The read will
      584     9141                  be completed by KIA$UCIN calling KIA$COMP when data
      585     9142                  comes in satisfying this read.  We use the comgroup
      586     9143                  context area to map onto the buffers.
      587     9144
      588     9145         */
      589     9146
      590     9147        /*
      591     9148             Check if we need to return a KEY
      592     9149         */
      593     9150    3                NOWAIT = '0'B;
      594     9151    3                USRKEYSZ = 0;
      595     9152    3                IF FPT$~= ADDR(NIL) AND FPT$->FPT$READ_V.KEYR
      596     9153    4                THEN DO;
      597     9154    4                     CALL HFF$NILERASE(1)
      598     9155    5                     WHENRETURN DO;
      599     9156    5                          CALL HFF$DSIZ(1,USRKEYSZ);
      600     9157    5                          IF USRKEYSZ>256 THEN USRKEYSZ = 256;
      601     9158    5                          CALL HFF$WRITE1(1) ALTRET (MTRAP);
      602     9159    5                          NOWAIT.KEYTYP = K$RWPARM.KEYTYPE;
      603     9160    5                          CALL MMS$SETUP_BUF(%USERWSQ,B$PS1$,USRKEYSZ,RPTR$,PTW);
      604     9161    5                          FEPIO.KEYX = POFFC(RPTR$,B$CGCTXT$);
      605     9162    5                          FEPIO.KPP(0) = PTW.PP(0);
      606     9163    5                          FEPIO.KPP(1) = PTW.PP(1);
      607     9164    5                        END;
      608     9165    4                   END;
PL6.E3A0      #001=KIA$UCIOND File=KIA$APPLC.:E05TSI                             WED 07/30/97 00:30 Page:22
      609     9166
      610     9167        /*
      611     9168             Set up the buffer area of the DCB
      612     9169         */
      613     9170    3                FEPSIZ.BUF = MSGSZ;
      614     9171    3                CALL MMS$SETUP_BUF(%USERWSQ,DCB$->F$DCB.UB$,MSGSZ,RPTR$,PTW);
      615     9172    3                FEPIO.BUFX = POFFC(RPTR$,B$CGCTXT$);
      616     9173    3                FEPIO.BPP(0) = PTW.PP(0);
      617     9174    3                FEPIO.BPP(1) = PTW.PP(1);
      618     9175
      619     9176        /* Save the DCB# of the user specified DCB and the event
      620     9177         */
      621     9178    3                FEPIO.EVENT = EVENT;
      622     9179    3                NOWAIT.DCB# = B$JIT.DCBNO;
      623     9180    3                NOWAIT.STREAM = K$RWPARM.STR;
      624     9181    3                CALL FMO$GETDOMAIN(PFB);
      625     9182    3                NOWAIT.DMN = PFB;
      626     9183
      627     9184        /* Make sure we have write access */
      628     9185    3                CALL HFF$WRITE1(2)
      629     9186    4                WHENALTRETURN DO;
      630     9187    4   MTRAP:            B$JIT.ERR = MTRAPERR;
      631     9188                  /*E* ERROR: KIA-E$MTRAP
      632     9189                       MESSAGE: Your buffer is invalid for this read %thru %DC%.
      633     9190                       MESSAGE1: Either the buffer is missing or the wrong access.
      634     9191                        */
      635     9192    4                     K$RWPARM.TYC = %TYC_MTRAP | %TYC_EGV;
      636     9193    4                     GOTO CSEND;
      637     9194    4                   END;
      638     9195
      639     9196        /*
      640     9197             Send the request data
      641     9198         */
      642     9199                     %LOCK (G=LDCT$->NK$LDCT.LOCK);
      643     9202    4                IF LDCT$->NK$LDCT.LKFLG.NOWAIT THEN DO;
      644     9203        /* Some already pending, see if this one is ok to add */
      645     9204
PL6.E3A0      #001=KIA$UCIOND File=KIA$APPLC.:E05TSI                             WED 07/30/97 00:30 Page:23
      646     9205    4                     IF FEPSIZ~=DCB$->F$DCB.FEPSIZ
      647     9206    4                          OR LDCT$->NK$LDCT.NOWAIT~=NOWAIT
      648     9207    4                     THEN GOTO CANCEL_READ;
      649     9208    4                     K$RWPARM.VDOFLGS.INCNMBRCR = '1'B;
      650     9209    4                   END;
      651     9210    4                ELSE DO;
      652     9211    4                     LDCT$->NK$LDCT.NOWAIT = NOWAIT;
      653     9212    4                     DCB$->F$DCB.FEPSIZ = FEPSIZ;
      654     9213    4                   END;
      655     9214    3                DCB_FCN_CNT0 = DCB$->F$DCB.FCN.CNT(0);
      656     9215    3                IF DCB_FCN_CNT0<3
      657     9216    3                     AND (DCB_FCN_CNT0=0
      658     9217    3                     OR FEPIO.BUFX~=DCB$->F$DCB.FEPIO.BUFX
      659     9218    3                     OR FEPIO.BPP(0)~=DCB$->F$DCB.FEPIO.BPP(0))
      660     9219    3                THEN
      661     9220    3                     CALL KIA$FCNOU (LDCT$->NK$LDCT,%KV_VDO_FNC_RQSDAT,K$RWPARM)
      662     9221    3                          ALTRET (BRKOUT);
      663     9222    4                ELSE DO;
      664     9223        /* Gotta cancel one of them */
      665     9224
      666     9225    4                     K$RWPARM = K_RWPARM_CON;
      667     9226    4                     K$RWPARM.MSG_ERRCODE = XTRARD;
      668     9227    4                     K$RWPARM.TYC = %TYC_XTRARD;
      669     9228    4                     CALL KIA$COMP(LDCT$->NK$LDCT, K$RWPARM);
      670     9229    4                     DCB_FCN_CNT0 = DCB_FCN_CNT0 - 1;
      671     9230    4                   END;
      672     9231    3                LDCT$->NK$LDCT.LKFLG.NOWAIT = '1'B;
      673     9232
      674     9233        /*
      675     9234             Increment the user's MF count
      676     9235         */
      677     9236                     %LOCK (G=NI_MFGATE);
      678     9239    3                S$CU$->B$U.MF = S$CU$->B$U.MF + 1;
      679     9240    3                S$CU$->B$U.CMF = S$CU$->B$U.CMF + 1;
      680     9241                     %UNLOCK (G=NI_MFGATE);
      681     9244
      682     9245    3                IF DCB_FCN_CNT0=1
PL6.E3A0      #001=KIA$UCIOND File=KIA$APPLC.:E05TSI                             WED 07/30/97 00:30 Page:24
      683     9246    3                THEN DCB$->F$DCB.FEPIO2 = FEPIO;
      684     9247    3                ELSE IF DCB_FCN_CNT0<1
      685     9248    3                     THEN DCB$->F$DCB.FEPIO = FEPIO;
      686     9249    3                     ELSE DCB$->F$DCB.FEPIO3 = FEPIO;
      687     9250                     %UNLOCK (G=LDCT$->LDCT.LOCK);
      688     9253
      689     9254    3                RETURN;
      690     9255    3              END;
      691     9256        %EJECT;
PL6.E3A0      #001=KIA$UCIOND File=KIA$APPLC.:E05TSI                             WED 07/30/97 00:30 Page:25
      692     9257    2           IF B$JIT$->B$JIT.CPFLAGS1 & %CP_DRIBBLE# AND ENTFLG = %DCB#
      693     9258    2                AND DCB$ = B$M$UC$ AND NOT K$RWPARM.DVE.DVBYTE.TRANS
      694     9259    2           THEN
      695     9260    2                CALL UMD$DPMT;             /* Dribble the prompt string */
      696     9261    2           K$RWPARM.VDOFLGS.WAIT = '1'B;
      697     9262    2           CALL READS ALTRET (BRKOUTR);
      698     9263    2           B$JIT.INTER=B$JIT.INTER+1;
      699     9264    3           IF ENTFLG=%DCB# THEN DO;
      700     9265    3                DCB$->F$DCB.DVBYTE=K$RWPARM.DVE.DVBYTE;
      701     9266    3                DCB$->F$DCB.EOMCHAR=K$RWPARM.DVE.EOMCHAR;
      702     9267    3                DCB$->F$DCB.FLDID=K$RWPARM.FLDID;
      703     9268    3                DCB$->F$DCB.ACTPOS=K$RWPARM.ACTPOS;
      704     9269    3              END;
      705     9270    3           ELSE DO;
      706     9271    3                DVBYTE=K$RWPARM.DVE.DVBYTE;
      707     9272    3                EOMCHAR=K$RWPARM.DVE.EOMCHAR;
      708     9273    3              END;
      709     9274    2           IF B$JIT$->B$JIT.CPFLAGS1 & %CP_DRIBBLE# AND ENTFLG = %DCB#
      710     9275    2                AND DCB$ = B$M$UC$ AND NOT K$RWPARM.DVE.DVBYTE.TRANS
      711     9276    2           THEN
      712     9277    2                CALL UMD$DIN(K$RWPARM.TYC);
      713     9278
      714     9279
      715     9280        %EJECT;
PL6.E3A0      #001=KIA$UCIOND File=KIA$APPLC.:E05TSI                             WED 07/30/97 00:30 Page:26
      716     9281    2        CASE (MFC_RSTAT);
      717     9282    2           K$RWPARM.PRMID=PCODE;
      718     9283    2           CALL READS ALTRET (BRKOUTR);
      719     9284
      720     9285
      721     9286        %EJECT;
PL6.E3A0      #001=KIA$UCIOND File=KIA$APPLC.:E05TSI                             WED 07/30/97 00:30 Page:27
      722     9287    2        CASE (MFC_TCTL);
      723     9288    2           PFCN=TFCN;
      724     9289    2           IF ADDR(BUF$)~=ADDR(NIL)
      725     9290    2           THEN
      726     9291    2                K$RWPARM = BUF$->KI$RWPARM;
      727     9292    2           ELSE
      728     9293    2                K$RWPARM = K_RWPARM_CON;
      729     9294    2           K$RWPARM.STR = PFB;
      730     9295    2           K$RWPARM.DVE.VFC = VFC;
      731     9296    2           K$RWPARM.TYC='0'B;
      732     9297    2           IF K$RWPARM.DVE.DVBYTE.RRR OR LDCT$->LDCT.TCTLCNT >= KIA_TCTLMAX
      733     9298    2           THEN
      734     9299    2                K$RWPARM.MRKTYP = %KV_VDOMRKTYP_ENDACK;
      735     9300    2           K$RWPARM.DVE.DVBYTE = '0'B;
      736     9301    2           IF PFCN = 0
      737     9302    2           THEN
      738     9303    2                LDCT$->LDCT.DFLG.NOSND = ~K$RWPARM.VDOFLGS.SEND;
      739     9304    3           ELSE DO;
      740     9305                     %LOCK (G=LDCT$->LDCT.LOCK);
      741     9308    3                CALL KIA$FCNOU (LDCT$->LDCT,PFCN,K$RWPARM) ALTRET (BRKOUT);
      742     9309    3                LDCT$->LDCT.TCTLCNT = LDCT$->LDCT.TCTLCNT + 1;
      743     9310    3                GOTO WAIT_RRR_RESP;
      744     9311    3              END;
      745     9312
      746     9313
      747     9314        %EJECT;
PL6.E3A0      #001=KIA$UCIOND File=KIA$APPLC.:E05TSI                             WED 07/30/97 00:30 Page:28
      748     9315    2        CASE (ELSE);
      749     9316    2           CALL SC_BTSFCN;
      750     9317        /*S*  SCREECH_CODE:  KIA-S$BMDFCN
      751     9318              TYPE:          SUA
      752     9319              MESSAGE:       Illegal media function passed on timesharing I/O
      753     9320              REMARKS:       Several media layer functions which are legal for
      754     9321                             files, etc. are not legal for timesharing terminals
      755     9322                             This SUA occurs when one of these is passed to KIA$UCIO
      756     9323                             NKA$DEVIO (NKA-S$BMDFCN) and KCI$RWCG (KCI-S$BMDFCN)
      757     9324                             also report this screech code in similar situations     */
      758     9325    2        END;
      759     9326
      760     9327
      761     9328
      762     9329
      763     9330
      764     9331    1   CSEND: ;
      765     9332    1        IF ENTFLG~=%DCB#
      766     9333    2        THEN DO;
      767     9334    2             IF ADDR(TYC) ~= ADDR(NIL)
      768     9335    2             THEN
      769     9336    2                  TYC = K$RWPARM.TYC;
      770     9337    2           END;
      771     9338    1        ELSE IF DCB$->F$DCB.WAIT ~= 0
      772     9339    1             THEN
      773     9340    1                  DCB$->F$DCB.TYC(1)=K$RWPARM.TYC;
      774     9341    1             ELSE IF EVENT=0
      775     9342    1                  THEN
      776     9343    1                       DCB$->F$DCB.TYC(0)=DCB$->F$DCB.TYC(0)|K$RWPARM.TYC;
      777     9344    1                  ELSE
      778     9345    1                       CALL NKA$EVENT (K$RWPARM.TYC,EVENT);
      779     9346
      780     9347    1        IF B$JIT.ERR
      781     9348    1        THEN
      782     9349    1             ALTRETURN;
      783     9350
      784     9351    1        RETURN;
PL6.E3A0      #001=KIA$UCIOND File=KIA$APPLC.:E05TSI                             WED 07/30/97 00:30 Page:29
      785     9352
      786     9353
      787     9354    1   BRKOUTR: ;
      788     9355
      789     9356        /* Check to see if there was a trap on the buffer */
      790     9357    1        IF K$RWPARM.ERR = %K$BAD_BUFFER
      791     9358    2        THEN DO;
      792     9359    2             K$RWPARM.TYC = %TYC_MTRAP | %TYC_EGV;
      793     9360    2             ALTRETURN;
      794     9361    2           END;
      795     9362    1        B$JIT$->B$JIT.ERR=BYDR;
      796     9363        /*E*  ERROR:         KIA-E$BYDR-C
      797     9364               MESSAGE: Asynchronous event interrupted terminal read %thru %DC%.
      798     9365              MESSAGE1: One of the following occurred while a read to
      799     9366                        your timesharing terminal was pending: BREAK,
      800     9367                        CONTROL-Y, X keyin, E keyin,  DISCONNECT.  If
      801     9368                        you can continue the read will be re-issued.
      802     9369              DESCRIPTION:   As a rule, the user never sees this error.  Either
      803     9370                             he is Xed, ERRORed, or disconnected such that he
      804     9371                             does not continue to run; or BREAK or CTL-Y was
      805     9372                             hit.  In the case of BREAK, the users break control
      806     9373                             routine can examine this code to discover whether
      807     9374                             a read to the terminal was interrupted.
      808     9375                             In any case B$JIT.JUNK.JJ_BAKIC is set such that
      809     9376                             if the user does an M$TRTN or says GO to IBEX the
      810     9377                             interrupted pmme is re-issued                           */
      811     9378    1        GOTO BKOUT;
      812     9379
      813     9380    1   BRKOUT: ;
      814     9381
      815     9382             %UNLOCK (G=LDCT$->LDCT.LOCK);
      816     9385    1        IF B$JIT.ERR = KIA_NODAT
      817     9386    1        THEN
      818     9387    1             ALTRETURN;
      819     9388        /* Check to see if there was a trap on the buffer */
      820     9389    1        IF K$RWPARM.ERR = %K$BAD_BUFFER
      821     9390    2        THEN DO;
PL6.E3A0      #001=KIA$UCIOND File=KIA$APPLC.:E05TSI                             WED 07/30/97 00:30 Page:30
      822     9391    2             K$RWPARM.TYC = %TYC_MTRAP | %TYC_EGV;
      823     9392    2             ALTRETURN;
      824     9393    2           END;
      825     9394    1        B$JIT$->B$JIT.ERR=BYD;
      826     9395        /*E*  ERROR:         KIA-E$BYD-C
      827     9396               MESSAGE: Asynchronous event interrupted terminal I/O %thru %DC%.
      828     9397              MESSAGE1: One of the following occurred while I/O to
      829     9398                        your timesharing terminal was pending: BREAK,
      830     9399                        CONTROL-Y, X keyin, E keyin,  DISCONNECT.  If
      831     9400                        you can continue the I/O will be re-issued.
      832     9401              DESCRIPTION:   As a rule, the user never sees this error.  Either
      833     9402                             he is Xed, ERRORed, or disconnected such that he
      834     9403                             does not continue to run; or BREAK or CTL-Y was
      835     9404                             hit.  In the case of BREAK, the users break control
      836     9405                             routine can examine this code to discover whether
      837     9406                             terminal writes or control pmmes were in progress.
      838     9407                             In any case B$JIT.JUNK.JJ_BAKIC is set such that
      839     9408                             if the user does an M$TRTN or says GO to IBEX the
      840     9409                             interrupted pmme is re-issued                           */
      841     9410    1   BKOUT: ;
      842     9411    1        IF LDCT$->NK$LDCT.DFLG.OLDSC       /* ERRCODE IS IN LDCT */
      843     9412    1             AND LDCT$->NK$LDCT.ERR ~= '0'B
      844     9413    2        THEN DO;
      845     9414    2             B$JIT$->B$JIT.ERR = LDCT$->NK$LDCT.ERR;
      846     9415    2             LDCT$->NK$LDCT.ERR = '0'B;
      847     9416    2           END;
      848     9417    1        IF S$CU$->B$U.ASYNCH & %(~U_RESET)
      849     9418    1        THEN
      850     9419    1             B$JIT$->B$JIT.JUNK=B$JIT$->B$JIT.JUNK|%JJ_BAKIC#;
      851     9420    1        ALTRETURN;
      852     9421        %EJECT;
PL6.E3A0      #001=KIA$UCIOND File=KIA$APPLC.:E05TSI                             WED 07/30/97 00:30 Page:31
      853     9422    1   KIA$CLSSTR: ENTRY (FCN,DVBYTE,VFC) ALTRET;
      854     9423
      855     9424    1        ENTFLG = %NODCB#;
      856     9425    1        K$RWPARM = K_RWPARM_CON;
      857     9426    1        K$RWPARM.STR = ADDR(FCN)->STR;
      858     9427    1        K$RWPARM.VDOFLGS.DLTSTR = ADDR(DVBYTE)->DLTSTR;
      859     9428    1        K$RWPARM.VDOFLGS.NEWSSN = ADDR(VFC)->NEWSSN;
      860     9429    1        LDCT$ = NK$LDCT$(B$M$UC$->F$DCB.LDCTX);
      861     9430    1        B$M$UC$->F$DCB.STR = 1;       /* Don't leave this strid lying around */
      862     9431             %LOCK (G=LDCT$->LDCT.LOCK);
      863     9434    1        IF K$RWPARM.VDOFLGS.NEWSSN
      864     9435    1        THEN
      865     9436    1             K$RWPARM.MRKTYP = %KV_VDOMRKTYP_ENDACK;
      866     9437    1        CALL KIA$FCNOU(LDCT$->LDCT,%KV_VDO_FNC_CLSSTR,K$RWPARM) ALTRET(BRKOUT);
      867     9438    1        IF K$RWPARM.VDOFLGS.DLTSTR
      868     9439    1        THEN
      869     9440    1             B$ROSEG$->B$ROSEG.STREAM_VALID(K$RWPARM.STR) = '0'B;
      870     9441    1        GOTO WAIT_RRR_RESP;
      871     9442        %EJECT;
PL6.E3A0      #001=KIA$UCIOND File=KIA$APPLC.:E05TSI                             WED 07/30/97 00:30 Page:32
      872     9443    1   KIA$OPNSSN: ENTRY (FCN) ALTRET;
      873     9444
      874     9445    1        ENTFLG = %NODCB#;
      875     9446    1        K$RWPARM = K_RWPARM_CON;
      876     9447    1        LDCT$ = ADDR(FCN);
      877     9448             %LOCK (G=LDCT$->LDCT.LOCK);
      878     9451    1        K$RWPARM.MRKTYP = %KV_VDOMRKTYP_ENDACK;
      879     9452    1        CALL KIA$FCNOU(LDCT$->LDCT,%KV_VDO_FNC_OPNSSN_RQS,K$RWPARM) ALTRET(BRKOUT);
      880     9453    1        GOTO WAIT_RRR_RESP;
      881     9454        %EJECT;
PL6.E3A0      #001=KIA$UCIOND File=KIA$APPLC.:E05TSI                             WED 07/30/97 00:30 Page:33
      882     9455    1   KIA$DCLSTR: ENTRY (FCN,DVBYTE) ALTRET;
      883     9456
      884     9457    1        ENTFLG = %NODCB#;
      885     9458    1        K$RWPARM = K_RWPARM_CON;
      886     9459    1   DCLSTR: ;
      887     9460    1        K$RWPARM.STR = ADDR(FCN)->STR;
      888     9461    1        K$RWPARM.STRID = ADDR(DVBYTE)->STRID;
      889     9462    1        LDCT$ = NK$LDCT$(B$M$UC$->F$DCB.LDCTX);
      890     9463             %LOCK (G=LDCT$->LDCT.LOCK);
      891     9466    1        K$RWPARM.MRKTYP = %KV_VDOMRKTYP_ENDACK;
      892     9467    1        CALL KIA$FCNOU(LDCT$->LDCT,%KV_VDO_FNC_DCLSTR,K$RWPARM) ALTRET(BRKOUT);
      893     9468    1        K$RWPARM.STR = K$RWPARM.STRID;     /* mark the stream ok if no error */
      894     9469    1        GOTO WAIT_RRR_RESP;
      895     9470        %EJECT;
PL6.E3A0      #001=KIA$UCIOND File=KIA$APPLC.:E05TSI                             WED 07/30/97 00:30 Page:34
      896     9471    1   KIA$REDSTR: ENTRY(FCN,DVBYTE) ALTRET;
      897     9472
      898     9473    1        ENTFLG = %NODCB#;
      899     9474    1        K$RWPARM = K_RWPARM_CON;
      900     9475    1        K$RWPARM.VDOFLGS.REDSTR = '1'B;
      901     9476    1        GOTO DCLSTR;
      902     9477
      903     9478        %EJECT;
PL6.E3A0      #001=KIA$UCIOND File=KIA$APPLC.:E05TSI                             WED 07/30/97 00:30 Page:35
      904     9479    1   KIA$OPNSTR: ENTRY (FCN,DVBYTE) ALTRET;
      905     9480
      906     9481    1        ENTFLG = %NODCB#;
      907     9482    1        K$RWPARM = K_RWPARM_CON;
      908     9483    1        K$RWPARM.STR = ADDR(FCN)->STR;
      909     9484
      910     9485    1        IF ADDR(DVBYTE)->F$DCB.ORG = %FORM#
      911     9486    1        THEN
      912     9487    1             K$RWPARM.ORG = %KV#VD_ORG_FORM;
      913     9488    1        ELSE IF ADDR(DVBYTE)->F$DCB.ORG = %X364#
      914     9489    1             THEN
      915     9490    1                  K$RWPARM.ORG = %KV#VD_ORG_X364;
      916     9491    1             ELSE IF ADDR(DVBYTE)->F$DCB.ORG = %SE#
      917     9492    2                  THEN DO;
      918     9493    2                       K$RWPARM.ORG = %KV#VD_ORG_SE;
      919     9494    2                       IF ADDR(DVBYTE)->F$DCB.KEYL=0 OR ADDR(DVBYTE)->F$DCB.KEYL>4
      920     9495    2                       THEN ADDR(DVBYTE)->F$DCB.KEYL = 4;
      921     9496    2                       K$RWPARM.KEYSZ = ADDR(DVBYTE)->F$DCB.KEYL;
      922     9497    2                       K$RWPARM.SPARE = ADDR(DVBYTE)->F$DCB.SPARE;
      923     9498    2                       K$RWPARM.NRECS = ADDR(DVBYTE)->F$DCB.NRECS;
      924     9499    2                       IF ADDR(DVBYTE)->F$DCB.KEYTYPE=0
      925     9500    2                       THEN ADDR(DVBYTE)->F$DCB.KEYTYPE = %KEYTYPE_BIN10#;
      926     9501    2                     END;
      927     9502    1                  ELSE
      928     9503    1                       K$RWPARM.ORG = %KV#VD_ORG_UR;
      929     9504    1        LDCT$ = NK$LDCT$(B$M$UC$->F$DCB.LDCTX);
      930     9505             %LOCK (G=LDCT$->LDCT.LOCK);
      931     9508    1        IF K$RWPARM.ORG ~= %KV#VD_ORG_UR
      932     9509    1        THEN
      933     9510    1             K$RWPARM.MRKTYP = %KV_VDOMRKTYP_ENDACK;
      934     9511    1        CALL KIA$FCNOU(LDCT$->LDCT,%KV_VDO_FNC_OPNSTR,K$RWPARM) ALTRET(BRKOUT);
      935     9512    1        GOTO WAIT_RRR_RESP;
      936     9513        %EJECT;
PL6.E3A0      #001=KIA$UCIOND File=KIA$APPLC.:E05TSI                             WED 07/30/97 00:30 Page:36
      937     9514    1   KIA$WINDOW: ENTRY(FCN,DVBYTE) ALTRET;
      938     9515
      939     9516    1        ENTFLG = %NODCB#;
      940     9517    1        CALL FSN$CONV_STR (ADDR(DVBYTE)->VLP$WINDOW_V.FWINDOW,ADDR(DVBYTE)->
              9517                 VLP$WINDOW_V.FSTR.ID)
      941     9518    2        WHENALTRETURN DO;
      942     9519    2             ALTRETURN;
      943     9520    2           END;
      944     9521    1        CALL KIA$9TO8 (ADDR(DVBYTE)->WINDOW.LENGTH,
      945     9522    1             ADDR(DVBYTE)->WINDOW.LENGTH,2);
      946     9523    1        CALL KIA$9TO8 (ADDR(DVBYTE)->WINDOW.WIDTH,
      947     9524    1             ADDR(DVBYTE)->WINDOW.WIDTH,2);
      948     9525    1        CALL KIA$9TO8 (ADDR(DVBYTE)->WINDOW.ORG_PST.COLUMN,
      949     9526    1             ADDR(DVBYTE)->WINDOW.ORG_PST.COLUMN,2);
      950     9527    1        K$RWPARM = K_RWPARM_CON;
      951     9528    1        K$RWPARM.STR = ADDR(FCN)->STR;
      952     9529    1        K$RWPARM.MSG$ = ADDR(DVBYTE);
      953     9530    1        K$RWPARM.MSGSZ = SIZEC(VLP$WINDOW_V);
      954     9531    1        K$RWPARM.PRMID = %KV_PRMID_WINDOW;
      955     9532    1        LDCT$ = NK$LDCT$(B$M$UC$->F$DCB.LDCTX);
      956     9533             %LOCK (G=LDCT$->LDCT.LOCK);
      957     9536    1        CALL KIA$FCNOU(LDCT$->LDCT,%KV_VDO_FNC_PRM_SET,K$RWPARM) ALTRET(BRKOUT);
      958     9537             %UNLOCK (G=LDCT$->NK$LDCT.LOCK);
      959     9540    1        RETURN;
      960     9541
      961     9542        %EJECT;
PL6.E3A0      #001=KIA$UCIOND File=KIA$APPLC.:E05TSI                             WED 07/30/97 00:30 Page:37
      962     9543    1   READS: PROC ALTRET;
      963     9544
      964     9545        /*I*
      965     9546             NAME: READS
      966     9547             PURPOSE:
      967     9548                  To perform a read function from the terminal.
      968     9549             CALL:
      969     9550                  CALL READS ALTRET( );
      970     9551             DATA:
      971     9552                  K$RWPARM - Set up with the read information
      972     9553                  LDCT$    - Pointing to the TS terminal's LDCT
      973     9554             DESCRIPTION:
      974     9555                  When a read is done from the terminal the first thing send
      975     9556                  to the terminal is a read request then the user if regged for
      976     9557                  communication read event. When a message comes in satisfying the
      977     9558                  read, KIA$UCIN unreg's the user. A read is done from KIS$SEND
      978     9559                  which will find the message that caused the read completion and
      979     9560                  move it into the user's buffer. If a BRK or CNTRL Y interrupted
      980     9561                  the read and this is not KIA$UCIOND, this procedure
      981     9562                  will ALTRETURN.
      982     9563        */
      983     9564    2        IF MSGSZ = 0 OR MSG$ = ADDR(NIL)   /* No read buffer */
      984     9565    2        THEN
      985     9566    2             RETURN;
      986     9567             %LOCK (G=LDCT$->NK$LDCT.LOCK);
      987     9570    2        IF FCN = MFC_READ
      988     9571    2        THEN
      989     9572    2             CALL KIA$FCNOU (LDCT$->NK$LDCT,%KV_VDO_FNC_RQSDAT,K$RWPARM) ALTRET (BRKCK)
              9572                      ;
      990     9573    2        ELSE
      991     9574    2             CALL KIA$FCNOU (LDCT$->NK$LDCT,%KV_VDO_FNC_RQSPRM,K$RWPARM) ALTRET (BRKCK)
              9574                      ;
      992     9575
      993     9576        /* SS unlock LDCT$->NK$LDCT.LOCK */
      994     9577    2        IF ENTFLG ~= %DCB#
      995     9578    2        THEN
      996     9579    2             CALL SSR$REG(%SS_CW,LDCT$) ALTRET(REGALT);
PL6.E3A0      #001=KIA$UCIOND File=KIA$APPLC.:E05TSI                             WED 07/30/97 00:30 Page:38
      997     9580    2        ELSE
      998     9581    2             CALL SSR$REG (%SS_CRD,LDCT$) ALTRET(REGALT);
      999     9582             %LOCK (G=LDCT$->NK$LDCT.LOCK);
     1000     9585    2   READ_IT: ;
     1001     9586    2        K$RWPARM.IP$ = LDCT$->LDCT.IP$;
     1002     9587    2        LDCT$->LDCT.IP$ = ADDR(NIL);
     1003     9588    2        IF K$RWPARM.IP$ = ADDR(NIL)
     1004     9589    2        THEN GOTO BRKCK;
     1005     9590    2        CALL KIQ$MAPFEP (LDCT$->NK$LDCT.IPFEI#);
     1006     9591    2        K$RWPARM.UHDR$ = PINCRC(K$RWPARM.IP$,K$RWPARM.IP$->KI$QMHDR.OFFSET);
     1007     9592    2        K$RWPARM.UHDRSZ = K$RWPARM.IP$->KI$QMHDR.SIZE;
     1008     9593    2        K$RWPARM.TYC = '0'B;
     1009     9594    2        CALL KIA$MSG (K$RWPARM);
     1010     9595    2        IF MSGSZ<K$RWPARM.MSGSZ THEN K$RWPARM.TYC=K$RWPARM.TYC|%TYC_DI|%TYC_EGV;
     1011     9596    2        ELSE MSGSZ=K$RWPARM.MSGSZ;
     1012     9597    2        IF ENTFLG=%DCB#
     1013     9598    2        THEN DCB$->F$DCB.ARS=MSGSZ;
     1014     9599    2        ELSE BUFLEN=MSGSZ;
     1015     9600    2        IF K$RWPARM.MSG$ ~= ADDR(NIL)
     1016     9601    3        THEN DO;
     1017     9602    3             CALL HFF$TRAPALT ALTRET (BADRBUF);
     1018     9603    3             MSG$->VCHRM = K$RWPARM.MSG$->VCHRM;
     1019     9604    3           END;
     1020     9605    2        IF K$RWPARM.KEY$ ~= ADDR(NIL) AND FPT$ ~= ADDR(NIL) AND FPT$->FPT$READ_V.KEYR
     1021     9606    3        THEN DO;
     1022     9607    3             CALL HFF$TRAPALT ALTRET (BADRBUF);
     1023     9608    3             CALL HFF$DSIZ(1,USRKEYSZ);
     1024     9609    3             B$PS1$->USRKEY = K$RWPARM.KEY$->KEY;
     1025     9610    3           END;
     1026     9611    2   TRTNR: ;
     1027     9612    2        B$JIT.ERR = K$RWPARM.MSG_ERRCODE;
     1028     9613    2        K$RWPARM.LDCT$ = LDCT$;
     1029     9614    2        K$RWPARM.FUNCTION = %K_READDONE;
     1030     9615    2        CALL KIS$SEND (K$RWPARM) ALTRET(BRKCK);
     1031     9616    2        IF LDCT$->LDCT.LKFLG.WTMRK
     1032     9617    2        THEN
     1033     9618    2             CALL SSR$REG(%SS_CW,LDCT$);
PL6.E3A0      #001=KIA$UCIOND File=KIA$APPLC.:E05TSI                             WED 07/30/97 00:30 Page:39
     1034     9619    2        ELSE
     1035     9620                  %UNLOCK (G=LDCT$->NK$LDCT.LOCK);
     1036     9623    2        IF K$RWPARM.TYC&%TYC_DISC
     1037     9624    3        THEN DO;
     1038     9625    3             K$RWPARM.TYC='0'B;
     1039     9626    3             ALTRETURN;
     1040     9627    3           END;
     1041     9628    2        RETURN;
     1042     9629
     1043     9630
     1044     9631    2   BADRBUF: ;
     1045     9632    2        K$RWPARM.TYC = %TYC_MTRAP | %TYC_EGV;
     1046     9633    2        GOTO TRTNR;
     1047     9634    2   REGALT: ;
     1048     9635             %LOCK (G=LDCT$->NK$LDCT.LOCK);
     1049     9638    2        IF NOT LDCT$->LDCT.LKFLG.MRKPND    /* Pending marker from brk  */
     1050     9639    3        THEN DO;
     1051     9640    3             IF LDCT$->LDCT.IP$ ~= ADDR(NIL)
     1052     9641    3             THEN
     1053     9642    3                  GOTO READ_IT;
     1054     9643    3             K$RWPARM.MRKTYP = %KV_VDOMRKTYP_ENDACK;
     1055     9644    3             LDCT$->LDCT.LKFLG.WTMRK = '1'B;
     1056     9645    3             K$RWPARM.MAXNMBRCR = 0;
     1057     9646    3             CALL KIA$FCNOU (LDCT$->NK$LDCT,%KV_VDO_FNC_RQSDAT,K$RWPARM) ALTRET(BRKCK);
     1058     9647        /* SS unlocks LDCT$->LDCT.LOCK */
     1059     9648    3             CALL SSR$REG (%SS_CW,LDCT$);
     1060     9649                  %LOCK (G=LDCT$->LDCT.LOCK);
     1061     9652    3           END;
     1062     9653    2        IF LDCT$->LDCT.IP$ ~= ADDR(NIL)
     1063     9654    2        THEN
     1064     9655    2             GOTO READ_IT;
     1065     9656    2   BRKCK: ;
     1066     9657             %UNLOCK (G=LDCT$->NK$LDCT.LOCK);
     1067     9660    2        IF K$RWPARM.ERR~=0
     1068     9661    2        THEN
     1069     9662    2             ALTRETURN;
     1070     9663    2        IF S$CU$->B$U.ASYNCH&%(~U_RESET)='0'B
PL6.E3A0      #001=KIA$UCIOND File=KIA$APPLC.:E05TSI                             WED 07/30/97 00:30 Page:40
     1071     9664    2        THEN
     1072     9665    2             CALL SC_ICQLST;
     1073     9666        /*S*  SCREECH_CODE:  KIA-S$ICQLDT
     1074     9667              TYPE:          Screech
     1075     9668              MESSAGE:       FEP input circular queue data inconsistancy
     1076     9669              REMARKS:       When timesharing input data is recieved into the
     1077     9670                             ICQ at interrupt time it is left there to be picked
     1078     9671                             up in this code while running on behalf of the user.
     1079     9672                             This screech occurs when the user is unREGed for
     1080     9673                             other than asynchronous (break,etc.) reasons and his
     1081     9674                             data cannot be found.  This suggests that the ICQ
     1082     9675                             has been clobbered in some way or the scheduler is
     1083     9676                             sick.  Experience suggests checking SCHED first.        */
     1084     9677    2   ALTRT: ;
     1085     9678    2        ALTRETURN;
     1086     9679    2   END READS;
     1087     9680
     1088     9681        %EJECT;
PL6.E3A0      #001=KIA$UCIOND File=KIA$APPLC.:E05TSI                             WED 07/30/97 00:30 Page:41
     1089     9682
     1090     9683    1   END KIA$UCIOND;
     1091     9684
     1092     9685
     1093     9686        %EOD;

PL6.E3A0      #001=KIA$UCIOND File=KIA$APPLC.:E05TSI                             WED 07/30/97 00:30 Page:42
--  Include file information  --

   UD_SEV_C.:E05TOU  is referenced.
   F_ERRORS_C.:E05TOU  is referenced.
   KV_ERRORS_C.:E05TOU  is referenced.
   KI_ERRORS_C.:E05TOU  is referenced.
   UM_CP6.:E05TOU  is referenced.
   K$RWPARM.:E05TOU  is referenced.
   K_DATA_R.:E05TOU  cannot be made into a system file and is referenced.
   K_SUBS_C.:E05TOU  is referenced.
   KI_SUBS_C.:E05TOU  is referenced.
   NK_SUBS.:E05TOU  is referenced.
   SS_SCHED_C.:E05TOU  is referenced.
   CP_6_SUBS.:E05TOU  is referenced.
   F_FPTCODE_C.:E05TOU  is referenced.
   HF_LOCK_C.:E05TOU  cannot be made into a system file and is referenced.
   KV_PRMID_E.:E05TOU  is referenced.
   KV_GLBCNS_E.:E05TOU  is referenced.
   KI$CP6V_C.:E05TOU  is referenced.
   KV$VDO.:E05TOU  is referenced.
   KI$MHDR.:E05TOU  is referenced.
   F$DCB.:E05TOU  cannot be made into a system file and is referenced.
   NK$LDCT.:E05TOU  is referenced.
   B$JIT_C.:E05TOU  is referenced.
   B$USER.:E05TOU  cannot be made into a system file and is referenced.
   KI_DATA_R.:E05TOU  cannot be made into a system file and is referenced.
   B$TABLES_C.:E05TOU  cannot be made into a system file and is referenced.
   NK_LDCT_R.:E05TOU  cannot be made into a system file and is referenced.
   F$CP6V_C.:E05TOU  is referenced.
   B_STRINGS_C.:E05TOU  is referenced.
   B$ROSEG.:E05TOU  cannot be made into a system file and is referenced.
      No diagnostics issued in procedure KIA$UCIOND.

   Procedure KIA$UCIOND requires 1743 words for executable code.
   Procedure KIA$UCIOND requires 80 words of local(AUTO) storage.
PL6.E3A0      #001=KIA$UCIOND File=KIA$APPLC.:E05TSI                             WED 07/30/97 00:30 Page:43

PL6.E3A0      #001=KIA$UCIOND File=KIA$APPLC.:E05TSI                             WED 07/30/97 00:30 Page:44

 Object Unit name= KIA$UCIOND                                 File name= KIA$APPLC.:E05TOU
 UTS= JUL 30 '97 00:30:52.36 WED                              Compiler= PL-6/E31         Sev=      00
 SharedLib= :SHARED_SYSTEM                                    Alt SharedLib=


    ****  Control sections  ****

 Sect   Type Bound  Init  Size OctSiz  Section name(segment info)
    0  RoData even  UTS     20     24  KIA$UCIOND
    1   Proc  even  none  1743   3317  KIA$UCIOND
    2  RoData even  none    29     35  KIA$UCIOND

    ****  Entry defs  ****

                              Check   Calling
                             calling  sequence
  Sect OctLoc Primary Altret sequence   type   Parms  Name
     1      0   yes    yes     yes      Std        7  KIA$UCIOND
     1     31          yes     yes      Std        4  KIA$UCIOD
     1     34          yes     yes      Std        5  KIA$UCIO
     1   2232          yes     yes      Std        3  KIA$CLSSTR
     1   2322          yes     yes      Std        1  KIA$OPNSSN
     1   2355          yes     yes      Std        2  KIA$DCLSTR
     1   2425          yes     yes      Std        2  KIA$REDSTR
     1   2437          yes     yes      Std        2  KIA$OPNSTR
     1   2557          yes     yes      Std        2  KIA$WINDOW

  ****  Data defs  ****

 Sect OctLoc  Name                           Sect OctLoc  Name
    0      0  KIA_TCTLMAX                        0      6  KIA_NODAT
PL6.E3A0      #001=KIA$UCIOND File=KIA$APPLC.:E05TSI                             WED 07/30/97 00:30 Page:45

  ****  Entry refs  ****

         Check        Calling
        calling       sequence
Altret sequence SRef   type   Args  Name
         yes          ~proc      0 B_POINTER
         yes           Std       1 HFC$UNLOCK
 yes     yes           Std       3 SSR$REG
 yes     yes           Std       5 MMS$SETUP_BUF
         yes           Std       1 FMO$GETDOMAIN
 yes     yes           Std       1 HFF$WRITE1
 yes     yes           Std       2 FSN$CONV_STR
         yes           Std       1 HFC$LOCK
 yes     yes           Std       3 KIA$FCNOU
 yes     yes           Std       1 HFF$NILERASE
         yes           Std       2 HFF$DSIZ
 yes     yes           Std       1 KIS$SEND
         yes           Std       1 KIQ$MAPFEP
         yes           Std       3 KIA$9TO8
 yes     yes           Std       0 UMD$DPMT
         yes           Std       2 NKA$EVENT
 yes     yes           Std       2 KIA$WRITE_USER
 yes     yes           Std       1 KIA$OQFL
 yes     yes           Std       2 UMD$DOU
         yes           Std       2 KIA$COMP
 yes     yes           Std       1 UMD$DIN
 yes     yes           Std       1 KIA$MSG
 yes     yes           Std       0 HFF$TRAPALT
                       Std       0 B_CONSPOOL_D
                       nStd      0 X66_AUTO_N
                       nStd      0 X66_AALT
                       nStd      0 X66_ARET
PL6.E3A0      #001=KIA$UCIOND File=KIA$APPLC.:E05TSI                             WED 07/30/97 00:30 Page:46

  ****  Data refs  ****

  Flags:  r = read only, s = secondary
Flgs Name                             Flgs Name                             Flgs Name
     SC_BTSFCN                             SC_NTSDCTI                            SC_ICQLST
     N$DCT$$                          r    B$XL_UR$                         r    B$XL_UPPER_UR$
     KI_FEI$$                              S$CU$                            r    K_RWPARM_CON
r    B$CGCTXT$                        r    B$JIT$                           r    B$PS1$
r    B$ROSEG$                         r    B$M$UC$                               NI_MFGATE
     B_VECTNIL

  ****  Segment refs  ****

  Flags:  r = read only, s = secondary
Flgs Name                             Flgs Name                             Flgs Name
     ASLENTSID                             ISSID
PL6.E3A0      #001=KIA$UCIOND File=KIA$APPLC.:E05TSI                             WED 07/30/97 00:30 Page:47


        1        1        /*M* KIA$APPLC - Application layer service routines*/
        2        2        /*T***********************************************************/
        3        3        /*T*                                                         */
        4        4        /*T* Copyright (c) Bull HN Information Systems Inc., 1997    */
        5        5        /*T*                                                         */
        6        6        /*T***********************************************************/
        7        7        /*X* DMR,PLM=5,IND=5,CTI=5,SDI=5,MCL=10,CSI=0,ECI=0 */
        8        8
        9        9        /*P*
       10       10             NAME: KIA$APPLC
       11       11             PURPOSE:
       12       12                  The module contains the routines that are the application and
       13       13                  presentation layers of the network.
       14       14             DESCRIPTION:
       15       15                  None.
       16       16        */
       17       17        KIA$UCIOND: PROC (FCN,DVBYTE,VFC,EVENT,BUF$,BUFLEN,NDLDCT) ALTRET;

     17  1 000000   000000 700200 xent  KIA$UCIOND   TSX0  ! X66_AUTO_N
         1 000001   000120 000007                    ZERO    80,7

       18       18
       19       19        /*F*
       20       20              NAME:        KIA$UCIOND
       21       21              PURPOSE:     To interface with TS terminals with an LDCT$ instead of a DCB
       22       22              INPUT:       FCN - read, write, etc.
       23       23                           DVBYTE
       24       24                           VFC
       25       25                           EVENT
       26       26                           BUF$ - Pointer to the caller's buffer
       27       27                           BUFLEN - Byte length of the caller's buffer
       28       28                           NDLDCT - The caller's LDCT
       29       29              OUTPUT:      Caller's buffer may be filled in if write
       30       30                           DVBYTE
       31       31                           EOMCHAR is passed back in VFC parameter
       32       32                           TYC is passed back in EVENT parameter
PL6.E3A0      #001=KIA$UCIOND File=KIA$APPLC.:E05TSI                             WED 07/30/97 00:30 Page:48
       33       33                           ARS is passed back in BUFLEN parameter
       34       34              DESCRIPTION: KIA$UCIOND is called passing an LDCT instead of
       35       35                           JIT.DCB$. LDCT, MSGSZ, and UB$ are passed as parameters
       36       36                           instead of via JIT.DCB$. Also DVBYTE, EOMCHAR, TYC
       37       37                           and ARS are passed back as parameters instead of in
       38       38                           JIT.DCB$.                                                 */
       39       39        %PLIST;
       40       40        %INCLUDE B$ROSEG;
       41      103        %INCLUDE B_STRINGS_C;
       42      232        %INCLUDE F$CP6V_C;
       43      458        %INCLUDE NK_LDCT_R;
       44      467        %INCLUDE B$TABLES_C;
       45      575        %B$XL_UR;
       46      579        %B$XL_UPPER_UR;
       47      583        %INCLUDE KI_DATA_R;
       48      609        %INCLUDE B$USER;
       49      825        %B$USERREFS;
       50      829        %INCLUDE B$JIT_C;
       51     1143        %B$JIT0;
       52     1232        %U$JIT1;
       53     1306        %M$JIT2X;
       54     1309        %F$JIT3;
       55     1314        %S$JIT4X;
       56     1317        %J$JIT5;
       57     1405        %A$JIT6;
       58     1415        %INCLUDE NK$LDCT;
       59     1517        %INCLUDE F$DCB;
       60     1566        %INCLUDE KI$MHDR;
       61     1707        %INCLUDE KV$VDO;
       62     2722        %INCLUDE KI$CP6V_C;
       63     3161        %INCLUDE KV_GLBCNS_E;
       64     3502        %INCLUDE KV_PRMID_E;
       65     3676        %INCLUDE HF_LOCK_C;
       66     3690        %INCLUDE F_FPTCODE_C;
       67     3726        %INCLUDE CP_6_SUBS;
       68     4266        %INCLUDE SS_SCHED_C;
       69     4499        %INCLUDE NK_SUBS;
PL6.E3A0      #001=KIA$UCIOND File=KIA$APPLC.:E05TSI                             WED 07/30/97 00:30 Page:49
       70     4524        %INCLUDE KI_SUBS_C;
       71     4660        %INCLUDE K_SUBS_C;
       72     4693        %INCLUDE K_DATA_R;
       73     5404
       74     5405        %NK$LDCT;
       75     5451        %K$RWPARM (STCLASS="",NAME=K$RWPARM);
       76     5767        %KV_PRMID_E;
       77     5923        %KV_VDO_ALL_E;
       78     6002        %KV#VD_ORG_E;
       79     6010        %FPT$READ_V;
       80     6017        %FPT$WRITE_V;
       81     6023    1   DCL USRKEY CHAR(USRKEYSZ) BASED;
       82     6024    1   DCL KEY CHAR(K$RWPARM.KEYSZ) BASED;
       83     6025    1   DCL USRKEYSZ UBIN;
       84     6026    1   DCL 1 FEPSIZ REDEF USRKEYSZ,
       85     6027    1            2 BUF UBIN(18) UNAL,
       86     6028    1            2 KEY UBIN(18) UNAL;
       87     6029    1   DCL DCB_FCN_CNT0 REDEF USRKEYSZ UBIN;
       88     6030    1   DCL 1 NOWAIT,
       89     6031    1            2 KEYTYP UBIN(6) UNAL,
       90     6032    1            2 DMN UBIN(3) UNAL,
       91     6033    1            2 STREAM UBIN(9) UNAL,
       92     6034    1            2 DCB# UBIN(9) UNAL,
       93     6035    1            2 * UBIN(9) UNAL;
       94     6036    1   DCL 1 FEPIO,
       95     6037    1            2 EVENT SBIN,
       96     6038    1            2 KEYX SBIN(18) UNAL,
       97     6039    1            2 BUFX SBIN(18) UNAL,
       98     6040    1            2 BPP(0:1) BIT(18) UNAL,
       99     6041    1            2 KPP(0:1) BIT(18) UNAL;
      100     6042    1   DCL 1 PTW(0:1),
      101     6043    1            2 PP BIT(18) ALIGNED;
      102     6044    1   DCL FPT$ PTR;
      103     6045        %KV$VDO_PRM (STCLASS="BASED(K$RWPARM.UHDR$)");
      104     6086        %KV$VDO_DAT (STCLASS="BASED(K$RWPARM.UHDR$)");
      105     6131        %KV$VDO_RQSDAT (STCLASS="BASED(K$RWPARM.UHDR$)");
      106     6179        %KV$VDO_RQSPRM (STCLASS="BASED(K$RWPARM.UHDR$)");
PL6.E3A0      #001=KIA$UCIOND File=KIA$APPLC.:E05TSI                             WED 07/30/97 00:30 Page:50
      107     6222        %KI$QMHDR;
      108     6271        %KV$VDOVLP_DAT1;
      109     6321        %KV$VDOVLP_DAT2;
      110     6371        %KV$VDOVLP_MRK;
      111     6424        %KV$VDO_MRK (NAME=KV$VDO_MRKRSP,STCLASS="BASED(K$RWPARM.UHDR$)",LAST=",");
      112     6465        %KV$VDOVLP_MRK (NAME=MRKR,LVL=2);
      113     6518        %VLP$WINDOW_V;
      114     6540        %VLP$WINDOW_V(FPTN=WINDOW,ALGN=CALIGNED);
      115     6562        %K$RWPARM (NAME=KI$RWPARM,STCLASS=BASED);
      116     6878
      117     6879        /* Symrefs */
      118     6880
      119     6881    1   DCL FCN UBIN WORD;
      120     6882    1   DCL FCN1 UBIN WORD;
      121     6883    1   DCL DVBYTE BIT(9) CALIGNED;
      122     6884    1   DCL TFCN REDEF DVBYTE UBIN(9) CALIGNED;
      123     6885    1   DCL DVBYTE1 BIT(9);
      124     6886    1   DCL VFC CHAR(1) UNAL;
      125     6887    1   DCL EOMCHAR REDEF VFC CHAR(1);
      126     6888    1   DCL PCODE REDEF VFC UBIN BYTE UNAL;
      127     6889    1   DCL 1 SPREAD BASED UNAL ,
      128     6890    1            2 HI UBIN(10) UNAL ,
      129     6891    1            2 LO8 UBIN(8) UNAL ;
      130     6892    1   DCL EVENT UBIN WORD;
      131     6893    1   DCL TYC REDEF EVENT BIT(36);
      132     6894    1   DCL BUF$ PTR;
      133     6895    1   DCL BUFLEN UBIN;
      134     6896    1   DCL NDLDCT UBIN;    /* Actually an LDCT, but its address is copied to LDCT$ */
      135     6897    1   DCL ENTFLG UBIN;
      136     6898        %EQU DCB#=0;
      137     6899        %EQU NODCB#=1;
      138     6900    1   DCL MSG$ PTR;
      139     6901    1   DCL TDVB BIT(36) ALIGNED;
      140     6902    1   DCL MSGSZ UBIN WORD;
      141     6903    1   DCL 1 MSZ REDEF MSGSZ,
      142     6904        %INCLUDE UM_CP6;
      143     7756    1            2 TOP UBIN(28) UNAL,
PL6.E3A0      #001=KIA$UCIOND File=KIA$APPLC.:E05TSI                             WED 07/30/97 00:30 Page:51
      144     7757    1            2 BOT UBIN(8) UNAL;
      145     7758    1   DCL DCB$ PTR;
      146     7759    1   DCL LDCT$ PTR;
      147     7760    1   DCL PFCN UBIN WORD;
      148     7761    1   DCL B$CGCTXT$ PTR SYMREF READONLY;
      149     7762    1   DCL B$JIT$ PTR SYMREF READONLY;
      150     7763    1   DCL B$PS1$ PTR SYMREF READONLY;
      151     7764    1   DCL B$ROSEG$ PTR SYMREF READONLY;
      152     7765    1   DCL B$M$UC$ PTR SYMREF READONLY;
      153     7766    1   DCL KIA_TCTLMAX SBIN CONSTANT SYMDEF INIT(16);
      154     7767    1   DCL NI_MFGATE BIT(72) SYMREF;
      155     7768    1   DCL PFB UBIN WORD;
      156     7769    1   DCL MSGSZT REDEF PFB UBIN WORD;
      157     7770    1   DCL 1 MSZT REDEF PFB,
      158     7771    1            2 T UBIN(28) UNAL,
      159     7772    1            2 B UBIN(8) UNAL;
      160     7773    1   DCL VCHRM CHAR(MSGSZ) BASED CALIGNED;
      161     7774    1   DCL STR UBIN BASED;
      162     7775    1   DCL STRID UBIN BASED;
      163     7776    1   DCL DLTSTR BIT(1) BASED;
      164     7777    1   DCL NEWSSN BIT(1) BASED;
      165     7778    1   DCL RPTR$ PTR;
      166     7779    1   DCL WINDOW$ PTR BASED;
      167     7780    1   DCL 1 VSIN ,
      168     7781    1            2 PFB UBIN BYTE CALIGNED,
      169     7782    1            2 RFU UBIN BYTE CALIGNED,
      170     7783    1            2 POS UBIN(18) CALIGNED,
      171     7784    1            2 POSL6 REDEF POS,
      172     7785    1                 3 T BIT(9), 3 * BIT(9),
      173     7786    1            2 POSL66 REDEF POS,
      174     7787    1                 3 T BIT(10), 3 * BIT(8);
      175     7788
      176     7789        /* Entry point references */
      177     7790    1   DCL FMO$GETDOMAIN ENTRY(1);
      178     7791    1   DCL KIA$COMP ENTRY(2);
      179     7792    1   DCL FSN$CONV_STR ENTRY(2) ALTRET;
      180     7793    1   DCL KIQ$MAPFEP ENTRY(1);
PL6.E3A0      #001=KIA$UCIOND File=KIA$APPLC.:E05TSI                             WED 07/30/97 00:30 Page:52
      181     7794    1   DCL KIA$9TO8 ENTRY(3);
      182     7795    1   DCL KIA$FCNOU ENTRY(3) ALTRET;
      183     7796    1   DCL KIA$OQFL ENTRY(1) ALTRET;
      184     7797    1   DCL KIA$MSG ENTRY(1) ALTRET;
      185     7798    1   DCL KIA$WRITE_USER ENTRY(2) ALTRET;
      186     7799    1   DCL KIS$SEND ENTRY(1) ALTRET;
      187     7800    1   DCL SSR$REG ENTRY(3) ALTRET;
      188     7801    1   DCL HFF$DSIZ ENTRY(2);
      189     7802    1   DCL HFF$NILERASE ENTRY(1) ALTRET;
      190     7803    1   DCL HFF$TRAPALT ENTRY ALTRET;
      191     7804    1   DCL HFF$WRITE1 ENTRY(1) ALTRET;
      192     7805    1   DCL MMS$SETUP_BUF ENTRY(5) ALTRET;
      193     7806    1   DCL NKA$EVENT ENTRY(2);
      194     7807    1   DCL UMD$DIN ENTRY(1) ALTRET;
      195     7808    1   DCL UMD$DPMT ENTRY ALTRET;
      196     7809    1   DCL UMD$DOU ENTRY(2) ALTRET;
      197     7810
      198     7811    1   DCL SC_NTSDCTI ENTRY CONV(2,0);
      199     7812    1   DCL SC_NTSLCL ENTRY CONV(2,0);
      200     7813    1   DCL SC_BTSFCN ENTRY CONV(2,0);
      201     7814    1   DCL SC_ICQLST ENTRY CONV(2,0);
      202     7815
      203     7816        %INCLUDE KI_ERRORS_C;
      204     7901        %INCLUDE KV_ERRORS_C;
      205     7961        %INCLUDE F_ERRORS_C;
      206     8201        %INCLUDE UD_SEV_C;
      207     8215        %MACRO ERRCODE( NAME=ERRDUMMY, CODE=0, STC=CONSTANT, SL=SEV_CONT#);
      208     8216            %VLP_ERRCODE( FPTN=NAME, STCLASS=STC, FCG='KI', MID='A',
      209     8217                          MON='1'B, ERR#=CODE, SEV=SL);
      210     8218        %MEND;
      211     8219            %ERRCODE( NAME=BADFMT, CODE=%E$BADFMT, SL=SEV_ABORT#);
      212     8267            %ERRCODE( NAME=BYD, CODE=%E$BYD);
      213     8315            %ERRCODE( NAME=BYDR, CODE=%E$BYDR);
      214     8363            %ERRCODE( NAME=DELRECER, CODE=%E$RECORD_DELETED, SL=0);
      215     8411            %ERRCODE( NAME=EOFERR, CODE=%E$EOF, SL=0);
      216     8459            %ERRCODE( NAME=KIA_NODAT, CODE=%E$NODAT, STC="CONSTANT SYMDEF");
      217     8507            %ERRCODE( NAME=LDSC, CODE=%E$LDSC, SL=SEV_ABORT#);
PL6.E3A0      #001=KIA$UCIOND File=KIA$APPLC.:E05TSI                             WED 07/30/97 00:30 Page:53
      218     8555            %ERRCODE( NAME=MTRAPERR, CODE=%E$MTRAP, SL=7);
      219     8603            %ERRCODE( NAME=NOFPRG, CODE=%E$NOFPRG, SL=SEV_ABORT#);
      220     8651            %ERRCODE( NAME=NORES, CODE=%E$NOFEPRES, SL=SEV_ABORT#);
      221     8699            %ERRCODE( NAME=XTRARD, CODE=%E$XTRARD);
      222     8747        %EJECT;
PL6.E3A0      #001=KIA$UCIOND File=KIA$APPLC.:E05TSI                             WED 07/30/97 00:30 Page:54
      223     8748    1        ENTFLG=%NODCB#;

   8748  1 000002   000001 235007                    LDA     1,DL
         1 000003   200075 755100                    STA     ENTFLG,,AUTO

      224     8749    1        DCB$=ADDR(NIL);               /* So we trap if I screwed up coding this */

   8749  1 000004   000001 236000 xsym               LDQ     B_VECTNIL+1
         1 000005   200101 756100                    STQ     DCB$,,AUTO

      225     8750    1        FPT$ = ADDR(NIL);

   8750  1 000006   200072 756100                    STQ     FPT$,,AUTO

      226     8751    1        LDCT$=ADDR(NDLDCT);

   8751  1 000007   200011 236100                    LDQ     @NDLDCT,,AUTO
         1 000010   200102 756100                    STQ     LDCT$,,AUTO

      227     8752    1        MSGSZ=BUFLEN;

   8752  1 000011   200010 470500                    LDP0    @BUFLEN,,AUTO
         1 000012   000000 235100                    LDA     0,,PR0
         1 000013   200100 755100                    STA     MSGSZ,,AUTO

      228     8753    1        MSG$=BUF$;

   8753  1 000014   200007 471500                    LDP1    @BUF$,,AUTO
         1 000015   100000 236100                    LDQ     0,,PR1
         1 000016   200076 756100                    STQ     MSG$,,AUTO

      229     8754    1        PFB = KIDM_MON;

   8754  1 000017   000177 235007                    LDA     127,DL
         1 000020   200104 755100                    STA     PFB,,AUTO

      230     8755    1        IF LDCT$->NK$LDCT.RESCOD=NK_RES
PL6.E3A0      #001=KIA$UCIOND File=KIA$APPLC.:E05TSI                             WED 07/30/97 00:30 Page:55

   8755  1 000021   200102 473500                    LDP3    LDCT$,,AUTO
         1 000022   300006 236100                    LDQ     6,,PR3
         1 000023   000017 376007                    ANQ     15,DL
         1 000024   000013 116007                    CMPQ    11,DL
         1 000025   000030 601000 1                  TNZ     s:8757

      231     8756    1        THEN PFB = KIDM_CP;

   8756  1 000026   000001 235007                    LDA     1,DL
         1 000027   200104 755100                    STA     PFB,,AUTO

      232     8757    1        GOTO CMN;

   8757  1 000030   000101 710000 1                  TRA     CMN

      233     8758
      234     8759
      235     8760        %EJECT;
PL6.E3A0      #001=KIA$UCIOND File=KIA$APPLC.:E05TSI                             WED 07/30/97 00:30 Page:56
      236     8761    1   KIA$UCIOD: ENTRY (FCN,DVBYTE,VFC,EVENT) ALTRET;

   8761  1 000031   000000 700200 xent  KIA$UCIOD    TSX0  ! X66_AUTO_N
         1 000032   000120 000007                    ZERO    80,7
         1 000033   000036 710000 1                  TRA     s:8774

      237     8762
      238     8763        /*F*
      239     8764             NAME: KIA$UCIOD
      240     8765             PURPOSE:
      241     8766                  This routine is the read and write interface for TS terminals.
      242     8767             DESCRIPTION:
      243     8768                  KIA$UCIOD is called from FSE$FORMAT whenever there is a write
      244     8769                  or read to a time sharing terminal It is also called from
      245     8770                  KIP$PMME when a terminal control function needs to be performed.
      246     8771        */
      247     8772
      248     8773    1   KIA$UCIO: ENTRY (FCN,DVBYTE,VFC,EVENT,BUF$) ALTRET;

   8773  1 000034   000000 700200 xent  KIA$UCIO     TSX0  ! X66_AUTO_N
         1 000035   000120 000007                    ZERO    80,7

      249     8774    1        IF ADDR(BUF$)=ADDR(NIL) THEN

   8774  1 000036   200007 236100                    LDQ     @BUF$,,AUTO
         1 000037   000001 116000 xsym               CMPQ    B_VECTNIL+1
         1 000040   000044 601000 1                  TNZ     s:8777

      250     8775    1             FPT$=ADDR(NIL);

   8775  1 000041   000001 236000 xsym               LDQ     B_VECTNIL+1
         1 000042   200072 756100                    STQ     FPT$,,AUTO
         1 000043   000047 710000 1                  TRA     s:8779

      251     8776    1        ELSE
      252     8777    1             FPT$=BUF$;

PL6.E3A0      #001=KIA$UCIOND File=KIA$APPLC.:E05TSI                             WED 07/30/97 00:30 Page:57
   8777  1 000044   200007 470500                    LDP0    @BUF$,,AUTO
         1 000045   000000 236100                    LDQ     0,,PR0
         1 000046   200072 756100                    STQ     FPT$,,AUTO

      253     8778
      254     8779    1        ENTFLG=%DCB#;

   8779  1 000047   200075 450100                    STZ     ENTFLG,,AUTO

      255     8780    1        DCB$=B$JIT$->B$JIT.DCB$;

   8780  1 000050   000000 470400 xsym               LDP0    B$JIT$
         1 000051   000232 236100                    LDQ     154,,PR0
         1 000052   200101 756100                    STQ     DCB$,,AUTO

      256     8781    1        IF DCB$->F$DCB.IASN = %STREAM#

   8781  1 000053   200101 471500                    LDP1    DCB$,,AUTO
         1 000054   100103 236100                    LDQ     67,,PR1
         1 000055   000777 376007                    ANQ     511,DL
         1 000056   000005 116007                    CMPQ    5,DL
         1 000057   000066 601000 1                  TNZ     s:8785

      257     8782    1        THEN
      258     8783    1             LDCT$ = NK$LDCT$(DCB$->F$DCB.CFU$->F$DCB.LDCTX);

   8783  1 000060   100066 473500                    LDP3    54,,PR1
         1 000061   300051 220100                    LDX0    41,,PR3
         1 000062   000000 474400 xsym               LDP4    N$DCT$$
         1 000063   400000 236110                    LDQ     0,X0,PR4
         1 000064   200102 756100                    STQ     LDCT$,,AUTO
         1 000065   000072 710000 1                  TRA     s:8786

      259     8784    1        ELSE
      260     8785    1             LDCT$=NK$LDCT$(DCB$->F$DCB.LDCTX);

   8785  1 000066   100051 220100                    LDX0    41,,PR1
PL6.E3A0      #001=KIA$UCIOND File=KIA$APPLC.:E05TSI                             WED 07/30/97 00:30 Page:58
         1 000067   000000 473400 xsym               LDP3    N$DCT$$
         1 000070   300000 236110                    LDQ     0,X0,PR3
         1 000071   200102 756100                    STQ     LDCT$,,AUTO

      261     8786    1        MSGSZ=DCB$->F$DCB.UBYTES;

   8786  1 000072   100076 235100                    LDA     62,,PR1
         1 000073   200100 755100                    STA     MSGSZ,,AUTO

      262     8787    1        MSG$=DCB$->F$DCB.UB$;

   8787  1 000074   100075 236100                    LDQ     61,,PR1
         1 000075   200076 756100                    STQ     MSG$,,AUTO

      263     8788    1        PFB = DCB$->F$DCB.STR;

   8788  1 000076   100077 236100                    LDQ     63,,PR1
         1 000077   000777 376007                    ANQ     511,DL
         1 000100   200104 756100                    STQ     PFB,,AUTO

   8788  1 000101                       CMN          null
      264     8789
      265     8790
      266     8791        %EJECT;
PL6.E3A0      #001=KIA$UCIOND File=KIA$APPLC.:E05TSI                             WED 07/30/97 00:30 Page:59
      267     8792    1   CMN: ;
      268     8793    1        IF LDCT$=ADDR(NIL)

   8793  1 000101   200102 236100                    LDQ     LDCT$,,AUTO
         1 000102   000001 116000 xsym               CMPQ    B_VECTNIL+1
         1 000103   000106 601000 1                  TNZ     s:8811

      269     8794    1        THEN
      270     8795    1             CALL SC_NTSDCTI;

   8795  1 000104   000000 713400 xsym               CLIMB   SC_NTSDCTI
         1 000105   000000 600000 xsid               climb   nvectors=         0

      271     8796        /*S*  SCREECH_CODE:  KIA-S$NTSDCT
      272     8797              TYPE:          SUA
      273     8798              MESSAGE:       LDCT for timesharing users terminal lost (during I/O)
      274     8799              REMARKS:       This SUA occurs when LDCTX in a timesharing user's
      275     8800                             M$UC DCB does not point to a valid LDCT entry.  This
      276     8801                             suggests that either the DCB is clobbered or KIA$UCIO
      277     8802                             has been incorrectly called.  The same screech code
      278     8803                             is reported by NKU$UCCLS (NKU-S$NTSDCT) when it
      279     8804                             detects the same problem.                               */
      280     8805
      281     8806        /* If there is a marker pending a break, control Y or disconnect
      282     8807             has come in.  If B$U.ASYNC not reset then return with back IC
      283     8808             set otherwise just send the marker.
      284     8809         */
      285     8810             %LOCK (G=LDCT$->NK$LDCT.LOCK);

   8811  1 000106   200102 236100                    LDQ     LDCT$,,AUTO
         1 000107   000020 036003                    ADLQ    16,DU
         1 000110   200112 756100                    STQ     VSIN+4,,AUTO
         1 000111   200112 630500                    EPPR0   VSIN+4,,AUTO
         1 000112   000017 631400 xsym               EPPR1   B_VECTNIL+15
         1 000113   000000 701000 xent               TSX1    HFC$LOCK
         1 000114   000000 011000                    NOP     0

PL6.E3A0      #001=KIA$UCIOND File=KIA$APPLC.:E05TSI                             WED 07/30/97 00:30 Page:60
      286     8813    1        IF LDCT$->LDCT.DFLG.FEDN

   8813  1 000115   200102 470500                    LDP0    LDCT$,,AUTO
         1 000116   000006 236100                    LDQ     6,,PR0
         1 000117   000020 316007                    CANQ    16,DL
         1 000120   000134 600000 1                  TZE     s:8826

      287     8814    2        THEN DO;

   8811  1 000121                       DISC         null
      288     8815    2   DISC:     ;
      289     8816    2             B$JIT.ERR=LDSC;

   8816  1 000121   000007 236000 0                  LDQ     LDSC
         1 000122   000000 471400 xsym               LDP1    B$JIT$
         1 000123   100012 756100                    STQ     10,,PR1

      290     8817        /*E*  ERROR:         KIA-E$LDSC-A
      291     8818               MESSAGE: Your timesharing line %thru %DC %is disconnected!
      292     8819              DESCRIPTION:   Only logoff should see this error JIT.BAKIC would
      293     8820                             loop.                                                   */
      294     8821                  %UNLOCK (G=LDCT$->NK$LDCT.LOCK);

   8822  1 000124   200102 236100                    LDQ     LDCT$,,AUTO
         1 000125   000020 036003                    ADLQ    16,DU
         1 000126   200112 756100                    STQ     VSIN+4,,AUTO
         1 000127   200112 630500                    EPPR0   VSIN+4,,AUTO
         1 000130   000017 631400 xsym               EPPR1   B_VECTNIL+15
         1 000131   000000 701000 xent               TSX1    HFC$UNLOCK
         1 000132   000000 011000                    NOP     0

      295     8824    2             ALTRETURN;

   8824  1 000133   000000 702200 xent               TSX2  ! X66_AALT

      296     8825    2           END;
      297     8826    1        IF S$CU$->B$U.ASYNCH&%(~U_RESET) AND ENTFLG = %DCB#
PL6.E3A0      #001=KIA$UCIOND File=KIA$APPLC.:E05TSI                             WED 07/30/97 00:30 Page:61

   8826  1 000134   000000 471400 xsym               LDP1    S$CU$
         1 000135   100001 236100                    LDQ     1,,PR1
         1 000136   000014 376000 0                  ANQ     XTRARD+1
         1 000137   000163 600000 1                  TZE     s:8837
         1 000140   200075 235100                    LDA     ENTFLG,,AUTO
         1 000141   000163 601000 1                  TNZ     s:8837
         1 000142   100000 236100                    LDQ     0,,PR1
         1 000143   000015 376000 0                  ANQ     XTRARD+2
         1 000144   000163 601000 1                  TNZ     s:8837

      298     8827    1             AND NOT S$CU$->B$U.FLG&%U_STIP
      299     8828    2        THEN DO;

      300     8829                  %UNLOCK (G=LDCT$->NK$LDCT.LOCK);

   8830  1 000145   200102 236100                    LDQ     LDCT$,,AUTO
         1 000146   000020 036003                    ADLQ    16,DU
         1 000147   200112 756100                    STQ     VSIN+4,,AUTO
         1 000150   200112 630500                    EPPR0   VSIN+4,,AUTO
         1 000151   000017 631400 xsym               EPPR1   B_VECTNIL+15
         1 000152   000000 701000 xent               TSX1    HFC$UNLOCK
         1 000153   000000 011000                    NOP     0

      301     8832    2             B$JIT$->B$JIT.ERR = BYD;

   8832  1 000154   000002 236000 0                  LDQ     BYD
         1 000155   000000 470400 xsym               LDP0    B$JIT$
         1 000156   000012 756100                    STQ     10,,PR0

      302     8833    2             B$JIT$->B$JIT.JUNK = B$JIT$->B$JIT.JUNK | %JJ_BAKIC#;

   8833  1 000157   000315 220100                    LDX0    205,,PR0
         1 000160   001000 260003                    ORX0    512,DU
         1 000161   000315 740100                    STX0    205,,PR0

      303     8834    2             ALTRETURN;
PL6.E3A0      #001=KIA$UCIOND File=KIA$APPLC.:E05TSI                             WED 07/30/97 00:30 Page:62

   8834  1 000162   000000 702200 xent               TSX2  ! X66_AALT

      304     8835    2           END;
      305     8836
      306     8837    1        IF LDCT$->LDCT.LKFLG.MRKPND

   8837  1 000163   000011 234100                    SZN     9,,PR0
         1 000164   000210 605000 1                  TPL     s:8847

      307     8838    2        THEN DO;

      308     8839    2             K$RWPARM = K_RWPARM_CON;

   8839  1 000165   000100 100400                    MLR     fill='000'O
         1 000166   000000 000234 xsym               ADSC9   K_RWPARM_CON             cn=0,n=156
         1 000167   200012 000234                    ADSC9   K$RWPARM,,AUTO           cn=0,n=156

      309     8840    2             K$RWPARM.MRKTYP = %KV_VDOMRKTYP_MRK;

   8840  1 000170   003000 236007                    LDQ     1536,DL
         1 000171   200052 552110                    STBQ    K$RWPARM+32,'10'O,AUTO

      310     8841    2             K$RWPARM.MARKER = LDCT$->LDCT.MARKER;

   8841  1 000172   000001 236100                    LDQ     1,,PR0
         1 000173   200021 756100                    STQ     K$RWPARM+7,,AUTO

      311     8842    2             CALL KIA$FCNOU (LDCT$->NK$LDCT,%KV_VDO_FNC_MRK,K$RWPARM) ALTRET(BRKOUT);

   8842  1 000174   200012 633500                    EPPR3   K$RWPARM,,AUTO
         1 000175   200114 453500                    STP3    VSIN+6,,AUTO
         1 000176   000001 236000 2                  LDQ     1
         1 000177   200102 235100                    LDA     LDCT$,,AUTO
         1 000200   200112 757100                    STAQ    VSIN+4,,AUTO
         1 000201   200112 630500                    EPPR0   VSIN+4,,AUTO
         1 000202   000021 631400 xsym               EPPR1   B_VECTNIL+17
PL6.E3A0      #001=KIA$UCIOND File=KIA$APPLC.:E05TSI                             WED 07/30/97 00:30 Page:63
         1 000203   000000 701000 xent               TSX1    KIA$FCNOU
         1 000204   002163 702000 1                  TSX2    BRKOUT

      312     8843    2             LDCT$->LDCT.LKFLG.MRKPND = '0'B;

   8843  1 000205   200102 470500                    LDP0    LDCT$,,AUTO
         1 000206   000031 236000 xsym               LDQ     B_VECTNIL+25
         1 000207   000011 356100                    ANSQ    9,,PR0

      313     8844    2           END;

      314     8845
      315     8846             %UNLOCK (G=LDCT$->NK$LDCT.LOCK);

   8847  1 000210   200102 236100                    LDQ     LDCT$,,AUTO
         1 000211   000020 036003                    ADLQ    16,DU
         1 000212   200112 756100                    STQ     VSIN+4,,AUTO
         1 000213   200112 630500                    EPPR0   VSIN+4,,AUTO
         1 000214   000017 631400 xsym               EPPR1   B_VECTNIL+15
         1 000215   000000 701000 xent               TSX1    HFC$UNLOCK
         1 000216   000000 011000                    NOP     0

      316     8849
      317     8850
      318     8851
      319     8852    1   RESTART:
      320     8853    1        K$RWPARM = K_RWPARM_CON;

   8853  1 000217   000100 100400       RESTART      MLR     fill='000'O
         1 000220   000000 000234 xsym               ADSC9   K_RWPARM_CON             cn=0,n=156
         1 000221   200012 000234                    ADSC9   K$RWPARM,,AUTO           cn=0,n=156

      321     8854    1        DVBYTE1 = DVBYTE;

   8854  1 000222   200004 470500                    LDP0    @DVBYTE,,AUTO
         1 000223   000100 100500                    MLR     fill='000'O
         1 000224   000000 000001                    ADSC9   0,,PR0                   cn=0,n=1
PL6.E3A0      #001=KIA$UCIOND File=KIA$APPLC.:E05TSI                             WED 07/30/97 00:30 Page:64
         1 000225   200074 000001                    ADSC9   DVBYTE1,,AUTO            cn=0,n=1

      322     8855    1        K$RWPARM.DVE.DVBYTE = DVBYTE1;

   8855  1 000226   200074 236100                    LDQ     DVBYTE1,,AUTO
         1 000227   200022 552140                    STBQ    K$RWPARM+8,'40'O,AUTO

      323     8856    1        K$RWPARM.DVE.VFC = VFC;

   8856  1 000230   200005 471500                    LDP1    @VFC,,AUTO
         1 000231   040100 100500                    MLR     fill='040'O
         1 000232   100000 000001                    ADSC9   0,,PR1                   cn=0,n=1
         1 000233   200022 200001                    ADSC9   K$RWPARM+8,,AUTO         cn=1,n=1

      324     8857    1        K$RWPARM.STR = PFB;

   8857  1 000234   200104 236100                    LDQ     PFB,,AUTO
         1 000235   200052 552104                    STBQ    K$RWPARM+32,'04'O,AUTO

      325     8858    1        IF FPT$ ~= ADDR(NIL)

   8858  1 000236   200072 236100                    LDQ     FPT$,,AUTO
         1 000237   000001 116000 xsym               CMPQ    B_VECTNIL+1
         1 000240   000261 600000 1                  TZE     s:8865

      326     8859    1        THEN
      327     8860    1             IF DCB$->F$DCB.ORG=%SE# OR FPT$->FPT$WRITE_V.KEYTYPE = 0

   8860  1 000241   200101 473500                    LDP3    DCB$,,AUTO
         1 000242   300032 236100                    LDQ     26,,PR3
         1 000243   777000 376003                    ANQ     -512,DU
         1 000244   027000 116003                    CMPQ    11776,DU
         1 000245   000252 600000 1                  TZE     s:8862
         1 000246   200072 474500                    LDP4    FPT$,,AUTO
         1 000247   400000 236100                    LDQ     0,,PR4
         1 000250   000017 316007                    CANQ    15,DL
         1 000251   000256 601000 1                  TNZ     s:8864
PL6.E3A0      #001=KIA$UCIOND File=KIA$APPLC.:E05TSI                             WED 07/30/97 00:30 Page:65

      328     8861    1             THEN
      329     8862    1                  K$RWPARM.KEYTYPE = DCB$->F$DCB.KEYTYPE;

   8862  1 000252   300056 236100                    LDQ     46,,PR3
         1 000253   000011 772000                    QRL     9
         1 000254   200060 552110                    STBQ    K$RWPARM+38,'10'O,AUTO
         1 000255   000261 710000 1                  TRA     s:8865

      330     8863    1             ELSE
      331     8864    1                  K$RWPARM.KEYTYPE = FPT$->FPT$WRITE_V.KEYTYPE;

   8864  1 000256   000017 376007                    ANQ     15,DL
         1 000257   000011 736000                    QLS     9
         1 000260   200060 552110                    STBQ    K$RWPARM+38,'10'O,AUTO

      332     8865    1        IF MSGSZ<=4096

   8865  1 000261   200100 235100                    LDA     MSGSZ,,AUTO
         1 000262   010001 115007                    CMPA    4097,DL
         1 000263   000266 603000 1                  TRC     s:8869

      333     8866    1        THEN
      334     8867    1             K$RWPARM.TYC='0'B;

   8867  1 000264   200020 450100                    STZ     K$RWPARM+6,,AUTO
         1 000265   000273 710000 1                  TRA     s:8872

      335     8868    2        ELSE DO;

      336     8869    2             MSGSZ=4096;

   8869  1 000266   010000 236007                    LDQ     4096,DL
         1 000267   200100 756100                    STQ     MSGSZ,,AUTO

      337     8870    2             K$RWPARM.TYC=%TYC_LD|%TYC_EGV;

PL6.E3A0      #001=KIA$UCIOND File=KIA$APPLC.:E05TSI                             WED 07/30/97 00:30 Page:66
   8870  1 000270   000016 236000 0                  LDQ     XTRARD+3
         1 000271   000030 276000 xsym               ORQ     B_VECTNIL+24
         1 000272   200020 756100                    STQ     K$RWPARM+6,,AUTO

      338     8871    2           END;

      339     8872    1        K$RWPARM.MAXNMBBYT = MSGSZ + 40;

   8872  1 000273   200100 720100                    LXL0    MSGSZ,,AUTO
         1 000274   000050 621010                    EAX1    40,X0
         1 000275   200053 441100                    SXL1    K$RWPARM+33,,AUTO

      340     8873    1        K$RWPARM.MAXRCRBYTSIZ = MSGSZ;

   8873  1 000276   200100 722100                    LXL2    MSGSZ,,AUTO
         1 000277   200054 742100                    STX2    K$RWPARM+34,,AUTO

      341     8874    1        K$RWPARM.MAXNMBRCR = 1;

   8874  1 000300   000001 223003                    LDX3    1,DU
         1 000301   200053 743100                    STX3    K$RWPARM+33,,AUTO

      342     8875
      343     8876
      344     8877    1        FCN1 = FCN ;

   8877  1 000302   200003 473500                    LDP3    @FCN,,AUTO
         1 000303   300000 235100                    LDA     0,,PR3
         1 000304   200073 755100                    STA     FCN1,,AUTO

      345     8878    2        DO CASE (FCN1);

   8878  1 000305   000017 115007                    CMPA    15,DL
         1 000306   000310 602005 1                  TNC     s:8878+3,AL
         1 000307   002102 710000 1                  TRA     s:9316
         1 000310   000755 710000 1                  TRA     s:9025
         1 000311   000403 710000 1                  TRA     WRT1
PL6.E3A0      #001=KIA$UCIOND File=KIA$APPLC.:E05TSI                             WED 07/30/97 00:30 Page:67
         1 000312   000327 710000 1                  TRA     s:8881
         1 000313   002102 710000 1                  TRA     s:9316
         1 000314   002102 710000 1                  TRA     s:9316
         1 000315   002102 710000 1                  TRA     s:9316
         1 000316   002102 710000 1                  TRA     s:9316
         1 000317   000344 710000 1                  TRA     s:8888
         1 000320   002102 710000 1                  TRA     s:9316
         1 000321   001770 710000 1                  TRA     s:9282
         1 000322   000403 710000 1                  TRA     WRT1
         1 000323   000403 710000 1                  TRA     WRT1
         1 000324   001776 710000 1                  TRA     s:9288
         1 000325   000403 710000 1                  TRA     WRT1
         1 000326   000347 710000 1                  TRA     s:8892

      346     8879        %EJECT;
PL6.E3A0      #001=KIA$UCIOND File=KIA$APPLC.:E05TSI                             WED 07/30/97 00:30 Page:68
      347     8880    2        CASE (MFC_DELREC);

      348     8881    2           K$RWPARM.MSG_ERRCODE = DELRECER;

   8881  1 000327   000004 236000 0                  LDQ     DELRECER
         1 000330   200051 756100                    STQ     K$RWPARM+31,,AUTO

      349     8882    2           K$RWPARM.KEYTYPE = DCB$->F$DCB.KEYTYPE;

   8882  1 000331   200101 474500                    LDP4    DCB$,,AUTO
         1 000332   400056 236100                    LDQ     46,,PR4
         1 000333   000011 772000                    QRL     9
         1 000334   200060 552110                    STBQ    K$RWPARM+38,'10'O,AUTO

      350     8883    2           DVBYTE1 = DVBYTE1|%DVBYTE_TRANS#;

   8883  1 000335   200074 236100                    LDQ     DVBYTE1,,AUTO
         1 000336   777000 376003                    ANQ     -512,DU
         1 000337   020000 276003                    ORQ     8192,DU
         1 000340   200074 756100                    STQ     DVBYTE1,,AUTO

      351     8884    2           K$RWPARM.CVTDAT = '1'B;

   8884  1 000341   100000 236007                    LDQ     32768,DL
         1 000342   200022 256100                    ORSQ    K$RWPARM+8,,AUTO

      352     8885    2           GOTO WRT1;

   8885  1 000343   000403 710000 1                  TRA     WRT1

      353     8886        %EJECT;
PL6.E3A0      #001=KIA$UCIOND File=KIA$APPLC.:E05TSI                             WED 07/30/97 00:30 Page:69
      354     8887    2        CASE (MFC_WEOF);

      355     8888    2           K$RWPARM.MSG_ERRCODE = EOFERR;

   8888  1 000344   000005 236000 0                  LDQ     EOFERR
         1 000345   200051 756100                    STQ     K$RWPARM+31,,AUTO

      356     8889    2           GOTO WRT1;

   8889  1 000346   000403 710000 1                  TRA     WRT1

      357     8890        %EJECT;
PL6.E3A0      #001=KIA$UCIOND File=KIA$APPLC.:E05TSI                             WED 07/30/97 00:30 Page:70
      358     8891    2        CASE (MFC_WRIMD);

      359     8892    2           K$RWPARM.MSG$ = MSG$;

   8892  1 000347   200076 236100                    LDQ     MSG$,,AUTO
         1 000350   200012 756100                    STQ     K$RWPARM,,AUTO

      360     8893    2           K$RWPARM.MSGSZ = MSGSZ;

   8893  1 000351   200100 235100                    LDA     MSGSZ,,AUTO
         1 000352   200013 755100                    STA     K$RWPARM+1,,AUTO

      361     8894                %LOCK(G=LDCT$->LDCT.LOCK);

   8895  1 000353   200102 236100                    LDQ     LDCT$,,AUTO
         1 000354   000020 036003                    ADLQ    16,DU
         1 000355   200112 756100                    STQ     VSIN+4,,AUTO
         1 000356   200112 630500                    EPPR0   VSIN+4,,AUTO
         1 000357   000017 631400 xsym               EPPR1   B_VECTNIL+15
         1 000360   000000 701000 xent               TSX1    HFC$LOCK
         1 000361   000000 011000                    NOP     0

      362     8897    2           CALL KIA$FCNOU(LDCT$->NK$LDCT,%KV_VDO_FNC_DAT_IMD,K$RWPARM) ALTRET(BRKOUT);

   8897  1 000362   200012 630500                    EPPR0   K$RWPARM,,AUTO
         1 000363   200114 450500                    STP0    VSIN+6,,AUTO
         1 000364   000002 236000 2                  LDQ     2
         1 000365   200102 235100                    LDA     LDCT$,,AUTO
         1 000366   200112 757100                    STAQ    VSIN+4,,AUTO
         1 000367   200112 630500                    EPPR0   VSIN+4,,AUTO
         1 000370   000021 631400 xsym               EPPR1   B_VECTNIL+17
         1 000371   000000 701000 xent               TSX1    KIA$FCNOU
         1 000372   002163 702000 1                  TSX2    BRKOUT

      363     8898                %UNLOCK (G=LDCT$->LDCT.LOCK);

   8899  1 000373   200102 236100                    LDQ     LDCT$,,AUTO
PL6.E3A0      #001=KIA$UCIOND File=KIA$APPLC.:E05TSI                             WED 07/30/97 00:30 Page:71
         1 000374   000020 036003                    ADLQ    16,DU
         1 000375   200112 756100                    STQ     VSIN+4,,AUTO
         1 000376   200112 630500                    EPPR0   VSIN+4,,AUTO
         1 000377   000017 631400 xsym               EPPR1   B_VECTNIL+15
         1 000400   000000 701000 xent               TSX1    HFC$UNLOCK
         1 000401   000000 011000                    NOP     0
         1 000402   002104 710000 1                  TRA     CSEND

      364     8901
      365     8902        %EJECT;
PL6.E3A0      #001=KIA$UCIOND File=KIA$APPLC.:E05TSI                             WED 07/30/97 00:30 Page:72
      366     8903    2        CASE (MFC_WRITE,MFC_WRUR,MFC_WRBIN,MFC_WRURUC);

      367     8904    2   WRT1:   ;

   8904  1 000403                       WRT1         null
      368     8905    3           IF LDCT$->LDCT.LKFLG.FPSTEP AND ENTFLG=%DCB# THEN DO;

   8905  1 000403   200102 474500                    LDP4    LDCT$,,AUTO
         1 000404   400011 236100                    LDQ     9,,PR4
         1 000405   000010 316003                    CANQ    8,DU
         1 000406   000415 600000 1                  TZE     s:8909
         1 000407   200075 235100                    LDA     ENTFLG,,AUTO
         1 000410   000415 601000 1                  TNZ     s:8909

      369     8906    3                B$JIT.ERR = LDCT$->NK$LDCT.ERR;

   8906  1 000411   400000 236100                    LDQ     0,,PR4
         1 000412   000000 475400 xsym               LDP5    B$JIT$
         1 000413   500012 756100                    STQ     10,,PR5

      370     8907    3                ALTRETURN;

   8907  1 000414   000000 702200 xent               TSX2  ! X66_AALT

      371     8908    3              END;
      372     8909    2           K$RWPARM.MSG$ = MSG$;

   8909  1 000415   200076 236100                    LDQ     MSG$,,AUTO
         1 000416   200012 756100                    STQ     K$RWPARM,,AUTO

      373     8910    2           K$RWPARM.MSGSZ = MSGSZ;

   8910  1 000417   200100 235100                    LDA     MSGSZ,,AUTO
         1 000420   200013 755100                    STA     K$RWPARM+1,,AUTO

      374     8911    2           IF FPT$ ~= ADDR(NIL)

PL6.E3A0      #001=KIA$UCIOND File=KIA$APPLC.:E05TSI                             WED 07/30/97 00:30 Page:73
   8911  1 000421   200072 236100                    LDQ     FPT$,,AUTO
         1 000422   000001 116000 xsym               CMPQ    B_VECTNIL+1
         1 000423   000451 600000 1                  TZE     NOWRTKEY

      375     8912    3           THEN DO;

      376     8913    3                CALL HFF$NILERASE (1) ALTRET (NOWRTKEY);

   8913  1 000424   000003 630400 2                  EPPR0   3
         1 000425   000017 631400 xsym               EPPR1   B_VECTNIL+15
         1 000426   000000 701000 xent               TSX1    HFF$NILERASE
         1 000427   000451 702000 1                  TSX2    NOWRTKEY

      377     8914    3                CALL HFF$DSIZ(1,USRKEYSZ);

   8914  1 000430   200062 630500                    EPPR0   USRKEYSZ,,AUTO
         1 000431   200113 450500                    STP0    VSIN+5,,AUTO
         1 000432   000003 236000 2                  LDQ     3
         1 000433   200112 756100                    STQ     VSIN+4,,AUTO
         1 000434   200112 630500                    EPPR0   VSIN+4,,AUTO
         1 000435   000020 631400 xsym               EPPR1   B_VECTNIL+16
         1 000436   000000 701000 xent               TSX1    HFF$DSIZ
         1 000437   000000 011000                    NOP     0

      378     8915    3                USRKEYSZ = MINIMUM(255,USRKEYSZ);

   8915  1 000440   200062 236100                    LDQ     USRKEYSZ,,AUTO
         1 000441   000377 116007                    CMPQ    255,DL
         1 000442   000445 602000 1                  TNC     s:8915+5
         1 000443   000445 600000 1                  TZE     s:8915+5
         1 000444   000377 236007                    LDQ     255,DL
         1 000445   200062 756100                    STQ     USRKEYSZ,,AUTO

      379     8916    3                K$RWPARM.KEYSZ = USRKEYSZ;

   8916  1 000446   200060 552104                    STBQ    K$RWPARM+38,'04'O,AUTO

PL6.E3A0      #001=KIA$UCIOND File=KIA$APPLC.:E05TSI                             WED 07/30/97 00:30 Page:74
      380     8917    3                K$RWPARM.KEY$ = B$PS1$;

   8917  1 000447   000000 236000 xsym               LDQ     B$PS1$
         1 000450   200056 756100                    STQ     K$RWPARM+36,,AUTO

      381     8918    3              END;

      382     8919    2   NOWRTKEY: ;

   8919  1 000451                       NOWRTKEY     null
      383     8920    2           IF FCN1=MFC_WRUR

   8920  1 000451   200073 235100                    LDA     FCN1,,AUTO
         1 000452   000012 115007                    CMPA    10,DL
         1 000453   000457 601000 1                  TNZ     s:8924

      384     8921    2           THEN
      385     8922    2                K$RWPARM.TRANS$ = B$XL_UR$;

   8922  1 000454   000000 236000 xsym               LDQ     B$XL_UR$
         1 000455   200043 756100                    STQ     K$RWPARM+25,,AUTO
         1 000456   000466 710000 1                  TRA     s:8930

      386     8923    2           ELSE
      387     8924    2                IF FCN1=MFC_WRURUC

   8924  1 000457   000015 115007                    CMPA    13,DL
         1 000460   000464 601000 1                  TNZ     s:8928

      388     8925    2                THEN
      389     8926    2                     K$RWPARM.TRANS$ = B$XL_UPPER_UR$;

   8926  1 000461   000000 236000 xsym               LDQ     B$XL_UPPER_UR$
         1 000462   200043 756100                    STQ     K$RWPARM+25,,AUTO
         1 000463   000466 710000 1                  TRA     s:8930

      390     8927    2                ELSE
PL6.E3A0      #001=KIA$UCIOND File=KIA$APPLC.:E05TSI                             WED 07/30/97 00:30 Page:75
      391     8928    2                     K$RWPARM.TRANS$ = ADDR(NIL);

   8928  1 000464   000001 236000 xsym               LDQ     B_VECTNIL+1
         1 000465   200043 756100                    STQ     K$RWPARM+25,,AUTO

      392     8929                %LOCK (G=LDCT$->LDCT.LOCK);

   8930  1 000466   200102 236100                    LDQ     LDCT$,,AUTO
         1 000467   000020 036003                    ADLQ    16,DU
         1 000470   200112 756100                    STQ     VSIN+4,,AUTO
         1 000471   200112 630500                    EPPR0   VSIN+4,,AUTO
         1 000472   000017 631400 xsym               EPPR1   B_VECTNIL+15
         1 000473   000000 701000 xent               TSX1    HFC$LOCK
         1 000474   000000 011000                    NOP     0

      393     8932    2           IF DVBYTE1&%DVBYTE_RRR#

   8932  1 000475   200074 236100                    LDQ     DVBYTE1,,AUTO
         1 000476   777000 376003                    ANQ     -512,DU
         1 000477   010000 376003                    ANQ     4096,DU
         1 000500   000503 600000 1                  TZE     s:8937

      394     8933    3           THEN DO;

      395     8934    3                K$RWPARM.MRKTYP = %KV_VDOMRKTYP_ENDACK;

   8934  1 000501   001000 236007                    LDQ     512,DL
         1 000502   200052 552110                    STBQ    K$RWPARM+32,'10'O,AUTO

      396     8935    3              END;

      397     8936
      398     8937    2           K$RWPARM.DVE.DVBYTE = DVBYTE1;

   8937  1 000503   200074 236100                    LDQ     DVBYTE1,,AUTO
         1 000504   200022 552140                    STBQ    K$RWPARM+8,'40'O,AUTO

PL6.E3A0      #001=KIA$UCIOND File=KIA$APPLC.:E05TSI                             WED 07/30/97 00:30 Page:76
   8937  1 000505                       TRY_WRT_AGA* null
      399     8938
      400     8939
      401     8940    2   TRY_WRT_AGAIN:;
      402     8941    2           CALL KIA$WRITE_USER (LDCT$->LDCT,K$RWPARM)

   8941  1 000505   200012 630500                    EPPR0   K$RWPARM,,AUTO
         1 000506   200113 450500                    STP0    VSIN+5,,AUTO
         1 000507   200102 236100                    LDQ     LDCT$,,AUTO
         1 000510   200112 756100                    STQ     VSIN+4,,AUTO
         1 000511   200112 630500                    EPPR0   VSIN+4,,AUTO
         1 000512   000020 631400 xsym               EPPR1   B_VECTNIL+16
         1 000513   000000 701000 xent               TSX1    KIA$WRITE_USER
         1 000514   000516 702000 1                  TSX2    s:8944
         1 000515   000574 710000 1                  TRA     WAIT_RRR_RESP

      403     8942    3           WHENALTRETURN DO;

      404     8943
      405     8944    3                IF S$CU$->B$U.ASYNCH & %(~U_RESET) AND (ENTFLG=%DCB#)

   8944  1 000516   000000 470400 xsym               LDP0    S$CU$
         1 000517   000001 236100                    LDQ     1,,PR0
         1 000520   000014 376000 0                  ANQ     XTRARD+1
         1 000521   000527 600000 1                  TZE     s:8944+9
         1 000522   200075 235100                    LDA     ENTFLG,,AUTO
         1 000523   000527 601000 1                  TNZ     s:8944+9
         1 000524   000000 236100                    LDQ     0,,PR0
         1 000525   000015 376000 0                  ANQ     XTRARD+2
         1 000526   002163 600000 1                  TZE     BRKOUT
         1 000527   200102 471500                    LDP1    LDCT$,,AUTO
         1 000530   100006 236100                    LDQ     6,,PR1
         1 000531   000020 316007                    CANQ    16,DL
         1 000532   002163 601000 1                  TNZ     BRKOUT

      406     8945    3                     AND NOT S$CU$->B$U.FLG & %U_STIP
      407     8946    3                     OR LDCT$->NK$LDCT.DFLG.FEDN
PL6.E3A0      #001=KIA$UCIOND File=KIA$APPLC.:E05TSI                             WED 07/30/97 00:30 Page:77
      408     8947    3                THEN
      409     8948    3                     GOTO BRKOUT;
      410     8949    3                IF K$RWPARM.ERR = %K$NO_THROT

   8949  1 000533   200025 235100                    LDA     K$RWPARM+11,,AUTO
         1 000534   000004 115007                    CMPA    4,DL
         1 000535   000565 601000 1                  TNZ     s:8967

      411     8950    3                THEN
      412     8951    3                     IF K$RWPARM.DVE.DVBYTE.NODAT

   8951  1 000536   200022 236100                    LDQ     K$RWPARM+8,,AUTO
         1 000537   004000 316003                    CANQ    2048,DU
         1 000540   000545 600000 1                  TZE     s:8960

      413     8952    4                     THEN DO;

      414     8953    4                          B$JIT.ERR = KIA_NODAT;

   8953  1 000541   000006 236000 0                  LDQ     KIA_NODAT
         1 000542   000000 473400 xsym               LDP3    B$JIT$
         1 000543   300012 756100                    STQ     10,,PR3

      415     8954               /*E* ERROR: KIA-E$NODAT-C
      416     8955                    MESSAGE: No throttling to write %thru %DC %and NODAT specified.
      417     8956                   */
      418     8957    4                          GOTO BRKOUT;

   8957  1 000544   002163 710000 1                  TRA     BRKOUT

      419     8958    4                        END;
      420     8959    4                     ELSE DO;

      421     8960    4                          CALL SSR$REG (%SS_CBL,LDCT$);

   8960  1 000545   200102 633500                    EPPR3   LDCT$,,AUTO
         1 000546   200113 453500                    STP3    VSIN+5,,AUTO
PL6.E3A0      #001=KIA$UCIOND File=KIA$APPLC.:E05TSI                             WED 07/30/97 00:30 Page:78
         1 000547   000004 236000 2                  LDQ     4
         1 000550   200112 756100                    STQ     VSIN+4,,AUTO
         1 000551   200112 630500                    EPPR0   VSIN+4,,AUTO
         1 000552   000020 631400 xsym               EPPR1   B_VECTNIL+16
         1 000553   000000 701000 xent               TSX1    SSR$REG
         1 000554   000000 011000                    NOP     0

      422     8961                               %LOCK (G=LDCT$->NK$LDCT.LOCK);

   8962  1 000555   200102 236100                    LDQ     LDCT$,,AUTO
         1 000556   000020 036003                    ADLQ    16,DU
         1 000557   200112 756100                    STQ     VSIN+4,,AUTO
         1 000560   200112 630500                    EPPR0   VSIN+4,,AUTO
         1 000561   000017 631400 xsym               EPPR1   B_VECTNIL+15
         1 000562   000000 701000 xent               TSX1    HFC$LOCK
         1 000563   000000 011000                    NOP     0

      423     8964    4                          GOTO TRY_WRT_AGAIN ;

   8964  1 000564   000505 710000 1                  TRA     TRY_WRT_AGAIN

      424     8965    4                        END;
      425     8966
      426     8967    3                IF K$RWPARM.ERR ~= %K$QFULL

   8967  1 000565   000001 115007                    CMPA    1,DL
         1 000566   002163 601000 1                  TNZ     BRKOUT

      427     8968    3                THEN
      428     8969    3                     GOTO BRKOUT;
      429     8970    3                CALL KIA$OQFL (LDCT$->LDCT) ALTRET(BRKOUT) ;

   8970  1 000567   200102 630500                    EPPR0   LDCT$,,AUTO
         1 000570   000017 631400 xsym               EPPR1   B_VECTNIL+15
         1 000571   000000 701000 xent               TSX1    KIA$OQFL
         1 000572   002163 702000 1                  TSX2    BRKOUT

PL6.E3A0      #001=KIA$UCIOND File=KIA$APPLC.:E05TSI                             WED 07/30/97 00:30 Page:79
      430     8971    3                GOTO TRY_WRT_AGAIN ;

   8971  1 000573   000505 710000 1                  TRA     TRY_WRT_AGAIN

   8964  1 000574                       WAIT_RRR_RE* null
      431     8972    3              END;
      432     8973    2   WAIT_RRR_RESP: ;
      433     8974    2           IF K$RWPARM.MRKTYP ~= 0         /* Must wait for output complete      */

   8974  1 000574   200052 236100                    LDQ     K$RWPARM+32,,AUTO
         1 000575   777000 316007                    CANQ    -512,DL
         1 000576   000720 600000 1                  TZE     s:9010

      434     8975    3           THEN DO;

      435     8976    3                PFB = K$RWPARM.STR;        /* clobbered by KIA$MSG (probably) */

   8976  1 000577   200052 236100                    LDQ     K$RWPARM+32,,AUTO
         1 000600   000777 376007                    ANQ     511,DL
         1 000601   200104 756100                    STQ     PFB,,AUTO

      436     8977        /* S unlocks LDCT$->NK$LDCT.LOCK */
      437     8978    3                CALL SSR$REG (%SS_CW,LDCT$);

   8978  1 000602   200102 630500                    EPPR0   LDCT$,,AUTO
         1 000603   200113 450500                    STP0    VSIN+5,,AUTO
         1 000604   000006 236000 2                  LDQ     6
         1 000605   200112 756100                    STQ     VSIN+4,,AUTO
         1 000606   200112 630500                    EPPR0   VSIN+4,,AUTO
         1 000607   000020 631400 xsym               EPPR1   B_VECTNIL+16
         1 000610   000000 701000 xent               TSX1    SSR$REG
         1 000611   000000 011000                    NOP     0

      438     8979                     %LOCK (G=LDCT$->NK$LDCT.LOCK);

   8980  1 000612   200102 236100                    LDQ     LDCT$,,AUTO
         1 000613   000020 036003                    ADLQ    16,DU
PL6.E3A0      #001=KIA$UCIOND File=KIA$APPLC.:E05TSI                             WED 07/30/97 00:30 Page:80
         1 000614   200112 756100                    STQ     VSIN+4,,AUTO
         1 000615   200112 630500                    EPPR0   VSIN+4,,AUTO
         1 000616   000017 631400 xsym               EPPR1   B_VECTNIL+15
         1 000617   000000 701000 xent               TSX1    HFC$LOCK
         1 000620   000000 011000                    NOP     0

      439     8982    3                K$RWPARM.IP$ = LDCT$->LDCT.IP$;

   8982  1 000621   200102 470500                    LDP0    LDCT$,,AUTO
         1 000622   000013 236100                    LDQ     11,,PR0
         1 000623   200024 756100                    STQ     K$RWPARM+10,,AUTO

      440     8983
      441     8984    3                LDCT$->LDCT.IP$ = ADDR(NIL);

   8984  1 000624   000001 236000 xsym               LDQ     B_VECTNIL+1
         1 000625   000013 756100                    STQ     11,,PR0

      442     8985    3                IF K$RWPARM.IP$ = ADDR(NIL)

   8985  1 000626   200024 236100                    LDQ     K$RWPARM+10,,AUTO
         1 000627   000001 116000 xsym               CMPQ    B_VECTNIL+1
         1 000630   002163 600000 1                  TZE     BRKOUT

      443     8986    3                THEN
      444     8987    3                     GOTO BRKOUT ;
      445     8988
      446     8989    3                CALL KIQ$MAPFEP(LDCT$->LDCT.IPFEI#);

   8989  1 000631   200102 236100                    LDQ     LDCT$,,AUTO
         1 000632   000007 036000 2                  ADLQ    7
         1 000633   200112 756100                    STQ     VSIN+4,,AUTO
         1 000634   200112 630500                    EPPR0   VSIN+4,,AUTO
         1 000635   000017 631400 xsym               EPPR1   B_VECTNIL+15
         1 000636   000000 701000 xent               TSX1    KIQ$MAPFEP
         1 000637   000000 011000                    NOP     0

PL6.E3A0      #001=KIA$UCIOND File=KIA$APPLC.:E05TSI                             WED 07/30/97 00:30 Page:81
      447     8990    3                K$RWPARM.UHDR$ = PINCRC(K$RWPARM.IP$,K$RWPARM.IP$->KI$QMHDR.OFFSET);

   8990  1 000640   200024 470500                    LDP0    K$RWPARM+10,,AUTO
         1 000641   000001 236100                    LDQ     1,,PR0
         1 000642   000022 772000                    QRL     18
         1 000643   000020 736000                    QLS     16
         1 000644   200024 036100                    ADLQ    K$RWPARM+10,,AUTO
         1 000645   200026 756100                    STQ     K$RWPARM+12,,AUTO

      448     8991    3                K$RWPARM.UHDRSZ = K$RWPARM.IP$->KI$QMHDR.SIZE;

   8991  1 000646   000001 236100                    LDQ     1,,PR0
         1 000647   777777 376007                    ANQ     -1,DL
         1 000650   200027 756100                    STQ     K$RWPARM+13,,AUTO

      449     8992    3                CALL KIA$MSG (K$RWPARM);

   8992  1 000651   200012 631500                    EPPR1   K$RWPARM,,AUTO
         1 000652   200112 451500                    STP1    VSIN+4,,AUTO
         1 000653   200112 630500                    EPPR0   VSIN+4,,AUTO
         1 000654   000017 631400 xsym               EPPR1   B_VECTNIL+15
         1 000655   000000 701000 xent               TSX1    KIA$MSG
         1 000656   000000 011000                    NOP     0

      450     8993    3                B$JIT.ERR = K$RWPARM.MSG_ERRCODE;

   8993  1 000657   200051 236100                    LDQ     K$RWPARM+31,,AUTO
         1 000660   000000 470400 xsym               LDP0    B$JIT$
         1 000661   000012 756100                    STQ     10,,PR0

      451     8994    3                IF NOT B$JIT.ERR

   8994  1 000662   000701 601000 1                  TNZ     s:9001

      452     8995    3                THEN
      453     8996    3                     IF K$RWPARM.VDOFLGS.NEWSSN

PL6.E3A0      #001=KIA$UCIOND File=KIA$APPLC.:E05TSI                             WED 07/30/97 00:30 Page:82
   8996  1 000663   200052 236100                    LDQ     K$RWPARM+32,,AUTO
         1 000664   000100 316003                    CANQ    64,DU
         1 000665   000674 600000 1                  TZE     s:9000

      454     8997    3                     THEN
      455     8998    3                          B$ROSEG$->B$ROSEG.STREAM_VALID(PFB) = '0'B;

   8998  1 000666   000000 471400 xsym               LDP1    B$ROSEG$
         1 000667   200104 235100                    LDA     PFB,,AUTO
         1 000670   003105 060400                    CSL     bolr='003'O
         1 000671   000002 000001 xsym               BDSC    B_VECTNIL+2              by=0,bit=0,n=1
         1 000672   100117 000001                    BDSC    79,A,PR1                 by=0,bit=0,n=1
         1 000673   000701 710000 1                  TRA     s:9001

      456     8999    3                     ELSE
      457     9000    3                          B$ROSEG$->B$ROSEG.STREAM_VALID(PFB) = '1'B;

   9000  1 000674   000000 471400 xsym               LDP1    B$ROSEG$
         1 000675   200104 235100                    LDA     PFB,,AUTO
         1 000676   003105 060400                    CSL     bolr='003'O
         1 000677   000030 000001 xsym               BDSC    B_VECTNIL+24             by=0,bit=0,n=1
         1 000700   100117 000001                    BDSC    79,A,PR1                 by=0,bit=0,n=1

      458     9001    3                IF ENTFLG = %DCB#

   9001  1 000701   200075 235100                    LDA     ENTFLG,,AUTO
         1 000702   000706 601000 1                  TNZ     s:9004

      459     9002    3                THEN
      460     9003    3                     DCB$->F$DCB.FLDID = K$RWPARM.FLDID;

   9003  1 000703   200057 720100                    LXL0    K$RWPARM+37,,AUTO
         1 000704   200101 471500                    LDP1    DCB$,,AUTO
         1 000705   100061 440100                    SXL0    49,,PR1

      461     9004    3                K$RWPARM.LDCT$ = LDCT$;

PL6.E3A0      #001=KIA$UCIOND File=KIA$APPLC.:E05TSI                             WED 07/30/97 00:30 Page:83
   9004  1 000706   200102 236100                    LDQ     LDCT$,,AUTO
         1 000707   200030 756100                    STQ     K$RWPARM+14,,AUTO

      462     9005    3                K$RWPARM.FUNCTION = %K_READDONE;

   9005  1 000710   000011 235007                    LDA     9,DL
         1 000711   200032 755100                    STA     K$RWPARM+16,,AUTO

      463     9006    3                CALL KIS$SEND (K$RWPARM);

   9006  1 000712   200012 631500                    EPPR1   K$RWPARM,,AUTO
         1 000713   200112 451500                    STP1    VSIN+4,,AUTO
         1 000714   200112 630500                    EPPR0   VSIN+4,,AUTO
         1 000715   000017 631400 xsym               EPPR1   B_VECTNIL+15
         1 000716   000000 701000 xent               TSX1    KIS$SEND
         1 000717   000000 011000                    NOP     0

      464     9007    3              END;

      465     9008
      466     9009                %UNLOCK (G=LDCT$->LDCT.LOCK);

   9010  1 000720   200102 236100                    LDQ     LDCT$,,AUTO
         1 000721   000020 036003                    ADLQ    16,DU
         1 000722   200112 756100                    STQ     VSIN+4,,AUTO
         1 000723   200112 630500                    EPPR0   VSIN+4,,AUTO
         1 000724   000017 631400 xsym               EPPR1   B_VECTNIL+15
         1 000725   000000 701000 xent               TSX1    HFC$UNLOCK
         1 000726   000000 011000                    NOP     0

      467     9012    2           IF B$JIT$->B$JIT.CPFLAGS1 & %CP_DRIBBLE# AND ENTFLG = %DCB#

   9012  1 000727   000000 470400 xsym               LDP0    B$JIT$
         1 000730   000143 236100                    LDQ     99,,PR0
         1 000731   000017 376000 0                  ANQ     XTRARD+4
         1 000732   000747 600000 1                  TZE     s:9016
         1 000733   200075 235100                    LDA     ENTFLG,,AUTO
PL6.E3A0      #001=KIA$UCIOND File=KIA$APPLC.:E05TSI                             WED 07/30/97 00:30 Page:84
         1 000734   000747 601000 1                  TNZ     s:9016
         1 000735   200101 236100                    LDQ     DCB$,,AUTO
         1 000736   000000 116000 xsym               CMPQ    B$M$UC$
         1 000737   000747 601000 1                  TNZ     s:9016
         1 000740   200073 235100                    LDA     FCN1,,AUTO
         1 000741   000014 115007                    CMPA    12,DL
         1 000742   000747 600000 1                  TZE     s:9016

      468     9013    2                AND DCB$ = B$M$UC$ AND (FCN1 ~= MFC_TCTL)
      469     9014    2           THEN
      470     9015    2                CALL UMD$DOU(DVBYTE,VFC);

   9015  1 000743   200004 630500                    EPPR0   @DVBYTE,,AUTO
         1 000744   000020 631400 xsym               EPPR1   B_VECTNIL+16
         1 000745   000000 701000 xent               TSX1    UMD$DOU
         1 000746   000000 011000                    NOP     0

      471     9016    2           IF K$RWPARM.TYC

   9016  1 000747   200020 235100                    LDA     K$RWPARM+6,,AUTO
         1 000750   002104 600000 1                  TZE     CSEND

      472     9017    2           THEN
      473     9018    2                B$JIT.ERR = K$RWPARM.MSG_ERRCODE;

   9018  1 000751   200051 236100                    LDQ     K$RWPARM+31,,AUTO
         1 000752   000000 470400 xsym               LDP0    B$JIT$
         1 000753   000012 756100                    STQ     10,,PR0
         1 000754   002104 710000 1                  TRA     CSEND

      474     9019
      475     9020
      476     9021        %EJECT;
PL6.E3A0      #001=KIA$UCIOND File=KIA$APPLC.:E05TSI                             WED 07/30/97 00:30 Page:85
      477     9022    2        CASE (MFC_READ);

      478     9023
      479     9024         /* If the front end has reported a disconnect read is no longer allowedA */
      480     9025    2           IF LDCT$->NK$LDCT.DFLG.OLDSC

   9025  1 000755   200102 474500                    LDP4    LDCT$,,AUTO
         1 000756   400006 236100                    LDQ     6,,PR4
         1 000757   010000 316007                    CANQ    4096,DL
         1 000760   000765 600000 1                  TZE     s:9031

      481     9026    3           THEN DO;

      482     9027    3                B$JIT.ERR = LDSC;

   9027  1 000761   000007 236000 0                  LDQ     LDSC
         1 000762   000000 475400 xsym               LDP5    B$JIT$
         1 000763   500012 756100                    STQ     10,,PR5

      483     9028    3                ALTRETURN;

   9028  1 000764   000000 702200 xent               TSX2  ! X66_AALT

      484     9029    3              END;
      485     9030
      486     9031    2           CALL HFF$DSIZ(0,USRKEYSZ);

   9031  1 000765   200062 635500                    EPPR5   USRKEYSZ,,AUTO
         1 000766   200113 455500                    STP5    VSIN+5,,AUTO
         1 000767   000010 236000 2                  LDQ     8
         1 000770   200112 756100                    STQ     VSIN+4,,AUTO
         1 000771   200112 630500                    EPPR0   VSIN+4,,AUTO
         1 000772   000020 631400 xsym               EPPR1   B_VECTNIL+16
         1 000773   000000 701000 xent               TSX1    HFF$DSIZ
         1 000774   000000 011000                    NOP     0

      487     9032    2           IF FPT$~= ADDR(NIL)
PL6.E3A0      #001=KIA$UCIOND File=KIA$APPLC.:E05TSI                             WED 07/30/97 00:30 Page:86

   9032  1 000775   200072 236100                    LDQ     FPT$,,AUTO
         1 000776   000001 116000 xsym               CMPQ    B_VECTNIL+1
         1 000777   001077 600000 1                  TZE     s:9060

      488     9033    2           THEN
      489     9034    2                IF USRKEYSZ = SIZEC(FPT$->FPT$READ_V)

   9034  1 001000   200062 235100                    LDA     USRKEYSZ,,AUTO
         1 001001   000030 115007                    CMPA    24,DL
         1 001002   001077 601000 1                  TNZ     s:9060

      490     9035    2                THEN
      491     9036    2                     IF FPT$->FPT$READ_V.SINPUTSIZE ~= 0 AND

   9036  1 001003   200072 470500                    LDP0    FPT$,,AUTO
         1 001004   000004 220100                    LDX0    4,,PR0
         1 001005   001077 600000 1                  TZE     s:9060
         1 001006   200075 235100                    LDA     ENTFLG,,AUTO
         1 001007   001017 601000 1                  TNZ     s:9041
         1 001010   200101 471500                    LDP1    DCB$,,AUTO
         1 001011   100032 236100                    LDQ     26,,PR1
         1 001012   777000 376003                    ANQ     -512,DU
         1 001013   027000 116003                    CMPQ    11776,DU
         1 001014   001077 600000 1                  TZE     s:9060
         1 001015   031000 116003                    CMPQ    12800,DU
         1 001016   001077 600000 1                  TZE     s:9060

      492     9037    2                          NOT (ENTFLG = %DCB# AND
      493     9038    2                          (DCB$ -> F$DCB.ORG = %SE# OR
      494     9039    2                          DCB$ -> F$DCB.ORG = %FORM#))
      495     9040    3                     THEN DO;

      496     9041    3                          K$RWPARM.V$ = ADDR(VSIN);

   9041  1 001017   200106 631500                    EPPR1   VSIN,,AUTO
         1 001020   200055 451500                    STP1    K$RWPARM+35,,AUTO
PL6.E3A0      #001=KIA$UCIOND File=KIA$APPLC.:E05TSI                             WED 07/30/97 00:30 Page:87

      497     9042    3                          K$RWPARM.VSZ = LENGTHC(VSIN);

   9042  1 001021   000004 220003                    LDX0    4,DU
         1 001022   200057 740100                    STX0    K$RWPARM+37,,AUTO

      498     9043    3                          K$RWPARM.PRMID = %KV_PRMID_SINPUT;

   9043  1 001023   000013 221003                    LDX1    11,DU
         1 001024   200057 441100                    SXL1    K$RWPARM+37,,AUTO

      499     9044    3                          K$RWPARM.MSG$ = MSG$;

   9044  1 001025   200076 236100                    LDQ     MSG$,,AUTO
         1 001026   200012 756100                    STQ     K$RWPARM,,AUTO

      500     9045    3                          K$RWPARM.MSGSZ = MINIMUM(MSGSZ,FPT$->FPT$READ_V.SINPUTSIZE);

   9045  1 001027   000004 236100                    LDQ     4,,PR0
         1 001030   000022 772000                    QRL     18
         1 001031   200100 116100                    CMPQ    MSGSZ,,AUTO
         1 001032   001035 602000 1                  TNC     s:9045+6
         1 001033   001035 600000 1                  TZE     s:9045+6
         1 001034   200100 236100                    LDQ     MSGSZ,,AUTO
         1 001035   200013 756100                    STQ     K$RWPARM+1,,AUTO

      501     9046    3                          VSIN.PFB = PFB;

   9046  1 001036   200104 236100                    LDQ     PFB,,AUTO
         1 001037   000033 736000                    QLS     27
         1 001040   200106 552140                    STBQ    VSIN,'40'O,AUTO

      502     9047    3                          VSIN.POS = FPT$->FPT$READ_V.REREADPOS;

   9047  1 001041   000004 722100                    LXL2    4,,PR0
         1 001042   200106 442100                    SXL2    VSIN,,AUTO

PL6.E3A0      #001=KIA$UCIOND File=KIA$APPLC.:E05TSI                             WED 07/30/97 00:30 Page:88
      503     9048    3                          VSIN.POSL6.T = VSIN.POSL66.T;

   9048  1 001043   200106 236100                    LDQ     VSIN,,AUTO
         1 001044   200106 552110                    STBQ    VSIN,'10'O,AUTO

      504     9049                               %LOCK (G=LDCT$->NK$LDCT.LOCK);

   9050  1 001045   200102 236100                    LDQ     LDCT$,,AUTO
         1 001046   000020 036003                    ADLQ    16,DU
         1 001047   200112 756100                    STQ     VSIN+4,,AUTO
         1 001050   200112 630500                    EPPR0   VSIN+4,,AUTO
         1 001051   000017 631400 xsym               EPPR1   B_VECTNIL+15
         1 001052   000000 701000 xent               TSX1    HFC$LOCK
         1 001053   000000 011000                    NOP     0

      505     9052    3                          CALL KIA$FCNOU(LDCT$->NK$LDCT,%KV_VDO_FNC_PRM_SET,K$RWPARM)
              9052                                   ALTRET(BRKOUT);

   9052  1 001054   200012 630500                    EPPR0   K$RWPARM,,AUTO
         1 001055   200114 450500                    STP0    VSIN+6,,AUTO
         1 001056   000012 236000 2                  LDQ     10
         1 001057   200102 235100                    LDA     LDCT$,,AUTO
         1 001060   200112 757100                    STAQ    VSIN+4,,AUTO
         1 001061   200112 630500                    EPPR0   VSIN+4,,AUTO
         1 001062   000021 631400 xsym               EPPR1   B_VECTNIL+17
         1 001063   000000 701000 xent               TSX1    KIA$FCNOU
         1 001064   002163 702000 1                  TSX2    BRKOUT

      506     9053                               %UNLOCK (G=LDCT$->NK$LDCT.LOCK);

   9054  1 001065   200102 236100                    LDQ     LDCT$,,AUTO
         1 001066   000020 036003                    ADLQ    16,DU
         1 001067   200112 756100                    STQ     VSIN+4,,AUTO
         1 001070   200112 630500                    EPPR0   VSIN+4,,AUTO
         1 001071   000017 631400 xsym               EPPR1   B_VECTNIL+15
         1 001072   000000 701000 xent               TSX1    HFC$UNLOCK
         1 001073   000000 011000                    NOP     0
PL6.E3A0      #001=KIA$UCIOND File=KIA$APPLC.:E05TSI                             WED 07/30/97 00:30 Page:89

      507     9056    3                          K$RWPARM.MSGSZ = 0;

   9056  1 001074   200013 450100                    STZ     K$RWPARM+1,,AUTO

      508     9057    3                          K$RWPARM.MSG$ = ADDR(NIL);

   9057  1 001075   000001 236000 xsym               LDQ     B_VECTNIL+1
         1 001076   200012 756100                    STQ     K$RWPARM,,AUTO

      509     9058    3                        END;

      510     9059
      511     9060    3           IF LDCT$->LDCT.LKFLG.FPSTEP AND ENTFLG=%DCB# THEN DO;

   9060  1 001077   200102 470500                    LDP0    LDCT$,,AUTO
         1 001100   000011 236100                    LDQ     9,,PR0
         1 001101   000010 316003                    CANQ    8,DU
         1 001102   001111 600000 1                  TZE     s:9064
         1 001103   200075 235100                    LDA     ENTFLG,,AUTO
         1 001104   001111 601000 1                  TNZ     s:9064

      512     9061    3                B$JIT.ERR=NOFPRG;

   9061  1 001105   000011 236000 0                  LDQ     NOFPRG
         1 001106   000000 471400 xsym               LDP1    B$JIT$
         1 001107   100012 756100                    STQ     10,,PR1

      513     9062    3                ALTRETURN;

   9062  1 001110   000000 702200 xent               TSX2  ! X66_AALT

      514     9063    3              END;
      515     9064    2           IF FPT$ ~= ADDR(NIL) AND FPT$->FPT$READ_V.KEYS

   9064  1 001111   200072 236100                    LDQ     FPT$,,AUTO
         1 001112   000001 116000 xsym               CMPQ    B_VECTNIL+1
PL6.E3A0      #001=KIA$UCIOND File=KIA$APPLC.:E05TSI                             WED 07/30/97 00:30 Page:90
         1 001113   001145 600000 1                  TZE     NORDKEY
         1 001114   200072 471500                    LDP1    FPT$,,AUTO
         1 001115   100000 236100                    LDQ     0,,PR1
         1 001116   200000 316007                    CANQ    65536,DL
         1 001117   001145 600000 1                  TZE     NORDKEY

      516     9065    3           THEN DO;

      517     9066    3                CALL HFF$NILERASE (1) ALTRET (NORDKEY);

   9066  1 001120   000003 630400 2                  EPPR0   3
         1 001121   000017 631400 xsym               EPPR1   B_VECTNIL+15
         1 001122   000000 701000 xent               TSX1    HFF$NILERASE
         1 001123   001145 702000 1                  TSX2    NORDKEY

      518     9067    3                CALL HFF$DSIZ(1,USRKEYSZ);

   9067  1 001124   200062 630500                    EPPR0   USRKEYSZ,,AUTO
         1 001125   200113 450500                    STP0    VSIN+5,,AUTO
         1 001126   000003 236000 2                  LDQ     3
         1 001127   200112 756100                    STQ     VSIN+4,,AUTO
         1 001130   200112 630500                    EPPR0   VSIN+4,,AUTO
         1 001131   000020 631400 xsym               EPPR1   B_VECTNIL+16
         1 001132   000000 701000 xent               TSX1    HFF$DSIZ
         1 001133   000000 011000                    NOP     0

      519     9068    3                USRKEYSZ = MINIMUM(31,USRKEYSZ);

   9068  1 001134   200062 236100                    LDQ     USRKEYSZ,,AUTO
         1 001135   000037 116007                    CMPQ    31,DL
         1 001136   001141 602000 1                  TNC     s:9068+5
         1 001137   001141 600000 1                  TZE     s:9068+5
         1 001140   000037 236007                    LDQ     31,DL
         1 001141   200062 756100                    STQ     USRKEYSZ,,AUTO

      520     9069    3                K$RWPARM.KEYSZ = USRKEYSZ;

PL6.E3A0      #001=KIA$UCIOND File=KIA$APPLC.:E05TSI                             WED 07/30/97 00:30 Page:91
   9069  1 001142   200060 552104                    STBQ    K$RWPARM+38,'04'O,AUTO

      521     9070    3                K$RWPARM.KEY$ = B$PS1$;

   9070  1 001143   000000 236000 xsym               LDQ     B$PS1$
         1 001144   200056 756100                    STQ     K$RWPARM+36,,AUTO

      522     9071    3              END;

   9070  1 001145                       NORDKEY      null
      523     9072    2   NORDKEY: ;
      524     9073    2           TDVB=DVBYTE1;                   /* TO AVOID CALLING TRAPALT           */

   9073  1 001145   200074 236100                    LDQ     DVBYTE1,,AUTO
         1 001146   777000 376003                    ANQ     -512,DU
         1 001147   200077 756100                    STQ     TDVB,,AUTO

      525     9074
      526     9075                %LOCK (G=LDCT$->NK$LDCT.LOCK);

   9076  1 001150   200102 236100                    LDQ     LDCT$,,AUTO
         1 001151   000020 036003                    ADLQ    16,DU
         1 001152   200112 756100                    STQ     VSIN+4,,AUTO
         1 001153   200112 630500                    EPPR0   VSIN+4,,AUTO
         1 001154   000017 631400 xsym               EPPR1   B_VECTNIL+15
         1 001155   000000 701000 xent               TSX1    HFC$LOCK
         1 001156   000000 011000                    NOP     0

      527     9078
      528     9079        /* If there is a no wait read pending, cancel it */
      529     9080    2           IF DCB$ ~= ADDR(NIL)

   9080  1 001157   200101 236100                    LDQ     DCB$,,AUTO
         1 001160   000001 116000 xsym               CMPQ    B_VECTNIL+1
         1 001161   001274 600000 1                  TZE     s:9126

      530     9081    2           THEN IF DCB$->F$DCB.WAIT~=0 AND DCB$->F$DCB.FCN.CNT(0) ~= 0
PL6.E3A0      #001=KIA$UCIOND File=KIA$APPLC.:E05TSI                             WED 07/30/97 00:30 Page:92

   9081  1 001162   200101 470500                    LDP0    DCB$,,AUTO
         1 001163   000064 236100                    LDQ     52,,PR0
         1 001164   000020 316007                    CANQ    16,DL
         1 001165   001274 600000 1                  TZE     s:9126
         1 001166   000074 236100                    LDQ     60,,PR0
         1 001167   377000 316003                    CANQ    130560,DU
         1 001170   001274 600000 1                  TZE     s:9126

      531     9082    3                THEN DO;

   9081  1 001171                       CANCEL_READ  null
      532     9083
      533     9084    3   CANCEL_READ:      ;
      534     9085        /*
      535     9086             Send a cancel down to other end
      536     9087         */
      537     9088    3                     K$RWPARM = K_RWPARM_CON;

   9088  1 001171   000100 100400                    MLR     fill='000'O
         1 001172   000000 000234 xsym               ADSC9   K_RWPARM_CON             cn=0,n=156
         1 001173   200012 000234                    ADSC9   K$RWPARM,,AUTO           cn=0,n=156

      538     9089    3                     K$RWPARM.STR = LDCT$->NK$LDCT.NOWAIT.STREAM;

   9089  1 001174   200102 470500                    LDP0    LDCT$,,AUTO
         1 001175   000010 236100                    LDQ     8,,PR0
         1 001176   000022 772000                    QRL     18
         1 001177   200052 552104                    STBQ    K$RWPARM+32,'04'O,AUTO

      539     9090    3                     K$RWPARM.MRKTYP = %KV_VDOMRKTYP_ENDACK;

   9090  1 001200   001000 236007                    LDQ     512,DL
         1 001201   200052 552110                    STBQ    K$RWPARM+32,'10'O,AUTO

      540     9091    3                     CALL KIA$FCNOU(LDCT$->NK$LDCT,%KV_VDO_FNC_RQSDAT,K$RWPARM)

PL6.E3A0      #001=KIA$UCIOND File=KIA$APPLC.:E05TSI                             WED 07/30/97 00:30 Page:93
   9091  1 001202   200012 631500                    EPPR1   K$RWPARM,,AUTO
         1 001203   200114 451500                    STP1    VSIN+6,,AUTO
         1 001204   000014 236000 2                  LDQ     12
         1 001205   200102 235100                    LDA     LDCT$,,AUTO
         1 001206   200112 757100                    STAQ    VSIN+4,,AUTO
         1 001207   200112 630500                    EPPR0   VSIN+4,,AUTO
         1 001210   000021 631400 xsym               EPPR1   B_VECTNIL+17
         1 001211   000000 701000 xent               TSX1    KIA$FCNOU
         1 001212   002163 702000 1                  TSX2    BRKOUT

      541     9092    3                          ALTRET (BRKOUT);
      542     9093
      543     9094        /*
      544     9095             Wait for cancel to be acked
      545     9096         */
      546     9097    3                     LDCT$->NK$LDCT.LKFLG.WTMRK = '1'B;

   9097  1 001213   200102 470500                    LDP0    LDCT$,,AUTO
         1 001214   020000 236003                    LDQ     8192,DU
         1 001215   000011 256100                    ORSQ    9,,PR0

      547     9098    3                     CALL SSR$REG(%SS_CW,LDCT$);

   9098  1 001216   200102 630500                    EPPR0   LDCT$,,AUTO
         1 001217   200113 450500                    STP0    VSIN+5,,AUTO
         1 001220   000006 236000 2                  LDQ     6
         1 001221   200112 756100                    STQ     VSIN+4,,AUTO
         1 001222   200112 630500                    EPPR0   VSIN+4,,AUTO
         1 001223   000020 631400 xsym               EPPR1   B_VECTNIL+16
         1 001224   000000 701000 xent               TSX1    SSR$REG
         1 001225   000000 011000                    NOP     0

      548     9099                          %LOCK (G=LDCT$->NK$LDCT.LOCK);

   9100  1 001226   200102 236100                    LDQ     LDCT$,,AUTO
         1 001227   000020 036003                    ADLQ    16,DU
         1 001230   200112 756100                    STQ     VSIN+4,,AUTO
PL6.E3A0      #001=KIA$UCIOND File=KIA$APPLC.:E05TSI                             WED 07/30/97 00:30 Page:94
         1 001231   200112 630500                    EPPR0   VSIN+4,,AUTO
         1 001232   000017 631400 xsym               EPPR1   B_VECTNIL+15
         1 001233   000000 701000 xent               TSX1    HFC$LOCK
         1 001234   000000 011000                    NOP     0

      549     9102
      550     9103        /*
      551     9104             Check to see if the no wait read is still pending
      552     9105          */
      553     9106    4                     DO WHILE LDCT$->NK$LDCT.LKFLG.NOWAIT; /* Need to event */

   9106  1 001235   200102 470500                    LDP0    LDCT$,,AUTO
         1 001236   000011 236100                    LDQ     9,,PR0
         1 001237   000001 316003                    CANQ    1,DU
         1 001240   001264 600000 1                  TZE     s:9121

      554     9107
      555     9108    4                          K$RWPARM = K_RWPARM_CON;

   9108  1 001241   000100 100400                    MLR     fill='000'O
         1 001242   000000 000234 xsym               ADSC9   K_RWPARM_CON             cn=0,n=156
         1 001243   200012 000234                    ADSC9   K$RWPARM,,AUTO           cn=0,n=156

      556     9109    4                          K$RWPARM.MSG_ERRCODE = XTRARD;

   9109  1 001244   000013 236000 0                  LDQ     XTRARD
         1 001245   200051 756100                    STQ     K$RWPARM+31,,AUTO

      557     9110        /*E* ERROR: KIA-E$XTRARD
      558     9111             MESSAGE: Nowait read %thru %DC %canceled by another read request.
      559     9112             MESSAGE1: A nowait read %thru %DC %was canceled either because
      560     9113                       a subsequent read request specified wait, a different
      561     9114                       buffer size, key size, or keytype, or would have exceeded
      562     9115                       the system maximum of three nowait reads per connection.
      563     9116           */
      564     9117    4                          K$RWPARM.TYC = %TYC_XTRARD;

PL6.E3A0      #001=KIA$UCIOND File=KIA$APPLC.:E05TSI                             WED 07/30/97 00:30 Page:95
   9117  1 001246   000020 236000 0                  LDQ     XTRARD+5
         1 001247   200020 756100                    STQ     K$RWPARM+6,,AUTO

      565     9118    4                          CALL KIA$COMP(LDCT$->NK$LDCT,K$RWPARM);

   9118  1 001250   200012 630500                    EPPR0   K$RWPARM,,AUTO
         1 001251   200113 450500                    STP0    VSIN+5,,AUTO
         1 001252   200102 236100                    LDQ     LDCT$,,AUTO
         1 001253   200112 756100                    STQ     VSIN+4,,AUTO
         1 001254   200112 630500                    EPPR0   VSIN+4,,AUTO
         1 001255   000020 631400 xsym               EPPR1   B_VECTNIL+16
         1 001256   000000 701000 xent               TSX1    KIA$COMP
         1 001257   000000 011000                    NOP     0

      566     9119    4                        END;

   9119  1 001260   200102 470500                    LDP0    LDCT$,,AUTO
         1 001261   000011 236100                    LDQ     9,,PR0
         1 001262   000001 316003                    CANQ    1,DU
         1 001263   001241 601000 1                  TNZ     s:9108

      567     9120                          %UNLOCK (G=LDCT$->NK$LDCT.LOCK);

   9121  1 001264   200102 236100                    LDQ     LDCT$,,AUTO
         1 001265   000020 036003                    ADLQ    16,DU
         1 001266   200112 756100                    STQ     VSIN+4,,AUTO
         1 001267   200112 630500                    EPPR0   VSIN+4,,AUTO
         1 001270   000017 631400 xsym               EPPR1   B_VECTNIL+15
         1 001271   000000 701000 xent               TSX1    HFC$UNLOCK
         1 001272   000000 011000                    NOP     0

      568     9123    3                     GOTO CMN;             /* rebuild K$RWPARM */

   9123  1 001273   000101 710000 1                  TRA     CMN

      569     9124    3                   END;
      570     9125                %UNLOCK (G=LDCT$->NK$LDCT.LOCK);
PL6.E3A0      #001=KIA$UCIOND File=KIA$APPLC.:E05TSI                             WED 07/30/97 00:30 Page:96

   9126  1 001274   200102 236100                    LDQ     LDCT$,,AUTO
         1 001275   000020 036003                    ADLQ    16,DU
         1 001276   200112 756100                    STQ     VSIN+4,,AUTO
         1 001277   200112 630500                    EPPR0   VSIN+4,,AUTO
         1 001300   000017 631400 xsym               EPPR1   B_VECTNIL+15
         1 001301   000000 701000 xent               TSX1    HFC$UNLOCK
         1 001302   000000 011000                    NOP     0

      571     9128        %EJECT;
PL6.E3A0      #001=KIA$UCIOND File=KIA$APPLC.:E05TSI                             WED 07/30/97 00:30 Page:97
      572     9129    2           IF DCB$~=ADDR(NIL) AND DCB$->F$DCB.WAIT=0

   9129  1 001303   200101 236100                    LDQ     DCB$,,AUTO
         1 001304   000001 116000 xsym               CMPQ    B_VECTNIL+1
         1 001305   001670 600000 1                  TZE     s:9257
         1 001306   200101 470500                    LDP0    DCB$,,AUTO
         1 001307   000064 236100                    LDQ     52,,PR0
         1 001310   000020 316007                    CANQ    16,DL
         1 001311   001670 601000 1                  TNZ     s:9257

      573     9130    3           THEN DO;

      574     9131        /*I*
      575     9132             NAME: NOWAIT_READ
      576     9133             PURPOSE:
      577     9134                  To set up a no wait read function to a terminal
      578     9135             DATA:
      579     9136                  K$RWPARM - Set up with the read information
      580     9137                  LDCT$    - Pointing to the TS's terminal LDCT
      581     9138             DESCRIPTION:
      582     9139                  When a no wait read is performed to a terminal this
      583     9140                  routine sets up the information.  The read will
      584     9141                  be completed by KIA$UCIN calling KIA$COMP when data
      585     9142                  comes in satisfying this read.  We use the comgroup
      586     9143                  context area to map onto the buffers.
      587     9144
      588     9145         */
      589     9146
      590     9147        /*
      591     9148             Check if we need to return a KEY
      592     9149         */
      593     9150    3                NOWAIT = '0'B;

   9150  1 001312   200063 450100                    STZ     NOWAIT,,AUTO

      594     9151    3                USRKEYSZ = 0;

PL6.E3A0      #001=KIA$UCIOND File=KIA$APPLC.:E05TSI                             WED 07/30/97 00:30 Page:98
   9151  1 001313   200062 450100                    STZ     USRKEYSZ,,AUTO

      595     9152    3                IF FPT$~= ADDR(NIL) AND FPT$->FPT$READ_V.KEYR

   9152  1 001314   200072 236100                    LDQ     FPT$,,AUTO
         1 001315   000001 116000 xsym               CMPQ    B_VECTNIL+1
         1 001316   001403 600000 1                  TZE     s:9170
         1 001317   200072 471500                    LDP1    FPT$,,AUTO
         1 001320   100000 236100                    LDQ     0,,PR1
         1 001321   100000 316007                    CANQ    32768,DL
         1 001322   001403 600000 1                  TZE     s:9170

      596     9153    4                THEN DO;

      597     9154    4                     CALL HFF$NILERASE(1)

   9154  1 001323   000003 630400 2                  EPPR0   3
         1 001324   000017 631400 xsym               EPPR1   B_VECTNIL+15
         1 001325   000000 701000 xent               TSX1    HFF$NILERASE
         1 001326   001403 702000 1                  TSX2    s:9170

      598     9155    5                     WHENRETURN DO;

      599     9156    5                          CALL HFF$DSIZ(1,USRKEYSZ);

   9156  1 001327   200062 630500                    EPPR0   USRKEYSZ,,AUTO
         1 001330   200113 450500                    STP0    VSIN+5,,AUTO
         1 001331   000003 236000 2                  LDQ     3
         1 001332   200112 756100                    STQ     VSIN+4,,AUTO
         1 001333   200112 630500                    EPPR0   VSIN+4,,AUTO
         1 001334   000020 631400 xsym               EPPR1   B_VECTNIL+16
         1 001335   000000 701000 xent               TSX1    HFF$DSIZ
         1 001336   000000 011000                    NOP     0

      600     9157    5                          IF USRKEYSZ>256 THEN USRKEYSZ = 256;

   9157  1 001337   200062 235100                    LDA     USRKEYSZ,,AUTO
PL6.E3A0      #001=KIA$UCIOND File=KIA$APPLC.:E05TSI                             WED 07/30/97 00:30 Page:99
         1 001340   000401 115007                    CMPA    257,DL
         1 001341   001344 602000 1                  TNC     s:9158

   9157  1 001342   000400 236007                    LDQ     256,DL
         1 001343   200062 756100                    STQ     USRKEYSZ,,AUTO

      601     9158    5                          CALL HFF$WRITE1(1) ALTRET (MTRAP);

   9158  1 001344   000003 630400 2                  EPPR0   3
         1 001345   000017 631400 xsym               EPPR1   B_VECTNIL+15
         1 001346   000000 701000 xent               TSX1    HFF$WRITE1
         1 001347   001471 702000 1                  TSX2    MTRAP

      602     9159    5                          NOWAIT.KEYTYP = K$RWPARM.KEYTYPE;

   9159  1 001350   200060 236100                    LDQ     K$RWPARM+38,,AUTO
         1 001351   000025 736000                    QLS     21
         1 001352   200063 752140                    STCQ    NOWAIT,'40'O,AUTO

      603     9160    5                          CALL MMS$SETUP_BUF(%USERWSQ,B$PS1$,USRKEYSZ,RPTR$,PTW);

   9160  1 001353   200070 630500                    EPPR0   PTW,,AUTO
         1 001354   200116 450500                    STP0    VSIN+8,,AUTO
         1 001355   200105 631500                    EPPR1   RPTR$,,AUTO
         1 001356   200115 451500                    STP1    VSIN+7,,AUTO
         1 001357   200062 633500                    EPPR3   USRKEYSZ,,AUTO
         1 001360   200114 453500                    STP3    VSIN+6,,AUTO
         1 001361   000016 237000 2                  LDAQ    14
         1 001362   200112 757100                    STAQ    VSIN+4,,AUTO
         1 001363   200112 630500                    EPPR0   VSIN+4,,AUTO
         1 001364   000023 631400 xsym               EPPR1   B_VECTNIL+19
         1 001365   000000 701000 xent               TSX1    MMS$SETUP_BUF
         1 001366   000000 011000                    NOP     0

      604     9161    5                          FEPIO.KEYX = POFFC(RPTR$,B$CGCTXT$);

   9161  1 001367   000000 236000 xsym               LDQ     B$CGCTXT$
PL6.E3A0      #001=KIA$UCIOND File=KIA$APPLC.:E05TSI                             WED 07/30/97 00:30 Page:100
         1 001370   000020 772000                    QRL     16
         1 001371   200112 756100                    STQ     VSIN+4,,AUTO
         1 001372   200105 236100                    LDQ     RPTR$,,AUTO
         1 001373   000020 772000                    QRL     16
         1 001374   200112 136100                    SBLQ    VSIN+4,,AUTO
         1 001375   000000 620006                    EAX0    0,QL
         1 001376   200065 740100                    STX0    FEPIO+1,,AUTO

      605     9162    5                          FEPIO.KPP(0) = PTW.PP(0);

   9162  1 001377   200070 221100                    LDX1    PTW,,AUTO
         1 001400   200067 741100                    STX1    FEPIO+3,,AUTO

      606     9163    5                          FEPIO.KPP(1) = PTW.PP(1);

   9163  1 001401   200071 222100                    LDX2    PTW+1,,AUTO
         1 001402   200067 442100                    SXL2    FEPIO+3,,AUTO

      607     9164    5                        END;

      608     9165    4                   END;

      609     9166
      610     9167        /*
      611     9168             Set up the buffer area of the DCB
      612     9169         */
      613     9170    3                FEPSIZ.BUF = MSGSZ;

   9170  1 001403   200100 720100                    LXL0    MSGSZ,,AUTO
         1 001404   200062 740100                    STX0    USRKEYSZ,,AUTO

      614     9171    3                CALL MMS$SETUP_BUF(%USERWSQ,DCB$->F$DCB.UB$,MSGSZ,RPTR$,PTW);

   9171  1 001405   200070 630500                    EPPR0   PTW,,AUTO
         1 001406   200116 450500                    STP0    VSIN+8,,AUTO
         1 001407   200105 631500                    EPPR1   RPTR$,,AUTO
         1 001410   200115 451500                    STP1    VSIN+7,,AUTO
PL6.E3A0      #001=KIA$UCIOND File=KIA$APPLC.:E05TSI                             WED 07/30/97 00:30 Page:101
         1 001411   200100 633500                    EPPR3   MSGSZ,,AUTO
         1 001412   200114 453500                    STP3    VSIN+6,,AUTO
         1 001413   200101 236100                    LDQ     DCB$,,AUTO
         1 001414   000075 036003                    ADLQ    61,DU
         1 001415   000016 235000 2                  LDA     14
         1 001416   200112 757100                    STAQ    VSIN+4,,AUTO
         1 001417   200112 630500                    EPPR0   VSIN+4,,AUTO
         1 001420   000023 631400 xsym               EPPR1   B_VECTNIL+19
         1 001421   000000 701000 xent               TSX1    MMS$SETUP_BUF
         1 001422   000000 011000                    NOP     0

      615     9172    3                FEPIO.BUFX = POFFC(RPTR$,B$CGCTXT$);

   9172  1 001423   000000 236000 xsym               LDQ     B$CGCTXT$
         1 001424   000020 772000                    QRL     16
         1 001425   200112 756100                    STQ     VSIN+4,,AUTO
         1 001426   200105 236100                    LDQ     RPTR$,,AUTO
         1 001427   000020 772000                    QRL     16
         1 001430   200112 136100                    SBLQ    VSIN+4,,AUTO
         1 001431   000000 620006                    EAX0    0,QL
         1 001432   200065 440100                    SXL0    FEPIO+1,,AUTO

      616     9173    3                FEPIO.BPP(0) = PTW.PP(0);

   9173  1 001433   200070 221100                    LDX1    PTW,,AUTO
         1 001434   200066 741100                    STX1    FEPIO+2,,AUTO

      617     9174    3                FEPIO.BPP(1) = PTW.PP(1);

   9174  1 001435   200071 222100                    LDX2    PTW+1,,AUTO
         1 001436   200066 442100                    SXL2    FEPIO+2,,AUTO

      618     9175
      619     9176        /* Save the DCB# of the user specified DCB and the event
      620     9177         */
      621     9178    3                FEPIO.EVENT = EVENT;

PL6.E3A0      #001=KIA$UCIOND File=KIA$APPLC.:E05TSI                             WED 07/30/97 00:30 Page:102
   9178  1 001437   200006 470500                    LDP0    @EVENT,,AUTO
         1 001440   000000 235100                    LDA     0,,PR0
         1 001441   200064 755100                    STA     FEPIO,,AUTO

      622     9179    3                NOWAIT.DCB# = B$JIT.DCBNO;

   9179  1 001442   000000 471400 xsym               LDP1    B$JIT$
         1 001443   100022 236100                    LDQ     18,,PR1
         1 001444   000011 736000                    QLS     9
         1 001445   200063 552110                    STBQ    NOWAIT,'10'O,AUTO

      623     9180    3                NOWAIT.STREAM = K$RWPARM.STR;

   9180  1 001446   200052 236100                    LDQ     K$RWPARM+32,,AUTO
         1 001447   000022 736000                    QLS     18
         1 001450   200063 552120                    STBQ    NOWAIT,'20'O,AUTO

      624     9181    3                CALL FMO$GETDOMAIN(PFB);

   9181  1 001451   200104 633500                    EPPR3   PFB,,AUTO
         1 001452   200112 453500                    STP3    VSIN+4,,AUTO
         1 001453   200112 630500                    EPPR0   VSIN+4,,AUTO
         1 001454   000017 631400 xsym               EPPR1   B_VECTNIL+15
         1 001455   000000 701000 xent               TSX1    FMO$GETDOMAIN
         1 001456   000000 011000                    NOP     0

      625     9182    3                NOWAIT.DMN = PFB;

   9182  1 001457   200104 236100                    LDQ     PFB,,AUTO
         1 001460   000033 736000                    QLS     27
         1 001461   200063 676100                    ERQ     NOWAIT,,AUTO
         1 001462   007000 376003                    ANQ     3584,DU
         1 001463   200063 656100                    ERSQ    NOWAIT,,AUTO

      626     9183
      627     9184        /* Make sure we have write access */
      628     9185    3                CALL HFF$WRITE1(2)
PL6.E3A0      #001=KIA$UCIOND File=KIA$APPLC.:E05TSI                             WED 07/30/97 00:30 Page:103

   9185  1 001464   000020 630400 2                  EPPR0   16
         1 001465   000017 631400 xsym               EPPR1   B_VECTNIL+15
         1 001466   000000 701000 xent               TSX1    HFF$WRITE1
         1 001467   001471 702000 1                  TSX2    MTRAP
         1 001470   001500 710000 1                  TRA     s:9200

      629     9186    4                WHENALTRETURN DO;

      630     9187    4   MTRAP:            B$JIT.ERR = MTRAPERR;

   9187  1 001471   000010 236000 0     MTRAP        LDQ     MTRAPERR
         1 001472   000000 470400 xsym               LDP0    B$JIT$
         1 001473   000012 756100                    STQ     10,,PR0

      631     9188                  /*E* ERROR: KIA-E$MTRAP
      632     9189                       MESSAGE: Your buffer is invalid for this read %thru %DC%.
      633     9190                       MESSAGE1: Either the buffer is missing or the wrong access.
      634     9191                        */
      635     9192    4                     K$RWPARM.TYC = %TYC_MTRAP | %TYC_EGV;

   9192  1 001474   000021 236000 0                  LDQ     XTRARD+6
         1 001475   000030 276000 xsym               ORQ     B_VECTNIL+24
         1 001476   200020 756100                    STQ     K$RWPARM+6,,AUTO

      636     9193    4                     GOTO CSEND;

   9193  1 001477   002104 710000 1                  TRA     CSEND

      637     9194    4                   END;
      638     9195
      639     9196        /*
      640     9197             Send the request data
      641     9198         */
      642     9199                     %LOCK (G=LDCT$->NK$LDCT.LOCK);

   9200  1 001500   200102 236100                    LDQ     LDCT$,,AUTO
PL6.E3A0      #001=KIA$UCIOND File=KIA$APPLC.:E05TSI                             WED 07/30/97 00:30 Page:104
         1 001501   000020 036003                    ADLQ    16,DU
         1 001502   200112 756100                    STQ     VSIN+4,,AUTO
         1 001503   200112 630500                    EPPR0   VSIN+4,,AUTO
         1 001504   000017 631400 xsym               EPPR1   B_VECTNIL+15
         1 001505   000000 701000 xent               TSX1    HFC$LOCK
         1 001506   000000 011000                    NOP     0

      643     9202    4                IF LDCT$->NK$LDCT.LKFLG.NOWAIT THEN DO;

   9202  1 001507   200102 470500                    LDP0    LDCT$,,AUTO
         1 001510   000011 236100                    LDQ     9,,PR0
         1 001511   000001 316003                    CANQ    1,DU
         1 001512   001526 600000 1                  TZE     s:9211

      644     9203        /* Some already pending, see if this one is ok to add */
      645     9204
      646     9205    4                     IF FEPSIZ~=DCB$->F$DCB.FEPSIZ

   9205  1 001513   200101 471500                    LDP1    DCB$,,AUTO
         1 001514   200062 236100                    LDQ     USRKEYSZ,,AUTO
         1 001515   100106 116100                    CMPQ    70,,PR1
         1 001516   001171 601000 1                  TNZ     CANCEL_READ
         1 001517   000100 106500                    CMPC    fill='000'O
         1 001520   000010 000003                    ADSC9   8,,PR0                   cn=0,n=3
         1 001521   200063 000004                    ADSC9   NOWAIT,,AUTO             cn=0,n=4
         1 001522   001171 601000 1                  TNZ     CANCEL_READ

      647     9206    4                          OR LDCT$->NK$LDCT.NOWAIT~=NOWAIT
      648     9207    4                     THEN GOTO CANCEL_READ;
      649     9208    4                     K$RWPARM.VDOFLGS.INCNMBRCR = '1'B;

   9208  1 001523   000004 236003                    LDQ     4,DU
         1 001524   200052 256100                    ORSQ    K$RWPARM+32,,AUTO

      650     9209    4                   END;

   9209  1 001525   001533 710000 1                  TRA     s:9214
PL6.E3A0      #001=KIA$UCIOND File=KIA$APPLC.:E05TSI                             WED 07/30/97 00:30 Page:105

      651     9210    4                ELSE DO;

      652     9211    4                     LDCT$->NK$LDCT.NOWAIT = NOWAIT;

   9211  1 001526   200063 236100                    LDQ     NOWAIT,,AUTO
         1 001527   000010 552170                    STBQ    8,'70'O,PR0

      653     9212    4                     DCB$->F$DCB.FEPSIZ = FEPSIZ;

   9212  1 001530   200062 236100                    LDQ     USRKEYSZ,,AUTO
         1 001531   200101 470500                    LDP0    DCB$,,AUTO
         1 001532   000106 756100                    STQ     70,,PR0

      654     9213    4                   END;

      655     9214    3                DCB_FCN_CNT0 = DCB$->F$DCB.FCN.CNT(0);

   9214  1 001533   200101 470500                    LDP0    DCB$,,AUTO
         1 001534   000074 236100                    LDQ     60,,PR0
         1 001535   000033 772000                    QRL     27
         1 001536   000377 376007                    ANQ     255,DL
         1 001537   200062 756100                    STQ     USRKEYSZ,,AUTO

      656     9215    3                IF DCB_FCN_CNT0<3

   9215  1 001540   000003 116007                    CMPQ    3,DL
         1 001541   001571 603000 1                  TRC     s:9225
         1 001542   000000 116003                    CMPQ    0,DU
         1 001543   001557 600000 1                  TZE     s:9220
         1 001544   000111 236100                    LDQ     73,,PR0
         1 001545   777777 376007                    ANQ     -1,DL
         1 001546   200112 756100                    STQ     VSIN+4,,AUTO
         1 001547   200065 236100                    LDQ     FEPIO+1,,AUTO
         1 001550   000022 736000                    QLS     18
         1 001551   000022 732000                    QRS     18
         1 001552   200112 116100                    CMPQ    VSIN+4,,AUTO
PL6.E3A0      #001=KIA$UCIOND File=KIA$APPLC.:E05TSI                             WED 07/30/97 00:30 Page:106
         1 001553   001557 601000 1                  TNZ     s:9220
         1 001554   200066 220100                    LDX0    FEPIO+2,,AUTO
         1 001555   000112 100100                    CMPX0   74,,PR0
         1 001556   001571 600000 1                  TZE     s:9225

      657     9216    3                     AND (DCB_FCN_CNT0=0
      658     9217    3                     OR FEPIO.BUFX~=DCB$->F$DCB.FEPIO.BUFX
      659     9218    3                     OR FEPIO.BPP(0)~=DCB$->F$DCB.FEPIO.BPP(0))
      660     9219    3                THEN
      661     9220    3                     CALL KIA$FCNOU (LDCT$->NK$LDCT,%KV_VDO_FNC_RQSDAT,K$RWPARM)

   9220  1 001557   200012 631500                    EPPR1   K$RWPARM,,AUTO
         1 001560   200114 451500                    STP1    VSIN+6,,AUTO
         1 001561   000014 236000 2                  LDQ     12
         1 001562   200102 235100                    LDA     LDCT$,,AUTO
         1 001563   200112 757100                    STAQ    VSIN+4,,AUTO
         1 001564   200112 630500                    EPPR0   VSIN+4,,AUTO
         1 001565   000021 631400 xsym               EPPR1   B_VECTNIL+17
         1 001566   000000 701000 xent               TSX1    KIA$FCNOU
         1 001567   002163 702000 1                  TSX2    BRKOUT
         1 001570   001613 710000 1                  TRA     s:9231

      662     9221    3                          ALTRET (BRKOUT);
      663     9222    4                ELSE DO;

      664     9223        /* Gotta cancel one of them */
      665     9224
      666     9225    4                     K$RWPARM = K_RWPARM_CON;

   9225  1 001571   000100 100400                    MLR     fill='000'O
         1 001572   000000 000234 xsym               ADSC9   K_RWPARM_CON             cn=0,n=156
         1 001573   200012 000234                    ADSC9   K$RWPARM,,AUTO           cn=0,n=156

      667     9226    4                     K$RWPARM.MSG_ERRCODE = XTRARD;

   9226  1 001574   000013 236000 0                  LDQ     XTRARD
         1 001575   200051 756100                    STQ     K$RWPARM+31,,AUTO
PL6.E3A0      #001=KIA$UCIOND File=KIA$APPLC.:E05TSI                             WED 07/30/97 00:30 Page:107

      668     9227    4                     K$RWPARM.TYC = %TYC_XTRARD;

   9227  1 001576   000020 236000 0                  LDQ     XTRARD+5
         1 001577   200020 756100                    STQ     K$RWPARM+6,,AUTO

      669     9228    4                     CALL KIA$COMP(LDCT$->NK$LDCT, K$RWPARM);

   9228  1 001600   200012 631500                    EPPR1   K$RWPARM,,AUTO
         1 001601   200113 451500                    STP1    VSIN+5,,AUTO
         1 001602   200102 236100                    LDQ     LDCT$,,AUTO
         1 001603   200112 756100                    STQ     VSIN+4,,AUTO
         1 001604   200112 630500                    EPPR0   VSIN+4,,AUTO
         1 001605   000020 631400 xsym               EPPR1   B_VECTNIL+16
         1 001606   000000 701000 xent               TSX1    KIA$COMP
         1 001607   000000 011000                    NOP     0

      670     9229    4                     DCB_FCN_CNT0 = DCB_FCN_CNT0 - 1;

   9229  1 001610   200062 235100                    LDA     USRKEYSZ,,AUTO
         1 001611   000001 135007                    SBLA    1,DL
         1 001612   200062 755100                    STA     USRKEYSZ,,AUTO

      671     9230    4                   END;

      672     9231    3                LDCT$->NK$LDCT.LKFLG.NOWAIT = '1'B;

   9231  1 001613   200102 470500                    LDP0    LDCT$,,AUTO
         1 001614   000001 236003                    LDQ     1,DU
         1 001615   000011 256100                    ORSQ    9,,PR0

      673     9232
      674     9233        /*
      675     9234             Increment the user's MF count
      676     9235         */
      677     9236                     %LOCK (G=NI_MFGATE);

PL6.E3A0      #001=KIA$UCIOND File=KIA$APPLC.:E05TSI                             WED 07/30/97 00:30 Page:108
   9237  1 001616   000021 630400 2                  EPPR0   17
         1 001617   000017 631400 xsym               EPPR1   B_VECTNIL+15
         1 001620   000000 701000 xent               TSX1    HFC$LOCK
         1 001621   000000 011000                    NOP     0

      678     9239    3                S$CU$->B$U.MF = S$CU$->B$U.MF + 1;

   9239  1 001622   000000 470400 xsym               LDP0    S$CU$
         1 001623   000006 236100                    LDQ     6,,PR0
         1 001624   001000 036003                    ADLQ    512,DU
         1 001625   000006 552140                    STBQ    6,'40'O,PR0

      679     9240    3                S$CU$->B$U.CMF = S$CU$->B$U.CMF + 1;

   9240  1 001626   000007 236100                    LDQ     7,,PR0
         1 001627   000001 036007                    ADLQ    1,DL
         1 001630   000007 752101                    STCQ    7,'01'O,PR0

      680     9241                     %UNLOCK (G=NI_MFGATE);

   9242  1 001631   000021 630400 2                  EPPR0   17
         1 001632   000017 631400 xsym               EPPR1   B_VECTNIL+15
         1 001633   000000 701000 xent               TSX1    HFC$UNLOCK
         1 001634   000000 011000                    NOP     0

      681     9244
      682     9245    3                IF DCB_FCN_CNT0=1

   9245  1 001635   200062 235100                    LDA     USRKEYSZ,,AUTO
         1 001636   000001 115007                    CMPA    1,DL
         1 001637   001645 601000 1                  TNZ     s:9247

      683     9246    3                THEN DCB$->F$DCB.FEPIO2 = FEPIO;

   9246  1 001640   200101 470500                    LDP0    DCB$,,AUTO
         1 001641   000100 100500                    MLR     fill='000'O
         1 001642   200064 000020                    ADSC9   FEPIO,,AUTO              cn=0,n=16
PL6.E3A0      #001=KIA$UCIOND File=KIA$APPLC.:E05TSI                             WED 07/30/97 00:30 Page:109
         1 001643   000127 000020                    ADSC9   87,,PR0                  cn=0,n=16
         1 001644   001660 710000 1                  TRA     s:9251

      684     9247    3                ELSE IF DCB_FCN_CNT0<1

   9247  1 001645   000000 115003                    CMPA    0,DU
         1 001646   001654 601000 1                  TNZ     s:9249

      685     9248    3                     THEN DCB$->F$DCB.FEPIO = FEPIO;

   9248  1 001647   200101 470500                    LDP0    DCB$,,AUTO
         1 001650   000100 100500                    MLR     fill='000'O
         1 001651   200064 000020                    ADSC9   FEPIO,,AUTO              cn=0,n=16
         1 001652   000110 000020                    ADSC9   72,,PR0                  cn=0,n=16
         1 001653   001660 710000 1                  TRA     s:9251

      686     9249    3                     ELSE DCB$->F$DCB.FEPIO3 = FEPIO;

   9249  1 001654   200101 470500                    LDP0    DCB$,,AUTO
         1 001655   000100 100500                    MLR     fill='000'O
         1 001656   200064 000020                    ADSC9   FEPIO,,AUTO              cn=0,n=16
         1 001657   000133 000020                    ADSC9   91,,PR0                  cn=0,n=16

      687     9250                     %UNLOCK (G=LDCT$->LDCT.LOCK);

   9251  1 001660   200102 236100                    LDQ     LDCT$,,AUTO
         1 001661   000020 036003                    ADLQ    16,DU
         1 001662   200112 756100                    STQ     VSIN+4,,AUTO
         1 001663   200112 630500                    EPPR0   VSIN+4,,AUTO
         1 001664   000017 631400 xsym               EPPR1   B_VECTNIL+15
         1 001665   000000 701000 xent               TSX1    HFC$UNLOCK
         1 001666   000000 011000                    NOP     0

      688     9253
      689     9254    3                RETURN;

   9254  1 001667   000000 702200 xent               TSX2  ! X66_ARET
PL6.E3A0      #001=KIA$UCIOND File=KIA$APPLC.:E05TSI                             WED 07/30/97 00:30 Page:110

      690     9255    3              END;
      691     9256        %EJECT;
PL6.E3A0      #001=KIA$UCIOND File=KIA$APPLC.:E05TSI                             WED 07/30/97 00:30 Page:111
      692     9257    2           IF B$JIT$->B$JIT.CPFLAGS1 & %CP_DRIBBLE# AND ENTFLG = %DCB#

   9257  1 001670   000000 470400 xsym               LDP0    B$JIT$
         1 001671   000143 236100                    LDQ     99,,PR0
         1 001672   000017 376000 0                  ANQ     XTRARD+4
         1 001673   001707 600000 1                  TZE     s:9261
         1 001674   200075 235100                    LDA     ENTFLG,,AUTO
         1 001675   001707 601000 1                  TNZ     s:9261
         1 001676   200101 236100                    LDQ     DCB$,,AUTO
         1 001677   000000 116000 xsym               CMPQ    B$M$UC$
         1 001700   001707 601000 1                  TNZ     s:9261
         1 001701   200022 236100                    LDQ     K$RWPARM+8,,AUTO
         1 001702   020000 316003                    CANQ    8192,DU
         1 001703   001707 601000 1                  TNZ     s:9261

      693     9258    2                AND DCB$ = B$M$UC$ AND NOT K$RWPARM.DVE.DVBYTE.TRANS
      694     9259    2           THEN
      695     9260    2                CALL UMD$DPMT;             /* Dribble the prompt string */

   9260  1 001704   000002 631400 xsym               EPPR1   B_VECTNIL+2
         1 001705   000000 701000 xent               TSX1    UMD$DPMT
         1 001706   000000 011000                    NOP     0

      696     9261    2           K$RWPARM.VDOFLGS.WAIT = '1'B;

   9261  1 001707   000020 236003                    LDQ     16,DU
         1 001710   200052 256100                    ORSQ    K$RWPARM+32,,AUTO

      697     9262    2           CALL READS ALTRET (BRKOUTR);

   9262  1 001711   002702 701000 1                  TSX1    READS
         1 001712   002150 702000 1                  TSX2    BRKOUTR

      698     9263    2           B$JIT.INTER=B$JIT.INTER+1;

   9263  1 001713   000000 470400 xsym               LDP0    B$JIT$
         1 001714   000325 720100                    LXL0    213,,PR0
PL6.E3A0      #001=KIA$UCIOND File=KIA$APPLC.:E05TSI                             WED 07/30/97 00:30 Page:112
         1 001715   000001 621010                    EAX1    1,X0
         1 001716   000325 441100                    SXL1    213,,PR0

      699     9264    3           IF ENTFLG=%DCB# THEN DO;

   9264  1 001717   200075 235100                    LDA     ENTFLG,,AUTO
         1 001720   001736 601000 1                  TNZ     s:9271

      700     9265    3                DCB$->F$DCB.DVBYTE=K$RWPARM.DVE.DVBYTE;

   9265  1 001721   200101 471500                    LDP1    DCB$,,AUTO
         1 001722   200022 236100                    LDQ     K$RWPARM+8,,AUTO
         1 001723   100003 676100                    ERQ     3,,PR1
         1 001724   776000 376003                    ANQ     -1024,DU
         1 001725   100003 656100                    ERSQ    3,,PR1

      701     9266    3                DCB$->F$DCB.EOMCHAR=K$RWPARM.DVE.EOMCHAR;

   9266  1 001726   200022 236100                    LDQ     K$RWPARM+8,,AUTO
         1 001727   000022 772000                    QRL     18
         1 001730   100003 552104                    STBQ    3,'04'O,PR1

      702     9267    3                DCB$->F$DCB.FLDID=K$RWPARM.FLDID;

   9267  1 001731   200057 720100                    LXL0    K$RWPARM+37,,AUTO
         1 001732   100061 440100                    SXL0    49,,PR1

      703     9268    3                DCB$->F$DCB.ACTPOS=K$RWPARM.ACTPOS;

   9268  1 001733   200060 221100                    LDX1    K$RWPARM+38,,AUTO
         1 001734   100057 441100                    SXL1    47,,PR1

      704     9269    3              END;

   9269  1 001735   001746 710000 1                  TRA     s:9274

      705     9270    3           ELSE DO;
PL6.E3A0      #001=KIA$UCIOND File=KIA$APPLC.:E05TSI                             WED 07/30/97 00:30 Page:113

      706     9271    3                DVBYTE=K$RWPARM.DVE.DVBYTE;

   9271  1 001736   200004 471500                    LDP1    @DVBYTE,,AUTO
         1 001737   000100 100500                    MLR     fill='000'O
         1 001740   200022 000001                    ADSC9   K$RWPARM+8,,AUTO         cn=0,n=1
         1 001741   100000 000001                    ADSC9   0,,PR1                   cn=0,n=1

      707     9272    3                EOMCHAR=K$RWPARM.DVE.EOMCHAR;

   9272  1 001742   200005 473500                    LDP3    @VFC,,AUTO
         1 001743   040100 100500                    MLR     fill='040'O
         1 001744   200022 200001                    ADSC9   K$RWPARM+8,,AUTO         cn=1,n=1
         1 001745   300000 000001                    ADSC9   0,,PR3                   cn=0,n=1

      708     9273    3              END;

      709     9274    2           IF B$JIT$->B$JIT.CPFLAGS1 & %CP_DRIBBLE# AND ENTFLG = %DCB#

   9274  1 001746   000143 236100                    LDQ     99,,PR0
         1 001747   000017 376000 0                  ANQ     XTRARD+4
         1 001750   002104 600000 1                  TZE     CSEND
         1 001751   000000 115003                    CMPA    0,DU
         1 001752   002104 601000 1                  TNZ     CSEND
         1 001753   200101 236100                    LDQ     DCB$,,AUTO
         1 001754   000000 116000 xsym               CMPQ    B$M$UC$
         1 001755   002104 601000 1                  TNZ     CSEND
         1 001756   200022 236100                    LDQ     K$RWPARM+8,,AUTO
         1 001757   020000 316003                    CANQ    8192,DU
         1 001760   002104 601000 1                  TNZ     CSEND

      710     9275    2                AND DCB$ = B$M$UC$ AND NOT K$RWPARM.DVE.DVBYTE.TRANS
      711     9276    2           THEN
      712     9277    2                CALL UMD$DIN(K$RWPARM.TYC);

   9277  1 001761   200020 631500                    EPPR1   K$RWPARM+6,,AUTO
         1 001762   200112 451500                    STP1    VSIN+4,,AUTO
PL6.E3A0      #001=KIA$UCIOND File=KIA$APPLC.:E05TSI                             WED 07/30/97 00:30 Page:114
         1 001763   200112 630500                    EPPR0   VSIN+4,,AUTO
         1 001764   000017 631400 xsym               EPPR1   B_VECTNIL+15
         1 001765   000000 701000 xent               TSX1    UMD$DIN
         1 001766   000000 011000                    NOP     0
         1 001767   002104 710000 1                  TRA     CSEND

      713     9278
      714     9279
      715     9280        %EJECT;
PL6.E3A0      #001=KIA$UCIOND File=KIA$APPLC.:E05TSI                             WED 07/30/97 00:30 Page:115
      716     9281    2        CASE (MFC_RSTAT);

      717     9282    2           K$RWPARM.PRMID=PCODE;

   9282  1 001770   000100 101500                    MRL     fill='000'O
         1 001771   100000 000001                    ADSC9   0,,PR1                   cn=0,n=1
         1 001772   200057 400002                    ADSC9   K$RWPARM+37,,AUTO        cn=2,n=2

      718     9283    2           CALL READS ALTRET (BRKOUTR);

   9283  1 001773   002702 701000 1                  TSX1    READS
         1 001774   002150 702000 1                  TSX2    BRKOUTR
         1 001775   002104 710000 1                  TRA     CSEND

      719     9284
      720     9285
      721     9286        %EJECT;
PL6.E3A0      #001=KIA$UCIOND File=KIA$APPLC.:E05TSI                             WED 07/30/97 00:30 Page:116
      722     9287    2        CASE (MFC_TCTL);

      723     9288    2           PFCN=TFCN;

   9288  1 001776   000100 101500                    MRL     fill='000'O
         1 001777   000000 000001                    ADSC9   0,,PR0                   cn=0,n=1
         1 002000   200103 000004                    ADSC9   PFCN,,AUTO               cn=0,n=4

      724     9289    2           IF ADDR(BUF$)~=ADDR(NIL)

   9289  1 002001   200007 236100                    LDQ     @BUF$,,AUTO
         1 002002   000001 116000 xsym               CMPQ    B_VECTNIL+1
         1 002003   002012 600000 1                  TZE     s:9293

      725     9290    2           THEN
      726     9291    2                K$RWPARM = BUF$->KI$RWPARM;

   9291  1 002004   200007 474500                    LDP4    @BUF$,,AUTO
         1 002005   400000 475500                    LDP5    0,,PR4
         1 002006   000100 100500                    MLR     fill='000'O
         1 002007   500000 000234                    ADSC9   0,,PR5                   cn=0,n=156
         1 002010   200012 000234                    ADSC9   K$RWPARM,,AUTO           cn=0,n=156
         1 002011   002015 710000 1                  TRA     s:9294

      727     9292    2           ELSE
      728     9293    2                K$RWPARM = K_RWPARM_CON;

   9293  1 002012   000100 100400                    MLR     fill='000'O
         1 002013   000000 000234 xsym               ADSC9   K_RWPARM_CON             cn=0,n=156
         1 002014   200012 000234                    ADSC9   K$RWPARM,,AUTO           cn=0,n=156

      729     9294    2           K$RWPARM.STR = PFB;

   9294  1 002015   200104 236100                    LDQ     PFB,,AUTO
         1 002016   200052 552104                    STBQ    K$RWPARM+32,'04'O,AUTO

      730     9295    2           K$RWPARM.DVE.VFC = VFC;
PL6.E3A0      #001=KIA$UCIOND File=KIA$APPLC.:E05TSI                             WED 07/30/97 00:30 Page:117

   9295  1 002017   040100 100500                    MLR     fill='040'O
         1 002020   100000 000001                    ADSC9   0,,PR1                   cn=0,n=1
         1 002021   200022 200001                    ADSC9   K$RWPARM+8,,AUTO         cn=1,n=1

      731     9296    2           K$RWPARM.TYC='0'B;

   9296  1 002022   200020 450100                    STZ     K$RWPARM+6,,AUTO

      732     9297    2           IF K$RWPARM.DVE.DVBYTE.RRR OR LDCT$->LDCT.TCTLCNT >= KIA_TCTLMAX

   9297  1 002023   200022 236100                    LDQ     K$RWPARM+8,,AUTO
         1 002024   010000 316003                    CANQ    4096,DU
         1 002025   002034 601000 1                  TNZ     s:9299
         1 002026   200102 474500                    LDP4    LDCT$,,AUTO
         1 002027   400026 236100                    LDQ     22,,PR4
         1 002030   000011 772000                    QRL     9
         1 002031   000777 376007                    ANQ     511,DL
         1 002032   000000 116000 0                  CMPQ    KIA_TCTLMAX
         1 002033   002036 604000 1                  TMI     s:9300

      733     9298    2           THEN
      734     9299    2                K$RWPARM.MRKTYP = %KV_VDOMRKTYP_ENDACK;

   9299  1 002034   001000 236007                    LDQ     512,DL
         1 002035   200052 552110                    STBQ    K$RWPARM+32,'10'O,AUTO

      735     9300    2           K$RWPARM.DVE.DVBYTE = '0'B;

   9300  1 002036   000000 236003                    LDQ     0,DU
         1 002037   200022 552140                    STBQ    K$RWPARM+8,'40'O,AUTO

      736     9301    2           IF PFCN = 0

   9301  1 002040   200103 235100                    LDA     PFCN,,AUTO
         1 002041   002054 601000 1                  TNZ     s:9306

PL6.E3A0      #001=KIA$UCIOND File=KIA$APPLC.:E05TSI                             WED 07/30/97 00:30 Page:118
      737     9302    2           THEN
      738     9303    2                LDCT$->LDCT.DFLG.NOSND = ~K$RWPARM.VDOFLGS.SEND;

   9303  1 002042   200052 236100                    LDQ     K$RWPARM+32,,AUTO
         1 002043   000016 736000                    QLS     14
         1 002044   400000 376003                    ANQ     -131072,DU
         1 002045   400000 676003                    ERQ     -131072,DU
         1 002046   200102 474500                    LDP4    LDCT$,,AUTO
         1 002047   000030 772000                    QRL     24
         1 002050   400006 676100                    ERQ     6,,PR4
         1 002051   004000 376007                    ANQ     2048,DL
         1 002052   400006 656100                    ERSQ    6,,PR4
         1 002053   002104 710000 1                  TRA     CSEND

      739     9304    3           ELSE DO;

      740     9305                     %LOCK (G=LDCT$->LDCT.LOCK);

   9306  1 002054   200102 236100                    LDQ     LDCT$,,AUTO
         1 002055   000020 036003                    ADLQ    16,DU
         1 002056   200112 756100                    STQ     VSIN+4,,AUTO
         1 002057   200112 630500                    EPPR0   VSIN+4,,AUTO
         1 002060   000017 631400 xsym               EPPR1   B_VECTNIL+15
         1 002061   000000 701000 xent               TSX1    HFC$LOCK
         1 002062   000000 011000                    NOP     0

      741     9308    3                CALL KIA$FCNOU (LDCT$->LDCT,PFCN,K$RWPARM) ALTRET (BRKOUT);

   9308  1 002063   200012 630500                    EPPR0   K$RWPARM,,AUTO
         1 002064   200114 450500                    STP0    VSIN+6,,AUTO
         1 002065   200103 631500                    EPPR1   PFCN,,AUTO
         1 002066   200113 451500                    STP1    VSIN+5,,AUTO
         1 002067   200102 236100                    LDQ     LDCT$,,AUTO
         1 002070   200112 756100                    STQ     VSIN+4,,AUTO
         1 002071   200112 630500                    EPPR0   VSIN+4,,AUTO
         1 002072   000021 631400 xsym               EPPR1   B_VECTNIL+17
         1 002073   000000 701000 xent               TSX1    KIA$FCNOU
PL6.E3A0      #001=KIA$UCIOND File=KIA$APPLC.:E05TSI                             WED 07/30/97 00:30 Page:119
         1 002074   002163 702000 1                  TSX2    BRKOUT

      742     9309    3                LDCT$->LDCT.TCTLCNT = LDCT$->LDCT.TCTLCNT + 1;

   9309  1 002075   200102 470500                    LDP0    LDCT$,,AUTO
         1 002076   000026 236100                    LDQ     22,,PR0
         1 002077   001000 036007                    ADLQ    512,DL
         1 002100   000026 552110                    STBQ    22,'10'O,PR0

      743     9310    3                GOTO WAIT_RRR_RESP;

   9310  1 002101   000574 710000 1                  TRA     WAIT_RRR_RESP

      744     9311    3              END;
      745     9312
      746     9313
      747     9314        %EJECT;
PL6.E3A0      #001=KIA$UCIOND File=KIA$APPLC.:E05TSI                             WED 07/30/97 00:30 Page:120
      748     9315    2        CASE (ELSE);

      749     9316    2           CALL SC_BTSFCN;

   9316  1 002102   000000 713400 xsym               CLIMB   SC_BTSFCN
         1 002103   000000 600000 xsid               climb   nvectors=         0

      750     9317        /*S*  SCREECH_CODE:  KIA-S$BMDFCN
      751     9318              TYPE:          SUA
      752     9319              MESSAGE:       Illegal media function passed on timesharing I/O
      753     9320              REMARKS:       Several media layer functions which are legal for
      754     9321                             files, etc. are not legal for timesharing terminals
      755     9322                             This SUA occurs when one of these is passed to KIA$UCIO
      756     9323                             NKA$DEVIO (NKA-S$BMDFCN) and KCI$RWCG (KCI-S$BMDFCN)
      757     9324                             also report this screech code in similar situations     */
      758     9325    2        END;

   9308  1 002104                       CSEND        null
      759     9326
      760     9327
      761     9328
      762     9329
      763     9330
      764     9331    1   CSEND: ;
      765     9332    1        IF ENTFLG~=%DCB#

   9332  1 002104   200075 235100                    LDA     ENTFLG,,AUTO
         1 002105   002115 600000 1                  TZE     s:9338

      766     9333    2        THEN DO;

      767     9334    2             IF ADDR(TYC) ~= ADDR(NIL)

   9334  1 002106   200006 236100                    LDQ     @EVENT,,AUTO
         1 002107   000001 116000 xsym               CMPQ    B_VECTNIL+1
         1 002110   002143 600000 1                  TZE     s:9347

PL6.E3A0      #001=KIA$UCIOND File=KIA$APPLC.:E05TSI                             WED 07/30/97 00:30 Page:121
      768     9335    2             THEN
      769     9336    2                  TYC = K$RWPARM.TYC;

   9336  1 002111   200020 236100                    LDQ     K$RWPARM+6,,AUTO
         1 002112   200006 470500                    LDP0    @EVENT,,AUTO
         1 002113   000000 756100                    STQ     0,,PR0

      770     9337    2           END;

   9337  1 002114   002143 710000 1                  TRA     s:9347

      771     9338    1        ELSE IF DCB$->F$DCB.WAIT ~= 0

   9338  1 002115   200101 470500                    LDP0    DCB$,,AUTO
         1 002116   000064 236100                    LDQ     52,,PR0
         1 002117   000020 316007                    CANQ    16,DL
         1 002120   002124 600000 1                  TZE     s:9341

      772     9339    1             THEN
      773     9340    1                  DCB$->F$DCB.TYC(1)=K$RWPARM.TYC;

   9340  1 002121   200020 236100                    LDQ     K$RWPARM+6,,AUTO
         1 002122   000002 756100                    STQ     2,,PR0
         1 002123   002143 710000 1                  TRA     s:9347

      774     9341    1             ELSE IF EVENT=0

   9341  1 002124   200006 471500                    LDP1    @EVENT,,AUTO
         1 002125   100000 235100                    LDA     0,,PR1
         1 002126   002133 601000 1                  TNZ     s:9345

      775     9342    1                  THEN
      776     9343    1                       DCB$->F$DCB.TYC(0)=DCB$->F$DCB.TYC(0)|K$RWPARM.TYC;

   9343  1 002127   000001 236100                    LDQ     1,,PR0
         1 002130   200020 276100                    ORQ     K$RWPARM+6,,AUTO
         1 002131   000001 756100                    STQ     1,,PR0
PL6.E3A0      #001=KIA$UCIOND File=KIA$APPLC.:E05TSI                             WED 07/30/97 00:30 Page:122
         1 002132   002143 710000 1                  TRA     s:9347

      777     9344    1                  ELSE
      778     9345    1                       CALL NKA$EVENT (K$RWPARM.TYC,EVENT);

   9345  1 002133   200006 236100                    LDQ     @EVENT,,AUTO
         1 002134   200113 756100                    STQ     VSIN+5,,AUTO
         1 002135   200020 633500                    EPPR3   K$RWPARM+6,,AUTO
         1 002136   200112 453500                    STP3    VSIN+4,,AUTO
         1 002137   200112 630500                    EPPR0   VSIN+4,,AUTO
         1 002140   000020 631400 xsym               EPPR1   B_VECTNIL+16
         1 002141   000000 701000 xent               TSX1    NKA$EVENT
         1 002142   000000 011000                    NOP     0

      779     9346
      780     9347    1        IF B$JIT.ERR

   9347  1 002143   000000 470400 xsym               LDP0    B$JIT$
         1 002144   000012 235100                    LDA     10,,PR0
         1 002145   002147 600000 1                  TZE     s:9351

      781     9348    1        THEN
      782     9349    1             ALTRETURN;

   9349  1 002146   000000 702200 xent               TSX2  ! X66_AALT

      783     9350
      784     9351    1        RETURN;

   9351  1 002147   000000 702200 xent               TSX2  ! X66_ARET

   9347  1 002150                       BRKOUTR      null
      785     9352
      786     9353
      787     9354    1   BRKOUTR: ;
      788     9355
      789     9356        /* Check to see if there was a trap on the buffer */
PL6.E3A0      #001=KIA$UCIOND File=KIA$APPLC.:E05TSI                             WED 07/30/97 00:30 Page:123
      790     9357    1        IF K$RWPARM.ERR = %K$BAD_BUFFER

   9357  1 002150   200025 235100                    LDA     K$RWPARM+11,,AUTO
         1 002151   000002 115007                    CMPA    2,DL
         1 002152   002157 601000 1                  TNZ     s:9362

      791     9358    2        THEN DO;

      792     9359    2             K$RWPARM.TYC = %TYC_MTRAP | %TYC_EGV;

   9359  1 002153   000021 236000 0                  LDQ     XTRARD+6
         1 002154   000030 276000 xsym               ORQ     B_VECTNIL+24
         1 002155   200020 756100                    STQ     K$RWPARM+6,,AUTO

      793     9360    2             ALTRETURN;

   9360  1 002156   000000 702200 xent               TSX2  ! X66_AALT

      794     9361    2           END;
      795     9362    1        B$JIT$->B$JIT.ERR=BYDR;

   9362  1 002157   000003 236000 0                  LDQ     BYDR
         1 002160   000000 470400 xsym               LDP0    B$JIT$
         1 002161   000012 756100                    STQ     10,,PR0

      796     9363        /*E*  ERROR:         KIA-E$BYDR-C
      797     9364               MESSAGE: Asynchronous event interrupted terminal read %thru %DC%.
      798     9365              MESSAGE1: One of the following occurred while a read to
      799     9366                        your timesharing terminal was pending: BREAK,
      800     9367                        CONTROL-Y, X keyin, E keyin,  DISCONNECT.  If
      801     9368                        you can continue the read will be re-issued.
      802     9369              DESCRIPTION:   As a rule, the user never sees this error.  Either
      803     9370                             he is Xed, ERRORed, or disconnected such that he
      804     9371                             does not continue to run; or BREAK or CTL-Y was
      805     9372                             hit.  In the case of BREAK, the users break control
      806     9373                             routine can examine this code to discover whether
      807     9374                             a read to the terminal was interrupted.
PL6.E3A0      #001=KIA$UCIOND File=KIA$APPLC.:E05TSI                             WED 07/30/97 00:30 Page:124
      808     9375                             In any case B$JIT.JUNK.JJ_BAKIC is set such that
      809     9376                             if the user does an M$TRTN or says GO to IBEX the
      810     9377                             interrupted pmme is re-issued                           */
      811     9378    1        GOTO BKOUT;

   9378  1 002162   002210 710000 1                  TRA     BKOUT

   9362  1 002163                       BRKOUT       null
      812     9379
      813     9380    1   BRKOUT: ;
      814     9381
      815     9382             %UNLOCK (G=LDCT$->LDCT.LOCK);

   9383  1 002163   200102 236100                    LDQ     LDCT$,,AUTO
         1 002164   000020 036003                    ADLQ    16,DU
         1 002165   200112 756100                    STQ     VSIN+4,,AUTO
         1 002166   200112 630500                    EPPR0   VSIN+4,,AUTO
         1 002167   000017 631400 xsym               EPPR1   B_VECTNIL+15
         1 002170   000000 701000 xent               TSX1    HFC$UNLOCK
         1 002171   000000 011000                    NOP     0

      816     9385    1        IF B$JIT.ERR = KIA_NODAT

   9385  1 002172   000000 470400 xsym               LDP0    B$JIT$
         1 002173   000012 236100                    LDQ     10,,PR0
         1 002174   000006 116000 0                  CMPQ    KIA_NODAT
         1 002175   002177 601000 1                  TNZ     s:9389

      817     9386    1        THEN
      818     9387    1             ALTRETURN;

   9387  1 002176   000000 702200 xent               TSX2  ! X66_AALT

      819     9388        /* Check to see if there was a trap on the buffer */
      820     9389    1        IF K$RWPARM.ERR = %K$BAD_BUFFER

   9389  1 002177   200025 235100                    LDA     K$RWPARM+11,,AUTO
PL6.E3A0      #001=KIA$UCIOND File=KIA$APPLC.:E05TSI                             WED 07/30/97 00:30 Page:125
         1 002200   000002 115007                    CMPA    2,DL
         1 002201   002206 601000 1                  TNZ     s:9394

      821     9390    2        THEN DO;

      822     9391    2             K$RWPARM.TYC = %TYC_MTRAP | %TYC_EGV;

   9391  1 002202   000021 236000 0                  LDQ     XTRARD+6
         1 002203   000030 276000 xsym               ORQ     B_VECTNIL+24
         1 002204   200020 756100                    STQ     K$RWPARM+6,,AUTO

      823     9392    2             ALTRETURN;

   9392  1 002205   000000 702200 xent               TSX2  ! X66_AALT

      824     9393    2           END;
      825     9394    1        B$JIT$->B$JIT.ERR=BYD;

   9394  1 002206   000002 236000 0                  LDQ     BYD
         1 002207   000012 756100                    STQ     10,,PR0

   9394  1 002210                       BKOUT        null
      826     9395        /*E*  ERROR:         KIA-E$BYD-C
      827     9396               MESSAGE: Asynchronous event interrupted terminal I/O %thru %DC%.
      828     9397              MESSAGE1: One of the following occurred while I/O to
      829     9398                        your timesharing terminal was pending: BREAK,
      830     9399                        CONTROL-Y, X keyin, E keyin,  DISCONNECT.  If
      831     9400                        you can continue the I/O will be re-issued.
      832     9401              DESCRIPTION:   As a rule, the user never sees this error.  Either
      833     9402                             he is Xed, ERRORed, or disconnected such that he
      834     9403                             does not continue to run; or BREAK or CTL-Y was
      835     9404                             hit.  In the case of BREAK, the users break control
      836     9405                             routine can examine this code to discover whether
      837     9406                             terminal writes or control pmmes were in progress.
      838     9407                             In any case B$JIT.JUNK.JJ_BAKIC is set such that
      839     9408                             if the user does an M$TRTN or says GO to IBEX the
      840     9409                             interrupted pmme is re-issued                           */
PL6.E3A0      #001=KIA$UCIOND File=KIA$APPLC.:E05TSI                             WED 07/30/97 00:30 Page:126
      841     9410    1   BKOUT: ;
      842     9411    1        IF LDCT$->NK$LDCT.DFLG.OLDSC       /* ERRCODE IS IN LDCT */

   9411  1 002210   200102 471500                    LDP1    LDCT$,,AUTO
         1 002211   100006 236100                    LDQ     6,,PR1
         1 002212   010000 316007                    CANQ    4096,DL
         1 002213   002222 600000 1                  TZE     s:9417
         1 002214   100000 235100                    LDA     0,,PR1
         1 002215   002222 600000 1                  TZE     s:9417

      843     9412    1             AND LDCT$->NK$LDCT.ERR ~= '0'B
      844     9413    2        THEN DO;

      845     9414    2             B$JIT$->B$JIT.ERR = LDCT$->NK$LDCT.ERR;

   9414  1 002216   100000 236100                    LDQ     0,,PR1
         1 002217   000012 756100                    STQ     10,,PR0

      846     9415    2             LDCT$->NK$LDCT.ERR = '0'B;

   9415  1 002220   200102 471500                    LDP1    LDCT$,,AUTO
         1 002221   100000 450100                    STZ     0,,PR1

      847     9416    2           END;

      848     9417    1        IF S$CU$->B$U.ASYNCH & %(~U_RESET)

   9417  1 002222   000000 471400 xsym               LDP1    S$CU$
         1 002223   100001 236100                    LDQ     1,,PR1
         1 002224   000014 376000 0                  ANQ     XTRARD+1
         1 002225   002231 600000 1                  TZE     s:9420

      849     9418    1        THEN
      850     9419    1             B$JIT$->B$JIT.JUNK=B$JIT$->B$JIT.JUNK|%JJ_BAKIC#;

   9419  1 002226   000315 220100                    LDX0    205,,PR0
         1 002227   001000 260003                    ORX0    512,DU
PL6.E3A0      #001=KIA$UCIOND File=KIA$APPLC.:E05TSI                             WED 07/30/97 00:30 Page:127
         1 002230   000315 740100                    STX0    205,,PR0

      851     9420    1        ALTRETURN;

   9420  1 002231   000000 702200 xent               TSX2  ! X66_AALT

      852     9421        %EJECT;
PL6.E3A0      #001=KIA$UCIOND File=KIA$APPLC.:E05TSI                             WED 07/30/97 00:30 Page:128
      853     9422    1   KIA$CLSSTR: ENTRY (FCN,DVBYTE,VFC) ALTRET;

   9422  1 002232   000000 700200 xent  KIA$CLSSTR   TSX0  ! X66_AUTO_N
         1 002233   000120 000007                    ZERO    80,7

      854     9423
      855     9424    1        ENTFLG = %NODCB#;

   9424  1 002234   000001 235007                    LDA     1,DL
         1 002235   200075 755100                    STA     ENTFLG,,AUTO

      856     9425    1        K$RWPARM = K_RWPARM_CON;

   9425  1 002236   000100 100400                    MLR     fill='000'O
         1 002237   000000 000234 xsym               ADSC9   K_RWPARM_CON             cn=0,n=156
         1 002240   200012 000234                    ADSC9   K$RWPARM,,AUTO           cn=0,n=156

      857     9426    1        K$RWPARM.STR = ADDR(FCN)->STR;

   9426  1 002241   200003 470500                    LDP0    @FCN,,AUTO
         1 002242   000000 236100                    LDQ     0,,PR0
         1 002243   200052 552104                    STBQ    K$RWPARM+32,'04'O,AUTO

      858     9427    1        K$RWPARM.VDOFLGS.DLTSTR = ADDR(DVBYTE)->DLTSTR;

   9427  1 002244   200004 471500                    LDP1    @DVBYTE,,AUTO
         1 002245   003100 060500                    CSL     bolr='003'O
         1 002246   100000 000001                    BDSC    0,,PR1                   by=0,bit=0,n=1
         1 002247   200052 210001                    BDSC    K$RWPARM+32,,AUTO        by=1,bit=1,n=1

      859     9428    1        K$RWPARM.VDOFLGS.NEWSSN = ADDR(VFC)->NEWSSN;

   9428  1 002250   200005 473500                    LDP3    @VFC,,AUTO
         1 002251   003100 060500                    CSL     bolr='003'O
         1 002252   300000 000001                    BDSC    0,,PR3                   by=0,bit=0,n=1
         1 002253   200052 220001                    BDSC    K$RWPARM+32,,AUTO        by=1,bit=2,n=1

PL6.E3A0      #001=KIA$UCIOND File=KIA$APPLC.:E05TSI                             WED 07/30/97 00:30 Page:129
      860     9429    1        LDCT$ = NK$LDCT$(B$M$UC$->F$DCB.LDCTX);

   9429  1 002254   000000 474400 xsym               LDP4    B$M$UC$
         1 002255   400051 220100                    LDX0    41,,PR4
         1 002256   000000 475400 xsym               LDP5    N$DCT$$
         1 002257   500000 236110                    LDQ     0,X0,PR5
         1 002260   200102 756100                    STQ     LDCT$,,AUTO

      861     9430    1        B$M$UC$->F$DCB.STR = 1;       /* Don't leave this strid lying around */

   9430  1 002261   000001 236007                    LDQ     1,DL
         1 002262   400077 552104                    STBQ    63,'04'O,PR4

      862     9431             %LOCK (G=LDCT$->LDCT.LOCK);

   9432  1 002263   200102 236100                    LDQ     LDCT$,,AUTO
         1 002264   000020 036003                    ADLQ    16,DU
         1 002265   200112 756100                    STQ     VSIN+4,,AUTO
         1 002266   200112 630500                    EPPR0   VSIN+4,,AUTO
         1 002267   000017 631400 xsym               EPPR1   B_VECTNIL+15
         1 002270   000000 701000 xent               TSX1    HFC$LOCK
         1 002271   000000 011000                    NOP     0

      863     9434    1        IF K$RWPARM.VDOFLGS.NEWSSN

   9434  1 002272   200052 236100                    LDQ     K$RWPARM+32,,AUTO
         1 002273   000100 316003                    CANQ    64,DU
         1 002274   002277 600000 1                  TZE     s:9437

      864     9435    1        THEN
      865     9436    1             K$RWPARM.MRKTYP = %KV_VDOMRKTYP_ENDACK;

   9436  1 002275   001000 236007                    LDQ     512,DL
         1 002276   200052 552110                    STBQ    K$RWPARM+32,'10'O,AUTO

      866     9437    1        CALL KIA$FCNOU(LDCT$->LDCT,%KV_VDO_FNC_CLSSTR,K$RWPARM) ALTRET(BRKOUT);

PL6.E3A0      #001=KIA$UCIOND File=KIA$APPLC.:E05TSI                             WED 07/30/97 00:30 Page:130
   9437  1 002277   200012 630500                    EPPR0   K$RWPARM,,AUTO
         1 002300   200114 450500                    STP0    VSIN+6,,AUTO
         1 002301   000023 236000 2                  LDQ     19
         1 002302   200102 235100                    LDA     LDCT$,,AUTO
         1 002303   200112 757100                    STAQ    VSIN+4,,AUTO
         1 002304   200112 630500                    EPPR0   VSIN+4,,AUTO
         1 002305   000021 631400 xsym               EPPR1   B_VECTNIL+17
         1 002306   000000 701000 xent               TSX1    KIA$FCNOU
         1 002307   002163 702000 1                  TSX2    BRKOUT

      867     9438    1        IF K$RWPARM.VDOFLGS.DLTSTR

   9438  1 002310   200052 236100                    LDQ     K$RWPARM+32,,AUTO
         1 002311   000200 316003                    CANQ    128,DU
         1 002312   002321 600000 1                  TZE     s:9441

      868     9439    1        THEN
      869     9440    1             B$ROSEG$->B$ROSEG.STREAM_VALID(K$RWPARM.STR) = '0'B;

   9440  1 002313   200052 236100                    LDQ     K$RWPARM+32,,AUTO
         1 002314   000777 376007                    ANQ     511,DL
         1 002315   000000 470400 xsym               LDP0    B$ROSEG$
         1 002316   003106 060400                    CSL     bolr='003'O
         1 002317   000002 000001 xsym               BDSC    B_VECTNIL+2              by=0,bit=0,n=1
         1 002320   000117 000001                    BDSC    79,Q,PR0                 by=0,bit=0,n=1

      870     9441    1        GOTO WAIT_RRR_RESP;

   9441  1 002321   000574 710000 1                  TRA     WAIT_RRR_RESP

      871     9442        %EJECT;
PL6.E3A0      #001=KIA$UCIOND File=KIA$APPLC.:E05TSI                             WED 07/30/97 00:30 Page:131
      872     9443    1   KIA$OPNSSN: ENTRY (FCN) ALTRET;

   9443  1 002322   000000 700200 xent  KIA$OPNSSN   TSX0  ! X66_AUTO_N
         1 002323   000120 000007                    ZERO    80,7

      873     9444
      874     9445    1        ENTFLG = %NODCB#;

   9445  1 002324   000001 235007                    LDA     1,DL
         1 002325   200075 755100                    STA     ENTFLG,,AUTO

      875     9446    1        K$RWPARM = K_RWPARM_CON;

   9446  1 002326   000100 100400                    MLR     fill='000'O
         1 002327   000000 000234 xsym               ADSC9   K_RWPARM_CON             cn=0,n=156
         1 002330   200012 000234                    ADSC9   K$RWPARM,,AUTO           cn=0,n=156

      876     9447    1        LDCT$ = ADDR(FCN);

   9447  1 002331   200003 236100                    LDQ     @FCN,,AUTO
         1 002332   200102 756100                    STQ     LDCT$,,AUTO

      877     9448             %LOCK (G=LDCT$->LDCT.LOCK);

   9449  1 002333   000020 036003                    ADLQ    16,DU
         1 002334   200112 756100                    STQ     VSIN+4,,AUTO
         1 002335   200112 630500                    EPPR0   VSIN+4,,AUTO
         1 002336   000017 631400 xsym               EPPR1   B_VECTNIL+15
         1 002337   000000 701000 xent               TSX1    HFC$LOCK
         1 002340   000000 011000                    NOP     0

      878     9451    1        K$RWPARM.MRKTYP = %KV_VDOMRKTYP_ENDACK;

   9451  1 002341   001000 236007                    LDQ     512,DL
         1 002342   200052 552110                    STBQ    K$RWPARM+32,'10'O,AUTO

      879     9452    1        CALL KIA$FCNOU(LDCT$->LDCT,%KV_VDO_FNC_OPNSSN_RQS,K$RWPARM) ALTRET(BRKOUT);
PL6.E3A0      #001=KIA$UCIOND File=KIA$APPLC.:E05TSI                             WED 07/30/97 00:30 Page:132

   9452  1 002343   200012 630500                    EPPR0   K$RWPARM,,AUTO
         1 002344   200114 450500                    STP0    VSIN+6,,AUTO
         1 002345   000025 236000 2                  LDQ     21
         1 002346   200102 235100                    LDA     LDCT$,,AUTO
         1 002347   200112 757100                    STAQ    VSIN+4,,AUTO
         1 002350   200112 630500                    EPPR0   VSIN+4,,AUTO
         1 002351   000021 631400 xsym               EPPR1   B_VECTNIL+17
         1 002352   000000 701000 xent               TSX1    KIA$FCNOU
         1 002353   002163 702000 1                  TSX2    BRKOUT

      880     9453    1        GOTO WAIT_RRR_RESP;

   9453  1 002354   000574 710000 1                  TRA     WAIT_RRR_RESP

      881     9454        %EJECT;
PL6.E3A0      #001=KIA$UCIOND File=KIA$APPLC.:E05TSI                             WED 07/30/97 00:30 Page:133
      882     9455    1   KIA$DCLSTR: ENTRY (FCN,DVBYTE) ALTRET;

   9455  1 002355   000000 700200 xent  KIA$DCLSTR   TSX0  ! X66_AUTO_N
         1 002356   000120 000007                    ZERO    80,7

      883     9456
      884     9457    1        ENTFLG = %NODCB#;

   9457  1 002357   000001 235007                    LDA     1,DL
         1 002360   200075 755100                    STA     ENTFLG,,AUTO

      885     9458    1        K$RWPARM = K_RWPARM_CON;

   9458  1 002361   000100 100400                    MLR     fill='000'O
         1 002362   000000 000234 xsym               ADSC9   K_RWPARM_CON             cn=0,n=156
         1 002363   200012 000234                    ADSC9   K$RWPARM,,AUTO           cn=0,n=156

   9458  1 002364                       DCLSTR       null
      886     9459    1   DCLSTR: ;
      887     9460    1        K$RWPARM.STR = ADDR(FCN)->STR;

   9460  1 002364   200003 470500                    LDP0    @FCN,,AUTO
         1 002365   000000 236100                    LDQ     0,,PR0
         1 002366   200052 552104                    STBQ    K$RWPARM+32,'04'O,AUTO

      888     9461    1        K$RWPARM.STRID = ADDR(DVBYTE)->STRID;

   9461  1 002367   200004 471500                    LDP1    @DVBYTE,,AUTO
         1 002370   100000 236100                    LDQ     0,,PR1
         1 002371   000033 736000                    QLS     27
         1 002372   200052 552140                    STBQ    K$RWPARM+32,'40'O,AUTO

      889     9462    1        LDCT$ = NK$LDCT$(B$M$UC$->F$DCB.LDCTX);

   9462  1 002373   000000 473400 xsym               LDP3    B$M$UC$
         1 002374   300051 220100                    LDX0    41,,PR3
         1 002375   000000 474400 xsym               LDP4    N$DCT$$
PL6.E3A0      #001=KIA$UCIOND File=KIA$APPLC.:E05TSI                             WED 07/30/97 00:30 Page:134
         1 002376   400000 236110                    LDQ     0,X0,PR4
         1 002377   200102 756100                    STQ     LDCT$,,AUTO

      890     9463             %LOCK (G=LDCT$->LDCT.LOCK);

   9464  1 002400   000020 036003                    ADLQ    16,DU
         1 002401   200112 756100                    STQ     VSIN+4,,AUTO
         1 002402   200112 630500                    EPPR0   VSIN+4,,AUTO
         1 002403   000017 631400 xsym               EPPR1   B_VECTNIL+15
         1 002404   000000 701000 xent               TSX1    HFC$LOCK
         1 002405   000000 011000                    NOP     0

      891     9466    1        K$RWPARM.MRKTYP = %KV_VDOMRKTYP_ENDACK;

   9466  1 002406   001000 236007                    LDQ     512,DL
         1 002407   200052 552110                    STBQ    K$RWPARM+32,'10'O,AUTO

      892     9467    1        CALL KIA$FCNOU(LDCT$->LDCT,%KV_VDO_FNC_DCLSTR,K$RWPARM) ALTRET(BRKOUT);

   9467  1 002410   200012 630500                    EPPR0   K$RWPARM,,AUTO
         1 002411   200114 450500                    STP0    VSIN+6,,AUTO
         1 002412   000016 236000 2                  LDQ     14
         1 002413   200102 235100                    LDA     LDCT$,,AUTO
         1 002414   200112 757100                    STAQ    VSIN+4,,AUTO
         1 002415   200112 630500                    EPPR0   VSIN+4,,AUTO
         1 002416   000021 631400 xsym               EPPR1   B_VECTNIL+17
         1 002417   000000 701000 xent               TSX1    KIA$FCNOU
         1 002420   002163 702000 1                  TSX2    BRKOUT

      893     9468    1        K$RWPARM.STR = K$RWPARM.STRID;     /* mark the stream ok if no error */

   9468  1 002421   200052 236100                    LDQ     K$RWPARM+32,,AUTO
         1 002422   000033 772000                    QRL     27
         1 002423   200052 552104                    STBQ    K$RWPARM+32,'04'O,AUTO

      894     9469    1        GOTO WAIT_RRR_RESP;

PL6.E3A0      #001=KIA$UCIOND File=KIA$APPLC.:E05TSI                             WED 07/30/97 00:30 Page:135
   9469  1 002424   000574 710000 1                  TRA     WAIT_RRR_RESP

      895     9470        %EJECT;
PL6.E3A0      #001=KIA$UCIOND File=KIA$APPLC.:E05TSI                             WED 07/30/97 00:30 Page:136
      896     9471    1   KIA$REDSTR: ENTRY(FCN,DVBYTE) ALTRET;

   9471  1 002425   000000 700200 xent  KIA$REDSTR   TSX0  ! X66_AUTO_N
         1 002426   000120 000007                    ZERO    80,7

      897     9472
      898     9473    1        ENTFLG = %NODCB#;

   9473  1 002427   000001 235007                    LDA     1,DL
         1 002430   200075 755100                    STA     ENTFLG,,AUTO

      899     9474    1        K$RWPARM = K_RWPARM_CON;

   9474  1 002431   000100 100400                    MLR     fill='000'O
         1 002432   000000 000234 xsym               ADSC9   K_RWPARM_CON             cn=0,n=156
         1 002433   200012 000234                    ADSC9   K$RWPARM,,AUTO           cn=0,n=156

      900     9475    1        K$RWPARM.VDOFLGS.REDSTR = '1'B;

   9475  1 002434   000040 236003                    LDQ     32,DU
         1 002435   200052 256100                    ORSQ    K$RWPARM+32,,AUTO

      901     9476    1        GOTO DCLSTR;

   9476  1 002436   002364 710000 1                  TRA     DCLSTR

      902     9477
      903     9478        %EJECT;
PL6.E3A0      #001=KIA$UCIOND File=KIA$APPLC.:E05TSI                             WED 07/30/97 00:30 Page:137
      904     9479    1   KIA$OPNSTR: ENTRY (FCN,DVBYTE) ALTRET;

   9479  1 002437   000000 700200 xent  KIA$OPNSTR   TSX0  ! X66_AUTO_N
         1 002440   000120 000007                    ZERO    80,7

      905     9480
      906     9481    1        ENTFLG = %NODCB#;

   9481  1 002441   000001 235007                    LDA     1,DL
         1 002442   200075 755100                    STA     ENTFLG,,AUTO

      907     9482    1        K$RWPARM = K_RWPARM_CON;

   9482  1 002443   000100 100400                    MLR     fill='000'O
         1 002444   000000 000234 xsym               ADSC9   K_RWPARM_CON             cn=0,n=156
         1 002445   200012 000234                    ADSC9   K$RWPARM,,AUTO           cn=0,n=156

      908     9483    1        K$RWPARM.STR = ADDR(FCN)->STR;

   9483  1 002446   200003 470500                    LDP0    @FCN,,AUTO
         1 002447   000000 236100                    LDQ     0,,PR0
         1 002450   200052 552104                    STBQ    K$RWPARM+32,'04'O,AUTO

      909     9484
      910     9485    1        IF ADDR(DVBYTE)->F$DCB.ORG = %FORM#

   9485  1 002451   200004 471500                    LDP1    @DVBYTE,,AUTO
         1 002452   100032 236100                    LDQ     26,,PR1
         1 002453   777000 376003                    ANQ     -512,DU
         1 002454   031000 116003                    CMPQ    12800,DU
         1 002455   002461 601000 1                  TNZ     s:9488

      911     9486    1        THEN
      912     9487    1             K$RWPARM.ORG = %KV#VD_ORG_FORM;

   9487  1 002456   004000 236003                    LDQ     2048,DU
         1 002457   200052 552140                    STBQ    K$RWPARM+32,'40'O,AUTO
PL6.E3A0      #001=KIA$UCIOND File=KIA$APPLC.:E05TSI                             WED 07/30/97 00:30 Page:138
         1 002460   002524 710000 1                  TRA     s:9504

      913     9488    1        ELSE IF ADDR(DVBYTE)->F$DCB.ORG = %X364#

   9488  1 002461   030000 116003                    CMPQ    12288,DU
         1 002462   002466 601000 1                  TNZ     s:9491

      914     9489    1             THEN
      915     9490    1                  K$RWPARM.ORG = %KV#VD_ORG_X364;

   9490  1 002463   002000 236003                    LDQ     1024,DU
         1 002464   200052 552140                    STBQ    K$RWPARM+32,'40'O,AUTO
         1 002465   002524 710000 1                  TRA     s:9504

      916     9491    1             ELSE IF ADDR(DVBYTE)->F$DCB.ORG = %SE#

   9491  1 002466   027000 116003                    CMPQ    11776,DU
         1 002467   002522 601000 1                  TNZ     s:9503

      917     9492    2                  THEN DO;

      918     9493    2                       K$RWPARM.ORG = %KV#VD_ORG_SE;

   9493  1 002470   005000 236003                    LDQ     2560,DU
         1 002471   200052 552140                    STBQ    K$RWPARM+32,'40'O,AUTO

      919     9494    2                       IF ADDR(DVBYTE)->F$DCB.KEYL=0 OR ADDR(DVBYTE)->F$DCB.KEYL>4

   9494  1 002472   100036 236100                    LDQ     30,,PR1
         1 002473   777000 316007                    CANQ    -512,DL
         1 002474   002501 600000 1                  TZE     s:9495
         1 002475   100036 236100                    LDQ     30,,PR1
         1 002476   777000 376007                    ANQ     -512,DL
         1 002477   005000 116007                    CMPQ    2560,DL
         1 002500   002503 602000 1                  TNC     s:9496

      920     9495    2                       THEN ADDR(DVBYTE)->F$DCB.KEYL = 4;
PL6.E3A0      #001=KIA$UCIOND File=KIA$APPLC.:E05TSI                             WED 07/30/97 00:30 Page:139

   9495  1 002501   004000 236007                    LDQ     2048,DL
         1 002502   100036 552110                    STBQ    30,'10'O,PR1

      921     9496    2                       K$RWPARM.KEYSZ = ADDR(DVBYTE)->F$DCB.KEYL;

   9496  1 002503   100036 236100                    LDQ     30,,PR1
         1 002504   000011 772000                    QRL     9
         1 002505   200060 552104                    STBQ    K$RWPARM+38,'04'O,AUTO

      922     9497    2                       K$RWPARM.SPARE = ADDR(DVBYTE)->F$DCB.SPARE;

   9497  1 002506   100040 236100                    LDQ     32,,PR1
         1 002507   000011 772000                    QRL     9
         1 002510   200052 552120                    STBQ    K$RWPARM+32,'20'O,AUTO

      923     9498    2                       K$RWPARM.NRECS = ADDR(DVBYTE)->F$DCB.NRECS;

   9498  1 002511   100042 236100                    LDQ     34,,PR1
         1 002512   000011 736000                    QLS     9
         1 002513   200060 552110                    STBQ    K$RWPARM+38,'10'O,AUTO

      924     9499    2                       IF ADDR(DVBYTE)->F$DCB.KEYTYPE=0

   9499  1 002514   100056 236100                    LDQ     46,,PR1
         1 002515   000777 316003                    CANQ    511,DU
         1 002516   002524 601000 1                  TNZ     s:9504

      925     9500    2                       THEN ADDR(DVBYTE)->F$DCB.KEYTYPE = %KEYTYPE_BIN10#;

   9500  1 002517   000004 236003                    LDQ     4,DU
         1 002520   100056 552120                    STBQ    46,'20'O,PR1

      926     9501    2                     END;

   9501  1 002521   002524 710000 1                  TRA     s:9504

PL6.E3A0      #001=KIA$UCIOND File=KIA$APPLC.:E05TSI                             WED 07/30/97 00:30 Page:140
      927     9502    1                  ELSE
      928     9503    1                       K$RWPARM.ORG = %KV#VD_ORG_UR;

   9503  1 002522   001000 236003                    LDQ     512,DU
         1 002523   200052 552140                    STBQ    K$RWPARM+32,'40'O,AUTO

      929     9504    1        LDCT$ = NK$LDCT$(B$M$UC$->F$DCB.LDCTX);

   9504  1 002524   000000 473400 xsym               LDP3    B$M$UC$
         1 002525   300051 220100                    LDX0    41,,PR3
         1 002526   000000 474400 xsym               LDP4    N$DCT$$
         1 002527   400000 236110                    LDQ     0,X0,PR4
         1 002530   200102 756100                    STQ     LDCT$,,AUTO

      930     9505             %LOCK (G=LDCT$->LDCT.LOCK);

   9506  1 002531   000020 036003                    ADLQ    16,DU
         1 002532   200112 756100                    STQ     VSIN+4,,AUTO
         1 002533   200112 630500                    EPPR0   VSIN+4,,AUTO
         1 002534   000017 631400 xsym               EPPR1   B_VECTNIL+15
         1 002535   000000 701000 xent               TSX1    HFC$LOCK
         1 002536   000000 011000                    NOP     0

      931     9508    1        IF K$RWPARM.ORG ~= %KV#VD_ORG_UR

   9508  1 002537   200052 236100                    LDQ     K$RWPARM+32,,AUTO
         1 002540   777000 376003                    ANQ     -512,DU
         1 002541   001000 116003                    CMPQ    512,DU
         1 002542   002545 600000 1                  TZE     s:9511

      932     9509    1        THEN
      933     9510    1             K$RWPARM.MRKTYP = %KV_VDOMRKTYP_ENDACK;

   9510  1 002543   001000 236007                    LDQ     512,DL
         1 002544   200052 552110                    STBQ    K$RWPARM+32,'10'O,AUTO

      934     9511    1        CALL KIA$FCNOU(LDCT$->LDCT,%KV_VDO_FNC_OPNSTR,K$RWPARM) ALTRET(BRKOUT);
PL6.E3A0      #001=KIA$UCIOND File=KIA$APPLC.:E05TSI                             WED 07/30/97 00:30 Page:141

   9511  1 002545   200012 630500                    EPPR0   K$RWPARM,,AUTO
         1 002546   200114 450500                    STP0    VSIN+6,,AUTO
         1 002547   000027 236000 2                  LDQ     23
         1 002550   200102 235100                    LDA     LDCT$,,AUTO
         1 002551   200112 757100                    STAQ    VSIN+4,,AUTO
         1 002552   200112 630500                    EPPR0   VSIN+4,,AUTO
         1 002553   000021 631400 xsym               EPPR1   B_VECTNIL+17
         1 002554   000000 701000 xent               TSX1    KIA$FCNOU
         1 002555   002163 702000 1                  TSX2    BRKOUT

      935     9512    1        GOTO WAIT_RRR_RESP;

   9512  1 002556   000574 710000 1                  TRA     WAIT_RRR_RESP

      936     9513        %EJECT;
PL6.E3A0      #001=KIA$UCIOND File=KIA$APPLC.:E05TSI                             WED 07/30/97 00:30 Page:142
      937     9514    1   KIA$WINDOW: ENTRY(FCN,DVBYTE) ALTRET;

   9514  1 002557   000000 700200 xent  KIA$WINDOW   TSX0  ! X66_AUTO_N
         1 002560   000120 000007                    ZERO    80,7

      938     9515
      939     9516    1        ENTFLG = %NODCB#;

   9516  1 002561   000001 235007                    LDA     1,DL
         1 002562   200075 755100                    STA     ENTFLG,,AUTO

      940     9517    1        CALL FSN$CONV_STR (ADDR(DVBYTE)->VLP$WINDOW_V.FWINDOW,ADDR(DVBYTE)->
              9517                 VLP$WINDOW_V.FSTR.ID)

   9517  1 002563   200004 236100                    LDQ     @DVBYTE,,AUTO
         1 002564   200004 235100                    LDA     @DVBYTE,,AUTO
         1 002565   200112 757100                    STAQ    VSIN+4,,AUTO
         1 002566   200112 630500                    EPPR0   VSIN+4,,AUTO
         1 002567   000020 631400 xsym               EPPR1   B_VECTNIL+16
         1 002570   000000 701000 xent               TSX1    FSN$CONV_STR
         1 002571   002573 702000 1                  TSX2    s:9519
         1 002572   002574 710000 1                  TRA     s:9521

      941     9518    2        WHENALTRETURN DO;

      942     9519    2             ALTRETURN;

   9519  1 002573   000000 702200 xent               TSX2  ! X66_AALT

      943     9520    2           END;
      944     9521    1        CALL KIA$9TO8 (ADDR(DVBYTE)->WINDOW.LENGTH,

   9521  1 002574   000020 236000 2                  LDQ     16
         1 002575   200114 756100                    STQ     VSIN+6,,AUTO
         1 002576   200004 236100                    LDQ     @DVBYTE,,AUTO
         1 002577   000001 036003                    ADLQ    1,DU
         1 002600   200113 756100                    STQ     VSIN+5,,AUTO
PL6.E3A0      #001=KIA$UCIOND File=KIA$APPLC.:E05TSI                             WED 07/30/97 00:30 Page:143
         1 002601   200112 756100                    STQ     VSIN+4,,AUTO
         1 002602   200112 630500                    EPPR0   VSIN+4,,AUTO
         1 002603   000021 631400 xsym               EPPR1   B_VECTNIL+17
         1 002604   000000 701000 xent               TSX1    KIA$9TO8
         1 002605   000000 011000                    NOP     0

      945     9522    1             ADDR(DVBYTE)->WINDOW.LENGTH,2);
      946     9523    1        CALL KIA$9TO8 (ADDR(DVBYTE)->WINDOW.WIDTH,

   9523  1 002606   000020 236000 2                  LDQ     16
         1 002607   200114 756100                    STQ     VSIN+6,,AUTO
         1 002610   200004 236100                    LDQ     @DVBYTE,,AUTO
         1 002611   000030 036000 2                  ADLQ    24
         1 002612   200113 756100                    STQ     VSIN+5,,AUTO
         1 002613   200112 756100                    STQ     VSIN+4,,AUTO
         1 002614   200112 630500                    EPPR0   VSIN+4,,AUTO
         1 002615   000021 631400 xsym               EPPR1   B_VECTNIL+17
         1 002616   000000 701000 xent               TSX1    KIA$9TO8
         1 002617   000000 011000                    NOP     0

      947     9524    1             ADDR(DVBYTE)->WINDOW.WIDTH,2);
      948     9525    1        CALL KIA$9TO8 (ADDR(DVBYTE)->WINDOW.ORG_PST.COLUMN,

   9525  1 002620   000020 236000 2                  LDQ     16
         1 002621   200114 756100                    STQ     VSIN+6,,AUTO
         1 002622   200004 236100                    LDQ     @DVBYTE,,AUTO
         1 002623   000031 036000 2                  ADLQ    25
         1 002624   200113 756100                    STQ     VSIN+5,,AUTO
         1 002625   200112 756100                    STQ     VSIN+4,,AUTO
         1 002626   200112 630500                    EPPR0   VSIN+4,,AUTO
         1 002627   000021 631400 xsym               EPPR1   B_VECTNIL+17
         1 002630   000000 701000 xent               TSX1    KIA$9TO8
         1 002631   000000 011000                    NOP     0

      949     9526    1             ADDR(DVBYTE)->WINDOW.ORG_PST.COLUMN,2);
      950     9527    1        K$RWPARM = K_RWPARM_CON;

PL6.E3A0      #001=KIA$UCIOND File=KIA$APPLC.:E05TSI                             WED 07/30/97 00:30 Page:144
   9527  1 002632   000100 100400                    MLR     fill='000'O
         1 002633   000000 000234 xsym               ADSC9   K_RWPARM_CON             cn=0,n=156
         1 002634   200012 000234                    ADSC9   K$RWPARM,,AUTO           cn=0,n=156

      951     9528    1        K$RWPARM.STR = ADDR(FCN)->STR;

   9528  1 002635   200003 470500                    LDP0    @FCN,,AUTO
         1 002636   000000 236100                    LDQ     0,,PR0
         1 002637   200052 552104                    STBQ    K$RWPARM+32,'04'O,AUTO

      952     9529    1        K$RWPARM.MSG$ = ADDR(DVBYTE);

   9529  1 002640   200004 236100                    LDQ     @DVBYTE,,AUTO
         1 002641   200012 756100                    STQ     K$RWPARM,,AUTO

      953     9530    1        K$RWPARM.MSGSZ = SIZEC(VLP$WINDOW_V);

   9530  1 002642   000040 235007                    LDA     32,DL
         1 002643   200013 755100                    STA     K$RWPARM+1,,AUTO

      954     9531    1        K$RWPARM.PRMID = %KV_PRMID_WINDOW;

   9531  1 002644   000020 220003                    LDX0    16,DU
         1 002645   200057 440100                    SXL0    K$RWPARM+37,,AUTO

      955     9532    1        LDCT$ = NK$LDCT$(B$M$UC$->F$DCB.LDCTX);

   9532  1 002646   000000 471400 xsym               LDP1    B$M$UC$
         1 002647   100051 221100                    LDX1    41,,PR1
         1 002650   000000 473400 xsym               LDP3    N$DCT$$
         1 002651   300000 236111                    LDQ     0,X1,PR3
         1 002652   200102 756100                    STQ     LDCT$,,AUTO

      956     9533             %LOCK (G=LDCT$->LDCT.LOCK);

   9534  1 002653   000020 036003                    ADLQ    16,DU
         1 002654   200112 756100                    STQ     VSIN+4,,AUTO
PL6.E3A0      #001=KIA$UCIOND File=KIA$APPLC.:E05TSI                             WED 07/30/97 00:30 Page:145
         1 002655   200112 630500                    EPPR0   VSIN+4,,AUTO
         1 002656   000017 631400 xsym               EPPR1   B_VECTNIL+15
         1 002657   000000 701000 xent               TSX1    HFC$LOCK
         1 002660   000000 011000                    NOP     0

      957     9536    1        CALL KIA$FCNOU(LDCT$->LDCT,%KV_VDO_FNC_PRM_SET,K$RWPARM) ALTRET(BRKOUT);

   9536  1 002661   200012 630500                    EPPR0   K$RWPARM,,AUTO
         1 002662   200114 450500                    STP0    VSIN+6,,AUTO
         1 002663   000012 236000 2                  LDQ     10
         1 002664   200102 235100                    LDA     LDCT$,,AUTO
         1 002665   200112 757100                    STAQ    VSIN+4,,AUTO
         1 002666   200112 630500                    EPPR0   VSIN+4,,AUTO
         1 002667   000021 631400 xsym               EPPR1   B_VECTNIL+17
         1 002670   000000 701000 xent               TSX1    KIA$FCNOU
         1 002671   002163 702000 1                  TSX2    BRKOUT

      958     9537             %UNLOCK (G=LDCT$->NK$LDCT.LOCK);

   9538  1 002672   200102 236100                    LDQ     LDCT$,,AUTO
         1 002673   000020 036003                    ADLQ    16,DU
         1 002674   200112 756100                    STQ     VSIN+4,,AUTO
         1 002675   200112 630500                    EPPR0   VSIN+4,,AUTO
         1 002676   000017 631400 xsym               EPPR1   B_VECTNIL+15
         1 002677   000000 701000 xent               TSX1    HFC$UNLOCK
         1 002700   000000 011000                    NOP     0

      959     9540    1        RETURN;

   9540  1 002701   000000 702200 xent               TSX2  ! X66_ARET

      960     9541
      961     9542        %EJECT;
PL6.E3A0      #001=KIA$UCIOND File=KIA$APPLC.:E05TSI                             WED 07/30/97 00:30 Page:146
      962     9543    1   READS: PROC ALTRET;

   9543  1 002702   200110 741300       READS        STX1  ! VSIN+2,,AUTO

      963     9544
      964     9545        /*I*
      965     9546             NAME: READS
      966     9547             PURPOSE:
      967     9548                  To perform a read function from the terminal.
      968     9549             CALL:
      969     9550                  CALL READS ALTRET( );
      970     9551             DATA:
      971     9552                  K$RWPARM - Set up with the read information
      972     9553                  LDCT$    - Pointing to the TS terminal's LDCT
      973     9554             DESCRIPTION:
      974     9555                  When a read is done from the terminal the first thing send
      975     9556                  to the terminal is a read request then the user if regged for
      976     9557                  communication read event. When a message comes in satisfying the
      977     9558                  read, KIA$UCIN unreg's the user. A read is done from KIS$SEND
      978     9559                  which will find the message that caused the read completion and
      979     9560                  move it into the user's buffer. If a BRK or CNTRL Y interrupted
      980     9561                  the read and this is not KIA$UCIOND, this procedure
      981     9562                  will ALTRETURN.
      982     9563        */
      983     9564    2        IF MSGSZ = 0 OR MSG$ = ADDR(NIL)   /* No read buffer */

   9564  1 002703   200100 235100                    LDA     MSGSZ,,AUTO
         1 002704   002710 600000 1                  TZE     s:9566
         1 002705   200076 236100                    LDQ     MSG$,,AUTO
         1 002706   000001 116000 xsym               CMPQ    B_VECTNIL+1
         1 002707   002711 601000 1                  TNZ     s:9568

      984     9565    2        THEN
      985     9566    2             RETURN;

   9566  1 002710   000001 702211                    TSX2  ! 1,X1

PL6.E3A0      #001=KIA$UCIOND File=KIA$APPLC.:E05TSI                             WED 07/30/97 00:30 Page:147
      986     9567             %LOCK (G=LDCT$->NK$LDCT.LOCK);

   9568  1 002711   200102 236100                    LDQ     LDCT$,,AUTO
         1 002712   000020 036003                    ADLQ    16,DU
         1 002713   200112 756100                    STQ     VSIN+4,,AUTO
         1 002714   200112 630500                    EPPR0   VSIN+4,,AUTO
         1 002715   000017 631400 xsym               EPPR1   B_VECTNIL+15
         1 002716   000000 701000 xent               TSX1    HFC$LOCK
         1 002717   000000 011000                    NOP     0

      987     9570    2        IF FCN = MFC_READ

   9570  1 002720   200003 470500                    LDP0    @FCN,,AUTO
         1 002721   000000 235100                    LDA     0,,PR0
         1 002722   002735 601000 1                  TNZ     s:9574

      988     9571    2        THEN
      989     9572    2            CALL KIA$FCNOU (LDCT$->NK$LDCT,%KV_VDO_FNC_RQSDAT,K$RWPARM) ALTRET (BRKCK)
              9572                      ;

   9572  1 002723   200012 631500                    EPPR1   K$RWPARM,,AUTO
         1 002724   200114 451500                    STP1    VSIN+6,,AUTO
         1 002725   000014 236000 2                  LDQ     12
         1 002726   200102 235100                    LDA     LDCT$,,AUTO
         1 002727   200112 757100                    STAQ    VSIN+4,,AUTO
         1 002730   200112 630500                    EPPR0   VSIN+4,,AUTO
         1 002731   000021 631400 xsym               EPPR1   B_VECTNIL+17
         1 002732   000000 701000 xent               TSX1    KIA$FCNOU
         1 002733   003270 702000 1                  TSX2    BRKCK
         1 002734   002746 710000 1                  TRA     s:9577

      990     9573    2        ELSE
      991     9574    2            CALL KIA$FCNOU (LDCT$->NK$LDCT,%KV_VDO_FNC_RQSPRM,K$RWPARM) ALTRET (BRKCK)
              9574                      ;

   9574  1 002735   200012 631500                    EPPR1   K$RWPARM,,AUTO
         1 002736   200114 451500                    STP1    VSIN+6,,AUTO
PL6.E3A0      #001=KIA$UCIOND File=KIA$APPLC.:E05TSI                             WED 07/30/97 00:30 Page:148
         1 002737   000033 236000 2                  LDQ     27
         1 002740   200102 235100                    LDA     LDCT$,,AUTO
         1 002741   200112 757100                    STAQ    VSIN+4,,AUTO
         1 002742   200112 630500                    EPPR0   VSIN+4,,AUTO
         1 002743   000021 631400 xsym               EPPR1   B_VECTNIL+17
         1 002744   000000 701000 xent               TSX1    KIA$FCNOU
         1 002745   003270 702000 1                  TSX2    BRKCK

      992     9575
      993     9576        /* SS unlock LDCT$->NK$LDCT.LOCK */
      994     9577    2        IF ENTFLG ~= %DCB#

   9577  1 002746   200075 235100                    LDA     ENTFLG,,AUTO
         1 002747   002761 600000 1                  TZE     s:9581

      995     9578    2        THEN
      996     9579    2             CALL SSR$REG(%SS_CW,LDCT$) ALTRET(REGALT);

   9579  1 002750   200102 630500                    EPPR0   LDCT$,,AUTO
         1 002751   200113 450500                    STP0    VSIN+5,,AUTO
         1 002752   000006 236000 2                  LDQ     6
         1 002753   200112 756100                    STQ     VSIN+4,,AUTO
         1 002754   200112 630500                    EPPR0   VSIN+4,,AUTO
         1 002755   000020 631400 xsym               EPPR1   B_VECTNIL+16
         1 002756   000000 701000 xent               TSX1    SSR$REG
         1 002757   003211 702000 1                  TSX2    REGALT
         1 002760   002771 710000 1                  TRA     s:9583

      997     9580    2        ELSE
      998     9581    2             CALL SSR$REG (%SS_CRD,LDCT$) ALTRET(REGALT);

   9581  1 002761   200102 630500                    EPPR0   LDCT$,,AUTO
         1 002762   200113 450500                    STP0    VSIN+5,,AUTO
         1 002763   000034 236000 2                  LDQ     28
         1 002764   200112 756100                    STQ     VSIN+4,,AUTO
         1 002765   200112 630500                    EPPR0   VSIN+4,,AUTO
         1 002766   000020 631400 xsym               EPPR1   B_VECTNIL+16
PL6.E3A0      #001=KIA$UCIOND File=KIA$APPLC.:E05TSI                             WED 07/30/97 00:30 Page:149
         1 002767   000000 701000 xent               TSX1    SSR$REG
         1 002770   003211 702000 1                  TSX2    REGALT

      999     9582             %LOCK (G=LDCT$->NK$LDCT.LOCK);

   9583  1 002771   200102 236100                    LDQ     LDCT$,,AUTO
         1 002772   000020 036003                    ADLQ    16,DU
         1 002773   200112 756100                    STQ     VSIN+4,,AUTO
         1 002774   200112 630500                    EPPR0   VSIN+4,,AUTO
         1 002775   000017 631400 xsym               EPPR1   B_VECTNIL+15
         1 002776   000000 701000 xent               TSX1    HFC$LOCK
         1 002777   000000 011000                    NOP     0

   9577  1 003000                       READ_IT      null
     1000     9585    2   READ_IT: ;
     1001     9586    2        K$RWPARM.IP$ = LDCT$->LDCT.IP$;

   9586  1 003000   200102 470500                    LDP0    LDCT$,,AUTO
         1 003001   000013 236100                    LDQ     11,,PR0
         1 003002   200024 756100                    STQ     K$RWPARM+10,,AUTO

     1002     9587    2        LDCT$->LDCT.IP$ = ADDR(NIL);

   9587  1 003003   000001 236000 xsym               LDQ     B_VECTNIL+1
         1 003004   000013 756100                    STQ     11,,PR0

     1003     9588    2        IF K$RWPARM.IP$ = ADDR(NIL)

   9588  1 003005   200024 236100                    LDQ     K$RWPARM+10,,AUTO
         1 003006   000001 116000 xsym               CMPQ    B_VECTNIL+1
         1 003007   003270 600000 1                  TZE     BRKCK

     1004     9589    2        THEN GOTO BRKCK;
     1005     9590    2        CALL KIQ$MAPFEP (LDCT$->NK$LDCT.IPFEI#);

   9590  1 003010   200102 236100                    LDQ     LDCT$,,AUTO
         1 003011   000007 036000 2                  ADLQ    7
PL6.E3A0      #001=KIA$UCIOND File=KIA$APPLC.:E05TSI                             WED 07/30/97 00:30 Page:150
         1 003012   200112 756100                    STQ     VSIN+4,,AUTO
         1 003013   200112 630500                    EPPR0   VSIN+4,,AUTO
         1 003014   000017 631400 xsym               EPPR1   B_VECTNIL+15
         1 003015   000000 701000 xent               TSX1    KIQ$MAPFEP
         1 003016   000000 011000                    NOP     0

     1006     9591    2        K$RWPARM.UHDR$ = PINCRC(K$RWPARM.IP$,K$RWPARM.IP$->KI$QMHDR.OFFSET);

   9591  1 003017   200024 470500                    LDP0    K$RWPARM+10,,AUTO
         1 003020   000001 236100                    LDQ     1,,PR0
         1 003021   000022 772000                    QRL     18
         1 003022   000020 736000                    QLS     16
         1 003023   200024 036100                    ADLQ    K$RWPARM+10,,AUTO
         1 003024   200026 756100                    STQ     K$RWPARM+12,,AUTO

     1007     9592    2        K$RWPARM.UHDRSZ = K$RWPARM.IP$->KI$QMHDR.SIZE;

   9592  1 003025   000001 236100                    LDQ     1,,PR0
         1 003026   777777 376007                    ANQ     -1,DL
         1 003027   200027 756100                    STQ     K$RWPARM+13,,AUTO

     1008     9593    2        K$RWPARM.TYC = '0'B;

   9593  1 003030   200020 450100                    STZ     K$RWPARM+6,,AUTO

     1009     9594    2        CALL KIA$MSG (K$RWPARM);

   9594  1 003031   200012 631500                    EPPR1   K$RWPARM,,AUTO
         1 003032   200112 451500                    STP1    VSIN+4,,AUTO
         1 003033   200112 630500                    EPPR0   VSIN+4,,AUTO
         1 003034   000017 631400 xsym               EPPR1   B_VECTNIL+15
         1 003035   000000 701000 xent               TSX1    KIA$MSG
         1 003036   000000 011000                    NOP     0

     1010     9595    2        IF MSGSZ<K$RWPARM.MSGSZ THEN K$RWPARM.TYC=K$RWPARM.TYC|%TYC_DI|%TYC_EGV;

   9595  1 003037   200100 236100                    LDQ     MSGSZ,,AUTO
PL6.E3A0      #001=KIA$UCIOND File=KIA$APPLC.:E05TSI                             WED 07/30/97 00:30 Page:151
         1 003040   003050 604000 1                  TMI     s:9596
         1 003041   200013 116100                    CMPQ    K$RWPARM+1,,AUTO
         1 003042   003050 605000 1                  TPL     s:9596

   9595  1 003043   200020 236100                    LDQ     K$RWPARM+6,,AUTO
         1 003044   000022 276000 0                  ORQ     XTRARD+7
         1 003045   000030 276000 xsym               ORQ     B_VECTNIL+24
         1 003046   200020 756100                    STQ     K$RWPARM+6,,AUTO
         1 003047   003052 710000 1                  TRA     s:9597

     1011     9596    2        ELSE MSGSZ=K$RWPARM.MSGSZ;

   9596  1 003050   200013 235100                    LDA     K$RWPARM+1,,AUTO
         1 003051   200100 755100                    STA     MSGSZ,,AUTO

     1012     9597    2        IF ENTFLG=%DCB#

   9597  1 003052   200075 235100                    LDA     ENTFLG,,AUTO
         1 003053   003060 601000 1                  TNZ     s:9599

     1013     9598    2        THEN DCB$->F$DCB.ARS=MSGSZ;

   9598  1 003054   200100 236100                    LDQ     MSGSZ,,AUTO
         1 003055   200101 470500                    LDP0    DCB$,,AUTO
         1 003056   000000 756100                    STQ     0,,PR0
         1 003057   003063 710000 1                  TRA     s:9600

     1014     9599    2        ELSE BUFLEN=MSGSZ;

   9599  1 003060   200010 470500                    LDP0    @BUFLEN,,AUTO
         1 003061   200100 236100                    LDQ     MSGSZ,,AUTO
         1 003062   000000 756100                    STQ     0,,PR0

     1015     9600    2        IF K$RWPARM.MSG$ ~= ADDR(NIL)

   9600  1 003063   200012 236100                    LDQ     K$RWPARM,,AUTO
         1 003064   000001 116000 xsym               CMPQ    B_VECTNIL+1
PL6.E3A0      #001=KIA$UCIOND File=KIA$APPLC.:E05TSI                             WED 07/30/97 00:30 Page:152
         1 003065   003077 600000 1                  TZE     s:9605

     1016     9601    3        THEN DO;

     1017     9602    3             CALL HFF$TRAPALT ALTRET (BADRBUF);

   9602  1 003066   000002 631400 xsym               EPPR1   B_VECTNIL+2
         1 003067   000000 701000 xent               TSX1    HFF$TRAPALT
         1 003070   003205 702000 1                  TSX2    BADRBUF

     1018     9603    3             MSG$->VCHRM = K$RWPARM.MSG$->VCHRM;

   9603  1 003071   200012 470500                    LDP0    K$RWPARM,,AUTO
         1 003072   200100 720100                    LXL0    MSGSZ,,AUTO
         1 003073   200076 471500                    LDP1    MSG$,,AUTO
         1 003074   040140 100540                    MLR     fill='040'O
         1 003075   000000 000010                    ADSC9   0,,PR0                   cn=0,n=*X0
         1 003076   100000 000010                    ADSC9   0,,PR1                   cn=0,n=*X0

     1019     9604    3           END;

     1020     9605    2        IF K$RWPARM.KEY$ ~= ADDR(NIL) AND FPT$ ~= ADDR(NIL) AND FPT$->FPT$READ_V.KEYR

   9605  1 003077   200056 236100                    LDQ     K$RWPARM+36,,AUTO
         1 003100   000001 116000 xsym               CMPQ    B_VECTNIL+1
         1 003101   003134 600000 1                  TZE     TRTNR
         1 003102   200072 236100                    LDQ     FPT$,,AUTO
         1 003103   000001 116000 xsym               CMPQ    B_VECTNIL+1
         1 003104   003134 600000 1                  TZE     TRTNR
         1 003105   200072 470500                    LDP0    FPT$,,AUTO
         1 003106   000000 236100                    LDQ     0,,PR0
         1 003107   100000 316007                    CANQ    32768,DL
         1 003110   003134 600000 1                  TZE     TRTNR

     1021     9606    3        THEN DO;

     1022     9607    3             CALL HFF$TRAPALT ALTRET (BADRBUF);
PL6.E3A0      #001=KIA$UCIOND File=KIA$APPLC.:E05TSI                             WED 07/30/97 00:30 Page:153

   9607  1 003111   000002 631400 xsym               EPPR1   B_VECTNIL+2
         1 003112   000000 701000 xent               TSX1    HFF$TRAPALT
         1 003113   003205 702000 1                  TSX2    BADRBUF

     1023     9608    3             CALL HFF$DSIZ(1,USRKEYSZ);

   9608  1 003114   200062 630500                    EPPR0   USRKEYSZ,,AUTO
         1 003115   200113 450500                    STP0    VSIN+5,,AUTO
         1 003116   000003 236000 2                  LDQ     3
         1 003117   200112 756100                    STQ     VSIN+4,,AUTO
         1 003120   200112 630500                    EPPR0   VSIN+4,,AUTO
         1 003121   000020 631400 xsym               EPPR1   B_VECTNIL+16
         1 003122   000000 701000 xent               TSX1    HFF$DSIZ
         1 003123   000000 011000                    NOP     0

     1024     9609    3             B$PS1$->USRKEY = K$RWPARM.KEY$->KEY;

   9609  1 003124   200060 720100                    LXL0    K$RWPARM+38,,AUTO
         1 003125   000777 360003                    ANX0    511,DU
         1 003126   200056 470500                    LDP0    K$RWPARM+36,,AUTO
         1 003127   000000 471400 xsym               LDP1    B$PS1$
         1 003130   200062 721100                    LXL1    USRKEYSZ,,AUTO
         1 003131   040140 100540                    MLR     fill='040'O
         1 003132   000000 000010                    ADSC9   0,,PR0                   cn=0,n=*X0
         1 003133   100000 000011                    ADSC9   0,,PR1                   cn=0,n=*X1

     1025     9610    3           END;

     1026     9611    2   TRTNR: ;

   9611  1 003134                       TRTNR        null
     1027     9612    2        B$JIT.ERR = K$RWPARM.MSG_ERRCODE;

   9612  1 003134   200051 236100                    LDQ     K$RWPARM+31,,AUTO
         1 003135   000000 470400 xsym               LDP0    B$JIT$
         1 003136   000012 756100                    STQ     10,,PR0
PL6.E3A0      #001=KIA$UCIOND File=KIA$APPLC.:E05TSI                             WED 07/30/97 00:30 Page:154

     1028     9613    2        K$RWPARM.LDCT$ = LDCT$;

   9613  1 003137   200102 236100                    LDQ     LDCT$,,AUTO
         1 003140   200030 756100                    STQ     K$RWPARM+14,,AUTO

     1029     9614    2        K$RWPARM.FUNCTION = %K_READDONE;

   9614  1 003141   000011 235007                    LDA     9,DL
         1 003142   200032 755100                    STA     K$RWPARM+16,,AUTO

     1030     9615    2        CALL KIS$SEND (K$RWPARM) ALTRET(BRKCK);

   9615  1 003143   200012 631500                    EPPR1   K$RWPARM,,AUTO
         1 003144   200112 451500                    STP1    VSIN+4,,AUTO
         1 003145   200112 630500                    EPPR0   VSIN+4,,AUTO
         1 003146   000017 631400 xsym               EPPR1   B_VECTNIL+15
         1 003147   000000 701000 xent               TSX1    KIS$SEND
         1 003150   003270 702000 1                  TSX2    BRKCK

     1031     9616    2        IF LDCT$->LDCT.LKFLG.WTMRK

   9616  1 003151   200102 470500                    LDP0    LDCT$,,AUTO
         1 003152   000011 236100                    LDQ     9,,PR0
         1 003153   020000 316003                    CANQ    8192,DU
         1 003154   003166 600000 1                  TZE     s:9621

     1032     9617    2        THEN
     1033     9618    2             CALL SSR$REG(%SS_CW,LDCT$);

   9618  1 003155   200102 631500                    EPPR1   LDCT$,,AUTO
         1 003156   200113 451500                    STP1    VSIN+5,,AUTO
         1 003157   000006 236000 2                  LDQ     6
         1 003160   200112 756100                    STQ     VSIN+4,,AUTO
         1 003161   200112 630500                    EPPR0   VSIN+4,,AUTO
         1 003162   000020 631400 xsym               EPPR1   B_VECTNIL+16
         1 003163   000000 701000 xent               TSX1    SSR$REG
PL6.E3A0      #001=KIA$UCIOND File=KIA$APPLC.:E05TSI                             WED 07/30/97 00:30 Page:155
         1 003164   000000 011000                    NOP     0
         1 003165   003175 710000 1                  TRA     s:9623

     1034     9619    2        ELSE
     1035     9620                  %UNLOCK (G=LDCT$->NK$LDCT.LOCK);

   9621  1 003166   200102 236100                    LDQ     LDCT$,,AUTO
         1 003167   000020 036003                    ADLQ    16,DU
         1 003170   200112 756100                    STQ     VSIN+4,,AUTO
         1 003171   200112 630500                    EPPR0   VSIN+4,,AUTO
         1 003172   000017 631400 xsym               EPPR1   B_VECTNIL+15
         1 003173   000000 701000 xent               TSX1    HFC$UNLOCK
         1 003174   000000 011000                    NOP     0

     1036     9623    2        IF K$RWPARM.TYC&%TYC_DISC

   9623  1 003175   200020 236100                    LDQ     K$RWPARM+6,,AUTO
         1 003176   000023 376000 0                  ANQ     XTRARD+8
         1 003177   003203 600000 1                  TZE     s:9628

     1037     9624    3        THEN DO;

     1038     9625    3             K$RWPARM.TYC='0'B;

   9625  1 003200   200020 450100                    STZ     K$RWPARM+6,,AUTO

     1039     9626    3             ALTRETURN;

   9626  1 003201   200110 221300                    LDX1  ! VSIN+2,,AUTO
         1 003202   000000 702211                    TSX2  ! 0,X1

     1040     9627    3           END;
     1041     9628    2        RETURN;

   9628  1 003203   200110 221300                    LDX1  ! VSIN+2,,AUTO
         1 003204   000001 702211                    TSX2  ! 1,X1

PL6.E3A0      #001=KIA$UCIOND File=KIA$APPLC.:E05TSI                             WED 07/30/97 00:30 Page:156
   9623  1 003205                       BADRBUF      null
     1042     9629
     1043     9630
     1044     9631    2   BADRBUF: ;
     1045     9632    2        K$RWPARM.TYC = %TYC_MTRAP | %TYC_EGV;

   9632  1 003205   000021 236000 0                  LDQ     XTRARD+6
         1 003206   000030 276000 xsym               ORQ     B_VECTNIL+24
         1 003207   200020 756100                    STQ     K$RWPARM+6,,AUTO

     1046     9633    2        GOTO TRTNR;

   9633  1 003210   003134 710000 1                  TRA     TRTNR

   9632  1 003211                       REGALT       null
     1047     9634    2   REGALT: ;
     1048     9635             %LOCK (G=LDCT$->NK$LDCT.LOCK);

   9636  1 003211   200102 236100                    LDQ     LDCT$,,AUTO
         1 003212   000020 036003                    ADLQ    16,DU
         1 003213   200112 756100                    STQ     VSIN+4,,AUTO
         1 003214   200112 630500                    EPPR0   VSIN+4,,AUTO
         1 003215   000017 631400 xsym               EPPR1   B_VECTNIL+15
         1 003216   000000 701000 xent               TSX1    HFC$LOCK
         1 003217   000000 011000                    NOP     0

     1049     9638    2        IF NOT LDCT$->LDCT.LKFLG.MRKPND    /* Pending marker from brk  */

   9638  1 003220   200102 470500                    LDP0    LDCT$,,AUTO
         1 003221   000011 234100                    SZN     9,,PR0
         1 003222   003264 604000 1                  TMI     s:9653

     1050     9639    3        THEN DO;

     1051     9640    3             IF LDCT$->LDCT.IP$ ~= ADDR(NIL)

   9640  1 003223   000013 236100                    LDQ     11,,PR0
PL6.E3A0      #001=KIA$UCIOND File=KIA$APPLC.:E05TSI                             WED 07/30/97 00:30 Page:157
         1 003224   000001 116000 xsym               CMPQ    B_VECTNIL+1
         1 003225   003000 601000 1                  TNZ     READ_IT

     1052     9641    3             THEN
     1053     9642    3                  GOTO READ_IT;
     1054     9643    3             K$RWPARM.MRKTYP = %KV_VDOMRKTYP_ENDACK;

   9643  1 003226   001000 236007                    LDQ     512,DL
         1 003227   200052 552110                    STBQ    K$RWPARM+32,'10'O,AUTO

     1055     9644    3             LDCT$->LDCT.LKFLG.WTMRK = '1'B;

   9644  1 003230   020000 236003                    LDQ     8192,DU
         1 003231   000011 256100                    ORSQ    9,,PR0

     1056     9645    3             K$RWPARM.MAXNMBRCR = 0;

   9645  1 003232   000000 220003                    LDX0    0,DU
         1 003233   200053 740100                    STX0    K$RWPARM+33,,AUTO

     1057     9646    3            CALL KIA$FCNOU (LDCT$->NK$LDCT,%KV_VDO_FNC_RQSDAT,K$RWPARM) ALTRET(BRKCK);

   9646  1 003234   200012 630500                    EPPR0   K$RWPARM,,AUTO
         1 003235   200114 450500                    STP0    VSIN+6,,AUTO
         1 003236   000014 236000 2                  LDQ     12
         1 003237   200102 235100                    LDA     LDCT$,,AUTO
         1 003240   200112 757100                    STAQ    VSIN+4,,AUTO
         1 003241   200112 630500                    EPPR0   VSIN+4,,AUTO
         1 003242   000021 631400 xsym               EPPR1   B_VECTNIL+17
         1 003243   000000 701000 xent               TSX1    KIA$FCNOU
         1 003244   003270 702000 1                  TSX2    BRKCK

     1058     9647        /* SS unlocks LDCT$->LDCT.LOCK */
     1059     9648    3             CALL SSR$REG (%SS_CW,LDCT$);

   9648  1 003245   200102 630500                    EPPR0   LDCT$,,AUTO
         1 003246   200113 450500                    STP0    VSIN+5,,AUTO
PL6.E3A0      #001=KIA$UCIOND File=KIA$APPLC.:E05TSI                             WED 07/30/97 00:30 Page:158
         1 003247   000006 236000 2                  LDQ     6
         1 003250   200112 756100                    STQ     VSIN+4,,AUTO
         1 003251   200112 630500                    EPPR0   VSIN+4,,AUTO
         1 003252   000020 631400 xsym               EPPR1   B_VECTNIL+16
         1 003253   000000 701000 xent               TSX1    SSR$REG
         1 003254   000000 011000                    NOP     0

     1060     9649                  %LOCK (G=LDCT$->LDCT.LOCK);

   9650  1 003255   200102 236100                    LDQ     LDCT$,,AUTO
         1 003256   000020 036003                    ADLQ    16,DU
         1 003257   200112 756100                    STQ     VSIN+4,,AUTO
         1 003260   200112 630500                    EPPR0   VSIN+4,,AUTO
         1 003261   000017 631400 xsym               EPPR1   B_VECTNIL+15
         1 003262   000000 701000 xent               TSX1    HFC$LOCK
         1 003263   000000 011000                    NOP     0

     1061     9652    3           END;

     1062     9653    2        IF LDCT$->LDCT.IP$ ~= ADDR(NIL)

   9653  1 003264   200102 470500                    LDP0    LDCT$,,AUTO
         1 003265   000013 236100                    LDQ     11,,PR0
         1 003266   000001 116000 xsym               CMPQ    B_VECTNIL+1
         1 003267   003000 601000 1                  TNZ     READ_IT

   9653  1 003270                       BRKCK        null
     1063     9654    2        THEN
     1064     9655    2             GOTO READ_IT;
     1065     9656    2   BRKCK: ;
     1066     9657             %UNLOCK (G=LDCT$->NK$LDCT.LOCK);

   9658  1 003270   200102 236100                    LDQ     LDCT$,,AUTO
         1 003271   000020 036003                    ADLQ    16,DU
         1 003272   200112 756100                    STQ     VSIN+4,,AUTO
         1 003273   200112 630500                    EPPR0   VSIN+4,,AUTO
         1 003274   000017 631400 xsym               EPPR1   B_VECTNIL+15
PL6.E3A0      #001=KIA$UCIOND File=KIA$APPLC.:E05TSI                             WED 07/30/97 00:30 Page:159
         1 003275   000000 701000 xent               TSX1    HFC$UNLOCK
         1 003276   000000 011000                    NOP     0

     1067     9660    2        IF K$RWPARM.ERR~=0

   9660  1 003277   200025 235100                    LDA     K$RWPARM+11,,AUTO
         1 003300   003303 600000 1                  TZE     s:9663

     1068     9661    2        THEN
     1069     9662    2             ALTRETURN;

   9662  1 003301   200110 221300                    LDX1  ! VSIN+2,,AUTO
         1 003302   000000 702211                    TSX2  ! 0,X1

     1070     9663    2        IF S$CU$->B$U.ASYNCH&%(~U_RESET)='0'B

   9663  1 003303   400000 220003                    LDX0    -131072,DU
         1 003304   000014 236000 0                  LDQ     XTRARD+1
         1 003305   003307 600000 1                  TZE     s:9663+4
         1 003306   000000 220003                    LDX0    0,DU
         1 003307   000000 470400 xsym               LDP0    S$CU$
         1 003310   000000 636010                    EAQ     0,X0
         1 003311   000001 376100                    ANQ     1,,PR0
         1 003312   003315 600000 1                  TZE     ALTRT

     1071     9664    2        THEN
     1072     9665    2             CALL SC_ICQLST;

   9665  1 003313   000000 713400 xsym               CLIMB   SC_ICQLST
         1 003314   000000 600000 xsid               climb   nvectors=         0

   9663  1 003315                       ALTRT        null
     1073     9666        /*S*  SCREECH_CODE:  KIA-S$ICQLDT
     1074     9667              TYPE:          Screech
     1075     9668              MESSAGE:       FEP input circular queue data inconsistancy
     1076     9669              REMARKS:       When timesharing input data is recieved into the
     1077     9670                             ICQ at interrupt time it is left there to be picked
PL6.E3A0      #001=KIA$UCIOND File=KIA$APPLC.:E05TSI                             WED 07/30/97 00:30 Page:160
     1078     9671                             up in this code while running on behalf of the user.
     1079     9672                             This screech occurs when the user is unREGed for
     1080     9673                             other than asynchronous (break,etc.) reasons and his
     1081     9674                             data cannot be found.  This suggests that the ICQ
     1082     9675                             has been clobbered in some way or the scheduler is
     1083     9676                             sick.  Experience suggests checking SCHED first.        */
     1084     9677    2   ALTRT: ;
     1085     9678    2        ALTRETURN;

   9678  1 003315   200110 221300                    LDX1  ! VSIN+2,,AUTO
         1 003316   000000 702211                    TSX2  ! 0,X1

KIA_TCTLMAX
 Sect OctLoc
   0     000   000000 000020                                                    ....

(unnamed)
 Sect OctLoc
   0     001   131101 420646                                                    YA..

BYD
 Sect OctLoc
   0     002   131101 420400                                                    YA..

BYDR
 Sect OctLoc
   0     003   131101 420430                                                    YA..

DELRECER
 Sect OctLoc
   0     004   131101 426460                                                    YA..

EOFERR
 Sect OctLoc
   0     005   131101 400060                                                    YA.0

KIA_NODAT
PL6.E3A0      #001=KIA$UCIOND File=KIA$APPLC.:E05TSI                             WED 07/30/97 00:30 Page:161
 Sect OctLoc
   0     006   131101 421000                                                    YA..

LDSC
 Sect OctLoc
   0     007   131101 400146                                                    YA.f

MTRAPERR
 Sect OctLoc
   0     010   131101 400137                                                    YA._

NOFPRG
 Sect OctLoc
   0     011   131101 420656                                                    YA..

(unnamed)
 Sect OctLoc
   0     012   131101 420636                                                    YA..

XTRARD
 Sect OctLoc
   0     013   131101 400230                                                    YA..

(unnamed)
 Sect OctLoc
   0     014   777777 777776   000200 000000   002000 000000   000000 100000    ..............@.
   0     020   000000 200000   000100 000000   000400 000000   000040 000000    .....@....... ..

(unnamed)
 Sect OctLoc
   2     000   000000 000037   000000 006000   000010 006000   000003 006000    ................
   2     004   000011 006000   000000 000047   000005 006000   000014 400000    .......'........
   2     010   000002 006000   000000 000023   000011 006000   000000 000026    ................
   2     014   000013 006000   000000 000000   000012 006000   000000 006000    ................
   2     020   000004 006000   000000 006000   000000 000042   000022 006000    ..........."....
   2     024   000000 000020   000024 006000   000000 000041   000026 006000    ...........!....
   2     030   000001 400000   000002 400000   000000 000027   000032 006000    ................
PL6.E3A0      #001=KIA$UCIOND File=KIA$APPLC.:E05TSI                             WED 07/30/97 00:30 Page:162
   2     034   000006 006000                                                    ....
     1086     9679    2   END READS;
     1087     9680
     1088     9681        %EJECT;
PL6.E3A0      #001=KIA$UCIOND File=KIA$APPLC.:E05TSI                             WED 07/30/97 00:30 Page:163
     1089     9682
     1090     9683    1   END KIA$UCIOND;
     1091     9684
     1092     9685
     1093     9686        %EOD;

PL6.E3A0      #001=KIA$UCIOND File=KIA$APPLC.:E05TSI                             WED 07/30/97 00:30 Page:164
--  Include file information  --

   UD_SEV_C.:E05TOU  is referenced.
   F_ERRORS_C.:E05TOU  is referenced.
   KV_ERRORS_C.:E05TOU  is referenced.
   KI_ERRORS_C.:E05TOU  is referenced.
   UM_CP6.:E05TOU  is referenced.
   K$RWPARM.:E05TOU  is referenced.
   K_DATA_R.:E05TOU  cannot be made into a system file and is referenced.
   K_SUBS_C.:E05TOU  is referenced.
   KI_SUBS_C.:E05TOU  is referenced.
   NK_SUBS.:E05TOU  is referenced.
   SS_SCHED_C.:E05TOU  is referenced.
   CP_6_SUBS.:E05TOU  is referenced.
   F_FPTCODE_C.:E05TOU  is referenced.
   HF_LOCK_C.:E05TOU  cannot be made into a system file and is referenced.
   KV_PRMID_E.:E05TOU  is referenced.
   KV_GLBCNS_E.:E05TOU  is referenced.
   KI$CP6V_C.:E05TOU  is referenced.
   KV$VDO.:E05TOU  is referenced.
   KI$MHDR.:E05TOU  is referenced.
   F$DCB.:E05TOU  cannot be made into a system file and is referenced.
   NK$LDCT.:E05TOU  is referenced.
   B$JIT_C.:E05TOU  is referenced.
   B$USER.:E05TOU  cannot be made into a system file and is referenced.
   KI_DATA_R.:E05TOU  cannot be made into a system file and is referenced.
   B$TABLES_C.:E05TOU  cannot be made into a system file and is referenced.
   NK_LDCT_R.:E05TOU  cannot be made into a system file and is referenced.
   F$CP6V_C.:E05TOU  is referenced.
   B_STRINGS_C.:E05TOU  is referenced.
   B$ROSEG.:E05TOU  cannot be made into a system file and is referenced.
      No diagnostics issued in procedure KIA$UCIOND.
PL6.E3A0      #001=KIA$UCIOND File=KIA$APPLC.:E05TSI                             WED 07/30/97 00:30 Page:165

 **** Variables and constants ****

  ****  Section 000 RoData KIA$UCIOND

  ****  Scalars and arrays  ****
OctLoc.c.b A Datatyp(siz) R M Lvl/name                 OctLoc.c.b A Datatyp(siz) R M Lvl/name

     2-0-0/w STRC        r     1 BYD                        3-0-0/w STRC        r     1 BYDR
     4-0-0/w STRC        r     1 DELRECER                   5-0-0/w STRC        r     1 EOFERR
     6-0-0/w STRC        r     1 KIA_NODAT                  0-0-0/w SBIN        r     1 KIA_TCTLMAX
     7-0-0/w STRC        r     1 LDSC                      10-0-0/w STRC        r     1 MTRAPERR
    11-0-0/w STRC        r     1 NOFPRG                    13-0-0/w STRC        r     1 XTRARD

  ****  Auto variables  ****

  ****  Scalars and arrays  ****
OctLoc.c.b A Datatyp(siz) R M Lvl/name                 OctLoc.c.b A Datatyp(siz) R M Lvl/name

     7-0-0/w PTR         r     1 @BUF$                     10-0-0/w PTR         r     1 @BUFLEN
     4-0-0/w PTR         r     1 @DVBYTE                    6-0-0/w PTR         r     1 @EVENT
     3-0-0/w PTR         r     1 @FCN                      11-0-0/w PTR         r     1 @NDLDCT
     5-0-0/w PTR         r     1 @VFC                      *0-0-0/w PTR         r     1 BUF$
    *0-0-0/w UBIN        r     1 BUFLEN                   101-0-0/w PTR         r     1 DCB$
    62-0-0/w UBIN        r     1 DCB_FCN_CNT0              *0-0-0/c BIT (9)     r     1 DVBYTE
    74-0-0/b BIT (9)     r     1 DVBYTE1                   75-0-0/w UBIN        r     1 ENTFLG
    *0-0-0/c CHAR        r     1 EOMCHAR                   *0-0-0/w UBIN        r     1 EVENT
    *0-0-0/w UBIN        r     1 FCN                       73-0-0/w UBIN        r     1 FCN1
    64-0-0/w STRC(144)   r     1 FEPIO                     62-0-0/w STRC        r     1 FEPSIZ
    72-0-0/w PTR         r     1 FPT$                      12-0-0/d STRC(1404)  r     1 K$RWPARM
   102-0-0/w PTR         r     1 LDCT$                     76-0-0/w PTR         r     1 MSG$
   100-0-0/w UBIN        r     1 MSGSZ                     *0-0-0/w UBIN        r     1 NDLDCT
    63-0-0/b STRC        r     1 NOWAIT                    *0-0-0/c UBIN(9)     r     1 PCODE
   104-0-0/w UBIN        r     1 PFB                      103-0-0/w UBIN        r     1 PFCN
    70-0-0/w STRC        r     1 PTW(0:1)                 105-0-0/w PTR         r     1 RPTR$
    77-0-0/w BIT         r     1 TDVB                      *0-0-0/c UBIN(9)     r     1 TFCN
    *0-0-0/w BIT         r     1 TYC                       62-0-0/w UBIN        r     1 USRKEYSZ
    *0-0-0/c CHAR        r     1 VFC                      106-0-0/c STRC        r     1 VSIN
PL6.E3A0      #001=KIA$UCIOND File=KIA$APPLC.:E05TSI                             WED 07/30/97 00:30 Page:166

  ****  SYMREF variables  ****

  ****  Scalars and arrays  ****
OctLoc.c.b A Datatyp(siz) R M Lvl/name                 OctLoc.c.b A Datatyp(siz) R M Lvl/name

     0-0-0/w PTR         r     1 B$CGCTXT$                  0-0-0/w PTR         r     1 B$JIT$
     0-0-0/w PTR         r     1 B$M$UC$                    0-0-0/w PTR         r     1 B$PS1$
     0-0-0/w PTR         r     1 B$ROSEG$                   0-0-0/w PTR         r     1 B$XL_UPPER_UR$
     0-0-0/w PTR         r     1 B$XL_UR$                   0-0-0/w PTR         r     1 KI_FEI$$
     0-0-0/d STRC(1404)  r     1 K_RWPARM_CON               0-0-0/w PTR         r     1 N$DCT$$
     0-0-0/b BIT (72)    r     1 NI_MFGATE                  0-0-0/w PTR         r     1 S$CU$

  ****  BASED and DCB variables  ****

  ****  Scalars and arrays  ****
OctLoc.c.b A Datatyp(siz) R M Lvl/name                 OctLoc.c.b A Datatyp(siz) R M Lvl/name

     0-0-0/d STRC(8856)  r     1 B$JIT                      0-0-0/d STRC(3024)  r     1 B$ROSEG
     0-0-0/d STRC(576)   r     1 B$U                        0-0-0/b BIT         r     1 DLTSTR
     0-0-0/d ASTR(3528)  r     1 F$DCB                      0-0-0/d STRC(216)   r     1 FPT$READ_V
     0-0-0/d STRC(144)   r     1 FPT$WRITE_V                0-0-0/c ACHR        r     1 KEY
     0-0-0/w STRC(144)   r     1 KI$QMHDR                   0-0-0/d STRC(1404)  r     1 KI$RWPARM
     0-0-0/b BIT         r     1 NEWSSN                     0-0-0/d STRC(864)   r     1 NK$LDCT
     0-0-0/w PTR         r     1 NK$LDCT$(0:0)
     0-0-0/w UBIN        r     1 STR                        0-0-0/w UBIN        r     1 STRID
     0-0-0/c ACHR        r     1 USRKEY                     0-0-0/c ACHR        r     1 VCHRM
     0-0-0/d STRC(288)   r     1 VLP$WINDOW_V               0-0-0/w STRC(288)   r     1 WINDOW


   Procedure KIA$UCIOND requires 1743 words for executable code.
   Procedure KIA$UCIOND requires 80 words of local(AUTO) storage.
PL6.E3A0      #001=KIA$UCIOND File=KIA$APPLC.:E05TSI                             WED 07/30/97 00:30 Page:167
          *** CROSS REFERENCE LISTING ***
**     DENOTES     IDENTIFIER DEFINITION
<<                 IDENTIFIER'S VALUE SET
>>                 IDENTIFIER'S VALUE USED
<>                 IDENTIFIER SET AND/OR USED
--                 IDENTIFIER REFERENCED
PL6.E3A0      #001=KIA$UCIOND File=KIA$APPLC.:E05TSI                             WED 07/30/97 00:30 Page:168
          MINI XREF LISTING

B$CGCTXT$
      7761**DCL      9161>>ASSIGN   9172>>ASSIGN
B$DO.ECCINFO
       760**DCL       761--REDEF
B$JIT.CPFLAGS1
      1238**DCL      9012>>IF       9257>>IF       9274>>IF
B$JIT.CPFLAGS1.SLEAZE
      1243**DCL      1243--REDEF
B$JIT.DCB$
      1310**DCL      8780>>ASSIGN
B$JIT.DCBNO
      1230**DCL      9179>>ASSIGN
B$JIT.ERR
      1149**DCL      8816<<ASSIGN   8832<<ASSIGN   8906<<ASSIGN   8953<<ASSIGN   8993<<ASSIGN   8994>>IF
      9018<<ASSIGN   9027<<ASSIGN   9061<<ASSIGN   9187<<ASSIGN   9347>>IF       9362<<ASSIGN   9385>>IF
      9394<<ASSIGN   9414<<ASSIGN   9612<<ASSIGN
B$JIT.ERR.MID
      1150**DCL      1150--REDEF
B$JIT.INTER
      1406**DCL      9263<<ASSIGN   9263>>ASSIGN
B$JIT.JUNK
      1339**DCL      8833<<ASSIGN   8833>>ASSIGN   9419<<ASSIGN   9419>>ASSIGN
B$JIT.ORIGINATOR_PORT.FROM_CR
      1410**DCL      1410--REDEF    1411--REDEF
B$JIT.TSLINE
      1408**DCL      1409--REDEF
B$JIT$
      7762**DCL      1144--IMP-PTR  8780>>ASSIGN   8816>>ASSIGN   8832>>ASSIGN   8833>>ASSIGN   8833>>ASSIGN
      8906>>ASSIGN   8953>>ASSIGN   8993>>ASSIGN   8994>>IF       9012>>IF       9018>>ASSIGN   9027>>ASSIGN
      9061>>ASSIGN   9179>>ASSIGN   9187>>ASSIGN   9257>>IF       9263>>ASSIGN   9263>>ASSIGN   9274>>IF
      9347>>IF       9362>>ASSIGN   9385>>IF       9394>>ASSIGN   9414>>ASSIGN   9419>>ASSIGN   9419>>ASSIGN
      9612>>ASSIGN
PL6.E3A0      #001=KIA$UCIOND File=KIA$APPLC.:E05TSI                             WED 07/30/97 00:30 Page:169
B$M$UC$
      7765**DCL      9012>>IF       9257>>IF       9274>>IF       9429>>ASSIGN   9430>>ASSIGN   9462>>ASSIGN
      9504>>ASSIGN   9532>>ASSIGN
B$PS1$
      7763**DCL      8917>>ASSIGN   9070>>ASSIGN   9160<>CALL     9609>>ASSIGN
B$ROSEG.STREAM_VALID
        83**DCL      8998<<ASSIGN   9000<<ASSIGN   9440<<ASSIGN
B$ROSEG$
      7764**DCL      8998>>ASSIGN   9000>>ASSIGN   9440>>ASSIGN
B$U.ASYNCH
       697**DCL      8826>>IF       8944>>IF       9417>>IF       9663>>IF
B$U.CMF
       722**DCL      9240<<ASSIGN   9240>>ASSIGN
B$U.FLG
       626**DCL      8826>>IF       8944>>IF
B$U.MF
       715**DCL      9239<<ASSIGN   9239>>ASSIGN
B$U.MISC
       739**DCL       740--REDEF
B$USER.MISC
       815**DCL       816--REDEF
B$XL_UPPER_UR$
       580**DCL       581--IMP-PTR  8926>>ASSIGN
B$XL_UR$
       576**DCL       577--IMP-PTR  8922>>ASSIGN
BADRBUF IN PROCEDURE READS
      9623**LABEL    9602--CALLALT  9607--CALLALT
BKOUT
      9394**LABEL    9378--GOTO
BRKCK IN PROCEDURE READS
      9653**LABEL    9572--CALLALT  9574--CALLALT  9589--GOTO     9615--CALLALT  9646--CALLALT
BRKOUT
      9362**LABEL    8842--CALLALT  8897--CALLALT  8948--GOTO     8957--GOTO     8969--GOTO     8970--CALLALT
      8987--GOTO     9052--CALLALT  9091--CALLALT  9220--CALLALT  9308--CALLALT  9437--CALLALT  9452--CALLALT
      9467--CALLALT  9511--CALLALT  9536--CALLALT
BRKOUTR
PL6.E3A0      #001=KIA$UCIOND File=KIA$APPLC.:E05TSI                             WED 07/30/97 00:30 Page:170
      9347**LABEL    9262--CALLALT  9283--CALLALT
BUF$
      6894**DCL        17--PROC     8753>>ASSIGN   8773--ENTRY    8774--IF       8777>>ASSIGN   9289--IF
      9291>>ASSIGN
BUFLEN
      6895**DCL        17--PROC     8752>>ASSIGN   9599<<ASSIGN
BYD
      8281**DCL      8832>>ASSIGN   9394>>ASSIGN
BYDR
      8329**DCL      9362>>ASSIGN
CANCEL_READ
      9081**LABEL    9207--GOTO
CMN
      8788**LABEL    8757--GOTO     9123--GOTO
CSEND
      9308**LABEL    9193--GOTO
DCB$
      7758**DCL      8749<<ASSIGN   8780<<ASSIGN   8781>>IF       8783>>ASSIGN   8785>>ASSIGN   8786>>ASSIGN
      8787>>ASSIGN   8788>>ASSIGN   8860>>IF       8862>>ASSIGN   8882>>ASSIGN   9003>>ASSIGN   9012>>IF
      9036>>IF       9036>>IF       9080>>IF       9081>>IF       9081>>IF       9129>>IF       9129>>IF
      9171>>CALL     9205>>IF       9212>>ASSIGN   9214>>ASSIGN   9215>>IF       9215>>IF       9246>>ASSIGN
      9248>>ASSIGN   9249>>ASSIGN   9257>>IF       9265>>ASSIGN   9266>>ASSIGN   9267>>ASSIGN   9268>>ASSIGN
      9274>>IF       9338>>IF       9340>>ASSIGN   9343>>ASSIGN   9343>>ASSIGN   9598>>ASSIGN
DCB_FCN_CNT0
      6029**DCL      9214<<ASSIGN   9215>>IF       9215>>IF       9229<<ASSIGN   9229>>ASSIGN   9245>>IF
      9247>>IF
DCLSTR
      9458**LABEL    9476--GOTO
DELRECER
      8377**DCL      8881>>ASSIGN
DLTSTR
      7776**DCL      9427>>ASSIGN
DVBYTE
      6883**DCL        17--PROC     6884--REDEF    8761--ENTRY    8773--ENTRY    8854>>ASSIGN   9015<>CALL
      9271<<ASSIGN   9422--ENTRY    9427--ASSIGN   9455--ENTRY    9461--ASSIGN   9471--ENTRY    9479--ENTRY
      9485--IF       9488--IF       9491--IF       9494--IF       9494--IF       9495--ASSIGN   9496--ASSIGN
PL6.E3A0      #001=KIA$UCIOND File=KIA$APPLC.:E05TSI                             WED 07/30/97 00:30 Page:171
      9497--ASSIGN   9498--ASSIGN   9499--IF       9500--ASSIGN   9514--ENTRY    9517--CALL     9517--CALL
      9521--CALL     9521--CALL     9523--CALL     9523--CALL     9525--CALL     9525--CALL     9529--ASSIGN
DVBYTE1
      6885**DCL      8854<<ASSIGN   8855>>ASSIGN   8883<<ASSIGN   8883>>ASSIGN   8932>>IF       8937>>ASSIGN
      9073>>ASSIGN
ENTFLG
      6897**DCL      8748<<ASSIGN   8779<<ASSIGN   8826>>IF       8905>>IF       8944>>IF       9001>>IF
      9012>>IF       9036>>IF       9060>>IF       9257>>IF       9264>>IF       9274>>IF       9332>>IF
      9424<<ASSIGN   9445<<ASSIGN   9457<<ASSIGN   9473<<ASSIGN   9481<<ASSIGN   9516<<ASSIGN   9577>>IF
      9597>>IF
EOFERR
      8425**DCL      8888>>ASSIGN
EOMCHAR
      6887**DCL      9272<<ASSIGN
EVENT
      6892**DCL        17--PROC     6893--REDEF    8761--ENTRY    8773--ENTRY    9178>>ASSIGN   9341>>IF
      9345<>CALL
F$DCB.ACTPOS
      1543**DCL      1543--REDEF    9268<<ASSIGN
F$DCB.ARS
      1518**DCL      1518--REDEF    9598<<ASSIGN
F$DCB.ATTR
      1536**DCL      1537--REDEF
F$DCB.BORROW
      1551**DCL      1551--REDEF    1551--REDEF    1551--REDEF
F$DCB.CFU$
      1552**DCL      8783>>ASSIGN
F$DCB.DCBNAME.L
      1565**DCL      1565--IMP-SIZ
F$DCB.DVBYTE
      1521**DCL      9265<<ASSIGN
F$DCB.EOMCHAR
      1522**DCL      1522--REDEF    9266<<ASSIGN
F$DCB.FCN.CNT
      1555**DCL      9081>>IF       9214>>ASSIGN
F$DCB.FEPIO
PL6.E3A0      #001=KIA$UCIOND File=KIA$APPLC.:E05TSI                             WED 07/30/97 00:30 Page:172
      1561**DCL      9248<<ASSIGN
F$DCB.FEPIO.BPP
      1562**DCL      9215>>IF
F$DCB.FEPIO.BUFX
      1562**DCL      9215>>IF
F$DCB.FEPIO2
      1564**DCL      9246<<ASSIGN
F$DCB.FEPIO3
      1564**DCL      9249<<ASSIGN
F$DCB.FEPSIZ
      1560**DCL      9205>>IF       9212<<ASSIGN
F$DCB.FLDID
      1546**DCL      1546--REDEF    9003<<ASSIGN   9267<<ASSIGN
F$DCB.FORM$
      1540**DCL      1540--REDEF
F$DCB.FSECT
      1556**DCL      1556--REDEF
F$DCB.FSN
      1533**DCL      1533--REDEF    1533--REDEF    1534--REDEF
F$DCB.HEADER$
      1539**DCL      1539--REDEF
F$DCB.IASN
      1559**DCL      8781>>IF
F$DCB.IXTNSIZE
      1537**DCL      1537--REDEF
F$DCB.KEYL
      1535**DCL      9494>>IF       9494>>IF       9495<<ASSIGN   9496>>ASSIGN
F$DCB.KEYTYPE
      1542**DCL      8862>>ASSIGN   8882>>ASSIGN   9499>>IF       9500<<ASSIGN
F$DCB.LASTSTA$
      1527**DCL      1527--REDEF
F$DCB.LDCTX
      1540**DCL      8783>>ASSIGN   8785>>ASSIGN   9429>>ASSIGN   9462>>ASSIGN   9504>>ASSIGN   9532>>ASSIGN
F$DCB.LVL
      1552**DCL      1552--REDEF
F$DCB.NAME.C
PL6.E3A0      #001=KIA$UCIOND File=KIA$APPLC.:E05TSI                             WED 07/30/97 00:30 Page:173
      1527**DCL      1527--REDEF
F$DCB.NOEOF
      1548**DCL      1548--REDEF
F$DCB.NRECS
      1538**DCL      1538--REDEF    9498>>ASSIGN
F$DCB.NRECX
      1557**DCL      1557--REDEF
F$DCB.OHDR
      1549**DCL      1549--REDEF
F$DCB.ORG
      1532**DCL      1532--REDEF    8860>>IF       9036>>IF       9036>>IF       9485>>IF       9488>>IF
      9491>>IF
F$DCB.PRECNO
      1555**DCL      1555--REDEF
F$DCB.RCSZ
      1560**DCL      1560--REDEF
F$DCB.RES
      1528**DCL      1528--REDEF
F$DCB.SETX
      1540**DCL      1540--REDEF
F$DCB.SPARE
      1535**DCL      9497>>ASSIGN
F$DCB.STR
      1556**DCL      8788>>ASSIGN   9430<<ASSIGN
F$DCB.TAB$
      1539**DCL      1540--REDEF
F$DCB.TDA
      1554**DCL      1554--REDEF
F$DCB.TYC
      1518**DCL      9340<<ASSIGN   9343<<ASSIGN   9343>>ASSIGN
F$DCB.UB$
      1556**DCL      8787>>ASSIGN   9171<>CALL
F$DCB.UBYTES
      1556**DCL      8786>>ASSIGN
F$DCB.WAIT
      1550**DCL      9081>>IF       9129>>IF       9338>>IF
PL6.E3A0      #001=KIA$UCIOND File=KIA$APPLC.:E05TSI                             WED 07/30/97 00:30 Page:174
F$DCB.WSN
      1529**DCL      1529--REDEF
FCN
      6881**DCL        17--PROC     8761--ENTRY    8773--ENTRY    8877>>ASSIGN   9422--ENTRY    9426--ASSIGN
      9443--ENTRY    9447--ASSIGN   9455--ENTRY    9460--ASSIGN   9471--ENTRY    9479--ENTRY    9483--ASSIGN
      9514--ENTRY    9528--ASSIGN   9570>>IF
FCN1
      6882**DCL      8877<<ASSIGN   8878>>DOCASE   8920>>IF       8924>>IF       9012>>IF
FEPIO
      6036**DCL      9246>>ASSIGN   9248>>ASSIGN   9249>>ASSIGN
FEPIO.BPP
      6040**DCL      9173<<ASSIGN   9174<<ASSIGN   9215>>IF
FEPIO.BUFX
      6039**DCL      9172<<ASSIGN   9215>>IF
FEPIO.EVENT
      6037**DCL      9178<<ASSIGN
FEPIO.KEYX
      6038**DCL      9161<<ASSIGN
FEPIO.KPP
      6041**DCL      9162<<ASSIGN   9163<<ASSIGN
FEPSIZ
      6026**DCL      9205>>IF       9212>>ASSIGN
FEPSIZ.BUF
      6027**DCL      9170<<ASSIGN
FMO$GETDOMAIN
      7790**DCL-ENT  9181--CALL
FPT$
      6044**DCL      8750<<ASSIGN   8775<<ASSIGN   8777<<ASSIGN   8858>>IF       8860>>IF       8864>>ASSIGN
      8911>>IF       9032>>IF       9034>>IF       9036>>IF       9045>>ASSIGN   9047>>ASSIGN   9064>>IF
      9064>>IF       9152>>IF       9152>>IF       9605>>IF       9605>>IF
FPT$READ_V
      6011**DCL      9034--IF
FPT$READ_V.DVBYTE.REREAD
      6013**DCL      6014--REDEF
FPT$READ_V.INDX
      6013**DCL      6013--REDEF
PL6.E3A0      #001=KIA$UCIOND File=KIA$APPLC.:E05TSI                             WED 07/30/97 00:30 Page:175
FPT$READ_V.KEYR
      6011**DCL      9152>>IF       9605>>IF
FPT$READ_V.KEYS
      6011**DCL      9064>>IF
FPT$READ_V.REREADPOS
      6015**DCL      9047>>ASSIGN
FPT$READ_V.SINPUTSIZE
      6015**DCL      9036>>IF       9045>>ASSIGN
FPT$WRITE_V.DVBYTE.VFC
      6020**DCL      6020--REDEF
FPT$WRITE_V.KEYTYPE
      6019**DCL      8860>>IF       8864>>ASSIGN
FSN$CONV_STR
      7792**DCL-ENT  9517--CALL
HFC$LOCK
      3689**DCL-ENT  8811--CALL     8895--CALL     8930--CALL     8962--CALL     8980--CALL     9050--CALL
      9076--CALL     9100--CALL     9200--CALL     9237--CALL     9306--CALL     9432--CALL     9449--CALL
      9464--CALL     9506--CALL     9534--CALL     9568--CALL     9583--CALL     9636--CALL     9650--CALL
HFC$UNLOCK
      3689**DCL-ENT  8822--CALL     8830--CALL     8847--CALL     8899--CALL     9010--CALL     9054--CALL
      9121--CALL     9126--CALL     9242--CALL     9251--CALL     9383--CALL     9538--CALL     9621--CALL
      9658--CALL
HFF$DSIZ
      7801**DCL-ENT  8914--CALL     9031--CALL     9067--CALL     9156--CALL     9608--CALL
HFF$NILERASE
      7802**DCL-ENT  8913--CALL     9066--CALL     9154--CALL
HFF$TRAPALT
      7803**DCL-ENT  9602--CALL     9607--CALL
HFF$WRITE1
      7804**DCL-ENT  9158--CALL     9185--CALL
K$RWPARM
      5472**DCL      8839<<ASSIGN   8842<>CALL     8853<<ASSIGN   8897<>CALL     8941<>CALL     8992<>CALL
      9006<>CALL     9052<>CALL     9088<<ASSIGN   9091<>CALL     9108<<ASSIGN   9118<>CALL     9220<>CALL
      9225<<ASSIGN   9228<>CALL     9291<<ASSIGN   9293<<ASSIGN   9308<>CALL     9425<<ASSIGN   9437<>CALL
      9446<<ASSIGN   9452<>CALL     9458<<ASSIGN   9467<>CALL     9474<<ASSIGN   9482<<ASSIGN   9511<>CALL
      9527<<ASSIGN   9536<>CALL     9572<>CALL     9574<>CALL     9594<>CALL     9615<>CALL     9646<>CALL
PL6.E3A0      #001=KIA$UCIOND File=KIA$APPLC.:E05TSI                             WED 07/30/97 00:30 Page:176
K$RWPARM.ACTPOS
      5758**DCL      9268>>ASSIGN
K$RWPARM.BLKREC
      5498**DCL      5523--REDEF
K$RWPARM.BLKREC.BLKU#
      5499**DCL      5501--REDEF
K$RWPARM.BLKREC.RECU#
      5511**DCL      5513--REDEF
K$RWPARM.CVTDAT
      5564**DCL      8884<<ASSIGN
K$RWPARM.DVE.DVBYTE
      5530**DCL      8855<<ASSIGN   8937<<ASSIGN   9265>>ASSIGN   9271>>ASSIGN   9300<<ASSIGN
K$RWPARM.DVE.DVBYTE.NODAT
      5543**DCL      8951>>IF
K$RWPARM.DVE.DVBYTE.RRR
      5542**DCL      9297>>IF
K$RWPARM.DVE.DVBYTE.TRANS
      5541**DCL      9257>>IF       9274>>IF
K$RWPARM.DVE.DVBYTE.VFC
      5538**DCL      5539--REDEF
K$RWPARM.DVE.EOMCHAR
      5546**DCL      5550--REDEF    9266>>ASSIGN   9272>>ASSIGN
K$RWPARM.DVE.VFC
      5550**DCL      8856<<ASSIGN   9295<<ASSIGN
K$RWPARM.ERR
      5610**DCL      5615--REDEF    8949>>IF       8967>>IF       9357>>IF       9389>>IF       9660>>IF
K$RWPARM.FC
      5574**DCL      5575--REDEF
K$RWPARM.FLDID
      5756**DCL      5757--REDEF    9003>>ASSIGN   9267>>ASSIGN
K$RWPARM.FPT$
      5637**DCL      5644--REDEF
K$RWPARM.FUNCTION
      5651**DCL      9005<<ASSIGN   9614<<ASSIGN
K$RWPARM.IP$
      5602**DCL      8982<<ASSIGN   8985>>IF       8990>>ASSIGN   8990>>ASSIGN   8991>>ASSIGN   9586<<ASSIGN
PL6.E3A0      #001=KIA$UCIOND File=KIA$APPLC.:E05TSI                             WED 07/30/97 00:30 Page:177
      9588>>IF       9591>>ASSIGN   9591>>ASSIGN   9592>>ASSIGN
K$RWPARM.KEY$
      5754**DCL      8917<<ASSIGN   9070<<ASSIGN   9605>>IF       9609>>ASSIGN
K$RWPARM.KEYSZ
      5765**DCL      6024--IMP-SIZ  8916<<ASSIGN   9069<<ASSIGN   9496<<ASSIGN   9609>>ASSIGN
K$RWPARM.KEYTYPE
      5763**DCL      5764--REDEF    8862<<ASSIGN   8864<<ASSIGN   8882<<ASSIGN   9159>>ASSIGN
K$RWPARM.LDCT$
      5633**DCL      9004<<ASSIGN   9613<<ASSIGN
K$RWPARM.MARKER
      5523**DCL      8841<<ASSIGN
K$RWPARM.MAXNMBBYT
      5751**DCL      8872<<ASSIGN
K$RWPARM.MAXNMBRCR
      5750**DCL      8874<<ASSIGN   9645<<ASSIGN
K$RWPARM.MAXRCRBYTSIZ
      5752**DCL      8873<<ASSIGN
K$RWPARM.MRKTYP
      5748**DCL      8840<<ASSIGN   8934<<ASSIGN   8974>>IF       9090<<ASSIGN   9299<<ASSIGN   9436<<ASSIGN
      9451<<ASSIGN   9466<<ASSIGN   9510<<ASSIGN   9643<<ASSIGN
K$RWPARM.MSG$
      5473**DCL      5479--REDEF    8892<<ASSIGN   8909<<ASSIGN   9044<<ASSIGN   9057<<ASSIGN   9529<<ASSIGN
      9600>>IF       9603>>ASSIGN
K$RWPARM.MSGID
      5585**DCL      5590--REDEF
K$RWPARM.MSGIDXT
      5598**DCL      5602--REDEF
K$RWPARM.MSGSZ
      5480**DCL      8893<<ASSIGN   8910<<ASSIGN   9045<<ASSIGN   9056<<ASSIGN   9530<<ASSIGN   9595>>IF
      9596>>ASSIGN
K$RWPARM.MSG_ERRCODE
      5733**DCL      8881<<ASSIGN   8888<<ASSIGN   8993>>ASSIGN   9018>>ASSIGN   9109<<ASSIGN   9226<<ASSIGN
      9612>>ASSIGN
K$RWPARM.NRECS
      5764**DCL      9498<<ASSIGN
K$RWPARM.ORG
PL6.E3A0      #001=KIA$UCIOND File=KIA$APPLC.:E05TSI                             WED 07/30/97 00:30 Page:178
      5734**DCL      5735--REDEF    9487<<ASSIGN   9490<<ASSIGN   9493<<ASSIGN   9503<<ASSIGN   9508>>IF
K$RWPARM.PRMID
      5757**DCL      9043<<ASSIGN   9282<<ASSIGN   9531<<ASSIGN
K$RWPARM.SPARE
      5747**DCL      9497<<ASSIGN
K$RWPARM.STR
      5749**DCL      8857<<ASSIGN   8976>>ASSIGN   9089<<ASSIGN   9180>>ASSIGN   9294<<ASSIGN   9426<<ASSIGN
      9440>>ASSIGN   9460<<ASSIGN   9468<<ASSIGN   9483<<ASSIGN   9528<<ASSIGN
K$RWPARM.STRID
      5735**DCL      9461<<ASSIGN   9468>>ASSIGN
K$RWPARM.THDRSZ
      5678**DCL      5682--REDEF
K$RWPARM.TRANS$
      5697**DCL      8922<<ASSIGN   8926<<ASSIGN   8928<<ASSIGN
K$RWPARM.TYC
      5494**DCL      8867<<ASSIGN   8870<<ASSIGN   9016>>IF       9117<<ASSIGN   9192<<ASSIGN   9227<<ASSIGN
      9277<>CALL     9296<<ASSIGN   9336>>ASSIGN   9340>>ASSIGN   9343>>ASSIGN   9345<>CALL     9359<<ASSIGN
      9391<<ASSIGN   9593<<ASSIGN   9595<<ASSIGN   9595>>ASSIGN   9623>>IF       9625<<ASSIGN   9632<<ASSIGN
K$RWPARM.UHDR$
      5623**DCL      6078--IMP-PTR  6119--IMP-PTR  6164--IMP-PTR  6212--IMP-PTR  6457--IMP-PTR  8990<<ASSIGN
      9591<<ASSIGN
K$RWPARM.UHDRSZ
      5628**DCL      8991<<ASSIGN   9592<<ASSIGN
K$RWPARM.V$
      5753**DCL      9041<<ASSIGN
K$RWPARM.VDOFLGS
      5736**DCL      5747--REDEF
K$RWPARM.VDOFLGS.DLTSTR
      5740**DCL      9427<<ASSIGN   9438>>IF
K$RWPARM.VDOFLGS.INCNMBRCR
      5745**DCL      9208<<ASSIGN
K$RWPARM.VDOFLGS.NEWSSN
      5741**DCL      8996>>IF       9428<<ASSIGN   9434>>IF
K$RWPARM.VDOFLGS.REDSTR
      5742**DCL      9475<<ASSIGN
K$RWPARM.VDOFLGS.SEND
PL6.E3A0      #001=KIA$UCIOND File=KIA$APPLC.:E05TSI                             WED 07/30/97 00:30 Page:179
      5744**DCL      9303>>ASSIGN
K$RWPARM.VDOFLGS.WAIT
      5743**DCL      9261<<ASSIGN
K$RWPARM.VSZ
      5755**DCL      9042<<ASSIGN
KEY
      6024**DCL      9609>>ASSIGN
KI$QMHDR.FPTSZ
      6258**DCL      6259--REDEF
KI$QMHDR.MSGSZ
      6264**DCL      6265--REDEF
KI$QMHDR.OFFSET
      6252**DCL      8990>>ASSIGN   9591>>ASSIGN
KI$QMHDR.SIZE
      6253**DCL      8991>>ASSIGN   9592>>ASSIGN
KI$QMHDR.UID
      6254**DCL      6255--REDEF
KI$RWPARM
      6583**DCL      9291>>ASSIGN
KI$RWPARM.BLKREC
      6609**DCL      6634--REDEF
KI$RWPARM.BLKREC.BLKU#
      6610**DCL      6612--REDEF
KI$RWPARM.BLKREC.RECU#
      6622**DCL      6624--REDEF
KI$RWPARM.DVE.DVBYTE.VFC
      6649**DCL      6650--REDEF
KI$RWPARM.DVE.EOMCHAR
      6657**DCL      6661--REDEF
KI$RWPARM.ERR
      6721**DCL      6726--REDEF
KI$RWPARM.FC
      6685**DCL      6686--REDEF
KI$RWPARM.FLDID
      6867**DCL      6868--REDEF
KI$RWPARM.FPT$
PL6.E3A0      #001=KIA$UCIOND File=KIA$APPLC.:E05TSI                             WED 07/30/97 00:30 Page:180
      6748**DCL      6755--REDEF
KI$RWPARM.KEYTYPE
      6874**DCL      6875--REDEF
KI$RWPARM.MSG$
      6584**DCL      6590--REDEF
KI$RWPARM.MSGID
      6696**DCL      6701--REDEF
KI$RWPARM.MSGIDXT
      6709**DCL      6713--REDEF
KI$RWPARM.ORG
      6845**DCL      6846--REDEF
KI$RWPARM.THDRSZ
      6789**DCL      6793--REDEF
KI$RWPARM.VDOFLGS
      6847**DCL      6858--REDEF
KIA$9TO8
      7794**DCL-ENT  9521--CALL     9523--CALL     9525--CALL
KIA$COMP
      7791**DCL-ENT  9118--CALL     9228--CALL
KIA$FCNOU
      7795**DCL-ENT  8842--CALL     8897--CALL     9052--CALL     9091--CALL     9220--CALL     9308--CALL
      9437--CALL     9452--CALL     9467--CALL     9511--CALL     9536--CALL     9572--CALL     9574--CALL
      9646--CALL
KIA$MSG
      7797**DCL-ENT  8992--CALL     9594--CALL
KIA$OQFL
      7796**DCL-ENT  8970--CALL
KIA$WRITE_USER
      7798**DCL-ENT  8941--CALL
KIA_NODAT
      8473**DCL      8953>>ASSIGN   9385>>IF
KIA_TCTLMAX
      7766**DCL      9297>>IF
KIQ$MAPFEP
      7793**DCL-ENT  8989--CALL     9590--CALL
KIS$SEND
PL6.E3A0      #001=KIA$UCIOND File=KIA$APPLC.:E05TSI                             WED 07/30/97 00:30 Page:181
      7799**DCL-ENT  9006--CALL     9615--CALL
KI_FEI$$
       594**DCL       595--IMP-PTR
K_RWPARM_CON
      5108**DCL      8839>>ASSIGN   8853>>ASSIGN   9088>>ASSIGN   9108>>ASSIGN   9225>>ASSIGN   9293>>ASSIGN
      9425>>ASSIGN   9446>>ASSIGN   9458>>ASSIGN   9474>>ASSIGN   9482>>ASSIGN   9527>>ASSIGN
K_RWPARM_CON.BLKREC
      5134**DCL      5159--REDEF
K_RWPARM_CON.BLKREC.BLKU#
      5135**DCL      5137--REDEF
K_RWPARM_CON.BLKREC.RECU#
      5147**DCL      5149--REDEF
K_RWPARM_CON.DVE.DVBYTE.VFC
      5174**DCL      5175--REDEF
K_RWPARM_CON.DVE.EOMCHAR
      5182**DCL      5186--REDEF
K_RWPARM_CON.ERR
      5246**DCL      5251--REDEF
K_RWPARM_CON.FC
      5210**DCL      5211--REDEF
K_RWPARM_CON.FLDID
      5392**DCL      5393--REDEF
K_RWPARM_CON.FPT$
      5273**DCL      5280--REDEF
K_RWPARM_CON.KEYTYPE
      5399**DCL      5400--REDEF
K_RWPARM_CON.MSG$
      5109**DCL      5115--REDEF
K_RWPARM_CON.MSGID
      5221**DCL      5226--REDEF
K_RWPARM_CON.MSGIDXT
      5234**DCL      5238--REDEF
K_RWPARM_CON.ORG
      5370**DCL      5371--REDEF
K_RWPARM_CON.THDRSZ
      5314**DCL      5318--REDEF
PL6.E3A0      #001=KIA$UCIOND File=KIA$APPLC.:E05TSI                             WED 07/30/97 00:30 Page:182
K_RWPARM_CON.VDOFLGS
      5372**DCL      5383--REDEF
LDCT$
      7759**DCL      8751<<ASSIGN   8755>>IF       8783<<ASSIGN   8785<<ASSIGN   8793>>IF       8811>>CALL
      8813>>IF       8822>>CALL     8830>>CALL     8837>>IF       8841>>ASSIGN   8842>>CALL     8843>>ASSIGN
      8847>>CALL     8895>>CALL     8897>>CALL     8899>>CALL     8905>>IF       8906>>ASSIGN   8930>>CALL
      8941>>CALL     8944>>IF       8960<>CALL     8962>>CALL     8970>>CALL     8978<>CALL     8980>>CALL
      8982>>ASSIGN   8984>>ASSIGN   8989>>CALL     9004>>ASSIGN   9010>>CALL     9025>>IF       9050>>CALL
      9052>>CALL     9054>>CALL     9060>>IF       9076>>CALL     9089>>ASSIGN   9091>>CALL     9097>>ASSIGN
      9098<>CALL     9100>>CALL     9106>>DOWHILE  9118>>CALL     9121>>CALL     9126>>CALL     9200>>CALL
      9202>>IF       9205>>IF       9211>>ASSIGN   9220>>CALL     9228>>CALL     9231>>ASSIGN   9251>>CALL
      9297>>IF       9303>>ASSIGN   9306>>CALL     9308>>CALL     9309>>ASSIGN   9309>>ASSIGN   9383>>CALL
      9411>>IF       9411>>IF       9414>>ASSIGN   9415>>ASSIGN   9429<<ASSIGN   9432>>CALL     9437>>CALL
      9447<<ASSIGN   9449>>CALL     9452>>CALL     9462<<ASSIGN   9464>>CALL     9467>>CALL     9504<<ASSIGN
      9506>>CALL     9511>>CALL     9532<<ASSIGN   9534>>CALL     9536>>CALL     9538>>CALL     9568>>CALL
      9572>>CALL     9574>>CALL     9579<>CALL     9581<>CALL     9583>>CALL     9586>>ASSIGN   9587>>ASSIGN
      9590>>CALL     9613>>ASSIGN   9616>>IF       9618<>CALL     9621>>CALL     9636>>CALL     9638>>IF
      9640>>IF       9644>>ASSIGN   9646>>CALL     9648<>CALL     9650>>CALL     9653>>IF       9658>>CALL
LDSC
      8521**DCL      8816>>ASSIGN   9027>>ASSIGN
MMS$SETUP_BUF
      7805**DCL-ENT  9160--CALL     9171--CALL
MSG$
      6900**DCL      8753<<ASSIGN   8787<<ASSIGN   8892>>ASSIGN   8909>>ASSIGN   9044>>ASSIGN   9564>>IF
      9603>>ASSIGN
MSGSZ
      6902**DCL      6903--REDEF    7773--IMP-SIZ  8752<<ASSIGN   8786<<ASSIGN   8865>>IF       8869<<ASSIGN
      8872>>ASSIGN   8873>>ASSIGN   8893>>ASSIGN   8910>>ASSIGN   9045>>ASSIGN   9170>>ASSIGN   9171<>CALL
      9564>>IF       9595>>IF       9596<<ASSIGN   9598>>ASSIGN   9599>>ASSIGN   9603>>ASSIGN   9603>>ASSIGN
MTRAP
      9187**LABEL    9158--CALLALT
MTRAPERR
      8569**DCL      9187>>ASSIGN
N$DCT$$
       465**DCL       465--IMP-PTR  8783>>ASSIGN   8785>>ASSIGN   9429>>ASSIGN   9462>>ASSIGN   9504>>ASSIGN
      9532>>ASSIGN
PL6.E3A0      #001=KIA$UCIOND File=KIA$APPLC.:E05TSI                             WED 07/30/97 00:30 Page:183
NDLDCT
      6896**DCL        17--PROC     8751--ASSIGN
NEWSSN
      7777**DCL      9428>>ASSIGN
NI_MFGATE
      7767**DCL      9237<>CALL     9242<>CALL
NK$LDCT
      5418**DCL      8842<>CALL     8897<>CALL     8941<>CALL     8970<>CALL     9052<>CALL     9091<>CALL
      9118<>CALL     9220<>CALL     9228<>CALL     9308<>CALL     9437<>CALL     9452<>CALL     9467<>CALL
      9511<>CALL     9536<>CALL     9572<>CALL     9574<>CALL     9646<>CALL
NK$LDCT.DDT$
      5420**DCL      5420--REDEF
NK$LDCT.DFLG.FEDN
      5426**DCL      8813>>IF       8944>>IF
NK$LDCT.DFLG.NOSND
      5424**DCL      9303<<ASSIGN
NK$LDCT.DFLG.OLDSC
      5423**DCL      9025>>IF       9411>>IF
NK$LDCT.ERR
      5419**DCL      8906>>ASSIGN   9411>>IF       9414>>ASSIGN   9415<<ASSIGN
NK$LDCT.IOQ$
      5419**DCL      5420--REDEF
NK$LDCT.IP$
      5440**DCL      8982>>ASSIGN   8984<<ASSIGN   9586>>ASSIGN   9587<<ASSIGN   9640>>IF       9653>>IF
NK$LDCT.IPFEI#
      5441**DCL      8989<>CALL     9590<>CALL
NK$LDCT.LDCTX
      5421**DCL      5421--REDEF
NK$LDCT.LKFLG.ABORTED
      5433**DCL      5434--REDEF
NK$LDCT.LKFLG.FPSTEP
      5438**DCL      8905>>IF       9060>>IF
NK$LDCT.LKFLG.MRKPND
      5433**DCL      8837>>IF       8843<<ASSIGN   9638>>IF
NK$LDCT.LKFLG.NOWAIT
      5439**DCL      9106>>DOWHILE  9202>>IF       9231<<ASSIGN
PL6.E3A0      #001=KIA$UCIOND File=KIA$APPLC.:E05TSI                             WED 07/30/97 00:30 Page:184
NK$LDCT.LKFLG.WTMRK
      5434**DCL      9097<<ASSIGN   9616>>IF       9644<<ASSIGN
NK$LDCT.LOCK
      5446**DCL      8811<>CALL     8822<>CALL     8830<>CALL     8847<>CALL     8895<>CALL     8899<>CALL
      8930<>CALL     8962<>CALL     8980<>CALL     9010<>CALL     9050<>CALL     9054<>CALL     9076<>CALL
      9100<>CALL     9121<>CALL     9126<>CALL     9200<>CALL     9251<>CALL     9306<>CALL     9383<>CALL
      9432<>CALL     9449<>CALL     9464<>CALL     9506<>CALL     9534<>CALL     9538<>CALL     9568<>CALL
      9583<>CALL     9621<>CALL     9636<>CALL     9650<>CALL     9658<>CALL
NK$LDCT.MARKER
      5420**DCL      8841>>ASSIGN
NK$LDCT.NOWAIT
      5429**DCL      9205>>IF       9211<<ASSIGN
NK$LDCT.NOWAIT.STREAM
      5429**DCL      9089>>ASSIGN
NK$LDCT.RESCOD
      5426**DCL      8755>>IF
NK$LDCT.RLCID.LDCTX
      5443**DCL      5443--REDEF
NK$LDCT.STA$
      5439**DCL      5440--REDEF
NK$LDCT.SYMB$
      5418**DCL      5418--REDEF    5418--REDEF    5419--REDEF
NK$LDCT.TCTLCNT
      5448**DCL      9297>>IF       9309<<ASSIGN   9309>>ASSIGN
NK$LDCT$
       465**DCL      8783>>ASSIGN   8785>>ASSIGN   9429>>ASSIGN   9462>>ASSIGN   9504>>ASSIGN   9532>>ASSIGN
NKA$EVENT
      7806**DCL-ENT  9345--CALL
NOFPRG
      8617**DCL      9061>>ASSIGN
NORDKEY
      9070**LABEL    9066--CALLALT
NOWAIT
      6030**DCL      9150<<ASSIGN   9205>>IF       9211>>ASSIGN
NOWAIT.DCB#
      6034**DCL      9179<<ASSIGN
PL6.E3A0      #001=KIA$UCIOND File=KIA$APPLC.:E05TSI                             WED 07/30/97 00:30 Page:185
NOWAIT.DMN
      6032**DCL      9182<<ASSIGN
NOWAIT.KEYTYP
      6031**DCL      9159<<ASSIGN
NOWAIT.STREAM
      6033**DCL      9180<<ASSIGN
NOWRTKEY
      8919**LABEL    8913--CALLALT
PCODE
      6888**DCL      9282>>ASSIGN
PFB
      7768**DCL      7769--REDEF    7770--REDEF    8754<<ASSIGN   8756<<ASSIGN   8788<<ASSIGN   8857>>ASSIGN
      8976<<ASSIGN   8998>>ASSIGN   9000>>ASSIGN   9046>>ASSIGN   9181<>CALL     9182>>ASSIGN   9294>>ASSIGN
PFCN
      7760**DCL      9288<<ASSIGN   9301>>IF       9308<>CALL
PTW
      6042**DCL      9160<>CALL     9171<>CALL
PTW.PP
      6043**DCL      9162>>ASSIGN   9163>>ASSIGN   9173>>ASSIGN   9174>>ASSIGN
READS
      9543**PROC     9262--CALL     9283--CALL
READ_IT IN PROCEDURE READS
      9577**LABEL    9642--GOTO     9655--GOTO
REGALT IN PROCEDURE READS
      9632**LABEL    9579--CALLALT  9581--CALLALT
RPTR$
      7778**DCL      9160<>CALL     9161>>ASSIGN   9171<>CALL     9172>>ASSIGN
S$CU$
       826**DCL      8826>>IF       8826>>IF       8944>>IF       8944>>IF       9239>>ASSIGN   9239>>ASSIGN
      9240>>ASSIGN   9240>>ASSIGN   9417>>IF       9663>>IF
SC_BTSFCN
      7813**DCL-ENT  9316--CALL
SC_ICQLST
      7814**DCL-ENT  9665--CALL
SC_NTSDCTI
      7811**DCL-ENT  8795--CALL
PL6.E3A0      #001=KIA$UCIOND File=KIA$APPLC.:E05TSI                             WED 07/30/97 00:30 Page:186
SSR$REG
      7800**DCL-ENT  8960--CALL     8978--CALL     9098--CALL     9579--CALL     9581--CALL     9618--CALL
      9648--CALL
STR
      7774**DCL      9426>>ASSIGN   9460>>ASSIGN   9483>>ASSIGN   9528>>ASSIGN
STRID
      7775**DCL      9461>>ASSIGN
TDVB
      6901**DCL      9073<<ASSIGN
TFCN
      6884**DCL      9288>>ASSIGN
TRTNR IN PROCEDURE READS
      9611**LABEL    9633--GOTO
TRY_WRT_AGAIN
      8937**LABEL    8964--GOTO     8971--GOTO
TYC
      6893**DCL      9334--IF       9336<<ASSIGN
UMD$DIN
      7807**DCL-ENT  9277--CALL
UMD$DOU
      7809**DCL-ENT  9015--CALL
UMD$DPMT
      7808**DCL-ENT  9260--CALL
USRKEY
      6023**DCL      9609<<ASSIGN
USRKEYSZ
      6025**DCL      6023--IMP-SIZ  6026--REDEF    6029--REDEF    8914<>CALL     8915<<ASSIGN   8915>>ASSIGN
      8916>>ASSIGN   9031<>CALL     9034>>IF       9067<>CALL     9068<<ASSIGN   9068>>ASSIGN   9069>>ASSIGN
      9151<<ASSIGN   9156<>CALL     9157>>IF       9157<<ASSIGN   9160<>CALL     9608<>CALL     9609>>ASSIGN
VCHRM
      7773**DCL      9603<<ASSIGN   9603>>ASSIGN
VFC
      6886**DCL        17--PROC     6887--REDEF    6888--REDEF    8761--ENTRY    8773--ENTRY    8856>>ASSIGN
      9015<>CALL     9295>>ASSIGN   9422--ENTRY    9428--ASSIGN
VLP$WINDOW_V
      6531**DCL      9530--ASSIGN
PL6.E3A0      #001=KIA$UCIOND File=KIA$APPLC.:E05TSI                             WED 07/30/97 00:30 Page:187
VLP$WINDOW_V.FSTR.ID
      6531**DCL      9517<>CALL
VLP$WINDOW_V.FWINDOW
      6531**DCL      6531--REDEF    6531--REDEF    9517<>CALL
VSIN
      7780**DCL      9041--ASSIGN   9042--ASSIGN
VSIN.PFB
      7781**DCL      9046<<ASSIGN
VSIN.POS
      7783**DCL      7784--REDEF    7786--REDEF    9047<<ASSIGN
VSIN.POSL6.T
      7785**DCL      9048<<ASSIGN
VSIN.POSL66.T
      7787**DCL      9048>>ASSIGN
WAIT_RRR_RESP
      8964**LABEL    9310--GOTO     9441--GOTO     9453--GOTO     9469--GOTO     9512--GOTO
WINDOW.FWINDOW
      6553**DCL      6553--REDEF    6553--REDEF
WINDOW.LENGTH
      6554**DCL      9521<>CALL     9521<>CALL
WINDOW.ORG_PST.COLUMN
      6554**DCL      9525<>CALL     9525<>CALL
WINDOW.WIDTH
      6554**DCL      9523<>CALL     9523<>CALL
WRT1
      8904**LABEL    8885--GOTO     8889--GOTO
XTRARD
      8713**DCL      9109>>ASSIGN   9226>>ASSIGN

