PL6.E3A0      #002=KIF$FPRGEVNT File=KIF$FPRG.:E05TSI                            WED 07/30/97 00:33 Page:155
      931        1        /*T***********************************************************/
      932        2        /*T*                                                         */
      933        3        /*T* Copyright (c) Bull HN Information Systems Inc., 1997    */
      934        4        /*T*                                                         */
      935        5        /*T***********************************************************/
      936        6        /*D* NAME:        KIF$FPRGEVNT
      937        7             PURPOSE:     To report FPRG events to the appropriate user
      938        8             CALL:        CALL KIF$FPRGEVNT (NK$LDCT,EVNT,ERR);
      939        9             INPUT:       NK$LDCT - The FPRG's HOST LDCT
      940       10                          EVNT    - The FPRG event to report. This is either
      941       11                                    GJ_PROG_EXIT, GJ_PROG_ABORT or GJ_PROG_LDTRC.
      942       12                          ERR     - The LCP6 error code causing the abort. This
      943       13                                    is only used for the GJ_PROG_ABORT case.
      944       14             OUTPUT:      For CG-connected FPRGs, an AU event message describing
      945       15                          the event.
      946       16                          For DCB-connected FRPGs, a call to SSV$EVENT for the
      947       17                          DCB owner's M$EVENT-specified routine to process. If
      948       18                          the DCB owner did not ask for FPRG events by specifying
      949       19                          EVENT on the DCB's open, no output will result.
      950       20             DESCRIPTION: KIF$FPRGEVNT creates an AU event for CG-connected FPRGs
      951       21                          or makes a call to SSV$EVENT for DCB-connected FPRGs
      952       22                          whenever KIF$FPRGEVNT is called at any FPRG state
      953       23                          change. These state changes are EXIT, ABORT and LDTRC.
      954       24                          KIF$FPRGEVNT does not ALTRET.
      955       25        */
      956       26
      957       27        KIF$FPRGEVNT: PROC(NK$LDCT,EVNT,ERR);
      958       28        %INCLUDE B_STRINGS_C;
      959      157        %INCLUDE GJ_MSG_M;
      960      470        %INCLUDE HF_LOCK_C;
      961      484        %INCLUDE CP_6;
      962      565        %INCLUDE NK$LDCT;
      963      667        %INCLUDE NK_SUBS;
      964      692        %INCLUDE FOM_SUBS_C;
      965      755
      966      756        /* Parameters */
      967      757
PL6.E3A0      #002=KIF$FPRGEVNT File=KIF$FPRG.:E05TSI                            WED 07/30/97 00:33 Page:156
      968      758        %NK$LDCT(STCLASS="");
      969      804    1   DCL EVNT UBIN;
      970      805    1   DCL ERR UBIN;
      971      806
      972      807        /* AUTO variables */
      973      808
      974      809    1   DCL ERROR UBIN;
      975      810    1   DCL EVENT UBIN;
      976      811        %B$FPRG(NAME=FPRGEV,STCLASS=AUTO,PARONLY=1);
      977      840    1   DCL DMN UBIN;
      978      841
      979      842        /* BASED structures */
      980      843
      981      844        %VLP_FPRG(FPTN=VLP$FPRG,STCLASS=BASED);
      982      865
      983      866        /* EQUs */
      984      867
      985      868        %GJ_FCN#;
      986      894        %SUB_EXC;
      987      941
      988      942        /* External procedures */
      989      943
      990      944    1   DCL KIA$GETEVNT ENTRY(3);
      991      945    1   DCL KQP$FPABORT ENTRY(2) ALTRET;
      992      946    1   DCL KQP$FPEXIT ENTRY(2) ALTRET;
      993      947    1   DCL KQP$FPLDTRC ENTRY(2) ALTRET;
      994      948    1   DCL SSV$EVENT ENTRY(7);
      995      949    1   DCL FOM$SYMBIN ENTRY(3) ALTRET;
      996      950
      997      951        %EJECT;
PL6.E3A0      #002=KIF$FPRGEVNT File=KIF$FPRG.:E05TSI                            WED 07/30/97 00:33 Page:157
      998      952        /* KIF$FPRGEVNT is called from KIA$FPRGIN and KIF$FPRG.
      999      953        */
     1000      954
     1001      955    2      DO CASE(NK$LDCT.RESCOD);
     1002      956    2       CASE(NK_CGFPRG);
     1003      957    2         IF NK$LDCT.DFLG.SYMBIONT
     1004      958    3         THEN DO;
     1005      959    3              CALL FOM$SYMBIN ( NK$LDCT,,FOMI_FNC_FPRG_ABORT# );
     1006      960    3              END;
     1007      961    3         ELSE DO;
     1008      962    4              DO CASE(EVNT);
     1009      963    4               CASE(%GJ_PROG_EXIT#);
     1010      964    4                 CALL KQP$FPEXIT(NK$LDCT,ERR);
     1011      965    4               CASE(%GJ_PROG_ABRT#);
     1012      966    4                 CALL KQP$FPABORT(NK$LDCT,ERR);
     1013      967    4               CASE(%GJ_PROG_LDTRC#);
     1014      968    4                 CALL KQP$FPLDTRC(NK$LDCT,ERR);
     1015      969                                      /* Note that ERR is really a VLP_FPRG */
     1016      970    4                 END/*do case*/;
     1017      971    3              END/*do if not symbiont*/;
     1018      972    2       CASE(NK_TSFPRG);
     1019      973    2         CALL KIA$GETEVNT(NK$LDCT,EVENT,DMN);
     1020      974    2         IF EVENT~=0                  /* User requested FPRG events    */
     1021      975    3         THEN DO;
     1022      976    3              FPRGEV='0'B;
     1023      977    3              FPRGEV.DCBNO = NK$LDCT.UDCBNO;
     1024      978    4              DO CASE(EVNT);
     1025      979    4               CASE(%GJ_PROG_EXIT#);
     1026      980    4                 FPRGEV.SUBC2=%SUBC2_FPEXIT#;
     1027      981    4                 FPRGEV.P#=SIZEW(FPRGEV)-SIZEW(FPRGEV.FPRG)-SIZEW(FPRGEV.P#);
     1028      982    4                 ERROR=0;
     1029      983    4               CASE(%GJ_PROG_ABRT#);
     1030      984    4                 FPRGEV.SUBC2=%SUBC2_FPABORT#;
     1031      985    4                 FPRGEV.P#=SIZEW(FPRGEV)-SIZEW(FPRGEV.FPRG)-SIZEW(FPRGEV.P#);
     1032      986    4                 ERROR = ERR;
     1033      987    4               CASE(%GJ_PROG_LDTRC#);
     1034      988    4                 FPRGEV.SUBC2=%SUBC2_FPLDTRC#;
PL6.E3A0      #002=KIF$FPRGEVNT File=KIF$FPRG.:E05TSI                            WED 07/30/97 00:33 Page:158
     1035      989    4                 FPRGEV.FPRG=ADDR(ERR)->VLP$FPRG;
     1036      990    4                 FPRGEV.P#=SIZEW(FPRGEV)-SIZEW(FPRGEV.P#);
     1037      991    4                 ERROR=0;
     1038      992    4                 END;
     1039      993    3              CALL SSV$EVENT(NK$LDCT.USER,DMN,%SUBC_FPRG#,EVENT,ERROR,ADDR(FPRGEV));
     1040      994    3              END;
     1041      995    2         END;                              /* CASE(NK$LDCT.RESCOD)     */
     1042      996    1   END KIF$FPRGEVNT;
     1043      997        %EOD;

PL6.E3A0      #002=KIF$FPRGEVNT File=KIF$FPRG.:E05TSI                            WED 07/30/97 00:33 Page:159
--  Include file information  --

   FOM_SUBS_C.:E05TOU  is referenced.
   NK_SUBS.:E05TOU  is referenced.
   NK$LDCT.:E05TOU  is referenced.
   CP_6.:E05TOU  cannot be made into a system file and is referenced.
   HF_LOCK_C.:E05TOU  cannot be made into a system file and is referenced.
   GJ_MSG_M.:E05TOU  is referenced.
   B_STRINGS_C.:E05TOU  is referenced.
   B$JIT_C.:E05TOU  was found in the system file and is never referenced.
   CP_6_C.:E05TOU  was found in the system file and is referenced.
      No diagnostics issued in procedure KIF$FPRGEVNT.

   Procedure KIF$FPRGEVNT requires 129 words for executable code.
   Procedure KIF$FPRGEVNT requires 36 words of local(AUTO) storage.

PL6.E3A0      #002=KIF$FPRGEVNT File=KIF$FPRG.:E05TSI                            WED 07/30/97 00:33 Page:160

 Object Unit name= KIF$FPRGEVNT                               File name= KIF$FPRG.:E05TOU
 UTS= JUL 30 '97 00:33:57.56 WED                              Compiler= PL-6/E31         Sev=      00
 SharedLib= :SHARED_SYSTEM                                    Alt SharedLib=


    ****  Control sections  ****

 Sect   Type Bound  Init  Size OctSiz  Section name(segment info)
    0   DCB   even  none     0      0  M$UC
    1   Proc  even  none   129    201  KIF$FPRGEVNT
    2  RoData even  none     3      3  KIF$FPRGEVNT

    ****  Entry defs  ****

                              Check   Calling
                             calling  sequence
  Sect OctLoc Primary Altret sequence   type   Parms  Name
     1      0   yes            yes      Std        3  KIF$FPRGEVNT

  ****  Entry refs  ****

         Check        Calling
        calling       sequence
Altret sequence SRef   type   Args  Name
 yes     yes           Std       3 FOM$SYMBIN
 yes     yes           Std       2 KQP$FPEXIT
 yes     yes           Std       2 KQP$FPLDTRC
         yes           Std       3 KIA$GETEVNT
         yes           Std       7 SSV$EVENT
 yes     yes           Std       2 KQP$FPABORT
                       nStd      0 X66_AUTO_3
                       Std       0 B_CONSPOOL_D
                       nStd      0 X66_ARET
PL6.E3A0      #002=KIF$FPRGEVNT File=KIF$FPRG.:E05TSI                            WED 07/30/97 00:33 Page:161

  ****  Data refs  ****

  Flags:  r = read only, s = secondary
Flgs Name                             Flgs Name                             Flgs Name
     M$UC                                  B_VECTNIL

  ****  Segment refs  ****

  Flags:  r = read only, s = secondary
Flgs Name                             Flgs Name                             Flgs Name
     ISSID
PL6.E3A0      #002=KIF$FPRGEVNT File=KIF$FPRG.:E05TSI                            WED 07/30/97 00:33 Page:162


      931        1        /*T***********************************************************/
      932        2        /*T*                                                         */
      933        3        /*T* Copyright (c) Bull HN Information Systems Inc., 1997    */
      934        4        /*T*                                                         */
      935        5        /*T***********************************************************/
      936        6        /*D* NAME:        KIF$FPRGEVNT
      937        7             PURPOSE:     To report FPRG events to the appropriate user
      938        8             CALL:        CALL KIF$FPRGEVNT (NK$LDCT,EVNT,ERR);
      939        9             INPUT:       NK$LDCT - The FPRG's HOST LDCT
      940       10                          EVNT    - The FPRG event to report. This is either
      941       11                                    GJ_PROG_EXIT, GJ_PROG_ABORT or GJ_PROG_LDTRC.
      942       12                          ERR     - The LCP6 error code causing the abort. This
      943       13                                    is only used for the GJ_PROG_ABORT case.
      944       14             OUTPUT:      For CG-connected FPRGs, an AU event message describing
      945       15                          the event.
      946       16                          For DCB-connected FRPGs, a call to SSV$EVENT for the
      947       17                          DCB owner's M$EVENT-specified routine to process. If
      948       18                          the DCB owner did not ask for FPRG events by specifying
      949       19                          EVENT on the DCB's open, no output will result.
      950       20             DESCRIPTION: KIF$FPRGEVNT creates an AU event for CG-connected FPRGs
      951       21                          or makes a call to SSV$EVENT for DCB-connected FPRGs
      952       22                          whenever KIF$FPRGEVNT is called at any FPRG state
      953       23                          change. These state changes are EXIT, ABORT and LDTRC.
      954       24                          KIF$FPRGEVNT does not ALTRET.
      955       25        */
      956       26
      957       27        KIF$FPRGEVNT: PROC(NK$LDCT,EVNT,ERR);

     27  1 000000   000000 700200 xent  KIF$FPRGEVNT TSX0  ! X66_AUTO_3
         1 000001   000044 000003                    ZERO    36,3

      958       28        %INCLUDE B_STRINGS_C;
      959      157        %INCLUDE GJ_MSG_M;
      960      470        %INCLUDE HF_LOCK_C;
      961      484        %INCLUDE CP_6;
      962      565        %INCLUDE NK$LDCT;
PL6.E3A0      #002=KIF$FPRGEVNT File=KIF$FPRG.:E05TSI                            WED 07/30/97 00:33 Page:163
      963      667        %INCLUDE NK_SUBS;
      964      692        %INCLUDE FOM_SUBS_C;
      965      755
      966      756        /* Parameters */
      967      757
      968      758        %NK$LDCT(STCLASS="");
      969      804    1   DCL EVNT UBIN;
      970      805    1   DCL ERR UBIN;
      971      806
      972      807        /* AUTO variables */
      973      808
      974      809    1   DCL ERROR UBIN;
      975      810    1   DCL EVENT UBIN;
      976      811        %B$FPRG(NAME=FPRGEV,STCLASS=AUTO,PARONLY=1);
      977      840    1   DCL DMN UBIN;
      978      841
      979      842        /* BASED structures */
      980      843
      981      844        %VLP_FPRG(FPTN=VLP$FPRG,STCLASS=BASED);
      982      865
      983      866        /* EQUs */
      984      867
      985      868        %GJ_FCN#;
      986      894        %SUB_EXC;
      987      941
      988      942        /* External procedures */
      989      943
      990      944    1   DCL KIA$GETEVNT ENTRY(3);
      991      945    1   DCL KQP$FPABORT ENTRY(2) ALTRET;
      992      946    1   DCL KQP$FPEXIT ENTRY(2) ALTRET;
      993      947    1   DCL KQP$FPLDTRC ENTRY(2) ALTRET;
      994      948    1   DCL SSV$EVENT ENTRY(7);
      995      949    1   DCL FOM$SYMBIN ENTRY(3) ALTRET;
      996      950
      997      951        %EJECT;
PL6.E3A0      #002=KIF$FPRGEVNT File=KIF$FPRG.:E05TSI                            WED 07/30/97 00:33 Page:164
      998      952        /* KIF$FPRGEVNT is called from KIA$FPRGIN and KIF$FPRG.
      999      953        */
     1000      954
     1001      955    2      DO CASE(NK$LDCT.RESCOD);

    955  1 000002   200003 470500                    LDP0    @NK$LDCT,,AUTO
         1 000003   000006 236100                    LDQ     6,,PR0
         1 000004   000017 376007                    ANQ     15,DL
         1 000005   000010 136007                    SBLQ    8,DL
         1 000006   000002 116007                    CMPQ    2,DL
         1 000007   000011 602006 1                  TNC     s:955+7,QL
         1 000010   000200 710000 1                  TRA     s:996
         1 000011   000071 710000 1                  TRA     s:973
         1 000012   000013 710000 1                  TRA     s:957

     1002      956    2       CASE(NK_CGFPRG);

     1003      957    2         IF NK$LDCT.DFLG.SYMBIONT

    957  1 000013   000006 236100                    LDQ     6,,PR0
         1 000014   020000 316007                    CANQ    8192,DL
         1 000015   000030 600000 1                  TZE     s:962

     1004      958    3         THEN DO;

     1005      959    3              CALL FOM$SYMBIN ( NK$LDCT,,FOMI_FNC_FPRG_ABORT# );

    959  1 000016   000000 236000 2                  LDQ     0
         1 000017   200036 756100                    STQ     DMN+3,,AUTO
         1 000020   000001 236000 xsym               LDQ     B_VECTNIL+1
         1 000021   200003 235100                    LDA     @NK$LDCT,,AUTO
         1 000022   200034 757100                    STAQ    DMN+1,,AUTO
         1 000023   200034 630500                    EPPR0   DMN+1,,AUTO
         1 000024   000021 631400 xsym               EPPR1   B_VECTNIL+17
         1 000025   000000 701000 xent               TSX1    FOM$SYMBIN
         1 000026   000000 011000                    NOP     0

PL6.E3A0      #002=KIF$FPRGEVNT File=KIF$FPRG.:E05TSI                            WED 07/30/97 00:33 Page:165
     1006      960    3              END;

    960  1 000027   000200 710000 1                  TRA     s:996

     1007      961    3         ELSE DO;

     1008      962    4              DO CASE(EVNT);

    962  1 000030   200004 471500                    LDP1    @EVNT,,AUTO
         1 000031   100000 235100                    LDA     0,,PR1
         1 000032   000006 135007                    SBLA    6,DL
         1 000033   000003 115007                    CMPA    3,DL
         1 000034   000036 602005 1                  TNC     s:962+6,AL
         1 000035   000200 710000 1                  TRA     s:996
         1 000036   000041 710000 1                  TRA     s:964
         1 000037   000051 710000 1                  TRA     s:966
         1 000040   000061 710000 1                  TRA     s:968

     1009      963    4               CASE(%GJ_PROG_EXIT#);

     1010      964    4                 CALL KQP$FPEXIT(NK$LDCT,ERR);

    964  1 000041   200005 236100                    LDQ     @ERR,,AUTO
         1 000042   200003 235100                    LDA     @NK$LDCT,,AUTO
         1 000043   200034 757100                    STAQ    DMN+1,,AUTO
         1 000044   200034 630500                    EPPR0   DMN+1,,AUTO
         1 000045   000020 631400 xsym               EPPR1   B_VECTNIL+16
         1 000046   000000 701000 xent               TSX1    KQP$FPEXIT
         1 000047   000000 011000                    NOP     0
         1 000050   000200 710000 1                  TRA     s:996

     1011      965    4               CASE(%GJ_PROG_ABRT#);

     1012      966    4                 CALL KQP$FPABORT(NK$LDCT,ERR);

    966  1 000051   200005 236100                    LDQ     @ERR,,AUTO
         1 000052   200003 235100                    LDA     @NK$LDCT,,AUTO
PL6.E3A0      #002=KIF$FPRGEVNT File=KIF$FPRG.:E05TSI                            WED 07/30/97 00:33 Page:166
         1 000053   200034 757100                    STAQ    DMN+1,,AUTO
         1 000054   200034 630500                    EPPR0   DMN+1,,AUTO
         1 000055   000020 631400 xsym               EPPR1   B_VECTNIL+16
         1 000056   000000 701000 xent               TSX1    KQP$FPABORT
         1 000057   000000 011000                    NOP     0
         1 000060   000200 710000 1                  TRA     s:996

     1013      967    4               CASE(%GJ_PROG_LDTRC#);

     1014      968    4                 CALL KQP$FPLDTRC(NK$LDCT,ERR);

    968  1 000061   200005 236100                    LDQ     @ERR,,AUTO
         1 000062   200003 235100                    LDA     @NK$LDCT,,AUTO
         1 000063   200034 757100                    STAQ    DMN+1,,AUTO
         1 000064   200034 630500                    EPPR0   DMN+1,,AUTO
         1 000065   000020 631400 xsym               EPPR1   B_VECTNIL+16
         1 000066   000000 701000 xent               TSX1    KQP$FPLDTRC
         1 000067   000000 011000                    NOP     0

     1015      969                                      /* Note that ERR is really a VLP_FPRG */
     1016      970    4                 END/*do case*/;

     1017      971    3              END/*do if not symbiont*/;

    971  1 000070   000200 710000 1                  TRA     s:996

     1018      972    2       CASE(NK_TSFPRG);

     1019      973    2         CALL KIA$GETEVNT(NK$LDCT,EVENT,DMN);

    973  1 000071   200033 631500                    EPPR1   DMN,,AUTO
         1 000072   200036 451500                    STP1    DMN+3,,AUTO
         1 000073   200007 633500                    EPPR3   EVENT,,AUTO
         1 000074   200035 453500                    STP3    DMN+2,,AUTO
         1 000075   200003 236100                    LDQ     @NK$LDCT,,AUTO
         1 000076   200034 756100                    STQ     DMN+1,,AUTO
         1 000077   200034 630500                    EPPR0   DMN+1,,AUTO
PL6.E3A0      #002=KIF$FPRGEVNT File=KIF$FPRG.:E05TSI                            WED 07/30/97 00:33 Page:167
         1 000100   000021 631400 xsym               EPPR1   B_VECTNIL+17
         1 000101   000000 701000 xent               TSX1    KIA$GETEVNT
         1 000102   000000 011000                    NOP     0

     1020      974    2         IF EVENT~=0                  /* User requested FPRG events    */

    974  1 000103   200007 235100                    LDA     EVENT,,AUTO
         1 000104   000200 600000 1                  TZE     s:996

     1021      975    3         THEN DO;

     1022      976    3              FPRGEV='0'B;

    976  1 000105   000100 100400                    MLR     fill='000'O
         1 000106   000002 000001 xsym               ADSC9   B_VECTNIL+2              cn=0,n=1
         1 000107   200010 000114                    ADSC9   FPRGEV,,AUTO             cn=0,n=76

     1023      977    3              FPRGEV.DCBNO = NK$LDCT.UDCBNO;

    977  1 000110   200003 470500                    LDP0    @NK$LDCT,,AUTO
         1 000111   000016 236100                    LDQ     14,,PR0
         1 000112   000033 772000                    QRL     27
         1 000113   000000 620006                    EAX0    0,QL
         1 000114   200011 740100                    STX0    FPRGEV+1,,AUTO

     1024      978    4              DO CASE(EVNT);

    978  1 000115   200004 471500                    LDP1    @EVNT,,AUTO
         1 000116   100000 235100                    LDA     0,,PR1
         1 000117   000006 135007                    SBLA    6,DL
         1 000120   000003 115007                    CMPA    3,DL
         1 000121   000123 602005 1                  TNC     s:978+6,AL
         1 000122   000155 710000 1                  TRA     s:993
         1 000123   000126 710000 1                  TRA     s:980
         1 000124   000134 710000 1                  TRA     s:984
         1 000125   000144 710000 1                  TRA     s:988

PL6.E3A0      #002=KIF$FPRGEVNT File=KIF$FPRG.:E05TSI                            WED 07/30/97 00:33 Page:168
     1025      979    4               CASE(%GJ_PROG_EXIT#);

     1026      980    4                 FPRGEV.SUBC2=%SUBC2_FPEXIT#;

    980  1 000126   000000 236003                    LDQ     0,DU
         1 000127   200011 552104                    STBQ    FPRGEV+1,'04'O,AUTO

     1027      981    4                 FPRGEV.P#=SIZEW(FPRGEV)-SIZEW(FPRGEV.FPRG)-SIZEW(FPRGEV.P#);

    981  1 000130   000001 235007                    LDA     1,DL
         1 000131   200010 755100                    STA     FPRGEV,,AUTO

     1028      982    4                 ERROR=0;

    982  1 000132   200006 450100                    STZ     ERROR,,AUTO
         1 000133   000155 710000 1                  TRA     s:993

     1029      983    4               CASE(%GJ_PROG_ABRT#);

     1030      984    4                 FPRGEV.SUBC2=%SUBC2_FPABORT#;

    984  1 000134   000001 236007                    LDQ     1,DL
         1 000135   200011 552104                    STBQ    FPRGEV+1,'04'O,AUTO

     1031      985    4                 FPRGEV.P#=SIZEW(FPRGEV)-SIZEW(FPRGEV.FPRG)-SIZEW(FPRGEV.P#);

    985  1 000136   000001 235007                    LDA     1,DL
         1 000137   200010 755100                    STA     FPRGEV,,AUTO

     1032      986    4                 ERROR = ERR;

    986  1 000140   200005 473500                    LDP3    @ERR,,AUTO
         1 000141   300000 235100                    LDA     0,,PR3
         1 000142   200006 755100                    STA     ERROR,,AUTO
         1 000143   000155 710000 1                  TRA     s:993

     1033      987    4               CASE(%GJ_PROG_LDTRC#);
PL6.E3A0      #002=KIF$FPRGEVNT File=KIF$FPRG.:E05TSI                            WED 07/30/97 00:33 Page:169

     1034      988    4                 FPRGEV.SUBC2=%SUBC2_FPLDTRC#;

    988  1 000144   000002 236007                    LDQ     2,DL
         1 000145   200011 552104                    STBQ    FPRGEV+1,'04'O,AUTO

     1035      989    4                 FPRGEV.FPRG=ADDR(ERR)->VLP$FPRG;

    989  1 000146   200005 473500                    LDP3    @ERR,,AUTO
         1 000147   000100 100500                    MLR     fill='000'O
         1 000150   300000 000104                    ADSC9   0,,PR3                   cn=0,n=68
         1 000151   200012 000104                    ADSC9   FPRGEV+2,,AUTO           cn=0,n=68

     1036      990    4                 FPRGEV.P#=SIZEW(FPRGEV)-SIZEW(FPRGEV.P#);

    990  1 000152   000022 235007                    LDA     18,DL
         1 000153   200010 755100                    STA     FPRGEV,,AUTO

     1037      991    4                 ERROR=0;

    991  1 000154   200006 450100                    STZ     ERROR,,AUTO

     1038      992    4                 END;

     1039      993    3              CALL SSV$EVENT(NK$LDCT.USER,DMN,%SUBC_FPRG#,EVENT,ERROR,ADDR(FPRGEV));

    993  1 000155   200010 633500                    EPPR3   FPRGEV,,AUTO
         1 000156   200034 453500                    STP3    DMN+1,,AUTO
         1 000157   200034 634500                    EPPR4   DMN+1,,AUTO
         1 000160   200043 454500                    STP4    DMN+8,,AUTO
         1 000161   200006 635500                    EPPR5   ERROR,,AUTO
         1 000162   200042 455500                    STP5    DMN+7,,AUTO
         1 000163   200007 636500                    EPPR6   EVENT,,AUTO
         1 000164   200041 456500                    STP6    DMN+6,,AUTO
         1 000165   000001 236000 2                  LDQ     1
         1 000166   200040 756100                    STQ     DMN+5,,AUTO
         1 000167   200033 637500                    EPPR7   DMN,,AUTO
PL6.E3A0      #002=KIF$FPRGEVNT File=KIF$FPRG.:E05TSI                            WED 07/30/97 00:33 Page:170
         1 000170   200037 457500                    STP7    DMN+4,,AUTO
         1 000171   200003 236100                    LDQ     @NK$LDCT,,AUTO
         1 000172   000002 036000 2                  ADLQ    2
         1 000173   200036 756100                    STQ     DMN+3,,AUTO
         1 000174   200036 630500                    EPPR0   DMN+3,,AUTO
         1 000175   000024 631400 xsym               EPPR1   B_VECTNIL+20
         1 000176   000000 701000 xent               TSX1    SSV$EVENT
         1 000177   000000 011000                    NOP     0

     1040      994    3              END;

     1041      995    2         END;                              /* CASE(NK$LDCT.RESCOD)     */

     1042      996    1   END KIF$FPRGEVNT;

    996  1 000200   000000 702200 xent               TSX2  ! X66_ARET

(unnamed)
 Sect OctLoc
   2     000   000006 006000   000007 006000   000007 200000                    ............
     1043      997        %EOD;

PL6.E3A0      #002=KIF$FPRGEVNT File=KIF$FPRG.:E05TSI                            WED 07/30/97 00:33 Page:171
--  Include file information  --

   FOM_SUBS_C.:E05TOU  is referenced.
   NK_SUBS.:E05TOU  is referenced.
   NK$LDCT.:E05TOU  is referenced.
   CP_6.:E05TOU  cannot be made into a system file and is referenced.
   HF_LOCK_C.:E05TOU  cannot be made into a system file and is referenced.
   GJ_MSG_M.:E05TOU  is referenced.
   B_STRINGS_C.:E05TOU  is referenced.
   B$JIT_C.:E05TOU  was found in the system file and is never referenced.
   CP_6_C.:E05TOU  was found in the system file and is referenced.
      No diagnostics issued in procedure KIF$FPRGEVNT.
PL6.E3A0      #002=KIF$FPRGEVNT File=KIF$FPRG.:E05TSI                            WED 07/30/97 00:33 Page:172

 **** Variables and constants ****

  ****  Auto variables  ****

  ****  Scalars and arrays  ****
OctLoc.c.b A Datatyp(siz) R M Lvl/name                 OctLoc.c.b A Datatyp(siz) R M Lvl/name

     5-0-0/w PTR         r     1 @ERR                       4-0-0/w PTR         r     1 @EVNT
     3-0-0/w PTR         r     1 @NK$LDCT                  33-0-0/w UBIN        r     1 DMN
    *0-0-0/w UBIN        r     1 ERR                        6-0-0/w UBIN        r     1 ERROR
     7-0-0/w UBIN        r     1 EVENT                     *0-0-0/w UBIN        r     1 EVNT
    10-0-0/w STRC(684)   r     1 FPRGEV                    *0-0-0/d STRC(864)   r     1 NK$LDCT

  ****  BASED and DCB variables  ****

  ****  Scalars and arrays  ****
OctLoc.c.b A Datatyp(siz) R M Lvl/name                 OctLoc.c.b A Datatyp(siz) R M Lvl/name

     0-0-0/d STRC(612)   r     1 VLP$FPRG


   Procedure KIF$FPRGEVNT requires 129 words for executable code.
   Procedure KIF$FPRGEVNT requires 36 words of local(AUTO) storage.
PL6.E3A0      #002=KIF$FPRGEVNT File=KIF$FPRG.:E05TSI                            WED 07/30/97 00:33 Page:173
          *** CROSS REFERENCE LISTING ***
**     DENOTES     IDENTIFIER DEFINITION
<<                 IDENTIFIER'S VALUE SET
>>                 IDENTIFIER'S VALUE USED
<>                 IDENTIFIER SET AND/OR USED
--                 IDENTIFIER REFERENCED
PL6.E3A0      #002=KIF$FPRGEVNT File=KIF$FPRG.:E05TSI                            WED 07/30/97 00:33 Page:174
          MINI XREF LISTING

DMN
       840**DCL       973<>CALL      993<>CALL
ERR
       805**DCL        27--PROC      964<>CALL      966<>CALL      968<>CALL      986>>ASSIGN    989--ASSIGN
ERROR
       809**DCL       982<<ASSIGN    986<<ASSIGN    991<<ASSIGN    993<>CALL
EVENT
       810**DCL       973<>CALL      974>>IF        993<>CALL
EVNT
       804**DCL        27--PROC      962>>DOCASE    978>>DOCASE
FOM$SYMBIN
       949**DCL-ENT   959--CALL
FPRGEV
       815**DCL       976<<ASSIGN    981--ASSIGN    985--ASSIGN    990--ASSIGN    993--CALL
FPRGEV.DCBNO
       817**DCL       977<<ASSIGN
FPRGEV.FPRG
       831**DCL       981--ASSIGN    985--ASSIGN    989<<ASSIGN
FPRGEV.P#
       817**DCL       981<<ASSIGN    981--ASSIGN    985<<ASSIGN    985--ASSIGN    990<<ASSIGN    990--ASSIGN
FPRGEV.SUBC2
       817**DCL       980<<ASSIGN    984<<ASSIGN    988<<ASSIGN
KIA$GETEVNT
       944**DCL-ENT   973--CALL
KQP$FPABORT
       945**DCL-ENT   966--CALL
KQP$FPEXIT
       946**DCL-ENT   964--CALL
KQP$FPLDTRC
       947**DCL-ENT   968--CALL
NK$LDCT
       771**DCL        27--PROC      959<>CALL      964<>CALL      966<>CALL      968<>CALL      973<>CALL
PL6.E3A0      #002=KIF$FPRGEVNT File=KIF$FPRG.:E05TSI                            WED 07/30/97 00:33 Page:175
NK$LDCT.DDT$
       773**DCL       773--REDEF
NK$LDCT.DFLG.SYMBIONT
       776**DCL       957>>IF
NK$LDCT.IOQ$
       772**DCL       773--REDEF
NK$LDCT.LDCTX
       774**DCL       774--REDEF
NK$LDCT.LKFLG.ABORTED
       786**DCL       787--REDEF
NK$LDCT.RESCOD
       779**DCL       955>>DOCASE
NK$LDCT.RLCID.LDCTX
       796**DCL       796--REDEF
NK$LDCT.STA$
       792**DCL       793--REDEF
NK$LDCT.SYMB$
       771**DCL       771--REDEF     771--REDEF     772--REDEF
NK$LDCT.UDCBNO
       796**DCL       977>>ASSIGN
NK$LDCT.USER
       781**DCL       993<>CALL
SSV$EVENT
       948**DCL-ENT   993--CALL
VLP$FPRG
       855**DCL       989>>ASSIGN

PL6.E3A0      #003=KIF$WRITE File=KIF$FPRG.:E05TSI                               WED 07/30/97 00:34 Page:176
     1044        1        /*T***********************************************************/
     1045        2        /*T*                                                         */
     1046        3        /*T* Copyright (c) Bull HN Information Systems Inc., 1997    */
     1047        4        /*T*                                                         */
     1048        5        /*T***********************************************************/
     1049        6        /*D* NAME:        KIF$WRITE
     1050        7             PURPOSE:     To write a message through an LDCT for FPRGs
     1051        8             CALL:        CALL KIF$WRITE(LDCT,BUF,BUFLEN) ALTRET(LBL);
     1052        9             INPUT:       LDCT - The LDCT to write through
     1053       10                          BUF - The buffer to write
     1054       11                          BUFLEN - The byte length of BUF
     1055       12             OUTPUT:      B$JIT.ERR is set if an error occurs
     1056       13             DESCRIPTION: KIF$WRITE writes BUF of byte length, BUFLEN, through
     1057       14                          LDCT. If an error occurs, then B$JIT.ERR
     1058       15                          will be filled in and KIF$WRITE will ALTRET;
     1059       16                          otherwise, KIF$WRITE will RETURN.
     1060       17        */
     1061       18
     1062       19        KIF$WRITE: PROC(LDCT,BUF,BUFLEN)  ALTRET;
     1063       20
     1064       21
     1065       22        /* INCLUDES */
     1066       23
     1067       24        %INCLUDE B$JIT;
     1068      314        %INCLUDE CP_6_SUBS;
     1069      854        %INCLUDE F_FPTCODE_C;
     1070      890        %INCLUDE F$DCB;
     1071      939        %INCLUDE NK$LDCT;
     1072     1041
     1073     1042        /* PARAMETERS */
     1074     1043
     1075     1044    1   DCL LDCT UBIN /* dummy DCL - only its address is ever used here */;
     1076     1045    1   DCL BUF CHAR(1);
     1077     1046    1   DCL BUFLEN UBIN;
     1078     1047
     1079     1048        /* AUTO */
     1080     1049
PL6.E3A0      #003=KIF$WRITE File=KIF$FPRG.:E05TSI                               WED 07/30/97 00:34 Page:177
     1081     1050    1   DCL FCN UBIN WORD;
     1082     1051    1   DCL DVBYTE BIT(9) CALIGNED;
     1083     1052    1   DCL VFCCHAR CHAR(1);
     1084     1053    1   DCL UB$ PTR;
     1085     1054    1   DCL LEN UBIN;
     1086     1055    1   DCL EVNT UBIN;
     1087     1056    1   DCL TYC REDEF EVNT BIT(36);
     1088     1057
     1089     1058        /* SUBs */
     1090     1059
     1091     1060        %SUB KI#='1311'O;
     1092     1061        %SUB F#='06'O;
     1093     1062
     1094     1063        /* SYMREFs */
     1095     1064
     1096     1065    1   DCL B$JIT$ PTR SYMREF;
     1097     1066
     1098     1067        /* ENTDEFs */
     1099     1068    1   DCL KIA$UCIOND ENTRY(7) ALTRET;
     1100     1069
     1101     1070        /* BASED */
     1102     1071        %NK$LDCT;
     1103     1117        %EJECT;
PL6.E3A0      #003=KIF$WRITE File=KIF$FPRG.:E05TSI                               WED 07/30/97 00:34 Page:178
     1104     1118        /* KIF$WRITE
     1105     1119        */
     1106     1120    1      FCN=MFC_WRITE;
     1107     1121    1   IO: ;
     1108     1122    1      DVBYTE=%DVBYTE_BP#;
     1109     1123    1      VFCCHAR=' ';
     1110     1124    1      EVNT=0;
     1111     1125    1      UB$=ADDR(BUF);
     1112     1126    1      LEN=BUFLEN;
     1113     1127    1      B$JIT.ERR='0'B;
     1114     1128    1      CALL KIA$UCIOND (FCN,DVBYTE,VFCCHAR,EVNT,UB$,LEN,LDCT)
     1115     1129    2      WHENALTRETURN DO;
     1116     1130    2           B$JIT.ERR.FCG=KI#;
     1117     1131    2           B$JIT.ERR.MID=F#;
     1118     1132    2           ALTRETURN;
     1119     1133    2           END;
     1120     1134    1      RETURN;
     1121     1135
     1122     1136        /*D* NAME:        KIF$READ
     1123     1137             PURPOSE:     To read BUF through LDCT
     1124     1138             DESCRIPTION: Same as KIF$WRITE except KIF$READ reads instead of
     1125     1139                          writes
     1126     1140        */
     1127     1141
     1128     1142
     1129     1143    1   KIF$READ: ENTRY(LDCT,BUF,BUFLEN) ALTRET;
     1130     1144
     1131     1145    1      FCN=MFC_READ;
     1132     1146    1      ADDR(LDCT)->NK$LDCT.RDSOUT = 0;
     1133     1147    1      GOTO IO;
     1134     1148        /*D* NAME:        KIF$WRITE_IMD
     1135     1149             PURPOSE:     To write BUF through LDCT
     1136     1150             DESCRIPTION: Same as KIF$WRITE except no throttling is used.
     1137     1151        */
     1138     1152
     1139     1153
     1140     1154    1   KIF$WRITE_IMD: ENTRY(LDCT,BUF,BUFLEN) ALTRET;
PL6.E3A0      #003=KIF$WRITE File=KIF$FPRG.:E05TSI                               WED 07/30/97 00:34 Page:179
     1141     1155
     1142     1156    1      FCN=MFC_WRIMD;
     1143     1157    1      GOTO IO;
     1144     1158    1   END KIF$WRITE;
     1145     1159        %EOD;

PL6.E3A0      #003=KIF$WRITE File=KIF$FPRG.:E05TSI                               WED 07/30/97 00:34 Page:180
--  Include file information  --

   NK$LDCT.:E05TOU  is referenced.
   F$DCB.:E05TOU  cannot be made into a system file and is referenced.
   F_FPTCODE_C.:E05TOU  is referenced.
   CP_6_SUBS.:E05TOU  is referenced.
   B$JIT.:E05TOU  cannot be made into a system file and is referenced.
   B$JIT_C.:E05TOU  was found in the system file and is referenced.
   CP_6_C.:E05TOU  was found in the system file and is never referenced.
      No diagnostics issued in procedure KIF$WRITE.

   Procedure KIF$WRITE requires 54 words for executable code.
   Procedure KIF$WRITE requires 20 words of local(AUTO) storage.

PL6.E3A0      #003=KIF$WRITE File=KIF$FPRG.:E05TSI                               WED 07/30/97 00:34 Page:181

 Object Unit name= KIF$WRITE                                  File name= KIF$FPRG.:E05TOU
 UTS= JUL 30 '97 00:34:15.36 WED                              Compiler= PL-6/E31         Sev=      00
 SharedLib= :SHARED_SYSTEM                                    Alt SharedLib=


    ****  Control sections  ****

 Sect   Type Bound  Init  Size OctSiz  Section name(segment info)
    0   Proc  even  none    54     66  KIF$WRITE

    ****  Entry defs  ****

                              Check   Calling
                             calling  sequence
  Sect OctLoc Primary Altret sequence   type   Parms  Name
     0      0   yes    yes     yes      Std        3  KIF$WRITE
     0     52          yes     yes      Std        3  KIF$READ
     0     61          yes     yes      Std        3  KIF$WRITE_IMD

  ****  Entry refs  ****

         Check        Calling
        calling       sequence
Altret sequence SRef   type   Args  Name
 yes     yes           Std       7 KIA$UCIOND
                       nStd      0 X66_AUTO_3
                       Std       0 B_CONSPOOL_D
                       nStd      0 X66_AALT
                       nStd      0 X66_ARET

  ****  Data refs  ****

  Flags:  r = read only, s = secondary
Flgs Name                             Flgs Name                             Flgs Name
     B$JIT$                                B_VECTNIL
PL6.E3A0      #003=KIF$WRITE File=KIF$FPRG.:E05TSI                               WED 07/30/97 00:34 Page:182


     1044        1        /*T***********************************************************/
     1045        2        /*T*                                                         */
     1046        3        /*T* Copyright (c) Bull HN Information Systems Inc., 1997    */
     1047        4        /*T*                                                         */
     1048        5        /*T***********************************************************/
     1049        6        /*D* NAME:        KIF$WRITE
     1050        7             PURPOSE:     To write a message through an LDCT for FPRGs
     1051        8             CALL:        CALL KIF$WRITE(LDCT,BUF,BUFLEN) ALTRET(LBL);
     1052        9             INPUT:       LDCT - The LDCT to write through
     1053       10                          BUF - The buffer to write
     1054       11                          BUFLEN - The byte length of BUF
     1055       12             OUTPUT:      B$JIT.ERR is set if an error occurs
     1056       13             DESCRIPTION: KIF$WRITE writes BUF of byte length, BUFLEN, through
     1057       14                          LDCT. If an error occurs, then B$JIT.ERR
     1058       15                          will be filled in and KIF$WRITE will ALTRET;
     1059       16                          otherwise, KIF$WRITE will RETURN.
     1060       17        */
     1061       18
     1062       19        KIF$WRITE: PROC(LDCT,BUF,BUFLEN)  ALTRET;

     19  0 000000   000000 700200 xent  KIF$WRITE    TSX0  ! X66_AUTO_3
         0 000001   000024 000003                    ZERO    20,3

     1063       20
     1064       21
     1065       22        /* INCLUDES */
     1066       23
     1067       24        %INCLUDE B$JIT;
     1068      314        %INCLUDE CP_6_SUBS;
     1069      854        %INCLUDE F_FPTCODE_C;
     1070      890        %INCLUDE F$DCB;
     1071      939        %INCLUDE NK$LDCT;
     1072     1041
     1073     1042        /* PARAMETERS */
     1074     1043
     1075     1044    1   DCL LDCT UBIN /* dummy DCL - only its address is ever used here */;
PL6.E3A0      #003=KIF$WRITE File=KIF$FPRG.:E05TSI                               WED 07/30/97 00:34 Page:183
     1076     1045    1   DCL BUF CHAR(1);
     1077     1046    1   DCL BUFLEN UBIN;
     1078     1047
     1079     1048        /* AUTO */
     1080     1049
     1081     1050    1   DCL FCN UBIN WORD;
     1082     1051    1   DCL DVBYTE BIT(9) CALIGNED;
     1083     1052    1   DCL VFCCHAR CHAR(1);
     1084     1053    1   DCL UB$ PTR;
     1085     1054    1   DCL LEN UBIN;
     1086     1055    1   DCL EVNT UBIN;
     1087     1056    1   DCL TYC REDEF EVNT BIT(36);
     1088     1057
     1089     1058        /* SUBs */
     1090     1059
     1091     1060        %SUB KI#='1311'O;
     1092     1061        %SUB F#='06'O;
     1093     1062
     1094     1063        /* SYMREFs */
     1095     1064
     1096     1065    1   DCL B$JIT$ PTR SYMREF;
     1097     1066
     1098     1067        /* ENTDEFs */
     1099     1068    1   DCL KIA$UCIOND ENTRY(7) ALTRET;
     1100     1069
     1101     1070        /* BASED */
     1102     1071        %NK$LDCT;
     1103     1117        %EJECT;
PL6.E3A0      #003=KIF$WRITE File=KIF$FPRG.:E05TSI                               WED 07/30/97 00:34 Page:184
     1104     1118        /* KIF$WRITE
     1105     1119        */
     1106     1120    1      FCN=MFC_WRITE;

   1120  0 000002   000001 235007                    LDA     1,DL
         0 000003   200006 755100                    STA     FCN,,AUTO

   1120  0 000004                       IO           null
     1107     1121    1   IO: ;
     1108     1122    1      DVBYTE=%DVBYTE_BP#;

   1122  0 000004   200000 236003                    LDQ     65536,DU
         0 000005   200007 756100                    STQ     DVBYTE,,AUTO

     1109     1123    1      VFCCHAR=' ';

   1123  0 000006   040000 236003                    LDQ     16384,DU
         0 000007   200010 756100                    STQ     VFCCHAR,,AUTO

     1110     1124    1      EVNT=0;

   1124  0 000010   200013 450100                    STZ     EVNT,,AUTO

     1111     1125    1      UB$=ADDR(BUF);

   1125  0 000011   200004 236100                    LDQ     @BUF,,AUTO
         0 000012   200011 756100                    STQ     UB$,,AUTO

     1112     1126    1      LEN=BUFLEN;

   1126  0 000013   200005 470500                    LDP0    @BUFLEN,,AUTO
         0 000014   000000 235100                    LDA     0,,PR0
         0 000015   200012 755100                    STA     LEN,,AUTO

     1113     1127    1      B$JIT.ERR='0'B;

   1127  0 000016   000000 471400 xsym               LDP1    B$JIT$
PL6.E3A0      #003=KIF$WRITE File=KIF$FPRG.:E05TSI                               WED 07/30/97 00:34 Page:185
         0 000017   100012 450100                    STZ     10,,PR1

     1114     1128    1      CALL KIA$UCIOND (FCN,DVBYTE,VFCCHAR,EVNT,UB$,LEN,LDCT)

   1128  0 000020   200003 236100                    LDQ     @LDCT,,AUTO
         0 000021   200022 756100                    STQ     EVNT+7,,AUTO
         0 000022   200012 633500                    EPPR3   LEN,,AUTO
         0 000023   200021 453500                    STP3    EVNT+6,,AUTO
         0 000024   200011 634500                    EPPR4   UB$,,AUTO
         0 000025   200020 454500                    STP4    EVNT+5,,AUTO
         0 000026   200013 635500                    EPPR5   EVNT,,AUTO
         0 000027   200017 455500                    STP5    EVNT+4,,AUTO
         0 000030   200010 636500                    EPPR6   VFCCHAR,,AUTO
         0 000031   200016 456500                    STP6    EVNT+3,,AUTO
         0 000032   200007 637500                    EPPR7   DVBYTE,,AUTO
         0 000033   200015 457500                    STP7    EVNT+2,,AUTO
         0 000034   200006 630500                    EPPR0   FCN,,AUTO
         0 000035   200014 450500                    STP0    EVNT+1,,AUTO
         0 000036   200014 630500                    EPPR0   EVNT+1,,AUTO
         0 000037   000025 631400 xsym               EPPR1   B_VECTNIL+21
         0 000040   000000 701000 xent               TSX1    KIA$UCIOND
         0 000041   000043 702000 0                  TSX2    s:1130
         0 000042   000051 710000 0                  TRA     s:1134

     1115     1129    2      WHENALTRETURN DO;

     1116     1130    2           B$JIT.ERR.FCG=KI#;

   1130  0 000043   000000 470400 xsym               LDP0    B$JIT$
         0 000044   131100 236003                    LDQ     45632,DU
         0 000045   000012 752160                    STCQ    10,'60'O,PR0

     1117     1131    2           B$JIT.ERR.MID=F#;

   1131  0 000046   000006 236003                    LDQ     6,DU
         0 000047   000012 752110                    STCQ    10,'10'O,PR0

PL6.E3A0      #003=KIF$WRITE File=KIF$FPRG.:E05TSI                               WED 07/30/97 00:34 Page:186
     1118     1132    2           ALTRETURN;

   1132  0 000050   000000 702200 xent               TSX2  ! X66_AALT

     1119     1133    2           END;
     1120     1134    1      RETURN;

   1134  0 000051   000000 702200 xent               TSX2  ! X66_ARET

     1121     1135
     1122     1136        /*D* NAME:        KIF$READ
     1123     1137             PURPOSE:     To read BUF through LDCT
     1124     1138             DESCRIPTION: Same as KIF$WRITE except KIF$READ reads instead of
     1125     1139                          writes
     1126     1140        */
     1127     1141
     1128     1142
     1129     1143    1   KIF$READ: ENTRY(LDCT,BUF,BUFLEN) ALTRET;

   1143  0 000052   000000 700200 xent  KIF$READ     TSX0  ! X66_AUTO_3
         0 000053   000024 000003                    ZERO    20,3

     1130     1144
     1131     1145    1      FCN=MFC_READ;

   1145  0 000054   200006 450100                    STZ     FCN,,AUTO

     1132     1146    1      ADDR(LDCT)->NK$LDCT.RDSOUT = 0;

   1146  0 000055   200003 470500                    LDP0    @LDCT,,AUTO
         0 000056   000000 236003                    LDQ     0,DU
         0 000057   000007 752140                    STCQ    7,'40'O,PR0

     1133     1147    1      GOTO IO;

   1147  0 000060   000004 710000 0                  TRA     IO

PL6.E3A0      #003=KIF$WRITE File=KIF$FPRG.:E05TSI                               WED 07/30/97 00:34 Page:187
     1134     1148        /*D* NAME:        KIF$WRITE_IMD
     1135     1149             PURPOSE:     To write BUF through LDCT
     1136     1150             DESCRIPTION: Same as KIF$WRITE except no throttling is used.
     1137     1151        */
     1138     1152
     1139     1153
     1140     1154    1   KIF$WRITE_IMD: ENTRY(LDCT,BUF,BUFLEN) ALTRET;

   1154  0 000061   000000 700200 xent  KIF$WRITE_I* TSX0  ! X66_AUTO_3
         0 000062   000024 000003                    ZERO    20,3

     1141     1155
     1142     1156    1      FCN=MFC_WRIMD;

   1156  0 000063   000016 235007                    LDA     14,DL
         0 000064   200006 755100                    STA     FCN,,AUTO

     1143     1157    1      GOTO IO;

   1157  0 000065   000004 710000 0                  TRA     IO
     1144     1158    1   END KIF$WRITE;
     1145     1159        %EOD;

PL6.E3A0      #003=KIF$WRITE File=KIF$FPRG.:E05TSI                               WED 07/30/97 00:34 Page:188
--  Include file information  --

   NK$LDCT.:E05TOU  is referenced.
   F$DCB.:E05TOU  cannot be made into a system file and is referenced.
   F_FPTCODE_C.:E05TOU  is referenced.
   CP_6_SUBS.:E05TOU  is referenced.
   B$JIT.:E05TOU  cannot be made into a system file and is referenced.
   B$JIT_C.:E05TOU  was found in the system file and is referenced.
   CP_6_C.:E05TOU  was found in the system file and is never referenced.
      No diagnostics issued in procedure KIF$WRITE.
PL6.E3A0      #003=KIF$WRITE File=KIF$FPRG.:E05TSI                               WED 07/30/97 00:34 Page:189

 **** Variables and constants ****

  ****  Auto variables  ****

  ****  Scalars and arrays  ****
OctLoc.c.b A Datatyp(siz) R M Lvl/name                 OctLoc.c.b A Datatyp(siz) R M Lvl/name

     4-0-0/w PTR         r     1 @BUF                       5-0-0/w PTR         r     1 @BUFLEN
     3-0-0/w PTR         r     1 @LDCT                     *0-0-0/c CHAR        r     1 BUF
    *0-0-0/w UBIN        r     1 BUFLEN                     7-0-0/c BIT (9)     r     1 DVBYTE
    13-0-0/w UBIN        r     1 EVNT                       6-0-0/w UBIN        r     1 FCN
    *0-0-0/w UBIN        r     1 LDCT                      12-0-0/w UBIN        r     1 LEN
    11-0-0/w PTR         r     1 UB$                       10-0-0/c CHAR        r     1 VFCCHAR

  ****  SYMREF variables  ****

  ****  Scalars and arrays  ****
OctLoc.c.b A Datatyp(siz) R M Lvl/name                 OctLoc.c.b A Datatyp(siz) R M Lvl/name

     0-0-0/w PTR         r     1 B$JIT$

  ****  BASED and DCB variables  ****

  ****  Scalars and arrays  ****
OctLoc.c.b A Datatyp(siz) R M Lvl/name                 OctLoc.c.b A Datatyp(siz) R M Lvl/name

     0-0-0/d STRC(8856)  r     1 B$JIT                      0-0-0/d ASTR(3528)  r     1 F$DCB
     0-0-0/d STRC(864)   r     1 NK$LDCT


   Procedure KIF$WRITE requires 54 words for executable code.
   Procedure KIF$WRITE requires 20 words of local(AUTO) storage.
PL6.E3A0      #003=KIF$WRITE File=KIF$FPRG.:E05TSI                               WED 07/30/97 00:34 Page:190
          *** CROSS REFERENCE LISTING ***
**     DENOTES     IDENTIFIER DEFINITION
<<                 IDENTIFIER'S VALUE SET
>>                 IDENTIFIER'S VALUE USED
<>                 IDENTIFIER SET AND/OR USED
--                 IDENTIFIER REFERENCED
PL6.E3A0      #003=KIF$WRITE File=KIF$FPRG.:E05TSI                               WED 07/30/97 00:34 Page:191
          MINI XREF LISTING

B$JIT.CPFLAGS1.SLEAZE
       132**DCL       132--REDEF
B$JIT.ERR
        38**DCL      1127<<ASSIGN
B$JIT.ERR.FCG
        38**DCL      1130<<ASSIGN
B$JIT.ERR.MID
        39**DCL        39--REDEF    1131<<ASSIGN
B$JIT.JRESPEAK
       200**DCL       201--REDEF
B$JIT.ORIGINATOR_PORT.FROM_CR
       309**DCL       309--REDEF     310--REDEF
B$JIT.PNR
       213**DCL       213--REDEF
B$JIT.TSLINE
       307**DCL       308--REDEF
B$JIT$
      1065**DCL        33--IMP-PTR  1127>>ASSIGN   1130>>ASSIGN   1131>>ASSIGN
BUF
      1045**DCL        19--PROC     1125--ASSIGN   1143--ENTRY    1154--ENTRY
BUFLEN
      1046**DCL        19--PROC     1126>>ASSIGN   1143--ENTRY    1154--ENTRY
DVBYTE
      1051**DCL      1122<<ASSIGN   1128<>CALL
EVNT
      1055**DCL      1056--REDEF    1124<<ASSIGN   1128<>CALL
F$DCB.ACTPOS
       916**DCL       916--REDEF
F$DCB.ARS
       891**DCL       891--REDEF
F$DCB.ATTR
       909**DCL       910--REDEF
PL6.E3A0      #003=KIF$WRITE File=KIF$FPRG.:E05TSI                               WED 07/30/97 00:34 Page:192
F$DCB.BORROW
       924**DCL       924--REDEF     924--REDEF     924--REDEF
F$DCB.DCBNAME.L
       938**DCL       938--IMP-SIZ
F$DCB.EOMCHAR
       895**DCL       895--REDEF
F$DCB.FLDID
       919**DCL       919--REDEF
F$DCB.FORM$
       913**DCL       913--REDEF
F$DCB.FSECT
       929**DCL       929--REDEF
F$DCB.FSN
       906**DCL       906--REDEF     906--REDEF     907--REDEF
F$DCB.HEADER$
       912**DCL       912--REDEF
F$DCB.IXTNSIZE
       910**DCL       910--REDEF
F$DCB.LASTSTA$
       900**DCL       900--REDEF
F$DCB.LVL
       925**DCL       925--REDEF
F$DCB.NAME.C
       900**DCL       900--REDEF
F$DCB.NOEOF
       921**DCL       921--REDEF
F$DCB.NRECS
       911**DCL       911--REDEF
F$DCB.NRECX
       930**DCL       930--REDEF
F$DCB.OHDR
       922**DCL       922--REDEF
F$DCB.ORG
       905**DCL       905--REDEF
F$DCB.PRECNO
       928**DCL       928--REDEF
PL6.E3A0      #003=KIF$WRITE File=KIF$FPRG.:E05TSI                               WED 07/30/97 00:34 Page:193
F$DCB.RCSZ
       933**DCL       933--REDEF
F$DCB.RES
       901**DCL       901--REDEF
F$DCB.SETX
       913**DCL       913--REDEF
F$DCB.TAB$
       912**DCL       913--REDEF
F$DCB.TDA
       927**DCL       927--REDEF
F$DCB.WSN
       902**DCL       902--REDEF
FCN
      1050**DCL      1120<<ASSIGN   1128<>CALL     1145<<ASSIGN   1156<<ASSIGN
IO
      1120**LABEL    1147--GOTO     1157--GOTO
KIA$UCIOND
      1068**DCL-ENT  1128--CALL
LDCT
      1044**DCL        19--PROC     1128<>CALL     1143--ENTRY    1146--ASSIGN   1154--ENTRY
LEN
      1054**DCL      1126<<ASSIGN   1128<>CALL
NK$LDCT.DDT$
      1086**DCL      1086--REDEF
NK$LDCT.IOQ$
      1085**DCL      1086--REDEF
NK$LDCT.LDCTX
      1087**DCL      1087--REDEF
NK$LDCT.LKFLG.ABORTED
      1099**DCL      1100--REDEF
NK$LDCT.RDSOUT
      1093**DCL      1146<<ASSIGN
NK$LDCT.RLCID.LDCTX
      1109**DCL      1109--REDEF
NK$LDCT.STA$
      1105**DCL      1106--REDEF
PL6.E3A0      #003=KIF$WRITE File=KIF$FPRG.:E05TSI                               WED 07/30/97 00:34 Page:194
NK$LDCT.SYMB$
      1084**DCL      1084--REDEF    1084--REDEF    1085--REDEF
UB$
      1053**DCL      1125<<ASSIGN   1128<>CALL
VFCCHAR
      1052**DCL      1123<<ASSIGN   1128<>CALL

PL6.E3A0      #004=KIF$SEND File=KIF$FPRG.:E05TSI                                WED 07/30/97 00:34 Page:195
     1146        1        /*T***********************************************************/
     1147        2        /*T*                                                         */
     1148        3        /*T* Copyright (c) Bull HN Information Systems Inc., 1997    */
     1149        4        /*T*                                                         */
     1150        5        /*T***********************************************************/
     1151        6        /*D* NAME:        KIF$SEND
     1152        7             PURPOSE:     To send a library, debugger or command processor to the FEP
     1153        8             CALL:        CALL KIF$SEND(LDCT$,VLP_NAME,RUTYPE) ALTRET(LBL);
     1154        9             INPUT:       LDCT - The LDCT to send through
     1155       10                          VLP_NAME - The name of the run unit to send
     1156       11                          RUTYPE -  The type of run unit to send. This is one
     1157       12                                    of %GJ_LIB_DATA# or %GJ_DB_DATA# for
     1158       13                                    library or debugger respectively.
     1159       14             DESCRIPTION: KIF$SEND opens M$STAR (if it is closed) to VLP_NAME.:SYS
     1160       15                          and checks to see that the file exists, has a head
     1161       16                          record of the proper size, is FEP-flavored and is
     1162       17                          the correct type, either library or debugger. If
     1163       18                          all is well, KIF$SEND responds with a GJ_ALIB_DATA
     1164       19                          message. KIF$SEND then converses by reading and
     1165       20                          responding until a %GJ_NAK# or a %GJ_GETxx_DONE#
     1166       21                          is read. The response is to send the requested record
     1167       22                          from the run unit.
     1168       23                          If any problems occur, KIF$SEND will ALTRET with the
     1169       24                          error in B$JIT.ERR.
     1170       25        */
     1171       26
     1172       27
     1173       28        KIF$SEND: PROC(LDCT,VLP_NAME,RUTYPE) ALTRET;
     1174       29
     1175       30
     1176       31                                                /* INCLUDE Files            */
     1177       32        %INCLUDE B$JIT;
     1178      322        %INCLUDE B$OBJECT_C;
     1179     3752        %INCLUDE CP_6_SUBS;
     1180     4292        %INCLUDE CP_6;
     1181     4373        %INCLUDE F$DCB;
     1182     4422        %INCLUDE GJ_MSG_M;
PL6.E3A0      #004=KIF$SEND File=KIF$FPRG.:E05TSI                                WED 07/30/97 00:34 Page:196
     1183     4735        %GJ_FCN#;
     1184     4761                                                /* AUTO Storage             */
     1185     4762    1   DCL LDCT UBIN /* dummy DCL - only its address is ever used here */;
     1186     4763        %VLP_NAME(FPTN=VLP_NAME,LEN=31,STCLASS="");
     1187     4790    1   DCL RUTYPE UBIN;
     1188     4791    1   DCL STARDCB$ PTR;
     1189     4792    1   DCL MYERR BIT(36);
     1190     4793    1   DCL TEMP UBIN;
     1191     4794    1   DCL TEMPB REDEF TEMP BIT(36);
     1192     4795    1   DCL WRITE_BYSZ SBIN;
     1193     4796    1   DCL TOTAL_BYSZ SBIN;
     1194     4797    1   DCL RECORD_BYSZ SBIN;
     1195     4798    1   DCL N_READS SBIN;
     1196     4799    1   DCL BF2$ PTR;
     1197     4800        %B$FEP_RUKEY (NAME=ADKEY,STCLASS=AUTO);
     1198     4824        %RU_FLAVORS;
     1199     4830        %GJ_ALIB_DATA(FPTN=DATAMSG,STCLASS=AUTO);
     1200     4879        %GJ_PROGKEY_MSG (STCLASS=AUTO);
     1201     4934        %FPT_READ(FPTN=FPT_READ,STCLASS=AUTO);
     1202     4973                                                /* BASED Structures         */
     1203     4974        %GJ_FCN_MSG (FPTN=FCNMSG,STCLASS=BASED);
     1204     4999    1   DCL CHAR$1 CHAR(1) BASED;
     1205     5000        %B$HEAD(NAME=B$HEAD,STCLASS="BASED(FPT_READ.BUF_.BUF$)");
     1206     5200                                                /* SYMREFs                  */
     1207     5201        %FPT_READ(FPTN=KIF_FPT_READ,STCLASS=SYMREF);
     1208     5240        %VLP_NAME (FPTN=KIF_HDKEY,STCLASS=SYMREF,NAME='HEAD',LEN=7);
     1209     5267    1   DCL KIF_BADHEAD BIT(36) SYMREF;
     1210     5268    1   DCL KIF_NONFP BIT(36) SYMREF;
     1211     5269    1   DCL KIF_UNEXPT BIT(36) SYMREF;
     1212     5270    1   DCL B$JIT$ PTR SYMREF READONLY;
     1213     5271    1   DCL B$M$STAR$ PTR SYMREF READONLY;
     1214     5272
     1215     5273        %SUB MONBIT#='000000400000'O;
     1216     5274
     1217     5275                                                /* External Procedures      */
     1218     5276    1   DCL EMR$FEP2HOST ENTRY(2);
     1219     5277    1   DCL EMR$HOST2FEP ENTRY(2);
PL6.E3A0      #004=KIF$SEND File=KIF$FPRG.:E05TSI                                WED 07/30/97 00:34 Page:197
     1220     5278    1   DCL FMM$SCRUB ENTRY(1);
     1221     5279    1   DCL FMP$CLSJ ENTRY;
     1222     5280    1   DCL FMM$DFLOPN ENTRY;
     1223     5281    1   DCL FMD$GBUF ENTRY(1);
     1224     5282    1   DCL FMD$RBUF ENTRY(1);
     1225     5283    1   DCL SC_FPRG ENTRY CONV(2,0);            /* SNAP                     */
     1226     5284    1   DCL M$MREAD ENTRY(1) ALTRET;
     1227     5285    1   DCL KIA$8TO9 ENTRY(3);
     1228     5286    1   DCL KIA$9TO8 ENTRY(3);
     1229     5287    1   DCL KIF$READ ENTRY(3) ALTRET;
     1230     5288    1   DCL KIF$WRITE ENTRY(3) ALTRET;
     1231     5289
     1232     5290        %EJECT;
PL6.E3A0      #004=KIF$SEND File=KIF$FPRG.:E05TSI                                WED 07/30/97 00:34 Page:198
     1233     5291        /* KIF$SEND
     1234     5292        */
     1235     5293    1      MYERR='0'B;
     1236     5294    1      FPT_READ=KIF_FPT_READ;
     1237     5295    1      CALL FMD$GBUF(FPT_READ.BUF_.BUF$);
     1238     5296    1      FPT_READ.V_=VECTOR(FPT_READ.V);
     1239     5297    1      FPT_READ.BUF_.BOUND=4095;
     1240     5298    1      STARDCB$=B$M$STAR$;
     1241     5299    1      B$JIT.DCB$=STARDCB$;
     1242     5300
     1243     5301    1      IF STARDCB$->F$DCB.FCD
     1244     5302    2      THEN DO;
     1245     5303    2           CALL SC_FPRG;
     1246     5304    2           CALL FMP$CLSJ;
     1247     5305    2           END;
     1248     5306    1      CALL FMM$SCRUB(B$JIT.DCB$);
     1249     5307    1      STARDCB$->F$DCB.NAME=VLP_NAME;
     1250     5308    1      STARDCB$->F$DCB.ACCT=':SYS';
     1251     5309    1      STARDCB$->F$DCB.ASN=%FILE#;
     1252     5310    1      STARDCB$->F$DCB.FUN=%IN#;
     1253     5311    1      STARDCB$->F$DCB.ACS=%DIRECT#;
     1254     5312    1      B$JIT.ERR='0'B;
     1255     5313    1      STARDCB$->F$DCB.WSR=0;               /* Pretend that we are STEP */
     1256     5314    1      CALL FMM$DFLOPN;
     1257     5315
     1258     5316    1      IF B$JIT.ERR~='0'B
     1259     5317    2      THEN DO;
     1260     5318    2   JITERR: MYERR=B$JIT.ERR;
     1261     5319    2   SETERR: MYERR = (MYERR | MONBIT#);
     1262     5320    2           CALL EMR$HOST2FEP(TEMPB,MYERR);
     1263     5321    2           DATAMSG.FCN = %GJ_NAK#;
     1264     5322    2           DATAMSG.ERR = TEMPB;
     1265     5323    2           CALL KIF$WRITE(LDCT,DATAMSG,LENGTHC(FCNMSG));
     1266     5324    2           GOTO READ_FEP/*fep will return a nak*/;
     1267     5325    2           END;
     1268     5326
     1269     5327        /* Now read in the file's HEAD record. */
PL6.E3A0      #004=KIF$SEND File=KIF$FPRG.:E05TSI                                WED 07/30/97 00:34 Page:199
     1270     5328    1      FPT_READ.V.DCB#=%M$STAR#;
     1271     5329    1      FPT_READ.KEY_=VECTOR(KIF_HDKEY);
     1272     5330    1      CALL M$MREAD (FPT_READ)
     1273     5331    2      WHENALTRETURN DO;
     1274     5332    2           MYERR = B$JIT.ERR;
     1275     5333    2           GOTO SETERR;
     1276     5334    2           END;
     1277     5335
     1278     5336    1      IF STARDCB$->F$DCB.ARS ~= LENGTHC(B$HEAD)
     1279     5337    2      THEN DO;
     1280     5338    2           MYERR=KIF_BADHEAD;
     1281     5339    2           GOTO SETERR;
     1282     5340    2           END;
     1283     5341        /* Make sure the file is the proper flavor and is appropriately a library or */
     1284     5342        /* a debugger                                                                */
     1285     5343    1      IF B$HEAD.FLAVOR~=%FEP_RU
     1286     5344    1        OR (RUTYPE=%GJ_LIB_DATA# AND B$HEAD.LIB~='1'B)
     1287     5345    1        OR (RUTYPE=%GJ_DB_DATA# AND B$HEAD.DEBUGGER~='1'B)
     1288     5346    2      THEN DO;
     1289     5347    2           MYERR=KIF_NONFP;
     1290     5348    2           GOTO SETERR;
     1291     5349    2           END;
     1292     5350        %EJECT;
PL6.E3A0      #004=KIF$SEND File=KIF$FPRG.:E05TSI                                WED 07/30/97 00:34 Page:200
     1293     5351
     1294     5352    1   SEND_DATAMSG: ;
     1295     5353    1      DATAMSG='0'B;
     1296     5354    1      DATAMSG.FCN=RUTYPE;
     1297     5355    1      TEMP = B$HEAD.RDATA;
     1298     5356    1      CALL KIA$9TO8(TEMP,DATAMSG.DATA_SZ,4);
     1299     5357    1      TEMP = B$HEAD.RPROC;
     1300     5358    1      CALL KIA$9TO8(TEMP,DATAMSG.PROC_SZ,4);
     1301     5359    1      CALL EMR$HOST2FEP(TEMPB,MYERR);
     1302     5360    1      DATAMSG.ERR = TEMPB;
     1303     5361    1      CALL KIF$WRITE(LDCT,DATAMSG,LENGTHC(DATAMSG))
     1304     5362    2      WHENALTRETURN DO;
     1305     5363    2           MYERR= (B$JIT.ERR | MONBIT#);
     1306     5364    2           END;
     1307     5365    1      IF MYERR ~= '0'B
     1308     5366    1      THEN GOTO XIT;
     1309     5367
     1310     5368        %EJECT;
PL6.E3A0      #004=KIF$SEND File=KIF$FPRG.:E05TSI                                WED 07/30/97 00:34 Page:201
     1311     5369        /* Now continually read for key requests and write responses until           */
     1312     5370        /* we receive a %GJ_GETxx_DONE# or a %GJ_NAK#                                */
     1313     5371    1   READ_FEP: ;
     1314     5372    1      FPT_READ.KEY_=VECTOR(ADKEY);
     1315     5373    2      DO WHILE ('1'B);
     1316     5374    2           CALL KIF$READ(LDCT,GJ_PROGKEY_MSG,LENGTHC(GJ_PROGKEY_MSG)) ALTRET(XIT);
     1317     5375    3           DO CASE (GJ_PROGKEY_MSG.FCN);
     1318     5376    3            CASE (%GJ_GETLIB#,%GJ_GETDB#); /* Get record from rununit  */
     1319     5377
     1320     5378    3              ADKEY = '0'B;
     1321     5379    3              ADKEY.KEYSIZ = GJ_PROGKEY_MSG.RU_KEY.KEYSIZ;
     1322     5380    3              ADKEY.TYPE = GJ_PROGKEY_MSG.RU_KEY.TYPE;
     1323     5381    3              CALL KIA$8TO9(GJ_PROGKEY_MSG.RU_KEY.PAGE,TEMP,4);
     1324     5382    3              ADKEY.PAGE=TEMP;
     1325     5383    3              CALL KIA$8TO9(GJ_PROGKEY_MSG.READ_BYSZ,WRITE_BYSZ,4);
     1326     5384    3              CALL KIA$8TO9(GJ_PROGKEY_MSG.SECT_BYSZ,TOTAL_BYSZ,4);
     1327     5385    3              N_READS = (TOTAL_BYSZ +4096 -1) / 4096;
     1328     5386
     1329     5387    4              DO TEMP = 1 TO N_READS;
     1330     5388    4                   CALL M$MREAD (FPT_READ)
     1331     5389    5                   WHENALTRETURN DO;
     1332     5390    5                        MYERR = B$JIT.ERR;
     1333     5391    5                        END;
     1334     5392    4                   BF2$ = FPT_READ.BUF_.BUF$;
     1335     5393    4                   RECORD_BYSZ = MINIMUM(TOTAL_BYSZ,4096);
     1336     5394    4                   TOTAL_BYSZ = TOTAL_BYSZ - RECORD_BYSZ;
     1337     5395
     1338     5396    5                   DO WHILE RECORD_BYSZ > 0;
     1339     5397    5                        IF WRITE_BYSZ > RECORD_BYSZ THEN WRITE_BYSZ = RECORD_BYSZ;
     1340     5398    5                        CALL KIF$WRITE(LDCT,BF2$->CHAR$1,WRITE_BYSZ)
     1341     5399    6                        WHENALTRETURN DO;
     1342     5400    6                             MYERR = B$JIT.ERR;
     1343     5401    6                             END;
     1344     5402
     1345     5403    5                        BF2$ = PINCRW(BF2$,WRITE_BYSZ/4);
     1346     5404    5                        RECORD_BYSZ = RECORD_BYSZ - WRITE_BYSZ;
     1347     5405    5                        END;
PL6.E3A0      #004=KIF$SEND File=KIF$FPRG.:E05TSI                                WED 07/30/97 00:34 Page:202
     1348     5406    4                   ADKEY.PAGE = ADKEY.PAGE + 2048;
     1349     5407    4                   END;
     1350     5408
     1351     5409    3            CASE (%GJ_NAK#,%GJ_PROG_ABRT#);
     1352     5410
     1353     5411    3              TEMPB = GJ_PROGKEY_MSG.ERR;
     1354     5412    3              CALL EMR$FEP2HOST (TEMPB,MYERR);
     1355     5413    3              GOTO XIT;
     1356     5414
     1357     5415    3            CASE (%GJ_GETLIB_DONE#,%GJ_GETDB_DONE#); /* Fetch complete */
     1358     5416    3              IF MYERR ~= '0'B
     1359     5417    3              THEN MYERR = (MYERR | MONBIT#);
     1360     5418    3              CALL EMR$HOST2FEP(TEMPB,MYERR);
     1361     5419    3              DATAMSG = '0'B;
     1362     5420    3              DATAMSG.ERR = TEMPB;
     1363     5421    3              CALL KIF$WRITE(LDCT,DATAMSG,LENGTHC(FCNMSG));
     1364     5422    3              GOTO XIT;
     1365     5423
     1366     5424    3            CASE (ELSE);                   /* Should never happen      */
     1367     5425
     1368     5426    3              CALL SC_FPRG;
     1369     5427    3              MYERR=KIF_UNEXPT;
     1370     5428    3              GOTO XIT;
     1371     5429
     1372     5430    3              END;                         /* End cases                */
     1373     5431    2           END;                            /* End do forever           */
     1374     5432        %EJECT;
PL6.E3A0      #004=KIF$SEND File=KIF$FPRG.:E05TSI                                WED 07/30/97 00:34 Page:203
     1375     5433    1   XIT: CALL FMP$CLSJ;
     1376     5434    1      IF FPT_READ.BUF_.BUF$~=ADDR(NIL)
     1377     5435    1      THEN CALL FMD$RBUF(FPT_READ.BUF_.BUF$);
     1378     5436
     1379     5437    1      IF MYERR~='0'B
     1380     5438    2      THEN DO;
     1381     5439    2           B$JIT.ERR=MYERR;
     1382     5440    2           ALTRETURN;
     1383     5441    2           END;
     1384     5442    1      RETURN;
     1385     5443    1   END KIF$SEND;

PL6.E3A0      #004=KIF$SEND File=KIF$FPRG.:E05TSI                                WED 07/30/97 00:34 Page:204
--  Include file information  --

   GJ_MSG_M.:E05TOU  is referenced.
   F$DCB.:E05TOU  cannot be made into a system file and is referenced.
   CP_6.:E05TOU  cannot be made into a system file and is referenced.
   CP_6_SUBS.:E05TOU  is referenced.
   B$OBJECT_C.:E05TOU  is referenced.
   B$JIT.:E05TOU  cannot be made into a system file and is referenced.
   B$JIT_C.:E05TOU  was found in the system file and is referenced.
   CP_6_C.:E05TOU  was found in the system file and is referenced.
      No diagnostics issued in procedure KIF$SEND.

   Procedure KIF$SEND requires 434 words for executable code.
   Procedure KIF$SEND requires 44 words of local(AUTO) storage.

    No errors detected in file KIF$FPRG.:E05TSI    .

PL6.E3A0      #004=KIF$SEND File=KIF$FPRG.:E05TSI                                WED 07/30/97 00:34 Page:205

 Object Unit name= KIF$SEND                                   File name= KIF$FPRG.:E05TOU
 UTS= JUL 30 '97 00:34:33.20 WED                              Compiler= PL-6/E31         Sev=      00
 SharedLib= :SHARED_SYSTEM                                    Alt SharedLib=


    ****  Control sections  ****

 Sect   Type Bound  Init  Size OctSiz  Section name(segment info)
    0   DCB   even  none     0      0  M$UC
    1  RoData even  UTS      2      2  KIF$SEND
    2   Proc  even  none   434    662  KIF$SEND
    3  RoData even  none    14     16  KIF$SEND

    ****  Entry defs  ****

                              Check   Calling
                             calling  sequence
  Sect OctLoc Primary Altret sequence   type   Parms  Name
     2      0   yes    yes     yes      Std        3  KIF$SEND
PL6.E3A0      #004=KIF$SEND File=KIF$FPRG.:E05TSI                                WED 07/30/97 00:34 Page:206

  ****  Entry refs  ****

         Check        Calling
        calling       sequence
Altret sequence SRef   type   Args  Name
         yes           Std       1 FMD$GBUF
         yes           Std       0 FMP$CLSJ
         yes           Std       1 FMM$SCRUB
         yes           Std       3 KIA$9TO8
 yes     yes           Std       3 KIF$READ
         yes           Std       3 KIA$8TO9
 yes     yes           Std       3 KIF$WRITE
 yes     yes           Std       1 M$MREAD
         yes           Std       1 FMD$RBUF
         yes           Std       0 FMM$DFLOPN
         yes           Std       2 EMR$HOST2FEP
         yes           Std       2 EMR$FEP2HOST
                       nStd      0 X66_AUTO_3
                       Std       0 B_CONSPOOL_D
                       nStd      0 X66_AALT
                       nStd      0 X66_ARET

  ****  Data refs  ****

  Flags:  r = read only, s = secondary
Flgs Name                             Flgs Name                             Flgs Name
     SC_FPRG                               M$UC                                  KIF_FPT_READ
     KIF_HDKEY                             KIF_BADHEAD                           KIF_NONFP
     KIF_UNEXPT                       r    B$JIT$                           r    B$M$STAR$
     B_VECTNIL

  ****  Segment refs  ****

  Flags:  r = read only, s = secondary
Flgs Name                             Flgs Name                             Flgs Name
     ASLENTSID                             ISSID
PL6.E3A0      #004=KIF$SEND File=KIF$FPRG.:E05TSI                                WED 07/30/97 00:34 Page:207


     1146        1        /*T***********************************************************/
     1147        2        /*T*                                                         */
     1148        3        /*T* Copyright (c) Bull HN Information Systems Inc., 1997    */
     1149        4        /*T*                                                         */
     1150        5        /*T***********************************************************/
     1151        6        /*D* NAME:        KIF$SEND
     1152        7             PURPOSE:     To send a library, debugger or command processor to the FEP
     1153        8             CALL:        CALL KIF$SEND(LDCT$,VLP_NAME,RUTYPE) ALTRET(LBL);
     1154        9             INPUT:       LDCT - The LDCT to send through
     1155       10                          VLP_NAME - The name of the run unit to send
     1156       11                          RUTYPE -  The type of run unit to send. This is one
     1157       12                                    of %GJ_LIB_DATA# or %GJ_DB_DATA# for
     1158       13                                    library or debugger respectively.
     1159       14             DESCRIPTION: KIF$SEND opens M$STAR (if it is closed) to VLP_NAME.:SYS
     1160       15                          and checks to see that the file exists, has a head
     1161       16                          record of the proper size, is FEP-flavored and is
     1162       17                          the correct type, either library or debugger. If
     1163       18                          all is well, KIF$SEND responds with a GJ_ALIB_DATA
     1164       19                          message. KIF$SEND then converses by reading and
     1165       20                          responding until a %GJ_NAK# or a %GJ_GETxx_DONE#
     1166       21                          is read. The response is to send the requested record
     1167       22                          from the run unit.
     1168       23                          If any problems occur, KIF$SEND will ALTRET with the
     1169       24                          error in B$JIT.ERR.
     1170       25        */
     1171       26
     1172       27
     1173       28        KIF$SEND: PROC(LDCT,VLP_NAME,RUTYPE) ALTRET;

     28  2 000000   000000 700200 xent  KIF$SEND     TSX0  ! X66_AUTO_3
         2 000001   000054 000003                    ZERO    44,3

     1174       29
     1175       30
     1176       31                                                /* INCLUDE Files            */
     1177       32        %INCLUDE B$JIT;
PL6.E3A0      #004=KIF$SEND File=KIF$FPRG.:E05TSI                                WED 07/30/97 00:34 Page:208
     1178      322        %INCLUDE B$OBJECT_C;
     1179     3752        %INCLUDE CP_6_SUBS;
     1180     4292        %INCLUDE CP_6;
     1181     4373        %INCLUDE F$DCB;
     1182     4422        %INCLUDE GJ_MSG_M;
     1183     4735        %GJ_FCN#;
     1184     4761                                                /* AUTO Storage             */
     1185     4762    1   DCL LDCT UBIN /* dummy DCL - only its address is ever used here */;
     1186     4763        %VLP_NAME(FPTN=VLP_NAME,LEN=31,STCLASS="");
     1187     4790    1   DCL RUTYPE UBIN;
     1188     4791    1   DCL STARDCB$ PTR;
     1189     4792    1   DCL MYERR BIT(36);
     1190     4793    1   DCL TEMP UBIN;
     1191     4794    1   DCL TEMPB REDEF TEMP BIT(36);
     1192     4795    1   DCL WRITE_BYSZ SBIN;
     1193     4796    1   DCL TOTAL_BYSZ SBIN;
     1194     4797    1   DCL RECORD_BYSZ SBIN;
     1195     4798    1   DCL N_READS SBIN;
     1196     4799    1   DCL BF2$ PTR;
     1197     4800        %B$FEP_RUKEY (NAME=ADKEY,STCLASS=AUTO);
     1198     4824        %RU_FLAVORS;
     1199     4830        %GJ_ALIB_DATA(FPTN=DATAMSG,STCLASS=AUTO);
     1200     4879        %GJ_PROGKEY_MSG (STCLASS=AUTO);
     1201     4934        %FPT_READ(FPTN=FPT_READ,STCLASS=AUTO);
     1202     4973                                                /* BASED Structures         */
     1203     4974        %GJ_FCN_MSG (FPTN=FCNMSG,STCLASS=BASED);
     1204     4999    1   DCL CHAR$1 CHAR(1) BASED;
     1205     5000        %B$HEAD(NAME=B$HEAD,STCLASS="BASED(FPT_READ.BUF_.BUF$)");
     1206     5200                                                /* SYMREFs                  */
     1207     5201        %FPT_READ(FPTN=KIF_FPT_READ,STCLASS=SYMREF);
     1208     5240        %VLP_NAME (FPTN=KIF_HDKEY,STCLASS=SYMREF,NAME='HEAD',LEN=7);
     1209     5267    1   DCL KIF_BADHEAD BIT(36) SYMREF;
     1210     5268    1   DCL KIF_NONFP BIT(36) SYMREF;
     1211     5269    1   DCL KIF_UNEXPT BIT(36) SYMREF;
     1212     5270    1   DCL B$JIT$ PTR SYMREF READONLY;
     1213     5271    1   DCL B$M$STAR$ PTR SYMREF READONLY;
     1214     5272
PL6.E3A0      #004=KIF$SEND File=KIF$FPRG.:E05TSI                                WED 07/30/97 00:34 Page:209
     1215     5273        %SUB MONBIT#='000000400000'O;
     1216     5274
     1217     5275                                                /* External Procedures      */
     1218     5276    1   DCL EMR$FEP2HOST ENTRY(2);
     1219     5277    1   DCL EMR$HOST2FEP ENTRY(2);
     1220     5278    1   DCL FMM$SCRUB ENTRY(1);
     1221     5279    1   DCL FMP$CLSJ ENTRY;
     1222     5280    1   DCL FMM$DFLOPN ENTRY;
     1223     5281    1   DCL FMD$GBUF ENTRY(1);
     1224     5282    1   DCL FMD$RBUF ENTRY(1);
     1225     5283    1   DCL SC_FPRG ENTRY CONV(2,0);            /* SNAP                     */
     1226     5284    1   DCL M$MREAD ENTRY(1) ALTRET;
     1227     5285    1   DCL KIA$8TO9 ENTRY(3);
     1228     5286    1   DCL KIA$9TO8 ENTRY(3);
     1229     5287    1   DCL KIF$READ ENTRY(3) ALTRET;
     1230     5288    1   DCL KIF$WRITE ENTRY(3) ALTRET;
     1231     5289
     1232     5290        %EJECT;
PL6.E3A0      #004=KIF$SEND File=KIF$FPRG.:E05TSI                                WED 07/30/97 00:34 Page:210
     1233     5291        /* KIF$SEND
     1234     5292        */
     1235     5293    1      MYERR='0'B;

   5293  2 000002   200007 450100                    STZ     MYERR,,AUTO

     1236     5294    1      FPT_READ=KIF_FPT_READ;

   5294  2 000003   000100 100400                    MLR     fill='000'O
         2 000004   000000 000070 xsym               ADSC9   KIF_FPT_READ             cn=0,n=56
         2 000005   200032 000070                    ADSC9   FPT_READ,,AUTO           cn=0,n=56

     1237     5295    1      CALL FMD$GBUF(FPT_READ.BUF_.BUF$);

   5295  2 000006   200037 630500                    EPPR0   FPT_READ+5,,AUTO
         2 000007   200050 450500                    STP0    FPT_READ+14,,AUTO
         2 000010   200050 630500                    EPPR0   FPT_READ+14,,AUTO
         2 000011   000017 631400 xsym               EPPR1   B_VECTNIL+15
         2 000012   000000 701000 xent               TSX1    FMD$GBUF
         2 000013   000000 011000                    NOP     0

     1238     5296    1      FPT_READ.V_=VECTOR(FPT_READ.V);

   5296  2 000014   000000 235000 3                  LDA     0
         2 000015   200050 452500                    STP2    FPT_READ+14,,AUTO
         2 000016   200050 236100                    LDQ     FPT_READ+14,,AUTO
         2 000017   000042 036003                    ADLQ    34,DU
         2 000020   200032 757100                    STAQ    FPT_READ,,AUTO

     1239     5297    1      FPT_READ.BUF_.BOUND=4095;

   5297  2 000021   200036 236100                    LDQ     FPT_READ+4,,AUTO
         2 000022   177777 376007                    ANQ     65535,DL
         2 000023   000001 276000 3                  ORQ     1
         2 000024   200036 756100                    STQ     FPT_READ+4,,AUTO

     1240     5298    1      STARDCB$=B$M$STAR$;
PL6.E3A0      #004=KIF$SEND File=KIF$FPRG.:E05TSI                                WED 07/30/97 00:34 Page:211

   5298  2 000025   000000 236000 xsym               LDQ     B$M$STAR$
         2 000026   200006 756100                    STQ     STARDCB$,,AUTO

     1241     5299    1      B$JIT.DCB$=STARDCB$;

   5299  2 000027   000000 470400 xsym               LDP0    B$JIT$
         2 000030   000232 756100                    STQ     154,,PR0

     1242     5300
     1243     5301    1      IF STARDCB$->F$DCB.FCD

   5301  2 000031   200006 471500                    LDP1    STARDCB$,,AUTO
         2 000032   100031 236100                    LDQ     25,,PR1
         2 000033   020000 316007                    CANQ    8192,DL
         2 000034   000042 600000 2                  TZE     s:5306

     1244     5302    2      THEN DO;

     1245     5303    2           CALL SC_FPRG;

   5303  2 000035   000000 713400 xsym               CLIMB   SC_FPRG
         2 000036   000000 600000 xsid               climb   nvectors=         0

     1246     5304    2           CALL FMP$CLSJ;

   5304  2 000037   000002 631400 xsym               EPPR1   B_VECTNIL+2
         2 000040   000000 701000 xent               TSX1    FMP$CLSJ
         2 000041   000000 011000                    NOP     0

     1247     5305    2           END;

     1248     5306    1      CALL FMM$SCRUB(B$JIT.DCB$);

   5306  2 000042   000000 236000 xsym               LDQ     B$JIT$
         2 000043   000232 036003                    ADLQ    154,DU
         2 000044   200050 756100                    STQ     FPT_READ+14,,AUTO
PL6.E3A0      #004=KIF$SEND File=KIF$FPRG.:E05TSI                                WED 07/30/97 00:34 Page:212
         2 000045   200050 630500                    EPPR0   FPT_READ+14,,AUTO
         2 000046   000017 631400 xsym               EPPR1   B_VECTNIL+15
         2 000047   000000 701000 xent               TSX1    FMM$SCRUB
         2 000050   000000 011000                    NOP     0

     1249     5307    1      STARDCB$->F$DCB.NAME=VLP_NAME;

   5307  2 000051   200004 470500                    LDP0    @VLP_NAME,,AUTO
         2 000052   200006 471500                    LDP1    STARDCB$,,AUTO
         2 000053   000100 100500                    MLR     fill='000'O
         2 000054   000000 000040                    ADSC9   0,,PR0                   cn=0,n=32
         2 000055   100010 000040                    ADSC9   8,,PR1                   cn=0,n=32

     1250     5308    1      STARDCB$->F$DCB.ACCT=':SYS';

   5308  2 000056   000000 235000 1                  LDA     0
         2 000057   000035 236000 xsym               LDQ     B_VECTNIL+29
         2 000060   100020 757100                    STAQ    16,,PR1

     1251     5309    1      STARDCB$->F$DCB.ASN=%FILE#;

   5309  2 000061   001000 236007                    LDQ     512,DL
         2 000062   100032 552110                    STBQ    26,'10'O,PR1

     1252     5310    1      STARDCB$->F$DCB.FUN=%IN#;

   5310  2 000063   000002 236003                    LDQ     2,DU
         2 000064   100032 552120                    STBQ    26,'20'O,PR1

     1253     5311    1      STARDCB$->F$DCB.ACS=%DIRECT#;

   5311  2 000065   000002 236007                    LDQ     2,DL
         2 000066   100036 552104                    STBQ    30,'04'O,PR1

     1254     5312    1      B$JIT.ERR='0'B;

   5312  2 000067   000000 473400 xsym               LDP3    B$JIT$
PL6.E3A0      #004=KIF$SEND File=KIF$FPRG.:E05TSI                                WED 07/30/97 00:34 Page:213
         2 000070   300012 450100                    STZ     10,,PR3

     1255     5313    1      STARDCB$->F$DCB.WSR=0;               /* Pretend that we are STEP */

   5313  2 000071   000000 236003                    LDQ     0,DU
         2 000072   100040 552120                    STBQ    32,'20'O,PR1

     1256     5314    1      CALL FMM$DFLOPN;

   5314  2 000073   000002 631400 xsym               EPPR1   B_VECTNIL+2
         2 000074   000000 701000 xent               TSX1    FMM$DFLOPN
         2 000075   000000 011000                    NOP     0

     1257     5315
     1258     5316    1      IF B$JIT.ERR~='0'B

   5316  2 000076   000000 470400 xsym               LDP0    B$JIT$
         2 000077   000012 235100                    LDA     10,,PR0
         2 000100   000136 600000 2                  TZE     s:5328

     1259     5317    2      THEN DO;

     1260     5318    2   JITERR: MYERR=B$JIT.ERR;

   5318  2 000101   000012 236100       JITERR       LDQ     10,,PR0
         2 000102   200007 756100                    STQ     MYERR,,AUTO

     1261     5319    2   SETERR: MYERR = (MYERR | MONBIT#);

   5319  2 000103   200007 236100       SETERR       LDQ     MYERR,,AUTO
         2 000104   000001 276000 1                  ORQ     1
         2 000105   200007 756100                    STQ     MYERR,,AUTO

     1262     5320    2           CALL EMR$HOST2FEP(TEMPB,MYERR);

   5320  2 000106   200007 630500                    EPPR0   MYERR,,AUTO
         2 000107   200051 450500                    STP0    FPT_READ+15,,AUTO
PL6.E3A0      #004=KIF$SEND File=KIF$FPRG.:E05TSI                                WED 07/30/97 00:34 Page:214
         2 000110   200010 631500                    EPPR1   TEMP,,AUTO
         2 000111   200050 451500                    STP1    FPT_READ+14,,AUTO
         2 000112   200050 630500                    EPPR0   FPT_READ+14,,AUTO
         2 000113   000020 631400 xsym               EPPR1   B_VECTNIL+16
         2 000114   000000 701000 xent               TSX1    EMR$HOST2FEP
         2 000115   000000 011000                    NOP     0

     1263     5321    2           DATAMSG.FCN = %GJ_NAK#;

   5321  2 000116   035000 236003                    LDQ     14848,DU
         2 000117   200020 552140                    STBQ    DATAMSG,'40'O,AUTO

     1264     5322    2           DATAMSG.ERR = TEMPB;

   5322  2 000120   000100 100500                    MLR     fill='000'O
         2 000121   200010 000004                    ADSC9   TEMP,,AUTO               cn=0,n=4
         2 000122   200020 400004                    ADSC9   DATAMSG,,AUTO            cn=2,n=4

     1265     5323    2           CALL KIF$WRITE(LDCT,DATAMSG,LENGTHC(FCNMSG));

   5323  2 000123   000002 236000 3                  LDQ     2
         2 000124   200052 756100                    STQ     FPT_READ+16,,AUTO
         2 000125   200020 630500                    EPPR0   DATAMSG,,AUTO
         2 000126   200051 450500                    STP0    FPT_READ+15,,AUTO
         2 000127   200003 236100                    LDQ     @LDCT,,AUTO
         2 000130   200050 756100                    STQ     FPT_READ+14,,AUTO
         2 000131   200050 630500                    EPPR0   FPT_READ+14,,AUTO
         2 000132   000021 631400 xsym               EPPR1   B_VECTNIL+17
         2 000133   000000 701000 xent               TSX1    KIF$WRITE
         2 000134   000000 011000                    NOP     0

     1266     5324    2           GOTO READ_FEP/*fep will return a nak*/;

   5324  2 000135   000311 710000 2                  TRA     READ_FEP

     1267     5325    2           END;
     1268     5326
PL6.E3A0      #004=KIF$SEND File=KIF$FPRG.:E05TSI                                WED 07/30/97 00:34 Page:215
     1269     5327        /* Now read in the file's HEAD record. */
     1270     5328    1      FPT_READ.V.DCB#=%M$STAR#;

   5328  2 000136   000001 220003                    LDX0    1,DU
         2 000137   200042 740100                    STX0    FPT_READ+8,,AUTO

     1271     5329    1      FPT_READ.KEY_=VECTOR(KIF_HDKEY);

   5329  2 000140   000004 237000 3                  LDAQ    4
         2 000141   200034 757100                    STAQ    FPT_READ+2,,AUTO

     1272     5330    1      CALL M$MREAD (FPT_READ)

   5330  2 000142   200032 631500                    EPPR1   FPT_READ,,AUTO
         2 000143   200050 451500                    STP1    FPT_READ+14,,AUTO
         2 000144   200050 630500                    EPPR0   FPT_READ+14,,AUTO
         2 000145   000017 631400 xsym               EPPR1   B_VECTNIL+15
         2 000146   000000 701000 xent               TSX1    M$MREAD
         2 000147   000151 702000 2                  TSX2    s:5332
         2 000150   000155 710000 2                  TRA     s:5336

     1273     5331    2      WHENALTRETURN DO;

     1274     5332    2           MYERR = B$JIT.ERR;

   5332  2 000151   000000 470400 xsym               LDP0    B$JIT$
         2 000152   000012 236100                    LDQ     10,,PR0
         2 000153   200007 756100                    STQ     MYERR,,AUTO

     1275     5333    2           GOTO SETERR;

   5333  2 000154   000103 710000 2                  TRA     SETERR

     1276     5334    2           END;
     1277     5335
     1278     5336    1      IF STARDCB$->F$DCB.ARS ~= LENGTHC(B$HEAD)

PL6.E3A0      #004=KIF$SEND File=KIF$FPRG.:E05TSI                                WED 07/30/97 00:34 Page:216
   5336  2 000155   200006 470500                    LDP0    STARDCB$,,AUTO
         2 000156   000000 235100                    LDA     0,,PR0
         2 000157   000240 115007                    CMPA    160,DL
         2 000160   000164 600000 2                  TZE     s:5343

     1279     5337    2      THEN DO;

     1280     5338    2           MYERR=KIF_BADHEAD;

   5338  2 000161   000000 236000 xsym               LDQ     KIF_BADHEAD
         2 000162   200007 756100                    STQ     MYERR,,AUTO

     1281     5339    2           GOTO SETERR;

   5339  2 000163   000103 710000 2                  TRA     SETERR

     1282     5340    2           END;
     1283     5341        /* Make sure the file is the proper flavor and is appropriately a library or */
     1284     5342        /* a debugger                                                                */
     1285     5343    1      IF B$HEAD.FLAVOR~=%FEP_RU

   5343  2 000164   200037 471500                    LDP1    FPT_READ+5,,AUTO
         2 000165   100022 236100                    LDQ     18,,PR1
         2 000166   777000 376003                    ANQ     -512,DU
         2 000167   002000 116003                    CMPQ    1024,DU
         2 000170   000205 601000 2                  TNZ     s:5347
         2 000171   200005 473500                    LDP3    @RUTYPE,,AUTO
         2 000172   300000 235100                    LDA     0,,PR3
         2 000173   000013 115007                    CMPA    11,DL
         2 000174   000200 601000 2                  TNZ     s:5343+12
         2 000175   100022 236100                    LDQ     18,,PR1
         2 000176   000200 316003                    CANQ    128,DU
         2 000177   000205 600000 2                  TZE     s:5347
         2 000200   000014 115007                    CMPA    12,DL
         2 000201   000210 601000 2                  TNZ     SEND_DATAMSG
         2 000202   100022 236100                    LDQ     18,,PR1
         2 000203   000020 316003                    CANQ    16,DU
PL6.E3A0      #004=KIF$SEND File=KIF$FPRG.:E05TSI                                WED 07/30/97 00:34 Page:217
         2 000204   000210 601000 2                  TNZ     SEND_DATAMSG

     1286     5344    1        OR (RUTYPE=%GJ_LIB_DATA# AND B$HEAD.LIB~='1'B)
     1287     5345    1        OR (RUTYPE=%GJ_DB_DATA# AND B$HEAD.DEBUGGER~='1'B)
     1288     5346    2      THEN DO;

     1289     5347    2           MYERR=KIF_NONFP;

   5347  2 000205   000000 236000 xsym               LDQ     KIF_NONFP
         2 000206   200007 756100                    STQ     MYERR,,AUTO

     1290     5348    2           GOTO SETERR;

   5348  2 000207   000103 710000 2                  TRA     SETERR

   5343  2 000210                       SEND_DATAMSG null
     1291     5349    2           END;
     1292     5350        %EJECT;
PL6.E3A0      #004=KIF$SEND File=KIF$FPRG.:E05TSI                                WED 07/30/97 00:34 Page:218
     1293     5351
     1294     5352    1   SEND_DATAMSG: ;
     1295     5353    1      DATAMSG='0'B;

   5353  2 000210   000100 100400                    MLR     fill='000'O
         2 000211   000002 000001 xsym               ADSC9   B_VECTNIL+2              cn=0,n=1
         2 000212   200020 000016                    ADSC9   DATAMSG,,AUTO            cn=0,n=14

     1296     5354    1      DATAMSG.FCN=RUTYPE;

   5354  2 000213   300000 236100                    LDQ     0,,PR3
         2 000214   000033 736000                    QLS     27
         2 000215   200020 552140                    STBQ    DATAMSG,'40'O,AUTO

     1297     5355    1      TEMP = B$HEAD.RDATA;

   5355  2 000216   100002 236100                    LDQ     2,,PR1
         2 000217   000006 376000 3                  ANQ     6
         2 000220   200010 756100                    STQ     TEMP,,AUTO

     1298     5356    1      CALL KIA$9TO8(TEMP,DATAMSG.DATA_SZ,4);

   5356  2 000221   000007 236000 3                  LDQ     7
         2 000222   200052 756100                    STQ     FPT_READ+16,,AUTO
         2 000223   200053 452500                    STP2    FPT_READ+17,,AUTO
         2 000224   200053 236100                    LDQ     FPT_READ+17,,AUTO
         2 000225   000010 036000 3                  ADLQ    8
         2 000226   200051 756100                    STQ     FPT_READ+15,,AUTO
         2 000227   200010 634500                    EPPR4   TEMP,,AUTO
         2 000230   200050 454500                    STP4    FPT_READ+14,,AUTO
         2 000231   200050 630500                    EPPR0   FPT_READ+14,,AUTO
         2 000232   000021 631400 xsym               EPPR1   B_VECTNIL+17
         2 000233   000000 701000 xent               TSX1    KIA$9TO8
         2 000234   000000 011000                    NOP     0

     1299     5357    1      TEMP = B$HEAD.RPROC;

PL6.E3A0      #004=KIF$SEND File=KIF$FPRG.:E05TSI                                WED 07/30/97 00:34 Page:219
   5357  2 000235   200037 470500                    LDP0    FPT_READ+5,,AUTO
         2 000236   000001 236100                    LDQ     1,,PR0
         2 000237   000006 376000 3                  ANQ     6
         2 000240   200010 756100                    STQ     TEMP,,AUTO

     1300     5358    1      CALL KIA$9TO8(TEMP,DATAMSG.PROC_SZ,4);

   5358  2 000241   000007 236000 3                  LDQ     7
         2 000242   200052 756100                    STQ     FPT_READ+16,,AUTO
         2 000243   200053 452500                    STP2    FPT_READ+17,,AUTO
         2 000244   200053 236100                    LDQ     FPT_READ+17,,AUTO
         2 000245   000011 036000 3                  ADLQ    9
         2 000246   200051 756100                    STQ     FPT_READ+15,,AUTO
         2 000247   200010 631500                    EPPR1   TEMP,,AUTO
         2 000250   200050 451500                    STP1    FPT_READ+14,,AUTO
         2 000251   200050 630500                    EPPR0   FPT_READ+14,,AUTO
         2 000252   000021 631400 xsym               EPPR1   B_VECTNIL+17
         2 000253   000000 701000 xent               TSX1    KIA$9TO8
         2 000254   000000 011000                    NOP     0

     1301     5359    1      CALL EMR$HOST2FEP(TEMPB,MYERR);

   5359  2 000255   200007 630500                    EPPR0   MYERR,,AUTO
         2 000256   200051 450500                    STP0    FPT_READ+15,,AUTO
         2 000257   200010 631500                    EPPR1   TEMP,,AUTO
         2 000260   200050 451500                    STP1    FPT_READ+14,,AUTO
         2 000261   200050 630500                    EPPR0   FPT_READ+14,,AUTO
         2 000262   000020 631400 xsym               EPPR1   B_VECTNIL+16
         2 000263   000000 701000 xent               TSX1    EMR$HOST2FEP
         2 000264   000000 011000                    NOP     0

     1302     5360    1      DATAMSG.ERR = TEMPB;

   5360  2 000265   000100 100500                    MLR     fill='000'O
         2 000266   200010 000004                    ADSC9   TEMP,,AUTO               cn=0,n=4
         2 000267   200020 400004                    ADSC9   DATAMSG,,AUTO            cn=2,n=4

PL6.E3A0      #004=KIF$SEND File=KIF$FPRG.:E05TSI                                WED 07/30/97 00:34 Page:220
     1303     5361    1      CALL KIF$WRITE(LDCT,DATAMSG,LENGTHC(DATAMSG))

   5361  2 000270   000013 236000 3                  LDQ     11
         2 000271   200052 756100                    STQ     FPT_READ+16,,AUTO
         2 000272   200020 630500                    EPPR0   DATAMSG,,AUTO
         2 000273   200051 450500                    STP0    FPT_READ+15,,AUTO
         2 000274   200003 236100                    LDQ     @LDCT,,AUTO
         2 000275   200050 756100                    STQ     FPT_READ+14,,AUTO
         2 000276   200050 630500                    EPPR0   FPT_READ+14,,AUTO
         2 000277   000021 631400 xsym               EPPR1   B_VECTNIL+17
         2 000300   000000 701000 xent               TSX1    KIF$WRITE
         2 000301   000303 702000 2                  TSX2    s:5363
         2 000302   000307 710000 2                  TRA     s:5365

     1304     5362    2      WHENALTRETURN DO;

     1305     5363    2           MYERR= (B$JIT.ERR | MONBIT#);

   5363  2 000303   000000 470400 xsym               LDP0    B$JIT$
         2 000304   000012 236100                    LDQ     10,,PR0
         2 000305   000001 276000 1                  ORQ     1
         2 000306   200007 756100                    STQ     MYERR,,AUTO

     1306     5364    2           END;

     1307     5365    1      IF MYERR ~= '0'B

   5365  2 000307   200007 235100                    LDA     MYERR,,AUTO
         2 000310   000637 601000 2                  TNZ     XIT

   5365  2 000311                       READ_FEP     null
     1308     5366    1      THEN GOTO XIT;
     1309     5367
     1310     5368        %EJECT;
PL6.E3A0      #004=KIF$SEND File=KIF$FPRG.:E05TSI                                WED 07/30/97 00:34 Page:221
     1311     5369        /* Now continually read for key requests and write responses until           */
     1312     5370        /* we receive a %GJ_GETxx_DONE# or a %GJ_NAK#                                */
     1313     5371    1   READ_FEP: ;
     1314     5372    1      FPT_READ.KEY_=VECTOR(ADKEY);

   5372  2 000311   000004 235000 3                  LDA     4
         2 000312   200050 452500                    STP2    FPT_READ+14,,AUTO
         2 000313   200050 236100                    LDQ     FPT_READ+14,,AUTO
         2 000314   000016 036003                    ADLQ    14,DU
         2 000315   200034 757100                    STAQ    FPT_READ+2,,AUTO

     1315     5373    2      DO WHILE ('1'B);

     1316     5374    2           CALL KIF$READ(LDCT,GJ_PROGKEY_MSG,LENGTHC(GJ_PROGKEY_MSG)) ALTRET(XIT);

   5374  2 000316   000015 236000 3                  LDQ     13
         2 000317   200052 756100                    STQ     FPT_READ+16,,AUTO
         2 000320   200024 630500                    EPPR0   GJ_PROGKEY_MSG,,AUTO
         2 000321   200051 450500                    STP0    FPT_READ+15,,AUTO
         2 000322   200003 236100                    LDQ     @LDCT,,AUTO
         2 000323   200050 756100                    STQ     FPT_READ+14,,AUTO
         2 000324   200050 630500                    EPPR0   FPT_READ+14,,AUTO
         2 000325   000021 631400 xsym               EPPR1   B_VECTNIL+17
         2 000326   000000 701000 xent               TSX1    KIF$READ
         2 000327   000637 702000 2                  TSX2    XIT

     1317     5375    3           DO CASE (GJ_PROGKEY_MSG.FCN);

   5375  2 000330   200024 236100                    LDQ     GJ_PROGKEY_MSG,,AUTO
         2 000331   000033 772000                    QRL     27
         2 000332   000036 116007                    CMPQ    30,DL
         2 000333   000335 602006 2                  TNC     s:5375+5,QL
         2 000334   000632 710000 2                  TRA     s:5426
         2 000335   000632 710000 2                  TRA     s:5426
         2 000336   000632 710000 2                  TRA     s:5426
         2 000337   000373 710000 2                  TRA     s:5378
         2 000340   000373 710000 2                  TRA     s:5378
PL6.E3A0      #004=KIF$SEND File=KIF$FPRG.:E05TSI                                WED 07/30/97 00:34 Page:222
         2 000341   000632 710000 2                  TRA     s:5426
         2 000342   000632 710000 2                  TRA     s:5426
         2 000343   000632 710000 2                  TRA     s:5426
         2 000344   000556 710000 2                  TRA     s:5411
         2 000345   000632 710000 2                  TRA     s:5426
         2 000346   000632 710000 2                  TRA     s:5426
         2 000347   000632 710000 2                  TRA     s:5426
         2 000350   000632 710000 2                  TRA     s:5426
         2 000351   000632 710000 2                  TRA     s:5426
         2 000352   000632 710000 2                  TRA     s:5426
         2 000353   000574 710000 2                  TRA     s:5416
         2 000354   000574 710000 2                  TRA     s:5416
         2 000355   000632 710000 2                  TRA     s:5426
         2 000356   000632 710000 2                  TRA     s:5426
         2 000357   000632 710000 2                  TRA     s:5426
         2 000360   000632 710000 2                  TRA     s:5426
         2 000361   000632 710000 2                  TRA     s:5426
         2 000362   000632 710000 2                  TRA     s:5426
         2 000363   000632 710000 2                  TRA     s:5426
         2 000364   000632 710000 2                  TRA     s:5426
         2 000365   000632 710000 2                  TRA     s:5426
         2 000366   000632 710000 2                  TRA     s:5426
         2 000367   000632 710000 2                  TRA     s:5426
         2 000370   000632 710000 2                  TRA     s:5426
         2 000371   000632 710000 2                  TRA     s:5426
         2 000372   000556 710000 2                  TRA     s:5411

     1318     5376    3            CASE (%GJ_GETLIB#,%GJ_GETDB#); /* Get record from rununit  */

     1319     5377
     1320     5378    3              ADKEY = '0'B;

   5378  2 000373   200016 450100                    STZ     ADKEY,,AUTO
         2 000374   200017 450100                    STZ     ADKEY+1,,AUTO

     1321     5379    3              ADKEY.KEYSIZ = GJ_PROGKEY_MSG.RU_KEY.KEYSIZ;

PL6.E3A0      #004=KIF$SEND File=KIF$FPRG.:E05TSI                                WED 07/30/97 00:34 Page:223
   5379  2 000375   200025 236100                    LDQ     GJ_PROGKEY_MSG+1,,AUTO
         2 000376   000022 736000                    QLS     18
         2 000377   200016 552140                    STBQ    ADKEY,'40'O,AUTO

     1322     5380    3              ADKEY.TYPE = GJ_PROGKEY_MSG.RU_KEY.TYPE;

   5380  2 000400   200025 236100                    LDQ     GJ_PROGKEY_MSG+1,,AUTO
         2 000401   000022 736000                    QLS     18
         2 000402   200016 552120                    STBQ    ADKEY,'20'O,AUTO

     1323     5381    3              CALL KIA$8TO9(GJ_PROGKEY_MSG.RU_KEY.PAGE,TEMP,4);

   5381  2 000403   000007 236000 3                  LDQ     7
         2 000404   200052 756100                    STQ     FPT_READ+16,,AUTO
         2 000405   200010 630500                    EPPR0   TEMP,,AUTO
         2 000406   200051 450500                    STP0    FPT_READ+15,,AUTO
         2 000407   200026 631500                    EPPR1   GJ_PROGKEY_MSG+2,,AUTO
         2 000410   200050 451500                    STP1    FPT_READ+14,,AUTO
         2 000411   200050 630500                    EPPR0   FPT_READ+14,,AUTO
         2 000412   000021 631400 xsym               EPPR1   B_VECTNIL+17
         2 000413   000000 701000 xent               TSX1    KIA$8TO9
         2 000414   000000 011000                    NOP     0

     1324     5382    3              ADKEY.PAGE=TEMP;

   5382  2 000415   003100 061500                    CSR     bolr='003'O
         2 000416   200010 000044                    BDSC    TEMP,,AUTO               by=0,bit=0,n=36
         2 000417   200016 670024                    BDSC    ADKEY,,AUTO              by=3,bit=7,n=20

     1325     5383    3              CALL KIA$8TO9(GJ_PROGKEY_MSG.READ_BYSZ,WRITE_BYSZ,4);

   5383  2 000420   000007 236000 3                  LDQ     7
         2 000421   200052 756100                    STQ     FPT_READ+16,,AUTO
         2 000422   200011 630500                    EPPR0   WRITE_BYSZ,,AUTO
         2 000423   200051 450500                    STP0    FPT_READ+15,,AUTO
         2 000424   200027 631500                    EPPR1   GJ_PROGKEY_MSG+3,,AUTO
         2 000425   200050 451500                    STP1    FPT_READ+14,,AUTO
PL6.E3A0      #004=KIF$SEND File=KIF$FPRG.:E05TSI                                WED 07/30/97 00:34 Page:224
         2 000426   200050 630500                    EPPR0   FPT_READ+14,,AUTO
         2 000427   000021 631400 xsym               EPPR1   B_VECTNIL+17
         2 000430   000000 701000 xent               TSX1    KIA$8TO9
         2 000431   000000 011000                    NOP     0

     1326     5384    3              CALL KIA$8TO9(GJ_PROGKEY_MSG.SECT_BYSZ,TOTAL_BYSZ,4);

   5384  2 000432   000007 236000 3                  LDQ     7
         2 000433   200052 756100                    STQ     FPT_READ+16,,AUTO
         2 000434   200012 630500                    EPPR0   TOTAL_BYSZ,,AUTO
         2 000435   200051 450500                    STP0    FPT_READ+15,,AUTO
         2 000436   200030 631500                    EPPR1   GJ_PROGKEY_MSG+4,,AUTO
         2 000437   200050 451500                    STP1    FPT_READ+14,,AUTO
         2 000440   200050 630500                    EPPR0   FPT_READ+14,,AUTO
         2 000441   000021 631400 xsym               EPPR1   B_VECTNIL+17
         2 000442   000000 701000 xent               TSX1    KIA$8TO9
         2 000443   000000 011000                    NOP     0

     1327     5385    3              N_READS = (TOTAL_BYSZ +4096 -1) / 4096;

   5385  2 000444   200012 236100                    LDQ     TOTAL_BYSZ,,AUTO
         2 000445   007777 036007                    ADLQ    4095,DL
         2 000446   010000 506007                    DIV     4096,DL
         2 000447   200014 756100                    STQ     N_READS,,AUTO

     1328     5386
     1329     5387    4              DO TEMP = 1 TO N_READS;

   5387  2 000450   000001 235007                    LDA     1,DL
         2 000451   200010 755100                    STA     TEMP,,AUTO
         2 000452   000551 710000 2                  TRA     s:5407+3

     1330     5388    4                   CALL M$MREAD (FPT_READ)

   5388  2 000453   200032 630500                    EPPR0   FPT_READ,,AUTO
         2 000454   200050 450500                    STP0    FPT_READ+14,,AUTO
         2 000455   200050 630500                    EPPR0   FPT_READ+14,,AUTO
PL6.E3A0      #004=KIF$SEND File=KIF$FPRG.:E05TSI                                WED 07/30/97 00:34 Page:225
         2 000456   000017 631400 xsym               EPPR1   B_VECTNIL+15
         2 000457   000000 701000 xent               TSX1    M$MREAD
         2 000460   000462 702000 2                  TSX2    s:5390
         2 000461   000465 710000 2                  TRA     s:5392

     1331     5389    5                   WHENALTRETURN DO;

     1332     5390    5                        MYERR = B$JIT.ERR;

   5390  2 000462   000000 470400 xsym               LDP0    B$JIT$
         2 000463   000012 236100                    LDQ     10,,PR0
         2 000464   200007 756100                    STQ     MYERR,,AUTO

     1333     5391    5                        END;

     1334     5392    4                   BF2$ = FPT_READ.BUF_.BUF$;

   5392  2 000465   200037 236100                    LDQ     FPT_READ+5,,AUTO
         2 000466   200015 756100                    STQ     BF2$,,AUTO

     1335     5393    4                   RECORD_BYSZ = MINIMUM(TOTAL_BYSZ,4096);

   5393  2 000467   010000 236007                    LDQ     4096,DL
         2 000470   000473 604000 2                  TMI     s:5393+4
         2 000471   200012 116100                    CMPQ    TOTAL_BYSZ,,AUTO
         2 000472   000474 604400 2                  TMOZ    s:5393+5
         2 000473   200012 236100                    LDQ     TOTAL_BYSZ,,AUTO
         2 000474   200013 756100                    STQ     RECORD_BYSZ,,AUTO

     1336     5394    4                   TOTAL_BYSZ = TOTAL_BYSZ - RECORD_BYSZ;

   5394  2 000475   200012 236100                    LDQ     TOTAL_BYSZ,,AUTO
         2 000476   200013 136100                    SBLQ    RECORD_BYSZ,,AUTO
         2 000477   200012 756100                    STQ     TOTAL_BYSZ,,AUTO

     1337     5395
     1338     5396    5                   DO WHILE RECORD_BYSZ > 0;
PL6.E3A0      #004=KIF$SEND File=KIF$FPRG.:E05TSI                                WED 07/30/97 00:34 Page:226

   5396  2 000500   200013 235100                    LDA     RECORD_BYSZ,,AUTO
         2 000501   000535 604400 2                  TMOZ    s:5406

     1339     5397    5                        IF WRITE_BYSZ > RECORD_BYSZ THEN WRITE_BYSZ = RECORD_BYSZ;

   5397  2 000502   200011 236100                    LDQ     WRITE_BYSZ,,AUTO
         2 000503   200013 116100                    CMPQ    RECORD_BYSZ,,AUTO
         2 000504   000507 604400 2                  TMOZ    s:5398

   5397  2 000505   200013 235100                    LDA     RECORD_BYSZ,,AUTO
         2 000506   200011 755100                    STA     WRITE_BYSZ,,AUTO

     1340     5398    5                        CALL KIF$WRITE(LDCT,BF2$->CHAR$1,WRITE_BYSZ)

   5398  2 000507   200011 630500                    EPPR0   WRITE_BYSZ,,AUTO
         2 000510   200052 450500                    STP0    FPT_READ+16,,AUTO
         2 000511   200015 236100                    LDQ     BF2$,,AUTO
         2 000512   200003 235100                    LDA     @LDCT,,AUTO
         2 000513   200050 757100                    STAQ    FPT_READ+14,,AUTO
         2 000514   200050 630500                    EPPR0   FPT_READ+14,,AUTO
         2 000515   000021 631400 xsym               EPPR1   B_VECTNIL+17
         2 000516   000000 701000 xent               TSX1    KIF$WRITE
         2 000517   000521 702000 2                  TSX2    s:5400
         2 000520   000524 710000 2                  TRA     s:5403

     1341     5399    6                        WHENALTRETURN DO;

     1342     5400    6                             MYERR = B$JIT.ERR;

   5400  2 000521   000000 470400 xsym               LDP0    B$JIT$
         2 000522   000012 236100                    LDQ     10,,PR0
         2 000523   200007 756100                    STQ     MYERR,,AUTO

     1343     5401    6                             END;

     1344     5402
PL6.E3A0      #004=KIF$SEND File=KIF$FPRG.:E05TSI                                WED 07/30/97 00:34 Page:227
     1345     5403    5                        BF2$ = PINCRW(BF2$,WRITE_BYSZ/4);

   5403  2 000524   200011 236100                    LDQ     WRITE_BYSZ,,AUTO
         2 000525   000004 506007                    DIV     4,DL
         2 000526   000022 736000                    QLS     18
         2 000527   200015 036100                    ADLQ    BF2$,,AUTO
         2 000530   200015 756100                    STQ     BF2$,,AUTO

     1346     5404    5                        RECORD_BYSZ = RECORD_BYSZ - WRITE_BYSZ;

   5404  2 000531   200013 236100                    LDQ     RECORD_BYSZ,,AUTO
         2 000532   200011 136100                    SBLQ    WRITE_BYSZ,,AUTO
         2 000533   200013 756100                    STQ     RECORD_BYSZ,,AUTO

     1347     5405    5                        END;

   5405  2 000534   000502 605400 2                  TPNZ    s:5397

     1348     5406    4                   ADKEY.PAGE = ADKEY.PAGE + 2048;

   5406  2 000535   200016 235100                    LDA     ADKEY,,AUTO
         2 000536   200017 236100                    LDQ     ADKEY+1,,AUTO
         2 000537   000022 773000                    LRL     18
         2 000540   000006 376000 3                  ANQ     6
         2 000541   004000 036007                    ADLQ    2048,DL
         2 000542   200050 756100                    STQ     FPT_READ+14,,AUTO
         2 000543   003100 061500                    CSR     bolr='003'O
         2 000544   200050 000044                    BDSC    FPT_READ+14,,AUTO        by=0,bit=0,n=36
         2 000545   200016 670024                    BDSC    ADKEY,,AUTO              by=3,bit=7,n=20

     1349     5407    4                   END;

   5407  2 000546   200010 235100                    LDA     TEMP,,AUTO
         2 000547   000001 035007                    ADLA    1,DL
         2 000550   200010 755100                    STA     TEMP,,AUTO
         2 000551   200010 236100                    LDQ     TEMP,,AUTO
         2 000552   000555 604000 2                  TMI     s:5407+7
PL6.E3A0      #004=KIF$SEND File=KIF$FPRG.:E05TSI                                WED 07/30/97 00:34 Page:228
         2 000553   200014 116100                    CMPQ    N_READS,,AUTO
         2 000554   000453 604400 2                  TMOZ    s:5388
         2 000555   000316 710000 2                  TRA     s:5374

     1350     5408
     1351     5409    3            CASE (%GJ_NAK#,%GJ_PROG_ABRT#);

     1352     5410
     1353     5411    3              TEMPB = GJ_PROGKEY_MSG.ERR;

   5411  2 000556   200024 235100                    LDA     GJ_PROGKEY_MSG,,AUTO
         2 000557   200025 236100                    LDQ     GJ_PROGKEY_MSG+1,,AUTO
         2 000560   000022 773000                    LRL     18
         2 000561   000027 376000 xsym               ANQ     B_VECTNIL+23
         2 000562   200010 756100                    STQ     TEMP,,AUTO

     1354     5412    3              CALL EMR$FEP2HOST (TEMPB,MYERR);

   5412  2 000563   200007 630500                    EPPR0   MYERR,,AUTO
         2 000564   200051 450500                    STP0    FPT_READ+15,,AUTO
         2 000565   200010 631500                    EPPR1   TEMP,,AUTO
         2 000566   200050 451500                    STP1    FPT_READ+14,,AUTO
         2 000567   200050 630500                    EPPR0   FPT_READ+14,,AUTO
         2 000570   000020 631400 xsym               EPPR1   B_VECTNIL+16
         2 000571   000000 701000 xent               TSX1    EMR$FEP2HOST
         2 000572   000000 011000                    NOP     0

     1355     5413    3              GOTO XIT;

   5413  2 000573   000637 710000 2                  TRA     XIT

     1356     5414
     1357     5415    3            CASE (%GJ_GETLIB_DONE#,%GJ_GETDB_DONE#); /* Fetch complete */

     1358     5416    3              IF MYERR ~= '0'B

   5416  2 000574   200007 235100                    LDA     MYERR,,AUTO
PL6.E3A0      #004=KIF$SEND File=KIF$FPRG.:E05TSI                                WED 07/30/97 00:34 Page:229
         2 000575   000601 600000 2                  TZE     s:5418

     1359     5417    3              THEN MYERR = (MYERR | MONBIT#);

   5417  2 000576   200007 236100                    LDQ     MYERR,,AUTO
         2 000577   000001 276000 1                  ORQ     1
         2 000600   200007 756100                    STQ     MYERR,,AUTO

     1360     5418    3              CALL EMR$HOST2FEP(TEMPB,MYERR);

   5418  2 000601   200007 630500                    EPPR0   MYERR,,AUTO
         2 000602   200051 450500                    STP0    FPT_READ+15,,AUTO
         2 000603   200010 631500                    EPPR1   TEMP,,AUTO
         2 000604   200050 451500                    STP1    FPT_READ+14,,AUTO
         2 000605   200050 630500                    EPPR0   FPT_READ+14,,AUTO
         2 000606   000020 631400 xsym               EPPR1   B_VECTNIL+16
         2 000607   000000 701000 xent               TSX1    EMR$HOST2FEP
         2 000610   000000 011000                    NOP     0

     1361     5419    3              DATAMSG = '0'B;

   5419  2 000611   000100 100400                    MLR     fill='000'O
         2 000612   000002 000001 xsym               ADSC9   B_VECTNIL+2              cn=0,n=1
         2 000613   200020 000016                    ADSC9   DATAMSG,,AUTO            cn=0,n=14

     1362     5420    3              DATAMSG.ERR = TEMPB;

   5420  2 000614   000100 100500                    MLR     fill='000'O
         2 000615   200010 000004                    ADSC9   TEMP,,AUTO               cn=0,n=4
         2 000616   200020 400004                    ADSC9   DATAMSG,,AUTO            cn=2,n=4

     1363     5421    3              CALL KIF$WRITE(LDCT,DATAMSG,LENGTHC(FCNMSG));

   5421  2 000617   000002 236000 3                  LDQ     2
         2 000620   200052 756100                    STQ     FPT_READ+16,,AUTO
         2 000621   200020 630500                    EPPR0   DATAMSG,,AUTO
         2 000622   200051 450500                    STP0    FPT_READ+15,,AUTO
PL6.E3A0      #004=KIF$SEND File=KIF$FPRG.:E05TSI                                WED 07/30/97 00:34 Page:230
         2 000623   200003 236100                    LDQ     @LDCT,,AUTO
         2 000624   200050 756100                    STQ     FPT_READ+14,,AUTO
         2 000625   200050 630500                    EPPR0   FPT_READ+14,,AUTO
         2 000626   000021 631400 xsym               EPPR1   B_VECTNIL+17
         2 000627   000000 701000 xent               TSX1    KIF$WRITE
         2 000630   000000 011000                    NOP     0

     1364     5422    3              GOTO XIT;

   5422  2 000631   000637 710000 2                  TRA     XIT

     1365     5423
     1366     5424    3            CASE (ELSE);                   /* Should never happen      */

     1367     5425
     1368     5426    3              CALL SC_FPRG;

   5426  2 000632   000000 713400 xsym               CLIMB   SC_FPRG
         2 000633   000000 600000 xsid               climb   nvectors=         0

     1369     5427    3              MYERR=KIF_UNEXPT;

   5427  2 000634   000000 236000 xsym               LDQ     KIF_UNEXPT
         2 000635   200007 756100                    STQ     MYERR,,AUTO

     1370     5428    3              GOTO XIT;

   5428  2 000636   000637 710000 2                  TRA     XIT

     1371     5429
     1372     5430    3              END;                         /* End cases                */

     1373     5431    2           END;                            /* End do forever           */

     1374     5432        %EJECT;
PL6.E3A0      #004=KIF$SEND File=KIF$FPRG.:E05TSI                                WED 07/30/97 00:34 Page:231
     1375     5433    1   XIT: CALL FMP$CLSJ;

   5433  2 000637   000002 631400 xsym  XIT          EPPR1   B_VECTNIL+2
         2 000640   000000 701000 xent               TSX1    FMP$CLSJ
         2 000641   000000 011000                    NOP     0

     1376     5434    1      IF FPT_READ.BUF_.BUF$~=ADDR(NIL)

   5434  2 000642   200037 236100                    LDQ     FPT_READ+5,,AUTO
         2 000643   000001 116000 xsym               CMPQ    B_VECTNIL+1
         2 000644   000653 600000 2                  TZE     s:5437

     1377     5435    1      THEN CALL FMD$RBUF(FPT_READ.BUF_.BUF$);

   5435  2 000645   200037 630500                    EPPR0   FPT_READ+5,,AUTO
         2 000646   200050 450500                    STP0    FPT_READ+14,,AUTO
         2 000647   200050 630500                    EPPR0   FPT_READ+14,,AUTO
         2 000650   000017 631400 xsym               EPPR1   B_VECTNIL+15
         2 000651   000000 701000 xent               TSX1    FMD$RBUF
         2 000652   000000 011000                    NOP     0

     1378     5436
     1379     5437    1      IF MYERR~='0'B

   5437  2 000653   200007 235100                    LDA     MYERR,,AUTO
         2 000654   000661 600000 2                  TZE     s:5442

     1380     5438    2      THEN DO;

     1381     5439    2           B$JIT.ERR=MYERR;

   5439  2 000655   200007 236100                    LDQ     MYERR,,AUTO
         2 000656   000000 470400 xsym               LDP0    B$JIT$
         2 000657   000012 756100                    STQ     10,,PR0

     1382     5440    2           ALTRETURN;

PL6.E3A0      #004=KIF$SEND File=KIF$FPRG.:E05TSI                                WED 07/30/97 00:34 Page:232
   5440  2 000660   000000 702200 xent               TSX2  ! X66_AALT

     1383     5441    2           END;
     1384     5442    1      RETURN;

   5442  2 000661   000000 702200 xent               TSX2  ! X66_ARET

(unnamed)
 Sect OctLoc
   1     000   072123 131123   000000 400000                                    :SYS....

(unnamed)
 Sect OctLoc
   3     000   000005 777640   001777 600000   000010 006000   000000 000000    ................
   3     004   000001 777640   000000 006000   000003 777777   000006 006000    ................
   3     010   000022 400000   000021 400000   000000 000016   000012 006000    ................
   3     014   000000 000024   000014 006000                                    ........
     1385     5443    1   END KIF$SEND;

PL6.E3A0      #004=KIF$SEND File=KIF$FPRG.:E05TSI                                WED 07/30/97 00:34 Page:233
--  Include file information  --

   GJ_MSG_M.:E05TOU  is referenced.
   F$DCB.:E05TOU  cannot be made into a system file and is referenced.
   CP_6.:E05TOU  cannot be made into a system file and is referenced.
   CP_6_SUBS.:E05TOU  is referenced.
   B$OBJECT_C.:E05TOU  is referenced.
   B$JIT.:E05TOU  cannot be made into a system file and is referenced.
   B$JIT_C.:E05TOU  was found in the system file and is referenced.
   CP_6_C.:E05TOU  was found in the system file and is referenced.
      No diagnostics issued in procedure KIF$SEND.
PL6.E3A0      #004=KIF$SEND File=KIF$FPRG.:E05TSI                                WED 07/30/97 00:34 Page:234

 **** Variables and constants ****

  ****  Auto variables  ****

  ****  Scalars and arrays  ****
OctLoc.c.b A Datatyp(siz) R M Lvl/name                 OctLoc.c.b A Datatyp(siz) R M Lvl/name

     3-0-0/w PTR         r     1 @LDCT                      5-0-0/w PTR         r     1 @RUTYPE
     4-0-0/w PTR         r     1 @VLP_NAME                 16-0-0/w STRC(54)    r     1 ADKEY
    15-0-0/w PTR         r     1 BF2$                      20-0-0/w STRC(126)   r     1 DATAMSG
    32-0-0/d STRC(504)   r     1 FPT_READ                  24-0-0/w STRC(180)   r     1 GJ_PROGKEY_MSG
    *0-0-0/w UBIN        r     1 LDCT                       7-0-0/b BIT         r     1 MYERR
    14-0-0/w SBIN        r     1 N_READS                   13-0-0/w SBIN        r     1 RECORD_BYSZ
    *0-0-0/w UBIN        r     1 RUTYPE                     6-0-0/w PTR         r     1 STARDCB$
    10-0-0/w UBIN        r     1 TEMP                      10-0-0/w BIT         r     1 TEMPB
    12-0-0/w SBIN        r     1 TOTAL_BYSZ                *0-0-0/c STRC(288)   r     1 VLP_NAME
    11-0-0/w SBIN        r     1 WRITE_BYSZ

  ****  SYMREF variables  ****

  ****  Scalars and arrays  ****
OctLoc.c.b A Datatyp(siz) R M Lvl/name                 OctLoc.c.b A Datatyp(siz) R M Lvl/name

     0-0-0/w PTR         r     1 B$JIT$                     0-0-0/w PTR         r     1 B$M$STAR$
     0-0-0/b BIT         r     1 KIF_BADHEAD                0-0-0/d STRC(504)   r     1 KIF_FPT_READ
     0-0-0/c STRC(72)    r     1 KIF_HDKEY                  0-0-0/b BIT         r     1 KIF_NONFP
     0-0-0/b BIT         r     1 KIF_UNEXPT

  ****  BASED and DCB variables  ****

  ****  Scalars and arrays  ****
OctLoc.c.b A Datatyp(siz) R M Lvl/name                 OctLoc.c.b A Datatyp(siz) R M Lvl/name

     0-0-0/w STRC(1440)  r     1 B$HEAD                     0-0-0/d STRC(8856)  r     1 B$JIT
     0-0-0/c CHAR        r     1 CHAR$1                     0-0-0/d ASTR(3528)  r     1 F$DCB
     0-0-0/w STRC(54)    r     1 FCNMSG

PL6.E3A0      #004=KIF$SEND File=KIF$FPRG.:E05TSI                                WED 07/30/97 00:34 Page:235

   Procedure KIF$SEND requires 434 words for executable code.
   Procedure KIF$SEND requires 44 words of local(AUTO) storage.

    No errors detected in file KIF$FPRG.:E05TSI    .
PL6.E3A0      #004=KIF$SEND File=KIF$FPRG.:E05TSI                                WED 07/30/97 00:34 Page:236
          *** CROSS REFERENCE LISTING ***
**     DENOTES     IDENTIFIER DEFINITION
<<                 IDENTIFIER'S VALUE SET
>>                 IDENTIFIER'S VALUE USED
<>                 IDENTIFIER SET AND/OR USED
--                 IDENTIFIER REFERENCED
PL6.E3A0      #004=KIF$SEND File=KIF$FPRG.:E05TSI                                WED 07/30/97 00:34 Page:237
          MINI XREF LISTING

ADKEY
      4813**DCL      5372--ASSIGN   5378<<ASSIGN
ADKEY.KEYSIZ
      4814**DCL      5379<<ASSIGN
ADKEY.PAGE
      4820**DCL      4822--REDEF    5382<<ASSIGN   5406<<ASSIGN   5406>>ASSIGN
ADKEY.TYPE
      4816**DCL      5380<<ASSIGN
B$HEAD
      5001**DCL      5336--IF
B$HEAD.DEBUGGER
      5138**DCL      5343>>IF
B$HEAD.FLAVOR
      5126**DCL      5343>>IF
B$HEAD.LIB
      5131**DCL      5343>>IF
B$HEAD.RDATA
      5020**DCL      5355>>ASSIGN
B$HEAD.RPROC
      5010**DCL      5357>>ASSIGN
B$JIT.CPFLAGS1.SLEAZE
       140**DCL       140--REDEF
B$JIT.DCB$
       214**DCL      5299<<ASSIGN   5306<>CALL
B$JIT.ERR
        46**DCL      5312<<ASSIGN   5316>>IF       5318>>ASSIGN   5332>>ASSIGN   5363>>ASSIGN   5390>>ASSIGN
      5400>>ASSIGN   5439<<ASSIGN
B$JIT.ERR.MID
        47**DCL        47--REDEF
B$JIT.JRESPEAK
       208**DCL       209--REDEF
B$JIT.ORIGINATOR_PORT.FROM_CR
PL6.E3A0      #004=KIF$SEND File=KIF$FPRG.:E05TSI                                WED 07/30/97 00:34 Page:238
       317**DCL       317--REDEF     318--REDEF
B$JIT.PNR
       221**DCL       221--REDEF
B$JIT.TSLINE
       315**DCL       316--REDEF
B$JIT$
      5270**DCL        41--IMP-PTR  5299>>ASSIGN   5306>>CALL     5312>>ASSIGN   5316>>IF       5318>>ASSIGN
      5332>>ASSIGN   5363>>ASSIGN   5390>>ASSIGN   5400>>ASSIGN   5439>>ASSIGN
B$M$STAR$
      5271**DCL      5298>>ASSIGN
BF2$
      4799**DCL      5392<<ASSIGN   5398>>CALL     5403<<ASSIGN   5403>>ASSIGN
CHAR$1
      4999**DCL      5398<>CALL
DATAMSG
      4856**DCL      5323<>CALL     5353<<ASSIGN   5361<>CALL     5361--CALL     5419<<ASSIGN   5421<>CALL
DATAMSG.DATA_SZ
      4874**DCL      5356<>CALL
DATAMSG.ERR
      4863**DCL      5322<<ASSIGN   5360<<ASSIGN   5420<<ASSIGN
DATAMSG.FCN
      4856**DCL      5321<<ASSIGN   5354<<ASSIGN
DATAMSG.PROC_SZ
      4869**DCL      5358<>CALL
EMR$FEP2HOST
      5276**DCL-ENT  5412--CALL
EMR$HOST2FEP
      5277**DCL-ENT  5320--CALL     5359--CALL     5418--CALL
F$DCB.ACCT
      4384**DCL      5308<<ASSIGN
F$DCB.ACS
      4391**DCL      5311<<ASSIGN
F$DCB.ACTPOS
      4399**DCL      4399--REDEF
F$DCB.ARS
      4374**DCL      4374--REDEF    5336>>IF
PL6.E3A0      #004=KIF$SEND File=KIF$FPRG.:E05TSI                                WED 07/30/97 00:34 Page:239
F$DCB.ASN
      4389**DCL      5309<<ASSIGN
F$DCB.ATTR
      4392**DCL      4393--REDEF
F$DCB.BORROW
      4407**DCL      4407--REDEF    4407--REDEF    4407--REDEF
F$DCB.DCBNAME.L
      4421**DCL      4421--IMP-SIZ
F$DCB.EOMCHAR
      4378**DCL      4378--REDEF
F$DCB.FCD
      4387**DCL      5301>>IF
F$DCB.FLDID
      4402**DCL      4402--REDEF
F$DCB.FORM$
      4396**DCL      4396--REDEF
F$DCB.FSECT
      4412**DCL      4412--REDEF
F$DCB.FSN
      4389**DCL      4389--REDEF    4389--REDEF    4390--REDEF
F$DCB.FUN
      4388**DCL      5310<<ASSIGN
F$DCB.HEADER$
      4395**DCL      4395--REDEF
F$DCB.IXTNSIZE
      4393**DCL      4393--REDEF
F$DCB.LASTSTA$
      4383**DCL      4383--REDEF
F$DCB.LVL
      4408**DCL      4408--REDEF
F$DCB.NAME
      4383**DCL      5307<<ASSIGN
F$DCB.NAME.C
      4383**DCL      4383--REDEF
F$DCB.NOEOF
      4404**DCL      4404--REDEF
PL6.E3A0      #004=KIF$SEND File=KIF$FPRG.:E05TSI                                WED 07/30/97 00:34 Page:240
F$DCB.NRECS
      4394**DCL      4394--REDEF
F$DCB.NRECX
      4413**DCL      4413--REDEF
F$DCB.OHDR
      4405**DCL      4405--REDEF
F$DCB.ORG
      4388**DCL      4388--REDEF
F$DCB.PRECNO
      4411**DCL      4411--REDEF
F$DCB.RCSZ
      4416**DCL      4416--REDEF
F$DCB.RES
      4384**DCL      4384--REDEF
F$DCB.SETX
      4396**DCL      4396--REDEF
F$DCB.TAB$
      4395**DCL      4396--REDEF
F$DCB.TDA
      4410**DCL      4410--REDEF
F$DCB.WSN
      4385**DCL      4385--REDEF
F$DCB.WSR
      4391**DCL      5313<<ASSIGN
FCNMSG
      4987**DCL      5323--CALL     5421--CALL
FMD$GBUF
      5281**DCL-ENT  5295--CALL
FMD$RBUF
      5282**DCL-ENT  5435--CALL
FMM$DFLOPN
      5280**DCL-ENT  5314--CALL
FMM$SCRUB
      5278**DCL-ENT  5306--CALL
FMP$CLSJ
      5279**DCL-ENT  5304--CALL     5433--CALL
PL6.E3A0      #004=KIF$SEND File=KIF$FPRG.:E05TSI                                WED 07/30/97 00:34 Page:241
FPT_READ
      4951**DCL      5294<<ASSIGN   5330<>CALL     5388<>CALL
FPT_READ.BUF_.BOUND
      4953**DCL      5297<<ASSIGN
FPT_READ.BUF_.BUF$
      4954**DCL      5001--IMP-PTR  5295<>CALL     5343>>IF       5343>>IF       5343>>IF       5355>>ASSIGN
      5357>>ASSIGN   5392>>ASSIGN   5434>>IF       5435<>CALL
FPT_READ.KEY_
      4951**DCL      5329<<ASSIGN   5372<<ASSIGN
FPT_READ.STATION_
      4954**DCL      4955--REDEF
FPT_READ.V
      4955**DCL      5296--ASSIGN
FPT_READ.V.DCB#
      4955**DCL      5328<<ASSIGN
FPT_READ.V.DVBYTE.REREAD#
      4966**DCL      4966--REDEF
FPT_READ.V.INDX#
      4964**DCL      4964--REDEF
FPT_READ.V_
      4951**DCL      5296<<ASSIGN
GJ_PROGKEY_MSG
      4905**DCL      5374<>CALL     5374--CALL
GJ_PROGKEY_MSG.ERR
      4912**DCL      5411>>ASSIGN
GJ_PROGKEY_MSG.FCN
      4905**DCL      5375>>DOCASE
GJ_PROGKEY_MSG.READ_BYSZ
      4924**DCL      5383<>CALL
GJ_PROGKEY_MSG.RU_KEY.KEYSIZ
      4917**DCL      5379>>ASSIGN
GJ_PROGKEY_MSG.RU_KEY.PAGE
      4919**DCL      5381<>CALL
GJ_PROGKEY_MSG.RU_KEY.TYPE
      4917**DCL      5380>>ASSIGN
GJ_PROGKEY_MSG.SECT_BYSZ
PL6.E3A0      #004=KIF$SEND File=KIF$FPRG.:E05TSI                                WED 07/30/97 00:34 Page:242
      4929**DCL      5384<>CALL
KIA$8TO9
      5285**DCL-ENT  5381--CALL     5383--CALL     5384--CALL
KIA$9TO8
      5286**DCL-ENT  5356--CALL     5358--CALL
KIF$READ
      5287**DCL-ENT  5374--CALL
KIF$WRITE
      5288**DCL-ENT  5323--CALL     5361--CALL     5398--CALL     5421--CALL
KIF_BADHEAD
      5267**DCL      5338>>ASSIGN
KIF_FPT_READ
      5218**DCL      5294>>ASSIGN
KIF_FPT_READ.STATION_
      5221**DCL      5222--REDEF
KIF_FPT_READ.V.DVBYTE.REREAD#
      5233**DCL      5233--REDEF
KIF_FPT_READ.V.INDX#
      5231**DCL      5231--REDEF
KIF_HDKEY
      5265**DCL      5329--ASSIGN
KIF_NONFP
      5268**DCL      5347>>ASSIGN
KIF_UNEXPT
      5269**DCL      5427>>ASSIGN
LDCT
      4762**DCL        28--PROC     5323<>CALL     5361<>CALL     5374<>CALL     5398<>CALL     5421<>CALL
M$MREAD
      5284**DCL-ENT  5330--CALL     5388--CALL
MYERR
      4792**DCL      5293<<ASSIGN   5318<<ASSIGN   5319<<ASSIGN   5319>>ASSIGN   5320<>CALL     5332<<ASSIGN
      5338<<ASSIGN   5347<<ASSIGN   5359<>CALL     5363<<ASSIGN   5365>>IF       5390<<ASSIGN   5400<<ASSIGN
      5412<>CALL     5416>>IF       5417<<ASSIGN   5417>>ASSIGN   5418<>CALL     5427<<ASSIGN   5437>>IF
      5439>>ASSIGN
N_READS
      4798**DCL      5385<<ASSIGN   5387>>DOINDEX
PL6.E3A0      #004=KIF$SEND File=KIF$FPRG.:E05TSI                                WED 07/30/97 00:34 Page:243
READ_FEP
      5365**LABEL    5324--GOTO
RECORD_BYSZ
      4797**DCL      5393<<ASSIGN   5394>>ASSIGN   5396>>DOWHILE  5397>>IF       5397>>ASSIGN   5404<<ASSIGN
      5404>>ASSIGN
RUTYPE
      4790**DCL        28--PROC     5343>>IF       5343>>IF       5354>>ASSIGN
SC_FPRG
      5283**DCL-ENT  5303--CALL     5426--CALL
SETERR
      5319**LABEL    5333--GOTO     5339--GOTO     5348--GOTO
STARDCB$
      4791**DCL      5298<<ASSIGN   5299>>ASSIGN   5301>>IF       5307>>ASSIGN   5308>>ASSIGN   5309>>ASSIGN
      5310>>ASSIGN   5311>>ASSIGN   5313>>ASSIGN   5336>>IF
TEMP
      4793**DCL      4794--REDEF    5355<<ASSIGN   5356<>CALL     5357<<ASSIGN   5358<>CALL     5381<>CALL
      5382>>ASSIGN   5387<<DOINDEX
TEMPB
      4794**DCL      5320<>CALL     5322>>ASSIGN   5359<>CALL     5360>>ASSIGN   5411<<ASSIGN   5412<>CALL
      5418<>CALL     5420>>ASSIGN
TOTAL_BYSZ
      4796**DCL      5384<>CALL     5385>>ASSIGN   5393>>ASSIGN   5394<<ASSIGN   5394>>ASSIGN
VLP_NAME
      4788**DCL        28--PROC     5307>>ASSIGN
WRITE_BYSZ
      4795**DCL      5383<>CALL     5397>>IF       5397<<ASSIGN   5398<>CALL     5403>>ASSIGN   5404>>ASSIGN
XIT
      5433**LABEL    5366--GOTO     5374--CALLALT  5413--GOTO     5422--GOTO     5428--GOTO
