PL6.E3A0      #003=KIN$OSICHG File=KIN$NETWORK.:E05TSI                           WED 07/30/97 00:35 Page:162
      986        1        /*T***********************************************************/
      987        2        /*T*                                                         */
      988        3        /*T* Copyright (c) Bull HN Information Systems Inc., 1997    */
      989        4        /*T*                                                         */
      990        5        /*T***********************************************************/
      991        6        %EJECT;
PL6.E3A0      #003=KIN$OSICHG File=KIN$NETWORK.:E05TSI                           WED 07/30/97 00:35 Page:163
      992        7        KIN$OSICHG: PROC(PARM) ALTRET;
      993        8
      994        9        %INCLUDE KNN_NETWORK_M;
      995      372        %INCLUDE KL_MACRO_C;
      996     3724        %INCLUDE K_ADDRESS_M;
      997     4227        %INCLUDE K_NETWORK_E;
      998     4316        %INCLUDE HF_LOCK_C;
      999     4330        %INCLUDE KL_AFCN_C;
     1000     4431        %INCLUDE CP_6;
     1001     9990
     1002     9991    1   DCL PARM UBIN;
     1003     9992        %KL_UPDOSI(FPTN=KL$UPDOSI,STCLASS="BASED(PARM$)");
     1004    10201        %KL_OSILINKCHG(FPTN=KL$OSILINKCHG,STCLASS="BASED(PARM$)");
     1005    10324
     1006    10325    1   DCL KI_OSIROUTE$$ PTR SYMREF;
     1007    10326    1   DCL KI_OSIMAX# UBIN SYMREF;
     1008    10327    1   DCL KI_MXFE UBIN SYMREF;
     1009    10328    1   DCL KI_LOCK BIT(72) SYMREF;
     1010    10329
     1011    10330        %KNN$OSIROUTE(FPTN=KI$OSIROUTE,STCLASS="BASED(OSI$)");
     1012    10547    1   DCL KI_OSIROUTE$(0:0) PTR BASED(KI_OSIROUTE$$);
     1013    10548    1   DCL 1 ADDRTMPLT ALIGNED BASED(UPDOSI$),
     1014    10549    1         2 BYT(0:50),
     1015    10550    1           3 * BIT(1) UNAL,
     1016    10551    1           3 HIGH BIT(4) UNAL,
     1017    10552    1           3 LOW  BIT(4) UNAL;
     1018    10553
     1019    10554    1   DCL 1 ADDRTMPLT1 ALIGNED BASED(OSIROUTE$),
     1020    10555    1         2 BYT(0:50),
     1021    10556    1           3 * BIT(1) UNAL,
     1022    10557    1           3 HIGH BIT(4) UNAL,
     1023    10558    1           3 LOW BIT(4)  UNAL;
     1024    10559
     1025    10560    1   DCL ADDRESS CHAR(LEN) BASED CALIGNED;
     1026    10561    1   DCL PARM$ PTR;
     1027    10562    1   DCL OSIROUTE$ PTR;
     1028    10563    1   DCL UPDOSI$ PTR;
PL6.E3A0      #003=KIN$OSICHG File=KIN$NETWORK.:E05TSI                           WED 07/30/97 00:35 Page:164
     1029    10564    1   DCL OSI$ PTR;
     1030    10565    1   DCL I UBIN;
     1031    10566    1   DCL LEN SBIN;
     1032    10567    1   DCL K SBIN;
     1033    10568    1   DCL L SBIN;
     1034    10569    1   DCL FOUNDONE BIT(1);
     1035    10570
     1036    10571    1      PARM$ = ADDR(PARM);
     1037    10572    1      FOUNDONE = '0'B;
     1038    10573    2      DO I = 0 TO KI_OSIMAX# - 1;
     1039    10574    2           OSI$ = KI_OSIROUTE$(I);
     1040    10575
     1041    10576    2           IF KI$OSIROUTE.NS_TYPE = KL$UPDOSI.NS_TYPE
     1042    10577    2             AND KI$OSIROUTE.NSAP.AFI = KL$UPDOSI.NSAP.AFI
     1043    10578    2             AND KI$OSIROUTE.NSAP.LEN = KL$UPDOSI.NSAP.LEN THEN
     1044    10579    3   NXTI:   DO;
     1045    10580    3                LEN = KI$OSIROUTE.NSAP.LEN;
     1046    10581    3                UPDOSI$ = ADDR(KL$UPDOSI.NSAP.AFI);
     1047    10582    3                OSIROUTE$ = ADDR(KI$OSIROUTE.NSAP.AFI);
     1048    10583    3                IF SUBSTR(UPDOSI$->ADDRESS,1,LEN-1) ~= SUBSTR(OSIROUTE$->ADDRESS,1,LEN-
             10583                         1) THEN
     1049    10584    3                     EXIT NXTI;       /*  compare the address, but dont do afi*/
     1050    10585        /*
     1051    10586             found a match, but now is this a separate incarnation of the same
     1052    10587             entity or a new connection.
     1053    10588        */
     1054    10589    4                DO K = 0 TO KI_MXFE - 1;
     1055    10590    4                     IF KI$OSIROUTE.LINK.FEP#(K) = KL$UPDOSI.FEP# THEN
             10590                              /* same connection*/
     1056    10591    5                     DO;
     1057    10592                               %LOCK(G=KI_LOCK);
     1058    10595    6                          IF KL$UPDOSI.FCN = IGA_DELOSI THEN DO;
     1059    10596    6                               KI$OSIROUTE.NSAP.AFI = 0;
     1060    10597    6                               END;
     1061    10598    6                          ELSE DO;
     1062    10599    6                               KI$OSIROUTE.LNSAP = KL$UPDOSI.LNSAP;
     1063    10600    6                               KI$OSIROUTE.LINK.HOST#(K) = KL$UPDOSI.HOST#;
PL6.E3A0      #003=KIN$OSICHG File=KIN$NETWORK.:E05TSI                           WED 07/30/97 00:35 Page:165
     1064    10601    6                               KI$OSIROUTE.SNPA = KL$UPDOSI.SNPA;
     1065    10602    6                               KI$OSIROUTE.LINK.QOS(K) = KL$UPDOSI.QOS;
     1066    10603    6                               END;
     1067    10604                               %UNLOCK(G=KI_LOCK);
     1068    10607    5                          RETURN;
     1069    10608    5                          END;             /* node# = fep#                       */
     1070    10609    4                     END;                  /* do k                               */
     1071    10610    3                IF KL$UPDOSI.FCN = IGA_DELOSI THEN
     1072    10611                  /*could not find the nsap the user was referring to.  just return   */
     1073    10612    3                     RETURN;
     1074    10613
     1075    10614        /*
     1076    10615             otherwise look for the first available slot and install the new info.
     1077    10616        */
     1078    10617    4                DO K = 0 TO KI_MXFE - 1;
     1079    10618    4                     IF NOT KI$OSIROUTE.LINK.ACTIVE(K) THEN
     1080    10619    5                     DO;
     1081    10620                               %LOCK(G=KI_LOCK);
     1082    10623    5                          KI$OSIROUTE.LNSAP = KL$UPDOSI.LNSAP;
     1083    10624    5                          KI$OSIROUTE.LINK.HOST#(K) = KL$UPDOSI.HOST#;
     1084    10625    5                          KI$OSIROUTE.SNPA = KL$UPDOSI.SNPA;
     1085    10626    5                          KI$OSIROUTE.LINK.FEP#(K) = KL$UPDOSI.FEP#;
     1086    10627    5                          KI$OSIROUTE.LINK.QOS(K) = KL$UPDOSI.QOS;
     1087    10628    5                          KI$OSIROUTE.LINK.ACTIVE(K) = '1'B;
     1088    10629                               %UNLOCK(G=KI_LOCK);
     1089    10632    5                          RETURN;
     1090    10633    5                          END;             /* not active                         */
     1091    10634    4                     END;                  /* do k                               */
     1092    10635    3                RETURN;                    /* no more space in current nsap      */
     1093    10636    3                END;                  /* type = type and afi=afi and len = len   */
     1094    10637    2           END;                            /* do i                               */
     1095    10638        /*
     1096    10639          couldn't find anyone who wanted us up there, lets make our own space.
     1097    10640        */
     1098    10641    2      DO I = 0 TO KI_OSIMAX# - 1;
     1099    10642    2           OSI$ = KI_OSIROUTE$(I);
     1100    10643    2           IF KI$OSIROUTE.NSAP.AFI = 0 THEN
PL6.E3A0      #003=KIN$OSICHG File=KIN$NETWORK.:E05TSI                           WED 07/30/97 00:35 Page:166
     1101    10644    3           DO;
     1102    10645                     %LOCK(G=KI_LOCK);
     1103    10648    3                KI$OSIROUTE = '0'B;
     1104    10649    3                KI$OSIROUTE.NS_TYPE = KL$UPDOSI.NS_TYPE;
     1105    10650    3                KI$OSIROUTE.NSAP = KL$UPDOSI.NSAP;
     1106    10651    3                KI$OSIROUTE.LNSAP = KL$UPDOSI.LNSAP;
     1107    10652    3                KI$OSIROUTE.LINK.HOST#(0) = KL$UPDOSI.HOST#;
     1108    10653    3                KI$OSIROUTE.SNPA = KL$UPDOSI.SNPA;
     1109    10654    3                KI$OSIROUTE.LINK.FEP#(0) = KL$UPDOSI.FEP#;
     1110    10655    3                KI$OSIROUTE.LINK.QOS(0) = KL$UPDOSI.QOS;
     1111    10656    3                KI$OSIROUTE.LINK.ACTIVE(0) = '1'B;
     1112    10657                     %UNLOCK(G=KI_LOCK);
     1113    10660    3                RETURN;
     1114    10661    3                END;                       /* route table entry not in use       */
     1115    10662    2           END;                            /* do i                               */
     1116    10663    1      RETURN;
     1117    10664
     1118    10665
     1119    10666
     1120    10667    1   KIN$OSILINKCHG: ENTRY(PARM) ALTRET;
     1121    10668
     1122    10669
     1123    10670    1      PARM$ = ADDR(PARM);
     1124    10671    2      DO I = 0 TO KI_OSIMAX#-1;
     1125    10672    2           OSI$ = KI_OSIROUTE$(I);
     1126    10673    3           IF KI$OSIROUTE.SNPA.LEN >= KL$OSILINKCHG.SNPA.LEN THEN DO;
     1127    10674    3                IF MOD(KL$OSILINKCHG.SNPA.LEN,2) ~= 0 THEN
     1128    10675    3                     LEN = KL$OSILINKCHG.SNPA.LEN - 1;
     1129    10676    3                ELSE
     1130    10677    3                     LEN = KL$OSILINKCHG.SNPA.LEN;
     1131    10678
     1132    10679    3                UPDOSI$ = ADDR(KL$OSILINKCHG.SNPA.ADDRESS);
     1133    10680    3                OSIROUTE$ = ADDR(KI$OSIROUTE.SNPA.ADDRESS);
     1134    10681    3                L = 0;
     1135    10682    4                DO K = 0 TO LEN - 1 BY 2;
     1136    10683    4                     IF ADDRTMPLT.BYT.HIGH(L) ~= ADDRTMPLT1.BYT.HIGH(L)
     1137    10684    4                       OR ADDRTMPLT.BYT.LOW(L) ~= ADDRTMPLT1.BYT.LOW(L) THEN
PL6.E3A0      #003=KIN$OSICHG File=KIN$NETWORK.:E05TSI                           WED 07/30/97 00:35 Page:167
     1138    10685    4                          GOTO SNPALOOP;
     1139    10686    4                     L = L + 1;
     1140    10687    4                     END;                  /* do k                               */
     1141    10688
     1142    10689    4                IF LEN ~= KL$OSILINKCHG.SNPA.LEN THEN DO;
     1143    10690    4                     IF ADDRTMPLT.BYT.HIGH(L) ~= ADDRTMPLT1.BYT.HIGH(L) THEN
     1144    10691    4                          GOTO SNPALOOP;
     1145    10692    4                     END;
     1146    10693    4                DO K = 0 TO KI_MXFE-1;
     1147    10694    5                     IF KL$OSILINKCHG.NODE# = KI$OSIROUTE.LINK.FEP#(K) THEN DO;
     1148    10695                               %LOCK(G=KI_LOCK);
     1149    10698    5                          IF KL$OSILINKCHG.TYPE = IGA_OSILINKUP THEN
     1150    10699    5                               KI$OSIROUTE.LINK.ACTIVE(K) = '1'B;
     1151    10700    5                          ELSE
     1152    10701    5                               KI$OSIROUTE.LINK.ACTIVE(K) = '0'B;
     1153    10702                               %UNLOCK(G=KI_LOCK);
     1154    10705    5                          GOTO SNPALOOP;   /* only one entry per node necessary  */
     1155    10706    5                          END;             /* node# = fep#                       */
     1156    10707    4                     END;                  /* do k = 1 to mxfe                   */
     1157    10708
     1158    10709                      /* didn't find an entry for this node in the list.
     1159    10710                         if it is a link up search for the first inactive and
     1160    10711                         set it to active.*/
     1161    10712    3                IF KL$OSILINKCHG.TYPE = IGA_OSILINKUP THEN
     1162    10713    4                DO K = 0 TO KI_MXFE-1;
     1163    10714    5                     IF NOT KI$OSIROUTE.LINK.ACTIVE(K) THEN DO;
     1164    10715                               %LOCK(G=KI_LOCK);
     1165    10718    5                          KI$OSIROUTE.LINK(K) = '0'B;
     1166    10719    5                          KI$OSIROUTE.LINK.ACTIVE(K) = '1'B;
     1167    10720    5                          KI$OSIROUTE.LINK.QOS(K) = KL$OSILINKCHG.QOS;
     1168    10721    5                          KI$OSIROUTE.LINK.FEP#(K) = KL$OSILINKCHG.NODE#;
     1169    10722                               %UNLOCK(G=KI_LOCK);
     1170    10725    5                          GOTO SNPALOOP;   /* one's enough                       */
     1171    10726    5                          END;             /* no link in use                     */
     1172    10727    4                     END;                  /* do k                               */
     1173    10728    3                END;                       /* route.snpa.len > linkchg.snpa.len  */
     1174    10729    2   SNPALOOP:;
PL6.E3A0      #003=KIN$OSICHG File=KIN$NETWORK.:E05TSI                           WED 07/30/97 00:35 Page:168
     1175    10730    2           END;                            /* do i                               */
     1176    10731    1   END KIN$OSICHG;
     1177    10732        %EOD;

PL6.E3A0      #003=KIN$OSICHG File=KIN$NETWORK.:E05TSI                           WED 07/30/97 00:35 Page:169
--  Include file information  --

   CP_6_C.:E05TOU  is referenced.
   CP_6.:E05TOU  cannot be made into a system file and is referenced.
   KL_AFCN_C.:E05TOU  is referenced.
   HF_LOCK_C.:E05TOU  cannot be made into a system file and is referenced.
   K_NETWORK_E.:E05TOU  is referenced.
   K_ADDRESS_M.:E05TOU  is referenced.
   KL_MACRO_C.:E05TOU  is referenced.
   KNN_NETWORK_M.:E05TOU  is referenced.
      No diagnostics issued in procedure KIN$OSICHG.

   Procedure KIN$OSICHG requires 438 words for executable code.
   Procedure KIN$OSICHG requires 16 words of local(AUTO) storage.

PL6.E3A0      #003=KIN$OSICHG File=KIN$NETWORK.:E05TSI                           WED 07/30/97 00:35 Page:170

 Object Unit name= KIN$OSICHG                                 File name= KIN$NETWORK.:E05TOU
 UTS= JUL 30 '97 00:35:36.28 WED                              Compiler= PL-6/E31         Sev=      00
 SharedLib= :SHARED_SYSTEM                                    Alt SharedLib=


    ****  Control sections  ****

 Sect   Type Bound  Init  Size OctSiz  Section name(segment info)
    0   DCB   even  none     0      0  M$UC
    1   Proc  even  none   438    666  KIN$OSICHG
    2  RoData even  none     3      3  KIN$OSICHG

    ****  Entry defs  ****

                              Check   Calling
                             calling  sequence
  Sect OctLoc Primary Altret sequence   type   Parms  Name
     1      0   yes    yes     yes      Std        1  KIN$OSICHG
     1    336          yes     yes      Std        1  KIN$OSILINKCHG

  ****  Entry refs  ****

         Check        Calling
        calling       sequence
Altret sequence SRef   type   Args  Name
         yes           Std       1 HFC$LOCK
         yes           Std       1 HFC$UNLOCK
                       nStd      0 X66_AUTO_1
                       Std       0 B_CONSPOOL_D
                       nStd      0 X66_ARET
PL6.E3A0      #003=KIN$OSICHG File=KIN$NETWORK.:E05TSI                           WED 07/30/97 00:35 Page:171

  ****  Data refs  ****

  Flags:  r = read only, s = secondary
Flgs Name                             Flgs Name                             Flgs Name
     M$UC                                  KI_OSIROUTE$$                         KI_OSIMAX#
     KI_MXFE                               KI_LOCK                               B_VECTNIL

  ****  Segment refs  ****

  Flags:  r = read only, s = secondary
Flgs Name                             Flgs Name                             Flgs Name
     ISSID
PL6.E3A0      #003=KIN$OSICHG File=KIN$NETWORK.:E05TSI                           WED 07/30/97 00:35 Page:172


      986        1        /*T***********************************************************/
      987        2        /*T*                                                         */
      988        3        /*T* Copyright (c) Bull HN Information Systems Inc., 1997    */
      989        4        /*T*                                                         */
      990        5        /*T***********************************************************/
      991        6        %EJECT;
PL6.E3A0      #003=KIN$OSICHG File=KIN$NETWORK.:E05TSI                           WED 07/30/97 00:35 Page:173
      992        7        KIN$OSICHG: PROC(PARM) ALTRET;

      7  1 000000   000000 700200 xent  KIN$OSICHG   TSX0  ! X66_AUTO_1
         1 000001   000020 000001                    ZERO    16,1

      993        8
      994        9        %INCLUDE KNN_NETWORK_M;
      995      372        %INCLUDE KL_MACRO_C;
      996     3724        %INCLUDE K_ADDRESS_M;
      997     4227        %INCLUDE K_NETWORK_E;
      998     4316        %INCLUDE HF_LOCK_C;
      999     4330        %INCLUDE KL_AFCN_C;
     1000     4431        %INCLUDE CP_6;
     1001     9990
     1002     9991    1   DCL PARM UBIN;
     1003     9992        %KL_UPDOSI(FPTN=KL$UPDOSI,STCLASS="BASED(PARM$)");
     1004    10201        %KL_OSILINKCHG(FPTN=KL$OSILINKCHG,STCLASS="BASED(PARM$)");
     1005    10324
     1006    10325    1   DCL KI_OSIROUTE$$ PTR SYMREF;
     1007    10326    1   DCL KI_OSIMAX# UBIN SYMREF;
     1008    10327    1   DCL KI_MXFE UBIN SYMREF;
     1009    10328    1   DCL KI_LOCK BIT(72) SYMREF;
     1010    10329
     1011    10330        %KNN$OSIROUTE(FPTN=KI$OSIROUTE,STCLASS="BASED(OSI$)");
     1012    10547    1   DCL KI_OSIROUTE$(0:0) PTR BASED(KI_OSIROUTE$$);
     1013    10548    1   DCL 1 ADDRTMPLT ALIGNED BASED(UPDOSI$),
     1014    10549    1         2 BYT(0:50),
     1015    10550    1           3 * BIT(1) UNAL,
     1016    10551    1           3 HIGH BIT(4) UNAL,
     1017    10552    1           3 LOW  BIT(4) UNAL;
     1018    10553
     1019    10554    1   DCL 1 ADDRTMPLT1 ALIGNED BASED(OSIROUTE$),
     1020    10555    1         2 BYT(0:50),
     1021    10556    1           3 * BIT(1) UNAL,
     1022    10557    1           3 HIGH BIT(4) UNAL,
     1023    10558    1           3 LOW BIT(4)  UNAL;
     1024    10559
PL6.E3A0      #003=KIN$OSICHG File=KIN$NETWORK.:E05TSI                           WED 07/30/97 00:35 Page:174
     1025    10560    1   DCL ADDRESS CHAR(LEN) BASED CALIGNED;
     1026    10561    1   DCL PARM$ PTR;
     1027    10562    1   DCL OSIROUTE$ PTR;
     1028    10563    1   DCL UPDOSI$ PTR;
     1029    10564    1   DCL OSI$ PTR;
     1030    10565    1   DCL I UBIN;
     1031    10566    1   DCL LEN SBIN;
     1032    10567    1   DCL K SBIN;
     1033    10568    1   DCL L SBIN;
     1034    10569    1   DCL FOUNDONE BIT(1);
     1035    10570
     1036    10571    1      PARM$ = ADDR(PARM);

  10571  1 000002   200003 236100                    LDQ     @PARM,,AUTO
         1 000003   200004 756100                    STQ     PARM$,,AUTO

     1037    10572    1      FOUNDONE = '0'B;

  10572  1 000004   200014 450100                    STZ     FOUNDONE,,AUTO

     1038    10573    2      DO I = 0 TO KI_OSIMAX# - 1;

  10573  1 000005   200010 450100                    STZ     I,,AUTO
         1 000006   000243 710000 1                  TRA     s:10637+3

     1039    10574    2           OSI$ = KI_OSIROUTE$(I);

  10574  1 000007   000000 470400 xsym               LDP0    KI_OSIROUTE$$
         1 000010   200010 720100                    LXL0    I,,AUTO
         1 000011   000000 236110                    LDQ     0,X0,PR0
         1 000012   200007 756100                    STQ     OSI$,,AUTO

     1040    10575
     1041    10576    2           IF KI$OSIROUTE.NS_TYPE = KL$UPDOSI.NS_TYPE

  10576  1 000013   200004 471500                    LDP1    PARM$,,AUTO
         1 000014   100000 236100                    LDQ     0,,PR1
PL6.E3A0      #003=KIN$OSICHG File=KIN$NETWORK.:E05TSI                           WED 07/30/97 00:35 Page:175
         1 000015   000026 772000                    QRL     22
         1 000016   000017 376007                    ANQ     15,DL
         1 000017   200016 756100                    STQ     FOUNDONE+2,,AUTO
         1 000020   200007 473500                    LDP3    OSI$,,AUTO
         1 000021   300015 236100                    LDQ     13,,PR3
         1 000022   000037 772000                    QRL     31
         1 000023   000017 376007                    ANQ     15,DL
         1 000024   200016 116100                    CMPQ    FOUNDONE+2,,AUTO
         1 000025   000240 601000 1                  TNZ     s:10637
         1 000026   300000 236100                    LDQ     0,,PR3
         1 000027   100002 676100                    ERQ     2,,PR1
         1 000030   000777 376003                    ANQ     511,DU
         1 000031   000240 601000 1                  TNZ     s:10637
         1 000032   300000 236100                    LDQ     0,,PR3
         1 000033   100002 676100                    ERQ     2,,PR1
         1 000034   777000 376003                    ANQ     -512,DU
         1 000035   000240 601000 1                  TNZ     s:10637

     1042    10577    2             AND KI$OSIROUTE.NSAP.AFI = KL$UPDOSI.NSAP.AFI
     1043    10578    2             AND KI$OSIROUTE.NSAP.LEN = KL$UPDOSI.NSAP.LEN THEN
     1044    10579    3   NXTI:   DO;

  10579  1 000036                       NXTI         null
     1045    10580    3                LEN = KI$OSIROUTE.NSAP.LEN;

  10580  1 000036   300000 236100                    LDQ     0,,PR3
         1 000037   000033 772000                    QRL     27
         1 000040   200011 756100                    STQ     LEN,,AUTO

     1046    10581    3                UPDOSI$ = ADDR(KL$UPDOSI.NSAP.AFI);

  10581  1 000041   200004 236100                    LDQ     PARM$,,AUTO
         1 000042   000000 036000 2                  ADLQ    0
         1 000043   200006 756100                    STQ     UPDOSI$,,AUTO

     1047    10582    3                OSIROUTE$ = ADDR(KI$OSIROUTE.NSAP.AFI);

PL6.E3A0      #003=KIN$OSICHG File=KIN$NETWORK.:E05TSI                           WED 07/30/97 00:35 Page:176
  10582  1 000044   200007 236100                    LDQ     OSI$,,AUTO
         1 000045   200000 036007                    ADLQ    65536,DL
         1 000046   200005 756100                    STQ     OSIROUTE$,,AUTO

     1048    10583    3               IF SUBSTR(UPDOSI$->ADDRESS,1,LEN-1) ~= SUBSTR(OSIROUTE$->ADDRESS,1,LEN-
             10583                         1) THEN

  10583  1 000047   200011 721100                    LXL1    LEN,,AUTO
         1 000050   777777 622011                    EAX2    -1,X1
         1 000051   200006 474500                    LDP4    UPDOSI$,,AUTO
         1 000052   200005 475500                    LDP5    OSIROUTE$,,AUTO
         1 000053   040140 106540                    CMPC    fill='040'O
         1 000054   400000 200012                    ADSC9   0,,PR4                   cn=1,n=*X2
         1 000055   500000 200012                    ADSC9   0,,PR5                   cn=1,n=*X2
         1 000056   000240 601000 1                  TNZ     s:10637

     1049    10584    3                     EXIT NXTI;       /*  compare the address, but dont do afi*/
     1050    10585        /*
     1051    10586             found a match, but now is this a separate incarnation of the same
     1052    10587             entity or a new connection.
     1053    10588        */
     1054    10589    4                DO K = 0 TO KI_MXFE - 1;

  10589  1 000057   200012 450100                    STZ     K,,AUTO
         1 000060   000140 710000 1                  TRA     s:10609+1

     1055    10590    4                     IF KI$OSIROUTE.LINK.FEP#(K) = KL$UPDOSI.FEP# THEN
             10590                              /* same connection*/

  10590  1 000061   200004 470500                    LDP0    PARM$,,AUTO
         1 000062   000000 236100                    LDQ     0,,PR0
         1 000063   000777 376007                    ANQ     511,DL
         1 000064   200016 756100                    STQ     FOUNDONE+2,,AUTO
         1 000065   200012 236100                    LDQ     K,,AUTO
         1 000066   000017 402007                    MPY     15,DL
         1 000067   200007 471500                    LDP1    OSI$,,AUTO
         1 000070   000100 101506                    MRL     fill='000'O
PL6.E3A0      #003=KIN$OSICHG File=KIN$NETWORK.:E05TSI                           WED 07/30/97 00:35 Page:177
         1 000071   100015 400001                    ADSC9   13,Q,PR1                 cn=2,n=1
         1 000072   200017 000004                    ADSC9   FOUNDONE+3,,AUTO         cn=0,n=4
         1 000073   200017 236100                    LDQ     FOUNDONE+3,,AUTO
         1 000074   200016 116100                    CMPQ    FOUNDONE+2,,AUTO
         1 000075   000137 601000 1                  TNZ     s:10609

     1056    10591    5                     DO;

     1057    10592                               %LOCK(G=KI_LOCK);

  10593  1 000076   000001 630400 2                  EPPR0   1
         1 000077   000017 631400 xsym               EPPR1   B_VECTNIL+15
         1 000100   000000 701000 xent               TSX1    HFC$LOCK
         1 000101   000000 011000                    NOP     0

     1058    10595    6                          IF KL$UPDOSI.FCN = IGA_DELOSI THEN DO;

  10595  1 000102   200004 470500                    LDP0    PARM$,,AUTO
         1 000103   000000 236100                    LDQ     0,,PR0
         1 000104   777000 376003                    ANQ     -512,DU
         1 000105   127000 116003                    CMPQ    44544,DU
         1 000106   000113 601000 1                  TNZ     s:10599

     1059    10596    6                               KI$OSIROUTE.NSAP.AFI = 0;

  10596  1 000107   200007 471500                    LDP1    OSI$,,AUTO
         1 000110   000000 236003                    LDQ     0,DU
         1 000111   100000 552120                    STBQ    0,'20'O,PR1

     1060    10597    6                               END;

  10597  1 000112   000132 710000 1                  TRA     s:10605

     1061    10598    6                          ELSE DO;

     1062    10599    6                               KI$OSIROUTE.LNSAP = KL$UPDOSI.LNSAP;

PL6.E3A0      #003=KIN$OSICHG File=KIN$NETWORK.:E05TSI                           WED 07/30/97 00:35 Page:178
  10599  1 000113   200007 471500                    LDP1    OSI$,,AUTO
         1 000114   000100 100500                    MLR     fill='000'O
         1 000115   000007 400026                    ADSC9   7,,PR0                   cn=2,n=22
         1 000116   100007 400026                    ADSC9   7,,PR1                   cn=2,n=22

     1063    10600    6                               KI$OSIROUTE.LINK.HOST#(K) = KL$UPDOSI.HOST#;

  10600  1 000117   200012 236100                    LDQ     K,,AUTO
         1 000120   000017 402007                    MPY     15,DL
         1 000121   000106 100500                    MLR     fill='000'O
         1 000122   000000 400001                    ADSC9   0,,PR0                   cn=2,n=1
         1 000123   100015 600001                    ADSC9   13,Q,PR1                 cn=3,n=1

     1064    10601    6                               KI$OSIROUTE.SNPA = KL$UPDOSI.SNPA;

  10601  1 000124   000100 100500                    MLR     fill='000'O
         1 000125   000015 000010                    ADSC9   13,,PR0                  cn=0,n=8
         1 000126   100005 400010                    ADSC9   5,,PR1                   cn=2,n=8

     1065    10602    6                               KI$OSIROUTE.LINK.QOS(K) = KL$UPDOSI.QOS;

  10602  1 000127   000106 100500                    MLR     fill='000'O
         1 000130   000001 200001                    ADSC9   1,,PR0                   cn=1,n=1
         1 000131   100016 000001                    ADSC9   14,Q,PR1                 cn=0,n=1

     1066    10603    6                               END;

     1067    10604                               %UNLOCK(G=KI_LOCK);

  10605  1 000132   000001 630400 2                  EPPR0   1
         1 000133   000017 631400 xsym               EPPR1   B_VECTNIL+15
         1 000134   000000 701000 xent               TSX1    HFC$UNLOCK
         1 000135   000000 011000                    NOP     0

     1068    10607    5                          RETURN;

  10607  1 000136   000000 702200 xent               TSX2  ! X66_ARET
PL6.E3A0      #003=KIN$OSICHG File=KIN$NETWORK.:E05TSI                           WED 07/30/97 00:35 Page:179

     1069    10608    5                          END;             /* node# = fep#                       */
     1070    10609    4                     END;                  /* do k                               */

  10609  1 000137   200012 054100                    AOS     K,,AUTO
         1 000140   200012 236100                    LDQ     K,,AUTO
         1 000141   000061 604000 1                  TMI     s:10590
         1 000142   000000 116000 xsym               CMPQ    KI_MXFE
         1 000143   000061 602000 1                  TNC     s:10590

     1071    10610    3                IF KL$UPDOSI.FCN = IGA_DELOSI THEN

  10610  1 000144   200004 470500                    LDP0    PARM$,,AUTO
         1 000145   000000 236100                    LDQ     0,,PR0
         1 000146   777000 376003                    ANQ     -512,DU
         1 000147   127000 116003                    CMPQ    44544,DU
         1 000150   000152 601000 1                  TNZ     s:10617

     1072    10611                  /*could not find the nsap the user was referring to.  just return   */
     1073    10612    3                     RETURN;

  10612  1 000151   000000 702200 xent               TSX2  ! X66_ARET

     1074    10613
     1075    10614        /*
     1076    10615             otherwise look for the first available slot and install the new info.
     1077    10616        */
     1078    10617    4                DO K = 0 TO KI_MXFE - 1;

  10617  1 000152   200012 450100                    STZ     K,,AUTO
         1 000153   000233 710000 1                  TRA     s:10634+1

     1079    10618    4                     IF NOT KI$OSIROUTE.LINK.ACTIVE(K) THEN

  10618  1 000154   200012 236100                    LDQ     K,,AUTO
         1 000155   000207 402007                    MPY     135,DL
         1 000156   000000 116003                    CMPQ    0,DU
PL6.E3A0      #003=KIN$OSICHG File=KIN$NETWORK.:E05TSI                           WED 07/30/97 00:35 Page:180
         1 000157   000161 605000 1                  TPL     s:10618+5
         1 000160   000044 036003                    ADLQ    36,DU
         1 000161   200007 470500                    LDP0    OSI$,,AUTO
         1 000162   000000 066506                    CMPB    filb='0'B
         1 000163   000015 210001                    BDSC    13,Q,PR0                 by=1,bit=1,n=1
         1 000164   000002 000022 xsym               BDSC    B_VECTNIL+2              by=0,bit=0,n=18
         1 000165   000232 601000 1                  TNZ     s:10634

     1080    10619    5                     DO;

     1081    10620                               %LOCK(G=KI_LOCK);

  10621  1 000166   000001 630400 2                  EPPR0   1
         1 000167   000017 631400 xsym               EPPR1   B_VECTNIL+15
         1 000170   000000 701000 xent               TSX1    HFC$LOCK
         1 000171   000000 011000                    NOP     0

     1082    10623    5                          KI$OSIROUTE.LNSAP = KL$UPDOSI.LNSAP;

  10623  1 000172   200004 470500                    LDP0    PARM$,,AUTO
         1 000173   200007 471500                    LDP1    OSI$,,AUTO
         1 000174   000100 100500                    MLR     fill='000'O
         1 000175   000007 400026                    ADSC9   7,,PR0                   cn=2,n=22
         1 000176   100007 400026                    ADSC9   7,,PR1                   cn=2,n=22

     1083    10624    5                          KI$OSIROUTE.LINK.HOST#(K) = KL$UPDOSI.HOST#;

  10624  1 000177   200012 236100                    LDQ     K,,AUTO
         1 000200   000017 402007                    MPY     15,DL
         1 000201   000106 100500                    MLR     fill='000'O
         1 000202   000000 400001                    ADSC9   0,,PR0                   cn=2,n=1
         1 000203   100015 600001                    ADSC9   13,Q,PR1                 cn=3,n=1

     1084    10625    5                          KI$OSIROUTE.SNPA = KL$UPDOSI.SNPA;

  10625  1 000204   000100 100500                    MLR     fill='000'O
         1 000205   000015 000010                    ADSC9   13,,PR0                  cn=0,n=8
PL6.E3A0      #003=KIN$OSICHG File=KIN$NETWORK.:E05TSI                           WED 07/30/97 00:35 Page:181
         1 000206   100005 400010                    ADSC9   5,,PR1                   cn=2,n=8

     1085    10626    5                          KI$OSIROUTE.LINK.FEP#(K) = KL$UPDOSI.FEP#;

  10626  1 000207   000106 100500                    MLR     fill='000'O
         1 000210   000000 600001                    ADSC9   0,,PR0                   cn=3,n=1
         1 000211   100015 400001                    ADSC9   13,Q,PR1                 cn=2,n=1

     1086    10627    5                          KI$OSIROUTE.LINK.QOS(K) = KL$UPDOSI.QOS;

  10627  1 000212   000106 100500                    MLR     fill='000'O
         1 000213   000001 200001                    ADSC9   1,,PR0                   cn=1,n=1
         1 000214   100016 000001                    ADSC9   14,Q,PR1                 cn=0,n=1

     1087    10628    5                          KI$OSIROUTE.LINK.ACTIVE(K) = '1'B;

  10628  1 000215   200012 236100                    LDQ     K,,AUTO
         1 000216   000207 402007                    MPY     135,DL
         1 000217   000000 116003                    CMPQ    0,DU
         1 000220   000222 605000 1                  TPL     s:10628+5
         1 000221   000044 036003                    ADLQ    36,DU
         1 000222   003106 060400                    CSL     bolr='003'O
         1 000223   000030 000001 xsym               BDSC    B_VECTNIL+24             by=0,bit=0,n=1
         1 000224   100015 210001                    BDSC    13,Q,PR1                 by=1,bit=1,n=1

     1088    10629                               %UNLOCK(G=KI_LOCK);

  10630  1 000225   000001 630400 2                  EPPR0   1
         1 000226   000017 631400 xsym               EPPR1   B_VECTNIL+15
         1 000227   000000 701000 xent               TSX1    HFC$UNLOCK
         1 000230   000000 011000                    NOP     0

     1089    10632    5                          RETURN;

  10632  1 000231   000000 702200 xent               TSX2  ! X66_ARET

     1090    10633    5                          END;             /* not active                         */
PL6.E3A0      #003=KIN$OSICHG File=KIN$NETWORK.:E05TSI                           WED 07/30/97 00:35 Page:182
     1091    10634    4                     END;                  /* do k                               */

  10634  1 000232   200012 054100                    AOS     K,,AUTO
         1 000233   200012 236100                    LDQ     K,,AUTO
         1 000234   000154 604000 1                  TMI     s:10618
         1 000235   000000 116000 xsym               CMPQ    KI_MXFE
         1 000236   000154 602000 1                  TNC     s:10618

     1092    10635    3                RETURN;                    /* no more space in current nsap      */

  10635  1 000237   000000 702200 xent               TSX2  ! X66_ARET

     1093    10636    3                END;                  /* type = type and afi=afi and len = len   */
     1094    10637    2           END;                            /* do i                               */

  10637  1 000240   200010 235100                    LDA     I,,AUTO
         1 000241   000001 035007                    ADLA    1,DL
         1 000242   200010 755100                    STA     I,,AUTO
         1 000243   200010 236100                    LDQ     I,,AUTO
         1 000244   000000 116000 xsym               CMPQ    KI_OSIMAX#
         1 000245   000007 602000 1                  TNC     s:10574

     1095    10638        /*
     1096    10639          couldn't find anyone who wanted us up there, lets make our own space.
     1097    10640        */
     1098    10641    2      DO I = 0 TO KI_OSIMAX# - 1;

  10641  1 000246   200010 450100                    STZ     I,,AUTO
         1 000247   000332 710000 1                  TRA     s:10662+3

     1099    10642    2           OSI$ = KI_OSIROUTE$(I);

  10642  1 000250   000000 470400 xsym               LDP0    KI_OSIROUTE$$
         1 000251   200010 720100                    LXL0    I,,AUTO
         1 000252   000000 236110                    LDQ     0,X0,PR0
         1 000253   200007 756100                    STQ     OSI$,,AUTO

PL6.E3A0      #003=KIN$OSICHG File=KIN$NETWORK.:E05TSI                           WED 07/30/97 00:35 Page:183
     1100    10643    2           IF KI$OSIROUTE.NSAP.AFI = 0 THEN

  10643  1 000254   200007 471500                    LDP1    OSI$,,AUTO
         1 000255   100000 236100                    LDQ     0,,PR1
         1 000256   000777 316003                    CANQ    511,DU
         1 000257   000327 601000 1                  TNZ     s:10662

     1101    10644    3           DO;

     1102    10645                     %LOCK(G=KI_LOCK);

  10646  1 000260   000001 630400 2                  EPPR0   1
         1 000261   000017 631400 xsym               EPPR1   B_VECTNIL+15
         1 000262   000000 701000 xent               TSX1    HFC$LOCK
         1 000263   000000 011000                    NOP     0

     1103    10648    3                KI$OSIROUTE = '0'B;

  10648  1 000264   200007 470500                    LDP0    OSI$,,AUTO
         1 000265   000100 100400                    MLR     fill='000'O
         1 000266   000002 000001 xsym               ADSC9   B_VECTNIL+2              cn=0,n=1
         1 000267   000000 000104                    ADSC9   0,,PR0                   cn=0,n=68

     1104    10649    3                KI$OSIROUTE.NS_TYPE = KL$UPDOSI.NS_TYPE;

  10649  1 000270   200004 471500                    LDP1    PARM$,,AUTO
         1 000271   100000 236100                    LDQ     0,,PR1
         1 000272   000011 736000                    QLS     9
         1 000273   000015 676100                    ERQ     13,,PR0
         1 000274   360000 376003                    ANQ     122880,DU
         1 000275   000015 656100                    ERSQ    13,,PR0

     1105    10650    3                KI$OSIROUTE.NSAP = KL$UPDOSI.NSAP;

  10650  1 000276   000100 100500                    MLR     fill='000'O
         1 000277   100002 000026                    ADSC9   2,,PR1                   cn=0,n=22
         1 000300   000000 000026                    ADSC9   0,,PR0                   cn=0,n=22
PL6.E3A0      #003=KIN$OSICHG File=KIN$NETWORK.:E05TSI                           WED 07/30/97 00:35 Page:184

     1106    10651    3                KI$OSIROUTE.LNSAP = KL$UPDOSI.LNSAP;

  10651  1 000301   000100 100500                    MLR     fill='000'O
         1 000302   100007 400026                    ADSC9   7,,PR1                   cn=2,n=22
         1 000303   000007 400026                    ADSC9   7,,PR0                   cn=2,n=22

     1107    10652    3                KI$OSIROUTE.LINK.HOST#(0) = KL$UPDOSI.HOST#;

  10652  1 000304   100000 236100                    LDQ     0,,PR1
         1 000305   000011 772000                    QRL     9
         1 000306   000015 552104                    STBQ    13,'04'O,PR0

     1108    10653    3                KI$OSIROUTE.SNPA = KL$UPDOSI.SNPA;

  10653  1 000307   000100 100500                    MLR     fill='000'O
         1 000310   100015 000010                    ADSC9   13,,PR1                  cn=0,n=8
         1 000311   000005 400010                    ADSC9   5,,PR0                   cn=2,n=8

     1109    10654    3                KI$OSIROUTE.LINK.FEP#(0) = KL$UPDOSI.FEP#;

  10654  1 000312   100000 236100                    LDQ     0,,PR1
         1 000313   000011 736000                    QLS     9
         1 000314   000015 552110                    STBQ    13,'10'O,PR0

     1110    10655    3                KI$OSIROUTE.LINK.QOS(0) = KL$UPDOSI.QOS;

  10655  1 000315   100001 236100                    LDQ     1,,PR1
         1 000316   000011 736000                    QLS     9
         1 000317   000016 552140                    STBQ    14,'40'O,PR0

     1111    10656    3                KI$OSIROUTE.LINK.ACTIVE(0) = '1'B;

  10656  1 000320   000200 236003                    LDQ     128,DU
         1 000321   000015 256100                    ORSQ    13,,PR0

     1112    10657                     %UNLOCK(G=KI_LOCK);
PL6.E3A0      #003=KIN$OSICHG File=KIN$NETWORK.:E05TSI                           WED 07/30/97 00:35 Page:185

  10658  1 000322   000001 630400 2                  EPPR0   1
         1 000323   000017 631400 xsym               EPPR1   B_VECTNIL+15
         1 000324   000000 701000 xent               TSX1    HFC$UNLOCK
         1 000325   000000 011000                    NOP     0

     1113    10660    3                RETURN;

  10660  1 000326   000000 702200 xent               TSX2  ! X66_ARET

     1114    10661    3                END;                       /* route table entry not in use       */
     1115    10662    2           END;                            /* do i                               */

  10662  1 000327   200010 235100                    LDA     I,,AUTO
         1 000330   000001 035007                    ADLA    1,DL
         1 000331   200010 755100                    STA     I,,AUTO
         1 000332   200010 236100                    LDQ     I,,AUTO
         1 000333   000000 116000 xsym               CMPQ    KI_OSIMAX#
         1 000334   000250 602000 1                  TNC     s:10642

     1116    10663    1      RETURN;

  10663  1 000335   000000 702200 xent               TSX2  ! X66_ARET

     1117    10664
     1118    10665
     1119    10666
     1120    10667    1   KIN$OSILINKCHG: ENTRY(PARM) ALTRET;

  10667  1 000336   000000 700200 xent  KIN$OSILINK* TSX0  ! X66_AUTO_1
         1 000337   000020 000001                    ZERO    16,1

     1121    10668
     1122    10669
     1123    10670    1      PARM$ = ADDR(PARM);

  10670  1 000340   200003 236100                    LDQ     @PARM,,AUTO
PL6.E3A0      #003=KIN$OSICHG File=KIN$NETWORK.:E05TSI                           WED 07/30/97 00:35 Page:186
         1 000341   200004 756100                    STQ     PARM$,,AUTO

     1124    10671    2      DO I = 0 TO KI_OSIMAX#-1;

  10671  1 000342   200010 450100                    STZ     I,,AUTO
         1 000343   000662 710000 1                  TRA     SNPALOOP+3

     1125    10672    2           OSI$ = KI_OSIROUTE$(I);

  10672  1 000344   000000 470400 xsym               LDP0    KI_OSIROUTE$$
         1 000345   200010 720100                    LXL0    I,,AUTO
         1 000346   000000 236110                    LDQ     0,X0,PR0
         1 000347   200007 756100                    STQ     OSI$,,AUTO

     1126    10673    3           IF KI$OSIROUTE.SNPA.LEN >= KL$OSILINKCHG.SNPA.LEN THEN DO;

  10673  1 000350   200004 471500                    LDP1    PARM$,,AUTO
         1 000351   100002 236100                    LDQ     2,,PR1
         1 000352   000033 772000                    QRL     27
         1 000353   200016 756100                    STQ     FOUNDONE+2,,AUTO
         1 000354   200007 473500                    LDP3    OSI$,,AUTO
         1 000355   300005 236100                    LDQ     5,,PR3
         1 000356   000011 772000                    QRL     9
         1 000357   000777 376007                    ANQ     511,DL
         1 000360   200016 116100                    CMPQ    FOUNDONE+2,,AUTO
         1 000361   000657 604000 1                  TMI     SNPALOOP

     1127    10674    3                IF MOD(KL$OSILINKCHG.SNPA.LEN,2) ~= 0 THEN

  10674  1 000362   100002 236100                    LDQ     2,,PR1
         1 000363   000033 772000                    QRL     27
         1 000364   000001 376007                    ANQ     1,DL
         1 000365   000373 600000 1                  TZE     s:10677

     1128    10675    3                     LEN = KL$OSILINKCHG.SNPA.LEN - 1;

  10675  1 000366   100002 236100                    LDQ     2,,PR1
PL6.E3A0      #003=KIN$OSICHG File=KIN$NETWORK.:E05TSI                           WED 07/30/97 00:35 Page:187
         1 000367   000033 772000                    QRL     27
         1 000370   000001 136007                    SBLQ    1,DL
         1 000371   200011 756100                    STQ     LEN,,AUTO
         1 000372   000376 710000 1                  TRA     s:10679

     1129    10676    3                ELSE
     1130    10677    3                     LEN = KL$OSILINKCHG.SNPA.LEN;

  10677  1 000373   100002 236100                    LDQ     2,,PR1
         1 000374   000033 772000                    QRL     27
         1 000375   200011 756100                    STQ     LEN,,AUTO

     1131    10678
     1132    10679    3                UPDOSI$ = ADDR(KL$OSILINKCHG.SNPA.ADDRESS);

  10679  1 000376   200004 236100                    LDQ     PARM$,,AUTO
         1 000377   000000 036000 2                  ADLQ    0
         1 000400   200006 756100                    STQ     UPDOSI$,,AUTO

     1133    10680    3                OSIROUTE$ = ADDR(KI$OSIROUTE.SNPA.ADDRESS);

  10680  1 000401   200007 236100                    LDQ     OSI$,,AUTO
         1 000402   000002 036000 2                  ADLQ    2
         1 000403   200005 756100                    STQ     OSIROUTE$,,AUTO

     1134    10681    3                L = 0;

  10681  1 000404   200013 450100                    STZ     L,,AUTO

     1135    10682    4                DO K = 0 TO LEN - 1 BY 2;

  10682  1 000405   200012 450100                    STZ     K,,AUTO
         1 000406   000454 710000 1                  TRA     s:10687+2

     1136    10683    4                     IF ADDRTMPLT.BYT.HIGH(L) ~= ADDRTMPLT1.BYT.HIGH(L)

  10683  1 000407   200013 236100                    LDQ     L,,AUTO
PL6.E3A0      #003=KIN$OSICHG File=KIN$NETWORK.:E05TSI                           WED 07/30/97 00:35 Page:188
         1 000410   000011 402007                    MPY     9,DL
         1 000411   000000 116003                    CMPQ    0,DU
         1 000412   000414 605000 1                  TPL     s:10683+5
         1 000413   000044 036003                    ADLQ    36,DU
         1 000414   200016 756100                    STQ     FOUNDONE+2,,AUTO
         1 000415   200013 236100                    LDQ     L,,AUTO
         1 000416   000011 402007                    MPY     9,DL
         1 000417   000000 116003                    CMPQ    0,DU
         1 000420   000422 605000 1                  TPL     s:10683+11
         1 000421   000044 036003                    ADLQ    36,DU
         1 000422   200006 470500                    LDP0    UPDOSI$,,AUTO
         1 000423   200016 235100                    LDA     FOUNDONE+2,,AUTO
         1 000424   200005 471500                    LDP1    OSIROUTE$,,AUTO
         1 000425   000106 066505                    CMPB    filb='0'B
         1 000426   000000 010004                    BDSC    0,A,PR0                  by=0,bit=1,n=4
         1 000427   100000 010004                    BDSC    0,Q,PR1                  by=0,bit=1,n=4
         1 000430   000657 601000 1                  TNZ     SNPALOOP
         1 000431   200013 236100                    LDQ     L,,AUTO
         1 000432   000011 402007                    MPY     9,DL
         1 000433   000000 116003                    CMPQ    0,DU
         1 000434   000436 605000 1                  TPL     s:10683+23
         1 000435   000044 036003                    ADLQ    36,DU
         1 000436   200017 756100                    STQ     FOUNDONE+3,,AUTO
         1 000437   200013 236100                    LDQ     L,,AUTO
         1 000440   000011 402007                    MPY     9,DL
         1 000441   000000 116003                    CMPQ    0,DU
         1 000442   000444 605000 1                  TPL     s:10683+29
         1 000443   000044 036003                    ADLQ    36,DU
         1 000444   200017 235100                    LDA     FOUNDONE+3,,AUTO
         1 000445   000106 066505                    CMPB    filb='0'B
         1 000446   000000 050004                    BDSC    0,A,PR0                  by=0,bit=5,n=4
         1 000447   100000 050004                    BDSC    0,Q,PR1                  by=0,bit=5,n=4
         1 000450   000657 601000 1                  TNZ     SNPALOOP

     1137    10684    4                       OR ADDRTMPLT.BYT.LOW(L) ~= ADDRTMPLT1.BYT.LOW(L) THEN
     1138    10685    4                          GOTO SNPALOOP;
     1139    10686    4                     L = L + 1;
PL6.E3A0      #003=KIN$OSICHG File=KIN$NETWORK.:E05TSI                           WED 07/30/97 00:35 Page:189

  10686  1 000451   200013 054100                    AOS     L,,AUTO

     1140    10687    4                     END;                  /* do k                               */

  10687  1 000452   000002 236007                    LDQ     2,DL
         1 000453   200012 056100                    ASQ     K,,AUTO
         1 000454   200012 236100                    LDQ     K,,AUTO
         1 000455   200011 116100                    CMPQ    LEN,,AUTO
         1 000456   000407 604000 1                  TMI     s:10683

     1141    10688
     1142    10689    4                IF LEN ~= KL$OSILINKCHG.SNPA.LEN THEN DO;

  10689  1 000457   200004 470500                    LDP0    PARM$,,AUTO
         1 000460   000002 236100                    LDQ     2,,PR0
         1 000461   000033 772000                    QRL     27
         1 000462   200011 116100                    CMPQ    LEN,,AUTO
         1 000463   000506 600000 1                  TZE     s:10693

     1143    10690    4                     IF ADDRTMPLT.BYT.HIGH(L) ~= ADDRTMPLT1.BYT.HIGH(L) THEN

  10690  1 000464   200013 236100                    LDQ     L,,AUTO
         1 000465   000011 402007                    MPY     9,DL
         1 000466   000000 116003                    CMPQ    0,DU
         1 000467   000471 605000 1                  TPL     s:10690+5
         1 000470   000044 036003                    ADLQ    36,DU
         1 000471   200016 756100                    STQ     FOUNDONE+2,,AUTO
         1 000472   200013 236100                    LDQ     L,,AUTO
         1 000473   000011 402007                    MPY     9,DL
         1 000474   000000 116003                    CMPQ    0,DU
         1 000475   000477 605000 1                  TPL     s:10690+11
         1 000476   000044 036003                    ADLQ    36,DU
         1 000477   200006 471500                    LDP1    UPDOSI$,,AUTO
         1 000500   200016 235100                    LDA     FOUNDONE+2,,AUTO
         1 000501   200005 473500                    LDP3    OSIROUTE$,,AUTO
         1 000502   000106 066505                    CMPB    filb='0'B
PL6.E3A0      #003=KIN$OSICHG File=KIN$NETWORK.:E05TSI                           WED 07/30/97 00:35 Page:190
         1 000503   100000 010004                    BDSC    0,A,PR1                  by=0,bit=1,n=4
         1 000504   300000 010004                    BDSC    0,Q,PR3                  by=0,bit=1,n=4
         1 000505   000657 601000 1                  TNZ     SNPALOOP

     1144    10691    4                          GOTO SNPALOOP;
     1145    10692    4                     END;

     1146    10693    4                DO K = 0 TO KI_MXFE-1;

  10693  1 000506   200012 450100                    STZ     K,,AUTO
         1 000507   000565 710000 1                  TRA     s:10707+1

     1147    10694    5                     IF KL$OSILINKCHG.NODE# = KI$OSIROUTE.LINK.FEP#(K) THEN DO;

  10694  1 000510   200012 236100                    LDQ     K,,AUTO
         1 000511   000017 402007                    MPY     15,DL
         1 000512   200007 470500                    LDP0    OSI$,,AUTO
         1 000513   000100 101506                    MRL     fill='000'O
         1 000514   000015 400001                    ADSC9   13,Q,PR0                 cn=2,n=1
         1 000515   200016 000004                    ADSC9   FOUNDONE+2,,AUTO         cn=0,n=4
         1 000516   200004 471500                    LDP1    PARM$,,AUTO
         1 000517   100000 236100                    LDQ     0,,PR1
         1 000520   000777 376007                    ANQ     511,DL
         1 000521   200016 116100                    CMPQ    FOUNDONE+2,,AUTO
         1 000522   000564 601000 1                  TNZ     s:10707

     1148    10695                               %LOCK(G=KI_LOCK);

  10696  1 000523   000001 630400 2                  EPPR0   1
         1 000524   000017 631400 xsym               EPPR1   B_VECTNIL+15
         1 000525   000000 701000 xent               TSX1    HFC$LOCK
         1 000526   000000 011000                    NOP     0

     1149    10698    5                          IF KL$OSILINKCHG.TYPE = IGA_OSILINKUP THEN

  10698  1 000527   200004 470500                    LDP0    PARM$,,AUTO
         1 000530   000000 236100                    LDQ     0,,PR0
PL6.E3A0      #003=KIN$OSICHG File=KIN$NETWORK.:E05TSI                           WED 07/30/97 00:35 Page:191
         1 000531   000777 376003                    ANQ     511,DU
         1 000532   000130 116003                    CMPQ    88,DU
         1 000533   000546 601000 1                  TNZ     s:10701

     1150    10699    5                               KI$OSIROUTE.LINK.ACTIVE(K) = '1'B;

  10699  1 000534   200012 236100                    LDQ     K,,AUTO
         1 000535   000207 402007                    MPY     135,DL
         1 000536   000000 116003                    CMPQ    0,DU
         1 000537   000541 605000 1                  TPL     s:10699+5
         1 000540   000044 036003                    ADLQ    36,DU
         1 000541   200007 471500                    LDP1    OSI$,,AUTO
         1 000542   003106 060400                    CSL     bolr='003'O
         1 000543   000030 000001 xsym               BDSC    B_VECTNIL+24             by=0,bit=0,n=1
         1 000544   100015 210001                    BDSC    13,Q,PR1                 by=1,bit=1,n=1
         1 000545   000557 710000 1                  TRA     s:10703

     1151    10700    5                          ELSE
     1152    10701    5                               KI$OSIROUTE.LINK.ACTIVE(K) = '0'B;

  10701  1 000546   200012 236100                    LDQ     K,,AUTO
         1 000547   000207 402007                    MPY     135,DL
         1 000550   000000 116003                    CMPQ    0,DU
         1 000551   000553 605000 1                  TPL     s:10701+5
         1 000552   000044 036003                    ADLQ    36,DU
         1 000553   200007 471500                    LDP1    OSI$,,AUTO
         1 000554   003106 060400                    CSL     bolr='003'O
         1 000555   000002 000001 xsym               BDSC    B_VECTNIL+2              by=0,bit=0,n=1
         1 000556   100015 210001                    BDSC    13,Q,PR1                 by=1,bit=1,n=1

     1153    10702                               %UNLOCK(G=KI_LOCK);

  10703  1 000557   000001 630400 2                  EPPR0   1
         1 000560   000017 631400 xsym               EPPR1   B_VECTNIL+15
         1 000561   000000 701000 xent               TSX1    HFC$UNLOCK
         1 000562   000000 011000                    NOP     0

PL6.E3A0      #003=KIN$OSICHG File=KIN$NETWORK.:E05TSI                           WED 07/30/97 00:35 Page:192
     1154    10705    5                          GOTO SNPALOOP;   /* only one entry per node necessary  */

  10705  1 000563   000657 710000 1                  TRA     SNPALOOP

     1155    10706    5                          END;             /* node# = fep#                       */
     1156    10707    4                     END;                  /* do k = 1 to mxfe                   */

  10707  1 000564   200012 054100                    AOS     K,,AUTO
         1 000565   200012 236100                    LDQ     K,,AUTO
         1 000566   000510 604000 1                  TMI     s:10694
         1 000567   000000 116000 xsym               CMPQ    KI_MXFE
         1 000570   000510 602000 1                  TNC     s:10694

     1157    10708
     1158    10709                      /* didn't find an entry for this node in the list.
     1159    10710                         if it is a link up search for the first inactive and
     1160    10711                         set it to active.*/
     1161    10712    3                IF KL$OSILINKCHG.TYPE = IGA_OSILINKUP THEN

  10712  1 000571   200004 470500                    LDP0    PARM$,,AUTO
         1 000572   000000 236100                    LDQ     0,,PR0
         1 000573   000777 376003                    ANQ     511,DU
         1 000574   000130 116003                    CMPQ    88,DU
         1 000575   000657 601000 1                  TNZ     SNPALOOP

     1162    10713    4                DO K = 0 TO KI_MXFE-1;

  10713  1 000576   200012 450100                    STZ     K,,AUTO
         1 000577   000653 710000 1                  TRA     s:10727+1

     1163    10714    5                     IF NOT KI$OSIROUTE.LINK.ACTIVE(K) THEN DO;

  10714  1 000600   200012 236100                    LDQ     K,,AUTO
         1 000601   000207 402007                    MPY     135,DL
         1 000602   000000 116003                    CMPQ    0,DU
         1 000603   000605 605000 1                  TPL     s:10714+5
         1 000604   000044 036003                    ADLQ    36,DU
PL6.E3A0      #003=KIN$OSICHG File=KIN$NETWORK.:E05TSI                           WED 07/30/97 00:35 Page:193
         1 000605   200007 470500                    LDP0    OSI$,,AUTO
         1 000606   000000 066506                    CMPB    filb='0'B
         1 000607   000015 210001                    BDSC    13,Q,PR0                 by=1,bit=1,n=1
         1 000610   000002 000022 xsym               BDSC    B_VECTNIL+2              by=0,bit=0,n=18
         1 000611   000652 601000 1                  TNZ     s:10727

     1164    10715                               %LOCK(G=KI_LOCK);

  10716  1 000612   000001 630400 2                  EPPR0   1
         1 000613   000017 631400 xsym               EPPR1   B_VECTNIL+15
         1 000614   000000 701000 xent               TSX1    HFC$LOCK
         1 000615   000000 011000                    NOP     0

     1165    10718    5                          KI$OSIROUTE.LINK(K) = '0'B;

  10718  1 000616   200012 236100                    LDQ     K,,AUTO
         1 000617   000017 402007                    MPY     15,DL
         1 000620   200007 470500                    LDP0    OSI$,,AUTO
         1 000621   000106 100400                    MLR     fill='000'O
         1 000622   000002 000001 xsym               ADSC9   B_VECTNIL+2              cn=0,n=1
         1 000623   000015 200017                    ADSC9   13,Q,PR0                 cn=1,n=15

     1166    10719    5                          KI$OSIROUTE.LINK.ACTIVE(K) = '1'B;

  10719  1 000624   200012 236100                    LDQ     K,,AUTO
         1 000625   000207 402007                    MPY     135,DL
         1 000626   000000 116003                    CMPQ    0,DU
         1 000627   000631 605000 1                  TPL     s:10719+5
         1 000630   000044 036003                    ADLQ    36,DU
         1 000631   003106 060400                    CSL     bolr='003'O
         1 000632   000030 000001 xsym               BDSC    B_VECTNIL+24             by=0,bit=0,n=1
         1 000633   000015 210001                    BDSC    13,Q,PR0                 by=1,bit=1,n=1

     1167    10720    5                          KI$OSIROUTE.LINK.QOS(K) = KL$OSILINKCHG.QOS;

  10720  1 000634   200012 236100                    LDQ     K,,AUTO
         1 000635   000017 402007                    MPY     15,DL
PL6.E3A0      #003=KIN$OSICHG File=KIN$NETWORK.:E05TSI                           WED 07/30/97 00:35 Page:194
         1 000636   200004 471500                    LDP1    PARM$,,AUTO
         1 000637   000106 100500                    MLR     fill='000'O
         1 000640   100001 000001                    ADSC9   1,,PR1                   cn=0,n=1
         1 000641   000016 000001                    ADSC9   14,Q,PR0                 cn=0,n=1

     1168    10721    5                          KI$OSIROUTE.LINK.FEP#(K) = KL$OSILINKCHG.NODE#;

  10721  1 000642   000106 100500                    MLR     fill='000'O
         1 000643   100000 600001                    ADSC9   0,,PR1                   cn=3,n=1
         1 000644   000015 400001                    ADSC9   13,Q,PR0                 cn=2,n=1

     1169    10722                               %UNLOCK(G=KI_LOCK);

  10723  1 000645   000001 630400 2                  EPPR0   1
         1 000646   000017 631400 xsym               EPPR1   B_VECTNIL+15
         1 000647   000000 701000 xent               TSX1    HFC$UNLOCK
         1 000650   000000 011000                    NOP     0

     1170    10725    5                          GOTO SNPALOOP;   /* one's enough                       */

  10725  1 000651   000657 710000 1                  TRA     SNPALOOP

     1171    10726    5                          END;             /* no link in use                     */
     1172    10727    4                     END;                  /* do k                               */

  10727  1 000652   200012 054100                    AOS     K,,AUTO
         1 000653   200012 236100                    LDQ     K,,AUTO
         1 000654   000600 604000 1                  TMI     s:10714
         1 000655   000000 116000 xsym               CMPQ    KI_MXFE
         1 000656   000600 602000 1                  TNC     s:10714

     1173    10728    3                END;                       /* route.snpa.len > linkchg.snpa.len  */

  10720  1 000657                       SNPALOOP     null
     1174    10729    2   SNPALOOP:;
     1175    10730    2           END;                            /* do i                               */

PL6.E3A0      #003=KIN$OSICHG File=KIN$NETWORK.:E05TSI                           WED 07/30/97 00:35 Page:195
  10730  1 000657   200010 235100                    LDA     I,,AUTO
         1 000660   000001 035007                    ADLA    1,DL
         1 000661   200010 755100                    STA     I,,AUTO
         1 000662   200010 236100                    LDQ     I,,AUTO
         1 000663   000000 116000 xsym               CMPQ    KI_OSIMAX#
         1 000664   000344 602000 1                  TNC     s:10672

     1176    10731    1   END KIN$OSICHG;

  10731  1 000665   000000 702200 xent               TSX2  ! X66_ARET

(unnamed)
 Sect OctLoc
   2     000   000002 200000   000000 006000   000005 600000                    ............
     1177    10732        %EOD;

PL6.E3A0      #003=KIN$OSICHG File=KIN$NETWORK.:E05TSI                           WED 07/30/97 00:35 Page:196
--  Include file information  --

   CP_6_C.:E05TOU  is referenced.
   CP_6.:E05TOU  cannot be made into a system file and is referenced.
   KL_AFCN_C.:E05TOU  is referenced.
   HF_LOCK_C.:E05TOU  cannot be made into a system file and is referenced.
   K_NETWORK_E.:E05TOU  is referenced.
   K_ADDRESS_M.:E05TOU  is referenced.
   KL_MACRO_C.:E05TOU  is referenced.
   KNN_NETWORK_M.:E05TOU  is referenced.
      No diagnostics issued in procedure KIN$OSICHG.
PL6.E3A0      #003=KIN$OSICHG File=KIN$NETWORK.:E05TSI                           WED 07/30/97 00:35 Page:197

 **** Variables and constants ****

  ****  Auto variables  ****

  ****  Scalars and arrays  ****
OctLoc.c.b A Datatyp(siz) R M Lvl/name                 OctLoc.c.b A Datatyp(siz) R M Lvl/name

     3-0-0/w PTR         r     1 @PARM                     14-0-0/b BIT         r     1 FOUNDONE
    10-0-0/w UBIN        r     1 I                         12-0-0/w SBIN        r     1 K
    13-0-0/w SBIN        r     1 L                         11-0-0/w SBIN        r     1 LEN
     7-0-0/w PTR         r     1 OSI$                       5-0-0/w PTR         r     1 OSIROUTE$
    *0-0-0/w UBIN        r     1 PARM                       4-0-0/w PTR         r     1 PARM$
     6-0-0/w PTR         r     1 UPDOSI$

  ****  SYMREF variables  ****

  ****  Scalars and arrays  ****
OctLoc.c.b A Datatyp(siz) R M Lvl/name                 OctLoc.c.b A Datatyp(siz) R M Lvl/name

     0-0-0/b BIT (72)    r     1 KI_LOCK                    0-0-0/w UBIN        r     1 KI_MXFE
     0-0-0/w UBIN        r     1 KI_OSIMAX#                 0-0-0/w PTR         r     1 KI_OSIROUTE$$

  ****  BASED and DCB variables  ****

  ****  Scalars and arrays  ****
OctLoc.c.b A Datatyp(siz) R M Lvl/name                 OctLoc.c.b A Datatyp(siz) R M Lvl/name

     0-0-0/c ACHR        r     1 ADDRESS                    0-0-0/w STRC(459)   r     1 ADDRTMPLT
     0-0-0/w STRC(459)   r     1 ADDRTMPLT1                 0-0-0/w STRC(612)   r     1 KI$OSIROUTE
     0-0-0/w PTR         r     1 KI_OSIROUTE$(0:0)
     0-0-0/w STRC(288)   r     1 KL$OSILINKCHG              0-0-0/w STRC(540)   r     1 KL$UPDOSI


   Procedure KIN$OSICHG requires 438 words for executable code.
   Procedure KIN$OSICHG requires 16 words of local(AUTO) storage.
PL6.E3A0      #003=KIN$OSICHG File=KIN$NETWORK.:E05TSI                           WED 07/30/97 00:35 Page:198
          *** CROSS REFERENCE LISTING ***
**     DENOTES     IDENTIFIER DEFINITION
<<                 IDENTIFIER'S VALUE SET
>>                 IDENTIFIER'S VALUE USED
<>                 IDENTIFIER SET AND/OR USED
--                 IDENTIFIER REFERENCED
PL6.E3A0      #003=KIN$OSICHG File=KIN$NETWORK.:E05TSI                           WED 07/30/97 00:35 Page:199
          MINI XREF LISTING

ADDRESS
     10560**DCL     10583>>IF      10583>>IF
ADDRTMPLT.BYT.HIGH
     10551**DCL     10683>>IF      10690>>IF
ADDRTMPLT.BYT.LOW
     10552**DCL     10683>>IF
ADDRTMPLT1.BYT.HIGH
     10557**DCL     10683>>IF      10690>>IF
ADDRTMPLT1.BYT.LOW
     10558**DCL     10683>>IF
FOUNDONE
     10569**DCL     10572<<ASSIGN
HFC$LOCK
      4329**DCL-ENT 10593--CALL    10621--CALL    10646--CALL    10696--CALL    10716--CALL
HFC$UNLOCK
      4329**DCL-ENT 10605--CALL    10630--CALL    10658--CALL    10703--CALL    10723--CALL
I
     10565**DCL     10573<<DOINDEX 10574>>ASSIGN  10641<<DOINDEX 10642>>ASSIGN  10671<<DOINDEX 10672>>ASSIGN
K
     10567**DCL     10589<<DOINDEX 10590>>IF      10600>>ASSIGN  10602>>ASSIGN  10617<<DOINDEX 10618>>IF
     10624>>ASSIGN  10626>>ASSIGN  10627>>ASSIGN  10628>>ASSIGN  10682<<DOINDEX 10693<<DOINDEX 10694>>IF
     10699>>ASSIGN  10701>>ASSIGN  10713<<DOINDEX 10714>>IF      10718>>ASSIGN  10719>>ASSIGN  10720>>ASSIGN
     10721>>ASSIGN
KI$OSIROUTE
     10346**DCL     10648<<ASSIGN
KI$OSIROUTE.LINK
     10511**DCL     10718<<ASSIGN
KI$OSIROUTE.LINK.ACTIVE
     10518**DCL     10618>>IF      10628<<ASSIGN  10656<<ASSIGN  10699<<ASSIGN  10701<<ASSIGN  10714>>IF
     10719<<ASSIGN
KI$OSIROUTE.LINK.FEP#
     10523**DCL     10590>>IF      10626<<ASSIGN  10654<<ASSIGN  10694>>IF      10721<<ASSIGN
PL6.E3A0      #003=KIN$OSICHG File=KIN$NETWORK.:E05TSI                           WED 07/30/97 00:35 Page:200
KI$OSIROUTE.LINK.HOST#
     10530**DCL     10600<<ASSIGN  10624<<ASSIGN  10652<<ASSIGN
KI$OSIROUTE.LINK.QOS
     10534**DCL     10602<<ASSIGN  10627<<ASSIGN  10655<<ASSIGN  10720<<ASSIGN
KI$OSIROUTE.LNSAP
     10458**DCL     10599<<ASSIGN  10623<<ASSIGN  10651<<ASSIGN
KI$OSIROUTE.LNSAP.ADDRESS_N
     10488**DCL     10489--REDEF
KI$OSIROUTE.NSAP
     10368**DCL     10650<<ASSIGN
KI$OSIROUTE.NSAP.ADDRESS_N
     10398**DCL     10399--REDEF
KI$OSIROUTE.NSAP.AFI
     10375**DCL     10576>>IF      10582--ASSIGN  10596<<ASSIGN  10643>>IF
KI$OSIROUTE.NSAP.LEN
     10370**DCL     10576>>IF      10580>>ASSIGN
KI$OSIROUTE.NS_TYPE
     10499**DCL     10576>>IF      10649<<ASSIGN
KI$OSIROUTE.SNPA
     10425**DCL     10601<<ASSIGN  10625<<ASSIGN  10653<<ASSIGN
KI$OSIROUTE.SNPA.ADDRESS
     10432**DCL     10680--ASSIGN
KI$OSIROUTE.SNPA.LEN
     10427**DCL     10673>>IF
KI_LOCK
     10328**DCL     10593<>CALL    10605<>CALL    10621<>CALL    10630<>CALL    10646<>CALL    10658<>CALL
     10696<>CALL    10703<>CALL    10716<>CALL    10723<>CALL
KI_MXFE
     10327**DCL     10589>>DOINDEX 10617>>DOINDEX 10693>>DOINDEX 10713>>DOINDEX
KI_OSIMAX#
     10326**DCL     10573>>DOINDEX 10641>>DOINDEX 10671>>DOINDEX
KI_OSIROUTE$
     10547**DCL     10574>>ASSIGN  10642>>ASSIGN  10672>>ASSIGN
KI_OSIROUTE$$
     10325**DCL     10547--IMP-PTR 10574>>ASSIGN  10642>>ASSIGN  10672>>ASSIGN
KL$OSILINKCHG.NODE#
PL6.E3A0      #003=KIN$OSICHG File=KIN$NETWORK.:E05TSI                           WED 07/30/97 00:35 Page:201
     10251**DCL     10694>>IF      10721>>ASSIGN
KL$OSILINKCHG.QOS
     10253**DCL     10720>>ASSIGN
KL$OSILINKCHG.SNPA.ADDRESS
     10286**DCL     10679--ASSIGN
KL$OSILINKCHG.SNPA.LEN
     10281**DCL     10673>>IF      10674>>IF      10675>>ASSIGN  10677>>ASSIGN  10689>>IF
KL$OSILINKCHG.TERMID.TERM
     10310**DCL     10319--REDEF
KL$OSILINKCHG.TYPE
     10240**DCL     10698>>IF      10712>>IF
KL$UPDOSI.FCN
     10020**DCL     10595>>IF      10610>>IF
KL$UPDOSI.FEP#
     10049**DCL     10590>>IF      10626>>ASSIGN  10654>>ASSIGN
KL$UPDOSI.HOST#
     10046**DCL     10600>>ASSIGN  10624>>ASSIGN  10652>>ASSIGN
KL$UPDOSI.LNSAP
     10133**DCL     10599>>ASSIGN  10623>>ASSIGN  10651>>ASSIGN
KL$UPDOSI.LNSAP.ADDRESS_N
     10163**DCL     10164--REDEF
KL$UPDOSI.MYNODE#
     10044**DCL     10046--REDEF
KL$UPDOSI.NODE#
     10047**DCL     10049--REDEF
KL$UPDOSI.NSAP
     10077**DCL     10650>>ASSIGN
KL$UPDOSI.NSAP.ADDRESS_N
     10107**DCL     10108--REDEF
KL$UPDOSI.NSAP.AFI
     10084**DCL     10576>>IF      10581--ASSIGN
KL$UPDOSI.NSAP.LEN
     10079**DCL     10576>>IF
KL$UPDOSI.NS_TYPE
     10032**DCL     10576>>IF      10649>>ASSIGN
KL$UPDOSI.QOS
PL6.E3A0      #003=KIN$OSICHG File=KIN$NETWORK.:E05TSI                           WED 07/30/97 00:35 Page:202
     10052**DCL     10602>>ASSIGN  10627>>ASSIGN  10655>>ASSIGN
KL$UPDOSI.SNPA
     10187**DCL     10601>>ASSIGN  10625>>ASSIGN  10653>>ASSIGN
L
     10568**DCL     10681<<ASSIGN  10683>>IF      10683>>IF      10683>>IF      10683>>IF      10686<<ASSIGN
     10686>>ASSIGN  10690>>IF      10690>>IF
LEN
     10566**DCL     10560--IMP-SIZ 10580<<ASSIGN  10583>>IF      10583>>IF      10583>>IF      10583>>IF
     10675<<ASSIGN  10677<<ASSIGN  10682>>DOINDEX 10689>>IF
NXTI
     10579**LABEL   10584--EXIT
OSI$
     10564**DCL     10346--IMP-PTR 10574<<ASSIGN  10576>>IF      10576>>IF      10576>>IF      10580>>ASSIGN
     10582>>ASSIGN  10590>>IF      10596>>ASSIGN  10599>>ASSIGN  10600>>ASSIGN  10601>>ASSIGN  10602>>ASSIGN
     10618>>IF      10623>>ASSIGN  10624>>ASSIGN  10625>>ASSIGN  10626>>ASSIGN  10627>>ASSIGN  10628>>ASSIGN
     10642<<ASSIGN  10643>>IF      10648>>ASSIGN  10649>>ASSIGN  10650>>ASSIGN  10651>>ASSIGN  10652>>ASSIGN
     10653>>ASSIGN  10654>>ASSIGN  10655>>ASSIGN  10656>>ASSIGN  10672<<ASSIGN  10673>>IF      10680>>ASSIGN
     10694>>IF      10699>>ASSIGN  10701>>ASSIGN  10714>>IF      10718>>ASSIGN  10719>>ASSIGN  10720>>ASSIGN
     10721>>ASSIGN
OSIROUTE$
     10562**DCL     10554--IMP-PTR 10582<<ASSIGN  10583>>IF      10680<<ASSIGN  10683>>IF      10683>>IF
     10690>>IF
PARM
      9991**DCL         7--PROC    10571--ASSIGN  10667--ENTRY   10670--ASSIGN
PARM$
     10561**DCL     10009--IMP-PTR 10218--IMP-PTR 10571<<ASSIGN  10576>>IF      10576>>IF      10576>>IF
     10581>>ASSIGN  10590>>IF      10595>>IF      10599>>ASSIGN  10600>>ASSIGN  10601>>ASSIGN  10602>>ASSIGN
     10610>>IF      10623>>ASSIGN  10624>>ASSIGN  10625>>ASSIGN  10626>>ASSIGN  10627>>ASSIGN  10649>>ASSIGN
     10650>>ASSIGN  10651>>ASSIGN  10652>>ASSIGN  10653>>ASSIGN  10654>>ASSIGN  10655>>ASSIGN  10670<<ASSIGN
     10673>>IF      10674>>IF      10675>>ASSIGN  10677>>ASSIGN  10679>>ASSIGN  10689>>IF      10694>>IF
     10698>>IF      10712>>IF      10720>>ASSIGN  10721>>ASSIGN
SNPALOOP
     10720**LABEL   10685--GOTO    10691--GOTO    10705--GOTO    10725--GOTO
UPDOSI$
     10563**DCL     10548--IMP-PTR 10581<<ASSIGN  10583>>IF      10679<<ASSIGN  10683>>IF      10683>>IF
     10690>>IF

PL6.E3A0      #004=KIN$NODECHG File=KIN$NETWORK.:E05TSI                          WED 07/30/97 00:36 Page:203
     1178        1        /*T***********************************************************/
     1179        2        /*T*                                                         */
     1180        3        /*T* Copyright (c) Bull HN Information Systems Inc., 1997    */
     1181        4        /*T*                                                         */
     1182        5        /*T***********************************************************/
     1183        6        %EJECT;
PL6.E3A0      #004=KIN$NODECHG File=KIN$NETWORK.:E05TSI                          WED 07/30/97 00:36 Page:204
     1184        7        KIN$NODECHG: PROC (NODE#,LNKNODE,QOS) ALTRET;
     1185        8
     1186        9
     1187       10        %INCLUDE EL$TABLES;
     1188      333        %INCLUDE EL_SUBS_C;
     1189      417        %INCLUDE HF_LOCK_C;
     1190      431        %INCLUDE KI_MACROS_C;
     1191     1039        %INCLUDE KI_SUBS_C;
     1192     1175        %INCLUDE KL_MACRO_C;
     1193     4527        %INCLUDE KL_AFCN_C;
     1194     4628        %INCLUDE KL_SUBS_C;
     1195     4682        %INCLUDE KNN_NETWORK_M;
     1196     5045        %INCLUDE K_ADDRESS_M;
     1197     5548
     1198     5549                                                /* Parameters                         */
     1199     5550    1   DCL NODE# SBIN;
     1200     5551    1   DCL LNKNODE UBIN;
     1201     5552    1   DCL QOS UBIN;
     1202     5553
     1203     5554                                                /* Entry references                   */
     1204     5555    1   DCL ELA$SYSLOG ENTRY(6) ALTRET;
     1205     5556    1   DCL KIT$REPDISC ENTRY(1);
     1206     5557    1   DCL KIQ$LGFEDN ENTRY(1);
     1207     5558    1   DCL KUB$WRITE ENTRY(3) ALTRET;
     1208     5559    1   DCL KIS$REP_DISC ENTRY(1);
     1209     5560
     1210     5561                                                /* Auto                               */
     1211     5562    1   DCL FEI# UBIN;
     1212     5563    1   DCL I SBIN;
     1213     5564    1   DCL J SBIN;
     1214     5565    1   DCL K SBIN;
     1215     5566        %EL$FECRASH (STCLASS=AUTO);
     1216     5571        %KL_ACCTNG (STCLASS=AUTO);
     1217     5585    1   DCL TEMP UBIN;
     1218     5586        %KL_FEPST (FPTN=FEPST,STCLASS=AUTO);
     1219     5621    1   DCL FEI$ PTR;
     1220     5622    1   DCL ROUTE$ PTR;
PL6.E3A0      #004=KIN$NODECHG File=KIN$NETWORK.:E05TSI                          WED 07/30/97 00:36 Page:205
     1221     5623    1   DCL OSI$ PTR;
     1222     5624
     1223     5625                                                /* Based structures                   */
     1224     5626
     1225     5627    1   DCL KI$ROUTE$(0:0) PTR BASED(KI_ROUTE$$);
     1226     5628        %KI$FEI (STCLASS="BASED(FEI$)");
     1227     5712        %KI$ROUTE (STCLASS="BASED(ROUTE$)");
     1228     5766        %KNN$OSIROUTE(FPTN=KI$OSIROUTE,STCLASS="BASED(OSI$)");
     1229     5983    1   DCL KI$FEI$(0:0) PTR BASED(KI_FEI$$);
     1230     5984    1   DCL KI_OSIROUTE$(0:0) PTR BASED(KI_OSIROUTE$$);
     1231     5985                                                /* External Data                      */
     1232     5986    1   DCL K_NODE# UBIN SYMREF;
     1233     5987    1   DCL N$DCT$$ PTR SYMREF;
     1234     5988    1   DCL KI_FEI$$ PTR SYMREF;
     1235     5989    1   DCL KI_ROUTE$$ PTR SYMREF;
     1236     5990    1   DCL KI_LOCK BIT(72) SYMREF;
     1237     5991    1   DCL KI_NODES UBIN SYMREF;
     1238     5992    1   DCL KI_MXFE  UBIN SYMREF;
     1239     5993    1   DCL KI_OSIROUTE$$ PTR SYMREF;
     1240     5994    1   DCL KI_OSIMAX# UBIN SYMREF;
     1241     5995
     1242     5996        /* If the link specified is not active return.
     1243     5997        */
     1244     5998    1      IF NOT KI$ROUTE$(LNKNODE)-> KI$ROUTE.LINK_CONNECTED
     1245     5999    1        OR KI$ROUTE$(NODE#)-> KI$ROUTE.LINK_CONNECTED
     1246     6000    1      THEN RETURN;
     1247     6001
     1248     6002           %LOCK (G=KI_LOCK);
     1249     6005    2      DO I = 1 TO KI_MXFE;
     1250     6006    2           FEI$ = KI$FEI$(I);
     1251     6007    2           IF KI$FEI.FEP# = LNKNODE
     1252     6008    3           THEN DO;
     1253     6009    3                ROUTE$ = KI$ROUTE$(NODE#);
     1254     6010    3                KI$ROUTE.LINK.QOS(I) = MINIMUM(QOS +
     1255     6011    3                  KI$ROUTE$(LNKNODE)->KI$ROUTE.CURRENT_QOS, 255);
     1256     6012                     %UNLOCK (G=KI_LOCK);
     1257     6015
PL6.E3A0      #004=KIN$NODECHG File=KIN$NETWORK.:E05TSI                          WED 07/30/97 00:36 Page:206
     1258     6016    3                CALL UPDATE_ROUTE ALTRET(DO_ALTRET);
     1259     6017    3                RETURN;
     1260     6018    3                END;
     1261     6019    2           END;
     1262     6020           %UNLOCK (G=KI_LOCK);
     1263     6023    1      RETURN;
     1264     6024
     1265     6025    1   DO_ALTRET: ;
     1266     6026    1      ALTRETURN;
     1267     6027
     1268     6028        %EJECT;
PL6.E3A0      #004=KIN$NODECHG File=KIN$NETWORK.:E05TSI                          WED 07/30/97 00:36 Page:207
     1269     6029    1   KIN$UPDATE_ROUTE: ENTRY ALTRET;
     1270     6030
     1271     6031    1      CALL UPDATE_ROUTE
     1272     6032    2      WHENALTRETURN DO; ALTRETURN; END;
     1273     6033
     1274     6034        %EJECT;
PL6.E3A0      #004=KIN$NODECHG File=KIN$NETWORK.:E05TSI                          WED 07/30/97 00:36 Page:208
     1275     6035    1   UPDATE_ROUTE: PROC ALTRET;
     1276     6036
     1277     6037    2   DCL SVLINK SBIN;
     1278     6038    2   DCL BESTQOS UBIN;
     1279     6039    2   DCL ALTQOS UBIN;
     1280     6040
     1281     6041    3      DO I = 0 TO KI_NODES;
     1282     6042    3           SVLINK = 0;
     1283     6043    3           BESTQOS = 255;
     1284     6044    3           ALTQOS = 255;
     1285     6045    3           ROUTE$ = KI$ROUTE$(I);
     1286     6046
     1287     6047                                                /* Go through every link              */
     1288     6048    4           DO J = 1 TO KI_MXFE;
     1289     6049    4                IF BESTQOS > KI$ROUTE.LINK.QOS(J)
     1290     6050    5                THEN DO;
     1291     6051    5                     BESTQOS = KI$ROUTE.LINK.QOS(J);
     1292     6052
     1293     6053    5                     SVLINK = J;
     1294     6054    5                     END;
     1295     6055
     1296     6056    4                END;
     1297     6057
     1298     6058        /* If the status has change tell SLUG.
     1299     6059        */
     1300     6060    3           IF KI$ROUTE.FEI# ~= SVLINK OR KI$ROUTE.CURRENT_QOS ~= BESTQOS
     1301     6061    4           THEN DO;
     1302     6062    4                FEPST.FCN = IGA_FEPST;
     1303     6063    4                FEPST.FEP = I;
     1304     6064    4                FEPST.QOS = BESTQOS;
     1305     6065    4                FEPST.PROB = KIER_QOSCHG;
     1306     6066
     1307     6067    4                IF SVLINK ~= 0
     1308     6068    4                THEN FEPST.LNK_NODE = KI$FEI$(SVLINK)->KI$FEI.FEP#;
     1309     6069    4                ELSE FEPST.LNK_NODE = 0;
     1310     6070
     1311     6071    4                FEPST.ALT_QOS = 255;
PL6.E3A0      #004=KIN$NODECHG File=KIN$NETWORK.:E05TSI                          WED 07/30/97 00:36 Page:209
     1312     6072    4                CALL KUB$WRITE(FEPST,SIZEC(FEPST),'HLPADMIN')
     1313     6073    5                WHENALTRETURN DO;
     1314     6074    5                     ALTRETURN;
     1315     6075    5                     END;
     1316     6076    4                END;
     1317     6077
     1318     6078    3           IF SVLINK = 0                   /* No link available                  */
     1319     6079    4           THEN DO;
     1320     6080    4                IF KI$ROUTE.FEI# ~= 0
     1321     6081    5                THEN DO;
     1322     6082    5                     CALL KIT$REPDISC (I);
     1323     6083
     1324     6084    5                     IF KI$FEI$(KI$ROUTE.FEI#)->KI$FEI.FEP# ~= I /* Not a local  */
     1325     6085    6                     THEN DO;
     1326     6086    6                          EL$FECRASH.FENM.PROBLEM=KIER_QOSCHG;
     1327     6087    6                          EL$FECRASH.FENM.STATE=KIST_RUN;
     1328     6088    6                          EL$FECRASH.FENM.FEP#=I;
     1329     6089    6                          EL$FECRASH.FENM.DEVADDR='0'B;
     1330     6090    6                          EL$FECRASH.FENM.NODENAME = KI$ROUTE.NODE_NAME;
     1331     6091    6                          EL$FECRASH.FENM.CRASH# = KI$ROUTE.SEQ;
     1332     6092    6                          KI$ROUTE.SEQ = KI$ROUTE.SEQ + 1;
     1333     6093    6                          EL$FECRASH.FENM.LINK_NODE = 511;
     1334     6094    6                          EL$FECRASH.FENM.QOS = 255;
     1335     6095    6                          EL$FECRASH.FENM.ALT_QOS = 255;
     1336     6096    6                          CALL ELA$SYSLOG (EL_FEPCRASH,EL$FECRASH,SIZEW(EL$FECRASH),
              6096                                   '0'B,1,TEMP);
     1337     6097    6                          KL_ACCTNG.FEX=I;
     1338     6098    6                          KL_ACCTNG.REASON=%KLDR_QOSCHG;
     1339     6099    6                          CALL KIQ$LGFEDN(KL_ACCTNG);
     1340     6100    6                          END;
     1341     6101    5                     ELSE        /* rep disconnect on all of the qdp sessions    */
     1342     6102    5                          CALL KIS$REP_DISC(I);
     1343     6103    5                     END;
     1344     6104                      /*
     1345     6105                         update the ositable when a node disconnects.
     1346     6106                      */
     1347     6107    4                KI$ROUTE.FEI# = 0;;
PL6.E3A0      #004=KIN$NODECHG File=KIN$NETWORK.:E05TSI                          WED 07/30/97 00:36 Page:210
     1348     6108    4                KI$ROUTE.CURRENT_QOS = 255;
     1349     6109    4                KI$ROUTE.ALT_QOS = 255;
     1350     6110    5                DO J = 0 TO KI_OSIMAX#-1;
     1351     6111    5                     OSI$ = KI_OSIROUTE$(J);
     1352     6112    5                     IF KI$OSIROUTE.NS_TYPE = %K_TYPE_RNSAP THEN
     1353     6113    6                     DO K = 0 TO KI_MXFE-1;
     1354     6114    6                          IF KI$OSIROUTE.LINK.FEP#(K) = I THEN
     1355     6115    6                               KI$OSIROUTE.LINK.ACTIVE(K) = '0'B;
     1356     6116    6                          END;             /* do k                               */
     1357     6117    5                     END;                  /* do j                               */
     1358     6118    4                END;
     1359     6119
     1360     6120    4           ELSE DO;
     1361     6121    4                IF KI$FEI$(SVLINK)->KI$FEI.FEP# ~= I /* Not a local              */
     1362     6122    4                  AND SVLINK ~= KI$ROUTE.FEI#
     1363     6123    5                THEN DO;
     1364     6124    5                     EL$FECRASH.FENM.PROBLEM=KIER_QOSCHG;
     1365     6125    5                     EL$FECRASH.FENM.STATE=KIST_DN;
     1366     6126    5                     EL$FECRASH.FENM.FEP#=I;
     1367     6127    5                     EL$FECRASH.FENM.DEVADDR='0'B;
     1368     6128    5                     EL$FECRASH.FENM.NODENAME = KI$ROUTE.NODE_NAME;
     1369     6129    5                     EL$FECRASH.FENM.CRASH# = KI$ROUTE.SEQ;
     1370     6130    5                     EL$FECRASH.FENM.QOS = BESTQOS;
     1371     6131    5                     EL$FECRASH.FENM.ALT_QOS = ALTQOS;
     1372     6132    5                     EL$FECRASH.FENM.LINK_NODE = KI$FEI$(SVLINK)->KI$FEI.FEP#;
     1373     6133    5                     KI$ROUTE.SEQ = KI$ROUTE.SEQ + 1;
     1374     6134    5                     CALL ELA$SYSLOG (EL_FEPCRASH,EL$FECRASH,SIZEW(EL$FECRASH),'0'B,1,
              6134                              TEMP);
     1375     6135    5                     END;
     1376     6136    4                KI$ROUTE.FEI# = SVLINK;
     1377     6137    4                KI$ROUTE.CURRENT_QOS = BESTQOS;
     1378     6138    4                KI$ROUTE.ALT_QOS = ALTQOS;
     1379     6139    4                END;
     1380     6140
     1381     6141    3           END;
     1382     6142    2      RETURN;
     1383     6143    2   END UPDATE_ROUTE;
PL6.E3A0      #004=KIN$NODECHG File=KIN$NETWORK.:E05TSI                          WED 07/30/97 00:36 Page:211
     1384     6144    1   END KIN$NODECHG;
     1385     6145        %EOD;

PL6.E3A0      #004=KIN$NODECHG File=KIN$NETWORK.:E05TSI                          WED 07/30/97 00:36 Page:212
--  Include file information  --

   K_ADDRESS_M.:E05TOU  is referenced.
   KNN_NETWORK_M.:E05TOU  is referenced.
   KL_SUBS_C.:E05TOU  is referenced.
   KL_AFCN_C.:E05TOU  is referenced.
   KL_MACRO_C.:E05TOU  is referenced.
   KI_SUBS_C.:E05TOU  is referenced.
   KI_MACROS_C.:E05TOU  is referenced.
   HF_LOCK_C.:E05TOU  cannot be made into a system file and is referenced.
   EL_SUBS_C.:E05TOU  is referenced.
   EL$TABLES.:E05TOU  is referenced.
      No diagnostics issued in procedure KIN$NODECHG.

   Procedure KIN$NODECHG requires 366 words for executable code.
   Procedure KIN$NODECHG requires 40 words of local(AUTO) storage.

PL6.E3A0      #004=KIN$NODECHG File=KIN$NETWORK.:E05TSI                          WED 07/30/97 00:36 Page:213

 Object Unit name= KIN$NODECHG                                File name= KIN$NETWORK.:E05TOU
 UTS= JUL 30 '97 00:36:28.60 WED                              Compiler= PL-6/E31         Sev=      00
 SharedLib= :SHARED_SYSTEM                                    Alt SharedLib=


    ****  Control sections  ****

 Sect   Type Bound  Init  Size OctSiz  Section name(segment info)
    0  RoData even  UTS      2      2  KIN$NODECHG
    1   Proc  even  none   366    556  KIN$NODECHG
    2  RoData even  none     9     11  KIN$NODECHG

    ****  Entry defs  ****

                              Check   Calling
                             calling  sequence
  Sect OctLoc Primary Altret sequence   type   Parms  Name
     1      0   yes    yes     yes      Std        3  KIN$NODECHG
     1    114          yes     yes      Std        0  KIN$UPDATE_ROUTE

  ****  Entry refs  ****

         Check        Calling
        calling       sequence
Altret sequence SRef   type   Args  Name
         yes           Std       1 HFC$LOCK
         yes           Std       1 HFC$UNLOCK
 yes     yes           Std       3 KUB$WRITE
         yes           Std       1 KIT$REPDISC
         yes           Std       1 KIQ$LGFEDN
 yes     yes           Std       6 ELA$SYSLOG
         yes           Std       1 KIS$REP_DISC
                       nStd      0 X66_AUTO_3
                       nStd      0 X66_ARET
                       Std       0 B_CONSPOOL_D
                       nStd      0 X66_AALT
PL6.E3A0      #004=KIN$NODECHG File=KIN$NETWORK.:E05TSI                          WED 07/30/97 00:36 Page:214

  ****  Data refs  ****

  Flags:  r = read only, s = secondary
Flgs Name                             Flgs Name                             Flgs Name
     KI_FEI$$                              KI_ROUTE$$                            KI_LOCK
     KI_NODES                              KI_MXFE                               KI_OSIROUTE$$
     KI_OSIMAX#                            B_VECTNIL

  ****  Segment refs  ****

  Flags:  r = read only, s = secondary
Flgs Name                             Flgs Name                             Flgs Name
     ISSID
PL6.E3A0      #004=KIN$NODECHG File=KIN$NETWORK.:E05TSI                          WED 07/30/97 00:36 Page:215


     1178        1        /*T***********************************************************/
     1179        2        /*T*                                                         */
     1180        3        /*T* Copyright (c) Bull HN Information Systems Inc., 1997    */
     1181        4        /*T*                                                         */
     1182        5        /*T***********************************************************/
     1183        6        %EJECT;
PL6.E3A0      #004=KIN$NODECHG File=KIN$NETWORK.:E05TSI                          WED 07/30/97 00:36 Page:216
     1184        7        KIN$NODECHG: PROC (NODE#,LNKNODE,QOS) ALTRET;

      7  1 000000   000000 700200 xent  KIN$NODECHG  TSX0  ! X66_AUTO_3
         1 000001   000050 000003                    ZERO    40,3

     1185        8
     1186        9
     1187       10        %INCLUDE EL$TABLES;
     1188      333        %INCLUDE EL_SUBS_C;
     1189      417        %INCLUDE HF_LOCK_C;
     1190      431        %INCLUDE KI_MACROS_C;
     1191     1039        %INCLUDE KI_SUBS_C;
     1192     1175        %INCLUDE KL_MACRO_C;
     1193     4527        %INCLUDE KL_AFCN_C;
     1194     4628        %INCLUDE KL_SUBS_C;
     1195     4682        %INCLUDE KNN_NETWORK_M;
     1196     5045        %INCLUDE K_ADDRESS_M;
     1197     5548
     1198     5549                                                /* Parameters                         */
     1199     5550    1   DCL NODE# SBIN;
     1200     5551    1   DCL LNKNODE UBIN;
     1201     5552    1   DCL QOS UBIN;
     1202     5553
     1203     5554                                                /* Entry references                   */
     1204     5555    1   DCL ELA$SYSLOG ENTRY(6) ALTRET;
     1205     5556    1   DCL KIT$REPDISC ENTRY(1);
     1206     5557    1   DCL KIQ$LGFEDN ENTRY(1);
     1207     5558    1   DCL KUB$WRITE ENTRY(3) ALTRET;
     1208     5559    1   DCL KIS$REP_DISC ENTRY(1);
     1209     5560
     1210     5561                                                /* Auto                               */
     1211     5562    1   DCL FEI# UBIN;
     1212     5563    1   DCL I SBIN;
     1213     5564    1   DCL J SBIN;
     1214     5565    1   DCL K SBIN;
     1215     5566        %EL$FECRASH (STCLASS=AUTO);
     1216     5571        %KL_ACCTNG (STCLASS=AUTO);
PL6.E3A0      #004=KIN$NODECHG File=KIN$NETWORK.:E05TSI                          WED 07/30/97 00:36 Page:217
     1217     5585    1   DCL TEMP UBIN;
     1218     5586        %KL_FEPST (FPTN=FEPST,STCLASS=AUTO);
     1219     5621    1   DCL FEI$ PTR;
     1220     5622    1   DCL ROUTE$ PTR;
     1221     5623    1   DCL OSI$ PTR;
     1222     5624
     1223     5625                                                /* Based structures                   */
     1224     5626
     1225     5627    1   DCL KI$ROUTE$(0:0) PTR BASED(KI_ROUTE$$);
     1226     5628        %KI$FEI (STCLASS="BASED(FEI$)");
     1227     5712        %KI$ROUTE (STCLASS="BASED(ROUTE$)");
     1228     5766        %KNN$OSIROUTE(FPTN=KI$OSIROUTE,STCLASS="BASED(OSI$)");
     1229     5983    1   DCL KI$FEI$(0:0) PTR BASED(KI_FEI$$);
     1230     5984    1   DCL KI_OSIROUTE$(0:0) PTR BASED(KI_OSIROUTE$$);
     1231     5985                                                /* External Data                      */
     1232     5986    1   DCL K_NODE# UBIN SYMREF;
     1233     5987    1   DCL N$DCT$$ PTR SYMREF;
     1234     5988    1   DCL KI_FEI$$ PTR SYMREF;
     1235     5989    1   DCL KI_ROUTE$$ PTR SYMREF;
     1236     5990    1   DCL KI_LOCK BIT(72) SYMREF;
     1237     5991    1   DCL KI_NODES UBIN SYMREF;
     1238     5992    1   DCL KI_MXFE  UBIN SYMREF;
     1239     5993    1   DCL KI_OSIROUTE$$ PTR SYMREF;
     1240     5994    1   DCL KI_OSIMAX# UBIN SYMREF;
     1241     5995
     1242     5996        /* If the link specified is not active return.
     1243     5997        */
     1244     5998    1      IF NOT KI$ROUTE$(LNKNODE)-> KI$ROUTE.LINK_CONNECTED

   5998  1 000002   200004 470500                    LDP0    @LNKNODE,,AUTO
         1 000003   000000 720100                    LXL0    0,,PR0
         1 000004   000000 471400 xsym               LDP1    KI_ROUTE$$
         1 000005   100000 473510                    LDP3    0,X0,PR1
         1 000006   300002 236100                    LDQ     2,,PR3
         1 000007   000200 316007                    CANQ    128,DL
         1 000010   000017 600000 1                  TZE     s:6000
         1 000011   200003 474500                    LDP4    @NODE#,,AUTO
PL6.E3A0      #004=KIN$NODECHG File=KIN$NETWORK.:E05TSI                          WED 07/30/97 00:36 Page:218
         1 000012   400000 721100                    LXL1    0,,PR4
         1 000013   100000 475511                    LDP5    0,X1,PR1
         1 000014   500002 236100                    LDQ     2,,PR5
         1 000015   000200 316007                    CANQ    128,DL
         1 000016   000020 600000 1                  TZE     s:6003

     1245     5999    1        OR KI$ROUTE$(NODE#)-> KI$ROUTE.LINK_CONNECTED
     1246     6000    1      THEN RETURN;

   6000  1 000017   000000 702200 xent               TSX2  ! X66_ARET

     1247     6001
     1248     6002           %LOCK (G=KI_LOCK);

   6003  1 000020   000000 630400 2                  EPPR0   0
         1 000021   000017 631400 xsym               EPPR1   B_VECTNIL+15
         1 000022   000000 701000 xent               TSX1    HFC$LOCK
         1 000023   000000 011000                    NOP     0

     1249     6005    2      DO I = 1 TO KI_MXFE;

   6005  1 000024   000001 235007                    LDA     1,DL
         1 000025   200007 755100                    STA     I,,AUTO
         1 000026   000102 710000 1                  TRA     s:6019+1

     1250     6006    2           FEI$ = KI$FEI$(I);

   6006  1 000027   000000 470400 xsym               LDP0    KI_FEI$$
         1 000030   200007 720100                    LXL0    I,,AUTO
         1 000031   000000 236110                    LDQ     0,X0,PR0
         1 000032   200033 756100                    STQ     FEI$,,AUTO

     1251     6007    2           IF KI$FEI.FEP# = LNKNODE

   6007  1 000033   200004 471500                    LDP1    @LNKNODE,,AUTO
         1 000034   200033 473500                    LDP3    FEI$,,AUTO
         1 000035   300012 236100                    LDQ     10,,PR3
PL6.E3A0      #004=KIN$NODECHG File=KIN$NETWORK.:E05TSI                          WED 07/30/97 00:36 Page:219
         1 000036   000011 772000                    QRL     9
         1 000037   000777 376007                    ANQ     511,DL
         1 000040   100000 116100                    CMPQ    0,,PR1
         1 000041   000101 601000 1                  TNZ     s:6019

     1252     6008    3           THEN DO;

     1253     6009    3                ROUTE$ = KI$ROUTE$(NODE#);

   6009  1 000042   200003 474500                    LDP4    @NODE#,,AUTO
         1 000043   400000 721100                    LXL1    0,,PR4
         1 000044   000000 475400 xsym               LDP5    KI_ROUTE$$
         1 000045   500000 236111                    LDQ     0,X1,PR5
         1 000046   200034 756100                    STQ     ROUTE$,,AUTO

     1254     6010    3                KI$ROUTE.LINK.QOS(I) = MINIMUM(QOS +

   6010  1 000047   200007 236100                    LDQ     I,,AUTO
         1 000050   000003 402007                    MPY     3,DL
         1 000051   100000 721100                    LXL1    0,,PR1
         1 000052   500000 476511                    LDP6    0,X1,PR5
         1 000053   200005 477500                    LDP7    @QOS,,AUTO
         1 000054   000000 622006                    EAX2    0,QL
         1 000055   600002 236100                    LDQ     2,,PR6
         1 000056   000022 772000                    QRL     18
         1 000057   000777 376007                    ANQ     511,DL
         1 000060   700000 036100                    ADLQ    0,,PR7
         1 000061   000377 116007                    CMPQ    255,DL
         1 000062   000065 602000 1                  TNC     s:6010+14
         1 000063   000065 600000 1                  TZE     s:6010+14
         1 000064   000377 236007                    LDQ     255,DL
         1 000065   200034 470500                    LDP0    ROUTE$,,AUTO
         1 000066   000033 736000                    QLS     27
         1 000067   000003 676112                    ERQ     3,X2,PR0
         1 000070   777000 376003                    ANQ     -512,DU
         1 000071   000003 656112                    ERSQ    3,X2,PR0

PL6.E3A0      #004=KIN$NODECHG File=KIN$NETWORK.:E05TSI                          WED 07/30/97 00:36 Page:220
     1255     6011    3                  KI$ROUTE$(LNKNODE)->KI$ROUTE.CURRENT_QOS, 255);
     1256     6012                     %UNLOCK (G=KI_LOCK);

   6013  1 000072   000000 630400 2                  EPPR0   0
         1 000073   000017 631400 xsym               EPPR1   B_VECTNIL+15
         1 000074   000000 701000 xent               TSX1    HFC$UNLOCK
         1 000075   000000 011000                    NOP     0

     1257     6015
     1258     6016    3                CALL UPDATE_ROUTE ALTRET(DO_ALTRET);

   6016  1 000076   000123 701000 1                  TSX1    UPDATE_ROUTE
         1 000077   000113 702000 1                  TSX2    DO_ALTRET

     1259     6017    3                RETURN;

   6017  1 000100   000000 702200 xent               TSX2  ! X66_ARET

     1260     6018    3                END;
     1261     6019    2           END;

   6019  1 000101   200007 054100                    AOS     I,,AUTO
         1 000102   000000 236000 xsym               LDQ     KI_MXFE
         1 000103   000027 604000 1                  TMI     s:6006
         1 000104   200007 116100                    CMPQ    I,,AUTO
         1 000105   000027 605000 1                  TPL     s:6006

     1262     6020           %UNLOCK (G=KI_LOCK);

   6021  1 000106   000000 630400 2                  EPPR0   0
         1 000107   000017 631400 xsym               EPPR1   B_VECTNIL+15
         1 000110   000000 701000 xent               TSX1    HFC$UNLOCK
         1 000111   000000 011000                    NOP     0

     1263     6023    1      RETURN;

   6023  1 000112   000000 702200 xent               TSX2  ! X66_ARET
PL6.E3A0      #004=KIN$NODECHG File=KIN$NETWORK.:E05TSI                          WED 07/30/97 00:36 Page:221

   6013  1 000113                       DO_ALTRET    null
     1264     6024
     1265     6025    1   DO_ALTRET: ;
     1266     6026    1      ALTRETURN;

   6026  1 000113   000000 702200 xent               TSX2  ! X66_AALT

     1267     6027
     1268     6028        %EJECT;
PL6.E3A0      #004=KIN$NODECHG File=KIN$NETWORK.:E05TSI                          WED 07/30/97 00:36 Page:222
     1269     6029    1   KIN$UPDATE_ROUTE: ENTRY ALTRET;

   6029  1 000114   000000 700200 xent  KIN$UPDATE_* TSX0  ! X66_AUTO_3
         1 000115   000050 000003                    ZERO    40,3

     1270     6030
     1271     6031    1      CALL UPDATE_ROUTE

   6031  1 000116   000123 701000 1                  TSX1    UPDATE_ROUTE
         1 000117   000121 702000 1                  TSX2    s:6032
         1 000120   000122 710000 1                  TRA     s:6032+1

     1272     6032    2      WHENALTRETURN DO; ALTRETURN; END;

   6032  1 000121   000000 702200 xent               TSX2  ! X66_AALT
         1 000122   000555 710000 1                  TRA     s:6144

     1273     6033
     1274     6034        %EJECT;
PL6.E3A0      #004=KIN$NODECHG File=KIN$NETWORK.:E05TSI                          WED 07/30/97 00:36 Page:223
     1275     6035    1   UPDATE_ROUTE: PROC ALTRET;

   6035  1 000123   200036 741300       UPDATE_ROUTE STX1  ! OSI$+1,,AUTO

     1276     6036
     1277     6037    2   DCL SVLINK SBIN;
     1278     6038    2   DCL BESTQOS UBIN;
     1279     6039    2   DCL ALTQOS UBIN;
     1280     6040
     1281     6041    3      DO I = 0 TO KI_NODES;

   6041  1 000124   200007 450100                    STZ     I,,AUTO
         1 000125   000547 710000 1                  TRA     s:6141+1

     1282     6042    3           SVLINK = 0;

   6042  1 000126   200037 450100                    STZ     SVLINK,,AUTO

     1283     6043    3           BESTQOS = 255;

   6043  1 000127   000377 235007                    LDA     255,DL
         1 000130   200040 755100                    STA     BESTQOS,,AUTO

     1284     6044    3           ALTQOS = 255;

   6044  1 000131   200041 755100                    STA     ALTQOS,,AUTO

     1285     6045    3           ROUTE$ = KI$ROUTE$(I);

   6045  1 000132   000000 470400 xsym               LDP0    KI_ROUTE$$
         1 000133   200007 720100                    LXL0    I,,AUTO
         1 000134   000000 236110                    LDQ     0,X0,PR0
         1 000135   200034 756100                    STQ     ROUTE$,,AUTO

     1286     6046
     1287     6047                                                /* Go through every link              */
     1288     6048    4           DO J = 1 TO KI_MXFE;
PL6.E3A0      #004=KIN$NODECHG File=KIN$NETWORK.:E05TSI                          WED 07/30/97 00:36 Page:224

   6048  1 000136   000001 235007                    LDA     1,DL
         1 000137   200010 755100                    STA     J,,AUTO
         1 000140   000160 710000 1                  TRA     s:6056+1

     1289     6049    4                IF BESTQOS > KI$ROUTE.LINK.QOS(J)

   6049  1 000141   200010 236100                    LDQ     J,,AUTO
         1 000142   000003 402007                    MPY     3,DL
         1 000143   200034 470500                    LDP0    ROUTE$,,AUTO
         1 000144   000003 236106                    LDQ     3,QL,PR0
         1 000145   000033 772000                    QRL     27
         1 000146   200040 116100                    CMPQ    BESTQOS,,AUTO
         1 000147   000157 603000 1                  TRC     s:6056

     1290     6050    5                THEN DO;

     1291     6051    5                     BESTQOS = KI$ROUTE.LINK.QOS(J);

   6051  1 000150   200010 236100                    LDQ     J,,AUTO
         1 000151   000003 402007                    MPY     3,DL
         1 000152   000003 236106                    LDQ     3,QL,PR0
         1 000153   000033 772000                    QRL     27
         1 000154   200040 756100                    STQ     BESTQOS,,AUTO

     1292     6052
     1293     6053    5                     SVLINK = J;

   6053  1 000155   200010 235100                    LDA     J,,AUTO
         1 000156   200037 755100                    STA     SVLINK,,AUTO

     1294     6054    5                     END;

     1295     6055
     1296     6056    4                END;

   6056  1 000157   200010 054100                    AOS     J,,AUTO
PL6.E3A0      #004=KIN$NODECHG File=KIN$NETWORK.:E05TSI                          WED 07/30/97 00:36 Page:225
         1 000160   000000 236000 xsym               LDQ     KI_MXFE
         1 000161   000141 604000 1                  TMI     s:6049
         1 000162   200010 116100                    CMPQ    J,,AUTO
         1 000163   000141 605000 1                  TPL     s:6049

     1297     6057
     1298     6058        /* If the status has change tell SLUG.
     1299     6059        */
     1300     6060    3           IF KI$ROUTE.FEI# ~= SVLINK OR KI$ROUTE.CURRENT_QOS ~= BESTQOS

   6060  1 000164   200034 470500                    LDP0    ROUTE$,,AUTO
         1 000165   000002 236100                    LDQ     2,,PR0
         1 000166   000033 772000                    QRL     27
         1 000167   200037 116100                    CMPQ    SVLINK,,AUTO
         1 000170   000176 601000 1                  TNZ     s:6062
         1 000171   000002 236100                    LDQ     2,,PR0
         1 000172   000022 772000                    QRL     18
         1 000173   000777 376007                    ANQ     511,DL
         1 000174   200040 116100                    CMPQ    BESTQOS,,AUTO
         1 000175   000242 600000 1                  TZE     s:6078

     1301     6061    4           THEN DO;

     1302     6062    4                FEPST.FCN = IGA_FEPST;

   6062  1 000176   040000 236003                    LDQ     16384,DU
         1 000177   200027 552140                    STBQ    FEPST,'40'O,AUTO

     1303     6063    4                FEPST.FEP = I;

   6063  1 000200   200007 236100                    LDQ     I,,AUTO
         1 000201   000022 736000                    QLS     18
         1 000202   200027 552120                    STBQ    FEPST,'20'O,AUTO

     1304     6064    4                FEPST.QOS = BESTQOS;

   6064  1 000203   200040 720100                    LXL0    BESTQOS,,AUTO
PL6.E3A0      #004=KIN$NODECHG File=KIN$NETWORK.:E05TSI                          WED 07/30/97 00:36 Page:226
         1 000204   200030 440100                    SXL0    FEPST+1,,AUTO

     1305     6065    4                FEPST.PROB = KIER_QOSCHG;

   6065  1 000205   000023 221003                    LDX1    19,DU
         1 000206   200027 441100                    SXL1    FEPST,,AUTO

     1306     6066
     1307     6067    4                IF SVLINK ~= 0

   6067  1 000207   200037 235100                    LDA     SVLINK,,AUTO
         1 000210   000221 600000 1                  TZE     s:6069

     1308     6068    4                THEN FEPST.LNK_NODE = KI$FEI$(SVLINK)->KI$FEI.FEP#;

   6068  1 000211   000000 471400 xsym               LDP1    KI_FEI$$
         1 000212   100000 473505                    LDP3    0,AL,PR1
         1 000213   300012 236100                    LDQ     10,,PR3
         1 000214   000011 772000                    QRL     9
         1 000215   000777 376007                    ANQ     511,DL
         1 000216   000000 622006                    EAX2    0,QL
         1 000217   200031 742100                    STX2    FEPST+2,,AUTO
         1 000220   000223 710000 1                  TRA     s:6071

     1309     6069    4                ELSE FEPST.LNK_NODE = 0;

   6069  1 000221   000000 222003                    LDX2    0,DU
         1 000222   200031 742100                    STX2    FEPST+2,,AUTO

     1310     6070
     1311     6071    4                FEPST.ALT_QOS = 255;

   6071  1 000223   000377 223003                    LDX3    255,DU
         1 000224   200031 443100                    SXL3    FEPST+2,,AUTO

     1312     6072    4                CALL KUB$WRITE(FEPST,SIZEC(FEPST),'HLPADMIN')

PL6.E3A0      #004=KIN$NODECHG File=KIN$NETWORK.:E05TSI                          WED 07/30/97 00:36 Page:227
   6072  1 000225   000002 236000 2                  LDQ     2
         1 000226   200044 756100                    STQ     ALTQOS+3,,AUTO
         1 000227   000003 236000 2                  LDQ     3
         1 000230   200043 756100                    STQ     ALTQOS+2,,AUTO
         1 000231   200027 631500                    EPPR1   FEPST,,AUTO
         1 000232   200042 451500                    STP1    ALTQOS+1,,AUTO
         1 000233   200042 630500                    EPPR0   ALTQOS+1,,AUTO
         1 000234   000021 631400 xsym               EPPR1   B_VECTNIL+17
         1 000235   000000 701000 xent               TSX1    KUB$WRITE
         1 000236   000240 702000 1                  TSX2    s:6074
         1 000237   000242 710000 1                  TRA     s:6078

     1313     6073    5                WHENALTRETURN DO;

     1314     6074    5                     ALTRETURN;

   6074  1 000240   200036 221300                    LDX1  ! OSI$+1,,AUTO
         1 000241   000000 702211                    TSX2  ! 0,X1

     1315     6075    5                     END;
     1316     6076    4                END;

     1317     6077
     1318     6078    3           IF SVLINK = 0                   /* No link available                  */

   6078  1 000242   200037 235100                    LDA     SVLINK,,AUTO
         1 000243   000443 601000 1                  TNZ     s:6121

     1319     6079    4           THEN DO;

     1320     6080    4                IF KI$ROUTE.FEI# ~= 0

   6080  1 000244   200034 470500                    LDP0    ROUTE$,,AUTO
         1 000245   000002 236100                    LDQ     2,,PR0
         1 000246   777000 316003                    CANQ    -512,DU
         1 000247   000363 600000 1                  TZE     s:6107

PL6.E3A0      #004=KIN$NODECHG File=KIN$NETWORK.:E05TSI                          WED 07/30/97 00:36 Page:228
     1321     6081    5                THEN DO;

     1322     6082    5                     CALL KIT$REPDISC (I);

   6082  1 000250   200007 631500                    EPPR1   I,,AUTO
         1 000251   200042 451500                    STP1    ALTQOS+1,,AUTO
         1 000252   200042 630500                    EPPR0   ALTQOS+1,,AUTO
         1 000253   000017 631400 xsym               EPPR1   B_VECTNIL+15
         1 000254   000000 701000 xent               TSX1    KIT$REPDISC
         1 000255   000000 011000                    NOP     0

     1323     6083
     1324     6084    5                     IF KI$FEI$(KI$ROUTE.FEI#)->KI$FEI.FEP# ~= I /* Not a local  */

   6084  1 000256   200034 470500                    LDP0    ROUTE$,,AUTO
         1 000257   000002 236100                    LDQ     2,,PR0
         1 000260   000033 772000                    QRL     27
         1 000261   000000 471400 xsym               LDP1    KI_FEI$$
         1 000262   100000 473506                    LDP3    0,QL,PR1
         1 000263   300012 236100                    LDQ     10,,PR3
         1 000264   000011 772000                    QRL     9
         1 000265   000777 376007                    ANQ     511,DL
         1 000266   200007 116100                    CMPQ    I,,AUTO
         1 000267   000355 600000 1                  TZE     s:6102

     1325     6085    6                     THEN DO;

     1326     6086    6                          EL$FECRASH.FENM.PROBLEM=KIER_QOSCHG;

   6086  1 000270   023000 236007                    LDQ     9728,DL
         1 000271   200012 552110                    STBQ    EL$FECRASH,'10'O,AUTO

     1327     6087    6                          EL$FECRASH.FENM.STATE=KIST_RUN;

   6087  1 000272   000002 236007                    LDQ     2,DL
         1 000273   200012 552104                    STBQ    EL$FECRASH,'04'O,AUTO

PL6.E3A0      #004=KIN$NODECHG File=KIN$NETWORK.:E05TSI                          WED 07/30/97 00:36 Page:229
     1328     6088    6                          EL$FECRASH.FENM.FEP#=I;

   6088  1 000274   200007 235100                    LDA     I,,AUTO
         1 000275   200013 755100                    STA     EL$FECRASH+1,,AUTO

     1329     6089    6                          EL$FECRASH.FENM.DEVADDR='0'B;

   6089  1 000276   000000 236003                    LDQ     0,DU
         1 000277   200012 552140                    STBQ    EL$FECRASH,'40'O,AUTO

     1330     6090    6                          EL$FECRASH.FENM.NODENAME = KI$ROUTE.NODE_NAME;

   6090  1 000300   040100 100500                    MLR     fill='040'O
         1 000301   000000 000010                    ADSC9   0,,PR0                   cn=0,n=8
         1 000302   200014 000010                    ADSC9   EL$FECRASH+2,,AUTO       cn=0,n=8

     1331     6091    6                          EL$FECRASH.FENM.CRASH# = KI$ROUTE.SEQ;

   6091  1 000303   000002 236100                    LDQ     2,,PR0
         1 000304   000177 376007                    ANQ     127,DL
         1 000305   000022 736000                    QLS     18
         1 000306   200012 552120                    STBQ    EL$FECRASH,'20'O,AUTO

     1332     6092    6                          KI$ROUTE.SEQ = KI$ROUTE.SEQ + 1;

   6092  1 000307   000002 236100                    LDQ     2,,PR0
         1 000310   000177 376007                    ANQ     127,DL
         1 000311   000001 036007                    ADLQ    1,DL
         1 000312   000002 676100                    ERQ     2,,PR0
         1 000313   000177 376007                    ANQ     127,DL
         1 000314   000002 656100                    ERSQ    2,,PR0

     1333     6093    6                          EL$FECRASH.FENM.LINK_NODE = 511;

   6093  1 000315   777000 236003                    LDQ     -512,DU
         1 000316   200016 552140                    STBQ    EL$FECRASH+4,'40'O,AUTO

PL6.E3A0      #004=KIN$NODECHG File=KIN$NETWORK.:E05TSI                          WED 07/30/97 00:36 Page:230
     1334     6094    6                          EL$FECRASH.FENM.QOS = 255;

   6094  1 000317   000377 236003                    LDQ     255,DU
         1 000320   200016 552120                    STBQ    EL$FECRASH+4,'20'O,AUTO

     1335     6095    6                          EL$FECRASH.FENM.ALT_QOS = 255;

   6095  1 000321   377000 236007                    LDQ     130560,DL
         1 000322   200016 552110                    STBQ    EL$FECRASH+4,'10'O,AUTO

     1336     6096    6                          CALL ELA$SYSLOG (EL_FEPCRASH,EL$FECRASH,SIZEW(EL$FECRASH),
              6096                                   '0'B,1,TEMP);

   6096  1 000323   200026 633500                    EPPR3   TEMP,,AUTO
         1 000324   200047 453500                    STP3    ALTQOS+6,,AUTO
         1 000325   000005 236000 2                  LDQ     5
         1 000326   200046 756100                    STQ     ALTQOS+5,,AUTO
         1 000327   000006 237000 2                  LDAQ    6
         1 000330   200044 757100                    STAQ    ALTQOS+3,,AUTO
         1 000331   200012 634500                    EPPR4   EL$FECRASH,,AUTO
         1 000332   200043 454500                    STP4    ALTQOS+2,,AUTO
         1 000333   000010 236000 2                  LDQ     8
         1 000334   200042 756100                    STQ     ALTQOS+1,,AUTO
         1 000335   200042 630500                    EPPR0   ALTQOS+1,,AUTO
         1 000336   000024 631400 xsym               EPPR1   B_VECTNIL+20
         1 000337   000000 701000 xent               TSX1    ELA$SYSLOG
         1 000340   000000 011000                    NOP     0

     1337     6097    6                          KL_ACCTNG.FEX=I;

   6097  1 000341   200007 236100                    LDQ     I,,AUTO
         1 000342   000033 736000                    QLS     27
         1 000343   200017 552140                    STBQ    KL_ACCTNG,'40'O,AUTO

     1338     6098    6                          KL_ACCTNG.REASON=%KLDR_QOSCHG;

   6098  1 000344   000013 236003                    LDQ     11,DU
PL6.E3A0      #004=KIN$NODECHG File=KIN$NETWORK.:E05TSI                          WED 07/30/97 00:36 Page:231
         1 000345   200017 552120                    STBQ    KL_ACCTNG,'20'O,AUTO

     1339     6099    6                          CALL KIQ$LGFEDN(KL_ACCTNG);

   6099  1 000346   200017 630500                    EPPR0   KL_ACCTNG,,AUTO
         1 000347   200042 450500                    STP0    ALTQOS+1,,AUTO
         1 000350   200042 630500                    EPPR0   ALTQOS+1,,AUTO
         1 000351   000017 631400 xsym               EPPR1   B_VECTNIL+15
         1 000352   000000 701000 xent               TSX1    KIQ$LGFEDN
         1 000353   000000 011000                    NOP     0

     1340     6100    6                          END;

   6100  1 000354   000363 710000 1                  TRA     s:6107

     1341     6101    5                     ELSE        /* rep disconnect on all of the qdp sessions    */
     1342     6102    5                          CALL KIS$REP_DISC(I);

   6102  1 000355   200007 633500                    EPPR3   I,,AUTO
         1 000356   200042 453500                    STP3    ALTQOS+1,,AUTO
         1 000357   200042 630500                    EPPR0   ALTQOS+1,,AUTO
         1 000360   000017 631400 xsym               EPPR1   B_VECTNIL+15
         1 000361   000000 701000 xent               TSX1    KIS$REP_DISC
         1 000362   000000 011000                    NOP     0

     1343     6103    5                     END;

     1344     6104                      /*
     1345     6105                         update the ositable when a node disconnects.
     1346     6106                      */
     1347     6107    4                KI$ROUTE.FEI# = 0;;

   6107  1 000363   200034 470500                    LDP0    ROUTE$,,AUTO
         1 000364   000000 236003                    LDQ     0,DU
         1 000365   000002 552140                    STBQ    2,'40'O,PR0

     1348     6108    4                KI$ROUTE.CURRENT_QOS = 255;
PL6.E3A0      #004=KIN$NODECHG File=KIN$NETWORK.:E05TSI                          WED 07/30/97 00:36 Page:232

   6108  1 000366   000377 236003                    LDQ     255,DU
         1 000367   000002 552120                    STBQ    2,'20'O,PR0

     1349     6109    4                KI$ROUTE.ALT_QOS = 255;

   6109  1 000370   377000 236007                    LDQ     130560,DL
         1 000371   000002 552110                    STBQ    2,'10'O,PR0

     1350     6110    5                DO J = 0 TO KI_OSIMAX#-1;

   6110  1 000372   200010 450100                    STZ     J,,AUTO
         1 000373   000436 710000 1                  TRA     s:6117+1

     1351     6111    5                     OSI$ = KI_OSIROUTE$(J);

   6111  1 000374   000000 470400 xsym               LDP0    KI_OSIROUTE$$
         1 000375   200010 720100                    LXL0    J,,AUTO
         1 000376   000000 236110                    LDQ     0,X0,PR0
         1 000377   200035 756100                    STQ     OSI$,,AUTO

     1352     6112    5                     IF KI$OSIROUTE.NS_TYPE = %K_TYPE_RNSAP THEN

   6112  1 000400   200035 471500                    LDP1    OSI$,,AUTO
         1 000401   100015 236100                    LDQ     13,,PR1
         1 000402   360000 376003                    ANQ     122880,DU
         1 000403   040000 116003                    CMPQ    16384,DU
         1 000404   000435 601000 1                  TNZ     s:6117

     1353     6113    6                     DO K = 0 TO KI_MXFE-1;

   6113  1 000405   200011 450100                    STZ     K,,AUTO
         1 000406   000431 710000 1                  TRA     s:6116+1

     1354     6114    6                          IF KI$OSIROUTE.LINK.FEP#(K) = I THEN

   6114  1 000407   200011 236100                    LDQ     K,,AUTO
PL6.E3A0      #004=KIN$NODECHG File=KIN$NETWORK.:E05TSI                          WED 07/30/97 00:36 Page:233
         1 000410   000017 402007                    MPY     15,DL
         1 000411   200035 470500                    LDP0    OSI$,,AUTO
         1 000412   000100 101506                    MRL     fill='000'O
         1 000413   000015 400001                    ADSC9   13,Q,PR0                 cn=2,n=1
         1 000414   200042 000004                    ADSC9   ALTQOS+1,,AUTO           cn=0,n=4
         1 000415   200042 236100                    LDQ     ALTQOS+1,,AUTO
         1 000416   200007 116100                    CMPQ    I,,AUTO
         1 000417   000430 601000 1                  TNZ     s:6116

     1355     6115    6                               KI$OSIROUTE.LINK.ACTIVE(K) = '0'B;

   6115  1 000420   200011 236100                    LDQ     K,,AUTO
         1 000421   000207 402007                    MPY     135,DL
         1 000422   000000 116003                    CMPQ    0,DU
         1 000423   000425 605000 1                  TPL     s:6115+5
         1 000424   000044 036003                    ADLQ    36,DU
         1 000425   003106 060400                    CSL     bolr='003'O
         1 000426   000002 000001 xsym               BDSC    B_VECTNIL+2              by=0,bit=0,n=1
         1 000427   000015 210001                    BDSC    13,Q,PR0                 by=1,bit=1,n=1

     1356     6116    6                          END;             /* do k                               */

   6116  1 000430   200011 054100                    AOS     K,,AUTO
         1 000431   200011 236100                    LDQ     K,,AUTO
         1 000432   000407 604000 1                  TMI     s:6114
         1 000433   000000 116000 xsym               CMPQ    KI_MXFE
         1 000434   000407 602000 1                  TNC     s:6114

     1357     6117    5                     END;                  /* do j                               */

   6117  1 000435   200010 054100                    AOS     J,,AUTO
         1 000436   200010 236100                    LDQ     J,,AUTO
         1 000437   000374 604000 1                  TMI     s:6111
         1 000440   000000 116000 xsym               CMPQ    KI_OSIMAX#
         1 000441   000374 602000 1                  TNC     s:6111

     1358     6118    4                END;
PL6.E3A0      #004=KIN$NODECHG File=KIN$NETWORK.:E05TSI                          WED 07/30/97 00:36 Page:234

   6118  1 000442   000546 710000 1                  TRA     s:6141

     1359     6119
     1360     6120    4           ELSE DO;

     1361     6121    4                IF KI$FEI$(SVLINK)->KI$FEI.FEP# ~= I /* Not a local              */

   6121  1 000443   000000 470400 xsym               LDP0    KI_FEI$$
         1 000444   000000 471505                    LDP1    0,AL,PR0
         1 000445   100012 236100                    LDQ     10,,PR1
         1 000446   000011 772000                    QRL     9
         1 000447   000777 376007                    ANQ     511,DL
         1 000450   200007 116100                    CMPQ    I,,AUTO
         1 000451   000534 600000 1                  TZE     s:6136
         1 000452   200034 471500                    LDP1    ROUTE$,,AUTO
         1 000453   100002 236100                    LDQ     2,,PR1
         1 000454   000033 772000                    QRL     27
         1 000455   200037 116100                    CMPQ    SVLINK,,AUTO
         1 000456   000534 600000 1                  TZE     s:6136

     1362     6122    4                  AND SVLINK ~= KI$ROUTE.FEI#
     1363     6123    5                THEN DO;

     1364     6124    5                     EL$FECRASH.FENM.PROBLEM=KIER_QOSCHG;

   6124  1 000457   023000 236007                    LDQ     9728,DL
         1 000460   200012 552110                    STBQ    EL$FECRASH,'10'O,AUTO

     1365     6125    5                     EL$FECRASH.FENM.STATE=KIST_DN;

   6125  1 000461   000000 236003                    LDQ     0,DU
         1 000462   200012 552104                    STBQ    EL$FECRASH,'04'O,AUTO

     1366     6126    5                     EL$FECRASH.FENM.FEP#=I;

   6126  1 000463   200007 235100                    LDA     I,,AUTO
PL6.E3A0      #004=KIN$NODECHG File=KIN$NETWORK.:E05TSI                          WED 07/30/97 00:36 Page:235
         1 000464   200013 755100                    STA     EL$FECRASH+1,,AUTO

     1367     6127    5                     EL$FECRASH.FENM.DEVADDR='0'B;

   6127  1 000465   200012 552140                    STBQ    EL$FECRASH,'40'O,AUTO

     1368     6128    5                     EL$FECRASH.FENM.NODENAME = KI$ROUTE.NODE_NAME;

   6128  1 000466   040100 100500                    MLR     fill='040'O
         1 000467   100000 000010                    ADSC9   0,,PR1                   cn=0,n=8
         1 000470   200014 000010                    ADSC9   EL$FECRASH+2,,AUTO       cn=0,n=8

     1369     6129    5                     EL$FECRASH.FENM.CRASH# = KI$ROUTE.SEQ;

   6129  1 000471   100002 236100                    LDQ     2,,PR1
         1 000472   000177 376007                    ANQ     127,DL
         1 000473   000022 736000                    QLS     18
         1 000474   200012 552120                    STBQ    EL$FECRASH,'20'O,AUTO

     1370     6130    5                     EL$FECRASH.FENM.QOS = BESTQOS;

   6130  1 000475   200040 236100                    LDQ     BESTQOS,,AUTO
         1 000476   000022 736000                    QLS     18
         1 000477   200016 552120                    STBQ    EL$FECRASH+4,'20'O,AUTO

     1371     6131    5                     EL$FECRASH.FENM.ALT_QOS = ALTQOS;

   6131  1 000500   200041 236100                    LDQ     ALTQOS,,AUTO
         1 000501   000011 736000                    QLS     9
         1 000502   200016 552110                    STBQ    EL$FECRASH+4,'10'O,AUTO

     1372     6132    5                     EL$FECRASH.FENM.LINK_NODE = KI$FEI$(SVLINK)->KI$FEI.FEP#;

   6132  1 000503   200037 720100                    LXL0    SVLINK,,AUTO
         1 000504   000000 473510                    LDP3    0,X0,PR0
         1 000505   300012 236100                    LDQ     10,,PR3
         1 000506   000022 736000                    QLS     18
PL6.E3A0      #004=KIN$NODECHG File=KIN$NETWORK.:E05TSI                          WED 07/30/97 00:36 Page:236
         1 000507   200016 552140                    STBQ    EL$FECRASH+4,'40'O,AUTO

     1373     6133    5                     KI$ROUTE.SEQ = KI$ROUTE.SEQ + 1;

   6133  1 000510   100002 236100                    LDQ     2,,PR1
         1 000511   000177 376007                    ANQ     127,DL
         1 000512   000001 036007                    ADLQ    1,DL
         1 000513   100002 676100                    ERQ     2,,PR1
         1 000514   000177 376007                    ANQ     127,DL
         1 000515   100002 656100                    ERSQ    2,,PR1

     1374     6134    5                     CALL ELA$SYSLOG (EL_FEPCRASH,EL$FECRASH,SIZEW(EL$FECRASH),'0'B,1,
              6134                              TEMP);

   6134  1 000516   200026 633500                    EPPR3   TEMP,,AUTO
         1 000517   200047 453500                    STP3    ALTQOS+6,,AUTO
         1 000520   000005 236000 2                  LDQ     5
         1 000521   200046 756100                    STQ     ALTQOS+5,,AUTO
         1 000522   000006 237000 2                  LDAQ    6
         1 000523   200044 757100                    STAQ    ALTQOS+3,,AUTO
         1 000524   200012 634500                    EPPR4   EL$FECRASH,,AUTO
         1 000525   200043 454500                    STP4    ALTQOS+2,,AUTO
         1 000526   000010 236000 2                  LDQ     8
         1 000527   200042 756100                    STQ     ALTQOS+1,,AUTO
         1 000530   200042 630500                    EPPR0   ALTQOS+1,,AUTO
         1 000531   000024 631400 xsym               EPPR1   B_VECTNIL+20
         1 000532   000000 701000 xent               TSX1    ELA$SYSLOG
         1 000533   000000 011000                    NOP     0

     1375     6135    5                     END;

     1376     6136    4                KI$ROUTE.FEI# = SVLINK;

   6136  1 000534   200034 470500                    LDP0    ROUTE$,,AUTO
         1 000535   200037 236100                    LDQ     SVLINK,,AUTO
         1 000536   000033 736000                    QLS     27
         1 000537   000002 552140                    STBQ    2,'40'O,PR0
PL6.E3A0      #004=KIN$NODECHG File=KIN$NETWORK.:E05TSI                          WED 07/30/97 00:36 Page:237

     1377     6137    4                KI$ROUTE.CURRENT_QOS = BESTQOS;

   6137  1 000540   200040 236100                    LDQ     BESTQOS,,AUTO
         1 000541   000022 736000                    QLS     18
         1 000542   000002 552120                    STBQ    2,'20'O,PR0

     1378     6138    4                KI$ROUTE.ALT_QOS = ALTQOS;

   6138  1 000543   200041 236100                    LDQ     ALTQOS,,AUTO
         1 000544   000011 736000                    QLS     9
         1 000545   000002 552110                    STBQ    2,'10'O,PR0

     1379     6139    4                END;

     1380     6140
     1381     6141    3           END;

   6141  1 000546   200007 054100                    AOS     I,,AUTO
         1 000547   000000 236000 xsym               LDQ     KI_NODES
         1 000550   000126 604000 1                  TMI     s:6042
         1 000551   200007 116100                    CMPQ    I,,AUTO
         1 000552   000126 605000 1                  TPL     s:6042

     1382     6142    2      RETURN;

   6142  1 000553   200036 221300                    LDX1  ! OSI$+1,,AUTO
         1 000554   000001 702211                    TSX2  ! 1,X1

     1383     6143    2   END UPDATE_ROUTE;
     1384     6144    1   END KIN$NODECHG;

   6144  1 000555   000000 702200 xent               TSX2  ! X66_ARET

(unnamed)
 Sect OctLoc
   0     000   110114 120101   104115 111116                                    HLPADMIN
PL6.E3A0      #004=KIN$NODECHG File=KIN$NETWORK.:E05TSI                          WED 07/30/97 00:36 Page:238

(unnamed)
 Sect OctLoc
   2     000   000000 006000   000000 000020   000000 006000   000001 006000    ................
   2     004   000000 000460   000003 006000   000007 006000   000002 006000    ................
   2     010   000004 006000                                                    ....
     1385     6145        %EOD;

PL6.E3A0      #004=KIN$NODECHG File=KIN$NETWORK.:E05TSI                          WED 07/30/97 00:36 Page:239
--  Include file information  --

   K_ADDRESS_M.:E05TOU  is referenced.
   KNN_NETWORK_M.:E05TOU  is referenced.
   KL_SUBS_C.:E05TOU  is referenced.
   KL_AFCN_C.:E05TOU  is referenced.
   KL_MACRO_C.:E05TOU  is referenced.
   KI_SUBS_C.:E05TOU  is referenced.
   KI_MACROS_C.:E05TOU  is referenced.
   HF_LOCK_C.:E05TOU  cannot be made into a system file and is referenced.
   EL_SUBS_C.:E05TOU  is referenced.
   EL$TABLES.:E05TOU  is referenced.
      No diagnostics issued in procedure KIN$NODECHG.
PL6.E3A0      #004=KIN$NODECHG File=KIN$NETWORK.:E05TSI                          WED 07/30/97 00:36 Page:240

 **** Variables and constants ****

  ****  Auto variables  ****

  ****  Scalars and arrays  ****
OctLoc.c.b A Datatyp(siz) R M Lvl/name                 OctLoc.c.b A Datatyp(siz) R M Lvl/name

     4-0-0/w PTR         r     1 @LNKNODE                   3-0-0/w PTR         r     1 @NODE#
     5-0-0/w PTR         r     1 @QOS                      41-0-0/w UBIN        r     1 ALTQOS
    40-0-0/w UBIN        r     1 BESTQOS                   12-0-0/w STRC(180)   r     1 EL$FECRASH
    33-0-0/w PTR         r     1 FEI$                      27-0-0/w STRC(126)   r     1 FEPST
     7-0-0/w SBIN        r     1 I                         10-0-0/w SBIN        r     1 J
    11-0-0/w SBIN        r     1 K                         17-0-0/w STRC(252)   r     1 KL_ACCTNG
    *0-0-0/w UBIN        r     1 LNKNODE                   *0-0-0/w SBIN        r     1 NODE#
    35-0-0/w PTR         r     1 OSI$                      *0-0-0/w UBIN        r     1 QOS
    34-0-0/w PTR         r     1 ROUTE$                    37-0-0/w SBIN        r     1 SVLINK
    26-0-0/w UBIN        r     1 TEMP

  ****  SYMREF variables  ****

  ****  Scalars and arrays  ****
OctLoc.c.b A Datatyp(siz) R M Lvl/name                 OctLoc.c.b A Datatyp(siz) R M Lvl/name

     0-0-0/w PTR         r     1 KI_FEI$$                   0-0-0/b BIT (72)    r     1 KI_LOCK
     0-0-0/w UBIN        r     1 KI_MXFE                    0-0-0/w UBIN        r     1 KI_NODES
     0-0-0/w UBIN        r     1 KI_OSIMAX#                 0-0-0/w PTR         r     1 KI_OSIROUTE$$
     0-0-0/w PTR         r     1 KI_ROUTE$$

  ****  BASED and DCB variables  ****

  ****  Scalars and arrays  ****
OctLoc.c.b A Datatyp(siz) R M Lvl/name                 OctLoc.c.b A Datatyp(siz) R M Lvl/name

     0-0-0/w STRC(612)   r     1 KI$FEI
     0-0-0/w PTR         r     1 KI$FEI$(0:0)
     0-0-0/w STRC(612)   r     1 KI$OSIROUTE                0-0-0/w STRC(216)   r     1 KI$ROUTE
     0-0-0/w PTR         r     1 KI$ROUTE$(0:0)
PL6.E3A0      #004=KIN$NODECHG File=KIN$NETWORK.:E05TSI                          WED 07/30/97 00:36 Page:241
     0-0-0/w PTR         r     1 KI_OSIROUTE$(0:0)


   Procedure KIN$NODECHG requires 366 words for executable code.
   Procedure KIN$NODECHG requires 40 words of local(AUTO) storage.
PL6.E3A0      #004=KIN$NODECHG File=KIN$NETWORK.:E05TSI                          WED 07/30/97 00:36 Page:242
          *** CROSS REFERENCE LISTING ***
**     DENOTES     IDENTIFIER DEFINITION
<<                 IDENTIFIER'S VALUE SET
>>                 IDENTIFIER'S VALUE USED
<>                 IDENTIFIER SET AND/OR USED
--                 IDENTIFIER REFERENCED
PL6.E3A0      #004=KIN$NODECHG File=KIN$NETWORK.:E05TSI                          WED 07/30/97 00:36 Page:243
          MINI XREF LISTING

ALTQOS IN PROCEDURE UPDATE_ROUTE
      6039**DCL      6044<<ASSIGN   6131>>ASSIGN   6138>>ASSIGN
BESTQOS IN PROCEDURE UPDATE_ROUTE
      6038**DCL      6043<<ASSIGN   6049>>IF       6051<<ASSIGN   6060>>IF       6064>>ASSIGN   6130>>ASSIGN
      6137>>ASSIGN
DO_ALTRET
      6013**LABEL    6016--CALLALT
EL$FECRASH
      5567**DCL      6096<>CALL     6096--CALL     6134<>CALL     6134--CALL
EL$FECRASH.FENM.ALT_QOS
      5568**DCL      6095<<ASSIGN   6131<<ASSIGN
EL$FECRASH.FENM.CRASH#
      5567**DCL      6091<<ASSIGN   6129<<ASSIGN
EL$FECRASH.FENM.DEVADDR
      5567**DCL      6089<<ASSIGN   6127<<ASSIGN
EL$FECRASH.FENM.FEP#
      5568**DCL      6088<<ASSIGN   6126<<ASSIGN
EL$FECRASH.FENM.LINK_NODE
      5568**DCL      6093<<ASSIGN   6132<<ASSIGN
EL$FECRASH.FENM.NODENAME
      5568**DCL      6090<<ASSIGN   6128<<ASSIGN
EL$FECRASH.FENM.PROBLEM
      5567**DCL      6086<<ASSIGN   6124<<ASSIGN
EL$FECRASH.FENM.QOS
      5568**DCL      6094<<ASSIGN   6130<<ASSIGN
EL$FECRASH.FENM.STATE
      5567**DCL      6087<<ASSIGN   6125<<ASSIGN
ELA$SYSLOG
      5555**DCL-ENT  6096--CALL     6134--CALL
FEI$
      5621**DCL      5641--IMP-PTR  6006<<ASSIGN   6007>>IF
FEPST
PL6.E3A0      #004=KIN$NODECHG File=KIN$NETWORK.:E05TSI                          WED 07/30/97 00:36 Page:244
      5599**DCL      6072<>CALL     6072--CALL
FEPST.ALT_QOS
      5617**DCL      6071<<ASSIGN
FEPST.FCN
      5600**DCL      6062<<ASSIGN
FEPST.FEP
      5602**DCL      6063<<ASSIGN
FEPST.LNK_NODE
      5616**DCL      6068<<ASSIGN   6069<<ASSIGN
FEPST.PROB
      5613**DCL      6065<<ASSIGN
FEPST.QOS
      5615**DCL      6064<<ASSIGN
HFC$LOCK
       430**DCL-ENT  6003--CALL
HFC$UNLOCK
       430**DCL-ENT  6013--CALL     6021--CALL
I
      5563**DCL      6005<<DOINDEX  6006>>ASSIGN   6010>>ASSIGN   6041<<DOINDEX  6045>>ASSIGN   6063>>ASSIGN
      6082<>CALL     6084>>IF       6088>>ASSIGN   6097>>ASSIGN   6102<>CALL     6114>>IF       6121>>IF
      6126>>ASSIGN
J
      5564**DCL      6048<<DOINDEX  6049>>IF       6051>>ASSIGN   6053>>ASSIGN   6110<<DOINDEX  6111>>ASSIGN
K
      5565**DCL      6113<<DOINDEX  6114>>IF       6115>>ASSIGN
KI$FEI.BD$
      5676**DCL      5677--REDEF
KI$FEI.BDAD.WADDR
      5678**DCL      5679--REDEF
KI$FEI.FEP#
      5686**DCL      6007>>IF       6068>>ASSIGN   6084>>IF       6121>>IF       6132>>ASSIGN
KI$FEI.RCVPB
      5692**DCL      5693--REDEF
KI$FEI$
      5983**DCL      6006>>ASSIGN   6068>>ASSIGN   6084>>IF       6121>>IF       6132>>ASSIGN
KI$OSIROUTE.LINK.ACTIVE
PL6.E3A0      #004=KIN$NODECHG File=KIN$NETWORK.:E05TSI                          WED 07/30/97 00:36 Page:245
      5954**DCL      6115<<ASSIGN
KI$OSIROUTE.LINK.FEP#
      5959**DCL      6114>>IF
KI$OSIROUTE.LNSAP.ADDRESS_N
      5924**DCL      5925--REDEF
KI$OSIROUTE.NSAP.ADDRESS_N
      5834**DCL      5835--REDEF
KI$OSIROUTE.NS_TYPE
      5935**DCL      6112>>IF
KI$ROUTE.ALT_QOS
      5730**DCL      6109<<ASSIGN   6138<<ASSIGN
KI$ROUTE.CURRENT_QOS
      5729**DCL      6010>>ASSIGN   6060>>IF       6108<<ASSIGN   6137<<ASSIGN
KI$ROUTE.FEI#
      5724**DCL      6060>>IF       6080>>IF       6084>>IF       6107<<ASSIGN   6121>>IF       6136<<ASSIGN
KI$ROUTE.LINK.QOS
      5751**DCL      6010<<ASSIGN   6049>>IF       6051>>ASSIGN
KI$ROUTE.LINK_CONNECTED
      5735**DCL      5998>>IF       5998>>IF
KI$ROUTE.NODE_NAME
      5714**DCL      6090>>ASSIGN   6128>>ASSIGN
KI$ROUTE.SEQ
      5741**DCL      6091>>ASSIGN   6092<<ASSIGN   6092>>ASSIGN   6129>>ASSIGN   6133<<ASSIGN   6133>>ASSIGN
KI$ROUTE$
      5627**DCL      5998>>IF       5998>>IF       6009>>ASSIGN   6010>>ASSIGN   6045>>ASSIGN
KIQ$LGFEDN
      5557**DCL-ENT  6099--CALL
KIS$REP_DISC
      5559**DCL-ENT  6102--CALL
KIT$REPDISC
      5556**DCL-ENT  6082--CALL
KI_FEI$$
      5988**DCL      5983--IMP-PTR  6006>>ASSIGN   6068>>ASSIGN   6084>>IF       6121>>IF       6132>>ASSIGN
KI_LOCK
      5990**DCL      6003<>CALL     6013<>CALL     6021<>CALL
KI_MXFE
PL6.E3A0      #004=KIN$NODECHG File=KIN$NETWORK.:E05TSI                          WED 07/30/97 00:36 Page:246
      5992**DCL      6005>>DOINDEX  6048>>DOINDEX  6113>>DOINDEX
KI_NODES
      5991**DCL      6041>>DOINDEX
KI_OSIMAX#
      5994**DCL      6110>>DOINDEX
KI_OSIROUTE$
      5984**DCL      6111>>ASSIGN
KI_OSIROUTE$$
      5993**DCL      5984--IMP-PTR  6111>>ASSIGN
KI_ROUTE$$
      5989**DCL      5627--IMP-PTR  5998>>IF       5998>>IF       6009>>ASSIGN   6010>>ASSIGN   6045>>ASSIGN
KL_ACCTNG
      5572**DCL      6099<>CALL
KL_ACCTNG.DEVNM
      5576**DCL      5577--REDEF
KL_ACCTNG.FEX
      5573**DCL      6097<<ASSIGN
KL_ACCTNG.REASON
      5574**DCL      6098<<ASSIGN
KUB$WRITE
      5558**DCL-ENT  6072--CALL
LNKNODE
      5551**DCL         7--PROC     5998>>IF       6007>>IF       6010>>ASSIGN
NODE#
      5550**DCL         7--PROC     5998>>IF       6009>>ASSIGN
OSI$
      5623**DCL      5782--IMP-PTR  6111<<ASSIGN   6112>>IF       6114>>IF       6115>>ASSIGN
QOS
      5552**DCL         7--PROC     6010>>ASSIGN
ROUTE$
      5622**DCL      5713--IMP-PTR  6009<<ASSIGN   6010>>ASSIGN   6045<<ASSIGN   6049>>IF       6051>>ASSIGN
      6060>>IF       6060>>IF       6080>>IF       6084>>IF       6090>>ASSIGN   6091>>ASSIGN   6092>>ASSIGN
      6092>>ASSIGN   6107>>ASSIGN   6108>>ASSIGN   6109>>ASSIGN   6121>>IF       6128>>ASSIGN   6129>>ASSIGN
      6133>>ASSIGN   6133>>ASSIGN   6136>>ASSIGN   6137>>ASSIGN   6138>>ASSIGN
SVLINK IN PROCEDURE UPDATE_ROUTE
      6037**DCL      6042<<ASSIGN   6053<<ASSIGN   6060>>IF       6067>>IF       6068>>ASSIGN   6078>>IF
PL6.E3A0      #004=KIN$NODECHG File=KIN$NETWORK.:E05TSI                          WED 07/30/97 00:36 Page:247
      6121>>IF       6121>>IF       6132>>ASSIGN   6136>>ASSIGN
TEMP
      5585**DCL      6096<>CALL     6134<>CALL
UPDATE_ROUTE
      6035**PROC     6016--CALL     6031--CALL

PL6.E3A0      #005=KIN$CONV_NODENAME File=KIN$NETWORK.:E05TSI                    WED 07/30/97 00:37 Page:248
     1386        1        /*T***********************************************************/
     1387        2        /*T*                                                         */
     1388        3        /*T* Copyright (c) Bull HN Information Systems Inc., 1997    */
     1389        4        /*T*                                                         */
     1390        5        /*T***********************************************************/
     1391        6
     1392        7        /*F* NAME: KIN$CONV_NODENAME
     1393        8
     1394        9        KIN$CONV_NODE returns NODE# and HOSTNODE from the route table
     1395       10        for a specified NODENAME.
     1396       11        */
     1397       12
     1398       13
     1399       14        KIN$CONV_NODENAME: PROC(NODENAME,NODE#,HOSTNODE) ALTRET;
     1400       15
     1401       16        %INCLUDE KI_MACROS_C;
     1402      624                                                /* Parameters                         */
     1403      625    1   DCL NODENAME CHAR(8);
     1404      626    1   DCL NODE# UBIN;
     1405      627    1   DCL HOSTNODE BIT(1) UNAL;
     1406      628                                                /* Auto                               */
     1407      629    1   DCL I SBIN;
     1408      630                                                /* Based                              */
     1409      631        %KI$ROUTE (STCLASS=BASED);
     1410      685    1   DCL KI$ROUTE$(0:0) PTR BASED(KI_ROUTE$$);
     1411      686                                                /* External Data                      */
     1412      687    1   DCL KI_ROUTE$$ PTR SYMREF;
     1413      688    1   DCL KI_NODES UBIN SYMREF;
     1414      689
     1415      690    2      DO I = 0 TO KI_NODES;
     1416      691    2           IF KI$ROUTE$(I)->KI$ROUTE.NODE_NAME = NODENAME
     1417      692    2             AND KI$ROUTE$(I)->KI$ROUTE.NODE_NAME ~= ' '
     1418      693    3           THEN DO;
     1419      694    3                NODE# = I;
     1420      695    3                GOTO RETURN_HOST_BIT;
     1421      696    3                END;
     1422      697    2           END;
PL6.E3A0      #005=KIN$CONV_NODENAME File=KIN$NETWORK.:E05TSI                    WED 07/30/97 00:37 Page:249
     1423      698
     1424      699    1      ALTRETURN;
     1425      700        %EJECT;
PL6.E3A0      #005=KIN$CONV_NODENAME File=KIN$NETWORK.:E05TSI                    WED 07/30/97 00:37 Page:250
     1426      701        /*F* NAME: KIN$CONV_NODE
     1427      702
     1428      703        KIN$CONV_NODE returns NODENAME and HOSTNODE from the route table
     1429      704        for a specified NODE#.
     1430      705        */
     1431      706
     1432      707    1   KIN$CONV_NODE: ENTRY(NODENAME,NODE#,HOSTNODE) ALTRET;
     1433      708
     1434      709    1      IF NODE# > KI_NODES
     1435      710    1      THEN ALTRETURN;
     1436      711
     1437      712    1      NODENAME = KI$ROUTE$(NODE#)->KI$ROUTE.NODE_NAME;
     1438      713    1      IF NODENAME = ' '
     1439      714    1      THEN ALTRETURN;
     1440      715
     1441      716    1   RETURN_HOST_BIT:
     1442      717    1      IF ADDR(HOSTNODE)~=ADDR(NIL)
     1443      718    1      THEN HOSTNODE = KI$ROUTE$(NODE#)->KI$ROUTE.HOST;
     1444      719    1      RETURN;
     1445      720
     1446      721        %EJECT;
PL6.E3A0      #005=KIN$CONV_NODENAME File=KIN$NETWORK.:E05TSI                    WED 07/30/97 00:37 Page:251
     1447      722        /*F* NAME: KIN$SET_NODE
     1448      723
     1449      724        KIN$SET_NODE is called when KUB$EA has received a KL$SETNODE message
     1450      725        from the HLPCG.
     1451      726
     1452      727        The new new nodename and HOSTNODE values are stored in the specified
     1453      728        route table.
     1454      729        */
     1455      730
     1456      731    1   KIN$SET_NODE: ENTRY(NODENAME,NODE#,HOSTNODE) ALTRET;
     1457      732
     1458      733    1      IF NODE# > KI_NODES
     1459      734    1      THEN ALTRETURN;
     1460      735    1      KI$ROUTE$(NODE#)->KI$ROUTE.NODE_NAME = NODENAME;
     1461      736    1      KI$ROUTE$(NODE#)->KI$ROUTE.HOST = HOSTNODE;
     1462      737    1      RETURN;
     1463      738
     1464      739    1   END KIN$CONV_NODENAME;

PL6.E3A0      #005=KIN$CONV_NODENAME File=KIN$NETWORK.:E05TSI                    WED 07/30/97 00:37 Page:252
--  Include file information  --

   KI_MACROS_C.:E05TOU  is referenced.
      No diagnostics issued in procedure KIN$CONV_NODENAME.

   Procedure KIN$CONV_NODENAME requires 79 words for executable code.
   Procedure KIN$CONV_NODENAME requires 8 words of local(AUTO) storage.

    No errors detected in file KIN$NETWORK.:E05TSI    .

PL6.E3A0      #005=KIN$CONV_NODENAME File=KIN$NETWORK.:E05TSI                    WED 07/30/97 00:37 Page:253

 Object Unit name= KIN$CONV_NODENAME                          File name= KIN$NETWORK.:E05TOU
 UTS= JUL 30 '97 00:37:06.28 WED                              Compiler= PL-6/E31         Sev=      00
 SharedLib= :SHARED_SYSTEM                                    Alt SharedLib=


    ****  Control sections  ****

 Sect   Type Bound  Init  Size OctSiz  Section name(segment info)
    0   Proc  even  none    79    117  KIN$CONV_NODENAME

    ****  Entry defs  ****

                              Check   Calling
                             calling  sequence
  Sect OctLoc Primary Altret sequence   type   Parms  Name
     0      0   yes    yes     yes      Std        3  KIN$CONV_NODENAME
     0     32          yes     yes      Std        3  KIN$CONV_NODE
     0     71          yes     yes      Std        3  KIN$SET_NODE

  ****  Entry refs  ****

         Check        Calling
        calling       sequence
Altret sequence SRef   type   Args  Name
                       nStd      0 X66_AUTO_3
                       Std       0 B_CONSPOOL_D
                       nStd      0 X66_AALT
                       nStd      0 X66_ARET

  ****  Data refs  ****

  Flags:  r = read only, s = secondary
Flgs Name                             Flgs Name                             Flgs Name
     KI_ROUTE$$                            KI_NODES                              B_VECTNIL
PL6.E3A0      #005=KIN$CONV_NODENAME File=KIN$NETWORK.:E05TSI                    WED 07/30/97 00:37 Page:254


     1386        1        /*T***********************************************************/
     1387        2        /*T*                                                         */
     1388        3        /*T* Copyright (c) Bull HN Information Systems Inc., 1997    */
     1389        4        /*T*                                                         */
     1390        5        /*T***********************************************************/
     1391        6
     1392        7        /*F* NAME: KIN$CONV_NODENAME
     1393        8
     1394        9        KIN$CONV_NODE returns NODE# and HOSTNODE from the route table
     1395       10        for a specified NODENAME.
     1396       11        */
     1397       12
     1398       13
     1399       14        KIN$CONV_NODENAME: PROC(NODENAME,NODE#,HOSTNODE) ALTRET;

     14  0 000000   000000 700200 xent  KIN$CONV_NO* TSX0  ! X66_AUTO_3
         0 000001   000010 000003                    ZERO    8,3

     1400       15
     1401       16        %INCLUDE KI_MACROS_C;
     1402      624                                                /* Parameters                         */
     1403      625    1   DCL NODENAME CHAR(8);
     1404      626    1   DCL NODE# UBIN;
     1405      627    1   DCL HOSTNODE BIT(1) UNAL;
     1406      628                                                /* Auto                               */
     1407      629    1   DCL I SBIN;
     1408      630                                                /* Based                              */
     1409      631        %KI$ROUTE (STCLASS=BASED);
     1410      685    1   DCL KI$ROUTE$(0:0) PTR BASED(KI_ROUTE$$);
     1411      686                                                /* External Data                      */
     1412      687    1   DCL KI_ROUTE$$ PTR SYMREF;
     1413      688    1   DCL KI_NODES UBIN SYMREF;
     1414      689
     1415      690    2      DO I = 0 TO KI_NODES;

    690  0 000002   200006 450100                    STZ     I,,AUTO
PL6.E3A0      #005=KIN$CONV_NODENAME File=KIN$NETWORK.:E05TSI                    WED 07/30/97 00:37 Page:255
         0 000003   000025 710000 0                  TRA     s:697+1

     1416      691    2           IF KI$ROUTE$(I)->KI$ROUTE.NODE_NAME = NODENAME

    691  0 000004   000000 470400 xsym               LDP0    KI_ROUTE$$
         0 000005   200006 720100                    LXL0    I,,AUTO
         0 000006   000000 471510                    LDP1    0,X0,PR0
         0 000007   200003 473500                    LDP3    @NODENAME,,AUTO
         0 000010   040100 106500                    CMPC    fill='040'O
         0 000011   100000 000010                    ADSC9   0,,PR1                   cn=0,n=8
         0 000012   300000 000010                    ADSC9   0,,PR3                   cn=0,n=8
         0 000013   000024 601000 0                  TNZ     s:697
         0 000014   040000 106500                    CMPC    fill='040'O
         0 000015   100000 000010                    ADSC9   0,,PR1                   cn=0,n=8
         0 000016   000035 000001 xsym               ADSC9   B_VECTNIL+29             cn=0,n=1
         0 000017   000024 600000 0                  TZE     s:697

     1417      692    2             AND KI$ROUTE$(I)->KI$ROUTE.NODE_NAME ~= ' '
     1418      693    3           THEN DO;

     1419      694    3                NODE# = I;

    694  0 000020   200006 235100                    LDA     I,,AUTO
         0 000021   200004 474500                    LDP4    @NODE#,,AUTO
         0 000022   400000 755100                    STA     0,,PR4

     1420      695    3                GOTO RETURN_HOST_BIT;

    695  0 000023   000055 710000 0                  TRA     RETURN_HOST_BIT

     1421      696    3                END;
     1422      697    2           END;

    697  0 000024   200006 054100                    AOS     I,,AUTO
         0 000025   000000 236000 xsym               LDQ     KI_NODES
         0 000026   000004 604000 0                  TMI     s:691
         0 000027   200006 116100                    CMPQ    I,,AUTO
PL6.E3A0      #005=KIN$CONV_NODENAME File=KIN$NETWORK.:E05TSI                    WED 07/30/97 00:37 Page:256
         0 000030   000004 605000 0                  TPL     s:691

     1423      698
     1424      699    1      ALTRETURN;

    699  0 000031   000000 702200 xent               TSX2  ! X66_AALT

     1425      700        %EJECT;
PL6.E3A0      #005=KIN$CONV_NODENAME File=KIN$NETWORK.:E05TSI                    WED 07/30/97 00:37 Page:257
     1426      701        /*F* NAME: KIN$CONV_NODE
     1427      702
     1428      703        KIN$CONV_NODE returns NODENAME and HOSTNODE from the route table
     1429      704        for a specified NODE#.
     1430      705        */
     1431      706
     1432      707    1   KIN$CONV_NODE: ENTRY(NODENAME,NODE#,HOSTNODE) ALTRET;

    707  0 000032   000000 700200 xent  KIN$CONV_NO* TSX0  ! X66_AUTO_3
         0 000033   000010 000003                    ZERO    8,3

     1433      708
     1434      709    1      IF NODE# > KI_NODES

    709  0 000034   200004 470500                    LDP0    @NODE#,,AUTO
         0 000035   000000 236000 xsym               LDQ     KI_NODES
         0 000036   000000 116100                    CMPQ    0,,PR0
         0 000037   000041 603000 0                  TRC     s:712

     1435      710    1      THEN ALTRETURN;

    710  0 000040   000000 702200 xent               TSX2  ! X66_AALT

     1436      711
     1437      712    1      NODENAME = KI$ROUTE$(NODE#)->KI$ROUTE.NODE_NAME;

    712  0 000041   000000 720100                    LXL0    0,,PR0
         0 000042   000000 471400 xsym               LDP1    KI_ROUTE$$
         0 000043   100000 473510                    LDP3    0,X0,PR1
         0 000044   200003 474500                    LDP4    @NODENAME,,AUTO
         0 000045   040100 100500                    MLR     fill='040'O
         0 000046   300000 000010                    ADSC9   0,,PR3                   cn=0,n=8
         0 000047   400000 000010                    ADSC9   0,,PR4                   cn=0,n=8

     1438      713    1      IF NODENAME = ' '

    713  0 000050   040000 106500                    CMPC    fill='040'O
PL6.E3A0      #005=KIN$CONV_NODENAME File=KIN$NETWORK.:E05TSI                    WED 07/30/97 00:37 Page:258
         0 000051   400000 000010                    ADSC9   0,,PR4                   cn=0,n=8
         0 000052   000035 000001 xsym               ADSC9   B_VECTNIL+29             cn=0,n=1
         0 000053   000055 601000 0                  TNZ     RETURN_HOST_BIT

     1439      714    1      THEN ALTRETURN;

    714  0 000054   000000 702200 xent               TSX2  ! X66_AALT

     1440      715
     1441      716    1   RETURN_HOST_BIT:
     1442      717    1      IF ADDR(HOSTNODE)~=ADDR(NIL)

    717  0 000055   200005 236100       RETURN_HOST* LDQ     @HOSTNODE,,AUTO
         0 000056   000001 116000 xsym               CMPQ    B_VECTNIL+1
         0 000057   000070 600000 0                  TZE     s:719

     1443      718    1      THEN HOSTNODE = KI$ROUTE$(NODE#)->KI$ROUTE.HOST;

    718  0 000060   200004 470500                    LDP0    @NODE#,,AUTO
         0 000061   000000 720100                    LXL0    0,,PR0
         0 000062   000000 471400 xsym               LDP1    KI_ROUTE$$
         0 000063   100000 473510                    LDP3    0,X0,PR1
         0 000064   200005 474500                    LDP4    @HOSTNODE,,AUTO
         0 000065   003100 060500                    CSL     bolr='003'O
         0 000066   300002 600001                    BDSC    2,,PR3                   by=3,bit=0,n=1
         0 000067   400000 000001                    BDSC    0,,PR4                   by=0,bit=0,n=1

     1444      719    1      RETURN;

    719  0 000070   000000 702200 xent               TSX2  ! X66_ARET

     1445      720
     1446      721        %EJECT;
PL6.E3A0      #005=KIN$CONV_NODENAME File=KIN$NETWORK.:E05TSI                    WED 07/30/97 00:37 Page:259
     1447      722        /*F* NAME: KIN$SET_NODE
     1448      723
     1449      724        KIN$SET_NODE is called when KUB$EA has received a KL$SETNODE message
     1450      725        from the HLPCG.
     1451      726
     1452      727        The new new nodename and HOSTNODE values are stored in the specified
     1453      728        route table.
     1454      729        */
     1455      730
     1456      731    1   KIN$SET_NODE: ENTRY(NODENAME,NODE#,HOSTNODE) ALTRET;

    731  0 000071   000000 700200 xent  KIN$SET_NODE TSX0  ! X66_AUTO_3
         0 000072   000010 000003                    ZERO    8,3

     1457      732
     1458      733    1      IF NODE# > KI_NODES

    733  0 000073   200004 470500                    LDP0    @NODE#,,AUTO
         0 000074   000000 236000 xsym               LDQ     KI_NODES
         0 000075   000000 116100                    CMPQ    0,,PR0
         0 000076   000100 603000 0                  TRC     s:735

     1459      734    1      THEN ALTRETURN;

    734  0 000077   000000 702200 xent               TSX2  ! X66_AALT

     1460      735    1      KI$ROUTE$(NODE#)->KI$ROUTE.NODE_NAME = NODENAME;

    735  0 000100   000000 720100                    LXL0    0,,PR0
         0 000101   000000 471400 xsym               LDP1    KI_ROUTE$$
         0 000102   100000 473510                    LDP3    0,X0,PR1
         0 000103   200003 474500                    LDP4    @NODENAME,,AUTO
         0 000104   040100 100500                    MLR     fill='040'O
         0 000105   400000 000010                    ADSC9   0,,PR4                   cn=0,n=8
         0 000106   300000 000010                    ADSC9   0,,PR3                   cn=0,n=8

     1461      736    1      KI$ROUTE$(NODE#)->KI$ROUTE.HOST = HOSTNODE;
PL6.E3A0      #005=KIN$CONV_NODENAME File=KIN$NETWORK.:E05TSI                    WED 07/30/97 00:37 Page:260

    736  0 000107   000000 720100                    LXL0    0,,PR0
         0 000110   000000 471400 xsym               LDP1    KI_ROUTE$$
         0 000111   100000 473510                    LDP3    0,X0,PR1
         0 000112   200005 475500                    LDP5    @HOSTNODE,,AUTO
         0 000113   003100 060500                    CSL     bolr='003'O
         0 000114   500000 000001                    BDSC    0,,PR5                   by=0,bit=0,n=1
         0 000115   300002 600001                    BDSC    2,,PR3                   by=3,bit=0,n=1

     1462      737    1      RETURN;

    737  0 000116   000000 702200 xent               TSX2  ! X66_ARET
     1463      738
     1464      739    1   END KIN$CONV_NODENAME;

PL6.E3A0      #005=KIN$CONV_NODENAME File=KIN$NETWORK.:E05TSI                    WED 07/30/97 00:37 Page:261
--  Include file information  --

   KI_MACROS_C.:E05TOU  is referenced.
      No diagnostics issued in procedure KIN$CONV_NODENAME.
PL6.E3A0      #005=KIN$CONV_NODENAME File=KIN$NETWORK.:E05TSI                    WED 07/30/97 00:37 Page:262

 **** Variables and constants ****

  ****  Auto variables  ****

  ****  Scalars and arrays  ****
OctLoc.c.b A Datatyp(siz) R M Lvl/name                 OctLoc.c.b A Datatyp(siz) R M Lvl/name

     5-0-0/w PTR         r     1 @HOSTNODE                  4-0-0/w PTR         r     1 @NODE#
     3-0-0/w PTR         r     1 @NODENAME                 *0-0-0/b BIT         r     1 HOSTNODE
     6-0-0/w SBIN        r     1 I                         *0-0-0/w UBIN        r     1 NODE#
    *0-0-0/c CHAR(8)     r     1 NODENAME

  ****  SYMREF variables  ****

  ****  Scalars and arrays  ****
OctLoc.c.b A Datatyp(siz) R M Lvl/name                 OctLoc.c.b A Datatyp(siz) R M Lvl/name

     0-0-0/w UBIN        r     1 KI_NODES                   0-0-0/w PTR         r     1 KI_ROUTE$$

  ****  BASED and DCB variables  ****

  ****  Scalars and arrays  ****
OctLoc.c.b A Datatyp(siz) R M Lvl/name                 OctLoc.c.b A Datatyp(siz) R M Lvl/name

     0-0-0/w STRC(216)   r     1 KI$ROUTE
     0-0-0/w PTR         r     1 KI$ROUTE$(0:0)


   Procedure KIN$CONV_NODENAME requires 79 words for executable code.
   Procedure KIN$CONV_NODENAME requires 8 words of local(AUTO) storage.

    No errors detected in file KIN$NETWORK.:E05TSI    .
PL6.E3A0      #005=KIN$CONV_NODENAME File=KIN$NETWORK.:E05TSI                    WED 07/30/97 00:37 Page:263
          *** CROSS REFERENCE LISTING ***
**     DENOTES     IDENTIFIER DEFINITION
<<                 IDENTIFIER'S VALUE SET
>>                 IDENTIFIER'S VALUE USED
<>                 IDENTIFIER SET AND/OR USED
--                 IDENTIFIER REFERENCED
PL6.E3A0      #005=KIN$CONV_NODENAME File=KIN$NETWORK.:E05TSI                    WED 07/30/97 00:37 Page:264
          MINI XREF LISTING

HOSTNODE
       627**DCL        14--PROC      707--ENTRY     717--IF        718<<ASSIGN    731--ENTRY     736>>ASSIGN
I
       629**DCL       690<<DOINDEX   691>>IF        691>>IF        694>>ASSIGN
KI$ROUTE.HOST
       650**DCL       718>>ASSIGN    736<<ASSIGN
KI$ROUTE.NODE_NAME
       633**DCL       691>>IF        691>>IF        712>>ASSIGN    735<<ASSIGN
KI$ROUTE$
       685**DCL       691>>IF        691>>IF        712>>ASSIGN    718>>ASSIGN    735>>ASSIGN    736>>ASSIGN
KI_NODES
       688**DCL       690>>DOINDEX   709>>IF        733>>IF
KI_ROUTE$$
       687**DCL       685--IMP-PTR   691>>IF        691>>IF        712>>ASSIGN    718>>ASSIGN    735>>ASSIGN
       736>>ASSIGN
NODE#
       626**DCL        14--PROC      694<<ASSIGN    707--ENTRY     709>>IF        712>>ASSIGN    718>>ASSIGN
       731--ENTRY     733>>IF        735>>ASSIGN    736>>ASSIGN
NODENAME
       625**DCL        14--PROC      691>>IF        707--ENTRY     712<<ASSIGN    713>>IF        731--ENTRY
       735>>ASSIGN
RETURN_HOST_BIT
       717**LABEL     695--GOTO
