PL6.E3A0      #002=KIP$RPET File=KIP$PMME.:E05TSI                                WED 07/30/97 00:37 Page:175
      902        1        /*T***********************************************************/
      903        2        /*T*                                                         */
      904        3        /*T* Copyright (c) Bull HN Information Systems Inc., 1997    */
      905        4        /*T*                                                         */
      906        5        /*T***********************************************************/
      907        6        /**/
      908        7        /**/
      909        8        KIP$RPET: PROC;
      910        9        /**/
      911       10        /**/
      912       11        %INCLUDE F$DCB;
      913       60 S      %INCLUDE B$JIT_C;
      914       61        %B$JIT0;
      915      150        %U$JIT1;
      916      224        %M$JIT2X;
      917      227        %F$JIT3;
      918      232        %A$JIT6X;
      919      235        %INCLUDE NK_VFC_C;
      920      309        %INCLUDE F_FPTCODE_C;
      921      345        %INCLUDE KV_PRMID_E;
      922      519        %KV_PRMID_E;
      923      675        %INCLUDE CP_6_SUBS;
      924     1215        %INCLUDE KI_SUBS_C;
      925     1351        %INCLUDE KI_MACROS_C;
      926     1959        /**/
      927     1960        /**/
      928     1961    1   DCL B$JIT$ PTR SYMREF;
      929     1962    1   DCL B$M$UC$ PTR SYMREF READONLY;
      930     1963    1   DCL DCB$ REDEF B$M$UC$ PTR;
      931     1964    1   DCL MEDIA EPTR;
      932     1965    1   DCL 1 PRMRST CONSTANT ALIGNED,
      933     1966    1            2 PRMT UBIN(9) UNAL INIT(%KV_PRMID_PROMPT),
      934     1967    1            2 PRML UBIN(9) UNAL INIT(4),
      935     1968    1            2 PRMPFB UBIN(9) UNAL INIT(KIDM_USER),
      936     1969    1            2 DVBYTE UBIN(9) UNAL INIT(0),
      937     1970    1            2 VFC CHAR(1) UNAL INIT(%VFC_EXT),
      938     1971    1            2 PROMPT CHAR(1) UNAL INIT('*'),
PL6.E3A0      #002=KIP$RPET File=KIP$PMME.:E05TSI                                WED 07/30/97 00:37 Page:176
      939     1972    1            2 EOMT UBIN(9) UNAL INIT(%KV_PRMID_EOM),
      940     1973    1            2 EOML UBIN(9) UNAL INIT(36),
      941     1974    1            2 EOMPFB UBIN(9) UNAL INIT(KIDM_USER),
      942     1975    1            2 RSVD UBIN(9) UNAL INIT(0),
      943     1976    1            2 UNITS UBIN(9) UNAL INIT(0),
      944     1977    1            2 TIMEOUT UBIN(9) UNAL INIT(0),
      945     1978    1            2 EOMTABLE(0:31) UBIN(9) UNAL INIT(
      946     1979    1           8,44,0,47,0*12,8,44,0,47,0*12),
      947     1980    1            2 HDRT UBIN(9) UNAL INIT(%KV_PRMID_DCBHDR),
      948     1981    1            2 HDRL UBIN(9) UNAL INIT(0);
      949     1982    1   DCL KIA$UCIO ENTRY(5) ALTRET;
      950     1983    1   DCL OCU$RWUC ENTRY(4) ALTRET;
      951     1984    1   DCL UMD$CLSDRIB ENTRY ALTRET;
      952     1985        /**/
      953     1986        /**/
      954     1987    1        IF B$JIT.MODE~=%M_INT# THEN RETURN;
      955     1988    1        B$JIT$->B$JIT.DCB$=DCB$;
      956     1989    1        IF DCB$->F$DCB.FCD='0'B OR DCB$->F$DCB.LDCTX=0 THEN RETURN;
      957     1990    1        DCB$->F$DCB.WAIT=1;
      958     1991    1        IF DCB$->F$DCB.ASN=%COMGROUP# THEN MEDIA=ENTADDR(OCU$RWUC);
      959     1992    1        ELSE MEDIA=ENTADDR(KIA$UCIO);
      960     1993    1        DCB$->F$DCB.UB$=ADDR(PRMRST);
      961     1994    1        DCB$->F$DCB.UBYTES=LENGTHC(PRMRST);
      962     1995    1        CALL MEDIA (MFC_WRITE,%DVBYTE_VFC#,%VFC_SPM,0);
      963     1996    1        IF B$JIT.CPFLAGS1 & %CP_DRIBBLE# THEN
      964     1997    1             CALL UMD$CLSDRIB;
      965     1998    1        RETURN;
      966     1999        /**/
      967     2000    1   END;
      968     2001        /**/
      969     2002        %EOD;

PL6.E3A0      #002=KIP$RPET File=KIP$PMME.:E05TSI                                WED 07/30/97 00:37 Page:177
--  Include file information  --

   KI_MACROS_C.:E05TOU  is referenced.
   KI_SUBS_C.:E05TOU  is referenced.
   CP_6_SUBS.:E05TOU  is referenced.
   KV_PRMID_E.:E05TOU  is referenced.
   F_FPTCODE_C.:E05TOU  is referenced.
   NK_VFC_C.:E05TOU  is referenced.
   F$DCB.:E05TOU  cannot be made into a system file and is referenced.
   B$JIT_C.:E05TOU  was found in the system file and is referenced.
   CP_6_C.:E05TOU  was found in the system file and is never referenced.
      No diagnostics issued in procedure KIP$RPET.

   Procedure KIP$RPET requires 45 words for executable code.
   Procedure KIP$RPET requires 4 words of local(AUTO) storage.

PL6.E3A0      #002=KIP$RPET File=KIP$PMME.:E05TSI                                WED 07/30/97 00:37 Page:178

 Object Unit name= KIP$RPET                                   File name= KIP$PMME.:E05TOU
 UTS= JUL 30 '97 00:37:32.28 WED                              Compiler= PL-6/E31         Sev=      00
 SharedLib= :SHARED_SYSTEM                                    Alt SharedLib=


    ****  Control sections  ****

 Sect   Type Bound  Init  Size OctSiz  Section name(segment info)
    0  RoData even  UTS     13     15  KIP$RPET
    1   Proc  even  none    45     55  KIP$RPET
    2  RoData even  none     7      7  KIP$RPET

    ****  Entry defs  ****

                              Check   Calling
                             calling  sequence
  Sect OctLoc Primary Altret sequence   type   Parms  Name
     1      0   yes            yes      Std        0  KIP$RPET

  ****  Entry refs  ****

         Check        Calling
        calling       sequence
Altret sequence SRef   type   Args  Name
 yes     yes           Std       4 OCU$RWUC
 yes     yes           Std       5 KIA$UCIO
 yes     yes           Std       0 UMD$CLSDRIB
                       nStd      0 X66_AUTO_0
                       nStd      0 X66_ARET
                       Std       0 B_CONSPOOL_D

  ****  Data refs  ****

  Flags:  r = read only, s = secondary
Flgs Name                             Flgs Name                             Flgs Name
     B$JIT$                           r    B$M$UC$                               B_VECTNIL
PL6.E3A0      #002=KIP$RPET File=KIP$PMME.:E05TSI                                WED 07/30/97 00:37 Page:179

  ****  Segment refs  ****

  Flags:  r = read only, s = secondary
Flgs Name                             Flgs Name                             Flgs Name
     ISSID
PL6.E3A0      #002=KIP$RPET File=KIP$PMME.:E05TSI                                WED 07/30/97 00:37 Page:180


      902        1        /*T***********************************************************/
      903        2        /*T*                                                         */
      904        3        /*T* Copyright (c) Bull HN Information Systems Inc., 1997    */
      905        4        /*T*                                                         */
      906        5        /*T***********************************************************/
      907        6        /**/
      908        7        /**/
      909        8        KIP$RPET: PROC;

      8  1 000000   000000 700200 xent  KIP$RPET     TSX0  ! X66_AUTO_0
         1 000001   000004 000000                    ZERO    4,0

      910        9        /**/
      911       10        /**/
      912       11        %INCLUDE F$DCB;
      913       60 S      %INCLUDE B$JIT_C;
      914       61        %B$JIT0;
      915      150        %U$JIT1;
      916      224        %M$JIT2X;
      917      227        %F$JIT3;
      918      232        %A$JIT6X;
      919      235        %INCLUDE NK_VFC_C;
      920      309        %INCLUDE F_FPTCODE_C;
      921      345        %INCLUDE KV_PRMID_E;
      922      519        %KV_PRMID_E;
      923      675        %INCLUDE CP_6_SUBS;
      924     1215        %INCLUDE KI_SUBS_C;
      925     1351        %INCLUDE KI_MACROS_C;
      926     1959        /**/
      927     1960        /**/
      928     1961    1   DCL B$JIT$ PTR SYMREF;
      929     1962    1   DCL B$M$UC$ PTR SYMREF READONLY;
      930     1963    1   DCL DCB$ REDEF B$M$UC$ PTR;
      931     1964    1   DCL MEDIA EPTR;
      932     1965    1   DCL 1 PRMRST CONSTANT ALIGNED,
      933     1966    1            2 PRMT UBIN(9) UNAL INIT(%KV_PRMID_PROMPT),
PL6.E3A0      #002=KIP$RPET File=KIP$PMME.:E05TSI                                WED 07/30/97 00:37 Page:181
      934     1967    1            2 PRML UBIN(9) UNAL INIT(4),
      935     1968    1            2 PRMPFB UBIN(9) UNAL INIT(KIDM_USER),
      936     1969    1            2 DVBYTE UBIN(9) UNAL INIT(0),
      937     1970    1            2 VFC CHAR(1) UNAL INIT(%VFC_EXT),
      938     1971    1            2 PROMPT CHAR(1) UNAL INIT('*'),
      939     1972    1            2 EOMT UBIN(9) UNAL INIT(%KV_PRMID_EOM),
      940     1973    1            2 EOML UBIN(9) UNAL INIT(36),
      941     1974    1            2 EOMPFB UBIN(9) UNAL INIT(KIDM_USER),
      942     1975    1            2 RSVD UBIN(9) UNAL INIT(0),
      943     1976    1            2 UNITS UBIN(9) UNAL INIT(0),
      944     1977    1            2 TIMEOUT UBIN(9) UNAL INIT(0),
      945     1978    1            2 EOMTABLE(0:31) UBIN(9) UNAL INIT(
      946     1979    1           8,44,0,47,0*12,8,44,0,47,0*12),
      947     1980    1            2 HDRT UBIN(9) UNAL INIT(%KV_PRMID_DCBHDR),
      948     1981    1            2 HDRL UBIN(9) UNAL INIT(0);
      949     1982    1   DCL KIA$UCIO ENTRY(5) ALTRET;
      950     1983    1   DCL OCU$RWUC ENTRY(4) ALTRET;
      951     1984    1   DCL UMD$CLSDRIB ENTRY ALTRET;
      952     1985        /**/
      953     1986        /**/
      954     1987    1        IF B$JIT.MODE~=%M_INT# THEN RETURN;

   1987  1 000002   000000 470400 xsym               LDP0    B$JIT$
         1 000003   000000 236100                    LDQ     0,,PR0
         1 000004   740000 376003                    ANQ     -16384,DU
         1 000005   140000 116003                    CMPQ    49152,DU
         1 000006   000010 600000 1                  TZE     s:1988

   1987  1 000007   000000 702200 xent               TSX2  ! X66_ARET

      955     1988    1        B$JIT$->B$JIT.DCB$=DCB$;

   1988  1 000010   000000 236000 xsym               LDQ     B$M$UC$
         1 000011   000232 756100                    STQ     154,,PR0

      956     1989    1        IF DCB$->F$DCB.FCD='0'B OR DCB$->F$DCB.LDCTX=0 THEN RETURN;

PL6.E3A0      #002=KIP$RPET File=KIP$PMME.:E05TSI                                WED 07/30/97 00:37 Page:182
   1989  1 000012   000000 471400 xsym               LDP1    B$M$UC$
         1 000013   100031 236100                    LDQ     25,,PR1
         1 000014   020000 316007                    CANQ    8192,DL
         1 000015   000020 600000 1                  TZE     s:1989+6
         1 000016   100051 220100                    LDX0    41,,PR1
         1 000017   000021 601000 1                  TNZ     s:1990

   1989  1 000020   000000 702200 xent               TSX2  ! X66_ARET

      957     1990    1        DCB$->F$DCB.WAIT=1;

   1990  1 000021   000020 236007                    LDQ     16,DL
         1 000022   100064 256100                    ORSQ    52,,PR1

      958     1991    1        IF DCB$->F$DCB.ASN=%COMGROUP# THEN MEDIA=ENTADDR(OCU$RWUC);

   1991  1 000023   100032 236100                    LDQ     26,,PR1
         1 000024   777000 376007                    ANQ     -512,DL
         1 000025   004000 116007                    CMPQ    2048,DL
         1 000026   000032 601000 1                  TNZ     s:1992

   1991  1 000027   000000 636000 xent               EAQ     OCU$RWUC
         1 000030   200003 756100                    STQ     MEDIA,,AUTO
         1 000031   000034 710000 1                  TRA     s:1993

      959     1992    1        ELSE MEDIA=ENTADDR(KIA$UCIO);

   1992  1 000032   000000 636000 xent               EAQ     KIA$UCIO
         1 000033   200003 756100                    STQ     MEDIA,,AUTO

      960     1993    1        DCB$->F$DCB.UB$=ADDR(PRMRST);

   1993  1 000034   000000 236000 2                  LDQ     0
         1 000035   100075 756100                    STQ     61,,PR1

      961     1994    1        DCB$->F$DCB.UBYTES=LENGTHC(PRMRST);

PL6.E3A0      #002=KIP$RPET File=KIP$PMME.:E05TSI                                WED 07/30/97 00:37 Page:183
   1994  1 000036   000056 235007                    LDA     46,DL
         1 000037   100076 755100                    STA     62,,PR1

      962     1995    1        CALL MEDIA (MFC_WRITE,%DVBYTE_VFC#,%VFC_SPM,0);

   1995  1 000040   000003 630400 2                  EPPR0   3
         1 000041   200003 221100                    LDX1    MEDIA,,AUTO
         1 000042   000022 631400 xsym               EPPR1   B_VECTNIL+18
         1 000043   000000 701011                    TSX1    0,X1
         1 000044   000000 011000                    NOP     0

      963     1996    1        IF B$JIT.CPFLAGS1 & %CP_DRIBBLE# THEN

   1996  1 000045   000000 470400 xsym               LDP0    B$JIT$
         1 000046   000143 236100                    LDQ     99,,PR0
         1 000047   000014 376000 0                  ANQ     PRMRST+12
         1 000050   000054 600000 1                  TZE     s:1998

      964     1997    1             CALL UMD$CLSDRIB;

   1997  1 000051   000002 631400 xsym               EPPR1   B_VECTNIL+2
         1 000052   000000 701000 xent               TSX1    UMD$CLSDRIB
         1 000053   000000 011000                    NOP     0

      965     1998    1        RETURN;

   1998  1 000054   000000 702200 xent               TSX2  ! X66_ARET

PRMRST
 Sect OctLoc
   0     000   005004 002000   100052 006044   002000 000000   010054 000057    ....@*.$.....,./
   0     004   000000 000000   000000 000000   000000 000000   010054 000057    .............,./
   0     010   000000 000000   000000 000000   000000 000000   024000 ******    ................

(unnamed)
 Sect OctLoc
   0     014   000000 100000                                                    ..@.
PL6.E3A0      #002=KIP$RPET File=KIP$PMME.:E05TSI                                WED 07/30/97 00:37 Page:184

(unnamed)
 Sect OctLoc
   2     000   000000 006000   100000 000000   024040 040040   000003 006000    ....@....   ....
   2     004   000001 006000   000002 006000   000002 006000                    ............
      966     1999        /**/
      967     2000    1   END;
      968     2001        /**/
      969     2002        %EOD;

PL6.E3A0      #002=KIP$RPET File=KIP$PMME.:E05TSI                                WED 07/30/97 00:37 Page:185
--  Include file information  --

   KI_MACROS_C.:E05TOU  is referenced.
   KI_SUBS_C.:E05TOU  is referenced.
   CP_6_SUBS.:E05TOU  is referenced.
   KV_PRMID_E.:E05TOU  is referenced.
   F_FPTCODE_C.:E05TOU  is referenced.
   NK_VFC_C.:E05TOU  is referenced.
   F$DCB.:E05TOU  cannot be made into a system file and is referenced.
   B$JIT_C.:E05TOU  was found in the system file and is referenced.
   CP_6_C.:E05TOU  was found in the system file and is never referenced.
      No diagnostics issued in procedure KIP$RPET.
PL6.E3A0      #002=KIP$RPET File=KIP$PMME.:E05TSI                                WED 07/30/97 00:37 Page:186

 **** Variables and constants ****

  ****  Section 000 RoData KIP$RPET

  ****  Scalars and arrays  ****
OctLoc.c.b A Datatyp(siz) R M Lvl/name                 OctLoc.c.b A Datatyp(siz) R M Lvl/name

     0-0-0/w STRC(414)   r     1 PRMRST

  ****  Auto variables  ****

  ****  Scalars and arrays  ****
OctLoc.c.b A Datatyp(siz) R M Lvl/name                 OctLoc.c.b A Datatyp(siz) R M Lvl/name

     3-0-0/w EPTR        r     1 MEDIA

  ****  SYMREF variables  ****

  ****  Scalars and arrays  ****
OctLoc.c.b A Datatyp(siz) R M Lvl/name                 OctLoc.c.b A Datatyp(siz) R M Lvl/name

     0-0-0/w PTR         r     1 B$JIT$                     0-0-0/w PTR         r     1 B$M$UC$
     0-0-0/w PTR         r     1 DCB$

  ****  BASED and DCB variables  ****

  ****  Scalars and arrays  ****
OctLoc.c.b A Datatyp(siz) R M Lvl/name                 OctLoc.c.b A Datatyp(siz) R M Lvl/name

     0-0-0/d STRC(7560)  r     1 B$JIT                      0-0-0/d ASTR(3528)  r     1 F$DCB


   Procedure KIP$RPET requires 45 words for executable code.
   Procedure KIP$RPET requires 4 words of local(AUTO) storage.
PL6.E3A0      #002=KIP$RPET File=KIP$PMME.:E05TSI                                WED 07/30/97 00:37 Page:187
          *** CROSS REFERENCE LISTING ***
**     DENOTES     IDENTIFIER DEFINITION
<<                 IDENTIFIER'S VALUE SET
>>                 IDENTIFIER'S VALUE USED
<>                 IDENTIFIER SET AND/OR USED
--                 IDENTIFIER REFERENCED
PL6.E3A0      #002=KIP$RPET File=KIP$PMME.:E05TSI                                WED 07/30/97 00:37 Page:188
          MINI XREF LISTING

B$JIT.CPFLAGS1
       156**DCL      1996>>IF
B$JIT.CPFLAGS1.SLEAZE
       161**DCL       161--REDEF
B$JIT.DCB$
       228**DCL      1988<<ASSIGN
B$JIT.ERR.MID
        68**DCL        68--REDEF
B$JIT.MODE
        62**DCL      1987>>IF
B$JIT$
      1961**DCL        62--IMP-PTR  1987>>IF       1988>>ASSIGN   1996>>IF
B$M$UC$
      1962**DCL      1963--REDEF
DCB$
      1963**DCL      1988>>ASSIGN   1989>>IF       1989>>IF       1990>>ASSIGN   1991>>IF       1993>>ASSIGN
      1994>>ASSIGN
F$DCB.ACTPOS
        37**DCL        37--REDEF
F$DCB.ARS
        12**DCL        12--REDEF
F$DCB.ASN
        27**DCL      1991>>IF
F$DCB.ATTR
        30**DCL        31--REDEF
F$DCB.BORROW
        45**DCL        45--REDEF      45--REDEF      45--REDEF
F$DCB.DCBNAME.L
        59**DCL        59--IMP-SIZ
F$DCB.EOMCHAR
        16**DCL        16--REDEF
F$DCB.FCD
PL6.E3A0      #002=KIP$RPET File=KIP$PMME.:E05TSI                                WED 07/30/97 00:37 Page:189
        25**DCL      1989>>IF
F$DCB.FLDID
        40**DCL        40--REDEF
F$DCB.FORM$
        34**DCL        34--REDEF
F$DCB.FSECT
        50**DCL        50--REDEF
F$DCB.FSN
        27**DCL        27--REDEF      27--REDEF      28--REDEF
F$DCB.HEADER$
        33**DCL        33--REDEF
F$DCB.IXTNSIZE
        31**DCL        31--REDEF
F$DCB.LASTSTA$
        21**DCL        21--REDEF
F$DCB.LDCTX
        34**DCL      1989>>IF
F$DCB.LVL
        46**DCL        46--REDEF
F$DCB.NAME.C
        21**DCL        21--REDEF
F$DCB.NOEOF
        42**DCL        42--REDEF
F$DCB.NRECS
        32**DCL        32--REDEF
F$DCB.NRECX
        51**DCL        51--REDEF
F$DCB.OHDR
        43**DCL        43--REDEF
F$DCB.ORG
        26**DCL        26--REDEF
F$DCB.PRECNO
        49**DCL        49--REDEF
F$DCB.RCSZ
        54**DCL        54--REDEF
F$DCB.RES
PL6.E3A0      #002=KIP$RPET File=KIP$PMME.:E05TSI                                WED 07/30/97 00:37 Page:190
        22**DCL        22--REDEF
F$DCB.SETX
        34**DCL        34--REDEF
F$DCB.TAB$
        33**DCL        34--REDEF
F$DCB.TDA
        48**DCL        48--REDEF
F$DCB.UB$
        50**DCL      1993<<ASSIGN
F$DCB.UBYTES
        50**DCL      1994<<ASSIGN
F$DCB.WAIT
        44**DCL      1990<<ASSIGN
F$DCB.WSN
        23**DCL        23--REDEF
KIA$UCIO
      1982**DCL-ENT  1992--ASSIGN
MEDIA
      1964**DCL      1991<<ASSIGN   1992<<ASSIGN   1995>>CALL
OCU$RWUC
      1983**DCL-ENT  1991--ASSIGN
PRMRST
      1965**DCL      1993--ASSIGN   1994--ASSIGN
UMD$CLSDRIB
      1984**DCL-ENT  1997--CALL

PL6.E3A0      #003=KIP$CPMME File=KIP$PMME.:E05TSI                               WED 07/30/97 00:37 Page:191
      970        1        /*T***********************************************************/
      971        2        /*T*                                                         */
      972        3        /*T* Copyright (c) Bull HN Information Systems Inc., 1997    */
      973        4        /*T*                                                         */
      974        5        /*T***********************************************************/
      975        6        /**/
      976        7        /**/
      977        8        KIP$CPMME: PROC (FPTCODE);
      978        9        /**/
      979       10        /**/
      980       11        %INCLUDE K_DATA_R;
      981      722        %INCLUDE NK$LDCT;
      982      824 S      %INCLUDE B$JIT_C;
      983      825        %B$JIT0;
      984      914        %A$JIT6X;
      985      917        %INCLUDE KI$CP6V_C;
      986     1356        %INCLUDE KI_DATA_R;
      987     1382        %INCLUDE KI_MACROS_C;
      988     1990        %INCLUDE NK_LDCT_R;
      989     1999        %INCLUDE JG_GHOSTS_C;
      990     2089        %INCLUDE SS_SCHED_C;
      991     2322        %INCLUDE NK_SUBS;
      992     2347        %INCLUDE KI_SUBS_C;
      993     2483        %INCLUDE UD_EQU_E;
      994     2872        %INCLUDE KL_MACRO_C;
      995     6224        %INCLUDE KL_AFCN_C;
      996     6325        /**/
      997     6326        %KI$FEI (STCLASS="BASED(FEI$)");
      998     6410        %KI$ROUTE (STCLASS="BASED(ROUTE$)");
      999     6464    1   DCL KI$ROUTE$(0:0) PTR BASED(KI_ROUTE$$);
     1000     6465        %FPT$NODEINFO_V (BASED="BASED(B$PS0$)");
     1001     6468        %VLR$NODEINFO_V (FPTN=VLR$NODEINFO,BASED="BASED(B$PS1$)");
     1002     6473        %NK$LDCT;
     1003     6519        %FPT$FECTL_V (FPTN=FECTL);
     1004     6523        %KL_FEPST (STCLASS="");
     1005     6558        /**/
     1006     6559        /**/
PL6.E3A0      #003=KIP$CPMME File=KIP$PMME.:E05TSI                               WED 07/30/97 00:37 Page:192
     1007     6560    1   DCL FPTCODE UBIN WORD;
     1008     6561    1   DCL FEI UBIN WORD;
     1009     6562    1   DCL FEI$ PTR;
     1010     6563    1   DCL ROUTE$ PTR;
     1011     6564    1   DCL FEX UBIN;
     1012     6565    1   DCL TEMP UBIN WORD;
     1013     6566    1   DCL 1 TEMPE REDEF TEMP,
     1014     6567    1            2 PROB UBIN HALF UNAL,
     1015     6568    1            2 STATE UBIN HALF UNAL;
     1016     6569    1   DCL OCQ$ PTR;
     1017     6570    1   DCL 1 VRSLTS BASED DALIGNED,
     1018     6571    1            2 ERROR UBIN WORD,
     1019     6572    1            2 ARS UBIN WORD;
     1020     6573    1   DCL B$JIT$ PTR SYMREF;
     1021     6574    1   DCL S_CUN UBIN WORD SYMREF;
     1022     6575    1   DCL B$PS1$ PTR SYMREF;
     1023     6576    1   DCL B$PS0$ PTR SYMREF;
     1024     6577    1   DCL B$PS2$ PTR SYMREF;
     1025     6578    1   DCL MMS$WSQMAP ENTRY(1) ALTRET;
     1026     6579    1   DCL KUB$WRITE ENTRY(3) ALTRET;
     1027     6580    1   DCL KIN$CONV_NODE ENTRY(3) ALTRET;
     1028     6581    1   DCL KIN$CONV_NODENAME ENTRY(3) ALTRET;
     1029     6582    1   DCL KIQ$FEBOOT ENTRY(2);
     1030     6583    1   DCL KIQ$DUMPGO ENTRY(1);
     1031     6584    1   DCL KIQ$FEABT ENTRY(2);
     1032     6585    1   DCL KIQ$FESTOP ENTRY(2);
     1033     6586    1   DCL KIQ$FESTRT ENTRY(1);
     1034     6587    1   DCL HFF$DSIZ ENTRY(2) ALTRET;
     1035     6588    1   DCL SSS$BLOCK ENTRY;
     1036     6589    1   DCL SSR$REG ENTRY(3) ALTRET;
     1037     6590    1   DCL SSR$RUE ENTRY(4);
     1038     6591    1   DCL MMS$VGET ENTRY(4) ALTRET;
     1039     6592    1   DCL KIS$REMFEP ENTRY(3) ALTRET;
     1040     6593        /**/
     1041     6594        /**/
     1042     6595        %INCLUDE KI_ERRORS_C;
     1043     6680        %INCLUDE UD_ERRORS_C;
PL6.E3A0      #003=KIP$CPMME File=KIP$PMME.:E05TSI                               WED 07/30/97 00:37 Page:193
     1044     6722        %INCLUDE UD_SEV_C;
     1045     6736        /**/
     1046     6737    1   DCL 1 CURBT CONSTANT ALIGNED,
     1047     6738    1            2 FCG BIT(18) UNAL INIT('131120'O),
     1048     6739    1            2 ERR UBIN(15) UNAL INIT(%E$CURBOOT),
     1049     6740    1            2 SEV UBIN(3) UNAL INIT(SEV_ABORT#);
     1050     6741    1   DCL 1 NOOPT CONSTANT ALIGNED,
     1051     6742    1            2 FCG BIT(18) UNAL INIT('131120'O),
     1052     6743    1            2 ERR UBIN(15) UNAL INIT(%E$NILOPT),
     1053     6744    1            2 SEV UBIN(3) UNAL INIT(SEV_ABORT#);
     1054     6745    1   DCL 1 NMAP CONSTANT ALIGNED,
     1055     6746    1            2 FCG BIT(18) UNAL INIT('131120'O),
     1056     6747    1            2 ERR UBIN(15) UNAL INIT(%E$NFEMAP),
     1057     6748    1            2 SEV UBIN(3) UNAL INIT(SEV_ABORT#);
     1058     6749    1   DCL 1 BDFEI CONSTANT ALIGNED,
     1059     6750    1            2 FCG BIT(18) UNAL INIT('131120'O),
     1060     6751    1            2 ERR UBIN(15) UNAL INIT(%E$BADFEX),
     1061     6752    1            2 SEV UBIN(3) UNAL INIT(SEV_ABORT#);
     1062     6753    1   DCL 1 NHLTD CONSTANT ALIGNED,
     1063     6754    1            2 FCG BIT(18) UNAL INIT('131120'O),
     1064     6755    1            2 ERR UBIN(15) UNAL INIT(%E$FEPRUN),
     1065     6756    1            2 SEV UBIN(3) UNAL INIT(SEV_ABORT#);
     1066     6757    1   DCL 1 FEPDN CONSTANT ALIGNED,
     1067     6758    1            2 FCG BIT(18) UNAL INIT('131120'O),
     1068     6759    1            2 ERR UBIN(15) UNAL INIT(%E$FEPDN),
     1069     6760    1            2 SEV UBIN(3) UNAL INIT(SEV_ABORT#);
     1070     6761    1   DCL 1 FEPART CONSTANT ALIGNED,
     1071     6762    1            2 FCG BIT(18) UNAL INIT('131120'O),
     1072     6763    1            2 ERR UBIN(15) UNAL INIT(%E$FEPART),
     1073     6764    1            2 SEV UBIN(3) UNAL INIT(SEV_ABORT#);
     1074     6765    1   DCL 1 BADBD CONSTANT ALIGNED,
     1075     6766    1            2 FCG BIT(18) UNAL INIT('131120'O),
     1076     6767    1            2 ERR UBIN(15) UNAL INIT(%E$NBTDMP),
     1077     6768    1            2 SEV UBIN(3) UNAL INIT(SEV_ABORT#);
     1078     6769        /**/
     1079     6770
     1080     6771    1        IF FPTCODE = %C$NODEINFO#
PL6.E3A0      #003=KIP$CPMME File=KIP$PMME.:E05TSI                               WED 07/30/97 00:37 Page:194
     1081     6772    2        THEN DO;
     1082     6773    2             IF FPT$NODEINFO_V.NODENAME~= ' '
     1083     6774    3             THEN DO;
     1084     6775    3                  CALL KIN$CONV_NODENAME (FPT$NODEINFO_V.NODENAME,FEX)
     1085     6776    4                  WHENALTRETURN DO;
     1086     6777    4                       B$JIT.ERR = BDFEI;
     1087     6778    4                       RETURN;
     1088     6779    4                     END;
     1089     6780    3                  VLR$NODEINFO.NODENAME = FPT$NODEINFO_V.NODENAME;
     1090     6781    3                END;
     1091     6782    3             ELSE DO;
     1092     6783    3                  FEX = FPT$NODEINFO_V.NODENUM;
     1093     6784    3                  CALL KIN$CONV_NODE(VLR$NODEINFO.NODENAME,FEX)
     1094     6785    4                  WHENALTRETURN DO;
     1095     6786    4                       B$JIT.ERR = BDFEI;
     1096     6787    4                       RETURN;
     1097     6788    4                     END;
     1098     6789    3                END;
     1099     6790    2             VLR$NODEINFO.NODENUM = FEX;
     1100     6791    2             ROUTE$ = KI$ROUTE$(FEX);
     1101     6792    2             VLR$NODEINFO.QOS = KI$ROUTE.CURRENT_QOS;
     1102     6793    2             VLR$NODEINFO.ALTQOS = KI$ROUTE.ALT_QOS;
     1103     6794    2             IF VLR$NODEINFO.QOS = 255     /*  Not active                        */
     1104     6795    3             THEN DO;
     1105     6796    3                  VLR$NODEINFO.ACTIVE = '0'B;
     1106     6797    3                  VLR$NODEINFO.LINKNODENAME = ' ';
     1107     6798    3                  VLR$NODEINFO.LINKNODENUM = 0;
     1108     6799    3                END;
     1109     6800    3             ELSE DO;
     1110     6801    3                  VLR$NODEINFO.ACTIVE = '1'B;
     1111     6802    3                  VLR$NODEINFO.LINKNODENUM = KI$FEI$(KI$ROUTE.FEI#)->KI$FEI.FEP#;
     1112     6803    3                  VLR$NODEINFO.LINKNODENAME = KI$ROUTE$(VLR$NODEINFO.LINKNODENUM)->
              6803                           KI$ROUTE.NODE_NAME;
     1113     6804    3                END;
     1114     6805    2             VLR$NODEINFO.HOST = KI$ROUTE.HOST;
     1115     6806    2             VLR$NODEINFO.LINKCONNECTED = KI$ROUTE.LINK_CONNECTED;
     1116     6807    2             IF VLR$NODEINFO.NODENUM = K_NODE# /* This node                    */
PL6.E3A0      #003=KIP$CPMME File=KIP$PMME.:E05TSI                               WED 07/30/97 00:37 Page:195
     1117     6808    3             THEN DO;
     1118     6809    3                  VLR$NODEINFO.HOST = '1'B;
     1119     6810    3                  VLR$NODEINFO.CURRENTNODE = '1'B;
     1120     6811    3                END;
     1121     6812    2             ELSE
     1122     6813    2                  VLR$NODEINFO.CURRENTNODE = '0'B;
     1123     6814    2             RETURN;
     1124     6815    2           END;
     1125     6816        /**/
     1126     6817    2        DO FEI = 1 TO KI_MXFE;
     1127     6818    2             FEI$ = KI$FEI$(FEI);
     1128     6819    2             IF KI$FEI.FEP# = B$PS0$->FECTL.FEP
     1129     6820    2             THEN
     1130     6821    2                  GOTO GOT_FEP;
     1131     6822    2           END;
     1132     6823    1        B$JIT.ERR=BDFEI;
     1133     6824        /*E*  ERROR:         KIP-E$BADFEX-A
     1134     6825               MESSAGE: No such FEP exists!
     1135     6826              MESSAGE1: FEP# in your FPT_FECTL is invalid.
     1136     6827              DESCRIPTION:   Self explanatory - if you can issue this pmme, you
     1137     6828                             probably should not make this mistake.  SLUG uses this
     1138     6829                             error to say THERE IS NO FEP n                          */
     1139     6830    1        RETURN;
     1140     6831    1   GOT_FEP:;
     1141     6832    2        IF KI$FEI.PBST.PROB =KIER_PART THEN DO;
     1142     6833    2             B$JIT.ERR=FEPART;
     1143     6834        /*E*  ERROR:         KIP-E$FEPART-A
     1144     6835               MESSAGE: That FEP is partitioned!
     1145     6836              MESSAGE1: No control operations can be performed on that FEP
     1146     6837                        until it is RETURNed via SYSCON.
     1147     6838              DESCRIPTION:   This is to prevent keyins, etc. on partitioned FEPs     */
     1148     6839    2             RETURN;
     1149     6840    2           END;
     1150     6841    1        CALL SSS$BLOCK;
     1151     6842    2        DO CASE (FPTCODE);
     1152     6843    2        CASE (%C$FECTL#);
     1153     6844    2           IF KI$FEI.BDU# ~=0 THEN B$JIT.ERR=CURBT;
PL6.E3A0      #003=KIP$CPMME File=KIP$PMME.:E05TSI                               WED 07/30/97 00:37 Page:196
     1154     6845        /*E*  ERROR:         KIP-E$CURBOOT-A
     1155     6846               MESSAGE: That FEP is already being rebooted!
     1156     6847              DESCRIPTION:   The FEP being halted on an M$FECTL is currently in
     1157     6848                             the boot or dump process                                */
     1158     6849    3           ELSE IF B$PS0$->FECTL.HALT THEN DO;
     1159     6850    3                     IF KI$FEI.FEST ~= KIST_DN AND
     1160     6851    3                          KI$FEI.FEST ~= KIST_MASKED AND
     1161     6852    3                          KI$FEI.FEST ~= KIST_STOPPING THEN
     1162     6853    3                          CALL KIQ$FEABT ( FEI , KIER_BCMD ) ;
     1163     6854    4                     ELSE IF B$JIT.SYSID=JG_SLUG# THEN DO;
     1164     6855    4                               KL_FEPST.FEP = KI$FEI.FEP#;
     1165     6856    4                               KL_FEPST.FCN = IGA_FEPST;
     1166     6857    4                               KL_FEPST.PROB=KIER_BCMD;
     1167     6858    4                               KL_FEPST.STATE=KIST_DN;
     1168     6859    4                               CALL KUB$WRITE (KL_FEPST,LENGTHC(KL_FEPST),'HLPADMIN');
     1169     6860    4                             END;
     1170     6861    3                   END;
     1171     6862    3                ELSE IF B$PS0$->FECTL.STOP THEN DO;
     1172     6863    3   STOPIT:
     1173     6864    3                          IF KI$FEI.FEST = KIST_MASKED OR
     1174     6865    3                               ( KI$FEI.FEST = KIST_DN AND
     1175     6866    3                               KI$FEI.PBST.PROB ~= KIER_FREQ ) OR
     1176     6867    3                               KI$FEI.FEST = KIST_STOPPING THEN
     1177     6868    3                               B$JIT.ERR = FEPDN ;
     1178     6869        /*E*  ERROR:         KIP-E$FEPDN-A
     1179     6870               MESSAGE: Do nt ot try to STOP a down FEP!
     1180     6871              MESSAGE1: The FEP you tried to STOP is not running.
     1181     6872              DESCRIPTION:   Either someone is trying to stop a stopped FEP or
     1182     6873                             two people are trying to stop the same one.             */
     1183     6874    3                          ELSE CALL KIQ$FESTOP (FEI,KIER_STOP);
     1184     6875    3                        END;
     1185     6876    3                     ELSE IF B$PS0$->FECTL.START THEN DO;
     1186     6877    3                               IF KI$FEI.FEST ~= KIST_MASKED AND
     1187     6878    3                                    KI$FEI.FEST ~= KIST_STOPPING AND
     1188     6879    3                                    NOT ( KI$FEI.FEST = KIST_DN AND
     1189     6880    3                                    KI$FEI.PBST.PROB ~= KIER_FREQ ) THEN
     1190     6881    3                                    B$JIT.ERR = NHLTD ;
PL6.E3A0      #003=KIP$CPMME File=KIP$PMME.:E05TSI                               WED 07/30/97 00:37 Page:197
     1191     6882        /*    ERROR:         KIP-E$FEPRUN-A
     1192     6883              MESSAGE: That FEP is running or booting.
     1193     6884              DESCRIPTION:   In this case a GO was issued on a running FEP           */
     1194     6885    3                               ELSE CALL KIQ$FESTRT (FEI);
     1195     6886    3                             END;
     1196     6887    2           RETURN;
     1197     6888    2        CASE (%C$FEDUMP#);
     1198     6889    2           CALL BDSET;
     1199     6890    2           IF KI$FEI.BDU# ~= S_CUN THEN RETURN;
     1200     6891    2           KI$FEI.DSTAD =B$PS0$->FECTL.DMPSR.DADR; /* L6 byte address        */
     1201     6892    2           CALL KIQ$DUMPGO (FEI);
     1202     6893    2        CASE (%C$FEBOOT#);
     1203     6894    2           CALL BDSET;
     1204     6895    2           IF KI$FEI.BDU# ~= S_CUN THEN RETURN;
     1205     6896    2           KI$FEI.DSTAD  = 0;
     1206     6897    2           CALL KIQ$FEBOOT(FEI,B$PS0$->FECTL.MLCPDUMP);
     1207     6898    2           KI$FEI.NOTIME = B$PS0$->FECTL.NOTIME;
     1208     6899    2        END;
     1209     6900        /**/
     1210     6901        /* User will be REGged for some time here */
     1211     6902        /**/
     1212     6903    1        B$PS2$->VRSLTS.ARS=KI$FEI.BDARS ;
     1213     6904    1        B$PS2$->VRSLTS.ERROR=KI$FEI.PBST.PROB ;
     1214     6905    1        IF B$PS2$->VRSLTS.ERROR~=KIER_OK AND B$PS2$->VRSLTS.ERROR ~= KIER_FREQ
     1215     6906    1        THEN
     1216     6907    1             B$JIT.ERR = BADBD;
     1217     6908        /*E*  ERROR:         KIP-E$NBTDMP-A
     1218     6909               MESSAGE: M$FEDUMP or M$FEBOOT failed.
     1219     6910              MESSAGE1: Your M$FEBOOT or M$FEDUMP request did not run to
     1220     6911                        completion.  The reason for failure was returned in
     1221     6912                        RESULTS.ERR and the size of any partially complete
     1222     6913                        dump in RESULTS.ARS.
     1223     6914              DESCRIPTION:   Standard error to let the booter or dumper know
     1224     6915                             the process did not complete.  The real reason
     1225     6916                             why is in the FPT results area                          */
     1226     6917    1        RETURN;
     1227     6918        /**/
PL6.E3A0      #003=KIP$CPMME File=KIP$PMME.:E05TSI                               WED 07/30/97 00:37 Page:198
     1228     6919        /**/
     1229     6920    1   BDSET: PROC;
     1230     6921        /**/
     1231     6922    3        IF KI$FEI.BDU# ~=0 THEN DO;
     1232     6923    3             B$JIT.ERR=NHLTD;
     1233     6924        /*E*  ERROR:         KIP-E$FEPRUN-A
     1234     6925               MESSAGE: That FEP is not halted!
     1235     6926              MESSAGE1: The FEP that you attempted to BOOT or DUMP is currently
     1236     6927                        booting or dumping.
     1237     6928              DESCRIPTION:   Either someone is trying to boot/dump a running FEP
     1238     6929                             or two people are trying to boot/dump the same one      */
     1239     6930    3             RETURN;
     1240     6931    3           END;
     1241     6932
     1242     6933    2        IF KI$FEI.FEST  ~= KIST_DN AND
     1243     6934    2             KI$FEI.FEST ~= KIST_STOPPING AND
     1244     6935    2             KI$FEI.FEST ~= KIST_MASKED
     1245     6936    2        THEN
     1246     6937    2             CALL KIQ$FEABT(FEI,KIER_BCMD);
     1247     6938    2        CALL HFF$DSIZ (2,TEMP);
     1248     6939    3        IF TEMP<SIZEC(VRSLTS) THEN DO;
     1249     6940    3   MISOPT:   ;
     1250     6941    3             B$JIT.ERR=NOOPT;
     1251     6942        /*    ERROR:         KIP-E$NILOPT-A
     1252     6943              DESCRIPTION:   Messages are in KIP$PMME.  In this case BUF or
     1253     6944                             RESULTS in M$FEBOOT or M$FEDUMP is too small            */
     1254     6945    3             RETURN;
     1255     6946    3           END;
     1256     6947    2        CALL HFF$DSIZ (1,TEMP);
     1257     6948    2        IF TEMP <8 THEN GOTO MISOPT;
     1258     6949    2        CALL MMS$WSQMAP (KI$FEI.PTPPNO#);
     1259     6950    2        CALL MMS$VGET (KI$FEI.FEWSQ ,B$PS1$,TEMP ,KI$FEI.BD$ ) ALTRET (BMAP);
     1260     6951    2        KI$FEI.BDSZ =TEMP/4;
     1261     6952    2        KI$FEI.BDU# =S_CUN;
     1262     6953    2        KI$FEI.BDARS =0;
     1263     6954    2        KI$FEI.PBST.PROB =KIER_OK;
     1264     6955    2        RETURN;
PL6.E3A0      #003=KIP$CPMME File=KIP$PMME.:E05TSI                               WED 07/30/97 00:37 Page:199
     1265     6956    2   BMAP: ;
     1266     6957    2        B$JIT.ERR=NMAP;
     1267     6958        /*E*  ERROR:         KIP-E$NFEMAP-A
     1268     6959               MESSAGE: BUF on M$FEBOOT or M$FEDUMP is too big to map!
     1269     6960              MESSAGE1: The BUF of an M$FEBOOT or M$FEDUMP must be mapped
     1270     6961                        into the FEPs WSQ.  This requires it be no greater
     1271     6962                        than 248K words -- yours is bigger.
     1272     6963              DESCRIPTION:   This is almost certainly a coding error in the
     1273     6964                             calling program or a memory management bug              */
     1274     6965    2        RETURN;
     1275     6966    2   END BDSET;
     1276     6967        /**/
     1277     6968    1   END KIP$CPMME;
     1278     6969        /**/
     1279     6970        %EOD;

PL6.E3A0      #003=KIP$CPMME File=KIP$PMME.:E05TSI                               WED 07/30/97 00:37 Page:200
--  Include file information  --

   UD_SEV_C.:E05TOU  is referenced.
   UD_ERRORS_C.:E05TOU  is referenced.
   KI_ERRORS_C.:E05TOU  is referenced.
   KL_AFCN_C.:E05TOU  is referenced.
   KL_MACRO_C.:E05TOU  is referenced.
   UD_EQU_E.:E05TOU  is referenced.
   KI_SUBS_C.:E05TOU  is referenced.
   NK_SUBS.:E05TOU  is referenced.
   SS_SCHED_C.:E05TOU  is referenced.
   JG_GHOSTS_C.:E05TOU  is referenced.
   NK_LDCT_R.:E05TOU  cannot be made into a system file and is referenced.
   KI_MACROS_C.:E05TOU  is referenced.
   KI_DATA_R.:E05TOU  cannot be made into a system file and is referenced.
   KI$CP6V_C.:E05TOU  is referenced.
   NK$LDCT.:E05TOU  is referenced.
   K$RWPARM.:E05TOU  is referenced.
   K_DATA_R.:E05TOU  cannot be made into a system file and is referenced.
   B$JIT_C.:E05TOU  was found in the system file and is referenced.
   CP_6_C.:E05TOU  was found in the system file and is never referenced.
      No diagnostics issued in procedure KIP$CPMME.

   Procedure KIP$CPMME requires 420 words for executable code.
   Procedure KIP$CPMME requires 20 words of local(AUTO) storage.

PL6.E3A0      #003=KIP$CPMME File=KIP$PMME.:E05TSI                               WED 07/30/97 00:37 Page:201

 Object Unit name= KIP$CPMME                                  File name= KIP$PMME.:E05TOU
 UTS= JUL 30 '97 00:37:50.32 WED                              Compiler= PL-6/E31         Sev=      00
 SharedLib= :SHARED_SYSTEM                                    Alt SharedLib=


    ****  Control sections  ****

 Sect   Type Bound  Init  Size OctSiz  Section name(segment info)
    0  RoData even  UTS     10     12  KIP$CPMME
    1   Proc  even  none   420    644  KIP$CPMME
    2  RoData even  none    12     14  KIP$CPMME

    ****  Entry defs  ****

                              Check   Calling
                             calling  sequence
  Sect OctLoc Primary Altret sequence   type   Parms  Name
     1      0   yes            yes      Std        1  KIP$CPMME
PL6.E3A0      #003=KIP$CPMME File=KIP$PMME.:E05TSI                               WED 07/30/97 00:37 Page:202

  ****  Entry refs  ****

         Check        Calling
        calling       sequence
Altret sequence SRef   type   Args  Name
 yes     yes           Std       3 KIN$CONV_NODENAME
         yes           Std       2 KIQ$FEBOOT
 yes     yes           Std       3 KIN$CONV_NODE
         yes           Std       2 KIQ$FEABT
         yes           Std       0 SSS$BLOCK
 yes     yes           Std       3 KUB$WRITE
         yes           Std       2 KIQ$FESTOP
         yes           Std       1 KIQ$DUMPGO
         yes           Std       1 KIQ$FESTRT
 yes     yes           Std       2 HFF$DSIZ
 yes     yes           Std       4 MMS$VGET
 yes     yes           Std       1 MMS$WSQMAP
                       nStd      0 X66_AUTO_1
                       Std       0 B_CONSPOOL_D
                       nStd      0 X66_ARET

  ****  Data refs  ****

  Flags:  r = read only, s = secondary
Flgs Name                             Flgs Name                             Flgs Name
     K_NODE#                               KI_FEI$$                              KI_ROUTE$$
     KI_MXFE                               N$DCT$$                               B$JIT$
     S_CUN                                 B$PS1$                                B$PS0$
     B$PS2$                                B_VECTNIL

  ****  Segment refs  ****

  Flags:  r = read only, s = secondary
Flgs Name                             Flgs Name                             Flgs Name
     ISSID
PL6.E3A0      #003=KIP$CPMME File=KIP$PMME.:E05TSI                               WED 07/30/97 00:37 Page:203


      970        1        /*T***********************************************************/
      971        2        /*T*                                                         */
      972        3        /*T* Copyright (c) Bull HN Information Systems Inc., 1997    */
      973        4        /*T*                                                         */
      974        5        /*T***********************************************************/
      975        6        /**/
      976        7        /**/
      977        8        KIP$CPMME: PROC (FPTCODE);

      8  1 000000   000000 700200 xent  KIP$CPMME    TSX0  ! X66_AUTO_1
         1 000001   000024 000001                    ZERO    20,1

      978        9        /**/
      979       10        /**/
      980       11        %INCLUDE K_DATA_R;
      981      722        %INCLUDE NK$LDCT;
      982      824 S      %INCLUDE B$JIT_C;
      983      825        %B$JIT0;
      984      914        %A$JIT6X;
      985      917        %INCLUDE KI$CP6V_C;
      986     1356        %INCLUDE KI_DATA_R;
      987     1382        %INCLUDE KI_MACROS_C;
      988     1990        %INCLUDE NK_LDCT_R;
      989     1999        %INCLUDE JG_GHOSTS_C;
      990     2089        %INCLUDE SS_SCHED_C;
      991     2322        %INCLUDE NK_SUBS;
      992     2347        %INCLUDE KI_SUBS_C;
      993     2483        %INCLUDE UD_EQU_E;
      994     2872        %INCLUDE KL_MACRO_C;
      995     6224        %INCLUDE KL_AFCN_C;
      996     6325        /**/
      997     6326        %KI$FEI (STCLASS="BASED(FEI$)");
      998     6410        %KI$ROUTE (STCLASS="BASED(ROUTE$)");
      999     6464    1   DCL KI$ROUTE$(0:0) PTR BASED(KI_ROUTE$$);
     1000     6465        %FPT$NODEINFO_V (BASED="BASED(B$PS0$)");
     1001     6468        %VLR$NODEINFO_V (FPTN=VLR$NODEINFO,BASED="BASED(B$PS1$)");
PL6.E3A0      #003=KIP$CPMME File=KIP$PMME.:E05TSI                               WED 07/30/97 00:37 Page:204
     1002     6473        %NK$LDCT;
     1003     6519        %FPT$FECTL_V (FPTN=FECTL);
     1004     6523        %KL_FEPST (STCLASS="");
     1005     6558        /**/
     1006     6559        /**/
     1007     6560    1   DCL FPTCODE UBIN WORD;
     1008     6561    1   DCL FEI UBIN WORD;
     1009     6562    1   DCL FEI$ PTR;
     1010     6563    1   DCL ROUTE$ PTR;
     1011     6564    1   DCL FEX UBIN;
     1012     6565    1   DCL TEMP UBIN WORD;
     1013     6566    1   DCL 1 TEMPE REDEF TEMP,
     1014     6567    1            2 PROB UBIN HALF UNAL,
     1015     6568    1            2 STATE UBIN HALF UNAL;
     1016     6569    1   DCL OCQ$ PTR;
     1017     6570    1   DCL 1 VRSLTS BASED DALIGNED,
     1018     6571    1            2 ERROR UBIN WORD,
     1019     6572    1            2 ARS UBIN WORD;
     1020     6573    1   DCL B$JIT$ PTR SYMREF;
     1021     6574    1   DCL S_CUN UBIN WORD SYMREF;
     1022     6575    1   DCL B$PS1$ PTR SYMREF;
     1023     6576    1   DCL B$PS0$ PTR SYMREF;
     1024     6577    1   DCL B$PS2$ PTR SYMREF;
     1025     6578    1   DCL MMS$WSQMAP ENTRY(1) ALTRET;
     1026     6579    1   DCL KUB$WRITE ENTRY(3) ALTRET;
     1027     6580    1   DCL KIN$CONV_NODE ENTRY(3) ALTRET;
     1028     6581    1   DCL KIN$CONV_NODENAME ENTRY(3) ALTRET;
     1029     6582    1   DCL KIQ$FEBOOT ENTRY(2);
     1030     6583    1   DCL KIQ$DUMPGO ENTRY(1);
     1031     6584    1   DCL KIQ$FEABT ENTRY(2);
     1032     6585    1   DCL KIQ$FESTOP ENTRY(2);
     1033     6586    1   DCL KIQ$FESTRT ENTRY(1);
     1034     6587    1   DCL HFF$DSIZ ENTRY(2) ALTRET;
     1035     6588    1   DCL SSS$BLOCK ENTRY;
     1036     6589    1   DCL SSR$REG ENTRY(3) ALTRET;
     1037     6590    1   DCL SSR$RUE ENTRY(4);
     1038     6591    1   DCL MMS$VGET ENTRY(4) ALTRET;
PL6.E3A0      #003=KIP$CPMME File=KIP$PMME.:E05TSI                               WED 07/30/97 00:37 Page:205
     1039     6592    1   DCL KIS$REMFEP ENTRY(3) ALTRET;
     1040     6593        /**/
     1041     6594        /**/
     1042     6595        %INCLUDE KI_ERRORS_C;
     1043     6680        %INCLUDE UD_ERRORS_C;
     1044     6722        %INCLUDE UD_SEV_C;
     1045     6736        /**/
     1046     6737    1   DCL 1 CURBT CONSTANT ALIGNED,
     1047     6738    1            2 FCG BIT(18) UNAL INIT('131120'O),
     1048     6739    1            2 ERR UBIN(15) UNAL INIT(%E$CURBOOT),
     1049     6740    1            2 SEV UBIN(3) UNAL INIT(SEV_ABORT#);
     1050     6741    1   DCL 1 NOOPT CONSTANT ALIGNED,
     1051     6742    1            2 FCG BIT(18) UNAL INIT('131120'O),
     1052     6743    1            2 ERR UBIN(15) UNAL INIT(%E$NILOPT),
     1053     6744    1            2 SEV UBIN(3) UNAL INIT(SEV_ABORT#);
     1054     6745    1   DCL 1 NMAP CONSTANT ALIGNED,
     1055     6746    1            2 FCG BIT(18) UNAL INIT('131120'O),
     1056     6747    1            2 ERR UBIN(15) UNAL INIT(%E$NFEMAP),
     1057     6748    1            2 SEV UBIN(3) UNAL INIT(SEV_ABORT#);
     1058     6749    1   DCL 1 BDFEI CONSTANT ALIGNED,
     1059     6750    1            2 FCG BIT(18) UNAL INIT('131120'O),
     1060     6751    1            2 ERR UBIN(15) UNAL INIT(%E$BADFEX),
     1061     6752    1            2 SEV UBIN(3) UNAL INIT(SEV_ABORT#);
     1062     6753    1   DCL 1 NHLTD CONSTANT ALIGNED,
     1063     6754    1            2 FCG BIT(18) UNAL INIT('131120'O),
     1064     6755    1            2 ERR UBIN(15) UNAL INIT(%E$FEPRUN),
     1065     6756    1            2 SEV UBIN(3) UNAL INIT(SEV_ABORT#);
     1066     6757    1   DCL 1 FEPDN CONSTANT ALIGNED,
     1067     6758    1            2 FCG BIT(18) UNAL INIT('131120'O),
     1068     6759    1            2 ERR UBIN(15) UNAL INIT(%E$FEPDN),
     1069     6760    1            2 SEV UBIN(3) UNAL INIT(SEV_ABORT#);
     1070     6761    1   DCL 1 FEPART CONSTANT ALIGNED,
     1071     6762    1            2 FCG BIT(18) UNAL INIT('131120'O),
     1072     6763    1            2 ERR UBIN(15) UNAL INIT(%E$FEPART),
     1073     6764    1            2 SEV UBIN(3) UNAL INIT(SEV_ABORT#);
     1074     6765    1   DCL 1 BADBD CONSTANT ALIGNED,
     1075     6766    1            2 FCG BIT(18) UNAL INIT('131120'O),
PL6.E3A0      #003=KIP$CPMME File=KIP$PMME.:E05TSI                               WED 07/30/97 00:37 Page:206
     1076     6767    1            2 ERR UBIN(15) UNAL INIT(%E$NBTDMP),
     1077     6768    1            2 SEV UBIN(3) UNAL INIT(SEV_ABORT#);
     1078     6769        /**/
     1079     6770
     1080     6771    1        IF FPTCODE = %C$NODEINFO#

   6771  1 000002   200003 470500                    LDP0    @FPTCODE,,AUTO
         1 000003   000000 235100                    LDA     0,,PR0
         1 000004   000031 115007                    CMPA    25,DL
         1 000005   000157 601000 1                  TNZ     s:6817

     1081     6772    2        THEN DO;

     1082     6773    2             IF FPT$NODEINFO_V.NODENAME~= ' '

   6773  1 000006   000000 471400 xsym               LDP1    B$PS0$
         1 000007   040000 106500                    CMPC    fill='040'O
         1 000010   100000 000010                    ADSC9   0,,PR1                   cn=0,n=8
         1 000011   000035 000001 xsym               ADSC9   B_VECTNIL+29             cn=0,n=1
         1 000012   000036 600000 1                  TZE     s:6783

     1083     6774    3             THEN DO;

     1084     6775    3                  CALL KIN$CONV_NODENAME (FPT$NODEINFO_V.NODENAME,FEX)

   6775  1 000013   200013 633500                    EPPR3   FEX,,AUTO
         1 000014   200021 453500                    STP3    TEMP+5,,AUTO
         1 000015   000000 236000 xsym               LDQ     B$PS0$
         1 000016   200020 756100                    STQ     TEMP+4,,AUTO
         1 000017   200020 630500                    EPPR0   TEMP+4,,AUTO
         1 000020   000020 631400 xsym               EPPR1   B_VECTNIL+16
         1 000021   000000 701000 xent               TSX1    KIN$CONV_NODENAME
         1 000022   000024 702000 1                  TSX2    s:6777
         1 000023   000030 710000 1                  TRA     s:6780

     1085     6776    4                  WHENALTRETURN DO;

PL6.E3A0      #003=KIP$CPMME File=KIP$PMME.:E05TSI                               WED 07/30/97 00:37 Page:207
     1086     6777    4                       B$JIT.ERR = BDFEI;

   6777  1 000024   000003 236000 0                  LDQ     BDFEI
         1 000025   000000 470400 xsym               LDP0    B$JIT$
         1 000026   000012 756100                    STQ     10,,PR0

     1087     6778    4                       RETURN;

   6778  1 000027   000000 702200 xent               TSX2  ! X66_ARET

     1088     6779    4                     END;
     1089     6780    3                  VLR$NODEINFO.NODENAME = FPT$NODEINFO_V.NODENAME;

   6780  1 000030   000000 470400 xsym               LDP0    B$PS0$
         1 000031   000000 471400 xsym               LDP1    B$PS1$
         1 000032   040100 100500                    MLR     fill='040'O
         1 000033   000000 000010                    ADSC9   0,,PR0                   cn=0,n=8
         1 000034   100000 000010                    ADSC9   0,,PR1                   cn=0,n=8

     1090     6781    3                END;

   6781  1 000035   000056 710000 1                  TRA     s:6790

     1091     6782    3             ELSE DO;

     1092     6783    3                  FEX = FPT$NODEINFO_V.NODENUM;

   6783  1 000036   000100 101500                    MRL     fill='000'O
         1 000037   100002 000001                    ADSC9   2,,PR1                   cn=0,n=1
         1 000040   200013 000004                    ADSC9   FEX,,AUTO                cn=0,n=4

     1093     6784    3                  CALL KIN$CONV_NODE(VLR$NODEINFO.NODENAME,FEX)

   6784  1 000041   200013 633500                    EPPR3   FEX,,AUTO
         1 000042   200021 453500                    STP3    TEMP+5,,AUTO
         1 000043   000000 236000 xsym               LDQ     B$PS1$
         1 000044   200020 756100                    STQ     TEMP+4,,AUTO
PL6.E3A0      #003=KIP$CPMME File=KIP$PMME.:E05TSI                               WED 07/30/97 00:37 Page:208
         1 000045   200020 630500                    EPPR0   TEMP+4,,AUTO
         1 000046   000020 631400 xsym               EPPR1   B_VECTNIL+16
         1 000047   000000 701000 xent               TSX1    KIN$CONV_NODE
         1 000050   000052 702000 1                  TSX2    s:6786
         1 000051   000056 710000 1                  TRA     s:6790

     1094     6785    4                  WHENALTRETURN DO;

     1095     6786    4                       B$JIT.ERR = BDFEI;

   6786  1 000052   000003 236000 0                  LDQ     BDFEI
         1 000053   000000 470400 xsym               LDP0    B$JIT$
         1 000054   000012 756100                    STQ     10,,PR0

     1096     6787    4                       RETURN;

   6787  1 000055   000000 702200 xent               TSX2  ! X66_ARET

     1097     6788    4                     END;
     1098     6789    3                END;

     1099     6790    2             VLR$NODEINFO.NODENUM = FEX;

   6790  1 000056   000000 470400 xsym               LDP0    B$PS1$
         1 000057   200013 236100                    LDQ     FEX,,AUTO
         1 000060   000033 736000                    QLS     27
         1 000061   000002 552140                    STBQ    2,'40'O,PR0

     1100     6791    2             ROUTE$ = KI$ROUTE$(FEX);

   6791  1 000062   000000 471400 xsym               LDP1    KI_ROUTE$$
         1 000063   200013 720100                    LXL0    FEX,,AUTO
         1 000064   100000 236110                    LDQ     0,X0,PR1
         1 000065   200012 756100                    STQ     ROUTE$,,AUTO

     1101     6792    2             VLR$NODEINFO.QOS = KI$ROUTE.CURRENT_QOS;

PL6.E3A0      #003=KIP$CPMME File=KIP$PMME.:E05TSI                               WED 07/30/97 00:37 Page:209
   6792  1 000066   200012 473500                    LDP3    ROUTE$,,AUTO
         1 000067   300002 236100                    LDQ     2,,PR3
         1 000070   000011 772000                    QRL     9
         1 000071   000002 552110                    STBQ    2,'10'O,PR0

     1102     6793    2             VLR$NODEINFO.ALTQOS = KI$ROUTE.ALT_QOS;

   6793  1 000072   300002 236100                    LDQ     2,,PR3
         1 000073   000011 772000                    QRL     9
         1 000074   000002 552104                    STBQ    2,'04'O,PR0

     1103     6794    2             IF VLR$NODEINFO.QOS = 255     /*  Not active                        */

   6794  1 000075   000002 236100                    LDQ     2,,PR0
         1 000076   777000 376007                    ANQ     -512,DL
         1 000077   377000 116007                    CMPQ    130560,DL
         1 000100   000112 601000 1                  TNZ     s:6801

     1104     6795    3             THEN DO;

     1105     6796    3                  VLR$NODEINFO.ACTIVE = '0'B;

   6796  1 000101   000000 236000 2                  LDQ     0
         1 000102   000002 356100                    ANSQ    2,,PR0

     1106     6797    3                  VLR$NODEINFO.LINKNODENAME = ' ';

   6797  1 000103   000035 235000 xsym               LDA     B_VECTNIL+29
         1 000104   000035 236000 xsym               LDQ     B_VECTNIL+29
         1 000105   000003 755100                    STA     3,,PR0
         1 000106   000004 756100                    STQ     4,,PR0

     1107     6798    3                  VLR$NODEINFO.LINKNODENUM = 0;

   6798  1 000107   000000 236003                    LDQ     0,DU
         1 000110   000005 552140                    STBQ    5,'40'O,PR0

PL6.E3A0      #003=KIP$CPMME File=KIP$PMME.:E05TSI                               WED 07/30/97 00:37 Page:210
     1108     6799    3                END;

   6799  1 000111   000131 710000 1                  TRA     s:6805

     1109     6800    3             ELSE DO;

     1110     6801    3                  VLR$NODEINFO.ACTIVE = '1'B;

   6801  1 000112   000200 236003                    LDQ     128,DU
         1 000113   000002 256100                    ORSQ    2,,PR0

     1111     6802    3                  VLR$NODEINFO.LINKNODENUM = KI$FEI$(KI$ROUTE.FEI#)->KI$FEI.FEP#;

   6802  1 000114   300002 236100                    LDQ     2,,PR3
         1 000115   000033 772000                    QRL     27
         1 000116   000000 474400 xsym               LDP4    KI_FEI$$
         1 000117   400000 475506                    LDP5    0,QL,PR4
         1 000120   500012 236100                    LDQ     10,,PR5
         1 000121   000022 736000                    QLS     18
         1 000122   000005 552140                    STBQ    5,'40'O,PR0

     1112     6803    3                  VLR$NODEINFO.LINKNODENAME = KI$ROUTE$(VLR$NODEINFO.LINKNODENUM)->
              6803                           KI$ROUTE.NODE_NAME;

   6803  1 000123   000005 236100                    LDQ     5,,PR0
         1 000124   000033 772000                    QRL     27
         1 000125   100000 475506                    LDP5    0,QL,PR1
         1 000126   040100 100500                    MLR     fill='040'O
         1 000127   500000 000010                    ADSC9   0,,PR5                   cn=0,n=8
         1 000130   000003 000010                    ADSC9   3,,PR0                   cn=0,n=8

     1113     6804    3                END;

     1114     6805    2             VLR$NODEINFO.HOST = KI$ROUTE.HOST;

   6805  1 000131   300002 236100                    LDQ     2,,PR3
         1 000132   000022 736000                    QLS     18
PL6.E3A0      #003=KIP$CPMME File=KIP$PMME.:E05TSI                               WED 07/30/97 00:37 Page:211
         1 000133   000002 676100                    ERQ     2,,PR0
         1 000134   000400 376003                    ANQ     256,DU
         1 000135   000002 656100                    ERSQ    2,,PR0

     1115     6806    2             VLR$NODEINFO.LINKCONNECTED = KI$ROUTE.LINK_CONNECTED;

   6806  1 000136   300002 236100                    LDQ     2,,PR3
         1 000137   000020 736000                    QLS     16
         1 000140   000002 676100                    ERQ     2,,PR0
         1 000141   000040 376003                    ANQ     32,DU
         1 000142   000002 656100                    ERSQ    2,,PR0

     1116     6807    2             IF VLR$NODEINFO.NODENUM = K_NODE# /* This node                    */

   6807  1 000143   000002 236100                    LDQ     2,,PR0
         1 000144   000033 772000                    QRL     27
         1 000145   000000 116000 xsym               CMPQ    K_NODE#
         1 000146   000154 601000 1                  TNZ     s:6813

     1117     6808    3             THEN DO;

     1118     6809    3                  VLR$NODEINFO.HOST = '1'B;

   6809  1 000147   000400 236003                    LDQ     256,DU
         1 000150   000002 256100                    ORSQ    2,,PR0

     1119     6810    3                  VLR$NODEINFO.CURRENTNODE = '1'B;

   6810  1 000151   000100 236003                    LDQ     64,DU
         1 000152   000002 256100                    ORSQ    2,,PR0

     1120     6811    3                END;

   6811  1 000153   000156 710000 1                  TRA     s:6814

     1121     6812    2             ELSE
     1122     6813    2                  VLR$NODEINFO.CURRENTNODE = '0'B;
PL6.E3A0      #003=KIP$CPMME File=KIP$PMME.:E05TSI                               WED 07/30/97 00:37 Page:212

   6813  1 000154   000001 236000 2                  LDQ     1
         1 000155   000002 356100                    ANSQ    2,,PR0

     1123     6814    2             RETURN;

   6814  1 000156   000000 702200 xent               TSX2  ! X66_ARET

     1124     6815    2           END;
     1125     6816        /**/
     1126     6817    2        DO FEI = 1 TO KI_MXFE;

   6817  1 000157   000001 236007                    LDQ     1,DL
         1 000160   200010 756100                    STQ     FEI,,AUTO
         1 000161   000200 710000 1                  TRA     s:6822+3

     1127     6818    2             FEI$ = KI$FEI$(FEI);

   6818  1 000162   000000 470400 xsym               LDP0    KI_FEI$$
         1 000163   200010 720100                    LXL0    FEI,,AUTO
         1 000164   000000 236110                    LDQ     0,X0,PR0
         1 000165   200011 756100                    STQ     FEI$,,AUTO

     1128     6819    2             IF KI$FEI.FEP# = B$PS0$->FECTL.FEP

   6819  1 000166   000000 471400 xsym               LDP1    B$PS0$
         1 000167   200011 473500                    LDP3    FEI$,,AUTO
         1 000170   300012 236100                    LDQ     10,,PR3
         1 000171   000011 772000                    QRL     9
         1 000172   000777 376007                    ANQ     511,DL
         1 000173   100001 116100                    CMPQ    1,,PR1
         1 000174   000207 600000 1                  TZE     GOT_FEP

     1129     6820    2             THEN
     1130     6821    2                  GOTO GOT_FEP;
     1131     6822    2           END;

PL6.E3A0      #003=KIP$CPMME File=KIP$PMME.:E05TSI                               WED 07/30/97 00:37 Page:213
   6822  1 000175   200010 235100                    LDA     FEI,,AUTO
         1 000176   000001 035007                    ADLA    1,DL
         1 000177   200010 755100                    STA     FEI,,AUTO
         1 000200   000000 236000 xsym               LDQ     KI_MXFE
         1 000201   200010 116100                    CMPQ    FEI,,AUTO
         1 000202   000162 603000 1                  TRC     s:6818

     1132     6823    1        B$JIT.ERR=BDFEI;

   6823  1 000203   000003 236000 0                  LDQ     BDFEI
         1 000204   000000 470400 xsym               LDP0    B$JIT$
         1 000205   000012 756100                    STQ     10,,PR0

     1133     6824        /*E*  ERROR:         KIP-E$BADFEX-A
     1134     6825               MESSAGE: No such FEP exists!
     1135     6826              MESSAGE1: FEP# in your FPT_FECTL is invalid.
     1136     6827              DESCRIPTION:   Self explanatory - if you can issue this pmme, you
     1137     6828                             probably should not make this mistake.  SLUG uses this
     1138     6829                             error to say THERE IS NO FEP n                          */
     1139     6830    1        RETURN;

   6830  1 000206   000000 702200 xent               TSX2  ! X66_ARET

   6823  1 000207                       GOT_FEP      null
     1140     6831    1   GOT_FEP:;
     1141     6832    2        IF KI$FEI.PBST.PROB =KIER_PART THEN DO;

   6832  1 000207   300015 221100                    LDX1    13,,PR3
         1 000210   000016 101003                    CMPX1   14,DU
         1 000211   000216 601000 1                  TNZ     s:6841

     1142     6833    2             B$JIT.ERR=FEPART;

   6833  1 000212   000006 236000 0                  LDQ     FEPART
         1 000213   000000 474400 xsym               LDP4    B$JIT$
         1 000214   400012 756100                    STQ     10,,PR4

PL6.E3A0      #003=KIP$CPMME File=KIP$PMME.:E05TSI                               WED 07/30/97 00:37 Page:214
     1143     6834        /*E*  ERROR:         KIP-E$FEPART-A
     1144     6835               MESSAGE: That FEP is partitioned!
     1145     6836              MESSAGE1: No control operations can be performed on that FEP
     1146     6837                        until it is RETURNed via SYSCON.
     1147     6838              DESCRIPTION:   This is to prevent keyins, etc. on partitioned FEPs     */
     1148     6839    2             RETURN;

   6839  1 000215   000000 702200 xent               TSX2  ! X66_ARET

     1149     6840    2           END;
     1150     6841    1        CALL SSS$BLOCK;

   6841  1 000216   000002 631400 xsym               EPPR1   B_VECTNIL+2
         1 000217   000000 701000 xent               TSX1    SSS$BLOCK
         1 000220   000000 011000                    NOP     0

     1151     6842    2        DO CASE (FPTCODE);

   6842  1 000221   200003 470500                    LDP0    @FPTCODE,,AUTO
         1 000222   000000 235100                    LDA     0,,PR0
         1 000223   000015 135007                    SBLA    13,DL
         1 000224   000003 115007                    CMPA    3,DL
         1 000225   000227 602005 1                  TNC     s:6842+6,AL
         1 000226   000465 710000 1                  TRA     s:6903
         1 000227   000433 710000 1                  TRA     s:6894
         1 000230   000406 710000 1                  TRA     s:6889
         1 000231   000232 710000 1                  TRA     s:6844

     1152     6843    2        CASE (%C$FECTL#);

     1153     6844    2           IF KI$FEI.BDU# ~=0 THEN B$JIT.ERR=CURBT;

   6844  1 000232   200011 471500                    LDP1    FEI$,,AUTO
         1 000233   100007 236100                    LDQ     7,,PR1
         1 000234   000777 316003                    CANQ    511,DU
         1 000235   000242 600000 1                  TZE     s:6849

PL6.E3A0      #003=KIP$CPMME File=KIP$PMME.:E05TSI                               WED 07/30/97 00:37 Page:215
   6844  1 000236   000000 236000 0                  LDQ     CURBT
         1 000237   000000 473400 xsym               LDP3    B$JIT$
         1 000240   300012 756100                    STQ     10,,PR3
         1 000241   000405 710000 1                  TRA     s:6887

     1154     6845        /*E*  ERROR:         KIP-E$CURBOOT-A
     1155     6846               MESSAGE: That FEP is already being rebooted!
     1156     6847              DESCRIPTION:   The FEP being halted on an M$FECTL is currently in
     1157     6848                             the boot or dump process                                */
     1158     6849    3           ELSE IF B$PS0$->FECTL.HALT THEN DO;

   6849  1 000242   000000 473400 xsym               LDP3    B$PS0$
         1 000243   300002 234100                    SZN     2,,PR3
         1 000244   000317 605000 1                  TPL     s:6862

     1159     6850    3                     IF KI$FEI.FEST ~= KIST_DN AND

   6850  1 000245   100002 236100                    LDQ     2,,PR1
         1 000246   000777 316003                    CANQ    511,DU
         1 000247   000267 600000 1                  TZE     s:6854
         1 000250   100002 236100                    LDQ     2,,PR1
         1 000251   000777 376003                    ANQ     511,DU
         1 000252   000007 116003                    CMPQ    7,DU
         1 000253   000267 600000 1                  TZE     s:6854
         1 000254   000010 116003                    CMPQ    8,DU
         1 000255   000267 600000 1                  TZE     s:6854

     1160     6851    3                          KI$FEI.FEST ~= KIST_MASKED AND
     1161     6852    3                          KI$FEI.FEST ~= KIST_STOPPING THEN
     1162     6853    3                          CALL KIQ$FEABT ( FEI , KIER_BCMD ) ;

   6853  1 000256   000002 236000 2                  LDQ     2
         1 000257   200021 756100                    STQ     TEMP+5,,AUTO
         1 000260   200010 634500                    EPPR4   FEI,,AUTO
         1 000261   200020 454500                    STP4    TEMP+4,,AUTO
         1 000262   200020 630500                    EPPR0   TEMP+4,,AUTO
         1 000263   000020 631400 xsym               EPPR1   B_VECTNIL+16
PL6.E3A0      #003=KIP$CPMME File=KIP$PMME.:E05TSI                               WED 07/30/97 00:37 Page:216
         1 000264   000000 701000 xent               TSX1    KIQ$FEABT
         1 000265   000000 011000                    NOP     0
         1 000266   000405 710000 1                  TRA     s:6887

     1163     6854    4                     ELSE IF B$JIT.SYSID=JG_SLUG# THEN DO;

   6854  1 000267   000000 474400 xsym               LDP4    B$JIT$
         1 000270   400000 720100                    LXL0    0,,PR4
         1 000271   000001 100003                    CMPX0   1,DU
         1 000272   000405 601000 1                  TNZ     s:6887

     1164     6855    4                               KL_FEPST.FEP = KI$FEI.FEP#;

   6855  1 000273   100012 236100                    LDQ     10,,PR1
         1 000274   000011 736000                    QLS     9
         1 000275   200004 552120                    STBQ    KL_FEPST,'20'O,AUTO

     1165     6856    4                               KL_FEPST.FCN = IGA_FEPST;

   6856  1 000276   040000 236003                    LDQ     16384,DU
         1 000277   200004 552140                    STBQ    KL_FEPST,'40'O,AUTO

     1166     6857    4                               KL_FEPST.PROB=KIER_BCMD;

   6857  1 000300   000013 220003                    LDX0    11,DU
         1 000301   200004 440100                    SXL0    KL_FEPST,,AUTO

     1167     6858    4                               KL_FEPST.STATE=KIST_DN;

   6858  1 000302   000000 221003                    LDX1    0,DU
         1 000303   200005 741100                    STX1    KL_FEPST+1,,AUTO

     1168     6859    4                               CALL KUB$WRITE (KL_FEPST,LENGTHC(KL_FEPST),'HLPADMIN');

   6859  1 000304   000004 236000 2                  LDQ     4
         1 000305   200022 756100                    STQ     TEMP+6,,AUTO
         1 000306   000005 236000 2                  LDQ     5
PL6.E3A0      #003=KIP$CPMME File=KIP$PMME.:E05TSI                               WED 07/30/97 00:37 Page:217
         1 000307   200021 756100                    STQ     TEMP+5,,AUTO
         1 000310   200004 635500                    EPPR5   KL_FEPST,,AUTO
         1 000311   200020 455500                    STP5    TEMP+4,,AUTO
         1 000312   200020 630500                    EPPR0   TEMP+4,,AUTO
         1 000313   000021 631400 xsym               EPPR1   B_VECTNIL+17
         1 000314   000000 701000 xent               TSX1    KUB$WRITE
         1 000315   000000 011000                    NOP     0

     1169     6860    4                             END;

     1170     6861    3                   END;

   6861  1 000316   000405 710000 1                  TRA     s:6887

     1171     6862    3                ELSE IF B$PS0$->FECTL.STOP THEN DO;

   6862  1 000317   300002 236100                    LDQ     2,,PR3
         1 000320   100000 316003                    CANQ    32768,DU
         1 000321   000355 600000 1                  TZE     s:6876

     1172     6863    3   STOPIT:
     1173     6864    3                          IF KI$FEI.FEST = KIST_MASKED OR

   6864  1 000322   100002 236100       STOPIT       LDQ     2,,PR1
         1 000323   000777 376003                    ANQ     511,DU
         1 000324   000007 116003                    CMPQ    7,DU
         1 000325   000340 600000 1                  TZE     s:6868
         1 000326   100002 236100                    LDQ     2,,PR1
         1 000327   000777 316003                    CANQ    511,DU
         1 000330   000334 601000 1                  TNZ     STOPIT+10
         1 000331   100015 220100                    LDX0    13,,PR1
         1 000332   000020 100003                    CMPX0   16,DU
         1 000333   000340 601000 1                  TNZ     s:6868
         1 000334   100002 236100                    LDQ     2,,PR1
         1 000335   000777 376003                    ANQ     511,DU
         1 000336   000010 116003                    CMPQ    8,DU
         1 000337   000344 601000 1                  TNZ     s:6874
PL6.E3A0      #003=KIP$CPMME File=KIP$PMME.:E05TSI                               WED 07/30/97 00:37 Page:218

     1174     6865    3                               ( KI$FEI.FEST = KIST_DN AND
     1175     6866    3                               KI$FEI.PBST.PROB ~= KIER_FREQ ) OR
     1176     6867    3                               KI$FEI.FEST = KIST_STOPPING THEN
     1177     6868    3                               B$JIT.ERR = FEPDN ;

   6868  1 000340   000005 236000 0                  LDQ     FEPDN
         1 000341   000000 474400 xsym               LDP4    B$JIT$
         1 000342   400012 756100                    STQ     10,,PR4
         1 000343   000405 710000 1                  TRA     s:6887

     1178     6869        /*E*  ERROR:         KIP-E$FEPDN-A
     1179     6870               MESSAGE: Do nt ot try to STOP a down FEP!
     1180     6871              MESSAGE1: The FEP you tried to STOP is not running.
     1181     6872              DESCRIPTION:   Either someone is trying to stop a stopped FEP or
     1182     6873                             two people are trying to stop the same one.             */
     1183     6874    3                          ELSE CALL KIQ$FESTOP (FEI,KIER_STOP);

   6874  1 000344   000007 236000 2                  LDQ     7
         1 000345   200021 756100                    STQ     TEMP+5,,AUTO
         1 000346   200010 634500                    EPPR4   FEI,,AUTO
         1 000347   200020 454500                    STP4    TEMP+4,,AUTO
         1 000350   200020 630500                    EPPR0   TEMP+4,,AUTO
         1 000351   000020 631400 xsym               EPPR1   B_VECTNIL+16
         1 000352   000000 701000 xent               TSX1    KIQ$FESTOP
         1 000353   000000 011000                    NOP     0

     1184     6875    3                        END;

   6875  1 000354   000405 710000 1                  TRA     s:6887

     1185     6876    3                     ELSE IF B$PS0$->FECTL.START THEN DO;

   6876  1 000355   040000 316003                    CANQ    16384,DU
         1 000356   000405 600000 1                  TZE     s:6887

     1186     6877    3                               IF KI$FEI.FEST ~= KIST_MASKED AND
PL6.E3A0      #003=KIP$CPMME File=KIP$PMME.:E05TSI                               WED 07/30/97 00:37 Page:219

   6877  1 000357   100002 236100                    LDQ     2,,PR1
         1 000360   000777 376003                    ANQ     511,DU
         1 000361   000007 116003                    CMPQ    7,DU
         1 000362   000377 600000 1                  TZE     s:6885
         1 000363   000010 116003                    CMPQ    8,DU
         1 000364   000377 600000 1                  TZE     s:6885
         1 000365   100002 236100                    LDQ     2,,PR1
         1 000366   000777 316003                    CANQ    511,DU
         1 000367   000373 601000 1                  TNZ     s:6881
         1 000370   100015 220100                    LDX0    13,,PR1
         1 000371   000020 100003                    CMPX0   16,DU
         1 000372   000377 601000 1                  TNZ     s:6885

     1187     6878    3                                    KI$FEI.FEST ~= KIST_STOPPING AND
     1188     6879    3                                    NOT ( KI$FEI.FEST = KIST_DN AND
     1189     6880    3                                    KI$FEI.PBST.PROB ~= KIER_FREQ ) THEN
     1190     6881    3                                    B$JIT.ERR = NHLTD ;

   6881  1 000373   000004 236000 0                  LDQ     NHLTD
         1 000374   000000 474400 xsym               LDP4    B$JIT$
         1 000375   400012 756100                    STQ     10,,PR4
         1 000376   000405 710000 1                  TRA     s:6887

     1191     6882        /*    ERROR:         KIP-E$FEPRUN-A
     1192     6883              MESSAGE: That FEP is running or booting.
     1193     6884              DESCRIPTION:   In this case a GO was issued on a running FEP           */
     1194     6885    3                               ELSE CALL KIQ$FESTRT (FEI);

   6885  1 000377   200010 634500                    EPPR4   FEI,,AUTO
         1 000400   200020 454500                    STP4    TEMP+4,,AUTO
         1 000401   200020 630500                    EPPR0   TEMP+4,,AUTO
         1 000402   000017 631400 xsym               EPPR1   B_VECTNIL+15
         1 000403   000000 701000 xent               TSX1    KIQ$FESTRT
         1 000404   000000 011000                    NOP     0

     1195     6886    3                             END;
PL6.E3A0      #003=KIP$CPMME File=KIP$PMME.:E05TSI                               WED 07/30/97 00:37 Page:220

     1196     6887    2           RETURN;

   6887  1 000405   000000 702200 xent               TSX2  ! X66_ARET

     1197     6888    2        CASE (%C$FEDUMP#);

     1198     6889    2           CALL BDSET;

   6889  1 000406   000507 701000 1                  TSX1    BDSET
         1 000407   000000 011000                    NOP     0

     1199     6890    2           IF KI$FEI.BDU# ~= S_CUN THEN RETURN;

   6890  1 000410   200011 470500                    LDP0    FEI$,,AUTO
         1 000411   000007 236100                    LDQ     7,,PR0
         1 000412   000022 772000                    QRL     18
         1 000413   000777 376007                    ANQ     511,DL
         1 000414   000000 116000 xsym               CMPQ    S_CUN
         1 000415   000417 600000 1                  TZE     s:6891

   6890  1 000416   000000 702200 xent               TSX2  ! X66_ARET

     1200     6891    2           KI$FEI.DSTAD =B$PS0$->FECTL.DMPSR.DADR; /* L6 byte address        */

   6891  1 000417   000000 471400 xsym               LDP1    B$PS0$
         1 000420   100000 236100                    LDQ     0,,PR1
         1 000421   000011 772000                    QRL     9
         1 000422   077777 376007                    ANQ     32767,DL
         1 000423   000016 756100                    STQ     14,,PR0

     1201     6892    2           CALL KIQ$DUMPGO (FEI);

   6892  1 000424   200010 633500                    EPPR3   FEI,,AUTO
         1 000425   200020 453500                    STP3    TEMP+4,,AUTO
         1 000426   200020 630500                    EPPR0   TEMP+4,,AUTO
         1 000427   000017 631400 xsym               EPPR1   B_VECTNIL+15
PL6.E3A0      #003=KIP$CPMME File=KIP$PMME.:E05TSI                               WED 07/30/97 00:37 Page:221
         1 000430   000000 701000 xent               TSX1    KIQ$DUMPGO
         1 000431   000000 011000                    NOP     0
         1 000432   000465 710000 1                  TRA     s:6903

     1202     6893    2        CASE (%C$FEBOOT#);

     1203     6894    2           CALL BDSET;

   6894  1 000433   000507 701000 1                  TSX1    BDSET
         1 000434   000000 011000                    NOP     0

     1204     6895    2           IF KI$FEI.BDU# ~= S_CUN THEN RETURN;

   6895  1 000435   200011 470500                    LDP0    FEI$,,AUTO
         1 000436   000007 236100                    LDQ     7,,PR0
         1 000437   000022 772000                    QRL     18
         1 000440   000777 376007                    ANQ     511,DL
         1 000441   000000 116000 xsym               CMPQ    S_CUN
         1 000442   000444 600000 1                  TZE     s:6896

   6895  1 000443   000000 702200 xent               TSX2  ! X66_ARET

     1205     6896    2           KI$FEI.DSTAD  = 0;

   6896  1 000444   000016 450100                    STZ     14,,PR0

     1206     6897    2           CALL KIQ$FEBOOT(FEI,B$PS0$->FECTL.MLCPDUMP);

   6897  1 000445   000000 236000 xsym               LDQ     B$PS0$
         1 000446   000010 036000 2                  ADLQ    8
         1 000447   200021 756100                    STQ     TEMP+5,,AUTO
         1 000450   200010 631500                    EPPR1   FEI,,AUTO
         1 000451   200020 451500                    STP1    TEMP+4,,AUTO
         1 000452   200020 630500                    EPPR0   TEMP+4,,AUTO
         1 000453   000020 631400 xsym               EPPR1   B_VECTNIL+16
         1 000454   000000 701000 xent               TSX1    KIQ$FEBOOT
         1 000455   000000 011000                    NOP     0
PL6.E3A0      #003=KIP$CPMME File=KIP$PMME.:E05TSI                               WED 07/30/97 00:37 Page:222

     1207     6898    2           KI$FEI.NOTIME = B$PS0$->FECTL.NOTIME;

   6898  1 000456   200011 470500                    LDP0    FEI$,,AUTO
         1 000457   000000 471400 xsym               LDP1    B$PS0$
         1 000460   100002 236100                    LDQ     2,,PR1
         1 000461   000003 736000                    QLS     3
         1 000462   000007 676100                    ERQ     7,,PR0
         1 000463   200000 376003                    ANQ     65536,DU
         1 000464   000007 656100                    ERSQ    7,,PR0

     1208     6899    2        END;

     1209     6900        /**/
     1210     6901        /* User will be REGged for some time here */
     1211     6902        /**/
     1212     6903    1        B$PS2$->VRSLTS.ARS=KI$FEI.BDARS ;

   6903  1 000465   200011 470500                    LDP0    FEI$,,AUTO
         1 000466   000011 236100                    LDQ     9,,PR0
         1 000467   000022 736000                    QLS     18
         1 000470   000022 732000                    QRS     18
         1 000471   000000 471400 xsym               LDP1    B$PS2$
         1 000472   100001 756100                    STQ     1,,PR1

     1213     6904    1        B$PS2$->VRSLTS.ERROR=KI$FEI.PBST.PROB ;

   6904  1 000473   000015 236100                    LDQ     13,,PR0
         1 000474   000022 772000                    QRL     18
         1 000475   100000 756100                    STQ     0,,PR1

     1214     6905    1        IF B$PS2$->VRSLTS.ERROR~=KIER_OK AND B$PS2$->VRSLTS.ERROR ~= KIER_FREQ

   6905  1 000476   000000 471400 xsym               LDP1    B$PS2$
         1 000477   100000 235100                    LDA     0,,PR1
         1 000500   000506 600000 1                  TZE     s:6917
         1 000501   000020 115007                    CMPA    16,DL
PL6.E3A0      #003=KIP$CPMME File=KIP$PMME.:E05TSI                               WED 07/30/97 00:37 Page:223
         1 000502   000506 600000 1                  TZE     s:6917

     1215     6906    1        THEN
     1216     6907    1             B$JIT.ERR = BADBD;

   6907  1 000503   000007 236000 0                  LDQ     BADBD
         1 000504   000000 473400 xsym               LDP3    B$JIT$
         1 000505   300012 756100                    STQ     10,,PR3

     1217     6908        /*E*  ERROR:         KIP-E$NBTDMP-A
     1218     6909               MESSAGE: M$FEDUMP or M$FEBOOT failed.
     1219     6910              MESSAGE1: Your M$FEBOOT or M$FEDUMP request did not run to
     1220     6911                        completion.  The reason for failure was returned in
     1221     6912                        RESULTS.ERR and the size of any partially complete
     1222     6913                        dump in RESULTS.ARS.
     1223     6914              DESCRIPTION:   Standard error to let the booter or dumper know
     1224     6915                             the process did not complete.  The real reason
     1225     6916                             why is in the FPT results area                          */
     1226     6917    1        RETURN;

   6917  1 000506   000000 702200 xent               TSX2  ! X66_ARET

     1227     6918        /**/
     1228     6919        /**/
     1229     6920    1   BDSET: PROC;

   6920  1 000507   200016 741300       BDSET        STX1  ! TEMP+2,,AUTO

     1230     6921        /**/
     1231     6922    3        IF KI$FEI.BDU# ~=0 THEN DO;

   6922  1 000510   200011 470500                    LDP0    FEI$,,AUTO
         1 000511   000007 236100                    LDQ     7,,PR0
         1 000512   000777 316003                    CANQ    511,DU
         1 000513   000521 600000 1                  TZE     s:6933

     1232     6923    3             B$JIT.ERR=NHLTD;
PL6.E3A0      #003=KIP$CPMME File=KIP$PMME.:E05TSI                               WED 07/30/97 00:37 Page:224

   6923  1 000514   000004 236000 0                  LDQ     NHLTD
         1 000515   000000 471400 xsym               LDP1    B$JIT$
         1 000516   100012 756100                    STQ     10,,PR1

     1233     6924        /*E*  ERROR:         KIP-E$FEPRUN-A
     1234     6925               MESSAGE: That FEP is not halted!
     1235     6926              MESSAGE1: The FEP that you attempted to BOOT or DUMP is currently
     1236     6927                        booting or dumping.
     1237     6928              DESCRIPTION:   Either someone is trying to boot/dump a running FEP
     1238     6929                             or two people are trying to boot/dump the same one      */
     1239     6930    3             RETURN;

   6930  1 000517   200016 221300                    LDX1  ! TEMP+2,,AUTO
         1 000520   000001 702211                    TSX2  ! 1,X1

     1240     6931    3           END;
     1241     6932
     1242     6933    2        IF KI$FEI.FEST  ~= KIST_DN AND

   6933  1 000521   000002 236100                    LDQ     2,,PR0
         1 000522   000777 316003                    CANQ    511,DU
         1 000523   000542 600000 1                  TZE     s:6938
         1 000524   000002 236100                    LDQ     2,,PR0
         1 000525   000777 376003                    ANQ     511,DU
         1 000526   000010 116003                    CMPQ    8,DU
         1 000527   000542 600000 1                  TZE     s:6938
         1 000530   000007 116003                    CMPQ    7,DU
         1 000531   000542 600000 1                  TZE     s:6938

     1243     6934    2             KI$FEI.FEST ~= KIST_STOPPING AND
     1244     6935    2             KI$FEI.FEST ~= KIST_MASKED
     1245     6936    2        THEN
     1246     6937    2             CALL KIQ$FEABT(FEI,KIER_BCMD);

   6937  1 000532   000002 236000 2                  LDQ     2
         1 000533   200021 756100                    STQ     TEMP+5,,AUTO
PL6.E3A0      #003=KIP$CPMME File=KIP$PMME.:E05TSI                               WED 07/30/97 00:37 Page:225
         1 000534   200010 631500                    EPPR1   FEI,,AUTO
         1 000535   200020 451500                    STP1    TEMP+4,,AUTO
         1 000536   200020 630500                    EPPR0   TEMP+4,,AUTO
         1 000537   000020 631400 xsym               EPPR1   B_VECTNIL+16
         1 000540   000000 701000 xent               TSX1    KIQ$FEABT
         1 000541   000000 011000                    NOP     0

     1247     6938    2        CALL HFF$DSIZ (2,TEMP);

   6938  1 000542   200014 630500                    EPPR0   TEMP,,AUTO
         1 000543   200021 450500                    STP0    TEMP+5,,AUTO
         1 000544   000011 236000 2                  LDQ     9
         1 000545   200020 756100                    STQ     TEMP+4,,AUTO
         1 000546   200020 630500                    EPPR0   TEMP+4,,AUTO
         1 000547   000020 631400 xsym               EPPR1   B_VECTNIL+16
         1 000550   000000 701000 xent               TSX1    HFF$DSIZ
         1 000551   000000 011000                    NOP     0

     1248     6939    3        IF TEMP<SIZEC(VRSLTS) THEN DO;

   6939  1 000552   200014 235100                    LDA     TEMP,,AUTO
         1 000553   000010 115007                    CMPA    8,DL
         1 000554   000562 603000 1                  TRC     s:6947

   6937  1 000555                       MISOPT       null
     1249     6940    3   MISOPT:   ;
     1250     6941    3             B$JIT.ERR=NOOPT;

   6941  1 000555   000001 236000 0                  LDQ     NOOPT
         1 000556   000000 470400 xsym               LDP0    B$JIT$
         1 000557   000012 756100                    STQ     10,,PR0

     1251     6942        /*    ERROR:         KIP-E$NILOPT-A
     1252     6943              DESCRIPTION:   Messages are in KIP$PMME.  In this case BUF or
     1253     6944                             RESULTS in M$FEBOOT or M$FEDUMP is too small            */
     1254     6945    3             RETURN;

PL6.E3A0      #003=KIP$CPMME File=KIP$PMME.:E05TSI                               WED 07/30/97 00:37 Page:226
   6945  1 000560   200016 221300                    LDX1  ! TEMP+2,,AUTO
         1 000561   000001 702211                    TSX2  ! 1,X1

     1255     6946    3           END;
     1256     6947    2        CALL HFF$DSIZ (1,TEMP);

   6947  1 000562   200014 630500                    EPPR0   TEMP,,AUTO
         1 000563   200021 450500                    STP0    TEMP+5,,AUTO
         1 000564   000012 236000 2                  LDQ     10
         1 000565   200020 756100                    STQ     TEMP+4,,AUTO
         1 000566   200020 630500                    EPPR0   TEMP+4,,AUTO
         1 000567   000020 631400 xsym               EPPR1   B_VECTNIL+16
         1 000570   000000 701000 xent               TSX1    HFF$DSIZ
         1 000571   000000 011000                    NOP     0

     1257     6948    2        IF TEMP <8 THEN GOTO MISOPT;

   6948  1 000572   200014 235100                    LDA     TEMP,,AUTO
         1 000573   000010 115007                    CMPA    8,DL
         1 000574   000555 602000 1                  TNC     MISOPT

     1258     6949    2        CALL MMS$WSQMAP (KI$FEI.PTPPNO#);

   6949  1 000575   200011 236100                    LDQ     FEI$,,AUTO
         1 000576   000014 036003                    ADLQ    12,DU
         1 000577   200020 756100                    STQ     TEMP+4,,AUTO
         1 000600   200020 630500                    EPPR0   TEMP+4,,AUTO
         1 000601   000017 631400 xsym               EPPR1   B_VECTNIL+15
         1 000602   000000 701000 xent               TSX1    MMS$WSQMAP
         1 000603   000000 011000                    NOP     0

     1259     6950    2        CALL MMS$VGET (KI$FEI.FEWSQ ,B$PS1$,TEMP ,KI$FEI.BD$ ) ALTRET (BMAP);

   6950  1 000604   200011 236100                    LDQ     FEI$,,AUTO
         1 000605   000010 036003                    ADLQ    8,DU
         1 000606   200023 756100                    STQ     TEMP+7,,AUTO
         1 000607   200014 630500                    EPPR0   TEMP,,AUTO
PL6.E3A0      #003=KIP$CPMME File=KIP$PMME.:E05TSI                               WED 07/30/97 00:37 Page:227
         1 000610   200022 450500                    STP0    TEMP+6,,AUTO
         1 000611   000013 236000 2                  LDQ     11
         1 000612   200021 756100                    STQ     TEMP+5,,AUTO
         1 000613   200011 236100                    LDQ     FEI$,,AUTO
         1 000614   000005 036003                    ADLQ    5,DU
         1 000615   200020 756100                    STQ     TEMP+4,,AUTO
         1 000616   200020 630500                    EPPR0   TEMP+4,,AUTO
         1 000617   000022 631400 xsym               EPPR1   B_VECTNIL+18
         1 000620   000000 701000 xent               TSX1    MMS$VGET
         1 000621   000637 702000 1                  TSX2    BMAP

     1260     6951    2        KI$FEI.BDSZ =TEMP/4;

   6951  1 000622   200014 236100                    LDQ     TEMP,,AUTO
         1 000623   000002 772000                    QRL     2
         1 000624   000000 620006                    EAX0    0,QL
         1 000625   200011 470500                    LDP0    FEI$,,AUTO
         1 000626   000011 740100                    STX0    9,,PR0

     1261     6952    2        KI$FEI.BDU# =S_CUN;

   6952  1 000627   000000 236000 xsym               LDQ     S_CUN
         1 000630   000022 736000                    QLS     18
         1 000631   000007 552120                    STBQ    7,'20'O,PR0

     1262     6953    2        KI$FEI.BDARS =0;

   6953  1 000632   000000 221003                    LDX1    0,DU
         1 000633   000011 441100                    SXL1    9,,PR0

     1263     6954    2        KI$FEI.PBST.PROB =KIER_OK;

   6954  1 000634   000015 741100                    STX1    13,,PR0

     1264     6955    2        RETURN;

   6955  1 000635   200016 221300                    LDX1  ! TEMP+2,,AUTO
PL6.E3A0      #003=KIP$CPMME File=KIP$PMME.:E05TSI                               WED 07/30/97 00:37 Page:228
         1 000636   000001 702211                    TSX2  ! 1,X1

   6954  1 000637                       BMAP         null
     1265     6956    2   BMAP: ;
     1266     6957    2        B$JIT.ERR=NMAP;

   6957  1 000637   000002 236000 0                  LDQ     NMAP
         1 000640   000000 470400 xsym               LDP0    B$JIT$
         1 000641   000012 756100                    STQ     10,,PR0

     1267     6958        /*E*  ERROR:         KIP-E$NFEMAP-A
     1268     6959               MESSAGE: BUF on M$FEBOOT or M$FEDUMP is too big to map!
     1269     6960              MESSAGE1: The BUF of an M$FEBOOT or M$FEDUMP must be mapped
     1270     6961                        into the FEPs WSQ.  This requires it be no greater
     1271     6962                        than 248K words -- yours is bigger.
     1272     6963              DESCRIPTION:   This is almost certainly a coding error in the
     1273     6964                             calling program or a memory management bug              */
     1274     6965    2        RETURN;

   6965  1 000642   200016 221300                    LDX1  ! TEMP+2,,AUTO
         1 000643   000001 702211                    TSX2  ! 1,X1

CURBT
 Sect OctLoc
   0     000   131120 020416                                                    YP..

NOOPT
 Sect OctLoc
   0     001   131120 020356                                                    YP..

NMAP
 Sect OctLoc
   0     002   131120 020466                                                    YP..

BDFEI
 Sect OctLoc
   0     003   131120 020426                                                    YP..
PL6.E3A0      #003=KIP$CPMME File=KIP$PMME.:E05TSI                               WED 07/30/97 00:37 Page:229

NHLTD
 Sect OctLoc
   0     004   131120 020456                                                    YP..

FEPDN
 Sect OctLoc
   0     005   131120 020506                                                    YP..

FEPART
 Sect OctLoc
   0     006   131120 020516                                                    YP..

BADBD
 Sect OctLoc
   0     007   131120 020476                                                    YP..

(unnamed)
 Sect OctLoc
   0     010   110114 120101   104115 111116                                    HLPADMIN

(unnamed)
 Sect OctLoc
   2     000   777577 777777   777677 777777   000015 006000   000000 000016    ................
   2     004   000010 006000   000003 006000   000000 000015   000006 006000    ................
   2     010   000002 010000   000004 006000   000003 006000   000000 006000    ................
     1275     6966    2   END BDSET;
     1276     6967        /**/
     1277     6968    1   END KIP$CPMME;
     1278     6969        /**/
     1279     6970        %EOD;

PL6.E3A0      #003=KIP$CPMME File=KIP$PMME.:E05TSI                               WED 07/30/97 00:37 Page:230
--  Include file information  --

   UD_SEV_C.:E05TOU  is referenced.
   UD_ERRORS_C.:E05TOU  is referenced.
   KI_ERRORS_C.:E05TOU  is referenced.
   KL_AFCN_C.:E05TOU  is referenced.
   KL_MACRO_C.:E05TOU  is referenced.
   UD_EQU_E.:E05TOU  is referenced.
   KI_SUBS_C.:E05TOU  is referenced.
   NK_SUBS.:E05TOU  is referenced.
   SS_SCHED_C.:E05TOU  is referenced.
   JG_GHOSTS_C.:E05TOU  is referenced.
   NK_LDCT_R.:E05TOU  cannot be made into a system file and is referenced.
   KI_MACROS_C.:E05TOU  is referenced.
   KI_DATA_R.:E05TOU  cannot be made into a system file and is referenced.
   KI$CP6V_C.:E05TOU  is referenced.
   NK$LDCT.:E05TOU  is referenced.
   K$RWPARM.:E05TOU  is referenced.
   K_DATA_R.:E05TOU  cannot be made into a system file and is referenced.
   B$JIT_C.:E05TOU  was found in the system file and is referenced.
   CP_6_C.:E05TOU  was found in the system file and is never referenced.
      No diagnostics issued in procedure KIP$CPMME.
PL6.E3A0      #003=KIP$CPMME File=KIP$PMME.:E05TSI                               WED 07/30/97 00:37 Page:231

 **** Variables and constants ****

  ****  Section 000 RoData KIP$CPMME

  ****  Scalars and arrays  ****
OctLoc.c.b A Datatyp(siz) R M Lvl/name                 OctLoc.c.b A Datatyp(siz) R M Lvl/name

     7-0-0/w STRC        r     1 BADBD                      3-0-0/w STRC        r     1 BDFEI
     0-0-0/w STRC        r     1 CURBT                      6-0-0/w STRC        r     1 FEPART
     5-0-0/w STRC        r     1 FEPDN                      4-0-0/w STRC        r     1 NHLTD
     2-0-0/w STRC        r     1 NMAP                       1-0-0/w STRC        r     1 NOOPT

  ****  Auto variables  ****

  ****  Scalars and arrays  ****
OctLoc.c.b A Datatyp(siz) R M Lvl/name                 OctLoc.c.b A Datatyp(siz) R M Lvl/name

     3-0-0/w PTR         r     1 @FPTCODE                  10-0-0/w UBIN        r     1 FEI
    11-0-0/w PTR         r     1 FEI$                      13-0-0/w UBIN        r     1 FEX
    *0-0-0/w UBIN        r     1 FPTCODE                    4-0-0/w STRC(126)   r     1 KL_FEPST
    12-0-0/w PTR         r     1 ROUTE$                    14-0-0/w UBIN        r     1 TEMP

  ****  SYMREF variables  ****

  ****  Scalars and arrays  ****
OctLoc.c.b A Datatyp(siz) R M Lvl/name                 OctLoc.c.b A Datatyp(siz) R M Lvl/name

     0-0-0/w PTR         r     1 B$JIT$                     0-0-0/w PTR         r     1 B$PS0$
     0-0-0/w PTR         r     1 B$PS1$                     0-0-0/w PTR         r     1 B$PS2$
     0-0-0/w PTR         r     1 KI_FEI$$                   0-0-0/w UBIN        r     1 KI_MXFE
     0-0-0/w PTR         r     1 KI_ROUTE$$                 0-0-0/w UBIN        r     1 K_NODE#
     0-0-0/w PTR         r     1 N$DCT$$                    0-0-0/w UBIN        r     1 S_CUN

  ****  BASED and DCB variables  ****

  ****  Scalars and arrays  ****
OctLoc.c.b A Datatyp(siz) R M Lvl/name                 OctLoc.c.b A Datatyp(siz) R M Lvl/name
PL6.E3A0      #003=KIP$CPMME File=KIP$PMME.:E05TSI                               WED 07/30/97 00:37 Page:232

     0-0-0/d STRC(2088)  r     1 B$JIT                      0-0-0/d STRC(108)   r     1 FECTL
     0-0-0/c STRC(144)   r     1 FPT$NODEINFO_V             0-0-0/w STRC(612)   r     1 KI$FEI
     0-0-0/w PTR         r     1 KI$FEI$(0:0)
     0-0-0/w STRC(216)   r     1 KI$ROUTE
     0-0-0/w PTR         r     1 KI$ROUTE$(0:0)
     0-0-0/d STRC(216)   r     1 VLR$NODEINFO               0-0-0/d STRC(72)    r     1 VRSLTS


   Procedure KIP$CPMME requires 420 words for executable code.
   Procedure KIP$CPMME requires 20 words of local(AUTO) storage.
PL6.E3A0      #003=KIP$CPMME File=KIP$PMME.:E05TSI                               WED 07/30/97 00:37 Page:233
          *** CROSS REFERENCE LISTING ***
**     DENOTES     IDENTIFIER DEFINITION
<<                 IDENTIFIER'S VALUE SET
>>                 IDENTIFIER'S VALUE USED
<>                 IDENTIFIER SET AND/OR USED
--                 IDENTIFIER REFERENCED
PL6.E3A0      #003=KIP$CPMME File=KIP$PMME.:E05TSI                               WED 07/30/97 00:37 Page:234
          MINI XREF LISTING

B$JIT.ERR
       831**DCL      6777<<ASSIGN   6786<<ASSIGN   6823<<ASSIGN   6833<<ASSIGN   6844<<ASSIGN   6868<<ASSIGN
      6881<<ASSIGN   6907<<ASSIGN   6923<<ASSIGN   6941<<ASSIGN   6957<<ASSIGN
B$JIT.ERR.MID
       832**DCL       832--REDEF
B$JIT.SYSID
       831**DCL      6854>>IF
B$JIT$
      6573**DCL       826--IMP-PTR  6777>>ASSIGN   6786>>ASSIGN   6823>>ASSIGN   6833>>ASSIGN   6844>>ASSIGN
      6854>>IF       6868>>ASSIGN   6881>>ASSIGN   6907>>ASSIGN   6923>>ASSIGN   6941>>ASSIGN   6957>>ASSIGN
B$PS0$
      6576**DCL      6466--IMP-PTR  6773>>IF       6775>>CALL     6780>>ASSIGN   6783>>ASSIGN   6819>>IF
      6849>>IF       6862>>IF       6876>>IF       6891>>ASSIGN   6897>>CALL     6898>>ASSIGN
B$PS1$
      6575**DCL      6469--IMP-PTR  6780>>ASSIGN   6784>>CALL     6790>>ASSIGN   6792>>ASSIGN   6793>>ASSIGN
      6794>>IF       6796>>ASSIGN   6797>>ASSIGN   6798>>ASSIGN   6801>>ASSIGN   6802>>ASSIGN   6803>>ASSIGN
      6803>>ASSIGN   6805>>ASSIGN   6806>>ASSIGN   6807>>IF       6809>>ASSIGN   6810>>ASSIGN   6813>>ASSIGN
      6950<>CALL
B$PS2$
      6577**DCL      6903>>ASSIGN   6904>>ASSIGN   6905>>IF       6905>>IF
BADBD
      6765**DCL      6907>>ASSIGN
BDFEI
      6749**DCL      6777>>ASSIGN   6786>>ASSIGN   6823>>ASSIGN
BDSET
      6920**PROC     6889--CALL     6894--CALL
BMAP IN PROCEDURE BDSET
      6954**LABEL    6950--CALLALT
CURBT
      6737**DCL      6844>>ASSIGN
FECTL.DMPSR.DADR
      6520**DCL      6891>>ASSIGN
PL6.E3A0      #003=KIP$CPMME File=KIP$PMME.:E05TSI                               WED 07/30/97 00:37 Page:235
FECTL.DMPSTART
      6520**DCL      6520--REDEF
FECTL.FEP
      6520**DCL      6819>>IF
FECTL.HALT
      6520**DCL      6849>>IF
FECTL.MLCPDUMP
      6521**DCL      6897<>CALL
FECTL.NOTIME
      6521**DCL      6898>>ASSIGN
FECTL.START
      6521**DCL      6876>>IF
FECTL.STOP
      6521**DCL      6862>>IF
FEI
      6561**DCL      6817<<DOINDEX  6818>>ASSIGN   6853<>CALL     6874<>CALL     6885<>CALL     6892<>CALL
      6897<>CALL     6937<>CALL
FEI$
      6562**DCL      6339--IMP-PTR  6818<<ASSIGN   6819>>IF       6832>>IF       6844>>IF       6850>>IF
      6850>>IF       6850>>IF       6855>>ASSIGN   6864>>IF       6864>>IF       6864>>IF       6864>>IF
      6877>>IF       6877>>IF       6877>>IF       6877>>IF       6890>>IF       6891>>ASSIGN   6895>>IF
      6896>>ASSIGN   6898>>ASSIGN   6903>>ASSIGN   6904>>ASSIGN   6922>>IF       6933>>IF       6933>>IF
      6933>>IF       6949>>CALL     6950>>CALL     6950>>CALL     6951>>ASSIGN   6952>>ASSIGN   6953>>ASSIGN
      6954>>ASSIGN
FEPART
      6761**DCL      6833>>ASSIGN
FEPDN
      6757**DCL      6868>>ASSIGN
FEX
      6564**DCL      6775<>CALL     6783<<ASSIGN   6784<>CALL     6790>>ASSIGN   6791>>ASSIGN
FPT$NODEINFO_V.NODENAME
      6466**DCL      6773>>IF       6775<>CALL     6780>>ASSIGN
FPT$NODEINFO_V.NODENUM
      6466**DCL      6783>>ASSIGN
FPTCODE
      6560**DCL         8--PROC     6771>>IF       6842>>DOCASE
PL6.E3A0      #003=KIP$CPMME File=KIP$PMME.:E05TSI                               WED 07/30/97 00:37 Page:236
GOT_FEP
      6823**LABEL    6821--GOTO
HFF$DSIZ
      6587**DCL-ENT  6938--CALL     6947--CALL
KI$FEI.BD$
      6374**DCL      6375--REDEF    6950<>CALL
KI$FEI.BDAD.WADDR
      6376**DCL      6377--REDEF
KI$FEI.BDARS
      6382**DCL      6903>>ASSIGN   6953<<ASSIGN
KI$FEI.BDSZ
      6381**DCL      6951<<ASSIGN
KI$FEI.BDU#
      6372**DCL      6844>>IF       6890>>IF       6895>>IF       6922>>IF       6952<<ASSIGN
KI$FEI.DSTAD
      6402**DCL      6891<<ASSIGN   6896<<ASSIGN
KI$FEI.FEP#
      6384**DCL      6802>>ASSIGN   6819>>IF       6855>>ASSIGN
KI$FEI.FEST
      6344**DCL      6850>>IF       6850>>IF       6850>>IF       6864>>IF       6864>>IF       6864>>IF
      6877>>IF       6877>>IF       6877>>IF       6933>>IF       6933>>IF       6933>>IF
KI$FEI.FEWSQ
      6367**DCL      6950<>CALL
KI$FEI.NOTIME
      6370**DCL      6898<<ASSIGN
KI$FEI.PBST.PROB
      6392**DCL      6832>>IF       6864>>IF       6877>>IF       6904>>ASSIGN   6954<<ASSIGN
KI$FEI.PTPPNO#
      6389**DCL      6949<>CALL
KI$FEI.RCVPB
      6390**DCL      6391--REDEF
KI$FEI$
      1368**DCL      6802>>ASSIGN   6818>>ASSIGN
KI$ROUTE.ALT_QOS
      6428**DCL      6793>>ASSIGN
KI$ROUTE.CURRENT_QOS
PL6.E3A0      #003=KIP$CPMME File=KIP$PMME.:E05TSI                               WED 07/30/97 00:37 Page:237
      6427**DCL      6792>>ASSIGN
KI$ROUTE.FEI#
      6422**DCL      6802>>ASSIGN
KI$ROUTE.HOST
      6429**DCL      6805>>ASSIGN
KI$ROUTE.LINK_CONNECTED
      6433**DCL      6806>>ASSIGN
KI$ROUTE.NODE_NAME
      6412**DCL      6803>>ASSIGN
KI$ROUTE$
      6464**DCL      6791>>ASSIGN   6803>>ASSIGN
KIN$CONV_NODE
      6580**DCL-ENT  6784--CALL
KIN$CONV_NODENAME
      6581**DCL-ENT  6775--CALL
KIQ$DUMPGO
      6583**DCL-ENT  6892--CALL
KIQ$FEABT
      6584**DCL-ENT  6853--CALL     6937--CALL
KIQ$FEBOOT
      6582**DCL-ENT  6897--CALL
KIQ$FESTOP
      6585**DCL-ENT  6874--CALL
KIQ$FESTRT
      6586**DCL-ENT  6885--CALL
KI_FEI$$
      1367**DCL      1368--IMP-PTR  6802>>ASSIGN   6818>>ASSIGN
KI_MXFE
      1376**DCL      6817>>DOINDEX
KI_ROUTE$$
      1369**DCL      6464--IMP-PTR  6791>>ASSIGN   6803>>ASSIGN
KL_FEPST
      6536**DCL      6859<>CALL     6859--CALL
KL_FEPST.FCN
      6537**DCL      6856<<ASSIGN
KL_FEPST.FEP
PL6.E3A0      #003=KIP$CPMME File=KIP$PMME.:E05TSI                               WED 07/30/97 00:37 Page:238
      6539**DCL      6855<<ASSIGN
KL_FEPST.PROB
      6550**DCL      6857<<ASSIGN
KL_FEPST.STATE
      6551**DCL      6858<<ASSIGN
KUB$WRITE
      6579**DCL-ENT  6859--CALL
K_NODE#
       721**DCL      6807>>IF
K_RWPARM_CON.BLKREC
       452**DCL       477--REDEF
K_RWPARM_CON.BLKREC.BLKU#
       453**DCL       455--REDEF
K_RWPARM_CON.BLKREC.RECU#
       465**DCL       467--REDEF
K_RWPARM_CON.DVE.DVBYTE.VFC
       492**DCL       493--REDEF
K_RWPARM_CON.DVE.EOMCHAR
       500**DCL       504--REDEF
K_RWPARM_CON.ERR
       564**DCL       569--REDEF
K_RWPARM_CON.FC
       528**DCL       529--REDEF
K_RWPARM_CON.FLDID
       710**DCL       711--REDEF
K_RWPARM_CON.FPT$
       591**DCL       598--REDEF
K_RWPARM_CON.KEYTYPE
       717**DCL       718--REDEF
K_RWPARM_CON.MSG$
       427**DCL       433--REDEF
K_RWPARM_CON.MSGID
       539**DCL       544--REDEF
K_RWPARM_CON.MSGIDXT
       552**DCL       556--REDEF
K_RWPARM_CON.ORG
PL6.E3A0      #003=KIP$CPMME File=KIP$PMME.:E05TSI                               WED 07/30/97 00:37 Page:239
       688**DCL       689--REDEF
K_RWPARM_CON.THDRSZ
       632**DCL       636--REDEF
K_RWPARM_CON.VDOFLGS
       690**DCL       701--REDEF
MISOPT IN PROCEDURE BDSET
      6937**LABEL    6948--GOTO
MMS$VGET
      6591**DCL-ENT  6950--CALL
MMS$WSQMAP
      6578**DCL-ENT  6949--CALL
N$DCT$$
      1997**DCL      1997--IMP-PTR
NHLTD
      6753**DCL      6881>>ASSIGN   6923>>ASSIGN
NK$LDCT.DDT$
      6488**DCL      6488--REDEF
NK$LDCT.IOQ$
      6487**DCL      6488--REDEF
NK$LDCT.LDCTX
      6489**DCL      6489--REDEF
NK$LDCT.LKFLG.ABORTED
      6501**DCL      6502--REDEF
NK$LDCT.RLCID.LDCTX
      6511**DCL      6511--REDEF
NK$LDCT.STA$
      6507**DCL      6508--REDEF
NK$LDCT.SYMB$
      6486**DCL      6486--REDEF    6486--REDEF    6487--REDEF
NMAP
      6745**DCL      6957>>ASSIGN
NOOPT
      6741**DCL      6941>>ASSIGN
ROUTE$
      6563**DCL      6411--IMP-PTR  6791<<ASSIGN   6792>>ASSIGN   6793>>ASSIGN   6802>>ASSIGN   6805>>ASSIGN
      6806>>ASSIGN
PL6.E3A0      #003=KIP$CPMME File=KIP$PMME.:E05TSI                               WED 07/30/97 00:37 Page:240
SSS$BLOCK
      6588**DCL-ENT  6841--CALL
S_CUN
      6574**DCL      6890>>IF       6895>>IF       6952>>ASSIGN
TEMP
      6565**DCL      6566--REDEF    6938<>CALL     6939>>IF       6947<>CALL     6948>>IF       6950<>CALL
      6951>>ASSIGN
VLR$NODEINFO.ACTIVE
      6469**DCL      6796<<ASSIGN   6801<<ASSIGN
VLR$NODEINFO.ALTQOS
      6470**DCL      6793<<ASSIGN
VLR$NODEINFO.CURRENTNODE
      6469**DCL      6810<<ASSIGN   6813<<ASSIGN
VLR$NODEINFO.HOST
      6469**DCL      6805<<ASSIGN   6809<<ASSIGN
VLR$NODEINFO.LINKCONNECTED
      6469**DCL      6806<<ASSIGN
VLR$NODEINFO.LINKNODENAME
      6470**DCL      6797<<ASSIGN   6803<<ASSIGN
VLR$NODEINFO.LINKNODENUM
      6470**DCL      6798<<ASSIGN   6802<<ASSIGN   6803>>ASSIGN
VLR$NODEINFO.NODENAME
      6469**DCL      6780<<ASSIGN   6784<>CALL
VLR$NODEINFO.NODENUM
      6469**DCL      6790<<ASSIGN   6807>>IF
VLR$NODEINFO.QOS
      6470**DCL      6792<<ASSIGN   6794>>IF
VRSLTS
      6570**DCL      6939--IF
VRSLTS.ARS
      6572**DCL      6903<<ASSIGN
VRSLTS.ERROR
      6571**DCL      6904<<ASSIGN   6905>>IF       6905>>IF

PL6.E3A0      #004=KIP$KEYIN File=KIP$PMME.:E05TSI                               WED 07/30/97 00:38 Page:241
     1280        1        /*T***********************************************************/
     1281        2        /*T*                                                         */
     1282        3        /*T* Copyright (c) Bull HN Information Systems Inc., 1997    */
     1283        4        /*T*                                                         */
     1284        5        /*T***********************************************************/
     1285        6        /**/
     1286        7        /**/
     1287        8        KIP$KEYIN: PROC (KMSG,SIZE,FEP) ALTRET;
     1288        9        /**/
     1289       10        /**/
     1290       11        %INCLUDE B$USER;
     1291      227        %B$USERREFS;
     1292      231        %INCLUDE NK$LDCT;
     1293      333        %INCLUDE KC$CGBLK;
     1294      381 S      %INCLUDE B$JIT_C;
     1295      382        %B$JIT0;
     1296      471        %A$JIT6X;
     1297      474        %INCLUDE NK_LDCT_R;
     1298      483        %INCLUDE KI_DATA_R;
     1299      509        %INCLUDE KL_SUPER_C;
     1300     3411        %INCLUDE KC_DATA_R;
     1301     3424        %INCLUDE KI_MACROS_C;
     1302     4032        %INCLUDE KV$VDO;
     1303     5047        %KV_VDO_ALL_E;
     1304     5126        %INCLUDE KI_SUBS_C;
     1305     5262        %INCLUDE OC_SUBS_C;
     1306     5993        %INCLUDE NK_SUBS;
     1307     6018        %INCLUDE HF_LOCK_C;
     1308     6032        /**/
     1309     6033        %INCLUDE NK_VFC_C;
     1310     6107        %INCLUDE K_DATA_R;
     1311     6818        %INCLUDE JG_GHOSTS_C;
     1312     6908        %NK$LDCT;
     1313     6954        %KC$CGID (FPTN=KC_CSID,STCLASS=SYMREF);
     1314     6980        /**/
     1315     6981        %SUB COD_NTTS=1;
     1316     6982        %SUB COD_NSND=2;
PL6.E3A0      #004=KIP$KEYIN File=KIP$PMME.:E05TSI                               WED 07/30/97 00:38 Page:242
     1317     6983        %SUB COD_DNTSND=3;
     1318     6984        /**/
     1319     6985        /**/
     1320     6986        %K$RWPARM (STCLASS=SYMREF,NAME=S_RWPARM);
     1321     7302    1   DCL SIZE UBIN;
     1322     7303    1   DCL FEP UBIN;
     1323     7304    1   DCL 1 KMSG ALIGNED,
     1324     7305    1            2 KIN# UBIN(18) UNAL,
     1325     7306    1            2 CADDR BIT(18) UNAL,
     1326     7307    1            2 WSN CHAR(8),
     1327     7308    1            2 TERM REDEF WSN CHAR(8),
     1328     7309    1            2 SYSID UBIN(18) UNAL,
     1329     7310    1            2 ERR UBIN(9) UNAL,
     1330     7311    1            2 CNT UBIN BYTE UNAL,
     1331     7312    1            2 MSG CHAR(124) UNAL;
     1332     7313    1   DCL 1 KMSGD REDEF KMSG ALIGNED,
     1333     7314    1            2 KIN# UBIN(18) UNAL,
     1334     7315    1            2 CADDR BIT(18) UNAL,
     1335     7316    1            2 DINFO,
     1336     7317    1                 3 FEP UBIN WORD,
     1337     7318    1                 3 STATE UBIN(9) UNAL,
     1338     7319    1                 3 BDU UBIN(9) UNAL,
     1339     7320    1                 3 PROB UBIN(9) UNAL,
     1340     7321    1                 3 NAME CHAR(8) UNAL,
     1341     7322    1                 3 * CHAR(1) UNAL,
     1342     7323    1            2 * CHAR(120) UNAL;
     1343     7324    1   DCL 1 KMSGR REDEF KMSG ALIGNED,
     1344     7325    1            2 KIN# UBIN(18) UNAL,
     1345     7326    1            2 CADDR BIT(18) UNAL,
     1346     7327    1            2 DINFO,
     1347     7328    1                 3 FEP UBIN WORD,
     1348     7329    1                 3 NAME CHAR(8) UNAL,
     1349     7330    1                 3 LINKFEP UBIN BYTE UNAL,
     1350     7331    1                 3 LINKNAME CHAR(8) UNAL,
     1351     7332    1                 3 QOS UBIN BYTE UNAL,
     1352     7333    1                 3 ALT UBIN BYTE UNAL,
     1353     7334    1                 3 * CHAR(1) UNAL,
PL6.E3A0      #004=KIP$KEYIN File=KIP$PMME.:E05TSI                               WED 07/30/97 00:38 Page:243
     1354     7335    1            2 * CHAR(112) UNAL;
     1355     7336    1   DCL LDCT$ PTR;
     1356     7337    1   DCL OP$ PTR;
     1357     7338    1   DCL MSIZ UBIN WORD;
     1358     7339    1   DCL UNUM REDEF MSIZ UBIN WORD;
     1359     7340    1   DCL FEI UBIN WORD;
     1360     7341    1   DCL LDX REDEF FEI UBIN WORD;
     1361     7342    1   DCL FEI$ PTR;
     1362     7343    1   DCL MSGBUF CHAR(200);
     1363     7344    1   DCL VCHR CHAR(MSIZ) BASED;
     1364     7345    1   DCL 1 GHNM ALIGNED,
     1365     7346    1            2 GHST CHAR(4),
     1366     7347    1            2 SYSID UBIN(18) UNAL,
     1367     7348    1            2 CADDR BIT(18);
     1368     7349    1   DCL 1 CGNM CONSTANT ALIGNED,
     1369     7350    1            2 GHST CHAR(4) INIT('GHST'),
     1370     7351    1            2 SYSID UBIN(18) UNAL INIT(0),
     1371     7352    1            2 CADDR BIT(18) INIT('0'B);
     1372     7353    1   DCL 1 VGHNM BASED ALIGNED,
     1373     7354    1            2 GHST CHAR(4),
     1374     7355    1            2 SYSID UBIN(18) UNAL,
     1375     7356    1            2 CADDR BIT(18);
     1376     7357        %KI$FEI (STCLASS="BASED(FEI$)");
     1377     7441        %KI$ROUTE (STCLASS="BASED(ROUTE$)");
     1378     7495    1   DCL KI$ROUTE$(0:0) PTR BASED(KI_ROUTE$$);
     1379     7496    1   DCL ROUTE$ PTR;
     1380     7497    1   DCL I SBIN;
     1381     7498    1   DCL LNGS (0:1) UBIN BYTE UNAL CONSTANT INIT(2,1);
     1382     7499    1   DCL DLNGS (0:4) UBIN BYTE UNAL CONSTANT INIT(4,1,1,1,8);
     1383     7500    1   DCL RTELNGS (0:5) UBIN BYTE UNAL CONSTANT INIT(4,8,1,8,1,1);
     1384     7501    1   DCL B$JIT$ PTR SYMREF;
     1385     7502    1   DCL KCO$FINDSTA ENTRY(4) ALTRET;
     1386     7503    1   DCL OCZ$SID_UN ENTRY(4) ALTRET;
     1387     7504    1   DCL KIA$FCNO ENTRY(3) ALTRET;
     1388     7505    1   DCL OCI$MK_WR ENTRY(7);
     1389     7506    1   DCL KIA$FCNOU ENTRY(3) ALTRET;
     1390     7507    1   DCL KIN$CONV_NODENAME ENTRY(3) ALTRET;
PL6.E3A0      #004=KIP$KEYIN File=KIP$PMME.:E05TSI                               WED 07/30/97 00:38 Page:244
     1391     7508    1   DCL SIZ UBIN;
     1392     7509    1   DCL S_CUN UBIN SYMREF;
     1393     7510        /**/
     1394     7511        /**/
     1395     7512    2        DO CASE (KMSG.KIN#);
     1396     7513    2        CASE (KEY_SEND#);
     1397     7514    2           CALL OCZ$SID_UN (KMSG.SYSID,UNUM,KMSG.CADDR,KMSG.WSN) ALTRET (RET);
     1398     7515    3           IF B$USRT$->B$USER.MODE(UNUM)=%M_INT# THEN DO;
     1399     7516    4                IF B$USRT$->B$USER.FLG(UNUM)&%U_NSND THEN DO;
     1400     7517    4                     KMSG.ERR=COD_DNTSND;
     1401     7518    4                     GOTO ERROUT;
     1402     7519    4                   END;
     1403     7520    4                DO LDX=NK_MXLOCAL+1 TO NK_MXTOTAL;
     1404     7521    4                     LDCT$=NK$LDCT$(LDX);
     1405     7522    4                     IF LDCT$~=ADDR(NIL) THEN IF LDCT$->LDCT.RESCOD=NK_TSTRM AND
     1406     7523    4                               LDCT$->LDCT.USER=UNUM AND
     1407     7524    4                               LDCT$->LDCT.LKFLG.ACTIVE AND LDCT$->LDCT.DFLG.OLDSC='0'B
     1408     7525    4                          THEN GOTO GOTLDCT;
     1409     7526    4                   END;
     1410     7527    3                GHNM=CGNM;
     1411     7528    3                GHNM.SYSID=KMSG.SYSID;
     1412     7529    3                MSIZ=6;
     1413     7530    3                CALL KCO$FINDSTA (LDCT$,KC_CSID,GHNM,MSIZ) ALTRET (NTTS);
     1414     7531    3                CALL OCI$MK_WR (ADDR(LDCT$->LDCT.DEVNM)->VGHNM.CADDR,GSND_MSG#,1,KMSG.
              7531                         CNT,KMSG.MSG);
     1415     7532    3                RETURN;
     1416     7533    3   NTTS:        ;
     1417     7534    3              END;
     1418     7535    2           KMSG.ERR=COD_NTTS;
     1419     7536    2           GOTO ERROUT;
     1420     7537    2   GOTLDCT: ;
     1421     7538    2           MSIZ=KMSG.CNT;
     1422     7539                %LOCK (G = LDCT$->LDCT.LOCK );
     1423     7542    2           S_RWPARM = K_RWPARM_CON;
     1424     7543    2           IF (S_CUN = JG_KEYIN#)
     1425     7544    3           THEN DO;
     1426     7545    3                SIZ = LENGTHC('Operator:');
PL6.E3A0      #004=KIP$KEYIN File=KIP$PMME.:E05TSI                               WED 07/30/97 00:38 Page:245
     1427     7546    3                CALL CONCAT(MSGBUF,'Operator:',SUBSTR(KMSG.MSG,0,MSIZ));
     1428     7547    3              END;
     1429     7548    3           ELSE DO;
     1430     7549    3                SIZ = 0;
     1431     7550    3                MSGBUF = SUBSTR(KMSG.MSG,0,MSIZ);
     1432     7551    3              END;
     1433     7552    2           S_RWPARM.MSG$ = ADDR(MSGBUF);
     1434     7553    2           S_RWPARM.MSGSZ = MSIZ + SIZ;
     1435     7554    2           S_RWPARM.DVE.DVBYTE.VFC = '1'B;
     1436     7555    2           S_RWPARM.DVE.VFC = %VFC_TRANSITION1;
     1437     7556    3           CALL KIA$FCNO(LDCT$->LDCT,%KV_VDO_FNC_DAT_IMD,S_RWPARM) WHENALTRETURN DO;
     1438     7557                     %UNLOCK (G = LDCT$->LDCT.LOCK);
     1439     7560    3                GOTO NOSND;
     1440     7561    3              END;
     1441     7562                %UNLOCK (G = LDCT$->LDCT.LOCK );
     1442     7565
     1443     7566    2        CASE (KEY_LINKS#);
     1444     7567    2           IF KMSGR.DINFO.NAME ~= ' '
     1445     7568    2           THEN
     1446     7569    2                CALL KIN$CONV_NODENAME(KMSGR.DINFO.NAME,FEI) ALTRET(NFEP);
     1447     7570    2           FEI=KMSGD.DINFO.FEP;
     1448     7571    2           IF FEI~= 0
     1449     7572    3           THEN DO;
     1450     7573    4                DO FEI = 1 TO KI_MXFE;
     1451     7574    4                     FEI$ = KI$FEI$(FEI);
     1452     7575    4                     IF KMSGD.DINFO.FEP = KI$FEI.FEP#
     1453     7576    5                     THEN DO;
     1454     7577    5                          CALL DFEP ALTRET(NFEP);
     1455     7578    5                          GOTO FOUND_FEP;
     1456     7579    5                        END;
     1457     7580    4                   END;
     1458     7581    3   NFEP:        ;
     1459     7582    3                CALL OCI$MK_WR (KMSG.CADDR,NOFE_MSG#,1,DLNGS,KMSGD.DINFO.FEP);
     1460     7583    3   FOUND_FEP:   ;
     1461     7584    3              END;
     1462     7585    3           ELSE DO FEI=1 TO KI_MXFE;
     1463     7586    3                CALL DFEP;
PL6.E3A0      #004=KIP$KEYIN File=KIP$PMME.:E05TSI                               WED 07/30/97 00:38 Page:246
     1464     7587    3              END;
     1465     7588
     1466     7589    2        CASE (KEY_ROUTES#);
     1467     7590
     1468     7591    2           IF KMSGD.DINFO.FEP = 0 AND KMSGR.DINFO.NAME = ' '
     1469     7592    2           THEN
     1470     7593    3           DO FEI = 0 TO KI_NODES;
     1471     7594    3                IF FEI ~= K_NODE#
     1472     7595    3                THEN
     1473     7596    3                     CALL DROUTE;
     1474     7597    3              END;
     1475     7598    3           ELSE DO;
     1476     7599    3                IF KMSGR.DINFO.NAME ~= ' '
     1477     7600    3                THEN
     1478     7601    3                     CALL KIN$CONV_NODENAME(KMSGR.DINFO.NAME,FEI) ALTRET (NFEP);
     1479     7602    3                ELSE
     1480     7603    3                     FEI = KMSGR.DINFO.FEP;
     1481     7604    3                IF FEI > KI_NODES THEN GOTO NFEP;
     1482     7605    3                CALL DROUTE;
     1483     7606    3              END;
     1484     7607
     1485     7608        /*N*
     1486     7609                  CASE (KEY_DISCT#);
     1487     7610                    DO INHIBIT;
     1488     7611                      LDCT$=KC_NOCG$;
     1489     7612                      DO WHILE (LDCT$~=ADDR(NIL));
     1490     7613           IF LDCT$->LDCT.DEVNM=KMSG.TERM AND LDCT$->LDCT.RESCOD=NK_TRMPTH THEN GOTO GOTTRM;
     1491     7614                        LDCT$=LDCT$->LDCT.LNK$;
     1492     7615                        END;
     1493     7616                      END;
     1494     7617                    GOTO NOTRM;
     1495     7618        GOTTRM:     ;
     1496     7619                    CALL KIA$FCNOU (LDCT$->LDCT,KX_DREQ) ALTRET (NOTRM);
     1497     7620                    RETURN;
     1498     7621        NOTRM:      ;
     1499     7622                    CALL OCI$MK_WR (KMSG.CADDR,NTRM_MSG#,1,'010'O,KMSG.TERM);
     1500     7623         */
PL6.E3A0      #004=KIP$KEYIN File=KIP$PMME.:E05TSI                               WED 07/30/97 00:38 Page:247
     1501     7624    2        CASE (ELSE);
     1502     7625    2           ALTRETURN;
     1503     7626    2   NOSND:  ;
     1504     7627    2           KMSG.ERR=COD_NSND;
     1505     7628    2   ERROUT: ;
     1506     7629    2           CALL OCI$MK_WR (KMSG.CADDR,ESND_MSG#,2,LNGS,KMSG.SYSID);
     1507     7630    2        END;
     1508     7631    1   RET: ;
     1509     7632    1        RETURN;
     1510     7633        /**/
     1511     7634        /**/
     1512     7635        %EJECT;
PL6.E3A0      #004=KIP$KEYIN File=KIP$PMME.:E05TSI                               WED 07/30/97 00:38 Page:248
     1513     7636    1   KIP$SENDALL: ENTRY(KMSG,SIZE,FEP) ALTRET;
     1514     7637
     1515     7638    1        MSIZ = SIZE;
     1516     7639    1        CALL CONCAT(MSGBUF,'Broadcast:',ADDR(KMSG)->VCHR);
     1517     7640    2        DO LDX=NK_MXLOCAL+1 TO NK_MXTOTAL;
     1518     7641    2             LDCT$=NK$LDCT$(LDX);
     1519     7642    2             IF LDCT$ ~= ADDR(NIL)
     1520     7643    2             THEN
     1521     7644    2                  IF LDCT$->LDCT.RESCOD = NK_TSTRM AND
     1522     7645    2                       NOT LDCT$->LDCT.DFLG.OLDSC
     1523     7646    2                       AND (LDCT$->LDCT.TERMID.TTYP = %KLTY_TTY# OR LDCT$->LDCT.TERMID.
              7646                                TTYP = %KLTY_LINEDEV#)
     1524     7647    2                       AND LDCT$->LDCT.DFLG.OUTPUT
     1525     7648    2                       AND LDCT$->LDCT.RLCID.NODE ~= K_NODE#
     1526     7649    2                       AND NOT LDCT$->LDCT.DFLG.NOSND
     1527     7650    2                       AND (ADDR(FEP)= ADDR(NIL) OR LDCT$->NK$LDCT.RLCID.NODE = FEP)
     1528     7651    3                  THEN DO;
     1529     7652                            %LOCK (G = LDCT$->LDCT.LOCK );
     1530     7655    3                       S_RWPARM = K_RWPARM_CON;
     1531     7656    3                       S_RWPARM.MSG$ = ADDR(MSGBUF);
     1532     7657    3                       S_RWPARM.MSGSZ = SIZE + LENGTHC('Broadcast:');
     1533     7658    3                       S_RWPARM.DVE.DVBYTE.VFC = '1'B;
     1534     7659    3                       S_RWPARM.DVE.VFC = %VFC_TRANSITION1;
     1535     7660    3                       CALL KIA$FCNO(LDCT$->LDCT,%KV_VDO_FNC_DAT_IMD,S_RWPARM);
     1536     7661                            %UNLOCK (G = LDCT$->LDCT.LOCK );
     1537     7664    3                     END;
     1538     7665
     1539     7666    2           END;
     1540     7667
     1541     7668    1        RETURN;
     1542     7669
     1543     7670        %EJECT;
PL6.E3A0      #004=KIP$KEYIN File=KIP$PMME.:E05TSI                               WED 07/30/97 00:38 Page:249
     1544     7671    1   DFEP: PROC ALTRET;
     1545     7672        /**/
     1546     7673    2        FEI$ = KI$FEI$(FEI);
     1547     7674    2        IF KI$FEI.PBST.PROB = KIER_PART THEN
     1548     7675    2             KMSGD.DINFO.STATE = KIST_DN ;
     1549     7676    2        ELSE
     1550     7677    2             KMSGD.DINFO.STATE = KI$FEI.FEST ;
     1551     7678    2        KMSGD.DINFO.FEP=KI$FEI.FEP#;
     1552     7679    2        KMSGD.DINFO.BDU=KI$FEI.BDU# ;
     1553     7680    2        KMSGD.DINFO.PROB=KI$FEI.PBST.PROB ;
     1554     7681    2        KMSGD.DINFO.NAME = KI$ROUTE$(KI$FEI.FEP#)->KI$ROUTE.NODE_NAME;
     1555     7682    2        IF KMSGD.DINFO.NAME ~= ' '
     1556     7683    2        THEN
     1557     7684    2             CALL OCI$MK_WR (KMSG.CADDR,DFEP_MSG#,5,DLNGS,KMSGD.DINFO);
     1558     7685    2        RETURN;
     1559     7686    2   END;
     1560     7687    1   DROUTE: PROC;
     1561     7688
     1562     7689    2        ROUTE$ = KI$ROUTE$(FEI);
     1563     7690    2        KMSGR.DINFO.FEP = FEI;
     1564     7691    2        KMSGR.DINFO.NAME = KI$ROUTE.NODE_NAME;
     1565     7692    2        IF KI$ROUTE.FEI# ~= 0
     1566     7693    3        THEN DO;
     1567     7694    3             KMSGR.DINFO.LINKFEP = KI$FEI$(KI$ROUTE.FEI#)->KI$FEI.FEP#;
     1568     7695    3             KMSGR.DINFO.LINKNAME = KI$ROUTE$(KI$FEI$(KI$ROUTE.FEI#)->KI$FEI.FEP#)->
              7695                      KI$ROUTE.NODE_NAME;
     1569     7696    3           END;
     1570     7697    3        ELSE DO;
     1571     7698    3             KMSGR.DINFO.LINKFEP = 0;
     1572     7699    3             KMSGR.DINFO.LINKNAME = ' ';
     1573     7700    3           END;
     1574     7701    2        KMSGR.DINFO.QOS = KI$ROUTE.CURRENT_QOS;
     1575     7702    2        KMSGR.DINFO.ALT = KI$ROUTE.ALT_QOS;
     1576     7703    2        IF KI$ROUTE.NODE_NAME ~= ' '
     1577     7704    2        THEN
     1578     7705    2             CALL OCI$MK_WR(KMSG.CADDR,OC_MSG_RTE#,6,RTELNGS,KMSGR.DINFO);
     1579     7706
PL6.E3A0      #004=KIP$KEYIN File=KIP$PMME.:E05TSI                               WED 07/30/97 00:38 Page:250
     1580     7707    2        ELSE
     1581     7708    2             CALL OCI$MK_WR (KMSG.CADDR,NOFE_MSG#,1,DLNGS,KMSGD.DINFO.FEP);
     1582     7709    2        RETURN;
     1583     7710
     1584     7711    2   END DROUTE;
     1585     7712        /**/
     1586     7713    1   END KIP$KEYIN;
     1587     7714        /**/
     1588     7715        /**/

PL6.E3A0      #004=KIP$KEYIN File=KIP$PMME.:E05TSI                               WED 07/30/97 00:38 Page:251
--  Include file information  --

   JG_GHOSTS_C.:E05TOU  is referenced.
   K$RWPARM.:E05TOU  is referenced.
   K_DATA_R.:E05TOU  cannot be made into a system file and is referenced.
   NK_VFC_C.:E05TOU  is referenced.
   HF_LOCK_C.:E05TOU  cannot be made into a system file and is referenced.
   NK_SUBS.:E05TOU  is referenced.
   OC_SUBS_C.:E05TOU  is referenced.
   KI_SUBS_C.:E05TOU  is referenced.
   KV$VDO.:E05TOU  is referenced.
   KI_MACROS_C.:E05TOU  is referenced.
   KC_DATA_R.:E05TOU  cannot be made into a system file and is referenced.
   KL_SUPER_C.:E05TOU  is referenced.
   KI_DATA_R.:E05TOU  cannot be made into a system file and is referenced.
   NK_LDCT_R.:E05TOU  cannot be made into a system file and is referenced.
   KC$CGBLK.:E05TOU  is referenced.
   NK$LDCT.:E05TOU  is referenced.
   B$USER.:E05TOU  cannot be made into a system file and is referenced.
   B$JIT_C.:E05TOU  was found in the system file and is referenced.
   CP_6_C.:E05TOU  was found in the system file and is never referenced.
      No diagnostics issued in procedure KIP$KEYIN.

   Procedure KIP$KEYIN requires 541 words for executable code.
   Procedure KIP$KEYIN requires 74 words of local(AUTO) storage.

    No errors detected in file KIP$PMME.:E05TSI    .

PL6.E3A0      #004=KIP$KEYIN File=KIP$PMME.:E05TSI                               WED 07/30/97 00:38 Page:252

 Object Unit name= KIP$KEYIN                                  File name= KIP$PMME.:E05TOU
 UTS= JUL 30 '97 00:38:36.20 WED                              Compiler= PL-6/E31         Sev=      00
 SharedLib= :SHARED_SYSTEM                                    Alt SharedLib=


    ****  Control sections  ****

 Sect   Type Bound  Init  Size OctSiz  Section name(segment info)
    0  RoData even  UTS     13     15  KIP$KEYIN
    1   Proc  even  none   541   1035  KIP$KEYIN
    2  RoData even  none    24     30  KIP$KEYIN

    ****  Entry defs  ****

                              Check   Calling
                             calling  sequence
  Sect OctLoc Primary Altret sequence   type   Parms  Name
     1      0   yes    yes     yes      Std        3  KIP$KEYIN
     1    470          yes     yes      Std        3  KIP$SENDALL

  ****  Entry refs  ****

         Check        Calling
        calling       sequence
Altret sequence SRef   type   Args  Name
 yes     yes           Std       4 OCZ$SID_UN
         yes           Std       7 OCI$MK_WR
         yes           Std       1 HFC$UNLOCK
 yes     yes           Std       3 KIN$CONV_NODENAME
 yes     yes           Std       4 KCO$FINDSTA
         yes           Std       1 HFC$LOCK
 yes     yes           Std       3 KIA$FCNO
                       Std       0 B_CONSPOOL_D
                       nStd      0 X66_AUTO_3
                       nStd      0 X66_ARET
                       nStd      0 X66_AALT
PL6.E3A0      #004=KIP$KEYIN File=KIP$PMME.:E05TSI                               WED 07/30/97 00:38 Page:253

  ****  Data refs  ****

  Flags:  r = read only, s = secondary
Flgs Name                             Flgs Name                             Flgs Name
     B$USRT$                               N$DCT$$                               NK_MXLOCAL
     NK_MXTOTAL                            KI_FEI$$                              KI_ROUTE$$
     KI_NODES                              KI_MXFE                          r    K_RWPARM_CON
     K_NODE#                               KC_CSID                               S_RWPARM
     B$JIT$                                S_CUN                                 B_VECTNIL

  ****  Segment refs  ****

  Flags:  r = read only, s = secondary
Flgs Name                             Flgs Name                             Flgs Name
     ISSID
PL6.E3A0      #004=KIP$KEYIN File=KIP$PMME.:E05TSI                               WED 07/30/97 00:38 Page:254


     1280        1        /*T***********************************************************/
     1281        2        /*T*                                                         */
     1282        3        /*T* Copyright (c) Bull HN Information Systems Inc., 1997    */
     1283        4        /*T*                                                         */
     1284        5        /*T***********************************************************/
     1285        6        /**/
     1286        7        /**/
     1287        8        KIP$KEYIN: PROC (KMSG,SIZE,FEP) ALTRET;

      8  1 000000   000000 700200 xent  KIP$KEYIN    TSX0  ! X66_AUTO_3
         1 000001   000112 000003                    ZERO    74,3

     1288        9        /**/
     1289       10        /**/
     1290       11        %INCLUDE B$USER;
     1291      227        %B$USERREFS;
     1292      231        %INCLUDE NK$LDCT;
     1293      333        %INCLUDE KC$CGBLK;
     1294      381 S      %INCLUDE B$JIT_C;
     1295      382        %B$JIT0;
     1296      471        %A$JIT6X;
     1297      474        %INCLUDE NK_LDCT_R;
     1298      483        %INCLUDE KI_DATA_R;
     1299      509        %INCLUDE KL_SUPER_C;
     1300     3411        %INCLUDE KC_DATA_R;
     1301     3424        %INCLUDE KI_MACROS_C;
     1302     4032        %INCLUDE KV$VDO;
     1303     5047        %KV_VDO_ALL_E;
     1304     5126        %INCLUDE KI_SUBS_C;
     1305     5262        %INCLUDE OC_SUBS_C;
     1306     5993        %INCLUDE NK_SUBS;
     1307     6018        %INCLUDE HF_LOCK_C;
     1308     6032        /**/
     1309     6033        %INCLUDE NK_VFC_C;
     1310     6107        %INCLUDE K_DATA_R;
     1311     6818        %INCLUDE JG_GHOSTS_C;
PL6.E3A0      #004=KIP$KEYIN File=KIP$PMME.:E05TSI                               WED 07/30/97 00:38 Page:255
     1312     6908        %NK$LDCT;
     1313     6954        %KC$CGID (FPTN=KC_CSID,STCLASS=SYMREF);
     1314     6980        /**/
     1315     6981        %SUB COD_NTTS=1;
     1316     6982        %SUB COD_NSND=2;
     1317     6983        %SUB COD_DNTSND=3;
     1318     6984        /**/
     1319     6985        /**/
     1320     6986        %K$RWPARM (STCLASS=SYMREF,NAME=S_RWPARM);
     1321     7302    1   DCL SIZE UBIN;
     1322     7303    1   DCL FEP UBIN;
     1323     7304    1   DCL 1 KMSG ALIGNED,
     1324     7305    1            2 KIN# UBIN(18) UNAL,
     1325     7306    1            2 CADDR BIT(18) UNAL,
     1326     7307    1            2 WSN CHAR(8),
     1327     7308    1            2 TERM REDEF WSN CHAR(8),
     1328     7309    1            2 SYSID UBIN(18) UNAL,
     1329     7310    1            2 ERR UBIN(9) UNAL,
     1330     7311    1            2 CNT UBIN BYTE UNAL,
     1331     7312    1            2 MSG CHAR(124) UNAL;
     1332     7313    1   DCL 1 KMSGD REDEF KMSG ALIGNED,
     1333     7314    1            2 KIN# UBIN(18) UNAL,
     1334     7315    1            2 CADDR BIT(18) UNAL,
     1335     7316    1            2 DINFO,
     1336     7317    1                 3 FEP UBIN WORD,
     1337     7318    1                 3 STATE UBIN(9) UNAL,
     1338     7319    1                 3 BDU UBIN(9) UNAL,
     1339     7320    1                 3 PROB UBIN(9) UNAL,
     1340     7321    1                 3 NAME CHAR(8) UNAL,
     1341     7322    1                 3 * CHAR(1) UNAL,
     1342     7323    1            2 * CHAR(120) UNAL;
     1343     7324    1   DCL 1 KMSGR REDEF KMSG ALIGNED,
     1344     7325    1            2 KIN# UBIN(18) UNAL,
     1345     7326    1            2 CADDR BIT(18) UNAL,
     1346     7327    1            2 DINFO,
     1347     7328    1                 3 FEP UBIN WORD,
     1348     7329    1                 3 NAME CHAR(8) UNAL,
PL6.E3A0      #004=KIP$KEYIN File=KIP$PMME.:E05TSI                               WED 07/30/97 00:38 Page:256
     1349     7330    1                 3 LINKFEP UBIN BYTE UNAL,
     1350     7331    1                 3 LINKNAME CHAR(8) UNAL,
     1351     7332    1                 3 QOS UBIN BYTE UNAL,
     1352     7333    1                 3 ALT UBIN BYTE UNAL,
     1353     7334    1                 3 * CHAR(1) UNAL,
     1354     7335    1            2 * CHAR(112) UNAL;
     1355     7336    1   DCL LDCT$ PTR;
     1356     7337    1   DCL OP$ PTR;
     1357     7338    1   DCL MSIZ UBIN WORD;
     1358     7339    1   DCL UNUM REDEF MSIZ UBIN WORD;
     1359     7340    1   DCL FEI UBIN WORD;
     1360     7341    1   DCL LDX REDEF FEI UBIN WORD;
     1361     7342    1   DCL FEI$ PTR;
     1362     7343    1   DCL MSGBUF CHAR(200);
     1363     7344    1   DCL VCHR CHAR(MSIZ) BASED;
     1364     7345    1   DCL 1 GHNM ALIGNED,
     1365     7346    1            2 GHST CHAR(4),
     1366     7347    1            2 SYSID UBIN(18) UNAL,
     1367     7348    1            2 CADDR BIT(18);
     1368     7349    1   DCL 1 CGNM CONSTANT ALIGNED,
     1369     7350    1            2 GHST CHAR(4) INIT('GHST'),
     1370     7351    1            2 SYSID UBIN(18) UNAL INIT(0),
     1371     7352    1            2 CADDR BIT(18) INIT('0'B);
     1372     7353    1   DCL 1 VGHNM BASED ALIGNED,
     1373     7354    1            2 GHST CHAR(4),
     1374     7355    1            2 SYSID UBIN(18) UNAL,
     1375     7356    1            2 CADDR BIT(18);
     1376     7357        %KI$FEI (STCLASS="BASED(FEI$)");
     1377     7441        %KI$ROUTE (STCLASS="BASED(ROUTE$)");
     1378     7495    1   DCL KI$ROUTE$(0:0) PTR BASED(KI_ROUTE$$);
     1379     7496    1   DCL ROUTE$ PTR;
     1380     7497    1   DCL I SBIN;
     1381     7498    1   DCL LNGS (0:1) UBIN BYTE UNAL CONSTANT INIT(2,1);
     1382     7499    1   DCL DLNGS (0:4) UBIN BYTE UNAL CONSTANT INIT(4,1,1,1,8);
     1383     7500    1   DCL RTELNGS (0:5) UBIN BYTE UNAL CONSTANT INIT(4,8,1,8,1,1);
     1384     7501    1   DCL B$JIT$ PTR SYMREF;
     1385     7502    1   DCL KCO$FINDSTA ENTRY(4) ALTRET;
PL6.E3A0      #004=KIP$KEYIN File=KIP$PMME.:E05TSI                               WED 07/30/97 00:38 Page:257
     1386     7503    1   DCL OCZ$SID_UN ENTRY(4) ALTRET;
     1387     7504    1   DCL KIA$FCNO ENTRY(3) ALTRET;
     1388     7505    1   DCL OCI$MK_WR ENTRY(7);
     1389     7506    1   DCL KIA$FCNOU ENTRY(3) ALTRET;
     1390     7507    1   DCL KIN$CONV_NODENAME ENTRY(3) ALTRET;
     1391     7508    1   DCL SIZ UBIN;
     1392     7509    1   DCL S_CUN UBIN SYMREF;
     1393     7510        /**/
     1394     7511        /**/
     1395     7512    2        DO CASE (KMSG.KIN#);

   7512  1 000002   200003 470500                    LDP0    @KMSG,,AUTO
         1 000003   000000 220100                    LDX0    0,,PR0
         1 000004   000007 100003                    CMPX0   7,DU
         1 000005   000007 602010 1                  TNC     s:7512+5,X0
         1 000006   000445 710000 1                  TRA     s:7625
         1 000007   000445 710000 1                  TRA     s:7625
         1 000010   000445 710000 1                  TRA     s:7625
         1 000011   000016 710000 1                  TRA     s:7514
         1 000012   000271 710000 1                  TRA     s:7567
         1 000013   000445 710000 1                  TRA     s:7625
         1 000014   000445 710000 1                  TRA     s:7625
         1 000015   000374 710000 1                  TRA     s:7591

     1396     7513    2        CASE (KEY_SEND#);

     1397     7514    2           CALL OCZ$SID_UN (KMSG.SYSID,UNUM,KMSG.CADDR,KMSG.WSN) ALTRET (RET);

   7514  1 000016   200003 236100                    LDQ     @KMSG,,AUTO
         1 000017   000001 036003                    ADLQ    1,DU
         1 000020   200107 756100                    STQ     SIZ+6,,AUTO
         1 000021   200003 236100                    LDQ     @KMSG,,AUTO
         1 000022   400000 036007                    ADLQ    -131072,DL
         1 000023   200106 756100                    STQ     SIZ+5,,AUTO
         1 000024   200010 631500                    EPPR1   MSIZ,,AUTO
         1 000025   200105 451500                    STP1    SIZ+4,,AUTO
         1 000026   200003 236100                    LDQ     @KMSG,,AUTO
PL6.E3A0      #004=KIP$KEYIN File=KIP$PMME.:E05TSI                               WED 07/30/97 00:38 Page:258
         1 000027   000003 036003                    ADLQ    3,DU
         1 000030   200104 756100                    STQ     SIZ+3,,AUTO
         1 000031   200104 630500                    EPPR0   SIZ+3,,AUTO
         1 000032   000022 631400 xsym               EPPR1   B_VECTNIL+18
         1 000033   000000 701000 xent               TSX1    OCZ$SID_UN
         1 000034   000467 702000 1                  TSX2    RET

     1398     7515    3           IF B$USRT$->B$USER.MODE(UNUM)=%M_INT# THEN DO;

   7515  1 000035   200010 235100                    LDA     MSIZ,,AUTO
         1 000036   000004 735000                    ALS     4
         1 000037   000000 470400 xsym               LDP0    B$USRT$
         1 000040   000011 236105                    LDQ     9,AL,PR0
         1 000041   007700 376007                    ANQ     4032,DL
         1 000042   000300 116007                    CMPQ    192,DL
         1 000043   000160 601000 1                  TNZ     NTTS

     1399     7516    4                IF B$USRT$->B$USER.FLG(UNUM)&%U_NSND THEN DO;

   7516  1 000044   000000 236105                    LDQ     0,AL,PR0
         1 000045   000020 376000 xsym               ANQ     B_VECTNIL+16
         1 000046   000053 600000 1                  TZE     s:7520

     1400     7517    4                     KMSG.ERR=COD_DNTSND;

   7517  1 000047   200003 471500                    LDP1    @KMSG,,AUTO
         1 000050   003000 236007                    LDQ     1536,DL
         1 000051   100003 552110                    STBQ    3,'10'O,PR1

     1401     7518    4                     GOTO ERROUT;

   7518  1 000052   000451 710000 1                  TRA     ERROUT

     1402     7519    4                   END;
     1403     7520    4                DO LDX=NK_MXLOCAL+1 TO NK_MXTOTAL;

   7520  1 000053   000000 236000 xsym               LDQ     NK_MXLOCAL
PL6.E3A0      #004=KIP$KEYIN File=KIP$PMME.:E05TSI                               WED 07/30/97 00:38 Page:259
         1 000054   000001 036007                    ADLQ    1,DL
         1 000055   200011 756100                    STQ     FEI,,AUTO
         1 000056   000110 710000 1                  TRA     s:7526+3

     1404     7521    4                     LDCT$=NK$LDCT$(LDX);

   7521  1 000057   000000 470400 xsym               LDP0    N$DCT$$
         1 000060   200011 720100                    LXL0    FEI,,AUTO
         1 000061   000000 236110                    LDQ     0,X0,PR0
         1 000062   200006 756100                    STQ     LDCT$,,AUTO

     1405     7522    4                     IF LDCT$~=ADDR(NIL) THEN IF LDCT$->LDCT.RESCOD=NK_TSTRM AND

   7522  1 000063   000001 116000 xsym               CMPQ    B_VECTNIL+1
         1 000064   000105 600000 1                  TZE     s:7526

   7522  1 000065   200006 471500                    LDP1    LDCT$,,AUTO
         1 000066   100006 236100                    LDQ     6,,PR1
         1 000067   000017 376007                    ANQ     15,DL
         1 000070   000001 116007                    CMPQ    1,DL
         1 000071   000105 601000 1                  TNZ     s:7526
         1 000072   100007 236100                    LDQ     7,,PR1
         1 000073   000022 772000                    QRL     18
         1 000074   000777 376007                    ANQ     511,DL
         1 000075   200010 116100                    CMPQ    MSIZ,,AUTO
         1 000076   000105 601000 1                  TNZ     s:7526
         1 000077   100011 236100                    LDQ     9,,PR1
         1 000100   000040 316003                    CANQ    32,DU
         1 000101   000105 600000 1                  TZE     s:7526
         1 000102   100006 236100                    LDQ     6,,PR1
         1 000103   010000 316007                    CANQ    4096,DL
         1 000104   000164 600000 1                  TZE     GOTLDCT

     1406     7523    4                               LDCT$->LDCT.USER=UNUM AND
     1407     7524    4                              LDCT$->LDCT.LKFLG.ACTIVE AND LDCT$->LDCT.DFLG.OLDSC='0'B
     1408     7525    4                          THEN GOTO GOTLDCT;
     1409     7526    4                   END;
PL6.E3A0      #004=KIP$KEYIN File=KIP$PMME.:E05TSI                               WED 07/30/97 00:38 Page:260

   7526  1 000105   200011 235100                    LDA     FEI,,AUTO
         1 000106   000001 035007                    ADLA    1,DL
         1 000107   200011 755100                    STA     FEI,,AUTO
         1 000110   000000 236000 xsym               LDQ     NK_MXTOTAL
         1 000111   200011 116100                    CMPQ    FEI,,AUTO
         1 000112   000057 603000 1                  TRC     s:7521

     1410     7527    3                GHNM=CGNM;

   7527  1 000113   000000 237000 0                  LDAQ    CGNM
         1 000114   200075 755100                    STA     GHNM,,AUTO
         1 000115   200076 756100                    STQ     GHNM+1,,AUTO

     1411     7528    3                GHNM.SYSID=KMSG.SYSID;

   7528  1 000116   200003 470500                    LDP0    @KMSG,,AUTO
         1 000117   000003 220100                    LDX0    3,,PR0
         1 000120   200076 740100                    STX0    GHNM+1,,AUTO

     1412     7529    3                MSIZ=6;

   7529  1 000121   000006 236007                    LDQ     6,DL
         1 000122   200010 756100                    STQ     MSIZ,,AUTO

     1413     7530    3                CALL KCO$FINDSTA (LDCT$,KC_CSID,GHNM,MSIZ) ALTRET (NTTS);

   7530  1 000123   200010 631500                    EPPR1   MSIZ,,AUTO
         1 000124   200107 451500                    STP1    SIZ+6,,AUTO
         1 000125   200075 633500                    EPPR3   GHNM,,AUTO
         1 000126   200106 453500                    STP3    SIZ+5,,AUTO
         1 000127   000000 236000 2                  LDQ     0
         1 000130   200105 756100                    STQ     SIZ+4,,AUTO
         1 000131   200006 634500                    EPPR4   LDCT$,,AUTO
         1 000132   200104 454500                    STP4    SIZ+3,,AUTO
         1 000133   200104 630500                    EPPR0   SIZ+3,,AUTO
         1 000134   000022 631400 xsym               EPPR1   B_VECTNIL+18
PL6.E3A0      #004=KIP$KEYIN File=KIP$PMME.:E05TSI                               WED 07/30/97 00:38 Page:261
         1 000135   000000 701000 xent               TSX1    KCO$FINDSTA
         1 000136   000160 702000 1                  TSX2    NTTS

     1414     7531    3                CALL OCI$MK_WR (ADDR(LDCT$->LDCT.DEVNM)->VGHNM.CADDR,GSND_MSG#,1,KMSG.
              7531                         CNT,KMSG.MSG);

   7531  1 000137   200003 236100                    LDQ     @KMSG,,AUTO
         1 000140   000004 036003                    ADLQ    4,DU
         1 000141   200110 756100                    STQ     SIZ+7,,AUTO
         1 000142   200003 236100                    LDQ     @KMSG,,AUTO
         1 000143   000002 036000 2                  ADLQ    2
         1 000144   000003 235000 2                  LDA     3
         1 000145   200106 757100                    STAQ    SIZ+5,,AUTO
         1 000146   000004 236000 2                  LDQ     4
         1 000147   200105 756100                    STQ     SIZ+4,,AUTO
         1 000150   200006 236100                    LDQ     LDCT$,,AUTO
         1 000151   000005 036000 2                  ADLQ    5
         1 000152   200104 756100                    STQ     SIZ+3,,AUTO
         1 000153   200104 630500                    EPPR0   SIZ+3,,AUTO
         1 000154   000023 631400 xsym               EPPR1   B_VECTNIL+19
         1 000155   000000 701000 xent               TSX1    OCI$MK_WR
         1 000156   000000 011000                    NOP     0

     1415     7532    3                RETURN;

   7532  1 000157   000000 702200 xent               TSX2  ! X66_ARET

     1416     7533    3   NTTS:        ;

   7533  1 000160                       NTTS         null
     1417     7534    3              END;

     1418     7535    2           KMSG.ERR=COD_NTTS;

   7535  1 000160   200003 470500                    LDP0    @KMSG,,AUTO
         1 000161   001000 236007                    LDQ     512,DL
         1 000162   000003 552110                    STBQ    3,'10'O,PR0
PL6.E3A0      #004=KIP$KEYIN File=KIP$PMME.:E05TSI                               WED 07/30/97 00:38 Page:262

     1419     7536    2           GOTO ERROUT;

   7536  1 000163   000451 710000 1                  TRA     ERROUT

   7535  1 000164                       GOTLDCT      null
     1420     7537    2   GOTLDCT: ;
     1421     7538    2           MSIZ=KMSG.CNT;

   7538  1 000164   200003 473500                    LDP3    @KMSG,,AUTO
         1 000165   300003 236100                    LDQ     3,,PR3
         1 000166   000777 376007                    ANQ     511,DL
         1 000167   200010 756100                    STQ     MSIZ,,AUTO

     1422     7539                %LOCK (G = LDCT$->LDCT.LOCK );

   7540  1 000170   200006 236100                    LDQ     LDCT$,,AUTO
         1 000171   000020 036003                    ADLQ    16,DU
         1 000172   200104 756100                    STQ     SIZ+3,,AUTO
         1 000173   200104 630500                    EPPR0   SIZ+3,,AUTO
         1 000174   000017 631400 xsym               EPPR1   B_VECTNIL+15
         1 000175   000000 701000 xent               TSX1    HFC$LOCK
         1 000176   000000 011000                    NOP     0

     1423     7542    2           S_RWPARM = K_RWPARM_CON;

   7542  1 000177   000000 100400                    MLR     fill='000'O
         1 000200   000000 000234 xsym               ADSC9   K_RWPARM_CON             cn=0,n=156
         1 000201   000000 000234 xsym               ADSC9   S_RWPARM                 cn=0,n=156

     1424     7543    2           IF (S_CUN = JG_KEYIN#)

   7543  1 000202   000000 235000 xsym               LDA     S_CUN
         1 000203   000002 115007                    CMPA    2,DL
         1 000204   000220 601000 1                  TNZ     s:7549

     1425     7544    3           THEN DO;
PL6.E3A0      #004=KIP$KEYIN File=KIP$PMME.:E05TSI                               WED 07/30/97 00:38 Page:263

     1426     7545    3                SIZ = LENGTHC('Operator:');

   7545  1 000205   000011 236007                    LDQ     9,DL
         1 000206   200101 756100                    STQ     SIZ,,AUTO

     1427     7546    3                CALL CONCAT(MSGBUF,'Operator:',SUBSTR(KMSG.MSG,0,MSIZ));

   7546  1 000207   040100 100400                    MLR     fill='040'O
         1 000210   000007 000011 0                  ADSC9   RTELNGS+2                cn=0,n=9
         1 000211   200013 000011                    ADSC9   MSGBUF,,AUTO             cn=0,n=9
         1 000212   200003 470500                    LDP0    @KMSG,,AUTO
         1 000213   200010 720100                    LXL0    MSIZ,,AUTO
         1 000214   040100 100540                    MLR     fill='040'O
         1 000215   000004 000010                    ADSC9   4,,PR0                   cn=0,n=*X0
         1 000216   200015 200277                    ADSC9   MSGBUF+2,,AUTO           cn=1,n=191

     1428     7547    3              END;

   7547  1 000217   000226 710000 1                  TRA     s:7552

     1429     7548    3           ELSE DO;

     1430     7549    3                SIZ = 0;

   7549  1 000220   200101 450100                    STZ     SIZ,,AUTO

     1431     7550    3                MSGBUF = SUBSTR(KMSG.MSG,0,MSIZ);

   7550  1 000221   200003 470500                    LDP0    @KMSG,,AUTO
         1 000222   200010 720100                    LXL0    MSIZ,,AUTO
         1 000223   040100 100540                    MLR     fill='040'O
         1 000224   000004 000010                    ADSC9   4,,PR0                   cn=0,n=*X0
         1 000225   200013 000310                    ADSC9   MSGBUF,,AUTO             cn=0,n=200

     1432     7551    3              END;

PL6.E3A0      #004=KIP$KEYIN File=KIP$PMME.:E05TSI                               WED 07/30/97 00:38 Page:264
     1433     7552    2           S_RWPARM.MSG$ = ADDR(MSGBUF);

   7552  1 000226   200013 630500                    EPPR0   MSGBUF,,AUTO
         1 000227   000000 450400 xsym               STP0    S_RWPARM

     1434     7553    2           S_RWPARM.MSGSZ = MSIZ + SIZ;

   7553  1 000230   200010 236100                    LDQ     MSIZ,,AUTO
         1 000231   200101 036100                    ADLQ    SIZ,,AUTO
         1 000232   000001 756000 xsym               STQ     S_RWPARM+1

     1435     7554    2           S_RWPARM.DVE.DVBYTE.VFC = '1'B;

   7554  1 000233   100000 236003                    LDQ     32768,DU
         1 000234   000010 256000 xsym               ORSQ    S_RWPARM+8

     1436     7555    2           S_RWPARM.DVE.VFC = %VFC_TRANSITION1;

   7555  1 000235   000037 236003                    LDQ     31,DU
         1 000236   000010 552020 xsym               STBQ    S_RWPARM+8,'20'O

     1437     7556    3           CALL KIA$FCNO(LDCT$->LDCT,%KV_VDO_FNC_DAT_IMD,S_RWPARM) WHENALTRETURN DO;

   7556  1 000237   000006 236000 2                  LDQ     6
         1 000240   200106 756100                    STQ     SIZ+5,,AUTO
         1 000241   000007 236000 2                  LDQ     7
         1 000242   200006 235100                    LDA     LDCT$,,AUTO
         1 000243   200104 757100                    STAQ    SIZ+3,,AUTO
         1 000244   200104 630500                    EPPR0   SIZ+3,,AUTO
         1 000245   000021 631400 xsym               EPPR1   B_VECTNIL+17
         1 000246   000000 701000 xent               TSX1    KIA$FCNO
         1 000247   000251 702000 1                  TSX2    s:7558
         1 000250   000261 710000 1                  TRA     s:7563

     1438     7557                     %UNLOCK (G = LDCT$->LDCT.LOCK);

   7558  1 000251   200006 236100                    LDQ     LDCT$,,AUTO
PL6.E3A0      #004=KIP$KEYIN File=KIP$PMME.:E05TSI                               WED 07/30/97 00:38 Page:265
         1 000252   000020 036003                    ADLQ    16,DU
         1 000253   200104 756100                    STQ     SIZ+3,,AUTO
         1 000254   200104 630500                    EPPR0   SIZ+3,,AUTO
         1 000255   000017 631400 xsym               EPPR1   B_VECTNIL+15
         1 000256   000000 701000 xent               TSX1    HFC$UNLOCK
         1 000257   000000 011000                    NOP     0

     1439     7560    3                GOTO NOSND;

   7560  1 000260   000446 710000 1                  TRA     NOSND

     1440     7561    3              END;
     1441     7562                %UNLOCK (G = LDCT$->LDCT.LOCK );

   7563  1 000261   200006 236100                    LDQ     LDCT$,,AUTO
         1 000262   000020 036003                    ADLQ    16,DU
         1 000263   200104 756100                    STQ     SIZ+3,,AUTO
         1 000264   200104 630500                    EPPR0   SIZ+3,,AUTO
         1 000265   000017 631400 xsym               EPPR1   B_VECTNIL+15
         1 000266   000000 701000 xent               TSX1    HFC$UNLOCK
         1 000267   000000 011000                    NOP     0
         1 000270   000467 710000 1                  TRA     RET

     1442     7565
     1443     7566    2        CASE (KEY_LINKS#);

     1444     7567    2           IF KMSGR.DINFO.NAME ~= ' '

   7567  1 000271   040000 106500                    CMPC    fill='040'O
         1 000272   000002 000010                    ADSC9   2,,PR0                   cn=0,n=8
         1 000273   000035 000001 xsym               ADSC9   B_VECTNIL+29             cn=0,n=1
         1 000274   000306 600000 1                  TZE     s:7570

     1445     7568    2           THEN
     1446     7569    2                CALL KIN$CONV_NODENAME(KMSGR.DINFO.NAME,FEI) ALTRET(NFEP);

   7569  1 000275   200011 631500                    EPPR1   FEI,,AUTO
PL6.E3A0      #004=KIP$KEYIN File=KIP$PMME.:E05TSI                               WED 07/30/97 00:38 Page:266
         1 000276   200105 451500                    STP1    SIZ+4,,AUTO
         1 000277   200003 236100                    LDQ     @KMSG,,AUTO
         1 000300   000002 036003                    ADLQ    2,DU
         1 000301   200104 756100                    STQ     SIZ+3,,AUTO
         1 000302   200104 630500                    EPPR0   SIZ+3,,AUTO
         1 000303   000020 631400 xsym               EPPR1   B_VECTNIL+16
         1 000304   000000 701000 xent               TSX1    KIN$CONV_NODENAME
         1 000305   000341 702000 1                  TSX2    NFEP

     1447     7570    2           FEI=KMSGD.DINFO.FEP;

   7570  1 000306   200003 470500                    LDP0    @KMSG,,AUTO
         1 000307   000001 235100                    LDA     1,,PR0
         1 000310   200011 755100                    STA     FEI,,AUTO

     1448     7571    2           IF FEI~= 0

   7571  1 000311   000360 600000 1                  TZE     s:7585

     1449     7572    3           THEN DO;

     1450     7573    4                DO FEI = 1 TO KI_MXFE;

   7573  1 000312   000001 236007                    LDQ     1,DL
         1 000313   200011 756100                    STQ     FEI,,AUTO
         1 000314   000336 710000 1                  TRA     s:7580+3

     1451     7574    4                     FEI$ = KI$FEI$(FEI);

   7574  1 000315   000000 470400 xsym               LDP0    KI_FEI$$
         1 000316   200011 720100                    LXL0    FEI,,AUTO
         1 000317   000000 236110                    LDQ     0,X0,PR0
         1 000320   200012 756100                    STQ     FEI$,,AUTO

     1452     7575    4                     IF KMSGD.DINFO.FEP = KI$FEI.FEP#

   7575  1 000321   200003 471500                    LDP1    @KMSG,,AUTO
PL6.E3A0      #004=KIP$KEYIN File=KIP$PMME.:E05TSI                               WED 07/30/97 00:38 Page:267
         1 000322   200012 473500                    LDP3    FEI$,,AUTO
         1 000323   300012 236100                    LDQ     10,,PR3
         1 000324   000011 772000                    QRL     9
         1 000325   000777 376007                    ANQ     511,DL
         1 000326   100001 116100                    CMPQ    1,,PR1
         1 000327   000333 601000 1                  TNZ     s:7580

     1453     7576    5                     THEN DO;

     1454     7577    5                          CALL DFEP ALTRET(NFEP);

   7577  1 000330   000632 701000 1                  TSX1    DFEP
         1 000331   000341 702000 1                  TSX2    NFEP

     1455     7578    5                          GOTO FOUND_FEP;

   7578  1 000332   000357 710000 1                  TRA     FOUND_FEP

     1456     7579    5                        END;
     1457     7580    4                   END;

   7580  1 000333   200011 235100                    LDA     FEI,,AUTO
         1 000334   000001 035007                    ADLA    1,DL
         1 000335   200011 755100                    STA     FEI,,AUTO
         1 000336   000000 236000 xsym               LDQ     KI_MXFE
         1 000337   200011 116100                    CMPQ    FEI,,AUTO
         1 000340   000315 603000 1                  TRC     s:7574

   7573  1 000341                       NFEP         null
     1458     7581    3   NFEP:        ;
     1459     7582    3                CALL OCI$MK_WR (KMSG.CADDR,NOFE_MSG#,1,DLNGS,KMSGD.DINFO.FEP);

   7582  1 000341   200003 236100                    LDQ     @KMSG,,AUTO
         1 000342   000001 036003                    ADLQ    1,DU
         1 000343   200110 756100                    STQ     SIZ+7,,AUTO
         1 000344   000012 237000 2                  LDAQ    10
         1 000345   200106 757100                    STAQ    SIZ+5,,AUTO
PL6.E3A0      #004=KIP$KEYIN File=KIP$PMME.:E05TSI                               WED 07/30/97 00:38 Page:268
         1 000346   000011 236000 2                  LDQ     9
         1 000347   200105 756100                    STQ     SIZ+4,,AUTO
         1 000350   200003 236100                    LDQ     @KMSG,,AUTO
         1 000351   400000 036007                    ADLQ    -131072,DL
         1 000352   200104 756100                    STQ     SIZ+3,,AUTO
         1 000353   200104 630500                    EPPR0   SIZ+3,,AUTO
         1 000354   000023 631400 xsym               EPPR1   B_VECTNIL+19
         1 000355   000000 701000 xent               TSX1    OCI$MK_WR
         1 000356   000000 011000                    NOP     0

   7582  1 000357                       FOUND_FEP    null
     1460     7583    3   FOUND_FEP:   ;
     1461     7584    3              END;

   7584  1 000357   000467 710000 1                  TRA     RET

     1462     7585    3           ELSE DO FEI=1 TO KI_MXFE;

   7585  1 000360   000001 236007                    LDQ     1,DL
         1 000361   200011 756100                    STQ     FEI,,AUTO
         1 000362   000370 710000 1                  TRA     s:7587+3

     1463     7586    3                CALL DFEP;

   7586  1 000363   000632 701000 1                  TSX1    DFEP
         1 000364   000000 011000                    NOP     0

     1464     7587    3              END;

   7587  1 000365   200011 235100                    LDA     FEI,,AUTO
         1 000366   000001 035007                    ADLA    1,DL
         1 000367   200011 755100                    STA     FEI,,AUTO
         1 000370   000000 236000 xsym               LDQ     KI_MXFE
         1 000371   200011 116100                    CMPQ    FEI,,AUTO
         1 000372   000363 603000 1                  TRC     s:7586
         1 000373   000467 710000 1                  TRA     RET

PL6.E3A0      #004=KIP$KEYIN File=KIP$PMME.:E05TSI                               WED 07/30/97 00:38 Page:269
     1465     7588
     1466     7589    2        CASE (KEY_ROUTES#);

     1467     7590
     1468     7591    2           IF KMSGD.DINFO.FEP = 0 AND KMSGR.DINFO.NAME = ' '

   7591  1 000374   000001 235100                    LDA     1,,PR0
         1 000375   000420 601000 1                  TNZ     s:7599
         1 000376   040000 106500                    CMPC    fill='040'O
         1 000377   000002 000010                    ADSC9   2,,PR0                   cn=0,n=8
         1 000400   000035 000001 xsym               ADSC9   B_VECTNIL+29             cn=0,n=1
         1 000401   000420 601000 1                  TNZ     s:7599

     1469     7592    2           THEN
     1470     7593    3           DO FEI = 0 TO KI_NODES;

   7593  1 000402   200011 450100                    STZ     FEI,,AUTO
         1 000403   000414 710000 1                  TRA     s:7597+3

     1471     7594    3                IF FEI ~= K_NODE#

   7594  1 000404   200011 236100                    LDQ     FEI,,AUTO
         1 000405   000000 116000 xsym               CMPQ    K_NODE#
         1 000406   000411 600000 1                  TZE     s:7597

     1472     7595    3                THEN
     1473     7596    3                     CALL DROUTE;

   7596  1 000407   000720 701000 1                  TSX1    DROUTE
         1 000410   000000 011000                    NOP     0

     1474     7597    3              END;

   7597  1 000411   200011 235100                    LDA     FEI,,AUTO
         1 000412   000001 035007                    ADLA    1,DL
         1 000413   200011 755100                    STA     FEI,,AUTO
         1 000414   000000 236000 xsym               LDQ     KI_NODES
PL6.E3A0      #004=KIP$KEYIN File=KIP$PMME.:E05TSI                               WED 07/30/97 00:38 Page:270
         1 000415   200011 116100                    CMPQ    FEI,,AUTO
         1 000416   000404 603000 1                  TRC     s:7594
         1 000417   000467 710000 1                  TRA     RET

     1475     7598    3           ELSE DO;

     1476     7599    3                IF KMSGR.DINFO.NAME ~= ' '

   7599  1 000420   040000 106500                    CMPC    fill='040'O
         1 000421   000002 000010                    ADSC9   2,,PR0                   cn=0,n=8
         1 000422   000035 000001 xsym               ADSC9   B_VECTNIL+29             cn=0,n=1
         1 000423   000436 600000 1                  TZE     s:7603

     1477     7600    3                THEN
     1478     7601    3                     CALL KIN$CONV_NODENAME(KMSGR.DINFO.NAME,FEI) ALTRET (NFEP);

   7601  1 000424   200011 631500                    EPPR1   FEI,,AUTO
         1 000425   200105 451500                    STP1    SIZ+4,,AUTO
         1 000426   200003 236100                    LDQ     @KMSG,,AUTO
         1 000427   000002 036003                    ADLQ    2,DU
         1 000430   200104 756100                    STQ     SIZ+3,,AUTO
         1 000431   200104 630500                    EPPR0   SIZ+3,,AUTO
         1 000432   000020 631400 xsym               EPPR1   B_VECTNIL+16
         1 000433   000000 701000 xent               TSX1    KIN$CONV_NODENAME
         1 000434   000341 702000 1                  TSX2    NFEP
         1 000435   000437 710000 1                  TRA     s:7604

     1479     7602    3                ELSE
     1480     7603    3                     FEI = KMSGR.DINFO.FEP;

   7603  1 000436   200011 755100                    STA     FEI,,AUTO

     1481     7604    3                IF FEI > KI_NODES THEN GOTO NFEP;

   7604  1 000437   000000 236000 xsym               LDQ     KI_NODES
         1 000440   200011 116100                    CMPQ    FEI,,AUTO
         1 000441   000341 602000 1                  TNC     NFEP
PL6.E3A0      #004=KIP$KEYIN File=KIP$PMME.:E05TSI                               WED 07/30/97 00:38 Page:271

     1482     7605    3                CALL DROUTE;

   7605  1 000442   000720 701000 1                  TSX1    DROUTE
         1 000443   000000 011000                    NOP     0

     1483     7606    3              END;

   7606  1 000444   000467 710000 1                  TRA     RET

     1484     7607
     1485     7608        /*N*
     1486     7609                  CASE (KEY_DISCT#);
     1487     7610                    DO INHIBIT;
     1488     7611                      LDCT$=KC_NOCG$;
     1489     7612                      DO WHILE (LDCT$~=ADDR(NIL));
     1490     7613          IF LDCT$->LDCT.DEVNM=KMSG.TERM AND LDCT$->LDCT.RESCOD=NK_TRMPTH THEN GOTO GOTTRM;
     1491     7614                        LDCT$=LDCT$->LDCT.LNK$;
     1492     7615                        END;
     1493     7616                      END;
     1494     7617                    GOTO NOTRM;
     1495     7618        GOTTRM:     ;
     1496     7619                    CALL KIA$FCNOU (LDCT$->LDCT,KX_DREQ) ALTRET (NOTRM);
     1497     7620                    RETURN;
     1498     7621        NOTRM:      ;
     1499     7622                    CALL OCI$MK_WR (KMSG.CADDR,NTRM_MSG#,1,'010'O,KMSG.TERM);
     1500     7623         */
     1501     7624    2        CASE (ELSE);

     1502     7625    2           ALTRETURN;

   7625  1 000445   000000 702200 xent               TSX2  ! X66_AALT

   7603  1 000446                       NOSND        null
     1503     7626    2   NOSND:  ;
     1504     7627    2           KMSG.ERR=COD_NSND;

PL6.E3A0      #004=KIP$KEYIN File=KIP$PMME.:E05TSI                               WED 07/30/97 00:38 Page:272
   7627  1 000446   200003 470500                    LDP0    @KMSG,,AUTO
         1 000447   002000 236007                    LDQ     1024,DL
         1 000450   000003 552110                    STBQ    3,'10'O,PR0

   7627  1 000451                       ERROUT       null
     1505     7628    2   ERROUT: ;
     1506     7629    2           CALL OCI$MK_WR (KMSG.CADDR,ESND_MSG#,2,LNGS,KMSG.SYSID);

   7629  1 000451   200003 236100                    LDQ     @KMSG,,AUTO
         1 000452   000003 036003                    ADLQ    3,DU
         1 000453   200110 756100                    STQ     SIZ+7,,AUTO
         1 000454   000016 237000 2                  LDAQ    14
         1 000455   200106 757100                    STAQ    SIZ+5,,AUTO
         1 000456   000015 236000 2                  LDQ     13
         1 000457   200105 756100                    STQ     SIZ+4,,AUTO
         1 000460   200003 236100                    LDQ     @KMSG,,AUTO
         1 000461   400000 036007                    ADLQ    -131072,DL
         1 000462   200104 756100                    STQ     SIZ+3,,AUTO
         1 000463   200104 630500                    EPPR0   SIZ+3,,AUTO
         1 000464   000023 631400 xsym               EPPR1   B_VECTNIL+19
         1 000465   000000 701000 xent               TSX1    OCI$MK_WR
         1 000466   000000 011000                    NOP     0

     1507     7630    2        END;

   7629  1 000467                       RET          null
     1508     7631    1   RET: ;
     1509     7632    1        RETURN;

   7632  1 000467   000000 702200 xent               TSX2  ! X66_ARET

     1510     7633        /**/
     1511     7634        /**/
     1512     7635        %EJECT;
PL6.E3A0      #004=KIP$KEYIN File=KIP$PMME.:E05TSI                               WED 07/30/97 00:38 Page:273
     1513     7636    1   KIP$SENDALL: ENTRY(KMSG,SIZE,FEP) ALTRET;

   7636  1 000470   000000 700200 xent  KIP$SENDALL  TSX0  ! X66_AUTO_3
         1 000471   000112 000003                    ZERO    74,3

     1514     7637
     1515     7638    1        MSIZ = SIZE;

   7638  1 000472   200004 470500                    LDP0    @SIZE,,AUTO
         1 000473   000000 235100                    LDA     0,,PR0
         1 000474   200010 755100                    STA     MSIZ,,AUTO

     1516     7639    1        CALL CONCAT(MSGBUF,'Broadcast:',ADDR(KMSG)->VCHR);

   7639  1 000475   040100 100400                    MLR     fill='040'O
         1 000476   000012 000012 0                  ADSC9   RTELNGS+5                cn=0,n=10
         1 000477   200013 000012                    ADSC9   MSGBUF,,AUTO             cn=0,n=10
         1 000500   200003 471500                    LDP1    @KMSG,,AUTO
         1 000501   000000 620005                    EAX0    0,AL
         1 000502   040100 100540                    MLR     fill='040'O
         1 000503   100000 000010                    ADSC9   0,,PR1                   cn=0,n=*X0
         1 000504   200015 400276                    ADSC9   MSGBUF+2,,AUTO           cn=2,n=190

     1517     7640    2        DO LDX=NK_MXLOCAL+1 TO NK_MXTOTAL;

   7640  1 000505   000000 235000 xsym               LDA     NK_MXLOCAL
         1 000506   000001 035007                    ADLA    1,DL
         1 000507   200011 755100                    STA     FEI,,AUTO
         1 000510   000626 710000 1                  TRA     s:7666+3

     1518     7641    2             LDCT$=NK$LDCT$(LDX);

   7641  1 000511   000000 470400 xsym               LDP0    N$DCT$$
         1 000512   200011 720100                    LXL0    FEI,,AUTO
         1 000513   000000 236110                    LDQ     0,X0,PR0
         1 000514   200006 756100                    STQ     LDCT$,,AUTO

PL6.E3A0      #004=KIP$KEYIN File=KIP$PMME.:E05TSI                               WED 07/30/97 00:38 Page:274
     1519     7642    2             IF LDCT$ ~= ADDR(NIL)

   7642  1 000515   000001 116000 xsym               CMPQ    B_VECTNIL+1
         1 000516   000623 600000 1                  TZE     s:7666

     1520     7643    2             THEN
     1521     7644    2                  IF LDCT$->LDCT.RESCOD = NK_TSTRM AND

   7644  1 000517   200006 471500                    LDP1    LDCT$,,AUTO
         1 000520   100006 236100                    LDQ     6,,PR1
         1 000521   000017 376007                    ANQ     15,DL
         1 000522   000001 116007                    CMPQ    1,DL
         1 000523   000623 601000 1                  TNZ     s:7666
         1 000524   100006 236100                    LDQ     6,,PR1
         1 000525   010000 316007                    CANQ    4096,DL
         1 000526   000623 601000 1                  TNZ     s:7666
         1 000527   100022 236100                    LDQ     18,,PR1
         1 000530   000777 376003                    ANQ     511,DU
         1 000531   000002 116003                    CMPQ    2,DU
         1 000532   000535 600000 1                  TZE     s:7644+14
         1 000533   000012 116003                    CMPQ    10,DU
         1 000534   000623 601000 1                  TNZ     s:7666
         1 000535   100006 236100                    LDQ     6,,PR1
         1 000536   200000 316007                    CANQ    65536,DL
         1 000537   000623 600000 1                  TZE     s:7666
         1 000540   100015 236100                    LDQ     13,,PR1
         1 000541   000033 772000                    QRL     27
         1 000542   000000 116000 xsym               CMPQ    K_NODE#
         1 000543   000623 600000 1                  TZE     s:7666
         1 000544   100006 236100                    LDQ     6,,PR1
         1 000545   004000 316007                    CANQ    2048,DL
         1 000546   000623 601000 1                  TNZ     s:7666
         1 000547   200005 236100                    LDQ     @FEP,,AUTO
         1 000550   000001 116000 xsym               CMPQ    B_VECTNIL+1
         1 000551   000557 600000 1                  TZE     s:7653
         1 000552   200005 473500                    LDP3    @FEP,,AUTO
         1 000553   100015 236100                    LDQ     13,,PR1
PL6.E3A0      #004=KIP$KEYIN File=KIP$PMME.:E05TSI                               WED 07/30/97 00:38 Page:275
         1 000554   000033 772000                    QRL     27
         1 000555   300000 116100                    CMPQ    0,,PR3
         1 000556   000623 601000 1                  TNZ     s:7666

     1522     7645    2                       NOT LDCT$->LDCT.DFLG.OLDSC
     1523     7646    2                      AND (LDCT$->LDCT.TERMID.TTYP = %KLTY_TTY# OR LDCT$->LDCT.TERMID.
              7646                                TTYP = %KLTY_LINEDEV#)
     1524     7647    2                       AND LDCT$->LDCT.DFLG.OUTPUT
     1525     7648    2                       AND LDCT$->LDCT.RLCID.NODE ~= K_NODE#
     1526     7649    2                       AND NOT LDCT$->LDCT.DFLG.NOSND
     1527     7650    2                       AND (ADDR(FEP)= ADDR(NIL) OR LDCT$->NK$LDCT.RLCID.NODE = FEP)
     1528     7651    3                  THEN DO;

     1529     7652                            %LOCK (G = LDCT$->LDCT.LOCK );

   7653  1 000557   200006 236100                    LDQ     LDCT$,,AUTO
         1 000560   000020 036003                    ADLQ    16,DU
         1 000561   200104 756100                    STQ     SIZ+3,,AUTO
         1 000562   200104 630500                    EPPR0   SIZ+3,,AUTO
         1 000563   000017 631400 xsym               EPPR1   B_VECTNIL+15
         1 000564   000000 701000 xent               TSX1    HFC$LOCK
         1 000565   000000 011000                    NOP     0

     1530     7655    3                       S_RWPARM = K_RWPARM_CON;

   7655  1 000566   000000 100400                    MLR     fill='000'O
         1 000567   000000 000234 xsym               ADSC9   K_RWPARM_CON             cn=0,n=156
         1 000570   000000 000234 xsym               ADSC9   S_RWPARM                 cn=0,n=156

     1531     7656    3                       S_RWPARM.MSG$ = ADDR(MSGBUF);

   7656  1 000571   200013 630500                    EPPR0   MSGBUF,,AUTO
         1 000572   000000 450400 xsym               STP0    S_RWPARM

     1532     7657    3                       S_RWPARM.MSGSZ = SIZE + LENGTHC('Broadcast:');

   7657  1 000573   200004 471500                    LDP1    @SIZE,,AUTO
PL6.E3A0      #004=KIP$KEYIN File=KIP$PMME.:E05TSI                               WED 07/30/97 00:38 Page:276
         1 000574   100000 235100                    LDA     0,,PR1
         1 000575   000012 035007                    ADLA    10,DL
         1 000576   000001 755000 xsym               STA     S_RWPARM+1

     1533     7658    3                       S_RWPARM.DVE.DVBYTE.VFC = '1'B;

   7658  1 000577   100000 236003                    LDQ     32768,DU
         1 000600   000010 256000 xsym               ORSQ    S_RWPARM+8

     1534     7659    3                       S_RWPARM.DVE.VFC = %VFC_TRANSITION1;

   7659  1 000601   000037 236003                    LDQ     31,DU
         1 000602   000010 552020 xsym               STBQ    S_RWPARM+8,'20'O

     1535     7660    3                       CALL KIA$FCNO(LDCT$->LDCT,%KV_VDO_FNC_DAT_IMD,S_RWPARM);

   7660  1 000603   000006 236000 2                  LDQ     6
         1 000604   200106 756100                    STQ     SIZ+5,,AUTO
         1 000605   000007 236000 2                  LDQ     7
         1 000606   200006 235100                    LDA     LDCT$,,AUTO
         1 000607   200104 757100                    STAQ    SIZ+3,,AUTO
         1 000610   200104 630500                    EPPR0   SIZ+3,,AUTO
         1 000611   000021 631400 xsym               EPPR1   B_VECTNIL+17
         1 000612   000000 701000 xent               TSX1    KIA$FCNO
         1 000613   000000 011000                    NOP     0

     1536     7661                            %UNLOCK (G = LDCT$->LDCT.LOCK );

   7662  1 000614   200006 236100                    LDQ     LDCT$,,AUTO
         1 000615   000020 036003                    ADLQ    16,DU
         1 000616   200104 756100                    STQ     SIZ+3,,AUTO
         1 000617   200104 630500                    EPPR0   SIZ+3,,AUTO
         1 000620   000017 631400 xsym               EPPR1   B_VECTNIL+15
         1 000621   000000 701000 xent               TSX1    HFC$UNLOCK
         1 000622   000000 011000                    NOP     0

     1537     7664    3                     END;
PL6.E3A0      #004=KIP$KEYIN File=KIP$PMME.:E05TSI                               WED 07/30/97 00:38 Page:277

     1538     7665
     1539     7666    2           END;

   7666  1 000623   200011 235100                    LDA     FEI,,AUTO
         1 000624   000001 035007                    ADLA    1,DL
         1 000625   200011 755100                    STA     FEI,,AUTO
         1 000626   000000 236000 xsym               LDQ     NK_MXTOTAL
         1 000627   200011 116100                    CMPQ    FEI,,AUTO
         1 000630   000511 603000 1                  TRC     s:7641

     1540     7667
     1541     7668    1        RETURN;

   7668  1 000631   000000 702200 xent               TSX2  ! X66_ARET

     1542     7669
     1543     7670        %EJECT;
PL6.E3A0      #004=KIP$KEYIN File=KIP$PMME.:E05TSI                               WED 07/30/97 00:38 Page:278
     1544     7671    1   DFEP: PROC ALTRET;

   7671  1 000632   200102 741300       DFEP         STX1  ! SIZ+1,,AUTO

     1545     7672        /**/
     1546     7673    2        FEI$ = KI$FEI$(FEI);

   7673  1 000633   000000 470400 xsym               LDP0    KI_FEI$$
         1 000634   200011 720100                    LXL0    FEI,,AUTO
         1 000635   000000 236110                    LDQ     0,X0,PR0
         1 000636   200012 756100                    STQ     FEI$,,AUTO

     1547     7674    2        IF KI$FEI.PBST.PROB = KIER_PART THEN

   7674  1 000637   200012 471500                    LDP1    FEI$,,AUTO
         1 000640   100015 222100                    LDX2    13,,PR1
         1 000641   000016 102003                    CMPX2   14,DU
         1 000642   000647 601000 1                  TNZ     s:7677

     1548     7675    2             KMSGD.DINFO.STATE = KIST_DN ;

   7675  1 000643   200003 473500                    LDP3    @KMSG,,AUTO
         1 000644   000000 236003                    LDQ     0,DU
         1 000645   300002 552140                    STBQ    2,'40'O,PR3
         1 000646   000653 710000 1                  TRA     s:7678

     1549     7676    2        ELSE
     1550     7677    2             KMSGD.DINFO.STATE = KI$FEI.FEST ;

   7677  1 000647   200003 473500                    LDP3    @KMSG,,AUTO
         1 000650   100002 236100                    LDQ     2,,PR1
         1 000651   000011 736000                    QLS     9
         1 000652   300002 552140                    STBQ    2,'40'O,PR3

     1551     7678    2        KMSGD.DINFO.FEP=KI$FEI.FEP#;

   7678  1 000653   100012 236100                    LDQ     10,,PR1
PL6.E3A0      #004=KIP$KEYIN File=KIP$PMME.:E05TSI                               WED 07/30/97 00:38 Page:279
         1 000654   000011 772000                    QRL     9
         1 000655   000777 376007                    ANQ     511,DL
         1 000656   300001 756100                    STQ     1,,PR3

     1552     7679    2        KMSGD.DINFO.BDU=KI$FEI.BDU# ;

   7679  1 000657   100007 236100                    LDQ     7,,PR1
         1 000660   300002 552120                    STBQ    2,'20'O,PR3

     1553     7680    2        KMSGD.DINFO.PROB=KI$FEI.PBST.PROB ;

   7680  1 000661   100015 236100                    LDQ     13,,PR1
         1 000662   000011 772000                    QRL     9
         1 000663   300002 552110                    STBQ    2,'10'O,PR3

     1554     7681    2        KMSGD.DINFO.NAME = KI$ROUTE$(KI$FEI.FEP#)->KI$ROUTE.NODE_NAME;

   7681  1 000664   100012 236100                    LDQ     10,,PR1
         1 000665   000011 772000                    QRL     9
         1 000666   000777 376007                    ANQ     511,DL
         1 000667   000000 474400 xsym               LDP4    KI_ROUTE$$
         1 000670   400000 475506                    LDP5    0,QL,PR4
         1 000671   040100 100500                    MLR     fill='040'O
         1 000672   500000 000010                    ADSC9   0,,PR5                   cn=0,n=8
         1 000673   300002 600010                    ADSC9   2,,PR3                   cn=3,n=8

     1555     7682    2        IF KMSGD.DINFO.NAME ~= ' '

   7682  1 000674   040000 106500                    CMPC    fill='040'O
         1 000675   300002 600010                    ADSC9   2,,PR3                   cn=3,n=8
         1 000676   000035 000001 xsym               ADSC9   B_VECTNIL+29             cn=0,n=1
         1 000677   000716 600000 1                  TZE     s:7685

     1556     7683    2        THEN
     1557     7684    2             CALL OCI$MK_WR (KMSG.CADDR,DFEP_MSG#,5,DLNGS,KMSGD.DINFO);

   7684  1 000700   200003 236100                    LDQ     @KMSG,,AUTO
PL6.E3A0      #004=KIP$KEYIN File=KIP$PMME.:E05TSI                               WED 07/30/97 00:38 Page:280
         1 000701   000001 036003                    ADLQ    1,DU
         1 000702   200110 756100                    STQ     SIZ+7,,AUTO
         1 000703   000022 237000 2                  LDAQ    18
         1 000704   200106 757100                    STAQ    SIZ+5,,AUTO
         1 000705   000021 236000 2                  LDQ     17
         1 000706   200105 756100                    STQ     SIZ+4,,AUTO
         1 000707   200003 236100                    LDQ     @KMSG,,AUTO
         1 000710   400000 036007                    ADLQ    -131072,DL
         1 000711   200104 756100                    STQ     SIZ+3,,AUTO
         1 000712   200104 630500                    EPPR0   SIZ+3,,AUTO
         1 000713   000023 631400 xsym               EPPR1   B_VECTNIL+19
         1 000714   000000 701000 xent               TSX1    OCI$MK_WR
         1 000715   000000 011000                    NOP     0

     1558     7685    2        RETURN;

   7685  1 000716   200102 221300                    LDX1  ! SIZ+1,,AUTO
         1 000717   000001 702211                    TSX2  ! 1,X1

     1559     7686    2   END;
     1560     7687    1   DROUTE: PROC;

   7687  1 000720   200102 741300       DROUTE       STX1  ! SIZ+1,,AUTO

     1561     7688
     1562     7689    2        ROUTE$ = KI$ROUTE$(FEI);

   7689  1 000721   000000 470400 xsym               LDP0    KI_ROUTE$$
         1 000722   200011 720100                    LXL0    FEI,,AUTO
         1 000723   000000 236110                    LDQ     0,X0,PR0
         1 000724   200077 756100                    STQ     ROUTE$,,AUTO

     1563     7690    2        KMSGR.DINFO.FEP = FEI;

   7690  1 000725   200003 471500                    LDP1    @KMSG,,AUTO
         1 000726   200011 235100                    LDA     FEI,,AUTO
         1 000727   100001 755100                    STA     1,,PR1
PL6.E3A0      #004=KIP$KEYIN File=KIP$PMME.:E05TSI                               WED 07/30/97 00:38 Page:281

     1564     7691    2        KMSGR.DINFO.NAME = KI$ROUTE.NODE_NAME;

   7691  1 000730   200077 473500                    LDP3    ROUTE$,,AUTO
         1 000731   040100 100500                    MLR     fill='040'O
         1 000732   300000 000010                    ADSC9   0,,PR3                   cn=0,n=8
         1 000733   100002 000010                    ADSC9   2,,PR1                   cn=0,n=8

     1565     7692    2        IF KI$ROUTE.FEI# ~= 0

   7692  1 000734   300002 236100                    LDQ     2,,PR3
         1 000735   777000 316003                    CANQ    -512,DU
         1 000736   000761 600000 1                  TZE     s:7698

     1566     7693    3        THEN DO;

     1567     7694    3             KMSGR.DINFO.LINKFEP = KI$FEI$(KI$ROUTE.FEI#)->KI$FEI.FEP#;

   7694  1 000737   300002 236100                    LDQ     2,,PR3
         1 000740   000033 772000                    QRL     27
         1 000741   000000 474400 xsym               LDP4    KI_FEI$$
         1 000742   400000 475506                    LDP5    0,QL,PR4
         1 000743   500012 236100                    LDQ     10,,PR5
         1 000744   000022 736000                    QLS     18
         1 000745   100004 552140                    STBQ    4,'40'O,PR1

     1568     7695    3             KMSGR.DINFO.LINKNAME = KI$ROUTE$(KI$FEI$(KI$ROUTE.FEI#)->KI$FEI.FEP#)->
              7695                      KI$ROUTE.NODE_NAME;

   7695  1 000746   300002 236100                    LDQ     2,,PR3
         1 000747   000033 772000                    QRL     27
         1 000750   400000 475506                    LDP5    0,QL,PR4
         1 000751   500012 236100                    LDQ     10,,PR5
         1 000752   000011 772000                    QRL     9
         1 000753   000777 376007                    ANQ     511,DL
         1 000754   000000 475506                    LDP5    0,QL,PR0
         1 000755   040100 100500                    MLR     fill='040'O
PL6.E3A0      #004=KIP$KEYIN File=KIP$PMME.:E05TSI                               WED 07/30/97 00:38 Page:282
         1 000756   500000 000010                    ADSC9   0,,PR5                   cn=0,n=8
         1 000757   100004 200010                    ADSC9   4,,PR1                   cn=1,n=8

     1569     7696    3           END;

   7696  1 000760   000766 710000 1                  TRA     s:7701

     1570     7697    3        ELSE DO;

     1571     7698    3             KMSGR.DINFO.LINKFEP = 0;

   7698  1 000761   000000 236003                    LDQ     0,DU
         1 000762   100004 552140                    STBQ    4,'40'O,PR1

     1572     7699    3             KMSGR.DINFO.LINKNAME = ' ';

   7699  1 000763   040100 100400                    MLR     fill='040'O
         1 000764   000035 000001 xsym               ADSC9   B_VECTNIL+29             cn=0,n=1
         1 000765   100004 200010                    ADSC9   4,,PR1                   cn=1,n=8

     1573     7700    3           END;

     1574     7701    2        KMSGR.DINFO.QOS = KI$ROUTE.CURRENT_QOS;

   7701  1 000766   300002 236100                    LDQ     2,,PR3
         1 000767   100006 552120                    STBQ    6,'20'O,PR1

     1575     7702    2        KMSGR.DINFO.ALT = KI$ROUTE.ALT_QOS;

   7702  1 000770   300002 236100                    LDQ     2,,PR3
         1 000771   100006 552110                    STBQ    6,'10'O,PR1

     1576     7703    2        IF KI$ROUTE.NODE_NAME ~= ' '

   7703  1 000772   040000 106500                    CMPC    fill='040'O
         1 000773   300000 000010                    ADSC9   0,,PR3                   cn=0,n=8
         1 000774   000035 000001 xsym               ADSC9   B_VECTNIL+29             cn=0,n=1
PL6.E3A0      #004=KIP$KEYIN File=KIP$PMME.:E05TSI                               WED 07/30/97 00:38 Page:283
         1 000775   001015 600000 1                  TZE     s:7708

     1577     7704    2        THEN
     1578     7705    2             CALL OCI$MK_WR(KMSG.CADDR,OC_MSG_RTE#,6,RTELNGS,KMSGR.DINFO);

   7705  1 000776   200003 236100                    LDQ     @KMSG,,AUTO
         1 000777   000001 036003                    ADLQ    1,DU
         1 001000   200110 756100                    STQ     SIZ+7,,AUTO
         1 001001   000026 237000 2                  LDAQ    22
         1 001002   200106 757100                    STAQ    SIZ+5,,AUTO
         1 001003   000025 236000 2                  LDQ     21
         1 001004   200105 756100                    STQ     SIZ+4,,AUTO
         1 001005   200003 236100                    LDQ     @KMSG,,AUTO
         1 001006   400000 036007                    ADLQ    -131072,DL
         1 001007   200104 756100                    STQ     SIZ+3,,AUTO
         1 001010   200104 630500                    EPPR0   SIZ+3,,AUTO
         1 001011   000023 631400 xsym               EPPR1   B_VECTNIL+19
         1 001012   000000 701000 xent               TSX1    OCI$MK_WR
         1 001013   000000 011000                    NOP     0
         1 001014   001033 710000 1                  TRA     s:7709

     1579     7706
     1580     7707    2        ELSE
     1581     7708    2             CALL OCI$MK_WR (KMSG.CADDR,NOFE_MSG#,1,DLNGS,KMSGD.DINFO.FEP);

   7708  1 001015   200003 236100                    LDQ     @KMSG,,AUTO
         1 001016   000001 036003                    ADLQ    1,DU
         1 001017   200110 756100                    STQ     SIZ+7,,AUTO
         1 001020   000012 237000 2                  LDAQ    10
         1 001021   200106 757100                    STAQ    SIZ+5,,AUTO
         1 001022   000011 236000 2                  LDQ     9
         1 001023   200105 756100                    STQ     SIZ+4,,AUTO
         1 001024   200003 236100                    LDQ     @KMSG,,AUTO
         1 001025   400000 036007                    ADLQ    -131072,DL
         1 001026   200104 756100                    STQ     SIZ+3,,AUTO
         1 001027   200104 630500                    EPPR0   SIZ+3,,AUTO
         1 001030   000023 631400 xsym               EPPR1   B_VECTNIL+19
PL6.E3A0      #004=KIP$KEYIN File=KIP$PMME.:E05TSI                               WED 07/30/97 00:38 Page:284
         1 001031   000000 701000 xent               TSX1    OCI$MK_WR
         1 001032   000000 011000                    NOP     0

     1582     7709    2        RETURN;

   7709  1 001033   200102 221300                    LDX1  ! SIZ+1,,AUTO
         1 001034   000001 702211                    TSX2  ! 1,X1

CGNM
 Sect OctLoc
   0     000   107110 123124   000000 000000                                    GHST....

LNGS
 Sect OctLoc
   0     002   002001 ******                                                    ....

DLNGS
 Sect OctLoc
   0     003   004001 001001   010*** ******                                    ........

RTELNGS
 Sect OctLoc
   0     005   004010 001010   001001 ******                                    ........

(unnamed)
 Sect OctLoc
   0     007   117160 145162   141164 157162   072040 040040   102162 157141    Operator:   Broa
   0     013   144143 141163   164072 040040                                    dcast:

(unnamed)
 Sect OctLoc
   2     000   000000 006000   000000 000042   000003 600000   000003 006000    ......."........
   2     004   000001 006000   000003 400000   000000 006000   000010 006000    ................
   2     010   000000 000014   000010 006000   000003 006000   000003 006000    ................
   2     014   000000 000044   000014 006000   000004 006000   000002 006000    ...$............
   2     020   000000 000041   000020 006000   000007 006000   000003 006000    ...!............
   2     024   000000 001020   000024 006000   000010 006000   000005 006000    ................
PL6.E3A0      #004=KIP$KEYIN File=KIP$PMME.:E05TSI                               WED 07/30/97 00:38 Page:285
     1583     7710
     1584     7711    2   END DROUTE;
     1585     7712        /**/
     1586     7713    1   END KIP$KEYIN;
     1587     7714        /**/
     1588     7715        /**/

PL6.E3A0      #004=KIP$KEYIN File=KIP$PMME.:E05TSI                               WED 07/30/97 00:38 Page:286
--  Include file information  --

   JG_GHOSTS_C.:E05TOU  is referenced.
   K$RWPARM.:E05TOU  is referenced.
   K_DATA_R.:E05TOU  cannot be made into a system file and is referenced.
   NK_VFC_C.:E05TOU  is referenced.
   HF_LOCK_C.:E05TOU  cannot be made into a system file and is referenced.
   NK_SUBS.:E05TOU  is referenced.
   OC_SUBS_C.:E05TOU  is referenced.
   KI_SUBS_C.:E05TOU  is referenced.
   KV$VDO.:E05TOU  is referenced.
   KI_MACROS_C.:E05TOU  is referenced.
   KC_DATA_R.:E05TOU  cannot be made into a system file and is referenced.
   KL_SUPER_C.:E05TOU  is referenced.
   KI_DATA_R.:E05TOU  cannot be made into a system file and is referenced.
   NK_LDCT_R.:E05TOU  cannot be made into a system file and is referenced.
   KC$CGBLK.:E05TOU  is referenced.
   NK$LDCT.:E05TOU  is referenced.
   B$USER.:E05TOU  cannot be made into a system file and is referenced.
   B$JIT_C.:E05TOU  was found in the system file and is referenced.
   CP_6_C.:E05TOU  was found in the system file and is never referenced.
      No diagnostics issued in procedure KIP$KEYIN.
PL6.E3A0      #004=KIP$KEYIN File=KIP$PMME.:E05TSI                               WED 07/30/97 00:38 Page:287

 **** Variables and constants ****

  ****  Section 000 RoData KIP$KEYIN

  ****  Scalars and arrays  ****
OctLoc.c.b A Datatyp(siz) R M Lvl/name                 OctLoc.c.b A Datatyp(siz) R M Lvl/name

     0-0-0/w STRC(72)    r     1 CGNM                       3-0-0/b UBIN(9)     r     1 DLNGS(0:4)
     2-0-0/b UBIN(9)     r     1 LNGS(0:1)
     5-0-0/b UBIN(9)     r     1 RTELNGS(0:5)

  ****  Auto variables  ****

  ****  Scalars and arrays  ****
OctLoc.c.b A Datatyp(siz) R M Lvl/name                 OctLoc.c.b A Datatyp(siz) R M Lvl/name

     5-0-0/w PTR         r     1 @FEP                       3-0-0/w PTR         r     1 @KMSG
     4-0-0/w PTR         r     1 @SIZE                     11-0-0/w UBIN        r     1 FEI
    12-0-0/w PTR         r     1 FEI$                      *0-0-0/w UBIN        r     1 FEP
    75-0-0/w STRC(72)    r     1 GHNM                      *0-0-0/w STRC(1260)  r     1 KMSG
    *0-0-0/w STRC(1260)  r     1 KMSGD                     *0-0-0/w STRC(1260)  r     1 KMSGR
     6-0-0/w PTR         r     1 LDCT$                     11-0-0/w UBIN        r     1 LDX
    13-0-0/c CHAR(200)   r     1 MSGBUF                    10-0-0/w UBIN        r     1 MSIZ
    77-0-0/w PTR         r     1 ROUTE$                   101-0-0/w UBIN        r     1 SIZ
    *0-0-0/w UBIN        r     1 SIZE                      10-0-0/w UBIN        r     1 UNUM

  ****  SYMREF variables  ****

  ****  Scalars and arrays  ****
OctLoc.c.b A Datatyp(siz) R M Lvl/name                 OctLoc.c.b A Datatyp(siz) R M Lvl/name

     0-0-0/w PTR         r     1 B$JIT$                     0-0-0/w PTR         r     1 B$USRT$
     0-0-0/w STRC(432)   r     1 KC_CSID                    0-0-0/w PTR         r     1 KI_FEI$$
     0-0-0/w UBIN        r     1 KI_MXFE                    0-0-0/w UBIN        r     1 KI_NODES
     0-0-0/w PTR         r     1 KI_ROUTE$$                 0-0-0/w UBIN        r     1 K_NODE#
     0-0-0/d STRC(1404)  r     1 K_RWPARM_CON               0-0-0/w PTR         r     1 N$DCT$$
     0-0-0/w UBIN        r     1 NK_MXLOCAL                 0-0-0/w UBIN        r     1 NK_MXTOTAL
PL6.E3A0      #004=KIP$KEYIN File=KIP$PMME.:E05TSI                               WED 07/30/97 00:38 Page:288
     0-0-0/w UBIN        r     1 S_CUN                      0-0-0/d STRC(1404)  r     1 S_RWPARM

  ****  BASED and DCB variables  ****

  ****  Scalars and arrays  ****
OctLoc.c.b A Datatyp(siz) R M Lvl/name                 OctLoc.c.b A Datatyp(siz) R M Lvl/name

     0-0-0/w STRC(576)   r     1 B$USER(0:0)                0-0-0/w STRC(612)   r     1 KI$FEI
     0-0-0/w PTR         r     1 KI$FEI$(0:0)
     0-0-0/w STRC(216)   r     1 KI$ROUTE
     0-0-0/w PTR         r     1 KI$ROUTE$(0:0)
     0-0-0/d STRC(864)   r     1 NK$LDCT
     0-0-0/w PTR         r     1 NK$LDCT$(0:0)
     0-0-0/c ACHR        r     1 VCHR                       0-0-0/w STRC(72)    r     1 VGHNM


   Procedure KIP$KEYIN requires 541 words for executable code.
   Procedure KIP$KEYIN requires 74 words of local(AUTO) storage.

    No errors detected in file KIP$PMME.:E05TSI    .
PL6.E3A0      #004=KIP$KEYIN File=KIP$PMME.:E05TSI                               WED 07/30/97 00:38 Page:289
          *** CROSS REFERENCE LISTING ***
**     DENOTES     IDENTIFIER DEFINITION
<<                 IDENTIFIER'S VALUE SET
>>                 IDENTIFIER'S VALUE USED
<>                 IDENTIFIER SET AND/OR USED
--                 IDENTIFIER REFERENCED
PL6.E3A0      #004=KIP$KEYIN File=KIP$PMME.:E05TSI                               WED 07/30/97 00:38 Page:290
          MINI XREF LISTING

B$DO.ECCINFO
       162**DCL       163--REDEF
B$JIT.ERR.MID
       389**DCL       389--REDEF
B$JIT$
      7501**DCL       383--IMP-PTR
B$U.MISC
       141**DCL       142--REDEF
B$USER.FLG
       187**DCL      7516>>IF
B$USER.MISC
       217**DCL       218--REDEF
B$USER.MODE
       208**DCL      7515>>IF
B$USRT$
       229**DCL      7515>>IF       7516>>IF
CGNM
      7349**DCL      7527>>ASSIGN
DFEP
      7671**PROC     7577--CALL     7586--CALL
DLNGS
      7499**DCL      7582<>CALL     7684<>CALL     7708<>CALL
DROUTE
      7687**PROC     7596--CALL     7605--CALL
ERROUT
      7627**LABEL    7518--GOTO     7536--GOTO
FEI
      7340**DCL      7341--REDEF    7569<>CALL     7570<<ASSIGN   7571>>IF       7573<<DOINDEX  7574>>ASSIGN
      7585<<DOINDEX  7593<<DOINDEX  7594>>IF       7601<>CALL     7603<<ASSIGN   7604>>IF       7673>>ASSIGN
      7689>>ASSIGN   7690>>ASSIGN
FEI$
      7342**DCL      7370--IMP-PTR  7574<<ASSIGN   7575>>IF       7673<<ASSIGN   7674>>IF       7677>>ASSIGN
PL6.E3A0      #004=KIP$KEYIN File=KIP$PMME.:E05TSI                               WED 07/30/97 00:38 Page:291
      7678>>ASSIGN   7679>>ASSIGN   7680>>ASSIGN   7681>>ASSIGN
FEP
      7303**DCL         8--PROC     7636--ENTRY    7644--IF       7644>>IF
FOUND_FEP
      7582**LABEL    7578--GOTO
GHNM
      7345**DCL      7527<<ASSIGN   7530<>CALL
GHNM.SYSID
      7347**DCL      7528<<ASSIGN
GOTLDCT
      7535**LABEL    7525--GOTO
HFC$LOCK
      6031**DCL-ENT  7540--CALL     7653--CALL
HFC$UNLOCK
      6031**DCL-ENT  7558--CALL     7563--CALL     7662--CALL
KCO$FINDSTA
      7502**DCL-ENT  7530--CALL
KC_CSID
      6969**DCL      7530<>CALL
KI$FEI.BD$
      7405**DCL      7406--REDEF
KI$FEI.BDAD.WADDR
      7407**DCL      7408--REDEF
KI$FEI.BDU#
      7403**DCL      7679>>ASSIGN
KI$FEI.FEP#
      7415**DCL      7575>>IF       7678>>ASSIGN   7681>>ASSIGN   7694>>ASSIGN   7695>>ASSIGN
KI$FEI.FEST
      7375**DCL      7677>>ASSIGN
KI$FEI.PBST.PROB
      7423**DCL      7674>>IF       7680>>ASSIGN
KI$FEI.RCVPB
      7421**DCL      7422--REDEF
KI$FEI$
       495**DCL      7574>>ASSIGN   7673>>ASSIGN   7694>>ASSIGN   7695>>ASSIGN
KI$ROUTE.ALT_QOS
PL6.E3A0      #004=KIP$KEYIN File=KIP$PMME.:E05TSI                               WED 07/30/97 00:38 Page:292
      7459**DCL      7702>>ASSIGN
KI$ROUTE.CURRENT_QOS
      7458**DCL      7701>>ASSIGN
KI$ROUTE.FEI#
      7453**DCL      7692>>IF       7694>>ASSIGN   7695>>ASSIGN
KI$ROUTE.NODE_NAME
      7443**DCL      7681>>ASSIGN   7691>>ASSIGN   7695>>ASSIGN   7703>>IF
KI$ROUTE$
      7495**DCL      7681>>ASSIGN   7689>>ASSIGN   7695>>ASSIGN
KIA$FCNO
      7504**DCL-ENT  7556--CALL     7660--CALL
KIN$CONV_NODENAME
      7507**DCL-ENT  7569--CALL     7601--CALL
KI_FEI$$
       494**DCL       495--IMP-PTR  7574>>ASSIGN   7673>>ASSIGN   7694>>ASSIGN   7695>>ASSIGN
KI_MXFE
       503**DCL      7573>>DOINDEX  7585>>DOINDEX
KI_NODES
       502**DCL      7593>>DOINDEX  7604>>IF
KI_ROUTE$$
       496**DCL      7495--IMP-PTR  7681>>ASSIGN   7689>>ASSIGN   7695>>ASSIGN
KMSG
      7304**DCL         8--PROC     7313--REDEF    7324--REDEF    7636--ENTRY    7639--CALLBLT
KMSG.CADDR
      7306**DCL      7514<>CALL     7582<>CALL     7629<>CALL     7684<>CALL     7705<>CALL     7708<>CALL
KMSG.CNT
      7311**DCL      7531<>CALL     7538>>ASSIGN
KMSG.ERR
      7310**DCL      7517<<ASSIGN   7535<<ASSIGN   7627<<ASSIGN
KMSG.KIN#
      7305**DCL      7512>>DOCASE
KMSG.MSG
      7312**DCL      7531<>CALL     7546>>CALLBLT  7550>>ASSIGN
KMSG.SYSID
      7309**DCL      7514<>CALL     7528>>ASSIGN   7629<>CALL
KMSG.WSN
PL6.E3A0      #004=KIP$KEYIN File=KIP$PMME.:E05TSI                               WED 07/30/97 00:38 Page:293
      7307**DCL      7308--REDEF    7514<>CALL
KMSGD.DINFO
      7316**DCL      7684<>CALL
KMSGD.DINFO.BDU
      7319**DCL      7679<<ASSIGN
KMSGD.DINFO.FEP
      7317**DCL      7570>>ASSIGN   7575>>IF       7582<>CALL     7591>>IF       7678<<ASSIGN   7708<>CALL
KMSGD.DINFO.NAME
      7321**DCL      7681<<ASSIGN   7682>>IF
KMSGD.DINFO.PROB
      7320**DCL      7680<<ASSIGN
KMSGD.DINFO.STATE
      7318**DCL      7675<<ASSIGN   7677<<ASSIGN
KMSGR.DINFO
      7327**DCL      7705<>CALL
KMSGR.DINFO.ALT
      7333**DCL      7702<<ASSIGN
KMSGR.DINFO.FEP
      7328**DCL      7603>>ASSIGN   7690<<ASSIGN
KMSGR.DINFO.LINKFEP
      7330**DCL      7694<<ASSIGN   7698<<ASSIGN
KMSGR.DINFO.LINKNAME
      7331**DCL      7695<<ASSIGN   7699<<ASSIGN
KMSGR.DINFO.NAME
      7329**DCL      7567>>IF       7569<>CALL     7591>>IF       7599>>IF       7601<>CALL     7691<<ASSIGN
KMSGR.DINFO.QOS
      7332**DCL      7701<<ASSIGN
K_NODE#
      6817**DCL      7594>>IF       7644>>IF
K_RWPARM_CON
      6522**DCL      7542>>ASSIGN   7655>>ASSIGN
K_RWPARM_CON.BLKREC
      6548**DCL      6573--REDEF
K_RWPARM_CON.BLKREC.BLKU#
      6549**DCL      6551--REDEF
K_RWPARM_CON.BLKREC.RECU#
PL6.E3A0      #004=KIP$KEYIN File=KIP$PMME.:E05TSI                               WED 07/30/97 00:38 Page:294
      6561**DCL      6563--REDEF
K_RWPARM_CON.DVE.DVBYTE.VFC
      6588**DCL      6589--REDEF
K_RWPARM_CON.DVE.EOMCHAR
      6596**DCL      6600--REDEF
K_RWPARM_CON.ERR
      6660**DCL      6665--REDEF
K_RWPARM_CON.FC
      6624**DCL      6625--REDEF
K_RWPARM_CON.FLDID
      6806**DCL      6807--REDEF
K_RWPARM_CON.FPT$
      6687**DCL      6694--REDEF
K_RWPARM_CON.KEYTYPE
      6813**DCL      6814--REDEF
K_RWPARM_CON.MSG$
      6523**DCL      6529--REDEF
K_RWPARM_CON.MSGID
      6635**DCL      6640--REDEF
K_RWPARM_CON.MSGIDXT
      6648**DCL      6652--REDEF
K_RWPARM_CON.ORG
      6784**DCL      6785--REDEF
K_RWPARM_CON.THDRSZ
      6728**DCL      6732--REDEF
K_RWPARM_CON.VDOFLGS
      6786**DCL      6797--REDEF
LDCT$
      7336**DCL      7521<<ASSIGN   7522>>IF       7522>>IF       7522>>IF       7522>>IF       7522>>IF
      7530<>CALL     7531>>CALL     7540>>CALL     7556>>CALL     7558>>CALL     7563>>CALL     7641<<ASSIGN
      7642>>IF       7644>>IF       7644>>IF       7644>>IF       7644>>IF       7644>>IF       7644>>IF
      7644>>IF       7644>>IF       7653>>CALL     7660>>CALL     7662>>CALL
LDX
      7341**DCL      7520<<DOINDEX  7521>>ASSIGN   7640<<DOINDEX  7641>>ASSIGN
LNGS
      7498**DCL      7629<>CALL
PL6.E3A0      #004=KIP$KEYIN File=KIP$PMME.:E05TSI                               WED 07/30/97 00:38 Page:295
MSGBUF
      7343**DCL      7546<<CALLBLT  7550<<ASSIGN   7552--ASSIGN   7639<<CALLBLT  7656--ASSIGN
MSIZ
      7338**DCL      7339--REDEF    7344--IMP-SIZ  7529<<ASSIGN   7530<>CALL     7538<<ASSIGN   7546>>CALLBLT
      7550>>ASSIGN   7553>>ASSIGN   7638<<ASSIGN   7639>>CALLBLT
N$DCT$$
       481**DCL       481--IMP-PTR  7521>>ASSIGN   7641>>ASSIGN
NFEP
      7573**LABEL    7569--CALLALT  7577--CALLALT  7601--CALLALT  7604--GOTO
NK$LDCT
      6921**DCL      7556<>CALL     7660<>CALL
NK$LDCT.DDT$
      6923**DCL      6923--REDEF
NK$LDCT.DEVNM
      6923**DCL      7531--CALL
NK$LDCT.DFLG.NOSND
      6927**DCL      7644>>IF
NK$LDCT.DFLG.OLDSC
      6926**DCL      7522>>IF       7644>>IF
NK$LDCT.DFLG.OUTPUT
      6925**DCL      7644>>IF
NK$LDCT.IOQ$
      6922**DCL      6923--REDEF
NK$LDCT.LDCTX
      6924**DCL      6924--REDEF
NK$LDCT.LKFLG.ABORTED
      6936**DCL      6937--REDEF
NK$LDCT.LKFLG.ACTIVE
      6940**DCL      7522>>IF
NK$LDCT.LOCK
      6949**DCL      7540<>CALL     7558<>CALL     7563<>CALL     7653<>CALL     7662<>CALL
NK$LDCT.RESCOD
      6929**DCL      7522>>IF       7644>>IF
NK$LDCT.RLCID.LDCTX
      6946**DCL      6946--REDEF
NK$LDCT.RLCID.NODE
PL6.E3A0      #004=KIP$KEYIN File=KIP$PMME.:E05TSI                               WED 07/30/97 00:38 Page:296
      6945**DCL      7644>>IF       7644>>IF
NK$LDCT.STA$
      6942**DCL      6943--REDEF
NK$LDCT.SYMB$
      6921**DCL      6921--REDEF    6921--REDEF    6922--REDEF
NK$LDCT.TERMID.TTYP
      6949**DCL      7644>>IF       7644>>IF
NK$LDCT.USER
      6931**DCL      7522>>IF
NK$LDCT$
       481**DCL      7521>>ASSIGN   7641>>ASSIGN
NK_MXLOCAL
       481**DCL      7520>>DOINDEX  7640>>DOINDEX
NK_MXTOTAL
       481**DCL      7520>>DOINDEX  7640>>DOINDEX
NOSND
      7603**LABEL    7560--GOTO
NTTS
      7533**LABEL    7530--CALLALT
OCI$MK_WR
      7505**DCL-ENT  7531--CALL     7582--CALL     7629--CALL     7684--CALL     7705--CALL     7708--CALL
OCZ$SID_UN
      7503**DCL-ENT  7514--CALL
RET
      7629**LABEL    7514--CALLALT
ROUTE$
      7496**DCL      7442--IMP-PTR  7689<<ASSIGN   7691>>ASSIGN   7692>>IF       7694>>ASSIGN   7695>>ASSIGN
      7701>>ASSIGN   7702>>ASSIGN   7703>>IF
RTELNGS
      7500**DCL      7705<>CALL
SIZ
      7508**DCL      7545<<ASSIGN   7549<<ASSIGN   7553>>ASSIGN
SIZE
      7302**DCL         8--PROC     7636--ENTRY    7638>>ASSIGN   7657>>ASSIGN
S_CUN
      7509**DCL      7543>>IF
PL6.E3A0      #004=KIP$KEYIN File=KIP$PMME.:E05TSI                               WED 07/30/97 00:38 Page:297
S_RWPARM
      7007**DCL      7542<<ASSIGN   7556<>CALL     7655<<ASSIGN   7660<>CALL
S_RWPARM.BLKREC
      7033**DCL      7058--REDEF
S_RWPARM.BLKREC.BLKU#
      7034**DCL      7036--REDEF
S_RWPARM.BLKREC.RECU#
      7046**DCL      7048--REDEF
S_RWPARM.DVE.DVBYTE.VFC
      7073**DCL      7074--REDEF    7554<<ASSIGN   7658<<ASSIGN
S_RWPARM.DVE.EOMCHAR
      7081**DCL      7085--REDEF
S_RWPARM.DVE.VFC
      7085**DCL      7555<<ASSIGN   7659<<ASSIGN
S_RWPARM.ERR
      7145**DCL      7150--REDEF
S_RWPARM.FC
      7109**DCL      7110--REDEF
S_RWPARM.FLDID
      7291**DCL      7292--REDEF
S_RWPARM.FPT$
      7172**DCL      7179--REDEF
S_RWPARM.KEYTYPE
      7298**DCL      7299--REDEF
S_RWPARM.MSG$
      7008**DCL      7014--REDEF    7552<<ASSIGN   7656<<ASSIGN
S_RWPARM.MSGID
      7120**DCL      7125--REDEF
S_RWPARM.MSGIDXT
      7133**DCL      7137--REDEF
S_RWPARM.MSGSZ
      7015**DCL      7553<<ASSIGN   7657<<ASSIGN
S_RWPARM.ORG
      7269**DCL      7270--REDEF
S_RWPARM.THDRSZ
      7213**DCL      7217--REDEF
PL6.E3A0      #004=KIP$KEYIN File=KIP$PMME.:E05TSI                               WED 07/30/97 00:38 Page:298
S_RWPARM.VDOFLGS
      7271**DCL      7282--REDEF
UNUM
      7339**DCL      7514<>CALL     7515>>IF       7516>>IF       7522>>IF
VCHR
      7344**DCL      7639>>CALLBLT
VGHNM.CADDR
      7356**DCL      7531<>CALL
