PL6.E3A0      #005=KIQ$FEBOOT File=KIQ$QMGR.:E05TSI                              WED 07/30/97 00:39 Page:177
      986        1        /*T***********************************************************/
      987        2        /*T*                                                         */
      988        3        /*T* Copyright (c) Bull HN Information Systems Inc., 1997    */
      989        4        /*T*                                                         */
      990        5        /*T***********************************************************/
      991        6
      992        7
      993        8        /*M* KIQ$FEINIT Frontend recovery and reboot routines (historically misnamed) */
      994        9
      995       10
      996       11        KIQ$FEBOOT: PROC(FEI,MLCPDUMP);
      997       12
      998       13        /*K* NAME: KIQ$FEBOOT
      999       14             PURPOSE:
     1000       15                  To perform a boot on a given FEP.
     1001       16             DESCRIPTION:
     1002       17                  KIQ$FEBOOT will perform an boot order on a coupler, initialize
     1003       18                  the circular queues, and send an RUOK message to a given fep.
     1004       19        */
     1005       20
     1006       21        %INCLUDE HF_LOCK_C;
     1007       35        %INCLUDE KI$QHDR;
     1008      187        %INCLUDE KI_DATA_R;
     1009      213        %INCLUDE KI_MACROS_C;
     1010      821        %INCLUDE SS_SCHED_C;
     1011     1054        %INCLUDE S_WSPTD_R;
     1012     1070        %INCLUDE KI_SUBS_C;
     1013     1206        %INCLUDE NK_SUBS;
     1014     1231        %INCLUDE K$RWPARM;
     1015     1617        %INCLUDE K_SUBS_C;
     1016     1650        %INCLUDE KJ_FCNS_C;
     1017     1677        %INCLUDE JG_GHOSTS_C;
     1018     1767        %INCLUDE FP_MACRO_C;
     1019     2039        %INCLUDE NI_DATA_R;
     1020     2476        %INCLUDE NK$LDCT;
     1021     2578
     1022     2579        %KI$CCMD;
PL6.E3A0      #005=KIQ$FEBOOT File=KIQ$QMGR.:E05TSI                              WED 07/30/97 00:39 Page:178
     1023     2594        %KI$CTCW;
     1024     2602        %KI$FEI (STCLASS="BASED(FEI$)");
     1025     2686        %KI_CCMD(NAME=BOOT6,CMD=KIOP_BOOTL6);
     1026     2714        %KI_CTCW(NAME=BOOT4K,L6AD=0,TB=B,CNT=0);
     1027     2723        %KI_CCMD(NAME=INTL6,STCLASS=CONSTANT,CMD=KIOP_INTL6,L66I=%KJ_IPARM_INIT);
     1028     2751        %FP$OPCI (STCLASS=BASED);
     1029     2761        %NK$LDCT;
     1030     2807
     1031     2808    1   DCL FEI UBIN WORD;
     1032     2809    1   DCL FEI$ PTR;
     1033     2810    1   DCL FP_OPCI$$ PTR SYMREF;
     1034     2811    1   DCL F$ PTR;
     1035     2812    1   DCL LDCTX UBIN HALF;
     1036     2813    1   DCL FEILCL UBIN WORD;
     1037     2814    1   DCL S_CUN UBIN WORD SYMREF;
     1038     2815        %K$RWPARM (NAME=K$RWPARM);
     1039     3131    1   DCL MLCPDUMP BIT(1) UNAL;
     1040     3132    1   DCL OCQ$ PTR;
     1041     3133    1   DCL KIQ$LINK ENTRY(2) ALTRET;
     1042     3134    1   DCL MMS$WSQMAP ENTRY(1) ALTRET;
     1043     3135    1   DCL NIS$DCCON ENTRY(3);
     1044     3136    1   DCL SSS$SYSTIME ENTRY(1);
     1045     3137    1   DCL SSR$REG ENTRY(3) ALTRET;
     1046     3138    1   DCL UBNBSD UBIN BASED;
     1047     3139
     1048     3140        %K$RWPARM (NAME=K_RWPARM_CON, STCLASS=SYMREF);
     1049     3456    1   DCL K_NODE# UBIN SYMREF;
     1050     3457        %EJECT;
PL6.E3A0      #005=KIQ$FEBOOT File=KIQ$QMGR.:E05TSI                              WED 07/30/97 00:39 Page:179
     1051     3458    1        FEILCL = FEI ;
     1052     3459    1        FEI$ = KI$FEI$(FEILCL);
     1053     3460
     1054     3461             %LOCK (G=KI$FEI.LOCK);
     1055     3464    1        CALL MMS$WSQMAP(KI$FEI.PTPPNO#);
     1056     3465    1        CALL KIQ$QINIT(FEILCL);
     1057     3466        /* Mask the local FEP so it cannot write into the circular queue
     1058     3467             while it is being initialized
     1059     3468         */
     1060     3469    1        CALL NIS$DCCON (KI$FEI.FECH ,'4'O,KI$FEI.FEWSQ);
     1061     3470
     1062     3471    1        KI$FEI.PBST.PROB  = KIER_OK;
     1063     3472    1        KI$FEI.PBST.STATE  = KIST_MASKED ;
     1064     3473    1        KI$FEI.BD$ ->KI$CTCW = BOOT4K;
     1065     3474    1        OCQ$ = KI$FEI.OCQ$;
     1066     3475    1        OCQ$->KI$QHDR.BDCTL='0'B;
     1067     3476    1        OCQ$->KI$QHDR.BDCTL.MDBFK=(ADDR(KI$FEI.BDSZ )->UBNBSD+1023)/1024;
     1068     3477    1        OCQ$->KI$QHDR.BDCTL.BTPG#=KI$FEI.BDAD.PGA.PAGE ;
     1069     3478    1        OCQ$->KI$QHDR.BDCTL.MLCPDUMP=MLCPDUMP;
     1070     3479    1        OCQ$->KI$QHDR.CCMD=BOOT6;
     1071     3480    1        ADDR(OCQ$->KI$QHDR.CCMD)->KI$CCMD.ADB18=KI$FEI.BDAD.WADDR ;
     1072     3481    1        KI$FEI.TCNT = KI$FEI.TIMEOUT.BOOT;
     1073     3482    1        KI$FEI.FEST  = KIST_BT;
     1074     3483    1        CALL NIS$DCCON (KI$FEI.FECH ,'0'O,KI$FEI.FEWSQ);
     1075     3484
     1076     3485             %UNLOCK (G=KI$FEI.LOCK);
     1077     3488
     1078     3489    1        IF S_CUN ~= JG_FROG#               /* FROG */
     1079     3490    1        THEN CALL SSR$REG(%SS_QA);
     1080     3491    1        RETURN;
     1081     3492        %EJECT;
PL6.E3A0      #005=KIQ$FEBOOT File=KIQ$QMGR.:E05TSI                              WED 07/30/97 00:39 Page:180
     1082     3493    1   KIQ$FESTRT: ENTRY(FEI);
     1083     3494    1        FEILCL = FEI ;
     1084     3495
     1085     3496        /*F*
     1086     3497             NAME: KIQ$FESTART
     1087     3498             PURPOSE:
     1088     3499                  To start a given fep.
     1089     3500             DESCRIPTION:
     1090     3501                  KIQ$FESTRT will initialize the circular queues, unmask the
     1091     3502                  copuler, and then send an RUOK to the fep.
     1092     3503        */
     1093     3504
     1094     3505    1        FEI$ = KI$FEI$ (FEILCL);
     1095     3506             %LOCK (G=KI$FEI.LOCK);
     1096     3509    1        CALL MMS$WSQMAP(KI$FEI.PTPPNO#);
     1097     3510    1        CALL KIQ$QINIT(FEILCL);
     1098     3511    1        KI$FEI.PBST.PROB  = KIER_OK;
     1099     3512    1        KI$FEI.PBST.STATE  = KIST_DN;
     1100     3513    1        KI$FEI.OCQ$->KI$QHDR.CCMD=INTL6;
     1101     3514    1        KI$FEI.FEST  = KIST_TOK;
     1102     3515    1        KI$FEI.TCNT = KITM_TOK;
     1103     3516    1        K$RWPARM = K_RWPARM_CON;
     1104     3517    1        K$RWPARM.FUNCTION = %K_WRITE;
     1105     3518    1        K$RWPARM.FEX = FEI;
     1106     3519
     1107     3520    1        F$ = FP_OPCI$$;
     1108     3521    2        DO WHILE (F$ ~= ADDR(NIL));
     1109     3522    3           IF (F$->FP$OPCI.FEI# = FEILCL) THEN DO;
     1110     3523                   /* If this is an OSAR, send its admin LDCT index in the
     1111     3524                   RUOK message and set its LDCT state to not down     */
     1112     3525    3                N$DCT$(F$->FP$OPCI.LDCTX)->NK$LDCT.DFLG.FEDN = '0'B;
     1113     3526    3                LDCTX = (F$->FP$OPCI.LDCTX/256) * 512 +
     1114     3527    3                  MOD (F$->FP$OPCI.LDCTX,256);
     1115     3528    3                K$RWPARM.MSG$ = ADDR (LDCTX);
     1116     3529    3                K$RWPARM.MSGSZ = SIZEC (LDCTX);
     1117     3530    3                EXIT;
     1118     3531    3             END;
PL6.E3A0      #005=KIQ$FEBOOT File=KIQ$QMGR.:E05TSI                              WED 07/30/97 00:39 Page:181
     1119     3532    2           F$ = F$->FP$OPCI.LNK$;
     1120     3533    2        END;
     1121     3534    1        CALL NIS$DCCON (KI$FEI.FECH ,'0'O,KI$FEI.FEWSQ);
     1122     3535             %UNLOCK (G=KI$FEI.LOCK);
     1123     3538    1        CALL KIQ$LINK(K$RWPARM,%KJ_FCN_RUOK);
     1124     3539    1        RETURN;
     1125     3540        %EJECT;
PL6.E3A0      #005=KIQ$FEBOOT File=KIQ$QMGR.:E05TSI                              WED 07/30/97 00:39 Page:182
     1126     3541    1   KIQ$QINIT: ENTRY (FEI);
     1127     3542    1        FEILCL = FEI ;
     1128     3543    1        FEI$ = KI$FEI$(FEILCL);
     1129     3544
     1130     3545        /*F*
     1131     3546             NAME: KIQ$INIT
     1132     3547             PURPOSE:
     1133     3548                  To initialize the circular queues for a given FEP.
     1134     3549             DESCRIPTION:
     1135     3550                  KIQ$QINIT is called to initialize the queues for a given fep.
     1136     3551        */
     1137     3552
     1138     3553    1        KI$FEI.FROZEN  = '0'B;
     1139     3554    1        KI$FEI.MSI  = 0;
     1140     3555    1        CALL SSS$SYSTIME (KI$FEI.IUTS );
     1141     3556    1        OCQ$=KI$FEI.ICQ$;
     1142     3557    1        CALL CLRQ;
     1143     3558    1        OCQ$=KI$FEI.OCQ$;
     1144     3559    1        CALL CLRQ;
     1145     3560    1        RETURN;
     1146     3561
     1147     3562    1   CLRQ: PROC;
     1148     3563    2        OCQ$->KI$QHDR.GATE='1'B;
     1149     3564    2        OCQ$->KI$QHDR.INTLOCK=0;
     1150     3565    2        OCQ$->KI$QHDR.MYIPTR=0;
     1151     3566    2        OCQ$->KI$QHDR.RPTR=0;
     1152     3567    2        OCQ$->KI$QHDR.IPTR=0;
     1153     3568    2        OCQ$->KI$QHDR.FLG='0'B;
     1154     3569    2        OCQ$->KI$QHDR.HOST_NODE# = K_NODE#;
     1155     3570    2        OCQ$->KI$QHDR.LAST_PTR = 0;
     1156     3571    2        RETURN;
     1157     3572    2   END CLRQ;
     1158     3573
     1159     3574    1   END KIQ$FEBOOT;
     1160     3575        %EOD;

PL6.E3A0      #005=KIQ$FEBOOT File=KIQ$QMGR.:E05TSI                              WED 07/30/97 00:39 Page:183
--  Include file information  --

   NK$LDCT.:E05TOU  is referenced.
   NI$TABLES.:E05TOU  is referenced.
   N$REQ.:E05TOU  is referenced.
   NI_DATA_R.:E05TOU  cannot be made into a system file and is referenced.
   FP_MACRO_C.:E05TOU  is referenced.
   JG_GHOSTS_C.:E05TOU  is referenced.
   KJ_FCNS_C.:E05TOU  is referenced.
   K_SUBS_C.:E05TOU  is referenced.
   K$RWPARM.:E05TOU  is referenced.
   NK_SUBS.:E05TOU  is referenced.
   KI_SUBS_C.:E05TOU  is referenced.
   S_WSPTD_R.:E05TOU  cannot be made into a system file and is referenced.
   SS_SCHED_C.:E05TOU  is referenced.
   KI_MACROS_C.:E05TOU  is referenced.
   KI_DATA_R.:E05TOU  cannot be made into a system file and is referenced.
   KI$QHDR.:E05TOU  cannot be made into a system file and is referenced.
   HF_LOCK_C.:E05TOU  cannot be made into a system file and is referenced.
      No diagnostics issued in procedure KIQ$FEBOOT.

   Procedure KIQ$FEBOOT requires 250 words for executable code.
   Procedure KIQ$FEBOOT requires 58 words of local(AUTO) storage.

PL6.E3A0      #005=KIQ$FEBOOT File=KIQ$QMGR.:E05TSI                              WED 07/30/97 00:39 Page:184

 Object Unit name= KIQ$FEBOOT                                 File name= KIQ$QMGR.:E05TOU
 UTS= JUL 30 '97 00:39:49.92 WED                              Compiler= PL-6/E31         Sev=      00
 SharedLib= :SHARED_SYSTEM                                    Alt SharedLib=


    ****  Control sections  ****

 Sect   Type Bound  Init  Size OctSiz  Section name(segment info)
    0  RoData even  UTS      3      3  KIQ$FEBOOT
    1   Proc  even  none   250    372  KIQ$FEBOOT
    2  RoData even  none     7      7  KIQ$FEBOOT

    ****  Entry defs  ****

                              Check   Calling
                             calling  sequence
  Sect OctLoc Primary Altret sequence   type   Parms  Name
     1      0   yes            yes      Std        2  KIQ$FEBOOT
     1    143                  yes      Std        1  KIQ$FESTRT
     1    310                  yes      Std        1  KIQ$QINIT

  ****  Entry refs  ****

         Check        Calling
        calling       sequence
Altret sequence SRef   type   Args  Name
         yes           Std       1 HFC$LOCK
 yes     yes           Std       1 MMS$WSQMAP
         yes           Std       1 HFC$UNLOCK
 yes     yes           Std       3 SSR$REG
 yes     yes           Std       2 KIQ$LINK
         yes           Std       1 SSS$SYSTIME
         yes           Std       3 NIS$DCCON
                       nStd      0 X66_AUTO_2
                       Std       0 B_CONSPOOL_D
                       nStd      0 X66_ARET
PL6.E3A0      #005=KIQ$FEBOOT File=KIQ$QMGR.:E05TSI                              WED 07/30/97 00:39 Page:185

  ****  Data refs  ****

  Flags:  r = read only, s = secondary
Flgs Name                             Flgs Name                             Flgs Name
     KI_FEI$$                              N$DCT$$                               N$FQ$
     NI$FQ$                                NI$IBUF$                              NI$RP$
     FP_OPCI$$                             S_CUN                                 K_RWPARM_CON
     K_NODE#                               B_VECTNIL

  ****  Segment refs  ****

  Flags:  r = read only, s = secondary
Flgs Name                             Flgs Name                             Flgs Name
     ISSID
PL6.E3A0      #005=KIQ$FEBOOT File=KIQ$QMGR.:E05TSI                              WED 07/30/97 00:39 Page:186


      986        1        /*T***********************************************************/
      987        2        /*T*                                                         */
      988        3        /*T* Copyright (c) Bull HN Information Systems Inc., 1997    */
      989        4        /*T*                                                         */
      990        5        /*T***********************************************************/
      991        6
      992        7
      993        8        /*M* KIQ$FEINIT Frontend recovery and reboot routines (historically misnamed) */
      994        9
      995       10
      996       11        KIQ$FEBOOT: PROC(FEI,MLCPDUMP);

     11  1 000000   000000 700200 xent  KIQ$FEBOOT   TSX0  ! X66_AUTO_2
         1 000001   000072 000002                    ZERO    58,2

      997       12
      998       13        /*K* NAME: KIQ$FEBOOT
      999       14             PURPOSE:
     1000       15                  To perform a boot on a given FEP.
     1001       16             DESCRIPTION:
     1002       17                  KIQ$FEBOOT will perform an boot order on a coupler, initialize
     1003       18                  the circular queues, and send an RUOK message to a given fep.
     1004       19        */
     1005       20
     1006       21        %INCLUDE HF_LOCK_C;
     1007       35        %INCLUDE KI$QHDR;
     1008      187        %INCLUDE KI_DATA_R;
     1009      213        %INCLUDE KI_MACROS_C;
     1010      821        %INCLUDE SS_SCHED_C;
     1011     1054        %INCLUDE S_WSPTD_R;
     1012     1070        %INCLUDE KI_SUBS_C;
     1013     1206        %INCLUDE NK_SUBS;
     1014     1231        %INCLUDE K$RWPARM;
     1015     1617        %INCLUDE K_SUBS_C;
     1016     1650        %INCLUDE KJ_FCNS_C;
     1017     1677        %INCLUDE JG_GHOSTS_C;
PL6.E3A0      #005=KIQ$FEBOOT File=KIQ$QMGR.:E05TSI                              WED 07/30/97 00:39 Page:187
     1018     1767        %INCLUDE FP_MACRO_C;
     1019     2039        %INCLUDE NI_DATA_R;
     1020     2476        %INCLUDE NK$LDCT;
     1021     2578
     1022     2579        %KI$CCMD;
     1023     2594        %KI$CTCW;
     1024     2602        %KI$FEI (STCLASS="BASED(FEI$)");
     1025     2686        %KI_CCMD(NAME=BOOT6,CMD=KIOP_BOOTL6);
     1026     2714        %KI_CTCW(NAME=BOOT4K,L6AD=0,TB=B,CNT=0);
     1027     2723        %KI_CCMD(NAME=INTL6,STCLASS=CONSTANT,CMD=KIOP_INTL6,L66I=%KJ_IPARM_INIT);
     1028     2751        %FP$OPCI (STCLASS=BASED);
     1029     2761        %NK$LDCT;
     1030     2807
     1031     2808    1   DCL FEI UBIN WORD;
     1032     2809    1   DCL FEI$ PTR;
     1033     2810    1   DCL FP_OPCI$$ PTR SYMREF;
     1034     2811    1   DCL F$ PTR;
     1035     2812    1   DCL LDCTX UBIN HALF;
     1036     2813    1   DCL FEILCL UBIN WORD;
     1037     2814    1   DCL S_CUN UBIN WORD SYMREF;
     1038     2815        %K$RWPARM (NAME=K$RWPARM);
     1039     3131    1   DCL MLCPDUMP BIT(1) UNAL;
     1040     3132    1   DCL OCQ$ PTR;
     1041     3133    1   DCL KIQ$LINK ENTRY(2) ALTRET;
     1042     3134    1   DCL MMS$WSQMAP ENTRY(1) ALTRET;
     1043     3135    1   DCL NIS$DCCON ENTRY(3);
     1044     3136    1   DCL SSS$SYSTIME ENTRY(1);
     1045     3137    1   DCL SSR$REG ENTRY(3) ALTRET;
     1046     3138    1   DCL UBNBSD UBIN BASED;
     1047     3139
     1048     3140        %K$RWPARM (NAME=K_RWPARM_CON, STCLASS=SYMREF);
     1049     3456    1   DCL K_NODE# UBIN SYMREF;
     1050     3457        %EJECT;
PL6.E3A0      #005=KIQ$FEBOOT File=KIQ$QMGR.:E05TSI                              WED 07/30/97 00:39 Page:188
     1051     3458    1        FEILCL = FEI ;

   3458  1 000002   200003 470500                    LDP0    @FEI,,AUTO
         1 000003   000000 235100                    LDA     0,,PR0
         1 000004   200010 755100                    STA     FEILCL,,AUTO

     1052     3459    1        FEI$ = KI$FEI$(FEILCL);

   3459  1 000005   000000 471400 xsym               LDP1    KI_FEI$$
         1 000006   100000 236105                    LDQ     0,AL,PR1
         1 000007   200005 756100                    STQ     FEI$,,AUTO

     1053     3460
     1054     3461             %LOCK (G=KI$FEI.LOCK);

   3462  1 000010   200005 630500                    EPPR0   FEI$,,AUTO
         1 000011   000017 631400 xsym               EPPR1   B_VECTNIL+15
         1 000012   000000 701000 xent               TSX1    HFC$LOCK
         1 000013   000000 011000                    NOP     0

     1055     3464    1        CALL MMS$WSQMAP(KI$FEI.PTPPNO#);

   3464  1 000014   200005 236100                    LDQ     FEI$,,AUTO
         1 000015   000014 036003                    ADLQ    12,DU
         1 000016   200066 756100                    STQ     OCQ$+4,,AUTO
         1 000017   200066 630500                    EPPR0   OCQ$+4,,AUTO
         1 000020   000017 631400 xsym               EPPR1   B_VECTNIL+15
         1 000021   000000 701000 xent               TSX1    MMS$WSQMAP
         1 000022   000000 011000                    NOP     0

     1056     3465    1        CALL KIQ$QINIT(FEILCL);

   3465  1 000023   200010 630500                    EPPR0   FEILCL,,AUTO
         1 000024   200066 450500                    STP0    OCQ$+4,,AUTO
         1 000025   200066 630500                    EPPR0   OCQ$+4,,AUTO
         1 000026   000017 631400 xsym               EPPR1   B_VECTNIL+15
         1 000027   000310 701000 1                  TSX1    s:3541
PL6.E3A0      #005=KIQ$FEBOOT File=KIQ$QMGR.:E05TSI                              WED 07/30/97 00:39 Page:189
         1 000030   000000 011000                    NOP     0

     1057     3466        /* Mask the local FEP so it cannot write into the circular queue
     1058     3467             while it is being initialized
     1059     3468         */
     1060     3469    1        CALL NIS$DCCON (KI$FEI.FECH ,'4'O,KI$FEI.FEWSQ);

   3469  1 000031   200005 236100                    LDQ     FEI$,,AUTO
         1 000032   000005 036003                    ADLQ    5,DU
         1 000033   200070 756100                    STQ     OCQ$+6,,AUTO
         1 000034   000000 236000 2                  LDQ     0
         1 000035   200067 756100                    STQ     OCQ$+5,,AUTO
         1 000036   200005 236100                    LDQ     FEI$,,AUTO
         1 000037   000002 036003                    ADLQ    2,DU
         1 000040   200066 756100                    STQ     OCQ$+4,,AUTO
         1 000041   200066 630500                    EPPR0   OCQ$+4,,AUTO
         1 000042   000021 631400 xsym               EPPR1   B_VECTNIL+17
         1 000043   000000 701000 xent               TSX1    NIS$DCCON
         1 000044   000000 011000                    NOP     0

     1061     3470
     1062     3471    1        KI$FEI.PBST.PROB  = KIER_OK;

   3471  1 000045   000000 220003                    LDX0    0,DU
         1 000046   200005 470500                    LDP0    FEI$,,AUTO
         1 000047   000015 740100                    STX0    13,,PR0

     1063     3472    1        KI$FEI.PBST.STATE  = KIST_MASKED ;

   3472  1 000050   000007 221003                    LDX1    7,DU
         1 000051   000015 441100                    SXL1    13,,PR0

     1064     3473    1        KI$FEI.BD$ ->KI$CTCW = BOOT4K;

   3473  1 000052   000010 471500                    LDP1    8,,PR0
         1 000053   000001 236000 0                  LDQ     BOOT4K
         1 000054   100000 756100                    STQ     0,,PR1
PL6.E3A0      #005=KIQ$FEBOOT File=KIQ$QMGR.:E05TSI                              WED 07/30/97 00:39 Page:190

     1065     3474    1        OCQ$ = KI$FEI.OCQ$;

   3474  1 000055   000003 236100                    LDQ     3,,PR0
         1 000056   200062 756100                    STQ     OCQ$,,AUTO

     1066     3475    1        OCQ$->KI$QHDR.BDCTL='0'B;

   3475  1 000057   200062 471500                    LDP1    OCQ$,,AUTO
         1 000060   100001 450100                    STZ     1,,PR1

     1067     3476    1        OCQ$->KI$QHDR.BDCTL.MDBFK=(ADDR(KI$FEI.BDSZ )->UBNBSD+1023)/1024;

   3476  1 000061   000011 236100                    LDQ     9,,PR0
         1 000062   001777 036007                    ADLQ    1023,DL
         1 000063   000012 772000                    QRL     10
         1 000064   000011 736000                    QLS     9
         1 000065   100001 676100                    ERQ     1,,PR1
         1 000066   377000 376007                    ANQ     130560,DL
         1 000067   100001 656100                    ERSQ    1,,PR1

     1068     3477    1        OCQ$->KI$QHDR.BDCTL.BTPG#=KI$FEI.BDAD.PGA.PAGE ;

   3477  1 000070   000010 236100                    LDQ     8,,PR0
         1 000071   000012 772000                    QRL     10
         1 000072   100001 676100                    ERQ     1,,PR1
         1 000073   000377 376003                    ANQ     255,DU
         1 000074   100001 656100                    ERSQ    1,,PR1

     1069     3478    1        OCQ$->KI$QHDR.BDCTL.MLCPDUMP=MLCPDUMP;

   3478  1 000075   200004 473500                    LDP3    @MLCPDUMP,,AUTO
         1 000076   003100 060500                    CSL     bolr='003'O
         1 000077   300000 000001                    BDSC    0,,PR3                   by=0,bit=0,n=1
         1 000100   100001 010001                    BDSC    1,,PR1                   by=0,bit=1,n=1

     1070     3479    1        OCQ$->KI$QHDR.CCMD=BOOT6;
PL6.E3A0      #005=KIQ$FEBOOT File=KIQ$QMGR.:E05TSI                              WED 07/30/97 00:39 Page:191

   3479  1 000101   000000 236000 0                  LDQ     BOOT6
         1 000102   100000 756100                    STQ     0,,PR1

     1071     3480    1        ADDR(OCQ$->KI$QHDR.CCMD)->KI$CCMD.ADB18=KI$FEI.BDAD.WADDR ;

   3480  1 000103   000010 222100                    LDX2    8,,PR0
         1 000104   100000 742100                    STX2    0,,PR1

     1072     3481    1        KI$FEI.TCNT = KI$FEI.TIMEOUT.BOOT;

   3481  1 000105   000020 236100                    LDQ     16,,PR0
         1 000106   000033 772000                    QRL     27
         1 000107   000000 623006                    EAX3    0,QL
         1 000110   000002 443100                    SXL3    2,,PR0

     1073     3482    1        KI$FEI.FEST  = KIST_BT;

   3482  1 000111   000006 236003                    LDQ     6,DU
         1 000112   000002 552120                    STBQ    2,'20'O,PR0

     1074     3483    1        CALL NIS$DCCON (KI$FEI.FECH ,'0'O,KI$FEI.FEWSQ);

   3483  1 000113   200005 236100                    LDQ     FEI$,,AUTO
         1 000114   000005 036003                    ADLQ    5,DU
         1 000115   200070 756100                    STQ     OCQ$+6,,AUTO
         1 000116   000001 236000 2                  LDQ     1
         1 000117   200067 756100                    STQ     OCQ$+5,,AUTO
         1 000120   200005 236100                    LDQ     FEI$,,AUTO
         1 000121   000002 036003                    ADLQ    2,DU
         1 000122   200066 756100                    STQ     OCQ$+4,,AUTO
         1 000123   200066 630500                    EPPR0   OCQ$+4,,AUTO
         1 000124   000021 631400 xsym               EPPR1   B_VECTNIL+17
         1 000125   000000 701000 xent               TSX1    NIS$DCCON
         1 000126   000000 011000                    NOP     0

     1075     3484
PL6.E3A0      #005=KIQ$FEBOOT File=KIQ$QMGR.:E05TSI                              WED 07/30/97 00:39 Page:192
     1076     3485             %UNLOCK (G=KI$FEI.LOCK);

   3486  1 000127   200005 630500                    EPPR0   FEI$,,AUTO
         1 000130   000017 631400 xsym               EPPR1   B_VECTNIL+15
         1 000131   000000 701000 xent               TSX1    HFC$UNLOCK
         1 000132   000000 011000                    NOP     0

     1077     3488
     1078     3489    1        IF S_CUN ~= JG_FROG#               /* FROG */

   3489  1 000133   000000 235000 xsym               LDA     S_CUN
         1 000134   000010 115007                    CMPA    8,DL
         1 000135   000142 600000 1                  TZE     s:3491

     1079     3490    1        THEN CALL SSR$REG(%SS_QA);

   3490  1 000136   000003 630400 2                  EPPR0   3
         1 000137   000017 631400 xsym               EPPR1   B_VECTNIL+15
         1 000140   000000 701000 xent               TSX1    SSR$REG
         1 000141   000000 011000                    NOP     0

     1080     3491    1        RETURN;

   3491  1 000142   000000 702200 xent               TSX2  ! X66_ARET

     1081     3492        %EJECT;
PL6.E3A0      #005=KIQ$FEBOOT File=KIQ$QMGR.:E05TSI                              WED 07/30/97 00:39 Page:193
     1082     3493    1   KIQ$FESTRT: ENTRY(FEI);

   3493  1 000143   000000 700200 xent  KIQ$FESTRT   TSX0  ! X66_AUTO_2
         1 000144   000072 000002                    ZERO    58,2

     1083     3494    1        FEILCL = FEI ;

   3494  1 000145   200003 470500                    LDP0    @FEI,,AUTO
         1 000146   000000 235100                    LDA     0,,PR0
         1 000147   200010 755100                    STA     FEILCL,,AUTO

     1084     3495
     1085     3496        /*F*
     1086     3497             NAME: KIQ$FESTART
     1087     3498             PURPOSE:
     1088     3499                  To start a given fep.
     1089     3500             DESCRIPTION:
     1090     3501                  KIQ$FESTRT will initialize the circular queues, unmask the
     1091     3502                  copuler, and then send an RUOK to the fep.
     1092     3503        */
     1093     3504
     1094     3505    1        FEI$ = KI$FEI$ (FEILCL);

   3505  1 000150   000000 471400 xsym               LDP1    KI_FEI$$
         1 000151   100000 236105                    LDQ     0,AL,PR1
         1 000152   200005 756100                    STQ     FEI$,,AUTO

     1095     3506             %LOCK (G=KI$FEI.LOCK);

   3507  1 000153   200005 630500                    EPPR0   FEI$,,AUTO
         1 000154   000017 631400 xsym               EPPR1   B_VECTNIL+15
         1 000155   000000 701000 xent               TSX1    HFC$LOCK
         1 000156   000000 011000                    NOP     0

     1096     3509    1        CALL MMS$WSQMAP(KI$FEI.PTPPNO#);

   3509  1 000157   200005 236100                    LDQ     FEI$,,AUTO
PL6.E3A0      #005=KIQ$FEBOOT File=KIQ$QMGR.:E05TSI                              WED 07/30/97 00:39 Page:194
         1 000160   000014 036003                    ADLQ    12,DU
         1 000161   200066 756100                    STQ     OCQ$+4,,AUTO
         1 000162   200066 630500                    EPPR0   OCQ$+4,,AUTO
         1 000163   000017 631400 xsym               EPPR1   B_VECTNIL+15
         1 000164   000000 701000 xent               TSX1    MMS$WSQMAP
         1 000165   000000 011000                    NOP     0

     1097     3510    1        CALL KIQ$QINIT(FEILCL);

   3510  1 000166   200010 630500                    EPPR0   FEILCL,,AUTO
         1 000167   200066 450500                    STP0    OCQ$+4,,AUTO
         1 000170   200066 630500                    EPPR0   OCQ$+4,,AUTO
         1 000171   000017 631400 xsym               EPPR1   B_VECTNIL+15
         1 000172   000310 701000 1                  TSX1    s:3541
         1 000173   000000 011000                    NOP     0

     1098     3511    1        KI$FEI.PBST.PROB  = KIER_OK;

   3511  1 000174   000000 220003                    LDX0    0,DU
         1 000175   200005 470500                    LDP0    FEI$,,AUTO
         1 000176   000015 740100                    STX0    13,,PR0

     1099     3512    1        KI$FEI.PBST.STATE  = KIST_DN;

   3512  1 000177   000015 440100                    SXL0    13,,PR0

     1100     3513    1        KI$FEI.OCQ$->KI$QHDR.CCMD=INTL6;

   3513  1 000200   000003 471500                    LDP1    3,,PR0
         1 000201   000002 236000 0                  LDQ     INTL6
         1 000202   100000 756100                    STQ     0,,PR1

     1101     3514    1        KI$FEI.FEST  = KIST_TOK;

   3514  1 000203   000001 236003                    LDQ     1,DU
         1 000204   000002 552120                    STBQ    2,'20'O,PR0

PL6.E3A0      #005=KIQ$FEBOOT File=KIQ$QMGR.:E05TSI                              WED 07/30/97 00:39 Page:195
     1102     3515    1        KI$FEI.TCNT = KITM_TOK;

   3515  1 000205   000003 221003                    LDX1    3,DU
         1 000206   000002 441100                    SXL1    2,,PR0

     1103     3516    1        K$RWPARM = K_RWPARM_CON;

   3516  1 000207   000100 100400                    MLR     fill='000'O
         1 000210   000000 000234 xsym               ADSC9   K_RWPARM_CON             cn=0,n=156
         1 000211   200012 000234                    ADSC9   K$RWPARM,,AUTO           cn=0,n=156

     1104     3517    1        K$RWPARM.FUNCTION = %K_WRITE;

   3517  1 000212   000001 235007                    LDA     1,DL
         1 000213   200032 755100                    STA     K$RWPARM+16,,AUTO

     1105     3518    1        K$RWPARM.FEX = FEI;

   3518  1 000214   200003 471500                    LDP1    @FEI,,AUTO
         1 000215   100000 235100                    LDA     0,,PR1
         1 000216   200033 755100                    STA     K$RWPARM+17,,AUTO

     1106     3519
     1107     3520    1        F$ = FP_OPCI$$;

   3520  1 000217   000000 236000 xsym               LDQ     FP_OPCI$$
         1 000220   200006 756100                    STQ     F$,,AUTO

     1108     3521    2        DO WHILE (F$ ~= ADDR(NIL));

   3521  1 000221   000255 710000 1                  TRA     s:3533

     1109     3522    3           IF (F$->FP$OPCI.FEI# = FEILCL) THEN DO;

   3522  1 000222   200006 470500                    LDP0    F$,,AUTO
         1 000223   000001 236100                    LDQ     1,,PR0
         1 000224   200010 116100                    CMPQ    FEILCL,,AUTO
PL6.E3A0      #005=KIQ$FEBOOT File=KIQ$QMGR.:E05TSI                              WED 07/30/97 00:39 Page:196
         1 000225   000253 601000 1                  TNZ     s:3532

     1110     3523                   /* If this is an OSAR, send its admin LDCT index in the
     1111     3524                   RUOK message and set its LDCT state to not down     */
     1112     3525    3                N$DCT$(F$->FP$OPCI.LDCTX)->NK$LDCT.DFLG.FEDN = '0'B;

   3525  1 000226   000002 720100                    LXL0    2,,PR0
         1 000227   000000 471400 xsym               LDP1    N$DCT$$
         1 000230   100000 473510                    LDP3    0,X0,PR1
         1 000231   000004 236000 2                  LDQ     4
         1 000232   300006 356100                    ANSQ    6,,PR3

     1113     3526    3                LDCTX = (F$->FP$OPCI.LDCTX/256) * 512 +

   3526  1 000233   000002 236100                    LDQ     2,,PR0
         1 000234   000010 772000                    QRL     8
         1 000235   200066 756100                    STQ     OCQ$+4,,AUTO
         1 000236   000002 236100                    LDQ     2,,PR0
         1 000237   000377 376007                    ANQ     255,DL
         1 000240   200067 756100                    STQ     OCQ$+5,,AUTO
         1 000241   200066 236100                    LDQ     OCQ$+4,,AUTO
         1 000242   000011 736000                    QLS     9
         1 000243   200067 036100                    ADLQ    OCQ$+5,,AUTO
         1 000244   000000 620006                    EAX0    0,QL
         1 000245   200007 740100                    STX0    LDCTX,,AUTO

     1114     3527    3                  MOD (F$->FP$OPCI.LDCTX,256);
     1115     3528    3                K$RWPARM.MSG$ = ADDR (LDCTX);

   3528  1 000246   200007 633500                    EPPR3   LDCTX,,AUTO
         1 000247   200012 453500                    STP3    K$RWPARM,,AUTO

     1116     3529    3                K$RWPARM.MSGSZ = SIZEC (LDCTX);

   3529  1 000250   000004 235007                    LDA     4,DL
         1 000251   200013 755100                    STA     K$RWPARM+1,,AUTO

PL6.E3A0      #005=KIQ$FEBOOT File=KIQ$QMGR.:E05TSI                              WED 07/30/97 00:39 Page:197
     1117     3530    3                EXIT;

   3530  1 000252   000253 710000 1                  TRA     s:3532

     1118     3531    3             END;
     1119     3532    2           F$ = F$->FP$OPCI.LNK$;

   3532  1 000253   000000 236100                    LDQ     0,,PR0
         1 000254   200006 756100                    STQ     F$,,AUTO

     1120     3533    2        END;

   3533  1 000255   000001 116000 xsym               CMPQ    B_VECTNIL+1
         1 000256   000222 601000 1                  TNZ     s:3522

     1121     3534    1        CALL NIS$DCCON (KI$FEI.FECH ,'0'O,KI$FEI.FEWSQ);

   3534  1 000257   200005 236100                    LDQ     FEI$,,AUTO
         1 000260   000005 036003                    ADLQ    5,DU
         1 000261   200070 756100                    STQ     OCQ$+6,,AUTO
         1 000262   000001 236000 2                  LDQ     1
         1 000263   200067 756100                    STQ     OCQ$+5,,AUTO
         1 000264   200005 236100                    LDQ     FEI$,,AUTO
         1 000265   000002 036003                    ADLQ    2,DU
         1 000266   200066 756100                    STQ     OCQ$+4,,AUTO
         1 000267   200066 630500                    EPPR0   OCQ$+4,,AUTO
         1 000270   000021 631400 xsym               EPPR1   B_VECTNIL+17
         1 000271   000000 701000 xent               TSX1    NIS$DCCON
         1 000272   000000 011000                    NOP     0

     1122     3535             %UNLOCK (G=KI$FEI.LOCK);

   3536  1 000273   200005 630500                    EPPR0   FEI$,,AUTO
         1 000274   000017 631400 xsym               EPPR1   B_VECTNIL+15
         1 000275   000000 701000 xent               TSX1    HFC$UNLOCK
         1 000276   000000 011000                    NOP     0

PL6.E3A0      #005=KIQ$FEBOOT File=KIQ$QMGR.:E05TSI                              WED 07/30/97 00:39 Page:198
     1123     3538    1        CALL KIQ$LINK(K$RWPARM,%KJ_FCN_RUOK);

   3538  1 000277   000006 236000 2                  LDQ     6
         1 000300   200067 756100                    STQ     OCQ$+5,,AUTO
         1 000301   200012 630500                    EPPR0   K$RWPARM,,AUTO
         1 000302   200066 450500                    STP0    OCQ$+4,,AUTO
         1 000303   200066 630500                    EPPR0   OCQ$+4,,AUTO
         1 000304   000020 631400 xsym               EPPR1   B_VECTNIL+16
         1 000305   000000 701000 xent               TSX1    KIQ$LINK
         1 000306   000000 011000                    NOP     0

     1124     3539    1        RETURN;

   3539  1 000307   000000 702200 xent               TSX2  ! X66_ARET

     1125     3540        %EJECT;
PL6.E3A0      #005=KIQ$FEBOOT File=KIQ$QMGR.:E05TSI                              WED 07/30/97 00:39 Page:199
     1126     3541    1   KIQ$QINIT: ENTRY (FEI);

   3541  1 000310   000000 700200 xent  KIQ$QINIT    TSX0  ! X66_AUTO_2
         1 000311   000072 000002                    ZERO    58,2

     1127     3542    1        FEILCL = FEI ;

   3542  1 000312   200003 470500                    LDP0    @FEI,,AUTO
         1 000313   000000 235100                    LDA     0,,PR0
         1 000314   200010 755100                    STA     FEILCL,,AUTO

     1128     3543    1        FEI$ = KI$FEI$(FEILCL);

   3543  1 000315   000000 471400 xsym               LDP1    KI_FEI$$
         1 000316   100000 236105                    LDQ     0,AL,PR1
         1 000317   200005 756100                    STQ     FEI$,,AUTO

     1129     3544
     1130     3545        /*F*
     1131     3546             NAME: KIQ$INIT
     1132     3547             PURPOSE:
     1133     3548                  To initialize the circular queues for a given FEP.
     1134     3549             DESCRIPTION:
     1135     3550                  KIQ$QINIT is called to initialize the queues for a given fep.
     1136     3551        */
     1137     3552
     1138     3553    1        KI$FEI.FROZEN  = '0'B;

   3553  1 000320   200005 473500                    LDP3    FEI$,,AUTO
         1 000321   000031 236000 xsym               LDQ     B_VECTNIL+25
         1 000322   300007 356100                    ANSQ    7,,PR3

     1139     3554    1        KI$FEI.MSI  = 0;

   3554  1 000323   000000 220003                    LDX0    0,DU
         1 000324   300007 440100                    SXL0    7,,PR3

PL6.E3A0      #005=KIQ$FEBOOT File=KIQ$QMGR.:E05TSI                              WED 07/30/97 00:39 Page:200
     1140     3555    1        CALL SSS$SYSTIME (KI$FEI.IUTS );

   3555  1 000325   200005 236100                    LDQ     FEI$,,AUTO
         1 000326   000006 036003                    ADLQ    6,DU
         1 000327   200066 756100                    STQ     OCQ$+4,,AUTO
         1 000330   200066 630500                    EPPR0   OCQ$+4,,AUTO
         1 000331   000017 631400 xsym               EPPR1   B_VECTNIL+15
         1 000332   000000 701000 xent               TSX1    SSS$SYSTIME
         1 000333   000000 011000                    NOP     0

     1141     3556    1        OCQ$=KI$FEI.ICQ$;

   3556  1 000334   200005 470500                    LDP0    FEI$,,AUTO
         1 000335   000004 236100                    LDQ     4,,PR0
         1 000336   200062 756100                    STQ     OCQ$,,AUTO

     1142     3557    1        CALL CLRQ;

   3557  1 000337   000347 701000 1                  TSX1    CLRQ
         1 000340   000000 011000                    NOP     0

     1143     3558    1        OCQ$=KI$FEI.OCQ$;

   3558  1 000341   200005 470500                    LDP0    FEI$,,AUTO
         1 000342   000003 236100                    LDQ     3,,PR0
         1 000343   200062 756100                    STQ     OCQ$,,AUTO

     1144     3559    1        CALL CLRQ;

   3559  1 000344   000347 701000 1                  TSX1    CLRQ
         1 000345   000000 011000                    NOP     0

     1145     3560    1        RETURN;

   3560  1 000346   000000 702200 xent               TSX2  ! X66_ARET

     1146     3561
PL6.E3A0      #005=KIQ$FEBOOT File=KIQ$QMGR.:E05TSI                              WED 07/30/97 00:39 Page:201
     1147     3562    1   CLRQ: PROC;

   3562  1 000347   200064 741300       CLRQ         STX1  ! OCQ$+2,,AUTO

     1148     3563    2        OCQ$->KI$QHDR.GATE='1'B;

   3563  1 000350   400000 235003                    LDA     -131072,DU
         1 000351   000000 236003                    LDQ     0,DU
         1 000352   200062 470500                    LDP0    OCQ$,,AUTO
         1 000353   000006 757100                    STAQ    6,,PR0

     1149     3564    2        OCQ$->KI$QHDR.INTLOCK=0;

   3564  1 000354   000004 450100                    STZ     4,,PR0

     1150     3565    2        OCQ$->KI$QHDR.MYIPTR=0;

   3565  1 000355   000010 450100                    STZ     8,,PR0

     1151     3566    2        OCQ$->KI$QHDR.RPTR=0;

   3566  1 000356   000017 236007                    LDQ     15,DL
         1 000357   000011 356100                    ANSQ    9,,PR0

     1152     3567    2        OCQ$->KI$QHDR.IPTR=0;

   3567  1 000360   000012 356100                    ANSQ    10,,PR0

     1153     3568    2        OCQ$->KI$QHDR.FLG='0'B;

   3568  1 000361   000000 236003                    LDQ     0,DU
         1 000362   000013 752160                    STCQ    11,'60'O,PR0

     1154     3569    2        OCQ$->KI$QHDR.HOST_NODE# = K_NODE#;

   3569  1 000363   000000 236000 xsym               LDQ     K_NODE#
         1 000364   000033 736000                    QLS     27
PL6.E3A0      #005=KIQ$FEBOOT File=KIQ$QMGR.:E05TSI                              WED 07/30/97 00:39 Page:202
         1 000365   000003 552140                    STBQ    3,'40'O,PR0

     1155     3570    2        OCQ$->KI$QHDR.LAST_PTR = 0;

   3570  1 000366   000017 236007                    LDQ     15,DL
         1 000367   000015 356100                    ANSQ    13,,PR0

     1156     3571    2        RETURN;

   3571  1 000370   200064 221300                    LDX1  ! OCQ$+2,,AUTO
         1 000371   000001 702211                    TSX2  ! 1,X1

BOOT6
 Sect OctLoc
   0     000   000000 000072                                                    ...:

BOOT4K
 Sect OctLoc
   0     001   100000 000000                                                    @...

INTL6
 Sect OctLoc
   0     002   000000 000271                                                    ....

(unnamed)
 Sect OctLoc
   2     000   000030 006000   000002 006000   000000 000033   000002 006000    ................
   2     004   777777 777757   000000 000042   000005 006000                    ......."....
     1157     3572    2   END CLRQ;
     1158     3573
     1159     3574    1   END KIQ$FEBOOT;
     1160     3575        %EOD;

PL6.E3A0      #005=KIQ$FEBOOT File=KIQ$QMGR.:E05TSI                              WED 07/30/97 00:39 Page:203
--  Include file information  --

   NK$LDCT.:E05TOU  is referenced.
   NI$TABLES.:E05TOU  is referenced.
   N$REQ.:E05TOU  is referenced.
   NI_DATA_R.:E05TOU  cannot be made into a system file and is referenced.
   FP_MACRO_C.:E05TOU  is referenced.
   JG_GHOSTS_C.:E05TOU  is referenced.
   KJ_FCNS_C.:E05TOU  is referenced.
   K_SUBS_C.:E05TOU  is referenced.
   K$RWPARM.:E05TOU  is referenced.
   NK_SUBS.:E05TOU  is referenced.
   KI_SUBS_C.:E05TOU  is referenced.
   S_WSPTD_R.:E05TOU  cannot be made into a system file and is referenced.
   SS_SCHED_C.:E05TOU  is referenced.
   KI_MACROS_C.:E05TOU  is referenced.
   KI_DATA_R.:E05TOU  cannot be made into a system file and is referenced.
   KI$QHDR.:E05TOU  cannot be made into a system file and is referenced.
   HF_LOCK_C.:E05TOU  cannot be made into a system file and is referenced.
      No diagnostics issued in procedure KIQ$FEBOOT.
PL6.E3A0      #005=KIQ$FEBOOT File=KIQ$QMGR.:E05TSI                              WED 07/30/97 00:39 Page:204

 **** Variables and constants ****

  ****  Section 000 RoData KIQ$FEBOOT

  ****  Scalars and arrays  ****
OctLoc.c.b A Datatyp(siz) R M Lvl/name                 OctLoc.c.b A Datatyp(siz) R M Lvl/name

     1-0-0/w STRC        r     1 BOOT4K                     0-0-0/w STRC        r     1 BOOT6
     2-0-0/w STRC        r     1 INTL6

  ****  Auto variables  ****

  ****  Scalars and arrays  ****
OctLoc.c.b A Datatyp(siz) R M Lvl/name                 OctLoc.c.b A Datatyp(siz) R M Lvl/name

     3-0-0/w PTR         r     1 @FEI                       4-0-0/w PTR         r     1 @MLCPDUMP
     6-0-0/w PTR         r     1 F$                        *0-0-0/w UBIN        r     1 FEI
     5-0-0/w PTR         r     1 FEI$                      10-0-0/w UBIN        r     1 FEILCL
    12-0-0/d STRC(1404)  r     1 K$RWPARM                   7-0-0/w UBIN(18)    r     1 LDCTX
    *0-0-0/b BIT         r     1 MLCPDUMP                  62-0-0/w PTR         r     1 OCQ$

  ****  SYMREF variables  ****

  ****  Scalars and arrays  ****
OctLoc.c.b A Datatyp(siz) R M Lvl/name                 OctLoc.c.b A Datatyp(siz) R M Lvl/name

     0-0-0/w PTR         r     1 FP_OPCI$$                  0-0-0/w PTR         r     1 KI_FEI$$
     0-0-0/w UBIN        r     1 K_NODE#                    0-0-0/d STRC(1404)  r     1 K_RWPARM_CON
     0-0-0/w PTR         r     1 N$DCT$$                    0-0-0/w PTR         r     1 N$FQ$
     0-0-0/w PTR         r     1 NI$FQ$                     0-0-0/w PTR         r     1 NI$IBUF$
     0-0-0/w PTR         r     1 NI$RP$                     0-0-0/w UBIN        r     1 S_CUN

  ****  BASED and DCB variables  ****

  ****  Scalars and arrays  ****
OctLoc.c.b A Datatyp(siz) R M Lvl/name                 OctLoc.c.b A Datatyp(siz) R M Lvl/name

PL6.E3A0      #005=KIQ$FEBOOT File=KIQ$QMGR.:E05TSI                              WED 07/30/97 00:39 Page:205
     0-0-0/w STRC(108)   r     1 FP$OPCI                    0-0-0/w STRC        r     1 KI$CCMD
     0-0-0/w STRC        r     1 KI$CTCW                    0-0-0/w STRC(612)   r     1 KI$FEI
     0-0-0/w PTR         r     1 KI$FEI$(0:0)
     0-0-0/d STRC(576)   r     1 KI$QHDR                    0-0-0/w PTR         r     1 N$DCT$(0:0)
     0-0-0/d STRC(864)   r     1 NK$LDCT                    0-0-0/w UBIN        r     1 UBNBSD


   Procedure KIQ$FEBOOT requires 250 words for executable code.
   Procedure KIQ$FEBOOT requires 58 words of local(AUTO) storage.
PL6.E3A0      #005=KIQ$FEBOOT File=KIQ$QMGR.:E05TSI                              WED 07/30/97 00:39 Page:206
          *** CROSS REFERENCE LISTING ***
**     DENOTES     IDENTIFIER DEFINITION
<<                 IDENTIFIER'S VALUE SET
>>                 IDENTIFIER'S VALUE USED
<>                 IDENTIFIER SET AND/OR USED
--                 IDENTIFIER REFERENCED
PL6.E3A0      #005=KIQ$FEBOOT File=KIQ$QMGR.:E05TSI                              WED 07/30/97 00:39 Page:207
          MINI XREF LISTING

BOOT4K
      2715**DCL      3473>>ASSIGN
BOOT6
      2695**DCL      3479>>ASSIGN
BOOT6.L66INT
      2703**DCL      2704--REDEF    2708--REDEF
BOOT6.L6INT
      2701**DCL      2702--REDEF
CLRQ
      3562**PROC     3557--CALL     3559--CALL
F$
      2811**DCL      3520<<ASSIGN   3521>>DOWHILE  3522>>IF       3525>>ASSIGN   3526>>ASSIGN   3526>>ASSIGN
      3532<<ASSIGN   3532>>ASSIGN
FEI
      2808**DCL        11--PROC     3458>>ASSIGN   3493--ENTRY    3494>>ASSIGN   3518>>ASSIGN   3541--ENTRY
      3542>>ASSIGN
FEI$
      2809**DCL      2615--IMP-PTR  3459<<ASSIGN   3462>>CALL     3464>>CALL     3469>>CALL     3469>>CALL
      3471>>ASSIGN   3472>>ASSIGN   3473>>ASSIGN   3474>>ASSIGN   3476>>ASSIGN   3477>>ASSIGN   3480>>ASSIGN
      3481>>ASSIGN   3481>>ASSIGN   3482>>ASSIGN   3483>>CALL     3483>>CALL     3486>>CALL     3505<<ASSIGN
      3507>>CALL     3509>>CALL     3511>>ASSIGN   3512>>ASSIGN   3513>>ASSIGN   3514>>ASSIGN   3515>>ASSIGN
      3534>>CALL     3534>>CALL     3536>>CALL     3543<<ASSIGN   3553>>ASSIGN   3554>>ASSIGN   3555>>CALL
      3556>>ASSIGN   3558>>ASSIGN
FEILCL
      2813**DCL      3458<<ASSIGN   3459>>ASSIGN   3465<>CALL     3494<<ASSIGN   3505>>ASSIGN   3510<>CALL
      3522>>IF       3542<<ASSIGN   3543>>ASSIGN
FP$OPCI.FEI#
      2758**DCL      3522>>IF
FP$OPCI.LDCTX
      2759**DCL      3525>>ASSIGN   3526>>ASSIGN   3526>>ASSIGN
FP$OPCI.LNK$
      2757**DCL      3532>>ASSIGN
PL6.E3A0      #005=KIQ$FEBOOT File=KIQ$QMGR.:E05TSI                              WED 07/30/97 00:39 Page:208
FP_OPCI$$
      2810**DCL      3520>>ASSIGN
HFC$LOCK
        34**DCL-ENT  3462--CALL     3507--CALL
HFC$UNLOCK
        34**DCL-ENT  3486--CALL     3536--CALL
INTL6
      2732**DCL      3513>>ASSIGN
INTL6.L66INT
      2740**DCL      2741--REDEF    2745--REDEF
INTL6.L6INT
      2738**DCL      2739--REDEF
K$RWPARM
      2836**DCL      3516<<ASSIGN   3538<>CALL
K$RWPARM.BLKREC
      2862**DCL      2887--REDEF
K$RWPARM.BLKREC.BLKU#
      2863**DCL      2865--REDEF
K$RWPARM.BLKREC.RECU#
      2875**DCL      2877--REDEF
K$RWPARM.DVE.DVBYTE.VFC
      2902**DCL      2903--REDEF
K$RWPARM.DVE.EOMCHAR
      2910**DCL      2914--REDEF
K$RWPARM.ERR
      2974**DCL      2979--REDEF
K$RWPARM.FC
      2938**DCL      2939--REDEF
K$RWPARM.FEX
      3020**DCL      3518<<ASSIGN
K$RWPARM.FLDID
      3120**DCL      3121--REDEF
K$RWPARM.FPT$
      3001**DCL      3008--REDEF
K$RWPARM.FUNCTION
      3015**DCL      3517<<ASSIGN
PL6.E3A0      #005=KIQ$FEBOOT File=KIQ$QMGR.:E05TSI                              WED 07/30/97 00:39 Page:209
K$RWPARM.KEYTYPE
      3127**DCL      3128--REDEF
K$RWPARM.MSG$
      2837**DCL      2843--REDEF    3528<<ASSIGN
K$RWPARM.MSGID
      2949**DCL      2954--REDEF
K$RWPARM.MSGIDXT
      2962**DCL      2966--REDEF
K$RWPARM.MSGSZ
      2844**DCL      3529<<ASSIGN
K$RWPARM.ORG
      3098**DCL      3099--REDEF
K$RWPARM.THDRSZ
      3042**DCL      3046--REDEF
K$RWPARM.VDOFLGS
      3100**DCL      3111--REDEF
KI$CCMD.ADB18
      2581**DCL      3480<<ASSIGN
KI$CCMD.L66INT
      2589**DCL      2590--REDEF    2591--REDEF
KI$CCMD.L6INT
      2586**DCL      2588--REDEF
KI$CTCW
      2595**DCL      3473<<ASSIGN
KI$FEI.BD$
      2650**DCL      2651--REDEF    3473>>ASSIGN
KI$FEI.BDAD.PGA.PAGE
      2654**DCL      3477>>ASSIGN
KI$FEI.BDAD.WADDR
      2652**DCL      2653--REDEF    3480>>ASSIGN
KI$FEI.BDSZ
      2657**DCL      3476--ASSIGN
KI$FEI.FECH
      2617**DCL      3469<>CALL     3483<>CALL     3534<>CALL
KI$FEI.FEST
      2620**DCL      3482<<ASSIGN   3514<<ASSIGN
PL6.E3A0      #005=KIQ$FEBOOT File=KIQ$QMGR.:E05TSI                              WED 07/30/97 00:39 Page:210
KI$FEI.FEWSQ
      2643**DCL      3469<>CALL     3483<>CALL     3534<>CALL
KI$FEI.FROZEN
      2645**DCL      3553<<ASSIGN
KI$FEI.ICQ$
      2637**DCL      3556>>ASSIGN
KI$FEI.IUTS
      2644**DCL      3555<>CALL
KI$FEI.LOCK
      2616**DCL      3462<>CALL     3486<>CALL     3507<>CALL     3536<>CALL
KI$FEI.MSI
      2649**DCL      3554<<ASSIGN
KI$FEI.OCQ$
      2631**DCL      3474>>ASSIGN   3513>>ASSIGN   3558>>ASSIGN
KI$FEI.PBST.PROB
      2668**DCL      3471<<ASSIGN   3511<<ASSIGN
KI$FEI.PBST.STATE
      2672**DCL      3472<<ASSIGN   3512<<ASSIGN
KI$FEI.PTPPNO#
      2665**DCL      3464<>CALL     3509<>CALL
KI$FEI.RCVPB
      2666**DCL      2667--REDEF
KI$FEI.TCNT
      2627**DCL      3481<<ASSIGN   3515<<ASSIGN
KI$FEI.TIMEOUT.BOOT
      2681**DCL      3481>>ASSIGN
KI$FEI$
       199**DCL      3459>>ASSIGN   3505>>ASSIGN   3543>>ASSIGN
KI$QHDR.BDCTL
        66**DCL      3475<<ASSIGN
KI$QHDR.BDCTL.BTPG#
        71**DCL      3477<<ASSIGN
KI$QHDR.BDCTL.MDBFK
        73**DCL      3476<<ASSIGN
KI$QHDR.BDCTL.MLCPDUMP
        68**DCL      3478<<ASSIGN
PL6.E3A0      #005=KIQ$FEBOOT File=KIQ$QMGR.:E05TSI                              WED 07/30/97 00:39 Page:211
KI$QHDR.CCMD
        65**DCL      3479<<ASSIGN   3480--ASSIGN   3513<<ASSIGN
KI$QHDR.FLG
        92**DCL      3568<<ASSIGN
KI$QHDR.GATE
        86**DCL      3563<<ASSIGN
KI$QHDR.HOST_NODE#
        79**DCL      3569<<ASSIGN
KI$QHDR.INTLOCK
        83**DCL      3564<<ASSIGN
KI$QHDR.IPTR
        90**DCL      3567<<ASSIGN
KI$QHDR.LAST_PTR
       101**DCL      3570<<ASSIGN
KI$QHDR.MYIPTR
        87**DCL      3565<<ASSIGN
KI$QHDR.RPTR
        88**DCL      3566<<ASSIGN
KIQ$LINK
      3133**DCL-ENT  3538--CALL
KIQ$QINIT
      3541**ENTRY    3465--CALL     3510--CALL
KI_FEI$$
       198**DCL       199--IMP-PTR  3459>>ASSIGN   3505>>ASSIGN   3543>>ASSIGN
K_NODE#
      3456**DCL      3569>>ASSIGN
K_RWPARM_CON
      3161**DCL      3516>>ASSIGN
K_RWPARM_CON.BLKREC
      3187**DCL      3212--REDEF
K_RWPARM_CON.BLKREC.BLKU#
      3188**DCL      3190--REDEF
K_RWPARM_CON.BLKREC.RECU#
      3200**DCL      3202--REDEF
K_RWPARM_CON.DVE.DVBYTE.VFC
      3227**DCL      3228--REDEF
PL6.E3A0      #005=KIQ$FEBOOT File=KIQ$QMGR.:E05TSI                              WED 07/30/97 00:39 Page:212
K_RWPARM_CON.DVE.EOMCHAR
      3235**DCL      3239--REDEF
K_RWPARM_CON.ERR
      3299**DCL      3304--REDEF
K_RWPARM_CON.FC
      3263**DCL      3264--REDEF
K_RWPARM_CON.FLDID
      3445**DCL      3446--REDEF
K_RWPARM_CON.FPT$
      3326**DCL      3333--REDEF
K_RWPARM_CON.KEYTYPE
      3452**DCL      3453--REDEF
K_RWPARM_CON.MSG$
      3162**DCL      3168--REDEF
K_RWPARM_CON.MSGID
      3274**DCL      3279--REDEF
K_RWPARM_CON.MSGIDXT
      3287**DCL      3291--REDEF
K_RWPARM_CON.ORG
      3423**DCL      3424--REDEF
K_RWPARM_CON.THDRSZ
      3367**DCL      3371--REDEF
K_RWPARM_CON.VDOFLGS
      3425**DCL      3436--REDEF
LDCTX
      2812**DCL      3526<<ASSIGN   3528--ASSIGN   3529--ASSIGN
MLCPDUMP
      3131**DCL        11--PROC     3478>>ASSIGN
MMS$WSQMAP
      3134**DCL-ENT  3464--CALL     3509--CALL
N$DCT$
      2471**DCL      3525>>ASSIGN
N$DCT$$
      2337**DCL      2471--IMP-PTR  3525>>ASSIGN
N$FQ$
      2337**DCL      2472--IMP-PTR
PL6.E3A0      #005=KIQ$FEBOOT File=KIQ$QMGR.:E05TSI                              WED 07/30/97 00:39 Page:213
N$REQ_INIT.BUFADDR
      2356**DCL      2357--REDEF    2357--REDEF
N$REQ_INIT.DLA.DRELADDR
      2348**DCL      2348--REDEF
N$REQ_INIT.DVE.EOMCHAR
      2385**DCL      2386--REDEF
N$REQ_INIT.EAINFO
      2379**DCL      2379--REDEF
N$REQ_INIT.EAINFOX
      2379**DCL      2380--REDEF
N$REQ_INIT.EVNTINFO
      2380**DCL      2380--REDEF
N$REQ_INIT.STATUS
      2361**DCL      2367--REDEF
NI$FQ$
      2397**DCL      2473--IMP-PTR
NI$IBUF$
      2397**DCL      2473--IMP-PTR
NI$IMXMBX_INIT.PAGED_BASE
      2407**DCL      2408--REDEF    2408--REDEF
NI$IMXMBX_INIT.SIZE
      2409**DCL      2409--REDEF
NI$REQ_INIT.DCW
      2431**DCL      2434--REDEF
NI$REQ_INIT.DCW.TALLY
      2432**DCL      2432--REDEF
NI$REQ_INIT.IDCW.EXTA
      2434**DCL      2434--REDEF
NI$REQ_INIT.PCW
      2436**DCL      2440--REDEF
NI$REQ_INIT.SEEK
      2441**DCL      2442--REDEF    2443--REDEF
NI$RP$
      2445**DCL      2475--IMP-PTR
NIS$DCCON
      3135**DCL-ENT  3469--CALL     3483--CALL     3534--CALL
PL6.E3A0      #005=KIQ$FEBOOT File=KIQ$QMGR.:E05TSI                              WED 07/30/97 00:39 Page:214
NI_MBX_INIT.DCW.CONTROL.AE
      2467**DCL      2467--REDEF
NI_MBX_INIT.LPW.CONTROL.AE
      2463**DCL      2463--REDEF
NK$LDCT.DDT$
      2776**DCL      2776--REDEF
NK$LDCT.DFLG.FEDN
      2782**DCL      3525<<ASSIGN
NK$LDCT.IOQ$
      2775**DCL      2776--REDEF
NK$LDCT.LDCTX
      2777**DCL      2777--REDEF
NK$LDCT.LKFLG.ABORTED
      2789**DCL      2790--REDEF
NK$LDCT.RLCID.LDCTX
      2799**DCL      2799--REDEF
NK$LDCT.STA$
      2795**DCL      2796--REDEF
NK$LDCT.SYMB$
      2774**DCL      2774--REDEF    2774--REDEF    2775--REDEF
OCQ$
      3132**DCL      3474<<ASSIGN   3475>>ASSIGN   3476>>ASSIGN   3477>>ASSIGN   3478>>ASSIGN   3479>>ASSIGN
      3480>>ASSIGN   3556<<ASSIGN   3558<<ASSIGN   3563>>ASSIGN   3564>>ASSIGN   3565>>ASSIGN   3566>>ASSIGN
      3567>>ASSIGN   3568>>ASSIGN   3569>>ASSIGN   3570>>ASSIGN
SSR$REG
      3137**DCL-ENT  3490--CALL
SSS$SYSTIME
      3136**DCL-ENT  3555--CALL
S_CUN
      2814**DCL      3489>>IF
UBNBSD
      3138**DCL      3476>>ASSIGN

PL6.E3A0      #006=KIQ$FEABT File=KIQ$QMGR.:E05TSI                               WED 07/30/97 00:40 Page:215
     1161        1        /*T***********************************************************/
     1162        2        /*T*                                                         */
     1163        3        /*T* Copyright (c) Bull HN Information Systems Inc., 1997    */
     1164        4        /*T*                                                         */
     1165        5        /*T***********************************************************/
     1166        6
     1167        7
     1168        8        KIQ$FEABT: PROC (FEI,PROB);
     1169        9
     1170       10        /*F*
     1171       11             NAME: KIQ$FEABT
     1172       12             PURPOSE:
     1173       13                  To abort processing on a given fep.
     1174       14             DESCRIPTION:
     1175       15                  KIQ$FEABT will terminate processing for a given fep. The reasons
     1176       16                  are defined by the PROB. If the FEP was in a running state
     1177       17                  KIQ$FEABT will call KIN$NETWORK report the link is down.
     1178       18        */
     1179       19
     1180       20        %INCLUDE KI$QHDR;
     1181      172        %INCLUDE KL_MACRO_C;
     1182     3524        %INCLUDE KL_AFCN_C;
     1183     3625        %INCLUDE EL$TABLES;
     1184     3948        %INCLUDE S_WSPTD_R;
     1185     3964        %INCLUDE KI_DATA_R;
     1186     3990        %INCLUDE KI_MACROS_C;
     1187     4598        %INCLUDE SS_SCHED_C;
     1188     4831        %INCLUDE HF_LOCK_C;
     1189     4845        %INCLUDE KI_SUBS_C;
     1190     4981        %INCLUDE KL_SUBS_C;
     1191     5035        %INCLUDE EL_SUBS_C;
     1192     5119        %INCLUDE NK_SUBS;
     1193     5144        %INCLUDE K$RWPARM;
     1194     5530        %INCLUDE HF_DATA_R;
     1195     5573        %INCLUDE K_SUBS_C;
     1196     5606        %INCLUDE KJ_FCNS_C;
     1197     5633        %INCLUDE JG_GHOSTS_C;
PL6.E3A0      #006=KIQ$FEABT File=KIQ$QMGR.:E05TSI                               WED 07/30/97 00:40 Page:216
     1198     5723
     1199     5724        %KI_CCMD(NAME=INTL6,CMD=KIOP_INTL6,L66I=%KJ_IPARM_SCR);
     1200     5752        %KI$CCMD;
     1201     5767        %KL_ACCTNG (STCLASS="");
     1202     5781        %EL$FECRASH (NAME=FCR,STCLASS="");
     1203     5786        %KL_FEPST(STCLASS="");
     1204     5821        %KI$FEI (STCLASS="BASED(FEI$)");
     1205     5905
     1206     5906
     1207     5907    1   DCL IT_CP6UP UBIN SYMREF ;
     1208     5908    1   DCL FEI UBIN WORD;
     1209     5909    1   DCL FEI$ PTR;
     1210     5910    1   DCL PROB UBIN WORD;
     1211     5911    1   DCL TDCT$ PTR;
     1212     5912    1   DCL ICQ$ PTR;
     1213     5913    1   DCL OCQ$ PTR;
     1214     5914    1   DCL TEMP UBIN WORD;
     1215     5915    1   DCL TLOCK BIT(72);
     1216     5916    1   DCL RFEI UBIN;
     1217     5917    1   DCL LOGREMDN BIT(1) ALIGNED;
     1218     5918    1   DCL STOPFLG BIT(36) ALIGNED;
     1219     5919    1   DCL 1 BFEV CONSTANT ALIGNED,
     1220     5920    1            2 PROB UBIN HALF UNAL INIT(KIER_NOBT),
     1221     5921    1            2 STATE UBIN HALF UNAL INIT(KIST_DN);
     1222     5922    1   DCL 1 DFEV CONSTANT ALIGNED,
     1223     5923    1            2 PROB UBIN HALF UNAL INIT(KIER_NOBT),
     1224     5924    1            2 STATE UBIN HALF UNAL INIT(KIST_DMP);
     1225     5925        %K$RWPARM (NAME=K$RWPARM);
     1226     6241
     1227     6242        /* Entry point references */
     1228     6243    1   DCL MMS$VREL ENTRY(2) ALTRET;
     1229     6244    1   DCL KUB$WRITE ENTRY(3) ALTRET;
     1230     6245    1   DCL NIS$DCCON ENTRY(3);
     1231     6246    1   DCL KIN$CONV_NODE ENTRY(3) ALTRET;
     1232     6247    1   DCL KIN$RECV ENTRY(1) ALTRET;
     1233     6248    1   DCL KCD$DSCTRM ENTRY(2);
     1234     6249    1   DCL MMS$WSQMAP ENTRY(1) ALTRET;
PL6.E3A0      #006=KIQ$FEABT File=KIQ$QMGR.:E05TSI                               WED 07/30/97 00:40 Page:217
     1235     6250    1   DCL SSR$RUE ENTRY(4);
     1236     6251    1   DCL ELA$SYSLOG ENTRY(6) ALTRET;
     1237     6252    1   DCL SSC$MONTIMR ENTRY(3);
     1238     6253
     1239     6254    1   DCL SC_BADRCD ENTRY CONV(2,0);
     1240     6255
     1241     6256        %K$RWPARM (NAME=K_RWPARM_CON, STCLASS=SYMREF);
     1242     6572
     1243     6573        %EJECT;
PL6.E3A0      #006=KIQ$FEABT File=KIQ$QMGR.:E05TSI                               WED 07/30/97 00:40 Page:218
     1244     6574
     1245     6575    1   FEABT: ;
     1246     6576    1        STOPFLG='0'B;
     1247     6577    1   ABT: ;
     1248     6578    1        FEI$ = KI$FEI$(FEI);
     1249     6579    1        IF KI$FEI.FEST = KIST_MASKED THEN
     1250     6580    1           RETURN ;
     1251     6581    1        ICQ$=KI$FEI.ICQ$;
     1252     6582    1        OCQ$=KI$FEI.OCQ$;
     1253     6583    1        TLOCK='1'B;
     1254     6584             %LOCK (G=TLOCK);                   /* INHIBIT */
     1255     6587    1        CALL MMS$WSQMAP(KI$FEI.PTPPNO#);
     1256     6588             %LOCK (G#="OCQ$->KI$QHDR.GATE");
     1257     6591    1        KI$FEI.PBST.PROB =PROB;
     1258     6592
     1259     6593        /* If the state was booting dont interupt the L6 */
     1260     6594    1        IF PROB ~= KIER_FREQ
     1261     6595    1        THEN
     1262     6596    2          DO ;
     1263     6597    2             OCQ$->KI$QHDR.CCMD=INTL6;
     1264     6598    3             DO CASE (PROB);
     1265     6599
     1266     6600    3              CASE (KIER_TO,KIER_QFL);
     1267     6601    3                ADDR(OCQ$->KI$QHDR.CCMD)->KI$CCMD.L6PARM = %KJ_IPARM_TO;
     1268     6602
     1269     6603    3              CASE (KIER_BDLN,KIER_MFMT,KIER_BFCN);
     1270     6604    3                ADDR(OCQ$->KI$QHDR.CCMD)->KI$CCMD.L6PARM = %KJ_IPARM_BADMSG;
     1271     6605
     1272     6606    3              CASE (KIER_DCFT,KIER_BINT);
     1273     6607    3                ADDR(OCQ$->KI$QHDR.CCMD)->KI$CCMD.L6PARM = %KJ_IPARM_FLT;
     1274     6608
     1275     6609    3              CASE (KIER_BCMD);
     1276     6610    3                ADDR(OCQ$->KI$QHDR.CCMD)->KI$CCMD.L6PARM = %KJ_IPARM_OREQ;
     1277     6611
     1278     6612    3              CASE ( KIER_STOP ) ;
     1279     6613                            /* The effect of the following is to send a KJ_IPARM_CNOP */
     1280     6614    3                ADDR(OCQ$->KI$QHDR.CCMD)->KI$CCMD.L6PARM = 0 ;
PL6.E3A0      #006=KIQ$FEABT File=KIQ$QMGR.:E05TSI                               WED 07/30/97 00:40 Page:219
     1281     6615    3                ADDR(OCQ$->KI$QHDR.CCMD)->KI$CCMD.L6INT = 1 ;
     1282     6616    3                STOPFLG = '0'B ;
     1283     6617
     1284     6618    3              CASE ( KIER_PART ) ;
     1285     6619    3                STOPFLG = '1'B ;
     1286     6620
     1287     6621    3             END;
     1288     6622    2             CALL NIS$DCCON (KI$FEI.FECH ,STOPFLG,KI$FEI.FEWSQ);
     1289     6623    2          END;
     1290     6624
     1291     6625    1        ICQ$->KI$QHDR.INTLOCK=1;
     1292     6626    1        OCQ$->KI$QHDR.INTLOCK=1;
     1293     6627    1        KI$FEI.QFLHD$ =ADDR(NIL);
     1294     6628    1        KI$FEI.PBST.STATE =KI$FEI.FEST ;
     1295     6629    1        IF STOPFLG THEN
     1296     6630    1           KI$FEI.FEST = KIST_MASKED ;
     1297     6631    1        ELSE IF PROB = KIER_STOP THEN
     1298     6632    1              KI$FEI.FEST = KIST_STOPPING ;
     1299     6633    1           ELSE
     1300     6634    1              KI$FEI.FEST = KIST_DN ;
     1301     6635             %UNLOCK (G#="OCQ$->KI$QHDR.GATE");
     1302     6638    1        IF PROB = KIER_STOP THEN
     1303     6639    1           CALL SSC$MONTIMR ( SEC5 , ENTADDR(KIQ$MASKFEP) , FEI ) ;
     1304     6640    2        DO CASE (KI$FEI.PBST.STATE );
     1305     6641    2         CASE (KIST_RUN,KIST_QFL,KIST_DB);
     1306     6642    2           K$RWPARM = K_RWPARM_CON;
     1307     6643    2           K$RWPARM.FUNCTION = %K_REPDISC;
     1308     6644    2           K$RWPARM.FEX = FEI;
     1309     6645    2           CALL KIN$RECV(K$RWPARM);
     1310     6646    2           KL_ACCTNG.FEX=KI$FEI.FEP#;
     1311     6647    2           IF STOPFLG
     1312     6648    2           THEN KL_ACCTNG.REASON=%KLDR_STOP;
     1313     6649    2           ELSE KL_ACCTNG.REASON=%KLDR_FCRSH;
     1314     6650    3           CALL ELA$SYSLOG (EL_FEGN,KL_ACCTNG,1,'0'B,2,TEMP) WHENALTRETURN DO ;
     1315     6651    3                CALL SSC$MONTIMR ( SEC5 , ENTADDR ( KIQ$LGFEDN ) , KL_ACCTNG ) ;
     1316     6652    3             END ;
     1317     6653    2         CASE (KIST_TOK);
PL6.E3A0      #006=KIQ$FEABT File=KIQ$QMGR.:E05TSI                               WED 07/30/97 00:40 Page:220
     1318     6654    2         CASE (KIST_BT);
     1319     6655    2           IF KI$FEI.BDU# ~= 0
     1320     6656    2           THEN
     1321     6657    3             DO ;
     1322     6658    3                KI$FEI.BDARS =OCQ$->KI$QHDR.BDCTL.MLCPZ*1024/4;
     1323     6659    3                CALL MMS$VREL (KI$FEI.FEWSQ ,KI$FEI.BD$ );
     1324     6660    3                IF KI$FEI.BDU# ~= JG_FROG# /* FROG */
     1325     6661    3                THEN CALL SSR$RUE (%SS_UQA,KI$FEI.BDU# );
     1326     6662    3                KI$FEI.BDU# =0;
     1327     6663    3             END;
     1328     6664    2         CASE (KIST_DMP);
     1329     6665    2           CALL MMS$VREL (KI$FEI.FEWSQ ,KI$FEI.BD$ );
     1330     6666    2           CALL SSR$RUE (%SS_UQA,KI$FEI.BDU# );
     1331     6667    2        END;
     1332     6668
     1333     6669    1        KL_FEPST.FEP = KI$FEI.FEP#;
     1334     6670    1        KL_FEPST.FCN = IGA_FEPST;
     1335     6671    1        KL_FEPST.PROB = KI$FEI.PBST.PROB ;
     1336     6672    1        KL_FEPST.STATE = KI$FEI.PBST.STATE ;
     1337     6673    1        CALL KUB$WRITE (KL_FEPST,LENGTHC(KL_FEPST),'HLPADMIN') WHENALTRETURN
     1338     6674    2          DO ;
     1339     6675    2             CALL SSC$MONTIMR (SEC5,ENTADDR(KIQ$TELL),FEI);
     1340     6676    2          END;
     1341     6677    1        FCR.FENM.PROBLEM=KI$FEI.PBST.PROB ;
     1342     6678    1        FCR.FENM.STATE=KI$FEI.PBST.STATE ;
     1343     6679    1        FCR.FENM.FEP#=KI$FEI.FEP#;
     1344     6680    1        CALL KIN$CONV_NODE(FCR.FENM.NODENAME,FCR.FENM.FEP#);
     1345     6681    1        FCR.FENM.CRASH# = KI$FEI.SEQ;
     1346     6682    1        FCR.FENM.DEVADDR=KI$FEI.FECH ;
     1347     6683    1        CALL ELA$SYSLOG (EL_FEPCRASH,FCR,SIZEW(FCR),'0'B,1,TEMP);
     1348     6684             %UNLOCK (G=TLOCK);
     1349     6687    1        RETURN;
     1350     6688
     1351     6689    1   KIQ$FESTOP: ENTRY (FEI,PROB);
     1352     6690
     1353     6691    1        STOPFLG='1'B;
     1354     6692    1        GOTO ABT;
PL6.E3A0      #006=KIQ$FEABT File=KIQ$QMGR.:E05TSI                               WED 07/30/97 00:40 Page:221
     1355     6693
     1356     6694    1   KIQ$MASKFEP: ENTRY ( FEI ) ;
     1357     6695
     1358     6696        /* This entry should only be used by KIQ$FEABT for stopping FEPs.
     1359     6697           It is entered after a 5 second wait so that COUPLER has a chance
     1360     6698           to read the CNOP command before the channel is masked. */
     1361     6699
     1362     6700    1        FEI$ = KI$FEI$ ( FEI ) ;
     1363     6701             %LOCK ( G = KI$FEI.LOCK ) ;
     1364     6704    1        IF KI$FEI.FEST = KIST_STOPPING
     1365     6705    2        THEN DO ;
     1366     6706    2             CALL NIS$DCCON ( KI$FEI.FECH , '4'O , KI$FEI.FEWSQ ) ;
     1367     6707    2             KI$FEI.FEST = KIST_MASKED ;
     1368     6708    2          END ;
     1369     6709             %UNLOCK ( G = KI$FEI.LOCK ) ;
     1370     6712    1        RETURN ;
     1371     6713
     1372     6714    1   KIQ$PARTFEP: ENTRY (FEI,PROB);
     1373     6715
     1374     6716    1        FEI$ = KI$FEI$(FEI);
     1375     6717    2        IF IT_CP6UP = 0 THEN DO ;
     1376     6718    2             KI$FEI.PBST.PROB = KIER_PART ;
     1377     6719    2             KI$FEI.FEST = KIST_DN ;
     1378     6720    2          END ;
     1379     6721    2        ELSE DO ;
     1380     6722    2             IF KI$FEI.FEST ~= KIST_DN AND KI$FEI.FEST ~= KIST_MASKED THEN
     1381     6723    2                GOTO FEABT ;
     1382     6724    2             KI$FEI.FEST = KIST_MASKED;
              6724                      /* mask the feps to keep rload int from getting through */
     1383     6725    2             KI$FEI.PBST.PROB =KIER_PART;
     1384     6726    2             KL_FEPST.FEP = KI$FEI.FEP#;
     1385     6727    2             KL_FEPST.FCN = IGA_FEPST;
     1386     6728    2             KL_FEPST.PROB = KIER_PART;
     1387     6729    3             CALL KUB$WRITE(KL_FEPST,LENGTHC(KL_FEPST),'HLPADMIN') WHENALTRETURN DO ;
     1388     6730    3                  CALL SSC$MONTIMR (SEC5,ENTADDR(KIQ$TELL),FEI) ;
     1389     6731    3               END ;
     1390     6732    2          END ;
PL6.E3A0      #006=KIQ$FEABT File=KIQ$QMGR.:E05TSI                               WED 07/30/97 00:40 Page:222
     1391     6733    1        RETURN;
     1392     6734
     1393     6735    1   KIQ$UPRTFEP: ENTRY (FEI);
     1394     6736
     1395     6737    1        FEI$ = KI$FEI$(FEI);
     1396     6738    1        IF KI$FEI.PBST.PROB ~=KIER_PART THEN RETURN;
     1397     6739    1        KI$FEI.PBST.PROB =KIER_UPRT;
     1398     6740    1        KL_FEPST.FEP = KI$FEI.FEP#;
     1399     6741    1        KL_FEPST.FCN = IGA_FEPST;
     1400     6742    1        KL_FEPST.PROB = KIER_UPRT;
     1401     6743    1        KL_FEPST.STATE = KIER_OK;
     1402     6744    1        IF HW_IMX THEN
     1403     6745    1           CALL NIS$DCCON (KI$FEI.FECH,'2'O,KI$FEI.FEWSQ); /* INIT DIRECT CHANNEL */
     1404     6746    1        CALL KUB$WRITE (KL_FEPST,LENGTHC(KL_FEPST),'HLPADMIN');
     1405     6747    1        KI$FEI.PBST.PROB =KIER_OK;
     1406     6748    1        RETURN;
     1407     6749
     1408     6750
     1409     6751    1   KIQ$TELL: ENTRY (FEI);
     1410     6752    1        FEI$ = KI$FEI$(FEI);
     1411     6753    1        KL_FEPST.FEP = KI$FEI.FEP#;
     1412     6754    1        KL_FEPST.FCN = IGA_FEPST;
     1413     6755    1        KL_FEPST.PROB = KI$FEI.PBST.PROB ;
     1414     6756    1        KL_FEPST.STATE = KI$FEI.PBST.STATE ;
     1415     6757    1        CALL KUB$WRITE (KL_FEPST,LENGTHC(KL_FEPST),'HLPADMIN') WHENALTRETURN
     1416     6758    2          DO ;
     1417     6759    2             CALL SSC$MONTIMR (SEC5,ENTADDR(KIQ$TELL),FEI);
     1418     6760    2          END;
     1419     6761    1        RETURN;
     1420     6762
     1421     6763
     1422     6764    1   KIQ$LGFEDN: ENTRY (FEI);
     1423     6765
     1424     6766    2        CALL ELA$SYSLOG (EL_FEGN,FEI,1,'0'B,2,TEMP) WHENALTRETURN DO ;
     1425     6767    2             CALL SSC$MONTIMR ( SEC5 , ENTADDR(KIQ$LGFEDN) , FEI ) ;
     1426     6768    2          END ;
     1427     6769    1        RETURN;
PL6.E3A0      #006=KIQ$FEABT File=KIQ$QMGR.:E05TSI                               WED 07/30/97 00:40 Page:223
     1428     6770
     1429     6771
     1430     6772
     1431     6773
     1432     6774
     1433     6775    1   END KIQ$FEABT;
     1434     6776        %EOD;

PL6.E3A0      #006=KIQ$FEABT File=KIQ$QMGR.:E05TSI                               WED 07/30/97 00:40 Page:224
--  Include file information  --

   JG_GHOSTS_C.:E05TOU  is referenced.
   KJ_FCNS_C.:E05TOU  is referenced.
   K_SUBS_C.:E05TOU  is referenced.
   HF_DATA_R.:E05TOU  cannot be made into a system file and is referenced.
   K$RWPARM.:E05TOU  is referenced.
   NK_SUBS.:E05TOU  is referenced.
   EL_SUBS_C.:E05TOU  is referenced.
   KL_SUBS_C.:E05TOU  is referenced.
   KI_SUBS_C.:E05TOU  is referenced.
   HF_LOCK_C.:E05TOU  cannot be made into a system file and is referenced.
   SS_SCHED_C.:E05TOU  is referenced.
   KI_MACROS_C.:E05TOU  is referenced.
   KI_DATA_R.:E05TOU  cannot be made into a system file and is referenced.
   S_WSPTD_R.:E05TOU  cannot be made into a system file and is referenced.
   EL$TABLES.:E05TOU  is referenced.
   KL_AFCN_C.:E05TOU  is referenced.
   KL_MACRO_C.:E05TOU  is referenced.
   KI$QHDR.:E05TOU  cannot be made into a system file and is referenced.
      No diagnostics issued in procedure KIQ$FEABT.

   Procedure KIQ$FEABT requires 574 words for executable code.
   Procedure KIQ$FEABT requires 78 words of local(AUTO) storage.

PL6.E3A0      #006=KIQ$FEABT File=KIQ$QMGR.:E05TSI                               WED 07/30/97 00:40 Page:225

 Object Unit name= KIQ$FEABT                                  File name= KIQ$QMGR.:E05TOU
 UTS= JUL 30 '97 00:40:22.92 WED                              Compiler= PL-6/E31         Sev=      00
 SharedLib= :SHARED_SYSTEM                                    Alt SharedLib=


    ****  Control sections  ****

 Sect   Type Bound  Init  Size OctSiz  Section name(segment info)
    0  RoData even  UTS      5      5  KIQ$FEABT
    1   Proc  even  none   574   1076  KIQ$FEABT
    2  RoData even  none    22     26  KIQ$FEABT

    ****  Entry defs  ****

                              Check   Calling
                             calling  sequence
  Sect OctLoc Primary Altret sequence   type   Parms  Name
     1      0   yes            yes      Std        2  KIQ$FEABT
     1    544                  yes      Std        2  KIQ$FESTOP
     1    551                  yes      Std        1  KIQ$MASKFEP
     1    615                  yes      Std        2  KIQ$PARTFEP
     1    706                  yes      Std        1  KIQ$UPRTFEP
     1    770                  yes      Std        1  KIQ$TELL
     1   1041                  yes      Std        1  KIQ$LGFEDN
PL6.E3A0      #006=KIQ$FEABT File=KIQ$QMGR.:E05TSI                               WED 07/30/97 00:40 Page:226

  ****  Entry refs  ****

         Check        Calling
        calling       sequence
Altret sequence SRef   type   Args  Name
         yes           Std       1 HFC$LOCK
 yes     yes           Std       1 MMS$WSQMAP
         yes           Std       3 NIS$DCCON
         yes           Std       1 HFC$UNLOCK
         yes           Std       3 SSC$MONTIMR
 yes     yes           Std       1 KIN$RECV
 yes     yes           Std       6 ELA$SYSLOG
 yes     yes           Std       2 MMS$VREL
 yes     yes           Std       3 KIN$CONV_NODE
         yes           Std       4 SSR$RUE
 yes     yes           Std       3 KUB$WRITE
         yes           Std       1 KIQ$MASKFEP
         yes           Std       1 KIQ$LGFEDN
         yes           Std       1 KIQ$TELL
                       nStd      0 X66_AUTO_2
                       nStd      0 X66_ARET
                       Std       0 B_CONSPOOL_D

  ****  Data refs  ****

  Flags:  r = read only, s = secondary
Flgs Name                             Flgs Name                             Flgs Name
     KI_FEI$$                              HW_IMX                                IT_CP6UP
     K_RWPARM_CON                          B_VECTNIL

  ****  Segment refs  ****

  Flags:  r = read only, s = secondary
Flgs Name                             Flgs Name                             Flgs Name
     ISSID
PL6.E3A0      #006=KIQ$FEABT File=KIQ$QMGR.:E05TSI                               WED 07/30/97 00:40 Page:227


     1161        1        /*T***********************************************************/
     1162        2        /*T*                                                         */
     1163        3        /*T* Copyright (c) Bull HN Information Systems Inc., 1997    */
     1164        4        /*T*                                                         */
     1165        5        /*T***********************************************************/
     1166        6
     1167        7
     1168        8        KIQ$FEABT: PROC (FEI,PROB);

      8  1 000000   000000 700200 xent  KIQ$FEABT    TSX0  ! X66_AUTO_2
         1 000001   000116 000002                    ZERO    78,2

     1169        9
     1170       10        /*F*
     1171       11             NAME: KIQ$FEABT
     1172       12             PURPOSE:
     1173       13                  To abort processing on a given fep.
     1174       14             DESCRIPTION:
     1175       15                  KIQ$FEABT will terminate processing for a given fep. The reasons
     1176       16                  are defined by the PROB. If the FEP was in a running state
     1177       17                  KIQ$FEABT will call KIN$NETWORK report the link is down.
     1178       18        */
     1179       19
     1180       20        %INCLUDE KI$QHDR;
     1181      172        %INCLUDE KL_MACRO_C;
     1182     3524        %INCLUDE KL_AFCN_C;
     1183     3625        %INCLUDE EL$TABLES;
     1184     3948        %INCLUDE S_WSPTD_R;
     1185     3964        %INCLUDE KI_DATA_R;
     1186     3990        %INCLUDE KI_MACROS_C;
     1187     4598        %INCLUDE SS_SCHED_C;
     1188     4831        %INCLUDE HF_LOCK_C;
     1189     4845        %INCLUDE KI_SUBS_C;
     1190     4981        %INCLUDE KL_SUBS_C;
     1191     5035        %INCLUDE EL_SUBS_C;
     1192     5119        %INCLUDE NK_SUBS;
PL6.E3A0      #006=KIQ$FEABT File=KIQ$QMGR.:E05TSI                               WED 07/30/97 00:40 Page:228
     1193     5144        %INCLUDE K$RWPARM;
     1194     5530        %INCLUDE HF_DATA_R;
     1195     5573        %INCLUDE K_SUBS_C;
     1196     5606        %INCLUDE KJ_FCNS_C;
     1197     5633        %INCLUDE JG_GHOSTS_C;
     1198     5723
     1199     5724        %KI_CCMD(NAME=INTL6,CMD=KIOP_INTL6,L66I=%KJ_IPARM_SCR);
     1200     5752        %KI$CCMD;
     1201     5767        %KL_ACCTNG (STCLASS="");
     1202     5781        %EL$FECRASH (NAME=FCR,STCLASS="");
     1203     5786        %KL_FEPST(STCLASS="");
     1204     5821        %KI$FEI (STCLASS="BASED(FEI$)");
     1205     5905
     1206     5906
     1207     5907    1   DCL IT_CP6UP UBIN SYMREF ;
     1208     5908    1   DCL FEI UBIN WORD;
     1209     5909    1   DCL FEI$ PTR;
     1210     5910    1   DCL PROB UBIN WORD;
     1211     5911    1   DCL TDCT$ PTR;
     1212     5912    1   DCL ICQ$ PTR;
     1213     5913    1   DCL OCQ$ PTR;
     1214     5914    1   DCL TEMP UBIN WORD;
     1215     5915    1   DCL TLOCK BIT(72);
     1216     5916    1   DCL RFEI UBIN;
     1217     5917    1   DCL LOGREMDN BIT(1) ALIGNED;
     1218     5918    1   DCL STOPFLG BIT(36) ALIGNED;
     1219     5919    1   DCL 1 BFEV CONSTANT ALIGNED,
     1220     5920    1            2 PROB UBIN HALF UNAL INIT(KIER_NOBT),
     1221     5921    1            2 STATE UBIN HALF UNAL INIT(KIST_DN);
     1222     5922    1   DCL 1 DFEV CONSTANT ALIGNED,
     1223     5923    1            2 PROB UBIN HALF UNAL INIT(KIER_NOBT),
     1224     5924    1            2 STATE UBIN HALF UNAL INIT(KIST_DMP);
     1225     5925        %K$RWPARM (NAME=K$RWPARM);
     1226     6241
     1227     6242        /* Entry point references */
     1228     6243    1   DCL MMS$VREL ENTRY(2) ALTRET;
     1229     6244    1   DCL KUB$WRITE ENTRY(3) ALTRET;
PL6.E3A0      #006=KIQ$FEABT File=KIQ$QMGR.:E05TSI                               WED 07/30/97 00:40 Page:229
     1230     6245    1   DCL NIS$DCCON ENTRY(3);
     1231     6246    1   DCL KIN$CONV_NODE ENTRY(3) ALTRET;
     1232     6247    1   DCL KIN$RECV ENTRY(1) ALTRET;
     1233     6248    1   DCL KCD$DSCTRM ENTRY(2);
     1234     6249    1   DCL MMS$WSQMAP ENTRY(1) ALTRET;
     1235     6250    1   DCL SSR$RUE ENTRY(4);
     1236     6251    1   DCL ELA$SYSLOG ENTRY(6) ALTRET;
     1237     6252    1   DCL SSC$MONTIMR ENTRY(3);
     1238     6253
     1239     6254    1   DCL SC_BADRCD ENTRY CONV(2,0);
     1240     6255
     1241     6256        %K$RWPARM (NAME=K_RWPARM_CON, STCLASS=SYMREF);

   6570  1 000002                       FEABT        null
     1242     6572
     1243     6573        %EJECT;
PL6.E3A0      #006=KIQ$FEABT File=KIQ$QMGR.:E05TSI                               WED 07/30/97 00:40 Page:230
     1244     6574
     1245     6575    1   FEABT: ;
     1246     6576    1        STOPFLG='0'B;

   6576  1 000002   200036 450100                    STZ     STOPFLG,,AUTO

   6576  1 000003                       ABT          null
     1247     6577    1   ABT: ;
     1248     6578    1        FEI$ = KI$FEI$(FEI);

   6578  1 000003   200003 470500                    LDP0    @FEI,,AUTO
         1 000004   000000 720100                    LXL0    0,,PR0
         1 000005   000000 471400 xsym               LDP1    KI_FEI$$
         1 000006   100000 236110                    LDQ     0,X0,PR1
         1 000007   200025 756100                    STQ     FEI$,,AUTO

     1249     6579    1        IF KI$FEI.FEST = KIST_MASKED THEN

   6579  1 000010   200025 473500                    LDP3    FEI$,,AUTO
         1 000011   300002 236100                    LDQ     2,,PR3
         1 000012   000777 376003                    ANQ     511,DU
         1 000013   000007 116003                    CMPQ    7,DU
         1 000014   000016 601000 1                  TNZ     s:6581

     1250     6580    1           RETURN ;

   6580  1 000015   000000 702200 xent               TSX2  ! X66_ARET

     1251     6581    1        ICQ$=KI$FEI.ICQ$;

   6581  1 000016   300004 236100                    LDQ     4,,PR3
         1 000017   200027 756100                    STQ     ICQ$,,AUTO

     1252     6582    1        OCQ$=KI$FEI.OCQ$;

   6582  1 000020   300003 236100                    LDQ     3,,PR3
         1 000021   200030 756100                    STQ     OCQ$,,AUTO
PL6.E3A0      #006=KIQ$FEABT File=KIQ$QMGR.:E05TSI                               WED 07/30/97 00:40 Page:231

     1253     6583    1        TLOCK='1'B;

   6583  1 000022   400000 235003                    LDA     -131072,DU
         1 000023   000000 236003                    LDQ     0,DU
         1 000024   200032 757100                    STAQ    TLOCK,,AUTO

     1254     6584             %LOCK (G=TLOCK);                   /* INHIBIT */

   6585  1 000025   200032 634500                    EPPR4   TLOCK,,AUTO
         1 000026   200110 454500                    STP4    K$RWPARM+40,,AUTO
         1 000027   200110 630500                    EPPR0   K$RWPARM+40,,AUTO
         1 000030   000017 631400 xsym               EPPR1   B_VECTNIL+15
         1 000031   000000 701000 xent               TSX1    HFC$LOCK
         1 000032   000000 011000                    NOP     0

     1255     6587    1        CALL MMS$WSQMAP(KI$FEI.PTPPNO#);

   6587  1 000033   200025 236100                    LDQ     FEI$,,AUTO
         1 000034   000014 036003                    ADLQ    12,DU
         1 000035   200110 756100                    STQ     K$RWPARM+40,,AUTO
         1 000036   200110 630500                    EPPR0   K$RWPARM+40,,AUTO
         1 000037   000017 631400 xsym               EPPR1   B_VECTNIL+15
         1 000040   000000 701000 xent               TSX1    MMS$WSQMAP
         1 000041   000000 011000                    NOP     0

     1256     6588             %LOCK (G#="OCQ$->KI$QHDR.GATE");

   6589  1 000042   200030 236100                    LDQ     OCQ$,,AUTO
         1 000043   000006 036003                    ADLQ    6,DU
         1 000044   200110 756100                    STQ     K$RWPARM+40,,AUTO
         1 000045   200110 630500                    EPPR0   K$RWPARM+40,,AUTO
         1 000046   000017 631400 xsym               EPPR1   B_VECTNIL+15
         1 000047   000000 701000 xent               TSX1    HFC$LOCK
         1 000050   000000 011000                    NOP     0

     1257     6591    1        KI$FEI.PBST.PROB =PROB;
PL6.E3A0      #006=KIQ$FEABT File=KIQ$QMGR.:E05TSI                               WED 07/30/97 00:40 Page:232

   6591  1 000051   200004 470500                    LDP0    @PROB,,AUTO
         1 000052   000000 720100                    LXL0    0,,PR0
         1 000053   200025 471500                    LDP1    FEI$,,AUTO
         1 000054   100015 740100                    STX0    13,,PR1

     1258     6592
     1259     6593        /* If the state was booting dont interupt the L6 */
     1260     6594    1        IF PROB ~= KIER_FREQ

   6594  1 000055   000000 235100                    LDA     0,,PR0
         1 000056   000020 115007                    CMPA    16,DL
         1 000057   000156 600000 1                  TZE     s:6625

     1261     6595    1        THEN
     1262     6596    2          DO ;

     1263     6597    2             OCQ$->KI$QHDR.CCMD=INTL6;

   6597  1 000060   000000 236000 0                  LDQ     INTL6
         1 000061   200030 473500                    LDP3    OCQ$,,AUTO
         1 000062   300000 756100                    STQ     0,,PR3

     1264     6598    3             DO CASE (PROB);

   6598  1 000063   000000 235100                    LDA     0,,PR0
         1 000064   000017 115007                    CMPA    15,DL
         1 000065   000067 602005 1                  TNC     s:6598+4,AL
         1 000066   000142 710000 1                  TRA     s:6622
         1 000067   000142 710000 1                  TRA     s:6622
         1 000070   000106 710000 1                  TRA     s:6601
         1 000071   000106 710000 1                  TRA     s:6601
         1 000072   000142 710000 1                  TRA     s:6622
         1 000073   000142 710000 1                  TRA     s:6622
         1 000074   000142 710000 1                  TRA     s:6622
         1 000075   000120 710000 1                  TRA     s:6607
         1 000076   000113 710000 1                  TRA     s:6604
PL6.E3A0      #006=KIQ$FEABT File=KIQ$QMGR.:E05TSI                               WED 07/30/97 00:40 Page:233
         1 000077   000113 710000 1                  TRA     s:6604
         1 000100   000113 710000 1                  TRA     s:6604
         1 000101   000120 710000 1                  TRA     s:6607
         1 000102   000125 710000 1                  TRA     s:6610
         1 000103   000142 710000 1                  TRA     s:6622
         1 000104   000130 710000 1                  TRA     s:6614
         1 000105   000140 710000 1                  TRA     s:6619

     1265     6599
     1266     6600    3              CASE (KIER_TO,KIER_QFL);

     1267     6601    3                ADDR(OCQ$->KI$QHDR.CCMD)->KI$CCMD.L6PARM = %KJ_IPARM_TO;

   6601  1 000106   300000 236100                    LDQ     0,,PR3
         1 000107   000000 376000 2                  ANQ     0
         1 000110   000400 276007                    ORQ     256,DL
         1 000111   300000 756100                    STQ     0,,PR3
         1 000112   000142 710000 1                  TRA     s:6622

     1268     6602
     1269     6603    3              CASE (KIER_BDLN,KIER_MFMT,KIER_BFCN);

     1270     6604    3                ADDR(OCQ$->KI$QHDR.CCMD)->KI$CCMD.L6PARM = %KJ_IPARM_BADMSG;

   6604  1 000113   300000 236100                    LDQ     0,,PR3
         1 000114   000000 376000 2                  ANQ     0
         1 000115   000500 276007                    ORQ     320,DL
         1 000116   300000 756100                    STQ     0,,PR3
         1 000117   000142 710000 1                  TRA     s:6622

     1271     6605
     1272     6606    3              CASE (KIER_DCFT,KIER_BINT);

     1273     6607    3                ADDR(OCQ$->KI$QHDR.CCMD)->KI$CCMD.L6PARM = %KJ_IPARM_FLT;

   6607  1 000120   300000 236100                    LDQ     0,,PR3
         1 000121   000000 376000 2                  ANQ     0
PL6.E3A0      #006=KIQ$FEABT File=KIQ$QMGR.:E05TSI                               WED 07/30/97 00:40 Page:234
         1 000122   000600 276007                    ORQ     384,DL
         1 000123   300000 756100                    STQ     0,,PR3
         1 000124   000142 710000 1                  TRA     s:6622

     1274     6608
     1275     6609    3              CASE (KIER_BCMD);

     1276     6610    3                ADDR(OCQ$->KI$QHDR.CCMD)->KI$CCMD.L6PARM = %KJ_IPARM_OREQ;

   6610  1 000125   000700 236007                    LDQ     448,DL
         1 000126   300000 256100                    ORSQ    0,,PR3
         1 000127   000142 710000 1                  TRA     s:6622

     1277     6611
     1278     6612    3              CASE ( KIER_STOP ) ;

     1279     6613                            /* The effect of the following is to send a KJ_IPARM_CNOP */
     1280     6614    3                ADDR(OCQ$->KI$QHDR.CCMD)->KI$CCMD.L6PARM = 0 ;

   6614  1 000130   000000 236000 2                  LDQ     0
         1 000131   300000 356100                    ANSQ    0,,PR3

     1281     6615    3                ADDR(OCQ$->KI$QHDR.CCMD)->KI$CCMD.L6INT = 1 ;

   6615  1 000132   300000 236100                    LDQ     0,,PR3
         1 000133   000001 376000 2                  ANQ     1
         1 000134   001000 276007                    ORQ     512,DL
         1 000135   300000 756100                    STQ     0,,PR3

     1282     6616    3                STOPFLG = '0'B ;

   6616  1 000136   200036 450100                    STZ     STOPFLG,,AUTO
         1 000137   000142 710000 1                  TRA     s:6622

     1283     6617
     1284     6618    3              CASE ( KIER_PART ) ;

PL6.E3A0      #006=KIQ$FEABT File=KIQ$QMGR.:E05TSI                               WED 07/30/97 00:40 Page:235
     1285     6619    3                STOPFLG = '1'B ;

   6619  1 000140   400000 236003                    LDQ     -131072,DU
         1 000141   200036 756100                    STQ     STOPFLG,,AUTO

     1286     6620
     1287     6621    3             END;

     1288     6622    2             CALL NIS$DCCON (KI$FEI.FECH ,STOPFLG,KI$FEI.FEWSQ);

   6622  1 000142   200025 236100                    LDQ     FEI$,,AUTO
         1 000143   000005 036003                    ADLQ    5,DU
         1 000144   200112 756100                    STQ     K$RWPARM+42,,AUTO
         1 000145   200036 634500                    EPPR4   STOPFLG,,AUTO
         1 000146   200111 454500                    STP4    K$RWPARM+41,,AUTO
         1 000147   200025 236100                    LDQ     FEI$,,AUTO
         1 000150   000002 036003                    ADLQ    2,DU
         1 000151   200110 756100                    STQ     K$RWPARM+40,,AUTO
         1 000152   200110 630500                    EPPR0   K$RWPARM+40,,AUTO
         1 000153   000021 631400 xsym               EPPR1   B_VECTNIL+17
         1 000154   000000 701000 xent               TSX1    NIS$DCCON
         1 000155   000000 011000                    NOP     0

     1289     6623    2          END;

     1290     6624
     1291     6625    1        ICQ$->KI$QHDR.INTLOCK=1;

   6625  1 000156   000001 235007                    LDA     1,DL
         1 000157   200027 470500                    LDP0    ICQ$,,AUTO
         1 000160   000004 755100                    STA     4,,PR0

     1292     6626    1        OCQ$->KI$QHDR.INTLOCK=1;

   6626  1 000161   200030 471500                    LDP1    OCQ$,,AUTO
         1 000162   100004 755100                    STA     4,,PR1

PL6.E3A0      #006=KIQ$FEABT File=KIQ$QMGR.:E05TSI                               WED 07/30/97 00:40 Page:236
     1293     6627    1        KI$FEI.QFLHD$ =ADDR(NIL);

   6627  1 000163   000001 236000 xsym               LDQ     B_VECTNIL+1
         1 000164   200025 473500                    LDP3    FEI$,,AUTO
         1 000165   300017 756100                    STQ     15,,PR3

     1294     6628    1        KI$FEI.PBST.STATE =KI$FEI.FEST ;

   6628  1 000166   300002 220100                    LDX0    2,,PR3
         1 000167   000777 360003                    ANX0    511,DU
         1 000170   300015 440100                    SXL0    13,,PR3

     1295     6629    1        IF STOPFLG THEN

   6629  1 000171   200036 235100                    LDA     STOPFLG,,AUTO
         1 000172   000176 600000 1                  TZE     s:6631

     1296     6630    1           KI$FEI.FEST = KIST_MASKED ;

   6630  1 000173   000007 236003                    LDQ     7,DU
         1 000174   300002 552120                    STBQ    2,'20'O,PR3
         1 000175   000207 710000 1                  TRA     s:6636

     1297     6631    1        ELSE IF PROB = KIER_STOP THEN

   6631  1 000176   200004 474500                    LDP4    @PROB,,AUTO
         1 000177   400000 235100                    LDA     0,,PR4
         1 000200   000015 115007                    CMPA    13,DL
         1 000201   000205 601000 1                  TNZ     s:6634

     1298     6632    1              KI$FEI.FEST = KIST_STOPPING ;

   6632  1 000202   000010 236003                    LDQ     8,DU
         1 000203   300002 552120                    STBQ    2,'20'O,PR3
         1 000204   000207 710000 1                  TRA     s:6636

     1299     6633    1           ELSE
PL6.E3A0      #006=KIQ$FEABT File=KIQ$QMGR.:E05TSI                               WED 07/30/97 00:40 Page:237
     1300     6634    1              KI$FEI.FEST = KIST_DN ;

   6634  1 000205   000000 236003                    LDQ     0,DU
         1 000206   300002 552120                    STBQ    2,'20'O,PR3

     1301     6635             %UNLOCK (G#="OCQ$->KI$QHDR.GATE");

   6636  1 000207   200030 236100                    LDQ     OCQ$,,AUTO
         1 000210   000006 036003                    ADLQ    6,DU
         1 000211   200110 756100                    STQ     K$RWPARM+40,,AUTO
         1 000212   200110 630500                    EPPR0   K$RWPARM+40,,AUTO
         1 000213   000017 631400 xsym               EPPR1   B_VECTNIL+15
         1 000214   000000 701000 xent               TSX1    HFC$UNLOCK
         1 000215   000000 011000                    NOP     0

     1302     6638    1        IF PROB = KIER_STOP THEN

   6638  1 000216   200004 470500                    LDP0    @PROB,,AUTO
         1 000217   000000 235100                    LDA     0,,PR0
         1 000220   000015 115007                    CMPA    13,DL
         1 000221   000236 601000 1                  TNZ     s:6640

     1303     6639    1           CALL SSC$MONTIMR ( SEC5 , ENTADDR(KIQ$MASKFEP) , FEI ) ;

   6639  1 000222   000551 636000 1                  EAQ     s:6694
         1 000223   200110 756100                    STQ     K$RWPARM+40,,AUTO
         1 000224   200003 236100                    LDQ     @FEI,,AUTO
         1 000225   200113 756100                    STQ     K$RWPARM+43,,AUTO
         1 000226   200110 631500                    EPPR1   K$RWPARM+40,,AUTO
         1 000227   200112 451500                    STP1    K$RWPARM+42,,AUTO
         1 000230   000003 236000 2                  LDQ     3
         1 000231   200111 756100                    STQ     K$RWPARM+41,,AUTO
         1 000232   200111 630500                    EPPR0   K$RWPARM+41,,AUTO
         1 000233   000021 631400 xsym               EPPR1   B_VECTNIL+17
         1 000234   000000 701000 xent               TSX1    SSC$MONTIMR
         1 000235   000000 011000                    NOP     0

PL6.E3A0      #006=KIQ$FEABT File=KIQ$QMGR.:E05TSI                               WED 07/30/97 00:40 Page:238
     1304     6640    2        DO CASE (KI$FEI.PBST.STATE );

   6640  1 000236   200025 470500                    LDP0    FEI$,,AUTO
         1 000237   000015 720100                    LXL0    13,,PR0
         1 000240   000007 100003                    CMPX0   7,DU
         1 000241   000243 602010 1                  TNC     s:6640+5,X0
         1 000242   000425 710000 1                  TRA     s:6669
         1 000243   000425 710000 1                  TRA     s:6669
         1 000244   000425 710000 1                  TRA     s:6669
         1 000245   000252 710000 1                  TRA     s:6642
         1 000246   000252 710000 1                  TRA     s:6642
         1 000247   000252 710000 1                  TRA     s:6642
         1 000250   000403 710000 1                  TRA     s:6665
         1 000251   000337 710000 1                  TRA     s:6655

     1305     6641    2         CASE (KIST_RUN,KIST_QFL,KIST_DB);

     1306     6642    2           K$RWPARM = K_RWPARM_CON;

   6642  1 000252   000100 100400                    MLR     fill='000'O
         1 000253   000000 000234 xsym               ADSC9   K_RWPARM_CON             cn=0,n=156
         1 000254   200040 000234                    ADSC9   K$RWPARM,,AUTO           cn=0,n=156

     1307     6643    2           K$RWPARM.FUNCTION = %K_REPDISC;

   6643  1 000255   000007 235007                    LDA     7,DL
         1 000256   200060 755100                    STA     K$RWPARM+16,,AUTO

     1308     6644    2           K$RWPARM.FEX = FEI;

   6644  1 000257   200003 471500                    LDP1    @FEI,,AUTO
         1 000260   100000 235100                    LDA     0,,PR1
         1 000261   200061 755100                    STA     K$RWPARM+17,,AUTO

     1309     6645    2           CALL KIN$RECV(K$RWPARM);

   6645  1 000262   200040 633500                    EPPR3   K$RWPARM,,AUTO
PL6.E3A0      #006=KIQ$FEABT File=KIQ$QMGR.:E05TSI                               WED 07/30/97 00:40 Page:239
         1 000263   200110 453500                    STP3    K$RWPARM+40,,AUTO
         1 000264   200110 630500                    EPPR0   K$RWPARM+40,,AUTO
         1 000265   000017 631400 xsym               EPPR1   B_VECTNIL+15
         1 000266   000000 701000 xent               TSX1    KIN$RECV
         1 000267   000000 011000                    NOP     0

     1310     6646    2           KL_ACCTNG.FEX=KI$FEI.FEP#;

   6646  1 000270   200025 470500                    LDP0    FEI$,,AUTO
         1 000271   000012 236100                    LDQ     10,,PR0
         1 000272   000022 736000                    QLS     18
         1 000273   200005 552140                    STBQ    KL_ACCTNG,'40'O,AUTO

     1311     6647    2           IF STOPFLG

   6647  1 000274   200036 235100                    LDA     STOPFLG,,AUTO
         1 000275   000301 600000 1                  TZE     s:6649

     1312     6648    2           THEN KL_ACCTNG.REASON=%KLDR_STOP;

   6648  1 000276   000012 236003                    LDQ     10,DU
         1 000277   200005 552120                    STBQ    KL_ACCTNG,'20'O,AUTO
         1 000300   000303 710000 1                  TRA     s:6650

     1313     6649    2           ELSE KL_ACCTNG.REASON=%KLDR_FCRSH;

   6649  1 000301   000004 236003                    LDQ     4,DU
         1 000302   200005 552120                    STBQ    KL_ACCTNG,'20'O,AUTO

     1314     6650    3           CALL ELA$SYSLOG (EL_FEGN,KL_ACCTNG,1,'0'B,2,TEMP) WHENALTRETURN DO ;

   6650  1 000303   200031 631500                    EPPR1   TEMP,,AUTO
         1 000304   200115 451500                    STP1    K$RWPARM+45,,AUTO
         1 000305   000004 236000 2                  LDQ     4
         1 000306   200114 756100                    STQ     K$RWPARM+44,,AUTO
         1 000307   000006 237000 2                  LDAQ    6
         1 000310   200112 757100                    STAQ    K$RWPARM+42,,AUTO
PL6.E3A0      #006=KIQ$FEABT File=KIQ$QMGR.:E05TSI                               WED 07/30/97 00:40 Page:240
         1 000311   200005 633500                    EPPR3   KL_ACCTNG,,AUTO
         1 000312   200111 453500                    STP3    K$RWPARM+41,,AUTO
         1 000313   000010 236000 2                  LDQ     8
         1 000314   200110 756100                    STQ     K$RWPARM+40,,AUTO
         1 000315   200110 630500                    EPPR0   K$RWPARM+40,,AUTO
         1 000316   000024 631400 xsym               EPPR1   B_VECTNIL+20
         1 000317   000000 701000 xent               TSX1    ELA$SYSLOG
         1 000320   000322 702000 1                  TSX2    s:6651
         1 000321   000336 710000 1                  TRA     s:6652

     1315     6651    3                CALL SSC$MONTIMR ( SEC5 , ENTADDR ( KIQ$LGFEDN ) , KL_ACCTNG ) ;

   6651  1 000322   001041 636000 1                  EAQ     s:6764
         1 000323   200110 756100                    STQ     K$RWPARM+40,,AUTO
         1 000324   200005 630500                    EPPR0   KL_ACCTNG,,AUTO
         1 000325   200113 450500                    STP0    K$RWPARM+43,,AUTO
         1 000326   200110 631500                    EPPR1   K$RWPARM+40,,AUTO
         1 000327   200112 451500                    STP1    K$RWPARM+42,,AUTO
         1 000330   000003 236000 2                  LDQ     3
         1 000331   200111 756100                    STQ     K$RWPARM+41,,AUTO
         1 000332   200111 630500                    EPPR0   K$RWPARM+41,,AUTO
         1 000333   000021 631400 xsym               EPPR1   B_VECTNIL+17
         1 000334   000000 701000 xent               TSX1    SSC$MONTIMR
         1 000335   000000 011000                    NOP     0

     1316     6652    3             END ;

   6652  1 000336   000425 710000 1                  TRA     s:6669

     1317     6653    2         CASE (KIST_TOK);

     1318     6654    2         CASE (KIST_BT);

     1319     6655    2           IF KI$FEI.BDU# ~= 0

   6655  1 000337   000007 236100                    LDQ     7,,PR0
         1 000340   000777 316003                    CANQ    511,DU
PL6.E3A0      #006=KIQ$FEABT File=KIQ$QMGR.:E05TSI                               WED 07/30/97 00:40 Page:241
         1 000341   000425 600000 1                  TZE     s:6669

     1320     6656    2           THEN
     1321     6657    3             DO ;

     1322     6658    3                KI$FEI.BDARS =OCQ$->KI$QHDR.BDCTL.MLCPZ*1024/4;

   6658  1 000342   200030 471500                    LDP1    OCQ$,,AUTO
         1 000343   100001 236100                    LDQ     1,,PR1
         1 000344   000010 736000                    QLS     8
         1 000345   177400 376007                    ANQ     65280,DL
         1 000346   000000 621006                    EAX1    0,QL
         1 000347   000011 441100                    SXL1    9,,PR0

     1323     6659    3                CALL MMS$VREL (KI$FEI.FEWSQ ,KI$FEI.BD$ );

   6659  1 000350   200025 236100                    LDQ     FEI$,,AUTO
         1 000351   000010 036003                    ADLQ    8,DU
         1 000352   200111 756100                    STQ     K$RWPARM+41,,AUTO
         1 000353   200025 236100                    LDQ     FEI$,,AUTO
         1 000354   000005 036003                    ADLQ    5,DU
         1 000355   200110 756100                    STQ     K$RWPARM+40,,AUTO
         1 000356   200110 630500                    EPPR0   K$RWPARM+40,,AUTO
         1 000357   000020 631400 xsym               EPPR1   B_VECTNIL+16
         1 000360   000000 701000 xent               TSX1    MMS$VREL
         1 000361   000000 011000                    NOP     0

     1324     6660    3                IF KI$FEI.BDU# ~= JG_FROG# /* FROG */

   6660  1 000362   200025 470500                    LDP0    FEI$,,AUTO
         1 000363   000007 236100                    LDQ     7,,PR0
         1 000364   000777 376003                    ANQ     511,DU
         1 000365   000010 116003                    CMPQ    8,DU
         1 000366   000377 600000 1                  TZE     s:6662

     1325     6661    3                THEN CALL SSR$RUE (%SS_UQA,KI$FEI.BDU# );

PL6.E3A0      #006=KIQ$FEABT File=KIQ$QMGR.:E05TSI                               WED 07/30/97 00:40 Page:242
   6661  1 000367   200025 236100                    LDQ     FEI$,,AUTO
         1 000370   000012 036000 2                  ADLQ    10
         1 000371   000013 235000 2                  LDA     11
         1 000372   200110 757100                    STAQ    K$RWPARM+40,,AUTO
         1 000373   200110 630500                    EPPR0   K$RWPARM+40,,AUTO
         1 000374   000020 631400 xsym               EPPR1   B_VECTNIL+16
         1 000375   000000 701000 xent               TSX1    SSR$RUE
         1 000376   000000 011000                    NOP     0

     1326     6662    3                KI$FEI.BDU# =0;

   6662  1 000377   200025 470500                    LDP0    FEI$,,AUTO
         1 000400   000000 236003                    LDQ     0,DU
         1 000401   000007 552120                    STBQ    7,'20'O,PR0

     1327     6663    3             END;

   6663  1 000402   000425 710000 1                  TRA     s:6669

     1328     6664    2         CASE (KIST_DMP);

     1329     6665    2           CALL MMS$VREL (KI$FEI.FEWSQ ,KI$FEI.BD$ );

   6665  1 000403   200025 236100                    LDQ     FEI$,,AUTO
         1 000404   000010 036003                    ADLQ    8,DU
         1 000405   200111 756100                    STQ     K$RWPARM+41,,AUTO
         1 000406   200025 236100                    LDQ     FEI$,,AUTO
         1 000407   000005 036003                    ADLQ    5,DU
         1 000410   200110 756100                    STQ     K$RWPARM+40,,AUTO
         1 000411   200110 630500                    EPPR0   K$RWPARM+40,,AUTO
         1 000412   000020 631400 xsym               EPPR1   B_VECTNIL+16
         1 000413   000000 701000 xent               TSX1    MMS$VREL
         1 000414   000000 011000                    NOP     0

     1330     6666    2           CALL SSR$RUE (%SS_UQA,KI$FEI.BDU# );

   6666  1 000415   200025 236100                    LDQ     FEI$,,AUTO
PL6.E3A0      #006=KIQ$FEABT File=KIQ$QMGR.:E05TSI                               WED 07/30/97 00:40 Page:243
         1 000416   000012 036000 2                  ADLQ    10
         1 000417   000013 235000 2                  LDA     11
         1 000420   200110 757100                    STAQ    K$RWPARM+40,,AUTO
         1 000421   200110 630500                    EPPR0   K$RWPARM+40,,AUTO
         1 000422   000020 631400 xsym               EPPR1   B_VECTNIL+16
         1 000423   000000 701000 xent               TSX1    SSR$RUE
         1 000424   000000 011000                    NOP     0

     1331     6667    2        END;

     1332     6668
     1333     6669    1        KL_FEPST.FEP = KI$FEI.FEP#;

   6669  1 000425   200025 470500                    LDP0    FEI$,,AUTO
         1 000426   000012 236100                    LDQ     10,,PR0
         1 000427   000011 736000                    QLS     9
         1 000430   200021 552120                    STBQ    KL_FEPST,'20'O,AUTO

     1334     6670    1        KL_FEPST.FCN = IGA_FEPST;

   6670  1 000431   040000 236003                    LDQ     16384,DU
         1 000432   200021 552140                    STBQ    KL_FEPST,'40'O,AUTO

     1335     6671    1        KL_FEPST.PROB = KI$FEI.PBST.PROB ;

   6671  1 000433   000015 220100                    LDX0    13,,PR0
         1 000434   200021 440100                    SXL0    KL_FEPST,,AUTO

     1336     6672    1        KL_FEPST.STATE = KI$FEI.PBST.STATE ;

   6672  1 000435   000015 721100                    LXL1    13,,PR0
         1 000436   200022 741100                    STX1    KL_FEPST+1,,AUTO

     1337     6673    1        CALL KUB$WRITE (KL_FEPST,LENGTHC(KL_FEPST),'HLPADMIN') WHENALTRETURN

   6673  1 000437   000015 236000 2                  LDQ     13
         1 000440   200112 756100                    STQ     K$RWPARM+42,,AUTO
PL6.E3A0      #006=KIQ$FEABT File=KIQ$QMGR.:E05TSI                               WED 07/30/97 00:40 Page:244
         1 000441   000016 236000 2                  LDQ     14
         1 000442   200111 756100                    STQ     K$RWPARM+41,,AUTO
         1 000443   200021 631500                    EPPR1   KL_FEPST,,AUTO
         1 000444   200110 451500                    STP1    K$RWPARM+40,,AUTO
         1 000445   200110 630500                    EPPR0   K$RWPARM+40,,AUTO
         1 000446   000021 631400 xsym               EPPR1   B_VECTNIL+17
         1 000447   000000 701000 xent               TSX1    KUB$WRITE
         1 000450   000452 702000 1                  TSX2    s:6675
         1 000451   000466 710000 1                  TRA     s:6677

     1338     6674    2          DO ;

     1339     6675    2             CALL SSC$MONTIMR (SEC5,ENTADDR(KIQ$TELL),FEI);

   6675  1 000452   000770 636000 1                  EAQ     s:6751
         1 000453   200110 756100                    STQ     K$RWPARM+40,,AUTO
         1 000454   200003 236100                    LDQ     @FEI,,AUTO
         1 000455   200113 756100                    STQ     K$RWPARM+43,,AUTO
         1 000456   200110 630500                    EPPR0   K$RWPARM+40,,AUTO
         1 000457   200112 450500                    STP0    K$RWPARM+42,,AUTO
         1 000460   000003 236000 2                  LDQ     3
         1 000461   200111 756100                    STQ     K$RWPARM+41,,AUTO
         1 000462   200111 630500                    EPPR0   K$RWPARM+41,,AUTO
         1 000463   000021 631400 xsym               EPPR1   B_VECTNIL+17
         1 000464   000000 701000 xent               TSX1    SSC$MONTIMR
         1 000465   000000 011000                    NOP     0

     1340     6676    2          END;

     1341     6677    1        FCR.FENM.PROBLEM=KI$FEI.PBST.PROB ;

   6677  1 000466   200025 470500                    LDP0    FEI$,,AUTO
         1 000467   000015 236100                    LDQ     13,,PR0
         1 000470   000011 772000                    QRL     9
         1 000471   200014 552110                    STBQ    FCR,'10'O,AUTO

     1342     6678    1        FCR.FENM.STATE=KI$FEI.PBST.STATE ;
PL6.E3A0      #006=KIQ$FEABT File=KIQ$QMGR.:E05TSI                               WED 07/30/97 00:40 Page:245

   6678  1 000472   000015 236100                    LDQ     13,,PR0
         1 000473   200014 552104                    STBQ    FCR,'04'O,AUTO

     1343     6679    1        FCR.FENM.FEP#=KI$FEI.FEP#;

   6679  1 000474   000012 236100                    LDQ     10,,PR0
         1 000475   000011 772000                    QRL     9
         1 000476   000777 376007                    ANQ     511,DL
         1 000477   200015 756100                    STQ     FCR+1,,AUTO

     1344     6680    1        CALL KIN$CONV_NODE(FCR.FENM.NODENAME,FCR.FENM.FEP#);

   6680  1 000500   200015 631500                    EPPR1   FCR+1,,AUTO
         1 000501   200111 451500                    STP1    K$RWPARM+41,,AUTO
         1 000502   200016 633500                    EPPR3   FCR+2,,AUTO
         1 000503   200110 453500                    STP3    K$RWPARM+40,,AUTO
         1 000504   200110 630500                    EPPR0   K$RWPARM+40,,AUTO
         1 000505   000020 631400 xsym               EPPR1   B_VECTNIL+16
         1 000506   000000 701000 xent               TSX1    KIN$CONV_NODE
         1 000507   000000 011000                    NOP     0

     1345     6681    1        FCR.FENM.CRASH# = KI$FEI.SEQ;

   6681  1 000510   200025 470500                    LDP0    FEI$,,AUTO
         1 000511   000007 236100                    LDQ     7,,PR0
         1 000512   177000 376003                    ANQ     65024,DU
         1 000513   000011 772000                    QRL     9
         1 000514   200014 552120                    STBQ    FCR,'20'O,AUTO

     1346     6682    1        FCR.FENM.DEVADDR=KI$FEI.FECH ;

   6682  1 000515   000002 236100                    LDQ     2,,PR0
         1 000516   200014 552140                    STBQ    FCR,'40'O,AUTO

     1347     6683    1        CALL ELA$SYSLOG (EL_FEPCRASH,FCR,SIZEW(FCR),'0'B,1,TEMP);

PL6.E3A0      #006=KIQ$FEABT File=KIQ$QMGR.:E05TSI                               WED 07/30/97 00:40 Page:246
   6683  1 000517   200031 631500                    EPPR1   TEMP,,AUTO
         1 000520   200115 451500                    STP1    K$RWPARM+45,,AUTO
         1 000521   000006 236000 2                  LDQ     6
         1 000522   200114 756100                    STQ     K$RWPARM+44,,AUTO
         1 000523   000020 237000 2                  LDAQ    16
         1 000524   200112 757100                    STAQ    K$RWPARM+42,,AUTO
         1 000525   200014 633500                    EPPR3   FCR,,AUTO
         1 000526   200111 453500                    STP3    K$RWPARM+41,,AUTO
         1 000527   000022 236000 2                  LDQ     18
         1 000530   200110 756100                    STQ     K$RWPARM+40,,AUTO
         1 000531   200110 630500                    EPPR0   K$RWPARM+40,,AUTO
         1 000532   000024 631400 xsym               EPPR1   B_VECTNIL+20
         1 000533   000000 701000 xent               TSX1    ELA$SYSLOG
         1 000534   000000 011000                    NOP     0

     1348     6684             %UNLOCK (G=TLOCK);

   6685  1 000535   200032 630500                    EPPR0   TLOCK,,AUTO
         1 000536   200110 450500                    STP0    K$RWPARM+40,,AUTO
         1 000537   200110 630500                    EPPR0   K$RWPARM+40,,AUTO
         1 000540   000017 631400 xsym               EPPR1   B_VECTNIL+15
         1 000541   000000 701000 xent               TSX1    HFC$UNLOCK
         1 000542   000000 011000                    NOP     0

     1349     6687    1        RETURN;

   6687  1 000543   000000 702200 xent               TSX2  ! X66_ARET

     1350     6688
     1351     6689    1   KIQ$FESTOP: ENTRY (FEI,PROB);

   6689  1 000544   000000 700200 xent  KIQ$FESTOP   TSX0  ! X66_AUTO_2
         1 000545   000116 000002                    ZERO    78,2

     1352     6690
     1353     6691    1        STOPFLG='1'B;

PL6.E3A0      #006=KIQ$FEABT File=KIQ$QMGR.:E05TSI                               WED 07/30/97 00:40 Page:247
   6691  1 000546   400000 236003                    LDQ     -131072,DU
         1 000547   200036 756100                    STQ     STOPFLG,,AUTO

     1354     6692    1        GOTO ABT;

   6692  1 000550   000003 710000 1                  TRA     ABT

     1355     6693
     1356     6694    1   KIQ$MASKFEP: ENTRY ( FEI ) ;

   6694  1 000551   000000 700200 xent  KIQ$MASKFEP  TSX0  ! X66_AUTO_2
         1 000552   000116 000002                    ZERO    78,2

     1357     6695
     1358     6696        /* This entry should only be used by KIQ$FEABT for stopping FEPs.
     1359     6697           It is entered after a 5 second wait so that COUPLER has a chance
     1360     6698           to read the CNOP command before the channel is masked. */
     1361     6699
     1362     6700    1        FEI$ = KI$FEI$ ( FEI ) ;

   6700  1 000553   200003 470500                    LDP0    @FEI,,AUTO
         1 000554   000000 720100                    LXL0    0,,PR0
         1 000555   000000 471400 xsym               LDP1    KI_FEI$$
         1 000556   100000 236110                    LDQ     0,X0,PR1
         1 000557   200025 756100                    STQ     FEI$,,AUTO

     1363     6701             %LOCK ( G = KI$FEI.LOCK ) ;

   6702  1 000560   200025 630500                    EPPR0   FEI$,,AUTO
         1 000561   000017 631400 xsym               EPPR1   B_VECTNIL+15
         1 000562   000000 701000 xent               TSX1    HFC$LOCK
         1 000563   000000 011000                    NOP     0

     1364     6704    1        IF KI$FEI.FEST = KIST_STOPPING

   6704  1 000564   200025 470500                    LDP0    FEI$,,AUTO
         1 000565   000002 236100                    LDQ     2,,PR0
PL6.E3A0      #006=KIQ$FEABT File=KIQ$QMGR.:E05TSI                               WED 07/30/97 00:40 Page:248
         1 000566   000777 376003                    ANQ     511,DU
         1 000567   000010 116003                    CMPQ    8,DU
         1 000570   000610 601000 1                  TNZ     s:6710

     1365     6705    2        THEN DO ;

     1366     6706    2             CALL NIS$DCCON ( KI$FEI.FECH , '4'O , KI$FEI.FEWSQ ) ;

   6706  1 000571   200025 236100                    LDQ     FEI$,,AUTO
         1 000572   000005 036003                    ADLQ    5,DU
         1 000573   200112 756100                    STQ     K$RWPARM+42,,AUTO
         1 000574   000023 236000 2                  LDQ     19
         1 000575   200111 756100                    STQ     K$RWPARM+41,,AUTO
         1 000576   200025 236100                    LDQ     FEI$,,AUTO
         1 000577   000002 036003                    ADLQ    2,DU
         1 000600   200110 756100                    STQ     K$RWPARM+40,,AUTO
         1 000601   200110 630500                    EPPR0   K$RWPARM+40,,AUTO
         1 000602   000021 631400 xsym               EPPR1   B_VECTNIL+17
         1 000603   000000 701000 xent               TSX1    NIS$DCCON
         1 000604   000000 011000                    NOP     0

     1367     6707    2             KI$FEI.FEST = KIST_MASKED ;

   6707  1 000605   200025 470500                    LDP0    FEI$,,AUTO
         1 000606   000007 236003                    LDQ     7,DU
         1 000607   000002 552120                    STBQ    2,'20'O,PR0

     1368     6708    2          END ;

     1369     6709             %UNLOCK ( G = KI$FEI.LOCK ) ;

   6710  1 000610   200025 630500                    EPPR0   FEI$,,AUTO
         1 000611   000017 631400 xsym               EPPR1   B_VECTNIL+15
         1 000612   000000 701000 xent               TSX1    HFC$UNLOCK
         1 000613   000000 011000                    NOP     0

     1370     6712    1        RETURN ;
PL6.E3A0      #006=KIQ$FEABT File=KIQ$QMGR.:E05TSI                               WED 07/30/97 00:40 Page:249

   6712  1 000614   000000 702200 xent               TSX2  ! X66_ARET

     1371     6713
     1372     6714    1   KIQ$PARTFEP: ENTRY (FEI,PROB);

   6714  1 000615   000000 700200 xent  KIQ$PARTFEP  TSX0  ! X66_AUTO_2
         1 000616   000116 000002                    ZERO    78,2

     1373     6715
     1374     6716    1        FEI$ = KI$FEI$(FEI);

   6716  1 000617   200003 470500                    LDP0    @FEI,,AUTO
         1 000620   000000 720100                    LXL0    0,,PR0
         1 000621   000000 471400 xsym               LDP1    KI_FEI$$
         1 000622   100000 236110                    LDQ     0,X0,PR1
         1 000623   200025 756100                    STQ     FEI$,,AUTO

     1375     6717    2        IF IT_CP6UP = 0 THEN DO ;

   6717  1 000624   000000 235000 xsym               LDA     IT_CP6UP
         1 000625   000634 601000 1                  TNZ     s:6722

     1376     6718    2             KI$FEI.PBST.PROB = KIER_PART ;

   6718  1 000626   000016 221003                    LDX1    14,DU
         1 000627   200025 473500                    LDP3    FEI$,,AUTO
         1 000630   300015 741100                    STX1    13,,PR3

     1377     6719    2             KI$FEI.FEST = KIST_DN ;

   6719  1 000631   000000 236003                    LDQ     0,DU
         1 000632   300002 552120                    STBQ    2,'20'O,PR3

     1378     6720    2          END ;

   6720  1 000633   000705 710000 1                  TRA     s:6733
PL6.E3A0      #006=KIQ$FEABT File=KIQ$QMGR.:E05TSI                               WED 07/30/97 00:40 Page:250

     1379     6721    2        ELSE DO ;

     1380     6722    2             IF KI$FEI.FEST ~= KIST_DN AND KI$FEI.FEST ~= KIST_MASKED THEN

   6722  1 000634   200025 473500                    LDP3    FEI$,,AUTO
         1 000635   300002 236100                    LDQ     2,,PR3
         1 000636   000777 316003                    CANQ    511,DU
         1 000637   000644 600000 1                  TZE     s:6724
         1 000640   300002 236100                    LDQ     2,,PR3
         1 000641   000777 376003                    ANQ     511,DU
         1 000642   000007 116003                    CMPQ    7,DU
         1 000643   000002 601000 1                  TNZ     FEABT

     1381     6723    2                GOTO FEABT ;
     1382     6724    2             KI$FEI.FEST = KIST_MASKED;
              6724                      /* mask the feps to keep rload int from getting through */

   6724  1 000644   000007 236003                    LDQ     7,DU
         1 000645   300002 552120                    STBQ    2,'20'O,PR3

     1383     6725    2             KI$FEI.PBST.PROB =KIER_PART;

   6725  1 000646   000016 220003                    LDX0    14,DU
         1 000647   300015 740100                    STX0    13,,PR3

     1384     6726    2             KL_FEPST.FEP = KI$FEI.FEP#;

   6726  1 000650   300012 236100                    LDQ     10,,PR3
         1 000651   000011 736000                    QLS     9
         1 000652   200021 552120                    STBQ    KL_FEPST,'20'O,AUTO

     1385     6727    2             KL_FEPST.FCN = IGA_FEPST;

   6727  1 000653   040000 236003                    LDQ     16384,DU
         1 000654   200021 552140                    STBQ    KL_FEPST,'40'O,AUTO

PL6.E3A0      #006=KIQ$FEABT File=KIQ$QMGR.:E05TSI                               WED 07/30/97 00:40 Page:251
     1386     6728    2             KL_FEPST.PROB = KIER_PART;

   6728  1 000655   200021 440100                    SXL0    KL_FEPST,,AUTO

     1387     6729    3             CALL KUB$WRITE(KL_FEPST,LENGTHC(KL_FEPST),'HLPADMIN') WHENALTRETURN DO ;

   6729  1 000656   000015 236000 2                  LDQ     13
         1 000657   200112 756100                    STQ     K$RWPARM+42,,AUTO
         1 000660   000016 236000 2                  LDQ     14
         1 000661   200111 756100                    STQ     K$RWPARM+41,,AUTO
         1 000662   200021 634500                    EPPR4   KL_FEPST,,AUTO
         1 000663   200110 454500                    STP4    K$RWPARM+40,,AUTO
         1 000664   200110 630500                    EPPR0   K$RWPARM+40,,AUTO
         1 000665   000021 631400 xsym               EPPR1   B_VECTNIL+17
         1 000666   000000 701000 xent               TSX1    KUB$WRITE
         1 000667   000671 702000 1                  TSX2    s:6730
         1 000670   000705 710000 1                  TRA     s:6733

     1388     6730    3                  CALL SSC$MONTIMR (SEC5,ENTADDR(KIQ$TELL),FEI) ;

   6730  1 000671   000770 636000 1                  EAQ     s:6751
         1 000672   200110 756100                    STQ     K$RWPARM+40,,AUTO
         1 000673   200003 236100                    LDQ     @FEI,,AUTO
         1 000674   200113 756100                    STQ     K$RWPARM+43,,AUTO
         1 000675   200110 630500                    EPPR0   K$RWPARM+40,,AUTO
         1 000676   200112 450500                    STP0    K$RWPARM+42,,AUTO
         1 000677   000003 236000 2                  LDQ     3
         1 000700   200111 756100                    STQ     K$RWPARM+41,,AUTO
         1 000701   200111 630500                    EPPR0   K$RWPARM+41,,AUTO
         1 000702   000021 631400 xsym               EPPR1   B_VECTNIL+17
         1 000703   000000 701000 xent               TSX1    SSC$MONTIMR
         1 000704   000000 011000                    NOP     0

     1389     6731    3               END ;

     1390     6732    2          END ;

PL6.E3A0      #006=KIQ$FEABT File=KIQ$QMGR.:E05TSI                               WED 07/30/97 00:40 Page:252
     1391     6733    1        RETURN;

   6733  1 000705   000000 702200 xent               TSX2  ! X66_ARET

     1392     6734
     1393     6735    1   KIQ$UPRTFEP: ENTRY (FEI);

   6735  1 000706   000000 700200 xent  KIQ$UPRTFEP  TSX0  ! X66_AUTO_2
         1 000707   000116 000002                    ZERO    78,2

     1394     6736
     1395     6737    1        FEI$ = KI$FEI$(FEI);

   6737  1 000710   200003 470500                    LDP0    @FEI,,AUTO
         1 000711   000000 720100                    LXL0    0,,PR0
         1 000712   000000 471400 xsym               LDP1    KI_FEI$$
         1 000713   100000 236110                    LDQ     0,X0,PR1
         1 000714   200025 756100                    STQ     FEI$,,AUTO

     1396     6738    1        IF KI$FEI.PBST.PROB ~=KIER_PART THEN RETURN;

   6738  1 000715   200025 473500                    LDP3    FEI$,,AUTO
         1 000716   300015 221100                    LDX1    13,,PR3
         1 000717   000016 101003                    CMPX1   14,DU
         1 000720   000722 600000 1                  TZE     s:6739

   6738  1 000721   000000 702200 xent               TSX2  ! X66_ARET

     1397     6739    1        KI$FEI.PBST.PROB =KIER_UPRT;

   6739  1 000722   000017 222003                    LDX2    15,DU
         1 000723   300015 742100                    STX2    13,,PR3

     1398     6740    1        KL_FEPST.FEP = KI$FEI.FEP#;

   6740  1 000724   300012 236100                    LDQ     10,,PR3
         1 000725   000011 736000                    QLS     9
PL6.E3A0      #006=KIQ$FEABT File=KIQ$QMGR.:E05TSI                               WED 07/30/97 00:40 Page:253
         1 000726   200021 552120                    STBQ    KL_FEPST,'20'O,AUTO

     1399     6741    1        KL_FEPST.FCN = IGA_FEPST;

   6741  1 000727   040000 236003                    LDQ     16384,DU
         1 000730   200021 552140                    STBQ    KL_FEPST,'40'O,AUTO

     1400     6742    1        KL_FEPST.PROB = KIER_UPRT;

   6742  1 000731   200021 442100                    SXL2    KL_FEPST,,AUTO

     1401     6743    1        KL_FEPST.STATE = KIER_OK;

   6743  1 000732   000000 220003                    LDX0    0,DU
         1 000733   200022 740100                    STX0    KL_FEPST+1,,AUTO

     1402     6744    1        IF HW_IMX THEN

   6744  1 000734   000000 234000 xsym               SZN     HW_IMX
         1 000735   000752 605000 1                  TPL     s:6746

     1403     6745    1           CALL NIS$DCCON (KI$FEI.FECH,'2'O,KI$FEI.FEWSQ); /* INIT DIRECT CHANNEL */

   6745  1 000736   200025 236100                    LDQ     FEI$,,AUTO
         1 000737   000005 036003                    ADLQ    5,DU
         1 000740   200112 756100                    STQ     K$RWPARM+42,,AUTO
         1 000741   000025 236000 2                  LDQ     21
         1 000742   200111 756100                    STQ     K$RWPARM+41,,AUTO
         1 000743   200025 236100                    LDQ     FEI$,,AUTO
         1 000744   000002 036003                    ADLQ    2,DU
         1 000745   200110 756100                    STQ     K$RWPARM+40,,AUTO
         1 000746   200110 630500                    EPPR0   K$RWPARM+40,,AUTO
         1 000747   000021 631400 xsym               EPPR1   B_VECTNIL+17
         1 000750   000000 701000 xent               TSX1    NIS$DCCON
         1 000751   000000 011000                    NOP     0

     1404     6746    1        CALL KUB$WRITE (KL_FEPST,LENGTHC(KL_FEPST),'HLPADMIN');
PL6.E3A0      #006=KIQ$FEABT File=KIQ$QMGR.:E05TSI                               WED 07/30/97 00:40 Page:254

   6746  1 000752   000015 236000 2                  LDQ     13
         1 000753   200112 756100                    STQ     K$RWPARM+42,,AUTO
         1 000754   000016 236000 2                  LDQ     14
         1 000755   200111 756100                    STQ     K$RWPARM+41,,AUTO
         1 000756   200021 630500                    EPPR0   KL_FEPST,,AUTO
         1 000757   200110 450500                    STP0    K$RWPARM+40,,AUTO
         1 000760   200110 630500                    EPPR0   K$RWPARM+40,,AUTO
         1 000761   000021 631400 xsym               EPPR1   B_VECTNIL+17
         1 000762   000000 701000 xent               TSX1    KUB$WRITE
         1 000763   000000 011000                    NOP     0

     1405     6747    1        KI$FEI.PBST.PROB =KIER_OK;

   6747  1 000764   000000 220003                    LDX0    0,DU
         1 000765   200025 470500                    LDP0    FEI$,,AUTO
         1 000766   000015 740100                    STX0    13,,PR0

     1406     6748    1        RETURN;

   6748  1 000767   000000 702200 xent               TSX2  ! X66_ARET

     1407     6749
     1408     6750
     1409     6751    1   KIQ$TELL: ENTRY (FEI);

   6751  1 000770   000000 700200 xent  KIQ$TELL     TSX0  ! X66_AUTO_2
         1 000771   000116 000002                    ZERO    78,2

     1410     6752    1        FEI$ = KI$FEI$(FEI);

   6752  1 000772   200003 470500                    LDP0    @FEI,,AUTO
         1 000773   000000 720100                    LXL0    0,,PR0
         1 000774   000000 471400 xsym               LDP1    KI_FEI$$
         1 000775   100000 236110                    LDQ     0,X0,PR1
         1 000776   200025 756100                    STQ     FEI$,,AUTO

PL6.E3A0      #006=KIQ$FEABT File=KIQ$QMGR.:E05TSI                               WED 07/30/97 00:40 Page:255
     1411     6753    1        KL_FEPST.FEP = KI$FEI.FEP#;

   6753  1 000777   200025 473500                    LDP3    FEI$,,AUTO
         1 001000   300012 236100                    LDQ     10,,PR3
         1 001001   000011 736000                    QLS     9
         1 001002   200021 552120                    STBQ    KL_FEPST,'20'O,AUTO

     1412     6754    1        KL_FEPST.FCN = IGA_FEPST;

   6754  1 001003   040000 236003                    LDQ     16384,DU
         1 001004   200021 552140                    STBQ    KL_FEPST,'40'O,AUTO

     1413     6755    1        KL_FEPST.PROB = KI$FEI.PBST.PROB ;

   6755  1 001005   300015 220100                    LDX0    13,,PR3
         1 001006   200021 440100                    SXL0    KL_FEPST,,AUTO

     1414     6756    1        KL_FEPST.STATE = KI$FEI.PBST.STATE ;

   6756  1 001007   300015 721100                    LXL1    13,,PR3
         1 001010   200022 741100                    STX1    KL_FEPST+1,,AUTO

     1415     6757    1        CALL KUB$WRITE (KL_FEPST,LENGTHC(KL_FEPST),'HLPADMIN') WHENALTRETURN

   6757  1 001011   000015 236000 2                  LDQ     13
         1 001012   200112 756100                    STQ     K$RWPARM+42,,AUTO
         1 001013   000016 236000 2                  LDQ     14
         1 001014   200111 756100                    STQ     K$RWPARM+41,,AUTO
         1 001015   200021 634500                    EPPR4   KL_FEPST,,AUTO
         1 001016   200110 454500                    STP4    K$RWPARM+40,,AUTO
         1 001017   200110 630500                    EPPR0   K$RWPARM+40,,AUTO
         1 001020   000021 631400 xsym               EPPR1   B_VECTNIL+17
         1 001021   000000 701000 xent               TSX1    KUB$WRITE
         1 001022   001024 702000 1                  TSX2    s:6759
         1 001023   001040 710000 1                  TRA     s:6761

     1416     6758    2          DO ;
PL6.E3A0      #006=KIQ$FEABT File=KIQ$QMGR.:E05TSI                               WED 07/30/97 00:40 Page:256

     1417     6759    2             CALL SSC$MONTIMR (SEC5,ENTADDR(KIQ$TELL),FEI);

   6759  1 001024   000770 636000 1                  EAQ     s:6751
         1 001025   200110 756100                    STQ     K$RWPARM+40,,AUTO
         1 001026   200003 236100                    LDQ     @FEI,,AUTO
         1 001027   200113 756100                    STQ     K$RWPARM+43,,AUTO
         1 001030   200110 630500                    EPPR0   K$RWPARM+40,,AUTO
         1 001031   200112 450500                    STP0    K$RWPARM+42,,AUTO
         1 001032   000003 236000 2                  LDQ     3
         1 001033   200111 756100                    STQ     K$RWPARM+41,,AUTO
         1 001034   200111 630500                    EPPR0   K$RWPARM+41,,AUTO
         1 001035   000021 631400 xsym               EPPR1   B_VECTNIL+17
         1 001036   000000 701000 xent               TSX1    SSC$MONTIMR
         1 001037   000000 011000                    NOP     0

     1418     6760    2          END;

     1419     6761    1        RETURN;

   6761  1 001040   000000 702200 xent               TSX2  ! X66_ARET

     1420     6762
     1421     6763
     1422     6764    1   KIQ$LGFEDN: ENTRY (FEI);

   6764  1 001041   000000 700200 xent  KIQ$LGFEDN   TSX0  ! X66_AUTO_2
         1 001042   000116 000002                    ZERO    78,2

     1423     6765
     1424     6766    2        CALL ELA$SYSLOG (EL_FEGN,FEI,1,'0'B,2,TEMP) WHENALTRETURN DO ;

   6766  1 001043   200031 630500                    EPPR0   TEMP,,AUTO
         1 001044   200115 450500                    STP0    K$RWPARM+45,,AUTO
         1 001045   000004 236000 2                  LDQ     4
         1 001046   200114 756100                    STQ     K$RWPARM+44,,AUTO
         1 001047   000006 237000 2                  LDAQ    6
PL6.E3A0      #006=KIQ$FEABT File=KIQ$QMGR.:E05TSI                               WED 07/30/97 00:40 Page:257
         1 001050   200112 757100                    STAQ    K$RWPARM+42,,AUTO
         1 001051   200003 236100                    LDQ     @FEI,,AUTO
         1 001052   000010 235000 2                  LDA     8
         1 001053   200110 757100                    STAQ    K$RWPARM+40,,AUTO
         1 001054   200110 630500                    EPPR0   K$RWPARM+40,,AUTO
         1 001055   000024 631400 xsym               EPPR1   B_VECTNIL+20
         1 001056   000000 701000 xent               TSX1    ELA$SYSLOG
         1 001057   001061 702000 1                  TSX2    s:6767
         1 001060   001075 710000 1                  TRA     s:6769

     1425     6767    2             CALL SSC$MONTIMR ( SEC5 , ENTADDR(KIQ$LGFEDN) , FEI ) ;

   6767  1 001061   001041 636000 1                  EAQ     s:6764
         1 001062   200110 756100                    STQ     K$RWPARM+40,,AUTO
         1 001063   200003 236100                    LDQ     @FEI,,AUTO
         1 001064   200113 756100                    STQ     K$RWPARM+43,,AUTO
         1 001065   200110 630500                    EPPR0   K$RWPARM+40,,AUTO
         1 001066   200112 450500                    STP0    K$RWPARM+42,,AUTO
         1 001067   000003 236000 2                  LDQ     3
         1 001070   200111 756100                    STQ     K$RWPARM+41,,AUTO
         1 001071   200111 630500                    EPPR0   K$RWPARM+41,,AUTO
         1 001072   000021 631400 xsym               EPPR1   B_VECTNIL+17
         1 001073   000000 701000 xent               TSX1    SSC$MONTIMR
         1 001074   000000 011000                    NOP     0

     1426     6768    2          END ;

     1427     6769    1        RETURN;

   6769  1 001075   000000 702200 xent               TSX2  ! X66_ARET

INTL6
 Sect OctLoc
   0     000   000000 000371                                                    ....

(unnamed)
 Sect OctLoc
PL6.E3A0      #006=KIQ$FEABT File=KIQ$QMGR.:E05TSI                               WED 07/30/97 00:40 Page:258
   0     001   000003 000000   000003 000005   110114 120101   104115 111116    ........HLPADMIN

(unnamed)
 Sect OctLoc
   2     000   777777 777077   777777 770777   000000 000764   000002 006000    ...?............
   2     004   000004 006000   000000 000000   000003 006000   000002 006000    ................
   2     010   000006 006000   000000 000034   000007 200000   000011 006000    ................
   2     014   000000 000016   000003 006000   000014 006000   000000 000460    ................
   2     020   000007 006000   000002 006000   000017 006000   000030 006000    ................
   2     024   200000 000000   000024 006000                                    ........
     1428     6770
     1429     6771
     1430     6772
     1431     6773
     1432     6774
     1433     6775    1   END KIQ$FEABT;
     1434     6776        %EOD;

PL6.E3A0      #006=KIQ$FEABT File=KIQ$QMGR.:E05TSI                               WED 07/30/97 00:40 Page:259
--  Include file information  --

   JG_GHOSTS_C.:E05TOU  is referenced.
   KJ_FCNS_C.:E05TOU  is referenced.
   K_SUBS_C.:E05TOU  is referenced.
   HF_DATA_R.:E05TOU  cannot be made into a system file and is referenced.
   K$RWPARM.:E05TOU  is referenced.
   NK_SUBS.:E05TOU  is referenced.
   EL_SUBS_C.:E05TOU  is referenced.
   KL_SUBS_C.:E05TOU  is referenced.
   KI_SUBS_C.:E05TOU  is referenced.
   HF_LOCK_C.:E05TOU  cannot be made into a system file and is referenced.
   SS_SCHED_C.:E05TOU  is referenced.
   KI_MACROS_C.:E05TOU  is referenced.
   KI_DATA_R.:E05TOU  cannot be made into a system file and is referenced.
   S_WSPTD_R.:E05TOU  cannot be made into a system file and is referenced.
   EL$TABLES.:E05TOU  is referenced.
   KL_AFCN_C.:E05TOU  is referenced.
   KL_MACRO_C.:E05TOU  is referenced.
   KI$QHDR.:E05TOU  cannot be made into a system file and is referenced.
      No diagnostics issued in procedure KIQ$FEABT.
PL6.E3A0      #006=KIQ$FEABT File=KIQ$QMGR.:E05TSI                               WED 07/30/97 00:40 Page:260

 **** Variables and constants ****

  ****  Section 000 RoData KIQ$FEABT

  ****  Scalars and arrays  ****
OctLoc.c.b A Datatyp(siz) R M Lvl/name                 OctLoc.c.b A Datatyp(siz) R M Lvl/name

     0-0-0/w STRC        r     1 INTL6

  ****  Auto variables  ****

  ****  Scalars and arrays  ****
OctLoc.c.b A Datatyp(siz) R M Lvl/name                 OctLoc.c.b A Datatyp(siz) R M Lvl/name

     3-0-0/w PTR         r     1 @FEI                       4-0-0/w PTR         r     1 @PROB
    14-0-0/w STRC(180)   r     1 FCR                       *0-0-0/w UBIN        r     1 FEI
    25-0-0/w PTR         r     1 FEI$                      27-0-0/w PTR         r     1 ICQ$
    40-0-0/d STRC(1404)  r     1 K$RWPARM                   5-0-0/w STRC(252)   r     1 KL_ACCTNG
    21-0-0/w STRC(126)   r     1 KL_FEPST                  30-0-0/w PTR         r     1 OCQ$
    *0-0-0/w UBIN        r     1 PROB                      36-0-0/w BIT         r     1 STOPFLG
    31-0-0/w UBIN        r     1 TEMP                      32-0-0/b BIT (72)    r     1 TLOCK

  ****  SYMREF variables  ****

  ****  Scalars and arrays  ****
OctLoc.c.b A Datatyp(siz) R M Lvl/name                 OctLoc.c.b A Datatyp(siz) R M Lvl/name

     0-0-0/w BIT         r     1 HW_IMX                     0-0-0/w UBIN        r     1 IT_CP6UP
     0-0-0/w PTR         r     1 KI_FEI$$                   0-0-0/d STRC(1404)  r     1 K_RWPARM_CON

  ****  BASED and DCB variables  ****

  ****  Scalars and arrays  ****
OctLoc.c.b A Datatyp(siz) R M Lvl/name                 OctLoc.c.b A Datatyp(siz) R M Lvl/name

     0-0-0/w STRC        r     1 KI$CCMD                    0-0-0/w STRC(612)   r     1 KI$FEI
     0-0-0/w PTR         r     1 KI$FEI$(0:0)
PL6.E3A0      #006=KIQ$FEABT File=KIQ$QMGR.:E05TSI                               WED 07/30/97 00:40 Page:261
     0-0-0/d STRC(576)   r     1 KI$QHDR


   Procedure KIQ$FEABT requires 574 words for executable code.
   Procedure KIQ$FEABT requires 78 words of local(AUTO) storage.
PL6.E3A0      #006=KIQ$FEABT File=KIQ$QMGR.:E05TSI                               WED 07/30/97 00:40 Page:262
          *** CROSS REFERENCE LISTING ***
**     DENOTES     IDENTIFIER DEFINITION
<<                 IDENTIFIER'S VALUE SET
>>                 IDENTIFIER'S VALUE USED
<>                 IDENTIFIER SET AND/OR USED
--                 IDENTIFIER REFERENCED
PL6.E3A0      #006=KIQ$FEABT File=KIQ$QMGR.:E05TSI                               WED 07/30/97 00:40 Page:263
          MINI XREF LISTING

ABT
      6576**LABEL    6692--GOTO
ELA$SYSLOG
      6251**DCL-ENT  6650--CALL     6683--CALL     6766--CALL
FCR
      5782**DCL      6683<>CALL     6683--CALL
FCR.FENM.CRASH#
      5782**DCL      6681<<ASSIGN
FCR.FENM.DEVADDR
      5782**DCL      6682<<ASSIGN
FCR.FENM.FEP#
      5783**DCL      6679<<ASSIGN   6680<>CALL
FCR.FENM.NODENAME
      5783**DCL      6680<>CALL
FCR.FENM.PROBLEM
      5782**DCL      6677<<ASSIGN
FCR.FENM.STATE
      5782**DCL      6678<<ASSIGN
FEABT
      6570**LABEL    6723--GOTO
FEI
      5908**DCL         8--PROC     6578>>ASSIGN   6639<>CALL     6644>>ASSIGN   6675<>CALL     6689--ENTRY
      6694--ENTRY    6700>>ASSIGN   6714--ENTRY    6716>>ASSIGN   6730<>CALL     6735--ENTRY    6737>>ASSIGN
      6751--ENTRY    6752>>ASSIGN   6759<>CALL     6764--ENTRY    6766<>CALL     6767<>CALL
FEI$
      5909**DCL      5834--IMP-PTR  6578<<ASSIGN   6579>>IF       6581>>ASSIGN   6582>>ASSIGN   6587>>CALL
      6591>>ASSIGN   6622>>CALL     6622>>CALL     6627>>ASSIGN   6628>>ASSIGN   6628>>ASSIGN   6630>>ASSIGN
      6632>>ASSIGN   6634>>ASSIGN   6640>>DOCASE   6646>>ASSIGN   6655>>IF       6658>>ASSIGN   6659>>CALL
      6659>>CALL     6660>>IF       6661>>CALL     6662>>ASSIGN   6665>>CALL     6665>>CALL     6666>>CALL
      6669>>ASSIGN   6671>>ASSIGN   6672>>ASSIGN   6677>>ASSIGN   6678>>ASSIGN   6679>>ASSIGN   6681>>ASSIGN
      6682>>ASSIGN   6700<<ASSIGN   6702>>CALL     6704>>IF       6706>>CALL     6706>>CALL     6707>>ASSIGN
      6710>>CALL     6716<<ASSIGN   6718>>ASSIGN   6719>>ASSIGN   6722>>IF       6722>>IF       6724>>ASSIGN
PL6.E3A0      #006=KIQ$FEABT File=KIQ$QMGR.:E05TSI                               WED 07/30/97 00:40 Page:264
      6725>>ASSIGN   6726>>ASSIGN   6737<<ASSIGN   6738>>IF       6739>>ASSIGN   6740>>ASSIGN   6745>>CALL
      6745>>CALL     6747>>ASSIGN   6752<<ASSIGN   6753>>ASSIGN   6755>>ASSIGN   6756>>ASSIGN
HFC$LOCK
      4844**DCL-ENT  6585--CALL     6589--CALL     6702--CALL
HFC$UNLOCK
      4844**DCL-ENT  6636--CALL     6685--CALL     6710--CALL
HW_IMX
      5572**DCL      6744>>IF
ICQ$
      5912**DCL      6581<<ASSIGN   6625>>ASSIGN
INTL6
      5733**DCL      6597>>ASSIGN
INTL6.L66INT
      5741**DCL      5742--REDEF    5746--REDEF
INTL6.L6INT
      5739**DCL      5740--REDEF
IT_CP6UP
      5907**DCL      6717>>IF
K$RWPARM
      5946**DCL      6642<<ASSIGN   6645<>CALL
K$RWPARM.BLKREC
      5972**DCL      5997--REDEF
K$RWPARM.BLKREC.BLKU#
      5973**DCL      5975--REDEF
K$RWPARM.BLKREC.RECU#
      5985**DCL      5987--REDEF
K$RWPARM.DVE.DVBYTE.VFC
      6012**DCL      6013--REDEF
K$RWPARM.DVE.EOMCHAR
      6020**DCL      6024--REDEF
K$RWPARM.ERR
      6084**DCL      6089--REDEF
K$RWPARM.FC
      6048**DCL      6049--REDEF
K$RWPARM.FEX
      6130**DCL      6644<<ASSIGN
PL6.E3A0      #006=KIQ$FEABT File=KIQ$QMGR.:E05TSI                               WED 07/30/97 00:40 Page:265
K$RWPARM.FLDID
      6230**DCL      6231--REDEF
K$RWPARM.FPT$
      6111**DCL      6118--REDEF
K$RWPARM.FUNCTION
      6125**DCL      6643<<ASSIGN
K$RWPARM.KEYTYPE
      6237**DCL      6238--REDEF
K$RWPARM.MSG$
      5947**DCL      5953--REDEF
K$RWPARM.MSGID
      6059**DCL      6064--REDEF
K$RWPARM.MSGIDXT
      6072**DCL      6076--REDEF
K$RWPARM.ORG
      6208**DCL      6209--REDEF
K$RWPARM.THDRSZ
      6152**DCL      6156--REDEF
K$RWPARM.VDOFLGS
      6210**DCL      6221--REDEF
KI$CCMD.L66INT
      5762**DCL      5763--REDEF    5764--REDEF
KI$CCMD.L6INT
      5759**DCL      5761--REDEF    6615<<ASSIGN
KI$CCMD.L6PARM
      5763**DCL      6601<<ASSIGN   6604<<ASSIGN   6607<<ASSIGN   6610<<ASSIGN   6614<<ASSIGN
KI$FEI.BD$
      5869**DCL      5870--REDEF    6659<>CALL     6665<>CALL
KI$FEI.BDAD.WADDR
      5871**DCL      5872--REDEF
KI$FEI.BDARS
      5877**DCL      6658<<ASSIGN
KI$FEI.BDU#
      5867**DCL      6655>>IF       6660>>IF       6661<>CALL     6662<<ASSIGN   6666<>CALL
KI$FEI.FECH
      5836**DCL      6622<>CALL     6682>>ASSIGN   6706<>CALL     6745<>CALL
PL6.E3A0      #006=KIQ$FEABT File=KIQ$QMGR.:E05TSI                               WED 07/30/97 00:40 Page:266
KI$FEI.FEP#
      5879**DCL      6646>>ASSIGN   6669>>ASSIGN   6679>>ASSIGN   6726>>ASSIGN   6740>>ASSIGN   6753>>ASSIGN
KI$FEI.FEST
      5839**DCL      6579>>IF       6628>>ASSIGN   6630<<ASSIGN   6632<<ASSIGN   6634<<ASSIGN   6704>>IF
      6707<<ASSIGN   6719<<ASSIGN   6722>>IF       6722>>IF       6724<<ASSIGN
KI$FEI.FEWSQ
      5862**DCL      6622<>CALL     6659<>CALL     6665<>CALL     6706<>CALL     6745<>CALL
KI$FEI.ICQ$
      5856**DCL      6581>>ASSIGN
KI$FEI.LOCK
      5835**DCL      6702<>CALL     6710<>CALL
KI$FEI.OCQ$
      5850**DCL      6582>>ASSIGN
KI$FEI.PBST.PROB
      5887**DCL      6591<<ASSIGN   6671>>ASSIGN   6677>>ASSIGN   6718<<ASSIGN   6725<<ASSIGN   6738>>IF
      6739<<ASSIGN   6747<<ASSIGN   6755>>ASSIGN
KI$FEI.PBST.STATE
      5891**DCL      6628<<ASSIGN   6640>>DOCASE   6672>>ASSIGN   6678>>ASSIGN   6756>>ASSIGN
KI$FEI.PTPPNO#
      5884**DCL      6587<>CALL
KI$FEI.QFLHD$
      5898**DCL      6627<<ASSIGN
KI$FEI.RCVPB
      5885**DCL      5886--REDEF
KI$FEI.SEQ
      5866**DCL      6681>>ASSIGN
KI$FEI$
      3976**DCL      6578>>ASSIGN   6700>>ASSIGN   6716>>ASSIGN   6737>>ASSIGN   6752>>ASSIGN
KI$QHDR.BDCTL.MLCPZ
        60**DCL      6658>>ASSIGN
KI$QHDR.CCMD
        50**DCL      6597<<ASSIGN   6601--ASSIGN   6604--ASSIGN   6607--ASSIGN   6610--ASSIGN   6614--ASSIGN
      6615--ASSIGN
KI$QHDR.GATE
        71**DCL      6589<>CALL     6636<>CALL
KI$QHDR.INTLOCK
PL6.E3A0      #006=KIQ$FEABT File=KIQ$QMGR.:E05TSI                               WED 07/30/97 00:40 Page:267
        68**DCL      6625<<ASSIGN   6626<<ASSIGN
KIN$CONV_NODE
      6246**DCL-ENT  6680--CALL
KIN$RECV
      6247**DCL-ENT  6645--CALL
KIQ$LGFEDN
      6764**ENTRY    6651--CALL     6767--CALL
KIQ$MASKFEP
      6694**ENTRY    6639--CALL
KIQ$TELL
      6751**ENTRY    6675--CALL     6730--CALL     6759--CALL
KI_FEI$$
      3975**DCL      3976--IMP-PTR  6578>>ASSIGN   6700>>ASSIGN   6716>>ASSIGN   6737>>ASSIGN   6752>>ASSIGN
KL_ACCTNG
      5768**DCL      6650<>CALL     6651<>CALL
KL_ACCTNG.DEVNM
      5772**DCL      5773--REDEF
KL_ACCTNG.FEX
      5769**DCL      6646<<ASSIGN
KL_ACCTNG.REASON
      5770**DCL      6648<<ASSIGN   6649<<ASSIGN
KL_FEPST
      5799**DCL      6673<>CALL     6673--CALL     6729<>CALL     6729--CALL     6746<>CALL     6746--CALL
      6757<>CALL     6757--CALL
KL_FEPST.FCN
      5800**DCL      6670<<ASSIGN   6727<<ASSIGN   6741<<ASSIGN   6754<<ASSIGN
KL_FEPST.FEP
      5802**DCL      6669<<ASSIGN   6726<<ASSIGN   6740<<ASSIGN   6753<<ASSIGN
KL_FEPST.PROB
      5813**DCL      6671<<ASSIGN   6728<<ASSIGN   6742<<ASSIGN   6755<<ASSIGN
KL_FEPST.STATE
      5814**DCL      6672<<ASSIGN   6743<<ASSIGN   6756<<ASSIGN
KUB$WRITE
      6244**DCL-ENT  6673--CALL     6729--CALL     6746--CALL     6757--CALL
K_RWPARM_CON
      6277**DCL      6642>>ASSIGN
PL6.E3A0      #006=KIQ$FEABT File=KIQ$QMGR.:E05TSI                               WED 07/30/97 00:40 Page:268
K_RWPARM_CON.BLKREC
      6303**DCL      6328--REDEF
K_RWPARM_CON.BLKREC.BLKU#
      6304**DCL      6306--REDEF
K_RWPARM_CON.BLKREC.RECU#
      6316**DCL      6318--REDEF
K_RWPARM_CON.DVE.DVBYTE.VFC
      6343**DCL      6344--REDEF
K_RWPARM_CON.DVE.EOMCHAR
      6351**DCL      6355--REDEF
K_RWPARM_CON.ERR
      6415**DCL      6420--REDEF
K_RWPARM_CON.FC
      6379**DCL      6380--REDEF
K_RWPARM_CON.FLDID
      6561**DCL      6562--REDEF
K_RWPARM_CON.FPT$
      6442**DCL      6449--REDEF
K_RWPARM_CON.KEYTYPE
      6568**DCL      6569--REDEF
K_RWPARM_CON.MSG$
      6278**DCL      6284--REDEF
K_RWPARM_CON.MSGID
      6390**DCL      6395--REDEF
K_RWPARM_CON.MSGIDXT
      6403**DCL      6407--REDEF
K_RWPARM_CON.ORG
      6539**DCL      6540--REDEF
K_RWPARM_CON.THDRSZ
      6483**DCL      6487--REDEF
K_RWPARM_CON.VDOFLGS
      6541**DCL      6552--REDEF
MMS$VREL
      6243**DCL-ENT  6659--CALL     6665--CALL
MMS$WSQMAP
      6249**DCL-ENT  6587--CALL
PL6.E3A0      #006=KIQ$FEABT File=KIQ$QMGR.:E05TSI                               WED 07/30/97 00:40 Page:269
NIS$DCCON
      6245**DCL-ENT  6622--CALL     6706--CALL     6745--CALL
OCQ$
      5913**DCL      6582<<ASSIGN   6589>>CALL     6597>>ASSIGN   6601>>ASSIGN   6604>>ASSIGN   6607>>ASSIGN
      6610>>ASSIGN   6614>>ASSIGN   6615>>ASSIGN   6626>>ASSIGN   6636>>CALL     6658>>ASSIGN
PROB
      5910**DCL         8--PROC     6591>>ASSIGN   6594>>IF       6598>>DOCASE   6631>>IF       6638>>IF
      6689--ENTRY    6714--ENTRY
SSC$MONTIMR
      6252**DCL-ENT  6639--CALL     6651--CALL     6675--CALL     6730--CALL     6759--CALL     6767--CALL
SSR$RUE
      6250**DCL-ENT  6661--CALL     6666--CALL
STOPFLG
      5918**DCL      6576<<ASSIGN   6616<<ASSIGN   6619<<ASSIGN   6622<>CALL     6629>>IF       6647>>IF
      6691<<ASSIGN
TEMP
      5914**DCL      6650<>CALL     6683<>CALL     6766<>CALL
TLOCK
      5915**DCL      6583<<ASSIGN   6585<>CALL     6685<>CALL

PL6.E3A0      #007=KIQ$DMPINT File=KIQ$QMGR.:E05TSI                              WED 07/30/97 00:41 Page:270
     1435        1        /*T***********************************************************/
     1436        2        /*T*                                                         */
     1437        3        /*T* Copyright (c) Bull HN Information Systems Inc., 1997    */
     1438        4        /*T*                                                         */
     1439        5        /*T***********************************************************/
     1440        6
     1441        7
     1442        8        KIQ$DMPINT: PROC (FEI);
     1443        9
     1444       10
     1445       11        %INCLUDE HF_LOCK_C;
     1446       25        %INCLUDE KI$QHDR;
     1447      177        %INCLUDE KI_DATA_R;
     1448      203        %INCLUDE KI_MACROS_C;
     1449      811        %INCLUDE S_WSPTD_R;
     1450      827        %INCLUDE SS_SCHED_C;
     1451     1060        %INCLUDE KI_SUBS_C;
     1452     1196
     1453     1197        %KI$CTCW (NAME=CTCW);
     1454     1205        %KI$CCMD (NAME=CCMD);
     1455     1220        %KI_CTCW(NAME=DMPTCW,TB=T);
     1456     1229        %KI_CCMD(NAME=DUMPL6,CMD=KIOP_DUMPL6);
     1457     1257        %KI$FEI (STCLASS="BASED(FEI$)");
     1458     1341
     1459     1342
     1460     1343    1   DCL FEI UBIN WORD;
     1461     1344    1   DCL FEI$ PTR;
     1462     1345    1   DCL OCQ$ PTR;
     1463     1346    1   DCL DMP$ PTR;
     1464     1347    1   DCL 1 DMPR REDEF DMP$ ALIGNED,
     1465     1348    1            2 WADDR UBIN(18) UNAL,
     1466     1349    1            2 * UBIN(18) UNAL;
     1467     1350    1   DCL MVSZ UBIN WORD;
     1468     1351    1   DCL MOVEE CHAR(MVSZ) BASED ALIGNED;
     1469     1352    1   DCL 1 MOVOR BASED ALIGNED,
     1470     1353    1            2 TCW UBIN WORD,
     1471     1354    1            2 DMP CHAR(MVSZ);
PL6.E3A0      #007=KIQ$DMPINT File=KIQ$QMGR.:E05TSI                              WED 07/30/97 00:41 Page:271
     1472     1355    1   DCL REG_FLG BIT(1) ALIGNED;
     1473     1356    1   DCL SSR$REG ENTRY(3) ALTRET;
     1474     1357    1   DCL SSR$RUE ENTRY(4);
     1475     1358    1   DCL MMS$VREL ENTRY(2) ALTRET;
     1476     1359    1   DCL NIS$DCCON ENTRY(3);
     1477     1360    1   DCL MMS$WSQMAP ENTRY(1) ALTRET;
     1478     1361
     1479     1362
     1480     1363        /*X* DMR,PLM=5,IND=3,CTI=2,SDI=5,MCL=10,CSI=1,DTI=2,DCI=3,ECI=0,AND */
     1481     1364
     1482     1365
     1483     1366    1        FEI$ = KI$FEI$(FEI);
     1484     1367             %LOCK (G=KI$FEI.LOCK);
     1485     1370    1        CALL MMS$WSQMAP(KI$FEI.PTPPNO#);
     1486     1371    2        DO INHIBIT;
     1487     1372    2           KI$FEI.FEST =KIST_DN;
     1488     1373    2        END;
     1489     1374    1        MVSZ=KI$FEI.BDCUR *4;
     1490     1375    1        DMP$=PINCRW(KI$FEI.BD$ ,KI$FEI.BDARS );
     1491     1376    1        DMP$->MOVEE=DMP$->MOVOR.DMP;
     1492     1377    1        KI$FEI.BDARS =KI$FEI.BDARS +KI$FEI.BDCUR ;
     1493     1378    1        IF KI$FEI.BDSZ <=KI$FEI.BDARS +SIZEW(CTCW) THEN
     1494     1379    2          DO ;
     1495     1380    2             CALL MMS$VREL (KI$FEI.FEWSQ ,KI$FEI.BD$ );
     1496     1381    2             CALL SSR$RUE (%SS_UQA,KI$FEI.BDU# );
     1497     1382                  %UNLOCK(G=KI$FEI.LOCK);
     1498     1385    2             RETURN;
     1499     1386    2          END;
     1500     1387    1        REG_FLG = '0'B;
     1501     1388    1        GOTO DUMPGO;
     1502     1389
     1503     1390    1   KIQ$DUMPGO: ENTRY (FEI);
     1504     1391
     1505     1392    1        REG_FLG = '1'B;
     1506     1393    1        FEI$ = KI$FEI$(FEI);
     1507     1394             %LOCK (G=KI$FEI.LOCK);
     1508     1397    1        CALL MMS$WSQMAP(KI$FEI.PTPPNO#);
PL6.E3A0      #007=KIQ$DMPINT File=KIQ$QMGR.:E05TSI                              WED 07/30/97 00:41 Page:272
     1509     1398    1   DUMPGO: OCQ$=KI$FEI.OCQ$;
     1510     1399    1        IF KI$FEI.BDSZ -KI$FEI.BDARS >4096 THEN KI$FEI.BDCUR =4096;
     1511     1400    1        ELSE KI$FEI.BDCUR =KI$FEI.BDSZ -KI$FEI.BDARS -SIZEW(CTCW);
     1512     1401    1        DMP$=PINCRW(KI$FEI.BD$ ,KI$FEI.BDARS );
     1513     1402    1        DMP$->CTCW=DMPTCW;
     1514     1403    1        DMP$->CTCW.L6ADD=(KI$FEI.BDARS /KI_TSHFT)+KI$FEI.DSTAD ;
     1515     1404    1        DMP$->CTCW.TALLY=KI$FEI.BDCUR ;
     1516     1405    1        OCQ$->KI$QHDR.CCMD=DUMPL6;
     1517     1406    1        ADDR(OCQ$->KI$QHDR.CCMD)->CCMD.ADB18=DMPR.WADDR;
     1518     1407    1        KI$FEI.TCNT = KI$FEI.TIMEOUT.DUMP;
     1519     1408    1        KI$FEI.FEST =KIST_DMP;
     1520     1409    1        CALL NIS$DCCON (KI$FEI.FECH ,'0'O,KI$FEI.FEWSQ);
     1521     1410             %UNLOCK (G=KI$FEI.LOCK);
     1522     1413    1        IF REG_FLG THEN CALL SSR$REG(%SS_QA);
     1523     1414    1        KI$FEI.BDU# = 0;
     1524     1415    1        RETURN;
     1525     1416
     1526     1417    1   END;
     1527     1418
     1528     1419
     1529     1420        %EOD;

PL6.E3A0      #007=KIQ$DMPINT File=KIQ$QMGR.:E05TSI                              WED 07/30/97 00:41 Page:273
--  Include file information  --

   KI_SUBS_C.:E05TOU  is referenced.
   SS_SCHED_C.:E05TOU  is referenced.
   S_WSPTD_R.:E05TOU  cannot be made into a system file and is referenced.
   KI_MACROS_C.:E05TOU  is referenced.
   KI_DATA_R.:E05TOU  cannot be made into a system file and is referenced.
   KI$QHDR.:E05TOU  cannot be made into a system file and is referenced.
   HF_LOCK_C.:E05TOU  cannot be made into a system file and is referenced.
      No diagnostics issued in procedure KIQ$DMPINT.

   Procedure KIQ$DMPINT requires 169 words for executable code.
   Procedure KIQ$DMPINT requires 14 words of local(AUTO) storage.

PL6.E3A0      #007=KIQ$DMPINT File=KIQ$QMGR.:E05TSI                              WED 07/30/97 00:41 Page:274

 Object Unit name= KIQ$DMPINT                                 File name= KIQ$QMGR.:E05TOU
 UTS= JUL 30 '97 00:41:10.16 WED                              Compiler= PL-6/E31         Sev=      00
 SharedLib= :SHARED_SYSTEM                                    Alt SharedLib=


    ****  Control sections  ****

 Sect   Type Bound  Init  Size OctSiz  Section name(segment info)
    0  RoData even  UTS      2      2  KIQ$DMPINT
    1   Proc  even  none   169    251  KIQ$DMPINT
    2  RoData even  none     7      7  KIQ$DMPINT

    ****  Entry defs  ****

                              Check   Calling
                             calling  sequence
  Sect OctLoc Primary Altret sequence   type   Parms  Name
     1      0   yes            yes      Std        1  KIQ$DMPINT
     1    107                  yes      Std        1  KIQ$DUMPGO

  ****  Entry refs  ****

         Check        Calling
        calling       sequence
Altret sequence SRef   type   Args  Name
         yes           Std       1 HFC$LOCK
 yes     yes           Std       1 MMS$WSQMAP
 yes     yes           Std       2 MMS$VREL
         yes           Std       1 HFC$UNLOCK
 yes     yes           Std       3 SSR$REG
         yes           Std       3 NIS$DCCON
         yes           Std       4 SSR$RUE
                       nStd      0 X66_AUTO_1
                       Std       0 B_CONSPOOL_D
                       nStd      0 X66_ARET
PL6.E3A0      #007=KIQ$DMPINT File=KIQ$QMGR.:E05TSI                              WED 07/30/97 00:41 Page:275

  ****  Data refs  ****

  Flags:  r = read only, s = secondary
Flgs Name                             Flgs Name                             Flgs Name
     KI_FEI$$                              B_VECTNIL

  ****  Segment refs  ****

  Flags:  r = read only, s = secondary
Flgs Name                             Flgs Name                             Flgs Name
     ISSID
PL6.E3A0      #007=KIQ$DMPINT File=KIQ$QMGR.:E05TSI                              WED 07/30/97 00:41 Page:276


     1435        1        /*T***********************************************************/
     1436        2        /*T*                                                         */
     1437        3        /*T* Copyright (c) Bull HN Information Systems Inc., 1997    */
     1438        4        /*T*                                                         */
     1439        5        /*T***********************************************************/
     1440        6
     1441        7
     1442        8        KIQ$DMPINT: PROC (FEI);

      8  1 000000   000000 700200 xent  KIQ$DMPINT   TSX0  ! X66_AUTO_1
         1 000001   000016 000001                    ZERO    14,1

     1443        9
     1444       10
     1445       11        %INCLUDE HF_LOCK_C;
     1446       25        %INCLUDE KI$QHDR;
     1447      177        %INCLUDE KI_DATA_R;
     1448      203        %INCLUDE KI_MACROS_C;
     1449      811        %INCLUDE S_WSPTD_R;
     1450      827        %INCLUDE SS_SCHED_C;
     1451     1060        %INCLUDE KI_SUBS_C;
     1452     1196
     1453     1197        %KI$CTCW (NAME=CTCW);
     1454     1205        %KI$CCMD (NAME=CCMD);
     1455     1220        %KI_CTCW(NAME=DMPTCW,TB=T);
     1456     1229        %KI_CCMD(NAME=DUMPL6,CMD=KIOP_DUMPL6);
     1457     1257        %KI$FEI (STCLASS="BASED(FEI$)");
     1458     1341
     1459     1342
     1460     1343    1   DCL FEI UBIN WORD;
     1461     1344    1   DCL FEI$ PTR;
     1462     1345    1   DCL OCQ$ PTR;
     1463     1346    1   DCL DMP$ PTR;
     1464     1347    1   DCL 1 DMPR REDEF DMP$ ALIGNED,
     1465     1348    1            2 WADDR UBIN(18) UNAL,
     1466     1349    1            2 * UBIN(18) UNAL;
PL6.E3A0      #007=KIQ$DMPINT File=KIQ$QMGR.:E05TSI                              WED 07/30/97 00:41 Page:277
     1467     1350    1   DCL MVSZ UBIN WORD;
     1468     1351    1   DCL MOVEE CHAR(MVSZ) BASED ALIGNED;
     1469     1352    1   DCL 1 MOVOR BASED ALIGNED,
     1470     1353    1            2 TCW UBIN WORD,
     1471     1354    1            2 DMP CHAR(MVSZ);
     1472     1355    1   DCL REG_FLG BIT(1) ALIGNED;
     1473     1356    1   DCL SSR$REG ENTRY(3) ALTRET;
     1474     1357    1   DCL SSR$RUE ENTRY(4);
     1475     1358    1   DCL MMS$VREL ENTRY(2) ALTRET;
     1476     1359    1   DCL NIS$DCCON ENTRY(3);
     1477     1360    1   DCL MMS$WSQMAP ENTRY(1) ALTRET;
     1478     1361
     1479     1362
     1480     1363        /*X* DMR,PLM=5,IND=3,CTI=2,SDI=5,MCL=10,CSI=1,DTI=2,DCI=3,ECI=0,AND */
     1481     1364
     1482     1365
     1483     1366    1        FEI$ = KI$FEI$(FEI);

   1366  1 000002   200003 470500                    LDP0    @FEI,,AUTO
         1 000003   000000 720100                    LXL0    0,,PR0
         1 000004   000000 471400 xsym               LDP1    KI_FEI$$
         1 000005   100000 236110                    LDQ     0,X0,PR1
         1 000006   200004 756100                    STQ     FEI$,,AUTO

     1484     1367             %LOCK (G=KI$FEI.LOCK);

   1368  1 000007   200004 630500                    EPPR0   FEI$,,AUTO
         1 000010   000017 631400 xsym               EPPR1   B_VECTNIL+15
         1 000011   000000 701000 xent               TSX1    HFC$LOCK
         1 000012   000000 011000                    NOP     0

     1485     1370    1        CALL MMS$WSQMAP(KI$FEI.PTPPNO#);

   1370  1 000013   200004 236100                    LDQ     FEI$,,AUTO
         1 000014   000014 036003                    ADLQ    12,DU
         1 000015   200012 756100                    STQ     REG_FLG+2,,AUTO
         1 000016   200012 630500                    EPPR0   REG_FLG+2,,AUTO
PL6.E3A0      #007=KIQ$DMPINT File=KIQ$QMGR.:E05TSI                              WED 07/30/97 00:41 Page:278
         1 000017   000017 631400 xsym               EPPR1   B_VECTNIL+15
         1 000020   000000 701000 xent               TSX1    MMS$WSQMAP
         1 000021   000000 011000                    NOP     0

     1486     1371    2        DO INHIBIT;

     1487     1372    2           KI$FEI.FEST =KIST_DN;

   1372  1 000022   200004 470700                    LDP0  ! FEI$,,AUTO
         1 000023   000000 236203                    LDQ   ! 0,DU
         1 000024   000002 552320                    STBQ  ! 2,'20'O,PR0

     1488     1373    2        END;

     1489     1374    1        MVSZ=KI$FEI.BDCUR *4;

   1374  1 000025   000012 236100                    LDQ     10,,PR0
         1 000026   000020 732000                    QRS     16
         1 000027   000000 376000 2                  ANQ     0
         1 000030   200007 756100                    STQ     MVSZ,,AUTO

     1490     1375    1        DMP$=PINCRW(KI$FEI.BD$ ,KI$FEI.BDARS );

   1375  1 000031   000011 720100                    LXL0    9,,PR0
         1 000032   000010 471500                    LDP1    8,,PR0
         1 000033   100000 633510                    EPPR3   0,X0,PR1
         1 000034   200006 453500                    STP3    DMP$,,AUTO

     1491     1376    1        DMP$->MOVEE=DMP$->MOVOR.DMP;

   1376  1 000035   000000 621006                    EAX1    0,QL
         1 000036   200007 722100                    LXL2    MVSZ,,AUTO
         1 000037   040140 100540                    MLR     fill='040'O
         1 000040   300001 000011                    ADSC9   1,,PR3                   cn=0,n=*X1
         1 000041   300000 000012                    ADSC9   0,,PR3                   cn=0,n=*X2

     1492     1377    1        KI$FEI.BDARS =KI$FEI.BDARS +KI$FEI.BDCUR ;
PL6.E3A0      #007=KIQ$DMPINT File=KIQ$QMGR.:E05TSI                              WED 07/30/97 00:41 Page:279

   1377  1 000042   000012 236100                    LDQ     10,,PR0
         1 000043   000022 732000                    QRS     18
         1 000044   200012 756100                    STQ     REG_FLG+2,,AUTO
         1 000045   000011 236100                    LDQ     9,,PR0
         1 000046   000022 736000                    QLS     18
         1 000047   000022 732000                    QRS     18
         1 000050   200012 036100                    ADLQ    REG_FLG+2,,AUTO
         1 000051   000000 620006                    EAX0    0,QL
         1 000052   000011 440100                    SXL0    9,,PR0

     1493     1378    1        IF KI$FEI.BDSZ <=KI$FEI.BDARS +SIZEW(CTCW) THEN

   1378  1 000053   000001 621010                    EAX1    1,X0
         1 000054   000011 101100                    CMPX1   9,,PR0
         1 000055   000105 604000 1                  TMI     s:1387

     1494     1379    2          DO ;

     1495     1380    2             CALL MMS$VREL (KI$FEI.FEWSQ ,KI$FEI.BD$ );

   1380  1 000056   200004 236100                    LDQ     FEI$,,AUTO
         1 000057   000010 036003                    ADLQ    8,DU
         1 000060   200013 756100                    STQ     REG_FLG+3,,AUTO
         1 000061   200004 236100                    LDQ     FEI$,,AUTO
         1 000062   000005 036003                    ADLQ    5,DU
         1 000063   200012 756100                    STQ     REG_FLG+2,,AUTO
         1 000064   200012 630500                    EPPR0   REG_FLG+2,,AUTO
         1 000065   000020 631400 xsym               EPPR1   B_VECTNIL+16
         1 000066   000000 701000 xent               TSX1    MMS$VREL
         1 000067   000000 011000                    NOP     0

     1496     1381    2             CALL SSR$RUE (%SS_UQA,KI$FEI.BDU# );

   1381  1 000070   200004 236100                    LDQ     FEI$,,AUTO
         1 000071   000002 036000 2                  ADLQ    2
         1 000072   000003 235000 2                  LDA     3
PL6.E3A0      #007=KIQ$DMPINT File=KIQ$QMGR.:E05TSI                              WED 07/30/97 00:41 Page:280
         1 000073   200012 757100                    STAQ    REG_FLG+2,,AUTO
         1 000074   200012 630500                    EPPR0   REG_FLG+2,,AUTO
         1 000075   000020 631400 xsym               EPPR1   B_VECTNIL+16
         1 000076   000000 701000 xent               TSX1    SSR$RUE
         1 000077   000000 011000                    NOP     0

     1497     1382                  %UNLOCK(G=KI$FEI.LOCK);

   1383  1 000100   200004 630500                    EPPR0   FEI$,,AUTO
         1 000101   000017 631400 xsym               EPPR1   B_VECTNIL+15
         1 000102   000000 701000 xent               TSX1    HFC$UNLOCK
         1 000103   000000 011000                    NOP     0

     1498     1385    2             RETURN;

   1385  1 000104   000000 702200 xent               TSX2  ! X66_ARET

     1499     1386    2          END;
     1500     1387    1        REG_FLG = '0'B;

   1387  1 000105   200010 450100                    STZ     REG_FLG,,AUTO

     1501     1388    1        GOTO DUMPGO;

   1388  1 000106   000133 710000 1                  TRA     DUMPGO

     1502     1389
     1503     1390    1   KIQ$DUMPGO: ENTRY (FEI);

   1390  1 000107   000000 700200 xent  KIQ$DUMPGO   TSX0  ! X66_AUTO_1
         1 000110   000016 000001                    ZERO    14,1

     1504     1391
     1505     1392    1        REG_FLG = '1'B;

   1392  1 000111   400000 236003                    LDQ     -131072,DU
         1 000112   200010 756100                    STQ     REG_FLG,,AUTO
PL6.E3A0      #007=KIQ$DMPINT File=KIQ$QMGR.:E05TSI                              WED 07/30/97 00:41 Page:281

     1506     1393    1        FEI$ = KI$FEI$(FEI);

   1393  1 000113   200003 470500                    LDP0    @FEI,,AUTO
         1 000114   000000 720100                    LXL0    0,,PR0
         1 000115   000000 471400 xsym               LDP1    KI_FEI$$
         1 000116   100000 236110                    LDQ     0,X0,PR1
         1 000117   200004 756100                    STQ     FEI$,,AUTO

     1507     1394             %LOCK (G=KI$FEI.LOCK);

   1395  1 000120   200004 630500                    EPPR0   FEI$,,AUTO
         1 000121   000017 631400 xsym               EPPR1   B_VECTNIL+15
         1 000122   000000 701000 xent               TSX1    HFC$LOCK
         1 000123   000000 011000                    NOP     0

     1508     1397    1        CALL MMS$WSQMAP(KI$FEI.PTPPNO#);

   1397  1 000124   200004 236100                    LDQ     FEI$,,AUTO
         1 000125   000014 036003                    ADLQ    12,DU
         1 000126   200012 756100                    STQ     REG_FLG+2,,AUTO
         1 000127   200012 630500                    EPPR0   REG_FLG+2,,AUTO
         1 000130   000017 631400 xsym               EPPR1   B_VECTNIL+15
         1 000131   000000 701000 xent               TSX1    MMS$WSQMAP
         1 000132   000000 011000                    NOP     0

     1509     1398    1   DUMPGO: OCQ$=KI$FEI.OCQ$;

   1398  1 000133   200004 470500       DUMPGO       LDP0    FEI$,,AUTO
         1 000134   000003 236100                    LDQ     3,,PR0
         1 000135   200005 756100                    STQ     OCQ$,,AUTO

     1510     1399    1        IF KI$FEI.BDSZ -KI$FEI.BDARS >4096 THEN KI$FEI.BDCUR =4096;

   1399  1 000136   000011 236100                    LDQ     9,,PR0
         1 000137   000022 736000                    QLS     18
         1 000140   000022 732000                    QRS     18
PL6.E3A0      #007=KIQ$DMPINT File=KIQ$QMGR.:E05TSI                              WED 07/30/97 00:41 Page:282
         1 000141   200012 756100                    STQ     REG_FLG+2,,AUTO
         1 000142   000011 236100                    LDQ     9,,PR0
         1 000143   000022 732000                    QRS     18
         1 000144   200012 136100                    SBLQ    REG_FLG+2,,AUTO
         1 000145   010000 116007                    CMPQ    4096,DL
         1 000146   000152 604400 1                  TMOZ    s:1400

   1399  1 000147   010000 220003                    LDX0    4096,DU
         1 000150   000012 740100                    STX0    10,,PR0
         1 000151   000163 710000 1                  TRA     s:1401

     1511     1400    1        ELSE KI$FEI.BDCUR =KI$FEI.BDSZ -KI$FEI.BDARS -SIZEW(CTCW);

   1400  1 000152   000011 236100                    LDQ     9,,PR0
         1 000153   000022 736000                    QLS     18
         1 000154   000022 732000                    QRS     18
         1 000155   200012 756100                    STQ     REG_FLG+2,,AUTO
         1 000156   000011 236100                    LDQ     9,,PR0
         1 000157   000022 732000                    QRS     18
         1 000160   200012 136100                    SBLQ    REG_FLG+2,,AUTO
         1 000161   777777 620006                    EAX0    -1,QL
         1 000162   000012 740100                    STX0    10,,PR0

     1512     1401    1        DMP$=PINCRW(KI$FEI.BD$ ,KI$FEI.BDARS );

   1401  1 000163   000011 721100                    LXL1    9,,PR0
         1 000164   000010 471500                    LDP1    8,,PR0
         1 000165   100000 633511                    EPPR3   0,X1,PR1
         1 000166   200006 453500                    STP3    DMP$,,AUTO

     1513     1402    1        DMP$->CTCW=DMPTCW;

   1402  1 000167   000000 236000 0                  LDQ     DMPTCW
         1 000170   300000 756100                    STQ     0,,PR3

     1514     1403    1        DMP$->CTCW.L6ADD=(KI$FEI.BDARS /KI_TSHFT)+KI$FEI.DSTAD ;

PL6.E3A0      #007=KIQ$DMPINT File=KIQ$QMGR.:E05TSI                              WED 07/30/97 00:41 Page:283
   1403  1 000171   000011 236100                    LDQ     9,,PR0
         1 000172   000022 736000                    QLS     18
         1 000173   000022 732000                    QRS     18
         1 000174   000200 506007                    DIV     128,DL
         1 000175   000016 036100                    ADLQ    14,,PR0
         1 000176   000022 736000                    QLS     18
         1 000177   300000 676100                    ERQ     0,,PR3
         1 000200   077777 376003                    ANQ     32767,DU
         1 000201   300000 656100                    ERSQ    0,,PR3

     1515     1404    1        DMP$->CTCW.TALLY=KI$FEI.BDCUR ;

   1404  1 000202   000012 236100                    LDQ     10,,PR0
         1 000203   000022 772000                    QRL     18
         1 000204   300000 752103                    STCQ    0,'03'O,PR3

     1516     1405    1        OCQ$->KI$QHDR.CCMD=DUMPL6;

   1405  1 000205   000001 236000 0                  LDQ     DUMPL6
         1 000206   200005 471500                    LDP1    OCQ$,,AUTO
         1 000207   100000 756100                    STQ     0,,PR1

     1517     1406    1        ADDR(OCQ$->KI$QHDR.CCMD)->CCMD.ADB18=DMPR.WADDR;

   1406  1 000210   200006 220100                    LDX0    DMP$,,AUTO
         1 000211   100000 740100                    STX0    0,,PR1

     1518     1407    1        KI$FEI.TCNT = KI$FEI.TIMEOUT.DUMP;

   1407  1 000212   000020 221100                    LDX1    16,,PR0
         1 000213   000777 361003                    ANX1    511,DU
         1 000214   000002 441100                    SXL1    2,,PR0

     1519     1408    1        KI$FEI.FEST =KIST_DMP;

   1408  1 000215   000005 236003                    LDQ     5,DU
         1 000216   000002 552120                    STBQ    2,'20'O,PR0
PL6.E3A0      #007=KIQ$DMPINT File=KIQ$QMGR.:E05TSI                              WED 07/30/97 00:41 Page:284

     1520     1409    1        CALL NIS$DCCON (KI$FEI.FECH ,'0'O,KI$FEI.FEWSQ);

   1409  1 000217   200004 236100                    LDQ     FEI$,,AUTO
         1 000220   000005 036003                    ADLQ    5,DU
         1 000221   200014 756100                    STQ     REG_FLG+4,,AUTO
         1 000222   000004 236000 2                  LDQ     4
         1 000223   200013 756100                    STQ     REG_FLG+3,,AUTO
         1 000224   200004 236100                    LDQ     FEI$,,AUTO
         1 000225   000002 036003                    ADLQ    2,DU
         1 000226   200012 756100                    STQ     REG_FLG+2,,AUTO
         1 000227   200012 630500                    EPPR0   REG_FLG+2,,AUTO
         1 000230   000021 631400 xsym               EPPR1   B_VECTNIL+17
         1 000231   000000 701000 xent               TSX1    NIS$DCCON
         1 000232   000000 011000                    NOP     0

     1521     1410             %UNLOCK (G=KI$FEI.LOCK);

   1411  1 000233   200004 630500                    EPPR0   FEI$,,AUTO
         1 000234   000017 631400 xsym               EPPR1   B_VECTNIL+15
         1 000235   000000 701000 xent               TSX1    HFC$UNLOCK
         1 000236   000000 011000                    NOP     0

     1522     1413    1        IF REG_FLG THEN CALL SSR$REG(%SS_QA);

   1413  1 000237   200010 234100                    SZN     REG_FLG,,AUTO
         1 000240   000245 605000 1                  TPL     s:1414

   1413  1 000241   000006 630400 2                  EPPR0   6
         1 000242   000017 631400 xsym               EPPR1   B_VECTNIL+15
         1 000243   000000 701000 xent               TSX1    SSR$REG
         1 000244   000000 011000                    NOP     0

     1523     1414    1        KI$FEI.BDU# = 0;

   1414  1 000245   200004 470500                    LDP0    FEI$,,AUTO
         1 000246   000000 236003                    LDQ     0,DU
PL6.E3A0      #007=KIQ$DMPINT File=KIQ$QMGR.:E05TSI                              WED 07/30/97 00:41 Page:285
         1 000247   000007 552120                    STBQ    7,'20'O,PR0

     1524     1415    1        RETURN;

   1415  1 000250   000000 702200 xent               TSX2  ! X66_ARET

DMPTCW
 Sect OctLoc
   0     000   100000 400000                                                    @...

DUMPL6
 Sect OctLoc
   0     001   000000 000075                                                    ...=

(unnamed)
 Sect OctLoc
   2     000   777777 777774   000000 000034   000007 200000   000001 006000    ................
   2     004   000002 006000   000000 000033   000005 006000                    ............
     1525     1416
     1526     1417    1   END;
     1527     1418
     1528     1419
     1529     1420        %EOD;

PL6.E3A0      #007=KIQ$DMPINT File=KIQ$QMGR.:E05TSI                              WED 07/30/97 00:41 Page:286
--  Include file information  --

   KI_SUBS_C.:E05TOU  is referenced.
   SS_SCHED_C.:E05TOU  is referenced.
   S_WSPTD_R.:E05TOU  cannot be made into a system file and is referenced.
   KI_MACROS_C.:E05TOU  is referenced.
   KI_DATA_R.:E05TOU  cannot be made into a system file and is referenced.
   KI$QHDR.:E05TOU  cannot be made into a system file and is referenced.
   HF_LOCK_C.:E05TOU  cannot be made into a system file and is referenced.
      No diagnostics issued in procedure KIQ$DMPINT.
PL6.E3A0      #007=KIQ$DMPINT File=KIQ$QMGR.:E05TSI                              WED 07/30/97 00:41 Page:287

 **** Variables and constants ****

  ****  Section 000 RoData KIQ$DMPINT

  ****  Scalars and arrays  ****
OctLoc.c.b A Datatyp(siz) R M Lvl/name                 OctLoc.c.b A Datatyp(siz) R M Lvl/name

     0-0-0/w STRC        r     1 DMPTCW                     1-0-0/w STRC        r     1 DUMPL6

  ****  Auto variables  ****

  ****  Scalars and arrays  ****
OctLoc.c.b A Datatyp(siz) R M Lvl/name                 OctLoc.c.b A Datatyp(siz) R M Lvl/name

     3-0-0/w PTR         r     1 @FEI                       6-0-0/w PTR         r     1 DMP$
     6-0-0/w STRC        r     1 DMPR                      *0-0-0/w UBIN        r     1 FEI
     4-0-0/w PTR         r     1 FEI$                       7-0-0/w UBIN        r     1 MVSZ
     5-0-0/w PTR         r     1 OCQ$                      10-0-0/w BIT         r     1 REG_FLG

  ****  SYMREF variables  ****

  ****  Scalars and arrays  ****
OctLoc.c.b A Datatyp(siz) R M Lvl/name                 OctLoc.c.b A Datatyp(siz) R M Lvl/name

     0-0-0/w PTR         r     1 KI_FEI$$

  ****  BASED and DCB variables  ****

  ****  Scalars and arrays  ****
OctLoc.c.b A Datatyp(siz) R M Lvl/name                 OctLoc.c.b A Datatyp(siz) R M Lvl/name

     0-0-0/w STRC        r     1 CCMD                       0-0-0/w STRC        r     1 CTCW
     0-0-0/w STRC(612)   r     1 KI$FEI
     0-0-0/w PTR         r     1 KI$FEI$(0:0)
     0-0-0/d STRC(576)   r     1 KI$QHDR                    0-0-0/w ACHR        r     1 MOVEE
     0-0-0/w ASTR        r     1 MOVOR

PL6.E3A0      #007=KIQ$DMPINT File=KIQ$QMGR.:E05TSI                              WED 07/30/97 00:41 Page:288

   Procedure KIQ$DMPINT requires 169 words for executable code.
   Procedure KIQ$DMPINT requires 14 words of local(AUTO) storage.
PL6.E3A0      #007=KIQ$DMPINT File=KIQ$QMGR.:E05TSI                              WED 07/30/97 00:41 Page:289
          *** CROSS REFERENCE LISTING ***
**     DENOTES     IDENTIFIER DEFINITION
<<                 IDENTIFIER'S VALUE SET
>>                 IDENTIFIER'S VALUE USED
<>                 IDENTIFIER SET AND/OR USED
--                 IDENTIFIER REFERENCED
PL6.E3A0      #007=KIQ$DMPINT File=KIQ$QMGR.:E05TSI                              WED 07/30/97 00:41 Page:290
          MINI XREF LISTING

CCMD.ADB18
      1207**DCL      1406<<ASSIGN
CCMD.L66INT
      1215**DCL      1216--REDEF    1217--REDEF
CCMD.L6INT
      1212**DCL      1214--REDEF
CTCW
      1198**DCL      1378--IF       1400--ASSIGN   1402<<ASSIGN
CTCW.L6ADD
      1200**DCL      1403<<ASSIGN
CTCW.TALLY
      1203**DCL      1404<<ASSIGN
DMP$
      1346**DCL      1347--REDEF    1375<<ASSIGN   1376>>ASSIGN   1376>>ASSIGN   1401<<ASSIGN   1402>>ASSIGN
      1403>>ASSIGN   1404>>ASSIGN
DMPR.WADDR
      1348**DCL      1406>>ASSIGN
DMPTCW
      1221**DCL      1402>>ASSIGN
DUMPGO
      1398**LABEL    1388--GOTO
DUMPL6
      1238**DCL      1405>>ASSIGN
DUMPL6.L66INT
      1246**DCL      1247--REDEF    1251--REDEF
DUMPL6.L6INT
      1244**DCL      1245--REDEF
FEI
      1343**DCL         8--PROC     1366>>ASSIGN   1390--ENTRY    1393>>ASSIGN
FEI$
      1344**DCL      1270--IMP-PTR  1366<<ASSIGN   1368>>CALL     1370>>CALL     1372>>ASSIGN   1374>>ASSIGN
      1375>>ASSIGN   1375>>ASSIGN   1377>>ASSIGN   1377>>ASSIGN   1377>>ASSIGN   1378>>IF       1378>>IF
PL6.E3A0      #007=KIQ$DMPINT File=KIQ$QMGR.:E05TSI                              WED 07/30/97 00:41 Page:291
      1380>>CALL     1380>>CALL     1381>>CALL     1383>>CALL     1393<<ASSIGN   1395>>CALL     1397>>CALL
      1398>>ASSIGN   1399>>IF       1399>>IF       1399>>ASSIGN   1400>>ASSIGN   1400>>ASSIGN   1400>>ASSIGN
      1401>>ASSIGN   1401>>ASSIGN   1403>>ASSIGN   1403>>ASSIGN   1404>>ASSIGN   1407>>ASSIGN   1407>>ASSIGN
      1408>>ASSIGN   1409>>CALL     1409>>CALL     1411>>CALL     1414>>ASSIGN
HFC$LOCK
        24**DCL-ENT  1368--CALL     1395--CALL
HFC$UNLOCK
        24**DCL-ENT  1383--CALL     1411--CALL
KI$FEI.BD$
      1305**DCL      1306--REDEF    1375>>ASSIGN   1380<>CALL     1401>>ASSIGN
KI$FEI.BDAD.WADDR
      1307**DCL      1308--REDEF
KI$FEI.BDARS
      1313**DCL      1375>>ASSIGN   1377<<ASSIGN   1377>>ASSIGN   1378>>IF       1399>>IF       1400>>ASSIGN
      1401>>ASSIGN   1403>>ASSIGN
KI$FEI.BDCUR
      1314**DCL      1374>>ASSIGN   1377>>ASSIGN   1399<<ASSIGN   1400<<ASSIGN   1404>>ASSIGN
KI$FEI.BDSZ
      1312**DCL      1378>>IF       1399>>IF       1400>>ASSIGN
KI$FEI.BDU#
      1303**DCL      1381<>CALL     1414<<ASSIGN
KI$FEI.DSTAD
      1333**DCL      1403>>ASSIGN
KI$FEI.FECH
      1272**DCL      1409<>CALL
KI$FEI.FEST
      1275**DCL      1372<<ASSIGN   1408<<ASSIGN
KI$FEI.FEWSQ
      1298**DCL      1380<>CALL     1409<>CALL
KI$FEI.LOCK
      1271**DCL      1368<>CALL     1383<>CALL     1395<>CALL     1411<>CALL
KI$FEI.OCQ$
      1286**DCL      1398>>ASSIGN
KI$FEI.PTPPNO#
      1320**DCL      1370<>CALL     1397<>CALL
KI$FEI.RCVPB
PL6.E3A0      #007=KIQ$DMPINT File=KIQ$QMGR.:E05TSI                              WED 07/30/97 00:41 Page:292
      1321**DCL      1322--REDEF
KI$FEI.TCNT
      1282**DCL      1407<<ASSIGN
KI$FEI.TIMEOUT.DUMP
      1337**DCL      1407>>ASSIGN
KI$FEI$
       189**DCL      1366>>ASSIGN   1393>>ASSIGN
KI$QHDR.CCMD
        55**DCL      1405<<ASSIGN   1406--ASSIGN
KI_FEI$$
       188**DCL       189--IMP-PTR  1366>>ASSIGN   1393>>ASSIGN
MMS$VREL
      1358**DCL-ENT  1380--CALL
MMS$WSQMAP
      1360**DCL-ENT  1370--CALL     1397--CALL
MOVEE
      1351**DCL      1376<<ASSIGN
MOVOR.DMP
      1354**DCL      1376>>ASSIGN
MVSZ
      1350**DCL      1351--IMP-SIZ  1354--IMP-SIZ  1374<<ASSIGN   1376>>ASSIGN   1376>>ASSIGN
NIS$DCCON
      1359**DCL-ENT  1409--CALL
OCQ$
      1345**DCL      1398<<ASSIGN   1405>>ASSIGN   1406>>ASSIGN
REG_FLG
      1355**DCL      1387<<ASSIGN   1392<<ASSIGN   1413>>IF
SSR$REG
      1356**DCL-ENT  1413--CALL
SSR$RUE
      1357**DCL-ENT  1381--CALL

PL6.E3A0      #008=KIQ$MAPFEP File=KIQ$QMGR.:E05TSI                              WED 07/30/97 00:41 Page:293
     1530        1        /*T***********************************************************/
     1531        2        /*T*                                                         */
     1532        3        /*T* Copyright (c) Bull HN Information Systems Inc., 1997    */
     1533        4        /*T*                                                         */
     1534        5        /*T***********************************************************/
     1535        6        KIQ$MAPFEP: PROC (FEI);
     1536        7
     1537        8        %INCLUDE KI_DATA_R;
     1538       34        %INCLUDE KI_MACROS_C;
     1539      642
     1540      643    1   DCL FEI UBIN BYTE CALIGNED;
     1541      644
     1542      645        %KI$FEI;
     1543      729
     1544      730    1   DCL PPNO UBIN;
     1545      731
     1546      732    1   DCL MMS$WSQMAP ENTRY(1) ALTRET;
     1547      733
     1548      734    1        PPNO = KI$FEI$(FEI)->KI$FEI.PTPPNO#;
     1549      735    1        IF PPNO ~= 0
     1550      736    1        THEN
     1551      737    1           CALL MMS$WSQMAP(PPNO);
     1552      738    1        RETURN;
     1553      739    1   END KIQ$MAPFEP;
     1554      740
     1555      741

PL6.E3A0      #008=KIQ$MAPFEP File=KIQ$QMGR.:E05TSI                              WED 07/30/97 00:41 Page:294
--  Include file information  --

   KI_MACROS_C.:E05TOU  is referenced.
   KI_DATA_R.:E05TOU  cannot be made into a system file and is referenced.
      No diagnostics issued in procedure KIQ$MAPFEP.

   Procedure KIQ$MAPFEP requires 19 words for executable code.
   Procedure KIQ$MAPFEP requires 8 words of local(AUTO) storage.

    No errors detected in file KIQ$QMGR.:E05TSI    .

PL6.E3A0      #008=KIQ$MAPFEP File=KIQ$QMGR.:E05TSI                              WED 07/30/97 00:41 Page:295

 Object Unit name= KIQ$MAPFEP                                 File name= KIQ$QMGR.:E05TOU
 UTS= JUL 30 '97 00:41:29.60 WED                              Compiler= PL-6/E31         Sev=      00
 SharedLib= :SHARED_SYSTEM                                    Alt SharedLib=


    ****  Control sections  ****

 Sect   Type Bound  Init  Size OctSiz  Section name(segment info)
    0   Proc  even  none    19     23  KIQ$MAPFEP

    ****  Entry defs  ****

                              Check   Calling
                             calling  sequence
  Sect OctLoc Primary Altret sequence   type   Parms  Name
     0      0   yes            yes      Std        1  KIQ$MAPFEP

  ****  Entry refs  ****

         Check        Calling
        calling       sequence
Altret sequence SRef   type   Args  Name
 yes     yes           Std       1 MMS$WSQMAP
                       nStd      0 X66_AUTO_1
                       Std       0 B_CONSPOOL_D
                       nStd      0 X66_ARET

  ****  Data refs  ****

  Flags:  r = read only, s = secondary
Flgs Name                             Flgs Name                             Flgs Name
     KI_FEI$$                              B_VECTNIL
PL6.E3A0      #008=KIQ$MAPFEP File=KIQ$QMGR.:E05TSI                              WED 07/30/97 00:41 Page:296


     1530        1        /*T***********************************************************/
     1531        2        /*T*                                                         */
     1532        3        /*T* Copyright (c) Bull HN Information Systems Inc., 1997    */
     1533        4        /*T*                                                         */
     1534        5        /*T***********************************************************/
     1535        6        KIQ$MAPFEP: PROC (FEI);

      6  0 000000   000000 700200 xent  KIQ$MAPFEP   TSX0  ! X66_AUTO_1
         0 000001   000010 000001                    ZERO    8,1

     1536        7
     1537        8        %INCLUDE KI_DATA_R;
     1538       34        %INCLUDE KI_MACROS_C;
     1539      642
     1540      643    1   DCL FEI UBIN BYTE CALIGNED;
     1541      644
     1542      645        %KI$FEI;
     1543      729
     1544      730    1   DCL PPNO UBIN;
     1545      731
     1546      732    1   DCL MMS$WSQMAP ENTRY(1) ALTRET;
     1547      733
     1548      734    1        PPNO = KI$FEI$(FEI)->KI$FEI.PTPPNO#;

    734  0 000002   200003 470500                    LDP0    @FEI,,AUTO
         0 000003   000100 101500                    MRL     fill='000'O
         0 000004   000000 000001                    ADSC9   0,,PR0                   cn=0,n=1
         0 000005   200006 000002                    ADSC9   PPNO+2,,AUTO             cn=0,n=2
         0 000006   200006 220100                    LDX0    PPNO+2,,AUTO
         0 000007   000000 471400 xsym               LDP1    KI_FEI$$
         0 000010   100000 473510                    LDP3    0,X0,PR1
         0 000011   300014 235100                    LDA     12,,PR3
         0 000012   200004 755100                    STA     PPNO,,AUTO

     1549      735    1        IF PPNO ~= 0

PL6.E3A0      #008=KIQ$MAPFEP File=KIQ$QMGR.:E05TSI                              WED 07/30/97 00:41 Page:297
    735  0 000013   000022 600000 0                  TZE     s:738

     1550      736    1        THEN
     1551      737    1           CALL MMS$WSQMAP(PPNO);

    737  0 000014   200004 633500                    EPPR3   PPNO,,AUTO
         0 000015   200006 453500                    STP3    PPNO+2,,AUTO
         0 000016   200006 630500                    EPPR0   PPNO+2,,AUTO
         0 000017   000017 631400 xsym               EPPR1   B_VECTNIL+15
         0 000020   000000 701000 xent               TSX1    MMS$WSQMAP
         0 000021   000000 011000                    NOP     0

     1552      738    1        RETURN;

    738  0 000022   000000 702200 xent               TSX2  ! X66_ARET
     1553      739    1   END KIQ$MAPFEP;
     1554      740
     1555      741

PL6.E3A0      #008=KIQ$MAPFEP File=KIQ$QMGR.:E05TSI                              WED 07/30/97 00:41 Page:298
--  Include file information  --

   KI_MACROS_C.:E05TOU  is referenced.
   KI_DATA_R.:E05TOU  cannot be made into a system file and is referenced.
      No diagnostics issued in procedure KIQ$MAPFEP.
PL6.E3A0      #008=KIQ$MAPFEP File=KIQ$QMGR.:E05TSI                              WED 07/30/97 00:41 Page:299

 **** Variables and constants ****

  ****  Auto variables  ****

  ****  Scalars and arrays  ****
OctLoc.c.b A Datatyp(siz) R M Lvl/name                 OctLoc.c.b A Datatyp(siz) R M Lvl/name

     3-0-0/w PTR         r     1 @FEI                      *0-0-0/c UBIN(9)     r     1 FEI
     4-0-0/w UBIN        r     1 PPNO

  ****  SYMREF variables  ****

  ****  Scalars and arrays  ****
OctLoc.c.b A Datatyp(siz) R M Lvl/name                 OctLoc.c.b A Datatyp(siz) R M Lvl/name

     0-0-0/w PTR         r     1 KI_FEI$$

  ****  BASED and DCB variables  ****

  ****  Scalars and arrays  ****
OctLoc.c.b A Datatyp(siz) R M Lvl/name                 OctLoc.c.b A Datatyp(siz) R M Lvl/name

     0-0-0/w STRC(612)   r     1 KI$FEI
     0-0-0/w PTR         r     1 KI$FEI$(0:0)


   Procedure KIQ$MAPFEP requires 19 words for executable code.
   Procedure KIQ$MAPFEP requires 8 words of local(AUTO) storage.

    No errors detected in file KIQ$QMGR.:E05TSI    .
PL6.E3A0      #008=KIQ$MAPFEP File=KIQ$QMGR.:E05TSI                              WED 07/30/97 00:41 Page:300
          *** CROSS REFERENCE LISTING ***
**     DENOTES     IDENTIFIER DEFINITION
<<                 IDENTIFIER'S VALUE SET
>>                 IDENTIFIER'S VALUE USED
<>                 IDENTIFIER SET AND/OR USED
--                 IDENTIFIER REFERENCED
PL6.E3A0      #008=KIQ$MAPFEP File=KIQ$QMGR.:E05TSI                              WED 07/30/97 00:41 Page:301
          MINI XREF LISTING

FEI
       643**DCL         6--PROC      734>>ASSIGN
KI$FEI.BD$
       693**DCL       694--REDEF
KI$FEI.BDAD.WADDR
       695**DCL       696--REDEF
KI$FEI.PTPPNO#
       708**DCL       734>>ASSIGN
KI$FEI.RCVPB
       709**DCL       710--REDEF
KI$FEI$
        20**DCL       734>>ASSIGN
KI_FEI$$
        19**DCL        20--IMP-PTR   734>>ASSIGN
MMS$WSQMAP
       732**DCL-ENT   737--CALL
PPNO
       730**DCL       734<<ASSIGN    735>>IF        737<>CALL
