PL6.E3A0      #009=KIS$OSI_RECV File=KIS$OSI.:E05TSI                             WED 07/30/97 00:45 Page:286
     1665        1        /*T***********************************************************/
     1666        2        /*T*                                                         */
     1667        3        /*T* Copyright (c) Bull HN Information Systems Inc., 1997    */
     1668        4        /*T*                                                         */
     1669        5        /*T***********************************************************/
     1670        6        /*F*    NAME:   KIS$OSI_RECV
     1671        7                PURPOSE:  Field incoming message to OSI Session application.
     1672        8        */
     1673        9        /*D*    NAME:   KIS$OSI_RECV
     1674       10                CALL:   CALL KIS$OSI_RECV( K$RWPARM) ALTRET( label);
     1675       11                INPUT:
     1676       12                    K$RWPARM.SHDR$ points at the SPDU.
     1677       13                    K$RWPARM.SHDRSZ says how long the SPDU is.
     1678       14                    K$RWPARM.FUNCTION says what Transport indication/confirm it is.
     1679       15                    K$RWPARM.TCTX$ points to Transport context for this connection.
     1680       16                OUTPUT:
     1681       17                    On successful call,
     1682       18                      TBD.
     1683       19                    On unsuccessful call,
     1684       20                      K$RWPARM.ERR is filled in with the appropriate error,
     1685       21                      ALTRETURN is taken.
     1686       22                DESCRIPTION:
     1687       23                    KIS$OSI_RECV is called at interrupt by the host Transport layer
     1688       24                    when an incoming message has been received.  Incoming messages
     1689       25                    for both clients and servers are handled here.
     1690       26
     1691       27                    The application the message is destined for is identified by the
     1692       28                    major+minor SCID lifted from the Transport context.  The major
     1693       29                    SCID indicates a particular major slot which among other things
     1694       30                    identifies the LDCT for the application.  The RESCOD of this LDCT
     1695       31                    tells whether the message is for a server or a client.
     1696       32
     1697       33                    The Transport function code is inspected to figure out what to
     1698       34                    hand to the application.  If T-DATA or T-EXPEDITED-DATA then we
     1699       35                    just pass the accompanying Session PDU on.  Otherwise, we have
     1700       36                    to construct a Transport FPT and pass it on.  In this case, what's
     1701       37                    passed on is in an AUTO buffer rather than what was given to us
PL6.E3A0      #009=KIS$OSI_RECV File=KIS$OSI.:E05TSI                             WED 07/30/97 00:45 Page:287
     1702       38                    by Transport.
     1703       39
     1704       40                    If the message is for a server then we just act as though we're
     1705       41                    a FEP-connected terminal station and call KQP$PUT to transfer
     1706       42                    the message from the ICQ into the server comgroup, directed at
     1707       43                    the AU DCB station.
     1708       44
     1709       45                    If the message is for a client, then either he's blocked waiting
     1710       46                    for an incoming message or he isn't (determined by the WAIT flag
     1711       47                    on the last M$READ issued on the NC DCB).  If blocked, we wake
     1712       48                    him up, satisfying his M$READ.  If not blocked, we queue an event
     1713       49                    for him.
     1714       50        */
     1715       51        KIS$OSI_RECV: PROC( K$RWPARM) ALTRET;
     1716       52        %INCLUDE B$USER;
     1717      268        %INCLUDE B_SEGIDS_C;
     1718      807        %INCLUDE B_STRINGS_C;
     1719      936        %INCLUDE CP_6;
     1720     6495            %B$NWIO( NAME=NWIO, STCLASS=AUTO, PARONLY=1);
     1721     6576            %SUB_EXC;
     1722     6623        %INCLUDE CP_6_SUBS;
     1723     7163        %INCLUDE HF_LOCK_C;
     1724     7177        %INCLUDE KI$MHDR;
     1725     7318            %KI$QMHDR;
     1726     7367        %INCLUDE K_ADDRESS_M;
     1727     7870            %K$TSAP( NAME=TSAP, STCLASS=AUTO);
     1728     7905        %INCLUDE K_INTERFACE_M;
     1729     8314            %K$FPT_CONNECT_OSI;
     1730     8651            %K$FPT_CONNECT_OSI( NAME=TCONFPT, STCLASS="BASED( FPT$)");
     1731     8988            %K$FPT_TERM_OSI;
     1732     9206            %K$FPT_TERM_OSI( NAME=TDISFPT, STCLASS="BASED( FPT$)");
     1733     9424        %INCLUDE KI_MACROS_C;
     1734    10032            %KI$TCTX( STCLASS="BASED( K$RWPARM.TCTX$)");
     1735    10590        %INCLUDE KQ_SUBS_C;
     1736    10890        %INCLUDE K_SESSION_M;
     1737    10980            %KIS$APPL( NAME=APPL, STCLASS=BASED);
     1738    11049            %KIS$GLUE( NAME=GLUE, STCLASS="BASED( GLUE$)");
PL6.E3A0      #009=KIS$OSI_RECV File=KIS$OSI.:E05TSI                             WED 07/30/97 00:45 Page:288
     1739    11079        %INCLUDE K_SUBS_C;
     1740    11112        %INCLUDE K_TRANSPORT_E;
     1741    11437        %INCLUDE K$RWPARM;
     1742    11823            %K$RWPARM( NAME=K$RWPARM, STCLASS="");
     1743    12139            %K$RWPARM( NAME=RWPARM, STCLASS=AUTO);
     1744    12455            %K$RWPARM( NAME=K_RWPARM_CON, STCLASS="SYMREF READONLY");
     1745    12771        %INCLUDE NK_LDCT_R;
     1746    12780        %INCLUDE NK_SUBS;
     1747    12805        %INCLUDE NK$LDCT;
     1748    12907            %NK$LDCT( STCLASS="BASED( LDCT$)");
     1749    12953        %INCLUDE SS_SCHED_C;
     1750    13186        %MACRO F$DCBI( BASED=BASED);
     1751    13187        %INCLUDE F$DCB;
     1752    13236        %MEND;
     1753    13237            %F$DCBI( BASED="BASED( DCB$)");
     1754    13287
     1755    13288    1       DCL KIA$COMP ENTRY(2);
     1756    13289    1       DCL KIT$SEND ENTRY(1) ALTRET;
     1757    13290    1       DCL KQG$CANCEL ENTRY(1) ALTRET;
     1758    13291    1       DCL KQG$GET ENTRY(2) ALTRET;
     1759    13292    1       DCL KQP$PUT ENTRY(2) ALTRET;
     1760    13293    1       DCL SSR$RUE ENTRY(4);
     1761    13294    1       DCL SC_PRTCL_SCREECH ENTRY CONV(2,0);
     1762    13295    1       DCL SC_PRTCL_SNAP ENTRY CONV(2,0);
     1763    13296    1       DCL SC_WRONGLDCT ENTRY CONV(2,0);
     1764    13297
     1765    13298    1       DCL B$USRT$ PTR SYMREF;
     1766    13299    1       DCL KIS_MAJOR$ PTR SYMREF;
     1767    13300    1       DCL KIS_MINOR$ PTR SYMREF;
     1768    13301    1       DCL KIS_OSILOCK BIT(72) SYMREF;
     1769    13302    1       DCL KIS_SSN_MAXMAJOR UBIN SYMREF;
     1770    13303    1       DCL KIS_SSN_MAXMINOR UBIN SYMREF;
     1771    13304    1       DCL KIS_SSN_SERVERS UBIN SYMREF;
     1772    13305    1       DCL K_SC_USER$ PTR SYMREF;
     1773    13306
     1774    13307    1       DCL BYTES CHAR( TSAP.LEN) BASED UNAL;
     1775    13308    1       DCL DCB$ PTR;
PL6.E3A0      #009=KIS$OSI_RECV File=KIS$OSI.:E05TSI                             WED 07/30/97 00:45 Page:289
     1776    13309    1       DCL FPT$ PTR;
     1777    13310    1       DCL 1 GLUEBUF,
     1778    13311    1            2 * UBIN,
     1779    13312                 %K$FPT_CONNECT_OSI( NAME=*, LVL=2, STCLASS=AUTO);
     1780    13649    1       DCL GLUE$ PTR;
     1781    13650    1       DCL I UBIN;
     1782    13651    1       DCL LDCT$ PTR;
     1783    13652    1       DCL LINK SBIN;
     1784    13653    1       DCL MAJOR$ PTR;
     1785    13654    1       DCL MINOR$ PTR;
     1786    13655    1       DCL PUTERR UBIN;
     1787    13656    1       DCL P$ PTR;
     1788    13657    1       DCL PTR$ PTR;
     1789    13658    1       DCL SAFE CHAR(4) UNAL;
     1790    13659    1       DCL SAFEBYTES CHAR(4) BASED CALIGNED;
     1791    13660    1       DCL SCID SBIN;
     1792    13661    1       DCL SERVERAU CHAR(8) CONSTANT INIT( 'SERVER');
     1793    13662    1       DCL SQUIRRELED BIT(1) ALIGNED;
     1794    13663    1       DCL TEMP SBIN;
     1795    13664    1       DCL UBIN9 UBIN(9) BASED CALIGNED;
     1796    13665    1       DCL UBIN36 UBIN(36) BASED ALIGNED;
     1797    13666    1       DCL USRT$ PTR;
     1798    13667
     1799    13668    2       IF K$RWPARM.FUNCTION = %K_TCONNECT_IND THEN DO;
     1800    13669    2           TSAP = KI$TCTX.SSN.DST_TSAP;
     1801    13670    2           SCID = -1;
     1802    13671                /* Determine which application is being called */
     1803    13672                %LOCK( G=KIS_OSILOCK);
     1804    13675    2           MAJOR$ = PINCRW( KIS_MAJOR$, 1);
     1805    13676    2   MAJOR_LOOP:
     1806    13677    3           DO I = 1 TO KIS_SSN_SERVERS;
     1807    13678    3               IF MAJOR$->APPL.LDCTX ~= 0 THEN
     1808    13679    3                   IF MAJOR$->APPL.TSAP.LEN = TSAP.LEN THEN
     1809    13680    3                       IF ADDR( MAJOR$->APPL.TSAP.TSAP)->BYTES =
     1810    13681    4                               ADDR( TSAP.TSAP)->BYTES THEN DO;
     1811    13682                                /* TSAP matches, so aimed at this application */
     1812    13683    4                           SCID = POFFW( MAJOR$, KIS_MAJOR$);
PL6.E3A0      #009=KIS$OSI_RECV File=KIS$OSI.:E05TSI                             WED 07/30/97 00:45 Page:290
     1813    13684    4                           EXIT MAJOR_LOOP;
     1814    13685    4                           END;
     1815    13686    3               MAJOR$ = PINCRW( MAJOR$, 10);
     1816    13687    3               END;
     1817    13688    3           IF SCID ~= -1 THEN DO;
     1818    13689    3               TEMP = -1;
     1819    13690                    /* find a free minor server slot for this connection */
     1820    13691    3               PTR$ = MAJOR$;
     1821    13692    3               LINK = MAJOR$->APPL.Z.LINK;
     1822    13693    3   MINOR_LOOP:
     1823    13694    4               DO WHILE( LINK ~= 0);
     1824    13695                        /* see if an unused link on this server's chain can be used */
     1825    13696    4                   PTR$ = PINCRW( KIS_MINOR$, LINK);
     1826    13697    5                   IF PTR$->APPL.TCTX = 0 THEN DO;
     1827    13698    5                       TEMP = LINK;
     1828    13699    5                       MINOR$ = PTR$;
     1829    13700    5                       EXIT MINOR_LOOP;
     1830    13701    5                       END;
     1831    13702    4                   LINK = PTR$->APPL.Z.LINK;
     1832    13703    4                   END;
     1833    13704    4               IF TEMP = -1 THEN DO;
     1834    13705                        /* nope.. have to allocate a new minor server slot */
     1835    13706    4                   LINK = KIS_MINOR$->APPL.Z.LINK;
     1836    13707    5                   IF LINK ~= 0 THEN DO;
     1837    13708                            /* o.k. there is one available */
     1838    13709    5                       MINOR$ = PINCRW( KIS_MINOR$, LINK);
     1839    13710    5                       KIS_MINOR$->APPL.Z.LINK = MINOR$->APPL.Z.LINK;
     1840    13711    5                       TEMP = LINK;
     1841    13712    5                       END;
     1842    13713    4                   END;
     1843    13714    4               IF TEMP ~= -1 THEN DO;
     1844    13715                        /* we found one somewhere... */
     1845    13716    4                   MINOR$->APPL.TCTX = K$RWPARM.TCTX#;
     1846    13717    4                   MINOR$->APPL.Z.LINK = 0;
     1847    13718    4                   IF PTR$ ~= MINOR$ THEN
     1848    13719    4                       PTR$->APPL.Z.LINK = LINK;  /* append to chain */
     1849    13720    4                   END;
PL6.E3A0      #009=KIS$OSI_RECV File=KIS$OSI.:E05TSI                             WED 07/30/97 00:45 Page:291
     1850    13721    3               END;
     1851    13722                %UNLOCK( G=KIS_OSILOCK);
     1852    13725    3           IF SCID = -1 OR TEMP = -1 THEN DO;
     1853    13726                    /* refuse this connection */
     1854    13727    3               IF SCID = -1 THEN
     1855    13728    3                   K$RWPARM.ERR = %K_REASON_ADDRESS_UNKNOWN;
     1856    13729    3               ELSE
     1857    13730    3                   IF TEMP = -1 THEN
     1858    13731    3                       K$RWPARM.ERR = %K_REASON_CONGESTION;
     1859    13732    3   SEND_DISCONNECT:
     1860    13733    3               K$RWPARM.FUNCTION = %K_TDISCONNECT_REQ;
     1861    13734                    /* have Transport disconnect this guy; no FPT used */
     1862    13735                    /* K$RWPARM.TCTX# still valid */
     1863    13736    3               CALL KIT$SEND( K$RWPARM)
     1864    13737    4               WHENALTRETURN DO;
     1865    13738                        /* Transport has filled in K$RWPARM.ERR */
     1866    13739    4                   CALL SC_PRTCL_SNAP;
     1867    13740    4                   END;
     1868    13741                    /* We're done here */
     1869    13742    3               RETURN;
     1870    13743    3               END;
     1871    13744                /* otherwise, we now have a new minor SCID */
     1872    13745    2           I = TEMP;
     1873    13746    2           END;
     1874    13747    2       ELSE DO;
     1875    13748                /* Not a connect; determine who this msg is destined for */
     1876    13749    2           SCID = KI$TCTX.SSN.SCID / 512;
     1877    13750    3           IF SCID > KIS_SSN_MAXMAJOR THEN DO;
     1878    13751                    /* no way can this be a legal SCID */
     1879    13752    3   SNAP:
     1880    13753    3               CALL SC_PRTCL_SNAP;
     1881    13754    3               RETURN;
     1882    13755    3               END;
     1883    13756    2           MAJOR$ = PINCRW( KIS_MAJOR$, SCID);
     1884    13757    2           I = MOD( KI$TCTX.SSN.SCID, 512);
     1885    13758    3           IF I > KIS_SSN_MAXMINOR THEN DO;
     1886    13759                    /* no way can this be a legal SCID */
PL6.E3A0      #009=KIS$OSI_RECV File=KIS$OSI.:E05TSI                             WED 07/30/97 00:45 Page:292
     1887    13760    3               GOTO SNAP;
     1888    13761    3               END;
     1889    13762                /* consistency check... */
     1890    13763    2           MINOR$ = PINCRW( KIS_MINOR$, I);
     1891    13764    3           IF MINOR$->APPL.TCTX = 0 THEN DO;
     1892    13765                    /* Session thinks this slot was disconnected */
     1893    13766    3               IF K$RWPARM.FUNCTION = %K_TDISCONNECT_IND THEN
     1894    13767                        /* that's fine.. so does Transport */
     1895    13768    3                   RETURN;
     1896    13769    3               GOTO SNAP;
     1897    13770    3               END;
     1898    13771    2           END;
     1899    13772            /* point at the GLUE and the TFPT/SPDU */
     1900    13773    1       GLUE$ = ADDR( GLUEBUF);
     1901    13774    1       GLUE = '0'B;
     1902    13775    1       GLUE.YRSCID = MINOR$->APPL.Z.COOKIE;
     1903    13776    1       GLUE.MAGIC = I;
     1904    13777    1       GLUE.TRNFNC = K$RWPARM.FUNCTION;
     1905    13778    1       FPT$ = ADDR( GLUE.DATA);
     1906    13779    1       SQUIRRELED = '0'B;
     1907    13780            /* what kind of Transport function is this? */
     1908    13781    2       DO CASE( K$RWPARM.FUNCTION);
     1909    13782    2           CASE( %K_TCONNECT_IND,
     1910    13783    2                 %K_TCONNECT_CFM);
     1911    13784                    /* build FPT_CONNECT_OSI from internal Transport context */
     1912    13785    2               TCONFPT = KI$TCTX.SSN;
     1913    13786                    /* this is the message to give to the application */
     1914    13787    2               K$RWPARM.MSG$ = GLUE$;
     1915    13788    2               K$RWPARM.MSGSZ = 4 + SIZEC( K$FPT_CONNECT_OSI);
     1916    13789    2           CASE( %K_TDISCONNECT_IND);
     1917    13790                    /* build FPT_TERM_OSI from internal Transport tables */
     1918    13791    2               TDISFPT.REASON = K$RWPARM.ERR;
     1919    13792    2               TDISFPT.SRC_TSAP = KI$TCTX.SSN.SRC_TSAP;
     1920    13793    2               TDISFPT.DST_TSAP = KI$TCTX.SSN.DST_TSAP;
     1921    13794                    /* this is the message to give to the application */
     1922    13795    2               K$RWPARM.MSG$ = GLUE$;
     1923    13796    2               K$RWPARM.MSGSZ = 4 + SIZEC( K$FPT_TERM_OSI);
PL6.E3A0      #009=KIS$OSI_RECV File=KIS$OSI.:E05TSI                             WED 07/30/97 00:45 Page:293
     1924    13797    2           CASE( %K_TDATA_IND,
     1925    13798    2                 %K_TEXPD_DATA_IND);
     1926    13799                    /* Normal data; just pass the SPDU on to the application */
     1927    13800    2               K$RWPARM.MSG$ = PINCRC( K$RWPARM.SHDR$, -4);
     1928    13801    2               K$RWPARM.MSGSZ = 4 + K$RWPARM.SHDRSZ;
     1929    13802                    /* squirrel away the 4 bytes preceding the Session header.. */
     1930    13803    2               SAFE = K$RWPARM.MSG$->SAFEBYTES;
     1931    13804                    /* ..and replace 'em with the glue */
     1932    13805    2               K$RWPARM.MSG$->SAFEBYTES = GLUE$->SAFEBYTES;
     1933    13806    2               SQUIRRELED = '1'B;
     1934    13807    2           CASE( %K_TCREDIT_ACK);
     1935    13808    2               ;  /* nothing to do, here */
     1936    13809    2           CASE( %K_TFLOW_STOP,
     1937    13810    2                 %K_TFLOW_START);
     1938    13811    2               K$RWPARM.MSG$ = GLUE$;
     1939    13812    2               K$RWPARM.MSGSZ = 4;
     1940    13813    2           CASE( ELSE);
     1941    13814    2               CALL SC_PRTCL_SNAP;
     1942    13815    2               RETURN;
     1943    13816    2           END;
     1944    13817            /* from here on, the CQ may have been written on as part of the squirrely
     1945    13818               code above.. so we can't just ALTRETURN if things are fouled up, nor
     1946    13819               can we just RETURN when done.  We have to branch to DONE or GETOUT to
     1947    13820               clean up the CQ before RETURNing or ALTRETURNing, respectively. */
     1948    13821    1       K$RWPARM.SHDR$ = ADDR( NIL);
     1949    13822    1       K$RWPARM.SHDRSZ = 0;
     1950    13823    1       LDCT$ = NK$LDCT$( MAJOR$->APPL.LDCTX);
     1951    13824    2       IF LDCT$ = ADDR( NIL) THEN DO;
     1952    13825                /* something's fouled up.. OSI LDCT has been released, or worse */
     1953    13826    2   WRONGLDCT:
     1954    13827    2           IF SQUIRRELED THEN
     1955    13828                    /* restore squirreled-away bytes */
     1956    13829    2               K$RWPARM.MSG$->SAFEBYTES = SAFE;
     1957    13830                /* save user number of user we want to dump.. */
     1958    13831    2           K_SC_USER$->UBIN9 = MAJOR$->APPL.Z.USER;
     1959    13832                /* ...and screech */
     1960    13833    2           CALL SC_WRONGLDCT;
PL6.E3A0      #009=KIS$OSI_RECV File=KIS$OSI.:E05TSI                             WED 07/30/97 00:45 Page:294
     1961    13834                /*S*  SCREECH_CODE:  KIS-S$WRONGLDCT
     1962    13835                      TYPE:          Snap
     1963    13836                      MESSAGE:       LDCT for an OSI Server has been lost.
     1964    13837                      REMARKS:  Whenever a message is received by the Host monitor
     1965    13838                                part of an OSI Session connection, a sanity check is
     1966    13839                                performed.  This ensures that both LDCTs allocated
     1967    13840                                when the server started up, are still around and
     1968    13841                                allocated to the user who started the server.
     1969    13842                */
     1970    13843    2            IF K$RWPARM.FUNCTION = %K_TCONNECT_IND THEN GOTO SEND_DISCONNECT;
     1971    13844    2           RETURN;
     1972    13845    2           END;
     1973    13846    1       IF NK$LDCT.USER ~= MAJOR$->APPL.Z.USER THEN
     1974    13847    1           GOTO WRONGLDCT;
     1975    13848            /* now switch based on the RESCOD of the LDCT */
     1976    13849    2       DO CASE( NK$LDCT.RESCOD);
     1977    13850    2           CASE( %NK_OSIDCB);
     1978    13851                    /* This message is destined for a client application */
     1979    13852                    %LOCK( G=NK$LDCT.LOCK);
     1980    13855    3               IF K$RWPARM.FUNCTION = %K_TCREDIT_ACK THEN DO;
     1981    13856    3                   NK$LDCT.LKFLG.WTMRK = '0'B;
     1982    13857                        %UNLOCK( G=NK$LDCT.LOCK);
     1983    13860    3                   CALL SSR$RUE( %SS_CIC, NK$LDCT.USER);
     1984    13861    3                   RETURN;
     1985    13862    3                   END;
     1986    13863    2               IF K$RWPARM.FUNCTION = %K_TFLOW_STOP THEN
     1987    13864    2                   NK$LDCT.LKFLG.OBLK = '1'B;
     1988    13865    3               IF K$RWPARM.FUNCTION = %K_TFLOW_START THEN DO;
     1989    13866    3                   NK$LDCT.LKFLG.OBLK = '0'B;
     1990    13867    3                   USRT$ = ADDR( B$USRT$->B$USER( NK$LDCT.USER));
     1991    13868    3                   IF USRT$->B$U.FLG & %U_SCIO AND
     1992    13869    3                           USRT$->B$U.MISC$ = ADDR( NK$LDCT) AND
     1993    13870    3                           USRT$->B$U.US = %SS_STOB THEN
     1994    13871    3                       CALL SSR$RUE( %SS_CUB, NK$LDCT.USER);
     1995    13872    3                   END;
     1996    13873    3               IF NK$LDCT.LKFLG.NOWAIT THEN DO;
     1997    13874    3                   CALL KIA$COMP( NK$LDCT, K$RWPARM);
PL6.E3A0      #009=KIS$OSI_RECV File=KIS$OSI.:E05TSI                             WED 07/30/97 00:45 Page:295
     1998    13875                        %UNLOCK( G=NK$LDCT.LOCK);
     1999    13878    3                   GOTO DONE;
     2000    13879    3                   END;
     2001    13880                    %UNLOCK( G=NK$LDCT.LOCK);
     2002    13883                    /* there's no read pending for this message! */
     2003    13884    2               IF K$RWPARM.FUNCTION ~= %K_TDISCONNECT_IND THEN
     2004    13885    2                   CALL SC_PRTCL_SNAP;
     2005    13886    2           CASE( %NK_OSISTA);
     2006    13887                    /* This message is destined for a server application */
     2007    13888    2               LDCT$ = NK$LDCT$( MAJOR$->APPL.AUDCT);  /* get AU DCB STA ptr */
     2008    13889    2               IF LDCT$ = ADDR( NIL) THEN
     2009    13890                        /* unable to locate the AU DCB's LDCT */
     2010    13891    2                   GOTO WRONGLDCT;
     2011    13892    2               IF NK$LDCT.USER ~= MAJOR$->APPL.Z.USER THEN
     2012    13893    2                   GOTO WRONGLDCT;
     2013    13894    2               LDCT$ = NK$LDCT$( MAJOR$->APPL.LDCTX);  /* restore OSI STA ptr */
     2014    13895    2               K$RWPARM.STATION = SERVERAU;
     2015    13896                    /* the following code mimics case KV_VDO_FNC_DAT of KCF$FEIN */
     2016    13897                    /* get ready to stuff the message into the server CG */
     2017    13898    3               IF NK$LDCT.DFLG.PPND THEN DO;
     2018    13899    3                   K$RWPARM.ERR = %K$DEFER_IO;
     2019    13900    3                   GOTO GETOUT;
     2020    13901    3                   END;
     2021    13902                    /* cancel the GET now in progress, if we can */
     2022    13903    2               IF NOT NK$LDCT.LKFLG.OBLK THEN
     2023    13904    2                   CALL KQG$CANCEL( NK$LDCT)
     2024    13905    3                   WHENALTRETURN DO;
     2025    13906                            /* can't cancel because GET is currently being satisfied */
     2026    13907    3                       IF K$RWPARM.FUNCTION = %K_TCONNECT_IND THEN
     2027    13908                                /* forget the minor SCID we just found */
     2028    13909    3                           MINOR$->APPL.TCTX = 0;
     2029    13910                            /* We'll leave this message in CQ and try again later */
     2030    13911    3                       K$RWPARM.ERR = %K$WAIT_READ;
     2031    13912    3                       GOTO GETOUT;
     2032    13913    3                       END;
     2033    13914                    /* stuff the incoming message into the CG */
     2034    13915    2               NK$LDCT.DFLG.PPND = '1'B;
PL6.E3A0      #009=KIS$OSI_RECV File=KIS$OSI.:E05TSI                             WED 07/30/97 00:45 Page:296
     2035    13916    2               IF K$RWPARM.FUNCTION ~= %K_TDISCONNECT_IND THEN
     2036    13917    2                   NK$LDCT.IPFEI# = K$RWPARM.IP$->KI$QMHDR.FEI#;
     2037    13918    2               NK$LDCT.IP$ = K$RWPARM.IP$;
     2038    13919    2               CALL KQP$PUT( NK$LDCT, K$RWPARM)
     2039    13920    3               WHENRETURN DO;
     2040    13921                        /* Yay... the PUT worked */
     2041    13922    3                   NK$LDCT.IP$ = ADDR( NIL);
     2042    13923    4                   DO INHIBIT;
     2043    13924    4                       NK$LDCT.DFLG.PPND = '0'B;
     2044    13925    4                       NK$LDCT.IP$ = ADDR( NIL);
     2045    13926    4                       END;
     2046    13927    3                   END;
     2047    13928    3               WHENALTRETURN DO;
     2048    13929                        /* Oops.. the PUT failed */
     2049    13930    3                   PUTERR = K$RWPARM.ERR;
     2050    13931    3                   K$RWPARM.ERR = 0;
     2051    13932    4                   DO CASE( PUTERR);
     2052    13933    4                       CASE( %KQPE_NOMBLK#);
     2053    13934    5                           DO INHIBIT;
     2054    13935    5                               NK$LDCT.DFLG.PPND = '0'B;
     2055    13936    5                               NK$LDCT.IP$ = ADDR( NIL);
     2056    13937    5                               END;
     2057    13938    4                           K$RWPARM.ERR = %K$DEFER_IO;
     2058    13939    4                           GOTO GETOUT;
     2059    13940    4                       CASE( %KQPE_NOBUF#);
     2060    13941    4                           K$RWPARM.ERR = %K$WAIT_READ;
     2061    13942    4                           GOTO GETOUT;
     2062    13943    4                       CASE( %KQPE_QFUL#);
     2063    13944    5                           DO INHIBIT;
     2064    13945    5                               NK$LDCT.DFLG.PPND = '0'B;
     2065    13946    5                               NK$LDCT.IP$ = ADDR( NIL);
     2066    13947    5                               END;
     2067    13948                                /*N* This just drops the message on the floor! */
     2068    13949    4                       CASE( ELSE);
     2069    13950                                /* we're in deep yogurt indeed... */
     2070    13951    4                           CALL SC_PRTCL_SCREECH;
     2071    13952    4                       END;
PL6.E3A0      #009=KIS$OSI_RECV File=KIS$OSI.:E05TSI                             WED 07/30/97 00:45 Page:297
     2072    13953    3                   END;
     2073    13954    2               IF K$RWPARM.FUNCTION = %K_TFLOW_STOP THEN
     2074    13955    2                   NK$LDCT.LKFLG.OBLK = '1'B;
     2075    13956    2               IF K$RWPARM.FUNCTION = %K_TFLOW_START THEN
     2076    13957    2                   NK$LDCT.LKFLG.OBLK = '0'B;
     2077    13958                    /* re-issue the GET */
     2078    13959    3               IF NOT NK$LDCT.LKFLG.OBLK THEN DO;
     2079    13960    3                   RWPARM = K_RWPARM_CON;
     2080    13961    3                   CALL KQG$GET( NK$LDCT, RWPARM)
     2081    13962    4                   WHENALTRETURN DO;
     2082    13963                            /* well geez, this is unexpected */
     2083    13964    4                       CALL SC_PRTCL_SCREECH;
     2084    13965    4                       END;
     2085    13966    3                   END;
     2086    13967    2           CASE( ELSE);
     2087    13968                    /* something's fouled up.. bad RESCOD */
     2088    13969    2               CALL SC_PRTCL_SCREECH;
     2089    13970    2           END;
     2090    13971    1   DONE:
     2091    13972    1       IF K$RWPARM.FUNCTION = %K_TDISCONNECT_IND THEN
     2092    13973                /* we've successfully delivered a T-DISCONNECT Indication,
     2093    13974                   so mark this slot free */
     2094    13975    1           MINOR$->APPL.TCTX = 0;
     2095    13976    1       IF SQUIRRELED THEN
     2096    13977                /* restore squirreled-away bytes */
     2097    13978    1           K$RWPARM.MSG$->SAFEBYTES = SAFE;
     2098    13979    1       RETURN;
     2099    13980    1   GETOUT:
     2100    13981    1       IF SQUIRRELED THEN
     2101    13982                /* restore squirreled-away bytes */
     2102    13983    1           K$RWPARM.MSG$->SAFEBYTES = SAFE;
     2103    13984    1       ALTRETURN;
     2104    13985
     2105    13986    1       END KIS$OSI_RECV;

PL6.E3A0      #009=KIS$OSI_RECV File=KIS$OSI.:E05TSI                             WED 07/30/97 00:45 Page:298
--  Include file information  --

   F$DCB.:E05TOU  is referenced.
   SS_SCHED_C.:E05TOU  is referenced.
   NK$LDCT.:E05TOU  is referenced.
   NK_SUBS.:E05TOU  is referenced.
   NK_LDCT_R.:E05TOU  cannot be made into a system file and is referenced.
   K$RWPARM.:E05TOU  is referenced.
   K_TRANSPORT_E.:E05TOU  is referenced.
   K_SUBS_C.:E05TOU  is referenced.
   K_SESSION_M.:E05TOU  is referenced.
   KQ_SUBS_C.:E05TOU  is referenced.
   KI_MACROS_C.:E05TOU  is referenced.
   K_INTERFACE_M.:E05TOU  is referenced.
   K_ADDRESS_M.:E05TOU  is referenced.
   KI$MHDR.:E05TOU  is referenced.
   HF_LOCK_C.:E05TOU  cannot be made into a system file and is referenced.
   CP_6_SUBS.:E05TOU  is referenced.
   CP_6_C.:E05TOU  is referenced.
   CP_6.:E05TOU  cannot be made into a system file and is referenced.
   B_STRINGS_C.:E05TOU  is referenced.
   B_SEGIDS_C.:E05TOU  is referenced.
   B$USER.:E05TOU  cannot be made into a system file and is referenced.
      No diagnostics issued in procedure KIS$OSI_RECV.

   Procedure KIS$OSI_RECV requires 565 words for executable code.
   Procedure KIS$OSI_RECV requires 120 words of local(AUTO) storage.

    No errors detected in file KIS$OSI.:E05TSI    .

PL6.E3A0      #009=KIS$OSI_RECV File=KIS$OSI.:E05TSI                             WED 07/30/97 00:45 Page:299

 Object Unit name= KIS$OSI_RECV                               File name= KIS$OSI.:E05TOU
 UTS= JUL 30 '97 00:45:19.84 WED                              Compiler= PL-6/E31         Sev=      00
 SharedLib= :SHARED_SYSTEM                                    Alt SharedLib=


    ****  Control sections  ****

 Sect   Type Bound  Init  Size OctSiz  Section name(segment info)
    0   DCB   even  none     0      0  M$UC
    1  RoData even  UTS      3      3  KIS$OSI_RECV
    2   Proc  even  none   565   1065  KIS$OSI_RECV
    3  RoData even  none     7      7  KIS$OSI_RECV

    ****  Entry defs  ****

                              Check   Calling
                             calling  sequence
  Sect OctLoc Primary Altret sequence   type   Parms  Name
     2      0   yes    yes     yes      Std        1  KIS$OSI_RECV

  ****  Entry refs  ****

         Check        Calling
        calling       sequence
Altret sequence SRef   type   Args  Name
         yes           Std       1 HFC$LOCK
         yes           Std       1 HFC$UNLOCK
 yes     yes           Std       2 KQG$GET
 yes     yes           Std       1 KIT$SEND
         yes           Std       2 KIA$COMP
 yes     yes           Std       1 KQG$CANCEL
 yes     yes           Std       2 KQP$PUT
         yes           Std       4 SSR$RUE
                       nStd      0 X66_AUTO_1
                       Std       0 B_CONSPOOL_D
                       nStd      0 X66_ARET
                       nStd      0 X66_AALT
PL6.E3A0      #009=KIS$OSI_RECV File=KIS$OSI.:E05TSI                             WED 07/30/97 00:45 Page:300

  ****  Data refs  ****

  Flags:  r = read only, s = secondary
Flgs Name                             Flgs Name                             Flgs Name
     SC_PRTCL_SNAP                         SC_WRONGLDCT                          SC_PRTCL_SCREECH
     M$UC                             r    K_RWPARM_CON                          N$DCT$$
     B$USRT$                               KIS_MAJOR$                            KIS_MINOR$
     KIS_OSILOCK                           KIS_SSN_MAXMAJOR                      KIS_SSN_MAXMINOR
     KIS_SSN_SERVERS                       K_SC_USER$                            B_VECTNIL

  ****  Segment refs  ****

  Flags:  r = read only, s = secondary
Flgs Name                             Flgs Name                             Flgs Name
     ASLENTSID                             ISSID
PL6.E3A0      #009=KIS$OSI_RECV File=KIS$OSI.:E05TSI                             WED 07/30/97 00:45 Page:301


     1665        1        /*T***********************************************************/
     1666        2        /*T*                                                         */
     1667        3        /*T* Copyright (c) Bull HN Information Systems Inc., 1997    */
     1668        4        /*T*                                                         */
     1669        5        /*T***********************************************************/
     1670        6        /*F*    NAME:   KIS$OSI_RECV
     1671        7                PURPOSE:  Field incoming message to OSI Session application.
     1672        8        */
     1673        9        /*D*    NAME:   KIS$OSI_RECV
     1674       10                CALL:   CALL KIS$OSI_RECV( K$RWPARM) ALTRET( label);
     1675       11                INPUT:
     1676       12                    K$RWPARM.SHDR$ points at the SPDU.
     1677       13                    K$RWPARM.SHDRSZ says how long the SPDU is.
     1678       14                    K$RWPARM.FUNCTION says what Transport indication/confirm it is.
     1679       15                    K$RWPARM.TCTX$ points to Transport context for this connection.
     1680       16                OUTPUT:
     1681       17                    On successful call,
     1682       18                      TBD.
     1683       19                    On unsuccessful call,
     1684       20                      K$RWPARM.ERR is filled in with the appropriate error,
     1685       21                      ALTRETURN is taken.
     1686       22                DESCRIPTION:
     1687       23                    KIS$OSI_RECV is called at interrupt by the host Transport layer
     1688       24                    when an incoming message has been received.  Incoming messages
     1689       25                    for both clients and servers are handled here.
     1690       26
     1691       27                    The application the message is destined for is identified by the
     1692       28                    major+minor SCID lifted from the Transport context.  The major
     1693       29                    SCID indicates a particular major slot which among other things
     1694       30                    identifies the LDCT for the application.  The RESCOD of this LDCT
     1695       31                    tells whether the message is for a server or a client.
     1696       32
     1697       33                    The Transport function code is inspected to figure out what to
     1698       34                    hand to the application.  If T-DATA or T-EXPEDITED-DATA then we
     1699       35                    just pass the accompanying Session PDU on.  Otherwise, we have
     1700       36                    to construct a Transport FPT and pass it on.  In this case, what's
PL6.E3A0      #009=KIS$OSI_RECV File=KIS$OSI.:E05TSI                             WED 07/30/97 00:45 Page:302
     1701       37                    passed on is in an AUTO buffer rather than what was given to us
     1702       38                    by Transport.
     1703       39
     1704       40                    If the message is for a server then we just act as though we're
     1705       41                    a FEP-connected terminal station and call KQP$PUT to transfer
     1706       42                    the message from the ICQ into the server comgroup, directed at
     1707       43                    the AU DCB station.
     1708       44
     1709       45                    If the message is for a client, then either he's blocked waiting
     1710       46                    for an incoming message or he isn't (determined by the WAIT flag
     1711       47                    on the last M$READ issued on the NC DCB).  If blocked, we wake
     1712       48                    him up, satisfying his M$READ.  If not blocked, we queue an event
     1713       49                    for him.
     1714       50        */
     1715       51        KIS$OSI_RECV: PROC( K$RWPARM) ALTRET;

     51  2 000000   000000 700200 xent  KIS$OSI_RECV TSX0  ! X66_AUTO_1
         2 000001   000170 000001                    ZERO    120,1

     1716       52        %INCLUDE B$USER;
     1717      268        %INCLUDE B_SEGIDS_C;
     1718      807        %INCLUDE B_STRINGS_C;
     1719      936        %INCLUDE CP_6;
     1720     6495            %B$NWIO( NAME=NWIO, STCLASS=AUTO, PARONLY=1);
     1721     6576            %SUB_EXC;
     1722     6623        %INCLUDE CP_6_SUBS;
     1723     7163        %INCLUDE HF_LOCK_C;
     1724     7177        %INCLUDE KI$MHDR;
     1725     7318            %KI$QMHDR;
     1726     7367        %INCLUDE K_ADDRESS_M;
     1727     7870            %K$TSAP( NAME=TSAP, STCLASS=AUTO);
     1728     7905        %INCLUDE K_INTERFACE_M;
     1729     8314            %K$FPT_CONNECT_OSI;
     1730     8651            %K$FPT_CONNECT_OSI( NAME=TCONFPT, STCLASS="BASED( FPT$)");
     1731     8988            %K$FPT_TERM_OSI;
     1732     9206            %K$FPT_TERM_OSI( NAME=TDISFPT, STCLASS="BASED( FPT$)");
     1733     9424        %INCLUDE KI_MACROS_C;
PL6.E3A0      #009=KIS$OSI_RECV File=KIS$OSI.:E05TSI                             WED 07/30/97 00:45 Page:303
     1734    10032            %KI$TCTX( STCLASS="BASED( K$RWPARM.TCTX$)");
     1735    10590        %INCLUDE KQ_SUBS_C;
     1736    10890        %INCLUDE K_SESSION_M;
     1737    10980            %KIS$APPL( NAME=APPL, STCLASS=BASED);
     1738    11049            %KIS$GLUE( NAME=GLUE, STCLASS="BASED( GLUE$)");
     1739    11079        %INCLUDE K_SUBS_C;
     1740    11112        %INCLUDE K_TRANSPORT_E;
     1741    11437        %INCLUDE K$RWPARM;
     1742    11823            %K$RWPARM( NAME=K$RWPARM, STCLASS="");
     1743    12139            %K$RWPARM( NAME=RWPARM, STCLASS=AUTO);
     1744    12455            %K$RWPARM( NAME=K_RWPARM_CON, STCLASS="SYMREF READONLY");
     1745    12771        %INCLUDE NK_LDCT_R;
     1746    12780        %INCLUDE NK_SUBS;
     1747    12805        %INCLUDE NK$LDCT;
     1748    12907            %NK$LDCT( STCLASS="BASED( LDCT$)");
     1749    12953        %INCLUDE SS_SCHED_C;
     1750    13186        %MACRO F$DCBI( BASED=BASED);
     1751    13187        %INCLUDE F$DCB;
     1752    13236        %MEND;
     1753    13237            %F$DCBI( BASED="BASED( DCB$)");
     1754    13287
     1755    13288    1       DCL KIA$COMP ENTRY(2);
     1756    13289    1       DCL KIT$SEND ENTRY(1) ALTRET;
     1757    13290    1       DCL KQG$CANCEL ENTRY(1) ALTRET;
     1758    13291    1       DCL KQG$GET ENTRY(2) ALTRET;
     1759    13292    1       DCL KQP$PUT ENTRY(2) ALTRET;
     1760    13293    1       DCL SSR$RUE ENTRY(4);
     1761    13294    1       DCL SC_PRTCL_SCREECH ENTRY CONV(2,0);
     1762    13295    1       DCL SC_PRTCL_SNAP ENTRY CONV(2,0);
     1763    13296    1       DCL SC_WRONGLDCT ENTRY CONV(2,0);
     1764    13297
     1765    13298    1       DCL B$USRT$ PTR SYMREF;
     1766    13299    1       DCL KIS_MAJOR$ PTR SYMREF;
     1767    13300    1       DCL KIS_MINOR$ PTR SYMREF;
     1768    13301    1       DCL KIS_OSILOCK BIT(72) SYMREF;
     1769    13302    1       DCL KIS_SSN_MAXMAJOR UBIN SYMREF;
     1770    13303    1       DCL KIS_SSN_MAXMINOR UBIN SYMREF;
PL6.E3A0      #009=KIS$OSI_RECV File=KIS$OSI.:E05TSI                             WED 07/30/97 00:45 Page:304
     1771    13304    1       DCL KIS_SSN_SERVERS UBIN SYMREF;
     1772    13305    1       DCL K_SC_USER$ PTR SYMREF;
     1773    13306
     1774    13307    1       DCL BYTES CHAR( TSAP.LEN) BASED UNAL;
     1775    13308    1       DCL DCB$ PTR;
     1776    13309    1       DCL FPT$ PTR;
     1777    13310    1       DCL 1 GLUEBUF,
     1778    13311    1            2 * UBIN,
     1779    13312                 %K$FPT_CONNECT_OSI( NAME=*, LVL=2, STCLASS=AUTO);
     1780    13649    1       DCL GLUE$ PTR;
     1781    13650    1       DCL I UBIN;
     1782    13651    1       DCL LDCT$ PTR;
     1783    13652    1       DCL LINK SBIN;
     1784    13653    1       DCL MAJOR$ PTR;
     1785    13654    1       DCL MINOR$ PTR;
     1786    13655    1       DCL PUTERR UBIN;
     1787    13656    1       DCL P$ PTR;
     1788    13657    1       DCL PTR$ PTR;
     1789    13658    1       DCL SAFE CHAR(4) UNAL;
     1790    13659    1       DCL SAFEBYTES CHAR(4) BASED CALIGNED;
     1791    13660    1       DCL SCID SBIN;
     1792    13661    1       DCL SERVERAU CHAR(8) CONSTANT INIT( 'SERVER');
     1793    13662    1       DCL SQUIRRELED BIT(1) ALIGNED;
     1794    13663    1       DCL TEMP SBIN;
     1795    13664    1       DCL UBIN9 UBIN(9) BASED CALIGNED;
     1796    13665    1       DCL UBIN36 UBIN(36) BASED ALIGNED;
     1797    13666    1       DCL USRT$ PTR;
     1798    13667
     1799    13668    2       IF K$RWPARM.FUNCTION = %K_TCONNECT_IND THEN DO;

  13668  2 000002   200003 470500                    LDP0    @K$RWPARM,,AUTO
         2 000003   000020 235100                    LDA     16,,PR0
         2 000004   000025 115007                    CMPA    21,DL
         2 000005   000217 601000 2                  TNZ     s:13749

     1800    13669    2           TSAP = KI$TCTX.SSN.DST_TSAP;

PL6.E3A0      #009=KIS$OSI_RECV File=KIS$OSI.:E05TSI                             WED 07/30/97 00:45 Page:305
  13669  2 000006   000017 471500                    LDP1    15,,PR0
         2 000007   000100 100500                    MLR     fill='000'O
         2 000010   100031 000042                    ADSC9   25,,PR1                  cn=0,n=34
         2 000011   200021 000042                    ADSC9   TSAP,,AUTO               cn=0,n=34

     1801    13670    2           SCID = -1;

  13670  2 000012   000001 335007                    LCA     1,DL
         2 000013   200162 755100                    STA     SCID,,AUTO

     1802    13671                /* Determine which application is being called */
     1803    13672                %LOCK( G=KIS_OSILOCK);

  13673  2 000014   000000 630400 3                  EPPR0   0
         2 000015   000017 631400 xsym               EPPR1   B_VECTNIL+15
         2 000016   000000 701000 xent               TSX1    HFC$LOCK
         2 000017   000000 011000                    NOP     0

     1804    13675    2           MAJOR$ = PINCRW( KIS_MAJOR$, 1);

  13675  2 000020   000000 236000 xsym               LDQ     KIS_MAJOR$
         2 000021   000001 036003                    ADLQ    1,DU
         2 000022   200154 756100                    STQ     MAJOR$,,AUTO

     1805    13676    2   MAJOR_LOOP:
     1806    13677    3           DO I = 1 TO KIS_SSN_SERVERS;

  13677  2 000023   000001 235007       MAJOR_LOOP   LDA     1,DL
         2 000024   200151 755100                    STA     I,,AUTO
         2 000025   000057 710000 2                  TRA     s:13687+3

     1807    13678    3               IF MAJOR$->APPL.LDCTX ~= 0 THEN

  13678  2 000026   200154 470500                    LDP0    MAJOR$,,AUTO
         2 000027   000000 220100                    LDX0    0,,PR0
         2 000030   000051 600000 2                  TZE     s:13686

PL6.E3A0      #009=KIS$OSI_RECV File=KIS$OSI.:E05TSI                             WED 07/30/97 00:45 Page:306
     1808    13679    3                   IF MAJOR$->APPL.TSAP.LEN = TSAP.LEN THEN

  13679  2 000031   000001 221100                    LDX1    1,,PR0
         2 000032   200021 101100                    CMPX1   TSAP,,AUTO
         2 000033   000051 601000 2                  TNZ     s:13686

     1809    13680    3                       IF ADDR( MAJOR$->APPL.TSAP.TSAP)->BYTES =

  13680  2 000034   200021 222100                    LDX2    TSAP,,AUTO
         2 000035   040140 106540                    CMPC    fill='040'O
         2 000036   000001 400012                    ADSC9   1,,PR0                   cn=2,n=*X2
         2 000037   200021 400012                    ADSC9   TSAP,,AUTO               cn=2,n=*X2
         2 000040   000051 601000 2                  TNZ     s:13686

     1810    13681    4                               ADDR( TSAP.TSAP)->BYTES THEN DO;

     1811    13682                                /* TSAP matches, so aimed at this application */
     1812    13683    4                           SCID = POFFW( MAJOR$, KIS_MAJOR$);

  13683  2 000041   000000 235000 xsym               LDA     KIS_MAJOR$
         2 000042   000022 771000                    ARL     18
         2 000043   200166 755100                    STA     USRT$+1,,AUTO
         2 000044   200154 236100                    LDQ     MAJOR$,,AUTO
         2 000045   000022 772000                    QRL     18
         2 000046   200166 136100                    SBLQ    USRT$+1,,AUTO
         2 000047   200162 756100                    STQ     SCID,,AUTO

     1813    13684    4                           EXIT MAJOR_LOOP;

  13684  2 000050   000062 710000 2                  TRA     s:13688

     1814    13685    4                           END;
     1815    13686    3               MAJOR$ = PINCRW( MAJOR$, 10);

  13686  2 000051   200154 236100                    LDQ     MAJOR$,,AUTO
         2 000052   000012 036003                    ADLQ    10,DU
         2 000053   200154 756100                    STQ     MAJOR$,,AUTO
PL6.E3A0      #009=KIS$OSI_RECV File=KIS$OSI.:E05TSI                             WED 07/30/97 00:45 Page:307

     1816    13687    3               END;

  13687  2 000054   200151 235100                    LDA     I,,AUTO
         2 000055   000001 035007                    ADLA    1,DL
         2 000056   200151 755100                    STA     I,,AUTO
         2 000057   000000 236000 xsym               LDQ     KIS_SSN_SERVERS
         2 000060   200151 116100                    CMPQ    I,,AUTO
         2 000061   000026 603000 2                  TRC     s:13678

     1817    13688    3           IF SCID ~= -1 THEN DO;

  13688  2 000062   200162 235100                    LDA     SCID,,AUTO
         2 000063   000027 115000 xsym               CMPA    B_VECTNIL+23
         2 000064   000154 600000 2                  TZE     s:13723

     1818    13689    3               TEMP = -1;

  13689  2 000065   000001 336007                    LCQ     1,DL
         2 000066   200164 756100                    STQ     TEMP,,AUTO

     1819    13690                    /* find a free minor server slot for this connection */
     1820    13691    3               PTR$ = MAJOR$;

  13691  2 000067   200154 236100                    LDQ     MAJOR$,,AUTO
         2 000070   200160 756100                    STQ     PTR$,,AUTO

     1821    13692    3               LINK = MAJOR$->APPL.Z.LINK;

  13692  2 000071   200154 470500                    LDP0    MAJOR$,,AUTO
         2 000072   000000 236100                    LDQ     0,,PR0
         2 000073   000777 376007                    ANQ     511,DL
         2 000074   200153 756100                    STQ     LINK,,AUTO

     1822    13693    3   MINOR_LOOP:
     1823    13694    4               DO WHILE( LINK ~= 0);

PL6.E3A0      #009=KIS$OSI_RECV File=KIS$OSI.:E05TSI                             WED 07/30/97 00:45 Page:308
  13694  2 000075   000115 600000 2     MINOR_LOOP   TZE     s:13704

     1824    13695                        /* see if an unused link on this server's chain can be used */
     1825    13696    4                   PTR$ = PINCRW( KIS_MINOR$, LINK);

  13696  2 000076   200153 236100                    LDQ     LINK,,AUTO
         2 000077   000022 736000                    QLS     18
         2 000100   000000 036000 xsym               ADLQ    KIS_MINOR$
         2 000101   200160 756100                    STQ     PTR$,,AUTO

     1826    13697    5                   IF PTR$->APPL.TCTX = 0 THEN DO;

  13697  2 000102   200160 470500                    LDP0    PTR$,,AUTO
         2 000103   000000 220100                    LDX0    0,,PR0
         2 000104   000111 601000 2                  TNZ     s:13702

     1827    13698    5                       TEMP = LINK;

  13698  2 000105   200153 235100                    LDA     LINK,,AUTO
         2 000106   200164 755100                    STA     TEMP,,AUTO

     1828    13699    5                       MINOR$ = PTR$;

  13699  2 000107   200155 756100                    STQ     MINOR$,,AUTO

     1829    13700    5                       EXIT MINOR_LOOP;

  13700  2 000110   000115 710000 2                  TRA     s:13704

     1830    13701    5                       END;
     1831    13702    4                   LINK = PTR$->APPL.Z.LINK;

  13702  2 000111   000000 236100                    LDQ     0,,PR0
         2 000112   000777 376007                    ANQ     511,DL
         2 000113   200153 756100                    STQ     LINK,,AUTO

     1832    13703    4                   END;
PL6.E3A0      #009=KIS$OSI_RECV File=KIS$OSI.:E05TSI                             WED 07/30/97 00:45 Page:309

  13703  2 000114   000076 601000 2                  TNZ     s:13696

     1833    13704    4               IF TEMP = -1 THEN DO;

  13704  2 000115   200164 235100                    LDA     TEMP,,AUTO
         2 000116   000027 115000 xsym               CMPA    B_VECTNIL+23
         2 000117   000135 601000 2                  TNZ     s:13714

     1834    13705                        /* nope.. have to allocate a new minor server slot */
     1835    13706    4                   LINK = KIS_MINOR$->APPL.Z.LINK;

  13706  2 000120   000000 470400 xsym               LDP0    KIS_MINOR$
         2 000121   000000 236100                    LDQ     0,,PR0
         2 000122   000777 376007                    ANQ     511,DL
         2 000123   200153 756100                    STQ     LINK,,AUTO

     1836    13707    5                   IF LINK ~= 0 THEN DO;

  13707  2 000124   000135 600000 2                  TZE     s:13714

     1837    13708                            /* o.k. there is one available */
     1838    13709    5                       MINOR$ = PINCRW( KIS_MINOR$, LINK);

  13709  2 000125   000022 736000                    QLS     18
         2 000126   000000 036000 xsym               ADLQ    KIS_MINOR$
         2 000127   200155 756100                    STQ     MINOR$,,AUTO

     1839    13710    5                       KIS_MINOR$->APPL.Z.LINK = MINOR$->APPL.Z.LINK;

  13710  2 000130   200155 471500                    LDP1    MINOR$,,AUTO
         2 000131   100000 236100                    LDQ     0,,PR1
         2 000132   000000 552104                    STBQ    0,'04'O,PR0

     1840    13711    5                       TEMP = LINK;

  13711  2 000133   200153 236100                    LDQ     LINK,,AUTO
PL6.E3A0      #009=KIS$OSI_RECV File=KIS$OSI.:E05TSI                             WED 07/30/97 00:45 Page:310
         2 000134   200164 756100                    STQ     TEMP,,AUTO

     1841    13712    5                       END;

     1842    13713    4                   END;

     1843    13714    4               IF TEMP ~= -1 THEN DO;

  13714  2 000135   200164 235100                    LDA     TEMP,,AUTO
         2 000136   000027 115000 xsym               CMPA    B_VECTNIL+23
         2 000137   000154 600000 2                  TZE     s:13723

     1844    13715                        /* we found one somewhere... */
     1845    13716    4                   MINOR$->APPL.TCTX = K$RWPARM.TCTX#;

  13716  2 000140   200003 470500                    LDP0    @K$RWPARM,,AUTO
         2 000141   000033 220100                    LDX0    27,,PR0
         2 000142   200155 471500                    LDP1    MINOR$,,AUTO
         2 000143   100000 740100                    STX0    0,,PR1

     1846    13717    4                   MINOR$->APPL.Z.LINK = 0;

  13717  2 000144   000000 236003                    LDQ     0,DU
         2 000145   100000 552104                    STBQ    0,'04'O,PR1

     1847    13718    4                   IF PTR$ ~= MINOR$ THEN

  13718  2 000146   200160 236100                    LDQ     PTR$,,AUTO
         2 000147   200155 116100                    CMPQ    MINOR$,,AUTO
         2 000150   000154 600000 2                  TZE     s:13723

     1848    13719    4                       PTR$->APPL.Z.LINK = LINK;  /* append to chain */

  13719  2 000151   200160 473500                    LDP3    PTR$,,AUTO
         2 000152   200153 236100                    LDQ     LINK,,AUTO
         2 000153   300000 552104                    STBQ    0,'04'O,PR3

PL6.E3A0      #009=KIS$OSI_RECV File=KIS$OSI.:E05TSI                             WED 07/30/97 00:45 Page:311
     1849    13720    4                   END;

     1850    13721    3               END;

     1851    13722                %UNLOCK( G=KIS_OSILOCK);

  13723  2 000154   000000 630400 3                  EPPR0   0
         2 000155   000017 631400 xsym               EPPR1   B_VECTNIL+15
         2 000156   000000 701000 xent               TSX1    HFC$UNLOCK
         2 000157   000000 011000                    NOP     0

     1852    13725    3           IF SCID = -1 OR TEMP = -1 THEN DO;

  13725  2 000160   200162 235100                    LDA     SCID,,AUTO
         2 000161   000027 115000 xsym               CMPA    B_VECTNIL+23
         2 000162   000166 600000 2                  TZE     s:13727
         2 000163   200164 236100                    LDQ     TEMP,,AUTO
         2 000164   000027 116000 xsym               CMPQ    B_VECTNIL+23
         2 000165   000215 601000 2                  TNZ     s:13745

     1853    13726                    /* refuse this connection */
     1854    13727    3               IF SCID = -1 THEN

  13727  2 000166   000027 115000 xsym               CMPA    B_VECTNIL+23
         2 000167   000174 601000 2                  TNZ     s:13730

     1855    13728    3                   K$RWPARM.ERR = %K_REASON_ADDRESS_UNKNOWN;

  13728  2 000170   000003 236007                    LDQ     3,DL
         2 000171   200003 470500                    LDP0    @K$RWPARM,,AUTO
         2 000172   000013 756100                    STQ     11,,PR0
         2 000173   000202 710000 2                  TRA     SEND_DISCONNECT

     1856    13729    3               ELSE
     1857    13730    3                   IF TEMP = -1 THEN

  13730  2 000174   200164 236100                    LDQ     TEMP,,AUTO
PL6.E3A0      #009=KIS$OSI_RECV File=KIS$OSI.:E05TSI                             WED 07/30/97 00:45 Page:312
         2 000175   000027 116000 xsym               CMPQ    B_VECTNIL+23
         2 000176   000202 601000 2                  TNZ     SEND_DISCONNECT

     1858    13731    3                       K$RWPARM.ERR = %K_REASON_CONGESTION;

  13731  2 000177   000001 235007                    LDA     1,DL
         2 000200   200003 470500                    LDP0    @K$RWPARM,,AUTO
         2 000201   000013 755100                    STA     11,,PR0

     1859    13732    3   SEND_DISCONNECT:
     1860    13733    3               K$RWPARM.FUNCTION = %K_TDISCONNECT_REQ;

  13733  2 000202   000031 235007       SEND_DISCON* LDA     25,DL
         2 000203   200003 470500                    LDP0    @K$RWPARM,,AUTO
         2 000204   000020 755100                    STA     16,,PR0

     1861    13734                    /* have Transport disconnect this guy; no FPT used */
     1862    13735                    /* K$RWPARM.TCTX# still valid */
     1863    13736    3               CALL KIT$SEND( K$RWPARM)

  13736  2 000205   200003 630500                    EPPR0   @K$RWPARM,,AUTO
         2 000206   000017 631400 xsym               EPPR1   B_VECTNIL+15
         2 000207   000000 701000 xent               TSX1    KIT$SEND
         2 000210   000212 702000 2                  TSX2    s:13739
         2 000211   000214 710000 2                  TRA     s:13742

     1864    13737    4               WHENALTRETURN DO;

     1865    13738                        /* Transport has filled in K$RWPARM.ERR */
     1866    13739    4                   CALL SC_PRTCL_SNAP;

  13739  2 000212   000000 713400 xsym               CLIMB   SC_PRTCL_SNAP
         2 000213   000000 600000 xsid               climb   nvectors=         0

     1867    13740    4                   END;

     1868    13741                    /* We're done here */
PL6.E3A0      #009=KIS$OSI_RECV File=KIS$OSI.:E05TSI                             WED 07/30/97 00:45 Page:313
     1869    13742    3               RETURN;

  13742  2 000214   000000 702200 xent               TSX2  ! X66_ARET

     1870    13743    3               END;
     1871    13744                /* otherwise, we now have a new minor SCID */
     1872    13745    2           I = TEMP;

  13745  2 000215   200151 756100                    STQ     I,,AUTO

     1873    13746    2           END;

  13746  2 000216   000261 710000 2                  TRA     s:13773

     1874    13747    2       ELSE DO;

     1875    13748                /* Not a connect; determine who this msg is destined for */
     1876    13749    2           SCID = KI$TCTX.SSN.SCID / 512;

  13749  2 000217   000017 471500                    LDP1    15,,PR0
         2 000220   100017 236100                    LDQ     15,,PR1
         2 000221   001000 506007                    DIV     512,DL
         2 000222   200162 756100                    STQ     SCID,,AUTO

     1877    13750    3           IF SCID > KIS_SSN_MAXMAJOR THEN DO;

  13750  2 000223   000000 116003                    CMPQ    0,DU
         2 000224   000233 604000 2                  TMI     s:13756
         2 000225   000000 116000 xsym               CMPQ    KIS_SSN_MAXMAJOR
         2 000226   000233 602000 2                  TNC     s:13756
         2 000227   000233 600000 2                  TZE     s:13756

     1878    13751                    /* no way can this be a legal SCID */
     1879    13752    3   SNAP:
     1880    13753    3               CALL SC_PRTCL_SNAP;

  13753  2 000230   000000 713400 xsym  SNAP         CLIMB   SC_PRTCL_SNAP
PL6.E3A0      #009=KIS$OSI_RECV File=KIS$OSI.:E05TSI                             WED 07/30/97 00:45 Page:314
         2 000231   000000 600000 xsid               climb   nvectors=         0

     1881    13754    3               RETURN;

  13754  2 000232   000000 702200 xent               TSX2  ! X66_ARET

     1882    13755    3               END;
     1883    13756    2           MAJOR$ = PINCRW( KIS_MAJOR$, SCID);

  13756  2 000233   000022 736000                    QLS     18
         2 000234   000000 036000 xsym               ADLQ    KIS_MAJOR$
         2 000235   200154 756100                    STQ     MAJOR$,,AUTO

     1884    13757    2           I = MOD( KI$TCTX.SSN.SCID, 512);

  13757  2 000236   100017 236100                    LDQ     15,,PR1
         2 000237   001000 506007                    DIV     512,DL
         2 000240   200151 755100                    STA     I,,AUTO

     1885    13758    3           IF I > KIS_SSN_MAXMINOR THEN DO;

  13758  2 000241   000000 236000 xsym               LDQ     KIS_SSN_MAXMINOR
         2 000242   200151 116100                    CMPQ    I,,AUTO
         2 000243   000245 603000 2                  TRC     s:13763

     1886    13759                    /* no way can this be a legal SCID */
     1887    13760    3               GOTO SNAP;

  13760  2 000244   000230 710000 2                  TRA     SNAP

     1888    13761    3               END;
     1889    13762                /* consistency check... */
     1890    13763    2           MINOR$ = PINCRW( KIS_MINOR$, I);

  13763  2 000245   200151 236100                    LDQ     I,,AUTO
         2 000246   000022 736000                    QLS     18
         2 000247   000000 036000 xsym               ADLQ    KIS_MINOR$
PL6.E3A0      #009=KIS$OSI_RECV File=KIS$OSI.:E05TSI                             WED 07/30/97 00:45 Page:315
         2 000250   200155 756100                    STQ     MINOR$,,AUTO

     1891    13764    3           IF MINOR$->APPL.TCTX = 0 THEN DO;

  13764  2 000251   200155 473500                    LDP3    MINOR$,,AUTO
         2 000252   300000 220100                    LDX0    0,,PR3
         2 000253   000261 601000 2                  TNZ     s:13773

     1892    13765                    /* Session thinks this slot was disconnected */
     1893    13766    3               IF K$RWPARM.FUNCTION = %K_TDISCONNECT_IND THEN

  13766  2 000254   000020 235100                    LDA     16,,PR0
         2 000255   000031 115007                    CMPA    25,DL
         2 000256   000260 601000 2                  TNZ     s:13769

     1894    13767                        /* that's fine.. so does Transport */
     1895    13768    3                   RETURN;

  13768  2 000257   000000 702200 xent               TSX2  ! X66_ARET

     1896    13769    3               GOTO SNAP;

  13769  2 000260   000230 710000 2                  TRA     SNAP

     1897    13770    3               END;
     1898    13771    2           END;
     1899    13772            /* point at the GLUE and the TFPT/SPDU */
     1900    13773    1       GLUE$ = ADDR( GLUEBUF);

  13773  2 000261   200104 630500                    EPPR0   GLUEBUF,,AUTO
         2 000262   200150 450500                    STP0    GLUE$,,AUTO

     1901    13774    1       GLUE = '0'B;

  13774  2 000263   000000 450100                    STZ     0,,PR0
         2 000264   000001 450100                    STZ     1,,PR0

PL6.E3A0      #009=KIS$OSI_RECV File=KIS$OSI.:E05TSI                             WED 07/30/97 00:45 Page:316
     1902    13775    1       GLUE.YRSCID = MINOR$->APPL.Z.COOKIE;

  13775  2 000265   200155 471500                    LDP1    MINOR$,,AUTO
         2 000266   100000 236100                    LDQ     0,,PR1
         2 000267   000000 552110                    STBQ    0,'10'O,PR0

     1903    13776    1       GLUE.MAGIC = I;

  13776  2 000270   200151 236100                    LDQ     I,,AUTO
         2 000271   000000 552104                    STBQ    0,'04'O,PR0

     1904    13777    1       GLUE.TRNFNC = K$RWPARM.FUNCTION;

  13777  2 000272   200003 473500                    LDP3    @K$RWPARM,,AUTO
         2 000273   300020 236100                    LDQ     16,,PR3
         2 000274   000022 736000                    QLS     18
         2 000275   000000 552120                    STBQ    0,'20'O,PR0

     1905    13778    1       FPT$ = ADDR( GLUE.DATA);

  13778  2 000276   200150 236100                    LDQ     GLUE$,,AUTO
         2 000277   000001 036003                    ADLQ    1,DU
         2 000300   200103 756100                    STQ     FPT$,,AUTO

     1906    13779    1       SQUIRRELED = '0'B;

  13779  2 000301   200163 450100                    STZ     SQUIRRELED,,AUTO

     1907    13780            /* what kind of Transport function is this? */
     1908    13781    2       DO CASE( K$RWPARM.FUNCTION);

  13781  2 000302   300020 235100                    LDA     16,,PR3
         2 000303   000025 135007                    SBLA    21,DL
         2 000304   000010 115007                    CMPA    8,DL
         2 000305   000307 602005 2                  TNC     s:13781+5,AL
         2 000306   000376 710000 2                  TRA     s:13814
         2 000307   000317 710000 2                  TRA     s:13785
PL6.E3A0      #009=KIS$OSI_RECV File=KIS$OSI.:E05TSI                             WED 07/30/97 00:45 Page:317
         2 000310   000317 710000 2                  TRA     s:13785
         2 000311   000351 710000 2                  TRA     s:13800
         2 000312   000351 710000 2                  TRA     s:13800
         2 000313   000331 710000 2                  TRA     s:13791
         2 000314   000401 710000 2                  TRA     s:13821
         2 000315   000371 710000 2                  TRA     s:13811
         2 000316   000371 710000 2                  TRA     s:13811

     1909    13782    2           CASE( %K_TCONNECT_IND,

     1910    13783    2                 %K_TCONNECT_CFM);
     1911    13784                    /* build FPT_CONNECT_OSI from internal Transport context */
     1912    13785    2               TCONFPT = KI$TCTX.SSN;

  13785  2 000317   300017 474500                    LDP4    15,,PR3
         2 000320   200103 475500                    LDP5    FPT$,,AUTO
         2 000321   000100 100500                    MLR     fill='000'O
         2 000322   400012 000214                    ADSC9   10,,PR4                  cn=0,n=140
         2 000323   500000 000214                    ADSC9   0,,PR5                   cn=0,n=140

     1913    13786                    /* this is the message to give to the application */
     1914    13787    2               K$RWPARM.MSG$ = GLUE$;

  13787  2 000324   200150 236100                    LDQ     GLUE$,,AUTO
         2 000325   300000 756100                    STQ     0,,PR3

     1915    13788    2               K$RWPARM.MSGSZ = 4 + SIZEC( K$FPT_CONNECT_OSI);

  13788  2 000326   000220 235007                    LDA     144,DL
         2 000327   300001 755100                    STA     1,,PR3
         2 000330   000401 710000 2                  TRA     s:13821

     1916    13789    2           CASE( %K_TDISCONNECT_IND);

     1917    13790                    /* build FPT_TERM_OSI from internal Transport tables */
     1918    13791    2               TDISFPT.REASON = K$RWPARM.ERR;

PL6.E3A0      #009=KIS$OSI_RECV File=KIS$OSI.:E05TSI                             WED 07/30/97 00:45 Page:318
  13791  2 000331   200103 474500                    LDP4    FPT$,,AUTO
         2 000332   300013 235100                    LDA     11,,PR3
         2 000333   400000 755100                    STA     0,,PR4

     1919    13792    2               TDISFPT.SRC_TSAP = KI$TCTX.SSN.SRC_TSAP;

  13792  2 000334   300017 475500                    LDP5    15,,PR3
         2 000335   000100 100500                    MLR     fill='000'O
         2 000336   500020 000042                    ADSC9   16,,PR5                  cn=0,n=34
         2 000337   400001 000042                    ADSC9   1,,PR4                   cn=0,n=34

     1920    13793    2               TDISFPT.DST_TSAP = KI$TCTX.SSN.DST_TSAP;

  13793  2 000340   300017 475500                    LDP5    15,,PR3
         2 000341   000100 100500                    MLR     fill='000'O
         2 000342   500031 000042                    ADSC9   25,,PR5                  cn=0,n=34
         2 000343   400012 000042                    ADSC9   10,,PR4                  cn=0,n=34

     1921    13794                    /* this is the message to give to the application */
     1922    13795    2               K$RWPARM.MSG$ = GLUE$;

  13795  2 000344   200150 236100                    LDQ     GLUE$,,AUTO
         2 000345   300000 756100                    STQ     0,,PR3

     1923    13796    2               K$RWPARM.MSGSZ = 4 + SIZEC( K$FPT_TERM_OSI);

  13796  2 000346   000174 235007                    LDA     124,DL
         2 000347   300001 755100                    STA     1,,PR3
         2 000350   000401 710000 2                  TRA     s:13821

     1924    13797    2           CASE( %K_TDATA_IND,

     1925    13798    2                 %K_TEXPD_DATA_IND);
     1926    13799                    /* Normal data; just pass the SPDU on to the application */
     1927    13800    2               K$RWPARM.MSG$ = PINCRC( K$RWPARM.SHDR$, -4);

  13800  2 000351   300022 236100                    LDQ     18,,PR3
PL6.E3A0      #009=KIS$OSI_RECV File=KIS$OSI.:E05TSI                             WED 07/30/97 00:45 Page:319
         2 000352   777777 036003                    ADLQ    -1,DU
         2 000353   300000 756100                    STQ     0,,PR3

     1928    13801    2               K$RWPARM.MSGSZ = 4 + K$RWPARM.SHDRSZ;

  13801  2 000354   300023 235100                    LDA     19,,PR3
         2 000355   000004 035007                    ADLA    4,DL
         2 000356   300001 755100                    STA     1,,PR3

     1929    13802                    /* squirrel away the 4 bytes preceding the Session header.. */
     1930    13803    2               SAFE = K$RWPARM.MSG$->SAFEBYTES;

  13803  2 000357   300000 474500                    LDP4    0,,PR3
         2 000360   040100 100500                    MLR     fill='040'O
         2 000361   400000 000004                    ADSC9   0,,PR4                   cn=0,n=4
         2 000362   200161 000004                    ADSC9   SAFE,,AUTO               cn=0,n=4

     1931    13804                    /* ..and replace 'em with the glue */
     1932    13805    2               K$RWPARM.MSG$->SAFEBYTES = GLUE$->SAFEBYTES;

  13805  2 000363   040100 100500                    MLR     fill='040'O
         2 000364   000000 000004                    ADSC9   0,,PR0                   cn=0,n=4
         2 000365   400000 000004                    ADSC9   0,,PR4                   cn=0,n=4

     1933    13806    2               SQUIRRELED = '1'B;

  13806  2 000366   400000 236003                    LDQ     -131072,DU
         2 000367   200163 756100                    STQ     SQUIRRELED,,AUTO
         2 000370   000401 710000 2                  TRA     s:13821

     1934    13807    2           CASE( %K_TCREDIT_ACK);

     1935    13808    2               ;  /* nothing to do, here */
     1936    13809    2           CASE( %K_TFLOW_STOP,

     1937    13810    2                 %K_TFLOW_START);
     1938    13811    2               K$RWPARM.MSG$ = GLUE$;
PL6.E3A0      #009=KIS$OSI_RECV File=KIS$OSI.:E05TSI                             WED 07/30/97 00:45 Page:320

  13811  2 000371   200150 236100                    LDQ     GLUE$,,AUTO
         2 000372   300000 756100                    STQ     0,,PR3

     1939    13812    2               K$RWPARM.MSGSZ = 4;

  13812  2 000373   000004 235007                    LDA     4,DL
         2 000374   300001 755100                    STA     1,,PR3
         2 000375   000401 710000 2                  TRA     s:13821

     1940    13813    2           CASE( ELSE);

     1941    13814    2               CALL SC_PRTCL_SNAP;

  13814  2 000376   000000 713400 xsym               CLIMB   SC_PRTCL_SNAP
         2 000377   000000 600000 xsid               climb   nvectors=         0

     1942    13815    2               RETURN;

  13815  2 000400   000000 702200 xent               TSX2  ! X66_ARET

     1943    13816    2           END;

     1944    13817            /* from here on, the CQ may have been written on as part of the squirrely
     1945    13818               code above.. so we can't just ALTRETURN if things are fouled up, nor
     1946    13819               can we just RETURN when done.  We have to branch to DONE or GETOUT to
     1947    13820               clean up the CQ before RETURNing or ALTRETURNing, respectively. */
     1948    13821    1       K$RWPARM.SHDR$ = ADDR( NIL);

  13821  2 000401   000001 236000 xsym               LDQ     B_VECTNIL+1
         2 000402   300022 756100                    STQ     18,,PR3

     1949    13822    1       K$RWPARM.SHDRSZ = 0;

  13822  2 000403   300023 450100                    STZ     19,,PR3

     1950    13823    1       LDCT$ = NK$LDCT$( MAJOR$->APPL.LDCTX);
PL6.E3A0      #009=KIS$OSI_RECV File=KIS$OSI.:E05TSI                             WED 07/30/97 00:45 Page:321

  13823  2 000404   200154 474500                    LDP4    MAJOR$,,AUTO
         2 000405   400000 220100                    LDX0    0,,PR4
         2 000406   000000 475400 xsym               LDP5    N$DCT$$
         2 000407   500000 236110                    LDQ     0,X0,PR5
         2 000410   200152 756100                    STQ     LDCT$,,AUTO

     1951    13824    2       IF LDCT$ = ADDR( NIL) THEN DO;

  13824  2 000411   000001 116000 xsym               CMPQ    B_VECTNIL+1
         2 000412   000436 601000 2                  TNZ     s:13846

     1952    13825                /* something's fouled up.. OSI LDCT has been released, or worse */
     1953    13826    2   WRONGLDCT:
     1954    13827    2           IF SQUIRRELED THEN

  13827  2 000413   200163 234100       WRONGLDCT    SZN     SQUIRRELED,,AUTO
         2 000414   000422 605000 2                  TPL     s:13831

     1955    13828                    /* restore squirreled-away bytes */
     1956    13829    2               K$RWPARM.MSG$->SAFEBYTES = SAFE;

  13829  2 000415   200003 470500                    LDP0    @K$RWPARM,,AUTO
         2 000416   000000 471500                    LDP1    0,,PR0
         2 000417   040100 100500                    MLR     fill='040'O
         2 000420   200161 000004                    ADSC9   SAFE,,AUTO               cn=0,n=4
         2 000421   100000 000004                    ADSC9   0,,PR1                   cn=0,n=4

     1957    13830                /* save user number of user we want to dump.. */
     1958    13831    2           K_SC_USER$->UBIN9 = MAJOR$->APPL.Z.USER;

  13831  2 000422   200154 470500                    LDP0    MAJOR$,,AUTO
         2 000423   000000 471400 xsym               LDP1    K_SC_USER$
         2 000424   000100 100500                    MLR     fill='000'O
         2 000425   000000 400001                    ADSC9   0,,PR0                   cn=2,n=1
         2 000426   100000 000001                    ADSC9   0,,PR1                   cn=0,n=1

PL6.E3A0      #009=KIS$OSI_RECV File=KIS$OSI.:E05TSI                             WED 07/30/97 00:45 Page:322
     1959    13832                /* ...and screech */
     1960    13833    2           CALL SC_WRONGLDCT;

  13833  2 000427   000000 713400 xsym               CLIMB   SC_WRONGLDCT
         2 000430   000000 600000 xsid               climb   nvectors=         0

     1961    13834                /*S*  SCREECH_CODE:  KIS-S$WRONGLDCT
     1962    13835                      TYPE:          Snap
     1963    13836                      MESSAGE:       LDCT for an OSI Server has been lost.
     1964    13837                      REMARKS:  Whenever a message is received by the Host monitor
     1965    13838                                part of an OSI Session connection, a sanity check is
     1966    13839                                performed.  This ensures that both LDCTs allocated
     1967    13840                                when the server started up, are still around and
     1968    13841                                allocated to the user who started the server.
     1969    13842                */
     1970    13843    2            IF K$RWPARM.FUNCTION = %K_TCONNECT_IND THEN GOTO SEND_DISCONNECT;

  13843  2 000431   200003 470500                    LDP0    @K$RWPARM,,AUTO
         2 000432   000020 235100                    LDA     16,,PR0
         2 000433   000025 115007                    CMPA    21,DL
         2 000434   000202 600000 2                  TZE     SEND_DISCONNECT

     1971    13844    2           RETURN;

  13844  2 000435   000000 702200 xent               TSX2  ! X66_ARET

     1972    13845    2           END;
     1973    13846    1       IF NK$LDCT.USER ~= MAJOR$->APPL.Z.USER THEN

  13846  2 000436   400000 236100                    LDQ     0,,PR4
         2 000437   000011 772000                    QRL     9
         2 000440   000777 376007                    ANQ     511,DL
         2 000441   200166 756100                    STQ     USRT$+1,,AUTO
         2 000442   200152 476500                    LDP6    LDCT$,,AUTO
         2 000443   600007 236100                    LDQ     7,,PR6
         2 000444   000022 772000                    QRL     18
         2 000445   000777 376007                    ANQ     511,DL
PL6.E3A0      #009=KIS$OSI_RECV File=KIS$OSI.:E05TSI                             WED 07/30/97 00:45 Page:323
         2 000446   200166 116100                    CMPQ    USRT$+1,,AUTO
         2 000447   000413 601000 2                  TNZ     WRONGLDCT

     1974    13847    1           GOTO WRONGLDCT;
     1975    13848            /* now switch based on the RESCOD of the LDCT */
     1976    13849    2       DO CASE( NK$LDCT.RESCOD);

  13849  2 000450   600006 236100                    LDQ     6,,PR6
         2 000451   000017 376007                    ANQ     15,DL
         2 000452   000014 136007                    SBLQ    12,DL
         2 000453   000002 116007                    CMPQ    2,DL
         2 000454   000456 602006 2                  TNC     s:13849+6,QL
         2 000455   001035 710000 2                  TRA     s:13969
         2 000456   000460 710000 2                  TRA     s:13853
         2 000457   000623 710000 2                  TRA     s:13888

     1977    13850    2           CASE( %NK_OSIDCB);

     1978    13851                    /* This message is destined for a client application */
     1979    13852                    %LOCK( G=NK$LDCT.LOCK);

  13853  2 000460   200152 236100                    LDQ     LDCT$,,AUTO
         2 000461   000020 036003                    ADLQ    16,DU
         2 000462   200166 756100                    STQ     USRT$+1,,AUTO
         2 000463   200166 630500                    EPPR0   USRT$+1,,AUTO
         2 000464   000017 631400 xsym               EPPR1   B_VECTNIL+15
         2 000465   000000 701000 xent               TSX1    HFC$LOCK
         2 000466   000000 011000                    NOP     0

     1980    13855    3               IF K$RWPARM.FUNCTION = %K_TCREDIT_ACK THEN DO;

  13855  2 000467   200003 470500                    LDP0    @K$RWPARM,,AUTO
         2 000470   000020 235100                    LDA     16,,PR0
         2 000471   000032 115007                    CMPA    26,DL
         2 000472   000516 601000 2                  TNZ     s:13863

     1981    13856    3                   NK$LDCT.LKFLG.WTMRK = '0'B;
PL6.E3A0      #009=KIS$OSI_RECV File=KIS$OSI.:E05TSI                             WED 07/30/97 00:45 Page:324

  13856  2 000473   200152 471500                    LDP1    LDCT$,,AUTO
         2 000474   000001 236000 3                  LDQ     1
         2 000475   100011 356100                    ANSQ    9,,PR1

     1982    13857                        %UNLOCK( G=NK$LDCT.LOCK);

  13858  2 000476   200152 236100                    LDQ     LDCT$,,AUTO
         2 000477   000020 036003                    ADLQ    16,DU
         2 000500   200166 756100                    STQ     USRT$+1,,AUTO
         2 000501   200166 630500                    EPPR0   USRT$+1,,AUTO
         2 000502   000017 631400 xsym               EPPR1   B_VECTNIL+15
         2 000503   000000 701000 xent               TSX1    HFC$UNLOCK
         2 000504   000000 011000                    NOP     0

     1983    13860    3                   CALL SSR$RUE( %SS_CIC, NK$LDCT.USER);

  13860  2 000505   200152 236100                    LDQ     LDCT$,,AUTO
         2 000506   000002 036000 3                  ADLQ    2
         2 000507   000003 235000 3                  LDA     3
         2 000510   200166 757100                    STAQ    USRT$+1,,AUTO
         2 000511   200166 630500                    EPPR0   USRT$+1,,AUTO
         2 000512   000020 631400 xsym               EPPR1   B_VECTNIL+16
         2 000513   000000 701000 xent               TSX1    SSR$RUE
         2 000514   000000 011000                    NOP     0

     1984    13861    3                   RETURN;

  13861  2 000515   000000 702200 xent               TSX2  ! X66_ARET

     1985    13862    3                   END;
     1986    13863    2               IF K$RWPARM.FUNCTION = %K_TFLOW_STOP THEN

  13863  2 000516   000033 115007                    CMPA    27,DL
         2 000517   000523 601000 2                  TNZ     s:13865

     1987    13864    2                   NK$LDCT.LKFLG.OBLK = '1'B;
PL6.E3A0      #009=KIS$OSI_RECV File=KIS$OSI.:E05TSI                             WED 07/30/97 00:45 Page:325

  13864  2 000520   200152 471500                    LDP1    LDCT$,,AUTO
         2 000521   200000 236003                    LDQ     65536,DU
         2 000522   100011 256100                    ORSQ    9,,PR1

     1988    13865    3               IF K$RWPARM.FUNCTION = %K_TFLOW_START THEN DO;

  13865  2 000523   000020 235100                    LDA     16,,PR0
         2 000524   000034 115007                    CMPA    28,DL
         2 000525   000562 601000 2                  TNZ     s:13873

     1989    13866    3                   NK$LDCT.LKFLG.OBLK = '0'B;

  13866  2 000526   200152 471500                    LDP1    LDCT$,,AUTO
         2 000527   000004 236000 3                  LDQ     4
         2 000530   100011 356100                    ANSQ    9,,PR1

     1990    13867    3                   USRT$ = ADDR( B$USRT$->B$USER( NK$LDCT.USER));

  13867  2 000531   100007 236100                    LDQ     7,,PR1
         2 000532   000016 772000                    QRL     14
         2 000533   017760 376007                    ANQ     8176,DL
         2 000534   000022 736000                    QLS     18
         2 000535   000000 036000 xsym               ADLQ    B$USRT$
         2 000536   200165 756100                    STQ     USRT$,,AUTO

     1991    13868    3                   IF USRT$->B$U.FLG & %U_SCIO AND

  13868  2 000537   200165 473500                    LDP3    USRT$,,AUTO
         2 000540   300000 236100                    LDQ     0,,PR3
         2 000541   000002 376000 1                  ANQ     SERVERAU+2
         2 000542   000562 600000 2                  TZE     s:13873
         2 000543   300017 236100                    LDQ     15,,PR3
         2 000544   200152 116100                    CMPQ    LDCT$,,AUTO
         2 000545   000562 601000 2                  TNZ     s:13873
         2 000546   300011 236100                    LDQ     9,,PR3
         2 000547   770000 376003                    ANQ     -4096,DU
PL6.E3A0      #009=KIS$OSI_RECV File=KIS$OSI.:E05TSI                             WED 07/30/97 00:45 Page:326
         2 000550   150000 116003                    CMPQ    53248,DU
         2 000551   000562 601000 2                  TNZ     s:13873

     1992    13869    3                           USRT$->B$U.MISC$ = ADDR( NK$LDCT) AND
     1993    13870    3                           USRT$->B$U.US = %SS_STOB THEN
     1994    13871    3                       CALL SSR$RUE( %SS_CUB, NK$LDCT.USER);

  13871  2 000552   200152 236100                    LDQ     LDCT$,,AUTO
         2 000553   000002 036000 3                  ADLQ    2
         2 000554   000005 235000 3                  LDA     5
         2 000555   200166 757100                    STAQ    USRT$+1,,AUTO
         2 000556   200166 630500                    EPPR0   USRT$+1,,AUTO
         2 000557   000020 631400 xsym               EPPR1   B_VECTNIL+16
         2 000560   000000 701000 xent               TSX1    SSR$RUE
         2 000561   000000 011000                    NOP     0

     1995    13872    3                   END;

     1996    13873    3               IF NK$LDCT.LKFLG.NOWAIT THEN DO;

  13873  2 000562   200152 470500                    LDP0    LDCT$,,AUTO
         2 000563   000011 236100                    LDQ     9,,PR0
         2 000564   000001 316003                    CANQ    1,DU
         2 000565   000605 600000 2                  TZE     s:13881

     1997    13874    3                   CALL KIA$COMP( NK$LDCT, K$RWPARM);

  13874  2 000566   200003 236100                    LDQ     @K$RWPARM,,AUTO
         2 000567   200152 235100                    LDA     LDCT$,,AUTO
         2 000570   200166 757100                    STAQ    USRT$+1,,AUTO
         2 000571   200166 630500                    EPPR0   USRT$+1,,AUTO
         2 000572   000020 631400 xsym               EPPR1   B_VECTNIL+16
         2 000573   000000 701000 xent               TSX1    KIA$COMP
         2 000574   000000 011000                    NOP     0

     1998    13875                        %UNLOCK( G=NK$LDCT.LOCK);

PL6.E3A0      #009=KIS$OSI_RECV File=KIS$OSI.:E05TSI                             WED 07/30/97 00:45 Page:327
  13876  2 000575   200152 236100                    LDQ     LDCT$,,AUTO
         2 000576   000020 036003                    ADLQ    16,DU
         2 000577   200166 756100                    STQ     USRT$+1,,AUTO
         2 000600   200166 630500                    EPPR0   USRT$+1,,AUTO
         2 000601   000017 631400 xsym               EPPR1   B_VECTNIL+15
         2 000602   000000 701000 xent               TSX1    HFC$UNLOCK
         2 000603   000000 011000                    NOP     0

     1999    13878    3                   GOTO DONE;

  13878  2 000604   001037 710000 2                  TRA     DONE

     2000    13879    3                   END;
     2001    13880                    %UNLOCK( G=NK$LDCT.LOCK);

  13881  2 000605   200152 236100                    LDQ     LDCT$,,AUTO
         2 000606   000020 036003                    ADLQ    16,DU
         2 000607   200166 756100                    STQ     USRT$+1,,AUTO
         2 000610   200166 630500                    EPPR0   USRT$+1,,AUTO
         2 000611   000017 631400 xsym               EPPR1   B_VECTNIL+15
         2 000612   000000 701000 xent               TSX1    HFC$UNLOCK
         2 000613   000000 011000                    NOP     0

     2002    13883                    /* there's no read pending for this message! */
     2003    13884    2               IF K$RWPARM.FUNCTION ~= %K_TDISCONNECT_IND THEN

  13884  2 000614   200003 470500                    LDP0    @K$RWPARM,,AUTO
         2 000615   000020 235100                    LDA     16,,PR0
         2 000616   000031 115007                    CMPA    25,DL
         2 000617   001037 600000 2                  TZE     DONE

     2004    13885    2                   CALL SC_PRTCL_SNAP;

  13885  2 000620   000000 713400 xsym               CLIMB   SC_PRTCL_SNAP
         2 000621   000000 600000 xsid               climb   nvectors=         0
         2 000622   001037 710000 2                  TRA     DONE

PL6.E3A0      #009=KIS$OSI_RECV File=KIS$OSI.:E05TSI                             WED 07/30/97 00:45 Page:328
     2005    13886    2           CASE( %NK_OSISTA);

     2006    13887                    /* This message is destined for a server application */
     2007    13888    2               LDCT$ = NK$LDCT$( MAJOR$->APPL.AUDCT);  /* get AU DCB STA ptr */

  13888  2 000623   400011 720100                    LXL0    9,,PR4
         2 000624   500000 236110                    LDQ     0,X0,PR5
         2 000625   200152 756100                    STQ     LDCT$,,AUTO

     2008    13889    2               IF LDCT$ = ADDR( NIL) THEN

  13889  2 000626   000001 116000 xsym               CMPQ    B_VECTNIL+1
         2 000627   000413 600000 2                  TZE     WRONGLDCT

     2009    13890                        /* unable to locate the AU DCB's LDCT */
     2010    13891    2                   GOTO WRONGLDCT;
     2011    13892    2               IF NK$LDCT.USER ~= MAJOR$->APPL.Z.USER THEN

  13892  2 000630   400000 236100                    LDQ     0,,PR4
         2 000631   000011 772000                    QRL     9
         2 000632   000777 376007                    ANQ     511,DL
         2 000633   200166 756100                    STQ     USRT$+1,,AUTO
         2 000634   200152 476500                    LDP6    LDCT$,,AUTO
         2 000635   600007 236100                    LDQ     7,,PR6
         2 000636   000022 772000                    QRL     18
         2 000637   000777 376007                    ANQ     511,DL
         2 000640   200166 116100                    CMPQ    USRT$+1,,AUTO
         2 000641   000413 601000 2                  TNZ     WRONGLDCT

     2012    13893    2                   GOTO WRONGLDCT;
     2013    13894    2               LDCT$ = NK$LDCT$( MAJOR$->APPL.LDCTX);  /* restore OSI STA ptr */

  13894  2 000642   400000 220100                    LDX0    0,,PR4
         2 000643   500000 236110                    LDQ     0,X0,PR5
         2 000644   200152 756100                    STQ     LDCT$,,AUTO

     2014    13895    2               K$RWPARM.STATION = SERVERAU;
PL6.E3A0      #009=KIS$OSI_RECV File=KIS$OSI.:E05TSI                             WED 07/30/97 00:45 Page:329

  13895  2 000645   000000 237000 1                  LDAQ    SERVERAU
         2 000646   300002 757100                    STAQ    2,,PR3

     2015    13896                    /* the following code mimics case KV_VDO_FNC_DAT of KCF$FEIN */
     2016    13897                    /* get ready to stuff the message into the server CG */
     2017    13898    3               IF NK$LDCT.DFLG.PPND THEN DO;

  13898  2 000647   200152 476500                    LDP6    LDCT$,,AUTO
         2 000650   600006 236100                    LDQ     6,,PR6
         2 000651   000040 316007                    CANQ    32,DL
         2 000652   000656 600000 2                  TZE     s:13903

     2018    13899    3                   K$RWPARM.ERR = %K$DEFER_IO;

  13899  2 000653   000003 235007                    LDA     3,DL
         2 000654   300013 755100                    STA     11,,PR3

     2019    13900    3                   GOTO GETOUT;

  13900  2 000655   001055 710000 2                  TRA     GETOUT

     2020    13901    3                   END;
     2021    13902                    /* cancel the GET now in progress, if we can */
     2022    13903    2               IF NOT NK$LDCT.LKFLG.OBLK THEN

  13903  2 000656   600011 236100                    LDQ     9,,PR6
         2 000657   200000 316003                    CANQ    65536,DU
         2 000660   000700 601000 2                  TNZ     s:13915

     2023    13904    2                   CALL KQG$CANCEL( NK$LDCT)

  13904  2 000661   200152 630500                    EPPR0   LDCT$,,AUTO
         2 000662   000017 631400 xsym               EPPR1   B_VECTNIL+15
         2 000663   000000 701000 xent               TSX1    KQG$CANCEL
         2 000664   000666 702000 2                  TSX2    s:13907
         2 000665   000700 710000 2                  TRA     s:13915
PL6.E3A0      #009=KIS$OSI_RECV File=KIS$OSI.:E05TSI                             WED 07/30/97 00:45 Page:330

     2024    13905    3                   WHENALTRETURN DO;

     2025    13906                            /* can't cancel because GET is currently being satisfied */
     2026    13907    3                       IF K$RWPARM.FUNCTION = %K_TCONNECT_IND THEN

  13907  2 000666   200003 470500                    LDP0    @K$RWPARM,,AUTO
         2 000667   000020 235100                    LDA     16,,PR0
         2 000670   000025 115007                    CMPA    21,DL
         2 000671   000675 601000 2                  TNZ     s:13911

     2027    13908                                /* forget the minor SCID we just found */
     2028    13909    3                           MINOR$->APPL.TCTX = 0;

  13909  2 000672   000000 220003                    LDX0    0,DU
         2 000673   200155 471500                    LDP1    MINOR$,,AUTO
         2 000674   100000 740100                    STX0    0,,PR1

     2029    13910                            /* We'll leave this message in CQ and try again later */
     2030    13911    3                       K$RWPARM.ERR = %K$WAIT_READ;

  13911  2 000675   000006 235007                    LDA     6,DL
         2 000676   000013 755100                    STA     11,,PR0

     2031    13912    3                       GOTO GETOUT;

  13912  2 000677   001055 710000 2                  TRA     GETOUT

     2032    13913    3                       END;
     2033    13914                    /* stuff the incoming message into the CG */
     2034    13915    2               NK$LDCT.DFLG.PPND = '1'B;

  13915  2 000700   200152 470500                    LDP0    LDCT$,,AUTO
         2 000701   000040 236007                    LDQ     32,DL
         2 000702   000006 256100                    ORSQ    6,,PR0

     2035    13916    2               IF K$RWPARM.FUNCTION ~= %K_TDISCONNECT_IND THEN
PL6.E3A0      #009=KIS$OSI_RECV File=KIS$OSI.:E05TSI                             WED 07/30/97 00:45 Page:331

  13916  2 000703   200003 471500                    LDP1    @K$RWPARM,,AUTO
         2 000704   100020 235100                    LDA     16,,PR1
         2 000705   000031 115007                    CMPA    25,DL
         2 000706   000714 600000 2                  TZE     s:13918

     2036    13917    2                   NK$LDCT.IPFEI# = K$RWPARM.IP$->KI$QMHDR.FEI#;

  13917  2 000707   100012 473500                    LDP3    10,,PR1
         2 000710   300000 236100                    LDQ     0,,PR3
         2 000711   377000 376003                    ANQ     130560,DU
         2 000712   000022 772000                    QRL     18
         2 000713   000014 552110                    STBQ    12,'10'O,PR0

     2037    13918    2               NK$LDCT.IP$ = K$RWPARM.IP$;

  13918  2 000714   100012 236100                    LDQ     10,,PR1
         2 000715   000013 756100                    STQ     11,,PR0

     2038    13919    2               CALL KQP$PUT( NK$LDCT, K$RWPARM)

  13919  2 000716   200003 236100                    LDQ     @K$RWPARM,,AUTO
         2 000717   200152 235100                    LDA     LDCT$,,AUTO
         2 000720   200166 757100                    STAQ    USRT$+1,,AUTO
         2 000721   200166 630500                    EPPR0   USRT$+1,,AUTO
         2 000722   000020 631400 xsym               EPPR1   B_VECTNIL+16
         2 000723   000000 701000 xent               TSX1    KQP$PUT
         2 000724   000735 702000 2                  TSX2    s:13930

     2039    13920    3               WHENRETURN DO;

     2040    13921                        /* Yay... the PUT worked */
     2041    13922    3                   NK$LDCT.IP$ = ADDR( NIL);

  13922  2 000725   000001 236000 xsym               LDQ     B_VECTNIL+1
         2 000726   200152 470500                    LDP0    LDCT$,,AUTO
         2 000727   000013 756100                    STQ     11,,PR0
PL6.E3A0      #009=KIS$OSI_RECV File=KIS$OSI.:E05TSI                             WED 07/30/97 00:45 Page:332

     2042    13923    4                   DO INHIBIT;

     2043    13924    4                       NK$LDCT.DFLG.PPND = '0'B;

  13924  2 000730   000006 236200 3                  LDQ   ! 6
         2 000731   000006 356300                    ANSQ  ! 6,,PR0

     2044    13925    4                       NK$LDCT.IP$ = ADDR( NIL);

  13925  2 000732   000001 236200 xsym               LDQ   ! B_VECTNIL+1
         2 000733   000013 756300                    STQ   ! 11,,PR0

     2045    13926    4                       END;

     2046    13927    3                   END;

  13927  2 000734   000775 710000 2                  TRA     s:13954

     2047    13928    3               WHENALTRETURN DO;

     2048    13929                        /* Oops.. the PUT failed */
     2049    13930    3                   PUTERR = K$RWPARM.ERR;

  13930  2 000735   200003 470500                    LDP0    @K$RWPARM,,AUTO
         2 000736   000013 235100                    LDA     11,,PR0
         2 000737   200156 755100                    STA     PUTERR,,AUTO

     2050    13931    3                   K$RWPARM.ERR = 0;

  13931  2 000740   000013 450100                    STZ     11,,PR0

     2051    13932    4                   DO CASE( PUTERR);

  13932  2 000741   000006 115007                    CMPA    6,DL
         2 000742   000744 602005 2                  TNC     s:13932+3,AL
         2 000743   000773 710000 2                  TRA     s:13951
PL6.E3A0      #009=KIS$OSI_RECV File=KIS$OSI.:E05TSI                             WED 07/30/97 00:45 Page:333
         2 000744   000773 710000 2                  TRA     s:13951
         2 000745   000752 710000 2                  TRA     s:13935
         2 000746   000762 710000 2                  TRA     s:13941
         2 000747   000773 710000 2                  TRA     s:13951
         2 000750   000773 710000 2                  TRA     s:13951
         2 000751   000765 710000 2                  TRA     s:13945

     2052    13933    4                       CASE( %KQPE_NOMBLK#);

     2053    13934    5                           DO INHIBIT;

     2054    13935    5                               NK$LDCT.DFLG.PPND = '0'B;

  13935  2 000752   200152 471700                    LDP1  ! LDCT$,,AUTO
         2 000753   000006 236200 3                  LDQ   ! 6
         2 000754   100006 356300                    ANSQ  ! 6,,PR1

     2055    13936    5                               NK$LDCT.IP$ = ADDR( NIL);

  13936  2 000755   000001 236200 xsym               LDQ   ! B_VECTNIL+1
         2 000756   100013 756300                    STQ   ! 11,,PR1

     2056    13937    5                               END;

     2057    13938    4                           K$RWPARM.ERR = %K$DEFER_IO;

  13938  2 000757   000003 235007                    LDA     3,DL
         2 000760   000013 755100                    STA     11,,PR0

     2058    13939    4                           GOTO GETOUT;

  13939  2 000761   001055 710000 2                  TRA     GETOUT

     2059    13940    4                       CASE( %KQPE_NOBUF#);

     2060    13941    4                           K$RWPARM.ERR = %K$WAIT_READ;

PL6.E3A0      #009=KIS$OSI_RECV File=KIS$OSI.:E05TSI                             WED 07/30/97 00:45 Page:334
  13941  2 000762   000006 236007                    LDQ     6,DL
         2 000763   000013 756100                    STQ     11,,PR0

     2061    13942    4                           GOTO GETOUT;

  13942  2 000764   001055 710000 2                  TRA     GETOUT

     2062    13943    4                       CASE( %KQPE_QFUL#);

     2063    13944    5                           DO INHIBIT;

     2064    13945    5                               NK$LDCT.DFLG.PPND = '0'B;

  13945  2 000765   200152 471700                    LDP1  ! LDCT$,,AUTO
         2 000766   000006 236200 3                  LDQ   ! 6
         2 000767   100006 356300                    ANSQ  ! 6,,PR1

     2065    13946    5                               NK$LDCT.IP$ = ADDR( NIL);

  13946  2 000770   000001 236200 xsym               LDQ   ! B_VECTNIL+1
         2 000771   100013 756300                    STQ   ! 11,,PR1

     2066    13947    5                               END;

  13947  2 000772   000775 710000 2                  TRA     s:13954

     2067    13948                                /*N* This just drops the message on the floor! */
     2068    13949    4                       CASE( ELSE);

     2069    13950                                /* we're in deep yogurt indeed... */
     2070    13951    4                           CALL SC_PRTCL_SCREECH;

  13951  2 000773   000000 713400 xsym               CLIMB   SC_PRTCL_SCREECH
         2 000774   000000 600000 xsid               climb   nvectors=         0

     2071    13952    4                       END;

PL6.E3A0      #009=KIS$OSI_RECV File=KIS$OSI.:E05TSI                             WED 07/30/97 00:45 Page:335
     2072    13953    3                   END;

     2073    13954    2               IF K$RWPARM.FUNCTION = %K_TFLOW_STOP THEN

  13954  2 000775   200003 470500                    LDP0    @K$RWPARM,,AUTO
         2 000776   000020 235100                    LDA     16,,PR0
         2 000777   000033 115007                    CMPA    27,DL
         2 001000   001004 601000 2                  TNZ     s:13956

     2074    13955    2                   NK$LDCT.LKFLG.OBLK = '1'B;

  13955  2 001001   200152 471500                    LDP1    LDCT$,,AUTO
         2 001002   200000 236003                    LDQ     65536,DU
         2 001003   100011 256100                    ORSQ    9,,PR1

     2075    13956    2               IF K$RWPARM.FUNCTION = %K_TFLOW_START THEN

  13956  2 001004   000020 235100                    LDA     16,,PR0
         2 001005   000034 115007                    CMPA    28,DL
         2 001006   001012 601000 2                  TNZ     s:13959

     2076    13957    2                   NK$LDCT.LKFLG.OBLK = '0'B;

  13957  2 001007   200152 471500                    LDP1    LDCT$,,AUTO
         2 001010   000004 236000 3                  LDQ     4
         2 001011   100011 356100                    ANSQ    9,,PR1

     2077    13958                    /* re-issue the GET */
     2078    13959    3               IF NOT NK$LDCT.LKFLG.OBLK THEN DO;

  13959  2 001012   200152 471500                    LDP1    LDCT$,,AUTO
         2 001013   100011 236100                    LDQ     9,,PR1
         2 001014   200000 316003                    CANQ    65536,DU
         2 001015   001037 601000 2                  TNZ     DONE

     2079    13960    3                   RWPARM = K_RWPARM_CON;

PL6.E3A0      #009=KIS$OSI_RECV File=KIS$OSI.:E05TSI                             WED 07/30/97 00:45 Page:336
  13960  2 001016   000100 100400                    MLR     fill='000'O
         2 001017   000000 000234 xsym               ADSC9   K_RWPARM_CON             cn=0,n=156
         2 001020   200032 000234                    ADSC9   RWPARM,,AUTO             cn=0,n=156

     2080    13961    3                   CALL KQG$GET( NK$LDCT, RWPARM)

  13961  2 001021   200032 633500                    EPPR3   RWPARM,,AUTO
         2 001022   200167 453500                    STP3    USRT$+2,,AUTO
         2 001023   200152 236100                    LDQ     LDCT$,,AUTO
         2 001024   200166 756100                    STQ     USRT$+1,,AUTO
         2 001025   200166 630500                    EPPR0   USRT$+1,,AUTO
         2 001026   000020 631400 xsym               EPPR1   B_VECTNIL+16
         2 001027   000000 701000 xent               TSX1    KQG$GET
         2 001030   001032 702000 2                  TSX2    s:13964
         2 001031   001034 710000 2                  TRA     s:13966

     2081    13962    4                   WHENALTRETURN DO;

     2082    13963                            /* well geez, this is unexpected */
     2083    13964    4                       CALL SC_PRTCL_SCREECH;

  13964  2 001032   000000 713400 xsym               CLIMB   SC_PRTCL_SCREECH
         2 001033   000000 600000 xsid               climb   nvectors=         0

     2084    13965    4                       END;

     2085    13966    3                   END;

  13966  2 001034   001037 710000 2                  TRA     DONE

     2086    13967    2           CASE( ELSE);

     2087    13968                    /* something's fouled up.. bad RESCOD */
     2088    13969    2               CALL SC_PRTCL_SCREECH;

  13969  2 001035   000000 713400 xsym               CLIMB   SC_PRTCL_SCREECH
         2 001036   000000 600000 xsid               climb   nvectors=         0
PL6.E3A0      #009=KIS$OSI_RECV File=KIS$OSI.:E05TSI                             WED 07/30/97 00:45 Page:337

     2089    13970    2           END;

     2090    13971    1   DONE:
     2091    13972    1       IF K$RWPARM.FUNCTION = %K_TDISCONNECT_IND THEN

  13972  2 001037   200003 470500       DONE         LDP0    @K$RWPARM,,AUTO
         2 001040   000020 235100                    LDA     16,,PR0
         2 001041   000031 115007                    CMPA    25,DL
         2 001042   001046 601000 2                  TNZ     s:13976

     2092    13973                /* we've successfully delivered a T-DISCONNECT Indication,
     2093    13974                   so mark this slot free */
     2094    13975    1           MINOR$->APPL.TCTX = 0;

  13975  2 001043   000000 220003                    LDX0    0,DU
         2 001044   200155 471500                    LDP1    MINOR$,,AUTO
         2 001045   100000 740100                    STX0    0,,PR1

     2095    13976    1       IF SQUIRRELED THEN

  13976  2 001046   200163 234100                    SZN     SQUIRRELED,,AUTO
         2 001047   001054 605000 2                  TPL     s:13979

     2096    13977                /* restore squirreled-away bytes */
     2097    13978    1           K$RWPARM.MSG$->SAFEBYTES = SAFE;

  13978  2 001050   000000 471500                    LDP1    0,,PR0
         2 001051   040100 100500                    MLR     fill='040'O
         2 001052   200161 000004                    ADSC9   SAFE,,AUTO               cn=0,n=4
         2 001053   100000 000004                    ADSC9   0,,PR1                   cn=0,n=4

     2098    13979    1       RETURN;

  13979  2 001054   000000 702200 xent               TSX2  ! X66_ARET

     2099    13980    1   GETOUT:
PL6.E3A0      #009=KIS$OSI_RECV File=KIS$OSI.:E05TSI                             WED 07/30/97 00:45 Page:338
     2100    13981    1       IF SQUIRRELED THEN

  13981  2 001055   200163 234100       GETOUT       SZN     SQUIRRELED,,AUTO
         2 001056   001064 605000 2                  TPL     s:13984

     2101    13982                /* restore squirreled-away bytes */
     2102    13983    1           K$RWPARM.MSG$->SAFEBYTES = SAFE;

  13983  2 001057   200003 470500                    LDP0    @K$RWPARM,,AUTO
         2 001060   000000 471500                    LDP1    0,,PR0
         2 001061   040100 100500                    MLR     fill='040'O
         2 001062   200161 000004                    ADSC9   SAFE,,AUTO               cn=0,n=4
         2 001063   100000 000004                    ADSC9   0,,PR1                   cn=0,n=4

     2103    13984    1       ALTRETURN;

  13984  2 001064   000000 702200 xent               TSX2  ! X66_AALT

SERVERAU
 Sect OctLoc
   1     000   123105 122126   105122 040040                                    SERVER

(unnamed)
 Sect OctLoc
   1     002   000000 002000                                                    ....

(unnamed)
 Sect OctLoc
   3     000   000000 006000   757777 777777   000007 200000   000007 006000    ................
   3     004   577777 777777   000012 006000   777777 777737                    ............
     2104    13985
     2105    13986    1       END KIS$OSI_RECV;

PL6.E3A0      #009=KIS$OSI_RECV File=KIS$OSI.:E05TSI                             WED 07/30/97 00:45 Page:339
--  Include file information  --

   F$DCB.:E05TOU  is referenced.
   SS_SCHED_C.:E05TOU  is referenced.
   NK$LDCT.:E05TOU  is referenced.
   NK_SUBS.:E05TOU  is referenced.
   NK_LDCT_R.:E05TOU  cannot be made into a system file and is referenced.
   K$RWPARM.:E05TOU  is referenced.
   K_TRANSPORT_E.:E05TOU  is referenced.
   K_SUBS_C.:E05TOU  is referenced.
   K_SESSION_M.:E05TOU  is referenced.
   KQ_SUBS_C.:E05TOU  is referenced.
   KI_MACROS_C.:E05TOU  is referenced.
   K_INTERFACE_M.:E05TOU  is referenced.
   K_ADDRESS_M.:E05TOU  is referenced.
   KI$MHDR.:E05TOU  is referenced.
   HF_LOCK_C.:E05TOU  cannot be made into a system file and is referenced.
   CP_6_SUBS.:E05TOU  is referenced.
   CP_6_C.:E05TOU  is referenced.
   CP_6.:E05TOU  cannot be made into a system file and is referenced.
   B_STRINGS_C.:E05TOU  is referenced.
   B_SEGIDS_C.:E05TOU  is referenced.
   B$USER.:E05TOU  cannot be made into a system file and is referenced.
      No diagnostics issued in procedure KIS$OSI_RECV.
PL6.E3A0      #009=KIS$OSI_RECV File=KIS$OSI.:E05TSI                             WED 07/30/97 00:45 Page:340

 **** Variables and constants ****

  ****  Section 001 RoData KIS$OSI_RECV

  ****  Scalars and arrays  ****
OctLoc.c.b A Datatyp(siz) R M Lvl/name                 OctLoc.c.b A Datatyp(siz) R M Lvl/name

     0-0-0/c CHAR(8)     r     1 SERVERAU

  ****  Auto variables  ****

  ****  Scalars and arrays  ****
OctLoc.c.b A Datatyp(siz) R M Lvl/name                 OctLoc.c.b A Datatyp(siz) R M Lvl/name

     3-0-0/w PTR         r     1 @K$RWPARM                102-0-0/w PTR         r     1 DCB$
   103-0-0/w PTR         r     1 FPT$                     150-0-0/w PTR         r     1 GLUE$
   104-0-0/w STRC(1296)  r     1 GLUEBUF                  151-0-0/w UBIN        r     1 I
    *0-0-0/d STRC(1404)  r     1 K$RWPARM                 152-0-0/w PTR         r     1 LDCT$
   153-0-0/w SBIN        r     1 LINK                     154-0-0/w PTR         r     1 MAJOR$
   155-0-0/w PTR         r     1 MINOR$                   160-0-0/w PTR         r     1 PTR$
   156-0-0/w UBIN        r     1 PUTERR                    32-0-0/d STRC(1404)  r     1 RWPARM
   161-0-0/c CHAR(4)     r     1 SAFE                     162-0-0/w SBIN        r     1 SCID
   163-0-0/w BIT         r     1 SQUIRRELED               164-0-0/w SBIN        r     1 TEMP
    21-0-0/w STRC(306)   r     1 TSAP                     165-0-0/w PTR         r     1 USRT$

  ****  SYMREF variables  ****

  ****  Scalars and arrays  ****
OctLoc.c.b A Datatyp(siz) R M Lvl/name                 OctLoc.c.b A Datatyp(siz) R M Lvl/name

     0-0-0/w PTR         r     1 B$USRT$                    0-0-0/w PTR         r     1 KIS_MAJOR$
     0-0-0/w PTR         r     1 KIS_MINOR$                 0-0-0/b BIT (72)    r     1 KIS_OSILOCK
     0-0-0/w UBIN        r     1 KIS_SSN_MAXMAJOR           0-0-0/w UBIN        r     1 KIS_SSN_MAXMINOR
     0-0-0/w UBIN        r     1 KIS_SSN_SERVERS            0-0-0/d STRC(1404)  r     1 K_RWPARM_CON
     0-0-0/w PTR         r     1 K_SC_USER$                 0-0-0/w PTR         r     1 N$DCT$$

  ****  BASED and DCB variables  ****
PL6.E3A0      #009=KIS$OSI_RECV File=KIS$OSI.:E05TSI                             WED 07/30/97 00:45 Page:341

  ****  Scalars and arrays  ****
OctLoc.c.b A Datatyp(siz) R M Lvl/name                 OctLoc.c.b A Datatyp(siz) R M Lvl/name

     0-0-0/w STRC(360)   r     1 APPL                       0-0-0/d STRC(576)   r     1 B$U
     0-0-0/w STRC(576)   r     1 B$USER(0:0)                0-0-0/c ACHR        r     1 BYTES
     0-0-0/d ASTR(3528)  r     1 F$DCB                      0-0-0/w STRC(72)    r     1 GLUE
     0-0-0/w STRC(1260)  r     1 K$FPT_CONNECT_OSI          0-0-0/w STRC(1080)  r     1 K$FPT_TERM_OSI
     0-0-0/w STRC(144)   r     1 KI$QMHDR                   0-0-0/w STRC(1620)  r     1 KI$TCTX
     0-0-0/d STRC(864)   r     1 NK$LDCT
     0-0-0/w PTR         r     1 NK$LDCT$(0:0)
     0-0-0/c CHAR(4)     r     1 SAFEBYTES                  0-0-0/w STRC(1260)  r     1 TCONFPT
     0-0-0/w STRC(1080)  r     1 TDISFPT                    0-0-0/c UBIN(9)     r     1 UBIN9


   Procedure KIS$OSI_RECV requires 565 words for executable code.
   Procedure KIS$OSI_RECV requires 120 words of local(AUTO) storage.

    No errors detected in file KIS$OSI.:E05TSI    .
PL6.E3A0      #009=KIS$OSI_RECV File=KIS$OSI.:E05TSI                             WED 07/30/97 00:45 Page:342
          *** CROSS REFERENCE LISTING ***
**     DENOTES     IDENTIFIER DEFINITION
<<                 IDENTIFIER'S VALUE SET
>>                 IDENTIFIER'S VALUE USED
<>                 IDENTIFIER SET AND/OR USED
--                 IDENTIFIER REFERENCED
PL6.E3A0      #009=KIS$OSI_RECV File=KIS$OSI.:E05TSI                             WED 07/30/97 00:45 Page:343
          MINI XREF LISTING

APPL.AUDCT
     11047**DCL     13888>>ASSIGN
APPL.CLNTHD
     11007**DCL     11008--REDEF
APPL.LDCTX
     11005**DCL     13678>>IF      13823>>ASSIGN  13894>>ASSIGN
APPL.TCTX
     11004**DCL     11005--REDEF   11006--REDEF   13697>>IF      13716<<ASSIGN  13764>>IF      13909<<ASSIGN
     13975<<ASSIGN
APPL.TSAP.LEN
     11032**DCL     13679>>IF
APPL.TSAP.TSAP
     11040**DCL     13680--IF
APPL.Z.COOKIE
     11009**DCL     11010--REDEF   13775>>ASSIGN
APPL.Z.LINK
     11011**DCL     13692>>ASSIGN  13702>>ASSIGN  13706>>ASSIGN  13710<<ASSIGN  13710>>ASSIGN  13717<<ASSIGN
     13719<<ASSIGN
APPL.Z.USER
     11010**DCL     13831>>ASSIGN  13846>>IF      13892>>IF
B$DO.ECCINFO
       203**DCL       204--REDEF
B$U.FLG
        69**DCL     13868>>IF
B$U.MISC
       182**DCL       183--REDEF
B$U.MISC$
       183**DCL     13868>>IF
B$U.US
       169**DCL     13868>>IF
B$USER
       227**DCL     13867--ASSIGN
PL6.E3A0      #009=KIS$OSI_RECV File=KIS$OSI.:E05TSI                             WED 07/30/97 00:45 Page:344
B$USER.MISC
       258**DCL       259--REDEF
B$USRT$
     13298**DCL     13867>>ASSIGN
BYTES
     13307**DCL     13680>>IF      13680>>IF
DCB$
     13308**DCL     13238--IMP-PTR
DONE
     13972**LABEL   13878--GOTO
F$DCB.ACTPOS
     13263**DCL     13263--REDEF
F$DCB.ARS
     13238**DCL     13238--REDEF
F$DCB.ATTR
     13256**DCL     13257--REDEF
F$DCB.BORROW
     13271**DCL     13271--REDEF   13271--REDEF   13271--REDEF
F$DCB.DCBNAME.L
     13285**DCL     13285--IMP-SIZ
F$DCB.EOMCHAR
     13242**DCL     13242--REDEF
F$DCB.FLDID
     13266**DCL     13266--REDEF
F$DCB.FORM$
     13260**DCL     13260--REDEF
F$DCB.FSECT
     13276**DCL     13276--REDEF
F$DCB.FSN
     13253**DCL     13253--REDEF   13253--REDEF   13254--REDEF
F$DCB.HEADER$
     13259**DCL     13259--REDEF
F$DCB.IXTNSIZE
     13257**DCL     13257--REDEF
F$DCB.LASTSTA$
     13247**DCL     13247--REDEF
PL6.E3A0      #009=KIS$OSI_RECV File=KIS$OSI.:E05TSI                             WED 07/30/97 00:45 Page:345
F$DCB.LVL
     13272**DCL     13272--REDEF
F$DCB.NAME.C
     13247**DCL     13247--REDEF
F$DCB.NOEOF
     13268**DCL     13268--REDEF
F$DCB.NRECS
     13258**DCL     13258--REDEF
F$DCB.NRECX
     13277**DCL     13277--REDEF
F$DCB.OHDR
     13269**DCL     13269--REDEF
F$DCB.ORG
     13252**DCL     13252--REDEF
F$DCB.PRECNO
     13275**DCL     13275--REDEF
F$DCB.RCSZ
     13280**DCL     13280--REDEF
F$DCB.RES
     13248**DCL     13248--REDEF
F$DCB.SETX
     13260**DCL     13260--REDEF
F$DCB.TAB$
     13259**DCL     13260--REDEF
F$DCB.TDA
     13274**DCL     13274--REDEF
F$DCB.WSN
     13249**DCL     13249--REDEF
FPT$
     13309**DCL      8668--IMP-PTR  9222--IMP-PTR 13778<<ASSIGN  13785>>ASSIGN  13791>>ASSIGN  13792>>ASSIGN
     13793>>ASSIGN
GETOUT
     13981**LABEL   13900--GOTO    13912--GOTO    13939--GOTO    13942--GOTO
GLUE
     11066**DCL     13774<<ASSIGN
GLUE.DATA
PL6.E3A0      #009=KIS$OSI_RECV File=KIS$OSI.:E05TSI                             WED 07/30/97 00:45 Page:346
     11077**DCL     13778--ASSIGN
GLUE.MAGIC
     11076**DCL     13776<<ASSIGN
GLUE.TRNFNC
     11074**DCL     13777<<ASSIGN
GLUE.YRSCID
     11075**DCL     13775<<ASSIGN
GLUE$
     13649**DCL     11066--IMP-PTR 13773<<ASSIGN  13774>>ASSIGN  13775>>ASSIGN  13776>>ASSIGN  13777>>ASSIGN
     13778>>ASSIGN  13787>>ASSIGN  13795>>ASSIGN  13805>>ASSIGN  13811>>ASSIGN
GLUEBUF
     13310**DCL     13773--ASSIGN
GLUEBUF.*.DST_NSAP.ADDRESS_N
     13635**DCL     13636--REDEF
GLUEBUF.*.SRC_NSAP.ADDRESS_N
     13575**DCL     13576--REDEF
GLUEBUF.*.TPDUSIZE
     13338**DCL     13339--REDEF
HFC$LOCK
      7176**DCL-ENT 13673--CALL    13853--CALL
HFC$UNLOCK
      7176**DCL-ENT 13723--CALL    13858--CALL    13876--CALL    13881--CALL
I
     13650**DCL     13677<<DOINDEX 13745<<ASSIGN  13757<<ASSIGN  13758>>IF      13763>>ASSIGN  13776>>ASSIGN
K$FPT_CONNECT_OSI
      8331**DCL     13788--ASSIGN
K$FPT_CONNECT_OSI.DST_NSAP.ADDRESS_N
      8637**DCL      8638--REDEF
K$FPT_CONNECT_OSI.SRC_NSAP.ADDRESS_N
      8577**DCL      8578--REDEF
K$FPT_CONNECT_OSI.TPDUSIZE
      8340**DCL      8341--REDEF
K$FPT_TERM_OSI
      9004**DCL     13796--ASSIGN
K$FPT_TERM_OSI.DST_NSAP.ADDRESS_N
      9196**DCL      9197--REDEF
PL6.E3A0      #009=KIS$OSI_RECV File=KIS$OSI.:E05TSI                             WED 07/30/97 00:45 Page:347
K$FPT_TERM_OSI.SRC_NSAP.ADDRESS_N
      9139**DCL      9140--REDEF
K$RWPARM
     11844**DCL        51--PROC    13736<>CALL    13874<>CALL    13919<>CALL
K$RWPARM.BLKREC
     11870**DCL     11895--REDEF
K$RWPARM.BLKREC.BLKU#
     11871**DCL     11873--REDEF
K$RWPARM.BLKREC.RECU#
     11883**DCL     11885--REDEF
K$RWPARM.DVE.DVBYTE.VFC
     11910**DCL     11911--REDEF
K$RWPARM.DVE.EOMCHAR
     11918**DCL     11922--REDEF
K$RWPARM.ERR
     11982**DCL     11987--REDEF   13728<<ASSIGN  13731<<ASSIGN  13791>>ASSIGN  13899<<ASSIGN  13911<<ASSIGN
     13930>>ASSIGN  13931<<ASSIGN  13938<<ASSIGN  13941<<ASSIGN
K$RWPARM.FC
     11946**DCL     11947--REDEF
K$RWPARM.FLDID
     12128**DCL     12129--REDEF
K$RWPARM.FPT$
     12009**DCL     12016--REDEF
K$RWPARM.FUNCTION
     12023**DCL     13668>>IF      13733<<ASSIGN  13766>>IF      13777>>ASSIGN  13781>>DOCASE  13843>>IF
     13855>>IF      13863>>IF      13865>>IF      13884>>IF      13907>>IF      13916>>IF      13954>>IF
     13956>>IF      13972>>IF
K$RWPARM.IP$
     11974**DCL     13917>>ASSIGN  13918>>ASSIGN
K$RWPARM.KEYTYPE
     12135**DCL     12136--REDEF
K$RWPARM.MSG$
     11845**DCL     11851--REDEF   13787<<ASSIGN  13795<<ASSIGN  13800<<ASSIGN  13803>>ASSIGN  13805>>ASSIGN
     13811<<ASSIGN  13829>>ASSIGN  13978>>ASSIGN  13983>>ASSIGN
K$RWPARM.MSGID
     11957**DCL     11962--REDEF
PL6.E3A0      #009=KIS$OSI_RECV File=KIS$OSI.:E05TSI                             WED 07/30/97 00:45 Page:348
K$RWPARM.MSGIDXT
     11970**DCL     11974--REDEF
K$RWPARM.MSGSZ
     11852**DCL     13788<<ASSIGN  13796<<ASSIGN  13801<<ASSIGN  13812<<ASSIGN
K$RWPARM.ORG
     12106**DCL     12107--REDEF
K$RWPARM.SHDR$
     12038**DCL     13800>>ASSIGN  13821<<ASSIGN
K$RWPARM.SHDRSZ
     12042**DCL     13801>>ASSIGN  13822<<ASSIGN
K$RWPARM.STATION
     11856**DCL     13895<<ASSIGN
K$RWPARM.TCTX#
     12080**DCL     13716>>ASSIGN
K$RWPARM.TCTX$
     12016**DCL     10033--IMP-PTR 13669>>ASSIGN  13749>>ASSIGN  13757>>ASSIGN  13785>>ASSIGN  13792>>ASSIGN
     13793>>ASSIGN
K$RWPARM.THDRSZ
     12050**DCL     12054--REDEF
K$RWPARM.VDOFLGS
     12108**DCL     12119--REDEF
KI$QMHDR.FEI#
      7321**DCL     13917>>ASSIGN
KI$QMHDR.FPTSZ
      7354**DCL      7355--REDEF
KI$QMHDR.MSGSZ
      7360**DCL      7361--REDEF
KI$QMHDR.UID
      7350**DCL      7351--REDEF
KI$TCTX.SSN
     10185**DCL     13785>>ASSIGN
KI$TCTX.SSN.DST_NSAP.ADDRESS_N
     10489**DCL     10490--REDEF
KI$TCTX.SSN.DST_TSAP
     10357**DCL     13669>>ASSIGN  13793>>ASSIGN
KI$TCTX.SSN.SCID
PL6.E3A0      #009=KIS$OSI_RECV File=KIS$OSI.:E05TSI                             WED 07/30/97 00:45 Page:349
     10293**DCL     13749>>ASSIGN  13757>>ASSIGN
KI$TCTX.SSN.SRC_NSAP.ADDRESS_N
     10429**DCL     10430--REDEF
KI$TCTX.SSN.SRC_TSAP
     10315**DCL     13792>>ASSIGN
KI$TCTX.SSN.TPDUSIZE
     10192**DCL     10193--REDEF
KIA$COMP
     13288**DCL-ENT 13874--CALL
KIS_MAJOR$
     13299**DCL     13675>>ASSIGN  13683>>ASSIGN  13756>>ASSIGN
KIS_MINOR$
     13300**DCL     13696>>ASSIGN  13706>>ASSIGN  13709>>ASSIGN  13710>>ASSIGN  13763>>ASSIGN
KIS_OSILOCK
     13301**DCL     13673<>CALL    13723<>CALL
KIS_SSN_MAXMAJOR
     13302**DCL     13750>>IF
KIS_SSN_MAXMINOR
     13303**DCL     13758>>IF
KIS_SSN_SERVERS
     13304**DCL     13677>>DOINDEX
KIT$SEND
     13289**DCL-ENT 13736--CALL
KQG$CANCEL
     13290**DCL-ENT 13904--CALL
KQG$GET
     13291**DCL-ENT 13961--CALL
KQP$PUT
     13292**DCL-ENT 13919--CALL
K_RWPARM_CON
     12476**DCL     13960>>ASSIGN
K_RWPARM_CON.BLKREC
     12502**DCL     12527--REDEF
K_RWPARM_CON.BLKREC.BLKU#
     12503**DCL     12505--REDEF
K_RWPARM_CON.BLKREC.RECU#
PL6.E3A0      #009=KIS$OSI_RECV File=KIS$OSI.:E05TSI                             WED 07/30/97 00:45 Page:350
     12515**DCL     12517--REDEF
K_RWPARM_CON.DVE.DVBYTE.VFC
     12542**DCL     12543--REDEF
K_RWPARM_CON.DVE.EOMCHAR
     12550**DCL     12554--REDEF
K_RWPARM_CON.ERR
     12614**DCL     12619--REDEF
K_RWPARM_CON.FC
     12578**DCL     12579--REDEF
K_RWPARM_CON.FLDID
     12760**DCL     12761--REDEF
K_RWPARM_CON.FPT$
     12641**DCL     12648--REDEF
K_RWPARM_CON.KEYTYPE
     12767**DCL     12768--REDEF
K_RWPARM_CON.MSG$
     12477**DCL     12483--REDEF
K_RWPARM_CON.MSGID
     12589**DCL     12594--REDEF
K_RWPARM_CON.MSGIDXT
     12602**DCL     12606--REDEF
K_RWPARM_CON.ORG
     12738**DCL     12739--REDEF
K_RWPARM_CON.THDRSZ
     12682**DCL     12686--REDEF
K_RWPARM_CON.VDOFLGS
     12740**DCL     12751--REDEF
K_SC_USER$
     13305**DCL     13831>>ASSIGN
LDCT$
     13651**DCL     12920--IMP-PTR 13823<<ASSIGN  13824>>IF      13846>>IF      13849>>DOCASE  13853>>CALL
     13856>>ASSIGN  13858>>CALL    13860>>CALL    13864>>ASSIGN  13866>>ASSIGN  13867>>ASSIGN  13868>>IF
     13871>>CALL    13873>>IF      13874>>CALL    13876>>CALL    13881>>CALL    13888<<ASSIGN  13889>>IF
     13892>>IF      13894<<ASSIGN  13898>>IF      13903>>IF      13904>>CALL    13915>>ASSIGN  13917>>ASSIGN
     13918>>ASSIGN  13919>>CALL    13922>>ASSIGN  13924>>ASSIGN  13925>>ASSIGN  13935>>ASSIGN  13936>>ASSIGN
     13945>>ASSIGN  13946>>ASSIGN  13955>>ASSIGN  13957>>ASSIGN  13959>>IF      13961>>CALL
PL6.E3A0      #009=KIS$OSI_RECV File=KIS$OSI.:E05TSI                             WED 07/30/97 00:45 Page:351
LINK
     13652**DCL     13692<<ASSIGN  13694>>DOWHILE 13696>>ASSIGN  13698>>ASSIGN  13702<<ASSIGN  13706<<ASSIGN
     13707>>IF      13709>>ASSIGN  13711>>ASSIGN  13719>>ASSIGN
MAJOR$
     13653**DCL     13675<<ASSIGN  13678>>IF      13679>>IF      13680>>IF      13683>>ASSIGN  13686<<ASSIGN
     13686>>ASSIGN  13691>>ASSIGN  13692>>ASSIGN  13756<<ASSIGN  13823>>ASSIGN  13831>>ASSIGN  13846>>IF
     13888>>ASSIGN  13892>>IF      13894>>ASSIGN
MAJOR_LOOP
     13677**LABEL   13684--EXIT
MINOR$
     13654**DCL     13699<<ASSIGN  13709<<ASSIGN  13710>>ASSIGN  13716>>ASSIGN  13717>>ASSIGN  13718>>IF
     13763<<ASSIGN  13764>>IF      13775>>ASSIGN  13909>>ASSIGN  13975>>ASSIGN
MINOR_LOOP
     13694**LABEL   13700--EXIT
N$DCT$$
     12778**DCL     12778--IMP-PTR 13823>>ASSIGN  13888>>ASSIGN  13894>>ASSIGN
NK$LDCT
     12920**DCL     13868--IF      13874<>CALL    13904<>CALL    13919<>CALL    13961<>CALL
NK$LDCT.DDT$
     12922**DCL     12922--REDEF
NK$LDCT.DFLG.PPND
     12928**DCL     13898>>IF      13915<<ASSIGN  13924<<ASSIGN  13935<<ASSIGN  13945<<ASSIGN
NK$LDCT.IOQ$
     12921**DCL     12922--REDEF
NK$LDCT.IP$
     12942**DCL     13918<<ASSIGN  13922<<ASSIGN  13925<<ASSIGN  13936<<ASSIGN  13946<<ASSIGN
NK$LDCT.IPFEI#
     12943**DCL     13917<<ASSIGN
NK$LDCT.LDCTX
     12923**DCL     12923--REDEF
NK$LDCT.LKFLG.ABORTED
     12935**DCL     12936--REDEF
NK$LDCT.LKFLG.NOWAIT
     12941**DCL     13873>>IF
NK$LDCT.LKFLG.OBLK
     12935**DCL     13864<<ASSIGN  13866<<ASSIGN  13903>>IF      13955<<ASSIGN  13957<<ASSIGN  13959>>IF
PL6.E3A0      #009=KIS$OSI_RECV File=KIS$OSI.:E05TSI                             WED 07/30/97 00:45 Page:352
NK$LDCT.LKFLG.WTMRK
     12936**DCL     13856<<ASSIGN
NK$LDCT.LOCK
     12948**DCL     13853<>CALL    13858<>CALL    13876<>CALL    13881<>CALL
NK$LDCT.RESCOD
     12928**DCL     13849>>DOCASE
NK$LDCT.RLCID.LDCTX
     12945**DCL     12945--REDEF
NK$LDCT.STA$
     12941**DCL     12942--REDEF
NK$LDCT.SYMB$
     12920**DCL     12920--REDEF   12920--REDEF   12921--REDEF
NK$LDCT.USER
     12930**DCL     13846>>IF      13860<>CALL    13867>>ASSIGN  13871<>CALL    13892>>IF
NK$LDCT$
     12778**DCL     13823>>ASSIGN  13888>>ASSIGN  13894>>ASSIGN
NWIO.CGPARM.MSGIDXT
      6525**DCL      6528--REDEF
PTR$
     13657**DCL     13691<<ASSIGN  13696<<ASSIGN  13697>>IF      13699>>ASSIGN  13702>>ASSIGN  13718>>IF
     13719>>ASSIGN
PUTERR
     13655**DCL     13930<<ASSIGN  13932>>DOCASE
RWPARM
     12160**DCL     13960<<ASSIGN  13961<>CALL
RWPARM.BLKREC
     12186**DCL     12211--REDEF
RWPARM.BLKREC.BLKU#
     12187**DCL     12189--REDEF
RWPARM.BLKREC.RECU#
     12199**DCL     12201--REDEF
RWPARM.DVE.DVBYTE.VFC
     12226**DCL     12227--REDEF
RWPARM.DVE.EOMCHAR
     12234**DCL     12238--REDEF
RWPARM.ERR
PL6.E3A0      #009=KIS$OSI_RECV File=KIS$OSI.:E05TSI                             WED 07/30/97 00:45 Page:353
     12298**DCL     12303--REDEF
RWPARM.FC
     12262**DCL     12263--REDEF
RWPARM.FLDID
     12444**DCL     12445--REDEF
RWPARM.FPT$
     12325**DCL     12332--REDEF
RWPARM.KEYTYPE
     12451**DCL     12452--REDEF
RWPARM.MSG$
     12161**DCL     12167--REDEF
RWPARM.MSGID
     12273**DCL     12278--REDEF
RWPARM.MSGIDXT
     12286**DCL     12290--REDEF
RWPARM.ORG
     12422**DCL     12423--REDEF
RWPARM.THDRSZ
     12366**DCL     12370--REDEF
RWPARM.VDOFLGS
     12424**DCL     12435--REDEF
SAFE
     13658**DCL     13803<<ASSIGN  13829>>ASSIGN  13978>>ASSIGN  13983>>ASSIGN
SAFEBYTES
     13659**DCL     13803>>ASSIGN  13805<<ASSIGN  13805>>ASSIGN  13829<<ASSIGN  13978<<ASSIGN  13983<<ASSIGN
SCID
     13660**DCL     13670<<ASSIGN  13683<<ASSIGN  13688>>IF      13725>>IF      13727>>IF      13749<<ASSIGN
     13750>>IF      13756>>ASSIGN
SC_PRTCL_SCREECH
     13294**DCL-ENT 13951--CALL    13964--CALL    13969--CALL
SC_PRTCL_SNAP
     13295**DCL-ENT 13739--CALL    13753--CALL    13814--CALL    13885--CALL
SC_WRONGLDCT
     13296**DCL-ENT 13833--CALL
SEND_DISCONNECT
     13733**LABEL   13843--GOTO
PL6.E3A0      #009=KIS$OSI_RECV File=KIS$OSI.:E05TSI                             WED 07/30/97 00:45 Page:354
SERVERAU
     13661**DCL     13895>>ASSIGN
SNAP
     13753**LABEL   13760--GOTO    13769--GOTO
SQUIRRELED
     13662**DCL     13779<<ASSIGN  13806<<ASSIGN  13827>>IF      13976>>IF      13981>>IF
SSR$RUE
     13293**DCL-ENT 13860--CALL    13871--CALL
TCONFPT
      8668**DCL     13785<<ASSIGN
TCONFPT.DST_NSAP.ADDRESS_N
      8974**DCL      8975--REDEF
TCONFPT.SRC_NSAP.ADDRESS_N
      8914**DCL      8915--REDEF
TCONFPT.TPDUSIZE
      8677**DCL      8678--REDEF
TDISFPT.DST_NSAP.ADDRESS_N
      9414**DCL      9415--REDEF
TDISFPT.DST_TSAP
      9287**DCL     13793<<ASSIGN
TDISFPT.REASON
      9223**DCL     13791<<ASSIGN
TDISFPT.SRC_NSAP.ADDRESS_N
      9357**DCL      9358--REDEF
TDISFPT.SRC_TSAP
      9247**DCL     13792<<ASSIGN
TEMP
     13663**DCL     13689<<ASSIGN  13698<<ASSIGN  13704>>IF      13711<<ASSIGN  13714>>IF      13725>>IF
     13730>>IF      13745>>ASSIGN
TSAP
      7886**DCL     13669<<ASSIGN
TSAP.LEN
      7890**DCL     13307--IMP-SIZ 13679>>IF      13680>>IF      13680>>IF
TSAP.TSAP
      7898**DCL     13680--IF
UBIN9
PL6.E3A0      #009=KIS$OSI_RECV File=KIS$OSI.:E05TSI                             WED 07/30/97 00:45 Page:355
     13664**DCL     13831<<ASSIGN
USRT$
     13666**DCL     13867<<ASSIGN  13868>>IF      13868>>IF      13868>>IF
WRONGLDCT
     13827**LABEL   13847--GOTO    13891--GOTO    13893--GOTO
