VERSION E05

PL6.E3A0      #001=KIS$OSI_OPEN File=KIS$OSI.:E05TSI                             WED 07/30/97 00:39 Page:1
        1        1        /*M*    KIS$OSI OSI Session layer connection management                 */
        2        2        /*T***********************************************************/
        3        3        /*T*                                                         */
        4        4        /*T* Copyright (c) Bull HN Information Systems Inc., 1997    */
        5        5        /*T*                                                         */
        6        6        /*T***********************************************************/
        7        7        /*X* DDA */
        8        8        /*D*    NAME:   KIS$OSI
        9        9                DESCRIPTION:
       10       10                    This module contains the code to support communication between
       11       11                    application programs regardless of their location in a CP-6
       12       12                    network, or indeed any network connected to a CP-6 network.
       13       13                    For E00, only host-resident applications can use this facility.
       14       14
       15       15                    Applications are of two types, server and client.  A server
       16       16                    provides application-specific services to one or more clients.
       17       17                    A particular run unit may act as a server, a client, or both.
       18       18
       19       19                    This module assumes that the application run unit includes the
       20       20                    XSS$SESSION object unit and any other higher-level protocol XSS
       21       21                    object unit(s) needed.  The module XSS$COMM within XSS$SESSION
       22       22                    sets up the necessary linkages to this monitor code.
       23       23
       24       24                    When an application acts as a server, there is a comgroup
       25       25                    established to hold messages in transit between the server and
       26       26                    its clients.  This 'server comgroup' typically has two stations.
       27       27                    The XSS library code manages a DCB station which is also the
       28       28                    comgroup's AU, while this KIS code manages a terminal station
       29       29                    used by the monitor.
       30       30
       31       31                    As part of its initialization, the XSS code creates the server
       32       32                    comgroup, opens the AU DCB, and issues an M$ATTACH monitor call
       33       33                    to create the monitor terminal station.  As part of the cleanup
       34       34                    when the server application is about to exit, an M$DETACH is
       35       35                    issued to disconnect the monitor terminal station and discard
       36       36                    the monitor context for that server.  Then the AU DCB is closed
       37       37                    and the server comgroup deleted.
PL6.E3A0      #001=KIS$OSI_OPEN File=KIS$OSI.:E05TSI                             WED 07/30/97 00:39 Page:2
       38       38
       39       39                    When an application acts as a client, the path between the client
       40       40                    and this code is provided by a DCB opened with RES=NC (Network
       41       41                    Connection).  A client may have as many NC DCBS as desired, each
       42       42                    one providing a path to the monitor communication layers for the
       43       43                    support of one ISO Session connection.
       44       44
       45       45                    The usual services are provided for the NC DCB: OPEN, CLOSE,
       46       46                    READ, and WRITE.  All READs and WRITEs must be transparent.
       47       47                    ISO Session connections are set up by READs and WRITEs involving
       48       48                    messages of the ISO Session protocol.  OPEN and CLOSE just set up
       49       49                    or tear down a path between the part of the Session layer linked
       50       50                    with the client application and this part in the monitor.
       51       51
       52       52                    Although it might be possible to set up a private messaging
       53       53                    system using this code and bypassing the XS? protocol layers,
       54       54                    this should not be encouraged.  The security issues resulting
       55       55                    from such a scheme have not yet been considered.  Caveat emptor.
       56       56        */
       57       57        /*F*    NAME:   KIS$OSI_OPEN
       58       58                PURPOSE:  Handle M$OPEN of RES=NC DCB.
       59       59        */
       60       60        /*D*    NAME:   KIS$OSI_OPEN
       61       61                CALL:   CALL KIS$OSI_OPEN ALTRET( label);
       62       62                INPUT:
       63       63                    B$JIT.DCB$ - an unopened DCB specifying RES=NC.
       64       64                    This code assumed reachable only by RES=NC.  Only FCD and
       65       65                    LDCTX are checked; everything else in the DCB is irrelevant.
       66       66                OUTPUT:
       67       67                    On successful call,
       68       68                      A major client slot is allocated and initialized,
       69       69                      An LDCT is allocated and initialized,
       70       70                      B$JIT.DCB$->F$DCB.FCD marked open,
       71       71                      B$JIT.DCB$->F$DCB.DVFC set to the major SCID of the client,
       72       72                      B$JIT.DCB$->F$DCB.LDCTX set to LDCTX of new NK_OSIDCB LDCT.
       73       73                    On unsuccessful call,
       74       74                      B$JIT.ERR is filled in with an appropriate error,
PL6.E3A0      #001=KIS$OSI_OPEN File=KIS$OSI.:E05TSI                             WED 07/30/97 00:39 Page:3
       75       75                      ALTRETURN is taken.
       76       76
       77       77                DESCRIPTION:
       78       78                    KIS$OSI_OPEN is the routine called when an OSI client
       79       79                    application wishes to set up a path to the communication layers.
       80       80                    It is entered from FSN$OPNDEV when a DCB is M$OPEN'd with RES=NC.
       81       81
       82       82                    OPEN RES=NC just establishes a path from the client to the CP-6
       83       83                    monitor.  No OSI Session-specific information is passed at this
       84       84                    time.  A subsequent M$WRITE through the DCB by the client is
       85       85                    what causes a CONNECT SPDU to be sent through the network.
       86       86
       87       87                    On successful return, F$DCB.DVFC contains the major SCID for
       88       88                    this OSI Session application.  The major SCID plus the minor
       89       89                    SCID supplied later on (as part of the buffer on an M$WRITE)
       90       90                    are mapped to the Transport connection id to send the message.
       91       91                    Likewise, an incoming message is forwarded to the correct
       92       92                    application by mapping the Transport connection id to the
       93       93                    major+minor SCID.
       94       94        */
       95       95        KIS$OSI_OPEN: PROC ALTRET;
       96       96        %INCLUDE B$JIT_C;
       97      410            %B$JIT0;
       98      499            %U$JIT1X;
       99      502            %M$JIT2X;
      100      505            %F$JIT3;
      101      510            %S$JIT4X;
      102      513            %J$JIT5;
      103      601            %A$JIT6X;
      104      604        %INCLUDE CP_6_SUBS;
      105     1144        %INCLUDE HF_LOCK_C;
      106     1158        %INCLUDE KI_ERRORS_C;
      107     1243        %INCLUDE K_ADDRESS_M;
      108     1746        %INCLUDE K_SESSION_M;
      109     1836            %KIS$APPL( NAME=APPL, STCLASS=BASED);
      110     1905        %INCLUDE NK_LDCT_R;
      111     1914        %INCLUDE NK_SUBS;
PL6.E3A0      #001=KIS$OSI_OPEN File=KIS$OSI.:E05TSI                             WED 07/30/97 00:39 Page:4
      112     1939        %INCLUDE NK$LDCT;
      113     2041            %NK$LDCT( STCLASS="BASED( LDCT$)");
      114     2087        %INCLUDE UM_CP6;
      115     2939        %MACRO ERRCODE( NAME=ERRDUMMY, CODE=0);
      116     2940            %VLP_ERRCODE( FPTN=NAME, STCLASS=CONSTANT, FCG='KI', MID='S',
      117     2941                          MON='1'B, ERR#=CODE, SEV=7);
      118     2942        %MEND;
      119     2943            %ERRCODE( NAME=ERRMAJORTBL, CODE=%E$MAJORTBL);
      120     2991            %ERRCODE( NAME=ERRNCOPEN, CODE=%E$NCOPEN);
      121     3039            %ERRCODE( NAME=ERROSINOLDCT, CODE=%E$OSINOLDCT);
      122     3087        %MACRO F$DCBI( BASED=BASED);
      123     3088        %INCLUDE F$DCB;
      124     3137        %MEND;
      125     3138            %F$DCBI( BASED="BASED( JDCB$)");
      126     3188
      127     3189    1       DCL NKL$GETDCT ENTRY(1) ALTRET;
      128     3190
      129     3191    1       DCL B$JIT$ PTR SYMREF;
      130     3192
      131     3193    1       DCL KIS_MAJOR$ PTR STATIC SYMDEF;  /* initialized by TIGR */
      132     3194    1       DCL KIS_MINOR$ PTR STATIC SYMDEF;  /* initialized by TIGR */
      133     3195    1       DCL KIS_OSILOCK BIT(72) STATIC SYMDEF INIT( '1'B);
      134     3196
      135     3197    1       DCL JDCB$ PTR;
      136     3198    1       DCL LDCT$ PTR;
      137     3199    1       DCL MAJOR$ PTR;
      138     3200    1       DCL SCID SBIN;
      139     3201
      140     3202    1       JDCB$ = B$JIT.DCB$;
      141     3203    2       IF F$DCB.LDCTX ~= 0 OR F$DCB.FCD ~= %NO# THEN DO;
      142     3204                /* looks like the DCB is already open */
      143     3205    2           B$JIT.ERR = ERRNCOPEN;
      144     3206                /*E*  ERROR:  KIS-E$NCOPEN-A
      145     3207                    MESSAGE:  That NC DCB is already open.
      146     3208                */
      147     3209    2           ALTRETURN;
      148     3210    2           END;
PL6.E3A0      #001=KIS$OSI_OPEN File=KIS$OSI.:E05TSI                             WED 07/30/97 00:39 Page:5
      149     3211            /* look for an unused major client slot */
      150     3212            %LOCK( G=KIS_OSILOCK);
      151     3215    2       IF KIS_MAJOR$->APPL.CLNTHD ~= 0 THEN DO;
      152     3216    2           SCID = KIS_MAJOR$->APPL.CLNTHD;
      153     3217    2           MAJOR$ = PINCRW( KIS_MAJOR$, SCID);
      154     3218    2           KIS_MAJOR$->APPL.CLNTHD = MAJOR$->APPL.Z.LINK;
      155     3219    2           END;
      156     3220    2       ELSE DO;
      157     3221                /* all major client slots are in use */
      158     3222                %UNLOCK( G=KIS_OSILOCK);
      159     3225    2           B$JIT.ERR = ERRMAJORTBL;
      160     3226                /*E*  ERROR:  KIS-E$MAJORTBL-A
      161     3227                    MESSAGE:  No more space in the 'major' Session connection table.
      162     3228                */
      163     3229    2           ALTRETURN;
      164     3230    2           END;
      165     3231    1       CALL NKL$GETDCT( LDCT$)
      166     3232    2       WHENALTRETURN DO;
      167     3233                /* unable to get a new LDCT for the NC DCB */
      168     3234                /* free the major client slot */
      169     3235    2           MAJOR$->APPL.Z.LINK = KIS_MAJOR$->APPL.CLNTHD;
      170     3236    2           KIS_MAJOR$->APPL.CLNTHD = SCID;
      171     3237                %UNLOCK( G=KIS_OSILOCK);
      172     3240    2           B$JIT.ERR = ERROSINOLDCT;
      173     3241                /*E*  ERROR:  KIS-E$OSINOLDCT-A
      174     3242                    MESSAGE:  No more system LDCTs are available.
      175     3243                */
      176     3244    2           ALTRETURN;
      177     3245    2           END;
      178     3246            /* initialize interesting fields of the LDCT */
      179     3247    1       NK$LDCT.DEVNM = 'CLIENT  ';
      180     3248    1       NK$LDCT.RESCOD = %NK_OSIDCB;
      181     3249    1       NK$LDCT.USER = B$JIT.USER;
      182     3250    1       NK$LDCT.JLNKCNT = B$JIT.LNKCNT;
      183     3251    1       NK$LDCT.DCBNO = B$JIT.DCBNO;
      184     3252    1       NK$LDCT.TH.STR = SCID;
      185     3253    1       NK$LDCT.LKFLG.ACTIVE = '1'B;
PL6.E3A0      #001=KIS$OSI_OPEN File=KIS$OSI.:E05TSI                             WED 07/30/97 00:39 Page:6
      186     3254    1       NK$LDCT.DFLG.INPUT = '1'B;
      187     3255    1       NK$LDCT.DFLG.OUTPUT = '1'B;
      188     3256    1       NK$LDCT.LKFLG.OBLK = '0'B;
      189     3257    1       NK$LDCT.LKFLG.WTMRK = '0'B;
      190     3258            /* ..and initialize the major client slot */
      191     3259    1       MAJOR$->APPL.LDCTX = NK$LDCT.LDCTX;
      192     3260    1       MAJOR$->APPL.Z.LINK = 0;
      193     3261    1       MAJOR$->APPL.Z.USER = B$JIT.USER;
      194     3262            %UNLOCK( G=KIS_OSILOCK);
      195     3265            /* fill in the DCB and mark it open */
      196     3266    1       F$DCB.LDCTX = NK$LDCT.LDCTX;
      197     3267    1       F$DCB.FCD = %YES#;
      198     3268            /* stash away the major SCID for later M$READ/M$WRITE */
      199     3269    1       F$DCB.DVFC = BINASC( SCID);
      200     3270    1       RETURN;
      201     3271
      202     3272    1       END KIS$OSI_OPEN;
      203     3273        %EOD;

PL6.E3A0      #001=KIS$OSI_OPEN File=KIS$OSI.:E05TSI                             WED 07/30/97 00:39 Page:7
--  Include file information  --

   F$DCB.:E05TOU  is referenced.
   UM_CP6.:E05TOU  is referenced.
   NK$LDCT.:E05TOU  is referenced.
   NK_SUBS.:E05TOU  is referenced.
   NK_LDCT_R.:E05TOU  cannot be made into a system file and is referenced.
   K_SESSION_M.:E05TOU  is referenced.
   K_ADDRESS_M.:E05TOU  is referenced.
   KI_ERRORS_C.:E05TOU  is referenced.
   HF_LOCK_C.:E05TOU  cannot be made into a system file and is referenced.
   CP_6_SUBS.:E05TOU  is referenced.
   B$JIT_C.:E05TOU  is referenced.
      No diagnostics issued in procedure KIS$OSI_OPEN.

   Procedure KIS$OSI_OPEN requires 116 words for executable code.
   Procedure KIS$OSI_OPEN requires 10 words of local(AUTO) storage.

PL6.E3A0      #001=KIS$OSI_OPEN File=KIS$OSI.:E05TSI                             WED 07/30/97 00:39 Page:8

 Object Unit name= KIS$OSI_OPEN                               File name= KIS$OSI.:E05TOU
 UTS= JUL 30 '97 00:39:56.48 WED                              Compiler= PL-6/E31         Sev=      00
 SharedLib= :SHARED_SYSTEM                                    Alt SharedLib=


    ****  Control sections  ****

 Sect   Type Bound  Init  Size OctSiz  Section name(segment info)
    0  RoData even  UTS      5      5  KIS$OSI_OPEN
    1   Data  even  none     4      4  KIS$OSI_OPEN
    2   Proc  even  none   116    164  KIS$OSI_OPEN
    3  RoData even  none     5      5  KIS$OSI_OPEN

    ****  Entry defs  ****

                              Check   Calling
                             calling  sequence
  Sect OctLoc Primary Altret sequence   type   Parms  Name
     2      0   yes    yes     yes      Std        0  KIS$OSI_OPEN

  ****  Data defs  ****

 Sect OctLoc  Name                           Sect OctLoc  Name
    1      0  KIS_MAJOR$                         1      1  KIS_MINOR$
    1      2  KIS_OSILOCK
PL6.E3A0      #001=KIS$OSI_OPEN File=KIS$OSI.:E05TSI                             WED 07/30/97 00:39 Page:9

  ****  Entry refs  ****

         Check        Calling
        calling       sequence
Altret sequence SRef   type   Args  Name
         yes           Std       1 HFC$LOCK
         yes           Std       1 HFC$UNLOCK
 yes     yes           Std       1 NKL$GETDCT
                       nStd      0 X66_AUTO_0
                       nStd      0 X66_AALT
                       Std       0 B_CONSPOOL_D
                       nStd      0 X66_ARET

  ****  Data refs  ****

  Flags:  r = read only, s = secondary
Flgs Name                             Flgs Name                             Flgs Name
     N$DCT$$                               B$JIT$                                B_VECTNIL

  ****  Segment refs  ****

  Flags:  r = read only, s = secondary
Flgs Name                             Flgs Name                             Flgs Name
     ISSID
PL6.E3A0      #001=KIS$OSI_OPEN File=KIS$OSI.:E05TSI                             WED 07/30/97 00:39 Page:10


        1        1        /*M*    KIS$OSI OSI Session layer connection management                 */
        2        2        /*T***********************************************************/
        3        3        /*T*                                                         */
        4        4        /*T* Copyright (c) Bull HN Information Systems Inc., 1997    */
        5        5        /*T*                                                         */
        6        6        /*T***********************************************************/
        7        7        /*X* DDA */
        8        8        /*D*    NAME:   KIS$OSI
        9        9                DESCRIPTION:
       10       10                    This module contains the code to support communication between
       11       11                    application programs regardless of their location in a CP-6
       12       12                    network, or indeed any network connected to a CP-6 network.
       13       13                    For E00, only host-resident applications can use this facility.
       14       14
       15       15                    Applications are of two types, server and client.  A server
       16       16                    provides application-specific services to one or more clients.
       17       17                    A particular run unit may act as a server, a client, or both.
       18       18
       19       19                    This module assumes that the application run unit includes the
       20       20                    XSS$SESSION object unit and any other higher-level protocol XSS
       21       21                    object unit(s) needed.  The module XSS$COMM within XSS$SESSION
       22       22                    sets up the necessary linkages to this monitor code.
       23       23
       24       24                    When an application acts as a server, there is a comgroup
       25       25                    established to hold messages in transit between the server and
       26       26                    its clients.  This 'server comgroup' typically has two stations.
       27       27                    The XSS library code manages a DCB station which is also the
       28       28                    comgroup's AU, while this KIS code manages a terminal station
       29       29                    used by the monitor.
       30       30
       31       31                    As part of its initialization, the XSS code creates the server
       32       32                    comgroup, opens the AU DCB, and issues an M$ATTACH monitor call
       33       33                    to create the monitor terminal station.  As part of the cleanup
       34       34                    when the server application is about to exit, an M$DETACH is
       35       35                    issued to disconnect the monitor terminal station and discard
       36       36                    the monitor context for that server.  Then the AU DCB is closed
PL6.E3A0      #001=KIS$OSI_OPEN File=KIS$OSI.:E05TSI                             WED 07/30/97 00:39 Page:11
       37       37                    and the server comgroup deleted.
       38       38
       39       39                    When an application acts as a client, the path between the client
       40       40                    and this code is provided by a DCB opened with RES=NC (Network
       41       41                    Connection).  A client may have as many NC DCBS as desired, each
       42       42                    one providing a path to the monitor communication layers for the
       43       43                    support of one ISO Session connection.
       44       44
       45       45                    The usual services are provided for the NC DCB: OPEN, CLOSE,
       46       46                    READ, and WRITE.  All READs and WRITEs must be transparent.
       47       47                    ISO Session connections are set up by READs and WRITEs involving
       48       48                    messages of the ISO Session protocol.  OPEN and CLOSE just set up
       49       49                    or tear down a path between the part of the Session layer linked
       50       50                    with the client application and this part in the monitor.
       51       51
       52       52                    Although it might be possible to set up a private messaging
       53       53                    system using this code and bypassing the XS? protocol layers,
       54       54                    this should not be encouraged.  The security issues resulting
       55       55                    from such a scheme have not yet been considered.  Caveat emptor.
       56       56        */
       57       57        /*F*    NAME:   KIS$OSI_OPEN
       58       58                PURPOSE:  Handle M$OPEN of RES=NC DCB.
       59       59        */
       60       60        /*D*    NAME:   KIS$OSI_OPEN
       61       61                CALL:   CALL KIS$OSI_OPEN ALTRET( label);
       62       62                INPUT:
       63       63                    B$JIT.DCB$ - an unopened DCB specifying RES=NC.
       64       64                    This code assumed reachable only by RES=NC.  Only FCD and
       65       65                    LDCTX are checked; everything else in the DCB is irrelevant.
       66       66                OUTPUT:
       67       67                    On successful call,
       68       68                      A major client slot is allocated and initialized,
       69       69                      An LDCT is allocated and initialized,
       70       70                      B$JIT.DCB$->F$DCB.FCD marked open,
       71       71                      B$JIT.DCB$->F$DCB.DVFC set to the major SCID of the client,
       72       72                      B$JIT.DCB$->F$DCB.LDCTX set to LDCTX of new NK_OSIDCB LDCT.
       73       73                    On unsuccessful call,
PL6.E3A0      #001=KIS$OSI_OPEN File=KIS$OSI.:E05TSI                             WED 07/30/97 00:39 Page:12
       74       74                      B$JIT.ERR is filled in with an appropriate error,
       75       75                      ALTRETURN is taken.
       76       76
       77       77                DESCRIPTION:
       78       78                    KIS$OSI_OPEN is the routine called when an OSI client
       79       79                    application wishes to set up a path to the communication layers.
       80       80                    It is entered from FSN$OPNDEV when a DCB is M$OPEN'd with RES=NC.
       81       81
       82       82                    OPEN RES=NC just establishes a path from the client to the CP-6
       83       83                    monitor.  No OSI Session-specific information is passed at this
       84       84                    time.  A subsequent M$WRITE through the DCB by the client is
       85       85                    what causes a CONNECT SPDU to be sent through the network.
       86       86
       87       87                    On successful return, F$DCB.DVFC contains the major SCID for
       88       88                    this OSI Session application.  The major SCID plus the minor
       89       89                    SCID supplied later on (as part of the buffer on an M$WRITE)
       90       90                    are mapped to the Transport connection id to send the message.
       91       91                    Likewise, an incoming message is forwarded to the correct
       92       92                    application by mapping the Transport connection id to the
       93       93                    major+minor SCID.
       94       94        */
       95       95        KIS$OSI_OPEN: PROC ALTRET;

     95  2 000000   000000 700200 xent  KIS$OSI_OPEN TSX0  ! X66_AUTO_0
         2 000001   000012 000000                    ZERO    10,0

       96       96        %INCLUDE B$JIT_C;
       97      410            %B$JIT0;
       98      499            %U$JIT1X;
       99      502            %M$JIT2X;
      100      505            %F$JIT3;
      101      510            %S$JIT4X;
      102      513            %J$JIT5;
      103      601            %A$JIT6X;
      104      604        %INCLUDE CP_6_SUBS;
      105     1144        %INCLUDE HF_LOCK_C;
      106     1158        %INCLUDE KI_ERRORS_C;
PL6.E3A0      #001=KIS$OSI_OPEN File=KIS$OSI.:E05TSI                             WED 07/30/97 00:39 Page:13
      107     1243        %INCLUDE K_ADDRESS_M;
      108     1746        %INCLUDE K_SESSION_M;
      109     1836            %KIS$APPL( NAME=APPL, STCLASS=BASED);
      110     1905        %INCLUDE NK_LDCT_R;
      111     1914        %INCLUDE NK_SUBS;
      112     1939        %INCLUDE NK$LDCT;
      113     2041            %NK$LDCT( STCLASS="BASED( LDCT$)");
      114     2087        %INCLUDE UM_CP6;
      115     2939        %MACRO ERRCODE( NAME=ERRDUMMY, CODE=0);
      116     2940            %VLP_ERRCODE( FPTN=NAME, STCLASS=CONSTANT, FCG='KI', MID='S',
      117     2941                          MON='1'B, ERR#=CODE, SEV=7);
      118     2942        %MEND;
      119     2943            %ERRCODE( NAME=ERRMAJORTBL, CODE=%E$MAJORTBL);
      120     2991            %ERRCODE( NAME=ERRNCOPEN, CODE=%E$NCOPEN);
      121     3039            %ERRCODE( NAME=ERROSINOLDCT, CODE=%E$OSINOLDCT);
      122     3087        %MACRO F$DCBI( BASED=BASED);
      123     3088        %INCLUDE F$DCB;
      124     3137        %MEND;
      125     3138            %F$DCBI( BASED="BASED( JDCB$)");
      126     3188
      127     3189    1       DCL NKL$GETDCT ENTRY(1) ALTRET;
      128     3190
      129     3191    1       DCL B$JIT$ PTR SYMREF;
      130     3192
      131     3193    1       DCL KIS_MAJOR$ PTR STATIC SYMDEF;  /* initialized by TIGR */
      132     3194    1       DCL KIS_MINOR$ PTR STATIC SYMDEF;  /* initialized by TIGR */
      133     3195    1       DCL KIS_OSILOCK BIT(72) STATIC SYMDEF INIT( '1'B);
      134     3196
      135     3197    1       DCL JDCB$ PTR;
      136     3198    1       DCL LDCT$ PTR;
      137     3199    1       DCL MAJOR$ PTR;
      138     3200    1       DCL SCID SBIN;
      139     3201
      140     3202    1       JDCB$ = B$JIT.DCB$;

   3202  2 000002   000000 470400 xsym               LDP0    B$JIT$
         2 000003   000232 236100                    LDQ     154,,PR0
PL6.E3A0      #001=KIS$OSI_OPEN File=KIS$OSI.:E05TSI                             WED 07/30/97 00:39 Page:14
         2 000004   200003 756100                    STQ     JDCB$,,AUTO

      141     3203    2       IF F$DCB.LDCTX ~= 0 OR F$DCB.FCD ~= %NO# THEN DO;

   3203  2 000005   200003 471500                    LDP1    JDCB$,,AUTO
         2 000006   100051 220100                    LDX0    41,,PR1
         2 000007   000013 601000 2                  TNZ     s:3205
         2 000010   100031 236100                    LDQ     25,,PR1
         2 000011   020000 316007                    CANQ    8192,DL
         2 000012   000016 600000 2                  TZE     s:3213

      142     3204                /* looks like the DCB is already open */
      143     3205    2           B$JIT.ERR = ERRNCOPEN;

   3205  2 000013   000001 236000 0                  LDQ     ERRNCOPEN
         2 000014   000012 756100                    STQ     10,,PR0

      144     3206                /*E*  ERROR:  KIS-E$NCOPEN-A
      145     3207                    MESSAGE:  That NC DCB is already open.
      146     3208                */
      147     3209    2           ALTRETURN;

   3209  2 000015   000000 702200 xent               TSX2  ! X66_AALT

      148     3210    2           END;
      149     3211            /* look for an unused major client slot */
      150     3212            %LOCK( G=KIS_OSILOCK);

   3213  2 000016   000000 630400 3                  EPPR0   0
         2 000017   000017 631400 xsym               EPPR1   B_VECTNIL+15
         2 000020   000000 701000 xent               TSX1    HFC$LOCK
         2 000021   000000 011000                    NOP     0

      151     3215    2       IF KIS_MAJOR$->APPL.CLNTHD ~= 0 THEN DO;

   3215  2 000022   000000 470400 1                  LDP0    KIS_MAJOR$
         2 000023   000000 720100                    LXL0    0,,PR0
PL6.E3A0      #001=KIS$OSI_OPEN File=KIS$OSI.:E05TSI                             WED 07/30/97 00:39 Page:15
         2 000024   000040 600000 2                  TZE     s:3223

      152     3216    2           SCID = KIS_MAJOR$->APPL.CLNTHD;

   3216  2 000025   000000 236100                    LDQ     0,,PR0
         2 000026   777777 376007                    ANQ     -1,DL
         2 000027   200006 756100                    STQ     SCID,,AUTO

      153     3217    2           MAJOR$ = PINCRW( KIS_MAJOR$, SCID);

   3217  2 000030   000022 736000                    QLS     18
         2 000031   000000 036000 1                  ADLQ    KIS_MAJOR$
         2 000032   200005 756100                    STQ     MAJOR$,,AUTO

      154     3218    2           KIS_MAJOR$->APPL.CLNTHD = MAJOR$->APPL.Z.LINK;

   3218  2 000033   200005 471500                    LDP1    MAJOR$,,AUTO
         2 000034   100000 721100                    LXL1    0,,PR1
         2 000035   000777 361003                    ANX1    511,DU
         2 000036   000000 441100                    SXL1    0,,PR0

      155     3219    2           END;

   3219  2 000037   000050 710000 2                  TRA     s:3231

      156     3220    2       ELSE DO;

      157     3221                /* all major client slots are in use */
      158     3222                %UNLOCK( G=KIS_OSILOCK);

   3223  2 000040   000000 630400 3                  EPPR0   0
         2 000041   000017 631400 xsym               EPPR1   B_VECTNIL+15
         2 000042   000000 701000 xent               TSX1    HFC$UNLOCK
         2 000043   000000 011000                    NOP     0

      159     3225    2           B$JIT.ERR = ERRMAJORTBL;

PL6.E3A0      #001=KIS$OSI_OPEN File=KIS$OSI.:E05TSI                             WED 07/30/97 00:39 Page:16
   3225  2 000044   000000 236000 0                  LDQ     ERRMAJORTBL
         2 000045   000000 470400 xsym               LDP0    B$JIT$
         2 000046   000012 756100                    STQ     10,,PR0

      160     3226                /*E*  ERROR:  KIS-E$MAJORTBL-A
      161     3227                    MESSAGE:  No more space in the 'major' Session connection table.
      162     3228                */
      163     3229    2           ALTRETURN;

   3229  2 000047   000000 702200 xent               TSX2  ! X66_AALT

      164     3230    2           END;
      165     3231    1       CALL NKL$GETDCT( LDCT$)

   3231  2 000050   200004 630500                    EPPR0   LDCT$,,AUTO
         2 000051   200010 450500                    STP0    SCID+2,,AUTO
         2 000052   200010 630500                    EPPR0   SCID+2,,AUTO
         2 000053   000017 631400 xsym               EPPR1   B_VECTNIL+15
         2 000054   000000 701000 xent               TSX1    NKL$GETDCT
         2 000055   000057 702000 2                  TSX2    s:3235
         2 000056   000076 710000 2                  TRA     s:3247

      166     3232    2       WHENALTRETURN DO;

      167     3233                /* unable to get a new LDCT for the NC DCB */
      168     3234                /* free the major client slot */
      169     3235    2           MAJOR$->APPL.Z.LINK = KIS_MAJOR$->APPL.CLNTHD;

   3235  2 000057   200005 470500                    LDP0    MAJOR$,,AUTO
         2 000060   000000 471400 1                  LDP1    KIS_MAJOR$
         2 000061   100000 236100                    LDQ     0,,PR1
         2 000062   000000 552104                    STBQ    0,'04'O,PR0

      170     3236    2           KIS_MAJOR$->APPL.CLNTHD = SCID;

   3236  2 000063   200006 720100                    LXL0    SCID,,AUTO
         2 000064   000000 471400 1                  LDP1    KIS_MAJOR$
PL6.E3A0      #001=KIS$OSI_OPEN File=KIS$OSI.:E05TSI                             WED 07/30/97 00:39 Page:17
         2 000065   100000 440100                    SXL0    0,,PR1

      171     3237                %UNLOCK( G=KIS_OSILOCK);

   3238  2 000066   000000 630400 3                  EPPR0   0
         2 000067   000017 631400 xsym               EPPR1   B_VECTNIL+15
         2 000070   000000 701000 xent               TSX1    HFC$UNLOCK
         2 000071   000000 011000                    NOP     0

      172     3240    2           B$JIT.ERR = ERROSINOLDCT;

   3240  2 000072   000002 236000 0                  LDQ     ERROSINOLDCT
         2 000073   000000 470400 xsym               LDP0    B$JIT$
         2 000074   000012 756100                    STQ     10,,PR0

      173     3241                /*E*  ERROR:  KIS-E$OSINOLDCT-A
      174     3242                    MESSAGE:  No more system LDCTs are available.
      175     3243                */
      176     3244    2           ALTRETURN;

   3244  2 000075   000000 702200 xent               TSX2  ! X66_AALT

      177     3245    2           END;
      178     3246            /* initialize interesting fields of the LDCT */
      179     3247    1       NK$LDCT.DEVNM = 'CLIENT  ';

   3247  2 000076   200004 470500                    LDP0    LDCT$,,AUTO
         2 000077   040100 100400                    MLR     fill='040'O
         2 000100   000003 000010 0                  ADSC9   ERROSINOLDCT+1           cn=0,n=8
         2 000101   000002 000010                    ADSC9   2,,PR0                   cn=0,n=8

      180     3248    1       NK$LDCT.RESCOD = %NK_OSIDCB;

   3248  2 000102   200004 470500                    LDP0    LDCT$,,AUTO
         2 000103   000006 236100                    LDQ     6,,PR0
         2 000104   000001 376000 3                  ANQ     1
         2 000105   000014 276007                    ORQ     12,DL
PL6.E3A0      #001=KIS$OSI_OPEN File=KIS$OSI.:E05TSI                             WED 07/30/97 00:39 Page:18
         2 000106   000006 756100                    STQ     6,,PR0

      181     3249    1       NK$LDCT.USER = B$JIT.USER;

   3249  2 000107   000000 471400 xsym               LDP1    B$JIT$
         2 000110   100000 236100                    LDQ     0,,PR1
         2 000111   000007 552120                    STBQ    7,'20'O,PR0

      182     3250    1       NK$LDCT.JLNKCNT = B$JIT.LNKCNT;

   3250  2 000112   100314 236100                    LDQ     204,,PR1
         2 000113   000026 552104                    STBQ    22,'04'O,PR0

      183     3251    1       NK$LDCT.DCBNO = B$JIT.DCBNO;

   3251  2 000114   100022 236100                    LDQ     18,,PR1
         2 000115   000014 552104                    STBQ    12,'04'O,PR0

      184     3252    1       NK$LDCT.TH.STR = SCID;

   3252  2 000116   200006 236100                    LDQ     SCID,,AUTO
         2 000117   000022 736000                    QLS     18
         2 000120   000016 552120                    STBQ    14,'20'O,PR0

      185     3253    1       NK$LDCT.LKFLG.ACTIVE = '1'B;

   3253  2 000121   000040 236003                    LDQ     32,DU
         2 000122   000011 256100                    ORSQ    9,,PR0

      186     3254    1       NK$LDCT.DFLG.INPUT = '1'B;

   3254  2 000123   400000 236007                    LDQ     -131072,DL
         2 000124   000006 256100                    ORSQ    6,,PR0

      187     3255    1       NK$LDCT.DFLG.OUTPUT = '1'B;

   3255  2 000125   200000 236007                    LDQ     65536,DL
PL6.E3A0      #001=KIS$OSI_OPEN File=KIS$OSI.:E05TSI                             WED 07/30/97 00:39 Page:19
         2 000126   000006 256100                    ORSQ    6,,PR0

      188     3256    1       NK$LDCT.LKFLG.OBLK = '0'B;

   3256  2 000127   000002 236000 3                  LDQ     2
         2 000130   000011 356100                    ANSQ    9,,PR0

      189     3257    1       NK$LDCT.LKFLG.WTMRK = '0'B;

   3257  2 000131   000003 236000 3                  LDQ     3
         2 000132   000011 356100                    ANSQ    9,,PR0

      190     3258            /* ..and initialize the major client slot */
      191     3259    1       MAJOR$->APPL.LDCTX = NK$LDCT.LDCTX;

   3259  2 000133   000006 220100                    LDX0    6,,PR0
         2 000134   200005 473500                    LDP3    MAJOR$,,AUTO
         2 000135   300000 740100                    STX0    0,,PR3

      192     3260    1       MAJOR$->APPL.Z.LINK = 0;

   3260  2 000136   000000 236003                    LDQ     0,DU
         2 000137   300000 552104                    STBQ    0,'04'O,PR3

      193     3261    1       MAJOR$->APPL.Z.USER = B$JIT.USER;

   3261  2 000140   000000 470400 xsym               LDP0    B$JIT$
         2 000141   000000 236100                    LDQ     0,,PR0
         2 000142   000011 772000                    QRL     9
         2 000143   300000 552110                    STBQ    0,'10'O,PR3

      194     3262            %UNLOCK( G=KIS_OSILOCK);

   3263  2 000144   000000 630400 3                  EPPR0   0
         2 000145   000017 631400 xsym               EPPR1   B_VECTNIL+15
         2 000146   000000 701000 xent               TSX1    HFC$UNLOCK
         2 000147   000000 011000                    NOP     0
PL6.E3A0      #001=KIS$OSI_OPEN File=KIS$OSI.:E05TSI                             WED 07/30/97 00:39 Page:20

      195     3265            /* fill in the DCB and mark it open */
      196     3266    1       F$DCB.LDCTX = NK$LDCT.LDCTX;

   3266  2 000150   200004 470500                    LDP0    LDCT$,,AUTO
         2 000151   000006 220100                    LDX0    6,,PR0
         2 000152   200003 471500                    LDP1    JDCB$,,AUTO
         2 000153   100051 740100                    STX0    41,,PR1

      197     3267    1       F$DCB.FCD = %YES#;

   3267  2 000154   020000 236007                    LDQ     8192,DL
         2 000155   100031 256100                    ORSQ    25,,PR1

      198     3268            /* stash away the major SCID for later M$READ/M$WRITE */
      199     3269    1       F$DCB.DVFC = BINASC( SCID);

   3269  2 000156   200006 236100                    LDQ     SCID,,AUTO
         2 000157   000033 736000                    QLS     27
         2 000160   000004 276000 3                  ORQ     4
         2 000161   000022 772000                    QRL     18
         2 000162   100044 552110                    STBQ    36,'10'O,PR1

      200     3270    1       RETURN;

   3270  2 000163   000000 702200 xent               TSX2  ! X66_ARET

ERRMAJORTBL
 Sect OctLoc
   0     000   131123 431337                                                    YS..

ERRNCOPEN
 Sect OctLoc
   0     001   131123 431357                                                    YS..

ERROSINOLDCT
 Sect OctLoc
PL6.E3A0      #001=KIS$OSI_OPEN File=KIS$OSI.:E05TSI                             WED 07/30/97 00:39 Page:21
   0     002   131123 431377                                                    YS..

(unnamed)
 Sect OctLoc
   0     003   103114 111105   116124 040040                                    CLIENT

KIS_OSILOCK
 Sect OctLoc
   1     002   400000 000000   000000 000000                                    ........

(unnamed)
 Sect OctLoc
   3     000   000002 006000   777777 777760   577777 777777   757777 777777    ................
   3     004   000040 040040                                                    .
      201     3271
      202     3272    1       END KIS$OSI_OPEN;
      203     3273        %EOD;

PL6.E3A0      #001=KIS$OSI_OPEN File=KIS$OSI.:E05TSI                             WED 07/30/97 00:39 Page:22
--  Include file information  --

   F$DCB.:E05TOU  is referenced.
   UM_CP6.:E05TOU  is referenced.
   NK$LDCT.:E05TOU  is referenced.
   NK_SUBS.:E05TOU  is referenced.
   NK_LDCT_R.:E05TOU  cannot be made into a system file and is referenced.
   K_SESSION_M.:E05TOU  is referenced.
   K_ADDRESS_M.:E05TOU  is referenced.
   KI_ERRORS_C.:E05TOU  is referenced.
   HF_LOCK_C.:E05TOU  cannot be made into a system file and is referenced.
   CP_6_SUBS.:E05TOU  is referenced.
   B$JIT_C.:E05TOU  is referenced.
      No diagnostics issued in procedure KIS$OSI_OPEN.
PL6.E3A0      #001=KIS$OSI_OPEN File=KIS$OSI.:E05TSI                             WED 07/30/97 00:39 Page:23

 **** Variables and constants ****

  ****  Section 000 RoData KIS$OSI_OPEN

  ****  Scalars and arrays  ****
OctLoc.c.b A Datatyp(siz) R M Lvl/name                 OctLoc.c.b A Datatyp(siz) R M Lvl/name

     0-0-0/w STRC        r     1 ERRMAJORTBL                1-0-0/w STRC        r     1 ERRNCOPEN
     2-0-0/w STRC        r     1 ERROSINOLDCT

  ****  Section 001  Data  KIS$OSI_OPEN

  ****  Scalars and arrays  ****
OctLoc.c.b A Datatyp(siz) R M Lvl/name                 OctLoc.c.b A Datatyp(siz) R M Lvl/name

     0-0-0/w PTR         r     1 KIS_MAJOR$                 2-0-0/b BIT (72)    r     1 KIS_OSILOCK

  ****  Auto variables  ****

  ****  Scalars and arrays  ****
OctLoc.c.b A Datatyp(siz) R M Lvl/name                 OctLoc.c.b A Datatyp(siz) R M Lvl/name

     3-0-0/w PTR         r     1 JDCB$                      4-0-0/w PTR         r     1 LDCT$
     5-0-0/w PTR         r     1 MAJOR$                     6-0-0/w SBIN        r     1 SCID

  ****  SYMREF variables  ****

  ****  Scalars and arrays  ****
OctLoc.c.b A Datatyp(siz) R M Lvl/name                 OctLoc.c.b A Datatyp(siz) R M Lvl/name

     0-0-0/w PTR         r     1 B$JIT$                     0-0-0/w PTR         r     1 N$DCT$$

  ****  BASED and DCB variables  ****

  ****  Scalars and arrays  ****
OctLoc.c.b A Datatyp(siz) R M Lvl/name                 OctLoc.c.b A Datatyp(siz) R M Lvl/name

PL6.E3A0      #001=KIS$OSI_OPEN File=KIS$OSI.:E05TSI                             WED 07/30/97 00:39 Page:24
     0-0-0/w STRC(360)   r     1 APPL                       0-0-0/d STRC(8856)  r     1 B$JIT
     0-0-0/d ASTR(3528)  r     1 F$DCB                      0-0-0/d STRC(864)   r     1 NK$LDCT


   Procedure KIS$OSI_OPEN requires 116 words for executable code.
   Procedure KIS$OSI_OPEN requires 10 words of local(AUTO) storage.
PL6.E3A0      #001=KIS$OSI_OPEN File=KIS$OSI.:E05TSI                             WED 07/30/97 00:39 Page:25
          *** CROSS REFERENCE LISTING ***
**     DENOTES     IDENTIFIER DEFINITION
<<                 IDENTIFIER'S VALUE SET
>>                 IDENTIFIER'S VALUE USED
<>                 IDENTIFIER SET AND/OR USED
--                 IDENTIFIER REFERENCED
PL6.E3A0      #001=KIS$OSI_OPEN File=KIS$OSI.:E05TSI                             WED 07/30/97 00:39 Page:26
          MINI XREF LISTING

APPL.CLNTHD
      1863**DCL      1864--REDEF    3215>>IF       3216>>ASSIGN   3218<<ASSIGN   3235>>ASSIGN   3236<<ASSIGN
APPL.LDCTX
      1861**DCL      3259<<ASSIGN
APPL.TCTX
      1860**DCL      1861--REDEF    1862--REDEF
APPL.Z.COOKIE
      1865**DCL      1866--REDEF
APPL.Z.LINK
      1867**DCL      3218>>ASSIGN   3235<<ASSIGN   3260<<ASSIGN
APPL.Z.USER
      1866**DCL      3261<<ASSIGN
B$JIT.DCB$
       506**DCL      3202>>ASSIGN
B$JIT.DCBNO
       497**DCL      3251>>ASSIGN
B$JIT.ERR
       416**DCL      3205<<ASSIGN   3225<<ASSIGN   3240<<ASSIGN
B$JIT.ERR.MID
       417**DCL       417--REDEF
B$JIT.LNKCNT
       535**DCL      3250>>ASSIGN
B$JIT.USER
       416**DCL      3249>>ASSIGN   3261>>ASSIGN
B$JIT$
      3191**DCL       411--IMP-PTR  3202>>ASSIGN   3205>>ASSIGN   3225>>ASSIGN   3240>>ASSIGN   3249>>ASSIGN
      3250>>ASSIGN   3251>>ASSIGN   3261>>ASSIGN
ERRMAJORTBL
      2957**DCL      3225>>ASSIGN
ERRNCOPEN
      3005**DCL      3205>>ASSIGN
ERROSINOLDCT
PL6.E3A0      #001=KIS$OSI_OPEN File=KIS$OSI.:E05TSI                             WED 07/30/97 00:39 Page:27
      3053**DCL      3240>>ASSIGN
F$DCB.ACTPOS
      3164**DCL      3164--REDEF
F$DCB.ARS
      3139**DCL      3139--REDEF
F$DCB.ATTR
      3157**DCL      3158--REDEF
F$DCB.BORROW
      3172**DCL      3172--REDEF    3172--REDEF    3172--REDEF
F$DCB.DCBNAME.L
      3186**DCL      3186--IMP-SIZ
F$DCB.DVFC
      3160**DCL      3269<<ASSIGN
F$DCB.EOMCHAR
      3143**DCL      3143--REDEF
F$DCB.FCD
      3152**DCL      3203>>IF       3267<<ASSIGN
F$DCB.FLDID
      3167**DCL      3167--REDEF
F$DCB.FORM$
      3161**DCL      3161--REDEF
F$DCB.FSECT
      3177**DCL      3177--REDEF
F$DCB.FSN
      3154**DCL      3154--REDEF    3154--REDEF    3155--REDEF
F$DCB.HEADER$
      3160**DCL      3160--REDEF
F$DCB.IXTNSIZE
      3158**DCL      3158--REDEF
F$DCB.LASTSTA$
      3148**DCL      3148--REDEF
F$DCB.LDCTX
      3161**DCL      3203>>IF       3266<<ASSIGN
F$DCB.LVL
      3173**DCL      3173--REDEF
F$DCB.NAME.C
PL6.E3A0      #001=KIS$OSI_OPEN File=KIS$OSI.:E05TSI                             WED 07/30/97 00:39 Page:28
      3148**DCL      3148--REDEF
F$DCB.NOEOF
      3169**DCL      3169--REDEF
F$DCB.NRECS
      3159**DCL      3159--REDEF
F$DCB.NRECX
      3178**DCL      3178--REDEF
F$DCB.OHDR
      3170**DCL      3170--REDEF
F$DCB.ORG
      3153**DCL      3153--REDEF
F$DCB.PRECNO
      3176**DCL      3176--REDEF
F$DCB.RCSZ
      3181**DCL      3181--REDEF
F$DCB.RES
      3149**DCL      3149--REDEF
F$DCB.SETX
      3161**DCL      3161--REDEF
F$DCB.TAB$
      3160**DCL      3161--REDEF
F$DCB.TDA
      3175**DCL      3175--REDEF
F$DCB.WSN
      3150**DCL      3150--REDEF
HFC$LOCK
      1157**DCL-ENT  3213--CALL
HFC$UNLOCK
      1157**DCL-ENT  3223--CALL     3238--CALL     3263--CALL
JDCB$
      3197**DCL      3139--IMP-PTR  3202<<ASSIGN   3203>>IF       3203>>IF       3266>>ASSIGN   3267>>ASSIGN
      3269>>ASSIGN
KIS_MAJOR$
      3193**DCL      3215>>IF       3216>>ASSIGN   3217>>ASSIGN   3218>>ASSIGN   3235>>ASSIGN   3236>>ASSIGN
KIS_OSILOCK
      3195**DCL      3213<>CALL     3223<>CALL     3238<>CALL     3263<>CALL
PL6.E3A0      #001=KIS$OSI_OPEN File=KIS$OSI.:E05TSI                             WED 07/30/97 00:39 Page:29
LDCT$
      3198**DCL      2054--IMP-PTR  3231<>CALL     3247>>ASSIGN   3248>>ASSIGN   3249>>ASSIGN   3250>>ASSIGN
      3251>>ASSIGN   3252>>ASSIGN   3253>>ASSIGN   3254>>ASSIGN   3255>>ASSIGN   3256>>ASSIGN   3257>>ASSIGN
      3259>>ASSIGN   3266>>ASSIGN
MAJOR$
      3199**DCL      3217<<ASSIGN   3218>>ASSIGN   3235>>ASSIGN   3259>>ASSIGN   3260>>ASSIGN   3261>>ASSIGN
N$DCT$$
      1912**DCL      1912--IMP-PTR
NK$LDCT.DCBNO
      2078**DCL      3251<<ASSIGN
NK$LDCT.DDT$
      2056**DCL      2056--REDEF
NK$LDCT.DEVNM
      2056**DCL      3247<<ASSIGN
NK$LDCT.DFLG.INPUT
      2058**DCL      3254<<ASSIGN
NK$LDCT.DFLG.OUTPUT
      2058**DCL      3255<<ASSIGN
NK$LDCT.IOQ$
      2055**DCL      2056--REDEF
NK$LDCT.JLNKCNT
      2085**DCL      3250<<ASSIGN
NK$LDCT.LDCTX
      2057**DCL      2057--REDEF    3259>>ASSIGN   3266>>ASSIGN
NK$LDCT.LKFLG.ABORTED
      2069**DCL      2070--REDEF
NK$LDCT.LKFLG.ACTIVE
      2073**DCL      3253<<ASSIGN
NK$LDCT.LKFLG.OBLK
      2069**DCL      3256<<ASSIGN
NK$LDCT.LKFLG.WTMRK
      2070**DCL      3257<<ASSIGN
NK$LDCT.RESCOD
      2062**DCL      3248<<ASSIGN
NK$LDCT.RLCID.LDCTX
      2079**DCL      2079--REDEF
PL6.E3A0      #001=KIS$OSI_OPEN File=KIS$OSI.:E05TSI                             WED 07/30/97 00:39 Page:30
NK$LDCT.STA$
      2075**DCL      2076--REDEF
NK$LDCT.SYMB$
      2054**DCL      2054--REDEF    2054--REDEF    2055--REDEF
NK$LDCT.TH.STR
      2080**DCL      3252<<ASSIGN
NK$LDCT.USER
      2064**DCL      3249<<ASSIGN
NKL$GETDCT
      3189**DCL-ENT  3231--CALL
SCID
      3200**DCL      3216<<ASSIGN   3217>>ASSIGN   3236>>ASSIGN   3252>>ASSIGN   3269>>ASSIGN

PL6.E3A0      #002=KIS$OSI_CLOSE File=KIS$OSI.:E05TSI                            WED 07/30/97 00:40 Page:31
      204        1        /*T***********************************************************/
      205        2        /*T*                                                         */
      206        3        /*T* Copyright (c) Bull HN Information Systems Inc., 1997    */
      207        4        /*T*                                                         */
      208        5        /*T***********************************************************/
      209        6        /*F*    NAME:   KIS$OSI_CLOSE
      210        7                PURPOSE:  Handle M$CLOSE of RES=NC DCB.
      211        8        */
      212        9        /*D*    NAME:   KIS$OSI_CLOSE
      213       10                CALL:   CALL KIS$OSI_CLOSE ALTRET( label);
      214       11                INPUT:
      215       12                    B$JIT.DCB$ - an opened DCB specifying RES=NC.
      216       13                    This code assumed reachable only by RES=NC.  Only FCD, DVFC and
      217       14                    LDCTX are checked; everything else in the DCB is irrelevant.
      218       15                OUTPUT:
      219       16                    On successful call,
      220       17                      Any associated Transport connections are dropped,
      221       18                      The NK_OSIDCB LDCT is released,
      222       19                      The major client slot is released,
      223       20                      B$JIT.DCB$->F$DCB.FCD marked closed.
      224       21                      B$JIT.DCB$->F$DCB.DVFC set to zero.
      225       22                      B$JIT.DCB$->F$DCB.LDCTX set to zero.
      226       23                    On unsuccessful call,
      227       24                      B$JIT.ERROR is filled in with an appropriate error,
      228       25                      ALTRETURN is taken.
      229       26                      The returned error KIS-E$TRANSPORT indicates trouble releasing
      230       27                      an underlying Transport connection; in this case the LDCT is
      231       28                      not released and other information is left around to help debug
      232       29                      the problem.
      233       30                DESCRIPTION:
      234       31                    KIS$OSI_CLOSE is called when an OSI client application no longer
      235       32                    wishes to keep a server connection open.  It is entered from
      236       33                    FSP$CLSDEV when a RES=NC DCB is M$CLOSE'd.
      237       34
      238       35                    If there is an associated Transport connection still open
      239       36                    KIT$SEND is called to abort it.
      240       37        */
PL6.E3A0      #002=KIS$OSI_CLOSE File=KIS$OSI.:E05TSI                            WED 07/30/97 00:40 Page:32
      241       38        KIS$OSI_CLOSE: PROC ALTRET;
      242       39        %INCLUDE B$JIT_C;
      243      353            %B$JIT0;
      244      442            %U$JIT1X;
      245      445            %M$JIT2X;
      246      448            %F$JIT3;
      247      453            %S$JIT4X;
      248      456            %J$JIT5;
      249      544            %A$JIT6X;
      250      547        %INCLUDE CP_6_SUBS;
      251     1087        %INCLUDE HF_LOCK_C;
      252     1101        %INCLUDE KI_ERRORS_C;
      253     1186        %INCLUDE K_ADDRESS_M;
      254     1689        %INCLUDE K_DATA_R;
      255     2400            %K$RWPARM( NAME=K$RWPARM, STCLASS=AUTO);
      256     2716        %INCLUDE K_INTERFACE_M;
      257     3125        %INCLUDE K_SESSION_M;
      258     3215            %KIS$APPL( NAME=APPL, STCLASS=BASED);
      259     3284        %INCLUDE K_SUBS_C;
      260     3317        %INCLUDE K_TRANSPORT_E;
      261     3642        %INCLUDE NK_LDCT_R;
      262     3651        %INCLUDE NK_SUBS;
      263     3676        %INCLUDE NK$LDCT;
      264     3778            %NK$LDCT( STCLASS="BASED( LDCT$)");
      265     3824        %INCLUDE UM_CP6;
      266     4676        %MACRO ERRCODE( NAME=ERRDUMMY, CODE=0);
      267     4677            %VLP_ERRCODE( FPTN=NAME, STCLASS=CONSTANT, FCG='KI', MID='S',
      268     4678                          MON='1'B, ERR#=CODE, SEV=7);
      269     4679        %MEND;
      270     4680            %ERRCODE( NAME=ERRBADSCID, CODE=%E$BADSCID);
      271     4728            %ERRCODE( NAME=ERRNCCLOSED, CODE=%E$NCCLOSED);
      272     4776            %ERRCODE( NAME=ERRNOTOSIDCB, CODE=%E$NOTOSIDCB);
      273     4824            %ERRCODE( NAME=ERRTRANSPORT, CODE=%E$TRANSPORT);
      274     4872            %ERRCODE( NAME=ERRWRONGLDCT, CODE=%E$WRONGLDCT);
      275     4920        %MACRO F$DCBI( BASED=BASED);
      276     4921        %INCLUDE F$DCB;
      277     4970        %MEND;
PL6.E3A0      #002=KIS$OSI_CLOSE File=KIS$OSI.:E05TSI                            WED 07/30/97 00:40 Page:33
      278     4971            %F$DCBI( BASED="BASED( JDCB$)");
      279     5021
      280     5022    1       DCL KIA$COMP ENTRY(2);
      281     5023    1       DCL KIT$SEND ENTRY(1) ALTRET;
      282     5024    1       DCL NKL$RELDCT ENTRY(1) ALTRET;
      283     5025    1       DCL SC_PRTCL_SNAP ENTRY CONV(2,0);
      284     5026
      285     5027    1       DCL B$JIT$ PTR SYMREF;
      286     5028    1       DCL KIS_MAJOR$ PTR SYMREF;
      287     5029    1       DCL KIS_MINOR$ PTR SYMREF;
      288     5030    1       DCL KIS_OSILOCK BIT(72) SYMREF;
      289     5031    1       DCL KIS_SSN_MAXMAJOR UBIN SYMREF;
      290     5032
      291     5033    1       DCL JDCB$ PTR;
      292     5034    1       DCL LDCT$ PTR;
      293     5035    1       DCL LINK SBIN;
      294     5036    1       DCL MAJOR$ PTR;
      295     5037    1       DCL MINOR$ PTR;
      296     5038    1       DCL SCID SBIN;
      297     5039
      298     5040    1       JDCB$ = B$JIT.DCB$;
      299     5041    2       IF F$DCB.LDCTX = 0 OR F$DCB.FCD ~= %YES# THEN DO;
      300     5042                /* looks like the DCB is not open */
      301     5043    2           B$JIT.ERR = ERRNCCLOSED;
      302     5044                /*E*  ERROR:  KIS-E$NCCLOSED-A
      303     5045                    MESSAGE:  That NC DCB is already closed.
      304     5046                */
      305     5047    2           ALTRETURN;
      306     5048    2           END;
      307     5049    1       SCID = ASCBIN( F$DCB.DVFC);
      308     5050    2       IF SCID > KIS_SSN_MAXMAJOR THEN DO;
      309     5051                /* no way can that be a legal major client slot index */
      310     5052    2           B$JIT.ERR = ERRBADSCID;
      311     5053                /*E*  ERROR:  KIS-E$BADSCID-A
      312     5054                    MESSAGE:  Bad Session connection identifier.
      313     5055                */
      314     5056    2   SNAP:
PL6.E3A0      #002=KIS$OSI_CLOSE File=KIS$OSI.:E05TSI                            WED 07/30/97 00:40 Page:34
      315     5057    2           CALL SC_PRTCL_SNAP;
      316     5058    2           ALTRETURN;
      317     5059    2           END;
      318     5060    1       MAJOR$ = PINCRW( KIS_MAJOR$, SCID);
      319     5061    1       LDCT$ = NK$LDCT$( MAJOR$->APPL.LDCTX);
      320     5062    1       IF LDCT$ ~= NK$LDCT$( F$DCB.LDCTX) OR
      321     5063    1               NK$LDCT.USER ~= B$JIT.USER OR
      322     5064    2               NK$LDCT.TH.STR ~= SCID THEN DO;
      323     5065                /* consistency check failed */
      324     5066    2           B$JIT.ERR = ERRWRONGLDCT;
      325     5067                /*E*  ERROR:  KIS-E$WRONGLDCT-A
      326     5068                    MESSAGE:  Internal error.  That LDCT doesn't belong to you.
      327     5069                */
      328     5070    2           GOTO SNAP;
      329     5071    2           END;
      330     5072    2       IF NK$LDCT.RESCOD ~= %NK_OSIDCB THEN DO;
      331     5073                /* incorrect LDCT.RESCOD for this operation */
      332     5074    2           B$JIT.ERR = ERRNOTOSIDCB;
      333     5075                /*E*  ERROR:  KIS-E$NOTOSIDCB-A
      334     5076                    MESSAGE:  Internal error.  That LDCT has the wrong RESCOD.
      335     5077                */
      336     5078    2           GOTO SNAP;
      337     5079    2           END;
      338     5080            /* if there are NoWait reads pending, cancel them */
      339     5081    1       IF F$DCB.FCN.CNT(0) > 0 THEN
      340     5082    2           DO WHILE( NK$LDCT.LKFLG.NOWAIT);
      341     5083    2               K$RWPARM = K_RWPARM_CON;
      342     5084    2               K$RWPARM.MSG_ERRCODE = ERRNCCLOSED;
      343     5085    2               K$RWPARM.TYC = %TYC_EOF;
      344     5086    2               CALL KIA$COMP( NK$LDCT, K$RWPARM);
      345     5087    2               END;
      346     5088    1       K$RWPARM = K_RWPARM_CON;
      347     5089    1       K$RWPARM.FUNCTION = %K_TDISCONNECT_REQ;
      348     5090    1       K$RWPARM.ERR = %K_REASON_NOTSPEC;
      349     5091    1       B$JIT.ERR = '0'B;
      350     5092            %LOCK( G=KIS_OSILOCK);
      351     5095    1       NK$LDCT.LKFLG.ACTIVE = '0'B;
PL6.E3A0      #002=KIS$OSI_CLOSE File=KIS$OSI.:E05TSI                            WED 07/30/97 00:40 Page:35
      352     5096    1       LINK = MAJOR$->APPL.Z.LINK;
      353     5097    2       IF LINK ~= 0 THEN DO;
      354     5098    2           MINOR$ = PINCRW( KIS_MINOR$, LINK);
      355     5099    3           IF MINOR$->APPL.TCTX ~= 0 THEN DO;
      356     5100                    /* here's a Transport connection that's still open.  Gulp. */
      357     5101    3               K$RWPARM.TCTX# = MINOR$->APPL.TCTX;
      358     5102                    /* try to disconnect it */
      359     5103    3               CALL KIT$SEND( K$RWPARM)
      360     5104    4               WHENRETURN DO;
      361     5105                        /* Whew, it worked */
      362     5106    4                   MINOR$->APPL.TCTX = 0;
      363     5107    4                   END;
      364     5108    4               WHENALTRETURN DO;
      365     5109                        /* Transport was unable to disconnect this one */
      366     5110    4                   IF K$RWPARM.ERR = %K$USER_ERR THEN
      367     5111    4                       B$JIT.ERR = K$RWPARM.MSG_ERRCODE;
      368     5112    5                   ELSE DO;
      369     5113    5                       B$JIT.ERR = ERRTRANSPORT;
      370     5114                            /*E*  ERROR:  KIS-E$TRANSPORT-A
      371     5115                                MESSAGE:  Internal error.  Transport ALTRETURN.
      372     5116                            */
      373     5117                            /* Don't ALTRETURN here.. try to drop other connections */
      374     5118    5                       CALL SC_PRTCL_SNAP;
      375     5119    5                       END;
      376     5120    4                   END;
      377     5121    3               END;
      378     5122    2           END;
      379     5123    2       IF B$JIT.ERR = '0'B THEN DO;
      380     5124                /* the Transport link dropped, or there wasn't one to drop */
      381     5125    2           CALL NKL$RELDCT( LDCT$);
      382     5126                /* release the minor client slot, if any */
      383     5127    3           IF LINK ~= 0 THEN DO;
      384     5128    3               MINOR$->APPL.Z.LINK = KIS_MINOR$->APPL.Z.LINK;
      385     5129    3               KIS_MINOR$->APPL.Z.LINK = MAJOR$->APPL.Z.LINK;
      386     5130    3               END;
      387     5131                /* release the major client slot */
      388     5132    2           MAJOR$->APPL.LDCTX = 0;
PL6.E3A0      #002=KIS$OSI_CLOSE File=KIS$OSI.:E05TSI                            WED 07/30/97 00:40 Page:36
      389     5133    2           MAJOR$->APPL.Z.USER = 0;
      390     5134    2           MAJOR$->APPL.Z.LINK = KIS_MAJOR$->APPL.CLNTHD;
      391     5135    2           KIS_MAJOR$->APPL.CLNTHD = SCID;
      392     5136    2           END;
      393     5137            %UNLOCK( G=KIS_OSILOCK);
      394     5140            /* mark DCB closed */
      395     5141    1       F$DCB.FCD = %NO#;
      396     5142            /* scrub other DCB fields we used */
      397     5143    1       F$DCB.LDCTX = 0;
      398     5144    1       F$DCB.DVFC = BINASC( 0);
      399     5145    1       IF B$JIT.ERR THEN
      400     5146                /* lower layer error of some kind */
      401     5147    1           ALTRETURN;
      402     5148    1       RETURN;
      403     5149
      404     5150    1       END KIS$OSI_CLOSE;
      405     5151        %EOD;

PL6.E3A0      #002=KIS$OSI_CLOSE File=KIS$OSI.:E05TSI                            WED 07/30/97 00:40 Page:37
--  Include file information  --

   F$DCB.:E05TOU  is referenced.
   UM_CP6.:E05TOU  is referenced.
   NK$LDCT.:E05TOU  is referenced.
   NK_SUBS.:E05TOU  is referenced.
   NK_LDCT_R.:E05TOU  cannot be made into a system file and is referenced.
   K_TRANSPORT_E.:E05TOU  is referenced.
   K_SUBS_C.:E05TOU  is referenced.
   K_SESSION_M.:E05TOU  is referenced.
   K_INTERFACE_M.:E05TOU  is referenced.
   K$RWPARM.:E05TOU  is referenced.
   K_DATA_R.:E05TOU  cannot be made into a system file and is referenced.
   K_ADDRESS_M.:E05TOU  is referenced.
   KI_ERRORS_C.:E05TOU  is referenced.
   HF_LOCK_C.:E05TOU  cannot be made into a system file and is referenced.
   CP_6_SUBS.:E05TOU  is referenced.
   B$JIT_C.:E05TOU  is referenced.
      No diagnostics issued in procedure KIS$OSI_CLOSE.

   Procedure KIS$OSI_CLOSE requires 178 words for executable code.
   Procedure KIS$OSI_CLOSE requires 52 words of local(AUTO) storage.

PL6.E3A0      #002=KIS$OSI_CLOSE File=KIS$OSI.:E05TSI                            WED 07/30/97 00:40 Page:38

 Object Unit name= KIS$OSI_CLOSE                              File name= KIS$OSI.:E05TOU
 UTS= JUL 30 '97 00:40:25.44 WED                              Compiler= PL-6/E31         Sev=      00
 SharedLib= :SHARED_SYSTEM                                    Alt SharedLib=


    ****  Control sections  ****

 Sect   Type Bound  Init  Size OctSiz  Section name(segment info)
    0  RoData even  UTS      6      6  KIS$OSI_CLOSE
    1   Proc  even  none   178    262  KIS$OSI_CLOSE
    2  RoData even  none     3      3  KIS$OSI_CLOSE

    ****  Entry defs  ****

                              Check   Calling
                             calling  sequence
  Sect OctLoc Primary Altret sequence   type   Parms  Name
     1      0   yes    yes     yes      Std        0  KIS$OSI_CLOSE

  ****  Entry refs  ****

         Check        Calling
        calling       sequence
Altret sequence SRef   type   Args  Name
         yes           Std       1 HFC$UNLOCK
         yes           Std       2 KIA$COMP
 yes     yes           Std       1 KIT$SEND
         yes           Std       1 HFC$LOCK
 yes     yes           Std       1 NKL$RELDCT
                       nStd      0 X66_AUTO_0
                       nStd      0 X66_AALT
                       Std       0 B_CONSPOOL_D
                       nStd      0 X66_ARET
PL6.E3A0      #002=KIS$OSI_CLOSE File=KIS$OSI.:E05TSI                            WED 07/30/97 00:40 Page:39

  ****  Data refs  ****

  Flags:  r = read only, s = secondary
Flgs Name                             Flgs Name                             Flgs Name
     SC_PRTCL_SNAP                    r    K_RWPARM_CON                          N$DCT$$
     B$JIT$                                KIS_MAJOR$                            KIS_MINOR$
     KIS_OSILOCK                           KIS_SSN_MAXMAJOR                      B_VECTNIL

  ****  Segment refs  ****

  Flags:  r = read only, s = secondary
Flgs Name                             Flgs Name                             Flgs Name
     ASLENTSID                             ISSID
PL6.E3A0      #002=KIS$OSI_CLOSE File=KIS$OSI.:E05TSI                            WED 07/30/97 00:40 Page:40


      204        1        /*T***********************************************************/
      205        2        /*T*                                                         */
      206        3        /*T* Copyright (c) Bull HN Information Systems Inc., 1997    */
      207        4        /*T*                                                         */
      208        5        /*T***********************************************************/
      209        6        /*F*    NAME:   KIS$OSI_CLOSE
      210        7                PURPOSE:  Handle M$CLOSE of RES=NC DCB.
      211        8        */
      212        9        /*D*    NAME:   KIS$OSI_CLOSE
      213       10                CALL:   CALL KIS$OSI_CLOSE ALTRET( label);
      214       11                INPUT:
      215       12                    B$JIT.DCB$ - an opened DCB specifying RES=NC.
      216       13                    This code assumed reachable only by RES=NC.  Only FCD, DVFC and
      217       14                    LDCTX are checked; everything else in the DCB is irrelevant.
      218       15                OUTPUT:
      219       16                    On successful call,
      220       17                      Any associated Transport connections are dropped,
      221       18                      The NK_OSIDCB LDCT is released,
      222       19                      The major client slot is released,
      223       20                      B$JIT.DCB$->F$DCB.FCD marked closed.
      224       21                      B$JIT.DCB$->F$DCB.DVFC set to zero.
      225       22                      B$JIT.DCB$->F$DCB.LDCTX set to zero.
      226       23                    On unsuccessful call,
      227       24                      B$JIT.ERROR is filled in with an appropriate error,
      228       25                      ALTRETURN is taken.
      229       26                      The returned error KIS-E$TRANSPORT indicates trouble releasing
      230       27                      an underlying Transport connection; in this case the LDCT is
      231       28                      not released and other information is left around to help debug
      232       29                      the problem.
      233       30                DESCRIPTION:
      234       31                    KIS$OSI_CLOSE is called when an OSI client application no longer
      235       32                    wishes to keep a server connection open.  It is entered from
      236       33                    FSP$CLSDEV when a RES=NC DCB is M$CLOSE'd.
      237       34
      238       35                    If there is an associated Transport connection still open
      239       36                    KIT$SEND is called to abort it.
PL6.E3A0      #002=KIS$OSI_CLOSE File=KIS$OSI.:E05TSI                            WED 07/30/97 00:40 Page:41
      240       37        */
      241       38        KIS$OSI_CLOSE: PROC ALTRET;

     38  1 000000   000000 700200 xent  KIS$OSI_CLO* TSX0  ! X66_AUTO_0
         1 000001   000064 000000                    ZERO    52,0

      242       39        %INCLUDE B$JIT_C;
      243      353            %B$JIT0;
      244      442            %U$JIT1X;
      245      445            %M$JIT2X;
      246      448            %F$JIT3;
      247      453            %S$JIT4X;
      248      456            %J$JIT5;
      249      544            %A$JIT6X;
      250      547        %INCLUDE CP_6_SUBS;
      251     1087        %INCLUDE HF_LOCK_C;
      252     1101        %INCLUDE KI_ERRORS_C;
      253     1186        %INCLUDE K_ADDRESS_M;
      254     1689        %INCLUDE K_DATA_R;
      255     2400            %K$RWPARM( NAME=K$RWPARM, STCLASS=AUTO);
      256     2716        %INCLUDE K_INTERFACE_M;
      257     3125        %INCLUDE K_SESSION_M;
      258     3215            %KIS$APPL( NAME=APPL, STCLASS=BASED);
      259     3284        %INCLUDE K_SUBS_C;
      260     3317        %INCLUDE K_TRANSPORT_E;
      261     3642        %INCLUDE NK_LDCT_R;
      262     3651        %INCLUDE NK_SUBS;
      263     3676        %INCLUDE NK$LDCT;
      264     3778            %NK$LDCT( STCLASS="BASED( LDCT$)");
      265     3824        %INCLUDE UM_CP6;
      266     4676        %MACRO ERRCODE( NAME=ERRDUMMY, CODE=0);
      267     4677            %VLP_ERRCODE( FPTN=NAME, STCLASS=CONSTANT, FCG='KI', MID='S',
      268     4678                          MON='1'B, ERR#=CODE, SEV=7);
      269     4679        %MEND;
      270     4680            %ERRCODE( NAME=ERRBADSCID, CODE=%E$BADSCID);
      271     4728            %ERRCODE( NAME=ERRNCCLOSED, CODE=%E$NCCLOSED);
      272     4776            %ERRCODE( NAME=ERRNOTOSIDCB, CODE=%E$NOTOSIDCB);
PL6.E3A0      #002=KIS$OSI_CLOSE File=KIS$OSI.:E05TSI                            WED 07/30/97 00:40 Page:42
      273     4824            %ERRCODE( NAME=ERRTRANSPORT, CODE=%E$TRANSPORT);
      274     4872            %ERRCODE( NAME=ERRWRONGLDCT, CODE=%E$WRONGLDCT);
      275     4920        %MACRO F$DCBI( BASED=BASED);
      276     4921        %INCLUDE F$DCB;
      277     4970        %MEND;
      278     4971            %F$DCBI( BASED="BASED( JDCB$)");
      279     5021
      280     5022    1       DCL KIA$COMP ENTRY(2);
      281     5023    1       DCL KIT$SEND ENTRY(1) ALTRET;
      282     5024    1       DCL NKL$RELDCT ENTRY(1) ALTRET;
      283     5025    1       DCL SC_PRTCL_SNAP ENTRY CONV(2,0);
      284     5026
      285     5027    1       DCL B$JIT$ PTR SYMREF;
      286     5028    1       DCL KIS_MAJOR$ PTR SYMREF;
      287     5029    1       DCL KIS_MINOR$ PTR SYMREF;
      288     5030    1       DCL KIS_OSILOCK BIT(72) SYMREF;
      289     5031    1       DCL KIS_SSN_MAXMAJOR UBIN SYMREF;
      290     5032
      291     5033    1       DCL JDCB$ PTR;
      292     5034    1       DCL LDCT$ PTR;
      293     5035    1       DCL LINK SBIN;
      294     5036    1       DCL MAJOR$ PTR;
      295     5037    1       DCL MINOR$ PTR;
      296     5038    1       DCL SCID SBIN;
      297     5039
      298     5040    1       JDCB$ = B$JIT.DCB$;

   5040  1 000002   000000 470400 xsym               LDP0    B$JIT$
         1 000003   000232 236100                    LDQ     154,,PR0
         1 000004   200054 756100                    STQ     JDCB$,,AUTO

      299     5041    2       IF F$DCB.LDCTX = 0 OR F$DCB.FCD ~= %YES# THEN DO;

   5041  1 000005   200054 471500                    LDP1    JDCB$,,AUTO
         1 000006   100051 220100                    LDX0    41,,PR1
         1 000007   000013 600000 1                  TZE     s:5043
         1 000010   100031 236100                    LDQ     25,,PR1
PL6.E3A0      #002=KIS$OSI_CLOSE File=KIS$OSI.:E05TSI                            WED 07/30/97 00:40 Page:43
         1 000011   020000 316007                    CANQ    8192,DL
         1 000012   000016 601000 1                  TNZ     s:5049

      300     5042                /* looks like the DCB is not open */
      301     5043    2           B$JIT.ERR = ERRNCCLOSED;

   5043  1 000013   000001 236000 0                  LDQ     ERRNCCLOSED
         1 000014   000012 756100                    STQ     10,,PR0

      302     5044                /*E*  ERROR:  KIS-E$NCCLOSED-A
      303     5045                    MESSAGE:  That NC DCB is already closed.
      304     5046                */
      305     5047    2           ALTRETURN;

   5047  1 000015   000000 702200 xent               TSX2  ! X66_AALT

      306     5048    2           END;
      307     5049    1       SCID = ASCBIN( F$DCB.DVFC);

   5049  1 000016   100044 236100                    LDQ     36,,PR1
         1 000017   000011 772000                    QRL     9
         1 000020   000777 376007                    ANQ     511,DL
         1 000021   200061 756100                    STQ     SCID,,AUTO

      308     5050    2       IF SCID > KIS_SSN_MAXMAJOR THEN DO;

   5050  1 000022   000033 604000 1                  TMI     s:5060
         1 000023   000000 116000 xsym               CMPQ    KIS_SSN_MAXMAJOR
         1 000024   000033 602000 1                  TNC     s:5060
         1 000025   000033 600000 1                  TZE     s:5060

      309     5051                /* no way can that be a legal major client slot index */
      310     5052    2           B$JIT.ERR = ERRBADSCID;

   5052  1 000026   000000 236000 0                  LDQ     ERRBADSCID
         1 000027   000012 756100                    STQ     10,,PR0

PL6.E3A0      #002=KIS$OSI_CLOSE File=KIS$OSI.:E05TSI                            WED 07/30/97 00:40 Page:44
      311     5053                /*E*  ERROR:  KIS-E$BADSCID-A
      312     5054                    MESSAGE:  Bad Session connection identifier.
      313     5055                */
      314     5056    2   SNAP:
      315     5057    2           CALL SC_PRTCL_SNAP;

   5057  1 000030   000000 713400 xsym  SNAP         CLIMB   SC_PRTCL_SNAP
         1 000031   000000 600000 xsid               climb   nvectors=         0

      316     5058    2           ALTRETURN;

   5058  1 000032   000000 702200 xent               TSX2  ! X66_AALT

      317     5059    2           END;
      318     5060    1       MAJOR$ = PINCRW( KIS_MAJOR$, SCID);

   5060  1 000033   000022 736000                    QLS     18
         1 000034   000000 036000 xsym               ADLQ    KIS_MAJOR$
         1 000035   200057 756100                    STQ     MAJOR$,,AUTO

      319     5061    1       LDCT$ = NK$LDCT$( MAJOR$->APPL.LDCTX);

   5061  1 000036   200057 473500                    LDP3    MAJOR$,,AUTO
         1 000037   300000 221100                    LDX1    0,,PR3
         1 000040   000000 474400 xsym               LDP4    N$DCT$$
         1 000041   400000 236111                    LDQ     0,X1,PR4
         1 000042   200055 756100                    STQ     LDCT$,,AUTO

      320     5062    1       IF LDCT$ ~= NK$LDCT$( F$DCB.LDCTX) OR

   5062  1 000043   100051 220100                    LDX0    41,,PR1
         1 000044   400000 116110                    CMPQ    0,X0,PR4
         1 000045   000060 601000 1                  TNZ     s:5066
         1 000046   200055 475500                    LDP5    LDCT$,,AUTO
         1 000047   500007 236100                    LDQ     7,,PR5
         1 000050   000000 676100                    ERQ     0,,PR0
         1 000051   000777 376003                    ANQ     511,DU
PL6.E3A0      #002=KIS$OSI_CLOSE File=KIS$OSI.:E05TSI                            WED 07/30/97 00:40 Page:45
         1 000052   000060 601000 1                  TNZ     s:5066
         1 000053   500016 236100                    LDQ     14,,PR5
         1 000054   000022 772000                    QRL     18
         1 000055   000777 376007                    ANQ     511,DL
         1 000056   200061 116100                    CMPQ    SCID,,AUTO
         1 000057   000063 600000 1                  TZE     s:5072

      321     5063    1               NK$LDCT.USER ~= B$JIT.USER OR
      322     5064    2               NK$LDCT.TH.STR ~= SCID THEN DO;

      323     5065                /* consistency check failed */
      324     5066    2           B$JIT.ERR = ERRWRONGLDCT;

   5066  1 000060   000004 236000 0                  LDQ     ERRWRONGLDCT
         1 000061   000012 756100                    STQ     10,,PR0

      325     5067                /*E*  ERROR:  KIS-E$WRONGLDCT-A
      326     5068                    MESSAGE:  Internal error.  That LDCT doesn't belong to you.
      327     5069                */
      328     5070    2           GOTO SNAP;

   5070  1 000062   000030 710000 1                  TRA     SNAP

      329     5071    2           END;
      330     5072    2       IF NK$LDCT.RESCOD ~= %NK_OSIDCB THEN DO;

   5072  1 000063   500006 236100                    LDQ     6,,PR5
         1 000064   000017 376007                    ANQ     15,DL
         1 000065   000014 116007                    CMPQ    12,DL
         1 000066   000072 600000 1                  TZE     s:5081

      331     5073                /* incorrect LDCT.RESCOD for this operation */
      332     5074    2           B$JIT.ERR = ERRNOTOSIDCB;

   5074  1 000067   000002 236000 0                  LDQ     ERRNOTOSIDCB
         1 000070   000012 756100                    STQ     10,,PR0

PL6.E3A0      #002=KIS$OSI_CLOSE File=KIS$OSI.:E05TSI                            WED 07/30/97 00:40 Page:46
      333     5075                /*E*  ERROR:  KIS-E$NOTOSIDCB-A
      334     5076                    MESSAGE:  Internal error.  That LDCT has the wrong RESCOD.
      335     5077                */
      336     5078    2           GOTO SNAP;

   5078  1 000071   000030 710000 1                  TRA     SNAP

      337     5079    2           END;
      338     5080            /* if there are NoWait reads pending, cancel them */
      339     5081    1       IF F$DCB.FCN.CNT(0) > 0 THEN

   5081  1 000072   100074 236100                    LDQ     60,,PR1
         1 000073   377000 316003                    CANQ    130560,DU
         1 000074   000123 600000 1                  TZE     s:5088

      340     5082    2           DO WHILE( NK$LDCT.LKFLG.NOWAIT);

   5082  1 000075   500011 236100                    LDQ     9,,PR5
         1 000076   000001 316003                    CANQ    1,DU
         1 000077   000123 600000 1                  TZE     s:5088

      341     5083    2               K$RWPARM = K_RWPARM_CON;

   5083  1 000100   000100 100400                    MLR     fill='000'O
         1 000101   000000 000234 xsym               ADSC9   K_RWPARM_CON             cn=0,n=156
         1 000102   200004 000234                    ADSC9   K$RWPARM,,AUTO           cn=0,n=156

      342     5084    2               K$RWPARM.MSG_ERRCODE = ERRNCCLOSED;

   5084  1 000103   000001 236000 0                  LDQ     ERRNCCLOSED
         1 000104   200043 756100                    STQ     K$RWPARM+31,,AUTO

      343     5085    2               K$RWPARM.TYC = %TYC_EOF;

   5085  1 000105   000005 236000 0                  LDQ     ERRWRONGLDCT+1
         1 000106   200012 756100                    STQ     K$RWPARM+6,,AUTO

PL6.E3A0      #002=KIS$OSI_CLOSE File=KIS$OSI.:E05TSI                            WED 07/30/97 00:40 Page:47
      344     5086    2               CALL KIA$COMP( NK$LDCT, K$RWPARM);

   5086  1 000107   200004 630500                    EPPR0   K$RWPARM,,AUTO
         1 000110   200063 450500                    STP0    SCID+2,,AUTO
         1 000111   200055 236100                    LDQ     LDCT$,,AUTO
         1 000112   200062 756100                    STQ     SCID+1,,AUTO
         1 000113   200062 630500                    EPPR0   SCID+1,,AUTO
         1 000114   000020 631400 xsym               EPPR1   B_VECTNIL+16
         1 000115   000000 701000 xent               TSX1    KIA$COMP
         1 000116   000000 011000                    NOP     0

      345     5087    2               END;

   5087  1 000117   200055 470500                    LDP0    LDCT$,,AUTO
         1 000120   000011 236100                    LDQ     9,,PR0
         1 000121   000001 316003                    CANQ    1,DU
         1 000122   000100 601000 1                  TNZ     s:5083

      346     5088    1       K$RWPARM = K_RWPARM_CON;

   5088  1 000123   000100 100400                    MLR     fill='000'O
         1 000124   000000 000234 xsym               ADSC9   K_RWPARM_CON             cn=0,n=156
         1 000125   200004 000234                    ADSC9   K$RWPARM,,AUTO           cn=0,n=156

      347     5089    1       K$RWPARM.FUNCTION = %K_TDISCONNECT_REQ;

   5089  1 000126   000031 235007                    LDA     25,DL
         1 000127   200024 755100                    STA     K$RWPARM+16,,AUTO

      348     5090    1       K$RWPARM.ERR = %K_REASON_NOTSPEC;

   5090  1 000130   200017 450100                    STZ     K$RWPARM+11,,AUTO

      349     5091    1       B$JIT.ERR = '0'B;

   5091  1 000131   000000 470400 xsym               LDP0    B$JIT$
         1 000132   000012 450100                    STZ     10,,PR0
PL6.E3A0      #002=KIS$OSI_CLOSE File=KIS$OSI.:E05TSI                            WED 07/30/97 00:40 Page:48

      350     5092            %LOCK( G=KIS_OSILOCK);

   5093  1 000133   000000 630400 2                  EPPR0   0
         1 000134   000017 631400 xsym               EPPR1   B_VECTNIL+15
         1 000135   000000 701000 xent               TSX1    HFC$LOCK
         1 000136   000000 011000                    NOP     0

      351     5095    1       NK$LDCT.LKFLG.ACTIVE = '0'B;

   5095  1 000137   200055 470500                    LDP0    LDCT$,,AUTO
         1 000140   000001 236000 2                  LDQ     1
         1 000141   000011 356100                    ANSQ    9,,PR0

      352     5096    1       LINK = MAJOR$->APPL.Z.LINK;

   5096  1 000142   200057 470500                    LDP0    MAJOR$,,AUTO
         1 000143   000000 236100                    LDQ     0,,PR0
         1 000144   000777 376007                    ANQ     511,DL
         1 000145   200056 756100                    STQ     LINK,,AUTO

      353     5097    2       IF LINK ~= 0 THEN DO;

   5097  1 000146   000204 600000 1                  TZE     s:5123

      354     5098    2           MINOR$ = PINCRW( KIS_MINOR$, LINK);

   5098  1 000147   000022 736000                    QLS     18
         1 000150   000000 036000 xsym               ADLQ    KIS_MINOR$
         1 000151   200060 756100                    STQ     MINOR$,,AUTO

      355     5099    3           IF MINOR$->APPL.TCTX ~= 0 THEN DO;

   5099  1 000152   200060 471500                    LDP1    MINOR$,,AUTO
         1 000153   100000 220100                    LDX0    0,,PR1
         1 000154   000204 600000 1                  TZE     s:5123

PL6.E3A0      #002=KIS$OSI_CLOSE File=KIS$OSI.:E05TSI                            WED 07/30/97 00:40 Page:49
      356     5100                    /* here's a Transport connection that's still open.  Gulp. */
      357     5101    3               K$RWPARM.TCTX# = MINOR$->APPL.TCTX;

   5101  1 000155   200037 740100                    STX0    K$RWPARM+27,,AUTO

      358     5102                    /* try to disconnect it */
      359     5103    3               CALL KIT$SEND( K$RWPARM)

   5103  1 000156   200004 633500                    EPPR3   K$RWPARM,,AUTO
         1 000157   200062 453500                    STP3    SCID+1,,AUTO
         1 000160   200062 630500                    EPPR0   SCID+1,,AUTO
         1 000161   000017 631400 xsym               EPPR1   B_VECTNIL+15
         1 000162   000000 701000 xent               TSX1    KIT$SEND
         1 000163   000170 702000 1                  TSX2    s:5110

      360     5104    4               WHENRETURN DO;

      361     5105                        /* Whew, it worked */
      362     5106    4                   MINOR$->APPL.TCTX = 0;

   5106  1 000164   000000 220003                    LDX0    0,DU
         1 000165   200060 470500                    LDP0    MINOR$,,AUTO
         1 000166   000000 740100                    STX0    0,,PR0

      363     5107    4                   END;

   5107  1 000167   000204 710000 1                  TRA     s:5123

      364     5108    4               WHENALTRETURN DO;

      365     5109                        /* Transport was unable to disconnect this one */
      366     5110    4                   IF K$RWPARM.ERR = %K$USER_ERR THEN

   5110  1 000170   200017 235100                    LDA     K$RWPARM+11,,AUTO
         1 000171   000010 115007                    CMPA    8,DL
         1 000172   000177 601000 1                  TNZ     s:5113

PL6.E3A0      #002=KIS$OSI_CLOSE File=KIS$OSI.:E05TSI                            WED 07/30/97 00:40 Page:50
      367     5111    4                       B$JIT.ERR = K$RWPARM.MSG_ERRCODE;

   5111  1 000173   200043 236100                    LDQ     K$RWPARM+31,,AUTO
         1 000174   000000 470400 xsym               LDP0    B$JIT$
         1 000175   000012 756100                    STQ     10,,PR0
         1 000176   000204 710000 1                  TRA     s:5123

      368     5112    5                   ELSE DO;

      369     5113    5                       B$JIT.ERR = ERRTRANSPORT;

   5113  1 000177   000003 236000 0                  LDQ     ERRTRANSPORT
         1 000200   000000 470400 xsym               LDP0    B$JIT$
         1 000201   000012 756100                    STQ     10,,PR0

      370     5114                            /*E*  ERROR:  KIS-E$TRANSPORT-A
      371     5115                                MESSAGE:  Internal error.  Transport ALTRETURN.
      372     5116                            */
      373     5117                            /* Don't ALTRETURN here.. try to drop other connections */
      374     5118    5                       CALL SC_PRTCL_SNAP;

   5118  1 000202   000000 713400 xsym               CLIMB   SC_PRTCL_SNAP
         1 000203   000000 600000 xsid               climb   nvectors=         0

      375     5119    5                       END;

      376     5120    4                   END;

      377     5121    3               END;

      378     5122    2           END;

      379     5123    2       IF B$JIT.ERR = '0'B THEN DO;

   5123  1 000204   000000 470400 xsym               LDP0    B$JIT$
         1 000205   000012 235100                    LDA     10,,PR0
         1 000206   000242 601000 1                  TNZ     s:5138
PL6.E3A0      #002=KIS$OSI_CLOSE File=KIS$OSI.:E05TSI                            WED 07/30/97 00:40 Page:51

      380     5124                /* the Transport link dropped, or there wasn't one to drop */
      381     5125    2           CALL NKL$RELDCT( LDCT$);

   5125  1 000207   200055 631500                    EPPR1   LDCT$,,AUTO
         1 000210   200062 451500                    STP1    SCID+1,,AUTO
         1 000211   200062 630500                    EPPR0   SCID+1,,AUTO
         1 000212   000017 631400 xsym               EPPR1   B_VECTNIL+15
         1 000213   000000 701000 xent               TSX1    NKL$RELDCT
         1 000214   000000 011000                    NOP     0

      382     5126                /* release the minor client slot, if any */
      383     5127    3           IF LINK ~= 0 THEN DO;

   5127  1 000215   200056 235100                    LDA     LINK,,AUTO
         1 000216   000227 600000 1                  TZE     s:5132

      384     5128    3               MINOR$->APPL.Z.LINK = KIS_MINOR$->APPL.Z.LINK;

   5128  1 000217   000000 470400 xsym               LDP0    KIS_MINOR$
         1 000220   200060 471500                    LDP1    MINOR$,,AUTO
         1 000221   000000 236100                    LDQ     0,,PR0
         1 000222   100000 552104                    STBQ    0,'04'O,PR1

      385     5129    3               KIS_MINOR$->APPL.Z.LINK = MAJOR$->APPL.Z.LINK;

   5129  1 000223   200057 470500                    LDP0    MAJOR$,,AUTO
         1 000224   000000 473400 xsym               LDP3    KIS_MINOR$
         1 000225   000000 236100                    LDQ     0,,PR0
         1 000226   300000 552104                    STBQ    0,'04'O,PR3

      386     5130    3               END;

      387     5131                /* release the major client slot */
      388     5132    2           MAJOR$->APPL.LDCTX = 0;

   5132  1 000227   000000 220003                    LDX0    0,DU
PL6.E3A0      #002=KIS$OSI_CLOSE File=KIS$OSI.:E05TSI                            WED 07/30/97 00:40 Page:52
         1 000230   200057 470500                    LDP0    MAJOR$,,AUTO
         1 000231   000000 740100                    STX0    0,,PR0

      389     5133    2           MAJOR$->APPL.Z.USER = 0;

   5133  1 000232   000000 236003                    LDQ     0,DU
         1 000233   000000 552110                    STBQ    0,'10'O,PR0

      390     5134    2           MAJOR$->APPL.Z.LINK = KIS_MAJOR$->APPL.CLNTHD;

   5134  1 000234   000000 471400 xsym               LDP1    KIS_MAJOR$
         1 000235   100000 236100                    LDQ     0,,PR1
         1 000236   000000 552104                    STBQ    0,'04'O,PR0

      391     5135    2           KIS_MAJOR$->APPL.CLNTHD = SCID;

   5135  1 000237   200061 721100                    LXL1    SCID,,AUTO
         1 000240   000000 471400 xsym               LDP1    KIS_MAJOR$
         1 000241   100000 441100                    SXL1    0,,PR1

      392     5136    2           END;

      393     5137            %UNLOCK( G=KIS_OSILOCK);

   5138  1 000242   000000 630400 2                  EPPR0   0
         1 000243   000017 631400 xsym               EPPR1   B_VECTNIL+15
         1 000244   000000 701000 xent               TSX1    HFC$UNLOCK
         1 000245   000000 011000                    NOP     0

      394     5140            /* mark DCB closed */
      395     5141    1       F$DCB.FCD = %NO#;

   5141  1 000246   200054 470500                    LDP0    JDCB$,,AUTO
         1 000247   000002 236000 2                  LDQ     2
         1 000250   000031 356100                    ANSQ    25,,PR0

      396     5142            /* scrub other DCB fields we used */
PL6.E3A0      #002=KIS$OSI_CLOSE File=KIS$OSI.:E05TSI                            WED 07/30/97 00:40 Page:53
      397     5143    1       F$DCB.LDCTX = 0;

   5143  1 000251   000000 220003                    LDX0    0,DU
         1 000252   000051 740100                    STX0    41,,PR0

      398     5144    1       F$DCB.DVFC = BINASC( 0);

   5144  1 000253   000000 236003                    LDQ     0,DU
         1 000254   000044 552110                    STBQ    36,'10'O,PR0

      399     5145    1       IF B$JIT.ERR THEN

   5145  1 000255   000000 471400 xsym               LDP1    B$JIT$
         1 000256   100012 235100                    LDA     10,,PR1
         1 000257   000261 600000 1                  TZE     s:5148

      400     5146                /* lower layer error of some kind */
      401     5147    1           ALTRETURN;

   5147  1 000260   000000 702200 xent               TSX2  ! X66_AALT

      402     5148    1       RETURN;

   5148  1 000261   000000 702200 xent               TSX2  ! X66_ARET

ERRBADSCID
 Sect OctLoc
   0     000   131123 431407                                                    YS..

ERRNCCLOSED
 Sect OctLoc
   0     001   131123 431367                                                    YS..

ERRNOTOSIDCB
 Sect OctLoc
   0     002   131123 431427                                                    YS..

PL6.E3A0      #002=KIS$OSI_CLOSE File=KIS$OSI.:E05TSI                            WED 07/30/97 00:40 Page:54
ERRTRANSPORT
 Sect OctLoc
   0     003   131123 431457                                                    YS..

ERRWRONGLDCT
 Sect OctLoc
   0     004   131123 431417                                                    YS..

(unnamed)
 Sect OctLoc
   0     005   004000 000000                                                    ....

(unnamed)
 Sect OctLoc
   2     000   000000 006000   777737 777777   777777 757777                    ............
      403     5149
      404     5150    1       END KIS$OSI_CLOSE;
      405     5151        %EOD;

PL6.E3A0      #002=KIS$OSI_CLOSE File=KIS$OSI.:E05TSI                            WED 07/30/97 00:40 Page:55
--  Include file information  --

   F$DCB.:E05TOU  is referenced.
   UM_CP6.:E05TOU  is referenced.
   NK$LDCT.:E05TOU  is referenced.
   NK_SUBS.:E05TOU  is referenced.
   NK_LDCT_R.:E05TOU  cannot be made into a system file and is referenced.
   K_TRANSPORT_E.:E05TOU  is referenced.
   K_SUBS_C.:E05TOU  is referenced.
   K_SESSION_M.:E05TOU  is referenced.
   K_INTERFACE_M.:E05TOU  is referenced.
   K$RWPARM.:E05TOU  is referenced.
   K_DATA_R.:E05TOU  cannot be made into a system file and is referenced.
   K_ADDRESS_M.:E05TOU  is referenced.
   KI_ERRORS_C.:E05TOU  is referenced.
   HF_LOCK_C.:E05TOU  cannot be made into a system file and is referenced.
   CP_6_SUBS.:E05TOU  is referenced.
   B$JIT_C.:E05TOU  is referenced.
      No diagnostics issued in procedure KIS$OSI_CLOSE.
PL6.E3A0      #002=KIS$OSI_CLOSE File=KIS$OSI.:E05TSI                            WED 07/30/97 00:40 Page:56

 **** Variables and constants ****

  ****  Section 000 RoData KIS$OSI_CLOSE

  ****  Scalars and arrays  ****
OctLoc.c.b A Datatyp(siz) R M Lvl/name                 OctLoc.c.b A Datatyp(siz) R M Lvl/name

     0-0-0/w STRC        r     1 ERRBADSCID                 1-0-0/w STRC        r     1 ERRNCCLOSED
     2-0-0/w STRC        r     1 ERRNOTOSIDCB               3-0-0/w STRC        r     1 ERRTRANSPORT
     4-0-0/w STRC        r     1 ERRWRONGLDCT

  ****  Auto variables  ****

  ****  Scalars and arrays  ****
OctLoc.c.b A Datatyp(siz) R M Lvl/name                 OctLoc.c.b A Datatyp(siz) R M Lvl/name

    54-0-0/w PTR         r     1 JDCB$                      4-0-0/d STRC(1404)  r     1 K$RWPARM
    55-0-0/w PTR         r     1 LDCT$                     56-0-0/w SBIN        r     1 LINK
    57-0-0/w PTR         r     1 MAJOR$                    60-0-0/w PTR         r     1 MINOR$
    61-0-0/w SBIN        r     1 SCID

  ****  SYMREF variables  ****

  ****  Scalars and arrays  ****
OctLoc.c.b A Datatyp(siz) R M Lvl/name                 OctLoc.c.b A Datatyp(siz) R M Lvl/name

     0-0-0/w PTR         r     1 B$JIT$                     0-0-0/w PTR         r     1 KIS_MAJOR$
     0-0-0/w PTR         r     1 KIS_MINOR$                 0-0-0/b BIT (72)    r     1 KIS_OSILOCK
     0-0-0/w UBIN        r     1 KIS_SSN_MAXMAJOR           0-0-0/d STRC(1404)  r     1 K_RWPARM_CON
     0-0-0/w PTR         r     1 N$DCT$$

  ****  BASED and DCB variables  ****

  ****  Scalars and arrays  ****
OctLoc.c.b A Datatyp(siz) R M Lvl/name                 OctLoc.c.b A Datatyp(siz) R M Lvl/name

     0-0-0/w STRC(360)   r     1 APPL                       0-0-0/d STRC(8856)  r     1 B$JIT
PL6.E3A0      #002=KIS$OSI_CLOSE File=KIS$OSI.:E05TSI                            WED 07/30/97 00:40 Page:57
     0-0-0/d ASTR(3528)  r     1 F$DCB                      0-0-0/d STRC(864)   r     1 NK$LDCT
     0-0-0/w PTR         r     1 NK$LDCT$(0:0)


   Procedure KIS$OSI_CLOSE requires 178 words for executable code.
   Procedure KIS$OSI_CLOSE requires 52 words of local(AUTO) storage.
PL6.E3A0      #002=KIS$OSI_CLOSE File=KIS$OSI.:E05TSI                            WED 07/30/97 00:40 Page:58
          *** CROSS REFERENCE LISTING ***
**     DENOTES     IDENTIFIER DEFINITION
<<                 IDENTIFIER'S VALUE SET
>>                 IDENTIFIER'S VALUE USED
<>                 IDENTIFIER SET AND/OR USED
--                 IDENTIFIER REFERENCED
PL6.E3A0      #002=KIS$OSI_CLOSE File=KIS$OSI.:E05TSI                            WED 07/30/97 00:40 Page:59
          MINI XREF LISTING

APPL.CLNTHD
      3242**DCL      3243--REDEF    5134>>ASSIGN   5135<<ASSIGN
APPL.LDCTX
      3240**DCL      5061>>ASSIGN   5132<<ASSIGN
APPL.TCTX
      3239**DCL      3240--REDEF    3241--REDEF    5099>>IF       5101>>ASSIGN   5106<<ASSIGN
APPL.Z.COOKIE
      3244**DCL      3245--REDEF
APPL.Z.LINK
      3246**DCL      5096>>ASSIGN   5128<<ASSIGN   5128>>ASSIGN   5129<<ASSIGN   5129>>ASSIGN   5134<<ASSIGN
APPL.Z.USER
      3245**DCL      5133<<ASSIGN
B$JIT.DCB$
       449**DCL      5040>>ASSIGN
B$JIT.ERR
       359**DCL      5043<<ASSIGN   5052<<ASSIGN   5066<<ASSIGN   5074<<ASSIGN   5091<<ASSIGN   5111<<ASSIGN
      5113<<ASSIGN   5123>>IF       5145>>IF
B$JIT.ERR.MID
       360**DCL       360--REDEF
B$JIT.USER
       359**DCL      5062>>IF
B$JIT$
      5027**DCL       354--IMP-PTR  5040>>ASSIGN   5043>>ASSIGN   5052>>ASSIGN   5062>>IF       5066>>ASSIGN
      5074>>ASSIGN   5091>>ASSIGN   5111>>ASSIGN   5113>>ASSIGN   5123>>IF       5145>>IF
ERRBADSCID
      4694**DCL      5052>>ASSIGN
ERRNCCLOSED
      4742**DCL      5043>>ASSIGN   5084>>ASSIGN
ERRNOTOSIDCB
      4790**DCL      5074>>ASSIGN
ERRTRANSPORT
      4838**DCL      5113>>ASSIGN
PL6.E3A0      #002=KIS$OSI_CLOSE File=KIS$OSI.:E05TSI                            WED 07/30/97 00:40 Page:60
ERRWRONGLDCT
      4886**DCL      5066>>ASSIGN
F$DCB.ACTPOS
      4997**DCL      4997--REDEF
F$DCB.ARS
      4972**DCL      4972--REDEF
F$DCB.ATTR
      4990**DCL      4991--REDEF
F$DCB.BORROW
      5005**DCL      5005--REDEF    5005--REDEF    5005--REDEF
F$DCB.DCBNAME.L
      5019**DCL      5019--IMP-SIZ
F$DCB.DVFC
      4993**DCL      5049>>ASSIGN   5144<<ASSIGN
F$DCB.EOMCHAR
      4976**DCL      4976--REDEF
F$DCB.FCD
      4985**DCL      5041>>IF       5141<<ASSIGN
F$DCB.FCN.CNT
      5009**DCL      5081>>IF
F$DCB.FLDID
      5000**DCL      5000--REDEF
F$DCB.FORM$
      4994**DCL      4994--REDEF
F$DCB.FSECT
      5010**DCL      5010--REDEF
F$DCB.FSN
      4987**DCL      4987--REDEF    4987--REDEF    4988--REDEF
F$DCB.HEADER$
      4993**DCL      4993--REDEF
F$DCB.IXTNSIZE
      4991**DCL      4991--REDEF
F$DCB.LASTSTA$
      4981**DCL      4981--REDEF
F$DCB.LDCTX
      4994**DCL      5041>>IF       5062>>IF       5143<<ASSIGN
PL6.E3A0      #002=KIS$OSI_CLOSE File=KIS$OSI.:E05TSI                            WED 07/30/97 00:40 Page:61
F$DCB.LVL
      5006**DCL      5006--REDEF
F$DCB.NAME.C
      4981**DCL      4981--REDEF
F$DCB.NOEOF
      5002**DCL      5002--REDEF
F$DCB.NRECS
      4992**DCL      4992--REDEF
F$DCB.NRECX
      5011**DCL      5011--REDEF
F$DCB.OHDR
      5003**DCL      5003--REDEF
F$DCB.ORG
      4986**DCL      4986--REDEF
F$DCB.PRECNO
      5009**DCL      5009--REDEF
F$DCB.RCSZ
      5014**DCL      5014--REDEF
F$DCB.RES
      4982**DCL      4982--REDEF
F$DCB.SETX
      4994**DCL      4994--REDEF
F$DCB.TAB$
      4993**DCL      4994--REDEF
F$DCB.TDA
      5008**DCL      5008--REDEF
F$DCB.WSN
      4983**DCL      4983--REDEF
HFC$LOCK
      1100**DCL-ENT  5093--CALL
HFC$UNLOCK
      1100**DCL-ENT  5138--CALL
JDCB$
      5033**DCL      4972--IMP-PTR  5040<<ASSIGN   5041>>IF       5041>>IF       5049>>ASSIGN   5062>>IF
      5081>>IF       5141>>ASSIGN   5143>>ASSIGN   5144>>ASSIGN
K$RWPARM
PL6.E3A0      #002=KIS$OSI_CLOSE File=KIS$OSI.:E05TSI                            WED 07/30/97 00:40 Page:62
      2421**DCL      5083<<ASSIGN   5086<>CALL     5088<<ASSIGN   5103<>CALL
K$RWPARM.BLKREC
      2447**DCL      2472--REDEF
K$RWPARM.BLKREC.BLKU#
      2448**DCL      2450--REDEF
K$RWPARM.BLKREC.RECU#
      2460**DCL      2462--REDEF
K$RWPARM.DVE.DVBYTE.VFC
      2487**DCL      2488--REDEF
K$RWPARM.DVE.EOMCHAR
      2495**DCL      2499--REDEF
K$RWPARM.ERR
      2559**DCL      2564--REDEF    5090<<ASSIGN   5110>>IF
K$RWPARM.FC
      2523**DCL      2524--REDEF
K$RWPARM.FLDID
      2705**DCL      2706--REDEF
K$RWPARM.FPT$
      2586**DCL      2593--REDEF
K$RWPARM.FUNCTION
      2600**DCL      5089<<ASSIGN
K$RWPARM.KEYTYPE
      2712**DCL      2713--REDEF
K$RWPARM.MSG$
      2422**DCL      2428--REDEF
K$RWPARM.MSGID
      2534**DCL      2539--REDEF
K$RWPARM.MSGIDXT
      2547**DCL      2551--REDEF
K$RWPARM.MSG_ERRCODE
      2682**DCL      5084<<ASSIGN   5111>>ASSIGN
K$RWPARM.ORG
      2683**DCL      2684--REDEF
K$RWPARM.TCTX#
      2657**DCL      5101<<ASSIGN
K$RWPARM.THDRSZ
PL6.E3A0      #002=KIS$OSI_CLOSE File=KIS$OSI.:E05TSI                            WED 07/30/97 00:40 Page:63
      2627**DCL      2631--REDEF
K$RWPARM.TYC
      2443**DCL      5085<<ASSIGN
K$RWPARM.VDOFLGS
      2685**DCL      2696--REDEF
KIA$COMP
      5022**DCL-ENT  5086--CALL
KIS_MAJOR$
      5028**DCL      5060>>ASSIGN   5134>>ASSIGN   5135>>ASSIGN
KIS_MINOR$
      5029**DCL      5098>>ASSIGN   5128>>ASSIGN   5129>>ASSIGN
KIS_OSILOCK
      5030**DCL      5093<>CALL     5138<>CALL
KIS_SSN_MAXMAJOR
      5031**DCL      5050>>IF
KIT$SEND
      5023**DCL-ENT  5103--CALL
K_RWPARM_CON
      2104**DCL      5083>>ASSIGN   5088>>ASSIGN
K_RWPARM_CON.BLKREC
      2130**DCL      2155--REDEF
K_RWPARM_CON.BLKREC.BLKU#
      2131**DCL      2133--REDEF
K_RWPARM_CON.BLKREC.RECU#
      2143**DCL      2145--REDEF
K_RWPARM_CON.DVE.DVBYTE.VFC
      2170**DCL      2171--REDEF
K_RWPARM_CON.DVE.EOMCHAR
      2178**DCL      2182--REDEF
K_RWPARM_CON.ERR
      2242**DCL      2247--REDEF
K_RWPARM_CON.FC
      2206**DCL      2207--REDEF
K_RWPARM_CON.FLDID
      2388**DCL      2389--REDEF
K_RWPARM_CON.FPT$
PL6.E3A0      #002=KIS$OSI_CLOSE File=KIS$OSI.:E05TSI                            WED 07/30/97 00:40 Page:64
      2269**DCL      2276--REDEF
K_RWPARM_CON.KEYTYPE
      2395**DCL      2396--REDEF
K_RWPARM_CON.MSG$
      2105**DCL      2111--REDEF
K_RWPARM_CON.MSGID
      2217**DCL      2222--REDEF
K_RWPARM_CON.MSGIDXT
      2230**DCL      2234--REDEF
K_RWPARM_CON.ORG
      2366**DCL      2367--REDEF
K_RWPARM_CON.THDRSZ
      2310**DCL      2314--REDEF
K_RWPARM_CON.VDOFLGS
      2368**DCL      2379--REDEF
LDCT$
      5034**DCL      3791--IMP-PTR  5061<<ASSIGN   5062>>IF       5062>>IF       5062>>IF       5072>>IF
      5082>>DOWHILE  5086>>CALL     5095>>ASSIGN   5125<>CALL
LINK
      5035**DCL      5096<<ASSIGN   5097>>IF       5098>>ASSIGN   5127>>IF
MAJOR$
      5036**DCL      5060<<ASSIGN   5061>>ASSIGN   5096>>ASSIGN   5129>>ASSIGN   5132>>ASSIGN   5133>>ASSIGN
      5134>>ASSIGN
MINOR$
      5037**DCL      5098<<ASSIGN   5099>>IF       5101>>ASSIGN   5106>>ASSIGN   5128>>ASSIGN
N$DCT$$
      3649**DCL      3649--IMP-PTR  5061>>ASSIGN   5062>>IF
NK$LDCT
      3791**DCL      5086<>CALL
NK$LDCT.DDT$
      3793**DCL      3793--REDEF
NK$LDCT.IOQ$
      3792**DCL      3793--REDEF
NK$LDCT.LDCTX
      3794**DCL      3794--REDEF
NK$LDCT.LKFLG.ABORTED
PL6.E3A0      #002=KIS$OSI_CLOSE File=KIS$OSI.:E05TSI                            WED 07/30/97 00:40 Page:65
      3806**DCL      3807--REDEF
NK$LDCT.LKFLG.ACTIVE
      3810**DCL      5095<<ASSIGN
NK$LDCT.LKFLG.NOWAIT
      3812**DCL      5082>>DOWHILE
NK$LDCT.RESCOD
      3799**DCL      5072>>IF
NK$LDCT.RLCID.LDCTX
      3816**DCL      3816--REDEF
NK$LDCT.STA$
      3812**DCL      3813--REDEF
NK$LDCT.SYMB$
      3791**DCL      3791--REDEF    3791--REDEF    3792--REDEF
NK$LDCT.TH.STR
      3817**DCL      5062>>IF
NK$LDCT.USER
      3801**DCL      5062>>IF
NK$LDCT$
      3649**DCL      5061>>ASSIGN   5062>>IF
NKL$RELDCT
      5024**DCL-ENT  5125--CALL
SCID
      5038**DCL      5049<<ASSIGN   5050>>IF       5060>>ASSIGN   5062>>IF       5135>>ASSIGN
SC_PRTCL_SNAP
      5025**DCL-ENT  5057--CALL     5118--CALL
SNAP
      5057**LABEL    5070--GOTO     5078--GOTO

PL6.E3A0      #003=KIS$OSI_WRITE File=KIS$OSI.:E05TSI                            WED 07/30/97 00:41 Page:66
      406        1        /*T***********************************************************/
      407        2        /*T*                                                         */
      408        3        /*T* Copyright (c) Bull HN Information Systems Inc., 1997    */
      409        4        /*T*                                                         */
      410        5        /*T***********************************************************/
      411        6        /*F*    NAME:   KIS$OSI_WRITE
      412        7                PURPOSE:  Handle M$WRITE of RES=NC DCB.
      413        8        */
      414        9        /*D*    NAME:   KIS$OSI_WRITE
      415       10                CALL:   CALL KIS$OSI_WRITE ALTRET( label);
      416       11                INPUT:
      417       12                    B$JIT.DCB$->F$DCB.DVFC holds the major SCID of the client,
      418       13                    B$PS0$ points at the V area of the M$WRITE FPT,
      419       14                    B$PS2$ points at the BUF area (GLUE plus SPDU/TFPT)
      420       15                OUTPUT:
      421       16                    On successful call,
      422       17                      None.  If a Transport request is being issued, the Transport
      423       18                      FPT present in the user's buffer is just sent to Transport.
      424       19                      If a Session PDU is present in the user's buffer, it is handed
      425       20                      to Transport as a T-DATA or T-EXPEDITED-DATA request.
      426       21                    On unsuccessful call,
      427       22                      B$JIT.ERROR is filled in with an appropriate error,
      428       23                      ALTRETURN is taken.
      429       24                DESCRIPTION:
      430       25                    KIS$OSI_WRITE is called when an OSI client application wishes
      431       26                    to send a message to a server.  It is entered from FSE$FORMAT
      432       27                    when an M$WRITE to a DCB with RES=NC is issued.  BUF_ frames
      433       28                    the GLUE and either a Transport FPT or an OSI Session PDU.
      434       29
      435       30                    The GLUE tells what the message is and how to send it.
      436       31                    GLUE.TRNFNC is what Transport function to use, GLUE.MYSCID is
      437       32                    the minor SCID for this connection, and GLUE.YRSCID is the other
      438       33                    endpoint's minor SCID for this connection, if known (else zero).
      439       34
      440       35                    NOTE: ALL WRITES AND READS THRU RES=NC MUST BE TRANSPARENT.
      441       36                    This is required for (1) optimized handling by FSE, and (2) to
      442       37                    avoid stomping on the DVFC field in the DCB.
PL6.E3A0      #003=KIS$OSI_WRITE File=KIS$OSI.:E05TSI                            WED 07/30/97 00:41 Page:67
      443       38        */
      444       39        KIS$OSI_WRITE: PROC ALTRET;
      445       40        %INCLUDE CP_6_SUBS;
      446      580        %INCLUDE F$CP6V_C;
      447      806            %FPT$WRITE_V( BASED="BASED( B$PS0$)");
      448      812        %INCLUDE F$JIT_C;
      449     1242        %INCLUDE HF_LOCK_C;
      450     1256        %INCLUDE KI_ERRORS_C;
      451     1341        %INCLUDE K_ADDRESS_M;
      452     1844        %INCLUDE K_DATA_R;
      453     2555            %K$RWPARM( NAME=K$RWPARM, STCLASS=AUTO);
      454     2871        %INCLUDE K_INTERFACE_M;
      455     3280            %K$FPT_CONNECT_OSI;
      456     3617            %K$FPT_TERM_OSI;
      457     3835        %INCLUDE K_SESSION_M;
      458     3925            %KIS$APPL( NAME=APPL, STCLASS=BASED);
      459     3994            %KIS$GLUE( NAME=GLUE, STCLASS="BASED( B$PS2$)");
      460     4024        %INCLUDE K_SUBS_C;
      461     4057        %INCLUDE NK_LDCT_R;
      462     4066        %INCLUDE NK$LDCT;
      463     4168            %NK$LDCT( STCLASS="BASED( LDCT$)");
      464     4214        %INCLUDE UM_CP6;
      465     5066        %MACRO ERRCODE( NAME=ERRDUMMY, CODE=0);
      466     5067            %VLP_ERRCODE( FPTN=NAME, STCLASS=CONSTANT, FCG='KI', MID='S',
      467     5068                          MON='1'B, ERR#=CODE, SEV=7);
      468     5069        %MEND;
      469     5070            %ERRCODE( NAME=ERRBADOSIBUF, CODE=%E$BADOSIBUF);
      470     5118            %ERRCODE( NAME=ERRBADOSIFPT, CODE=%E$BADOSIFPT);
      471     5166            %ERRCODE( NAME=ERRBADSCID, CODE=%E$BADSCID);
      472     5214            %ERRCODE( NAME=ERRMINORTBL, CODE=%E$MINORTBL);
      473     5262            %ERRCODE( NAME=ERRTRANCLOSED, CODE=%E$TRANCLOSED);
      474     5310            %ERRCODE( NAME=ERRTRANOPEN, CODE=%E$TRANOPEN);
      475     5358            %ERRCODE( NAME=ERRTRANSPORT, CODE=%E$TRANSPORT);
      476     5406        %MACRO F$DCBI( BASED=BASED);
      477     5407        %INCLUDE F$DCB;
      478     5456        %MEND;
      479     5457            %F$DCBI( BASED="BASED( JDCB$)");
PL6.E3A0      #003=KIS$OSI_WRITE File=KIS$OSI.:E05TSI                            WED 07/30/97 00:41 Page:68
      480     5507
      481     5508    1       DCL KIA$OQFL ENTRY(1) ALTRET;
      482     5509    1       DCL KIT$SEND ENTRY(1) ALTRET;
      483     5510    1       DCL HFF$DSIZ ENTRY(2) ALTRET;
      484     5511    1       DCL SC_PRTCL_SNAP ENTRY CONV(2,0);
      485     5512
      486     5513    1       DCL B$JIT$ PTR SYMREF;
      487     5514    1       DCL B$PS0$ PTR SYMREF;  /* points at V area of FPT */
      488     5515    1       DCL B$PS2$ PTR SYMREF;  /* points at BUF within FPT */
      489     5516    1       DCL KIS_MAJOR$ PTR SYMREF;
      490     5517    1       DCL KIS_MINOR$ PTR SYMREF;
      491     5518    1       DCL KIS_SSN_MAXMAJOR UBIN SYMREF;
      492     5519
      493     5520    1       DCL JDCB$ PTR;
      494     5521    1       DCL LEN SBIN;
      495     5522    1       DCL LDCT$ PTR;
      496     5523    1       DCL LINK SBIN;
      497     5524    1       DCL MAJOR$ PTR;
      498     5525    1       DCL MINOR$ PTR;
      499     5526    1       DCL SCID SBIN;
      500     5527
      501     5528    1       JDCB$ = B$JIT.DCB$;
      502     5529            /* get the major SCID for this application */
      503     5530    1       SCID = ASCBIN( F$DCB.DVFC);
      504     5531    2       IF SCID > KIS_SSN_MAXMAJOR THEN DO;
      505     5532                /* no way can this be a legal appl id */
      506     5533    2           B$JIT.ERR = ERRBADSCID;
      507     5534                /*    ERROR:  KIS-E$BADSCID-A
      508     5535                    MESSAGE:  Bad Session connection identifier.
      509     5536                */
      510     5537    2   SNAP:
      511     5538    2           CALL SC_PRTCL_SNAP;
      512     5539    2           ALTRETURN;
      513     5540    2           END;
      514     5541            /* see if SPDU is present and reasonable length */
      515     5542    1       CALL HFF$DSIZ( B$PS2$, LEN)
      516     5543    2       WHENALTRETURN DO;
PL6.E3A0      #003=KIS$OSI_WRITE File=KIS$OSI.:E05TSI                            WED 07/30/97 00:41 Page:69
      517     5544                /* there's no SPDU present but it's required to be there */
      518     5545    2   BADBUF:
      519     5546    2           B$JIT.ERR = ERRBADOSIBUF;
      520     5547                /*E*  ERROR:  KIS-E$BADOSIBUF-A
      521     5548                    MESSAGE:  Write buffer too short or not present at all.
      522     5549                */
      523     5550    2           ALTRETURN;
      524     5551    2           END;
      525     5552    1       IF LEN < 4 THEN
      526     5553    1           GOTO BADBUF;
      527     5554    1       K$RWPARM = K_RWPARM_CON;
      528     5555    1       K$RWPARM.FUNCTION = GLUE.TRNFNC;
      529     5556    1       MAJOR$ = PINCRW( KIS_MAJOR$, SCID);
      530     5557    2       IF GLUE.TRNFNC ~= %K_TCONNECT_REQ THEN DO;
      531     5558    3           IF MAJOR$->APPL.Z.LINK = 0 THEN DO;
      532     5559    3   NOWAY:
      533     5560    3               B$JIT.ERR = ERRTRANCLOSED;
      534     5561                    /*E*  ERROR:  KIS-E$TRANCLOSED-A
      535     5562                        MESSAGE:  Transport connection doesn't exist.
      536     5563                    */
      537     5564    3               ALTRETURN;
      538     5565    3               END;
      539     5566    3           ELSE DO;
      540     5567    3               MINOR$ = PINCRW( KIS_MINOR$, MAJOR$->APPL.Z.LINK);
      541     5568    3               IF MINOR$->APPL.TCTX = 0 THEN
      542     5569    3                   GOTO NOWAY;
      543     5570    3               END;
      544     5571    2           END;
      545     5572    2       DO CASE( GLUE.TRNFNC);
      546     5573    2           CASE( %K_TCONNECT_REQ);
      547     5574                    /* this is a T-CONNECT Request */
      548     5575    3               IF LEN - 4 ~= SIZEC( K$FPT_CONNECT_OSI) THEN DO;
      549     5576    3                   B$JIT.ERR = ERRBADOSIFPT;
      550     5577                        /*E*  ERROR:  KIS-E$BADOSIFPT-A
      551     5578                            MESSAGE:  Write buffer contains malformed Transport FPT.
      552     5579                        */
      553     5580    3                   GOTO SNAP;
PL6.E3A0      #003=KIS$OSI_WRITE File=KIS$OSI.:E05TSI                            WED 07/30/97 00:41 Page:70
      554     5581    3                   END;
      555     5582                    /* point at the K$FPT_CONNECT_OSI */
      556     5583    2               K$RWPARM.FPT$ = ADDR( GLUE.DATA);
      557     5584    2               MINOR$ = ADDR( NIL);
      558     5585    2               LINK = MAJOR$->APPL.Z.LINK;
      559     5586    3               IF LINK ~= 0 THEN DO;
      560     5587    3                   MINOR$ = PINCRW( KIS_MINOR$, LINK);
      561     5588    4                   IF MINOR$->APPL.TCTX ~= 0 THEN DO;
      562     5589                            /* would overlay an existing Transport connection */
      563     5590    4                       B$JIT.ERR = ERRTRANOPEN;
      564     5591                            /*E*  ERROR:  KIS-E$TRANOPEN-A
      565     5592                                MESSAGE:  Transport connection already exists.
      566     5593                            */
      567     5594    4                       GOTO SNAP;
      568     5595    4                       END;
      569     5596    3                   END;
      570     5597                    /* allocate a minor client slot for this connection */
      571     5598    3               IF MINOR$ = ADDR( NIL) THEN DO;
      572     5599    3                   LINK = KIS_MINOR$->APPL.Z.LINK;
      573     5600    4                   IF LINK = 0 THEN DO;
      574     5601                            /* all minor client slots are in use */
      575     5602    4                       B$JIT.ERR = ERRMINORTBL;
      576     5603                            /*E*  ERROR:  KIS-E$MINORTBL-A
      577     5604                            MESSAGE:  No more space in the 'minor' Session connection table.
      578     5605                            */
      579     5606    4                       ALTRETURN;
      580     5607    4                       END;
      581     5608    3                   MINOR$ = PINCRW( KIS_MINOR$, LINK);
      582     5609    3                   KIS_MINOR$->APPL.Z.LINK = MINOR$->APPL.Z.LINK;
      583     5610    3                   END;
      584     5611    2               MINOR$->APPL.TCTX = 0;
      585     5612    2               MINOR$->APPL.Z.LINK = 0;
      586     5613    2               MAJOR$->APPL.Z.LINK = LINK;
      587     5614                    /* make sure complete SCID is present in FPT */
      588     5615    2               K$RWPARM.FPT$->K$FPT_CONNECT_OSI.SCID = SCID * 512 + LINK;
      589     5616    2           CASE( %K_TDISCONNECT_REQ);
      590     5617                    /* this is a T-DISCONNECT Request */
PL6.E3A0      #003=KIS$OSI_WRITE File=KIS$OSI.:E05TSI                            WED 07/30/97 00:41 Page:71
      591     5618    3               IF LEN - 4 ~= SIZEC( K$FPT_TERM_OSI) THEN DO;
      592     5619    3                   B$JIT.ERR = ERRBADOSIFPT;
      593     5620                        /*    ERROR:  KIS-E$BADOSIFPT-A
      594     5621                            MESSAGE:  Write buffer contains malformed Transport FPT.
      595     5622                        */
      596     5623    3                   GOTO SNAP;
      597     5624    3                   END;
      598     5625                    /* point at the K$FPT_TERM_OSI */
      599     5626    2               K$RWPARM.FPT$ = ADDR( GLUE.DATA);
      600     5627    2           CASE( %K_TDATA_REQ,
      601     5628    2                 %K_TEXPD_DATA_REQ);
      602     5629                    /* this is a T-DATA Request or a T-EXPEDITED-DATA Request */
      603     5630                    /* frame the SPDU to send */
      604     5631    2               K$RWPARM.SHDR$ = ADDR( GLUE.DATA);
      605     5632    2               K$RWPARM.SHDRSZ = LEN - 4;
      606     5633    2           END;
      607     5634            /* point at the correct major client slot */
      608     5635    1       MAJOR$ = PINCRW( KIS_MAJOR$, SCID);
      609     5636            /* get the Transport connection id */
      610     5637    1       K$RWPARM.TCTX# = MINOR$->APPL.TCTX;
      611     5638            /* send the mess to Transport */
      612     5639    1       LDCT$ = NK$LDCT$( F$DCB.LDCTX);
      613     5640            %LOCK( G=NK$LDCT.LOCK);
      614     5643    1   TRYSEND:
      615     5644    1       CALL KIT$SEND( K$RWPARM)
      616     5645    2       WHENRETURN DO;
      617     5646                %UNLOCK( G=NK$LDCT.LOCK);
      618     5649    2           END;
      619     5650    2       WHENALTRETURN DO;
      620     5651                /* the Transport layer couldn't handle the message */
      621     5652    3           IF K$RWPARM.ERR = %K$QFULL THEN DO;
      622     5653    3               CALL KIA$OQFL( NK$LDCT)
      623     5654    4               WHENALTRETURN DO;
      624     5655                        %UNLOCK( G=NK$LDCT.LOCK);
      625     5658    4                   GOTO SNAP;
      626     5659    4                   END;
      627     5660    3               GOTO TRYSEND;
PL6.E3A0      #003=KIS$OSI_WRITE File=KIS$OSI.:E05TSI                            WED 07/30/97 00:41 Page:72
      628     5661    3               END;
      629     5662                %UNLOCK( G=NK$LDCT.LOCK);
      630     5665    3           IF K$RWPARM.ERR = %K$USER_ERR THEN DO;
      631     5666    3               B$JIT.ERR = K$RWPARM.MSG_ERRCODE;
      632     5667    3               ALTRETURN;
      633     5668    3               END;
      634     5669    3           ELSE DO;
      635     5670    3               B$JIT.ERR = ERRTRANSPORT;
      636     5671                    /*    ERROR:  KIS-E$TRANSPORT-A
      637     5672                        MESSAGE:  Internal error.  Transport ALTRETURN.
      638     5673                    */
      639     5674    3               GOTO SNAP;
      640     5675    3               END;
      641     5676    2           END;
      642     5677            /* Omigosh, it worked */
      643     5678    2       IF GLUE.TRNFNC = %K_TCONNECT_REQ THEN DO;
      644     5679    2           MINOR$->APPL.TCTX = K$RWPARM.TCTX#;
      645     5680    2           MINOR$->APPL.Z.COOKIE = GLUE.MYSCID;
      646     5681    2           END;
      647     5682    1       RETURN;
      648     5683
      649     5684    1       END KIS$OSI_WRITE;
      650     5685        %EOD;

PL6.E3A0      #003=KIS$OSI_WRITE File=KIS$OSI.:E05TSI                            WED 07/30/97 00:41 Page:73
--  Include file information  --

   F$DCB.:E05TOU  is referenced.
   UM_CP6.:E05TOU  is referenced.
   NK$LDCT.:E05TOU  is referenced.
   NK_LDCT_R.:E05TOU  cannot be made into a system file and is referenced.
   K_SUBS_C.:E05TOU  is referenced.
   K_SESSION_M.:E05TOU  is referenced.
   K_INTERFACE_M.:E05TOU  is referenced.
   K$RWPARM.:E05TOU  is referenced.
   K_DATA_R.:E05TOU  cannot be made into a system file and is referenced.
   K_ADDRESS_M.:E05TOU  is referenced.
   KI_ERRORS_C.:E05TOU  is referenced.
   HF_LOCK_C.:E05TOU  cannot be made into a system file and is referenced.
   B$JIT_C.:E05TOU  is referenced.
   F$JIT_C.:E05TOU  cannot be made into a system file and is referenced.
   F$CP6V_C.:E05TOU  is referenced.
   CP_6_SUBS.:E05TOU  is referenced.
      No diagnostics issued in procedure KIS$OSI_WRITE.

   Procedure KIS$OSI_WRITE requires 231 words for executable code.
   Procedure KIS$OSI_WRITE requires 54 words of local(AUTO) storage.

PL6.E3A0      #003=KIS$OSI_WRITE File=KIS$OSI.:E05TSI                            WED 07/30/97 00:41 Page:74

 Object Unit name= KIS$OSI_WRITE                              File name= KIS$OSI.:E05TOU
 UTS= JUL 30 '97 00:41:06.64 WED                              Compiler= PL-6/E31         Sev=      00
 SharedLib= :SHARED_SYSTEM                                    Alt SharedLib=


    ****  Control sections  ****

 Sect   Type Bound  Init  Size OctSiz  Section name(segment info)
    0  RoData even  UTS      7      7  KIS$OSI_WRITE
    1   Proc  even  none   231    347  KIS$OSI_WRITE
    2  RoData even  none     1      1  KIS$OSI_WRITE

    ****  Entry defs  ****

                              Check   Calling
                             calling  sequence
  Sect OctLoc Primary Altret sequence   type   Parms  Name
     1      0   yes    yes     yes      Std        0  KIS$OSI_WRITE

  ****  Entry refs  ****

         Check        Calling
        calling       sequence
Altret sequence SRef   type   Args  Name
 yes     yes           Std       2 HFF$DSIZ
         yes           Std       1 HFC$UNLOCK
         yes           Std       1 HFC$LOCK
 yes     yes           Std       1 KIT$SEND
 yes     yes           Std       1 KIA$OQFL
                       nStd      0 X66_AUTO_0
                       nStd      0 X66_AALT
                       Std       0 B_CONSPOOL_D
                       nStd      0 X66_ARET
PL6.E3A0      #003=KIS$OSI_WRITE File=KIS$OSI.:E05TSI                            WED 07/30/97 00:41 Page:75

  ****  Data refs  ****

  Flags:  r = read only, s = secondary
Flgs Name                             Flgs Name                             Flgs Name
     SC_PRTCL_SNAP                    r    K_RWPARM_CON                          N$DCT$$
     B$JIT$                                B$PS0$                                B$PS2$
     KIS_MAJOR$                            KIS_MINOR$                            KIS_SSN_MAXMAJOR
     B_VECTNIL

  ****  Segment refs  ****

  Flags:  r = read only, s = secondary
Flgs Name                             Flgs Name                             Flgs Name
     ASLENTSID                             ISSID
PL6.E3A0      #003=KIS$OSI_WRITE File=KIS$OSI.:E05TSI                            WED 07/30/97 00:41 Page:76


      406        1        /*T***********************************************************/
      407        2        /*T*                                                         */
      408        3        /*T* Copyright (c) Bull HN Information Systems Inc., 1997    */
      409        4        /*T*                                                         */
      410        5        /*T***********************************************************/
      411        6        /*F*    NAME:   KIS$OSI_WRITE
      412        7                PURPOSE:  Handle M$WRITE of RES=NC DCB.
      413        8        */
      414        9        /*D*    NAME:   KIS$OSI_WRITE
      415       10                CALL:   CALL KIS$OSI_WRITE ALTRET( label);
      416       11                INPUT:
      417       12                    B$JIT.DCB$->F$DCB.DVFC holds the major SCID of the client,
      418       13                    B$PS0$ points at the V area of the M$WRITE FPT,
      419       14                    B$PS2$ points at the BUF area (GLUE plus SPDU/TFPT)
      420       15                OUTPUT:
      421       16                    On successful call,
      422       17                      None.  If a Transport request is being issued, the Transport
      423       18                      FPT present in the user's buffer is just sent to Transport.
      424       19                      If a Session PDU is present in the user's buffer, it is handed
      425       20                      to Transport as a T-DATA or T-EXPEDITED-DATA request.
      426       21                    On unsuccessful call,
      427       22                      B$JIT.ERROR is filled in with an appropriate error,
      428       23                      ALTRETURN is taken.
      429       24                DESCRIPTION:
      430       25                    KIS$OSI_WRITE is called when an OSI client application wishes
      431       26                    to send a message to a server.  It is entered from FSE$FORMAT
      432       27                    when an M$WRITE to a DCB with RES=NC is issued.  BUF_ frames
      433       28                    the GLUE and either a Transport FPT or an OSI Session PDU.
      434       29
      435       30                    The GLUE tells what the message is and how to send it.
      436       31                    GLUE.TRNFNC is what Transport function to use, GLUE.MYSCID is
      437       32                    the minor SCID for this connection, and GLUE.YRSCID is the other
      438       33                    endpoint's minor SCID for this connection, if known (else zero).
      439       34
      440       35                    NOTE: ALL WRITES AND READS THRU RES=NC MUST BE TRANSPARENT.
      441       36                    This is required for (1) optimized handling by FSE, and (2) to
PL6.E3A0      #003=KIS$OSI_WRITE File=KIS$OSI.:E05TSI                            WED 07/30/97 00:41 Page:77
      442       37                    avoid stomping on the DVFC field in the DCB.
      443       38        */
      444       39        KIS$OSI_WRITE: PROC ALTRET;

     39  1 000000   000000 700200 xent  KIS$OSI_WRI* TSX0  ! X66_AUTO_0
         1 000001   000066 000000                    ZERO    54,0

      445       40        %INCLUDE CP_6_SUBS;
      446      580        %INCLUDE F$CP6V_C;
      447      806            %FPT$WRITE_V( BASED="BASED( B$PS0$)");
      448      812        %INCLUDE F$JIT_C;
      449     1242        %INCLUDE HF_LOCK_C;
      450     1256        %INCLUDE KI_ERRORS_C;
      451     1341        %INCLUDE K_ADDRESS_M;
      452     1844        %INCLUDE K_DATA_R;
      453     2555            %K$RWPARM( NAME=K$RWPARM, STCLASS=AUTO);
      454     2871        %INCLUDE K_INTERFACE_M;
      455     3280            %K$FPT_CONNECT_OSI;
      456     3617            %K$FPT_TERM_OSI;
      457     3835        %INCLUDE K_SESSION_M;
      458     3925            %KIS$APPL( NAME=APPL, STCLASS=BASED);
      459     3994            %KIS$GLUE( NAME=GLUE, STCLASS="BASED( B$PS2$)");
      460     4024        %INCLUDE K_SUBS_C;
      461     4057        %INCLUDE NK_LDCT_R;
      462     4066        %INCLUDE NK$LDCT;
      463     4168            %NK$LDCT( STCLASS="BASED( LDCT$)");
      464     4214        %INCLUDE UM_CP6;
      465     5066        %MACRO ERRCODE( NAME=ERRDUMMY, CODE=0);
      466     5067            %VLP_ERRCODE( FPTN=NAME, STCLASS=CONSTANT, FCG='KI', MID='S',
      467     5068                          MON='1'B, ERR#=CODE, SEV=7);
      468     5069        %MEND;
      469     5070            %ERRCODE( NAME=ERRBADOSIBUF, CODE=%E$BADOSIBUF);
      470     5118            %ERRCODE( NAME=ERRBADOSIFPT, CODE=%E$BADOSIFPT);
      471     5166            %ERRCODE( NAME=ERRBADSCID, CODE=%E$BADSCID);
      472     5214            %ERRCODE( NAME=ERRMINORTBL, CODE=%E$MINORTBL);
      473     5262            %ERRCODE( NAME=ERRTRANCLOSED, CODE=%E$TRANCLOSED);
      474     5310            %ERRCODE( NAME=ERRTRANOPEN, CODE=%E$TRANOPEN);
PL6.E3A0      #003=KIS$OSI_WRITE File=KIS$OSI.:E05TSI                            WED 07/30/97 00:41 Page:78
      475     5358            %ERRCODE( NAME=ERRTRANSPORT, CODE=%E$TRANSPORT);
      476     5406        %MACRO F$DCBI( BASED=BASED);
      477     5407        %INCLUDE F$DCB;
      478     5456        %MEND;
      479     5457            %F$DCBI( BASED="BASED( JDCB$)");
      480     5507
      481     5508    1       DCL KIA$OQFL ENTRY(1) ALTRET;
      482     5509    1       DCL KIT$SEND ENTRY(1) ALTRET;
      483     5510    1       DCL HFF$DSIZ ENTRY(2) ALTRET;
      484     5511    1       DCL SC_PRTCL_SNAP ENTRY CONV(2,0);
      485     5512
      486     5513    1       DCL B$JIT$ PTR SYMREF;
      487     5514    1       DCL B$PS0$ PTR SYMREF;  /* points at V area of FPT */
      488     5515    1       DCL B$PS2$ PTR SYMREF;  /* points at BUF within FPT */
      489     5516    1       DCL KIS_MAJOR$ PTR SYMREF;
      490     5517    1       DCL KIS_MINOR$ PTR SYMREF;
      491     5518    1       DCL KIS_SSN_MAXMAJOR UBIN SYMREF;
      492     5519
      493     5520    1       DCL JDCB$ PTR;
      494     5521    1       DCL LEN SBIN;
      495     5522    1       DCL LDCT$ PTR;
      496     5523    1       DCL LINK SBIN;
      497     5524    1       DCL MAJOR$ PTR;
      498     5525    1       DCL MINOR$ PTR;
      499     5526    1       DCL SCID SBIN;
      500     5527
      501     5528    1       JDCB$ = B$JIT.DCB$;

   5528  1 000002   000000 470400 xsym               LDP0    B$JIT$
         1 000003   000232 236100                    LDQ     154,,PR0
         1 000004   200054 756100                    STQ     JDCB$,,AUTO

      502     5529            /* get the major SCID for this application */
      503     5530    1       SCID = ASCBIN( F$DCB.DVFC);

   5530  1 000005   200054 471500                    LDP1    JDCB$,,AUTO
         1 000006   100044 236100                    LDQ     36,,PR1
PL6.E3A0      #003=KIS$OSI_WRITE File=KIS$OSI.:E05TSI                            WED 07/30/97 00:41 Page:79
         1 000007   000011 772000                    QRL     9
         1 000010   000777 376007                    ANQ     511,DL
         1 000011   200062 756100                    STQ     SCID,,AUTO

      504     5531    2       IF SCID > KIS_SSN_MAXMAJOR THEN DO;

   5531  1 000012   000023 604000 1                  TMI     s:5542
         1 000013   000000 116000 xsym               CMPQ    KIS_SSN_MAXMAJOR
         1 000014   000023 602000 1                  TNC     s:5542
         1 000015   000023 600000 1                  TZE     s:5542

      505     5532                /* no way can this be a legal appl id */
      506     5533    2           B$JIT.ERR = ERRBADSCID;

   5533  1 000016   000002 236000 0                  LDQ     ERRBADSCID
         1 000017   000012 756100                    STQ     10,,PR0

      507     5534                /*    ERROR:  KIS-E$BADSCID-A
      508     5535                    MESSAGE:  Bad Session connection identifier.
      509     5536                */
      510     5537    2   SNAP:
      511     5538    2           CALL SC_PRTCL_SNAP;

   5538  1 000020   000000 713400 xsym  SNAP         CLIMB   SC_PRTCL_SNAP
         1 000021   000000 600000 xsid               climb   nvectors=         0

      512     5539    2           ALTRETURN;

   5539  1 000022   000000 702200 xent               TSX2  ! X66_AALT

      513     5540    2           END;
      514     5541            /* see if SPDU is present and reasonable length */
      515     5542    1       CALL HFF$DSIZ( B$PS2$, LEN)

   5542  1 000023   200055 633500                    EPPR3   LEN,,AUTO
         1 000024   200065 453500                    STP3    SCID+3,,AUTO
         1 000025   000000 236000 2                  LDQ     0
PL6.E3A0      #003=KIS$OSI_WRITE File=KIS$OSI.:E05TSI                            WED 07/30/97 00:41 Page:80
         1 000026   200064 756100                    STQ     SCID+2,,AUTO
         1 000027   200064 630500                    EPPR0   SCID+2,,AUTO
         1 000030   000020 631400 xsym               EPPR1   B_VECTNIL+16
         1 000031   000000 701000 xent               TSX1    HFF$DSIZ
         1 000032   000034 702000 1                  TSX2    BADBUF
         1 000033   000040 710000 1                  TRA     s:5552

      516     5543    2       WHENALTRETURN DO;

      517     5544                /* there's no SPDU present but it's required to be there */
      518     5545    2   BADBUF:
      519     5546    2           B$JIT.ERR = ERRBADOSIBUF;

   5546  1 000034   000000 236000 0     BADBUF       LDQ     ERRBADOSIBUF
         1 000035   000000 470400 xsym               LDP0    B$JIT$
         1 000036   000012 756100                    STQ     10,,PR0

      520     5547                /*E*  ERROR:  KIS-E$BADOSIBUF-A
      521     5548                    MESSAGE:  Write buffer too short or not present at all.
      522     5549                */
      523     5550    2           ALTRETURN;

   5550  1 000037   000000 702200 xent               TSX2  ! X66_AALT

      524     5551    2           END;
      525     5552    1       IF LEN < 4 THEN

   5552  1 000040   200055 235100                    LDA     LEN,,AUTO
         1 000041   000004 115007                    CMPA    4,DL
         1 000042   000034 604000 1                  TMI     BADBUF

      526     5553    1           GOTO BADBUF;
      527     5554    1       K$RWPARM = K_RWPARM_CON;

   5554  1 000043   000100 100400                    MLR     fill='000'O
         1 000044   000000 000234 xsym               ADSC9   K_RWPARM_CON             cn=0,n=156
         1 000045   200004 000234                    ADSC9   K$RWPARM,,AUTO           cn=0,n=156
PL6.E3A0      #003=KIS$OSI_WRITE File=KIS$OSI.:E05TSI                            WED 07/30/97 00:41 Page:81

      528     5555    1       K$RWPARM.FUNCTION = GLUE.TRNFNC;

   5555  1 000046   000000 470400 xsym               LDP0    B$PS2$
         1 000047   000000 236100                    LDQ     0,,PR0
         1 000050   000022 772000                    QRL     18
         1 000051   000777 376007                    ANQ     511,DL
         1 000052   200024 756100                    STQ     K$RWPARM+16,,AUTO

      529     5556    1       MAJOR$ = PINCRW( KIS_MAJOR$, SCID);

   5556  1 000053   200062 236100                    LDQ     SCID,,AUTO
         1 000054   000022 736000                    QLS     18
         1 000055   000000 036000 xsym               ADLQ    KIS_MAJOR$
         1 000056   200060 756100                    STQ     MAJOR$,,AUTO

      530     5557    2       IF GLUE.TRNFNC ~= %K_TCONNECT_REQ THEN DO;

   5557  1 000057   000000 236100                    LDQ     0,,PR0
         1 000060   000777 376003                    ANQ     511,DU
         1 000061   000025 116003                    CMPQ    21,DU
         1 000062   000103 600000 1                  TZE     s:5572

      531     5558    3           IF MAJOR$->APPL.Z.LINK = 0 THEN DO;

   5558  1 000063   200060 471500                    LDP1    MAJOR$,,AUTO
         1 000064   100000 236100                    LDQ     0,,PR1
         1 000065   000777 316007                    CANQ    511,DL
         1 000066   000073 601000 1                  TNZ     s:5567

      532     5559    3   NOWAY:
      533     5560    3               B$JIT.ERR = ERRTRANCLOSED;

   5560  1 000067   000004 236000 0     NOWAY        LDQ     ERRTRANCLOSED
         1 000070   000000 470400 xsym               LDP0    B$JIT$
         1 000071   000012 756100                    STQ     10,,PR0

PL6.E3A0      #003=KIS$OSI_WRITE File=KIS$OSI.:E05TSI                            WED 07/30/97 00:41 Page:82
      534     5561                    /*E*  ERROR:  KIS-E$TRANCLOSED-A
      535     5562                        MESSAGE:  Transport connection doesn't exist.
      536     5563                    */
      537     5564    3               ALTRETURN;

   5564  1 000072   000000 702200 xent               TSX2  ! X66_AALT

      538     5565    3               END;
      539     5566    3           ELSE DO;

      540     5567    3               MINOR$ = PINCRW( KIS_MINOR$, MAJOR$->APPL.Z.LINK);

   5567  1 000073   100000 720100                    LXL0    0,,PR1
         1 000074   000777 360003                    ANX0    511,DU
         1 000075   000000 636010                    EAQ     0,X0
         1 000076   000000 036000 xsym               ADLQ    KIS_MINOR$
         1 000077   200061 756100                    STQ     MINOR$,,AUTO

      541     5568    3               IF MINOR$->APPL.TCTX = 0 THEN

   5568  1 000100   200061 473500                    LDP3    MINOR$,,AUTO
         1 000101   300000 221100                    LDX1    0,,PR3
         1 000102   000067 600000 1                  TZE     NOWAY

      542     5569    3                   GOTO NOWAY;
      543     5570    3               END;

      544     5571    2           END;

      545     5572    2       DO CASE( GLUE.TRNFNC);

   5572  1 000103   000000 236100                    LDQ     0,,PR0
         1 000104   000022 772000                    QRL     18
         1 000105   000777 376007                    ANQ     511,DL
         1 000106   000025 136007                    SBLQ    21,DL
         1 000107   000005 116007                    CMPQ    5,DL
         1 000110   000112 602006 1                  TNC     s:5572+7,QL
PL6.E3A0      #003=KIS$OSI_WRITE File=KIS$OSI.:E05TSI                            WED 07/30/97 00:41 Page:83
         1 000111   000227 710000 1                  TRA     s:5635
         1 000112   000117 710000 1                  TRA     s:5575
         1 000113   000227 710000 1                  TRA     s:5635
         1 000114   000222 710000 1                  TRA     s:5631
         1 000115   000222 710000 1                  TRA     s:5631
         1 000116   000210 710000 1                  TRA     s:5618

      546     5573    2           CASE( %K_TCONNECT_REQ);

      547     5574                    /* this is a T-CONNECT Request */
      548     5575    3               IF LEN - 4 ~= SIZEC( K$FPT_CONNECT_OSI) THEN DO;

   5575  1 000117   000220 115007                    CMPA    144,DL
         1 000120   000125 600000 1                  TZE     s:5583

      549     5576    3                   B$JIT.ERR = ERRBADOSIFPT;

   5576  1 000121   000001 236000 0                  LDQ     ERRBADOSIFPT
         1 000122   000000 471400 xsym               LDP1    B$JIT$
         1 000123   100012 756100                    STQ     10,,PR1

      550     5577                        /*E*  ERROR:  KIS-E$BADOSIFPT-A
      551     5578                            MESSAGE:  Write buffer contains malformed Transport FPT.
      552     5579                        */
      553     5580    3                   GOTO SNAP;

   5580  1 000124   000020 710000 1                  TRA     SNAP

      554     5581    3                   END;
      555     5582                    /* point at the K$FPT_CONNECT_OSI */
      556     5583    2               K$RWPARM.FPT$ = ADDR( GLUE.DATA);

   5583  1 000125   000000 236000 xsym               LDQ     B$PS2$
         1 000126   000001 036003                    ADLQ    1,DU
         1 000127   200023 756100                    STQ     K$RWPARM+15,,AUTO

      557     5584    2               MINOR$ = ADDR( NIL);
PL6.E3A0      #003=KIS$OSI_WRITE File=KIS$OSI.:E05TSI                            WED 07/30/97 00:41 Page:84

   5584  1 000130   000001 236000 xsym               LDQ     B_VECTNIL+1
         1 000131   200061 756100                    STQ     MINOR$,,AUTO

      558     5585    2               LINK = MAJOR$->APPL.Z.LINK;

   5585  1 000132   200060 471500                    LDP1    MAJOR$,,AUTO
         1 000133   100000 236100                    LDQ     0,,PR1
         1 000134   000777 376007                    ANQ     511,DL
         1 000135   200057 756100                    STQ     LINK,,AUTO

      559     5586    3               IF LINK ~= 0 THEN DO;

   5586  1 000136   000151 600000 1                  TZE     s:5598

      560     5587    3                   MINOR$ = PINCRW( KIS_MINOR$, LINK);

   5587  1 000137   000022 736000                    QLS     18
         1 000140   000000 036000 xsym               ADLQ    KIS_MINOR$
         1 000141   200061 756100                    STQ     MINOR$,,AUTO

      561     5588    4                   IF MINOR$->APPL.TCTX ~= 0 THEN DO;

   5588  1 000142   200061 473500                    LDP3    MINOR$,,AUTO
         1 000143   300000 220100                    LDX0    0,,PR3
         1 000144   000151 600000 1                  TZE     s:5598

      562     5589                            /* would overlay an existing Transport connection */
      563     5590    4                       B$JIT.ERR = ERRTRANOPEN;

   5590  1 000145   000005 236000 0                  LDQ     ERRTRANOPEN
         1 000146   000000 474400 xsym               LDP4    B$JIT$
         1 000147   400012 756100                    STQ     10,,PR4

      564     5591                            /*E*  ERROR:  KIS-E$TRANOPEN-A
      565     5592                                MESSAGE:  Transport connection already exists.
      566     5593                            */
PL6.E3A0      #003=KIS$OSI_WRITE File=KIS$OSI.:E05TSI                            WED 07/30/97 00:41 Page:85
      567     5594    4                       GOTO SNAP;

   5594  1 000150   000020 710000 1                  TRA     SNAP

      568     5595    4                       END;
      569     5596    3                   END;
      570     5597                    /* allocate a minor client slot for this connection */
      571     5598    3               IF MINOR$ = ADDR( NIL) THEN DO;

   5598  1 000151   200061 236100                    LDQ     MINOR$,,AUTO
         1 000152   000001 116000 xsym               CMPQ    B_VECTNIL+1
         1 000153   000173 601000 1                  TNZ     s:5611

      572     5599    3                   LINK = KIS_MINOR$->APPL.Z.LINK;

   5599  1 000154   000000 473400 xsym               LDP3    KIS_MINOR$
         1 000155   300000 236100                    LDQ     0,,PR3
         1 000156   000777 376007                    ANQ     511,DL
         1 000157   200057 756100                    STQ     LINK,,AUTO

      573     5600    4                   IF LINK = 0 THEN DO;

   5600  1 000160   000165 601000 1                  TNZ     s:5608

      574     5601                            /* all minor client slots are in use */
      575     5602    4                       B$JIT.ERR = ERRMINORTBL;

   5602  1 000161   000003 236000 0                  LDQ     ERRMINORTBL
         1 000162   000000 474400 xsym               LDP4    B$JIT$
         1 000163   400012 756100                    STQ     10,,PR4

      576     5603                            /*E*  ERROR:  KIS-E$MINORTBL-A
      577     5604                            MESSAGE: No more space in the 'minor' Session connection table.
      578     5605                            */
      579     5606    4                       ALTRETURN;

   5606  1 000164   000000 702200 xent               TSX2  ! X66_AALT
PL6.E3A0      #003=KIS$OSI_WRITE File=KIS$OSI.:E05TSI                            WED 07/30/97 00:41 Page:86

      580     5607    4                       END;
      581     5608    3                   MINOR$ = PINCRW( KIS_MINOR$, LINK);

   5608  1 000165   000022 736000                    QLS     18
         1 000166   000000 036000 xsym               ADLQ    KIS_MINOR$
         1 000167   200061 756100                    STQ     MINOR$,,AUTO

      582     5609    3                   KIS_MINOR$->APPL.Z.LINK = MINOR$->APPL.Z.LINK;

   5609  1 000170   200061 474500                    LDP4    MINOR$,,AUTO
         1 000171   400000 236100                    LDQ     0,,PR4
         1 000172   300000 552104                    STBQ    0,'04'O,PR3

      583     5610    3                   END;

      584     5611    2               MINOR$->APPL.TCTX = 0;

   5611  1 000173   000000 220003                    LDX0    0,DU
         1 000174   200061 470500                    LDP0    MINOR$,,AUTO
         1 000175   000000 740100                    STX0    0,,PR0

      585     5612    2               MINOR$->APPL.Z.LINK = 0;

   5612  1 000176   000000 236003                    LDQ     0,DU
         1 000177   000000 552104                    STBQ    0,'04'O,PR0

      586     5613    2               MAJOR$->APPL.Z.LINK = LINK;

   5613  1 000200   200057 236100                    LDQ     LINK,,AUTO
         1 000201   100000 552104                    STBQ    0,'04'O,PR1

      587     5614                    /* make sure complete SCID is present in FPT */
      588     5615    2               K$RWPARM.FPT$->K$FPT_CONNECT_OSI.SCID = SCID * 512 + LINK;

   5615  1 000202   200062 236100                    LDQ     SCID,,AUTO
         1 000203   000011 736000                    QLS     9
PL6.E3A0      #003=KIS$OSI_WRITE File=KIS$OSI.:E05TSI                            WED 07/30/97 00:41 Page:87
         1 000204   200057 036100                    ADLQ    LINK,,AUTO
         1 000205   200023 473500                    LDP3    K$RWPARM+15,,AUTO
         1 000206   300005 756100                    STQ     5,,PR3
         1 000207   000227 710000 1                  TRA     s:5635

      589     5616    2           CASE( %K_TDISCONNECT_REQ);

      590     5617                    /* this is a T-DISCONNECT Request */
      591     5618    3               IF LEN - 4 ~= SIZEC( K$FPT_TERM_OSI) THEN DO;

   5618  1 000210   000174 115007                    CMPA    124,DL
         1 000211   000216 600000 1                  TZE     s:5626

      592     5619    3                   B$JIT.ERR = ERRBADOSIFPT;

   5619  1 000212   000001 236000 0                  LDQ     ERRBADOSIFPT
         1 000213   000000 471400 xsym               LDP1    B$JIT$
         1 000214   100012 756100                    STQ     10,,PR1

      593     5620                        /*    ERROR:  KIS-E$BADOSIFPT-A
      594     5621                            MESSAGE:  Write buffer contains malformed Transport FPT.
      595     5622                        */
      596     5623    3                   GOTO SNAP;

   5623  1 000215   000020 710000 1                  TRA     SNAP

      597     5624    3                   END;
      598     5625                    /* point at the K$FPT_TERM_OSI */
      599     5626    2               K$RWPARM.FPT$ = ADDR( GLUE.DATA);

   5626  1 000216   000000 236000 xsym               LDQ     B$PS2$
         1 000217   000001 036003                    ADLQ    1,DU
         1 000220   200023 756100                    STQ     K$RWPARM+15,,AUTO
         1 000221   000227 710000 1                  TRA     s:5635

      600     5627    2           CASE( %K_TDATA_REQ,

PL6.E3A0      #003=KIS$OSI_WRITE File=KIS$OSI.:E05TSI                            WED 07/30/97 00:41 Page:88
      601     5628    2                 %K_TEXPD_DATA_REQ);
      602     5629                    /* this is a T-DATA Request or a T-EXPEDITED-DATA Request */
      603     5630                    /* frame the SPDU to send */
      604     5631    2               K$RWPARM.SHDR$ = ADDR( GLUE.DATA);

   5631  1 000222   000000 236000 xsym               LDQ     B$PS2$
         1 000223   000001 036003                    ADLQ    1,DU
         1 000224   200026 756100                    STQ     K$RWPARM+18,,AUTO

      605     5632    2               K$RWPARM.SHDRSZ = LEN - 4;

   5632  1 000225   000004 135007                    SBLA    4,DL
         1 000226   200027 755100                    STA     K$RWPARM+19,,AUTO

      606     5633    2           END;

      607     5634            /* point at the correct major client slot */
      608     5635    1       MAJOR$ = PINCRW( KIS_MAJOR$, SCID);

   5635  1 000227   200062 236100                    LDQ     SCID,,AUTO
         1 000230   000022 736000                    QLS     18
         1 000231   000000 036000 xsym               ADLQ    KIS_MAJOR$
         1 000232   200060 756100                    STQ     MAJOR$,,AUTO

      609     5636            /* get the Transport connection id */
      610     5637    1       K$RWPARM.TCTX# = MINOR$->APPL.TCTX;

   5637  1 000233   200061 470500                    LDP0    MINOR$,,AUTO
         1 000234   000000 220100                    LDX0    0,,PR0
         1 000235   200037 740100                    STX0    K$RWPARM+27,,AUTO

      611     5638            /* send the mess to Transport */
      612     5639    1       LDCT$ = NK$LDCT$( F$DCB.LDCTX);

   5639  1 000236   200054 471500                    LDP1    JDCB$,,AUTO
         1 000237   100051 221100                    LDX1    41,,PR1
         1 000240   000000 473400 xsym               LDP3    N$DCT$$
PL6.E3A0      #003=KIS$OSI_WRITE File=KIS$OSI.:E05TSI                            WED 07/30/97 00:41 Page:89
         1 000241   300000 236111                    LDQ     0,X1,PR3
         1 000242   200056 756100                    STQ     LDCT$,,AUTO

      613     5640            %LOCK( G=NK$LDCT.LOCK);

   5641  1 000243   000020 036003                    ADLQ    16,DU
         1 000244   200064 756100                    STQ     SCID+2,,AUTO
         1 000245   200064 630500                    EPPR0   SCID+2,,AUTO
         1 000246   000017 631400 xsym               EPPR1   B_VECTNIL+15
         1 000247   000000 701000 xent               TSX1    HFC$LOCK
         1 000250   000000 011000                    NOP     0

      614     5643    1   TRYSEND:
      615     5644    1       CALL KIT$SEND( K$RWPARM)

   5644  1 000251   200004 630500       TRYSEND      EPPR0   K$RWPARM,,AUTO
         1 000252   200064 450500                    STP0    SCID+2,,AUTO
         1 000253   200064 630500                    EPPR0   SCID+2,,AUTO
         1 000254   000017 631400 xsym               EPPR1   B_VECTNIL+15
         1 000255   000000 701000 xent               TSX1    KIT$SEND
         1 000256   000267 702000 1                  TSX2    s:5652

      616     5645    2       WHENRETURN DO;

      617     5646                %UNLOCK( G=NK$LDCT.LOCK);

   5647  1 000257   200056 236100                    LDQ     LDCT$,,AUTO
         1 000260   000020 036003                    ADLQ    16,DU
         1 000261   200064 756100                    STQ     SCID+2,,AUTO
         1 000262   200064 630500                    EPPR0   SCID+2,,AUTO
         1 000263   000017 631400 xsym               EPPR1   B_VECTNIL+15
         1 000264   000000 701000 xent               TSX1    HFC$UNLOCK
         1 000265   000000 011000                    NOP     0

      618     5649    2           END;

   5649  1 000266   000332 710000 1                  TRA     s:5678
PL6.E3A0      #003=KIS$OSI_WRITE File=KIS$OSI.:E05TSI                            WED 07/30/97 00:41 Page:90

      619     5650    2       WHENALTRETURN DO;

      620     5651                /* the Transport layer couldn't handle the message */
      621     5652    3           IF K$RWPARM.ERR = %K$QFULL THEN DO;

   5652  1 000267   200017 235100                    LDA     K$RWPARM+11,,AUTO
         1 000270   000001 115007                    CMPA    1,DL
         1 000271   000310 601000 1                  TNZ     s:5663

      622     5653    3               CALL KIA$OQFL( NK$LDCT)

   5653  1 000272   200056 630500                    EPPR0   LDCT$,,AUTO
         1 000273   000017 631400 xsym               EPPR1   B_VECTNIL+15
         1 000274   000000 701000 xent               TSX1    KIA$OQFL
         1 000275   000277 702000 1                  TSX2    s:5656
         1 000276   000307 710000 1                  TRA     s:5660

      623     5654    4               WHENALTRETURN DO;

      624     5655                        %UNLOCK( G=NK$LDCT.LOCK);

   5656  1 000277   200056 236100                    LDQ     LDCT$,,AUTO
         1 000300   000020 036003                    ADLQ    16,DU
         1 000301   200064 756100                    STQ     SCID+2,,AUTO
         1 000302   200064 630500                    EPPR0   SCID+2,,AUTO
         1 000303   000017 631400 xsym               EPPR1   B_VECTNIL+15
         1 000304   000000 701000 xent               TSX1    HFC$UNLOCK
         1 000305   000000 011000                    NOP     0

      625     5658    4                   GOTO SNAP;

   5658  1 000306   000020 710000 1                  TRA     SNAP

      626     5659    4                   END;
      627     5660    3               GOTO TRYSEND;

PL6.E3A0      #003=KIS$OSI_WRITE File=KIS$OSI.:E05TSI                            WED 07/30/97 00:41 Page:91
   5660  1 000307   000251 710000 1                  TRA     TRYSEND

      628     5661    3               END;
      629     5662                %UNLOCK( G=NK$LDCT.LOCK);

   5663  1 000310   200056 236100                    LDQ     LDCT$,,AUTO
         1 000311   000020 036003                    ADLQ    16,DU
         1 000312   200064 756100                    STQ     SCID+2,,AUTO
         1 000313   200064 630500                    EPPR0   SCID+2,,AUTO
         1 000314   000017 631400 xsym               EPPR1   B_VECTNIL+15
         1 000315   000000 701000 xent               TSX1    HFC$UNLOCK
         1 000316   000000 011000                    NOP     0

      630     5665    3           IF K$RWPARM.ERR = %K$USER_ERR THEN DO;

   5665  1 000317   200017 235100                    LDA     K$RWPARM+11,,AUTO
         1 000320   000010 115007                    CMPA    8,DL
         1 000321   000326 601000 1                  TNZ     s:5670

      631     5666    3               B$JIT.ERR = K$RWPARM.MSG_ERRCODE;

   5666  1 000322   200043 236100                    LDQ     K$RWPARM+31,,AUTO
         1 000323   000000 470400 xsym               LDP0    B$JIT$
         1 000324   000012 756100                    STQ     10,,PR0

      632     5667    3               ALTRETURN;

   5667  1 000325   000000 702200 xent               TSX2  ! X66_AALT

      633     5668    3               END;
      634     5669    3           ELSE DO;

      635     5670    3               B$JIT.ERR = ERRTRANSPORT;

   5670  1 000326   000006 236000 0                  LDQ     ERRTRANSPORT
         1 000327   000000 470400 xsym               LDP0    B$JIT$
         1 000330   000012 756100                    STQ     10,,PR0
PL6.E3A0      #003=KIS$OSI_WRITE File=KIS$OSI.:E05TSI                            WED 07/30/97 00:41 Page:92

      636     5671                    /*    ERROR:  KIS-E$TRANSPORT-A
      637     5672                        MESSAGE:  Internal error.  Transport ALTRETURN.
      638     5673                    */
      639     5674    3               GOTO SNAP;

   5674  1 000331   000020 710000 1                  TRA     SNAP

      640     5675    3               END;
      641     5676    2           END;
      642     5677            /* Omigosh, it worked */
      643     5678    2       IF GLUE.TRNFNC = %K_TCONNECT_REQ THEN DO;

   5678  1 000332   000000 470400 xsym               LDP0    B$PS2$
         1 000333   000000 236100                    LDQ     0,,PR0
         1 000334   000777 376003                    ANQ     511,DU
         1 000335   000025 116003                    CMPQ    21,DU
         1 000336   000346 601000 1                  TNZ     s:5682

      644     5679    2           MINOR$->APPL.TCTX = K$RWPARM.TCTX#;

   5679  1 000337   200037 220100                    LDX0    K$RWPARM+27,,AUTO
         1 000340   200061 471500                    LDP1    MINOR$,,AUTO
         1 000341   100000 740100                    STX0    0,,PR1

      645     5680    2           MINOR$->APPL.Z.COOKIE = GLUE.MYSCID;

   5680  1 000342   000000 470400 xsym               LDP0    B$PS2$
         1 000343   000000 236100                    LDQ     0,,PR0
         1 000344   000022 772000                    QRL     18
         1 000345   100000 552110                    STBQ    0,'10'O,PR1

      646     5681    2           END;

      647     5682    1       RETURN;

   5682  1 000346   000000 702200 xent               TSX2  ! X66_ARET
PL6.E3A0      #003=KIS$OSI_WRITE File=KIS$OSI.:E05TSI                            WED 07/30/97 00:41 Page:93

ERRBADOSIBUF
 Sect OctLoc
   0     000   131123 431477                                                    YS..

ERRBADOSIFPT
 Sect OctLoc
   0     001   131123 431507                                                    YS..

ERRBADSCID
 Sect OctLoc
   0     002   131123 431407                                                    YS..

ERRMINORTBL
 Sect OctLoc
   0     003   131123 431327                                                    YS..

ERRTRANCLOSED
 Sect OctLoc
   0     004   131123 431437                                                    YS..

ERRTRANOPEN
 Sect OctLoc
   0     005   131123 431447                                                    YS..

ERRTRANSPORT
 Sect OctLoc
   0     006   131123 431457                                                    YS..

(unnamed)
 Sect OctLoc
   2     000   000000 006000                                                    ....
      648     5683
      649     5684    1       END KIS$OSI_WRITE;
      650     5685        %EOD;

PL6.E3A0      #003=KIS$OSI_WRITE File=KIS$OSI.:E05TSI                            WED 07/30/97 00:41 Page:94
--  Include file information  --

   F$DCB.:E05TOU  is referenced.
   UM_CP6.:E05TOU  is referenced.
   NK$LDCT.:E05TOU  is referenced.
   NK_LDCT_R.:E05TOU  cannot be made into a system file and is referenced.
   K_SUBS_C.:E05TOU  is referenced.
   K_SESSION_M.:E05TOU  is referenced.
   K_INTERFACE_M.:E05TOU  is referenced.
   K$RWPARM.:E05TOU  is referenced.
   K_DATA_R.:E05TOU  cannot be made into a system file and is referenced.
   K_ADDRESS_M.:E05TOU  is referenced.
   KI_ERRORS_C.:E05TOU  is referenced.
   HF_LOCK_C.:E05TOU  cannot be made into a system file and is referenced.
   B$JIT_C.:E05TOU  is referenced.
   F$JIT_C.:E05TOU  cannot be made into a system file and is referenced.
   F$CP6V_C.:E05TOU  is referenced.
   CP_6_SUBS.:E05TOU  is referenced.
      No diagnostics issued in procedure KIS$OSI_WRITE.
PL6.E3A0      #003=KIS$OSI_WRITE File=KIS$OSI.:E05TSI                            WED 07/30/97 00:41 Page:95

 **** Variables and constants ****

  ****  Section 000 RoData KIS$OSI_WRITE

  ****  Scalars and arrays  ****
OctLoc.c.b A Datatyp(siz) R M Lvl/name                 OctLoc.c.b A Datatyp(siz) R M Lvl/name

     0-0-0/w STRC        r     1 ERRBADOSIBUF               1-0-0/w STRC        r     1 ERRBADOSIFPT
     2-0-0/w STRC        r     1 ERRBADSCID                 3-0-0/w STRC        r     1 ERRMINORTBL
     4-0-0/w STRC        r     1 ERRTRANCLOSED              5-0-0/w STRC        r     1 ERRTRANOPEN
     6-0-0/w STRC        r     1 ERRTRANSPORT

  ****  Auto variables  ****

  ****  Scalars and arrays  ****
OctLoc.c.b A Datatyp(siz) R M Lvl/name                 OctLoc.c.b A Datatyp(siz) R M Lvl/name

    54-0-0/w PTR         r     1 JDCB$                      4-0-0/d STRC(1404)  r     1 K$RWPARM
    56-0-0/w PTR         r     1 LDCT$                     55-0-0/w SBIN        r     1 LEN
    57-0-0/w SBIN        r     1 LINK                      60-0-0/w PTR         r     1 MAJOR$
    61-0-0/w PTR         r     1 MINOR$                    62-0-0/w SBIN        r     1 SCID

  ****  SYMREF variables  ****

  ****  Scalars and arrays  ****
OctLoc.c.b A Datatyp(siz) R M Lvl/name                 OctLoc.c.b A Datatyp(siz) R M Lvl/name

     0-0-0/w PTR         r     1 B$JIT$                     0-0-0/w PTR         r     1 B$PS0$
     0-0-0/w PTR         r     1 B$PS2$                     0-0-0/w PTR         r     1 KIS_MAJOR$
     0-0-0/w PTR         r     1 KIS_MINOR$                 0-0-0/w UBIN        r     1 KIS_SSN_MAXMAJOR
     0-0-0/d STRC(1404)  r     1 K_RWPARM_CON               0-0-0/w PTR         r     1 N$DCT$$

  ****  BASED and DCB variables  ****

  ****  Scalars and arrays  ****
OctLoc.c.b A Datatyp(siz) R M Lvl/name                 OctLoc.c.b A Datatyp(siz) R M Lvl/name

PL6.E3A0      #003=KIS$OSI_WRITE File=KIS$OSI.:E05TSI                            WED 07/30/97 00:41 Page:96
     0-0-0/w STRC(360)   r     1 APPL                       0-0-0/d STRC(8856)  r     1 B$JIT
     0-0-0/d ASTR(3528)  r     1 F$DCB                      0-0-0/w STRC(72)    r     1 GLUE
     0-0-0/w STRC(1260)  r     1 K$FPT_CONNECT_OSI          0-0-0/w STRC(1080)  r     1 K$FPT_TERM_OSI
     0-0-0/d STRC(864)   r     1 NK$LDCT
     0-0-0/w PTR         r     1 NK$LDCT$(0:0)


   Procedure KIS$OSI_WRITE requires 231 words for executable code.
   Procedure KIS$OSI_WRITE requires 54 words of local(AUTO) storage.
PL6.E3A0      #003=KIS$OSI_WRITE File=KIS$OSI.:E05TSI                            WED 07/30/97 00:41 Page:97
          *** CROSS REFERENCE LISTING ***
**     DENOTES     IDENTIFIER DEFINITION
<<                 IDENTIFIER'S VALUE SET
>>                 IDENTIFIER'S VALUE USED
<>                 IDENTIFIER SET AND/OR USED
--                 IDENTIFIER REFERENCED
PL6.E3A0      #003=KIS$OSI_WRITE File=KIS$OSI.:E05TSI                            WED 07/30/97 00:41 Page:98
          MINI XREF LISTING

APPL.CLNTHD
      3952**DCL      3953--REDEF
APPL.TCTX
      3949**DCL      3950--REDEF    3951--REDEF    5568>>IF       5588>>IF       5611<<ASSIGN   5637>>ASSIGN
      5679<<ASSIGN
APPL.Z.COOKIE
      3954**DCL      3955--REDEF    5680<<ASSIGN
APPL.Z.LINK
      3956**DCL      5558>>IF       5567>>ASSIGN   5585>>ASSIGN   5599>>ASSIGN   5609<<ASSIGN   5609>>ASSIGN
      5612<<ASSIGN   5613<<ASSIGN
B$JIT.DCB$
      1229**DCL      5528>>ASSIGN
B$JIT.ERR
      1139**DCL      5533<<ASSIGN   5546<<ASSIGN   5560<<ASSIGN   5576<<ASSIGN   5590<<ASSIGN   5602<<ASSIGN
      5619<<ASSIGN   5666<<ASSIGN   5670<<ASSIGN
B$JIT.ERR.MID
      1140**DCL      1140--REDEF
B$JIT$
      5513**DCL      1134--IMP-PTR  5528>>ASSIGN   5533>>ASSIGN   5546>>ASSIGN   5560>>ASSIGN   5576>>ASSIGN
      5590>>ASSIGN   5602>>ASSIGN   5619>>ASSIGN   5666>>ASSIGN   5670>>ASSIGN
B$PS0$
      5514**DCL       807--IMP-PTR
B$PS2$
      5515**DCL      4011--IMP-PTR  5542<>CALL     5555>>ASSIGN   5557>>IF       5572>>DOCASE   5583>>ASSIGN
      5626>>ASSIGN   5631>>ASSIGN   5678>>IF       5680>>ASSIGN
BADBUF
      5546**LABEL    5553--GOTO
ERRBADOSIBUF
      5084**DCL      5546>>ASSIGN
ERRBADOSIFPT
      5132**DCL      5576>>ASSIGN   5619>>ASSIGN
ERRBADSCID
PL6.E3A0      #003=KIS$OSI_WRITE File=KIS$OSI.:E05TSI                            WED 07/30/97 00:41 Page:99
      5180**DCL      5533>>ASSIGN
ERRMINORTBL
      5228**DCL      5602>>ASSIGN
ERRTRANCLOSED
      5276**DCL      5560>>ASSIGN
ERRTRANOPEN
      5324**DCL      5590>>ASSIGN
ERRTRANSPORT
      5372**DCL      5670>>ASSIGN
F$DCB.ACTPOS
      5483**DCL      5483--REDEF
F$DCB.ARS
      5458**DCL      5458--REDEF
F$DCB.ATTR
      5476**DCL      5477--REDEF
F$DCB.BORROW
      5491**DCL      5491--REDEF    5491--REDEF    5491--REDEF
F$DCB.DCBNAME.L
      5505**DCL      5505--IMP-SIZ
F$DCB.DVFC
      5479**DCL      5530>>ASSIGN
F$DCB.EOMCHAR
      5462**DCL      5462--REDEF
F$DCB.FLDID
      5486**DCL      5486--REDEF
F$DCB.FORM$
      5480**DCL      5480--REDEF
F$DCB.FSECT
      5496**DCL      5496--REDEF
F$DCB.FSN
      5473**DCL      5473--REDEF    5473--REDEF    5474--REDEF
F$DCB.HEADER$
      5479**DCL      5479--REDEF
F$DCB.IXTNSIZE
      5477**DCL      5477--REDEF
F$DCB.LASTSTA$
PL6.E3A0      #003=KIS$OSI_WRITE File=KIS$OSI.:E05TSI                            WED 07/30/97 00:41 Page:100
      5467**DCL      5467--REDEF
F$DCB.LDCTX
      5480**DCL      5639>>ASSIGN
F$DCB.LVL
      5492**DCL      5492--REDEF
F$DCB.NAME.C
      5467**DCL      5467--REDEF
F$DCB.NOEOF
      5488**DCL      5488--REDEF
F$DCB.NRECS
      5478**DCL      5478--REDEF
F$DCB.NRECX
      5497**DCL      5497--REDEF
F$DCB.OHDR
      5489**DCL      5489--REDEF
F$DCB.ORG
      5472**DCL      5472--REDEF
F$DCB.PRECNO
      5495**DCL      5495--REDEF
F$DCB.RCSZ
      5500**DCL      5500--REDEF
F$DCB.RES
      5468**DCL      5468--REDEF
F$DCB.SETX
      5480**DCL      5480--REDEF
F$DCB.TAB$
      5479**DCL      5480--REDEF
F$DCB.TDA
      5494**DCL      5494--REDEF
F$DCB.WSN
      5469**DCL      5469--REDEF
FPT$WRITE_V.DVBYTE.VFC
       809**DCL       809--REDEF
GLUE.DATA
      4022**DCL      5583--ASSIGN   5626--ASSIGN   5631--ASSIGN
GLUE.MYSCID
PL6.E3A0      #003=KIS$OSI_WRITE File=KIS$OSI.:E05TSI                            WED 07/30/97 00:41 Page:101
      4018**DCL      5680>>ASSIGN
GLUE.TRNFNC
      4019**DCL      5555>>ASSIGN   5557>>IF       5572>>DOCASE   5678>>IF
HFC$LOCK
      1255**DCL-ENT  5641--CALL
HFC$UNLOCK
      1255**DCL-ENT  5647--CALL     5656--CALL     5663--CALL
HFF$DSIZ
      5510**DCL-ENT  5542--CALL
JDCB$
      5520**DCL      5458--IMP-PTR  5528<<ASSIGN   5530>>ASSIGN   5639>>ASSIGN
K$FPT_CONNECT_OSI
      3297**DCL      5575--IF
K$FPT_CONNECT_OSI.DST_NSAP.ADDRESS_N
      3603**DCL      3604--REDEF
K$FPT_CONNECT_OSI.SCID
      3407**DCL      5615<<ASSIGN
K$FPT_CONNECT_OSI.SRC_NSAP.ADDRESS_N
      3543**DCL      3544--REDEF
K$FPT_CONNECT_OSI.TPDUSIZE
      3306**DCL      3307--REDEF
K$FPT_TERM_OSI
      3633**DCL      5618--IF
K$FPT_TERM_OSI.DST_NSAP.ADDRESS_N
      3825**DCL      3826--REDEF
K$FPT_TERM_OSI.SRC_NSAP.ADDRESS_N
      3768**DCL      3769--REDEF
K$RWPARM
      2576**DCL      5554<<ASSIGN   5644<>CALL
K$RWPARM.BLKREC
      2602**DCL      2627--REDEF
K$RWPARM.BLKREC.BLKU#
      2603**DCL      2605--REDEF
K$RWPARM.BLKREC.RECU#
      2615**DCL      2617--REDEF
K$RWPARM.DVE.DVBYTE.VFC
PL6.E3A0      #003=KIS$OSI_WRITE File=KIS$OSI.:E05TSI                            WED 07/30/97 00:41 Page:102
      2642**DCL      2643--REDEF
K$RWPARM.DVE.EOMCHAR
      2650**DCL      2654--REDEF
K$RWPARM.ERR
      2714**DCL      2719--REDEF    5652>>IF       5665>>IF
K$RWPARM.FC
      2678**DCL      2679--REDEF
K$RWPARM.FLDID
      2860**DCL      2861--REDEF
K$RWPARM.FPT$
      2741**DCL      2748--REDEF    5583<<ASSIGN   5615>>ASSIGN   5626<<ASSIGN
K$RWPARM.FUNCTION
      2755**DCL      5555<<ASSIGN
K$RWPARM.KEYTYPE
      2867**DCL      2868--REDEF
K$RWPARM.MSG$
      2577**DCL      2583--REDEF
K$RWPARM.MSGID
      2689**DCL      2694--REDEF
K$RWPARM.MSGIDXT
      2702**DCL      2706--REDEF
K$RWPARM.MSG_ERRCODE
      2837**DCL      5666>>ASSIGN
K$RWPARM.ORG
      2838**DCL      2839--REDEF
K$RWPARM.SHDR$
      2770**DCL      5631<<ASSIGN
K$RWPARM.SHDRSZ
      2774**DCL      5632<<ASSIGN
K$RWPARM.TCTX#
      2812**DCL      5637<<ASSIGN   5679>>ASSIGN
K$RWPARM.THDRSZ
      2782**DCL      2786--REDEF
K$RWPARM.VDOFLGS
      2840**DCL      2851--REDEF
KIA$OQFL
PL6.E3A0      #003=KIS$OSI_WRITE File=KIS$OSI.:E05TSI                            WED 07/30/97 00:41 Page:103
      5508**DCL-ENT  5653--CALL
KIS_MAJOR$
      5516**DCL      5556>>ASSIGN   5635>>ASSIGN
KIS_MINOR$
      5517**DCL      5567>>ASSIGN   5587>>ASSIGN   5599>>ASSIGN   5608>>ASSIGN   5609>>ASSIGN
KIS_SSN_MAXMAJOR
      5518**DCL      5531>>IF
KIT$SEND
      5509**DCL-ENT  5644--CALL
K_RWPARM_CON
      2259**DCL      5554>>ASSIGN
K_RWPARM_CON.BLKREC
      2285**DCL      2310--REDEF
K_RWPARM_CON.BLKREC.BLKU#
      2286**DCL      2288--REDEF
K_RWPARM_CON.BLKREC.RECU#
      2298**DCL      2300--REDEF
K_RWPARM_CON.DVE.DVBYTE.VFC
      2325**DCL      2326--REDEF
K_RWPARM_CON.DVE.EOMCHAR
      2333**DCL      2337--REDEF
K_RWPARM_CON.ERR
      2397**DCL      2402--REDEF
K_RWPARM_CON.FC
      2361**DCL      2362--REDEF
K_RWPARM_CON.FLDID
      2543**DCL      2544--REDEF
K_RWPARM_CON.FPT$
      2424**DCL      2431--REDEF
K_RWPARM_CON.KEYTYPE
      2550**DCL      2551--REDEF
K_RWPARM_CON.MSG$
      2260**DCL      2266--REDEF
K_RWPARM_CON.MSGID
      2372**DCL      2377--REDEF
K_RWPARM_CON.MSGIDXT
PL6.E3A0      #003=KIS$OSI_WRITE File=KIS$OSI.:E05TSI                            WED 07/30/97 00:41 Page:104
      2385**DCL      2389--REDEF
K_RWPARM_CON.ORG
      2521**DCL      2522--REDEF
K_RWPARM_CON.THDRSZ
      2465**DCL      2469--REDEF
K_RWPARM_CON.VDOFLGS
      2523**DCL      2534--REDEF
LDCT$
      5522**DCL      4181--IMP-PTR  5639<<ASSIGN   5641>>CALL     5647>>CALL     5653>>CALL     5656>>CALL
      5663>>CALL
LEN
      5521**DCL      5542<>CALL     5552>>IF       5575>>IF       5618>>IF       5632>>ASSIGN
LINK
      5523**DCL      5585<<ASSIGN   5586>>IF       5587>>ASSIGN   5599<<ASSIGN   5600>>IF       5608>>ASSIGN
      5613>>ASSIGN   5615>>ASSIGN
MAJOR$
      5524**DCL      5556<<ASSIGN   5558>>IF       5567>>ASSIGN   5585>>ASSIGN   5613>>ASSIGN   5635<<ASSIGN
MINOR$
      5525**DCL      5567<<ASSIGN   5568>>IF       5584<<ASSIGN   5587<<ASSIGN   5588>>IF       5598>>IF
      5608<<ASSIGN   5609>>ASSIGN   5611>>ASSIGN   5612>>ASSIGN   5637>>ASSIGN   5679>>ASSIGN   5680>>ASSIGN
N$DCT$$
      4064**DCL      4064--IMP-PTR  5639>>ASSIGN
NK$LDCT
      4181**DCL      5653<>CALL
NK$LDCT.DDT$
      4183**DCL      4183--REDEF
NK$LDCT.IOQ$
      4182**DCL      4183--REDEF
NK$LDCT.LDCTX
      4184**DCL      4184--REDEF
NK$LDCT.LKFLG.ABORTED
      4196**DCL      4197--REDEF
NK$LDCT.LOCK
      4209**DCL      5641<>CALL     5647<>CALL     5656<>CALL     5663<>CALL
NK$LDCT.RLCID.LDCTX
      4206**DCL      4206--REDEF
PL6.E3A0      #003=KIS$OSI_WRITE File=KIS$OSI.:E05TSI                            WED 07/30/97 00:41 Page:105
NK$LDCT.STA$
      4202**DCL      4203--REDEF
NK$LDCT.SYMB$
      4181**DCL      4181--REDEF    4181--REDEF    4182--REDEF
NK$LDCT$
      4064**DCL      5639>>ASSIGN
NOWAY
      5560**LABEL    5569--GOTO
SCID
      5526**DCL      5530<<ASSIGN   5531>>IF       5556>>ASSIGN   5615>>ASSIGN   5635>>ASSIGN
SC_PRTCL_SNAP
      5511**DCL-ENT  5538--CALL
SNAP
      5538**LABEL    5580--GOTO     5594--GOTO     5623--GOTO     5658--GOTO     5674--GOTO
TRYSEND
      5644**LABEL    5660--GOTO

PL6.E3A0      #004=KIS$OSI_READ File=KIS$OSI.:E05TSI                             WED 07/30/97 00:41 Page:106
      651        1        /*T***********************************************************/
      652        2        /*T*                                                         */
      653        3        /*T* Copyright (c) Bull HN Information Systems Inc., 1997    */
      654        4        /*T*                                                         */
      655        5        /*T***********************************************************/
      656        6        /*F*    NAME:   KIS$OSI_READ
      657        7
      658        8                PURPOSE:  Handle M$READ of RES=NC DCB.
      659        9        */
      660       10        /*D*    NAME:   KIS$OSI_READ
      661       11                CALL:   CALL KIS$OSI_READ ALTRET( label);
      662       12                INPUT:
      663       13                    B$JIT.DCB$->F$DCB the NC DCB itself,
      664       14                    B$PS0$ points at the V area of the READ FPT,
      665       15                    B$PS2$ points at the BUF area of the READ FPT.
      666       16                OUTPUT:
      667       17                    On successful call,
      668       18                      TBD.
      669       19                    On unsuccessful call,
      670       20                      TBD.
      671       21                DESCRIPTION:
      672       22                    KIS$OSI_READ is called when an OSI client application wishes
      673       23                    to wait for an incoming message from a server on an already-
      674       24                    open connection, or to receive notification when an incoming
      675       25                    message has arrived.  It is entered from FSE$FORMAT when an
      676       26                    M$READ to a DCB with RES=NC is issued.
      677       27
      678       28                    The code splits on whether or not the application issued a
      679       29                    'wait' read.  If WAIT=YES, the application is REG'd waiting
      680       30                    for an incoming message.  On normal RETURN from SSR$REG the
      681       31                    message that arrived is moved to the user's buffer, thus
      682       32                    satisfying the read.
      683       33
      684       34                    If WAIT=NO, we set up to have the read satisfied later.
      685       35
      686       36                    NOTE: ALL WRITES AND READS THRU RES=NC MUST BE TRANSPARENT.
      687       37                    This is required for (1) optimized handling by FSE, and (2) to
PL6.E3A0      #004=KIS$OSI_READ File=KIS$OSI.:E05TSI                             WED 07/30/97 00:41 Page:107
      688       38                    avoid stomping on the DVFC field in the DCB.
      689       39        */
      690       40        KIS$OSI_READ: PROC ALTRET;
      691       41        %INCLUDE B$USER;
      692      257            %B$USERREFS;
      693      261        %INCLUDE B_STRINGS_C;
      694      390        %INCLUDE CP_6_SUBS;
      695      930        %INCLUDE F$CP6V_C;
      696     1156            %FPT$READ_V( BASED="BASED( B$PS0$)");
      697     1163        %INCLUDE F$JIT_C;
      698     1593        %INCLUDE F_ERRORS_C;
      699     1833        %INCLUDE HF_LOCK_C;
      700     1847        %INCLUDE KI_ERRORS_C;
      701     1932        %INCLUDE KI$MHDR;
      702     2073            %KI$QMHDR;
      703     2122        %INCLUDE K_ADDRESS_M;
      704     2625        %INCLUDE K_DATA_R;
      705     3336            %K$RWPARM( NAME=K$RWPARM, STCLASS=AUTO);
      706     3652        %INCLUDE K_INTERFACE_M;
      707     4061        %INCLUDE K_SESSION_M;
      708     4151            %KIS$APPL( NAME=APPL, STCLASS=BASED);
      709     4220        %INCLUDE K_SUBS_C;
      710     4253        %INCLUDE NK_LDCT_R;
      711     4262        %INCLUDE NK_SUBS;
      712     4287        %INCLUDE NK$LDCT;
      713     4389            %NK$LDCT( STCLASS="BASED( LDCT$)");
      714     4435        %INCLUDE SS_SCHED_C;
      715     4668        %INCLUDE UM_CP6;
      716     5520        %MACRO ERRCODE( NAME=ERRDUMMY, CODE=0);
      717     5521            %VLP_ERRCODE( FPTN=NAME, STCLASS=CONSTANT, FCG='KI', MID='S',
      718     5522                          MON='1'B, ERR#=CODE, SEV=7);
      719     5523        %MEND;
      720     5524            %ERRCODE( NAME=ERRBADBUFFER, CODE=%E$BADBUFFER);
      721     5572            %ERRCODE( NAME=ERRBADSCID, CODE=%E$BADSCID);
      722     5620            %ERRCODE( NAME=ERRCANTREG, CODE=%E$CANTREG);
      723     5668            %ERRCODE( NAME=ERREOD, CODE=%E$EOD);
      724     5716            %ERRCODE( NAME=ERROSILDSC, CODE=%E$OSILDSC);
PL6.E3A0      #004=KIS$OSI_READ File=KIS$OSI.:E05TSI                             WED 07/30/97 00:41 Page:108
      725     5764            %ERRCODE( NAME=ERRNOREAD, CODE=%E$NOREAD);
      726     5812            %ERRCODE( NAME=ERRTRANCLOSED, CODE=%E$TRANCLOSED);
      727     5860            %ERRCODE( NAME=ERRTRANSPORT, CODE=%E$TRANSPORT);
      728     5908            %ERRCODE( NAME=ERRXTRARD, CODE=%E$XTRARD);
      729     5956        %MACRO F$DCBI( BASED=BASED);
      730     5957        %INCLUDE F$DCB;
      731     6006        %MEND;
      732     6007            %F$DCBI( BASED="BASED( JDCB$)");
      733     6057
      734     6058    1       DCL FMO$GETDOMAIN ENTRY(1);
      735     6059    1       DCL HFF$DSIZ ENTRY(2) ALTRET;
      736     6060    1       DCL HFF$TRAPALT ENTRY ALTRET;
      737     6061    1       DCL HFF$WRITE1 ENTRY(1) ALTRET;
      738     6062    1       DCL KIA$COMP ENTRY(2);
      739     6063    1       DCL KIA$OQFL ENTRY(1) ALTRET;
      740     6064    1       DCL KIQ$MAPFEP ENTRY(1);
      741     6065    1       DCL KIT$SEND ENTRY(1) ALTRET;
      742     6066    1       DCL MMS$SETUP_BUF ENTRY(5) ALTRET;
      743     6067    1       DCL SSR$REG ENTRY(3) ALTRET;
      744     6068    1       DCL SC_PRTCL_SNAP ENTRY CONV(2,0);
      745     6069
      746     6070    1       DCL B$CGCTXT$ PTR SYMREF;
      747     6071    1       DCL B$JIT$ PTR SYMREF;
      748     6072    1       DCL B$PS0$ PTR SYMREF;  /* points at V area within FPT */
      749     6073    1       DCL B$PS2$ PTR SYMREF;  /* points at BUF within FPT */
      750     6074    1       DCL KIS_MAJOR$ PTR SYMREF;
      751     6075    1       DCL KIS_MINOR$ PTR SYMREF;
      752     6076    1       DCL KIS_SSN_MAXMAJOR UBIN SYMREF;
      753     6077    1       DCL NI_MFGATE BIT(72) SYMREF;
      754     6078
      755     6079    1       DCL BUFFER CHAR( LEN) BASED( B$PS2$) CALIGNED;
      756     6080    1       DCL DMN UBIN;
      757     6081    1       DCL 1 FEPIO,
      758     6082    1            2 EVENT SBIN,
      759     6083    1            2 KEYX SBIN(18) UNAL,
      760     6084    1            2 BUFX SBIN(18) UNAL,
      761     6085    1            2 BPP(0:1) BIT(18) UNAL,
PL6.E3A0      #004=KIS$OSI_READ File=KIS$OSI.:E05TSI                             WED 07/30/97 00:41 Page:109
      762     6086    1            2 KPP(0:1) BIT(18) UNAL;
      763     6087    1       DCL 1 FEPSIZ,
      764     6088    1            2 BUF UBIN(18) UNAL,
      765     6089    1            2 KEY UBIN(18) UNAL;
      766     6090    1       DCL JDCB$ PTR;
      767     6091    1       DCL LDCT$ PTR;
      768     6092    1       DCL LEN UBIN;
      769     6093    1       DCL MAJOR$ PTR;
      770     6094    1       DCL MINOR$ PTR;
      771     6095    1       DCL MESSAGE CHAR( K$RWPARM.MSGSZ) BASED( K$RWPARM.MSG$) CALIGNED;
      772     6096    1       DCL 1 NOWAIT,
      773     6097    1            2 KEYTYP UBIN(6) UNAL,
      774     6098    1            2 DMN UBIN(3) UNAL,
      775     6099    1            2 STREAM UBIN(9) UNAL,
      776     6100    1            2 DCB# UBIN(9) UNAL,
      777     6101    1            2 * UBIN(9) UNAL;
      778     6102    1       DCL 1 PTW(0:1),
      779     6103    1            2 PP BIT(18) ALIGNED;
      780     6104    1       DCL R$ PTR;
      781     6105    1       DCL SCID SBIN;
      782     6106
      783     6107    1       JDCB$ = B$JIT.DCB$;
      784     6108    1       LDCT$ = NK$LDCT$( F$DCB.LDCTX);
      785     6109            /* The remainder of this module attempts to duplicate the MFC_READ case
      786     6110               of KIA$UCIOND and friends.                                          */
      787     6111    2       IF NK$LDCT.DFLG.OLDSC THEN DO;
      788     6112                /*N* I don't see how this can happen */
      789     6113    2           B$JIT.ERR = ERROSILDSC;
      790     6114                /*E*  ERROR:  KIS-E$OSILDSC-A
      791     6115                    MESSAGE:  Internal error.  Your network path has vanished.
      792     6116                */
      793     6117    2   SNAP:
      794     6118    2           CALL SC_PRTCL_SNAP;
      795     6119    2           ALTRETURN;
      796     6120    2           END;
      797     6121            %LOCK( G=NK$LDCT.LOCK);
      798     6124            /* if WAIT=YES and there are other no-wait reads pending, cancel them */
PL6.E3A0      #004=KIS$OSI_READ File=KIS$OSI.:E05TSI                             WED 07/30/97 00:41 Page:110
      799     6125    2       IF F$DCB.WAIT ~= 0 AND F$DCB.FCN.CNT(0) ~= 0 THEN DO;
      800     6126    2   CANCEL:
      801     6127    3           DO WHILE( NK$LDCT.LKFLG.NOWAIT);
      802     6128    3               K$RWPARM = K_RWPARM_CON;
      803     6129    3               K$RWPARM.MSG_ERRCODE = ERRXTRARD;
      804     6130    3               K$RWPARM.TYC = %TYC_XTRARD;
      805     6131    3               CALL KIA$COMP( NK$LDCT, K$RWPARM);
      806     6132    3               END;
      807     6133    2           END;
      808     6134    1       K$RWPARM = K_RWPARM_CON;
      809     6135    2       IF F$DCB.WAIT = 1 THEN DO;
      810     6136                /* this is a 'wait' read request */
      811     6137                /* Note: the following call to SSR unlocks the gate */
      812     6138    2           CALL SSR$REG( %SS_CW, NK$LDCT)
      813     6139    3           WHENALTRETURN DO;
      814     6140                    /* problem REG'ing the user */
      815     6141                    %LOCK( G=NK$LDCT.LOCK);
      816     6144    3               IF NK$LDCT.IP$ ~= ADDR( NIL) THEN
      817     6145    3                   GOTO READ_IT;
      818     6146    3   BRKCK:
      819     6147                    %UNLOCK( G=NK$LDCT.LOCK);
      820     6150    3               CALL SC_PRTCL_SNAP;
      821     6151    3               IF K$RWPARM.ERR ~= 0 THEN
      822     6152    3                   ALTRETURN;
      823     6153    3               B$JIT.ERR = ERRCANTREG;
      824     6154                    /*E*  ERROR:  KIS-E$CANTREG-A
      825     6155                        MESSAGE:  Internal error.  Funny wait-read REG ALTRETURN.
      826     6156                    */
      827     6157    3               ALTRETURN;
      828     6158    3               END;
      829     6159                %LOCK( G=NK$LDCT.LOCK);
      830     6162    2   READ_IT:
      831     6163    2           K$RWPARM.IP$ = NK$LDCT.IP$;
      832     6164    2           NK$LDCT.IP$ = ADDR( NIL);
      833     6165    3           IF K$RWPARM.IP$ = ADDR( NIL) THEN DO;
      834     6166                    %UNLOCK( G=NK$LDCT.LOCK);
      835     6169    3               B$JIT.ERR = ERRNOREAD;
PL6.E3A0      #004=KIS$OSI_READ File=KIS$OSI.:E05TSI                             WED 07/30/97 00:41 Page:111
      836     6170                    /*E*  ERROR:  KIS-E$NOREAD-A
      837     6171                        MESSAGE:  Internal error.  Message lost.
      838     6172                    */
      839     6173    3               GOTO SNAP;
      840     6174    3               END;
      841     6175                /*N* document this */
      842     6176    2           CALL KIQ$MAPFEP( NK$LDCT.IPFEI#);
      843     6177    2           K$RWPARM.MSG$ = PINCRC( K$RWPARM.IP$, K$RWPARM.IP$->KI$QMHDR.OFFSET);
      844     6178    2           K$RWPARM.MSGSZ = K$RWPARM.IP$->KI$QMHDR.SIZE;
      845     6179    2           K$RWPARM.TYC = '0'B;
      846     6180                /* set up to move data into user buffer */
      847     6181    2           CALL HFF$DSIZ( B$PS2$, LEN) ALTRET( BAD_BUFFER);
      848     6182    3           IF K$RWPARM.MSGSZ > LEN THEN DO;
      849     6183                    /* received message larger than user buffer; note truncated */
      850     6184    3               K$RWPARM.TYC = %TYC_LD | %TYC_EGV;
      851     6185    3               K$RWPARM.MSGSZ = LEN;
      852     6186    3               END;
      853     6187    3           IF K$RWPARM.MSG$ ~= ADDR( NIL) THEN DO;
      854     6188                    /* set up to trap bad user buffer */
      855     6189    3               CALL HFF$TRAPALT ALTRET( BAD_BUFFER);
      856     6190                    /* try to move the message */
      857     6191    3               BUFFER = MESSAGE;
      858     6192                    /* it worked; save moved length in DCB */
      859     6193    3               F$DCB.ARS = K$RWPARM.MSGSZ;
      860     6194    3               END;
      861     6195    2           B$JIT.ERR = K$RWPARM.MSG_ERRCODE;
      862     6196    2           K$RWPARM.LDCT$ = LDCT$;
      863     6197    2           K$RWPARM.FUNCTION = %K_READDONE;
      864     6198    2           CALL KIT$SEND( K$RWPARM) ALTRET( BRKCK);
      865     6199                %UNLOCK( G=NK$LDCT.LOCK);
      866     6202    2           RETURN;
      867     6203    2           END;
      868     6204            /* otherwise, this is a no-wait read request */
      869     6205            %UNLOCK( G=NK$LDCT.LOCK);
      870     6208            /*N* All of the following needs to be better documented */
      871     6209            /* set up the buffer area of the DCB */
      872     6210    1       FEPSIZ.BUF = F$DCB.UBYTES;
PL6.E3A0      #004=KIS$OSI_READ File=KIS$OSI.:E05TSI                             WED 07/30/97 00:41 Page:112
      873     6211    1       CALL MMS$SETUP_BUF( %USERWSQ, F$DCB.UB$, F$DCB.UBYTES, R$, PTW);
      874     6212    1       FEPIO.BUFX = POFFC( R$, B$CGCTXT$);
      875     6213    1       FEPIO.BPP(0) = PTW.PP(0);
      876     6214    1       FEPIO.BPP(1) = PTW.PP(1);
      877     6215            /* save the DCB# of the user specified DCB and the event */
      878     6216    1       FEPIO.EVENT = FPT$READ_V.EVENT;
      879     6217    1       NOWAIT.DCB# = B$JIT.DCBNO;
      880     6218    1       NOWAIT.STREAM = K$RWPARM.STR;
      881     6219    1       CALL FMO$GETDOMAIN( DMN);
      882     6220    1       NOWAIT.DMN = DMN;
      883     6221            /* make sure we have write access */
      884     6222    1       CALL HFF$WRITE1( 2) ALTRET( BAD_BUFFER);
      885     6223            /* set up to get the TCTX */
      886     6224    1       SCID = ASCBIN( F$DCB.DVFC);
      887     6225    2       IF SCID > KIS_SSN_MAXMAJOR THEN DO;
      888     6226                /* no way can this be a legal appl id */
      889     6227    2           B$JIT.ERR = ERRBADSCID;
      890     6228                /*    ERROR:  KIS-E$BADSCID-A
      891     6229                    MESSAGE:  Bad Session connection identifier.
      892     6230                */
      893     6231    2           GOTO SNAP;
      894     6232    2           END;
      895     6233    1       MINOR$ = ADDR( NIL);
      896     6234    1       MAJOR$ = PINCRW( KIS_MAJOR$, SCID);
      897     6235    2       IF MAJOR$->APPL.Z.LINK ~= 0 THEN DO;
      898     6236    2           MINOR$ = PINCRW( KIS_MINOR$, MAJOR$->APPL.Z.LINK);
      899     6237    3           IF MINOR$->APPL.TCTX = 0 THEN DO;
      900     6238    3               B$JIT.ERR = ERRTRANCLOSED;
      901     6239                    /*    ERROR:  KIS-E$TRANCLOSED-A
      902     6240                        MESSAGE:  Transport connection doesn't exist.
      903     6241                    */
      904     6242    3               ALTRETURN;
      905     6243    3               END;
      906     6244    2           END;
      907     6245            %LOCK( G=NK$LDCT.LOCK);
      908     6248    2       IF NK$LDCT.LKFLG.NOWAIT THEN DO;
      909     6249                /* at least one other no-wait read pending */
PL6.E3A0      #004=KIS$OSI_READ File=KIS$OSI.:E05TSI                             WED 07/30/97 00:41 Page:113
      910     6250    2           IF FEPSIZ ~= F$DCB.FEPSIZ OR NK$LDCT.NOWAIT ~= NOWAIT THEN
      911     6251    2               GOTO CANCEL;
      912     6252    3           IF F$DCB.FCN.CNT(0) >= 3 THEN DO;
      913     6253                    /* too many reads outstanding.. have to cancel one of 'em */
      914     6254    3               K$RWPARM = K_RWPARM_CON;
      915     6255    3               K$RWPARM.MSG_ERRCODE = ERRXTRARD;
      916     6256    3               K$RWPARM.TYC = %TYC_XTRARD;
      917     6257    3               CALL KIA$COMP( NK$LDCT, K$RWPARM);
      918     6258    3               END;
      919     6259    2           END;
      920     6260    2       ELSE DO;
      921     6261    2           NK$LDCT.NOWAIT = NOWAIT;
      922     6262    2           F$DCB.FEPSIZ = FEPSIZ;
      923     6263    2           END;
      924     6264    1       NK$LDCT.LKFLG.NOWAIT = '1'B;
      925     6265            /* increment the user's MF count */
      926     6266            %LOCK( G=NI_MFGATE);
      927     6269    1       S$CU$->B$U.MF = S$CU$->B$U.MF + 1;
      928     6270    1       S$CU$->B$U.CMF = S$CU$->B$U.CMF + 1;
      929     6271            %UNLOCK( G=NI_MFGATE);
      930     6274    1       IF F$DCB.FCN.CNT(0) = 1 THEN
      931     6275    1           F$DCB.FEPIO2 = FEPIO;
      932     6276    1       ELSE
      933     6277    1           IF F$DCB.FCN.CNT(0) < 1 THEN
      934     6278    1               F$DCB.FEPIO = FEPIO;
      935     6279    1           ELSE
      936     6280    1               F$DCB.FEPIO3 = FEPIO;
      937     6281    1       F$DCB.FCN.CNT(0) = F$DCB.FCN.CNT(0) + 1;
      938     6282    2       IF MINOR$ ~= ADDR( NIL) THEN DO;
      939     6283                /* let Transport know we can handle another input record now */
      940     6284    2           K$RWPARM.FUNCTION = %K_TCREDIT;
      941     6285    2           K$RWPARM.SSN_CRDT = 1;
      942     6286    2           K$RWPARM.TCTX# = MINOR$->APPL.TCTX;
      943     6287    2   TRYSEND:
      944     6288    2           CALL KIT$SEND( K$RWPARM)
      945     6289    3           WHENALTRETURN DO;
      946     6290                    /* Transport couldn't deal with the credit msg */
PL6.E3A0      #004=KIS$OSI_READ File=KIS$OSI.:E05TSI                             WED 07/30/97 00:41 Page:114
      947     6291    4               IF K$RWPARM.ERR = %K$QFULL THEN DO;
      948     6292    4                   CALL KIA$OQFL( NK$LDCT) ALTRET( SNAP);
      949     6293    4                   GOTO TRYSEND;
      950     6294    4                   END;
      951     6295    3               IF K$RWPARM.ERR = %K$USER_ERR THEN
      952     6296    3                   B$JIT.ERR = K$RWPARM.MSG_ERRCODE;
      953     6297    4               ELSE DO;
      954     6298    4                   B$JIT.ERR = ERRTRANSPORT;
      955     6299                        /*    ERROR:  KIS-E$TRANSPORT-A
      956     6300                            MESSAGE:  Internal error.  Transport ALTRETURN.
      957     6301                        */
      958     6302    4                   CALL SC_PRTCL_SNAP;
      959     6303    4                   END;
      960     6304    3               END;
      961     6305    2           END;
      962     6306            /* all done for now... */
      963     6307            %UNLOCK( G=NK$LDCT.LOCK);
      964     6310    1       IF B$JIT.ERR = '0'B THEN
      965     6311    1           RETURN;
      966     6312    1       ALTRETURN;
      967     6313    1   BAD_BUFFER:
      968     6314            /* no longer trap bad user buffer */
      969     6315    1       CALL HFF$TRAPALT;
      970     6316            %UNLOCK( G=NK$LDCT.LOCK);
      971     6319    1       B$JIT.ERR = ERRBADBUFFER;
      972     6320            /*E*  ERROR:  KIS-E$BADBUFFER-A
      973     6321                MESSAGE:  Read buffer is inaccessible.
      974     6322            */
      975     6323    1       ALTRETURN;
      976     6324        %EJECT;
PL6.E3A0      #004=KIS$OSI_READ File=KIS$OSI.:E05TSI                             WED 07/30/97 00:41 Page:115
      977     6325        /*F*    NAME:   KIS$OSI_TRUNC
      978     6326
      979     6327                PURPOSE:  Handle M$TRUNC of RES=NC DCB.
      980     6328        */
      981     6329        /*D*    NAME:   KIS$OSI_TRUNC
      982     6330                CALL:   CALL KIS$OSI_TRUNC ALTRET( label);
      983     6331                INPUT:
      984     6332                    B$JIT.DCB$->F$DCB the NC DCB itself.
      985     6333                OUTPUT:
      986     6334                    none.
      987     6335                DESCRIPTION:
      988     6336                    KIS$OSI_TRUNC is called from FMF$TRUNC in order to cancel
      989     6337                    the NoWait reads on an NC DCB.  The most common (only?)
      990     6338                    situation in which this needs to be done is when an OSI
      991     6339                    client application does an M$LINK/M$YC.  The NoWait reads
      992     6340                    issued by the Session library need to be COMP'd, and this
      993     6341                    involves interaction with the Transport layer to prevent
      994     6342                    more data from arriving while the application is off doing
      995     6343                    something else.
      996     6344        */
      997     6345    1   KIS$OSI_TRUNC: ENTRY ALTRET;
      998     6346
      999     6347    1       JDCB$ = B$JIT.DCB$;
     1000     6348    1       LDCT$ = NK$LDCT$( F$DCB.LDCTX);
     1001     6349    1       SCID = ASCBIN( F$DCB.DVFC);
     1002     6350    1       MINOR$ = ADDR( NIL);
     1003     6351    1       MAJOR$ = PINCRW( KIS_MAJOR$, SCID);
     1004     6352    1       IF MAJOR$->APPL.Z.LINK ~= 0 THEN
     1005     6353    1           MINOR$ = PINCRW( KIS_MINOR$, MAJOR$->APPL.Z.LINK);
     1006     6354            %LOCK( G=NK$LDCT.LOCK);
     1007     6357    2       IF NK$LDCT.LKFLG.NOWAIT THEN DO;
     1008     6358                /* there are NoWait read(s) outstanding */
     1009     6359    2           IF MINOR$ = ADDR( NIL) OR MINOR$->APPL.TCTX = 0 THEN
     1010     6360    2               GOTO DONETRAN;
     1011     6361    2           K$RWPARM = K_RWPARM_CON;
     1012     6362    2           K$RWPARM.FUNCTION = %K_TCREDIT;
     1013     6363    2           K$RWPARM.SSN_CRDT = 0;
PL6.E3A0      #004=KIS$OSI_READ File=KIS$OSI.:E05TSI                             WED 07/30/97 00:41 Page:116
     1014     6364    2           K$RWPARM.TCTX# = MINOR$->APPL.TCTX;
     1015     6365    2   TRYTRUNC:
     1016     6366    2           CALL KIT$SEND( K$RWPARM)
     1017     6367    3           WHENALTRETURN DO;
     1018     6368    4               IF K$RWPARM.ERR = %K$QFULL THEN DO;
     1019     6369    4                   CALL KIA$OQFL( NK$LDCT) ALTRET( SNAP);
     1020     6370    4                   GOTO TRYTRUNC;
     1021     6371    4                   END;
     1022     6372    3               GOTO SNAP;
     1023     6373    3               END;
     1024     6374    2           NK$LDCT.LKFLG.WTMRK = '1'B;
     1025     6375    2   TRUNCLOOP:
     1026     6376    2           CALL SSR$REG( %SS_CW, NK$LDCT);  /* which unlocks ldct.lock */
     1027     6377                %LOCK( G=NK$LDCT.LOCK);
     1028     6380    2           IF NK$LDCT.LKFLG.WTMRK THEN
     1029     6381    2               GOTO TRUNCLOOP;
     1030     6382    2   DONETRAN:
     1031     6383    3           DO WHILE( NK$LDCT.LKFLG.NOWAIT);
     1032     6384                    /* COMP any remaining NoWait reads */
     1033     6385    3               K$RWPARM = K_RWPARM_CON;
     1034     6386    3               K$RWPARM.MSG_ERRCODE = ERREOD;
     1035     6387    3               K$RWPARM.TYC = %TYC_EOD;
     1036     6388    3               CALL KIA$COMP( NK$LDCT, K$RWPARM);
     1037     6389    3               END;
     1038     6390    2           END;
     1039     6391            %UNLOCK( G=NK$LDCT.LOCK);
     1040     6394    1       RETURN;
     1041     6395
     1042     6396    1       END KIS$OSI_READ;
     1043     6397        %EOD;

PL6.E3A0      #004=KIS$OSI_READ File=KIS$OSI.:E05TSI                             WED 07/30/97 00:41 Page:117
--  Include file information  --

   F$DCB.:E05TOU  is referenced.
   UM_CP6.:E05TOU  is referenced.
   SS_SCHED_C.:E05TOU  is referenced.
   NK$LDCT.:E05TOU  is referenced.
   NK_SUBS.:E05TOU  is referenced.
   NK_LDCT_R.:E05TOU  cannot be made into a system file and is referenced.
   K_SUBS_C.:E05TOU  is referenced.
   K_SESSION_M.:E05TOU  is referenced.
   K_INTERFACE_M.:E05TOU  is referenced.
   K$RWPARM.:E05TOU  is referenced.
   K_DATA_R.:E05TOU  cannot be made into a system file and is referenced.
   K_ADDRESS_M.:E05TOU  is referenced.
   KI$MHDR.:E05TOU  is referenced.
   KI_ERRORS_C.:E05TOU  is referenced.
   HF_LOCK_C.:E05TOU  cannot be made into a system file and is referenced.
   F_ERRORS_C.:E05TOU  is referenced.
   B$JIT_C.:E05TOU  is referenced.
   F$JIT_C.:E05TOU  cannot be made into a system file and is referenced.
   F$CP6V_C.:E05TOU  is referenced.
   CP_6_SUBS.:E05TOU  is referenced.
   B_STRINGS_C.:E05TOU  is referenced.
   B$USER.:E05TOU  cannot be made into a system file and is referenced.
      No diagnostics issued in procedure KIS$OSI_READ.

   Procedure KIS$OSI_READ requires 565 words for executable code.
   Procedure KIS$OSI_READ requires 66 words of local(AUTO) storage.

PL6.E3A0      #004=KIS$OSI_READ File=KIS$OSI.:E05TSI                             WED 07/30/97 00:41 Page:118

 Object Unit name= KIS$OSI_READ                               File name= KIS$OSI.:E05TOU
 UTS= JUL 30 '97 00:41:58.76 WED                              Compiler= PL-6/E31         Sev=      00
 SharedLib= :SHARED_SYSTEM                                    Alt SharedLib=


    ****  Control sections  ****

 Sect   Type Bound  Init  Size OctSiz  Section name(segment info)
    0  RoData even  UTS     12     14  KIS$OSI_READ
    1   Proc  even  none   565   1065  KIS$OSI_READ
    2  RoData even  none     7      7  KIS$OSI_READ

    ****  Entry defs  ****

                              Check   Calling
                             calling  sequence
  Sect OctLoc Primary Altret sequence   type   Parms  Name
     1      0   yes    yes     yes      Std        0  KIS$OSI_READ
     1    674          yes     yes      Std        0  KIS$OSI_TRUNC
PL6.E3A0      #004=KIS$OSI_READ File=KIS$OSI.:E05TSI                             WED 07/30/97 00:41 Page:119

  ****  Entry refs  ****

         Check        Calling
        calling       sequence
Altret sequence SRef   type   Args  Name
 yes     yes           Std       3 SSR$REG
         yes           Std       1 HFC$UNLOCK
 yes     yes           Std       5 MMS$SETUP_BUF
         yes           Std       1 FMO$GETDOMAIN
 yes     yes           Std       2 HFF$DSIZ
 yes     yes           Std       1 HFF$WRITE1
 yes     yes           Std       0 HFF$TRAPALT
         yes           Std       1 HFC$LOCK
         yes           Std       2 KIA$COMP
         yes           Std       1 KIQ$MAPFEP
 yes     yes           Std       1 KIT$SEND
 yes     yes           Std       1 KIA$OQFL
                       Std       0 B_CONSPOOL_D
                       nStd      0 X66_AUTO_0
                       nStd      0 X66_AALT
                       nStd      0 X66_ARET

  ****  Data refs  ****

  Flags:  r = read only, s = secondary
Flgs Name                             Flgs Name                             Flgs Name
     SC_PRTCL_SNAP                         S$CU$                            r    K_RWPARM_CON
     N$DCT$$                               B$CGCTXT$                             B$JIT$
     B$PS0$                                B$PS2$                                KIS_MAJOR$
     KIS_MINOR$                            KIS_SSN_MAXMAJOR                      NI_MFGATE
     B_VECTNIL
PL6.E3A0      #004=KIS$OSI_READ File=KIS$OSI.:E05TSI                             WED 07/30/97 00:41 Page:120

  ****  Segment refs  ****

  Flags:  r = read only, s = secondary
Flgs Name                             Flgs Name                             Flgs Name
     ASLENTSID                             ISSID
PL6.E3A0      #004=KIS$OSI_READ File=KIS$OSI.:E05TSI                             WED 07/30/97 00:41 Page:121


      651        1        /*T***********************************************************/
      652        2        /*T*                                                         */
      653        3        /*T* Copyright (c) Bull HN Information Systems Inc., 1997    */
      654        4        /*T*                                                         */
      655        5        /*T***********************************************************/
      656        6        /*F*    NAME:   KIS$OSI_READ
      657        7
      658        8                PURPOSE:  Handle M$READ of RES=NC DCB.
      659        9        */
      660       10        /*D*    NAME:   KIS$OSI_READ
      661       11                CALL:   CALL KIS$OSI_READ ALTRET( label);
      662       12                INPUT:
      663       13                    B$JIT.DCB$->F$DCB the NC DCB itself,
      664       14                    B$PS0$ points at the V area of the READ FPT,
      665       15                    B$PS2$ points at the BUF area of the READ FPT.
      666       16                OUTPUT:
      667       17                    On successful call,
      668       18                      TBD.
      669       19                    On unsuccessful call,
      670       20                      TBD.
      671       21                DESCRIPTION:
      672       22                    KIS$OSI_READ is called when an OSI client application wishes
      673       23                    to wait for an incoming message from a server on an already-
      674       24                    open connection, or to receive notification when an incoming
      675       25                    message has arrived.  It is entered from FSE$FORMAT when an
      676       26                    M$READ to a DCB with RES=NC is issued.
      677       27
      678       28                    The code splits on whether or not the application issued a
      679       29                    'wait' read.  If WAIT=YES, the application is REG'd waiting
      680       30                    for an incoming message.  On normal RETURN from SSR$REG the
      681       31                    message that arrived is moved to the user's buffer, thus
      682       32                    satisfying the read.
      683       33
      684       34                    If WAIT=NO, we set up to have the read satisfied later.
      685       35
      686       36                    NOTE: ALL WRITES AND READS THRU RES=NC MUST BE TRANSPARENT.
PL6.E3A0      #004=KIS$OSI_READ File=KIS$OSI.:E05TSI                             WED 07/30/97 00:41 Page:122
      687       37                    This is required for (1) optimized handling by FSE, and (2) to
      688       38                    avoid stomping on the DVFC field in the DCB.
      689       39        */
      690       40        KIS$OSI_READ: PROC ALTRET;

     40  1 000000   000000 700200 xent  KIS$OSI_READ TSX0  ! X66_AUTO_0
         1 000001   000102 000000                    ZERO    66,0

      691       41        %INCLUDE B$USER;
      692      257            %B$USERREFS;
      693      261        %INCLUDE B_STRINGS_C;
      694      390        %INCLUDE CP_6_SUBS;
      695      930        %INCLUDE F$CP6V_C;
      696     1156            %FPT$READ_V( BASED="BASED( B$PS0$)");
      697     1163        %INCLUDE F$JIT_C;
      698     1593        %INCLUDE F_ERRORS_C;
      699     1833        %INCLUDE HF_LOCK_C;
      700     1847        %INCLUDE KI_ERRORS_C;
      701     1932        %INCLUDE KI$MHDR;
      702     2073            %KI$QMHDR;
      703     2122        %INCLUDE K_ADDRESS_M;
      704     2625        %INCLUDE K_DATA_R;
      705     3336            %K$RWPARM( NAME=K$RWPARM, STCLASS=AUTO);
      706     3652        %INCLUDE K_INTERFACE_M;
      707     4061        %INCLUDE K_SESSION_M;
      708     4151            %KIS$APPL( NAME=APPL, STCLASS=BASED);
      709     4220        %INCLUDE K_SUBS_C;
      710     4253        %INCLUDE NK_LDCT_R;
      711     4262        %INCLUDE NK_SUBS;
      712     4287        %INCLUDE NK$LDCT;
      713     4389            %NK$LDCT( STCLASS="BASED( LDCT$)");
      714     4435        %INCLUDE SS_SCHED_C;
      715     4668        %INCLUDE UM_CP6;
      716     5520        %MACRO ERRCODE( NAME=ERRDUMMY, CODE=0);
      717     5521            %VLP_ERRCODE( FPTN=NAME, STCLASS=CONSTANT, FCG='KI', MID='S',
      718     5522                          MON='1'B, ERR#=CODE, SEV=7);
      719     5523        %MEND;
PL6.E3A0      #004=KIS$OSI_READ File=KIS$OSI.:E05TSI                             WED 07/30/97 00:41 Page:123
      720     5524            %ERRCODE( NAME=ERRBADBUFFER, CODE=%E$BADBUFFER);
      721     5572            %ERRCODE( NAME=ERRBADSCID, CODE=%E$BADSCID);
      722     5620            %ERRCODE( NAME=ERRCANTREG, CODE=%E$CANTREG);
      723     5668            %ERRCODE( NAME=ERREOD, CODE=%E$EOD);
      724     5716            %ERRCODE( NAME=ERROSILDSC, CODE=%E$OSILDSC);
      725     5764            %ERRCODE( NAME=ERRNOREAD, CODE=%E$NOREAD);
      726     5812            %ERRCODE( NAME=ERRTRANCLOSED, CODE=%E$TRANCLOSED);
      727     5860            %ERRCODE( NAME=ERRTRANSPORT, CODE=%E$TRANSPORT);
      728     5908            %ERRCODE( NAME=ERRXTRARD, CODE=%E$XTRARD);
      729     5956        %MACRO F$DCBI( BASED=BASED);
      730     5957        %INCLUDE F$DCB;
      731     6006        %MEND;
      732     6007            %F$DCBI( BASED="BASED( JDCB$)");
      733     6057
      734     6058    1       DCL FMO$GETDOMAIN ENTRY(1);
      735     6059    1       DCL HFF$DSIZ ENTRY(2) ALTRET;
      736     6060    1       DCL HFF$TRAPALT ENTRY ALTRET;
      737     6061    1       DCL HFF$WRITE1 ENTRY(1) ALTRET;
      738     6062    1       DCL KIA$COMP ENTRY(2);
      739     6063    1       DCL KIA$OQFL ENTRY(1) ALTRET;
      740     6064    1       DCL KIQ$MAPFEP ENTRY(1);
      741     6065    1       DCL KIT$SEND ENTRY(1) ALTRET;
      742     6066    1       DCL MMS$SETUP_BUF ENTRY(5) ALTRET;
      743     6067    1       DCL SSR$REG ENTRY(3) ALTRET;
      744     6068    1       DCL SC_PRTCL_SNAP ENTRY CONV(2,0);
      745     6069
      746     6070    1       DCL B$CGCTXT$ PTR SYMREF;
      747     6071    1       DCL B$JIT$ PTR SYMREF;
      748     6072    1       DCL B$PS0$ PTR SYMREF;  /* points at V area within FPT */
      749     6073    1       DCL B$PS2$ PTR SYMREF;  /* points at BUF within FPT */
      750     6074    1       DCL KIS_MAJOR$ PTR SYMREF;
      751     6075    1       DCL KIS_MINOR$ PTR SYMREF;
      752     6076    1       DCL KIS_SSN_MAXMAJOR UBIN SYMREF;
      753     6077    1       DCL NI_MFGATE BIT(72) SYMREF;
      754     6078
      755     6079    1       DCL BUFFER CHAR( LEN) BASED( B$PS2$) CALIGNED;
      756     6080    1       DCL DMN UBIN;
PL6.E3A0      #004=KIS$OSI_READ File=KIS$OSI.:E05TSI                             WED 07/30/97 00:41 Page:124
      757     6081    1       DCL 1 FEPIO,
      758     6082    1            2 EVENT SBIN,
      759     6083    1            2 KEYX SBIN(18) UNAL,
      760     6084    1            2 BUFX SBIN(18) UNAL,
      761     6085    1            2 BPP(0:1) BIT(18) UNAL,
      762     6086    1            2 KPP(0:1) BIT(18) UNAL;
      763     6087    1       DCL 1 FEPSIZ,
      764     6088    1            2 BUF UBIN(18) UNAL,
      765     6089    1            2 KEY UBIN(18) UNAL;
      766     6090    1       DCL JDCB$ PTR;
      767     6091    1       DCL LDCT$ PTR;
      768     6092    1       DCL LEN UBIN;
      769     6093    1       DCL MAJOR$ PTR;
      770     6094    1       DCL MINOR$ PTR;
      771     6095    1       DCL MESSAGE CHAR( K$RWPARM.MSGSZ) BASED( K$RWPARM.MSG$) CALIGNED;
      772     6096    1       DCL 1 NOWAIT,
      773     6097    1            2 KEYTYP UBIN(6) UNAL,
      774     6098    1            2 DMN UBIN(3) UNAL,
      775     6099    1            2 STREAM UBIN(9) UNAL,
      776     6100    1            2 DCB# UBIN(9) UNAL,
      777     6101    1            2 * UBIN(9) UNAL;
      778     6102    1       DCL 1 PTW(0:1),
      779     6103    1            2 PP BIT(18) ALIGNED;
      780     6104    1       DCL R$ PTR;
      781     6105    1       DCL SCID SBIN;
      782     6106
      783     6107    1       JDCB$ = B$JIT.DCB$;

   6107  1 000002   000000 470400 xsym               LDP0    B$JIT$
         1 000003   000232 236100                    LDQ     154,,PR0
         1 000004   200062 756100                    STQ     JDCB$,,AUTO

      784     6108    1       LDCT$ = NK$LDCT$( F$DCB.LDCTX);

   6108  1 000005   200062 471500                    LDP1    JDCB$,,AUTO
         1 000006   100051 220100                    LDX0    41,,PR1
         1 000007   000000 473400 xsym               LDP3    N$DCT$$
PL6.E3A0      #004=KIS$OSI_READ File=KIS$OSI.:E05TSI                             WED 07/30/97 00:41 Page:125
         1 000010   300000 236110                    LDQ     0,X0,PR3
         1 000011   200063 756100                    STQ     LDCT$,,AUTO

      785     6109            /* The remainder of this module attempts to duplicate the MFC_READ case
      786     6110               of KIA$UCIOND and friends.                                          */
      787     6111    2       IF NK$LDCT.DFLG.OLDSC THEN DO;

   6111  1 000012   200063 474500                    LDP4    LDCT$,,AUTO
         1 000013   400006 236100                    LDQ     6,,PR4
         1 000014   010000 316007                    CANQ    4096,DL
         1 000015   000023 600000 1                  TZE     s:6122

      788     6112                /*N* I don't see how this can happen */
      789     6113    2           B$JIT.ERR = ERROSILDSC;

   6113  1 000016   000004 236000 0                  LDQ     ERROSILDSC
         1 000017   000012 756100                    STQ     10,,PR0

      790     6114                /*E*  ERROR:  KIS-E$OSILDSC-A
      791     6115                    MESSAGE:  Internal error.  Your network path has vanished.
      792     6116                */
      793     6117    2   SNAP:
      794     6118    2           CALL SC_PRTCL_SNAP;

   6118  1 000020   000000 713400 xsym  SNAP         CLIMB   SC_PRTCL_SNAP
         1 000021   000000 600000 xsid               climb   nvectors=         0

      795     6119    2           ALTRETURN;

   6119  1 000022   000000 702200 xent               TSX2  ! X66_AALT

      796     6120    2           END;
      797     6121            %LOCK( G=NK$LDCT.LOCK);

   6122  1 000023   200063 236100                    LDQ     LDCT$,,AUTO
         1 000024   000020 036003                    ADLQ    16,DU
         1 000025   200074 756100                    STQ     SCID+1,,AUTO
PL6.E3A0      #004=KIS$OSI_READ File=KIS$OSI.:E05TSI                             WED 07/30/97 00:41 Page:126
         1 000026   200074 630500                    EPPR0   SCID+1,,AUTO
         1 000027   000017 631400 xsym               EPPR1   B_VECTNIL+15
         1 000030   000000 701000 xent               TSX1    HFC$LOCK
         1 000031   000000 011000                    NOP     0

      798     6124            /* if WAIT=YES and there are other no-wait reads pending, cancel them */
      799     6125    2       IF F$DCB.WAIT ~= 0 AND F$DCB.FCN.CNT(0) ~= 0 THEN DO;

   6125  1 000032   200062 470500                    LDP0    JDCB$,,AUTO
         1 000033   000064 236100                    LDQ     52,,PR0
         1 000034   000020 316007                    CANQ    16,DL
         1 000035   000070 600000 1                  TZE     s:6134
         1 000036   000074 236100                    LDQ     60,,PR0
         1 000037   377000 316003                    CANQ    130560,DU
         1 000040   000070 600000 1                  TZE     s:6134

      800     6126    2   CANCEL:
      801     6127    3           DO WHILE( NK$LDCT.LKFLG.NOWAIT);

   6127  1 000041   200063 470500       CANCEL       LDP0    LDCT$,,AUTO
         1 000042   000011 236100                    LDQ     9,,PR0
         1 000043   000001 316003                    CANQ    1,DU
         1 000044   000070 600000 1                  TZE     s:6134

      802     6128    3               K$RWPARM = K_RWPARM_CON;

   6128  1 000045   000100 100400                    MLR     fill='000'O
         1 000046   000000 000234 xsym               ADSC9   K_RWPARM_CON             cn=0,n=156
         1 000047   200004 000234                    ADSC9   K$RWPARM,,AUTO           cn=0,n=156

      803     6129    3               K$RWPARM.MSG_ERRCODE = ERRXTRARD;

   6129  1 000050   000010 236000 0                  LDQ     ERRXTRARD
         1 000051   200043 756100                    STQ     K$RWPARM+31,,AUTO

      804     6130    3               K$RWPARM.TYC = %TYC_XTRARD;

PL6.E3A0      #004=KIS$OSI_READ File=KIS$OSI.:E05TSI                             WED 07/30/97 00:41 Page:127
   6130  1 000052   000011 236000 0                  LDQ     ERRXTRARD+1
         1 000053   200012 756100                    STQ     K$RWPARM+6,,AUTO

      805     6131    3               CALL KIA$COMP( NK$LDCT, K$RWPARM);

   6131  1 000054   200004 630500                    EPPR0   K$RWPARM,,AUTO
         1 000055   200075 450500                    STP0    SCID+2,,AUTO
         1 000056   200063 236100                    LDQ     LDCT$,,AUTO
         1 000057   200074 756100                    STQ     SCID+1,,AUTO
         1 000060   200074 630500                    EPPR0   SCID+1,,AUTO
         1 000061   000020 631400 xsym               EPPR1   B_VECTNIL+16
         1 000062   000000 701000 xent               TSX1    KIA$COMP
         1 000063   000000 011000                    NOP     0

      806     6132    3               END;

   6132  1 000064   200063 470500                    LDP0    LDCT$,,AUTO
         1 000065   000011 236100                    LDQ     9,,PR0
         1 000066   000001 316003                    CANQ    1,DU
         1 000067   000045 601000 1                  TNZ     s:6128

      807     6133    2           END;

      808     6134    1       K$RWPARM = K_RWPARM_CON;

   6134  1 000070   000100 100400                    MLR     fill='000'O
         1 000071   000000 000234 xsym               ADSC9   K_RWPARM_CON             cn=0,n=156
         1 000072   200004 000234                    ADSC9   K$RWPARM,,AUTO           cn=0,n=156

      809     6135    2       IF F$DCB.WAIT = 1 THEN DO;

   6135  1 000073   200062 470500                    LDP0    JDCB$,,AUTO
         1 000074   000064 236100                    LDQ     52,,PR0
         1 000075   000020 376007                    ANQ     16,DL
         1 000076   000020 116007                    CMPQ    16,DL
         1 000077   000304 601000 1                  TNZ     s:6206

PL6.E3A0      #004=KIS$OSI_READ File=KIS$OSI.:E05TSI                             WED 07/30/97 00:41 Page:128
      810     6136                /* this is a 'wait' read request */
      811     6137                /* Note: the following call to SSR unlocks the gate */
      812     6138    2           CALL SSR$REG( %SS_CW, NK$LDCT)

   6138  1 000100   200063 236100                    LDQ     LDCT$,,AUTO
         1 000101   000001 235000 2                  LDA     1
         1 000102   200074 757100                    STAQ    SCID+1,,AUTO
         1 000103   200074 630500                    EPPR0   SCID+1,,AUTO
         1 000104   000020 631400 xsym               EPPR1   B_VECTNIL+16
         1 000105   000000 701000 xent               TSX1    SSR$REG
         1 000106   000110 702000 1                  TSX2    s:6142
         1 000107   000143 710000 1                  TRA     s:6160

      813     6139    3           WHENALTRETURN DO;

      814     6140                    /* problem REG'ing the user */
      815     6141                    %LOCK( G=NK$LDCT.LOCK);

   6142  1 000110   200063 236100                    LDQ     LDCT$,,AUTO
         1 000111   000020 036003                    ADLQ    16,DU
         1 000112   200074 756100                    STQ     SCID+1,,AUTO
         1 000113   200074 630500                    EPPR0   SCID+1,,AUTO
         1 000114   000017 631400 xsym               EPPR1   B_VECTNIL+15
         1 000115   000000 701000 xent               TSX1    HFC$LOCK
         1 000116   000000 011000                    NOP     0

      816     6144    3               IF NK$LDCT.IP$ ~= ADDR( NIL) THEN

   6144  1 000117   200063 470500                    LDP0    LDCT$,,AUTO
         1 000120   000013 236100                    LDQ     11,,PR0
         1 000121   000001 116000 xsym               CMPQ    B_VECTNIL+1
         1 000122   000152 601000 1                  TNZ     READ_IT

      817     6145    3                   GOTO READ_IT;
      818     6146    3   BRKCK:
      819     6147                    %UNLOCK( G=NK$LDCT.LOCK);

PL6.E3A0      #004=KIS$OSI_READ File=KIS$OSI.:E05TSI                             WED 07/30/97 00:41 Page:129
   6148  1 000123   200063 236100       BRKCK        LDQ     LDCT$,,AUTO
         1 000124   000020 036003                    ADLQ    16,DU
         1 000125   200074 756100                    STQ     SCID+1,,AUTO
         1 000126   200074 630500                    EPPR0   SCID+1,,AUTO
         1 000127   000017 631400 xsym               EPPR1   B_VECTNIL+15
         1 000130   000000 701000 xent               TSX1    HFC$UNLOCK
         1 000131   000000 011000                    NOP     0

      820     6150    3               CALL SC_PRTCL_SNAP;

   6150  1 000132   000000 713400 xsym               CLIMB   SC_PRTCL_SNAP
         1 000133   000000 600000 xsid               climb   nvectors=         0

      821     6151    3               IF K$RWPARM.ERR ~= 0 THEN

   6151  1 000134   200017 235100                    LDA     K$RWPARM+11,,AUTO
         1 000135   000137 600000 1                  TZE     s:6153

      822     6152    3                   ALTRETURN;

   6152  1 000136   000000 702200 xent               TSX2  ! X66_AALT

      823     6153    3               B$JIT.ERR = ERRCANTREG;

   6153  1 000137   000002 236000 0                  LDQ     ERRCANTREG
         1 000140   000000 470400 xsym               LDP0    B$JIT$
         1 000141   000012 756100                    STQ     10,,PR0

      824     6154                    /*E*  ERROR:  KIS-E$CANTREG-A
      825     6155                        MESSAGE:  Internal error.  Funny wait-read REG ALTRETURN.
      826     6156                    */
      827     6157    3               ALTRETURN;

   6157  1 000142   000000 702200 xent               TSX2  ! X66_AALT

      828     6158    3               END;
      829     6159                %LOCK( G=NK$LDCT.LOCK);
PL6.E3A0      #004=KIS$OSI_READ File=KIS$OSI.:E05TSI                             WED 07/30/97 00:41 Page:130

   6160  1 000143   200063 236100                    LDQ     LDCT$,,AUTO
         1 000144   000020 036003                    ADLQ    16,DU
         1 000145   200074 756100                    STQ     SCID+1,,AUTO
         1 000146   200074 630500                    EPPR0   SCID+1,,AUTO
         1 000147   000017 631400 xsym               EPPR1   B_VECTNIL+15
         1 000150   000000 701000 xent               TSX1    HFC$LOCK
         1 000151   000000 011000                    NOP     0

      830     6162    2   READ_IT:
      831     6163    2           K$RWPARM.IP$ = NK$LDCT.IP$;

   6163  1 000152   200063 470500       READ_IT      LDP0    LDCT$,,AUTO
         1 000153   000013 236100                    LDQ     11,,PR0
         1 000154   200016 756100                    STQ     K$RWPARM+10,,AUTO

      832     6164    2           NK$LDCT.IP$ = ADDR( NIL);

   6164  1 000155   000001 236000 xsym               LDQ     B_VECTNIL+1
         1 000156   000013 756100                    STQ     11,,PR0

      833     6165    3           IF K$RWPARM.IP$ = ADDR( NIL) THEN DO;

   6165  1 000157   200016 236100                    LDQ     K$RWPARM+10,,AUTO
         1 000160   000001 116000 xsym               CMPQ    B_VECTNIL+1
         1 000161   000175 601000 1                  TNZ     s:6176

      834     6166                    %UNLOCK( G=NK$LDCT.LOCK);

   6167  1 000162   200063 236100                    LDQ     LDCT$,,AUTO
         1 000163   000020 036003                    ADLQ    16,DU
         1 000164   200074 756100                    STQ     SCID+1,,AUTO
         1 000165   200074 630500                    EPPR0   SCID+1,,AUTO
         1 000166   000017 631400 xsym               EPPR1   B_VECTNIL+15
         1 000167   000000 701000 xent               TSX1    HFC$UNLOCK
         1 000170   000000 011000                    NOP     0

PL6.E3A0      #004=KIS$OSI_READ File=KIS$OSI.:E05TSI                             WED 07/30/97 00:41 Page:131
      835     6169    3               B$JIT.ERR = ERRNOREAD;

   6169  1 000171   000005 236000 0                  LDQ     ERRNOREAD
         1 000172   000000 470400 xsym               LDP0    B$JIT$
         1 000173   000012 756100                    STQ     10,,PR0

      836     6170                    /*E*  ERROR:  KIS-E$NOREAD-A
      837     6171                        MESSAGE:  Internal error.  Message lost.
      838     6172                    */
      839     6173    3               GOTO SNAP;

   6173  1 000174   000020 710000 1                  TRA     SNAP

      840     6174    3               END;
      841     6175                /*N* document this */
      842     6176    2           CALL KIQ$MAPFEP( NK$LDCT.IPFEI#);

   6176  1 000175   200063 236100                    LDQ     LDCT$,,AUTO
         1 000176   000002 036000 2                  ADLQ    2
         1 000177   200074 756100                    STQ     SCID+1,,AUTO
         1 000200   200074 630500                    EPPR0   SCID+1,,AUTO
         1 000201   000017 631400 xsym               EPPR1   B_VECTNIL+15
         1 000202   000000 701000 xent               TSX1    KIQ$MAPFEP
         1 000203   000000 011000                    NOP     0

      843     6177    2           K$RWPARM.MSG$ = PINCRC( K$RWPARM.IP$, K$RWPARM.IP$->KI$QMHDR.OFFSET);

   6177  1 000204   200016 470500                    LDP0    K$RWPARM+10,,AUTO
         1 000205   000001 236100                    LDQ     1,,PR0
         1 000206   000022 772000                    QRL     18
         1 000207   000020 736000                    QLS     16
         1 000210   200016 036100                    ADLQ    K$RWPARM+10,,AUTO
         1 000211   200004 756100                    STQ     K$RWPARM,,AUTO

      844     6178    2           K$RWPARM.MSGSZ = K$RWPARM.IP$->KI$QMHDR.SIZE;

   6178  1 000212   000001 236100                    LDQ     1,,PR0
PL6.E3A0      #004=KIS$OSI_READ File=KIS$OSI.:E05TSI                             WED 07/30/97 00:41 Page:132
         1 000213   777777 376007                    ANQ     -1,DL
         1 000214   200005 756100                    STQ     K$RWPARM+1,,AUTO

      845     6179    2           K$RWPARM.TYC = '0'B;

   6179  1 000215   200012 450100                    STZ     K$RWPARM+6,,AUTO

      846     6180                /* set up to move data into user buffer */
      847     6181    2           CALL HFF$DSIZ( B$PS2$, LEN) ALTRET( BAD_BUFFER);

   6181  1 000216   200064 631500                    EPPR1   LEN,,AUTO
         1 000217   200075 451500                    STP1    SCID+2,,AUTO
         1 000220   000003 236000 2                  LDQ     3
         1 000221   200074 756100                    STQ     SCID+1,,AUTO
         1 000222   200074 630500                    EPPR0   SCID+1,,AUTO
         1 000223   000020 631400 xsym               EPPR1   B_VECTNIL+16
         1 000224   000000 701000 xent               TSX1    HFF$DSIZ
         1 000225   000656 702000 1                  TSX2    BAD_BUFFER

      848     6182    3           IF K$RWPARM.MSGSZ > LEN THEN DO;

   6182  1 000226   200064 236100                    LDQ     LEN,,AUTO
         1 000227   000237 604000 1                  TMI     s:6187
         1 000230   200005 116100                    CMPQ    K$RWPARM+1,,AUTO
         1 000231   000237 605000 1                  TPL     s:6187

      849     6183                    /* received message larger than user buffer; note truncated */
      850     6184    3               K$RWPARM.TYC = %TYC_LD | %TYC_EGV;

   6184  1 000232   000012 236000 0                  LDQ     ERRXTRARD+2
         1 000233   000030 276000 xsym               ORQ     B_VECTNIL+24
         1 000234   200012 756100                    STQ     K$RWPARM+6,,AUTO

      851     6185    3               K$RWPARM.MSGSZ = LEN;

   6185  1 000235   200064 235100                    LDA     LEN,,AUTO
         1 000236   200005 755100                    STA     K$RWPARM+1,,AUTO
PL6.E3A0      #004=KIS$OSI_READ File=KIS$OSI.:E05TSI                             WED 07/30/97 00:41 Page:133

      852     6186    3               END;

      853     6187    3           IF K$RWPARM.MSG$ ~= ADDR( NIL) THEN DO;

   6187  1 000237   200004 236100                    LDQ     K$RWPARM,,AUTO
         1 000240   000001 116000 xsym               CMPQ    B_VECTNIL+1
         1 000241   000257 600000 1                  TZE     s:6195

      854     6188                    /* set up to trap bad user buffer */
      855     6189    3               CALL HFF$TRAPALT ALTRET( BAD_BUFFER);

   6189  1 000242   000002 631400 xsym               EPPR1   B_VECTNIL+2
         1 000243   000000 701000 xent               TSX1    HFF$TRAPALT
         1 000244   000656 702000 1                  TSX2    BAD_BUFFER

      856     6190                    /* try to move the message */
      857     6191    3               BUFFER = MESSAGE;

   6191  1 000245   200004 470500                    LDP0    K$RWPARM,,AUTO
         1 000246   200005 720100                    LXL0    K$RWPARM+1,,AUTO
         1 000247   000000 471400 xsym               LDP1    B$PS2$
         1 000250   200064 721100                    LXL1    LEN,,AUTO
         1 000251   040140 100540                    MLR     fill='040'O
         1 000252   000000 000010                    ADSC9   0,,PR0                   cn=0,n=*X0
         1 000253   100000 000011                    ADSC9   0,,PR1                   cn=0,n=*X1

      858     6192                    /* it worked; save moved length in DCB */
      859     6193    3               F$DCB.ARS = K$RWPARM.MSGSZ;

   6193  1 000254   200062 470500                    LDP0    JDCB$,,AUTO
         1 000255   200005 235100                    LDA     K$RWPARM+1,,AUTO
         1 000256   000000 755100                    STA     0,,PR0

      860     6194    3               END;

      861     6195    2           B$JIT.ERR = K$RWPARM.MSG_ERRCODE;
PL6.E3A0      #004=KIS$OSI_READ File=KIS$OSI.:E05TSI                             WED 07/30/97 00:41 Page:134

   6195  1 000257   200043 236100                    LDQ     K$RWPARM+31,,AUTO
         1 000260   000000 470400 xsym               LDP0    B$JIT$
         1 000261   000012 756100                    STQ     10,,PR0

      862     6196    2           K$RWPARM.LDCT$ = LDCT$;

   6196  1 000262   200063 236100                    LDQ     LDCT$,,AUTO
         1 000263   200022 756100                    STQ     K$RWPARM+14,,AUTO

      863     6197    2           K$RWPARM.FUNCTION = %K_READDONE;

   6197  1 000264   000011 235007                    LDA     9,DL
         1 000265   200024 755100                    STA     K$RWPARM+16,,AUTO

      864     6198    2           CALL KIT$SEND( K$RWPARM) ALTRET( BRKCK);

   6198  1 000266   200004 631500                    EPPR1   K$RWPARM,,AUTO
         1 000267   200074 451500                    STP1    SCID+1,,AUTO
         1 000270   200074 630500                    EPPR0   SCID+1,,AUTO
         1 000271   000017 631400 xsym               EPPR1   B_VECTNIL+15
         1 000272   000000 701000 xent               TSX1    KIT$SEND
         1 000273   000123 702000 1                  TSX2    BRKCK

      865     6199                %UNLOCK( G=NK$LDCT.LOCK);

   6200  1 000274   200063 236100                    LDQ     LDCT$,,AUTO
         1 000275   000020 036003                    ADLQ    16,DU
         1 000276   200074 756100                    STQ     SCID+1,,AUTO
         1 000277   200074 630500                    EPPR0   SCID+1,,AUTO
         1 000300   000017 631400 xsym               EPPR1   B_VECTNIL+15
         1 000301   000000 701000 xent               TSX1    HFC$UNLOCK
         1 000302   000000 011000                    NOP     0

      866     6202    2           RETURN;

   6202  1 000303   000000 702200 xent               TSX2  ! X66_ARET
PL6.E3A0      #004=KIS$OSI_READ File=KIS$OSI.:E05TSI                             WED 07/30/97 00:41 Page:135

      867     6203    2           END;
      868     6204            /* otherwise, this is a no-wait read request */
      869     6205            %UNLOCK( G=NK$LDCT.LOCK);

   6206  1 000304   200063 236100                    LDQ     LDCT$,,AUTO
         1 000305   000020 036003                    ADLQ    16,DU
         1 000306   200074 756100                    STQ     SCID+1,,AUTO
         1 000307   200074 630500                    EPPR0   SCID+1,,AUTO
         1 000310   000017 631400 xsym               EPPR1   B_VECTNIL+15
         1 000311   000000 701000 xent               TSX1    HFC$UNLOCK
         1 000312   000000 011000                    NOP     0

      870     6208            /*N* All of the following needs to be better documented */
      871     6209            /* set up the buffer area of the DCB */
      872     6210    1       FEPSIZ.BUF = F$DCB.UBYTES;

   6210  1 000313   200062 470500                    LDP0    JDCB$,,AUTO
         1 000314   000076 720100                    LXL0    62,,PR0
         1 000315   200061 740100                    STX0    FEPSIZ,,AUTO

      873     6211    1       CALL MMS$SETUP_BUF( %USERWSQ, F$DCB.UB$, F$DCB.UBYTES, R$, PTW);

   6211  1 000316   200070 631500                    EPPR1   PTW,,AUTO
         1 000317   200100 451500                    STP1    SCID+5,,AUTO
         1 000320   200072 633500                    EPPR3   R$,,AUTO
         1 000321   200077 453500                    STP3    SCID+4,,AUTO
         1 000322   200062 236100                    LDQ     JDCB$,,AUTO
         1 000323   000076 036003                    ADLQ    62,DU
         1 000324   200076 756100                    STQ     SCID+3,,AUTO
         1 000325   200062 236100                    LDQ     JDCB$,,AUTO
         1 000326   000075 036003                    ADLQ    61,DU
         1 000327   000004 235000 2                  LDA     4
         1 000330   200074 757100                    STAQ    SCID+1,,AUTO
         1 000331   200074 630500                    EPPR0   SCID+1,,AUTO
         1 000332   000023 631400 xsym               EPPR1   B_VECTNIL+19
         1 000333   000000 701000 xent               TSX1    MMS$SETUP_BUF
PL6.E3A0      #004=KIS$OSI_READ File=KIS$OSI.:E05TSI                             WED 07/30/97 00:41 Page:136
         1 000334   000000 011000                    NOP     0

      874     6212    1       FEPIO.BUFX = POFFC( R$, B$CGCTXT$);

   6212  1 000335   000000 236000 xsym               LDQ     B$CGCTXT$
         1 000336   000020 772000                    QRL     16
         1 000337   200074 756100                    STQ     SCID+1,,AUTO
         1 000340   200072 236100                    LDQ     R$,,AUTO
         1 000341   000020 772000                    QRL     16
         1 000342   200074 136100                    SBLQ    SCID+1,,AUTO
         1 000343   000000 620006                    EAX0    0,QL
         1 000344   200056 440100                    SXL0    FEPIO+1,,AUTO

      875     6213    1       FEPIO.BPP(0) = PTW.PP(0);

   6213  1 000345   200070 221100                    LDX1    PTW,,AUTO
         1 000346   200057 741100                    STX1    FEPIO+2,,AUTO

      876     6214    1       FEPIO.BPP(1) = PTW.PP(1);

   6214  1 000347   200071 222100                    LDX2    PTW+1,,AUTO
         1 000350   200057 442100                    SXL2    FEPIO+2,,AUTO

      877     6215            /* save the DCB# of the user specified DCB and the event */
      878     6216    1       FEPIO.EVENT = FPT$READ_V.EVENT;

   6216  1 000351   000000 470400 xsym               LDP0    B$PS0$
         1 000352   000001 235100                    LDA     1,,PR0
         1 000353   200055 755100                    STA     FEPIO,,AUTO

      879     6217    1       NOWAIT.DCB# = B$JIT.DCBNO;

   6217  1 000354   000000 471400 xsym               LDP1    B$JIT$
         1 000355   100022 236100                    LDQ     18,,PR1
         1 000356   000011 736000                    QLS     9
         1 000357   200067 552110                    STBQ    NOWAIT,'10'O,AUTO

PL6.E3A0      #004=KIS$OSI_READ File=KIS$OSI.:E05TSI                             WED 07/30/97 00:41 Page:137
      880     6218    1       NOWAIT.STREAM = K$RWPARM.STR;

   6218  1 000360   200044 236100                    LDQ     K$RWPARM+32,,AUTO
         1 000361   000022 736000                    QLS     18
         1 000362   200067 552120                    STBQ    NOWAIT,'20'O,AUTO

      881     6219    1       CALL FMO$GETDOMAIN( DMN);

   6219  1 000363   200054 633500                    EPPR3   DMN,,AUTO
         1 000364   200074 453500                    STP3    SCID+1,,AUTO
         1 000365   200074 630500                    EPPR0   SCID+1,,AUTO
         1 000366   000017 631400 xsym               EPPR1   B_VECTNIL+15
         1 000367   000000 701000 xent               TSX1    FMO$GETDOMAIN
         1 000370   000000 011000                    NOP     0

      882     6220    1       NOWAIT.DMN = DMN;

   6220  1 000371   200054 236100                    LDQ     DMN,,AUTO
         1 000372   000033 736000                    QLS     27
         1 000373   200067 676100                    ERQ     NOWAIT,,AUTO
         1 000374   007000 376003                    ANQ     3584,DU
         1 000375   200067 656100                    ERSQ    NOWAIT,,AUTO

      883     6221            /* make sure we have write access */
      884     6222    1       CALL HFF$WRITE1( 2) ALTRET( BAD_BUFFER);

   6222  1 000376   000005 630400 2                  EPPR0   5
         1 000377   000017 631400 xsym               EPPR1   B_VECTNIL+15
         1 000400   000000 701000 xent               TSX1    HFF$WRITE1
         1 000401   000656 702000 1                  TSX2    BAD_BUFFER

      885     6223            /* set up to get the TCTX */
      886     6224    1       SCID = ASCBIN( F$DCB.DVFC);

   6224  1 000402   200062 470500                    LDP0    JDCB$,,AUTO
         1 000403   000044 236100                    LDQ     36,,PR0
         1 000404   000011 772000                    QRL     9
PL6.E3A0      #004=KIS$OSI_READ File=KIS$OSI.:E05TSI                             WED 07/30/97 00:41 Page:138
         1 000405   000777 376007                    ANQ     511,DL
         1 000406   200073 756100                    STQ     SCID,,AUTO

      887     6225    2       IF SCID > KIS_SSN_MAXMAJOR THEN DO;

   6225  1 000407   000417 604000 1                  TMI     s:6233
         1 000410   000000 116000 xsym               CMPQ    KIS_SSN_MAXMAJOR
         1 000411   000417 602000 1                  TNC     s:6233
         1 000412   000417 600000 1                  TZE     s:6233

      888     6226                /* no way can this be a legal appl id */
      889     6227    2           B$JIT.ERR = ERRBADSCID;

   6227  1 000413   000001 236000 0                  LDQ     ERRBADSCID
         1 000414   000000 471400 xsym               LDP1    B$JIT$
         1 000415   100012 756100                    STQ     10,,PR1

      890     6228                /*    ERROR:  KIS-E$BADSCID-A
      891     6229                    MESSAGE:  Bad Session connection identifier.
      892     6230                */
      893     6231    2           GOTO SNAP;

   6231  1 000416   000020 710000 1                  TRA     SNAP

      894     6232    2           END;
      895     6233    1       MINOR$ = ADDR( NIL);

   6233  1 000417   000001 236000 xsym               LDQ     B_VECTNIL+1
         1 000420   200066 756100                    STQ     MINOR$,,AUTO

      896     6234    1       MAJOR$ = PINCRW( KIS_MAJOR$, SCID);

   6234  1 000421   200073 236100                    LDQ     SCID,,AUTO
         1 000422   000022 736000                    QLS     18
         1 000423   000000 036000 xsym               ADLQ    KIS_MAJOR$
         1 000424   200065 756100                    STQ     MAJOR$,,AUTO

PL6.E3A0      #004=KIS$OSI_READ File=KIS$OSI.:E05TSI                             WED 07/30/97 00:41 Page:139
      897     6235    2       IF MAJOR$->APPL.Z.LINK ~= 0 THEN DO;

   6235  1 000425   200065 471500                    LDP1    MAJOR$,,AUTO
         1 000426   100000 236100                    LDQ     0,,PR1
         1 000427   000777 316007                    CANQ    511,DL
         1 000430   000445 600000 1                  TZE     s:6246

      898     6236    2           MINOR$ = PINCRW( KIS_MINOR$, MAJOR$->APPL.Z.LINK);

   6236  1 000431   100000 720100                    LXL0    0,,PR1
         1 000432   000777 360003                    ANX0    511,DU
         1 000433   000000 636010                    EAQ     0,X0
         1 000434   000000 036000 xsym               ADLQ    KIS_MINOR$
         1 000435   200066 756100                    STQ     MINOR$,,AUTO

      899     6237    3           IF MINOR$->APPL.TCTX = 0 THEN DO;

   6237  1 000436   200066 473500                    LDP3    MINOR$,,AUTO
         1 000437   300000 221100                    LDX1    0,,PR3
         1 000440   000445 601000 1                  TNZ     s:6246

      900     6238    3               B$JIT.ERR = ERRTRANCLOSED;

   6238  1 000441   000006 236000 0                  LDQ     ERRTRANCLOSED
         1 000442   000000 474400 xsym               LDP4    B$JIT$
         1 000443   400012 756100                    STQ     10,,PR4

      901     6239                    /*    ERROR:  KIS-E$TRANCLOSED-A
      902     6240                        MESSAGE:  Transport connection doesn't exist.
      903     6241                    */
      904     6242    3               ALTRETURN;

   6242  1 000444   000000 702200 xent               TSX2  ! X66_AALT

      905     6243    3               END;
      906     6244    2           END;
      907     6245            %LOCK( G=NK$LDCT.LOCK);
PL6.E3A0      #004=KIS$OSI_READ File=KIS$OSI.:E05TSI                             WED 07/30/97 00:41 Page:140

   6246  1 000445   200063 236100                    LDQ     LDCT$,,AUTO
         1 000446   000020 036003                    ADLQ    16,DU
         1 000447   200074 756100                    STQ     SCID+1,,AUTO
         1 000450   200074 630500                    EPPR0   SCID+1,,AUTO
         1 000451   000017 631400 xsym               EPPR1   B_VECTNIL+15
         1 000452   000000 701000 xent               TSX1    HFC$LOCK
         1 000453   000000 011000                    NOP     0

      908     6248    2       IF NK$LDCT.LKFLG.NOWAIT THEN DO;

   6248  1 000454   200063 470500                    LDP0    LDCT$,,AUTO
         1 000455   000011 236100                    LDQ     9,,PR0
         1 000456   000001 316003                    CANQ    1,DU
         1 000457   000514 600000 1                  TZE     s:6261

      909     6249                /* at least one other no-wait read pending */
      910     6250    2           IF FEPSIZ ~= F$DCB.FEPSIZ OR NK$LDCT.NOWAIT ~= NOWAIT THEN

   6250  1 000460   200062 471500                    LDP1    JDCB$,,AUTO
         1 000461   200061 236100                    LDQ     FEPSIZ,,AUTO
         1 000462   100106 116100                    CMPQ    70,,PR1
         1 000463   000041 601000 1                  TNZ     CANCEL
         1 000464   000100 106500                    CMPC    fill='000'O
         1 000465   000010 000003                    ADSC9   8,,PR0                   cn=0,n=3
         1 000466   200067 000004                    ADSC9   NOWAIT,,AUTO             cn=0,n=4
         1 000467   000041 601000 1                  TNZ     CANCEL

      911     6251    2               GOTO CANCEL;
      912     6252    3           IF F$DCB.FCN.CNT(0) >= 3 THEN DO;

   6252  1 000470   100074 236100                    LDQ     60,,PR1
         1 000471   377000 376003                    ANQ     130560,DU
         1 000472   003000 116003                    CMPQ    1536,DU
         1 000473   000521 602000 1                  TNC     s:6264

      913     6253                    /* too many reads outstanding.. have to cancel one of 'em */
PL6.E3A0      #004=KIS$OSI_READ File=KIS$OSI.:E05TSI                             WED 07/30/97 00:41 Page:141
      914     6254    3               K$RWPARM = K_RWPARM_CON;

   6254  1 000474   000100 100400                    MLR     fill='000'O
         1 000475   000000 000234 xsym               ADSC9   K_RWPARM_CON             cn=0,n=156
         1 000476   200004 000234                    ADSC9   K$RWPARM,,AUTO           cn=0,n=156

      915     6255    3               K$RWPARM.MSG_ERRCODE = ERRXTRARD;

   6255  1 000477   000010 236000 0                  LDQ     ERRXTRARD
         1 000500   200043 756100                    STQ     K$RWPARM+31,,AUTO

      916     6256    3               K$RWPARM.TYC = %TYC_XTRARD;

   6256  1 000501   000011 236000 0                  LDQ     ERRXTRARD+1
         1 000502   200012 756100                    STQ     K$RWPARM+6,,AUTO

      917     6257    3               CALL KIA$COMP( NK$LDCT, K$RWPARM);

   6257  1 000503   200004 633500                    EPPR3   K$RWPARM,,AUTO
         1 000504   200075 453500                    STP3    SCID+2,,AUTO
         1 000505   200063 236100                    LDQ     LDCT$,,AUTO
         1 000506   200074 756100                    STQ     SCID+1,,AUTO
         1 000507   200074 630500                    EPPR0   SCID+1,,AUTO
         1 000510   000020 631400 xsym               EPPR1   B_VECTNIL+16
         1 000511   000000 701000 xent               TSX1    KIA$COMP
         1 000512   000000 011000                    NOP     0

      918     6258    3               END;

      919     6259    2           END;

   6259  1 000513   000521 710000 1                  TRA     s:6264

      920     6260    2       ELSE DO;

      921     6261    2           NK$LDCT.NOWAIT = NOWAIT;

PL6.E3A0      #004=KIS$OSI_READ File=KIS$OSI.:E05TSI                             WED 07/30/97 00:41 Page:142
   6261  1 000514   200067 236100                    LDQ     NOWAIT,,AUTO
         1 000515   000010 552170                    STBQ    8,'70'O,PR0

      922     6262    2           F$DCB.FEPSIZ = FEPSIZ;

   6262  1 000516   200061 236100                    LDQ     FEPSIZ,,AUTO
         1 000517   200062 471500                    LDP1    JDCB$,,AUTO
         1 000520   100106 756100                    STQ     70,,PR1

      923     6263    2           END;

      924     6264    1       NK$LDCT.LKFLG.NOWAIT = '1'B;

   6264  1 000521   200063 470500                    LDP0    LDCT$,,AUTO
         1 000522   000001 236003                    LDQ     1,DU
         1 000523   000011 256100                    ORSQ    9,,PR0

      925     6265            /* increment the user's MF count */
      926     6266            %LOCK( G=NI_MFGATE);

   6267  1 000524   000006 630400 2                  EPPR0   6
         1 000525   000017 631400 xsym               EPPR1   B_VECTNIL+15
         1 000526   000000 701000 xent               TSX1    HFC$LOCK
         1 000527   000000 011000                    NOP     0

      927     6269    1       S$CU$->B$U.MF = S$CU$->B$U.MF + 1;

   6269  1 000530   000000 470400 xsym               LDP0    S$CU$
         1 000531   000006 236100                    LDQ     6,,PR0
         1 000532   001000 036003                    ADLQ    512,DU
         1 000533   000006 552140                    STBQ    6,'40'O,PR0

      928     6270    1       S$CU$->B$U.CMF = S$CU$->B$U.CMF + 1;

   6270  1 000534   000007 236100                    LDQ     7,,PR0
         1 000535   000001 036007                    ADLQ    1,DL
         1 000536   000007 752101                    STCQ    7,'01'O,PR0
PL6.E3A0      #004=KIS$OSI_READ File=KIS$OSI.:E05TSI                             WED 07/30/97 00:41 Page:143

      929     6271            %UNLOCK( G=NI_MFGATE);

   6272  1 000537   000006 630400 2                  EPPR0   6
         1 000540   000017 631400 xsym               EPPR1   B_VECTNIL+15
         1 000541   000000 701000 xent               TSX1    HFC$UNLOCK
         1 000542   000000 011000                    NOP     0

      930     6274    1       IF F$DCB.FCN.CNT(0) = 1 THEN

   6274  1 000543   200062 470500                    LDP0    JDCB$,,AUTO
         1 000544   000074 236100                    LDQ     60,,PR0
         1 000545   377000 376003                    ANQ     130560,DU
         1 000546   001000 116003                    CMPQ    512,DU
         1 000547   000554 601000 1                  TNZ     s:6277

      931     6275    1           F$DCB.FEPIO2 = FEPIO;

   6275  1 000550   000100 100500                    MLR     fill='000'O
         1 000551   200055 000020                    ADSC9   FEPIO,,AUTO              cn=0,n=16
         1 000552   000127 000020                    ADSC9   87,,PR0                  cn=0,n=16
         1 000553   000566 710000 1                  TRA     s:6281

      932     6276    1       ELSE
      933     6277    1           IF F$DCB.FCN.CNT(0) < 1 THEN

   6277  1 000554   000074 236100                    LDQ     60,,PR0
         1 000555   377000 316003                    CANQ    130560,DU
         1 000556   000563 601000 1                  TNZ     s:6280

      934     6278    1               F$DCB.FEPIO = FEPIO;

   6278  1 000557   000100 100500                    MLR     fill='000'O
         1 000560   200055 000020                    ADSC9   FEPIO,,AUTO              cn=0,n=16
         1 000561   000110 000020                    ADSC9   72,,PR0                  cn=0,n=16
         1 000562   000566 710000 1                  TRA     s:6281

PL6.E3A0      #004=KIS$OSI_READ File=KIS$OSI.:E05TSI                             WED 07/30/97 00:41 Page:144
      935     6279    1           ELSE
      936     6280    1               F$DCB.FEPIO3 = FEPIO;

   6280  1 000563   000100 100500                    MLR     fill='000'O
         1 000564   200055 000020                    ADSC9   FEPIO,,AUTO              cn=0,n=16
         1 000565   000133 000020                    ADSC9   91,,PR0                  cn=0,n=16

      937     6281    1       F$DCB.FCN.CNT(0) = F$DCB.FCN.CNT(0) + 1;

   6281  1 000566   000074 236100                    LDQ     60,,PR0
         1 000567   000033 772000                    QRL     27
         1 000570   000377 376007                    ANQ     255,DL
         1 000571   000001 036007                    ADLQ    1,DL
         1 000572   000033 736000                    QLS     27
         1 000573   000074 676100                    ERQ     60,,PR0
         1 000574   377000 376003                    ANQ     130560,DU
         1 000575   000074 656100                    ERSQ    60,,PR0

      938     6282    2       IF MINOR$ ~= ADDR( NIL) THEN DO;

   6282  1 000576   200066 236100                    LDQ     MINOR$,,AUTO
         1 000577   000001 116000 xsym               CMPQ    B_VECTNIL+1
         1 000600   000642 600000 1                  TZE     s:6308

      939     6283                /* let Transport know we can handle another input record now */
      940     6284    2           K$RWPARM.FUNCTION = %K_TCREDIT;

   6284  1 000601   000032 235007                    LDA     26,DL
         1 000602   200024 755100                    STA     K$RWPARM+16,,AUTO

      941     6285    2           K$RWPARM.SSN_CRDT = 1;

   6285  1 000603   000001 235007                    LDA     1,DL
         1 000604   200031 755100                    STA     K$RWPARM+21,,AUTO

      942     6286    2           K$RWPARM.TCTX# = MINOR$->APPL.TCTX;

PL6.E3A0      #004=KIS$OSI_READ File=KIS$OSI.:E05TSI                             WED 07/30/97 00:41 Page:145
   6286  1 000605   200066 471500                    LDP1    MINOR$,,AUTO
         1 000606   100000 220100                    LDX0    0,,PR1
         1 000607   200037 740100                    STX0    K$RWPARM+27,,AUTO

      943     6287    2   TRYSEND:
      944     6288    2           CALL KIT$SEND( K$RWPARM)

   6288  1 000610   200004 630500       TRYSEND      EPPR0   K$RWPARM,,AUTO
         1 000611   200074 450500                    STP0    SCID+1,,AUTO
         1 000612   200074 630500                    EPPR0   SCID+1,,AUTO
         1 000613   000017 631400 xsym               EPPR1   B_VECTNIL+15
         1 000614   000000 701000 xent               TSX1    KIT$SEND
         1 000615   000617 702000 1                  TSX2    s:6291
         1 000616   000642 710000 1                  TRA     s:6308

      945     6289    3           WHENALTRETURN DO;

      946     6290                    /* Transport couldn't deal with the credit msg */
      947     6291    4               IF K$RWPARM.ERR = %K$QFULL THEN DO;

   6291  1 000617   200017 235100                    LDA     K$RWPARM+11,,AUTO
         1 000620   000001 115007                    CMPA    1,DL
         1 000621   000627 601000 1                  TNZ     s:6295

      948     6292    4                   CALL KIA$OQFL( NK$LDCT) ALTRET( SNAP);

   6292  1 000622   200063 630500                    EPPR0   LDCT$,,AUTO
         1 000623   000017 631400 xsym               EPPR1   B_VECTNIL+15
         1 000624   000000 701000 xent               TSX1    KIA$OQFL
         1 000625   000020 702000 1                  TSX2    SNAP

      949     6293    4                   GOTO TRYSEND;

   6293  1 000626   000610 710000 1                  TRA     TRYSEND

      950     6294    4                   END;
      951     6295    3               IF K$RWPARM.ERR = %K$USER_ERR THEN
PL6.E3A0      #004=KIS$OSI_READ File=KIS$OSI.:E05TSI                             WED 07/30/97 00:41 Page:146

   6295  1 000627   000010 115007                    CMPA    8,DL
         1 000630   000635 601000 1                  TNZ     s:6298

      952     6296    3                   B$JIT.ERR = K$RWPARM.MSG_ERRCODE;

   6296  1 000631   200043 236100                    LDQ     K$RWPARM+31,,AUTO
         1 000632   000000 470400 xsym               LDP0    B$JIT$
         1 000633   000012 756100                    STQ     10,,PR0
         1 000634   000642 710000 1                  TRA     s:6308

      953     6297    4               ELSE DO;

      954     6298    4                   B$JIT.ERR = ERRTRANSPORT;

   6298  1 000635   000007 236000 0                  LDQ     ERRTRANSPORT
         1 000636   000000 470400 xsym               LDP0    B$JIT$
         1 000637   000012 756100                    STQ     10,,PR0

      955     6299                        /*    ERROR:  KIS-E$TRANSPORT-A
      956     6300                            MESSAGE:  Internal error.  Transport ALTRETURN.
      957     6301                        */
      958     6302    4                   CALL SC_PRTCL_SNAP;

   6302  1 000640   000000 713400 xsym               CLIMB   SC_PRTCL_SNAP
         1 000641   000000 600000 xsid               climb   nvectors=         0

      959     6303    4                   END;

      960     6304    3               END;

      961     6305    2           END;

      962     6306            /* all done for now... */
      963     6307            %UNLOCK( G=NK$LDCT.LOCK);

   6308  1 000642   200063 236100                    LDQ     LDCT$,,AUTO
PL6.E3A0      #004=KIS$OSI_READ File=KIS$OSI.:E05TSI                             WED 07/30/97 00:41 Page:147
         1 000643   000020 036003                    ADLQ    16,DU
         1 000644   200074 756100                    STQ     SCID+1,,AUTO
         1 000645   200074 630500                    EPPR0   SCID+1,,AUTO
         1 000646   000017 631400 xsym               EPPR1   B_VECTNIL+15
         1 000647   000000 701000 xent               TSX1    HFC$UNLOCK
         1 000650   000000 011000                    NOP     0

      964     6310    1       IF B$JIT.ERR = '0'B THEN

   6310  1 000651   000000 470400 xsym               LDP0    B$JIT$
         1 000652   000012 235100                    LDA     10,,PR0
         1 000653   000655 601000 1                  TNZ     s:6312

      965     6311    1           RETURN;

   6311  1 000654   000000 702200 xent               TSX2  ! X66_ARET

      966     6312    1       ALTRETURN;

   6312  1 000655   000000 702200 xent               TSX2  ! X66_AALT

      967     6313    1   BAD_BUFFER:
      968     6314            /* no longer trap bad user buffer */
      969     6315    1       CALL HFF$TRAPALT;

   6315  1 000656   000002 631400 xsym  BAD_BUFFER   EPPR1   B_VECTNIL+2
         1 000657   000000 701000 xent               TSX1    HFF$TRAPALT
         1 000660   000000 011000                    NOP     0

      970     6316            %UNLOCK( G=NK$LDCT.LOCK);

   6317  1 000661   200063 236100                    LDQ     LDCT$,,AUTO
         1 000662   000020 036003                    ADLQ    16,DU
         1 000663   200074 756100                    STQ     SCID+1,,AUTO
         1 000664   200074 630500                    EPPR0   SCID+1,,AUTO
         1 000665   000017 631400 xsym               EPPR1   B_VECTNIL+15
         1 000666   000000 701000 xent               TSX1    HFC$UNLOCK
PL6.E3A0      #004=KIS$OSI_READ File=KIS$OSI.:E05TSI                             WED 07/30/97 00:41 Page:148
         1 000667   000000 011000                    NOP     0

      971     6319    1       B$JIT.ERR = ERRBADBUFFER;

   6319  1 000670   000000 236000 0                  LDQ     ERRBADBUFFER
         1 000671   000000 470400 xsym               LDP0    B$JIT$
         1 000672   000012 756100                    STQ     10,,PR0

      972     6320            /*E*  ERROR:  KIS-E$BADBUFFER-A
      973     6321                MESSAGE:  Read buffer is inaccessible.
      974     6322            */
      975     6323    1       ALTRETURN;

   6323  1 000673   000000 702200 xent               TSX2  ! X66_AALT

      976     6324        %EJECT;
PL6.E3A0      #004=KIS$OSI_READ File=KIS$OSI.:E05TSI                             WED 07/30/97 00:41 Page:149
      977     6325        /*F*    NAME:   KIS$OSI_TRUNC
      978     6326
      979     6327                PURPOSE:  Handle M$TRUNC of RES=NC DCB.
      980     6328        */
      981     6329        /*D*    NAME:   KIS$OSI_TRUNC
      982     6330                CALL:   CALL KIS$OSI_TRUNC ALTRET( label);
      983     6331                INPUT:
      984     6332                    B$JIT.DCB$->F$DCB the NC DCB itself.
      985     6333                OUTPUT:
      986     6334                    none.
      987     6335                DESCRIPTION:
      988     6336                    KIS$OSI_TRUNC is called from FMF$TRUNC in order to cancel
      989     6337                    the NoWait reads on an NC DCB.  The most common (only?)
      990     6338                    situation in which this needs to be done is when an OSI
      991     6339                    client application does an M$LINK/M$YC.  The NoWait reads
      992     6340                    issued by the Session library need to be COMP'd, and this
      993     6341                    involves interaction with the Transport layer to prevent
      994     6342                    more data from arriving while the application is off doing
      995     6343                    something else.
      996     6344        */
      997     6345    1   KIS$OSI_TRUNC: ENTRY ALTRET;

   6345  1 000674   000000 700200 xent  KIS$OSI_TRU* TSX0  ! X66_AUTO_0
         1 000675   000102 000000                    ZERO    66,0

      998     6346
      999     6347    1       JDCB$ = B$JIT.DCB$;

   6347  1 000676   000000 470400 xsym               LDP0    B$JIT$
         1 000677   000232 236100                    LDQ     154,,PR0
         1 000700   200062 756100                    STQ     JDCB$,,AUTO

     1000     6348    1       LDCT$ = NK$LDCT$( F$DCB.LDCTX);

   6348  1 000701   200062 471500                    LDP1    JDCB$,,AUTO
         1 000702   100051 220100                    LDX0    41,,PR1
         1 000703   000000 473400 xsym               LDP3    N$DCT$$
PL6.E3A0      #004=KIS$OSI_READ File=KIS$OSI.:E05TSI                             WED 07/30/97 00:41 Page:150
         1 000704   300000 236110                    LDQ     0,X0,PR3
         1 000705   200063 756100                    STQ     LDCT$,,AUTO

     1001     6349    1       SCID = ASCBIN( F$DCB.DVFC);

   6349  1 000706   100044 236100                    LDQ     36,,PR1
         1 000707   000011 772000                    QRL     9
         1 000710   000777 376007                    ANQ     511,DL
         1 000711   200073 756100                    STQ     SCID,,AUTO

     1002     6350    1       MINOR$ = ADDR( NIL);

   6350  1 000712   000001 236000 xsym               LDQ     B_VECTNIL+1
         1 000713   200066 756100                    STQ     MINOR$,,AUTO

     1003     6351    1       MAJOR$ = PINCRW( KIS_MAJOR$, SCID);

   6351  1 000714   200073 236100                    LDQ     SCID,,AUTO
         1 000715   000022 736000                    QLS     18
         1 000716   000000 036000 xsym               ADLQ    KIS_MAJOR$
         1 000717   200065 756100                    STQ     MAJOR$,,AUTO

     1004     6352    1       IF MAJOR$->APPL.Z.LINK ~= 0 THEN

   6352  1 000720   200065 474500                    LDP4    MAJOR$,,AUTO
         1 000721   400000 236100                    LDQ     0,,PR4
         1 000722   000777 316007                    CANQ    511,DL
         1 000723   000731 600000 1                  TZE     s:6355

     1005     6353    1           MINOR$ = PINCRW( KIS_MINOR$, MAJOR$->APPL.Z.LINK);

   6353  1 000724   400000 721100                    LXL1    0,,PR4
         1 000725   000777 361003                    ANX1    511,DU
         1 000726   000000 636011                    EAQ     0,X1
         1 000727   000000 036000 xsym               ADLQ    KIS_MINOR$
         1 000730   200066 756100                    STQ     MINOR$,,AUTO

PL6.E3A0      #004=KIS$OSI_READ File=KIS$OSI.:E05TSI                             WED 07/30/97 00:41 Page:151
     1006     6354            %LOCK( G=NK$LDCT.LOCK);

   6355  1 000731   200063 236100                    LDQ     LDCT$,,AUTO
         1 000732   000020 036003                    ADLQ    16,DU
         1 000733   200074 756100                    STQ     SCID+1,,AUTO
         1 000734   200074 630500                    EPPR0   SCID+1,,AUTO
         1 000735   000017 631400 xsym               EPPR1   B_VECTNIL+15
         1 000736   000000 701000 xent               TSX1    HFC$LOCK
         1 000737   000000 011000                    NOP     0

     1007     6357    2       IF NK$LDCT.LKFLG.NOWAIT THEN DO;

   6357  1 000740   200063 470500                    LDP0    LDCT$,,AUTO
         1 000741   000011 236100                    LDQ     9,,PR0
         1 000742   000001 316003                    CANQ    1,DU
         1 000743   001055 600000 1                  TZE     s:6392

     1008     6358                /* there are NoWait read(s) outstanding */
     1009     6359    2           IF MINOR$ = ADDR( NIL) OR MINOR$->APPL.TCTX = 0 THEN

   6359  1 000744   200066 236100                    LDQ     MINOR$,,AUTO
         1 000745   000001 116000 xsym               CMPQ    B_VECTNIL+1
         1 000746   001027 600000 1                  TZE     DONETRAN
         1 000747   200066 471500                    LDP1    MINOR$,,AUTO
         1 000750   100000 220100                    LDX0    0,,PR1
         1 000751   001027 600000 1                  TZE     DONETRAN

     1010     6360    2               GOTO DONETRAN;
     1011     6361    2           K$RWPARM = K_RWPARM_CON;

   6361  1 000752   000100 100400                    MLR     fill='000'O
         1 000753   000000 000234 xsym               ADSC9   K_RWPARM_CON             cn=0,n=156
         1 000754   200004 000234                    ADSC9   K$RWPARM,,AUTO           cn=0,n=156

     1012     6362    2           K$RWPARM.FUNCTION = %K_TCREDIT;

   6362  1 000755   000032 235007                    LDA     26,DL
PL6.E3A0      #004=KIS$OSI_READ File=KIS$OSI.:E05TSI                             WED 07/30/97 00:41 Page:152
         1 000756   200024 755100                    STA     K$RWPARM+16,,AUTO

     1013     6363    2           K$RWPARM.SSN_CRDT = 0;

   6363  1 000757   200031 450100                    STZ     K$RWPARM+21,,AUTO

     1014     6364    2           K$RWPARM.TCTX# = MINOR$->APPL.TCTX;

   6364  1 000760   100000 220100                    LDX0    0,,PR1
         1 000761   200037 740100                    STX0    K$RWPARM+27,,AUTO

     1015     6365    2   TRYTRUNC:
     1016     6366    2           CALL KIT$SEND( K$RWPARM)

   6366  1 000762   200004 630500       TRYTRUNC     EPPR0   K$RWPARM,,AUTO
         1 000763   200074 450500                    STP0    SCID+1,,AUTO
         1 000764   200074 630500                    EPPR0   SCID+1,,AUTO
         1 000765   000017 631400 xsym               EPPR1   B_VECTNIL+15
         1 000766   000000 701000 xent               TSX1    KIT$SEND
         1 000767   000771 702000 1                  TSX2    s:6368
         1 000770   001002 710000 1                  TRA     s:6374

     1017     6367    3           WHENALTRETURN DO;

     1018     6368    4               IF K$RWPARM.ERR = %K$QFULL THEN DO;

   6368  1 000771   200017 235100                    LDA     K$RWPARM+11,,AUTO
         1 000772   000001 115007                    CMPA    1,DL
         1 000773   001001 601000 1                  TNZ     s:6372

     1019     6369    4                   CALL KIA$OQFL( NK$LDCT) ALTRET( SNAP);

   6369  1 000774   200063 630500                    EPPR0   LDCT$,,AUTO
         1 000775   000017 631400 xsym               EPPR1   B_VECTNIL+15
         1 000776   000000 701000 xent               TSX1    KIA$OQFL
         1 000777   000020 702000 1                  TSX2    SNAP

PL6.E3A0      #004=KIS$OSI_READ File=KIS$OSI.:E05TSI                             WED 07/30/97 00:41 Page:153
     1020     6370    4                   GOTO TRYTRUNC;

   6370  1 001000   000762 710000 1                  TRA     TRYTRUNC

     1021     6371    4                   END;
     1022     6372    3               GOTO SNAP;

   6372  1 001001   000020 710000 1                  TRA     SNAP

     1023     6373    3               END;
     1024     6374    2           NK$LDCT.LKFLG.WTMRK = '1'B;

   6374  1 001002   200063 470500                    LDP0    LDCT$,,AUTO
         1 001003   020000 236003                    LDQ     8192,DU
         1 001004   000011 256100                    ORSQ    9,,PR0

     1025     6375    2   TRUNCLOOP:
     1026     6376    2           CALL SSR$REG( %SS_CW, NK$LDCT);  /* which unlocks ldct.lock */

   6376  1 001005   200063 236100       TRUNCLOOP    LDQ     LDCT$,,AUTO
         1 001006   000001 235000 2                  LDA     1
         1 001007   200074 757100                    STAQ    SCID+1,,AUTO
         1 001010   200074 630500                    EPPR0   SCID+1,,AUTO
         1 001011   000020 631400 xsym               EPPR1   B_VECTNIL+16
         1 001012   000000 701000 xent               TSX1    SSR$REG
         1 001013   000000 011000                    NOP     0

     1027     6377                %LOCK( G=NK$LDCT.LOCK);

   6378  1 001014   200063 236100                    LDQ     LDCT$,,AUTO
         1 001015   000020 036003                    ADLQ    16,DU
         1 001016   200074 756100                    STQ     SCID+1,,AUTO
         1 001017   200074 630500                    EPPR0   SCID+1,,AUTO
         1 001020   000017 631400 xsym               EPPR1   B_VECTNIL+15
         1 001021   000000 701000 xent               TSX1    HFC$LOCK
         1 001022   000000 011000                    NOP     0

PL6.E3A0      #004=KIS$OSI_READ File=KIS$OSI.:E05TSI                             WED 07/30/97 00:41 Page:154
     1028     6380    2           IF NK$LDCT.LKFLG.WTMRK THEN

   6380  1 001023   200063 470500                    LDP0    LDCT$,,AUTO
         1 001024   000011 236100                    LDQ     9,,PR0
         1 001025   020000 316003                    CANQ    8192,DU
         1 001026   001005 601000 1                  TNZ     TRUNCLOOP

     1029     6381    2               GOTO TRUNCLOOP;
     1030     6382    2   DONETRAN:
     1031     6383    3           DO WHILE( NK$LDCT.LKFLG.NOWAIT);

   6383  1 001027   000011 236100       DONETRAN     LDQ     9,,PR0
         1 001030   000001 316003                    CANQ    1,DU
         1 001031   001055 600000 1                  TZE     s:6392

     1032     6384                    /* COMP any remaining NoWait reads */
     1033     6385    3               K$RWPARM = K_RWPARM_CON;

   6385  1 001032   000100 100400                    MLR     fill='000'O
         1 001033   000000 000234 xsym               ADSC9   K_RWPARM_CON             cn=0,n=156
         1 001034   200004 000234                    ADSC9   K$RWPARM,,AUTO           cn=0,n=156

     1034     6386    3               K$RWPARM.MSG_ERRCODE = ERREOD;

   6386  1 001035   000003 236000 0                  LDQ     ERREOD
         1 001036   200043 756100                    STQ     K$RWPARM+31,,AUTO

     1035     6387    3               K$RWPARM.TYC = %TYC_EOD;

   6387  1 001037   000013 236000 0                  LDQ     ERRXTRARD+3
         1 001040   200012 756100                    STQ     K$RWPARM+6,,AUTO

     1036     6388    3               CALL KIA$COMP( NK$LDCT, K$RWPARM);

   6388  1 001041   200004 630500                    EPPR0   K$RWPARM,,AUTO
         1 001042   200075 450500                    STP0    SCID+2,,AUTO
         1 001043   200063 236100                    LDQ     LDCT$,,AUTO
PL6.E3A0      #004=KIS$OSI_READ File=KIS$OSI.:E05TSI                             WED 07/30/97 00:41 Page:155
         1 001044   200074 756100                    STQ     SCID+1,,AUTO
         1 001045   200074 630500                    EPPR0   SCID+1,,AUTO
         1 001046   000020 631400 xsym               EPPR1   B_VECTNIL+16
         1 001047   000000 701000 xent               TSX1    KIA$COMP
         1 001050   000000 011000                    NOP     0

     1037     6389    3               END;

   6389  1 001051   200063 470500                    LDP0    LDCT$,,AUTO
         1 001052   000011 236100                    LDQ     9,,PR0
         1 001053   000001 316003                    CANQ    1,DU
         1 001054   001032 601000 1                  TNZ     s:6385

     1038     6390    2           END;

     1039     6391            %UNLOCK( G=NK$LDCT.LOCK);

   6392  1 001055   200063 236100                    LDQ     LDCT$,,AUTO
         1 001056   000020 036003                    ADLQ    16,DU
         1 001057   200074 756100                    STQ     SCID+1,,AUTO
         1 001060   200074 630500                    EPPR0   SCID+1,,AUTO
         1 001061   000017 631400 xsym               EPPR1   B_VECTNIL+15
         1 001062   000000 701000 xent               TSX1    HFC$UNLOCK
         1 001063   000000 011000                    NOP     0

     1040     6394    1       RETURN;

   6394  1 001064   000000 702200 xent               TSX2  ! X66_ARET

ERRBADBUFFER
 Sect OctLoc
   0     000   131123 431347                                                    YS..

ERRBADSCID
 Sect OctLoc
   0     001   131123 431407                                                    YS..

PL6.E3A0      #004=KIS$OSI_READ File=KIS$OSI.:E05TSI                             WED 07/30/97 00:41 Page:156
ERRCANTREG
 Sect OctLoc
   0     002   131123 431527                                                    YS..

ERREOD
 Sect OctLoc
   0     003   131123 400127                                                    YS.W

ERROSILDSC
 Sect OctLoc
   0     004   131123 431557                                                    YS..

ERRNOREAD
 Sect OctLoc
   0     005   131123 431467                                                    YS..

ERRTRANCLOSED
 Sect OctLoc
   0     006   131123 431437                                                    YS..

ERRTRANSPORT
 Sect OctLoc
   0     007   131123 431457                                                    YS..

ERRXTRARD
 Sect OctLoc
   0     010   131123 400237                                                    YS..

(unnamed)
 Sect OctLoc
   0     011   000000 200000   002000 000000   000200 000000                    ............

(unnamed)
 Sect OctLoc
   2     000   000000 000047   000000 006000   000014 400000   000000 006000    ...'............
   2     004   000012 006000   000004 006000   000000 006000                    ............
     1041     6395
PL6.E3A0      #004=KIS$OSI_READ File=KIS$OSI.:E05TSI                             WED 07/30/97 00:41 Page:157
     1042     6396    1       END KIS$OSI_READ;
     1043     6397        %EOD;

PL6.E3A0      #004=KIS$OSI_READ File=KIS$OSI.:E05TSI                             WED 07/30/97 00:41 Page:158
--  Include file information  --

   F$DCB.:E05TOU  is referenced.
   UM_CP6.:E05TOU  is referenced.
   SS_SCHED_C.:E05TOU  is referenced.
   NK$LDCT.:E05TOU  is referenced.
   NK_SUBS.:E05TOU  is referenced.
   NK_LDCT_R.:E05TOU  cannot be made into a system file and is referenced.
   K_SUBS_C.:E05TOU  is referenced.
   K_SESSION_M.:E05TOU  is referenced.
   K_INTERFACE_M.:E05TOU  is referenced.
   K$RWPARM.:E05TOU  is referenced.
   K_DATA_R.:E05TOU  cannot be made into a system file and is referenced.
   K_ADDRESS_M.:E05TOU  is referenced.
   KI$MHDR.:E05TOU  is referenced.
   KI_ERRORS_C.:E05TOU  is referenced.
   HF_LOCK_C.:E05TOU  cannot be made into a system file and is referenced.
   F_ERRORS_C.:E05TOU  is referenced.
   B$JIT_C.:E05TOU  is referenced.
   F$JIT_C.:E05TOU  cannot be made into a system file and is referenced.
   F$CP6V_C.:E05TOU  is referenced.
   CP_6_SUBS.:E05TOU  is referenced.
   B_STRINGS_C.:E05TOU  is referenced.
   B$USER.:E05TOU  cannot be made into a system file and is referenced.
      No diagnostics issued in procedure KIS$OSI_READ.
PL6.E3A0      #004=KIS$OSI_READ File=KIS$OSI.:E05TSI                             WED 07/30/97 00:41 Page:159

 **** Variables and constants ****

  ****  Section 000 RoData KIS$OSI_READ

  ****  Scalars and arrays  ****
OctLoc.c.b A Datatyp(siz) R M Lvl/name                 OctLoc.c.b A Datatyp(siz) R M Lvl/name

     0-0-0/w STRC        r     1 ERRBADBUFFER               1-0-0/w STRC        r     1 ERRBADSCID
     2-0-0/w STRC        r     1 ERRCANTREG                 3-0-0/w STRC        r     1 ERREOD
     5-0-0/w STRC        r     1 ERRNOREAD                  4-0-0/w STRC        r     1 ERROSILDSC
     6-0-0/w STRC        r     1 ERRTRANCLOSED              7-0-0/w STRC        r     1 ERRTRANSPORT
    10-0-0/w STRC        r     1 ERRXTRARD

  ****  Auto variables  ****

  ****  Scalars and arrays  ****
OctLoc.c.b A Datatyp(siz) R M Lvl/name                 OctLoc.c.b A Datatyp(siz) R M Lvl/name

    54-0-0/w UBIN        r     1 DMN                       55-0-0/w STRC(144)   r     1 FEPIO
    61-0-0/b STRC        r     1 FEPSIZ                    62-0-0/w PTR         r     1 JDCB$
     4-0-0/d STRC(1404)  r     1 K$RWPARM                  63-0-0/w PTR         r     1 LDCT$
    64-0-0/w UBIN        r     1 LEN                       65-0-0/w PTR         r     1 MAJOR$
    66-0-0/w PTR         r     1 MINOR$                    67-0-0/b STRC        r     1 NOWAIT
    70-0-0/w STRC        r     1 PTW(0:1)                  72-0-0/w PTR         r     1 R$
    73-0-0/w SBIN        r     1 SCID

  ****  SYMREF variables  ****

  ****  Scalars and arrays  ****
OctLoc.c.b A Datatyp(siz) R M Lvl/name                 OctLoc.c.b A Datatyp(siz) R M Lvl/name

     0-0-0/w PTR         r     1 B$CGCTXT$                  0-0-0/w PTR         r     1 B$JIT$
     0-0-0/w PTR         r     1 B$PS0$                     0-0-0/w PTR         r     1 B$PS2$
     0-0-0/w PTR         r     1 KIS_MAJOR$                 0-0-0/w PTR         r     1 KIS_MINOR$
     0-0-0/w UBIN        r     1 KIS_SSN_MAXMAJOR           0-0-0/d STRC(1404)  r     1 K_RWPARM_CON
     0-0-0/w PTR         r     1 N$DCT$$                    0-0-0/b BIT (72)    r     1 NI_MFGATE
     0-0-0/w PTR         r     1 S$CU$
PL6.E3A0      #004=KIS$OSI_READ File=KIS$OSI.:E05TSI                             WED 07/30/97 00:41 Page:160

  ****  BASED and DCB variables  ****

  ****  Scalars and arrays  ****
OctLoc.c.b A Datatyp(siz) R M Lvl/name                 OctLoc.c.b A Datatyp(siz) R M Lvl/name

     0-0-0/w STRC(360)   r     1 APPL                       0-0-0/d STRC(8856)  r     1 B$JIT
     0-0-0/d STRC(576)   r     1 B$U                        0-0-0/c ACHR        r     1 BUFFER
     0-0-0/d ASTR(3528)  r     1 F$DCB                      0-0-0/d STRC(216)   r     1 FPT$READ_V
     0-0-0/w STRC(144)   r     1 KI$QMHDR                   0-0-0/c ACHR        r     1 MESSAGE
     0-0-0/d STRC(864)   r     1 NK$LDCT
     0-0-0/w PTR         r     1 NK$LDCT$(0:0)


   Procedure KIS$OSI_READ requires 565 words for executable code.
   Procedure KIS$OSI_READ requires 66 words of local(AUTO) storage.
PL6.E3A0      #004=KIS$OSI_READ File=KIS$OSI.:E05TSI                             WED 07/30/97 00:41 Page:161
          *** CROSS REFERENCE LISTING ***
**     DENOTES     IDENTIFIER DEFINITION
<<                 IDENTIFIER'S VALUE SET
>>                 IDENTIFIER'S VALUE USED
<>                 IDENTIFIER SET AND/OR USED
--                 IDENTIFIER REFERENCED
PL6.E3A0      #004=KIS$OSI_READ File=KIS$OSI.:E05TSI                             WED 07/30/97 00:41 Page:162
          MINI XREF LISTING

APPL.CLNTHD
      4178**DCL      4179--REDEF
APPL.TCTX
      4175**DCL      4176--REDEF    4177--REDEF    6237>>IF       6286>>ASSIGN   6359>>IF       6364>>ASSIGN
APPL.Z.COOKIE
      4180**DCL      4181--REDEF
APPL.Z.LINK
      4182**DCL      6235>>IF       6236>>ASSIGN   6352>>IF       6353>>ASSIGN
B$CGCTXT$
      6070**DCL      6212>>ASSIGN
B$DO.ECCINFO
       192**DCL       193--REDEF
B$JIT.DCB$
      1580**DCL      6107>>ASSIGN   6347>>ASSIGN
B$JIT.DCBNO
      1571**DCL      6217>>ASSIGN
B$JIT.ERR
      1490**DCL      6113<<ASSIGN   6153<<ASSIGN   6169<<ASSIGN   6195<<ASSIGN   6227<<ASSIGN   6238<<ASSIGN
      6296<<ASSIGN   6298<<ASSIGN   6310>>IF       6319<<ASSIGN
B$JIT.ERR.MID
      1491**DCL      1491--REDEF
B$JIT$
      6071**DCL      1485--IMP-PTR  6107>>ASSIGN   6113>>ASSIGN   6153>>ASSIGN   6169>>ASSIGN   6195>>ASSIGN
      6217>>ASSIGN   6227>>ASSIGN   6238>>ASSIGN   6296>>ASSIGN   6298>>ASSIGN   6310>>IF       6319>>ASSIGN
      6347>>ASSIGN
B$PS0$
      6072**DCL      1157--IMP-PTR  6216>>ASSIGN
B$PS2$
      6073**DCL      6079--IMP-PTR  6181<>CALL     6191>>ASSIGN
B$U.CMF
       154**DCL      6270<<ASSIGN   6270>>ASSIGN
B$U.MF
PL6.E3A0      #004=KIS$OSI_READ File=KIS$OSI.:E05TSI                             WED 07/30/97 00:41 Page:163
       147**DCL      6269<<ASSIGN   6269>>ASSIGN
B$U.MISC
       171**DCL       172--REDEF
B$USER.MISC
       247**DCL       248--REDEF
BAD_BUFFER
      6315**LABEL    6181--CALLALT  6189--CALLALT  6222--CALLALT
BRKCK
      6148**LABEL    6198--CALLALT
BUFFER
      6079**DCL      6191<<ASSIGN
CANCEL
      6127**LABEL    6251--GOTO
DMN
      6080**DCL      6219<>CALL     6220>>ASSIGN
DONETRAN
      6383**LABEL    6360--GOTO
ERRBADBUFFER
      5538**DCL      6319>>ASSIGN
ERRBADSCID
      5586**DCL      6227>>ASSIGN
ERRCANTREG
      5634**DCL      6153>>ASSIGN
ERREOD
      5682**DCL      6386>>ASSIGN
ERRNOREAD
      5778**DCL      6169>>ASSIGN
ERROSILDSC
      5730**DCL      6113>>ASSIGN
ERRTRANCLOSED
      5826**DCL      6238>>ASSIGN
ERRTRANSPORT
      5874**DCL      6298>>ASSIGN
ERRXTRARD
      5922**DCL      6129>>ASSIGN   6255>>ASSIGN
F$DCB.ACTPOS
PL6.E3A0      #004=KIS$OSI_READ File=KIS$OSI.:E05TSI                             WED 07/30/97 00:41 Page:164
      6033**DCL      6033--REDEF
F$DCB.ARS
      6008**DCL      6008--REDEF    6193<<ASSIGN
F$DCB.ATTR
      6026**DCL      6027--REDEF
F$DCB.BORROW
      6041**DCL      6041--REDEF    6041--REDEF    6041--REDEF
F$DCB.DCBNAME.L
      6055**DCL      6055--IMP-SIZ
F$DCB.DVFC
      6029**DCL      6224>>ASSIGN   6349>>ASSIGN
F$DCB.EOMCHAR
      6012**DCL      6012--REDEF
F$DCB.FCN.CNT
      6045**DCL      6125>>IF       6252>>IF       6274>>IF       6277>>IF       6281<<ASSIGN   6281>>ASSIGN
F$DCB.FEPIO
      6051**DCL      6278<<ASSIGN
F$DCB.FEPIO2
      6054**DCL      6275<<ASSIGN
F$DCB.FEPIO3
      6054**DCL      6280<<ASSIGN
F$DCB.FEPSIZ
      6050**DCL      6250>>IF       6262<<ASSIGN
F$DCB.FLDID
      6036**DCL      6036--REDEF
F$DCB.FORM$
      6030**DCL      6030--REDEF
F$DCB.FSECT
      6046**DCL      6046--REDEF
F$DCB.FSN
      6023**DCL      6023--REDEF    6023--REDEF    6024--REDEF
F$DCB.HEADER$
      6029**DCL      6029--REDEF
F$DCB.IXTNSIZE
      6027**DCL      6027--REDEF
F$DCB.LASTSTA$
PL6.E3A0      #004=KIS$OSI_READ File=KIS$OSI.:E05TSI                             WED 07/30/97 00:41 Page:165
      6017**DCL      6017--REDEF
F$DCB.LDCTX
      6030**DCL      6108>>ASSIGN   6348>>ASSIGN
F$DCB.LVL
      6042**DCL      6042--REDEF
F$DCB.NAME.C
      6017**DCL      6017--REDEF
F$DCB.NOEOF
      6038**DCL      6038--REDEF
F$DCB.NRECS
      6028**DCL      6028--REDEF
F$DCB.NRECX
      6047**DCL      6047--REDEF
F$DCB.OHDR
      6039**DCL      6039--REDEF
F$DCB.ORG
      6022**DCL      6022--REDEF
F$DCB.PRECNO
      6045**DCL      6045--REDEF
F$DCB.RCSZ
      6050**DCL      6050--REDEF
F$DCB.RES
      6018**DCL      6018--REDEF
F$DCB.SETX
      6030**DCL      6030--REDEF
F$DCB.TAB$
      6029**DCL      6030--REDEF
F$DCB.TDA
      6044**DCL      6044--REDEF
F$DCB.UB$
      6046**DCL      6211<>CALL
F$DCB.UBYTES
      6046**DCL      6210>>ASSIGN   6211<>CALL
F$DCB.WAIT
      6040**DCL      6125>>IF       6135>>IF
F$DCB.WSN
PL6.E3A0      #004=KIS$OSI_READ File=KIS$OSI.:E05TSI                             WED 07/30/97 00:41 Page:166
      6019**DCL      6019--REDEF
FEPIO
      6081**DCL      6275>>ASSIGN   6278>>ASSIGN   6280>>ASSIGN
FEPIO.BPP
      6085**DCL      6213<<ASSIGN   6214<<ASSIGN
FEPIO.BUFX
      6084**DCL      6212<<ASSIGN
FEPIO.EVENT
      6082**DCL      6216<<ASSIGN
FEPSIZ
      6087**DCL      6250>>IF       6262>>ASSIGN
FEPSIZ.BUF
      6088**DCL      6210<<ASSIGN
FMO$GETDOMAIN
      6058**DCL-ENT  6219--CALL
FPT$READ_V.DVBYTE.REREAD
      1159**DCL      1160--REDEF
FPT$READ_V.EVENT
      1159**DCL      6216>>ASSIGN
FPT$READ_V.INDX
      1159**DCL      1159--REDEF
HFC$LOCK
      1846**DCL-ENT  6122--CALL     6142--CALL     6160--CALL     6246--CALL     6267--CALL     6355--CALL
      6378--CALL
HFC$UNLOCK
      1846**DCL-ENT  6148--CALL     6167--CALL     6200--CALL     6206--CALL     6272--CALL     6308--CALL
      6317--CALL     6392--CALL
HFF$DSIZ
      6059**DCL-ENT  6181--CALL
HFF$TRAPALT
      6060**DCL-ENT  6189--CALL     6315--CALL
HFF$WRITE1
      6061**DCL-ENT  6222--CALL
JDCB$
      6090**DCL      6008--IMP-PTR  6107<<ASSIGN   6108>>ASSIGN   6125>>IF       6125>>IF       6135>>IF
      6193>>ASSIGN   6210>>ASSIGN   6211>>CALL     6211>>CALL     6224>>ASSIGN   6250>>IF       6252>>IF
PL6.E3A0      #004=KIS$OSI_READ File=KIS$OSI.:E05TSI                             WED 07/30/97 00:41 Page:167
      6262>>ASSIGN   6274>>IF       6275>>ASSIGN   6277>>IF       6278>>ASSIGN   6280>>ASSIGN   6281>>ASSIGN
      6281>>ASSIGN   6347<<ASSIGN   6348>>ASSIGN   6349>>ASSIGN
K$RWPARM
      3357**DCL      6128<<ASSIGN   6131<>CALL     6134<<ASSIGN   6198<>CALL     6254<<ASSIGN   6257<>CALL
      6288<>CALL     6361<<ASSIGN   6366<>CALL     6385<<ASSIGN   6388<>CALL
K$RWPARM.BLKREC
      3383**DCL      3408--REDEF
K$RWPARM.BLKREC.BLKU#
      3384**DCL      3386--REDEF
K$RWPARM.BLKREC.RECU#
      3396**DCL      3398--REDEF
K$RWPARM.DVE.DVBYTE.VFC
      3423**DCL      3424--REDEF
K$RWPARM.DVE.EOMCHAR
      3431**DCL      3435--REDEF
K$RWPARM.ERR
      3495**DCL      3500--REDEF    6151>>IF       6291>>IF       6295>>IF       6368>>IF
K$RWPARM.FC
      3459**DCL      3460--REDEF
K$RWPARM.FLDID
      3641**DCL      3642--REDEF
K$RWPARM.FPT$
      3522**DCL      3529--REDEF
K$RWPARM.FUNCTION
      3536**DCL      6197<<ASSIGN   6284<<ASSIGN   6362<<ASSIGN
K$RWPARM.IP$
      3487**DCL      6163<<ASSIGN   6165>>IF       6177>>ASSIGN   6177>>ASSIGN   6178>>ASSIGN
K$RWPARM.KEYTYPE
      3648**DCL      3649--REDEF
K$RWPARM.LDCT$
      3518**DCL      6196<<ASSIGN
K$RWPARM.MSG$
      3358**DCL      3364--REDEF    6095--IMP-PTR  6177<<ASSIGN   6187>>IF       6191>>ASSIGN
K$RWPARM.MSGID
      3470**DCL      3475--REDEF
K$RWPARM.MSGIDXT
PL6.E3A0      #004=KIS$OSI_READ File=KIS$OSI.:E05TSI                             WED 07/30/97 00:41 Page:168
      3483**DCL      3487--REDEF
K$RWPARM.MSGSZ
      3365**DCL      6095--IMP-SIZ  6178<<ASSIGN   6182>>IF       6185<<ASSIGN   6191>>ASSIGN   6193>>ASSIGN
K$RWPARM.MSG_ERRCODE
      3618**DCL      6129<<ASSIGN   6195>>ASSIGN   6255<<ASSIGN   6296>>ASSIGN   6386<<ASSIGN
K$RWPARM.ORG
      3619**DCL      3620--REDEF
K$RWPARM.SSN_CRDT
      3567**DCL      6285<<ASSIGN   6363<<ASSIGN
K$RWPARM.STR
      3634**DCL      6218>>ASSIGN
K$RWPARM.TCTX#
      3593**DCL      6286<<ASSIGN   6364<<ASSIGN
K$RWPARM.THDRSZ
      3563**DCL      3567--REDEF
K$RWPARM.TYC
      3379**DCL      6130<<ASSIGN   6179<<ASSIGN   6184<<ASSIGN   6256<<ASSIGN   6387<<ASSIGN
K$RWPARM.VDOFLGS
      3621**DCL      3632--REDEF
KI$QMHDR.FPTSZ
      2109**DCL      2110--REDEF
KI$QMHDR.MSGSZ
      2115**DCL      2116--REDEF
KI$QMHDR.OFFSET
      2103**DCL      6177>>ASSIGN
KI$QMHDR.SIZE
      2104**DCL      6178>>ASSIGN
KI$QMHDR.UID
      2105**DCL      2106--REDEF
KIA$COMP
      6062**DCL-ENT  6131--CALL     6257--CALL     6388--CALL
KIA$OQFL
      6063**DCL-ENT  6292--CALL     6369--CALL
KIQ$MAPFEP
      6064**DCL-ENT  6176--CALL
KIS_MAJOR$
PL6.E3A0      #004=KIS$OSI_READ File=KIS$OSI.:E05TSI                             WED 07/30/97 00:41 Page:169
      6074**DCL      6234>>ASSIGN   6351>>ASSIGN
KIS_MINOR$
      6075**DCL      6236>>ASSIGN   6353>>ASSIGN
KIS_SSN_MAXMAJOR
      6076**DCL      6225>>IF
KIT$SEND
      6065**DCL-ENT  6198--CALL     6288--CALL     6366--CALL
K_RWPARM_CON
      3040**DCL      6128>>ASSIGN   6134>>ASSIGN   6254>>ASSIGN   6361>>ASSIGN   6385>>ASSIGN
K_RWPARM_CON.BLKREC
      3066**DCL      3091--REDEF
K_RWPARM_CON.BLKREC.BLKU#
      3067**DCL      3069--REDEF
K_RWPARM_CON.BLKREC.RECU#
      3079**DCL      3081--REDEF
K_RWPARM_CON.DVE.DVBYTE.VFC
      3106**DCL      3107--REDEF
K_RWPARM_CON.DVE.EOMCHAR
      3114**DCL      3118--REDEF
K_RWPARM_CON.ERR
      3178**DCL      3183--REDEF
K_RWPARM_CON.FC
      3142**DCL      3143--REDEF
K_RWPARM_CON.FLDID
      3324**DCL      3325--REDEF
K_RWPARM_CON.FPT$
      3205**DCL      3212--REDEF
K_RWPARM_CON.KEYTYPE
      3331**DCL      3332--REDEF
K_RWPARM_CON.MSG$
      3041**DCL      3047--REDEF
K_RWPARM_CON.MSGID
      3153**DCL      3158--REDEF
K_RWPARM_CON.MSGIDXT
      3166**DCL      3170--REDEF
K_RWPARM_CON.ORG
PL6.E3A0      #004=KIS$OSI_READ File=KIS$OSI.:E05TSI                             WED 07/30/97 00:41 Page:170
      3302**DCL      3303--REDEF
K_RWPARM_CON.THDRSZ
      3246**DCL      3250--REDEF
K_RWPARM_CON.VDOFLGS
      3304**DCL      3315--REDEF
LDCT$
      6091**DCL      4402--IMP-PTR  6108<<ASSIGN   6111>>IF       6122>>CALL     6127>>DOWHILE  6131>>CALL
      6138>>CALL     6142>>CALL     6144>>IF       6148>>CALL     6160>>CALL     6163>>ASSIGN   6164>>ASSIGN
      6167>>CALL     6176>>CALL     6196>>ASSIGN   6200>>CALL     6206>>CALL     6246>>CALL     6248>>IF
      6250>>IF       6257>>CALL     6261>>ASSIGN   6264>>ASSIGN   6292>>CALL     6308>>CALL     6317>>CALL
      6348<<ASSIGN   6355>>CALL     6357>>IF       6369>>CALL     6374>>ASSIGN   6376>>CALL     6378>>CALL
      6380>>IF       6383>>DOWHILE  6388>>CALL     6392>>CALL
LEN
      6092**DCL      6079--IMP-SIZ  6181<>CALL     6182>>IF       6185>>ASSIGN   6191>>ASSIGN
MAJOR$
      6093**DCL      6234<<ASSIGN   6235>>IF       6236>>ASSIGN   6351<<ASSIGN   6352>>IF       6353>>ASSIGN
MESSAGE
      6095**DCL      6191>>ASSIGN
MINOR$
      6094**DCL      6233<<ASSIGN   6236<<ASSIGN   6237>>IF       6282>>IF       6286>>ASSIGN   6350<<ASSIGN
      6353<<ASSIGN   6359>>IF       6359>>IF       6364>>ASSIGN
MMS$SETUP_BUF
      6066**DCL-ENT  6211--CALL
N$DCT$$
      4260**DCL      4260--IMP-PTR  6108>>ASSIGN   6348>>ASSIGN
NI_MFGATE
      6077**DCL      6267<>CALL     6272<>CALL
NK$LDCT
      4402**DCL      6131<>CALL     6138<>CALL     6257<>CALL     6292<>CALL     6369<>CALL     6376<>CALL
      6388<>CALL
NK$LDCT.DDT$
      4404**DCL      4404--REDEF
NK$LDCT.DFLG.OLDSC
      4407**DCL      6111>>IF
NK$LDCT.IOQ$
      4403**DCL      4404--REDEF
PL6.E3A0      #004=KIS$OSI_READ File=KIS$OSI.:E05TSI                             WED 07/30/97 00:41 Page:171
NK$LDCT.IP$
      4424**DCL      6144>>IF       6163>>ASSIGN   6164<<ASSIGN
NK$LDCT.IPFEI#
      4425**DCL      6176<>CALL
NK$LDCT.LDCTX
      4405**DCL      4405--REDEF
NK$LDCT.LKFLG.ABORTED
      4417**DCL      4418--REDEF
NK$LDCT.LKFLG.NOWAIT
      4423**DCL      6127>>DOWHILE  6248>>IF       6264<<ASSIGN   6357>>IF       6383>>DOWHILE
NK$LDCT.LKFLG.WTMRK
      4418**DCL      6374<<ASSIGN   6380>>IF
NK$LDCT.LOCK
      4430**DCL      6122<>CALL     6142<>CALL     6148<>CALL     6160<>CALL     6167<>CALL     6200<>CALL
      6206<>CALL     6246<>CALL     6308<>CALL     6317<>CALL     6355<>CALL     6378<>CALL     6392<>CALL
NK$LDCT.NOWAIT
      4413**DCL      6250>>IF       6261<<ASSIGN
NK$LDCT.RLCID.LDCTX
      4427**DCL      4427--REDEF
NK$LDCT.STA$
      4423**DCL      4424--REDEF
NK$LDCT.SYMB$
      4402**DCL      4402--REDEF    4402--REDEF    4403--REDEF
NK$LDCT$
      4260**DCL      6108>>ASSIGN   6348>>ASSIGN
NOWAIT
      6096**DCL      6250>>IF       6261>>ASSIGN
NOWAIT.DCB#
      6100**DCL      6217<<ASSIGN
NOWAIT.DMN
      6098**DCL      6220<<ASSIGN
NOWAIT.STREAM
      6099**DCL      6218<<ASSIGN
PTW
      6102**DCL      6211<>CALL
PTW.PP
PL6.E3A0      #004=KIS$OSI_READ File=KIS$OSI.:E05TSI                             WED 07/30/97 00:41 Page:172
      6103**DCL      6213>>ASSIGN   6214>>ASSIGN
R$
      6104**DCL      6211<>CALL     6212>>ASSIGN
READ_IT
      6163**LABEL    6145--GOTO
S$CU$
       258**DCL      6269>>ASSIGN   6269>>ASSIGN   6270>>ASSIGN   6270>>ASSIGN
SCID
      6105**DCL      6224<<ASSIGN   6225>>IF       6234>>ASSIGN   6349<<ASSIGN   6351>>ASSIGN
SC_PRTCL_SNAP
      6068**DCL-ENT  6118--CALL     6150--CALL     6302--CALL
SNAP
      6118**LABEL    6173--GOTO     6231--GOTO     6292--CALLALT  6369--CALLALT  6372--GOTO
SSR$REG
      6067**DCL-ENT  6138--CALL     6376--CALL
TRUNCLOOP
      6376**LABEL    6381--GOTO
TRYSEND
      6288**LABEL    6293--GOTO
TRYTRUNC
      6366**LABEL    6370--GOTO

