PL6.E3A0      #005=KIS$OSI_ATTACH File=KIS$OSI.:E05TSI                           WED 07/30/97 00:42 Page:173
     1044        1        /*T***********************************************************/
     1045        2        /*T*                                                         */
     1046        3        /*T* Copyright (c) Bull HN Information Systems Inc., 1997    */
     1047        4        /*T*                                                         */
     1048        5        /*T***********************************************************/
     1049        6        /*F*    NAME:   KIS$OSI_ATTACH
     1050        7                PURPOSE:  Handle M$ATTACH of monitor terminal station to server CG.
     1051        8        */
     1052        9        /*D*    NAME:   KIS$OSI_ATTACH
     1053       10                CALL:   CALL KIS$OSI_ATTACH ALTRET( label);
     1054       11                INPUT:
     1055       12                    B$JIT.DCB$ - CG AU DCB already open to the server comgroup,
     1056       13                    B$JIT.DCB$->F$DCB.NAME is the SSAP (name) of the application,
     1057       14                    B$JIT.DCB$->F$DCB.ACCT to make sure CG is in system account.
     1058       15                    B$PS1$ points at the TSAP area of the ATTACH FPT.
     1059       16                    This code reached by KCP$PMMES which has already performed some
     1060       17                    validation.
     1061       18                OUTPUT:
     1062       19                    On successfull call,
     1063       20                      A major server slot is allocated and initialized,
     1064       21                      An NK_OSISTA LDCT is allocated and initialized,
     1065       22                      A monitor terminal station is connected to the server CG,
     1066       23                      A read is issued to the CG (which will be left pending),
     1067       24                      B$JIT.DCB$->F$DCB.DVFC set to major SCID for this application.
     1068       25                    On unsuccessfull call,
     1069       26                      B$JIT.ERR is filled in with an appropriate error,
     1070       27                      ALTRETURN is taken.
     1071       28                DESCRIPTION:
     1072       29                    KIS$OSI_ATTACH is called when an OSI server application decides
     1073       30                    to allow incoming connections from OSI clients.  It is entered
     1074       31                    from KCP$PMMES when the server issues an M$ATTACH.
     1075       32
     1076       33                    By the time this code is reached, KCP has determined that the
     1077       34                    DCB is open as AU to a comgroup.  We have to do more validation
     1078       35                    here before proceeding.  The CG file name is taken to be the
     1079       36                    SSAP of the application, so must fit the ISO rules for length of
     1080       37                    an SSAP.  The CG account must be the system-specified account.
PL6.E3A0      #005=KIS$OSI_ATTACH File=KIS$OSI.:E05TSI                           WED 07/30/97 00:42 Page:174
     1081       38
     1082       39                    A monitor terminal station is connected to the server comgroup
     1083       40                    with KCO$TRMCON.  Then KQG$GET is called to issue a get to the
     1084       41                    comgroup.  Since there are no messages for the monitor station
     1085       42                    yet, the get will be left pending within CG code.  Eventually
     1086       43                    the server will write a message into the comgroup aimed at the
     1087       44                    monitor terminal station, which will make KCO$GOTMSG call
     1088       45                    KCD$WRITE which calls KIS$OSI_SEND which will write the message
     1089       46                    into the network and reissue the get (or words to that effect).
     1090       47
     1091       48                    The major SCID for this application is stored in F$DCB.DVFC.
     1092       49
     1093       50                    The TSAP of the server is saved for use of incoming connects.
     1094       51                    This means that any client attempting to call the server must
     1095       52                    know its TSAP.  A Directory Service handles details like this.
     1096       53        */
     1097       54        KIS$OSI_ATTACH: PROC ALTRET;
     1098       55        %INCLUDE B$JIT_C;
     1099      369            %B$JIT0;
     1100      458            %U$JIT1X;
     1101      461            %M$JIT2X;
     1102      464            %F$JIT3;
     1103      469            %S$JIT4X;
     1104      472            %J$JIT5;
     1105      560            %A$JIT6X;
     1106      563        %INCLUDE CP_6_SUBS;
     1107     1103        %INCLUDE HF_LOCK_C;
     1108     1117        %INCLUDE KC_CP6;
     1109     1677            %B$CGAUCI( FPTN=KIS_OSITRM, STCLASS=CONSTANT,
     1110     1678                       INFOSZ=0, NM='MONITOR', AC=':OSICG');
     1111     1700            %B$CGAUCI( STCLASS=AUTO);
     1112     1722            %VLP_TSAP( FPTN=TSAP, STCLASS="BASED( B$PS1$)");
     1113     1749        %INCLUDE KC$CGBLK;
     1114     1797            %KC$CGID( STCLASS=AUTO);
     1115     1823        %INCLUDE K_ADDRESS_M;
     1116     2326        %INCLUDE KI_ERRORS_C;
     1117     2411        %INCLUDE K_SESSION_M;
PL6.E3A0      #005=KIS$OSI_ATTACH File=KIS$OSI.:E05TSI                           WED 07/30/97 00:42 Page:175
     1118     2501            %KIS$APPL( NAME=APPL, STCLASS=BASED);
     1119     2570        %INCLUDE K$RWPARM;
     1120     2956            %K$RWPARM( NAME=K$RWPARM, STCLASS=AUTO);
     1121     3272            %K$RWPARM( NAME=K_RWPARM_CON, STCLASS="SYMREF READONLY");
     1122     3588        %INCLUDE NK_SUBS;
     1123     3613        %INCLUDE NK$LDCT;
     1124     3715            %NK$LDCT( STCLASS="BASED( LDCT$)");
     1125     3761        %INCLUDE UM_CP6;
     1126     4613        %MACRO ERRCODE( NAME=ERRDUMMY, CODE=0);
     1127     4614            %VLP_ERRCODE( FPTN=NAME, STCLASS=CONSTANT, FCG='KI', MID='S',
     1128     4615                          MON='1'B, ERR#=CODE, SEV=7);
     1129     4616        %MEND;
     1130     4617            %ERRCODE( NAME=ERRBADOSIACCT, CODE=%E$BADOSIACCT);
     1131     4665            %ERRCODE( NAME=ERRDUMMY, CODE=0);
     1132     4713            %ERRCODE( NAME=ERRMAJORTBL, CODE=%E$MAJORTBL);
     1133     4761            %ERRCODE( NAME=ERROSIGET, CODE=%E$OSIGETERR);
     1134     4809            %ERRCODE( NAME=ERROSINOLDCT, CODE=%E$OSINOLDCT);
     1135     4857            %ERRCODE( NAME=ERRSRVRNAME, CODE=%E$SRVRNAME);
     1136     4905        %MACRO F$DCBI( BASED=BASED);
     1137     4906        %INCLUDE F$DCB;
     1138     4955        %MEND;
     1139     4956            %F$DCBI( BASED="BASED( JDCB$)");
     1140     5006
     1141     5007    1       DCL KCO$TRMCON ENTRY(4) ALTRET;
     1142     5008    1       DCL KCO$TRMGO ENTRY(1) ALTRET;
     1143     5009    1       DCL KQG$GET ENTRY(2) ALTRET;
     1144     5010    1       DCL NKL$GETDCT ENTRY(1) ALTRET;
     1145     5011    1       DCL SSS$BLOCK ENTRY;
     1146     5012    1       DCL SC_PRTCL_SNAP ENTRY CONV(2,0);
     1147     5013
     1148     5014    1       DCL B$JIT$ PTR SYMREF;
     1149     5015    1       DCL B$PS1$ PTR SYMREF;  /* points at TSAP area of M$ATTACH fpt */
     1150     5016    1       DCL KIS_MAJOR$ PTR SYMREF;
     1151     5017    1       DCL KIS_OSILOCK BIT(72) SYMREF;
     1152     5018
     1153     5019    1       DCL CONERR UBIN;
     1154     5020    1       DCL JDCB$ PTR;
PL6.E3A0      #005=KIS$OSI_ATTACH File=KIS$OSI.:E05TSI                           WED 07/30/97 00:42 Page:176
     1155     5021    1       DCL LDCT$ PTR;
     1156     5022    1       DCL MAJOR$ PTR;
     1157     5023    1       DCL OSIACCT CHAR(8) CONSTANT INIT( ':OSICG  ');
     1158     5024    1       DCL SCID SBIN;
     1159     5025
     1160     5026    1       JDCB$ = B$JIT.DCB$;
     1161     5027            /* check SSAP for conformance to ISO rules */
     1162     5028    2       IF F$DCB.NAME.L = 0 OR F$DCB.NAME.L > 16 THEN DO;
     1163     5029                /* unreasonable length for a server application name to be */
     1164     5030    2           B$JIT.ERR = ERRSRVRNAME;
     1165     5031                /*E*  ERROR:  KIS-E$SRVRNAME-A
     1166     5032                    MESSAGE:  Server name must be from 1 to 16 characters long.
     1167     5033                */
     1168     5034    2           ALTRETURN;
     1169     5035    2           END;
     1170     5036    2       IF F$DCB.ACCT ~= OSIACCT THEN DO;
     1171     5037                /* server application CGs have to be in a special account */
     1172     5038    2           B$JIT.ERR = ERRBADOSIACCT;
     1173     5039                /*E*  ERROR:  KIS-E$BADOSIACCT-A
     1174     5040                    MESSAGE:  Server comgroup must reside in account :OSICG.
     1175     5041                */
     1176     5042    2           ALTRETURN;
     1177     5043    2           END;
     1178     5044    1       CALL SSS$BLOCK;  /* to master so LOCK/UNLOCK on same CPU (cf. KCO) */
     1179     5045            %LOCK( G=KIS_OSILOCK);
     1180     5048            /* allocate a major server slot */
     1181     5049    2       IF KIS_MAJOR$->APPL.SRVRHD ~= 0 THEN DO;
     1182     5050    2           SCID = KIS_MAJOR$->APPL.SRVRHD;
     1183     5051    2           MAJOR$ = PINCRW( KIS_MAJOR$, SCID);
     1184     5052    2           KIS_MAJOR$->APPL.SRVRHD = MAJOR$->APPL.Z.LINK;
     1185     5053    2           END;
     1186     5054    2       ELSE DO;
     1187     5055                /* no appl slots available */
     1188     5056                %UNLOCK( G=KIS_OSILOCK);
     1189     5059    2           B$JIT.ERR = ERRMAJORTBL;
     1190     5060                /*    ERROR:  KIS-E$MAJORTBL-A
     1191     5061                    MESSAGE:  No more space in the 'major' Session connection table.
PL6.E3A0      #005=KIS$OSI_ATTACH File=KIS$OSI.:E05TSI                           WED 07/30/97 00:42 Page:177
     1192     5062                */
     1193     5063    2           ALTRETURN;
     1194     5064    2           END;
     1195     5065            /* allocate an LDCT for the monitor terminal station */
     1196     5066    1       CALL NKL$GETDCT( LDCT$)
     1197     5067    2       WHENALTRETURN DO;
     1198     5068                /* no workee */
     1199     5069                /* free the major server slot */
     1200     5070    2           MAJOR$->APPL.Z.LINK = KIS_MAJOR$->APPL.SRVRHD;
     1201     5071    2           KIS_MAJOR$->APPL.SRVRHD = SCID;
     1202     5072                %UNLOCK( G=KIS_OSILOCK);
     1203     5075    2           B$JIT.ERR = ERROSINOLDCT;
     1204     5076                /*    ERROR:  KIS-E$OSINOLDCT-A
     1205     5077                    MESSAGE:  No more system LDCTs are available.
     1206     5078                */
     1207     5079    2           ALTRETURN;
     1208     5080    2           END;
     1209     5081            /* fill in the LDCT */
     1210     5082    1       NK$LDCT.DEVNM = 'MONITOR ';
     1211     5083            /* fill in the KC$CGID structure for connecting the station */
     1212     5084    1       KC$CGID.ACCT# = OSIACCT;
     1213     5085    1       KC$CGID.PSN# = ' ';
     1214     5086    1       KC$CGID.NAME#.CNT = F$DCB.NAME.L;
     1215     5087    1       KC$CGID.NAME#.TXT = F$DCB.NAME.C;
     1216     5088            /* try to connect the monitor terminal station */
     1217     5089    1       B$CGAUCI = KIS_OSITRM;
     1218     5090    1       CALL KCO$TRMCON( LDCT$, KC$CGID, B$CGAUCI, CONERR)
     1219     5091    2       WHENALTRETURN DO;
     1220     5092                /* unable to connect monitor terminal station to server CG */
     1221     5093                %UNLOCK( G=KIS_OSILOCK);
     1222     5096    2           B$JIT.ERR = ERRDUMMY;
     1223     5097    2           B$JIT.ERR.CODE = CONERR;
     1224     5098                /*E*  ERROR:  KIS-E$NOCG-A
     1225     5099                    MESSAGE:  Internal error.  Server comgroup does not exist.
     1226     5100                */
     1227     5101                /*E*  ERROR:  KIS-E$DUPNM-A
     1228     5102                    MESSAGE:  Internal error.  Station name in use.
PL6.E3A0      #005=KIS$OSI_ATTACH File=KIS$OSI.:E05TSI                           WED 07/30/97 00:42 Page:178
     1229     5103                */
     1230     5104                /*E*  ERROR:  KIS-E$STAILLGL-A
     1231     5105                    MESSAGE:  Internal error.  Station name illegal.
     1232     5106                */
     1233     5107                /*E*  ERROR:  KIS-E$CGCXT-A
     1234     5108                    MESSAGE:  Internal error.  No room in comgroup to connect station.
     1235     5109                */
     1236     5110                /*E*  ERROR:  KIS-E$NTRMSTA-A
     1237     5111                    MESSAGE:  Internal error.  Station name illegal for terminal.
     1238     5112                */
     1239     5113                /*E*  ERROR:  KIS-E$STABAD-A
     1240     5114                    MESSAGE:  Internal error.  Station name has illegal characters.
     1241     5115                */
     1242     5116    2   SNAP:
     1243     5117    2           CALL SC_PRTCL_SNAP;
     1244     5118    2           ALTRETURN;
     1245     5119    2           END;
     1246     5120            /* the monitor terminal station has been connected */
     1247     5121            /* fill in more of the LDCT */
     1248     5122    1       NK$LDCT.RESCOD = %NK_OSISTA;
     1249     5123    1       NK$LDCT.USER = B$JIT.USER;
     1250     5124    1       NK$LDCT.JLNKCNT = B$JIT.LNKCNT;
     1251     5125    1       NK$LDCT.TH.STR = SCID;
     1252     5126    1       NK$LDCT.LKFLG.ACTIVE = '1'B;
     1253     5127    1       NK$LDCT.LKFLG.OBLK = '0'B;
     1254     5128    1       NK$LDCT.DFLG.INPUT = '1'B;
     1255     5129    1       NK$LDCT.DFLG.OUTPUT = '1'B;
     1256     5130    1       NK$LDCT.RLCID.LDCTXB = '777777'O;  /* so we can de-activate later */
     1257     5131            /* finish init of monitor terminal station */
     1258     5132    1       CALL KCO$TRMGO( LDCT$);
     1259     5133            /* fill in the major server slot */
     1260     5134    1       MAJOR$->APPL.LDCTX = NK$LDCT.LDCTX;
     1261     5135    1       MAJOR$->APPL.Z.LINK = 0;
     1262     5136    1       MAJOR$->APPL.Z.USER = B$JIT.USER;
     1263     5137    1       MAJOR$->APPL.TSAP = TSAP;
     1264     5138    1       MAJOR$->APPL.AUDCT = F$DCB.LDCTX;
     1265     5139            %UNLOCK( G=KIS_OSILOCK);
PL6.E3A0      #005=KIS$OSI_ATTACH File=KIS$OSI.:E05TSI                           WED 07/30/97 00:42 Page:179
     1266     5142            /* fill in the major SCID */
     1267     5143    1       F$DCB.DVFC = BINASC( SCID);
     1268     5144            /* now issue a get to the comgroup */
     1269     5145    1       K$RWPARM = K_RWPARM_CON;
     1270     5146    1       CALL KQG$GET( NK$LDCT, K$RWPARM)
     1271     5147    2       WHENALTRETURN DO;
     1272     5148                /* this isn't supposed to happen */
     1273     5149    2           B$JIT.ERR = ERROSIGET;
     1274     5150                /*E*  ERROR:  KIS-E$OSIGETERR-A
     1275     5151                    MESSAGE:  Internal error.  GET failed.
     1276     5152                */
     1277     5153    2           GOTO SNAP;
     1278     5154    2           END;
     1279     5155            /* otherwise, the get has been left pending and KIS$OSI_SEND
     1280     5156               will be entered later from KCO/KCD when the get is satisfied. */
     1281     5157    1       RETURN;
     1282     5158
     1283     5159    1       END KIS$OSI_ATTACH;
     1284     5160        %EOD;

PL6.E3A0      #005=KIS$OSI_ATTACH File=KIS$OSI.:E05TSI                           WED 07/30/97 00:42 Page:180
--  Include file information  --

   F$DCB.:E05TOU  is referenced.
   UM_CP6.:E05TOU  is referenced.
   NK$LDCT.:E05TOU  is referenced.
   NK_SUBS.:E05TOU  is referenced.
   K$RWPARM.:E05TOU  is referenced.
   K_SESSION_M.:E05TOU  is referenced.
   KI_ERRORS_C.:E05TOU  is referenced.
   K_ADDRESS_M.:E05TOU  is referenced.
   KC$CGBLK.:E05TOU  is referenced.
   KC_CP6.:E05TOU  is referenced.
   HF_LOCK_C.:E05TOU  cannot be made into a system file and is referenced.
   CP_6_SUBS.:E05TOU  is referenced.
   B$JIT_C.:E05TOU  is referenced.
      No diagnostics issued in procedure KIS$OSI_ATTACH.

   Procedure KIS$OSI_ATTACH requires 208 words for executable code.
   Procedure KIS$OSI_ATTACH requires 74 words of local(AUTO) storage.

PL6.E3A0      #005=KIS$OSI_ATTACH File=KIS$OSI.:E05TSI                           WED 07/30/97 00:42 Page:181

 Object Unit name= KIS$OSI_ATTACH                             File name= KIS$OSI.:E05TOU
 UTS= JUL 30 '97 00:42:56.88 WED                              Compiler= PL-6/E31         Sev=      00
 SharedLib= :SHARED_SYSTEM                                    Alt SharedLib=


    ****  Control sections  ****

 Sect   Type Bound  Init  Size OctSiz  Section name(segment info)
    0  RoData even  UTS     19     23  KIS$OSI_ATTACH
    1   Proc  even  none   208    320  KIS$OSI_ATTACH
    2  RoData even  none     4      4  KIS$OSI_ATTACH

    ****  Entry defs  ****

                              Check   Calling
                             calling  sequence
  Sect OctLoc Primary Altret sequence   type   Parms  Name
     1      0   yes    yes     yes      Std        0  KIS$OSI_ATTACH

  ****  Entry refs  ****

         Check        Calling
        calling       sequence
Altret sequence SRef   type   Args  Name
         yes           Std       0 SSS$BLOCK
         yes           Std       1 HFC$LOCK
         yes           Std       1 HFC$UNLOCK
 yes     yes           Std       2 KQG$GET
 yes     yes           Std       1 NKL$GETDCT
 yes     yes           Std       4 KCO$TRMCON
 yes     yes           Std       1 KCO$TRMGO
                       nStd      0 X66_AUTO_0
                       nStd      0 X66_AALT
                       Std       0 B_CONSPOOL_D
                       nStd      0 X66_ARET
PL6.E3A0      #005=KIS$OSI_ATTACH File=KIS$OSI.:E05TSI                           WED 07/30/97 00:42 Page:182

  ****  Data refs  ****

  Flags:  r = read only, s = secondary
Flgs Name                             Flgs Name                             Flgs Name
     SC_PRTCL_SNAP                    r    K_RWPARM_CON                          B$JIT$
     B$PS1$                                KIS_MAJOR$                            KIS_OSILOCK
     B_VECTNIL

  ****  Segment refs  ****

  Flags:  r = read only, s = secondary
Flgs Name                             Flgs Name                             Flgs Name
     ASLENTSID                             ISSID
PL6.E3A0      #005=KIS$OSI_ATTACH File=KIS$OSI.:E05TSI                           WED 07/30/97 00:42 Page:183


     1044        1        /*T***********************************************************/
     1045        2        /*T*                                                         */
     1046        3        /*T* Copyright (c) Bull HN Information Systems Inc., 1997    */
     1047        4        /*T*                                                         */
     1048        5        /*T***********************************************************/
     1049        6        /*F*    NAME:   KIS$OSI_ATTACH
     1050        7                PURPOSE:  Handle M$ATTACH of monitor terminal station to server CG.
     1051        8        */
     1052        9        /*D*    NAME:   KIS$OSI_ATTACH
     1053       10                CALL:   CALL KIS$OSI_ATTACH ALTRET( label);
     1054       11                INPUT:
     1055       12                    B$JIT.DCB$ - CG AU DCB already open to the server comgroup,
     1056       13                    B$JIT.DCB$->F$DCB.NAME is the SSAP (name) of the application,
     1057       14                    B$JIT.DCB$->F$DCB.ACCT to make sure CG is in system account.
     1058       15                    B$PS1$ points at the TSAP area of the ATTACH FPT.
     1059       16                    This code reached by KCP$PMMES which has already performed some
     1060       17                    validation.
     1061       18                OUTPUT:
     1062       19                    On successfull call,
     1063       20                      A major server slot is allocated and initialized,
     1064       21                      An NK_OSISTA LDCT is allocated and initialized,
     1065       22                      A monitor terminal station is connected to the server CG,
     1066       23                      A read is issued to the CG (which will be left pending),
     1067       24                      B$JIT.DCB$->F$DCB.DVFC set to major SCID for this application.
     1068       25                    On unsuccessfull call,
     1069       26                      B$JIT.ERR is filled in with an appropriate error,
     1070       27                      ALTRETURN is taken.
     1071       28                DESCRIPTION:
     1072       29                    KIS$OSI_ATTACH is called when an OSI server application decides
     1073       30                    to allow incoming connections from OSI clients.  It is entered
     1074       31                    from KCP$PMMES when the server issues an M$ATTACH.
     1075       32
     1076       33                    By the time this code is reached, KCP has determined that the
     1077       34                    DCB is open as AU to a comgroup.  We have to do more validation
     1078       35                    here before proceeding.  The CG file name is taken to be the
     1079       36                    SSAP of the application, so must fit the ISO rules for length of
PL6.E3A0      #005=KIS$OSI_ATTACH File=KIS$OSI.:E05TSI                           WED 07/30/97 00:42 Page:184
     1080       37                    an SSAP.  The CG account must be the system-specified account.
     1081       38
     1082       39                    A monitor terminal station is connected to the server comgroup
     1083       40                    with KCO$TRMCON.  Then KQG$GET is called to issue a get to the
     1084       41                    comgroup.  Since there are no messages for the monitor station
     1085       42                    yet, the get will be left pending within CG code.  Eventually
     1086       43                    the server will write a message into the comgroup aimed at the
     1087       44                    monitor terminal station, which will make KCO$GOTMSG call
     1088       45                    KCD$WRITE which calls KIS$OSI_SEND which will write the message
     1089       46                    into the network and reissue the get (or words to that effect).
     1090       47
     1091       48                    The major SCID for this application is stored in F$DCB.DVFC.
     1092       49
     1093       50                    The TSAP of the server is saved for use of incoming connects.
     1094       51                    This means that any client attempting to call the server must
     1095       52                    know its TSAP.  A Directory Service handles details like this.
     1096       53        */
     1097       54        KIS$OSI_ATTACH: PROC ALTRET;

     54  1 000000   000000 700200 xent  KIS$OSI_ATT* TSX0  ! X66_AUTO_0
         1 000001   000112 000000                    ZERO    74,0

     1098       55        %INCLUDE B$JIT_C;
     1099      369            %B$JIT0;
     1100      458            %U$JIT1X;
     1101      461            %M$JIT2X;
     1102      464            %F$JIT3;
     1103      469            %S$JIT4X;
     1104      472            %J$JIT5;
     1105      560            %A$JIT6X;
     1106      563        %INCLUDE CP_6_SUBS;
     1107     1103        %INCLUDE HF_LOCK_C;
     1108     1117        %INCLUDE KC_CP6;
     1109     1677            %B$CGAUCI( FPTN=KIS_OSITRM, STCLASS=CONSTANT,
     1110     1678                       INFOSZ=0, NM='MONITOR', AC=':OSICG');
     1111     1700            %B$CGAUCI( STCLASS=AUTO);
     1112     1722            %VLP_TSAP( FPTN=TSAP, STCLASS="BASED( B$PS1$)");
PL6.E3A0      #005=KIS$OSI_ATTACH File=KIS$OSI.:E05TSI                           WED 07/30/97 00:42 Page:185
     1113     1749        %INCLUDE KC$CGBLK;
     1114     1797            %KC$CGID( STCLASS=AUTO);
     1115     1823        %INCLUDE K_ADDRESS_M;
     1116     2326        %INCLUDE KI_ERRORS_C;
     1117     2411        %INCLUDE K_SESSION_M;
     1118     2501            %KIS$APPL( NAME=APPL, STCLASS=BASED);
     1119     2570        %INCLUDE K$RWPARM;
     1120     2956            %K$RWPARM( NAME=K$RWPARM, STCLASS=AUTO);
     1121     3272            %K$RWPARM( NAME=K_RWPARM_CON, STCLASS="SYMREF READONLY");
     1122     3588        %INCLUDE NK_SUBS;
     1123     3613        %INCLUDE NK$LDCT;
     1124     3715            %NK$LDCT( STCLASS="BASED( LDCT$)");
     1125     3761        %INCLUDE UM_CP6;
     1126     4613        %MACRO ERRCODE( NAME=ERRDUMMY, CODE=0);
     1127     4614            %VLP_ERRCODE( FPTN=NAME, STCLASS=CONSTANT, FCG='KI', MID='S',
     1128     4615                          MON='1'B, ERR#=CODE, SEV=7);
     1129     4616        %MEND;
     1130     4617            %ERRCODE( NAME=ERRBADOSIACCT, CODE=%E$BADOSIACCT);
     1131     4665            %ERRCODE( NAME=ERRDUMMY, CODE=0);
     1132     4713            %ERRCODE( NAME=ERRMAJORTBL, CODE=%E$MAJORTBL);
     1133     4761            %ERRCODE( NAME=ERROSIGET, CODE=%E$OSIGETERR);
     1134     4809            %ERRCODE( NAME=ERROSINOLDCT, CODE=%E$OSINOLDCT);
     1135     4857            %ERRCODE( NAME=ERRSRVRNAME, CODE=%E$SRVRNAME);
     1136     4905        %MACRO F$DCBI( BASED=BASED);
     1137     4906        %INCLUDE F$DCB;
     1138     4955        %MEND;
     1139     4956            %F$DCBI( BASED="BASED( JDCB$)");
     1140     5006
     1141     5007    1       DCL KCO$TRMCON ENTRY(4) ALTRET;
     1142     5008    1       DCL KCO$TRMGO ENTRY(1) ALTRET;
     1143     5009    1       DCL KQG$GET ENTRY(2) ALTRET;
     1144     5010    1       DCL NKL$GETDCT ENTRY(1) ALTRET;
     1145     5011    1       DCL SSS$BLOCK ENTRY;
     1146     5012    1       DCL SC_PRTCL_SNAP ENTRY CONV(2,0);
     1147     5013
     1148     5014    1       DCL B$JIT$ PTR SYMREF;
     1149     5015    1       DCL B$PS1$ PTR SYMREF;  /* points at TSAP area of M$ATTACH fpt */
PL6.E3A0      #005=KIS$OSI_ATTACH File=KIS$OSI.:E05TSI                           WED 07/30/97 00:42 Page:186
     1150     5016    1       DCL KIS_MAJOR$ PTR SYMREF;
     1151     5017    1       DCL KIS_OSILOCK BIT(72) SYMREF;
     1152     5018
     1153     5019    1       DCL CONERR UBIN;
     1154     5020    1       DCL JDCB$ PTR;
     1155     5021    1       DCL LDCT$ PTR;
     1156     5022    1       DCL MAJOR$ PTR;
     1157     5023    1       DCL OSIACCT CHAR(8) CONSTANT INIT( ':OSICG  ');
     1158     5024    1       DCL SCID SBIN;
     1159     5025
     1160     5026    1       JDCB$ = B$JIT.DCB$;

   5026  1 000002   000000 470400 xsym               LDP0    B$JIT$
         1 000003   000232 236100                    LDQ     154,,PR0
         1 000004   200101 756100                    STQ     JDCB$,,AUTO

     1161     5027            /* check SSAP for conformance to ISO rules */
     1162     5028    2       IF F$DCB.NAME.L = 0 OR F$DCB.NAME.L > 16 THEN DO;

   5028  1 000005   200101 471500                    LDP1    JDCB$,,AUTO
         1 000006   100010 236100                    LDQ     8,,PR1
         1 000007   777000 316003                    CANQ    -512,DU
         1 000010   000015 600000 1                  TZE     s:5030
         1 000011   100010 236100                    LDQ     8,,PR1
         1 000012   777000 376003                    ANQ     -512,DU
         1 000013   021000 116003                    CMPQ    8704,DU
         1 000014   000020 602000 1                  TNC     s:5036

     1163     5029                /* unreasonable length for a server application name to be */
     1164     5030    2           B$JIT.ERR = ERRSRVRNAME;

   5030  1 000015   000016 236000 0                  LDQ     ERRSRVRNAME
         1 000016   000012 756100                    STQ     10,,PR0

     1165     5031                /*E*  ERROR:  KIS-E$SRVRNAME-A
     1166     5032                    MESSAGE:  Server name must be from 1 to 16 characters long.
     1167     5033                */
PL6.E3A0      #005=KIS$OSI_ATTACH File=KIS$OSI.:E05TSI                           WED 07/30/97 00:42 Page:187
     1168     5034    2           ALTRETURN;

   5034  1 000017   000000 702200 xent               TSX2  ! X66_AALT

     1169     5035    2           END;
     1170     5036    2       IF F$DCB.ACCT ~= OSIACCT THEN DO;

   5036  1 000020   040000 106500                    CMPC    fill='040'O
         1 000021   100020 000010                    ADSC9   16,,PR1                  cn=0,n=8
         1 000022   000017 000010 0                  ADSC9   OSIACCT                  cn=0,n=8
         1 000023   000027 600000 1                  TZE     s:5044

     1171     5037                /* server application CGs have to be in a special account */
     1172     5038    2           B$JIT.ERR = ERRBADOSIACCT;

   5038  1 000024   000011 236000 0                  LDQ     ERRBADOSIACCT
         1 000025   000012 756100                    STQ     10,,PR0

     1173     5039                /*E*  ERROR:  KIS-E$BADOSIACCT-A
     1174     5040                    MESSAGE:  Server comgroup must reside in account :OSICG.
     1175     5041                */
     1176     5042    2           ALTRETURN;

   5042  1 000026   000000 702200 xent               TSX2  ! X66_AALT

     1177     5043    2           END;
     1178     5044    1       CALL SSS$BLOCK;  /* to master so LOCK/UNLOCK on same CPU (cf. KCO) */

   5044  1 000027   000002 631400 xsym               EPPR1   B_VECTNIL+2
         1 000030   000000 701000 xent               TSX1    SSS$BLOCK
         1 000031   000000 011000                    NOP     0

     1179     5045            %LOCK( G=KIS_OSILOCK);

   5046  1 000032   000000 630400 2                  EPPR0   0
         1 000033   000017 631400 xsym               EPPR1   B_VECTNIL+15
         1 000034   000000 701000 xent               TSX1    HFC$LOCK
PL6.E3A0      #005=KIS$OSI_ATTACH File=KIS$OSI.:E05TSI                           WED 07/30/97 00:42 Page:188
         1 000035   000000 011000                    NOP     0

     1180     5048            /* allocate a major server slot */
     1181     5049    2       IF KIS_MAJOR$->APPL.SRVRHD ~= 0 THEN DO;

   5049  1 000036   000000 470400 xsym               LDP0    KIS_MAJOR$
         1 000037   000000 220100                    LDX0    0,,PR0
         1 000040   000054 600000 1                  TZE     s:5057

     1182     5050    2           SCID = KIS_MAJOR$->APPL.SRVRHD;

   5050  1 000041   000000 236100                    LDQ     0,,PR0
         1 000042   000022 772000                    QRL     18
         1 000043   200104 756100                    STQ     SCID,,AUTO

     1183     5051    2           MAJOR$ = PINCRW( KIS_MAJOR$, SCID);

   5051  1 000044   000022 736000                    QLS     18
         1 000045   000000 036000 xsym               ADLQ    KIS_MAJOR$
         1 000046   200103 756100                    STQ     MAJOR$,,AUTO

     1184     5052    2           KIS_MAJOR$->APPL.SRVRHD = MAJOR$->APPL.Z.LINK;

   5052  1 000047   200103 471500                    LDP1    MAJOR$,,AUTO
         1 000050   100000 721100                    LXL1    0,,PR1
         1 000051   000777 361003                    ANX1    511,DU
         1 000052   000000 741100                    STX1    0,,PR0

     1185     5053    2           END;

   5053  1 000053   000064 710000 1                  TRA     s:5066

     1186     5054    2       ELSE DO;

     1187     5055                /* no appl slots available */
     1188     5056                %UNLOCK( G=KIS_OSILOCK);

PL6.E3A0      #005=KIS$OSI_ATTACH File=KIS$OSI.:E05TSI                           WED 07/30/97 00:42 Page:189
   5057  1 000054   000000 630400 2                  EPPR0   0
         1 000055   000017 631400 xsym               EPPR1   B_VECTNIL+15
         1 000056   000000 701000 xent               TSX1    HFC$UNLOCK
         1 000057   000000 011000                    NOP     0

     1189     5059    2           B$JIT.ERR = ERRMAJORTBL;

   5059  1 000060   000013 236000 0                  LDQ     ERRMAJORTBL
         1 000061   000000 470400 xsym               LDP0    B$JIT$
         1 000062   000012 756100                    STQ     10,,PR0

     1190     5060                /*    ERROR:  KIS-E$MAJORTBL-A
     1191     5061                    MESSAGE:  No more space in the 'major' Session connection table.
     1192     5062                */
     1193     5063    2           ALTRETURN;

   5063  1 000063   000000 702200 xent               TSX2  ! X66_AALT

     1194     5064    2           END;
     1195     5065            /* allocate an LDCT for the monitor terminal station */
     1196     5066    1       CALL NKL$GETDCT( LDCT$)

   5066  1 000064   200102 630500                    EPPR0   LDCT$,,AUTO
         1 000065   200106 450500                    STP0    SCID+2,,AUTO
         1 000066   200106 630500                    EPPR0   SCID+2,,AUTO
         1 000067   000017 631400 xsym               EPPR1   B_VECTNIL+15
         1 000070   000000 701000 xent               TSX1    NKL$GETDCT
         1 000071   000073 702000 1                  TSX2    s:5070
         1 000072   000113 710000 1                  TRA     s:5082

     1197     5067    2       WHENALTRETURN DO;

     1198     5068                /* no workee */
     1199     5069                /* free the major server slot */
     1200     5070    2           MAJOR$->APPL.Z.LINK = KIS_MAJOR$->APPL.SRVRHD;

   5070  1 000073   200103 470500                    LDP0    MAJOR$,,AUTO
PL6.E3A0      #005=KIS$OSI_ATTACH File=KIS$OSI.:E05TSI                           WED 07/30/97 00:42 Page:190
         1 000074   000000 471400 xsym               LDP1    KIS_MAJOR$
         1 000075   100000 236100                    LDQ     0,,PR1
         1 000076   000022 772000                    QRL     18
         1 000077   000000 552104                    STBQ    0,'04'O,PR0

     1201     5071    2           KIS_MAJOR$->APPL.SRVRHD = SCID;

   5071  1 000100   200104 720100                    LXL0    SCID,,AUTO
         1 000101   000000 471400 xsym               LDP1    KIS_MAJOR$
         1 000102   100000 740100                    STX0    0,,PR1

     1202     5072                %UNLOCK( G=KIS_OSILOCK);

   5073  1 000103   000000 630400 2                  EPPR0   0
         1 000104   000017 631400 xsym               EPPR1   B_VECTNIL+15
         1 000105   000000 701000 xent               TSX1    HFC$UNLOCK
         1 000106   000000 011000                    NOP     0

     1203     5075    2           B$JIT.ERR = ERROSINOLDCT;

   5075  1 000107   000015 236000 0                  LDQ     ERROSINOLDCT
         1 000110   000000 470400 xsym               LDP0    B$JIT$
         1 000111   000012 756100                    STQ     10,,PR0

     1204     5076                /*    ERROR:  KIS-E$OSINOLDCT-A
     1205     5077                    MESSAGE:  No more system LDCTs are available.
     1206     5078                */
     1207     5079    2           ALTRETURN;

   5079  1 000112   000000 702200 xent               TSX2  ! X66_AALT

     1208     5080    2           END;
     1209     5081            /* fill in the LDCT */
     1210     5082    1       NK$LDCT.DEVNM = 'MONITOR ';

   5082  1 000113   200102 470500                    LDP0    LDCT$,,AUTO
         1 000114   040100 100400                    MLR     fill='040'O
PL6.E3A0      #005=KIS$OSI_ATTACH File=KIS$OSI.:E05TSI                           WED 07/30/97 00:42 Page:191
         1 000115   000021 000010 0                  ADSC9   OSIACCT+2                cn=0,n=8
         1 000116   000002 000010                    ADSC9   2,,PR0                   cn=0,n=8

     1211     5083            /* fill in the KC$CGID structure for connecting the station */
     1212     5084    1       KC$CGID.ACCT# = OSIACCT;

   5084  1 000117   040100 100400                    MLR     fill='040'O
         1 000120   000017 000010 0                  ADSC9   OSIACCT                  cn=0,n=8
         1 000121   200014 000010                    ADSC9   KC$CGID,,AUTO            cn=0,n=8

     1213     5085    1       KC$CGID.PSN# = ' ';

   5085  1 000122   040100 100400                    MLR     fill='040'O
         1 000123   000035 000001 xsym               ADSC9   B_VECTNIL+29             cn=0,n=1
         1 000124   200016 000006                    ADSC9   KC$CGID+2,,AUTO          cn=0,n=6

     1214     5086    1       KC$CGID.NAME#.CNT = F$DCB.NAME.L;

   5086  1 000125   200101 470500                    LDP0    JDCB$,,AUTO
         1 000126   000010 236100                    LDQ     8,,PR0
         1 000127   200020 552140                    STBQ    KC$CGID+4,'40'O,AUTO

     1215     5087    1       KC$CGID.NAME#.TXT = F$DCB.NAME.C;

   5087  1 000130   040100 100500                    MLR     fill='040'O
         1 000131   000010 200037                    ADSC9   8,,PR0                   cn=1,n=31
         1 000132   200020 200037                    ADSC9   KC$CGID+4,,AUTO          cn=1,n=31

     1216     5088            /* try to connect the monitor terminal station */
     1217     5089    1       B$CGAUCI = KIS_OSITRM;

   5089  1 000133   000100 100400                    MLR     fill='000'O
         1 000134   000000 000044 0                  ADSC9   KIS_OSITRM               cn=0,n=36
         1 000135   200003 000044                    ADSC9   B$CGAUCI,,AUTO           cn=0,n=36

     1218     5090    1       CALL KCO$TRMCON( LDCT$, KC$CGID, B$CGAUCI, CONERR)

PL6.E3A0      #005=KIS$OSI_ATTACH File=KIS$OSI.:E05TSI                           WED 07/30/97 00:42 Page:192
   5090  1 000136   200100 631500                    EPPR1   CONERR,,AUTO
         1 000137   200111 451500                    STP1    SCID+5,,AUTO
         1 000140   200003 633500                    EPPR3   B$CGAUCI,,AUTO
         1 000141   200110 453500                    STP3    SCID+4,,AUTO
         1 000142   200014 634500                    EPPR4   KC$CGID,,AUTO
         1 000143   200107 454500                    STP4    SCID+3,,AUTO
         1 000144   200102 635500                    EPPR5   LDCT$,,AUTO
         1 000145   200106 455500                    STP5    SCID+2,,AUTO
         1 000146   200106 630500                    EPPR0   SCID+2,,AUTO
         1 000147   000022 631400 xsym               EPPR1   B_VECTNIL+18
         1 000150   000000 701000 xent               TSX1    KCO$TRMCON
         1 000151   000153 702000 1                  TSX2    s:5094
         1 000152   000172 710000 1                  TRA     s:5122

     1219     5091    2       WHENALTRETURN DO;

     1220     5092                /* unable to connect monitor terminal station to server CG */
     1221     5093                %UNLOCK( G=KIS_OSILOCK);

   5094  1 000153   000000 630400 2                  EPPR0   0
         1 000154   000017 631400 xsym               EPPR1   B_VECTNIL+15
         1 000155   000000 701000 xent               TSX1    HFC$UNLOCK
         1 000156   000000 011000                    NOP     0

     1222     5096    2           B$JIT.ERR = ERRDUMMY;

   5096  1 000157   000012 236000 0                  LDQ     ERRDUMMY
         1 000160   000000 470400 xsym               LDP0    B$JIT$
         1 000161   000012 756100                    STQ     10,,PR0

     1223     5097    2           B$JIT.ERR.CODE = CONERR;

   5097  1 000162   200100 236100                    LDQ     CONERR,,AUTO
         1 000163   000003 736000                    QLS     3
         1 000164   000012 676100                    ERQ     10,,PR0
         1 000165   377770 376007                    ANQ     131064,DL
         1 000166   000012 656100                    ERSQ    10,,PR0
PL6.E3A0      #005=KIS$OSI_ATTACH File=KIS$OSI.:E05TSI                           WED 07/30/97 00:42 Page:193

     1224     5098                /*E*  ERROR:  KIS-E$NOCG-A
     1225     5099                    MESSAGE:  Internal error.  Server comgroup does not exist.
     1226     5100                */
     1227     5101                /*E*  ERROR:  KIS-E$DUPNM-A
     1228     5102                    MESSAGE:  Internal error.  Station name in use.
     1229     5103                */
     1230     5104                /*E*  ERROR:  KIS-E$STAILLGL-A
     1231     5105                    MESSAGE:  Internal error.  Station name illegal.
     1232     5106                */
     1233     5107                /*E*  ERROR:  KIS-E$CGCXT-A
     1234     5108                    MESSAGE:  Internal error.  No room in comgroup to connect station.
     1235     5109                */
     1236     5110                /*E*  ERROR:  KIS-E$NTRMSTA-A
     1237     5111                    MESSAGE:  Internal error.  Station name illegal for terminal.
     1238     5112                */
     1239     5113                /*E*  ERROR:  KIS-E$STABAD-A
     1240     5114                    MESSAGE:  Internal error.  Station name has illegal characters.
     1241     5115                */
     1242     5116    2   SNAP:
     1243     5117    2           CALL SC_PRTCL_SNAP;

   5117  1 000167   000000 713400 xsym  SNAP         CLIMB   SC_PRTCL_SNAP
         1 000170   000000 600000 xsid               climb   nvectors=         0

     1244     5118    2           ALTRETURN;

   5118  1 000171   000000 702200 xent               TSX2  ! X66_AALT

     1245     5119    2           END;
     1246     5120            /* the monitor terminal station has been connected */
     1247     5121            /* fill in more of the LDCT */
     1248     5122    1       NK$LDCT.RESCOD = %NK_OSISTA;

   5122  1 000172   200102 470500                    LDP0    LDCT$,,AUTO
         1 000173   000006 236100                    LDQ     6,,PR0
         1 000174   000001 376000 2                  ANQ     1
PL6.E3A0      #005=KIS$OSI_ATTACH File=KIS$OSI.:E05TSI                           WED 07/30/97 00:42 Page:194
         1 000175   000015 276007                    ORQ     13,DL
         1 000176   000006 756100                    STQ     6,,PR0

     1249     5123    1       NK$LDCT.USER = B$JIT.USER;

   5123  1 000177   000000 470400 xsym               LDP0    B$JIT$
         1 000200   200102 471500                    LDP1    LDCT$,,AUTO
         1 000201   000000 236100                    LDQ     0,,PR0
         1 000202   100007 552120                    STBQ    7,'20'O,PR1

     1250     5124    1       NK$LDCT.JLNKCNT = B$JIT.LNKCNT;

   5124  1 000203   200102 471500                    LDP1    LDCT$,,AUTO
         1 000204   000314 236100                    LDQ     204,,PR0
         1 000205   100026 552104                    STBQ    22,'04'O,PR1

     1251     5125    1       NK$LDCT.TH.STR = SCID;

   5125  1 000206   200102 471500                    LDP1    LDCT$,,AUTO
         1 000207   200104 236100                    LDQ     SCID,,AUTO
         1 000210   000022 736000                    QLS     18
         1 000211   100016 552120                    STBQ    14,'20'O,PR1

     1252     5126    1       NK$LDCT.LKFLG.ACTIVE = '1'B;

   5126  1 000212   200102 471500                    LDP1    LDCT$,,AUTO
         1 000213   000040 236003                    LDQ     32,DU
         1 000214   100011 256100                    ORSQ    9,,PR1

     1253     5127    1       NK$LDCT.LKFLG.OBLK = '0'B;

   5127  1 000215   200102 471500                    LDP1    LDCT$,,AUTO
         1 000216   000002 236000 2                  LDQ     2
         1 000217   100011 356100                    ANSQ    9,,PR1

     1254     5128    1       NK$LDCT.DFLG.INPUT = '1'B;

PL6.E3A0      #005=KIS$OSI_ATTACH File=KIS$OSI.:E05TSI                           WED 07/30/97 00:42 Page:195
   5128  1 000220   200102 471500                    LDP1    LDCT$,,AUTO
         1 000221   400000 236007                    LDQ     -131072,DL
         1 000222   100006 256100                    ORSQ    6,,PR1

     1255     5129    1       NK$LDCT.DFLG.OUTPUT = '1'B;

   5129  1 000223   200102 471500                    LDP1    LDCT$,,AUTO
         1 000224   200000 236007                    LDQ     65536,DL
         1 000225   100006 256100                    ORSQ    6,,PR1

     1256     5130    1       NK$LDCT.RLCID.LDCTXB = '777777'O;  /* so we can de-activate later */

   5130  1 000226   777777 220003                    LDX0    -1,DU
         1 000227   200102 471500                    LDP1    LDCT$,,AUTO
         1 000230   100015 440100                    SXL0    13,,PR1

     1257     5131            /* finish init of monitor terminal station */
     1258     5132    1       CALL KCO$TRMGO( LDCT$);

   5132  1 000231   200102 631500                    EPPR1   LDCT$,,AUTO
         1 000232   200106 451500                    STP1    SCID+2,,AUTO
         1 000233   200106 630500                    EPPR0   SCID+2,,AUTO
         1 000234   000017 631400 xsym               EPPR1   B_VECTNIL+15
         1 000235   000000 701000 xent               TSX1    KCO$TRMGO
         1 000236   000000 011000                    NOP     0

     1259     5133            /* fill in the major server slot */
     1260     5134    1       MAJOR$->APPL.LDCTX = NK$LDCT.LDCTX;

   5134  1 000237   200102 470500                    LDP0    LDCT$,,AUTO
         1 000240   000006 220100                    LDX0    6,,PR0
         1 000241   200103 471500                    LDP1    MAJOR$,,AUTO
         1 000242   100000 740100                    STX0    0,,PR1

     1261     5135    1       MAJOR$->APPL.Z.LINK = 0;

   5135  1 000243   000000 236003                    LDQ     0,DU
PL6.E3A0      #005=KIS$OSI_ATTACH File=KIS$OSI.:E05TSI                           WED 07/30/97 00:42 Page:196
         1 000244   100000 552104                    STBQ    0,'04'O,PR1

     1262     5136    1       MAJOR$->APPL.Z.USER = B$JIT.USER;

   5136  1 000245   000000 470400 xsym               LDP0    B$JIT$
         1 000246   000000 236100                    LDQ     0,,PR0
         1 000247   000011 772000                    QRL     9
         1 000250   100000 552110                    STBQ    0,'10'O,PR1

     1263     5137    1       MAJOR$->APPL.TSAP = TSAP;

   5137  1 000251   000000 470400 xsym               LDP0    B$PS1$
         1 000252   000100 100500                    MLR     fill='000'O
         1 000253   000000 000002                    ADSC9   0,,PR0                   cn=0,n=2
         1 000254   200106 000004                    ADSC9   SCID+2,,AUTO             cn=0,n=4
         1 000255   200106 220100                    LDX0    SCID+2,,AUTO
         1 000256   000002 621010                    EAX1    2,X0
         1 000257   000100 100540                    MLR     fill='000'O
         1 000260   000000 000011                    ADSC9   0,,PR0                   cn=0,n=*X1
         1 000261   100001 000042                    ADSC9   1,,PR1                   cn=0,n=34

     1264     5138    1       MAJOR$->APPL.AUDCT = F$DCB.LDCTX;

   5138  1 000262   200101 473500                    LDP3    JDCB$,,AUTO
         1 000263   300051 220100                    LDX0    41,,PR3
         1 000264   100011 440100                    SXL0    9,,PR1

     1265     5139            %UNLOCK( G=KIS_OSILOCK);

   5140  1 000265   000000 630400 2                  EPPR0   0
         1 000266   000017 631400 xsym               EPPR1   B_VECTNIL+15
         1 000267   000000 701000 xent               TSX1    HFC$UNLOCK
         1 000270   000000 011000                    NOP     0

     1266     5142            /* fill in the major SCID */
     1267     5143    1       F$DCB.DVFC = BINASC( SCID);

PL6.E3A0      #005=KIS$OSI_ATTACH File=KIS$OSI.:E05TSI                           WED 07/30/97 00:42 Page:197
   5143  1 000271   200104 236100                    LDQ     SCID,,AUTO
         1 000272   000033 736000                    QLS     27
         1 000273   000003 276000 2                  ORQ     3
         1 000274   200101 470500                    LDP0    JDCB$,,AUTO
         1 000275   000022 772000                    QRL     18
         1 000276   000044 552110                    STBQ    36,'10'O,PR0

     1268     5144            /* now issue a get to the comgroup */
     1269     5145    1       K$RWPARM = K_RWPARM_CON;

   5145  1 000277   000100 100400                    MLR     fill='000'O
         1 000300   000000 000234 xsym               ADSC9   K_RWPARM_CON             cn=0,n=156
         1 000301   200030 000234                    ADSC9   K$RWPARM,,AUTO           cn=0,n=156

     1270     5146    1       CALL KQG$GET( NK$LDCT, K$RWPARM)

   5146  1 000302   200030 631500                    EPPR1   K$RWPARM,,AUTO
         1 000303   200107 451500                    STP1    SCID+3,,AUTO
         1 000304   200102 236100                    LDQ     LDCT$,,AUTO
         1 000305   200106 756100                    STQ     SCID+2,,AUTO
         1 000306   200106 630500                    EPPR0   SCID+2,,AUTO
         1 000307   000020 631400 xsym               EPPR1   B_VECTNIL+16
         1 000310   000000 701000 xent               TSX1    KQG$GET
         1 000311   000313 702000 1                  TSX2    s:5149
         1 000312   000317 710000 1                  TRA     s:5157

     1271     5147    2       WHENALTRETURN DO;

     1272     5148                /* this isn't supposed to happen */
     1273     5149    2           B$JIT.ERR = ERROSIGET;

   5149  1 000313   000014 236000 0                  LDQ     ERROSIGET
         1 000314   000000 470400 xsym               LDP0    B$JIT$
         1 000315   000012 756100                    STQ     10,,PR0

     1274     5150                /*E*  ERROR:  KIS-E$OSIGETERR-A
     1275     5151                    MESSAGE:  Internal error.  GET failed.
PL6.E3A0      #005=KIS$OSI_ATTACH File=KIS$OSI.:E05TSI                           WED 07/30/97 00:42 Page:198
     1276     5152                */
     1277     5153    2           GOTO SNAP;

   5153  1 000316   000167 710000 1                  TRA     SNAP

     1278     5154    2           END;
     1279     5155            /* otherwise, the get has been left pending and KIS$OSI_SEND
     1280     5156               will be entered later from KCO/KCD when the get is satisfied. */
     1281     5157    1       RETURN;

   5157  1 000317   000000 702200 xent               TSX2  ! X66_ARET

KIS_OSITRM
 Sect OctLoc
   0     000   000000 000000   000000 000000   000000 000000   072117 123111    ............:OSI
   0     004   103107 040040   115117 116111   124117 122040   040040 040040    CG  MONITOR
   0     010   000000 000000                                                    ....

ERRBADOSIACCT
 Sect OctLoc
   0     011   131123 431547                                                    YS..

ERRDUMMY
 Sect OctLoc
   0     012   131123 400007                                                    YS..

ERRMAJORTBL
 Sect OctLoc
   0     013   131123 431337                                                    YS..

ERROSIGET
 Sect OctLoc
   0     014   131123 431517                                                    YS..

ERROSINOLDCT
 Sect OctLoc
   0     015   131123 431377                                                    YS..
PL6.E3A0      #005=KIS$OSI_ATTACH File=KIS$OSI.:E05TSI                           WED 07/30/97 00:42 Page:199

ERRSRVRNAME
 Sect OctLoc
   0     016   131123 431537                                                    YS..

OSIACCT
 Sect OctLoc
   0     017   072117 123111   103107 040040                                    :OSICG

(unnamed)
 Sect OctLoc
   0     021   115117 116111   124117 122040                                    MONITOR

(unnamed)
 Sect OctLoc
   2     000   000000 006000   777777 777760   577777 777777   000040 040040    .............
     1282     5158
     1283     5159    1       END KIS$OSI_ATTACH;
     1284     5160        %EOD;

PL6.E3A0      #005=KIS$OSI_ATTACH File=KIS$OSI.:E05TSI                           WED 07/30/97 00:42 Page:200
--  Include file information  --

   F$DCB.:E05TOU  is referenced.
   UM_CP6.:E05TOU  is referenced.
   NK$LDCT.:E05TOU  is referenced.
   NK_SUBS.:E05TOU  is referenced.
   K$RWPARM.:E05TOU  is referenced.
   K_SESSION_M.:E05TOU  is referenced.
   KI_ERRORS_C.:E05TOU  is referenced.
   K_ADDRESS_M.:E05TOU  is referenced.
   KC$CGBLK.:E05TOU  is referenced.
   KC_CP6.:E05TOU  is referenced.
   HF_LOCK_C.:E05TOU  cannot be made into a system file and is referenced.
   CP_6_SUBS.:E05TOU  is referenced.
   B$JIT_C.:E05TOU  is referenced.
      No diagnostics issued in procedure KIS$OSI_ATTACH.
PL6.E3A0      #005=KIS$OSI_ATTACH File=KIS$OSI.:E05TSI                           WED 07/30/97 00:42 Page:201

 **** Variables and constants ****

  ****  Section 000 RoData KIS$OSI_ATTACH

  ****  Scalars and arrays  ****
OctLoc.c.b A Datatyp(siz) R M Lvl/name                 OctLoc.c.b A Datatyp(siz) R M Lvl/name

    11-0-0/w STRC        r     1 ERRBADOSIACCT             12-0-0/w STRC        r     1 ERRDUMMY
    13-0-0/w STRC        r     1 ERRMAJORTBL               14-0-0/w STRC        r     1 ERROSIGET
    15-0-0/w STRC        r     1 ERROSINOLDCT              16-0-0/w STRC        r     1 ERRSRVRNAME
     0-0-0/w STRC(324)   r     1 KIS_OSITRM                17-0-0/c CHAR(8)     r     1 OSIACCT

  ****  Auto variables  ****

  ****  Scalars and arrays  ****
OctLoc.c.b A Datatyp(siz) R M Lvl/name                 OctLoc.c.b A Datatyp(siz) R M Lvl/name

     3-0-0/w STRC(324)   r     1 B$CGAUCI                 100-0-0/w UBIN        r     1 CONERR
   101-0-0/w PTR         r     1 JDCB$                     30-0-0/d STRC(1404)  r     1 K$RWPARM
    14-0-0/w STRC(432)   r     1 KC$CGID                  102-0-0/w PTR         r     1 LDCT$
   103-0-0/w PTR         r     1 MAJOR$                   104-0-0/w SBIN        r     1 SCID

  ****  SYMREF variables  ****

  ****  Scalars and arrays  ****
OctLoc.c.b A Datatyp(siz) R M Lvl/name                 OctLoc.c.b A Datatyp(siz) R M Lvl/name

     0-0-0/w PTR         r     1 B$JIT$                     0-0-0/w PTR         r     1 B$PS1$
     0-0-0/w PTR         r     1 KIS_MAJOR$                 0-0-0/b BIT (72)    r     1 KIS_OSILOCK
     0-0-0/d STRC(1404)  r     1 K_RWPARM_CON

  ****  BASED and DCB variables  ****

  ****  Scalars and arrays  ****
OctLoc.c.b A Datatyp(siz) R M Lvl/name                 OctLoc.c.b A Datatyp(siz) R M Lvl/name

     0-0-0/w STRC(360)   r     1 APPL                       0-0-0/d STRC(8856)  r     1 B$JIT
PL6.E3A0      #005=KIS$OSI_ATTACH File=KIS$OSI.:E05TSI                           WED 07/30/97 00:42 Page:202
     0-0-0/d ASTR(3528)  r     1 F$DCB                      0-0-0/d STRC(864)   r     1 NK$LDCT
     0-0-0/c ASTR(18)    r     1 TSAP


   Procedure KIS$OSI_ATTACH requires 208 words for executable code.
   Procedure KIS$OSI_ATTACH requires 74 words of local(AUTO) storage.
PL6.E3A0      #005=KIS$OSI_ATTACH File=KIS$OSI.:E05TSI                           WED 07/30/97 00:42 Page:203
          *** CROSS REFERENCE LISTING ***
**     DENOTES     IDENTIFIER DEFINITION
<<                 IDENTIFIER'S VALUE SET
>>                 IDENTIFIER'S VALUE USED
<>                 IDENTIFIER SET AND/OR USED
--                 IDENTIFIER REFERENCED
PL6.E3A0      #005=KIS$OSI_ATTACH File=KIS$OSI.:E05TSI                           WED 07/30/97 00:42 Page:204
          MINI XREF LISTING

APPL.AUDCT
      2568**DCL      5138<<ASSIGN
APPL.CLNTHD
      2528**DCL      2529--REDEF
APPL.LDCTX
      2526**DCL      5134<<ASSIGN
APPL.SRVRHD
      2527**DCL      5049>>IF       5050>>ASSIGN   5052<<ASSIGN   5070>>ASSIGN   5071<<ASSIGN
APPL.TCTX
      2525**DCL      2526--REDEF    2527--REDEF
APPL.TSAP
      2551**DCL      5137<<ASSIGN
APPL.Z.COOKIE
      2530**DCL      2531--REDEF
APPL.Z.LINK
      2532**DCL      5052>>ASSIGN   5070<<ASSIGN   5135<<ASSIGN
APPL.Z.USER
      2531**DCL      5136<<ASSIGN
B$CGAUCI
      1712**DCL      5089<<ASSIGN   5090<>CALL
B$CGAUCI.ATTR
      1719**DCL      1719--REDEF
B$JIT.DCB$
       465**DCL      5026>>ASSIGN
B$JIT.ERR
       375**DCL      5030<<ASSIGN   5038<<ASSIGN   5059<<ASSIGN   5075<<ASSIGN   5096<<ASSIGN   5149<<ASSIGN
B$JIT.ERR.CODE
       376**DCL      5097<<ASSIGN
B$JIT.ERR.MID
       376**DCL       376--REDEF
B$JIT.LNKCNT
       494**DCL      5124>>ASSIGN
PL6.E3A0      #005=KIS$OSI_ATTACH File=KIS$OSI.:E05TSI                           WED 07/30/97 00:42 Page:205
B$JIT.USER
       375**DCL      5123>>ASSIGN   5136>>ASSIGN
B$JIT$
      5014**DCL       370--IMP-PTR  5026>>ASSIGN   5030>>ASSIGN   5038>>ASSIGN   5059>>ASSIGN   5075>>ASSIGN
      5096>>ASSIGN   5097>>ASSIGN   5123>>ASSIGN   5124>>ASSIGN   5136>>ASSIGN   5149>>ASSIGN
B$PS1$
      5015**DCL      1747--IMP-PTR  5137>>ASSIGN   5137>>ASSIGN
CONERR
      5019**DCL      5090<>CALL     5097>>ASSIGN
ERRBADOSIACCT
      4631**DCL      5038>>ASSIGN
ERRDUMMY
      4679**DCL      5096>>ASSIGN
ERRMAJORTBL
      4727**DCL      5059>>ASSIGN
ERROSIGET
      4775**DCL      5149>>ASSIGN
ERROSINOLDCT
      4823**DCL      5075>>ASSIGN
ERRSRVRNAME
      4871**DCL      5030>>ASSIGN
F$DCB.ACCT
      4967**DCL      5036>>IF
F$DCB.ACTPOS
      4982**DCL      4982--REDEF
F$DCB.ARS
      4957**DCL      4957--REDEF
F$DCB.ATTR
      4975**DCL      4976--REDEF
F$DCB.BORROW
      4990**DCL      4990--REDEF    4990--REDEF    4990--REDEF
F$DCB.DCBNAME.L
      5004**DCL      5004--IMP-SIZ
F$DCB.DVFC
      4978**DCL      5143<<ASSIGN
F$DCB.EOMCHAR
PL6.E3A0      #005=KIS$OSI_ATTACH File=KIS$OSI.:E05TSI                           WED 07/30/97 00:42 Page:206
      4961**DCL      4961--REDEF
F$DCB.FLDID
      4985**DCL      4985--REDEF
F$DCB.FORM$
      4979**DCL      4979--REDEF
F$DCB.FSECT
      4995**DCL      4995--REDEF
F$DCB.FSN
      4972**DCL      4972--REDEF    4972--REDEF    4973--REDEF
F$DCB.HEADER$
      4978**DCL      4978--REDEF
F$DCB.IXTNSIZE
      4976**DCL      4976--REDEF
F$DCB.LASTSTA$
      4966**DCL      4966--REDEF
F$DCB.LDCTX
      4979**DCL      5138>>ASSIGN
F$DCB.LVL
      4991**DCL      4991--REDEF
F$DCB.NAME.C
      4966**DCL      4966--REDEF    5087>>ASSIGN
F$DCB.NAME.L
      4966**DCL      5028>>IF       5028>>IF       5086>>ASSIGN
F$DCB.NOEOF
      4987**DCL      4987--REDEF
F$DCB.NRECS
      4977**DCL      4977--REDEF
F$DCB.NRECX
      4996**DCL      4996--REDEF
F$DCB.OHDR
      4988**DCL      4988--REDEF
F$DCB.ORG
      4971**DCL      4971--REDEF
F$DCB.PRECNO
      4994**DCL      4994--REDEF
F$DCB.RCSZ
PL6.E3A0      #005=KIS$OSI_ATTACH File=KIS$OSI.:E05TSI                           WED 07/30/97 00:42 Page:207
      4999**DCL      4999--REDEF
F$DCB.RES
      4967**DCL      4967--REDEF
F$DCB.SETX
      4979**DCL      4979--REDEF
F$DCB.TAB$
      4978**DCL      4979--REDEF
F$DCB.TDA
      4993**DCL      4993--REDEF
F$DCB.WSN
      4968**DCL      4968--REDEF
HFC$LOCK
      1116**DCL-ENT  5046--CALL
HFC$UNLOCK
      1116**DCL-ENT  5057--CALL     5073--CALL     5094--CALL     5140--CALL
JDCB$
      5020**DCL      4957--IMP-PTR  5026<<ASSIGN   5028>>IF       5028>>IF       5036>>IF       5086>>ASSIGN
      5087>>ASSIGN   5138>>ASSIGN   5143>>ASSIGN
K$RWPARM
      2977**DCL      5145<<ASSIGN   5146<>CALL
K$RWPARM.BLKREC
      3003**DCL      3028--REDEF
K$RWPARM.BLKREC.BLKU#
      3004**DCL      3006--REDEF
K$RWPARM.BLKREC.RECU#
      3016**DCL      3018--REDEF
K$RWPARM.DVE.DVBYTE.VFC
      3043**DCL      3044--REDEF
K$RWPARM.DVE.EOMCHAR
      3051**DCL      3055--REDEF
K$RWPARM.ERR
      3115**DCL      3120--REDEF
K$RWPARM.FC
      3079**DCL      3080--REDEF
K$RWPARM.FLDID
      3261**DCL      3262--REDEF
PL6.E3A0      #005=KIS$OSI_ATTACH File=KIS$OSI.:E05TSI                           WED 07/30/97 00:42 Page:208
K$RWPARM.FPT$
      3142**DCL      3149--REDEF
K$RWPARM.KEYTYPE
      3268**DCL      3269--REDEF
K$RWPARM.MSG$
      2978**DCL      2984--REDEF
K$RWPARM.MSGID
      3090**DCL      3095--REDEF
K$RWPARM.MSGIDXT
      3103**DCL      3107--REDEF
K$RWPARM.ORG
      3239**DCL      3240--REDEF
K$RWPARM.THDRSZ
      3183**DCL      3187--REDEF
K$RWPARM.VDOFLGS
      3241**DCL      3252--REDEF
KC$CGID
      1812**DCL      5090<>CALL
KC$CGID.ACCT#
      1816**DCL      5084<<ASSIGN
KC$CGID.NAME#.CNT
      1820**DCL      5086<<ASSIGN
KC$CGID.NAME#.TXT
      1821**DCL      5087<<ASSIGN
KC$CGID.PSN#
      1817**DCL      5085<<ASSIGN
KCO$TRMCON
      5007**DCL-ENT  5090--CALL
KCO$TRMGO
      5008**DCL-ENT  5132--CALL
KIS_MAJOR$
      5016**DCL      5049>>IF       5050>>ASSIGN   5051>>ASSIGN   5052>>ASSIGN   5070>>ASSIGN   5071>>ASSIGN
KIS_OSILOCK
      5017**DCL      5046<>CALL     5057<>CALL     5073<>CALL     5094<>CALL     5140<>CALL
KIS_OSITRM
      1690**DCL      5089>>ASSIGN
PL6.E3A0      #005=KIS$OSI_ATTACH File=KIS$OSI.:E05TSI                           WED 07/30/97 00:42 Page:209
KIS_OSITRM.ATTR
      1697**DCL      1697--REDEF
KQG$GET
      5009**DCL-ENT  5146--CALL
K_RWPARM_CON
      3293**DCL      5145>>ASSIGN
K_RWPARM_CON.BLKREC
      3319**DCL      3344--REDEF
K_RWPARM_CON.BLKREC.BLKU#
      3320**DCL      3322--REDEF
K_RWPARM_CON.BLKREC.RECU#
      3332**DCL      3334--REDEF
K_RWPARM_CON.DVE.DVBYTE.VFC
      3359**DCL      3360--REDEF
K_RWPARM_CON.DVE.EOMCHAR
      3367**DCL      3371--REDEF
K_RWPARM_CON.ERR
      3431**DCL      3436--REDEF
K_RWPARM_CON.FC
      3395**DCL      3396--REDEF
K_RWPARM_CON.FLDID
      3577**DCL      3578--REDEF
K_RWPARM_CON.FPT$
      3458**DCL      3465--REDEF
K_RWPARM_CON.KEYTYPE
      3584**DCL      3585--REDEF
K_RWPARM_CON.MSG$
      3294**DCL      3300--REDEF
K_RWPARM_CON.MSGID
      3406**DCL      3411--REDEF
K_RWPARM_CON.MSGIDXT
      3419**DCL      3423--REDEF
K_RWPARM_CON.ORG
      3555**DCL      3556--REDEF
K_RWPARM_CON.THDRSZ
      3499**DCL      3503--REDEF
PL6.E3A0      #005=KIS$OSI_ATTACH File=KIS$OSI.:E05TSI                           WED 07/30/97 00:42 Page:210
K_RWPARM_CON.VDOFLGS
      3557**DCL      3568--REDEF
LDCT$
      5021**DCL      3728--IMP-PTR  5066<>CALL     5082>>ASSIGN   5090<>CALL     5122>>ASSIGN   5123>>ASSIGN
      5124>>ASSIGN   5125>>ASSIGN   5126>>ASSIGN   5127>>ASSIGN   5128>>ASSIGN   5129>>ASSIGN   5130>>ASSIGN
      5132<>CALL     5134>>ASSIGN   5146>>CALL
MAJOR$
      5022**DCL      5051<<ASSIGN   5052>>ASSIGN   5070>>ASSIGN   5134>>ASSIGN   5135>>ASSIGN   5136>>ASSIGN
      5137>>ASSIGN   5138>>ASSIGN
NK$LDCT
      3728**DCL      5146<>CALL
NK$LDCT.DDT$
      3730**DCL      3730--REDEF
NK$LDCT.DEVNM
      3730**DCL      5082<<ASSIGN
NK$LDCT.DFLG.INPUT
      3732**DCL      5128<<ASSIGN
NK$LDCT.DFLG.OUTPUT
      3732**DCL      5129<<ASSIGN
NK$LDCT.IOQ$
      3729**DCL      3730--REDEF
NK$LDCT.JLNKCNT
      3759**DCL      5124<<ASSIGN
NK$LDCT.LDCTX
      3731**DCL      3731--REDEF    5134>>ASSIGN
NK$LDCT.LKFLG.ABORTED
      3743**DCL      3744--REDEF
NK$LDCT.LKFLG.ACTIVE
      3747**DCL      5126<<ASSIGN
NK$LDCT.LKFLG.OBLK
      3743**DCL      5127<<ASSIGN
NK$LDCT.RESCOD
      3736**DCL      5122<<ASSIGN
NK$LDCT.RLCID.LDCTX
      3753**DCL      3753--REDEF
NK$LDCT.RLCID.LDCTXB
PL6.E3A0      #005=KIS$OSI_ATTACH File=KIS$OSI.:E05TSI                           WED 07/30/97 00:42 Page:211
      3753**DCL      5130<<ASSIGN
NK$LDCT.STA$
      3749**DCL      3750--REDEF
NK$LDCT.SYMB$
      3728**DCL      3728--REDEF    3728--REDEF    3729--REDEF
NK$LDCT.TH.STR
      3754**DCL      5125<<ASSIGN
NK$LDCT.USER
      3738**DCL      5123<<ASSIGN
NKL$GETDCT
      5010**DCL-ENT  5066--CALL
OSIACCT
      5023**DCL      5036>>IF       5084>>ASSIGN
SCID
      5024**DCL      5050<<ASSIGN   5051>>ASSIGN   5071>>ASSIGN   5125>>ASSIGN   5143>>ASSIGN
SC_PRTCL_SNAP
      5012**DCL-ENT  5117--CALL
SNAP
      5117**LABEL    5153--GOTO
SSS$BLOCK
      5011**DCL-ENT  5044--CALL
TSAP
      1747**DCL      5137>>ASSIGN
TSAP.L#
      1747**DCL      1747--IMP-SIZ  5137>>ASSIGN

PL6.E3A0      #006=KIS$OSI_DETACH File=KIS$OSI.:E05TSI                           WED 07/30/97 00:43 Page:212
     1285        1        /*T***********************************************************/
     1286        2        /*T*                                                         */
     1287        3        /*T* Copyright (c) Bull HN Information Systems Inc., 1997    */
     1288        4        /*T*                                                         */
     1289        5        /*T***********************************************************/
     1290        6        /*F*    NAME:   KIS$OSI_DETACH
     1291        7                PURPOSE:  Handle M$DETACH of monitor terminal station from server CG.
     1292        8        */
     1293        9        /*D*    NAME:   KIS$OSI_DETACH
     1294       10                CALL:   CALL M$OSI_DETACH ALTRET( label);
     1295       11                INPUT:
     1296       12                    B$JIT.DCB$ - a CG AU DCB already open to the server comgroup.
     1297       13                    B$JIT.DCB$->F$DCB.DVFC holds the major SCID of the application.
     1298       14                OUTPUT:
     1299       15                    On successful call,
     1300       16                      B$JIT.DCB$->F$DCB.DVFC set to zero.
     1301       17                    On unsuccessful call,
     1302       18                      B$JIT.ERROR is filled in with an appropriate error,
     1303       19                      ALTRETURN is taken.
     1304       20                DESCRIPTION:
     1305       21                    KIS$OSI_DETACH is called when an OSI server application decides
     1306       22                    to close down any existing connections from OSI clients and
     1307       23                    disallow new connections.  It is entered from KCP$PMMES when the
     1308       24                    server issues an M$DETACH.
     1309       25
     1310       26                    By the time this code is reached, KCP has determined that the
     1311       27                    DCB is open as AU to a comgroup.
     1312       28
     1313       29                    This module sets up and then calls KQC$CLOSESTA, which cleans up
     1314       30                    comgroup context for the detaching station.  KQC$CLOSESTA calls
     1315       31                    KIS$OSI_DACT so the underlying Transport connection(s) can be
     1316       32                    torn down.  See KIS$OSI_DACT later in this file.
     1317       33        */
     1318       34        KIS$OSI_DETACH: PROC ALTRET;
     1319       35        %INCLUDE B$JIT_C;
     1320      349            %B$JIT0;
     1321      438            %U$JIT1X;
PL6.E3A0      #006=KIS$OSI_DETACH File=KIS$OSI.:E05TSI                           WED 07/30/97 00:43 Page:213
     1322      441            %M$JIT2X;
     1323      444            %F$JIT3;
     1324      449            %S$JIT4X;
     1325      452            %J$JIT5;
     1326      540            %A$JIT6X;
     1327      543        %INCLUDE CP_6_SUBS;
     1328     1083        %INCLUDE HF_LOCK_C;
     1329     1097        %INCLUDE KQ_SUBS_C;
     1330     1397        %INCLUDE KQ_MAC_C;
     1331     3947            %KQ_STA( FPTN=KQ$STA, STCLASS="BASED( STA$)");
     1332     4286        %INCLUDE K_ADDRESS_M;
     1333     4789        %INCLUDE K_INTERFACE_M;
     1334     5198        %INCLUDE K_SESSION_M;
     1335     5288            %KIS$APPL( NAME=APPL, STCLASS=BASED);
     1336     5357        %INCLUDE NK_LDCT_R;
     1337     5366        %INCLUDE NK_SUBS;
     1338     5391        %INCLUDE NK$LDCT;
     1339     5493            %NK$LDCT( STCLASS="BASED( LDCT$)");
     1340     5539        %MACRO F$DCBI( BASED=BASED);
     1341     5540        %INCLUDE F$DCB;
     1342     5589        %MEND;
     1343     5590            %F$DCBI( BASED="BASED( JDCB$)");
     1344     5640
     1345     5641    1       DCL KQC$CLOSESTA ENTRY(1) ALTRET;
     1346     5642
     1347     5643    1       DCL B$JIT$ PTR SYMREF;
     1348     5644    1       DCL KIS_MAJOR$ PTR SYMREF;
     1349     5645    1       DCL KIS_OSILOCK BIT(72) SYMREF;
     1350     5646
     1351     5647    1       DCL JDCB$ PTR;
     1352     5648    1       DCL LDCT$ PTR;
     1353     5649    1       DCL MAJOR$ PTR;
     1354     5650    1       DCL SCID SBIN;
     1355     5651    1       DCL STA$ PTR;
     1356     5652
     1357     5653    1       JDCB$ = B$JIT.DCB$;
     1358     5654    1       SCID = ASCBIN( F$DCB.DVFC);
PL6.E3A0      #006=KIS$OSI_DETACH File=KIS$OSI.:E05TSI                           WED 07/30/97 00:43 Page:214
     1359     5655    1       MAJOR$ = PINCRW( KIS_MAJOR$, SCID);
     1360     5656    1       LDCT$ = NK$LDCT$( MAJOR$->APPL.LDCTX);
     1361     5657    1       STA$ = NK$LDCT.STA$;
     1362     5658            %LOCK( G=KIS_OSILOCK);
     1363     5661    2       IF NK$LDCT.LKFLG.ACTIVE THEN DO;
     1364     5662                %UNLOCK( G=KIS_OSILOCK);
     1365     5665    2           CALL KQC$CLOSESTA( KQ$STA)
     1366     5666    3           WHENALTRETURN DO;
     1367     5667                    /* never ALTRETs */
     1368     5668    3               END;
     1369     5669    2           END;
     1370     5670    1       ELSE
     1371     5671                %UNLOCK( G=KIS_OSILOCK);
     1372     5674    1       IF B$JIT.ERR ~= '0'B THEN
     1373     5675                /* some kind of error in lower layer */
     1374     5676    1           ALTRETURN;
     1375     5677            /* scrub other DCB fields we used */
     1376     5678    1       F$DCB.DVFC = BINASC( 0);
     1377     5679    1       RETURN;
     1378     5680
     1379     5681    1       END KIS$OSI_DETACH;
     1380     5682        %EOD;

PL6.E3A0      #006=KIS$OSI_DETACH File=KIS$OSI.:E05TSI                           WED 07/30/97 00:43 Page:215
--  Include file information  --

   F$DCB.:E05TOU  is referenced.
   NK$LDCT.:E05TOU  is referenced.
   NK_SUBS.:E05TOU  is referenced.
   NK_LDCT_R.:E05TOU  cannot be made into a system file and is referenced.
   K_SESSION_M.:E05TOU  is referenced.
   K_INTERFACE_M.:E05TOU  is referenced.
   K_ADDRESS_M.:E05TOU  is referenced.
   KQ_MAC_C.:E05TOU  is referenced.
   KQ_SUBS_C.:E05TOU  is referenced.
   HF_LOCK_C.:E05TOU  cannot be made into a system file and is referenced.
   CP_6_SUBS.:E05TOU  is referenced.
   B$JIT_C.:E05TOU  is referenced.
      No diagnostics issued in procedure KIS$OSI_DETACH.

   Procedure KIS$OSI_DETACH requires 51 words for executable code.
   Procedure KIS$OSI_DETACH requires 8 words of local(AUTO) storage.

PL6.E3A0      #006=KIS$OSI_DETACH File=KIS$OSI.:E05TSI                           WED 07/30/97 00:43 Page:216

 Object Unit name= KIS$OSI_DETACH                             File name= KIS$OSI.:E05TOU
 UTS= JUL 30 '97 00:43:38.36 WED                              Compiler= PL-6/E31         Sev=      00
 SharedLib= :SHARED_SYSTEM                                    Alt SharedLib=


    ****  Control sections  ****

 Sect   Type Bound  Init  Size OctSiz  Section name(segment info)
    0   Proc  even  none    51     63  KIS$OSI_DETACH
    1  RoData even  none     1      1  KIS$OSI_DETACH

    ****  Entry defs  ****

                              Check   Calling
                             calling  sequence
  Sect OctLoc Primary Altret sequence   type   Parms  Name
     0      0   yes    yes     yes      Std        0  KIS$OSI_DETACH

  ****  Entry refs  ****

         Check        Calling
        calling       sequence
Altret sequence SRef   type   Args  Name
         yes           Std       1 HFC$LOCK
         yes           Std       1 HFC$UNLOCK
 yes     yes           Std       1 KQC$CLOSESTA
                       nStd      0 X66_AUTO_0
                       Std       0 B_CONSPOOL_D
                       nStd      0 X66_AALT
                       nStd      0 X66_ARET
PL6.E3A0      #006=KIS$OSI_DETACH File=KIS$OSI.:E05TSI                           WED 07/30/97 00:43 Page:217

  ****  Data refs  ****

  Flags:  r = read only, s = secondary
Flgs Name                             Flgs Name                             Flgs Name
     N$DCT$$                               B$JIT$                                KIS_MAJOR$
     KIS_OSILOCK                           B_VECTNIL

  ****  Segment refs  ****

  Flags:  r = read only, s = secondary
Flgs Name                             Flgs Name                             Flgs Name
     ISSID
PL6.E3A0      #006=KIS$OSI_DETACH File=KIS$OSI.:E05TSI                           WED 07/30/97 00:43 Page:218


     1285        1        /*T***********************************************************/
     1286        2        /*T*                                                         */
     1287        3        /*T* Copyright (c) Bull HN Information Systems Inc., 1997    */
     1288        4        /*T*                                                         */
     1289        5        /*T***********************************************************/
     1290        6        /*F*    NAME:   KIS$OSI_DETACH
     1291        7                PURPOSE:  Handle M$DETACH of monitor terminal station from server CG.
     1292        8        */
     1293        9        /*D*    NAME:   KIS$OSI_DETACH
     1294       10                CALL:   CALL M$OSI_DETACH ALTRET( label);
     1295       11                INPUT:
     1296       12                    B$JIT.DCB$ - a CG AU DCB already open to the server comgroup.
     1297       13                    B$JIT.DCB$->F$DCB.DVFC holds the major SCID of the application.
     1298       14                OUTPUT:
     1299       15                    On successful call,
     1300       16                      B$JIT.DCB$->F$DCB.DVFC set to zero.
     1301       17                    On unsuccessful call,
     1302       18                      B$JIT.ERROR is filled in with an appropriate error,
     1303       19                      ALTRETURN is taken.
     1304       20                DESCRIPTION:
     1305       21                    KIS$OSI_DETACH is called when an OSI server application decides
     1306       22                    to close down any existing connections from OSI clients and
     1307       23                    disallow new connections.  It is entered from KCP$PMMES when the
     1308       24                    server issues an M$DETACH.
     1309       25
     1310       26                    By the time this code is reached, KCP has determined that the
     1311       27                    DCB is open as AU to a comgroup.
     1312       28
     1313       29                    This module sets up and then calls KQC$CLOSESTA, which cleans up
     1314       30                    comgroup context for the detaching station.  KQC$CLOSESTA calls
     1315       31                    KIS$OSI_DACT so the underlying Transport connection(s) can be
     1316       32                    torn down.  See KIS$OSI_DACT later in this file.
     1317       33        */
     1318       34        KIS$OSI_DETACH: PROC ALTRET;

     34  0 000000   000000 700200 xent  KIS$OSI_DET* TSX0  ! X66_AUTO_0
PL6.E3A0      #006=KIS$OSI_DETACH File=KIS$OSI.:E05TSI                           WED 07/30/97 00:43 Page:219
         0 000001   000010 000000                    ZERO    8,0

     1319       35        %INCLUDE B$JIT_C;
     1320      349            %B$JIT0;
     1321      438            %U$JIT1X;
     1322      441            %M$JIT2X;
     1323      444            %F$JIT3;
     1324      449            %S$JIT4X;
     1325      452            %J$JIT5;
     1326      540            %A$JIT6X;
     1327      543        %INCLUDE CP_6_SUBS;
     1328     1083        %INCLUDE HF_LOCK_C;
     1329     1097        %INCLUDE KQ_SUBS_C;
     1330     1397        %INCLUDE KQ_MAC_C;
     1331     3947            %KQ_STA( FPTN=KQ$STA, STCLASS="BASED( STA$)");
     1332     4286        %INCLUDE K_ADDRESS_M;
     1333     4789        %INCLUDE K_INTERFACE_M;
     1334     5198        %INCLUDE K_SESSION_M;
     1335     5288            %KIS$APPL( NAME=APPL, STCLASS=BASED);
     1336     5357        %INCLUDE NK_LDCT_R;
     1337     5366        %INCLUDE NK_SUBS;
     1338     5391        %INCLUDE NK$LDCT;
     1339     5493            %NK$LDCT( STCLASS="BASED( LDCT$)");
     1340     5539        %MACRO F$DCBI( BASED=BASED);
     1341     5540        %INCLUDE F$DCB;
     1342     5589        %MEND;
     1343     5590            %F$DCBI( BASED="BASED( JDCB$)");
     1344     5640
     1345     5641    1       DCL KQC$CLOSESTA ENTRY(1) ALTRET;
     1346     5642
     1347     5643    1       DCL B$JIT$ PTR SYMREF;
     1348     5644    1       DCL KIS_MAJOR$ PTR SYMREF;
     1349     5645    1       DCL KIS_OSILOCK BIT(72) SYMREF;
     1350     5646
     1351     5647    1       DCL JDCB$ PTR;
     1352     5648    1       DCL LDCT$ PTR;
     1353     5649    1       DCL MAJOR$ PTR;
PL6.E3A0      #006=KIS$OSI_DETACH File=KIS$OSI.:E05TSI                           WED 07/30/97 00:43 Page:220
     1354     5650    1       DCL SCID SBIN;
     1355     5651    1       DCL STA$ PTR;
     1356     5652
     1357     5653    1       JDCB$ = B$JIT.DCB$;

   5653  0 000002   000000 470400 xsym               LDP0    B$JIT$
         0 000003   000232 236100                    LDQ     154,,PR0
         0 000004   200003 756100                    STQ     JDCB$,,AUTO

     1358     5654    1       SCID = ASCBIN( F$DCB.DVFC);

   5654  0 000005   200003 471500                    LDP1    JDCB$,,AUTO
         0 000006   100044 236100                    LDQ     36,,PR1
         0 000007   000011 772000                    QRL     9
         0 000010   000777 376007                    ANQ     511,DL
         0 000011   200006 756100                    STQ     SCID,,AUTO

     1359     5655    1       MAJOR$ = PINCRW( KIS_MAJOR$, SCID);

   5655  0 000012   000022 736000                    QLS     18
         0 000013   000000 036000 xsym               ADLQ    KIS_MAJOR$
         0 000014   200005 756100                    STQ     MAJOR$,,AUTO

     1360     5656    1       LDCT$ = NK$LDCT$( MAJOR$->APPL.LDCTX);

   5656  0 000015   200005 473500                    LDP3    MAJOR$,,AUTO
         0 000016   300000 220100                    LDX0    0,,PR3
         0 000017   000000 474400 xsym               LDP4    N$DCT$$
         0 000020   400000 236110                    LDQ     0,X0,PR4
         0 000021   200004 756100                    STQ     LDCT$,,AUTO

     1361     5657    1       STA$ = NK$LDCT.STA$;

   5657  0 000022   200004 475500                    LDP5    LDCT$,,AUTO
         0 000023   500012 236100                    LDQ     10,,PR5
         0 000024   200007 756100                    STQ     STA$,,AUTO

PL6.E3A0      #006=KIS$OSI_DETACH File=KIS$OSI.:E05TSI                           WED 07/30/97 00:43 Page:221
     1362     5658            %LOCK( G=KIS_OSILOCK);

   5659  0 000025   000000 630400 1                  EPPR0   0
         0 000026   000017 631400 xsym               EPPR1   B_VECTNIL+15
         0 000027   000000 701000 xent               TSX1    HFC$LOCK
         0 000030   000000 011000                    NOP     0

     1363     5661    2       IF NK$LDCT.LKFLG.ACTIVE THEN DO;

   5661  0 000031   200004 470500                    LDP0    LDCT$,,AUTO
         0 000032   000011 236100                    LDQ     9,,PR0
         0 000033   000040 316003                    CANQ    32,DU
         0 000034   000047 600000 0                  TZE     s:5672

     1364     5662                %UNLOCK( G=KIS_OSILOCK);

   5663  0 000035   000000 630400 1                  EPPR0   0
         0 000036   000017 631400 xsym               EPPR1   B_VECTNIL+15
         0 000037   000000 701000 xent               TSX1    HFC$UNLOCK
         0 000040   000000 011000                    NOP     0

     1365     5665    2           CALL KQC$CLOSESTA( KQ$STA)

   5665  0 000041   200007 630500                    EPPR0   STA$,,AUTO
         0 000042   000017 631400 xsym               EPPR1   B_VECTNIL+15
         0 000043   000000 701000 xent               TSX1    KQC$CLOSESTA
         0 000044   000046 702000 0                  TSX2    s:5669
         0 000045   000046 710000 0                  TRA     s:5669

     1366     5666    3           WHENALTRETURN DO;

     1367     5667                    /* never ALTRETs */
     1368     5668    3               END;

     1369     5669    2           END;

   5669  0 000046   000053 710000 0                  TRA     s:5674
PL6.E3A0      #006=KIS$OSI_DETACH File=KIS$OSI.:E05TSI                           WED 07/30/97 00:43 Page:222

     1370     5670    1       ELSE
     1371     5671                %UNLOCK( G=KIS_OSILOCK);

   5672  0 000047   000000 630400 1                  EPPR0   0
         0 000050   000017 631400 xsym               EPPR1   B_VECTNIL+15
         0 000051   000000 701000 xent               TSX1    HFC$UNLOCK
         0 000052   000000 011000                    NOP     0

     1372     5674    1       IF B$JIT.ERR ~= '0'B THEN

   5674  0 000053   000000 470400 xsym               LDP0    B$JIT$
         0 000054   000012 235100                    LDA     10,,PR0
         0 000055   000057 600000 0                  TZE     s:5678

     1373     5675                /* some kind of error in lower layer */
     1374     5676    1           ALTRETURN;

   5676  0 000056   000000 702200 xent               TSX2  ! X66_AALT

     1375     5677            /* scrub other DCB fields we used */
     1376     5678    1       F$DCB.DVFC = BINASC( 0);

   5678  0 000057   200003 471500                    LDP1    JDCB$,,AUTO
         0 000060   000000 236003                    LDQ     0,DU
         0 000061   100044 552110                    STBQ    36,'10'O,PR1

     1377     5679    1       RETURN;

   5679  0 000062   000000 702200 xent               TSX2  ! X66_ARET

(unnamed)
 Sect OctLoc
   1     000   000000 006000                                                    ....
     1378     5680
     1379     5681    1       END KIS$OSI_DETACH;
     1380     5682        %EOD;
PL6.E3A0      #006=KIS$OSI_DETACH File=KIS$OSI.:E05TSI                           WED 07/30/97 00:43 Page:223

PL6.E3A0      #006=KIS$OSI_DETACH File=KIS$OSI.:E05TSI                           WED 07/30/97 00:43 Page:224
--  Include file information  --

   F$DCB.:E05TOU  is referenced.
   NK$LDCT.:E05TOU  is referenced.
   NK_SUBS.:E05TOU  is referenced.
   NK_LDCT_R.:E05TOU  cannot be made into a system file and is referenced.
   K_SESSION_M.:E05TOU  is referenced.
   K_INTERFACE_M.:E05TOU  is referenced.
   K_ADDRESS_M.:E05TOU  is referenced.
   KQ_MAC_C.:E05TOU  is referenced.
   KQ_SUBS_C.:E05TOU  is referenced.
   HF_LOCK_C.:E05TOU  cannot be made into a system file and is referenced.
   CP_6_SUBS.:E05TOU  is referenced.
   B$JIT_C.:E05TOU  is referenced.
      No diagnostics issued in procedure KIS$OSI_DETACH.
PL6.E3A0      #006=KIS$OSI_DETACH File=KIS$OSI.:E05TSI                           WED 07/30/97 00:43 Page:225

 **** Variables and constants ****

  ****  Auto variables  ****

  ****  Scalars and arrays  ****
OctLoc.c.b A Datatyp(siz) R M Lvl/name                 OctLoc.c.b A Datatyp(siz) R M Lvl/name

     3-0-0/w PTR         r     1 JDCB$                      4-0-0/w PTR         r     1 LDCT$
     5-0-0/w PTR         r     1 MAJOR$                     6-0-0/w SBIN        r     1 SCID
     7-0-0/w PTR         r     1 STA$

  ****  SYMREF variables  ****

  ****  Scalars and arrays  ****
OctLoc.c.b A Datatyp(siz) R M Lvl/name                 OctLoc.c.b A Datatyp(siz) R M Lvl/name

     0-0-0/w PTR         r     1 B$JIT$                     0-0-0/w PTR         r     1 KIS_MAJOR$
     0-0-0/b BIT (72)    r     1 KIS_OSILOCK                0-0-0/w PTR         r     1 N$DCT$$

  ****  BASED and DCB variables  ****

  ****  Scalars and arrays  ****
OctLoc.c.b A Datatyp(siz) R M Lvl/name                 OctLoc.c.b A Datatyp(siz) R M Lvl/name

     0-0-0/w STRC(360)   r     1 APPL                       0-0-0/d STRC(8856)  r     1 B$JIT
     0-0-0/d ASTR(3528)  r     1 F$DCB                      0-0-0/d STRC(1296)  r     1 KQ$STA
     0-0-0/d STRC(864)   r     1 NK$LDCT
     0-0-0/w PTR         r     1 NK$LDCT$(0:0)


   Procedure KIS$OSI_DETACH requires 51 words for executable code.
   Procedure KIS$OSI_DETACH requires 8 words of local(AUTO) storage.
PL6.E3A0      #006=KIS$OSI_DETACH File=KIS$OSI.:E05TSI                           WED 07/30/97 00:43 Page:226
          *** CROSS REFERENCE LISTING ***
**     DENOTES     IDENTIFIER DEFINITION
<<                 IDENTIFIER'S VALUE SET
>>                 IDENTIFIER'S VALUE USED
<>                 IDENTIFIER SET AND/OR USED
--                 IDENTIFIER REFERENCED
PL6.E3A0      #006=KIS$OSI_DETACH File=KIS$OSI.:E05TSI                           WED 07/30/97 00:43 Page:227
          MINI XREF LISTING

APPL.CLNTHD
      5315**DCL      5316--REDEF
APPL.LDCTX
      5313**DCL      5656>>ASSIGN
APPL.TCTX
      5312**DCL      5313--REDEF    5314--REDEF
APPL.Z.COOKIE
      5317**DCL      5318--REDEF
B$JIT.DCB$
       445**DCL      5653>>ASSIGN
B$JIT.ERR
       355**DCL      5674>>IF
B$JIT.ERR.MID
       356**DCL       356--REDEF
B$JIT$
      5643**DCL       350--IMP-PTR  5653>>ASSIGN   5674>>IF
F$DCB.ACTPOS
      5616**DCL      5616--REDEF
F$DCB.ARS
      5591**DCL      5591--REDEF
F$DCB.ATTR
      5609**DCL      5610--REDEF
F$DCB.BORROW
      5624**DCL      5624--REDEF    5624--REDEF    5624--REDEF
F$DCB.DCBNAME.L
      5638**DCL      5638--IMP-SIZ
F$DCB.DVFC
      5612**DCL      5654>>ASSIGN   5678<<ASSIGN
F$DCB.EOMCHAR
      5595**DCL      5595--REDEF
F$DCB.FLDID
      5619**DCL      5619--REDEF
PL6.E3A0      #006=KIS$OSI_DETACH File=KIS$OSI.:E05TSI                           WED 07/30/97 00:43 Page:228
F$DCB.FORM$
      5613**DCL      5613--REDEF
F$DCB.FSECT
      5629**DCL      5629--REDEF
F$DCB.FSN
      5606**DCL      5606--REDEF    5606--REDEF    5607--REDEF
F$DCB.HEADER$
      5612**DCL      5612--REDEF
F$DCB.IXTNSIZE
      5610**DCL      5610--REDEF
F$DCB.LASTSTA$
      5600**DCL      5600--REDEF
F$DCB.LVL
      5625**DCL      5625--REDEF
F$DCB.NAME.C
      5600**DCL      5600--REDEF
F$DCB.NOEOF
      5621**DCL      5621--REDEF
F$DCB.NRECS
      5611**DCL      5611--REDEF
F$DCB.NRECX
      5630**DCL      5630--REDEF
F$DCB.OHDR
      5622**DCL      5622--REDEF
F$DCB.ORG
      5605**DCL      5605--REDEF
F$DCB.PRECNO
      5628**DCL      5628--REDEF
F$DCB.RCSZ
      5633**DCL      5633--REDEF
F$DCB.RES
      5601**DCL      5601--REDEF
F$DCB.SETX
      5613**DCL      5613--REDEF
F$DCB.TAB$
      5612**DCL      5613--REDEF
PL6.E3A0      #006=KIS$OSI_DETACH File=KIS$OSI.:E05TSI                           WED 07/30/97 00:43 Page:229
F$DCB.TDA
      5627**DCL      5627--REDEF
F$DCB.WSN
      5602**DCL      5602--REDEF
HFC$LOCK
      1096**DCL-ENT  5659--CALL
HFC$UNLOCK
      1096**DCL-ENT  5663--CALL     5672--CALL
JDCB$
      5647**DCL      5591--IMP-PTR  5653<<ASSIGN   5654>>ASSIGN   5678>>ASSIGN
KIS_MAJOR$
      5644**DCL      5655>>ASSIGN
KIS_OSILOCK
      5645**DCL      5659<>CALL     5663<>CALL     5672<>CALL
KQ$STA
      3961**DCL      5665<>CALL
KQ$STA.ACTTYC
      4013**DCL      4017--REDEF
KQ$STA.DCBLNK$
      4020**DCL      4023--REDEF    4027--REDEF
KQ$STA.EVCNT
      4106**DCL      4109--REDEF
KQ$STA.EVNT
      4072**DCL      4076--REDEF    4079--REDEF
KQ$STA.OPNBLKED
      4133**DCL      4136--REDEF
KQ$STA.OPNREJ
      4139**DCL      4141--REDEF
KQ$STA.SUCCREAD
      4062**DCL      4066--REDEF
KQ$STA.TCOUNT
      4191**DCL      4197--REDEF
KQ$STA.VGOT$
      4176**DCL      4180--REDEF    4184--REDEF
KQC$CLOSESTA
      5641**DCL-ENT  5665--CALL
PL6.E3A0      #006=KIS$OSI_DETACH File=KIS$OSI.:E05TSI                           WED 07/30/97 00:43 Page:230
LDCT$
      5648**DCL      5506--IMP-PTR  5656<<ASSIGN   5657>>ASSIGN   5661>>IF
MAJOR$
      5649**DCL      5655<<ASSIGN   5656>>ASSIGN
N$DCT$$
      5364**DCL      5364--IMP-PTR  5656>>ASSIGN
NK$LDCT.DDT$
      5508**DCL      5508--REDEF
NK$LDCT.IOQ$
      5507**DCL      5508--REDEF
NK$LDCT.LDCTX
      5509**DCL      5509--REDEF
NK$LDCT.LKFLG.ABORTED
      5521**DCL      5522--REDEF
NK$LDCT.LKFLG.ACTIVE
      5525**DCL      5661>>IF
NK$LDCT.RLCID.LDCTX
      5531**DCL      5531--REDEF
NK$LDCT.STA$
      5527**DCL      5528--REDEF    5657>>ASSIGN
NK$LDCT.SYMB$
      5506**DCL      5506--REDEF    5506--REDEF    5507--REDEF
NK$LDCT$
      5364**DCL      5656>>ASSIGN
SCID
      5650**DCL      5654<<ASSIGN   5655>>ASSIGN
STA$
      5651**DCL      3961--IMP-PTR  5657<<ASSIGN   5665>>CALL

PL6.E3A0      #007=KIS$OSI_DACT File=KIS$OSI.:E05TSI                             WED 07/30/97 00:44 Page:231
     1381        1        /*T***********************************************************/
     1382        2        /*T*                                                         */
     1383        3        /*T* Copyright (c) Bull HN Information Systems Inc., 1997    */
     1384        4        /*T*                                                         */
     1385        5        /*T***********************************************************/
     1386        6        /*F*    NAME:   KIS$OSI_DACT
     1387        7                PURPOSE:  Clean up for de-activation of monitor terminal station.
     1388        8        */
     1389        9        /*D*    NAME:   KIS$OSI_DACT
     1390       10                CALL:   CALL KIS$OSI_DACT( LDCT);
     1391       11                INPUT:
     1392       12                    LDCT - NK_OSISTA LDCT for the monitor terminal station
     1393       13                OUTPUT:
     1394       14                    On successful call,
     1395       15                      Any associated Transport connections are dropped,
     1396       16                      The NK_OSISTA LDCT is released,
     1397       17                      The major server slot is scrubbed.
     1398       18                    On unsuccessful call,
     1399       19                      B$JIT.ERR is filled in with an appropriate error.
     1400       20                      (Note no ALTRETURN.)
     1401       21                      The returned error KIS-E$TRANSPORT indicates trouble releasing
     1402       22                      an underlying Transport connection; in this case the LDCT is
     1403       23                      not released and other information is left around to help debug
     1404       24                      the problem.
     1405       25                DESCRIPTION:
     1406       26                    This routine is called from KQC$CLOSESTA as part of a deactivate-
     1407       27                    and-disconnect of the monitor terminal station of a server CG.
     1408       28                    This occurs either as a result of the server issuing an M$DETACH
     1409       29                    or the server exiting or aborting without M$DETACHing first.
     1410       30
     1411       31                    By the time we get here nothing is left in CG-land pertaining to
     1412       32                    this station, so we can release the LDCT with impunity.  Right.
     1413       33        */
     1414       34        KIS$OSI_DACT: PROC( NK$LDCT);
     1415       35        %INCLUDE B$JIT_C;
     1416      349            %B$JIT0;
     1417      438            %U$JIT1X;
PL6.E3A0      #007=KIS$OSI_DACT File=KIS$OSI.:E05TSI                             WED 07/30/97 00:44 Page:232
     1418      441            %M$JIT2X;
     1419      444            %F$JIT3;
     1420      449            %S$JIT4X;
     1421      452            %J$JIT5;
     1422      540            %A$JIT6X;
     1423      543        %INCLUDE HF_LOCK_C;
     1424      557        %INCLUDE KI_ERRORS_C;
     1425      642        %INCLUDE K_DATA_R;
     1426     1353            %K$RWPARM( NAME=K$RWPARM, STCLASS=AUTO);
     1427     1669        %INCLUDE K_ADDRESS_M;
     1428     2172        %INCLUDE K_INTERFACE_M;
     1429     2581        %INCLUDE K_SESSION_M;
     1430     2671            %KIS$APPL( NAME=APPL, STCLASS=BASED);
     1431     2740        %INCLUDE K_SUBS_C;
     1432     2773        %INCLUDE K_TRANSPORT_E;
     1433     3098        %INCLUDE NK_LDCT_R;
     1434     3107        %INCLUDE NK_SUBS;
     1435     3132        %INCLUDE NK$LDCT;
     1436     3234            %NK$LDCT( STCLASS="");
     1437     3280        %INCLUDE UM_CP6;
     1438     4132        %MACRO ERRCODE( NAME=ERRDUMMY, CODE=0);
     1439     4133            %VLP_ERRCODE( FPTN=NAME, STCLASS=CONSTANT, FCG='KI', MID='S',
     1440     4134                          MON='1'B, ERR#=CODE, SEV=7);
     1441     4135        %MEND;
     1442     4136            %ERRCODE( NAME=ERRTRANSPORT, CODE=%E$TRANSPORT);
     1443     4184
     1444     4185    1       DCL NKL$RELDCT ENTRY(1) ALTRET;
     1445     4186    1       DCL KIT$SEND ENTRY(1) ALTRET;
     1446     4187    1       DCL SC_PRTCL_SNAP ENTRY CONV(2,0);
     1447     4188
     1448     4189    1       DCL B$JIT$ PTR SYMREF;
     1449     4190    1       DCL KIS_MAJOR$ PTR SYMREF;
     1450     4191    1       DCL KIS_MINOR$ PTR SYMREF;
     1451     4192    1       DCL KIS_OSILOCK BIT(72) SYMREF;
     1452     4193
     1453     4194    1       DCL JITERR BIT(36);
     1454     4195    1       DCL LINK SBIN;
PL6.E3A0      #007=KIS$OSI_DACT File=KIS$OSI.:E05TSI                             WED 07/30/97 00:44 Page:233
     1455     4196    1       DCL MAJOR$ PTR;
     1456     4197    1       DCL MINOR$ PTR;
     1457     4198    1       DCL SCID SBIN;
     1458     4199
     1459     4200            %LOCK( G=KIS_OSILOCK);
     1460     4203    2       IF NOT NK$LDCT.LKFLG.ACTIVE THEN DO;
     1461     4204                %UNLOCK( G=KIS_OSILOCK);
     1462     4207    2           RETURN;
     1463     4208    2           END;
     1464     4209    1       SCID = NK$LDCT.TH.STR;
     1465     4210    1       MAJOR$ = PINCRW( KIS_MAJOR$, SCID);
     1466     4211    1       K$RWPARM = K_RWPARM_CON;
     1467     4212    1       K$RWPARM.FUNCTION = %K_TDISCONNECT_REQ;
     1468     4213    1       K$RWPARM.ERR = %K_REASON_NOTSPEC;
     1469     4214    1       NK$LDCT.LKFLG.ACTIVE = '0'B;
     1470     4215    1       LINK = MAJOR$->APPL.Z.LINK;
     1471     4216    1       JITERR = B$JIT.ERR;  /* save extant B$JIT.ERR, if any */
     1472     4217    1       B$JIT.ERR = '0'B;  /* zap so Transport error can be seen */
     1473     4218    2       DO WHILE( LINK ~= 0);
     1474     4219    2           MINOR$ = PINCRW( KIS_MINOR$, LINK);
     1475     4220    3           IF MINOR$->APPL.TCTX ~= 0 THEN DO;
     1476     4221                    /* here's a Transport connection that's still open.  Gulp. */
     1477     4222    3               K$RWPARM.TCTX# = MINOR$->APPL.TCTX;
     1478     4223                    /* try to disconnect it */
     1479     4224    3               CALL KIT$SEND( K$RWPARM)
     1480     4225    4               WHENRETURN DO;
     1481     4226                        /* Whew, it worked */
     1482     4227    4                   MINOR$->APPL.TCTX = 0;
     1483     4228    4                   END;
     1484     4229    4               WHENALTRETURN DO;
     1485     4230                        /* Transport was unable to disconnect this one */
     1486     4231    4                   IF K$RWPARM.ERR = %K$USER_ERR THEN
     1487     4232    4                       B$JIT.ERR = K$RWPARM.MSG_ERRCODE;
     1488     4233    5                   ELSE DO;
     1489     4234    5                       B$JIT.ERR = ERRTRANSPORT;
     1490     4235                            /*    ERROR:  KIS-E$TRANSPORT-A
     1491     4236                                MESSAGE:  Internal error.  Transport ALTRETURN.
PL6.E3A0      #007=KIS$OSI_DACT File=KIS$OSI.:E05TSI                             WED 07/30/97 00:44 Page:234
     1492     4237                            */
     1493     4238    5                       END;
     1494     4239    4                   END;
     1495     4240    3               END;
     1496     4241    2           LINK = MINOR$->APPL.Z.LINK;
     1497     4242    2           END;
     1498     4243            /* if problem in Transport, SNAP now */
     1499     4244    1       IF B$JIT.ERR ~= '0'B THEN
     1500     4245    1           CALL SC_PRTCL_SNAP;
     1501     4246            /* if B$JIT.ERR was nonzero on entry to OSI_DACT, restore it
     1502     4247               otherwise leave B$JIT.ERR as returned by Transport */
     1503     4248    1       IF JITERR ~= '0'B THEN
     1504     4249    1           B$JIT.ERR = JITERR;
     1505     4250            /* in any case, release LDCT and slots */
     1506     4251    1       CALL NKL$RELDCT( NK$LDCT$( NK$LDCT.LDCTX));
     1507     4252            /* release the minor server slots, if any */
     1508     4253    2       IF MAJOR$->APPL.Z.LINK ~= 0 THEN DO;
     1509     4254                /* (assumes MINOR$ still points at last item on chain) */
     1510     4255    2           MINOR$->APPL.Z.LINK = KIS_MINOR$->APPL.Z.LINK;
     1511     4256    2           KIS_MINOR$->APPL.Z.LINK = MAJOR$->APPL.Z.LINK;
     1512     4257    2           END;
     1513     4258            /* release the major server slot */
     1514     4259    1       MAJOR$->APPL.LDCTX = 0;
     1515     4260    1       MAJOR$->APPL.TSAP.LEN = 0;
     1516     4261    1       MAJOR$->APPL.TSAP.TSAP = ' ';
     1517     4262    1       MAJOR$->APPL.AUDCT = 0;
     1518     4263    1       MAJOR$->APPL.Z.USER = 0;
     1519     4264    1       MAJOR$->APPL.Z.LINK = KIS_MAJOR$->APPL.SRVRHD;
     1520     4265    1       KIS_MAJOR$->APPL.SRVRHD = SCID;
     1521     4266            %UNLOCK( G=KIS_OSILOCK);
     1522     4269    1       RETURN;
     1523     4270
     1524     4271    1       END KIS$OSI_DACT;
     1525     4272        %EOD;

PL6.E3A0      #007=KIS$OSI_DACT File=KIS$OSI.:E05TSI                             WED 07/30/97 00:44 Page:235
--  Include file information  --

   UM_CP6.:E05TOU  is referenced.
   NK$LDCT.:E05TOU  is referenced.
   NK_SUBS.:E05TOU  is referenced.
   NK_LDCT_R.:E05TOU  cannot be made into a system file and is referenced.
   K_TRANSPORT_E.:E05TOU  is referenced.
   K_SUBS_C.:E05TOU  is referenced.
   K_SESSION_M.:E05TOU  is referenced.
   K_INTERFACE_M.:E05TOU  is referenced.
   K_ADDRESS_M.:E05TOU  is referenced.
   K$RWPARM.:E05TOU  is referenced.
   K_DATA_R.:E05TOU  cannot be made into a system file and is referenced.
   KI_ERRORS_C.:E05TOU  is referenced.
   HF_LOCK_C.:E05TOU  cannot be made into a system file and is referenced.
   B$JIT_C.:E05TOU  is referenced.
      No diagnostics issued in procedure KIS$OSI_DACT.

   Procedure KIS$OSI_DACT requires 124 words for executable code.
   Procedure KIS$OSI_DACT requires 52 words of local(AUTO) storage.

PL6.E3A0      #007=KIS$OSI_DACT File=KIS$OSI.:E05TSI                             WED 07/30/97 00:44 Page:236

 Object Unit name= KIS$OSI_DACT                               File name= KIS$OSI.:E05TOU
 UTS= JUL 30 '97 00:44:05.40 WED                              Compiler= PL-6/E31         Sev=      00
 SharedLib= :SHARED_SYSTEM                                    Alt SharedLib=


    ****  Control sections  ****

 Sect   Type Bound  Init  Size OctSiz  Section name(segment info)
    0  RoData even  UTS      1      1  KIS$OSI_DACT
    1   Proc  even  none   124    174  KIS$OSI_DACT
    2  RoData even  none     2      2  KIS$OSI_DACT

    ****  Entry defs  ****

                              Check   Calling
                             calling  sequence
  Sect OctLoc Primary Altret sequence   type   Parms  Name
     1      0   yes            yes      Std        1  KIS$OSI_DACT

  ****  Entry refs  ****

         Check        Calling
        calling       sequence
Altret sequence SRef   type   Args  Name
         yes           Std       1 HFC$LOCK
         yes           Std       1 HFC$UNLOCK
 yes     yes           Std       1 KIT$SEND
 yes     yes           Std       1 NKL$RELDCT
                       nStd      0 X66_AUTO_1
                       Std       0 B_CONSPOOL_D
                       nStd      0 X66_ARET
PL6.E3A0      #007=KIS$OSI_DACT File=KIS$OSI.:E05TSI                             WED 07/30/97 00:44 Page:237

  ****  Data refs  ****

  Flags:  r = read only, s = secondary
Flgs Name                             Flgs Name                             Flgs Name
     SC_PRTCL_SNAP                    r    K_RWPARM_CON                          N$DCT$$
     B$JIT$                                KIS_MAJOR$                            KIS_MINOR$
     KIS_OSILOCK                           B_VECTNIL

  ****  Segment refs  ****

  Flags:  r = read only, s = secondary
Flgs Name                             Flgs Name                             Flgs Name
     ASLENTSID                             ISSID
PL6.E3A0      #007=KIS$OSI_DACT File=KIS$OSI.:E05TSI                             WED 07/30/97 00:44 Page:238


     1381        1        /*T***********************************************************/
     1382        2        /*T*                                                         */
     1383        3        /*T* Copyright (c) Bull HN Information Systems Inc., 1997    */
     1384        4        /*T*                                                         */
     1385        5        /*T***********************************************************/
     1386        6        /*F*    NAME:   KIS$OSI_DACT
     1387        7                PURPOSE:  Clean up for de-activation of monitor terminal station.
     1388        8        */
     1389        9        /*D*    NAME:   KIS$OSI_DACT
     1390       10                CALL:   CALL KIS$OSI_DACT( LDCT);
     1391       11                INPUT:
     1392       12                    LDCT - NK_OSISTA LDCT for the monitor terminal station
     1393       13                OUTPUT:
     1394       14                    On successful call,
     1395       15                      Any associated Transport connections are dropped,
     1396       16                      The NK_OSISTA LDCT is released,
     1397       17                      The major server slot is scrubbed.
     1398       18                    On unsuccessful call,
     1399       19                      B$JIT.ERR is filled in with an appropriate error.
     1400       20                      (Note no ALTRETURN.)
     1401       21                      The returned error KIS-E$TRANSPORT indicates trouble releasing
     1402       22                      an underlying Transport connection; in this case the LDCT is
     1403       23                      not released and other information is left around to help debug
     1404       24                      the problem.
     1405       25                DESCRIPTION:
     1406       26                    This routine is called from KQC$CLOSESTA as part of a deactivate-
     1407       27                    and-disconnect of the monitor terminal station of a server CG.
     1408       28                    This occurs either as a result of the server issuing an M$DETACH
     1409       29                    or the server exiting or aborting without M$DETACHing first.
     1410       30
     1411       31                    By the time we get here nothing is left in CG-land pertaining to
     1412       32                    this station, so we can release the LDCT with impunity.  Right.
     1413       33        */
     1414       34        KIS$OSI_DACT: PROC( NK$LDCT);

     34  1 000000   000000 700200 xent  KIS$OSI_DACT TSX0  ! X66_AUTO_1
PL6.E3A0      #007=KIS$OSI_DACT File=KIS$OSI.:E05TSI                             WED 07/30/97 00:44 Page:239
         1 000001   000064 000001                    ZERO    52,1

     1415       35        %INCLUDE B$JIT_C;
     1416      349            %B$JIT0;
     1417      438            %U$JIT1X;
     1418      441            %M$JIT2X;
     1419      444            %F$JIT3;
     1420      449            %S$JIT4X;
     1421      452            %J$JIT5;
     1422      540            %A$JIT6X;
     1423      543        %INCLUDE HF_LOCK_C;
     1424      557        %INCLUDE KI_ERRORS_C;
     1425      642        %INCLUDE K_DATA_R;
     1426     1353            %K$RWPARM( NAME=K$RWPARM, STCLASS=AUTO);
     1427     1669        %INCLUDE K_ADDRESS_M;
     1428     2172        %INCLUDE K_INTERFACE_M;
     1429     2581        %INCLUDE K_SESSION_M;
     1430     2671            %KIS$APPL( NAME=APPL, STCLASS=BASED);
     1431     2740        %INCLUDE K_SUBS_C;
     1432     2773        %INCLUDE K_TRANSPORT_E;
     1433     3098        %INCLUDE NK_LDCT_R;
     1434     3107        %INCLUDE NK_SUBS;
     1435     3132        %INCLUDE NK$LDCT;
     1436     3234            %NK$LDCT( STCLASS="");
     1437     3280        %INCLUDE UM_CP6;
     1438     4132        %MACRO ERRCODE( NAME=ERRDUMMY, CODE=0);
     1439     4133            %VLP_ERRCODE( FPTN=NAME, STCLASS=CONSTANT, FCG='KI', MID='S',
     1440     4134                          MON='1'B, ERR#=CODE, SEV=7);
     1441     4135        %MEND;
     1442     4136            %ERRCODE( NAME=ERRTRANSPORT, CODE=%E$TRANSPORT);
     1443     4184
     1444     4185    1       DCL NKL$RELDCT ENTRY(1) ALTRET;
     1445     4186    1       DCL KIT$SEND ENTRY(1) ALTRET;
     1446     4187    1       DCL SC_PRTCL_SNAP ENTRY CONV(2,0);
     1447     4188
     1448     4189    1       DCL B$JIT$ PTR SYMREF;
     1449     4190    1       DCL KIS_MAJOR$ PTR SYMREF;
PL6.E3A0      #007=KIS$OSI_DACT File=KIS$OSI.:E05TSI                             WED 07/30/97 00:44 Page:240
     1450     4191    1       DCL KIS_MINOR$ PTR SYMREF;
     1451     4192    1       DCL KIS_OSILOCK BIT(72) SYMREF;
     1452     4193
     1453     4194    1       DCL JITERR BIT(36);
     1454     4195    1       DCL LINK SBIN;
     1455     4196    1       DCL MAJOR$ PTR;
     1456     4197    1       DCL MINOR$ PTR;
     1457     4198    1       DCL SCID SBIN;
     1458     4199
     1459     4200            %LOCK( G=KIS_OSILOCK);

   4201  1 000002   000000 630400 2                  EPPR0   0
         1 000003   000017 631400 xsym               EPPR1   B_VECTNIL+15
         1 000004   000000 701000 xent               TSX1    HFC$LOCK
         1 000005   000000 011000                    NOP     0

     1460     4203    2       IF NOT NK$LDCT.LKFLG.ACTIVE THEN DO;

   4203  1 000006   200003 470500                    LDP0    @NK$LDCT,,AUTO
         1 000007   000011 236100                    LDQ     9,,PR0
         1 000010   000040 316003                    CANQ    32,DU
         1 000011   000017 601000 1                  TNZ     s:4209

     1461     4204                %UNLOCK( G=KIS_OSILOCK);

   4205  1 000012   000000 630400 2                  EPPR0   0
         1 000013   000017 631400 xsym               EPPR1   B_VECTNIL+15
         1 000014   000000 701000 xent               TSX1    HFC$UNLOCK
         1 000015   000000 011000                    NOP     0

     1462     4207    2           RETURN;

   4207  1 000016   000000 702200 xent               TSX2  ! X66_ARET

     1463     4208    2           END;
     1464     4209    1       SCID = NK$LDCT.TH.STR;

PL6.E3A0      #007=KIS$OSI_DACT File=KIS$OSI.:E05TSI                             WED 07/30/97 00:44 Page:241
   4209  1 000017   000016 236100                    LDQ     14,,PR0
         1 000020   000022 772000                    QRL     18
         1 000021   000777 376007                    ANQ     511,DL
         1 000022   200060 756100                    STQ     SCID,,AUTO

     1465     4210    1       MAJOR$ = PINCRW( KIS_MAJOR$, SCID);

   4210  1 000023   000022 736000                    QLS     18
         1 000024   000000 036000 xsym               ADLQ    KIS_MAJOR$
         1 000025   200056 756100                    STQ     MAJOR$,,AUTO

     1466     4211    1       K$RWPARM = K_RWPARM_CON;

   4211  1 000026   000100 100400                    MLR     fill='000'O
         1 000027   000000 000234 xsym               ADSC9   K_RWPARM_CON             cn=0,n=156
         1 000030   200004 000234                    ADSC9   K$RWPARM,,AUTO           cn=0,n=156

     1467     4212    1       K$RWPARM.FUNCTION = %K_TDISCONNECT_REQ;

   4212  1 000031   000031 235007                    LDA     25,DL
         1 000032   200024 755100                    STA     K$RWPARM+16,,AUTO

     1468     4213    1       K$RWPARM.ERR = %K_REASON_NOTSPEC;

   4213  1 000033   200017 450100                    STZ     K$RWPARM+11,,AUTO

     1469     4214    1       NK$LDCT.LKFLG.ACTIVE = '0'B;

   4214  1 000034   000001 236000 2                  LDQ     1
         1 000035   000011 356100                    ANSQ    9,,PR0

     1470     4215    1       LINK = MAJOR$->APPL.Z.LINK;

   4215  1 000036   200056 471500                    LDP1    MAJOR$,,AUTO
         1 000037   100000 236100                    LDQ     0,,PR1
         1 000040   000777 376007                    ANQ     511,DL
         1 000041   200055 756100                    STQ     LINK,,AUTO
PL6.E3A0      #007=KIS$OSI_DACT File=KIS$OSI.:E05TSI                             WED 07/30/97 00:44 Page:242

     1471     4216    1       JITERR = B$JIT.ERR;  /* save extant B$JIT.ERR, if any */

   4216  1 000042   000000 473400 xsym               LDP3    B$JIT$
         1 000043   300012 236100                    LDQ     10,,PR3
         1 000044   200054 756100                    STQ     JITERR,,AUTO

     1472     4217    1       B$JIT.ERR = '0'B;  /* zap so Transport error can be seen */

   4217  1 000045   300012 450100                    STZ     10,,PR3

     1473     4218    2       DO WHILE( LINK ~= 0);

   4218  1 000046   200055 235100                    LDA     LINK,,AUTO
         1 000047   000111 600000 1                  TZE     s:4244

     1474     4219    2           MINOR$ = PINCRW( KIS_MINOR$, LINK);

   4219  1 000050   200055 236100                    LDQ     LINK,,AUTO
         1 000051   000022 736000                    QLS     18
         1 000052   000000 036000 xsym               ADLQ    KIS_MINOR$
         1 000053   200057 756100                    STQ     MINOR$,,AUTO

     1475     4220    3           IF MINOR$->APPL.TCTX ~= 0 THEN DO;

   4220  1 000054   200057 470500                    LDP0    MINOR$,,AUTO
         1 000055   000000 220100                    LDX0    0,,PR0
         1 000056   000104 600000 1                  TZE     s:4241

     1476     4221                    /* here's a Transport connection that's still open.  Gulp. */
     1477     4222    3               K$RWPARM.TCTX# = MINOR$->APPL.TCTX;

   4222  1 000057   200037 740100                    STX0    K$RWPARM+27,,AUTO

     1478     4223                    /* try to disconnect it */
     1479     4224    3               CALL KIT$SEND( K$RWPARM)

PL6.E3A0      #007=KIS$OSI_DACT File=KIS$OSI.:E05TSI                             WED 07/30/97 00:44 Page:243
   4224  1 000060   200004 631500                    EPPR1   K$RWPARM,,AUTO
         1 000061   200062 451500                    STP1    SCID+2,,AUTO
         1 000062   200062 630500                    EPPR0   SCID+2,,AUTO
         1 000063   000017 631400 xsym               EPPR1   B_VECTNIL+15
         1 000064   000000 701000 xent               TSX1    KIT$SEND
         1 000065   000072 702000 1                  TSX2    s:4231

     1480     4225    4               WHENRETURN DO;

     1481     4226                        /* Whew, it worked */
     1482     4227    4                   MINOR$->APPL.TCTX = 0;

   4227  1 000066   000000 220003                    LDX0    0,DU
         1 000067   200057 470500                    LDP0    MINOR$,,AUTO
         1 000070   000000 740100                    STX0    0,,PR0

     1483     4228    4                   END;

   4228  1 000071   000104 710000 1                  TRA     s:4241

     1484     4229    4               WHENALTRETURN DO;

     1485     4230                        /* Transport was unable to disconnect this one */
     1486     4231    4                   IF K$RWPARM.ERR = %K$USER_ERR THEN

   4231  1 000072   200017 235100                    LDA     K$RWPARM+11,,AUTO
         1 000073   000010 115007                    CMPA    8,DL
         1 000074   000101 601000 1                  TNZ     s:4234

     1487     4232    4                       B$JIT.ERR = K$RWPARM.MSG_ERRCODE;

   4232  1 000075   200043 236100                    LDQ     K$RWPARM+31,,AUTO
         1 000076   000000 470400 xsym               LDP0    B$JIT$
         1 000077   000012 756100                    STQ     10,,PR0
         1 000100   000104 710000 1                  TRA     s:4241

     1488     4233    5                   ELSE DO;
PL6.E3A0      #007=KIS$OSI_DACT File=KIS$OSI.:E05TSI                             WED 07/30/97 00:44 Page:244

     1489     4234    5                       B$JIT.ERR = ERRTRANSPORT;

   4234  1 000101   000000 236000 0                  LDQ     ERRTRANSPORT
         1 000102   000000 470400 xsym               LDP0    B$JIT$
         1 000103   000012 756100                    STQ     10,,PR0

     1490     4235                            /*    ERROR:  KIS-E$TRANSPORT-A
     1491     4236                                MESSAGE:  Internal error.  Transport ALTRETURN.
     1492     4237                            */
     1493     4238    5                       END;

     1494     4239    4                   END;

     1495     4240    3               END;

     1496     4241    2           LINK = MINOR$->APPL.Z.LINK;

   4241  1 000104   200057 470500                    LDP0    MINOR$,,AUTO
         1 000105   000000 236100                    LDQ     0,,PR0
         1 000106   000777 376007                    ANQ     511,DL
         1 000107   200055 756100                    STQ     LINK,,AUTO

     1497     4242    2           END;

   4242  1 000110   000050 601000 1                  TNZ     s:4219

     1498     4243            /* if problem in Transport, SNAP now */
     1499     4244    1       IF B$JIT.ERR ~= '0'B THEN

   4244  1 000111   000000 470400 xsym               LDP0    B$JIT$
         1 000112   000012 235100                    LDA     10,,PR0
         1 000113   000116 600000 1                  TZE     s:4248

     1500     4245    1           CALL SC_PRTCL_SNAP;

   4245  1 000114   000000 713400 xsym               CLIMB   SC_PRTCL_SNAP
PL6.E3A0      #007=KIS$OSI_DACT File=KIS$OSI.:E05TSI                             WED 07/30/97 00:44 Page:245
         1 000115   000000 600000 xsid               climb   nvectors=         0

     1501     4246            /* if B$JIT.ERR was nonzero on entry to OSI_DACT, restore it
     1502     4247               otherwise leave B$JIT.ERR as returned by Transport */
     1503     4248    1       IF JITERR ~= '0'B THEN

   4248  1 000116   200054 235100                    LDA     JITERR,,AUTO
         1 000117   000123 600000 1                  TZE     s:4251

     1504     4249    1           B$JIT.ERR = JITERR;

   4249  1 000120   200054 236100                    LDQ     JITERR,,AUTO
         1 000121   000000 470400 xsym               LDP0    B$JIT$
         1 000122   000012 756100                    STQ     10,,PR0

     1505     4250            /* in any case, release LDCT and slots */
     1506     4251    1       CALL NKL$RELDCT( NK$LDCT$( NK$LDCT.LDCTX));

   4251  1 000123   200003 470500                    LDP0    @NK$LDCT,,AUTO
         1 000124   000006 220100                    LDX0    6,,PR0
         1 000125   000000 636010                    EAQ     0,X0
         1 000126   000000 036000 xsym               ADLQ    N$DCT$$
         1 000127   200062 756100                    STQ     SCID+2,,AUTO
         1 000130   200062 630500                    EPPR0   SCID+2,,AUTO
         1 000131   000017 631400 xsym               EPPR1   B_VECTNIL+15
         1 000132   000000 701000 xent               TSX1    NKL$RELDCT
         1 000133   000000 011000                    NOP     0

     1507     4252            /* release the minor server slots, if any */
     1508     4253    2       IF MAJOR$->APPL.Z.LINK ~= 0 THEN DO;

   4253  1 000134   200056 470500                    LDP0    MAJOR$,,AUTO
         1 000135   000000 236100                    LDQ     0,,PR0
         1 000136   000777 316007                    CANQ    511,DL
         1 000137   000147 600000 1                  TZE     s:4259

     1509     4254                /* (assumes MINOR$ still points at last item on chain) */
PL6.E3A0      #007=KIS$OSI_DACT File=KIS$OSI.:E05TSI                             WED 07/30/97 00:44 Page:246
     1510     4255    2           MINOR$->APPL.Z.LINK = KIS_MINOR$->APPL.Z.LINK;

   4255  1 000140   000000 471400 xsym               LDP1    KIS_MINOR$
         1 000141   200057 473500                    LDP3    MINOR$,,AUTO
         1 000142   100000 236100                    LDQ     0,,PR1
         1 000143   300000 552104                    STBQ    0,'04'O,PR3

     1511     4256    2           KIS_MINOR$->APPL.Z.LINK = MAJOR$->APPL.Z.LINK;

   4256  1 000144   000000 471400 xsym               LDP1    KIS_MINOR$
         1 000145   000000 236100                    LDQ     0,,PR0
         1 000146   100000 552104                    STBQ    0,'04'O,PR1

     1512     4257    2           END;

     1513     4258            /* release the major server slot */
     1514     4259    1       MAJOR$->APPL.LDCTX = 0;

   4259  1 000147   000000 220003                    LDX0    0,DU
         1 000150   000000 740100                    STX0    0,,PR0

     1515     4260    1       MAJOR$->APPL.TSAP.LEN = 0;

   4260  1 000151   000001 740100                    STX0    1,,PR0

     1516     4261    1       MAJOR$->APPL.TSAP.TSAP = ' ';

   4261  1 000152   040100 100400                    MLR     fill='040'O
         1 000153   000035 000001 xsym               ADSC9   B_VECTNIL+29             cn=0,n=1
         1 000154   000001 400040                    ADSC9   1,,PR0                   cn=2,n=32

     1517     4262    1       MAJOR$->APPL.AUDCT = 0;

   4262  1 000155   000011 440100                    SXL0    9,,PR0

     1518     4263    1       MAJOR$->APPL.Z.USER = 0;

PL6.E3A0      #007=KIS$OSI_DACT File=KIS$OSI.:E05TSI                             WED 07/30/97 00:44 Page:247
   4263  1 000156   000000 236003                    LDQ     0,DU
         1 000157   000000 552110                    STBQ    0,'10'O,PR0

     1519     4264    1       MAJOR$->APPL.Z.LINK = KIS_MAJOR$->APPL.SRVRHD;

   4264  1 000160   000000 471400 xsym               LDP1    KIS_MAJOR$
         1 000161   100000 236100                    LDQ     0,,PR1
         1 000162   000022 772000                    QRL     18
         1 000163   000000 552104                    STBQ    0,'04'O,PR0

     1520     4265    1       KIS_MAJOR$->APPL.SRVRHD = SCID;

   4265  1 000164   200060 721100                    LXL1    SCID,,AUTO
         1 000165   000000 471400 xsym               LDP1    KIS_MAJOR$
         1 000166   100000 741100                    STX1    0,,PR1

     1521     4266            %UNLOCK( G=KIS_OSILOCK);

   4267  1 000167   000000 630400 2                  EPPR0   0
         1 000170   000017 631400 xsym               EPPR1   B_VECTNIL+15
         1 000171   000000 701000 xent               TSX1    HFC$UNLOCK
         1 000172   000000 011000                    NOP     0

     1522     4269    1       RETURN;

   4269  1 000173   000000 702200 xent               TSX2  ! X66_ARET

ERRTRANSPORT
 Sect OctLoc
   0     000   131123 431457                                                    YS..

(unnamed)
 Sect OctLoc
   2     000   000000 006000   777737 777777                                    ........
     1523     4270
     1524     4271    1       END KIS$OSI_DACT;
     1525     4272        %EOD;
PL6.E3A0      #007=KIS$OSI_DACT File=KIS$OSI.:E05TSI                             WED 07/30/97 00:44 Page:248

PL6.E3A0      #007=KIS$OSI_DACT File=KIS$OSI.:E05TSI                             WED 07/30/97 00:44 Page:249
--  Include file information  --

   UM_CP6.:E05TOU  is referenced.
   NK$LDCT.:E05TOU  is referenced.
   NK_SUBS.:E05TOU  is referenced.
   NK_LDCT_R.:E05TOU  cannot be made into a system file and is referenced.
   K_TRANSPORT_E.:E05TOU  is referenced.
   K_SUBS_C.:E05TOU  is referenced.
   K_SESSION_M.:E05TOU  is referenced.
   K_INTERFACE_M.:E05TOU  is referenced.
   K_ADDRESS_M.:E05TOU  is referenced.
   K$RWPARM.:E05TOU  is referenced.
   K_DATA_R.:E05TOU  cannot be made into a system file and is referenced.
   KI_ERRORS_C.:E05TOU  is referenced.
   HF_LOCK_C.:E05TOU  cannot be made into a system file and is referenced.
   B$JIT_C.:E05TOU  is referenced.
      No diagnostics issued in procedure KIS$OSI_DACT.
PL6.E3A0      #007=KIS$OSI_DACT File=KIS$OSI.:E05TSI                             WED 07/30/97 00:44 Page:250

 **** Variables and constants ****

  ****  Section 000 RoData KIS$OSI_DACT

  ****  Scalars and arrays  ****
OctLoc.c.b A Datatyp(siz) R M Lvl/name                 OctLoc.c.b A Datatyp(siz) R M Lvl/name

     0-0-0/w STRC        r     1 ERRTRANSPORT

  ****  Auto variables  ****

  ****  Scalars and arrays  ****
OctLoc.c.b A Datatyp(siz) R M Lvl/name                 OctLoc.c.b A Datatyp(siz) R M Lvl/name

     3-0-0/w PTR         r     1 @NK$LDCT                  54-0-0/b BIT         r     1 JITERR
     4-0-0/d STRC(1404)  r     1 K$RWPARM                  55-0-0/w SBIN        r     1 LINK
    56-0-0/w PTR         r     1 MAJOR$                    57-0-0/w PTR         r     1 MINOR$
    *0-0-0/d STRC(864)   r     1 NK$LDCT                   60-0-0/w SBIN        r     1 SCID

  ****  SYMREF variables  ****

  ****  Scalars and arrays  ****
OctLoc.c.b A Datatyp(siz) R M Lvl/name                 OctLoc.c.b A Datatyp(siz) R M Lvl/name

     0-0-0/w PTR         r     1 B$JIT$                     0-0-0/w PTR         r     1 KIS_MAJOR$
     0-0-0/w PTR         r     1 KIS_MINOR$                 0-0-0/b BIT (72)    r     1 KIS_OSILOCK
     0-0-0/d STRC(1404)  r     1 K_RWPARM_CON               0-0-0/w PTR         r     1 N$DCT$$

  ****  BASED and DCB variables  ****

  ****  Scalars and arrays  ****
OctLoc.c.b A Datatyp(siz) R M Lvl/name                 OctLoc.c.b A Datatyp(siz) R M Lvl/name

     0-0-0/w STRC(360)   r     1 APPL                       0-0-0/d STRC(8856)  r     1 B$JIT
     0-0-0/w PTR         r     1 NK$LDCT$(0:0)

PL6.E3A0      #007=KIS$OSI_DACT File=KIS$OSI.:E05TSI                             WED 07/30/97 00:44 Page:251

   Procedure KIS$OSI_DACT requires 124 words for executable code.
   Procedure KIS$OSI_DACT requires 52 words of local(AUTO) storage.
PL6.E3A0      #007=KIS$OSI_DACT File=KIS$OSI.:E05TSI                             WED 07/30/97 00:44 Page:252
          *** CROSS REFERENCE LISTING ***
**     DENOTES     IDENTIFIER DEFINITION
<<                 IDENTIFIER'S VALUE SET
>>                 IDENTIFIER'S VALUE USED
<>                 IDENTIFIER SET AND/OR USED
--                 IDENTIFIER REFERENCED
PL6.E3A0      #007=KIS$OSI_DACT File=KIS$OSI.:E05TSI                             WED 07/30/97 00:44 Page:253
          MINI XREF LISTING

APPL.AUDCT
      2738**DCL      4262<<ASSIGN
APPL.CLNTHD
      2698**DCL      2699--REDEF
APPL.LDCTX
      2696**DCL      4259<<ASSIGN
APPL.SRVRHD
      2697**DCL      4264>>ASSIGN   4265<<ASSIGN
APPL.TCTX
      2695**DCL      2696--REDEF    2697--REDEF    4220>>IF       4222>>ASSIGN   4227<<ASSIGN
APPL.TSAP.LEN
      2723**DCL      4260<<ASSIGN
APPL.TSAP.TSAP
      2731**DCL      4261<<ASSIGN
APPL.Z.COOKIE
      2700**DCL      2701--REDEF
APPL.Z.LINK
      2702**DCL      4215>>ASSIGN   4241>>ASSIGN   4253>>IF       4255<<ASSIGN   4255>>ASSIGN   4256<<ASSIGN
      4256>>ASSIGN   4264<<ASSIGN
APPL.Z.USER
      2701**DCL      4263<<ASSIGN
B$JIT.ERR
       355**DCL      4216>>ASSIGN   4217<<ASSIGN   4232<<ASSIGN   4234<<ASSIGN   4244>>IF       4249<<ASSIGN
B$JIT.ERR.MID
       356**DCL       356--REDEF
B$JIT$
      4189**DCL       350--IMP-PTR  4216>>ASSIGN   4217>>ASSIGN   4232>>ASSIGN   4234>>ASSIGN   4244>>IF
      4249>>ASSIGN
ERRTRANSPORT
      4150**DCL      4234>>ASSIGN
HFC$LOCK
       556**DCL-ENT  4201--CALL
PL6.E3A0      #007=KIS$OSI_DACT File=KIS$OSI.:E05TSI                             WED 07/30/97 00:44 Page:254
HFC$UNLOCK
       556**DCL-ENT  4205--CALL     4267--CALL
JITERR
      4194**DCL      4216<<ASSIGN   4248>>IF       4249>>ASSIGN
K$RWPARM
      1374**DCL      4211<<ASSIGN   4224<>CALL
K$RWPARM.BLKREC
      1400**DCL      1425--REDEF
K$RWPARM.BLKREC.BLKU#
      1401**DCL      1403--REDEF
K$RWPARM.BLKREC.RECU#
      1413**DCL      1415--REDEF
K$RWPARM.DVE.DVBYTE.VFC
      1440**DCL      1441--REDEF
K$RWPARM.DVE.EOMCHAR
      1448**DCL      1452--REDEF
K$RWPARM.ERR
      1512**DCL      1517--REDEF    4213<<ASSIGN   4231>>IF
K$RWPARM.FC
      1476**DCL      1477--REDEF
K$RWPARM.FLDID
      1658**DCL      1659--REDEF
K$RWPARM.FPT$
      1539**DCL      1546--REDEF
K$RWPARM.FUNCTION
      1553**DCL      4212<<ASSIGN
K$RWPARM.KEYTYPE
      1665**DCL      1666--REDEF
K$RWPARM.MSG$
      1375**DCL      1381--REDEF
K$RWPARM.MSGID
      1487**DCL      1492--REDEF
K$RWPARM.MSGIDXT
      1500**DCL      1504--REDEF
K$RWPARM.MSG_ERRCODE
      1635**DCL      4232>>ASSIGN
PL6.E3A0      #007=KIS$OSI_DACT File=KIS$OSI.:E05TSI                             WED 07/30/97 00:44 Page:255
K$RWPARM.ORG
      1636**DCL      1637--REDEF
K$RWPARM.TCTX#
      1610**DCL      4222<<ASSIGN
K$RWPARM.THDRSZ
      1580**DCL      1584--REDEF
K$RWPARM.VDOFLGS
      1638**DCL      1649--REDEF
KIS_MAJOR$
      4190**DCL      4210>>ASSIGN   4264>>ASSIGN   4265>>ASSIGN
KIS_MINOR$
      4191**DCL      4219>>ASSIGN   4255>>ASSIGN   4256>>ASSIGN
KIS_OSILOCK
      4192**DCL      4201<>CALL     4205<>CALL     4267<>CALL
KIT$SEND
      4186**DCL-ENT  4224--CALL
K_RWPARM_CON
      1057**DCL      4211>>ASSIGN
K_RWPARM_CON.BLKREC
      1083**DCL      1108--REDEF
K_RWPARM_CON.BLKREC.BLKU#
      1084**DCL      1086--REDEF
K_RWPARM_CON.BLKREC.RECU#
      1096**DCL      1098--REDEF
K_RWPARM_CON.DVE.DVBYTE.VFC
      1123**DCL      1124--REDEF
K_RWPARM_CON.DVE.EOMCHAR
      1131**DCL      1135--REDEF
K_RWPARM_CON.ERR
      1195**DCL      1200--REDEF
K_RWPARM_CON.FC
      1159**DCL      1160--REDEF
K_RWPARM_CON.FLDID
      1341**DCL      1342--REDEF
K_RWPARM_CON.FPT$
      1222**DCL      1229--REDEF
PL6.E3A0      #007=KIS$OSI_DACT File=KIS$OSI.:E05TSI                             WED 07/30/97 00:44 Page:256
K_RWPARM_CON.KEYTYPE
      1348**DCL      1349--REDEF
K_RWPARM_CON.MSG$
      1058**DCL      1064--REDEF
K_RWPARM_CON.MSGID
      1170**DCL      1175--REDEF
K_RWPARM_CON.MSGIDXT
      1183**DCL      1187--REDEF
K_RWPARM_CON.ORG
      1319**DCL      1320--REDEF
K_RWPARM_CON.THDRSZ
      1263**DCL      1267--REDEF
K_RWPARM_CON.VDOFLGS
      1321**DCL      1332--REDEF
LINK
      4195**DCL      4215<<ASSIGN   4218>>DOWHILE  4219>>ASSIGN   4241<<ASSIGN
MAJOR$
      4196**DCL      4210<<ASSIGN   4215>>ASSIGN   4253>>IF       4256>>ASSIGN   4259>>ASSIGN   4260>>ASSIGN
      4261>>ASSIGN   4262>>ASSIGN   4263>>ASSIGN   4264>>ASSIGN
MINOR$
      4197**DCL      4219<<ASSIGN   4220>>IF       4222>>ASSIGN   4227>>ASSIGN   4241>>ASSIGN   4255>>ASSIGN
N$DCT$$
      3105**DCL      3105--IMP-PTR  4251>>CALL
NK$LDCT
      3247**DCL        34--PROC
NK$LDCT.DDT$
      3249**DCL      3249--REDEF
NK$LDCT.IOQ$
      3248**DCL      3249--REDEF
NK$LDCT.LDCTX
      3250**DCL      3250--REDEF    4251>>CALL
NK$LDCT.LKFLG.ABORTED
      3262**DCL      3263--REDEF
NK$LDCT.LKFLG.ACTIVE
      3266**DCL      4203>>IF       4214<<ASSIGN
NK$LDCT.RLCID.LDCTX
PL6.E3A0      #007=KIS$OSI_DACT File=KIS$OSI.:E05TSI                             WED 07/30/97 00:44 Page:257
      3272**DCL      3272--REDEF
NK$LDCT.STA$
      3268**DCL      3269--REDEF
NK$LDCT.SYMB$
      3247**DCL      3247--REDEF    3247--REDEF    3248--REDEF
NK$LDCT.TH.STR
      3273**DCL      4209>>ASSIGN
NK$LDCT$
      3105**DCL      4251<>CALL
NKL$RELDCT
      4185**DCL-ENT  4251--CALL
SCID
      4198**DCL      4209<<ASSIGN   4210>>ASSIGN   4265>>ASSIGN
SC_PRTCL_SNAP
      4187**DCL-ENT  4245--CALL

PL6.E3A0      #008=KIS$OSI_SEND File=KIS$OSI.:E05TSI                             WED 07/30/97 00:44 Page:258
     1526        1        /*T***********************************************************/
     1527        2        /*T*                                                         */
     1528        3        /*T* Copyright (c) Bull HN Information Systems Inc., 1997    */
     1529        4        /*T*                                                         */
     1530        5        /*T***********************************************************/
     1531        6        /*F*    NAME:   KIS$OSI_SEND
     1532        7                PURPOSE:  Scoop up any outgoing messages from server comgroup.
     1533        8        */
     1534        9        /*D*    NAME:   KIS$OSI_SEND
     1535       10                CALL:   CALL KIS$OSI_SEND( NK$LDCT, K$RWPARM) ALTRET( label);
     1536       11                INPUT:
     1537       12                    NK$LDCT - the NK_OSISTA LDCT for this application,
     1538       13                    K$RWPARM - parameters for the message to be sent.
     1539       14                OUTPUT:
     1540       15                    On successful call,
     1541       16                      None.  The message is written into the network.
     1542       17                    On unsuccessful call,
     1543       18                      K$RWPARM.ERR is set to an appropriate error code,
     1544       19                      ALTRETURN is taken.
     1545       20                      If Transport is unable to forward the message, we attempt to
     1546       21                      reissue the CG read anyway.
     1547       22                DESCRIPTION:
     1548       23                    KIS$OSI_SEND is called from KCD$WRITE when a message has been
     1549       24                    written into the server comgroup aimed at the monitor terminal
     1550       25                    station.  The message is dumped into the network and the CG
     1551       26                    read is reissued.
     1552       27        */
     1553       28        KIS$OSI_SEND: PROC( NK$LDCT, K$RWPARM) ALTRET;
     1554       29        %INCLUDE B_STRINGS_C;
     1555      158        %INCLUDE CP_6;
     1556     5717        %INCLUDE CP_6_SUBS;
     1557     6257            %B$NWIO( NAME=NWIO, STCLASS=AUTO, PARONLY=1);
     1558     6338            %SUB_EXC;
     1559     6385        %INCLUDE HF_LOCK_C;
     1560     6399        %INCLUDE K_ADDRESS_M;
     1561     6902        %INCLUDE K_INTERFACE_M;
     1562     7311            %K$FPT_CONNECT_OSI;
PL6.E3A0      #008=KIS$OSI_SEND File=KIS$OSI.:E05TSI                             WED 07/30/97 00:44 Page:259
     1563     7648        %INCLUDE K_SESSION_M;
     1564     7738            %KIS$APPL( NAME=APPL, STCLASS=BASED);
     1565     7807            %KIS$GLUE( NAME=GLUE, STCLASS="BASED( K$RWPARM.MSG$)");
     1566     7837        %INCLUDE K_DATA_R;
     1567     8548            %K$RWPARM( NAME=K$RWPARM, STCLASS="");
     1568     8864            %K$RWPARM( NAME=OSIPARM, STCLASS=AUTO);
     1569     9180        %INCLUDE K_SUBS_C;
     1570     9213        %INCLUDE NK_SUBS;
     1571     9238        %INCLUDE NK$LDCT;
     1572     9340            %NK$LDCT( STCLASS="");
     1573     9386        %INCLUDE SS_SCHED_C;
     1574     9619        %EQU XSS_EVID = 23111251;  /* that's 'XSS' as an integer... */
     1575     9620
     1576     9621    1       DCL KIA$OQFL ENTRY(1) ALTRET;
     1577     9622    1       DCL KIT$SEND ENTRY(1) ALTRET;
     1578     9623    1       DCL SSR$RUE ENTRY(4);
     1579     9624    1       DCL SSV$EVENT ENTRY(7);
     1580     9625    1       DCL SC_PRTCL_SNAP ENTRY CONV(2,0);
     1581     9626
     1582     9627    1       DCL KIS_MAJOR$ PTR SYMREF;
     1583     9628    1       DCL KIS_MINOR$ PTR SYMREF;
     1584     9629
     1585     9630    1       DCL I UBIN;
     1586     9631    1       DCL MAJOR$ PTR;
     1587     9632    1       DCL MINOR$ PTR;
     1588     9633    1       DCL SCID SBIN;
     1589     9634
     1590     9635    1       K$RWPARM.ERR = 0;
     1591     9636            /* set up for passing the message on to Transport */
     1592     9637    1       OSIPARM = K_RWPARM_CON;
     1593     9638    1       OSIPARM.FUNCTION = GLUE.TRNFNC;
     1594     9639            /* get the major and minor SCIDs */
     1595     9640    1       SCID = NK$LDCT.TH.STR;
     1596     9641    1       I = GLUE.MAGIC;
     1597     9642    1       MAJOR$ = PINCRW( KIS_MAJOR$, SCID);
     1598     9643    1       MINOR$ = PINCRW( KIS_MINOR$, I);
     1599     9644    1       MINOR$->APPL.Z.COOKIE = GLUE.MYSCID;
PL6.E3A0      #008=KIS$OSI_SEND File=KIS$OSI.:E05TSI                             WED 07/30/97 00:44 Page:260
     1600     9645    2       DO CASE( GLUE.TRNFNC);
     1601     9646    2           CASE( %K_TCREDIT);
     1602     9647                    /* This is an idiot credit message from the library */
     1603     9648    2               OSIPARM.SSN_CRDT = 1;
     1604     9649    2           CASE( %K_TCONNECT_RSP);
     1605     9650                    /* This is a T-CONNECT Response */
     1606     9651    2               OSIPARM.FPT$ = ADDR( GLUE.DATA);
     1607     9652    2               OSIPARM.FPT$->K$FPT_CONNECT_OSI.SCID = SCID * 512 + I;
     1608     9653    2           CASE( %K_TDISCONNECT_REQ);
     1609     9654                    /* This is a T-DISCONNECT Req */
     1610     9655    2               OSIPARM.FPT$ = ADDR( GLUE.DATA);
     1611     9656    2           CASE( %K_TDATA_REQ,
     1612     9657    2                 %K_TEXPD_DATA_REQ);
     1613     9658                    /* This is a T-DATA Request or T-EXPEDITED-DATA Request */
     1614     9659    2               OSIPARM.SHDR$ = ADDR( GLUE.DATA);
     1615     9660    2               OSIPARM.SHDRSZ = K$RWPARM.MSGSZ - 4;
     1616     9661    2           END;
     1617     9662            /* determine which Transport connection */
     1618     9663    1       OSIPARM.TCTX# = MINOR$->APPL.TCTX;
     1619     9664            /* send the message on to Transport */
     1620     9665            %LOCK( G=NK$LDCT.LOCK);
     1621     9668    1   TRYSEND:
     1622     9669    1       CALL KIT$SEND( OSIPARM)
     1623     9670    2       WHENRETURN DO;
     1624     9671                %UNLOCK( G=NK$LDCT.LOCK);
     1625     9674    2           IF GLUE.TRNFNC = %K_TDISCONNECT_REQ THEN
     1626     9675    2               MINOR$->APPL.TCTX = 0;  /* successful disconnect */
     1627     9676    2           END;
     1628     9677    2       WHENALTRETURN DO;
     1629     9678                /* Transport has filled in OSIPARM.ERR */
     1630     9679    3           IF OSIPARM.ERR = %K$QFULL THEN DO;
     1631     9680    3               CALL KIA$OQFL( NK$LDCT)
     1632     9681    4               WHENALTRETURN DO;
     1633     9682                        %UNLOCK( G=NK$LDCT.LOCK);
     1634     9685    4                   GOTO SNAP;
     1635     9686    4                   END;
     1636     9687    3               GOTO TRYSEND;
PL6.E3A0      #008=KIS$OSI_SEND File=KIS$OSI.:E05TSI                             WED 07/30/97 00:44 Page:261
     1637     9688    3               END;
     1638     9689                %UNLOCK( G=NK$LDCT.LOCK);
     1639     9692    2           IF OSIPARM.ERR ~= %K$USER_ERR THEN
     1640     9693    2   SNAP:
     1641     9694    2               CALL SC_PRTCL_SNAP;
     1642     9695    2           END;
     1643     9696    2       IF OSIPARM.ERR ~= 0 THEN DO;
     1644     9697                /* must have been Transport-reported error */
     1645     9698                /* This will be given to the Session library as a no-wait
     1646     9699                   read event.  We don't care about decrementing Transport
     1647     9700                   credits because the event will abort the application. */
     1648     9701    2           NWIO = '0'B;
     1649     9702    2           NWIO.P# = SIZEW( NWIO) - SIZEW( NWIO.P#);
     1650     9703    2           NWIO.TYC = %TYC_LAST;
     1651     9704    2           IF OSIPARM.ERR = %K$USER_ERR THEN
     1652     9705    2               NWIO.IOERRCODE = OSIPARM.MSG_ERRCODE;
     1653     9706    2           ELSE
     1654     9707    2               NWIO.IOERRCODE = '0'B;
     1655     9708    2           CALL SSV$EVENT( MAJOR$->APPL.Z.USER, %USERWSR, %SUBC_IO#,
     1656     9709    2                   %XSS_EVID*512 + MINOR$->APPL.Z.COOKIE,
     1657     9710    2                   OSIPARM.ERR, ADDR( NWIO));
     1658     9711    2           CALL SSR$RUE( %SS_FPEVNT, MAJOR$->APPL.Z.USER);
     1659     9712    2           END;
     1660     9713            /* now let CG-land reissue the read for us... */
     1661     9714    1       RETURN;
     1662     9715
     1663     9716    1       END KIS$OSI_SEND;
     1664     9717        %EOD;

PL6.E3A0      #008=KIS$OSI_SEND File=KIS$OSI.:E05TSI                             WED 07/30/97 00:44 Page:262
--  Include file information  --

   SS_SCHED_C.:E05TOU  is referenced.
   NK$LDCT.:E05TOU  is referenced.
   NK_SUBS.:E05TOU  is referenced.
   K_SUBS_C.:E05TOU  is referenced.
   K$RWPARM.:E05TOU  is referenced.
   K_DATA_R.:E05TOU  cannot be made into a system file and is referenced.
   K_SESSION_M.:E05TOU  is referenced.
   K_INTERFACE_M.:E05TOU  is referenced.
   K_ADDRESS_M.:E05TOU  is referenced.
   HF_LOCK_C.:E05TOU  cannot be made into a system file and is referenced.
   CP_6_SUBS.:E05TOU  is referenced.
   CP_6_C.:E05TOU  is referenced.
   CP_6.:E05TOU  cannot be made into a system file and is referenced.
   B_STRINGS_C.:E05TOU  is referenced.
      No diagnostics issued in procedure KIS$OSI_SEND.

   Procedure KIS$OSI_SEND requires 174 words for executable code.
   Procedure KIS$OSI_SEND requires 70 words of local(AUTO) storage.

PL6.E3A0      #008=KIS$OSI_SEND File=KIS$OSI.:E05TSI                             WED 07/30/97 00:44 Page:263

 Object Unit name= KIS$OSI_SEND                               File name= KIS$OSI.:E05TOU
 UTS= JUL 30 '97 00:44:33.32 WED                              Compiler= PL-6/E31         Sev=      00
 SharedLib= :SHARED_SYSTEM                                    Alt SharedLib=


    ****  Control sections  ****

 Sect   Type Bound  Init  Size OctSiz  Section name(segment info)
    0   DCB   even  none     0      0  M$UC
    1   Proc  even  none   174    256  KIS$OSI_SEND
    2  RoData even  none     5      5  KIS$OSI_SEND

    ****  Entry defs  ****

                              Check   Calling
                             calling  sequence
  Sect OctLoc Primary Altret sequence   type   Parms  Name
     1      0   yes    yes     yes      Std        2  KIS$OSI_SEND

  ****  Entry refs  ****

         Check        Calling
        calling       sequence
Altret sequence SRef   type   Args  Name
         yes           Std       1 HFC$LOCK
 yes     yes           Std       1 KIT$SEND
         yes           Std       1 HFC$UNLOCK
         yes           Std       7 SSV$EVENT
 yes     yes           Std       1 KIA$OQFL
         yes           Std       4 SSR$RUE
                       Std       0 B_CONSPOOL_D
                       nStd      0 X66_AUTO_2
                       nStd      0 X66_ARET
PL6.E3A0      #008=KIS$OSI_SEND File=KIS$OSI.:E05TSI                             WED 07/30/97 00:44 Page:264

  ****  Data refs  ****

  Flags:  r = read only, s = secondary
Flgs Name                             Flgs Name                             Flgs Name
     SC_PRTCL_SNAP                         M$UC                             r    K_RWPARM_CON
     KIS_MAJOR$                            KIS_MINOR$                            B_VECTNIL

  ****  Segment refs  ****

  Flags:  r = read only, s = secondary
Flgs Name                             Flgs Name                             Flgs Name
     ASLENTSID                             ISSID
PL6.E3A0      #008=KIS$OSI_SEND File=KIS$OSI.:E05TSI                             WED 07/30/97 00:44 Page:265


     1526        1        /*T***********************************************************/
     1527        2        /*T*                                                         */
     1528        3        /*T* Copyright (c) Bull HN Information Systems Inc., 1997    */
     1529        4        /*T*                                                         */
     1530        5        /*T***********************************************************/
     1531        6        /*F*    NAME:   KIS$OSI_SEND
     1532        7                PURPOSE:  Scoop up any outgoing messages from server comgroup.
     1533        8        */
     1534        9        /*D*    NAME:   KIS$OSI_SEND
     1535       10                CALL:   CALL KIS$OSI_SEND( NK$LDCT, K$RWPARM) ALTRET( label);
     1536       11                INPUT:
     1537       12                    NK$LDCT - the NK_OSISTA LDCT for this application,
     1538       13                    K$RWPARM - parameters for the message to be sent.
     1539       14                OUTPUT:
     1540       15                    On successful call,
     1541       16                      None.  The message is written into the network.
     1542       17                    On unsuccessful call,
     1543       18                      K$RWPARM.ERR is set to an appropriate error code,
     1544       19                      ALTRETURN is taken.
     1545       20                      If Transport is unable to forward the message, we attempt to
     1546       21                      reissue the CG read anyway.
     1547       22                DESCRIPTION:
     1548       23                    KIS$OSI_SEND is called from KCD$WRITE when a message has been
     1549       24                    written into the server comgroup aimed at the monitor terminal
     1550       25                    station.  The message is dumped into the network and the CG
     1551       26                    read is reissued.
     1552       27        */
     1553       28        KIS$OSI_SEND: PROC( NK$LDCT, K$RWPARM) ALTRET;

     28  1 000000   000000 700200 xent  KIS$OSI_SEND TSX0  ! X66_AUTO_2
         1 000001   000106 000002                    ZERO    70,2

     1554       29        %INCLUDE B_STRINGS_C;
     1555      158        %INCLUDE CP_6;
     1556     5717        %INCLUDE CP_6_SUBS;
     1557     6257            %B$NWIO( NAME=NWIO, STCLASS=AUTO, PARONLY=1);
PL6.E3A0      #008=KIS$OSI_SEND File=KIS$OSI.:E05TSI                             WED 07/30/97 00:44 Page:266
     1558     6338            %SUB_EXC;
     1559     6385        %INCLUDE HF_LOCK_C;
     1560     6399        %INCLUDE K_ADDRESS_M;
     1561     6902        %INCLUDE K_INTERFACE_M;
     1562     7311            %K$FPT_CONNECT_OSI;
     1563     7648        %INCLUDE K_SESSION_M;
     1564     7738            %KIS$APPL( NAME=APPL, STCLASS=BASED);
     1565     7807            %KIS$GLUE( NAME=GLUE, STCLASS="BASED( K$RWPARM.MSG$)");
     1566     7837        %INCLUDE K_DATA_R;
     1567     8548            %K$RWPARM( NAME=K$RWPARM, STCLASS="");
     1568     8864            %K$RWPARM( NAME=OSIPARM, STCLASS=AUTO);
     1569     9180        %INCLUDE K_SUBS_C;
     1570     9213        %INCLUDE NK_SUBS;
     1571     9238        %INCLUDE NK$LDCT;
     1572     9340            %NK$LDCT( STCLASS="");
     1573     9386        %INCLUDE SS_SCHED_C;
     1574     9619        %EQU XSS_EVID = 23111251;  /* that's 'XSS' as an integer... */
     1575     9620
     1576     9621    1       DCL KIA$OQFL ENTRY(1) ALTRET;
     1577     9622    1       DCL KIT$SEND ENTRY(1) ALTRET;
     1578     9623    1       DCL SSR$RUE ENTRY(4);
     1579     9624    1       DCL SSV$EVENT ENTRY(7);
     1580     9625    1       DCL SC_PRTCL_SNAP ENTRY CONV(2,0);
     1581     9626
     1582     9627    1       DCL KIS_MAJOR$ PTR SYMREF;
     1583     9628    1       DCL KIS_MINOR$ PTR SYMREF;
     1584     9629
     1585     9630    1       DCL I UBIN;
     1586     9631    1       DCL MAJOR$ PTR;
     1587     9632    1       DCL MINOR$ PTR;
     1588     9633    1       DCL SCID SBIN;
     1589     9634
     1590     9635    1       K$RWPARM.ERR = 0;

   9635  1 000002   200004 470500                    LDP0    @K$RWPARM,,AUTO
         1 000003   000013 450100                    STZ     11,,PR0

PL6.E3A0      #008=KIS$OSI_SEND File=KIS$OSI.:E05TSI                             WED 07/30/97 00:44 Page:267
     1591     9636            /* set up for passing the message on to Transport */
     1592     9637    1       OSIPARM = K_RWPARM_CON;

   9637  1 000004   000100 100400                    MLR     fill='000'O
         1 000005   000000 000234 xsym               ADSC9   K_RWPARM_CON             cn=0,n=156
         1 000006   200022 000234                    ADSC9   OSIPARM,,AUTO            cn=0,n=156

     1593     9638    1       OSIPARM.FUNCTION = GLUE.TRNFNC;

   9638  1 000007   000000 471500                    LDP1    0,,PR0
         1 000010   100000 236100                    LDQ     0,,PR1
         1 000011   000022 772000                    QRL     18
         1 000012   000777 376007                    ANQ     511,DL
         1 000013   200042 756100                    STQ     OSIPARM+16,,AUTO

     1594     9639            /* get the major and minor SCIDs */
     1595     9640    1       SCID = NK$LDCT.TH.STR;

   9640  1 000014   200003 471500                    LDP1    @NK$LDCT,,AUTO
         1 000015   100016 236100                    LDQ     14,,PR1
         1 000016   000022 772000                    QRL     18
         1 000017   000777 376007                    ANQ     511,DL
         1 000020   200075 756100                    STQ     SCID,,AUTO

     1596     9641    1       I = GLUE.MAGIC;

   9641  1 000021   000000 473500                    LDP3    0,,PR0
         1 000022   300000 236100                    LDQ     0,,PR3
         1 000023   000777 376007                    ANQ     511,DL
         1 000024   200072 756100                    STQ     I,,AUTO

     1597     9642    1       MAJOR$ = PINCRW( KIS_MAJOR$, SCID);

   9642  1 000025   200075 236100                    LDQ     SCID,,AUTO
         1 000026   000022 736000                    QLS     18
         1 000027   000000 036000 xsym               ADLQ    KIS_MAJOR$
         1 000030   200073 756100                    STQ     MAJOR$,,AUTO
PL6.E3A0      #008=KIS$OSI_SEND File=KIS$OSI.:E05TSI                             WED 07/30/97 00:44 Page:268

     1598     9643    1       MINOR$ = PINCRW( KIS_MINOR$, I);

   9643  1 000031   200072 236100                    LDQ     I,,AUTO
         1 000032   000022 736000                    QLS     18
         1 000033   000000 036000 xsym               ADLQ    KIS_MINOR$
         1 000034   200074 756100                    STQ     MINOR$,,AUTO

     1599     9644    1       MINOR$->APPL.Z.COOKIE = GLUE.MYSCID;

   9644  1 000035   200074 474500                    LDP4    MINOR$,,AUTO
         1 000036   300000 236100                    LDQ     0,,PR3
         1 000037   000022 772000                    QRL     18
         1 000040   400000 552110                    STBQ    0,'10'O,PR4

     1600     9645    2       DO CASE( GLUE.TRNFNC);

   9645  1 000041   000000 473500                    LDP3    0,,PR0
         1 000042   300000 236100                    LDQ     0,,PR3
         1 000043   000022 772000                    QRL     18
         1 000044   000777 376007                    ANQ     511,DL
         1 000045   000026 136007                    SBLQ    22,DL
         1 000046   000005 116007                    CMPQ    5,DL
         1 000047   000051 602006 1                  TNC     s:9645+8,QL
         1 000050   000100 710000 1                  TRA     s:9663
         1 000051   000061 710000 1                  TRA     s:9651
         1 000052   000073 710000 1                  TRA     s:9659
         1 000053   000073 710000 1                  TRA     s:9659
         1 000054   000070 710000 1                  TRA     s:9655
         1 000055   000056 710000 1                  TRA     s:9648

     1601     9646    2           CASE( %K_TCREDIT);

     1602     9647                    /* This is an idiot credit message from the library */
     1603     9648    2               OSIPARM.SSN_CRDT = 1;

   9648  1 000056   000001 235007                    LDA     1,DL
PL6.E3A0      #008=KIS$OSI_SEND File=KIS$OSI.:E05TSI                             WED 07/30/97 00:44 Page:269
         1 000057   200047 755100                    STA     OSIPARM+21,,AUTO
         1 000060   000100 710000 1                  TRA     s:9663

     1604     9649    2           CASE( %K_TCONNECT_RSP);

     1605     9650                    /* This is a T-CONNECT Response */
     1606     9651    2               OSIPARM.FPT$ = ADDR( GLUE.DATA);

   9651  1 000061   300001 635500                    EPPR5   1,,PR3
         1 000062   200041 455500                    STP5    OSIPARM+15,,AUTO

     1607     9652    2               OSIPARM.FPT$->K$FPT_CONNECT_OSI.SCID = SCID * 512 + I;

   9652  1 000063   200075 236100                    LDQ     SCID,,AUTO
         1 000064   000011 736000                    QLS     9
         1 000065   200072 036100                    ADLQ    I,,AUTO
         1 000066   500005 756100                    STQ     5,,PR5
         1 000067   000100 710000 1                  TRA     s:9663

     1608     9653    2           CASE( %K_TDISCONNECT_REQ);

     1609     9654                    /* This is a T-DISCONNECT Req */
     1610     9655    2               OSIPARM.FPT$ = ADDR( GLUE.DATA);

   9655  1 000070   300001 635500                    EPPR5   1,,PR3
         1 000071   200041 455500                    STP5    OSIPARM+15,,AUTO
         1 000072   000100 710000 1                  TRA     s:9663

     1611     9656    2           CASE( %K_TDATA_REQ,

     1612     9657    2                 %K_TEXPD_DATA_REQ);
     1613     9658                    /* This is a T-DATA Request or T-EXPEDITED-DATA Request */
     1614     9659    2               OSIPARM.SHDR$ = ADDR( GLUE.DATA);

   9659  1 000073   300001 635500                    EPPR5   1,,PR3
         1 000074   200044 455500                    STP5    OSIPARM+18,,AUTO

PL6.E3A0      #008=KIS$OSI_SEND File=KIS$OSI.:E05TSI                             WED 07/30/97 00:44 Page:270
     1615     9660    2               OSIPARM.SHDRSZ = K$RWPARM.MSGSZ - 4;

   9660  1 000075   000001 235100                    LDA     1,,PR0
         1 000076   000004 135007                    SBLA    4,DL
         1 000077   200045 755100                    STA     OSIPARM+19,,AUTO

     1616     9661    2           END;

     1617     9662            /* determine which Transport connection */
     1618     9663    1       OSIPARM.TCTX# = MINOR$->APPL.TCTX;

   9663  1 000100   400000 220100                    LDX0    0,,PR4
         1 000101   200055 740100                    STX0    OSIPARM+27,,AUTO

     1619     9664            /* send the message on to Transport */
     1620     9665            %LOCK( G=NK$LDCT.LOCK);

   9666  1 000102   200003 236100                    LDQ     @NK$LDCT,,AUTO
         1 000103   000020 036003                    ADLQ    16,DU
         1 000104   200076 756100                    STQ     SCID+1,,AUTO
         1 000105   200076 630500                    EPPR0   SCID+1,,AUTO
         1 000106   000017 631400 xsym               EPPR1   B_VECTNIL+15
         1 000107   000000 701000 xent               TSX1    HFC$LOCK
         1 000110   000000 011000                    NOP     0

     1621     9668    1   TRYSEND:
     1622     9669    1       CALL KIT$SEND( OSIPARM)

   9669  1 000111   200022 630500       TRYSEND      EPPR0   OSIPARM,,AUTO
         1 000112   200076 450500                    STP0    SCID+1,,AUTO
         1 000113   200076 630500                    EPPR0   SCID+1,,AUTO
         1 000114   000017 631400 xsym               EPPR1   B_VECTNIL+15
         1 000115   000000 701000 xent               TSX1    KIT$SEND
         1 000116   000140 702000 1                  TSX2    s:9679

     1623     9670    2       WHENRETURN DO;

PL6.E3A0      #008=KIS$OSI_SEND File=KIS$OSI.:E05TSI                             WED 07/30/97 00:44 Page:271
     1624     9671                %UNLOCK( G=NK$LDCT.LOCK);

   9672  1 000117   200003 236100                    LDQ     @NK$LDCT,,AUTO
         1 000120   000020 036003                    ADLQ    16,DU
         1 000121   200076 756100                    STQ     SCID+1,,AUTO
         1 000122   200076 630500                    EPPR0   SCID+1,,AUTO
         1 000123   000017 631400 xsym               EPPR1   B_VECTNIL+15
         1 000124   000000 701000 xent               TSX1    HFC$UNLOCK
         1 000125   000000 011000                    NOP     0

     1625     9674    2           IF GLUE.TRNFNC = %K_TDISCONNECT_REQ THEN

   9674  1 000126   200004 470500                    LDP0    @K$RWPARM,,AUTO
         1 000127   000000 471500                    LDP1    0,,PR0
         1 000130   100000 236100                    LDQ     0,,PR1
         1 000131   000777 376003                    ANQ     511,DU
         1 000132   000031 116003                    CMPQ    25,DU
         1 000133   000137 601000 1                  TNZ     s:9676

     1626     9675    2               MINOR$->APPL.TCTX = 0;  /* successful disconnect */

   9675  1 000134   000000 220003                    LDX0    0,DU
         1 000135   200074 473500                    LDP3    MINOR$,,AUTO
         1 000136   300000 740100                    STX0    0,,PR3

     1627     9676    2           END;

   9676  1 000137   000175 710000 1                  TRA     s:9696

     1628     9677    2       WHENALTRETURN DO;

     1629     9678                /* Transport has filled in OSIPARM.ERR */
     1630     9679    3           IF OSIPARM.ERR = %K$QFULL THEN DO;

   9679  1 000140   200035 235100                    LDA     OSIPARM+11,,AUTO
         1 000141   000001 115007                    CMPA    1,DL
         1 000142   000161 601000 1                  TNZ     s:9690
PL6.E3A0      #008=KIS$OSI_SEND File=KIS$OSI.:E05TSI                             WED 07/30/97 00:44 Page:272

     1631     9680    3               CALL KIA$OQFL( NK$LDCT)

   9680  1 000143   200003 630500                    EPPR0   @NK$LDCT,,AUTO
         1 000144   000017 631400 xsym               EPPR1   B_VECTNIL+15
         1 000145   000000 701000 xent               TSX1    KIA$OQFL
         1 000146   000150 702000 1                  TSX2    s:9683
         1 000147   000160 710000 1                  TRA     s:9687

     1632     9681    4               WHENALTRETURN DO;

     1633     9682                        %UNLOCK( G=NK$LDCT.LOCK);

   9683  1 000150   200003 236100                    LDQ     @NK$LDCT,,AUTO
         1 000151   000020 036003                    ADLQ    16,DU
         1 000152   200076 756100                    STQ     SCID+1,,AUTO
         1 000153   200076 630500                    EPPR0   SCID+1,,AUTO
         1 000154   000017 631400 xsym               EPPR1   B_VECTNIL+15
         1 000155   000000 701000 xent               TSX1    HFC$UNLOCK
         1 000156   000000 011000                    NOP     0

     1634     9685    4                   GOTO SNAP;

   9685  1 000157   000173 710000 1                  TRA     SNAP

     1635     9686    4                   END;
     1636     9687    3               GOTO TRYSEND;

   9687  1 000160   000111 710000 1                  TRA     TRYSEND

     1637     9688    3               END;
     1638     9689                %UNLOCK( G=NK$LDCT.LOCK);

   9690  1 000161   200003 236100                    LDQ     @NK$LDCT,,AUTO
         1 000162   000020 036003                    ADLQ    16,DU
         1 000163   200076 756100                    STQ     SCID+1,,AUTO
         1 000164   200076 630500                    EPPR0   SCID+1,,AUTO
PL6.E3A0      #008=KIS$OSI_SEND File=KIS$OSI.:E05TSI                             WED 07/30/97 00:44 Page:273
         1 000165   000017 631400 xsym               EPPR1   B_VECTNIL+15
         1 000166   000000 701000 xent               TSX1    HFC$UNLOCK
         1 000167   000000 011000                    NOP     0

     1639     9692    2           IF OSIPARM.ERR ~= %K$USER_ERR THEN

   9692  1 000170   200035 235100                    LDA     OSIPARM+11,,AUTO
         1 000171   000010 115007                    CMPA    8,DL
         1 000172   000175 600000 1                  TZE     s:9696

     1640     9693    2   SNAP:
     1641     9694    2               CALL SC_PRTCL_SNAP;

   9694  1 000173   000000 713400 xsym  SNAP         CLIMB   SC_PRTCL_SNAP
         1 000174   000000 600000 xsid               climb   nvectors=         0

     1642     9695    2           END;

     1643     9696    2       IF OSIPARM.ERR ~= 0 THEN DO;

   9696  1 000175   200035 235100                    LDA     OSIPARM+11,,AUTO
         1 000176   000255 600000 1                  TZE     s:9714

     1644     9697                /* must have been Transport-reported error */
     1645     9698                /* This will be given to the Session library as a no-wait
     1646     9699                   read event.  We don't care about decrementing Transport
     1647     9700                   credits because the event will abort the application. */
     1648     9701    2           NWIO = '0'B;

   9701  1 000177   000100 100400                    MLR     fill='000'O
         1 000200   000002 000001 xsym               ADSC9   B_VECTNIL+2              cn=0,n=1
         1 000201   200005 000064                    ADSC9   NWIO,,AUTO               cn=0,n=52

     1649     9702    2           NWIO.P# = SIZEW( NWIO) - SIZEW( NWIO.P#);

   9702  1 000202   000014 236007                    LDQ     12,DL
         1 000203   200005 756100                    STQ     NWIO,,AUTO
PL6.E3A0      #008=KIS$OSI_SEND File=KIS$OSI.:E05TSI                             WED 07/30/97 00:44 Page:274

     1650     9703    2           NWIO.TYC = %TYC_LAST;

   9703  1 000204   000017 236000 xsym               LDQ     B_VECTNIL+15
         1 000205   200006 756100                    STQ     NWIO+1,,AUTO

     1651     9704    2           IF OSIPARM.ERR = %K$USER_ERR THEN

   9704  1 000206   000010 115007                    CMPA    8,DL
         1 000207   000213 601000 1                  TNZ     s:9707

     1652     9705    2               NWIO.IOERRCODE = OSIPARM.MSG_ERRCODE;

   9705  1 000210   200061 236100                    LDQ     OSIPARM+31,,AUTO
         1 000211   200021 756100                    STQ     NWIO+12,,AUTO
         1 000212   000214 710000 1                  TRA     s:9708

     1653     9706    2           ELSE
     1654     9707    2               NWIO.IOERRCODE = '0'B;

   9707  1 000213   200021 450100                    STZ     NWIO+12,,AUTO

     1655     9708    2           CALL SSV$EVENT( MAJOR$->APPL.Z.USER, %USERWSR, %SUBC_IO#,

   9708  1 000214   200074 470500                    LDP0    MINOR$,,AUTO
         1 000215   000000 236100                    LDQ     0,,PR0
         1 000216   000011 772000                    QRL     9
         1 000217   000777 376007                    ANQ     511,DL
         1 000220   000000 036000 2                  ADLQ    0
         1 000221   200076 756100                    STQ     SCID+1,,AUTO
         1 000222   200005 631500                    EPPR1   NWIO,,AUTO
         1 000223   200077 451500                    STP1    SCID+2,,AUTO
         1 000224   200077 633500                    EPPR3   SCID+2,,AUTO
         1 000225   200105 453500                    STP3    SCID+8,,AUTO
         1 000226   200035 634500                    EPPR4   OSIPARM+11,,AUTO
         1 000227   200104 454500                    STP4    SCID+7,,AUTO
         1 000230   200076 635500                    EPPR5   SCID+1,,AUTO
PL6.E3A0      #008=KIS$OSI_SEND File=KIS$OSI.:E05TSI                             WED 07/30/97 00:44 Page:275
         1 000231   200103 455500                    STP5    SCID+6,,AUTO
         1 000232   000001 236000 2                  LDQ     1
         1 000233   200102 756100                    STQ     SCID+5,,AUTO
         1 000234   000002 236000 2                  LDQ     2
         1 000235   200101 756100                    STQ     SCID+4,,AUTO
         1 000236   200073 236100                    LDQ     MAJOR$,,AUTO
         1 000237   400000 036007                    ADLQ    -131072,DL
         1 000240   200100 756100                    STQ     SCID+3,,AUTO
         1 000241   200100 630500                    EPPR0   SCID+3,,AUTO
         1 000242   000024 631400 xsym               EPPR1   B_VECTNIL+20
         1 000243   000000 701000 xent               TSX1    SSV$EVENT
         1 000244   000000 011000                    NOP     0

     1656     9709    2                   %XSS_EVID*512 + MINOR$->APPL.Z.COOKIE,
     1657     9710    2                   OSIPARM.ERR, ADDR( NWIO));
     1658     9711    2           CALL SSR$RUE( %SS_FPEVNT, MAJOR$->APPL.Z.USER);

   9711  1 000245   200073 236100                    LDQ     MAJOR$,,AUTO
         1 000246   400000 036007                    ADLQ    -131072,DL
         1 000247   000004 235000 2                  LDA     4
         1 000250   200076 757100                    STAQ    SCID+1,,AUTO
         1 000251   200076 630500                    EPPR0   SCID+1,,AUTO
         1 000252   000020 631400 xsym               EPPR1   B_VECTNIL+16
         1 000253   000000 701000 xent               TSX1    SSR$RUE
         1 000254   000000 011000                    NOP     0

     1659     9712    2           END;

     1660     9713            /* now let CG-land reissue the read for us... */
     1661     9714    1       RETURN;

   9714  1 000255   000000 702200 xent               TSX2  ! X66_ARET

(unnamed)
 Sect OctLoc
   2     000   130123 123000   000003 006000   000011 006000   000000 000053    XSS............+
   2     004   000003 006000                                                    ....
PL6.E3A0      #008=KIS$OSI_SEND File=KIS$OSI.:E05TSI                             WED 07/30/97 00:44 Page:276
     1662     9715
     1663     9716    1       END KIS$OSI_SEND;
     1664     9717        %EOD;

PL6.E3A0      #008=KIS$OSI_SEND File=KIS$OSI.:E05TSI                             WED 07/30/97 00:44 Page:277
--  Include file information  --

   SS_SCHED_C.:E05TOU  is referenced.
   NK$LDCT.:E05TOU  is referenced.
   NK_SUBS.:E05TOU  is referenced.
   K_SUBS_C.:E05TOU  is referenced.
   K$RWPARM.:E05TOU  is referenced.
   K_DATA_R.:E05TOU  cannot be made into a system file and is referenced.
   K_SESSION_M.:E05TOU  is referenced.
   K_INTERFACE_M.:E05TOU  is referenced.
   K_ADDRESS_M.:E05TOU  is referenced.
   HF_LOCK_C.:E05TOU  cannot be made into a system file and is referenced.
   CP_6_SUBS.:E05TOU  is referenced.
   CP_6_C.:E05TOU  is referenced.
   CP_6.:E05TOU  cannot be made into a system file and is referenced.
   B_STRINGS_C.:E05TOU  is referenced.
      No diagnostics issued in procedure KIS$OSI_SEND.
PL6.E3A0      #008=KIS$OSI_SEND File=KIS$OSI.:E05TSI                             WED 07/30/97 00:44 Page:278

 **** Variables and constants ****

  ****  Auto variables  ****

  ****  Scalars and arrays  ****
OctLoc.c.b A Datatyp(siz) R M Lvl/name                 OctLoc.c.b A Datatyp(siz) R M Lvl/name

     4-0-0/w PTR         r     1 @K$RWPARM                  3-0-0/w PTR         r     1 @NK$LDCT
    72-0-0/w UBIN        r     1 I                         *0-0-0/d STRC(1404)  r     1 K$RWPARM
    73-0-0/w PTR         r     1 MAJOR$                    74-0-0/w PTR         r     1 MINOR$
    *0-0-0/d STRC(864)   r     1 NK$LDCT                    5-0-0/w STRC(468)   r     1 NWIO
    22-0-0/d STRC(1404)  r     1 OSIPARM                   75-0-0/w SBIN        r     1 SCID

  ****  SYMREF variables  ****

  ****  Scalars and arrays  ****
OctLoc.c.b A Datatyp(siz) R M Lvl/name                 OctLoc.c.b A Datatyp(siz) R M Lvl/name

     0-0-0/w PTR         r     1 KIS_MAJOR$                 0-0-0/w PTR         r     1 KIS_MINOR$
     0-0-0/d STRC(1404)  r     1 K_RWPARM_CON

  ****  BASED and DCB variables  ****

  ****  Scalars and arrays  ****
OctLoc.c.b A Datatyp(siz) R M Lvl/name                 OctLoc.c.b A Datatyp(siz) R M Lvl/name

     0-0-0/w STRC(360)   r     1 APPL                       0-0-0/w STRC(72)    r     1 GLUE
     0-0-0/w STRC(1260)  r     1 K$FPT_CONNECT_OSI


   Procedure KIS$OSI_SEND requires 174 words for executable code.
   Procedure KIS$OSI_SEND requires 70 words of local(AUTO) storage.
PL6.E3A0      #008=KIS$OSI_SEND File=KIS$OSI.:E05TSI                             WED 07/30/97 00:44 Page:279
          *** CROSS REFERENCE LISTING ***
**     DENOTES     IDENTIFIER DEFINITION
<<                 IDENTIFIER'S VALUE SET
>>                 IDENTIFIER'S VALUE USED
<>                 IDENTIFIER SET AND/OR USED
--                 IDENTIFIER REFERENCED
PL6.E3A0      #008=KIS$OSI_SEND File=KIS$OSI.:E05TSI                             WED 07/30/97 00:44 Page:280
          MINI XREF LISTING

APPL.CLNTHD
      7765**DCL      7766--REDEF
APPL.TCTX
      7762**DCL      7763--REDEF    7764--REDEF    9663>>ASSIGN   9675<<ASSIGN
APPL.Z.COOKIE
      7767**DCL      7768--REDEF    9644<<ASSIGN   9708>>CALL
APPL.Z.USER
      7768**DCL      9708<>CALL     9711<>CALL
GLUE.DATA
      7835**DCL      9651--ASSIGN   9655--ASSIGN   9659--ASSIGN
GLUE.MAGIC
      7834**DCL      9641>>ASSIGN
GLUE.MYSCID
      7831**DCL      9644>>ASSIGN
GLUE.TRNFNC
      7832**DCL      9638>>ASSIGN   9645>>DOCASE   9674>>IF
HFC$LOCK
      6398**DCL-ENT  9666--CALL
HFC$UNLOCK
      6398**DCL-ENT  9672--CALL     9683--CALL     9690--CALL
I
      9630**DCL      9641<<ASSIGN   9643>>ASSIGN   9652>>ASSIGN
K$FPT_CONNECT_OSI.DST_NSAP.ADDRESS_N
      7634**DCL      7635--REDEF
K$FPT_CONNECT_OSI.SCID
      7438**DCL      9652<<ASSIGN
K$FPT_CONNECT_OSI.SRC_NSAP.ADDRESS_N
      7574**DCL      7575--REDEF
K$FPT_CONNECT_OSI.TPDUSIZE
      7337**DCL      7338--REDEF
K$RWPARM
      8569**DCL        28--PROC
PL6.E3A0      #008=KIS$OSI_SEND File=KIS$OSI.:E05TSI                             WED 07/30/97 00:44 Page:281
K$RWPARM.BLKREC
      8595**DCL      8620--REDEF
K$RWPARM.BLKREC.BLKU#
      8596**DCL      8598--REDEF
K$RWPARM.BLKREC.RECU#
      8608**DCL      8610--REDEF
K$RWPARM.DVE.DVBYTE.VFC
      8635**DCL      8636--REDEF
K$RWPARM.DVE.EOMCHAR
      8643**DCL      8647--REDEF
K$RWPARM.ERR
      8707**DCL      8712--REDEF    9635<<ASSIGN
K$RWPARM.FC
      8671**DCL      8672--REDEF
K$RWPARM.FLDID
      8853**DCL      8854--REDEF
K$RWPARM.FPT$
      8734**DCL      8741--REDEF
K$RWPARM.KEYTYPE
      8860**DCL      8861--REDEF
K$RWPARM.MSG$
      8570**DCL      7824--IMP-PTR  8576--REDEF    9638>>ASSIGN   9641>>ASSIGN   9644>>ASSIGN   9645>>DOCASE
      9651>>ASSIGN   9655>>ASSIGN   9659>>ASSIGN   9674>>IF
K$RWPARM.MSGID
      8682**DCL      8687--REDEF
K$RWPARM.MSGIDXT
      8695**DCL      8699--REDEF
K$RWPARM.MSGSZ
      8577**DCL      9660>>ASSIGN
K$RWPARM.ORG
      8831**DCL      8832--REDEF
K$RWPARM.THDRSZ
      8775**DCL      8779--REDEF
K$RWPARM.VDOFLGS
      8833**DCL      8844--REDEF
KIA$OQFL
PL6.E3A0      #008=KIS$OSI_SEND File=KIS$OSI.:E05TSI                             WED 07/30/97 00:44 Page:282
      9621**DCL-ENT  9680--CALL
KIS_MAJOR$
      9627**DCL      9642>>ASSIGN
KIS_MINOR$
      9628**DCL      9643>>ASSIGN
KIT$SEND
      9622**DCL-ENT  9669--CALL
K_RWPARM_CON
      8252**DCL      9637>>ASSIGN
K_RWPARM_CON.BLKREC
      8278**DCL      8303--REDEF
K_RWPARM_CON.BLKREC.BLKU#
      8279**DCL      8281--REDEF
K_RWPARM_CON.BLKREC.RECU#
      8291**DCL      8293--REDEF
K_RWPARM_CON.DVE.DVBYTE.VFC
      8318**DCL      8319--REDEF
K_RWPARM_CON.DVE.EOMCHAR
      8326**DCL      8330--REDEF
K_RWPARM_CON.ERR
      8390**DCL      8395--REDEF
K_RWPARM_CON.FC
      8354**DCL      8355--REDEF
K_RWPARM_CON.FLDID
      8536**DCL      8537--REDEF
K_RWPARM_CON.FPT$
      8417**DCL      8424--REDEF
K_RWPARM_CON.KEYTYPE
      8543**DCL      8544--REDEF
K_RWPARM_CON.MSG$
      8253**DCL      8259--REDEF
K_RWPARM_CON.MSGID
      8365**DCL      8370--REDEF
K_RWPARM_CON.MSGIDXT
      8378**DCL      8382--REDEF
K_RWPARM_CON.ORG
PL6.E3A0      #008=KIS$OSI_SEND File=KIS$OSI.:E05TSI                             WED 07/30/97 00:44 Page:283
      8514**DCL      8515--REDEF
K_RWPARM_CON.THDRSZ
      8458**DCL      8462--REDEF
K_RWPARM_CON.VDOFLGS
      8516**DCL      8527--REDEF
MAJOR$
      9631**DCL      9642<<ASSIGN   9708>>CALL     9711>>CALL
MINOR$
      9632**DCL      9643<<ASSIGN   9644>>ASSIGN   9663>>ASSIGN   9675>>ASSIGN   9708>>CALL
NK$LDCT
      9353**DCL        28--PROC     9680<>CALL
NK$LDCT.DDT$
      9355**DCL      9355--REDEF
NK$LDCT.IOQ$
      9354**DCL      9355--REDEF
NK$LDCT.LDCTX
      9356**DCL      9356--REDEF
NK$LDCT.LKFLG.ABORTED
      9368**DCL      9369--REDEF
NK$LDCT.LOCK
      9381**DCL      9666<>CALL     9672<>CALL     9683<>CALL     9690<>CALL
NK$LDCT.RLCID.LDCTX
      9378**DCL      9378--REDEF
NK$LDCT.STA$
      9374**DCL      9375--REDEF
NK$LDCT.SYMB$
      9353**DCL      9353--REDEF    9353--REDEF    9354--REDEF
NK$LDCT.TH.STR
      9379**DCL      9640>>ASSIGN
NWIO
      6261**DCL      9701<<ASSIGN   9702--ASSIGN   9708--CALL
NWIO.CGPARM.MSGIDXT
      6287**DCL      6290--REDEF
NWIO.IOERRCODE
      6306**DCL      9705<<ASSIGN   9707<<ASSIGN
NWIO.P#
PL6.E3A0      #008=KIS$OSI_SEND File=KIS$OSI.:E05TSI                             WED 07/30/97 00:44 Page:284
      6263**DCL      9702<<ASSIGN   9702--ASSIGN
NWIO.TYC
      6263**DCL      9703<<ASSIGN
OSIPARM
      8885**DCL      9637<<ASSIGN   9669<>CALL
OSIPARM.BLKREC
      8911**DCL      8936--REDEF
OSIPARM.BLKREC.BLKU#
      8912**DCL      8914--REDEF
OSIPARM.BLKREC.RECU#
      8924**DCL      8926--REDEF
OSIPARM.DVE.DVBYTE.VFC
      8951**DCL      8952--REDEF
OSIPARM.DVE.EOMCHAR
      8959**DCL      8963--REDEF
OSIPARM.ERR
      9023**DCL      9028--REDEF    9679>>IF       9692>>IF       9696>>IF       9704>>IF       9708<>CALL
OSIPARM.FC
      8987**DCL      8988--REDEF
OSIPARM.FLDID
      9169**DCL      9170--REDEF
OSIPARM.FPT$
      9050**DCL      9057--REDEF    9651<<ASSIGN   9652>>ASSIGN   9655<<ASSIGN
OSIPARM.FUNCTION
      9064**DCL      9638<<ASSIGN
OSIPARM.KEYTYPE
      9176**DCL      9177--REDEF
OSIPARM.MSG$
      8886**DCL      8892--REDEF
OSIPARM.MSGID
      8998**DCL      9003--REDEF
OSIPARM.MSGIDXT
      9011**DCL      9015--REDEF
OSIPARM.MSG_ERRCODE
      9146**DCL      9705>>ASSIGN
OSIPARM.ORG
PL6.E3A0      #008=KIS$OSI_SEND File=KIS$OSI.:E05TSI                             WED 07/30/97 00:44 Page:285
      9147**DCL      9148--REDEF
OSIPARM.SHDR$
      9079**DCL      9659<<ASSIGN
OSIPARM.SHDRSZ
      9083**DCL      9660<<ASSIGN
OSIPARM.SSN_CRDT
      9095**DCL      9648<<ASSIGN
OSIPARM.TCTX#
      9121**DCL      9663<<ASSIGN
OSIPARM.THDRSZ
      9091**DCL      9095--REDEF
OSIPARM.VDOFLGS
      9149**DCL      9160--REDEF
SCID
      9633**DCL      9640<<ASSIGN   9642>>ASSIGN   9652>>ASSIGN
SC_PRTCL_SNAP
      9625**DCL-ENT  9694--CALL
SNAP
      9694**LABEL    9685--GOTO
SSR$RUE
      9623**DCL-ENT  9711--CALL
SSV$EVENT
      9624**DCL-ENT  9708--CALL
TRYSEND
      9669**LABEL    9687--GOTO

