PL6.E3A0      #005=KIT$RECV File=KIT$TRANSPORT.:E05TSI                           WED 07/30/97 00:44 Page:180
     1194        1        /*M* KIT$RECV - Receive inbound TPDUs on the host.   */
     1195        2        /*T***********************************************************/
     1196        3        /*T*                                                         */
     1197        4        /*T* Copyright (c) Bull HN Information Systems Inc., 1997    */
     1198        5        /*T*                                                         */
     1199        6        /*T***********************************************************/
     1200        7
     1201        8        /*X* PLM=3,IND=5,ENU=0,ECU=0   */
     1202        9
     1203       10        KIT$RECV: PROC(K$RWPARM) ALTRET;
     1204       11
     1205       12                                                /* Include files                      */
     1206       13        %INCLUDE K$RWPARM;
     1207      399        %INCLUDE K_SUBS_C;
     1208      432        %INCLUDE K_TRANSPORT_M;
     1209     2216        %INCLUDE K_TRANSPORT_E;
     1210     2541        %INCLUDE K_ADDRESS_M;
     1211     3044        %INCLUDE K_INTERFACE_M;
     1212     3453        %INCLUDE KI_MACROS_C;
     1213     4061        %INCLUDE KL_AFCN_C;
     1214     4162        %INCLUDE KL_MACRO_C;
     1215     7514        %INCLUDE HF_LOCK_C;
     1216     7528
     1217     7529                                                /* Parameter definitions              */
     1218     7530        %K$RWPARM (NAME=K$RWPARM);
     1219     7846
     1220     7847                                                /* Automatic data                     */
     1221     7848    1   DCL TCTX$ PTR;
     1222     7849    1   DCL TCTX# UBIN AUTO;
     1223     7850    1   DCL TEMP UBIN;
     1224     7851    1   DCL TYPE UBIN;
     1225     7852    1   DCL LI UBIN;
     1226     7853    1   DCL PARM$ PTR;
     1227     7854    1   DCL PARMSIZE SBIN;
     1228     7855    1   DCL DATA$ PTR;
     1229     7856    1   DCL DATASIZE UBIN;
     1230     7857    1   DCL TPDU_NR$ PTR;
PL6.E3A0      #005=KIT$RECV File=KIT$TRANSPORT.:E05TSI                           WED 07/30/97 00:44 Page:181
     1231     7858    1   DCL TPDU_NR UBIN;
     1232     7859    1   DCL 1 NR REDEF TPDU_NR,
     1233     7860    1         2 * BIT(5) UNAL,
     1234     7861    1         2 BYTE0 UBIN(7) UNAL,
     1235     7862    1         2 BYTE1 UBIN(8) UNAL,
     1236     7863    1         2 BYTE2 UBIN(8) UNAL,
     1237     7864    1         2 BYTE3 UBIN(8) UNAL;
     1238     7865
     1239     7866        %K$TPDU_CR_CC (STCLASS=AUTO, NAME=K$TPDU_CC);
     1240     7935        %KI$TCTX (NAME=K@TCTX, STCLASS=AUTO, FULL=NO);
     1241     8323
     1242     8324
     1243     8325        %KL_FEPST (STCLASS=AUTO);
     1244     8360                                                /* Based data                         */
     1245     8361    1   DCL KI$TCTX$(0:0) PTR BASED(KI_TCTX$$);
     1246     8362        %KI$TCTX(NAME=KI$TCTX, STCLASS="BASED(TCTX$)");
     1247     8920
     1248     8921        %K$TPDU_GENERIC (STCLASS="BASED(K$RWPARM.THDR$)", NAME=B$TPDU_GENERIC);
     1249     8981
     1250     8982        %K$TPDU_CR_CC (STCLASS="BASED(K$RWPARM.THDR$)", NAME=B$TPDU_CR);
     1251     9051
     1252     9052        %K$TPDU_DR (STCLASS="BASED(K$RWPARM.THDR$)", NAME=B$TPDU_DR);
     1253     9095        %K$TPDU_ER (STCLASS="BASED(K$RWPARM.THDR$)", NAME=B$TPDU_ER);
     1254     9134
     1255     9135        %K$TPDU_DT (STCLASS="BASED(K$RWPARM.THDR$)", NAME=B$TPDU_DT);
     1256     9185
     1257     9186        %K$TPARM_CP6_OPTIONS;
     1258     9231
     1259     9232        %K$NSAP (FPTN=B$NSAP);
     1260     9284
     1261     9285    1   DCL B$NEXT UBIN BASED;
     1262     9286    1   DCL CHRBSD CHAR(TEMP) BASED;
     1263     9287                                                /* Static definitions                 */
     1264     9288    1   DCL KI_TCTX$$ PTR SYMREF;
     1265     9289    1   DCL KIT_RECV_LOCK BIT(72) SYMREF;
     1266     9290    1   DCL KI_TCTX_USE# UBIN SYMREF;
     1267     9291    1   DCL KI_TCTX_MAX# UBIN SYMREF;
PL6.E3A0      #005=KIT$RECV File=KIT$TRANSPORT.:E05TSI                           WED 07/30/97 00:44 Page:182
     1268     9292
     1269     9293    1   DCL KIT_DISCARDED_TPDUS UBIN SYMREF;
     1270     9294
     1271     9295    1   DCL K_TPDU_SIZE(0:15) SBIN SYMREF;
     1272     9296    1   DCL K_TPDU_SIZE_EXT(0:15) SBIN SYMREF;
     1273     9297    1   DCL K_TPDUSZ_VALUES(0:0) UBIN SYMREF;
     1274     9298
     1275     9299    1   DCL KIT_ERROR_SNAP UBIN SYMREF;
     1276     9300    1   DCL KIT_OSI_SNAP UBIN SYMREF;
     1277     9301    1   DCL KIT_DUMP_FEP UBIN SYMREF;
     1278     9302
     1279     9303                                                /* Entry point references             */
     1280     9304    1   DCL KIN$SEND ENTRY(1) ALTRET;
     1281     9305    1   DCL KIS$OSI_RECV ENTRY(1) ALTRET;
     1282     9306    1   DCL KIS$RECV ENTRY(1) ALTRET;
     1283     9307    1   DCL KIS$REP_TERM ENTRY(1);
     1284     9308    1   DCL KIT$GETTCTX ENTRY(1) ALTRET;
     1285     9309    1   DCL KIT$RELTCTX ENTRY(1) ALTRET;
     1286     9310    1   DCL KIT$SEND_CC ENTRY(1) ALTRET;
     1287     9311    1   DCL KIT$SEND_DR ENTRY(1) ALTRET;
     1288     9312    1   DCL KUB$WRITE ENTRY(3) ALTRET;
     1289     9313    1   DCL SC_BADFNC ENTRY CONV(2,0);
     1290     9314    1   DCL SC_PRTCL_SNAP ENTRY CONV(2,0);
     1291     9315        %EJECT;
PL6.E3A0      #005=KIT$RECV File=KIT$TRANSPORT.:E05TSI                           WED 07/30/97 00:44 Page:183
     1292     9316        /*F* NAME: KIT$RECV
     1293     9317
     1294     9318        This routine is called from KIN$RECV. It is the interface
     1295     9319        for the lower layers to pass the incoming messages up to the
     1296     9320        user through the transport and session layers.
     1297     9321
     1298     9322        KIT$RECV is called with the K$RWPARM parameter:
     1299     9323
     1300     9324        .fif
     1301     9325        }    FUNCTION - Indicates the function to be performed.
     1302     9326        }               K_NDATA for OSI Session connections
     1303     9327        }               K_RECV for CP-6 Session connections.
     1304     9328        }
     1305     9329        }     SRC_ADDR$- Contains the address of Source Network Address
     1306     9330        }                Only set on OSI connections.
     1307     9331        }
     1308     9332        }     DST_ADDR$- Contains the address of Destination Network Address
     1309     9333        }                Only set on OSI connections.
     1310     9334        .fin
     1311     9335
     1312     9336        The action taken is dependent on the type for TPDU that has been received.
     1313     9337        See K_TPDU_TYPE_equs in file K_TRANSPORT_E for a full listing of the
     1314     9338        possible TPDU types.
     1315     9339
     1316     9340        TPDU types received are:
     1317     9341        .fif
     1318     9342        }    K_TPDU_TYPE_DT  - Data
     1319     9343        }    K_TPDU_TYPE_ED  - Expedited Data (not Class 0)
     1320     9344        }    K_TPDU_TYPE_CR  - Connect Request
     1321     9345        }    K_TPDU_TYPE_CC  - Connect Confirm
     1322     9346        }    K_TPDU_TYPE_DR  - Disconnect Request
     1323     9347        }    K_TPDU_TYPE_AK  - Acknowledge (Connect Confirm Class 4 only)
     1324     9348        }    K_TPDU_TYPE_ER  - TPDU Error
     1325     9349        .fin
     1326     9350        .fin
     1327     9351        */
     1328     9352        %EJECT;
PL6.E3A0      #005=KIT$RECV File=KIT$TRANSPORT.:E05TSI                           WED 07/30/97 00:44 Page:184
     1329     9353
     1330     9354        /* Screech if the function is not K_RECV or K_NDATA.
     1331     9355        */
     1332     9356    1      IF (K$RWPARM.FUNCTION ~= %K_RECV) AND (K$RWPARM.FUNCTION ~= %K_NDATA)
     1333     9357    2      THEN DO;
     1334     9358    2           CALL SC_BADFNC;                 /*full screech*/
     1335     9359
     1336     9360    2           RETURN;
     1337     9361    2           END;
     1338     9362
     1339     9363        /*S* SCREECH_CODE: KIT-S$BADFNC
     1340     9364             TYPE: SNAP
     1341     9365             MESSAGE: Bad function code passed to transport
     1342     9366        */
     1343     9367
     1344     9368    1      TYPE = B$TPDU_GENERIC.TYPE;
     1345     9369    1      LI = B$TPDU_GENERIC.LI;
     1346     9370    1      DATA$ = PINCRC(K$RWPARM.THDR$, LI +1);
     1347     9371    1      DATASIZE = K$RWPARM.THDRSZ - LI -1;
     1348     9372
     1349     9373    1      IF TYPE = %K_TPDU_TYPE_CR
     1350     9374    1      THEN GOTO FIND_PARMS;
     1351     9375
     1352     9376        /* Find the transport context block.
     1353     9377        */
     1354     9378    1      TCTX# = B$TPDU_DT.DST_REF;
     1355     9379    1      IF (TCTX#=0) OR (TCTX# > KI_TCTX_MAX#)
     1356     9380    1      THEN GOTO DISCARD_TPDU;
     1357     9381
     1358     9382    1      TCTX$ = KI$TCTX$(TCTX#);
     1359     9383    1      IF TCTX$ = ADDR(NIL)
     1360     9384    1      THEN GOTO DISCARD_TPDU;
     1361     9385
     1362     9386    1      K$RWPARM.TCTX# = TCTX#;
     1363     9387
     1364     9388        /* Find where the variable length parameters start.
     1365     9389        */
PL6.E3A0      #005=KIT$RECV File=KIT$TRANSPORT.:E05TSI                           WED 07/30/97 00:44 Page:185
     1366     9390    1      IF KI$TCTX.SSN.TR_FLAGS.EXTENDED = '0'B
     1367     9391    2      THEN DO;
     1368     9392    2   FIND_PARMS: ;
     1369     9393    2           TEMP = K_TPDU_SIZE(TYPE);
     1370     9394    2           END;
     1371     9395    1      ELSE TEMP = K_TPDU_SIZE_EXT(TYPE);
     1372     9396
     1373     9397    1      PARM$ = PINCRC(K$RWPARM.THDR$,TEMP);
     1374     9398    1      PARMSIZE = LI - TEMP + 1;
     1375     9399
     1376     9400
     1377     9401        /* Get set to pass the message up to session.
     1378     9402        */
     1379     9403    1      K$RWPARM.SHDR$ = DATA$;
     1380     9404    1      K$RWPARM.SHDRSZ = DATASIZE;
     1381     9405
     1382     9406
     1383     9407    2      DO CASE(TYPE);
     1384     9408
     1385     9409        %EJECT;
PL6.E3A0      #005=KIT$RECV File=KIT$TRANSPORT.:E05TSI                           WED 07/30/97 00:44 Page:186
     1386     9410        /*F* NAME: KIT$RECV - Data, Expedited, or Acknowledge TPDU
     1387     9411
     1388     9412        The TPDU_AK will arrive on the host only to indicate that the
     1389     9413        other end-point has responded to our Connect Confirm with an AK.
     1390     9414        The only thing that needs to be done is to mark the transport
     1391     9415        context block to indicate that the connection is open.
     1392     9416
     1393     9417        When the TPDU is data or expediated data, the session
     1394     9418        header address and size in K$RWPARM are updated to
     1395     9419        reflect the stripping off of the transport header and we call
     1396     9420        KIS$RECV or KIS$OSI_RECV passing the single parameter K$RWPARM.
     1397     9421        There is no check on the received sequence number.
     1398     9422        */
     1399     9423
     1400     9424    2       CASE( %K_TPDU_TYPE_DT, %K_TPDU_TYPE_ED, %K_TPDU_TYPE_AK);
     1401     9425
     1402     9426        /* Dont bother with I$CHK_PARMS as the local fep will have done that.
     1403     9427        */
     1404     9428
     1405     9429    2         IF KI$TCTX.STATE = %KI_TSTATE_AKWAIT
     1406     9430    3         THEN DO;
     1407     9431    3              KI$TCTX.STATE = %KI_TSTATE_OPEN;
     1408     9432    3              KI$TCTX.FLOW_CONTROLLED = '0'B;
     1409     9433
     1410     9434        /*N*       unreg for QFULL equivalent   */
     1411     9435    3              IF TYPE = %K_TPDU_TYPE_AK
     1412     9436    3              THEN RETURN;
     1413     9437    3              END;
     1414     9438
     1415     9439    2         IF TYPE = %K_TPDU_TYPE_AK
     1416     9440    2         THEN GOTO LOG_BAD_TPDU;
     1417     9441
     1418     9442    2         IF KI$TCTX.STATE ~= %KI_TSTATE_OPEN
     1419     9443    3         THEN DO;
     1420     9444    3              IF KI$TCTX.STATE = %KI_TSTATE_CLOSED
     1421     9445    3              THEN RETURN;
     1422     9446    3              ELSE GOTO LOG_BAD_TPDU;
PL6.E3A0      #005=KIT$RECV File=KIT$TRANSPORT.:E05TSI                           WED 07/30/97 00:44 Page:187
     1423     9447    3              END;
     1424     9448
     1425     9449    2   XMIT_TO_SESSION:
     1426     9450    2         IF KI$TCTX.SSN.TR_FLAGS.OSI
     1427     9451    3         THEN DO;
     1428     9452    3              IF TYPE = %K_TPDU_TYPE_DT
     1429     9453    4              THEN DO;
     1430     9454    4                   KI$TCTX.SSN_CRDT = KI$TCTX.SSN_CRDT -1;
     1431     9455    4                   K$RWPARM.FUNCTION = %K_TDATA_IND;
     1432     9456    4                   END;
     1433     9457    3              ELSE K$RWPARM.FUNCTION = %K_TEXPD_DATA_IND;
     1434     9458
     1435     9459    3              K$RWPARM.TCTX$ = ADDR(KI$TCTX);
     1436     9460
     1437     9461    3              CALL KIS$OSI_RECV(K$RWPARM)
     1438     9462    4              WHENALTRETURN DO;
     1439     9463    4                   CALL I$CHECK_SNAP;
     1440     9464
     1441     9465    4                   IF K$RWPARM.ERR = %K$WAIT_READ
     1442     9466    4                   THEN ALTRETURN;
     1443     9467
     1444     9468    4                   IF K$RWPARM.ERR = %K$DEFER_IO
     1445     9469    4                   THEN ALTRETURN;
     1446     9470
     1447     9471    4                   END/*altret from kis$osi_recv*/;
     1448     9472    3              END/*do if osi*/;
     1449     9473
     1450     9474    3         ELSE DO;
     1451     9475    3              CALL KIS$RECV (K$RWPARM)
     1452     9476    4              WHENALTRETURN DO;
     1453     9477    4                   IF K$RWPARM.ERR = %K$DEFER_IO
     1454     9478    4                   THEN ALTRETURN;
     1455     9479    4                   END/*whenaltreturn*/;
     1456     9480    3              END/*do if not osi connection*/;
     1457     9481
     1458     9482    2         IF TYPE = %K_TPDU_TYPE_DT
     1459     9483    2         THEN TPDU_NR$ = ADDR(KI$TCTX.RECV_NEXT);
PL6.E3A0      #005=KIT$RECV File=KIT$TRANSPORT.:E05TSI                           WED 07/30/97 00:44 Page:188
     1460     9484    2         ELSE TPDU_NR$ = ADDR(KI$TCTX.RECV_EXPD);
     1461     9485
     1462     9486    2         TPDU_NR$->B$NEXT = TPDU_NR$->B$NEXT +1;
     1463     9487
     1464     9488    2         IF K$RWPARM.ERR = %K$WAIT_READ
     1465     9489    2         THEN ALTRETURN;
     1466     9490    2         ELSE RETURN;
     1467     9491
     1468     9492        %EJECT;
PL6.E3A0      #005=KIT$RECV File=KIT$TRANSPORT.:E05TSI                           WED 07/30/97 00:44 Page:189
     1469     9493        /*F* NAME: KIT$RECV - Connect Request TPDU
     1470     9494
     1471     9495        A Connect Request may be received for either an OSI Transport
     1472     9496        connection or a CP-6 Transport connection.
     1473     9497        */
     1474     9498    2       CASE( %K_TPDU_TYPE_CR);
     1475     9499    2         IF K$RWPARM.THDRSZ < LENGTHC(B$TPDU_CR)
     1476     9500    2         THEN GOTO LOG_BAD_TPDU;
     1477     9501
     1478     9502        /* Assign a Transport level context block.
     1479     9503        */
     1480     9504              %LOCK (G=KIT_RECV_LOCK);
     1481     9507
     1482     9508    2         K@TCTX = '0'B;
     1483     9509    2         CALL KIT$GETTCTX(TCTX$)
     1484     9510    3         WHENALTRETURN DO;
     1485     9511    3              K@TCTX.REASON = %K_REASON_CONGESTION;
     1486     9512    3              K@TCTX.ERR = %K_ERROR_NO_TCTX;
     1487     9513    3   RETURN_TPDU_DR2: ;
     1488     9514                   %UNLOCK (G=KIT_RECV_LOCK);
     1489     9517
     1490     9518    3              K@TCTX.SSN.CLASS = B$TPDU_CR.CLASS;
     1491     9519    3              K@TCTX.NODE = K$RWPARM.FEX;
     1492     9520    3              K@TCTX.DST_REF = B$TPDU_CR.SRC_REF;
     1493     9521
     1494     9522    3              IF K$RWPARM.FUNCTION = %K_NDATA
     1495     9523    3              THEN K@TCTX.SSN.TR_FLAGS.OSI = '1'B;
     1496     9524
     1497     9525    3              K$RWPARM.TCTX$ = ADDR(K@TCTX);
     1498     9526    3              K$RWPARM.SHDRSZ = 0;
     1499     9527    3              K$RWPARM.UHDRSZ = 0;
     1500     9528    3              K$RWPARM.MSGSZ = 0;
     1501     9529
     1502     9530    3              CALL KIT$SEND_DR (K$RWPARM);
     1503     9531    3              GOTO LOG_BAD_TPDU;
     1504     9532    3              END;
     1505     9533
PL6.E3A0      #005=KIT$RECV File=KIT$TRANSPORT.:E05TSI                           WED 07/30/97 00:44 Page:190
     1506     9534    2         TCTX# = KI$TCTX.SRC_REF;
     1507     9535    2         K$RWPARM.TCTX# = TCTX#;
     1508     9536
     1509     9537    2         KI$TCTX.SSN.CLASS = B$TPDU_CR.CLASS;
     1510     9538
     1511     9539    2         KI$TCTX.SSN.TPDUSZ_PARM = %K_TPDUSIZE_8192;
     1512     9540
     1513     9541    2         CALL I$CHK_PARMS
     1514     9542    3         WHENALTRETURN DO;
     1515     9543    3              K@TCTX.REASON = KI$TCTX.REASON;
     1516     9544    3              K@TCTX.ERR = KI$TCTX.ERR;
     1517     9545    3              CALL KIT$RELTCTX(TCTX$);     /*state is still marked closed        */
     1518     9546    3              GOTO RETURN_TPDU_DR2;
     1519     9547    3              END;
     1520     9548
     1521     9549    2         KI$TCTX.SSN.QOS = K$RWPARM.QOS;
     1522     9550    2         KI$TCTX.NODE = K$RWPARM.FEX;
     1523     9551    2         KI$TCTX.LOCAL_FEP = K$RWPARM.LOCAL_FEP;
     1524     9552    2         KI$TCTX.SSN.SCID = -1;
     1525     9553    2         KI$TCTX.INBOUND = '1'B;
     1526     9554
     1527     9555    2         KI$TCTX.DST_REF = B$TPDU_CR.SRC_REF; /*maintain unpacked*/
     1528     9556    2         KI$TCTX.SSN.TR_FLAGS.EXTENDED = B$TPDU_CR.EXT_FMT_FLAG;
     1529     9557
     1530     9558    2         IF KI$TCTX.SSN.CLASS=2
     1531     9559    2           AND B$TPDU_CR.CLASS_2_FLOW='0'B /*set means dont use*/
     1532     9560    2         THEN KI$TCTX.SSN.TR_FLAGS.CLASS_2_FLOW = '1'B;
     1533     9561
     1534     9562    2         IF K$RWPARM.SRC_ADDR$ ~= ADDR(NIL)
     1535     9563    3         THEN DO;
     1536     9564    3              TEMP = K$RWPARM.SRC_ADDR$->B$NSAP.LEN +1;
     1537     9565    3              ADDR(KI$TCTX.SSN.SRC_NSAP)->CHRBSD = K$RWPARM.SRC_ADDR$->CHRBSD;
     1538     9566    3              END;
     1539     9567
     1540     9568    2         IF K$RWPARM.DST_ADDR$ ~= ADDR(NIL)
     1541     9569    3         THEN DO;
     1542     9570    3              TEMP = K$RWPARM.DST_ADDR$->B$NSAP.LEN +1;
PL6.E3A0      #005=KIT$RECV File=KIT$TRANSPORT.:E05TSI                           WED 07/30/97 00:44 Page:191
     1543     9571    3              ADDR(KI$TCTX.SSN.DST_NSAP)->CHRBSD = K$RWPARM.DST_ADDR$->CHRBSD;
     1544     9572    3              END;
     1545     9573
     1546     9574              %UNLOCK (G=KIT_RECV_LOCK);
     1547     9577
     1548     9578        /* If this is an OSI connection, the connection is marked waiting for
     1549     9579           tconnect response and we call OSI Session to let him know of the
     1550     9580          new connection.
     1551     9581        */
     1552     9582    2         IF K$RWPARM.FUNCTION = %K_NDATA
     1553     9583    3         THEN DO;
     1554     9584    3              KI$TCTX.SSN.TR_FLAGS.OSI = '1'B;
     1555     9585    3              KI$TCTX.STATE = %KI_TSTATE_WFTRESP;
     1556     9586
     1557     9587    3              K$RWPARM.TCTX$ = ADDR(KI$TCTX);
     1558     9588    3              K$RWPARM.FUNCTION = %K_TCONNECT_IND;
     1559     9589
     1560     9590    3              CALL KIS$OSI_RECV(K$RWPARM) ALTRET(CHECK_SNAP_N_RETURN);
     1561     9591    3              END;
     1562     9592
     1563     9593        /* If this isn't a connection for OSI Session, the connection is open.
     1564     9594           Call KIT$SEND_CC to construct a Connection Confirm TPDU and return
     1565     9595           it to the other end-point.
     1566     9596           Then call CP-6 Session so he will know of the new connection.
     1567     9597        */
     1568     9598    3         ELSE DO;
     1569     9599    3              TEMP = K$RWPARM.SHDRSZ;
     1570     9600    3              K$RWPARM.MSGSZ = 0;
     1571     9601    3              K$RWPARM.UHDRSZ = 0;
     1572     9602    3              K$RWPARM.SHDRSZ = 0;
     1573     9603
     1574     9604    3              CALL KIT$SEND_CC(K$RWPARM);
     1575     9605
     1576     9606    3              KI$TCTX.STATE = %KI_TSTATE_OPEN;
     1577     9607
     1578     9608    3              IF TEMP > 3
     1579     9609    4              THEN DO;
PL6.E3A0      #005=KIT$RECV File=KIT$TRANSPORT.:E05TSI                           WED 07/30/97 00:44 Page:192
     1580     9610    4                   CALL KIS$RECV(K$RWPARM) ALTRET(TAKE_QDP_SNAP);
     1581     9611    4                   END;
     1582     9612    4              ELSE DO;
     1583     9613    4   TAKE_QDP_SNAP:
     1584     9614    4                   CALL SC_PRTCL_SNAP;
     1585     9615    4                   END;
     1586     9616    3              END/*do if not osi*/;
     1587     9617
     1588     9618    2         RETURN;
     1589     9619
     1590     9620        %EJECT;
PL6.E3A0      #005=KIT$RECV File=KIT$TRANSPORT.:E05TSI                           WED 07/30/97 00:44 Page:193
     1591     9621        /*F* NAME: KIT$RECV - Connect Confirm TPDU
     1592     9622
     1593     9623        A Connect Confirm may be received only for an OSI Transport connection.
     1594     9624        */
     1595     9625    2       CASE( %K_TPDU_TYPE_CC);
     1596     9626
     1597     9627    2         KI$TCTX.SSN.CLASS = B$TPDU_CR.CLASS;
     1598     9628
     1599     9629    2         CALL I$CHK_PARMS ALTRET(LOG_BAD_TPDU);
     1600     9630
     1601     9631    2         IF KI$TCTX.SSN.TR_FLAGS.OSI = '0'B
     1602     9632    2         THEN GOTO LOG_BAD_TPDU;
     1603     9633
     1604     9634    2         IF KI$TCTX.STATE = %KI_TSTATE_WFCC
     1605     9635    3         THEN DO;
     1606     9636    3              KI$TCTX.DST_REF = B$TPDU_CR.SRC_REF;
     1607     9637    3              IF KI$TCTX.SSN.CLASS = 0
     1608     9638    4              THEN DO;
     1609     9639    4                   KI$TCTX.SSN.TR_FLAGS.EXTENDED = '0'B;
     1610     9640    4                   KI$TCTX.SSN.TR_FLAGS.EXPEDITED = '0'B;
     1611     9641    4                   END;
     1612     9642
     1613     9643    3              IF KI$TCTX.SSN.CLASS ~= 2
     1614     9644    4              THEN DO;
     1615     9645    4                   KI$TCTX.SSN.TR_FLAGS.CLASS_2_FLOW = '0'B;
     1616     9646    4                   END;
     1617     9647
     1618     9648    3              IF KI$TCTX.SSN.CLASS ~= 4
     1619     9649    4              THEN DO;
     1620     9650    4                   KI$TCTX.SSN.TR_FLAGS.CHKSUM = '0'B;
     1621     9651    4                   END;
     1622     9652
     1623     9653    3              KI$TCTX.SSN.TR_FLAGS.EXTENDED = B$TPDU_CR.EXT_FMT_FLAG;
     1624     9654
     1625     9655    3              KI$TCTX.STATE = %KI_TSTATE_OPEN;
     1626     9656
     1627     9657    3              K$RWPARM.TCTX$ = ADDR(KI$TCTX);
PL6.E3A0      #005=KIT$RECV File=KIT$TRANSPORT.:E05TSI                           WED 07/30/97 00:44 Page:194
     1628     9658    3              K$RWPARM.FUNCTION = %K_TCONNECT_CFM;
     1629     9659
     1630     9660    3              CALL KIS$OSI_RECV(K$RWPARM) ALTRET(CHECK_SNAP_N_RETURN);
     1631     9661
     1632     9662    3              RETURN;
     1633     9663    3              END/*do if waitcc*/;
     1634     9664
     1635     9665    3         ELSE DO;
     1636     9666    3   LOG_BAD_TPDU:
     1637     9667    3              CALL I$CHECK_SNAP;
     1638     9668    3   DISCARD_TPDU: ;
     1639     9669    3              KIT_DISCARDED_TPDUS = KIT_DISCARDED_TPDUS +1;
     1640     9670    3              RETURN;
     1641     9671    3              END;
     1642     9672
     1643     9673        %EJECT;
PL6.E3A0      #005=KIT$RECV File=KIT$TRANSPORT.:E05TSI                           WED 07/30/97 00:44 Page:195
     1644     9674        /*F* NAME: KIT$RECV - Disconnect Request TPDU
     1645     9675
     1646     9676        A Disconnect Request may be received only for either an OSI or CP-6 connections.
     1647     9677
     1648     9678        The Disconnect Confirm TPDU has already been sent by this host's
     1649     9679        local fep.  All that needs to be done is to notify Session of the
     1650     9680        Transport Disconnect indication and mark the transport connection
     1651     9681        closed.
     1652     9682        */
     1653     9683    2       CASE( %K_TPDU_TYPE_DR);
     1654     9684
     1655     9685    2         CALL I$CHK_PARMS ALTRET(LOG_BAD_TPDU);
     1656     9686    2         KI$TCTX.REASON = B$TPDU_DR.REASON;
     1657     9687
     1658     9688    2   REPORT_TDISCONNECT: ;
     1659     9689    2         K$RWPARM.FUNCTION = %K_TDISCONNECT_IND;
     1660     9690    2         K$RWPARM.TCTX$ = ADDR(KI$TCTX);
     1661     9691    2         K$RWPARM.TCTX# = KI$TCTX.SRC_REF;
     1662     9692
     1663     9693    2         IF KI$TCTX.SSN.TR_FLAGS.OSI='0'B
     1664     9694    2         THEN CALL KIS$REP_TERM(TCTX#);
     1665     9695    3         ELSE DO;
     1666     9696    3              CALL KIS$OSI_RECV(K$RWPARM)
     1667     9697    4              WHENALTRETURN DO;
     1668     9698    4                   CALL I$CHECK_SNAP;
     1669     9699    4                   END;
     1670     9700    3              END;
     1671     9701
     1672     9702    2         KI$TCTX.STATE = %KI_TSTATE_CLOSED;
     1673     9703    2         KI$TCTX.REMOTE_TERM = '1'B;
     1674     9704    2         CALL KIT$RELTCTX(TCTX$);
     1675     9705
     1676     9706    2         RETURN;
     1677     9707
     1678     9708        /* An Error TPDU may be received only for either an OSI or CP-6.
     1679     9709           All processing will have been done by the local Fep; all that
     1680     9710           is needed here is to report the disconnect to session and
PL6.E3A0      #005=KIT$RECV File=KIT$TRANSPORT.:E05TSI                           WED 07/30/97 00:44 Page:196
     1681     9711           close the transport connection.
     1682     9712        */
     1683     9713    2       CASE( %K_TPDU_TYPE_ER);
     1684     9714    2         KI$TCTX.REASON = B$TPDU_ER.REJECT_CAUSE;
     1685     9715    2         GOTO REPORT_TDISCONNECT;
     1686     9716
     1687     9717        %EJECT;
PL6.E3A0      #005=KIT$RECV File=KIT$TRANSPORT.:E05TSI                           WED 07/30/97 00:44 Page:197
     1688     9718        /*F* NAME: KIT$RECV - CP6 Control TPDU
     1689     9719
     1690     9720        A CP6 Control TPDU may be received for an OSI connection only.
     1691     9721        */
     1692     9722    2       CASE( %K_TPDU_TYPE_CP6);
     1693     9723
     1694     9724    2         IF KI$TCTX.SSN.TR_FLAGS.OSI = '0'B
     1695     9725    2         THEN GOTO LOG_BAD_TPDU;
     1696     9726
     1697     9727    2         K$RWPARM.TCTX$ = ADDR(KI$TCTX);
     1698     9728
     1699     9729    2         IF PARM$->K$TPARM_CP6_OPTIONS.CODE = %K_TPARM_FLOW_STOP
     1700     9730    3         THEN DO;
     1701     9731    3              KI$TCTX.SESSION_FLOW_STOPPED = '1'B;
     1702     9732    3              K$RWPARM.FUNCTION = %K_TFLOW_STOP;
     1703     9733    3              CALL KIS$OSI_RECV(K$RWPARM) ALTRET(CHECK_SNAP_N_RETURN);
     1704     9734    3              RETURN;
     1705     9735    3              END;
     1706     9736
     1707     9737    2         IF PARM$->K$TPARM_CP6_OPTIONS.CODE = %K_TPARM_FLOW_START
     1708     9738    3         THEN DO;
     1709     9739    3              KI$TCTX.SESSION_FLOW_STOPPED = '0'B;
     1710     9740    3              K$RWPARM.FUNCTION = %K_TFLOW_START;
     1711     9741    3              CALL KIS$OSI_RECV(K$RWPARM) ALTRET(CHECK_SNAP_N_RETURN);
     1712     9742    3              RETURN;
     1713     9743    3              END;
     1714     9744
     1715     9745    2         IF PARM$->K$TPARM_CP6_OPTIONS.CODE = %K_TPARM_SSN_CRDT_ACK
     1716     9746    3         THEN DO;
     1717     9747    3              K$RWPARM.FUNCTION = %K_TCREDIT_ACK;
     1718     9748
     1719     9749    3              CALL KIS$OSI_RECV(K$RWPARM)
     1720     9750    4              WHENALTRETURN DO;
     1721     9751    4   CHECK_SNAP_N_RETURN:
     1722     9752    4                   CALL I$CHECK_SNAP;
     1723     9753    4                   END;
     1724     9754
PL6.E3A0      #005=KIT$RECV File=KIT$TRANSPORT.:E05TSI                           WED 07/30/97 00:44 Page:198
     1725     9755    3              RETURN;
     1726     9756    3              END;
     1727     9757
     1728     9758    2         GOTO LOG_BAD_TPDU;
     1729     9759
     1730     9760        %EJECT;
PL6.E3A0      #005=KIT$RECV File=KIT$TRANSPORT.:E05TSI                           WED 07/30/97 00:44 Page:199
     1731     9761        /*F* NAME: KIT$RECV - Unrecognized TPDU
     1732     9762
     1733     9763        For an unrecognized TPDU, we first take a dump of the host to
     1734     9764        capture the host ICQ, and then request a GJA-166-3 dump from
     1735     9765        the fep.
     1736     9766        */
     1737     9767    2       CASE(ELSE);
     1738     9768    2         CALL SC_PRTCL_SNAP;
     1739     9769    2         CALL I$CHECK_FEP_DUMP;
     1740     9770    2         RETURN;
     1741     9771
     1742     9772        /*S* SCREECH_CODE: KI-S$PRTCLERR
     1743     9773             TYPE: SNAP
     1744     9774             MESSAGE: Communications protocol error.
     1745     9775             REMARKS: Full screech if unrecoverable; snap if message ignored.
     1746     9776        */
     1747     9777
     1748     9778    2         END/*do case(type)*/;
     1749     9779
     1750     9780        %EJECT;
PL6.E3A0      #005=KIT$RECV File=KIT$TRANSPORT.:E05TSI                           WED 07/30/97 00:44 Page:200
     1751     9781        /*I* NAME: I$CHECK_SNAP
     1752     9782
     1753     9783        The I$CHECK_SNAP subroutine provides a single place to check for
     1754     9784        the need to take a snapshot dump, and to take the dump if required.
     1755     9785        */
     1756     9786
     1757     9787    1   I$CHECK_SNAP: PROC;
     1758     9788
     1759     9789    2      IF KIT_ERROR_SNAP ~= 0
     1760     9790    2        OR (KI$TCTX.SSN.TR_FLAGS.OSI AND KIT_OSI_SNAP~=0)
     1761     9791    2      THEN CALL SC_PRTCL_SNAP;
     1762     9792
     1763     9793    2   I$CHECK_FEP_DUMP: ENTRY;
     1764     9794    2      IF KIT_DUMP_FEP ~= 0
     1765     9795    3      THEN DO;
     1766     9796    3           KL_FEPST.FEP = K$RWPARM.FEX;
     1767     9797    3           KL_FEPST.FCN = IGA_CRASHFEP_BF;
     1768     9798    3           CALL KUB$WRITE(KL_FEPST, LENGTHC(KL_FEPST), 'HLPADMIN');
     1769     9799    3           END;
     1770     9800
     1771     9801    2      RETURN;
     1772     9802
     1773     9803    2   END I$CHECK_SNAP;
     1774     9804        %EJECT;
PL6.E3A0      #005=KIT$RECV File=KIT$TRANSPORT.:E05TSI                           WED 07/30/97 00:44 Page:201
     1775     9805        /*I* NAME: I$CHK_PARMS
     1776     9806
     1777     9807        */
     1778     9808    1   I$CHK_PARMS: PROC ALTRET;
     1779     9809
     1780     9810                                                /* Auto Storage                       */
     1781     9811        %K$TPARM_TSAP_ID (NAME=K$TPARM, STCLASS=AUTO, ALGN=CALIGNED);
     1782     9848    2   DCL 1 B$TPARM REDEF K$TPARM CHAR(34);
     1783     9849
     1784     9850    2   DCL K$TPARM$ PTR;
     1785     9851    2   DCL PARMLEN SBIN;
     1786     9852
     1787     9853
     1788     9854                                                /* Based Data                         */
     1789     9855        %K$TPDU_GENERIC (NAME=TPDU);
     1790     9915    2   DCL K$TPARM_GENERIC CHAR(PARMSIZE) BASED;
     1791     9916        %K$TPARM_TPDUSZ (ALGN=ALIGNED, STCLASS="BASED(K$TPARM$)");
     1792     9955        %K$TPARM_OPTION (ALGN=ALIGNED, STCLASS="BASED(K$TPARM$)");
     1793    10002        %K$TPARM_TSAP_ID (ALGN=ALIGNED, STCLASS="BASED(K$TPARM$)");
     1794    10039        %K$TPARM_VERSION (ALGN=ALIGNED, STCLASS="BASED(K$TPARM$)");
     1795    10075        %K$TPARM_CHKSUM (ALGN=ALIGNED, STCLASS="BASED(K$TPARM$)");
     1796    10115        %K$TPARM_CLR_INFO (ALGN=CALIGNED, STCLASS="BASED(K$TPARM$)");
     1797    10164
     1798    10165    2   DCL B$TSAP CHAR(PARMLEN) BASED;
     1799    10166
     1800    10167                                                /* External data                      */
     1801    10168    2   DCL K_TSAP_SZ UBIN SYMREF;
     1802    10169
     1803    10170        %EJECT;
PL6.E3A0      #005=KIT$RECV File=KIT$TRANSPORT.:E05TSI                           WED 07/30/97 00:44 Page:202
     1804    10171        /* Initialize check_parmas auto.
     1805    10172        */
     1806    10173    2      K$TPARM$ = ADDR(K$TPARM);
     1807    10174
     1808    10175    3      DO WHILE (PARMSIZE > 1 );       /*use 1 because it may be a CP-6 connection*/
     1809    10176    3           B$TPARM = PARM$->K$TPARM_GENERIC;
     1810    10177    3           PARMLEN = K$TPARM.LEN;
     1811    10178
     1812    10179    3           IF PARMLEN > PARMSIZE-2
     1813    10180    4           THEN DO;
     1814    10181    4   SET_INVLEN:  ;
     1815    10182    4                KI$TCTX.REASON = %K_REASON_LEN_INV;
     1816    10183    4                ALTRETURN;
     1817    10184    4                END;
     1818    10185
     1819    10186    4           DO SELECT (K$TPARM.CODE);
     1820    10187
     1821    10188        /* First check for the parameters that aren't limited to CR and CC.
     1822    10189        */
     1823    10190    4                SELECT(%K_TPARM_CHKSUM);
     1824    10191    4                GOTO GET_NEXT_PARM;
     1825    10192
     1826    10193    4                SELECT(%K_TPARM_SUBSEQ);
     1827    10194    4   CHECK_AK:    ;
     1828    10195    4                IF TYPE ~= %K_TPDU_TYPE_AK
     1829    10196    5                THEN DO;
     1830    10197    5   SET_INVPARM:      ;
     1831    10198    5                     KI$TCTX.REASON = %K_REASON_PROTOCOL;
     1832    10199    5                     KI$TCTX.ERR = %K_ERROR_INVPARM;
     1833    10200    5                     ALTRETURN;
     1834    10201    5                     END;
     1835    10202
     1836    10203    4                GOTO GET_NEXT_PARM;
     1837    10204
     1838    10205    4                SELECT(%K_TPARM_FCC);
     1839    10206    4                GOTO CHECK_AK;
     1840    10207
PL6.E3A0      #005=KIT$RECV File=KIT$TRANSPORT.:E05TSI                           WED 07/30/97 00:44 Page:203
     1841    10208    4                SELECT(%K_TPARM_CLR_INFO);
     1842    10209    4                KI$TCTX.ERR = K$TPARM_CLR_INFO.ERR;
     1843    10210    4                GOTO GET_NEXT_PARM;
     1844    10211
     1845    10212    4                SELECT(%K_TPARM_INVALID_TPDU);
             10212                         /* this is the same code for CALLING_TSAP*/
     1846    10213    4                IF TYPE = %K_TPDU_TYPE_ER
     1847    10214    4                THEN GOTO GET_NEXT_PARM;
     1848    10215
     1849    10216    4                END/*do select*/;
     1850    10217
     1851    10218        %EJECT;
PL6.E3A0      #005=KIT$RECV File=KIT$TRANSPORT.:E05TSI                           WED 07/30/97 00:44 Page:204
     1852    10219        /* Now check those that are valid only with CR or CC.
     1853    10220        */
     1854    10221    3           IF (TYPE ~= %K_TPDU_TYPE_CR) AND (TYPE ~= %K_TPDU_TYPE_CC)
     1855    10222    3           THEN GOTO SET_INVPARM;
     1856    10223
     1857    10224    4           DO SELECT (K$TPARM.CODE);
     1858    10225    4                SELECT (%K_TPARM_TPDUSZ);
     1859    10226    4                IF PARMLEN ~= 1
     1860    10227    4                THEN GOTO SET_INVLEN;
     1861    10228
     1862    10229    4                IF (K$TPARM_TPDUSZ.SIZE < %K_TPDUSIZE_128) OR
     1863    10230    4                  (K$TPARM_TPDUSZ.SIZE > %K_TPDUSIZE_8192)
     1864    10231    4                THEN GOTO SET_NEGOTIATION;
     1865    10232
     1866    10233    4                IF K$TPARM_TPDUSZ.SIZE > KI$TCTX.SSN.TPDUSZ_PARM
     1867    10234    4                  AND TYPE = %K_TPDU_TYPE_CC
     1868    10235    4                THEN GOTO SET_NEGOTIATION;
     1869    10236
     1870    10237    4                KI$TCTX.SSN.TPDUSZ_PARM = K$TPARM_TPDUSZ.SIZE;
     1871    10238
     1872    10239
     1873    10240    4                SELECT(%K_TPARM_OPTION);
     1874    10241    4                IF PARMLEN ~= 1
     1875    10242    4                THEN GOTO SET_INVLEN;
     1876    10243
     1877    10244    4                IF K$TPARM_OPTION.EXPD
     1878    10245    4                THEN KI$TCTX.SSN.TR_FLAGS.EXPEDITED = '1'B;
     1879    10246    4                ELSE KI$TCTX.SSN.TR_FLAGS.EXPEDITED = '0'B;
     1880    10247
     1881    10248    4                IF TYPE = %K_TPDU_TYPE_CC
     1882    10249    4                  AND KI$TCTX.SSN.TR_FLAGS.CHKSUM ~= '0'B
     1883    10250    4                  AND K$TPARM_OPTION.CHKSUM /*means dont use chksum if set*/
     1884    10251    5                THEN DO;
     1885    10252    5   SET_NEGOTIATION:  ;
     1886    10253    5                     KI$TCTX.REASON = %K_REASON_NEGOTIATION;
     1887    10254    5                     ALTRETURN;
     1888    10255    5                     END;
PL6.E3A0      #005=KIT$RECV File=KIT$TRANSPORT.:E05TSI                           WED 07/30/97 00:44 Page:205
     1889    10256
     1890    10257    4                IF ~(K$TPARM_OPTION.CHKSUM) AND KI$TCTX.SSN.CLASS=4
     1891    10258    4                THEN KI$TCTX.SSN.TR_FLAGS.CHKSUM = '1'B;
     1892    10259    4                ELSE KI$TCTX.SSN.TR_FLAGS.CHKSUM = '0'B;
     1893    10260
     1894    10261    4                SELECT(%K_TPARM_CALLED_TSAP);
     1895    10262    4                IF PARMLEN > K_TSAP_SZ
     1896    10263    4                THEN GOTO SET_INVLEN;
     1897    10264
     1898    10265    4                IF TYPE = %K_TPDU_TYPE_CR
     1899    10266    5                THEN DO;
     1900    10267    5                     KI$TCTX.SSN.DST_TSAP.LEN = PARMLEN;
     1901    10268    5                     KI$TCTX.SSN.DST_TSAP.TSAP = ADDR(K$TPARM_TSAP_ID.ID)->B$TSAP;
     1902    10269    5                     END;
     1903    10270    5                ELSE DO;
     1904    10271    5                     IF KI$TCTX.SSN.DST_TSAP.LEN = PARMLEN
     1905    10272    5                     THEN IF ADDR(KI$TCTX.SSN.DST_TSAP.TSAP)->B$TSAP
     1906    10273    5                            = ADDR(K$TPARM_TSAP_ID.ID)->B$TSAP
     1907    10274    5                          THEN EXIT;
     1908    10275    5   SET_BADTSAP:      ;
     1909    10276    5                     KI$TCTX.REASON = %K_REASON_ADDRESS_UNKNOWN;
     1910    10277    5                     ALTRETURN;
     1911    10278    5                     END;
     1912    10279
     1913    10280    4                SELECT(%K_TPARM_CALLING_TSAP);
     1914    10281    4                IF PARMLEN > K_TSAP_SZ
     1915    10282    4                THEN GOTO SET_INVLEN;
     1916    10283
     1917    10284    4                IF TYPE = %K_TPDU_TYPE_CR
     1918    10285    5                THEN DO;
     1919    10286    5                     KI$TCTX.SSN.SRC_TSAP.LEN = PARMLEN;
     1920    10287    5                     KI$TCTX.SSN.SRC_TSAP.TSAP = ADDR(K$TPARM_TSAP_ID.ID)->B$TSAP;
     1921    10288    5                     END;
     1922    10289    5                ELSE DO;
     1923    10290    5                     IF KI$TCTX.SSN.SRC_TSAP.LEN = PARMLEN
     1924    10291    5                     THEN IF ADDR(KI$TCTX.SSN.SRC_TSAP.TSAP)->B$TSAP
     1925    10292    5                            = ADDR(K$TPARM_TSAP_ID.ID)->B$TSAP
PL6.E3A0      #005=KIT$RECV File=KIT$TRANSPORT.:E05TSI                           WED 07/30/97 00:44 Page:206
     1926    10293    5                          THEN EXIT;
     1927    10294    5                          ELSE GOTO SET_BADTSAP;
     1928    10295    5                     END;
     1929    10296
     1930    10297    4                SELECT(%K_TPARM_VERSION);
     1931    10298    4                IF PARMLEN ~= 1
     1932    10299    4                THEN GOTO SET_INVLEN;
     1933    10300
     1934    10301    4                KI$TCTX.VERS = K$TPARM_VERSION.VERS;
     1935    10302
     1936    10303    4                SELECT(%K_TPARM_SECURITY, %K_TPARM_ALT_CLASS,
     1937    10304    4                  %K_TPARM_ACK_TIME, %K_TPARM_THROUGHPUT,
     1938    10305    4                  %K_TPARM_ERR_RATE, %K_TPARM_PRIORITY,
     1939    10306    4                  %K_TPARM_TRANSIT_DELAY, %K_TPARM_REASS_TIME);
     1940    10307
     1941    10308        /* The NBS Implmentation Agreements says to ignore unknown parameters.
     1942    10309        */
     1943    10310
     1944    10311    4                SELECT (ELSE);
     1945    10312
     1946    10313    4                END/*do select*/;
     1947    10314
     1948    10315    3   GET_NEXT_PARM: ;
     1949    10316    3      PARMSIZE = PARMSIZE - PARMLEN - 2;
     1950    10317    3      PARM$ =PINCRC(PARM$,PARMLEN+2);
     1951    10318    3           END/*do while parmsize > 1*/;
     1952    10319
     1953    10320    2      IF PARMSIZE < 0
     1954    10321    3      THEN DO;
     1955    10322    3           KI$TCTX.REASON = %K_REASON_PROTOCOL;
     1956    10323    3           KI$TCTX.ERR = %K_ERROR_INVPARM_LEN;
     1957    10324    3           ALTRETURN;
     1958    10325    3           END;
     1959    10326
     1960    10327    2      RETURN;
     1961    10328
     1962    10329    2   END I$CHK_PARMS;
PL6.E3A0      #005=KIT$RECV File=KIT$TRANSPORT.:E05TSI                           WED 07/30/97 00:44 Page:207
     1963    10330    1   END KIT$RECV;
     1964    10331        %EOD;

PL6.E3A0      #005=KIT$RECV File=KIT$TRANSPORT.:E05TSI                           WED 07/30/97 00:44 Page:208
--  Include file information  --

   HF_LOCK_C.:E05TOU  cannot be made into a system file and is referenced.
   KL_MACRO_C.:E05TOU  is referenced.
   KL_AFCN_C.:E05TOU  is referenced.
   KI_MACROS_C.:E05TOU  is referenced.
   K_INTERFACE_M.:E05TOU  is referenced.
   K_ADDRESS_M.:E05TOU  is referenced.
   K_TRANSPORT_E.:E05TOU  is referenced.
   K_TRANSPORT_M.:E05TOU  is referenced.
   K_SUBS_C.:E05TOU  is referenced.
   K$RWPARM.:E05TOU  is referenced.
      No diagnostics issued in procedure KIT$RECV.

   Procedure KIT$RECV requires 852 words for executable code.
   Procedure KIT$RECV requires 52 words of local(AUTO) storage.

PL6.E3A0      #005=KIT$RECV File=KIT$TRANSPORT.:E05TSI                           WED 07/30/97 00:44 Page:209

 Object Unit name= KIT$RECV                                   File name= KIT$TRANSPORT.:E05TOU
 UTS= JUL 30 '97 00:44:14.28 WED                              Compiler= PL-6/E31         Sev=      00
 SharedLib= :SHARED_SYSTEM                                    Alt SharedLib=


    ****  Control sections  ****

 Sect   Type Bound  Init  Size OctSiz  Section name(segment info)
    0  RoData even  UTS      2      2  KIT$RECV
    1   Proc  even  none   852   1524  KIT$RECV
    2  RoData even  none     8     10  KIT$RECV

    ****  Entry defs  ****

                              Check   Calling
                             calling  sequence
  Sect OctLoc Primary Altret sequence   type   Parms  Name
     1      0   yes    yes     yes      Std        1  KIT$RECV
PL6.E3A0      #005=KIT$RECV File=KIT$TRANSPORT.:E05TSI                           WED 07/30/97 00:44 Page:210

  ****  Entry refs  ****

         Check        Calling
        calling       sequence
Altret sequence SRef   type   Args  Name
 yes     yes           Std       1 KIS$OSI_RECV
 yes     yes           Std       1 KIS$RECV
 yes     yes           Std       1 KIT$GETTCTX
 yes     yes           Std       1 KIT$SEND_DR
         yes           Std       1 HFC$UNLOCK
 yes     yes           Std       1 KIT$SEND_CC
         yes           Std       1 KIS$REP_TERM
         yes           Std       1 HFC$LOCK
 yes     yes           Std       1 KIT$RELTCTX
 yes     yes           Std       3 KUB$WRITE
                       nStd      0 X66_AUTO_1
                       nStd      0 X66_ARET
                       Std       0 B_CONSPOOL_D
                       nStd      0 X66_AALT

  ****  Data refs  ****

  Flags:  r = read only, s = secondary
Flgs Name                             Flgs Name                             Flgs Name
     SC_BADFNC                             SC_PRTCL_SNAP                         KI_TCTX$$
     KIT_RECV_LOCK                         KI_TCTX_MAX#                          KIT_DISCARDED_TPDUS
     K_TPDU_SIZE                           K_TPDU_SIZE_EXT                       KIT_ERROR_SNAP
     KIT_OSI_SNAP                          KIT_DUMP_FEP                          K_TSAP_SZ
     B_VECTNIL

  ****  Segment refs  ****

  Flags:  r = read only, s = secondary
Flgs Name                             Flgs Name                             Flgs Name
     ASLENTSID                             ISSID
PL6.E3A0      #005=KIT$RECV File=KIT$TRANSPORT.:E05TSI                           WED 07/30/97 00:44 Page:211


     1194        1        /*M* KIT$RECV - Receive inbound TPDUs on the host.   */
     1195        2        /*T***********************************************************/
     1196        3        /*T*                                                         */
     1197        4        /*T* Copyright (c) Bull HN Information Systems Inc., 1997    */
     1198        5        /*T*                                                         */
     1199        6        /*T***********************************************************/
     1200        7
     1201        8        /*X* PLM=3,IND=5,ENU=0,ECU=0   */
     1202        9
     1203       10        KIT$RECV: PROC(K$RWPARM) ALTRET;

     10  1 000000   000000 700200 xent  KIT$RECV     TSX0  ! X66_AUTO_1
         1 000001   000064 000001                    ZERO    52,1

     1204       11
     1205       12                                                /* Include files                      */
     1206       13        %INCLUDE K$RWPARM;
     1207      399        %INCLUDE K_SUBS_C;
     1208      432        %INCLUDE K_TRANSPORT_M;
     1209     2216        %INCLUDE K_TRANSPORT_E;
     1210     2541        %INCLUDE K_ADDRESS_M;
     1211     3044        %INCLUDE K_INTERFACE_M;
     1212     3453        %INCLUDE KI_MACROS_C;
     1213     4061        %INCLUDE KL_AFCN_C;
     1214     4162        %INCLUDE KL_MACRO_C;
     1215     7514        %INCLUDE HF_LOCK_C;
     1216     7528
     1217     7529                                                /* Parameter definitions              */
     1218     7530        %K$RWPARM (NAME=K$RWPARM);
     1219     7846
     1220     7847                                                /* Automatic data                     */
     1221     7848    1   DCL TCTX$ PTR;
     1222     7849    1   DCL TCTX# UBIN AUTO;
     1223     7850    1   DCL TEMP UBIN;
     1224     7851    1   DCL TYPE UBIN;
     1225     7852    1   DCL LI UBIN;
PL6.E3A0      #005=KIT$RECV File=KIT$TRANSPORT.:E05TSI                           WED 07/30/97 00:44 Page:212
     1226     7853    1   DCL PARM$ PTR;
     1227     7854    1   DCL PARMSIZE SBIN;
     1228     7855    1   DCL DATA$ PTR;
     1229     7856    1   DCL DATASIZE UBIN;
     1230     7857    1   DCL TPDU_NR$ PTR;
     1231     7858    1   DCL TPDU_NR UBIN;
     1232     7859    1   DCL 1 NR REDEF TPDU_NR,
     1233     7860    1         2 * BIT(5) UNAL,
     1234     7861    1         2 BYTE0 UBIN(7) UNAL,
     1235     7862    1         2 BYTE1 UBIN(8) UNAL,
     1236     7863    1         2 BYTE2 UBIN(8) UNAL,
     1237     7864    1         2 BYTE3 UBIN(8) UNAL;
     1238     7865
     1239     7866        %K$TPDU_CR_CC (STCLASS=AUTO, NAME=K$TPDU_CC);
     1240     7935        %KI$TCTX (NAME=K@TCTX, STCLASS=AUTO, FULL=NO);
     1241     8323
     1242     8324
     1243     8325        %KL_FEPST (STCLASS=AUTO);
     1244     8360                                                /* Based data                         */
     1245     8361    1   DCL KI$TCTX$(0:0) PTR BASED(KI_TCTX$$);
     1246     8362        %KI$TCTX(NAME=KI$TCTX, STCLASS="BASED(TCTX$)");
     1247     8920
     1248     8921        %K$TPDU_GENERIC (STCLASS="BASED(K$RWPARM.THDR$)", NAME=B$TPDU_GENERIC);
     1249     8981
     1250     8982        %K$TPDU_CR_CC (STCLASS="BASED(K$RWPARM.THDR$)", NAME=B$TPDU_CR);
     1251     9051
     1252     9052        %K$TPDU_DR (STCLASS="BASED(K$RWPARM.THDR$)", NAME=B$TPDU_DR);
     1253     9095        %K$TPDU_ER (STCLASS="BASED(K$RWPARM.THDR$)", NAME=B$TPDU_ER);
     1254     9134
     1255     9135        %K$TPDU_DT (STCLASS="BASED(K$RWPARM.THDR$)", NAME=B$TPDU_DT);
     1256     9185
     1257     9186        %K$TPARM_CP6_OPTIONS;
     1258     9231
     1259     9232        %K$NSAP (FPTN=B$NSAP);
     1260     9284
     1261     9285    1   DCL B$NEXT UBIN BASED;
     1262     9286    1   DCL CHRBSD CHAR(TEMP) BASED;
PL6.E3A0      #005=KIT$RECV File=KIT$TRANSPORT.:E05TSI                           WED 07/30/97 00:44 Page:213
     1263     9287                                                /* Static definitions                 */
     1264     9288    1   DCL KI_TCTX$$ PTR SYMREF;
     1265     9289    1   DCL KIT_RECV_LOCK BIT(72) SYMREF;
     1266     9290    1   DCL KI_TCTX_USE# UBIN SYMREF;
     1267     9291    1   DCL KI_TCTX_MAX# UBIN SYMREF;
     1268     9292
     1269     9293    1   DCL KIT_DISCARDED_TPDUS UBIN SYMREF;
     1270     9294
     1271     9295    1   DCL K_TPDU_SIZE(0:15) SBIN SYMREF;
     1272     9296    1   DCL K_TPDU_SIZE_EXT(0:15) SBIN SYMREF;
     1273     9297    1   DCL K_TPDUSZ_VALUES(0:0) UBIN SYMREF;
     1274     9298
     1275     9299    1   DCL KIT_ERROR_SNAP UBIN SYMREF;
     1276     9300    1   DCL KIT_OSI_SNAP UBIN SYMREF;
     1277     9301    1   DCL KIT_DUMP_FEP UBIN SYMREF;
     1278     9302
     1279     9303                                                /* Entry point references             */
     1280     9304    1   DCL KIN$SEND ENTRY(1) ALTRET;
     1281     9305    1   DCL KIS$OSI_RECV ENTRY(1) ALTRET;
     1282     9306    1   DCL KIS$RECV ENTRY(1) ALTRET;
     1283     9307    1   DCL KIS$REP_TERM ENTRY(1);
     1284     9308    1   DCL KIT$GETTCTX ENTRY(1) ALTRET;
     1285     9309    1   DCL KIT$RELTCTX ENTRY(1) ALTRET;
     1286     9310    1   DCL KIT$SEND_CC ENTRY(1) ALTRET;
     1287     9311    1   DCL KIT$SEND_DR ENTRY(1) ALTRET;
     1288     9312    1   DCL KUB$WRITE ENTRY(3) ALTRET;
     1289     9313    1   DCL SC_BADFNC ENTRY CONV(2,0);
     1290     9314    1   DCL SC_PRTCL_SNAP ENTRY CONV(2,0);
     1291     9315        %EJECT;
PL6.E3A0      #005=KIT$RECV File=KIT$TRANSPORT.:E05TSI                           WED 07/30/97 00:44 Page:214
     1292     9316        /*F* NAME: KIT$RECV
     1293     9317
     1294     9318        This routine is called from KIN$RECV. It is the interface
     1295     9319        for the lower layers to pass the incoming messages up to the
     1296     9320        user through the transport and session layers.
     1297     9321
     1298     9322        KIT$RECV is called with the K$RWPARM parameter:
     1299     9323
     1300     9324        .fif
     1301     9325        }    FUNCTION - Indicates the function to be performed.
     1302     9326        }               K_NDATA for OSI Session connections
     1303     9327        }               K_RECV for CP-6 Session connections.
     1304     9328        }
     1305     9329        }     SRC_ADDR$- Contains the address of Source Network Address
     1306     9330        }                Only set on OSI connections.
     1307     9331        }
     1308     9332        }     DST_ADDR$- Contains the address of Destination Network Address
     1309     9333        }                Only set on OSI connections.
     1310     9334        .fin
     1311     9335
     1312     9336        The action taken is dependent on the type for TPDU that has been received.
     1313     9337        See K_TPDU_TYPE_equs in file K_TRANSPORT_E for a full listing of the
     1314     9338        possible TPDU types.
     1315     9339
     1316     9340        TPDU types received are:
     1317     9341        .fif
     1318     9342        }    K_TPDU_TYPE_DT  - Data
     1319     9343        }    K_TPDU_TYPE_ED  - Expedited Data (not Class 0)
     1320     9344        }    K_TPDU_TYPE_CR  - Connect Request
     1321     9345        }    K_TPDU_TYPE_CC  - Connect Confirm
     1322     9346        }    K_TPDU_TYPE_DR  - Disconnect Request
     1323     9347        }    K_TPDU_TYPE_AK  - Acknowledge (Connect Confirm Class 4 only)
     1324     9348        }    K_TPDU_TYPE_ER  - TPDU Error
     1325     9349        .fin
     1326     9350        .fin
     1327     9351        */
     1328     9352        %EJECT;
PL6.E3A0      #005=KIT$RECV File=KIT$TRANSPORT.:E05TSI                           WED 07/30/97 00:44 Page:215
     1329     9353
     1330     9354        /* Screech if the function is not K_RECV or K_NDATA.
     1331     9355        */
     1332     9356    1      IF (K$RWPARM.FUNCTION ~= %K_RECV) AND (K$RWPARM.FUNCTION ~= %K_NDATA)

   9356  1 000002   200003 470500                    LDP0    @K$RWPARM,,AUTO
         1 000003   000020 235100                    LDA     16,,PR0
         1 000004   000005 115007                    CMPA    5,DL
         1 000005   000013 600000 1                  TZE     s:9368
         1 000006   000041 115007                    CMPA    33,DL
         1 000007   000013 600000 1                  TZE     s:9368

     1333     9357    2      THEN DO;

     1334     9358    2           CALL SC_BADFNC;                 /*full screech*/

   9358  1 000010   000000 713400 xsym               CLIMB   SC_BADFNC
         1 000011   000000 600000 xsid               climb   nvectors=         0

     1335     9359
     1336     9360    2           RETURN;

   9360  1 000012   000000 702200 xent               TSX2  ! X66_ARET

     1337     9361    2           END;
     1338     9362
     1339     9363        /*S* SCREECH_CODE: KIT-S$BADFNC
     1340     9364             TYPE: SNAP
     1341     9365             MESSAGE: Bad function code passed to transport
     1342     9366        */
     1343     9367
     1344     9368    1      TYPE = B$TPDU_GENERIC.TYPE;

   9368  1 000013   000024 471500                    LDP1    20,,PR0
         1 000014   100000 236100                    LDQ     0,,PR1
         1 000015   000026 772000                    QRL     22
         1 000016   000017 376007                    ANQ     15,DL
PL6.E3A0      #005=KIT$RECV File=KIT$TRANSPORT.:E05TSI                           WED 07/30/97 00:44 Page:216
         1 000017   200007 756100                    STQ     TYPE,,AUTO

     1345     9369    1      LI = B$TPDU_GENERIC.LI;

   9369  1 000020   100000 236100                    LDQ     0,,PR1
         1 000021   000033 772000                    QRL     27
         1 000022   200010 756100                    STQ     LI,,AUTO

     1346     9370    1      DATA$ = PINCRC(K$RWPARM.THDR$, LI +1);

   9370  1 000023   000011 402007                    MPY     9,DL
         1 000024   000011 036007                    ADLQ    9,DL
         1 000025   100000 503506                    ABD     0,QL,PR1
         1 000026   200013 451500                    STP1    DATA$,,AUTO

     1347     9371    1      DATASIZE = K$RWPARM.THDRSZ - LI -1;

   9371  1 000027   000025 236100                    LDQ     21,,PR0
         1 000030   200010 136100                    SBLQ    LI,,AUTO
         1 000031   000001 136007                    SBLQ    1,DL
         1 000032   200014 756100                    STQ     DATASIZE,,AUTO

     1348     9372
     1349     9373    1      IF TYPE = %K_TPDU_TYPE_CR

   9373  1 000033   200007 235100                    LDA     TYPE,,AUTO
         1 000034   000016 115007                    CMPA    14,DL
         1 000035   000061 600000 1                  TZE     FIND_PARMS

     1350     9374    1      THEN GOTO FIND_PARMS;
     1351     9375
     1352     9376        /* Find the transport context block.
     1353     9377        */
     1354     9378    1      TCTX# = B$TPDU_DT.DST_REF;

   9378  1 000036   000024 473500                    LDP3    20,,PR0
         1 000037   300000 236100                    LDQ     0,,PR3
PL6.E3A0      #005=KIT$RECV File=KIT$TRANSPORT.:E05TSI                           WED 07/30/97 00:44 Page:217
         1 000040   777777 376007                    ANQ     -1,DL
         1 000041   200005 756100                    STQ     TCTX#,,AUTO

     1355     9379    1      IF (TCTX#=0) OR (TCTX# > KI_TCTX_MAX#)

   9379  1 000042   000652 600000 1                  TZE     DISCARD_TPDU
         1 000043   000000 116000 xsym               CMPQ    KI_TCTX_MAX#
         1 000044   000046 600000 1                  TZE     s:9382
         1 000045   000652 603000 1                  TRC     DISCARD_TPDU

     1356     9380    1      THEN GOTO DISCARD_TPDU;
     1357     9381
     1358     9382    1      TCTX$ = KI$TCTX$(TCTX#);

   9382  1 000046   000000 474400 xsym               LDP4    KI_TCTX$$
         1 000047   400000 236106                    LDQ     0,QL,PR4
         1 000050   200004 756100                    STQ     TCTX$,,AUTO

     1359     9383    1      IF TCTX$ = ADDR(NIL)

   9383  1 000051   000001 116000 xsym               CMPQ    B_VECTNIL+1
         1 000052   000652 600000 1                  TZE     DISCARD_TPDU

     1360     9384    1      THEN GOTO DISCARD_TPDU;
     1361     9385
     1362     9386    1      K$RWPARM.TCTX# = TCTX#;

   9386  1 000053   200005 720100                    LXL0    TCTX#,,AUTO
         1 000054   000033 740100                    STX0    27,,PR0

     1363     9387
     1364     9388        /* Find where the variable length parameters start.
     1365     9389        */
     1366     9390    1      IF KI$TCTX.SSN.TR_FLAGS.EXTENDED = '0'B

   9390  1 000055   200004 475500                    LDP5    TCTX$,,AUTO
         1 000056   500016 236100                    LDQ     14,,PR5
PL6.E3A0      #005=KIT$RECV File=KIT$TRANSPORT.:E05TSI                           WED 07/30/97 00:44 Page:218
         1 000057   000004 316007                    CANQ    4,DL
         1 000060   000064 601000 1                  TNZ     s:9395

     1367     9391    2      THEN DO;

   9390  1 000061                       FIND_PARMS   null
     1368     9392    2   FIND_PARMS: ;
     1369     9393    2           TEMP = K_TPDU_SIZE(TYPE);

   9393  1 000061   000000 235005 xsym               LDA     K_TPDU_SIZE,AL
         1 000062   200006 755100                    STA     TEMP,,AUTO

     1370     9394    2           END;

   9394  1 000063   000066 710000 1                  TRA     s:9397

     1371     9395    1      ELSE TEMP = K_TPDU_SIZE_EXT(TYPE);

   9395  1 000064   000000 235005 xsym               LDA     K_TPDU_SIZE_EXT,AL
         1 000065   200006 755100                    STA     TEMP,,AUTO

     1372     9396
     1373     9397    1      PARM$ = PINCRC(K$RWPARM.THDR$,TEMP);

   9397  1 000066   000024 473500                    LDP3    20,,PR0
         1 000067   200006 236100                    LDQ     TEMP,,AUTO
         1 000070   000011 402007                    MPY     9,DL
         1 000071   300000 503506                    ABD     0,QL,PR3
         1 000072   200011 453500                    STP3    PARM$,,AUTO

     1374     9398    1      PARMSIZE = LI - TEMP + 1;

   9398  1 000073   200010 236100                    LDQ     LI,,AUTO
         1 000074   200006 136100                    SBLQ    TEMP,,AUTO
         1 000075   000001 036007                    ADLQ    1,DL
         1 000076   200012 756100                    STQ     PARMSIZE,,AUTO

PL6.E3A0      #005=KIT$RECV File=KIT$TRANSPORT.:E05TSI                           WED 07/30/97 00:44 Page:219
     1375     9399
     1376     9400
     1377     9401        /* Get set to pass the message up to session.
     1378     9402        */
     1379     9403    1      K$RWPARM.SHDR$ = DATA$;

   9403  1 000077   200013 236100                    LDQ     DATA$,,AUTO
         1 000100   000022 756100                    STQ     18,,PR0

     1380     9404    1      K$RWPARM.SHDRSZ = DATASIZE;

   9404  1 000101   200014 235100                    LDA     DATASIZE,,AUTO
         1 000102   000023 755100                    STA     19,,PR0

     1381     9405
     1382     9406
     1383     9407    2      DO CASE(TYPE);

   9407  1 000103   200007 235100                    LDA     TYPE,,AUTO
         1 000104   000020 115007                    CMPA    16,DL
         1 000105   000107 602005 1                  TNC     s:9407+4,AL
         1 000106   001014 710000 1                  TRA     s:9768
         1 000107   000741 710000 1                  TRA     s:9724
         1 000110   000127 710000 1                  TRA     s:9429
         1 000111   001014 710000 1                  TRA     s:9768
         1 000112   001014 710000 1                  TRA     s:9768
         1 000113   001014 710000 1                  TRA     s:9768
         1 000114   001014 710000 1                  TRA     s:9768
         1 000115   000127 710000 1                  TRA     s:9429
         1 000116   000733 710000 1                  TRA     s:9714
         1 000117   000656 710000 1                  TRA     s:9685
         1 000120   001014 710000 1                  TRA     s:9768
         1 000121   001014 710000 1                  TRA     s:9768
         1 000122   001014 710000 1                  TRA     s:9768
         1 000123   001014 710000 1                  TRA     s:9768
         1 000124   000557 710000 1                  TRA     s:9627
         1 000125   000253 710000 1                  TRA     s:9499
PL6.E3A0      #005=KIT$RECV File=KIT$TRANSPORT.:E05TSI                           WED 07/30/97 00:44 Page:220
         1 000126   000127 710000 1                  TRA     s:9429

     1384     9408
     1385     9409        %EJECT;
PL6.E3A0      #005=KIT$RECV File=KIT$TRANSPORT.:E05TSI                           WED 07/30/97 00:44 Page:221
     1386     9410        /*F* NAME: KIT$RECV - Data, Expedited, or Acknowledge TPDU
     1387     9411
     1388     9412        The TPDU_AK will arrive on the host only to indicate that the
     1389     9413        other end-point has responded to our Connect Confirm with an AK.
     1390     9414        The only thing that needs to be done is to mark the transport
     1391     9415        context block to indicate that the connection is open.
     1392     9416
     1393     9417        When the TPDU is data or expediated data, the session
     1394     9418        header address and size in K$RWPARM are updated to
     1395     9419        reflect the stripping off of the transport header and we call
     1396     9420        KIS$RECV or KIS$OSI_RECV passing the single parameter K$RWPARM.
     1397     9421        There is no check on the received sequence number.
     1398     9422        */
     1399     9423
     1400     9424    2       CASE( %K_TPDU_TYPE_DT, %K_TPDU_TYPE_ED, %K_TPDU_TYPE_AK);

     1401     9425
     1402     9426        /* Dont bother with I$CHK_PARMS as the local fep will have done that.
     1403     9427        */
     1404     9428
     1405     9429    2         IF KI$TCTX.STATE = %KI_TSTATE_AKWAIT

   9429  1 000127   200004 474500                    LDP4    TCTX$,,AUTO
         1 000130   400000 236100                    LDQ     0,,PR4
         1 000131   777000 376003                    ANQ     -512,DU
         1 000132   007000 116003                    CMPQ    3584,DU
         1 000133   000144 601000 1                  TNZ     s:9439

     1406     9430    3         THEN DO;

     1407     9431    3              KI$TCTX.STATE = %KI_TSTATE_OPEN;

   9431  1 000134   005000 236003                    LDQ     2560,DU
         1 000135   400000 552140                    STBQ    0,'40'O,PR4

     1408     9432    3              KI$TCTX.FLOW_CONTROLLED = '0'B;

PL6.E3A0      #005=KIT$RECV File=KIT$TRANSPORT.:E05TSI                           WED 07/30/97 00:44 Page:222
   9432  1 000136   200004 474500                    LDP4    TCTX$,,AUTO
         1 000137   000000 236000 2                  LDQ     0
         1 000140   400002 356100                    ANSQ    2,,PR4

     1409     9433
     1410     9434        /*N*       unreg for QFULL equivalent   */
     1411     9435    3              IF TYPE = %K_TPDU_TYPE_AK

   9435  1 000141   000006 115007                    CMPA    6,DL
         1 000142   000144 601000 1                  TNZ     s:9439

     1412     9436    3              THEN RETURN;

   9436  1 000143   000000 702200 xent               TSX2  ! X66_ARET

     1413     9437    3              END;
     1414     9438
     1415     9439    2         IF TYPE = %K_TPDU_TYPE_AK

   9439  1 000144   000006 115007                    CMPA    6,DL
         1 000145   000650 600000 1                  TZE     LOG_BAD_TPDU

     1416     9440    2         THEN GOTO LOG_BAD_TPDU;
     1417     9441
     1418     9442    2         IF KI$TCTX.STATE ~= %KI_TSTATE_OPEN

   9442  1 000146   200004 474500                    LDP4    TCTX$,,AUTO
         1 000147   400000 236100                    LDQ     0,,PR4
         1 000150   777000 376003                    ANQ     -512,DU
         1 000151   005000 116003                    CMPQ    2560,DU
         1 000152   000156 600000 1                  TZE     XMIT_TO_SESSION

     1419     9443    3         THEN DO;

     1420     9444    3              IF KI$TCTX.STATE = %KI_TSTATE_CLOSED

   9444  1 000153   002000 116003                    CMPQ    1024,DU
PL6.E3A0      #005=KIT$RECV File=KIT$TRANSPORT.:E05TSI                           WED 07/30/97 00:44 Page:223
         1 000154   000650 601000 1                  TNZ     LOG_BAD_TPDU

     1421     9445    3              THEN RETURN;

   9445  1 000155   000000 702200 xent               TSX2  ! X66_ARET

     1422     9446    3              ELSE GOTO LOG_BAD_TPDU;
     1423     9447    3              END;
     1424     9448
     1425     9449    2   XMIT_TO_SESSION:
     1426     9450    2         IF KI$TCTX.SSN.TR_FLAGS.OSI

   9450  1 000156   400016 236100       XMIT_TO_SES* LDQ     14,,PR4
         1 000157   000020 316007                    CANQ    16,DL
         1 000160   000215 600000 1                  TZE     s:9475

     1427     9451    3         THEN DO;

     1428     9452    3              IF TYPE = %K_TPDU_TYPE_DT

   9452  1 000161   000017 115007                    CMPA    15,DL
         1 000162   000171 601000 1                  TNZ     s:9457

     1429     9453    4              THEN DO;

     1430     9454    4                   KI$TCTX.SSN_CRDT = KI$TCTX.SSN_CRDT -1;

   9454  1 000163   400011 220100                    LDX0    9,,PR4
         1 000164   777777 621010                    EAX1    -1,X0
         1 000165   400011 741100                    STX1    9,,PR4

     1431     9455    4                   K$RWPARM.FUNCTION = %K_TDATA_IND;

   9455  1 000166   000027 235007                    LDA     23,DL
         1 000167   000020 755100                    STA     16,,PR0

     1432     9456    4                   END;
PL6.E3A0      #005=KIT$RECV File=KIT$TRANSPORT.:E05TSI                           WED 07/30/97 00:44 Page:224

   9456  1 000170   000173 710000 1                  TRA     s:9459

     1433     9457    3              ELSE K$RWPARM.FUNCTION = %K_TEXPD_DATA_IND;

   9457  1 000171   000030 235007                    LDA     24,DL
         1 000172   000020 755100                    STA     16,,PR0

     1434     9458
     1435     9459    3              K$RWPARM.TCTX$ = ADDR(KI$TCTX);

   9459  1 000173   200004 236100                    LDQ     TCTX$,,AUTO
         1 000174   000017 756100                    STQ     15,,PR0

     1436     9460
     1437     9461    3              CALL KIS$OSI_RECV(K$RWPARM)

   9461  1 000175   200003 630500                    EPPR0   @K$RWPARM,,AUTO
         1 000176   000017 631400 xsym               EPPR1   B_VECTNIL+15
         1 000177   000000 701000 xent               TSX1    KIS$OSI_RECV
         1 000200   000202 702000 1                  TSX2    s:9463
         1 000201   000214 710000 1                  TRA     s:9472

     1438     9462    4              WHENALTRETURN DO;

     1439     9463    4                   CALL I$CHECK_SNAP;

   9463  1 000202   001021 701000 1                  TSX1    I$CHECK_SNAP
         1 000203   000000 011000                    NOP     0

     1440     9464
     1441     9465    4                   IF K$RWPARM.ERR = %K$WAIT_READ

   9465  1 000204   200003 470500                    LDP0    @K$RWPARM,,AUTO
         1 000205   000013 235100                    LDA     11,,PR0
         1 000206   000006 115007                    CMPA    6,DL
         1 000207   000211 601000 1                  TNZ     s:9468
PL6.E3A0      #005=KIT$RECV File=KIT$TRANSPORT.:E05TSI                           WED 07/30/97 00:44 Page:225

     1442     9466    4                   THEN ALTRETURN;

   9466  1 000210   000000 702200 xent               TSX2  ! X66_AALT

     1443     9467
     1444     9468    4                   IF K$RWPARM.ERR = %K$DEFER_IO

   9468  1 000211   000003 115007                    CMPA    3,DL
         1 000212   000214 601000 1                  TNZ     s:9472

     1445     9469    4                   THEN ALTRETURN;

   9469  1 000213   000000 702200 xent               TSX2  ! X66_AALT

     1446     9470
     1447     9471    4                   END/*altret from kis$osi_recv*/;
     1448     9472    3              END/*do if osi*/;

   9472  1 000214   000227 710000 1                  TRA     s:9482

     1449     9473
     1450     9474    3         ELSE DO;

     1451     9475    3              CALL KIS$RECV (K$RWPARM)

   9475  1 000215   200003 630500                    EPPR0   @K$RWPARM,,AUTO
         1 000216   000017 631400 xsym               EPPR1   B_VECTNIL+15
         1 000217   000000 701000 xent               TSX1    KIS$RECV
         1 000220   000222 702000 1                  TSX2    s:9477
         1 000221   000227 710000 1                  TRA     s:9482

     1452     9476    4              WHENALTRETURN DO;

     1453     9477    4                   IF K$RWPARM.ERR = %K$DEFER_IO

   9477  1 000222   200003 470500                    LDP0    @K$RWPARM,,AUTO
PL6.E3A0      #005=KIT$RECV File=KIT$TRANSPORT.:E05TSI                           WED 07/30/97 00:44 Page:226
         1 000223   000013 235100                    LDA     11,,PR0
         1 000224   000003 115007                    CMPA    3,DL
         1 000225   000227 601000 1                  TNZ     s:9482

     1454     9478    4                   THEN ALTRETURN;

   9478  1 000226   000000 702200 xent               TSX2  ! X66_AALT

     1455     9479    4                   END/*whenaltreturn*/;
     1456     9480    3              END/*do if not osi connection*/;

     1457     9481
     1458     9482    2         IF TYPE = %K_TPDU_TYPE_DT

   9482  1 000227   200007 235100                    LDA     TYPE,,AUTO
         1 000230   000017 115007                    CMPA    15,DL
         1 000231   000236 601000 1                  TNZ     s:9484

     1459     9483    2         THEN TPDU_NR$ = ADDR(KI$TCTX.RECV_NEXT);

   9483  1 000232   200004 236100                    LDQ     TCTX$,,AUTO
         1 000233   000004 036003                    ADLQ    4,DU
         1 000234   200015 756100                    STQ     TPDU_NR$,,AUTO
         1 000235   000241 710000 1                  TRA     s:9486

     1460     9484    2         ELSE TPDU_NR$ = ADDR(KI$TCTX.RECV_EXPD);

   9484  1 000236   200004 236100                    LDQ     TCTX$,,AUTO
         1 000237   000005 036003                    ADLQ    5,DU
         1 000240   200015 756100                    STQ     TPDU_NR$,,AUTO

     1461     9485
     1462     9486    2         TPDU_NR$->B$NEXT = TPDU_NR$->B$NEXT +1;

   9486  1 000241   200015 470500                    LDP0    TPDU_NR$,,AUTO
         1 000242   000000 235100                    LDA     0,,PR0
         1 000243   000001 035007                    ADLA    1,DL
PL6.E3A0      #005=KIT$RECV File=KIT$TRANSPORT.:E05TSI                           WED 07/30/97 00:44 Page:227
         1 000244   000000 755100                    STA     0,,PR0

     1463     9487
     1464     9488    2         IF K$RWPARM.ERR = %K$WAIT_READ

   9488  1 000245   200003 471500                    LDP1    @K$RWPARM,,AUTO
         1 000246   100013 235100                    LDA     11,,PR1
         1 000247   000006 115007                    CMPA    6,DL
         1 000250   000252 601000 1                  TNZ     s:9490

     1465     9489    2         THEN ALTRETURN;

   9489  1 000251   000000 702200 xent               TSX2  ! X66_AALT

     1466     9490    2         ELSE RETURN;

   9490  1 000252   000000 702200 xent               TSX2  ! X66_ARET

     1467     9491
     1468     9492        %EJECT;
PL6.E3A0      #005=KIT$RECV File=KIT$TRANSPORT.:E05TSI                           WED 07/30/97 00:44 Page:228
     1469     9493        /*F* NAME: KIT$RECV - Connect Request TPDU
     1470     9494
     1471     9495        A Connect Request may be received for either an OSI Transport
     1472     9496        connection or a CP-6 Transport connection.
     1473     9497        */
     1474     9498    2       CASE( %K_TPDU_TYPE_CR);

     1475     9499    2         IF K$RWPARM.THDRSZ < LENGTHC(B$TPDU_CR)

   9499  1 000253   000025 235100                    LDA     21,,PR0
         1 000254   000007 115007                    CMPA    7,DL
         1 000255   000650 602000 1                  TNC     LOG_BAD_TPDU

     1476     9500    2         THEN GOTO LOG_BAD_TPDU;
     1477     9501
     1478     9502        /* Assign a Transport level context block.
     1479     9503        */
     1480     9504              %LOCK (G=KIT_RECV_LOCK);

   9505  1 000256   000001 630400 2                  EPPR0   1
         1 000257   000017 631400 xsym               EPPR1   B_VECTNIL+15
         1 000260   000000 701000 xent               TSX1    HFC$LOCK
         1 000261   000000 011000                    NOP     0

     1481     9507
     1482     9508    2         K@TCTX = '0'B;

   9508  1 000262   000100 100400                    MLR     fill='000'O
         1 000263   000002 000001 xsym               ADSC9   B_VECTNIL+2              cn=0,n=1
         1 000264   200021 000074                    ADSC9   K@TCTX,,AUTO             cn=0,n=60

     1483     9509    2         CALL KIT$GETTCTX(TCTX$)

   9509  1 000265   200004 630500                    EPPR0   TCTX$,,AUTO
         1 000266   200060 450500                    STP0    PARMLEN+1,,AUTO
         1 000267   200060 630500                    EPPR0   PARMLEN+1,,AUTO
         1 000270   000017 631400 xsym               EPPR1   B_VECTNIL+15
PL6.E3A0      #005=KIT$RECV File=KIT$TRANSPORT.:E05TSI                           WED 07/30/97 00:44 Page:229
         1 000271   000000 701000 xent               TSX1    KIT$GETTCTX
         1 000272   000274 702000 1                  TSX2    s:9511
         1 000273   000337 710000 1                  TRA     s:9534

     1484     9510    3         WHENALTRETURN DO;

     1485     9511    3              K@TCTX.REASON = %K_REASON_CONGESTION;

   9511  1 000274   001000 236007                    LDQ     512,DL
         1 000275   200021 552110                    STBQ    K@TCTX,'10'O,AUTO

     1486     9512    3              K@TCTX.ERR = %K_ERROR_NO_TCTX;

   9512  1 000276   000352 236007                    LDQ     234,DL
         1 000277   200021 552104                    STBQ    K@TCTX,'04'O,AUTO

   9512  1 000300                       RETURN_TPDU* null
     1487     9513    3   RETURN_TPDU_DR2: ;
     1488     9514                   %UNLOCK (G=KIT_RECV_LOCK);

   9515  1 000300   000001 630400 2                  EPPR0   1
         1 000301   000017 631400 xsym               EPPR1   B_VECTNIL+15
         1 000302   000000 701000 xent               TSX1    HFC$UNLOCK
         1 000303   000000 011000                    NOP     0

     1489     9517
     1490     9518    3              K@TCTX.SSN.CLASS = B$TPDU_CR.CLASS;

   9518  1 000304   200003 470500                    LDP0    @K$RWPARM,,AUTO
         1 000305   000024 471500                    LDP1    20,,PR0
         1 000306   100001 236100                    LDQ     1,,PR1
         1 000307   360000 376007                    ANQ     122880,DL
         1 000310   000005 736000                    QLS     5
         1 000311   200037 552120                    STBQ    K@TCTX+14,'20'O,AUTO

     1491     9519    3              K@TCTX.NODE = K$RWPARM.FEX;

PL6.E3A0      #005=KIT$RECV File=KIT$TRANSPORT.:E05TSI                           WED 07/30/97 00:44 Page:230
   9519  1 000312   000021 236100                    LDQ     17,,PR0
         1 000313   000022 736000                    QLS     18
         1 000314   200021 552120                    STBQ    K@TCTX,'20'O,AUTO

     1492     9520    3              K@TCTX.DST_REF = B$TPDU_CR.SRC_REF;

   9520  1 000315   000024 471500                    LDP1    20,,PR0
         1 000316   100001 220100                    LDX0    1,,PR1
         1 000317   200022 740100                    STX0    K@TCTX+1,,AUTO

     1493     9521
     1494     9522    3              IF K$RWPARM.FUNCTION = %K_NDATA

   9522  1 000320   000020 235100                    LDA     16,,PR0
         1 000321   000041 115007                    CMPA    33,DL
         1 000322   000325 601000 1                  TNZ     s:9525

     1495     9523    3              THEN K@TCTX.SSN.TR_FLAGS.OSI = '1'B;

   9523  1 000323   000020 236007                    LDQ     16,DL
         1 000324   200037 256100                    ORSQ    K@TCTX+14,,AUTO

     1496     9524
     1497     9525    3              K$RWPARM.TCTX$ = ADDR(K@TCTX);

   9525  1 000325   200021 631500                    EPPR1   K@TCTX,,AUTO
         1 000326   000017 451500                    STP1    15,,PR0

     1498     9526    3              K$RWPARM.SHDRSZ = 0;

   9526  1 000327   000023 450100                    STZ     19,,PR0

     1499     9527    3              K$RWPARM.UHDRSZ = 0;

   9527  1 000330   000015 450100                    STZ     13,,PR0

     1500     9528    3              K$RWPARM.MSGSZ = 0;
PL6.E3A0      #005=KIT$RECV File=KIT$TRANSPORT.:E05TSI                           WED 07/30/97 00:44 Page:231

   9528  1 000331   000001 450100                    STZ     1,,PR0

     1501     9529
     1502     9530    3              CALL KIT$SEND_DR (K$RWPARM);

   9530  1 000332   200003 630500                    EPPR0   @K$RWPARM,,AUTO
         1 000333   000017 631400 xsym               EPPR1   B_VECTNIL+15
         1 000334   000000 701000 xent               TSX1    KIT$SEND_DR
         1 000335   000000 011000                    NOP     0

     1503     9531    3              GOTO LOG_BAD_TPDU;

   9531  1 000336   000650 710000 1                  TRA     LOG_BAD_TPDU

     1504     9532    3              END;
     1505     9533
     1506     9534    2         TCTX# = KI$TCTX.SRC_REF;

   9534  1 000337   200004 470500                    LDP0    TCTX$,,AUTO
         1 000340   000001 236100                    LDQ     1,,PR0
         1 000341   777777 376007                    ANQ     -1,DL
         1 000342   200005 756100                    STQ     TCTX#,,AUTO

     1507     9535    2         K$RWPARM.TCTX# = TCTX#;

   9535  1 000343   000000 620006                    EAX0    0,QL
         1 000344   200003 471500                    LDP1    @K$RWPARM,,AUTO
         1 000345   100033 740100                    STX0    27,,PR1

     1508     9536
     1509     9537    2         KI$TCTX.SSN.CLASS = B$TPDU_CR.CLASS;

   9537  1 000346   100024 473500                    LDP3    20,,PR1
         1 000347   300001 236100                    LDQ     1,,PR3
         1 000350   360000 376007                    ANQ     122880,DL
         1 000351   000005 736000                    QLS     5
PL6.E3A0      #005=KIT$RECV File=KIT$TRANSPORT.:E05TSI                           WED 07/30/97 00:44 Page:232
         1 000352   000016 552120                    STBQ    14,'20'O,PR0

     1510     9538
     1511     9539    2         KI$TCTX.SSN.TPDUSZ_PARM = %K_TPDUSIZE_8192;

   9539  1 000353   000015 220003                    LDX0    13,DU
         1 000354   000014 740100                    STX0    12,,PR0

     1512     9540
     1513     9541    2         CALL I$CHK_PARMS

   9541  1 000355   001062 701000 1                  TSX1    I$CHK_PARMS
         1 000356   000360 702000 1                  TSX2    s:9543
         1 000357   000374 710000 1                  TRA     s:9549

     1514     9542    3         WHENALTRETURN DO;

     1515     9543    3              K@TCTX.REASON = KI$TCTX.REASON;

   9543  1 000360   200004 470500                    LDP0    TCTX$,,AUTO
         1 000361   000000 236100                    LDQ     0,,PR0
         1 000362   200021 552110                    STBQ    K@TCTX,'10'O,AUTO

     1516     9544    3              K@TCTX.ERR = KI$TCTX.ERR;

   9544  1 000363   000000 236100                    LDQ     0,,PR0
         1 000364   200021 552104                    STBQ    K@TCTX,'04'O,AUTO

     1517     9545    3              CALL KIT$RELTCTX(TCTX$);     /*state is still marked closed        */

   9545  1 000365   200004 631500                    EPPR1   TCTX$,,AUTO
         1 000366   200060 451500                    STP1    PARMLEN+1,,AUTO
         1 000367   200060 630500                    EPPR0   PARMLEN+1,,AUTO
         1 000370   000017 631400 xsym               EPPR1   B_VECTNIL+15
         1 000371   000000 701000 xent               TSX1    KIT$RELTCTX
         1 000372   000000 011000                    NOP     0

PL6.E3A0      #005=KIT$RECV File=KIT$TRANSPORT.:E05TSI                           WED 07/30/97 00:44 Page:233
     1518     9546    3              GOTO RETURN_TPDU_DR2;

   9546  1 000373   000300 710000 1                  TRA     RETURN_TPDU_DR2

     1519     9547    3              END;
     1520     9548
     1521     9549    2         KI$TCTX.SSN.QOS = K$RWPARM.QOS;

   9549  1 000374   200003 470500                    LDP0    @K$RWPARM,,AUTO
         1 000375   200004 471500                    LDP1    TCTX$,,AUTO
         1 000376   000033 236100                    LDQ     27,,PR0
         1 000377   000033 736000                    QLS     27
         1 000400   100016 552140                    STBQ    14,'40'O,PR1

     1522     9550    2         KI$TCTX.NODE = K$RWPARM.FEX;

   9550  1 000401   000021 236100                    LDQ     17,,PR0
         1 000402   000022 736000                    QLS     18
         1 000403   100000 552120                    STBQ    0,'20'O,PR1

     1523     9551    2         KI$TCTX.LOCAL_FEP = K$RWPARM.LOCAL_FEP;

   9551  1 000404   200004 471500                    LDP1    TCTX$,,AUTO
         1 000405   000032 236100                    LDQ     26,,PR0
         1 000406   000033 736000                    QLS     27
         1 000407   100002 552140                    STBQ    2,'40'O,PR1

     1524     9552    2         KI$TCTX.SSN.SCID = -1;

   9552  1 000410   000001 335007                    LCA     1,DL
         1 000411   200004 471500                    LDP1    TCTX$,,AUTO
         1 000412   100017 755100                    STA     15,,PR1

     1525     9553    2         KI$TCTX.INBOUND = '1'B;

   9553  1 000413   000004 236007                    LDQ     4,DL
         1 000414   100002 256100                    ORSQ    2,,PR1
PL6.E3A0      #005=KIT$RECV File=KIT$TRANSPORT.:E05TSI                           WED 07/30/97 00:44 Page:234

     1526     9554
     1527     9555    2         KI$TCTX.DST_REF = B$TPDU_CR.SRC_REF; /*maintain unpacked*/

   9555  1 000415   000024 471500                    LDP1    20,,PR0
         1 000416   100001 220100                    LDX0    1,,PR1
         1 000417   200004 473500                    LDP3    TCTX$,,AUTO
         1 000420   300001 740100                    STX0    1,,PR3

     1528     9556    2         KI$TCTX.SSN.TR_FLAGS.EXTENDED = B$TPDU_CR.EXT_FMT_FLAG;

   9556  1 000421   000024 471500                    LDP1    20,,PR0
         1 000422   200004 473500                    LDP3    TCTX$,,AUTO
         1 000423   100001 236100                    LDQ     1,,PR1
         1 000424   000010 772000                    QRL     8
         1 000425   300016 676100                    ERQ     14,,PR3
         1 000426   000004 376007                    ANQ     4,DL
         1 000427   300016 656100                    ERSQ    14,,PR3

     1529     9557
     1530     9558    2         IF KI$TCTX.SSN.CLASS=2

   9558  1 000430   300016 236100                    LDQ     14,,PR3
         1 000431   000777 376003                    ANQ     511,DU
         1 000432   000002 116003                    CMPQ    2,DU
         1 000433   000442 601000 1                  TNZ     s:9562
         1 000434   000024 471500                    LDP1    20,,PR0
         1 000435   100001 236100                    LDQ     1,,PR1
         1 000436   001000 316007                    CANQ    512,DL
         1 000437   000442 601000 1                  TNZ     s:9562

     1531     9559    2           AND B$TPDU_CR.CLASS_2_FLOW='0'B /*set means dont use*/
     1532     9560    2         THEN KI$TCTX.SSN.TR_FLAGS.CLASS_2_FLOW = '1'B;

   9560  1 000440   000010 236007                    LDQ     8,DL
         1 000441   300016 256100                    ORSQ    14,,PR3

PL6.E3A0      #005=KIT$RECV File=KIT$TRANSPORT.:E05TSI                           WED 07/30/97 00:44 Page:235
     1533     9561
     1534     9562    2         IF K$RWPARM.SRC_ADDR$ ~= ADDR(NIL)

   9562  1 000442   000034 236100                    LDQ     28,,PR0
         1 000443   000001 116000 xsym               CMPQ    B_VECTNIL+1
         1 000444   000462 600000 1                  TZE     s:9568

     1535     9563    3         THEN DO;

     1536     9564    3              TEMP = K$RWPARM.SRC_ADDR$->B$NSAP.LEN +1;

   9564  1 000445   000034 471500                    LDP1    28,,PR0
         1 000446   000100 101500                    MRL     fill='000'O
         1 000447   100000 000001                    ADSC9   0,,PR1                   cn=0,n=1
         1 000450   200060 000004                    ADSC9   PARMLEN+1,,AUTO          cn=0,n=4
         1 000451   200060 236100                    LDQ     PARMLEN+1,,AUTO
         1 000452   000001 036007                    ADLQ    1,DL
         1 000453   200006 756100                    STQ     TEMP,,AUTO

     1537     9565    3              ADDR(KI$TCTX.SSN.SRC_NSAP)->CHRBSD = K$RWPARM.SRC_ADDR$->CHRBSD;

   9565  1 000454   000034 471500                    LDP1    28,,PR0
         1 000455   000000 620006                    EAX0    0,QL
         1 000456   200006 721100                    LXL1    TEMP,,AUTO
         1 000457   040140 100540                    MLR     fill='040'O
         1 000460   100000 000010                    ADSC9   0,,PR1                   cn=0,n=*X0
         1 000461   300042 000011                    ADSC9   34,,PR3                  cn=0,n=*X1

     1538     9566    3              END;

     1539     9567
     1540     9568    2         IF K$RWPARM.DST_ADDR$ ~= ADDR(NIL)

   9568  1 000462   000035 236100                    LDQ     29,,PR0
         1 000463   000001 116000 xsym               CMPQ    B_VECTNIL+1
         1 000464   000502 600000 1                  TZE     s:9575

PL6.E3A0      #005=KIT$RECV File=KIT$TRANSPORT.:E05TSI                           WED 07/30/97 00:44 Page:236
     1541     9569    3         THEN DO;

     1542     9570    3              TEMP = K$RWPARM.DST_ADDR$->B$NSAP.LEN +1;

   9570  1 000465   000035 471500                    LDP1    29,,PR0
         1 000466   000100 101500                    MRL     fill='000'O
         1 000467   100000 000001                    ADSC9   0,,PR1                   cn=0,n=1
         1 000470   200060 000004                    ADSC9   PARMLEN+1,,AUTO          cn=0,n=4
         1 000471   200060 236100                    LDQ     PARMLEN+1,,AUTO
         1 000472   000001 036007                    ADLQ    1,DL
         1 000473   200006 756100                    STQ     TEMP,,AUTO

     1543     9571    3              ADDR(KI$TCTX.SSN.DST_NSAP)->CHRBSD = K$RWPARM.DST_ADDR$->CHRBSD;

   9571  1 000474   000035 471500                    LDP1    29,,PR0
         1 000475   000000 620006                    EAX0    0,QL
         1 000476   200006 721100                    LXL1    TEMP,,AUTO
         1 000477   040140 100540                    MLR     fill='040'O
         1 000500   100000 000010                    ADSC9   0,,PR1                   cn=0,n=*X0
         1 000501   300047 400011                    ADSC9   39,,PR3                  cn=2,n=*X1

     1544     9572    3              END;

     1545     9573
     1546     9574              %UNLOCK (G=KIT_RECV_LOCK);

   9575  1 000502   000001 630400 2                  EPPR0   1
         1 000503   000017 631400 xsym               EPPR1   B_VECTNIL+15
         1 000504   000000 701000 xent               TSX1    HFC$UNLOCK
         1 000505   000000 011000                    NOP     0

     1547     9577
     1548     9578        /* If this is an OSI connection, the connection is marked waiting for
     1549     9579           tconnect response and we call OSI Session to let him know of the
     1550     9580          new connection.
     1551     9581        */
     1552     9582    2         IF K$RWPARM.FUNCTION = %K_NDATA
PL6.E3A0      #005=KIT$RECV File=KIT$TRANSPORT.:E05TSI                           WED 07/30/97 00:44 Page:237

   9582  1 000506   200003 470500                    LDP0    @K$RWPARM,,AUTO
         1 000507   000020 235100                    LDA     16,,PR0
         1 000510   000041 115007                    CMPA    33,DL
         1 000511   000530 601000 1                  TNZ     s:9599

     1553     9583    3         THEN DO;

     1554     9584    3              KI$TCTX.SSN.TR_FLAGS.OSI = '1'B;

   9584  1 000512   200004 471500                    LDP1    TCTX$,,AUTO
         1 000513   000020 236007                    LDQ     16,DL
         1 000514   100016 256100                    ORSQ    14,,PR1

     1555     9585    3              KI$TCTX.STATE = %KI_TSTATE_WFTRESP;

   9585  1 000515   006000 236003                    LDQ     3072,DU
         1 000516   100000 552140                    STBQ    0,'40'O,PR1

     1556     9586
     1557     9587    3              K$RWPARM.TCTX$ = ADDR(KI$TCTX);

   9587  1 000517   200004 236100                    LDQ     TCTX$,,AUTO
         1 000520   000017 756100                    STQ     15,,PR0

     1558     9588    3              K$RWPARM.FUNCTION = %K_TCONNECT_IND;

   9588  1 000521   000025 235007                    LDA     21,DL
         1 000522   000020 755100                    STA     16,,PR0

     1559     9589
     1560     9590    3              CALL KIS$OSI_RECV(K$RWPARM) ALTRET(CHECK_SNAP_N_RETURN);

   9590  1 000523   200003 630500                    EPPR0   @K$RWPARM,,AUTO
         1 000524   000017 631400 xsym               EPPR1   B_VECTNIL+15
         1 000525   000000 701000 xent               TSX1    KIS$OSI_RECV
         1 000526   001010 702000 1                  TSX2    CHECK_SNAP_N_RETURN
PL6.E3A0      #005=KIT$RECV File=KIT$TRANSPORT.:E05TSI                           WED 07/30/97 00:44 Page:238

     1561     9591    3              END;

   9591  1 000527   000556 710000 1                  TRA     s:9618

     1562     9592
     1563     9593        /* If this isn't a connection for OSI Session, the connection is open.
     1564     9594           Call KIT$SEND_CC to construct a Connection Confirm TPDU and return
     1565     9595           it to the other end-point.
     1566     9596           Then call CP-6 Session so he will know of the new connection.
     1567     9597        */
     1568     9598    3         ELSE DO;

     1569     9599    3              TEMP = K$RWPARM.SHDRSZ;

   9599  1 000530   000023 235100                    LDA     19,,PR0
         1 000531   200006 755100                    STA     TEMP,,AUTO

     1570     9600    3              K$RWPARM.MSGSZ = 0;

   9600  1 000532   000001 450100                    STZ     1,,PR0

     1571     9601    3              K$RWPARM.UHDRSZ = 0;

   9601  1 000533   000015 450100                    STZ     13,,PR0

     1572     9602    3              K$RWPARM.SHDRSZ = 0;

   9602  1 000534   000023 450100                    STZ     19,,PR0

     1573     9603
     1574     9604    3              CALL KIT$SEND_CC(K$RWPARM);

   9604  1 000535   200003 630500                    EPPR0   @K$RWPARM,,AUTO
         1 000536   000017 631400 xsym               EPPR1   B_VECTNIL+15
         1 000537   000000 701000 xent               TSX1    KIT$SEND_CC
         1 000540   000000 011000                    NOP     0
PL6.E3A0      #005=KIT$RECV File=KIT$TRANSPORT.:E05TSI                           WED 07/30/97 00:44 Page:239

     1575     9605
     1576     9606    3              KI$TCTX.STATE = %KI_TSTATE_OPEN;

   9606  1 000541   200004 470500                    LDP0    TCTX$,,AUTO
         1 000542   005000 236003                    LDQ     2560,DU
         1 000543   000000 552140                    STBQ    0,'40'O,PR0

     1577     9607
     1578     9608    3              IF TEMP > 3

   9608  1 000544   200006 235100                    LDA     TEMP,,AUTO
         1 000545   000004 115007                    CMPA    4,DL
         1 000546   000554 602000 1                  TNC     TAKE_QDP_SNAP

     1579     9609    4              THEN DO;

     1580     9610    4                   CALL KIS$RECV(K$RWPARM) ALTRET(TAKE_QDP_SNAP);

   9610  1 000547   200003 630500                    EPPR0   @K$RWPARM,,AUTO
         1 000550   000017 631400 xsym               EPPR1   B_VECTNIL+15
         1 000551   000000 701000 xent               TSX1    KIS$RECV
         1 000552   000554 702000 1                  TSX2    TAKE_QDP_SNAP

     1581     9611    4                   END;

   9611  1 000553   000556 710000 1                  TRA     s:9618

     1582     9612    4              ELSE DO;

     1583     9613    4   TAKE_QDP_SNAP:
     1584     9614    4                   CALL SC_PRTCL_SNAP;

   9614  1 000554   000000 713400 xsym  TAKE_QDP_SN* CLIMB   SC_PRTCL_SNAP
         1 000555   000000 600000 xsid               climb   nvectors=         0

     1585     9615    4                   END;
PL6.E3A0      #005=KIT$RECV File=KIT$TRANSPORT.:E05TSI                           WED 07/30/97 00:44 Page:240

     1586     9616    3              END/*do if not osi*/;

     1587     9617
     1588     9618    2         RETURN;

   9618  1 000556   000000 702200 xent               TSX2  ! X66_ARET

     1589     9619
     1590     9620        %EJECT;
PL6.E3A0      #005=KIT$RECV File=KIT$TRANSPORT.:E05TSI                           WED 07/30/97 00:44 Page:241
     1591     9621        /*F* NAME: KIT$RECV - Connect Confirm TPDU
     1592     9622
     1593     9623        A Connect Confirm may be received only for an OSI Transport connection.
     1594     9624        */
     1595     9625    2       CASE( %K_TPDU_TYPE_CC);

     1596     9626
     1597     9627    2         KI$TCTX.SSN.CLASS = B$TPDU_CR.CLASS;

   9627  1 000557   000024 474500                    LDP4    20,,PR0
         1 000560   200004 475500                    LDP5    TCTX$,,AUTO
         1 000561   400001 236100                    LDQ     1,,PR4
         1 000562   360000 376007                    ANQ     122880,DL
         1 000563   000005 736000                    QLS     5
         1 000564   500016 552120                    STBQ    14,'20'O,PR5

     1598     9628
     1599     9629    2         CALL I$CHK_PARMS ALTRET(LOG_BAD_TPDU);

   9629  1 000565   001062 701000 1                  TSX1    I$CHK_PARMS
         1 000566   000650 702000 1                  TSX2    LOG_BAD_TPDU

     1600     9630
     1601     9631    2         IF KI$TCTX.SSN.TR_FLAGS.OSI = '0'B

   9631  1 000567   200004 470500                    LDP0    TCTX$,,AUTO
         1 000570   000016 236100                    LDQ     14,,PR0
         1 000571   000020 316007                    CANQ    16,DL
         1 000572   000650 600000 1                  TZE     LOG_BAD_TPDU

     1602     9632    2         THEN GOTO LOG_BAD_TPDU;
     1603     9633
     1604     9634    2         IF KI$TCTX.STATE = %KI_TSTATE_WFCC

   9634  1 000573   000000 236100                    LDQ     0,,PR0
         1 000574   777000 376003                    ANQ     -512,DU
         1 000575   003000 116003                    CMPQ    1536,DU
PL6.E3A0      #005=KIT$RECV File=KIT$TRANSPORT.:E05TSI                           WED 07/30/97 00:44 Page:242
         1 000576   000650 601000 1                  TNZ     LOG_BAD_TPDU

     1605     9635    3         THEN DO;

     1606     9636    3              KI$TCTX.DST_REF = B$TPDU_CR.SRC_REF;

   9636  1 000577   200003 471500                    LDP1    @K$RWPARM,,AUTO
         1 000600   100024 473500                    LDP3    20,,PR1
         1 000601   300001 220100                    LDX0    1,,PR3
         1 000602   000001 740100                    STX0    1,,PR0

     1607     9637    3              IF KI$TCTX.SSN.CLASS = 0

   9637  1 000603   200004 470500                    LDP0    TCTX$,,AUTO
         1 000604   000016 236100                    LDQ     14,,PR0
         1 000605   000777 316003                    CANQ    511,DU
         1 000606   000613 601000 1                  TNZ     s:9643

     1608     9638    4              THEN DO;

     1609     9639    4                   KI$TCTX.SSN.TR_FLAGS.EXTENDED = '0'B;

   9639  1 000607   000002 236000 2                  LDQ     2
         1 000610   000016 356100                    ANSQ    14,,PR0

     1610     9640    4                   KI$TCTX.SSN.TR_FLAGS.EXPEDITED = '0'B;

   9640  1 000611   000000 236000 2                  LDQ     0
         1 000612   000016 356100                    ANSQ    14,,PR0

     1611     9641    4                   END;

     1612     9642
     1613     9643    3              IF KI$TCTX.SSN.CLASS ~= 2

   9643  1 000613   000016 236100                    LDQ     14,,PR0
         1 000614   000777 376003                    ANQ     511,DU
PL6.E3A0      #005=KIT$RECV File=KIT$TRANSPORT.:E05TSI                           WED 07/30/97 00:44 Page:243
         1 000615   000002 116003                    CMPQ    2,DU
         1 000616   000621 600000 1                  TZE     s:9648

     1614     9644    4              THEN DO;

     1615     9645    4                   KI$TCTX.SSN.TR_FLAGS.CLASS_2_FLOW = '0'B;

   9645  1 000617   000003 236000 2                  LDQ     3
         1 000620   000016 356100                    ANSQ    14,,PR0

     1616     9646    4                   END;

     1617     9647
     1618     9648    3              IF KI$TCTX.SSN.CLASS ~= 4

   9648  1 000621   000016 236100                    LDQ     14,,PR0
         1 000622   000777 376003                    ANQ     511,DU
         1 000623   000004 116003                    CMPQ    4,DU
         1 000624   000627 600000 1                  TZE     s:9653

     1619     9649    4              THEN DO;

     1620     9650    4                   KI$TCTX.SSN.TR_FLAGS.CHKSUM = '0'B;

   9650  1 000625   000004 236000 2                  LDQ     4
         1 000626   000016 356100                    ANSQ    14,,PR0

     1621     9651    4                   END;

     1622     9652
     1623     9653    3              KI$TCTX.SSN.TR_FLAGS.EXTENDED = B$TPDU_CR.EXT_FMT_FLAG;

   9653  1 000627   100024 473500                    LDP3    20,,PR1
         1 000630   300001 236100                    LDQ     1,,PR3
         1 000631   000010 772000                    QRL     8
         1 000632   000016 676100                    ERQ     14,,PR0
         1 000633   000004 376007                    ANQ     4,DL
PL6.E3A0      #005=KIT$RECV File=KIT$TRANSPORT.:E05TSI                           WED 07/30/97 00:44 Page:244
         1 000634   000016 656100                    ERSQ    14,,PR0

     1624     9654
     1625     9655    3              KI$TCTX.STATE = %KI_TSTATE_OPEN;

   9655  1 000635   005000 236003                    LDQ     2560,DU
         1 000636   000000 552140                    STBQ    0,'40'O,PR0

     1626     9656
     1627     9657    3              K$RWPARM.TCTX$ = ADDR(KI$TCTX);

   9657  1 000637   200004 236100                    LDQ     TCTX$,,AUTO
         1 000640   100017 756100                    STQ     15,,PR1

     1628     9658    3              K$RWPARM.FUNCTION = %K_TCONNECT_CFM;

   9658  1 000641   000026 235007                    LDA     22,DL
         1 000642   100020 755100                    STA     16,,PR1

     1629     9659
     1630     9660    3              CALL KIS$OSI_RECV(K$RWPARM) ALTRET(CHECK_SNAP_N_RETURN);

   9660  1 000643   200003 630500                    EPPR0   @K$RWPARM,,AUTO
         1 000644   000017 631400 xsym               EPPR1   B_VECTNIL+15
         1 000645   000000 701000 xent               TSX1    KIS$OSI_RECV
         1 000646   001010 702000 1                  TSX2    CHECK_SNAP_N_RETURN

     1631     9661
     1632     9662    3              RETURN;

   9662  1 000647   000000 702200 xent               TSX2  ! X66_ARET

     1633     9663    3              END/*do if waitcc*/;
     1634     9664
     1635     9665    3         ELSE DO;

     1636     9666    3   LOG_BAD_TPDU:
PL6.E3A0      #005=KIT$RECV File=KIT$TRANSPORT.:E05TSI                           WED 07/30/97 00:44 Page:245
     1637     9667    3              CALL I$CHECK_SNAP;

   9667  1 000650   001021 701000 1     LOG_BAD_TPDU TSX1    I$CHECK_SNAP
         1 000651   000000 011000                    NOP     0

   9667  1 000652                       DISCARD_TPDU null
     1638     9668    3   DISCARD_TPDU: ;
     1639     9669    3              KIT_DISCARDED_TPDUS = KIT_DISCARDED_TPDUS +1;

   9669  1 000652   000000 235000 xsym               LDA     KIT_DISCARDED_TPDUS
         1 000653   000001 035007                    ADLA    1,DL
         1 000654   000000 755000 xsym               STA     KIT_DISCARDED_TPDUS

     1640     9670    3              RETURN;

   9670  1 000655   000000 702200 xent               TSX2  ! X66_ARET

     1641     9671    3              END;
     1642     9672
     1643     9673        %EJECT;
PL6.E3A0      #005=KIT$RECV File=KIT$TRANSPORT.:E05TSI                           WED 07/30/97 00:44 Page:246
     1644     9674        /*F* NAME: KIT$RECV - Disconnect Request TPDU
     1645     9675
     1646     9676        A Disconnect Request may be received only for either an OSI or CP-6 connections.
     1647     9677
     1648     9678        The Disconnect Confirm TPDU has already been sent by this host's
     1649     9679        local fep.  All that needs to be done is to notify Session of the
     1650     9680        Transport Disconnect indication and mark the transport connection
     1651     9681        closed.
     1652     9682        */
     1653     9683    2       CASE( %K_TPDU_TYPE_DR);

     1654     9684
     1655     9685    2         CALL I$CHK_PARMS ALTRET(LOG_BAD_TPDU);

   9685  1 000656   001062 701000 1                  TSX1    I$CHK_PARMS
         1 000657   000650 702000 1                  TSX2    LOG_BAD_TPDU

     1656     9686    2         KI$TCTX.REASON = B$TPDU_DR.REASON;

   9686  1 000660   200003 470500                    LDP0    @K$RWPARM,,AUTO
         1 000661   000024 471500                    LDP1    20,,PR0
         1 000662   200004 473500                    LDP3    TCTX$,,AUTO
         1 000663   100001 236100                    LDQ     1,,PR1
         1 000664   300000 552110                    STBQ    0,'10'O,PR3

   9686  1 000665                       REPORT_TDIS* null
     1657     9687
     1658     9688    2   REPORT_TDISCONNECT: ;
     1659     9689    2         K$RWPARM.FUNCTION = %K_TDISCONNECT_IND;

   9689  1 000665   000031 235007                    LDA     25,DL
         1 000666   200003 470500                    LDP0    @K$RWPARM,,AUTO
         1 000667   000020 755100                    STA     16,,PR0

     1660     9690    2         K$RWPARM.TCTX$ = ADDR(KI$TCTX);

   9690  1 000670   200004 236100                    LDQ     TCTX$,,AUTO
PL6.E3A0      #005=KIT$RECV File=KIT$TRANSPORT.:E05TSI                           WED 07/30/97 00:44 Page:247
         1 000671   000017 756100                    STQ     15,,PR0

     1661     9691    2         K$RWPARM.TCTX# = KI$TCTX.SRC_REF;

   9691  1 000672   200004 471500                    LDP1    TCTX$,,AUTO
         1 000673   100001 720100                    LXL0    1,,PR1
         1 000674   000033 740100                    STX0    27,,PR0

     1662     9692
     1663     9693    2         IF KI$TCTX.SSN.TR_FLAGS.OSI='0'B

   9693  1 000675   100016 236100                    LDQ     14,,PR1
         1 000676   000020 316007                    CANQ    16,DL
         1 000677   000707 601000 1                  TNZ     s:9696

     1664     9694    2         THEN CALL KIS$REP_TERM(TCTX#);

   9694  1 000700   200005 633500                    EPPR3   TCTX#,,AUTO
         1 000701   200060 453500                    STP3    PARMLEN+1,,AUTO
         1 000702   200060 630500                    EPPR0   PARMLEN+1,,AUTO
         1 000703   000017 631400 xsym               EPPR1   B_VECTNIL+15
         1 000704   000000 701000 xent               TSX1    KIS$REP_TERM
         1 000705   000000 011000                    NOP     0
         1 000706   000716 710000 1                  TRA     s:9702

     1665     9695    3         ELSE DO;

     1666     9696    3              CALL KIS$OSI_RECV(K$RWPARM)

   9696  1 000707   200003 630500                    EPPR0   @K$RWPARM,,AUTO
         1 000710   000017 631400 xsym               EPPR1   B_VECTNIL+15
         1 000711   000000 701000 xent               TSX1    KIS$OSI_RECV
         1 000712   000714 702000 1                  TSX2    s:9698
         1 000713   000716 710000 1                  TRA     s:9702

     1667     9697    4              WHENALTRETURN DO;

PL6.E3A0      #005=KIT$RECV File=KIT$TRANSPORT.:E05TSI                           WED 07/30/97 00:44 Page:248
     1668     9698    4                   CALL I$CHECK_SNAP;

   9698  1 000714   001021 701000 1                  TSX1    I$CHECK_SNAP
         1 000715   000000 011000                    NOP     0

     1669     9699    4                   END;

     1670     9700    3              END;

     1671     9701
     1672     9702    2         KI$TCTX.STATE = %KI_TSTATE_CLOSED;

   9702  1 000716   200004 470500                    LDP0    TCTX$,,AUTO
         1 000717   002000 236003                    LDQ     1024,DU
         1 000720   000000 552140                    STBQ    0,'40'O,PR0

     1673     9703    2         KI$TCTX.REMOTE_TERM = '1'B;

   9703  1 000721   200004 470500                    LDP0    TCTX$,,AUTO
         1 000722   000020 236007                    LDQ     16,DL
         1 000723   000002 256100                    ORSQ    2,,PR0

     1674     9704    2         CALL KIT$RELTCTX(TCTX$);

   9704  1 000724   200004 630500                    EPPR0   TCTX$,,AUTO
         1 000725   200060 450500                    STP0    PARMLEN+1,,AUTO
         1 000726   200060 630500                    EPPR0   PARMLEN+1,,AUTO
         1 000727   000017 631400 xsym               EPPR1   B_VECTNIL+15
         1 000730   000000 701000 xent               TSX1    KIT$RELTCTX
         1 000731   000000 011000                    NOP     0

     1675     9705
     1676     9706    2         RETURN;

   9706  1 000732   000000 702200 xent               TSX2  ! X66_ARET

     1677     9707
PL6.E3A0      #005=KIT$RECV File=KIT$TRANSPORT.:E05TSI                           WED 07/30/97 00:44 Page:249
     1678     9708        /* An Error TPDU may be received only for either an OSI or CP-6.
     1679     9709           All processing will have been done by the local Fep; all that
     1680     9710           is needed here is to report the disconnect to session and
     1681     9711           close the transport connection.
     1682     9712        */
     1683     9713    2       CASE( %K_TPDU_TYPE_ER);

     1684     9714    2         KI$TCTX.REASON = B$TPDU_ER.REJECT_CAUSE;

   9714  1 000733   000024 474500                    LDP4    20,,PR0
         1 000734   200004 475500                    LDP5    TCTX$,,AUTO
         1 000735   400001 236100                    LDQ     1,,PR4
         1 000736   000022 772000                    QRL     18
         1 000737   500000 552110                    STBQ    0,'10'O,PR5

     1685     9715    2         GOTO REPORT_TDISCONNECT;

   9715  1 000740   000665 710000 1                  TRA     REPORT_TDISCONNECT

     1686     9716
     1687     9717        %EJECT;
PL6.E3A0      #005=KIT$RECV File=KIT$TRANSPORT.:E05TSI                           WED 07/30/97 00:44 Page:250
     1688     9718        /*F* NAME: KIT$RECV - CP6 Control TPDU
     1689     9719
     1690     9720        A CP6 Control TPDU may be received for an OSI connection only.
     1691     9721        */
     1692     9722    2       CASE( %K_TPDU_TYPE_CP6);

     1693     9723
     1694     9724    2         IF KI$TCTX.SSN.TR_FLAGS.OSI = '0'B

   9724  1 000741   200004 474500                    LDP4    TCTX$,,AUTO
         1 000742   400016 236100                    LDQ     14,,PR4
         1 000743   000020 316007                    CANQ    16,DL
         1 000744   000650 600000 1                  TZE     LOG_BAD_TPDU

     1695     9725    2         THEN GOTO LOG_BAD_TPDU;
     1696     9726
     1697     9727    2         K$RWPARM.TCTX$ = ADDR(KI$TCTX);

   9727  1 000745   200004 236100                    LDQ     TCTX$,,AUTO
         1 000746   000017 756100                    STQ     15,,PR0

     1698     9728
     1699     9729    2         IF PARM$->K$TPARM_CP6_OPTIONS.CODE = %K_TPARM_FLOW_STOP

   9729  1 000747   300000 236100                    LDQ     0,,PR3
         1 000750   777000 376003                    ANQ     -512,DU
         1 000751   003000 116003                    CMPQ    1536,DU
         1 000752   000764 601000 1                  TNZ     s:9737

     1700     9730    3         THEN DO;

     1701     9731    3              KI$TCTX.SESSION_FLOW_STOPPED = '1'B;

   9731  1 000753   000001 236007                    LDQ     1,DL
         1 000754   400002 256100                    ORSQ    2,,PR4

     1702     9732    3              K$RWPARM.FUNCTION = %K_TFLOW_STOP;
PL6.E3A0      #005=KIT$RECV File=KIT$TRANSPORT.:E05TSI                           WED 07/30/97 00:44 Page:251

   9732  1 000755   000033 235007                    LDA     27,DL
         1 000756   000020 755100                    STA     16,,PR0

     1703     9733    3              CALL KIS$OSI_RECV(K$RWPARM) ALTRET(CHECK_SNAP_N_RETURN);

   9733  1 000757   200003 630500                    EPPR0   @K$RWPARM,,AUTO
         1 000760   000017 631400 xsym               EPPR1   B_VECTNIL+15
         1 000761   000000 701000 xent               TSX1    KIS$OSI_RECV
         1 000762   001010 702000 1                  TSX2    CHECK_SNAP_N_RETURN

     1704     9734    3              RETURN;

   9734  1 000763   000000 702200 xent               TSX2  ! X66_ARET

     1705     9735    3              END;
     1706     9736
     1707     9737    2         IF PARM$->K$TPARM_CP6_OPTIONS.CODE = %K_TPARM_FLOW_START

   9737  1 000764   004000 116003                    CMPQ    2048,DU
         1 000765   000777 601000 1                  TNZ     s:9745

     1708     9738    3         THEN DO;

     1709     9739    3              KI$TCTX.SESSION_FLOW_STOPPED = '0'B;

   9739  1 000766   000004 236000 2                  LDQ     4
         1 000767   400002 356100                    ANSQ    2,,PR4

     1710     9740    3              K$RWPARM.FUNCTION = %K_TFLOW_START;

   9740  1 000770   000034 235007                    LDA     28,DL
         1 000771   000020 755100                    STA     16,,PR0

     1711     9741    3              CALL KIS$OSI_RECV(K$RWPARM) ALTRET(CHECK_SNAP_N_RETURN);

   9741  1 000772   200003 630500                    EPPR0   @K$RWPARM,,AUTO
PL6.E3A0      #005=KIT$RECV File=KIT$TRANSPORT.:E05TSI                           WED 07/30/97 00:44 Page:252
         1 000773   000017 631400 xsym               EPPR1   B_VECTNIL+15
         1 000774   000000 701000 xent               TSX1    KIS$OSI_RECV
         1 000775   001010 702000 1                  TSX2    CHECK_SNAP_N_RETURN

     1712     9742    3              RETURN;

   9742  1 000776   000000 702200 xent               TSX2  ! X66_ARET

     1713     9743    3              END;
     1714     9744
     1715     9745    2         IF PARM$->K$TPARM_CP6_OPTIONS.CODE = %K_TPARM_SSN_CRDT_ACK

   9745  1 000777   005000 116003                    CMPQ    2560,DU
         1 001000   001013 601000 1                  TNZ     s:9758

     1716     9746    3         THEN DO;

     1717     9747    3              K$RWPARM.FUNCTION = %K_TCREDIT_ACK;

   9747  1 001001   000032 235007                    LDA     26,DL
         1 001002   000020 755100                    STA     16,,PR0

     1718     9748
     1719     9749    3              CALL KIS$OSI_RECV(K$RWPARM)

   9749  1 001003   200003 630500                    EPPR0   @K$RWPARM,,AUTO
         1 001004   000017 631400 xsym               EPPR1   B_VECTNIL+15
         1 001005   000000 701000 xent               TSX1    KIS$OSI_RECV
         1 001006   001010 702000 1                  TSX2    CHECK_SNAP_N_RETURN
         1 001007   001012 710000 1                  TRA     s:9755

     1720     9750    4              WHENALTRETURN DO;

     1721     9751    4   CHECK_SNAP_N_RETURN:
     1722     9752    4                   CALL I$CHECK_SNAP;

   9752  1 001010   001021 701000 1     CHECK_SNAP_* TSX1    I$CHECK_SNAP
PL6.E3A0      #005=KIT$RECV File=KIT$TRANSPORT.:E05TSI                           WED 07/30/97 00:44 Page:253
         1 001011   000000 011000                    NOP     0

     1723     9753    4                   END;

     1724     9754
     1725     9755    3              RETURN;

   9755  1 001012   000000 702200 xent               TSX2  ! X66_ARET

     1726     9756    3              END;
     1727     9757
     1728     9758    2         GOTO LOG_BAD_TPDU;

   9758  1 001013   000650 710000 1                  TRA     LOG_BAD_TPDU

     1729     9759
     1730     9760        %EJECT;
PL6.E3A0      #005=KIT$RECV File=KIT$TRANSPORT.:E05TSI                           WED 07/30/97 00:44 Page:254
     1731     9761        /*F* NAME: KIT$RECV - Unrecognized TPDU
     1732     9762
     1733     9763        For an unrecognized TPDU, we first take a dump of the host to
     1734     9764        capture the host ICQ, and then request a GJA-166-3 dump from
     1735     9765        the fep.
     1736     9766        */
     1737     9767    2       CASE(ELSE);

     1738     9768    2         CALL SC_PRTCL_SNAP;

   9768  1 001014   000000 713400 xsym               CLIMB   SC_PRTCL_SNAP
         1 001015   000000 600000 xsid               climb   nvectors=         0

     1739     9769    2         CALL I$CHECK_FEP_DUMP;

   9769  1 001016   001035 701000 1                  TSX1    I$CHECK_FEP_DUMP
         1 001017   000000 011000                    NOP     0

     1740     9770    2         RETURN;

   9770  1 001020   000000 702200 xent               TSX2  ! X66_ARET

     1741     9771
     1742     9772        /*S* SCREECH_CODE: KI-S$PRTCLERR
     1743     9773             TYPE: SNAP
     1744     9774             MESSAGE: Communications protocol error.
     1745     9775             REMARKS: Full screech if unrecoverable; snap if message ignored.
     1746     9776        */
     1747     9777
     1748     9778    2         END/*do case(type)*/;

     1749     9779
     1750     9780        %EJECT;
PL6.E3A0      #005=KIT$RECV File=KIT$TRANSPORT.:E05TSI                           WED 07/30/97 00:44 Page:255
     1751     9781        /*I* NAME: I$CHECK_SNAP
     1752     9782
     1753     9783        The I$CHECK_SNAP subroutine provides a single place to check for
     1754     9784        the need to take a snapshot dump, and to take the dump if required.
     1755     9785        */
     1756     9786
     1757     9787    1   I$CHECK_SNAP: PROC;

   9787  1 001021   200044 741300       I$CHECK_SNAP STX1  ! KL_FEPST+4,,AUTO

     1758     9788
     1759     9789    2      IF KIT_ERROR_SNAP ~= 0

   9789  1 001022   000000 235000 xsym               LDA     KIT_ERROR_SNAP
         1 001023   001032 601000 1                  TNZ     s:9791
         1 001024   200004 470500                    LDP0    TCTX$,,AUTO
         1 001025   000016 236100                    LDQ     14,,PR0
         1 001026   000020 316007                    CANQ    16,DL
         1 001027   001034 600000 1                  TZE     s:9791+2
         1 001030   000000 235000 xsym               LDA     KIT_OSI_SNAP
         1 001031   001034 600000 1                  TZE     s:9791+2

     1760     9790    2        OR (KI$TCTX.SSN.TR_FLAGS.OSI AND KIT_OSI_SNAP~=0)
     1761     9791    2      THEN CALL SC_PRTCL_SNAP;

   9791  1 001032   000000 713400 xsym               CLIMB   SC_PRTCL_SNAP
         1 001033   000000 600000 xsid               climb   nvectors=         0
         1 001034   001036 710000 1                  TRA     s:9794

     1762     9792
     1763     9793    2   I$CHECK_FEP_DUMP: ENTRY;

   9793  1 001035   200044 741300       I$CHECK_FEP* STX1  ! KL_FEPST+4,,AUTO

     1764     9794    2      IF KIT_DUMP_FEP ~= 0

   9794  1 001036   000000 235000 xsym               LDA     KIT_DUMP_FEP
PL6.E3A0      #005=KIT$RECV File=KIT$TRANSPORT.:E05TSI                           WED 07/30/97 00:44 Page:256
         1 001037   001060 600000 1                  TZE     s:9801

     1765     9795    3      THEN DO;

     1766     9796    3           KL_FEPST.FEP = K$RWPARM.FEX;

   9796  1 001040   200003 470500                    LDP0    @K$RWPARM,,AUTO
         1 001041   000021 236100                    LDQ     17,,PR0
         1 001042   000022 736000                    QLS     18
         1 001043   200040 552120                    STBQ    KL_FEPST,'20'O,AUTO

     1767     9797    3           KL_FEPST.FCN = IGA_CRASHFEP_BF;

   9797  1 001044   120000 236003                    LDQ     40960,DU
         1 001045   200040 552140                    STBQ    KL_FEPST,'40'O,AUTO

     1768     9798    3           CALL KUB$WRITE(KL_FEPST, LENGTHC(KL_FEPST), 'HLPADMIN');

   9798  1 001046   000006 236000 2                  LDQ     6
         1 001047   200062 756100                    STQ     PARMLEN+3,,AUTO
         1 001050   000007 236000 2                  LDQ     7
         1 001051   200061 756100                    STQ     PARMLEN+2,,AUTO
         1 001052   200040 631500                    EPPR1   KL_FEPST,,AUTO
         1 001053   200060 451500                    STP1    PARMLEN+1,,AUTO
         1 001054   200060 630500                    EPPR0   PARMLEN+1,,AUTO
         1 001055   000021 631400 xsym               EPPR1   B_VECTNIL+17
         1 001056   000000 701000 xent               TSX1    KUB$WRITE
         1 001057   000000 011000                    NOP     0

     1769     9799    3           END;

     1770     9800
     1771     9801    2      RETURN;

   9801  1 001060   200044 221300                    LDX1  ! KL_FEPST+4,,AUTO
         1 001061   000001 702211                    TSX2  ! 1,X1

PL6.E3A0      #005=KIT$RECV File=KIT$TRANSPORT.:E05TSI                           WED 07/30/97 00:44 Page:257
     1772     9802
     1773     9803    2   END I$CHECK_SNAP;
     1774     9804        %EJECT;
PL6.E3A0      #005=KIT$RECV File=KIT$TRANSPORT.:E05TSI                           WED 07/30/97 00:44 Page:258
     1775     9805        /*I* NAME: I$CHK_PARMS
     1776     9806
     1777     9807        */
     1778     9808    1   I$CHK_PARMS: PROC ALTRET;

   9808  1 001062   200044 741300       I$CHK_PARMS  STX1  ! KL_FEPST+4,,AUTO

     1779     9809
     1780     9810                                                /* Auto Storage                       */
     1781     9811        %K$TPARM_TSAP_ID (NAME=K$TPARM, STCLASS=AUTO, ALGN=CALIGNED);
     1782     9848    2   DCL 1 B$TPARM REDEF K$TPARM CHAR(34);
     1783     9849
     1784     9850    2   DCL K$TPARM$ PTR;
     1785     9851    2   DCL PARMLEN SBIN;
     1786     9852
     1787     9853
     1788     9854                                                /* Based Data                         */
     1789     9855        %K$TPDU_GENERIC (NAME=TPDU);
     1790     9915    2   DCL K$TPARM_GENERIC CHAR(PARMSIZE) BASED;
     1791     9916        %K$TPARM_TPDUSZ (ALGN=ALIGNED, STCLASS="BASED(K$TPARM$)");
     1792     9955        %K$TPARM_OPTION (ALGN=ALIGNED, STCLASS="BASED(K$TPARM$)");
     1793    10002        %K$TPARM_TSAP_ID (ALGN=ALIGNED, STCLASS="BASED(K$TPARM$)");
     1794    10039        %K$TPARM_VERSION (ALGN=ALIGNED, STCLASS="BASED(K$TPARM$)");
     1795    10075        %K$TPARM_CHKSUM (ALGN=ALIGNED, STCLASS="BASED(K$TPARM$)");
     1796    10115        %K$TPARM_CLR_INFO (ALGN=CALIGNED, STCLASS="BASED(K$TPARM$)");
     1797    10164
     1798    10165    2   DCL B$TSAP CHAR(PARMLEN) BASED;
     1799    10166
     1800    10167                                                /* External data                      */
     1801    10168    2   DCL K_TSAP_SZ UBIN SYMREF;
     1802    10169
     1803    10170        %EJECT;
PL6.E3A0      #005=KIT$RECV File=KIT$TRANSPORT.:E05TSI                           WED 07/30/97 00:44 Page:259
     1804    10171        /* Initialize check_parmas auto.
     1805    10172        */
     1806    10173    2      K$TPARM$ = ADDR(K$TPARM);

  10173  1 001063   200045 630500                    EPPR0   K$TPARM,,AUTO
         1 001064   200056 450500                    STP0    K$TPARM$,,AUTO

     1807    10174
     1808    10175    3      DO WHILE (PARMSIZE > 1 );       /*use 1 because it may be a CP-6 connection*/

  10175  1 001065   200012 235100                    LDA     PARMSIZE,,AUTO
         1 001066   000001 115007                    CMPA    1,DL
         1 001067   001510 604400 1                  TMOZ    s:10320

     1809    10176    3           B$TPARM = PARM$->K$TPARM_GENERIC;

  10176  1 001070   200011 470500                    LDP0    PARM$,,AUTO
         1 001071   200012 720100                    LXL0    PARMSIZE,,AUTO
         1 001072   040100 100540                    MLR     fill='040'O
         1 001073   000000 000010                    ADSC9   0,,PR0                   cn=0,n=*X0
         1 001074   200045 000042                    ADSC9   K$TPARM,,AUTO            cn=0,n=34

     1810    10177    3           PARMLEN = K$TPARM.LEN;

  10177  1 001075   200045 236100                    LDQ     K$TPARM,,AUTO
         1 001076   000022 772000                    QRL     18
         1 001077   000777 376007                    ANQ     511,DL
         1 001100   200057 756100                    STQ     PARMLEN,,AUTO

     1811    10178
     1812    10179    3           IF PARMLEN > PARMSIZE-2

  10179  1 001101   200012 236100                    LDQ     PARMSIZE,,AUTO
         1 001102   000002 136007                    SBLQ    2,DL
         1 001103   200057 116100                    CMPQ    PARMLEN,,AUTO
         1 001104   001112 605000 1                  TPL     s:10186

PL6.E3A0      #005=KIT$RECV File=KIT$TRANSPORT.:E05TSI                           WED 07/30/97 00:44 Page:260
     1813    10180    4           THEN DO;

  10173  1 001105                       SET_INVLEN   null
     1814    10181    4   SET_INVLEN:  ;
     1815    10182    4                KI$TCTX.REASON = %K_REASON_LEN_INV;

  10182  1 001105   200004 470500                    LDP0    TCTX$,,AUTO
         1 001106   212000 236007                    LDQ     70656,DL
         1 001107   000000 552110                    STBQ    0,'10'O,PR0

     1816    10183    4                ALTRETURN;

  10183  1 001110   200044 221300                    LDX1  ! KL_FEPST+4,,AUTO
         1 001111   000000 702211                    TSX2  ! 0,X1

     1817    10184    4                END;
     1818    10185
     1819    10186    4           DO SELECT (K$TPARM.CODE);

  10186  1 001112   200045 236100                    LDQ     K$TPARM,,AUTO
         1 001113   000033 772000                    QRL     27
         1 001114   000214 116007                    CMPQ    140,DL
         1 001115   001133 602000 1                  TNC     s:10186+17
         1 001116   001155 600000 1                  TZE     s:10206
         1 001117   000303 116007                    CMPQ    195,DL
         1 001120   001126 602000 1                  TNC     s:10186+12
         1 001121   001140 600000 1                  TZE     s:10191
         1 001122   000033 736000                    QLS     27
         1 001123   340000 116003                    CMPQ    114688,DU
         1 001124   001167 601000 1                  TNZ     s:10221
         1 001125   001156 710000 1                  TRA     s:10209
         1 001126   200045 236100                    LDQ     K$TPARM,,AUTO
         1 001127   777000 376003                    ANQ     -512,DU
         1 001130   301000 116003                    CMPQ    98816,DU
         1 001131   001167 601000 1                  TNZ     s:10221
         1 001132   001164 710000 1                  TRA     s:10213
         1 001133   200045 236100                    LDQ     K$TPARM,,AUTO
PL6.E3A0      #005=KIT$RECV File=KIT$TRANSPORT.:E05TSI                           WED 07/30/97 00:44 Page:261
         1 001134   777000 376003                    ANQ     -512,DU
         1 001135   212000 116003                    CMPQ    70656,DU
         1 001136   001167 601000 1                  TNZ     s:10221
         1 001137   001141 710000 1                  TRA     CHECK_AK

     1820    10187
     1821    10188        /* First check for the parameters that aren't limited to CR and CC.
     1822    10189        */
     1823    10190    4                SELECT(%K_TPARM_CHKSUM);

     1824    10191    4                GOTO GET_NEXT_PARM;

  10191  1 001140   001474 710000 1                  TRA     GET_NEXT_PARM

     1825    10192
     1826    10193    4                SELECT(%K_TPARM_SUBSEQ);

  10193  1 001141                       CHECK_AK     null
     1827    10194    4   CHECK_AK:    ;
     1828    10195    4                IF TYPE ~= %K_TPDU_TYPE_AK

  10195  1 001141   200007 235100                    LDA     TYPE,,AUTO
         1 001142   000006 115007                    CMPA    6,DL
         1 001143   001154 600000 1                  TZE     s:10203

     1829    10196    5                THEN DO;

  10194  1 001144                       SET_INVPARM  null
     1830    10197    5   SET_INVPARM:      ;
     1831    10198    5                     KI$TCTX.REASON = %K_REASON_PROTOCOL;

  10198  1 001144   200004 470500                    LDP0    TCTX$,,AUTO
         1 001145   205000 236007                    LDQ     68096,DL
         1 001146   000000 552110                    STBQ    0,'10'O,PR0

     1832    10199    5                     KI$TCTX.ERR = %K_ERROR_INVPARM;

PL6.E3A0      #005=KIT$RECV File=KIT$TRANSPORT.:E05TSI                           WED 07/30/97 00:44 Page:262
  10199  1 001147   200004 470500                    LDP0    TCTX$,,AUTO
         1 001150   000342 236007                    LDQ     226,DL
         1 001151   000000 552104                    STBQ    0,'04'O,PR0

     1833    10200    5                     ALTRETURN;

  10200  1 001152   200044 221300                    LDX1  ! KL_FEPST+4,,AUTO
         1 001153   000000 702211                    TSX2  ! 0,X1

     1834    10201    5                     END;
     1835    10202
     1836    10203    4                GOTO GET_NEXT_PARM;

  10203  1 001154   001474 710000 1                  TRA     GET_NEXT_PARM

     1837    10204
     1838    10205    4                SELECT(%K_TPARM_FCC);

     1839    10206    4                GOTO CHECK_AK;

  10206  1 001155   001141 710000 1                  TRA     CHECK_AK

     1840    10207
     1841    10208    4                SELECT(%K_TPARM_CLR_INFO);

     1842    10209    4                KI$TCTX.ERR = K$TPARM_CLR_INFO.ERR;

  10209  1 001156   200056 471500                    LDP1    K$TPARM$,,AUTO
         1 001157   200004 473500                    LDP3    TCTX$,,AUTO
         1 001160   000100 100500                    MLR     fill='000'O
         1 001161   100000 400001                    ADSC9   0,,PR1                   cn=2,n=1
         1 001162   300000 600001                    ADSC9   0,,PR3                   cn=3,n=1

     1843    10210    4                GOTO GET_NEXT_PARM;

  10210  1 001163   001474 710000 1                  TRA     GET_NEXT_PARM

PL6.E3A0      #005=KIT$RECV File=KIT$TRANSPORT.:E05TSI                           WED 07/30/97 00:44 Page:263
     1844    10211
     1845    10212    4                SELECT(%K_TPARM_INVALID_TPDU);
             10212                         /* this is the same code for CALLING_TSAP*/

     1846    10213    4                IF TYPE = %K_TPDU_TYPE_ER

  10213  1 001164   200007 235100                    LDA     TYPE,,AUTO
         1 001165   000007 115007                    CMPA    7,DL
         1 001166   001474 600000 1                  TZE     GET_NEXT_PARM

     1847    10214    4                THEN GOTO GET_NEXT_PARM;
     1848    10215
     1849    10216    4                END/*do select*/;

     1850    10217
     1851    10218        %EJECT;
PL6.E3A0      #005=KIT$RECV File=KIT$TRANSPORT.:E05TSI                           WED 07/30/97 00:44 Page:264
     1852    10219        /* Now check those that are valid only with CR or CC.
     1853    10220        */
     1854    10221    3           IF (TYPE ~= %K_TPDU_TYPE_CR) AND (TYPE ~= %K_TPDU_TYPE_CC)

  10221  1 001167   200007 235100                    LDA     TYPE,,AUTO
         1 001170   000016 115007                    CMPA    14,DL
         1 001171   001174 600000 1                  TZE     s:10224
         1 001172   000015 115007                    CMPA    13,DL
         1 001173   001144 601000 1                  TNZ     SET_INVPARM

     1855    10222    3           THEN GOTO SET_INVPARM;
     1856    10223
     1857    10224    4           DO SELECT (K$TPARM.CODE);

  10224  1 001174   200045 236100                    LDQ     K$TPARM,,AUTO
         1 001175   000033 772000                    QRL     27
         1 001176   000302 116007                    CMPQ    194,DL
         1 001177   001220 602000 1                  TNC     s:10224+20
         1 001200   001370 600000 1                  TZE     s:10262
         1 001201   000305 116007                    CMPQ    197,DL
         1 001202   001213 602000 1                  TNC     s:10224+15
         1 001203   001473 600000 1                  TZE     s:10303
         1 001204   000306 116007                    CMPQ    198,DL
         1 001205   001474 602000 1                  TNC     GET_NEXT_PARM
         1 001206   001315 600000 1                  TZE     s:10241
         1 001207   000033 736000                    QLS     27
         1 001210   307000 116003                    CMPQ    101888,DU
         1 001211   001474 601000 1                  TNZ     GET_NEXT_PARM
         1 001212   001473 710000 1                  TRA     s:10303
         1 001213   200045 236100                    LDQ     K$TPARM,,AUTO
         1 001214   777000 376003                    ANQ     -512,DU
         1 001215   304000 116003                    CMPQ    100352,DU
         1 001216   001474 601000 1                  TNZ     GET_NEXT_PARM
         1 001217   001462 710000 1                  TRA     s:10298
         1 001220   200045 236100                    LDQ     K$TPARM,,AUTO
         1 001221   000033 772000                    QRL     27
         1 001222   000211 116007                    CMPQ    137,DL
PL6.E3A0      #005=KIT$RECV File=KIT$TRANSPORT.:E05TSI                           WED 07/30/97 00:44 Page:265
         1 001223   001241 602000 1                  TNC     s:10224+37
         1 001224   001473 600000 1                  TZE     s:10303
         1 001225   000300 116007                    CMPQ    192,DL
         1 001226   001234 602000 1                  TNC     s:10224+32
         1 001227   001262 600000 1                  TZE     s:10226
         1 001230   000033 736000                    QLS     27
         1 001231   301000 116003                    CMPQ    98816,DU
         1 001232   001474 601000 1                  TNZ     GET_NEXT_PARM
         1 001233   001427 710000 1                  TRA     s:10281
         1 001234   200045 236100                    LDQ     K$TPARM,,AUTO
         1 001235   777000 376003                    ANQ     -512,DU
         1 001236   213000 116003                    CMPQ    71168,DU
         1 001237   001474 601000 1                  TNZ     GET_NEXT_PARM
         1 001240   001473 710000 1                  TRA     s:10303
         1 001241   200045 236100                    LDQ     K$TPARM,,AUTO
         1 001242   000033 772000                    QRL     27
         1 001243   000206 116007                    CMPQ    134,DL
         1 001244   001255 602000 1                  TNC     s:10224+49
         1 001245   001473 600000 1                  TZE     s:10303
         1 001246   000207 116007                    CMPQ    135,DL
         1 001247   001474 602000 1                  TNC     GET_NEXT_PARM
         1 001250   001473 600000 1                  TZE     s:10303
         1 001251   000033 736000                    QLS     27
         1 001252   210000 116003                    CMPQ    69632,DU
         1 001253   001474 601000 1                  TNZ     GET_NEXT_PARM
         1 001254   001473 710000 1                  TRA     s:10303
         1 001255   200045 236100                    LDQ     K$TPARM,,AUTO
         1 001256   777000 376003                    ANQ     -512,DU
         1 001257   205000 116003                    CMPQ    68096,DU
         1 001260   001474 601000 1                  TNZ     GET_NEXT_PARM
         1 001261   001473 710000 1                  TRA     s:10303

     1858    10225    4                SELECT (%K_TPARM_TPDUSZ);

     1859    10226    4                IF PARMLEN ~= 1

  10226  1 001262   200057 236100                    LDQ     PARMLEN,,AUTO
PL6.E3A0      #005=KIT$RECV File=KIT$TRANSPORT.:E05TSI                           WED 07/30/97 00:44 Page:266
         1 001263   000001 116007                    CMPQ    1,DL
         1 001264   001105 601000 1                  TNZ     SET_INVLEN

     1860    10227    4                THEN GOTO SET_INVLEN;
     1861    10228
     1862    10229    4                IF (K$TPARM_TPDUSZ.SIZE < %K_TPDUSIZE_128) OR

  10229  1 001265   200056 471500                    LDP1    K$TPARM$,,AUTO
         1 001266   100000 236100                    LDQ     0,,PR1
         1 001267   777000 376007                    ANQ     -512,DL
         1 001270   007000 116007                    CMPQ    3584,DL
         1 001271   001344 602000 1                  TNC     SET_NEGOTIATION
         1 001272   016000 116007                    CMPQ    7168,DL
         1 001273   001344 603000 1                  TRC     SET_NEGOTIATION

     1863    10230    4                  (K$TPARM_TPDUSZ.SIZE > %K_TPDUSIZE_8192)
     1864    10231    4                THEN GOTO SET_NEGOTIATION;
     1865    10232
     1866    10233    4                IF K$TPARM_TPDUSZ.SIZE > KI$TCTX.SSN.TPDUSZ_PARM

  10233  1 001274   100000 236100                    LDQ     0,,PR1
         1 001275   000011 772000                    QRL     9
         1 001276   000777 376007                    ANQ     511,DL
         1 001277   200060 756100                    STQ     PARMLEN+1,,AUTO
         1 001300   200004 473500                    LDP3    TCTX$,,AUTO
         1 001301   300014 236100                    LDQ     12,,PR3
         1 001302   000022 772000                    QRL     18
         1 001303   200060 116100                    CMPQ    PARMLEN+1,,AUTO
         1 001304   001307 605000 1                  TPL     s:10237
         1 001305   000015 115007                    CMPA    13,DL
         1 001306   001344 600000 1                  TZE     SET_NEGOTIATION

     1867    10234    4                  AND TYPE = %K_TPDU_TYPE_CC
     1868    10235    4                THEN GOTO SET_NEGOTIATION;
     1869    10236
     1870    10237    4                KI$TCTX.SSN.TPDUSZ_PARM = K$TPARM_TPDUSZ.SIZE;

PL6.E3A0      #005=KIT$RECV File=KIT$TRANSPORT.:E05TSI                           WED 07/30/97 00:44 Page:267
  10237  1 001307   100000 236100                    LDQ     0,,PR1
         1 001310   000011 772000                    QRL     9
         1 001311   000777 376007                    ANQ     511,DL
         1 001312   000000 621006                    EAX1    0,QL
         1 001313   300014 741100                    STX1    12,,PR3
         1 001314   001474 710000 1                  TRA     GET_NEXT_PARM

     1871    10238
     1872    10239
     1873    10240    4                SELECT(%K_TPARM_OPTION);

     1874    10241    4                IF PARMLEN ~= 1

  10241  1 001315   200057 235100                    LDA     PARMLEN,,AUTO
         1 001316   000001 115007                    CMPA    1,DL
         1 001317   001105 601000 1                  TNZ     SET_INVLEN

     1875    10242    4                THEN GOTO SET_INVLEN;
     1876    10243
     1877    10244    4                IF K$TPARM_OPTION.EXPD

  10244  1 001320   200056 471500                    LDP1    K$TPARM$,,AUTO
         1 001321   100000 236100                    LDQ     0,,PR1
         1 001322   001000 316007                    CANQ    512,DL
         1 001323   001330 600000 1                  TZE     s:10246

     1878    10245    4                THEN KI$TCTX.SSN.TR_FLAGS.EXPEDITED = '1'B;

  10245  1 001324   200004 473500                    LDP3    TCTX$,,AUTO
         1 001325   000002 236007                    LDQ     2,DL
         1 001326   300016 256100                    ORSQ    14,,PR3
         1 001327   001333 710000 1                  TRA     s:10248

     1879    10246    4                ELSE KI$TCTX.SSN.TR_FLAGS.EXPEDITED = '0'B;

  10246  1 001330   200004 473500                    LDP3    TCTX$,,AUTO
         1 001331   000000 236000 2                  LDQ     0
PL6.E3A0      #005=KIT$RECV File=KIT$TRANSPORT.:E05TSI                           WED 07/30/97 00:44 Page:268
         1 001332   300016 356100                    ANSQ    14,,PR3

     1880    10247
     1881    10248    4                IF TYPE = %K_TPDU_TYPE_CC

  10248  1 001333   200007 236100                    LDQ     TYPE,,AUTO
         1 001334   000015 116007                    CMPQ    13,DL
         1 001335   001351 601000 1                  TNZ     s:10257
         1 001336   300016 236100                    LDQ     14,,PR3
         1 001337   000001 316007                    CANQ    1,DL
         1 001340   001351 600000 1                  TZE     s:10257
         1 001341   100000 236100                    LDQ     0,,PR1
         1 001342   002000 316007                    CANQ    1024,DL
         1 001343   001351 600000 1                  TZE     s:10257

     1882    10249    4                  AND KI$TCTX.SSN.TR_FLAGS.CHKSUM ~= '0'B
     1883    10250    4                  AND K$TPARM_OPTION.CHKSUM /*means dont use chksum if set*/
     1884    10251    5                THEN DO;

  10246  1 001344                       SET_NEGOTIA* null
     1885    10252    5   SET_NEGOTIATION:  ;
     1886    10253    5                     KI$TCTX.REASON = %K_REASON_NEGOTIATION;

  10253  1 001344   200004 473500                    LDP3    TCTX$,,AUTO
         1 001345   202000 236007                    LDQ     66560,DL
         1 001346   300000 552110                    STBQ    0,'10'O,PR3

     1887    10254    5                     ALTRETURN;

  10254  1 001347   200044 221300                    LDX1  ! KL_FEPST+4,,AUTO
         1 001350   000000 702211                    TSX2  ! 0,X1

     1888    10255    5                     END;
     1889    10256
     1890    10257    4                IF ~(K$TPARM_OPTION.CHKSUM) AND KI$TCTX.SSN.CLASS=4

  10257  1 001351   100000 236100                    LDQ     0,,PR1
PL6.E3A0      #005=KIT$RECV File=KIT$TRANSPORT.:E05TSI                           WED 07/30/97 00:44 Page:269
         1 001352   000031 736000                    QLS     25
         1 001353   400000 376003                    ANQ     -131072,DU
         1 001354   400000 676003                    ERQ     -131072,DU
         1 001355   001365 600000 1                  TZE     s:10259
         1 001356   300016 236100                    LDQ     14,,PR3
         1 001357   000777 376003                    ANQ     511,DU
         1 001360   000004 116003                    CMPQ    4,DU
         1 001361   001365 601000 1                  TNZ     s:10259

     1891    10258    4                THEN KI$TCTX.SSN.TR_FLAGS.CHKSUM = '1'B;

  10258  1 001362   000001 236007                    LDQ     1,DL
         1 001363   300016 256100                    ORSQ    14,,PR3
         1 001364   001474 710000 1                  TRA     GET_NEXT_PARM

     1892    10259    4                ELSE KI$TCTX.SSN.TR_FLAGS.CHKSUM = '0'B;

  10259  1 001365   000004 236000 2                  LDQ     4
         1 001366   300016 356100                    ANSQ    14,,PR3
         1 001367   001474 710000 1                  TRA     GET_NEXT_PARM

     1893    10260
     1894    10261    4                SELECT(%K_TPARM_CALLED_TSAP);

     1895    10262    4                IF PARMLEN > K_TSAP_SZ

  10262  1 001370   000000 236000 xsym               LDQ     K_TSAP_SZ
         1 001371   001374 604000 1                  TMI     s:10265
         1 001372   200057 116100                    CMPQ    PARMLEN,,AUTO
         1 001373   001105 604000 1                  TMI     SET_INVLEN

     1896    10263    4                THEN GOTO SET_INVLEN;
     1897    10264
     1898    10265    4                IF TYPE = %K_TPDU_TYPE_CR

  10265  1 001374   000016 115007                    CMPA    14,DL
         1 001375   001406 601000 1                  TNZ     s:10271
PL6.E3A0      #005=KIT$RECV File=KIT$TRANSPORT.:E05TSI                           WED 07/30/97 00:44 Page:270

     1899    10266    5                THEN DO;

     1900    10267    5                     KI$TCTX.SSN.DST_TSAP.LEN = PARMLEN;

  10267  1 001376   200057 721100                    LXL1    PARMLEN,,AUTO
         1 001377   200004 471500                    LDP1    TCTX$,,AUTO
         1 001400   100031 741100                    STX1    25,,PR1

     1901    10268    5                     KI$TCTX.SSN.DST_TSAP.TSAP = ADDR(K$TPARM_TSAP_ID.ID)->B$TSAP;

  10268  1 001401   200056 473500                    LDP3    K$TPARM$,,AUTO
         1 001402   040100 100540                    MLR     fill='040'O
         1 001403   300000 400011                    ADSC9   0,,PR3                   cn=2,n=*X1
         1 001404   100031 400040                    ADSC9   25,,PR1                  cn=2,n=32

     1902    10269    5                     END;

  10269  1 001405   001474 710000 1                  TRA     GET_NEXT_PARM

     1903    10270    5                ELSE DO;

     1904    10271    5                     IF KI$TCTX.SSN.DST_TSAP.LEN = PARMLEN

  10271  1 001406   200004 471500                    LDP1    TCTX$,,AUTO
         1 001407   100031 236100                    LDQ     25,,PR1
         1 001410   000022 772000                    QRL     18
         1 001411   200057 116100                    CMPQ    PARMLEN,,AUTO
         1 001412   001421 601000 1                  TNZ     SET_BADTSAP

     1905    10272    5                     THEN IF ADDR(KI$TCTX.SSN.DST_TSAP.TSAP)->B$TSAP

  10272  1 001413   200057 721100                    LXL1    PARMLEN,,AUTO
         1 001414   200056 473500                    LDP3    K$TPARM$,,AUTO
         1 001415   040140 106540                    CMPC    fill='040'O
         1 001416   100031 400011                    ADSC9   25,,PR1                  cn=2,n=*X1
         1 001417   300000 400011                    ADSC9   0,,PR3                   cn=2,n=*X1
PL6.E3A0      #005=KIT$RECV File=KIT$TRANSPORT.:E05TSI                           WED 07/30/97 00:44 Page:271
         1 001420   001426 600000 1                  TZE     s:10277+2

  10272  1 001421                       SET_BADTSAP  null
     1906    10273    5                            = ADDR(K$TPARM_TSAP_ID.ID)->B$TSAP
     1907    10274    5                          THEN EXIT;
     1908    10275    5   SET_BADTSAP:      ;
     1909    10276    5                     KI$TCTX.REASON = %K_REASON_ADDRESS_UNKNOWN;

  10276  1 001421   200004 470500                    LDP0    TCTX$,,AUTO
         1 001422   003000 236007                    LDQ     1536,DL
         1 001423   000000 552110                    STBQ    0,'10'O,PR0

     1910    10277    5                     ALTRETURN;

  10277  1 001424   200044 221300                    LDX1  ! KL_FEPST+4,,AUTO
         1 001425   000000 702211                    TSX2  ! 0,X1
         1 001426   001474 710000 1                  TRA     GET_NEXT_PARM

     1911    10278    5                     END;
     1912    10279
     1913    10280    4                SELECT(%K_TPARM_CALLING_TSAP);

     1914    10281    4                IF PARMLEN > K_TSAP_SZ

  10281  1 001427   000000 236000 xsym               LDQ     K_TSAP_SZ
         1 001430   001433 604000 1                  TMI     s:10284
         1 001431   200057 116100                    CMPQ    PARMLEN,,AUTO
         1 001432   001105 604000 1                  TMI     SET_INVLEN

     1915    10282    4                THEN GOTO SET_INVLEN;
     1916    10283
     1917    10284    4                IF TYPE = %K_TPDU_TYPE_CR

  10284  1 001433   000016 115007                    CMPA    14,DL
         1 001434   001445 601000 1                  TNZ     s:10290

     1918    10285    5                THEN DO;
PL6.E3A0      #005=KIT$RECV File=KIT$TRANSPORT.:E05TSI                           WED 07/30/97 00:44 Page:272

     1919    10286    5                     KI$TCTX.SSN.SRC_TSAP.LEN = PARMLEN;

  10286  1 001435   200057 721100                    LXL1    PARMLEN,,AUTO
         1 001436   200004 471500                    LDP1    TCTX$,,AUTO
         1 001437   100020 741100                    STX1    16,,PR1

     1920    10287    5                     KI$TCTX.SSN.SRC_TSAP.TSAP = ADDR(K$TPARM_TSAP_ID.ID)->B$TSAP;

  10287  1 001440   200056 473500                    LDP3    K$TPARM$,,AUTO
         1 001441   040100 100540                    MLR     fill='040'O
         1 001442   300000 400011                    ADSC9   0,,PR3                   cn=2,n=*X1
         1 001443   100020 400040                    ADSC9   16,,PR1                  cn=2,n=32

     1921    10288    5                     END;

  10288  1 001444   001474 710000 1                  TRA     GET_NEXT_PARM

     1922    10289    5                ELSE DO;

     1923    10290    5                     IF KI$TCTX.SSN.SRC_TSAP.LEN = PARMLEN

  10290  1 001445   200004 471500                    LDP1    TCTX$,,AUTO
         1 001446   100020 236100                    LDQ     16,,PR1
         1 001447   000022 772000                    QRL     18
         1 001450   200057 116100                    CMPQ    PARMLEN,,AUTO
         1 001451   001474 601000 1                  TNZ     GET_NEXT_PARM

     1924    10291    5                     THEN IF ADDR(KI$TCTX.SSN.SRC_TSAP.TSAP)->B$TSAP

  10291  1 001452   200057 721100                    LXL1    PARMLEN,,AUTO
         1 001453   200056 473500                    LDP3    K$TPARM$,,AUTO
         1 001454   040140 106540                    CMPC    fill='040'O
         1 001455   100020 400011                    ADSC9   16,,PR1                  cn=2,n=*X1
         1 001456   300000 400011                    ADSC9   0,,PR3                   cn=2,n=*X1
         1 001457   001461 600000 1                  TZE     s:10294+1

PL6.E3A0      #005=KIT$RECV File=KIT$TRANSPORT.:E05TSI                           WED 07/30/97 00:44 Page:273
     1925    10292    5                            = ADDR(K$TPARM_TSAP_ID.ID)->B$TSAP
     1926    10293    5                          THEN EXIT;
     1927    10294    5                          ELSE GOTO SET_BADTSAP;

  10294  1 001460   001421 710000 1                  TRA     SET_BADTSAP
         1 001461   001474 710000 1                  TRA     GET_NEXT_PARM

     1928    10295    5                     END;
     1929    10296
     1930    10297    4                SELECT(%K_TPARM_VERSION);

     1931    10298    4                IF PARMLEN ~= 1

  10298  1 001462   200057 235100                    LDA     PARMLEN,,AUTO
         1 001463   000001 115007                    CMPA    1,DL
         1 001464   001105 601000 1                  TNZ     SET_INVLEN

     1932    10299    4                THEN GOTO SET_INVLEN;
     1933    10300
     1934    10301    4                KI$TCTX.VERS = K$TPARM_VERSION.VERS;

  10301  1 001465   200056 471500                    LDP1    K$TPARM$,,AUTO
         1 001466   200004 473500                    LDP3    TCTX$,,AUTO
         1 001467   100000 236100                    LDQ     0,,PR1
         1 001470   000011 736000                    QLS     9
         1 001471   300002 552120                    STBQ    2,'20'O,PR3
         1 001472   001474 710000 1                  TRA     GET_NEXT_PARM

     1935    10302
     1936    10303    4                SELECT(%K_TPARM_SECURITY, %K_TPARM_ALT_CLASS,

  10303  1 001473   001474 710000 1                  TRA     GET_NEXT_PARM

     1937    10304    4                  %K_TPARM_ACK_TIME, %K_TPARM_THROUGHPUT,
     1938    10305    4                  %K_TPARM_ERR_RATE, %K_TPARM_PRIORITY,
     1939    10306    4                  %K_TPARM_TRANSIT_DELAY, %K_TPARM_REASS_TIME);
     1940    10307
PL6.E3A0      #005=KIT$RECV File=KIT$TRANSPORT.:E05TSI                           WED 07/30/97 00:44 Page:274
     1941    10308        /* The NBS Implmentation Agreements says to ignore unknown parameters.
     1942    10309        */
     1943    10310
     1944    10311    4                SELECT (ELSE);

     1945    10312
     1946    10313    4                END/*do select*/;

  10306  1 001474                       GET_NEXT_PA* null
     1947    10314
     1948    10315    3   GET_NEXT_PARM: ;
     1949    10316    3      PARMSIZE = PARMSIZE - PARMLEN - 2;

  10316  1 001474   200012 236100                    LDQ     PARMSIZE,,AUTO
         1 001475   200057 136100                    SBLQ    PARMLEN,,AUTO
         1 001476   000002 136007                    SBLQ    2,DL
         1 001477   200012 756100                    STQ     PARMSIZE,,AUTO

     1950    10317    3      PARM$ =PINCRC(PARM$,PARMLEN+2);

  10317  1 001500   200057 236100                    LDQ     PARMLEN,,AUTO
         1 001501   000020 736000                    QLS     16
         1 001502   400000 036007                    ADLQ    -131072,DL
         1 001503   200011 036100                    ADLQ    PARM$,,AUTO
         1 001504   200011 756100                    STQ     PARM$,,AUTO

     1951    10318    3           END/*do while parmsize > 1*/;

  10318  1 001505   200012 235100                    LDA     PARMSIZE,,AUTO
         1 001506   000001 115007                    CMPA    1,DL
         1 001507   001070 605400 1                  TPNZ    s:10176

     1952    10319
     1953    10320    2      IF PARMSIZE < 0

  10320  1 001510   000000 115003                    CMPA    0,DU
         1 001511   001522 605000 1                  TPL     s:10327
PL6.E3A0      #005=KIT$RECV File=KIT$TRANSPORT.:E05TSI                           WED 07/30/97 00:44 Page:275

     1954    10321    3      THEN DO;

     1955    10322    3           KI$TCTX.REASON = %K_REASON_PROTOCOL;

  10322  1 001512   200004 470500                    LDP0    TCTX$,,AUTO
         1 001513   205000 236007                    LDQ     68096,DL
         1 001514   000000 552110                    STBQ    0,'10'O,PR0

     1956    10323    3           KI$TCTX.ERR = %K_ERROR_INVPARM_LEN;

  10323  1 001515   200004 470500                    LDP0    TCTX$,,AUTO
         1 001516   000343 236007                    LDQ     227,DL
         1 001517   000000 552104                    STBQ    0,'04'O,PR0

     1957    10324    3           ALTRETURN;

  10324  1 001520   200044 221300                    LDX1  ! KL_FEPST+4,,AUTO
         1 001521   000000 702211                    TSX2  ! 0,X1

     1958    10325    3           END;
     1959    10326
     1960    10327    2      RETURN;

  10327  1 001522   200044 221300                    LDX1  ! KL_FEPST+4,,AUTO
         1 001523   000001 702211                    TSX2  ! 1,X1

(unnamed)
 Sect OctLoc
   0     000   110114 120101   104115 111116                                    HLPADMIN

(unnamed)
 Sect OctLoc
   2     000   777777 777775   000000 006000   777777 777773   777777 777767    ................
   2     004   777777 777776   000000 000016   000000 006000   000005 006000    ................
     1961    10328
     1962    10329    2   END I$CHK_PARMS;
PL6.E3A0      #005=KIT$RECV File=KIT$TRANSPORT.:E05TSI                           WED 07/30/97 00:44 Page:276
     1963    10330    1   END KIT$RECV;
     1964    10331        %EOD;

PL6.E3A0      #005=KIT$RECV File=KIT$TRANSPORT.:E05TSI                           WED 07/30/97 00:44 Page:277
--  Include file information  --

   HF_LOCK_C.:E05TOU  cannot be made into a system file and is referenced.
   KL_MACRO_C.:E05TOU  is referenced.
   KL_AFCN_C.:E05TOU  is referenced.
   KI_MACROS_C.:E05TOU  is referenced.
   K_INTERFACE_M.:E05TOU  is referenced.
   K_ADDRESS_M.:E05TOU  is referenced.
   K_TRANSPORT_E.:E05TOU  is referenced.
   K_TRANSPORT_M.:E05TOU  is referenced.
   K_SUBS_C.:E05TOU  is referenced.
   K$RWPARM.:E05TOU  is referenced.
      No diagnostics issued in procedure KIT$RECV.
PL6.E3A0      #005=KIT$RECV File=KIT$TRANSPORT.:E05TSI                           WED 07/30/97 00:44 Page:278

 **** Variables and constants ****

  ****  Auto variables  ****

  ****  Scalars and arrays  ****
OctLoc.c.b A Datatyp(siz) R M Lvl/name                 OctLoc.c.b A Datatyp(siz) R M Lvl/name

     3-0-0/w PTR         r     1 @K$RWPARM                 45-0-0/c CHAR(34)    r     1 B$TPARM
    13-0-0/w PTR         r     1 DATA$                     14-0-0/w UBIN        r     1 DATASIZE
    *0-0-0/d STRC(1404)  r     1 K$RWPARM                  45-0-0/c STRC(306)   r     1 K$TPARM
    56-0-0/w PTR         r     1 K$TPARM$                  21-0-0/w STRC(540)   r     1 K@TCTX
    40-0-0/w STRC(126)   r     1 KL_FEPST                  10-0-0/w UBIN        r     1 LI
    11-0-0/w PTR         r     1 PARM$                     57-0-0/w SBIN        r     1 PARMLEN
    12-0-0/w SBIN        r     1 PARMSIZE                   5-0-0/w UBIN        r     1 TCTX#
     4-0-0/w PTR         r     1 TCTX$                      6-0-0/w UBIN        r     1 TEMP
    15-0-0/w PTR         r     1 TPDU_NR$                   7-0-0/w UBIN        r     1 TYPE

  ****  SYMREF variables  ****

  ****  Scalars and arrays  ****
OctLoc.c.b A Datatyp(siz) R M Lvl/name                 OctLoc.c.b A Datatyp(siz) R M Lvl/name

     0-0-0/w UBIN        r     1 KIT_DISCARDED_TPDUS        0-0-0/w UBIN        r     1 KIT_DUMP_FEP
     0-0-0/w UBIN        r     1 KIT_ERROR_SNAP             0-0-0/w UBIN        r     1 KIT_OSI_SNAP
     0-0-0/b BIT (72)    r     1 KIT_RECV_LOCK              0-0-0/w PTR         r     1 KI_TCTX$$
     0-0-0/w UBIN        r     1 KI_TCTX_MAX#
     0-0-0/w SBIN        r     1 K_TPDU_SIZE(0:15)
     0-0-0/w SBIN        r     1 K_TPDU_SIZE_EXT(0:15)
     0-0-0/w UBIN        r     1 K_TSAP_SZ

  ****  BASED and DCB variables  ****

  ****  Scalars and arrays  ****
OctLoc.c.b A Datatyp(siz) R M Lvl/name                 OctLoc.c.b A Datatyp(siz) R M Lvl/name

     0-0-0/w UBIN        r     1 B$NEXT                     0-0-0/c STRC(198)   r     1 B$NSAP
     0-0-0/w STRC(63)    r     1 B$TPDU_CR                  0-0-0/w STRC(63)    r     1 B$TPDU_DR
PL6.E3A0      #005=KIT$RECV File=KIT$TRANSPORT.:E05TSI                           WED 07/30/97 00:44 Page:279
     0-0-0/w STRC(45)    r     1 B$TPDU_DT                  0-0-0/w STRC(45)    r     1 B$TPDU_ER
     0-0-0/w STRC(63)    r     1 B$TPDU_GENERIC             0-0-0/c ACHR        r     1 B$TSAP
     0-0-0/c ACHR        r     1 CHRBSD                     0-0-0/c STRC(27)    r     1 K$TPARM_CLR_INFO
     0-0-0/w STRC        r     1 K$TPARM_CP6_OPTIONS        0-0-0/c ACHR        r     1 K$TPARM_GENERIC
     0-0-0/w STRC(27)    r     1 K$TPARM_OPTION             0-0-0/w STRC(27)    r     1 K$TPARM_TPDUSZ
     0-0-0/w STRC(306)   r     1 K$TPARM_TSAP_ID            0-0-0/w STRC(27)    r     1 K$TPARM_VERSION
     0-0-0/w STRC(1620)  r     1 KI$TCTX
     0-0-0/w PTR         r     1 KI$TCTX$(0:0)


   Procedure KIT$RECV requires 852 words for executable code.
   Procedure KIT$RECV requires 52 words of local(AUTO) storage.
PL6.E3A0      #005=KIT$RECV File=KIT$TRANSPORT.:E05TSI                           WED 07/30/97 00:44 Page:280
          *** CROSS REFERENCE LISTING ***
**     DENOTES     IDENTIFIER DEFINITION
<<                 IDENTIFIER'S VALUE SET
>>                 IDENTIFIER'S VALUE USED
<>                 IDENTIFIER SET AND/OR USED
--                 IDENTIFIER REFERENCED
PL6.E3A0      #005=KIT$RECV File=KIT$TRANSPORT.:E05TSI                           WED 07/30/97 00:44 Page:281
          MINI XREF LISTING

B$NEXT
      9285**DCL      9486<<ASSIGN   9486>>ASSIGN
B$NSAP.ADDRESS_N
      9280**DCL      9281--REDEF
B$NSAP.LEN
      9252**DCL      9564>>ASSIGN   9570>>ASSIGN
B$TPARM IN PROCEDURE I$CHK_PARMS
      9848**DCL     10176<<ASSIGN
B$TPDU_CR
      8998**DCL      9499--IF
B$TPDU_CR.CLASS
      9031**DCL      9518>>ASSIGN   9537>>ASSIGN   9627>>ASSIGN
B$TPDU_CR.CLASS_2_FLOW
      9044**DCL      9558>>IF
B$TPDU_CR.EXT_FMT_FLAG
      9039**DCL      9556>>ASSIGN   9653>>ASSIGN
B$TPDU_CR.SRC_REF
      9024**DCL      9520>>ASSIGN   9555>>ASSIGN   9636>>ASSIGN
B$TPDU_DR.REASON
      9090**DCL      9686>>ASSIGN
B$TPDU_DT.DST_REF
      9166**DCL      9378>>ASSIGN
B$TPDU_ER.REJECT_CAUSE
      9129**DCL      9714>>ASSIGN
B$TPDU_GENERIC.LI
      8938**DCL      9369>>ASSIGN
B$TPDU_GENERIC.TYPE
      8948**DCL      9368>>ASSIGN
B$TSAP IN PROCEDURE I$CHK_PARMS
     10165**DCL     10268>>ASSIGN  10272>>IF      10272>>IF      10287>>ASSIGN  10291>>IF      10291>>IF
CHECK_AK IN PROCEDURE I$CHK_PARMS
     10193**LABEL   10206--GOTO
PL6.E3A0      #005=KIT$RECV File=KIT$TRANSPORT.:E05TSI                           WED 07/30/97 00:44 Page:282
CHECK_SNAP_N_RETURN
      9752**LABEL    9590--CALLALT  9660--CALLALT  9733--CALLALT  9741--CALLALT
CHRBSD
      9286**DCL      9565<<ASSIGN   9565>>ASSIGN   9571<<ASSIGN   9571>>ASSIGN
DATA$
      7855**DCL      9370<<ASSIGN   9403>>ASSIGN
DATASIZE
      7856**DCL      9371<<ASSIGN   9404>>ASSIGN
DISCARD_TPDU
      9667**LABEL    9380--GOTO     9384--GOTO
FIND_PARMS
      9390**LABEL    9374--GOTO
GET_NEXT_PARM IN PROCEDURE I$CHK_PARMS
     10306**LABEL   10191--GOTO    10203--GOTO    10210--GOTO    10214--GOTO
HFC$LOCK
      7527**DCL-ENT  9505--CALL
HFC$UNLOCK
      7527**DCL-ENT  9515--CALL     9575--CALL
I$CHECK_FEP_DUMP IN PROCEDURE I$CHECK_SNAP
      9793**ENTRY    9769--CALL
I$CHECK_SNAP
      9787**PROC     9463--CALL     9667--CALL     9698--CALL     9752--CALL
I$CHK_PARMS
      9808**PROC     9541--CALL     9629--CALL     9685--CALL
K$RWPARM
      7551**DCL        10--PROC     9461<>CALL     9475<>CALL     9530<>CALL     9590<>CALL     9604<>CALL
      9610<>CALL     9660<>CALL     9696<>CALL     9733<>CALL     9741<>CALL     9749<>CALL
K$RWPARM.BLKREC
      7577**DCL      7602--REDEF
K$RWPARM.BLKREC.BLKU#
      7578**DCL      7580--REDEF
K$RWPARM.BLKREC.RECU#
      7590**DCL      7592--REDEF
K$RWPARM.DST_ADDR$
      7802**DCL      9568>>IF       9570>>ASSIGN   9571>>ASSIGN
K$RWPARM.DVE.DVBYTE.VFC
PL6.E3A0      #005=KIT$RECV File=KIT$TRANSPORT.:E05TSI                           WED 07/30/97 00:44 Page:283
      7617**DCL      7618--REDEF
K$RWPARM.DVE.EOMCHAR
      7625**DCL      7629--REDEF
K$RWPARM.ERR
      7689**DCL      7694--REDEF    9465>>IF       9468>>IF       9477>>IF       9488>>IF
K$RWPARM.FC
      7653**DCL      7654--REDEF
K$RWPARM.FEX
      7735**DCL      9519>>ASSIGN   9550>>ASSIGN   9796>>ASSIGN
K$RWPARM.FLDID
      7835**DCL      7836--REDEF
K$RWPARM.FPT$
      7716**DCL      7723--REDEF
K$RWPARM.FUNCTION
      7730**DCL      9356>>IF       9356>>IF       9455<<ASSIGN   9457<<ASSIGN   9522>>IF       9582>>IF
      9588<<ASSIGN   9658<<ASSIGN   9689<<ASSIGN   9732<<ASSIGN   9740<<ASSIGN   9747<<ASSIGN
K$RWPARM.KEYTYPE
      7842**DCL      7843--REDEF
K$RWPARM.LOCAL_FEP
      7782**DCL      9551>>ASSIGN
K$RWPARM.MSG$
      7552**DCL      7558--REDEF
K$RWPARM.MSGID
      7664**DCL      7669--REDEF
K$RWPARM.MSGIDXT
      7677**DCL      7681--REDEF
K$RWPARM.MSGSZ
      7559**DCL      9528<<ASSIGN   9600<<ASSIGN
K$RWPARM.ORG
      7813**DCL      7814--REDEF
K$RWPARM.QOS
      7794**DCL      9549>>ASSIGN
K$RWPARM.SHDR$
      7745**DCL      9403<<ASSIGN
K$RWPARM.SHDRSZ
      7749**DCL      9404<<ASSIGN   9526<<ASSIGN   9599>>ASSIGN   9602<<ASSIGN
PL6.E3A0      #005=KIT$RECV File=KIT$TRANSPORT.:E05TSI                           WED 07/30/97 00:44 Page:284
K$RWPARM.SRC_ADDR$
      7797**DCL      9562>>IF       9564>>ASSIGN   9565>>ASSIGN
K$RWPARM.TCTX#
      7787**DCL      9386<<ASSIGN   9535<<ASSIGN   9691<<ASSIGN
K$RWPARM.TCTX$
      7723**DCL      9459<<ASSIGN   9525<<ASSIGN   9587<<ASSIGN   9657<<ASSIGN   9690<<ASSIGN   9727<<ASSIGN
K$RWPARM.THDR$
      7753**DCL      8937--IMP-PTR  8998--IMP-PTR  9068--IMP-PTR  9111--IMP-PTR  9151--IMP-PTR  9368>>ASSIGN
      9369>>ASSIGN   9370>>ASSIGN   9378>>ASSIGN   9397>>ASSIGN   9518>>ASSIGN   9520>>ASSIGN   9537>>ASSIGN
      9555>>ASSIGN   9556>>ASSIGN   9558>>IF       9627>>ASSIGN   9636>>ASSIGN   9653>>ASSIGN   9686>>ASSIGN
      9714>>ASSIGN
K$RWPARM.THDRSZ
      7757**DCL      7761--REDEF    9371>>ASSIGN   9499>>IF
K$RWPARM.UHDRSZ
      7707**DCL      9527<<ASSIGN   9601<<ASSIGN
K$RWPARM.VDOFLGS
      7815**DCL      7826--REDEF
K$TPARM IN PROCEDURE I$CHK_PARMS
      9828**DCL      9848--REDEF   10173--ASSIGN
K$TPARM.CODE IN PROCEDURE I$CHK_PARMS
      9832**DCL     10186>>DOSELCT 10224>>DOSELCT
K$TPARM.LEN IN PROCEDURE I$CHK_PARMS
      9838**DCL     10177>>ASSIGN
K$TPARM$ IN PROCEDURE I$CHK_PARMS
      9850**DCL      9933--IMP-PTR  9972--IMP-PTR 10019--IMP-PTR 10056--IMP-PTR 10092--IMP-PTR 10132--IMP-PTR
     10173<<ASSIGN  10209>>ASSIGN  10229>>IF      10229>>IF      10233>>IF      10237>>ASSIGN  10244>>IF
     10248>>IF      10257>>IF      10268>>ASSIGN  10272>>IF      10287>>ASSIGN  10291>>IF      10301>>ASSIGN
K$TPARM_CLR_INFO.ERR IN PROCEDURE I$CHK_PARMS
     10156**DCL     10209>>ASSIGN
K$TPARM_CLR_INFO.PVALUE IN PROCEDURE I$CHK_PARMS
     10149**DCL     10156--REDEF
K$TPARM_CP6_OPTIONS.CODE
      9207**DCL      9729>>IF       9737>>IF       9745>>IF
K$TPARM_GENERIC IN PROCEDURE I$CHK_PARMS
      9915**DCL     10176>>ASSIGN
K$TPARM_OPTION.CHKSUM IN PROCEDURE I$CHK_PARMS
PL6.E3A0      #005=KIT$RECV File=KIT$TRANSPORT.:E05TSI                           WED 07/30/97 00:44 Page:285
      9989**DCL     10248>>IF      10257>>IF
K$TPARM_OPTION.EXPD IN PROCEDURE I$CHK_PARMS
      9995**DCL     10244>>IF
K$TPARM_TPDUSZ.SIZE IN PROCEDURE I$CHK_PARMS
      9946**DCL     10229>>IF      10229>>IF      10233>>IF      10237>>ASSIGN
K$TPARM_TSAP_ID.ID IN PROCEDURE I$CHK_PARMS
     10034**DCL     10268--ASSIGN  10272--IF      10287--ASSIGN  10291--IF
K$TPARM_VERSION.VERS IN PROCEDURE I$CHK_PARMS
     10069**DCL     10301>>ASSIGN
K@TCTX
      7936**DCL      9508<<ASSIGN   9525--ASSIGN
K@TCTX.DST_REF
      7963**DCL      9520<<ASSIGN
K@TCTX.ERR
      7957**DCL      9512<<ASSIGN   9544<<ASSIGN
K@TCTX.NODE
      7943**DCL      9519<<ASSIGN
K@TCTX.REASON
      7951**DCL      9511<<ASSIGN   9543<<ASSIGN
K@TCTX.SSN.CLASS
      8125**DCL      9518<<ASSIGN
K@TCTX.SSN.TPDUSIZE
      8095**DCL      8096--REDEF
K@TCTX.SSN.TR_FLAGS.OSI
      8157**DCL      9523<<ASSIGN
KI$TCTX
      8363**DCL      9459--ASSIGN   9587--ASSIGN   9657--ASSIGN   9690--ASSIGN   9727--ASSIGN
KI$TCTX.DST_REF
      8390**DCL      9555<<ASSIGN   9636<<ASSIGN
KI$TCTX.ERR
      8384**DCL      9544>>ASSIGN  10199<<ASSIGN  10209<<ASSIGN  10323<<ASSIGN
KI$TCTX.FLOW_CONTROLLED
      8443**DCL      9432<<ASSIGN
KI$TCTX.INBOUND
      8439**DCL      9553<<ASSIGN
KI$TCTX.LOCAL_FEP
PL6.E3A0      #005=KIT$RECV File=KIT$TRANSPORT.:E05TSI                           WED 07/30/97 00:44 Page:286
      8406**DCL      9551<<ASSIGN
KI$TCTX.NODE
      8370**DCL      9550<<ASSIGN
KI$TCTX.REASON
      8378**DCL      9543>>ASSIGN   9686<<ASSIGN   9714<<ASSIGN  10182<<ASSIGN  10198<<ASSIGN  10253<<ASSIGN
     10276<<ASSIGN  10322<<ASSIGN
KI$TCTX.RECV_EXPD
      8469**DCL      9484--ASSIGN
KI$TCTX.RECV_NEXT
      8461**DCL      9483--ASSIGN
KI$TCTX.REMOTE_TERM
      8431**DCL      9703<<ASSIGN
KI$TCTX.SESSION_FLOW_STOPPED
      8452**DCL      9731<<ASSIGN   9739<<ASSIGN
KI$TCTX.SRC_REF
      8398**DCL      9534>>ASSIGN   9691>>ASSIGN
KI$TCTX.SSN.CLASS
      8552**DCL      9537<<ASSIGN   9558>>IF       9627<<ASSIGN   9637>>IF       9643>>IF       9648>>IF
     10257>>IF
KI$TCTX.SSN.DST_NSAP
      8789**DCL      9571--ASSIGN
KI$TCTX.SSN.DST_NSAP.ADDRESS_N
      8819**DCL      8820--REDEF
KI$TCTX.SSN.DST_TSAP.LEN
      8689**DCL     10267<<ASSIGN  10271>>IF
KI$TCTX.SSN.DST_TSAP.TSAP
      8697**DCL     10268<<ASSIGN  10272--IF
KI$TCTX.SSN.QOS
      8546**DCL      9549<<ASSIGN
KI$TCTX.SSN.SCID
      8623**DCL      9552<<ASSIGN
KI$TCTX.SSN.SRC_NSAP
      8729**DCL      9565--ASSIGN
KI$TCTX.SSN.SRC_NSAP.ADDRESS_N
      8759**DCL      8760--REDEF
KI$TCTX.SSN.SRC_TSAP.LEN
PL6.E3A0      #005=KIT$RECV File=KIT$TRANSPORT.:E05TSI                           WED 07/30/97 00:44 Page:287
      8647**DCL     10286<<ASSIGN  10290>>IF
KI$TCTX.SSN.SRC_TSAP.TSAP
      8655**DCL     10287<<ASSIGN  10291--IF
KI$TCTX.SSN.TPDUSIZE
      8522**DCL      8523--REDEF
KI$TCTX.SSN.TPDUSZ_PARM
      8523**DCL      9539<<ASSIGN  10233>>IF      10237<<ASSIGN
KI$TCTX.SSN.TR_FLAGS.CHKSUM
      8616**DCL      9650<<ASSIGN  10248>>IF      10258<<ASSIGN  10259<<ASSIGN
KI$TCTX.SSN.TR_FLAGS.CLASS_2_FLOW
      8590**DCL      9560<<ASSIGN   9645<<ASSIGN
KI$TCTX.SSN.TR_FLAGS.EXPEDITED
      8604**DCL      9640<<ASSIGN  10245<<ASSIGN  10246<<ASSIGN
KI$TCTX.SSN.TR_FLAGS.EXTENDED
      8597**DCL      9390>>IF       9556<<ASSIGN   9639<<ASSIGN   9653<<ASSIGN
KI$TCTX.SSN.TR_FLAGS.OSI
      8584**DCL      9450>>IF       9584<<ASSIGN   9631>>IF       9693>>IF       9724>>IF       9789>>IF
KI$TCTX.SSN_CRDT
      8488**DCL      9454<<ASSIGN   9454>>ASSIGN
KI$TCTX.STATE
      8364**DCL      9429>>IF       9431<<ASSIGN   9442>>IF       9444>>IF       9585<<ASSIGN   9606<<ASSIGN
      9634>>IF       9655<<ASSIGN   9702<<ASSIGN
KI$TCTX.VERS
      8411**DCL     10301<<ASSIGN
KI$TCTX$
      8361**DCL      9382>>ASSIGN
KIS$OSI_RECV
      9305**DCL-ENT  9461--CALL     9590--CALL     9660--CALL     9696--CALL     9733--CALL     9741--CALL
      9749--CALL
KIS$RECV
      9306**DCL-ENT  9475--CALL     9610--CALL
KIS$REP_TERM
      9307**DCL-ENT  9694--CALL
KIT$GETTCTX
      9308**DCL-ENT  9509--CALL
KIT$RELTCTX
PL6.E3A0      #005=KIT$RECV File=KIT$TRANSPORT.:E05TSI                           WED 07/30/97 00:44 Page:288
      9309**DCL-ENT  9545--CALL     9704--CALL
KIT$SEND_CC
      9310**DCL-ENT  9604--CALL
KIT$SEND_DR
      9311**DCL-ENT  9530--CALL
KIT_DISCARDED_TPDUS
      9293**DCL      9669<<ASSIGN   9669>>ASSIGN
KIT_DUMP_FEP
      9301**DCL      9794>>IF
KIT_ERROR_SNAP
      9299**DCL      9789>>IF
KIT_OSI_SNAP
      9300**DCL      9789>>IF
KIT_RECV_LOCK
      9289**DCL      9505<>CALL     9515<>CALL     9575<>CALL
KI_TCTX$$
      9288**DCL      8361--IMP-PTR  9382>>ASSIGN
KI_TCTX_MAX#
      9291**DCL      9379>>IF
KL_FEPST
      8338**DCL      9798<>CALL     9798--CALL
KL_FEPST.FCN
      8339**DCL      9797<<ASSIGN
KL_FEPST.FEP
      8341**DCL      9796<<ASSIGN
KUB$WRITE
      9312**DCL-ENT  9798--CALL
K_TPDU_SIZE
      9295**DCL      9393>>ASSIGN
K_TPDU_SIZE_EXT
      9296**DCL      9395>>ASSIGN
K_TSAP_SZ IN PROCEDURE I$CHK_PARMS
     10168**DCL     10262>>IF      10281>>IF
LI
      7852**DCL      9369<<ASSIGN   9370>>ASSIGN   9371>>ASSIGN   9398>>ASSIGN
LOG_BAD_TPDU
PL6.E3A0      #005=KIT$RECV File=KIT$TRANSPORT.:E05TSI                           WED 07/30/97 00:44 Page:289
      9667**LABEL    9440--GOTO     9446--GOTO     9500--GOTO     9531--GOTO     9629--CALLALT  9632--GOTO
      9685--CALLALT  9725--GOTO     9758--GOTO
PARM$
      7853**DCL      9397<<ASSIGN   9729>>IF       9737>>IF       9745>>IF      10176>>ASSIGN  10317<<ASSIGN
     10317>>ASSIGN
PARMLEN IN PROCEDURE I$CHK_PARMS
      9851**DCL     10165--IMP-SIZ 10177<<ASSIGN  10179>>IF      10226>>IF      10241>>IF      10262>>IF
     10267>>ASSIGN  10268>>ASSIGN  10271>>IF      10272>>IF      10272>>IF      10281>>IF      10286>>ASSIGN
     10287>>ASSIGN  10290>>IF      10291>>IF      10291>>IF      10298>>IF      10316>>ASSIGN  10317>>ASSIGN
PARMSIZE
      7854**DCL      9398<<ASSIGN   9915--IMP-SIZ 10175>>DOWHILE 10176>>ASSIGN  10179>>IF      10316<<ASSIGN
     10316>>ASSIGN  10320>>IF
REPORT_TDISCONNECT
      9686**LABEL    9715--GOTO
RETURN_TPDU_DR2
      9512**LABEL    9546--GOTO
SC_BADFNC
      9313**DCL-ENT  9358--CALL
SC_PRTCL_SNAP
      9314**DCL-ENT  9614--CALL     9768--CALL     9791--CALL
SET_BADTSAP IN PROCEDURE I$CHK_PARMS
     10272**LABEL   10294--GOTO
SET_INVLEN IN PROCEDURE I$CHK_PARMS
     10173**LABEL   10227--GOTO    10242--GOTO    10263--GOTO    10282--GOTO    10299--GOTO
SET_INVPARM IN PROCEDURE I$CHK_PARMS
     10194**LABEL   10222--GOTO
SET_NEGOTIATION IN PROCEDURE I$CHK_PARMS
     10246**LABEL   10231--GOTO    10235--GOTO
TAKE_QDP_SNAP
      9614**LABEL    9610--CALLALT
TCTX#
      7849**DCL      9378<<ASSIGN   9379>>IF       9379>>IF       9382>>ASSIGN   9386>>ASSIGN   9534<<ASSIGN
      9535>>ASSIGN   9694<>CALL
TCTX$
      7848**DCL      8363--IMP-PTR  9382<<ASSIGN   9383>>IF       9390>>IF       9429>>IF       9431>>ASSIGN
      9432>>ASSIGN   9442>>IF       9444>>IF       9450>>IF       9454>>ASSIGN   9454>>ASSIGN   9459>>ASSIGN
PL6.E3A0      #005=KIT$RECV File=KIT$TRANSPORT.:E05TSI                           WED 07/30/97 00:44 Page:290
      9483>>ASSIGN   9484>>ASSIGN   9509<>CALL     9534>>ASSIGN   9537>>ASSIGN   9539>>ASSIGN   9543>>ASSIGN
      9544>>ASSIGN   9545<>CALL     9549>>ASSIGN   9550>>ASSIGN   9551>>ASSIGN   9552>>ASSIGN   9553>>ASSIGN
      9555>>ASSIGN   9556>>ASSIGN   9558>>IF       9560>>ASSIGN   9565>>ASSIGN   9571>>ASSIGN   9584>>ASSIGN
      9585>>ASSIGN   9587>>ASSIGN   9606>>ASSIGN   9627>>ASSIGN   9631>>IF       9634>>IF       9636>>ASSIGN
      9637>>IF       9639>>ASSIGN   9640>>ASSIGN   9643>>IF       9645>>ASSIGN   9648>>IF       9650>>ASSIGN
      9653>>ASSIGN   9655>>ASSIGN   9657>>ASSIGN   9686>>ASSIGN   9690>>ASSIGN   9691>>ASSIGN   9693>>IF
      9702>>ASSIGN   9703>>ASSIGN   9704<>CALL     9714>>ASSIGN   9724>>IF       9727>>ASSIGN   9731>>ASSIGN
      9739>>ASSIGN   9789>>IF      10182>>ASSIGN  10198>>ASSIGN  10199>>ASSIGN  10209>>ASSIGN  10233>>IF
     10237>>ASSIGN  10245>>ASSIGN  10246>>ASSIGN  10248>>IF      10253>>ASSIGN  10257>>IF      10258>>ASSIGN
     10259>>ASSIGN  10267>>ASSIGN  10268>>ASSIGN  10271>>IF      10272>>IF      10276>>ASSIGN  10286>>ASSIGN
     10287>>ASSIGN  10290>>IF      10291>>IF      10301>>ASSIGN  10322>>ASSIGN  10323>>ASSIGN
TEMP
      7850**DCL      9286--IMP-SIZ  9393<<ASSIGN   9395<<ASSIGN   9397>>ASSIGN   9398>>ASSIGN   9564<<ASSIGN
      9565>>ASSIGN   9565>>ASSIGN   9570<<ASSIGN   9571>>ASSIGN   9571>>ASSIGN   9599<<ASSIGN   9608>>IF
TPDU_NR
      7858**DCL      7859--REDEF
TPDU_NR$
      7857**DCL      9483<<ASSIGN   9484<<ASSIGN   9486>>ASSIGN   9486>>ASSIGN
TYPE
      7851**DCL      9368<<ASSIGN   9373>>IF       9393>>ASSIGN   9395>>ASSIGN   9407>>DOCASE   9435>>IF
      9439>>IF       9452>>IF       9482>>IF      10195>>IF      10213>>IF      10221>>IF      10221>>IF
     10233>>IF      10248>>IF      10265>>IF      10284>>IF

PL6.E3A0      #006=KIT$REPDISC File=KIT$TRANSPORT.:E05TSI                        WED 07/30/97 00:45 Page:291
     1965        1        /*M* KIT$REPDISC - To terminate a CP-6 transport connection   */
     1966        2        /*T***********************************************************/
     1967        3        /*T*                                                         */
     1968        4        /*T* Copyright (c) Bull HN Information Systems Inc., 1997    */
     1969        5        /*T*                                                         */
     1970        6        /*T***********************************************************/
     1971        7        /*X* PLM=3,IND=5,ENU=0,ECU=0   */
     1972        8
     1973        9        KIT$REPDISC: PROC(NODE);
     1974       10
     1975       11                                                /* Include files                      */
     1976       12        %INCLUDE K$RWPARM;
     1977      398        %INCLUDE K_ADDRESS_M;
     1978      901        %INCLUDE K_INTERFACE_M;
     1979     1310        %INCLUDE K_TRANSPORT_E;
     1980     1635        %INCLUDE KI_MACROS_C;
     1981     2243        %INCLUDE HF_LOCK_C;
     1982     2257
     1983     2258                                                /* Parameter definitions              */
     1984     2259    1   DCL NODE UBIN;
     1985     2260
     1986     2261                                                /* Automatic data                     */
     1987     2262    1   DCL TCTX$ PTR;
     1988     2263    1   DCL TCTX# UBIN AUTO;
     1989     2264    1   DCL REMOTE_NODE UBIN;
     1990     2265    1   DCL STATE UBIN;
     1991     2266        %K$RWPARM (NAME=K$RWPARM, STCLASS=AUTO);
     1992     2582
     1993     2583                                                /* Based data                         */
     1994     2584    1   DCL KI$TCTX$(0:0) PTR BASED(KI_TCTX$$);
     1995     2585        %KI$TCTX(NAME=KI$TCTX, STCLASS="BASED(TCTX$)");
     1996     3143
     1997     3144                                                /* External Data                      */
     1998     3145    1   DCL KI_TCTX$$ PTR SYMREF;
     1999     3146    1   DCL KI_TCTX_USE# UBIN SYMREF;
     2000     3147    1   DCL KIT_RECV_LOCK BIT(72) SYMREF;
     2001     3148    1   DCL KI_TCTX_MAX# UBIN SYMREF;
PL6.E3A0      #006=KIT$REPDISC File=KIT$TRANSPORT.:E05TSI                        WED 07/30/97 00:45 Page:292
     2002     3149    1   DCL KIT_OSI_SNAP UBIN SYMREF;
     2003     3150        %K$RWPARM (NAME=K_RWPARM_CON, STCLASS=SYMREF);
     2004     3466
     2005     3467                                                /* Entry point references             */
     2006     3468    1   DCL KIS$REP_DISC ENTRY(1);
     2007     3469    1   DCL KIS$OSI_RECV ENTRY(1) ALTRET;
     2008     3470    1   DCL KIT$RELTCTX ENTRY(1) ALTRET;
     2009     3471    1   DCL SC_PRTCL_SNAP ENTRY CONV(2,0);
     2010     3472
     2011     3473        %EJECT;
PL6.E3A0      #006=KIT$REPDISC File=KIT$TRANSPORT.:E05TSI                        WED 07/30/97 00:45 Page:293
     2012     3474        /*F* NAME: KIT$REPDISC
     2013     3475
     2014     3476        KIT$REPDISC is called from KIN$NODECHG to report that the node
     2015     3477        specified by the input parameter, NODE, has disconnected.
     2016     3478
     2017     3479        We run through the TCTXs looking for one that has TCTX.NODE or TCTX.LOCAL_FEP
     2018     3480        equal to that specified in RWPARM.FEX.
     2019     3481
     2020     3482        If we find a match on node and the connection is OSI, it is the local
     2021     3483        fep that has our intermediate context block that has gone down, so
     2022     3484        we call OSI Session specify the TCTX# in RWPARM.
     2023     3485
     2024     3486        If we find a match on node for a CP-6 connection we call CP-6 Session
     2025     3487        always specifying the node number of the remote node.
     2026     3488
     2027     3489        */
     2028     3490
     2029     3491    1      TCTX# = 1;
     2030     3492
     2031     3493    2      DO WHILE ( TCTX# <= KI_TCTX_MAX# );
     2032     3494    2           TCTX$ = KI$TCTX$(TCTX#);
     2033     3495
     2034     3496    2           IF (NODE = KI$TCTX.NODE    OR   NODE = KI$TCTX.LOCAL_FEP)
     2035     3497    2             AND (KI$TCTX.STATE > %KI_TSTATE_CLOSED)
     2036     3498    3           THEN DO;
     2037     3499                     %LOCK (G=KIT_RECV_LOCK);
     2038     3502
     2039     3503    3                K$RWPARM = K_RWPARM_CON;
     2040     3504    3                K$RWPARM.FUNCTION = %K_TDISCONNECT_IND;
     2041     3505    3                K$RWPARM.TCTX$ = ADDR(KI$TCTX);
     2042     3506    3                K$RWPARM.TCTX# = KI$TCTX.SRC_REF;
     2043     3507
     2044     3508    3                STATE = KI$TCTX.STATE;
     2045     3509    3                KI$TCTX.STATE = %KI_TSTATE_CLOSING;
     2046     3510    3                KI$TCTX.ERR = %K_ERROR_TERM;
     2047     3511
     2048     3512    3                IF KI$TCTX.SSN.TR_FLAGS.OSI
PL6.E3A0      #006=KIT$REPDISC File=KIT$TRANSPORT.:E05TSI                        WED 07/30/97 00:45 Page:294
     2049     3513    4                THEN DO;
     2050     3514    4                     IF (STATE = %KI_TSTATE_WBCL)
     2051     3515    4                       OR (STATE = %KI_TSTATE_CLOSING)
     2052     3516    4                     THEN GOTO UNLOCK_GATE;
     2053     3517
     2054     3518    4                     IF (STATE = %KI_TSTATE_WFTRESP)
     2055     3519    5                     THEN DO;
     2056     3520    5                          KI$TCTX.STATE = %KI_TSTATE_WBCL;
     2057     3521    5                          GOTO UNLOCK_GATE;
     2058     3522    5                          END;
     2059     3523
     2060     3524    4                     CALL KIS$OSI_RECV(K$RWPARM)
     2061     3525    5                     WHENALTRETURN DO;
     2062     3526    5                          IF KIT_OSI_SNAP ~= 0
     2063     3527    5                          THEN CALL SC_PRTCL_SNAP;
     2064     3528    5                          END;
     2065     3529    4                     END/*do for osi connections*/;
     2066     3530
     2067     3531    4                ELSE DO;
     2068     3532    4                     IF NODE = KI$TCTX.LOCAL_FEP
     2069     3533    5                     THEN DO;
     2070     3534    5                          REMOTE_NODE = KI$TCTX.NODE;
     2071     3535    5                          CALL KIS$REP_DISC(REMOTE_NODE); /*local disconnected*/
     2072     3536    5                          END;
     2073     3537    4                     ELSE CALL KIS$REP_DISC(NODE); /*remote disconnected*/
     2074     3538    4                     END/*do for cp-6 connections*/;
     2075     3539
     2076     3540    3                KI$TCTX.STATE = %KI_TSTATE_CLOSED;
     2077     3541    3                CALL KIT$RELTCTX(TCTX$);
     2078     3542    3   UNLOCK_GATE:
     2079     3543                     %UNLOCK (G=KIT_RECV_LOCK);
     2080     3546    3                END;
     2081     3547    2           TCTX# = TCTX# + 1;
     2082     3548    2           END;
     2083     3549
     2084     3550    1      RETURN;
     2085     3551
PL6.E3A0      #006=KIT$REPDISC File=KIT$TRANSPORT.:E05TSI                        WED 07/30/97 00:45 Page:295
     2086     3552    1   END KIT$REPDISC;
     2087     3553
     2088     3554

PL6.E3A0      #006=KIT$REPDISC File=KIT$TRANSPORT.:E05TSI                        WED 07/30/97 00:45 Page:296
--  Include file information  --

   HF_LOCK_C.:E05TOU  cannot be made into a system file and is referenced.
   KI_MACROS_C.:E05TOU  is referenced.
   K_TRANSPORT_E.:E05TOU  is referenced.
   K_INTERFACE_M.:E05TOU  is referenced.
   K_ADDRESS_M.:E05TOU  is referenced.
   K$RWPARM.:E05TOU  is referenced.
      No diagnostics issued in procedure KIT$REPDISC.

   Procedure KIT$REPDISC requires 114 words for executable code.
   Procedure KIT$REPDISC requires 50 words of local(AUTO) storage.

    No errors detected in file KIT$TRANSPORT.:E05TSI    .

PL6.E3A0      #006=KIT$REPDISC File=KIT$TRANSPORT.:E05TSI                        WED 07/30/97 00:45 Page:297

 Object Unit name= KIT$REPDISC                                File name= KIT$TRANSPORT.:E05TOU
 UTS= JUL 30 '97 00:45:18.04 WED                              Compiler= PL-6/E31         Sev=      00
 SharedLib= :SHARED_SYSTEM                                    Alt SharedLib=


    ****  Control sections  ****

 Sect   Type Bound  Init  Size OctSiz  Section name(segment info)
    0   Proc  even  none   114    162  KIT$REPDISC
    1  RoData even  none     1      1  KIT$REPDISC

    ****  Entry defs  ****

                              Check   Calling
                             calling  sequence
  Sect OctLoc Primary Altret sequence   type   Parms  Name
     0      0   yes            yes      Std        1  KIT$REPDISC

  ****  Entry refs  ****

         Check        Calling
        calling       sequence
Altret sequence SRef   type   Args  Name
         yes           Std       1 HFC$LOCK
         yes           Std       1 HFC$UNLOCK
 yes     yes           Std       1 KIS$OSI_RECV
         yes           Std       1 KIS$REP_DISC
 yes     yes           Std       1 KIT$RELTCTX
                       nStd      0 X66_AUTO_1
                       Std       0 B_CONSPOOL_D
                       nStd      0 X66_ARET
PL6.E3A0      #006=KIT$REPDISC File=KIT$TRANSPORT.:E05TSI                        WED 07/30/97 00:45 Page:298

  ****  Data refs  ****

  Flags:  r = read only, s = secondary
Flgs Name                             Flgs Name                             Flgs Name
     SC_PRTCL_SNAP                         KI_TCTX$$                             KIT_RECV_LOCK
     KI_TCTX_MAX#                          KIT_OSI_SNAP                          K_RWPARM_CON
     B_VECTNIL

  ****  Segment refs  ****

  Flags:  r = read only, s = secondary
Flgs Name                             Flgs Name                             Flgs Name
     ASLENTSID                             ISSID
PL6.E3A0      #006=KIT$REPDISC File=KIT$TRANSPORT.:E05TSI                        WED 07/30/97 00:45 Page:299


     1965        1        /*M* KIT$REPDISC - To terminate a CP-6 transport connection   */
     1966        2        /*T***********************************************************/
     1967        3        /*T*                                                         */
     1968        4        /*T* Copyright (c) Bull HN Information Systems Inc., 1997    */
     1969        5        /*T*                                                         */
     1970        6        /*T***********************************************************/
     1971        7        /*X* PLM=3,IND=5,ENU=0,ECU=0   */
     1972        8
     1973        9        KIT$REPDISC: PROC(NODE);

      9  0 000000   000000 700200 xent  KIT$REPDISC  TSX0  ! X66_AUTO_1
         0 000001   000062 000001                    ZERO    50,1

     1974       10
     1975       11                                                /* Include files                      */
     1976       12        %INCLUDE K$RWPARM;
     1977      398        %INCLUDE K_ADDRESS_M;
     1978      901        %INCLUDE K_INTERFACE_M;
     1979     1310        %INCLUDE K_TRANSPORT_E;
     1980     1635        %INCLUDE KI_MACROS_C;
     1981     2243        %INCLUDE HF_LOCK_C;
     1982     2257
     1983     2258                                                /* Parameter definitions              */
     1984     2259    1   DCL NODE UBIN;
     1985     2260
     1986     2261                                                /* Automatic data                     */
     1987     2262    1   DCL TCTX$ PTR;
     1988     2263    1   DCL TCTX# UBIN AUTO;
     1989     2264    1   DCL REMOTE_NODE UBIN;
     1990     2265    1   DCL STATE UBIN;
     1991     2266        %K$RWPARM (NAME=K$RWPARM, STCLASS=AUTO);
     1992     2582
     1993     2583                                                /* Based data                         */
     1994     2584    1   DCL KI$TCTX$(0:0) PTR BASED(KI_TCTX$$);
     1995     2585        %KI$TCTX(NAME=KI$TCTX, STCLASS="BASED(TCTX$)");
     1996     3143
PL6.E3A0      #006=KIT$REPDISC File=KIT$TRANSPORT.:E05TSI                        WED 07/30/97 00:45 Page:300
     1997     3144                                                /* External Data                      */
     1998     3145    1   DCL KI_TCTX$$ PTR SYMREF;
     1999     3146    1   DCL KI_TCTX_USE# UBIN SYMREF;
     2000     3147    1   DCL KIT_RECV_LOCK BIT(72) SYMREF;
     2001     3148    1   DCL KI_TCTX_MAX# UBIN SYMREF;
     2002     3149    1   DCL KIT_OSI_SNAP UBIN SYMREF;
     2003     3150        %K$RWPARM (NAME=K_RWPARM_CON, STCLASS=SYMREF);
     2004     3466
     2005     3467                                                /* Entry point references             */
     2006     3468    1   DCL KIS$REP_DISC ENTRY(1);
     2007     3469    1   DCL KIS$OSI_RECV ENTRY(1) ALTRET;
     2008     3470    1   DCL KIT$RELTCTX ENTRY(1) ALTRET;
     2009     3471    1   DCL SC_PRTCL_SNAP ENTRY CONV(2,0);
     2010     3472
     2011     3473        %EJECT;
PL6.E3A0      #006=KIT$REPDISC File=KIT$TRANSPORT.:E05TSI                        WED 07/30/97 00:45 Page:301
     2012     3474        /*F* NAME: KIT$REPDISC
     2013     3475
     2014     3476        KIT$REPDISC is called from KIN$NODECHG to report that the node
     2015     3477        specified by the input parameter, NODE, has disconnected.
     2016     3478
     2017     3479        We run through the TCTXs looking for one that has TCTX.NODE or TCTX.LOCAL_FEP
     2018     3480        equal to that specified in RWPARM.FEX.
     2019     3481
     2020     3482        If we find a match on node and the connection is OSI, it is the local
     2021     3483        fep that has our intermediate context block that has gone down, so
     2022     3484        we call OSI Session specify the TCTX# in RWPARM.
     2023     3485
     2024     3486        If we find a match on node for a CP-6 connection we call CP-6 Session
     2025     3487        always specifying the node number of the remote node.
     2026     3488
     2027     3489        */
     2028     3490
     2029     3491    1      TCTX# = 1;

   3491  0 000002   000001 235007                    LDA     1,DL
         0 000003   200005 755100                    STA     TCTX#,,AUTO

     2030     3492
     2031     3493    2      DO WHILE ( TCTX# <= KI_TCTX_MAX# );

   3493  0 000004   000000 236000 xsym               LDQ     KI_TCTX_MAX#
         0 000005   200005 116100                    CMPQ    TCTX#,,AUTO
         0 000006   000161 602000 0                  TNC     s:3550

     2032     3494    2           TCTX$ = KI$TCTX$(TCTX#);

   3494  0 000007   000000 470400 xsym               LDP0    KI_TCTX$$
         0 000010   200005 720100                    LXL0    TCTX#,,AUTO
         0 000011   000000 236110                    LDQ     0,X0,PR0
         0 000012   200004 756100                    STQ     TCTX$,,AUTO

     2033     3495
PL6.E3A0      #006=KIT$REPDISC File=KIT$TRANSPORT.:E05TSI                        WED 07/30/97 00:45 Page:302
     2034     3496    2           IF (NODE = KI$TCTX.NODE    OR   NODE = KI$TCTX.LOCAL_FEP)

   3496  0 000013   200003 471500                    LDP1    @NODE,,AUTO
         0 000014   200004 473500                    LDP3    TCTX$,,AUTO
         0 000015   300000 236100                    LDQ     0,,PR3
         0 000016   000022 772000                    QRL     18
         0 000017   000777 376007                    ANQ     511,DL
         0 000020   100000 116100                    CMPQ    0,,PR1
         0 000021   000026 600000 0                  TZE     s:3496+11
         0 000022   300002 236100                    LDQ     2,,PR3
         0 000023   000033 772000                    QRL     27
         0 000024   100000 116100                    CMPQ    0,,PR1
         0 000025   000153 601000 0                  TNZ     s:3547
         0 000026   300000 236100                    LDQ     0,,PR3
         0 000027   777000 376003                    ANQ     -512,DU
         0 000030   003000 116003                    CMPQ    1536,DU
         0 000031   000153 602000 0                  TNC     s:3547

     2035     3497    2             AND (KI$TCTX.STATE > %KI_TSTATE_CLOSED)
     2036     3498    3           THEN DO;

     2037     3499                     %LOCK (G=KIT_RECV_LOCK);

   3500  0 000032   000000 630400 1                  EPPR0   0
         0 000033   000017 631400 xsym               EPPR1   B_VECTNIL+15
         0 000034   000000 701000 xent               TSX1    HFC$LOCK
         0 000035   000000 011000                    NOP     0

     2038     3502
     2039     3503    3                K$RWPARM = K_RWPARM_CON;

   3503  0 000036   000100 100400                    MLR     fill='000'O
         0 000037   000000 000234 xsym               ADSC9   K_RWPARM_CON             cn=0,n=156
         0 000040   200010 000234                    ADSC9   K$RWPARM,,AUTO           cn=0,n=156

     2040     3504    3                K$RWPARM.FUNCTION = %K_TDISCONNECT_IND;

PL6.E3A0      #006=KIT$REPDISC File=KIT$TRANSPORT.:E05TSI                        WED 07/30/97 00:45 Page:303
   3504  0 000041   000031 235007                    LDA     25,DL
         0 000042   200030 755100                    STA     K$RWPARM+16,,AUTO

     2041     3505    3                K$RWPARM.TCTX$ = ADDR(KI$TCTX);

   3505  0 000043   200004 236100                    LDQ     TCTX$,,AUTO
         0 000044   200027 756100                    STQ     K$RWPARM+15,,AUTO

     2042     3506    3                K$RWPARM.TCTX# = KI$TCTX.SRC_REF;

   3506  0 000045   200004 470500                    LDP0    TCTX$,,AUTO
         0 000046   000001 720100                    LXL0    1,,PR0
         0 000047   200043 740100                    STX0    K$RWPARM+27,,AUTO

     2043     3507
     2044     3508    3                STATE = KI$TCTX.STATE;

   3508  0 000050   000000 236100                    LDQ     0,,PR0
         0 000051   000033 772000                    QRL     27
         0 000052   200007 756100                    STQ     STATE,,AUTO

     2045     3509    3                KI$TCTX.STATE = %KI_TSTATE_CLOSING;

   3509  0 000053   010000 236003                    LDQ     4096,DU
         0 000054   000000 552140                    STBQ    0,'40'O,PR0

     2046     3510    3                KI$TCTX.ERR = %K_ERROR_TERM;

   3510  0 000055   200004 470500                    LDP0    TCTX$,,AUTO
         0 000056   000365 236007                    LDQ     245,DL
         0 000057   000000 552104                    STBQ    0,'04'O,PR0

     2047     3511
     2048     3512    3                IF KI$TCTX.SSN.TR_FLAGS.OSI

   3512  0 000060   200004 470500                    LDP0    TCTX$,,AUTO
         0 000061   000016 236100                    LDQ     14,,PR0
PL6.E3A0      #006=KIT$REPDISC File=KIT$TRANSPORT.:E05TSI                        WED 07/30/97 00:45 Page:304
         0 000062   000020 316007                    CANQ    16,DL
         0 000063   000112 600000 0                  TZE     s:3532

     2049     3513    4                THEN DO;

     2050     3514    4                     IF (STATE = %KI_TSTATE_WBCL)

   3514  0 000064   200007 235100                    LDA     STATE,,AUTO
         0 000065   000004 115007                    CMPA    4,DL
         0 000066   000147 600000 0                  TZE     UNLOCK_GATE
         0 000067   000010 115007                    CMPA    8,DL
         0 000070   000147 600000 0                  TZE     UNLOCK_GATE

     2051     3515    4                       OR (STATE = %KI_TSTATE_CLOSING)
     2052     3516    4                     THEN GOTO UNLOCK_GATE;
     2053     3517
     2054     3518    4                     IF (STATE = %KI_TSTATE_WFTRESP)

   3518  0 000071   000006 115007                    CMPA    6,DL
         0 000072   000076 601000 0                  TNZ     s:3524

     2055     3519    5                     THEN DO;

     2056     3520    5                          KI$TCTX.STATE = %KI_TSTATE_WBCL;

   3520  0 000073   004000 236003                    LDQ     2048,DU
         0 000074   000000 552140                    STBQ    0,'40'O,PR0

     2057     3521    5                          GOTO UNLOCK_GATE;

   3521  0 000075   000147 710000 0                  TRA     UNLOCK_GATE

     2058     3522    5                          END;
     2059     3523
     2060     3524    4                     CALL KIS$OSI_RECV(K$RWPARM)

   3524  0 000076   200010 631500                    EPPR1   K$RWPARM,,AUTO
PL6.E3A0      #006=KIT$REPDISC File=KIT$TRANSPORT.:E05TSI                        WED 07/30/97 00:45 Page:305
         0 000077   200060 451500                    STP1    K$RWPARM+40,,AUTO
         0 000100   200060 630500                    EPPR0   K$RWPARM+40,,AUTO
         0 000101   000017 631400 xsym               EPPR1   B_VECTNIL+15
         0 000102   000000 701000 xent               TSX1    KIS$OSI_RECV
         0 000103   000105 702000 0                  TSX2    s:3526
         0 000104   000111 710000 0                  TRA     s:3529

     2061     3525    5                     WHENALTRETURN DO;

     2062     3526    5                          IF KIT_OSI_SNAP ~= 0

   3526  0 000105   000000 235000 xsym               LDA     KIT_OSI_SNAP
         0 000106   000111 600000 0                  TZE     s:3529

     2063     3527    5                          THEN CALL SC_PRTCL_SNAP;

   3527  0 000107   000000 713400 xsym               CLIMB   SC_PRTCL_SNAP
         0 000110   000000 600000 xsid               climb   nvectors=         0

     2064     3528    5                          END;

     2065     3529    4                     END/*do for osi connections*/;

   3529  0 000111   000136 710000 0                  TRA     s:3540

     2066     3530
     2067     3531    4                ELSE DO;

     2068     3532    4                     IF NODE = KI$TCTX.LOCAL_FEP

   3532  0 000112   200003 471500                    LDP1    @NODE,,AUTO
         0 000113   000002 236100                    LDQ     2,,PR0
         0 000114   000033 772000                    QRL     27
         0 000115   100000 116100                    CMPQ    0,,PR1
         0 000116   000132 601000 0                  TNZ     s:3537

     2069     3533    5                     THEN DO;
PL6.E3A0      #006=KIT$REPDISC File=KIT$TRANSPORT.:E05TSI                        WED 07/30/97 00:45 Page:306

     2070     3534    5                          REMOTE_NODE = KI$TCTX.NODE;

   3534  0 000117   000000 236100                    LDQ     0,,PR0
         0 000120   000022 772000                    QRL     18
         0 000121   000777 376007                    ANQ     511,DL
         0 000122   200006 756100                    STQ     REMOTE_NODE,,AUTO

     2071     3535    5                          CALL KIS$REP_DISC(REMOTE_NODE); /*local disconnected*/

   3535  0 000123   200006 633500                    EPPR3   REMOTE_NODE,,AUTO
         0 000124   200060 453500                    STP3    K$RWPARM+40,,AUTO
         0 000125   200060 630500                    EPPR0   K$RWPARM+40,,AUTO
         0 000126   000017 631400 xsym               EPPR1   B_VECTNIL+15
         0 000127   000000 701000 xent               TSX1    KIS$REP_DISC
         0 000130   000000 011000                    NOP     0

     2072     3536    5                          END;

   3536  0 000131   000136 710000 0                  TRA     s:3540

     2073     3537    4                     ELSE CALL KIS$REP_DISC(NODE); /*remote disconnected*/

   3537  0 000132   200003 630500                    EPPR0   @NODE,,AUTO
         0 000133   000017 631400 xsym               EPPR1   B_VECTNIL+15
         0 000134   000000 701000 xent               TSX1    KIS$REP_DISC
         0 000135   000000 011000                    NOP     0

     2074     3538    4                     END/*do for cp-6 connections*/;

     2075     3539
     2076     3540    3                KI$TCTX.STATE = %KI_TSTATE_CLOSED;

   3540  0 000136   200004 470500                    LDP0    TCTX$,,AUTO
         0 000137   002000 236003                    LDQ     1024,DU
         0 000140   000000 552140                    STBQ    0,'40'O,PR0

PL6.E3A0      #006=KIT$REPDISC File=KIT$TRANSPORT.:E05TSI                        WED 07/30/97 00:45 Page:307
     2077     3541    3                CALL KIT$RELTCTX(TCTX$);

   3541  0 000141   200004 630500                    EPPR0   TCTX$,,AUTO
         0 000142   200060 450500                    STP0    K$RWPARM+40,,AUTO
         0 000143   200060 630500                    EPPR0   K$RWPARM+40,,AUTO
         0 000144   000017 631400 xsym               EPPR1   B_VECTNIL+15
         0 000145   000000 701000 xent               TSX1    KIT$RELTCTX
         0 000146   000000 011000                    NOP     0

     2078     3542    3   UNLOCK_GATE:
     2079     3543                     %UNLOCK (G=KIT_RECV_LOCK);

   3544  0 000147   000000 630400 1     UNLOCK_GATE  EPPR0   0
         0 000150   000017 631400 xsym               EPPR1   B_VECTNIL+15
         0 000151   000000 701000 xent               TSX1    HFC$UNLOCK
         0 000152   000000 011000                    NOP     0

     2080     3546    3                END;

     2081     3547    2           TCTX# = TCTX# + 1;

   3547  0 000153   200005 235100                    LDA     TCTX#,,AUTO
         0 000154   000001 035007                    ADLA    1,DL
         0 000155   200005 755100                    STA     TCTX#,,AUTO

     2082     3548    2           END;

   3548  0 000156   000000 236000 xsym               LDQ     KI_TCTX_MAX#
         0 000157   200005 116100                    CMPQ    TCTX#,,AUTO
         0 000160   000007 603000 0                  TRC     s:3494

     2083     3549
     2084     3550    1      RETURN;

   3550  0 000161   000000 702200 xent               TSX2  ! X66_ARET

(unnamed)
PL6.E3A0      #006=KIT$REPDISC File=KIT$TRANSPORT.:E05TSI                        WED 07/30/97 00:45 Page:308
 Sect OctLoc
   1     000   000000 006000                                                    ....
     2085     3551
     2086     3552    1   END KIT$REPDISC;
     2087     3553
     2088     3554

PL6.E3A0      #006=KIT$REPDISC File=KIT$TRANSPORT.:E05TSI                        WED 07/30/97 00:45 Page:309
--  Include file information  --

   HF_LOCK_C.:E05TOU  cannot be made into a system file and is referenced.
   KI_MACROS_C.:E05TOU  is referenced.
   K_TRANSPORT_E.:E05TOU  is referenced.
   K_INTERFACE_M.:E05TOU  is referenced.
   K_ADDRESS_M.:E05TOU  is referenced.
   K$RWPARM.:E05TOU  is referenced.
      No diagnostics issued in procedure KIT$REPDISC.
PL6.E3A0      #006=KIT$REPDISC File=KIT$TRANSPORT.:E05TSI                        WED 07/30/97 00:45 Page:310

 **** Variables and constants ****

  ****  Auto variables  ****

  ****  Scalars and arrays  ****
OctLoc.c.b A Datatyp(siz) R M Lvl/name                 OctLoc.c.b A Datatyp(siz) R M Lvl/name

     3-0-0/w PTR         r     1 @NODE                     10-0-0/d STRC(1404)  r     1 K$RWPARM
    *0-0-0/w UBIN        r     1 NODE                       6-0-0/w UBIN        r     1 REMOTE_NODE
     7-0-0/w UBIN        r     1 STATE                      5-0-0/w UBIN        r     1 TCTX#
     4-0-0/w PTR         r     1 TCTX$

  ****  SYMREF variables  ****

  ****  Scalars and arrays  ****
OctLoc.c.b A Datatyp(siz) R M Lvl/name                 OctLoc.c.b A Datatyp(siz) R M Lvl/name

     0-0-0/w UBIN        r     1 KIT_OSI_SNAP               0-0-0/b BIT (72)    r     1 KIT_RECV_LOCK
     0-0-0/w PTR         r     1 KI_TCTX$$                  0-0-0/w UBIN        r     1 KI_TCTX_MAX#
     0-0-0/d STRC(1404)  r     1 K_RWPARM_CON

  ****  BASED and DCB variables  ****

  ****  Scalars and arrays  ****
OctLoc.c.b A Datatyp(siz) R M Lvl/name                 OctLoc.c.b A Datatyp(siz) R M Lvl/name

     0-0-0/w STRC(1620)  r     1 KI$TCTX
     0-0-0/w PTR         r     1 KI$TCTX$(0:0)


   Procedure KIT$REPDISC requires 114 words for executable code.
   Procedure KIT$REPDISC requires 50 words of local(AUTO) storage.

    No errors detected in file KIT$TRANSPORT.:E05TSI    .
PL6.E3A0      #006=KIT$REPDISC File=KIT$TRANSPORT.:E05TSI                        WED 07/30/97 00:45 Page:311
          *** CROSS REFERENCE LISTING ***
**     DENOTES     IDENTIFIER DEFINITION
<<                 IDENTIFIER'S VALUE SET
>>                 IDENTIFIER'S VALUE USED
<>                 IDENTIFIER SET AND/OR USED
--                 IDENTIFIER REFERENCED
PL6.E3A0      #006=KIT$REPDISC File=KIT$TRANSPORT.:E05TSI                        WED 07/30/97 00:45 Page:312
          MINI XREF LISTING

HFC$LOCK
      2256**DCL-ENT  3500--CALL
HFC$UNLOCK
      2256**DCL-ENT  3544--CALL
K$RWPARM
      2287**DCL      3503<<ASSIGN   3524<>CALL
K$RWPARM.BLKREC
      2313**DCL      2338--REDEF
K$RWPARM.BLKREC.BLKU#
      2314**DCL      2316--REDEF
K$RWPARM.BLKREC.RECU#
      2326**DCL      2328--REDEF
K$RWPARM.DVE.DVBYTE.VFC
      2353**DCL      2354--REDEF
K$RWPARM.DVE.EOMCHAR
      2361**DCL      2365--REDEF
K$RWPARM.ERR
      2425**DCL      2430--REDEF
K$RWPARM.FC
      2389**DCL      2390--REDEF
K$RWPARM.FLDID
      2571**DCL      2572--REDEF
K$RWPARM.FPT$
      2452**DCL      2459--REDEF
K$RWPARM.FUNCTION
      2466**DCL      3504<<ASSIGN
K$RWPARM.KEYTYPE
      2578**DCL      2579--REDEF
K$RWPARM.MSG$
      2288**DCL      2294--REDEF
K$RWPARM.MSGID
      2400**DCL      2405--REDEF
PL6.E3A0      #006=KIT$REPDISC File=KIT$TRANSPORT.:E05TSI                        WED 07/30/97 00:45 Page:313
K$RWPARM.MSGIDXT
      2413**DCL      2417--REDEF
K$RWPARM.ORG
      2549**DCL      2550--REDEF
K$RWPARM.TCTX#
      2523**DCL      3506<<ASSIGN
K$RWPARM.TCTX$
      2459**DCL      3505<<ASSIGN
K$RWPARM.THDRSZ
      2493**DCL      2497--REDEF
K$RWPARM.VDOFLGS
      2551**DCL      2562--REDEF
KI$TCTX
      2586**DCL      3505--ASSIGN
KI$TCTX.ERR
      2607**DCL      3510<<ASSIGN
KI$TCTX.LOCAL_FEP
      2629**DCL      3496>>IF       3532>>IF
KI$TCTX.NODE
      2593**DCL      3496>>IF       3534>>ASSIGN
KI$TCTX.SRC_REF
      2621**DCL      3506>>ASSIGN
KI$TCTX.SSN.DST_NSAP.ADDRESS_N
      3042**DCL      3043--REDEF
KI$TCTX.SSN.SRC_NSAP.ADDRESS_N
      2982**DCL      2983--REDEF
KI$TCTX.SSN.TPDUSIZE
      2745**DCL      2746--REDEF
KI$TCTX.SSN.TR_FLAGS.OSI
      2807**DCL      3512>>IF
KI$TCTX.STATE
      2587**DCL      3496>>IF       3508>>ASSIGN   3509<<ASSIGN   3520<<ASSIGN   3540<<ASSIGN
KI$TCTX$
      2584**DCL      3494>>ASSIGN
KIS$OSI_RECV
      3469**DCL-ENT  3524--CALL
PL6.E3A0      #006=KIT$REPDISC File=KIT$TRANSPORT.:E05TSI                        WED 07/30/97 00:45 Page:314
KIS$REP_DISC
      3468**DCL-ENT  3535--CALL     3537--CALL
KIT$RELTCTX
      3470**DCL-ENT  3541--CALL
KIT_OSI_SNAP
      3149**DCL      3526>>IF
KIT_RECV_LOCK
      3147**DCL      3500<>CALL     3544<>CALL
KI_TCTX$$
      3145**DCL      2584--IMP-PTR  3494>>ASSIGN
KI_TCTX_MAX#
      3148**DCL      3493>>DOWHILE
K_RWPARM_CON
      3171**DCL      3503>>ASSIGN
K_RWPARM_CON.BLKREC
      3197**DCL      3222--REDEF
K_RWPARM_CON.BLKREC.BLKU#
      3198**DCL      3200--REDEF
K_RWPARM_CON.BLKREC.RECU#
      3210**DCL      3212--REDEF
K_RWPARM_CON.DVE.DVBYTE.VFC
      3237**DCL      3238--REDEF
K_RWPARM_CON.DVE.EOMCHAR
      3245**DCL      3249--REDEF
K_RWPARM_CON.ERR
      3309**DCL      3314--REDEF
K_RWPARM_CON.FC
      3273**DCL      3274--REDEF
K_RWPARM_CON.FLDID
      3455**DCL      3456--REDEF
K_RWPARM_CON.FPT$
      3336**DCL      3343--REDEF
K_RWPARM_CON.KEYTYPE
      3462**DCL      3463--REDEF
K_RWPARM_CON.MSG$
      3172**DCL      3178--REDEF
PL6.E3A0      #006=KIT$REPDISC File=KIT$TRANSPORT.:E05TSI                        WED 07/30/97 00:45 Page:315
K_RWPARM_CON.MSGID
      3284**DCL      3289--REDEF
K_RWPARM_CON.MSGIDXT
      3297**DCL      3301--REDEF
K_RWPARM_CON.ORG
      3433**DCL      3434--REDEF
K_RWPARM_CON.THDRSZ
      3377**DCL      3381--REDEF
K_RWPARM_CON.VDOFLGS
      3435**DCL      3446--REDEF
NODE
      2259**DCL         9--PROC     3496>>IF       3496>>IF       3532>>IF       3537<>CALL
REMOTE_NODE
      2264**DCL      3534<<ASSIGN   3535<>CALL
SC_PRTCL_SNAP
      3471**DCL-ENT  3527--CALL
STATE
      2265**DCL      3508<<ASSIGN   3514>>IF       3514>>IF       3518>>IF
TCTX#
      2263**DCL      3491<<ASSIGN   3493>>DOWHILE  3494>>ASSIGN   3547<<ASSIGN   3547>>ASSIGN
TCTX$
      2262**DCL      2586--IMP-PTR  3494<<ASSIGN   3496>>IF       3496>>IF       3496>>IF       3505>>ASSIGN
      3506>>ASSIGN   3508>>ASSIGN   3509>>ASSIGN   3510>>ASSIGN   3512>>IF       3520>>ASSIGN   3532>>IF
      3534>>ASSIGN   3540>>ASSIGN   3541<>CALL
UNLOCK_GATE
      3544**LABEL    3516--GOTO     3521--GOTO
