VERSION E05

PL6.E3A0      #001=KI_DATA_D File=KI_DATA_D.:E05TSI                              WED 07/30/97 00:44 Page:1
        1        1        /*M* KI_DATA_D - FEI related data resident in Host monitor data*/
        2        2        /*T***********************************************************/
        3        3        /*T*                                                         */
        4        4        /*T* Copyright (c) Bull HN Information Systems Inc., 1997    */
        5        5        /*T*                                                         */
        6        6        /*T***********************************************************/
        7        7        /*X* MEC,MOC,EXM=20,CLM=20,CRM=80   */
        8        8
        9        9                            /*F* NAME: KI_DATA_D
       10       10
       11       11                            The file KI_DATA_D contains the data that
       12       12                            resides in the Host monitor that is used
       13       13                            by the host communication modules.
       14       14                            This includes:
       15       15                            */
       16       16        KI_DATA_D: PROC;
       17       17
       18       18        %INCLUDE KI_SUBS_C;
       19      154        %INCLUDE KV$VDO;
       20     1169        %INCLUDE K_CP6_M;
       21     1365        %INCLUDE UM_CP6;
       22     2217        %INCLUDE K_ADDRESS_M;
       23     2720
       24     2721        /* Host circular queue manager data.
       25     2722        */
       26     2723    1   DCL KI_MXFE UBIN WORD STATIC SYMDEF INIT(0);
       27     2724                            /*K* KI_MXFE - UBIN.
       28     2725                            Contains the maximum number of local FEPs
       29     2726                            connected to this host.  The value for
       30     2727                            KI_MXFE is determined by the number of FEP
       31     2728                            commands specified in the TIGR deck.
       32     2729                            */
       33     2730
       34     2731    1   DCL KI_FEI$$ PTR STATIC SYMDEF;
       35     2732                            /*K* KI_FEI$$ - PTR.
       36     2733                            Contains the address of the FEI pointer array
       37     2734                            in the Tigr data segment.  Each entry in the array
PL6.E3A0      #001=KI_DATA_D File=KI_DATA_D.:E05TSI                              WED 07/30/97 00:44 Page:2
       38     2735                            locates a the FEI context structure that is
       39     2736                            the context of each Communications WSQ.
       40     2737
       41     2738                            See KI$FEI in file KI_MACROS_C for the format
       42     2739                            of this context structure.
       43     2740                            */
       44     2741
       45     2742    1   DCL KI_LOCK BIT(72) STATIC SYMDEF INIT('1'B);
       46     2743                            /*K* KI_LOCK - BIT(72).
       47     2744                            This is the gate used to inhibit interrupts
       48     2745                            when FEI is processing messages from any FEP.
       49     2746                            No other processor should ever spin on this gate.
       50     2747                            */
       51     2748
       52     2749
       53     2750    1   DCL KI_MBI UBIN HALF STATIC SYMDEF INIT(1); /* Messages before interupt       */
       54     2751    1   DCL KI_MNTBI UBIN WORD STATIC SYMDEF INIT(0); /* Minimum time between interupts */
       55     2752    1   DCL KI_MXTBI UBIN WORD STATIC SYMDEF INIT(0); /* Max time before interupt     */
       56     2753
       57     2754
       58     2755
       59     2756        /* Host Network Layer Data.
       60     2757        */
       61     2758    1   DCL KI_NODES UBIN STATIC SYMDEF INIT(0);
       62     2759                            /*K* KI_NODES - UBIN.
       63     2760                            Contains the maximum number of nodes
       64     2761                            in the network.  This value is set from
       65     2762                            the value specified via the NODES option
       66     2763                            of TIGR's MON command.
       67     2764                            */
       68     2765
       69     2766    1   DCL KI_ROUTE$$ PTR STATIC SYMDEF;
       70     2767                            /*K* KI_ROUTE$$ - PTR.
       71     2768                            Contains the address of the Host Routing
       72     2769                            Table pointer array which resides in the
       73     2770                            TIGR data segment.  Each entry in the array
       74     2771                            locates a routing table entry.
PL6.E3A0      #001=KI_DATA_D File=KI_DATA_D.:E05TSI                              WED 07/30/97 00:44 Page:3
       75     2772
       76     2773                            The structure for the routing table entry
       77     2774                            is defined by the KI$ROUTE macro in file
       78     2775                            KI_MACROS_C.
       79     2776                            */
       80     2777
       81     2778    1   DCL KI_OSIROUTE$$ PTR STATIC SYMDEF;
       82     2779                            /*K* KI_OSIROUTE$$ - PTR.
       83     2780                               address of a pointer array.  The elements of the array
       84     2781                               point to KI$OSITABLE structures.  KI$OSITABLE contains
       85     2782                               an NSAP type address.                                  */
       86     2783
       87     2784    1   DCL KI_OSIMAX# UBIN STATIC SYMDEF;
       88     2785                            /*K* KI_OSIMAX#  - UBIN.
       89     2786                               max number of osiroutes as defined by TIGR.            */
       90     2787
       91     2788    1   DCL KI_OSIROUTE# UBIN STATIC SYMDEF;
       92     2789                            /*N* KI_OSIROUTE# - UBIN.
       93     2790                               number of osi route slots currently occupied.
       94     2791                               This is a count and not an index.
       95     2792                               Currently unused.                                      */
       96     2793    1   DCL KI_DATAID UBIN(18) STATIC SYMDEF;
       97     2794                            /*K* KI_DATAID - UBIN(18) Data unit identifier.  Used in the
       98     2795                               segementation part of the network pdu to id the initial pdu
       99     2796                               and any derived pdus. see K$NPDU_SEGEMENT.DATAID       */
      100     2797
      101     2798
      102     2799    1   DCL KI_LIFETIME UBIN BYTE STATIC SYMDEF INIT(500);
      103     2800                       /*K* KI_LIFETIME - UBIN BYTE length of time in units of 500 ms
      104     2801                            that a message is allowed to circulate the network.  Each
      105     2802                            hop decrements the count by at least 1.
      106     2803                            see K$NPDU_FIXED.LIFETIME.                                */
      107     2804
      108     2805        %K$NSAP(FPTN=KI_NET,STCLASS="STATIC SYMDEF");
      109     2857                            /*K* KI_NET - K$NSAP Network Entity Title.  The nsap address
      110     2858                                 that this CP-6 network is known by to the rest of the
      111     2859                                 world*/
PL6.E3A0      #001=KI_DATA_D File=KI_DATA_D.:E05TSI                              WED 07/30/97 00:44 Page:4
      112     2860
      113     2861
      114     2862
      115     2863        /* Host Transport Layer Data.
      116     2864        */
      117     2865    1   DCL KI_TCTX$$ PTR STATIC SYMDEF INIT(ADDR(NIL));
      118     2866                            /*K* KI_TCTX$$ - PTR.
      119     2867                            Contains the address of the Host Transport
      120     2868                            Context pointer array which resides in the
      121     2869                            TIGR data segment.  Each entry in the array
      122     2870                            locates a transport context block.
      123     2871
      124     2872                            The structure for the transport context block
      125     2873                            is defined by the KI$TCTX macro in file
      126     2874                            KI_MACROS_C.
      127     2875                            */
      128     2876
      129     2877    1   DCL KI_TCTX_USE# UBIN STATIC SYMDEF INIT(0);
      130     2878                            /*K* KI_TCTX_USE# - UBIN.
      131     2879                            Contains a count of the number of transport
      132     2880                            context blocks currently in use.
      133     2881                            */
      134     2882
      135     2883    1   DCL KI_TCTX_PEAK# UBIN STATIC SYMDEF INIT(0);
      136     2884                            /*K* KI_TCTX_PEAK# - UBIN.
      137     2885                            Contains the maximum number of transport
      138     2886                            context blocks that were ever in use at
      139     2887                            any one time.
      140     2888                            */
      141     2889
      142     2890    1   DCL KI_TCTX_MAX# UBIN STATIC SYMDEF INIT(0);
      143     2891                            /*K* KI_TCTX_MAX# - UBIN.
      144     2892                            Contains the number of transport context blocks
      145     2893                            allocated in the TIGR data segments.  This value
      146     2894                            is initialized by TIGR.
      147     2895                            */
      148     2896
PL6.E3A0      #001=KI_DATA_D File=KI_DATA_D.:E05TSI                              WED 07/30/97 00:44 Page:5
      149     2897
      150     2898
      151     2899
      152     2900
      153     2901        /* Host OSI Session layer data.
      154     2902        */
      155     2903    1   DCL KIS_SSN_CLIENTS UBIN STATIC SYMDEF INIT(0);
      156     2904                            /*K* KIS_SSN_CLIENTS - UBIN WORD.
      157     2905                            Contains the maximum number of OSI clients that
      158     2906                            may be active on the host at any one time.
      159     2907                            Set by the SSN_CLIENTS option of TIGR's MON command.
      160     2908                            */
      161     2909
      162     2910    1   DCL KIS_SSN_SERVERS UBIN STATIC SYMDEF INIT(0);
      163     2911                            /*K* KIS_SSN_SERVERS - UBIN WORD.
      164     2912                            Contains the maximum number of OSI servers that
      165     2913                            may be active on the host at any one time.
      166     2914                            Set by the SSN_SERVERS option of TIGR's MON command.
      167     2915                            */
      168     2916
      169     2917    1   DCL KIS_SSN_MAX UBIN STATIC SYMDEF INIT(0);
      170     2918                            /*K* KIS_SSN_MAX - UBIN WORD.
      171     2919                            Contains the maximum number of simultaneous OSI session
      172     2920                            connections that may be active on the host at any one time.
      173     2921                            Set by the SSN_MAX option of TIGR's MON command.
      174     2922                            */
      175     2923
      176     2924    1   DCL KIS_SSN_MAXMINOR UBIN STATIC SYMDEF INIT(0);
      177     2925                            /*K* KIS_SSN_MAXMINOR - UBIN WORD.
      178     2926                            Contains the size of the OSI Session Minor Application
      179     2927                            Info table.  This table is located via the pointer
      180     2928                            KIS_MINOR$.  Set by TIGR to the same value as KIS_SSN_MAX.
      181     2929                            */
      182     2930
      183     2931    1   DCL KIS_SSN_MAXMAJOR UBIN STATIC SYMDEF INIT(0);
      184     2932                            /*K* KIS_SSN_MAXMAJOR - UBIN WORD.
      185     2933                            Contains the size of the OSI Session Major Application
PL6.E3A0      #001=KI_DATA_D File=KI_DATA_D.:E05TSI                              WED 07/30/97 00:44 Page:6
      186     2934                            Info table.  This table is located via the pointer
      187     2935                            KIS_MAJOR$.  Set by TIGR.
      188     2936                            */
      189     2937
      190     2938        /* Host Application layer (KIA$APPLC) data.
      191     2939        */
      192     2940        %KV_VDO_ALL;
      193     5082
      194     5083        %KV$VDOVLP_CG_MSGTYP (NAME=KI_VDOVLP_CG_MSGTYP,STCLASS="CONSTANT SYMDEF");
      195     5135        /*K* KI_VDOVLP_CG_MSGTYP -
      196     5136        */
      197     5137
      198     5138        %KV$VDOVLP_CG_MSGID (NAME=KI_VDOVLP_CG_MSGID,STCLASS="CONSTANT SYMDEF");
      199     5190        /*K* KI_VDOVLP_CG_MSGID -
      200     5191        */
      201     5192
      202     5193        %KV$VDOVLP_CG_STA (NAME=KI_VDOVLP_CG_STA,STCLASS="CONSTANT SYMDEF");
      203     5244        /*K* KI_VDOVLP_CG_STA -
      204     5245        */
      205     5246
      206     5247        %KV$VDOVLP_DAT1 (NAME=KI_VDOVLP_DAT1,LST=YES,STCLASS="CONSTANT SYMDEF");
      207     5297        /*K* KI_VDOVLP_DAT1 -
      208     5298        */
      209     5299
      210     5300        %KV$VDOVLP_DAT2 (NAME=KI_VDOVLP_DAT2,LST=YES,STCLASS="CONSTANT SYMDEF");
      211     5350        /*K* KI_VDOVLP_DAT2 -
      212     5351        */
      213     5352
      214     5353        %KV$VDOVLP_MRK (NAME=KI_VDOVLP_MRK,BYTSIZ=4,MRKTYP=%KV_VDOMRKTYP_LSTRCRID,STCLASS=
              5353            "CONSTANT SYMDEF");
      215     5406        /*K* KI_VDOVLP_MRK -
      216     5407        */
      217     5408
      218     5409        %KV$VDOVLP_ERR (NAME=KI_VDOVLP_ERR,STCLASS="CONSTANT SYMDEF",
      219     5410             FCG=KI,MID=A,MON='1'B,ERR#=0,SEV=0);
      220     5506        /*K* KI_VDOVLP_ERR -
      221     5507        */
PL6.E3A0      #001=KI_DATA_D File=KI_DATA_D.:E05TSI                              WED 07/30/97 00:44 Page:7
      222     5508
      223     5509        %KV$VDOVLP_FLDID (NAME=KI_VDOVLP_FLDID,STCLASS="CONSTANT SYMDEF");
      224     5560        /*K* KI_VDOVLP_FLDID -
      225     5561        */
      226     5562
      227     5563        %KV$VDOVLP_KEY (NAME=KI_VDOVLP_KEY,STCLASS="CONSTANT SYMDEF");
      228     5613        /*K* KI_VDOVLP_KEY -
      229     5614        */
      230     5615
      231     5616        %KV_VDOBYTSIZ (NAME=KI_VDOBYTSIZ,STCLASS=CONSTANT SYMDEF);
      232     5636        /*K* KI_VDOBYTSIZ -
      233     5637        */
      234     5638
      235     5639    1   END;

PL6.E3A0      #001=KI_DATA_D File=KI_DATA_D.:E05TSI                              WED 07/30/97 00:44 Page:8
--  Include file information  --

   K_ADDRESS_M.:E05TOU  is referenced.
   UM_CP6.:E05TOU  is referenced.
   K_CP6_M.:E05TOU  is referenced.
   KV$VDO.:E05TOU  is referenced.
   KI_SUBS_C.:E05TOU  is referenced.
      No diagnostics issued in procedure KI_DATA_D.

   No code generated for procedure KI_DATA_D .
   Procedure KI_DATA_D requires 4 words of local(AUTO) storage.

    No errors detected in file KI_DATA_D.:E05TSI    .

PL6.E3A0      #001=KI_DATA_D File=KI_DATA_D.:E05TSI                              WED 07/30/97 00:44 Page:9

 Object Unit name= KI_DATA_D                                  File name= KI_DATA_D.:E05TOU
 UTS= JUL 30 '97 00:44:10.80 WED                              Compiler= PL-6/E31         Sev=      00
 SharedLib= :SHARED_SYSTEM                                    Alt SharedLib=


    ****  Control sections  ****

 Sect   Type Bound  Init  Size OctSiz  Section name(segment info)
    0   Data  even  none    29     35  KI_DATA_D
    1  RoData even  UTS     26     32  KI_DATA_D
    2   Proc  even  none     0      0  KI_DATA_D

    ****  Entry defs  ****

                              Check   Calling
                             calling  sequence
  Sect OctLoc Primary Altret sequence   type   Parms  Name
     2      0   yes            yes     ~proc       0  KI_DATA_D
PL6.E3A0      #001=KI_DATA_D File=KI_DATA_D.:E05TSI                              WED 07/30/97 00:44 Page:10

  ****  Data defs  ****

 Sect OctLoc  Name                           Sect OctLoc  Name
    0      0  KI_MXFE                            0      1  KI_FEI$$
    0      2  KI_LOCK                            0      4  KI_MBI
    0      5  KI_MNTBI                           0      6  KI_MXTBI
    0      7  KI_NODES                           0     10  KI_ROUTE$$
    0     11  KI_OSIROUTE$$                      0     12  KI_OSIMAX#
    0     13  KI_OSIROUTE#                       0     14  KI_DATAID
    0     15  KI_LIFETIME                        0     16  KI_NET
    0     24  KI_TCTX$$                          0     25  KI_TCTX_USE#
    0     26  KI_TCTX_PEAK#                      0     27  KI_TCTX_MAX#
    0     30  KIS_SSN_CLIENTS                    0     31  KIS_SSN_SERVERS
    0     32  KIS_SSN_MAX                        0     33  KIS_SSN_MAXMINOR
    0     34  KIS_SSN_MAXMAJOR                   1      0  KI_VDOVLP_CG_MSGTYP
    1      3  KI_VDOVLP_CG_MSGID                 1      6  KI_VDOVLP_CG_STA
    1     11  KI_VDOVLP_DAT1                     1     12  KI_VDOVLP_DAT2
    1     13  KI_VDOVLP_MRK                      1     15  KI_VDOVLP_ERR
    1     17  KI_VDOVLP_FLDID                    1     20  KI_VDOVLP_KEY
    1     21  KI_VDOBYTSIZ

  ****  Segment refs  ****

  Flags:  r = read only, s = secondary
Flgs Name                             Flgs Name                             Flgs Name
     NULLSID
PL6.E3A0      #001=KI_DATA_D File=KI_DATA_D.:E05TSI                              WED 07/30/97 00:44 Page:11


(unnamed)
 Sect OctLoc
   0     000   000000 000000   ****** ******   400000 000000   000000 000000    ................
   0     004   000001 ******   000000 000000   000000 000000   000000 000000    ................
   0     014*  ****** ******   764*** ******   000000 000000   000000 000000    ................
   0     020   000000 000000   000000 000000   000000 000000   000000 ******    ................
   0     024   000000 006014   000000 000000   000000 000000   000000 000000    ................
   0     030   000000 000000   000000 000000   000000 000000   000000 000000    ................
   0     034   000000 000000                                                    ....

(unnamed)
 Sect OctLoc
   1     000   002000 00****   040040 040040   040040 040040   001000 00****    ....        ....
   1     004   000000 000000   000000 000000   003000 00****   040040 040040    ............
   1     010   040040 040040   204000 ******   2050** 000000   011004 000002        ............
   1     014   000000 000000   006000 131101   400000 ******   007002 000000    ......YA........
   1     020   010000 ******   000000 006004   004004 004014   004004 004004    ................
   1     024   004004 004002   004004 002002   002002 012006   002002 004004    ................
   1     030   004002 002002   002006 004***                                    ........
        1        1        /*M* KI_DATA_D - FEI related data resident in Host monitor data*/
        2        2        /*T***********************************************************/
        3        3        /*T*                                                         */
        4        4        /*T* Copyright (c) Bull HN Information Systems Inc., 1997    */
        5        5        /*T*                                                         */
        6        6        /*T***********************************************************/
        7        7        /*X* MEC,MOC,EXM=20,CLM=20,CRM=80   */
        8        8
        9        9                            /*F* NAME: KI_DATA_D
       10       10
       11       11                            The file KI_DATA_D contains the data that
       12       12                            resides in the Host monitor that is used
       13       13                            by the host communication modules.
       14       14                            This includes:
       15       15                            */
       16       16        KI_DATA_D: PROC;
       17       17
PL6.E3A0      #001=KI_DATA_D File=KI_DATA_D.:E05TSI                              WED 07/30/97 00:44 Page:12
       18       18        %INCLUDE KI_SUBS_C;
       19      154        %INCLUDE KV$VDO;
       20     1169        %INCLUDE K_CP6_M;
       21     1365        %INCLUDE UM_CP6;
       22     2217        %INCLUDE K_ADDRESS_M;
       23     2720
       24     2721        /* Host circular queue manager data.
       25     2722        */
       26     2723    1   DCL KI_MXFE UBIN WORD STATIC SYMDEF INIT(0);
       27     2724                            /*K* KI_MXFE - UBIN.
       28     2725                            Contains the maximum number of local FEPs
       29     2726                            connected to this host.  The value for
       30     2727                            KI_MXFE is determined by the number of FEP
       31     2728                            commands specified in the TIGR deck.
       32     2729                            */
       33     2730
       34     2731    1   DCL KI_FEI$$ PTR STATIC SYMDEF;
       35     2732                            /*K* KI_FEI$$ - PTR.
       36     2733                            Contains the address of the FEI pointer array
       37     2734                            in the Tigr data segment.  Each entry in the array
       38     2735                            locates a the FEI context structure that is
       39     2736                            the context of each Communications WSQ.
       40     2737
       41     2738                            See KI$FEI in file KI_MACROS_C for the format
       42     2739                            of this context structure.
       43     2740                            */
       44     2741
       45     2742    1   DCL KI_LOCK BIT(72) STATIC SYMDEF INIT('1'B);
       46     2743                            /*K* KI_LOCK - BIT(72).
       47     2744                            This is the gate used to inhibit interrupts
       48     2745                            when FEI is processing messages from any FEP.
       49     2746                            No other processor should ever spin on this gate.
       50     2747                            */
       51     2748
       52     2749
       53     2750    1   DCL KI_MBI UBIN HALF STATIC SYMDEF INIT(1); /* Messages before interupt       */
       54     2751    1   DCL KI_MNTBI UBIN WORD STATIC SYMDEF INIT(0); /* Minimum time between interupts */
PL6.E3A0      #001=KI_DATA_D File=KI_DATA_D.:E05TSI                              WED 07/30/97 00:44 Page:13
       55     2752    1   DCL KI_MXTBI UBIN WORD STATIC SYMDEF INIT(0); /* Max time before interupt     */
       56     2753
       57     2754
       58     2755
       59     2756        /* Host Network Layer Data.
       60     2757        */
       61     2758    1   DCL KI_NODES UBIN STATIC SYMDEF INIT(0);
       62     2759                            /*K* KI_NODES - UBIN.
       63     2760                            Contains the maximum number of nodes
       64     2761                            in the network.  This value is set from
       65     2762                            the value specified via the NODES option
       66     2763                            of TIGR's MON command.
       67     2764                            */
       68     2765
       69     2766    1   DCL KI_ROUTE$$ PTR STATIC SYMDEF;
       70     2767                            /*K* KI_ROUTE$$ - PTR.
       71     2768                            Contains the address of the Host Routing
       72     2769                            Table pointer array which resides in the
       73     2770                            TIGR data segment.  Each entry in the array
       74     2771                            locates a routing table entry.
       75     2772
       76     2773                            The structure for the routing table entry
       77     2774                            is defined by the KI$ROUTE macro in file
       78     2775                            KI_MACROS_C.
       79     2776                            */
       80     2777
       81     2778    1   DCL KI_OSIROUTE$$ PTR STATIC SYMDEF;
       82     2779                            /*K* KI_OSIROUTE$$ - PTR.
       83     2780                               address of a pointer array.  The elements of the array
       84     2781                               point to KI$OSITABLE structures.  KI$OSITABLE contains
       85     2782                               an NSAP type address.                                  */
       86     2783
       87     2784    1   DCL KI_OSIMAX# UBIN STATIC SYMDEF;
       88     2785                            /*K* KI_OSIMAX#  - UBIN.
       89     2786                               max number of osiroutes as defined by TIGR.            */
       90     2787
       91     2788    1   DCL KI_OSIROUTE# UBIN STATIC SYMDEF;
PL6.E3A0      #001=KI_DATA_D File=KI_DATA_D.:E05TSI                              WED 07/30/97 00:44 Page:14
       92     2789                            /*N* KI_OSIROUTE# - UBIN.
       93     2790                               number of osi route slots currently occupied.
       94     2791                               This is a count and not an index.
       95     2792                               Currently unused.                                      */
       96     2793    1   DCL KI_DATAID UBIN(18) STATIC SYMDEF;
       97     2794                            /*K* KI_DATAID - UBIN(18) Data unit identifier.  Used in the
       98     2795                               segementation part of the network pdu to id the initial pdu
       99     2796                               and any derived pdus. see K$NPDU_SEGEMENT.DATAID       */
      100     2797
      101     2798
      102     2799    1   DCL KI_LIFETIME UBIN BYTE STATIC SYMDEF INIT(500);
      103     2800                       /*K* KI_LIFETIME - UBIN BYTE length of time in units of 500 ms
      104     2801                            that a message is allowed to circulate the network.  Each
      105     2802                            hop decrements the count by at least 1.
      106     2803                            see K$NPDU_FIXED.LIFETIME.                                */
      107     2804
      108     2805        %K$NSAP(FPTN=KI_NET,STCLASS="STATIC SYMDEF");
      109     2857                            /*K* KI_NET - K$NSAP Network Entity Title.  The nsap address
      110     2858                                 that this CP-6 network is known by to the rest of the
      111     2859                                 world*/
      112     2860
      113     2861
      114     2862
      115     2863        /* Host Transport Layer Data.
      116     2864        */
      117     2865    1   DCL KI_TCTX$$ PTR STATIC SYMDEF INIT(ADDR(NIL));
      118     2866                            /*K* KI_TCTX$$ - PTR.
      119     2867                            Contains the address of the Host Transport
      120     2868                            Context pointer array which resides in the
      121     2869                            TIGR data segment.  Each entry in the array
      122     2870                            locates a transport context block.
      123     2871
      124     2872                            The structure for the transport context block
      125     2873                            is defined by the KI$TCTX macro in file
      126     2874                            KI_MACROS_C.
      127     2875                            */
      128     2876
PL6.E3A0      #001=KI_DATA_D File=KI_DATA_D.:E05TSI                              WED 07/30/97 00:44 Page:15
      129     2877    1   DCL KI_TCTX_USE# UBIN STATIC SYMDEF INIT(0);
      130     2878                            /*K* KI_TCTX_USE# - UBIN.
      131     2879                            Contains a count of the number of transport
      132     2880                            context blocks currently in use.
      133     2881                            */
      134     2882
      135     2883    1   DCL KI_TCTX_PEAK# UBIN STATIC SYMDEF INIT(0);
      136     2884                            /*K* KI_TCTX_PEAK# - UBIN.
      137     2885                            Contains the maximum number of transport
      138     2886                            context blocks that were ever in use at
      139     2887                            any one time.
      140     2888                            */
      141     2889
      142     2890    1   DCL KI_TCTX_MAX# UBIN STATIC SYMDEF INIT(0);
      143     2891                            /*K* KI_TCTX_MAX# - UBIN.
      144     2892                            Contains the number of transport context blocks
      145     2893                            allocated in the TIGR data segments.  This value
      146     2894                            is initialized by TIGR.
      147     2895                            */
      148     2896
      149     2897
      150     2898
      151     2899
      152     2900
      153     2901        /* Host OSI Session layer data.
      154     2902        */
      155     2903    1   DCL KIS_SSN_CLIENTS UBIN STATIC SYMDEF INIT(0);
      156     2904                            /*K* KIS_SSN_CLIENTS - UBIN WORD.
      157     2905                            Contains the maximum number of OSI clients that
      158     2906                            may be active on the host at any one time.
      159     2907                            Set by the SSN_CLIENTS option of TIGR's MON command.
      160     2908                            */
      161     2909
      162     2910    1   DCL KIS_SSN_SERVERS UBIN STATIC SYMDEF INIT(0);
      163     2911                            /*K* KIS_SSN_SERVERS - UBIN WORD.
      164     2912                            Contains the maximum number of OSI servers that
      165     2913                            may be active on the host at any one time.
PL6.E3A0      #001=KI_DATA_D File=KI_DATA_D.:E05TSI                              WED 07/30/97 00:44 Page:16
      166     2914                            Set by the SSN_SERVERS option of TIGR's MON command.
      167     2915                            */
      168     2916
      169     2917    1   DCL KIS_SSN_MAX UBIN STATIC SYMDEF INIT(0);
      170     2918                            /*K* KIS_SSN_MAX - UBIN WORD.
      171     2919                            Contains the maximum number of simultaneous OSI session
      172     2920                            connections that may be active on the host at any one time.
      173     2921                            Set by the SSN_MAX option of TIGR's MON command.
      174     2922                            */
      175     2923
      176     2924    1   DCL KIS_SSN_MAXMINOR UBIN STATIC SYMDEF INIT(0);
      177     2925                            /*K* KIS_SSN_MAXMINOR - UBIN WORD.
      178     2926                            Contains the size of the OSI Session Minor Application
      179     2927                            Info table.  This table is located via the pointer
      180     2928                            KIS_MINOR$.  Set by TIGR to the same value as KIS_SSN_MAX.
      181     2929                            */
      182     2930
      183     2931    1   DCL KIS_SSN_MAXMAJOR UBIN STATIC SYMDEF INIT(0);
      184     2932                            /*K* KIS_SSN_MAXMAJOR - UBIN WORD.
      185     2933                            Contains the size of the OSI Session Major Application
      186     2934                            Info table.  This table is located via the pointer
      187     2935                            KIS_MAJOR$.  Set by TIGR.
      188     2936                            */
      189     2937
      190     2938        /* Host Application layer (KIA$APPLC) data.
      191     2939        */
      192     2940        %KV_VDO_ALL;
      193     5082
      194     5083        %KV$VDOVLP_CG_MSGTYP (NAME=KI_VDOVLP_CG_MSGTYP,STCLASS="CONSTANT SYMDEF");
      195     5135        /*K* KI_VDOVLP_CG_MSGTYP -
      196     5136        */
      197     5137
      198     5138        %KV$VDOVLP_CG_MSGID (NAME=KI_VDOVLP_CG_MSGID,STCLASS="CONSTANT SYMDEF");
      199     5190        /*K* KI_VDOVLP_CG_MSGID -
      200     5191        */
      201     5192
      202     5193        %KV$VDOVLP_CG_STA (NAME=KI_VDOVLP_CG_STA,STCLASS="CONSTANT SYMDEF");
PL6.E3A0      #001=KI_DATA_D File=KI_DATA_D.:E05TSI                              WED 07/30/97 00:44 Page:17
      203     5244        /*K* KI_VDOVLP_CG_STA -
      204     5245        */
      205     5246
      206     5247        %KV$VDOVLP_DAT1 (NAME=KI_VDOVLP_DAT1,LST=YES,STCLASS="CONSTANT SYMDEF");
      207     5297        /*K* KI_VDOVLP_DAT1 -
      208     5298        */
      209     5299
      210     5300        %KV$VDOVLP_DAT2 (NAME=KI_VDOVLP_DAT2,LST=YES,STCLASS="CONSTANT SYMDEF");
      211     5350        /*K* KI_VDOVLP_DAT2 -
      212     5351        */
      213     5352
      214     5353        %KV$VDOVLP_MRK (NAME=KI_VDOVLP_MRK,BYTSIZ=4,MRKTYP=%KV_VDOMRKTYP_LSTRCRID,STCLASS=
              5353            "CONSTANT SYMDEF");
      215     5406        /*K* KI_VDOVLP_MRK -
      216     5407        */
      217     5408
      218     5409        %KV$VDOVLP_ERR (NAME=KI_VDOVLP_ERR,STCLASS="CONSTANT SYMDEF",
      219     5410             FCG=KI,MID=A,MON='1'B,ERR#=0,SEV=0);
      220     5506        /*K* KI_VDOVLP_ERR -
      221     5507        */
      222     5508
      223     5509        %KV$VDOVLP_FLDID (NAME=KI_VDOVLP_FLDID,STCLASS="CONSTANT SYMDEF");
      224     5560        /*K* KI_VDOVLP_FLDID -
      225     5561        */
      226     5562
      227     5563        %KV$VDOVLP_KEY (NAME=KI_VDOVLP_KEY,STCLASS="CONSTANT SYMDEF");
      228     5613        /*K* KI_VDOVLP_KEY -
      229     5614        */
      230     5615
      231     5616        %KV_VDOBYTSIZ (NAME=KI_VDOBYTSIZ,STCLASS=CONSTANT SYMDEF);
      232     5636        /*K* KI_VDOBYTSIZ -
      233     5637        */
      234     5638
      235     5639    1   END;

PL6.E3A0      #001=KI_DATA_D File=KI_DATA_D.:E05TSI                              WED 07/30/97 00:44 Page:18
--  Include file information  --

   K_ADDRESS_M.:E05TOU  is referenced.
   UM_CP6.:E05TOU  is referenced.
   K_CP6_M.:E05TOU  is referenced.
   KV$VDO.:E05TOU  is referenced.
   KI_SUBS_C.:E05TOU  is referenced.
      No diagnostics issued in procedure KI_DATA_D.
PL6.E3A0      #001=KI_DATA_D File=KI_DATA_D.:E05TSI                              WED 07/30/97 00:44 Page:19

 **** Variables and constants ****

  ****  BASED and DCB variables  ****

  ****  Scalars and arrays  ****
OctLoc.c.b A Datatyp(siz) R M Lvl/name                 OctLoc.c.b A Datatyp(siz) R M Lvl/name

     0-0-0/h STRC(54)    r     1 KV$VDO_BLKDAT              0-0-0/h STRC        r     1 KV$VDO_CLSSSN
     0-0-0/h STRC        r     1 KV$VDO_CLSSTR              0-0-0/h STRC        r     1 KV$VDO_DAT
     0-0-0/h STRC(108)   r     1 KV$VDO_DCLFLD              0-0-0/h STRC        r     1 KV$VDO_DCLSTR
     0-0-0/h STRC        r     1 KV$VDO_DLT                 0-0-0/h STRC        r     1 KV$VDO_DSC
     0-0-0/h STRC        r     1 KV$VDO_ERS                 0-0-0/h STRC        r     1 KV$VDO_EVT
     0-0-0/h STRC        r     1 KV$VDO_HVPS                0-0-0/h STRC(18)    r     1 KV$VDO_MRK
     0-0-0/h STRC(18)    r     1 KV$VDO_NOP                 0-0-0/h STRC        r     1 KV$VDO_OPNSSN
     0-0-0/h STRC(54)    r     1 KV$VDO_OPNSTR              0-0-0/h STRC(18)    r     1 KV$VDO_PRM
     0-0-0/h STRC(18)    r     1 KV$VDO_RLSFLD              0-0-0/h STRC(18)    r     1 KV$VDO_RMS
     0-0-0/h STRC(90)    r     1 KV$VDO_RQSDAT              0-0-0/h STRC(18)    r     1 KV$VDO_RQSMRK
     0-0-0/h STRC(54)    r     1 KV$VDO_RQSPRM              0-0-0/h STRC(18)    r     1 KV$VDO_RQSSTT
     0-0-0/h STRC(18)    r     1 KV$VDO_SLCFLD              0-0-0/h STRC        r     1 KV$VDO_SLCGRPRND
     0-0-0/h STRC        r     1 KV$VDO_SLCQLF              0-0-0/h STRC        r     1 KV$VDO_SMS
     0-0-0/h STRC(18)    r     1 KV$VDO_STT                 0-0-0/h STRC(18)    r     1 KV$VDO_UPDRELDVC


   No code generated for procedure KI_DATA_D .
   Procedure KI_DATA_D requires 4 words of local(AUTO) storage.

    No errors detected in file KI_DATA_D.:E05TSI    .
PL6.E3A0      #001=KI_DATA_D File=KI_DATA_D.:E05TSI                              WED 07/30/97 00:44 Page:20
          *** CROSS REFERENCE LISTING ***
**     DENOTES     IDENTIFIER DEFINITION
<<                 IDENTIFIER'S VALUE SET
>>                 IDENTIFIER'S VALUE USED
<>                 IDENTIFIER SET AND/OR USED
--                 IDENTIFIER REFERENCED
PL6.E3A0      #001=KI_DATA_D File=KI_DATA_D.:E05TSI                              WED 07/30/97 00:44 Page:21
          MINI XREF LISTING

KI_NET.ADDRESS_N
      2853**DCL      2854--REDEF
KV$VDO_BLKDAT
      3082**DCL      5629--DCLINIT
KV$VDO_CLSSSN
      3126**DCL      5629--DCLINIT  5629--DCLINIT
KV$VDO_CLSSTR
      3169**DCL      5634--DCLINIT
KV$VDO_DAT
      3213**DCL      5629--DCLINIT  5630--DCLINIT
KV$VDO_DCLFLD
      3259**DCL      5630--DCLINIT
KV$VDO_DCLSTR
      3386**DCL      5630--DCLINIT
KV$VDO_DLT
      3430**DCL      5630--DCLINIT
KV$VDO_DSC
      3476**DCL      5630--DCLINIT  5630--DCLINIT
KV$VDO_ERS
      3519**DCL      5630--DCLINIT
KV$VDO_EVT
      3563**DCL      5631--DCLINIT
KV$VDO_HVPS
      3606**DCL      5631--DCLINIT
KV$VDO_MRK
      3649**DCL      5633--DCLINIT
KV$VDO_NOP
      3691**DCL      5631--DCLINIT
KV$VDO_OPNSSN
      3733**DCL      5631--DCLINIT  5631--DCLINIT
KV$VDO_OPNSTR
      3776**DCL      5634--DCLINIT
PL6.E3A0      #001=KI_DATA_D File=KI_DATA_D.:E05TSI                              WED 07/30/97 00:44 Page:22
KV$VDO_PRM
      3820**DCL      5631--DCLINIT  5632--DCLINIT
KV$VDO_RLSFLD
      3862**DCL      5632--DCLINIT
KV$VDO_RMS
      3904**DCL      5632--DCLINIT
KV$VDO_RQSDAT
      3946**DCL      5632--DCLINIT
KV$VDO_RQSMRK
      3995**DCL      5634--DCLINIT
KV$VDO_RQSPRM
      4037**DCL      5632--DCLINIT
KV$VDO_RQSSTT
      4081**DCL      5632--DCLINIT
KV$VDO_SLCFLD
      4123**DCL      5632--DCLINIT
KV$VDO_SLCGRPRND
      4165**DCL      5633--DCLINIT
KV$VDO_SLCQLF
      4248**DCL      5633--DCLINIT
KV$VDO_SMS
      4334**DCL      5633--DCLINIT
KV$VDO_STT
      4377**DCL      5633--DCLINIT
KV$VDO_UPDRELDVC
      4419**DCL      5633--DCLINIT
