PL6.E3A0      #005=KJF$FIX File=KJF$FEI.:E05TSI                                  WED 07/30/97 00:49 Page:175
      853        1        /*T***********************************************************/
      854        2        /*T*                                                         */
      855        3        /*T* Copyright (c) Bull HN Information Systems Inc., 1997    */
      856        4        /*T*                                                         */
      857        5        /*T***********************************************************/
      858        6        KJF$FIX: PROC (STATUS1,STATUS2) ALTRET;
      859        7
      860        8        /* Include files */
      861        9        %INCLUDE KJ_DATA_R;
      862    10250
      863    10251        /* Parameters */
      864    10252        %KJ$STATUS1 (NAME=STATUS1,STCLASS="");
      865    10271        %KJ$STATUS2 (NAME=STATUS2,STCLASS="");
      866    10285
      867    10286    1   DCL HARDWARE_STATUS1 BIT(16) CONSTANT INIT(%(%KJ_STATUS_CSP |
      868    10287                                                     %KJ_STATUS_CSR |
      869    10288                                                     %KJ_STATUS_CSW |
      870    10289                                                     %KJ_STATUS_L6B |
      871    10290                                                     %KJ_STATUS_NER |
      872    10291    1                                                %KJ_STATUS_MR));
      873    10292    1   DCL HARDWARE_STATUS2 BIT(16) CONSTANT INIT('0'B);
      874    10293    1   DCL SOFTWARE_STATUS1 BIT(16) CONSTANT INIT('0'B);
      875    10294    1   DCL SOFTWARE_STATUS2 BIT(16) CONSTANT INIT(%(%KJ_STATUS2_BV |
      876    10295                                                     %KJ_STATUS2_CWE |
      877    10296                                                     %KJ_STATUS2_IFC |
      878    10297                                                     %KJ_STATUS2_IDCW |
      879    10298    1                                                %KJ_STATUS2_IPCW));
      880    10299
      881    10300        /* Entry point references */
      882    10301    1   DCL KJF$DCWLIST ENTRY;
      883    10302    1   DCL KJF$DATA ENTRY;
      884    10303    1   DCL KJF$GETSTATUS ENTRY ALTRET;
      885    10304    1   DCL KJF$IO_IN ENTRY(1) ALTRET;
      886    10305
      887    10306        /* Auto */
      888    10307    1   DCL DCW$ PTR;
      889    10308        %GH_IO;
PL6.E3A0      #005=KJF$FIX File=KJF$FEI.:E05TSI                                  WED 07/30/97 00:49 Page:176
      890    10324
      891    10325        /* Based structures */
      892    10326        %KNH$QHDR (STCLASS="BASED(G$HAND_Q$)");
      893    10339
      894    10340        /* VLPs */
      895    10341        %EJECT;
PL6.E3A0      #005=KJF$FIX File=KJF$FEI.:E05TSI                                  WED 07/30/97 00:49 Page:177
      896    10342        /* Check to see if there was some hardware fault */
      897    10343
      898    10344    1        IF STATUS1 & HARDWARE_STATUS1 OR
      899    10345    1             STATUS2 & HARDWARE_STATUS2
      900    10346    2        THEN DO;
      901    10347                  /*N* Record the error */
      902    10348    2             IF STATUS1.ATT                /* list was in process */
      903    10349    2             THEN
      904    10350    3                  CALL RETRY WHENALTRETURN DO; /* Retry the list */
      905    10351    3                       ALTRETURN;
      906    10352    3                     END;
      907    10353    2             RETURN;
      908    10354    2           END;
      909    10355    1        IF STATUS1 & SOFTWARE_STATUS1 OR
      910    10356    1             STATUS2 & SOFTWARE_STATUS2
      911    10357    2        THEN DO;
      912    10358                  /*N* Probably should record the error, dump the handler,
      913    10359                       and LDTRC to itself again */
      914    10360    2             CALL M$SCREECH ( CPLR_IO ) ;
      915    10361    2           END;
      916    10362    1        IF STATUS1.TT AND KJ$CTX.STATE ~= %KJ_STATE_RUNNING /* The coupler is masked */
      917    10363    1        THEN
      918    10364    1             RETURN;
      919    10365    1        IF STATUS1.CNOP                    /* Central not operational */
      920    10366    1        THEN
      921    10367    1             CALL RECOVERY;
      922    10368
      923    10369
      924    10370    1        IF STATUS1.MY                      /* Memory yellow */
      925    10371    2        THEN DO;
      926    10372                  /*N* Log the error */
      927    10373    2           END;
      928    10374
      929    10375    2        DO CASE (STATUS2.IL6PARM);
      930    10376
      931    10377    2        CASE ( %KJ_IPARM_CNOP ) ;
      932    10378    2           CALL RECOVERY ;
PL6.E3A0      #005=KJF$FIX File=KJF$FEI.:E05TSI                                  WED 07/30/97 00:49 Page:178
      933    10379
      934    10380    2        CASE(%KJ_IPARM_SCR);
      935    10381    2           CALL M$SCREECH(HOSTABRT);
      936    10382                 /*S* SCREECH_CODE: KJF-S$HOST_REQUEST
      937    10383                      TYPE: SCREECH
      938    10384                      MESSAGE: Host requested Screech
      939    10385                      REMARKS: The host reqested a screech
      940    10386         */
      941    10387
      942    10388    2        CASE(%KJ_IPARM_TO);
      943    10389    2           CALL M$SCREECH(HOSTTO);
      944    10390                 /*S* SCREECH_CODE: KJF-S$HOST_TO
      945    10391                      TYPE: SCREECH
      946    10392                      MESSAGE: Host timed out the fep.
      947    10393                      REMARKS: The host did not get a time response or
      948    10394                               the OCQ stayed full to long.
      949    10395         */
      950    10396
      951    10397    2        CASE(%KJ_IPARM_BADMSG);
      952    10398    2           CALL M$SCREECH(HOSTBADMSG);
      953    10399                 /*S* SCREECH_CODE: KJF-S$HOST_BADMSG
      954    10400                      TYPE: SCREECH
      955    10401                      MESSAGE: Host found bad message in ICQ.
      956    10402                      REMARKS: The host found a message with invalid structure
      957    10403                               in the ICQ>
      958    10404         */
      959    10405
      960    10406    2        CASE(%KJ_IPARM_FLT);
      961    10407    2           CALL M$SCREECH(HOSTFLT);
      962    10408                 /*S* SCREECH_CODE: KJF-S$HOST_FEPFLT
      963    10409                      TYPE: SCREECH
      964    10410                      MESSAGE: IOM detect a fault on the direct channel
      965    10411                      REMARKS: The IOM detect a fault on the direct channel
      966    10412                               for this fep.
      967    10413         */
      968    10414
      969    10415    2        CASE(%KJ_IPARM_OREQ);
PL6.E3A0      #005=KJF$FIX File=KJF$FEI.:E05TSI                                  WED 07/30/97 00:49 Page:179
      970    10416    2           CALL M$SCREECH(HOSTOREQ);
      971    10417                 /*S* SCREECH_CODE: KJF-S$HOST_OREQ
      972    10418                      TYPE: SCREECH
      973    10419                      MESSAGE: The operator or user request this fep to crash
      974    10420                      REMARKS: Some user on the host request this fep to crash
      975    10421                               and create a dump.
      976    10422         */
      977    10423
      978    10424    2        CASE (%KJ_IPARM_OCQ);
      979    10425    2           IF KJ$CTX.CURRENT_FUNCTION = %KJ_CF_NONE
      980    10426    2           THEN
      981    10427    2                CALL KJF$DATA;
      982    10428
      983    10429    2        CASE (%KJ_IPARM_INIT);
      984    10430
      985    10431    2           CALL RECOVERY;
      986    10432    2           DCW$ = ADDR(KJ$CTX.DCWS);
      987    10433
      988    10434                %KJ$BLDDCW (OPERATION=DATAL66_L6,
      989    10435                L66A=%KJ_OFFSET_SIZE,
      990    10436                L6A="POFFW(ADDR(KJ$CTX.OCQ.SIZE),G$HAND_Q$)",
      991    10437                MODE=%KJ_MODE_BIN,
      992    10438                TALLY=1);
      993    10461                %KJ$BLDDCW (OPERATION=DATAL66_L6,
      994    10462                L66A=%KJ_OFFSET_NODE,
      995    10463                L6A="POFFW(ADDR(KJ$CTX.HOST_NODE),G$HAND_Q$)",
      996    10464                TALLY=4);
      997    10487
      998    10488                %KJ$BLDDCW (OPERATION=DISCONNECTINT);
      999    10511
     1000    10512    2           KJ$CTX.CURRENT_FUNCTION = %KJ_CF_ROCQSIZE;
     1001    10513        /* Do the IO and the interupt will trigger us to go further */
     1002    10514    2           CALL KJF$DCWLIST;
     1003    10515
     1004    10516    2           KJ$CTX.STATE = %KJ_STATE_INIT;
     1005    10517    2        END;                               /* End cases */
     1006    10518
PL6.E3A0      #005=KJF$FIX File=KJF$FEI.:E05TSI                                  WED 07/30/97 00:49 Page:180
     1007    10519    1        IF STATUS1.ATT                     /* The list was aborted */
     1008    10520    1        THEN
     1009    10521    2             CALL RETRY WHENALTRETURN DO;  /* Retry the list */
     1010    10522    2                  ALTRETURN;
     1011    10523    2                END;
     1012    10524
     1013    10525    1        RETURN;
     1014    10526        %EJECT;
PL6.E3A0      #005=KJF$FIX File=KJF$FEI.:E05TSI                                  WED 07/30/97 00:49 Page:181
     1015    10527    1   RETRY: PROC ALTRET;
     1016    10528    2        IF KJ$CTX.CURRENT_FUNCTION = %KJ_CF_NONE
     1017    10529    2        THEN
     1018    10530    2             RETURN;
     1019    10531
     1020    10532    2        KJ_STATS.DCW_ABRT  = KJ_STATS.DCW_ABRT + 1;
     1021    10533
     1022    10534        /* Get DCW offset */
     1023    10535    2        GH_IO = KJ_GH_IO_INIT;
     1024    10536    2        GH_IO.CAS.CHN = KJ$CTX.CHAN0;
     1025    10537    2        GH_IO.CAS.FNC = %KJ_IO_RDDCWOFF;
     1026    10538    2        CALL KJF$IO_IN(GH_IO);
     1027    10539
     1028    10540        /* If we are past the data transfer portion of the list build a
     1029    10541             jump to the pointer portion */
     1030    10542    2        IF GH_IO.RANGE >= POFFW(ADDR(KJ$CTX.PTR_DCW),ADDR(KJ$CTX.DCWS))
     1031    10543    2        THEN
     1032    10544    2             KJ$CTX.DCWS(0) = KJ_DCW_JUMP;
     1033    10545
     1034    10546    2        ALTRETURN;
     1035    10547
     1036    10548    2   END RETRY;
     1037    10549
     1038    10550        %EJECT;
PL6.E3A0      #005=KJF$FIX File=KJF$FEI.:E05TSI                                  WED 07/30/97 00:49 Page:182
     1039    10551    1   RECOVERY: PROC ;
     1040    10552
     1041    10553    2        IF KJ$CTX.STATE ~= %KJ_STATE_RUNNING
     1042    10554    2        THEN
     1043    10555    2             RETURN;
     1044    10556
     1045    10557    2        KJ_TERM_MSG.LDCTX = KJ_LDCTX;
     1046    10558    2        CALL M$WRITE (KJ_WRT_TERM);
     1047    10559    2        KNH$QHDR.SCQ.IPTR=0;
     1048    10560    2        KNH$QHDR.SCQ.RPTR=0;
     1049    10561    2        KJ$CTX.ICQ.IPTR=0;
     1050    10562    2        KJ$CTX.ICQ.RPTR=0;
     1051    10563    2        KJ$CTX.OCQ.IPTR=0;
     1052    10564    2        KJ$CTX.OCQ.RPTR=0;
     1053    10565    2        KJ$CTX.STATE = %KJ_STATE_RECOVERY;
     1054    10566    2        KJ$CTX.CURRENT_FUNCTION = %KJ_CF_NONE;
     1055    10567    2        RETURN;
     1056    10568
     1057    10569    2   END RECOVERY;
     1058    10570
     1059    10571    1   END KJF$FIX;
     1060    10572        %EOD;

PL6.E3A0      #005=KJF$FIX File=KJF$FEI.:E05TSI                                  WED 07/30/97 00:49 Page:183
--  Include file information  --

   K_SCODE_C.:E05TOU  is referenced.
   KL_AFCN_C.:E05TOU  is referenced.
   KH$STT.:E05TOU  is referenced.
   KJ_MACRO_M.:E05TOU  is referenced.
   KL_MACRO_C.:E05TOU  is referenced.
   GH_HARDWARE_M.:E05TOU  is referenced.
   KNH_MACRO_C.:E05TOU  is referenced.
   G_LCP6_E.:E05TOU  is referenced.
   GT_LCP6_M.:E05TOU  is referenced.
   KI_CP6.:E05TOU  is referenced.
   GF_LCP6_M.:E05TOU  is referenced.
   GM_LCP6_M.:E05TOU  is referenced.
   GU_LCP6_M.:E05TOU  is referenced.
   GJ_LCP6_M.:E05TOU  is referenced.
   GH_LCP6_M.:E05TOU  is referenced.
   LCP_6.:E05TOU  cannot be made into a system file and is referenced.
   KJ_FCNS_C.:E05TOU  is referenced.
   KJ_DATA_R.:E05TOU  cannot be made into a system file and is referenced.
      No diagnostics issued in procedure KJF$FIX.

   Procedure KJF$FIX requires 452 words for executable code.
   Procedure KJF$FIX requires 16 words of local(AUTO) storage.

PL6.E3A0      #005=KJF$FIX File=KJF$FEI.:E05TSI                                  WED 07/30/97 00:49 Page:184

 Object Unit name= KJF$FIX                                    File name= KJF$FEI.:E05TOU
 UTS= JUL 30 '97 00:49:32.12 WED                              Compiler= PL-6/E31         Sev=      00
 SharedLib= :SHARED_LCP6_SYSTEM                               Alt SharedLib=


    ****  Control sections  ****

 Sect   Type Bound  Init  Size HexSiz  Section name
    0   DCB   even  none     0      0  M$CQ
    1  RoData even  UTS      4      4  KJF$FIX
    2   Data  even  none     2      2  KJF$FIX
    3   Proc  even  none   452    1C4  KJF$FIX
    4  RoData even  none     2      2  KJF$FIX

    ****  Entry defs  ****

                              Check   Calling
                             calling  sequence
  Sect HexLoc Primary Altret sequence   type   Parms  Name
     3      0   yes    yes     yes      Std        2  KJF$FIX

  ****  Entry refs  ****

         Check        Calling
        calling       sequence
Altret sequence SRef   type   Args  Name
         yes           Std       0 KJF$DATA
         yes           Std       0 KJF$DCWLIST
 yes     yes           Std       1 KJF$IO_IN
                       nStd      0 X6A_AUTO_2
                       nStd      0 X6A_AALT
                       nStd      0 X6A_ARET
PL6.E3A0      #005=KJF$FIX File=KJF$FEI.:E05TSI                                  WED 07/30/97 00:49 Page:185

  ****  Data refs  ****

  Flags:  r = read only, s = secondary
Flgs Name                             Flgs Name                             Flgs Name
     M$CQ                             r    KJ_DCW_DTL66L6                   r    KJ_DCW_DTL6L66
     KJ_DCW_JUMP                           G$HAND_Q$                             KJ_CTX$
     KJ_LDCTX                              KJ_STATS                              KJ_TERM_MSG
r    KJ_WRT_TERM                      r    KJ_GH_IO_INIT                    r    CPLR_IO
r    HOSTABRT                         r    HOSTTO                           r    HOSTFLT
r    HOSTOREQ                         r    HOSTBADMSG                       r    G$ROS$
PL6.E3A0      #005=KJF$FIX File=KJF$FEI.:E05TSI                                  WED 07/30/97 00:49 Page:186


      853        1        /*T***********************************************************/
      854        2        /*T*                                                         */
      855        3        /*T* Copyright (c) Bull HN Information Systems Inc., 1997    */
      856        4        /*T*                                                         */
      857        5        /*T***********************************************************/
      858        6        KJF$FIX: PROC (STATUS1,STATUS2) ALTRET;

      6   3 000000  D380 0000 0000  xent KJF$FIX         LNJ,B5   X6A_AUTO_2
          3 000003       0010 0002                       DC       16,2

      859        7
      860        8        /* Include files */
      861        9        %INCLUDE KJ_DATA_R;
      862    10250
      863    10251        /* Parameters */
      864    10252        %KJ$STATUS1 (NAME=STATUS1,STCLASS="");
      865    10271        %KJ$STATUS2 (NAME=STATUS2,STCLASS="");
      866    10285
      867    10286    1   DCL HARDWARE_STATUS1 BIT(16) CONSTANT INIT(%(%KJ_STATUS_CSP |
      868    10287                                                     %KJ_STATUS_CSR |
      869    10288                                                     %KJ_STATUS_CSW |
      870    10289                                                     %KJ_STATUS_L6B |
      871    10290                                                     %KJ_STATUS_NER |
      872    10291    1                                                %KJ_STATUS_MR));
      873    10292    1   DCL HARDWARE_STATUS2 BIT(16) CONSTANT INIT('0'B);
      874    10293    1   DCL SOFTWARE_STATUS1 BIT(16) CONSTANT INIT('0'B);
      875    10294    1   DCL SOFTWARE_STATUS2 BIT(16) CONSTANT INIT(%(%KJ_STATUS2_BV |
      876    10295                                                     %KJ_STATUS2_CWE |
      877    10296                                                     %KJ_STATUS2_IFC |
      878    10297                                                     %KJ_STATUS2_IDCW |
      879    10298    1                                                %KJ_STATUS2_IPCW));
      880    10299
      881    10300        /* Entry point references */
      882    10301    1   DCL KJF$DCWLIST ENTRY;
      883    10302    1   DCL KJF$DATA ENTRY;
      884    10303    1   DCL KJF$GETSTATUS ENTRY ALTRET;
PL6.E3A0      #005=KJF$FIX File=KJF$FEI.:E05TSI                                  WED 07/30/97 00:49 Page:187
      885    10304    1   DCL KJF$IO_IN ENTRY(1) ALTRET;
      886    10305
      887    10306        /* Auto */
      888    10307    1   DCL DCW$ PTR;
      889    10308        %GH_IO;
      890    10324
      891    10325        /* Based structures */
      892    10326        %KNH$QHDR (STCLASS="BASED(G$HAND_Q$)");
      893    10339
      894    10340        /* VLPs */
      895    10341        %EJECT;
PL6.E3A0      #005=KJF$FIX File=KJF$FEI.:E05TSI                                  WED 07/30/97 00:49 Page:188
      896    10342        /* Check to see if there was some hardware fault */
      897    10343
      898    10344    1        IF STATUS1 & HARDWARE_STATUS1 OR

  10344   3 000005  ECC7 0004                            LDB,B6   @STATUS1,AUTO
          3 000007  E806                                 LDR,R6   ,B6
          3 000008  E500 0000 0000  01                   AND,R6   HARDWARE_STATUS1
          3 00000B  6981 0009                            BNEZ,R6  s:10348,PREL
          3 00000D  DCC7 0006                            LDB,B5   @STATUS2,AUTO
          3 00000F  E805                                 LDR,R6   ,B5
          3 000010  E500 0000 0001  01                   AND,R6   HARDWARE_STATUS2
          3 000013  6901 0010                            BEZ,R6   s:10355,PREL

      899    10345    1             STATUS2 & HARDWARE_STATUS2
      900    10346    2        THEN DO;

      901    10347                  /*N* Record the error */
      902    10348    2             IF STATUS1.ATT                /* list was in process */

  10348   3 000015  8286                                 LB,'4000'X        ,B6
  10348   3 000016       4000
          3 000017  0581 0009                            BBF      s:10353,PREL

      903    10349    2             THEN
      904    10350    3                  CALL RETRY WHENALTRETURN DO; /* Retry the list */

  10350   3 000019  E3C0 0114                            LNJ,B6   s:0,PREL
          3 00001B       0003                            DC       s:10351,PREL
          3 00001C  0F81 0004                            B        s:10353,PREL

      905    10351    3                       ALTRETURN;

  10351   3 00001E  C380 0000 0000  xent                 LNJ,B4   X6A_AALT

      906    10352    3                     END;
      907    10353    2             RETURN;

PL6.E3A0      #005=KJF$FIX File=KJF$FEI.:E05TSI                                  WED 07/30/97 00:49 Page:189
  10353   3 000021  C380 0000 0000  xent                 LNJ,B4   X6A_ARET

      908    10354    2           END;
      909    10355    1        IF STATUS1 & SOFTWARE_STATUS1 OR

  10355   3 000024  E806                                 LDR,R6   ,B6
          3 000025  E500 0000 0002  01                   AND,R6   SOFTWARE_STATUS1
          3 000028  6981 0007                            BNEZ,R6  s:10360,PREL
          3 00002A  E805                                 LDR,R6   ,B5
          3 00002B  E500 0000 0003  01                   AND,R6   SOFTWARE_STATUS2
          3 00002E  6901 0008                            BEZ,R6   s:10362,PREL

      910    10356    1             STATUS2 & SOFTWARE_STATUS2
      911    10357    2        THEN DO;

      912    10358                  /*N* Probably should record the error, dump the handler,
      913    10359                       and LDTRC to itself again */
      914    10360    2             CALL M$SCREECH ( CPLR_IO ) ;

  10360   3 000030  BB80 0000 0000  xsym                 LAB,B3   CPLR_IO
          3 000033  B870 0485                            LDR,R3   1157,IMO
          3 000035  0001                                 MCL
          3 000036       0000                            DC       s:10360+6,PREL

      915    10361    2           END;

      916    10362    1       IF STATUS1.TT AND KJ$CTX.STATE ~= %KJ_STATE_RUNNING /* The coupler is masked */

  10362   3 000037  ECC7 0004                            LDB,B6   @STATUS1,AUTO
          3 000039  8286                                 LB,'0020'X        ,B6
          3 00003A       0020
          3 00003B  0581 000B                            BBF      s:10365,PREL
          3 00003D  DC80 0000 0000  xsym                 LDB,B5   KJ_CTX$
          3 000040  E805                                 LDR,R6   ,B5
          3 000041  6D03                                 CMV,R6   3
          3 000042  0901 0004                            BE       s:10365,PREL

PL6.E3A0      #005=KJF$FIX File=KJF$FEI.:E05TSI                                  WED 07/30/97 00:49 Page:190
      917    10363    1        THEN
      918    10364    1             RETURN;

  10364   3 000044  C380 0000 0000  xent                 LNJ,B4   X6A_ARET

      919    10365    1        IF STATUS1.CNOP                    /* Central not operational */

  10365   3 000047  8286                                 LB,'0400'X        ,B6
  10365   3 000048       0400
          3 000049  0581 0004                            BBF      s:10370,PREL

      920    10366    1        THEN
      921    10367    1             CALL RECOVERY;

  10367   3 00004B  E3C0 0139                            LNJ,B6   s:0,PREL
          3 00004D       0001                            DC       s:10370,PREL

      922    10368
      923    10369
      924    10370    1        IF STATUS1.MY                      /* Memory yellow */

  10370   3 00004E  ECC7 0004                            LDB,B6   @STATUS1,AUTO
          3 000050  8286                                 LB,'0008'X        ,B6
          3 000051       0008
          3 000052  0581 0001                            BBF      s:10375,PREL

      925    10371    2        THEN DO;

      926    10372                  /*N* Log the error */
      927    10373    2           END;

      928    10374
      929    10375    2        DO CASE (STATUS2.IL6PARM);

  10375   3 000054  DCC7 0006                            LDB,B5   @STATUS2,AUTO
          3 000056  B805                                 LDR,R3   ,B5
          3 000057  B570 003F                            AND,R3   63,IMO
PL6.E3A0      #005=KJF$FIX File=KJF$FEI.:E05TSI                                  WED 07/30/97 00:49 Page:191
          3 000059  3D09                                 CMV,R3   9
          3 00005A  0281 00C2                            BGE      s:10519,PREL
          3 00005C  A830 0000 0062  03                   LDR,R2   s:10375+14,R3
          3 00005F  83A0 0000 006B  03                   JMP      s:10378,R2
          3 000062       00B2                            DC       s:10519,PREL
          3 000063       0032                            DC       s:10425,PREL
          3 000064       0041                            DC       s:10431,PREL
          3 000065       0005                            DC       s:10381,PREL
          3 000066       000E                            DC       s:10389,PREL
          3 000067       0017                            DC       s:10398,PREL
          3 000068       0020                            DC       s:10407,PREL
          3 000069       0029                            DC       s:10416,PREL
          3 00006A       0000                            DC       s:10378,PREL

      930    10376
      931    10377    2        CASE ( %KJ_IPARM_CNOP ) ;

      932    10378    2           CALL RECOVERY ;

  10378   3 00006B  E3C0 0119                            LNJ,B6   s:0,PREL
          3 00006D       0001                            DC       s:10378+3,PREL
          3 00006E  0F81 00AE                            B        s:10519,PREL

      933    10379
      934    10380    2        CASE(%KJ_IPARM_SCR);

      935    10381    2           CALL M$SCREECH(HOSTABRT);

  10381   3 000070  BB80 0000 0000  xsym                 LAB,B3   HOSTABRT
          3 000073  B870 0485                            LDR,R3   1157,IMO
          3 000075  0001                                 MCL
          3 000076       0000                            DC       s:10381+6,PREL
          3 000077  0F81 00A5                            B        s:10519,PREL

      936    10382                 /*S* SCREECH_CODE: KJF-S$HOST_REQUEST
      937    10383                      TYPE: SCREECH
      938    10384                      MESSAGE: Host requested Screech
PL6.E3A0      #005=KJF$FIX File=KJF$FEI.:E05TSI                                  WED 07/30/97 00:49 Page:192
      939    10385                      REMARKS: The host reqested a screech
      940    10386         */
      941    10387
      942    10388    2        CASE(%KJ_IPARM_TO);

      943    10389    2           CALL M$SCREECH(HOSTTO);

  10389   3 000079  BB80 0000 0000  xsym                 LAB,B3   HOSTTO
          3 00007C  B870 0485                            LDR,R3   1157,IMO
          3 00007E  0001                                 MCL
          3 00007F       0000                            DC       s:10389+6,PREL
          3 000080  0F81 009C                            B        s:10519,PREL

      944    10390                 /*S* SCREECH_CODE: KJF-S$HOST_TO
      945    10391                      TYPE: SCREECH
      946    10392                      MESSAGE: Host timed out the fep.
      947    10393                      REMARKS: The host did not get a time response or
      948    10394                               the OCQ stayed full to long.
      949    10395         */
      950    10396
      951    10397    2        CASE(%KJ_IPARM_BADMSG);

      952    10398    2           CALL M$SCREECH(HOSTBADMSG);

  10398   3 000082  BB80 0000 0000  xsym                 LAB,B3   HOSTBADMSG
          3 000085  B870 0485                            LDR,R3   1157,IMO
          3 000087  0001                                 MCL
          3 000088       0000                            DC       s:10398+6,PREL
          3 000089  0F81 0093                            B        s:10519,PREL

      953    10399                 /*S* SCREECH_CODE: KJF-S$HOST_BADMSG
      954    10400                      TYPE: SCREECH
      955    10401                      MESSAGE: Host found bad message in ICQ.
      956    10402                      REMARKS: The host found a message with invalid structure
      957    10403                               in the ICQ>
      958    10404         */
      959    10405
PL6.E3A0      #005=KJF$FIX File=KJF$FEI.:E05TSI                                  WED 07/30/97 00:49 Page:193
      960    10406    2        CASE(%KJ_IPARM_FLT);

      961    10407    2           CALL M$SCREECH(HOSTFLT);

  10407   3 00008B  BB80 0000 0000  xsym                 LAB,B3   HOSTFLT
          3 00008E  B870 0485                            LDR,R3   1157,IMO
          3 000090  0001                                 MCL
          3 000091       0000                            DC       s:10407+6,PREL
          3 000092  0F81 008A                            B        s:10519,PREL

      962    10408                 /*S* SCREECH_CODE: KJF-S$HOST_FEPFLT
      963    10409                      TYPE: SCREECH
      964    10410                      MESSAGE: IOM detect a fault on the direct channel
      965    10411                      REMARKS: The IOM detect a fault on the direct channel
      966    10412                               for this fep.
      967    10413         */
      968    10414
      969    10415    2        CASE(%KJ_IPARM_OREQ);

      970    10416    2           CALL M$SCREECH(HOSTOREQ);

  10416   3 000094  BB80 0000 0000  xsym                 LAB,B3   HOSTOREQ
          3 000097  B870 0485                            LDR,R3   1157,IMO
          3 000099  0001                                 MCL
          3 00009A       0000                            DC       s:10416+6,PREL
          3 00009B  0F81 0081                            B        s:10519,PREL

      971    10417                 /*S* SCREECH_CODE: KJF-S$HOST_OREQ
      972    10418                      TYPE: SCREECH
      973    10419                      MESSAGE: The operator or user request this fep to crash
      974    10420                      REMARKS: Some user on the host request this fep to crash
      975    10421                               and create a dump.
      976    10422         */
      977    10423
      978    10424    2        CASE (%KJ_IPARM_OCQ);

      979    10425    2           IF KJ$CTX.CURRENT_FUNCTION = %KJ_CF_NONE
PL6.E3A0      #005=KJF$FIX File=KJF$FEI.:E05TSI                                  WED 07/30/97 00:49 Page:194

  10425   3 00009D  CC80 0000 0000  xsym                 LDB,B4   KJ_CTX$
          3 0000A0  E844 0001                            LDR,R6   1,B4
          3 0000A2  6981 007A                            BNEZ,R6  s:10519,PREL

      980    10426    2           THEN
      981    10427    2                CALL KJF$DATA;

  10427   3 0000A4  CBF0 0000                            LAB,B4   0,IMO
          3 0000A6  E380 0000 0000  xent                 LNJ,B6   KJF$DATA
          3 0000A9       0001                            DC       s:10427+6,PREL
          3 0000AA  0F81 0072                            B        s:10519,PREL

      982    10428
      983    10429    2        CASE (%KJ_IPARM_INIT);

      984    10430
      985    10431    2           CALL RECOVERY;

  10431   3 0000AC  E3C0 00D8                            LNJ,B6   s:0,PREL
          3 0000AE       0001                            DC       s:10432,PREL

      986    10432    2           DCW$ = ADDR(KJ$CTX.DCWS);

  10432   3 0000AF  EC80 0000 0000  xsym                 LDB,B6   KJ_CTX$
          3 0000B2  DBC6 0038                            LAB,B5   56,B6
          3 0000B4  DFC7 0008                            STB,B5   DCW$,AUTO

      987    10433
      988    10434                %KJ$BLDDCW (OPERATION=DATAL66_L6,
      989    10435                L66A=%KJ_OFFSET_SIZE,
      990    10436                L6A="POFFW(ADDR(KJ$CTX.OCQ.SIZE),G$HAND_Q$)",
      991    10437                MODE=%KJ_MODE_BIN,
      992    10438                TALLY=1);

  10442   3 0000B6  AB80 0000 0000  xsym                 LAB,B2   KJ_DCW_DTL66L6
          3 0000B9  2C00                                 LDV,R2   0
PL6.E3A0      #005=KJF$FIX File=KJF$FEI.:E05TSI                                  WED 07/30/97 00:49 Page:195
          3 0000BA  6C0C                                 LDV,R6   12
          3 0000BB  BB85                                 LAB,B3   ,B5
          3 0000BC  3C00                                 LDV,R3   0
          3 0000BD  0008                                 MMM

  10448   3 0000BE  6C03                                 LDV,R6   3
          3 0000BF  ECC7 0008                            LDB,B6   DCW$,AUTO
          3 0000C1  EA86                                 SRM,R6,'00FF'X    ,B6
          3 0000C2       00FF

  10451   3 0000C3  5C01                                 LDV,R5   1
          3 0000C4  DF46 0001                            STR,R5   1,B6

  10454   3 0000C6  8CF0 0000 0005                       LDI      5,IMO
          3 0000C9  8D46 0002                            SDI      2,B6

  10457   3 0000CB  8C80 0000 0000  xsym                 LDI      KJ_CTX$
          3 0000CE  8480 0000 0000  xsym                 SID      G$HAND_Q$
          3 0000D1  8470 0000 0025                       AID      37,IMO
          3 0000D4  8D46 0004                            SDI      4,B6

  10459   3 0000D6  CBC6 0006                            LAB,B4   6,B6
          3 0000D8  CFC7 0008                            STB,B4   DCW$,AUTO

      993    10461                %KJ$BLDDCW (OPERATION=DATAL66_L6,
      994    10462                L66A=%KJ_OFFSET_NODE,
      995    10463                L6A="POFFW(ADDR(KJ$CTX.HOST_NODE),G$HAND_Q$)",
      996    10464                TALLY=4);

  10468   3 0000DA  AB80 0000 0000  xsym                 LAB,B2   KJ_DCW_DTL66L6
          3 0000DD  2C00                                 LDV,R2   0
          3 0000DE  6C0C                                 LDV,R6   12
          3 0000DF  BB84                                 LAB,B3   ,B4
          3 0000E0  3C00                                 LDV,R3   0
          3 0000E1  0008                                 MMM

  10477   3 0000E2  ECC7 0008                            LDB,B6   DCW$,AUTO
PL6.E3A0      #005=KJF$FIX File=KJF$FEI.:E05TSI                                  WED 07/30/97 00:49 Page:196
          3 0000E4  6C04                                 LDV,R6   4
          3 0000E5  EF46 0001                            STR,R6   1,B6

  10480   3 0000E7  8CF0 0000 0003                       LDI      3,IMO
          3 0000EA  8D46 0002                            SDI      2,B6

  10483   3 0000EC  8C80 0000 0000  xsym                 LDI      KJ_CTX$
          3 0000EF  8480 0000 0000  xsym                 SID      G$HAND_Q$
          3 0000F2  8470 0000 0007                       AID      7,IMO
          3 0000F5  8D46 0004                            SDI      4,B6

  10485   3 0000F7  ABC6 0006                            LAB,B2   6,B6
          3 0000F9  AFC7 0008                            STB,B2   DCW$,AUTO

      997    10487
      998    10488                %KJ$BLDDCW (OPERATION=DISCONNECTINT);

  10494   3 0000FB  AB80 0000 0000  xsym                 LAB,B2   KJ_DCW_DTL6L66
          3 0000FE  2C00                                 LDV,R2   0
          3 0000FF  6C0C                                 LDV,R6   12
          3 000100  BCC7 0008                            LDB,B3   DCW$,AUTO
          3 000102  3C00                                 LDV,R3   0
          3 000103  0008                                 MMM

  10495   3 000104  6C38                                 LDV,R6   56
          3 000105  ECC7 0008                            LDB,B6   DCW$,AUTO
          3 000107  E786                                 STH,R6   ,B6

  10509   3 000108  BBC6 0006                            LAB,B3   6,B6
          3 00010A  BFC7 0008                            STB,B3   DCW$,AUTO

      999    10511
     1000    10512    2           KJ$CTX.CURRENT_FUNCTION = %KJ_CF_ROCQSIZE;

  10512   3 00010C  EC80 0000 0000  xsym                 LDB,B6   KJ_CTX$
          3 00010F  4C02                                 LDV,R4   2
          3 000110  CF46 0001                            STR,R4   1,B6
PL6.E3A0      #005=KJF$FIX File=KJF$FEI.:E05TSI                                  WED 07/30/97 00:49 Page:197

     1001    10513        /* Do the IO and the interupt will trigger us to go further */
     1002    10514    2           CALL KJF$DCWLIST;

  10514   3 000112  CBF0 0000                            LAB,B4   0,IMO
          3 000114  E380 0000 0000  xent                 LNJ,B6   KJF$DCWLIST
          3 000117       0001                            DC       s:10516,PREL

     1003    10515
     1004    10516    2           KJ$CTX.STATE = %KJ_STATE_INIT;

  10516   3 000118  EC80 0000 0000  xsym                 LDB,B6   KJ_CTX$
          3 00011B  6C02                                 LDV,R6   2
          3 00011C  EF06                                 STR,R6   ,B6

     1005    10517    2        END;                               /* End cases */

     1006    10518
     1007    10519    1        IF STATUS1.ATT                     /* The list was aborted */

  10519   3 00011D  ECC7 0004                            LDB,B6   @STATUS1,AUTO
          3 00011F  8286                                 LB,'4000'X        ,B6
          3 000120       4000
          3 000121  0581 0009                            BBF      s:10525,PREL

     1008    10520    1        THEN
     1009    10521    2             CALL RETRY WHENALTRETURN DO;  /* Retry the list */

  10521   3 000123  E3C0 000A                            LNJ,B6   s:0,PREL
          3 000125       0003                            DC       s:10522,PREL
          3 000126  0F81 0004                            B        s:10525,PREL

     1010    10522    2                  ALTRETURN;

  10522   3 000128  C380 0000 0000  xent                 LNJ,B4   X6A_AALT

     1011    10523    2                END;
PL6.E3A0      #005=KJF$FIX File=KJF$FEI.:E05TSI                                  WED 07/30/97 00:49 Page:198
     1012    10524
     1013    10525    1        RETURN;

  10525   3 00012B  C380 0000 0000  xent                 LNJ,B4   X6A_ARET

     1014    10526        %EJECT;
PL6.E3A0      #005=KJF$FIX File=KJF$FEI.:E05TSI                                  WED 07/30/97 00:49 Page:199
     1015    10527    1   RETRY: PROC ALTRET;

  10527   3 00012E  EFC7 000A            RETRY           STB,B6   DCW$+2,AUTO

     1016    10528    2        IF KJ$CTX.CURRENT_FUNCTION = %KJ_CF_NONE

  10528   3 000130  DC80 0000 0000  xsym                 LDB,B5   KJ_CTX$
          3 000133  E845 0001                            LDR,R6   1,B5
          3 000135  6981 0005                            BNEZ,R6  s:10532,PREL

     1017    10529    2        THEN
     1018    10530    2             RETURN;

  10530   3 000137  ECC7 000A                            LDB,B6   DCW$+2,AUTO
          3 000139  C3C6 0001                            LNJ,B4   1,B6

     1019    10531
     1020    10532    2        KJ_STATS.DCW_ABRT  = KJ_STATS.DCW_ABRT + 1;

  10532   3 00013B  8A80 0000 002B  xsym                 INC      KJ_STATS+43
          3 00013E  8E80 0000 002A  xsym                 CAD      KJ_STATS+42

     1021    10533
     1022    10534        /* Get DCW offset */
     1023    10535    2        GH_IO = KJ_GH_IO_INIT;

  10535   3 000141  8C80 0000 0000  xsym                 LDI      KJ_GH_IO_INIT
          3 000144  8D00 0000 0000  02                   SDI      GH_IO

     1024    10536    2        GH_IO.CAS.CHN = KJ$CTX.CHAN0;

  10536   3 000147  D845 0002                            LDR,R5   2,B5
          3 000149  5006                                 SOL,R5   6
          3 00014A  DA80 0000 0000  02                   SRM,R5,'FFC0'X    GH_IO
          3 00014D       FFC0

     1025    10537    2        GH_IO.CAS.FNC = %KJ_IO_RDDCWOFF;
PL6.E3A0      #005=KJF$FIX File=KJF$FEI.:E05TSI                                  WED 07/30/97 00:49 Page:200

  10537   3 00014E  5C0C                                 LDV,R5   12
          3 00014F  DA80 0000 0000  02                   SRM,R5,'003F'X    GH_IO
          3 000152       003F

     1026    10538    2        CALL KJF$IO_IN(GH_IO);

  10538   3 000153  BB80 0000 0000  04                   LAB,B3   0
          3 000156  CBF0 0100                            LAB,B4   256,IMO
          3 000158  E380 0000 0000  xent                 LNJ,B6   KJF$IO_IN
          3 00015B       0001                            DC       s:10542,PREL

     1027    10539
     1028    10540        /* If we are past the data transfer portion of the list build a
     1029    10541             jump to the pointer portion */
     1030    10542    2        IF GH_IO.RANGE >= POFFW(ADDR(KJ$CTX.PTR_DCW),ADDR(KJ$CTX.DCWS))

  10542   3 00015C  8C80 0000 0000  xsym                 LDI      KJ_CTX$
          3 00015F  8480 0000 0000  xsym                 SID      KJ_CTX$
          3 000162  8D47 000C                            SDI      DCW$+4,AUTO
          3 000164  F800 0000 0001  02                   LDR,R7   GH_IO+1
          3 000167  6C00                                 LDV,R6   0
          3 000168  8D47 000E                            SDI      DCW$+6,AUTO
          3 00016A  8CC7 000C                            LDI      DCW$+4,AUTO
          3 00016C  8470 0000 0078                       AID      120,IMO
          3 00016F  84C7 000E                            SID      DCW$+6,AUTO
          3 000171  6A01 000F                            BGZ,R6   s:10546,PREL
          3 000173  6801 0003                            BLZ,R6   s:10544,PREL
          3 000175  7981 000B                            BNEZ,R7  s:10546,PREL

     1031    10543    2        THEN
     1032    10544    2             KJ$CTX.DCWS(0) = KJ_DCW_JUMP;

  10544   3 000177  AB80 0000 0000  xsym                 LAB,B2   KJ_DCW_JUMP
          3 00017A  2C00                                 LDV,R2   0
          3 00017B  6C0C                                 LDV,R6   12
          3 00017C  BC80 0000 0000  xsym                 LDB,B3   KJ_CTX$
PL6.E3A0      #005=KJF$FIX File=KJF$FEI.:E05TSI                                  WED 07/30/97 00:49 Page:201
          3 00017F  3C70                                 LDV,R3   112
          3 000180  0008                                 MMM

     1033    10545
     1034    10546    2        ALTRETURN;

  10546   3 000181  ECC7 000A                            LDB,B6   DCW$+2,AUTO
          3 000183  B806                                 LDR,R3   ,B6
          3 000184  C3B6                                 LNJ,B4   ,B6,R3

     1035    10547
     1036    10548    2   END RETRY;
     1037    10549
     1038    10550        %EJECT;
PL6.E3A0      #005=KJF$FIX File=KJF$FEI.:E05TSI                                  WED 07/30/97 00:49 Page:202
     1039    10551    1   RECOVERY: PROC ;

  10551   3 000185  EFC7 000A            RECOVERY        STB,B6   DCW$+2,AUTO

     1040    10552
     1041    10553    2        IF KJ$CTX.STATE ~= %KJ_STATE_RUNNING

  10553   3 000187  DC80 0000 0000  xsym                 LDB,B5   KJ_CTX$
          3 00018A  E805                                 LDR,R6   ,B5
          3 00018B  6D03                                 CMV,R6   3
          3 00018C  0901 0005                            BE       s:10557,PREL

     1042    10554    2        THEN
     1043    10555    2             RETURN;

  10555   3 00018E  ECC7 000A                            LDB,B6   DCW$+2,AUTO
          3 000190  C3C6 0001                            LNJ,B4   1,B6

     1044    10556
     1045    10557    2        KJ_TERM_MSG.LDCTX = KJ_LDCTX;

  10557   3 000192  D800 0000 0000  xsym                 LDR,R5   KJ_LDCTX
          3 000195  DF00 0000 0001  xsym                 STR,R5   KJ_TERM_MSG+1

     1046    10558    2        CALL M$WRITE (KJ_WRT_TERM);

  10558   3 000198  BB80 0000 0000  xsym                 LAB,B3   KJ_WRT_TERM
          3 00019B  B870 1543                            LDR,R3   5443,IMO
          3 00019D  0001                                 MCL
          3 00019E       0000                            DC       s:10558+6,PREL

     1047    10559    2        KNH$QHDR.SCQ.IPTR=0;

  10559   3 00019F  EC80 0000 0000  xsym                 LDB,B6   G$HAND_Q$
          3 0001A2  8746 0004                            CL       4,B6

     1048    10560    2        KNH$QHDR.SCQ.RPTR=0;
PL6.E3A0      #005=KJF$FIX File=KJF$FEI.:E05TSI                                  WED 07/30/97 00:49 Page:203

  10560   3 0001A4  8746 0005                            CL       5,B6

     1049    10561    2        KJ$CTX.ICQ.IPTR=0;

  10561   3 0001A6  DC80 0000 0000  xsym                 LDB,B5   KJ_CTX$
          3 0001A9  8745 000A                            CL       10,B5
          3 0001AB  8745 000B                            CL       11,B5

     1050    10562    2        KJ$CTX.ICQ.RPTR=0;

  10562   3 0001AD  8745 000D                            CL       13,B5
          3 0001AF  8745 000E                            CL       14,B5

     1051    10563    2        KJ$CTX.OCQ.IPTR=0;

  10563   3 0001B1  8745 001F                            CL       31,B5
          3 0001B3  8745 0020                            CL       32,B5

     1052    10564    2        KJ$CTX.OCQ.RPTR=0;

  10564   3 0001B5  8745 0022                            CL       34,B5
          3 0001B7  8745 0023                            CL       35,B5

     1053    10565    2        KJ$CTX.STATE = %KJ_STATE_RECOVERY;

  10565   3 0001B9  6C04                                 LDV,R6   4
          3 0001BA  EF05                                 STR,R6   ,B5

     1054    10566    2        KJ$CTX.CURRENT_FUNCTION = %KJ_CF_NONE;

  10566   3 0001BB  EC80 0000 0000  xsym                 LDB,B6   KJ_CTX$
          3 0001BE  8746 0001                            CL       1,B6

     1055    10567    2        RETURN;

  10567   3 0001C0  ECC7 000A                            LDB,B6   DCW$+2,AUTO
PL6.E3A0      #005=KJF$FIX File=KJF$FEI.:E05TSI                                  WED 07/30/97 00:49 Page:204
          3 0001C2  C3C6 0001                            LNJ,B4   1,B6
     1056    10568
     1057    10569    2   END RECOVERY;
     1058    10570
     1059    10571    1   END KJF$FIX;
     1060    10572        %EOD;

PL6.E3A0      #005=KJF$FIX File=KJF$FEI.:E05TSI                                  WED 07/30/97 00:49 Page:205
--  Include file information  --

   K_SCODE_C.:E05TOU  is referenced.
   KL_AFCN_C.:E05TOU  is referenced.
   KH$STT.:E05TOU  is referenced.
   KJ_MACRO_M.:E05TOU  is referenced.
   KL_MACRO_C.:E05TOU  is referenced.
   GH_HARDWARE_M.:E05TOU  is referenced.
   KNH_MACRO_C.:E05TOU  is referenced.
   G_LCP6_E.:E05TOU  is referenced.
   GT_LCP6_M.:E05TOU  is referenced.
   KI_CP6.:E05TOU  is referenced.
   GF_LCP6_M.:E05TOU  is referenced.
   GM_LCP6_M.:E05TOU  is referenced.
   GU_LCP6_M.:E05TOU  is referenced.
   GJ_LCP6_M.:E05TOU  is referenced.
   GH_LCP6_M.:E05TOU  is referenced.
   LCP_6.:E05TOU  cannot be made into a system file and is referenced.
   KJ_FCNS_C.:E05TOU  is referenced.
   KJ_DATA_R.:E05TOU  cannot be made into a system file and is referenced.
      No diagnostics issued in procedure KJF$FIX.
PL6.E3A0      #005=KJF$FIX File=KJF$FEI.:E05TSI                                  WED 07/30/97 00:49 Page:206

 **** Variables and constants ****

  ****  Section 001 RoData KJF$FIX

  ****  Scalars and arrays  ****
HexLoc.c.b A Datatyp(siz) R M Lvl/name                 HexLoc.c.b A Datatyp(siz) R M Lvl/name

     0-0-0/b BIT (16)    r     1 HARDWARE_STATUS1           1-0-0/b BIT (16)    r     1 HARDWARE_STATUS2
     2-0-0/b BIT (16)    r     1 SOFTWARE_STATUS1           3-0-0/b BIT (16)    r     1 SOFTWARE_STATUS2

  ****  Section 002  Data  KJF$FIX

  ****  Scalars and arrays  ****
HexLoc.c.b A Datatyp(siz) R M Lvl/name                 HexLoc.c.b A Datatyp(siz) R M Lvl/name

     0-0-0/w STRC(32)    r     1 GH_IO

  ****  Auto variables  ****

  ****  Scalars and arrays  ****
HexLoc.c.b A Datatyp(siz) R M Lvl/name                 HexLoc.c.b A Datatyp(siz) R M Lvl/name

     4-0-0/w PTR         r     1 @STATUS1                   6-0-0/w PTR         r     1 @STATUS2
     8-0-0/w PTR         r     1 DCW$                      *0-0-0/w STRC(16)    r     1 STATUS1
    *0-0-0/w STRC(16)    r     1 STATUS2

  ****  SYMREF variables  ****

  ****  Scalars and arrays  ****
HexLoc.c.b A Datatyp(siz) R M Lvl/name                 HexLoc.c.b A Datatyp(siz) R M Lvl/name

     0-0-0/w STRC(48)    r     1 CPLR_IO                    0-0-0/w PTR         r     1 G$HAND_Q$
     0-0-0/w STRC(48)    r     1 HOSTABRT                   0-0-0/w STRC(48)    r     1 HOSTBADMSG
     0-0-0/w STRC(48)    r     1 HOSTFLT                    0-0-0/w STRC(48)    r     1 HOSTOREQ
     0-0-0/w STRC(48)    r     1 HOSTTO                     0-0-0/w PTR         r     1 KJ_CTX$
     0-0-0/w STRC(96)    r     1 KJ_DCW_DTL66L6             0-0-0/w STRC(96)    r     1 KJ_DCW_DTL6L66
     0-0-0/w STRC(96)    r     1 KJ_DCW_JUMP                0-0-0/w STRC(32)    r     1 KJ_GH_IO_INIT
PL6.E3A0      #005=KJF$FIX File=KJF$FEI.:E05TSI                                  WED 07/30/97 00:49 Page:207
     0-0-0/w UBIN(16)    r     1 KJ_LDCTX                   0-0-0/w STRC(864)   r     1 KJ_STATS
     0-0-0/c STRC(128)   r     1 KJ_TERM_MSG                0-0-0/w STRC(288)   r     1 KJ_WRT_TERM

  ****  BASED and DCB variables  ****

  ****  Scalars and arrays  ****
HexLoc.c.b A Datatyp(siz) R M Lvl/name                 HexLoc.c.b A Datatyp(siz) R M Lvl/name

     0-0-0/w STRC(3680)  r     1 KJ$CTX                     0-0-0/w STRC(96)    r     1 KJ$DCW
     0-0-0/w STRC(384)   r     1 KNH$QHDR


   Procedure KJF$FIX requires 452 words for executable code.
   Procedure KJF$FIX requires 16 words of local(AUTO) storage.
PL6.E3A0      #005=KJF$FIX File=KJF$FEI.:E05TSI                                  WED 07/30/97 00:49 Page:208
          *** CROSS REFERENCE LISTING ***
**     DENOTES     IDENTIFIER DEFINITION
<<                 IDENTIFIER'S VALUE SET
>>                 IDENTIFIER'S VALUE USED
<>                 IDENTIFIER SET AND/OR USED
--                 IDENTIFIER REFERENCED
PL6.E3A0      #005=KJF$FIX File=KJF$FEI.:E05TSI                                  WED 07/30/97 00:49 Page:209
          MINI XREF LISTING

CPLR_IO
      9789**DCL     10360<>CALL
DCW$
     10307**DCL     10432<<ASSIGN  10442>>ASSIGN  10448>>ASSIGN  10451>>ASSIGN  10454>>ASSIGN  10457>>ASSIGN
     10459<<ASSIGN  10459>>ASSIGN  10468>>ASSIGN  10477>>ASSIGN  10480>>ASSIGN  10483>>ASSIGN  10485<<ASSIGN
     10485>>ASSIGN  10494>>ASSIGN  10495>>ASSIGN  10509<<ASSIGN  10509>>ASSIGN
G$HAND_Q$
      9027**DCL     10327--IMP-PTR 10457>>ASSIGN  10483>>ASSIGN  10559>>ASSIGN  10560>>ASSIGN
GH_IO
     10319**DCL     10535<<ASSIGN  10538<>CALL
GH_IO.CAS.CHN
     10319**DCL     10319--REDEF   10536<<ASSIGN
GH_IO.CAS.FNC
     10320**DCL     10537<<ASSIGN
GH_IO.DAS
     10320**DCL     10321--REDEF   10322--REDEF
GH_IO.RANGE
     10321**DCL     10542>>IF
HARDWARE_STATUS1
     10286**DCL     10344>>IF
HARDWARE_STATUS2
     10292**DCL     10344>>IF
HOSTABRT
      9972**DCL     10381<>CALL
HOSTBADMSG
     10216**DCL     10398<>CALL
HOSTFLT
     10094**DCL     10407<>CALL
HOSTOREQ
     10155**DCL     10416<>CALL
HOSTTO
     10033**DCL     10389<>CALL
PL6.E3A0      #005=KJF$FIX File=KJF$FEI.:E05TSI                                  WED 07/30/97 00:49 Page:210
KJ$CTX.CHAN0
      9038**DCL     10536>>ASSIGN
KJ$CTX.CURRENT_FUNCTION
      9032**DCL     10425>>IF      10512<<ASSIGN  10528>>IF      10566<<ASSIGN
KJ$CTX.DCWS
      9063**DCL     10432--ASSIGN  10542--IF      10544<<ASSIGN
KJ$CTX.HOST_NODE
      9038**DCL     10483--ASSIGN
KJ$CTX.ICQ.IPTR
      9039**DCL     10561<<ASSIGN
KJ$CTX.ICQ.RPTR
      9039**DCL     10562<<ASSIGN
KJ$CTX.OCQ.IPTR
      9041**DCL     10563<<ASSIGN
KJ$CTX.OCQ.RPTR
      9041**DCL     10564<<ASSIGN
KJ$CTX.OCQ.SIZE
      9041**DCL     10457--ASSIGN
KJ$CTX.PTR_DCW
      9103**DCL     10542--IF
KJ$CTX.STATE
      9027**DCL     10362>>IF      10516<<ASSIGN  10553>>IF      10565<<ASSIGN
KJ$DCW
      8902**DCL     10442<<ASSIGN  10459--ASSIGN  10468<<ASSIGN  10485--ASSIGN  10494<<ASSIGN  10509--ASSIGN
KJ$DCW.L66A
      8925**DCL     10454<<ASSIGN  10480<<ASSIGN
KJ$DCW.L6A
      8926**DCL     10457<<ASSIGN  10483<<ASSIGN
KJ$DCW.MODE
      8918**DCL     10448<<ASSIGN
KJ$DCW.OPERATION
      8913**DCL     10495<<ASSIGN
KJ$DCW.TALLY
      8923**DCL     10451<<ASSIGN  10477<<ASSIGN
KJF$DATA
     10302**DCL-ENT 10427--CALL
PL6.E3A0      #005=KJF$FIX File=KJF$FEI.:E05TSI                                  WED 07/30/97 00:49 Page:211
KJF$DCWLIST
     10301**DCL-ENT 10514--CALL
KJF$IO_IN
     10304**DCL-ENT 10538--CALL
KJ_CTX$
      9027**DCL      9027--IMP-PTR 10362>>IF      10425>>IF      10432>>ASSIGN  10457>>ASSIGN  10483>>ASSIGN
     10512>>ASSIGN  10516>>ASSIGN  10528>>IF      10536>>ASSIGN  10542>>IF      10542>>IF      10544>>ASSIGN
     10553>>IF      10561>>ASSIGN  10562>>ASSIGN  10563>>ASSIGN  10564>>ASSIGN  10565>>ASSIGN  10566>>ASSIGN
KJ_DCW_DTL66L6
      8782**DCL     10442>>ASSIGN  10468>>ASSIGN
KJ_DCW_DTL6L66
      8822**DCL     10494>>ASSIGN
KJ_DCW_JUMP
      8862**DCL     10544>>ASSIGN
KJ_GH_IO_INIT
      9741**DCL     10535>>ASSIGN
KJ_GH_IO_INIT.CAS.CHN
      9741**DCL      9741--REDEF
KJ_GH_IO_INIT.DAS
      9742**DCL      9743--REDEF    9744--REDEF
KJ_GH_IO_INTL66.CAS.CHN
      9757**DCL      9757--REDEF
KJ_GH_IO_INTL66.DAS
      9758**DCL      9759--REDEF    9760--REDEF
KJ_INIT_MSG.FPT.RLCID.GENERATION
      9584**DCL      9585--REDEF
KJ_INIT_MSG.FPT.RLCID.LDCTX
      9585**DCL      9585--REDEF
KJ_INIT_MSG.FPT.TERMINAL_ID.TERM
      9573**DCL      9582--REDEF
KJ_INIT_MSG.FUNCTION
      9498**DCL      9498--REDEF
KJ_INIT_MSG.UID
      9528**DCL      9528--REDEF    9528--REDEF
KJ_IOLD_BARR.CHN
      9711**DCL      9711--REDEF
PL6.E3A0      #005=KJF$FIX File=KJF$FEI.:E05TSI                                  WED 07/30/97 00:49 Page:212
KJ_IOLD_DCWLIST.CHN
      9726**DCL      9726--REDEF
KJ_LDCTX
      9127**DCL     10557>>ASSIGN
KJ_STATS.DCW_ABRT
      9469**DCL     10532<<ASSIGN  10532>>ASSIGN
KJ_STATS.REQSTATS.DSPMSK
      9390**DCL      9396--REDEF
KJ_STATS.REQSTATS.SLCMSK
      9431**DCL      9438--REDEF
KJ_TERM_MSG.FUNCTION
      9616**DCL      9616--REDEF
KJ_TERM_MSG.LDCTX
      9621**DCL     10557<<ASSIGN
KJ_TERM_MSG.UID
      9646**DCL      9646--REDEF    9646--REDEF
KJ_WRT_TERM
      9689**DCL     10558<>CALL
KNH$QHDR.RCQ
     10327**DCL     10327--REDEF
KNH$QHDR.SCQ.IPTR
     10328**DCL     10559<<ASSIGN
KNH$QHDR.SCQ.RPTR
     10328**DCL     10560<<ASSIGN
M$SCREECH
      4284**DCL-ENT 10360--CALL    10381--CALL    10389--CALL    10398--CALL    10407--CALL    10416--CALL
M$WRITE
      4305**DCL-ENT 10558--CALL
RECOVERY
     10551**PROC    10367--CALL    10378--CALL    10431--CALL
RETRY
     10527**PROC    10350--CALL    10521--CALL
SOFTWARE_STATUS1
     10293**DCL     10355>>IF
SOFTWARE_STATUS2
     10294**DCL     10355>>IF
PL6.E3A0      #005=KJF$FIX File=KJF$FEI.:E05TSI                                  WED 07/30/97 00:49 Page:213
STATUS1
     10253**DCL         6--PROC    10344>>IF      10355>>IF
STATUS1.ATT
     10255**DCL     10348>>IF      10519>>IF
STATUS1.CNOP
     10259**DCL     10365>>IF
STATUS1.MY
     10266**DCL     10370>>IF
STATUS1.TT
     10264**DCL     10362>>IF
STATUS2
     10272**DCL         6--PROC    10344>>IF      10355>>IF
STATUS2.IL6PARM
     10283**DCL     10375>>DOCASE

PL6.E3A0      #006=KJF$IO File=KJF$FEI.:E05TSI                                   WED 07/30/97 00:50 Page:214
     1061        1        /*T***********************************************************/
     1062        2        /*T*                                                         */
     1063        3        /*T* Copyright (c) Bull HN Information Systems Inc., 1997    */
     1064        4        /*T*                                                         */
     1065        5        /*T***********************************************************/
     1066        6        KJF$IO: PROC(GH_IO) ALTRET;
     1067        7
     1068        8        %INCLUDE KJ_DATA_R;
     1069    10249
     1070    10250        /* Parameter definitions */
     1071    10251        %GH_IO(STCLASS="");
     1072    10267
     1073    10268        /* Entry point references */
     1074    10269    1   DCL GHH$IO ENTRY(1) ALTRET;
     1075    10270    1   DCL GHH$IO_IN ENTRY(1) ALTRET;
     1076    10271
     1077    10272        /* Local */
     1078    10273
     1079    10274    2        DO WHILE ('1'B);
     1080    10275    3             CALL GHH$IO (GH_IO) WHENRETURN DO;
     1081    10276    3                  RETURN;
     1082    10277    3                END;
     1083    10278    2           END;
     1084    10279
     1085    10280    1   KJF$IO_IN: ENTRY (GH_IO) ALTRET;
     1086    10281
     1087    10282    2        DO WHILE ('1'B);
     1088    10283    3             CALL GHH$IO_IN (GH_IO) WHENRETURN DO;
     1089    10284    3                  RETURN;
     1090    10285    3                END;
     1091    10286    2           END;
     1092    10287    1   END KJF$IO;
     1093    10288        %EOD;

PL6.E3A0      #006=KJF$IO File=KJF$FEI.:E05TSI                                   WED 07/30/97 00:50 Page:215
--  Include file information  --

   K_SCODE_C.:E05TOU  is referenced.
   KL_AFCN_C.:E05TOU  is referenced.
   KH$STT.:E05TOU  is referenced.
   KJ_MACRO_M.:E05TOU  is referenced.
   KL_MACRO_C.:E05TOU  is referenced.
   GH_HARDWARE_M.:E05TOU  is referenced.
   KNH_MACRO_C.:E05TOU  is referenced.
   G_LCP6_E.:E05TOU  is referenced.
   GT_LCP6_M.:E05TOU  is referenced.
   KI_CP6.:E05TOU  is referenced.
   GF_LCP6_M.:E05TOU  is referenced.
   GM_LCP6_M.:E05TOU  is referenced.
   GU_LCP6_M.:E05TOU  is referenced.
   GJ_LCP6_M.:E05TOU  is referenced.
   GH_LCP6_M.:E05TOU  is referenced.
   LCP_6.:E05TOU  cannot be made into a system file and is referenced.
   KJ_FCNS_C.:E05TOU  is referenced.
   KJ_DATA_R.:E05TOU  cannot be made into a system file and is referenced.
      No diagnostics issued in procedure KJF$IO.

   Procedure KJF$IO requires 34 words for executable code.
   Procedure KJF$IO requires 6 words of local(AUTO) storage.

PL6.E3A0      #006=KJF$IO File=KJF$FEI.:E05TSI                                   WED 07/30/97 00:50 Page:216

 Object Unit name= KJF$IO                                     File name= KJF$FEI.:E05TOU
 UTS= JUL 30 '97 00:50:35.64 WED                              Compiler= PL-6/E31         Sev=      00
 SharedLib= :SHARED_LCP6_SYSTEM                               Alt SharedLib=


    ****  Control sections  ****

 Sect   Type Bound  Init  Size HexSiz  Section name
    0   DCB   even  none     0      0  M$CQ
    1   Proc  even  none    34     22  KJF$IO

    ****  Entry defs  ****

                              Check   Calling
                             calling  sequence
  Sect HexLoc Primary Altret sequence   type   Parms  Name
     1      0   yes    yes     yes      Std        1  KJF$IO
     1     11          yes     yes      Std        1  KJF$IO_IN

  ****  Entry refs  ****

         Check        Calling
        calling       sequence
Altret sequence SRef   type   Args  Name
 yes     yes           Std       1 GHH$IO
 yes     yes           Std       1 GHH$IO_IN
                       nStd      0 X6A_AUTO_1
                       nStd      0 X6A_ARET

  ****  Data refs  ****

  Flags:  r = read only, s = secondary
Flgs Name                             Flgs Name                             Flgs Name
     M$CQ                                  KJ_CTX$                          r    G$ROS$
PL6.E3A0      #006=KJF$IO File=KJF$FEI.:E05TSI                                   WED 07/30/97 00:50 Page:217


     1061        1        /*T***********************************************************/
     1062        2        /*T*                                                         */
     1063        3        /*T* Copyright (c) Bull HN Information Systems Inc., 1997    */
     1064        4        /*T*                                                         */
     1065        5        /*T***********************************************************/
     1066        6        KJF$IO: PROC(GH_IO) ALTRET;

      6   1 000000  D380 0000 0000  xent KJF$IO          LNJ,B5   X6A_AUTO_1
          1 000003       0006 0001                       DC       6,1

     1067        7
     1068        8        %INCLUDE KJ_DATA_R;
     1069    10249
     1070    10250        /* Parameter definitions */
     1071    10251        %GH_IO(STCLASS="");
     1072    10267
     1073    10268        /* Entry point references */
     1074    10269    1   DCL GHH$IO ENTRY(1) ALTRET;
     1075    10270    1   DCL GHH$IO_IN ENTRY(1) ALTRET;
     1076    10271
     1077    10272        /* Local */
     1078    10273
     1079    10274    2        DO WHILE ('1'B);

     1080    10275    3             CALL GHH$IO (GH_IO) WHENRETURN DO;

  10275   1 000005  BBC7 0004                            LAB,B3   @GH_IO,AUTO
          1 000007  CBF0 0100                            LAB,B4   256,IMO
          1 000009  E380 0000 0000  xent                 LNJ,B6   GHH$IO
          1 00000C       0004                            DC       s:10278,PREL

     1081    10276    3                  RETURN;

  10276   1 00000D  C380 0000 0000  xent                 LNJ,B4   X6A_ARET

     1082    10277    3                END;
PL6.E3A0      #006=KJF$IO File=KJF$FEI.:E05TSI                                   WED 07/30/97 00:50 Page:218
     1083    10278    2           END;

  10278   1 000010  0FF5                                 B        s:10275,SPREL

     1084    10279
     1085    10280    1   KJF$IO_IN: ENTRY (GH_IO) ALTRET;

  10280   1 000011  D380 0000 0000  xent KJF$IO_IN       LNJ,B5   X6A_AUTO_1
          1 000014       0006 0001                       DC       6,1

     1086    10281
     1087    10282    2        DO WHILE ('1'B);

     1088    10283    3             CALL GHH$IO_IN (GH_IO) WHENRETURN DO;

  10283   1 000016  BBC7 0004                            LAB,B3   @GH_IO,AUTO
          1 000018  CBF0 0100                            LAB,B4   256,IMO
          1 00001A  E380 0000 0000  xent                 LNJ,B6   GHH$IO_IN
          1 00001D       0004                            DC       s:10286,PREL

     1089    10284    3                  RETURN;

  10284   1 00001E  C380 0000 0000  xent                 LNJ,B4   X6A_ARET

     1090    10285    3                END;
     1091    10286    2           END;

  10286   1 000021  0FF5                                 B        s:10283,SPREL
     1092    10287    1   END KJF$IO;
     1093    10288        %EOD;

PL6.E3A0      #006=KJF$IO File=KJF$FEI.:E05TSI                                   WED 07/30/97 00:50 Page:219
--  Include file information  --

   K_SCODE_C.:E05TOU  is referenced.
   KL_AFCN_C.:E05TOU  is referenced.
   KH$STT.:E05TOU  is referenced.
   KJ_MACRO_M.:E05TOU  is referenced.
   KL_MACRO_C.:E05TOU  is referenced.
   GH_HARDWARE_M.:E05TOU  is referenced.
   KNH_MACRO_C.:E05TOU  is referenced.
   G_LCP6_E.:E05TOU  is referenced.
   GT_LCP6_M.:E05TOU  is referenced.
   KI_CP6.:E05TOU  is referenced.
   GF_LCP6_M.:E05TOU  is referenced.
   GM_LCP6_M.:E05TOU  is referenced.
   GU_LCP6_M.:E05TOU  is referenced.
   GJ_LCP6_M.:E05TOU  is referenced.
   GH_LCP6_M.:E05TOU  is referenced.
   LCP_6.:E05TOU  cannot be made into a system file and is referenced.
   KJ_FCNS_C.:E05TOU  is referenced.
   KJ_DATA_R.:E05TOU  cannot be made into a system file and is referenced.
      No diagnostics issued in procedure KJF$IO.
PL6.E3A0      #006=KJF$IO File=KJF$FEI.:E05TSI                                   WED 07/30/97 00:50 Page:220

 **** Variables and constants ****

  ****  Auto variables  ****

  ****  Scalars and arrays  ****
HexLoc.c.b A Datatyp(siz) R M Lvl/name                 HexLoc.c.b A Datatyp(siz) R M Lvl/name

     4-0-0/w PTR         r     1 @GH_IO                    *0-0-0/w STRC(32)    r     1 GH_IO

  ****  SYMREF variables  ****

  ****  Scalars and arrays  ****
HexLoc.c.b A Datatyp(siz) R M Lvl/name                 HexLoc.c.b A Datatyp(siz) R M Lvl/name

     0-0-0/w PTR         r     1 KJ_CTX$


   Procedure KJF$IO requires 34 words for executable code.
   Procedure KJF$IO requires 6 words of local(AUTO) storage.
PL6.E3A0      #006=KJF$IO File=KJF$FEI.:E05TSI                                   WED 07/30/97 00:50 Page:221
          *** CROSS REFERENCE LISTING ***
**     DENOTES     IDENTIFIER DEFINITION
<<                 IDENTIFIER'S VALUE SET
>>                 IDENTIFIER'S VALUE USED
<>                 IDENTIFIER SET AND/OR USED
--                 IDENTIFIER REFERENCED
PL6.E3A0      #006=KJF$IO File=KJF$FEI.:E05TSI                                   WED 07/30/97 00:50 Page:222
          MINI XREF LISTING

GHH$IO
     10269**DCL-ENT 10275--CALL
GHH$IO_IN
     10270**DCL-ENT 10283--CALL
GH_IO
     10262**DCL         6--PROC    10275<>CALL    10280--ENTRY   10283<>CALL
GH_IO.CAS.CHN
     10262**DCL     10262--REDEF
GH_IO.DAS
     10263**DCL     10264--REDEF   10265--REDEF
KJ_CTX$
      9026**DCL      9026--IMP-PTR
KJ_GH_IO_INIT.CAS.CHN
      9740**DCL      9740--REDEF
KJ_GH_IO_INIT.DAS
      9741**DCL      9742--REDEF    9743--REDEF
KJ_GH_IO_INTL66.CAS.CHN
      9756**DCL      9756--REDEF
KJ_GH_IO_INTL66.DAS
      9757**DCL      9758--REDEF    9759--REDEF
KJ_INIT_MSG.FPT.RLCID.GENERATION
      9583**DCL      9584--REDEF
KJ_INIT_MSG.FPT.RLCID.LDCTX
      9584**DCL      9584--REDEF
KJ_INIT_MSG.FPT.TERMINAL_ID.TERM
      9572**DCL      9581--REDEF
KJ_INIT_MSG.FUNCTION
      9497**DCL      9497--REDEF
KJ_INIT_MSG.UID
      9527**DCL      9527--REDEF    9527--REDEF
KJ_IOLD_BARR.CHN
      9710**DCL      9710--REDEF
PL6.E3A0      #006=KJF$IO File=KJF$FEI.:E05TSI                                   WED 07/30/97 00:50 Page:223
KJ_IOLD_DCWLIST.CHN
      9725**DCL      9725--REDEF
KJ_STATS.REQSTATS.DSPMSK
      9389**DCL      9395--REDEF
KJ_STATS.REQSTATS.SLCMSK
      9430**DCL      9437--REDEF
KJ_TERM_MSG.FUNCTION
      9615**DCL      9615--REDEF
KJ_TERM_MSG.UID
      9645**DCL      9645--REDEF    9645--REDEF

PL6.E3A0      #007=KJF$DCWLIST File=KJF$FEI.:E05TSI                              WED 07/30/97 00:51 Page:224
     1094        1        /*T***********************************************************/
     1095        2        /*T*                                                         */
     1096        3        /*T* Copyright (c) Bull HN Information Systems Inc., 1997    */
     1097        4        /*T*                                                         */
     1098        5        /*T***********************************************************/
     1099        6        KJF$DCWLIST: PROC;
     1100        7
     1101        8        %INCLUDE KJ_DATA_R;
     1102    10249
     1103    10250
     1104    10251        /* Entry references */
     1105    10252    1   DCL GHH$IOLD ENTRY(1) ALTRET;
     1106    10253    1   DCL KJF$FIX ENTRY(2) ALTRET;
     1107    10254    1   DCL KJF$GETSTATUS ENTRY ALTRET;
     1108    10255
     1109    10256        /* Begin program */
     1110    10257
     1111    10258    1        CALL KJF$GETSTATUS;
     1112    10259    1        IF KJ$CTX.STATUS1 ~= %KJ_STATUS_DR
     1113    10260    1        THEN
     1114    10261    1             CALL KJF$FIX (KJ$CTX.STATUS1,KJ$CTX.STATUS2);
     1115    10262
     1116    10263    2        DO WHILE ('1'B);
     1117    10264    3             CALL GHH$IOLD (KJ_IOLD_BARR) WHENRETURN DO;
     1118    10265    4                  CALL GHH$IOLD(KJ_IOLD_DCWLIST) WHENRETURN DO;
     1119    10266    4                       RETURN;
     1120    10267    4                     END;
     1121    10268    3                END;
     1122    10269
     1123    10270    2             CALL KJF$GETSTATUS;
     1124    10271    2             CALL KJF$FIX(KJ$CTX.STATUS1,KJ$CTX.STATUS2);
     1125    10272    2           END;
     1126    10273
     1127    10274    1   END KJF$DCWLIST;
     1128    10275        %EOD;

PL6.E3A0      #007=KJF$DCWLIST File=KJF$FEI.:E05TSI                              WED 07/30/97 00:51 Page:225
--  Include file information  --

   K_SCODE_C.:E05TOU  is referenced.
   KL_AFCN_C.:E05TOU  is referenced.
   KH$STT.:E05TOU  is referenced.
   KJ_MACRO_M.:E05TOU  is referenced.
   KL_MACRO_C.:E05TOU  is referenced.
   GH_HARDWARE_M.:E05TOU  is referenced.
   KNH_MACRO_C.:E05TOU  is referenced.
   G_LCP6_E.:E05TOU  is referenced.
   GT_LCP6_M.:E05TOU  is referenced.
   KI_CP6.:E05TOU  is referenced.
   GF_LCP6_M.:E05TOU  is referenced.
   GM_LCP6_M.:E05TOU  is referenced.
   GU_LCP6_M.:E05TOU  is referenced.
   GJ_LCP6_M.:E05TOU  is referenced.
   GH_LCP6_M.:E05TOU  is referenced.
   LCP_6.:E05TOU  cannot be made into a system file and is referenced.
   KJ_FCNS_C.:E05TOU  is referenced.
   KJ_DATA_R.:E05TOU  cannot be made into a system file and is referenced.
      No diagnostics issued in procedure KJF$DCWLIST.

   Procedure KJF$DCWLIST requires 83 words for executable code.
   Procedure KJF$DCWLIST requires 8 words of local(AUTO) storage.

PL6.E3A0      #007=KJF$DCWLIST File=KJF$FEI.:E05TSI                              WED 07/30/97 00:51 Page:226

 Object Unit name= KJF$DCWLIST                                File name= KJF$FEI.:E05TOU
 UTS= JUL 30 '97 00:51:22.60 WED                              Compiler= PL-6/E31         Sev=      00
 SharedLib= :SHARED_LCP6_SYSTEM                               Alt SharedLib=


    ****  Control sections  ****

 Sect   Type Bound  Init  Size HexSiz  Section name
    0   DCB   even  none     0      0  M$CQ
    1   Proc  even  none    83     53  KJF$DCWLIST
    2  RoData even  none     4      4  KJF$DCWLIST

    ****  Entry defs  ****

                              Check   Calling
                             calling  sequence
  Sect HexLoc Primary Altret sequence   type   Parms  Name
     1      0   yes            yes      Std        0  KJF$DCWLIST

  ****  Entry refs  ****

         Check        Calling
        calling       sequence
Altret sequence SRef   type   Args  Name
 yes     yes           Std       0 KJF$GETSTATUS
 yes     yes           Std       2 KJF$FIX
 yes     yes           Std       1 GHH$IOLD
                       nStd      0 X6A_AUTO_0
                       nStd      0 X6A_ARET

  ****  Data refs  ****

  Flags:  r = read only, s = secondary
Flgs Name                             Flgs Name                             Flgs Name
     M$CQ                                  KJ_CTX$                               KJ_IOLD_BARR
     KJ_IOLD_DCWLIST                  r    G$ROS$
PL6.E3A0      #007=KJF$DCWLIST File=KJF$FEI.:E05TSI                              WED 07/30/97 00:51 Page:227


     1094        1        /*T***********************************************************/
     1095        2        /*T*                                                         */
     1096        3        /*T* Copyright (c) Bull HN Information Systems Inc., 1997    */
     1097        4        /*T*                                                         */
     1098        5        /*T***********************************************************/
     1099        6        KJF$DCWLIST: PROC;

      6   1 000000  D380 0000 0000  xent KJF$DCWLIST     LNJ,B5   X6A_AUTO_0
          1 000003       0008 0000                       DC       8,0

     1100        7
     1101        8        %INCLUDE KJ_DATA_R;
     1102    10249
     1103    10250
     1104    10251        /* Entry references */
     1105    10252    1   DCL GHH$IOLD ENTRY(1) ALTRET;
     1106    10253    1   DCL KJF$FIX ENTRY(2) ALTRET;
     1107    10254    1   DCL KJF$GETSTATUS ENTRY ALTRET;
     1108    10255
     1109    10256        /* Begin program */
     1110    10257
     1111    10258    1        CALL KJF$GETSTATUS;

  10258   1 000005  CBF0 0000                            LAB,B4   0,IMO
          1 000007  E380 0000 0000  xent                 LNJ,B6   KJF$GETSTATUS
          1 00000A       0001                            DC       s:10259,PREL

     1112    10259    1        IF KJ$CTX.STATUS1 ~= %KJ_STATUS_DR

  10259   1 00000B  EC80 0000 0000  xsym                 LDB,B6   KJ_CTX$
          1 00000E  E846 0005                            LDR,R6   5,B6
          1 000010  E970 8000                            CMR,R6   -32768,IMO
          1 000012  0901 0011                            BE       s:10264,PREL

     1113    10260    1        THEN
     1114    10261    1             CALL KJF$FIX (KJ$CTX.STATUS1,KJ$CTX.STATUS2);
PL6.E3A0      #007=KJF$DCWLIST File=KJF$FEI.:E05TSI                              WED 07/30/97 00:51 Page:228

  10261   1 000014  DBC6 0006                            LAB,B5   6,B6
          1 000016  DFC7 0006                            STB,B5   +6,AUTO
          1 000018  CBC6 0005                            LAB,B4   5,B6
          1 00001A  CFC7 0004                            STB,B4   +4,AUTO
          1 00001C  BBC7 0004                            LAB,B3   +4,AUTO
          1 00001E  CBF0 0200                            LAB,B4   512,IMO
          1 000020  E380 0000 0000  xent                 LNJ,B6   KJF$FIX
          1 000023       0001                            DC       s:10264,PREL

     1115    10262
     1116    10263    2        DO WHILE ('1'B);

     1117    10264    3             CALL GHH$IOLD (KJ_IOLD_BARR) WHENRETURN DO;

  10264   1 000024  BB80 0000 0000  02                   LAB,B3   0
          1 000027  CBF0 0100                            LAB,B4   256,IMO
          1 000029  E380 0000 0000  xent                 LNJ,B6   GHH$IOLD
          1 00002C       000D                            DC       s:10270,PREL

     1118    10265    4                  CALL GHH$IOLD(KJ_IOLD_DCWLIST) WHENRETURN DO;

  10265   1 00002D  BB80 0000 0002  02                   LAB,B3   +2
          1 000030  CBF0 0100                            LAB,B4   256,IMO
          1 000032  E380 0000 0000  xent                 LNJ,B6   GHH$IOLD
          1 000035       0004                            DC       s:10270,PREL

     1119    10266    4                       RETURN;

  10266   1 000036  C380 0000 0000  xent                 LNJ,B4   X6A_ARET

     1120    10267    4                     END;
     1121    10268    3                END;

     1122    10269
     1123    10270    2             CALL KJF$GETSTATUS;

PL6.E3A0      #007=KJF$DCWLIST File=KJF$FEI.:E05TSI                              WED 07/30/97 00:51 Page:229
  10270   1 000039  CBF0 0000                            LAB,B4   0,IMO
          1 00003B  E380 0000 0000  xent                 LNJ,B6   KJF$GETSTATUS
          1 00003E       0001                            DC       s:10271,PREL

     1124    10271    2             CALL KJF$FIX(KJ$CTX.STATUS1,KJ$CTX.STATUS2);

  10271   1 00003F  EC80 0000 0000  xsym                 LDB,B6   KJ_CTX$
          1 000042  DBC6 0006                            LAB,B5   6,B6
          1 000044  DFC7 0006                            STB,B5   +6,AUTO
          1 000046  CBC6 0005                            LAB,B4   5,B6
          1 000048  CFC7 0004                            STB,B4   +4,AUTO
          1 00004A  BBC7 0004                            LAB,B3   +4,AUTO
          1 00004C  CBF0 0200                            LAB,B4   512,IMO
          1 00004E  E380 0000 0000  xent                 LNJ,B6   KJF$FIX
          1 000051       0001                            DC       s:10272,PREL

     1125    10272    2           END;

  10272   1 000052  0FD2                                 B        s:10264,SPREL
     1126    10273
     1127    10274    1   END KJF$DCWLIST;
     1128    10275        %EOD;

PL6.E3A0      #007=KJF$DCWLIST File=KJF$FEI.:E05TSI                              WED 07/30/97 00:51 Page:230
--  Include file information  --

   K_SCODE_C.:E05TOU  is referenced.
   KL_AFCN_C.:E05TOU  is referenced.
   KH$STT.:E05TOU  is referenced.
   KJ_MACRO_M.:E05TOU  is referenced.
   KL_MACRO_C.:E05TOU  is referenced.
   GH_HARDWARE_M.:E05TOU  is referenced.
   KNH_MACRO_C.:E05TOU  is referenced.
   G_LCP6_E.:E05TOU  is referenced.
   GT_LCP6_M.:E05TOU  is referenced.
   KI_CP6.:E05TOU  is referenced.
   GF_LCP6_M.:E05TOU  is referenced.
   GM_LCP6_M.:E05TOU  is referenced.
   GU_LCP6_M.:E05TOU  is referenced.
   GJ_LCP6_M.:E05TOU  is referenced.
   GH_LCP6_M.:E05TOU  is referenced.
   LCP_6.:E05TOU  cannot be made into a system file and is referenced.
   KJ_FCNS_C.:E05TOU  is referenced.
   KJ_DATA_R.:E05TOU  cannot be made into a system file and is referenced.
      No diagnostics issued in procedure KJF$DCWLIST.
PL6.E3A0      #007=KJF$DCWLIST File=KJF$FEI.:E05TSI                              WED 07/30/97 00:51 Page:231

 **** Variables and constants ****

  ****  SYMREF variables  ****

  ****  Scalars and arrays  ****
HexLoc.c.b A Datatyp(siz) R M Lvl/name                 HexLoc.c.b A Datatyp(siz) R M Lvl/name

     0-0-0/w PTR         r     1 KJ_CTX$                    0-0-0/w STRC(80)    r     1 KJ_IOLD_BARR
     0-0-0/w STRC(80)    r     1 KJ_IOLD_DCWLIST

  ****  BASED and DCB variables  ****

  ****  Scalars and arrays  ****
HexLoc.c.b A Datatyp(siz) R M Lvl/name                 HexLoc.c.b A Datatyp(siz) R M Lvl/name

     0-0-0/w STRC(3680)  r     1 KJ$CTX


   Procedure KJF$DCWLIST requires 83 words for executable code.
   Procedure KJF$DCWLIST requires 8 words of local(AUTO) storage.
PL6.E3A0      #007=KJF$DCWLIST File=KJF$FEI.:E05TSI                              WED 07/30/97 00:51 Page:232
          *** CROSS REFERENCE LISTING ***
**     DENOTES     IDENTIFIER DEFINITION
<<                 IDENTIFIER'S VALUE SET
>>                 IDENTIFIER'S VALUE USED
<>                 IDENTIFIER SET AND/OR USED
--                 IDENTIFIER REFERENCED
PL6.E3A0      #007=KJF$DCWLIST File=KJF$FEI.:E05TSI                              WED 07/30/97 00:51 Page:233
          MINI XREF LISTING

GHH$IOLD
     10252**DCL-ENT 10264--CALL    10265--CALL
KJ$CTX.STATUS1
      9037**DCL     10259>>IF      10261<>CALL    10271<>CALL
KJ$CTX.STATUS2
      9037**DCL     10261<>CALL    10271<>CALL
KJF$FIX
     10253**DCL-ENT 10261--CALL    10271--CALL
KJF$GETSTATUS
     10254**DCL-ENT 10258--CALL    10270--CALL
KJ_CTX$
      9026**DCL      9026--IMP-PTR 10259>>IF      10261>>CALL    10261>>CALL    10271>>CALL    10271>>CALL
KJ_GH_IO_INIT.CAS.CHN
      9740**DCL      9740--REDEF
KJ_GH_IO_INIT.DAS
      9741**DCL      9742--REDEF    9743--REDEF
KJ_GH_IO_INTL66.CAS.CHN
      9756**DCL      9756--REDEF
KJ_GH_IO_INTL66.DAS
      9757**DCL      9758--REDEF    9759--REDEF
KJ_INIT_MSG.FPT.RLCID.GENERATION
      9583**DCL      9584--REDEF
KJ_INIT_MSG.FPT.RLCID.LDCTX
      9584**DCL      9584--REDEF
KJ_INIT_MSG.FPT.TERMINAL_ID.TERM
      9572**DCL      9581--REDEF
KJ_INIT_MSG.FUNCTION
      9497**DCL      9497--REDEF
KJ_INIT_MSG.UID
      9527**DCL      9527--REDEF    9527--REDEF
KJ_IOLD_BARR
      9710**DCL     10264<>CALL
PL6.E3A0      #007=KJF$DCWLIST File=KJF$FEI.:E05TSI                              WED 07/30/97 00:51 Page:234
KJ_IOLD_BARR.CHN
      9710**DCL      9710--REDEF
KJ_IOLD_DCWLIST
      9725**DCL     10265<>CALL
KJ_IOLD_DCWLIST.CHN
      9725**DCL      9725--REDEF
KJ_STATS.REQSTATS.DSPMSK
      9389**DCL      9395--REDEF
KJ_STATS.REQSTATS.SLCMSK
      9430**DCL      9437--REDEF
KJ_TERM_MSG.FUNCTION
      9615**DCL      9615--REDEF
KJ_TERM_MSG.UID
      9645**DCL      9645--REDEF    9645--REDEF

PL6.E3A0      #008=KJF$ADM File=KJF$FEI.:E05TSI                                  WED 07/30/97 00:52 Page:235
     1129        1        /*T***********************************************************/
     1130        2        /*T*                                                         */
     1131        3        /*T* Copyright (c) Bull HN Information Systems Inc., 1997    */
     1132        4        /*T*                                                         */
     1133        5        /*T***********************************************************/
     1134        6        KJF$ADM: PROC (KH$ADMIN_FPT) ALTRET;
     1135        7
     1136        8        /* Includes */
     1137        9        %INCLUDE KH_MACRO_C;
     1138      752        %INCLUDE KJ_DATA_R;
     1139    10993        %INCLUDE KH$CHN;
     1140    11115        %INCLUDE KHA_FNC_E;
     1141    11215        %INCLUDE KN_ERRORS_C;
     1142    11279        %INCLUDE K_ID_E;
     1143    11329        /*ent defs */
     1144    11330    1   DCL KHA$SNDSTT ENTRY(2) ALTRET;
     1145    11331    1   DCL KHC$XEQ2 ENTRY(1) ALTRET;
     1146    11332    1   DCL CURXEQTIM UBIN(32);
     1147    11333        /**/
     1148    11334        %KL_REQSTATS;
     1149    11628        %K#ENTID_E;
     1150    11647
     1151    11648
     1152    11649        /* Parameters */
     1153    11650        %KH$ADMIN_FPT (STCLASS="");
     1154    11861        %KH$CHN (STCLASS="BASED(CHN$)");
     1155    11985
     1156    11986    1   DCL CHN$ PTR;
     1157    11987
     1158    11988        %EJECT;
PL6.E3A0      #008=KJF$ADM File=KJF$FEI.:E05TSI                                  WED 07/30/97 00:52 Page:236
     1159    11989
     1160    11990    2        DO CASE (KH$ADMIN_FPT.FNC);
     1161    11991
     1162    11992    2        CASE (%KHA_FNC_ENABLE);
     1163    11993    2           IF KJ_CONTROL.CHAN ~= 0
     1164    11994    3           THEN DO;
     1165    11995    3                KH$ADMIN_FPT.RESULTS.ERR# = %E$ILGLTRANS;
     1166    11996    3                ALTRETURN;
     1167    11997    3              END;
     1168    11998    2           CHN$ = KH$ADMIN_FPT.CHN$;
     1169    11999    2           KJ_CONTROL.CHAN = KH$CHN.CHNBIT0_9 * 64;
     1170    12000
     1171    12001    2        CASE (%KHA_FNC_DISABLE,
     1172    12002    2                %KHA_FNC_KILL,
     1173    12003    2                %KHA_FNC_PARTITION,
     1174    12004    2                %KHA_FNC_DISCONNECT_RQS);
     1175    12005    2           KJ_CONTROL.CHAN = 0;
     1176    12006    2        CASE (%KHA_FNC_REQSTATS);
     1177    12007    2           CALL KHC$XEQ2(CURXEQTIM);
     1178    12008    2           KJ_STATS.SCHXEQTIM = CURXEQTIM - KJ_STATS.USRSTT.INPINTISATIM;
     1179    12009    2           IF KH$ADMIN_FPT.CTX$->KL_REQSTATS.SLCENT(%KH#ENTID_FEI) AND
     1180    12010    2                KH$ADMIN_FPT.CTX$->KL_REQSTATS.DSPENT(%KH#ENTID_FEI) THEN
     1181    12011    2                CALL KHA$SNDSTT(KH$ADMIN_FPT.CTX$->KL_REQSTATS,VECTOR(KJ_STATS));
     1182    12012    2        END;
     1183    12013    1        RETURN;
     1184    12014
     1185    12015    1   END KJF$ADM;

PL6.E3A0      #008=KJF$ADM File=KJF$FEI.:E05TSI                                  WED 07/30/97 00:52 Page:237
--  Include file information  --

   K_ID_E.:E05TOU  is referenced.
   KN_ERRORS_C.:E05TOU  is referenced.
   KHA_FNC_E.:E05TOU  is referenced.
   KH$CHN.:E05TOU  is referenced.
   K_SCODE_C.:E05TOU  is referenced.
   KL_AFCN_C.:E05TOU  is referenced.
   KH$STT.:E05TOU  is referenced.
   KJ_MACRO_M.:E05TOU  is referenced.
   KL_MACRO_C.:E05TOU  is referenced.
   GH_HARDWARE_M.:E05TOU  is referenced.
   KNH_MACRO_C.:E05TOU  is referenced.
   G_LCP6_E.:E05TOU  is referenced.
   GT_LCP6_M.:E05TOU  is referenced.
   KI_CP6.:E05TOU  is referenced.
   GF_LCP6_M.:E05TOU  is referenced.
   GM_LCP6_M.:E05TOU  is referenced.
   GU_LCP6_M.:E05TOU  is referenced.
   GJ_LCP6_M.:E05TOU  is referenced.
   GH_LCP6_M.:E05TOU  is referenced.
   LCP_6.:E05TOU  cannot be made into a system file and is referenced.
   KJ_FCNS_C.:E05TOU  is referenced.
   KJ_DATA_R.:E05TOU  cannot be made into a system file and is referenced.
   KH_MACRO_C.:E05TOU  is referenced.
      No diagnostics issued in procedure KJF$ADM.

   Procedure KJF$ADM requires 113 words for executable code.
   Procedure KJF$ADM requires 14 words of local(AUTO) storage.

    No errors detected in file KJF$FEI.:E05TSI    .

PL6.E3A0      #008=KJF$ADM File=KJF$FEI.:E05TSI                                  WED 07/30/97 00:52 Page:238

 Object Unit name= KJF$ADM                                    File name= KJF$FEI.:E05TOU
 UTS= JUL 30 '97 00:52:02.80 WED                              Compiler= PL-6/E31         Sev=      00
 SharedLib= :SHARED_LCP6_SYSTEM                               Alt SharedLib=


    ****  Control sections  ****

 Sect   Type Bound  Init  Size HexSiz  Section name
    0   DCB   even  none     0      0  M$CQ
    1   Proc  even  none   113     71  KJF$ADM
    2  RoData even  none     3      3  KJF$ADM

    ****  Entry defs  ****

                              Check   Calling
                             calling  sequence
  Sect HexLoc Primary Altret sequence   type   Parms  Name
     1      0   yes    yes     yes      Std        1  KJF$ADM

  ****  Entry refs  ****

         Check        Calling
        calling       sequence
Altret sequence SRef   type   Args  Name
 yes     yes           Std       1 KHC$XEQ2
 yes     yes           Std       2 KHA$SNDSTT
                       nStd      0 X6A_AUTO_1
                       nStd      0 X6A_AALT
                       nStd      0 X6A_ARET

  ****  Data refs  ****

  Flags:  r = read only, s = secondary
Flgs Name                             Flgs Name                             Flgs Name
     M$CQ                                  KJ_CTX$                               KJ_CONTROL
     KJ_STATS                         r    G$ROS$
PL6.E3A0      #008=KJF$ADM File=KJF$FEI.:E05TSI                                  WED 07/30/97 00:52 Page:239


     1129        1        /*T***********************************************************/
     1130        2        /*T*                                                         */
     1131        3        /*T* Copyright (c) Bull HN Information Systems Inc., 1997    */
     1132        4        /*T*                                                         */
     1133        5        /*T***********************************************************/
     1134        6        KJF$ADM: PROC (KH$ADMIN_FPT) ALTRET;

      6   1 000000  D380 0000 0000  xent KJF$ADM         LNJ,B5   X6A_AUTO_1
          1 000003       000E 0001                       DC       14,1

     1135        7
     1136        8        /* Includes */
     1137        9        %INCLUDE KH_MACRO_C;
     1138      752        %INCLUDE KJ_DATA_R;
     1139    10993        %INCLUDE KH$CHN;
     1140    11115        %INCLUDE KHA_FNC_E;
     1141    11215        %INCLUDE KN_ERRORS_C;
     1142    11279        %INCLUDE K_ID_E;
     1143    11329        /*ent defs */
     1144    11330    1   DCL KHA$SNDSTT ENTRY(2) ALTRET;
     1145    11331    1   DCL KHC$XEQ2 ENTRY(1) ALTRET;
     1146    11332    1   DCL CURXEQTIM UBIN(32);
     1147    11333        /**/
     1148    11334        %KL_REQSTATS;
     1149    11628        %K#ENTID_E;
     1150    11647
     1151    11648
     1152    11649        /* Parameters */
     1153    11650        %KH$ADMIN_FPT (STCLASS="");
     1154    11861        %KH$CHN (STCLASS="BASED(CHN$)");
     1155    11985
     1156    11986    1   DCL CHN$ PTR;
     1157    11987
     1158    11988        %EJECT;
PL6.E3A0      #008=KJF$ADM File=KJF$FEI.:E05TSI                                  WED 07/30/97 00:52 Page:240
     1159    11989
     1160    11990    2        DO CASE (KH$ADMIN_FPT.FNC);

  11990   1 000005  ECC7 0004                            LDB,B6   @KH$ADMIN_FPT,AUTO
          1 000007  B806                                 LDR,R3   ,B6
          1 000008  3D0E                                 CMV,R3   14
          1 000009  0281 0064                            BGE      s:12013,PREL
          1 00000B  A830 0000 0011  01                   LDR,R2   s:11990+12,R3
          1 00000E  83A0 0000 001F  01                   JMP      s:11993,R2
          1 000011       004F                            DC       s:12013,PREL
          1 000012       0000                            DC       s:11993,PREL
          1 000013       0019                            DC       s:12005,PREL
          1 000014       0019                            DC       s:12005,PREL
          1 000015       001E                            DC       s:12007,PREL
          1 000016       004F                            DC       s:12013,PREL
          1 000017       004F                            DC       s:12013,PREL
          1 000018       0019                            DC       s:12005,PREL
          1 000019       004F                            DC       s:12013,PREL
          1 00001A       004F                            DC       s:12013,PREL
          1 00001B       004F                            DC       s:12013,PREL
          1 00001C       004F                            DC       s:12013,PREL
          1 00001D       004F                            DC       s:12013,PREL
          1 00001E       0019                            DC       s:12005,PREL

     1161    11991
     1162    11992    2        CASE (%KHA_FNC_ENABLE);

     1163    11993    2           IF KJ_CONTROL.CHAN ~= 0

  11993   1 00001F  E800 0000 0004  xsym                 LDR,R6   KJ_CONTROL+4
          1 000022  6901 0009                            BEZ,R6   s:11998,PREL

     1164    11994    3           THEN DO;

     1165    11995    3                KH$ADMIN_FPT.RESULTS.ERR# = %E$ILGLTRANS;

  11995   1 000024  D870 2758                            LDR,R5   10072,IMO
PL6.E3A0      #008=KJF$ADM File=KJF$FEI.:E05TSI                                  WED 07/30/97 00:52 Page:241
          1 000026  DAC6 0010                            SRM,R5,'FFF8'X    16,B6
          1 000028       FFF8

     1166    11996    3                ALTRETURN;

  11996   1 000029  C380 0000 0000  xent                 LNJ,B4   X6A_AALT

     1167    11997    3              END;
     1168    11998    2           CHN$ = KH$ADMIN_FPT.CHN$;

  11998   1 00002C  DCC6 000B                            LDB,B5   11,B6
          1 00002E  DFC7 0008                            STB,B5   CHN$,AUTO

     1169    11999    2           KJ_CONTROL.CHAN = KH$CHN.CHNBIT0_9 * 64;

  11999   1 000030  E805                                 LDR,R6   ,B5
          1 000031  E570 FFC0                            AND,R6   -64,IMO
          1 000033  EF00 0000 0004  xsym                 STR,R6   KJ_CONTROL+4
          1 000036  0F81 0037                            B        s:12013,PREL

     1170    12000
     1171    12001    2        CASE (%KHA_FNC_DISABLE,

     1172    12002    2                %KHA_FNC_KILL,
     1173    12003    2                %KHA_FNC_PARTITION,
     1174    12004    2                %KHA_FNC_DISCONNECT_RQS);
     1175    12005    2           KJ_CONTROL.CHAN = 0;

  12005   1 000038  8700 0000 0004  xsym                 CL       KJ_CONTROL+4
          1 00003B  0F81 0032                            B        s:12013,PREL

     1176    12006    2        CASE (%KHA_FNC_REQSTATS);

     1177    12007    2           CALL KHC$XEQ2(CURXEQTIM);

  12007   1 00003D  DBC7 0006                            LAB,B5   CURXEQTIM,AUTO
          1 00003F  DFC7 000A                            STB,B5   CHN$+2,AUTO
PL6.E3A0      #008=KJF$ADM File=KJF$FEI.:E05TSI                                  WED 07/30/97 00:52 Page:242
          1 000041  BBC7 000A                            LAB,B3   CHN$+2,AUTO
          1 000043  CBF0 0100                            LAB,B4   256,IMO
          1 000045  E380 0000 0000  xent                 LNJ,B6   KHC$XEQ2
          1 000048       0001                            DC       s:12008,PREL

     1178    12008    2           KJ_STATS.SCHXEQTIM = CURXEQTIM - KJ_STATS.USRSTT.INPINTISATIM;

  12008   1 000049  8CC7 0006                            LDI      CURXEQTIM,AUTO
          1 00004B  8480 0000 0018  xsym                 SID      KJ_STATS+24
          1 00004E  8D00 0000 002C  xsym                 SDI      KJ_STATS+44

     1179    12009    2           IF KH$ADMIN_FPT.CTX$->KL_REQSTATS.SLCENT(%KH#ENTID_FEI) AND

  12009   1 000051  ECC7 0004                            LDB,B6   @KH$ADMIN_FPT,AUTO
          1 000053  DCC6 0009                            LDB,B5   9,B6
          1 000055  82C5 0012                            LB,'1000'X        18,B5
          1 000057       1000
          1 000058  0581 0015                            BBF      s:12013,PREL
          1 00005A  82C5 0010                            LB,'1000'X        16,B5
          1 00005C       1000
          1 00005D  0581 0010                            BBF      s:12013,PREL

     1180    12010    2                KH$ADMIN_FPT.CTX$->KL_REQSTATS.DSPENT(%KH#ENTID_FEI) THEN
     1181    12011    2                CALL KHA$SNDSTT(KH$ADMIN_FPT.CTX$->KL_REQSTATS,VECTOR(KJ_STATS));

  12011   1 00005F  CB80 0000 0000  02                   LAB,B4   0
          1 000062  CFC7 000C                            STB,B4   CHN$+4,AUTO
          1 000064  DFC7 000A                            STB,B5   CHN$+2,AUTO
          1 000066  BBC7 000A                            LAB,B3   CHN$+2,AUTO
          1 000068  CBF0 0200                            LAB,B4   512,IMO
          1 00006A  E380 0000 0000  xent                 LNJ,B6   KHA$SNDSTT
          1 00006D       0001                            DC       s:12013,PREL

     1182    12012    2        END;

     1183    12013    1        RETURN;

PL6.E3A0      #008=KJF$ADM File=KJF$FEI.:E05TSI                                  WED 07/30/97 00:52 Page:243
  12013   1 00006E  C380 0000 0000  xent                 LNJ,B4   X6A_ARET
     1184    12014
     1185    12015    1   END KJF$ADM;

PL6.E3A0      #008=KJF$ADM File=KJF$FEI.:E05TSI                                  WED 07/30/97 00:52 Page:244
--  Include file information  --

   K_ID_E.:E05TOU  is referenced.
   KN_ERRORS_C.:E05TOU  is referenced.
   KHA_FNC_E.:E05TOU  is referenced.
   KH$CHN.:E05TOU  is referenced.
   K_SCODE_C.:E05TOU  is referenced.
   KL_AFCN_C.:E05TOU  is referenced.
   KH$STT.:E05TOU  is referenced.
   KJ_MACRO_M.:E05TOU  is referenced.
   KL_MACRO_C.:E05TOU  is referenced.
   GH_HARDWARE_M.:E05TOU  is referenced.
   KNH_MACRO_C.:E05TOU  is referenced.
   G_LCP6_E.:E05TOU  is referenced.
   GT_LCP6_M.:E05TOU  is referenced.
   KI_CP6.:E05TOU  is referenced.
   GF_LCP6_M.:E05TOU  is referenced.
   GM_LCP6_M.:E05TOU  is referenced.
   GU_LCP6_M.:E05TOU  is referenced.
   GJ_LCP6_M.:E05TOU  is referenced.
   GH_LCP6_M.:E05TOU  is referenced.
   LCP_6.:E05TOU  cannot be made into a system file and is referenced.
   KJ_FCNS_C.:E05TOU  is referenced.
   KJ_DATA_R.:E05TOU  cannot be made into a system file and is referenced.
   KH_MACRO_C.:E05TOU  is referenced.
      No diagnostics issued in procedure KJF$ADM.
PL6.E3A0      #008=KJF$ADM File=KJF$FEI.:E05TSI                                  WED 07/30/97 00:52 Page:245

 **** Variables and constants ****

  ****  Auto variables  ****

  ****  Scalars and arrays  ****
HexLoc.c.b A Datatyp(siz) R M Lvl/name                 HexLoc.c.b A Datatyp(siz) R M Lvl/name

     4-0-0/w PTR         r     1 @KH$ADMIN_FPT              8-0-0/w PTR         r     1 CHN$
     6-0-0/w UBIN(32)    r     1 CURXEQTIM                 *0-0-0/w STRC(288)   r     1 KH$ADMIN_FPT

  ****  SYMREF variables  ****

  ****  Scalars and arrays  ****
HexLoc.c.b A Datatyp(siz) R M Lvl/name                 HexLoc.c.b A Datatyp(siz) R M Lvl/name

     0-0-0/w STRC(160)   r     1 KJ_CONTROL                 0-0-0/w PTR         r     1 KJ_CTX$
     0-0-0/w STRC(864)   r     1 KJ_STATS

  ****  BASED and DCB variables  ****

  ****  Scalars and arrays  ****
HexLoc.c.b A Datatyp(siz) R M Lvl/name                 HexLoc.c.b A Datatyp(siz) R M Lvl/name

     0-0-0/w STRC(512)   r     1 KH$CHN                     0-0-0/w STRC(320)   r     1 KL_REQSTATS


   Procedure KJF$ADM requires 113 words for executable code.
   Procedure KJF$ADM requires 14 words of local(AUTO) storage.

    No errors detected in file KJF$FEI.:E05TSI    .
PL6.E3A0      #008=KJF$ADM File=KJF$FEI.:E05TSI                                  WED 07/30/97 00:52 Page:246
          *** CROSS REFERENCE LISTING ***
**     DENOTES     IDENTIFIER DEFINITION
<<                 IDENTIFIER'S VALUE SET
>>                 IDENTIFIER'S VALUE USED
<>                 IDENTIFIER SET AND/OR USED
--                 IDENTIFIER REFERENCED
PL6.E3A0      #008=KJF$ADM File=KJF$FEI.:E05TSI                                  WED 07/30/97 00:52 Page:247
          MINI XREF LISTING

CHN$
     11986**DCL     11876--IMP-PTR 11998<<ASSIGN  11999>>ASSIGN
CURXEQTIM
     11332**DCL     12007<>CALL    12008>>ASSIGN
KH$ADMIN_FPT
     11665**DCL         6--PROC
KH$ADMIN_FPT.CHN$
     11792**DCL     11998>>ASSIGN
KH$ADMIN_FPT.CTX$
     11721**DCL     12009>>IF      12009>>IF      12011>>CALL
KH$ADMIN_FPT.FNC
     11666**DCL     11990>>DOCASE
KH$ADMIN_FPT.RESULTS.ERR#
     11844**DCL     11995<<ASSIGN
KH$ADMIN_FPT.TERMID.TERM
     11689**DCL     11698--REDEF
KH$CHN.CHNBIT0_9
     11883**DCL     11999>>ASSIGN
KH$CHN.TERMID.TERM
     11972**DCL     11981--REDEF
KHA$SNDSTT
     11330**DCL-ENT 12011--CALL
KHC$XEQ2
     11331**DCL-ENT 12007--CALL
KJ_CONTROL.CHAN
      9871**DCL     11993>>IF      11999<<ASSIGN  12005<<ASSIGN
KJ_CTX$
      9770**DCL      9770--IMP-PTR
KJ_GH_IO_INIT.CAS.CHN
     10484**DCL     10484--REDEF
KJ_GH_IO_INIT.DAS
     10485**DCL     10486--REDEF   10487--REDEF
PL6.E3A0      #008=KJF$ADM File=KJF$FEI.:E05TSI                                  WED 07/30/97 00:52 Page:248
KJ_GH_IO_INTL66.CAS.CHN
     10500**DCL     10500--REDEF
KJ_GH_IO_INTL66.DAS
     10501**DCL     10502--REDEF   10503--REDEF
KJ_INIT_MSG.FPT.RLCID.GENERATION
     10327**DCL     10328--REDEF
KJ_INIT_MSG.FPT.RLCID.LDCTX
     10328**DCL     10328--REDEF
KJ_INIT_MSG.FPT.TERMINAL_ID.TERM
     10316**DCL     10325--REDEF
KJ_INIT_MSG.FUNCTION
     10241**DCL     10241--REDEF
KJ_INIT_MSG.UID
     10271**DCL     10271--REDEF   10271--REDEF
KJ_IOLD_BARR.CHN
     10454**DCL     10454--REDEF
KJ_IOLD_DCWLIST.CHN
     10469**DCL     10469--REDEF
KJ_STATS
      9887**DCL     12011--CALL
KJ_STATS.REQSTATS.DSPMSK
     10133**DCL     10139--REDEF
KJ_STATS.REQSTATS.SLCMSK
     10174**DCL     10181--REDEF
KJ_STATS.SCHXEQTIM
     10213**DCL     12008<<ASSIGN
KJ_STATS.USRSTT.INPINTISATIM
     10204**DCL     12008>>ASSIGN
KJ_TERM_MSG.FUNCTION
     10359**DCL     10359--REDEF
KJ_TERM_MSG.UID
     10389**DCL     10389--REDEF   10389--REDEF
KL_REQSTATS
     11486**DCL     12011<>CALL
KL_REQSTATS.DSPENT
     11582**DCL     12009>>IF
PL6.E3A0      #008=KJF$ADM File=KJF$FEI.:E05TSI                                  WED 07/30/97 00:52 Page:249
KL_REQSTATS.DSPMSK
     11576**DCL     11582--REDEF
KL_REQSTATS.SLCENT
     11624**DCL     12009>>IF
KL_REQSTATS.SLCMSK
     11617**DCL     11624--REDEF
