VERSION E05

PL6.E3A0      #001=KLC$CONFIG File=KLC$CONFIG.:E05TSI                            WED 07/30/97 00:46 Page:1
        1        1        /*M* KLC$CONFIG - SLUG module to handle M$CONFIG processing */
        2        2        /*T***********************************************************/
        3        3        /*T*                                                         */
        4        4        /*T* Copyright (c) Bull HN Information Systems Inc., 1997    */
        5        5        /*T*                                                         */
        6        6        /*T***********************************************************/
        7        7        KLC$CONFIG: PROC;
        8        8        /*D* NAME:        KLC$CONFIG
        9        9             PURPOSE:     To handle the M$CONFIG processing done by SLUG
       10       10        */
       11       11        %INCLUDE CP_6;
       12     5570        %INCLUDE KL_AFCN_C;
       13     5671        %INCLUDE KL_MACRO_C;
       14     9023        %INCLUDE KL_CONFIG_M;
       15     9785        %INCLUDE KL_DATA_R;
       16    10249        %INCLUDE KL_ERRORS_C;
       17    10291        %KL_RSPPND (FPTN=KL$RSPPND,STCLASS="BASED(PND$)");
       18    10322        %KL_CONFIGRQS (FPTN=KL$CONFIGRQS,STCLASS="BASED(KL_RDBF$)");
       19    10371        %KL_CONFIGRSP (FPTN=KL$CONFIGRSP,STCLASS="BASED(KL_RDBF$)");
       20    10462        %KL_CONFIGRSP (FPTN=RSP,STCLASS=AUTO);
       21    10553        %B$TCB;
       22    10556        %B$ALT;
       23    10564    1   DCL P$ PTR;
       24    10565    1   DCL PND$ PTR;
       25    10566    1   DCL ERR BIT(36);
       26    10567    1   DCL NODE UBIN;
       27    10568    1   DCL NODENAME CHAR(8);
       28    10569    1   DCL NODENAMEB REDEF NODENAME BIT(72);
       29    10570    1   DCL NODETYPE UBIN;
       30    10571    1   DCL 1 E_NOFE CONSTANT,
       31    10572    1         2 FCGMID BIT(18) UNAL INIT('131403'O), /* KLC */
       32    10573    1         2 MON BIT(1) UNAL INIT('1'B),
       33    10574    1         2 CODE UBIN(14) UNAL INIT(%E$NOFE),
       34    10575    1         2 SEV UBIN(3) UNAL INIT(4);
       35    10576    1   DCL KL_STATION CHAR(8) SYMREF;
       36    10577    1   DCL KL_MSGTYP CHAR(8) SYMREF;
       37    10578    1   DCL B$TCB$ PTR SYMREF;
PL6.E3A0      #001=KLC$CONFIG File=KLC$CONFIG.:E05TSI                            WED 07/30/97 00:46 Page:2
       38    10579    1   DCL KLX$9TO8 ENTRY(3);
       39    10580    1   DCL KLB$GET ENTRY(2) ALTRET;
       40    10581    1   DCL KLB$REL ENTRY(1) ALTRET;
       41    10582    1   DCL KLX$CONV_NODE ENTRY(3) ALTRET;
       42    10583    1   DCL KLX$CONV_NODENAME ENTRY(3) ALTRET;
       43    10584    1   DCL KLX$ERR2NETERR ENTRY(2);
       44    10585    1   DCL KLX$WRHLPNODE ENTRY(4) ALTRET;
       45    10586    1   DCL KLX$WRHLPSTA ENTRY(4) ALTRET;
       46    10587
       47    10588    2         DO CASE(KL$CONFIGRQS.FCN);
       48    10589    2           CASE(IGA_CONFIGRQS);
       49    10590    2             IF KL_NODE=KL$CONFIGRQS.SRC_NODE
       50    10591    3               THEN DO;
       51    10592    4                  IF KL$CONFIGRQS.NODENAME~=' ' THEN DO;
       52    10593    4                    NODE=0;
       53    10594    4                    NODENAME=KL$CONFIGRQS.NODENAME;
       54    10595    4                    CALL KLX$CONV_NODENAME(NODENAME,NODE,NODETYPE)
       55    10596    5                    WHENALTRETURN DO;
       56    10597    5   ERR_NOFE:           ;
       57    10598    5                        ERR=E_NOFE;
       58    10599        /*E* ERROR:    KLC-E$NOFE-E
       59    10600             MESSAGE:  That FEP does not exist
       60    10601        */
       61    10602    5   ERROUT:              KL$CONFIGRSP='0'B;
       62    10603    5                        KL$CONFIGRSP.FCN=IGA_CONFIGRSP;
       63    10604    5                        CALL KLX$ERR2NETERR(ERR,KL$CONFIGRSP.NETERR);
       64    10605    5                        CALL KLX$WRHLPSTA(KL$CONFIGRSP,SIZEC(KL$CONFIGRSP),
       65    10606    5                                          KL_STATION,KL_MSGTYP);
       66    10607    5                        RETURN;
       67    10608    5                        END;
       68    10609    4                    END;
       69    10610    4                 ELSE DO;
       70    10611    4                    NODE=KL$CONFIGRQS.NODE;
       71    10612    4                    CALL KLX$CONV_NODE(NODENAME,NODE,NODETYPE) ALTRET(ERR_NOFE);
       72    10613    4                    END;
       73    10614    3                 IF NODETYPE ~= %KL_NODETYPE_FEP AND
       74    10615    3                    NODETYPE ~= %KL_NODETYPE_DEBUG
PL6.E3A0      #001=KLC$CONFIG File=KLC$CONFIG.:E05TSI                            WED 07/30/97 00:46 Page:3
       75    10616    4                 THEN DO;
       76    10617    4                    ERR=E_NOFE;
       77    10618    4                    GOTO ERROUT;
       78    10619    4                    END;
       79    10620    3                  KL$CONFIGRQS.NODE=NODE;
       80    10621    3                  KL_MSGID.N=KL_MSGID.N+1;
       81    10622    3                  CALL KLX$9TO8(KL_MSGID,KL$CONFIGRQS.MSGID,4);
       82    10623    3                  CALL KLB$GET(PND$,SIZEC(KL$RSPPND))
       83    10624    4                     WHENALTRETURN DO;
       84    10625    4                        ERR=B$TCB$->B$TCB.ALT$->B$ALT.ERR;
       85    10626    4                        GOTO ERROUT;
       86    10627    4                        END;
       87    10628    3                  KL$RSPPND.NODE=KL$CONFIGRQS.NODE;
       88    10629    3                  KL$RSPPND.STATION=KL_STATION;
       89    10630    3                  KL$RSPPND.MSGTYPE=KL_MSGTYP;
       90    10631    3                  KL$RSPPND.MSGID=KL$CONFIGRQS.MSGID;
       91    10632    3                  KL$RSPPND.LNK$=KL_RSPPND$;
       92    10633    3                  KL_RSPPND$=PND$;
       93    10634    3                  END;
       94    10635    2            IF KL_NODE=KL_NMNODE
       95    10636    2               THEN NODE=KL$CONFIGRQS.NODE;
       96    10637    2               ELSE NODE=KL_NMNODE;
       97    10638    2            CALL KLX$WRHLPNODE(KL$CONFIGRQS,SIZEC(KL$CONFIGRQS),NODE)
       98    10639    3              WHENALTRETURN DO;
       99    10640    3                RSP='0'B;
      100    10641    3                RSP.FCN=IGA_CONFIGRSP;
      101    10642    3                RSP.MSGID=KL$CONFIGRQS.MSGID;
      102    10643    3                RSP.NODE=KL$CONFIGRQS.SRC_NODE;
      103    10644    3                CALL KLX$ERR2NETERR(B$TCB$->B$TCB.ALT$->B$ALT.ERR,RSP.NETERR);
      104    10645                             /* Now fake out SLUG by putting RSP over the input buf  */
      105    10646                             /* and calling ourself again. This insures we drop the  */
      106    10647                             /* KL$RSPPND block if possible to get there.            */
      107    10648    3                KL$CONFIGRSP=RSP;
      108    10649    3                CALL KLC$CONFIG;
      109    10650    3                END;
      110    10651    2           CASE(IGA_CONFIGRSP);
      111    10652    2               IF KL_NODE~=KL$CONFIGRSP.NODE
PL6.E3A0      #001=KLC$CONFIG File=KLC$CONFIG.:E05TSI                            WED 07/30/97 00:46 Page:4
      112    10653    2                 THEN CALL KLX$WRHLPNODE(KL$CONFIGRSP,SIZEC(KL$CONFIGRSP),KL_NMNODE);
      113    10654    3                 ELSE DO;
      114    10655    3                   P$=ADDR(NIL);
      115    10656    3                   PND$=KL_RSPPND$;
      116    10657    4                   DO WHILE(PND$~=ADDR(NIL));
      117    10658    5                     IF KL$RSPPND.MSGID=KL$CONFIGRSP.MSGID THEN DO;
      118    10659    5                        IF P$=ADDR(NIL)
      119    10660    5                           THEN KL_RSPPND$=KL$RSPPND.LNK$;
      120    10661    5                           ELSE P$->KL$RSPPND.LNK$=KL$RSPPND.LNK$;
      121    10662    5                        CALL KLX$WRHLPSTA(KL$CONFIGRSP,SIZEC(KL$CONFIGRSP),
      122    10663    5                                          KL$RSPPND.STATION,KL$RSPPND.MSGTYPE);
      123    10664    5                        CALL KLB$REL(PND$);
      124    10665    5                        RETURN;
      125    10666    5                        END;
      126    10667    5                      ELSE DO;
      127    10668    5                        P$=PND$;
      128    10669    5                        PND$=KL$RSPPND.LNK$;
      129    10670    5                        END;
      130    10671    4                     END;
      131    10672    3                  END;
      132    10673    2            END; /* CASE */
      133    10674    1   END KLC$CONFIG;

PL6.E3A0      #001=KLC$CONFIG File=KLC$CONFIG.:E05TSI                            WED 07/30/97 00:46 Page:5
--  Include file information  --

   KL_ERRORS_C.:E05TOU  is referenced.
   KL_NETWORK_M.:E05TOU  is referenced.
   OC$MESSHD_C.:E05TOU  is referenced.
   KL_DATA_R.:E05TOU  cannot be made into a system file and is referenced.
   KL_CONFIG_M.:E05TOU  is referenced.
   KL_MACRO_C.:E05TOU  is referenced.
   KL_AFCN_C.:E05TOU  is referenced.
   CP_6_C.:E05TOU  is referenced.
   CP_6.:E05TOU  cannot be made into a system file and is referenced.
      No diagnostics issued in procedure KLC$CONFIG.

   Procedure KLC$CONFIG requires 250 words for executable code.
   Procedure KLC$CONFIG requires 20 words of local(AUTO) storage.

    No errors detected in file KLC$CONFIG.:E05TSI    .

PL6.E3A0      #001=KLC$CONFIG File=KLC$CONFIG.:E05TSI                            WED 07/30/97 00:46 Page:6

 Object Unit name= KLC$CONFIG                                 File name= KLC$CONFIG.:E05TOU
 UTS= JUL 30 '97 00:46:58.80 WED                              Compiler= PL-6/E31         Sev=      00
 SharedLib= :SHARED_SYSTEM                                    Alt SharedLib=


    ****  Control sections  ****

 Sect   Type Bound  Init  Size OctSiz  Section name(segment info)
    0   DCB   even  none     0      0  M$UC
    1   DCB   even  none     0      0  M$HLP
    2  RoData even  UTS      1      1  KLC$CONFIG
    3   Proc  even  none   250    372  KLC$CONFIG
    4  RoData even  none    12     14  KLC$CONFIG

    ****  Entry defs  ****

                              Check   Calling
                             calling  sequence
  Sect OctLoc Primary Altret sequence   type   Parms  Name
     3      0   yes            yes      Std        0  KLC$CONFIG

  ****  Entry refs  ****

         Check        Calling
        calling       sequence
Altret sequence SRef   type   Args  Name
 yes     yes           Std       3 KLX$CONV_NODENAME
         yes           Std       2 KLX$ERR2NETERR
 yes     yes           Std       4 KLX$WRHLPSTA
 yes     yes           Std       3 KLX$CONV_NODE
 yes     yes           Std       4 KLX$WRHLPNODE
 yes     yes           Std       2 KLB$GET
         yes           Std       3 KLX$9TO8
 yes     yes           Std       1 KLB$REL
                       nStd      0 X66_AUTO_0
                       Std       0 B_CONSPOOL_D
                       nStd      0 X66_ARET
PL6.E3A0      #001=KLC$CONFIG File=KLC$CONFIG.:E05TSI                            WED 07/30/97 00:46 Page:7

  ****  Data refs  ****

  Flags:  r = read only, s = secondary
Flgs Name                             Flgs Name                             Flgs Name
     M$UC                                  M$HLP                                 KL_RDBF$
     KL_MSGID                              KL_NODE                               KL_NMNODE
     KL_RSPPND$                            KL_STATION                            KL_MSGTYP
     B$TCB$                                B_VECTNIL

  ****  Segment refs  ****

  Flags:  r = read only, s = secondary
Flgs Name                             Flgs Name                             Flgs Name
     ISSID
PL6.E3A0      #001=KLC$CONFIG File=KLC$CONFIG.:E05TSI                            WED 07/30/97 00:46 Page:8


        1        1        /*M* KLC$CONFIG - SLUG module to handle M$CONFIG processing */
        2        2        /*T***********************************************************/
        3        3        /*T*                                                         */
        4        4        /*T* Copyright (c) Bull HN Information Systems Inc., 1997    */
        5        5        /*T*                                                         */
        6        6        /*T***********************************************************/
        7        7        KLC$CONFIG: PROC;

      7  3 000000   000000 700200 xent  KLC$CONFIG   TSX0  ! X66_AUTO_0
         3 000001   000024 000000                    ZERO    20,0

        8        8        /*D* NAME:        KLC$CONFIG
        9        9             PURPOSE:     To handle the M$CONFIG processing done by SLUG
       10       10        */
       11       11        %INCLUDE CP_6;
       12     5570        %INCLUDE KL_AFCN_C;
       13     5671        %INCLUDE KL_MACRO_C;
       14     9023        %INCLUDE KL_CONFIG_M;
       15     9785        %INCLUDE KL_DATA_R;
       16    10249        %INCLUDE KL_ERRORS_C;
       17    10291        %KL_RSPPND (FPTN=KL$RSPPND,STCLASS="BASED(PND$)");
       18    10322        %KL_CONFIGRQS (FPTN=KL$CONFIGRQS,STCLASS="BASED(KL_RDBF$)");
       19    10371        %KL_CONFIGRSP (FPTN=KL$CONFIGRSP,STCLASS="BASED(KL_RDBF$)");
       20    10462        %KL_CONFIGRSP (FPTN=RSP,STCLASS=AUTO);
       21    10553        %B$TCB;
       22    10556        %B$ALT;
       23    10564    1   DCL P$ PTR;
       24    10565    1   DCL PND$ PTR;
       25    10566    1   DCL ERR BIT(36);
       26    10567    1   DCL NODE UBIN;
       27    10568    1   DCL NODENAME CHAR(8);
       28    10569    1   DCL NODENAMEB REDEF NODENAME BIT(72);
       29    10570    1   DCL NODETYPE UBIN;
       30    10571    1   DCL 1 E_NOFE CONSTANT,
       31    10572    1         2 FCGMID BIT(18) UNAL INIT('131403'O), /* KLC */
       32    10573    1         2 MON BIT(1) UNAL INIT('1'B),
PL6.E3A0      #001=KLC$CONFIG File=KLC$CONFIG.:E05TSI                            WED 07/30/97 00:46 Page:9
       33    10574    1         2 CODE UBIN(14) UNAL INIT(%E$NOFE),
       34    10575    1         2 SEV UBIN(3) UNAL INIT(4);
       35    10576    1   DCL KL_STATION CHAR(8) SYMREF;
       36    10577    1   DCL KL_MSGTYP CHAR(8) SYMREF;
       37    10578    1   DCL B$TCB$ PTR SYMREF;
       38    10579    1   DCL KLX$9TO8 ENTRY(3);
       39    10580    1   DCL KLB$GET ENTRY(2) ALTRET;
       40    10581    1   DCL KLB$REL ENTRY(1) ALTRET;
       41    10582    1   DCL KLX$CONV_NODE ENTRY(3) ALTRET;
       42    10583    1   DCL KLX$CONV_NODENAME ENTRY(3) ALTRET;
       43    10584    1   DCL KLX$ERR2NETERR ENTRY(2);
       44    10585    1   DCL KLX$WRHLPNODE ENTRY(4) ALTRET;
       45    10586    1   DCL KLX$WRHLPSTA ENTRY(4) ALTRET;
       46    10587
       47    10588    2         DO CASE(KL$CONFIGRQS.FCN);

  10588  3 000002   000000 470400 xsym               LDP0    KL_RDBF$
         3 000003   000000 236100                    LDQ     0,,PR0
         3 000004   000033 772000                    QRL     27
         3 000005   000103 136007                    SBLQ    67,DL
         3 000006   000002 116007                    CMPQ    2,DL
         3 000007   000011 602006 3                  TNC     s:10588+7,QL
         3 000010   000371 710000 3                  TRA     s:10674
         3 000011   000013 710000 3                  TRA     s:10590
         3 000012   000276 710000 3                  TRA     s:10652

       48    10589    2           CASE(IGA_CONFIGRQS);

       49    10590    2             IF KL_NODE=KL$CONFIGRQS.SRC_NODE

  10590  3 000013   000002 236100                    LDQ     2,,PR0
         3 000014   000022 772000                    QRL     18
         3 000015   000777 376007                    ANQ     511,DL
         3 000016   000000 116000 xsym               CMPQ    KL_NODE
         3 000017   000213 601000 3                  TNZ     s:10635

       50    10591    3               THEN DO;
PL6.E3A0      #001=KLC$CONFIG File=KLC$CONFIG.:E05TSI                            WED 07/30/97 00:46 Page:10

       51    10592    4                  IF KL$CONFIGRQS.NODENAME~=' ' THEN DO;

  10592  3 000020   040000 106500                    CMPC    fill='040'O
         3 000021   000003 000010                    ADSC9   3,,PR0                   cn=0,n=8
         3 000022   000035 000001 xsym               ADSC9   B_VECTNIL+29             cn=0,n=1
         3 000023   000100 600000 3                  TZE     s:10611

       52    10593    4                    NODE=0;

  10593  3 000024   200014 450100                    STZ     NODE,,AUTO

       53    10594    4                    NODENAME=KL$CONFIGRQS.NODENAME;

  10594  3 000025   040100 100500                    MLR     fill='040'O
         3 000026   000003 000010                    ADSC9   3,,PR0                   cn=0,n=8
         3 000027   200015 000010                    ADSC9   NODENAME,,AUTO           cn=0,n=8

       54    10595    4                    CALL KLX$CONV_NODENAME(NODENAME,NODE,NODETYPE)

  10595  3 000030   200017 631500                    EPPR1   NODETYPE,,AUTO
         3 000031   200022 451500                    STP1    NODETYPE+3,,AUTO
         3 000032   200014 633500                    EPPR3   NODE,,AUTO
         3 000033   200021 453500                    STP3    NODETYPE+2,,AUTO
         3 000034   200015 634500                    EPPR4   NODENAME,,AUTO
         3 000035   200020 454500                    STP4    NODETYPE+1,,AUTO
         3 000036   200020 630500                    EPPR0   NODETYPE+1,,AUTO
         3 000037   000021 631400 xsym               EPPR1   B_VECTNIL+17
         3 000040   000000 701000 xent               TSX1    KLX$CONV_NODENAME
         3 000041   000043 702000 3                  TSX2    ERR_NOFE
         3 000042   000077 710000 3                  TRA     s:10609

       55    10596    5                    WHENALTRETURN DO;

       56    10597    5   ERR_NOFE:           ;

  10597  3 000043                       ERR_NOFE     null
PL6.E3A0      #001=KLC$CONFIG File=KLC$CONFIG.:E05TSI                            WED 07/30/97 00:46 Page:11
       57    10598    5                        ERR=E_NOFE;

  10598  3 000043   000000 236000 2                  LDQ     E_NOFE
         3 000044   200013 756100                    STQ     ERR,,AUTO

       58    10599        /*E* ERROR:    KLC-E$NOFE-E
       59    10600             MESSAGE:  That FEP does not exist
       60    10601        */
       61    10602    5   ERROUT:              KL$CONFIGRSP='0'B;

  10602  3 000045   000000 470400 xsym  ERROUT       LDP0    KL_RDBF$
         3 000046   000100 100400                    MLR     fill='000'O
         3 000047   000002 000001 xsym               ADSC9   B_VECTNIL+2              cn=0,n=1
         3 000050   000000 000030                    ADSC9   0,,PR0                   cn=0,n=24

       62    10603    5                        KL$CONFIGRSP.FCN=IGA_CONFIGRSP;

  10603  3 000051   000000 470400 xsym               LDP0    KL_RDBF$
         3 000052   104000 236003                    LDQ     34816,DU
         3 000053   000000 552140                    STBQ    0,'40'O,PR0

       63    10604    5                        CALL KLX$ERR2NETERR(ERR,KL$CONFIGRSP.NETERR);

  10604  3 000054   000000 236000 xsym               LDQ     KL_RDBF$
         3 000055   000000 036000 4                  ADLQ    0
         3 000056   200021 756100                    STQ     NODETYPE+2,,AUTO
         3 000057   200013 630500                    EPPR0   ERR,,AUTO
         3 000060   200020 450500                    STP0    NODETYPE+1,,AUTO
         3 000061   200020 630500                    EPPR0   NODETYPE+1,,AUTO
         3 000062   000020 631400 xsym               EPPR1   B_VECTNIL+16
         3 000063   000000 701000 xent               TSX1    KLX$ERR2NETERR
         3 000064   000000 011000                    NOP     0

       64    10605    5                        CALL KLX$WRHLPSTA(KL$CONFIGRSP,SIZEC(KL$CONFIGRSP),

  10605  3 000065   000002 237000 4                  LDAQ    2
         3 000066   200022 757100                    STAQ    NODETYPE+3,,AUTO
PL6.E3A0      #001=KLC$CONFIG File=KLC$CONFIG.:E05TSI                            WED 07/30/97 00:46 Page:12
         3 000067   000004 236000 4                  LDQ     4
         3 000070   000000 235000 xsym               LDA     KL_RDBF$
         3 000071   200020 757100                    STAQ    NODETYPE+1,,AUTO
         3 000072   200020 630500                    EPPR0   NODETYPE+1,,AUTO
         3 000073   000022 631400 xsym               EPPR1   B_VECTNIL+18
         3 000074   000000 701000 xent               TSX1    KLX$WRHLPSTA
         3 000075   000000 011000                    NOP     0

       65    10606    5                                          KL_STATION,KL_MSGTYP);
       66    10607    5                        RETURN;

  10607  3 000076   000000 702200 xent               TSX2  ! X66_ARET

       67    10608    5                        END;
       68    10609    4                    END;

  10609  3 000077   000115 710000 3                  TRA     s:10614

       69    10610    4                 ELSE DO;

       70    10611    4                    NODE=KL$CONFIGRQS.NODE;

  10611  3 000100   000002 236100                    LDQ     2,,PR0
         3 000101   000033 772000                    QRL     27
         3 000102   200014 756100                    STQ     NODE,,AUTO

       71    10612    4                    CALL KLX$CONV_NODE(NODENAME,NODE,NODETYPE) ALTRET(ERR_NOFE);

  10612  3 000103   200017 631500                    EPPR1   NODETYPE,,AUTO
         3 000104   200022 451500                    STP1    NODETYPE+3,,AUTO
         3 000105   200014 633500                    EPPR3   NODE,,AUTO
         3 000106   200021 453500                    STP3    NODETYPE+2,,AUTO
         3 000107   200015 634500                    EPPR4   NODENAME,,AUTO
         3 000110   200020 454500                    STP4    NODETYPE+1,,AUTO
         3 000111   200020 630500                    EPPR0   NODETYPE+1,,AUTO
         3 000112   000021 631400 xsym               EPPR1   B_VECTNIL+17
         3 000113   000000 701000 xent               TSX1    KLX$CONV_NODE
PL6.E3A0      #001=KLC$CONFIG File=KLC$CONFIG.:E05TSI                            WED 07/30/97 00:46 Page:13
         3 000114   000043 702000 3                  TSX2    ERR_NOFE

       72    10613    4                    END;

       73    10614    3                 IF NODETYPE ~= %KL_NODETYPE_FEP AND

  10614  3 000115   200017 235100                    LDA     NODETYPE,,AUTO
         3 000116   000002 115007                    CMPA    2,DL
         3 000117   000125 600000 3                  TZE     s:10620
         3 000120   000004 115007                    CMPA    4,DL
         3 000121   000125 600000 3                  TZE     s:10620

       74    10615    3                    NODETYPE ~= %KL_NODETYPE_DEBUG
       75    10616    4                 THEN DO;

       76    10617    4                    ERR=E_NOFE;

  10617  3 000122   000000 236000 2                  LDQ     E_NOFE
         3 000123   200013 756100                    STQ     ERR,,AUTO

       77    10618    4                    GOTO ERROUT;

  10618  3 000124   000045 710000 3                  TRA     ERROUT

       78    10619    4                    END;
       79    10620    3                  KL$CONFIGRQS.NODE=NODE;

  10620  3 000125   000000 470400 xsym               LDP0    KL_RDBF$
         3 000126   200014 236100                    LDQ     NODE,,AUTO
         3 000127   000033 736000                    QLS     27
         3 000130   000002 552140                    STBQ    2,'40'O,PR0

       80    10621    3                  KL_MSGID.N=KL_MSGID.N+1;

  10621  3 000131   000000 236000 xsym               LDQ     KL_MSGID
         3 000132   000005 376000 4                  ANQ     5
         3 000133   000001 036007                    ADLQ    1,DL
PL6.E3A0      #001=KLC$CONFIG File=KLC$CONFIG.:E05TSI                            WED 07/30/97 00:46 Page:14
         3 000134   000000 676000 xsym               ERQ     KL_MSGID
         3 000135   000005 376000 4                  ANQ     5
         3 000136   000000 656000 xsym               ERSQ    KL_MSGID

       81    10622    3                  CALL KLX$9TO8(KL_MSGID,KL$CONFIGRQS.MSGID,4);

  10622  3 000137   000006 236000 4                  LDQ     6
         3 000140   200022 756100                    STQ     NODETYPE+3,,AUTO
         3 000141   000000 236000 xsym               LDQ     KL_RDBF$
         3 000142   000001 036003                    ADLQ    1,DU
         3 000143   000007 235000 4                  LDA     7
         3 000144   200020 757100                    STAQ    NODETYPE+1,,AUTO
         3 000145   200020 630500                    EPPR0   NODETYPE+1,,AUTO
         3 000146   000021 631400 xsym               EPPR1   B_VECTNIL+17
         3 000147   000000 701000 xent               TSX1    KLX$9TO8
         3 000150   000000 011000                    NOP     0

       82    10623    3                  CALL KLB$GET(PND$,SIZEC(KL$RSPPND))

  10623  3 000151   000011 236000 4                  LDQ     9
         3 000152   200021 756100                    STQ     NODETYPE+2,,AUTO
         3 000153   200012 630500                    EPPR0   PND$,,AUTO
         3 000154   200020 450500                    STP0    NODETYPE+1,,AUTO
         3 000155   200020 630500                    EPPR0   NODETYPE+1,,AUTO
         3 000156   000020 631400 xsym               EPPR1   B_VECTNIL+16
         3 000157   000000 701000 xent               TSX1    KLB$GET
         3 000160   000162 702000 3                  TSX2    s:10625
         3 000161   000167 710000 3                  TRA     s:10628

       83    10624    4                     WHENALTRETURN DO;

       84    10625    4                        ERR=B$TCB$->B$TCB.ALT$->B$ALT.ERR;

  10625  3 000162   000000 470400 xsym               LDP0    B$TCB$
         3 000163   000000 471500                    LDP1    0,,PR0
         3 000164   100102 236100                    LDQ     66,,PR1
         3 000165   200013 756100                    STQ     ERR,,AUTO
PL6.E3A0      #001=KLC$CONFIG File=KLC$CONFIG.:E05TSI                            WED 07/30/97 00:46 Page:15

       85    10626    4                        GOTO ERROUT;

  10626  3 000166   000045 710000 3                  TRA     ERROUT

       86    10627    4                        END;
       87    10628    3                  KL$RSPPND.NODE=KL$CONFIGRQS.NODE;

  10628  3 000167   000000 470400 xsym               LDP0    KL_RDBF$
         3 000170   200012 471500                    LDP1    PND$,,AUTO
         3 000171   000002 236100                    LDQ     2,,PR0
         3 000172   100001 552140                    STBQ    1,'40'O,PR1

       88    10629    3                  KL$RSPPND.STATION=KL_STATION;

  10629  3 000173   200012 471500                    LDP1    PND$,,AUTO
         3 000174   040100 100400                    MLR     fill='040'O
         3 000175   000000 000010 xsym               ADSC9   KL_STATION               cn=0,n=8
         3 000176   100002 000010                    ADSC9   2,,PR1                   cn=0,n=8

       89    10630    3                  KL$RSPPND.MSGTYPE=KL_MSGTYP;

  10630  3 000177   200012 471500                    LDP1    PND$,,AUTO
         3 000200   040100 100400                    MLR     fill='040'O
         3 000201   000000 000010 xsym               ADSC9   KL_MSGTYP                cn=0,n=8
         3 000202   100004 000010                    ADSC9   4,,PR1                   cn=0,n=8

       90    10631    3                  KL$RSPPND.MSGID=KL$CONFIGRQS.MSGID;

  10631  3 000203   000001 236100                    LDQ     1,,PR0
         3 000204   200012 471500                    LDP1    PND$,,AUTO
         3 000205   100006 756100                    STQ     6,,PR1

       91    10632    3                  KL$RSPPND.LNK$=KL_RSPPND$;

  10632  3 000206   000000 236000 xsym               LDQ     KL_RSPPND$
         3 000207   200012 471500                    LDP1    PND$,,AUTO
PL6.E3A0      #001=KLC$CONFIG File=KLC$CONFIG.:E05TSI                            WED 07/30/97 00:46 Page:16
         3 000210   100000 756100                    STQ     0,,PR1

       92    10633    3                  KL_RSPPND$=PND$;

  10633  3 000211   200012 236100                    LDQ     PND$,,AUTO
         3 000212   000000 756000 xsym               STQ     KL_RSPPND$

       93    10634    3                  END;

       94    10635    2            IF KL_NODE=KL_NMNODE

  10635  3 000213   000000 236000 xsym               LDQ     KL_NODE
         3 000214   000000 116000 xsym               CMPQ    KL_NMNODE
         3 000215   000223 601000 3                  TNZ     s:10637

       95    10636    2               THEN NODE=KL$CONFIGRQS.NODE;

  10636  3 000216   000000 470400 xsym               LDP0    KL_RDBF$
         3 000217   000002 236100                    LDQ     2,,PR0
         3 000220   000033 772000                    QRL     27
         3 000221   200014 756100                    STQ     NODE,,AUTO
         3 000222   000225 710000 3                  TRA     s:10638

       96    10637    2               ELSE NODE=KL_NMNODE;

  10637  3 000223   000000 235000 xsym               LDA     KL_NMNODE
         3 000224   200014 755100                    STA     NODE,,AUTO

       97    10638    2            CALL KLX$WRHLPNODE(KL$CONFIGRQS,SIZEC(KL$CONFIGRQS),NODE)

  10638  3 000225   200014 630500                    EPPR0   NODE,,AUTO
         3 000226   200022 450500                    STP0    NODETYPE+3,,AUTO
         3 000227   000004 236000 4                  LDQ     4
         3 000230   000000 235000 xsym               LDA     KL_RDBF$
         3 000231   200020 757100                    STAQ    NODETYPE+1,,AUTO
         3 000232   200020 630500                    EPPR0   NODETYPE+1,,AUTO
         3 000233   000021 631400 xsym               EPPR1   B_VECTNIL+17
PL6.E3A0      #001=KLC$CONFIG File=KLC$CONFIG.:E05TSI                            WED 07/30/97 00:46 Page:17
         3 000234   000000 701000 xent               TSX1    KLX$WRHLPNODE
         3 000235   000237 702000 3                  TSX2    s:10640
         3 000236   000275 710000 3                  TRA     s:10650

       98    10639    3              WHENALTRETURN DO;

       99    10640    3                RSP='0'B;

  10640  3 000237   000100 100400                    MLR     fill='000'O
         3 000240   000002 000001 xsym               ADSC9   B_VECTNIL+2              cn=0,n=1
         3 000241   200003 000030                    ADSC9   RSP,,AUTO                cn=0,n=24

      100    10641    3                RSP.FCN=IGA_CONFIGRSP;

  10641  3 000242   104000 236003                    LDQ     34816,DU
         3 000243   200003 552140                    STBQ    RSP,'40'O,AUTO

      101    10642    3                RSP.MSGID=KL$CONFIGRQS.MSGID;

  10642  3 000244   000000 470400 xsym               LDP0    KL_RDBF$
         3 000245   000001 236100                    LDQ     1,,PR0
         3 000246   200004 756100                    STQ     RSP+1,,AUTO

      102    10643    3                RSP.NODE=KL$CONFIGRQS.SRC_NODE;

  10643  3 000247   000002 236100                    LDQ     2,,PR0
         3 000250   000011 736000                    QLS     9
         3 000251   200005 552140                    STBQ    RSP+2,'40'O,AUTO

      103    10644    3                CALL KLX$ERR2NETERR(B$TCB$->B$TCB.ALT$->B$ALT.ERR,RSP.NETERR);

  10644  3 000252   000000 471400 xsym               LDP1    B$TCB$
         3 000253   100000 473500                    LDP3    0,,PR1
         3 000254   200022 452500                    STP2    NODETYPE+3,,AUTO
         3 000255   200022 236100                    LDQ     NODETYPE+3,,AUTO
         3 000256   000012 036000 4                  ADLQ    10
         3 000257   200021 756100                    STQ     NODETYPE+2,,AUTO
PL6.E3A0      #001=KLC$CONFIG File=KLC$CONFIG.:E05TSI                            WED 07/30/97 00:46 Page:18
         3 000260   300102 634500                    EPPR4   66,,PR3
         3 000261   200020 454500                    STP4    NODETYPE+1,,AUTO
         3 000262   200020 630500                    EPPR0   NODETYPE+1,,AUTO
         3 000263   000020 631400 xsym               EPPR1   B_VECTNIL+16
         3 000264   000000 701000 xent               TSX1    KLX$ERR2NETERR
         3 000265   000000 011000                    NOP     0

      104    10645                             /* Now fake out SLUG by putting RSP over the input buf  */
      105    10646                             /* and calling ourself again. This insures we drop the  */
      106    10647                             /* KL$RSPPND block if possible to get there.            */
      107    10648    3                KL$CONFIGRSP=RSP;

  10648  3 000266   000000 470400 xsym               LDP0    KL_RDBF$
         3 000267   000100 100500                    MLR     fill='000'O
         3 000270   200003 000030                    ADSC9   RSP,,AUTO                cn=0,n=24
         3 000271   000000 000030                    ADSC9   0,,PR0                   cn=0,n=24

      108    10649    3                CALL KLC$CONFIG;

  10649  3 000272   000002 631400 xsym               EPPR1   B_VECTNIL+2
         3 000273   000000 701000 3                  TSX1    s:7
         3 000274   000000 011000                    NOP     0

      109    10650    3                END;

  10650  3 000275   000371 710000 3                  TRA     s:10674

      110    10651    2           CASE(IGA_CONFIGRSP);

      111    10652    2               IF KL_NODE~=KL$CONFIGRSP.NODE

  10652  3 000276   000002 236100                    LDQ     2,,PR0
         3 000277   000033 772000                    QRL     27
         3 000300   000000 116000 xsym               CMPQ    KL_NODE
         3 000301   000314 600000 3                  TZE     s:10655

      112    10653    2                 THEN CALL KLX$WRHLPNODE(KL$CONFIGRSP,SIZEC(KL$CONFIGRSP),KL_NMNODE);
PL6.E3A0      #001=KLC$CONFIG File=KLC$CONFIG.:E05TSI                            WED 07/30/97 00:46 Page:19

  10653  3 000302   000013 236000 4                  LDQ     11
         3 000303   200022 756100                    STQ     NODETYPE+3,,AUTO
         3 000304   000004 236000 4                  LDQ     4
         3 000305   000000 235000 xsym               LDA     KL_RDBF$
         3 000306   200020 757100                    STAQ    NODETYPE+1,,AUTO
         3 000307   200020 630500                    EPPR0   NODETYPE+1,,AUTO
         3 000310   000021 631400 xsym               EPPR1   B_VECTNIL+17
         3 000311   000000 701000 xent               TSX1    KLX$WRHLPNODE
         3 000312   000000 011000                    NOP     0
         3 000313   000371 710000 3                  TRA     s:10674

      113    10654    3                 ELSE DO;

      114    10655    3                   P$=ADDR(NIL);

  10655  3 000314   000001 236000 xsym               LDQ     B_VECTNIL+1
         3 000315   200011 756100                    STQ     P$,,AUTO

      115    10656    3                   PND$=KL_RSPPND$;

  10656  3 000316   000000 236000 xsym               LDQ     KL_RSPPND$
         3 000317   200012 756100                    STQ     PND$,,AUTO

      116    10657    4                   DO WHILE(PND$~=ADDR(NIL));

  10657  3 000320   000367 710000 3                  TRA     s:10671

      117    10658    5                     IF KL$RSPPND.MSGID=KL$CONFIGRSP.MSGID THEN DO;

  10658  3 000321   200012 470500                    LDP0    PND$,,AUTO
         3 000322   000000 471400 xsym               LDP1    KL_RDBF$
         3 000323   000006 236100                    LDQ     6,,PR0
         3 000324   100001 116100                    CMPQ    1,,PR1
         3 000325   000363 601000 3                  TNZ     s:10668

      118    10659    5                        IF P$=ADDR(NIL)
PL6.E3A0      #001=KLC$CONFIG File=KLC$CONFIG.:E05TSI                            WED 07/30/97 00:46 Page:20

  10659  3 000326   200011 236100                    LDQ     P$,,AUTO
         3 000327   000001 116000 xsym               CMPQ    B_VECTNIL+1
         3 000330   000334 601000 3                  TNZ     s:10661

      119    10660    5                           THEN KL_RSPPND$=KL$RSPPND.LNK$;

  10660  3 000331   000000 236100                    LDQ     0,,PR0
         3 000332   000000 756000 xsym               STQ     KL_RSPPND$
         3 000333   000337 710000 3                  TRA     s:10662

      120    10661    5                           ELSE P$->KL$RSPPND.LNK$=KL$RSPPND.LNK$;

  10661  3 000334   000000 236100                    LDQ     0,,PR0
         3 000335   200011 473500                    LDP3    P$,,AUTO
         3 000336   300000 756100                    STQ     0,,PR3

      121    10662    5                        CALL KLX$WRHLPSTA(KL$CONFIGRSP,SIZEC(KL$CONFIGRSP),

  10662  3 000337   200012 236100                    LDQ     PND$,,AUTO
         3 000340   000004 036003                    ADLQ    4,DU
         3 000341   200023 756100                    STQ     NODETYPE+4,,AUTO
         3 000342   200012 236100                    LDQ     PND$,,AUTO
         3 000343   000002 036003                    ADLQ    2,DU
         3 000344   200022 756100                    STQ     NODETYPE+3,,AUTO
         3 000345   000004 236000 4                  LDQ     4
         3 000346   000000 235000 xsym               LDA     KL_RDBF$
         3 000347   200020 757100                    STAQ    NODETYPE+1,,AUTO
         3 000350   200020 630500                    EPPR0   NODETYPE+1,,AUTO
         3 000351   000022 631400 xsym               EPPR1   B_VECTNIL+18
         3 000352   000000 701000 xent               TSX1    KLX$WRHLPSTA
         3 000353   000000 011000                    NOP     0

      122    10663    5                                          KL$RSPPND.STATION,KL$RSPPND.MSGTYPE);
      123    10664    5                        CALL KLB$REL(PND$);

  10664  3 000354   200012 630500                    EPPR0   PND$,,AUTO
PL6.E3A0      #001=KLC$CONFIG File=KLC$CONFIG.:E05TSI                            WED 07/30/97 00:46 Page:21
         3 000355   200020 450500                    STP0    NODETYPE+1,,AUTO
         3 000356   200020 630500                    EPPR0   NODETYPE+1,,AUTO
         3 000357   000017 631400 xsym               EPPR1   B_VECTNIL+15
         3 000360   000000 701000 xent               TSX1    KLB$REL
         3 000361   000000 011000                    NOP     0

      124    10665    5                        RETURN;

  10665  3 000362   000000 702200 xent               TSX2  ! X66_ARET

      125    10666    5                        END;
      126    10667    5                      ELSE DO;

      127    10668    5                        P$=PND$;

  10668  3 000363   200012 236100                    LDQ     PND$,,AUTO
         3 000364   200011 756100                    STQ     P$,,AUTO

      128    10669    5                        PND$=KL$RSPPND.LNK$;

  10669  3 000365   000000 236100                    LDQ     0,,PR0
         3 000366   200012 756100                    STQ     PND$,,AUTO

      129    10670    5                        END;

      130    10671    4                     END;

  10671  3 000367   000001 116000 xsym               CMPQ    B_VECTNIL+1
         3 000370   000321 601000 3                  TNZ     s:10658

      131    10672    3                  END;

      132    10673    2            END; /* CASE */

      133    10674    1   END KLC$CONFIG;

  10674  3 000371   000000 702200 xent               TSX2  ! X66_ARET
PL6.E3A0      #001=KLC$CONFIG File=KLC$CONFIG.:E05TSI                            WED 07/30/97 00:46 Page:22

PL6.E3A0      #001=KLC$CONFIG File=KLC$CONFIG.:E05TSI                            WED 07/30/97 00:46 Page:23
--  Include file information  --

   KL_ERRORS_C.:E05TOU  is referenced.
   KL_NETWORK_M.:E05TOU  is referenced.
   OC$MESSHD_C.:E05TOU  is referenced.
   KL_DATA_R.:E05TOU  cannot be made into a system file and is referenced.
   KL_CONFIG_M.:E05TOU  is referenced.
   KL_MACRO_C.:E05TOU  is referenced.
   KL_AFCN_C.:E05TOU  is referenced.
   CP_6_C.:E05TOU  is referenced.
   CP_6.:E05TOU  cannot be made into a system file and is referenced.
      No diagnostics issued in procedure KLC$CONFIG.
PL6.E3A0      #001=KLC$CONFIG File=KLC$CONFIG.:E05TSI                            WED 07/30/97 00:46 Page:24

 **** Variables and constants ****

  ****  Section 002 RoData KLC$CONFIG

  ****  Scalars and arrays  ****
OctLoc.c.b A Datatyp(siz) R M Lvl/name                 OctLoc.c.b A Datatyp(siz) R M Lvl/name

     0-0-0/b STRC        r     1 E_NOFE

  ****  Auto variables  ****

  ****  Scalars and arrays  ****
OctLoc.c.b A Datatyp(siz) R M Lvl/name                 OctLoc.c.b A Datatyp(siz) R M Lvl/name

    13-0-0/b BIT         r     1 ERR                       14-0-0/w UBIN        r     1 NODE
    15-0-0/c CHAR(8)     r     1 NODENAME                  17-0-0/w UBIN        r     1 NODETYPE
    11-0-0/w PTR         r     1 P$                        12-0-0/w PTR         r     1 PND$
     3-0-0/w STRC(216)   r     1 RSP

  ****  SYMREF variables  ****

  ****  Scalars and arrays  ****
OctLoc.c.b A Datatyp(siz) R M Lvl/name                 OctLoc.c.b A Datatyp(siz) R M Lvl/name

     0-0-0/w PTR         r     1 B$TCB$                     0-0-0/b STRC        r     1 KL_MSGID
     0-0-0/c CHAR(8)     r     1 KL_MSGTYP                  0-0-0/w UBIN        r     1 KL_NMNODE
     0-0-0/w UBIN        r     1 KL_NODE                    0-0-0/w PTR         r     1 KL_RDBF$
     0-0-0/w PTR         r     1 KL_RSPPND$                 0-0-0/c CHAR(8)     r     1 KL_STATION

  ****  BASED and DCB variables  ****

  ****  Scalars and arrays  ****
OctLoc.c.b A Datatyp(siz) R M Lvl/name                 OctLoc.c.b A Datatyp(siz) R M Lvl/name

     0-0-0/w STRC(2448)  r     1 B$ALT                      0-0-0/w STRC(144)   r     1 B$TCB
     0-0-0/w STRC(198)   r     1 KL$CONFIGRQS               0-0-0/w STRC(216)   r     1 KL$CONFIGRSP
     0-0-0/w STRC(252)   r     1 KL$RSPPND
PL6.E3A0      #001=KLC$CONFIG File=KLC$CONFIG.:E05TSI                            WED 07/30/97 00:46 Page:25


   Procedure KLC$CONFIG requires 250 words for executable code.
   Procedure KLC$CONFIG requires 20 words of local(AUTO) storage.

    No errors detected in file KLC$CONFIG.:E05TSI    .
PL6.E3A0      #001=KLC$CONFIG File=KLC$CONFIG.:E05TSI                            WED 07/30/97 00:46 Page:26
          *** CROSS REFERENCE LISTING ***
**     DENOTES     IDENTIFIER DEFINITION
<<                 IDENTIFIER'S VALUE SET
>>                 IDENTIFIER'S VALUE USED
<>                 IDENTIFIER SET AND/OR USED
--                 IDENTIFIER REFERENCED
PL6.E3A0      #001=KLC$CONFIG File=KLC$CONFIG.:E05TSI                            WED 07/30/97 00:46 Page:27
          MINI XREF LISTING

B$ALT.CODE
     10558**DCL     10558--REDEF   10559--REDEF   10559--REDEF
B$ALT.ERR
     10559**DCL     10625>>ASSIGN  10644<>CALL
B$ALT.ERR.ERR#
     10560**DCL     10560--REDEF
B$ALT.EVID
     10559**DCL     10559--REDEF   10559--REDEF
B$TCB.ALT$
     10554**DCL     10625>>ASSIGN  10644>>CALL
B$TCB$
     10578**DCL     10625>>ASSIGN  10644>>CALL
ERR
     10566**DCL     10598<<ASSIGN  10604<>CALL    10617<<ASSIGN  10625<<ASSIGN
ERROUT
     10602**LABEL   10618--GOTO    10626--GOTO
ERR_NOFE
     10597**LABEL   10612--CALLALT
E_NOFE
     10571**DCL     10598>>ASSIGN  10617>>ASSIGN
KL$CONFIGRQS
     10337**DCL     10638<>CALL    10638--CALL
KL$CONFIGRQS.FCN
     10338**DCL     10588>>DOCASE
KL$CONFIGRQS.MSGID
     10342**DCL     10622<>CALL    10631>>ASSIGN  10642>>ASSIGN
KL$CONFIGRQS.NODE
     10350**DCL     10611>>ASSIGN  10620<<ASSIGN  10628>>ASSIGN  10636>>ASSIGN
KL$CONFIGRQS.NODENAME
     10358**DCL     10592>>IF      10594>>ASSIGN
KL$CONFIGRQS.SRC_NODE
     10354**DCL     10590>>IF      10643>>ASSIGN
PL6.E3A0      #001=KLC$CONFIG File=KLC$CONFIG.:E05TSI                            WED 07/30/97 00:46 Page:28
KL$CONFIGRSP
     10386**DCL     10602<<ASSIGN  10605<>CALL    10605--CALL    10648<<ASSIGN  10653<>CALL    10653--CALL
     10662<>CALL    10662--CALL
KL$CONFIGRSP.FCN
     10387**DCL     10603<<ASSIGN
KL$CONFIGRSP.MSGID
     10391**DCL     10658>>IF
KL$CONFIGRSP.NETERR
     10440**DCL     10604<>CALL
KL$CONFIGRSP.NODE
     10399**DCL     10652>>IF
KL$RSPPND
     10304**DCL     10623--CALL
KL$RSPPND.LNK$
     10305**DCL     10632<<ASSIGN  10660>>ASSIGN  10661<<ASSIGN  10661>>ASSIGN  10669>>ASSIGN
KL$RSPPND.MSGID
     10316**DCL     10631<<ASSIGN  10658>>IF
KL$RSPPND.MSGTYPE
     10313**DCL     10630<<ASSIGN  10662<>CALL
KL$RSPPND.NODE
     10307**DCL     10628<<ASSIGN
KL$RSPPND.STATION
     10310**DCL     10629<<ASSIGN  10662<>CALL
KLB$GET
     10580**DCL-ENT 10623--CALL
KLB$REL
     10581**DCL-ENT 10664--CALL
KLC$CONFIG
         7**PROC    10649--CALL
KLX$9TO8
     10579**DCL-ENT 10622--CALL
KLX$CONV_NODE
     10582**DCL-ENT 10612--CALL
KLX$CONV_NODENAME
     10583**DCL-ENT 10595--CALL
KLX$ERR2NETERR
PL6.E3A0      #001=KLC$CONFIG File=KLC$CONFIG.:E05TSI                            WED 07/30/97 00:46 Page:29
     10584**DCL-ENT 10604--CALL    10644--CALL
KLX$WRHLPNODE
     10585**DCL-ENT 10638--CALL    10653--CALL
KLX$WRHLPSTA
     10586**DCL-ENT 10605--CALL    10662--CALL
KL_AUTOFAIL.FLAGS
     10089**DCL     10090--REDEF
KL_AUTOFAIL.MSGID
     10085**DCL     10086--REDEF
KL_AUTOFAIL.WSN
     10092**DCL     10093--REDEF
KL_FEMSG.FLAGS
     10039**DCL     10040--REDEF
KL_FEMSG.MSGID
     10035**DCL     10036--REDEF
KL_FEMSG.WSN
     10042**DCL     10043--REDEF
KL_MSGID
     10013**DCL     10622<>CALL
KL_MSGID.N
     10015**DCL     10621<<ASSIGN  10621>>ASSIGN
KL_MSGTYP
     10577**DCL     10605<>CALL    10630>>ASSIGN
KL_NETWORK_BUF.TERMINAL_ID.TERM
     10229**DCL     10238--REDEF
KL_NETWORK_KEY.KEY.TERMID.TERM
     10155**DCL     10164--REDEF
KL_NMNODE
     10021**DCL     10635>>IF      10637>>ASSIGN  10653<>CALL
KL_NODE
     10020**DCL     10590>>IF      10635>>IF      10652>>IF
KL_RDBF.FEL#
      9998**DCL      9999--REDEF
KL_RDBF$
     10010**DCL     10337--IMP-PTR 10386--IMP-PTR 10588>>DOCASE  10590>>IF      10592>>IF      10594>>ASSIGN
     10602>>ASSIGN  10603>>ASSIGN  10604>>CALL    10605>>CALL    10611>>ASSIGN  10620>>ASSIGN  10622>>CALL
PL6.E3A0      #001=KLC$CONFIG File=KLC$CONFIG.:E05TSI                            WED 07/30/97 00:46 Page:30
     10628>>ASSIGN  10631>>ASSIGN  10636>>ASSIGN  10638>>CALL    10642>>ASSIGN  10643>>ASSIGN  10648>>ASSIGN
     10652>>IF      10653>>CALL    10658>>IF      10662>>CALL
KL_RSPPND$
     10027**DCL     10632>>ASSIGN  10633<<ASSIGN  10656>>ASSIGN  10660<<ASSIGN
KL_STATION
     10576**DCL     10605<>CALL    10629>>ASSIGN
KL_TMSG.FLAGS
     10061**DCL     10062--REDEF
KL_TMSG.MSGID
     10057**DCL     10058--REDEF
KL_TMSG.WSN
     10064**DCL     10065--REDEF
NODE
     10567**DCL     10593<<ASSIGN  10595<>CALL    10611<<ASSIGN  10612<>CALL    10620>>ASSIGN  10636<<ASSIGN
     10637<<ASSIGN  10638<>CALL
NODENAME
     10568**DCL     10569--REDEF   10594<<ASSIGN  10595<>CALL    10612<>CALL
NODETYPE
     10570**DCL     10595<>CALL    10612<>CALL    10614>>IF      10614>>IF
P$
     10564**DCL     10655<<ASSIGN  10659>>IF      10661>>ASSIGN  10668<<ASSIGN
PND$
     10565**DCL     10304--IMP-PTR 10623<>CALL    10628>>ASSIGN  10629>>ASSIGN  10630>>ASSIGN  10631>>ASSIGN
     10632>>ASSIGN  10633>>ASSIGN  10656<<ASSIGN  10657>>DOWHILE 10658>>IF      10660>>ASSIGN  10661>>ASSIGN
     10662>>CALL    10662>>CALL    10664<>CALL    10668>>ASSIGN  10669<<ASSIGN  10669>>ASSIGN
RSP
     10477**DCL     10640<<ASSIGN  10648>>ASSIGN
RSP.FCN
     10478**DCL     10641<<ASSIGN
RSP.MSGID
     10482**DCL     10642<<ASSIGN
RSP.NETERR
     10531**DCL     10644<>CALL
RSP.NODE
     10490**DCL     10643<<ASSIGN
