PL6.E3A0      #002=KLH$OPFILS File=KLH$HLP.:E05TSI                               WED 07/30/97 00:49 Page:152
      855        1        /*T***********************************************************/
      856        2        /*T*                                                         */
      857        3        /*T* Copyright (c) Bull HN Information Systems Inc., 1997    */
      858        4        /*T*                                                         */
      859        5        /*T***********************************************************/
      860        6        KLH$OPFILS: PROC ALTRET;
      861        7        /*D* NAME:        KLH$OPFILS
      862        8             PURPOSE:     To open :HLP and :PRO for SLUG
      863        9             CALL:        CALL KLH$OPFILS ALTRET(LBL);
      864       10             INPUT:       KL_HLPFILS - Value which signifies state of :HLP and :PRO
      865       11                             0 - Neither open
      866       12                             1 - :HLP open only
      867       13                             2 - :HLP and :PRO both open
      868       14             OUTPUT:      KL_HLPFILS - As stated above
      869       15             DESCRIPTION: KLH$OPFILS uses KL_HLPFILS to determine which of the
      870       16                          the two files, :HLP and :PRO to open. The desired result
      871       17                          is to have both files open. KL_HLPFILS is set to reflect
      872       18                          the state of the files. If both files end up opened,
      873       19                          KLH$OPFILS ALTRETURNs. If any errors occur, it RETURNs.
      874       20        */
      875       21        %INCLUDE CP_6;
      876      102        %INCLUDE CP_6_SUBS;
      877      642        %INCLUDE KL_DATA_R;
      878     1106        %INCLUDE B_ERRORS_C;
      879     2233    1   DCL B$TCB$ PTR SYMREF;
      880     2234        %B$TCB;
      881     2237        %B$ALT;
      882     2245    1   DCL M$HLPF DCB;
      883     2246    1   DCL M$PROF DCB;
      884     2247    1   DCL M$NETCON DCB;
      885     2248    1   DCL M$NETWORK DCB;
      886     2249    1   DCL M$WSNF DCB;
      887     2250    1   DCL M$ROUTE DCB;
      888     2251        %FPT_OPEN (FPTN=OPHLPF,STCLASS=CONSTANT,NAME=HLP,ACCT=SYS,SCRUB=YES,
      889     2252                   SHARE=ALL,ASN=FILE,FUN=IN,ACS=DIRECT,DCB=M$HLPF,CTG=YES,
      890     2253                   ORG=KEYED);
      891     2362        %FPT_OPEN (FPTN=OPENDCB,STCLASS=AUTO);
PL6.E3A0      #002=KLH$OPFILS File=KLH$HLP.:E05TSI                               WED 07/30/97 00:49 Page:153
      892     2471        %VLP_NAME (FPTN=HLP,NAME=':HLP',STCLASS=CONSTANT);
      893     2498        %VLP_NAME (FPTN=PRO,NAME=':PRO',STCLASS=CONSTANT);
      894     2525        %VLP_NAME (FPTN=NETCON,NAME=':NETCON',STCLASS=CONSTANT);
      895     2552        %VLP_NAME (FPTN=NETWORK,NAME=':NETWORK',STCLASS=CONSTANT);
      896     2579        %VLP_NAME (FPTN=WSN,NAME=':WSN',STCLASS=CONSTANT);
      897     2606        %VLP_NAME (FPTN=ROUTES,NAME=':ROUTES',STCLASS=CONSTANT);
      898     2633        %VLP_ACCT (FPTN=SYS,ACCT=':SYS',STCLASS=CONSTANT);
      899     2646        %VLP_ATTR (FPTN=NETCON_ACSVEH);
      900     2660        %VLP_ACSVEH (READ=YES,UPD=YES,WNEW=YES,VEHICLE='NETCON?');
      901     2677        %VLP_ACSVEH (READ=YES,UPD=YES,WNEW=YES,DELR=YES,VEHICLE='SUPER?');
      902     2694        %VLP_ACSVEH (READ=YES,UPD=YES,WNEW=YES,VEHICLE='PIGETTE?');
      903     2711        %VLP_ACSVEH (READ=YES,UPD=YES,WNEW=YES,VEHICLE='SLUG',LAST=";");
      904     2728        %VLP_ATTR (FPTN=ROUTECON_ACSVEH);
      905     2742        %VLP_ACSVEH (READ=YES,UPD=YES,WNEW=YES,VEHICLE='NETCON?');
      906     2759        %VLP_ACSVEH (READ=YES,UPD=YES,WNEW=YES,VEHICLE='SUPER?');
      907     2776        %VLP_ACSVEH (READ=YES,UPD=YES,WNEW=YES,VEHICLE='PIGETTE?');
      908     2793        %VLP_ACSVEH (READ=YES,UPD=YES,WNEW=YES,VEHICLE='ROUTECON?');
      909     2810        %VLP_ACSVEH (READ=YES,UPD=YES,WNEW=YES,VEHICLE='SLUG',LAST=";");
      910     2827        %VLP_ATTR(FPTN=NETCON_ACCESS,STCLASS=CONSTANT);
      911     2841        %VLP_ACCESS(ACCT='?',EXEC=YES,LAST=";");
      912     2858        %VLP_ATTR (FPTN=NETWORK_ACSVEH);
      913     2872        %VLP_ACSVEH (READ=YES,UPD=YES,WNEW=YES,VEHICLE='SLUG',LAST=";");
      914     2889        %EJECT;
PL6.E3A0      #002=KLH$OPFILS File=KLH$HLP.:E05TSI                               WED 07/30/97 00:49 Page:154
      915     2890    1           OPENDCB = OPHLPF;
      916     2891    1           OPENDCB.V_ = VECTOR(OPENDCB.V);
      917     2892    1           IF KL_HLPFILS=0
      918     2893    2             THEN DO;
      919     2894    2               CALL M$OPEN (OPHLPF) ALTRET (NOPEN);
      920     2895    2               KL_HLPFILS=1;
      921     2896    2               END;
      922     2897    1           IF KL_HLPFILS=1
      923     2898    2             THEN DO;
      924     2899    2               OPENDCB.V.DCB# = DCBNUM(M$PROF);
      925     2900    2               OPENDCB.NAME_ = VECTOR(PRO);
      926     2901    2               CALL M$OPEN (OPENDCB) ALTRET (NOPEN);
      927     2902    2               KL_HLPFILS=2;
      928     2903    2               END;
      929     2904    1           OPENDCB.V.DCB# = DCBNUM(M$WSNF);
      930     2905    1           OPENDCB.NAME_ = VECTOR(WSN);
      931     2906    1           CALL M$OPEN (OPENDCB) ALTRET (NOPEN);
      932     2907
      933     2908    1   NOPEN:  ;
      934     2909
      935     2910    1           OPENDCB.V.DCB# = DCBNUM(M$NETCON);
      936     2911    1           OPENDCB.ACSVEH_ = VECTOR(NETCON_ACSVEH);
      937     2912    1           OPENDCB.V.FUN# = %UPDATE#;
      938     2913    1           OPENDCB.NAME_ = VECTOR(NETCON);
      939     2914    1           CALL M$OPEN (OPENDCB)
      940     2915    2             WHENALTRETURN DO;
      941     2916    3               IF B$TCB$->B$TCB.ALT$->B$ALT.ERR.CODE = %E$NOFILE THEN DO;
      942     2917    3                   OPENDCB.V.FUN# = %CREATE#;
      943     2918    4                   CALL M$OPEN(OPENDCB) WHENALTRETURN DO;
      944     2919    4                       END;
      945     2920    3                   END;                    /* IF                                 */
      946     2921    2               END;
      947     2922
      948     2923    1           OPENDCB.V.DCB# = DCBNUM(M$NETWORK);
      949     2924    1           OPENDCB.V.FUN# = %CREATE#;
      950     2925    1           OPENDCB.NAME_ = VECTOR(NETWORK);
      951     2926    1           OPENDCB.ACSVEH_ = VECTOR(NETWORK_ACSVEH);
PL6.E3A0      #002=KLH$OPFILS File=KLH$HLP.:E05TSI                               WED 07/30/97 00:49 Page:155
      952     2927    2           CALL M$OPEN(OPENDCB) WHENALTRETURN DO;
      953     2928    2               END;
      954     2929    1   KLH$OPFILS_ROUTE: ENTRY ALTRET;
      955     2930        /*
      956     2931                open :route if not already open
      957     2932        */
      958     2933    2           IF KL_ROUTEOPEN = 0 THEN DO;
      959     2934    2               OPENDCB.V.DCB# = DCBNUM(M$ROUTE);
      960     2935    2               OPENDCB.ACSVEH_ = VECTOR(ROUTECON_ACSVEH);
      961     2936    2               OPENDCB.V.FUN# = %UPDATE#;
      962     2937    2               OPENDCB.NAME_ = VECTOR(ROUTES);
      963     2938    2               CALL M$OPEN (OPENDCB)
      964     2939    3                 WHENRETURN DO;
      965     2940    3                   KL_ROUTEOPEN = 1;
      966     2941    3                   END;
      967     2942    3                 WHENALTRETURN DO;
      968     2943    4                   IF B$TCB$->B$TCB.ALT$->B$ALT.ERR.CODE = %E$NOFILE THEN DO;
      969     2944    4                       OPENDCB.V.FUN# = %CREATE#;
      970     2945    4                       CALL M$OPEN(OPENDCB)
      971     2946    5                         WHENRETURN DO;
      972     2947    5                           KL_ROUTEOPEN = 1;
      973     2948    5                           END;
      974     2949    5                         WHENALTRETURN DO;
      975     2950    5                           KL_ROUTEOPEN = 0;
      976     2951    5                           END;
      977     2952    4                       END;
      978     2953    3                   END;
      979     2954    2               END;                        /* :route not open                    */
      980     2955    1           IF KL_HLPFILS ~= 2
      981     2956    1             THEN
      982     2957    1               RETURN;
      983     2958
      984     2959
      985     2960    1           ALTRETURN;
      986     2961    1   END KLH$OPFILS;
      987     2962        %EOD;

PL6.E3A0      #002=KLH$OPFILS File=KLH$HLP.:E05TSI                               WED 07/30/97 00:49 Page:156
--  Include file information  --

   B_ERRORS_C.:E05TOU  is referenced.
   KL_NETWORK_M.:E05TOU  is referenced.
   OC$MESSHD_C.:E05TOU  is referenced.
   KL_DATA_R.:E05TOU  cannot be made into a system file and is referenced.
   CP_6_SUBS.:E05TOU  is referenced.
   CP_6.:E05TOU  cannot be made into a system file and is referenced.
   B$JIT_C.:E05TOU  was found in the system file and is never referenced.
   CP_6_C.:E05TOU  was found in the system file and is referenced.
      No diagnostics issued in procedure KLH$OPFILS.

   Procedure KLH$OPFILS requires 123 words for executable code.
   Procedure KLH$OPFILS requires 64 words of local(AUTO) storage.

PL6.E3A0      #002=KLH$OPFILS File=KLH$HLP.:E05TSI                               WED 07/30/97 00:49 Page:157

 Object Unit name= KLH$OPFILS                                 File name= KLH$HLP.:E05TOU
 UTS= JUL 30 '97 00:49:57.12 WED                              Compiler= PL-6/E31         Sev=      00
 SharedLib= :SHARED_SYSTEM                                    Alt SharedLib=


    ****  Control sections  ****

 Sect   Type Bound  Init  Size OctSiz  Section name(segment info)
    0   DCB   even  none     0      0  M$UC
    1   DCB   even  none     0      0  M$HLP
    2   DCB   even  none     0      0  M$HLPF
    3   DCB   even  none     0      0  M$PROF
    4   DCB   even  none     0      0  M$NETCON
    5   DCB   even  none     0      0  M$NETWORK
    6   DCB   even  none     0      0  M$WSNF
    7   DCB   even  none     0      0  M$ROUTE
    8  RoData even  UTS     77    115  KLH$OPFILS
    9   Data  even  none    28     34  KLH$OPFILS
   10   Proc  even  none   123    173  KLH$OPFILS
   11  RoData even  none    18     22  KLH$OPFILS

    ****  Entry defs  ****

                              Check   Calling
                             calling  sequence
  Sect OctLoc Primary Altret sequence   type   Parms  Name
    10      0   yes    yes     yes      Std        0  KLH$OPFILS
    10    122          yes     yes      Std        0  KLH$OPFILS_ROUTE

  ****  Entry refs  ****

         Check        Calling
        calling       sequence
Altret sequence SRef   type   Args  Name
                       nStd      0 X66_AUTO_0
                       nStd      0 X66_ARET
                       nStd      0 X66_AALT
PL6.E3A0      #002=KLH$OPFILS File=KLH$HLP.:E05TSI                               WED 07/30/97 00:49 Page:158

  ****  Data refs  ****

  Flags:  r = read only, s = secondary
Flgs Name                             Flgs Name                             Flgs Name
     M$UC                                  M$HLP                                 KL_HLPFILS
     KL_ROUTEOPEN                          B$TCB$                                M$HLPF
     M$PROF                                M$NETCON                              M$NETWORK
     M$WSNF                                M$ROUTE

  ****  Segment refs  ****

  Flags:  r = read only, s = secondary
Flgs Name                             Flgs Name                             Flgs Name
     ISSID                                 NULLSID
PL6.E3A0      #002=KLH$OPFILS File=KLH$HLP.:E05TSI                               WED 07/30/97 00:49 Page:159


      855        1        /*T***********************************************************/
      856        2        /*T*                                                         */
      857        3        /*T* Copyright (c) Bull HN Information Systems Inc., 1997    */
      858        4        /*T*                                                         */
      859        5        /*T***********************************************************/
      860        6        KLH$OPFILS: PROC ALTRET;

      6 10 000000   000000 700200 xent  KLH$OPFILS   TSX0  ! X66_AUTO_0
        10 000001   000100 000000                    ZERO    64,0

      861        7        /*D* NAME:        KLH$OPFILS
      862        8             PURPOSE:     To open :HLP and :PRO for SLUG
      863        9             CALL:        CALL KLH$OPFILS ALTRET(LBL);
      864       10             INPUT:       KL_HLPFILS - Value which signifies state of :HLP and :PRO
      865       11                             0 - Neither open
      866       12                             1 - :HLP open only
      867       13                             2 - :HLP and :PRO both open
      868       14             OUTPUT:      KL_HLPFILS - As stated above
      869       15             DESCRIPTION: KLH$OPFILS uses KL_HLPFILS to determine which of the
      870       16                          the two files, :HLP and :PRO to open. The desired result
      871       17                          is to have both files open. KL_HLPFILS is set to reflect
      872       18                          the state of the files. If both files end up opened,
      873       19                          KLH$OPFILS ALTRETURNs. If any errors occur, it RETURNs.
      874       20        */
      875       21        %INCLUDE CP_6;
      876      102        %INCLUDE CP_6_SUBS;
      877      642        %INCLUDE KL_DATA_R;
      878     1106        %INCLUDE B_ERRORS_C;
      879     2233    1   DCL B$TCB$ PTR SYMREF;
      880     2234        %B$TCB;
      881     2237        %B$ALT;
      882     2245    1   DCL M$HLPF DCB;
      883     2246    1   DCL M$PROF DCB;
      884     2247    1   DCL M$NETCON DCB;
      885     2248    1   DCL M$NETWORK DCB;
      886     2249    1   DCL M$WSNF DCB;
PL6.E3A0      #002=KLH$OPFILS File=KLH$HLP.:E05TSI                               WED 07/30/97 00:49 Page:160
      887     2250    1   DCL M$ROUTE DCB;
      888     2251        %FPT_OPEN (FPTN=OPHLPF,STCLASS=CONSTANT,NAME=HLP,ACCT=SYS,SCRUB=YES,
      889     2252                   SHARE=ALL,ASN=FILE,FUN=IN,ACS=DIRECT,DCB=M$HLPF,CTG=YES,
      890     2253                   ORG=KEYED);
      891     2362        %FPT_OPEN (FPTN=OPENDCB,STCLASS=AUTO);
      892     2471        %VLP_NAME (FPTN=HLP,NAME=':HLP',STCLASS=CONSTANT);
      893     2498        %VLP_NAME (FPTN=PRO,NAME=':PRO',STCLASS=CONSTANT);
      894     2525        %VLP_NAME (FPTN=NETCON,NAME=':NETCON',STCLASS=CONSTANT);
      895     2552        %VLP_NAME (FPTN=NETWORK,NAME=':NETWORK',STCLASS=CONSTANT);
      896     2579        %VLP_NAME (FPTN=WSN,NAME=':WSN',STCLASS=CONSTANT);
      897     2606        %VLP_NAME (FPTN=ROUTES,NAME=':ROUTES',STCLASS=CONSTANT);
      898     2633        %VLP_ACCT (FPTN=SYS,ACCT=':SYS',STCLASS=CONSTANT);
      899     2646        %VLP_ATTR (FPTN=NETCON_ACSVEH);
      900     2660        %VLP_ACSVEH (READ=YES,UPD=YES,WNEW=YES,VEHICLE='NETCON?');
      901     2677        %VLP_ACSVEH (READ=YES,UPD=YES,WNEW=YES,DELR=YES,VEHICLE='SUPER?');
      902     2694        %VLP_ACSVEH (READ=YES,UPD=YES,WNEW=YES,VEHICLE='PIGETTE?');
      903     2711        %VLP_ACSVEH (READ=YES,UPD=YES,WNEW=YES,VEHICLE='SLUG',LAST=";");
      904     2728        %VLP_ATTR (FPTN=ROUTECON_ACSVEH);
      905     2742        %VLP_ACSVEH (READ=YES,UPD=YES,WNEW=YES,VEHICLE='NETCON?');
      906     2759        %VLP_ACSVEH (READ=YES,UPD=YES,WNEW=YES,VEHICLE='SUPER?');
      907     2776        %VLP_ACSVEH (READ=YES,UPD=YES,WNEW=YES,VEHICLE='PIGETTE?');
      908     2793        %VLP_ACSVEH (READ=YES,UPD=YES,WNEW=YES,VEHICLE='ROUTECON?');
      909     2810        %VLP_ACSVEH (READ=YES,UPD=YES,WNEW=YES,VEHICLE='SLUG',LAST=";");
      910     2827        %VLP_ATTR(FPTN=NETCON_ACCESS,STCLASS=CONSTANT);
      911     2841        %VLP_ACCESS(ACCT='?',EXEC=YES,LAST=";");
      912     2858        %VLP_ATTR (FPTN=NETWORK_ACSVEH);
      913     2872        %VLP_ACSVEH (READ=YES,UPD=YES,WNEW=YES,VEHICLE='SLUG',LAST=";");
      914     2889        %EJECT;
PL6.E3A0      #002=KLH$OPFILS File=KLH$HLP.:E05TSI                               WED 07/30/97 00:49 Page:161
      915     2890    1           OPENDCB = OPHLPF;

   2890 10 000002   000100 100400                    MLR     fill='000'O
        10 000003   000000 000350 8                  ADSC9   OPHLPF                   cn=0,n=232
        10 000004   200004 000350                    ADSC9   OPENDCB,,AUTO            cn=0,n=232

      916     2891    1           OPENDCB.V_ = VECTOR(OPENDCB.V);

   2891 10 000005   000000 235000 11                 LDA     0
        10 000006   200076 452500                    STP2    OPENDCB+58,,AUTO
        10 000007   200076 236100                    LDQ     OPENDCB+58,,AUTO
        10 000010   000050 036003                    ADLQ    40,DU
        10 000011   200004 757100                    STAQ    OPENDCB,,AUTO

      917     2892    1           IF KL_HLPFILS=0

   2892 10 000012   000000 235000 xsym               LDA     KL_HLPFILS
        10 000013   000022 601000 10                 TNZ     s:2897

      918     2893    2             THEN DO;

      919     2894    2               CALL M$OPEN (OPHLPF) ALTRET (NOPEN);

   2894 10 000014   000000 630400 8                  EPPR0   OPHLPF
        10 000015   450000 713400                    CLIMB   alt,open
        10 000016   410400 401760                    pmme    nvectors=18
        10 000017   000050 702000 10                 TSX2    NOPEN

      920     2895    2               KL_HLPFILS=1;

   2895 10 000020   000001 235007                    LDA     1,DL
        10 000021   000000 755000 xsym               STA     KL_HLPFILS

      921     2896    2               END;

      922     2897    1           IF KL_HLPFILS=1

PL6.E3A0      #002=KLH$OPFILS File=KLH$HLP.:E05TSI                               WED 07/30/97 00:49 Page:162
   2897 10 000022   000001 115007                    CMPA    1,DL
        10 000023   000037 601000 10                 TNZ     s:2904

      923     2898    2             THEN DO;

      924     2899    2               OPENDCB.V.DCB# = DCBNUM(M$PROF);

   2899 10 000024   000000 236007 xsym               LDQ     M$PROF,DL
        10 000025   000000 620006                    EAX0    0,QL
        10 000026   200050 740100                    STX0    OPENDCB+36,,AUTO

      925     2900    2               OPENDCB.NAME_ = VECTOR(PRO);

   2900 10 000027   000002 237000 11                 LDAQ    2
        10 000030   200012 757100                    STAQ    OPENDCB+6,,AUTO

      926     2901    2               CALL M$OPEN (OPENDCB) ALTRET (NOPEN);

   2901 10 000031   200004 630500                    EPPR0   OPENDCB,,AUTO
        10 000032   450000 713400                    CLIMB   alt,open
        10 000033   410400 401760                    pmme    nvectors=18
        10 000034   000050 702000 10                 TSX2    NOPEN

      927     2902    2               KL_HLPFILS=2;

   2902 10 000035   000002 235007                    LDA     2,DL
        10 000036   000000 755000 xsym               STA     KL_HLPFILS

      928     2903    2               END;

      929     2904    1           OPENDCB.V.DCB# = DCBNUM(M$WSNF);

   2904 10 000037   000000 236007 xsym               LDQ     M$WSNF,DL
        10 000040   000000 620006                    EAX0    0,QL
        10 000041   200050 740100                    STX0    OPENDCB+36,,AUTO

      930     2905    1           OPENDCB.NAME_ = VECTOR(WSN);
PL6.E3A0      #002=KLH$OPFILS File=KLH$HLP.:E05TSI                               WED 07/30/97 00:49 Page:163

   2905 10 000042   000004 237000 11                 LDAQ    4
        10 000043   200012 757100                    STAQ    OPENDCB+6,,AUTO

      931     2906    1           CALL M$OPEN (OPENDCB) ALTRET (NOPEN);

   2906 10 000044   200004 630500                    EPPR0   OPENDCB,,AUTO
        10 000045   450000 713400                    CLIMB   alt,open
        10 000046   410400 401760                    pmme    nvectors=18
        10 000047   000050 702000 10                 TSX2    NOPEN

   2905 10 000050                       NOPEN        null
      932     2907
      933     2908    1   NOPEN:  ;
      934     2909
      935     2910    1           OPENDCB.V.DCB# = DCBNUM(M$NETCON);

   2910 10 000050   000000 236007 xsym               LDQ     M$NETCON,DL
        10 000051   000000 620006                    EAX0    0,QL
        10 000052   200050 740100                    STX0    OPENDCB+36,,AUTO

      936     2911    1           OPENDCB.ACSVEH_ = VECTOR(NETCON_ACSVEH);

   2911 10 000053   000006 237000 11                 LDAQ    6
        10 000054   200020 757100                    STAQ    OPENDCB+12,,AUTO

      937     2912    1           OPENDCB.V.FUN# = %UPDATE#;

   2912 10 000055   001000 236007                    LDQ     512,DL
        10 000056   200051 552110                    STBQ    OPENDCB+37,'10'O,AUTO

      938     2913    1           OPENDCB.NAME_ = VECTOR(NETCON);

   2913 10 000057   000010 237000 11                 LDAQ    8
        10 000060   200012 757100                    STAQ    OPENDCB+6,,AUTO

      939     2914    1           CALL M$OPEN (OPENDCB)
PL6.E3A0      #002=KLH$OPFILS File=KLH$HLP.:E05TSI                               WED 07/30/97 00:49 Page:164

   2914 10 000061   200004 630500                    EPPR0   OPENDCB,,AUTO
        10 000062   450000 713400                    CLIMB   alt,open
        10 000063   410400 401760                    pmme    nvectors=18
        10 000064   000066 702000 10                 TSX2    s:2916
        10 000065   000103 710000 10                 TRA     s:2923

      940     2915    2             WHENALTRETURN DO;

      941     2916    3               IF B$TCB$->B$TCB.ALT$->B$ALT.ERR.CODE = %E$NOFILE THEN DO;

   2916 10 000066   000000 470400 xsym               LDP0    B$TCB$
        10 000067   000000 471500                    LDP1    0,,PR0
        10 000070   100102 236100                    LDQ     66,,PR1
        10 000071   377770 376007                    ANQ     131064,DL
        10 000072   001610 116007                    CMPQ    904,DL
        10 000073   000103 601000 10                 TNZ     s:2923

      942     2917    3                   OPENDCB.V.FUN# = %CREATE#;

   2917 10 000074   003000 236007                    LDQ     1536,DL
        10 000075   200051 552110                    STBQ    OPENDCB+37,'10'O,AUTO

      943     2918    4                   CALL M$OPEN(OPENDCB) WHENALTRETURN DO;

   2918 10 000076   200004 630500                    EPPR0   OPENDCB,,AUTO
        10 000077   450000 713400                    CLIMB   alt,open
        10 000100   410400 401760                    pmme    nvectors=18
        10 000101   000103 702000 10                 TSX2    s:2923
        10 000102   000103 710000 10                 TRA     s:2923

      944     2919    4                       END;

      945     2920    3                   END;                    /* IF                                 */

      946     2921    2               END;

PL6.E3A0      #002=KLH$OPFILS File=KLH$HLP.:E05TSI                               WED 07/30/97 00:49 Page:165
      947     2922
      948     2923    1           OPENDCB.V.DCB# = DCBNUM(M$NETWORK);

   2923 10 000103   000000 236007 xsym               LDQ     M$NETWORK,DL
        10 000104   000000 620006                    EAX0    0,QL
        10 000105   200050 740100                    STX0    OPENDCB+36,,AUTO

      949     2924    1           OPENDCB.V.FUN# = %CREATE#;

   2924 10 000106   003000 236007                    LDQ     1536,DL
        10 000107   200051 552110                    STBQ    OPENDCB+37,'10'O,AUTO

      950     2925    1           OPENDCB.NAME_ = VECTOR(NETWORK);

   2925 10 000110   000012 237000 11                 LDAQ    10
        10 000111   200012 757100                    STAQ    OPENDCB+6,,AUTO

      951     2926    1           OPENDCB.ACSVEH_ = VECTOR(NETWORK_ACSVEH);

   2926 10 000112   000014 237000 11                 LDAQ    12
        10 000113   200020 757100                    STAQ    OPENDCB+12,,AUTO

      952     2927    2           CALL M$OPEN(OPENDCB) WHENALTRETURN DO;

   2927 10 000114   200004 630500                    EPPR0   OPENDCB,,AUTO
        10 000115   450000 713400                    CLIMB   alt,open
        10 000116   410400 401760                    pmme    nvectors=18
        10 000117   000121 702000 10                 TSX2    s:2928
        10 000120   000121 710000 10                 TRA     s:2928

      953     2928    2               END;

   2928 10 000121   000124 710000 10                 TRA     s:2933

      954     2929    1   KLH$OPFILS_ROUTE: ENTRY ALTRET;

   2929 10 000122   000000 700200 xent  KLH$OPFILS_* TSX0  ! X66_AUTO_0
PL6.E3A0      #002=KLH$OPFILS File=KLH$HLP.:E05TSI                               WED 07/30/97 00:49 Page:166
        10 000123   000100 000000                    ZERO    64,0

      955     2930        /*
      956     2931                open :route if not already open
      957     2932        */
      958     2933    2           IF KL_ROUTEOPEN = 0 THEN DO;

   2933 10 000124   000000 235000 xsym               LDA     KL_ROUTEOPEN
        10 000125   000166 601000 10                 TNZ     s:2955

      959     2934    2               OPENDCB.V.DCB# = DCBNUM(M$ROUTE);

   2934 10 000126   000000 236007 xsym               LDQ     M$ROUTE,DL
        10 000127   000000 620006                    EAX0    0,QL
        10 000130   200050 740100                    STX0    OPENDCB+36,,AUTO

      960     2935    2               OPENDCB.ACSVEH_ = VECTOR(ROUTECON_ACSVEH);

   2935 10 000131   000016 237000 11                 LDAQ    14
        10 000132   200020 757100                    STAQ    OPENDCB+12,,AUTO

      961     2936    2               OPENDCB.V.FUN# = %UPDATE#;

   2936 10 000133   001000 236007                    LDQ     512,DL
        10 000134   200051 552110                    STBQ    OPENDCB+37,'10'O,AUTO

      962     2937    2               OPENDCB.NAME_ = VECTOR(ROUTES);

   2937 10 000135   000020 237000 11                 LDAQ    16
        10 000136   200012 757100                    STAQ    OPENDCB+6,,AUTO

      963     2938    2               CALL M$OPEN (OPENDCB)

   2938 10 000137   200004 630500                    EPPR0   OPENDCB,,AUTO
        10 000140   450000 713400                    CLIMB   alt,open
        10 000141   410400 401760                    pmme    nvectors=18
        10 000142   000146 702000 10                 TSX2    s:2943
PL6.E3A0      #002=KLH$OPFILS File=KLH$HLP.:E05TSI                               WED 07/30/97 00:49 Page:167

      964     2939    3                 WHENRETURN DO;

      965     2940    3                   KL_ROUTEOPEN = 1;

   2940 10 000143   000001 235007                    LDA     1,DL
        10 000144   000000 755000 xsym               STA     KL_ROUTEOPEN

      966     2941    3                   END;

   2941 10 000145   000166 710000 10                 TRA     s:2955

      967     2942    3                 WHENALTRETURN DO;

      968     2943    4                   IF B$TCB$->B$TCB.ALT$->B$ALT.ERR.CODE = %E$NOFILE THEN DO;

   2943 10 000146   000000 470400 xsym               LDP0    B$TCB$
        10 000147   000000 471500                    LDP1    0,,PR0
        10 000150   100102 236100                    LDQ     66,,PR1
        10 000151   377770 376007                    ANQ     131064,DL
        10 000152   001610 116007                    CMPQ    904,DL
        10 000153   000166 601000 10                 TNZ     s:2955

      969     2944    4                       OPENDCB.V.FUN# = %CREATE#;

   2944 10 000154   003000 236007                    LDQ     1536,DL
        10 000155   200051 552110                    STBQ    OPENDCB+37,'10'O,AUTO

      970     2945    4                       CALL M$OPEN(OPENDCB)

   2945 10 000156   200004 630500                    EPPR0   OPENDCB,,AUTO
        10 000157   450000 713400                    CLIMB   alt,open
        10 000160   410400 401760                    pmme    nvectors=18
        10 000161   000165 702000 10                 TSX2    s:2950

      971     2946    5                         WHENRETURN DO;

PL6.E3A0      #002=KLH$OPFILS File=KLH$HLP.:E05TSI                               WED 07/30/97 00:49 Page:168
      972     2947    5                           KL_ROUTEOPEN = 1;

   2947 10 000162   000001 235007                    LDA     1,DL
        10 000163   000000 755000 xsym               STA     KL_ROUTEOPEN

      973     2948    5                           END;

   2948 10 000164   000166 710000 10                 TRA     s:2955

      974     2949    5                         WHENALTRETURN DO;

      975     2950    5                           KL_ROUTEOPEN = 0;

   2950 10 000165   000000 450000 xsym               STZ     KL_ROUTEOPEN

      976     2951    5                           END;

      977     2952    4                       END;

      978     2953    3                   END;

      979     2954    2               END;                        /* :route not open                    */

      980     2955    1           IF KL_HLPFILS ~= 2

   2955 10 000166   000000 235000 xsym               LDA     KL_HLPFILS
        10 000167   000002 115007                    CMPA    2,DL
        10 000170   000172 600000 10                 TZE     s:2960

      981     2956    1             THEN
      982     2957    1               RETURN;

   2957 10 000171   000000 702200 xent               TSX2  ! X66_ARET

      983     2958
      984     2959
      985     2960    1           ALTRETURN;
PL6.E3A0      #002=KLH$OPFILS File=KLH$HLP.:E05TSI                               WED 07/30/97 00:49 Page:169

   2960 10 000172   000000 702200 xent               TSX2  ! X66_AALT
      986     2961    1   END KLH$OPFILS;
      987     2962        %EOD;

PL6.E3A0      #002=KLH$OPFILS File=KLH$HLP.:E05TSI                               WED 07/30/97 00:49 Page:170
--  Include file information  --

   B_ERRORS_C.:E05TOU  is referenced.
   KL_NETWORK_M.:E05TOU  is referenced.
   OC$MESSHD_C.:E05TOU  is referenced.
   KL_DATA_R.:E05TOU  cannot be made into a system file and is referenced.
   CP_6_SUBS.:E05TOU  is referenced.
   CP_6.:E05TOU  cannot be made into a system file and is referenced.
   B$JIT_C.:E05TOU  was found in the system file and is never referenced.
   CP_6_C.:E05TOU  was found in the system file and is referenced.
      No diagnostics issued in procedure KLH$OPFILS.
PL6.E3A0      #002=KLH$OPFILS File=KLH$HLP.:E05TSI                               WED 07/30/97 00:49 Page:171

 **** Variables and constants ****

  ****  Section 008 RoData KLH$OPFILS

  ****  Scalars and arrays  ****
OctLoc.c.b A Datatyp(siz) R M Lvl/name                 OctLoc.c.b A Datatyp(siz) R M Lvl/name

    72-0-0/c STRC(45)    r     1 HLP                       76-0-0/c STRC(72)    r     1 NETCON
   111-0-0/w STRC(126)   r     1 NETCON_ACCESS            100-0-0/c STRC(81)    r     1 NETWORK
     0-0-0/d STRC(2088)  r     1 OPHLPF                    74-0-0/c STRC(45)    r     1 PRO
   105-0-0/c STRC(72)    r     1 ROUTES                   107-0-0/c STRC(72)    r     1 SYS
   103-0-0/c STRC(45)    r     1 WSN

  ****  Section 009  Data  KLH$OPFILS

  ****  Scalars and arrays  ****
OctLoc.c.b A Datatyp(siz) R M Lvl/name                 OctLoc.c.b A Datatyp(siz) R M Lvl/name

     0-0-0/w STRC(369)   r     1 NETCON_ACSVEH             31-0-0/w STRC(99)    r     1 NETWORK_ACSVEH
    13-0-0/w STRC(477)   r     1 ROUTECON_ACSVEH

  ****  Auto variables  ****

  ****  Scalars and arrays  ****
OctLoc.c.b A Datatyp(siz) R M Lvl/name                 OctLoc.c.b A Datatyp(siz) R M Lvl/name

     4-0-0/d STRC(2088)  r     1 OPENDCB

  ****  SYMREF variables  ****

  ****  Scalars and arrays  ****
OctLoc.c.b A Datatyp(siz) R M Lvl/name                 OctLoc.c.b A Datatyp(siz) R M Lvl/name

     0-0-0/w PTR         r     1 B$TCB$                     0-0-0/w UBIN        r     1 KL_HLPFILS
     0-0-0/w UBIN        r     1 KL_ROUTEOPEN

  ****  BASED and DCB variables  ****
PL6.E3A0      #002=KLH$OPFILS File=KLH$HLP.:E05TSI                               WED 07/30/97 00:49 Page:172

  ****  Scalars and arrays  ****
OctLoc.c.b A Datatyp(siz) R M Lvl/name                 OctLoc.c.b A Datatyp(siz) R M Lvl/name

     0-0-0/w STRC(2448)  r     1 B$ALT                      0-0-0/w STRC(144)   r     1 B$TCB
     0-0-0N  NULL        r     1 M$HLPF                     0-0-0N  NULL        r     1 M$NETCON
     0-0-0N  NULL        r     1 M$NETWORK                  0-0-0N  NULL        r     1 M$PROF
     0-0-0N  NULL        r     1 M$ROUTE                    0-0-0N  NULL        r     1 M$WSNF


   Procedure KLH$OPFILS requires 123 words for executable code.
   Procedure KLH$OPFILS requires 64 words of local(AUTO) storage.
PL6.E3A0      #002=KLH$OPFILS File=KLH$HLP.:E05TSI                               WED 07/30/97 00:49 Page:173
          *** CROSS REFERENCE LISTING ***
**     DENOTES     IDENTIFIER DEFINITION
<<                 IDENTIFIER'S VALUE SET
>>                 IDENTIFIER'S VALUE USED
<>                 IDENTIFIER SET AND/OR USED
--                 IDENTIFIER REFERENCED
PL6.E3A0      #002=KLH$OPFILS File=KLH$HLP.:E05TSI                               WED 07/30/97 00:49 Page:174
          MINI XREF LISTING

B$ALT.CODE
      2239**DCL      2239--REDEF    2240--REDEF    2240--REDEF
B$ALT.ERR.CODE
      2241**DCL      2916>>IF       2943>>IF
B$ALT.ERR.ERR#
      2241**DCL      2241--REDEF
B$ALT.EVID
      2240**DCL      2240--REDEF    2240--REDEF
B$TCB.ALT$
      2235**DCL      2916>>IF       2943>>IF
B$TCB$
      2233**DCL      2916>>IF       2943>>IF
HLP
      2496**DCL      2319--DCLINIT
KL_AUTOFAIL.FLAGS
       946**DCL       947--REDEF
KL_AUTOFAIL.MSGID
       942**DCL       943--REDEF
KL_AUTOFAIL.WSN
       949**DCL       950--REDEF
KL_FEMSG.FLAGS
       896**DCL       897--REDEF
KL_FEMSG.MSGID
       892**DCL       893--REDEF
KL_FEMSG.WSN
       899**DCL       900--REDEF
KL_HLPFILS
       845**DCL      2892>>IF       2895<<ASSIGN   2897>>IF       2902<<ASSIGN   2955>>IF
KL_NETWORK_BUF.TERMINAL_ID.TERM
      1086**DCL      1095--REDEF
KL_NETWORK_KEY.KEY.TERMID.TERM
      1012**DCL      1021--REDEF
PL6.E3A0      #002=KLH$OPFILS File=KLH$HLP.:E05TSI                               WED 07/30/97 00:49 Page:175
KL_RDBF.FEL#
       855**DCL       856--REDEF
KL_ROUTEOPEN
       846**DCL      2933>>IF       2940<<ASSIGN   2947<<ASSIGN   2950<<ASSIGN
KL_TMSG.FLAGS
       918**DCL       919--REDEF
KL_TMSG.MSGID
       914**DCL       915--REDEF
KL_TMSG.WSN
       921**DCL       922--REDEF
M$NETCON
      2247**DCL      2910>>ASSIGN
M$NETWORK
      2248**DCL      2923>>ASSIGN
M$OPEN
        30**DCL-ENT  2894--CALL     2901--CALL     2906--CALL     2914--CALL     2918--CALL     2927--CALL
      2938--CALL     2945--CALL
M$PROF
      2246**DCL      2899>>ASSIGN
M$ROUTE
      2250**DCL      2934>>ASSIGN
M$WSNF
      2249**DCL      2904>>ASSIGN
NETCON
      2550**DCL      2913--ASSIGN
NETCON_ACCESS.Q
      2839**DCL      2838--DCLINIT
NETCON_ACSVEH
      2657**DCL      2911--ASSIGN
NETCON_ACSVEH.Q
      2658**DCL      2657--DCLINIT
NETWORK
      2577**DCL      2925--ASSIGN
NETWORK_ACSVEH
      2869**DCL      2926--ASSIGN
NETWORK_ACSVEH.Q
PL6.E3A0      #002=KLH$OPFILS File=KLH$HLP.:E05TSI                               WED 07/30/97 00:49 Page:176
      2870**DCL      2869--DCLINIT
NOPEN
      2905**LABEL    2894--CALLALT  2901--CALLALT  2906--CALLALT
OPENDCB
      2427**DCL      2890<<ASSIGN   2901<>CALL     2906<>CALL     2914<>CALL     2918<>CALL     2927<>CALL
      2938<>CALL     2945<>CALL
OPENDCB.ACSVEH_
      2429**DCL      2430--REDEF    2911<<ASSIGN   2926<<ASSIGN   2935<<ASSIGN
OPENDCB.ALTKEYS_
      2435**DCL      2436--REDEF    2436--REDEF
OPENDCB.HDR_
      2434**DCL      2435--REDEF
OPENDCB.NAME_
      2428**DCL      2900<<ASSIGN   2905<<ASSIGN   2913<<ASSIGN   2925<<ASSIGN   2937<<ASSIGN
OPENDCB.TAB_
      2433**DCL      2434--REDEF
OPENDCB.UHL_
      2427**DCL      2428--REDEF    2428--REDEF
OPENDCB.V
      2436**DCL      2891--ASSIGN
OPENDCB.V.DCB#
      2436**DCL      2899<<ASSIGN   2904<<ASSIGN   2910<<ASSIGN   2923<<ASSIGN   2934<<ASSIGN
OPENDCB.V.FSN#
      2467**DCL      2467--REDEF    2467--REDEF
OPENDCB.V.FUN#
      2446**DCL      2912<<ASSIGN   2917<<ASSIGN   2924<<ASSIGN   2936<<ASSIGN   2944<<ASSIGN
OPENDCB.V_
      2427**DCL      2891<<ASSIGN
OPENDCB.WSN_
      2433**DCL      2433--REDEF
OPHLPF
      2318**DCL      2890>>ASSIGN   2894<>CALL
OPHLPF.ACSVEH_
      2320**DCL      2321--REDEF
OPHLPF.ALTKEYS_
      2326**DCL      2327--REDEF    2327--REDEF
PL6.E3A0      #002=KLH$OPFILS File=KLH$HLP.:E05TSI                               WED 07/30/97 00:49 Page:177
OPHLPF.HDR_
      2325**DCL      2326--REDEF
OPHLPF.TAB_
      2324**DCL      2325--REDEF
OPHLPF.UHL_
      2318**DCL      2319--REDEF    2319--REDEF
OPHLPF.V
      2327**DCL      2318--DCLINIT
OPHLPF.V.FSN#
      2358**DCL      2358--REDEF    2358--REDEF
OPHLPF.WSN_
      2324**DCL      2324--REDEF
PRO
      2523**DCL      2900--ASSIGN
ROUTECON_ACSVEH
      2739**DCL      2935--ASSIGN
ROUTECON_ACSVEH.Q
      2740**DCL      2739--DCLINIT
ROUTES
      2631**DCL      2937--ASSIGN
SYS
      2644**DCL      2323--DCLINIT
WSN
      2604**DCL      2905--ASSIGN

PL6.E3A0      #003=KLH$SNDHSGN File=KLH$HLP.:E05TSI                              WED 07/30/97 00:50 Page:178
      988        1        /*T***********************************************************/
      989        2        /*T*                                                         */
      990        3        /*T* Copyright (c) Bull HN Information Systems Inc., 1997    */
      991        4        /*T*                                                         */
      992        5        /*T***********************************************************/
      993        6        /*D* NAME:        KLH$SNDHSGN
      994        7             PURPOSE:     To get the KL_PCD structure to the right host logon
      995        8             CALL:        CALL KLH$SNDHSGN(ERRCODE) ALTRET(LBL);
      996        9             INPUT:       KL_PCD - All the information needed to tell host
      997       10                             logon so that it may log on this device
      998       11                          KL_NODE - The node number of this host.
      999       12                          KL_DESTNODE - The node number of the destination
     1000       13                             host logon
     1001       14             OUTPUT:      KL_LGNPND - A block used to remember this pending
     1002       15                             logon. Linked onto the KL_LGNPND$ list. Only
     1003       16                             built if the destination host is not this host.
     1004       17                          KL_HSGN - A message sent to the appropriate host
     1005       18                             logon; contains the KL_PCD structure. Only sent
     1006       19                             the destination host is not this host.
     1007       20                          ERRCODE - An error code returned if the write to
     1008       21                             host logon failed.
     1009       22             DESCRIPTION: KLH$SNDHSGN's job is to get KL_PCD off to the host
     1010       23                          that this device wishes to logon to. If that host is
     1011       24                          this host, KLH$SNDHSGN simply calls KLH$HSGN passing
     1012       25                          KL_PCD. Otherwise, KLH$SNDHSGN builds a KL_HSGN
     1013       26                          message and sends it to the appropriate host. We
     1014       27                          also build a KL_LGNPND block and link it onto the
     1015       28                          KL_LGNPND$ chain. This chain is used to remember
     1016       29                          host logon processes that are currently in transit
     1017       30                          outside this (network manager) host. It is used for
     1018       31                          recovery purposes if the destination host is lost.
     1019       32                          If either the KL_LGNPND block cannot be obtained or
     1020       33                          the write to the destination host fails,
     1021       34                          KLH$SNDHSGN will ALTRETURN with the error in ERRCODE.
     1022       35        */
     1023       36
     1024       37        KLH$SNDHSGN: PROC(ERRCODE) ALTRET;
PL6.E3A0      #003=KLH$SNDHSGN File=KLH$HLP.:E05TSI                              WED 07/30/97 00:50 Page:179
     1025       38
     1026       39        %INCLUDE CP_6;
     1027      120        %INCLUDE KC$CGBLK;
     1028      168        %INCLUDE KL_AFCN_C;
     1029      269        %INCLUDE KL_DATA_R;
     1030      733        %INCLUDE KL_MACRO_C;
     1031     4085        %INCLUDE KL_SUPER_C;
     1032     6987    1   DCL ERRCODE BIT(36) ALIGNED;
     1033     6988        %B$TCB;
     1034     6991        %B$ALT;
     1035     6999    1   DCL B$TCB$ PTR SYMREF;
     1036     7000        %KL_PCD (FPTN=KL_PCD,CG=0,STCLASS=SYMREF);
     1037     7119    1   DCL KL_STATION CHAR(8) SYMREF;
     1038     7120        %KL_HSGN (FPTN=KL_HSGN,STCLASS=AUTO,CG=1);
     1039     7306        %KL_HSGN (FPTN=KL$HSGN_TS,STCLASS=BASED,CG=0);
     1040     7446        %KL_LGNPND (FPTN=KL$LGNPND,STCLASS="BASED(PND$)");
     1041     7477        %KL_SGNRSP (FPTN=KL$SGNRSP,STCLASS="BASED(RSP$)");
     1042     7612    1   DCL RSP$ PTR;
     1043     7613    1   DCL P$ PTR;
     1044     7614    1   DCL PND$ PTR;
     1045     7615    1   DCL BSIZ UBIN;
     1046     7616    1   DCL KLB$GET ENTRY(2) ALTRET;
     1047     7617    1   DCL KLB$REL ENTRY(1) ALTRET;
     1048     7618    1   DCL KLH$HSGN ENTRY(1);
     1049     7619    1   DCL KLX$WRHLPNODE ENTRY(4) ALTRET;
     1050     7620    1   DCL KLX$WRHLPSTA  ENTRY(4) ALTRET;
     1051     7621
     1052     7622    2           IF KL_DESTNODE=KL_NODE THEN DO; /* Don't bother sending msg to self   */
     1053     7623    2               CALL KLH$HSGN(KL_PCD);
     1054     7624    2               RETURN;
     1055     7625    2               END;
     1056     7626    1           KL_HSGN='0'B;
     1057     7627    1           KL_HSGN.FCN=IGA_HSGN;
     1058     7628    1           KL_HSGN.PCD=KL_PCD;
     1059     7629    1           BSIZ=SIZEC(KL$LGNPND);
     1060     7630    2           CALL KLB$GET(PND$,BSIZ) WHENALTRETURN DO;
     1061     7631    2               ERRCODE=B$TCB$->B$TCB.ALT$->B$ALT.ERR;
PL6.E3A0      #003=KLH$SNDHSGN File=KLH$HLP.:E05TSI                              WED 07/30/97 00:50 Page:180
     1062     7632    2               ALTRETURN;
     1063     7633    2               END;
     1064     7634    1           KL$LGNPND='0'B;
     1065     7635    1           KL$LGNPND.NODE=KL_DESTNODE;
     1066     7636    1           KL$LGNPND.STATION=KL_STATION;
     1067     7637    1           KL$LGNPND.SOURCE.NODE=KL_PCD.ADDD.FEX;
     1068     7638    1           KL$LGNPND.SOURCE.NMID=KL_PCD.ADDD.NMID;
     1069     7639    1           IF KL_PCD.ADDD.ATYP=%KLAT_TS#
     1070     7640    1             THEN BSIZ=SIZEC(KL$HSGN_TS);
     1071     7641    1             ELSE BSIZ=SIZEC(KL_HSGN);
     1072     7642    1           CALL KLX$WRHLPNODE(KL_HSGN,BSIZ,KL_DESTNODE)
     1073     7643    2             WHENRETURN DO;
     1074     7644    2               KL_LGNPND$=PND$;
     1075     7645    2               END;
     1076     7646    2             WHENALTRETURN DO;
     1077     7647    2               ERRCODE=B$TCB$->B$TCB.ALT$->B$ALT.ERR;
     1078     7648    2               CALL KLB$REL(PND$);
     1079     7649    2               ALTRETURN;
     1080     7650    2               END;
     1081     7651    1           KL$LGNPND.LNK$=KL_LGNPND$;
     1082     7652    1           RETURN;
     1083     7653
     1084     7654        /*D* NAME:        KLH$SGNRSP
     1085     7655             PURPOSE:     To forward the KL_SGNRSP to the station which sent the KL_SGN
     1086     7656             DESCRIPTION: Simply forwards the message and releases the
     1087     7657                          KL_LGNPND block used to remember which station to
     1088     7658                          return this message to.
     1089     7659        */
     1090     7660
     1091     7661    1   KLH$SGNRSP: ENTRY ALTRET;               /*!!!DOESN'T ALTRET!!!*/
     1092     7662
     1093     7663    1           RSP$=ADDR(KL_RDBF);
     1094     7664    1           P$=ADDR(NIL);
     1095     7665    1           PND$=KL_LGNPND$;
     1096     7666    2           DO WHILE(PND$~=ADDR(NIL));
     1097     7667    2             IF KL$LGNPND.SOURCE.NMID=KL$SGNRSP.NMID
     1098     7668        /*         AND KL$LGNPND.SOURCE.NODE=KL$SGNRSP.SOURCE.NODE  */
PL6.E3A0      #003=KLH$SNDHSGN File=KLH$HLP.:E05TSI                              WED 07/30/97 00:50 Page:181
     1099     7669    3               THEN DO;
     1100     7670    3                 IF P$=ADDR(NIL)
     1101     7671    3                   THEN KL_LGNPND$=KL$LGNPND.LNK$;
     1102     7672    3                   ELSE P$->KL$LGNPND.LNK$=KL$LGNPND.LNK$;
     1103     7673    3                 CALL KLX$WRHLPSTA(KL$SGNRSP,KL_MARS,KL$LGNPND.STATION);
     1104     7674    3                 CALL KLB$REL(PND$);
     1105     7675    3                 RETURN;
     1106     7676    3                 END;
     1107     7677    3               ELSE DO;
     1108     7678    3                 P$=PND$;
     1109     7679    3                 PND$=KL$LGNPND.LNK$;
     1110     7680    3                 END;
     1111     7681    2             END;
     1112     7682        /* If we get here because we didn't find a KL$LGNPND that matched, it is OK; */
     1113     7683        /* the KL_SGN-originating node will have left us for a better silicon        */
     1114     7684        /* field somewhere.                                                          */
     1115     7685    1           RETURN;
     1116     7686    1   END KLH$SNDHSGN;
     1117     7687        %EOD;

PL6.E3A0      #003=KLH$SNDHSGN File=KLH$HLP.:E05TSI                              WED 07/30/97 00:50 Page:182
--  Include file information  --

   KL_SUPER_C.:E05TOU  is referenced.
   KL_MACRO_C.:E05TOU  is referenced.
   KL_NETWORK_M.:E05TOU  is referenced.
   OC$MESSHD_C.:E05TOU  is referenced.
   KL_DATA_R.:E05TOU  cannot be made into a system file and is referenced.
   KL_AFCN_C.:E05TOU  is referenced.
   KC$CGBLK.:E05TOU  is referenced.
   CP_6.:E05TOU  cannot be made into a system file and is referenced.
   B$JIT_C.:E05TOU  was found in the system file and is never referenced.
   CP_6_C.:E05TOU  was found in the system file and is referenced.
      No diagnostics issued in procedure KLH$SNDHSGN.

   Procedure KLH$SNDHSGN requires 142 words for executable code.
   Procedure KLH$SNDHSGN requires 82 words of local(AUTO) storage.

PL6.E3A0      #003=KLH$SNDHSGN File=KLH$HLP.:E05TSI                              WED 07/30/97 00:50 Page:183

 Object Unit name= KLH$SNDHSGN                                File name= KLH$HLP.:E05TOU
 UTS= JUL 30 '97 00:50:43.00 WED                              Compiler= PL-6/E31         Sev=      00
 SharedLib= :SHARED_SYSTEM                                    Alt SharedLib=


    ****  Control sections  ****

 Sect   Type Bound  Init  Size OctSiz  Section name(segment info)
    0   DCB   even  none     0      0  M$UC
    1   DCB   even  none     0      0  M$HLP
    2   Proc  even  none   142    216  KLH$SNDHSGN
    3  RoData even  none     4      4  KLH$SNDHSGN

    ****  Entry defs  ****

                              Check   Calling
                             calling  sequence
  Sect OctLoc Primary Altret sequence   type   Parms  Name
     2      0   yes    yes     yes      Std        1  KLH$SNDHSGN
     2    136          yes     yes      Std        0  KLH$SGNRSP

  ****  Entry refs  ****

         Check        Calling
        calling       sequence
Altret sequence SRef   type   Args  Name
         yes           Std       1 KLH$HSGN
 yes     yes           Std       2 KLB$GET
 yes     yes           Std       4 KLX$WRHLPNODE
 yes     yes           Std       4 KLX$WRHLPSTA
 yes     yes           Std       1 KLB$REL
                       nStd      0 X66_AUTO_1
                       Std       0 B_CONSPOOL_D
                       nStd      0 X66_ARET
                       nStd      0 X66_AALT
PL6.E3A0      #003=KLH$SNDHSGN File=KLH$HLP.:E05TSI                              WED 07/30/97 00:50 Page:184

  ****  Data refs  ****

  Flags:  r = read only, s = secondary
Flgs Name                             Flgs Name                             Flgs Name
     M$UC                                  M$HLP                                 KL_RDBF
     KL_MARS                               KL_NODE                               KL_DESTNODE
     KL_LGNPND$                            B$TCB$                                KL_PCD
     KL_STATION                            B_VECTNIL

  ****  Segment refs  ****

  Flags:  r = read only, s = secondary
Flgs Name                             Flgs Name                             Flgs Name
     ISSID
PL6.E3A0      #003=KLH$SNDHSGN File=KLH$HLP.:E05TSI                              WED 07/30/97 00:50 Page:185


      988        1        /*T***********************************************************/
      989        2        /*T*                                                         */
      990        3        /*T* Copyright (c) Bull HN Information Systems Inc., 1997    */
      991        4        /*T*                                                         */
      992        5        /*T***********************************************************/
      993        6        /*D* NAME:        KLH$SNDHSGN
      994        7             PURPOSE:     To get the KL_PCD structure to the right host logon
      995        8             CALL:        CALL KLH$SNDHSGN(ERRCODE) ALTRET(LBL);
      996        9             INPUT:       KL_PCD - All the information needed to tell host
      997       10                             logon so that it may log on this device
      998       11                          KL_NODE - The node number of this host.
      999       12                          KL_DESTNODE - The node number of the destination
     1000       13                             host logon
     1001       14             OUTPUT:      KL_LGNPND - A block used to remember this pending
     1002       15                             logon. Linked onto the KL_LGNPND$ list. Only
     1003       16                             built if the destination host is not this host.
     1004       17                          KL_HSGN - A message sent to the appropriate host
     1005       18                             logon; contains the KL_PCD structure. Only sent
     1006       19                             the destination host is not this host.
     1007       20                          ERRCODE - An error code returned if the write to
     1008       21                             host logon failed.
     1009       22             DESCRIPTION: KLH$SNDHSGN's job is to get KL_PCD off to the host
     1010       23                          that this device wishes to logon to. If that host is
     1011       24                          this host, KLH$SNDHSGN simply calls KLH$HSGN passing
     1012       25                          KL_PCD. Otherwise, KLH$SNDHSGN builds a KL_HSGN
     1013       26                          message and sends it to the appropriate host. We
     1014       27                          also build a KL_LGNPND block and link it onto the
     1015       28                          KL_LGNPND$ chain. This chain is used to remember
     1016       29                          host logon processes that are currently in transit
     1017       30                          outside this (network manager) host. It is used for
     1018       31                          recovery purposes if the destination host is lost.
     1019       32                          If either the KL_LGNPND block cannot be obtained or
     1020       33                          the write to the destination host fails,
     1021       34                          KLH$SNDHSGN will ALTRETURN with the error in ERRCODE.
     1022       35        */
     1023       36
PL6.E3A0      #003=KLH$SNDHSGN File=KLH$HLP.:E05TSI                              WED 07/30/97 00:50 Page:186
     1024       37        KLH$SNDHSGN: PROC(ERRCODE) ALTRET;

     37  2 000000   000000 700200 xent  KLH$SNDHSGN  TSX0  ! X66_AUTO_1
         2 000001   000122 000001                    ZERO    82,1

     1025       38
     1026       39        %INCLUDE CP_6;
     1027      120        %INCLUDE KC$CGBLK;
     1028      168        %INCLUDE KL_AFCN_C;
     1029      269        %INCLUDE KL_DATA_R;
     1030      733        %INCLUDE KL_MACRO_C;
     1031     4085        %INCLUDE KL_SUPER_C;
     1032     6987    1   DCL ERRCODE BIT(36) ALIGNED;
     1033     6988        %B$TCB;
     1034     6991        %B$ALT;
     1035     6999    1   DCL B$TCB$ PTR SYMREF;
     1036     7000        %KL_PCD (FPTN=KL_PCD,CG=0,STCLASS=SYMREF);
     1037     7119    1   DCL KL_STATION CHAR(8) SYMREF;
     1038     7120        %KL_HSGN (FPTN=KL_HSGN,STCLASS=AUTO,CG=1);
     1039     7306        %KL_HSGN (FPTN=KL$HSGN_TS,STCLASS=BASED,CG=0);
     1040     7446        %KL_LGNPND (FPTN=KL$LGNPND,STCLASS="BASED(PND$)");
     1041     7477        %KL_SGNRSP (FPTN=KL$SGNRSP,STCLASS="BASED(RSP$)");
     1042     7612    1   DCL RSP$ PTR;
     1043     7613    1   DCL P$ PTR;
     1044     7614    1   DCL PND$ PTR;
     1045     7615    1   DCL BSIZ UBIN;
     1046     7616    1   DCL KLB$GET ENTRY(2) ALTRET;
     1047     7617    1   DCL KLB$REL ENTRY(1) ALTRET;
     1048     7618    1   DCL KLH$HSGN ENTRY(1);
     1049     7619    1   DCL KLX$WRHLPNODE ENTRY(4) ALTRET;
     1050     7620    1   DCL KLX$WRHLPSTA  ENTRY(4) ALTRET;
     1051     7621
     1052     7622    2           IF KL_DESTNODE=KL_NODE THEN DO; /* Don't bother sending msg to self   */

   7622  2 000002   000000 236000 xsym               LDQ     KL_DESTNODE
         2 000003   000000 116000 xsym               CMPQ    KL_NODE
         2 000004   000012 601000 2                  TNZ     s:7626
PL6.E3A0      #003=KLH$SNDHSGN File=KLH$HLP.:E05TSI                              WED 07/30/97 00:50 Page:187

     1053     7623    2               CALL KLH$HSGN(KL_PCD);

   7623  2 000005   000000 630400 3                  EPPR0   0
         2 000006   000017 631400 xsym               EPPR1   B_VECTNIL+15
         2 000007   000000 701000 xent               TSX1    KLH$HSGN
         2 000010   000000 011000                    NOP     0

     1054     7624    2               RETURN;

   7624  2 000011   000000 702200 xent               TSX2  ! X66_ARET

     1055     7625    2               END;
     1056     7626    1           KL_HSGN='0'B;

   7626  2 000012   000100 100400                    MLR     fill='000'O
         2 000013   000002 000001 xsym               ADSC9   B_VECTNIL+2              cn=0,n=1
         2 000014   200004 000424                    ADSC9   KL_HSGN,,AUTO            cn=0,n=276

     1057     7627    1           KL_HSGN.FCN=IGA_HSGN;

   7627  2 000015   106000 236003                    LDQ     35840,DU
         2 000016   200004 552140                    STBQ    KL_HSGN,'40'O,AUTO

     1058     7628    1           KL_HSGN.PCD=KL_PCD;

   7628  2 000017   000100 100400                    MLR     fill='000'O
         2 000020   000000 000144 xsym               ADSC9   KL_PCD                   cn=0,n=100
         2 000021   200005 000420                    ADSC9   KL_HSGN+1,,AUTO          cn=0,n=272

     1059     7629    1           BSIZ=SIZEC(KL$LGNPND);

   7629  2 000022   000030 235007                    LDA     24,DL
         2 000023   200114 755100                    STA     BSIZ,,AUTO

     1060     7630    2           CALL KLB$GET(PND$,BSIZ) WHENALTRETURN DO;

PL6.E3A0      #003=KLH$SNDHSGN File=KLH$HLP.:E05TSI                              WED 07/30/97 00:50 Page:188
   7630  2 000024   200114 630500                    EPPR0   BSIZ,,AUTO
         2 000025   200117 450500                    STP0    BSIZ+3,,AUTO
         2 000026   200113 631500                    EPPR1   PND$,,AUTO
         2 000027   200116 451500                    STP1    BSIZ+2,,AUTO
         2 000030   200116 630500                    EPPR0   BSIZ+2,,AUTO
         2 000031   000020 631400 xsym               EPPR1   B_VECTNIL+16
         2 000032   000000 701000 xent               TSX1    KLB$GET
         2 000033   000035 702000 2                  TSX2    s:7631
         2 000034   000043 710000 2                  TRA     s:7634

     1061     7631    2               ERRCODE=B$TCB$->B$TCB.ALT$->B$ALT.ERR;

   7631  2 000035   000000 470400 xsym               LDP0    B$TCB$
         2 000036   000000 471500                    LDP1    0,,PR0
         2 000037   100102 236100                    LDQ     66,,PR1
         2 000040   200003 473500                    LDP3    @ERRCODE,,AUTO
         2 000041   300000 756100                    STQ     0,,PR3

     1062     7632    2               ALTRETURN;

   7632  2 000042   000000 702200 xent               TSX2  ! X66_AALT

     1063     7633    2               END;
     1064     7634    1           KL$LGNPND='0'B;

   7634  2 000043   200113 470500                    LDP0    PND$,,AUTO
         2 000044   000100 100400                    MLR     fill='000'O
         2 000045   000002 000001 xsym               ADSC9   B_VECTNIL+2              cn=0,n=1
         2 000046   000000 000030                    ADSC9   0,,PR0                   cn=0,n=24

     1065     7635    1           KL$LGNPND.NODE=KL_DESTNODE;

   7635  2 000047   200113 470500                    LDP0    PND$,,AUTO
         2 000050   000000 236000 xsym               LDQ     KL_DESTNODE
         2 000051   000033 736000                    QLS     27
         2 000052   000001 552140                    STBQ    1,'40'O,PR0

PL6.E3A0      #003=KLH$SNDHSGN File=KLH$HLP.:E05TSI                              WED 07/30/97 00:50 Page:189
     1066     7636    1           KL$LGNPND.STATION=KL_STATION;

   7636  2 000053   200113 470500                    LDP0    PND$,,AUTO
         2 000054   040100 100400                    MLR     fill='040'O
         2 000055   000000 000010 xsym               ADSC9   KL_STATION               cn=0,n=8
         2 000056   000004 000010                    ADSC9   4,,PR0                   cn=0,n=8

     1067     7637    1           KL$LGNPND.SOURCE.NODE=KL_PCD.ADDD.FEX;

   7637  2 000057   200113 470500                    LDP0    PND$,,AUTO
         2 000060   000000 236000 xsym               LDQ     KL_PCD
         2 000061   000033 736000                    QLS     27
         2 000062   000003 552140                    STBQ    3,'40'O,PR0

     1068     7638    1           KL$LGNPND.SOURCE.NMID=KL_PCD.ADDD.NMID;

   7638  2 000063   000015 235000 xsym               LDA     KL_PCD+13
         2 000064   000016 236000 xsym               LDQ     KL_PCD+14
         2 000065   000022 773000                    LRL     18
         2 000066   000027 376000 xsym               ANQ     B_VECTNIL+23
         2 000067   200113 470500                    LDP0    PND$,,AUTO
         2 000070   000002 756100                    STQ     2,,PR0

     1069     7639    1           IF KL_PCD.ADDD.ATYP=%KLAT_TS#

   7639  2 000071   000000 236000 xsym               LDQ     KL_PCD
         2 000072   000777 376003                    ANQ     511,DU
         2 000073   000001 116003                    CMPQ    1,DU
         2 000074   000100 601000 2                  TNZ     s:7641

     1070     7640    1             THEN BSIZ=SIZEC(KL$HSGN_TS);

   7640  2 000075   000150 235007                    LDA     104,DL
         2 000076   200114 755100                    STA     BSIZ,,AUTO
         2 000077   000102 710000 2                  TRA     s:7642

     1071     7641    1             ELSE BSIZ=SIZEC(KL_HSGN);
PL6.E3A0      #003=KLH$SNDHSGN File=KLH$HLP.:E05TSI                              WED 07/30/97 00:50 Page:190

   7641  2 000100   000424 235007                    LDA     276,DL
         2 000101   200114 755100                    STA     BSIZ,,AUTO

     1072     7642    1           CALL KLX$WRHLPNODE(KL_HSGN,BSIZ,KL_DESTNODE)

   7642  2 000102   000001 236000 3                  LDQ     1
         2 000103   200120 756100                    STQ     BSIZ+4,,AUTO
         2 000104   200114 630500                    EPPR0   BSIZ,,AUTO
         2 000105   200117 450500                    STP0    BSIZ+3,,AUTO
         2 000106   200004 631500                    EPPR1   KL_HSGN,,AUTO
         2 000107   200116 451500                    STP1    BSIZ+2,,AUTO
         2 000110   200116 630500                    EPPR0   BSIZ+2,,AUTO
         2 000111   000021 631400 xsym               EPPR1   B_VECTNIL+17
         2 000112   000000 701000 xent               TSX1    KLX$WRHLPNODE
         2 000113   000117 702000 2                  TSX2    s:7647

     1073     7643    2             WHENRETURN DO;

     1074     7644    2               KL_LGNPND$=PND$;

   7644  2 000114   200113 236100                    LDQ     PND$,,AUTO
         2 000115   000000 756000 xsym               STQ     KL_LGNPND$

     1075     7645    2               END;

   7645  2 000116   000133 710000 2                  TRA     s:7651

     1076     7646    2             WHENALTRETURN DO;

     1077     7647    2               ERRCODE=B$TCB$->B$TCB.ALT$->B$ALT.ERR;

   7647  2 000117   000000 470400 xsym               LDP0    B$TCB$
         2 000120   000000 471500                    LDP1    0,,PR0
         2 000121   100102 236100                    LDQ     66,,PR1
         2 000122   200003 473500                    LDP3    @ERRCODE,,AUTO
         2 000123   300000 756100                    STQ     0,,PR3
PL6.E3A0      #003=KLH$SNDHSGN File=KLH$HLP.:E05TSI                              WED 07/30/97 00:50 Page:191

     1078     7648    2               CALL KLB$REL(PND$);

   7648  2 000124   200113 630500                    EPPR0   PND$,,AUTO
         2 000125   200116 450500                    STP0    BSIZ+2,,AUTO
         2 000126   200116 630500                    EPPR0   BSIZ+2,,AUTO
         2 000127   000017 631400 xsym               EPPR1   B_VECTNIL+15
         2 000130   000000 701000 xent               TSX1    KLB$REL
         2 000131   000000 011000                    NOP     0

     1079     7649    2               ALTRETURN;

   7649  2 000132   000000 702200 xent               TSX2  ! X66_AALT

     1080     7650    2               END;
     1081     7651    1           KL$LGNPND.LNK$=KL_LGNPND$;

   7651  2 000133   200113 470500                    LDP0    PND$,,AUTO
         2 000134   000000 756100                    STQ     0,,PR0

     1082     7652    1           RETURN;

   7652  2 000135   000000 702200 xent               TSX2  ! X66_ARET

     1083     7653
     1084     7654        /*D* NAME:        KLH$SGNRSP
     1085     7655             PURPOSE:     To forward the KL_SGNRSP to the station which sent the KL_SGN
     1086     7656             DESCRIPTION: Simply forwards the message and releases the
     1087     7657                          KL_LGNPND block used to remember which station to
     1088     7658                          return this message to.
     1089     7659        */
     1090     7660
     1091     7661    1   KLH$SGNRSP: ENTRY ALTRET;               /*!!!DOESN'T ALTRET!!!*/

   7661  2 000136   000000 700200 xent  KLH$SGNRSP   TSX0  ! X66_AUTO_1
         2 000137   000122 000001                    ZERO    82,1

PL6.E3A0      #003=KLH$SNDHSGN File=KLH$HLP.:E05TSI                              WED 07/30/97 00:50 Page:192
     1092     7662
     1093     7663    1           RSP$=ADDR(KL_RDBF);

   7663  2 000140   000002 236000 3                  LDQ     2
         2 000141   200111 756100                    STQ     RSP$,,AUTO

     1094     7664    1           P$=ADDR(NIL);

   7664  2 000142   000001 236000 xsym               LDQ     B_VECTNIL+1
         2 000143   200112 756100                    STQ     P$,,AUTO

     1095     7665    1           PND$=KL_LGNPND$;

   7665  2 000144   000000 236000 xsym               LDQ     KL_LGNPND$
         2 000145   200113 756100                    STQ     PND$,,AUTO

     1096     7666    2           DO WHILE(PND$~=ADDR(NIL));

   7666  2 000146   000213 710000 2                  TRA     s:7681

     1097     7667    2             IF KL$LGNPND.SOURCE.NMID=KL$SGNRSP.NMID

   7667  2 000147   200113 470500                    LDP0    PND$,,AUTO
         2 000150   200111 471500                    LDP1    RSP$,,AUTO
         2 000151   000100 106500                    CMPC    fill='000'O
         2 000152   000002 000004                    ADSC9   2,,PR0                   cn=0,n=4
         2 000153   100000 400004                    ADSC9   0,,PR1                   cn=2,n=4
         2 000154   000207 601000 2                  TNZ     s:7678

     1098     7668        /*         AND KL$LGNPND.SOURCE.NODE=KL$SGNRSP.SOURCE.NODE  */
     1099     7669    3               THEN DO;

     1100     7670    3                 IF P$=ADDR(NIL)

   7670  2 000155   200112 236100                    LDQ     P$,,AUTO
         2 000156   000001 116000 xsym               CMPQ    B_VECTNIL+1
         2 000157   000163 601000 2                  TNZ     s:7672
PL6.E3A0      #003=KLH$SNDHSGN File=KLH$HLP.:E05TSI                              WED 07/30/97 00:50 Page:193

     1101     7671    3                   THEN KL_LGNPND$=KL$LGNPND.LNK$;

   7671  2 000160   000000 236100                    LDQ     0,,PR0
         2 000161   000000 756000 xsym               STQ     KL_LGNPND$
         2 000162   000166 710000 2                  TRA     s:7673

     1102     7672    3                   ELSE P$->KL$LGNPND.LNK$=KL$LGNPND.LNK$;

   7672  2 000163   000000 236100                    LDQ     0,,PR0
         2 000164   200112 473500                    LDP3    P$,,AUTO
         2 000165   300000 756100                    STQ     0,,PR3

     1103     7673    3                 CALL KLX$WRHLPSTA(KL$SGNRSP,KL_MARS,KL$LGNPND.STATION);

   7673  2 000166   200113 236100                    LDQ     PND$,,AUTO
         2 000167   000004 036003                    ADLQ    4,DU
         2 000170   200120 756100                    STQ     BSIZ+4,,AUTO
         2 000171   000003 236000 3                  LDQ     3
         2 000172   200111 235100                    LDA     RSP$,,AUTO
         2 000173   200116 757100                    STAQ    BSIZ+2,,AUTO
         2 000174   200116 630500                    EPPR0   BSIZ+2,,AUTO
         2 000175   000021 631400 xsym               EPPR1   B_VECTNIL+17
         2 000176   000000 701000 xent               TSX1    KLX$WRHLPSTA
         2 000177   000000 011000                    NOP     0

     1104     7674    3                 CALL KLB$REL(PND$);

   7674  2 000200   200113 630500                    EPPR0   PND$,,AUTO
         2 000201   200116 450500                    STP0    BSIZ+2,,AUTO
         2 000202   200116 630500                    EPPR0   BSIZ+2,,AUTO
         2 000203   000017 631400 xsym               EPPR1   B_VECTNIL+15
         2 000204   000000 701000 xent               TSX1    KLB$REL
         2 000205   000000 011000                    NOP     0

     1105     7675    3                 RETURN;

PL6.E3A0      #003=KLH$SNDHSGN File=KLH$HLP.:E05TSI                              WED 07/30/97 00:50 Page:194
   7675  2 000206   000000 702200 xent               TSX2  ! X66_ARET

     1106     7676    3                 END;
     1107     7677    3               ELSE DO;

     1108     7678    3                 P$=PND$;

   7678  2 000207   200113 236100                    LDQ     PND$,,AUTO
         2 000210   200112 756100                    STQ     P$,,AUTO

     1109     7679    3                 PND$=KL$LGNPND.LNK$;

   7679  2 000211   000000 236100                    LDQ     0,,PR0
         2 000212   200113 756100                    STQ     PND$,,AUTO

     1110     7680    3                 END;

     1111     7681    2             END;

   7681  2 000213   000001 116000 xsym               CMPQ    B_VECTNIL+1
         2 000214   000147 601000 2                  TNZ     s:7667

     1112     7682        /* If we get here because we didn't find a KL$LGNPND that matched, it is OK; */
     1113     7683        /* the KL_SGN-originating node will have left us for a better silicon        */
     1114     7684        /* field somewhere.                                                          */
     1115     7685    1           RETURN;

   7685  2 000215   000000 702200 xent               TSX2  ! X66_ARET
     1116     7686    1   END KLH$SNDHSGN;
     1117     7687        %EOD;

PL6.E3A0      #003=KLH$SNDHSGN File=KLH$HLP.:E05TSI                              WED 07/30/97 00:50 Page:195
--  Include file information  --

   KL_SUPER_C.:E05TOU  is referenced.
   KL_MACRO_C.:E05TOU  is referenced.
   KL_NETWORK_M.:E05TOU  is referenced.
   OC$MESSHD_C.:E05TOU  is referenced.
   KL_DATA_R.:E05TOU  cannot be made into a system file and is referenced.
   KL_AFCN_C.:E05TOU  is referenced.
   KC$CGBLK.:E05TOU  is referenced.
   CP_6.:E05TOU  cannot be made into a system file and is referenced.
   B$JIT_C.:E05TOU  was found in the system file and is never referenced.
   CP_6_C.:E05TOU  was found in the system file and is referenced.
      No diagnostics issued in procedure KLH$SNDHSGN.
PL6.E3A0      #003=KLH$SNDHSGN File=KLH$HLP.:E05TSI                              WED 07/30/97 00:50 Page:196

 **** Variables and constants ****

  ****  Auto variables  ****

  ****  Scalars and arrays  ****
OctLoc.c.b A Datatyp(siz) R M Lvl/name                 OctLoc.c.b A Datatyp(siz) R M Lvl/name

     3-0-0/w PTR         r     1 @ERRCODE                 114-0-0/w UBIN        r     1 BSIZ
    *0-0-0/w BIT         r     1 ERRCODE                    4-0-0/w STRC(2484)  r     1 KL_HSGN
   112-0-0/w PTR         r     1 P$                       113-0-0/w PTR         r     1 PND$
   111-0-0/w PTR         r     1 RSP$

  ****  SYMREF variables  ****

  ****  Scalars and arrays  ****
OctLoc.c.b A Datatyp(siz) R M Lvl/name                 OctLoc.c.b A Datatyp(siz) R M Lvl/name

     0-0-0/w PTR         r     1 B$TCB$                     0-0-0/w UBIN        r     1 KL_DESTNODE
     0-0-0/w PTR         r     1 KL_LGNPND$                 0-0-0/w UBIN        r     1 KL_MARS
     0-0-0/w UBIN        r     1 KL_NODE                    0-0-0/c STRC(900)   r     1 KL_PCD
     0-0-0/w STRC(1260)  r     1 KL_RDBF                    0-0-0/c CHAR(8)     r     1 KL_STATION

  ****  BASED and DCB variables  ****

  ****  Scalars and arrays  ****
OctLoc.c.b A Datatyp(siz) R M Lvl/name                 OctLoc.c.b A Datatyp(siz) R M Lvl/name

     0-0-0/w STRC(2448)  r     1 B$ALT                      0-0-0/w STRC(144)   r     1 B$TCB
     0-0-0/w STRC(936)   r     1 KL$HSGN_TS                 0-0-0/w STRC(216)   r     1 KL$LGNPND
     0-0-0/w STRC(297)   r     1 KL$SGNRSP


   Procedure KLH$SNDHSGN requires 142 words for executable code.
   Procedure KLH$SNDHSGN requires 82 words of local(AUTO) storage.
PL6.E3A0      #003=KLH$SNDHSGN File=KLH$HLP.:E05TSI                              WED 07/30/97 00:50 Page:197
          *** CROSS REFERENCE LISTING ***
**     DENOTES     IDENTIFIER DEFINITION
<<                 IDENTIFIER'S VALUE SET
>>                 IDENTIFIER'S VALUE USED
<>                 IDENTIFIER SET AND/OR USED
--                 IDENTIFIER REFERENCED
PL6.E3A0      #003=KLH$SNDHSGN File=KLH$HLP.:E05TSI                              WED 07/30/97 00:50 Page:198
          MINI XREF LISTING

B$ALT.CODE
      6993**DCL      6993--REDEF    6994--REDEF    6994--REDEF
B$ALT.ERR
      6994**DCL      7631>>ASSIGN   7647>>ASSIGN
B$ALT.ERR.ERR#
      6995**DCL      6995--REDEF
B$ALT.EVID
      6994**DCL      6994--REDEF    6994--REDEF
B$TCB.ALT$
      6989**DCL      7631>>ASSIGN   7647>>ASSIGN
B$TCB$
      6999**DCL      7631>>ASSIGN   7647>>ASSIGN
BSIZ
      7615**DCL      7629<<ASSIGN   7630<>CALL     7640<<ASSIGN   7641<<ASSIGN   7642<>CALL
ERRCODE
      6987**DCL        37--PROC     7631<<ASSIGN   7647<<ASSIGN
KL$HSGN_TS
      7321**DCL      7640--ASSIGN
KL$HSGN_TS.PCD.ADDD.CINFO
      7391**DCL      7395--REDEF
KL$HSGN_TS.PCD.ADDD.DEVNM
      7384**DCL      7385--REDEF
KL$HSGN_TS.PCD.ADDD.NMID
      7398**DCL      7399--REDEF
KL$LGNPND
      7459**DCL      7629--ASSIGN   7634<<ASSIGN
KL$LGNPND.LNK$
      7460**DCL      7651<<ASSIGN   7671>>ASSIGN   7672<<ASSIGN   7672>>ASSIGN   7679>>ASSIGN
KL$LGNPND.NODE
      7462**DCL      7635<<ASSIGN
KL$LGNPND.SOURCE.NMID
      7466**DCL      7638<<ASSIGN   7667>>IF
PL6.E3A0      #003=KLH$SNDHSGN File=KLH$HLP.:E05TSI                              WED 07/30/97 00:50 Page:199
KL$LGNPND.SOURCE.NODE
      7470**DCL      7637<<ASSIGN
KL$LGNPND.STATION
      7473**DCL      7636<<ASSIGN   7673<>CALL
KL$SGNRSP
      7492**DCL      7673<>CALL
KL$SGNRSP.NMID
      7505**DCL      7508--REDEF    7667>>IF
KL$SGNRSP.TERMID.TERM
      7595**DCL      7604--REDEF
KLB$GET
      7616**DCL-ENT  7630--CALL
KLB$REL
      7617**DCL-ENT  7648--CALL     7674--CALL
KLH$HSGN
      7618**DCL-ENT  7623--CALL
KLX$WRHLPNODE
      7619**DCL-ENT  7642--CALL
KLX$WRHLPSTA
      7620**DCL-ENT  7673--CALL
KL_AUTOFAIL.FLAGS
       573**DCL       574--REDEF
KL_AUTOFAIL.MSGID
       569**DCL       570--REDEF
KL_AUTOFAIL.WSN
       576**DCL       577--REDEF
KL_DESTNODE
       507**DCL      7622>>IF       7635>>ASSIGN   7642<>CALL
KL_FEMSG.FLAGS
       523**DCL       524--REDEF
KL_FEMSG.MSGID
       519**DCL       520--REDEF
KL_FEMSG.WSN
       526**DCL       527--REDEF
KL_HSGN
      7135**DCL      7626<<ASSIGN   7641--ASSIGN   7642<>CALL
PL6.E3A0      #003=KLH$SNDHSGN File=KLH$HLP.:E05TSI                              WED 07/30/97 00:50 Page:200
KL_HSGN.FCN
      7136**DCL      7627<<ASSIGN
KL_HSGN.PCD
      7157**DCL      7628<<ASSIGN
KL_HSGN.PCD.ADDD.CINFO
      7205**DCL      7209--REDEF
KL_HSGN.PCD.ADDD.DEVNM
      7198**DCL      7199--REDEF
KL_HSGN.PCD.ADDD.NMID
      7212**DCL      7213--REDEF
KL_HSGN.PCD.CGINFO.ATTR
      7264**DCL      7264--REDEF
KL_HSGN.PCD.CGINFO.XTRAINFO
      7267**DCL      7269--REDEF
KL_LGNPND$
       510**DCL      7644<<ASSIGN   7651>>ASSIGN   7665>>ASSIGN   7671<<ASSIGN
KL_MARS
       496**DCL      7673<>CALL
KL_NETWORK_BUF.TERMINAL_ID.TERM
       713**DCL       722--REDEF
KL_NETWORK_KEY.KEY.TERMID.TERM
       639**DCL       648--REDEF
KL_NODE
       504**DCL      7622>>IF
KL_PCD
      7015**DCL      7623<>CALL     7628>>ASSIGN
KL_PCD.ADDD.ATYP
      7040**DCL      7639>>IF
KL_PCD.ADDD.CINFO
      7065**DCL      7069--REDEF
KL_PCD.ADDD.DEVNM
      7058**DCL      7059--REDEF
KL_PCD.ADDD.FEX
      7042**DCL      7637>>ASSIGN
KL_PCD.ADDD.NMID
      7072**DCL      7073--REDEF    7638>>ASSIGN
PL6.E3A0      #003=KLH$SNDHSGN File=KLH$HLP.:E05TSI                              WED 07/30/97 00:50 Page:201
KL_RDBF
       479**DCL      7663--ASSIGN
KL_RDBF.FEL#
       482**DCL       483--REDEF
KL_STATION
      7119**DCL      7636>>ASSIGN
KL_TMSG.FLAGS
       545**DCL       546--REDEF
KL_TMSG.MSGID
       541**DCL       542--REDEF
KL_TMSG.WSN
       548**DCL       549--REDEF
P$
      7613**DCL      7664<<ASSIGN   7670>>IF       7672>>ASSIGN   7678<<ASSIGN
PND$
      7614**DCL      7459--IMP-PTR  7630<>CALL     7634>>ASSIGN   7635>>ASSIGN   7636>>ASSIGN   7637>>ASSIGN
      7638>>ASSIGN   7644>>ASSIGN   7648<>CALL     7651>>ASSIGN   7665<<ASSIGN   7666>>DOWHILE  7667>>IF
      7671>>ASSIGN   7672>>ASSIGN   7673>>CALL     7674<>CALL     7678>>ASSIGN   7679<<ASSIGN   7679>>ASSIGN
RSP$
      7612**DCL      7492--IMP-PTR  7663<<ASSIGN   7667>>IF       7673>>CALL

PL6.E3A0      #004=KLH$HSGN File=KLH$HLP.:E05TSI                                 WED 07/30/97 00:51 Page:202
     1118        1        /*T***********************************************************/
     1119        2        /*T*                                                         */
     1120        3        /*T* Copyright (c) Bull HN Information Systems Inc., 1997    */
     1121        4        /*T*                                                         */
     1122        5        /*T***********************************************************/
     1123        6        /*D* NAME:        KLH$HSGN
     1124        7             PURPOSE:     To accept a KL_PCD and log the described device onto this host
     1125        8             CALL:        CALL KLH$HSGN(PCD);
     1126        9             INPUT:       PCD - A KL_PCD structure containing everything needed
     1127       10                             to log on this device
     1128       11                          KL_NODE - The node number of this host
     1129       12                          KL_NMNODE - The node number of the network manager
     1130       13                          JC_SUSR - Set if it is now legal to start users on
     1131       14                             this host.
     1132       15             OUTPUT:      o A logged on device (LDCT) onto this host (if successful)
     1133       16                          KL_SGNRSP - A response to the original KL_SGN message
     1134       17             DESCRIPTION: KLH$HSGN first checks JC_SUSR and rejects this logon
     1135       18                          outright if it is reset. JC_SUSR being reset indicates
     1136       19                          that this host is not yet ready to accept logons.
     1137       20                          KLH$HSGN accepts the PCD passed to him and
     1138       21                          tries to log on the described device. If this is
     1139       22                          a timesharing user, KLH$TSTRM is called who will in
     1140       23                          turn call M$PATHCON possibly obtaining an LDCT for
     1141       24                          the new user. If this is a comgroup device, we call
     1142       25                          M$PATHCON directly in order to attach this device
     1143       26                          to the comgroup. Once this is done, we build a
     1144       27                          KL_SGNRSP (signon response) message and send it to
     1145       28                          either KL_NMNODE if we are not the network manager
     1146       29                          or to KL_STATION if we are.
     1147       30        */
     1148       31
     1149       32        KLH$HSGN: PROC(PCD);
     1150       33
     1151       34        %INCLUDE CP_6;
     1152      115        %INCLUDE F$DCB;
     1153      164        %INCLUDE JC_MACRO_C;
     1154      278        %INCLUDE KC$CGBLK;
PL6.E3A0      #004=KLH$HSGN File=KLH$HLP.:E05TSI                                 WED 07/30/97 00:51 Page:203
     1155      326        %INCLUDE KL_AFCN_C;
     1156      427        %INCLUDE KL_DATA_R;
     1157      891        %INCLUDE KL_MACRO_C;
     1158     4243        %INCLUDE KL_ERRORS_C;
     1159     4285        %INCLUDE KL_SUBS_C;
     1160     4339        %INCLUDE KL_SUPER_C;
     1161     7241        %INCLUDE OC_MESSHD_C;
     1162     7294        %INCLUDE PC_MACRO_C;
     1163     7320        %INCLUDE QQ_MACROS_C;
     1164     7745        %INCLUDE KC_ERRORS_C;
     1165     7792        %INCLUDE JC_DATA_R;
     1166     7830        %B$TCB;
     1167     7833        %B$ALT;
     1168     7841    1   DCL B$TCB$ PTR SYMREF;
     1169     7842    1   DCL M$NETWORK DCB;
     1170     7843        %B$TERMINAL_ID (FPTN=TERMID,STCLASS=STATIC);
     1171     7872        %FPT_WRITE (FPTN=KL_WR_NETWORK,STCLASS=SYMREF);
     1172     7903        %FPT_TIME (FPTN=KL_NETWORK_TIME,STCLASS=SYMREF);
     1173     7922        %FPT_PATHCON (FPTN=FPT_PATHCON,STCLASS=SYMREF);
     1174     7937        %VLR_PATHCON (FPTN=VLR_PATHCON,STCLASS=SYMREF);
     1175     7951        %PC$HDR(STCLASS="BASED(B$DS7$)");
     1176     7955        %PC$INSTANCE(STCLASS="BASED(INSTANCE$)");
     1177     8005        %FPT_OPEN (FPTN=OPEN_TP_CNTRL,
     1178     8006                   DCB=M$TP,
     1179     8007                   FUN=IN,
     1180     8008                   ORG=RANDOM,
     1181     8009                   ACS=DS7,
     1182     8010                   ASN=FILE,
     1183     8011                   EXIST=OLDFILE,
     1184     8012                   SHARE=ALL,
     1185     8013                   CTG=YES,
     1186     8014                   ACCT=SYSACCT,
     1187     8015                   NAME=TP_CNTRL_D);
     1188     8124        %VLP_NAME (FPTN=TP_CNTRL_D,
     1189     8125                   NAME='TP_CNTRL_D');
     1190     8152        %FPT_CLOSE (FPTN=CLOSE_TP_FILE,
     1191     8153                    DCB=M$TP,
PL6.E3A0      #004=KLH$HSGN File=KLH$HLP.:E05TSI                                 WED 07/30/97 00:51 Page:204
     1192     8154                    DISP=SAVE);
     1193     8196        %VLP_ACCT     (FPTN = SYSACCT,
     1194     8197                       ACCT = ':SYS');
     1195     8210
     1196     8211
     1197     8212        %OC_MESSHD_D  (NAME=BAD_TP_CNTRL, MSG=282, DELIM=";", STCLASS=STATIC);
     1198     8225
     1199     8226        %FPT_WRITE    (FPTN=WROCMSG, DCB=M$CSCG, BUF=BAD_TP_CNTRL);
     1200     8257
     1201     8258    1   DCL M$CSCG DCB;
     1202     8259    1   DCL M$TP DCB;
     1203     8260    1   DCL INSTANCE$ PTR;
     1204     8261
     1205     8262    1   DCL B$DS7$ PTR  SYMREF;
     1206     8263
     1207     8264    1   DCL FOUND BIT(1);
     1208     8265    1   DCL LOOP  SBIN;
     1209     8266
     1210     8267        %VLP_ERRCODE(FPTN=ERRCODE);
     1211     8312    1   DCL PCD UBIN;                           /* Dummy                              */
     1212     8313    1   DCL SGNSIZ UBIN;
     1213     8314    1   DCL TPC_GRANS SBIN;
     1214     8315    1   DCL PCD$ PTR;
     1215     8316    1   DCL BASED_CHAR CHAR(1) BASED;
     1216     8317        %KL_PCD(FPTN=KL$PCD,CG=1,STCLASS="BASED(PCD$)");
     1217     8482        %KL_PCD(FPTN=KL$PCD_TS,CG=0,STCLASS="BASED(PCD$)");
     1218     8601        %KL_SGNRSP (FPTN=KL_SGNRSP,RSPSIZ=80,STCLASS=AUTO);
     1219     8736    1   DCL KL_STATION CHAR(8) SYMREF;
     1220     8737    1   DCL KLX$WRHLPSTA ENTRY(4) ALTRET;
     1221     8738    1   DCL KLX$WRHLPNODE ENTRY(4) ALTRET;
     1222     8739    1   DCL KLH$TSTRM ENTRY(2);
     1223     8740    1   DCL KLH$SGNTXT ENTRY(2);
     1224     8741    1   DCL KLX$9TO8 ENTRY(3);
     1225     8742
     1226     8743    1           PCD$=ADDR(PCD);
     1227     8744    1           KL_SGNRSP='0'B;
     1228     8745    1           KL_SGNRSP.FCN=IGA_SGNRSP;
PL6.E3A0      #004=KLH$HSGN File=KLH$HLP.:E05TSI                                 WED 07/30/97 00:51 Page:205
     1229     8746    1           KL_SGNRSP.NMID=KL$PCD.ADDD.NMID;
     1230     8747    1           TERMID.LEV = KL$PCD.ADDD.TERMID.LEV;
     1231     8748    1           CALL KLX$9TO8(KL$PCD.ADDD.TERMID.CHAN,TERMID.TERM.CHANNEL,2);
     1232     8749    1           CALL KLX$9TO8(KL$PCD.ADDD.TERMID.SUB,TERMID.TERM.SUBDEVICE,2);
     1233     8750    1           CALL KLX$9TO8(KL$PCD.ADDD.TERMID.SUBSUB,TERMID.TERM.SUBSUBDEVICE,2);
     1234     8751    1           KL_SGNRSP.TERMID = TERMID;
     1235     8752    1           KL_SGNRSP.COS = KL$PCD.ADDD.COS;
     1236     8753    2           IF ~JC_SUSR THEN DO;       /* LOGONs not yet allowed on this host     */
     1237     8754    2               CALL KLH$SGNTXT(KL_SGNRSP,%E$NFIL);
     1238     8755    2               END;
     1239     8756    1             ELSE IF KL$PCD.ADDD.ATYP=%KLAT_CG#
     1240     8757    1                 OR KL$PCD.ADDD.ATYP = %KLAT_RES#
     1241     8758    2                 THEN DO;
     1242     8759    2                   FPT_PATHCON.PCD_=VECTOR(KL$PCD);
     1243     8760    2                   CALL M$PATHCON (FPT_PATHCON)
     1244     8761    3                     WHENRETURN DO;
     1245     8762    3   LOGON_OK:           ;
     1246     8763    3                       KL_SGNRSP.RLCID=VLR_PATHCON.RLCID;
     1247     8764    3                       CALL KLX$9TO8(VLR_PATHCON.RLCID.LDCTX,KL_SGNRSP.RLCID.LDCTX,2);
     1248     8765    3                       TERMID.LEV = KL$PCD.ADDD.TERMID.LEV;
     1249     8766    3                       CALL KLX$9TO8(KL$PCD.ADDD.TERMID.CHAN,TERMID.TERM.CHANNEL,2);
     1250     8767    3                       CALL KLX$9TO8(KL$PCD.ADDD.TERMID.SUB,TERMID.TERM.SUBDEVICE,2);
     1251     8768    3                       CALL KLX$9TO8(KL$PCD.ADDD.TERMID.SUBSUB,TERMID.TERM.SUBSUBDEVICE
              8768                                ,2);
     1252     8769    3                       KL_NETWORK_KEY.KEY.TERMID = TERMID;
     1253     8770    3                       KL_NETWORK_KEY.SIZE = LENGTHC(KL_NETWORK_KEY.KEY);
     1254     8771    3                       KL_NETWORK_KEY.KEY.TERMID.TTYP = 0;
     1255     8772    3                       KL_NETWORK_BUF.DEVNM = KL$PCD.ADDD.DEVNM;
     1256     8773    3                       KL_NETWORK_BUF.ATYP = KL$PCD.ADDD.ATYP;
     1257     8774    3                       KL_NETWORK_BUF.TTYP = KL$PCD.ADDD.TERMID.TTYP;
     1258     8775    3                       KL_NETWORK_BUF.ACCT = KL$PCD.ADDD.ASSOCTRM;
     1259     8776    3                       KL_NETWORK_BUF.TERMNAME = KL$PCD.ADDD.TNAME;
     1260     8777    3                       KL_NETWORK_BUF.HLPKEY = KL_HLPKEY;
     1261     8778    3                       KL_NETWORK_KEY.KEY.NODE = KL$PCD.ADDD.FEX;
     1262     8779    3                       CALL M$TIME(KL_NETWORK_TIME);
     1263     8780    3                       KL_WR_NETWORK.KEY_ = VECTOR(KL_NETWORK_KEY);
     1264     8781    4                       CALL M$WRITE(KL_WR_NETWORK) WHENALTRETURN DO;
PL6.E3A0      #004=KLH$HSGN File=KLH$HLP.:E05TSI                                 WED 07/30/97 00:51 Page:206
     1265     8782                            /*N* ????????*/
     1266     8783    4                           END;            /* WHENALTRETURN                      */
     1267     8784    3                       END;
     1268     8785    3                     WHENALTRETURN DO;
     1269     8786    3                       ERRCODE = B$TCB$->B$TCB.ALT$->B$ALT.ERR ;
     1270     8787    3                       FOUND = '0'B;
     1271     8788    3                       IF (ERRCODE.ERR# = %E$NOTP) THEN
     1272     8789    4                         DO;
     1273     8790    4                           CALL M$OPEN(OPEN_TP_CNTRL) ALTRET(SKIPIT);
     1274     8791    4                           TPC_GRANS = DCBADDR(DCBNUM(M$TP))->F$DCB.NRECS;
     1275     8792    4                           IF PC$HDR.CURINSTANCES >
     1276     8793    4                             ((TPC_GRANS*1024)-5)/SIZEW(PC$INSTANCE) + 1 THEN
     1277     8794    4                               GOTO BAD_TP_CNTRL_D;
     1278     8795    4                           INSTANCE$=PINCRW(B$DS7$,SIZEW(PC$HDR));
     1279     8796    5                           DO LOOP = 1 TO PC$HDR.CURINSTANCES;
     1280     8797    5                             IF INSTANCE$->BASED_CHAR < '0' OR
     1281     8798    5                               INSTANCE$->BASED_CHAR > 'z' THEN
     1282     8799    5                                 GOTO BAD_TP_CNTRL_D;
     1283     8800    5                             IF INSTANCE$->BASED_CHAR > ':' AND
     1284     8801    5                               INSTANCE$->BASED_CHAR < 'A' THEN
     1285     8802    5                                 GOTO BAD_TP_CNTRL_D;
     1286     8803    5                             IF INSTANCE$->BASED_CHAR > 'Z' AND
     1287     8804    5                               INSTANCE$->BASED_CHAR < 'a' THEN
     1288     8805    5                                 GOTO BAD_TP_CNTRL_D;
     1289     8806    5                             IF (PC$INSTANCE.FLAGS.HEADER) AND
     1290     8807    5                               (PC$INSTANCE.INSTANCE_NAME =
     1291     8808    5                               KL$PCD.CGID.ACCT#) THEN
     1292     8809    6                               DO;
     1293     8810    6                                 KL_SGNRSP.MESSAGE.RSPTXT = PC$INSTANCE.HDR.MSG;
     1294     8811    6                                 KL_SGNRSP.MESSAGE.RSPSIZ = PC$INSTANCE.HDR.CNT;
     1295     8812    6                                 FOUND = '1'B;
     1296     8813    6                                 END;
     1297     8814    5                             INSTANCE$ = PINCRW(INSTANCE$,SIZEW(PC$INSTANCE));
     1298     8815    5                             END;
     1299     8816    5                           DO WHILE ('0'B);
     1300     8817    5   BAD_TP_CNTRL_D:           ; CALL M$WRITE(WROCMSG);
     1301     8818    5                             END;
PL6.E3A0      #004=KLH$HSGN File=KLH$HLP.:E05TSI                                 WED 07/30/97 00:51 Page:207
     1302     8819    4                           CALL M$CLOSE(CLOSE_TP_FILE) ALTRET(SKIPIT);
     1303     8820    4                           END;            /* ERR1.CODE = %E$NOTP                */
     1304     8821
     1305     8822    3   SKIPIT:             IF NOT FOUND THEN
     1306     8823    3                           CALL KLH$SGNTXT(KL_SGNRSP,ERRCODE);
     1307     8824    3                       IF ERRCODE.SEV = 0
     1308     8825    3                         THEN
     1309     8826    3                           GOTO LOGON_OK;
     1310     8827    3                       END;
     1311     8828    2                   END;
     1312     8829    2                 ELSE DO;
     1313     8830    2                   CALL KLH$TSTRM(KL$PCD_TS,KL_SGNRSP);
     1314     8831    2                   END;
     1315     8832
     1316     8833    1           SGNSIZ=LENGTHC(KL_SGNRSP)-LENGTHC(KL_SGNRSP.MESSAGE.RSPTXT)
     1317     8834    1             +KL_SGNRSP.MESSAGE.RSPSIZ;
     1318     8835    1           IF KL_NODE=KL_NMNODE
     1319     8836    1             THEN CALL KLX$WRHLPSTA(KL_SGNRSP,SGNSIZ,KL_STATION);
     1320     8837    1             ELSE CALL KLX$WRHLPNODE(KL_SGNRSP,SGNSIZ,KL_NMNODE);
     1321     8838    1           RETURN;
     1322     8839    1   END KLH$HSGN;
     1323     8840        %EOD;

PL6.E3A0      #004=KLH$HSGN File=KLH$HLP.:E05TSI                                 WED 07/30/97 00:51 Page:208
--  Include file information  --

   JC_DATA_R.:E05TOU  cannot be made into a system file and is referenced.
   KC_ERRORS_C.:E05TOU  is referenced.
   QQ_MACROS_C.:E05TOU  is referenced.
   PC_MACRO_C.:E05TOU  is referenced.
   OC_MESSHD_C.:E05TOU  is referenced.
   KL_SUPER_C.:E05TOU  is referenced.
   KL_SUBS_C.:E05TOU  is referenced.
   KL_ERRORS_C.:E05TOU  is referenced.
   KL_MACRO_C.:E05TOU  is referenced.
   KL_NETWORK_M.:E05TOU  is referenced.
   OC$MESSHD_C.:E05TOU  is referenced.
   KL_DATA_R.:E05TOU  cannot be made into a system file and is referenced.
   KL_AFCN_C.:E05TOU  is referenced.
   KC$CGBLK.:E05TOU  is referenced.
   JC_MACRO_C.:E05TOU  is referenced.
   F$DCB.:E05TOU  cannot be made into a system file and is referenced.
   CP_6.:E05TOU  cannot be made into a system file and is referenced.
   B$JIT_C.:E05TOU  was found in the system file and is never referenced.
   CP_6_C.:E05TOU  was found in the system file and is referenced.
      No diagnostics issued in procedure KLH$HSGN.

   Procedure KLH$HSGN requires 314 words for executable code.
   Procedure KLH$HSGN requires 42 words of local(AUTO) storage.

PL6.E3A0      #004=KLH$HSGN File=KLH$HLP.:E05TSI                                 WED 07/30/97 00:51 Page:209

 Object Unit name= KLH$HSGN                                   File name= KLH$HLP.:E05TOU
 UTS= JUL 30 '97 00:51:24.64 WED                              Compiler= PL-6/E31         Sev=      00
 SharedLib= :SHARED_SYSTEM                                    Alt SharedLib=


    ****  Control sections  ****

 Sect   Type Bound  Init  Size OctSiz  Section name(segment info)
    0   DCB   even  none     0      0  M$UC
    1   DCB   even  none     0      0  M$HLP
    2   DCB   even  none     0      0  M$NETWORK
    3   Data  even  none   117    165  KLH$HSGN
    4   DCB   even  none     0      0  M$CSCG
    5   DCB   even  none     0      0  M$TP
    6   Proc  even  none   314    472  KLH$HSGN
    7  RoData even  none    22     26  KLH$HSGN

    ****  Entry defs  ****

                              Check   Calling
                             calling  sequence
  Sect OctLoc Primary Altret sequence   type   Parms  Name
     6      0   yes            yes      Std        1  KLH$HSGN

  ****  Entry refs  ****

         Check        Calling
        calling       sequence
Altret sequence SRef   type   Args  Name
         yes           Std       3 KLX$9TO8
         yes           Std       2 KLH$SGNTXT
 yes     yes           Std       4 KLX$WRHLPSTA
 yes     yes           Std       4 KLX$WRHLPNODE
         yes           Std       2 KLH$TSTRM
                       nStd      0 X66_AUTO_1
                       Std       0 B_CONSPOOL_D
                       nStd      0 X66_ARET
PL6.E3A0      #004=KLH$HSGN File=KLH$HLP.:E05TSI                                 WED 07/30/97 00:51 Page:210

  ****  Data refs  ****

  Flags:  r = read only, s = secondary
Flgs Name                             Flgs Name                             Flgs Name
     M$UC                                  M$HLP                                 KL_NODE
     KL_NMNODE                             KL_HLPKEY                             KL_NETWORK_KEY
     KL_NETWORK_BUF                        JC_SUSR                               B$TCB$
     M$NETWORK                             KL_WR_NETWORK                         KL_NETWORK_TIME
     FPT_PATHCON                           VLR_PATHCON                           M$CSCG
     M$TP                                  B$DS7$                                KL_STATION
     B_VECTNIL

  ****  Segment refs  ****

  Flags:  r = read only, s = secondary
Flgs Name                             Flgs Name                             Flgs Name
     ISSID                                 NULLSID                               ROSID
PL6.E3A0      #004=KLH$HSGN File=KLH$HLP.:E05TSI                                 WED 07/30/97 00:51 Page:211


     1118        1        /*T***********************************************************/
     1119        2        /*T*                                                         */
     1120        3        /*T* Copyright (c) Bull HN Information Systems Inc., 1997    */
     1121        4        /*T*                                                         */
     1122        5        /*T***********************************************************/
     1123        6        /*D* NAME:        KLH$HSGN
     1124        7             PURPOSE:     To accept a KL_PCD and log the described device onto this host
     1125        8             CALL:        CALL KLH$HSGN(PCD);
     1126        9             INPUT:       PCD - A KL_PCD structure containing everything needed
     1127       10                             to log on this device
     1128       11                          KL_NODE - The node number of this host
     1129       12                          KL_NMNODE - The node number of the network manager
     1130       13                          JC_SUSR - Set if it is now legal to start users on
     1131       14                             this host.
     1132       15             OUTPUT:      o A logged on device (LDCT) onto this host (if successful)
     1133       16                          KL_SGNRSP - A response to the original KL_SGN message
     1134       17             DESCRIPTION: KLH$HSGN first checks JC_SUSR and rejects this logon
     1135       18                          outright if it is reset. JC_SUSR being reset indicates
     1136       19                          that this host is not yet ready to accept logons.
     1137       20                          KLH$HSGN accepts the PCD passed to him and
     1138       21                          tries to log on the described device. If this is
     1139       22                          a timesharing user, KLH$TSTRM is called who will in
     1140       23                          turn call M$PATHCON possibly obtaining an LDCT for
     1141       24                          the new user. If this is a comgroup device, we call
     1142       25                          M$PATHCON directly in order to attach this device
     1143       26                          to the comgroup. Once this is done, we build a
     1144       27                          KL_SGNRSP (signon response) message and send it to
     1145       28                          either KL_NMNODE if we are not the network manager
     1146       29                          or to KL_STATION if we are.
     1147       30        */
     1148       31
     1149       32        KLH$HSGN: PROC(PCD);

     32  6 000000   000000 700200 xent  KLH$HSGN     TSX0  ! X66_AUTO_1
         6 000001   000052 000001                    ZERO    42,1

PL6.E3A0      #004=KLH$HSGN File=KLH$HLP.:E05TSI                                 WED 07/30/97 00:51 Page:212
     1150       33
     1151       34        %INCLUDE CP_6;
     1152      115        %INCLUDE F$DCB;
     1153      164        %INCLUDE JC_MACRO_C;
     1154      278        %INCLUDE KC$CGBLK;
     1155      326        %INCLUDE KL_AFCN_C;
     1156      427        %INCLUDE KL_DATA_R;
     1157      891        %INCLUDE KL_MACRO_C;
     1158     4243        %INCLUDE KL_ERRORS_C;
     1159     4285        %INCLUDE KL_SUBS_C;
     1160     4339        %INCLUDE KL_SUPER_C;
     1161     7241        %INCLUDE OC_MESSHD_C;
     1162     7294        %INCLUDE PC_MACRO_C;
     1163     7320        %INCLUDE QQ_MACROS_C;
     1164     7745        %INCLUDE KC_ERRORS_C;
     1165     7792        %INCLUDE JC_DATA_R;
     1166     7830        %B$TCB;
     1167     7833        %B$ALT;
     1168     7841    1   DCL B$TCB$ PTR SYMREF;
     1169     7842    1   DCL M$NETWORK DCB;
     1170     7843        %B$TERMINAL_ID (FPTN=TERMID,STCLASS=STATIC);
     1171     7872        %FPT_WRITE (FPTN=KL_WR_NETWORK,STCLASS=SYMREF);
     1172     7903        %FPT_TIME (FPTN=KL_NETWORK_TIME,STCLASS=SYMREF);
     1173     7922        %FPT_PATHCON (FPTN=FPT_PATHCON,STCLASS=SYMREF);
     1174     7937        %VLR_PATHCON (FPTN=VLR_PATHCON,STCLASS=SYMREF);
     1175     7951        %PC$HDR(STCLASS="BASED(B$DS7$)");
     1176     7955        %PC$INSTANCE(STCLASS="BASED(INSTANCE$)");
     1177     8005        %FPT_OPEN (FPTN=OPEN_TP_CNTRL,
     1178     8006                   DCB=M$TP,
     1179     8007                   FUN=IN,
     1180     8008                   ORG=RANDOM,
     1181     8009                   ACS=DS7,
     1182     8010                   ASN=FILE,
     1183     8011                   EXIST=OLDFILE,
     1184     8012                   SHARE=ALL,
     1185     8013                   CTG=YES,
     1186     8014                   ACCT=SYSACCT,
PL6.E3A0      #004=KLH$HSGN File=KLH$HLP.:E05TSI                                 WED 07/30/97 00:51 Page:213
     1187     8015                   NAME=TP_CNTRL_D);
     1188     8124        %VLP_NAME (FPTN=TP_CNTRL_D,
     1189     8125                   NAME='TP_CNTRL_D');
     1190     8152        %FPT_CLOSE (FPTN=CLOSE_TP_FILE,
     1191     8153                    DCB=M$TP,
     1192     8154                    DISP=SAVE);
     1193     8196        %VLP_ACCT     (FPTN = SYSACCT,
     1194     8197                       ACCT = ':SYS');
     1195     8210
     1196     8211
     1197     8212        %OC_MESSHD_D  (NAME=BAD_TP_CNTRL, MSG=282, DELIM=";", STCLASS=STATIC);
     1198     8225
     1199     8226        %FPT_WRITE    (FPTN=WROCMSG, DCB=M$CSCG, BUF=BAD_TP_CNTRL);
     1200     8257
     1201     8258    1   DCL M$CSCG DCB;
     1202     8259    1   DCL M$TP DCB;
     1203     8260    1   DCL INSTANCE$ PTR;
     1204     8261
     1205     8262    1   DCL B$DS7$ PTR  SYMREF;
     1206     8263
     1207     8264    1   DCL FOUND BIT(1);
     1208     8265    1   DCL LOOP  SBIN;
     1209     8266
     1210     8267        %VLP_ERRCODE(FPTN=ERRCODE);
     1211     8312    1   DCL PCD UBIN;                           /* Dummy                              */
     1212     8313    1   DCL SGNSIZ UBIN;
     1213     8314    1   DCL TPC_GRANS SBIN;
     1214     8315    1   DCL PCD$ PTR;
     1215     8316    1   DCL BASED_CHAR CHAR(1) BASED;
     1216     8317        %KL_PCD(FPTN=KL$PCD,CG=1,STCLASS="BASED(PCD$)");
     1217     8482        %KL_PCD(FPTN=KL$PCD_TS,CG=0,STCLASS="BASED(PCD$)");
     1218     8601        %KL_SGNRSP (FPTN=KL_SGNRSP,RSPSIZ=80,STCLASS=AUTO);
     1219     8736    1   DCL KL_STATION CHAR(8) SYMREF;
     1220     8737    1   DCL KLX$WRHLPSTA ENTRY(4) ALTRET;
     1221     8738    1   DCL KLX$WRHLPNODE ENTRY(4) ALTRET;
     1222     8739    1   DCL KLH$TSTRM ENTRY(2);
     1223     8740    1   DCL KLH$SGNTXT ENTRY(2);
PL6.E3A0      #004=KLH$HSGN File=KLH$HLP.:E05TSI                                 WED 07/30/97 00:51 Page:214
     1224     8741    1   DCL KLX$9TO8 ENTRY(3);
     1225     8742
     1226     8743    1           PCD$=ADDR(PCD);

   8743  6 000002   200003 236100                    LDQ     @PCD,,AUTO
         6 000003   200011 756100                    STQ     PCD$,,AUTO

     1227     8744    1           KL_SGNRSP='0'B;

   8744  6 000004   000100 100400                    MLR     fill='000'O
         6 000005   000002 000001 xsym               ADSC9   B_VECTNIL+2              cn=0,n=1
         6 000006   200012 000160                    ADSC9   KL_SGNRSP,,AUTO          cn=0,n=112

     1228     8745    1           KL_SGNRSP.FCN=IGA_SGNRSP;

   8745  6 000007   100000 236003                    LDQ     32768,DU
         6 000010   200012 552140                    STBQ    KL_SGNRSP,'40'O,AUTO

     1229     8746    1           KL_SGNRSP.NMID=KL$PCD.ADDD.NMID;

   8746  6 000011   200011 470500                    LDP0    PCD$,,AUTO
         6 000012   000100 100500                    MLR     fill='000'O
         6 000013   000015 400004                    ADSC9   13,,PR0                  cn=2,n=4
         6 000014   200012 400004                    ADSC9   KL_SGNRSP,,AUTO          cn=2,n=4

     1230     8747    1           TERMID.LEV = KL$PCD.ADDD.TERMID.LEV;

   8747  6 000015   000003 236100                    LDQ     3,,PR0
         6 000016   000011 736000                    QLS     9
         6 000017   000000 552020 3                  STBQ    TERMID,'20'O

     1231     8748    1           CALL KLX$9TO8(KL$PCD.ADDD.TERMID.CHAN,TERMID.TERM.CHANNEL,2);

   8748  6 000020   000000 236000 7                  LDQ     0
         6 000021   200050 756100                    STQ     KL_SGNRSP+30,,AUTO
         6 000022   000001 236000 7                  LDQ     1
         6 000023   200047 756100                    STQ     KL_SGNRSP+29,,AUTO
PL6.E3A0      #004=KLH$HSGN File=KLH$HLP.:E05TSI                                 WED 07/30/97 00:51 Page:215
         6 000024   200011 236100                    LDQ     PCD$,,AUTO
         6 000025   000004 036003                    ADLQ    4,DU
         6 000026   200046 756100                    STQ     KL_SGNRSP+28,,AUTO
         6 000027   200046 630500                    EPPR0   KL_SGNRSP+28,,AUTO
         6 000030   000021 631400 xsym               EPPR1   B_VECTNIL+17
         6 000031   000000 701000 xent               TSX1    KLX$9TO8
         6 000032   000000 011000                    NOP     0

     1232     8749    1           CALL KLX$9TO8(KL$PCD.ADDD.TERMID.SUB,TERMID.TERM.SUBDEVICE,2);

   8749  6 000033   000000 236000 7                  LDQ     0
         6 000034   200050 756100                    STQ     KL_SGNRSP+30,,AUTO
         6 000035   000002 236000 7                  LDQ     2
         6 000036   200047 756100                    STQ     KL_SGNRSP+29,,AUTO
         6 000037   200011 236100                    LDQ     PCD$,,AUTO
         6 000040   000003 036000 7                  ADLQ    3
         6 000041   200046 756100                    STQ     KL_SGNRSP+28,,AUTO
         6 000042   200046 630500                    EPPR0   KL_SGNRSP+28,,AUTO
         6 000043   000021 631400 xsym               EPPR1   B_VECTNIL+17
         6 000044   000000 701000 xent               TSX1    KLX$9TO8
         6 000045   000000 011000                    NOP     0

     1233     8750    1           CALL KLX$9TO8(KL$PCD.ADDD.TERMID.SUBSUB,TERMID.TERM.SUBSUBDEVICE,2);

   8750  6 000046   000000 236000 7                  LDQ     0
         6 000047   200050 756100                    STQ     KL_SGNRSP+30,,AUTO
         6 000050   000004 236000 7                  LDQ     4
         6 000051   200047 756100                    STQ     KL_SGNRSP+29,,AUTO
         6 000052   200011 236100                    LDQ     PCD$,,AUTO
         6 000053   000005 036003                    ADLQ    5,DU
         6 000054   200046 756100                    STQ     KL_SGNRSP+28,,AUTO
         6 000055   200046 630500                    EPPR0   KL_SGNRSP+28,,AUTO
         6 000056   000021 631400 xsym               EPPR1   B_VECTNIL+17
         6 000057   000000 701000 xent               TSX1    KLX$9TO8
         6 000060   000000 011000                    NOP     0

     1234     8751    1           KL_SGNRSP.TERMID = TERMID;
PL6.E3A0      #004=KLH$HSGN File=KLH$HLP.:E05TSI                                 WED 07/30/97 00:51 Page:216

   8751  6 000061   000100 100400                    MLR     fill='000'O
         6 000062   000000 000020 3                  ADSC9   TERMID                   cn=0,n=16
         6 000063   200015 400020                    ADSC9   KL_SGNRSP+3,,AUTO        cn=2,n=16

     1235     8752    1           KL_SGNRSP.COS = KL$PCD.ADDD.COS;

   8752  6 000064   200011 470500                    LDP0    PCD$,,AUTO
         6 000065   000016 236100                    LDQ     14,,PR0
         6 000066   200021 552110                    STBQ    KL_SGNRSP+7,'10'O,AUTO

     1236     8753    2           IF ~JC_SUSR THEN DO;       /* LOGONs not yet allowed on this host     */

   8753  6 000067   000000 236000 xsym               LDQ     JC_SUSR
         6 000070   400000 376003                    ANQ     -131072,DU
         6 000071   400000 676003                    ERQ     -131072,DU
         6 000072   000104 600000 6                  TZE     s:8756

     1237     8754    2               CALL KLH$SGNTXT(KL_SGNRSP,%E$NFIL);

   8754  6 000073   000006 236000 7                  LDQ     6
         6 000074   200047 756100                    STQ     KL_SGNRSP+29,,AUTO
         6 000075   200012 631500                    EPPR1   KL_SGNRSP,,AUTO
         6 000076   200046 451500                    STP1    KL_SGNRSP+28,,AUTO
         6 000077   200046 630500                    EPPR0   KL_SGNRSP+28,,AUTO
         6 000100   000020 631400 xsym               EPPR1   B_VECTNIL+16
         6 000101   000000 701000 xent               TSX1    KLH$SGNTXT
         6 000102   000000 011000                    NOP     0

     1238     8755    2               END;

   8755  6 000103   000435 710000 6                  TRA     s:8833

     1239     8756    1             ELSE IF KL$PCD.ADDD.ATYP=%KLAT_CG#

   8756  6 000104   000000 236100                    LDQ     0,,PR0
         6 000105   000777 376003                    ANQ     511,DU
PL6.E3A0      #004=KLH$HSGN File=KLH$HLP.:E05TSI                                 WED 07/30/97 00:51 Page:217
         6 000106   000002 116003                    CMPQ    2,DU
         6 000107   000112 600000 6                  TZE     s:8759
         6 000110   000003 116003                    CMPQ    3,DU
         6 000111   000425 601000 6                  TNZ     s:8830

     1240     8757    1                 OR KL$PCD.ADDD.ATYP = %KLAT_RES#
     1241     8758    2                 THEN DO;

     1242     8759    2                   FPT_PATHCON.PCD_=VECTOR(KL$PCD);

   8759  6 000112   000007 235000 7                  LDA     7
         6 000113   200011 236100                    LDQ     PCD$,,AUTO
         6 000114   000004 757000 xsym               STAQ    FPT_PATHCON+4

     1243     8760    2                   CALL M$PATHCON (FPT_PATHCON)

   8760  6 000115   000000 630400 xsym               EPPR0   FPT_PATHCON
         6 000116   530000 713400                    CLIMB   alt,+45056
         6 000117   401000 401760                    pmme    nvectors=3
         6 000120   000253 702000 6                  TSX2    s:8786

     1244     8761    3                     WHENRETURN DO;

     1245     8762    3   LOGON_OK:           ;

   8762  6 000121                       LOGON_OK     null
     1246     8763    3                       KL_SGNRSP.RLCID=VLR_PATHCON.RLCID;

   8763  6 000121   000100 100400                    MLR     fill='000'O
         6 000122   000000 000004 xsym               ADSC9   VLR_PATHCON              cn=0,n=4
         6 000123   200013 400004                    ADSC9   KL_SGNRSP+1,,AUTO        cn=2,n=4

     1247     8764    3                       CALL KLX$9TO8(VLR_PATHCON.RLCID.LDCTX,KL_SGNRSP.RLCID.LDCTX,2);

   8764  6 000124   000000 236000 7                  LDQ     0
         6 000125   200050 756100                    STQ     KL_SGNRSP+30,,AUTO
         6 000126   200014 630500                    EPPR0   KL_SGNRSP+2,,AUTO
PL6.E3A0      #004=KLH$HSGN File=KLH$HLP.:E05TSI                                 WED 07/30/97 00:51 Page:218
         6 000127   200047 450500                    STP0    KL_SGNRSP+29,,AUTO
         6 000130   000010 236000 7                  LDQ     8
         6 000131   200046 756100                    STQ     KL_SGNRSP+28,,AUTO
         6 000132   200046 630500                    EPPR0   KL_SGNRSP+28,,AUTO
         6 000133   000021 631400 xsym               EPPR1   B_VECTNIL+17
         6 000134   000000 701000 xent               TSX1    KLX$9TO8
         6 000135   000000 011000                    NOP     0

     1248     8765    3                       TERMID.LEV = KL$PCD.ADDD.TERMID.LEV;

   8765  6 000136   200011 470500                    LDP0    PCD$,,AUTO
         6 000137   000003 236100                    LDQ     3,,PR0
         6 000140   000011 736000                    QLS     9
         6 000141   000000 552020 3                  STBQ    TERMID,'20'O

     1249     8766    3                       CALL KLX$9TO8(KL$PCD.ADDD.TERMID.CHAN,TERMID.TERM.CHANNEL,2);

   8766  6 000142   000000 236000 7                  LDQ     0
         6 000143   200050 756100                    STQ     KL_SGNRSP+30,,AUTO
         6 000144   000001 236000 7                  LDQ     1
         6 000145   200047 756100                    STQ     KL_SGNRSP+29,,AUTO
         6 000146   200011 236100                    LDQ     PCD$,,AUTO
         6 000147   000004 036003                    ADLQ    4,DU
         6 000150   200046 756100                    STQ     KL_SGNRSP+28,,AUTO
         6 000151   200046 630500                    EPPR0   KL_SGNRSP+28,,AUTO
         6 000152   000021 631400 xsym               EPPR1   B_VECTNIL+17
         6 000153   000000 701000 xent               TSX1    KLX$9TO8
         6 000154   000000 011000                    NOP     0

     1250     8767    3                       CALL KLX$9TO8(KL$PCD.ADDD.TERMID.SUB,TERMID.TERM.SUBDEVICE,2);

   8767  6 000155   000000 236000 7                  LDQ     0
         6 000156   200050 756100                    STQ     KL_SGNRSP+30,,AUTO
         6 000157   000002 236000 7                  LDQ     2
         6 000160   200047 756100                    STQ     KL_SGNRSP+29,,AUTO
         6 000161   200011 236100                    LDQ     PCD$,,AUTO
         6 000162   000003 036000 7                  ADLQ    3
PL6.E3A0      #004=KLH$HSGN File=KLH$HLP.:E05TSI                                 WED 07/30/97 00:51 Page:219
         6 000163   200046 756100                    STQ     KL_SGNRSP+28,,AUTO
         6 000164   200046 630500                    EPPR0   KL_SGNRSP+28,,AUTO
         6 000165   000021 631400 xsym               EPPR1   B_VECTNIL+17
         6 000166   000000 701000 xent               TSX1    KLX$9TO8
         6 000167   000000 011000                    NOP     0

     1251     8768    3                      CALL KLX$9TO8(KL$PCD.ADDD.TERMID.SUBSUB,TERMID.TERM.SUBSUBDEVICE
              8768                                ,2);

   8768  6 000170   000000 236000 7                  LDQ     0
         6 000171   200050 756100                    STQ     KL_SGNRSP+30,,AUTO
         6 000172   000004 236000 7                  LDQ     4
         6 000173   200047 756100                    STQ     KL_SGNRSP+29,,AUTO
         6 000174   200011 236100                    LDQ     PCD$,,AUTO
         6 000175   000005 036003                    ADLQ    5,DU
         6 000176   200046 756100                    STQ     KL_SGNRSP+28,,AUTO
         6 000177   200046 630500                    EPPR0   KL_SGNRSP+28,,AUTO
         6 000200   000021 631400 xsym               EPPR1   B_VECTNIL+17
         6 000201   000000 701000 xent               TSX1    KLX$9TO8
         6 000202   000000 011000                    NOP     0

     1252     8769    3                       KL_NETWORK_KEY.KEY.TERMID = TERMID;

   8769  6 000203   000000 100400                    MLR     fill='000'O
         6 000204   000000 000020 3                  ADSC9   TERMID                   cn=0,n=16
         6 000205   000000 600020 xsym               ADSC9   KL_NETWORK_KEY           cn=3,n=16

     1253     8770    3                       KL_NETWORK_KEY.SIZE = LENGTHC(KL_NETWORK_KEY.KEY);

   8770  6 000206   022000 236003                    LDQ     9216,DU
         6 000207   000000 552040 xsym               STBQ    KL_NETWORK_KEY,'40'O

     1254     8771    3                       KL_NETWORK_KEY.KEY.TERMID.TTYP = 0;

   8771  6 000210   000000 236003                    LDQ     0,DU
         6 000211   000000 552004 xsym               STBQ    KL_NETWORK_KEY,'04'O

PL6.E3A0      #004=KLH$HSGN File=KLH$HLP.:E05TSI                                 WED 07/30/97 00:51 Page:220
     1255     8772    3                       KL_NETWORK_BUF.DEVNM = KL$PCD.ADDD.DEVNM;

   8772  6 000212   200011 470500                    LDP0    PCD$,,AUTO
         6 000213   040000 100500                    MLR     fill='040'O
         6 000214   000005 400010                    ADSC9   5,,PR0                   cn=2,n=8
         6 000215   000003 400010 xsym               ADSC9   KL_NETWORK_BUF+3         cn=2,n=8

     1256     8773    3                       KL_NETWORK_BUF.ATYP = KL$PCD.ADDD.ATYP;

   8773  6 000216   000000 236100                    LDQ     0,,PR0
         6 000217   000011 736000                    QLS     9
         6 000220   000001 552040 xsym               STBQ    KL_NETWORK_BUF+1,'40'O

     1257     8774    3                       KL_NETWORK_BUF.TTYP = KL$PCD.ADDD.TERMID.TTYP;

   8774  6 000221   000003 236100                    LDQ     3,,PR0
         6 000222   000022 736000                    QLS     18
         6 000223   000001 552020 xsym               STBQ    KL_NETWORK_BUF+1,'20'O

     1258     8775    3                       KL_NETWORK_BUF.ACCT = KL$PCD.ADDD.ASSOCTRM;

   8775  6 000224   040000 100500                    MLR     fill='040'O
         6 000225   000011 400010                    ADSC9   9,,PR0                   cn=2,n=8
         6 000226   000001 400010 xsym               ADSC9   KL_NETWORK_BUF+1         cn=2,n=8

     1259     8776    3                       KL_NETWORK_BUF.TERMNAME = KL$PCD.ADDD.TNAME;

   8776  6 000227   040000 100500                    MLR     fill='040'O
         6 000230   000007 400010                    ADSC9   7,,PR0                   cn=2,n=8
         6 000231   000005 600010 xsym               ADSC9   KL_NETWORK_BUF+5         cn=3,n=8

     1260     8777    3                       KL_NETWORK_BUF.HLPKEY = KL_HLPKEY;

   8777  6 000232   000000 100400                    MLR     fill='000'O
         6 000233   000000 000025 xsym               ADSC9   KL_HLPKEY                cn=0,n=21
         6 000234   000013 600040 xsym               ADSC9   KL_NETWORK_BUF+11        cn=3,n=32

PL6.E3A0      #004=KLH$HSGN File=KLH$HLP.:E05TSI                                 WED 07/30/97 00:51 Page:221
     1261     8778    3                       KL_NETWORK_KEY.KEY.NODE = KL$PCD.ADDD.FEX;

   8778  6 000235   000000 236100                    LDQ     0,,PR0
         6 000236   000011 736000                    QLS     9
         6 000237   000000 552010 xsym               STBQ    KL_NETWORK_KEY,'10'O

     1262     8779    3                       CALL M$TIME(KL_NETWORK_TIME);

   8779  6 000240   000000 630400 xsym               EPPR0   KL_NETWORK_TIME
         6 000241   020004 713400                    CLIMB   8196
         6 000242   402000 401760                    pmme    nvectors=5

     1263     8780    3                       KL_WR_NETWORK.KEY_ = VECTOR(KL_NETWORK_KEY);

   8780  6 000243   000012 237000 7                  LDAQ    10
         6 000244   000002 757000 xsym               STAQ    KL_WR_NETWORK+2

     1264     8781    4                       CALL M$WRITE(KL_WR_NETWORK) WHENALTRETURN DO;

   8781  6 000245   000000 630400 xsym               EPPR0   KL_WR_NETWORK
         6 000246   440001 713400                    CLIMB   alt,write
         6 000247   401400 401760                    pmme    nvectors=4
         6 000250   000252 702000 6                  TSX2    s:8784
         6 000251   000252 710000 6                  TRA     s:8784

     1265     8782                            /*N* ????????*/
     1266     8783    4                           END;            /* WHENALTRETURN                      */

     1267     8784    3                       END;

   8784  6 000252   000424 710000 6                  TRA     s:8828

     1268     8785    3                     WHENALTRETURN DO;

     1269     8786    3                       ERRCODE = B$TCB$->B$TCB.ALT$->B$ALT.ERR ;

   8786  6 000253   000000 470400 xsym               LDP0    B$TCB$
PL6.E3A0      #004=KLH$HSGN File=KLH$HLP.:E05TSI                                 WED 07/30/97 00:51 Page:222
         6 000254   000000 471500                    LDP1    0,,PR0
         6 000255   100102 236100                    LDQ     66,,PR1
         6 000256   000164 756000 3                  STQ     ERRCODE

     1270     8787    3                       FOUND = '0'B;

   8787  6 000257   200005 450100                    STZ     FOUND,,AUTO

     1271     8788    3                       IF (ERRCODE.ERR# = %E$NOTP) THEN

   8788  6 000260   000164 236000 3                  LDQ     ERRCODE
         6 000261   377770 376007                    ANQ     131064,DL
         6 000262   016030 116007                    CMPQ    7192,DL
         6 000263   000407 601000 6                  TNZ     SKIPIT

     1272     8789    4                         DO;

     1273     8790    4                           CALL M$OPEN(OPEN_TP_CNTRL) ALTRET(SKIPIT);

   8790  6 000264   000004 630400 3                  EPPR0   OPEN_TP_CNTRL
         6 000265   450000 713400                    CLIMB   alt,open
         6 000266   410400 401760                    pmme    nvectors=18
         6 000267   000407 702000 6                  TSX2    SKIPIT

     1274     8791    4                           TPC_GRANS = DCBADDR(DCBNUM(M$TP))->F$DCB.NRECS;

   8791  6 000270   000000 236007 xsym               LDQ     M$TP,DL
         6 000271   000014 470400 7                  LDP0    12
         6 000272   000000 471500                    LDP1    0,,PR0
         6 000273   100000 473506                    LDP3    0,QL,PR1
         6 000274   300042 235100                    LDA     34,,PR3
         6 000275   200010 755100                    STA     TPC_GRANS,,AUTO

     1275     8792    4                           IF PC$HDR.CURINSTANCES >

   8792  6 000276   200010 236100                    LDQ     TPC_GRANS,,AUTO
         6 000277   000012 736000                    QLS     10
PL6.E3A0      #004=KLH$HSGN File=KLH$HLP.:E05TSI                                 WED 07/30/97 00:51 Page:223
         6 000300   000005 136007                    SBLQ    5,DL
         6 000301   000113 506007                    DIV     75,DL
         6 000302   000000 473400 xsym               LDP3    B$DS7$
         6 000303   000001 036007                    ADLQ    1,DL
         6 000304   000400 604000 6                  TMI     BAD_TP_CNTRL_D
         6 000305   300000 116100                    CMPQ    0,,PR3
         6 000306   000400 602000 6                  TNC     BAD_TP_CNTRL_D

     1276     8793    4                             ((TPC_GRANS*1024)-5)/SIZEW(PC$INSTANCE) + 1 THEN
     1277     8794    4                               GOTO BAD_TP_CNTRL_D;
     1278     8795    4                           INSTANCE$=PINCRW(B$DS7$,SIZEW(PC$HDR));

   8795  6 000307   000000 236000 xsym               LDQ     B$DS7$
         6 000310   000001 036003                    ADLQ    1,DU
         6 000311   200004 756100                    STQ     INSTANCE$,,AUTO

     1279     8796    5                           DO LOOP = 1 TO PC$HDR.CURINSTANCES;

   8796  6 000312   000001 235007                    LDA     1,DL
         6 000313   200006 755100                    STA     LOOP,,AUTO
         6 000314   000372 710000 6                  TRA     s:8815+1

     1280     8797    5                             IF INSTANCE$->BASED_CHAR < '0' OR

   8797  6 000315   200004 470500                    LDP0    INSTANCE$,,AUTO
         6 000316   040000 106500                    CMPC    fill='040'O
         6 000317   000000 000001                    ADSC9   0,,PR0                   cn=0,n=1
         6 000320   000015 000001 7                  ADSC9   13                       cn=0,n=1
         6 000321   000400 602000 6                  TNC     BAD_TP_CNTRL_D
         6 000322   040100 106400                    CMPC    fill='040'O
         6 000323   000016 000001 7                  ADSC9   14                       cn=0,n=1
         6 000324   000000 000001                    ADSC9   0,,PR0                   cn=0,n=1
         6 000325   000400 602000 6                  TNC     BAD_TP_CNTRL_D

     1281     8798    5                               INSTANCE$->BASED_CHAR > 'z' THEN
     1282     8799    5                                 GOTO BAD_TP_CNTRL_D;
     1283     8800    5                             IF INSTANCE$->BASED_CHAR > ':' AND
PL6.E3A0      #004=KLH$HSGN File=KLH$HLP.:E05TSI                                 WED 07/30/97 00:51 Page:224

   8800  6 000326   040100 106400                    CMPC    fill='040'O
         6 000327   000017 000001 7                  ADSC9   15                       cn=0,n=1
         6 000330   000000 000001                    ADSC9   0,,PR0                   cn=0,n=1
         6 000331   000336 603000 6                  TRC     s:8803
         6 000332   040000 106500                    CMPC    fill='040'O
         6 000333   000000 000001                    ADSC9   0,,PR0                   cn=0,n=1
         6 000334   000020 000001 7                  ADSC9   16                       cn=0,n=1
         6 000335   000400 602000 6                  TNC     BAD_TP_CNTRL_D

     1284     8801    5                               INSTANCE$->BASED_CHAR < 'A' THEN
     1285     8802    5                                 GOTO BAD_TP_CNTRL_D;
     1286     8803    5                             IF INSTANCE$->BASED_CHAR > 'Z' AND

   8803  6 000336   040100 106400                    CMPC    fill='040'O
         6 000337   000021 000001 7                  ADSC9   17                       cn=0,n=1
         6 000340   000000 000001                    ADSC9   0,,PR0                   cn=0,n=1
         6 000341   000346 603000 6                  TRC     s:8806
         6 000342   040000 106500                    CMPC    fill='040'O
         6 000343   000000 000001                    ADSC9   0,,PR0                   cn=0,n=1
         6 000344   000022 000001 7                  ADSC9   18                       cn=0,n=1
         6 000345   000400 602000 6                  TNC     BAD_TP_CNTRL_D

     1287     8804    5                               INSTANCE$->BASED_CHAR < 'a' THEN
     1288     8805    5                                 GOTO BAD_TP_CNTRL_D;
     1289     8806    5                             IF (PC$INSTANCE.FLAGS.HEADER) AND

   8806  6 000346   000003 236100                    LDQ     3,,PR0
         6 000347   100000 316003                    CANQ    32768,DU
         6 000350   000366 600000 6                  TZE     s:8814
         6 000351   200011 471500                    LDP1    PCD$,,AUTO
         6 000352   040100 106500                    CMPC    fill='040'O
         6 000353   000000 000010                    ADSC9   0,,PR0                   cn=0,n=8
         6 000354   100017 000010                    ADSC9   15,,PR1                  cn=0,n=8
         6 000355   000366 601000 6                  TNZ     s:8814

     1290     8807    5                               (PC$INSTANCE.INSTANCE_NAME =
PL6.E3A0      #004=KLH$HSGN File=KLH$HLP.:E05TSI                                 WED 07/30/97 00:51 Page:225
     1291     8808    5                               KL$PCD.CGID.ACCT#) THEN
     1292     8809    6                               DO;

     1293     8810    6                                 KL_SGNRSP.MESSAGE.RSPTXT = PC$INSTANCE.HDR.MSG;

   8810  6 000356   040100 100500                    MLR     fill='040'O
         6 000357   000004 200120                    ADSC9   4,,PR0                   cn=1,n=80
         6 000360   200022 000120                    ADSC9   KL_SGNRSP+8,,AUTO        cn=0,n=80

     1294     8811    6                                 KL_SGNRSP.MESSAGE.RSPSIZ = PC$INSTANCE.HDR.CNT;

   8811  6 000361   000004 236100                    LDQ     4,,PR0
         6 000362   000033 772000                    QRL     27
         6 000363   200021 552104                    STBQ    KL_SGNRSP+7,'04'O,AUTO

     1295     8812    6                                 FOUND = '1'B;

   8812  6 000364   400000 236003                    LDQ     -131072,DU
         6 000365   200005 756100                    STQ     FOUND,,AUTO

     1296     8813    6                                 END;

     1297     8814    5                             INSTANCE$ = PINCRW(INSTANCE$,SIZEW(PC$INSTANCE));

   8814  6 000366   200004 236100                    LDQ     INSTANCE$,,AUTO
         6 000367   000113 036003                    ADLQ    75,DU
         6 000370   200004 756100                    STQ     INSTANCE$,,AUTO

     1298     8815    5                             END;

   8815  6 000371   200006 054100                    AOS     LOOP,,AUTO
         6 000372   000000 470400 xsym               LDP0    B$DS7$
         6 000373   000000 236100                    LDQ     0,,PR0
         6 000374   000315 604000 6                  TMI     s:8797
         6 000375   200006 116100                    CMPQ    LOOP,,AUTO
         6 000376   000315 605000 6                  TPL     s:8797

PL6.E3A0      #004=KLH$HSGN File=KLH$HLP.:E05TSI                                 WED 07/30/97 00:51 Page:226
     1299     8816    5                           DO WHILE ('0'B);

   8816  6 000377   000403 710000 6                  TRA     s:8819

   8814  6 000400                       BAD_TP_CNTR* null
     1300     8817    5   BAD_TP_CNTRL_D:           ; CALL M$WRITE(WROCMSG);

   8817  6 000400   000150 630400 3                  EPPR0   WROCMSG
         6 000401   040001 713400                    CLIMB   write
         6 000402   401400 401760                    pmme    nvectors=4

     1301     8818    5                             END;

     1302     8819    4                           CALL M$CLOSE(CLOSE_TP_FILE) ALTRET(SKIPIT);

   8819  6 000403   000102 630400 3                  EPPR0   CLOSE_TP_FILE
         6 000404   450001 713400                    CLIMB   alt,close
         6 000405   406000 401760                    pmme    nvectors=13
         6 000406   000407 702000 6                  TSX2    SKIPIT

     1303     8820    4                           END;            /* ERR1.CODE = %E$NOTP                */

     1304     8821
     1305     8822    3   SKIPIT:             IF NOT FOUND THEN

   8822  6 000407   200005 234100       SKIPIT       SZN     FOUND,,AUTO
         6 000410   000421 604000 6                  TMI     s:8824

     1306     8823    3                           CALL KLH$SGNTXT(KL_SGNRSP,ERRCODE);

   8823  6 000411   000023 236000 7                  LDQ     19
         6 000412   200047 756100                    STQ     KL_SGNRSP+29,,AUTO
         6 000413   200012 630500                    EPPR0   KL_SGNRSP,,AUTO
         6 000414   200046 450500                    STP0    KL_SGNRSP+28,,AUTO
         6 000415   200046 630500                    EPPR0   KL_SGNRSP+28,,AUTO
         6 000416   000020 631400 xsym               EPPR1   B_VECTNIL+16
         6 000417   000000 701000 xent               TSX1    KLH$SGNTXT
PL6.E3A0      #004=KLH$HSGN File=KLH$HLP.:E05TSI                                 WED 07/30/97 00:51 Page:227
         6 000420   000000 011000                    NOP     0

     1307     8824    3                       IF ERRCODE.SEV = 0

   8824  6 000421   000164 236000 3                  LDQ     ERRCODE
         6 000422   000007 316007                    CANQ    7,DL
         6 000423   000121 600000 6                  TZE     LOGON_OK

     1308     8825    3                         THEN
     1309     8826    3                           GOTO LOGON_OK;
     1310     8827    3                       END;

     1311     8828    2                   END;

   8828  6 000424   000435 710000 6                  TRA     s:8833

     1312     8829    2                 ELSE DO;

     1313     8830    2                   CALL KLH$TSTRM(KL$PCD_TS,KL_SGNRSP);

   8830  6 000425   200012 631500                    EPPR1   KL_SGNRSP,,AUTO
         6 000426   200047 451500                    STP1    KL_SGNRSP+29,,AUTO
         6 000427   200011 236100                    LDQ     PCD$,,AUTO
         6 000430   200046 756100                    STQ     KL_SGNRSP+28,,AUTO
         6 000431   200046 630500                    EPPR0   KL_SGNRSP+28,,AUTO
         6 000432   000020 631400 xsym               EPPR1   B_VECTNIL+16
         6 000433   000000 701000 xent               TSX1    KLH$TSTRM
         6 000434   000000 011000                    NOP     0

     1314     8831    2                   END;

     1315     8832
     1316     8833    1           SGNSIZ=LENGTHC(KL_SGNRSP)-LENGTHC(KL_SGNRSP.MESSAGE.RSPTXT)

   8833  6 000435   200021 236100                    LDQ     KL_SGNRSP+7,,AUTO
         6 000436   000777 376007                    ANQ     511,DL
         6 000437   000040 036007                    ADLQ    32,DL
PL6.E3A0      #004=KLH$HSGN File=KLH$HLP.:E05TSI                                 WED 07/30/97 00:51 Page:228
         6 000440   200007 756100                    STQ     SGNSIZ,,AUTO

     1317     8834    1             +KL_SGNRSP.MESSAGE.RSPSIZ;
     1318     8835    1           IF KL_NODE=KL_NMNODE

   8835  6 000441   000000 236000 xsym               LDQ     KL_NODE
         6 000442   000000 116000 xsym               CMPQ    KL_NMNODE
         6 000443   000457 601000 6                  TNZ     s:8837

     1319     8836    1             THEN CALL KLX$WRHLPSTA(KL_SGNRSP,SGNSIZ,KL_STATION);

   8836  6 000444   000024 236000 7                  LDQ     20
         6 000445   200050 756100                    STQ     KL_SGNRSP+30,,AUTO
         6 000446   200007 630500                    EPPR0   SGNSIZ,,AUTO
         6 000447   200047 450500                    STP0    KL_SGNRSP+29,,AUTO
         6 000450   200012 631500                    EPPR1   KL_SGNRSP,,AUTO
         6 000451   200046 451500                    STP1    KL_SGNRSP+28,,AUTO
         6 000452   200046 630500                    EPPR0   KL_SGNRSP+28,,AUTO
         6 000453   000021 631400 xsym               EPPR1   B_VECTNIL+17
         6 000454   000000 701000 xent               TSX1    KLX$WRHLPSTA
         6 000455   000000 011000                    NOP     0
         6 000456   000471 710000 6                  TRA     s:8838

     1320     8837    1             ELSE CALL KLX$WRHLPNODE(KL_SGNRSP,SGNSIZ,KL_NMNODE);

   8837  6 000457   000025 236000 7                  LDQ     21
         6 000460   200050 756100                    STQ     KL_SGNRSP+30,,AUTO
         6 000461   200007 630500                    EPPR0   SGNSIZ,,AUTO
         6 000462   200047 450500                    STP0    KL_SGNRSP+29,,AUTO
         6 000463   200012 631500                    EPPR1   KL_SGNRSP,,AUTO
         6 000464   200046 451500                    STP1    KL_SGNRSP+28,,AUTO
         6 000465   200046 630500                    EPPR0   KL_SGNRSP+28,,AUTO
         6 000466   000021 631400 xsym               EPPR1   B_VECTNIL+17
         6 000467   000000 701000 xent               TSX1    KLX$WRHLPNODE
         6 000470   000000 011000                    NOP     0

     1321     8838    1           RETURN;
PL6.E3A0      #004=KLH$HSGN File=KLH$HLP.:E05TSI                                 WED 07/30/97 00:51 Page:229

   8838  6 000471   000000 702200 xent               TSX2  ! X66_ARET
     1322     8839    1   END KLH$HSGN;
     1323     8840        %EOD;

PL6.E3A0      #004=KLH$HSGN File=KLH$HLP.:E05TSI                                 WED 07/30/97 00:51 Page:230
--  Include file information  --

   JC_DATA_R.:E05TOU  cannot be made into a system file and is referenced.
   KC_ERRORS_C.:E05TOU  is referenced.
   QQ_MACROS_C.:E05TOU  is referenced.
   PC_MACRO_C.:E05TOU  is referenced.
   OC_MESSHD_C.:E05TOU  is referenced.
   KL_SUPER_C.:E05TOU  is referenced.
   KL_SUBS_C.:E05TOU  is referenced.
   KL_ERRORS_C.:E05TOU  is referenced.
   KL_MACRO_C.:E05TOU  is referenced.
   KL_NETWORK_M.:E05TOU  is referenced.
   OC$MESSHD_C.:E05TOU  is referenced.
   KL_DATA_R.:E05TOU  cannot be made into a system file and is referenced.
   KL_AFCN_C.:E05TOU  is referenced.
   KC$CGBLK.:E05TOU  is referenced.
   JC_MACRO_C.:E05TOU  is referenced.
   F$DCB.:E05TOU  cannot be made into a system file and is referenced.
   CP_6.:E05TOU  cannot be made into a system file and is referenced.
   B$JIT_C.:E05TOU  was found in the system file and is never referenced.
   CP_6_C.:E05TOU  was found in the system file and is referenced.
      No diagnostics issued in procedure KLH$HSGN.
PL6.E3A0      #004=KLH$HSGN File=KLH$HLP.:E05TSI                                 WED 07/30/97 00:51 Page:231

 **** Variables and constants ****

  ****  Section 003  Data  KLH$HSGN

  ****  Scalars and arrays  ****
OctLoc.c.b A Datatyp(siz) R M Lvl/name                 OctLoc.c.b A Datatyp(siz) R M Lvl/name

   142-0-0/c STRC(180)   r     1 BAD_TP_CNTRL             102-0-0/d STRC(1080)  r     1 CLOSE_TP_FILE
   164-0-0/w STRC        r     1 ERRCODE                    4-0-0/d STRC(2088)  r     1 OPEN_TP_CNTRL
   140-0-0/c STRC(72)    r     1 SYSACCT                    0-0-0/c STRC(144)   r     1 TERMID
    76-0-0/c STRC(99)    r     1 TP_CNTRL_D               150-0-0/d STRC(432)   r     1 WROCMSG

  ****  Auto variables  ****

  ****  Scalars and arrays  ****
OctLoc.c.b A Datatyp(siz) R M Lvl/name                 OctLoc.c.b A Datatyp(siz) R M Lvl/name

     3-0-0/w PTR         r     1 @PCD                       5-0-0/b BIT         r     1 FOUND
     4-0-0/w PTR         r     1 INSTANCE$                 12-0-0/w STRC(1008)  r     1 KL_SGNRSP
     6-0-0/w SBIN        r     1 LOOP                      *0-0-0/w UBIN        r     1 PCD
    11-0-0/w PTR         r     1 PCD$                       7-0-0/w UBIN        r     1 SGNSIZ
    10-0-0/w SBIN        r     1 TPC_GRANS

  ****  SYMREF variables  ****

  ****  Scalars and arrays  ****
OctLoc.c.b A Datatyp(siz) R M Lvl/name                 OctLoc.c.b A Datatyp(siz) R M Lvl/name

     0-0-0/w PTR         r     1 B$DS7$                     0-0-0/w PTR         r     1 B$TCB$
     0-0-0/d STRC(288)   r     1 FPT_PATHCON                0-0-0/w BIT         r     1 JC_SUSR
     0-0-0/d STRC(189)   r     1 KL_HLPKEY                  0-0-0/w STRC(711)   r     1 KL_NETWORK_BUF
     0-0-0/w STRC(171)   r     1 KL_NETWORK_KEY             0-0-0/d STRC(432)   r     1 KL_NETWORK_TIME
     0-0-0/w UBIN        r     1 KL_NMNODE                  0-0-0/w UBIN        r     1 KL_NODE
     0-0-0/c CHAR(8)     r     1 KL_STATION                 0-0-0/d STRC(432)   r     1 KL_WR_NETWORK
     0-0-0/d STRC        r     1 VLR_PATHCON

  ****  BASED and DCB variables  ****
PL6.E3A0      #004=KLH$HSGN File=KLH$HLP.:E05TSI                                 WED 07/30/97 00:51 Page:232

  ****  Scalars and arrays  ****
OctLoc.c.b A Datatyp(siz) R M Lvl/name                 OctLoc.c.b A Datatyp(siz) R M Lvl/name

     0-0-0/w STRC(2448)  r     1 B$ALT                      0-0-0/w STRC(144)   r     1 B$TCB
     0-0-0/c CHAR        r     1 BASED_CHAR                 0-0-0/d ASTR(3528)  r     1 F$DCB
     0-0-0/w STRC(2448)  r     1 KL$PCD                     0-0-0/c STRC(900)   r     1 KL$PCD_TS
     0-0-0N  NULL        r     1 M$CSCG                     0-0-0N  NULL        r     1 M$TP
     0-0-0/w STRC        r     1 PC$HDR                     0-0-0/w STRC(2700)  r     1 PC$INSTANCE


   Procedure KLH$HSGN requires 314 words for executable code.
   Procedure KLH$HSGN requires 42 words of local(AUTO) storage.
PL6.E3A0      #004=KLH$HSGN File=KLH$HLP.:E05TSI                                 WED 07/30/97 00:51 Page:233
          *** CROSS REFERENCE LISTING ***
**     DENOTES     IDENTIFIER DEFINITION
<<                 IDENTIFIER'S VALUE SET
>>                 IDENTIFIER'S VALUE USED
<>                 IDENTIFIER SET AND/OR USED
--                 IDENTIFIER REFERENCED
PL6.E3A0      #004=KLH$HSGN File=KLH$HLP.:E05TSI                                 WED 07/30/97 00:51 Page:234
          MINI XREF LISTING

B$ALT.CODE
      7835**DCL      7835--REDEF    7836--REDEF    7836--REDEF
B$ALT.ERR
      7836**DCL      8786>>ASSIGN
B$ALT.ERR.ERR#
      7837**DCL      7837--REDEF
B$ALT.EVID
      7836**DCL      7836--REDEF    7836--REDEF
B$DS7$
      8262**DCL      7952--IMP-PTR  8792>>IF       8795>>ASSIGN   8796>>DOINDEX
B$TCB.ALT$
      7831**DCL      8786>>ASSIGN
B$TCB$
      7841**DCL      8786>>ASSIGN
BAD_TP_CNTRL
      8213**DCL      8244--DCLINIT  8245--DCLINIT
BAD_TP_CNTRL.FLAGS
      8220**DCL      8221--REDEF
BAD_TP_CNTRL.MSGID
      8216**DCL      8217--REDEF
BAD_TP_CNTRL_D
      8814**LABEL    8794--GOTO     8799--GOTO     8802--GOTO     8805--GOTO
BASED_CHAR
      8316**DCL      8797>>IF       8797>>IF       8800>>IF       8800>>IF       8803>>IF       8803>>IF
CLOSE_TP_FILE
      8177**DCL      8819<>CALL
CLOSE_TP_FILE.SN_
      8177**DCL      8177--REDEF
CLOSE_TP_FILE.UTL_
      8178**DCL      8178--REDEF
CLOSE_TP_FILE.V
      8182**DCL      8177--DCLINIT
PL6.E3A0      #004=KLH$HSGN File=KLH$HLP.:E05TSI                                 WED 07/30/97 00:51 Page:235
CLOSE_TP_FILE.V.EXPIRE#
      8192**DCL      8192--REDEF
CLOSE_TP_FILE.V.TYPE#
      8190**DCL      8190--REDEF
CLOSE_TP_FILE.V.XTNSIZE#
      8187**DCL      8187--REDEF    8189--REDEF
ERRCODE
      8279**DCL      8786<<ASSIGN   8823<>CALL
ERRCODE.ERR#
      8309**DCL      8788>>IF
ERRCODE.SEV
      8309**DCL      8824>>IF
F$DCB.ACTPOS
       141**DCL       141--REDEF
F$DCB.ARS
       116**DCL       116--REDEF
F$DCB.ATTR
       134**DCL       135--REDEF
F$DCB.BORROW
       149**DCL       149--REDEF     149--REDEF     149--REDEF
F$DCB.DCBNAME.L
       163**DCL       163--IMP-SIZ
F$DCB.EOMCHAR
       120**DCL       120--REDEF
F$DCB.FLDID
       144**DCL       144--REDEF
F$DCB.FORM$
       138**DCL       138--REDEF
F$DCB.FSECT
       154**DCL       154--REDEF
F$DCB.FSN
       131**DCL       131--REDEF     131--REDEF     132--REDEF
F$DCB.HEADER$
       137**DCL       137--REDEF
F$DCB.IXTNSIZE
       135**DCL       135--REDEF
PL6.E3A0      #004=KLH$HSGN File=KLH$HLP.:E05TSI                                 WED 07/30/97 00:51 Page:236
F$DCB.LASTSTA$
       125**DCL       125--REDEF
F$DCB.LVL
       150**DCL       150--REDEF
F$DCB.NAME.C
       125**DCL       125--REDEF
F$DCB.NOEOF
       146**DCL       146--REDEF
F$DCB.NRECS
       136**DCL       136--REDEF    8791>>ASSIGN
F$DCB.NRECX
       155**DCL       155--REDEF
F$DCB.OHDR
       147**DCL       147--REDEF
F$DCB.ORG
       130**DCL       130--REDEF
F$DCB.PRECNO
       153**DCL       153--REDEF
F$DCB.RCSZ
       158**DCL       158--REDEF
F$DCB.RES
       126**DCL       126--REDEF
F$DCB.SETX
       138**DCL       138--REDEF
F$DCB.TAB$
       137**DCL       138--REDEF
F$DCB.TDA
       152**DCL       152--REDEF
F$DCB.WSN
       127**DCL       127--REDEF
FOUND
      8264**DCL      8787<<ASSIGN   8812<<ASSIGN   8822>>IF
FPT_PATHCON
      7933**DCL      8760<>CALL
FPT_PATHCON.PCD_
      7934**DCL      8759<<ASSIGN
PL6.E3A0      #004=KLH$HSGN File=KLH$HLP.:E05TSI                                 WED 07/30/97 00:51 Page:237
INSTANCE$
      8260**DCL      7956--IMP-PTR  8795<<ASSIGN   8797>>IF       8797>>IF       8800>>IF       8800>>IF
      8803>>IF       8803>>IF       8806>>IF       8806>>IF       8810>>ASSIGN   8811>>ASSIGN   8814<<ASSIGN
      8814>>ASSIGN
JC_SUSR
      7800**DCL      8753>>IF
KL$PCD
      8332**DCL      8759--ASSIGN
KL$PCD.ADDD.ASSOCTRM
      8380**DCL      8775>>ASSIGN
KL$PCD.ADDD.ATYP
      8357**DCL      8756>>IF       8756>>IF       8773>>ASSIGN
KL$PCD.ADDD.CINFO
      8382**DCL      8386--REDEF
KL$PCD.ADDD.COS
      8393**DCL      8752>>ASSIGN
KL$PCD.ADDD.DEVNM
      8375**DCL      8376--REDEF    8772>>ASSIGN
KL$PCD.ADDD.FEX
      8359**DCL      8778>>ASSIGN
KL$PCD.ADDD.NMID
      8389**DCL      8390--REDEF    8746>>ASSIGN
KL$PCD.ADDD.TERMID.CHAN
      8372**DCL      8748<>CALL     8766<>CALL
KL$PCD.ADDD.TERMID.LEV
      8370**DCL      8747>>ASSIGN   8765>>ASSIGN
KL$PCD.ADDD.TERMID.SUB
      8373**DCL      8749<>CALL     8767<>CALL
KL$PCD.ADDD.TERMID.SUBSUB
      8374**DCL      8750<>CALL     8768<>CALL
KL$PCD.ADDD.TERMID.TTYP
      8371**DCL      8774>>ASSIGN
KL$PCD.ADDD.TNAME
      8379**DCL      8776>>ASSIGN
KL$PCD.CGID.ACCT#
      8415**DCL      8806>>IF
PL6.E3A0      #004=KLH$HSGN File=KLH$HLP.:E05TSI                                 WED 07/30/97 00:51 Page:238
KL$PCD.CGINFO.ATTR
      8441**DCL      8441--REDEF
KL$PCD.CGINFO.XTRAINFO
      8444**DCL      8446--REDEF
KL$PCD_TS
      8497**DCL      8830<>CALL
KL$PCD_TS.ADDD.CINFO
      8547**DCL      8551--REDEF
KL$PCD_TS.ADDD.DEVNM
      8540**DCL      8541--REDEF
KL$PCD_TS.ADDD.NMID
      8554**DCL      8555--REDEF
KLH$SGNTXT
      8740**DCL-ENT  8754--CALL     8823--CALL
KLH$TSTRM
      8739**DCL-ENT  8830--CALL
KLX$9TO8
      8741**DCL-ENT  8748--CALL     8749--CALL     8750--CALL     8764--CALL     8766--CALL     8767--CALL
      8768--CALL
KLX$WRHLPNODE
      8738**DCL-ENT  8837--CALL
KLX$WRHLPSTA
      8737**DCL-ENT  8836--CALL
KL_AUTOFAIL.FLAGS
       731**DCL       732--REDEF
KL_AUTOFAIL.MSGID
       727**DCL       728--REDEF
KL_AUTOFAIL.WSN
       734**DCL       735--REDEF
KL_FEMSG.FLAGS
       681**DCL       682--REDEF
KL_FEMSG.MSGID
       677**DCL       678--REDEF
KL_FEMSG.WSN
       684**DCL       685--REDEF
KL_HLPKEY
PL6.E3A0      #004=KLH$HSGN File=KLH$HLP.:E05TSI                                 WED 07/30/97 00:51 Page:239
       751**DCL      8777>>ASSIGN
KL_NETWORK_BUF.ACCT
       849**DCL      8775<<ASSIGN
KL_NETWORK_BUF.ATYP
       847**DCL      8773<<ASSIGN
KL_NETWORK_BUF.DEVNM
       850**DCL      8772<<ASSIGN
KL_NETWORK_BUF.HLPKEY
       882**DCL      8777<<ASSIGN
KL_NETWORK_BUF.TERMINAL_ID.TERM
       871**DCL       880--REDEF
KL_NETWORK_BUF.TERMNAME
       852**DCL      8776<<ASSIGN
KL_NETWORK_BUF.TTYP
       848**DCL      8774<<ASSIGN
KL_NETWORK_KEY
       774**DCL      8780--ASSIGN
KL_NETWORK_KEY.KEY
       776**DCL      8770--ASSIGN
KL_NETWORK_KEY.KEY.NODE
       778**DCL      8778<<ASSIGN
KL_NETWORK_KEY.KEY.TERMID
       795**DCL      8769<<ASSIGN
KL_NETWORK_KEY.KEY.TERMID.TERM
       797**DCL       806--REDEF
KL_NETWORK_KEY.KEY.TERMID.TTYP
       797**DCL      8771<<ASSIGN
KL_NETWORK_KEY.SIZE
       775**DCL      8770<<ASSIGN
KL_NETWORK_TIME
      7914**DCL      8779<>CALL
KL_NMNODE
       663**DCL      8835>>IF       8837<>CALL
KL_NODE
       662**DCL      8835>>IF
KL_RDBF.FEL#
PL6.E3A0      #004=KLH$HSGN File=KLH$HLP.:E05TSI                                 WED 07/30/97 00:51 Page:240
       640**DCL       641--REDEF
KL_SGNRSP
      8616**DCL      8744<<ASSIGN   8754<>CALL     8823<>CALL     8830<>CALL     8833--ASSIGN   8836<>CALL
      8837<>CALL
KL_SGNRSP.COS
      8730**DCL      8752<<ASSIGN
KL_SGNRSP.FCN
      8617**DCL      8745<<ASSIGN
KL_SGNRSP.MESSAGE.RSPSIZ
      8733**DCL      8811<<ASSIGN   8833>>ASSIGN
KL_SGNRSP.MESSAGE.RSPTXT
      8734**DCL      8810<<ASSIGN   8833--ASSIGN
KL_SGNRSP.NMID
      8629**DCL      8632--REDEF    8746<<ASSIGN
KL_SGNRSP.RLCID
      8640**DCL      8763<<ASSIGN
KL_SGNRSP.RLCID.LDCTX
      8648**DCL      8764<>CALL
KL_SGNRSP.TERMID
      8717**DCL      8751<<ASSIGN
KL_SGNRSP.TERMID.TERM
      8719**DCL      8728--REDEF
KL_STATION
      8736**DCL      8836<>CALL
KL_TMSG.FLAGS
       703**DCL       704--REDEF
KL_TMSG.MSGID
       699**DCL       700--REDEF
KL_TMSG.WSN
       706**DCL       707--REDEF
KL_WR_NETWORK
      7889**DCL      8781<>CALL
KL_WR_NETWORK.KEY_
      7889**DCL      8780<<ASSIGN
KL_WR_NETWORK.STATION_
      7891**DCL      7891--REDEF
PL6.E3A0      #004=KLH$HSGN File=KLH$HLP.:E05TSI                                 WED 07/30/97 00:51 Page:241
KL_WR_NETWORK.V.DVBYTE.VFC#
      7898**DCL      7898--REDEF
LOGON_OK
      8762**LABEL    8826--GOTO
LOOP
      8265**DCL      8796<<DOINDEX
M$CLOSE
        43**DCL-ENT  8819--CALL
M$OPEN
        43**DCL-ENT  8790--CALL
M$PATHCON
       107**DCL-ENT  8760--CALL
M$TIME
       110**DCL-ENT  8779--CALL
M$TP
      8259**DCL      8791--ASSIGN
M$WRITE
        44**DCL-ENT  8781--CALL     8817--CALL
OPEN_TP_CNTRL
      8080**DCL      8790<>CALL
OPEN_TP_CNTRL.ACSVEH_
      8082**DCL      8083--REDEF
OPEN_TP_CNTRL.ALTKEYS_
      8088**DCL      8089--REDEF    8089--REDEF
OPEN_TP_CNTRL.HDR_
      8087**DCL      8088--REDEF
OPEN_TP_CNTRL.TAB_
      8086**DCL      8087--REDEF
OPEN_TP_CNTRL.UHL_
      8080**DCL      8081--REDEF    8081--REDEF
OPEN_TP_CNTRL.V
      8089**DCL      8080--DCLINIT
OPEN_TP_CNTRL.V.FSN#
      8120**DCL      8120--REDEF    8120--REDEF
OPEN_TP_CNTRL.WSN_
      8086**DCL      8086--REDEF
PL6.E3A0      #004=KLH$HSGN File=KLH$HLP.:E05TSI                                 WED 07/30/97 00:51 Page:242
PC$HDR
      7952**DCL      8795--ASSIGN
PC$HDR.CURINSTANCES
      7953**DCL      8792>>IF       8796>>DOINDEX
PC$INSTANCE
      7956**DCL      8792--IF       8814--ASSIGN
PC$INSTANCE.FLAGS.HEADER
      7962**DCL      8806>>IF
PC$INSTANCE.HDR.CNT
      7965**DCL      8811>>ASSIGN
PC$INSTANCE.HDR.MSG
      7966**DCL      8810>>ASSIGN
PC$INSTANCE.INSTANCE_NAME
      7957**DCL      8806>>IF
PCD
      8312**DCL        32--PROC     8743--ASSIGN
PCD$
      8315**DCL      8332--IMP-PTR  8497--IMP-PTR  8743<<ASSIGN   8746>>ASSIGN   8747>>ASSIGN   8748>>CALL
      8749>>CALL     8750>>CALL     8752>>ASSIGN   8756>>IF       8756>>IF       8759>>ASSIGN   8765>>ASSIGN
      8766>>CALL     8767>>CALL     8768>>CALL     8772>>ASSIGN   8773>>ASSIGN   8774>>ASSIGN   8775>>ASSIGN
      8776>>ASSIGN   8778>>ASSIGN   8806>>IF       8830>>CALL
SGNSIZ
      8313**DCL      8833<<ASSIGN   8836<>CALL     8837<>CALL
SKIPIT
      8822**LABEL    8790--CALLALT  8819--CALLALT
SYSACCT
      8208**DCL      8085--DCLINIT
TERMID
      7857**DCL      8751>>ASSIGN   8769>>ASSIGN
TERMID.LEV
      7861**DCL      8747<<ASSIGN   8765<<ASSIGN
TERMID.TERM
      7861**DCL      7870--REDEF
TERMID.TERM.CHANNEL
      7863**DCL      8748<>CALL     8766<>CALL
TERMID.TERM.SUBDEVICE
PL6.E3A0      #004=KLH$HSGN File=KLH$HLP.:E05TSI                                 WED 07/30/97 00:51 Page:243
      7863**DCL      8749<>CALL     8767<>CALL
TERMID.TERM.SUBSUBDEVICE
      7864**DCL      8750<>CALL     8768<>CALL
TPC_GRANS
      8314**DCL      8791<<ASSIGN   8792>>IF
TP_CNTRL_D
      8150**DCL      8081--DCLINIT
VLR_PATHCON.RLCID
      7948**DCL      8763>>ASSIGN
VLR_PATHCON.RLCID.LDCTX
      7949**DCL      8764<>CALL
WROCMSG
      8243**DCL      8817<>CALL
WROCMSG.STATION_
      8245**DCL      8245--REDEF
WROCMSG.V
      8246**DCL      8243--DCLINIT
WROCMSG.V.DVBYTE.VFC#
      8252**DCL      8252--REDEF

PL6.E3A0      #005=KLH$SGNTXT File=KLH$HLP.:E05TSI                               WED 07/30/97 00:52 Page:244
     1324        1        /*T***********************************************************/
     1325        2        /*T*                                                         */
     1326        3        /*T* Copyright (c) Bull HN Information Systems Inc., 1997    */
     1327        4        /*T*                                                         */
     1328        5        /*T***********************************************************/
     1329        6        KLH$SGNTXT: PROC (KL_SGNRSP,ERR);
     1330        7        /*D* NAME:        KLH$SGNTXT
     1331        8             PURPOSE:     To fill in KL_SGNRSP.MESSAGE and .ERRCODE from ERR
     1332        9             CALL:        CALL KLH$SGNTXT(KL_SGNRSP,ERR);
     1333       10             INPUT:       KL_SGNRSP - A signon response message
     1334       11                          ERR - Error code to be transformed into message text
     1335       12                                ERR is either a full JIT.ERR or an internal error;
     1336       13             OUTPUT:      KL_SGNRSP - The .MESSAGE and .ERRCODE fields have
     1337       14                             been filled in with a TEXTC message and the error
     1338       15                             code respectively.
     1339       16             DESCRIPTION: KLH$SGNTXT calls KLH$ERRMSG to obtain a message using
     1340       17                          as an errcode, either ERR if FCG is non-zero or
     1341       18                          KLH-ERR-E if FCG is zero. This resulting message is
     1342       19                          placed into KL_SGNRSP.MESSAGE. Finally,
     1343       20                          KL_SGNRSP.ERRCODE is set to the error code.
     1344       21        */
     1345       22        %INCLUDE KL_MACRO_C;
     1346     3374        %INCLUDE CP_6;
     1347     3455        %KL_SGNRSP (FPTN=KL_SGNRSP,RSPSIZ=80,STCLASS="");
     1348     3590    1   DCL 1 ERR ALIGNED,
     1349     3591    1         2 FCG BIT(18) UNAL,
     1350     3592    1         2 MON BIT(1) UNAL,
     1351     3593    1         2 CODE UBIN(14) UNAL,
     1352     3594    1         2 SEV UBIN(3) UNAL;
     1353     3595    1   DCL ERRUBIN REDEF ERR UBIN WORD;
     1354     3596    1   DCL 1 ERR1 ALIGNED,
     1355     3597    1         2 FCG BIT(18) UNAL,
     1356     3598    1         2 MON BIT(1) UNAL,
     1357     3599    1         2 CODE UBIN(14) UNAL,
     1358     3600    1         2 SEV UBIN(3) UNAL;
     1359     3601    1   DCL SIZE UBIN;
     1360     3602    1   DCL LCP6ERR BIT(36);
PL6.E3A0      #005=KLH$SGNTXT File=KLH$HLP.:E05TSI                               WED 07/30/97 00:52 Page:245
     1361     3603    1   DCL ERRTMPLAT BIT(36) CONSTANT ALIGNED INIT('131410400002'O);
     1362     3604    1   DCL KLH$ERRMSG ENTRY(3);
     1363     3605    1   DCL XUR$ERRTOLCP6 ENTRY(2);
     1364     3606    1           IF ERR.FCG~='0'B
     1365     3607    1             THEN ERR1=ERR;
     1366     3608    2             ELSE DO;
     1367     3609    2               ERR1=ERRTMPLAT;
     1368     3610    2               ERR1.CODE=ERRUBIN;
     1369     3611    2               END;
     1370     3612    1           CALL XUR$ERRTOLCP6(LCP6ERR,ERR1);
     1371     3613    1           KL_SGNRSP.ERRCODE = LCP6ERR;
     1372     3614    1           SIZE=LENGTHC(KL_SGNRSP.MESSAGE.RSPTXT);
     1373     3615    1           CALL KLH$ERRMSG(KL_SGNRSP.MESSAGE.RSPTXT,SIZE,ERR1);
     1374     3616    1           KL_SGNRSP.MESSAGE.RSPSIZ=SIZE;
     1375     3617    1           RETURN;
     1376     3618    1   END KLH$SGNTXT;
     1377     3619        %EOD;

PL6.E3A0      #005=KLH$SGNTXT File=KLH$HLP.:E05TSI                               WED 07/30/97 00:52 Page:246
--  Include file information  --

   CP_6.:E05TOU  cannot be made into a system file and is referenced.
   KL_MACRO_C.:E05TOU  is referenced.
   B$JIT_C.:E05TOU  was found in the system file and is never referenced.
   CP_6_C.:E05TOU  was found in the system file and is referenced.
      No diagnostics issued in procedure KLH$SGNTXT.

   Procedure KLH$SGNTXT requires 44 words for executable code.
   Procedure KLH$SGNTXT requires 12 words of local(AUTO) storage.

PL6.E3A0      #005=KLH$SGNTXT File=KLH$HLP.:E05TSI                               WED 07/30/97 00:52 Page:247

 Object Unit name= KLH$SGNTXT                                 File name= KLH$HLP.:E05TOU
 UTS= JUL 30 '97 00:52:23.12 WED                              Compiler= PL-6/E31         Sev=      00
 SharedLib= :SHARED_SYSTEM                                    Alt SharedLib=


    ****  Control sections  ****

 Sect   Type Bound  Init  Size OctSiz  Section name(segment info)
    0   DCB   even  none     0      0  M$UC
    1  RoData even  UTS      1      1  KLH$SGNTXT
    2   Proc  even  none    44     54  KLH$SGNTXT

    ****  Entry defs  ****

                              Check   Calling
                             calling  sequence
  Sect OctLoc Primary Altret sequence   type   Parms  Name
     2      0   yes            yes      Std        2  KLH$SGNTXT

  ****  Entry refs  ****

         Check        Calling
        calling       sequence
Altret sequence SRef   type   Args  Name
         yes           Std       2 XUR$ERRTOLCP6
         yes           Std       3 KLH$ERRMSG
                       nStd      0 X66_AUTO_2
                       Std       0 B_CONSPOOL_D
                       nStd      0 X66_ARET

  ****  Data refs  ****

  Flags:  r = read only, s = secondary
Flgs Name                             Flgs Name                             Flgs Name
     M$UC                                  B_VECTNIL
PL6.E3A0      #005=KLH$SGNTXT File=KLH$HLP.:E05TSI                               WED 07/30/97 00:52 Page:248


     1324        1        /*T***********************************************************/
     1325        2        /*T*                                                         */
     1326        3        /*T* Copyright (c) Bull HN Information Systems Inc., 1997    */
     1327        4        /*T*                                                         */
     1328        5        /*T***********************************************************/
     1329        6        KLH$SGNTXT: PROC (KL_SGNRSP,ERR);

      6  2 000000   000000 700200 xent  KLH$SGNTXT   TSX0  ! X66_AUTO_2
         2 000001   000014 000002                    ZERO    12,2

     1330        7        /*D* NAME:        KLH$SGNTXT
     1331        8             PURPOSE:     To fill in KL_SGNRSP.MESSAGE and .ERRCODE from ERR
     1332        9             CALL:        CALL KLH$SGNTXT(KL_SGNRSP,ERR);
     1333       10             INPUT:       KL_SGNRSP - A signon response message
     1334       11                          ERR - Error code to be transformed into message text
     1335       12                                ERR is either a full JIT.ERR or an internal error;
     1336       13             OUTPUT:      KL_SGNRSP - The .MESSAGE and .ERRCODE fields have
     1337       14                             been filled in with a TEXTC message and the error
     1338       15                             code respectively.
     1339       16             DESCRIPTION: KLH$SGNTXT calls KLH$ERRMSG to obtain a message using
     1340       17                          as an errcode, either ERR if FCG is non-zero or
     1341       18                          KLH-ERR-E if FCG is zero. This resulting message is
     1342       19                          placed into KL_SGNRSP.MESSAGE. Finally,
     1343       20                          KL_SGNRSP.ERRCODE is set to the error code.
     1344       21        */
     1345       22        %INCLUDE KL_MACRO_C;
     1346     3374        %INCLUDE CP_6;
     1347     3455        %KL_SGNRSP (FPTN=KL_SGNRSP,RSPSIZ=80,STCLASS="");
     1348     3590    1   DCL 1 ERR ALIGNED,
     1349     3591    1         2 FCG BIT(18) UNAL,
     1350     3592    1         2 MON BIT(1) UNAL,
     1351     3593    1         2 CODE UBIN(14) UNAL,
     1352     3594    1         2 SEV UBIN(3) UNAL;
     1353     3595    1   DCL ERRUBIN REDEF ERR UBIN WORD;
     1354     3596    1   DCL 1 ERR1 ALIGNED,
     1355     3597    1         2 FCG BIT(18) UNAL,
PL6.E3A0      #005=KLH$SGNTXT File=KLH$HLP.:E05TSI                               WED 07/30/97 00:52 Page:249
     1356     3598    1         2 MON BIT(1) UNAL,
     1357     3599    1         2 CODE UBIN(14) UNAL,
     1358     3600    1         2 SEV UBIN(3) UNAL;
     1359     3601    1   DCL SIZE UBIN;
     1360     3602    1   DCL LCP6ERR BIT(36);
     1361     3603    1   DCL ERRTMPLAT BIT(36) CONSTANT ALIGNED INIT('131410400002'O);
     1362     3604    1   DCL KLH$ERRMSG ENTRY(3);
     1363     3605    1   DCL XUR$ERRTOLCP6 ENTRY(2);
     1364     3606    1           IF ERR.FCG~='0'B

   3606  2 000002   200004 470500                    LDP0    @ERR,,AUTO
         2 000003   000000 220100                    LDX0    0,,PR0
         2 000004   000010 600000 2                  TZE     s:3609

     1365     3607    1             THEN ERR1=ERR;

   3607  2 000005   000000 236100                    LDQ     0,,PR0
         2 000006   200005 756100                    STQ     ERR1,,AUTO
         2 000007   000017 710000 2                  TRA     s:3612

     1366     3608    2             ELSE DO;

     1367     3609    2               ERR1=ERRTMPLAT;

   3609  2 000010   000000 236000 1                  LDQ     ERRTMPLAT
         2 000011   200005 756100                    STQ     ERR1,,AUTO

     1368     3610    2               ERR1.CODE=ERRUBIN;

   3610  2 000012   000000 236100                    LDQ     0,,PR0
         2 000013   000003 736000                    QLS     3
         2 000014   200005 676100                    ERQ     ERR1,,AUTO
         2 000015   377770 376007                    ANQ     131064,DL
         2 000016   200005 656100                    ERSQ    ERR1,,AUTO

     1369     3611    2               END;

PL6.E3A0      #005=KLH$SGNTXT File=KLH$HLP.:E05TSI                               WED 07/30/97 00:52 Page:250
     1370     3612    1           CALL XUR$ERRTOLCP6(LCP6ERR,ERR1);

   3612  2 000017   200005 631500                    EPPR1   ERR1,,AUTO
         2 000020   200011 451500                    STP1    LCP6ERR+2,,AUTO
         2 000021   200007 633500                    EPPR3   LCP6ERR,,AUTO
         2 000022   200010 453500                    STP3    LCP6ERR+1,,AUTO
         2 000023   200010 630500                    EPPR0   LCP6ERR+1,,AUTO
         2 000024   000020 631400 xsym               EPPR1   B_VECTNIL+16
         2 000025   000000 701000 xent               TSX1    XUR$ERRTOLCP6
         2 000026   000000 011000                    NOP     0

     1371     3613    1           KL_SGNRSP.ERRCODE = LCP6ERR;

   3613  2 000027   200003 470500                    LDP0    @KL_SGNRSP,,AUTO
         2 000030   000100 100500                    MLR     fill='000'O
         2 000031   200007 000004                    ADSC9   LCP6ERR,,AUTO            cn=0,n=4
         2 000032   000002 400004                    ADSC9   2,,PR0                   cn=2,n=4

     1372     3614    1           SIZE=LENGTHC(KL_SGNRSP.MESSAGE.RSPTXT);

   3614  2 000033   000120 235007                    LDA     80,DL
         2 000034   200006 755100                    STA     SIZE,,AUTO

     1373     3615    1           CALL KLH$ERRMSG(KL_SGNRSP.MESSAGE.RSPTXT,SIZE,ERR1);

   3615  2 000035   200005 631500                    EPPR1   ERR1,,AUTO
         2 000036   200012 451500                    STP1    LCP6ERR+3,,AUTO
         2 000037   200006 633500                    EPPR3   SIZE,,AUTO
         2 000040   200011 453500                    STP3    LCP6ERR+2,,AUTO
         2 000041   200003 236100                    LDQ     @KL_SGNRSP,,AUTO
         2 000042   000010 036003                    ADLQ    8,DU
         2 000043   200010 756100                    STQ     LCP6ERR+1,,AUTO
         2 000044   200010 630500                    EPPR0   LCP6ERR+1,,AUTO
         2 000045   000021 631400 xsym               EPPR1   B_VECTNIL+17
         2 000046   000000 701000 xent               TSX1    KLH$ERRMSG
         2 000047   000000 011000                    NOP     0

PL6.E3A0      #005=KLH$SGNTXT File=KLH$HLP.:E05TSI                               WED 07/30/97 00:52 Page:251
     1374     3616    1           KL_SGNRSP.MESSAGE.RSPSIZ=SIZE;

   3616  2 000050   200003 470500                    LDP0    @KL_SGNRSP,,AUTO
         2 000051   200006 236100                    LDQ     SIZE,,AUTO
         2 000052   000007 552104                    STBQ    7,'04'O,PR0

     1375     3617    1           RETURN;

   3617  2 000053   000000 702200 xent               TSX2  ! X66_ARET
     1376     3618    1   END KLH$SGNTXT;
     1377     3619        %EOD;

PL6.E3A0      #005=KLH$SGNTXT File=KLH$HLP.:E05TSI                               WED 07/30/97 00:52 Page:252
--  Include file information  --

   CP_6.:E05TOU  cannot be made into a system file and is referenced.
   KL_MACRO_C.:E05TOU  is referenced.
   B$JIT_C.:E05TOU  was found in the system file and is never referenced.
   CP_6_C.:E05TOU  was found in the system file and is referenced.
      No diagnostics issued in procedure KLH$SGNTXT.
PL6.E3A0      #005=KLH$SGNTXT File=KLH$HLP.:E05TSI                               WED 07/30/97 00:52 Page:253

 **** Variables and constants ****

  ****  Section 001 RoData KLH$SGNTXT

  ****  Scalars and arrays  ****
OctLoc.c.b A Datatyp(siz) R M Lvl/name                 OctLoc.c.b A Datatyp(siz) R M Lvl/name

     0-0-0/w BIT         r     1 ERRTMPLAT

  ****  Auto variables  ****

  ****  Scalars and arrays  ****
OctLoc.c.b A Datatyp(siz) R M Lvl/name                 OctLoc.c.b A Datatyp(siz) R M Lvl/name

     4-0-0/w PTR         r     1 @ERR                       3-0-0/w PTR         r     1 @KL_SGNRSP
    *0-0-0/w STRC        r     1 ERR                        5-0-0/w STRC        r     1 ERR1
    *0-0-0/w UBIN        r     1 ERRUBIN                   *0-0-0/w STRC(1008)  r     1 KL_SGNRSP
     7-0-0/b BIT         r     1 LCP6ERR                    6-0-0/w UBIN        r     1 SIZE


   Procedure KLH$SGNTXT requires 44 words for executable code.
   Procedure KLH$SGNTXT requires 12 words of local(AUTO) storage.
PL6.E3A0      #005=KLH$SGNTXT File=KLH$HLP.:E05TSI                               WED 07/30/97 00:52 Page:254
          *** CROSS REFERENCE LISTING ***
**     DENOTES     IDENTIFIER DEFINITION
<<                 IDENTIFIER'S VALUE SET
>>                 IDENTIFIER'S VALUE USED
<>                 IDENTIFIER SET AND/OR USED
--                 IDENTIFIER REFERENCED
PL6.E3A0      #005=KLH$SGNTXT File=KLH$HLP.:E05TSI                               WED 07/30/97 00:52 Page:255
          MINI XREF LISTING

ERR
      3590**DCL         6--PROC     3595--REDEF    3607>>ASSIGN
ERR.FCG
      3591**DCL      3606>>IF
ERR1
      3596**DCL      3607<<ASSIGN   3609<<ASSIGN   3612<>CALL     3615<>CALL
ERR1.CODE
      3599**DCL      3610<<ASSIGN
ERRTMPLAT
      3603**DCL      3609>>ASSIGN
ERRUBIN
      3595**DCL      3610>>ASSIGN
KLH$ERRMSG
      3604**DCL-ENT  3615--CALL
KL_SGNRSP
      3470**DCL         6--PROC
KL_SGNRSP.ERRCODE
      3524**DCL      3613<<ASSIGN
KL_SGNRSP.MESSAGE.RSPSIZ
      3587**DCL      3616<<ASSIGN
KL_SGNRSP.MESSAGE.RSPTXT
      3588**DCL      3614--ASSIGN   3615<>CALL
KL_SGNRSP.NMID
      3483**DCL      3486--REDEF
KL_SGNRSP.TERMID.TERM
      3573**DCL      3582--REDEF
LCP6ERR
      3602**DCL      3612<>CALL     3613>>ASSIGN
SIZE
      3601**DCL      3614<<ASSIGN   3615<>CALL     3616>>ASSIGN
XUR$ERRTOLCP6
      3605**DCL-ENT  3612--CALL

PL6.E3A0      #006=KLH$ERRMSG File=KLH$HLP.:E05TSI                               WED 07/30/97 00:52 Page:256
     1378        1        /*T***********************************************************/
     1379        2        /*T*                                                         */
     1380        3        /*T* Copyright (c) Bull HN Information Systems Inc., 1997    */
     1381        4        /*T*                                                         */
     1382        5        /*T***********************************************************/
     1383        6        KLH$ERRMSG: PROC (MSG,SIZE,ERR);
     1384        7        /*D* NAME:        KLH$ERRMSG
     1385        8             PURPOSE:     To fill in MSG with an error message for ERR
     1386        9             CALL:        CALL KLH$ERRMSG(MSG,MSGSIZ,ERR);
     1387       10             INPUT:       SIZE - Byte size of MSG
     1388       11                          ERR - Error code to be transformed into message text
     1389       12                                ERR is either a full JIT.ERR or an internal error;
     1390       13             OUTPUT:      MSG - Filled in with error message text
     1391       14                          SIZE - Returned as the byte size of the string placed
     1392       15                                 into MSG
     1393       16             DESCRIPTION: KLH$ERRMSG calls M$ERRMSG to obtain a message using
     1394       17                          as an errcode, either ERR if FCG is non-zero or
     1395       18                          KLH-ERR-E if FCG is zero. This resulting message is
     1396       19                          placed into MSG and its length into SIZE.
     1397       20        */
     1398       21        %INCLUDE CP_6;
     1399      102    1   DCL MSG CHAR(1);                        /* Actually variable length           */
     1400      103    1   DCL SIZE UBIN;
     1401      104    1   DCL 1 ERR ALIGNED,
     1402      105    1         2 FCG BIT(18) UNAL,
     1403      106    1         2 MON BIT(1) UNAL,
     1404      107    1         2 CODE UBIN(14) UNAL,
     1405      108    1         2 SEV UBIN(3) UNAL;
     1406      109    1   DCL ERR1 REDEF ERR UBIN;
     1407      110    1   DCL 1 ERRCODE ALIGNED,
     1408      111    1         2 FCG BIT(18) UNAL,
     1409      112    1         2 MON BIT(1) UNAL,
     1410      113    1         2 CODE UBIN(14) UNAL,
     1411      114    1         2 SEV UBIN(3) UNAL;
     1412      115        %VLP_ERRCODE (FPTN=E_ANY,FCG=KL,MID=H,MON='1'B,SEV=4);
     1413      160    1   DCL ERRLEN UBIN;
     1414      161    1   DCL ERRBEG UBIN;
PL6.E3A0      #006=KLH$ERRMSG File=KLH$HLP.:E05TSI                               WED 07/30/97 00:52 Page:257
     1415      162    1   DCL ERRBUF CHAR(600) DALIGNED;
     1416      163    1   DCL BADERRMSG CHAR(0) CONSTANT INIT('M$ERRMSG call failed');
     1417      164    1   DCL CHR$SIZE CHAR(SIZE) BASED;
     1418      165        %FPT_ERRMSG (FPTN=FPT_ERRMSG,INCLCODE=NO,STCLASS=STATIC);
     1419      192        /*E* ERROR:    KLH-E$NUSR-E
     1420      193             MESSAGE:  !!!Maximum users already in system.
     1421      194        */
     1422      195        /*E* ERROR: KLH-E$FEPSTOPPED-E
     1423      196             MESSAGE: ** Front end stopped by operator - PLEASE STAND BY **
     1424      197        */
     1425      198        /*E* ERROR:    KLH-E$NOOL-E
     1426      199             MESSAGE:  !!!No more online users currently allowed.
     1427      200        */
     1428      201        /*E* ERROR:    KLH-E$NOSYD-E
     1429      202             MESSAGE:  !!!No system id available to log you on.
     1430      203        */
     1431      204        /*E* ERROR:    KLH-E$SGSYN-E
     1432      205             MESSAGE:  Type: 'Account,Myusername,Password option_list'
     1433      206                       where option_list consists of the following,
     1434      207                       separated by a comma, in any order:
     1435      208                          N[o]S[etup]            - bypasses the setup command.
     1436      209                          P[rofile]=profile_name - where profile_name is a
     1437      210                                                    system defined profile.
     1438      211                          H[ost]=site            - where site is another
     1439      212                                                    CP-6 machine.
     1440      213                          N[o]H[eader]           - bypasses the sysid message
     1441      214                                                    received after logon.
     1442      215                       The bracketed letters in the option_list show optional
     1443      216                       characters to specify an option.  The non-enclosed
     1444      217                       letters are required.  All option keywords can be
     1445      218                       specified in either upper or lowercase, but are
     1446      219                       translated to uppercase for processing.
     1447      220        */
     1448      221        /*E* ERROR:    KLH-E$NJIT-E
     1449      222             MESSAGE:  !!!Insufficient physical pages to start a new user.
     1450      223        */
     1451      224        /*E* ERROR:    KLH-E$BDID-E
PL6.E3A0      #006=KLH$ERRMSG File=KLH$HLP.:E05TSI                               WED 07/30/97 00:52 Page:258
     1452      225         MESSAGE0:  !!!Acct, name or password were specified incorrectly - type '?' for synt
               225        ax.
     1453      226             MESSAGE1: Type: 'Account,Myusername,Password option_list'
     1454      227                       where option_list consists of the following,
     1455      228                       separated by a comma, in any order:
     1456      229                          N[o]S[etup]            - bypasses the setup command.
     1457      230                          P[rofile]=profile_name - where profile_name is a
     1458      231                                                    system defined profile.
     1459      232                          H[ost]=site            - where site is another
     1460      233                                                    CP-6 machine.
     1461      234                          N[o]H[eader]           - bypasses the sysid message
     1462      235                                                    received after logon.
     1463      236                       The bracketed letters in the option_list show optional
     1464      237                       characters to specify an option.  The non-enclosed
     1465      238                       letters are required.  All option keywords can be
     1466      239                       specified in either upper or lowercase, but are
     1467      240                       translated to uppercase for processing.
     1468      241        */
     1469      242        /*E* ERROR:    KLH-E$ILGL-E
     1470      243             MESSAGE0:  !!!No such logon - Please try again - Type '?' for syntax
     1471      244             MESSAGE1: Type: 'Account,Myusername,Password option_list'
     1472      245                       where option_list consists of the following,
     1473      246                       separated by a comma, in any order:
     1474      247                          N[o]S[etup]            - bypasses the setup command.
     1475      248                          P[rofile]=profile_name - where profile_name is a
     1476      249                                                    system defined profile.
     1477      250                          H[ost]=site            - where site is another
     1478      251                                                    CP-6 machine.
     1479      252                          N[o]H[eader]           - bypasses the sysid message
     1480      253                                                    received after logon.
     1481      254                       The bracketed letters in the option_list show optional
     1482      255                       characters to specify an option.  The non-enclosed
     1483      256                       letters are required.  All option keywords can be
     1484      257                       specified in either upper or lowercase, but are
     1485      258                       translated to uppercase for processing.
     1486      259        */
     1487      260        /*E* ERROR:    KLH-E$NGPR-E
PL6.E3A0      #006=KLH$ERRMSG File=KLH$HLP.:E05TSI                               WED 07/30/97 00:52 Page:259
     1488      261             MESSAGE:  !!!Specified profile does not exist.
     1489      262        */
     1490      263        /*E* ERROR:    KLH-E$NOPR-E
     1491      264             MESSAGE:  !!!Default profile bad - Type (e.g.) PRO=TTY after acct,name.
     1492      265        */
     1493      266        /*E* ERROR:    KLH-E$HLPBD-E
     1494      267             MESSAGE:  !!!Account definition bad - See your system manager.
     1495      268        */
     1496      269        /*E* ERROR:    KLH-E$NFIL-E
     1497      270             MESSAGE:  !!!System not yet ready for logons.
     1498      271        */
     1499      272        /*E* ERROR:    KLH-E$OLIL-E
     1500      273             MESSAGE:  !!!That logon illegal for timesharing.
     1501      274        */
     1502      275        /*E* ERROR:    KLH-E$BDPR-E
     1503      276             MESSAGE:  !!!Illegal profile type - Try again.
     1504      277        */
     1505      278        /*E* ERROR:    KLH-E$BDPRS-0
     1506      279             MESSAGE:  !!!Illegal profile type - handler profile used.
     1507      280        */
     1508      281        /*E* ERROR:    KLH-E$NOPRS-0
     1509      282             MESSAGE:  !!!Specified profile does not exist - handler profile used.
     1510      283        */
     1511      284        /*E* ERROR:    KLH-E$NGPRS-0
     1512      285             MESSAGE:  !!!Default profile bad - handler profile used.
     1513      286        */
     1514      287        /*E* ERROR:    KLH-E$NOHOST-0
     1515      288             MESSAGE:  !!!That Host is not currently available.
     1516      289         */
     1517      290        /*E* ERROR:    KLH-E$UDHOST-0
     1518      291           MESSAGE:  !!!That host is not defined.
     1519      292         */
     1520      293        %EJECT;
PL6.E3A0      #006=KLH$ERRMSG File=KLH$HLP.:E05TSI                               WED 07/30/97 00:52 Page:260
     1521      294    1           IF ERR.FCG~='0'B
     1522      295    1             THEN ERRCODE=ERR;
     1523      296    2             ELSE DO;
     1524      297    2               ERRCODE=E_ANY;
     1525      298    2               ERRCODE.CODE=ERR1;
     1526      299    2               END;
     1527      300    1           ERRCODE.SEV=0;
     1528      301    1           IF ERRCODE.CODE=0
     1529      302    1             THEN ERRLEN=0;
     1530      303    2             ELSE DO;
     1531      304    2               ERRBUF = ' ';
     1532      305    2               FPT_ERRMSG.CODE_=VECTOR(ERRCODE);
     1533      306    2               FPT_ERRMSG.BUF_=VECTOR(ERRBUF);
     1534      307    2               CALL M$ERRMSG(FPT_ERRMSG)
     1535      308    3                 WHENRETURN DO;
     1536      309    3                   ERRBEG = 0;
     1537      310    3                   ERRLEN=LENGTHC(ERRBUF);
     1538      311    4                   DO WHILE (SUBSTR(ERRBUF,ERRLEN-1,1)=' ' AND ERRLEN>ERRBEG);
     1539      312    4                     ERRLEN=ERRLEN-1;
     1540      313    4                     END;
     1541      314    4                   DO WHILE(SUBSTR(ERRBUF,ERRBEG,1)=' ' AND ERRBEG<ERRLEN-1);
     1542      315    4                     ERRBEG=ERRBEG+1;
     1543      316    4                     END;
     1544      317    3                   ERRLEN=ERRLEN-ERRBEG;
     1545      318    3                   ADDR(MSG)->CHR$SIZE=SUBSTR(ERRBUF,ERRBEG,ERRLEN);
     1546      319    3                   END;
     1547      320    3                 WHENALTRETURN DO;
     1548      321    3                   ADDR(MSG)->CHR$SIZE=BADERRMSG;
     1549      322    3                   ERRLEN=LENGTHC(BADERRMSG);
     1550      323    3                   END;
     1551      324    2               END;
     1552      325    1           IF ERRLEN<SIZE THEN SIZE=ERRLEN;
     1553      326    1           RETURN;
     1554      327    1   END KLH$ERRMSG;
     1555      328        %EOD;

PL6.E3A0      #006=KLH$ERRMSG File=KLH$HLP.:E05TSI                               WED 07/30/97 00:52 Page:261
--  Include file information  --

   CP_6.:E05TOU  cannot be made into a system file and is referenced.
   B$JIT_C.:E05TOU  was found in the system file and is never referenced.
   CP_6_C.:E05TOU  was found in the system file and is referenced.
      No diagnostics issued in procedure KLH$ERRMSG.

   Procedure KLH$ERRMSG requires 93 words for executable code.
   Procedure KLH$ERRMSG requires 162 words of local(AUTO) storage.

PL6.E3A0      #006=KLH$ERRMSG File=KLH$HLP.:E05TSI                               WED 07/30/97 00:52 Page:262

 Object Unit name= KLH$ERRMSG                                 File name= KLH$HLP.:E05TOU
 UTS= JUL 30 '97 00:52:40.72 WED                              Compiler= PL-6/E31         Sev=      00
 SharedLib= :SHARED_SYSTEM                                    Alt SharedLib=


    ****  Control sections  ****

 Sect   Type Bound  Init  Size OctSiz  Section name(segment info)
    0   DCB   even  none     0      0  M$UC
    1   Data  even  none    28     34  KLH$ERRMSG
    2  RoData even  UTS      5      5  KLH$ERRMSG
    3   Proc  even  none    93    135  KLH$ERRMSG
    4  RoData even  none     2      2  KLH$ERRMSG

    ****  Entry defs  ****

                              Check   Calling
                             calling  sequence
  Sect OctLoc Primary Altret sequence   type   Parms  Name
     3      0   yes            yes      Std        3  KLH$ERRMSG

  ****  Entry refs  ****

         Check        Calling
        calling       sequence
Altret sequence SRef   type   Args  Name
                       nStd      0 X66_AUTO_3
                       Std       0 B_CONSPOOL_D
                       nStd      0 X66_ARET

  ****  Data refs  ****

  Flags:  r = read only, s = secondary
Flgs Name                             Flgs Name                             Flgs Name
     M$UC                                  B_VECTNIL
PL6.E3A0      #006=KLH$ERRMSG File=KLH$HLP.:E05TSI                               WED 07/30/97 00:52 Page:263

  ****  Segment refs  ****

  Flags:  r = read only, s = secondary
Flgs Name                             Flgs Name                             Flgs Name
     ISSID                                 NULLSID
PL6.E3A0      #006=KLH$ERRMSG File=KLH$HLP.:E05TSI                               WED 07/30/97 00:52 Page:264


     1378        1        /*T***********************************************************/
     1379        2        /*T*                                                         */
     1380        3        /*T* Copyright (c) Bull HN Information Systems Inc., 1997    */
     1381        4        /*T*                                                         */
     1382        5        /*T***********************************************************/
     1383        6        KLH$ERRMSG: PROC (MSG,SIZE,ERR);

      6  3 000000   000000 700200 xent  KLH$ERRMSG   TSX0  ! X66_AUTO_3
         3 000001   000242 000003                    ZERO    162,3

     1384        7        /*D* NAME:        KLH$ERRMSG
     1385        8             PURPOSE:     To fill in MSG with an error message for ERR
     1386        9             CALL:        CALL KLH$ERRMSG(MSG,MSGSIZ,ERR);
     1387       10             INPUT:       SIZE - Byte size of MSG
     1388       11                          ERR - Error code to be transformed into message text
     1389       12                                ERR is either a full JIT.ERR or an internal error;
     1390       13             OUTPUT:      MSG - Filled in with error message text
     1391       14                          SIZE - Returned as the byte size of the string placed
     1392       15                                 into MSG
     1393       16             DESCRIPTION: KLH$ERRMSG calls M$ERRMSG to obtain a message using
     1394       17                          as an errcode, either ERR if FCG is non-zero or
     1395       18                          KLH-ERR-E if FCG is zero. This resulting message is
     1396       19                          placed into MSG and its length into SIZE.
     1397       20        */
     1398       21        %INCLUDE CP_6;
     1399      102    1   DCL MSG CHAR(1);                        /* Actually variable length           */
     1400      103    1   DCL SIZE UBIN;
     1401      104    1   DCL 1 ERR ALIGNED,
     1402      105    1         2 FCG BIT(18) UNAL,
     1403      106    1         2 MON BIT(1) UNAL,
     1404      107    1         2 CODE UBIN(14) UNAL,
     1405      108    1         2 SEV UBIN(3) UNAL;
     1406      109    1   DCL ERR1 REDEF ERR UBIN;
     1407      110    1   DCL 1 ERRCODE ALIGNED,
     1408      111    1         2 FCG BIT(18) UNAL,
     1409      112    1         2 MON BIT(1) UNAL,
PL6.E3A0      #006=KLH$ERRMSG File=KLH$HLP.:E05TSI                               WED 07/30/97 00:52 Page:265
     1410      113    1         2 CODE UBIN(14) UNAL,
     1411      114    1         2 SEV UBIN(3) UNAL;
     1412      115        %VLP_ERRCODE (FPTN=E_ANY,FCG=KL,MID=H,MON='1'B,SEV=4);
     1413      160    1   DCL ERRLEN UBIN;
     1414      161    1   DCL ERRBEG UBIN;
     1415      162    1   DCL ERRBUF CHAR(600) DALIGNED;
     1416      163    1   DCL BADERRMSG CHAR(0) CONSTANT INIT('M$ERRMSG call failed');
     1417      164    1   DCL CHR$SIZE CHAR(SIZE) BASED;
     1418      165        %FPT_ERRMSG (FPTN=FPT_ERRMSG,INCLCODE=NO,STCLASS=STATIC);
     1419      192        /*E* ERROR:    KLH-E$NUSR-E
     1420      193             MESSAGE:  !!!Maximum users already in system.
     1421      194        */
     1422      195        /*E* ERROR: KLH-E$FEPSTOPPED-E
     1423      196             MESSAGE: ** Front end stopped by operator - PLEASE STAND BY **
     1424      197        */
     1425      198        /*E* ERROR:    KLH-E$NOOL-E
     1426      199             MESSAGE:  !!!No more online users currently allowed.
     1427      200        */
     1428      201        /*E* ERROR:    KLH-E$NOSYD-E
     1429      202             MESSAGE:  !!!No system id available to log you on.
     1430      203        */
     1431      204        /*E* ERROR:    KLH-E$SGSYN-E
     1432      205             MESSAGE:  Type: 'Account,Myusername,Password option_list'
     1433      206                       where option_list consists of the following,
     1434      207                       separated by a comma, in any order:
     1435      208                          N[o]S[etup]            - bypasses the setup command.
     1436      209                          P[rofile]=profile_name - where profile_name is a
     1437      210                                                    system defined profile.
     1438      211                          H[ost]=site            - where site is another
     1439      212                                                    CP-6 machine.
     1440      213                          N[o]H[eader]           - bypasses the sysid message
     1441      214                                                    received after logon.
     1442      215                       The bracketed letters in the option_list show optional
     1443      216                       characters to specify an option.  The non-enclosed
     1444      217                       letters are required.  All option keywords can be
     1445      218                       specified in either upper or lowercase, but are
     1446      219                       translated to uppercase for processing.
PL6.E3A0      #006=KLH$ERRMSG File=KLH$HLP.:E05TSI                               WED 07/30/97 00:52 Page:266
     1447      220        */
     1448      221        /*E* ERROR:    KLH-E$NJIT-E
     1449      222             MESSAGE:  !!!Insufficient physical pages to start a new user.
     1450      223        */
     1451      224        /*E* ERROR:    KLH-E$BDID-E
     1452      225         MESSAGE0: !!!Acct, name or password were specified incorrectly - type '?' for synt
               225        ax.
     1453      226             MESSAGE1: Type: 'Account,Myusername,Password option_list'
     1454      227                       where option_list consists of the following,
     1455      228                       separated by a comma, in any order:
     1456      229                          N[o]S[etup]            - bypasses the setup command.
     1457      230                          P[rofile]=profile_name - where profile_name is a
     1458      231                                                    system defined profile.
     1459      232                          H[ost]=site            - where site is another
     1460      233                                                    CP-6 machine.
     1461      234                          N[o]H[eader]           - bypasses the sysid message
     1462      235                                                    received after logon.
     1463      236                       The bracketed letters in the option_list show optional
     1464      237                       characters to specify an option.  The non-enclosed
     1465      238                       letters are required.  All option keywords can be
     1466      239                       specified in either upper or lowercase, but are
     1467      240                       translated to uppercase for processing.
     1468      241        */
     1469      242        /*E* ERROR:    KLH-E$ILGL-E
     1470      243             MESSAGE0:  !!!No such logon - Please try again - Type '?' for syntax
     1471      244             MESSAGE1: Type: 'Account,Myusername,Password option_list'
     1472      245                       where option_list consists of the following,
     1473      246                       separated by a comma, in any order:
     1474      247                          N[o]S[etup]            - bypasses the setup command.
     1475      248                          P[rofile]=profile_name - where profile_name is a
     1476      249                                                    system defined profile.
     1477      250                          H[ost]=site            - where site is another
     1478      251                                                    CP-6 machine.
     1479      252                          N[o]H[eader]           - bypasses the sysid message
     1480      253                                                    received after logon.
     1481      254                       The bracketed letters in the option_list show optional
     1482      255                       characters to specify an option.  The non-enclosed
PL6.E3A0      #006=KLH$ERRMSG File=KLH$HLP.:E05TSI                               WED 07/30/97 00:52 Page:267
     1483      256                       letters are required.  All option keywords can be
     1484      257                       specified in either upper or lowercase, but are
     1485      258                       translated to uppercase for processing.
     1486      259        */
     1487      260        /*E* ERROR:    KLH-E$NGPR-E
     1488      261             MESSAGE:  !!!Specified profile does not exist.
     1489      262        */
     1490      263        /*E* ERROR:    KLH-E$NOPR-E
     1491      264             MESSAGE:  !!!Default profile bad - Type (e.g.) PRO=TTY after acct,name.
     1492      265        */
     1493      266        /*E* ERROR:    KLH-E$HLPBD-E
     1494      267             MESSAGE:  !!!Account definition bad - See your system manager.
     1495      268        */
     1496      269        /*E* ERROR:    KLH-E$NFIL-E
     1497      270             MESSAGE:  !!!System not yet ready for logons.
     1498      271        */
     1499      272        /*E* ERROR:    KLH-E$OLIL-E
     1500      273             MESSAGE:  !!!That logon illegal for timesharing.
     1501      274        */
     1502      275        /*E* ERROR:    KLH-E$BDPR-E
     1503      276             MESSAGE:  !!!Illegal profile type - Try again.
     1504      277        */
     1505      278        /*E* ERROR:    KLH-E$BDPRS-0
     1506      279             MESSAGE:  !!!Illegal profile type - handler profile used.
     1507      280        */
     1508      281        /*E* ERROR:    KLH-E$NOPRS-0
     1509      282             MESSAGE:  !!!Specified profile does not exist - handler profile used.
     1510      283        */
     1511      284        /*E* ERROR:    KLH-E$NGPRS-0
     1512      285             MESSAGE:  !!!Default profile bad - handler profile used.
     1513      286        */
     1514      287        /*E* ERROR:    KLH-E$NOHOST-0
     1515      288             MESSAGE:  !!!That Host is not currently available.
     1516      289         */
     1517      290        /*E* ERROR:    KLH-E$UDHOST-0
     1518      291           MESSAGE:  !!!That host is not defined.
     1519      292         */
PL6.E3A0      #006=KLH$ERRMSG File=KLH$HLP.:E05TSI                               WED 07/30/97 00:52 Page:268
     1520      293        %EJECT;
PL6.E3A0      #006=KLH$ERRMSG File=KLH$HLP.:E05TSI                               WED 07/30/97 00:52 Page:269
     1521      294    1           IF ERR.FCG~='0'B

    294  3 000002   200005 470500                    LDP0    @ERR,,AUTO
         3 000003   000000 220100                    LDX0    0,,PR0
         3 000004   000010 600000 3                  TZE     s:297

     1522      295    1             THEN ERRCODE=ERR;

    295  3 000005   000000 236100                    LDQ     0,,PR0
         3 000006   200006 756100                    STQ     ERRCODE,,AUTO
         3 000007   000017 710000 3                  TRA     s:300

     1523      296    2             ELSE DO;

     1524      297    2               ERRCODE=E_ANY;

    297  3 000010   000000 236000 1                  LDQ     E_ANY
         3 000011   200006 756100                    STQ     ERRCODE,,AUTO

     1525      298    2               ERRCODE.CODE=ERR1;

    298  3 000012   000000 236100                    LDQ     0,,PR0
         3 000013   000003 736000                    QLS     3
         3 000014   200006 676100                    ERQ     ERRCODE,,AUTO
         3 000015   377770 376007                    ANQ     131064,DL
         3 000016   200006 656100                    ERSQ    ERRCODE,,AUTO

     1526      299    2               END;

     1527      300    1           ERRCODE.SEV=0;

    300  3 000017   000000 236000 4                  LDQ     0
         3 000020   200006 356100                    ANSQ    ERRCODE,,AUTO

     1528      301    1           IF ERRCODE.CODE=0

    301  3 000021   200006 236100                    LDQ     ERRCODE,,AUTO
PL6.E3A0      #006=KLH$ERRMSG File=KLH$HLP.:E05TSI                               WED 07/30/97 00:52 Page:270
         3 000022   377770 316007                    CANQ    131064,DL
         3 000023   000026 601000 3                  TNZ     s:304

     1529      302    1             THEN ERRLEN=0;

    302  3 000024   200007 450100                    STZ     ERRLEN,,AUTO
         3 000025   000127 710000 3                  TRA     s:325

     1530      303    2             ELSE DO;

     1531      304    2               ERRBUF = ' ';

    304  3 000026   040100 100400                    MLR     fill='040'O
         3 000027   000035 000001 xsym               ADSC9   B_VECTNIL+29             cn=0,n=1
         3 000030   200012 001130                    ADSC9   ERRBUF,,AUTO             cn=0,n=600

     1532      305    2               FPT_ERRMSG.CODE_=VECTOR(ERRCODE);

    305  3 000031   777640 235007                    LDA     -96,DL
         3 000032   200240 452500                    STP2    ERRBUF+150,,AUTO
         3 000033   200240 236100                    LDQ     ERRBUF+150,,AUTO
         3 000034   000006 036003                    ADLQ    6,DU
         3 000035   000004 757000 1                  STAQ    FPT_ERRMSG+2

     1533      306    2               FPT_ERRMSG.BUF_=VECTOR(ERRBUF);

    306  3 000036   000001 235000 4                  LDA     1
         3 000037   200240 452500                    STP2    ERRBUF+150,,AUTO
         3 000040   200240 236100                    LDQ     ERRBUF+150,,AUTO
         3 000041   000012 036003                    ADLQ    10,DU
         3 000042   000006 757000 1                  STAQ    FPT_ERRMSG+4

     1534      307    2               CALL M$ERRMSG(FPT_ERRMSG)

    307  3 000043   000002 630400 1                  EPPR0   FPT_ERRMSG
         3 000044   420000 713400                    CLIMB   alt,+8192
         3 000045   405000 401760                    pmme    nvectors=11
PL6.E3A0      #006=KLH$ERRMSG File=KLH$HLP.:E05TSI                               WED 07/30/97 00:52 Page:271
         3 000046   000117 702000 3                  TSX2    s:321

     1535      308    3                 WHENRETURN DO;

     1536      309    3                   ERRBEG = 0;

    309  3 000047   200010 450100                    STZ     ERRBEG,,AUTO

     1537      310    3                   ERRLEN=LENGTHC(ERRBUF);

    310  3 000050   001130 235007                    LDA     600,DL
         3 000051   200007 755100                    STA     ERRLEN,,AUTO

     1538      311    4                   DO WHILE (SUBSTR(ERRBUF,ERRLEN-1,1)=' ' AND ERRLEN>ERRBEG);

    311  3 000052   000056 710000 3                  TRA     s:313

     1539      312    4                     ERRLEN=ERRLEN-1;

    312  3 000053   200007 235100                    LDA     ERRLEN,,AUTO
         3 000054   000001 135007                    SBLA    1,DL
         3 000055   200007 755100                    STA     ERRLEN,,AUTO

     1540      313    4                     END;

    313  3 000056   040000 106505                    CMPC    fill='040'O
         3 000057   200011 600001                    ADSC9   ERRBEG+1,A,AUTO          cn=3,n=1
         3 000060   000035 000001 xsym               ADSC9   B_VECTNIL+29             cn=0,n=1
         3 000061   000065 601000 3                  TNZ     s:314
         3 000062   200010 236100                    LDQ     ERRBEG,,AUTO
         3 000063   200007 116100                    CMPQ    ERRLEN,,AUTO
         3 000064   000053 602000 3                  TNC     s:312

     1541      314    4                   DO WHILE(SUBSTR(ERRBUF,ERRBEG,1)=' ' AND ERRBEG<ERRLEN-1);

    314  3 000065   000071 710000 3                  TRA     s:316

PL6.E3A0      #006=KLH$ERRMSG File=KLH$HLP.:E05TSI                               WED 07/30/97 00:52 Page:272
     1542      315    4                     ERRBEG=ERRBEG+1;

    315  3 000066   200010 235100                    LDA     ERRBEG,,AUTO
         3 000067   000001 035007                    ADLA    1,DL
         3 000070   200010 755100                    STA     ERRBEG,,AUTO

     1543      316    4                     END;

    316  3 000071   200010 235100                    LDA     ERRBEG,,AUTO
         3 000072   040000 106505                    CMPC    fill='040'O
         3 000073   200012 000001                    ADSC9   ERRBUF,A,AUTO            cn=0,n=1
         3 000074   000035 000001 xsym               ADSC9   B_VECTNIL+29             cn=0,n=1
         3 000075   000104 601000 3                  TNZ     s:317
         3 000076   200007 236100                    LDQ     ERRLEN,,AUTO
         3 000077   000001 136007                    SBLQ    1,DL
         3 000100   000104 604000 3                  TMI     s:317
         3 000101   200010 116100                    CMPQ    ERRBEG,,AUTO
         3 000102   000104 600000 3                  TZE     s:317
         3 000103   000066 603000 3                  TRC     s:315

     1544      317    3                   ERRLEN=ERRLEN-ERRBEG;

    317  3 000104   200007 236100                    LDQ     ERRLEN,,AUTO
         3 000105   200010 136100                    SBLQ    ERRBEG,,AUTO
         3 000106   200007 756100                    STQ     ERRLEN,,AUTO

     1545      318    3                   ADDR(MSG)->CHR$SIZE=SUBSTR(ERRBUF,ERRBEG,ERRLEN);

    318  3 000107   200004 470500                    LDP0    @SIZE,,AUTO
         3 000110   000000 720100                    LXL0    0,,PR0
         3 000111   000000 621006                    EAX1    0,QL
         3 000112   200003 471500                    LDP1    @MSG,,AUTO
         3 000113   040140 100545                    MLR     fill='040'O
         3 000114   200012 000011                    ADSC9   ERRBUF,A,AUTO            cn=0,n=*X1
         3 000115   100000 000010                    ADSC9   0,,PR1                   cn=0,n=*X0

     1546      319    3                   END;
PL6.E3A0      #006=KLH$ERRMSG File=KLH$HLP.:E05TSI                               WED 07/30/97 00:52 Page:273

    319  3 000116   000127 710000 3                  TRA     s:325

     1547      320    3                 WHENALTRETURN DO;

     1548      321    3                   ADDR(MSG)->CHR$SIZE=BADERRMSG;

    321  3 000117   200004 470500                    LDP0    @SIZE,,AUTO
         3 000120   000000 720100                    LXL0    0,,PR0
         3 000121   200003 471500                    LDP1    @MSG,,AUTO
         3 000122   040140 100400                    MLR     fill='040'O
         3 000123   000000 000024 2                  ADSC9   BADERRMSG                cn=0,n=20
         3 000124   100000 000010                    ADSC9   0,,PR1                   cn=0,n=*X0

     1549      322    3                   ERRLEN=LENGTHC(BADERRMSG);

    322  3 000125   000024 235007                    LDA     20,DL
         3 000126   200007 755100                    STA     ERRLEN,,AUTO

     1550      323    3                   END;

     1551      324    2               END;

     1552      325    1           IF ERRLEN<SIZE THEN SIZE=ERRLEN;

    325  3 000127   200004 470500                    LDP0    @SIZE,,AUTO
         3 000130   200007 236100                    LDQ     ERRLEN,,AUTO
         3 000131   000000 116100                    CMPQ    0,,PR0
         3 000132   000134 603000 3                  TRC     s:326

    325  3 000133   000000 756100                    STQ     0,,PR0

     1553      326    1           RETURN;

    326  3 000134   000000 702200 xent               TSX2  ! X66_ARET
     1554      327    1   END KLH$ERRMSG;
     1555      328        %EOD;
PL6.E3A0      #006=KLH$ERRMSG File=KLH$HLP.:E05TSI                               WED 07/30/97 00:52 Page:274

PL6.E3A0      #006=KLH$ERRMSG File=KLH$HLP.:E05TSI                               WED 07/30/97 00:52 Page:275
--  Include file information  --

   CP_6.:E05TOU  cannot be made into a system file and is referenced.
   B$JIT_C.:E05TOU  was found in the system file and is never referenced.
   CP_6_C.:E05TOU  was found in the system file and is referenced.
      No diagnostics issued in procedure KLH$ERRMSG.
PL6.E3A0      #006=KLH$ERRMSG File=KLH$HLP.:E05TSI                               WED 07/30/97 00:52 Page:276

 **** Variables and constants ****

  ****  Section 001  Data  KLH$ERRMSG

  ****  Scalars and arrays  ****
OctLoc.c.b A Datatyp(siz) R M Lvl/name                 OctLoc.c.b A Datatyp(siz) R M Lvl/name

     0-0-0/w STRC        r     1 E_ANY                      2-0-0/d STRC(936)   r     1 FPT_ERRMSG

  ****  Section 002 RoData KLH$ERRMSG

  ****  Scalars and arrays  ****
OctLoc.c.b A Datatyp(siz) R M Lvl/name                 OctLoc.c.b A Datatyp(siz) R M Lvl/name

     0-0-0/c CHAR(20)    r     1 BADERRMSG

  ****  Auto variables  ****

  ****  Scalars and arrays  ****
OctLoc.c.b A Datatyp(siz) R M Lvl/name                 OctLoc.c.b A Datatyp(siz) R M Lvl/name

     5-0-0/w PTR         r     1 @ERR                       3-0-0/w PTR         r     1 @MSG
     4-0-0/w PTR         r     1 @SIZE                     *0-0-0/w STRC        r     1 ERR
    *0-0-0/w UBIN        r     1 ERR1                      10-0-0/w UBIN        r     1 ERRBEG
    12-0-0/d CHAR(600)   r     1 ERRBUF                     6-0-0/w STRC        r     1 ERRCODE
     7-0-0/w UBIN        r     1 ERRLEN                    *0-0-0/c CHAR        r     1 MSG
    *0-0-0/w UBIN        r     1 SIZE

  ****  BASED and DCB variables  ****

  ****  Scalars and arrays  ****
OctLoc.c.b A Datatyp(siz) R M Lvl/name                 OctLoc.c.b A Datatyp(siz) R M Lvl/name

     0-0-0/c ACHR        r     1 CHR$SIZE

PL6.E3A0      #006=KLH$ERRMSG File=KLH$HLP.:E05TSI                               WED 07/30/97 00:52 Page:277

   Procedure KLH$ERRMSG requires 93 words for executable code.
   Procedure KLH$ERRMSG requires 162 words of local(AUTO) storage.
PL6.E3A0      #006=KLH$ERRMSG File=KLH$HLP.:E05TSI                               WED 07/30/97 00:52 Page:278
          *** CROSS REFERENCE LISTING ***
**     DENOTES     IDENTIFIER DEFINITION
<<                 IDENTIFIER'S VALUE SET
>>                 IDENTIFIER'S VALUE USED
<>                 IDENTIFIER SET AND/OR USED
--                 IDENTIFIER REFERENCED
PL6.E3A0      #006=KLH$ERRMSG File=KLH$HLP.:E05TSI                               WED 07/30/97 00:52 Page:279
          MINI XREF LISTING

BADERRMSG
       163**DCL       321>>ASSIGN    322--ASSIGN
CHR$SIZE
       164**DCL       318<<ASSIGN    321<<ASSIGN
ERR
       104**DCL         6--PROC      109--REDEF     295>>ASSIGN
ERR.FCG
       105**DCL       294>>IF
ERR1
       109**DCL       298>>ASSIGN
ERRBEG
       161**DCL       309<<ASSIGN    311>>DOWHILE   314>>DOWHILE   314>>DOWHILE   315<<ASSIGN    315>>ASSIGN
       317>>ASSIGN    318>>ASSIGN
ERRBUF
       162**DCL       304<<ASSIGN    306--ASSIGN    310--ASSIGN    311>>DOWHILE   314>>DOWHILE   318>>ASSIGN
ERRCODE
       110**DCL       295<<ASSIGN    297<<ASSIGN    305--ASSIGN
ERRCODE.CODE
       113**DCL       298<<ASSIGN    301>>IF
ERRCODE.SEV
       114**DCL       300<<ASSIGN
ERRLEN
       160**DCL       302<<ASSIGN    310<<ASSIGN    311>>DOWHILE   311>>DOWHILE   312<<ASSIGN    312>>ASSIGN
       314>>DOWHILE   317<<ASSIGN    317>>ASSIGN    318>>ASSIGN    322<<ASSIGN    325>>IF        325>>ASSIGN
E_ANY
       127**DCL       297>>ASSIGN
FPT_ERRMSG
       176**DCL       307<>CALL
FPT_ERRMSG.BUF_
       176**DCL       306<<ASSIGN
FPT_ERRMSG.CODE_
       176**DCL       305<<ASSIGN
PL6.E3A0      #006=KLH$ERRMSG File=KLH$HLP.:E05TSI                               WED 07/30/97 00:52 Page:280
FPT_ERRMSG.V
       180**DCL       176--DCLINIT
M$ERRMSG
        93**DCL-ENT   307--CALL
MSG
       102**DCL         6--PROC      318--ASSIGN    321--ASSIGN
SIZE
       103**DCL         6--PROC      164--IMP-SIZ   318>>ASSIGN    321>>ASSIGN    325>>IF        325<<ASSIGN

PL6.E3A0      #007=KLH$TSTRM File=KLH$HLP.:E05TSI                                WED 07/30/97 00:52 Page:281
     1556        1        /*M* KLH$TSTRM Host log on timesharing terminals */
     1557        2        /*T***********************************************************/
     1558        3        /*T*                                                         */
     1559        4        /*T* Copyright (c) Bull HN Information Systems Inc., 1997    */
     1560        5        /*T*                                                         */
     1561        6        /*T***********************************************************/
     1562        7        /*X* DTI=2,DCI=4,THI=2,CSI=2,ECI=2,STI=2,IND=2,ENI=2 */
     1563        8        KLH$TSTRM: PROC (PCD,KL_SGNRSP);
     1564        9        /*D* NAME:        KLH$TSTRM
     1565       10             PURPOSE:     To complete logging on of a timesharing user and terminal
     1566       11             CALL:        CALL KLH$TSTRM(PCD,KL_SGNRSP);
     1567       12             INPUT:       PCD - A KL_PCD structure describing the terminal
     1568       13                             logging on
     1569       14                          KL_SGNRSP - A signon response message to fill in
     1570       15             OUTPUT:      o A timesharing user (if all is successful)
     1571       16                          KL_SGNRSP - A signon response message
     1572       17             DESCRIPTION: KLH$TSTRM completes the logging on of a timesharing
     1573       18                          user. It first attempts to get a user number and sysid.
     1574       19                          Next, the user's initial 3 pages are obtained if possible
     1575       20                          and initialized. The user's terminal is now connected
     1576       21                          (by calling M$PATHCON) as a timesharing terminal.
     1577       22                          Finally, if all that was successful, the user is
     1578       23                          'made' by calling JCM$MAKEU and a user logon message
     1579       24                          is sent to this host's operator's console.
     1580       25
     1581       26                          The timesharing user is started in the SS_QA
     1582       27                          scheduler state pending a connect acknowledge on
     1583       28                          his now-dangling M$UC DCB's LDCT. This will come
     1584       29                          as a result of the yet-to-be-sent KL_SGNRSP message.
     1585       30
     1586       31                          If any errors occur, KL_SGNRSP is filled in but no
     1587       32                          user is made. KLH$TSTRM never ALTRETURNs.
     1588       33        */
     1589       34        %INCLUDE B$JIT;
     1590      324        %INCLUDE CP_6;
     1591      405        %INCLUDE F$DCB;
     1592      454        %INCLUDE KL_MACRO_C;
PL6.E3A0      #007=KLH$TSTRM File=KLH$HLP.:E05TSI                                WED 07/30/97 00:52 Page:282
     1593     3806        %INCLUDE KL_ERRORS_C;
     1594     3848        %INCLUDE KL_DATA_R;
     1595     4312        %INCLUDE KL_SUBS_C;
     1596     4366        %KL_PCD (FPTN=PCD,STCLASS="",CG=0);
     1597     4485        %KL_SGNRSP (FPTN=KL_SGNRSP,RSPSIZ=80,STCLASS="");
     1598     4620        %VLR_PATHCON (FPTN=VLR_PATHCON,STCLASS=SYMREF);
     1599     4634    1   DCL ES_LOGON_TIME UBIN WORD ALIGNED SYMREF; /* DEFed in KLH$HLP               */
     1600     4635    1   DCL ERR UBIN;
     1601     4636    1   DCL ERRB REDEF ERR BIT(36);
     1602     4637    1   DCL JIT$ PTR;
     1603     4638    1   DCL VM_UC$ PTR;
     1604     4639    1   DCL VROSEG$ PTR;
     1605     4640    1   DCL PP (0:2) UBIN WORD;
     1606     4641        %VLR_NXTUSR (FPTN=VLR_NXTUSR,STCLASS=STATIC);
     1607     4654    1   DCL B$JIT$ PTR SYMREF;
     1608     4655    1   DCL B$TCB$ PTR SYMREF;
     1609     4656        %B$TCB;
     1610     4659        %B$ALT;
     1611     4667    1   DCL M$CSCG DCB;
     1612     4668    1   DCL JCM$SETU ENTRY(5) ALTRET;
     1613     4669    1   DCL JCM$MAKEU ENTRY(1);
     1614     4670    1   DCL JCM$RELJ ENTRY(2);
     1615     4671    1   DCL KLH$SGNTXT ENTRY(2);
     1616     4672    1   DCL KLX$9TO8 ENTRY(3);
     1617     4673        %FPT_PATHCON (FPTN=FPT_PATHCON,STCLASS=SYMREF);
     1618     4688        %FPT_WRITE (FPTN=FPT_WRITE,STCLASS=CONSTANT,DCB=M$CSCG,BUF=KL_TMSG);
     1619     4719        %FPT_NXTUSR (FPTN=FPT_NXTUSR,STCLASS=CONSTANT,RESULTS=VLR_NXTUSR);
     1620     4732        %EJECT;
PL6.E3A0      #007=KLH$TSTRM File=KLH$HLP.:E05TSI                                WED 07/30/97 00:52 Page:283
     1621     4733        /**/
     1622     4734        /* Get a timesharing user slot */
     1623     4735        /**/
     1624     4736    1           VLR_NXTUSR.MODE = %M_INT#;
     1625     4737    1           CALL M$NXTUSR (FPT_NXTUSR);
     1626     4738    1           IF VLR_NXTUSR.ERR~=0
     1627     4739    2             THEN DO;
     1628     4740    2               ERR=VLR_NXTUSR.ERR;
     1629     4741    2   ERROUT:     CALL KLH$SGNTXT(KL_SGNRSP,ERR);
     1630     4742    2               RETURN;
     1631     4743    2               END;
     1632     4744        /**/
     1633     4745        /* Get and initialize first 3 user pages */
     1634     4746        /**/
     1635     4747    2           CALL JCM$SETU (VLR_NXTUSR.MODE,JIT$,VM_UC$,VROSEG$,PP) WHENALTRETURN DO;
     1636     4748    2               VLR_NXTUSR.MODE = -VLR_NXTUSR.MODE;
     1637     4749    2               CALL M$NXTUSR (FPT_NXTUSR);
     1638     4750    2               ERR=%E$NJIT;
     1639     4751    2               GOTO ERROUT;
     1640     4752    2               END;
     1641     4753    1           JIT$->B$JIT.USER=VLR_NXTUSR.USR;
     1642     4754    1           JIT$->B$JIT.SYSID=VLR_NXTUSR.SYSID;
     1643     4755    1           JIT$->B$JIT.UNAME=PCD.TSINFO.UNAME;
     1644     4756    1           JIT$->B$JIT.ACCN=PCD.TSINFO.ACCT;
     1645     4757    1           JIT$->B$JIT.FACCN=PCD.TSINFO.ACCT;
     1646     4758    1           JIT$->B$JIT.HPSN=PCD.TSINFO.HPSN;
     1647     4759    1           JIT$->B$JIT.WOO=PCD.TSINFO.WOO;
     1648     4760    1           JIT$->B$JIT.TSLINE.FEX=PCD.ADDD.FEX;
     1649     4761    1           JIT$->B$JIT.TSLINE.SPEED=PCD.ADDD.SPEED;
     1650     4762    1           JIT$->B$JIT.TSLINE.LEV=PCD.ADDD.TERMID.LEV;
     1651     4763    1           JIT$->B$JIT.TSLINE.TTYP=PCD.ADDD.TERMID.TTYP;
     1652     4764    1           JIT$->B$JIT.TSLINE.SUBDEVICE=BITBIN(PCD.ADDD.TERMID.SUB);
     1653     4765    1           JIT$->B$JIT.TSLINE.SUBSUBDEVICE=BITBIN(PCD.ADDD.TERMID.SUBSUB);
     1654     4766    1           JIT$->B$JIT.TSLINE.PORT=BITBIN(PCD.ADDD.TERMID.CHAN);
     1655     4767    1           JIT$->B$JIT.LOGONTIME=ES_LOGON_TIME;
     1656     4768    1           JIT$->B$JIT.BLINDACCTNG = PCD.TSINFO.NOSETUP;
     1657     4769    1           JIT$->B$JIT.LOCK (0) = PCD.TSINFO.NOHEADER;
PL6.E3A0      #007=KLH$TSTRM File=KLH$HLP.:E05TSI                                WED 07/30/97 00:52 Page:284
     1658     4770    1           VM_UC$->F$DCB.LINES=PCD.TSINFO.LINES;
     1659     4771    1           VM_UC$->F$DCB.RECL=PCD.TSINFO.WIDTH;
     1660     4772    1           VM_UC$->F$DCB.ATTR=PCD.TSINFO.ATTR;
     1661     4773        /**/
     1662     4774        /* Connect the user's terminal to the system */
     1663     4775        /**/
     1664     4776    1           PCD.ADDD.CINFO.USER=VLR_NXTUSR.USR;
     1665     4777    1           FPT_PATHCON.PCD_=VECTOR(PCD);
     1666     4778    2           CALL M$PATHCON (FPT_PATHCON) WHENALTRETURN DO;
     1667     4779    2               ERRB = B$TCB$->B$TCB.ALT$->B$ALT.ERR;
     1668     4780    2               VLR_NXTUSR.MODE = -VLR_NXTUSR.MODE;
     1669     4781    2               CALL M$NXTUSR (FPT_NXTUSR);
     1670     4782    2               CALL JCM$RELJ (PP,3);
     1671     4783    2               GOTO ERROUT;
     1672     4784    2               END;
     1673     4785        /**/
     1674     4786        /* Fill in KL_SGNRSP.RLCID */
     1675     4787        /**/
     1676     4788    1           KL_SGNRSP.RLCID=VLR_PATHCON.RLCID;
     1677     4789    1           CALL KLX$9TO8(VLR_PATHCON.RLCID.LDCTX,KL_SGNRSP.RLCID.LDCTX,2);
     1678     4790        /**/
     1679     4791        /* 'Connect' the user's terminal to his M$UC DCB */
     1680     4792        /**/
     1681     4793    1           VM_UC$->F$DCB.LDCTX=VLR_PATHCON.RLCID.LDCTX;
     1682     4794    1           VM_UC$->F$DCB.SETX=VLR_PATHCON.RLCID.LDCTX;
     1683     4795        /**/
     1684     4796        /* Introduce the new user to the system */
     1685     4797        /**/
     1686     4798    1           CALL JCM$MAKEU (PP);
     1687     4799        /**/
     1688     4800        /* Write a line connect message to the console for the new user */
     1689     4801        /**/
     1690     4802    1           KL_TMSG.WSN=JIT$->B$JIT.WOO;
     1691     4803    1           KL_TMSG.FEX=PCD.ADDD.FEX;
     1692     4804    1           KL_TMSG.FEPNAME=PCD.ADDD.FEPNAME;
     1693     4805    1           KL_TMSG.LN#=BITBIN(PCD.ADDD.TERMID.CHAN);
     1694     4806    1           KL_TMSG.SID=VLR_NXTUSR.SYSID;
PL6.E3A0      #007=KLH$TSTRM File=KLH$HLP.:E05TSI                                WED 07/30/97 00:52 Page:285
     1695     4807    1           KL_TMSG.UNM=VLR_NXTUSR.USR;
     1696     4808    1           KL_TMSG.ACCT=PCD.TSINFO.ACCT;
     1697     4809    1           KL_TMSG.NME=PCD.TSINFO.UNAME;
     1698     4810    1           CALL M$WRITE (FPT_WRITE) ALTRET (IGNORE);
     1699     4811    1   IGNORE: RETURN;
     1700     4812    1   END KLH$TSTRM;

PL6.E3A0      #007=KLH$TSTRM File=KLH$HLP.:E05TSI                                WED 07/30/97 00:52 Page:286
--  Include file information  --

   KL_SUBS_C.:E05TOU  is referenced.
   KL_NETWORK_M.:E05TOU  is referenced.
   OC$MESSHD_C.:E05TOU  is referenced.
   KL_DATA_R.:E05TOU  cannot be made into a system file and is referenced.
   KL_ERRORS_C.:E05TOU  is referenced.
   KL_MACRO_C.:E05TOU  is referenced.
   F$DCB.:E05TOU  cannot be made into a system file and is referenced.
   CP_6.:E05TOU  cannot be made into a system file and is referenced.
   B$JIT.:E05TOU  cannot be made into a system file and is referenced.
   B$JIT_C.:E05TOU  was found in the system file and is referenced.
   CP_6_C.:E05TOU  was found in the system file and is referenced.
      No diagnostics issued in procedure KLH$TSTRM.

   Procedure KLH$TSTRM requires 203 words for executable code.
   Procedure KLH$TSTRM requires 18 words of local(AUTO) storage.

    No errors detected in file KLH$HLP.:E05TSI    .

PL6.E3A0      #007=KLH$TSTRM File=KLH$HLP.:E05TSI                                WED 07/30/97 00:52 Page:287

 Object Unit name= KLH$TSTRM                                  File name= KLH$HLP.:E05TOU
 UTS= JUL 30 '97 00:52:53.76 WED                              Compiler= PL-6/E31         Sev=      00
 SharedLib= :SHARED_SYSTEM                                    Alt SharedLib=


    ****  Control sections  ****

 Sect   Type Bound  Init  Size OctSiz  Section name(segment info)
    0   DCB   even  none     0      0  M$UC
    1   DCB   even  none     0      0  M$HLP
    2   Data  even  none     4      4  KLH$TSTRM
    3   DCB   even  none     0      0  M$CSCG
    4  RoData even  UTS     14     16  KLH$TSTRM
    5   Proc  even  none   203    313  KLH$TSTRM
    6  RoData even  none     5      5  KLH$TSTRM

    ****  Entry defs  ****

                              Check   Calling
                             calling  sequence
  Sect OctLoc Primary Altret sequence   type   Parms  Name
     5      0   yes            yes      Std        2  KLH$TSTRM

  ****  Entry refs  ****

         Check        Calling
        calling       sequence
Altret sequence SRef   type   Args  Name
         yes           Std       2 KLH$SGNTXT
 yes     yes           Std       5 JCM$SETU
         yes           Std       1 JCM$MAKEU
         yes           Std       2 JCM$RELJ
         yes           Std       3 KLX$9TO8
                       nStd      0 X66_AUTO_2
                       Std       0 B_CONSPOOL_D
                       nStd      0 X66_ARET
PL6.E3A0      #007=KLH$TSTRM File=KLH$HLP.:E05TSI                                WED 07/30/97 00:52 Page:288

  ****  Data refs  ****

  Flags:  r = read only, s = secondary
Flgs Name                             Flgs Name                             Flgs Name
     M$UC                                  M$HLP                                 KL_TMSG
     VLR_PATHCON                           ES_LOGON_TIME                         B$JIT$
     B$TCB$                                M$CSCG                                FPT_PATHCON
     B_VECTNIL

  ****  Segment refs  ****

  Flags:  r = read only, s = secondary
Flgs Name                             Flgs Name                             Flgs Name
     ISSID                                 NULLSID
PL6.E3A0      #007=KLH$TSTRM File=KLH$HLP.:E05TSI                                WED 07/30/97 00:52 Page:289


     1556        1        /*M* KLH$TSTRM Host log on timesharing terminals */
     1557        2        /*T***********************************************************/
     1558        3        /*T*                                                         */
     1559        4        /*T* Copyright (c) Bull HN Information Systems Inc., 1997    */
     1560        5        /*T*                                                         */
     1561        6        /*T***********************************************************/
     1562        7        /*X* DTI=2,DCI=4,THI=2,CSI=2,ECI=2,STI=2,IND=2,ENI=2 */
     1563        8        KLH$TSTRM: PROC (PCD,KL_SGNRSP);

      8  5 000000   000000 700200 xent  KLH$TSTRM    TSX0  ! X66_AUTO_2
         5 000001   000022 000002                    ZERO    18,2

     1564        9        /*D* NAME:        KLH$TSTRM
     1565       10             PURPOSE:     To complete logging on of a timesharing user and terminal
     1566       11             CALL:        CALL KLH$TSTRM(PCD,KL_SGNRSP);
     1567       12             INPUT:       PCD - A KL_PCD structure describing the terminal
     1568       13                             logging on
     1569       14                          KL_SGNRSP - A signon response message to fill in
     1570       15             OUTPUT:      o A timesharing user (if all is successful)
     1571       16                          KL_SGNRSP - A signon response message
     1572       17             DESCRIPTION: KLH$TSTRM completes the logging on of a timesharing
     1573       18                          user. It first attempts to get a user number and sysid.
     1574       19                          Next, the user's initial 3 pages are obtained if possible
     1575       20                          and initialized. The user's terminal is now connected
     1576       21                          (by calling M$PATHCON) as a timesharing terminal.
     1577       22                          Finally, if all that was successful, the user is
     1578       23                          'made' by calling JCM$MAKEU and a user logon message
     1579       24                          is sent to this host's operator's console.
     1580       25
     1581       26                          The timesharing user is started in the SS_QA
     1582       27                          scheduler state pending a connect acknowledge on
     1583       28                          his now-dangling M$UC DCB's LDCT. This will come
     1584       29                          as a result of the yet-to-be-sent KL_SGNRSP message.
     1585       30
     1586       31                          If any errors occur, KL_SGNRSP is filled in but no
     1587       32                          user is made. KLH$TSTRM never ALTRETURNs.
PL6.E3A0      #007=KLH$TSTRM File=KLH$HLP.:E05TSI                                WED 07/30/97 00:52 Page:290
     1588       33        */
     1589       34        %INCLUDE B$JIT;
     1590      324        %INCLUDE CP_6;
     1591      405        %INCLUDE F$DCB;
     1592      454        %INCLUDE KL_MACRO_C;
     1593     3806        %INCLUDE KL_ERRORS_C;
     1594     3848        %INCLUDE KL_DATA_R;
     1595     4312        %INCLUDE KL_SUBS_C;
     1596     4366        %KL_PCD (FPTN=PCD,STCLASS="",CG=0);
     1597     4485        %KL_SGNRSP (FPTN=KL_SGNRSP,RSPSIZ=80,STCLASS="");
     1598     4620        %VLR_PATHCON (FPTN=VLR_PATHCON,STCLASS=SYMREF);
     1599     4634    1   DCL ES_LOGON_TIME UBIN WORD ALIGNED SYMREF; /* DEFed in KLH$HLP               */
     1600     4635    1   DCL ERR UBIN;
     1601     4636    1   DCL ERRB REDEF ERR BIT(36);
     1602     4637    1   DCL JIT$ PTR;
     1603     4638    1   DCL VM_UC$ PTR;
     1604     4639    1   DCL VROSEG$ PTR;
     1605     4640    1   DCL PP (0:2) UBIN WORD;
     1606     4641        %VLR_NXTUSR (FPTN=VLR_NXTUSR,STCLASS=STATIC);
     1607     4654    1   DCL B$JIT$ PTR SYMREF;
     1608     4655    1   DCL B$TCB$ PTR SYMREF;
     1609     4656        %B$TCB;
     1610     4659        %B$ALT;
     1611     4667    1   DCL M$CSCG DCB;
     1612     4668    1   DCL JCM$SETU ENTRY(5) ALTRET;
     1613     4669    1   DCL JCM$MAKEU ENTRY(1);
     1614     4670    1   DCL JCM$RELJ ENTRY(2);
     1615     4671    1   DCL KLH$SGNTXT ENTRY(2);
     1616     4672    1   DCL KLX$9TO8 ENTRY(3);
     1617     4673        %FPT_PATHCON (FPTN=FPT_PATHCON,STCLASS=SYMREF);
     1618     4688        %FPT_WRITE (FPTN=FPT_WRITE,STCLASS=CONSTANT,DCB=M$CSCG,BUF=KL_TMSG);
     1619     4719        %FPT_NXTUSR (FPTN=FPT_NXTUSR,STCLASS=CONSTANT,RESULTS=VLR_NXTUSR);
     1620     4732        %EJECT;
PL6.E3A0      #007=KLH$TSTRM File=KLH$HLP.:E05TSI                                WED 07/30/97 00:52 Page:291
     1621     4733        /**/
     1622     4734        /* Get a timesharing user slot */
     1623     4735        /**/
     1624     4736    1           VLR_NXTUSR.MODE = %M_INT#;

   4736  5 000002   000003 235007                    LDA     3,DL
         5 000003   000000 755000 2                  STA     VLR_NXTUSR

     1625     4737    1           CALL M$NXTUSR (FPT_NXTUSR);

   4737  5 000004   000014 630400 4                  EPPR0   FPT_NXTUSR
         5 000005   020005 713400                    CLIMB   8197
         5 000006   400000 401760                    pmme    nvectors=1

     1626     4738    1           IF VLR_NXTUSR.ERR~=0

   4738  5 000007   000001 235000 2                  LDA     VLR_NXTUSR+1
         5 000010   000023 600000 5                  TZE     s:4747

     1627     4739    2             THEN DO;

     1628     4740    2               ERR=VLR_NXTUSR.ERR;

   4740  5 000011   200005 755100                    STA     ERR,,AUTO

     1629     4741    2   ERROUT:     CALL KLH$SGNTXT(KL_SGNRSP,ERR);

   4741  5 000012   200005 630500       ERROUT       EPPR0   ERR,,AUTO
         5 000013   200015 450500                    STP0    PP+4,,AUTO
         5 000014   200004 236100                    LDQ     @KL_SGNRSP,,AUTO
         5 000015   200014 756100                    STQ     PP+3,,AUTO
         5 000016   200014 630500                    EPPR0   PP+3,,AUTO
         5 000017   000020 631400 xsym               EPPR1   B_VECTNIL+16
         5 000020   000000 701000 xent               TSX1    KLH$SGNTXT
         5 000021   000000 011000                    NOP     0

     1630     4742    2               RETURN;
PL6.E3A0      #007=KLH$TSTRM File=KLH$HLP.:E05TSI                                WED 07/30/97 00:52 Page:292

   4742  5 000022   000000 702200 xent               TSX2  ! X66_ARET

     1631     4743    2               END;
     1632     4744        /**/
     1633     4745        /* Get and initialize first 3 user pages */
     1634     4746        /**/
     1635     4747    2           CALL JCM$SETU (VLR_NXTUSR.MODE,JIT$,VM_UC$,VROSEG$,PP) WHENALTRETURN DO;

   4747  5 000023   200011 630500                    EPPR0   PP,,AUTO
         5 000024   200020 450500                    STP0    PP+7,,AUTO
         5 000025   200010 631500                    EPPR1   VROSEG$,,AUTO
         5 000026   200017 451500                    STP1    PP+6,,AUTO
         5 000027   200007 633500                    EPPR3   VM_UC$,,AUTO
         5 000030   200016 453500                    STP3    PP+5,,AUTO
         5 000031   200006 634500                    EPPR4   JIT$,,AUTO
         5 000032   200015 454500                    STP4    PP+4,,AUTO
         5 000033   000000 236000 6                  LDQ     0
         5 000034   200014 756100                    STQ     PP+3,,AUTO
         5 000035   200014 630500                    EPPR0   PP+3,,AUTO
         5 000036   000023 631400 xsym               EPPR1   B_VECTNIL+19
         5 000037   000000 701000 xent               TSX1    JCM$SETU
         5 000040   000042 702000 5                  TSX2    s:4748
         5 000041   000052 710000 5                  TRA     s:4753

     1636     4748    2               VLR_NXTUSR.MODE = -VLR_NXTUSR.MODE;

   4748  5 000042   000000 335000 2                  LCA     VLR_NXTUSR
         5 000043   000000 755000 2                  STA     VLR_NXTUSR

     1637     4749    2               CALL M$NXTUSR (FPT_NXTUSR);

   4749  5 000044   000014 630400 4                  EPPR0   FPT_NXTUSR
         5 000045   020005 713400                    CLIMB   8197
         5 000046   400000 401760                    pmme    nvectors=1

     1638     4750    2               ERR=%E$NJIT;
PL6.E3A0      #007=KLH$TSTRM File=KLH$HLP.:E05TSI                                WED 07/30/97 00:52 Page:293

   4750  5 000047   002266 235007                    LDA     1206,DL
         5 000050   200005 755100                    STA     ERR,,AUTO

     1639     4751    2               GOTO ERROUT;

   4751  5 000051   000012 710000 5                  TRA     ERROUT

     1640     4752    2               END;
     1641     4753    1           JIT$->B$JIT.USER=VLR_NXTUSR.USR;

   4753  5 000052   200006 470500                    LDP0    JIT$,,AUTO
         5 000053   000003 236000 2                  LDQ     VLR_NXTUSR+3
         5 000054   000022 736000                    QLS     18
         5 000055   000000 552120                    STBQ    0,'20'O,PR0

     1642     4754    1           JIT$->B$JIT.SYSID=VLR_NXTUSR.SYSID;

   4754  5 000056   000002 720000 2                  LXL0    VLR_NXTUSR+2
         5 000057   200006 470500                    LDP0    JIT$,,AUTO
         5 000060   000000 440100                    SXL0    0,,PR0

     1643     4755    1           JIT$->B$JIT.UNAME=PCD.TSINFO.UNAME;

   4755  5 000061   200003 470500                    LDP0    @PCD,,AUTO
         5 000062   200006 471500                    LDP1    JIT$,,AUTO
         5 000063   040100 100500                    MLR     fill='040'O
         5 000064   000016 600014                    ADSC9   14,,PR0                  cn=3,n=12
         5 000065   100003 000014                    ADSC9   3,,PR1                   cn=0,n=12

     1644     4756    1           JIT$->B$JIT.ACCN=PCD.TSINFO.ACCT;

   4756  5 000066   200006 471500                    LDP1    JIT$,,AUTO
         5 000067   040100 100500                    MLR     fill='040'O
         5 000070   000021 600010                    ADSC9   17,,PR0                  cn=3,n=8
         5 000071   100001 000010                    ADSC9   1,,PR1                   cn=0,n=8

PL6.E3A0      #007=KLH$TSTRM File=KLH$HLP.:E05TSI                                WED 07/30/97 00:52 Page:294
     1645     4757    1           JIT$->B$JIT.FACCN=PCD.TSINFO.ACCT;

   4757  5 000072   200006 471500                    LDP1    JIT$,,AUTO
         5 000073   040100 100500                    MLR     fill='040'O
         5 000074   000021 600010                    ADSC9   17,,PR0                  cn=3,n=8
         5 000075   100006 000010                    ADSC9   6,,PR1                   cn=0,n=8

     1646     4758    1           JIT$->B$JIT.HPSN=PCD.TSINFO.HPSN;

   4758  5 000076   200006 471500                    LDP1    JIT$,,AUTO
         5 000077   040100 100500                    MLR     fill='040'O
         5 000100   000023 600006                    ADSC9   19,,PR0                  cn=3,n=6
         5 000101   100234 000006                    ADSC9   156,,PR1                 cn=0,n=6

     1647     4759    1           JIT$->B$JIT.WOO=PCD.TSINFO.WOO;

   4759  5 000102   040100 100500                    MLR     fill='040'O
         5 000103   000025 600010                    ADSC9   21,,PR0                  cn=3,n=8
         5 000104   100010 000010                    ADSC9   8,,PR1                   cn=0,n=8

     1648     4760    1           JIT$->B$JIT.TSLINE.FEX=PCD.ADDD.FEX;

   4760  5 000105   000100 100500                    MLR     fill='000'O
         5 000106   000000 600001                    ADSC9   0,,PR0                   cn=3,n=1
         5 000107   100337 000001                    ADSC9   223,,PR1                 cn=0,n=1

     1649     4761    1           JIT$->B$JIT.TSLINE.SPEED=PCD.ADDD.SPEED;

   4761  5 000110   000100 100500                    MLR     fill='000'O
         5 000111   000003 200001                    ADSC9   3,,PR0                   cn=1,n=1
         5 000112   100337 200001                    ADSC9   223,,PR1                 cn=1,n=1

     1650     4762    1           JIT$->B$JIT.TSLINE.LEV=PCD.ADDD.TERMID.LEV;

   4762  5 000113   000100 100500                    MLR     fill='000'O
         5 000114   000003 400001                    ADSC9   3,,PR0                   cn=2,n=1
         5 000115   100340 000001                    ADSC9   224,,PR1                 cn=0,n=1
PL6.E3A0      #007=KLH$TSTRM File=KLH$HLP.:E05TSI                                WED 07/30/97 00:52 Page:295

     1651     4763    1           JIT$->B$JIT.TSLINE.TTYP=PCD.ADDD.TERMID.TTYP;

   4763  5 000116   000100 100500                    MLR     fill='000'O
         5 000117   000003 600001                    ADSC9   3,,PR0                   cn=3,n=1
         5 000120   100340 200001                    ADSC9   224,,PR1                 cn=1,n=1

     1652     4764    1           JIT$->B$JIT.TSLINE.SUBDEVICE=BITBIN(PCD.ADDD.TERMID.SUB);

   4764  5 000121   000100 101500                    MRL     fill='000'O
         5 000122   000004 400002                    ADSC9   4,,PR0                   cn=2,n=2
         5 000123   200014 000004                    ADSC9   PP+3,,AUTO               cn=0,n=4
         5 000124   200014 236100                    LDQ     PP+3,,AUTO
         5 000125   000000 620006                    EAX0    0,QL
         5 000126   100340 440100                    SXL0    224,,PR1

     1653     4765    1           JIT$->B$JIT.TSLINE.SUBSUBDEVICE=BITBIN(PCD.ADDD.TERMID.SUBSUB);

   4765  5 000127   000100 101500                    MRL     fill='000'O
         5 000130   000005 000002                    ADSC9   5,,PR0                   cn=0,n=2
         5 000131   200014 000004                    ADSC9   PP+3,,AUTO               cn=0,n=4
         5 000132   200014 236100                    LDQ     PP+3,,AUTO
         5 000133   000000 621006                    EAX1    0,QL
         5 000134   100341 741100                    STX1    225,,PR1

     1654     4766    1           JIT$->B$JIT.TSLINE.PORT=BITBIN(PCD.ADDD.TERMID.CHAN);

   4766  5 000135   000100 101500                    MRL     fill='000'O
         5 000136   000004 000002                    ADSC9   4,,PR0                   cn=0,n=2
         5 000137   200014 000004                    ADSC9   PP+3,,AUTO               cn=0,n=4
         5 000140   200014 236100                    LDQ     PP+3,,AUTO
         5 000141   000000 622006                    EAX2    0,QL
         5 000142   100337 442100                    SXL2    223,,PR1

     1655     4767    1           JIT$->B$JIT.LOGONTIME=ES_LOGON_TIME;

   4767  5 000143   000000 235000 xsym               LDA     ES_LOGON_TIME
PL6.E3A0      #007=KLH$TSTRM File=KLH$HLP.:E05TSI                                WED 07/30/97 00:52 Page:296
         5 000144   100150 755100                    STA     104,,PR1

     1656     4768    1           JIT$->B$JIT.BLINDACCTNG = PCD.TSINFO.NOSETUP;

   4768  5 000145   003100 060500                    CSL     bolr='003'O
         5 000146   000025 200001                    BDSC    21,,PR0                  by=1,bit=0,n=1
         5 000147   100153 400001                    BDSC    107,,PR1                 by=2,bit=0,n=1

     1657     4769    1           JIT$->B$JIT.LOCK (0) = PCD.TSINFO.NOHEADER;

   4769  5 000150   003100 060500                    CSL     bolr='003'O
         5 000151   000025 210001                    BDSC    21,,PR0                  by=1,bit=1,n=1
         5 000152   100154 000001                    BDSC    108,,PR1                 by=0,bit=0,n=1

     1658     4770    1           VM_UC$->F$DCB.LINES=PCD.TSINFO.LINES;

   4770  5 000153   200007 473500                    LDP3    VM_UC$,,AUTO
         5 000154   000100 100500                    MLR     fill='000'O
         5 000155   000027 600002                    ADSC9   23,,PR0                  cn=3,n=2
         5 000156   300044 000002                    ADSC9   36,,PR3                  cn=0,n=2

     1659     4771    1           VM_UC$->F$DCB.RECL=PCD.TSINFO.WIDTH;

   4771  5 000157   000100 101500                    MRL     fill='000'O
         5 000160   000030 200001                    ADSC9   24,,PR0                  cn=1,n=1
         5 000161   300033 400002                    ADSC9   27,,PR3                  cn=2,n=2

     1660     4772    1           VM_UC$->F$DCB.ATTR=PCD.TSINFO.ATTR;

   4772  5 000162   000100 100500                    MLR     fill='000'O
         5 000163   000030 400002                    ADSC9   24,,PR0                  cn=2,n=2
         5 000164   300040 400002                    ADSC9   32,,PR3                  cn=2,n=2

     1661     4773        /**/
     1662     4774        /* Connect the user's terminal to the system */
     1663     4775        /**/
     1664     4776    1           PCD.ADDD.CINFO.USER=VLR_NXTUSR.USR;
PL6.E3A0      #007=KLH$TSTRM File=KLH$HLP.:E05TSI                                WED 07/30/97 00:52 Page:297

   4776  5 000165   000100 101400                    MRL     fill='000'O
         5 000166   000003 000004 2                  ADSC9   VLR_NXTUSR+3             cn=0,n=4
         5 000167   000014 400001                    ADSC9   12,,PR0                  cn=2,n=1

     1665     4777    1           FPT_PATHCON.PCD_=VECTOR(PCD);

   4777  5 000170   000001 235000 6                  LDA     1
         5 000171   200003 236100                    LDQ     @PCD,,AUTO
         5 000172   000004 757000 xsym               STAQ    FPT_PATHCON+4

     1666     4778    2           CALL M$PATHCON (FPT_PATHCON) WHENALTRETURN DO;

   4778  5 000173   000000 630400 xsym               EPPR0   FPT_PATHCON
         5 000174   530000 713400                    CLIMB   alt,+45056
         5 000175   401000 401760                    pmme    nvectors=3
         5 000176   000200 702000 5                  TSX2    s:4779
         5 000177   000222 710000 5                  TRA     s:4788

     1667     4779    2               ERRB = B$TCB$->B$TCB.ALT$->B$ALT.ERR;

   4779  5 000200   000000 470400 xsym               LDP0    B$TCB$
         5 000201   000000 471500                    LDP1    0,,PR0
         5 000202   100102 236100                    LDQ     66,,PR1
         5 000203   200005 756100                    STQ     ERR,,AUTO

     1668     4780    2               VLR_NXTUSR.MODE = -VLR_NXTUSR.MODE;

   4780  5 000204   000000 335000 2                  LCA     VLR_NXTUSR
         5 000205   000000 755000 2                  STA     VLR_NXTUSR

     1669     4781    2               CALL M$NXTUSR (FPT_NXTUSR);

   4781  5 000206   000014 630400 4                  EPPR0   FPT_NXTUSR
         5 000207   020005 713400                    CLIMB   8197
         5 000210   400000 401760                    pmme    nvectors=1

PL6.E3A0      #007=KLH$TSTRM File=KLH$HLP.:E05TSI                                WED 07/30/97 00:52 Page:298
     1670     4782    2               CALL JCM$RELJ (PP,3);

   4782  5 000211   000002 236000 6                  LDQ     2
         5 000212   200015 756100                    STQ     PP+4,,AUTO
         5 000213   200011 630500                    EPPR0   PP,,AUTO
         5 000214   200014 450500                    STP0    PP+3,,AUTO
         5 000215   200014 630500                    EPPR0   PP+3,,AUTO
         5 000216   000020 631400 xsym               EPPR1   B_VECTNIL+16
         5 000217   000000 701000 xent               TSX1    JCM$RELJ
         5 000220   000000 011000                    NOP     0

     1671     4783    2               GOTO ERROUT;

   4783  5 000221   000012 710000 5                  TRA     ERROUT

     1672     4784    2               END;
     1673     4785        /**/
     1674     4786        /* Fill in KL_SGNRSP.RLCID */
     1675     4787        /**/
     1676     4788    1           KL_SGNRSP.RLCID=VLR_PATHCON.RLCID;

   4788  5 000222   200004 470500                    LDP0    @KL_SGNRSP,,AUTO
         5 000223   000100 100400                    MLR     fill='000'O
         5 000224   000000 000004 xsym               ADSC9   VLR_PATHCON              cn=0,n=4
         5 000225   000001 400004                    ADSC9   1,,PR0                   cn=2,n=4

     1677     4789    1           CALL KLX$9TO8(VLR_PATHCON.RLCID.LDCTX,KL_SGNRSP.RLCID.LDCTX,2);

   4789  5 000226   000003 236000 6                  LDQ     3
         5 000227   200016 756100                    STQ     PP+5,,AUTO
         5 000230   200004 236100                    LDQ     @KL_SGNRSP,,AUTO
         5 000231   000002 036003                    ADLQ    2,DU
         5 000232   000004 235000 6                  LDA     4
         5 000233   200014 757100                    STAQ    PP+3,,AUTO
         5 000234   200014 630500                    EPPR0   PP+3,,AUTO
         5 000235   000021 631400 xsym               EPPR1   B_VECTNIL+17
         5 000236   000000 701000 xent               TSX1    KLX$9TO8
PL6.E3A0      #007=KLH$TSTRM File=KLH$HLP.:E05TSI                                WED 07/30/97 00:52 Page:299
         5 000237   000000 011000                    NOP     0

     1678     4790        /**/
     1679     4791        /* 'Connect' the user's terminal to his M$UC DCB */
     1680     4792        /**/
     1681     4793    1           VM_UC$->F$DCB.LDCTX=VLR_PATHCON.RLCID.LDCTX;

   4793  5 000240   000000 720000 xsym               LXL0    VLR_PATHCON
         5 000241   200007 470500                    LDP0    VM_UC$,,AUTO
         5 000242   000051 740100                    STX0    41,,PR0

     1682     4794    1           VM_UC$->F$DCB.SETX=VLR_PATHCON.RLCID.LDCTX;

   4794  5 000243   000051 440100                    SXL0    41,,PR0

     1683     4795        /**/
     1684     4796        /* Introduce the new user to the system */
     1685     4797        /**/
     1686     4798    1           CALL JCM$MAKEU (PP);

   4798  5 000244   200011 631500                    EPPR1   PP,,AUTO
         5 000245   200014 451500                    STP1    PP+3,,AUTO
         5 000246   200014 630500                    EPPR0   PP+3,,AUTO
         5 000247   000017 631400 xsym               EPPR1   B_VECTNIL+15
         5 000250   000000 701000 xent               TSX1    JCM$MAKEU
         5 000251   000000 011000                    NOP     0

     1687     4799        /**/
     1688     4800        /* Write a line connect message to the console for the new user */
     1689     4801        /**/
     1690     4802    1           KL_TMSG.WSN=JIT$->B$JIT.WOO;

   4802  5 000252   200006 470500                    LDP0    JIT$,,AUTO
         5 000253   000010 237100                    LDAQ    8,,PR0
         5 000254   000003 755000 xsym               STA     KL_TMSG+3
         5 000255   000004 756000 xsym               STQ     KL_TMSG+4

PL6.E3A0      #007=KLH$TSTRM File=KLH$HLP.:E05TSI                                WED 07/30/97 00:52 Page:300
     1691     4803    1           KL_TMSG.FEX=PCD.ADDD.FEX;

   4803  5 000256   200003 471500                    LDP1    @PCD,,AUTO
         5 000257   000000 100500                    MLR     fill='000'O
         5 000260   100000 600001                    ADSC9   0,,PR1                   cn=3,n=1
         5 000261   000006 600001 xsym               ADSC9   KL_TMSG+6                cn=3,n=1

     1692     4804    1           KL_TMSG.FEPNAME=PCD.ADDD.FEPNAME;

   4804  5 000262   040000 100500                    MLR     fill='040'O
         5 000263   100001 000010                    ADSC9   1,,PR1                   cn=0,n=8
         5 000264   000016 200010 xsym               ADSC9   KL_TMSG+14               cn=1,n=8

     1693     4805    1           KL_TMSG.LN#=BITBIN(PCD.ADDD.TERMID.CHAN);

   4805  5 000265   000100 101500                    MRL     fill='000'O
         5 000266   100004 000002                    ADSC9   4,,PR1                   cn=0,n=2
         5 000267   200014 000004                    ADSC9   PP+3,,AUTO               cn=0,n=4
         5 000270   200014 236100                    LDQ     PP+3,,AUTO
         5 000271   000000 620006                    EAX0    0,QL
         5 000272   000007 740000 xsym               STX0    KL_TMSG+7

     1694     4806    1           KL_TMSG.SID=VLR_NXTUSR.SYSID;

   4806  5 000273   000002 721000 2                  LXL1    VLR_NXTUSR+2
         5 000274   000007 441000 xsym               SXL1    KL_TMSG+7

     1695     4807    1           KL_TMSG.UNM=VLR_NXTUSR.USR;

   4807  5 000275   000000 101400                    MRL     fill='000'O
         5 000276   000003 000004 2                  ADSC9   VLR_NXTUSR+3             cn=0,n=4
         5 000277   000015 600002 xsym               ADSC9   KL_TMSG+13               cn=3,n=2

     1696     4808    1           KL_TMSG.ACCT=PCD.TSINFO.ACCT;

   4808  5 000300   040000 100500                    MLR     fill='040'O
         5 000301   100021 600010                    ADSC9   17,,PR1                  cn=3,n=8
PL6.E3A0      #007=KLH$TSTRM File=KLH$HLP.:E05TSI                                WED 07/30/97 00:52 Page:301
         5 000302   000010 000010 xsym               ADSC9   KL_TMSG+8                cn=0,n=8

     1697     4809    1           KL_TMSG.NME=PCD.TSINFO.UNAME;

   4809  5 000303   040000 100500                    MLR     fill='040'O
         5 000304   100016 600014                    ADSC9   14,,PR1                  cn=3,n=12
         5 000305   000012 000017 xsym               ADSC9   KL_TMSG+10               cn=0,n=15

     1698     4810    1           CALL M$WRITE (FPT_WRITE) ALTRET (IGNORE);

   4810  5 000306   000000 630400 4                  EPPR0   FPT_WRITE
         5 000307   440001 713400                    CLIMB   alt,write
         5 000310   401400 401760                    pmme    nvectors=4
         5 000311   000312 702000 5                  TSX2    IGNORE

     1699     4811    1   IGNORE: RETURN;

   4811  5 000312   000000 702200 xent  IGNORE       TSX2  ! X66_ARET
     1700     4812    1   END KLH$TSTRM;

PL6.E3A0      #007=KLH$TSTRM File=KLH$HLP.:E05TSI                                WED 07/30/97 00:52 Page:302
--  Include file information  --

   KL_SUBS_C.:E05TOU  is referenced.
   KL_NETWORK_M.:E05TOU  is referenced.
   OC$MESSHD_C.:E05TOU  is referenced.
   KL_DATA_R.:E05TOU  cannot be made into a system file and is referenced.
   KL_ERRORS_C.:E05TOU  is referenced.
   KL_MACRO_C.:E05TOU  is referenced.
   F$DCB.:E05TOU  cannot be made into a system file and is referenced.
   CP_6.:E05TOU  cannot be made into a system file and is referenced.
   B$JIT.:E05TOU  cannot be made into a system file and is referenced.
   B$JIT_C.:E05TOU  was found in the system file and is referenced.
   CP_6_C.:E05TOU  was found in the system file and is referenced.
      No diagnostics issued in procedure KLH$TSTRM.
PL6.E3A0      #007=KLH$TSTRM File=KLH$HLP.:E05TSI                                WED 07/30/97 00:52 Page:303

 **** Variables and constants ****

  ****  Section 002  Data  KLH$TSTRM

  ****  Scalars and arrays  ****
OctLoc.c.b A Datatyp(siz) R M Lvl/name                 OctLoc.c.b A Datatyp(siz) R M Lvl/name

     0-0-0/d STRC(144)   r     1 VLR_NXTUSR

  ****  Section 004 RoData KLH$TSTRM

  ****  Scalars and arrays  ****
OctLoc.c.b A Datatyp(siz) R M Lvl/name                 OctLoc.c.b A Datatyp(siz) R M Lvl/name

    14-0-0/d STRC(72)    r     1 FPT_NXTUSR                 0-0-0/d STRC(432)   r     1 FPT_WRITE

  ****  Auto variables  ****

  ****  Scalars and arrays  ****
OctLoc.c.b A Datatyp(siz) R M Lvl/name                 OctLoc.c.b A Datatyp(siz) R M Lvl/name

     4-0-0/w PTR         r     1 @KL_SGNRSP                 3-0-0/w PTR         r     1 @PCD
     5-0-0/w UBIN        r     1 ERR                        5-0-0/w BIT         r     1 ERRB
     6-0-0/w PTR         r     1 JIT$                      *0-0-0/w STRC(1008)  r     1 KL_SGNRSP
    *0-0-0/c STRC(900)   r     1 PCD                       11-0-0/w UBIN        r     1 PP(0:2)
     7-0-0/w PTR         r     1 VM_UC$                    10-0-0/w PTR         r     1 VROSEG$

  ****  SYMREF variables  ****

  ****  Scalars and arrays  ****
OctLoc.c.b A Datatyp(siz) R M Lvl/name                 OctLoc.c.b A Datatyp(siz) R M Lvl/name

     0-0-0/w PTR         r     1 B$JIT$                     0-0-0/w PTR         r     1 B$TCB$
     0-0-0/w UBIN        r     1 ES_LOGON_TIME              0-0-0/d STRC(288)   r     1 FPT_PATHCON
     0-0-0/w STRC(585)   r     1 KL_TMSG                    0-0-0/d STRC        r     1 VLR_PATHCON

  ****  BASED and DCB variables  ****
PL6.E3A0      #007=KLH$TSTRM File=KLH$HLP.:E05TSI                                WED 07/30/97 00:52 Page:304

  ****  Scalars and arrays  ****
OctLoc.c.b A Datatyp(siz) R M Lvl/name                 OctLoc.c.b A Datatyp(siz) R M Lvl/name

     0-0-0/w STRC(2448)  r     1 B$ALT                      0-0-0/d STRC(8856)  r     1 B$JIT
     0-0-0/w STRC(144)   r     1 B$TCB                      0-0-0/d ASTR(3528)  r     1 F$DCB
     0-0-0N  NULL        r     1 M$CSCG


   Procedure KLH$TSTRM requires 203 words for executable code.
   Procedure KLH$TSTRM requires 18 words of local(AUTO) storage.

    No errors detected in file KLH$HLP.:E05TSI    .
PL6.E3A0      #007=KLH$TSTRM File=KLH$HLP.:E05TSI                                WED 07/30/97 00:52 Page:305
          *** CROSS REFERENCE LISTING ***
**     DENOTES     IDENTIFIER DEFINITION
<<                 IDENTIFIER'S VALUE SET
>>                 IDENTIFIER'S VALUE USED
<>                 IDENTIFIER SET AND/OR USED
--                 IDENTIFIER REFERENCED
PL6.E3A0      #007=KLH$TSTRM File=KLH$HLP.:E05TSI                                WED 07/30/97 00:52 Page:306
          MINI XREF LISTING

B$ALT.CODE
      4661**DCL      4661--REDEF    4662--REDEF    4662--REDEF
B$ALT.ERR
      4662**DCL      4779>>ASSIGN
B$ALT.ERR.ERR#
      4663**DCL      4663--REDEF
B$ALT.EVID
      4662**DCL      4662--REDEF    4662--REDEF
B$JIT.ACCN
        48**DCL      4756<<ASSIGN
B$JIT.BLINDACCTNG
       196**DCL      4768<<ASSIGN
B$JIT.CPFLAGS1.SLEAZE
       142**DCL       142--REDEF
B$JIT.ERR.MID
        49**DCL        49--REDEF
B$JIT.FACCN
        48**DCL      4757<<ASSIGN
B$JIT.HPSN
       216**DCL      4758<<ASSIGN
B$JIT.JRESPEAK
       210**DCL       211--REDEF
B$JIT.LOCK
       197**DCL      4769<<ASSIGN
B$JIT.LOGONTIME
       185**DCL      4767<<ASSIGN
B$JIT.ORIGINATOR_PORT.FROM_CR
       319**DCL       319--REDEF     320--REDEF
B$JIT.PNR
       223**DCL       223--REDEF
B$JIT.SYSID
        48**DCL      4754<<ASSIGN
PL6.E3A0      #007=KLH$TSTRM File=KLH$HLP.:E05TSI                                WED 07/30/97 00:52 Page:307
B$JIT.TSLINE
       317**DCL       318--REDEF
B$JIT.TSLINE.FEX
       317**DCL      4760<<ASSIGN
B$JIT.TSLINE.LEV
       318**DCL      4762<<ASSIGN
B$JIT.TSLINE.PORT
       317**DCL      4766<<ASSIGN
B$JIT.TSLINE.SPEED
       317**DCL      4761<<ASSIGN
B$JIT.TSLINE.SUBDEVICE
       318**DCL      4764<<ASSIGN
B$JIT.TSLINE.SUBSUBDEVICE
       318**DCL      4765<<ASSIGN
B$JIT.TSLINE.TTYP
       318**DCL      4763<<ASSIGN
B$JIT.UNAME
        48**DCL      4755<<ASSIGN
B$JIT.USER
        48**DCL      4753<<ASSIGN
B$JIT.WOO
        48**DCL      4759<<ASSIGN   4802>>ASSIGN
B$JIT$
      4654**DCL        43--IMP-PTR
B$TCB.ALT$
      4657**DCL      4779>>ASSIGN
B$TCB$
      4655**DCL      4779>>ASSIGN
ERR
      4635**DCL      4636--REDEF    4740<<ASSIGN   4741<>CALL     4750<<ASSIGN
ERRB
      4636**DCL      4779<<ASSIGN
ERROUT
      4741**LABEL    4751--GOTO     4783--GOTO
ES_LOGON_TIME
      4634**DCL      4767>>ASSIGN
PL6.E3A0      #007=KLH$TSTRM File=KLH$HLP.:E05TSI                                WED 07/30/97 00:52 Page:308
F$DCB.ACTPOS
       431**DCL       431--REDEF
F$DCB.ARS
       406**DCL       406--REDEF
F$DCB.ATTR
       424**DCL       425--REDEF    4772<<ASSIGN
F$DCB.BORROW
       439**DCL       439--REDEF     439--REDEF     439--REDEF
F$DCB.DCBNAME.L
       453**DCL       453--IMP-SIZ
F$DCB.EOMCHAR
       410**DCL       410--REDEF
F$DCB.FLDID
       434**DCL       434--REDEF
F$DCB.FORM$
       428**DCL       428--REDEF
F$DCB.FSECT
       444**DCL       444--REDEF
F$DCB.FSN
       421**DCL       421--REDEF     421--REDEF     422--REDEF
F$DCB.HEADER$
       427**DCL       427--REDEF
F$DCB.IXTNSIZE
       425**DCL       425--REDEF
F$DCB.LASTSTA$
       415**DCL       415--REDEF
F$DCB.LDCTX
       428**DCL      4793<<ASSIGN
F$DCB.LINES
       427**DCL      4770<<ASSIGN
F$DCB.LVL
       440**DCL       440--REDEF
F$DCB.NAME.C
       415**DCL       415--REDEF
F$DCB.NOEOF
       436**DCL       436--REDEF
PL6.E3A0      #007=KLH$TSTRM File=KLH$HLP.:E05TSI                                WED 07/30/97 00:52 Page:309
F$DCB.NRECS
       426**DCL       426--REDEF
F$DCB.NRECX
       445**DCL       445--REDEF
F$DCB.OHDR
       437**DCL       437--REDEF
F$DCB.ORG
       420**DCL       420--REDEF
F$DCB.PRECNO
       443**DCL       443--REDEF
F$DCB.RCSZ
       448**DCL       448--REDEF
F$DCB.RECL
       421**DCL      4771<<ASSIGN
F$DCB.RES
       416**DCL       416--REDEF
F$DCB.SETX
       428**DCL       428--REDEF    4794<<ASSIGN
F$DCB.TAB$
       427**DCL       428--REDEF
F$DCB.TDA
       442**DCL       442--REDEF
F$DCB.WSN
       417**DCL       417--REDEF
FPT_NXTUSR
      4730**DCL      4737<>CALL     4749<>CALL     4781<>CALL
FPT_PATHCON
      4684**DCL      4778<>CALL
FPT_PATHCON.PCD_
      4685**DCL      4777<<ASSIGN
FPT_WRITE
      4705**DCL      4810<>CALL
FPT_WRITE.STATION_
      4707**DCL      4707--REDEF
FPT_WRITE.V
      4708**DCL      4705--DCLINIT
PL6.E3A0      #007=KLH$TSTRM File=KLH$HLP.:E05TSI                                WED 07/30/97 00:52 Page:310
FPT_WRITE.V.DVBYTE.VFC#
      4714**DCL      4714--REDEF
IGNORE
      4811**LABEL    4810--CALLALT
JCM$MAKEU
      4669**DCL-ENT  4798--CALL
JCM$RELJ
      4670**DCL-ENT  4782--CALL
JCM$SETU
      4668**DCL-ENT  4747--CALL
JIT$
      4637**DCL      4747<>CALL     4753>>ASSIGN   4754>>ASSIGN   4755>>ASSIGN   4756>>ASSIGN   4757>>ASSIGN
      4758>>ASSIGN   4759>>ASSIGN   4760>>ASSIGN   4761>>ASSIGN   4762>>ASSIGN   4763>>ASSIGN   4764>>ASSIGN
      4765>>ASSIGN   4766>>ASSIGN   4767>>ASSIGN   4768>>ASSIGN   4769>>ASSIGN   4802>>ASSIGN
KLH$SGNTXT
      4671**DCL-ENT  4741--CALL
KLX$9TO8
      4672**DCL-ENT  4789--CALL
KL_AUTOFAIL.FLAGS
      4152**DCL      4153--REDEF
KL_AUTOFAIL.MSGID
      4148**DCL      4149--REDEF
KL_AUTOFAIL.WSN
      4155**DCL      4156--REDEF
KL_FEMSG.FLAGS
      4102**DCL      4103--REDEF
KL_FEMSG.MSGID
      4098**DCL      4099--REDEF
KL_FEMSG.WSN
      4105**DCL      4106--REDEF
KL_NETWORK_BUF.TERMINAL_ID.TERM
      4292**DCL      4301--REDEF
KL_NETWORK_KEY.KEY.TERMID.TERM
      4218**DCL      4227--REDEF
KL_RDBF.FEL#
      4061**DCL      4062--REDEF
PL6.E3A0      #007=KLH$TSTRM File=KLH$HLP.:E05TSI                                WED 07/30/97 00:52 Page:311
KL_SGNRSP
      4500**DCL         8--PROC     4741<>CALL
KL_SGNRSP.NMID
      4513**DCL      4516--REDEF
KL_SGNRSP.RLCID
      4524**DCL      4788<<ASSIGN
KL_SGNRSP.RLCID.LDCTX
      4532**DCL      4789<>CALL
KL_SGNRSP.TERMID.TERM
      4603**DCL      4612--REDEF
KL_TMSG
      4117**DCL      4706--DCLINIT  4707--DCLINIT
KL_TMSG.ACCT
      4140**DCL      4808<<ASSIGN
KL_TMSG.FEPNAME
      4143**DCL      4804<<ASSIGN
KL_TMSG.FEX
      4137**DCL      4803<<ASSIGN
KL_TMSG.FLAGS
      4124**DCL      4125--REDEF
KL_TMSG.LN#
      4138**DCL      4805<<ASSIGN
KL_TMSG.MSGID
      4120**DCL      4121--REDEF
KL_TMSG.NME
      4141**DCL      4809<<ASSIGN
KL_TMSG.SID
      4139**DCL      4806<<ASSIGN
KL_TMSG.UNM
      4142**DCL      4807<<ASSIGN
KL_TMSG.WSN
      4127**DCL      4128--REDEF    4802<<ASSIGN
M$NXTUSR
       399**DCL-ENT  4737--CALL     4749--CALL     4781--CALL
M$PATHCON
       397**DCL-ENT  4778--CALL
PL6.E3A0      #007=KLH$TSTRM File=KLH$HLP.:E05TSI                                WED 07/30/97 00:52 Page:312
M$WRITE
       334**DCL-ENT  4810--CALL
PCD
      4381**DCL         8--PROC     4777--ASSIGN
PCD.ADDD.CINFO
      4431**DCL      4435--REDEF
PCD.ADDD.CINFO.USER
      4432**DCL      4776<<ASSIGN
PCD.ADDD.DEVNM
      4424**DCL      4425--REDEF
PCD.ADDD.FEPNAME
      4409**DCL      4804>>ASSIGN
PCD.ADDD.FEX
      4408**DCL      4760>>ASSIGN   4803>>ASSIGN
PCD.ADDD.NMID
      4438**DCL      4439--REDEF
PCD.ADDD.SPEED
      4417**DCL      4761>>ASSIGN
PCD.ADDD.TERMID.CHAN
      4421**DCL      4766>>ASSIGN   4805>>ASSIGN
PCD.ADDD.TERMID.LEV
      4419**DCL      4762>>ASSIGN
PCD.ADDD.TERMID.SUB
      4422**DCL      4764>>ASSIGN
PCD.ADDD.TERMID.SUBSUB
      4423**DCL      4765>>ASSIGN
PCD.ADDD.TERMID.TTYP
      4420**DCL      4763>>ASSIGN
PCD.TSINFO.ACCT
      4474**DCL      4756>>ASSIGN   4757>>ASSIGN   4808>>ASSIGN
PCD.TSINFO.ATTR
      4482**DCL      4772>>ASSIGN
PCD.TSINFO.HPSN
      4475**DCL      4758>>ASSIGN
PCD.TSINFO.LINES
      4480**DCL      4770>>ASSIGN
PL6.E3A0      #007=KLH$TSTRM File=KLH$HLP.:E05TSI                                WED 07/30/97 00:52 Page:313
PCD.TSINFO.NOHEADER
      4477**DCL      4769>>ASSIGN
PCD.TSINFO.NOSETUP
      4476**DCL      4768>>ASSIGN
PCD.TSINFO.UNAME
      4473**DCL      4755>>ASSIGN   4809>>ASSIGN
PCD.TSINFO.WIDTH
      4481**DCL      4771>>ASSIGN
PCD.TSINFO.WOO
      4479**DCL      4759>>ASSIGN
PP
      4640**DCL      4747<>CALL     4782<>CALL     4798<>CALL
VLR_NXTUSR
      4652**DCL      4730--DCLINIT
VLR_NXTUSR.ERR
      4652**DCL      4738>>IF       4740>>ASSIGN
VLR_NXTUSR.MODE
      4652**DCL      4736<<ASSIGN   4747<>CALL     4748<<ASSIGN   4748>>ASSIGN   4780<<ASSIGN   4780>>ASSIGN
VLR_NXTUSR.SYSID
      4652**DCL      4754>>ASSIGN   4806>>ASSIGN
VLR_NXTUSR.USR
      4652**DCL      4753>>ASSIGN   4776>>ASSIGN   4807>>ASSIGN
VLR_PATHCON.RLCID
      4631**DCL      4788>>ASSIGN
VLR_PATHCON.RLCID.LDCTX
      4632**DCL      4789<>CALL     4793>>ASSIGN   4794>>ASSIGN
VM_UC$
      4638**DCL      4747<>CALL     4770>>ASSIGN   4771>>ASSIGN   4772>>ASSIGN   4793>>ASSIGN   4794>>ASSIGN
VROSEG$
      4639**DCL      4747<>CALL
