VERSION E05

PL6.E3A0      #001=KLH$HLP File=KLH$HLP.:E05TSI                                  WED 07/30/97 00:47 Page:1
        1        1        /*M* KLH$HLP Host logon processor main program*/
        2        2        /*T***********************************************************/
        3        3        /*T*                                                         */
        4        4        /*T* Copyright (c) Bull HN Information Systems Inc., 1997    */
        5        5        /*T*                                                         */
        6        6        /*T***********************************************************/
        7        7        /*X* DTI=2,DCI=4,THI=2,CSI=2,ECI=2,STI=2,IND=2,ENI=2 */
        8        8        KLH$HLP: PROC;
        9        9        /*D* NAME:        KLH$HLP
       10       10             PURPOSE:     To log on all non-local devices to the host system
       11       11             CALL:        CALL KLH$HLP;
       12       12                          KL_RDBF - The logon message buffer just read
       13       13             OUTPUT:      A logged-on device
       14       14                          A logged-on timesharing user if this is a timesharing
       15       15                             logon
       16       16             DESCRIPTION: KLH$HLP takes the logon string portion of the logon message
       17       17                          parses it into ACCT,NAME,PW and PRO and using that
       18       18                          information, reads in the :HLP record for the device
       19       19                          (or user if a timesharing logon) and the :PRO record.
       20       20                          NOTE: In the case of an L6 system program logging on,
       21       21                          canned :HLP and :PRO records are used, no read is
       22       22                          performed.
       23       23                          KLH$SNDHSGN is called for any additional host logon
       24       24                          functions needed.
       25       25                          If any errors occur, a KL_SGNRSP message is built
       26       26                          and stuffed with a reason specifying failed logon.
       27       27                          This message is then sent back to the originator
       28       28                          if the logon.
       29       29
       30       30                          Security logging may be performed dependent upon
       31       31                          the CONTROL defined parameter, ES_LOGSYSACC. Also,
       32       32                          good logons and failed logons due to bad passwords
       33       33                          will cause the :USERS record to be updated.
       34       34        */
       35       35        %INCLUDE CP_6;
       36      116        %INCLUDE EL_SUBS_C;
       37      200        %INCLUDE ES_SUBS_E;
PL6.E3A0      #001=KLH$HLP File=KLH$HLP.:E05TSI                                  WED 07/30/97 00:47 Page:2
       38      226        %INCLUDE B_SEGIDS_C;
       39      765        %INCLUDE B$TABLES_C;
       40      873        %B$XL_UPPER_UR;
       41      877        %INCLUDE PC_SUBS_C;
       42     1209        %INCLUDE AS_SUPER_C;
       43     1644        %INCLUDE F$DCB;
       44     1693        %INCLUDE F_ERRORS_C;
       45     1933        %INCLUDE JC_MACRO_C;
       46     2047        %INCLUDE JC_DATA_R;
       47     2085        %INCLUDE KC$CGBLK;
       48     2133        %INCLUDE KL_AFCN_C;
       49     2234        %INCLUDE KL_MACRO_C;
       50     5586        %INCLUDE KL_ERRORS_C;
       51     5628        %INCLUDE KL_DATA_R;
       52     6092        %INCLUDE KL_SUBS_C;
       53     6146        %INCLUDE KL_SUPER_C;
       54     9048        %INCLUDE KL_CONFIG_M;
       55     9810        %INCLUDE OC_MESSHD_C;
       56     9863        %B$TCB;
       57     9866        %B$ALT;
       58     9874    1   DCL M$NETCON DCB;
       59     9875    1   DCL M$CSCG DCB;
       60     9876    1   DCL CNFG_BUF (0:49) UBIN WORD STATIC INIT(0*0);
       61     9877    1   DCL CNFG$ PTR STATIC INIT(ADDR(CNFG_BUF));
       62     9878        %KL$LINCNFG (NAME=LINCNFG,LGNSIZ=100,STCLASS="BASED(CNFG$)");
       63    10036        %KL$CONFIG_KEY (NAME=CONFIG_KEY,STCLASS=STATIC);
       64    10083        %KL$DEFAULT_KEY (NAME=DEFAULT_KEY,STCLASS=STATIC);
       65    10102        %FPT_READ (FPTN=READ_NETCON,
       66    10103                  KEYS=YES,
       67    10104                   DCB=M$NETCON);
       68    10143        %KL_PCD (FPTN=KL_PCD,CG=1,STCLASS=SYMREF);
       69    10308        %KL_PCD (FPTN=KL$PCD_TS,CG=0,STCLASS="BASED(PCD$)");
       70    10427        %KL_DREC (NAME=KL_HLPR,STCLASS=SYMREF,LAST=",");
       71    10540        %KC$CGID (FPTN=CGID,STCLASS=SYMREF,LVL=2,LAST=",");
       72    10566    1           2 INFO(0:31) UBIN WORD UNAL;
       73    10567        %KL_DREC(NAME=HLPR_RES,STCLASS="BASED",LAST=",");
       74    10680             %KL_RES_CL_DEV(NAME=RES,LVL=2);
PL6.E3A0      #001=KLH$HLP File=KLH$HLP.:E05TSI                                  WED 07/30/97 00:47 Page:3
       75    10740        %KL_PHDR (NAME=PROH,STCLASS="BASED ALIGNED");
       76    10781        %KL_PHDR (NAME=FRGPRO,STCLASS="CONSTANT ALIGNED",WID=0,LIN=0,DLP='0'B,DIC='0'B,TOP=
             10781            '0'B,LC='0'B,TYP=%KLTY_PROG#);
       77    10822        %KL_PHDR (NAME=DEFPRO,STCLASS=CONSTANT,WID=80,LIN=24,IN='1'B,OUT='1'B,
       78    10823                 TOP='0'B,A='0'B,BN='1'B,LC='1'B,LAST=";");
       79    10864        %KL_DREC (NAME=SLUGHLP,STCLASS=CONSTANT,TYP=%KLAT_CG#,NWI="SIZEW(SLUGHLP.CGID)",TNM=
             10864            ' *FEP*',LAST=",");
       80    10977        %KC$CGID (FPTN=CGID,STCLASS=CONSTANT,NAME='HLPCG',LVL=2);
       81    11003        %KL_PHDR (NAME=KL_PROBUF,STCLASS="SYMREF ALIGNED");
       82    11044        %KL_SGN (FPTN=KL$SGN,STCLASS="BASED(RDBF$)",LGNSIZ="KL$SGN.LOGON.LGNSIZ");
       83    11137        %KL_HSGN (FPTN=KL$HSGN,CG=1,STCLASS="BASED(RDBF$)");
       84    11323        %KL_RQSPROFILE (FPTN=KL$RQSPROFILE,STCLASS="BASED(RDBF$)");
       85    11381    1   DCL M$HLPF DCB;
       86    11382    1   DCL M$PROF DCB;
       87    11383    1   DCL ACCT CHAR(8);
       88    11384    1   DCL 1 ADTW REDEF ACCT,
       89    11385    1         2 D CHAR(4),
       90    11386    1         2 TWSN CHAR(4);
       91    11387    1   DCL 1 ACCR REDEF ACCT,                  /* TO TEST FOR "?"                    */
       92    11388    1         2 C1 CHAR(1),
       93    11389    1         2 * CHAR(7);
       94    11390    1   DCL 1 NAME ALIGNED,
       95    11391    1         2 C UBIN BYTE UNAL,
       96    11392    1         2 T CHAR(12);
       97    11393    1   DCL PW CHAR(8);
       98    11394    1   DCL SAVE_PW CHAR(8);
       99    11395    1   DCL 1 PRO ALIGNED,
      100    11396    1         2 C UBIN BYTE UNAL,
      101    11397    1         2 T CHAR(11) UNAL;
      102    11398    1   DCL HOST CHAR(8);
      103    11399    1   DCL 1 NMID (0:3),
      104    11400    1         2 * BIT(1) UNAL,
      105    11401    1         2 BYT UBIN(8) UNAL;
      106    11402    1   DCL FEX UBIN;
      107    11403    1   DCL PSIZ UBIN WORD;
      108    11404    1   DCL HLPER REDEF PSIZ UBIN WORD;
      109    11405    1   DCL SNDPRO BIT(1);
PL6.E3A0      #001=KLH$HLP File=KLH$HLP.:E05TSI                                  WED 07/30/97 00:47 Page:4
      110    11406    1   DCL NODETYPE UBIN;
      111    11407    1   DCL NOSETUP BIT (1) ALIGNED;
      112    11408    1   DCL NOHEADER BIT (1) ALIGNED;
      113    11409    1   DCL PCD$ PTR;
      114    11410    1   DCL P$ PTR;
      115    11411    1   DCL ES_LOGSYSACC UBIN WORD SYMREF;      /* Symdefed in ES_CNTRL_D             */
      116    11412    1   DCL ES$ PTR STATIC INIT(ADDR(ES_LOGSYSACC));
      117    11413    1   DCL LOGSYSACC UBIN WORD BASED;
      118    11414    1   DCL ES_LOGON_TIME UBIN WORD ALIGNED STATIC SYMDEF INIT(0);
      119    11415        %AS_USERS(STR_NAME=AS_USERS,STCLASS=STATIC);
      120    11593    1   DCL KL_STATION CHAR(8) SYMREF;
      121    11594    1   DCL RDBF$ PTR;
      122    11595    1   DCL 1 ACHAR BASED(P$) CALIGNED,
      123    11596    1         2 CNT UBIN BYTE UNAL,
      124    11597    1         2 TXT CHAR (ACHAR.CNT);
      125    11598    1   DCL B$TCB$ PTR SYMREF;
      126    11599        %FPT_READ (FPTN=KL_RDHLPR,STCLASS=SYMREF);
      127    11638        %FPT_READ (FPTN=KL_RDPROR,STCLASS=SYMREF);
      128    11677        %FPT_WRITE (FPTN=FPT_PROWT,STCLASS=STATIC,DCB=M$HLP,STATION=PROWT_STA);
      129    11708        %FPT_WRITE (FPTN=WRTAUTOFAIL,DCB=M$CSCG,BUF=KL_AUTOFAIL);
      130    11739        %VLP_STATION (FPTN=PROWT_STA,STCLASS=STATIC);
      131    11766    1   DCL ASZ$SCRAMBLE ENTRY(1);
      132    11767    1   DCL KLH$HSGN ENTRY(1);
      133    11768    1   DCL KLH$ERRMSG ENTRY(3);
      134    11769    1   DCL KLH$OPFILS ENTRY ALTRET;
      135    11770    1   DCL KLH$SGSCAN ENTRY(9) ALTRET;
      136    11771    1   DCL KLH$SGNRSP ENTRY ALTRET;
      137    11772    1   DCL KLH$SGNTXT ENTRY(2);
      138    11773    1   DCL KLH$NETTRM ENTRY(1) ALTRET;
      139    11774    1   DCL KLH$NETLNK ENTRY(1) ALTRET;
      140    11775    1   DCL KLX$8TO9 ENTRY(3);
      141    11776    1   DCL KLX$CONV_NODE ENTRY(3) ALTRET;
      142    11777    1   DCL KLX$CONV_NODENAME ENTRY(3) ALTRET;
      143    11778    1   DCL KLH$SNDHSGN ENTRY(1) ALTRET;
      144    11779    1   DCL KLX$WRHLPSTA ENTRY(4) ALTRET;
      145    11780    1   DCL JMU$SETSEG ENTRY(2);
      146    11781        %EJECT;
PL6.E3A0      #001=KLH$HLP File=KLH$HLP.:E05TSI                                  WED 07/30/97 00:47 Page:5
      147    11782                                                /* Fix up ES$ for security logging    */
      148    11783    1           CALL JMU$SETSEG(ES$,%SPCL1SID);
      149    11784    1           ES_LOGON_TIME=0;
      150    11785    1           RDBF$=ADDR(KL_RDBF);
      151    11786    2           DO CASE(KL_RDBF.CODE);
      152    11787    2             CASE(IGA_HSGN);
      153    11788    2               CALL KLH$HSGN(KL$HSGN.PCD);
      154    11789    2               RETURN;
      155    11790    2             CASE(IGA_SGNRSP);
      156    11791    2               CALL KLH$SGNRSP;
      157    11792    2               RETURN;
      158    11793    2             CASE(IGA_RQSPRO);
      159    11794    2               NMID = KL$RQSPROFILE.NMID;
      160    11795    3               IF KL$RQSPROFILE.HANDLER ~= ' ' THEN DO; /* Get default record    */
      161    11796    3                   CALL CHARBIN (FEX,SUBSTR(KL_STATION,4,4));
      162    11797    3                   DEFAULT_KEY.NODE = FEX;
      163    11798    3                   DEFAULT_KEY.HNDLR = KL$RQSPROFILE.HANDLER;
      164    11799    3                   READ_NETCON.KEY_ = VECTOR(DEFAULT_KEY);
      165    11800    3                   END;                    /* IF                                 */
      166    11801    3                 ELSE DO;                  /* Get config record                  */
      167    11802    3                   CALL CHARBIN(FEX,SUBSTR(KL_STATION,4,4));
      168    11803    3                   CONFIG_KEY.NODE=FEX;
      169    11804    3                   CONFIG_KEY.TERMID = KL$RQSPROFILE.TERMID;
      170    11805    3                   CONFIG_KEY.TERMID.TTYP = 0;
      171    11806    3                   IF CONFIG_KEY.TERMID.TERM.TERM_NAME ~= ' '
      172    11807    4                     THEN DO;
      173    11808    4                       CONFIG_KEY.TERMID.TERM.CHANNEL = '0'B;
      174    11809    4                       CONFIG_KEY.NODE = 0;
      175    11810    4                       END;
      176    11811    3                   READ_NETCON.KEY_ = VECTOR(CONFIG_KEY);
      177    11812    3                   END;                    /* ELSE                               */
      178    11813    2               PSIZ = 1;
      179    11814    2               READ_NETCON.BUF_ = VECTOR(CNFG_BUF);
      180    11815    2               CALL M$READ(READ_NETCON) ALTRET(RQSPROERR);
      181    11816    2               PRO = LINCNFG.PRO;
      182    11817    2               CALL GETPRO
      183    11818    3                 WHENALTRETURN DO;
PL6.E3A0      #001=KLH$HLP File=KLH$HLP.:E05TSI                                  WED 07/30/97 00:47 Page:6
      184    11819    3   RQSPROERR:      ;
      185    11820    3                   PSIZ = 1;
      186    11821    3                   END;
      187    11822    2               CALL SETPRO;
      188    11823    2               RETURN;
      189    11824    2             CASE(IGA_SGN);
      190    11825    2               NMID = KL$SGN.NMID;         /* The main body of this procedure    */
      191    11826    2             CASE(ELSE);
      192    11827    2               CALL M$XXX;                 /* Woops!!!                           */
      193    11828    2             END;
      194    11829    1           PSIZ=0;
      195    11830    1           PCD$=ADDR(KL_PCD);
      196    11831    1           IF KL_HLPFILS<2 AND KL$SGN.TERMINAL_ID.TTYP~=%KLTY_PROG#
      197    11832    2             THEN DO;
      198    11833    2               CALL KLH$OPFILS ALTRET (LOGON);
      199    11834    2               CALL SNDRJ (%E$NFIL);
      200    11835    2               RETURN;
      201    11836    2               END;
      202    11837    1   LOGON:  ;
      203    11838    1           IF KL$SGN.AUTOLGN
      204    11839    1             OR KL$SGN.PROFILE
      205    11840    2             THEN DO;
      206    11841    2               HLPER = %E$ILGL;
      207    11842    2               CALL CHARBIN(FEX,SUBSTR(KL_STATION,4,4));
      208    11843    2               CONFIG_KEY.NODE= FEX;
      209    11844    2               CONFIG_KEY.TERMID = KL$SGN.TERMINAL_ID;
      210    11845    2               IF CONFIG_KEY.TERMID.TERM.TERM_NAME ~= ' '
      211    11846    3                 THEN DO;
      212    11847    3                   CONFIG_KEY.TERMID.TERM.CHANNEL = '0'B;
      213    11848    3                   CONFIG_KEY.NODE = 0;
      214    11849    3                   END;
      215    11850    2               CONFIG_KEY.TERMID.TTYP = 0;
      216    11851    2               READ_NETCON.BUF_ = VECTOR(CNFG_BUF);
      217    11852    2               READ_NETCON.KEY_ = VECTOR(CONFIG_KEY);
      218    11853    2               CALL M$READ(READ_NETCON)
      219    11854    3                 WHENALTRETURN DO;
      220    11855    3                   IF KL$SGN.PROFILE
PL6.E3A0      #001=KLH$HLP File=KLH$HLP.:E05TSI                                  WED 07/30/97 00:47 Page:7
      221    11856    3                     THEN
      222    11857    3                       KL$SGN.PROFILE = '0'B;
      223    11858    3                     ELSE
      224    11859    3                       GOTO ILGL;
      225    11860    3                   END;
      226    11861    2               IF KL$SGN.AUTOLGN
      227    11862    3                 THEN DO;
      228    11863    3                   KL$SGN.LOGON.LGNSIZ = LINCNFG.LGN.LGNSIZE;
      229    11864    3                   KL$SGN.LOGON.LGNTXT = LINCNFG.LGN.LGNSTRING;
      230    11865    3                   END;
      231    11866    2               END;                        /* IF KL$SGN.AUTOLGN                  */
      232    11867    2           CALL KLH$SGSCAN (KL$SGN.LOGON,ACCT,NAME,PW,PRO,HLPER,HOST,NOSETUP,NOHEADER)
             11867                    WHENALTRETURN DO;
      233    11868    2               IF ES$->LOGSYSACC >= %PC_ES_FAILED# THEN
      234    11869    2                   CALL SECLOG(%ES_JUNK_LOGON#);
      235    11870    2               GOTO ILGL;
      236    11871    2               END;
      237    11872    1           IF HOST = ' '
      238    11873    1             THEN
      239    11874    1               HOST = KL_NODENAME;
      240    11875
      241    11876        /* If this logon is not for this node send it back to NA */
      242    11877    1           IF KL_NODENAME ~= HOST
      243    11878    2             THEN DO;
      244    11879    2               CALL KLX$CONV_NODENAME(HOST,KL_DESTNODE,NODETYPE)
      245    11880    3                 WHENALTRETURN DO;
      246    11881    3                   HLPER = %E$UDHOST;
      247    11882    3                   GOTO ILGL;
      248    11883    3                   END;
      249    11884    2               IF NODETYPE ~= %KL_NODETYPE_HOST
      250    11885    3                 THEN DO;
      251    11886    3                   HLPER = %E$UDHOST;
      252    11887    3                   GOTO ILGL;
      253    11888    3                   END;
      254    11889    2               IF KL_FETBL.QOS(KL_DESTNODE) = 255 /* Cannot talk to this host    */
      255    11890    3                 THEN DO;
      256    11891    3                   HLPER = %E$NOHOST;
PL6.E3A0      #001=KLH$HLP File=KLH$HLP.:E05TSI                                  WED 07/30/97 00:47 Page:8
      257    11892    3                   GOTO ILGL;
      258    11893    3                   END;
      259    11894    2               KL$SGN.NODE = KL_DESTNODE;
      260    11895    2               KL$SGN.AUTOLGN = '0'B;
      261    11896    2               CALL KLX$WRHLPSTA(KL$SGN,SIZEC(KL$SGN),KL_STATION);
      262    11897    2               RETURN;
      263    11898    2               END;
      264    11899    1           KL_DESTNODE = KL_NODE;          /* This one is for me                 */
      265    11900    1           KL_PCD='0'B;
      266    11901    1           KL_PCD.ADDD.FEX=KL$SGN.NODE;
      267    11902    1           FEX = KL$SGN.NODE;
      268    11903    1           CALL KLX$CONV_NODE(KL_PCD.ADDD.FEPNAME,FEX,NODETYPE);
      269    11904    1           KL_PCD.ADDD.NMID=KL$SGN.NMID;
      270    11905    1           KL_PCD.ADDD.SPEED=KL$SGN.SPEED;
      271    11906    1           KL_PCD.ADDD.TERMID.LEV=KL$SGN.TERMINAL_ID.LEV;
      272    11907    1           CALL KLX$8TO9(KL$SGN.TERMINAL_ID.TERM.CHANNEL,KL_PCD.ADDD.TERMID.CHAN ,2);
      273    11908    1           CALL KLX$8TO9(KL$SGN.TERMINAL_ID.TERM.SUBDEVICE,KL_PCD.ADDD.TERMID.SUB ,2);
      274    11909    1           CALL KLX$8TO9(KL$SGN.TERMINAL_ID.TERM.SUBSUBDEVICE,KL_PCD.ADDD.TERMID.SUBSUB
             11909                    ,2);
      275    11910    2           IF ACCR.C1='?' THEN DO;
      276    11911    2               CALL SNDRJ (%E$SGSYN);
      277    11912    2               RETURN;
      278    11913    2               END;
      279    11914    1           HLPER=%E$ILGL;
      280    11915    1           SNDPRO = '1'B;                  /* always send the profile if possible*/
      281    11916    2           DO CASE (KL$SGN.TERMINAL_ID.TTYP); /* CASE on physical device type    */
      282    11917    2             CASE (%KLTY_TTY#,%KLTY_URP#,%KLTY_LINEDEV#);
             11917                      /* A TTY-like ASYNC device or URP device */
      283    11918    2               CALL GETHLP ALTRET (ILGL);
      284    11919    2               IF KL_HLPR.ATYP~=%KLAT_TS# AND KL_HLPR.ATYP~=%KLAT_CG#
      285    11920    2                 AND KL_HLPR.ATYP~=%KLAT_RES#
      286    11921    2                 THEN GOTO ILGL;
      287    11922    3               DO WHILE('0'B);
      288    11923    3   TSCHK:        IF KL_HLPR.ATYP~=%KLAT_TS# THEN GOTO BPRO;
      289    11924    3                 IF PRO.C=0
      290    11925    3                   THEN HLPER=%E$NGPRS;
      291    11926    3                   ELSE HLPER=%E$NOPRS;
PL6.E3A0      #001=KLH$HLP File=KLH$HLP.:E05TSI                                  WED 07/30/97 00:47 Page:9
      292    11927    3   NOPRO:        CALL SNDMSG(HLPER);
      293    11928    3                 PRO.C=4;
      294    11929    3                 PRO.T='NONE';
      295    11930    3                 END;
      296    11931        /*  dont send the profile again if it was specified in the channel config
      297    11932            but not on the logon string.  If it was specified in the config then
      298    11933            nodeadmn already got one */
      299    11934    2               IF KL$SGN.PROFILE AND PRO.C = 0
      300    11935    3                 THEN DO;
      301    11936    3                   SNDPRO = '0'B;
      302    11937    3                   PRO = LINCNFG.PRO;
      303    11938    3                   END;
      304    11939    2                 ELSE
      305    11940    2                   SNDPRO = '1'B;
      306    11941    2               CALL GETPRO ALTRET (TSCHK);
      307    11942    2               IF KL_PCD.ADDD.TERMID.TTYP~=KL$SGN.TERMINAL_ID.TTYP AND KL_HLPR.ATYP=%
             11942                        KLAT_TS#
      308    11943    3                 THEN DO;
      309    11944    3                   HLPER=%E$BDPRS;
      310    11945    3                   GOTO NOPRO;
      311    11946    3                   END;
      312    11947    2               IF KL_HLPR.ATYP=%KLAT_TS#
      313    11948    2                 THEN KL_PCD.ADDD.ACTYP=%KLAC_NONE;
      314    11949    2                 ELSE KL_PCD.ADDD.ACTYP=%KLAC_DEV;
      315    11950    2               KL_PCD.ADDD.ASSOCTRM=ACCT;
      316    11951    2             CASE (%KLTY_PROG#);           /* A system program on the L6         */
      317    11952    2               CALL GETHLP ALTRET (ILGL);
      318    11953    2               IF KL_HLPR.ATYP~=%KLAT_TS# AND KL_HLPR.ATYP~=%KLAT_CG#
      319    11954    2                 AND KL_HLPR.ATYP~=%KLAT_RES#
      320    11955    2                 THEN GOTO ILGL;
      321    11956    2               PRO.C = 4;
      322    11957    2               PRO.T = 'NONE';
      323    11958    2               CALL GETPRO;
      324    11959    2               IF KL_HLPR.ATYP=%KLAT_TS#
      325    11960    2                 THEN KL_PCD.ADDD.ACTYP=%KLAC_NONE;
      326    11961    2                 ELSE KL_PCD.ADDD.ACTYP=%KLAC_DEV;
      327    11962    2               KL_PCD.ADDD.ASSOCTRM=ACCT;
PL6.E3A0      #001=KLH$HLP File=KLH$HLP.:E05TSI                                  WED 07/30/97 00:47 Page:10
      328    11963    2             CASE (%KLTY_SDEV#);           /* A sub-device of a multi-device     */
      329    11964                                                /* bi-sync terminal. This comes from  */
      330    11965                                                /* a list passed back to the FEP on   */
      331    11966                                                /* a multi-device terminal logon      */
      332    11967    2               NAME.C=0;
      333    11968    2               CALL GETHLP ALTRET (ILGL);
      334    11969    2               IF KL_HLPR.ATYP~=%KLAT_CG# AND KL_HLPR.ATYP~=%KLAT_RES#
      335    11970    2                 AND KL_HLPR.ATYP~=%KLAT_TS#
      336    11971    2                 THEN GOTO ILGL;
      337    11972    2               CALL GETPRO ALTRET (BPRO);
      338    11973    2               KL_PCD.ADDD.ACTYP=%KLAC_TDEV;
      339    11974    2               KL_PCD.ADDD.ASSOCTRM=KL_HLPR.TNAME;
      340    11975    2             CASE(%KLTY_FEP#);             /* A FEP                              */
      341    11976    2               KL_HLPR = SLUGHLP;
      342    11977    2               KL_PCD.ADDD.IO='11'B;
      343    11978    2               KL_PCD.ADDD.TERMID.TTYP=%KLTY_FEP#;
      344    11979    2               KL_PROBUF=FRGPRO;
      345    11980    2               KL_PCD.ADDD.ACTYP=%KLAC_DEV;
      346    11981    2               KL_PCD.ADDD.ASSOCTRM=ACCT;
      347    11982    2             CASE (ELSE);
      348    11983    2               GOTO ILGL;
      349    11984    2             END;
      350    11985    1           IF KL_PCD.ADDD.TERMID.TTYP~=KL$SGN.TERMINAL_ID.TTYP THEN GOTO BPROT;
      351    11986                                      /* PROFILE device-type ~= physical device-type  */
      352    11987    1           KL_PCD.ADDD.TNAME=KL_HLPR.SNAME;
      353    11988    1           KL_PCD.ADDD.TWSN=KL_HLPR.TWSN#;
      354    11989    1           KL_PCD.ADDD.ATYP=KL_HLPR.ATYP;
      355    11990    1           KL_PCD.ADDD.COS = KL_HLPR.COS;
      356    11991    2           DO CASE (KL_HLPR.ATYP);         /* CASE on attachment type            */
      357    11992    2             CASE (%KLAT_TS#);             /* Timesharing user                   */
      358    11993    3               IF KL_HLPR.FLAGS.OLOK='0'B THEN DO;
      359    11994    3                   CALL SNDRJ (%E$OLIL);
      360    11995    3                   RETURN;
      361    11996    3                   END;
      362    11997    2               IF KL_PROBUF.IO~='11'B THEN GOTO BPROT;
      363    11998    2               KL$PCD_TS.TSINFO.ACCT=ACCT;
      364    11999    2               KL$PCD_TS.TSINFO.UNAME=NAME.T;
PL6.E3A0      #001=KLH$HLP File=KLH$HLP.:E05TSI                                  WED 07/30/97 00:47 Page:11
      365    12000    2               KL$PCD_TS.TSINFO.HPSN=KL_HLPR.HPS.N;
      366    12001    2               KL$PCD_TS.TSINFO.WOO=KL_HLPR.WOO;
      367    12002    2               KL$PCD_TS.TSINFO.LINES=KL_PROBUF.LINES;
      368    12003    2               KL$PCD_TS.TSINFO.WIDTH=KL_PROBUF.WIDTH;
      369    12004    2               KL$PCD_TS.TSINFO.ATTR=KL_PROBUF.ATTR;
      370    12005    2               KL$PCD_TS.TSINFO.NOSETUP = NOSETUP; /* FROM SGSCAN CALL           */
      371    12006    2               KL$PCD_TS.TSINFO.NOHEADER = NOHEADER; /*FROM SGSCAN CALL*/
      372    12007    2               KL$PCD_TS.ADDD.DEVNM='*TSTERM*';
      373    12008    2               IF SNDPRO THEN
      374    12009    2                   CALL SETPRO;
      375    12010    2               CALL KLH$SNDHSGN(HLPER) ALTRET (ILGL);
      376    12011                    /* May be logging all logons or may at least have to
      377    12012                       update :USERS for successful logons.              */
      378    12013    2               IF ES$->LOGSYSACC=%PC_ES_LOGACC_ALL# THEN
      379    12014    2                   CALL SECLOG(%ES_LOG_ALL#);
      380    12015    3                 ELSE CALL UPD_USERS(%ES_LOG_ALL#) WHENALTRETURN DO;
      381    12016    3                       END;
      382    12017    2             CASE (%KLAT_CG#,%KLAT_RES#);  /* Device on a comgroup               */
      383    12018                                                /* Remote FEPs                        */
      384    12019                                                /* Sub-devices of a multi-device      */
      385    12020                                                /* terminal are of this type          */
      386    12021    2               KL_PCD.CGID = KL_HLPR.CGID;
      387    12022    2               KL_PCD.ADDD.NOCGREJ = KL_HLPR.FLAGS.NOCGREJ;
      388    12023    2               KL_PCD.ADDD.NOCGINF = KL_HLPR.FLAGS.NOCGINF;
      389    12024    2               KL_PCD.ADDD.USETP = KL_HLPR.FLAGS.USETP;
      390    12025    2               IF KL_HLPR.FLAGS.RNME
      391    12026    2                 THEN KL_PCD.ADDD.DEVNM = KL_HLPR.RENAME;
      392    12027    2                 ELSE KL_PCD.ADDD.DEVNM = ACCT;
      393    12028    2               KL_PCD.CGINFO.ATTR = KL_PROBUF.ATTR;
      394    12029    2               KL_PCD.CGINFO.FLG.INPUT = KL_PROBUF.IO.INPUT;
      395    12030    2               KL_PCD.CGINFO.FLG.OUTPUT = KL_PROBUF.IO.OUTPUT;
      396    12031    2               KL_PCD.CGINFO.WIDTH = KL_PROBUF.WIDTH;
      397    12032    2               KL_PCD.CGINFO.LENGTH = KL_PROBUF.LINES;
      398    12033    2               IF KL_HLPR.ATYP = %KLAT_RES#
      399    12034    3                 AND SUBSTR(KL_HLPR.RENAME,0,2) = 'CL' THEN DO;
      400    12035    3                   KL_PCD.CGINFO.RESINFO.AUACCT =
      401    12036    3                     ADDR(KL_HLPR)->HLPR_RES.RES.AUACCOUNT;
PL6.E3A0      #001=KLH$HLP File=KLH$HLP.:E05TSI                                  WED 07/30/97 00:47 Page:12
      402    12037    3                   KL_PCD.CGINFO.RESINFO.MODE = ADDR(KL_HLPR)->HLPR_RES.RES.MODE;
      403    12038    3                   KL_PCD.CGINFO.ATTR = ADDR(KL_HLPR)->HLPR_RES.RES.ATTR;
      404    12039    3                   KL_PCD.CGINFO.RESINFO.RNAME = ADDR(KL_HLPR)->HLPR_RES.RES.RNAME;
      405    12040    3                   KL_PCD.CGINFO.NWINFO = KL_HLPR.NWINFO;
      406    12041    3                   END;
      407    12042    3                 ELSE DO;
      408    12043    3                   KL_PCD.CGINFO.WHO.ACCT = ACCT;
      409    12044    3                   KL_PCD.CGINFO.XTRAINFO = KL_HLPR.INFO;
      410    12045    3                   KL_PCD.CGINFO.NWINFO = KL_HLPR.NWINFO - SIZEW(KL_HLPR.CGID);
      411    12046    3                   END;
      412    12047    2               KL_PCD.CGINFO.WHO.NAME = NAME.T;
      413    12048    2               IF SNDPRO THEN
      414    12049    2                   CALL SETPRO;
      415    12050    2               CALL KLH$SNDHSGN(HLPER) ALTRET(ILGL);
      416    12051                    /* May be logging all logons or may at least have to
      417    12052                       update :USERS for successful logons.              */
      418    12053    2               IF ES$->LOGSYSACC=%PC_ES_LOGACC_ALL# THEN
      419    12054    2                   CALL SECLOG(%ES_LOG_ALL#);
      420    12055    3                 ELSE CALL UPD_USERS(%ES_LOG_ALL#) WHENALTRETURN DO;
      421    12056    3                       END;
      422    12057    2             CASE(ELSE);
      423    12058    2               GOTO ILGL;
      424    12059    2             END;
      425    12060    1   RET:    RETURN;
      426    12061    1   BPRO:   IF PRO.C=0
      427    12062    1             THEN HLPER=%E$NOPR;
      428    12063    1             ELSE HLPER=%E$NGPR;
      429    12064    2           DO WHILE('0'B);
      430    12065    2   BPROT:    HLPER=%E$BDPR;
      431    12066    2             END;
      432    12067    1   ILGL:   CALL SNDRJ (HLPER);
      433    12068
      434    12069        /*   If this is an AUTO logon send message to console */
      435    12070    1           IF KL$SGN.AUTOLGN
      436    12071    2             THEN DO;
      437    12072    2               KL_AUTOFAIL.FEX = KL$SGN.NODE;
      438    12073    2               KL_AUTOFAIL.LEVEL = KL$SGN.TERMINAL_ID.LEV;
PL6.E3A0      #001=KLH$HLP File=KLH$HLP.:E05TSI                                  WED 07/30/97 00:47 Page:13
      439    12074    2               CALL KLX$8TO9(KL$SGN.TERMINAL_ID.TERM.CHANNEL,KL_AUTOFAIL.CHAN,2);
      440    12075    2               CALL KLX$8TO9(KL$SGN.TERMINAL_ID.TERM.SUBDEVICE,KL_AUTOFAIL.SUBDEV,2);
      441    12076    2               CALL KLX$8TO9(KL$SGN.TERMINAL_ID.TERM.SUBSUBDEVICE,KL_AUTOFAIL.SUBSUBDEV
             12076                        ,2);
      442    12077    2               KL_AUTOFAIL.REASON = HLPER;
      443    12078    2               CALL KLX$CONV_NODE(KL_AUTOFAIL.FEPNAME,FEX,NODETYPE);
      444    12079    2               CALL M$WRITE (WRTAUTOFAIL);
      445    12080    2               END;
      446    12081    1           RETURN;
      447    12082        %EJECT;
PL6.E3A0      #001=KLH$HLP File=KLH$HLP.:E05TSI                                  WED 07/30/97 00:47 Page:14
      448    12083    1   GETHLP: PROC ALTRET;
      449    12084        /*I* NAME:        GETHLP
      450    12085             PURPOSE:     To obtain the :HLP record and verify the PASSWORD
      451    12086             CALL:        CALL GETHLP ALTRET(LBL);
      452    12087             INPUT:       ACCT - Logging on account
      453    12088                          NAME - Logging on user name (TEXTC)
      454    12089             OUTPUT:      KL_HLPR - The read-in :HLP record
      455    12090                          HLPER - Error set to %E$HLPBD if read of :HLP gives
      456    12091                             unexpected ALTRETURN error code (not %E$NOKEY)
      457    12092                             Any other error condition sets HLPER=%E$ILGL.
      458    12093             DESCRIPTION: GETHLP formats a key out of ACCT and NAME and uses that
      459    12094                          key to read the :HLP record. The password is verified.
      460    12095                          If the record exists and the password matches,
      461    12096                          GETHLP RETURNs normally, otherwise it ALTRETURNs with
      462    12097                          HLPER filled in.
      463    12098        */
      464    12099    2           KL_HLPKEY.ACCT=ACCT;
      465    12100    2           KL_HLPKEY.CNT=NAME.C+SIZEC(KL_HLPKEY.ACCT);
      466    12101    2           KL_HLPKEY.NAME=NAME.T;
      467    12102    2           CALL M$READ (KL_RDHLPR) ALTRET (RDALT);
      468    12103    2           SAVE_PW=PW;
      469    12104    2           CALL ASZ$SCRAMBLE (PW);
      470    12105                /* May want to log it in the security log. At least, update
      471    12106                   the bad logon count in the :USERS record.               */
      472    12107    3           IF PW~=KL_HLPR.PASSWORD THEN DO;
      473    12108    3               IF ES$->LOGSYSACC >= %PC_ES_FAILEDPW# THEN
      474    12109    3                   CALL SECLOG(%ES_BAD_PW#);
      475    12110    4                 ELSE CALL UPD_USERS(%ES_BAD_PW#) WHENALTRETURN DO;
      476    12111    4                       END;
      477    12112    3               GOTO ILGL;
      478    12113    3               END;
      479    12114    2           RETURN;
      480    12115    2   RDALT:  IF B$TCB$->B$TCB.ALT$->B$ALT.ERR.CODE~=%E$NOKEY
      481    12116    2             THEN HLPER=%E$HLPBD;
      482    12117    3             ELSE DO;
      483    12118    3               IF ES$->LOGSYSACC >= %PC_ES_FAILEDPWNE# THEN
      484    12119    3                   CALL SECLOG(%ES_NO_SUCH_USER#);
PL6.E3A0      #001=KLH$HLP File=KLH$HLP.:E05TSI                                  WED 07/30/97 00:47 Page:15
      485    12120    3   ILGL:       HLPER=%E$ILGL;
      486    12121    3               END;
      487    12122    2           ALTRETURN;
      488    12123    2   END GETHLP;
      489    12124        %EJECT;
PL6.E3A0      #001=KLH$HLP File=KLH$HLP.:E05TSI                                  WED 07/30/97 00:47 Page:16
      490    12125    1   GETPRO: PROC ALTRET;
      491    12126        /*I* NAME:        GETPRO
      492    12127             PURPOSE:     To read in the profile record and set some values
      493    12128             CALL:        CALL GETPRO ALTRET(LBL);
      494    12129             INPUT:       PRO - A possibly filled-in profile key
      495    12130                          KL_HLPR - The device's (user's) :HLP record
      496    12131                          DEFPRO - SLUG's default profile record
      497    12132             OUTPUT:      KL_PROBUF - The read-in (or default) profile record
      498    12133                          KL_PCD.ADDD.IO - Input, output or both
      499    12134                          KL_PCD.ADDD.TERMID.TTYP - Terminal type (TTY,STRM,SDEV or PROG)
      500    12135                          PSIZ - Set to the length of the read in profile
      501    12136                             record now in KL_PROBUF. If no profile record
      502    12137                             was read in (including using DEFPRO as KL_PROBUF)
      503    12138                             then PSIZ will be zero.
      504    12139             DESCRIPTION: GETPRO reads a :PRO record using either PRO (user-specified)
      505    12140                          or KL_HLPR.PNAME (:HLP-record specified default) and
      506    12141                          uses the found information to update the OUTPUT fields
      507    12142                          described above. KL_PROBUF is returned with the read-in
      508    12143                          :PRO record intact. If the record does not exist, GETPRO
      509    12144                          will ALTRETURN. If no profile was specified either
      510    12145                          on the signon or as a :HLP-record default, DEFPRO
      511    12146                          will be used as the default profile but PSIZ will
      512    12147                          be zero. Also, if 'NONE' or 'none'
      513    12148                          was specified as the profile name, then again
      514    12149                          DEFPRO will be used but PSIZ will be zero.
      515    12150        */
      516    12151        %EJECT;
PL6.E3A0      #001=KLH$HLP File=KLH$HLP.:E05TSI                                  WED 07/30/97 00:47 Page:17
      517    12152    2           PSIZ = 0;
      518    12153    2           IF PRO.C=0
      519    12154    2             THEN P$ = ADDR(KL_HLPR.PNAME);
      520    12155    2             ELSE P$ = ADDR(PRO);
      521    12156    2           KL_PROKEY.C = ACHAR.CNT;
      522    12157    2           CALL XLATE (KL_PROKEY.T , B$XL_UPPER_UR , ACHAR.TXT);
      523    12158    2           IF KL_PROKEY.C=0 OR KL_PROKEY.T='NONE'
      524    12159    3             THEN DO;
      525    12160    3               KL_PROBUF=DEFPRO;
      526    12161    3               PSIZ = 0;
      527    12162    3               KL_PCD.ADDD.TERMID.TTYP=KL$SGN.TERMINAL_ID.TTYP;
      528    12163    3               END;
      529    12164    3             ELSE DO;
      530    12165    4               CALL M$READ(KL_RDPROR) WHENALTRETURN DO;
      531    12166    4                   ALTRETURN;
      532    12167    4                   END;
      533    12168    3               PSIZ=DCBADDR(DCBNUM(M$PROF))->F$DCB.ARS;
      534    12169    3               KL_PCD.ADDD.TERMID.TTYP=KL_PROBUF.TTYP;
      535    12170    3               END;
      536    12171    2           KL_PCD.ADDD.IO=KL_PROBUF.IO;
      537    12172    2           RETURN;
      538    12173    2   END GETPRO;
      539    12174        %EJECT;
PL6.E3A0      #001=KLH$HLP File=KLH$HLP.:E05TSI                                  WED 07/30/97 00:47 Page:18
      540    12175    1   SETPRO: PROC;
      541    12176        /*D* NAME:        SETPRO
      542    12177             PURPOSE:     To send a profile message on behalf of this path
      543    12178             CALL:        CALL SETPRO;
      544    12179             INPUT:       PSIZ - Size of KL_PROBUF
      545    12180                          KL_PROBUF - The profile record
      546    12181             OUTPUT:      A set profile message to Node Admin
      547    12182             DESCRIPTION: SETPRO sends a set profile message to Node Admin
      548    12183                          on behalf of this path if PSIZ is not zero. The
      549    12184                          profile information is obtained from KL_PROBUF
      550    12185                          and send without the profile header portion.
      551    12186        */
      552    12187
      553    12188    2   DCL SIZE SBIN;
      554    12189    2   DCL IMP# UBIN;
      555    12190    2   DCL CHR$SIZE CHAR(SIZE) BASED;
      556    12191        %KL_PRFRSP(FPTN=PRFRSP,PRFSIZE=1024,STCLASS=AUTO);
      557    12241
      558    12242    2           IF PSIZ = 0
      559    12243    2             THEN
      560    12244    2               RETURN;
      561    12245    2           SIZE=PSIZ-LENGTHC(PROH);
      562    12246    2           IF SIZE<=0
      563    12247    2             THEN
      564    12248    2               SIZE = 0;
      565    12249    2           PRFRSP.FCN=IGA_PRFRSP;
      566    12250    2           PRFRSP.IMP = '0'B;
      567    12251    2           PRFRSP.NMID=NMID;
      568    12252    2           PRFRSP.PROFILE.PRFSIZE.BYT(1)=SIZE;
      569    12253    2           PRFRSP.PROFILE.PRFSIZE.BYT(0)=SIZE/256;
      570    12254    2           PRFRSP.PROFILE.PRFTXT=
      571    12255    2             PINCRC(ADDR(KL_PROBUF),LENGTHC(PROH))->CHR$SIZE;
      572    12256    2           SIZE=LENGTHC(PRFRSP)-LENGTHC(PRFRSP.PROFILE.PRFTXT)+SIZE;
      573    12257    2           IMP# = KL_PROBUF.IMP#;
      574    12258    2           IF SIZE > 0 AND IMP# > 0
      575    12259    2             THEN
      576    12260    2               PRFRSP.MORE = '1'B;
PL6.E3A0      #001=KLH$HLP File=KLH$HLP.:E05TSI                                  WED 07/30/97 00:47 Page:19
      577    12261    2             ELSE
      578    12262    2               PRFRSP.MORE = '0'B;
      579    12263    2           CALL KLX$WRHLPSTA(PRFRSP,SIZE,KL_STATION);
      580    12264    2           KL_PROKEY.C = LENGTHC(KL_PROKEY) - 1;
      581    12265    2           PRFRSP.IMP = '1'B;
      582    12266    2           IF PRFRSP.MORE
      583    12267    2             THEN
      584    12268    3             DO KL_PROKEY.IMP# = 1 TO IMP#;
      585    12269    3               CALL M$READ (KL_RDPROR)
      586    12270    4                 WHENRETURN DO;
      587    12271    4                   SIZE = DCBADDR(DCBNUM(M$PROF))->F$DCB.ARS ;
      588    12272    4                   PRFRSP.PROFILE.PRFTXT = ADDR(KL_PROBUF)->CHR$SIZE;
      589    12273    4                   PRFRSP.PROFILE.PRFSIZE.BYT(1) = SIZE;
      590    12274    4                   PRFRSP.PROFILE.PRFSIZE.BYT(0) = SIZE/256;
      591    12275    4                   IF KL_PROKEY.IMP# = IMP#
      592    12276    4                     THEN
      593    12277    4                       PRFRSP.MORE = '0'B;
      594    12278    4                   SIZE = SIZE + LENGTHC(PRFRSP) - LENGTHC(PRFRSP.PROFILE.PRFTXT);
      595    12279    4                   CALL KLX$WRHLPSTA(PRFRSP,SIZE,KL_STATION);
      596    12280    4                   END;
      597    12281    3               END;
      598    12282    2           RETURN;
      599    12283    2   END SETPRO;
      600    12284
      601    12285        /*D* NAME:        SNDMSG
      602    12286             PURPOSE:     To send a message to the device
      603    12287             DESCRIPTION: SNDMSG simply takes ERR and gets an errmsg for it
      604    12288                          and sends that message to the device
      605    12289        */
      606    12290    1   SNDMSG: PROC(ERR);
      607    12291    2   DCL ERR UBIN;
      608    12292        %KL_WRITE(FPTN=KL_WRITE,STCLASS=AUTO);
      609    12331    2   DCL SIZ UBIN;
      610    12332
      611    12333    2           KL_WRITE='0'B;
      612    12334    2           KL_WRITE.FCN=IGA_WRITE;
      613    12335    2           KL_WRITE.NMID = NMID;
PL6.E3A0      #001=KLH$HLP File=KLH$HLP.:E05TSI                                  WED 07/30/97 00:47 Page:20
      614    12336    2           SIZ=LENGTHC(KL_WRITE.MESSAGE.MSGTXT);
      615    12337    2           CALL KLH$ERRMSG(KL_WRITE.MESSAGE.MSGTXT,SIZ,ERR);
      616    12338    2           KL_WRITE.MESSAGE.MSGSIZE=SIZ;
      617    12339    2           SIZ=LENGTHC(KL_WRITE)-LENGTHC(KL_WRITE.MESSAGE.MSGTXT)+KL_WRITE.MESSAGE.
             12339                    MSGSIZE;
      618    12340    2           CALL KLX$WRHLPSTA(KL_WRITE,SIZ,KL_STATION);
      619    12341    2           RETURN;
      620    12342    2   END SNDMSG;
      621    12343
      622    12344        /*D* NAME:        SNDRJ
      623    12345             PURPOSE:     To format and send a KL_SGNRSP message rejecting this logon
      624    12346             CALL:        CALL SNDRJ(ERR);
      625    12347             INPUT:       ERR - The reason for the reject
      626    12348             OUTPUT:      KL_SGNRSP - The signon response as a reject message
      627    12349             DESCRIPTION: SNDRJ formats a KL_SGNRSP message, calls KLH$SGNTXT
      628    12350                          to complete filling out the .MESSAGE portion, and
      629    12351                          sends this message to the originating station.
      630    12352        */
      631    12353
      632    12354    1   SNDRJ:  PROC(ERR);
      633    12355
      634    12356    2   DCL ERR UBIN;
      635    12357    2   DCL SIZ UBIN;
      636    12358        %KL_SGNRSP (FPTN=KL_SGNRSP,RSPSIZ=80,STCLASS=AUTO);
      637    12493
      638    12494    2           KL_SGNRSP='0'B;
      639    12495    2           KL_SGNRSP.FCN=IGA_SGNRSP;
      640    12496    2           KL_SGNRSP.NMID=KL$SGN.NMID;
      641    12497    2           CALL KLH$SGNTXT(KL_SGNRSP,ERR);
      642    12498    2           IF HLPER = %E$NOHOST THEN
      643    12499    2               KL_SGNRSP.RLCID.NODE = KL_DESTNODE;
             12499                        /* node # device is attempting logon to*/
      644    12500    2           SIZ=LENGTHC(KL_SGNRSP)-LENGTHC(KL_SGNRSP.MESSAGE.RSPTXT)
      645    12501    2             +KL_SGNRSP.MESSAGE.RSPSIZ;
      646    12502    2           CALL KLX$WRHLPSTA(KL_SGNRSP,SIZ,KL_STATION);
      647    12503    2           RETURN;
      648    12504    2   END SNDRJ;
PL6.E3A0      #001=KLH$HLP File=KLH$HLP.:E05TSI                                  WED 07/30/97 00:47 Page:21
      649    12505        %EJECT;
PL6.E3A0      #001=KLH$HLP File=KLH$HLP.:E05TSI                                  WED 07/30/97 00:47 Page:22
      650    12506    1   SECLOG: PROC(REASON);
      651    12507
      652    12508        /*I* NAME:        SECLOG
      653    12509
      654    12510             PURPOSE:     To fill in and write a record to the security log
      655    12511                          for system accesses and/or possibly update the
      656    12512                          :USERS record for security purposes.
      657    12513
      658    12514             CALL:        CALL SECLOG(reason);
      659    12515
      660    12516             INPUT:       A reason as defined in the ES_SUBS_E include file.
      661    12517
      662    12518             OUTPUT:      In all cases, a record will be written to the
      663    12519                          security log via M$WRSYSLOG. Some cases will also
      664    12520                          require security updates to the :USERS record.
      665    12521
      666    12522             DESCRIPTION: SECLOG will only be called if the value of
      667    12523                          ES_LOGSYSACC (defined via CONTROL) indicates that
      668    12524                          security logging is desired. Dependent upon the
      669    12525                          specific type of logging desired, it may be called
      670    12526                          when (1) a garbage logon is given, (2) a logon
      671    12527                          is given which does not exist in :HLP, (3) a logon
      672    12528                          is given which does exist in :HLP but has failed
      673    12529                          the password check, or (4) logging of all system
      674    12530                          accesses is desired.
      675    12531
      676    12532                          The security log structure is filled in
      677    12533                          from information found in the KL$SGN and KL_HLPR
      678    12534                          (:HLP record) structures and M$WRSYSLOG is called.
      679    12535                          If the reason passed to SECLOG
      680    12536                          indicates that the logon given was good except for
      681    12537                          the password, the bad password is also placed in
      682    12538                          the security record and the count of bad logon
      683    12539                          attempts since the last system exit is incremented
      684    12540                          in the :USERS record. The online PRIV and PPRIV
      685    12541                          information is copied from the :USERS record into
      686    12542                          the security record in this case. If logging a good
PL6.E3A0      #001=KLH$HLP File=KLH$HLP.:E05TSI                                  WED 07/30/97 00:47 Page:23
      687    12543                          logon, the current logon time and bad logon counts
      688    12544                          in the :USERS records will be updated.
      689    12545        */
      690    12546    2   DCL REASON UBIN;
      691    12547        %INCLUDE ES_TABLES_M;
      692    12941        %ES$SECLOG(NAME=ES$SECLOG,STCLASS=STATIC);
      693    13218        %INCLUDE B$JIT;
      694    13508        %B$JIT0_ES_MODES;
      695    13512    2   DCL B$JIT$ PTR SYMREF;
      696    13513        %FPT_WRSYSLOG(FPTN=WR_SECLOG,
      697    13514                  ENTRY=ES$SECLOG,
      698    13515                  FILENUM=EL_SEC,
      699    13516                  SIZE="SIZEW(ES$SECLOG)",
      700    13517                  TYPE=EL_SYS_ACCESS);
      701    13532        %INCLUDE AS_SUBS_C;
      702    14946
      703    14947    2           ES$SECLOG.REASON=REASON;
      704    14948    2           ES$SECLOG.GRANTED='0'B;
      705    14949    2           ES$SECLOG.MODE=0;
      706    14950    2           ES$SECLOG.ACCN = ' ';
      707    14951    2           ES$SECLOG.UNAME = ' ';
      708    14952    2           ES$SECLOG.PASSWORD = ' ';
      709    14953    2           ES$SECLOG.PRIV='0'B;
      710    14954    2           ES$SECLOG.PPRIV='0'B;
      711    14955    2           ES$SECLOG.LOGON.L = 0;
      712    14956    2           ES$SECLOG.LOGON.C = ' ';
      713    14957    3           IF REASON ~= %ES_JUNK_LOGON# THEN DO;
      714    14958    3               ES$SECLOG.TSLINE.FEX = KL_PCD.ADDD.FEX;
      715    14959    3               ES$SECLOG.TSLINE.PORT = BITBIN(KL_PCD.ADDD.TERMID.CHAN);
      716    14960    3               ES$SECLOG.TSLINE.LEV = KL_PCD.ADDD.TERMID.LEV;
      717    14961    3               ES$SECLOG.TSLINE.SUBDEVICE = BITBIN(KL_PCD.ADDD.TERMID.SUB);
      718    14962    3               ES$SECLOG.TSLINE.SUBSUBDEVICE = BITBIN(KL_PCD.ADDD.TERMID.SUBSUB);
      719    14963    3               END;
      720    14964
      721    14965    3           DO CASE(REASON);
      722    14966    3             CASE(%ES_LOG_ALL#);
      723    14967    3               ES$SECLOG.GRANTED='1'B;
PL6.E3A0      #001=KLH$HLP File=KLH$HLP.:E05TSI                                  WED 07/30/97 00:47 Page:24
      724    14968    3               ES$SECLOG.ACCN=ACCT;
      725    14969    3               IF NAME.C ~= 0 THEN
      726    14970    3                   ES$SECLOG.UNAME=NAME.T;
      727    14971    4               DO CASE(KL_HLPR.ATYP);
      728    14972    4                 CASE(%KLAT_TS#);
      729    14973    4                   ES$SECLOG.MODE=%M_INT#;
      730    14974    4                 CASE(%KLAT_CG#);
      731    14975    4                   ES$SECLOG.MODE=%M_CG#;
      732    14976    4                 CASE(%KLAT_RES#);
      733    14977    4                   ES$SECLOG.MODE=%M_RES#;
      734    14978    4                 END;
      735    14979    3               CALL UPD_USERS(%ES_LOG_ALL#) ALTRET(LOG_IT);
      736    14980    3             CASE(%ES_JUNK_LOGON#);
      737    14981    3               ES$SECLOG.LOGON.L=KL$SGN.LOGON.LGNSIZ;
      738    14982    3               IF ES$SECLOG.LOGON.L > LENGTHC(ES$SECLOG.LOGON.C) THEN
      739    14983    3                   ES$SECLOG.LOGON.L=LENGTHC(ES$SECLOG.LOGON.C);
      740    14984    3               ES$SECLOG.LOGON.C=KL$SGN.LOGON.LGNTXT;
      741    14985    3               ES$SECLOG.TSLINE.FEX=KL$SGN.NODE;
      742    14986    3               ES$SECLOG.TSLINE.LEV=KL$SGN.TERMINAL_ID.LEV;
      743    14987    3               CALL KLX$8TO9(KL$SGN.TERMINAL_ID.TERM.CHANNEL,
      744    14988    3                 ES$SECLOG.TSLINE.PORT,2);
      745    14989    3               CALL KLX$8TO9(KL$SGN.TERMINAL_ID.TERM.SUBDEVICE,
      746    14990    3                 ES$SECLOG.TSLINE.SUBDEVICE,2);
      747    14991    3               CALL KLX$8TO9(KL$SGN.TERMINAL_ID.TERM.SUBSUBDEVICE,
      748    14992    3                 ES$SECLOG.TSLINE.SUBSUBDEVICE,2);
      749    14993    3             CASE(%ES_NO_SUCH_USER#);
      750    14994    3               ES$SECLOG.ACCN=ACCT;
      751    14995    3               IF NAME.C ~= 0 THEN
      752    14996    3                   ES$SECLOG.UNAME = NAME.T;
      753    14997    3             CASE(%ES_BAD_PW#);
      754    14998    3               ES$SECLOG.ACCN=ACCT;
      755    14999    3               IF NAME.C ~= 0 THEN
      756    15000    3                   ES$SECLOG.UNAME = NAME.T;
      757    15001    3               ES$SECLOG.PASSWORD = SAVE_PW;
      758    15002    4               DO CASE(KL_HLPR.ATYP);
      759    15003    4                 CASE(%KLAT_TS#);
      760    15004    4                   ES$SECLOG.MODE=%M_INT#;
PL6.E3A0      #001=KLH$HLP File=KLH$HLP.:E05TSI                                  WED 07/30/97 00:47 Page:25
      761    15005    4                 CASE(%KLAT_CG#);
      762    15006    4                   ES$SECLOG.MODE=%M_CG#;
      763    15007    4                 CASE(%KLAT_RES#);
      764    15008    4                   ES$SECLOG.MODE=%M_RES#;
      765    15009    4                 END;
      766    15010    3               CALL UPD_USERS(%ES_BAD_PW#) ALTRET(LOG_IT);
      767    15011    3               ES$SECLOG.PRIV = AS_USERS.PRIV(AS_M_INT#); /* Online privs        */
      768    15012    3               ES$SECLOG.PPRIV = AS_USERS.PPRIV(AS_M_INT#); /* Online pprivs     */
      769    15013    3             CASE(ELSE);
      770    15014                                                /* Should never happen                */
      771    15015    3               RETURN;
      772    15016    3             END;                          /* End Do Case(Reason)                */
      773    15017    2   LOG_IT: ;
      774    15018    2           CALL M$WRSYSLOG(WR_SECLOG);
      775    15019    2           RETURN;
      776    15020    2   END SECLOG;
      777    15021        %EJECT;
PL6.E3A0      #001=KLH$HLP File=KLH$HLP.:E05TSI                                  WED 07/30/97 00:47 Page:26
      778    15022    1   UPD_USERS: PROC(REASON) ALTRET;
      779    15023        /* Update :USERS record for either good or bad password logons. */
      780    15024    2   DCL REASON UBIN;
      781    15025    2   DCL M$ES_USER DCB;
      782    15026    2   DCL 1 USERS_KEY STATIC ALIGNED,
      783    15027    2         2 COUNT UBIN BYTE UNAL,
      784    15028    2         2 UKEY,
      785    15029    2           3 ACCT CHAR(8) UNAL,
      786    15030    2           3 UNAME CHAR(12) UNAL,
      787    15031    2         2 * CHAR(21) UNAL;
      788    15032        %FPT_OPEN(FPTN=OPEN_USERS,
      789    15033                  DCB=M$ES_USER,
      790    15034                  ASN=FILE,
      791    15035                  ACS=DIRECT,
      792    15036                  FUN=UPDATE,
      793    15037                  SHARE=ALL,
      794    15038                  NAME=USERS_NAME,
      795    15039                  ACCT=USERS_ACCT);
      796    15148        %VLP_NAME(FPTN=USERS_NAME,NAME=':USERS');
      797    15175        %VLP_ACCT(FPTN=USERS_ACCT,ACCT=':SYS');
      798    15188        %FPT_READ(FPTN=READ_USERS,
      799    15189                  DCB=M$ES_USER,
      800    15190                  KEYS=YES,
      801    15191                  KEY=USERS_KEY,
      802    15192                  BUF=AS_USERS);
      803    15231        %FPT_WRITE(FPTN=WRITE_USERS,
      804    15232                  DCB=M$ES_USER,
      805    15233                  KEY=USERS_KEY,
      806    15234                  BUF=AS_USERS);
      807    15265        %FPT_ENQ(FPTN=ENQ_USERS,
      808    15266                  DCB=M$ES_USER,
      809    15267                  RNAME=USERS_KEY,
      810    15268                  SHARE=NONE);
      811    15286        %FPT_DEQ(FPTN=DEQ_USERS,
      812    15287                  DCB=M$ES_USER);
      813    15304        %FPT_TRUNC(FPTN=FPT_TRUNC,
      814    15305                  DCB=M$ES_USER);
PL6.E3A0      #001=KLH$HLP File=KLH$HLP.:E05TSI                                  WED 07/30/97 00:47 Page:27
      815    15319        %FPT_TIME(FPTN=LOGON_TIME,
      816    15320                  DEST=UTS,
      817    15321                  SOURCE=CLOCK,
      818    15322                  TSTAMP=ES_LOGON_TIME);
      819    15341
      820    15342
      821    15343    2           IF NOT DCBADDR(DCBNUM(M$ES_USER))->F$DCB.FCD THEN
      822    15344    2               CALL M$OPEN(OPEN_USERS) ALTRET(ERR);
      823    15345    2           USERS_KEY.COUNT=8+NAME.C;
      824    15346    2           USERS_KEY.UKEY.ACCT=ACCT;
      825    15347    2           IF NAME.C ~= 0 THEN
      826    15348    2               USERS_KEY.UKEY.UNAME=NAME.T;
      827    15349    2           CALL M$ENQ(ENQ_USERS) ALTRET(ERR);
      828    15350    3           CALL M$READ(READ_USERS) WHENALTRETURN DO;
      829    15351    3               CALL M$DEQ(DEQ_USERS);
      830    15352    3               GOTO ERR;
      831    15353    3               END;
      832    15354                                                /*
      833    15355                                                  Only timesharing users should make it
      834    15356                                                  to this point.  All others should have
      835    15357                                                  transferred to ERR after the READ
      836    15358                                                  ALTRETURN.
      837    15359                                                */
      838    15360    2           IF REASON=%ES_LOG_ALL# THEN
      839    15361    2               CALL M$TIME(LOGON_TIME);
      840    15362    3             ELSE IF REASON=%ES_BAD_PW# THEN DO;
      841    15363    3                   AS_USERS.BAD_LOGON_CNT=AS_USERS.BAD_LOGON_CNT+1;
      842    15364    3                   AS_USERS.LOGINS.BAD_LOGON_CNT(%M_INT#-1)=
      843    15365    3                     AS_USERS.LOGINS.BAD_LOGON_CNT(%M_INT#-1)+1;
      844    15366    3                   END;
      845    15367    2           CALL M$WRITE(WRITE_USERS);
      846    15368    2           CALL M$TRUNC(FPT_TRUNC);
      847    15369    2           CALL M$DEQ(DEQ_USERS);
      848    15370    2           RETURN;
      849    15371    2   ERR:    ;
      850    15372    2           ALTRETURN;
      851    15373
PL6.E3A0      #001=KLH$HLP File=KLH$HLP.:E05TSI                                  WED 07/30/97 00:47 Page:28
      852    15374    2   END UPD_USERS;
      853    15375    1   END KLH$HLP;
      854    15376        %EOD;

PL6.E3A0      #001=KLH$HLP File=KLH$HLP.:E05TSI                                  WED 07/30/97 00:47 Page:29
--  Include file information  --

   AS_SUBS_C.:E05TOU  is referenced.
   B$JIT.:E05TOU  cannot be made into a system file and is referenced.
   ES_TABLES_M.:E05TOU  is referenced.
   OC_MESSHD_C.:E05TOU  is referenced.
   KL_CONFIG_M.:E05TOU  is referenced.
   KL_SUPER_C.:E05TOU  is referenced.
   KL_SUBS_C.:E05TOU  is referenced.
   KL_NETWORK_M.:E05TOU  is referenced.
   OC$MESSHD_C.:E05TOU  is referenced.
   KL_DATA_R.:E05TOU  cannot be made into a system file and is referenced.
   KL_ERRORS_C.:E05TOU  is referenced.
   KL_MACRO_C.:E05TOU  is referenced.
   KL_AFCN_C.:E05TOU  is referenced.
   KC$CGBLK.:E05TOU  is referenced.
   JC_DATA_R.:E05TOU  cannot be made into a system file and is referenced.
   JC_MACRO_C.:E05TOU  is referenced.
   F_ERRORS_C.:E05TOU  is referenced.
   F$DCB.:E05TOU  cannot be made into a system file and is referenced.
   AS_SUPER_C.:E05TOU  is referenced.
   PC_SUBS_C.:E05TOU  is referenced.
   B$TABLES_C.:E05TOU  cannot be made into a system file and is referenced.
   B_SEGIDS_C.:E05TOU  is referenced.
   ES_SUBS_E.:E05TOU  is referenced.
   EL_SUBS_C.:E05TOU  is referenced.
   CP_6.:E05TOU  cannot be made into a system file and is referenced.
   B$JIT_C.:E05TOU  was found in the system file and is referenced.
   CP_6_C.:E05TOU  was found in the system file and is referenced.
      No diagnostics issued in procedure KLH$HLP.

   Procedure KLH$HLP requires 1463 words for executable code.
   Procedure KLH$HLP requires 300 words of local(AUTO) storage.

PL6.E3A0      #001=KLH$HLP File=KLH$HLP.:E05TSI                                  WED 07/30/97 00:47 Page:30

 Object Unit name= KLH$HLP                                    File name= KLH$HLP.:E05TOU
 UTS= JUL 30 '97 00:47:46.08 WED                              Compiler= PL-6/E31         Sev=      00
 SharedLib= :SHARED_SYSTEM                                    Alt SharedLib=


    ****  Control sections  ****

 Sect   Type Bound  Init  Size OctSiz  Section name(segment info)
    0   DCB   even  none     0      0  M$UC
    1   DCB   even  none     0      0  M$HLP
    2   DCB   even  none     0      0  M$NETCON
    3   DCB   even  none     0      0  M$CSCG
    4   Data  even  none   816   1460  KLH$HLP
    5  RoData even  UTS     72    110  KLH$HLP
    6   DCB   even  none     0      0  M$HLPF
    7   DCB   even  none     0      0  M$PROF
    8   DCB   even  none     0      0  M$ES_USER
    9   Proc  even  none  1463   2667  KLH$HLP
   10  RoData even  none    50     62  KLH$HLP

    ****  Entry defs  ****

                              Check   Calling
                             calling  sequence
  Sect OctLoc Primary Altret sequence   type   Parms  Name
     9      0   yes            yes      Std        0  KLH$HLP

  ****  Data defs  ****

 Sect OctLoc  Name                           Sect OctLoc  Name
    4    113  ES_LOGON_TIME
PL6.E3A0      #001=KLH$HLP File=KLH$HLP.:E05TSI                                  WED 07/30/97 00:47 Page:31

  ****  Entry refs  ****

         Check        Calling
        calling       sequence
Altret sequence SRef   type   Args  Name
         yes          ~proc      0 B_POINTER
 yes     yes           Std       4 KLX$WRHLPSTA
 yes     yes           Std       1 KLH$SNDHSGN
         yes           Std       2 JMU$SETSEG
 yes     yes           Std       0 KLH$OPFILS
         yes           Std       1 KLH$HSGN
 yes     yes           Std       0 KLH$SGNRSP
 yes     yes           Std       3 KLX$CONV_NODE
 yes     yes           Std       9 KLH$SGSCAN
         yes           Std       3 KLX$8TO9
 yes     yes           Std       3 KLX$CONV_NODENAME
         yes           Std       1 ASZ$SCRAMBLE
         yes           Std       3 KLH$ERRMSG
         yes           Std       2 KLH$SGNTXT
                       nStd      0 X66_AUTO_0
                       Std       0 B_CONSPOOL_D
                       nStd      0 X66_ARET

  ****  Data refs  ****

  Flags:  r = read only, s = secondary
Flgs Name                             Flgs Name                             Flgs Name
     M$UC                             r    B$XL_UPPER_UR$                        M$HLP
     KL_FETBL                              KL_HLPFILS                            KL_RDBF
     KL_NODENAME                           KL_NODE                               KL_DESTNODE
     KL_AUTOFAIL                           KL_HLPKEY                             KL_PROKEY
     M$NETCON                              M$CSCG                                KL_PCD
     KL_HLPR                               KL_PROBUF                             M$HLPF
     M$PROF                                ES_LOGSYSACC                          KL_STATION
     B$TCB$                                KL_RDHLPR                             KL_RDPROR
     B$JIT$                                M$ES_USER                             B_VECTNIL
PL6.E3A0      #001=KLH$HLP File=KLH$HLP.:E05TSI                                  WED 07/30/97 00:47 Page:32

  ****  Segment refs  ****

  Flags:  r = read only, s = secondary
Flgs Name                             Flgs Name                             Flgs Name
     ISSID                                 NULLSID                               ROSID
PL6.E3A0      #001=KLH$HLP File=KLH$HLP.:E05TSI                                  WED 07/30/97 00:47 Page:33


        1        1        /*M* KLH$HLP Host logon processor main program*/
        2        2        /*T***********************************************************/
        3        3        /*T*                                                         */
        4        4        /*T* Copyright (c) Bull HN Information Systems Inc., 1997    */
        5        5        /*T*                                                         */
        6        6        /*T***********************************************************/
        7        7        /*X* DTI=2,DCI=4,THI=2,CSI=2,ECI=2,STI=2,IND=2,ENI=2 */
        8        8        KLH$HLP: PROC;

      8  9 000000   000000 700200 xent  KLH$HLP      TSX0  ! X66_AUTO_0
         9 000001   000454 000000                    ZERO    300,0

        9        9        /*D* NAME:        KLH$HLP
       10       10             PURPOSE:     To log on all non-local devices to the host system
       11       11             CALL:        CALL KLH$HLP;
       12       12                          KL_RDBF - The logon message buffer just read
       13       13             OUTPUT:      A logged-on device
       14       14                          A logged-on timesharing user if this is a timesharing
       15       15                             logon
       16       16             DESCRIPTION: KLH$HLP takes the logon string portion of the logon message
       17       17                          parses it into ACCT,NAME,PW and PRO and using that
       18       18                          information, reads in the :HLP record for the device
       19       19                          (or user if a timesharing logon) and the :PRO record.
       20       20                          NOTE: In the case of an L6 system program logging on,
       21       21                          canned :HLP and :PRO records are used, no read is
       22       22                          performed.
       23       23                          KLH$SNDHSGN is called for any additional host logon
       24       24                          functions needed.
       25       25                          If any errors occur, a KL_SGNRSP message is built
       26       26                          and stuffed with a reason specifying failed logon.
       27       27                          This message is then sent back to the originator
       28       28                          if the logon.
       29       29
       30       30                          Security logging may be performed dependent upon
       31       31                          the CONTROL defined parameter, ES_LOGSYSACC. Also,
       32       32                          good logons and failed logons due to bad passwords
PL6.E3A0      #001=KLH$HLP File=KLH$HLP.:E05TSI                                  WED 07/30/97 00:47 Page:34
       33       33                          will cause the :USERS record to be updated.
       34       34        */
       35       35        %INCLUDE CP_6;
       36      116        %INCLUDE EL_SUBS_C;
       37      200        %INCLUDE ES_SUBS_E;
       38      226        %INCLUDE B_SEGIDS_C;
       39      765        %INCLUDE B$TABLES_C;
       40      873        %B$XL_UPPER_UR;
       41      877        %INCLUDE PC_SUBS_C;
       42     1209        %INCLUDE AS_SUPER_C;
       43     1644        %INCLUDE F$DCB;
       44     1693        %INCLUDE F_ERRORS_C;
       45     1933        %INCLUDE JC_MACRO_C;
       46     2047        %INCLUDE JC_DATA_R;
       47     2085        %INCLUDE KC$CGBLK;
       48     2133        %INCLUDE KL_AFCN_C;
       49     2234        %INCLUDE KL_MACRO_C;
       50     5586        %INCLUDE KL_ERRORS_C;
       51     5628        %INCLUDE KL_DATA_R;
       52     6092        %INCLUDE KL_SUBS_C;
       53     6146        %INCLUDE KL_SUPER_C;
       54     9048        %INCLUDE KL_CONFIG_M;
       55     9810        %INCLUDE OC_MESSHD_C;
       56     9863        %B$TCB;
       57     9866        %B$ALT;
       58     9874    1   DCL M$NETCON DCB;
       59     9875    1   DCL M$CSCG DCB;
       60     9876    1   DCL CNFG_BUF (0:49) UBIN WORD STATIC INIT(0*0);
       61     9877    1   DCL CNFG$ PTR STATIC INIT(ADDR(CNFG_BUF));
       62     9878        %KL$LINCNFG (NAME=LINCNFG,LGNSIZ=100,STCLASS="BASED(CNFG$)");
       63    10036        %KL$CONFIG_KEY (NAME=CONFIG_KEY,STCLASS=STATIC);
       64    10083        %KL$DEFAULT_KEY (NAME=DEFAULT_KEY,STCLASS=STATIC);
       65    10102        %FPT_READ (FPTN=READ_NETCON,
       66    10103                  KEYS=YES,
       67    10104                   DCB=M$NETCON);
       68    10143        %KL_PCD (FPTN=KL_PCD,CG=1,STCLASS=SYMREF);
       69    10308        %KL_PCD (FPTN=KL$PCD_TS,CG=0,STCLASS="BASED(PCD$)");
PL6.E3A0      #001=KLH$HLP File=KLH$HLP.:E05TSI                                  WED 07/30/97 00:47 Page:35
       70    10427        %KL_DREC (NAME=KL_HLPR,STCLASS=SYMREF,LAST=",");
       71    10540        %KC$CGID (FPTN=CGID,STCLASS=SYMREF,LVL=2,LAST=",");
       72    10566    1           2 INFO(0:31) UBIN WORD UNAL;
       73    10567        %KL_DREC(NAME=HLPR_RES,STCLASS="BASED",LAST=",");
       74    10680             %KL_RES_CL_DEV(NAME=RES,LVL=2);
       75    10740        %KL_PHDR (NAME=PROH,STCLASS="BASED ALIGNED");
       76    10781        %KL_PHDR (NAME=FRGPRO,STCLASS="CONSTANT ALIGNED",WID=0,LIN=0,DLP='0'B,DIC='0'B,TOP=
             10781            '0'B,LC='0'B,TYP=%KLTY_PROG#);
       77    10822        %KL_PHDR (NAME=DEFPRO,STCLASS=CONSTANT,WID=80,LIN=24,IN='1'B,OUT='1'B,
       78    10823                 TOP='0'B,A='0'B,BN='1'B,LC='1'B,LAST=";");
       79    10864       %KL_DREC (NAME=SLUGHLP,STCLASS=CONSTANT,TYP=%KLAT_CG#,NWI="SIZEW(SLUGHLP.CGID)",TNM=
             10864            ' *FEP*',LAST=",");
       80    10977        %KC$CGID (FPTN=CGID,STCLASS=CONSTANT,NAME='HLPCG',LVL=2);
       81    11003        %KL_PHDR (NAME=KL_PROBUF,STCLASS="SYMREF ALIGNED");
       82    11044        %KL_SGN (FPTN=KL$SGN,STCLASS="BASED(RDBF$)",LGNSIZ="KL$SGN.LOGON.LGNSIZ");
       83    11137        %KL_HSGN (FPTN=KL$HSGN,CG=1,STCLASS="BASED(RDBF$)");
       84    11323        %KL_RQSPROFILE (FPTN=KL$RQSPROFILE,STCLASS="BASED(RDBF$)");
       85    11381    1   DCL M$HLPF DCB;
       86    11382    1   DCL M$PROF DCB;
       87    11383    1   DCL ACCT CHAR(8);
       88    11384    1   DCL 1 ADTW REDEF ACCT,
       89    11385    1         2 D CHAR(4),
       90    11386    1         2 TWSN CHAR(4);
       91    11387    1   DCL 1 ACCR REDEF ACCT,                  /* TO TEST FOR "?"                    */
       92    11388    1         2 C1 CHAR(1),
       93    11389    1         2 * CHAR(7);
       94    11390    1   DCL 1 NAME ALIGNED,
       95    11391    1         2 C UBIN BYTE UNAL,
       96    11392    1         2 T CHAR(12);
       97    11393    1   DCL PW CHAR(8);
       98    11394    1   DCL SAVE_PW CHAR(8);
       99    11395    1   DCL 1 PRO ALIGNED,
      100    11396    1         2 C UBIN BYTE UNAL,
      101    11397    1         2 T CHAR(11) UNAL;
      102    11398    1   DCL HOST CHAR(8);
      103    11399    1   DCL 1 NMID (0:3),
      104    11400    1         2 * BIT(1) UNAL,
PL6.E3A0      #001=KLH$HLP File=KLH$HLP.:E05TSI                                  WED 07/30/97 00:47 Page:36
      105    11401    1         2 BYT UBIN(8) UNAL;
      106    11402    1   DCL FEX UBIN;
      107    11403    1   DCL PSIZ UBIN WORD;
      108    11404    1   DCL HLPER REDEF PSIZ UBIN WORD;
      109    11405    1   DCL SNDPRO BIT(1);
      110    11406    1   DCL NODETYPE UBIN;
      111    11407    1   DCL NOSETUP BIT (1) ALIGNED;
      112    11408    1   DCL NOHEADER BIT (1) ALIGNED;
      113    11409    1   DCL PCD$ PTR;
      114    11410    1   DCL P$ PTR;
      115    11411    1   DCL ES_LOGSYSACC UBIN WORD SYMREF;      /* Symdefed in ES_CNTRL_D             */
      116    11412    1   DCL ES$ PTR STATIC INIT(ADDR(ES_LOGSYSACC));
      117    11413    1   DCL LOGSYSACC UBIN WORD BASED;
      118    11414    1   DCL ES_LOGON_TIME UBIN WORD ALIGNED STATIC SYMDEF INIT(0);
      119    11415        %AS_USERS(STR_NAME=AS_USERS,STCLASS=STATIC);
      120    11593    1   DCL KL_STATION CHAR(8) SYMREF;
      121    11594    1   DCL RDBF$ PTR;
      122    11595    1   DCL 1 ACHAR BASED(P$) CALIGNED,
      123    11596    1         2 CNT UBIN BYTE UNAL,
      124    11597    1         2 TXT CHAR (ACHAR.CNT);
      125    11598    1   DCL B$TCB$ PTR SYMREF;
      126    11599        %FPT_READ (FPTN=KL_RDHLPR,STCLASS=SYMREF);
      127    11638        %FPT_READ (FPTN=KL_RDPROR,STCLASS=SYMREF);
      128    11677        %FPT_WRITE (FPTN=FPT_PROWT,STCLASS=STATIC,DCB=M$HLP,STATION=PROWT_STA);
      129    11708        %FPT_WRITE (FPTN=WRTAUTOFAIL,DCB=M$CSCG,BUF=KL_AUTOFAIL);
      130    11739        %VLP_STATION (FPTN=PROWT_STA,STCLASS=STATIC);
      131    11766    1   DCL ASZ$SCRAMBLE ENTRY(1);
      132    11767    1   DCL KLH$HSGN ENTRY(1);
      133    11768    1   DCL KLH$ERRMSG ENTRY(3);
      134    11769    1   DCL KLH$OPFILS ENTRY ALTRET;
      135    11770    1   DCL KLH$SGSCAN ENTRY(9) ALTRET;
      136    11771    1   DCL KLH$SGNRSP ENTRY ALTRET;
      137    11772    1   DCL KLH$SGNTXT ENTRY(2);
      138    11773    1   DCL KLH$NETTRM ENTRY(1) ALTRET;
      139    11774    1   DCL KLH$NETLNK ENTRY(1) ALTRET;
      140    11775    1   DCL KLX$8TO9 ENTRY(3);
      141    11776    1   DCL KLX$CONV_NODE ENTRY(3) ALTRET;
PL6.E3A0      #001=KLH$HLP File=KLH$HLP.:E05TSI                                  WED 07/30/97 00:47 Page:37
      142    11777    1   DCL KLX$CONV_NODENAME ENTRY(3) ALTRET;
      143    11778    1   DCL KLH$SNDHSGN ENTRY(1) ALTRET;
      144    11779    1   DCL KLX$WRHLPSTA ENTRY(4) ALTRET;
      145    11780    1   DCL JMU$SETSEG ENTRY(2);
      146    11781        %EJECT;
PL6.E3A0      #001=KLH$HLP File=KLH$HLP.:E05TSI                                  WED 07/30/97 00:47 Page:38
      147    11782                                                /* Fix up ES$ for security logging    */
      148    11783    1           CALL JMU$SETSEG(ES$,%SPCL1SID);

  11783  9 000002   000001 630400 10                 EPPR0   1
         9 000003   000020 631400 xsym               EPPR1   B_VECTNIL+16
         9 000004   000000 701000 xent               TSX1    JMU$SETSEG
         9 000005   000000 011000                    NOP     0

      149    11784    1           ES_LOGON_TIME=0;

  11784  9 000006   000113 450000 4                  STZ     ES_LOGON_TIME

      150    11785    1           RDBF$=ADDR(KL_RDBF);

  11785  9 000007   000003 236000 10                 LDQ     3
         9 000010   200033 756100                    STQ     RDBF$,,AUTO

      151    11786    2           DO CASE(KL_RDBF.CODE);

  11786  9 000011   000000 236000 xsym               LDQ     KL_RDBF
         9 000012   000033 772000                    QRL     27
         9 000013   000107 116007                    CMPQ    71,DL
         9 000014   000016 602006 9                  TNC     s:11786+5,QL
         9 000015   000246 710000 9                  TRA     s:11827
         9 000016   000246 710000 9                  TRA     s:11827
         9 000017   000246 710000 9                  TRA     s:11827
         9 000020   000237 710000 9                  TRA     s:11825
         9 000021   000246 710000 9                  TRA     s:11827
         9 000022   000246 710000 9                  TRA     s:11827
         9 000023   000246 710000 9                  TRA     s:11827
         9 000024   000246 710000 9                  TRA     s:11827
         9 000025   000246 710000 9                  TRA     s:11827
         9 000026   000246 710000 9                  TRA     s:11827
         9 000027   000246 710000 9                  TRA     s:11827
         9 000030   000246 710000 9                  TRA     s:11827
         9 000031   000246 710000 9                  TRA     s:11827
         9 000032   000246 710000 9                  TRA     s:11827
PL6.E3A0      #001=KLH$HLP File=KLH$HLP.:E05TSI                                  WED 07/30/97 00:47 Page:39
         9 000033   000246 710000 9                  TRA     s:11827
         9 000034   000246 710000 9                  TRA     s:11827
         9 000035   000246 710000 9                  TRA     s:11827
         9 000036   000246 710000 9                  TRA     s:11827
         9 000037   000246 710000 9                  TRA     s:11827
         9 000040   000246 710000 9                  TRA     s:11827
         9 000041   000246 710000 9                  TRA     s:11827
         9 000042   000246 710000 9                  TRA     s:11827
         9 000043   000246 710000 9                  TRA     s:11827
         9 000044   000246 710000 9                  TRA     s:11827
         9 000045   000141 710000 9                  TRA     s:11794
         9 000046   000246 710000 9                  TRA     s:11827
         9 000047   000246 710000 9                  TRA     s:11827
         9 000050   000246 710000 9                  TRA     s:11827
         9 000051   000246 710000 9                  TRA     s:11827
         9 000052   000246 710000 9                  TRA     s:11827
         9 000053   000246 710000 9                  TRA     s:11827
         9 000054   000246 710000 9                  TRA     s:11827
         9 000055   000246 710000 9                  TRA     s:11827
         9 000056   000246 710000 9                  TRA     s:11827
         9 000057   000246 710000 9                  TRA     s:11827
         9 000060   000246 710000 9                  TRA     s:11827
         9 000061   000246 710000 9                  TRA     s:11827
         9 000062   000246 710000 9                  TRA     s:11827
         9 000063   000246 710000 9                  TRA     s:11827
         9 000064   000246 710000 9                  TRA     s:11827
         9 000065   000246 710000 9                  TRA     s:11827
         9 000066   000246 710000 9                  TRA     s:11827
         9 000067   000246 710000 9                  TRA     s:11827
         9 000070   000246 710000 9                  TRA     s:11827
         9 000071   000246 710000 9                  TRA     s:11827
         9 000072   000246 710000 9                  TRA     s:11827
         9 000073   000246 710000 9                  TRA     s:11827
         9 000074   000246 710000 9                  TRA     s:11827
         9 000075   000246 710000 9                  TRA     s:11827
         9 000076   000246 710000 9                  TRA     s:11827
         9 000077   000246 710000 9                  TRA     s:11827
PL6.E3A0      #001=KLH$HLP File=KLH$HLP.:E05TSI                                  WED 07/30/97 00:47 Page:40
         9 000100   000246 710000 9                  TRA     s:11827
         9 000101   000246 710000 9                  TRA     s:11827
         9 000102   000246 710000 9                  TRA     s:11827
         9 000103   000246 710000 9                  TRA     s:11827
         9 000104   000246 710000 9                  TRA     s:11827
         9 000105   000246 710000 9                  TRA     s:11827
         9 000106   000246 710000 9                  TRA     s:11827
         9 000107   000246 710000 9                  TRA     s:11827
         9 000110   000246 710000 9                  TRA     s:11827
         9 000111   000246 710000 9                  TRA     s:11827
         9 000112   000246 710000 9                  TRA     s:11827
         9 000113   000246 710000 9                  TRA     s:11827
         9 000114   000246 710000 9                  TRA     s:11827
         9 000115   000246 710000 9                  TRA     s:11827
         9 000116   000135 710000 9                  TRA     s:11791
         9 000117   000246 710000 9                  TRA     s:11827
         9 000120   000246 710000 9                  TRA     s:11827
         9 000121   000246 710000 9                  TRA     s:11827
         9 000122   000246 710000 9                  TRA     s:11827
         9 000123   000246 710000 9                  TRA     s:11827
         9 000124   000125 710000 9                  TRA     s:11788

      152    11787    2             CASE(IGA_HSGN);

      153    11788    2               CALL KLH$HSGN(KL$HSGN.PCD);

  11788  9 000125   200033 236100                    LDQ     RDBF$,,AUTO
         9 000126   000001 036003                    ADLQ    1,DU
         9 000127   200442 756100                    STQ     SIZ+194,,AUTO
         9 000130   200442 630500                    EPPR0   SIZ+194,,AUTO
         9 000131   000017 631400 xsym               EPPR1   B_VECTNIL+15
         9 000132   000000 701000 xent               TSX1    KLH$HSGN
         9 000133   000000 011000                    NOP     0

      154    11789    2               RETURN;

  11789  9 000134   000000 702200 xent               TSX2  ! X66_ARET
PL6.E3A0      #001=KLH$HLP File=KLH$HLP.:E05TSI                                  WED 07/30/97 00:47 Page:41

      155    11790    2             CASE(IGA_SGNRSP);

      156    11791    2               CALL KLH$SGNRSP;

  11791  9 000135   000002 631400 xsym               EPPR1   B_VECTNIL+2
         9 000136   000000 701000 xent               TSX1    KLH$SGNRSP
         9 000137   000000 011000                    NOP     0

      157    11792    2               RETURN;

  11792  9 000140   000000 702200 xent               TSX2  ! X66_ARET

      158    11793    2             CASE(IGA_RQSPRO);

      159    11794    2               NMID = KL$RQSPROFILE.NMID;

  11794  9 000141   200033 470500                    LDP0    RDBF$,,AUTO
         9 000142   000005 236100                    LDQ     5,,PR0
         9 000143   200022 756100                    STQ     NMID,,AUTO

      160    11795    3               IF KL$RQSPROFILE.HANDLER ~= ' ' THEN DO; /* Get default record    */

  11795  9 000144   040000 106500                    CMPC    fill='040'O
         9 000145   000006 000010                    ADSC9   6,,PR0                   cn=0,n=8
         9 000146   000035 000001 xsym               ADSC9   B_VECTNIL+29             cn=0,n=1
         9 000147   000166 600000 9                  TZE     s:11802

      161    11796    3                   CALL CHARBIN (FEX,SUBSTR(KL_STATION,4,4));

  11796  9 000150   000100 305400                    DTB
         9 000151   000001 030004 xsym               NDSC9   KL_STATION+1             cn=0,s=nosgn,sf=0,n=4
         9 000152   200442 000010                    NDSC9   SIZ+194,,AUTO            cn=0,s=lsgnf,sf=0,n=8
         9 000153   200443 235100                    LDA     SIZ+195,,AUTO
         9 000154   200023 755100                    STA     FEX,,AUTO

      162    11797    3                   DEFAULT_KEY.NODE = FEX;
PL6.E3A0      #001=KLH$HLP File=KLH$HLP.:E05TSI                                  WED 07/30/97 00:47 Page:42

  11797  9 000155   200023 236100                    LDQ     FEX,,AUTO
         9 000156   000011 736000                    QLS     9
         9 000157   000070 552010 4                  STBQ    DEFAULT_KEY,'10'O

      163    11798    3                   DEFAULT_KEY.HNDLR = KL$RQSPROFILE.HANDLER;

  11798  9 000160   040000 100500                    MLR     fill='040'O
         9 000161   000006 000010                    ADSC9   6,,PR0                   cn=0,n=8
         9 000162   000070 600010 4                  ADSC9   DEFAULT_KEY              cn=3,n=8

      164    11799    3                   READ_NETCON.KEY_ = VECTOR(DEFAULT_KEY);

  11799  9 000163   000004 237000 10                 LDAQ    4
         9 000164   000076 757000 4                  STAQ    READ_NETCON+2

      165    11800    3                   END;                    /* IF                                 */

  11800  9 000165   000213 710000 9                  TRA     s:11813

      166    11801    3                 ELSE DO;                  /* Get config record                  */

      167    11802    3                   CALL CHARBIN(FEX,SUBSTR(KL_STATION,4,4));

  11802  9 000166   000100 305400                    DTB
         9 000167   000001 030004 xsym               NDSC9   KL_STATION+1             cn=0,s=nosgn,sf=0,n=4
         9 000170   200442 000010                    NDSC9   SIZ+194,,AUTO            cn=0,s=lsgnf,sf=0,n=8
         9 000171   200443 235100                    LDA     SIZ+195,,AUTO
         9 000172   200023 755100                    STA     FEX,,AUTO

      168    11803    3                   CONFIG_KEY.NODE=FEX;

  11803  9 000173   200023 236100                    LDQ     FEX,,AUTO
         9 000174   000011 736000                    QLS     9
         9 000175   000063 552010 4                  STBQ    CONFIG_KEY,'10'O

      169    11804    3                   CONFIG_KEY.TERMID = KL$RQSPROFILE.TERMID;
PL6.E3A0      #001=KLH$HLP File=KLH$HLP.:E05TSI                                  WED 07/30/97 00:47 Page:43

  11804  9 000176   000000 100500                    MLR     fill='000'O
         9 000177   000001 000020                    ADSC9   1,,PR0                   cn=0,n=16
         9 000200   000063 600020 4                  ADSC9   CONFIG_KEY               cn=3,n=16

      170    11805    3                   CONFIG_KEY.TERMID.TTYP = 0;

  11805  9 000201   000000 236003                    LDQ     0,DU
         9 000202   000063 552004 4                  STBQ    CONFIG_KEY,'04'O

      171    11806    3                   IF CONFIG_KEY.TERMID.TERM.TERM_NAME ~= ' '

  11806  9 000203   040000 106400                    CMPC    fill='040'O
         9 000204   000065 600010 4                  ADSC9   CONFIG_KEY+2             cn=3,n=8
         9 000205   000035 000001 xsym               ADSC9   B_VECTNIL+29             cn=0,n=1
         9 000206   000211 600000 9                  TZE     s:11811

      172    11807    4                     THEN DO;

      173    11808    4                       CONFIG_KEY.TERMID.TERM.CHANNEL = '0'B;

  11808  9 000207   000064 552030 4                  STBQ    CONFIG_KEY+1,'30'O

      174    11809    4                       CONFIG_KEY.NODE = 0;

  11809  9 000210   000063 552010 4                  STBQ    CONFIG_KEY,'10'O

      175    11810    4                       END;

      176    11811    3                   READ_NETCON.KEY_ = VECTOR(CONFIG_KEY);

  11811  9 000211   000006 237000 10                 LDAQ    6
         9 000212   000076 757000 4                  STAQ    READ_NETCON+2

      177    11812    3                   END;                    /* ELSE                               */

      178    11813    2               PSIZ = 1;
PL6.E3A0      #001=KLH$HLP File=KLH$HLP.:E05TSI                                  WED 07/30/97 00:47 Page:44

  11813  9 000213   000001 235007                    LDA     1,DL
         9 000214   200024 755100                    STA     PSIZ,,AUTO

      179    11814    2               READ_NETCON.BUF_ = VECTOR(CNFG_BUF);

  11814  9 000215   000010 237000 10                 LDAQ    8
         9 000216   000100 757000 4                  STAQ    READ_NETCON+4

      180    11815    2               CALL M$READ(READ_NETCON) ALTRET(RQSPROERR);

  11815  9 000217   000074 630400 4                  EPPR0   READ_NETCON
         9 000220   440000 713400                    CLIMB   alt,read
         9 000221   401400 401760                    pmme    nvectors=4
         9 000222   000232 702000 9                  TSX2    RQSPROERR

      181    11816    2               PRO = LINCNFG.PRO;

  11816  9 000223   000062 470400 4                  LDP0    CNFG$
         9 000224   000100 100500                    MLR     fill='000'O
         9 000225   000007 400014                    ADSC9   7,,PR0                   cn=2,n=12
         9 000226   200015 000014                    ADSC9   PRO,,AUTO                cn=0,n=12

      182    11817    2               CALL GETPRO

  11817  9 000227   001634 701000 9                  TSX1    GETPRO
         9 000230   000232 702000 9                  TSX2    RQSPROERR
         9 000231   000234 710000 9                  TRA     s:11822

      183    11818    3                 WHENALTRETURN DO;

  11811  9 000232                       RQSPROERR    null
      184    11819    3   RQSPROERR:      ;
      185    11820    3                   PSIZ = 1;

  11820  9 000232   000001 235007                    LDA     1,DL
         9 000233   200024 755100                    STA     PSIZ,,AUTO
PL6.E3A0      #001=KLH$HLP File=KLH$HLP.:E05TSI                                  WED 07/30/97 00:47 Page:45

      186    11821    3                   END;

      187    11822    2               CALL SETPRO;

  11822  9 000234   001732 701000 9                  TSX1    SETPRO
         9 000235   000000 011000                    NOP     0

      188    11823    2               RETURN;

  11823  9 000236   000000 702200 xent               TSX2  ! X66_ARET

      189    11824    2             CASE(IGA_SGN);

      190    11825    2               NMID = KL$SGN.NMID;         /* The main body of this procedure    */

  11825  9 000237   200033 470500                    LDP0    RDBF$,,AUTO
         9 000240   000005 235100                    LDA     5,,PR0
         9 000241   000006 236100                    LDQ     6,,PR0
         9 000242   000011 773000                    LRL     9
         9 000243   000027 376000 xsym               ANQ     B_VECTNIL+23
         9 000244   200022 756100                    STQ     NMID,,AUTO
         9 000245   000250 710000 9                  TRA     s:11829

      191    11826    2             CASE(ELSE);

      192    11827    2               CALL M$XXX;                 /* Woops!!!                           */

  11827  9 000246   000003 713400                    CLIMB   3
         9 000247   000000 401760                    pmme    nvectors=0

      193    11828    2             END;

      194    11829    1           PSIZ=0;

  11829  9 000250   200024 450100                    STZ     PSIZ,,AUTO

PL6.E3A0      #001=KLH$HLP File=KLH$HLP.:E05TSI                                  WED 07/30/97 00:47 Page:46
      195    11830    1           PCD$=ADDR(KL_PCD);

  11830  9 000251   000012 236000 10                 LDQ     10
         9 000252   200031 756100                    STQ     PCD$,,AUTO

      196    11831    1           IF KL_HLPFILS<2 AND KL$SGN.TERMINAL_ID.TTYP~=%KLTY_PROG#

  11831  9 000253   000000 235000 xsym               LDA     KL_HLPFILS
         9 000254   000002 115007                    CMPA    2,DL
         9 000255   000272 603000 9                  TRC     LOGON
         9 000256   200033 470500                    LDP0    RDBF$,,AUTO
         9 000257   000001 236100                    LDQ     1,,PR0
         9 000260   777000 316003                    CANQ    -512,DU
         9 000261   000272 600000 9                  TZE     LOGON

      197    11832    2             THEN DO;

      198    11833    2               CALL KLH$OPFILS ALTRET (LOGON);

  11833  9 000262   000002 631400 xsym               EPPR1   B_VECTNIL+2
         9 000263   000000 701000 xent               TSX1    KLH$OPFILS
         9 000264   000272 702000 9                  TSX2    LOGON

      199    11834    2               CALL SNDRJ (%E$NFIL);

  11834  9 000265   000014 236000 10                 LDQ     12
         9 000266   200035 756100                    STQ     RDBF$+2,,AUTO
         9 000267   002171 701000 9                  TSX1    SNDRJ
         9 000270   000000 011000                    NOP     0

      200    11835    2               RETURN;

  11835  9 000271   000000 702200 xent               TSX2  ! X66_ARET

  11831  9 000272                       LOGON        null
      201    11836    2               END;
      202    11837    1   LOGON:  ;
PL6.E3A0      #001=KLH$HLP File=KLH$HLP.:E05TSI                                  WED 07/30/97 00:47 Page:47
      203    11838    1           IF KL$SGN.AUTOLGN

  11838  9 000272   200033 470500                    LDP0    RDBF$,,AUTO
         9 000273   000005 236100                    LDQ     5,,PR0
         9 000274   200000 316003                    CANQ    65536,DU
         9 000275   000300 601000 9                  TNZ     s:11841
         9 000276   100000 316003                    CANQ    32768,DU
         9 000277   000362 600000 9                  TZE     s:11867

      204    11839    1             OR KL$SGN.PROFILE
      205    11840    2             THEN DO;

      206    11841    2               HLPER = %E$ILGL;

  11841  9 000300   002270 235007                    LDA     1208,DL
         9 000301   200024 755100                    STA     PSIZ,,AUTO

      207    11842    2               CALL CHARBIN(FEX,SUBSTR(KL_STATION,4,4));

  11842  9 000302   000100 305400                    DTB
         9 000303   000001 030004 xsym               NDSC9   KL_STATION+1             cn=0,s=nosgn,sf=0,n=4
         9 000304   200442 000010                    NDSC9   SIZ+194,,AUTO            cn=0,s=lsgnf,sf=0,n=8
         9 000305   200443 236100                    LDQ     SIZ+195,,AUTO
         9 000306   200023 756100                    STQ     FEX,,AUTO

      208    11843    2               CONFIG_KEY.NODE= FEX;

  11843  9 000307   000011 736000                    QLS     9
         9 000310   000063 552010 4                  STBQ    CONFIG_KEY,'10'O

      209    11844    2               CONFIG_KEY.TERMID = KL$SGN.TERMINAL_ID;

  11844  9 000311   000000 100500                    MLR     fill='000'O
         9 000312   000001 000020                    ADSC9   1,,PR0                   cn=0,n=16
         9 000313   000063 600020 4                  ADSC9   CONFIG_KEY               cn=3,n=16

      210    11845    2               IF CONFIG_KEY.TERMID.TERM.TERM_NAME ~= ' '
PL6.E3A0      #001=KLH$HLP File=KLH$HLP.:E05TSI                                  WED 07/30/97 00:47 Page:48

  11845  9 000314   040000 106400                    CMPC    fill='040'O
         9 000315   000065 600010 4                  ADSC9   CONFIG_KEY+2             cn=3,n=8
         9 000316   000035 000001 xsym               ADSC9   B_VECTNIL+29             cn=0,n=1
         9 000317   000323 600000 9                  TZE     s:11850

      211    11846    3                 THEN DO;

      212    11847    3                   CONFIG_KEY.TERMID.TERM.CHANNEL = '0'B;

  11847  9 000320   000000 236003                    LDQ     0,DU
         9 000321   000064 552030 4                  STBQ    CONFIG_KEY+1,'30'O

      213    11848    3                   CONFIG_KEY.NODE = 0;

  11848  9 000322   000063 552010 4                  STBQ    CONFIG_KEY,'10'O

      214    11849    3                   END;

      215    11850    2               CONFIG_KEY.TERMID.TTYP = 0;

  11850  9 000323   000000 236003                    LDQ     0,DU
         9 000324   000063 552004 4                  STBQ    CONFIG_KEY,'04'O

      216    11851    2               READ_NETCON.BUF_ = VECTOR(CNFG_BUF);

  11851  9 000325   000010 237000 10                 LDAQ    8
         9 000326   000100 757000 4                  STAQ    READ_NETCON+4

      217    11852    2               READ_NETCON.KEY_ = VECTOR(CONFIG_KEY);

  11852  9 000327   000006 237000 10                 LDAQ    6
         9 000330   000076 757000 4                  STAQ    READ_NETCON+2

      218    11853    2               CALL M$READ(READ_NETCON)

  11853  9 000331   000074 630400 4                  EPPR0   READ_NETCON
PL6.E3A0      #001=KLH$HLP File=KLH$HLP.:E05TSI                                  WED 07/30/97 00:47 Page:49
         9 000332   440000 713400                    CLIMB   alt,read
         9 000333   401400 401760                    pmme    nvectors=4
         9 000334   000336 702000 9                  TSX2    s:11855
         9 000335   000345 710000 9                  TRA     s:11861

      219    11854    3                 WHENALTRETURN DO;

      220    11855    3                   IF KL$SGN.PROFILE

  11855  9 000336   200033 470500                    LDP0    RDBF$,,AUTO
         9 000337   000005 236100                    LDQ     5,,PR0
         9 000340   100000 316003                    CANQ    32768,DU
         9 000341   001433 600000 9                  TZE     ILGL

      221    11856    3                     THEN
      222    11857    3                       KL$SGN.PROFILE = '0'B;

  11857  9 000342   000015 236000 10                 LDQ     13
         9 000343   000005 356100                    ANSQ    5,,PR0
         9 000344   000345 710000 9                  TRA     s:11861

      223    11858    3                     ELSE
      224    11859    3                       GOTO ILGL;
      225    11860    3                   END;
      226    11861    2               IF KL$SGN.AUTOLGN

  11861  9 000345   200033 470500                    LDP0    RDBF$,,AUTO
         9 000346   000005 236100                    LDQ     5,,PR0
         9 000347   200000 316003                    CANQ    65536,DU
         9 000350   000362 600000 9                  TZE     s:11867

      227    11862    3                 THEN DO;

      228    11863    3                   KL$SGN.LOGON.LGNSIZ = LINCNFG.LGN.LGNSIZE;

  11863  9 000351   000062 471400 4                  LDP1    CNFG$
         9 000352   100012 236100                    LDQ     10,,PR1
PL6.E3A0      #001=KLH$HLP File=KLH$HLP.:E05TSI                                  WED 07/30/97 00:47 Page:50
         9 000353   000011 736000                    QLS     9
         9 000354   000007 552120                    STBQ    7,'20'O,PR0

      229    11864    3                   KL$SGN.LOGON.LGNTXT = LINCNFG.LGN.LGNSTRING;

  11864  9 000355   000007 220100                    LDX0    7,,PR0
         9 000356   000777 360003                    ANX0    511,DU
         9 000357   040140 100500                    MLR     fill='040'O
         9 000360   100012 600144                    ADSC9   10,,PR1                  cn=3,n=100
         9 000361   000007 400010                    ADSC9   7,,PR0                   cn=2,n=*X0

      230    11865    3                   END;

      231    11866    2               END;                        /* IF KL$SGN.AUTOLGN                  */

      232    11867    2           CALL KLH$SGSCAN (KL$SGN.LOGON,ACCT,NAME,PW,PRO,HLPER,HOST,NOSETUP,NOHEADER)
             11867                    WHENALTRETURN DO;

  11867  9 000362   200030 631500                    EPPR1   NOHEADER,,AUTO
         9 000363   200452 451500                    STP1    SIZ+202,,AUTO
         9 000364   200027 633500                    EPPR3   NOSETUP,,AUTO
         9 000365   200451 453500                    STP3    SIZ+201,,AUTO
         9 000366   200020 634500                    EPPR4   HOST,,AUTO
         9 000367   200450 454500                    STP4    SIZ+200,,AUTO
         9 000370   200024 635500                    EPPR5   PSIZ,,AUTO
         9 000371   200447 455500                    STP5    SIZ+199,,AUTO
         9 000372   200015 636500                    EPPR6   PRO,,AUTO
         9 000373   200446 456500                    STP6    SIZ+198,,AUTO
         9 000374   200011 637500                    EPPR7   PW,,AUTO
         9 000375   200445 457500                    STP7    SIZ+197,,AUTO
         9 000376   200005 630500                    EPPR0   NAME,,AUTO
         9 000377   200444 450500                    STP0    SIZ+196,,AUTO
         9 000400   200003 630500                    EPPR0   ACCT,,AUTO
         9 000401   200443 450500                    STP0    SIZ+195,,AUTO
         9 000402   200033 236100                    LDQ     RDBF$,,AUTO
         9 000403   000017 036000 10                 ADLQ    15
         9 000404   200442 756100                    STQ     SIZ+194,,AUTO
PL6.E3A0      #001=KLH$HLP File=KLH$HLP.:E05TSI                                  WED 07/30/97 00:47 Page:51
         9 000405   200442 630500                    EPPR0   SIZ+194,,AUTO
         9 000406   000016 631400 10                 EPPR1   14
         9 000407   000000 701000 xent               TSX1    KLH$SGSCAN
         9 000410   000412 702000 9                  TSX2    s:11868
         9 000411   000423 710000 9                  TRA     s:11872

      233    11868    2               IF ES$->LOGSYSACC >= %PC_ES_FAILED# THEN

  11868  9 000412   000112 470400 4                  LDP0    ES$
         9 000413   000000 235100                    LDA     0,,PR0
         9 000414   000003 115007                    CMPA    3,DL
         9 000415   000422 602000 9                  TNC     s:11870

      234    11869    2                   CALL SECLOG(%ES_JUNK_LOGON#);

  11869  9 000416   000020 236000 10                 LDQ     16
         9 000417   200037 756100                    STQ     SIZ+1,,AUTO
         9 000420   002241 701000 9                  TSX1    SECLOG
         9 000421   000000 011000                    NOP     0

      235    11870    2               GOTO ILGL;

  11870  9 000422   001433 710000 9                  TRA     ILGL

      236    11871    2               END;
      237    11872    1           IF HOST = ' '

  11872  9 000423   200020 237100                    LDAQ    HOST,,AUTO
         9 000424   000022 117000 10                 CMPAQ   18
         9 000425   000431 601000 9                  TNZ     s:11877

      238    11873    1             THEN
      239    11874    1               HOST = KL_NODENAME;

  11874  9 000426   040100 100400                    MLR     fill='040'O
         9 000427   000000 000010 xsym               ADSC9   KL_NODENAME              cn=0,n=8
         9 000430   200020 000010                    ADSC9   HOST,,AUTO               cn=0,n=8
PL6.E3A0      #001=KLH$HLP File=KLH$HLP.:E05TSI                                  WED 07/30/97 00:47 Page:52

      240    11875
      241    11876        /* If this logon is not for this node send it back to NA */
      242    11877    1           IF KL_NODENAME ~= HOST

  11877  9 000431   040100 106400                    CMPC    fill='040'O
         9 000432   000000 000010 xsym               ADSC9   KL_NODENAME              cn=0,n=8
         9 000433   200020 000010                    ADSC9   HOST,,AUTO               cn=0,n=8
         9 000434   000524 600000 9                  TZE     s:11899

      243    11878    2             THEN DO;

      244    11879    2               CALL KLX$CONV_NODENAME(HOST,KL_DESTNODE,NODETYPE)

  11879  9 000435   200026 630500                    EPPR0   NODETYPE,,AUTO
         9 000436   200444 450500                    STP0    SIZ+196,,AUTO
         9 000437   000024 236000 10                 LDQ     20
         9 000440   200443 756100                    STQ     SIZ+195,,AUTO
         9 000441   200020 631500                    EPPR1   HOST,,AUTO
         9 000442   200442 451500                    STP1    SIZ+194,,AUTO
         9 000443   200442 630500                    EPPR0   SIZ+194,,AUTO
         9 000444   000021 631400 xsym               EPPR1   B_VECTNIL+17
         9 000445   000000 701000 xent               TSX1    KLX$CONV_NODENAME
         9 000446   000450 702000 9                  TSX2    s:11881
         9 000447   000453 710000 9                  TRA     s:11884

      245    11880    3                 WHENALTRETURN DO;

      246    11881    3                   HLPER = %E$UDHOST;

  11881  9 000450   002304 235007                    LDA     1220,DL
         9 000451   200024 755100                    STA     PSIZ,,AUTO

      247    11882    3                   GOTO ILGL;

  11882  9 000452   001433 710000 9                  TRA     ILGL

PL6.E3A0      #001=KLH$HLP File=KLH$HLP.:E05TSI                                  WED 07/30/97 00:47 Page:53
      248    11883    3                   END;
      249    11884    2               IF NODETYPE ~= %KL_NODETYPE_HOST

  11884  9 000453   200026 235100                    LDA     NODETYPE,,AUTO
         9 000454   000001 115007                    CMPA    1,DL
         9 000455   000461 600000 9                  TZE     s:11889

      250    11885    3                 THEN DO;

      251    11886    3                   HLPER = %E$UDHOST;

  11886  9 000456   002304 236007                    LDQ     1220,DL
         9 000457   200024 756100                    STQ     PSIZ,,AUTO

      252    11887    3                   GOTO ILGL;

  11887  9 000460   001433 710000 9                  TRA     ILGL

      253    11888    3                   END;
      254    11889    2               IF KL_FETBL.QOS(KL_DESTNODE) = 255 /* Cannot talk to this host    */

  11889  9 000461   000000 720000 xsym               LXL0    KL_DESTNODE
         9 000462   000000 236010 xsym               LDQ     KL_FETBL,X0
         9 000463   000777 376003                    ANQ     511,DU
         9 000464   000377 116003                    CMPQ    255,DU
         9 000465   000471 601000 9                  TNZ     s:11894

      255    11890    3                 THEN DO;

      256    11891    3                   HLPER = %E$NOHOST;

  11891  9 000466   002303 235007                    LDA     1219,DL
         9 000467   200024 755100                    STA     PSIZ,,AUTO

      257    11892    3                   GOTO ILGL;

  11892  9 000470   001433 710000 9                  TRA     ILGL
PL6.E3A0      #001=KLH$HLP File=KLH$HLP.:E05TSI                                  WED 07/30/97 00:47 Page:54

      258    11893    3                   END;
      259    11894    2               KL$SGN.NODE = KL_DESTNODE;

  11894  9 000471   200033 470500                    LDP0    RDBF$,,AUTO
         9 000472   000000 236000 xsym               LDQ     KL_DESTNODE
         9 000473   000022 736000                    QLS     18
         9 000474   000000 552120                    STBQ    0,'20'O,PR0

      260    11895    2               KL$SGN.AUTOLGN = '0'B;

  11895  9 000475   000025 236000 10                 LDQ     21
         9 000476   000005 356100                    ANSQ    5,,PR0

      261    11896    2               CALL KLX$WRHLPSTA(KL$SGN,SIZEC(KL$SGN),KL_STATION);

  11896  9 000477   000007 220100                    LDX0    7,,PR0
         9 000500   000777 360003                    ANX0    511,DU
         9 000501   000036 621010                    EAX1    30,X0
         9 000502   000000 636011                    EAQ     0,X1
         9 000503   000022 772000                    QRL     18
         9 000504   000011 402007                    MPY     9,DL
         9 000505   000043 036007                    ADLQ    35,DL
         9 000506   000044 506007                    DIV     36,DL
         9 000507   000002 736000                    QLS     2
         9 000510   200442 756100                    STQ     SIZ+194,,AUTO
         9 000511   000026 236000 10                 LDQ     22
         9 000512   200445 756100                    STQ     SIZ+197,,AUTO
         9 000513   200442 631500                    EPPR1   SIZ+194,,AUTO
         9 000514   200444 451500                    STP1    SIZ+196,,AUTO
         9 000515   200033 236100                    LDQ     RDBF$,,AUTO
         9 000516   200443 756100                    STQ     SIZ+195,,AUTO
         9 000517   200443 630500                    EPPR0   SIZ+195,,AUTO
         9 000520   000021 631400 xsym               EPPR1   B_VECTNIL+17
         9 000521   000000 701000 xent               TSX1    KLX$WRHLPSTA
         9 000522   000000 011000                    NOP     0

PL6.E3A0      #001=KLH$HLP File=KLH$HLP.:E05TSI                                  WED 07/30/97 00:47 Page:55
      262    11897    2               RETURN;

  11897  9 000523   000000 702200 xent               TSX2  ! X66_ARET

      263    11898    2               END;
      264    11899    1           KL_DESTNODE = KL_NODE;          /* This one is for me                 */

  11899  9 000524   000000 235000 xsym               LDA     KL_NODE
         9 000525   000000 755000 xsym               STA     KL_DESTNODE

      265    11900    1           KL_PCD='0'B;

  11900  9 000526   000000 100400                    MLR     fill='000'O
         9 000527   000002 000001 xsym               ADSC9   B_VECTNIL+2              cn=0,n=1
         9 000530   000000 000420 xsym               ADSC9   KL_PCD                   cn=0,n=272

      266    11901    1           KL_PCD.ADDD.FEX=KL$SGN.NODE;

  11901  9 000531   200033 470500                    LDP0    RDBF$,,AUTO
         9 000532   000000 236100                    LDQ     0,,PR0
         9 000533   000022 772000                    QRL     18
         9 000534   000000 552004 xsym               STBQ    KL_PCD,'04'O

      267    11902    1           FEX = KL$SGN.NODE;

  11902  9 000535   000000 236100                    LDQ     0,,PR0
         9 000536   000022 772000                    QRL     18
         9 000537   000777 376007                    ANQ     511,DL
         9 000540   200023 756100                    STQ     FEX,,AUTO

      268    11903    1           CALL KLX$CONV_NODE(KL_PCD.ADDD.FEPNAME,FEX,NODETYPE);

  11903  9 000541   200026 631500                    EPPR1   NODETYPE,,AUTO
         9 000542   200444 451500                    STP1    SIZ+196,,AUTO
         9 000543   200023 633500                    EPPR3   FEX,,AUTO
         9 000544   200443 453500                    STP3    SIZ+195,,AUTO
         9 000545   000027 236000 10                 LDQ     23
PL6.E3A0      #001=KLH$HLP File=KLH$HLP.:E05TSI                                  WED 07/30/97 00:47 Page:56
         9 000546   200442 756100                    STQ     SIZ+194,,AUTO
         9 000547   200442 630500                    EPPR0   SIZ+194,,AUTO
         9 000550   000021 631400 xsym               EPPR1   B_VECTNIL+17
         9 000551   000000 701000 xent               TSX1    KLX$CONV_NODE
         9 000552   000000 011000                    NOP     0

      269    11904    1           KL_PCD.ADDD.NMID=KL$SGN.NMID;

  11904  9 000553   200033 470500                    LDP0    RDBF$,,AUTO
         9 000554   000000 100500                    MLR     fill='000'O
         9 000555   000005 600004                    ADSC9   5,,PR0                   cn=3,n=4
         9 000556   000015 400004 xsym               ADSC9   KL_PCD+13                cn=2,n=4

      270    11905    1           KL_PCD.ADDD.SPEED=KL$SGN.SPEED;

  11905  9 000557   000006 236100                    LDQ     6,,PR0
         9 000560   000022 736000                    QLS     18
         9 000561   000003 552020 xsym               STBQ    KL_PCD+3,'20'O

      271    11906    1           KL_PCD.ADDD.TERMID.LEV=KL$SGN.TERMINAL_ID.LEV;

  11906  9 000562   000001 236100                    LDQ     1,,PR0
         9 000563   000011 772000                    QRL     9
         9 000564   000003 552010 xsym               STBQ    KL_PCD+3,'10'O

      272    11907    1           CALL KLX$8TO9(KL$SGN.TERMINAL_ID.TERM.CHANNEL,KL_PCD.ADDD.TERMID.CHAN ,2);

  11907  9 000565   000030 236000 10                 LDQ     24
         9 000566   200444 756100                    STQ     SIZ+196,,AUTO
         9 000567   000031 236000 10                 LDQ     25
         9 000570   200443 756100                    STQ     SIZ+195,,AUTO
         9 000571   200033 236100                    LDQ     RDBF$,,AUTO
         9 000572   000032 036000 10                 ADLQ    26
         9 000573   200442 756100                    STQ     SIZ+194,,AUTO
         9 000574   200442 630500                    EPPR0   SIZ+194,,AUTO
         9 000575   000021 631400 xsym               EPPR1   B_VECTNIL+17
         9 000576   000000 701000 xent               TSX1    KLX$8TO9
PL6.E3A0      #001=KLH$HLP File=KLH$HLP.:E05TSI                                  WED 07/30/97 00:47 Page:57
         9 000577   000000 011000                    NOP     0

      273    11908    1           CALL KLX$8TO9(KL$SGN.TERMINAL_ID.TERM.SUBDEVICE,KL_PCD.ADDD.TERMID.SUB ,2);

  11908  9 000600   000030 236000 10                 LDQ     24
         9 000601   200444 756100                    STQ     SIZ+196,,AUTO
         9 000602   000033 236000 10                 LDQ     27
         9 000603   200443 756100                    STQ     SIZ+195,,AUTO
         9 000604   200033 236100                    LDQ     RDBF$,,AUTO
         9 000605   000002 036003                    ADLQ    2,DU
         9 000606   200442 756100                    STQ     SIZ+194,,AUTO
         9 000607   200442 630500                    EPPR0   SIZ+194,,AUTO
         9 000610   000021 631400 xsym               EPPR1   B_VECTNIL+17
         9 000611   000000 701000 xent               TSX1    KLX$8TO9
         9 000612   000000 011000                    NOP     0

      274    11909    1          CALL KLX$8TO9(KL$SGN.TERMINAL_ID.TERM.SUBSUBDEVICE,KL_PCD.ADDD.TERMID.SUBSUB
             11909                    ,2);

  11909  9 000613   000030 236000 10                 LDQ     24
         9 000614   200444 756100                    STQ     SIZ+196,,AUTO
         9 000615   000034 236000 10                 LDQ     28
         9 000616   200443 756100                    STQ     SIZ+195,,AUTO
         9 000617   200033 236100                    LDQ     RDBF$,,AUTO
         9 000620   000035 036000 10                 ADLQ    29
         9 000621   200442 756100                    STQ     SIZ+194,,AUTO
         9 000622   200442 630500                    EPPR0   SIZ+194,,AUTO
         9 000623   000021 631400 xsym               EPPR1   B_VECTNIL+17
         9 000624   000000 701000 xent               TSX1    KLX$8TO9
         9 000625   000000 011000                    NOP     0

      275    11910    2           IF ACCR.C1='?' THEN DO;

  11910  9 000626   200003 236100                    LDQ     ACCT,,AUTO
         9 000627   777000 376003                    ANQ     -512,DU
         9 000630   077000 116003                    CMPQ    32256,DU
         9 000631   000637 601000 9                  TNZ     s:11914
PL6.E3A0      #001=KLH$HLP File=KLH$HLP.:E05TSI                                  WED 07/30/97 00:47 Page:58

      276    11911    2               CALL SNDRJ (%E$SGSYN);

  11911  9 000632   000037 236000 10                 LDQ     31
         9 000633   200035 756100                    STQ     RDBF$+2,,AUTO
         9 000634   002171 701000 9                  TSX1    SNDRJ
         9 000635   000000 011000                    NOP     0

      277    11912    2               RETURN;

  11912  9 000636   000000 702200 xent               TSX2  ! X66_ARET

      278    11913    2               END;
      279    11914    1           HLPER=%E$ILGL;

  11914  9 000637   002270 235007                    LDA     1208,DL
         9 000640   200024 755100                    STA     PSIZ,,AUTO

      280    11915    1           SNDPRO = '1'B;                  /* always send the profile if possible*/

  11915  9 000641   400000 236003                    LDQ     -131072,DU
         9 000642   200025 756100                    STQ     SNDPRO,,AUTO

      281    11916    2           DO CASE (KL$SGN.TERMINAL_ID.TTYP); /* CASE on physical device type    */

  11916  9 000643   200033 470500                    LDP0    RDBF$,,AUTO
         9 000644   000001 236100                    LDQ     1,,PR0
         9 000645   000033 772000                    QRL     27
         9 000646   000013 116007                    CMPQ    11,DL
         9 000647   000651 602006 9                  TNC     s:11916+6,QL
         9 000650   001103 710000 9                  TRA     s:11983
         9 000651   001001 710000 9                  TRA     s:11952
         9 000652   001037 710000 9                  TRA     s:11967
         9 000653   000664 710000 9                  TRA     s:11918
         9 000654   001103 710000 9                  TRA     s:11983
         9 000655   001103 710000 9                  TRA     s:11983
         9 000656   001063 710000 9                  TRA     s:11976
PL6.E3A0      #001=KLH$HLP File=KLH$HLP.:E05TSI                                  WED 07/30/97 00:47 Page:59
         9 000657   000664 710000 9                  TRA     s:11918
         9 000660   001103 710000 9                  TRA     s:11983
         9 000661   001103 710000 9                  TRA     s:11983
         9 000662   001103 710000 9                  TRA     s:11983
         9 000663   000664 710000 9                  TRA     s:11918

      282    11917    2             CASE (%KLTY_TTY#,%KLTY_URP#,%KLTY_LINEDEV#);
             11917                      /* A TTY-like ASYNC device or URP device */

      283    11918    2               CALL GETHLP ALTRET (ILGL);

  11918  9 000664   001532 701000 9                  TSX1    GETHLP
         9 000665   001433 702000 9                  TSX2    ILGL

      284    11919    2               IF KL_HLPR.ATYP~=%KLAT_TS# AND KL_HLPR.ATYP~=%KLAT_CG#

  11919  9 000666   000000 236000 xsym               LDQ     KL_HLPR
         9 000667   777000 376003                    ANQ     -512,DU
         9 000670   001000 116003                    CMPQ    512,DU
         9 000671   000676 600000 9                  TZE     s:11922
         9 000672   002000 116003                    CMPQ    1024,DU
         9 000673   000676 600000 9                  TZE     s:11922
         9 000674   003000 116003                    CMPQ    1536,DU
         9 000675   001433 601000 9                  TNZ     ILGL

      285    11920    2                 AND KL_HLPR.ATYP~=%KLAT_RES#
      286    11921    2                 THEN GOTO ILGL;
      287    11922    3               DO WHILE('0'B);

  11922  9 000676   000724 710000 9                  TRA     s:11934

      288    11923    3   TSCHK:        IF KL_HLPR.ATYP~=%KLAT_TS# THEN GOTO BPRO;

  11923  9 000677   000000 236000 xsym  TSCHK        LDQ     KL_HLPR
         9 000700   777000 376003                    ANQ     -512,DU
         9 000701   001000 116003                    CMPQ    512,DU
         9 000702   001420 601000 9                  TNZ     BPRO
PL6.E3A0      #001=KLH$HLP File=KLH$HLP.:E05TSI                                  WED 07/30/97 00:47 Page:60

      289    11924    3                 IF PRO.C=0

  11924  9 000703   200015 236100                    LDQ     PRO,,AUTO
         9 000704   777000 316003                    CANQ    -512,DU
         9 000705   000711 601000 9                  TNZ     s:11926

      290    11925    3                   THEN HLPER=%E$NGPRS;

  11925  9 000706   002300 235007                    LDA     1216,DL
         9 000707   200024 755100                    STA     PSIZ,,AUTO
         9 000710   000713 710000 9                  TRA     NOPRO

      291    11926    3                   ELSE HLPER=%E$NOPRS;

  11926  9 000711   002301 235007                    LDA     1217,DL
         9 000712   200024 755100                    STA     PSIZ,,AUTO

      292    11927    3   NOPRO:        CALL SNDMSG(HLPER);

  11927  9 000713   200024 630500       NOPRO        EPPR0   PSIZ,,AUTO
         9 000714   200035 450500                    STP0    RDBF$+2,,AUTO
         9 000715   002116 701000 9                  TSX1    SNDMSG
         9 000716   000000 011000                    NOP     0

      293    11928    3                 PRO.C=4;

  11928  9 000717   004000 236003                    LDQ     2048,DU
         9 000720   200015 552140                    STBQ    PRO,'40'O,AUTO

      294    11929    3                 PRO.T='NONE';

  11929  9 000721   040100 100400                    MLR     fill='040'O
         9 000722   000104 000004 5                  ADSC9   SLUGHLP+28               cn=0,n=4
         9 000723   200015 200013                    ADSC9   PRO,,AUTO                cn=1,n=11

      295    11930    3                 END;
PL6.E3A0      #001=KLH$HLP File=KLH$HLP.:E05TSI                                  WED 07/30/97 00:47 Page:61

      296    11931        /*  dont send the profile again if it was specified in the channel config
      297    11932            but not on the logon string.  If it was specified in the config then
      298    11933            nodeadmn already got one */
      299    11934    2               IF KL$SGN.PROFILE AND PRO.C = 0

  11934  9 000724   200033 470500                    LDP0    RDBF$,,AUTO
         9 000725   000005 236100                    LDQ     5,,PR0
         9 000726   100000 316003                    CANQ    32768,DU
         9 000727   000741 600000 9                  TZE     s:11940
         9 000730   200015 236100                    LDQ     PRO,,AUTO
         9 000731   777000 316003                    CANQ    -512,DU
         9 000732   000741 601000 9                  TNZ     s:11940

      300    11935    3                 THEN DO;

      301    11936    3                   SNDPRO = '0'B;

  11936  9 000733   200025 450100                    STZ     SNDPRO,,AUTO

      302    11937    3                   PRO = LINCNFG.PRO;

  11937  9 000734   000062 471400 4                  LDP1    CNFG$
         9 000735   000100 100500                    MLR     fill='000'O
         9 000736   100007 400014                    ADSC9   7,,PR1                   cn=2,n=12
         9 000737   200015 000014                    ADSC9   PRO,,AUTO                cn=0,n=12

      303    11938    3                   END;

  11938  9 000740   000743 710000 9                  TRA     s:11941

      304    11939    2                 ELSE
      305    11940    2                   SNDPRO = '1'B;

  11940  9 000741   400000 236003                    LDQ     -131072,DU
         9 000742   200025 756100                    STQ     SNDPRO,,AUTO

PL6.E3A0      #001=KLH$HLP File=KLH$HLP.:E05TSI                                  WED 07/30/97 00:47 Page:62
      306    11941    2               CALL GETPRO ALTRET (TSCHK);

  11941  9 000743   001634 701000 9                  TSX1    GETPRO
         9 000744   000677 702000 9                  TSX2    TSCHK

      307    11942    2               IF KL_PCD.ADDD.TERMID.TTYP~=KL$SGN.TERMINAL_ID.TTYP AND KL_HLPR.ATYP=%
             11942                        KLAT_TS#

  11942  9 000745   200033 470500                    LDP0    RDBF$,,AUTO
         9 000746   000001 236100                    LDQ     1,,PR0
         9 000747   000033 772000                    QRL     27
         9 000750   200442 756100                    STQ     SIZ+194,,AUTO
         9 000751   000003 236000 xsym               LDQ     KL_PCD+3
         9 000752   000777 376007                    ANQ     511,DL
         9 000753   200442 116100                    CMPQ    SIZ+194,,AUTO
         9 000754   000764 600000 9                  TZE     s:11947
         9 000755   000000 236000 xsym               LDQ     KL_HLPR
         9 000756   777000 376003                    ANQ     -512,DU
         9 000757   001000 116003                    CMPQ    512,DU
         9 000760   000764 601000 9                  TNZ     s:11947

      308    11943    3                 THEN DO;

      309    11944    3                   HLPER=%E$BDPRS;

  11944  9 000761   002302 235007                    LDA     1218,DL
         9 000762   200024 755100                    STA     PSIZ,,AUTO

      310    11945    3                   GOTO NOPRO;

  11945  9 000763   000713 710000 9                  TRA     NOPRO

      311    11946    3                   END;
      312    11947    2               IF KL_HLPR.ATYP=%KLAT_TS#

  11947  9 000764   000000 236000 xsym               LDQ     KL_HLPR
         9 000765   777000 376003                    ANQ     -512,DU
PL6.E3A0      #001=KLH$HLP File=KLH$HLP.:E05TSI                                  WED 07/30/97 00:47 Page:63
         9 000766   001000 116003                    CMPQ    512,DU
         9 000767   000773 601000 9                  TNZ     s:11949

      313    11948    2                 THEN KL_PCD.ADDD.ACTYP=%KLAC_NONE;

  11948  9 000770   000000 236003                    LDQ     0,DU
         9 000771   000000 552040 xsym               STBQ    KL_PCD,'40'O
         9 000772   000775 710000 9                  TRA     s:11950

      314    11949    2                 ELSE KL_PCD.ADDD.ACTYP=%KLAC_DEV;

  11949  9 000773   001000 236003                    LDQ     512,DU
         9 000774   000000 552040 xsym               STBQ    KL_PCD,'40'O

      315    11950    2               KL_PCD.ADDD.ASSOCTRM=ACCT;

  11950  9 000775   040000 100500                    MLR     fill='040'O
         9 000776   200003 000010                    ADSC9   ACCT,,AUTO               cn=0,n=8
         9 000777   000011 400010 xsym               ADSC9   KL_PCD+9                 cn=2,n=8
         9 001000   001104 710000 9                  TRA     s:11985

      316    11951    2             CASE (%KLTY_PROG#);           /* A system program on the L6         */

      317    11952    2               CALL GETHLP ALTRET (ILGL);

  11952  9 001001   001532 701000 9                  TSX1    GETHLP
         9 001002   001433 702000 9                  TSX2    ILGL

      318    11953    2               IF KL_HLPR.ATYP~=%KLAT_TS# AND KL_HLPR.ATYP~=%KLAT_CG#

  11953  9 001003   000000 236000 xsym               LDQ     KL_HLPR
         9 001004   777000 376003                    ANQ     -512,DU
         9 001005   001000 116003                    CMPQ    512,DU
         9 001006   001013 600000 9                  TZE     s:11956
         9 001007   002000 116003                    CMPQ    1024,DU
         9 001010   001013 600000 9                  TZE     s:11956
         9 001011   003000 116003                    CMPQ    1536,DU
PL6.E3A0      #001=KLH$HLP File=KLH$HLP.:E05TSI                                  WED 07/30/97 00:47 Page:64
         9 001012   001433 601000 9                  TNZ     ILGL

      319    11954    2                 AND KL_HLPR.ATYP~=%KLAT_RES#
      320    11955    2                 THEN GOTO ILGL;
      321    11956    2               PRO.C = 4;

  11956  9 001013   004000 236003                    LDQ     2048,DU
         9 001014   200015 552140                    STBQ    PRO,'40'O,AUTO

      322    11957    2               PRO.T = 'NONE';

  11957  9 001015   040100 100400                    MLR     fill='040'O
         9 001016   000104 000004 5                  ADSC9   SLUGHLP+28               cn=0,n=4
         9 001017   200015 200013                    ADSC9   PRO,,AUTO                cn=1,n=11

      323    11958    2               CALL GETPRO;

  11958  9 001020   001634 701000 9                  TSX1    GETPRO
         9 001021   000000 011000                    NOP     0

      324    11959    2               IF KL_HLPR.ATYP=%KLAT_TS#

  11959  9 001022   000000 236000 xsym               LDQ     KL_HLPR
         9 001023   777000 376003                    ANQ     -512,DU
         9 001024   001000 116003                    CMPQ    512,DU
         9 001025   001031 601000 9                  TNZ     s:11961

      325    11960    2                 THEN KL_PCD.ADDD.ACTYP=%KLAC_NONE;

  11960  9 001026   000000 236003                    LDQ     0,DU
         9 001027   000000 552040 xsym               STBQ    KL_PCD,'40'O
         9 001030   001033 710000 9                  TRA     s:11962

      326    11961    2                 ELSE KL_PCD.ADDD.ACTYP=%KLAC_DEV;

  11961  9 001031   001000 236003                    LDQ     512,DU
         9 001032   000000 552040 xsym               STBQ    KL_PCD,'40'O
PL6.E3A0      #001=KLH$HLP File=KLH$HLP.:E05TSI                                  WED 07/30/97 00:47 Page:65

      327    11962    2               KL_PCD.ADDD.ASSOCTRM=ACCT;

  11962  9 001033   040000 100500                    MLR     fill='040'O
         9 001034   200003 000010                    ADSC9   ACCT,,AUTO               cn=0,n=8
         9 001035   000011 400010 xsym               ADSC9   KL_PCD+9                 cn=2,n=8
         9 001036   001104 710000 9                  TRA     s:11985

      328    11963    2             CASE (%KLTY_SDEV#);           /* A sub-device of a multi-device     */

      329    11964                                                /* bi-sync terminal. This comes from  */
      330    11965                                                /* a list passed back to the FEP on   */
      331    11966                                                /* a multi-device terminal logon      */
      332    11967    2               NAME.C=0;

  11967  9 001037   000000 236003                    LDQ     0,DU
         9 001040   200005 552140                    STBQ    NAME,'40'O,AUTO

      333    11968    2               CALL GETHLP ALTRET (ILGL);

  11968  9 001041   001532 701000 9                  TSX1    GETHLP
         9 001042   001433 702000 9                  TSX2    ILGL

      334    11969    2               IF KL_HLPR.ATYP~=%KLAT_CG# AND KL_HLPR.ATYP~=%KLAT_RES#

  11969  9 001043   000000 236000 xsym               LDQ     KL_HLPR
         9 001044   777000 376003                    ANQ     -512,DU
         9 001045   002000 116003                    CMPQ    1024,DU
         9 001046   001053 600000 9                  TZE     s:11972
         9 001047   003000 116003                    CMPQ    1536,DU
         9 001050   001053 600000 9                  TZE     s:11972
         9 001051   001000 116003                    CMPQ    512,DU
         9 001052   001433 601000 9                  TNZ     ILGL

      335    11970    2                 AND KL_HLPR.ATYP~=%KLAT_TS#
      336    11971    2                 THEN GOTO ILGL;
      337    11972    2               CALL GETPRO ALTRET (BPRO);
PL6.E3A0      #001=KLH$HLP File=KLH$HLP.:E05TSI                                  WED 07/30/97 00:47 Page:66

  11972  9 001053   001634 701000 9                  TSX1    GETPRO
         9 001054   001420 702000 9                  TSX2    BPRO

      338    11973    2               KL_PCD.ADDD.ACTYP=%KLAC_TDEV;

  11973  9 001055   003000 236003                    LDQ     1536,DU
         9 001056   000000 552040 xsym               STBQ    KL_PCD,'40'O

      339    11974    2               KL_PCD.ADDD.ASSOCTRM=KL_HLPR.TNAME;

  11974  9 001057   040000 100400                    MLR     fill='040'O
         9 001060   000013 000010 xsym               ADSC9   KL_HLPR+11               cn=0,n=8
         9 001061   000011 400010 xsym               ADSC9   KL_PCD+9                 cn=2,n=8
         9 001062   001104 710000 9                  TRA     s:11985

      340    11975    2             CASE(%KLTY_FEP#);             /* A FEP                              */

      341    11976    2               KL_HLPR = SLUGHLP;

  11976  9 001063   000000 100400                    MLR     fill='000'O
         9 001064   000050 000160 5                  ADSC9   SLUGHLP                  cn=0,n=112
         9 001065   000000 000360 xsym               ADSC9   KL_HLPR                  cn=0,n=240

      342    11977    2               KL_PCD.ADDD.IO='11'B;

  11977  9 001066   600000 236003                    LDQ     -65536,DU
         9 001067   000003 256000 xsym               ORSQ    KL_PCD+3

      343    11978    2               KL_PCD.ADDD.TERMID.TTYP=%KLTY_FEP#;

  11978  9 001070   000005 236007                    LDQ     5,DL
         9 001071   000003 552004 xsym               STBQ    KL_PCD+3,'04'O

      344    11979    2               KL_PROBUF=FRGPRO;

  11979  9 001072   000000 100400                    MLR     fill='000'O
PL6.E3A0      #001=KLH$HLP File=KLH$HLP.:E05TSI                                  WED 07/30/97 00:47 Page:67
         9 001073   000000 000120 5                  ADSC9   FRGPRO                   cn=0,n=80
         9 001074   000000 000120 xsym               ADSC9   KL_PROBUF                cn=0,n=80

      345    11980    2               KL_PCD.ADDD.ACTYP=%KLAC_DEV;

  11980  9 001075   001000 236003                    LDQ     512,DU
         9 001076   000000 552040 xsym               STBQ    KL_PCD,'40'O

      346    11981    2               KL_PCD.ADDD.ASSOCTRM=ACCT;

  11981  9 001077   040000 100500                    MLR     fill='040'O
         9 001100   200003 000010                    ADSC9   ACCT,,AUTO               cn=0,n=8
         9 001101   000011 400010 xsym               ADSC9   KL_PCD+9                 cn=2,n=8
         9 001102   001104 710000 9                  TRA     s:11985

      347    11982    2             CASE (ELSE);

      348    11983    2               GOTO ILGL;

  11983  9 001103   001433 710000 9                  TRA     ILGL

      349    11984    2             END;

      350    11985    1           IF KL_PCD.ADDD.TERMID.TTYP~=KL$SGN.TERMINAL_ID.TTYP THEN GOTO BPROT;

  11985  9 001104   200033 470500                    LDP0    RDBF$,,AUTO
         9 001105   000001 236100                    LDQ     1,,PR0
         9 001106   000033 772000                    QRL     27
         9 001107   200442 756100                    STQ     SIZ+194,,AUTO
         9 001110   000003 236000 xsym               LDQ     KL_PCD+3
         9 001111   000777 376007                    ANQ     511,DL
         9 001112   200442 116100                    CMPQ    SIZ+194,,AUTO
         9 001113   001431 601000 9                  TNZ     BPROT

      351    11986                                      /* PROFILE device-type ~= physical device-type  */
      352    11987    1           KL_PCD.ADDD.TNAME=KL_HLPR.SNAME;

PL6.E3A0      #001=KLH$HLP File=KLH$HLP.:E05TSI                                  WED 07/30/97 00:47 Page:68
  11987  9 001114   040000 100400                    MLR     fill='040'O
         9 001115   000015 000010 xsym               ADSC9   KL_HLPR+13               cn=0,n=8
         9 001116   000007 400010 xsym               ADSC9   KL_PCD+7                 cn=2,n=8

      353    11988    1           KL_PCD.ADDD.TWSN=KL_HLPR.TWSN#;

  11988  9 001117   040000 100400                    MLR     fill='040'O
         9 001120   000001 000004 xsym               ADSC9   KL_HLPR+1                cn=0,n=4
         9 001121   000013 400004 xsym               ADSC9   KL_PCD+11                cn=2,n=4

      354    11989    1           KL_PCD.ADDD.ATYP=KL_HLPR.ATYP;

  11989  9 001122   000000 236000 xsym               LDQ     KL_HLPR
         9 001123   000011 772000                    QRL     9
         9 001124   000000 552020 xsym               STBQ    KL_PCD,'20'O

      355    11990    1           KL_PCD.ADDD.COS = KL_HLPR.COS;

  11990  9 001125   000000 236000 xsym               LDQ     KL_HLPR
         9 001126   377000 376007                    ANQ     130560,DL
         9 001127   000016 552010 xsym               STBQ    KL_PCD+14,'10'O

      356    11991    2           DO CASE (KL_HLPR.ATYP);         /* CASE on attachment type            */

  11991  9 001130   000000 236000 xsym               LDQ     KL_HLPR
         9 001131   000033 772000                    QRL     27
         9 001132   000004 116007                    CMPQ    4,DL
         9 001133   001135 602006 9                  TNC     s:11991+5,QL
         9 001134   001416 710000 9                  TRA     s:12058
         9 001135   001416 710000 9                  TRA     s:12058
         9 001136   001141 710000 9                  TRA     s:11993
         9 001137   001245 710000 9                  TRA     s:12021
         9 001140   001245 710000 9                  TRA     s:12021

      357    11992    2             CASE (%KLAT_TS#);             /* Timesharing user                   */

      358    11993    3               IF KL_HLPR.FLAGS.OLOK='0'B THEN DO;
PL6.E3A0      #001=KLH$HLP File=KLH$HLP.:E05TSI                                  WED 07/30/97 00:47 Page:69

  11993  9 001141   000000 236000 xsym               LDQ     KL_HLPR
         9 001142   000100 316003                    CANQ    64,DU
         9 001143   001151 601000 9                  TNZ     s:11997

      359    11994    3                   CALL SNDRJ (%E$OLIL);

  11994  9 001144   000041 236000 10                 LDQ     33
         9 001145   200035 756100                    STQ     RDBF$+2,,AUTO
         9 001146   002171 701000 9                  TSX1    SNDRJ
         9 001147   000000 011000                    NOP     0

      360    11995    3                   RETURN;

  11995  9 001150   000000 702200 xent               TSX2  ! X66_ARET

      361    11996    3                   END;
      362    11997    2               IF KL_PROBUF.IO~='11'B THEN GOTO BPROT;

  11997  9 001151   000001 236000 xsym               LDQ     KL_PROBUF+1
         9 001152   600000 376007                    ANQ     -65536,DL
         9 001153   600000 116007                    CMPQ    -65536,DL
         9 001154   001431 601000 9                  TNZ     BPROT

      363    11998    2               KL$PCD_TS.TSINFO.ACCT=ACCT;

  11998  9 001155   200031 471500                    LDP1    PCD$,,AUTO
         9 001156   040100 100500                    MLR     fill='040'O
         9 001157   200003 000010                    ADSC9   ACCT,,AUTO               cn=0,n=8
         9 001160   100021 600010                    ADSC9   17,,PR1                  cn=3,n=8

      364    11999    2               KL$PCD_TS.TSINFO.UNAME=NAME.T;

  11999  9 001161   040100 100500                    MLR     fill='040'O
         9 001162   200005 200014                    ADSC9   NAME,,AUTO               cn=1,n=12
         9 001163   100016 600014                    ADSC9   14,,PR1                  cn=3,n=12

PL6.E3A0      #001=KLH$HLP File=KLH$HLP.:E05TSI                                  WED 07/30/97 00:47 Page:70
      365    12000    2               KL$PCD_TS.TSINFO.HPSN=KL_HLPR.HPS.N;

  12000  9 001164   040100 100400                    MLR     fill='040'O
         9 001165   000011 000006 xsym               ADSC9   KL_HLPR+9                cn=0,n=6
         9 001166   100023 600006                    ADSC9   19,,PR1                  cn=3,n=6

      366    12001    2               KL$PCD_TS.TSINFO.WOO=KL_HLPR.WOO;

  12001  9 001167   040100 100400                    MLR     fill='040'O
         9 001170   000007 000010 xsym               ADSC9   KL_HLPR+7                cn=0,n=8
         9 001171   100025 600010                    ADSC9   21,,PR1                  cn=3,n=8

      367    12002    2               KL$PCD_TS.TSINFO.LINES=KL_PROBUF.LINES;

  12002  9 001172   000100 100400                    MLR     fill='000'O
         9 001173   000000 400002 xsym               ADSC9   KL_PROBUF                cn=2,n=2
         9 001174   100027 600002                    ADSC9   23,,PR1                  cn=3,n=2

      368    12003    2               KL$PCD_TS.TSINFO.WIDTH=KL_PROBUF.WIDTH;

  12003  9 001175   000100 100400                    MLR     fill='000'O
         9 001176   000000 200001 xsym               ADSC9   KL_PROBUF                cn=1,n=1
         9 001177   100030 200001                    ADSC9   24,,PR1                  cn=1,n=1

      369    12004    2               KL$PCD_TS.TSINFO.ATTR=KL_PROBUF.ATTR;

  12004  9 001200   000100 100400                    MLR     fill='000'O
         9 001201   000001 000002 xsym               ADSC9   KL_PROBUF+1              cn=0,n=2
         9 001202   100030 400002                    ADSC9   24,,PR1                  cn=2,n=2

      370    12005    2               KL$PCD_TS.TSINFO.NOSETUP = NOSETUP; /* FROM SGSCAN CALL           */

  12005  9 001203   003100 060500                    CSL     bolr='003'O
         9 001204   200027 000001                    BDSC    NOSETUP,,AUTO            by=0,bit=0,n=1
         9 001205   100025 200001                    BDSC    21,,PR1                  by=1,bit=0,n=1

      371    12006    2               KL$PCD_TS.TSINFO.NOHEADER = NOHEADER; /*FROM SGSCAN CALL*/
PL6.E3A0      #001=KLH$HLP File=KLH$HLP.:E05TSI                                  WED 07/30/97 00:47 Page:71

  12006  9 001206   003100 060500                    CSL     bolr='003'O
         9 001207   200030 000001                    BDSC    NOHEADER,,AUTO           by=0,bit=0,n=1
         9 001210   100025 210001                    BDSC    21,,PR1                  by=1,bit=1,n=1

      372    12007    2               KL$PCD_TS.ADDD.DEVNM='*TSTERM*';

  12007  9 001211   040100 100400                    MLR     fill='040'O
         9 001212   000105 000010 5                  ADSC9   SLUGHLP+29               cn=0,n=8
         9 001213   100005 400010                    ADSC9   5,,PR1                   cn=2,n=8

      373    12008    2               IF SNDPRO THEN

  12008  9 001214   200025 234100                    SZN     SNDPRO,,AUTO
         9 001215   001220 605000 9                  TPL     s:12010

      374    12009    2                   CALL SETPRO;

  12009  9 001216   001732 701000 9                  TSX1    SETPRO
         9 001217   000000 011000                    NOP     0

      375    12010    2               CALL KLH$SNDHSGN(HLPER) ALTRET (ILGL);

  12010  9 001220   200024 630500                    EPPR0   PSIZ,,AUTO
         9 001221   200442 450500                    STP0    SIZ+194,,AUTO
         9 001222   200442 630500                    EPPR0   SIZ+194,,AUTO
         9 001223   000017 631400 xsym               EPPR1   B_VECTNIL+15
         9 001224   000000 701000 xent               TSX1    KLH$SNDHSGN
         9 001225   001433 702000 9                  TSX2    ILGL

      376    12011                    /* May be logging all logons or may at least have to
      377    12012                       update :USERS for successful logons.              */
      378    12013    2               IF ES$->LOGSYSACC=%PC_ES_LOGACC_ALL# THEN

  12013  9 001226   000112 470400 4                  LDP0    ES$
         9 001227   000000 235100                    LDA     0,,PR0
         9 001230   000004 115007                    CMPA    4,DL
PL6.E3A0      #001=KLH$HLP File=KLH$HLP.:E05TSI                                  WED 07/30/97 00:47 Page:72
         9 001231   001237 601000 9                  TNZ     s:12015

      379    12014    2                   CALL SECLOG(%ES_LOG_ALL#);

  12014  9 001232   000042 236000 10                 LDQ     34
         9 001233   200037 756100                    STQ     SIZ+1,,AUTO
         9 001234   002241 701000 9                  TSX1    SECLOG
         9 001235   000000 011000                    NOP     0
         9 001236   001417 710000 9                  TRA     RET

      380    12015    3                 ELSE CALL UPD_USERS(%ES_LOG_ALL#) WHENALTRETURN DO;

  12015  9 001237   000042 236000 10                 LDQ     34
         9 001240   200041 756100                    STQ     @REASON+2,,AUTO
         9 001241   002563 701000 9                  TSX1    UPD_USERS
         9 001242   001244 702000 9                  TSX2    s:12016
         9 001243   001244 710000 9                  TRA     s:12016

      381    12016    3                       END;

  12016  9 001244   001417 710000 9                  TRA     RET

      382    12017    2             CASE (%KLAT_CG#,%KLAT_RES#);  /* Device on a comgroup               */

      383    12018                                                /* Remote FEPs                        */
      384    12019                                                /* Sub-devices of a multi-device      */
      385    12020                                                /* terminal are of this type          */
      386    12021    2               KL_PCD.CGID = KL_HLPR.CGID;

  12021  9 001245   000000 100400                    MLR     fill='000'O
         9 001246   000020 000060 xsym               ADSC9   KL_HLPR+16               cn=0,n=48
         9 001247   000017 000060 xsym               ADSC9   KL_PCD+15                cn=0,n=48

      387    12022    2               KL_PCD.ADDD.NOCGREJ = KL_HLPR.FLAGS.NOCGREJ;

  12022  9 001250   000000 236000 xsym               LDQ     KL_HLPR
         9 001251   000010 736000                    QLS     8
PL6.E3A0      #001=KLH$HLP File=KLH$HLP.:E05TSI                                  WED 07/30/97 00:47 Page:73
         9 001252   000003 676000 xsym               ERQ     KL_PCD+3
         9 001253   002000 376003                    ANQ     1024,DU
         9 001254   000003 656000 xsym               ERSQ    KL_PCD+3

      388    12023    2               KL_PCD.ADDD.NOCGINF = KL_HLPR.FLAGS.NOCGINF;

  12023  9 001255   000000 236000 xsym               LDQ     KL_HLPR
         9 001256   000010 736000                    QLS     8
         9 001257   000003 676000 xsym               ERQ     KL_PCD+3
         9 001260   001000 376003                    ANQ     512,DU
         9 001261   000003 656000 xsym               ERSQ    KL_PCD+3

      389    12024    2               KL_PCD.ADDD.USETP = KL_HLPR.FLAGS.USETP;

  12024  9 001262   000000 236000 xsym               LDQ     KL_HLPR
         9 001263   000010 736000                    QLS     8
         9 001264   000003 676000 xsym               ERQ     KL_PCD+3
         9 001265   004000 376003                    ANQ     2048,DU
         9 001266   000003 656000 xsym               ERSQ    KL_PCD+3

      390    12025    2               IF KL_HLPR.FLAGS.RNME

  12025  9 001267   000000 236000 xsym               LDQ     KL_HLPR
         9 001270   000400 316003                    CANQ    256,DU
         9 001271   001276 600000 9                  TZE     s:12027

      391    12026    2                 THEN KL_PCD.ADDD.DEVNM = KL_HLPR.RENAME;

  12026  9 001272   040000 100400                    MLR     fill='040'O
         9 001273   000011 000010 xsym               ADSC9   KL_HLPR+9                cn=0,n=8
         9 001274   000005 400010 xsym               ADSC9   KL_PCD+5                 cn=2,n=8
         9 001275   001301 710000 9                  TRA     s:12028

      392    12027    2                 ELSE KL_PCD.ADDD.DEVNM = ACCT;

  12027  9 001276   040000 100500                    MLR     fill='040'O
         9 001277   200003 000010                    ADSC9   ACCT,,AUTO               cn=0,n=8
PL6.E3A0      #001=KLH$HLP File=KLH$HLP.:E05TSI                                  WED 07/30/97 00:47 Page:74
         9 001300   000005 400010 xsym               ADSC9   KL_PCD+5                 cn=2,n=8

      393    12028    2               KL_PCD.CGINFO.ATTR = KL_PROBUF.ATTR;

  12028  9 001301   000001 236000 xsym               LDQ     KL_PROBUF+1
         9 001302   000011 772000                    QRL     9
         9 001303   000043 552030 xsym               STBQ    KL_PCD+35,'30'O

      394    12029    2               KL_PCD.CGINFO.FLG.INPUT = KL_PROBUF.IO.INPUT;

  12029  9 001304   000001 236000 xsym               LDQ     KL_PROBUF+1
         9 001305   000022 736000                    QLS     18
         9 001306   000043 676000 xsym               ERQ     KL_PCD+35
         9 001307   400000 376003                    ANQ     -131072,DU
         9 001310   000043 656000 xsym               ERSQ    KL_PCD+35

      395    12030    2               KL_PCD.CGINFO.FLG.OUTPUT = KL_PROBUF.IO.OUTPUT;

  12030  9 001311   000001 236000 xsym               LDQ     KL_PROBUF+1
         9 001312   000022 736000                    QLS     18
         9 001313   000043 676000 xsym               ERQ     KL_PCD+35
         9 001314   200000 376003                    ANQ     65536,DU
         9 001315   000043 656000 xsym               ERSQ    KL_PCD+35

      396    12031    2               KL_PCD.CGINFO.WIDTH = KL_PROBUF.WIDTH;

  12031  9 001316   000000 220000 xsym               LDX0    KL_PROBUF
         9 001317   000777 360003                    ANX0    511,DU
         9 001320   000033 740000 xsym               STX0    KL_PCD+27

      397    12032    2               KL_PCD.CGINFO.LENGTH = KL_PROBUF.LINES;

  12032  9 001321   000000 721000 xsym               LXL1    KL_PROBUF
         9 001322   000033 441000 xsym               SXL1    KL_PCD+27

      398    12033    2               IF KL_HLPR.ATYP = %KLAT_RES#

PL6.E3A0      #001=KLH$HLP File=KLH$HLP.:E05TSI                                  WED 07/30/97 00:47 Page:75
  12033  9 001323   000000 236000 xsym               LDQ     KL_HLPR
         9 001324   777000 376003                    ANQ     -512,DU
         9 001325   003000 116003                    CMPQ    1536,DU
         9 001326   001351 601000 9                  TNZ     s:12043
         9 001327   000011 222000 xsym               LDX2    KL_HLPR+9
         9 001330   000107 102000 5                  CMPX2   SLUGHLP+31
         9 001331   001351 601000 9                  TNZ     s:12043

      399    12034    3                 AND SUBSTR(KL_HLPR.RENAME,0,2) = 'CL' THEN DO;

      400    12035    3                   KL_PCD.CGINFO.RESINFO.AUACCT =

  12035  9 001332   040000 100400                    MLR     fill='040'O
         9 001333   000022 200010 xsym               ADSC9   KL_HLPR+18               cn=1,n=8
         9 001334   000046 000010 xsym               ADSC9   KL_PCD+38                cn=0,n=8

      401    12036    3                     ADDR(KL_HLPR)->HLPR_RES.RES.AUACCOUNT;
      402    12037    3                   KL_PCD.CGINFO.RESINFO.MODE = ADDR(KL_HLPR)->HLPR_RES.RES.MODE;

  12037  9 001335   000020 236000 xsym               LDQ     KL_HLPR+16
         9 001336   000033 772000                    QRL     27
         9 001337   000000 623006                    EAX3    0,QL
         9 001340   000044 743000 xsym               STX3    KL_PCD+36

      403    12038    3                   KL_PCD.CGINFO.ATTR = ADDR(KL_HLPR)->HLPR_RES.RES.ATTR;

  12038  9 001341   000020 236000 xsym               LDQ     KL_HLPR+16
         9 001342   000043 552030 xsym               STBQ    KL_PCD+35,'30'O

      404    12039    3                   KL_PCD.CGINFO.RESINFO.RNAME = ADDR(KL_HLPR)->HLPR_RES.RES.RNAME;

  12039  9 001343   040000 100400                    MLR     fill='040'O
         9 001344   000020 600006 xsym               ADSC9   KL_HLPR+16               cn=3,n=6
         9 001345   000044 400006 xsym               ADSC9   KL_PCD+36                cn=2,n=6

      405    12040    3                   KL_PCD.CGINFO.NWINFO = KL_HLPR.NWINFO;

PL6.E3A0      #001=KLH$HLP File=KLH$HLP.:E05TSI                                  WED 07/30/97 00:47 Page:76
  12040  9 001346   000017 236000 xsym               LDQ     KL_HLPR+15
         9 001347   000043 552004 xsym               STBQ    KL_PCD+35,'04'O

      406    12041    3                   END;

  12041  9 001350   001362 710000 9                  TRA     s:12047

      407    12042    3                 ELSE DO;

      408    12043    3                   KL_PCD.CGINFO.WHO.ACCT = ACCT;

  12043  9 001351   040000 100500                    MLR     fill='040'O
         9 001352   200003 000010                    ADSC9   ACCT,,AUTO               cn=0,n=8
         9 001353   000036 000010 xsym               ADSC9   KL_PCD+30                cn=0,n=8

      409    12044    3                   KL_PCD.CGINFO.XTRAINFO = KL_HLPR.INFO;

  12044  9 001354   000000 100400                    MLR     fill='000'O
         9 001355   000034 000200 xsym               ADSC9   KL_HLPR+28               cn=0,n=128
         9 001356   000044 000200 xsym               ADSC9   KL_PCD+36                cn=0,n=128

      410    12045    3                   KL_PCD.CGINFO.NWINFO = KL_HLPR.NWINFO - SIZEW(KL_HLPR.CGID);

  12045  9 001357   000017 236000 xsym               LDQ     KL_HLPR+15
         9 001360   000014 136007                    SBLQ    12,DL
         9 001361   000043 552004 xsym               STBQ    KL_PCD+35,'04'O

      411    12046    3                   END;

      412    12047    2               KL_PCD.CGINFO.WHO.NAME = NAME.T;

  12047  9 001362   040000 100500                    MLR     fill='040'O
         9 001363   200005 200014                    ADSC9   NAME,,AUTO               cn=1,n=12
         9 001364   000040 000014 xsym               ADSC9   KL_PCD+32                cn=0,n=12

      413    12048    2               IF SNDPRO THEN

PL6.E3A0      #001=KLH$HLP File=KLH$HLP.:E05TSI                                  WED 07/30/97 00:47 Page:77
  12048  9 001365   200025 234100                    SZN     SNDPRO,,AUTO
         9 001366   001371 605000 9                  TPL     s:12050

      414    12049    2                   CALL SETPRO;

  12049  9 001367   001732 701000 9                  TSX1    SETPRO
         9 001370   000000 011000                    NOP     0

      415    12050    2               CALL KLH$SNDHSGN(HLPER) ALTRET(ILGL);

  12050  9 001371   200024 630500                    EPPR0   PSIZ,,AUTO
         9 001372   200442 450500                    STP0    SIZ+194,,AUTO
         9 001373   200442 630500                    EPPR0   SIZ+194,,AUTO
         9 001374   000017 631400 xsym               EPPR1   B_VECTNIL+15
         9 001375   000000 701000 xent               TSX1    KLH$SNDHSGN
         9 001376   001433 702000 9                  TSX2    ILGL

      416    12051                    /* May be logging all logons or may at least have to
      417    12052                       update :USERS for successful logons.              */
      418    12053    2               IF ES$->LOGSYSACC=%PC_ES_LOGACC_ALL# THEN

  12053  9 001377   000112 470400 4                  LDP0    ES$
         9 001400   000000 235100                    LDA     0,,PR0
         9 001401   000004 115007                    CMPA    4,DL
         9 001402   001410 601000 9                  TNZ     s:12055

      419    12054    2                   CALL SECLOG(%ES_LOG_ALL#);

  12054  9 001403   000042 236000 10                 LDQ     34
         9 001404   200037 756100                    STQ     SIZ+1,,AUTO
         9 001405   002241 701000 9                  TSX1    SECLOG
         9 001406   000000 011000                    NOP     0
         9 001407   001417 710000 9                  TRA     RET

      420    12055    3                 ELSE CALL UPD_USERS(%ES_LOG_ALL#) WHENALTRETURN DO;

  12055  9 001410   000042 236000 10                 LDQ     34
PL6.E3A0      #001=KLH$HLP File=KLH$HLP.:E05TSI                                  WED 07/30/97 00:47 Page:78
         9 001411   200041 756100                    STQ     @REASON+2,,AUTO
         9 001412   002563 701000 9                  TSX1    UPD_USERS
         9 001413   001415 702000 9                  TSX2    s:12056
         9 001414   001415 710000 9                  TRA     s:12056

      421    12056    3                       END;

  12056  9 001415   001417 710000 9                  TRA     RET

      422    12057    2             CASE(ELSE);

      423    12058    2               GOTO ILGL;

  12058  9 001416   001433 710000 9                  TRA     ILGL

      424    12059    2             END;

      425    12060    1   RET:    RETURN;

  12060  9 001417   000000 702200 xent  RET          TSX2  ! X66_ARET

      426    12061    1   BPRO:   IF PRO.C=0

  12061  9 001420   200015 236100       BPRO         LDQ     PRO,,AUTO
         9 001421   777000 316003                    CANQ    -512,DU
         9 001422   001426 601000 9                  TNZ     s:12063

      427    12062    1             THEN HLPER=%E$NOPR;

  12062  9 001423   002272 235007                    LDA     1210,DL
         9 001424   200024 755100                    STA     PSIZ,,AUTO
         9 001425   001430 710000 9                  TRA     s:12064

      428    12063    1             ELSE HLPER=%E$NGPR;

  12063  9 001426   002271 235007                    LDA     1209,DL
         9 001427   200024 755100                    STA     PSIZ,,AUTO
PL6.E3A0      #001=KLH$HLP File=KLH$HLP.:E05TSI                                  WED 07/30/97 00:47 Page:79

      429    12064    2           DO WHILE('0'B);

  12064  9 001430   001433 710000 9                  TRA     ILGL

      430    12065    2   BPROT:    HLPER=%E$BDPR;

  12065  9 001431   002277 235007       BPROT        LDA     1215,DL
         9 001432   200024 755100                    STA     PSIZ,,AUTO

      431    12066    2             END;

      432    12067    1   ILGL:   CALL SNDRJ (HLPER);

  12067  9 001433   200024 630500       ILGL         EPPR0   PSIZ,,AUTO
         9 001434   200035 450500                    STP0    RDBF$+2,,AUTO
         9 001435   002171 701000 9                  TSX1    SNDRJ
         9 001436   000000 011000                    NOP     0

      433    12068
      434    12069        /*   If this is an AUTO logon send message to console */
      435    12070    1           IF KL$SGN.AUTOLGN

  12070  9 001437   200033 470500                    LDP0    RDBF$,,AUTO
         9 001440   000005 236100                    LDQ     5,,PR0
         9 001441   200000 316003                    CANQ    65536,DU
         9 001442   001531 600000 9                  TZE     s:12081

      436    12071    2             THEN DO;

      437    12072    2               KL_AUTOFAIL.FEX = KL$SGN.NODE;

  12072  9 001443   000000 236100                    LDQ     0,,PR0
         9 001444   000022 772000                    QRL     18
         9 001445   000006 552004 xsym               STBQ    KL_AUTOFAIL+6,'04'O

      438    12073    2               KL_AUTOFAIL.LEVEL = KL$SGN.TERMINAL_ID.LEV;
PL6.E3A0      #001=KLH$HLP File=KLH$HLP.:E05TSI                                  WED 07/30/97 00:47 Page:80

  12073  9 001446   000001 236100                    LDQ     1,,PR0
         9 001447   000011 772000                    QRL     9
         9 001450   000011 552010 xsym               STBQ    KL_AUTOFAIL+9,'10'O

      439    12074    2               CALL KLX$8TO9(KL$SGN.TERMINAL_ID.TERM.CHANNEL,KL_AUTOFAIL.CHAN,2);

  12074  9 001451   000030 236000 10                 LDQ     24
         9 001452   200444 756100                    STQ     SIZ+196,,AUTO
         9 001453   000043 236000 10                 LDQ     35
         9 001454   200443 756100                    STQ     SIZ+195,,AUTO
         9 001455   200033 236100                    LDQ     RDBF$,,AUTO
         9 001456   000032 036000 10                 ADLQ    26
         9 001457   200442 756100                    STQ     SIZ+194,,AUTO
         9 001460   200442 630500                    EPPR0   SIZ+194,,AUTO
         9 001461   000021 631400 xsym               EPPR1   B_VECTNIL+17
         9 001462   000000 701000 xent               TSX1    KLX$8TO9
         9 001463   000000 011000                    NOP     0

      440    12075    2               CALL KLX$8TO9(KL$SGN.TERMINAL_ID.TERM.SUBDEVICE,KL_AUTOFAIL.SUBDEV,2);

  12075  9 001464   000030 236000 10                 LDQ     24
         9 001465   200444 756100                    STQ     SIZ+196,,AUTO
         9 001466   000044 236000 10                 LDQ     36
         9 001467   200443 756100                    STQ     SIZ+195,,AUTO
         9 001470   200033 236100                    LDQ     RDBF$,,AUTO
         9 001471   000002 036003                    ADLQ    2,DU
         9 001472   200442 756100                    STQ     SIZ+194,,AUTO
         9 001473   200442 630500                    EPPR0   SIZ+194,,AUTO
         9 001474   000021 631400 xsym               EPPR1   B_VECTNIL+17
         9 001475   000000 701000 xent               TSX1    KLX$8TO9
         9 001476   000000 011000                    NOP     0

      441    12076    2              CALL KLX$8TO9(KL$SGN.TERMINAL_ID.TERM.SUBSUBDEVICE,KL_AUTOFAIL.SUBSUBDEV
             12076                        ,2);

  12076  9 001477   000030 236000 10                 LDQ     24
PL6.E3A0      #001=KLH$HLP File=KLH$HLP.:E05TSI                                  WED 07/30/97 00:47 Page:81
         9 001500   200444 756100                    STQ     SIZ+196,,AUTO
         9 001501   000045 236000 10                 LDQ     37
         9 001502   200443 756100                    STQ     SIZ+195,,AUTO
         9 001503   200033 236100                    LDQ     RDBF$,,AUTO
         9 001504   000035 036000 10                 ADLQ    29
         9 001505   200442 756100                    STQ     SIZ+194,,AUTO
         9 001506   200442 630500                    EPPR0   SIZ+194,,AUTO
         9 001507   000021 631400 xsym               EPPR1   B_VECTNIL+17
         9 001510   000000 701000 xent               TSX1    KLX$8TO9
         9 001511   000000 011000                    NOP     0

      442    12077    2               KL_AUTOFAIL.REASON = HLPER;

  12077  9 001512   200024 720100                    LXL0    PSIZ,,AUTO
         9 001513   000011 740000 xsym               STX0    KL_AUTOFAIL+9

      443    12078    2               CALL KLX$CONV_NODE(KL_AUTOFAIL.FEPNAME,FEX,NODETYPE);

  12078  9 001514   200026 630500                    EPPR0   NODETYPE,,AUTO
         9 001515   200444 450500                    STP0    SIZ+196,,AUTO
         9 001516   200023 631500                    EPPR1   FEX,,AUTO
         9 001517   200443 451500                    STP1    SIZ+195,,AUTO
         9 001520   000046 236000 10                 LDQ     38
         9 001521   200442 756100                    STQ     SIZ+194,,AUTO
         9 001522   200442 630500                    EPPR0   SIZ+194,,AUTO
         9 001523   000021 631400 xsym               EPPR1   B_VECTNIL+17
         9 001524   000000 701000 xent               TSX1    KLX$CONV_NODE
         9 001525   000000 011000                    NOP     0

      444    12079    2               CALL M$WRITE (WRTAUTOFAIL);

  12079  9 001526   001134 630400 4                  EPPR0   WRTAUTOFAIL
         9 001527   040001 713400                    CLIMB   write
         9 001530   401400 401760                    pmme    nvectors=4

      445    12080    2               END;

PL6.E3A0      #001=KLH$HLP File=KLH$HLP.:E05TSI                                  WED 07/30/97 00:47 Page:82
      446    12081    1           RETURN;

  12081  9 001531   000000 702200 xent               TSX2  ! X66_ARET

      447    12082        %EJECT;
PL6.E3A0      #001=KLH$HLP File=KLH$HLP.:E05TSI                                  WED 07/30/97 00:47 Page:83
      448    12083    1   GETHLP: PROC ALTRET;

  12083  9 001532   200034 741300       GETHLP       STX1  ! RDBF$+1,,AUTO

      449    12084        /*I* NAME:        GETHLP
      450    12085             PURPOSE:     To obtain the :HLP record and verify the PASSWORD
      451    12086             CALL:        CALL GETHLP ALTRET(LBL);
      452    12087             INPUT:       ACCT - Logging on account
      453    12088                          NAME - Logging on user name (TEXTC)
      454    12089             OUTPUT:      KL_HLPR - The read-in :HLP record
      455    12090                          HLPER - Error set to %E$HLPBD if read of :HLP gives
      456    12091                             unexpected ALTRETURN error code (not %E$NOKEY)
      457    12092                             Any other error condition sets HLPER=%E$ILGL.
      458    12093             DESCRIPTION: GETHLP formats a key out of ACCT and NAME and uses that
      459    12094                          key to read the :HLP record. The password is verified.
      460    12095                          If the record exists and the password matches,
      461    12096                          GETHLP RETURNs normally, otherwise it ALTRETURNs with
      462    12097                          HLPER filled in.
      463    12098        */
      464    12099    2           KL_HLPKEY.ACCT=ACCT;

  12099  9 001533   040000 100500                    MLR     fill='040'O
         9 001534   200003 000010                    ADSC9   ACCT,,AUTO               cn=0,n=8
         9 001535   000000 200010 xsym               ADSC9   KL_HLPKEY                cn=1,n=8

      465    12100    2           KL_HLPKEY.CNT=NAME.C+SIZEC(KL_HLPKEY.ACCT);

  12100  9 001536   200005 236100                    LDQ     NAME,,AUTO
         9 001537   000033 772000                    QRL     27
         9 001540   000010 036007                    ADLQ    8,DL
         9 001541   000033 736000                    QLS     27
         9 001542   000000 552040 xsym               STBQ    KL_HLPKEY,'40'O

      466    12101    2           KL_HLPKEY.NAME=NAME.T;

  12101  9 001543   040000 100500                    MLR     fill='040'O
         9 001544   200005 200014                    ADSC9   NAME,,AUTO               cn=1,n=12
PL6.E3A0      #001=KLH$HLP File=KLH$HLP.:E05TSI                                  WED 07/30/97 00:47 Page:84
         9 001545   000002 200014 xsym               ADSC9   KL_HLPKEY+2              cn=1,n=12

      467    12102    2           CALL M$READ (KL_RDHLPR) ALTRET (RDALT);

  12102  9 001546   000000 630400 xsym               EPPR0   KL_RDHLPR
         9 001547   440000 713400                    CLIMB   alt,read
         9 001550   401400 401760                    pmme    nvectors=4
         9 001551   001607 702000 9                  TSX2    RDALT

      468    12103    2           SAVE_PW=PW;

  12103  9 001552   040100 100500                    MLR     fill='040'O
         9 001553   200011 000010                    ADSC9   PW,,AUTO                 cn=0,n=8
         9 001554   200013 000010                    ADSC9   SAVE_PW,,AUTO            cn=0,n=8

      469    12104    2           CALL ASZ$SCRAMBLE (PW);

  12104  9 001555   200011 630500                    EPPR0   PW,,AUTO
         9 001556   200442 450500                    STP0    SIZ+194,,AUTO
         9 001557   200442 630500                    EPPR0   SIZ+194,,AUTO
         9 001560   000017 631400 xsym               EPPR1   B_VECTNIL+15
         9 001561   000000 701000 xent               TSX1    ASZ$SCRAMBLE
         9 001562   000000 011000                    NOP     0

      470    12105                /* May want to log it in the security log. At least, update
      471    12106                   the bad logon count in the :USERS record.               */
      472    12107    3           IF PW~=KL_HLPR.PASSWORD THEN DO;

  12107  9 001563   040000 106500                    CMPC    fill='040'O
         9 001564   200011 000010                    ADSC9   PW,,AUTO                 cn=0,n=8
         9 001565   000002 000010 xsym               ADSC9   KL_HLPR+2                cn=0,n=8
         9 001566   001605 600000 9                  TZE     s:12114

      473    12108    3               IF ES$->LOGSYSACC >= %PC_ES_FAILEDPW# THEN

  12108  9 001567   000112 470400 4                  LDP0    ES$
         9 001570   000000 235100                    LDA     0,,PR0
PL6.E3A0      #001=KLH$HLP File=KLH$HLP.:E05TSI                                  WED 07/30/97 00:47 Page:85
         9 001571   001577 600000 9                  TZE     s:12110

      474    12109    3                   CALL SECLOG(%ES_BAD_PW#);

  12109  9 001572   000030 236000 10                 LDQ     24
         9 001573   200037 756100                    STQ     SIZ+1,,AUTO
         9 001574   002241 701000 9                  TSX1    SECLOG
         9 001575   000000 011000                    NOP     0
         9 001576   001604 710000 9                  TRA     s:12112

      475    12110    4                 ELSE CALL UPD_USERS(%ES_BAD_PW#) WHENALTRETURN DO;

  12110  9 001577   000030 236000 10                 LDQ     24
         9 001600   200041 756100                    STQ     @REASON+2,,AUTO
         9 001601   002563 701000 9                  TSX1    UPD_USERS
         9 001602   001604 702000 9                  TSX2    s:12112
         9 001603   001604 710000 9                  TRA     s:12112

      476    12111    4                       END;

      477    12112    3               GOTO ILGL;

  12112  9 001604   001630 710000 9                  TRA     ILGL

      478    12113    3               END;
      479    12114    2           RETURN;

  12114  9 001605   200034 221300                    LDX1  ! RDBF$+1,,AUTO
         9 001606   000001 702211                    TSX2  ! 1,X1

      480    12115    2   RDALT:  IF B$TCB$->B$TCB.ALT$->B$ALT.ERR.CODE~=%E$NOKEY

  12115  9 001607   000000 470400 xsym  RDALT        LDP0    B$TCB$
         9 001610   000000 471500                    LDP1    0,,PR0
         9 001611   100102 236100                    LDQ     66,,PR1
         9 001612   377770 376007                    ANQ     131064,DL
         9 001613   001020 116007                    CMPQ    528,DL
PL6.E3A0      #001=KLH$HLP File=KLH$HLP.:E05TSI                                  WED 07/30/97 00:47 Page:86
         9 001614   001620 600000 9                  TZE     s:12118

      481    12116    2             THEN HLPER=%E$HLPBD;

  12116  9 001615   002274 235007                    LDA     1212,DL
         9 001616   200024 755100                    STA     PSIZ,,AUTO
         9 001617   001632 710000 9                  TRA     s:12122

      482    12117    3             ELSE DO;

      483    12118    3               IF ES$->LOGSYSACC >= %PC_ES_FAILEDPWNE# THEN

  12118  9 001620   000112 473400 4                  LDP3    ES$
         9 001621   300000 235100                    LDA     0,,PR3
         9 001622   000002 115007                    CMPA    2,DL
         9 001623   001630 602000 9                  TNC     ILGL

      484    12119    3                   CALL SECLOG(%ES_NO_SUCH_USER#);

  12119  9 001624   000047 236000 10                 LDQ     39
         9 001625   200037 756100                    STQ     SIZ+1,,AUTO
         9 001626   002241 701000 9                  TSX1    SECLOG
         9 001627   000000 011000                    NOP     0

      485    12120    3   ILGL:       HLPER=%E$ILGL;

  12120  9 001630   002270 235007       ILGL         LDA     1208,DL
         9 001631   200024 755100                    STA     PSIZ,,AUTO

      486    12121    3               END;

      487    12122    2           ALTRETURN;

  12122  9 001632   200034 221300                    LDX1  ! RDBF$+1,,AUTO
         9 001633   000000 702211                    TSX2  ! 0,X1

      488    12123    2   END GETHLP;
PL6.E3A0      #001=KLH$HLP File=KLH$HLP.:E05TSI                                  WED 07/30/97 00:47 Page:87
      489    12124        %EJECT;
PL6.E3A0      #001=KLH$HLP File=KLH$HLP.:E05TSI                                  WED 07/30/97 00:47 Page:88
      490    12125    1   GETPRO: PROC ALTRET;

  12125  9 001634   200034 741300       GETPRO       STX1  ! RDBF$+1,,AUTO

      491    12126        /*I* NAME:        GETPRO
      492    12127             PURPOSE:     To read in the profile record and set some values
      493    12128             CALL:        CALL GETPRO ALTRET(LBL);
      494    12129             INPUT:       PRO - A possibly filled-in profile key
      495    12130                          KL_HLPR - The device's (user's) :HLP record
      496    12131                          DEFPRO - SLUG's default profile record
      497    12132             OUTPUT:      KL_PROBUF - The read-in (or default) profile record
      498    12133                          KL_PCD.ADDD.IO - Input, output or both
      499    12134                          KL_PCD.ADDD.TERMID.TTYP - Terminal type (TTY,STRM,SDEV or PROG)
      500    12135                          PSIZ - Set to the length of the read in profile
      501    12136                             record now in KL_PROBUF. If no profile record
      502    12137                             was read in (including using DEFPRO as KL_PROBUF)
      503    12138                             then PSIZ will be zero.
      504    12139             DESCRIPTION: GETPRO reads a :PRO record using either PRO (user-specified)
      505    12140                          or KL_HLPR.PNAME (:HLP-record specified default) and
      506    12141                          uses the found information to update the OUTPUT fields
      507    12142                          described above. KL_PROBUF is returned with the read-in
      508    12143                          :PRO record intact. If the record does not exist, GETPRO
      509    12144                          will ALTRETURN. If no profile was specified either
      510    12145                          on the signon or as a :HLP-record default, DEFPRO
      511    12146                          will be used as the default profile but PSIZ will
      512    12147                          be zero. Also, if 'NONE' or 'none'
      513    12148                          was specified as the profile name, then again
      514    12149                          DEFPRO will be used but PSIZ will be zero.
      515    12150        */
      516    12151        %EJECT;
PL6.E3A0      #001=KLH$HLP File=KLH$HLP.:E05TSI                                  WED 07/30/97 00:47 Page:89
      517    12152    2           PSIZ = 0;

  12152  9 001635   200024 450100                    STZ     PSIZ,,AUTO

      518    12153    2           IF PRO.C=0

  12153  9 001636   200015 236100                    LDQ     PRO,,AUTO
         9 001637   777000 316003                    CANQ    -512,DU
         9 001640   001644 601000 9                  TNZ     s:12155

      519    12154    2             THEN P$ = ADDR(KL_HLPR.PNAME);

  12154  9 001641   000050 236000 10                 LDQ     40
         9 001642   200032 756100                    STQ     P$,,AUTO
         9 001643   001646 710000 9                  TRA     s:12156

      520    12155    2             ELSE P$ = ADDR(PRO);

  12155  9 001644   200015 630500                    EPPR0   PRO,,AUTO
         9 001645   200032 450500                    STP0    P$,,AUTO

      521    12156    2           KL_PROKEY.C = ACHAR.CNT;

  12156  9 001646   200032 470500                    LDP0    P$,,AUTO
         9 001647   000000 100500                    MLR     fill='000'O
         9 001650   000000 000001                    ADSC9   0,,PR0                   cn=0,n=1
         9 001651   000000 000001 xsym               ADSC9   KL_PROKEY                cn=0,n=1

      522    12157    2           CALL XLATE (KL_PROKEY.T , B$XL_UPPER_UR , ACHAR.TXT);

  12157  9 001652   000100 101500                    MRL     fill='000'O
         9 001653   000000 000001                    ADSC9   0,,PR0                   cn=0,n=1
         9 001654   200442 000002                    ADSC9   SIZ+194,,AUTO            cn=0,n=2
         9 001655   200442 220100                    LDX0    SIZ+194,,AUTO
         9 001656   000000 471400 xsym               LDP1    B$XL_UPPER_UR$
         9 001657   040000 160540                    MVT     fill='040'O
         9 001660   000000 200010                    ADSC9   0,,PR0                   cn=1,n=*X0
PL6.E3A0      #001=KLH$HLP File=KLH$HLP.:E05TSI                                  WED 07/30/97 00:47 Page:90
         9 001661   000000 200013 xsym               ADSC9   KL_PROKEY                cn=1,n=11
         9 001662   100000 000100                    ARG     0,,PR1

      523    12158    2           IF KL_PROKEY.C=0 OR KL_PROKEY.T='NONE'

  12158  9 001663   000000 236000 xsym               LDQ     KL_PROKEY
         9 001664   777000 316003                    CANQ    -512,DU
         9 001665   001672 600000 9                  TZE     s:12160
         9 001666   040000 106400                    CMPC    fill='040'O
         9 001667   000000 200013 xsym               ADSC9   KL_PROKEY                cn=1,n=11
         9 001670   000104 000004 5                  ADSC9   SLUGHLP+28               cn=0,n=4
         9 001671   001703 601000 9                  TNZ     s:12165

      524    12159    3             THEN DO;

      525    12160    3               KL_PROBUF=DEFPRO;

  12160  9 001672   000000 100400                    MLR     fill='000'O
         9 001673   000024 000120 5                  ADSC9   DEFPRO                   cn=0,n=80
         9 001674   000000 000120 xsym               ADSC9   KL_PROBUF                cn=0,n=80

      526    12161    3               PSIZ = 0;

  12161  9 001675   200024 450100                    STZ     PSIZ,,AUTO

      527    12162    3               KL_PCD.ADDD.TERMID.TTYP=KL$SGN.TERMINAL_ID.TTYP;

  12162  9 001676   200033 473500                    LDP3    RDBF$,,AUTO
         9 001677   300001 236100                    LDQ     1,,PR3
         9 001700   000033 772000                    QRL     27
         9 001701   000003 552004 xsym               STBQ    KL_PCD+3,'04'O

      528    12163    3               END;

  12163  9 001702   001723 710000 9                  TRA     s:12171

      529    12164    3             ELSE DO;
PL6.E3A0      #001=KLH$HLP File=KLH$HLP.:E05TSI                                  WED 07/30/97 00:47 Page:91

      530    12165    4               CALL M$READ(KL_RDPROR) WHENALTRETURN DO;

  12165  9 001703   000000 630400 xsym               EPPR0   KL_RDPROR
         9 001704   440000 713400                    CLIMB   alt,read
         9 001705   401400 401760                    pmme    nvectors=4
         9 001706   001710 702000 9                  TSX2    s:12166
         9 001707   001712 710000 9                  TRA     s:12168

      531    12166    4                   ALTRETURN;

  12166  9 001710   200034 221300                    LDX1  ! RDBF$+1,,AUTO
         9 001711   000000 702211                    TSX2  ! 0,X1

      532    12167    4                   END;
      533    12168    3               PSIZ=DCBADDR(DCBNUM(M$PROF))->F$DCB.ARS;

  12168  9 001712   000000 236007 xsym               LDQ     M$PROF,DL
         9 001713   000051 470400 10                 LDP0    41
         9 001714   000000 471500                    LDP1    0,,PR0
         9 001715   100000 473506                    LDP3    0,QL,PR1
         9 001716   300000 235100                    LDA     0,,PR3
         9 001717   200024 755100                    STA     PSIZ,,AUTO

      534    12169    3               KL_PCD.ADDD.TERMID.TTYP=KL_PROBUF.TTYP;

  12169  9 001720   000000 236000 xsym               LDQ     KL_PROBUF
         9 001721   000033 772000                    QRL     27
         9 001722   000003 552004 xsym               STBQ    KL_PCD+3,'04'O

      535    12170    3               END;

      536    12171    2           KL_PCD.ADDD.IO=KL_PROBUF.IO;

  12171  9 001723   000001 236000 xsym               LDQ     KL_PROBUF+1
         9 001724   000022 736000                    QLS     18
         9 001725   000003 676000 xsym               ERQ     KL_PCD+3
PL6.E3A0      #001=KLH$HLP File=KLH$HLP.:E05TSI                                  WED 07/30/97 00:47 Page:92
         9 001726   600000 376003                    ANQ     -65536,DU
         9 001727   000003 656000 xsym               ERSQ    KL_PCD+3

      537    12172    2           RETURN;

  12172  9 001730   200034 221300                    LDX1  ! RDBF$+1,,AUTO
         9 001731   000001 702211                    TSX2  ! 1,X1

      538    12173    2   END GETPRO;
      539    12174        %EJECT;
PL6.E3A0      #001=KLH$HLP File=KLH$HLP.:E05TSI                                  WED 07/30/97 00:47 Page:93
      540    12175    1   SETPRO: PROC;

  12175  9 001732   200034 741300       SETPRO       STX1  ! RDBF$+1,,AUTO

      541    12176        /*D* NAME:        SETPRO
      542    12177             PURPOSE:     To send a profile message on behalf of this path
      543    12178             CALL:        CALL SETPRO;
      544    12179             INPUT:       PSIZ - Size of KL_PROBUF
      545    12180                          KL_PROBUF - The profile record
      546    12181             OUTPUT:      A set profile message to Node Admin
      547    12182             DESCRIPTION: SETPRO sends a set profile message to Node Admin
      548    12183                          on behalf of this path if PSIZ is not zero. The
      549    12184                          profile information is obtained from KL_PROBUF
      550    12185                          and send without the profile header portion.
      551    12186        */
      552    12187
      553    12188    2   DCL SIZE SBIN;
      554    12189    2   DCL IMP# UBIN;
      555    12190    2   DCL CHR$SIZE CHAR(SIZE) BASED;
      556    12191        %KL_PRFRSP(FPTN=PRFRSP,PRFSIZE=1024,STCLASS=AUTO);
      557    12241
      558    12242    2           IF PSIZ = 0

  12242  9 001733   200024 235100                    LDA     PSIZ,,AUTO
         9 001734   001736 601000 9                  TNZ     s:12245

      559    12243    2             THEN
      560    12244    2               RETURN;

  12244  9 001735   000001 702211                    TSX2  ! 1,X1

      561    12245    2           SIZE=PSIZ-LENGTHC(PROH);

  12245  9 001736   000120 135007                    SBLA    80,DL
         9 001737   200035 755100                    STA     SIZE,,AUTO

      562    12246    2           IF SIZE<=0
PL6.E3A0      #001=KLH$HLP File=KLH$HLP.:E05TSI                                  WED 07/30/97 00:47 Page:94

  12246  9 001740   001742 605400 9                  TPNZ    s:12249

      563    12247    2             THEN
      564    12248    2               SIZE = 0;

  12248  9 001741   200035 450100                    STZ     SIZE,,AUTO

      565    12249    2           PRFRSP.FCN=IGA_PRFRSP;

  12249  9 001742   102000 236003                    LDQ     33792,DU
         9 001743   200037 552140                    STBQ    PRFRSP,'40'O,AUTO

      566    12250    2           PRFRSP.IMP = '0'B;

  12250  9 001744   000052 236000 10                 LDQ     42
         9 001745   200037 356100                    ANSQ    PRFRSP,,AUTO

      567    12251    2           PRFRSP.NMID=NMID;

  12251  9 001746   000100 100500                    MLR     fill='000'O
         9 001747   200022 000004                    ADSC9   NMID,,AUTO               cn=0,n=4
         9 001750   200037 400004                    ADSC9   PRFRSP,,AUTO             cn=2,n=4

      568    12252    2           PRFRSP.PROFILE.PRFSIZE.BYT(1)=SIZE;

  12252  9 001751   200035 236100                    LDQ     SIZE,,AUTO
         9 001752   200040 676100                    ERQ     @REASON+1,,AUTO
         9 001753   000377 376007                    ANQ     255,DL
         9 001754   200040 656100                    ERSQ    @REASON+1,,AUTO

      569    12253    2           PRFRSP.PROFILE.PRFSIZE.BYT(0)=SIZE/256;

  12253  9 001755   200035 236100                    LDQ     SIZE,,AUTO
         9 001756   000400 506007                    DIV     256,DL
         9 001757   000011 736000                    QLS     9
         9 001760   200040 676100                    ERQ     @REASON+1,,AUTO
PL6.E3A0      #001=KLH$HLP File=KLH$HLP.:E05TSI                                  WED 07/30/97 00:47 Page:95
         9 001761   377000 376007                    ANQ     130560,DL
         9 001762   200040 656100                    ERSQ    @REASON+1,,AUTO

      570    12254    2           PRFRSP.PROFILE.PRFTXT=

  12254  9 001763   200035 720100                    LXL0    SIZE,,AUTO
         9 001764   040100 100440                    MLR     fill='040'O
         9 001765   000024 000010 xsym               ADSC9   KL_PROBUF+20             cn=0,n=*X0
         9 001766   200041 002000                    ADSC9   @REASON+2,,AUTO          cn=0,n=1024

      571    12255    2             PINCRC(ADDR(KL_PROBUF),LENGTHC(PROH))->CHR$SIZE;
      572    12256    2           SIZE=LENGTHC(PRFRSP)-LENGTHC(PRFRSP.PROFILE.PRFTXT)+SIZE;

  12256  9 001767   000010 236007                    LDQ     8,DL
         9 001770   200035 056100                    ASQ     SIZE,,AUTO

      573    12257    2           IMP# = KL_PROBUF.IMP#;

  12257  9 001771   000001 236000 xsym               LDQ     KL_PROBUF+1
         9 001772   000011 772000                    QRL     9
         9 001773   000177 376007                    ANQ     127,DL
         9 001774   200036 756100                    STQ     IMP#,,AUTO

      574    12258    2           IF SIZE > 0 AND IMP# > 0

  12258  9 001775   200035 235100                    LDA     SIZE,,AUTO
         9 001776   002004 604400 9                  TMOZ    s:12262
         9 001777   000000 116003                    CMPQ    0,DU
         9 002000   002004 600000 9                  TZE     s:12262

      575    12259    2             THEN
      576    12260    2               PRFRSP.MORE = '1'B;

  12260  9 002001   000100 236003                    LDQ     64,DU
         9 002002   200037 256100                    ORSQ    PRFRSP,,AUTO
         9 002003   002006 710000 9                  TRA     s:12263

PL6.E3A0      #001=KLH$HLP File=KLH$HLP.:E05TSI                                  WED 07/30/97 00:47 Page:96
      577    12261    2             ELSE
      578    12262    2               PRFRSP.MORE = '0'B;

  12262  9 002004   000053 236000 10                 LDQ     43
         9 002005   200037 356100                    ANSQ    PRFRSP,,AUTO

      579    12263    2           CALL KLX$WRHLPSTA(PRFRSP,SIZE,KL_STATION);

  12263  9 002006   000026 236000 10                 LDQ     22
         9 002007   200444 756100                    STQ     SIZ+196,,AUTO
         9 002010   200035 630500                    EPPR0   SIZE,,AUTO
         9 002011   200443 450500                    STP0    SIZ+195,,AUTO
         9 002012   200037 631500                    EPPR1   PRFRSP,,AUTO
         9 002013   200442 451500                    STP1    SIZ+194,,AUTO
         9 002014   200442 630500                    EPPR0   SIZ+194,,AUTO
         9 002015   000021 631400 xsym               EPPR1   B_VECTNIL+17
         9 002016   000000 701000 xent               TSX1    KLX$WRHLPSTA
         9 002017   000000 011000                    NOP     0

      580    12264    2           KL_PROKEY.C = LENGTHC(KL_PROKEY) - 1;

  12264  9 002020   014000 236003                    LDQ     6144,DU
         9 002021   000000 552040 xsym               STBQ    KL_PROKEY,'40'O

      581    12265    2           PRFRSP.IMP = '1'B;

  12265  9 002022   000200 236003                    LDQ     128,DU
         9 002023   200037 256100                    ORSQ    PRFRSP,,AUTO

      582    12266    2           IF PRFRSP.MORE

  12266  9 002024   200037 236100                    LDQ     PRFRSP,,AUTO
         9 002025   000100 316003                    CANQ    64,DU
         9 002026   002114 600000 9                  TZE     s:12282

      583    12267    2             THEN
      584    12268    3             DO KL_PROKEY.IMP# = 1 TO IMP#;
PL6.E3A0      #001=KLH$HLP File=KLH$HLP.:E05TSI                                  WED 07/30/97 00:47 Page:97

  12268  9 002027   001000 236003                    LDQ     512,DU
         9 002030   000003 756000 xsym               STQ     KL_PROKEY+3
         9 002031   002107 710000 9                  TRA     s:12281+3

      585    12269    3               CALL M$READ (KL_RDPROR)

  12269  9 002032   000000 630400 xsym               EPPR0   KL_RDPROR
         9 002033   440000 713400                    CLIMB   alt,read
         9 002034   401400 401760                    pmme    nvectors=4
         9 002035   002104 702000 9                  TSX2    s:12281

      586    12270    4                 WHENRETURN DO;

      587    12271    4                   SIZE = DCBADDR(DCBNUM(M$PROF))->F$DCB.ARS ;

  12271  9 002036   000000 236007 xsym               LDQ     M$PROF,DL
         9 002037   000051 470400 10                 LDP0    41
         9 002040   000000 471500                    LDP1    0,,PR0
         9 002041   100000 473506                    LDP3    0,QL,PR1
         9 002042   300000 235100                    LDA     0,,PR3
         9 002043   200035 755100                    STA     SIZE,,AUTO

      588    12272    4                   PRFRSP.PROFILE.PRFTXT = ADDR(KL_PROBUF)->CHR$SIZE;

  12272  9 002044   000000 620005                    EAX0    0,AL
         9 002045   040100 100440                    MLR     fill='040'O
         9 002046   000000 000010 xsym               ADSC9   KL_PROBUF                cn=0,n=*X0
         9 002047   200041 002000                    ADSC9   @REASON+2,,AUTO          cn=0,n=1024

      589    12273    4                   PRFRSP.PROFILE.PRFSIZE.BYT(1) = SIZE;

  12273  9 002050   200035 236100                    LDQ     SIZE,,AUTO
         9 002051   200040 676100                    ERQ     @REASON+1,,AUTO
         9 002052   000377 376007                    ANQ     255,DL
         9 002053   200040 656100                    ERSQ    @REASON+1,,AUTO

PL6.E3A0      #001=KLH$HLP File=KLH$HLP.:E05TSI                                  WED 07/30/97 00:47 Page:98
      590    12274    4                   PRFRSP.PROFILE.PRFSIZE.BYT(0) = SIZE/256;

  12274  9 002054   200035 236100                    LDQ     SIZE,,AUTO
         9 002055   000400 506007                    DIV     256,DL
         9 002056   000011 736000                    QLS     9
         9 002057   200040 676100                    ERQ     @REASON+1,,AUTO
         9 002060   377000 376007                    ANQ     130560,DL
         9 002061   200040 656100                    ERSQ    @REASON+1,,AUTO

      591    12275    4                   IF KL_PROKEY.IMP# = IMP#

  12275  9 002062   000003 236000 xsym               LDQ     KL_PROKEY+3
         9 002063   000033 772000                    QRL     27
         9 002064   200036 116100                    CMPQ    IMP#,,AUTO
         9 002065   002070 601000 9                  TNZ     s:12278

      592    12276    4                     THEN
      593    12277    4                       PRFRSP.MORE = '0'B;

  12277  9 002066   000053 236000 10                 LDQ     43
         9 002067   200037 356100                    ANSQ    PRFRSP,,AUTO

      594    12278    4                   SIZE = SIZE + LENGTHC(PRFRSP) - LENGTHC(PRFRSP.PROFILE.PRFTXT);

  12278  9 002070   000010 236007                    LDQ     8,DL
         9 002071   200035 056100                    ASQ     SIZE,,AUTO

      595    12279    4                   CALL KLX$WRHLPSTA(PRFRSP,SIZE,KL_STATION);

  12279  9 002072   000026 236000 10                 LDQ     22
         9 002073   200444 756100                    STQ     SIZ+196,,AUTO
         9 002074   200035 633500                    EPPR3   SIZE,,AUTO
         9 002075   200443 453500                    STP3    SIZ+195,,AUTO
         9 002076   200037 634500                    EPPR4   PRFRSP,,AUTO
         9 002077   200442 454500                    STP4    SIZ+194,,AUTO
         9 002100   200442 630500                    EPPR0   SIZ+194,,AUTO
         9 002101   000021 631400 xsym               EPPR1   B_VECTNIL+17
PL6.E3A0      #001=KLH$HLP File=KLH$HLP.:E05TSI                                  WED 07/30/97 00:47 Page:99
         9 002102   000000 701000 xent               TSX1    KLX$WRHLPSTA
         9 002103   000000 011000                    NOP     0

      596    12280    4                   END;

      597    12281    3               END;

  12281  9 002104   000003 236000 xsym               LDQ     KL_PROKEY+3
         9 002105   001000 036003                    ADLQ    512,DU
         9 002106   000003 552040 xsym               STBQ    KL_PROKEY+3,'40'O
         9 002107   000003 236000 xsym               LDQ     KL_PROKEY+3
         9 002110   000033 772000                    QRL     27
         9 002111   200036 116100                    CMPQ    IMP#,,AUTO
         9 002112   002032 602000 9                  TNC     s:12269
         9 002113   002032 600000 9                  TZE     s:12269

      598    12282    2           RETURN;

  12282  9 002114   200034 221300                    LDX1  ! RDBF$+1,,AUTO
         9 002115   000001 702211                    TSX2  ! 1,X1

      599    12283    2   END SETPRO;
      600    12284
      601    12285        /*D* NAME:        SNDMSG
      602    12286             PURPOSE:     To send a message to the device
      603    12287             DESCRIPTION: SNDMSG simply takes ERR and gets an errmsg for it
      604    12288                          and sends that message to the device
      605    12289        */
      606    12290    1   SNDMSG: PROC(ERR);

  12290  9 002116   200034 741300       SNDMSG       STX1  ! RDBF$+1,,AUTO

      607    12291    2   DCL ERR UBIN;
      608    12292        %KL_WRITE(FPTN=KL_WRITE,STCLASS=AUTO);
      609    12331    2   DCL SIZ UBIN;
      610    12332
      611    12333    2           KL_WRITE='0'B;
PL6.E3A0      #001=KLH$HLP File=KLH$HLP.:E05TSI                                  WED 07/30/97 00:47 Page:100

  12333  9 002117   000100 100400                    MLR     fill='000'O
         9 002120   000002 000001 xsym               ADSC9   B_VECTNIL+2              cn=0,n=1
         9 002121   200036 000406                    ADSC9   KL_WRITE,,AUTO           cn=0,n=262

      612    12334    2           KL_WRITE.FCN=IGA_WRITE;

  12334  9 002122   110000 236003                    LDQ     36864,DU
         9 002123   200036 552140                    STBQ    KL_WRITE,'40'O,AUTO

      613    12335    2           KL_WRITE.NMID = NMID;

  12335  9 002124   000100 100500                    MLR     fill='000'O
         9 002125   200022 000004                    ADSC9   NMID,,AUTO               cn=0,n=4
         9 002126   200036 400004                    ADSC9   KL_WRITE,,AUTO           cn=2,n=4

      614    12336    2           SIZ=LENGTHC(KL_WRITE.MESSAGE.MSGTXT);

  12336  9 002127   000377 235007                    LDA     255,DL
         9 002130   200140 755100                    STA     SIZ,,AUTO

      615    12337    2           CALL KLH$ERRMSG(KL_WRITE.MESSAGE.MSGTXT,SIZ,ERR);

  12337  9 002131   200035 236100                    LDQ     @ERR,,AUTO
         9 002132   200444 756100                    STQ     SIZ+196,,AUTO
         9 002133   200140 630500                    EPPR0   SIZ,,AUTO
         9 002134   200443 450500                    STP0    SIZ+195,,AUTO
         9 002135   200445 452500                    STP2    SIZ+197,,AUTO
         9 002136   200445 236100                    LDQ     SIZ+197,,AUTO
         9 002137   000054 036000 10                 ADLQ    44
         9 002140   200442 756100                    STQ     SIZ+194,,AUTO
         9 002141   200442 630500                    EPPR0   SIZ+194,,AUTO
         9 002142   000021 631400 xsym               EPPR1   B_VECTNIL+17
         9 002143   000000 701000 xent               TSX1    KLH$ERRMSG
         9 002144   000000 011000                    NOP     0

      616    12338    2           KL_WRITE.MESSAGE.MSGSIZE=SIZ;
PL6.E3A0      #001=KLH$HLP File=KLH$HLP.:E05TSI                                  WED 07/30/97 00:47 Page:101

  12338  9 002145   200140 236100                    LDQ     SIZ,,AUTO
         9 002146   000011 736000                    QLS     9
         9 002147   200037 552110                    STBQ    PRFRSP,'10'O,AUTO

      617    12339    2           SIZ=LENGTHC(KL_WRITE)-LENGTHC(KL_WRITE.MESSAGE.MSGTXT)+KL_WRITE.MESSAGE.
             12339                    MSGSIZE;

  12339  9 002150   200037 236100                    LDQ     PRFRSP,,AUTO
         9 002151   000011 772000                    QRL     9
         9 002152   000777 376007                    ANQ     511,DL
         9 002153   000007 036007                    ADLQ    7,DL
         9 002154   200140 756100                    STQ     SIZ,,AUTO

      618    12340    2           CALL KLX$WRHLPSTA(KL_WRITE,SIZ,KL_STATION);

  12340  9 002155   000026 236000 10                 LDQ     22
         9 002156   200444 756100                    STQ     SIZ+196,,AUTO
         9 002157   200140 630500                    EPPR0   SIZ,,AUTO
         9 002160   200443 450500                    STP0    SIZ+195,,AUTO
         9 002161   200036 631500                    EPPR1   KL_WRITE,,AUTO
         9 002162   200442 451500                    STP1    SIZ+194,,AUTO
         9 002163   200442 630500                    EPPR0   SIZ+194,,AUTO
         9 002164   000021 631400 xsym               EPPR1   B_VECTNIL+17
         9 002165   000000 701000 xent               TSX1    KLX$WRHLPSTA
         9 002166   000000 011000                    NOP     0

      619    12341    2           RETURN;

  12341  9 002167   200034 221300                    LDX1  ! RDBF$+1,,AUTO
         9 002170   000001 702211                    TSX2  ! 1,X1

      620    12342    2   END SNDMSG;
      621    12343
      622    12344        /*D* NAME:        SNDRJ
      623    12345             PURPOSE:     To format and send a KL_SGNRSP message rejecting this logon
      624    12346             CALL:        CALL SNDRJ(ERR);
PL6.E3A0      #001=KLH$HLP File=KLH$HLP.:E05TSI                                  WED 07/30/97 00:47 Page:102
      625    12347             INPUT:       ERR - The reason for the reject
      626    12348             OUTPUT:      KL_SGNRSP - The signon response as a reject message
      627    12349             DESCRIPTION: SNDRJ formats a KL_SGNRSP message, calls KLH$SGNTXT
      628    12350                          to complete filling out the .MESSAGE portion, and
      629    12351                          sends this message to the originating station.
      630    12352        */
      631    12353
      632    12354    1   SNDRJ:  PROC(ERR);

  12354  9 002171   200034 741300       SNDRJ        STX1  ! RDBF$+1,,AUTO

      633    12355
      634    12356    2   DCL ERR UBIN;
      635    12357    2   DCL SIZ UBIN;
      636    12358        %KL_SGNRSP (FPTN=KL_SGNRSP,RSPSIZ=80,STCLASS=AUTO);
      637    12493
      638    12494    2           KL_SGNRSP='0'B;

  12494  9 002172   000100 100400                    MLR     fill='000'O
         9 002173   000002 000001 xsym               ADSC9   B_VECTNIL+2              cn=0,n=1
         9 002174   200037 000160                    ADSC9   KL_SGNRSP,,AUTO          cn=0,n=112

      639    12495    2           KL_SGNRSP.FCN=IGA_SGNRSP;

  12495  9 002175   100000 236003                    LDQ     32768,DU
         9 002176   200037 552140                    STBQ    KL_SGNRSP,'40'O,AUTO

      640    12496    2           KL_SGNRSP.NMID=KL$SGN.NMID;

  12496  9 002177   200033 470500                    LDP0    RDBF$,,AUTO
         9 002200   000100 100500                    MLR     fill='000'O
         9 002201   000005 600004                    ADSC9   5,,PR0                   cn=3,n=4
         9 002202   200037 400004                    ADSC9   KL_SGNRSP,,AUTO          cn=2,n=4

      641    12497    2           CALL KLH$SGNTXT(KL_SGNRSP,ERR);

  12497  9 002203   200035 236100                    LDQ     @ERR,,AUTO
PL6.E3A0      #001=KLH$HLP File=KLH$HLP.:E05TSI                                  WED 07/30/97 00:47 Page:103
         9 002204   200443 756100                    STQ     SIZ+195,,AUTO
         9 002205   200037 631500                    EPPR1   KL_SGNRSP,,AUTO
         9 002206   200442 451500                    STP1    SIZ+194,,AUTO
         9 002207   200442 630500                    EPPR0   SIZ+194,,AUTO
         9 002210   000020 631400 xsym               EPPR1   B_VECTNIL+16
         9 002211   000000 701000 xent               TSX1    KLH$SGNTXT
         9 002212   000000 011000                    NOP     0

      642    12498    2           IF HLPER = %E$NOHOST THEN

  12498  9 002213   200024 235100                    LDA     PSIZ,,AUTO
         9 002214   002303 115007                    CMPA    1219,DL
         9 002215   002221 601000 9                  TNZ     s:12500

      643    12499    2               KL_SGNRSP.RLCID.NODE = KL_DESTNODE;
             12499                        /* node # device is attempting logon to*/

  12499  9 002216   000000 236000 xsym               LDQ     KL_DESTNODE
         9 002217   000011 736000                    QLS     9
         9 002220   200040 552110                    STBQ    @REASON+1,'10'O,AUTO

      644    12500    2           SIZ=LENGTHC(KL_SGNRSP)-LENGTHC(KL_SGNRSP.MESSAGE.RSPTXT)

  12500  9 002221   200046 236100                    LDQ     @REASON+5,,AUTO
         9 002222   000777 376007                    ANQ     511,DL
         9 002223   000040 036007                    ADLQ    32,DL
         9 002224   200036 756100                    STQ     SIZ,,AUTO

      645    12501    2             +KL_SGNRSP.MESSAGE.RSPSIZ;
      646    12502    2           CALL KLX$WRHLPSTA(KL_SGNRSP,SIZ,KL_STATION);

  12502  9 002225   000026 236000 10                 LDQ     22
         9 002226   200444 756100                    STQ     SIZ+196,,AUTO
         9 002227   200036 630500                    EPPR0   SIZ,,AUTO
         9 002230   200443 450500                    STP0    SIZ+195,,AUTO
         9 002231   200037 631500                    EPPR1   KL_SGNRSP,,AUTO
         9 002232   200442 451500                    STP1    SIZ+194,,AUTO
PL6.E3A0      #001=KLH$HLP File=KLH$HLP.:E05TSI                                  WED 07/30/97 00:47 Page:104
         9 002233   200442 630500                    EPPR0   SIZ+194,,AUTO
         9 002234   000021 631400 xsym               EPPR1   B_VECTNIL+17
         9 002235   000000 701000 xent               TSX1    KLX$WRHLPSTA
         9 002236   000000 011000                    NOP     0

      647    12503    2           RETURN;

  12503  9 002237   200034 221300                    LDX1  ! RDBF$+1,,AUTO
         9 002240   000001 702211                    TSX2  ! 1,X1

      648    12504    2   END SNDRJ;
      649    12505        %EJECT;
PL6.E3A0      #001=KLH$HLP File=KLH$HLP.:E05TSI                                  WED 07/30/97 00:47 Page:105
      650    12506    1   SECLOG: PROC(REASON);

  12506  9 002241   200036 741300       SECLOG       STX1  ! SIZ,,AUTO

      651    12507
      652    12508        /*I* NAME:        SECLOG
      653    12509
      654    12510             PURPOSE:     To fill in and write a record to the security log
      655    12511                          for system accesses and/or possibly update the
      656    12512                          :USERS record for security purposes.
      657    12513
      658    12514             CALL:        CALL SECLOG(reason);
      659    12515
      660    12516             INPUT:       A reason as defined in the ES_SUBS_E include file.
      661    12517
      662    12518             OUTPUT:      In all cases, a record will be written to the
      663    12519                          security log via M$WRSYSLOG. Some cases will also
      664    12520                          require security updates to the :USERS record.
      665    12521
      666    12522             DESCRIPTION: SECLOG will only be called if the value of
      667    12523                          ES_LOGSYSACC (defined via CONTROL) indicates that
      668    12524                          security logging is desired. Dependent upon the
      669    12525                          specific type of logging desired, it may be called
      670    12526                          when (1) a garbage logon is given, (2) a logon
      671    12527                          is given which does not exist in :HLP, (3) a logon
      672    12528                          is given which does exist in :HLP but has failed
      673    12529                          the password check, or (4) logging of all system
      674    12530                          accesses is desired.
      675    12531
      676    12532                          The security log structure is filled in
      677    12533                          from information found in the KL$SGN and KL_HLPR
      678    12534                          (:HLP record) structures and M$WRSYSLOG is called.
      679    12535                          If the reason passed to SECLOG
      680    12536                          indicates that the logon given was good except for
      681    12537                          the password, the bad password is also placed in
      682    12538                          the security record and the count of bad logon
      683    12539                          attempts since the last system exit is incremented
PL6.E3A0      #001=KLH$HLP File=KLH$HLP.:E05TSI                                  WED 07/30/97 00:47 Page:106
      684    12540                          in the :USERS record. The online PRIV and PPRIV
      685    12541                          information is copied from the :USERS record into
      686    12542                          the security record in this case. If logging a good
      687    12543                          logon, the current logon time and bad logon counts
      688    12544                          in the :USERS records will be updated.
      689    12545        */
      690    12546    2   DCL REASON UBIN;
      691    12547        %INCLUDE ES_TABLES_M;
      692    12941        %ES$SECLOG(NAME=ES$SECLOG,STCLASS=STATIC);
      693    13218        %INCLUDE B$JIT;
      694    13508        %B$JIT0_ES_MODES;
      695    13512    2   DCL B$JIT$ PTR SYMREF;
      696    13513        %FPT_WRSYSLOG(FPTN=WR_SECLOG,
      697    13514                  ENTRY=ES$SECLOG,
      698    13515                  FILENUM=EL_SEC,
      699    13516                  SIZE="SIZEW(ES$SECLOG)",
      700    13517                  TYPE=EL_SYS_ACCESS);
      701    13532        %INCLUDE AS_SUBS_C;
      702    14946
      703    14947    2           ES$SECLOG.REASON=REASON;

  14947  9 002242   200037 470500                    LDP0    @REASON,,AUTO
         9 002243   000000 236100                    LDQ     0,,PR0
         9 002244   000033 736000                    QLS     27
         9 002245   001160 552040 4                  STBQ    ES$SECLOG,'40'O

      704    14948    2           ES$SECLOG.GRANTED='0'B;

  14948  9 002246   000055 236000 10                 LDQ     45
         9 002247   001160 356000 4                  ANSQ    ES$SECLOG

      705    14949    2           ES$SECLOG.MODE=0;

  14949  9 002250   000056 236000 10                 LDQ     46
         9 002251   001161 356000 4                  ANSQ    ES$SECLOG+1

      706    14950    2           ES$SECLOG.ACCN = ' ';
PL6.E3A0      #001=KLH$HLP File=KLH$HLP.:E05TSI                                  WED 07/30/97 00:47 Page:107

  14950  9 002252   000035 235000 xsym               LDA     B_VECTNIL+29
         9 002253   000035 236000 xsym               LDQ     B_VECTNIL+29
         9 002254   001162 757000 4                  STAQ    ES$SECLOG+2

      707    14951    2           ES$SECLOG.UNAME = ' ';

  14951  9 002255   040000 100400                    MLR     fill='040'O
         9 002256   000035 000001 xsym               ADSC9   B_VECTNIL+29             cn=0,n=1
         9 002257   001164 000014 4                  ADSC9   ES$SECLOG+4              cn=0,n=12

      708    14952    2           ES$SECLOG.PASSWORD = ' ';

  14952  9 002260   000035 235000 xsym               LDA     B_VECTNIL+29
         9 002261   000035 236000 xsym               LDQ     B_VECTNIL+29
         9 002262   001167 755000 4                  STA     ES$SECLOG+7
         9 002263   001170 756000 4                  STQ     ES$SECLOG+8

      709    14953    2           ES$SECLOG.PRIV='0'B;

  14953  9 002264   001174 450000 4                  STZ     ES$SECLOG+12

      710    14954    2           ES$SECLOG.PPRIV='0'B;

  14954  9 002265   001175 450000 4                  STZ     ES$SECLOG+13

      711    14955    2           ES$SECLOG.LOGON.L = 0;

  14955  9 002266   000000 236003                    LDQ     0,DU
         9 002267   001200 552040 4                  STBQ    ES$SECLOG+16,'40'O

      712    14956    2           ES$SECLOG.LOGON.C = ' ';

  14956  9 002270   040000 100400                    MLR     fill='040'O
         9 002271   000035 000001 xsym               ADSC9   B_VECTNIL+29             cn=0,n=1
         9 002272   001200 200037 4                  ADSC9   ES$SECLOG+16             cn=1,n=31

PL6.E3A0      #001=KLH$HLP File=KLH$HLP.:E05TSI                                  WED 07/30/97 00:47 Page:108
      713    14957    3           IF REASON ~= %ES_JUNK_LOGON# THEN DO;

  14957  9 002273   000000 235100                    LDA     0,,PR0
         9 002274   000004 115007                    CMPA    4,DL
         9 002275   002320 600000 9                  TZE     s:14965

      714    14958    3               ES$SECLOG.TSLINE.FEX = KL_PCD.ADDD.FEX;

  14958  9 002276   000000 236000 xsym               LDQ     KL_PCD
         9 002277   000033 736000                    QLS     27
         9 002300   001214 552040 4                  STBQ    ES$SECLOG+28,'40'O

      715    14959    3               ES$SECLOG.TSLINE.PORT = BITBIN(KL_PCD.ADDD.TERMID.CHAN);

  14959  9 002301   000004 236000 xsym               LDQ     KL_PCD+4
         9 002302   000022 772000                    QRL     18
         9 002303   000011 736000                    QLS     9
         9 002304   001214 552030 4                  STBQ    ES$SECLOG+28,'30'O

      716    14960    3               ES$SECLOG.TSLINE.LEV = KL_PCD.ADDD.TERMID.LEV;

  14960  9 002305   000003 236000 xsym               LDQ     KL_PCD+3
         9 002306   000011 772000                    QRL     9
         9 002307   001214 552004 4                  STBQ    ES$SECLOG+28,'04'O

      717    14961    3               ES$SECLOG.TSLINE.SUBDEVICE = BITBIN(KL_PCD.ADDD.TERMID.SUB);

  14961  9 002310   000004 236000 xsym               LDQ     KL_PCD+4
         9 002311   777777 376007                    ANQ     -1,DL
         9 002312   000000 620006                    EAX0    0,QL
         9 002313   001215 740000 4                  STX0    ES$SECLOG+29

      718    14962    3               ES$SECLOG.TSLINE.SUBSUBDEVICE = BITBIN(KL_PCD.ADDD.TERMID.SUBSUB);

  14962  9 002314   000005 236000 xsym               LDQ     KL_PCD+5
         9 002315   000022 772000                    QRL     18
         9 002316   000000 622006                    EAX2    0,QL
PL6.E3A0      #001=KLH$HLP File=KLH$HLP.:E05TSI                                  WED 07/30/97 00:47 Page:109
         9 002317   001215 442000 4                  SXL2    ES$SECLOG+29

      719    14963    3               END;

      720    14964
      721    14965    3           DO CASE(REASON);

  14965  9 002320   000000 235100                    LDA     0,,PR0
         9 002321   000005 115007                    CMPA    5,DL
         9 002322   002324 602005 9                  TNC     s:14965+4,AL
         9 002323   002555 710000 9                  TRA     s:15015
         9 002324   002555 710000 9                  TRA     s:15015
         9 002325   002331 710000 9                  TRA     s:14967
         9 002326   002501 710000 9                  TRA     s:14998
         9 002327   002467 710000 9                  TRA     s:14994
         9 002330   002400 710000 9                  TRA     s:14981

      722    14966    3             CASE(%ES_LOG_ALL#);

      723    14967    3               ES$SECLOG.GRANTED='1'B;

  14967  9 002331   000400 236003                    LDQ     256,DU
         9 002332   001160 256000 4                  ORSQ    ES$SECLOG

      724    14968    3               ES$SECLOG.ACCN=ACCT;

  14968  9 002333   040000 100500                    MLR     fill='040'O
         9 002334   200003 000010                    ADSC9   ACCT,,AUTO               cn=0,n=8
         9 002335   001162 000010 4                  ADSC9   ES$SECLOG+2              cn=0,n=8

      725    14969    3               IF NAME.C ~= 0 THEN

  14969  9 002336   200005 236100                    LDQ     NAME,,AUTO
         9 002337   777000 316003                    CANQ    -512,DU
         9 002340   002344 600000 9                  TZE     s:14971

      726    14970    3                   ES$SECLOG.UNAME=NAME.T;
PL6.E3A0      #001=KLH$HLP File=KLH$HLP.:E05TSI                                  WED 07/30/97 00:47 Page:110

  14970  9 002341   040000 100500                    MLR     fill='040'O
         9 002342   200005 200014                    ADSC9   NAME,,AUTO               cn=1,n=12
         9 002343   001164 000014 4                  ADSC9   ES$SECLOG+4              cn=0,n=12

      727    14971    4               DO CASE(KL_HLPR.ATYP);

  14971  9 002344   000000 236000 xsym               LDQ     KL_HLPR
         9 002345   000033 772000                    QRL     27
         9 002346   000004 116007                    CMPQ    4,DL
         9 002347   002351 602006 9                  TNC     s:14971+5,QL
         9 002350   002373 710000 9                  TRA     s:14979
         9 002351   002373 710000 9                  TRA     s:14979
         9 002352   002355 710000 9                  TRA     s:14973
         9 002353   002362 710000 9                  TRA     s:14975
         9 002354   002367 710000 9                  TRA     s:14977

      728    14972    4                 CASE(%KLAT_TS#);

      729    14973    4                   ES$SECLOG.MODE=%M_INT#;

  14973  9 002355   001161 236000 4                  LDQ     ES$SECLOG+1
         9 002356   000056 376000 10                 ANQ     46
         9 002357   140000 276003                    ORQ     49152,DU
         9 002360   001161 756000 4                  STQ     ES$SECLOG+1
         9 002361   002373 710000 9                  TRA     s:14979

      730    14974    4                 CASE(%KLAT_CG#);

      731    14975    4                   ES$SECLOG.MODE=%M_CG#;

  14975  9 002362   001161 236000 4                  LDQ     ES$SECLOG+1
         9 002363   000056 376000 10                 ANQ     46
         9 002364   240000 276003                    ORQ     81920,DU
         9 002365   001161 756000 4                  STQ     ES$SECLOG+1
         9 002366   002373 710000 9                  TRA     s:14979

PL6.E3A0      #001=KLH$HLP File=KLH$HLP.:E05TSI                                  WED 07/30/97 00:47 Page:111
      732    14976    4                 CASE(%KLAT_RES#);

      733    14977    4                   ES$SECLOG.MODE=%M_RES#;

  14977  9 002367   001161 236000 4                  LDQ     ES$SECLOG+1
         9 002370   000056 376000 10                 ANQ     46
         9 002371   300000 276003                    ORQ     98304,DU
         9 002372   001161 756000 4                  STQ     ES$SECLOG+1

      734    14978    4                 END;

      735    14979    3               CALL UPD_USERS(%ES_LOG_ALL#) ALTRET(LOG_IT);

  14979  9 002373   000042 236000 10                 LDQ     34
         9 002374   200041 756100                    STQ     @REASON+2,,AUTO
         9 002375   002563 701000 9                  TSX1    UPD_USERS
         9 002376   002556 702000 9                  TSX2    LOG_IT
         9 002377   002556 710000 9                  TRA     LOG_IT

      736    14980    3             CASE(%ES_JUNK_LOGON#);

      737    14981    3               ES$SECLOG.LOGON.L=KL$SGN.LOGON.LGNSIZ;

  14981  9 002400   200033 471500                    LDP1    RDBF$,,AUTO
         9 002401   100007 236100                    LDQ     7,,PR1
         9 002402   000011 736000                    QLS     9
         9 002403   001200 552040 4                  STBQ    ES$SECLOG+16,'40'O

      738    14982    3               IF ES$SECLOG.LOGON.L > LENGTHC(ES$SECLOG.LOGON.C) THEN

  14982  9 002404   001200 236000 4                  LDQ     ES$SECLOG+16
         9 002405   777000 376003                    ANQ     -512,DU
         9 002406   040000 116003                    CMPQ    16384,DU
         9 002407   002412 602000 9                  TNC     s:14984

      739    14983    3                   ES$SECLOG.LOGON.L=LENGTHC(ES$SECLOG.LOGON.C);

PL6.E3A0      #001=KLH$HLP File=KLH$HLP.:E05TSI                                  WED 07/30/97 00:47 Page:112
  14983  9 002410   037000 236003                    LDQ     15872,DU
         9 002411   001200 552040 4                  STBQ    ES$SECLOG+16,'40'O

      740    14984    3               ES$SECLOG.LOGON.C=KL$SGN.LOGON.LGNTXT;

  14984  9 002412   100007 220100                    LDX0    7,,PR1
         9 002413   000777 360003                    ANX0    511,DU
         9 002414   040000 100540                    MLR     fill='040'O
         9 002415   100007 400010                    ADSC9   7,,PR1                   cn=2,n=*X0
         9 002416   001200 200037 4                  ADSC9   ES$SECLOG+16             cn=1,n=31

      741    14985    3               ES$SECLOG.TSLINE.FEX=KL$SGN.NODE;

  14985  9 002417   100000 236100                    LDQ     0,,PR1
         9 002420   000011 736000                    QLS     9
         9 002421   001214 552040 4                  STBQ    ES$SECLOG+28,'40'O

      742    14986    3               ES$SECLOG.TSLINE.LEV=KL$SGN.TERMINAL_ID.LEV;

  14986  9 002422   100001 236100                    LDQ     1,,PR1
         9 002423   000022 772000                    QRL     18
         9 002424   001214 552004 4                  STBQ    ES$SECLOG+28,'04'O

      743    14987    3               CALL KLX$8TO9(KL$SGN.TERMINAL_ID.TERM.CHANNEL,

  14987  9 002425   000030 236000 10                 LDQ     24
         9 002426   200444 756100                    STQ     SIZ+196,,AUTO
         9 002427   000057 236000 10                 LDQ     47
         9 002430   200443 756100                    STQ     SIZ+195,,AUTO
         9 002431   200033 236100                    LDQ     RDBF$,,AUTO
         9 002432   000032 036000 10                 ADLQ    26
         9 002433   200442 756100                    STQ     SIZ+194,,AUTO
         9 002434   200442 630500                    EPPR0   SIZ+194,,AUTO
         9 002435   000021 631400 xsym               EPPR1   B_VECTNIL+17
         9 002436   000000 701000 xent               TSX1    KLX$8TO9
         9 002437   000000 011000                    NOP     0

PL6.E3A0      #001=KLH$HLP File=KLH$HLP.:E05TSI                                  WED 07/30/97 00:47 Page:113
      744    14988    3                 ES$SECLOG.TSLINE.PORT,2);
      745    14989    3               CALL KLX$8TO9(KL$SGN.TERMINAL_ID.TERM.SUBDEVICE,

  14989  9 002440   000030 236000 10                 LDQ     24
         9 002441   200444 756100                    STQ     SIZ+196,,AUTO
         9 002442   000060 236000 10                 LDQ     48
         9 002443   200443 756100                    STQ     SIZ+195,,AUTO
         9 002444   200033 236100                    LDQ     RDBF$,,AUTO
         9 002445   000002 036003                    ADLQ    2,DU
         9 002446   200442 756100                    STQ     SIZ+194,,AUTO
         9 002447   200442 630500                    EPPR0   SIZ+194,,AUTO
         9 002450   000021 631400 xsym               EPPR1   B_VECTNIL+17
         9 002451   000000 701000 xent               TSX1    KLX$8TO9
         9 002452   000000 011000                    NOP     0

      746    14990    3                 ES$SECLOG.TSLINE.SUBDEVICE,2);
      747    14991    3               CALL KLX$8TO9(KL$SGN.TERMINAL_ID.TERM.SUBSUBDEVICE,

  14991  9 002453   000030 236000 10                 LDQ     24
         9 002454   200444 756100                    STQ     SIZ+196,,AUTO
         9 002455   000061 236000 10                 LDQ     49
         9 002456   200443 756100                    STQ     SIZ+195,,AUTO
         9 002457   200033 236100                    LDQ     RDBF$,,AUTO
         9 002460   000035 036000 10                 ADLQ    29
         9 002461   200442 756100                    STQ     SIZ+194,,AUTO
         9 002462   200442 630500                    EPPR0   SIZ+194,,AUTO
         9 002463   000021 631400 xsym               EPPR1   B_VECTNIL+17
         9 002464   000000 701000 xent               TSX1    KLX$8TO9
         9 002465   000000 011000                    NOP     0
         9 002466   002556 710000 9                  TRA     LOG_IT

      748    14992    3                 ES$SECLOG.TSLINE.SUBSUBDEVICE,2);
      749    14993    3             CASE(%ES_NO_SUCH_USER#);

      750    14994    3               ES$SECLOG.ACCN=ACCT;

  14994  9 002467   040000 100500                    MLR     fill='040'O
PL6.E3A0      #001=KLH$HLP File=KLH$HLP.:E05TSI                                  WED 07/30/97 00:47 Page:114
         9 002470   200003 000010                    ADSC9   ACCT,,AUTO               cn=0,n=8
         9 002471   001162 000010 4                  ADSC9   ES$SECLOG+2              cn=0,n=8

      751    14995    3               IF NAME.C ~= 0 THEN

  14995  9 002472   200005 236100                    LDQ     NAME,,AUTO
         9 002473   777000 316003                    CANQ    -512,DU
         9 002474   002556 600000 9                  TZE     LOG_IT

      752    14996    3                   ES$SECLOG.UNAME = NAME.T;

  14996  9 002475   040000 100500                    MLR     fill='040'O
         9 002476   200005 200014                    ADSC9   NAME,,AUTO               cn=1,n=12
         9 002477   001164 000014 4                  ADSC9   ES$SECLOG+4              cn=0,n=12
         9 002500   002556 710000 9                  TRA     LOG_IT

      753    14997    3             CASE(%ES_BAD_PW#);

      754    14998    3               ES$SECLOG.ACCN=ACCT;

  14998  9 002501   040000 100500                    MLR     fill='040'O
         9 002502   200003 000010                    ADSC9   ACCT,,AUTO               cn=0,n=8
         9 002503   001162 000010 4                  ADSC9   ES$SECLOG+2              cn=0,n=8

      755    14999    3               IF NAME.C ~= 0 THEN

  14999  9 002504   200005 236100                    LDQ     NAME,,AUTO
         9 002505   777000 316003                    CANQ    -512,DU
         9 002506   002512 600000 9                  TZE     s:15001

      756    15000    3                   ES$SECLOG.UNAME = NAME.T;

  15000  9 002507   040000 100500                    MLR     fill='040'O
         9 002510   200005 200014                    ADSC9   NAME,,AUTO               cn=1,n=12
         9 002511   001164 000014 4                  ADSC9   ES$SECLOG+4              cn=0,n=12

      757    15001    3               ES$SECLOG.PASSWORD = SAVE_PW;
PL6.E3A0      #001=KLH$HLP File=KLH$HLP.:E05TSI                                  WED 07/30/97 00:47 Page:115

  15001  9 002512   040000 100500                    MLR     fill='040'O
         9 002513   200013 000010                    ADSC9   SAVE_PW,,AUTO            cn=0,n=8
         9 002514   001167 000010 4                  ADSC9   ES$SECLOG+7              cn=0,n=8

      758    15002    4               DO CASE(KL_HLPR.ATYP);

  15002  9 002515   000000 236000 xsym               LDQ     KL_HLPR
         9 002516   000033 772000                    QRL     27
         9 002517   000004 116007                    CMPQ    4,DL
         9 002520   002522 602006 9                  TNC     s:15002+5,QL
         9 002521   002544 710000 9                  TRA     s:15010
         9 002522   002544 710000 9                  TRA     s:15010
         9 002523   002526 710000 9                  TRA     s:15004
         9 002524   002533 710000 9                  TRA     s:15006
         9 002525   002540 710000 9                  TRA     s:15008

      759    15003    4                 CASE(%KLAT_TS#);

      760    15004    4                   ES$SECLOG.MODE=%M_INT#;

  15004  9 002526   001161 236000 4                  LDQ     ES$SECLOG+1
         9 002527   000056 376000 10                 ANQ     46
         9 002530   140000 276003                    ORQ     49152,DU
         9 002531   001161 756000 4                  STQ     ES$SECLOG+1
         9 002532   002544 710000 9                  TRA     s:15010

      761    15005    4                 CASE(%KLAT_CG#);

      762    15006    4                   ES$SECLOG.MODE=%M_CG#;

  15006  9 002533   001161 236000 4                  LDQ     ES$SECLOG+1
         9 002534   000056 376000 10                 ANQ     46
         9 002535   240000 276003                    ORQ     81920,DU
         9 002536   001161 756000 4                  STQ     ES$SECLOG+1
         9 002537   002544 710000 9                  TRA     s:15010

PL6.E3A0      #001=KLH$HLP File=KLH$HLP.:E05TSI                                  WED 07/30/97 00:47 Page:116
      763    15007    4                 CASE(%KLAT_RES#);

      764    15008    4                   ES$SECLOG.MODE=%M_RES#;

  15008  9 002540   001161 236000 4                  LDQ     ES$SECLOG+1
         9 002541   000056 376000 10                 ANQ     46
         9 002542   300000 276003                    ORQ     98304,DU
         9 002543   001161 756000 4                  STQ     ES$SECLOG+1

      765    15009    4                 END;

      766    15010    3               CALL UPD_USERS(%ES_BAD_PW#) ALTRET(LOG_IT);

  15010  9 002544   000030 236000 10                 LDQ     24
         9 002545   200041 756100                    STQ     @REASON+2,,AUTO
         9 002546   002563 701000 9                  TSX1    UPD_USERS
         9 002547   002556 702000 9                  TSX2    LOG_IT

      767    15011    3               ES$SECLOG.PRIV = AS_USERS.PRIV(AS_M_INT#); /* Online privs        */

  15011  9 002550   000343 236000 4                  LDQ     AS_USERS+151
         9 002551   001174 756000 4                  STQ     ES$SECLOG+12

      768    15012    3               ES$SECLOG.PPRIV = AS_USERS.PPRIV(AS_M_INT#); /* Online pprivs     */

  15012  9 002552   000347 236000 4                  LDQ     AS_USERS+155
         9 002553   001175 756000 4                  STQ     ES$SECLOG+13
         9 002554   002556 710000 9                  TRA     LOG_IT

      769    15013    3             CASE(ELSE);

      770    15014                                                /* Should never happen                */
      771    15015    3               RETURN;

  15015  9 002555   000001 702211                    TSX2  ! 1,X1

      772    15016    3             END;                          /* End Do Case(Reason)                */
PL6.E3A0      #001=KLH$HLP File=KLH$HLP.:E05TSI                                  WED 07/30/97 00:47 Page:117

  15012  9 002556                       LOG_IT       null
      773    15017    2   LOG_IT: ;
      774    15018    2           CALL M$WRSYSLOG(WR_SECLOG);

  15018  9 002556   001242 630400 4                  EPPR0   WR_SECLOG
         9 002557   070001 713400                    CLIMB   28673
         9 002560   400400 401760                    pmme    nvectors=2

      775    15019    2           RETURN;

  15019  9 002561   200036 221300                    LDX1  ! SIZ,,AUTO
         9 002562   000001 702211                    TSX2  ! 1,X1

      776    15020    2   END SECLOG;
      777    15021        %EJECT;
PL6.E3A0      #001=KLH$HLP File=KLH$HLP.:E05TSI                                  WED 07/30/97 00:47 Page:118
      778    15022    1   UPD_USERS: PROC(REASON) ALTRET;

  15022  9 002563   200040 741300       UPD_USERS    STX1  ! @REASON+1,,AUTO

      779    15023        /* Update :USERS record for either good or bad password logons. */
      780    15024    2   DCL REASON UBIN;
      781    15025    2   DCL M$ES_USER DCB;
      782    15026    2   DCL 1 USERS_KEY STATIC ALIGNED,
      783    15027    2         2 COUNT UBIN BYTE UNAL,
      784    15028    2         2 UKEY,
      785    15029    2           3 ACCT CHAR(8) UNAL,
      786    15030    2           3 UNAME CHAR(12) UNAL,
      787    15031    2         2 * CHAR(21) UNAL;
      788    15032        %FPT_OPEN(FPTN=OPEN_USERS,
      789    15033                  DCB=M$ES_USER,
      790    15034                  ASN=FILE,
      791    15035                  ACS=DIRECT,
      792    15036                  FUN=UPDATE,
      793    15037                  SHARE=ALL,
      794    15038                  NAME=USERS_NAME,
      795    15039                  ACCT=USERS_ACCT);
      796    15148        %VLP_NAME(FPTN=USERS_NAME,NAME=':USERS');
      797    15175        %VLP_ACCT(FPTN=USERS_ACCT,ACCT=':SYS');
      798    15188        %FPT_READ(FPTN=READ_USERS,
      799    15189                  DCB=M$ES_USER,
      800    15190                  KEYS=YES,
      801    15191                  KEY=USERS_KEY,
      802    15192                  BUF=AS_USERS);
      803    15231        %FPT_WRITE(FPTN=WRITE_USERS,
      804    15232                  DCB=M$ES_USER,
      805    15233                  KEY=USERS_KEY,
      806    15234                  BUF=AS_USERS);
      807    15265        %FPT_ENQ(FPTN=ENQ_USERS,
      808    15266                  DCB=M$ES_USER,
      809    15267                  RNAME=USERS_KEY,
      810    15268                  SHARE=NONE);
      811    15286        %FPT_DEQ(FPTN=DEQ_USERS,
PL6.E3A0      #001=KLH$HLP File=KLH$HLP.:E05TSI                                  WED 07/30/97 00:47 Page:119
      812    15287                  DCB=M$ES_USER);
      813    15304        %FPT_TRUNC(FPTN=FPT_TRUNC,
      814    15305                  DCB=M$ES_USER);
      815    15319        %FPT_TIME(FPTN=LOGON_TIME,
      816    15320                  DEST=UTS,
      817    15321                  SOURCE=CLOCK,
      818    15322                  TSTAMP=ES_LOGON_TIME);
      819    15341
      820    15342
      821    15343    2           IF NOT DCBADDR(DCBNUM(M$ES_USER))->F$DCB.FCD THEN

  15343  9 002564   000000 236007 xsym               LDQ     M$ES_USER,DL
         9 002565   000051 470400 10                 LDP0    41
         9 002566   000000 471500                    LDP1    0,,PR0
         9 002567   100000 473506                    LDP3    0,QL,PR1
         9 002570   300031 236100                    LDQ     25,,PR3
         9 002571   020000 316007                    CANQ    8192,DL
         9 002572   002577 601000 9                  TNZ     s:15345

      822    15344    2               CALL M$OPEN(OPEN_USERS) ALTRET(ERR);

  15344  9 002573   001266 630400 4                  EPPR0   OPEN_USERS
         9 002574   450000 713400                    CLIMB   alt,open
         9 002575   410400 401760                    pmme    nvectors=18
         9 002576   002665 702000 9                  TSX2    ERR

      823    15345    2           USERS_KEY.COUNT=8+NAME.C;

  15345  9 002577   200005 236100                    LDQ     NAME,,AUTO
         9 002600   000033 772000                    QRL     27
         9 002601   000010 036007                    ADLQ    8,DL
         9 002602   000033 736000                    QLS     27
         9 002603   001252 552040 4                  STBQ    USERS_KEY,'40'O

      824    15346    2           USERS_KEY.UKEY.ACCT=ACCT;

  15346  9 002604   040000 100500                    MLR     fill='040'O
PL6.E3A0      #001=KLH$HLP File=KLH$HLP.:E05TSI                                  WED 07/30/97 00:47 Page:120
         9 002605   200003 000010                    ADSC9   ACCT,,AUTO               cn=0,n=8
         9 002606   001252 200010 4                  ADSC9   USERS_KEY                cn=1,n=8

      825    15347    2           IF NAME.C ~= 0 THEN

  15347  9 002607   200005 236100                    LDQ     NAME,,AUTO
         9 002610   777000 316003                    CANQ    -512,DU
         9 002611   002615 600000 9                  TZE     s:15349

      826    15348    2               USERS_KEY.UKEY.UNAME=NAME.T;

  15348  9 002612   040000 100500                    MLR     fill='040'O
         9 002613   200005 200014                    ADSC9   NAME,,AUTO               cn=1,n=12
         9 002614   001254 200014 4                  ADSC9   USERS_KEY+2              cn=1,n=12

      827    15349    2           CALL M$ENQ(ENQ_USERS) ALTRET(ERR);

  15349  9 002615   001416 630400 4                  EPPR0   ENQ_USERS
         9 002616   420002 713400                    CLIMB   alt,+8194
         9 002617   401000 401760                    pmme    nvectors=3
         9 002620   002665 702000 9                  TSX2    ERR

      828    15350    3           CALL M$READ(READ_USERS) WHENALTRETURN DO;

  15350  9 002621   001364 630400 4                  EPPR0   READ_USERS
         9 002622   440000 713400                    CLIMB   alt,read
         9 002623   401400 401760                    pmme    nvectors=4
         9 002624   002626 702000 9                  TSX2    s:15351
         9 002625   002632 710000 9                  TRA     s:15360

      829    15351    3               CALL M$DEQ(DEQ_USERS);

  15351  9 002626   001430 630400 4                  EPPR0   DEQ_USERS
         9 002627   020003 713400                    CLIMB   8195
         9 002630   401000 401760                    pmme    nvectors=3

      830    15352    3               GOTO ERR;
PL6.E3A0      #001=KLH$HLP File=KLH$HLP.:E05TSI                                  WED 07/30/97 00:47 Page:121

  15352  9 002631   002665 710000 9                  TRA     ERR

      831    15353    3               END;
      832    15354                                                /*
      833    15355                                                  Only timesharing users should make it
      834    15356                                                  to this point.  All others should have
      835    15357                                                  transferred to ERR after the READ
      836    15358                                                  ALTRETURN.
      837    15359                                                */
      838    15360    2           IF REASON=%ES_LOG_ALL# THEN

  15360  9 002632   200041 470500                    LDP0    @REASON,,AUTO
         9 002633   000000 235100                    LDA     0,,PR0
         9 002634   000001 115007                    CMPA    1,DL
         9 002635   002642 601000 9                  TNZ     s:15362

      839    15361    2               CALL M$TIME(LOGON_TIME);

  15361  9 002636   001444 630400 4                  EPPR0   LOGON_TIME
         9 002637   020004 713400                    CLIMB   8196
         9 002640   402000 401760                    pmme    nvectors=5
         9 002641   002652 710000 9                  TRA     s:15367

      840    15362    3             ELSE IF REASON=%ES_BAD_PW# THEN DO;

  15362  9 002642   000002 115007                    CMPA    2,DL
         9 002643   002652 601000 9                  TNZ     s:15367

      841    15363    3                   AS_USERS.BAD_LOGON_CNT=AS_USERS.BAD_LOGON_CNT+1;

  15363  9 002644   001077 220000 4                  LDX0    AS_USERS+499
         9 002645   000001 621010                    EAX1    1,X0
         9 002646   001077 741000 4                  STX1    AS_USERS+499

      842    15364    3                   AS_USERS.LOGINS.BAD_LOGON_CNT(%M_INT#-1)=

PL6.E3A0      #001=KLH$HLP File=KLH$HLP.:E05TSI                                  WED 07/30/97 00:47 Page:122
  15364  9 002647   001105 235000 4                  LDA     AS_USERS+505
         9 002650   000001 035007                    ADLA    1,DL
         9 002651   001105 755000 4                  STA     AS_USERS+505

      843    15365    3                     AS_USERS.LOGINS.BAD_LOGON_CNT(%M_INT#-1)+1;
      844    15366    3                   END;

      845    15367    2           CALL M$WRITE(WRITE_USERS);

  15367  9 002652   001402 630400 4                  EPPR0   WRITE_USERS
         9 002653   040001 713400                    CLIMB   write
         9 002654   401400 401760                    pmme    nvectors=4

      846    15368    2           CALL M$TRUNC(FPT_TRUNC);

  15368  9 002655   001440 630400 4                  EPPR0   FPT_TRUNC
         9 002656   050003 713400                    CLIMB   20483
         9 002657   400000 401760                    pmme    nvectors=1

      847    15369    2           CALL M$DEQ(DEQ_USERS);

  15369  9 002660   001430 630400 4                  EPPR0   DEQ_USERS
         9 002661   020003 713400                    CLIMB   8195
         9 002662   401000 401760                    pmme    nvectors=3

      848    15370    2           RETURN;

  15370  9 002663   200040 221300                    LDX1  ! @REASON+1,,AUTO
         9 002664   000001 702211                    TSX2  ! 1,X1

  15365  9 002665                       ERR          null
      849    15371    2   ERR:    ;
      850    15372    2           ALTRETURN;

  15372  9 002665   200040 221300                    LDX1  ! @REASON+1,,AUTO
         9 002666   000000 702211                    TSX2  ! 0,X1
      851    15373
PL6.E3A0      #001=KLH$HLP File=KLH$HLP.:E05TSI                                  WED 07/30/97 00:47 Page:123
      852    15374    2   END UPD_USERS;
      853    15375    1   END KLH$HLP;
      854    15376        %EOD;

PL6.E3A0      #001=KLH$HLP File=KLH$HLP.:E05TSI                                  WED 07/30/97 00:47 Page:124
--  Include file information  --

   AS_SUBS_C.:E05TOU  is referenced.
   B$JIT.:E05TOU  cannot be made into a system file and is referenced.
   ES_TABLES_M.:E05TOU  is referenced.
   OC_MESSHD_C.:E05TOU  is referenced.
   KL_CONFIG_M.:E05TOU  is referenced.
   KL_SUPER_C.:E05TOU  is referenced.
   KL_SUBS_C.:E05TOU  is referenced.
   KL_NETWORK_M.:E05TOU  is referenced.
   OC$MESSHD_C.:E05TOU  is referenced.
   KL_DATA_R.:E05TOU  cannot be made into a system file and is referenced.
   KL_ERRORS_C.:E05TOU  is referenced.
   KL_MACRO_C.:E05TOU  is referenced.
   KL_AFCN_C.:E05TOU  is referenced.
   KC$CGBLK.:E05TOU  is referenced.
   JC_DATA_R.:E05TOU  cannot be made into a system file and is referenced.
   JC_MACRO_C.:E05TOU  is referenced.
   F_ERRORS_C.:E05TOU  is referenced.
   F$DCB.:E05TOU  cannot be made into a system file and is referenced.
   AS_SUPER_C.:E05TOU  is referenced.
   PC_SUBS_C.:E05TOU  is referenced.
   B$TABLES_C.:E05TOU  cannot be made into a system file and is referenced.
   B_SEGIDS_C.:E05TOU  is referenced.
   ES_SUBS_E.:E05TOU  is referenced.
   EL_SUBS_C.:E05TOU  is referenced.
   CP_6.:E05TOU  cannot be made into a system file and is referenced.
   B$JIT_C.:E05TOU  was found in the system file and is referenced.
   CP_6_C.:E05TOU  was found in the system file and is referenced.
      No diagnostics issued in procedure KLH$HLP.
PL6.E3A0      #001=KLH$HLP File=KLH$HLP.:E05TSI                                  WED 07/30/97 00:47 Page:125

 **** Variables and constants ****

  ****  Section 004  Data  KLH$HLP

  ****  Scalars and arrays  ****
OctLoc.c.b A Datatyp(siz) R M Lvl/name                 OctLoc.c.b A Datatyp(siz) R M Lvl/name

   114-0-0/w STRC(18576) r     1 AS_USERS                  62-0-0/w PTR         r     1 CNFG$
     0-0-0/w UBIN        r     1 CNFG_BUF(0:49)
    63-0-0/c STRC(171)   r     1 CONFIG_KEY                70-0-0/w STRC(99)    r     1 DEFAULT_KEY
  1430-0-0/d STRC(288)   r     1 DEQ_USERS               1416-0-0/d STRC(360)   r     1 ENQ_USERS
   112-0-0/w PTR         r     1 ES$                     1160-0-0/w STRC(1764)  r     1 ES$SECLOG
   113-0-0/w UBIN        r     1 ES_LOGON_TIME           1120-0-0/d STRC(432)   r     1 FPT_PROWT
  1440-0-0/d STRC(144)   r     1 FPT_TRUNC               1444-0-0/d STRC(432)   r     1 LOGON_TIME
  1266-0-0/d STRC(2088)  r     1 OPEN_USERS              1150-0-0/w STRC(288)   r     1 PROWT_STA
    74-0-0/d STRC(504)   r     1 READ_NETCON             1364-0-0/d STRC(504)   r     1 READ_USERS
  1362-0-0/c STRC(72)    r     1 USERS_ACCT              1252-0-0/w STRC(378)   r     1 USERS_KEY
  1360-0-0/c STRC(63)    r     1 USERS_NAME              1402-0-0/d STRC(432)   r     1 WRITE_USERS
  1134-0-0/d STRC(432)   r     1 WRTAUTOFAIL             1242-0-0/d STRC(288)   r     1 WR_SECLOG

  ****  Section 005 RoData KLH$HLP

  ****  Scalars and arrays  ****
OctLoc.c.b A Datatyp(siz) R M Lvl/name                 OctLoc.c.b A Datatyp(siz) R M Lvl/name

    24-0-0/c STRC(720)   r     1 DEFPRO                     0-0-0/w STRC(720)   r     1 FRGPRO
    50-0-0/w STRC(1008)  r     1 SLUGHLP

  ****  Auto variables  ****

  ****  Scalars and arrays  ****
OctLoc.c.b A Datatyp(siz) R M Lvl/name                 OctLoc.c.b A Datatyp(siz) R M Lvl/name

    35-0-0/w PTR         r     1 @ERR                      35-0-0/w PTR         r     1 @ERR
    37-0-0/w PTR         r     1 @REASON                   41-0-0/w PTR         r     1 @REASON
     3-0-0/c STRC(72)    r     1 ACCR                       3-0-0/c CHAR(8)     r     1 ACCT
    *0-0-0/w UBIN        r     1 ERR                       *0-0-0/w UBIN        r     1 ERR
PL6.E3A0      #001=KLH$HLP File=KLH$HLP.:E05TSI                                  WED 07/30/97 00:47 Page:126
    23-0-0/w UBIN        r     1 FEX                       24-0-0/w UBIN        r     1 HLPER
    20-0-0/c CHAR(8)     r     1 HOST                      36-0-0/w UBIN        r     1 IMP#
    37-0-0/w STRC(1008)  r     1 KL_SGNRSP                 36-0-0/w STRC(2358)  r     1 KL_WRITE
     5-0-0/w STRC(117)   r     1 NAME                      22-0-0/b STRC(9)     r     1 NMID(0:3)
    26-0-0/w UBIN        r     1 NODETYPE                  30-0-0/w BIT         r     1 NOHEADER
    27-0-0/w BIT         r     1 NOSETUP                   32-0-0/w PTR         r     1 P$
    31-0-0/w PTR         r     1 PCD$                      37-0-0/w STRC(9288)  r     1 PRFRSP
    15-0-0/w STRC(108)   r     1 PRO                       24-0-0/w UBIN        r     1 PSIZ
    11-0-0/c CHAR(8)     r     1 PW                        33-0-0/w PTR         r     1 RDBF$
    *0-0-0/w UBIN        r     1 REASON                    *0-0-0/w UBIN        r     1 REASON
    13-0-0/c CHAR(8)     r     1 SAVE_PW                  140-0-0/w UBIN        r     1 SIZ
    36-0-0/w UBIN        r     1 SIZ                       35-0-0/w SBIN        r     1 SIZE
    25-0-0/b BIT         r     1 SNDPRO

  ****  SYMREF variables  ****

  ****  Scalars and arrays  ****
OctLoc.c.b A Datatyp(siz) R M Lvl/name                 OctLoc.c.b A Datatyp(siz) R M Lvl/name

     0-0-0/w PTR         r     1 B$JIT$                     0-0-0/w PTR         r     1 B$TCB$
     0-0-0/w PTR         r     1 B$XL_UPPER_UR$             0-0-0/w UBIN        r     1 ES_LOGSYSACC
     0-0-0/w STRC(405)   r     1 KL_AUTOFAIL                0-0-0/w UBIN        r     1 KL_DESTNODE
     0-0-0/w STRC        r     1 KL_FETBL(0:0)
     0-0-0/w UBIN        r     1 KL_HLPFILS                 0-0-0/d STRC(189)   r     1 KL_HLPKEY
     0-0-0/w STRC(2160)  r     1 KL_HLPR                    0-0-0/w UBIN        r     1 KL_NODE
     0-0-0/c CHAR(8)     r     1 KL_NODENAME                0-0-0/w STRC(2448)  r     1 KL_PCD
     0-0-0/w STRC(720)   r     1 KL_PROBUF                  0-0-0/d STRC(117)   r     1 KL_PROKEY
     0-0-0/w STRC(1260)  r     1 KL_RDBF                    0-0-0/d STRC(504)   r     1 KL_RDHLPR
     0-0-0/d STRC(504)   r     1 KL_RDPROR                  0-0-0/c CHAR(8)     r     1 KL_STATION

  ****  BASED and DCB variables  ****

  ****  Scalars and arrays  ****
OctLoc.c.b A Datatyp(siz) R M Lvl/name                 OctLoc.c.b A Datatyp(siz) R M Lvl/name

     0-0-0/c ASTR(9)     r     1 ACHAR                      0-0-0/w STRC(2448)  r     1 B$ALT
     0-0-0/w STRC(144)   r     1 B$TCB                      0-0-0/d STRC(4608)  r     1 B$XL_UPPER_UR
PL6.E3A0      #001=KLH$HLP File=KLH$HLP.:E05TSI                                  WED 07/30/97 00:47 Page:127
     0-0-0/c ACHR        r     1 CHR$SIZE                   0-0-0/d ASTR(3528)  r     1 F$DCB
     0-0-0/w STRC(729)   r     1 HLPR_RES                   0-0-0/w STRC(2484)  r     1 KL$HSGN
     0-0-0/c STRC(900)   r     1 KL$PCD_TS                  0-0-0/w STRC(288)   r     1 KL$RQSPROFILE
     0-0-0/w ASTR(270)   r     1 KL$SGN                     0-0-0/w STRC(1287)  r     1 LINCNFG
     0-0-0/w UBIN        r     1 LOGSYSACC                  0-0-0N  NULL        r     1 M$CSCG
     0-0-0N  NULL        r     1 M$ES_USER                  0-0-0N  NULL        r     1 M$HLP
     0-0-0N  NULL        r     1 M$NETCON                   0-0-0N  NULL        r     1 M$PROF
     0-0-0/w STRC(720)   r     1 PROH


   Procedure KLH$HLP requires 1463 words for executable code.
   Procedure KLH$HLP requires 300 words of local(AUTO) storage.
PL6.E3A0      #001=KLH$HLP File=KLH$HLP.:E05TSI                                  WED 07/30/97 00:47 Page:128
          *** CROSS REFERENCE LISTING ***
**     DENOTES     IDENTIFIER DEFINITION
<<                 IDENTIFIER'S VALUE SET
>>                 IDENTIFIER'S VALUE USED
<>                 IDENTIFIER SET AND/OR USED
--                 IDENTIFIER REFERENCED
PL6.E3A0      #001=KLH$HLP File=KLH$HLP.:E05TSI                                  WED 07/30/97 00:47 Page:129
          MINI XREF LISTING

ACCR.C1
     11388**DCL     11910>>IF
ACCT
     11383**DCL     11384--REDEF   11387--REDEF   11867<>CALL    11950>>ASSIGN  11962>>ASSIGN  11981>>ASSIGN
     11998>>ASSIGN  12027>>ASSIGN  12043>>ASSIGN  12099>>ASSIGN  14968>>ASSIGN  14994>>ASSIGN  14998>>ASSIGN
     15346>>ASSIGN
ACHAR.CNT
     11596**DCL     11597--IMP-SIZ 12156>>ASSIGN  12157>>CALLBLT
ACHAR.TXT
     11597**DCL     12157>>CALLBLT
ASZ$SCRAMBLE
     11766**DCL-ENT 12104--CALL
AS_USERS
     11428**DCL     15211--DCLINIT 15212--DCLINIT 15252--DCLINIT 15253--DCLINIT
AS_USERS.BAD_LOGON_CNT
     11570**DCL     15363<<ASSIGN  15363>>ASSIGN
AS_USERS.BANNER_PERM
     11543**DCL     11544--REDEF
AS_USERS.BUDGET.MACCT
     11448**DCL     11452--REDEF
AS_USERS.BUDGET.MAX_PROJECTS
     11461**DCL     11464--REDEF
AS_USERS.BUDGET.PACCUM
     11444**DCL     11446--REDEF
AS_USERS.BUDGET.PMAXC
     11439**DCL     11441--REDEF
AS_USERS.LOGINS.BAD_LOGON_CNT
     11578**DCL     15364<<ASSIGN  15364>>ASSIGN
AS_USERS.PPRIV
     11507**DCL     15012>>ASSIGN
AS_USERS.PRIV
     11506**DCL     15011>>ASSIGN
PL6.E3A0      #001=KLH$HLP File=KLH$HLP.:E05TSI                                  WED 07/30/97 00:47 Page:130
AS_USERS.SETUP_CHRA.TXT
     11559**DCL     11560--REDEF   11561--REDEF
B$ALT.CODE
      9868**DCL      9868--REDEF    9869--REDEF    9869--REDEF
B$ALT.ERR.CODE
      9870**DCL     12115>>IF
B$ALT.ERR.ERR#
      9870**DCL      9870--REDEF
B$ALT.EVID
      9869**DCL      9869--REDEF    9869--REDEF
B$JIT.CPFLAGS1.SLEAZE IN PROCEDURE SECLOG
     13326**DCL     13326--REDEF
B$JIT.ERR.MID IN PROCEDURE SECLOG
     13233**DCL     13233--REDEF
B$JIT.JRESPEAK IN PROCEDURE SECLOG
     13394**DCL     13395--REDEF
B$JIT.ORIGINATOR_PORT.FROM_CR IN PROCEDURE SECLOG
     13503**DCL     13503--REDEF   13504--REDEF
B$JIT.PNR IN PROCEDURE SECLOG
     13407**DCL     13407--REDEF
B$JIT.TSLINE IN PROCEDURE SECLOG
     13501**DCL     13502--REDEF
B$JIT$ IN PROCEDURE SECLOG
     13512**DCL     13227--IMP-PTR
B$TCB.ALT$
      9864**DCL     12115>>IF
B$TCB$
     11598**DCL     12115>>IF
B$XL_UPPER_UR
       875**DCL     12157>>CALLBLT
B$XL_UPPER_UR$
       874**DCL       875--IMP-PTR 12157>>CALLBLT
BPRO
     12061**LABEL   11923--GOTO    11972--CALLALT
BPROT
     12065**LABEL   11985--GOTO    11997--GOTO
PL6.E3A0      #001=KLH$HLP File=KLH$HLP.:E05TSI                                  WED 07/30/97 00:47 Page:131
CHR$SIZE IN PROCEDURE SETPRO
     12190**DCL     12254>>ASSIGN  12272>>ASSIGN
CNFG$
      9877**DCL      9896--IMP-PTR 11816>>ASSIGN  11863>>ASSIGN  11864>>ASSIGN  11937>>ASSIGN
CNFG_BUF
      9876**DCL      9877--DCLINIT 11814--ASSIGN  11851--ASSIGN
CONFIG_KEY
     10049**DCL     11811--ASSIGN  11852--ASSIGN
CONFIG_KEY.NODE
     10052**DCL     11803<<ASSIGN  11809<<ASSIGN  11843<<ASSIGN  11848<<ASSIGN
CONFIG_KEY.TERMID
     10069**DCL     11804<<ASSIGN  11844<<ASSIGN
CONFIG_KEY.TERMID.TERM
     10071**DCL     10080--REDEF
CONFIG_KEY.TERMID.TERM.CHANNEL
     10073**DCL     11808<<ASSIGN  11847<<ASSIGN
CONFIG_KEY.TERMID.TERM.TERM_NAME
     10080**DCL     11806>>IF      11845>>IF
CONFIG_KEY.TERMID.TTYP
     10071**DCL     11805<<ASSIGN  11850<<ASSIGN
DEFAULT_KEY
     10096**DCL     11799--ASSIGN
DEFAULT_KEY.HNDLR
     10100**DCL     11798<<ASSIGN
DEFAULT_KEY.NODE
     10099**DCL     11797<<ASSIGN
DEFPRO
     10836**DCL     12160>>ASSIGN
DEQ_USERS IN PROCEDURE UPD_USERS
     15298**DCL     15351<>CALL    15369<>CALL
DEQ_USERS.V IN PROCEDURE UPD_USERS
     15299**DCL     15298--DCLINIT
ENQ_USERS IN PROCEDURE UPD_USERS
     15279**DCL     15349<>CALL
ENQ_USERS.V IN PROCEDURE UPD_USERS
     15280**DCL     15279--DCLINIT
PL6.E3A0      #001=KLH$HLP File=KLH$HLP.:E05TSI                                  WED 07/30/97 00:47 Page:132
ERR IN PROCEDURE SNDMSG
     12291**DCL     12290--PROC    12337<>CALL
ERR IN PROCEDURE SNDRJ
     12356**DCL     12354--PROC    12497<>CALL
ERR IN PROCEDURE UPD_USERS
     15365**LABEL   15344--CALLALT 15349--CALLALT 15352--GOTO
ES$
     11412**DCL     11783<>CALL    11868>>IF      12013>>IF      12053>>IF      12108>>IF      12118>>IF
ES$SECLOG IN PROCEDURE SECLOG
     12955**DCL     13528--DCLINIT 13530--DCLINIT
ES$SECLOG.ACCN IN PROCEDURE SECLOG
     12988**DCL     14950<<ASSIGN  14968<<ASSIGN  14994<<ASSIGN  14998<<ASSIGN
ES$SECLOG.FACCN IN PROCEDURE SECLOG
     12996**DCL     13000--REDEF
ES$SECLOG.FILE IN PROCEDURE SECLOG
     13156**DCL     13187--REDEF
ES$SECLOG.GRANTED IN PROCEDURE SECLOG
     12962**DCL     14948<<ASSIGN  14967<<ASSIGN
ES$SECLOG.LOGON IN PROCEDURE SECLOG
     13045**DCL     13057--REDEF
ES$SECLOG.LOGON.C IN PROCEDURE SECLOG
     13054**DCL     14956<<ASSIGN  14982--IF      14983--ASSIGN  14984<<ASSIGN
ES$SECLOG.LOGON.L IN PROCEDURE SECLOG
     13051**DCL     14955<<ASSIGN  14981<<ASSIGN  14982>>IF      14983<<ASSIGN
ES$SECLOG.MODE IN PROCEDURE SECLOG
     12966**DCL     14949<<ASSIGN  14973<<ASSIGN  14975<<ASSIGN  14977<<ASSIGN  15004<<ASSIGN  15006<<ASSIGN
     15008<<ASSIGN
ES$SECLOG.PASSWORD IN PROCEDURE SECLOG
     13000**DCL     14952<<ASSIGN  15001<<ASSIGN
ES$SECLOG.PPRIV IN PROCEDURE SECLOG
     13031**DCL     14954<<ASSIGN  15012<<ASSIGN
ES$SECLOG.PRIV IN PROCEDURE SECLOG
     13024**DCL     14953<<ASSIGN  15011<<ASSIGN
ES$SECLOG.REASON IN PROCEDURE SECLOG
     12957**DCL     14947<<ASSIGN
ES$SECLOG.TSLINE.FEX IN PROCEDURE SECLOG
PL6.E3A0      #001=KLH$HLP File=KLH$HLP.:E05TSI                                  WED 07/30/97 00:47 Page:133
     13097**DCL     14958<<ASSIGN  14985<<ASSIGN
ES$SECLOG.TSLINE.LEV IN PROCEDURE SECLOG
     13103**DCL     14960<<ASSIGN  14986<<ASSIGN
ES$SECLOG.TSLINE.PORT IN PROCEDURE SECLOG
     13100**DCL     14959<<ASSIGN  14987<>CALL
ES$SECLOG.TSLINE.SUBDEVICE IN PROCEDURE SECLOG
     13106**DCL     14961<<ASSIGN  14989<>CALL
ES$SECLOG.TSLINE.SUBSUBDEVICE IN PROCEDURE SECLOG
     13109**DCL     14962<<ASSIGN  14991<>CALL
ES$SECLOG.UNAME IN PROCEDURE SECLOG
     12992**DCL     14951<<ASSIGN  14970<<ASSIGN  14996<<ASSIGN  15000<<ASSIGN
ES_LOGON_TIME
     11414**DCL     11784<<ASSIGN  15337--DCLINIT
ES_LOGSYSACC
     11411**DCL     11412--DCLINIT
F$DCB.ACTPOS
      1670**DCL      1670--REDEF
F$DCB.ARS
      1645**DCL      1645--REDEF   12168>>ASSIGN  12271>>ASSIGN
F$DCB.ATTR
      1663**DCL      1664--REDEF
F$DCB.BORROW
      1678**DCL      1678--REDEF    1678--REDEF    1678--REDEF
F$DCB.DCBNAME.L
      1692**DCL      1692--IMP-SIZ
F$DCB.EOMCHAR
      1649**DCL      1649--REDEF
F$DCB.FCD
      1658**DCL     15343>>IF
F$DCB.FLDID
      1673**DCL      1673--REDEF
F$DCB.FORM$
      1667**DCL      1667--REDEF
F$DCB.FSECT
      1683**DCL      1683--REDEF
F$DCB.FSN
PL6.E3A0      #001=KLH$HLP File=KLH$HLP.:E05TSI                                  WED 07/30/97 00:47 Page:134
      1660**DCL      1660--REDEF    1660--REDEF    1661--REDEF
F$DCB.HEADER$
      1666**DCL      1666--REDEF
F$DCB.IXTNSIZE
      1664**DCL      1664--REDEF
F$DCB.LASTSTA$
      1654**DCL      1654--REDEF
F$DCB.LVL
      1679**DCL      1679--REDEF
F$DCB.NAME.C
      1654**DCL      1654--REDEF
F$DCB.NOEOF
      1675**DCL      1675--REDEF
F$DCB.NRECS
      1665**DCL      1665--REDEF
F$DCB.NRECX
      1684**DCL      1684--REDEF
F$DCB.OHDR
      1676**DCL      1676--REDEF
F$DCB.ORG
      1659**DCL      1659--REDEF
F$DCB.PRECNO
      1682**DCL      1682--REDEF
F$DCB.RCSZ
      1687**DCL      1687--REDEF
F$DCB.RES
      1655**DCL      1655--REDEF
F$DCB.SETX
      1667**DCL      1667--REDEF
F$DCB.TAB$
      1666**DCL      1667--REDEF
F$DCB.TDA
      1681**DCL      1681--REDEF
F$DCB.WSN
      1656**DCL      1656--REDEF
FEX
PL6.E3A0      #001=KLH$HLP File=KLH$HLP.:E05TSI                                  WED 07/30/97 00:47 Page:135
     11402**DCL     11796<<CALLBLT 11797>>ASSIGN  11802<<CALLBLT 11803>>ASSIGN  11842<<CALLBLT 11843>>ASSIGN
     11902<<ASSIGN  11903<>CALL    12078<>CALL
FPT_PROWT.STATION_
     11696**DCL     11696--REDEF
FPT_PROWT.V
     11697**DCL     11694--DCLINIT
FPT_PROWT.V.DVBYTE.VFC#
     11703**DCL     11703--REDEF
FPT_TRUNC IN PROCEDURE UPD_USERS
     15316**DCL     15368<>CALL
FPT_TRUNC.V IN PROCEDURE UPD_USERS
     15316**DCL     15316--DCLINIT
FRGPRO
     10794**DCL     11979>>ASSIGN
GETHLP
     12083**PROC    11918--CALL    11952--CALL    11968--CALL
GETPRO
     12125**PROC    11817--CALL    11941--CALL    11958--CALL    11972--CALL
HLPER
     11404**DCL     11841<<ASSIGN  11867<>CALL    11881<<ASSIGN  11886<<ASSIGN  11891<<ASSIGN  11914<<ASSIGN
     11925<<ASSIGN  11926<<ASSIGN  11927<>CALL    11944<<ASSIGN  12010<>CALL    12050<>CALL    12062<<ASSIGN
     12063<<ASSIGN  12065<<ASSIGN  12067<>CALL    12077>>ASSIGN  12116<<ASSIGN  12120<<ASSIGN  12498>>IF
HLPR_RES.PASSWORD
     10638**DCL     10642--REDEF
HLPR_RES.RENAME
     10661**DCL     10662--REDEF
HLPR_RES.RES.ATTR
     10714**DCL     12038>>ASSIGN
HLPR_RES.RES.AUACCOUNT
     10738**DCL     12035>>ASSIGN
HLPR_RES.RES.MODE
     10711**DCL     12037>>ASSIGN
HLPR_RES.RES.RNAME
     10735**DCL     12039>>ASSIGN
HOST
     11398**DCL     11867<>CALL    11872>>IF      11874<<ASSIGN  11877>>IF      11879<>CALL
PL6.E3A0      #001=KLH$HLP File=KLH$HLP.:E05TSI                                  WED 07/30/97 00:47 Page:136
ILGL
     12067**LABEL   11859--GOTO    11870--GOTO    11882--GOTO    11887--GOTO    11892--GOTO    11918--CALLALT
     11921--GOTO    11952--CALLALT 11955--GOTO    11968--CALLALT 11971--GOTO    11983--GOTO    12010--CALLALT
     12050--CALLALT 12058--GOTO
ILGL IN PROCEDURE GETHLP
     12120**LABEL   12112--GOTO
IMP# IN PROCEDURE SETPRO
     12189**DCL     12257<<ASSIGN  12258>>IF      12268>>DOINDEX 12275>>IF
JMU$SETSEG
     11780**DCL-ENT 11783--CALL
KL$HSGN.PCD
     11174**DCL     11788<>CALL
KL$HSGN.PCD.ADDD.CINFO
     11222**DCL     11226--REDEF
KL$HSGN.PCD.ADDD.DEVNM
     11215**DCL     11216--REDEF
KL$HSGN.PCD.ADDD.NMID
     11229**DCL     11230--REDEF
KL$HSGN.PCD.CGINFO.ATTR
     11281**DCL     11281--REDEF
KL$HSGN.PCD.CGINFO.XTRAINFO
     11284**DCL     11286--REDEF
KL$PCD_TS.ADDD.CINFO
     10373**DCL     10377--REDEF
KL$PCD_TS.ADDD.DEVNM
     10366**DCL     10367--REDEF   12007<<ASSIGN
KL$PCD_TS.ADDD.NMID
     10380**DCL     10381--REDEF
KL$PCD_TS.TSINFO.ACCT
     10416**DCL     11998<<ASSIGN
KL$PCD_TS.TSINFO.ATTR
     10424**DCL     12004<<ASSIGN
KL$PCD_TS.TSINFO.HPSN
     10417**DCL     12000<<ASSIGN
KL$PCD_TS.TSINFO.LINES
     10422**DCL     12002<<ASSIGN
PL6.E3A0      #001=KLH$HLP File=KLH$HLP.:E05TSI                                  WED 07/30/97 00:47 Page:137
KL$PCD_TS.TSINFO.NOHEADER
     10419**DCL     12006<<ASSIGN
KL$PCD_TS.TSINFO.NOSETUP
     10418**DCL     12005<<ASSIGN
KL$PCD_TS.TSINFO.UNAME
     10415**DCL     11999<<ASSIGN
KL$PCD_TS.TSINFO.WIDTH
     10423**DCL     12003<<ASSIGN
KL$PCD_TS.TSINFO.WOO
     10421**DCL     12001<<ASSIGN
KL$RQSPROFILE.HANDLER
     11379**DCL     11795>>IF      11798>>ASSIGN
KL$RQSPROFILE.NMID
     11373**DCL     11794>>ASSIGN
KL$RQSPROFILE.TERMID
     11359**DCL     11804>>ASSIGN
KL$RQSPROFILE.TERMID.TERM
     11361**DCL     11370--REDEF
KL$SGN
     11059**DCL     11896<>CALL    11896--CALL
KL$SGN.AUTOLGN
     11100**DCL     11838>>IF      11861>>IF      11895<<ASSIGN  12070>>IF
KL$SGN.LOGON
     11133**DCL     11867<>CALL
KL$SGN.LOGON.LGNSIZ
     11134**DCL     11135--IMP-SIZ 11863<<ASSIGN  11864>>ASSIGN  11867>>CALL    11896>>CALL    11896>>CALL
     14981>>ASSIGN  14984>>ASSIGN
KL$SGN.LOGON.LGNTXT
     11135**DCL     11864<<ASSIGN  14984>>ASSIGN
KL$SGN.NMID
     11118**DCL     11121--REDEF   11825>>ASSIGN  11904>>ASSIGN  12496>>ASSIGN
KL$SGN.NODE
     11063**DCL     11894<<ASSIGN  11901>>ASSIGN  11902>>ASSIGN  12072>>ASSIGN  14985>>ASSIGN
KL$SGN.PROFILE
     11104**DCL     11838>>IF      11855>>IF      11857<<ASSIGN  11934>>IF
KL$SGN.SPEED
PL6.E3A0      #001=KLH$HLP File=KLH$HLP.:E05TSI                                  WED 07/30/97 00:47 Page:138
     11129**DCL     11905>>ASSIGN
KL$SGN.TERMINAL_ID
     11084**DCL     11844>>ASSIGN
KL$SGN.TERMINAL_ID.LEV
     11086**DCL     11906>>ASSIGN  12073>>ASSIGN  14986>>ASSIGN
KL$SGN.TERMINAL_ID.TERM
     11086**DCL     11095--REDEF
KL$SGN.TERMINAL_ID.TERM.CHANNEL
     11088**DCL     11907<>CALL    12074<>CALL    14987<>CALL
KL$SGN.TERMINAL_ID.TERM.SUBDEVICE
     11088**DCL     11908<>CALL    12075<>CALL    14989<>CALL
KL$SGN.TERMINAL_ID.TERM.SUBSUBDEVICE
     11089**DCL     11909<>CALL    12076<>CALL    14991<>CALL
KL$SGN.TERMINAL_ID.TTYP
     11086**DCL     11831>>IF      11916>>DOCASE  11942>>IF      11985>>IF      12162>>ASSIGN
KLH$ERRMSG
     11768**DCL-ENT 12337--CALL
KLH$HSGN
     11767**DCL-ENT 11788--CALL
KLH$OPFILS
     11769**DCL-ENT 11833--CALL
KLH$SGNRSP
     11771**DCL-ENT 11791--CALL
KLH$SGNTXT
     11772**DCL-ENT 12497--CALL
KLH$SGSCAN
     11770**DCL-ENT 11867--CALL
KLH$SNDHSGN
     11778**DCL-ENT 12010--CALL    12050--CALL
KLX$8TO9
     11775**DCL-ENT 11907--CALL    11908--CALL    11909--CALL    12074--CALL    12075--CALL    12076--CALL
     14987--CALL    14989--CALL    14991--CALL
KLX$CONV_NODE
     11776**DCL-ENT 11903--CALL    12078--CALL
KLX$CONV_NODENAME
     11777**DCL-ENT 11879--CALL
PL6.E3A0      #001=KLH$HLP File=KLH$HLP.:E05TSI                                  WED 07/30/97 00:47 Page:139
KLX$WRHLPSTA
     11779**DCL-ENT 11896--CALL    12263--CALL    12279--CALL    12340--CALL    12502--CALL
KL_AUTOFAIL
      5925**DCL     11726--DCLINIT 11727--DCLINIT
KL_AUTOFAIL.CHAN
      5949**DCL     12074<>CALL
KL_AUTOFAIL.FEPNAME
      5946**DCL     12078<>CALL
KL_AUTOFAIL.FEX
      5945**DCL     12072<<ASSIGN
KL_AUTOFAIL.FLAGS
      5932**DCL      5933--REDEF
KL_AUTOFAIL.LEVEL
      5948**DCL     12073<<ASSIGN
KL_AUTOFAIL.MSGID
      5928**DCL      5929--REDEF
KL_AUTOFAIL.REASON
      5947**DCL     12077<<ASSIGN
KL_AUTOFAIL.SUBDEV
      5950**DCL     12075<>CALL
KL_AUTOFAIL.SUBSUBDEV
      5951**DCL     12076<>CALL
KL_AUTOFAIL.WSN
      5935**DCL      5936--REDEF
KL_DESTNODE
      5866**DCL     11879<>CALL    11889>>IF      11894>>ASSIGN  11899<<ASSIGN  12499>>ASSIGN
KL_FEMSG.FLAGS
      5882**DCL      5883--REDEF
KL_FEMSG.MSGID
      5878**DCL      5879--REDEF
KL_FEMSG.WSN
      5885**DCL      5886--REDEF
KL_FETBL.QOS
      5829**DCL     11889>>IF
KL_HLPFILS
      5831**DCL     11831>>IF
PL6.E3A0      #001=KLH$HLP File=KLH$HLP.:E05TSI                                  WED 07/30/97 00:47 Page:140
KL_HLPKEY.ACCT
      5954**DCL     12099<<ASSIGN  12100--ASSIGN
KL_HLPKEY.CNT
      5953**DCL     12100<<ASSIGN
KL_HLPKEY.NAME
      5955**DCL     12101<<ASSIGN
KL_HLPR
     10440**DCL     11976<<ASSIGN  12035--ASSIGN  12037--ASSIGN  12038--ASSIGN  12039--ASSIGN
KL_HLPR.ATYP
     10445**DCL     11919>>IF      11919>>IF      11919>>IF      11923>>IF      11942>>IF      11947>>IF
     11953>>IF      11953>>IF      11953>>IF      11959>>IF      11969>>IF      11969>>IF      11969>>IF
     11989>>ASSIGN  11991>>DOCASE  12033>>IF      14971>>DOCASE  15002>>DOCASE
KL_HLPR.CGID
     10557**DCL     12021>>ASSIGN  12045--ASSIGN
KL_HLPR.COS
     10489**DCL     11990>>ASSIGN
KL_HLPR.FLAGS.NOCGINF
     10479**DCL     12023>>ASSIGN
KL_HLPR.FLAGS.NOCGREJ
     10474**DCL     12022>>ASSIGN
KL_HLPR.FLAGS.OLOK
     10458**DCL     11993>>IF
KL_HLPR.FLAGS.RNME
     10451**DCL     12025>>IF
KL_HLPR.FLAGS.USETP
     10469**DCL     12024>>ASSIGN
KL_HLPR.HPS.N
     10526**DCL     12000>>ASSIGN
KL_HLPR.INFO
     10566**DCL     12044>>ASSIGN
KL_HLPR.NWINFO
     10538**DCL     12040>>ASSIGN  12045>>ASSIGN
KL_HLPR.PASSWORD
     10498**DCL     10502--REDEF   12107>>IF
KL_HLPR.PNAME
     10504**DCL     12154--ASSIGN
PL6.E3A0      #001=KLH$HLP File=KLH$HLP.:E05TSI                                  WED 07/30/97 00:47 Page:141
KL_HLPR.RENAME
     10521**DCL     10522--REDEF   12026>>ASSIGN  12033>>IF
KL_HLPR.SNAME
     10535**DCL     11987>>ASSIGN
KL_HLPR.TNAME
     10531**DCL     11974>>ASSIGN
KL_HLPR.TWSN#
     10495**DCL     11988>>ASSIGN
KL_HLPR.WOO
     10518**DCL     12001>>ASSIGN
KL_NETWORK_BUF.TERMINAL_ID.TERM
      6072**DCL      6081--REDEF
KL_NETWORK_KEY.KEY.TERMID.TERM
      5998**DCL      6007--REDEF
KL_NODE
      5863**DCL     11899>>ASSIGN
KL_NODENAME
      5862**DCL     11874>>ASSIGN  11877>>IF
KL_PCD
     10158**DCL     11830--ASSIGN  11900<<ASSIGN
KL_PCD.ADDD.ACTYP
     10182**DCL     11948<<ASSIGN  11949<<ASSIGN  11960<<ASSIGN  11961<<ASSIGN  11973<<ASSIGN  11980<<ASSIGN
KL_PCD.ADDD.ASSOCTRM
     10206**DCL     11950<<ASSIGN  11962<<ASSIGN  11974<<ASSIGN  11981<<ASSIGN
KL_PCD.ADDD.ATYP
     10183**DCL     11989<<ASSIGN
KL_PCD.ADDD.CINFO
     10208**DCL     10212--REDEF
KL_PCD.ADDD.COS
     10219**DCL     11990<<ASSIGN
KL_PCD.ADDD.DEVNM
     10201**DCL     10202--REDEF   12026<<ASSIGN  12027<<ASSIGN
KL_PCD.ADDD.FEPNAME
     10186**DCL     11903<>CALL
KL_PCD.ADDD.FEX
     10185**DCL     11901<<ASSIGN  14958>>ASSIGN
PL6.E3A0      #001=KLH$HLP File=KLH$HLP.:E05TSI                                  WED 07/30/97 00:47 Page:142
KL_PCD.ADDD.IO
     10187**DCL     11977<<ASSIGN  12171<<ASSIGN
KL_PCD.ADDD.NMID
     10215**DCL     10216--REDEF   11904<<ASSIGN
KL_PCD.ADDD.NOCGINF
     10193**DCL     12023<<ASSIGN
KL_PCD.ADDD.NOCGREJ
     10192**DCL     12022<<ASSIGN
KL_PCD.ADDD.SPEED
     10194**DCL     11905<<ASSIGN
KL_PCD.ADDD.TERMID.CHAN
     10198**DCL     11907<>CALL    14959>>ASSIGN
KL_PCD.ADDD.TERMID.LEV
     10196**DCL     11906<<ASSIGN  14960>>ASSIGN
KL_PCD.ADDD.TERMID.SUB
     10199**DCL     11908<>CALL    14961>>ASSIGN
KL_PCD.ADDD.TERMID.SUBSUB
     10200**DCL     11909<>CALL    14962>>ASSIGN
KL_PCD.ADDD.TERMID.TTYP
     10197**DCL     11942>>IF      11978<<ASSIGN  11985>>IF      12162<<ASSIGN  12169<<ASSIGN
KL_PCD.ADDD.TNAME
     10205**DCL     11987<<ASSIGN
KL_PCD.ADDD.TWSN
     10207**DCL     11988<<ASSIGN
KL_PCD.ADDD.USETP
     10191**DCL     12024<<ASSIGN
KL_PCD.CGID
     10239**DCL     12021<<ASSIGN
KL_PCD.CGINFO.ATTR
     10267**DCL     10267--REDEF   12028<<ASSIGN  12038<<ASSIGN
KL_PCD.CGINFO.FLG.INPUT
     10266**DCL     12029<<ASSIGN
KL_PCD.CGINFO.FLG.OUTPUT
     10266**DCL     12030<<ASSIGN
KL_PCD.CGINFO.LENGTH
     10264**DCL     12032<<ASSIGN
PL6.E3A0      #001=KLH$HLP File=KLH$HLP.:E05TSI                                  WED 07/30/97 00:47 Page:143
KL_PCD.CGINFO.NWINFO
     10268**DCL     12040<<ASSIGN  12045<<ASSIGN
KL_PCD.CGINFO.RESINFO.AUACCT
     10288**DCL     12035<<ASSIGN
KL_PCD.CGINFO.RESINFO.MODE
     10273**DCL     12037<<ASSIGN
KL_PCD.CGINFO.RESINFO.RNAME
     10283**DCL     12039<<ASSIGN
KL_PCD.CGINFO.WHO.ACCT
     10265**DCL     12043<<ASSIGN
KL_PCD.CGINFO.WHO.NAME
     10265**DCL     12047<<ASSIGN
KL_PCD.CGINFO.WIDTH
     10264**DCL     12031<<ASSIGN
KL_PCD.CGINFO.XTRAINFO
     10270**DCL     10272--REDEF   12044<<ASSIGN
KL_PROBUF
     11016**DCL     11979<<ASSIGN  12160<<ASSIGN  12254--ASSIGN  12272--ASSIGN
KL_PROBUF.ATTR
     11020**DCL     12004>>ASSIGN  12028>>ASSIGN
KL_PROBUF.IMP#
     11034**DCL     12257>>ASSIGN
KL_PROBUF.IO
     11031**DCL     11997>>IF      12171>>ASSIGN
KL_PROBUF.IO.INPUT
     11032**DCL     12029>>ASSIGN
KL_PROBUF.IO.OUTPUT
     11033**DCL     12030>>ASSIGN
KL_PROBUF.LINES
     11019**DCL     12002>>ASSIGN  12032>>ASSIGN
KL_PROBUF.TTYP
     11017**DCL     12169>>ASSIGN
KL_PROBUF.WIDTH
     11018**DCL     12003>>ASSIGN  12031>>ASSIGN
KL_PROKEY
      5956**DCL     12264--ASSIGN
PL6.E3A0      #001=KLH$HLP File=KLH$HLP.:E05TSI                                  WED 07/30/97 00:47 Page:144
KL_PROKEY.C
      5957**DCL     12156<<ASSIGN  12158>>IF      12264<<ASSIGN
KL_PROKEY.IMP#
      5959**DCL     12268<<DOINDEX 12275>>IF
KL_PROKEY.T
      5958**DCL     12157<<CALLBLT 12158>>IF
KL_RDBF
      5838**DCL     11785--ASSIGN
KL_RDBF.CODE
      5839**DCL     11786>>DOCASE
KL_RDBF.FEL#
      5841**DCL      5842--REDEF
KL_RDHLPR
     11616**DCL     12102<>CALL
KL_RDHLPR.STATION_
     11619**DCL     11620--REDEF
KL_RDHLPR.V.DVBYTE.REREAD#
     11631**DCL     11631--REDEF
KL_RDHLPR.V.INDX#
     11629**DCL     11629--REDEF
KL_RDPROR
     11655**DCL     12165<>CALL    12269<>CALL
KL_RDPROR.STATION_
     11658**DCL     11659--REDEF
KL_RDPROR.V.DVBYTE.REREAD#
     11670**DCL     11670--REDEF
KL_RDPROR.V.INDX#
     11668**DCL     11668--REDEF
KL_SGNRSP IN PROCEDURE SNDRJ
     12373**DCL     12494<<ASSIGN  12497<>CALL    12500--ASSIGN  12502<>CALL
KL_SGNRSP.FCN IN PROCEDURE SNDRJ
     12374**DCL     12495<<ASSIGN
KL_SGNRSP.MESSAGE.RSPSIZ IN PROCEDURE SNDRJ
     12490**DCL     12500>>ASSIGN
KL_SGNRSP.MESSAGE.RSPTXT IN PROCEDURE SNDRJ
     12491**DCL     12500--ASSIGN
PL6.E3A0      #001=KLH$HLP File=KLH$HLP.:E05TSI                                  WED 07/30/97 00:47 Page:145
KL_SGNRSP.NMID IN PROCEDURE SNDRJ
     12386**DCL     12389--REDEF   12496<<ASSIGN
KL_SGNRSP.RLCID.NODE IN PROCEDURE SNDRJ
     12398**DCL     12499<<ASSIGN
KL_SGNRSP.TERMID.TERM IN PROCEDURE SNDRJ
     12476**DCL     12485--REDEF
KL_STATION
     11593**DCL     11796>>CALLBLT 11802>>CALLBLT 11842>>CALLBLT 11896<>CALL    12263<>CALL    12279<>CALL
     12340<>CALL    12502<>CALL
KL_TMSG.FLAGS
      5904**DCL      5905--REDEF
KL_TMSG.MSGID
      5900**DCL      5901--REDEF
KL_TMSG.WSN
      5907**DCL      5908--REDEF
KL_WRITE IN PROCEDURE SNDMSG
     12307**DCL     12333<<ASSIGN  12339--ASSIGN  12340<>CALL
KL_WRITE.FCN IN PROCEDURE SNDMSG
     12308**DCL     12334<<ASSIGN
KL_WRITE.MESSAGE.MSGSIZE IN PROCEDURE SNDMSG
     12324**DCL     12338<<ASSIGN  12339>>ASSIGN
KL_WRITE.MESSAGE.MSGTXT IN PROCEDURE SNDMSG
     12327**DCL     12336--ASSIGN  12337<>CALL    12339--ASSIGN
KL_WRITE.NMID IN PROCEDURE SNDMSG
     12313**DCL     12335<<ASSIGN
LINCNFG.LGN.LGNSIZE
     10033**DCL     11863>>ASSIGN
LINCNFG.LGN.LGNSTRING
     10034**DCL     11864>>ASSIGN
LINCNFG.PRO
     10029**DCL     11816>>ASSIGN  11937>>ASSIGN
LOGON
     11831**LABEL   11833--CALLALT
LOGON_TIME IN PROCEDURE UPD_USERS
     15333**DCL     15361<>CALL
LOGON_TIME.V IN PROCEDURE UPD_USERS
PL6.E3A0      #001=KLH$HLP File=KLH$HLP.:E05TSI                                  WED 07/30/97 00:47 Page:146
     15337**DCL     15333--DCLINIT
LOGSYSACC
     11413**DCL     11868>>IF      12013>>IF      12053>>IF      12108>>IF      12118>>IF
LOG_IT IN PROCEDURE SECLOG
     15012**LABEL   14979--CALLALT 15010--CALLALT
M$DEQ
       111**DCL-ENT 15351--CALL    15369--CALL
M$ENQ
       110**DCL-ENT 15349--CALL
M$ES_USER IN PROCEDURE UPD_USERS
     15025**DCL     15343--IF
M$OPEN
        44**DCL-ENT 15344--CALL
M$PROF
     11382**DCL     12168--ASSIGN  12271--ASSIGN
M$READ
        45**DCL-ENT 11815--CALL    11853--CALL    12102--CALL    12165--CALL    12269--CALL    15350--CALL
M$TIME
       111**DCL-ENT 15361--CALL
M$TRUNC
        45**DCL-ENT 15368--CALL
M$WRITE
        45**DCL-ENT 12079--CALL    15367--CALL
M$WRSYSLOG
        93**DCL-ENT 15018--CALL
M$XXX
        56**DCL-ENT 11827--CALL
NAME
     11390**DCL     11867<>CALL
NAME.C
     11391**DCL     11967<<ASSIGN  12100>>ASSIGN  14969>>IF      14995>>IF      14999>>IF      15345>>ASSIGN
     15347>>IF
NAME.T
     11392**DCL     11999>>ASSIGN  12047>>ASSIGN  12101>>ASSIGN  14970>>ASSIGN  14996>>ASSIGN  15000>>ASSIGN
     15348>>ASSIGN
NMID
PL6.E3A0      #001=KLH$HLP File=KLH$HLP.:E05TSI                                  WED 07/30/97 00:47 Page:147
     11399**DCL     11794<<ASSIGN  11825<<ASSIGN  12251>>ASSIGN  12335>>ASSIGN
NODETYPE
     11406**DCL     11879<>CALL    11884>>IF      11903<>CALL    12078<>CALL
NOHEADER
     11408**DCL     11867<>CALL    12006>>ASSIGN
NOPRO
     11927**LABEL   11945--GOTO
NOSETUP
     11407**DCL     11867<>CALL    12005>>ASSIGN
OPEN_USERS IN PROCEDURE UPD_USERS
     15104**DCL     15344<>CALL
OPEN_USERS.ACSVEH_ IN PROCEDURE UPD_USERS
     15106**DCL     15107--REDEF
OPEN_USERS.ALTKEYS_ IN PROCEDURE UPD_USERS
     15112**DCL     15113--REDEF   15113--REDEF
OPEN_USERS.HDR_ IN PROCEDURE UPD_USERS
     15111**DCL     15112--REDEF
OPEN_USERS.TAB_ IN PROCEDURE UPD_USERS
     15110**DCL     15111--REDEF
OPEN_USERS.UHL_ IN PROCEDURE UPD_USERS
     15104**DCL     15105--REDEF   15105--REDEF
OPEN_USERS.V IN PROCEDURE UPD_USERS
     15113**DCL     15104--DCLINIT
OPEN_USERS.V.FSN# IN PROCEDURE UPD_USERS
     15144**DCL     15144--REDEF   15144--REDEF
OPEN_USERS.WSN_ IN PROCEDURE UPD_USERS
     15110**DCL     15110--REDEF
P$
     11410**DCL     11595--IMP-PTR 12154<<ASSIGN  12155<<ASSIGN  12156>>ASSIGN  12157>>CALLBLT 12157>>CALLBLT
PCD$
     11409**DCL     10323--IMP-PTR 11830<<ASSIGN  11998>>ASSIGN  11999>>ASSIGN  12000>>ASSIGN  12001>>ASSIGN
     12002>>ASSIGN  12003>>ASSIGN  12004>>ASSIGN  12005>>ASSIGN  12006>>ASSIGN  12007>>ASSIGN
PRFRSP IN PROCEDURE SETPRO
     12206**DCL     12256--ASSIGN  12263<>CALL    12278--ASSIGN  12279<>CALL
PRFRSP.FCN IN PROCEDURE SETPRO
     12207**DCL     12249<<ASSIGN
PL6.E3A0      #001=KLH$HLP File=KLH$HLP.:E05TSI                                  WED 07/30/97 00:47 Page:148
PRFRSP.IMP IN PROCEDURE SETPRO
     12213**DCL     12250<<ASSIGN  12265<<ASSIGN
PRFRSP.MORE IN PROCEDURE SETPRO
     12214**DCL     12260<<ASSIGN  12262<<ASSIGN  12266>>IF      12277<<ASSIGN
PRFRSP.NMID IN PROCEDURE SETPRO
     12217**DCL     12251<<ASSIGN
PRFRSP.PROFILE.PRFSIZE.BYT IN PROCEDURE SETPRO
     12231**DCL     12252<<ASSIGN  12253<<ASSIGN  12273<<ASSIGN  12274<<ASSIGN
PRFRSP.PROFILE.PRFTXT IN PROCEDURE SETPRO
     12237**DCL     12254<<ASSIGN  12256--ASSIGN  12272<<ASSIGN  12278--ASSIGN
PRO
     11395**DCL     11816<<ASSIGN  11867<>CALL    11937<<ASSIGN  12155--ASSIGN
PRO.C
     11396**DCL     11924>>IF      11928<<ASSIGN  11934>>IF      11956<<ASSIGN  12061>>IF      12153>>IF
PRO.T
     11397**DCL     11929<<ASSIGN  11957<<ASSIGN
PROH
     10753**DCL     12245--ASSIGN  12254--ASSIGN
PROWT_STA
     11751**DCL     11696--DCLINIT
PROWT_STA.MSGIDXT
     11761**DCL     11764--REDEF
PSIZ
     11403**DCL     11404--REDEF   11813<<ASSIGN  11820<<ASSIGN  11829<<ASSIGN  12152<<ASSIGN  12161<<ASSIGN
     12168<<ASSIGN  12242>>IF      12245>>ASSIGN
PW
     11393**DCL     11867<>CALL    12103>>ASSIGN  12104<>CALL    12107>>IF
RDALT IN PROCEDURE GETHLP
     12115**LABEL   12102--CALLALT
RDBF$
     11594**DCL     11059--IMP-PTR 11152--IMP-PTR 11338--IMP-PTR 11785<<ASSIGN  11788>>CALL    11794>>ASSIGN
     11795>>IF      11798>>ASSIGN  11804>>ASSIGN  11825>>ASSIGN  11831>>IF      11838>>IF      11838>>IF
     11844>>ASSIGN  11855>>IF      11857>>ASSIGN  11861>>IF      11863>>ASSIGN  11864>>ASSIGN  11864>>ASSIGN
     11867>>CALL    11867>>CALL    11894>>ASSIGN  11895>>ASSIGN  11896>>CALL    11896>>CALL    11896>>CALL
     11896>>CALL    11901>>ASSIGN  11902>>ASSIGN  11904>>ASSIGN  11905>>ASSIGN  11906>>ASSIGN  11907>>CALL
     11908>>CALL    11909>>CALL    11916>>DOCASE  11934>>IF      11942>>IF      11985>>IF      12070>>IF
PL6.E3A0      #001=KLH$HLP File=KLH$HLP.:E05TSI                                  WED 07/30/97 00:47 Page:149
     12072>>ASSIGN  12073>>ASSIGN  12074>>CALL    12075>>CALL    12076>>CALL    12162>>ASSIGN  12496>>ASSIGN
     14981>>ASSIGN  14984>>ASSIGN  14984>>ASSIGN  14985>>ASSIGN  14986>>ASSIGN  14987>>CALL    14989>>CALL
     14991>>CALL
READ_NETCON
     10121**DCL     11815<>CALL    11853<>CALL
READ_NETCON.BUF_
     10123**DCL     11814<<ASSIGN  11851<<ASSIGN
READ_NETCON.KEY_
     10121**DCL     11799<<ASSIGN  11811<<ASSIGN  11852<<ASSIGN
READ_NETCON.STATION_
     10124**DCL     10125--REDEF
READ_NETCON.V
     10125**DCL     10121--DCLINIT
READ_NETCON.V.DVBYTE.REREAD#
     10136**DCL     10136--REDEF
READ_NETCON.V.INDX#
     10134**DCL     10134--REDEF
READ_USERS IN PROCEDURE UPD_USERS
     15209**DCL     15350<>CALL
READ_USERS.STATION_ IN PROCEDURE UPD_USERS
     15212**DCL     15213--REDEF
READ_USERS.V IN PROCEDURE UPD_USERS
     15213**DCL     15209--DCLINIT
READ_USERS.V.DVBYTE.REREAD# IN PROCEDURE UPD_USERS
     15224**DCL     15224--REDEF
READ_USERS.V.INDX# IN PROCEDURE UPD_USERS
     15222**DCL     15222--REDEF
REASON IN PROCEDURE SECLOG
     12546**DCL     12506--PROC    14947>>ASSIGN  14957>>IF      14965>>DOCASE
REASON IN PROCEDURE UPD_USERS
     15024**DCL     15022--PROC    15360>>IF      15362>>IF
RQSPROERR
     11811**LABEL   11815--CALLALT
SAVE_PW
     11394**DCL     12103<<ASSIGN  15001>>ASSIGN
SECLOG
PL6.E3A0      #001=KLH$HLP File=KLH$HLP.:E05TSI                                  WED 07/30/97 00:47 Page:150
     12506**PROC    11869--CALL    12014--CALL    12054--CALL    12109--CALL    12119--CALL
SETPRO
     12175**PROC    11822--CALL    12009--CALL    12049--CALL
SIZ IN PROCEDURE SNDMSG
     12331**DCL     12336<<ASSIGN  12337<>CALL    12338>>ASSIGN  12339<<ASSIGN  12340<>CALL
SIZ IN PROCEDURE SNDRJ
     12357**DCL     12500<<ASSIGN  12502<>CALL
SIZE IN PROCEDURE SETPRO
     12188**DCL     12190--IMP-SIZ 12245<<ASSIGN  12246>>IF      12248<<ASSIGN  12252>>ASSIGN  12253>>ASSIGN
     12254>>ASSIGN  12256<<ASSIGN  12256>>ASSIGN  12258>>IF      12263<>CALL    12271<<ASSIGN  12272>>ASSIGN
     12273>>ASSIGN  12274>>ASSIGN  12278<<ASSIGN  12278>>ASSIGN  12279<>CALL
SLUGHLP
     10877**DCL     11976>>ASSIGN
SLUGHLP.CGID
     10994**DCL     10975--DCLINIT
SLUGHLP.PASSWORD
     10935**DCL     10939--REDEF
SLUGHLP.RENAME
     10958**DCL     10959--REDEF
SNDMSG
     12290**PROC    11927--CALL
SNDPRO
     11405**DCL     11915<<ASSIGN  11936<<ASSIGN  11940<<ASSIGN  12008>>IF      12048>>IF
SNDRJ
     12354**PROC    11834--CALL    11911--CALL    11994--CALL    12067--CALL
TSCHK
     11923**LABEL   11941--CALLALT
UPD_USERS
     15022**PROC    12015--CALL    12055--CALL    12110--CALL    14979--CALL    15010--CALL
USERS_ACCT IN PROCEDURE UPD_USERS
     15186**DCL     15109--DCLINIT
USERS_KEY IN PROCEDURE UPD_USERS
     15026**DCL     15209--DCLINIT 15210--DCLINIT 15251--DCLINIT 15279--DCLINIT
USERS_KEY.COUNT IN PROCEDURE UPD_USERS
     15027**DCL     15345<<ASSIGN
USERS_KEY.UKEY.ACCT IN PROCEDURE UPD_USERS
PL6.E3A0      #001=KLH$HLP File=KLH$HLP.:E05TSI                                  WED 07/30/97 00:47 Page:151
     15029**DCL     15346<<ASSIGN
USERS_KEY.UKEY.UNAME IN PROCEDURE UPD_USERS
     15030**DCL     15348<<ASSIGN
USERS_NAME IN PROCEDURE UPD_USERS
     15173**DCL     15105--DCLINIT
WRITE_USERS IN PROCEDURE UPD_USERS
     15251**DCL     15367<>CALL
WRITE_USERS.STATION_ IN PROCEDURE UPD_USERS
     15253**DCL     15253--REDEF
WRITE_USERS.V IN PROCEDURE UPD_USERS
     15254**DCL     15251--DCLINIT
WRITE_USERS.V.DVBYTE.VFC# IN PROCEDURE UPD_USERS
     15260**DCL     15260--REDEF
WRTAUTOFAIL
     11725**DCL     12079<>CALL
WRTAUTOFAIL.STATION_
     11727**DCL     11727--REDEF
WRTAUTOFAIL.V
     11728**DCL     11725--DCLINIT
WRTAUTOFAIL.V.DVBYTE.VFC#
     11734**DCL     11734--REDEF
WR_SECLOG IN PROCEDURE SECLOG
     13528**DCL     15018<>CALL
WR_SECLOG.V IN PROCEDURE SECLOG
     13528**DCL     13528--DCLINIT

