PL6.E3A0      #006=KLI$LINEPRO File=KLI$FESET.:E05TSI                            WED 07/30/97 00:57 Page:612
     3170        1        /*T***********************************************************/
     3171        2        /*T*                                                         */
     3172        3        /*T* Copyright (c) Bull HN Information Systems Inc., 1997    */
     3173        4        /*T*                                                         */
     3174        5        /*T***********************************************************/
     3175        6        /*D* NAME:        KLI$LINEPRO
     3176        7             PURPOSE:     To fill in a KL_CHNRSP buffer for a line profile request
     3177        8             CALL:        CALL KLI$LINEPRO(ACCT,UNAME,PASS);
     3178        9             INPUT:       ACCT - Account (terminal name) of the line
     3179       10                          UNAME - User name of the line
     3180       11                          PASS - Password of the line
     3181       12                          KL_EXTRSP_BUF - Partially filled in
     3182       13             OUTPUT:      KL_EXTRSP_BUF - Completed being filled in especially
     3183       14                             KL$CHNRSP.NAK which is set if KLI$LINEPRO failed
     3184       15             DESCRIPTION: KLI$LINEPRO uses ACCT and UNAME to build a key into
     3185       16                          :HLP.:SYS and reads the supposed HASP, 3270 or LINK
     3186       17                          record. If the record does not exist, is the wrong
     3187       18                          kind of record, or the password is wrong, we set
     3188       19                          KL$CHNRSP.NAK and RETURN.
     3189       20                          The :HLP record is expanded with the appropriate
     3190       21                          PROFILE records from :PRO.:SYS and placed at the
     3191       22                          end of KL$CHNRSP. If any of the specified profiles
     3192       23                          are not available, we again set KL$CHNRSP.NAK
     3193       24                          and RETURN.
     3194       25
     3195       26                          If everything goes as planned, a line profile record
     3196       27                          complete with embedded profile records will have
     3197       28                          been built and tacked onto the end of KL$CHNRSP.
     3198       29                          This information is now used by KLI$AMSG, the
     3199       30                          caller, to send back to the requesting handler in
     3200       31                          some FEP. This information is used by said handler
     3201       32                          to build up context for a given line.
     3202       33        */
     3203       34        /**/
     3204       35        /**/
     3205       36        KLI$LINEPRO: PROC(ACCT,UNAME,PASS);
     3206       37        /**/
PL6.E3A0      #006=KLI$LINEPRO File=KLI$FESET.:E05TSI                            WED 07/30/97 00:57 Page:613
     3207       38        /**/
     3208       39    1   DCL ACCT CHAR(8);
     3209       40    1   DCL 1 UNAME,
     3210       41    1            2 C UBIN BYTE UNAL,
     3211       42    1            2 T CHAR(12);
     3212       43    1   DCL PASS CHAR(8);
     3213       44        %INCLUDE CP_6;
     3214      125        %INCLUDE KL_DATA_R;
     3215      589        %INCLUDE KL_MACRO_C;
     3216     3941        %INCLUDE KL_SUPER_C;
     3217     6843    1   DCL M$HLPF DCB;
     3218     6844    1   DCL M$PROF DCB;
     3219     6845    1   DCL PW CHAR(8);
     3220     6846    1   DCL I UBIN;
     3221     6847    1   DCL TEMP UBIN HALF;
     3222     6848    1   DCL MSGSIZE UBIN HALF;
     3223     6849    1   DCL SIZELEFT UBIN;
     3224     6850    1   DCL CHR$SIZELEFT CHAR(SIZELEFT) BASED;
     3225     6851    1   DCL INBLKHDR$ PTR;
     3226     6852    1   DCL OUTBLKHDR$ PTR;
     3227     6853    1   DCL OUT$ PTR;
     3228     6854    1   DCL IN$ PTR;
     3229     6855        %KL_BLKHDR (NAME=KL$BLKHDR,STCLASS="BASED(INBLKHDR$)",ALGN=CALIGNED);
     3230     6950        %KL_HASP   (NAME=KL$HASP,STCLASS="BASED(INBLKHDR$)");
     3231     7100        %KL_LN3270 (NAME=KL$LN3270,STCLASS="BASED(INBLKHDR$)");
     3232     7242        %KL_LNK    (NAME=KL$LNK,STCLASS="BASED(INBLKHDR$)");
     3233     7466        %KL_LNKVC  (NAME=KL$LNKVC,STCLASS="BASED(INBLKHDR$)");
     3234     7690        %KL_LINKDEV (NAME=KL$LINKDEV,STCLASS="BASED(INBLKHDR$)");
     3235     7861        %KL_PHDR   (NAME=KL$PHDR,STCLASS=BASED);
     3236     7902        %KL_DREC   (NAME=KL_HLPR,STCLASS=SYMREF,LAST=",");
     3237     8015        %KL_GJOB   (NAME=GJOB_OR_REST,STCLASS=SYMREF,LVL=2,LAST=",");
     3238     8039    1            2 REST CHAR(1);
     3239     8040        %KL_CHNRSP (FPTN=KL$CHNRSP,STCLASS="BASED(KL_EXTRSP_BUF$)");
     3240     8260        %F$DCB;
     3241     8317        %KL_PHDR  (NAME=KL_PROBUF,STCLASS="SYMREF ALIGNED");
     3242     8358        %FPT_READ (FPTN=KL_RDHLPR,STCLASS=SYMREF);
     3243     8397        %FPT_READ (FPTN=KL_RDPROR,STCLASS=SYMREF);
PL6.E3A0      #006=KLI$LINEPRO File=KLI$FESET.:E05TSI                            WED 07/30/97 00:57 Page:614
     3244     8436    1   DCL ASZ$SCRAMBLE ENTRY(1);
     3245     8437    1   DCL KLX$8TO9 ENTRY(3);
     3246     8438    1   DCL KLX$9TO8 ENTRY(3);
     3247     8439
     3248     8440    1        KL_NETWORK_VALID = '0'B;
     3249     8441    1        KL_HLPKEY.ACCT=ACCT;
     3250     8442    1        KL_HLPKEY.NAME=UNAME.T;
     3251     8443    1        KL_HLPKEY.CNT=8+UNAME.C;
     3252     8444    2        CALL M$READ(KL_RDHLPR) WHENALTRETURN DO;
     3253     8445    2   ALTOUT:   KL$CHNRSP.NAK='1'B;
     3254     8446    2             KL$CHNRSP.MESSAGE.MSGSIZE='0'B;
     3255     8447    2             RETURN;
     3256     8448    2           END;
     3257     8449    1        PW=PASS;
     3258     8450    1        CALL ASZ$SCRAMBLE(PW);
     3259     8451    1        IF PW~=KL_HLPR.PASSWORD THEN GOTO ALTOUT;
     3260     8452    2        DO CASE(KL_HLPR.ATYP);
     3261     8453    2        CASE(ELSE);
     3262     8454    2           GOTO ALTOUT;
     3263     8455    2        CASE(%KLAT_TRM#);
     3264     8456    2           INBLKHDR$=ADDR(KL_HLPR.REST);
     3265     8457    2        CASE(%KLAT_LINE#);
     3266     8458    2           INBLKHDR$=ADDR(KL_HLPR.GJOB_OR_REST);
     3267     8459    2        CASE(%KLAT_LNKLINE#);
     3268     8460    2           INBLKHDR$=ADDR(KL_HLPR.GJOB_OR_REST);
     3269     8461    2        END;                               /* CASE KL_HLPR.ATYP */
     3270     8462    1        OUT$=ADDR(KL$CHNRSP.MESSAGE.MESSAGE);
     3271     8463    1        IN$=INBLKHDR$;
     3272     8464    1        MSGSIZE=DCBADDR(DCBNUM(M$HLPF))->F$DCB.ARS#
     3273     8465    1             -POFFC(INBLKHDR$,ADDR(KL_HLPR));
     3274     8466    2        DO CASE(KL$BLKHDR.BLKTYP);
     3275     8467    2        CASE(ELSE);
     3276     8468    2           GOTO ALTOUT;
     3277     8469    2        CASE(%KLTY_STRM#);
     3278     8470    2           OUT$->KL$HASP=KL$HASP;
     3279     8471    2           SIZELEFT=MSGSIZE-SIZEC(KL$HASP);
     3280     8472    2           IN$=PINCRC(IN$,SIZEC(KL$HASP));
PL6.E3A0      #006=KLI$LINEPRO File=KLI$FESET.:E05TSI                            WED 07/30/97 00:57 Page:615
     3281     8473    2           OUTBLKHDR$=OUT$;
     3282     8474    2           OUT$=PINCRC(OUT$,SIZEC(KL$HASP));
     3283     8475    2           CALL GETPRO(KL_HLPR.PNAME,OUTBLKHDR$->KL$BLKHDR) ALTRET(ALTOUT);
     3284     8476    2           OUT$->CHR$SIZELEFT=IN$->CHR$SIZELEFT;
     3285     8477    2        CASE(%KLTY_3270#);
     3286     8478    2           OUT$->KL$LN3270=KL$LN3270;
     3287     8479    2           SIZELEFT=MSGSIZE-SIZEC(KL$LN3270);
     3288     8480    2           IN$=PINCRC(IN$,SIZEC(KL$LN3270));
     3289     8481    2           OUTBLKHDR$=OUT$;
     3290     8482    2           OUT$=PINCRC(OUT$,SIZEC(KL$LN3270));
     3291     8483    2           CALL GETPRO(KL_HLPR.PNAME,OUTBLKHDR$->KL$BLKHDR) ALTRET(ALTOUT);
     3292     8484    2           OUT$->CHR$SIZELEFT=IN$->CHR$SIZELEFT;
     3293     8485    2        CASE(%KLTY_LINK#);
     3294     8486    2           OUT$->KL$LNK=KL$LNK;
     3295     8487    2           CALL KLX$9TO8(KL$LNK.LIC,OUT$->KL$LNK.LIC,2);
     3296     8488    2           CALL KLX$9TO8(KL$LNK.HIC,OUT$->KL$LNK.HIC,2);
     3297     8489    2           CALL KLX$9TO8(KL$LNK.LOC,OUT$->KL$LNK.LOC,2);
     3298     8490    2           CALL KLX$9TO8(KL$LNK.HOC,OUT$->KL$LNK.HOC,2);
     3299     8491    2           CALL KLX$8TO9(KL$LNK.BLKHDR.LEN,TEMP,2);
     3300     8492    2           IN$ = PINCRC(IN$,TEMP);
     3301     8493    2           OUTBLKHDR$=OUT$;
     3302     8494    2           OUT$=PINCRC(OUT$,TEMP);
     3303     8495    2           CALL GETPRO(KL_HLPR.PNAME,OUTBLKHDR$->KL$BLKHDR) ALTRET(ALTOUT);
     3304     8496    2           TEMP = OUTBLKHDR$->KL$BLKHDR.PROOFFSET; /* set proofile offset*/
     3305     8497    2           CALL GETPRO(KL$LNK.DFLTVCPRO,OUTBLKHDR$->KL$BLKHDR);
     3306     8498    2           OUTBLKHDR$->KL$BLKHDR.PROOFFSET = TEMP;
     3307     8499    2           IF KL$LNK.BLKHDR.NSUBS>0 THEN
     3308     8500    3           DO I=0 TO KL$LNK.BLKHDR.NSUBS-1;
     3309     8501    4                IF IN$->KL$LNK.BLKHDR.BLKTYP = %KLTY_LINKDEV# THEN DO;
     3310     8502    4                     OUT$->KL$LINKDEV = IN$->KL$LINKDEV;
     3311     8503    4                     CALL KLX$9TO8(IN$->KL$LINKDEV.CIRCUITS#,OUT$->KL$LINKDEV.CIRCUITS#
              8503                              ,2);
     3312     8504    4                     IN$ = PINCRC(IN$,SIZEC(KL$LINKDEV));
     3313     8505    4                     OUT$ = PINCRC(OUT$,SIZEC(KL$LINKDEV));
     3314     8506    4                   END;
     3315     8507    4                ELSE DO;
     3316     8508    4                     OUT$->KL$LNKVC=IN$->KL$LNKVC;
PL6.E3A0      #006=KLI$LINEPRO File=KLI$FESET.:E05TSI                            WED 07/30/97 00:57 Page:616
     3317     8509    4                     IN$=PINCRC(IN$,SIZEC(KL$LNKVC));
     3318     8510    4                     OUTBLKHDR$=OUT$;
     3319     8511    4                     OUT$=PINCRC(OUT$,SIZEC(KL$LNKVC));
     3320     8512    4                     CALL GETPRO(OUTBLKHDR$->KL$LNKVC.PRONM,OUTBLKHDR$->KL$BLKHDR)
     3321     8513    4                          ALTRET(ALTOUT);
     3322     8514    4                   END;
     3323     8515    3              END;
     3324     8516    2        END;                               /* CASE KL$BLKHDR.BLKTYP */
     3325     8517    1        CALL KLX$9TO8(MSGSIZE,KL$CHNRSP.MESSAGE.MSGSIZE,2);
     3326     8518    1        RETURN;
     3327     8519        %EJECT;
PL6.E3A0      #006=KLI$LINEPRO File=KLI$FESET.:E05TSI                            WED 07/30/97 00:57 Page:617
     3328     8520    1   GETPRO: PROC(PRO,BLKHDR) ALTRET;
     3329     8521    2   DCL 1 PRO CALIGNED,
     3330     8522    2            2 LEN UBIN BYTE UNAL,
     3331     8523    2            2 TXT CHAR(11);
     3332     8524        %KL_BLKHDR(NAME=BLKHDR,STCLASS=PARAM,ALGN=CALIGNED);
     3333     8619    2   DCL PSIZ UBIN;
     3334     8620    2   DCL TEMP UBIN HALF;
     3335     8621    2   DCL CHR$PSIZ CHAR(PSIZ) BASED;
     3336     8622
     3337     8623    2        IF PRO.LEN=0 THEN RETURN;
     3338     8624    2        KL_PROKEY=PRO;
     3339     8625    3        CALL M$READ(KL_RDPROR) WHENALTRETURN DO;
     3340     8626    3             ALTRETURN;
     3341     8627    3           END;
     3342     8628    2        PSIZ=DCBADDR(DCBNUM(M$PROF))->F$DCB.ARS#-SIZEC(KL$PHDR);
     3343     8629    2        OUT$->CHR$PSIZ=PINCRC(ADDR(KL_PROBUF),SIZEC(KL$PHDR))->CHR$PSIZ;
     3344     8630    2        MSGSIZE=MSGSIZE+PSIZ;
     3345     8631    2        CALL KLX$8TO9(BLKHDR.LEN,TEMP,2);
     3346     8632    2        TEMP=TEMP+PSIZ;
     3347     8633    2        CALL KLX$9TO8(TEMP,BLKHDR.LEN,2);
     3348     8634    2        BLKHDR.PROOFFSET=POFFC(OUT$,ADDR(BLKHDR));
     3349     8635    2        OUT$=PINCRC(OUT$,PSIZ);
     3350     8636    2        RETURN;
     3351     8637    2   END GETPRO;
     3352     8638    1   END KLI$LINEPRO;

PL6.E3A0      #006=KLI$LINEPRO File=KLI$FESET.:E05TSI                            WED 07/30/97 00:57 Page:618
--  Include file information  --

   KL_SUPER_C.:E05TOU  is referenced.
   KL_MACRO_C.:E05TOU  is referenced.
   KL_NETWORK_M.:E05TOU  is referenced.
   OC$MESSHD_C.:E05TOU  is referenced.
   KL_DATA_R.:E05TOU  cannot be made into a system file and is referenced.
   CP_6.:E05TOU  cannot be made into a system file and is referenced.
   B$JIT_C.:E05TOU  was found in the system file and is never referenced.
   CP_6_C.:E05TOU  was found in the system file and is referenced.
      No diagnostics issued in procedure KLI$LINEPRO.

   Procedure KLI$LINEPRO requires 405 words for executable code.
   Procedure KLI$LINEPRO requires 26 words of local(AUTO) storage.

    No errors detected in file KLI$FESET.:E05TSI    .

PL6.E3A0      #006=KLI$LINEPRO File=KLI$FESET.:E05TSI                            WED 07/30/97 00:57 Page:619

 Object Unit name= KLI$LINEPRO                                File name= KLI$FESET.:E05TOU
 UTS= JUL 30 '97 00:57:33.60 WED                              Compiler= PL-6/E31         Sev=      00
 SharedLib= :SHARED_SYSTEM                                    Alt SharedLib=


    ****  Control sections  ****

 Sect   Type Bound  Init  Size OctSiz  Section name(segment info)
    0   DCB   even  none     0      0  M$UC
    1   DCB   even  none     0      0  M$HLP
    2   DCB   even  none     0      0  M$HLPF
    3   DCB   even  none     0      0  M$PROF
    4   Proc  even  none   405    625  KLI$LINEPRO
    5  RoData even  none    10     12  KLI$LINEPRO

    ****  Entry defs  ****

                              Check   Calling
                             calling  sequence
  Sect OctLoc Primary Altret sequence   type   Parms  Name
     4      0   yes            yes      Std        3  KLI$LINEPRO

  ****  Entry refs  ****

         Check        Calling
        calling       sequence
Altret sequence SRef   type   Args  Name
         yes           Std       1 ASZ$SCRAMBLE
         yes           Std       3 KLX$9TO8
         yes           Std       3 KLX$8TO9
                       nStd      0 X66_AUTO_3
                       nStd      0 X66_ARET
                       Std       0 B_CONSPOOL_D
PL6.E3A0      #006=KLI$LINEPRO File=KLI$FESET.:E05TSI                            WED 07/30/97 00:57 Page:620

  ****  Data refs  ****

  Flags:  r = read only, s = secondary
Flgs Name                             Flgs Name                             Flgs Name
     M$UC                                  M$HLP                                 KL_NETWORK_VALID
     KL_HLPKEY                             KL_PROKEY                             KL_EXTRSP_BUF$
     M$HLPF                                M$PROF                                KL_HLPR
     KL_PROBUF                             KL_RDHLPR                             KL_RDPROR
     B_VECTNIL

  ****  Segment refs  ****

  Flags:  r = read only, s = secondary
Flgs Name                             Flgs Name                             Flgs Name
     ROSID                                 ISSID
PL6.E3A0      #006=KLI$LINEPRO File=KLI$FESET.:E05TSI                            WED 07/30/97 00:57 Page:621


     3170        1        /*T***********************************************************/
     3171        2        /*T*                                                         */
     3172        3        /*T* Copyright (c) Bull HN Information Systems Inc., 1997    */
     3173        4        /*T*                                                         */
     3174        5        /*T***********************************************************/
     3175        6        /*D* NAME:        KLI$LINEPRO
     3176        7             PURPOSE:     To fill in a KL_CHNRSP buffer for a line profile request
     3177        8             CALL:        CALL KLI$LINEPRO(ACCT,UNAME,PASS);
     3178        9             INPUT:       ACCT - Account (terminal name) of the line
     3179       10                          UNAME - User name of the line
     3180       11                          PASS - Password of the line
     3181       12                          KL_EXTRSP_BUF - Partially filled in
     3182       13             OUTPUT:      KL_EXTRSP_BUF - Completed being filled in especially
     3183       14                             KL$CHNRSP.NAK which is set if KLI$LINEPRO failed
     3184       15             DESCRIPTION: KLI$LINEPRO uses ACCT and UNAME to build a key into
     3185       16                          :HLP.:SYS and reads the supposed HASP, 3270 or LINK
     3186       17                          record. If the record does not exist, is the wrong
     3187       18                          kind of record, or the password is wrong, we set
     3188       19                          KL$CHNRSP.NAK and RETURN.
     3189       20                          The :HLP record is expanded with the appropriate
     3190       21                          PROFILE records from :PRO.:SYS and placed at the
     3191       22                          end of KL$CHNRSP. If any of the specified profiles
     3192       23                          are not available, we again set KL$CHNRSP.NAK
     3193       24                          and RETURN.
     3194       25
     3195       26                          If everything goes as planned, a line profile record
     3196       27                          complete with embedded profile records will have
     3197       28                          been built and tacked onto the end of KL$CHNRSP.
     3198       29                          This information is now used by KLI$AMSG, the
     3199       30                          caller, to send back to the requesting handler in
     3200       31                          some FEP. This information is used by said handler
     3201       32                          to build up context for a given line.
     3202       33        */
     3203       34        /**/
     3204       35        /**/
     3205       36        KLI$LINEPRO: PROC(ACCT,UNAME,PASS);
PL6.E3A0      #006=KLI$LINEPRO File=KLI$FESET.:E05TSI                            WED 07/30/97 00:57 Page:622

     36  4 000000   000000 700200 xent  KLI$LINEPRO  TSX0  ! X66_AUTO_3
         4 000001   000032 000003                    ZERO    26,3

     3206       37        /**/
     3207       38        /**/
     3208       39    1   DCL ACCT CHAR(8);
     3209       40    1   DCL 1 UNAME,
     3210       41    1            2 C UBIN BYTE UNAL,
     3211       42    1            2 T CHAR(12);
     3212       43    1   DCL PASS CHAR(8);
     3213       44        %INCLUDE CP_6;
     3214      125        %INCLUDE KL_DATA_R;
     3215      589        %INCLUDE KL_MACRO_C;
     3216     3941        %INCLUDE KL_SUPER_C;
     3217     6843    1   DCL M$HLPF DCB;
     3218     6844    1   DCL M$PROF DCB;
     3219     6845    1   DCL PW CHAR(8);
     3220     6846    1   DCL I UBIN;
     3221     6847    1   DCL TEMP UBIN HALF;
     3222     6848    1   DCL MSGSIZE UBIN HALF;
     3223     6849    1   DCL SIZELEFT UBIN;
     3224     6850    1   DCL CHR$SIZELEFT CHAR(SIZELEFT) BASED;
     3225     6851    1   DCL INBLKHDR$ PTR;
     3226     6852    1   DCL OUTBLKHDR$ PTR;
     3227     6853    1   DCL OUT$ PTR;
     3228     6854    1   DCL IN$ PTR;
     3229     6855        %KL_BLKHDR (NAME=KL$BLKHDR,STCLASS="BASED(INBLKHDR$)",ALGN=CALIGNED);
     3230     6950        %KL_HASP   (NAME=KL$HASP,STCLASS="BASED(INBLKHDR$)");
     3231     7100        %KL_LN3270 (NAME=KL$LN3270,STCLASS="BASED(INBLKHDR$)");
     3232     7242        %KL_LNK    (NAME=KL$LNK,STCLASS="BASED(INBLKHDR$)");
     3233     7466        %KL_LNKVC  (NAME=KL$LNKVC,STCLASS="BASED(INBLKHDR$)");
     3234     7690        %KL_LINKDEV (NAME=KL$LINKDEV,STCLASS="BASED(INBLKHDR$)");
     3235     7861        %KL_PHDR   (NAME=KL$PHDR,STCLASS=BASED);
     3236     7902        %KL_DREC   (NAME=KL_HLPR,STCLASS=SYMREF,LAST=",");
     3237     8015        %KL_GJOB   (NAME=GJOB_OR_REST,STCLASS=SYMREF,LVL=2,LAST=",");
     3238     8039    1            2 REST CHAR(1);
PL6.E3A0      #006=KLI$LINEPRO File=KLI$FESET.:E05TSI                            WED 07/30/97 00:57 Page:623
     3239     8040        %KL_CHNRSP (FPTN=KL$CHNRSP,STCLASS="BASED(KL_EXTRSP_BUF$)");
     3240     8260        %F$DCB;
     3241     8317        %KL_PHDR  (NAME=KL_PROBUF,STCLASS="SYMREF ALIGNED");
     3242     8358        %FPT_READ (FPTN=KL_RDHLPR,STCLASS=SYMREF);
     3243     8397        %FPT_READ (FPTN=KL_RDPROR,STCLASS=SYMREF);
     3244     8436    1   DCL ASZ$SCRAMBLE ENTRY(1);
     3245     8437    1   DCL KLX$8TO9 ENTRY(3);
     3246     8438    1   DCL KLX$9TO8 ENTRY(3);
     3247     8439
     3248     8440    1        KL_NETWORK_VALID = '0'B;

   8440  4 000002   000000 450000 xsym               STZ     KL_NETWORK_VALID

     3249     8441    1        KL_HLPKEY.ACCT=ACCT;

   8441  4 000003   200003 470500                    LDP0    @ACCT,,AUTO
         4 000004   040000 100500                    MLR     fill='040'O
         4 000005   000000 000010                    ADSC9   0,,PR0                   cn=0,n=8
         4 000006   000000 200010 xsym               ADSC9   KL_HLPKEY                cn=1,n=8

     3250     8442    1        KL_HLPKEY.NAME=UNAME.T;

   8442  4 000007   200004 471500                    LDP1    @UNAME,,AUTO
         4 000010   040000 100500                    MLR     fill='040'O
         4 000011   100000 200014                    ADSC9   0,,PR1                   cn=1,n=12
         4 000012   000002 200014 xsym               ADSC9   KL_HLPKEY+2              cn=1,n=12

     3251     8443    1        KL_HLPKEY.CNT=8+UNAME.C;

   8443  4 000013   000100 101500                    MRL     fill='000'O
         4 000014   100000 000001                    ADSC9   0,,PR1                   cn=0,n=1
         4 000015   200026 000004                    ADSC9   TEMP+2,,AUTO             cn=0,n=4
         4 000016   200026 236100                    LDQ     TEMP+2,,AUTO
         4 000017   000010 036007                    ADLQ    8,DL
         4 000020   000033 736000                    QLS     27
         4 000021   000000 552040 xsym               STBQ    KL_HLPKEY,'40'O

PL6.E3A0      #006=KLI$LINEPRO File=KLI$FESET.:E05TSI                            WED 07/30/97 00:57 Page:624
     3252     8444    2        CALL M$READ(KL_RDHLPR) WHENALTRETURN DO;

   8444  4 000022   000000 630400 xsym               EPPR0   KL_RDHLPR
         4 000023   440000 713400                    CLIMB   alt,read
         4 000024   401400 401760                    pmme    nvectors=4
         4 000025   000027 702000 4                  TSX2    ALTOUT
         4 000026   000036 710000 4                  TRA     s:8449

     3253     8445    2   ALTOUT:   KL$CHNRSP.NAK='1'B;

   8445  4 000027   000000 470400 xsym  ALTOUT       LDP0    KL_EXTRSP_BUF$
         4 000030   000020 236003                    LDQ     16,DU
         4 000031   000000 256100                    ORSQ    0,,PR0

     3254     8446    2             KL$CHNRSP.MESSAGE.MSGSIZE='0'B;

   8446  4 000032   000000 220003                    LDX0    0,DU
         4 000033   000000 470400 xsym               LDP0    KL_EXTRSP_BUF$
         4 000034   000015 740100                    STX0    13,,PR0

     3255     8447    2             RETURN;

   8447  4 000035   000000 702200 xent               TSX2  ! X66_ARET

     3256     8448    2           END;
     3257     8449    1        PW=PASS;

   8449  4 000036   200005 470500                    LDP0    @PASS,,AUTO
         4 000037   040100 100500                    MLR     fill='040'O
         4 000040   000000 000010                    ADSC9   0,,PR0                   cn=0,n=8
         4 000041   200006 000010                    ADSC9   PW,,AUTO                 cn=0,n=8

     3258     8450    1        CALL ASZ$SCRAMBLE(PW);

   8450  4 000042   200006 631500                    EPPR1   PW,,AUTO
         4 000043   200026 451500                    STP1    TEMP+2,,AUTO
         4 000044   200026 630500                    EPPR0   TEMP+2,,AUTO
PL6.E3A0      #006=KLI$LINEPRO File=KLI$FESET.:E05TSI                            WED 07/30/97 00:57 Page:625
         4 000045   000017 631400 xsym               EPPR1   B_VECTNIL+15
         4 000046   000000 701000 xent               TSX1    ASZ$SCRAMBLE
         4 000047   000000 011000                    NOP     0

     3259     8451    1        IF PW~=KL_HLPR.PASSWORD THEN GOTO ALTOUT;

   8451  4 000050   040000 106500                    CMPC    fill='040'O
         4 000051   200006 000010                    ADSC9   PW,,AUTO                 cn=0,n=8
         4 000052   000002 000010 xsym               ADSC9   KL_HLPR+2                cn=0,n=8
         4 000053   000027 601000 4                  TNZ     ALTOUT

     3260     8452    2        DO CASE(KL_HLPR.ATYP);

   8452  4 000054   000000 236000 xsym               LDQ     KL_HLPR
         4 000055   000033 772000                    QRL     27
         4 000056   000004 136007                    SBLQ    4,DL
         4 000057   000003 116007                    CMPQ    3,DL
         4 000060   000062 602006 4                  TNC     s:8452+6,QL
         4 000061   000065 710000 4                  TRA     s:8454
         4 000062   000066 710000 4                  TRA     s:8456
         4 000063   000071 710000 4                  TRA     s:8458
         4 000064   000074 710000 4                  TRA     s:8460

     3261     8453    2        CASE(ELSE);

     3262     8454    2           GOTO ALTOUT;

   8454  4 000065   000027 710000 4                  TRA     ALTOUT

     3263     8455    2        CASE(%KLAT_TRM#);

     3264     8456    2           INBLKHDR$=ADDR(KL_HLPR.REST);

   8456  4 000066   000000 236000 5                  LDQ     0
         4 000067   200014 756100                    STQ     INBLKHDR$,,AUTO
         4 000070   000076 710000 4                  TRA     s:8462

PL6.E3A0      #006=KLI$LINEPRO File=KLI$FESET.:E05TSI                            WED 07/30/97 00:57 Page:626
     3265     8457    2        CASE(%KLAT_LINE#);

     3266     8458    2           INBLKHDR$=ADDR(KL_HLPR.GJOB_OR_REST);

   8458  4 000071   000001 236000 5                  LDQ     1
         4 000072   200014 756100                    STQ     INBLKHDR$,,AUTO
         4 000073   000076 710000 4                  TRA     s:8462

     3267     8459    2        CASE(%KLAT_LNKLINE#);

     3268     8460    2           INBLKHDR$=ADDR(KL_HLPR.GJOB_OR_REST);

   8460  4 000074   000001 236000 5                  LDQ     1
         4 000075   200014 756100                    STQ     INBLKHDR$,,AUTO

     3269     8461    2        END;                               /* CASE KL_HLPR.ATYP */

     3270     8462    1        OUT$=ADDR(KL$CHNRSP.MESSAGE.MESSAGE);

   8462  4 000076   000000 236000 xsym               LDQ     KL_EXTRSP_BUF$
         4 000077   000002 036000 5                  ADLQ    2
         4 000100   200016 756100                    STQ     OUT$,,AUTO

     3271     8463    1        IN$=INBLKHDR$;

   8463  4 000101   200014 236100                    LDQ     INBLKHDR$,,AUTO
         4 000102   200017 756100                    STQ     IN$,,AUTO

     3272     8464    1        MSGSIZE=DCBADDR(DCBNUM(M$HLPF))->F$DCB.ARS#

   8464  4 000103   000000 236007 xsym               LDQ     M$HLPF,DL
         4 000104   000003 470400 5                  LDP0    3
         4 000105   000000 471500                    LDP1    0,,PR0
         4 000106   100000 473506                    LDP3    0,QL,PR1
         4 000107   000004 236000 5                  LDQ     4
         4 000110   000020 772000                    QRL     16
         4 000111   200026 756100                    STQ     TEMP+2,,AUTO
PL6.E3A0      #006=KLI$LINEPRO File=KLI$FESET.:E05TSI                            WED 07/30/97 00:57 Page:627
         4 000112   200014 236100                    LDQ     INBLKHDR$,,AUTO
         4 000113   000020 772000                    QRL     16
         4 000114   200026 136100                    SBLQ    TEMP+2,,AUTO
         4 000115   200027 756100                    STQ     TEMP+3,,AUTO
         4 000116   300000 236100                    LDQ     0,,PR3
         4 000117   200027 136100                    SBLQ    TEMP+3,,AUTO
         4 000120   000000 620006                    EAX0    0,QL
         4 000121   200012 740100                    STX0    MSGSIZE,,AUTO

     3273     8465    1             -POFFC(INBLKHDR$,ADDR(KL_HLPR));
     3274     8466    2        DO CASE(KL$BLKHDR.BLKTYP);

   8466  4 000122   200014 473500                    LDP3    INBLKHDR$,,AUTO
         4 000123   000100 101500                    MRL     fill='000'O
         4 000124   300001 000001                    ADSC9   1,,PR3                   cn=0,n=1
         4 000125   200026 000002                    ADSC9   TEMP+2,,AUTO             cn=0,n=2
         4 000126   200026 221100                    LDX1    TEMP+2,,AUTO
         4 000127   000010 101003                    CMPX1   8,DU
         4 000130   000132 602011 4                  TNC     s:8466+8,X1
         4 000131   000142 710000 4                  TRA     s:8468
         4 000132   000142 710000 4                  TRA     s:8468
         4 000133   000142 710000 4                  TRA     s:8468
         4 000134   000142 710000 4                  TRA     s:8468
         4 000135   000143 710000 4                  TRA     s:8470
         4 000136   000233 710000 4                  TRA     s:8486
         4 000137   000142 710000 4                  TRA     s:8468
         4 000140   000142 710000 4                  TRA     s:8468
         4 000141   000177 710000 4                  TRA     s:8478

     3275     8467    2        CASE(ELSE);

     3276     8468    2           GOTO ALTOUT;

   8468  4 000142   000027 710000 4                  TRA     ALTOUT

     3277     8469    2        CASE(%KLTY_STRM#);

PL6.E3A0      #006=KLI$LINEPRO File=KLI$FESET.:E05TSI                            WED 07/30/97 00:57 Page:628
     3278     8470    2           OUT$->KL$HASP=KL$HASP;

   8470  4 000143   200016 474500                    LDP4    OUT$,,AUTO
         4 000144   000100 100500                    MLR     fill='000'O
         4 000145   300000 000134                    ADSC9   0,,PR3                   cn=0,n=92
         4 000146   400000 000134                    ADSC9   0,,PR4                   cn=0,n=92

     3279     8471    2           SIZELEFT=MSGSIZE-SIZEC(KL$HASP);

   8471  4 000147   200012 235100                    LDA     MSGSIZE,,AUTO
         4 000150   000022 771000                    ARL     18
         4 000151   000134 135007                    SBLA    92,DL
         4 000152   200013 755100                    STA     SIZELEFT,,AUTO

     3280     8472    2           IN$=PINCRC(IN$,SIZEC(KL$HASP));

   8472  4 000153   200017 236100                    LDQ     IN$,,AUTO
         4 000154   000027 036003                    ADLQ    23,DU
         4 000155   200017 756100                    STQ     IN$,,AUTO

     3281     8473    2           OUTBLKHDR$=OUT$;

   8473  4 000156   200016 236100                    LDQ     OUT$,,AUTO
         4 000157   200015 756100                    STQ     OUTBLKHDR$,,AUTO

     3282     8474    2           OUT$=PINCRC(OUT$,SIZEC(KL$HASP));

   8474  4 000160   000027 036003                    ADLQ    23,DU
         4 000161   200016 756100                    STQ     OUT$,,AUTO

     3283     8475    2           CALL GETPRO(KL_HLPR.PNAME,OUTBLKHDR$->KL$BLKHDR) ALTRET(ALTOUT);

   8475  4 000162   200015 236100                    LDQ     OUTBLKHDR$,,AUTO
         4 000163   200022 756100                    STQ     @PRO+1,,AUTO
         4 000164   000005 236000 5                  LDQ     5
         4 000165   200021 756100                    STQ     IN$+2,,AUTO
         4 000166   000504 701000 4                  TSX1    GETPRO
PL6.E3A0      #006=KLI$LINEPRO File=KLI$FESET.:E05TSI                            WED 07/30/97 00:57 Page:629
         4 000167   000027 702000 4                  TSX2    ALTOUT

     3284     8476    2           OUT$->CHR$SIZELEFT=IN$->CHR$SIZELEFT;

   8476  4 000170   200017 470500                    LDP0    IN$,,AUTO
         4 000171   200013 720100                    LXL0    SIZELEFT,,AUTO
         4 000172   200016 471500                    LDP1    OUT$,,AUTO
         4 000173   040140 100540                    MLR     fill='040'O
         4 000174   000000 000010                    ADSC9   0,,PR0                   cn=0,n=*X0
         4 000175   100000 000010                    ADSC9   0,,PR1                   cn=0,n=*X0
         4 000176   000470 710000 4                  TRA     s:8517

     3285     8477    2        CASE(%KLTY_3270#);

     3286     8478    2           OUT$->KL$LN3270=KL$LN3270;

   8478  4 000177   200016 474500                    LDP4    OUT$,,AUTO
         4 000200   000100 100500                    MLR     fill='000'O
         4 000201   300000 000014                    ADSC9   0,,PR3                   cn=0,n=12
         4 000202   400000 000014                    ADSC9   0,,PR4                   cn=0,n=12

     3287     8479    2           SIZELEFT=MSGSIZE-SIZEC(KL$LN3270);

   8479  4 000203   200012 235100                    LDA     MSGSIZE,,AUTO
         4 000204   000022 771000                    ARL     18
         4 000205   000014 135007                    SBLA    12,DL
         4 000206   200013 755100                    STA     SIZELEFT,,AUTO

     3288     8480    2           IN$=PINCRC(IN$,SIZEC(KL$LN3270));

   8480  4 000207   200017 236100                    LDQ     IN$,,AUTO
         4 000210   000003 036003                    ADLQ    3,DU
         4 000211   200017 756100                    STQ     IN$,,AUTO

     3289     8481    2           OUTBLKHDR$=OUT$;

   8481  4 000212   200016 236100                    LDQ     OUT$,,AUTO
PL6.E3A0      #006=KLI$LINEPRO File=KLI$FESET.:E05TSI                            WED 07/30/97 00:57 Page:630
         4 000213   200015 756100                    STQ     OUTBLKHDR$,,AUTO

     3290     8482    2           OUT$=PINCRC(OUT$,SIZEC(KL$LN3270));

   8482  4 000214   000003 036003                    ADLQ    3,DU
         4 000215   200016 756100                    STQ     OUT$,,AUTO

     3291     8483    2           CALL GETPRO(KL_HLPR.PNAME,OUTBLKHDR$->KL$BLKHDR) ALTRET(ALTOUT);

   8483  4 000216   200015 236100                    LDQ     OUTBLKHDR$,,AUTO
         4 000217   200022 756100                    STQ     @PRO+1,,AUTO
         4 000220   000005 236000 5                  LDQ     5
         4 000221   200021 756100                    STQ     IN$+2,,AUTO
         4 000222   000504 701000 4                  TSX1    GETPRO
         4 000223   000027 702000 4                  TSX2    ALTOUT

     3292     8484    2           OUT$->CHR$SIZELEFT=IN$->CHR$SIZELEFT;

   8484  4 000224   200017 470500                    LDP0    IN$,,AUTO
         4 000225   200013 720100                    LXL0    SIZELEFT,,AUTO
         4 000226   200016 471500                    LDP1    OUT$,,AUTO
         4 000227   040140 100540                    MLR     fill='040'O
         4 000230   000000 000010                    ADSC9   0,,PR0                   cn=0,n=*X0
         4 000231   100000 000010                    ADSC9   0,,PR1                   cn=0,n=*X0
         4 000232   000470 710000 4                  TRA     s:8517

     3293     8485    2        CASE(%KLTY_LINK#);

     3294     8486    2           OUT$->KL$LNK=KL$LNK;

   8486  4 000233   200016 474500                    LDP4    OUT$,,AUTO
         4 000234   000100 100500                    MLR     fill='000'O
         4 000235   300000 000060                    ADSC9   0,,PR3                   cn=0,n=48
         4 000236   400000 000060                    ADSC9   0,,PR4                   cn=0,n=48

     3295     8487    2           CALL KLX$9TO8(KL$LNK.LIC,OUT$->KL$LNK.LIC,2);

PL6.E3A0      #006=KLI$LINEPRO File=KLI$FESET.:E05TSI                            WED 07/30/97 00:57 Page:631
   8487  4 000237   000006 236000 5                  LDQ     6
         4 000240   200030 756100                    STQ     TEMP+4,,AUTO
         4 000241   200016 236100                    LDQ     OUT$,,AUTO
         4 000242   000004 036003                    ADLQ    4,DU
         4 000243   200027 756100                    STQ     TEMP+3,,AUTO
         4 000244   200014 236100                    LDQ     INBLKHDR$,,AUTO
         4 000245   000004 036003                    ADLQ    4,DU
         4 000246   200026 756100                    STQ     TEMP+2,,AUTO
         4 000247   200026 630500                    EPPR0   TEMP+2,,AUTO
         4 000250   000021 631400 xsym               EPPR1   B_VECTNIL+17
         4 000251   000000 701000 xent               TSX1    KLX$9TO8
         4 000252   000000 011000                    NOP     0

     3296     8488    2           CALL KLX$9TO8(KL$LNK.HIC,OUT$->KL$LNK.HIC,2);

   8488  4 000253   000006 236000 5                  LDQ     6
         4 000254   200030 756100                    STQ     TEMP+4,,AUTO
         4 000255   200016 236100                    LDQ     OUT$,,AUTO
         4 000256   000007 036000 5                  ADLQ    7
         4 000257   200027 756100                    STQ     TEMP+3,,AUTO
         4 000260   200014 236100                    LDQ     INBLKHDR$,,AUTO
         4 000261   000007 036000 5                  ADLQ    7
         4 000262   200026 756100                    STQ     TEMP+2,,AUTO
         4 000263   200026 630500                    EPPR0   TEMP+2,,AUTO
         4 000264   000021 631400 xsym               EPPR1   B_VECTNIL+17
         4 000265   000000 701000 xent               TSX1    KLX$9TO8
         4 000266   000000 011000                    NOP     0

     3297     8489    2           CALL KLX$9TO8(KL$LNK.LOC,OUT$->KL$LNK.LOC,2);

   8489  4 000267   000006 236000 5                  LDQ     6
         4 000270   200030 756100                    STQ     TEMP+4,,AUTO
         4 000271   200016 236100                    LDQ     OUT$,,AUTO
         4 000272   000005 036003                    ADLQ    5,DU
         4 000273   200027 756100                    STQ     TEMP+3,,AUTO
         4 000274   200014 236100                    LDQ     INBLKHDR$,,AUTO
         4 000275   000005 036003                    ADLQ    5,DU
PL6.E3A0      #006=KLI$LINEPRO File=KLI$FESET.:E05TSI                            WED 07/30/97 00:57 Page:632
         4 000276   200026 756100                    STQ     TEMP+2,,AUTO
         4 000277   200026 630500                    EPPR0   TEMP+2,,AUTO
         4 000300   000021 631400 xsym               EPPR1   B_VECTNIL+17
         4 000301   000000 701000 xent               TSX1    KLX$9TO8
         4 000302   000000 011000                    NOP     0

     3298     8490    2           CALL KLX$9TO8(KL$LNK.HOC,OUT$->KL$LNK.HOC,2);

   8490  4 000303   000006 236000 5                  LDQ     6
         4 000304   200030 756100                    STQ     TEMP+4,,AUTO
         4 000305   200016 236100                    LDQ     OUT$,,AUTO
         4 000306   000010 036000 5                  ADLQ    8
         4 000307   200027 756100                    STQ     TEMP+3,,AUTO
         4 000310   200014 236100                    LDQ     INBLKHDR$,,AUTO
         4 000311   000010 036000 5                  ADLQ    8
         4 000312   200026 756100                    STQ     TEMP+2,,AUTO
         4 000313   200026 630500                    EPPR0   TEMP+2,,AUTO
         4 000314   000021 631400 xsym               EPPR1   B_VECTNIL+17
         4 000315   000000 701000 xent               TSX1    KLX$9TO8
         4 000316   000000 011000                    NOP     0

     3299     8491    2           CALL KLX$8TO9(KL$LNK.BLKHDR.LEN,TEMP,2);

   8491  4 000317   000006 236000 5                  LDQ     6
         4 000320   200030 756100                    STQ     TEMP+4,,AUTO
         4 000321   200011 630500                    EPPR0   TEMP,,AUTO
         4 000322   200027 450500                    STP0    TEMP+3,,AUTO
         4 000323   200014 236100                    LDQ     INBLKHDR$,,AUTO
         4 000324   400000 036007                    ADLQ    -131072,DL
         4 000325   200026 756100                    STQ     TEMP+2,,AUTO
         4 000326   200026 630500                    EPPR0   TEMP+2,,AUTO
         4 000327   000021 631400 xsym               EPPR1   B_VECTNIL+17
         4 000330   000000 701000 xent               TSX1    KLX$8TO9
         4 000331   000000 011000                    NOP     0

     3300     8492    2           IN$ = PINCRC(IN$,TEMP);

PL6.E3A0      #006=KLI$LINEPRO File=KLI$FESET.:E05TSI                            WED 07/30/97 00:57 Page:633
   8492  4 000332   200011 236100                    LDQ     TEMP,,AUTO
         4 000333   777777 376003                    ANQ     -1,DU
         4 000334   000002 772000                    QRL     2
         4 000335   200017 036100                    ADLQ    IN$,,AUTO
         4 000336   200017 756100                    STQ     IN$,,AUTO

     3301     8493    2           OUTBLKHDR$=OUT$;

   8493  4 000337   200016 236100                    LDQ     OUT$,,AUTO
         4 000340   200015 756100                    STQ     OUTBLKHDR$,,AUTO

     3302     8494    2           OUT$=PINCRC(OUT$,TEMP);

   8494  4 000341   200011 236100                    LDQ     TEMP,,AUTO
         4 000342   777777 376003                    ANQ     -1,DU
         4 000343   000002 772000                    QRL     2
         4 000344   200016 036100                    ADLQ    OUT$,,AUTO
         4 000345   200016 756100                    STQ     OUT$,,AUTO

     3303     8495    2           CALL GETPRO(KL_HLPR.PNAME,OUTBLKHDR$->KL$BLKHDR) ALTRET(ALTOUT);

   8495  4 000346   200015 236100                    LDQ     OUTBLKHDR$,,AUTO
         4 000347   200022 756100                    STQ     @PRO+1,,AUTO
         4 000350   000005 236000 5                  LDQ     5
         4 000351   200021 756100                    STQ     IN$+2,,AUTO
         4 000352   000504 701000 4                  TSX1    GETPRO
         4 000353   000027 702000 4                  TSX2    ALTOUT

     3304     8496    2           TEMP = OUTBLKHDR$->KL$BLKHDR.PROOFFSET; /* set proofile offset*/

   8496  4 000354   200015 470500                    LDP0    OUTBLKHDR$,,AUTO
         4 000355   000100 101500                    MRL     fill='000'O
         4 000356   000001 200001                    ADSC9   1,,PR0                   cn=1,n=1
         4 000357   200011 000002                    ADSC9   TEMP,,AUTO               cn=0,n=2

     3305     8497    2           CALL GETPRO(KL$LNK.DFLTVCPRO,OUTBLKHDR$->KL$BLKHDR);

PL6.E3A0      #006=KLI$LINEPRO File=KLI$FESET.:E05TSI                            WED 07/30/97 00:57 Page:634
   8497  4 000360   200015 236100                    LDQ     OUTBLKHDR$,,AUTO
         4 000361   200022 756100                    STQ     @PRO+1,,AUTO
         4 000362   200014 236100                    LDQ     INBLKHDR$,,AUTO
         4 000363   000011 036000 5                  ADLQ    9
         4 000364   200021 756100                    STQ     IN$+2,,AUTO
         4 000365   000504 701000 4                  TSX1    GETPRO
         4 000366   000000 011000                    NOP     0

     3306     8498    2           OUTBLKHDR$->KL$BLKHDR.PROOFFSET = TEMP;

   8498  4 000367   200015 470500                    LDP0    OUTBLKHDR$,,AUTO
         4 000370   000100 101500                    MRL     fill='000'O
         4 000371   200011 000002                    ADSC9   TEMP,,AUTO               cn=0,n=2
         4 000372   000001 200001                    ADSC9   1,,PR0                   cn=1,n=1

     3307     8499    2           IF KL$LNK.BLKHDR.NSUBS>0 THEN

   8499  4 000373   200014 471500                    LDP1    INBLKHDR$,,AUTO
         4 000374   100000 236100                    LDQ     0,,PR1
         4 000375   000777 316003                    CANQ    511,DU
         4 000376   000470 600000 4                  TZE     s:8517

     3308     8500    3           DO I=0 TO KL$LNK.BLKHDR.NSUBS-1;

   8500  4 000377   200010 450100                    STZ     I,,AUTO
         4 000400   000461 710000 4                  TRA     s:8515+3

     3309     8501    4                IF IN$->KL$LNK.BLKHDR.BLKTYP = %KLTY_LINKDEV# THEN DO;

   8501  4 000401   200017 470500                    LDP0    IN$,,AUTO
         4 000402   000001 236100                    LDQ     1,,PR0
         4 000403   777000 376003                    ANQ     -512,DU
         4 000404   013000 116003                    CMPQ    5632,DU
         4 000405   000435 601000 4                  TNZ     s:8508

     3310     8502    4                     OUT$->KL$LINKDEV = IN$->KL$LINKDEV;

PL6.E3A0      #006=KLI$LINEPRO File=KLI$FESET.:E05TSI                            WED 07/30/97 00:57 Page:635
   8502  4 000406   200016 471500                    LDP1    OUT$,,AUTO
         4 000407   000100 100500                    MLR     fill='000'O
         4 000410   000000 000030                    ADSC9   0,,PR0                   cn=0,n=24
         4 000411   100000 000030                    ADSC9   0,,PR1                   cn=0,n=24

     3311     8503    4                    CALL KLX$9TO8(IN$->KL$LINKDEV.CIRCUITS#,OUT$->KL$LINKDEV.CIRCUITS#
              8503                              ,2);

   8503  4 000412   000006 236000 5                  LDQ     6
         4 000413   200030 756100                    STQ     TEMP+4,,AUTO
         4 000414   200016 236100                    LDQ     OUT$,,AUTO
         4 000415   000002 036003                    ADLQ    2,DU
         4 000416   200027 756100                    STQ     TEMP+3,,AUTO
         4 000417   200017 236100                    LDQ     IN$,,AUTO
         4 000420   000002 036003                    ADLQ    2,DU
         4 000421   200026 756100                    STQ     TEMP+2,,AUTO
         4 000422   200026 630500                    EPPR0   TEMP+2,,AUTO
         4 000423   000021 631400 xsym               EPPR1   B_VECTNIL+17
         4 000424   000000 701000 xent               TSX1    KLX$9TO8
         4 000425   000000 011000                    NOP     0

     3312     8504    4                     IN$ = PINCRC(IN$,SIZEC(KL$LINKDEV));

   8504  4 000426   200017 236100                    LDQ     IN$,,AUTO
         4 000427   000006 036003                    ADLQ    6,DU
         4 000430   200017 756100                    STQ     IN$,,AUTO

     3313     8505    4                     OUT$ = PINCRC(OUT$,SIZEC(KL$LINKDEV));

   8505  4 000431   200016 236100                    LDQ     OUT$,,AUTO
         4 000432   000006 036003                    ADLQ    6,DU
         4 000433   200016 756100                    STQ     OUT$,,AUTO

     3314     8506    4                   END;

   8506  4 000434   000456 710000 4                  TRA     s:8515

PL6.E3A0      #006=KLI$LINEPRO File=KLI$FESET.:E05TSI                            WED 07/30/97 00:57 Page:636
     3315     8507    4                ELSE DO;

     3316     8508    4                     OUT$->KL$LNKVC=IN$->KL$LNKVC;

   8508  4 000435   200016 471500                    LDP1    OUT$,,AUTO
         4 000436   000100 100500                    MLR     fill='000'O
         4 000437   000000 000060                    ADSC9   0,,PR0                   cn=0,n=48
         4 000440   100000 000060                    ADSC9   0,,PR1                   cn=0,n=48

     3317     8509    4                     IN$=PINCRC(IN$,SIZEC(KL$LNKVC));

   8509  4 000441   200017 236100                    LDQ     IN$,,AUTO
         4 000442   000014 036003                    ADLQ    12,DU
         4 000443   200017 756100                    STQ     IN$,,AUTO

     3318     8510    4                     OUTBLKHDR$=OUT$;

   8510  4 000444   200016 236100                    LDQ     OUT$,,AUTO
         4 000445   200015 756100                    STQ     OUTBLKHDR$,,AUTO

     3319     8511    4                     OUT$=PINCRC(OUT$,SIZEC(KL$LNKVC));

   8511  4 000446   000014 036003                    ADLQ    12,DU
         4 000447   200016 756100                    STQ     OUT$,,AUTO

     3320     8512    4                     CALL GETPRO(OUTBLKHDR$->KL$LNKVC.PRONM,OUTBLKHDR$->KL$BLKHDR)

   8512  4 000450   200015 236100                    LDQ     OUTBLKHDR$,,AUTO
         4 000451   200022 756100                    STQ     @PRO+1,,AUTO
         4 000452   000007 036003                    ADLQ    7,DU
         4 000453   200021 756100                    STQ     IN$+2,,AUTO
         4 000454   000504 701000 4                  TSX1    GETPRO
         4 000455   000027 702000 4                  TSX2    ALTOUT

     3321     8513    4                          ALTRET(ALTOUT);
     3322     8514    4                   END;

PL6.E3A0      #006=KLI$LINEPRO File=KLI$FESET.:E05TSI                            WED 07/30/97 00:57 Page:637
     3323     8515    3              END;

   8515  4 000456   200010 235100                    LDA     I,,AUTO
         4 000457   000001 035007                    ADLA    1,DL
         4 000460   200010 755100                    STA     I,,AUTO
         4 000461   200014 470500                    LDP0    INBLKHDR$,,AUTO
         4 000462   000000 236100                    LDQ     0,,PR0
         4 000463   000022 772000                    QRL     18
         4 000464   000777 376007                    ANQ     511,DL
         4 000465   200010 116100                    CMPQ    I,,AUTO
         4 000466   000470 600000 4                  TZE     s:8517
         4 000467   000401 603000 4                  TRC     s:8501

     3324     8516    2        END;                               /* CASE KL$BLKHDR.BLKTYP */

     3325     8517    1        CALL KLX$9TO8(MSGSIZE,KL$CHNRSP.MESSAGE.MSGSIZE,2);

   8517  4 000470   000006 236000 5                  LDQ     6
         4 000471   200030 756100                    STQ     TEMP+4,,AUTO
         4 000472   000000 236000 xsym               LDQ     KL_EXTRSP_BUF$
         4 000473   000015 036003                    ADLQ    13,DU
         4 000474   200027 756100                    STQ     TEMP+3,,AUTO
         4 000475   200012 630500                    EPPR0   MSGSIZE,,AUTO
         4 000476   200026 450500                    STP0    TEMP+2,,AUTO
         4 000477   200026 630500                    EPPR0   TEMP+2,,AUTO
         4 000500   000021 631400 xsym               EPPR1   B_VECTNIL+17
         4 000501   000000 701000 xent               TSX1    KLX$9TO8
         4 000502   000000 011000                    NOP     0

     3326     8518    1        RETURN;

   8518  4 000503   000000 702200 xent               TSX2  ! X66_ARET

     3327     8519        %EJECT;
PL6.E3A0      #006=KLI$LINEPRO File=KLI$FESET.:E05TSI                            WED 07/30/97 00:57 Page:638
     3328     8520    1   GETPRO: PROC(PRO,BLKHDR) ALTRET;

   8520  4 000504   200020 741300       GETPRO       STX1  ! IN$+1,,AUTO

     3329     8521    2   DCL 1 PRO CALIGNED,
     3330     8522    2            2 LEN UBIN BYTE UNAL,
     3331     8523    2            2 TXT CHAR(11);
     3332     8524        %KL_BLKHDR(NAME=BLKHDR,STCLASS=PARAM,ALGN=CALIGNED);
     3333     8619    2   DCL PSIZ UBIN;
     3334     8620    2   DCL TEMP UBIN HALF;
     3335     8621    2   DCL CHR$PSIZ CHAR(PSIZ) BASED;
     3336     8622
     3337     8623    2        IF PRO.LEN=0 THEN RETURN;

   8623  4 000505   200021 470500                    LDP0    @PRO,,AUTO
         4 000506   000100 101500                    MRL     fill='000'O
         4 000507   000000 000001                    ADSC9   0,,PR0                   cn=0,n=1
         4 000510   200026 000004                    ADSC9   TEMP+2,,AUTO             cn=0,n=4
         4 000511   200026 236100                    LDQ     TEMP+2,,AUTO
         4 000512   000000 116003                    CMPQ    0,DU
         4 000513   000515 601000 4                  TNZ     s:8624

   8623  4 000514   000001 702211                    TSX2  ! 1,X1

     3338     8624    2        KL_PROKEY=PRO;

   8624  4 000515   000000 100500                    MLR     fill='000'O
         4 000516   000000 000014                    ADSC9   0,,PR0                   cn=0,n=12
         4 000517   000000 000015 xsym               ADSC9   KL_PROKEY                cn=0,n=13

     3339     8625    3        CALL M$READ(KL_RDPROR) WHENALTRETURN DO;

   8625  4 000520   000000 630400 xsym               EPPR0   KL_RDPROR
         4 000521   440000 713400                    CLIMB   alt,read
         4 000522   401400 401760                    pmme    nvectors=4
         4 000523   000525 702000 4                  TSX2    s:8626
         4 000524   000527 710000 4                  TRA     s:8628
PL6.E3A0      #006=KLI$LINEPRO File=KLI$FESET.:E05TSI                            WED 07/30/97 00:57 Page:639

     3340     8626    3             ALTRETURN;

   8626  4 000525   200020 221300                    LDX1  ! IN$+1,,AUTO
         4 000526   000000 702211                    TSX2  ! 0,X1

     3341     8627    3           END;
     3342     8628    2        PSIZ=DCBADDR(DCBNUM(M$PROF))->F$DCB.ARS#-SIZEC(KL$PHDR);

   8628  4 000527   000000 236007 xsym               LDQ     M$PROF,DL
         4 000530   000003 470400 5                  LDP0    3
         4 000531   000000 471500                    LDP1    0,,PR0
         4 000532   100000 473506                    LDP3    0,QL,PR1
         4 000533   300000 235100                    LDA     0,,PR3
         4 000534   000120 135007                    SBLA    80,DL
         4 000535   200023 755100                    STA     PSIZ,,AUTO

     3343     8629    2        OUT$->CHR$PSIZ=PINCRC(ADDR(KL_PROBUF),SIZEC(KL$PHDR))->CHR$PSIZ;

   8629  4 000536   000000 620005                    EAX0    0,AL
         4 000537   200016 473500                    LDP3    OUT$,,AUTO
         4 000540   200023 721100                    LXL1    PSIZ,,AUTO
         4 000541   040140 100440                    MLR     fill='040'O
         4 000542   000024 000010 xsym               ADSC9   KL_PROBUF+20             cn=0,n=*X0
         4 000543   300000 000011                    ADSC9   0,,PR3                   cn=0,n=*X1

     3344     8630    2        MSGSIZE=MSGSIZE+PSIZ;

   8630  4 000544   200012 236100                    LDQ     MSGSIZE,,AUTO
         4 000545   000022 772000                    QRL     18
         4 000546   200023 036100                    ADLQ    PSIZ,,AUTO
         4 000547   000000 620006                    EAX0    0,QL
         4 000550   200012 740100                    STX0    MSGSIZE,,AUTO

     3345     8631    2        CALL KLX$8TO9(BLKHDR.LEN,TEMP,2);

   8631  4 000551   000006 236000 5                  LDQ     6
PL6.E3A0      #006=KLI$LINEPRO File=KLI$FESET.:E05TSI                            WED 07/30/97 00:57 Page:640
         4 000552   200030 756100                    STQ     TEMP+4,,AUTO
         4 000553   200024 634500                    EPPR4   TEMP,,AUTO
         4 000554   200027 454500                    STP4    TEMP+3,,AUTO
         4 000555   200022 236100                    LDQ     @BLKHDR,,AUTO
         4 000556   400000 036007                    ADLQ    -131072,DL
         4 000557   200026 756100                    STQ     TEMP+2,,AUTO
         4 000560   200026 630500                    EPPR0   TEMP+2,,AUTO
         4 000561   000021 631400 xsym               EPPR1   B_VECTNIL+17
         4 000562   000000 701000 xent               TSX1    KLX$8TO9
         4 000563   000000 011000                    NOP     0

     3346     8632    2        TEMP=TEMP+PSIZ;

   8632  4 000564   200024 236100                    LDQ     TEMP,,AUTO
         4 000565   000022 772000                    QRL     18
         4 000566   200023 036100                    ADLQ    PSIZ,,AUTO
         4 000567   000000 620006                    EAX0    0,QL
         4 000570   200024 740100                    STX0    TEMP,,AUTO

     3347     8633    2        CALL KLX$9TO8(TEMP,BLKHDR.LEN,2);

   8633  4 000571   000006 236000 5                  LDQ     6
         4 000572   200030 756100                    STQ     TEMP+4,,AUTO
         4 000573   200022 236100                    LDQ     @BLKHDR,,AUTO
         4 000574   400000 036007                    ADLQ    -131072,DL
         4 000575   200027 756100                    STQ     TEMP+3,,AUTO
         4 000576   200024 630500                    EPPR0   TEMP,,AUTO
         4 000577   200026 450500                    STP0    TEMP+2,,AUTO
         4 000600   200026 630500                    EPPR0   TEMP+2,,AUTO
         4 000601   000021 631400 xsym               EPPR1   B_VECTNIL+17
         4 000602   000000 701000 xent               TSX1    KLX$9TO8
         4 000603   000000 011000                    NOP     0

     3348     8634    2        BLKHDR.PROOFFSET=POFFC(OUT$,ADDR(BLKHDR));

   8634  4 000604   200022 236100                    LDQ     @BLKHDR,,AUTO
         4 000605   000020 772000                    QRL     16
PL6.E3A0      #006=KLI$LINEPRO File=KLI$FESET.:E05TSI                            WED 07/30/97 00:57 Page:641
         4 000606   200026 756100                    STQ     TEMP+2,,AUTO
         4 000607   200016 236100                    LDQ     OUT$,,AUTO
         4 000610   000020 772000                    QRL     16
         4 000611   200026 136100                    SBLQ    TEMP+2,,AUTO
         4 000612   200027 756100                    STQ     TEMP+3,,AUTO
         4 000613   200022 470500                    LDP0    @BLKHDR,,AUTO
         4 000614   000100 101500                    MRL     fill='000'O
         4 000615   200027 000004                    ADSC9   TEMP+3,,AUTO             cn=0,n=4
         4 000616   000001 200001                    ADSC9   1,,PR0                   cn=1,n=1

     3349     8635    2        OUT$=PINCRC(OUT$,PSIZ);

   8635  4 000617   200023 236100                    LDQ     PSIZ,,AUTO
         4 000620   000020 736000                    QLS     16
         4 000621   200016 036100                    ADLQ    OUT$,,AUTO
         4 000622   200016 756100                    STQ     OUT$,,AUTO

     3350     8636    2        RETURN;

   8636  4 000623   200020 221300                    LDX1  ! IN$+1,,AUTO
         4 000624   000001 702211                    TSX2  ! 1,X1
     3351     8637    2   END GETPRO;
     3352     8638    1   END KLI$LINEPRO;

PL6.E3A0      #006=KLI$LINEPRO File=KLI$FESET.:E05TSI                            WED 07/30/97 00:57 Page:642
--  Include file information  --

   KL_SUPER_C.:E05TOU  is referenced.
   KL_MACRO_C.:E05TOU  is referenced.
   KL_NETWORK_M.:E05TOU  is referenced.
   OC$MESSHD_C.:E05TOU  is referenced.
   KL_DATA_R.:E05TOU  cannot be made into a system file and is referenced.
   CP_6.:E05TOU  cannot be made into a system file and is referenced.
   B$JIT_C.:E05TOU  was found in the system file and is never referenced.
   CP_6_C.:E05TOU  was found in the system file and is referenced.
      No diagnostics issued in procedure KLI$LINEPRO.
PL6.E3A0      #006=KLI$LINEPRO File=KLI$FESET.:E05TSI                            WED 07/30/97 00:57 Page:643

 **** Variables and constants ****

  ****  Auto variables  ****

  ****  Scalars and arrays  ****
OctLoc.c.b A Datatyp(siz) R M Lvl/name                 OctLoc.c.b A Datatyp(siz) R M Lvl/name

     3-0-0/w PTR         r     1 @ACCT                     22-0-0/w PTR         r     1 @BLKHDR
     5-0-0/w PTR         r     1 @PASS                     21-0-0/w PTR         r     1 @PRO
     4-0-0/w PTR         r     1 @UNAME                    *0-0-0/c CHAR(8)     r     1 ACCT
    *0-0-0/c STRC(72)    r     1 BLKHDR                    10-0-0/w UBIN        r     1 I
    17-0-0/w PTR         r     1 IN$                       14-0-0/w PTR         r     1 INBLKHDR$
    12-0-0/w UBIN(18)    r     1 MSGSIZE                   16-0-0/w PTR         r     1 OUT$
    15-0-0/w PTR         r     1 OUTBLKHDR$                *0-0-0/c CHAR(8)     r     1 PASS
    *0-0-0/c STRC(108)   r     1 PRO                       23-0-0/w UBIN        r     1 PSIZ
     6-0-0/c CHAR(8)     r     1 PW                        13-0-0/w UBIN        r     1 SIZELEFT
    11-0-0/w UBIN(18)    r     1 TEMP                      24-0-0/w UBIN(18)    r     1 TEMP
    *0-0-0/c STRC(117)   r     1 UNAME

  ****  SYMREF variables  ****

  ****  Scalars and arrays  ****
OctLoc.c.b A Datatyp(siz) R M Lvl/name                 OctLoc.c.b A Datatyp(siz) R M Lvl/name

     0-0-0/w PTR         r     1 KL_EXTRSP_BUF$             0-0-0/d STRC(189)   r     1 KL_HLPKEY
     0-0-0/w STRC(1593)  r     1 KL_HLPR                    0-0-0/b BIT         r     1 KL_NETWORK_VALID
     0-0-0/w STRC(720)   r     1 KL_PROBUF                  0-0-0/d STRC(117)   r     1 KL_PROKEY
     0-0-0/d STRC(504)   r     1 KL_RDHLPR                  0-0-0/d STRC(504)   r     1 KL_RDPROR

  ****  BASED and DCB variables  ****

  ****  Scalars and arrays  ****
OctLoc.c.b A Datatyp(siz) R M Lvl/name                 OctLoc.c.b A Datatyp(siz) R M Lvl/name

     0-0-0/c ACHR        r     1 CHR$PSIZ                   0-0-0/c ACHR        r     1 CHR$SIZELEFT
     0-0-0/d ASTR(3528)  r     1 F$DCB                      0-0-0/c STRC(72)    r     1 KL$BLKHDR
     0-0-0/w STRC(2781)  r     1 KL$CHNRSP                  0-0-0/w STRC(828)   r     1 KL$HASP
PL6.E3A0      #006=KLI$LINEPRO File=KLI$FESET.:E05TSI                            WED 07/30/97 00:57 Page:644
     0-0-0/c STRC(216)   r     1 KL$LINKDEV                 0-0-0/w STRC(108)   r     1 KL$LN3270
     0-0-0/w STRC(432)   r     1 KL$LNK                     0-0-0/w STRC(432)   r     1 KL$LNKVC
     0-0-0/c STRC(720)   r     1 KL$PHDR                    0-0-0N  NULL        r     1 M$HLPF
     0-0-0N  NULL        r     1 M$PROF


   Procedure KLI$LINEPRO requires 405 words for executable code.
   Procedure KLI$LINEPRO requires 26 words of local(AUTO) storage.

    No errors detected in file KLI$FESET.:E05TSI    .
PL6.E3A0      #006=KLI$LINEPRO File=KLI$FESET.:E05TSI                            WED 07/30/97 00:57 Page:645
          *** CROSS REFERENCE LISTING ***
**     DENOTES     IDENTIFIER DEFINITION
<<                 IDENTIFIER'S VALUE SET
>>                 IDENTIFIER'S VALUE USED
<>                 IDENTIFIER SET AND/OR USED
--                 IDENTIFIER REFERENCED
PL6.E3A0      #006=KLI$LINEPRO File=KLI$FESET.:E05TSI                            WED 07/30/97 00:57 Page:646
          MINI XREF LISTING

ACCT
        39**DCL        36--PROC     8441>>ASSIGN
ALTOUT
      8445**LABEL    8451--GOTO     8454--GOTO     8468--GOTO     8475--CALLALT  8483--CALLALT  8495--CALLALT
      8512--CALLALT
ASZ$SCRAMBLE
      8436**DCL-ENT  8450--CALL
BLKHDR IN PROCEDURE GETPRO
      8538**DCL      8520--PROC     8634--ASSIGN
BLKHDR.LEN IN PROCEDURE GETPRO
      8557**DCL      8631<>CALL     8633<>CALL
BLKHDR.PROOFFSET IN PROCEDURE GETPRO
      8589**DCL      8634<<ASSIGN
CHR$PSIZ IN PROCEDURE GETPRO
      8621**DCL      8629<<ASSIGN   8629>>ASSIGN
CHR$SIZELEFT
      6850**DCL      8476<<ASSIGN   8476>>ASSIGN   8484<<ASSIGN   8484>>ASSIGN
F$DCB.ACTPOS
      8293**DCL      8293--REDEF
F$DCB.ARS#
      8267**DCL      8267--REDEF    8464>>ASSIGN   8628>>ASSIGN
F$DCB.ATTR
      8286**DCL      8287--REDEF
F$DCB.BORROW
      8301**DCL      8301--REDEF    8301--REDEF    8301--REDEF
F$DCB.DCBNAME.L
      8315**DCL      8315--IMP-SIZ
F$DCB.EOMCHAR#
      8271**DCL      8271--REDEF
F$DCB.FLDID
      8296**DCL      8296--REDEF
F$DCB.FORM$
PL6.E3A0      #006=KLI$LINEPRO File=KLI$FESET.:E05TSI                            WED 07/30/97 00:57 Page:647
      8290**DCL      8290--REDEF
F$DCB.FSECT
      8306**DCL      8306--REDEF
F$DCB.FSN#
      8283**DCL      8283--REDEF    8283--REDEF    8284--REDEF
F$DCB.HEADER$
      8289**DCL      8289--REDEF
F$DCB.IXTNSIZE#
      8287**DCL      8287--REDEF
F$DCB.LASTSTA$
      8276**DCL      8276--REDEF
F$DCB.LVL
      8302**DCL      8302--REDEF
F$DCB.NAME#.C
      8277**DCL      8277--REDEF
F$DCB.NOEOF
      8299**DCL      8299--REDEF
F$DCB.NRECS#
      8288**DCL      8288--REDEF
F$DCB.NRECX
      8307**DCL      8307--REDEF
F$DCB.OHDR
      8299**DCL      8299--REDEF
F$DCB.ORG#
      8282**DCL      8282--REDEF
F$DCB.PRECNO
      8305**DCL      8305--REDEF
F$DCB.RCSZ
      8311**DCL      8311--REDEF
F$DCB.RES#
      8278**DCL      8278--REDEF
F$DCB.SETX
      8290**DCL      8290--REDEF
F$DCB.TAB$
      8290**DCL      8290--REDEF
F$DCB.TDA
PL6.E3A0      #006=KLI$LINEPRO File=KLI$FESET.:E05TSI                            WED 07/30/97 00:57 Page:648
      8304**DCL      8305--REDEF
F$DCB.WSN#
      8278**DCL      8278--REDEF
GETPRO
      8520**PROC     8475--CALL     8483--CALL     8495--CALL     8497--CALL     8512--CALL
I
      6846**DCL      8500<<DOINDEX
IN$
      6854**DCL      8463<<ASSIGN   8472<<ASSIGN   8472>>ASSIGN   8476>>ASSIGN   8480<<ASSIGN   8480>>ASSIGN
      8484>>ASSIGN   8492<<ASSIGN   8492>>ASSIGN   8501>>IF       8502>>ASSIGN   8503>>CALL     8504<<ASSIGN
      8504>>ASSIGN   8508>>ASSIGN   8509<<ASSIGN   8509>>ASSIGN
INBLKHDR$
      6851**DCL      6869--IMP-PTR  6965--IMP-PTR  7115--IMP-PTR  7259--IMP-PTR  7481--IMP-PTR  7707--IMP-PTR
      8456<<ASSIGN   8458<<ASSIGN   8460<<ASSIGN   8463>>ASSIGN   8464>>ASSIGN   8466>>DOCASE   8470>>ASSIGN
      8478>>ASSIGN   8486>>ASSIGN   8487>>CALL     8488>>CALL     8489>>CALL     8490>>CALL     8491>>CALL
      8497>>CALL     8499>>IF       8500>>DOINDEX
KL$BLKHDR
      6869**DCL      8475<>CALL     8483<>CALL     8495<>CALL     8497<>CALL     8512<>CALL
KL$BLKHDR.BLKTYP
      6897**DCL      8466>>DOCASE
KL$BLKHDR.PROOFFSET
      6920**DCL      8496>>ASSIGN   8498<<ASSIGN
KL$CHNRSP.MESSAGE.MESSAGE
      8256**DCL      8462--ASSIGN
KL$CHNRSP.MESSAGE.MSGSIZE
      8248**DCL      8446<<ASSIGN   8517<>CALL
KL$CHNRSP.NAK
      8074**DCL      8445<<ASSIGN
KL$CHNRSP.TERMINAL_ID.TERM
      8106**DCL      8115--REDEF
KL$HASP
      6965**DCL      8470<<ASSIGN   8470>>ASSIGN   8471--ASSIGN   8472--ASSIGN   8474--ASSIGN
KL$LINKDEV
      7707**DCL      8502<<ASSIGN   8502>>ASSIGN   8504--ASSIGN   8505--ASSIGN
KL$LINKDEV.CIRCUITS#
      7825**DCL      8503<>CALL     8503<>CALL
PL6.E3A0      #006=KLI$LINEPRO File=KLI$FESET.:E05TSI                            WED 07/30/97 00:57 Page:649
KL$LN3270
      7115**DCL      8478<<ASSIGN   8478>>ASSIGN   8479--ASSIGN   8480--ASSIGN   8482--ASSIGN
KL$LNK
      7259**DCL      8486<<ASSIGN   8486>>ASSIGN
KL$LNK.BLKHDR.BLKTYP
      7305**DCL      8501>>IF
KL$LNK.BLKHDR.LEN
      7296**DCL      8491<>CALL
KL$LNK.BLKHDR.NSUBS
      7292**DCL      8499>>IF       8500>>DOINDEX
KL$LNK.DFLTVCPRO
      7424**DCL      8497<>CALL
KL$LNK.HIC
      7397**DCL      8488<>CALL     8488<>CALL
KL$LNK.HOC
      7407**DCL      8490<>CALL     8490<>CALL
KL$LNK.LIC
      7392**DCL      8487<>CALL     8487<>CALL
KL$LNK.LOC
      7402**DCL      8489<>CALL     8489<>CALL
KL$LNKVC
      7481**DCL      8508<<ASSIGN   8508>>ASSIGN   8509--ASSIGN   8511--ASSIGN
KL$LNKVC.CUG
      7580**DCL      7624--REDEF
KL$LNKVC.PRONM
      7651**DCL      8512<>CALL
KL$PHDR
      7874**DCL      8628--ASSIGN   8629--ASSIGN
KLX$8TO9
      8437**DCL-ENT  8491--CALL     8631--CALL
KLX$9TO8
      8438**DCL-ENT  8487--CALL     8488--CALL     8489--CALL     8490--CALL     8503--CALL     8517--CALL
      8633--CALL
KL_AUTOFAIL.FLAGS
       429**DCL       430--REDEF
KL_AUTOFAIL.MSGID
PL6.E3A0      #006=KLI$LINEPRO File=KLI$FESET.:E05TSI                            WED 07/30/97 00:57 Page:650
       425**DCL       426--REDEF
KL_AUTOFAIL.WSN
       432**DCL       433--REDEF
KL_EXTRSP_BUF$
       586**DCL      8055--IMP-PTR  8445>>ASSIGN   8446>>ASSIGN   8462>>ASSIGN   8517>>CALL
KL_FEMSG.FLAGS
       379**DCL       380--REDEF
KL_FEMSG.MSGID
       375**DCL       376--REDEF
KL_FEMSG.WSN
       382**DCL       383--REDEF
KL_HLPKEY.ACCT
       451**DCL      8441<<ASSIGN
KL_HLPKEY.CNT
       450**DCL      8443<<ASSIGN
KL_HLPKEY.NAME
       452**DCL      8442<<ASSIGN
KL_HLPR
      7915**DCL      8464--ASSIGN
KL_HLPR.ATYP
      7920**DCL      8452>>DOCASE
KL_HLPR.GJOB_OR_REST
      8031**DCL      8458--ASSIGN   8460--ASSIGN
KL_HLPR.PASSWORD
      7973**DCL      7977--REDEF    8451>>IF
KL_HLPR.PNAME
      7979**DCL      8475<>CALL     8483<>CALL     8495<>CALL
KL_HLPR.RENAME
      7996**DCL      7997--REDEF
KL_HLPR.REST
      8039**DCL      8456--ASSIGN
KL_NETWORK_BUF.TERMINAL_ID.TERM
       569**DCL       578--REDEF
KL_NETWORK_KEY.KEY.TERMID.TERM
       495**DCL       504--REDEF
KL_NETWORK_VALID
PL6.E3A0      #006=KLI$LINEPRO File=KLI$FESET.:E05TSI                            WED 07/30/97 00:57 Page:651
       358**DCL      8440<<ASSIGN
KL_PROBUF
      8330**DCL      8629--ASSIGN
KL_PROKEY
       453**DCL      8624<<ASSIGN
KL_RDBF.FEL#
       338**DCL       339--REDEF
KL_RDHLPR
      8375**DCL      8444<>CALL
KL_RDHLPR.STATION_
      8378**DCL      8379--REDEF
KL_RDHLPR.V.DVBYTE.REREAD#
      8390**DCL      8390--REDEF
KL_RDHLPR.V.INDX#
      8388**DCL      8388--REDEF
KL_RDPROR
      8414**DCL      8625<>CALL
KL_RDPROR.STATION_
      8417**DCL      8418--REDEF
KL_RDPROR.V.DVBYTE.REREAD#
      8429**DCL      8429--REDEF
KL_RDPROR.V.INDX#
      8427**DCL      8427--REDEF
KL_TMSG.FLAGS
       401**DCL       402--REDEF
KL_TMSG.MSGID
       397**DCL       398--REDEF
KL_TMSG.WSN
       404**DCL       405--REDEF
M$HLPF
      6843**DCL      8464--ASSIGN
M$PROF
      6844**DCL      8628--ASSIGN
M$READ
        54**DCL-ENT  8444--CALL     8625--CALL
MSGSIZE
PL6.E3A0      #006=KLI$LINEPRO File=KLI$FESET.:E05TSI                            WED 07/30/97 00:57 Page:652
      6848**DCL      8464<<ASSIGN   8471>>ASSIGN   8479>>ASSIGN   8517<>CALL     8630<<ASSIGN   8630>>ASSIGN
OUT$
      6853**DCL      8462<<ASSIGN   8470>>ASSIGN   8473>>ASSIGN   8474<<ASSIGN   8474>>ASSIGN   8476>>ASSIGN
      8478>>ASSIGN   8481>>ASSIGN   8482<<ASSIGN   8482>>ASSIGN   8484>>ASSIGN   8486>>ASSIGN   8487>>CALL
      8488>>CALL     8489>>CALL     8490>>CALL     8493>>ASSIGN   8494<<ASSIGN   8494>>ASSIGN   8502>>ASSIGN
      8503>>CALL     8505<<ASSIGN   8505>>ASSIGN   8508>>ASSIGN   8510>>ASSIGN   8511<<ASSIGN   8511>>ASSIGN
      8629>>ASSIGN   8634>>ASSIGN   8635<<ASSIGN   8635>>ASSIGN
OUTBLKHDR$
      6852**DCL      8473<<ASSIGN   8475>>CALL     8481<<ASSIGN   8483>>CALL     8493<<ASSIGN   8495>>CALL
      8496>>ASSIGN   8497>>CALL     8498>>ASSIGN   8510<<ASSIGN   8512>>CALL     8512>>CALL
PASS
        43**DCL        36--PROC     8449>>ASSIGN
PRO IN PROCEDURE GETPRO
      8521**DCL      8520--PROC     8624>>ASSIGN
PRO.LEN IN PROCEDURE GETPRO
      8522**DCL      8623>>IF
PSIZ IN PROCEDURE GETPRO
      8619**DCL      8621--IMP-SIZ  8628<<ASSIGN   8629>>ASSIGN   8629>>ASSIGN   8630>>ASSIGN   8632>>ASSIGN
      8635>>ASSIGN
PW
      6845**DCL      8449<<ASSIGN   8450<>CALL     8451>>IF
SIZELEFT
      6849**DCL      6850--IMP-SIZ  8471<<ASSIGN   8476>>ASSIGN   8476>>ASSIGN   8479<<ASSIGN   8484>>ASSIGN
      8484>>ASSIGN
TEMP
      6847**DCL      8491<>CALL     8492>>ASSIGN   8494>>ASSIGN   8496<<ASSIGN   8498>>ASSIGN
TEMP IN PROCEDURE GETPRO
      8620**DCL      8631<>CALL     8632<<ASSIGN   8632>>ASSIGN   8633<>CALL
UNAME
        40**DCL        36--PROC
UNAME.C
        41**DCL      8443>>ASSIGN
UNAME.T
        42**DCL      8442>>ASSIGN
