VERSION E05

PL6.E3A0      #001=KLI$FESET File=KLI$FESET.:E05TSI                              WED 07/30/97 00:49 Page:1
        1        1        /*M* KLI$FESET Routines to control and report FEP condition*/
        2        2        /*T***********************************************************/
        3        3        /*T*                                                         */
        4        4        /*T* Copyright (c) Bull HN Information Systems Inc., 1997    */
        5        5        /*T*                                                         */
        6        6        /*T***********************************************************/
        7        7        /*X* DMR,PLM=5,IND=5,CTI=5,SDI=5,MCL=10,CSI=0,ECI=0 */
        8        8        /**/
        9        9        /**/
       10       10        KLI$FESET: PROC;
       11       11        /**/
       12       12        /**/
       13       13        %INCLUDE CP_6;
       14       94        %INCLUDE JC_SCODE_C;
       15      110        %INCLUDE KL_DATA_R;
       16      574        %INCLUDE KL_MACRO_C;
       17     3926        %INCLUDE KL_AFCN_C;
       18     4027        /**/
       19     4028    1   DCL FOI$CRASH ENTRY(3) ALTRET;
       20     4029    1   DCL FOI$CRASHGO ENTRY(3) ALTRET;
       21     4030    1   DCL KLH$OPFILS ENTRY ALTRET;
       22     4031        /**/
       23     4032        /**/
       24     4033        %FPT_OPEN (FPTN=OPNCG,STCLASS=CONSTANT,DCB=M$HLP,NAME=HLPCG,CTG=YES,
       25     4034                   ASN=COMGROUP,FUN=CREATE,EXIST=NEWFILE,AU=YES,
       26     4035                   SHARE=ALL,SETSTA=CSST,IXTNSIZE=100,ACSVEH=HLPCG_ACSVEH);
       27     4144        %VLP_ATTR (FPTN=HLPCG_ACSVEH);
       28     4158        %VLP_ACSVEH (READ=YES,UPD=YES,WNEW=YES,VEHICLE='SLUG');
       29     4175        %VLP_ACSVEH (READ=YES,UPD=YES,WNEW=YES,VEHICLE='NETCON?');
       30     4192        %VLP_ACSVEH (READ=YES,UPD=YES,WNEW=YES,VEHICLE='STATS?',LAST=";");
       31     4209        %FPT_CGCTL (FPTN=HLPCTL,STCLASS=CONSTANT,DCB=M$HLP,CGCP=HLPPRM);
       32     4232        %VLP_CGCP (FPTN=HLPPRM,STCLASS=CONSTANT,CONMSG=YES,
       33     4233                   TERMCONAU=NO,DCBCONAU=YES,TERMCONNAU=NO,DCBCONNAU=NO,
       34     4234                   AUCONTERM=NC,AUCONDCB=DEACTIVATE,AUDCONTERM=NC,
       35     4235                   AUDCONDCB=DEACTIVATE,XSTALGL=YES,WAS=NO,RAS=NO,SMD=NO,XTYPLGL=YES,
       36     4236                   MAXMC=4096,DCBCONLGL=YES,TERMCONLGL=YES,INPUT=YES,OUTPUT=YES,
       37     4237        /* DRML=YES is required to keep SLUG from being SQA'd when a FEP is hung */
PL6.E3A0      #001=KLI$FESET File=KLI$FESET.:E05TSI                              WED 07/30/97 00:49 Page:2
       38     4238                   TRMRDSIZ=2048,DRML=YES,MINPG=3,DATAPGS=67,
       39     4239                  MAXPG=50,
       40     4240                   SECURE=NO);
       41     4283        %FPT_READ (FPTN=KL_RDHLP,STCLASS=SYMREF);
       42     4322        %VLP_NAME (FPTN=HLPCG,NAME='HLPCG',STCLASS=CONSTANT);
       43     4349        %VLP_SETSTA (FPTN=CSST,STCLASS=CONSTANT,MYSTATION='HLPADMIN');
       44     4377        /**/
       45     4378        %SUB F_KL='1314'O;
       46     4379        %SUB M_I='11'O;
       47     4380        /**/
       48     4381    1   REOPN:;
       49     4382    1        CALL M$OPEN (OPNCG) ALTRET (SC1);
       50     4383    1        CALL M$CGCTL (HLPCTL) ALTRET (SC1);
       51     4384    1        CALL M$READ (KL_RDHLP) ALTRET (SC2);
       52     4385    1        RETURN;
       53     4386        /**/
       54     4387    1   SC1: ;
       55     4388    1        CALL FOI$CRASHGO (%S$NOPHLP,F_KL,M_I);
       56     4389        /*S*  SCREECH_CODE: KLI-S$NOPHLP
       57     4390              TYPE:    Screech
       58     4391              MESSAGE: SLUG unable to open the HLPCG comgroup
       59     4392              REMARKS: SLUG communicates with the administrators of FEPs via the
       60     4393                       HLPCG comgroup.  This screech occurs when he gets an ALTRET
       61     4394                       on his M$OPEN to that CG.                                     */
       62     4395    1        GOTO REOPN;
       63     4396        /**/
       64     4397    1   SC2: ;
       65     4398    1        CALL FOI$CRASH (%S$NRDHLP,F_KL,M_I);
       66     4399        /*S*  SCREECH_CODE: KLI-S$NRDHLP
       67     4400              TYPE:    Screech
       68     4401              MESSAGE: SLUG got ALTRET reading HLPCG
       69     4402              REMARKS: Due to the nature of comgroups, SLUG should never get an
       70     4403                       ALTRET on his anonomous M$READ to HLPCG.  This screech
       71     4404                       occurs on the exception to that rule.                         */
       72     4405        /**/
       73     4406    1   END;
       74     4407        /**/
PL6.E3A0      #001=KLI$FESET File=KLI$FESET.:E05TSI                              WED 07/30/97 00:49 Page:3
       75     4408        /**/
       76     4409        %EOD;

PL6.E3A0      #001=KLI$FESET File=KLI$FESET.:E05TSI                              WED 07/30/97 00:49 Page:4
--  Include file information  --

   KL_AFCN_C.:E05TOU  is referenced.
   KL_MACRO_C.:E05TOU  is referenced.
   KL_NETWORK_M.:E05TOU  is referenced.
   OC$MESSHD_C.:E05TOU  is referenced.
   KL_DATA_R.:E05TOU  cannot be made into a system file and is referenced.
   JC_SCODE_C.:E05TOU  is referenced.
   CP_6.:E05TOU  cannot be made into a system file and is referenced.
   B$JIT_C.:E05TOU  was found in the system file and is never referenced.
   CP_6_C.:E05TOU  was found in the system file and is referenced.
      No diagnostics issued in procedure KLI$FESET.

   Procedure KLI$FESET requires 25 words for executable code.
   Procedure KLI$FESET requires 4 words of local(AUTO) storage.

PL6.E3A0      #001=KLI$FESET File=KLI$FESET.:E05TSI                              WED 07/30/97 00:49 Page:5

 Object Unit name= KLI$FESET                                  File name= KLI$FESET.:E05TOU
 UTS= JUL 30 '97 00:49:28.04 WED                              Compiler= PL-6/E31         Sev=      00
 SharedLib= :SHARED_SYSTEM                                    Alt SharedLib=


    ****  Control sections  ****

 Sect   Type Bound  Init  Size OctSiz  Section name(segment info)
    0   DCB   even  none     0      0  M$UC
    1   DCB   even  none     0      0  M$HLP
    2  RoData even  UTS    144    220  KLI$FESET
    3   Data  even  none     8     10  KLI$FESET
    4   Proc  even  none    25     31  KLI$FESET
    5  RoData even  none    10     12  KLI$FESET

    ****  Entry defs  ****

                              Check   Calling
                             calling  sequence
  Sect OctLoc Primary Altret sequence   type   Parms  Name
     4      0   yes            yes      Std        0  KLI$FESET

  ****  Entry refs  ****

         Check        Calling
        calling       sequence
Altret sequence SRef   type   Args  Name
 yes     yes           Std       3 FOI$CRASHGO
 yes     yes           Std       3 FOI$CRASH
                       nStd      0 X66_AUTO_0
                       nStd      0 X66_ARET
                       Std       0 B_CONSPOOL_D
PL6.E3A0      #001=KLI$FESET File=KLI$FESET.:E05TSI                              WED 07/30/97 00:49 Page:6

  ****  Data refs  ****

  Flags:  r = read only, s = secondary
Flgs Name                             Flgs Name                             Flgs Name
     M$UC                                  M$HLP                                 KL_RDHLP
     B_VECTNIL

  ****  Segment refs  ****

  Flags:  r = read only, s = secondary
Flgs Name                             Flgs Name                             Flgs Name
     ISSID                                 NULLSID
PL6.E3A0      #001=KLI$FESET File=KLI$FESET.:E05TSI                              WED 07/30/97 00:49 Page:7


        1        1        /*M* KLI$FESET Routines to control and report FEP condition*/
        2        2        /*T***********************************************************/
        3        3        /*T*                                                         */
        4        4        /*T* Copyright (c) Bull HN Information Systems Inc., 1997    */
        5        5        /*T*                                                         */
        6        6        /*T***********************************************************/
        7        7        /*X* DMR,PLM=5,IND=5,CTI=5,SDI=5,MCL=10,CSI=0,ECI=0 */
        8        8        /**/
        9        9        /**/
       10       10        KLI$FESET: PROC;

     10  4 000000   000000 700200 xent  KLI$FESET    TSX0  ! X66_AUTO_0
         4 000001   000004 000000                    ZERO    4,0

       11       11        /**/
       12       12        /**/
       13       13        %INCLUDE CP_6;
       14       94        %INCLUDE JC_SCODE_C;
       15      110        %INCLUDE KL_DATA_R;
       16      574        %INCLUDE KL_MACRO_C;
       17     3926        %INCLUDE KL_AFCN_C;
       18     4027        /**/
       19     4028    1   DCL FOI$CRASH ENTRY(3) ALTRET;
       20     4029    1   DCL FOI$CRASHGO ENTRY(3) ALTRET;
       21     4030    1   DCL KLH$OPFILS ENTRY ALTRET;
       22     4031        /**/
       23     4032        /**/
       24     4033        %FPT_OPEN (FPTN=OPNCG,STCLASS=CONSTANT,DCB=M$HLP,NAME=HLPCG,CTG=YES,
       25     4034                   ASN=COMGROUP,FUN=CREATE,EXIST=NEWFILE,AU=YES,
       26     4035                   SHARE=ALL,SETSTA=CSST,IXTNSIZE=100,ACSVEH=HLPCG_ACSVEH);
       27     4144        %VLP_ATTR (FPTN=HLPCG_ACSVEH);
       28     4158        %VLP_ACSVEH (READ=YES,UPD=YES,WNEW=YES,VEHICLE='SLUG');
       29     4175        %VLP_ACSVEH (READ=YES,UPD=YES,WNEW=YES,VEHICLE='NETCON?');
       30     4192        %VLP_ACSVEH (READ=YES,UPD=YES,WNEW=YES,VEHICLE='STATS?',LAST=";");
       31     4209        %FPT_CGCTL (FPTN=HLPCTL,STCLASS=CONSTANT,DCB=M$HLP,CGCP=HLPPRM);
       32     4232        %VLP_CGCP (FPTN=HLPPRM,STCLASS=CONSTANT,CONMSG=YES,
PL6.E3A0      #001=KLI$FESET File=KLI$FESET.:E05TSI                              WED 07/30/97 00:49 Page:8
       33     4233                   TERMCONAU=NO,DCBCONAU=YES,TERMCONNAU=NO,DCBCONNAU=NO,
       34     4234                   AUCONTERM=NC,AUCONDCB=DEACTIVATE,AUDCONTERM=NC,
       35     4235                   AUDCONDCB=DEACTIVATE,XSTALGL=YES,WAS=NO,RAS=NO,SMD=NO,XTYPLGL=YES,
       36     4236                   MAXMC=4096,DCBCONLGL=YES,TERMCONLGL=YES,INPUT=YES,OUTPUT=YES,
       37     4237        /* DRML=YES is required to keep SLUG from being SQA'd when a FEP is hung */
       38     4238                   TRMRDSIZ=2048,DRML=YES,MINPG=3,DATAPGS=67,
       39     4239                  MAXPG=50,
       40     4240                   SECURE=NO);
       41     4283        %FPT_READ (FPTN=KL_RDHLP,STCLASS=SYMREF);
       42     4322        %VLP_NAME (FPTN=HLPCG,NAME='HLPCG',STCLASS=CONSTANT);
       43     4349        %VLP_SETSTA (FPTN=CSST,STCLASS=CONSTANT,MYSTATION='HLPADMIN');

   4374  4 000002                       REOPN        null
       44     4377        /**/
       45     4378        %SUB F_KL='1314'O;
       46     4379        %SUB M_I='11'O;
       47     4380        /**/
       48     4381    1   REOPN:;
       49     4382    1        CALL M$OPEN (OPNCG) ALTRET (SC1);

   4382  4 000002   000000 630400 2                  EPPR0   OPNCG
         4 000003   450000 713400                    CLIMB   alt,open
         4 000004   410400 401760                    pmme    nvectors=18
         4 000005   000017 702000 4                  TSX2    SC1

       50     4383    1        CALL M$CGCTL (HLPCTL) ALTRET (SC1);

   4383  4 000006   000072 630400 2                  EPPR0   HLPCTL
         4 000007   500003 713400                    CLIMB   alt,+32771
         4 000010   411400 401760                    pmme    nvectors=20
         4 000011   000017 702000 4                  TSX2    SC1

       51     4384    1        CALL M$READ (KL_RDHLP) ALTRET (SC2);

   4384  4 000012   000000 630400 xsym               EPPR0   KL_RDHLP
         4 000013   440000 713400                    CLIMB   alt,read
         4 000014   401400 401760                    pmme    nvectors=4
PL6.E3A0      #001=KLI$FESET File=KLI$FESET.:E05TSI                              WED 07/30/97 00:49 Page:9
         4 000015   000024 702000 4                  TSX2    SC2

       52     4385    1        RETURN;

   4385  4 000016   000000 702200 xent               TSX2  ! X66_ARET

       53     4386        /**/
       54     4387    1   SC1: ;

   4387  4 000017                       SC1          null
       55     4388    1        CALL FOI$CRASHGO (%S$NOPHLP,F_KL,M_I);

   4388  4 000017   000003 630400 5                  EPPR0   3
         4 000020   000021 631400 xsym               EPPR1   B_VECTNIL+17
         4 000021   000000 701000 xent               TSX1    FOI$CRASHGO
         4 000022   000000 011000                    NOP     0

       56     4389        /*S*  SCREECH_CODE: KLI-S$NOPHLP
       57     4390              TYPE:    Screech
       58     4391              MESSAGE: SLUG unable to open the HLPCG comgroup
       59     4392              REMARKS: SLUG communicates with the administrators of FEPs via the
       60     4393                       HLPCG comgroup.  This screech occurs when he gets an ALTRET
       61     4394                       on his M$OPEN to that CG.                                     */
       62     4395    1        GOTO REOPN;

   4395  4 000023   000002 710000 4                  TRA     REOPN

   4387  4 000024                       SC2          null
       63     4396        /**/
       64     4397    1   SC2: ;
       65     4398    1        CALL FOI$CRASH (%S$NRDHLP,F_KL,M_I);

   4398  4 000024   000007 630400 5                  EPPR0   7
         4 000025   000021 631400 xsym               EPPR1   B_VECTNIL+17
         4 000026   000000 701000 xent               TSX1    FOI$CRASH
         4 000027   000000 011000                    NOP     0

PL6.E3A0      #001=KLI$FESET File=KLI$FESET.:E05TSI                              WED 07/30/97 00:49 Page:10
       66     4399        /*S*  SCREECH_CODE: KLI-S$NRDHLP
       67     4400              TYPE:    Screech
       68     4401              MESSAGE: SLUG got ALTRET reading HLPCG
       69     4402              REMARKS: Due to the nature of comgroups, SLUG should never get an
       70     4403                       ALTRET on his anonomous M$READ to HLPCG.  This screech
       71     4404                       occurs on the exception to that rule.                         */
       72     4405        /**/
       73     4406    1   END;

   4406  4 000030   000000 702200 xent               TSX2  ! X66_ARET
       74     4407        /**/
       75     4408        /**/
       76     4409        %EOD;

PL6.E3A0      #001=KLI$FESET File=KLI$FESET.:E05TSI                              WED 07/30/97 00:49 Page:11
--  Include file information  --

   KL_AFCN_C.:E05TOU  is referenced.
   KL_MACRO_C.:E05TOU  is referenced.
   KL_NETWORK_M.:E05TOU  is referenced.
   OC$MESSHD_C.:E05TOU  is referenced.
   KL_DATA_R.:E05TOU  cannot be made into a system file and is referenced.
   JC_SCODE_C.:E05TOU  is referenced.
   CP_6.:E05TOU  cannot be made into a system file and is referenced.
   B$JIT_C.:E05TOU  was found in the system file and is never referenced.
   CP_6_C.:E05TOU  was found in the system file and is referenced.
      No diagnostics issued in procedure KLI$FESET.
PL6.E3A0      #001=KLI$FESET File=KLI$FESET.:E05TSI                              WED 07/30/97 00:49 Page:12

 **** Variables and constants ****

  ****  Section 002 RoData KLI$FESET

  ****  Scalars and arrays  ****
OctLoc.c.b A Datatyp(siz) R M Lvl/name                 OctLoc.c.b A Datatyp(siz) R M Lvl/name

   204-0-0/w STRC(432)   r     1 CSST                     202-0-0/c STRC(54)    r     1 HLPCG
    72-0-0/d STRC(1872)  r     1 HLPCTL                   156-0-0/d STRC(720)   r     1 HLPPRM
     0-0-0/d STRC(2088)  r     1 OPNCG

  ****  Section 003  Data  KLI$FESET

  ****  Scalars and arrays  ****
OctLoc.c.b A Datatyp(siz) R M Lvl/name                 OctLoc.c.b A Datatyp(siz) R M Lvl/name

     0-0-0/w STRC(270)   r     1 HLPCG_ACSVEH

  ****  SYMREF variables  ****

  ****  Scalars and arrays  ****
OctLoc.c.b A Datatyp(siz) R M Lvl/name                 OctLoc.c.b A Datatyp(siz) R M Lvl/name

     0-0-0/d STRC(504)   r     1 KL_RDHLP

  ****  BASED and DCB variables  ****

  ****  Scalars and arrays  ****
OctLoc.c.b A Datatyp(siz) R M Lvl/name                 OctLoc.c.b A Datatyp(siz) R M Lvl/name

     0-0-0N  NULL        r     1 M$HLP


   Procedure KLI$FESET requires 25 words for executable code.
   Procedure KLI$FESET requires 4 words of local(AUTO) storage.
PL6.E3A0      #001=KLI$FESET File=KLI$FESET.:E05TSI                              WED 07/30/97 00:49 Page:13
          *** CROSS REFERENCE LISTING ***
**     DENOTES     IDENTIFIER DEFINITION
<<                 IDENTIFIER'S VALUE SET
>>                 IDENTIFIER'S VALUE USED
<>                 IDENTIFIER SET AND/OR USED
--                 IDENTIFIER REFERENCED
PL6.E3A0      #001=KLI$FESET File=KLI$FESET.:E05TSI                              WED 07/30/97 00:49 Page:14
          MINI XREF LISTING

CSST
      4361**DCL      4101--DCLINIT
FOI$CRASH
      4028**DCL-ENT  4398--CALL
FOI$CRASHGO
      4029**DCL-ENT  4388--CALL
HLPCG
      4347**DCL      4101--DCLINIT
HLPCG_ACSVEH
      4155**DCL      4103--DCLINIT
HLPCG_ACSVEH.Q
      4156**DCL      4155--DCLINIT
HLPCTL
      4220**DCL      4383<>CALL
HLPCTL.V
      4225**DCL      4220--DCLINIT
HLPPRM
      4252**DCL      4221--DCLINIT
HLPPRM.DVBYTE.REREAD#
      4266**DCL      4267--REDEF
KL_AUTOFAIL.FLAGS
       414**DCL       415--REDEF
KL_AUTOFAIL.MSGID
       410**DCL       411--REDEF
KL_AUTOFAIL.WSN
       417**DCL       418--REDEF
KL_FEMSG.FLAGS
       364**DCL       365--REDEF
KL_FEMSG.MSGID
       360**DCL       361--REDEF
KL_FEMSG.WSN
       367**DCL       368--REDEF
PL6.E3A0      #001=KLI$FESET File=KLI$FESET.:E05TSI                              WED 07/30/97 00:49 Page:15
KL_NETWORK_BUF.TERMINAL_ID.TERM
       554**DCL       563--REDEF
KL_NETWORK_KEY.KEY.TERMID.TERM
       480**DCL       489--REDEF
KL_RDBF.FEL#
       323**DCL       324--REDEF
KL_RDHLP
      4300**DCL      4384<>CALL
KL_RDHLP.STATION_
      4303**DCL      4304--REDEF
KL_RDHLP.V.DVBYTE.REREAD#
      4315**DCL      4315--REDEF
KL_RDHLP.V.INDX#
      4313**DCL      4313--REDEF
KL_TMSG.FLAGS
       386**DCL       387--REDEF
KL_TMSG.MSGID
       382**DCL       383--REDEF
KL_TMSG.WSN
       389**DCL       390--REDEF
M$CGCTL
        43**DCL-ENT  4383--CALL
M$OPEN
        22**DCL-ENT  4382--CALL
M$READ
        23**DCL-ENT  4384--CALL
OPNCG
      4100**DCL      4382<>CALL
OPNCG.ACSVEH_
      4102**DCL      4103--REDEF
OPNCG.ALTKEYS_
      4108**DCL      4109--REDEF    4109--REDEF
OPNCG.HDR_
      4107**DCL      4108--REDEF
OPNCG.TAB_
      4106**DCL      4107--REDEF
PL6.E3A0      #001=KLI$FESET File=KLI$FESET.:E05TSI                              WED 07/30/97 00:49 Page:16
OPNCG.UHL_
      4100**DCL      4101--REDEF    4101--REDEF
OPNCG.V
      4109**DCL      4100--DCLINIT
OPNCG.V.FSN#
      4140**DCL      4140--REDEF    4140--REDEF
OPNCG.WSN_
      4106**DCL      4106--REDEF
REOPN
      4374**LABEL    4395--GOTO
SC1
      4387**LABEL    4382--CALLALT  4383--CALLALT
SC2
      4387**LABEL    4384--CALLALT

PL6.E3A0      #002=KLI$FEEV File=KLI$FESET.:E05TSI                               WED 07/30/97 00:50 Page:17
       77        1        /*T***********************************************************/
       78        2        /*T*                                                         */
       79        3        /*T* Copyright (c) Bull HN Information Systems Inc., 1997    */
       80        4        /*T*                                                         */
       81        5        /*T***********************************************************/
       82        6        /**/
       83        7        /**/
       84        8        KLI$FEEV: PROC;
       85        9        /**/
       86       10        /**/
       87       11 S      %INCLUDE B$JIT_C;
       88       12        %INCLUDE CP_6;
       89       93        %INCLUDE KL_AFCN_C;
       90      194        %INCLUDE KL_CONFIG_M;
       91      956        %INCLUDE KL_MACRO_C;
       92     4308        %INCLUDE KL_DATA_R;
       93     4772        %INCLUDE CP_6_SUBS;
       94     5312        %INCLUDE KI_SUBS_C;
       95     5448        %INCLUDE OC_SUBS_C;
       96     6179        %INCLUDE KL_SUBS_C;
       97     6233        %INCLUDE K_ADDRESS_M;
       98     6736        %INCLUDE B_SEGIDS_C;
       99     7275        /**/
      100     7276        %B$JIT0(STCLASS=BASED);
      101     7365        %U$JIT1;
      102     7439        %M$JIT2X;
      103     7442        %F$JIT3X;
      104     7445        %S$JIT4X;
      105     7448        %J$JIT5X;
      106     7451        %A$JIT6X;
      107     7454        %B$CGAURD (FPTN=BF);
      108     7473        %KL_FEPST(FPTN=KL$FEPST,STCLASS=BASED);
      109     7508        %KL$NODEINFO;
      110     7525        %KL$NETWORK (STCLASS="BASED(KL_EXTRSP_BUF$)");
      111     7552        %KL_FROG (STCLASS=SYMREF);
      112     7570        %EQU_CG;
      113     7618        /**/
PL6.E3A0      #002=KLI$FEEV File=KLI$FESET.:E05TSI                               WED 07/30/97 00:50 Page:18
      114     7619        /**/
      115     7620    1   DCL FEX UBIN WORD;
      116     7621    1   DCL PROB UBIN WORD;
      117     7622    1   DCL NODETYPE UBIN;
      118     7623    1   DCL STATE UBIN WORD;
      119     7624    1   DCL I SBIN;
      120     7625        %KL_NODECHG (FPTN=NODECHG,STCLASS=AUTO);
      121     7649        %KL_UPDOSI(FPTN=UPDOSI,STCLASS=AUTO);
      122     7858        %KL_UPDOSI(FPTN=KL$UPDOSI,STCLASS="BASED(KL_RDBF$)");
      123     8067    1   DCL B$PTR PTR BASED;
      124     8068    1   DCL B$UBIN UBIN BASED;
      125     8069        %KL_SETNODE (FPTN=SETNODE,STCLASS=AUTO);
      126     8115    1   DCL 1 VEVNT BASED ALIGNED,
      127     8116    1            2 PROB UBIN HALF UNAL,
      128     8117    1            2 STATE UBIN HALF UNAL;
      129     8118    1   DCL VJIT$ PTR;
      130     8119    1   DCL VM_UC$ PTR;
      131     8120    1   DCL VROSEG$ PTR;
      132     8121    1   DCL PP (0:2) UBIN WORD;
      133     8122    1   DCL PPTR$ PTR;
      134     8123        /**/
      135     8124    1   DCL KI_OSIMAX# UBIN SYMREF;             /* monitor data, # of osiroutes */
      136     8125    1   DCL KI_OSIROUTE$$ PTR SYMREF;      /* ditto- ptr to ptr array of osiroutes */
      137     8126    1   DCL KI_MXFE UBIN SYMREF;           /* number of feis defined on this system*/
      138     8127    1   DCL JC_ZIP SBIN WORD SYMREF;
      139     8128    1   DCL KL_STATION CHAR(8) SYMREF;
      140     8129    1   DCL KLX$CONV_NODE ENTRY(3) ALTRET;
      141     8130    1   DCL KLI$FEGO ENTRY(1);
      142     8131    1   DCL KLX$WRHLPNODE ENTRY(4) ALTRET;
      143     8132    1   DCL KLI$RECOVERY ENTRY;
      144     8133    1   DCL KLI$GETOSIROUTES ENTRY(1);
      145     8134    1   DCL JMU$SETSEG ENTRY(2);
      146     8135        /**/
      147     8136        %KL$NODEINFO_KEY (STCLASS=CONSTANT);
      148     8153        %KL$NETWORK_KEY (STCLASS=CONSTANT);
      149     8170        %FPT_READ (FPTN=KL_RD_NETCON,STCLASS=SYMREF);
      150     8209        %FPT_WRITE (FPTN=KL_WKYN,STCLASS=SYMREF);
PL6.E3A0      #002=KLI$FEEV File=KLI$FESET.:E05TSI                               WED 07/30/97 00:50 Page:19
      151     8240        %FPT_WRITE (FPTN=WRT_FROG,STCLASS="SYMREF");
      152     8271        %VLP_STATION (FPTN=FROG_STA,STATION='FROG');
      153     8298        %FPT_SAD(FPTN=SADTIGR,USERSID=%SPCL2SID,MONSID=%TIGRSID);
      154     8313        /**/
      155     8314        /**/
      156     8315    1        IF KL_STATION = 'BABOON'
      157     8316    2        THEN DO;
      158     8317    2             IF ADDR(KL_RDBF)->BF.EVENT = %CG_DOPN#
      159     8318    3             THEN DO;
      160     8319    3                  KL_RD_NETCON.BUF_ = VECTOR(ADDR(KL_RDBF)->KL$NODEINFO);
      161     8320    3                  KL_RD_NETCON.KEY_ = VECTOR(KL$NODEINFO_KEY);
      162     8321    3                  SETNODE.FCN = IGA_SETNODE;
      163     8322    3                  CALL M$READ(KL_RD_NETCON)
      164     8323    4                  WHENRETURN DO;
      165     8324    4                       SETNODE.NODE# = ADDR(KL_RDBF)->KL$NODEINFO.NODE#;
      166     8325    4                       SETNODE.NODE_NAME = ADDR(KL_RDBF)->KL$NODEINFO.NODENAME;
      167     8326    4                       SETNODE.MY_NODE = '1'B;
      168     8327    4                       KL_NODENAME = SETNODE.NODE_NAME;
      169     8328    4                       KL_NODE = SETNODE.NODE#;
      170     8329    4                       KL_NMNODE = KL_NODE;
      171     8330    4                       CALL KLX$WRHLPNODE (SETNODE,SIZEC(SETNODE),KL_NODE);
      172     8331    4                     END;
      173     8332    3                  CALL KLI$GETOSIROUTES(KL_NODE);
      174     8333    3                  CALL UPDATE;
      175     8334        /* Set the node name for all the nodes in the network */
      176     8335
      177     8336    3                  KL_FETBL.HOST_NODE(KL_NODE) = '1'B;
      178     8337    3                  KL_FETBL.ACTIVE(KL_NODE) = '1'B;
      179     8338    3                  CALL M$SAD(SADTIGR)
      180     8339    4                  WHENRETURN DO;
      181     8340    4                       PPTR$ = ADDR(KI_OSIMAX#);
      182     8341    4                       CALL JMU$SETSEG(PPTR$,%SPCL1SID);
      183     8342    4                       KL_OSIMAX# = PPTR$->B$UBIN;
      184     8343    4                       PPTR$ = ADDR(KI_MXFE);
      185     8344    4                       CALL JMU$SETSEG(PPTR$,%SPCL1SID);
      186     8345    4                       KL_MAXFEI# = PPTR$->B$UBIN;
      187     8346    4                       PPTR$ = ADDR(KI_OSIROUTE$$);
PL6.E3A0      #002=KLI$FEEV File=KLI$FESET.:E05TSI                               WED 07/30/97 00:50 Page:20
      188     8347    4                       CALL JMU$SETSEG(PPTR$,%SPCL1SID);
      189     8348    4                       KL_OSIROUTE$ = PPTR$->B$PTR;
      190     8349    4                     END;
      191     8350    4                  WHENALTRETURN DO;
      192     8351                                                /* gotta screech */
      193     8352    4                     END;
      194     8353    3                END;
      195     8354    2             RETURN;
      196     8355    2           END;
      197     8356    1        CALL CHARBIN(FEX,SUBSTR(ADDR(KL_RDBF)->BF.STATION,4,4));
      198     8357    1        IF FEX > KL_NODES THEN RETURN;     /*dont let too big of feps thru*/
      199     8358    1        KL_FEMSG.FEX = FEX;
      200     8359    1        CALL KLX$CONV_NODE(KL_FEMSG.NAME,FEX,I)
      201     8360    2        WHENALTRETURN DO;
      202     8361    2             KL_FEMSG.NAME = ' ';
      203     8362    2           END;
      204     8363    2        DO CASE (ADDR(KL_RDBF)->BF.EVENT);
      205     8364    2        CASE (%CG_TDSC#);                  /* REMOTE DISCONNECTING */
      206     8365    2           KL_FETBL.ACTIVE(FEX) = '0'B;
      207     8366    2           CALL KLI$RECOVERY;
      208     8367    2           KL_FEMSG.MSG# = FEDN_MSG#;
      209     8368    3           CALL M$WRITE (KL_WKYN) WHENALTRETURN DO;
      210     8369    3              END;
      211     8370    2        CASE (%CG_TCON#);
      212     8371    2           KL_FETBL.ACTIVE(FEX) = '1'B;
      213     8372    2           KL_FEMSG.MSG#=FEUP_MSG#;
      214     8373    2           KL_FEMSG.STATE = 0;
      215     8374    2           KL_FEMSG.PROB = 0;
      216     8375    2           IF FEX>KL_MXFE THEN KL_MXFE=FEX;
      217     8376    2           CALL KLI$FEGO (FEX);
      218     8377    3           CALL M$WRITE (KL_WKYN) WHENALTRETURN DO;
      219     8378    3              END;
      220     8379    2        CASE (%CG_TBRK#);
      221     8380    2           KL_FETBL.KTYP(FEX)=%KLKT_NONE#;
      222     8381    2        END;
      223     8382    1        RETURN;
      224     8383        /**/
PL6.E3A0      #002=KLI$FEEV File=KLI$FESET.:E05TSI                               WED 07/30/97 00:50 Page:21
      225     8384        %EJECT;
PL6.E3A0      #002=KLI$FEEV File=KLI$FESET.:E05TSI                               WED 07/30/97 00:50 Page:22
      226     8385    1   KLI$FEPCHANGE: ENTRY;
      227     8386
      228     8387    1        FEX = ADDR(KL_RDBF)->KL$FEPST.FEP;
      229     8388    1        PROB=ADDR(KL_RDBF)->KL$FEPST.PROB;
      230     8389    1        STATE=ADDR(KL_RDBF)->KL$FEPST.STATE;
      231     8390    1        IF PROB ~= KIER_QOSCHG
      232     8391    2        THEN DO;
      233     8392    2             KL_FETBL.LINK_CONNECT(FEX) = '1'B;
      234     8393    2             KL_FETBL.LINK_ACTIVE(FEX) = '0'B;
      235     8394    2           END;
      236     8395    1        IF JC_ZIP~=0
      237     8396    1        THEN
      238     8397    1             RETURN;
      239     8398    1        KL_FEMSG.FEX=FEX;
      240     8399    1        CALL KLX$CONV_NODE(KL_FEMSG.NAME,FEX,I)
      241     8400    2        WHENALTRETURN DO;
      242     8401    2             KL_FEMSG.NAME = ' ';
      243     8402    2           END;
      244     8403    1        KL_FEMSG.PROB=PROB;
      245     8404    1        KL_FEMSG.STATE = STATE;
      246     8405    1        IF STATE = KIST_BT                 /* Was booting */
      247     8406    2        THEN DO;
      248     8407    2             KL_FROG.FEX = FEX;
      249     8408    2             KL_FROG.FUNCTION = %KLFR_BTDN;
      250     8409    3             CALL M$WRITE (WRT_FROG) WHENALTRETURN DO;
      251     8410    3                END;
      252     8411    2           END;
      253     8412    2        DO CASE (PROB);
      254     8413    2        CASE (KIER_OK);
      255     8414    2           KL_FETBL.LINK_ACTIVE(FEX) = '1'B;
      256     8415    2           KL_FETBL.KTYP(FEX) = %KLKT_NONE#;
      257     8416    2           RETURN;
      258     8417    2        CASE (KIER_QOSCHG);
      259     8418    2           IF KL_FETBL.HOST_NODE(FEX)
      260     8419    2           THEN
      261     8420    2                IF ADDR(KL_RDBF)->KL$FEPST.QOS = 255
      262     8421    3                THEN DO;
PL6.E3A0      #002=KLI$FEEV File=KLI$FESET.:E05TSI                               WED 07/30/97 00:50 Page:23
      263     8422    3                     KL_FETBL.ACTIVE(FEX) = '0'B;
      264     8423    3                     KL_FEMSG.PROB = 3;
      265     8424    3                     KL_FEMSG.FEX = FEX;
      266     8425    3   TELL_FEP_MSG:     ;
      267     8426    3                     KL_FEMSG.MSG# = FEUP_MSG#;
      268     8427    3                     CALL KLX$CONV_NODE(KL_FEMSG.NAME,FEX,NODETYPE);
      269     8428    3                     KL_FEMSG.STATE = 1;
      270     8429    3                     CALL M$WRITE(KL_WKYN)
      271     8430    4                     WHENALTRETURN DO;
      272     8431    4                        END;
      273     8432    3                   END;
      274     8433    3                ELSE DO;
      275     8434    3                     KL_FETBL.ACTIVE(FEX) ='1'B;
      276     8435    3                     KL_FEMSG.PROB = 0;
      277     8436    3                     GOTO TELL_FEP_MSG;
      278     8437    3                   END;
      279     8438    3           DO I = 0 TO KL_NODES;
      280     8439    3                IF I ~= KL_NODE            /* Not this node */
      281     8440    3                     AND KL_FETBL.LINK_ACTIVE(I)
      282     8441    3                     AND I ~= FEX          /* Do not tell him about himself */
      283     8442    3                     AND KL_FETBL.LINK_CONNECT(I)
              8442                              /* dont stuff it down everyones throats */
      284     8443    4                THEN DO;
      285     8444    4                     NODECHG.FCN = IGA_NODECHG;
      286     8445    4                     NODECHG.MYNODE = KL_NODE;
      287     8446    4                     NODECHG.NODE = FEX;
      288     8447    4                     IF I = ADDR(KL_RDBF)->KL$FEPST.LNK_NODE
      289     8448    4                     THEN
      290     8449    4                          NODECHG.QOS = ADDR(KL_RDBF)->KL$FEPST.ALT_QOS;
      291     8450    4                     ELSE
      292     8451    4                          NODECHG.QOS = ADDR(KL_RDBF)->KL$FEPST.QOS;
      293     8452    4                     IF NODECHG.QOS + KL_HOPCOST > 255
      294     8453    4                     THEN
      295     8454    4                          NODECHG.QOS = 255;
      296     8455    4                     ELSE
      297     8456    4                          NODECHG.QOS = NODECHG.QOS + KL_HOPCOST;
      298     8457    4                     IF KL_FETBL.HOST_NODE(FEX)
PL6.E3A0      #002=KLI$FEEV File=KLI$FESET.:E05TSI                               WED 07/30/97 00:50 Page:24
      299     8458    5                     THEN DO;
      300     8459    5                          NODECHG.HOSTNODE = 1;
      301     8460    5                        END;
      302     8461    4                     ELSE
      303     8462    4                          NODECHG.HOSTNODE = 0;
      304     8463    4                     CALL KLX$WRHLPNODE(NODECHG,SIZEC(NODECHG),I);
      305     8464    4                   END;
      306     8465    3              END;
      307     8466    2           KL_FETBL.QOS(FEX) = ADDR(KL_RDBF)->KL$FEPST.QOS;
      308     8467    2           RETURN;
      309     8468    2        CASE (KIER_STOP,KIER_PART,KIER_UPRT);
      310     8469    2           KL_FEMSG.MSG#=FESP_MSG#;
      311     8470    3           CALL M$WRITE (KL_WKYN) WHENALTRETURN DO;
      312     8471    3              END;
      313     8472    2           KL_FETBL.KTYP(FEX) = %KLKT_NONE#;
      314     8473    2           RETURN;
      315     8474    2        CASE (KIER_TO);
      316     8475    2           IF STATE ~= KIST_BT AND STATE ~= KIST_DMP
      317     8476    2           THEN
      318     8477    2                GOTO PROBS;
      319     8478
      320     8479    2        CASE (KIER_BCMD);
      321     8480    2           IF KL_FETBL.KTYP(FEX) ~= %KLKT_NONE#
      322     8481    3           THEN DO;
      323     8482    3                IF KL_FETBL.KTYP(FEX) = %KLKT_DUMP#
      324     8483    3                THEN
      325     8484    3                     KL_FROG.FUNCTION = %KLFR_DMP;
      326     8485    3                IF KL_FETBL.KTYP(FEX) = %KLKT_BOOT#
      327     8486    3                THEN
      328     8487    3                     KL_FROG.FUNCTION = %KLFR_BT;
      329     8488    3                IF KL_FETBL.KTYP(FEX) = %KLKT_CRASH#
      330     8489    3                THEN
      331     8490    3                     KL_FROG.FUNCTION = %KLFR_DMPBT;
      332     8491    3                KL_FROG.FEX = FEX;
      333     8492    4                CALL M$WRITE (WRT_FROG) WHENALTRETURN DO;
      334     8493    4                   END;
      335     8494    3              END;
PL6.E3A0      #002=KLI$FEEV File=KLI$FESET.:E05TSI                               WED 07/30/97 00:50 Page:25
      336     8495    2        CASE (KIER_FREQ);
      337     8496    2           IF STATE = KIST_BT
      338     8497    3           THEN DO;
      339     8498    3                KL_FETBL.KTYP(FEX) = %KLKT_NONE#;
      340     8499    3                RETURN;
      341     8500    3              END;
      342     8501    2        CASE (ELSE);
      343     8502    2   PROBS:  ;
      344     8503    2           IF STATE ~= KIST_BT AND STATE ~= KIST_DMP
      345     8504    2                AND NOT KL_FETBL.DEBUG(FEX)
      346     8505    2                AND KL_FETBL.BOSS(FEX)
      347     8506    3           THEN DO;
      348     8507    3                KL_FROG.FEX = FEX;
      349     8508    3                KL_FROG.FUNCTION = %KLFR_DMPBT;
      350     8509    4                CALL M$WRITE (WRT_FROG) WHENALTRETURN DO;
      351     8510    4                   END;
      352     8511    3              END;
      353     8512    2        END;
      354     8513    1        KL_FETBL.KTYP(FEX)=%KLKT_NONE#;
      355     8514    1        KL_FEMSG.MSG#=FECR_MSG#;
      356     8515    2        CALL M$WRITE (KL_WKYN) WHENALTRETURN DO;
      357     8516    2           END;
      358     8517        %EJECT;
PL6.E3A0      #002=KLI$FEEV File=KLI$FESET.:E05TSI                               WED 07/30/97 00:50 Page:26
      359     8518    1   KLI$UPDATE: ENTRY;
      360     8519    1        CALL UPDATE;
      361     8520    1        RETURN;
      362     8521        %EJECT;
PL6.E3A0      #002=KLI$FEEV File=KLI$FESET.:E05TSI                               WED 07/30/97 00:50 Page:27
      363     8522        %EJECT;
PL6.E3A0      #002=KLI$FEEV File=KLI$FESET.:E05TSI                               WED 07/30/97 00:50 Page:28
      364     8523    1   UPDATE: PROC;
      365     8524
      366     8525        /* Set the node name for all the nodes in the network */
      367     8526    2        KL_NETWORK_VALID = '0'B;
      368     8527    2        SETNODE.FCN = IGA_SETNODE;
      369     8528    2        KL_RD_NETCON.BUF_ = VECTOR(KL_EXTRSP_BUF);
      370     8529    2        KL_RD_NETCON.KEY_ = VECTOR(KL$NETWORK_KEY);
      371     8530    2        CALL M$READ (KL_RD_NETCON)
      372     8531    3        WHENRETURN DO;
      373     8532    4             DO I = 0 TO KL$NETWORK.NODE#;
      374     8533    4                  SETNODE.NODE# = I;
      375     8534    4                  SETNODE.NODE_NAME = KL$NETWORK.NODE.NODE(I);
      376     8535    4                  SETNODE.MY_NODE = '0'B;
      377     8536    5                  DO CASE (KL$NETWORK.NODE.TYPE(I));
      378     8537
      379     8538    5                  CASE (%KL_NODETYPE_HOST,%KL_NODETYPE_ME);
      380     8539    5                     KL_FETBL.HOST_NODE(I) = '1'B;
      381     8540    5                     SETNODE.HOST_NODE = '1'B;
      382     8541    5                  CASE (%KL_NODETYPE_FEP);
      383     8542    5                     SETNODE.HOST_NODE = '0'B;
      384     8543    5                     KL_FETBL.DEBUG(I) = '0'B;
      385     8544
      386     8545    5                  CASE (%KL_NODETYPE_DEBUG);
      387     8546    5                     SETNODE.HOST_NODE = '0'B;
      388     8547    5                     KL_FETBL.DEBUG(I) = '1'B;
      389     8548    5                     KL_FETBL.LINK_CONNECT(I) = '1'B;
      390     8549
      391     8550    5                  CASE (%KL_NODETYPE_UNDEF);
      392     8551    5                     SETNODE.NODE_NAME = ' ';
      393     8552
      394     8553    5                  END;
      395     8554    4                  CALL KLX$WRHLPNODE (SETNODE,SIZEC(SETNODE),KL_NODE);
      396     8555    4                  IF KL$NETWORK.NODE.CONTROL_NODE(I) = KL_NODENAME OR
      397     8556    4                       KL$NETWORK.NODE.CONTROL_NODE(I) = ' '
      398     8557    4                  THEN
      399     8558    4                       KL_FETBL.BOSS(I) = '1'B;
      400     8559    4                  ELSE
PL6.E3A0      #002=KLI$FEEV File=KLI$FESET.:E05TSI                               WED 07/30/97 00:50 Page:29
      401     8560    4                       KL_FETBL.BOSS(I) = '0'B;
      402     8561    4                END;
      403     8562    3           END;
      404     8563    2        SETNODE = '0'B;
      405     8564    3        DO FEX = 0 TO KL$NETWORK.NODE#;
      406     8565    3             IF KL_FETBL.BOSS(FEX) AND KL_FETBL.ACTIVE(FEX) AND NOT KL_FETBL.HOST_NODE(
              8565                      FEX) THEN
      407     8566    4             DO;
      408     8567    5                  DO I = 0 TO KL$NETWORK.NODE#;
      409     8568    5                       SETNODE.FCN = IGA_NODETBL;
      410     8569    5                       SETNODE.NODE# = I;
      411     8570    5                       SETNODE.NODE_NAME = KL$NETWORK.NODE.NODE(I);
      412     8571    5                       IF KL$NETWORK.NODE.TYPE(I) = %KL_NODETYPE_HOST OR
      413     8572    5                            KL$NETWORK.NODE.TYPE(I) = %KL_NODETYPE_ME THEN
      414     8573    5                            SETNODE.HOST_NODE = '1'B;
      415     8574    5                       ELSE
      416     8575    5                            SETNODE.HOST_NODE = '0'B;
      417     8576    5                       CALL KLX$WRHLPNODE(SETNODE,SIZEC(SETNODE),FEX);
      418     8577    5                     END;
      419     8578    4                END;
      420     8579    3           END;
      421     8580    2        RETURN;
      422     8581
      423     8582    2   END UPDATE;
      424     8583    1   END KLI$FEEV;
      425     8584        /**/
      426     8585        /**/
      427     8586        %EOD;

PL6.E3A0      #002=KLI$FEEV File=KLI$FESET.:E05TSI                               WED 07/30/97 00:50 Page:30
--  Include file information  --

   B_SEGIDS_C.:E05TOU  is referenced.
   K_ADDRESS_M.:E05TOU  is referenced.
   KL_SUBS_C.:E05TOU  is referenced.
   OC_SUBS_C.:E05TOU  is referenced.
   KI_SUBS_C.:E05TOU  is referenced.
   CP_6_SUBS.:E05TOU  is referenced.
   KL_NETWORK_M.:E05TOU  is referenced.
   OC$MESSHD_C.:E05TOU  is referenced.
   KL_DATA_R.:E05TOU  cannot be made into a system file and is referenced.
   KL_MACRO_C.:E05TOU  is referenced.
   KL_CONFIG_M.:E05TOU  is referenced.
   KL_AFCN_C.:E05TOU  is referenced.
   CP_6.:E05TOU  cannot be made into a system file and is referenced.
   B$JIT_C.:E05TOU  was found in the system file and is referenced.
   CP_6_C.:E05TOU  was found in the system file and is referenced.
      No diagnostics issued in procedure KLI$FEEV.

   Procedure KLI$FEEV requires 623 words for executable code.
   Procedure KLI$FEEV requires 42 words of local(AUTO) storage.

PL6.E3A0      #002=KLI$FEEV File=KLI$FESET.:E05TSI                               WED 07/30/97 00:50 Page:31

 Object Unit name= KLI$FEEV                                   File name= KLI$FESET.:E05TOU
 UTS= JUL 30 '97 00:50:03.80 WED                              Compiler= PL-6/E31         Sev=      00
 SharedLib= :SHARED_SYSTEM                                    Alt SharedLib=


    ****  Control sections  ****

 Sect   Type Bound  Init  Size OctSiz  Section name(segment info)
    0   DCB   even  none     0      0  M$UC
    1   DCB   even  none     0      0  M$HLP
    2  RoData even  UTS      4      4  KLI$FEEV
    3   Data  even  none    12     14  KLI$FEEV
    4   Proc  even  none   623   1157  KLI$FEEV
    5  RoData even  none    26     32  KLI$FEEV

    ****  Entry defs  ****

                              Check   Calling
                             calling  sequence
  Sect OctLoc Primary Altret sequence   type   Parms  Name
     4      0   yes            yes      Std        0  KLI$FEEV
     4    256                  yes      Std        0  KLI$FEPCHANGE
     4    717                  yes      Std        0  KLI$UPDATE
PL6.E3A0      #002=KLI$FEEV File=KLI$FESET.:E05TSI                               WED 07/30/97 00:50 Page:32

  ****  Entry refs  ****

         Check        Calling
        calling       sequence
Altret sequence SRef   type   Args  Name
 yes     yes           Std       4 KLX$WRHLPNODE
         yes           Std       1 KLI$GETOSIROUTES
         yes           Std       2 JMU$SETSEG
 yes     yes           Std       3 KLX$CONV_NODE
         yes           Std       0 KLI$RECOVERY
         yes           Std       1 KLI$FEGO
                       nStd      0 X66_AUTO_0
                       Std       0 B_CONSPOOL_D
                       nStd      0 X66_ARET

  ****  Data refs  ****

  Flags:  r = read only, s = secondary
Flgs Name                             Flgs Name                             Flgs Name
     M$UC                                  M$HLP                                 KL_MXFE
     KL_FETBL                              KL_MAXFEI#                            KL_OSIMAX#
     KL_OSIROUTE$                          KL_RDBF                               KL_RDBF$
     KL_NODES                              KL_HOPCOST                            KL_NETWORK_VALID
     KL_NODENAME                           KL_NODE                               KL_NMNODE
     KL_FEMSG                              KL_EXTRSP_BUF                         KL_EXTRSP_BUF$
     KL_FROG                               KI_OSIMAX#                            KI_OSIROUTE$$
     KI_MXFE                               JC_ZIP                                KL_STATION
     KL_RD_NETCON                          KL_WKYN                               WRT_FROG
     B_VECTNIL

  ****  Segment refs  ****

  Flags:  r = read only, s = secondary
Flgs Name                             Flgs Name                             Flgs Name
     ISSID
PL6.E3A0      #002=KLI$FEEV File=KLI$FESET.:E05TSI                               WED 07/30/97 00:50 Page:33


       77        1        /*T***********************************************************/
       78        2        /*T*                                                         */
       79        3        /*T* Copyright (c) Bull HN Information Systems Inc., 1997    */
       80        4        /*T*                                                         */
       81        5        /*T***********************************************************/
       82        6        /**/
       83        7        /**/
       84        8        KLI$FEEV: PROC;

      8  4 000000   000000 700200 xent  KLI$FEEV     TSX0  ! X66_AUTO_0
         4 000001   000052 000000                    ZERO    42,0

       85        9        /**/
       86       10        /**/
       87       11 S      %INCLUDE B$JIT_C;
       88       12        %INCLUDE CP_6;
       89       93        %INCLUDE KL_AFCN_C;
       90      194        %INCLUDE KL_CONFIG_M;
       91      956        %INCLUDE KL_MACRO_C;
       92     4308        %INCLUDE KL_DATA_R;
       93     4772        %INCLUDE CP_6_SUBS;
       94     5312        %INCLUDE KI_SUBS_C;
       95     5448        %INCLUDE OC_SUBS_C;
       96     6179        %INCLUDE KL_SUBS_C;
       97     6233        %INCLUDE K_ADDRESS_M;
       98     6736        %INCLUDE B_SEGIDS_C;
       99     7275        /**/
      100     7276        %B$JIT0(STCLASS=BASED);
      101     7365        %U$JIT1;
      102     7439        %M$JIT2X;
      103     7442        %F$JIT3X;
      104     7445        %S$JIT4X;
      105     7448        %J$JIT5X;
      106     7451        %A$JIT6X;
      107     7454        %B$CGAURD (FPTN=BF);
      108     7473        %KL_FEPST(FPTN=KL$FEPST,STCLASS=BASED);
PL6.E3A0      #002=KLI$FEEV File=KLI$FESET.:E05TSI                               WED 07/30/97 00:50 Page:34
      109     7508        %KL$NODEINFO;
      110     7525        %KL$NETWORK (STCLASS="BASED(KL_EXTRSP_BUF$)");
      111     7552        %KL_FROG (STCLASS=SYMREF);
      112     7570        %EQU_CG;
      113     7618        /**/
      114     7619        /**/
      115     7620    1   DCL FEX UBIN WORD;
      116     7621    1   DCL PROB UBIN WORD;
      117     7622    1   DCL NODETYPE UBIN;
      118     7623    1   DCL STATE UBIN WORD;
      119     7624    1   DCL I SBIN;
      120     7625        %KL_NODECHG (FPTN=NODECHG,STCLASS=AUTO);
      121     7649        %KL_UPDOSI(FPTN=UPDOSI,STCLASS=AUTO);
      122     7858        %KL_UPDOSI(FPTN=KL$UPDOSI,STCLASS="BASED(KL_RDBF$)");
      123     8067    1   DCL B$PTR PTR BASED;
      124     8068    1   DCL B$UBIN UBIN BASED;
      125     8069        %KL_SETNODE (FPTN=SETNODE,STCLASS=AUTO);
      126     8115    1   DCL 1 VEVNT BASED ALIGNED,
      127     8116    1            2 PROB UBIN HALF UNAL,
      128     8117    1            2 STATE UBIN HALF UNAL;
      129     8118    1   DCL VJIT$ PTR;
      130     8119    1   DCL VM_UC$ PTR;
      131     8120    1   DCL VROSEG$ PTR;
      132     8121    1   DCL PP (0:2) UBIN WORD;
      133     8122    1   DCL PPTR$ PTR;
      134     8123        /**/
      135     8124    1   DCL KI_OSIMAX# UBIN SYMREF;             /* monitor data, # of osiroutes */
      136     8125    1   DCL KI_OSIROUTE$$ PTR SYMREF;      /* ditto- ptr to ptr array of osiroutes */
      137     8126    1   DCL KI_MXFE UBIN SYMREF;           /* number of feis defined on this system*/
      138     8127    1   DCL JC_ZIP SBIN WORD SYMREF;
      139     8128    1   DCL KL_STATION CHAR(8) SYMREF;
      140     8129    1   DCL KLX$CONV_NODE ENTRY(3) ALTRET;
      141     8130    1   DCL KLI$FEGO ENTRY(1);
      142     8131    1   DCL KLX$WRHLPNODE ENTRY(4) ALTRET;
      143     8132    1   DCL KLI$RECOVERY ENTRY;
      144     8133    1   DCL KLI$GETOSIROUTES ENTRY(1);
      145     8134    1   DCL JMU$SETSEG ENTRY(2);
PL6.E3A0      #002=KLI$FEEV File=KLI$FESET.:E05TSI                               WED 07/30/97 00:50 Page:35
      146     8135        /**/
      147     8136        %KL$NODEINFO_KEY (STCLASS=CONSTANT);
      148     8153        %KL$NETWORK_KEY (STCLASS=CONSTANT);
      149     8170        %FPT_READ (FPTN=KL_RD_NETCON,STCLASS=SYMREF);
      150     8209        %FPT_WRITE (FPTN=KL_WKYN,STCLASS=SYMREF);
      151     8240        %FPT_WRITE (FPTN=WRT_FROG,STCLASS="SYMREF");
      152     8271        %VLP_STATION (FPTN=FROG_STA,STATION='FROG');
      153     8298        %FPT_SAD(FPTN=SADTIGR,USERSID=%SPCL2SID,MONSID=%TIGRSID);
      154     8313        /**/
      155     8314        /**/
      156     8315    1        IF KL_STATION = 'BABOON'

   8315  4 000002   040000 106400                    CMPC    fill='040'O
         4 000003   000000 000010 xsym               ADSC9   KL_STATION               cn=0,n=8
         4 000004   000002 000006 2                  ADSC9   KL$NETWORK_KEY+1         cn=0,n=6
         4 000005   000140 601000 4                  TNZ     s:8356

      157     8316    2        THEN DO;

      158     8317    2             IF ADDR(KL_RDBF)->BF.EVENT = %CG_DOPN#

   8317  4 000006   000000 235000 xsym               LDA     KL_RDBF
         4 000007   000137 601000 4                  TNZ     s:8354

      159     8318    3             THEN DO;

      160     8319    3                  KL_RD_NETCON.BUF_ = VECTOR(ADDR(KL_RDBF)->KL$NODEINFO);

   8319  4 000010   000000 237000 5                  LDAQ    0
         4 000011   000004 757000 xsym               STAQ    KL_RD_NETCON+4

      161     8320    3                  KL_RD_NETCON.KEY_ = VECTOR(KL$NODEINFO_KEY);

   8320  4 000012   000002 237000 5                  LDAQ    2
         4 000013   000002 757000 xsym               STAQ    KL_RD_NETCON+2

      162     8321    3                  SETNODE.FCN = IGA_SETNODE;
PL6.E3A0      #002=KLI$FEEV File=KLI$FESET.:E05TSI                               WED 07/30/97 00:50 Page:36

   8321  4 000014   045000 236003                    LDQ     18944,DU
         4 000015   200031 552140                    STBQ    SETNODE,'40'O,AUTO

      163     8322    3                  CALL M$READ(KL_RD_NETCON)

   8322  4 000016   000000 630400 xsym               EPPR0   KL_RD_NETCON
         4 000017   440000 713400                    CLIMB   alt,read
         4 000020   401400 401760                    pmme    nvectors=4
         4 000021   000050 702000 4                  TSX2    s:8332

      164     8323    4                  WHENRETURN DO;

      165     8324    4                       SETNODE.NODE# = ADDR(KL_RDBF)->KL$NODEINFO.NODE#;

   8324  4 000022   000000 235000 xsym               LDA     KL_RDBF
         4 000023   200032 755100                    STA     SETNODE+1,,AUTO

      166     8325    4                       SETNODE.NODE_NAME = ADDR(KL_RDBF)->KL$NODEINFO.NODENAME;

   8325  4 000024   040100 100400                    MLR     fill='040'O
         4 000025   000001 000010 xsym               ADSC9   KL_RDBF+1                cn=0,n=8
         4 000026   200033 000010                    ADSC9   SETNODE+2,,AUTO          cn=0,n=8

      167     8326    4                       SETNODE.MY_NODE = '1'B;

   8326  4 000027   000200 236007                    LDQ     128,DL
         4 000030   200031 256100                    ORSQ    SETNODE,,AUTO

      168     8327    4                       KL_NODENAME = SETNODE.NODE_NAME;

   8327  4 000031   040000 100500                    MLR     fill='040'O
         4 000032   200033 000010                    ADSC9   SETNODE+2,,AUTO          cn=0,n=8
         4 000033   000000 000010 xsym               ADSC9   KL_NODENAME              cn=0,n=8

      169     8328    4                       KL_NODE = SETNODE.NODE#;

PL6.E3A0      #002=KLI$FEEV File=KLI$FESET.:E05TSI                               WED 07/30/97 00:50 Page:37
   8328  4 000034   000000 755000 xsym               STA     KL_NODE

      170     8329    4                       KL_NMNODE = KL_NODE;

   8329  4 000035   000000 755000 xsym               STA     KL_NMNODE

      171     8330    4                       CALL KLX$WRHLPNODE (SETNODE,SIZEC(SETNODE),KL_NODE);

   8330  4 000036   000005 236000 5                  LDQ     5
         4 000037   200050 756100                    STQ     PPTR$+5,,AUTO
         4 000040   000006 236000 5                  LDQ     6
         4 000041   200047 756100                    STQ     PPTR$+4,,AUTO
         4 000042   200031 630500                    EPPR0   SETNODE,,AUTO
         4 000043   200046 450500                    STP0    PPTR$+3,,AUTO
         4 000044   200046 630500                    EPPR0   PPTR$+3,,AUTO
         4 000045   000021 631400 xsym               EPPR1   B_VECTNIL+17
         4 000046   000000 701000 xent               TSX1    KLX$WRHLPNODE
         4 000047   000000 011000                    NOP     0

      172     8331    4                     END;

      173     8332    3                  CALL KLI$GETOSIROUTES(KL_NODE);

   8332  4 000050   000005 630400 5                  EPPR0   5
         4 000051   000017 631400 xsym               EPPR1   B_VECTNIL+15
         4 000052   000000 701000 xent               TSX1    KLI$GETOSIROUTES
         4 000053   000000 011000                    NOP     0

      174     8333    3                  CALL UPDATE;

   8333  4 000054   000724 701000 4                  TSX1    UPDATE
         4 000055   000000 011000                    NOP     0

      175     8334        /* Set the node name for all the nodes in the network */
      176     8335
      177     8336    3                  KL_FETBL.HOST_NODE(KL_NODE) = '1'B;

PL6.E3A0      #002=KLI$FEEV File=KLI$FESET.:E05TSI                               WED 07/30/97 00:50 Page:38
   8336  4 000056   000000 720000 xsym               LXL0    KL_NODE
         4 000057   400000 236003                    LDQ     -131072,DU
         4 000060   000000 256010 xsym               ORSQ    KL_FETBL,X0

      178     8337    3                  KL_FETBL.ACTIVE(KL_NODE) = '1'B;

   8337  4 000061   100000 236003                    LDQ     32768,DU
         4 000062   000000 256010 xsym               ORSQ    KL_FETBL,X0

      179     8338    3                  CALL M$SAD(SADTIGR)

   8338  4 000063   000010 630400 3                  EPPR0   SADTIGR
         4 000064   430015 713400                    CLIMB   alt,+12301
         4 000065   400000 401760                    pmme    nvectors=1
         4 000066   000137 702000 4                  TSX2    s:8354

      180     8339    4                  WHENRETURN DO;

      181     8340    4                       PPTR$ = ADDR(KI_OSIMAX#);

   8340  4 000067   000007 236000 5                  LDQ     7
         4 000070   200043 756100                    STQ     PPTR$,,AUTO

      182     8341    4                       CALL JMU$SETSEG(PPTR$,%SPCL1SID);

   8341  4 000071   000011 236000 5                  LDQ     9
         4 000072   200047 756100                    STQ     PPTR$+4,,AUTO
         4 000073   200043 630500                    EPPR0   PPTR$,,AUTO
         4 000074   200046 450500                    STP0    PPTR$+3,,AUTO
         4 000075   200046 630500                    EPPR0   PPTR$+3,,AUTO
         4 000076   000020 631400 xsym               EPPR1   B_VECTNIL+16
         4 000077   000000 701000 xent               TSX1    JMU$SETSEG
         4 000100   000000 011000                    NOP     0

      183     8342    4                       KL_OSIMAX# = PPTR$->B$UBIN;

   8342  4 000101   200043 470500                    LDP0    PPTR$,,AUTO
PL6.E3A0      #002=KLI$FEEV File=KLI$FESET.:E05TSI                               WED 07/30/97 00:50 Page:39
         4 000102   000000 235100                    LDA     0,,PR0
         4 000103   000000 755000 xsym               STA     KL_OSIMAX#

      184     8343    4                       PPTR$ = ADDR(KI_MXFE);

   8343  4 000104   000012 236000 5                  LDQ     10
         4 000105   200043 756100                    STQ     PPTR$,,AUTO

      185     8344    4                       CALL JMU$SETSEG(PPTR$,%SPCL1SID);

   8344  4 000106   000011 236000 5                  LDQ     9
         4 000107   200047 756100                    STQ     PPTR$+4,,AUTO
         4 000110   200043 630500                    EPPR0   PPTR$,,AUTO
         4 000111   200046 450500                    STP0    PPTR$+3,,AUTO
         4 000112   200046 630500                    EPPR0   PPTR$+3,,AUTO
         4 000113   000020 631400 xsym               EPPR1   B_VECTNIL+16
         4 000114   000000 701000 xent               TSX1    JMU$SETSEG
         4 000115   000000 011000                    NOP     0

      186     8345    4                       KL_MAXFEI# = PPTR$->B$UBIN;

   8345  4 000116   200043 470500                    LDP0    PPTR$,,AUTO
         4 000117   000000 235100                    LDA     0,,PR0
         4 000120   000000 755000 xsym               STA     KL_MAXFEI#

      187     8346    4                       PPTR$ = ADDR(KI_OSIROUTE$$);

   8346  4 000121   000013 236000 5                  LDQ     11
         4 000122   200043 756100                    STQ     PPTR$,,AUTO

      188     8347    4                       CALL JMU$SETSEG(PPTR$,%SPCL1SID);

   8347  4 000123   000011 236000 5                  LDQ     9
         4 000124   200047 756100                    STQ     PPTR$+4,,AUTO
         4 000125   200043 630500                    EPPR0   PPTR$,,AUTO
         4 000126   200046 450500                    STP0    PPTR$+3,,AUTO
         4 000127   200046 630500                    EPPR0   PPTR$+3,,AUTO
PL6.E3A0      #002=KLI$FEEV File=KLI$FESET.:E05TSI                               WED 07/30/97 00:50 Page:40
         4 000130   000020 631400 xsym               EPPR1   B_VECTNIL+16
         4 000131   000000 701000 xent               TSX1    JMU$SETSEG
         4 000132   000000 011000                    NOP     0

      189     8348    4                       KL_OSIROUTE$ = PPTR$->B$PTR;

   8348  4 000133   200043 470500                    LDP0    PPTR$,,AUTO
         4 000134   000000 236100                    LDQ     0,,PR0
         4 000135   000000 756000 xsym               STQ     KL_OSIROUTE$

      190     8349    4                     END;

   8349  4 000136   000137 710000 4                  TRA     s:8354

      191     8350    4                  WHENALTRETURN DO;

      192     8351                                                /* gotta screech */
      193     8352    4                     END;

      194     8353    3                END;

      195     8354    2             RETURN;

   8354  4 000137   000000 702200 xent               TSX2  ! X66_ARET

      196     8355    2           END;
      197     8356    1        CALL CHARBIN(FEX,SUBSTR(ADDR(KL_RDBF)->BF.STATION,4,4));

   8356  4 000140   000100 305400                    DTB
         4 000141   000002 030004 xsym               NDSC9   KL_RDBF+2                cn=0,s=nosgn,sf=0,n=4
         4 000142   200046 000010                    NDSC9   PPTR$+3,,AUTO            cn=0,s=lsgnf,sf=0,n=8
         4 000143   200047 235100                    LDA     PPTR$+4,,AUTO
         4 000144   200003 755100                    STA     FEX,,AUTO

      198     8357    1        IF FEX > KL_NODES THEN RETURN;     /*dont let too big of feps thru*/

   8357  4 000145   000000 236000 xsym               LDQ     KL_NODES
PL6.E3A0      #002=KLI$FEEV File=KLI$FESET.:E05TSI                               WED 07/30/97 00:50 Page:41
         4 000146   200003 116100                    CMPQ    FEX,,AUTO
         4 000147   000151 603000 4                  TRC     s:8358

   8357  4 000150   000000 702200 xent               TSX2  ! X66_ARET

      199     8358    1        KL_FEMSG.FEX = FEX;

   8358  4 000151   200003 236100                    LDQ     FEX,,AUTO
         4 000152   000033 736000                    QLS     27
         4 000153   000006 552040 xsym               STBQ    KL_FEMSG+6,'40'O

      200     8359    1        CALL KLX$CONV_NODE(KL_FEMSG.NAME,FEX,I)

   8359  4 000154   200007 630500                    EPPR0   I,,AUTO
         4 000155   200050 450500                    STP0    PPTR$+5,,AUTO
         4 000156   200003 631500                    EPPR1   FEX,,AUTO
         4 000157   200047 451500                    STP1    PPTR$+4,,AUTO
         4 000160   000014 236000 5                  LDQ     12
         4 000161   200046 756100                    STQ     PPTR$+3,,AUTO
         4 000162   200046 630500                    EPPR0   PPTR$+3,,AUTO
         4 000163   000021 631400 xsym               EPPR1   B_VECTNIL+17
         4 000164   000000 701000 xent               TSX1    KLX$CONV_NODE
         4 000165   000167 702000 4                  TSX2    s:8361
         4 000166   000172 710000 4                  TRA     s:8363

      201     8360    2        WHENALTRETURN DO;

      202     8361    2             KL_FEMSG.NAME = ' ';

   8361  4 000167   040000 100400                    MLR     fill='040'O
         4 000170   000035 000001 xsym               ADSC9   B_VECTNIL+29             cn=0,n=1
         4 000171   000006 600010 xsym               ADSC9   KL_FEMSG+6               cn=3,n=8

      203     8362    2           END;

      204     8363    2        DO CASE (ADDR(KL_RDBF)->BF.EVENT);

PL6.E3A0      #002=KLI$FEEV File=KLI$FESET.:E05TSI                               WED 07/30/97 00:50 Page:42
   8363  4 000172   000000 235000 xsym               LDA     KL_RDBF
         4 000173   000005 115007                    CMPA    5,DL
         4 000174   000176 602005 4                  TNC     s:8363+4,AL
         4 000175   000255 710000 4                  TRA     s:8382
         4 000176   000255 710000 4                  TRA     s:8382
         4 000177   000255 710000 4                  TRA     s:8382
         4 000200   000221 710000 4                  TRA     s:8371
         4 000201   000203 710000 4                  TRA     s:8365
         4 000202   000252 710000 4                  TRA     s:8380

      205     8364    2        CASE (%CG_TDSC#);                  /* REMOTE DISCONNECTING */

      206     8365    2           KL_FETBL.ACTIVE(FEX) = '0'B;

   8365  4 000203   200003 720100                    LXL0    FEX,,AUTO
         4 000204   000015 236000 5                  LDQ     13
         4 000205   000000 356010 xsym               ANSQ    KL_FETBL,X0

      207     8366    2           CALL KLI$RECOVERY;

   8366  4 000206   000002 631400 xsym               EPPR1   B_VECTNIL+2
         4 000207   000000 701000 xent               TSX1    KLI$RECOVERY
         4 000210   000000 011000                    NOP     0

      208     8367    2           KL_FEMSG.MSG# = FEDN_MSG#;

   8367  4 000211   000013 220003                    LDX0    11,DU
         4 000212   000000 440000 xsym               SXL0    KL_FEMSG

      209     8368    3           CALL M$WRITE (KL_WKYN) WHENALTRETURN DO;

   8368  4 000213   000000 630400 xsym               EPPR0   KL_WKYN
         4 000214   440001 713400                    CLIMB   alt,write
         4 000215   401400 401760                    pmme    nvectors=4
         4 000216   000220 702000 4                  TSX2    s:8369
         4 000217   000220 710000 4                  TRA     s:8369

PL6.E3A0      #002=KLI$FEEV File=KLI$FESET.:E05TSI                               WED 07/30/97 00:50 Page:43
      210     8369    3              END;

   8369  4 000220   000255 710000 4                  TRA     s:8382

      211     8370    2        CASE (%CG_TCON#);

      212     8371    2           KL_FETBL.ACTIVE(FEX) = '1'B;

   8371  4 000221   200003 720100                    LXL0    FEX,,AUTO
         4 000222   100000 236003                    LDQ     32768,DU
         4 000223   000000 256010 xsym               ORSQ    KL_FETBL,X0

      213     8372    2           KL_FEMSG.MSG#=FEUP_MSG#;

   8372  4 000224   000010 221003                    LDX1    8,DU
         4 000225   000000 441000 xsym               SXL1    KL_FEMSG

      214     8373    2           KL_FEMSG.STATE = 0;

   8373  4 000226   000000 236003                    LDQ     0,DU
         4 000227   000006 552010 xsym               STBQ    KL_FEMSG+6,'10'O

      215     8374    2           KL_FEMSG.PROB = 0;

   8374  4 000230   000006 552020 xsym               STBQ    KL_FEMSG+6,'20'O

      216     8375    2           IF FEX>KL_MXFE THEN KL_MXFE=FEX;

   8375  4 000231   000000 236000 xsym               LDQ     KL_MXFE
         4 000232   200003 116100                    CMPQ    FEX,,AUTO
         4 000233   000236 603000 4                  TRC     s:8376

   8375  4 000234   200003 235100                    LDA     FEX,,AUTO
         4 000235   000000 755000 xsym               STA     KL_MXFE

      217     8376    2           CALL KLI$FEGO (FEX);

PL6.E3A0      #002=KLI$FEEV File=KLI$FESET.:E05TSI                               WED 07/30/97 00:50 Page:44
   8376  4 000236   200003 630500                    EPPR0   FEX,,AUTO
         4 000237   200046 450500                    STP0    PPTR$+3,,AUTO
         4 000240   200046 630500                    EPPR0   PPTR$+3,,AUTO
         4 000241   000017 631400 xsym               EPPR1   B_VECTNIL+15
         4 000242   000000 701000 xent               TSX1    KLI$FEGO
         4 000243   000000 011000                    NOP     0

      218     8377    3           CALL M$WRITE (KL_WKYN) WHENALTRETURN DO;

   8377  4 000244   000000 630400 xsym               EPPR0   KL_WKYN
         4 000245   440001 713400                    CLIMB   alt,write
         4 000246   401400 401760                    pmme    nvectors=4
         4 000247   000251 702000 4                  TSX2    s:8378
         4 000250   000251 710000 4                  TRA     s:8378

      219     8378    3              END;

   8378  4 000251   000255 710000 4                  TRA     s:8382

      220     8379    2        CASE (%CG_TBRK#);

      221     8380    2           KL_FETBL.KTYP(FEX)=%KLKT_NONE#;

   8380  4 000252   200003 720100                    LXL0    FEX,,AUTO
         4 000253   000016 236000 5                  LDQ     14
         4 000254   000000 356010 xsym               ANSQ    KL_FETBL,X0

      222     8381    2        END;

      223     8382    1        RETURN;

   8382  4 000255   000000 702200 xent               TSX2  ! X66_ARET

      224     8383        /**/
      225     8384        %EJECT;
PL6.E3A0      #002=KLI$FEEV File=KLI$FESET.:E05TSI                               WED 07/30/97 00:50 Page:45
      226     8385    1   KLI$FEPCHANGE: ENTRY;

   8385  4 000256   000000 700200 xent  KLI$FEPCHAN* TSX0  ! X66_AUTO_0
         4 000257   000052 000000                    ZERO    42,0

      227     8386
      228     8387    1        FEX = ADDR(KL_RDBF)->KL$FEPST.FEP;

   8387  4 000260   000000 236000 xsym               LDQ     KL_RDBF
         4 000261   000022 772000                    QRL     18
         4 000262   000777 376007                    ANQ     511,DL
         4 000263   200003 756100                    STQ     FEX,,AUTO

      229     8388    1        PROB=ADDR(KL_RDBF)->KL$FEPST.PROB;

   8388  4 000264   000000 236000 xsym               LDQ     KL_RDBF
         4 000265   777777 376007                    ANQ     -1,DL
         4 000266   200004 756100                    STQ     PROB,,AUTO

      230     8389    1        STATE=ADDR(KL_RDBF)->KL$FEPST.STATE;

   8389  4 000267   000001 235000 xsym               LDA     KL_RDBF+1
         4 000270   000022 771000                    ARL     18
         4 000271   200006 755100                    STA     STATE,,AUTO

      231     8390    1        IF PROB ~= KIER_QOSCHG

   8390  4 000272   000023 116007                    CMPQ    19,DL
         4 000273   000301 600000 4                  TZE     s:8395

      232     8391    2        THEN DO;

      233     8392    2             KL_FETBL.LINK_CONNECT(FEX) = '1'B;

   8392  4 000274   200003 720100                    LXL0    FEX,,AUTO
         4 000275   200000 236003                    LDQ     65536,DU
         4 000276   000000 256010 xsym               ORSQ    KL_FETBL,X0
PL6.E3A0      #002=KLI$FEEV File=KLI$FESET.:E05TSI                               WED 07/30/97 00:50 Page:46

      234     8393    2             KL_FETBL.LINK_ACTIVE(FEX) = '0'B;

   8393  4 000277   000017 236000 5                  LDQ     15
         4 000300   000000 356010 xsym               ANSQ    KL_FETBL,X0

      235     8394    2           END;

      236     8395    1        IF JC_ZIP~=0

   8395  4 000301   000000 236000 xsym               LDQ     JC_ZIP
         4 000302   000304 600000 4                  TZE     s:8398

      237     8396    1        THEN
      238     8397    1             RETURN;

   8397  4 000303   000000 702200 xent               TSX2  ! X66_ARET

      239     8398    1        KL_FEMSG.FEX=FEX;

   8398  4 000304   200003 236100                    LDQ     FEX,,AUTO
         4 000305   000033 736000                    QLS     27
         4 000306   000006 552040 xsym               STBQ    KL_FEMSG+6,'40'O

      240     8399    1        CALL KLX$CONV_NODE(KL_FEMSG.NAME,FEX,I)

   8399  4 000307   200007 630500                    EPPR0   I,,AUTO
         4 000310   200050 450500                    STP0    PPTR$+5,,AUTO
         4 000311   200003 631500                    EPPR1   FEX,,AUTO
         4 000312   200047 451500                    STP1    PPTR$+4,,AUTO
         4 000313   000014 236000 5                  LDQ     12
         4 000314   200046 756100                    STQ     PPTR$+3,,AUTO
         4 000315   200046 630500                    EPPR0   PPTR$+3,,AUTO
         4 000316   000021 631400 xsym               EPPR1   B_VECTNIL+17
         4 000317   000000 701000 xent               TSX1    KLX$CONV_NODE
         4 000320   000322 702000 4                  TSX2    s:8401
         4 000321   000325 710000 4                  TRA     s:8403
PL6.E3A0      #002=KLI$FEEV File=KLI$FESET.:E05TSI                               WED 07/30/97 00:50 Page:47

      241     8400    2        WHENALTRETURN DO;

      242     8401    2             KL_FEMSG.NAME = ' ';

   8401  4 000322   040000 100400                    MLR     fill='040'O
         4 000323   000035 000001 xsym               ADSC9   B_VECTNIL+29             cn=0,n=1
         4 000324   000006 600010 xsym               ADSC9   KL_FEMSG+6               cn=3,n=8

      243     8402    2           END;

      244     8403    1        KL_FEMSG.PROB=PROB;

   8403  4 000325   200004 236100                    LDQ     PROB,,AUTO
         4 000326   000022 736000                    QLS     18
         4 000327   000006 552020 xsym               STBQ    KL_FEMSG+6,'20'O

      245     8404    1        KL_FEMSG.STATE = STATE;

   8404  4 000330   200006 236100                    LDQ     STATE,,AUTO
         4 000331   000011 736000                    QLS     9
         4 000332   000006 552010 xsym               STBQ    KL_FEMSG+6,'10'O

      246     8405    1        IF STATE = KIST_BT                 /* Was booting */

   8405  4 000333   200006 235100                    LDA     STATE,,AUTO
         4 000334   000006 115007                    CMPA    6,DL
         4 000335   000347 601000 4                  TNZ     s:8412

      247     8406    2        THEN DO;

      248     8407    2             KL_FROG.FEX = FEX;

   8407  4 000336   200003 236100                    LDQ     FEX,,AUTO
         4 000337   000000 552004 xsym               STBQ    KL_FROG,'04'O

      249     8408    2             KL_FROG.FUNCTION = %KLFR_BTDN;
PL6.E3A0      #002=KLI$FEEV File=KLI$FESET.:E05TSI                               WED 07/30/97 00:50 Page:48

   8408  4 000340   004000 236007                    LDQ     2048,DL
         4 000341   000000 552010 xsym               STBQ    KL_FROG,'10'O

      250     8409    3             CALL M$WRITE (WRT_FROG) WHENALTRETURN DO;

   8409  4 000342   000000 630400 xsym               EPPR0   WRT_FROG
         4 000343   440001 713400                    CLIMB   alt,write
         4 000344   401400 401760                    pmme    nvectors=4
         4 000345   000347 702000 4                  TSX2    s:8412
         4 000346   000347 710000 4                  TRA     s:8412

      251     8410    3                END;

      252     8411    2           END;

      253     8412    2        DO CASE (PROB);

   8412  4 000347   200004 235100                    LDA     PROB,,AUTO
         4 000350   000024 115007                    CMPA    20,DL
         4 000351   000353 602005 4                  TNC     s:8412+4,AL
         4 000352   000660 710000 4                  TRA     PROBS
         4 000353   000377 710000 4                  TRA     s:8414
         4 000354   000605 710000 4                  TRA     s:8475
         4 000355   000660 710000 4                  TRA     PROBS
         4 000356   000660 710000 4                  TRA     PROBS
         4 000357   000660 710000 4                  TRA     PROBS
         4 000360   000660 710000 4                  TRA     PROBS
         4 000361   000660 710000 4                  TRA     PROBS
         4 000362   000660 710000 4                  TRA     PROBS
         4 000363   000660 710000 4                  TRA     PROBS
         4 000364   000660 710000 4                  TRA     PROBS
         4 000365   000660 710000 4                  TRA     PROBS
         4 000366   000613 710000 4                  TRA     s:8480
         4 000367   000660 710000 4                  TRA     PROBS
         4 000370   000572 710000 4                  TRA     s:8469
         4 000371   000572 710000 4                  TRA     s:8469
PL6.E3A0      #002=KLI$FEEV File=KLI$FESET.:E05TSI                               WED 07/30/97 00:50 Page:49
         4 000372   000572 710000 4                  TRA     s:8469
         4 000373   000651 710000 4                  TRA     s:8496
         4 000374   000660 710000 4                  TRA     PROBS
         4 000375   000660 710000 4                  TRA     PROBS
         4 000376   000405 710000 4                  TRA     s:8418

      254     8413    2        CASE (KIER_OK);

      255     8414    2           KL_FETBL.LINK_ACTIVE(FEX) = '1'B;

   8414  4 000377   200003 720100                    LXL0    FEX,,AUTO
         4 000400   010000 236003                    LDQ     4096,DU
         4 000401   000000 256010 xsym               ORSQ    KL_FETBL,X0

      256     8415    2           KL_FETBL.KTYP(FEX) = %KLKT_NONE#;

   8415  4 000402   000016 236000 5                  LDQ     14
         4 000403   000000 356010 xsym               ANSQ    KL_FETBL,X0

      257     8416    2           RETURN;

   8416  4 000404   000000 702200 xent               TSX2  ! X66_ARET

      258     8417    2        CASE (KIER_QOSCHG);

      259     8418    2           IF KL_FETBL.HOST_NODE(FEX)

   8418  4 000405   200003 720100                    LXL0    FEX,,AUTO
         4 000406   000000 234010 xsym               SZN     KL_FETBL,X0
         4 000407   000453 605000 4                  TPL     s:8438

      260     8419    2           THEN
      261     8420    2                IF ADDR(KL_RDBF)->KL$FEPST.QOS = 255

   8420  4 000410   000001 721000 xsym               LXL1    KL_RDBF+1
         4 000411   000377 101003                    CMPX1   255,DU
         4 000412   000446 601000 4                  TNZ     s:8434
PL6.E3A0      #002=KLI$FEEV File=KLI$FESET.:E05TSI                               WED 07/30/97 00:50 Page:50

      262     8421    3                THEN DO;

      263     8422    3                     KL_FETBL.ACTIVE(FEX) = '0'B;

   8422  4 000413   000015 236000 5                  LDQ     13
         4 000414   000000 356010 xsym               ANSQ    KL_FETBL,X0

      264     8423    3                     KL_FEMSG.PROB = 3;

   8423  4 000415   000003 236003                    LDQ     3,DU
         4 000416   000006 552020 xsym               STBQ    KL_FEMSG+6,'20'O

      265     8424    3                     KL_FEMSG.FEX = FEX;

   8424  4 000417   200003 236100                    LDQ     FEX,,AUTO
         4 000420   000033 736000                    QLS     27
         4 000421   000006 552040 xsym               STBQ    KL_FEMSG+6,'40'O

   8424  4 000422                       TELL_FEP_MSG null
      266     8425    3   TELL_FEP_MSG:     ;
      267     8426    3                     KL_FEMSG.MSG# = FEUP_MSG#;

   8426  4 000422   000010 220003                    LDX0    8,DU
         4 000423   000000 440000 xsym               SXL0    KL_FEMSG

      268     8427    3                     CALL KLX$CONV_NODE(KL_FEMSG.NAME,FEX,NODETYPE);

   8427  4 000424   200005 630500                    EPPR0   NODETYPE,,AUTO
         4 000425   200050 450500                    STP0    PPTR$+5,,AUTO
         4 000426   200003 631500                    EPPR1   FEX,,AUTO
         4 000427   200047 451500                    STP1    PPTR$+4,,AUTO
         4 000430   000014 236000 5                  LDQ     12
         4 000431   200046 756100                    STQ     PPTR$+3,,AUTO
         4 000432   200046 630500                    EPPR0   PPTR$+3,,AUTO
         4 000433   000021 631400 xsym               EPPR1   B_VECTNIL+17
         4 000434   000000 701000 xent               TSX1    KLX$CONV_NODE
PL6.E3A0      #002=KLI$FEEV File=KLI$FESET.:E05TSI                               WED 07/30/97 00:50 Page:51
         4 000435   000000 011000                    NOP     0

      269     8428    3                     KL_FEMSG.STATE = 1;

   8428  4 000436   001000 236007                    LDQ     512,DL
         4 000437   000006 552010 xsym               STBQ    KL_FEMSG+6,'10'O

      270     8429    3                     CALL M$WRITE(KL_WKYN)

   8429  4 000440   000000 630400 xsym               EPPR0   KL_WKYN
         4 000441   440001 713400                    CLIMB   alt,write
         4 000442   401400 401760                    pmme    nvectors=4
         4 000443   000445 702000 4                  TSX2    s:8432
         4 000444   000445 710000 4                  TRA     s:8432

      271     8430    4                     WHENALTRETURN DO;

      272     8431    4                        END;

      273     8432    3                   END;

   8432  4 000445   000453 710000 4                  TRA     s:8438

      274     8433    3                ELSE DO;

      275     8434    3                     KL_FETBL.ACTIVE(FEX) ='1'B;

   8434  4 000446   100000 236003                    LDQ     32768,DU
         4 000447   000000 256010 xsym               ORSQ    KL_FETBL,X0

      276     8435    3                     KL_FEMSG.PROB = 0;

   8435  4 000450   000000 236003                    LDQ     0,DU
         4 000451   000006 552020 xsym               STBQ    KL_FEMSG+6,'20'O

      277     8436    3                     GOTO TELL_FEP_MSG;

PL6.E3A0      #002=KLI$FEEV File=KLI$FESET.:E05TSI                               WED 07/30/97 00:50 Page:52
   8436  4 000452   000422 710000 4                  TRA     TELL_FEP_MSG

      278     8437    3                   END;
      279     8438    3           DO I = 0 TO KL_NODES;

   8438  4 000453   200007 450100                    STZ     I,,AUTO
         4 000454   000557 710000 4                  TRA     s:8465+1

      280     8439    3                IF I ~= KL_NODE            /* Not this node */

   8439  4 000455   200007 236100                    LDQ     I,,AUTO
         4 000456   000461 604000 4                  TMI     s:8439+4
         4 000457   000000 116000 xsym               CMPQ    KL_NODE
         4 000460   000556 600000 4                  TZE     s:8465
         4 000461   000000 236006 xsym               LDQ     KL_FETBL,QL
         4 000462   010000 316003                    CANQ    4096,DU
         4 000463   000556 600000 4                  TZE     s:8465
         4 000464   200007 236100                    LDQ     I,,AUTO
         4 000465   000470 604000 4                  TMI     s:8439+11
         4 000466   200003 116100                    CMPQ    FEX,,AUTO
         4 000467   000556 600000 4                  TZE     s:8465
         4 000470   000000 236006 xsym               LDQ     KL_FETBL,QL
         4 000471   200000 316003                    CANQ    65536,DU
         4 000472   000556 600000 4                  TZE     s:8465

      281     8440    3                     AND KL_FETBL.LINK_ACTIVE(I)
      282     8441    3                     AND I ~= FEX          /* Do not tell him about himself */
      283     8442    3                     AND KL_FETBL.LINK_CONNECT(I)
              8442                              /* dont stuff it down everyones throats */
      284     8443    4                THEN DO;

      285     8444    4                     NODECHG.FCN = IGA_NODECHG;

   8444  4 000473   051000 236003                    LDQ     20992,DU
         4 000474   200010 552140                    STBQ    NODECHG,'40'O,AUTO

      286     8445    4                     NODECHG.MYNODE = KL_NODE;
PL6.E3A0      #002=KLI$FEEV File=KLI$FESET.:E05TSI                               WED 07/30/97 00:50 Page:53

   8445  4 000475   000000 236000 xsym               LDQ     KL_NODE
         4 000476   200010 552104                    STBQ    NODECHG,'04'O,AUTO

      287     8446    4                     NODECHG.NODE = FEX;

   8446  4 000477   200003 236100                    LDQ     FEX,,AUTO
         4 000500   000033 736000                    QLS     27
         4 000501   200011 552140                    STBQ    NODECHG+1,'40'O,AUTO

      288     8447    4                     IF I = ADDR(KL_RDBF)->KL$FEPST.LNK_NODE

   8447  4 000502   000002 236000 xsym               LDQ     KL_RDBF+2
         4 000503   000022 772000                    QRL     18
         4 000504   200007 116100                    CMPQ    I,,AUTO
         4 000505   000512 601000 4                  TNZ     s:8451

      289     8448    4                     THEN
      290     8449    4                          NODECHG.QOS = ADDR(KL_RDBF)->KL$FEPST.ALT_QOS;

   8449  4 000506   000002 236000 xsym               LDQ     KL_RDBF+2
         4 000507   000011 736000                    QLS     9
         4 000510   200011 552110                    STBQ    NODECHG+1,'10'O,AUTO
         4 000511   000515 710000 4                  TRA     s:8452

      291     8450    4                     ELSE
      292     8451    4                          NODECHG.QOS = ADDR(KL_RDBF)->KL$FEPST.QOS;

   8451  4 000512   000001 236000 xsym               LDQ     KL_RDBF+1
         4 000513   000011 736000                    QLS     9
         4 000514   200011 552110                    STBQ    NODECHG+1,'10'O,AUTO

      293     8452    4                     IF NODECHG.QOS + KL_HOPCOST > 255

   8452  4 000515   200011 236100                    LDQ     NODECHG+1,,AUTO
         4 000516   000011 772000                    QRL     9
         4 000517   000777 376007                    ANQ     511,DL
PL6.E3A0      #002=KLI$FEEV File=KLI$FESET.:E05TSI                               WED 07/30/97 00:50 Page:54
         4 000520   000000 036000 xsym               ADLQ    KL_HOPCOST
         4 000521   000400 116007                    CMPQ    256,DL
         4 000522   000526 602000 4                  TNC     s:8456

      294     8453    4                     THEN
      295     8454    4                          NODECHG.QOS = 255;

   8454  4 000523   377000 236007                    LDQ     130560,DL
         4 000524   200011 552110                    STBQ    NODECHG+1,'10'O,AUTO
         4 000525   000534 710000 4                  TRA     s:8457

      296     8455    4                     ELSE
      297     8456    4                          NODECHG.QOS = NODECHG.QOS + KL_HOPCOST;

   8456  4 000526   200011 236100                    LDQ     NODECHG+1,,AUTO
         4 000527   000011 772000                    QRL     9
         4 000530   000777 376007                    ANQ     511,DL
         4 000531   000000 036000 xsym               ADLQ    KL_HOPCOST
         4 000532   000011 736000                    QLS     9
         4 000533   200011 552110                    STBQ    NODECHG+1,'10'O,AUTO

      298     8457    4                     IF KL_FETBL.HOST_NODE(FEX)

   8457  4 000534   200003 720100                    LXL0    FEX,,AUTO
         4 000535   000000 234010 xsym               SZN     KL_FETBL,X0
         4 000536   000542 605000 4                  TPL     s:8462

      299     8458    5                     THEN DO;

      300     8459    5                          NODECHG.HOSTNODE = 1;

   8459  4 000537   000001 236003                    LDQ     1,DU
         4 000540   200011 552120                    STBQ    NODECHG+1,'20'O,AUTO

      301     8460    5                        END;

   8460  4 000541   000544 710000 4                  TRA     s:8463
PL6.E3A0      #002=KLI$FEEV File=KLI$FESET.:E05TSI                               WED 07/30/97 00:50 Page:55

      302     8461    4                     ELSE
      303     8462    4                          NODECHG.HOSTNODE = 0;

   8462  4 000542   000000 236003                    LDQ     0,DU
         4 000543   200011 552120                    STBQ    NODECHG+1,'20'O,AUTO

      304     8463    4                     CALL KLX$WRHLPNODE(NODECHG,SIZEC(NODECHG),I);

   8463  4 000544   200007 630500                    EPPR0   I,,AUTO
         4 000545   200050 450500                    STP0    PPTR$+5,,AUTO
         4 000546   000020 236000 5                  LDQ     16
         4 000547   200047 756100                    STQ     PPTR$+4,,AUTO
         4 000550   200010 631500                    EPPR1   NODECHG,,AUTO
         4 000551   200046 451500                    STP1    PPTR$+3,,AUTO
         4 000552   200046 630500                    EPPR0   PPTR$+3,,AUTO
         4 000553   000021 631400 xsym               EPPR1   B_VECTNIL+17
         4 000554   000000 701000 xent               TSX1    KLX$WRHLPNODE
         4 000555   000000 011000                    NOP     0

      305     8464    4                   END;

      306     8465    3              END;

   8465  4 000556   200007 054100                    AOS     I,,AUTO
         4 000557   000000 236000 xsym               LDQ     KL_NODES
         4 000560   000455 604000 4                  TMI     s:8439
         4 000561   200007 116100                    CMPQ    I,,AUTO
         4 000562   000455 605000 4                  TPL     s:8439

      307     8466    2           KL_FETBL.QOS(FEX) = ADDR(KL_RDBF)->KL$FEPST.QOS;

   8466  4 000563   200003 720100                    LXL0    FEX,,AUTO
         4 000564   000001 236000 xsym               LDQ     KL_RDBF+1
         4 000565   000022 736000                    QLS     18
         4 000566   000000 676010 xsym               ERQ     KL_FETBL,X0
         4 000567   000777 376003                    ANQ     511,DU
PL6.E3A0      #002=KLI$FEEV File=KLI$FESET.:E05TSI                               WED 07/30/97 00:50 Page:56
         4 000570   000000 656010 xsym               ERSQ    KL_FETBL,X0

      308     8467    2           RETURN;

   8467  4 000571   000000 702200 xent               TSX2  ! X66_ARET

      309     8468    2        CASE (KIER_STOP,KIER_PART,KIER_UPRT);

      310     8469    2           KL_FEMSG.MSG#=FESP_MSG#;

   8469  4 000572   000007 220003                    LDX0    7,DU
         4 000573   000000 440000 xsym               SXL0    KL_FEMSG

      311     8470    3           CALL M$WRITE (KL_WKYN) WHENALTRETURN DO;

   8470  4 000574   000000 630400 xsym               EPPR0   KL_WKYN
         4 000575   440001 713400                    CLIMB   alt,write
         4 000576   401400 401760                    pmme    nvectors=4
         4 000577   000601 702000 4                  TSX2    s:8472
         4 000600   000601 710000 4                  TRA     s:8472

      312     8471    3              END;

      313     8472    2           KL_FETBL.KTYP(FEX) = %KLKT_NONE#;

   8472  4 000601   200003 720100                    LXL0    FEX,,AUTO
         4 000602   000016 236000 5                  LDQ     14
         4 000603   000000 356010 xsym               ANSQ    KL_FETBL,X0

      314     8473    2           RETURN;

   8473  4 000604   000000 702200 xent               TSX2  ! X66_ARET

      315     8474    2        CASE (KIER_TO);

      316     8475    2           IF STATE ~= KIST_BT AND STATE ~= KIST_DMP

PL6.E3A0      #002=KLI$FEEV File=KLI$FESET.:E05TSI                               WED 07/30/97 00:50 Page:57
   8475  4 000605   200006 236100                    LDQ     STATE,,AUTO
         4 000606   000006 116007                    CMPQ    6,DL
         4 000607   000612 600000 4                  TZE     s:8475+5
         4 000610   000005 116007                    CMPQ    5,DL
         4 000611   000660 601000 4                  TNZ     PROBS
         4 000612   000704 710000 4                  TRA     s:8513

      317     8476    2           THEN
      318     8477    2                GOTO PROBS;
      319     8478
      320     8479    2        CASE (KIER_BCMD);

      321     8480    2           IF KL_FETBL.KTYP(FEX) ~= %KLKT_NONE#

   8480  4 000613   200003 720100                    LXL0    FEX,,AUTO
         4 000614   000000 236010 xsym               LDQ     KL_FETBL,X0
         4 000615   007000 316003                    CANQ    3584,DU
         4 000616   000704 600000 4                  TZE     s:8513

      322     8481    3           THEN DO;

      323     8482    3                IF KL_FETBL.KTYP(FEX) = %KLKT_DUMP#

   8482  4 000617   000000 236010 xsym               LDQ     KL_FETBL,X0
         4 000620   007000 376003                    ANQ     3584,DU
         4 000621   002000 116003                    CMPQ    1024,DU
         4 000622   000625 601000 4                  TNZ     s:8485

      324     8483    3                THEN
      325     8484    3                     KL_FROG.FUNCTION = %KLFR_DMP;

   8484  4 000623   002000 236007                    LDQ     1024,DL
         4 000624   000000 552010 xsym               STBQ    KL_FROG,'10'O

      326     8485    3                IF KL_FETBL.KTYP(FEX) = %KLKT_BOOT#

   8485  4 000625   000000 236010 xsym               LDQ     KL_FETBL,X0
PL6.E3A0      #002=KLI$FEEV File=KLI$FESET.:E05TSI                               WED 07/30/97 00:50 Page:58
         4 000626   007000 376003                    ANQ     3584,DU
         4 000627   001000 116003                    CMPQ    512,DU
         4 000630   000633 601000 4                  TNZ     s:8488

      327     8486    3                THEN
      328     8487    3                     KL_FROG.FUNCTION = %KLFR_BT;

   8487  4 000631   001000 236007                    LDQ     512,DL
         4 000632   000000 552010 xsym               STBQ    KL_FROG,'10'O

      329     8488    3                IF KL_FETBL.KTYP(FEX) = %KLKT_CRASH#

   8488  4 000633   000000 236010 xsym               LDQ     KL_FETBL,X0
         4 000634   007000 376003                    ANQ     3584,DU
         4 000635   004000 116003                    CMPQ    2048,DU
         4 000636   000641 601000 4                  TNZ     s:8491

      330     8489    3                THEN
      331     8490    3                     KL_FROG.FUNCTION = %KLFR_DMPBT;

   8490  4 000637   003000 236007                    LDQ     1536,DL
         4 000640   000000 552010 xsym               STBQ    KL_FROG,'10'O

      332     8491    3                KL_FROG.FEX = FEX;

   8491  4 000641   200003 236100                    LDQ     FEX,,AUTO
         4 000642   000000 552004 xsym               STBQ    KL_FROG,'04'O

      333     8492    4                CALL M$WRITE (WRT_FROG) WHENALTRETURN DO;

   8492  4 000643   000000 630400 xsym               EPPR0   WRT_FROG
         4 000644   440001 713400                    CLIMB   alt,write
         4 000645   401400 401760                    pmme    nvectors=4
         4 000646   000650 702000 4                  TSX2    s:8494
         4 000647   000650 710000 4                  TRA     s:8494

      334     8493    4                   END;
PL6.E3A0      #002=KLI$FEEV File=KLI$FESET.:E05TSI                               WED 07/30/97 00:50 Page:59

      335     8494    3              END;

   8494  4 000650   000704 710000 4                  TRA     s:8513

      336     8495    2        CASE (KIER_FREQ);

      337     8496    2           IF STATE = KIST_BT

   8496  4 000651   200006 236100                    LDQ     STATE,,AUTO
         4 000652   000006 116007                    CMPQ    6,DL
         4 000653   000704 601000 4                  TNZ     s:8513

      338     8497    3           THEN DO;

      339     8498    3                KL_FETBL.KTYP(FEX) = %KLKT_NONE#;

   8498  4 000654   200003 720100                    LXL0    FEX,,AUTO
         4 000655   000016 236000 5                  LDQ     14
         4 000656   000000 356010 xsym               ANSQ    KL_FETBL,X0

      340     8499    3                RETURN;

   8499  4 000657   000000 702200 xent               TSX2  ! X66_ARET

      341     8500    3              END;
      342     8501    2        CASE (ELSE);

   8496  4 000660                       PROBS        null
      343     8502    2   PROBS:  ;
      344     8503    2           IF STATE ~= KIST_BT AND STATE ~= KIST_DMP

   8503  4 000660   200006 236100                    LDQ     STATE,,AUTO
         4 000661   000006 116007                    CMPQ    6,DL
         4 000662   000704 600000 4                  TZE     s:8513
         4 000663   000005 116007                    CMPQ    5,DL
         4 000664   000704 600000 4                  TZE     s:8513
PL6.E3A0      #002=KLI$FEEV File=KLI$FESET.:E05TSI                               WED 07/30/97 00:50 Page:60
         4 000665   200003 720100                    LXL0    FEX,,AUTO
         4 000666   000000 236010 xsym               LDQ     KL_FETBL,X0
         4 000667   020000 316003                    CANQ    8192,DU
         4 000670   000704 601000 4                  TNZ     s:8513
         4 000671   040000 316003                    CANQ    16384,DU
         4 000672   000704 600000 4                  TZE     s:8513

      345     8504    2                AND NOT KL_FETBL.DEBUG(FEX)
      346     8505    2                AND KL_FETBL.BOSS(FEX)
      347     8506    3           THEN DO;

      348     8507    3                KL_FROG.FEX = FEX;

   8507  4 000673   200003 236100                    LDQ     FEX,,AUTO
         4 000674   000000 552004 xsym               STBQ    KL_FROG,'04'O

      349     8508    3                KL_FROG.FUNCTION = %KLFR_DMPBT;

   8508  4 000675   003000 236007                    LDQ     1536,DL
         4 000676   000000 552010 xsym               STBQ    KL_FROG,'10'O

      350     8509    4                CALL M$WRITE (WRT_FROG) WHENALTRETURN DO;

   8509  4 000677   000000 630400 xsym               EPPR0   WRT_FROG
         4 000700   440001 713400                    CLIMB   alt,write
         4 000701   401400 401760                    pmme    nvectors=4
         4 000702   000704 702000 4                  TSX2    s:8513
         4 000703   000704 710000 4                  TRA     s:8513

      351     8510    4                   END;

      352     8511    3              END;

      353     8512    2        END;

      354     8513    1        KL_FETBL.KTYP(FEX)=%KLKT_NONE#;

PL6.E3A0      #002=KLI$FEEV File=KLI$FESET.:E05TSI                               WED 07/30/97 00:50 Page:61
   8513  4 000704   200003 720100                    LXL0    FEX,,AUTO
         4 000705   000016 236000 5                  LDQ     14
         4 000706   000000 356010 xsym               ANSQ    KL_FETBL,X0

      355     8514    1        KL_FEMSG.MSG#=FECR_MSG#;

   8514  4 000707   000006 221003                    LDX1    6,DU
         4 000710   000000 441000 xsym               SXL1    KL_FEMSG

      356     8515    2        CALL M$WRITE (KL_WKYN) WHENALTRETURN DO;

   8515  4 000711   000000 630400 xsym               EPPR0   KL_WKYN
         4 000712   440001 713400                    CLIMB   alt,write
         4 000713   401400 401760                    pmme    nvectors=4
         4 000714   000716 702000 4                  TSX2    s:8516
         4 000715   000716 710000 4                  TRA     s:8516

      357     8516    2           END;

   8516  4 000716   000721 710000 4                  TRA     s:8519

      358     8517        %EJECT;
PL6.E3A0      #002=KLI$FEEV File=KLI$FESET.:E05TSI                               WED 07/30/97 00:50 Page:62
      359     8518    1   KLI$UPDATE: ENTRY;

   8518  4 000717   000000 700200 xent  KLI$UPDATE   TSX0  ! X66_AUTO_0
         4 000720   000052 000000                    ZERO    42,0

      360     8519    1        CALL UPDATE;

   8519  4 000721   000724 701000 4                  TSX1    UPDATE
         4 000722   000000 011000                    NOP     0

      361     8520    1        RETURN;

   8520  4 000723   000000 702200 xent               TSX2  ! X66_ARET

      362     8521        %EJECT;
PL6.E3A0      #002=KLI$FEEV File=KLI$FESET.:E05TSI                               WED 07/30/97 00:50 Page:63
      363     8522        %EJECT;
PL6.E3A0      #002=KLI$FEEV File=KLI$FESET.:E05TSI                               WED 07/30/97 00:50 Page:64
      364     8523    1   UPDATE: PROC;

   8523  4 000724   200044 741300       UPDATE       STX1  ! PPTR$+1,,AUTO

      365     8524
      366     8525        /* Set the node name for all the nodes in the network */
      367     8526    2        KL_NETWORK_VALID = '0'B;

   8526  4 000725   000000 450000 xsym               STZ     KL_NETWORK_VALID

      368     8527    2        SETNODE.FCN = IGA_SETNODE;

   8527  4 000726   045000 236003                    LDQ     18944,DU
         4 000727   200031 552140                    STBQ    SETNODE,'40'O,AUTO

      369     8528    2        KL_RD_NETCON.BUF_ = VECTOR(KL_EXTRSP_BUF);

   8528  4 000730   000022 237000 5                  LDAQ    18
         4 000731   000004 757000 xsym               STAQ    KL_RD_NETCON+4

      370     8529    2        KL_RD_NETCON.KEY_ = VECTOR(KL$NETWORK_KEY);

   8529  4 000732   000024 237000 5                  LDAQ    20
         4 000733   000002 757000 xsym               STAQ    KL_RD_NETCON+2

      371     8530    2        CALL M$READ (KL_RD_NETCON)

   8530  4 000734   000000 630400 xsym               EPPR0   KL_RD_NETCON
         4 000735   440000 713400                    CLIMB   alt,read
         4 000736   401400 401760                    pmme    nvectors=4
         4 000737   001061 702000 4                  TSX2    s:8563

      372     8531    3        WHENRETURN DO;

      373     8532    4             DO I = 0 TO KL$NETWORK.NODE#;

   8532  4 000740   200007 450100                    STZ     I,,AUTO
PL6.E3A0      #002=KLI$FEEV File=KLI$FESET.:E05TSI                               WED 07/30/97 00:50 Page:65
         4 000741   001054 710000 4                  TRA     s:8561+1

      374     8533    4                  SETNODE.NODE# = I;

   8533  4 000742   200007 235100                    LDA     I,,AUTO
         4 000743   200032 755100                    STA     SETNODE+1,,AUTO

      375     8534    4                  SETNODE.NODE_NAME = KL$NETWORK.NODE.NODE(I);

   8534  4 000744   200007 236100                    LDQ     I,,AUTO
         4 000745   000024 402007                    MPY     20,DL
         4 000746   000000 470400 xsym               LDP0    KL_EXTRSP_BUF$
         4 000747   040100 100506                    MLR     fill='040'O
         4 000750   000002 000010                    ADSC9   2,Q,PR0                  cn=0,n=8
         4 000751   200033 000010                    ADSC9   SETNODE+2,,AUTO          cn=0,n=8

      376     8535    4                  SETNODE.MY_NODE = '0'B;

   8535  4 000752   000026 236000 5                  LDQ     22
         4 000753   200031 356100                    ANSQ    SETNODE,,AUTO

      377     8536    5                  DO CASE (KL$NETWORK.NODE.TYPE(I));

   8536  4 000754   200007 236100                    LDQ     I,,AUTO
         4 000755   000005 402007                    MPY     5,DL
         4 000756   000001 235106                    LDA     1,QL,PR0
         4 000757   000005 115007                    CMPA    5,DL
         4 000760   000762 602005 4                  TNC     s:8536+6,AL
         4 000761   001017 710000 4                  TRA     s:8554
         4 000762   001013 710000 4                  TRA     s:8551
         4 000763   000767 710000 4                  TRA     s:8539
         4 000764   000775 710000 4                  TRA     s:8542
         4 000765   000767 710000 4                  TRA     s:8539
         4 000766   001003 710000 4                  TRA     s:8546

      378     8537
      379     8538    5                  CASE (%KL_NODETYPE_HOST,%KL_NODETYPE_ME);
PL6.E3A0      #002=KLI$FEEV File=KLI$FESET.:E05TSI                               WED 07/30/97 00:50 Page:66

      380     8539    5                     KL_FETBL.HOST_NODE(I) = '1'B;

   8539  4 000767   200007 720100                    LXL0    I,,AUTO
         4 000770   400000 236003                    LDQ     -131072,DU
         4 000771   000000 256010 xsym               ORSQ    KL_FETBL,X0

      381     8540    5                     SETNODE.HOST_NODE = '1'B;

   8540  4 000772   000100 236007                    LDQ     64,DL
         4 000773   200031 256100                    ORSQ    SETNODE,,AUTO
         4 000774   001017 710000 4                  TRA     s:8554

      382     8541    5                  CASE (%KL_NODETYPE_FEP);

      383     8542    5                     SETNODE.HOST_NODE = '0'B;

   8542  4 000775   000027 236000 5                  LDQ     23
         4 000776   200031 356100                    ANSQ    SETNODE,,AUTO

      384     8543    5                     KL_FETBL.DEBUG(I) = '0'B;

   8543  4 000777   200007 720100                    LXL0    I,,AUTO
         4 001000   000030 236000 5                  LDQ     24
         4 001001   000000 356010 xsym               ANSQ    KL_FETBL,X0
         4 001002   001017 710000 4                  TRA     s:8554

      385     8544
      386     8545    5                  CASE (%KL_NODETYPE_DEBUG);

      387     8546    5                     SETNODE.HOST_NODE = '0'B;

   8546  4 001003   000027 236000 5                  LDQ     23
         4 001004   200031 356100                    ANSQ    SETNODE,,AUTO

      388     8547    5                     KL_FETBL.DEBUG(I) = '1'B;

PL6.E3A0      #002=KLI$FEEV File=KLI$FESET.:E05TSI                               WED 07/30/97 00:50 Page:67
   8547  4 001005   200007 720100                    LXL0    I,,AUTO
         4 001006   020000 236003                    LDQ     8192,DU
         4 001007   000000 256010 xsym               ORSQ    KL_FETBL,X0

      389     8548    5                     KL_FETBL.LINK_CONNECT(I) = '1'B;

   8548  4 001010   200000 236003                    LDQ     65536,DU
         4 001011   000000 256010 xsym               ORSQ    KL_FETBL,X0
         4 001012   001017 710000 4                  TRA     s:8554

      390     8549
      391     8550    5                  CASE (%KL_NODETYPE_UNDEF);

      392     8551    5                     SETNODE.NODE_NAME = ' ';

   8551  4 001013   000035 235000 xsym               LDA     B_VECTNIL+29
         4 001014   000035 236000 xsym               LDQ     B_VECTNIL+29
         4 001015   200033 755100                    STA     SETNODE+2,,AUTO
         4 001016   200034 756100                    STQ     SETNODE+3,,AUTO

      393     8552
      394     8553    5                  END;

      395     8554    4                  CALL KLX$WRHLPNODE (SETNODE,SIZEC(SETNODE),KL_NODE);

   8554  4 001017   000005 236000 5                  LDQ     5
         4 001020   200050 756100                    STQ     PPTR$+5,,AUTO
         4 001021   000006 236000 5                  LDQ     6
         4 001022   200047 756100                    STQ     PPTR$+4,,AUTO
         4 001023   200031 631500                    EPPR1   SETNODE,,AUTO
         4 001024   200046 451500                    STP1    PPTR$+3,,AUTO
         4 001025   200046 630500                    EPPR0   PPTR$+3,,AUTO
         4 001026   000021 631400 xsym               EPPR1   B_VECTNIL+17
         4 001027   000000 701000 xent               TSX1    KLX$WRHLPNODE
         4 001030   000000 011000                    NOP     0

      396     8555    4                  IF KL$NETWORK.NODE.CONTROL_NODE(I) = KL_NODENAME OR
PL6.E3A0      #002=KLI$FEEV File=KLI$FESET.:E05TSI                               WED 07/30/97 00:50 Page:68

   8555  4 001031   200007 236100                    LDQ     I,,AUTO
         4 001032   000024 402007                    MPY     20,DL
         4 001033   000000 470400 xsym               LDP0    KL_EXTRSP_BUF$
         4 001034   040000 106506                    CMPC    fill='040'O
         4 001035   000004 000010                    ADSC9   4,Q,PR0                  cn=0,n=8
         4 001036   000000 000010 xsym               ADSC9   KL_NODENAME              cn=0,n=8
         4 001037   001044 600000 4                  TZE     s:8558
         4 001040   040000 106506                    CMPC    fill='040'O
         4 001041   000004 000010                    ADSC9   4,Q,PR0                  cn=0,n=8
         4 001042   000035 000001 xsym               ADSC9   B_VECTNIL+29             cn=0,n=1
         4 001043   001050 601000 4                  TNZ     s:8560

      397     8556    4                       KL$NETWORK.NODE.CONTROL_NODE(I) = ' '
      398     8557    4                  THEN
      399     8558    4                       KL_FETBL.BOSS(I) = '1'B;

   8558  4 001044   200007 720100                    LXL0    I,,AUTO
         4 001045   040000 236003                    LDQ     16384,DU
         4 001046   000000 256010 xsym               ORSQ    KL_FETBL,X0
         4 001047   001053 710000 4                  TRA     s:8561

      400     8559    4                  ELSE
      401     8560    4                       KL_FETBL.BOSS(I) = '0'B;

   8560  4 001050   200007 720100                    LXL0    I,,AUTO
         4 001051   000031 236000 5                  LDQ     25
         4 001052   000000 356010 xsym               ANSQ    KL_FETBL,X0

      402     8561    4                END;

   8561  4 001053   200007 054100                    AOS     I,,AUTO
         4 001054   000000 470400 xsym               LDP0    KL_EXTRSP_BUF$
         4 001055   000000 236100                    LDQ     0,,PR0
         4 001056   000742 604000 4                  TMI     s:8533
         4 001057   200007 116100                    CMPQ    I,,AUTO
         4 001060   000742 605000 4                  TPL     s:8533
PL6.E3A0      #002=KLI$FEEV File=KLI$FESET.:E05TSI                               WED 07/30/97 00:50 Page:69

      403     8562    3           END;

      404     8563    2        SETNODE = '0'B;

   8563  4 001061   000100 100400                    MLR     fill='000'O
         4 001062   000002 000001 xsym               ADSC9   B_VECTNIL+2              cn=0,n=1
         4 001063   200031 000020                    ADSC9   SETNODE,,AUTO            cn=0,n=16

      405     8564    3        DO FEX = 0 TO KL$NETWORK.NODE#;

   8564  4 001064   200003 450100                    STZ     FEX,,AUTO
         4 001065   001151 710000 4                  TRA     s:8579+3

      406     8565    3            IF KL_FETBL.BOSS(FEX) AND KL_FETBL.ACTIVE(FEX) AND NOT KL_FETBL.HOST_NODE(
              8565                      FEX) THEN

   8565  4 001066   200003 720100                    LXL0    FEX,,AUTO
         4 001067   000000 236010 xsym               LDQ     KL_FETBL,X0
         4 001070   040000 316003                    CANQ    16384,DU
         4 001071   001146 600000 4                  TZE     s:8579
         4 001072   100000 316003                    CANQ    32768,DU
         4 001073   001146 600000 4                  TZE     s:8579
         4 001074   000000 234010 xsym               SZN     KL_FETBL,X0
         4 001075   001146 604000 4                  TMI     s:8579

      407     8566    4             DO;

      408     8567    5                  DO I = 0 TO KL$NETWORK.NODE#;

   8567  4 001076   200007 450100                    STZ     I,,AUTO
         4 001077   001141 710000 4                  TRA     s:8577+1

      409     8568    5                       SETNODE.FCN = IGA_NODETBL;

   8568  4 001100   121000 236003                    LDQ     41472,DU
         4 001101   200031 552140                    STBQ    SETNODE,'40'O,AUTO
PL6.E3A0      #002=KLI$FEEV File=KLI$FESET.:E05TSI                               WED 07/30/97 00:50 Page:70

      410     8569    5                       SETNODE.NODE# = I;

   8569  4 001102   200007 235100                    LDA     I,,AUTO
         4 001103   200032 755100                    STA     SETNODE+1,,AUTO

      411     8570    5                       SETNODE.NODE_NAME = KL$NETWORK.NODE.NODE(I);

   8570  4 001104   200007 236100                    LDQ     I,,AUTO
         4 001105   000024 402007                    MPY     20,DL
         4 001106   000000 470400 xsym               LDP0    KL_EXTRSP_BUF$
         4 001107   040100 100506                    MLR     fill='040'O
         4 001110   000002 000010                    ADSC9   2,Q,PR0                  cn=0,n=8
         4 001111   200033 000010                    ADSC9   SETNODE+2,,AUTO          cn=0,n=8

      412     8571    5                       IF KL$NETWORK.NODE.TYPE(I) = %KL_NODETYPE_HOST OR

   8571  4 001112   200007 236100                    LDQ     I,,AUTO
         4 001113   000005 402007                    MPY     5,DL
         4 001114   000001 235106                    LDA     1,QL,PR0
         4 001115   000001 115007                    CMPA    1,DL
         4 001116   001121 600000 4                  TZE     s:8573
         4 001117   000003 115007                    CMPA    3,DL
         4 001120   001124 601000 4                  TNZ     s:8575

      413     8572    5                            KL$NETWORK.NODE.TYPE(I) = %KL_NODETYPE_ME THEN
      414     8573    5                            SETNODE.HOST_NODE = '1'B;

   8573  4 001121   000100 236007                    LDQ     64,DL
         4 001122   200031 256100                    ORSQ    SETNODE,,AUTO
         4 001123   001126 710000 4                  TRA     s:8576

      415     8574    5                       ELSE
      416     8575    5                            SETNODE.HOST_NODE = '0'B;

   8575  4 001124   000027 236000 5                  LDQ     23
         4 001125   200031 356100                    ANSQ    SETNODE,,AUTO
PL6.E3A0      #002=KLI$FEEV File=KLI$FESET.:E05TSI                               WED 07/30/97 00:50 Page:71

      417     8576    5                       CALL KLX$WRHLPNODE(SETNODE,SIZEC(SETNODE),FEX);

   8576  4 001126   200003 631500                    EPPR1   FEX,,AUTO
         4 001127   200050 451500                    STP1    PPTR$+5,,AUTO
         4 001130   000006 236000 5                  LDQ     6
         4 001131   200047 756100                    STQ     PPTR$+4,,AUTO
         4 001132   200031 633500                    EPPR3   SETNODE,,AUTO
         4 001133   200046 453500                    STP3    PPTR$+3,,AUTO
         4 001134   200046 630500                    EPPR0   PPTR$+3,,AUTO
         4 001135   000021 631400 xsym               EPPR1   B_VECTNIL+17
         4 001136   000000 701000 xent               TSX1    KLX$WRHLPNODE
         4 001137   000000 011000                    NOP     0

      418     8577    5                     END;

   8577  4 001140   200007 054100                    AOS     I,,AUTO
         4 001141   000000 470400 xsym               LDP0    KL_EXTRSP_BUF$
         4 001142   000000 236100                    LDQ     0,,PR0
         4 001143   001100 604000 4                  TMI     s:8568
         4 001144   200007 116100                    CMPQ    I,,AUTO
         4 001145   001100 605000 4                  TPL     s:8568

      419     8578    4                END;

      420     8579    3           END;

   8579  4 001146   200003 235100                    LDA     FEX,,AUTO
         4 001147   000001 035007                    ADLA    1,DL
         4 001150   200003 755100                    STA     FEX,,AUTO
         4 001151   000000 470400 xsym               LDP0    KL_EXTRSP_BUF$
         4 001152   000000 236100                    LDQ     0,,PR0
         4 001153   200003 116100                    CMPQ    FEX,,AUTO
         4 001154   001066 603000 4                  TRC     s:8565

      421     8580    2        RETURN;

PL6.E3A0      #002=KLI$FEEV File=KLI$FESET.:E05TSI                               WED 07/30/97 00:50 Page:72
   8580  4 001155   200044 221300                    LDX1  ! PPTR$+1,,AUTO
         4 001156   000001 702211                    TSX2  ! 1,X1
      422     8581
      423     8582    2   END UPDATE;
      424     8583    1   END KLI$FEEV;
      425     8584        /**/
      426     8585        /**/
      427     8586        %EOD;

PL6.E3A0      #002=KLI$FEEV File=KLI$FESET.:E05TSI                               WED 07/30/97 00:50 Page:73
--  Include file information  --

   B_SEGIDS_C.:E05TOU  is referenced.
   K_ADDRESS_M.:E05TOU  is referenced.
   KL_SUBS_C.:E05TOU  is referenced.
   OC_SUBS_C.:E05TOU  is referenced.
   KI_SUBS_C.:E05TOU  is referenced.
   CP_6_SUBS.:E05TOU  is referenced.
   KL_NETWORK_M.:E05TOU  is referenced.
   OC$MESSHD_C.:E05TOU  is referenced.
   KL_DATA_R.:E05TOU  cannot be made into a system file and is referenced.
   KL_MACRO_C.:E05TOU  is referenced.
   KL_CONFIG_M.:E05TOU  is referenced.
   KL_AFCN_C.:E05TOU  is referenced.
   CP_6.:E05TOU  cannot be made into a system file and is referenced.
   B$JIT_C.:E05TOU  was found in the system file and is referenced.
   CP_6_C.:E05TOU  was found in the system file and is referenced.
      No diagnostics issued in procedure KLI$FEEV.
PL6.E3A0      #002=KLI$FEEV File=KLI$FESET.:E05TSI                               WED 07/30/97 00:50 Page:74

 **** Variables and constants ****

  ****  Section 002 RoData KLI$FEEV

  ****  Scalars and arrays  ****
OctLoc.c.b A Datatyp(siz) R M Lvl/name                 OctLoc.c.b A Datatyp(siz) R M Lvl/name

     1-0-0/w STRC(18)    r     1 KL$NETWORK_KEY             0-0-0/w STRC(18)    r     1 KL$NODEINFO_KEY

  ****  Section 003  Data  KLI$FEEV

  ****  Scalars and arrays  ****
OctLoc.c.b A Datatyp(siz) R M Lvl/name                 OctLoc.c.b A Datatyp(siz) R M Lvl/name

    10-0-0/d STRC(144)   r     1 SADTIGR

  ****  Auto variables  ****

  ****  Scalars and arrays  ****
OctLoc.c.b A Datatyp(siz) R M Lvl/name                 OctLoc.c.b A Datatyp(siz) R M Lvl/name

     3-0-0/w UBIN        r     1 FEX                        7-0-0/w SBIN        r     1 I
    10-0-0/w STRC(63)    r     1 NODECHG                    5-0-0/w UBIN        r     1 NODETYPE
    43-0-0/w PTR         r     1 PPTR$                      4-0-0/w UBIN        r     1 PROB
    31-0-0/w STRC(144)   r     1 SETNODE                    6-0-0/w UBIN        r     1 STATE

  ****  SYMREF variables  ****

  ****  Scalars and arrays  ****
OctLoc.c.b A Datatyp(siz) R M Lvl/name                 OctLoc.c.b A Datatyp(siz) R M Lvl/name

     0-0-0/w SBIN        r     1 JC_ZIP                     0-0-0/w UBIN        r     1 KI_MXFE
     0-0-0/w UBIN        r     1 KI_OSIMAX#                 0-0-0/w PTR         r     1 KI_OSIROUTE$$
     0-0-0/w UBIN        r     1 KL_EXTRSP_BUF(0:1499)
     0-0-0/w PTR         r     1 KL_EXTRSP_BUF$             0-0-0/w STRC(315)   r     1 KL_FEMSG
     0-0-0/w STRC        r     1 KL_FETBL(0:0)
     0-0-0/w STRC        r     1 KL_FROG                    0-0-0/w UBIN        r     1 KL_HOPCOST
PL6.E3A0      #002=KLI$FEEV File=KLI$FESET.:E05TSI                               WED 07/30/97 00:50 Page:75
     0-0-0/w UBIN        r     1 KL_MAXFEI#                 0-0-0/w UBIN        r     1 KL_MXFE
     0-0-0/b BIT         r     1 KL_NETWORK_VALID           0-0-0/w UBIN        r     1 KL_NMNODE
     0-0-0/w UBIN        r     1 KL_NODE                    0-0-0/c CHAR(8)     r     1 KL_NODENAME
     0-0-0/w UBIN        r     1 KL_NODES                   0-0-0/w UBIN        r     1 KL_OSIMAX#
     0-0-0/w PTR         r     1 KL_OSIROUTE$               0-0-0/w STRC(1260)  r     1 KL_RDBF
     0-0-0/w PTR         r     1 KL_RDBF$                   0-0-0/d STRC(504)   r     1 KL_RD_NETCON
     0-0-0/c CHAR(8)     r     1 KL_STATION                 0-0-0/d STRC(432)   r     1 KL_WKYN
     0-0-0/d STRC(432)   r     1 WRT_FROG

  ****  BASED and DCB variables  ****

  ****  Scalars and arrays  ****
OctLoc.c.b A Datatyp(siz) R M Lvl/name                 OctLoc.c.b A Datatyp(siz) R M Lvl/name

     0-0-0/w PTR         r     1 B$PTR                      0-0-0/w UBIN        r     1 B$UBIN
     0-0-0/w STRC(144)   r     1 BF                         0-0-0/w STRC(126)   r     1 KL$FEPST
     0-0-0/w STRC(216)   r     1 KL$NETWORK                 0-0-0/w STRC(108)   r     1 KL$NODEINFO


   Procedure KLI$FEEV requires 623 words for executable code.
   Procedure KLI$FEEV requires 42 words of local(AUTO) storage.
PL6.E3A0      #002=KLI$FEEV File=KLI$FESET.:E05TSI                               WED 07/30/97 00:50 Page:76
          *** CROSS REFERENCE LISTING ***
**     DENOTES     IDENTIFIER DEFINITION
<<                 IDENTIFIER'S VALUE SET
>>                 IDENTIFIER'S VALUE USED
<>                 IDENTIFIER SET AND/OR USED
--                 IDENTIFIER REFERENCED
PL6.E3A0      #002=KLI$FEEV File=KLI$FESET.:E05TSI                               WED 07/30/97 00:50 Page:77
          MINI XREF LISTING

B$JIT.CPFLAGS1.SLEAZE
      7376**DCL      7376--REDEF
B$JIT.ERR.MID
      7283**DCL      7283--REDEF
B$PTR
      8067**DCL      8348>>ASSIGN
B$UBIN
      8068**DCL      8342>>ASSIGN   8345>>ASSIGN
BF.EVENT
      7470**DCL      8317>>IF       8363>>DOCASE
BF.STATION
      7470**DCL      7470--REDEF    8356>>CALLBLT
FEX
      7620**DCL      8356<<CALLBLT  8357>>IF       8358>>ASSIGN   8359<>CALL     8365>>ASSIGN   8371>>ASSIGN
      8375>>IF       8375>>ASSIGN   8376<>CALL     8380>>ASSIGN   8387<<ASSIGN   8392>>ASSIGN   8393>>ASSIGN
      8398>>ASSIGN   8399<>CALL     8407>>ASSIGN   8414>>ASSIGN   8415>>ASSIGN   8418>>IF       8422>>ASSIGN
      8424>>ASSIGN   8427<>CALL     8434>>ASSIGN   8439>>IF       8446>>ASSIGN   8457>>IF       8466>>ASSIGN
      8472>>ASSIGN   8480>>IF       8482>>IF       8485>>IF       8488>>IF       8491>>ASSIGN   8498>>ASSIGN
      8503>>IF       8503>>IF       8507>>ASSIGN   8513>>ASSIGN   8564<<DOINDEX  8565>>IF       8565>>IF
      8565>>IF       8576<>CALL
FROG_STA.MSGIDXT
      8293**DCL      8296--REDEF
I
      7624**DCL      8359<>CALL     8399<>CALL     8438<<DOINDEX  8439>>IF       8439>>IF       8439>>IF
      8439>>IF       8447>>IF       8463<>CALL     8532<<DOINDEX  8533>>ASSIGN   8534>>ASSIGN   8536>>DOCASE
      8539>>ASSIGN   8543>>ASSIGN   8547>>ASSIGN   8548>>ASSIGN   8555>>IF       8555>>IF       8558>>ASSIGN
      8560>>ASSIGN   8567<<DOINDEX  8569>>ASSIGN   8570>>ASSIGN   8571>>IF       8571>>IF
JC_ZIP
      8127**DCL      8395>>IF
JMU$SETSEG
      8134**DCL-ENT  8341--CALL     8344--CALL     8347--CALL
KI_MXFE
PL6.E3A0      #002=KLI$FEEV File=KLI$FESET.:E05TSI                               WED 07/30/97 00:50 Page:78
      8126**DCL      8343--ASSIGN
KI_OSIMAX#
      8124**DCL      8340--ASSIGN
KI_OSIROUTE$$
      8125**DCL      8346--ASSIGN
KL$FEPST.ALT_QOS
      7504**DCL      8449>>ASSIGN
KL$FEPST.FEP
      7489**DCL      8387>>ASSIGN
KL$FEPST.LNK_NODE
      7503**DCL      8447>>IF
KL$FEPST.PROB
      7500**DCL      8388>>ASSIGN
KL$FEPST.QOS
      7502**DCL      8420>>IF       8451>>ASSIGN   8466>>ASSIGN
KL$FEPST.STATE
      7501**DCL      8389>>ASSIGN
KL$NETWORK.NODE.CONTROL_NODE
      7548**DCL      8555>>IF       8555>>IF
KL$NETWORK.NODE.NODE
      7547**DCL      8534>>ASSIGN   8570>>ASSIGN
KL$NETWORK.NODE.TYPE
      7544**DCL      8536>>DOCASE   8571>>IF       8571>>IF
KL$NETWORK.NODE#
      7539**DCL      8532>>DOINDEX  8564>>DOINDEX  8567>>DOINDEX
KL$NETWORK_KEY
      8166**DCL      8529--ASSIGN
KL$NODEINFO
      7521**DCL      8319--ASSIGN
KL$NODEINFO.NODE#
      7522**DCL      8324>>ASSIGN
KL$NODEINFO.NODENAME
      7523**DCL      8325>>ASSIGN
KL$NODEINFO_KEY
      8149**DCL      8320--ASSIGN
KL$UPDOSI.LNSAP.ADDRESS_N
PL6.E3A0      #002=KLI$FEEV File=KLI$FESET.:E05TSI                               WED 07/30/97 00:50 Page:79
      8029**DCL      8030--REDEF
KL$UPDOSI.MYNODE#
      7910**DCL      7912--REDEF
KL$UPDOSI.NODE#
      7913**DCL      7915--REDEF
KL$UPDOSI.NSAP.ADDRESS_N
      7973**DCL      7974--REDEF
KLI$FEGO
      8130**DCL-ENT  8376--CALL
KLI$GETOSIROUTES
      8133**DCL-ENT  8332--CALL
KLI$RECOVERY
      8132**DCL-ENT  8366--CALL
KLX$CONV_NODE
      8129**DCL-ENT  8359--CALL     8399--CALL     8427--CALL
KLX$WRHLPNODE
      8131**DCL-ENT  8330--CALL     8463--CALL     8554--CALL     8576--CALL
KL_AUTOFAIL.FLAGS
      4612**DCL      4613--REDEF
KL_AUTOFAIL.MSGID
      4608**DCL      4609--REDEF
KL_AUTOFAIL.WSN
      4615**DCL      4616--REDEF
KL_EXTRSP_BUF
      4768**DCL      8528--ASSIGN
KL_EXTRSP_BUF$
      4769**DCL      7538--IMP-PTR  8532>>DOINDEX  8534>>ASSIGN   8536>>DOCASE   8555>>IF       8555>>IF
      8564>>DOINDEX  8567>>DOINDEX  8570>>ASSIGN   8571>>IF       8571>>IF
KL_FEMSG.FEX
      4572**DCL      8358<<ASSIGN   8398<<ASSIGN   8424<<ASSIGN
KL_FEMSG.FLAGS
      4562**DCL      4563--REDEF
KL_FEMSG.MSG#
      4557**DCL      8367<<ASSIGN   8372<<ASSIGN   8426<<ASSIGN   8469<<ASSIGN   8514<<ASSIGN
KL_FEMSG.MSGID
      4558**DCL      4559--REDEF
PL6.E3A0      #002=KLI$FEEV File=KLI$FESET.:E05TSI                               WED 07/30/97 00:50 Page:80
KL_FEMSG.NAME
      4575**DCL      8359<>CALL     8361<<ASSIGN   8399<>CALL     8401<<ASSIGN   8427<>CALL
KL_FEMSG.PROB
      4573**DCL      8374<<ASSIGN   8403<<ASSIGN   8423<<ASSIGN   8435<<ASSIGN
KL_FEMSG.STATE
      4574**DCL      8373<<ASSIGN   8404<<ASSIGN   8428<<ASSIGN
KL_FEMSG.WSN
      4565**DCL      4566--REDEF
KL_FETBL.ACTIVE
      4504**DCL      8337<<ASSIGN   8365<<ASSIGN   8371<<ASSIGN   8422<<ASSIGN   8434<<ASSIGN   8565>>IF
KL_FETBL.BOSS
      4505**DCL      8503>>IF       8558<<ASSIGN   8560<<ASSIGN   8565>>IF
KL_FETBL.DEBUG
      4506**DCL      8503>>IF       8543<<ASSIGN   8547<<ASSIGN
KL_FETBL.HOST_NODE
      4502**DCL      8336<<ASSIGN   8418>>IF       8457>>IF       8539<<ASSIGN   8565>>IF
KL_FETBL.KTYP
      4508**DCL      8380<<ASSIGN   8415<<ASSIGN   8472<<ASSIGN   8480>>IF       8482>>IF       8485>>IF
      8488>>IF       8498<<ASSIGN   8513<<ASSIGN
KL_FETBL.LINK_ACTIVE
      4507**DCL      8393<<ASSIGN   8414<<ASSIGN   8439>>IF
KL_FETBL.LINK_CONNECT
      4503**DCL      8392<<ASSIGN   8439>>IF       8548<<ASSIGN
KL_FETBL.QOS
      4509**DCL      8466<<ASSIGN
KL_FROG.FEX
      7568**DCL      8407<<ASSIGN   8491<<ASSIGN   8507<<ASSIGN
KL_FROG.FUNCTION
      7567**DCL      8408<<ASSIGN   8484<<ASSIGN   8487<<ASSIGN   8490<<ASSIGN   8508<<ASSIGN
KL_HOPCOST
      4540**DCL      8452>>IF       8456>>ASSIGN
KL_MAXFEI#
      4513**DCL      8345<<ASSIGN
KL_MXFE
      4500**DCL      8375>>IF       8375<<ASSIGN
KL_NETWORK_BUF.TERMINAL_ID.TERM
PL6.E3A0      #002=KLI$FEEV File=KLI$FESET.:E05TSI                               WED 07/30/97 00:50 Page:81
      4752**DCL      4761--REDEF
KL_NETWORK_KEY.KEY.TERMID.TERM
      4678**DCL      4687--REDEF
KL_NETWORK_VALID
      4541**DCL      8526<<ASSIGN
KL_NMNODE
      4544**DCL      8329<<ASSIGN
KL_NODE
      4543**DCL      8328<<ASSIGN   8329>>ASSIGN   8330<>CALL     8332<>CALL     8336>>ASSIGN   8337>>ASSIGN
      8439>>IF       8445>>ASSIGN   8554<>CALL
KL_NODENAME
      4542**DCL      8327<<ASSIGN   8555>>IF
KL_NODES
      4539**DCL      8357>>IF       8438>>DOINDEX
KL_OSIMAX#
      4514**DCL      8342<<ASSIGN
KL_OSIROUTE$
      4515**DCL      8348<<ASSIGN
KL_RDBF
      4518**DCL      8317--IF       8319--ASSIGN   8324--ASSIGN   8325--ASSIGN   8356--CALLBLT  8363--DOCASE
      8387--ASSIGN   8388--ASSIGN   8389--ASSIGN   8420--IF       8447--IF       8449--ASSIGN   8451--ASSIGN
      8466--ASSIGN
KL_RDBF.FEL#
      4521**DCL      4522--REDEF
KL_RDBF$
      4533**DCL      7875--IMP-PTR
KL_RD_NETCON
      8187**DCL      8322<>CALL     8530<>CALL
KL_RD_NETCON.BUF_
      8189**DCL      8319<<ASSIGN   8528<<ASSIGN
KL_RD_NETCON.KEY_
      8187**DCL      8320<<ASSIGN   8529<<ASSIGN
KL_RD_NETCON.STATION_
      8190**DCL      8191--REDEF
KL_RD_NETCON.V.DVBYTE.REREAD#
      8202**DCL      8202--REDEF
PL6.E3A0      #002=KLI$FEEV File=KLI$FESET.:E05TSI                               WED 07/30/97 00:50 Page:82
KL_RD_NETCON.V.INDX#
      8200**DCL      8200--REDEF
KL_STATION
      8128**DCL      8315>>IF
KL_TMSG.FLAGS
      4584**DCL      4585--REDEF
KL_TMSG.MSGID
      4580**DCL      4581--REDEF
KL_TMSG.WSN
      4587**DCL      4588--REDEF
KL_WKYN
      8226**DCL      8368<>CALL     8377<>CALL     8429<>CALL     8470<>CALL     8515<>CALL
KL_WKYN.STATION_
      8228**DCL      8228--REDEF
KL_WKYN.V.DVBYTE.VFC#
      8235**DCL      8235--REDEF
M$READ
        22**DCL-ENT  8322--CALL     8530--CALL
M$SAD
        60**DCL-ENT  8338--CALL
M$WRITE
        22**DCL-ENT  8368--CALL     8377--CALL     8409--CALL     8429--CALL     8470--CALL     8492--CALL
      8509--CALL     8515--CALL
NODECHG
      7640**DCL      8463<>CALL     8463--CALL
NODECHG.FCN
      7641**DCL      8444<<ASSIGN
NODECHG.HOSTNODE
      7646**DCL      8459<<ASSIGN   8462<<ASSIGN
NODECHG.MYNODE
      7644**DCL      8445<<ASSIGN
NODECHG.NODE
      7645**DCL      8446<<ASSIGN
NODECHG.QOS
      7647**DCL      8449<<ASSIGN   8451<<ASSIGN   8452>>IF       8454<<ASSIGN   8456<<ASSIGN   8456>>ASSIGN
NODETYPE
PL6.E3A0      #002=KLI$FEEV File=KLI$FESET.:E05TSI                               WED 07/30/97 00:50 Page:83
      7622**DCL      8427<>CALL
PPTR$
      8122**DCL      8340<<ASSIGN   8341<>CALL     8342>>ASSIGN   8343<<ASSIGN   8344<>CALL     8345>>ASSIGN
      8346<<ASSIGN   8347<>CALL     8348>>ASSIGN
PROB
      7621**DCL      8388<<ASSIGN   8390>>IF       8403>>ASSIGN   8412>>DOCASE
PROBS
      8496**LABEL    8477--GOTO
SADTIGR
      8309**DCL      8338<>CALL
SADTIGR.V
      8309**DCL      8309--DCLINIT
SETNODE
      8084**DCL      8330<>CALL     8330--CALL     8554<>CALL     8554--CALL     8563<<ASSIGN   8576<>CALL
      8576--CALL
SETNODE.FCN
      8085**DCL      8321<<ASSIGN   8527<<ASSIGN   8568<<ASSIGN
SETNODE.HOST_NODE
      8096**DCL      8540<<ASSIGN   8542<<ASSIGN   8546<<ASSIGN   8573<<ASSIGN   8575<<ASSIGN
SETNODE.MY_NODE
      8091**DCL      8326<<ASSIGN   8535<<ASSIGN
SETNODE.NODE#
      8108**DCL      8324<<ASSIGN   8328>>ASSIGN   8533<<ASSIGN   8569<<ASSIGN
SETNODE.NODE_NAME
      8112**DCL      8325<<ASSIGN   8327>>ASSIGN   8534<<ASSIGN   8551<<ASSIGN   8570<<ASSIGN
STATE
      7623**DCL      8389<<ASSIGN   8404>>ASSIGN   8405>>IF       8475>>IF       8475>>IF       8496>>IF
      8503>>IF       8503>>IF
TELL_FEP_MSG
      8424**LABEL    8436--GOTO
UPDATE
      8523**PROC     8333--CALL     8519--CALL
UPDOSI.LNSAP.ADDRESS_N
      7820**DCL      7821--REDEF
UPDOSI.MYNODE#
      7701**DCL      7703--REDEF
PL6.E3A0      #002=KLI$FEEV File=KLI$FESET.:E05TSI                               WED 07/30/97 00:50 Page:84
UPDOSI.NODE#
      7704**DCL      7706--REDEF
UPDOSI.NSAP.ADDRESS_N
      7764**DCL      7765--REDEF
WRT_FROG
      8257**DCL      8409<>CALL     8492<>CALL     8509<>CALL
WRT_FROG.STATION_
      8259**DCL      8259--REDEF
WRT_FROG.V.DVBYTE.VFC#
      8266**DCL      8266--REDEF

PL6.E3A0      #003=KLI$GETOSIROUTES File=KLI$FESET.:E05TSI                       WED 07/30/97 00:51 Page:85
      428        1        /*T***********************************************************/
      429        2        /*T*                                                         */
      430        3        /*T* Copyright (c) Bull HN Information Systems Inc., 1997    */
      431        4        /*T*                                                         */
      432        5        /*T***********************************************************/
      433        6        /*
      434        7             This routine reads the :routes file and forwards the information
      435        8             to the specified node.
      436        9             This module exists because at some time in the future the :route
      437       10             file will give way to a real network layer directory server.  At that
      438       11             time the module will have to be rewitten to accomidate the new file
      439       12             structure.
      440       13        */
      441       14        KLI$GETOSIROUTES: PROC(NODE#);
      442       15
      443       16             %INCLUDE CP_6;
      444       97             %INCLUDE KL_AFCN_C;
      445      198             %INCLUDE KL_MACRO_C;
      446     3550             %INCLUDE K_ADDRESS_M;
      447     4053             %INCLUDE KL_DATA_R;
      448     4517
      449     4518    1   DCL KLH$OPFILS_ROUTE ENTRY ALTRET;
      450     4519    1   DCL KLX$WRHLPNODE ENTRY(4) ALTRET;
      451     4520
      452     4521        /*
      453     4522             constant data.
      454     4523        */
      455     4524             %KL_NSAP_KEY(FPTN=NSAP_KEY_C,STCLASS=CONSTANT,ALGN=DALIGNED);
      456     4543
      457     4544    1   DCL M$ROUTE DCB;
      458     4545
      459     4546             %FPT_READ(FPTN=READ_ROUTE,
      460     4547                  DCB=M$ROUTE,
      461     4548                  KEY=NSAP_KEY,
      462     4549                  KEYS=YES,
      463     4550                  BUF=NSAP_BUF,
      464     4551                  STCLASS=STATIC);
PL6.E3A0      #003=KLI$GETOSIROUTES File=KLI$FESET.:E05TSI                       WED 07/30/97 00:51 Page:86
      465     4590
      466     4591             %FPT_PRECORD(FPTN=PRECORD_ROUTE,
      467     4592                   KEYS=YES,
      468     4593                   KEYR=YES,
      469     4594                   KEY=NSAP_KEY,
      470     4595                   DCB=M$ROUTE,
      471     4596                   N=1,
      472     4597                   STCLASS=STATIC);
      473     4618             %FPT_PRECORD(FPTN=KL_PR_NETWORK,STCLASS=SYMREF);
      474     4639             %FPT_READ(FPTN=KL_RD_NETWORK,STCLASS=SYMREF);
      475     4678        /*
      476     4679             auto
      477     4680        */
      478     4681             %KL_NSAP_KEY(FPTN=NSAP_KEY,STCLASS=STATIC,ALGN=DALIGNED);
      479     4700
      480     4701             %KL_UPDOSI(FPTN=NSAP_BUF,STCLASS=STATIC);
      481     4910             %KL_UPDOSI(FPTN=UPDOSI,STCLASS="REDEF NSAP_BUF");
      482     5119
      483     5120             %KL_OSILINK_REC(FPTN=OSILINK_REC,STCLASS=AUTO);
      484     5168             %KL_OSILINKCHG(FPTN=OSILINKCHG,STCLASS=AUTO);
      485     5291             %KL_LINE_KEY(FPTN=OSILINK_KEY,STCLASS=AUTO);
      486     5341        %B$CGAURD (FPTN=BF);
      487     5360    1   DCL NODE# UBIN;
      488     5361        /*
      489     5362          if the :routes file is not already open, try to open it.
      490     5363          if it can't be opened dont worry about it.
      491     5364        */
      492     5365
      493     5366    1        NSAP_BUF = '0'B;
      494     5367    2        IF KL_ROUTEOPEN = 0 THEN DO;
      495     5368    2             CALL KLH$OPFILS_ROUTE;
      496     5369    2             IF KL_ROUTEOPEN = 0 THEN      /* could not open :routes */
      497     5370    2                  GOTO SEND_SNPA;          /* no routes */
      498     5371    2           END;
      499     5372
      500     5373    1        PRECORD_ROUTE.V.N# = 0;
      501     5374    1        NSAP_KEY = '0'B;
PL6.E3A0      #003=KLI$GETOSIROUTES File=KLI$FESET.:E05TSI                       WED 07/30/97 00:51 Page:87
      502     5375    1        NSAP_KEY.CNT = NSAP_KEY_C.CNT;
      503     5376    2        CALL M$PRECORD(PRECORD_ROUTE) WHENALTRETURN DO;
      504     5377               /* expected*/
      505     5378    2           END;
      506     5379    1        PRECORD_ROUTE.V.N# = 1;
      507     5380
      508     5381        /*
      509     5382          read the nsap records.  function and type are all ready set just forward
      510     5383          to the specified node.
      511     5384        */
      512     5385
      513     5386    2        DO WHILE ('1'B);
      514     5387    3             CALL M$READ(READ_ROUTE) WHENALTRETURN DO;
      515     5388    3                  GOTO SEND_SNPA;
      516     5389    3                END;
      517     5390    2             CALL KLX$WRHLPNODE(NSAP_BUF,SIZEC(NSAP_BUF),NODE#);
      518     5391    3             CALL M$PRECORD(PRECORD_ROUTE) WHENALTRETURN DO;
      519     5392    3                  GOTO SEND_SNPA;
      520     5393    3                END;
      521     5394    2           END;                            /* do while */
      522     5395
      523     5396    1   KLI$GETSNPA: ENTRY(NODE#);
      524     5397    1   SEND_SNPA:;
      525     5398    1        OSILINK_KEY = '0'B;
      526     5399    1        OSILINK_KEY.SIZE = LENGTHC(OSILINK_KEY.KEY);
      527     5400    1        OSILINK_KEY.KEY.KEYTYP = %KL_NETWORK_KEYTYP_OSILINK;
      528     5401    1        KL_PR_NETWORK.KEY_ = VECTOR(OSILINK_KEY);
      529     5402    1        KL_RD_NETWORK.KEY_ = VECTOR(OSILINK_KEY);
      530     5403    1        KL_RD_NETWORK.BUF_ = VECTOR(OSILINK_REC);
      531     5404    2        CALL M$PRECORD(KL_PR_NETWORK) WHENALTRETURN DO;
      532     5405             /* expected */
      533     5406    2           END;
      534     5407    1        OSILINKCHG.MYNODE# = KL_NODE;
      535     5408    1        OSILINKCHG.FCN = IGA_OSILINKCHG_DF; /* _DF is dont forward */
      536     5409    1        OSILINKCHG.TYPE = IGA_OSILINKUP;
      537     5410
      538     5411    2        DO WHILE ('1'B);
PL6.E3A0      #003=KLI$GETOSIROUTES File=KLI$FESET.:E05TSI                       WED 07/30/97 00:51 Page:88
      539     5412    3             CALL M$READ(KL_RD_NETWORK) WHENALTRETURN DO;
      540     5413                /* not expected */
      541     5414    3                  GOTO RESTOR_RET;
      542     5415    3                END;
      543     5416    2             IF OSILINK_KEY.KEY.KEYTYP ~= %KL_NETWORK_KEYTYP_OSILINK THEN
      544     5417    2                  GOTO RESTOR_RET;
      545     5418
      546     5419    3             IF OSILINK_KEY.KEY.NODE ~= NODE# THEN DO;
      547     5420    3                  OSILINKCHG.NODE# = OSILINK_KEY.KEY.NODE;
      548     5421    3                  OSILINKCHG.SNPA = OSILINK_REC.SNPA;
      549     5422    3                  IF (SUBSTR(ADDR(KL_RDBF)->BF.STATION,0,4) ~= 'FEPA') THEN RETURN;
      550     5423    3                  OSILINKCHG.QOS = OSILINK_REC.QOS;
      551     5424    3                  CALL KLX$WRHLPNODE(OSILINKCHG,SIZEC(OSILINKCHG),NODE#);
      552     5425    3                END;
      553     5426    3             CALL M$PRECORD(KL_PR_NETWORK) WHENALTRETURN DO;
      554     5427    3                  GOTO RESTOR_RET;
      555     5428    3                END;
      556     5429    2           END;
      557     5430
      558     5431    1   RESTOR_RET:;                  /* restore RD_NETWORK.BUF_ and .KEY_ and return */
      559     5432    1        KL_RD_NETWORK.KEY_ = VECTOR(KL_NETWORK_KEY);
      560     5433    1        KL_RD_NETWORK.BUF_ = VECTOR(KL_NETWORK_BUF);
      561     5434    1        KL_PR_NETWORK.KEY_ = VECTOR(KL_NETWORK_KEY);
      562     5435    1   END KLI$GETOSIROUTES;
      563     5436        %EOD;

PL6.E3A0      #003=KLI$GETOSIROUTES File=KLI$FESET.:E05TSI                       WED 07/30/97 00:51 Page:89
--  Include file information  --

   KL_NETWORK_M.:E05TOU  is referenced.
   OC$MESSHD_C.:E05TOU  is referenced.
   KL_DATA_R.:E05TOU  cannot be made into a system file and is referenced.
   K_ADDRESS_M.:E05TOU  is referenced.
   KL_MACRO_C.:E05TOU  is referenced.
   KL_AFCN_C.:E05TOU  is referenced.
   CP_6.:E05TOU  cannot be made into a system file and is referenced.
   B$JIT_C.:E05TOU  was found in the system file and is never referenced.
   CP_6_C.:E05TOU  was found in the system file and is referenced.
      No diagnostics issued in procedure KLI$GETOSIROUTES.

   Procedure KLI$GETOSIROUTES requires 134 words for executable code.
   Procedure KLI$GETOSIROUTES requires 24 words of local(AUTO) storage.

PL6.E3A0      #003=KLI$GETOSIROUTES File=KLI$FESET.:E05TSI                       WED 07/30/97 00:51 Page:90

 Object Unit name= KLI$GETOSIROUTES                           File name= KLI$FESET.:E05TOU
 UTS= JUL 30 '97 00:51:16.68 WED                              Compiler= PL-6/E31         Sev=      00
 SharedLib= :SHARED_SYSTEM                                    Alt SharedLib=


    ****  Control sections  ****

 Sect   Type Bound  Init  Size OctSiz  Section name(segment info)
    0   DCB   even  none     0      0  M$UC
    1   DCB   even  none     0      0  M$HLP
    2  RoData even  UTS      5      5  KLI$GETOSIROUTES
    3   DCB   even  none     0      0  M$ROUTE
    4   Data  even  none    43     53  KLI$GETOSIROUTES
    5   Proc  even  none   134    206  KLI$GETOSIROUTES
    6  RoData even  none    12     14  KLI$GETOSIROUTES

    ****  Entry defs  ****

                              Check   Calling
                             calling  sequence
  Sect OctLoc Primary Altret sequence   type   Parms  Name
     5      0   yes            yes      Std        1  KLI$GETOSIROUTES
     5     56                  yes      Std        1  KLI$GETSNPA

  ****  Entry refs  ****

         Check        Calling
        calling       sequence
Altret sequence SRef   type   Args  Name
 yes     yes           Std       0 KLH$OPFILS_ROUTE
 yes     yes           Std       4 KLX$WRHLPNODE
                       nStd      0 X66_AUTO_1
                       Std       0 B_CONSPOOL_D
                       nStd      0 X66_ARET
PL6.E3A0      #003=KLI$GETOSIROUTES File=KLI$FESET.:E05TSI                       WED 07/30/97 00:51 Page:91

  ****  Data refs  ****

  Flags:  r = read only, s = secondary
Flgs Name                             Flgs Name                             Flgs Name
     M$UC                                  M$HLP                                 KL_ROUTEOPEN
     KL_RDBF                               KL_NODE                               KL_NETWORK_KEY
     KL_NETWORK_BUF                        M$ROUTE                               KL_PR_NETWORK
     KL_RD_NETWORK                         B_VECTNIL

  ****  Segment refs  ****

  Flags:  r = read only, s = secondary
Flgs Name                             Flgs Name                             Flgs Name
     ISSID                                 NULLSID
PL6.E3A0      #003=KLI$GETOSIROUTES File=KLI$FESET.:E05TSI                       WED 07/30/97 00:51 Page:92


      428        1        /*T***********************************************************/
      429        2        /*T*                                                         */
      430        3        /*T* Copyright (c) Bull HN Information Systems Inc., 1997    */
      431        4        /*T*                                                         */
      432        5        /*T***********************************************************/
      433        6        /*
      434        7             This routine reads the :routes file and forwards the information
      435        8             to the specified node.
      436        9             This module exists because at some time in the future the :route
      437       10             file will give way to a real network layer directory server.  At that
      438       11             time the module will have to be rewitten to accomidate the new file
      439       12             structure.
      440       13        */
      441       14        KLI$GETOSIROUTES: PROC(NODE#);

     14  5 000000   000000 700200 xent  KLI$GETOSIR* TSX0  ! X66_AUTO_1
         5 000001   000030 000001                    ZERO    24,1

      442       15
      443       16             %INCLUDE CP_6;
      444       97             %INCLUDE KL_AFCN_C;
      445      198             %INCLUDE KL_MACRO_C;
      446     3550             %INCLUDE K_ADDRESS_M;
      447     4053             %INCLUDE KL_DATA_R;
      448     4517
      449     4518    1   DCL KLH$OPFILS_ROUTE ENTRY ALTRET;
      450     4519    1   DCL KLX$WRHLPNODE ENTRY(4) ALTRET;
      451     4520
      452     4521        /*
      453     4522             constant data.
      454     4523        */
      455     4524             %KL_NSAP_KEY(FPTN=NSAP_KEY_C,STCLASS=CONSTANT,ALGN=DALIGNED);
      456     4543
      457     4544    1   DCL M$ROUTE DCB;
      458     4545
      459     4546             %FPT_READ(FPTN=READ_ROUTE,
PL6.E3A0      #003=KLI$GETOSIROUTES File=KLI$FESET.:E05TSI                       WED 07/30/97 00:51 Page:93
      460     4547                  DCB=M$ROUTE,
      461     4548                  KEY=NSAP_KEY,
      462     4549                  KEYS=YES,
      463     4550                  BUF=NSAP_BUF,
      464     4551                  STCLASS=STATIC);
      465     4590
      466     4591             %FPT_PRECORD(FPTN=PRECORD_ROUTE,
      467     4592                   KEYS=YES,
      468     4593                   KEYR=YES,
      469     4594                   KEY=NSAP_KEY,
      470     4595                   DCB=M$ROUTE,
      471     4596                   N=1,
      472     4597                   STCLASS=STATIC);
      473     4618             %FPT_PRECORD(FPTN=KL_PR_NETWORK,STCLASS=SYMREF);
      474     4639             %FPT_READ(FPTN=KL_RD_NETWORK,STCLASS=SYMREF);
      475     4678        /*
      476     4679             auto
      477     4680        */
      478     4681             %KL_NSAP_KEY(FPTN=NSAP_KEY,STCLASS=STATIC,ALGN=DALIGNED);
      479     4700
      480     4701             %KL_UPDOSI(FPTN=NSAP_BUF,STCLASS=STATIC);
      481     4910             %KL_UPDOSI(FPTN=UPDOSI,STCLASS="REDEF NSAP_BUF");
      482     5119
      483     5120             %KL_OSILINK_REC(FPTN=OSILINK_REC,STCLASS=AUTO);
      484     5168             %KL_OSILINKCHG(FPTN=OSILINKCHG,STCLASS=AUTO);
      485     5291             %KL_LINE_KEY(FPTN=OSILINK_KEY,STCLASS=AUTO);
      486     5341        %B$CGAURD (FPTN=BF);
      487     5360    1   DCL NODE# UBIN;
      488     5361        /*
      489     5362          if the :routes file is not already open, try to open it.
      490     5363          if it can't be opened dont worry about it.
      491     5364        */
      492     5365
      493     5366    1        NSAP_BUF = '0'B;

   5366  5 000002   000000 100400                    MLR     fill='000'O
         5 000003   000002 000001 xsym               ADSC9   B_VECTNIL+2              cn=0,n=1
PL6.E3A0      #003=KLI$GETOSIROUTES File=KLI$FESET.:E05TSI                       WED 07/30/97 00:51 Page:94
         5 000004   000034 000074 4                  ADSC9   NSAP_BUF                 cn=0,n=60

      494     5367    2        IF KL_ROUTEOPEN = 0 THEN DO;

   5367  5 000005   000000 235000 xsym               LDA     KL_ROUTEOPEN
         5 000006   000014 601000 5                  TNZ     s:5373

      495     5368    2             CALL KLH$OPFILS_ROUTE;

   5368  5 000007   000002 631400 xsym               EPPR1   B_VECTNIL+2
         5 000010   000000 701000 xent               TSX1    KLH$OPFILS_ROUTE
         5 000011   000000 011000                    NOP     0

      496     5369    2             IF KL_ROUTEOPEN = 0 THEN      /* could not open :routes */

   5369  5 000012   000000 235000 xsym               LDA     KL_ROUTEOPEN
         5 000013   000060 600000 5                  TZE     SEND_SNPA

      497     5370    2                  GOTO SEND_SNPA;          /* no routes */
      498     5371    2           END;

      499     5372
      500     5373    1        PRECORD_ROUTE.V.N# = 0;

   5373  5 000014   000025 450000 4                  STZ     PRECORD_ROUTE+7

      501     5374    1        NSAP_KEY = '0'B;

   5374  5 000015   000000 100400                    MLR     fill='000'O
         5 000016   000002 000001 xsym               ADSC9   B_VECTNIL+2              cn=0,n=1
         5 000017   000030 000011 4                  ADSC9   NSAP_KEY                 cn=0,n=9

      502     5375    1        NSAP_KEY.CNT = NSAP_KEY_C.CNT;

   5375  5 000020   000000 236000 2                  LDQ     NSAP_KEY_C
         5 000021   000030 552040 4                  STBQ    NSAP_KEY,'40'O

PL6.E3A0      #003=KLI$GETOSIROUTES File=KLI$FESET.:E05TSI                       WED 07/30/97 00:51 Page:95
      503     5376    2        CALL M$PRECORD(PRECORD_ROUTE) WHENALTRETURN DO;

   5376  5 000022   000016 630400 4                  EPPR0   PRECORD_ROUTE
         5 000023   440003 713400                    CLIMB   alt,+16387
         5 000024   401000 401760                    pmme    nvectors=3
         5 000025   000027 702000 5                  TSX2    s:5379
         5 000026   000027 710000 5                  TRA     s:5379

      504     5377               /* expected*/
      505     5378    2           END;

      506     5379    1        PRECORD_ROUTE.V.N# = 1;

   5379  5 000027   000001 235007                    LDA     1,DL
         5 000030   000025 755000 4                  STA     PRECORD_ROUTE+7

      507     5380
      508     5381        /*
      509     5382          read the nsap records.  function and type are all ready set just forward
      510     5383          to the specified node.
      511     5384        */
      512     5385
      513     5386    2        DO WHILE ('1'B);

      514     5387    3             CALL M$READ(READ_ROUTE) WHENALTRETURN DO;

   5387  5 000031   000000 630400 4                  EPPR0   READ_ROUTE
         5 000032   440000 713400                    CLIMB   alt,read
         5 000033   401400 401760                    pmme    nvectors=4
         5 000034   000036 702000 5                  TSX2    s:5388
         5 000035   000037 710000 5                  TRA     s:5390

      515     5388    3                  GOTO SEND_SNPA;

   5388  5 000036   000060 710000 5                  TRA     SEND_SNPA

      516     5389    3                END;
PL6.E3A0      #003=KLI$GETOSIROUTES File=KLI$FESET.:E05TSI                       WED 07/30/97 00:51 Page:96
      517     5390    2             CALL KLX$WRHLPNODE(NSAP_BUF,SIZEC(NSAP_BUF),NODE#);

   5390  5 000037   200003 236100                    LDQ     @NODE#,,AUTO
         5 000040   200026 756100                    STQ     OSILINK_KEY+7,,AUTO
         5 000041   000002 237000 6                  LDAQ    2
         5 000042   200024 757100                    STAQ    OSILINK_KEY+5,,AUTO
         5 000043   200024 630500                    EPPR0   OSILINK_KEY+5,,AUTO
         5 000044   000021 631400 xsym               EPPR1   B_VECTNIL+17
         5 000045   000000 701000 xent               TSX1    KLX$WRHLPNODE
         5 000046   000000 011000                    NOP     0

      518     5391    3             CALL M$PRECORD(PRECORD_ROUTE) WHENALTRETURN DO;

   5391  5 000047   000016 630400 4                  EPPR0   PRECORD_ROUTE
         5 000050   440003 713400                    CLIMB   alt,+16387
         5 000051   401000 401760                    pmme    nvectors=3
         5 000052   000054 702000 5                  TSX2    s:5392
         5 000053   000055 710000 5                  TRA     s:5394

      519     5392    3                  GOTO SEND_SNPA;

   5392  5 000054   000060 710000 5                  TRA     SEND_SNPA

      520     5393    3                END;
      521     5394    2           END;                            /* do while */

   5394  5 000055   000031 710000 5                  TRA     s:5387

      522     5395
      523     5396    1   KLI$GETSNPA: ENTRY(NODE#);

   5396  5 000056   000000 700200 xent  KLI$GETSNPA  TSX0  ! X66_AUTO_1
         5 000057   000030 000001                    ZERO    24,1

   5387  5 000060                       SEND_SNPA    null
      524     5397    1   SEND_SNPA:;
      525     5398    1        OSILINK_KEY = '0'B;
PL6.E3A0      #003=KLI$GETOSIROUTES File=KLI$FESET.:E05TSI                       WED 07/30/97 00:51 Page:97

   5398  5 000060   000100 100400                    MLR     fill='000'O
         5 000061   000002 000001 xsym               ADSC9   B_VECTNIL+2              cn=0,n=1
         5 000062   200017 000023                    ADSC9   OSILINK_KEY,,AUTO        cn=0,n=19

      526     5399    1        OSILINK_KEY.SIZE = LENGTHC(OSILINK_KEY.KEY);

   5399  5 000063   022000 236003                    LDQ     9216,DU
         5 000064   200017 552140                    STBQ    OSILINK_KEY,'40'O,AUTO

      527     5400    1        OSILINK_KEY.KEY.KEYTYP = %KL_NETWORK_KEYTYP_OSILINK;

   5400  5 000065   000002 236003                    LDQ     2,DU
         5 000066   200017 552120                    STBQ    OSILINK_KEY,'20'O,AUTO

      528     5401    1        KL_PR_NETWORK.KEY_ = VECTOR(OSILINK_KEY);

   5401  5 000067   000001 235000 6                  LDA     1
         5 000070   200024 452500                    STP2    OSILINK_KEY+5,,AUTO
         5 000071   200024 236100                    LDQ     OSILINK_KEY+5,,AUTO
         5 000072   000017 036003                    ADLQ    15,DU
         5 000073   000002 757000 xsym               STAQ    KL_PR_NETWORK+2

      529     5402    1        KL_RD_NETWORK.KEY_ = VECTOR(OSILINK_KEY);

   5402  5 000074   000001 235000 6                  LDA     1
         5 000075   200024 452500                    STP2    OSILINK_KEY+5,,AUTO
         5 000076   200024 236100                    LDQ     OSILINK_KEY+5,,AUTO
         5 000077   000017 036003                    ADLQ    15,DU
         5 000100   000002 757000 xsym               STAQ    KL_RD_NETWORK+2

      530     5403    1        KL_RD_NETWORK.BUF_ = VECTOR(OSILINK_REC);

   5403  5 000101   000004 235000 6                  LDA     4
         5 000102   200024 452500                    STP2    OSILINK_KEY+5,,AUTO
         5 000103   200024 236100                    LDQ     OSILINK_KEY+5,,AUTO
         5 000104   000004 036003                    ADLQ    4,DU
PL6.E3A0      #003=KLI$GETOSIROUTES File=KLI$FESET.:E05TSI                       WED 07/30/97 00:51 Page:98
         5 000105   000004 757000 xsym               STAQ    KL_RD_NETWORK+4

      531     5404    2        CALL M$PRECORD(KL_PR_NETWORK) WHENALTRETURN DO;

   5404  5 000106   000000 630400 xsym               EPPR0   KL_PR_NETWORK
         5 000107   440003 713400                    CLIMB   alt,+16387
         5 000110   401000 401760                    pmme    nvectors=3
         5 000111   000113 702000 5                  TSX2    s:5407
         5 000112   000113 710000 5                  TRA     s:5407

      532     5405             /* expected */
      533     5406    2           END;

      534     5407    1        OSILINKCHG.MYNODE# = KL_NODE;

   5407  5 000113   000000 236000 xsym               LDQ     KL_NODE
         5 000114   000011 736000                    QLS     9
         5 000115   200007 552110                    STBQ    OSILINKCHG,'10'O,AUTO

      535     5408    1        OSILINKCHG.FCN = IGA_OSILINKCHG_DF; /* _DF is dont forward */

   5408  5 000116   133000 236003                    LDQ     46592,DU
         5 000117   200007 552140                    STBQ    OSILINKCHG,'40'O,AUTO

      536     5409    1        OSILINKCHG.TYPE = IGA_OSILINKUP;

   5409  5 000120   000130 236003                    LDQ     88,DU
         5 000121   200007 552120                    STBQ    OSILINKCHG,'20'O,AUTO

      537     5410
      538     5411    2        DO WHILE ('1'B);

      539     5412    3             CALL M$READ(KL_RD_NETWORK) WHENALTRETURN DO;

   5412  5 000122   000000 630400 xsym               EPPR0   KL_RD_NETWORK
         5 000123   440000 713400                    CLIMB   alt,read
         5 000124   401400 401760                    pmme    nvectors=4
PL6.E3A0      #003=KLI$GETOSIROUTES File=KLI$FESET.:E05TSI                       WED 07/30/97 00:51 Page:99
         5 000125   000127 702000 5                  TSX2    s:5414
         5 000126   000130 710000 5                  TRA     s:5416

      540     5413                /* not expected */
      541     5414    3                  GOTO RESTOR_RET;

   5414  5 000127   000177 710000 5                  TRA     RESTOR_RET

      542     5415    3                END;
      543     5416    2             IF OSILINK_KEY.KEY.KEYTYP ~= %KL_NETWORK_KEYTYP_OSILINK THEN

   5416  5 000130   200017 236100                    LDQ     OSILINK_KEY,,AUTO
         5 000131   000777 376003                    ANQ     511,DU
         5 000132   000002 116003                    CMPQ    2,DU
         5 000133   000177 601000 5                  TNZ     RESTOR_RET

      544     5417    2                  GOTO RESTOR_RET;
      545     5418
      546     5419    3             IF OSILINK_KEY.KEY.NODE ~= NODE# THEN DO;

   5419  5 000134   200003 470500                    LDP0    @NODE#,,AUTO
         5 000135   200017 236100                    LDQ     OSILINK_KEY,,AUTO
         5 000136   000011 772000                    QRL     9
         5 000137   000777 376007                    ANQ     511,DL
         5 000140   000000 116100                    CMPQ    0,,PR0
         5 000141   000170 600000 5                  TZE     s:5426

      547     5420    3                  OSILINKCHG.NODE# = OSILINK_KEY.KEY.NODE;

   5420  5 000142   200017 236100                    LDQ     OSILINK_KEY,,AUTO
         5 000143   000011 772000                    QRL     9
         5 000144   200007 552104                    STBQ    OSILINKCHG,'04'O,AUTO

      548     5421    3                  OSILINKCHG.SNPA = OSILINK_REC.SNPA;

   5421  5 000145   200004 237100                    LDAQ    OSILINK_REC,,AUTO
         5 000146   200011 755100                    STA     OSILINKCHG+2,,AUTO
PL6.E3A0      #003=KLI$GETOSIROUTES File=KLI$FESET.:E05TSI                       WED 07/30/97 00:51 Page:100
         5 000147   200012 756100                    STQ     OSILINKCHG+3,,AUTO

      549     5422    3                  IF (SUBSTR(ADDR(KL_RDBF)->BF.STATION,0,4) ~= 'FEPA') THEN RETURN;

   5422  5 000150   000001 236000 xsym               LDQ     KL_RDBF+1
         5 000151   000004 116000 2                  CMPQ    NSAP_KEY_C+4
         5 000152   000154 600000 5                  TZE     s:5423

   5422  5 000153   000000 702200 xent               TSX2  ! X66_ARET

      550     5423    3                  OSILINKCHG.QOS = OSILINK_REC.QOS;

   5423  5 000154   200006 236100                    LDQ     OSILINK_REC+2,,AUTO
         5 000155   200010 552140                    STBQ    OSILINKCHG+1,'40'O,AUTO

      551     5424    3                  CALL KLX$WRHLPNODE(OSILINKCHG,SIZEC(OSILINKCHG),NODE#);

   5424  5 000156   200003 236100                    LDQ     @NODE#,,AUTO
         5 000157   200026 756100                    STQ     OSILINK_KEY+7,,AUTO
         5 000160   000006 236000 6                  LDQ     6
         5 000161   200025 756100                    STQ     OSILINK_KEY+6,,AUTO
         5 000162   200007 631500                    EPPR1   OSILINKCHG,,AUTO
         5 000163   200024 451500                    STP1    OSILINK_KEY+5,,AUTO
         5 000164   200024 630500                    EPPR0   OSILINK_KEY+5,,AUTO
         5 000165   000021 631400 xsym               EPPR1   B_VECTNIL+17
         5 000166   000000 701000 xent               TSX1    KLX$WRHLPNODE
         5 000167   000000 011000                    NOP     0

      552     5425    3                END;

      553     5426    3             CALL M$PRECORD(KL_PR_NETWORK) WHENALTRETURN DO;

   5426  5 000170   000000 630400 xsym               EPPR0   KL_PR_NETWORK
         5 000171   440003 713400                    CLIMB   alt,+16387
         5 000172   401000 401760                    pmme    nvectors=3
         5 000173   000175 702000 5                  TSX2    s:5427
         5 000174   000176 710000 5                  TRA     s:5429
PL6.E3A0      #003=KLI$GETOSIROUTES File=KLI$FESET.:E05TSI                       WED 07/30/97 00:51 Page:101

      554     5427    3                  GOTO RESTOR_RET;

   5427  5 000175   000177 710000 5                  TRA     RESTOR_RET

      555     5428    3                END;
      556     5429    2           END;

   5429  5 000176   000122 710000 5                  TRA     s:5412

   5426  5 000177                       RESTOR_RET   null
      557     5430
      558     5431    1   RESTOR_RET:;                  /* restore RD_NETWORK.BUF_ and .KEY_ and return */
      559     5432    1        KL_RD_NETWORK.KEY_ = VECTOR(KL_NETWORK_KEY);

   5432  5 000177   000010 237000 6                  LDAQ    8
         5 000200   000002 757000 xsym               STAQ    KL_RD_NETWORK+2

      560     5433    1        KL_RD_NETWORK.BUF_ = VECTOR(KL_NETWORK_BUF);

   5433  5 000201   000012 237000 6                  LDAQ    10
         5 000202   000004 757000 xsym               STAQ    KL_RD_NETWORK+4

      561     5434    1        KL_PR_NETWORK.KEY_ = VECTOR(KL_NETWORK_KEY);

   5434  5 000203   000010 237000 6                  LDAQ    8
         5 000204   000002 757000 xsym               STAQ    KL_PR_NETWORK+2

      562     5435    1   END KLI$GETOSIROUTES;

   5435  5 000205   000000 702200 xent               TSX2  ! X66_ARET
      563     5436        %EOD;

PL6.E3A0      #003=KLI$GETOSIROUTES File=KLI$FESET.:E05TSI                       WED 07/30/97 00:51 Page:102
--  Include file information  --

   KL_NETWORK_M.:E05TOU  is referenced.
   OC$MESSHD_C.:E05TOU  is referenced.
   KL_DATA_R.:E05TOU  cannot be made into a system file and is referenced.
   K_ADDRESS_M.:E05TOU  is referenced.
   KL_MACRO_C.:E05TOU  is referenced.
   KL_AFCN_C.:E05TOU  is referenced.
   CP_6.:E05TOU  cannot be made into a system file and is referenced.
   B$JIT_C.:E05TOU  was found in the system file and is never referenced.
   CP_6_C.:E05TOU  was found in the system file and is referenced.
      No diagnostics issued in procedure KLI$GETOSIROUTES.
PL6.E3A0      #003=KLI$GETOSIROUTES File=KLI$FESET.:E05TSI                       WED 07/30/97 00:51 Page:103

 **** Variables and constants ****

  ****  Section 002 RoData KLI$GETOSIROUTES

  ****  Scalars and arrays  ****
OctLoc.c.b A Datatyp(siz) R M Lvl/name                 OctLoc.c.b A Datatyp(siz) R M Lvl/name

     0-0-0/d STRC(81)    r     1 NSAP_KEY_C

  ****  Section 004  Data  KLI$GETOSIROUTES

  ****  Scalars and arrays  ****
OctLoc.c.b A Datatyp(siz) R M Lvl/name                 OctLoc.c.b A Datatyp(siz) R M Lvl/name

    34-0-0/w STRC(540)   r     1 NSAP_BUF                  30-0-0/d STRC(81)    r     1 NSAP_KEY
    16-0-0/d STRC(360)   r     1 PRECORD_ROUTE              0-0-0/d STRC(504)   r     1 READ_ROUTE

  ****  Auto variables  ****

  ****  Scalars and arrays  ****
OctLoc.c.b A Datatyp(siz) R M Lvl/name                 OctLoc.c.b A Datatyp(siz) R M Lvl/name

     3-0-0/w PTR         r     1 @NODE#                    *0-0-0/w UBIN        r     1 NODE#
     7-0-0/w STRC(288)   r     1 OSILINKCHG                17-0-0/w STRC(171)   r     1 OSILINK_KEY
     4-0-0/w STRC(81)    r     1 OSILINK_REC

  ****  SYMREF variables  ****

  ****  Scalars and arrays  ****
OctLoc.c.b A Datatyp(siz) R M Lvl/name                 OctLoc.c.b A Datatyp(siz) R M Lvl/name

     0-0-0/w STRC(711)   r     1 KL_NETWORK_BUF             0-0-0/w STRC(171)   r     1 KL_NETWORK_KEY
     0-0-0/w UBIN        r     1 KL_NODE                    0-0-0/d STRC(360)   r     1 KL_PR_NETWORK
     0-0-0/w STRC(1260)  r     1 KL_RDBF                    0-0-0/d STRC(504)   r     1 KL_RD_NETWORK
     0-0-0/w UBIN        r     1 KL_ROUTEOPEN

  ****  BASED and DCB variables  ****
PL6.E3A0      #003=KLI$GETOSIROUTES File=KLI$FESET.:E05TSI                       WED 07/30/97 00:51 Page:104

  ****  Scalars and arrays  ****
OctLoc.c.b A Datatyp(siz) R M Lvl/name                 OctLoc.c.b A Datatyp(siz) R M Lvl/name

     0-0-0/w STRC(144)   r     1 BF                         0-0-0N  NULL        r     1 M$ROUTE


   Procedure KLI$GETOSIROUTES requires 134 words for executable code.
   Procedure KLI$GETOSIROUTES requires 24 words of local(AUTO) storage.
PL6.E3A0      #003=KLI$GETOSIROUTES File=KLI$FESET.:E05TSI                       WED 07/30/97 00:51 Page:105
          *** CROSS REFERENCE LISTING ***
**     DENOTES     IDENTIFIER DEFINITION
<<                 IDENTIFIER'S VALUE SET
>>                 IDENTIFIER'S VALUE USED
<>                 IDENTIFIER SET AND/OR USED
--                 IDENTIFIER REFERENCED
PL6.E3A0      #003=KLI$GETOSIROUTES File=KLI$FESET.:E05TSI                       WED 07/30/97 00:51 Page:106
          MINI XREF LISTING

BF.STATION
      5357**DCL      5357--REDEF    5422>>IF
KLH$OPFILS_ROUTE
      4518**DCL-ENT  5368--CALL
KLX$WRHLPNODE
      4519**DCL-ENT  5390--CALL     5424--CALL
KL_AUTOFAIL.FLAGS
      4357**DCL      4358--REDEF
KL_AUTOFAIL.MSGID
      4353**DCL      4354--REDEF
KL_AUTOFAIL.WSN
      4360**DCL      4361--REDEF
KL_FEMSG.FLAGS
      4307**DCL      4308--REDEF
KL_FEMSG.MSGID
      4303**DCL      4304--REDEF
KL_FEMSG.WSN
      4310**DCL      4311--REDEF
KL_NETWORK_BUF
      4471**DCL      5433--ASSIGN
KL_NETWORK_BUF.TERMINAL_ID.TERM
      4497**DCL      4506--REDEF
KL_NETWORK_KEY
      4400**DCL      5432--ASSIGN   5434--ASSIGN
KL_NETWORK_KEY.KEY.TERMID.TERM
      4423**DCL      4432--REDEF
KL_NODE
      4288**DCL      5407>>ASSIGN
KL_PR_NETWORK
      4629**DCL      5404<>CALL     5426<>CALL
KL_PR_NETWORK.KEY_
      4629**DCL      5401<<ASSIGN   5434<<ASSIGN
PL6.E3A0      #003=KLI$GETOSIROUTES File=KLI$FESET.:E05TSI                       WED 07/30/97 00:51 Page:107
KL_RDBF
      4263**DCL      5422--IF
KL_RDBF.FEL#
      4266**DCL      4267--REDEF
KL_RD_NETWORK
      4656**DCL      5412<>CALL
KL_RD_NETWORK.BUF_
      4658**DCL      5403<<ASSIGN   5433<<ASSIGN
KL_RD_NETWORK.KEY_
      4656**DCL      5402<<ASSIGN   5432<<ASSIGN
KL_RD_NETWORK.STATION_
      4659**DCL      4660--REDEF
KL_RD_NETWORK.V.DVBYTE.REREAD#
      4671**DCL      4671--REDEF
KL_RD_NETWORK.V.INDX#
      4669**DCL      4669--REDEF
KL_ROUTEOPEN
      4257**DCL      5367>>IF       5369>>IF
KL_TMSG.FLAGS
      4329**DCL      4330--REDEF
KL_TMSG.MSGID
      4325**DCL      4326--REDEF
KL_TMSG.WSN
      4332**DCL      4333--REDEF
M$PRECORD
        29**DCL-ENT  5376--CALL     5391--CALL     5404--CALL     5426--CALL
M$READ
        26**DCL-ENT  5387--CALL     5412--CALL
NODE#
      5360**DCL        14--PROC     5390<>CALL     5396--ENTRY    5419>>IF       5424<>CALL
NSAP_BUF
      4718**DCL      4570--DCLINIT  4571--DCLINIT  4927--REDEF    5366<<ASSIGN   5390<>CALL     5390--CALL
NSAP_BUF.LNSAP.ADDRESS_N
      4872**DCL      4873--REDEF
NSAP_BUF.MYNODE#
      4753**DCL      4755--REDEF
PL6.E3A0      #003=KLI$GETOSIROUTES File=KLI$FESET.:E05TSI                       WED 07/30/97 00:51 Page:108
NSAP_BUF.NODE#
      4756**DCL      4758--REDEF
NSAP_BUF.NSAP.ADDRESS_N
      4816**DCL      4817--REDEF
NSAP_KEY
      4696**DCL      4568--DCLINIT  4569--DCLINIT  4608--DCLINIT  4609--DCLINIT  5374<<ASSIGN
NSAP_KEY.CNT
      4697**DCL      5375<<ASSIGN
NSAP_KEY.NSAPNAME
      4698**DCL      4697--DCLINIT
NSAP_KEY_C.CNT
      4540**DCL      5375>>ASSIGN
NSAP_KEY_C.NSAPNAME
      4541**DCL      4540--DCLINIT
OSILINKCHG
      5185**DCL      5424<>CALL     5424--CALL
OSILINKCHG.FCN
      5196**DCL      5408<<ASSIGN
OSILINKCHG.MYNODE#
      5216**DCL      5407<<ASSIGN
OSILINKCHG.NODE#
      5218**DCL      5420<<ASSIGN
OSILINKCHG.QOS
      5220**DCL      5423<<ASSIGN
OSILINKCHG.SNPA
      5246**DCL      5421<<ASSIGN
OSILINKCHG.TERMID.TERM
      5277**DCL      5286--REDEF
OSILINKCHG.TYPE
      5207**DCL      5409<<ASSIGN
OSILINK_KEY
      5306**DCL      5398<<ASSIGN   5401--ASSIGN   5402--ASSIGN
OSILINK_KEY.KEY
      5308**DCL      5399--ASSIGN
OSILINK_KEY.KEY.KEYTYP
      5309**DCL      5400<<ASSIGN   5416>>IF
PL6.E3A0      #003=KLI$GETOSIROUTES File=KLI$FESET.:E05TSI                       WED 07/30/97 00:51 Page:109
OSILINK_KEY.KEY.NODE
      5310**DCL      5419>>IF       5420>>ASSIGN
OSILINK_KEY.KEY.TERMID.TERM
      5329**DCL      5338--REDEF
OSILINK_KEY.SIZE
      5307**DCL      5399<<ASSIGN
OSILINK_REC
      5135**DCL      5403--ASSIGN
OSILINK_REC.QOS
      5166**DCL      5423>>ASSIGN
OSILINK_REC.SNPA
      5154**DCL      5421>>ASSIGN
PRECORD_ROUTE
      4608**DCL      5376<>CALL     5391<>CALL
PRECORD_ROUTE.V
      4610**DCL      4608--DCLINIT
PRECORD_ROUTE.V.N#
      4614**DCL      5373<<ASSIGN   5379<<ASSIGN
READ_ROUTE
      4568**DCL      5387<>CALL
READ_ROUTE.STATION_
      4571**DCL      4572--REDEF
READ_ROUTE.V
      4572**DCL      4568--DCLINIT
READ_ROUTE.V.DVBYTE.REREAD#
      4583**DCL      4583--REDEF
READ_ROUTE.V.INDX#
      4581**DCL      4581--REDEF
RESTOR_RET
      5426**LABEL    5414--GOTO     5417--GOTO     5427--GOTO
SEND_SNPA
      5387**LABEL    5370--GOTO     5388--GOTO     5392--GOTO
UPDOSI.LNSAP.ADDRESS_N
      5081**DCL      5082--REDEF
UPDOSI.MYNODE#
      4962**DCL      4964--REDEF
PL6.E3A0      #003=KLI$GETOSIROUTES File=KLI$FESET.:E05TSI                       WED 07/30/97 00:51 Page:110
UPDOSI.NODE#
      4965**DCL      4967--REDEF
UPDOSI.NSAP.ADDRESS_N
      5025**DCL      5026--REDEF

PL6.E3A0      #004=KLI$FEGO File=KLI$FESET.:E05TSI                               WED 07/30/97 00:51 Page:111
      564        1        /*T***********************************************************/
      565        2        /*T*                                                         */
      566        3        /*T* Copyright (c) Bull HN Information Systems Inc., 1997    */
      567        4        /*T*                                                         */
      568        5        /*T***********************************************************/
      569        6        /**/
      570        7        /**/
      571        8        KLI$FEGO: PROC (FEX);
      572        9        /**/
      573       10        /**/
      574       11        %INCLUDE KL_AFCN_C;
      575      112        %INCLUDE KL_ERRORS_C;
      576      154        %INCLUDE KL_MACRO_C;
      577     3506        %INCLUDE CP_6;
      578     3587        %INCLUDE KL_DATA_R;
      579     4051        %INCLUDE KL_CONFIG_M;
      580     4813        /**/
      581     4814        /**/
      582     4815    1   DCL FEX UBIN WORD;
      583     4816    1   DCL 1 VTXTC BASED ALIGNED,
      584     4817    1            2 C UBIN BYTE UNAL,
      585     4818    1            2 T CHAR(VTXTC.C);
      586     4819    1   DCL KL_BROADSZ UBIN WORD STATIC SYMDEF INIT(0);
      587     4820    1   DCL  UTSBUF UBIN STATIC;
      588     4821    1   DCL FUTS UBIN(36);
      589     4822    1   DCL SIZE UBIN;
      590     4823        %KL_SGNRSP(FPTN=SGNRSP,STCLASS=AUTO,RSPSIZ=80);
      591     4958        %KL_SETNODE(FPTN=SETNODE,STCLASS=STATIC,FCN=IGA_NODETBL);
      592     5004        %KL$NETWORK_KEY (STCLASS=CONSTANT);
      593     5021        %KL$NETWORK (STCLASS="BASED(KL_EXTRSP_BUF$)");
      594     5048    1   DCL ERR UBIN;
      595     5049    1   DCL KLH$SGNTXT ENTRY(2);
      596     5050    1   DCL I UBIN;
      597     5051    1   DCL KLX$9TO8 ENTRY(3);
      598     5052    1   DCL KLH$ERRMSG ENTRY(3);
      599     5053    1   DCL KLI$GETROUTES ENTRY;
      600     5054    1   DCL KLX$WRHLPNODE ENTRY(4) ALTRET;
PL6.E3A0      #004=KLI$FEGO File=KLI$FESET.:E05TSI                               WED 07/30/97 00:51 Page:112
      601     5055    1   DCL KLI$GETOSIROUTES ENTRY(1);
      602     5056    1   DCL KLI$GETFEPERA ENTRY(2);
      603     5057        /**/
      604     5058        /**/
      605     5059        %KL$ADMES (NAME=SALUTE,CODE=IGA_SSAL,STCLASS=CONSTANT,
      606     5060                   MSG=' ***CP-6 AT YOUR SERVICE! ');
      607     5066        %KL$ADMES (NAME=GO,CODE=IGA_GO,MSG='    ',STCLASS=CONSTANT);
      608     5072        %VLP_ERRCODE (FPTN=ERR_HDM,FCG=KL,MID=I,MON='1'B,ERR#=%E$HOSTDWNMSG,SEV=0,STCLASS=
              5072            CONSTANT);
      609     5117        /*E* ERROR: KLI-E$HOSTDWNMSG-0
      610     5118              MESSAGE: ** Host recovery in progress - Please stand by **
      611     5119         */
      612     5120        %VLP_ERRCODE (FPTN=ERR_LDM,FCG=KL,MID=I,MON='1'B,ERR#=%E$LINKDWNMSG,SEV=0,STCLASS=
              5120            CONSTANT);
      613     5165        /*E* ERROR: KLI-E$LINKDWNMSG-0
      614     5166              MESSAGE: ** Link recovery in progress - Please stand by **
      615     5167         */
      616     5168        %VLP_ERRCODE (FPTN=ERR_LPRMPT,FCG=KL,MID=I,MON='1'B,ERR#=%E$LOGONPRMT,SEV=0,STCLASS=
              5168            CONSTANT);
      617     5213        /*E* ERROR: KLI-E$LOGONPRMT-0
      618     5214             MESSAGE:Logon Please:
      619     5215         */
      620     5216        %VLP_ERRCODE (FPTN=ERR_HOSTRESUMED,FCG=KL,MID=I,MON='1'B,ERR#=%E$HOSTRESUMED,SEV=0,
              5216            STCLASS=CONSTANT);
      621     5261        /*E* ERROR: KLI-E$HOSTRESUMED-0
      622     5262             MESSAGE:*** Host service has been resumed ***
      623     5263         */
      624     5264        %VLP_ERRCODE (FPTN=ERR_LGNTIMEDOUT,FCG=KL,MID=I,MON='1'B,ERR#=%E$LGNTIMEDOUT,SEV=0,
              5264            STCLASS=CONSTANT);
      625     5309        /*E* ERROR: KLI-E$LGNTIMEDOUT-0
      626     5310             MESSAGE:Logon timed out
      627     5311         */
      628     5312        %VLP_ERRCODE (FPTN=ERR_NOLOGONMSG,FCG=KL,MID=I,MON='1'B,ERR#=%E$NOLOGONMSG,SEV=0,
              5312            STCLASS=CONSTANT);
      629     5357        /*E* ERROR: KLI-E$NOLOGONMSG-0
      630     5358             MESSAGE:Sorry, unable to log you on.
      631     5359         */
PL6.E3A0      #004=KLI$FEGO File=KLI$FESET.:E05TSI                               WED 07/30/97 00:51 Page:113
      632     5360        %VLP_ERRCODE (FPTN=ERR_HOSTNA,FCG=KL,MID=I,MON='1'B,ERR#=%E$NOHOST,SEV=0,STCLASS=
              5360            CONSTANT);
      633     5405        /*E* ERROR: KLI-E$NOHOST-0
      634     5406             MESSAGE: That host is currently not available.
      635     5407        */
      636     5408        %KL$ADMES (NAME=FEPW,CODE=IGA_SSPW,MSG='88888888',STCLASS=STATIC);
      637     5414        %KL_ADMES (NAME=USAL,STCLASS=STATIC,CODE=IGA_SSAL);
      638     5420        %KL_ADMES (NAME=KL_HDRMSG,STCLASS="STATIC SYMDEF",CODE=IGA_HDR,TYP=IGAT_SEND);
      639     5426        %KL_NODEINFO(FPTN=NODEINFO,STCLASS=STATIC,NODETYPE=HOST);
      640     5450        %KL_TIME (FPTN=TIME,STCLASS=STATIC);
      641     5474        /**/
      642     5475        /**/
      643     5476        %FPT_READ (FPTN=KL_RD_NETCON,STCLASS=SYMREF);
      644     5515    1   DCL KL_STATION CHAR(8) SYMREF;
      645     5516        %FPT_ACTIVATE (FPTN=FEACT,STCLASS=CONSTANT,DCB=M$HLP,STATION=KL_STATION);
      646     5539        %FPT_MONINFO (FPTN=GSAL,STCLASS=CONSTANT,SITEINFO=MSAL);
      647     5554        %VLR_SITEINFO (FPTN=MSAL,STCLASS=STATIC);
      648     5573        %FPT_TIME (SOURCE=CLOCK,TSTAMP=UTSBUF);
      649     5592        /**/
      650     5593        /**/
      651     5594    1        CALL M$ACTIVATE(FEACT)
      652     5595    2        WHENALTRETURN DO;
      653     5596    2             RETURN;
      654     5597    2           END;
      655     5598    1        IF KL_FETBL.BOSS(FEX)
      656     5599    2        THEN DO;
      657     5600    2             USAL.CODE_ = IGA_SSAL;
      658     5601    2             CALL M$MONINFO (GSAL) ALTRET (STDSAL);
      659     5602    2             USAL.MSG_=ADDR(MSAL.SALUTATION#)->VTXTC.T;
      660     5603    2             CALL KLX$WRHLPNODE(USAL,SIZEC(USAL),FEX);
      661     5604    2   WRSAL:    ;
      662     5605    2             SIZE = SIZEC(USAL.MSG_);
      663     5606    2             CALL KLH$ERRMSG(USAL.MSG_,SIZE,ERR_HDM);
      664     5607    2             USAL.CODE_ = IGA_SHDM;
      665     5608    2             CALL KLX$WRHLPNODE(USAL,SIZEC(USAL)-SIZEC(USAL.MSG_)+SIZE,FEX);
      666     5609    2             SIZE = SIZEC(USAL.MSG_);
      667     5610    2             CALL KLH$ERRMSG(USAL.MSG_,SIZE,ERR_LDM);
PL6.E3A0      #004=KLI$FEGO File=KLI$FESET.:E05TSI                               WED 07/30/97 00:51 Page:114
      668     5611    2             USAL.CODE_ = IGA_LNKDWNMSG;
      669     5612    2             CALL KLX$WRHLPNODE(USAL,SIZEC(USAL)-SIZEC(USAL.MSG_)+SIZE,FEX);
      670     5613    2             SIZE = SIZEC(USAL.MSG_);
      671     5614    2             CALL KLH$ERRMSG(USAL.MSG_,SIZE,ERR_LPRMPT);
      672     5615    2             USAL.CODE_ = IGA_LGNPRMPT;
      673     5616    2             CALL KLX$WRHLPNODE(USAL,SIZEC(USAL)-SIZEC(USAL.MSG_)+SIZE,FEX);
      674     5617    2             SIZE = SIZEC(USAL.MSG_);
      675     5618    2             CALL KLH$ERRMSG(USAL.MSG_,SIZE,ERR_HOSTRESUMED);
      676     5619    2             USAL.CODE_ = IGA_HOSTRESUMED;
      677     5620    2             CALL KLX$WRHLPNODE(USAL,SIZEC(USAL)-SIZEC(USAL.MSG_)+SIZE,FEX);
      678     5621    2             SIZE = SIZEC(USAL.MSG_);
      679     5622    2             CALL KLH$ERRMSG(USAL.MSG_,SIZE,ERR_LGNTIMEDOUT);
      680     5623    2             USAL.CODE_ = IGA_LGNTIMEDOUT;
      681     5624    2             CALL KLX$WRHLPNODE(USAL,SIZEC(USAL)-SIZEC(USAL.MSG_)+SIZE,FEX);
      682     5625    2             SIZE = SIZEC(USAL.MSG_);
      683     5626    2             CALL KLH$ERRMSG(USAL.MSG_,SIZE,ERR_NOLOGONMSG);
      684     5627    2             USAL.CODE_ = IGA_NOLOGONMSG;
      685     5628    2             CALL KLX$WRHLPNODE(USAL,SIZEC(USAL)-SIZEC(USAL.MSG_)+SIZE,FEX);
      686     5629    2             SIZE = SIZEC(USAL.MSG_);
      687     5630    2             CALL KLH$ERRMSG(USAL.MSG_,SIZE,ERR_HOSTNA);
      688     5631    2             USAL.CODE_ = IGA_HOSTNA;
      689     5632    2             CALL KLX$WRHLPNODE(USAL,SIZEC(USAL)-SIZEC(USAL.MSG_)+SIZE,FEX);
      690     5633
      691     5634    2             ERR = %E$SGSYN;
      692     5635    2             CALL KLH$SGNTXT(SGNRSP,ERR);
      693     5636    2             USAL.CODE_ = IGA_SGSYN;
      694     5637    2             USAL.MSG_ = SGNRSP.MESSAGE.RSPTXT;
      695     5638    2             CALL KLX$WRHLPNODE(USAL,SIZEC(USAL)-SIZEC(USAL.MSG_)+SGNRSP.MESSAGE.RSPSIZ
              5638                      ,FEX);
      696     5639    2             ERR = %E$UDHOST;
      697     5640    2             CALL KLH$SGNTXT(SGNRSP,ERR);
      698     5641    2             USAL.CODE_ = IGA_UDHOST;
      699     5642    2             USAL.MSG_ = SGNRSP.MESSAGE.RSPTXT;
      700     5643    2             CALL KLX$WRHLPNODE(USAL,SIZEC(USAL)-SIZEC(USAL.MSG_)+SGNRSP.MESSAGE.RSPSIZ
              5643                      ,FEX);
      701     5644    2             ERR = %E$BDID;
      702     5645    2             CALL KLH$SGNTXT(SGNRSP,ERR);
PL6.E3A0      #004=KLI$FEGO File=KLI$FESET.:E05TSI                               WED 07/30/97 00:51 Page:115
      703     5646    2             USAL.CODE_ = IGA_BDID;
      704     5647    2             USAL.MSG_ = SGNRSP.MESSAGE.RSPTXT;
      705     5648    2             CALL KLX$WRHLPNODE(USAL,SIZEC(USAL)-SIZEC(USAL.MSG_)+SGNRSP.MESSAGE.RSPSIZ
              5648                      ,FEX);
      706     5649    2             SETNODE.FCN = IGA_NODETBL;
      707     5650    2             KL_NETWORK_VALID = '0'B;
      708     5651    2             KL_RD_NETCON.BUF_ = VECTOR(KL_EXTRSP_BUF);
      709     5652    2             KL_RD_NETCON.KEY_ = VECTOR(KL$NETWORK_KEY);
      710     5653    2             CALL M$READ (KL_RD_NETCON)
      711     5654    3             WHENRETURN DO;
      712     5655    4                  DO I = 0 TO KL$NETWORK.NODE#;
      713     5656    4                       SETNODE.NODE# = I;
      714     5657    4                       SETNODE.NODE_NAME = KL$NETWORK.NODE.NODE(I);
      715     5658    4                       SETNODE.MY_NODE = '0'B;
      716     5659    5                       DO CASE (KL$NETWORK.NODE.TYPE(I));
      717     5660
      718     5661    5                       CASE (%KL_NODETYPE_HOST,%KL_NODETYPE_ME);
      719     5662    5                          SETNODE.HOST_NODE = '1'B;
      720     5663
      721     5664    5                       CASE (%KL_NODETYPE_FEP,%KL_NODETYPE_DEBUG);
      722     5665    5                          SETNODE.HOST_NODE = '0'B;
      723     5666
      724     5667    5                       CASE (%KL_NODETYPE_UNDEF);
      725     5668    5                          SETNODE.NODE_NAME = ' ';
      726     5669
      727     5670    5                       END;
      728     5671    4                       IF KL$NETWORK.NODE.TYPE(I) = %KL_NODETYPE_HOST OR
      729     5672    4                            KL$NETWORK.NODE.TYPE(I) = %KL_NODETYPE_ME THEN
      730     5673    4                            CALL KLX$WRHLPNODE(SETNODE,SIZEC(SETNODE),FEX);
      731     5674    4                     END;
      732     5675    3                END;                       /* end whenreturn*/
      733     5676    3             WHENALTRETURN DO;
      734     5677    3                  SETNODE.INVALID = '1'B;
      735     5678    3                  CALL KLX$WRHLPNODE(SETNODE,SIZEC(SETNODE),FEX);
      736     5679    3                END;
      737     5680    2             CALL KLI$GETOSIROUTES(FEX);
      738     5681    2             CALL KLX$WRHLPNODE(FEPW,SIZEC(FEPW),FEX);
PL6.E3A0      #004=KLI$FEGO File=KLI$FESET.:E05TSI                               WED 07/30/97 00:51 Page:116
      739     5682    2             CALL KLX$WRHLPNODE(KL_HDRMSG,KL_BROADSZ+LENGTHC(KL_HDRMSG)-LENGTHC(
              5682                      KL_HDRMSG.MSG_),FEX);
      740     5683    2           END;
      741     5684    1        NODEINFO.MYNODE = KL_NODE;
      742     5685    1        NODEINFO.MYNAME = KL_NODENAME;
      743     5686    1        IF KL_FETBL.BOSS(FEX)
      744     5687    1        THEN
      745     5688    1             NODEINFO.BOSS = 1;
      746     5689    1        ELSE
      747     5690    1             NODEINFO.BOSS = 0;
      748     5691    1        CALL KLX$WRHLPNODE (NODEINFO,SIZEC(NODEINFO),FEX);
      749     5692    1        IF KL_FETBL.LINK_CONNECT(FEX) THEN
      750     5693    1             CALL KLI$GETROUTES;
      751     5694    1        IF KL_FETBL.BOSS(FEX) THEN
      752     5695    2        DO;
      753     5696    2             CALL M$TIME (FPT_TIME);
      754     5697                 /*
      755     5698                 **convert time to 1/25 uts
      756     5699                 **convert 1/25s uts to feputs
      757     5700                 */
      758     5701    2             CALL KLI$GETFEPERA(UTSBUF,FUTS);
      759     5702                 /*
      760     5703                 **move era bits(2,3) into 32 bit range.  reduces resolution
      761     5704                 **but avoids having to use two field to send value to fep.
      762     5705                 */
      763     5706    2             FUTS = (FUTS+2)/4;
      764     5707    2             CALL KLX$9TO8(FUTS,TIME.UTS,4);
      765     5708    2             CALL KLX$WRHLPNODE (TIME,SIZEC(TIME),FEX);
      766     5709    2             CALL KLX$WRHLPNODE (GO,SIZEC(GO),FEX);
      767     5710    2           END;
      768     5711    1   WDN: ;
      769     5712    1        RETURN;
      770     5713    1   STDSAL:;
      771     5714    1        CALL KLX$WRHLPNODE(SALUTE,SIZEC(SALUTE),FEX);
      772     5715    1        GOTO WRSAL;
      773     5716        /**/
      774     5717    1   END;
PL6.E3A0      #004=KLI$FEGO File=KLI$FESET.:E05TSI                               WED 07/30/97 00:51 Page:117
      775     5718        /**/
      776     5719        /**/
      777     5720        %EOD;

PL6.E3A0      #004=KLI$FEGO File=KLI$FESET.:E05TSI                               WED 07/30/97 00:51 Page:118
--  Include file information  --

   KL_CONFIG_M.:E05TOU  is referenced.
   KL_NETWORK_M.:E05TOU  is referenced.
   OC$MESSHD_C.:E05TOU  is referenced.
   KL_DATA_R.:E05TOU  cannot be made into a system file and is referenced.
   CP_6.:E05TOU  cannot be made into a system file and is referenced.
   KL_MACRO_C.:E05TOU  is referenced.
   KL_ERRORS_C.:E05TOU  is referenced.
   KL_AFCN_C.:E05TOU  is referenced.
   B$JIT_C.:E05TOU  was found in the system file and is never referenced.
   CP_6_C.:E05TOU  was found in the system file and is referenced.
      No diagnostics issued in procedure KLI$FEGO.

   Procedure KLI$FEGO requires 498 words for executable code.
   Procedure KLI$FEGO requires 40 words of local(AUTO) storage.

PL6.E3A0      #004=KLI$FEGO File=KLI$FESET.:E05TSI                               WED 07/30/97 00:51 Page:119

 Object Unit name= KLI$FEGO                                   File name= KLI$FESET.:E05TOU
 UTS= JUL 30 '97 00:51:45.76 WED                              Compiler= PL-6/E31         Sev=      00
 SharedLib= :SHARED_SYSTEM                                    Alt SharedLib=


    ****  Control sections  ****

 Sect   Type Bound  Init  Size OctSiz  Section name(segment info)
    0   DCB   even  none     0      0  M$UC
    1   DCB   even  none     0      0  M$HLP
    2   Data  even  none   152    230  KLI$FEGO
    3  RoData even  UTS     46     56  KLI$FEGO
    4   Proc  even  none   498    762  KLI$FEGO
    5  RoData even  none    38     46  KLI$FEGO

    ****  Entry defs  ****

                              Check   Calling
                             calling  sequence
  Sect OctLoc Primary Altret sequence   type   Parms  Name
     4      0   yes            yes      Std        1  KLI$FEGO

  ****  Data defs  ****

 Sect OctLoc  Name                           Sect OctLoc  Name
    2      0  KL_BROADSZ                         2     50  KL_HDRMSG
PL6.E3A0      #004=KLI$FEGO File=KLI$FESET.:E05TSI                               WED 07/30/97 00:51 Page:120

  ****  Entry refs  ****

         Check        Calling
        calling       sequence
Altret sequence SRef   type   Args  Name
 yes     yes           Std       4 KLX$WRHLPNODE
         yes           Std       2 KLH$SGNTXT
         yes           Std       1 KLI$GETOSIROUTES
         yes           Std       0 KLI$GETROUTES
         yes           Std       3 KLH$ERRMSG
         yes           Std       3 KLX$9TO8
         yes           Std       2 KLI$GETFEPERA
                       nStd      0 X66_AUTO_1
                       nStd      0 X66_ARET
                       Std       0 B_CONSPOOL_D

  ****  Data refs  ****

  Flags:  r = read only, s = secondary
Flgs Name                             Flgs Name                             Flgs Name
     M$UC                                  M$HLP                                 KL_FETBL
     KL_NETWORK_VALID                      KL_NODENAME                           KL_NODE
     KL_EXTRSP_BUF                         KL_EXTRSP_BUF$                        KL_RD_NETCON
     KL_STATION                            B_VECTNIL

  ****  Segment refs  ****

  Flags:  r = read only, s = secondary
Flgs Name                             Flgs Name                             Flgs Name
     ISSID                                 NULLSID
PL6.E3A0      #004=KLI$FEGO File=KLI$FESET.:E05TSI                               WED 07/30/97 00:51 Page:121


      564        1        /*T***********************************************************/
      565        2        /*T*                                                         */
      566        3        /*T* Copyright (c) Bull HN Information Systems Inc., 1997    */
      567        4        /*T*                                                         */
      568        5        /*T***********************************************************/
      569        6        /**/
      570        7        /**/
      571        8        KLI$FEGO: PROC (FEX);

      8  4 000000   000000 700200 xent  KLI$FEGO     TSX0  ! X66_AUTO_1
         4 000001   000050 000001                    ZERO    40,1

      572        9        /**/
      573       10        /**/
      574       11        %INCLUDE KL_AFCN_C;
      575      112        %INCLUDE KL_ERRORS_C;
      576      154        %INCLUDE KL_MACRO_C;
      577     3506        %INCLUDE CP_6;
      578     3587        %INCLUDE KL_DATA_R;
      579     4051        %INCLUDE KL_CONFIG_M;
      580     4813        /**/
      581     4814        /**/
      582     4815    1   DCL FEX UBIN WORD;
      583     4816    1   DCL 1 VTXTC BASED ALIGNED,
      584     4817    1            2 C UBIN BYTE UNAL,
      585     4818    1            2 T CHAR(VTXTC.C);
      586     4819    1   DCL KL_BROADSZ UBIN WORD STATIC SYMDEF INIT(0);
      587     4820    1   DCL  UTSBUF UBIN STATIC;
      588     4821    1   DCL FUTS UBIN(36);
      589     4822    1   DCL SIZE UBIN;
      590     4823        %KL_SGNRSP(FPTN=SGNRSP,STCLASS=AUTO,RSPSIZ=80);
      591     4958        %KL_SETNODE(FPTN=SETNODE,STCLASS=STATIC,FCN=IGA_NODETBL);
      592     5004        %KL$NETWORK_KEY (STCLASS=CONSTANT);
      593     5021        %KL$NETWORK (STCLASS="BASED(KL_EXTRSP_BUF$)");
      594     5048    1   DCL ERR UBIN;
      595     5049    1   DCL KLH$SGNTXT ENTRY(2);
PL6.E3A0      #004=KLI$FEGO File=KLI$FESET.:E05TSI                               WED 07/30/97 00:51 Page:122
      596     5050    1   DCL I UBIN;
      597     5051    1   DCL KLX$9TO8 ENTRY(3);
      598     5052    1   DCL KLH$ERRMSG ENTRY(3);
      599     5053    1   DCL KLI$GETROUTES ENTRY;
      600     5054    1   DCL KLX$WRHLPNODE ENTRY(4) ALTRET;
      601     5055    1   DCL KLI$GETOSIROUTES ENTRY(1);
      602     5056    1   DCL KLI$GETFEPERA ENTRY(2);
      603     5057        /**/
      604     5058        /**/
      605     5059        %KL$ADMES (NAME=SALUTE,CODE=IGA_SSAL,STCLASS=CONSTANT,
      606     5060                   MSG=' ***CP-6 AT YOUR SERVICE! ');
      607     5066        %KL$ADMES (NAME=GO,CODE=IGA_GO,MSG='    ',STCLASS=CONSTANT);
      608     5072        %VLP_ERRCODE (FPTN=ERR_HDM,FCG=KL,MID=I,MON='1'B,ERR#=%E$HOSTDWNMSG,SEV=0,STCLASS=
              5072            CONSTANT);
      609     5117        /*E* ERROR: KLI-E$HOSTDWNMSG-0
      610     5118              MESSAGE: ** Host recovery in progress - Please stand by **
      611     5119         */
      612     5120        %VLP_ERRCODE (FPTN=ERR_LDM,FCG=KL,MID=I,MON='1'B,ERR#=%E$LINKDWNMSG,SEV=0,STCLASS=
              5120            CONSTANT);
      613     5165        /*E* ERROR: KLI-E$LINKDWNMSG-0
      614     5166              MESSAGE: ** Link recovery in progress - Please stand by **
      615     5167         */
      616     5168       %VLP_ERRCODE (FPTN=ERR_LPRMPT,FCG=KL,MID=I,MON='1'B,ERR#=%E$LOGONPRMT,SEV=0,STCLASS=
              5168            CONSTANT);
      617     5213        /*E* ERROR: KLI-E$LOGONPRMT-0
      618     5214             MESSAGE:Logon Please:
      619     5215         */
      620     5216        %VLP_ERRCODE (FPTN=ERR_HOSTRESUMED,FCG=KL,MID=I,MON='1'B,ERR#=%E$HOSTRESUMED,SEV=0,
              5216            STCLASS=CONSTANT);
      621     5261        /*E* ERROR: KLI-E$HOSTRESUMED-0
      622     5262             MESSAGE:*** Host service has been resumed ***
      623     5263         */
      624     5264        %VLP_ERRCODE (FPTN=ERR_LGNTIMEDOUT,FCG=KL,MID=I,MON='1'B,ERR#=%E$LGNTIMEDOUT,SEV=0,
              5264            STCLASS=CONSTANT);
      625     5309        /*E* ERROR: KLI-E$LGNTIMEDOUT-0
      626     5310             MESSAGE:Logon timed out
      627     5311         */
PL6.E3A0      #004=KLI$FEGO File=KLI$FESET.:E05TSI                               WED 07/30/97 00:51 Page:123
      628     5312        %VLP_ERRCODE (FPTN=ERR_NOLOGONMSG,FCG=KL,MID=I,MON='1'B,ERR#=%E$NOLOGONMSG,SEV=0,
              5312            STCLASS=CONSTANT);
      629     5357        /*E* ERROR: KLI-E$NOLOGONMSG-0
      630     5358             MESSAGE:Sorry, unable to log you on.
      631     5359         */
      632     5360        %VLP_ERRCODE (FPTN=ERR_HOSTNA,FCG=KL,MID=I,MON='1'B,ERR#=%E$NOHOST,SEV=0,STCLASS=
              5360            CONSTANT);
      633     5405        /*E* ERROR: KLI-E$NOHOST-0
      634     5406             MESSAGE: That host is currently not available.
      635     5407        */
      636     5408        %KL$ADMES (NAME=FEPW,CODE=IGA_SSPW,MSG='88888888',STCLASS=STATIC);
      637     5414        %KL_ADMES (NAME=USAL,STCLASS=STATIC,CODE=IGA_SSAL);
      638     5420        %KL_ADMES (NAME=KL_HDRMSG,STCLASS="STATIC SYMDEF",CODE=IGA_HDR,TYP=IGAT_SEND);
      639     5426        %KL_NODEINFO(FPTN=NODEINFO,STCLASS=STATIC,NODETYPE=HOST);
      640     5450        %KL_TIME (FPTN=TIME,STCLASS=STATIC);
      641     5474        /**/
      642     5475        /**/
      643     5476        %FPT_READ (FPTN=KL_RD_NETCON,STCLASS=SYMREF);
      644     5515    1   DCL KL_STATION CHAR(8) SYMREF;
      645     5516        %FPT_ACTIVATE (FPTN=FEACT,STCLASS=CONSTANT,DCB=M$HLP,STATION=KL_STATION);
      646     5539        %FPT_MONINFO (FPTN=GSAL,STCLASS=CONSTANT,SITEINFO=MSAL);
      647     5554        %VLR_SITEINFO (FPTN=MSAL,STCLASS=STATIC);
      648     5573        %FPT_TIME (SOURCE=CLOCK,TSTAMP=UTSBUF);
      649     5592        /**/
      650     5593        /**/
      651     5594    1        CALL M$ACTIVATE(FEACT)

   5594  4 000002   000022 630400 3                  EPPR0   FEACT
         4 000003   500000 713400                    CLIMB   alt,+32768
         4 000004   401400 401760                    pmme    nvectors=4
         4 000005   000007 702000 4                  TSX2    s:5596
         4 000006   000010 710000 4                  TRA     s:5598

      652     5595    2        WHENALTRETURN DO;

      653     5596    2             RETURN;

PL6.E3A0      #004=KLI$FEGO File=KLI$FESET.:E05TSI                               WED 07/30/97 00:51 Page:124
   5596  4 000007   000000 702200 xent               TSX2  ! X66_ARET

      654     5597    2           END;
      655     5598    1        IF KL_FETBL.BOSS(FEX)

   5598  4 000010   200003 470500                    LDP0    @FEX,,AUTO
         4 000011   000000 720100                    LXL0    0,,PR0
         4 000012   000000 236010 xsym               LDQ     KL_FETBL,X0
         4 000013   040000 316003                    CANQ    16384,DU
         4 000014   000632 600000 4                  TZE     s:5684

      656     5599    2        THEN DO;

      657     5600    2             USAL.CODE_ = IGA_SSAL;

   5600  4 000015   001000 236003                    LDQ     512,DU
         4 000016   000011 552040 2                  STBQ    USAL,'40'O

      658     5601    2             CALL M$MONINFO (GSAL) ALTRET (STDSAL);

   5601  4 000017   000042 630400 3                  EPPR0   GSAL
         4 000020   420023 713400                    CLIMB   alt,+8211
         4 000021   402400 401760                    pmme    nvectors=6
         4 000022   000751 702000 4                  TSX2    STDSAL

      659     5602    2             USAL.MSG_=ADDR(MSAL.SALUTATION#)->VTXTC.T;

   5602  4 000023   000155 236000 2                  LDQ     MSAL+31
         4 000024   000033 772000                    QRL     27
         4 000025   000000 620006                    EAX0    0,QL
         4 000026   040000 100440                    MLR     fill='040'O
         4 000027   000155 200010 2                  ADSC9   MSAL+31                  cn=1,n=*X0
         4 000030   000011 400172 2                  ADSC9   USAL                     cn=2,n=122

      660     5603    2             CALL KLX$WRHLPNODE(USAL,SIZEC(USAL),FEX);

   5603  4 000031   200003 236100                    LDQ     @FEX,,AUTO
PL6.E3A0      #004=KLI$FEGO File=KLI$FESET.:E05TSI                               WED 07/30/97 00:51 Page:125
         4 000032   200046 756100                    STQ     I+3,,AUTO
         4 000033   000002 237000 5                  LDAQ    2
         4 000034   200044 757100                    STAQ    I+1,,AUTO
         4 000035   200044 630500                    EPPR0   I+1,,AUTO
         4 000036   000021 631400 xsym               EPPR1   B_VECTNIL+17
         4 000037   000000 701000 xent               TSX1    KLX$WRHLPNODE
         4 000040   000000 011000                    NOP     0

   5602  4 000041                       WRSAL        null
      661     5604    2   WRSAL:    ;
      662     5605    2             SIZE = SIZEC(USAL.MSG_);

   5605  4 000041   000172 235007                    LDA     122,DL
         4 000042   200005 755100                    STA     SIZE,,AUTO

      663     5606    2             CALL KLH$ERRMSG(USAL.MSG_,SIZE,ERR_HDM);

   5606  4 000043   000001 236000 5                  LDQ     1
         4 000044   200046 756100                    STQ     I+3,,AUTO
         4 000045   200005 630500                    EPPR0   SIZE,,AUTO
         4 000046   200045 450500                    STP0    I+2,,AUTO
         4 000047   000004 236000 5                  LDQ     4
         4 000050   200044 756100                    STQ     I+1,,AUTO
         4 000051   200044 630500                    EPPR0   I+1,,AUTO
         4 000052   000021 631400 xsym               EPPR1   B_VECTNIL+17
         4 000053   000000 701000 xent               TSX1    KLH$ERRMSG
         4 000054   000000 011000                    NOP     0

      664     5607    2             USAL.CODE_ = IGA_SHDM;

   5607  4 000055   005000 236003                    LDQ     2560,DU
         4 000056   000011 552040 2                  STBQ    USAL,'40'O

      665     5608    2             CALL KLX$WRHLPNODE(USAL,SIZEC(USAL)-SIZEC(USAL.MSG_)+SIZE,FEX);

   5608  4 000057   200005 235100                    LDA     SIZE,,AUTO
         4 000060   000002 035007                    ADLA    2,DL
PL6.E3A0      #004=KLI$FEGO File=KLI$FESET.:E05TSI                               WED 07/30/97 00:51 Page:126
         4 000061   200044 755100                    STA     I+1,,AUTO
         4 000062   200003 236100                    LDQ     @FEX,,AUTO
         4 000063   200047 756100                    STQ     I+4,,AUTO
         4 000064   200044 630500                    EPPR0   I+1,,AUTO
         4 000065   200046 450500                    STP0    I+3,,AUTO
         4 000066   000002 236000 5                  LDQ     2
         4 000067   200045 756100                    STQ     I+2,,AUTO
         4 000070   200045 630500                    EPPR0   I+2,,AUTO
         4 000071   000021 631400 xsym               EPPR1   B_VECTNIL+17
         4 000072   000000 701000 xent               TSX1    KLX$WRHLPNODE
         4 000073   000000 011000                    NOP     0

      666     5609    2             SIZE = SIZEC(USAL.MSG_);

   5609  4 000074   000172 235007                    LDA     122,DL
         4 000075   200005 755100                    STA     SIZE,,AUTO

      667     5610    2             CALL KLH$ERRMSG(USAL.MSG_,SIZE,ERR_LDM);

   5610  4 000076   000005 236000 5                  LDQ     5
         4 000077   200046 756100                    STQ     I+3,,AUTO
         4 000100   200005 630500                    EPPR0   SIZE,,AUTO
         4 000101   200045 450500                    STP0    I+2,,AUTO
         4 000102   000004 236000 5                  LDQ     4
         4 000103   200044 756100                    STQ     I+1,,AUTO
         4 000104   200044 630500                    EPPR0   I+1,,AUTO
         4 000105   000021 631400 xsym               EPPR1   B_VECTNIL+17
         4 000106   000000 701000 xent               TSX1    KLH$ERRMSG
         4 000107   000000 011000                    NOP     0

      668     5611    2             USAL.CODE_ = IGA_LNKDWNMSG;

   5611  4 000110   030000 236003                    LDQ     12288,DU
         4 000111   000011 552040 2                  STBQ    USAL,'40'O

      669     5612    2             CALL KLX$WRHLPNODE(USAL,SIZEC(USAL)-SIZEC(USAL.MSG_)+SIZE,FEX);

PL6.E3A0      #004=KLI$FEGO File=KLI$FESET.:E05TSI                               WED 07/30/97 00:51 Page:127
   5612  4 000112   200005 235100                    LDA     SIZE,,AUTO
         4 000113   000002 035007                    ADLA    2,DL
         4 000114   200044 755100                    STA     I+1,,AUTO
         4 000115   200003 236100                    LDQ     @FEX,,AUTO
         4 000116   200047 756100                    STQ     I+4,,AUTO
         4 000117   200044 630500                    EPPR0   I+1,,AUTO
         4 000120   200046 450500                    STP0    I+3,,AUTO
         4 000121   000002 236000 5                  LDQ     2
         4 000122   200045 756100                    STQ     I+2,,AUTO
         4 000123   200045 630500                    EPPR0   I+2,,AUTO
         4 000124   000021 631400 xsym               EPPR1   B_VECTNIL+17
         4 000125   000000 701000 xent               TSX1    KLX$WRHLPNODE
         4 000126   000000 011000                    NOP     0

      670     5613    2             SIZE = SIZEC(USAL.MSG_);

   5613  4 000127   000172 235007                    LDA     122,DL
         4 000130   200005 755100                    STA     SIZE,,AUTO

      671     5614    2             CALL KLH$ERRMSG(USAL.MSG_,SIZE,ERR_LPRMPT);

   5614  4 000131   000006 236000 5                  LDQ     6
         4 000132   200046 756100                    STQ     I+3,,AUTO
         4 000133   200005 630500                    EPPR0   SIZE,,AUTO
         4 000134   200045 450500                    STP0    I+2,,AUTO
         4 000135   000004 236000 5                  LDQ     4
         4 000136   200044 756100                    STQ     I+1,,AUTO
         4 000137   200044 630500                    EPPR0   I+1,,AUTO
         4 000140   000021 631400 xsym               EPPR1   B_VECTNIL+17
         4 000141   000000 701000 xent               TSX1    KLH$ERRMSG
         4 000142   000000 011000                    NOP     0

      672     5615    2             USAL.CODE_ = IGA_LGNPRMPT;

   5615  4 000143   031000 236003                    LDQ     12800,DU
         4 000144   000011 552040 2                  STBQ    USAL,'40'O

PL6.E3A0      #004=KLI$FEGO File=KLI$FESET.:E05TSI                               WED 07/30/97 00:51 Page:128
      673     5616    2             CALL KLX$WRHLPNODE(USAL,SIZEC(USAL)-SIZEC(USAL.MSG_)+SIZE,FEX);

   5616  4 000145   200005 235100                    LDA     SIZE,,AUTO
         4 000146   000002 035007                    ADLA    2,DL
         4 000147   200044 755100                    STA     I+1,,AUTO
         4 000150   200003 236100                    LDQ     @FEX,,AUTO
         4 000151   200047 756100                    STQ     I+4,,AUTO
         4 000152   200044 630500                    EPPR0   I+1,,AUTO
         4 000153   200046 450500                    STP0    I+3,,AUTO
         4 000154   000002 236000 5                  LDQ     2
         4 000155   200045 756100                    STQ     I+2,,AUTO
         4 000156   200045 630500                    EPPR0   I+2,,AUTO
         4 000157   000021 631400 xsym               EPPR1   B_VECTNIL+17
         4 000160   000000 701000 xent               TSX1    KLX$WRHLPNODE
         4 000161   000000 011000                    NOP     0

      674     5617    2             SIZE = SIZEC(USAL.MSG_);

   5617  4 000162   000172 235007                    LDA     122,DL
         4 000163   200005 755100                    STA     SIZE,,AUTO

      675     5618    2             CALL KLH$ERRMSG(USAL.MSG_,SIZE,ERR_HOSTRESUMED);

   5618  4 000164   000007 236000 5                  LDQ     7
         4 000165   200046 756100                    STQ     I+3,,AUTO
         4 000166   200005 630500                    EPPR0   SIZE,,AUTO
         4 000167   200045 450500                    STP0    I+2,,AUTO
         4 000170   000004 236000 5                  LDQ     4
         4 000171   200044 756100                    STQ     I+1,,AUTO
         4 000172   200044 630500                    EPPR0   I+1,,AUTO
         4 000173   000021 631400 xsym               EPPR1   B_VECTNIL+17
         4 000174   000000 701000 xent               TSX1    KLH$ERRMSG
         4 000175   000000 011000                    NOP     0

      676     5619    2             USAL.CODE_ = IGA_HOSTRESUMED;

   5619  4 000176   007000 236003                    LDQ     3584,DU
PL6.E3A0      #004=KLI$FEGO File=KLI$FESET.:E05TSI                               WED 07/30/97 00:51 Page:129
         4 000177   000011 552040 2                  STBQ    USAL,'40'O

      677     5620    2             CALL KLX$WRHLPNODE(USAL,SIZEC(USAL)-SIZEC(USAL.MSG_)+SIZE,FEX);

   5620  4 000200   200005 235100                    LDA     SIZE,,AUTO
         4 000201   000002 035007                    ADLA    2,DL
         4 000202   200044 755100                    STA     I+1,,AUTO
         4 000203   200003 236100                    LDQ     @FEX,,AUTO
         4 000204   200047 756100                    STQ     I+4,,AUTO
         4 000205   200044 630500                    EPPR0   I+1,,AUTO
         4 000206   200046 450500                    STP0    I+3,,AUTO
         4 000207   000002 236000 5                  LDQ     2
         4 000210   200045 756100                    STQ     I+2,,AUTO
         4 000211   200045 630500                    EPPR0   I+2,,AUTO
         4 000212   000021 631400 xsym               EPPR1   B_VECTNIL+17
         4 000213   000000 701000 xent               TSX1    KLX$WRHLPNODE
         4 000214   000000 011000                    NOP     0

      678     5621    2             SIZE = SIZEC(USAL.MSG_);

   5621  4 000215   000172 235007                    LDA     122,DL
         4 000216   200005 755100                    STA     SIZE,,AUTO

      679     5622    2             CALL KLH$ERRMSG(USAL.MSG_,SIZE,ERR_LGNTIMEDOUT);

   5622  4 000217   000010 236000 5                  LDQ     8
         4 000220   200046 756100                    STQ     I+3,,AUTO
         4 000221   200005 630500                    EPPR0   SIZE,,AUTO
         4 000222   200045 450500                    STP0    I+2,,AUTO
         4 000223   000004 236000 5                  LDQ     4
         4 000224   200044 756100                    STQ     I+1,,AUTO
         4 000225   200044 630500                    EPPR0   I+1,,AUTO
         4 000226   000021 631400 xsym               EPPR1   B_VECTNIL+17
         4 000227   000000 701000 xent               TSX1    KLH$ERRMSG
         4 000230   000000 011000                    NOP     0

      680     5623    2             USAL.CODE_ = IGA_LGNTIMEDOUT;
PL6.E3A0      #004=KLI$FEGO File=KLI$FESET.:E05TSI                               WED 07/30/97 00:51 Page:130

   5623  4 000231   004000 236003                    LDQ     2048,DU
         4 000232   000011 552040 2                  STBQ    USAL,'40'O

      681     5624    2             CALL KLX$WRHLPNODE(USAL,SIZEC(USAL)-SIZEC(USAL.MSG_)+SIZE,FEX);

   5624  4 000233   200005 235100                    LDA     SIZE,,AUTO
         4 000234   000002 035007                    ADLA    2,DL
         4 000235   200044 755100                    STA     I+1,,AUTO
         4 000236   200003 236100                    LDQ     @FEX,,AUTO
         4 000237   200047 756100                    STQ     I+4,,AUTO
         4 000240   200044 630500                    EPPR0   I+1,,AUTO
         4 000241   200046 450500                    STP0    I+3,,AUTO
         4 000242   000002 236000 5                  LDQ     2
         4 000243   200045 756100                    STQ     I+2,,AUTO
         4 000244   200045 630500                    EPPR0   I+2,,AUTO
         4 000245   000021 631400 xsym               EPPR1   B_VECTNIL+17
         4 000246   000000 701000 xent               TSX1    KLX$WRHLPNODE
         4 000247   000000 011000                    NOP     0

      682     5625    2             SIZE = SIZEC(USAL.MSG_);

   5625  4 000250   000172 235007                    LDA     122,DL
         4 000251   200005 755100                    STA     SIZE,,AUTO

      683     5626    2             CALL KLH$ERRMSG(USAL.MSG_,SIZE,ERR_NOLOGONMSG);

   5626  4 000252   000011 236000 5                  LDQ     9
         4 000253   200046 756100                    STQ     I+3,,AUTO
         4 000254   200005 630500                    EPPR0   SIZE,,AUTO
         4 000255   200045 450500                    STP0    I+2,,AUTO
         4 000256   000004 236000 5                  LDQ     4
         4 000257   200044 756100                    STQ     I+1,,AUTO
         4 000260   200044 630500                    EPPR0   I+1,,AUTO
         4 000261   000021 631400 xsym               EPPR1   B_VECTNIL+17
         4 000262   000000 701000 xent               TSX1    KLH$ERRMSG
         4 000263   000000 011000                    NOP     0
PL6.E3A0      #004=KLI$FEGO File=KLI$FESET.:E05TSI                               WED 07/30/97 00:51 Page:131

      684     5627    2             USAL.CODE_ = IGA_NOLOGONMSG;

   5627  4 000264   012000 236003                    LDQ     5120,DU
         4 000265   000011 552040 2                  STBQ    USAL,'40'O

      685     5628    2             CALL KLX$WRHLPNODE(USAL,SIZEC(USAL)-SIZEC(USAL.MSG_)+SIZE,FEX);

   5628  4 000266   200005 235100                    LDA     SIZE,,AUTO
         4 000267   000002 035007                    ADLA    2,DL
         4 000270   200044 755100                    STA     I+1,,AUTO
         4 000271   200003 236100                    LDQ     @FEX,,AUTO
         4 000272   200047 756100                    STQ     I+4,,AUTO
         4 000273   200044 630500                    EPPR0   I+1,,AUTO
         4 000274   200046 450500                    STP0    I+3,,AUTO
         4 000275   000002 236000 5                  LDQ     2
         4 000276   200045 756100                    STQ     I+2,,AUTO
         4 000277   200045 630500                    EPPR0   I+2,,AUTO
         4 000300   000021 631400 xsym               EPPR1   B_VECTNIL+17
         4 000301   000000 701000 xent               TSX1    KLX$WRHLPNODE
         4 000302   000000 011000                    NOP     0

      686     5629    2             SIZE = SIZEC(USAL.MSG_);

   5629  4 000303   000172 235007                    LDA     122,DL
         4 000304   200005 755100                    STA     SIZE,,AUTO

      687     5630    2             CALL KLH$ERRMSG(USAL.MSG_,SIZE,ERR_HOSTNA);

   5630  4 000305   000012 236000 5                  LDQ     10
         4 000306   200046 756100                    STQ     I+3,,AUTO
         4 000307   200005 630500                    EPPR0   SIZE,,AUTO
         4 000310   200045 450500                    STP0    I+2,,AUTO
         4 000311   000004 236000 5                  LDQ     4
         4 000312   200044 756100                    STQ     I+1,,AUTO
         4 000313   200044 630500                    EPPR0   I+1,,AUTO
         4 000314   000021 631400 xsym               EPPR1   B_VECTNIL+17
PL6.E3A0      #004=KLI$FEGO File=KLI$FESET.:E05TSI                               WED 07/30/97 00:51 Page:132
         4 000315   000000 701000 xent               TSX1    KLH$ERRMSG
         4 000316   000000 011000                    NOP     0

      688     5631    2             USAL.CODE_ = IGA_HOSTNA;

   5631  4 000317   115000 236003                    LDQ     39424,DU
         4 000320   000011 552040 2                  STBQ    USAL,'40'O

      689     5632    2             CALL KLX$WRHLPNODE(USAL,SIZEC(USAL)-SIZEC(USAL.MSG_)+SIZE,FEX);

   5632  4 000321   200005 235100                    LDA     SIZE,,AUTO
         4 000322   000002 035007                    ADLA    2,DL
         4 000323   200044 755100                    STA     I+1,,AUTO
         4 000324   200003 236100                    LDQ     @FEX,,AUTO
         4 000325   200047 756100                    STQ     I+4,,AUTO
         4 000326   200044 630500                    EPPR0   I+1,,AUTO
         4 000327   200046 450500                    STP0    I+3,,AUTO
         4 000330   000002 236000 5                  LDQ     2
         4 000331   200045 756100                    STQ     I+2,,AUTO
         4 000332   200045 630500                    EPPR0   I+2,,AUTO
         4 000333   000021 631400 xsym               EPPR1   B_VECTNIL+17
         4 000334   000000 701000 xent               TSX1    KLX$WRHLPNODE
         4 000335   000000 011000                    NOP     0

      690     5633
      691     5634    2             ERR = %E$SGSYN;

   5634  4 000336   002275 235007                    LDA     1213,DL
         4 000337   200042 755100                    STA     ERR,,AUTO

      692     5635    2             CALL KLH$SGNTXT(SGNRSP,ERR);

   5635  4 000340   200042 630500                    EPPR0   ERR,,AUTO
         4 000341   200045 450500                    STP0    I+2,,AUTO
         4 000342   200006 631500                    EPPR1   SGNRSP,,AUTO
         4 000343   200044 451500                    STP1    I+1,,AUTO
         4 000344   200044 630500                    EPPR0   I+1,,AUTO
PL6.E3A0      #004=KLI$FEGO File=KLI$FESET.:E05TSI                               WED 07/30/97 00:51 Page:133
         4 000345   000020 631400 xsym               EPPR1   B_VECTNIL+16
         4 000346   000000 701000 xent               TSX1    KLH$SGNTXT
         4 000347   000000 011000                    NOP     0

      693     5636    2             USAL.CODE_ = IGA_SGSYN;

   5636  4 000350   122000 236003                    LDQ     41984,DU
         4 000351   000011 552040 2                  STBQ    USAL,'40'O

      694     5637    2             USAL.MSG_ = SGNRSP.MESSAGE.RSPTXT;

   5637  4 000352   040000 100500                    MLR     fill='040'O
         4 000353   200016 000120                    ADSC9   SGNRSP+8,,AUTO           cn=0,n=80
         4 000354   000011 400172 2                  ADSC9   USAL                     cn=2,n=122

      695     5638    2            CALL KLX$WRHLPNODE(USAL,SIZEC(USAL)-SIZEC(USAL.MSG_)+SGNRSP.MESSAGE.RSPSIZ
              5638                      ,FEX);

   5638  4 000355   200015 236100                    LDQ     SGNRSP+7,,AUTO
         4 000356   000777 376007                    ANQ     511,DL
         4 000357   000002 036007                    ADLQ    2,DL
         4 000360   200044 756100                    STQ     I+1,,AUTO
         4 000361   200003 236100                    LDQ     @FEX,,AUTO
         4 000362   200047 756100                    STQ     I+4,,AUTO
         4 000363   200044 630500                    EPPR0   I+1,,AUTO
         4 000364   200046 450500                    STP0    I+3,,AUTO
         4 000365   000002 236000 5                  LDQ     2
         4 000366   200045 756100                    STQ     I+2,,AUTO
         4 000367   200045 630500                    EPPR0   I+2,,AUTO
         4 000370   000021 631400 xsym               EPPR1   B_VECTNIL+17
         4 000371   000000 701000 xent               TSX1    KLX$WRHLPNODE
         4 000372   000000 011000                    NOP     0

      696     5639    2             ERR = %E$UDHOST;

   5639  4 000373   002304 235007                    LDA     1220,DL
         4 000374   200042 755100                    STA     ERR,,AUTO
PL6.E3A0      #004=KLI$FEGO File=KLI$FESET.:E05TSI                               WED 07/30/97 00:51 Page:134

      697     5640    2             CALL KLH$SGNTXT(SGNRSP,ERR);

   5640  4 000375   200042 630500                    EPPR0   ERR,,AUTO
         4 000376   200045 450500                    STP0    I+2,,AUTO
         4 000377   200006 631500                    EPPR1   SGNRSP,,AUTO
         4 000400   200044 451500                    STP1    I+1,,AUTO
         4 000401   200044 630500                    EPPR0   I+1,,AUTO
         4 000402   000020 631400 xsym               EPPR1   B_VECTNIL+16
         4 000403   000000 701000 xent               TSX1    KLH$SGNTXT
         4 000404   000000 011000                    NOP     0

      698     5641    2             USAL.CODE_ = IGA_UDHOST;

   5641  4 000405   124000 236003                    LDQ     43008,DU
         4 000406   000011 552040 2                  STBQ    USAL,'40'O

      699     5642    2             USAL.MSG_ = SGNRSP.MESSAGE.RSPTXT;

   5642  4 000407   040000 100500                    MLR     fill='040'O
         4 000410   200016 000120                    ADSC9   SGNRSP+8,,AUTO           cn=0,n=80
         4 000411   000011 400172 2                  ADSC9   USAL                     cn=2,n=122

      700     5643    2            CALL KLX$WRHLPNODE(USAL,SIZEC(USAL)-SIZEC(USAL.MSG_)+SGNRSP.MESSAGE.RSPSIZ
              5643                      ,FEX);

   5643  4 000412   200015 236100                    LDQ     SGNRSP+7,,AUTO
         4 000413   000777 376007                    ANQ     511,DL
         4 000414   000002 036007                    ADLQ    2,DL
         4 000415   200044 756100                    STQ     I+1,,AUTO
         4 000416   200003 236100                    LDQ     @FEX,,AUTO
         4 000417   200047 756100                    STQ     I+4,,AUTO
         4 000420   200044 630500                    EPPR0   I+1,,AUTO
         4 000421   200046 450500                    STP0    I+3,,AUTO
         4 000422   000002 236000 5                  LDQ     2
         4 000423   200045 756100                    STQ     I+2,,AUTO
         4 000424   200045 630500                    EPPR0   I+2,,AUTO
PL6.E3A0      #004=KLI$FEGO File=KLI$FESET.:E05TSI                               WED 07/30/97 00:51 Page:135
         4 000425   000021 631400 xsym               EPPR1   B_VECTNIL+17
         4 000426   000000 701000 xent               TSX1    KLX$WRHLPNODE
         4 000427   000000 011000                    NOP     0

      701     5644    2             ERR = %E$BDID;

   5644  4 000430   002267 235007                    LDA     1207,DL
         4 000431   200042 755100                    STA     ERR,,AUTO

      702     5645    2             CALL KLH$SGNTXT(SGNRSP,ERR);

   5645  4 000432   200042 630500                    EPPR0   ERR,,AUTO
         4 000433   200045 450500                    STP0    I+2,,AUTO
         4 000434   200006 631500                    EPPR1   SGNRSP,,AUTO
         4 000435   200044 451500                    STP1    I+1,,AUTO
         4 000436   200044 630500                    EPPR0   I+1,,AUTO
         4 000437   000020 631400 xsym               EPPR1   B_VECTNIL+16
         4 000440   000000 701000 xent               TSX1    KLH$SGNTXT
         4 000441   000000 011000                    NOP     0

      703     5646    2             USAL.CODE_ = IGA_BDID;

   5646  4 000442   125000 236003                    LDQ     43520,DU
         4 000443   000011 552040 2                  STBQ    USAL,'40'O

      704     5647    2             USAL.MSG_ = SGNRSP.MESSAGE.RSPTXT;

   5647  4 000444   040000 100500                    MLR     fill='040'O
         4 000445   200016 000120                    ADSC9   SGNRSP+8,,AUTO           cn=0,n=80
         4 000446   000011 400172 2                  ADSC9   USAL                     cn=2,n=122

      705     5648    2            CALL KLX$WRHLPNODE(USAL,SIZEC(USAL)-SIZEC(USAL.MSG_)+SGNRSP.MESSAGE.RSPSIZ
              5648                      ,FEX);

   5648  4 000447   200015 236100                    LDQ     SGNRSP+7,,AUTO
         4 000450   000777 376007                    ANQ     511,DL
         4 000451   000002 036007                    ADLQ    2,DL
PL6.E3A0      #004=KLI$FEGO File=KLI$FESET.:E05TSI                               WED 07/30/97 00:51 Page:136
         4 000452   200044 756100                    STQ     I+1,,AUTO
         4 000453   200003 236100                    LDQ     @FEX,,AUTO
         4 000454   200047 756100                    STQ     I+4,,AUTO
         4 000455   200044 630500                    EPPR0   I+1,,AUTO
         4 000456   200046 450500                    STP0    I+3,,AUTO
         4 000457   000002 236000 5                  LDQ     2
         4 000460   200045 756100                    STQ     I+2,,AUTO
         4 000461   200045 630500                    EPPR0   I+2,,AUTO
         4 000462   000021 631400 xsym               EPPR1   B_VECTNIL+17
         4 000463   000000 701000 xent               TSX1    KLX$WRHLPNODE
         4 000464   000000 011000                    NOP     0

      706     5649    2             SETNODE.FCN = IGA_NODETBL;

   5649  4 000465   121000 236003                    LDQ     41472,DU
         4 000466   000002 552040 2                  STBQ    SETNODE,'40'O

      707     5650    2             KL_NETWORK_VALID = '0'B;

   5650  4 000467   000000 450000 xsym               STZ     KL_NETWORK_VALID

      708     5651    2             KL_RD_NETCON.BUF_ = VECTOR(KL_EXTRSP_BUF);

   5651  4 000470   000014 237000 5                  LDAQ    12
         4 000471   000004 757000 xsym               STAQ    KL_RD_NETCON+4

      709     5652    2             KL_RD_NETCON.KEY_ = VECTOR(KL$NETWORK_KEY);

   5652  4 000472   000016 237000 5                  LDAQ    14
         4 000473   000002 757000 xsym               STAQ    KL_RD_NETCON+2

      710     5653    2             CALL M$READ (KL_RD_NETCON)

   5653  4 000474   000000 630400 xsym               EPPR0   KL_RD_NETCON
         4 000475   440000 713400                    CLIMB   alt,read
         4 000476   401400 401760                    pmme    nvectors=4
         4 000477   000567 702000 4                  TSX2    s:5677
PL6.E3A0      #004=KLI$FEGO File=KLI$FESET.:E05TSI                               WED 07/30/97 00:51 Page:137

      711     5654    3             WHENRETURN DO;

      712     5655    4                  DO I = 0 TO KL$NETWORK.NODE#;

   5655  4 000500   200043 450100                    STZ     I,,AUTO
         4 000501   000562 710000 4                  TRA     s:5674+3

      713     5656    4                       SETNODE.NODE# = I;

   5656  4 000502   200043 235100                    LDA     I,,AUTO
         4 000503   000003 755000 2                  STA     SETNODE+1

      714     5657    4                       SETNODE.NODE_NAME = KL$NETWORK.NODE.NODE(I);

   5657  4 000504   200043 236100                    LDQ     I,,AUTO
         4 000505   000024 402007                    MPY     20,DL
         4 000506   000000 470400 xsym               LDP0    KL_EXTRSP_BUF$
         4 000507   040000 100506                    MLR     fill='040'O
         4 000510   000002 000010                    ADSC9   2,Q,PR0                  cn=0,n=8
         4 000511   000004 000010 2                  ADSC9   SETNODE+2                cn=0,n=8

      715     5658    4                       SETNODE.MY_NODE = '0'B;

   5658  4 000512   000020 236000 5                  LDQ     16
         4 000513   000002 356000 2                  ANSQ    SETNODE

      716     5659    5                       DO CASE (KL$NETWORK.NODE.TYPE(I));

   5659  4 000514   200043 236100                    LDQ     I,,AUTO
         4 000515   000005 402007                    MPY     5,DL
         4 000516   000001 235106                    LDA     1,QL,PR0
         4 000517   000005 115007                    CMPA    5,DL
         4 000520   000522 602005 4                  TNC     s:5659+6,AL
         4 000521   000540 710000 4                  TRA     s:5671
         4 000522   000535 710000 4                  TRA     s:5668
         4 000523   000527 710000 4                  TRA     s:5662
PL6.E3A0      #004=KLI$FEGO File=KLI$FESET.:E05TSI                               WED 07/30/97 00:51 Page:138
         4 000524   000532 710000 4                  TRA     s:5665
         4 000525   000527 710000 4                  TRA     s:5662
         4 000526   000532 710000 4                  TRA     s:5665

      717     5660
      718     5661    5                       CASE (%KL_NODETYPE_HOST,%KL_NODETYPE_ME);

      719     5662    5                          SETNODE.HOST_NODE = '1'B;

   5662  4 000527   000100 236007                    LDQ     64,DL
         4 000530   000002 256000 2                  ORSQ    SETNODE
         4 000531   000540 710000 4                  TRA     s:5671

      720     5663
      721     5664    5                       CASE (%KL_NODETYPE_FEP,%KL_NODETYPE_DEBUG);

      722     5665    5                          SETNODE.HOST_NODE = '0'B;

   5665  4 000532   000021 236000 5                  LDQ     17
         4 000533   000002 356000 2                  ANSQ    SETNODE
         4 000534   000540 710000 4                  TRA     s:5671

      723     5666
      724     5667    5                       CASE (%KL_NODETYPE_UNDEF);

      725     5668    5                          SETNODE.NODE_NAME = ' ';

   5668  4 000535   000035 235000 xsym               LDA     B_VECTNIL+29
         4 000536   000035 236000 xsym               LDQ     B_VECTNIL+29
         4 000537   000004 757000 2                  STAQ    SETNODE+2

      726     5669
      727     5670    5                       END;

      728     5671    4                       IF KL$NETWORK.NODE.TYPE(I) = %KL_NODETYPE_HOST OR

   5671  4 000540   200043 236100                    LDQ     I,,AUTO
PL6.E3A0      #004=KLI$FEGO File=KLI$FESET.:E05TSI                               WED 07/30/97 00:51 Page:139
         4 000541   000005 402007                    MPY     5,DL
         4 000542   000001 235106                    LDA     1,QL,PR0
         4 000543   000001 115007                    CMPA    1,DL
         4 000544   000547 600000 4                  TZE     s:5673
         4 000545   000003 115007                    CMPA    3,DL
         4 000546   000557 601000 4                  TNZ     s:5674

      729     5672    4                            KL$NETWORK.NODE.TYPE(I) = %KL_NODETYPE_ME THEN
      730     5673    4                            CALL KLX$WRHLPNODE(SETNODE,SIZEC(SETNODE),FEX);

   5673  4 000547   200003 236100                    LDQ     @FEX,,AUTO
         4 000550   200046 756100                    STQ     I+3,,AUTO
         4 000551   000024 237000 5                  LDAQ    20
         4 000552   200044 757100                    STAQ    I+1,,AUTO
         4 000553   200044 630500                    EPPR0   I+1,,AUTO
         4 000554   000021 631400 xsym               EPPR1   B_VECTNIL+17
         4 000555   000000 701000 xent               TSX1    KLX$WRHLPNODE
         4 000556   000000 011000                    NOP     0

      731     5674    4                     END;

   5674  4 000557   200043 235100                    LDA     I,,AUTO
         4 000560   000001 035007                    ADLA    1,DL
         4 000561   200043 755100                    STA     I,,AUTO
         4 000562   000000 470400 xsym               LDP0    KL_EXTRSP_BUF$
         4 000563   000000 236100                    LDQ     0,,PR0
         4 000564   200043 116100                    CMPQ    I,,AUTO
         4 000565   000502 603000 4                  TRC     s:5656

      732     5675    3                END;                       /* end whenreturn*/

   5675  4 000566   000601 710000 4                  TRA     s:5680

      733     5676    3             WHENALTRETURN DO;

      734     5677    3                  SETNODE.INVALID = '1'B;

PL6.E3A0      #004=KLI$FEGO File=KLI$FESET.:E05TSI                               WED 07/30/97 00:51 Page:140
   5677  4 000567   000040 236007                    LDQ     32,DL
         4 000570   000002 256000 2                  ORSQ    SETNODE

      735     5678    3                  CALL KLX$WRHLPNODE(SETNODE,SIZEC(SETNODE),FEX);

   5678  4 000571   200003 236100                    LDQ     @FEX,,AUTO
         4 000572   200046 756100                    STQ     I+3,,AUTO
         4 000573   000024 237000 5                  LDAQ    20
         4 000574   200044 757100                    STAQ    I+1,,AUTO
         4 000575   200044 630500                    EPPR0   I+1,,AUTO
         4 000576   000021 631400 xsym               EPPR1   B_VECTNIL+17
         4 000577   000000 701000 xent               TSX1    KLX$WRHLPNODE
         4 000600   000000 011000                    NOP     0

      736     5679    3                END;

      737     5680    2             CALL KLI$GETOSIROUTES(FEX);

   5680  4 000601   200003 630500                    EPPR0   @FEX,,AUTO
         4 000602   000017 631400 xsym               EPPR1   B_VECTNIL+15
         4 000603   000000 701000 xent               TSX1    KLI$GETOSIROUTES
         4 000604   000000 011000                    NOP     0

      738     5681    2             CALL KLX$WRHLPNODE(FEPW,SIZEC(FEPW),FEX);

   5681  4 000605   200003 236100                    LDQ     @FEX,,AUTO
         4 000606   200046 756100                    STQ     I+3,,AUTO
         4 000607   000026 237000 5                  LDAQ    22
         4 000610   200044 757100                    STAQ    I+1,,AUTO
         4 000611   200044 630500                    EPPR0   I+1,,AUTO
         4 000612   000021 631400 xsym               EPPR1   B_VECTNIL+17
         4 000613   000000 701000 xent               TSX1    KLX$WRHLPNODE
         4 000614   000000 011000                    NOP     0

      739     5682    2             CALL KLX$WRHLPNODE(KL_HDRMSG,KL_BROADSZ+LENGTHC(KL_HDRMSG)-LENGTHC(
              5682                      KL_HDRMSG.MSG_),FEX);

PL6.E3A0      #004=KLI$FEGO File=KLI$FESET.:E05TSI                               WED 07/30/97 00:51 Page:141
   5682  4 000615   000000 235000 2                  LDA     KL_BROADSZ
         4 000616   000002 035007                    ADLA    2,DL
         4 000617   200044 755100                    STA     I+1,,AUTO
         4 000620   200003 236100                    LDQ     @FEX,,AUTO
         4 000621   200047 756100                    STQ     I+4,,AUTO
         4 000622   200044 630500                    EPPR0   I+1,,AUTO
         4 000623   200046 450500                    STP0    I+3,,AUTO
         4 000624   000023 236000 5                  LDQ     19
         4 000625   200045 756100                    STQ     I+2,,AUTO
         4 000626   200045 630500                    EPPR0   I+2,,AUTO
         4 000627   000021 631400 xsym               EPPR1   B_VECTNIL+17
         4 000630   000000 701000 xent               TSX1    KLX$WRHLPNODE
         4 000631   000000 011000                    NOP     0

      740     5683    2           END;

      741     5684    1        NODEINFO.MYNODE = KL_NODE;

   5684  4 000632   000000 236000 xsym               LDQ     KL_NODE
         4 000633   000033 736000                    QLS     27
         4 000634   000110 552040 2                  STBQ    NODEINFO+1,'40'O

      742     5685    1        NODEINFO.MYNAME = KL_NODENAME;

   5685  4 000635   040000 100400                    MLR     fill='040'O
         4 000636   000000 000010 xsym               ADSC9   KL_NODENAME              cn=0,n=8
         4 000637   000110 200010 2                  ADSC9   NODEINFO+1               cn=1,n=8

      743     5686    1        IF KL_FETBL.BOSS(FEX)

   5686  4 000640   200003 470500                    LDP0    @FEX,,AUTO
         4 000641   000000 720100                    LXL0    0,,PR0
         4 000642   000000 236010 xsym               LDQ     KL_FETBL,X0
         4 000643   040000 316003                    CANQ    16384,DU
         4 000644   000650 600000 4                  TZE     s:5690

      744     5687    1        THEN
PL6.E3A0      #004=KLI$FEGO File=KLI$FESET.:E05TSI                               WED 07/30/97 00:51 Page:142
      745     5688    1             NODEINFO.BOSS = 1;

   5688  4 000645   001000 236007                    LDQ     512,DL
         4 000646   000107 552010 2                  STBQ    NODEINFO,'10'O
         4 000647   000652 710000 4                  TRA     s:5691

      746     5689    1        ELSE
      747     5690    1             NODEINFO.BOSS = 0;

   5690  4 000650   000000 236003                    LDQ     0,DU
         4 000651   000107 552010 2                  STBQ    NODEINFO,'10'O

      748     5691    1        CALL KLX$WRHLPNODE (NODEINFO,SIZEC(NODEINFO),FEX);

   5691  4 000652   200003 236100                    LDQ     @FEX,,AUTO
         4 000653   200046 756100                    STQ     I+3,,AUTO
         4 000654   000030 237000 5                  LDAQ    24
         4 000655   200044 757100                    STAQ    I+1,,AUTO
         4 000656   200044 630500                    EPPR0   I+1,,AUTO
         4 000657   000021 631400 xsym               EPPR1   B_VECTNIL+17
         4 000660   000000 701000 xent               TSX1    KLX$WRHLPNODE
         4 000661   000000 011000                    NOP     0

      749     5692    1        IF KL_FETBL.LINK_CONNECT(FEX) THEN

   5692  4 000662   200003 470500                    LDP0    @FEX,,AUTO
         4 000663   000000 720100                    LXL0    0,,PR0
         4 000664   000000 236010 xsym               LDQ     KL_FETBL,X0
         4 000665   200000 316003                    CANQ    65536,DU
         4 000666   000672 600000 4                  TZE     s:5694

      750     5693    1             CALL KLI$GETROUTES;

   5693  4 000667   000002 631400 xsym               EPPR1   B_VECTNIL+2
         4 000670   000000 701000 xent               TSX1    KLI$GETROUTES
         4 000671   000000 011000                    NOP     0

PL6.E3A0      #004=KLI$FEGO File=KLI$FESET.:E05TSI                               WED 07/30/97 00:51 Page:143
      751     5694    1        IF KL_FETBL.BOSS(FEX) THEN

   5694  4 000672   200003 470500                    LDP0    @FEX,,AUTO
         4 000673   000000 720100                    LXL0    0,,PR0
         4 000674   000000 236010 xsym               LDQ     KL_FETBL,X0
         4 000675   040000 316003                    CANQ    16384,DU
         4 000676   000750 600000 4                  TZE     WDN

      752     5695    2        DO;

      753     5696    2             CALL M$TIME (FPT_TIME);

   5696  4 000677   000214 630400 2                  EPPR0   FPT_TIME
         4 000700   020004 713400                    CLIMB   8196
         4 000701   402000 401760                    pmme    nvectors=5

      754     5697                 /*
      755     5698                 **convert time to 1/25 uts
      756     5699                 **convert 1/25s uts to feputs
      757     5700                 */
      758     5701    2             CALL KLI$GETFEPERA(UTSBUF,FUTS);

   5701  4 000702   200004 630500                    EPPR0   FUTS,,AUTO
         4 000703   200045 450500                    STP0    I+2,,AUTO
         4 000704   000032 236000 5                  LDQ     26
         4 000705   200044 756100                    STQ     I+1,,AUTO
         4 000706   200044 630500                    EPPR0   I+1,,AUTO
         4 000707   000020 631400 xsym               EPPR1   B_VECTNIL+16
         4 000710   000000 701000 xent               TSX1    KLI$GETFEPERA
         4 000711   000000 011000                    NOP     0

      759     5702                 /*
      760     5703                 **move era bits(2,3) into 32 bit range.  reduces resolution
      761     5704                 **but avoids having to use two field to send value to fep.
      762     5705                 */
      763     5706    2             FUTS = (FUTS+2)/4;

PL6.E3A0      #004=KLI$FEGO File=KLI$FESET.:E05TSI                               WED 07/30/97 00:51 Page:144
   5706  4 000712   200004 236100                    LDQ     FUTS,,AUTO
         4 000713   000002 036007                    ADLQ    2,DL
         4 000714   000002 772000                    QRL     2
         4 000715   200004 756100                    STQ     FUTS,,AUTO

      764     5707    2             CALL KLX$9TO8(FUTS,TIME.UTS,4);

   5707  4 000716   000033 236000 5                  LDQ     27
         4 000717   200046 756100                    STQ     I+3,,AUTO
         4 000720   000034 236000 5                  LDQ     28
         4 000721   200045 756100                    STQ     I+2,,AUTO
         4 000722   200004 630500                    EPPR0   FUTS,,AUTO
         4 000723   200044 450500                    STP0    I+1,,AUTO
         4 000724   200044 630500                    EPPR0   I+1,,AUTO
         4 000725   000021 631400 xsym               EPPR1   B_VECTNIL+17
         4 000726   000000 701000 xent               TSX1    KLX$9TO8
         4 000727   000000 011000                    NOP     0

      765     5708    2             CALL KLX$WRHLPNODE (TIME,SIZEC(TIME),FEX);

   5708  4 000730   200003 236100                    LDQ     @FEX,,AUTO
         4 000731   200046 756100                    STQ     I+3,,AUTO
         4 000732   000036 237000 5                  LDAQ    30
         4 000733   200044 757100                    STAQ    I+1,,AUTO
         4 000734   200044 630500                    EPPR0   I+1,,AUTO
         4 000735   000021 631400 xsym               EPPR1   B_VECTNIL+17
         4 000736   000000 701000 xent               TSX1    KLX$WRHLPNODE
         4 000737   000000 011000                    NOP     0

      766     5709    2             CALL KLX$WRHLPNODE (GO,SIZEC(GO),FEX);

   5709  4 000740   200003 236100                    LDQ     @FEX,,AUTO
         4 000741   200046 756100                    STQ     I+3,,AUTO
         4 000742   000040 237000 5                  LDAQ    32
         4 000743   200044 757100                    STAQ    I+1,,AUTO
         4 000744   200044 630500                    EPPR0   I+1,,AUTO
         4 000745   000021 631400 xsym               EPPR1   B_VECTNIL+17
PL6.E3A0      #004=KLI$FEGO File=KLI$FESET.:E05TSI                               WED 07/30/97 00:51 Page:145
         4 000746   000000 701000 xent               TSX1    KLX$WRHLPNODE
         4 000747   000000 011000                    NOP     0

      767     5710    2           END;

   5708  4 000750                       WDN          null
      768     5711    1   WDN: ;
      769     5712    1        RETURN;

   5712  4 000750   000000 702200 xent               TSX2  ! X66_ARET

   5708  4 000751                       STDSAL       null
      770     5713    1   STDSAL:;
      771     5714    1        CALL KLX$WRHLPNODE(SALUTE,SIZEC(SALUTE),FEX);

   5714  4 000751   200003 236100                    LDQ     @FEX,,AUTO
         4 000752   200046 756100                    STQ     I+3,,AUTO
         4 000753   000044 237000 5                  LDAQ    36
         4 000754   200044 757100                    STAQ    I+1,,AUTO
         4 000755   200044 630500                    EPPR0   I+1,,AUTO
         4 000756   000021 631400 xsym               EPPR1   B_VECTNIL+17
         4 000757   000000 701000 xent               TSX1    KLX$WRHLPNODE
         4 000760   000000 011000                    NOP     0

      772     5715    1        GOTO WRSAL;

   5715  4 000761   000041 710000 4                  TRA     WRSAL
      773     5716        /**/
      774     5717    1   END;
      775     5718        /**/
      776     5719        /**/
      777     5720        %EOD;

PL6.E3A0      #004=KLI$FEGO File=KLI$FESET.:E05TSI                               WED 07/30/97 00:51 Page:146
--  Include file information  --

   KL_CONFIG_M.:E05TOU  is referenced.
   KL_NETWORK_M.:E05TOU  is referenced.
   OC$MESSHD_C.:E05TOU  is referenced.
   KL_DATA_R.:E05TOU  cannot be made into a system file and is referenced.
   CP_6.:E05TOU  cannot be made into a system file and is referenced.
   KL_MACRO_C.:E05TOU  is referenced.
   KL_ERRORS_C.:E05TOU  is referenced.
   KL_AFCN_C.:E05TOU  is referenced.
   B$JIT_C.:E05TOU  was found in the system file and is never referenced.
   CP_6_C.:E05TOU  was found in the system file and is referenced.
      No diagnostics issued in procedure KLI$FEGO.
PL6.E3A0      #004=KLI$FEGO File=KLI$FESET.:E05TSI                               WED 07/30/97 00:51 Page:147

 **** Variables and constants ****

  ****  Section 002  Data  KLI$FEGO

  ****  Scalars and arrays  ****
OctLoc.c.b A Datatyp(siz) R M Lvl/name                 OctLoc.c.b A Datatyp(siz) R M Lvl/name

     6-0-0/c STRC(90)    r     1 FEPW                     214-0-0/d STRC(432)   r     1 FPT_TIME
     0-0-0/w UBIN        r     1 KL_BROADSZ                50-0-0/w STRC(1116)  r     1 KL_HDRMSG
   116-0-0/d STRC(2232)  r     1 MSAL                     107-0-0/w STRC(117)   r     1 NODEINFO
     2-0-0/w STRC(144)   r     1 SETNODE                  113-0-0/w STRC(45)    r     1 TIME
    11-0-0/w STRC(1116)  r     1 USAL                       1-0-0/w UBIN        r     1 UTSBUF

  ****  Section 003 RoData KLI$FEGO

  ****  Scalars and arrays  ****
OctLoc.c.b A Datatyp(siz) R M Lvl/name                 OctLoc.c.b A Datatyp(siz) R M Lvl/name

    12-0-0/w STRC        r     1 ERR_HDM                   20-0-0/w STRC        r     1 ERR_HOSTNA
    15-0-0/w STRC        r     1 ERR_HOSTRESUMED           13-0-0/w STRC        r     1 ERR_LDM
    16-0-0/w STRC        r     1 ERR_LGNTIMEDOUT           14-0-0/w STRC        r     1 ERR_LPRMPT
    17-0-0/w STRC        r     1 ERR_NOLOGONMSG            22-0-0/d STRC(576)   r     1 FEACT
    10-0-0/c STRC(54)    r     1 GO                        42-0-0/d STRC(432)   r     1 GSAL
     0-0-0/w STRC(18)    r     1 KL$NETWORK_KEY             1-0-0/c STRC(252)   r     1 SALUTE

  ****  Auto variables  ****

  ****  Scalars and arrays  ****
OctLoc.c.b A Datatyp(siz) R M Lvl/name                 OctLoc.c.b A Datatyp(siz) R M Lvl/name

     3-0-0/w PTR         r     1 @FEX                      42-0-0/w UBIN        r     1 ERR
    *0-0-0/w UBIN        r     1 FEX                        4-0-0/w UBIN        r     1 FUTS
    43-0-0/w UBIN        r     1 I                          6-0-0/w STRC(1008)  r     1 SGNRSP
     5-0-0/w UBIN        r     1 SIZE

  ****  SYMREF variables  ****

PL6.E3A0      #004=KLI$FEGO File=KLI$FESET.:E05TSI                               WED 07/30/97 00:51 Page:148
  ****  Scalars and arrays  ****
OctLoc.c.b A Datatyp(siz) R M Lvl/name                 OctLoc.c.b A Datatyp(siz) R M Lvl/name

     0-0-0/w UBIN        r     1 KL_EXTRSP_BUF(0:1499)
     0-0-0/w PTR         r     1 KL_EXTRSP_BUF$
     0-0-0/w STRC        r     1 KL_FETBL(0:0)
     0-0-0/b BIT         r     1 KL_NETWORK_VALID           0-0-0/w UBIN        r     1 KL_NODE
     0-0-0/c CHAR(8)     r     1 KL_NODENAME                0-0-0/d STRC(504)   r     1 KL_RD_NETCON
     0-0-0/c CHAR(8)     r     1 KL_STATION

  ****  BASED and DCB variables  ****

  ****  Scalars and arrays  ****
OctLoc.c.b A Datatyp(siz) R M Lvl/name                 OctLoc.c.b A Datatyp(siz) R M Lvl/name

     0-0-0/w STRC(216)   r     1 KL$NETWORK                 0-0-0N  NULL        r     1 M$HLP
     0-0-0/w ASTR(9)     r     1 VTXTC


   Procedure KLI$FEGO requires 498 words for executable code.
   Procedure KLI$FEGO requires 40 words of local(AUTO) storage.
PL6.E3A0      #004=KLI$FEGO File=KLI$FESET.:E05TSI                               WED 07/30/97 00:51 Page:149
          *** CROSS REFERENCE LISTING ***
**     DENOTES     IDENTIFIER DEFINITION
<<                 IDENTIFIER'S VALUE SET
>>                 IDENTIFIER'S VALUE USED
<>                 IDENTIFIER SET AND/OR USED
--                 IDENTIFIER REFERENCED
PL6.E3A0      #004=KLI$FEGO File=KLI$FESET.:E05TSI                               WED 07/30/97 00:51 Page:150
          MINI XREF LISTING

ERR
      5048**DCL      5634<<ASSIGN   5635<>CALL     5639<<ASSIGN   5640<>CALL     5644<<ASSIGN   5645<>CALL
ERR_HDM
      5084**DCL      5606<>CALL
ERR_HOSTNA
      5372**DCL      5630<>CALL
ERR_HOSTRESUMED
      5228**DCL      5618<>CALL
ERR_LDM
      5132**DCL      5610<>CALL
ERR_LGNTIMEDOUT
      5276**DCL      5622<>CALL
ERR_LPRMPT
      5180**DCL      5614<>CALL
ERR_NOLOGONMSG
      5324**DCL      5626<>CALL
FEACT
      5527**DCL      5594<>CALL
FEACT.V
      5528**DCL      5527--DCLINIT
FEACT.V.DVBYTE.REREAD#
      5530**DCL      5530--REDEF
FEPW
      5409**DCL      5681<>CALL     5681--CALL
FEX
      4815**DCL         8--PROC     5598>>IF       5603<>CALL     5608<>CALL     5612<>CALL     5616<>CALL
      5620<>CALL     5624<>CALL     5628<>CALL     5632<>CALL     5638<>CALL     5643<>CALL     5648<>CALL
      5673<>CALL     5678<>CALL     5680<>CALL     5681<>CALL     5682<>CALL     5686>>IF       5691<>CALL
      5692>>IF       5694>>IF       5708<>CALL     5709<>CALL     5714<>CALL
FPT_TIME
      5584**DCL      5696<>CALL
FPT_TIME.V
PL6.E3A0      #004=KLI$FEGO File=KLI$FESET.:E05TSI                               WED 07/30/97 00:51 Page:151
      5588**DCL      5584--DCLINIT
FUTS
      4821**DCL      5701<>CALL     5706<<ASSIGN   5706>>ASSIGN   5707<>CALL
GO
      5067**DCL      5709<>CALL     5709--CALL
GSAL
      5550**DCL      5601<>CALL
I
      5050**DCL      5655<<DOINDEX  5656>>ASSIGN   5657>>ASSIGN   5659>>DOCASE   5671>>IF       5671>>IF
KL$NETWORK.NODE.NODE
      5043**DCL      5657>>ASSIGN
KL$NETWORK.NODE.TYPE
      5040**DCL      5659>>DOCASE   5671>>IF       5671>>IF
KL$NETWORK.NODE#
      5035**DCL      5655>>DOINDEX
KL$NETWORK_KEY
      5017**DCL      5652--ASSIGN
KLH$ERRMSG
      5052**DCL-ENT  5606--CALL     5610--CALL     5614--CALL     5618--CALL     5622--CALL     5626--CALL
      5630--CALL
KLH$SGNTXT
      5049**DCL-ENT  5635--CALL     5640--CALL     5645--CALL
KLI$GETFEPERA
      5056**DCL-ENT  5701--CALL
KLI$GETOSIROUTES
      5055**DCL-ENT  5680--CALL
KLI$GETROUTES
      5053**DCL-ENT  5693--CALL
KLX$9TO8
      5051**DCL-ENT  5707--CALL
KLX$WRHLPNODE
      5054**DCL-ENT  5603--CALL     5608--CALL     5612--CALL     5616--CALL     5620--CALL     5624--CALL
      5628--CALL     5632--CALL     5638--CALL     5643--CALL     5648--CALL     5673--CALL     5678--CALL
      5681--CALL     5682--CALL     5691--CALL     5708--CALL     5709--CALL     5714--CALL
KL_AUTOFAIL.FLAGS
      3891**DCL      3892--REDEF
PL6.E3A0      #004=KLI$FEGO File=KLI$FESET.:E05TSI                               WED 07/30/97 00:51 Page:152
KL_AUTOFAIL.MSGID
      3887**DCL      3888--REDEF
KL_AUTOFAIL.WSN
      3894**DCL      3895--REDEF
KL_BROADSZ
      4819**DCL      5682>>CALL
KL_EXTRSP_BUF
      4047**DCL      5651--ASSIGN
KL_EXTRSP_BUF$
      4048**DCL      5034--IMP-PTR  5655>>DOINDEX  5657>>ASSIGN   5659>>DOCASE   5671>>IF       5671>>IF
KL_FEMSG.FLAGS
      3841**DCL      3842--REDEF
KL_FEMSG.MSGID
      3837**DCL      3838--REDEF
KL_FEMSG.WSN
      3844**DCL      3845--REDEF
KL_FETBL.BOSS
      3784**DCL      5598>>IF       5686>>IF       5694>>IF
KL_FETBL.LINK_CONNECT
      3782**DCL      5692>>IF
KL_HDRMSG
      5421**DCL      5682<>CALL     5682--CALL
KL_HDRMSG.MSG_
      5424**DCL      5682--CALL
KL_NETWORK_BUF.TERMINAL_ID.TERM
      4031**DCL      4040--REDEF
KL_NETWORK_KEY.KEY.TERMID.TERM
      3957**DCL      3966--REDEF
KL_NETWORK_VALID
      3820**DCL      5650<<ASSIGN
KL_NODE
      3822**DCL      5684>>ASSIGN
KL_NODENAME
      3821**DCL      5685>>ASSIGN
KL_RDBF.FEL#
      3800**DCL      3801--REDEF
PL6.E3A0      #004=KLI$FEGO File=KLI$FESET.:E05TSI                               WED 07/30/97 00:51 Page:153
KL_RD_NETCON
      5493**DCL      5653<>CALL
KL_RD_NETCON.BUF_
      5495**DCL      5651<<ASSIGN
KL_RD_NETCON.KEY_
      5493**DCL      5652<<ASSIGN
KL_RD_NETCON.STATION_
      5496**DCL      5497--REDEF
KL_RD_NETCON.V.DVBYTE.REREAD#
      5508**DCL      5508--REDEF
KL_RD_NETCON.V.INDX#
      5506**DCL      5506--REDEF
KL_STATION
      5515**DCL      5527--DCLINIT
KL_TMSG.FLAGS
      3863**DCL      3864--REDEF
KL_TMSG.MSGID
      3859**DCL      3860--REDEF
KL_TMSG.WSN
      3866**DCL      3867--REDEF
M$ACTIVATE
      3535**DCL-ENT  5594--CALL
M$MONINFO
      3583**DCL-ENT  5601--CALL
M$READ
      3516**DCL-ENT  5653--CALL
M$TIME
      3582**DCL-ENT  5696--CALL
MSAL
      5565**DCL      5550--DCLINIT
MSAL.SALUTATION#
      5566**DCL      5602--ASSIGN   5602--ASSIGN
NODEINFO
      5441**DCL      5691<>CALL     5691--CALL
NODEINFO.BOSS
      5445**DCL      5688<<ASSIGN   5690<<ASSIGN
PL6.E3A0      #004=KLI$FEGO File=KLI$FESET.:E05TSI                               WED 07/30/97 00:51 Page:154
NODEINFO.MYNAME
      5448**DCL      5685<<ASSIGN
NODEINFO.MYNODE
      5447**DCL      5684<<ASSIGN
SALUTE
      5061**DCL      5714<>CALL     5714--CALL
SETNODE
      4973**DCL      5673<>CALL     5673--CALL     5678<>CALL     5678--CALL
SETNODE.FCN
      4974**DCL      5649<<ASSIGN
SETNODE.HOST_NODE
      4985**DCL      5662<<ASSIGN   5665<<ASSIGN
SETNODE.INVALID
      4989**DCL      5677<<ASSIGN
SETNODE.MY_NODE
      4980**DCL      5658<<ASSIGN
SETNODE.NODE#
      4997**DCL      5656<<ASSIGN
SETNODE.NODE_NAME
      5001**DCL      5657<<ASSIGN   5668<<ASSIGN
SGNRSP
      4838**DCL      5635<>CALL     5640<>CALL     5645<>CALL
SGNRSP.MESSAGE.RSPSIZ
      4955**DCL      5638>>CALL     5643>>CALL     5648>>CALL
SGNRSP.MESSAGE.RSPTXT
      4956**DCL      5637>>ASSIGN   5642>>ASSIGN   5647>>ASSIGN
SGNRSP.NMID
      4851**DCL      4854--REDEF
SGNRSP.TERMID.TERM
      4941**DCL      4950--REDEF
SIZE
      4822**DCL      5605<<ASSIGN   5606<>CALL     5608>>CALL     5609<<ASSIGN   5610<>CALL     5612>>CALL
      5613<<ASSIGN   5614<>CALL     5616>>CALL     5617<<ASSIGN   5618<>CALL     5620>>CALL     5621<<ASSIGN
      5622<>CALL     5624>>CALL     5625<<ASSIGN   5626<>CALL     5628>>CALL     5629<<ASSIGN   5630<>CALL
      5632>>CALL
STDSAL
PL6.E3A0      #004=KLI$FEGO File=KLI$FESET.:E05TSI                               WED 07/30/97 00:51 Page:155
      5708**LABEL    5601--CALLALT
TIME
      5465**DCL      5708<>CALL     5708--CALL
TIME.UTS
      5470**DCL      5707<>CALL
USAL
      5415**DCL      5603<>CALL     5603--CALL     5608<>CALL     5608--CALL     5612<>CALL     5612--CALL
      5616<>CALL     5616--CALL     5620<>CALL     5620--CALL     5624<>CALL     5624--CALL     5628<>CALL
      5628--CALL     5632<>CALL     5632--CALL     5638<>CALL     5638--CALL     5643<>CALL     5643--CALL
      5648<>CALL     5648--CALL
USAL.CODE_
      5416**DCL      5600<<ASSIGN   5607<<ASSIGN   5611<<ASSIGN   5615<<ASSIGN   5619<<ASSIGN   5623<<ASSIGN
      5627<<ASSIGN   5631<<ASSIGN   5636<<ASSIGN   5641<<ASSIGN   5646<<ASSIGN
USAL.MSG_
      5418**DCL      5602<<ASSIGN   5605--ASSIGN   5606<>CALL     5608--CALL     5609--ASSIGN   5610<>CALL
      5612--CALL     5613--ASSIGN   5614<>CALL     5616--CALL     5617--ASSIGN   5618<>CALL     5620--CALL
      5621--ASSIGN   5622<>CALL     5624--CALL     5625--ASSIGN   5626<>CALL     5628--CALL     5629--ASSIGN
      5630<>CALL     5632--CALL     5637<<ASSIGN   5638--CALL     5642<<ASSIGN   5643--CALL     5647<<ASSIGN
      5648--CALL
UTSBUF
      4820**DCL      5588--DCLINIT  5701<>CALL
VTXTC.C
      4817**DCL      4818--IMP-SIZ  5602>>ASSIGN
VTXTC.T
      4818**DCL      5602>>ASSIGN
WRSAL
      5602**LABEL    5715--GOTO

