VERSION E05

PL6.E3A0      #001=KL_DATA_D File=KL_DATA_D.:E05TSI                              WED 07/30/97 00:54 Page:1
        1        1        /*M* KL_DATA_D Data for host logon processor */
        2        2        /*T***********************************************************/
        3        3        /*T*                                                         */
        4        4        /*T* Copyright (c) Bull HN Information Systems Inc., 1997    */
        5        5        /*T*                                                         */
        6        6        /*T***********************************************************/
        7        7        /*X*DMC,PLM=6,IND=2,ENU=2,DCI=4,CSU=2,ECU=2,THI=2,DTI=0*/
        8        8        /**/
        9        9        /**/
       10       10        KL_DATA_D: PROC NOAUTO;
       11       11        /**/
       12       12        /**/
       13       13        %INCLUDE CP_6;
       14       94        %INCLUDE KL_MACRO_C;
       15     3446        %INCLUDE KL_NETWORK_M;
       16     3604        %INCLUDE KC$CGBLK;
       17     3652        %INCLUDE KL_SUPER_C;
       18     6554        %INCLUDE JG_EVID_C;
       19     6779        %INCLUDE KI_SUBS_C;
       20     6915        %INCLUDE KL_SUBS_C;
       21     6969        %INCLUDE OC_MESSHD_C;
       22     7022        %INCLUDE OC_SUBS_C;
       23     7753        /**/
       24     7754        /**/
       25     7755    1   DCL M$HLP DCB;
       26     7756    1   DCL M$CSCG DCB;
       27     7757    1   DCL M$HLPF DCB;
       28     7758    1   DCL M$NETCON DCB;
       29     7759    1   DCL M$NETWORK DCB;
       30     7760    1   DCL M$PROF DCB;
       31     7761    1   DCL M$WSNF DCB;
       32     7762    1   DCL KL_MXFE UBIN WORD STATIC SYMDEF INIT(16);
       33     7763    1   DCL KL_NODES UBIN STATIC SYMDEF INIT(0);
       34     7764    1   DCL KL_HOPCOST UBIN STATIC SYMDEF INIT(10);  /* Hop cost through this node */
       35     7765    1   DCL KL_NETWORK_VALID BIT(1) STATIC SYMDEF INIT('0'B);
       36     7766    1   DCL 1 KL_FETBL (0:255) STATIC SYMDEF ALIGNED,
       37     7767    1         2 HOST_NODE BIT(1) UNAL INIT('0'B*0),
PL6.E3A0      #001=KL_DATA_D File=KL_DATA_D.:E05TSI                              WED 07/30/97 00:54 Page:2
       38     7768    1         2 LINK_CONNECT BIT(1) UNAL INIT('0'B*0),
       39     7769    1         2 ACTIVE BIT(1) UNAL INIT('0'B*0),
       40     7770    1         2 BOSS BIT(1) UNAL INIT('1'B*0),
       41     7771    1         2 DEBUG BIT(1) UNAL INIT('0'B*0),
       42     7772    1         2 LINK_ACTIVE BIT(1) UNAL INIT('0'B*0),
       43     7773    1         2 KTYP UBIN(3) UNAL INIT(%KLKT_NONE#*0),
       44     7774    1         2 QOS UBIN BYTE UNAL INIT(255*0),
       45     7775    1         2 * UBIN HALF UNAL INIT(0*0);
       46     7776        %KL_PCD(FPTN=KL_PCD,CG=1,STCLASS="STATIC SYMDEF");
       47     7941    1   DCL KL_HLPR CHAR(2048) STATIC SYMDEF DALIGNED;
       48     7942    1   DCL KL_HLPR$ PTR STATIC SYMDEF INIT(ADDR(KL_HLPR));
       49     7943    1   DCL KL_STATION CHAR(8) STATIC SYMDEF INIT('   ');
       50     7944    1   DCL KL_MSGTYP CHAR(8) STATIC SYMDEF;
       51     7945        %VLR_PATHCON(FPTN=VLR_PATHCON,STCLASS="STATIC SYMDEF");
       52     7959    1   DCL KL_PROBUF CHAR(2048) STATIC SYMDEF DALIGNED;
       53     7960    1   DCL KL_HLPFILS UBIN WORD STATIC SYMDEF INIT(0);
       54     7961    1   DCL KL_ROUTEOPEN UBIN WORD STATIC SYMDEF INIT(0);
       55     7962    1   DCL KL_MAXFEI# UBIN WORD STATIC SYMDEF INIT(0);
              7962            /* number of feis configured in tigr*/
       56     7963    1   DCL KL_OSIMAX# UBIN WORD STATIC SYMDEF INIT(0); /* # of osiroutes from tigr*/
       57     7964    1   DCL KL_OSIROUTE$ PTR STATIC SYMDEF INIT(ADDR(NIL));
              7964            /* ptr to osiroute ptr array in tigr data*/
       58     7965    1   DCL KL_NWF UBIN WORD STATIC SYMDEF INIT(0);  /* count of failed writes to :network*/
       59     7966    1   DCL KL_NRF UBIN WORD STATIC SYMDEF INIT(0);  /* count of failed reads to :network*/
       60     7967    1   DCL KL_RDBF CHAR(2048) STATIC SYMDEF ALIGNED;
       61     7968    1   DCL KL_RDBF$ PTR CONSTANT SYMDEF INIT(ADDR(KL_RDBF));
       62     7969    1   DCL 1 KL_FEPW STATIC SYMDEF,
       63     7970    1         2 CNT UBIN BYTE UNAL INIT(3),
       64     7971    1         2 T1 CHAR(1) UNAL INIT('!'),
       65     7972    1         2 BEEP BIT(18) UNAL INIT('007007'O),
       66     7973    1         2 * CHAR(4) UNAL INIT(' ');
       67     7974    1   DCL KL_MARS UBIN WORD STATIC SYMDEF;
       68     7975    1   DCL 1 KL_MSGID STATIC SYMDEF,                 /* Unique value to attach to   */
       69     7976    1         2 * BIT(4) UNAL INIT('0'B),             /* messages destined for       */
       70     7977    1         2 N UBIN(32) UNAL INIT(0);              /* other nodes.                */
       71     7978    1   DCL KL_NODENAME CHAR(8) STATIC SYMDEF INIT(' ');    /* Node name for us */
       72     7979    1   DCL KL_NODE UBIN STATIC SYMDEF INIT(0);       /* Node number of this host         */
PL6.E3A0      #001=KL_DATA_D File=KL_DATA_D.:E05TSI                              WED 07/30/97 00:54 Page:3
       73     7980    1   DCL KL_NMNODE UBIN STATIC SYMDEF INIT(0);     /* Node number of the network       */
       74     7981                                                      /* manager's host                   */
       75     7982    1   DCL KL_DESTNODE UBIN STATIC SYMDEF INIT(0);   /* Node number of the current logon */
       76     7983                                                      /* destination host. That is, which */
       77     7984                                                      /* host to log on to                */
       78     7985    1   DCL KL_LGNPND$ PTR STATIC SYMDEF INIT(ADDR(NIL));
              7985            /* Head pointer to list of logons   */
       79     7986    1   DCL KL_RSPPND$ PTR STATIC SYMDEF INIT(ADDR(NIL));    /* Head pointer to list */
       80     7987                                                             /* pending responses    */
       81     7988                                                      /* pending response from the logon  */
       82     7989                                                      /* destination's host.              */
       83     7990        %OC_MESSHD_W (NAME=KL_FEMSG,STCLASS="ALIGNED STATIC SYMDEF",NPARMS=4,ATR=M_COMM);
       84     8003    1         2 FCNT UBIN(9) UNAL INIT(1),
       85     8004    1         2 PBCNT UBIN(9) UNAL INIT(1),
       86     8005    1         2 STCNT UBIN(9) UNAL INIT(1),
       87     8006    1         2 NMCNT UBIN(9) UNAL INIT(8),
       88     8007    1         2 FEX UBIN(9) UNAL INIT(0),
       89     8008    1         2 PROB UBIN(9) UNAL INIT(0),
       90     8009    1         2 STATE UBIN(9) UNAL INIT(0),
       91     8010    1         2 NAME CHAR(8) UNAL INIT(' ');
       92     8011        %OC_MESSHD_W (NAME=KL_TMSG,STCLASS="ALIGNED STATIC SYMDEF",NPARMS=7,MSG=TSON_MSG#,
              8011            ATR=M_ADCOM);
       93     8024    1         2 FCNT UBIN(9) UNAL INIT(LENGTHC(KL_TMSG.FEX)),
       94     8025    1         2 LCNT UBIN(9) UNAL INIT(LENGTHC(KL_TMSG.LN#)),
       95     8026    1         2 SCNT UBIN(9) UNAL INIT(LENGTHC(KL_TMSG.SID)),
       96     8027    1         2 ACNT UBIN(9) UNAL INIT(LENGTHC(KL_TMSG.ACCT)),
       97     8028    1         2 NCNT UBIN(9) UNAL INIT(LENGTHC(KL_TMSG.NME)),
       98     8029    1         2 UNCNT UBIN(9) UNAL INIT(LENGTHC(KL_TMSG.UNM)),
       99     8030    1         2 FNMCNT UBIN(9) UNAL INIT(LENGTHC(KL_TMSG.FEPNAME)),
      100     8031    1         2 FEX UBIN(9) UNAL INIT(0),
      101     8032    1         2 LN# UBIN(18) UNAL INIT(0),
      102     8033    1         2 SID UBIN(18) UNAL INIT(0),
      103     8034    1         2 ACCT CHAR(8) UNAL INIT(' '),
      104     8035    1         2 NME CHAR(15) UNAL INIT(' '),
      105     8036    1         2 UNM UBIN(18) UNAL INIT(0),
      106     8037    1         2 FEPNAME CHAR(8) UNAL INIT(' ');
      107     8038        %OC_MESSHD_W (NAME=KL_AUTOFAIL,STCLASS="ALIGNED STATIC SYMDEF",NPARMS=7,ATR=M_COMM,
PL6.E3A0      #001=KL_DATA_D File=KL_DATA_D.:E05TSI                              WED 07/30/97 00:54 Page:4
              8038            MSG=AUTOFAIL_MSG#);
      108     8051    1         2 * UBIN BYTE CALIGNED INIT(1),
      109     8052    1         2 * UBIN BYTE CALIGNED INIT(8),
      110     8053    1         2 * UBIN BYTE CALIGNED INIT(2),
      111     8054    1         2 * UBIN BYTE CALIGNED INIT(1),
      112     8055    1         2 * UBIN BYTE CALIGNED INIT(2),
      113     8056    1         2 * UBIN BYTE CALIGNED INIT(2),
      114     8057    1         2 * UBIN BYTE CALIGNED INIT(2),
      115     8058    1         2 FEX UBIN BYTE CALIGNED,
      116     8059    1         2 FEPNAME CHAR(8) CALIGNED,
      117     8060    1         2 REASON UBIN HALF CALIGNED,
      118     8061    1         2 LEVEL UBIN BYTE CALIGNED,
      119     8062    1         2 CHANNEL BIT(18) CALIGNED,
      120     8063    1         2 SUBDEV BIT(18) CALIGNED,
      121     8064    1         2 SUBSUBDEV BIT(18) CALIGNED;
      122     8065    1   DCL 1 KL_HLPKEY STATIC SYMDEF DALIGNED,
      123     8066    1         2 CNT UBIN BYTE UNAL,
      124     8067    1         2 ACCT CHAR(8) UNAL,
      125     8068    1         2 NAME CHAR(12) UNAL;
      126     8069    1   DCL 1 KL_PROKEY STATIC SYMDEF DALIGNED,
      127     8070    1         2 C UBIN BYTE UNAL,
      128     8071    1         2 T CHAR(11) UNAL,
      129     8072    1         2 IMP# UBIN BYTE UNAL;
      130     8073        /**/
      131     8074        /**/
      132     8075        %FPT_PATHCON(FPTN=FPT_PATHCON,STCLASS="STATIC SYMDEF",
      133     8076              RESULTS=VLR_PATHCON);
      134     8091        %FPT_READ (FPTN=KL_RDHLP,STCLASS="CONSTANT SYMDEF",DCB=M$HLP,
      135     8092                   BUF=KL_RDBF,WAIT=NO,EVENT=KL_FERD#);
      136     8131        %FPT_WRITE (FPTN=KL_WKYN,STCLASS="CONSTANT SYMDEF",DCB=M$CSCG,
      137     8132                    BUF=KL_FEMSG);
      138     8163        %FPT_READ (FPTN=KL_RDHLPR,STCLASS="CONSTANT SYMDEF",DCB=M$HLPF,BUF=KL_HLPR,
      139     8164                   KEYS=YES,KEY=KL_HLPKEY);
      140     8203        %FPT_READ (FPTN=KL_RDPROR,STCLASS="CONSTANT SYMDEF",DCB=M$PROF,BUF=KL_PROBUF,
      141     8204                   KEYS=YES,KEY=KL_PROKEY);
      142     8243        %FPT_READ (FPTN=KL_RD_NETCON,DCB=M$NETCON,KEYS=YES,STCLASS="STATIC SYMDEF");
      143     8282        %FPT_WRITE (FPTN=KL_WR_NETCON,DCB=M$NETCON,STCLASS="STATIC SYMDEF");
PL6.E3A0      #001=KL_DATA_D File=KL_DATA_D.:E05TSI                              WED 07/30/97 00:54 Page:5
      144     8313        %FPT_READ (FPTN=KL_RD_NETWORK,
      145     8314                   DCB=M$NETWORK,
      146     8315                   STCLASS="STATIC SYMDEF",
      147     8316                   BUF=KL_NETWORK_BUF,
      148     8317                  KEYS=YES,
      149     8318                   KEYR=YES,
      150     8319                   KEY=KL_NETWORK_KEY);
      151     8358        %FPT_WRITE (FPTN=KL_WR_NETWORK,
      152     8359                   DCB=M$NETWORK,
      153     8360                   STCLASS="STATIC SYMDEF",
      154     8361                   BUF=KL_NETWORK_BUF,
      155     8362                   KEY=KL_NETWORK_KEY);
      156     8393        %FPT_DELREC (FPTN=KL_DR_NETWORK,DCB=M$NETWORK,KEY=KL_NETWORK_KEY,STCLASS=
              8393            "STATIC SYMDEF");
      157     8412        %FPT_TIME (FPTN=KL_NETWORK_TIME,STCLASS="CONSTANT SYMDEF",
      158     8413                   SOURCE=CLOCK,
      159     8414                   DEST=UTS,
      160     8415                   TSTAMP="KL_NETWORK_BUF.UTS");
      161     8434        %KL_LINE_KEY (FPTN=KL_NETWORK_KEY,STCLASS="STATIC SYMDEF");
      162     8484        %KL_TERM_KEY (FPTN=KL_NETWORK_TERMKEY,STCLASS="STATIC SYMDEF");
      163     8505        %KL_TERMREC (FPTN=KL_NETWORK_BUF,STCLASS="STATIC SYMDEF");
      164     8561        %FPT_PRECORD(FPTN=KL_PR_NETWORK,
      165     8562                      DCB=M$NETWORK,
      166     8563                      STCLASS="STATIC SYMDEF",
      167     8564                      KEYS=YES,
      168     8565                      KEYR=YES,
      169     8566                      KEY=KL_NETWORK_KEY,
      170     8567                      N=1);
      171     8588
      172     8589        %FPT_WRITE (FPTN=WRT_FROG,
      173     8590                       STCLASS="CONSTANT SYMDEF",
      174     8591                       BUF=KL_FROG,
      175     8592                       STATION=FRG_STA,
      176     8593                       DCB=M$CSCG,
      177     8594                       WAIT=YES);
      178     8625        %FPT_WRITE (FPTN=WRT_NA2FROG,
      179     8626                       STCLASS="STATIC SYMDEF",
PL6.E3A0      #001=KL_DATA_D File=KL_DATA_D.:E05TSI                              WED 07/30/97 00:54 Page:6
      180     8627                       STATION=FRG_STA,
      181     8628                       DCB=M$CSCG,
      182     8629                       WAIT=YES);
      183     8660        %VLP_STATION (FPTN=FRG_STA,STCLASS=CONSTANT,STATION='FROG');
      184     8687        %KL_FROG (STCLASS="STATIC SYMDEF");
      185     8705        /**/
      186     8706        /**/
      187     8707    1   DCL NULSTA CHAR(8) CONSTANT INIT(' ');
      188     8708        /**/
      189     8709    1   DCL KL_EXTRSP_BUF(0:1499) UBIN WORD STATIC SYMDEF INIT(0*0);
      190     8710    1   DCL KL_EXTRSP_BUF$ PTR STATIC SYMDEF INIT(ADDR(KL_EXTRSP_BUF));
      191     8711        /**/
      192     8712    1   END;
      193     8713        /**/
      194     8714        /**/

PL6.E3A0      #001=KL_DATA_D File=KL_DATA_D.:E05TSI                              WED 07/30/97 00:54 Page:7
--  Include file information  --

   OC_SUBS_C.:E05TOU  is referenced.
   OC_MESSHD_C.:E05TOU  is referenced.
   KL_SUBS_C.:E05TOU  is referenced.
   KI_SUBS_C.:E05TOU  is referenced.
   JG_EVID_C.:E05TOU  is referenced.
   KL_SUPER_C.:E05TOU  is referenced.
   KC$CGBLK.:E05TOU  is referenced.
   KL_NETWORK_M.:E05TOU  is referenced.
   KL_MACRO_C.:E05TOU  is referenced.
   CP_6.:E05TOU  cannot be made into a system file and is referenced.
   B$JIT_C.:E05TOU  was found in the system file and is never referenced.
   CP_6_C.:E05TOU  was found in the system file and is referenced.
      No diagnostics issued in procedure KL_DATA_D.

   No code generated for procedure KL_DATA_D .
   Procedure KL_DATA_D is declared NOAUTO and requires 3562 words of local(STATIC) storage.

    No errors detected in file KL_DATA_D.:E05TSI    .

PL6.E3A0      #001=KL_DATA_D File=KL_DATA_D.:E05TSI                              WED 07/30/97 00:54 Page:8

 Object Unit name= KL_DATA_D                                  File name= KL_DATA_D.:E05TOU
 UTS= JUL 30 '97 00:54:45.84 WED                              Compiler= PL-6/E31         Sev=      00
 SharedLib= :SHARED_SYSTEM                                    Alt SharedLib=


    ****  Control sections  ****

 Sect   Type Bound  Init  Size OctSiz  Section name(segment info)
    0   Data  even  none  3562   6752  KL_DATA_D
    1   DCB   even  none     0      0  M$UC
    2   DCB   even  none     0      0  M$HLP
    3   DCB   even  none     0      0  M$CSCG
    4   DCB   even  none     0      0  M$HLPF
    5   DCB   even  none     0      0  M$NETCON
    6   DCB   even  none     0      0  M$NETWORK
    7   DCB   even  none     0      0  M$PROF
    8   DCB   even  none     0      0  M$WSNF
    9  RoData even  UTS     90    132  KL_DATA_D
   10   Proc  even  none     0      0  KL_DATA_D

    ****  Entry defs  ****

                              Check   Calling
                             calling  sequence
  Sect OctLoc Primary Altret sequence   type   Parms  Name
    10      0   yes            yes     ~proc       0  KL_DATA_D
PL6.E3A0      #001=KL_DATA_D File=KL_DATA_D.:E05TSI                              WED 07/30/97 00:54 Page:9

  ****  Data defs  ****

 Sect OctLoc  Name                           Sect OctLoc  Name
    0      1  KL_MXFE                            0      2  KL_NODES
    0      3  KL_HOPCOST                         0      4  KL_NETWORK_VALID
    0      5  KL_FETBL                           0    405  KL_PCD
    0    512  KL_HLPR                            0   1512  KL_HLPR$
    0   1513  KL_STATION                         0   1515  KL_MSGTYP
    0   1520  VLR_PATHCON                        0   1522  KL_PROBUF
    0   2522  KL_HLPFILS                         0   2523  KL_ROUTEOPEN
    0   2524  KL_MAXFEI#                         0   2525  KL_OSIMAX#
    0   2526  KL_OSIROUTE$                       0   2527  KL_NWF
    0   2530  KL_NRF                             0   2531  KL_RDBF
    9      0  KL_RDBF$                           0   3531  KL_FEPW
    0   3533  KL_MARS                            0   3534  KL_MSGID
    0   3535  KL_NODENAME                        0   3537  KL_NODE
    0   3540  KL_NMNODE                          0   3541  KL_DESTNODE
    0   3542  KL_LGNPND$                         0   3543  KL_RSPPND$
    0   3544  KL_FEMSG                           0   3555  KL_TMSG
    0   3576  KL_AUTOFAIL                        0   3612  KL_HLPKEY
    0   3620  KL_PROKEY                          0   3624  FPT_PATHCON
    9      2  KL_RDHLP                           9     20  KL_WKYN
    9     34  KL_RDHLPR                          9     52  KL_RDPROR
    0   3634  KL_RD_NETCON                       0   3652  KL_WR_NETCON
    0   3666  KL_RD_NETWORK                      0   3704  KL_WR_NETWORK
    0   3720  KL_DR_NETWORK                      9     70  KL_NETWORK_TIME
    0   3732  KL_NETWORK_KEY                     0   3737  KL_NETWORK_TERMKEY
    0   3742  KL_NETWORK_BUF                     0   3766  KL_PR_NETWORK
    9    104  WRT_FROG                           0   4000  WRT_NA2FROG
    0   4014  KL_FROG                            0   4015  KL_EXTRSP_BUF
    0   6751  KL_EXTRSP_BUF$
PL6.E3A0      #001=KL_DATA_D File=KL_DATA_D.:E05TSI                              WED 07/30/97 00:54 Page:10

  ****  Data refs  ****

  Flags:  r = read only, s = secondary
Flgs Name                             Flgs Name                             Flgs Name
     M$UC                                  M$HLP                                 M$CSCG
     M$HLPF                                M$NETCON                              M$NETWORK
     M$PROF                                M$WSNF

  ****  Segment refs  ****

  Flags:  r = read only, s = secondary
Flgs Name                             Flgs Name                             Flgs Name
     ISSID                                 NULLSID
PL6.E3A0      #001=KL_DATA_D File=KL_DATA_D.:E05TSI                              WED 07/30/97 00:54 Page:11

        1        1        /*M* KL_DATA_D Data for host logon processor */
        2        2        /*T***********************************************************/
        3        3        /*T*                                                         */
        4        4        /*T* Copyright (c) Bull HN Information Systems Inc., 1997    */
        5        5        /*T*                                                         */
        6        6        /*T***********************************************************/
        7        7        /*X*DMC,PLM=6,IND=2,ENU=2,DCI=4,CSU=2,ECU=2,THI=2,DTI=0*/
        8        8        /**/
        9        9        /**/
       10       10        KL_DATA_D: PROC NOAUTO;
       11       11        /**/
       12       12        /**/
       13       13        %INCLUDE CP_6;
       14       94        %INCLUDE KL_MACRO_C;
       15     3446        %INCLUDE KL_NETWORK_M;
       16     3604        %INCLUDE KC$CGBLK;
       17     3652        %INCLUDE KL_SUPER_C;
       18     6554        %INCLUDE JG_EVID_C;
       19     6779        %INCLUDE KI_SUBS_C;
       20     6915        %INCLUDE KL_SUBS_C;
       21     6969        %INCLUDE OC_MESSHD_C;
       22     7022        %INCLUDE OC_SUBS_C;
       23     7753        /**/
       24     7754        /**/
       25     7755    1   DCL M$HLP DCB;
       26     7756    1   DCL M$CSCG DCB;
       27     7757    1   DCL M$HLPF DCB;
       28     7758    1   DCL M$NETCON DCB;
       29     7759    1   DCL M$NETWORK DCB;
       30     7760    1   DCL M$PROF DCB;
       31     7761    1   DCL M$WSNF DCB;
       32     7762    1   DCL KL_MXFE UBIN WORD STATIC SYMDEF INIT(16);
       33     7763    1   DCL KL_NODES UBIN STATIC SYMDEF INIT(0);
       34     7764    1   DCL KL_HOPCOST UBIN STATIC SYMDEF INIT(10);  /* Hop cost through this node */
       35     7765    1   DCL KL_NETWORK_VALID BIT(1) STATIC SYMDEF INIT('0'B);
       36     7766    1   DCL 1 KL_FETBL (0:255) STATIC SYMDEF ALIGNED,
       37     7767    1         2 HOST_NODE BIT(1) UNAL INIT('0'B*0),
PL6.E3A0      #001=KL_DATA_D File=KL_DATA_D.:E05TSI                              WED 07/30/97 00:54 Page:12
       38     7768    1         2 LINK_CONNECT BIT(1) UNAL INIT('0'B*0),
       39     7769    1         2 ACTIVE BIT(1) UNAL INIT('0'B*0),
       40     7770    1         2 BOSS BIT(1) UNAL INIT('1'B*0),
       41     7771    1         2 DEBUG BIT(1) UNAL INIT('0'B*0),
       42     7772    1         2 LINK_ACTIVE BIT(1) UNAL INIT('0'B*0),
       43     7773    1         2 KTYP UBIN(3) UNAL INIT(%KLKT_NONE#*0),
       44     7774    1         2 QOS UBIN BYTE UNAL INIT(255*0),
       45     7775    1         2 * UBIN HALF UNAL INIT(0*0);
       46     7776        %KL_PCD(FPTN=KL_PCD,CG=1,STCLASS="STATIC SYMDEF");
       47     7941    1   DCL KL_HLPR CHAR(2048) STATIC SYMDEF DALIGNED;
       48     7942    1   DCL KL_HLPR$ PTR STATIC SYMDEF INIT(ADDR(KL_HLPR));
       49     7943    1   DCL KL_STATION CHAR(8) STATIC SYMDEF INIT('   ');
       50     7944    1   DCL KL_MSGTYP CHAR(8) STATIC SYMDEF;
       51     7945        %VLR_PATHCON(FPTN=VLR_PATHCON,STCLASS="STATIC SYMDEF");
       52     7959    1   DCL KL_PROBUF CHAR(2048) STATIC SYMDEF DALIGNED;
       53     7960    1   DCL KL_HLPFILS UBIN WORD STATIC SYMDEF INIT(0);
       54     7961    1   DCL KL_ROUTEOPEN UBIN WORD STATIC SYMDEF INIT(0);
       55     7962    1   DCL KL_MAXFEI# UBIN WORD STATIC SYMDEF INIT(0);
              7962            /* number of feis configured in tigr*/
       56     7963    1   DCL KL_OSIMAX# UBIN WORD STATIC SYMDEF INIT(0); /* # of osiroutes from tigr*/
       57     7964    1   DCL KL_OSIROUTE$ PTR STATIC SYMDEF INIT(ADDR(NIL));
              7964            /* ptr to osiroute ptr array in tigr data*/
       58     7965    1   DCL KL_NWF UBIN WORD STATIC SYMDEF INIT(0); /* count of failed writes to :network*/
       59     7966    1   DCL KL_NRF UBIN WORD STATIC SYMDEF INIT(0);  /* count of failed reads to :network*/
       60     7967    1   DCL KL_RDBF CHAR(2048) STATIC SYMDEF ALIGNED;
       61     7968    1   DCL KL_RDBF$ PTR CONSTANT SYMDEF INIT(ADDR(KL_RDBF));
       62     7969    1   DCL 1 KL_FEPW STATIC SYMDEF,
       63     7970    1         2 CNT UBIN BYTE UNAL INIT(3),
       64     7971    1         2 T1 CHAR(1) UNAL INIT('!'),
       65     7972    1         2 BEEP BIT(18) UNAL INIT('007007'O),
       66     7973    1         2 * CHAR(4) UNAL INIT(' ');
       67     7974    1   DCL KL_MARS UBIN WORD STATIC SYMDEF;
       68     7975    1   DCL 1 KL_MSGID STATIC SYMDEF,                 /* Unique value to attach to   */
       69     7976    1         2 * BIT(4) UNAL INIT('0'B),             /* messages destined for       */
       70     7977    1         2 N UBIN(32) UNAL INIT(0);              /* other nodes.                */
       71     7978    1   DCL KL_NODENAME CHAR(8) STATIC SYMDEF INIT(' ');    /* Node name for us */
       72     7979    1   DCL KL_NODE UBIN STATIC SYMDEF INIT(0);       /* Node number of this host        */
PL6.E3A0      #001=KL_DATA_D File=KL_DATA_D.:E05TSI                              WED 07/30/97 00:54 Page:13
       73     7980    1   DCL KL_NMNODE UBIN STATIC SYMDEF INIT(0);     /* Node number of the network      */
       74     7981                                                      /* manager's host                  */
       75     7982    1   DCL KL_DESTNODE UBIN STATIC SYMDEF INIT(0);  /* Node number of the current logon */
       76     7983                                                     /* destination host. That is, which */
       77     7984                                                      /* host to log on to               */
       78     7985    1   DCL KL_LGNPND$ PTR STATIC SYMDEF INIT(ADDR(NIL));
              7985            /* Head pointer to list of logons   */
       79     7986    1   DCL KL_RSPPND$ PTR STATIC SYMDEF INIT(ADDR(NIL));    /* Head pointer to list */
       80     7987                                                             /* pending responses    */
       81     7988                                                      /* pending response from the logon */
       82     7989                                                      /* destination's host.             */
       83     7990        %OC_MESSHD_W (NAME=KL_FEMSG,STCLASS="ALIGNED STATIC SYMDEF",NPARMS=4,ATR=M_COMM);
       84     8003    1         2 FCNT UBIN(9) UNAL INIT(1),
       85     8004    1         2 PBCNT UBIN(9) UNAL INIT(1),
       86     8005    1         2 STCNT UBIN(9) UNAL INIT(1),
       87     8006    1         2 NMCNT UBIN(9) UNAL INIT(8),
       88     8007    1         2 FEX UBIN(9) UNAL INIT(0),
       89     8008    1         2 PROB UBIN(9) UNAL INIT(0),
       90     8009    1         2 STATE UBIN(9) UNAL INIT(0),
       91     8010    1         2 NAME CHAR(8) UNAL INIT(' ');
       92     8011        %OC_MESSHD_W (NAME=KL_TMSG,STCLASS="ALIGNED STATIC SYMDEF",NPARMS=7,MSG=TSON_MSG#,
              8011            ATR=M_ADCOM);
       93     8024    1         2 FCNT UBIN(9) UNAL INIT(LENGTHC(KL_TMSG.FEX)),
       94     8025    1         2 LCNT UBIN(9) UNAL INIT(LENGTHC(KL_TMSG.LN#)),
       95     8026    1         2 SCNT UBIN(9) UNAL INIT(LENGTHC(KL_TMSG.SID)),
       96     8027    1         2 ACNT UBIN(9) UNAL INIT(LENGTHC(KL_TMSG.ACCT)),
       97     8028    1         2 NCNT UBIN(9) UNAL INIT(LENGTHC(KL_TMSG.NME)),
       98     8029    1         2 UNCNT UBIN(9) UNAL INIT(LENGTHC(KL_TMSG.UNM)),
       99     8030    1         2 FNMCNT UBIN(9) UNAL INIT(LENGTHC(KL_TMSG.FEPNAME)),
      100     8031    1         2 FEX UBIN(9) UNAL INIT(0),
      101     8032    1         2 LN# UBIN(18) UNAL INIT(0),
      102     8033    1         2 SID UBIN(18) UNAL INIT(0),
      103     8034    1         2 ACCT CHAR(8) UNAL INIT(' '),
      104     8035    1         2 NME CHAR(15) UNAL INIT(' '),
      105     8036    1         2 UNM UBIN(18) UNAL INIT(0),
      106     8037    1         2 FEPNAME CHAR(8) UNAL INIT(' ');
      107     8038        %OC_MESSHD_W (NAME=KL_AUTOFAIL,STCLASS="ALIGNED STATIC SYMDEF",NPARMS=7,ATR=M_COMM,
PL6.E3A0      #001=KL_DATA_D File=KL_DATA_D.:E05TSI                              WED 07/30/97 00:54 Page:14
              8038            MSG=AUTOFAIL_MSG#);
      108     8051    1         2 * UBIN BYTE CALIGNED INIT(1),
      109     8052    1         2 * UBIN BYTE CALIGNED INIT(8),
      110     8053    1         2 * UBIN BYTE CALIGNED INIT(2),
      111     8054    1         2 * UBIN BYTE CALIGNED INIT(1),
      112     8055    1         2 * UBIN BYTE CALIGNED INIT(2),
      113     8056    1         2 * UBIN BYTE CALIGNED INIT(2),
      114     8057    1         2 * UBIN BYTE CALIGNED INIT(2),
      115     8058    1         2 FEX UBIN BYTE CALIGNED,
      116     8059    1         2 FEPNAME CHAR(8) CALIGNED,
      117     8060    1         2 REASON UBIN HALF CALIGNED,
      118     8061    1         2 LEVEL UBIN BYTE CALIGNED,
      119     8062    1         2 CHANNEL BIT(18) CALIGNED,
      120     8063    1         2 SUBDEV BIT(18) CALIGNED,
      121     8064    1         2 SUBSUBDEV BIT(18) CALIGNED;
      122     8065    1   DCL 1 KL_HLPKEY STATIC SYMDEF DALIGNED,
      123     8066    1         2 CNT UBIN BYTE UNAL,
      124     8067    1         2 ACCT CHAR(8) UNAL,
      125     8068    1         2 NAME CHAR(12) UNAL;
      126     8069    1   DCL 1 KL_PROKEY STATIC SYMDEF DALIGNED,
      127     8070    1         2 C UBIN BYTE UNAL,
      128     8071    1         2 T CHAR(11) UNAL,
      129     8072    1         2 IMP# UBIN BYTE UNAL;
      130     8073        /**/
      131     8074        /**/
      132     8075        %FPT_PATHCON(FPTN=FPT_PATHCON,STCLASS="STATIC SYMDEF",
      133     8076              RESULTS=VLR_PATHCON);
      134     8091        %FPT_READ (FPTN=KL_RDHLP,STCLASS="CONSTANT SYMDEF",DCB=M$HLP,
      135     8092                   BUF=KL_RDBF,WAIT=NO,EVENT=KL_FERD#);
      136     8131        %FPT_WRITE (FPTN=KL_WKYN,STCLASS="CONSTANT SYMDEF",DCB=M$CSCG,
      137     8132                    BUF=KL_FEMSG);
      138     8163        %FPT_READ (FPTN=KL_RDHLPR,STCLASS="CONSTANT SYMDEF",DCB=M$HLPF,BUF=KL_HLPR,
      139     8164                   KEYS=YES,KEY=KL_HLPKEY);
      140     8203        %FPT_READ (FPTN=KL_RDPROR,STCLASS="CONSTANT SYMDEF",DCB=M$PROF,BUF=KL_PROBUF,
      141     8204                   KEYS=YES,KEY=KL_PROKEY);
      142     8243        %FPT_READ (FPTN=KL_RD_NETCON,DCB=M$NETCON,KEYS=YES,STCLASS="STATIC SYMDEF");
      143     8282        %FPT_WRITE (FPTN=KL_WR_NETCON,DCB=M$NETCON,STCLASS="STATIC SYMDEF");
PL6.E3A0      #001=KL_DATA_D File=KL_DATA_D.:E05TSI                              WED 07/30/97 00:54 Page:15
      144     8313        %FPT_READ (FPTN=KL_RD_NETWORK,
      145     8314                   DCB=M$NETWORK,
      146     8315                   STCLASS="STATIC SYMDEF",
      147     8316                   BUF=KL_NETWORK_BUF,
      148     8317                  KEYS=YES,
      149     8318                   KEYR=YES,
      150     8319                   KEY=KL_NETWORK_KEY);
      151     8358        %FPT_WRITE (FPTN=KL_WR_NETWORK,
      152     8359                   DCB=M$NETWORK,
      153     8360                   STCLASS="STATIC SYMDEF",
      154     8361                   BUF=KL_NETWORK_BUF,
      155     8362                   KEY=KL_NETWORK_KEY);
      156     8393        %FPT_DELREC (FPTN=KL_DR_NETWORK,DCB=M$NETWORK,KEY=KL_NETWORK_KEY,STCLASS=
              8393            "STATIC SYMDEF");
      157     8412        %FPT_TIME (FPTN=KL_NETWORK_TIME,STCLASS="CONSTANT SYMDEF",
      158     8413                   SOURCE=CLOCK,
      159     8414                   DEST=UTS,
      160     8415                   TSTAMP="KL_NETWORK_BUF.UTS");
      161     8434        %KL_LINE_KEY (FPTN=KL_NETWORK_KEY,STCLASS="STATIC SYMDEF");
      162     8484        %KL_TERM_KEY (FPTN=KL_NETWORK_TERMKEY,STCLASS="STATIC SYMDEF");
      163     8505        %KL_TERMREC (FPTN=KL_NETWORK_BUF,STCLASS="STATIC SYMDEF");
      164     8561        %FPT_PRECORD(FPTN=KL_PR_NETWORK,
      165     8562                      DCB=M$NETWORK,
      166     8563                      STCLASS="STATIC SYMDEF",
      167     8564                      KEYS=YES,
      168     8565                      KEYR=YES,
      169     8566                      KEY=KL_NETWORK_KEY,
      170     8567                      N=1);
      171     8588
      172     8589        %FPT_WRITE (FPTN=WRT_FROG,
      173     8590                       STCLASS="CONSTANT SYMDEF",
      174     8591                       BUF=KL_FROG,
      175     8592                       STATION=FRG_STA,
      176     8593                       DCB=M$CSCG,
      177     8594                       WAIT=YES);
      178     8625        %FPT_WRITE (FPTN=WRT_NA2FROG,
      179     8626                       STCLASS="STATIC SYMDEF",
PL6.E3A0      #001=KL_DATA_D File=KL_DATA_D.:E05TSI                              WED 07/30/97 00:54 Page:16
      180     8627                       STATION=FRG_STA,
      181     8628                       DCB=M$CSCG,
      182     8629                       WAIT=YES);
      183     8660        %VLP_STATION (FPTN=FRG_STA,STCLASS=CONSTANT,STATION='FROG');
      184     8687        %KL_FROG (STCLASS="STATIC SYMDEF");
      185     8705        /**/
      186     8706        /**/
      187     8707    1   DCL NULSTA CHAR(8) CONSTANT INIT(' ');
      188     8708        /**/
      189     8709    1   DCL KL_EXTRSP_BUF(0:1499) UBIN WORD STATIC SYMDEF INIT(0*0);
      190     8710    1   DCL KL_EXTRSP_BUF$ PTR STATIC SYMDEF INIT(ADDR(KL_EXTRSP_BUF));
      191     8711        /**/
      192     8712    1   END;
      193     8713        /**/
      194     8714        /**/

PL6.E3A0      #001=KL_DATA_D File=KL_DATA_D.:E05TSI                              WED 07/30/97 00:54 Page:17
--  Include file information  --

   OC_SUBS_C.:E05TOU  is referenced.
   OC_MESSHD_C.:E05TOU  is referenced.
   KL_SUBS_C.:E05TOU  is referenced.
   KI_SUBS_C.:E05TOU  is referenced.
   JG_EVID_C.:E05TOU  is referenced.
   KL_SUPER_C.:E05TOU  is referenced.
   KC$CGBLK.:E05TOU  is referenced.
   KL_NETWORK_M.:E05TOU  is referenced.
   KL_MACRO_C.:E05TOU  is referenced.
   CP_6.:E05TOU  cannot be made into a system file and is referenced.
   B$JIT_C.:E05TOU  was found in the system file and is never referenced.
   CP_6_C.:E05TOU  was found in the system file and is referenced.
      No diagnostics issued in procedure KL_DATA_D.
PL6.E3A0      #001=KL_DATA_D File=KL_DATA_D.:E05TSI                              WED 07/30/97 00:54 Page:18

 **** Variables and constants ****

  ****  Section 000  Data  KL_DATA_D

  ****  Scalars and arrays  ****
OctLoc.c.b A Datatyp(siz) R M Lvl/name                 OctLoc.c.b A Datatyp(siz) R M Lvl/name

  3624-0-0/d STRC(288)   r     1 FPT_PATHCON             3720-0-0/d STRC(360)   r     1 KL_DR_NETWORK
  4015-0-0/w UBIN        r     1 KL_EXTRSP_BUF(0:1499)
  3544-0-0/w STRC(315)   r     1 KL_FEMSG                4014-0-0/w STRC        r     1 KL_FROG
  3612-0-0/d STRC(189)   r     1 KL_HLPKEY                512-0-0/d CHAR(2048)  r     1 KL_HLPR
  3742-0-0/w STRC(711)   r     1 KL_NETWORK_BUF          3732-0-0/w STRC(171)   r     1 KL_NETWORK_KEY
  3737-0-0/w STRC(90)    r     1 KL_NETWORK_TERMKEY      1522-0-0/d CHAR(2048)  r     1 KL_PROBUF
  3620-0-0/d STRC(117)   r     1 KL_PROKEY               3766-0-0/d STRC(360)   r     1 KL_PR_NETWORK
  2531-0-0/w CHAR(2048)  r     1 KL_RDBF                 3634-0-0/d STRC(504)   r     1 KL_RD_NETCON
  3666-0-0/d STRC(504)   r     1 KL_RD_NETWORK           3555-0-0/w STRC(585)   r     1 KL_TMSG
  3652-0-0/d STRC(432)   r     1 KL_WR_NETCON            3704-0-0/d STRC(432)   r     1 KL_WR_NETWORK
  1520-0-0/d STRC        r     1 VLR_PATHCON             4000-0-0/d STRC(432)   r     1 WRT_NA2FROG

  ****  Section 009 RoData KL_DATA_D

  ****  Scalars and arrays  ****
OctLoc.c.b A Datatyp(siz) R M Lvl/name                 OctLoc.c.b A Datatyp(siz) R M Lvl/name

   120-0-0/w STRC(288)   r     1 FRG_STA                   70-0-0/d STRC(432)   r     1 KL_NETWORK_TIME
     2-0-0/d STRC(504)   r     1 KL_RDHLP                  34-0-0/d STRC(504)   r     1 KL_RDHLPR
    52-0-0/d STRC(504)   r     1 KL_RDPROR                 20-0-0/d STRC(432)   r     1 KL_WKYN
   104-0-0/d STRC(432)   r     1 WRT_FROG

  ****  BASED and DCB variables  ****

  ****  Scalars and arrays  ****
OctLoc.c.b A Datatyp(siz) R M Lvl/name                 OctLoc.c.b A Datatyp(siz) R M Lvl/name

     0-0-0N  NULL        r     1 M$CSCG                     0-0-0N  NULL        r     1 M$HLP
     0-0-0N  NULL        r     1 M$HLPF                     0-0-0N  NULL        r     1 M$NETCON
     0-0-0N  NULL        r     1 M$NETWORK                  0-0-0N  NULL        r     1 M$PROF
PL6.E3A0      #001=KL_DATA_D File=KL_DATA_D.:E05TSI                              WED 07/30/97 00:54 Page:19


   No code generated for procedure KL_DATA_D .
   Procedure KL_DATA_D is declared NOAUTO and requires 3562 words of local(STATIC) storage.

    No errors detected in file KL_DATA_D.:E05TSI    .
PL6.E3A0      #001=KL_DATA_D File=KL_DATA_D.:E05TSI                              WED 07/30/97 00:54 Page:20
          *** CROSS REFERENCE LISTING ***
**     DENOTES     IDENTIFIER DEFINITION
<<                 IDENTIFIER'S VALUE SET
>>                 IDENTIFIER'S VALUE USED
<>                 IDENTIFIER SET AND/OR USED
--                 IDENTIFIER REFERENCED
PL6.E3A0      #001=KL_DATA_D File=KL_DATA_D.:E05TSI                              WED 07/30/97 00:54 Page:21
          MINI XREF LISTING

FPT_PATHCON.V
      8089**DCL      8087--DCLINIT
FRG_STA
      8672**DCL      8613--DCLINIT  8648--DCLINIT
FRG_STA.MSGIDXT
      8682**DCL      8685--REDEF
KL_AUTOFAIL.FLAGS
      8046**DCL      8047--REDEF
KL_AUTOFAIL.MSGID
      8042**DCL      8043--REDEF
KL_DR_NETWORK.V
      8407**DCL      8404--DCLINIT
KL_EXTRSP_BUF
      8709**DCL      8710--DCLINIT
KL_FEMSG
      7991**DCL      8150--DCLINIT  8151--DCLINIT
KL_FEMSG.FLAGS
      7998**DCL      7999--REDEF
KL_FEMSG.MSGID
      7994**DCL      7995--REDEF
KL_FROG
      8700**DCL      8612--DCLINIT  8613--DCLINIT
KL_HLPKEY
      8065**DCL      8181--DCLINIT  8182--DCLINIT
KL_HLPR
      7941**DCL      7942--DCLINIT  8183--DCLINIT  8184--DCLINIT
KL_NETWORK_BUF
      8520**DCL      8338--DCLINIT  8339--DCLINIT  8380--DCLINIT  8381--DCLINIT
KL_NETWORK_BUF.TERMINAL_ID.TERM
      8546**DCL      8555--REDEF
KL_NETWORK_BUF.UTS
      8521**DCL      8430--DCLINIT
PL6.E3A0      #001=KL_DATA_D File=KL_DATA_D.:E05TSI                              WED 07/30/97 00:54 Page:22
KL_NETWORK_KEY
      8449**DCL      8336--DCLINIT  8337--DCLINIT  8379--DCLINIT  8404--DCLINIT  8405--DCLINIT  8578--DCLINIT
      8579--DCLINIT
KL_NETWORK_KEY.KEY
      8451**DCL      8450--DCLINIT
KL_NETWORK_KEY.KEY.TERMID.TERM
      8472**DCL      8481--REDEF
KL_NETWORK_TERMKEY.KEY
      8501**DCL      8500--DCLINIT
KL_NETWORK_TIME.V
      8430**DCL      8426--DCLINIT
KL_PCD.ADDD.CINFO
      7841**DCL      7845--REDEF
KL_PCD.ADDD.DEVNM
      7834**DCL      7835--REDEF
KL_PCD.ADDD.NMID
      7848**DCL      7849--REDEF
KL_PCD.CGINFO.ATTR
      7900**DCL      7900--REDEF
KL_PCD.CGINFO.XTRAINFO
      7903**DCL      7905--REDEF
KL_PROBUF
      7959**DCL      8223--DCLINIT  8224--DCLINIT
KL_PROKEY
      8069**DCL      8221--DCLINIT  8222--DCLINIT
KL_PR_NETWORK.V
      8580**DCL      8578--DCLINIT
KL_RDBF
      7967**DCL      7968--DCLINIT  8111--DCLINIT  8112--DCLINIT
KL_RDHLP.STATION_
      8112**DCL      8113--REDEF
KL_RDHLP.V
      8113**DCL      8109--DCLINIT
KL_RDHLP.V.DVBYTE.REREAD#
      8124**DCL      8124--REDEF
KL_RDHLP.V.INDX#
PL6.E3A0      #001=KL_DATA_D File=KL_DATA_D.:E05TSI                              WED 07/30/97 00:54 Page:23
      8122**DCL      8122--REDEF
KL_RDHLPR.STATION_
      8184**DCL      8185--REDEF
KL_RDHLPR.V
      8185**DCL      8181--DCLINIT
KL_RDHLPR.V.DVBYTE.REREAD#
      8196**DCL      8196--REDEF
KL_RDHLPR.V.INDX#
      8194**DCL      8194--REDEF
KL_RDPROR.STATION_
      8224**DCL      8225--REDEF
KL_RDPROR.V
      8225**DCL      8221--DCLINIT
KL_RDPROR.V.DVBYTE.REREAD#
      8236**DCL      8236--REDEF
KL_RDPROR.V.INDX#
      8234**DCL      8234--REDEF
KL_RD_NETCON.STATION_
      8263**DCL      8264--REDEF
KL_RD_NETCON.V
      8264**DCL      8260--DCLINIT
KL_RD_NETCON.V.DVBYTE.REREAD#
      8275**DCL      8275--REDEF
KL_RD_NETCON.V.INDX#
      8273**DCL      8273--REDEF
KL_RD_NETWORK.STATION_
      8339**DCL      8340--REDEF
KL_RD_NETWORK.V
      8340**DCL      8336--DCLINIT
KL_RD_NETWORK.V.DVBYTE.REREAD#
      8351**DCL      8351--REDEF
KL_RD_NETWORK.V.INDX#
      8349**DCL      8349--REDEF
KL_TMSG.ACCT
      8034**DCL      8027--DCLINIT
KL_TMSG.FEPNAME
PL6.E3A0      #001=KL_DATA_D File=KL_DATA_D.:E05TSI                              WED 07/30/97 00:54 Page:24
      8037**DCL      8030--DCLINIT
KL_TMSG.FEX
      8031**DCL      8024--DCLINIT
KL_TMSG.FLAGS
      8019**DCL      8020--REDEF
KL_TMSG.LN#
      8032**DCL      8025--DCLINIT
KL_TMSG.MSGID
      8015**DCL      8016--REDEF
KL_TMSG.NME
      8035**DCL      8028--DCLINIT
KL_TMSG.SID
      8033**DCL      8026--DCLINIT
KL_TMSG.UNM
      8036**DCL      8029--DCLINIT
KL_WKYN.STATION_
      8151**DCL      8151--REDEF
KL_WKYN.V
      8152**DCL      8149--DCLINIT
KL_WKYN.V.DVBYTE.VFC#
      8158**DCL      8158--REDEF
KL_WR_NETCON.STATION_
      8301**DCL      8301--REDEF
KL_WR_NETCON.V
      8302**DCL      8299--DCLINIT
KL_WR_NETCON.V.DVBYTE.VFC#
      8308**DCL      8308--REDEF
KL_WR_NETWORK.STATION_
      8381**DCL      8381--REDEF
KL_WR_NETWORK.V
      8382**DCL      8379--DCLINIT
KL_WR_NETWORK.V.DVBYTE.VFC#
      8388**DCL      8388--REDEF
VLR_PATHCON
      7956**DCL      8087--DCLINIT
WRT_FROG.STATION_
PL6.E3A0      #001=KL_DATA_D File=KL_DATA_D.:E05TSI                              WED 07/30/97 00:54 Page:25
      8613**DCL      8613--REDEF
WRT_FROG.V
      8614**DCL      8611--DCLINIT
WRT_FROG.V.DVBYTE.VFC#
      8620**DCL      8620--REDEF
WRT_NA2FROG.STATION_
      8648**DCL      8648--REDEF
WRT_NA2FROG.V
      8649**DCL      8646--DCLINIT
WRT_NA2FROG.V.DVBYTE.VFC#
      8655**DCL      8655--REDEF
