VERSION E05

PL6.E3A0      #001=KNA$OPEN File=KNA$APE.:E05TSI                                 WED 07/30/97 00:55 Page:1
        1        1        /*M* KNA$APE - Application Presentation Engine */
        2        2        /*T***********************************************************/
        3        3        /*T*                                                         */
        4        4        /*T* Copyright (c) Bull HN Information Systems Inc., 1997    */
        5        5        /*T*                                                         */
        6        6        /*T***********************************************************/
        7        7        /*X* PLM=3,IND=5,ENU=0,ECU=0 */
        8        8        /*P*
        9        9           NAME: KNA$APE
       10       10           PURPOSE:
       11       11                  This module translates user application requests into the
       12       12             proper Presentation layer communications protocols.
       13       13           DESCRIPTION:
       14       14                  This module contains the routines necessary to field an
       15       15             application's M$s READ, WRITE, OPEN, CLOSE on a DCB associated
       16       16             with another endpoint in the network.
       17       17        */
       18       18        /*F*
       19       19           NAME: KNA$OPEN
       20       20           PURPOSE:
       21       21                  To handle the open of a DCB connected to another program via
       22       22             the communications network.
       23       23           DESCRIPTION:
       24       24                  This routine does a validity check of the M$OPEN and sets up
       25       25             context associated with the user's DCB.  A call is made to the
       26       26             monitor's Session layer to establish contact with the proper
       27       27             endpoint for this DCB.
       28       28         */
       29       29        %EJECT;
PL6.E3A0      #001=KNA$OPEN File=KNA$APE.:E05TSI                                 WED 07/30/97 00:55 Page:2
       30       30        /*D*
       31       31           NAME: KNA$OPEN
       32       32           CALL:
       33       33                  CALL KNA$OPEN(DCBNUMBER,ERROR) ALTRET;
       34       34
       35       35                  Altreturns if an error is encountered during OPEN.
       36       36           PARAMETERS:
       37       37                  DCBNUMBER - The DCB number of the DCB to be opened.
       38       38                  ERROR - Error code returned if an error is encountered.
       39       39           INTERFACE:
       40       40                  KNA$GETLDCT - To get an LDCT for establishing a Session
       41       41                  KNA$RLSLDCT - Release an LDCT
       42       42                  KNS$SESSION - To establish a Session over the network
       43       43                  GHS$REG - To REG the current user until Session replies
       44       44                  KNA$GETSSN - To get an APE Session context
       45       45                  KNA$RLSSSN - Release an APE Session context
       46       46           ENVIRONMENT:
       47       47                  This routine is called from GFM$MCL with the DCBNUMBER set
       48       48             up and the OPEN FPT parameters already merged into the DCB.
       49       49           INPUT:
       50       50                  G$ROS
       51       51                     DCB table information
       52       52                     Network addresses for this user
       53       53           OUTPUT:
       54       54                  None.
       55       55           DESCRIPTION:
       56       56                  This routine finds the address of the DCB number passed and
       57       57             checks for any conflicts in the DCB parameters set.  If none, the
       58       58             resource information in the DCB is used to access an associated
       59       59             network address kept in the ROSeg.  If an APE context for this
       60       60             network address is not already established one is made and
       61       61             initialized.  If we already have at least one other DCB connected
       62       62             to the desired endpoint we just intialize some flags in the DCB,
       63       63             mark it OPENed, point it to the APE context and return to the user.
       64       64             After the APE context is initialized an LDCT for Session is also
       65       65             allocated and APE makes a call to Session to establish the network
       66       66             connection.  The user is REGged Queued for Access while we await
PL6.E3A0      #001=KNA$OPEN File=KNA$APE.:E05TSI                                 WED 07/30/97 00:55 Page:3
       67       67             a Session reply.  When Session replies positively an OPEN message
       68       68             is sent to the other end.
       69       69        */
       70       70        %EJECT;
PL6.E3A0      #001=KNA$OPEN File=KNA$APE.:E05TSI                                 WED 07/30/97 00:55 Page:4
       71       71
       72       72        KNA$OPEN: PROC (DCBNUMBER,ERROR,LGN_,VLP_WINDOW) ALTRET;
       73       73
       74       74        %INCLUDE F_ERRORS_C;
       75      314        %INCLUDE G_LCP6_E;
       76      572        %INCLUDE KNA_MACRO_M;
       77      648        %INCLUDE GH_GATE_M;
       78      689        %INCLUDE KN_DATA_M;
       79     2475        %INCLUDE KNH_MACRO_C;
       80     2758        %INCLUDE GU_LCP6_M;
       81     3686        %INCLUDE KN_ERRORS_C;
       82     3750        %INCLUDE KI_ERRORS_C;
       83     3835        %INCLUDE GH_LCP6_M;
       84     4669        %INCLUDE G_ROS_M;
       85     4751        %INCLUDE G_JIT_M;
       86     5016        %INCLUDE GH_SCHD_E;
       87     5112        %INCLUDE KL_MACRO_C;
       88     8464        %INCLUDE GF_LCP6_M;
       89     8932        %INCLUDE KL_SUPER_C;
       90    11834        %INCLUDE KL_AFCN_C;
       91    11935        %INCLUDE KI_CP6;
       92    13031        %INCLUDE K$RWPARM;
       93    13417        %INCLUDE KV$VDO;
       94    14432        %INCLUDE KV_GLBCNS_E;
       95    14773        %INCLUDE K_SCODE_C;
       96    14858        %KV#VD_ORG_E;
       97    14866        %KV_VDO_ALL_E;
       98    14945
       99    14946        /* Parameter definitions */
      100    14947    1   DCL DCBNUMBER UBIN;
      101    14948        %VLP_ERRCODE (STCLASS="",FPTN=ERROR);
      102    14994    1   DCL LGN_ VECTOR;
      103    14995        %VLP_WINDOW (STCLASS=PARAM);
      104    15039
      105    15040        /* Entry defintions */
      106    15041    1   DCL KNA$GETLDCT ENTRY(1) ALTRET;
      107    15042    1   DCL KNA$RLSLDCT ENTRY(1) ALTRET;
PL6.E3A0      #001=KNA$OPEN File=KNA$APE.:E05TSI                                 WED 07/30/97 00:55 Page:5
      108    15043    1   DCL KNS$SEND ENTRY(1) ALTRET;
      109    15044    1   DCL KNA$BUILD_VDO ENTRY(3);
      110    15045    1   DCL KNA$CONV_STR ENTRY(2) ALTRET;
      111    15046    1   DCL KNA$GETSSN ENTRY(1) ALTRET;
      112    15047    1   DCL KNA$RLSSSN ENTRY(1) ALTRET;
      113    15048    1   DCL KNA$RLSIOP ENTRY(1) ALTRET;
      114    15049    1   DCL KNA$GETIOP ENTRY(1) ALTRET;
      115    15050    1   DCL KNA$IN ENTRY(1) ALTRET;
      116    15051    1   DCL SCREECH ENTRY(1);
      117    15052    1   DCL KNA$REG_USER ENTRY(2) ALTRET;
      118    15053    1   DCL KNB$GETRESP ENTRY(4) ALTRET;
      119    15054    1   DCL KNA$FCNOU ENTRY(4) ALTRET;
      120    15055
      121    15056        /* Auto */
      122    15057        %K$RWPARM (NAME=RWPARM,STCLASS=AUTO);
      123    15373        %KV$VDO_CLSSTR (NAME=HDR,STCLASS=AUTO);
      124    15416        %KN$NETPARM;
      125    15569        %FPT_CONNECT(STCLASS=AUTO);
      126    15638        %FPT_TERM;
      127    15660    1   DCL CLOSING BIT(1);
      128    15661    1   DCL NEWSTREAM BIT(1);
      129    15662    1   DCL UCSTREAM BIT(1);
      130    15663    1   DCL I SBIN;
      131    15664    1   DCL ERR UBIN(32);
      132    15665    1   DCL IOP$ PTR;
      133    15666    1   DCL STRM UBIN;
      134    15667    1   DCL DCB$ PTR;
      135    15668    1   DCL SSN$ PTR;
      136    15669    1   DCL TEMP$ PTR;
      137    15670    1   DCL OPNDCB$ PTR;
      138    15671    1   DCL RESTYPE CHAR(2);
      139    15672    1   DCL 1 NETWORK_ADDR ALIGNED,
      140    15673    1         2 NODE#  UBIN(8) CALIGNED,
      141    15674    1         2 GENERATION UBIN(8) CALIGNED,
      142    15675    1         2 LDCTX  UBIN CALIGNED;
      143    15676        %KL_SGN (FPTN=SGN,STCLASS=AUTO,LGNSIZ=70);
      144    15769        %KL_SGNRSP (FPTN=SGNRSP,STCLASS="REDEF SGN",RSPSIZ=68);
PL6.E3A0      #001=KNA$OPEN File=KNA$APE.:E05TSI                                 WED 07/30/97 00:55 Page:6
      145    15905        %VLP_WINDOW (FPTN=WINDOW,STCLASS=AUTO);
      146    15949        %EJECT;
PL6.E3A0      #001=KNA$OPEN File=KNA$APE.:E05TSI                                 WED 07/30/97 00:55 Page:7
      147    15950        /* Based structures */
      148    15951        %KN$LDCT(STCLASS="BASED(KN$NETPARM.LDCT$)");
      149    16196        %G$ROS (FPTN=G$ROS,STCLASS="BASED(G$ROS$)");
      150    16240        %G$JIT (STCLASS="BASED(G$JIT$)");
      151    16654        %G$JIT_E;
      152    16716        %M$DCB (DCBN=MYDCB,STCLASS="BASED(DCB$)");
      153    16767        %KNA$SSN (STCLASS="BASED(SSN$)");
      154    16850        %KN$IOP (STCLASS=BASED);
      155    17023        %G$DCBTABLE;
      156    17034
      157    17035        /* Pointer references */
      158    17036    1   DCL G$JIT$ PTR SYMREF READONLY;
      159    17037    1   DCL G$ROS$ PTR SYMREF READONLY;
      160    17038
      161    17039        /* Error codes */
      162    17040        %VLP_ERRCODE (FPTN=ENO_IOP, ERR#=%E$NO_IOP,
      163    17041                     STCLASS=CONSTANT, FCG=KN, MID=A, MON='1'B, SEV=G_SEV_ERROR#);
      164    17087        %VLP_ERRCODE (FPTN=ENOLDCT, ERR#=%E$NOLDCT,
      165    17088                     STCLASS=CONSTANT, FCG=KN, MID=A, MON='1'B, SEV=G_SEV_ERROR#);
      166    17134        %VLP_ERRCODE (FPTN=ENOTCTX, ERR#=%E$NOTCTX,
      167    17135                     STCLASS=CONSTANT, FCG=KN, MID=A, MON='1'B, SEV=G_SEV_ERROR#);
      168    17181        %VLP_ERRCODE (FPTN=ENORTE, ERR#=%E$NORTE,
      169    17182                     STCLASS=CONSTANT, FCG=KN, MID=A, MON='1'B, SEV=G_SEV_ERROR#);
      170    17228        %VLP_ERRCODE (FPTN=EBAD_DCB_RES, ERR#=%E$INVRES,
      171    17229                     STCLASS=CONSTANT, FCG=KN, MID=A, MON='1'B, SEV=G_SEV_ERROR#);
      172    17275        %VLP_ERRCODE (FPTN=EBAD_ORG, ERR#=%E$BAD_ORG,
      173    17276                     STCLASS=CONSTANT, FCG=KN, MID=A, MON='1'B, SEV=G_SEV_ERROR#);
      174    17322        %VLP_ERRCODE (FPTN=ENET_ADDR, ERR#=%E$NET_ADDR,
      175    17323                     STCLASS=CONSTANT, FCG=KN, MID=A, MON='1'B, SEV=G_SEV_ERROR#);
      176    17369        %VLP_ERRCODE (FPTN=EAPE_SSN, ERR#=%E$APE_SSN,
      177    17370                     STCLASS=CONSTANT, FCG=KN, MID=A, MON='1'B, SEV=G_SEV_ERROR#);
      178    17416        %VLP_ERRCODE (FPTN=EDCB_CLOSED, ERR#=%E$DCBCLOSED,
      179    17417                     STCLASS=CONSTANT, FCG=KN, MID=A, MON='1'B, SEV=G_SEV_ERROR#);
      180    17463        %VLP_ERRCODE (FPTN=EDCB_OPEN, ERR#=%E$DCBOPEN,
      181    17464                     STCLASS=CONSTANT, FCG=KN, MID=A, MON='1'B, SEV=G_SEV_ERROR#);
      182    17510        %VLP_ERRCODE (FPTN=ERR_ORGNOTCOM, ERR#=%E$ORGNOTCOM,
      183    17511                     STCLASS=CONSTANT, FCG=KN, MID=A, MON='1'B, SEV=G_SEV_ERROR#);
PL6.E3A0      #001=KNA$OPEN File=KNA$APE.:E05TSI                                 WED 07/30/97 00:55 Page:8
      184    17557
      185    17558        %VLP_SCODE (FPTN=SCR_UNEXP,FCG=KN,MID=A,ERR#=%S$UNEXPRESP,
      186    17559                       MON='1'B,SEV=G_SEV_SCREECH#,STCLASS=CONSTANT);
      187    17620        /*S* SCREECH_CODE: KNA-S$UNEXPRESP
      188    17621             TYPE: SCREECH
      189    17622             MESSAGE: Unexpected respone from lower layers.
      190    17623             REMARKS: The session layer returned something we did not expect.
      191    17624         */
      192    17625
      193    17626        /* Symrefs */
      194    17627        %K$RWPARM (NAME=KNA_RWPARM_CON,STCLASS=SYMREF);
      195    17943        %GATE (FPTN=KNA_LNKSSN,STCLASS=SYMREF);
      196    17962        %VLP_WINDOW (FPTN=KNA_WINDOW,STCLASS=SYMREF);
      197    18006        %KN$NETPARM (NAME=KN_NETPARM_INIT,STCLASS=SYMREF);
      198    18159    1   DCL KNA_WINDOW_TL CHAR(2) SYMREF;
      199    18160    1   DCL KN_NODE# UBIN SYMREF;
      200    18161
      201    18162        /* Constants */
      202    18163    1   DCL NUMBERS CHAR(0) CONSTANT INIT('0123456789');
      203    18164    1   DCL LGNSTR CHAR(SGN.LOGON.LGNSIZ) BASED;
      204    18165        %EJECT;
PL6.E3A0      #001=KNA$OPEN File=KNA$APE.:E05TSI                                 WED 07/30/97 00:55 Page:9
      205    18166        /*   Get the address of the DCB by indexing into the ROSeg tables and
      206    18167        check DCB parameters.  The only thing to check right now is for a
      207    18168        valid resource of 'HOnn' or 'MEnn'.
      208    18169        */
      209    18170
      210    18171    1      DCB$ = G$ROS.DCBPTR$ -> G$DCBTABLE(DCBNUMBER);
      211    18172
      212    18173    1      IF MYDCB.FCD
      213    18174    2      THEN DO;
      214    18175    2           ERROR = EDCB_OPEN;
      215    18176    2           ALTRETURN;
      216    18177    2           END;
      217    18178        /*E* ERROR: KNA-E$DCBOPEN
      218    18179             MESSAGE: That DCB is already open.
      219    18180        */
      220    18181
      221    18182    1      RESTYPE = SUBSTR(MYDCB.RES,0,2);
      222    18183    1      CALL INDEX(I,' ',MYDCB.RES);
      223    18184    1      IF I = 0 OR I = 1 OR I = 3 OR (I = 4 AND RESTYPE ~= 'UC')
      224    18185    1        OR (I = 2 AND SUBSTR(MYDCB.RES,2,2) ~= '  ')
      225    18186    2      THEN DO;
      226    18187    2   BADRES: ;
      227    18188    2           ERROR = EBAD_DCB_RES;
      228    18189    2           ALTRETURN;
      229    18190    2           END;
      230    18191    1      IF I = 4
      231    18192    2      THEN DO;
      232    18193    2           CALL INDEX(I,SUBSTR(MYDCB.RES,2,1),NUMBERS) ALTRET (BADRES);
      233    18194    2           CALL INDEX(I,SUBSTR(MYDCB.RES,3,1),NUMBERS) ALTRET (BADRES);
      234    18195    2           CALL CHARBIN(STRM,SUBSTR(MYDCB.RES,2,2));
      235    18196    2           END;
      236    18197    1      ELSE
      237    18198    1           STRM = 1;
      238    18199
      239    18200    1      UCSTREAM = '0'B;
      240    18201    1      NEWSTREAM = '1'B;
      241    18202        /*N* DCBS - More validation of parameters and support of further ORGs
PL6.E3A0      #001=KNA$OPEN File=KNA$APE.:E05TSI                                 WED 07/30/97 00:55 Page:10
      242    18203        must be done here.
      243    18204        */
      244    18205
      245    18206        %EJECT;
PL6.E3A0      #001=KNA$OPEN File=KNA$APE.:E05TSI                                 WED 07/30/97 00:55 Page:11
      246    18207    2      DO SELECT(RESTYPE);
      247    18208    2           SELECT ('HO');
      248    18209    2           DCB$->MYDCB.DDEV.RES = %G_DDEV_RES_HO#;
      249    18210    2           IF DCB$->MYDCB.RLCID ~= '0'B
      250    18211    2           THEN NETWORK_ADDR = DCB$->MYDCB.RLCID;
      251    18212    2           ELSE NETWORK_ADDR = G$ROS.DCBPTR$->G$DCBTABLE(%G_M$LM#)->MYDCB.RLCID;
      252    18213    2           SELECT ('LG');
      253    18214    2           DCB$->MYDCB.DDEV.RES = %G_DDEV_RES_LG#;
      254    18215    2           IF ADDR(LGN_) = ADDR(NIL)
      255    18216    3           THEN DO;
      256    18217    3                ERROR = EBAD_DCB_RES;
      257    18218    3                ALTRETURN;
      258    18219    3                END;
      259    18220    2           SGN = '0'B;
      260    18221    2           SGN.FCN = IGA_SGN;
      261    18222    2           SGN.TERMINAL_ID.TTYP = %KLTY_PROG#;
      262    18223    2           SGN.TERMINAL_ID.TERMID = G$JIT.UNAME;
      263    18224    2           SGN.USER.SYSID = G$JIT.SYSID;
      264    18225    2           SGN.NMID = G$JIT.USR#;
      265    18226    2           SGN.LOGON.LGNSIZ = VBOUND(LGN_) + 1;
      266    18227    2           SGN.LOGON.LGNTXT = VBASE(LGN_)->LGNSTR;
      267    18228    2           SGN.NODE = KN_NODE#;
      268    18229    2           SGN.TERMINAL_ID.TERM.CHANNEL = G$JIT.SYSID;
      269    18230
      270    18231    2           SELECT ('UC');
      271    18232    2           IF MYDCB.ORG = %G_ORG_SE#
      272    18233    3           THEN DO;
      273    18234    3                ERROR = EBAD_ORG;
      274    18235    3                ALTRETURN;
      275    18236    3                END;
      276    18237        /*E* ERROR: KNA-E$BAD_ORG-E
      277    18238             MESSAGE:ORG = SE is not available to FPRGs.
      278    18239        */
      279    18240
      280    18241    2           I = G$ROS.NUMDCBS;
      281    18242    3           DO WHILE (I>=0);
      282    18243    3                IF DCBADDR(I) ~= ADDR(NIL)
PL6.E3A0      #001=KNA$OPEN File=KNA$APE.:E05TSI                                 WED 07/30/97 00:55 Page:12
      283    18244    3                THEN IF DCBADDR(I)->MYDCB.FCD AND DCBADDR(I)->MYDCB.STRM = STRM
      284    18245    3                       AND SUBSTR(DCBADDR(I)->MYDCB.RES,0,2) = 'UC'
      285    18246    4                     THEN DO;
      286    18247    4                          NEWSTREAM = '0'B;
      287    18248    5                          DO CASE (MYDCB.ORG);
      288    18249
      289    18250    5                           CASE (%G_ORG_FORM#,%G_ORG_SE#);
      290    18251    5                             IF MYDCB.ORG ~= DCBADDR(I)->MYDCB.ORG
      291    18252    5                             THEN GOTO SET_BAD_ORG;
      292    18253
      293    18254    5                           CASE (ELSE);
      294    18255    5                             IF DCBADDR(I)->MYDCB.ORG = %G_ORG_SE# OR
      295    18256    5                               DCBADDR(I)->MYDCB.ORG = %G_ORG_FORM#
      296    18257    6                             THEN DO;
      297    18258    6   SET_BAD_ORG:                   ;
      298    18259    6                                  ERROR = ERR_ORGNOTCOM;
      299    18260    6                                  ALTRETURN;
      300    18261    6                                  END;
      301    18262    5                             END/*do case*/;
      302    18263    4                          END/*do if same uc stream*/;
      303    18264    3                I = I - 1;
      304    18265    3                END/*do while*/;
      305    18266
      306    18267        /*E* ERROR: KNA-%E$ORGNOTCOM-C
      307    18268             MESSAGE: The ORG is not compatible.
      308    18269             MESSAGE1: Another DCB is already open to the same stream as the one
      309    18270                       you are opening, but one has ORG=FORM and one does not.
      310    18271        */
      311    18272
      312    18273    2           DCB$->MYDCB.DDEV.RES = %G_DDEV_RES_UC#;
      313    18274    2           NETWORK_ADDR = G$ROS.DCBPTR$->G$DCBTABLE(%G_M$ME#)->MYDCB.RLCID;
      314    18275    2           UCSTREAM = '1'B;
      315    18276
      316    18277    2           SELECT ('NA');
      317    18278    2           DCB$->MYDCB.DDEV.RES = %G_DDEV_RES_NA#;
      318    18279    2           NETWORK_ADDR = '0'B;
      319    18280    2           NETWORK_ADDR.NODE# = KN_NODE#;
PL6.E3A0      #001=KNA$OPEN File=KNA$APE.:E05TSI                                 WED 07/30/97 00:55 Page:13
      320    18281
      321    18282    2           SELECT (ELSE);
      322    18283        /*E*     ERROR: KNA-E$INVRES
      323    18284                 MESSAGE: An invalid resource expressed on OPEN
      324    18285        */
      325    18286
      326    18287    2      ERROR = EBAD_DCB_RES;
      327    18288    2      ALTRETURN;
      328    18289    2           END;
      329    18290
      330    18291    1      IF NETWORK_ADDR.LDCTX = 0 AND RESTYPE ~= 'NA' AND RESTYPE ~= 'LG'
      331    18292    2      THEN DO;
      332    18293
      333    18294
      334    18295    2           ERROR = ENET_ADDR;
      335    18296    2           ALTRETURN;
      336    18297    2           END;
      337    18298        /*E*     ERROR: KNA-E$NET_ADDR
      338    18299                 MESSAGE: No network address has been specified for this resource.
      339    18300        */
      340    18301        %EJECT;
PL6.E3A0      #001=KNA$OPEN File=KNA$APE.:E05TSI                                 WED 07/30/97 00:55 Page:14
      341    18302        /*
      342    18303             It looks like it is perfectly valid to open this DCB for user
      343    18304        I/O now.  We must check to see if there already is an APE network
      344    18305        connection to the specified network address.  If so, then this DCB
      345    18306        can just be marked OPENed and we can return.  If such a network
      346    18307        connection doesn't exist we'll create it by setting up a Session.
      347    18308             The means we use to find out if there is such a network connection
      348    18309        already is to scan the DCB table for a DCB which is going to the same
      349    18310        place as this one.  If so, we're done.
      350    18311        */
      351    18312
      352    18313        /*N* OPEN - We should probably speed up the recognition of an already
      353    18314        existent network connection by having a pointer in the user's JIT to
      354    18315        APE SSN contexts linked together.  We'll probably need it for other
      355    18316        things anyway.
      356    18317        */
      357    18318
      358    18319    1      OPNDCB$ = ADDR(NIL);
      359    18320
      360    18321    1      IF RESTYPE ~= 'LG'
      361    18322    2      THEN DO;
      362    18323    2   FINDOPNDCB:
      363    18324    3           DO I = 1 TO G$ROS.NUMDCBS;
      364    18325    3                TEMP$ = G$ROS.DCBPTR$ -> G$DCBTABLE(I);
      365    18326
      366    18327    3                IF TEMP$ ~= ADDR(NIL)
      367    18328    3                THEN IF TEMP$ -> MYDCB.FCD = '1'B
      368    18329    3                     THEN IF SUBSTR(TEMP$ -> MYDCB.RES,0,LENGTHC(RESTYPE)) = RESTYPE
             18329                              AND
      369    18330    3                            TEMP$->MYDCB.RLCID = NETWORK_ADDR
      370    18331    4                          THEN DO;
      371    18332    4                               OPNDCB$ = TEMP$;
      372    18333    4                               EXIT FINDOPNDCB;
      373    18334    4                               END;
      374    18335
      375    18336    3                END FINDOPNDCB;            /* DO I = 1 TO G$ROS.NUMDCBS          */
      376    18337    2           END/*do if restype~=LG */;
PL6.E3A0      #001=KNA$OPEN File=KNA$APE.:E05TSI                                 WED 07/30/97 00:55 Page:15
      377    18338        %EJECT;
PL6.E3A0      #001=KNA$OPEN File=KNA$APE.:E05TSI                                 WED 07/30/97 00:55 Page:16
      378    18339        /* If a DCB was found which meets the requirements for this DCB's OPEN.
      379    18340        All we have to do is fetch the SSN$ address and increment the OPEN DCB
      380    18341        counter.
      381    18342        */
      382    18343
      383    18344    1      IF OPNDCB$ ~= ADDR(NIL)
      384    18345    2      THEN DO;
      385    18346    2           SSN$ = OPNDCB$ -> MYDCB.SSN$;
      386    18347    2           KNA$SSN.NUMDCBS = KNA$SSN.NUMDCBS+1;
      387    18348    2           END;
      388    18349
      389    18350        /*
      390    18351             We don't already have a SSN context for this network connection.
      391    18352        Now we have to make one so we must get some context blocks and establish
      392    18353        the connection with Session.
      393    18354        */
      394    18355    2      ELSE DO;
      395    18356    2           CALL KNA$GETSSN (SSN$)
      396    18357    3           WHENALTRETURN DO;
      397    18358
      398    18359        /*E*     ERROR: KNA-E$APE_SSN
      399    18360                 MESSAGE: Unable to establish a network Session for this DCB
      400    18361        */
      401    18362
      402    18363    3                ERROR = EAPE_SSN;
      403    18364    3                ALTRETURN;
      404    18365    3                END;
      405    18366
      406    18367    2           KNA$SSN = '0'B;
      407    18368    2           IF DCBNUMBER = %G_M$LM# OR DCBNUMBER = %G_M$ME#
      408    18369    2           THEN
      409    18370    2                KNA$SSN.FLAGS.PRIMARY = '1'B;
      410    18371    2           KNA$SSN.IOPQ$ = ADDR(NIL);
      411    18372    2           KNA$SSN.STATE = %KNA_STATE_WSSNINIT#;
      412    18373    2           KNA$SSN.NUMDCBS = 1;
      413    18374    2           KNA$SSN.USER# = G$JIT.USR#;
      414    18375    2           KNA$SSN.IOPRD$ = ADDR(NIL);
PL6.E3A0      #001=KNA$OPEN File=KNA$APE.:E05TSI                                 WED 07/30/97 00:55 Page:17
      415    18376    2           KNA$SSN.RLCID = NETWORK_ADDR;
      416    18377
      417    18378        %EJECT;
PL6.E3A0      #001=KNA$OPEN File=KNA$APE.:E05TSI                                 WED 07/30/97 00:55 Page:18
      418    18379        /*
      419    18380             Now get an LDCT and initialize it for Session
      420    18381        */
      421    18382
      422    18383    2           KN$NETPARM = '0'B;
      423    18384    2           CALL KNA$GETLDCT (KN$NETPARM.LDCT$)
      424    18385    3           WHENALTRETURN DO;
      425    18386
      426    18387        /*E*     ERROR: KNA-E$NOLDCT
      427    18388                 MESSAGE: No LDCT for this network Session is available
      428    18389        */
      429    18390
      430    18391    3                ERROR = ENOLDCT;
      431    18392    3                GOTO RLSSSN_N_ALTRET;
      432    18393    3                END;
      433    18394
      434    18395    2           KNA$SSN.LDCT$ = KN$NETPARM.LDCT$;
      435    18396    2           KN$NETPARM.SLDCT$ = KN$NETPARM.LDCT$;
      436    18397
      437    18398    2           KN$LDCT.USER# = G$JIT.USR#;
      438    18399    2           KN$LDCT.USER_ENTRY$ = ENTADDR(KNA$IN);
      439    18400    2           KN$LDCT.CONN_TYPE = %KN_CNTYPE_APE;
      440    18401    2           KN$LDCT.UID$ = SSN$;
      441    18402
      442    18403        /* If this is a LOGON talk to NODE ADMIN */
      443    18404    2           IF RESTYPE='LG'
      444    18405    3           THEN DO;
      445    18406    3                CALL KNB$GETRESP (ADDR(SGN),SIZEC(SGN),ADDR(SGNRSP),SIZEC(SGNRSP));
      446    18407    3                IF SGNRSP.ERRCODE ~= '0'B
      447    18408    4                THEN DO;
      448    18409    4                     ERROR = SGNRSP.ERRCODE;
      449    18410    4                     GOTO RLSDCT_N_ALTRET;
      450    18411    4                     END;
      451    18412    3                NETWORK_ADDR = SGNRSP.RLCID;
      452    18413    3                END;
      453    18414
      454    18415    2           FPT_CONNECT.RLCID = NETWORK_ADDR;
PL6.E3A0      #001=KNA$OPEN File=KNA$APE.:E05TSI                                 WED 07/30/97 00:55 Page:19
      455    18416    2           FPT_CONNECT.TERMINAL_ID.TTYP = %KLTY_PROG#;
      456    18417    2           FPT_CONNECT.USER.SYSID = G$JIT.SYSID;
      457    18418    2           IF RESTYPE = 'NA'
      458    18419    3           THEN DO;
      459    18420    3                FPT_CONNECT.TERMINAL_ID.TERMID = G$JIT.UNAME;
      460    18421    3                FPT_CONNECT.RESOURCE = 'NODADM';
      461    18422    3                END;
      462    18423    2           FPT_CONNECT.TYPE = %KN_CON_TYP_SESS;
      463    18424    2           FPT_CONNECT.SERVICE = 0;
      464    18425    2           RWPARM = KNA_RWPARM_CON;
      465    18426    2           RWPARM.STR = MYDCB.STRM;
      466    18427    2           CALL KNA$BUILD_VDO (%KV_VDO_FNC_UPDRELDVC,RWPARM,HDR);
      467    18428    2           KN$NETPARM.UHDR$ = ADDR(HDR);
      468    18429    2           KN$NETPARM.UHDRSZ = RWPARM.UHDRSZ;
      469    18430    2           KN$NETPARM.FPT$ = ADDR(FPT_CONNECT);
      470    18431
      471    18432        %EJECT;
PL6.E3A0      #001=KNA$OPEN File=KNA$APE.:E05TSI                                 WED 07/30/97 00:55 Page:20
      472    18433        /*
      473    18434             Loop to reattempt Session connection depending upon resource type
      474    18435        errors
      475    18436        */
      476    18437                %LOCK (G=KNA_LNKSSN);
      477    18444
      478    18445    3           DO WHILE ('1'B);
      479    18446    3                KN$NETPARM.FUNCTION = %KN_FCN_INIT;
      480    18447    3                CALL KNS$SEND (KN$NETPARM);
      481    18448
      482    18449    3                IF KN$NETPARM.ERRCODE = 0
      483    18450    3                THEN EXIT;
      484    18451
      485    18452    4                DO SELECT (KN$NETPARM.ERRCODE);
      486    18453
      487    18454    4                     SELECT (%KN_ERR_NOTCTX);
      488    18455    4                     ERROR = ENOTCTX;
      489    18456    4                     GOTO UNLOCK_N_ALTRET;
      490    18457
      491    18458    4                     SELECT (%KN_ERR_NORTE);
      492    18459    4                     ERROR = ENORTE;
      493    18460    4   UNLOCK_N_ALTRET:
      494    18461                          %UNLOCK (G=KNA_LNKSSN);
      495    18468    4   RLSSSN_N_ALTRET:
      496    18469    4                     CALL KNA$RLSLDCT(KN$NETPARM.LDCT$);
      497    18470    4   RLSDCT_N_ALTRET:
      498    18471    4                     CALL KNA$RLSSSN(SSN$);
      499    18472    4                     ALTRETURN;
      500    18473
      501    18474        /*E*     ERROR: KNA-E$NOTCTX
      502    18475                 MESSAGE: No transport context is available.
      503    18476        */
      504    18477
      505    18478        /*E*     ERROR: KNA-E$NORTE
      506    18479                 MESSAGE: No network connection is available
      507    18480        */
      508    18481
PL6.E3A0      #001=KNA$OPEN File=KNA$APE.:E05TSI                                 WED 07/30/97 00:55 Page:21
      509    18482
      510    18483        /*
      511    18484             Try again when a Circular Queue frees up causing this user to run
      512    18485        again.
      513    18486        */
      514    18487
      515    18488    4                     SELECT (%KN_ERR_NOQ,%KN_ERR_NOQ2);
      516    18489    4                     KNA$SSN.FLAGS.CQ = '1'B;
      517    18490    4                     CALL KNA$REG_USER(%GH_EVCBL,SSN$);
      518    18491    4                     KNA$SSN.FLAGS.CQ = '0'B;
      519    18492
      520    18493    4                     SELECT (ELSE);
      521    18494    4                CALL SCREECH (SCR_UNEXP);
      522    18495    4                ALTRETURN;
      523    18496
      524    18497    4                     END /* End cases */;
      525    18498    3                END;                       /* DO WHILE ('1'B);                   */
      526    18499        %EJECT;
PL6.E3A0      #001=KNA$OPEN File=KNA$APE.:E05TSI                                 WED 07/30/97 00:55 Page:22
      527    18500        /*
      528    18501             We have made a good contact with Session and he is attempting to
      529    18502        establish the network connection for us.  We must now REG the user and
      530    18503        wait for Session to tell us about success or failure.
      531    18504        */
      532    18505
      533    18506    2           CALL KNA$REG_USER(%GH_EVCW,SSN$);
      534    18507    2           IF KNA$SSN.FLAGS.SSNERR = '1'B
      535    18508    3           THEN DO;
      536    18509    3                ERROR = KNA$SSN.ERROR;
      537    18510
      538    18511    3                IF KNA$SSN.STATE = %KNA_STATE_WSSNINIT#
      539    18512    3                THEN GOTO UNLOCK_N_ALTRET; /* no INIT_ACK, or a failure one.     */
      540    18513    3                GOTO CLOSE_IT;   /* probably a disconnect right after INIT_ACK   */
      541    18514    3                END;
      542    18515
      543    18516    2           KNA$SSN.RLCID = KN$LDCT.RLCID;
      544    18517
      545    18518        /*
      546    18519             We now have a valid network connection for this user.  Send an
      547    18520        OPEN message to the other end and wait for a positive reply before
      548    18521        returning to this user.  Then we are truly open.
      549    18522        */
      550    18523
      551    18524    2           RWPARM = KNA_RWPARM_CON;
      552    18525    2           CALL KNA$FCNOU(%KV_VDO_FNC_OPNSSN_RQS,KNA$SSN,RWPARM,ERR);
      553    18526    2           KNA$SSN.STATE = %KNA_STATE_ACTIVE#;
      554    18527                %UNLOCK (G=KNA_LNKSSN);
      555    18534    2           END/*do if opndcb$ = nil*/;
      556    18535
      557    18536        %EJECT;
PL6.E3A0      #001=KNA$OPEN File=KNA$APE.:E05TSI                                 WED 07/30/97 00:55 Page:23
      558    18537        /*   Whether we had to get a new set of SSN/LDCT contexts or not we
      559    18538        now come here to finish the final tidbits of DCB opening.
      560    18539        */
      561    18540
      562    18541    1      KNA$SSN.EVENT = MYDCB.EVENT;
      563    18542    1      MYDCB.SSN$ = SSN$;
      564    18543    1      MYDCB.DDEV.CG = KNA$SSN.FLAGS.CG;
      565    18544    1      MYDCB.STRM = STRM;
      566    18545    1      MYDCB.FCD = '1'B;
      567    18546    1      MYDCB.FCI = '1'B;
      568    18547    1      MYDCB.FFLG = 'FF'X;
      569    18548
      570    18549           %LOCK (G=KNA_LNKSSN);
      571    18556    1      IF NEWSTREAM AND STRM ~= 1 AND UCSTREAM
      572    18557    2      THEN DO;
      573    18558    2           RWPARM = KNA_RWPARM_CON;
      574    18559    2           RWPARM.STR = 1;
      575    18560    2           RWPARM.STRID = STRM;
      576    18561    2           CALL KNA$FCNOU(%KV_VDO_FNC_DCLSTR,KNA$SSN,RWPARM,ERR);
      577    18562    2           RWPARM.STR = STRM;
      578    18563    2           IF ADDR(VLP_WINDOW)~= ADDR(NIL)
      579    18564    3           THEN DO;
      580    18565    3                WINDOW = VLP_WINDOW;
      581    18566    3                CALL KNA$CONV_STR(WINDOW,ERROR);
      582    18567    3                END;
      583    18568    2           ELSE
      584    18569    2                WINDOW = KNA_WINDOW;
      585    18570    2           RWPARM.MSG$ = ADDR(WINDOW);
      586    18571    2           RWPARM.MSGSZ = SIZEC(WINDOW);
      587    18572    2           RWPARM.V$ = ADDR(KNA_WINDOW_TL);
      588    18573    2           RWPARM.VSZ = SIZEC (KNA_WINDOW_TL);
      589    18574    2           IF ADDR(VLP_WINDOW) ~= ADDR(NIL)
      590    18575    2             OR MYDCB.ORG = %G_ORG_FORM#
      591    18576    2           THEN CALL KNA$FCNOU(%KV_VDO_FNC_PRM_SET,KNA$SSN,RWPARM,ERR);
      592    18577    2           RWPARM = KNA_RWPARM_CON;
      593    18578    2           RWPARM.STR = STRM;
      594    18579    2           IF MYDCB.ORG = %G_ORG_FORM#
PL6.E3A0      #001=KNA$OPEN File=KNA$APE.:E05TSI                                 WED 07/30/97 00:55 Page:24
      595    18580    2           THEN
      596    18581    2                RWPARM.ORG = %KV#VD_ORG_FORM;
      597    18582    2           ELSE IF MYDCB.ORG = %G_ORG_X364#
      598    18583    2                THEN
      599    18584    2                     RWPARM.ORG = %KV#VD_ORG_X364;
      600    18585    2                ELSE IF MYDCB.ORG = %G_ORG_SE#
      601    18586    2                     THEN
      602    18587    2                          RWPARM.ORG = %KV#VD_ORG_SE;
      603    18588    2                     ELSE
      604    18589    2                          RWPARM.ORG = %KV#VD_ORG_UR;
      605    18590    2           IOP$ = ADDR(NIL);
      606    18591    2           CALL KNA$GETIOP(IOP$)
      607    18592    3           WHENRETURN DO ;
      608    18593    3                RWPARM.MRKTYP = %KV_VDOMRKTYP_ENDACK;
      609    18594    3                KNA$SSN.IOPQ$ = IOP$;
      610    18595    3                KNA$SSN.FLAGS.RRRPND = '1'B;
      611    18596    3                END;
      612    18597    3           WHENALTRETURN DO;
      613    18598    3                ERROR = ENO_IOP;
      614    18599    3                GOTO KNA_CLOSE;
      615    18600    3                END;
      616    18601    2           CALL KNA$FCNOU(%KV_VDO_FNC_OPNSTR,KNA$SSN,RWPARM,ERR);
      617    18602    2           IF(IOP$ ~= ADDR(NIL))
      618    18603    3           THEN DO;
      619    18604    3                CALL KNA$REG_USER(%GH_EVCW,SSN$)
      620    18605    4                WHENRETURN DO;
      621    18606    4                     ERROR = IOP$->KN$IOP.ERRCODE;
      622    18607    4                     END;
      623    18608    4                WHENALTRETURN DO;
      624    18609    4                     ERROR = KNA$SSN.ERROR;
      625    18610    4                     END;
      626    18611    3                KNA$SSN.IOPQ$ = ADDR(NIL);
      627    18612    3                CALL KNA$RLSIOP(IOP$);
      628    18613    3                IF (ERROR ~= '0'B)
      629    18614    3                THEN GOTO KNA_CLOSE;
      630    18615    3                END;
      631    18616    2           END;
PL6.E3A0      #001=KNA$OPEN File=KNA$APE.:E05TSI                                 WED 07/30/97 00:55 Page:25
      632    18617           %UNLOCK (G=KNA_LNKSSN);
      633    18624
      634    18625    1      MYDCB.RLCID = KNA$SSN.RLCID;
      635    18626    1      RETURN;
      636    18627        %EJECT;
PL6.E3A0      #001=KNA$OPEN File=KNA$APE.:E05TSI                                 WED 07/30/97 00:55 Page:26
      637    18628    1   KNA$TRUNC: ENTRY (DCBNUMBER,ERROR) ALTRET;
      638    18629    1      CLOSING = '0'B;
      639    18630    1      GOTO MAINLINE;
      640    18631
      641    18632    1   KNA_CLOSE: ;
      642    18633    1      CLOSING = '1'B;
      643    18634    1      GOTO INTERNAL_CLOSE;
      644    18635
      645    18636    1   KNA$CLOSE: ENTRY (DCBNUMBER,ERROR) ALTRET;
      646    18637    1      CLOSING = '1'B;
      647    18638    1   MAINLINE: ;
      648    18639
      649    18640    1      DCB$ = G$ROS.DCBPTR$->G$DCBTABLE(DCBNUMBER);
      650    18641    1      SSN$ = MYDCB.SSN$;
      651    18642    1      ERROR = '0'B;                        /* so we know whether to ALTRETURN    */
      652    18643
      653    18644    1      IF NOT MYDCB.FCD                     /* Dcb is closed                      */
      654    18645    2      THEN DO;
      655    18646    2           ERROR = EDCB_CLOSED;
      656    18647    2           ALTRETURN;
      657    18648    2           END;
      658    18649        /*E* ERROR: KNA-E$DCBCLOSED
      659    18650             MESSAGE: That DCB is already closed.
      660    18651        */
      661    18652
      662    18653           %LOCK (G=KNA_LNKSSN);
      663    18660
      664    18661                       /* If there is a NOWAIT request kill it if it is for this dcb  */
      665    18662    1      IF KNA$SSN.IOPRD$ ~= ADDR(NIL)
      666    18663    1      THEN
      667    18664    1           IF KNA$SSN.IOPRD$->KN$IOP.DCB$ = DCB$
      668    18665    2           THEN DO;
      669    18666    2                RWPARM = KNA_RWPARM_CON;
      670    18667    2                RWPARM.MRKTYP = %KV_VDOMRKTYP_ENDACK;
      671    18668    2                RWPARM.STR = MYDCB.STRM;
      672    18669    2                CALL KNA$FCNOU(%KV_VDO_FNC_RQSDAT,KNA$SSN,RWPARM,ERR)
      673    18670    3                WHENRETURN DO;
PL6.E3A0      #001=KNA$OPEN File=KNA$APE.:E05TSI                                 WED 07/30/97 00:55 Page:27
      674    18671    3                     KNA$SSN.FLAGS.RRRPND = '1'B;
      675    18672    3                     CALL KNA$REG_USER(%GH_EVCW,SSN$);
      676    18673    3                     END;
      677    18674    2                IF KNA$SSN.IOPRD$ ~= ADDR(NIL)
      678    18675    2                THEN
      679    18676    2                     CALL KNA$RLSIOP(KNA$SSN.IOPRD$);
      680    18677    2                KNA$SSN.IOPRD$ = ADDR(NIL);
      681    18678    2                END;
      682    18679
      683    18680    1      IF NOT CLOSING THEN GOTO UNLOCK_N_RTN;
      684    18681
      685    18682    1   INTERNAL_CLOSE: ;
      686    18683    1      MYDCB.FCD = '0'B;
      687    18684    1      MYDCB.SSN$ = ADDR(NIL);
      688    18685    1      MYDCB.RLCID = '0'B;
      689    18686    1      KNA$SSN.NUMDCBS = KNA$SSN.NUMDCBS - 1;
      690    18687    1      IF MYDCB.DDEV.RES = %G_DDEV_RES_UC#
      691    18688    2      THEN DO;
      692    18689    2           I = G$ROS.NUMDCBS;
      693    18690    2           NEWSTREAM = '0'B;
      694    18691    3           DO WHILE (I>0);
      695    18692    3                IF DCBADDR(I)~=ADDR(NIL)
      696    18693    3                THEN
      697    18694    3                     IF DCBADDR(I)->MYDCB.FCD
      698    18695    3                       AND MYDCB.STRM = DCBADDR(I)->MYDCB.STRM
      699    18696    3                       AND DCBADDR(I)->MYDCB.DDEV.RES = %G_DDEV_RES_UC#
      700    18697    3                     THEN
      701    18698    3                          NEWSTREAM = '1'B;
      702    18699    3                I = I - 1;
      703    18700    3                END;
      704    18701    2           IF NOT NEWSTREAM
      705    18702    3           THEN DO;
      706    18703    3                RWPARM = KNA_RWPARM_CON;
      707    18704    3                RWPARM.STR = MYDCB.STRM;
      708    18705    3                IF (MYDCB.DISP~=%G_DISP_KEEP#) AND NOT(G$JIT.JUNK.KEEP)
      709    18706    3                THEN RWPARM.VDOFLGS.DLTSTR = '1'B;
      710    18707    3                CALL KNA$FCNOU(%KV_VDO_FNC_CLSSTR,KNA$SSN,RWPARM,ERR);
PL6.E3A0      #001=KNA$OPEN File=KNA$APE.:E05TSI                                 WED 07/30/97 00:55 Page:28
      711    18708    3                END;
      712    18709    2           END;
      713    18710    1      IF KNA$SSN.FLAGS.MRKPND
      714    18711    2      THEN DO;
      715    18712    2           RWPARM = KNA_RWPARM_CON;
      716    18713    2           RWPARM.MRKTYP = %KV_VDOMRKTYP_MRK;
      717    18714    2           RWPARM.MARKER = KNA$SSN.MARKER;
      718    18715    2           CALL KNA$FCNOU(%KV_VDO_FNC_MRK,KNA$SSN,RWPARM,ERR);
      719    18716    2           KNA$SSN.FLAGS.MRKPND = '0'B;
      720    18717    2           END;
      721    18718    1      IF KNA$SSN.NUMDCBS ~= 0 THEN GOTO UNLOCK_N_RTN;
      722    18719
      723    18720    1   CLOSE_IT: ;                             /* entry for partially failed open    */
      724    18721    1      IF KNA$SSN.STATE = %KNA_STATE_TERM#
      725    18722
      726    18723    1      THEN I = %KN_FCN_TERM_ACK;
      727    18724    1      ELSE I = %KN_FCN_TERM;
      728    18725
      729    18726
      730    18727    1      FPT_TERM = '0'B;
      731    18728    1      KN$NETPARM = KN_NETPARM_INIT;
      732    18729    1      KN$NETPARM.FUNCTION = I;
      733    18730    1      KN$NETPARM.FPT$ = ADDR(FPT_TERM);
      734    18731    1      KN$NETPARM.LDCT$ = KNA$SSN.LDCT$;
      735    18732    1      KN$NETPARM.SLDCT$ = KN$NETPARM.LDCT$;
      736    18733
      737    18734    2      DO WHILE('1'B);
      738    18735    2           CALL KNS$SEND (KN$NETPARM);
      739    18736
      740    18737    2           IF KN$NETPARM.ERRCODE ~= %KN_ERR_NOQ
      741    18738    2           THEN
      742    18739    2                EXIT;
      743    18740
      744    18741    2           CALL KNA$REG_USER (%GH_EVCBL,SSN$);
      745    18742    2           END;
      746    18743    1      IF I = %KN_FCN_TERM
      747    18744    2      THEN DO;
PL6.E3A0      #001=KNA$OPEN File=KNA$APE.:E05TSI                                 WED 07/30/97 00:55 Page:29
      748    18745    2           KNA$SSN.STATE = %KNA_STATE_WTERM;
      749    18746    2           CALL KNA$REG_USER (%GH_EVCW,SSN$);
      750    18747    2           END;
      751    18748    1      CALL KNA$RLSLDCT (KNA$SSN.LDCT$);
      752    18749           %UNLOCK (G=KNA_LNKSSN);
      753    18756
      754    18757    1      CALL KNA$RLSSSN (SSN$);
      755    18758    1      RETURN;                              /* dont unlock twice                  */
      756    18759    1   UNLOCK_N_RTN: ;
      757    18760           %UNLOCK (G=KNA_LNKSSN);
      758    18767    1      IF ERROR = '0'B THEN RETURN;
      759    18768    1      ALTRETURN;
      760    18769
      761    18770    1   END KNA$OPEN;
      762    18771        %EOD;

PL6.E3A0      #001=KNA$OPEN File=KNA$APE.:E05TSI                                 WED 07/30/97 00:55 Page:30
--  Include file information  --

   K_SCODE_C.:E05TOU  is referenced.
   KV_GLBCNS_E.:E05TOU  is referenced.
   KV$VDO.:E05TOU  is referenced.
   K$RWPARM.:E05TOU  is referenced.
   KI_CP6.:E05TOU  is referenced.
   KL_AFCN_C.:E05TOU  is referenced.
   KL_SUPER_C.:E05TOU  is referenced.
   GF_LCP6_M.:E05TOU  is referenced.
   KL_MACRO_C.:E05TOU  is referenced.
   GH_SCHD_E.:E05TOU  is referenced.
   G_JIT_M.:E05TOU  is referenced.
   G_ROS_M.:E05TOU  is referenced.
   GH_LCP6_M.:E05TOU  is referenced.
   KI_ERRORS_C.:E05TOU  is referenced.
   KN_ERRORS_C.:E05TOU  is referenced.
   GU_LCP6_M.:E05TOU  is referenced.
   KNH_MACRO_C.:E05TOU  is referenced.
   KN_DATA_M.:E05TOU  is referenced.
   GH_GATE_M.:E05TOU  cannot be made into a system file and is referenced.
   KNA_MACRO_M.:E05TOU  is referenced.
   G_LCP6_E.:E05TOU  is referenced.
   F_ERRORS_C.:E05TOU  is referenced.
      No diagnostics issued in procedure KNA$OPEN.

   Procedure KNA$OPEN requires 2092 words for executable code.
   Procedure KNA$OPEN requires 206 words of local(AUTO) storage.

PL6.E3A0      #001=KNA$OPEN File=KNA$APE.:E05TSI                                 WED 07/30/97 00:55 Page:31

 Object Unit name= KNA$OPEN                                   File name= KNA$APE.:E05TOU
 UTS= JUL 30 '97 00:55:07.12 WED                              Compiler= PL-6/E31         Sev=      00
 SharedLib= :SHARED_LCP6_SYSTEM                               Alt SharedLib=


    ****  Control sections  ****

 Sect   Type Bound  Init  Size HexSiz  Section name
    0   Data  even  none     4      4  KNA$OPEN
    1  RoData even  UTS     38     26  KNA$OPEN
    2   Proc  even  none  2092    82C  KNA$OPEN
    3  RoData even  none     5      5  KNA$OPEN

    ****  Entry defs  ****

                              Check   Calling
                             calling  sequence
  Sect HexLoc Primary Altret sequence   type   Parms  Name
     2      0   yes    yes     yes      Std        4  KNA$OPEN
     2    613          yes     yes      Std        2  KNA$TRUNC
     2    621          yes     yes      Std        2  KNA$CLOSE
PL6.E3A0      #001=KNA$OPEN File=KNA$APE.:E05TSI                                 WED 07/30/97 00:55 Page:32

  ****  Entry refs  ****

         Check        Calling
        calling       sequence
Altret sequence SRef   type   Args  Name
 yes     yes           Std       1 KNA$GETSSN
 yes     yes           Std       1 KNA$GETLDCT
 yes     yes           Std       1 KNA$IN
 yes     yes           Std       4 KNB$GETRESP
 yes     yes           Std       1 GHH$UNLOCK
 yes     yes           Std       1 KNA$RLSSSN
         yes           Std       1 SCREECH
 yes     yes           Std       1 GHH$LOCK
 yes     yes           Std       1 KNS$SEND
 yes     yes           Std       4 KNA$FCNOU
 yes     yes           Std       1 KNA$RLSLDCT
 yes     yes           Std       2 KNA$REG_USER
 yes     yes           Std       1 KNA$GETIOP
 yes     yes           Std       1 KNA$RLSIOP
         yes           Std       3 KNA$BUILD_VDO
 yes     yes           Std       2 KNA$CONV_STR
                       nStd      0 X6A_AUTO_N
                       nStd      0 X6A_AALT
                       nStd      0 X6A_ARET

  ****  Data refs  ****

  Flags:  r = read only, s = secondary
Flgs Name                             Flgs Name                             Flgs Name
r    G$JIT$                           r    G$ROS$                                KNA_RWPARM_CON
     KNA_LNKSSN                            KNA_WINDOW                            KN_NETPARM_INIT
     KNA_WINDOW_TL                         KN_NODE#                         r    G$ROS$
PL6.E3A0      #001=KNA$OPEN File=KNA$APE.:E05TSI                                 WED 07/30/97 00:55 Page:33


        1        1        /*M* KNA$APE - Application Presentation Engine */
        2        2        /*T***********************************************************/
        3        3        /*T*                                                         */
        4        4        /*T* Copyright (c) Bull HN Information Systems Inc., 1997    */
        5        5        /*T*                                                         */
        6        6        /*T***********************************************************/
        7        7        /*X* PLM=3,IND=5,ENU=0,ECU=0 */
        8        8        /*P*
        9        9           NAME: KNA$APE
       10       10           PURPOSE:
       11       11                  This module translates user application requests into the
       12       12             proper Presentation layer communications protocols.
       13       13           DESCRIPTION:
       14       14                  This module contains the routines necessary to field an
       15       15             application's M$s READ, WRITE, OPEN, CLOSE on a DCB associated
       16       16             with another endpoint in the network.
       17       17        */
       18       18        /*F*
       19       19           NAME: KNA$OPEN
       20       20           PURPOSE:
       21       21                  To handle the open of a DCB connected to another program via
       22       22             the communications network.
       23       23           DESCRIPTION:
       24       24                  This routine does a validity check of the M$OPEN and sets up
       25       25             context associated with the user's DCB.  A call is made to the
       26       26             monitor's Session layer to establish contact with the proper
       27       27             endpoint for this DCB.
       28       28         */
       29       29        %EJECT;
PL6.E3A0      #001=KNA$OPEN File=KNA$APE.:E05TSI                                 WED 07/30/97 00:55 Page:34
       30       30        /*D*
       31       31           NAME: KNA$OPEN
       32       32           CALL:
       33       33                  CALL KNA$OPEN(DCBNUMBER,ERROR) ALTRET;
       34       34
       35       35                  Altreturns if an error is encountered during OPEN.
       36       36           PARAMETERS:
       37       37                  DCBNUMBER - The DCB number of the DCB to be opened.
       38       38                  ERROR - Error code returned if an error is encountered.
       39       39           INTERFACE:
       40       40                  KNA$GETLDCT - To get an LDCT for establishing a Session
       41       41                  KNA$RLSLDCT - Release an LDCT
       42       42                  KNS$SESSION - To establish a Session over the network
       43       43                  GHS$REG - To REG the current user until Session replies
       44       44                  KNA$GETSSN - To get an APE Session context
       45       45                  KNA$RLSSSN - Release an APE Session context
       46       46           ENVIRONMENT:
       47       47                  This routine is called from GFM$MCL with the DCBNUMBER set
       48       48             up and the OPEN FPT parameters already merged into the DCB.
       49       49           INPUT:
       50       50                  G$ROS
       51       51                     DCB table information
       52       52                     Network addresses for this user
       53       53           OUTPUT:
       54       54                  None.
       55       55           DESCRIPTION:
       56       56                  This routine finds the address of the DCB number passed and
       57       57             checks for any conflicts in the DCB parameters set.  If none, the
       58       58             resource information in the DCB is used to access an associated
       59       59             network address kept in the ROSeg.  If an APE context for this
       60       60             network address is not already established one is made and
       61       61             initialized.  If we already have at least one other DCB connected
       62       62             to the desired endpoint we just intialize some flags in the DCB,
       63       63             mark it OPENed, point it to the APE context and return to the user.
       64       64             After the APE context is initialized an LDCT for Session is also
       65       65             allocated and APE makes a call to Session to establish the network
       66       66             connection.  The user is REGged Queued for Access while we await
PL6.E3A0      #001=KNA$OPEN File=KNA$APE.:E05TSI                                 WED 07/30/97 00:55 Page:35
       67       67             a Session reply.  When Session replies positively an OPEN message
       68       68             is sent to the other end.
       69       69        */
       70       70        %EJECT;
PL6.E3A0      #001=KNA$OPEN File=KNA$APE.:E05TSI                                 WED 07/30/97 00:55 Page:36
       71       71
       72       72        KNA$OPEN: PROC (DCBNUMBER,ERROR,LGN_,VLP_WINDOW) ALTRET;

     72   2 000000  D380 0000 0000  xent KNA$OPEN        LNJ,B5   X6A_AUTO_N
          2 000003       00CE 0004                       DC       206,4

       73       73
       74       74        %INCLUDE F_ERRORS_C;
       75      314        %INCLUDE G_LCP6_E;
       76      572        %INCLUDE KNA_MACRO_M;
       77      648        %INCLUDE GH_GATE_M;
       78      689        %INCLUDE KN_DATA_M;
       79     2475        %INCLUDE KNH_MACRO_C;
       80     2758        %INCLUDE GU_LCP6_M;
       81     3686        %INCLUDE KN_ERRORS_C;
       82     3750        %INCLUDE KI_ERRORS_C;
       83     3835        %INCLUDE GH_LCP6_M;
       84     4669        %INCLUDE G_ROS_M;
       85     4751        %INCLUDE G_JIT_M;
       86     5016        %INCLUDE GH_SCHD_E;
       87     5112        %INCLUDE KL_MACRO_C;
       88     8464        %INCLUDE GF_LCP6_M;
       89     8932        %INCLUDE KL_SUPER_C;
       90    11834        %INCLUDE KL_AFCN_C;
       91    11935        %INCLUDE KI_CP6;
       92    13031        %INCLUDE K$RWPARM;
       93    13417        %INCLUDE KV$VDO;
       94    14432        %INCLUDE KV_GLBCNS_E;
       95    14773        %INCLUDE K_SCODE_C;
       96    14858        %KV#VD_ORG_E;
       97    14866        %KV_VDO_ALL_E;
       98    14945
       99    14946        /* Parameter definitions */
      100    14947    1   DCL DCBNUMBER UBIN;
      101    14948        %VLP_ERRCODE (STCLASS="",FPTN=ERROR);
      102    14994    1   DCL LGN_ VECTOR;
      103    14995        %VLP_WINDOW (STCLASS=PARAM);
PL6.E3A0      #001=KNA$OPEN File=KNA$APE.:E05TSI                                 WED 07/30/97 00:55 Page:37
      104    15039
      105    15040        /* Entry defintions */
      106    15041    1   DCL KNA$GETLDCT ENTRY(1) ALTRET;
      107    15042    1   DCL KNA$RLSLDCT ENTRY(1) ALTRET;
      108    15043    1   DCL KNS$SEND ENTRY(1) ALTRET;
      109    15044    1   DCL KNA$BUILD_VDO ENTRY(3);
      110    15045    1   DCL KNA$CONV_STR ENTRY(2) ALTRET;
      111    15046    1   DCL KNA$GETSSN ENTRY(1) ALTRET;
      112    15047    1   DCL KNA$RLSSSN ENTRY(1) ALTRET;
      113    15048    1   DCL KNA$RLSIOP ENTRY(1) ALTRET;
      114    15049    1   DCL KNA$GETIOP ENTRY(1) ALTRET;
      115    15050    1   DCL KNA$IN ENTRY(1) ALTRET;
      116    15051    1   DCL SCREECH ENTRY(1);
      117    15052    1   DCL KNA$REG_USER ENTRY(2) ALTRET;
      118    15053    1   DCL KNB$GETRESP ENTRY(4) ALTRET;
      119    15054    1   DCL KNA$FCNOU ENTRY(4) ALTRET;
      120    15055
      121    15056        /* Auto */
      122    15057        %K$RWPARM (NAME=RWPARM,STCLASS=AUTO);
      123    15373        %KV$VDO_CLSSTR (NAME=HDR,STCLASS=AUTO);
      124    15416        %KN$NETPARM;
      125    15569        %FPT_CONNECT(STCLASS=AUTO);
      126    15638        %FPT_TERM;
      127    15660    1   DCL CLOSING BIT(1);
      128    15661    1   DCL NEWSTREAM BIT(1);
      129    15662    1   DCL UCSTREAM BIT(1);
      130    15663    1   DCL I SBIN;
      131    15664    1   DCL ERR UBIN(32);
      132    15665    1   DCL IOP$ PTR;
      133    15666    1   DCL STRM UBIN;
      134    15667    1   DCL DCB$ PTR;
      135    15668    1   DCL SSN$ PTR;
      136    15669    1   DCL TEMP$ PTR;
      137    15670    1   DCL OPNDCB$ PTR;
      138    15671    1   DCL RESTYPE CHAR(2);
      139    15672    1   DCL 1 NETWORK_ADDR ALIGNED,
      140    15673    1         2 NODE#  UBIN(8) CALIGNED,
PL6.E3A0      #001=KNA$OPEN File=KNA$APE.:E05TSI                                 WED 07/30/97 00:55 Page:38
      141    15674    1         2 GENERATION UBIN(8) CALIGNED,
      142    15675    1         2 LDCTX  UBIN CALIGNED;
      143    15676        %KL_SGN (FPTN=SGN,STCLASS=AUTO,LGNSIZ=70);
      144    15769        %KL_SGNRSP (FPTN=SGNRSP,STCLASS="REDEF SGN",RSPSIZ=68);
      145    15905        %VLP_WINDOW (FPTN=WINDOW,STCLASS=AUTO);
      146    15949        %EJECT;
PL6.E3A0      #001=KNA$OPEN File=KNA$APE.:E05TSI                                 WED 07/30/97 00:55 Page:39
      147    15950        /* Based structures */
      148    15951        %KN$LDCT(STCLASS="BASED(KN$NETPARM.LDCT$)");
      149    16196        %G$ROS (FPTN=G$ROS,STCLASS="BASED(G$ROS$)");
      150    16240        %G$JIT (STCLASS="BASED(G$JIT$)");
      151    16654        %G$JIT_E;
      152    16716        %M$DCB (DCBN=MYDCB,STCLASS="BASED(DCB$)");
      153    16767        %KNA$SSN (STCLASS="BASED(SSN$)");
      154    16850        %KN$IOP (STCLASS=BASED);
      155    17023        %G$DCBTABLE;
      156    17034
      157    17035        /* Pointer references */
      158    17036    1   DCL G$JIT$ PTR SYMREF READONLY;
      159    17037    1   DCL G$ROS$ PTR SYMREF READONLY;
      160    17038
      161    17039        /* Error codes */
      162    17040        %VLP_ERRCODE (FPTN=ENO_IOP, ERR#=%E$NO_IOP,
      163    17041                     STCLASS=CONSTANT, FCG=KN, MID=A, MON='1'B, SEV=G_SEV_ERROR#);
      164    17087        %VLP_ERRCODE (FPTN=ENOLDCT, ERR#=%E$NOLDCT,
      165    17088                     STCLASS=CONSTANT, FCG=KN, MID=A, MON='1'B, SEV=G_SEV_ERROR#);
      166    17134        %VLP_ERRCODE (FPTN=ENOTCTX, ERR#=%E$NOTCTX,
      167    17135                     STCLASS=CONSTANT, FCG=KN, MID=A, MON='1'B, SEV=G_SEV_ERROR#);
      168    17181        %VLP_ERRCODE (FPTN=ENORTE, ERR#=%E$NORTE,
      169    17182                     STCLASS=CONSTANT, FCG=KN, MID=A, MON='1'B, SEV=G_SEV_ERROR#);
      170    17228        %VLP_ERRCODE (FPTN=EBAD_DCB_RES, ERR#=%E$INVRES,
      171    17229                     STCLASS=CONSTANT, FCG=KN, MID=A, MON='1'B, SEV=G_SEV_ERROR#);
      172    17275        %VLP_ERRCODE (FPTN=EBAD_ORG, ERR#=%E$BAD_ORG,
      173    17276                     STCLASS=CONSTANT, FCG=KN, MID=A, MON='1'B, SEV=G_SEV_ERROR#);
      174    17322        %VLP_ERRCODE (FPTN=ENET_ADDR, ERR#=%E$NET_ADDR,
      175    17323                     STCLASS=CONSTANT, FCG=KN, MID=A, MON='1'B, SEV=G_SEV_ERROR#);
      176    17369        %VLP_ERRCODE (FPTN=EAPE_SSN, ERR#=%E$APE_SSN,
      177    17370                     STCLASS=CONSTANT, FCG=KN, MID=A, MON='1'B, SEV=G_SEV_ERROR#);
      178    17416        %VLP_ERRCODE (FPTN=EDCB_CLOSED, ERR#=%E$DCBCLOSED,
      179    17417                     STCLASS=CONSTANT, FCG=KN, MID=A, MON='1'B, SEV=G_SEV_ERROR#);
      180    17463        %VLP_ERRCODE (FPTN=EDCB_OPEN, ERR#=%E$DCBOPEN,
      181    17464                     STCLASS=CONSTANT, FCG=KN, MID=A, MON='1'B, SEV=G_SEV_ERROR#);
      182    17510        %VLP_ERRCODE (FPTN=ERR_ORGNOTCOM, ERR#=%E$ORGNOTCOM,
      183    17511                     STCLASS=CONSTANT, FCG=KN, MID=A, MON='1'B, SEV=G_SEV_ERROR#);
PL6.E3A0      #001=KNA$OPEN File=KNA$APE.:E05TSI                                 WED 07/30/97 00:55 Page:40
      184    17557
      185    17558        %VLP_SCODE (FPTN=SCR_UNEXP,FCG=KN,MID=A,ERR#=%S$UNEXPRESP,
      186    17559                       MON='1'B,SEV=G_SEV_SCREECH#,STCLASS=CONSTANT);
      187    17620        /*S* SCREECH_CODE: KNA-S$UNEXPRESP
      188    17621             TYPE: SCREECH
      189    17622             MESSAGE: Unexpected respone from lower layers.
      190    17623             REMARKS: The session layer returned something we did not expect.
      191    17624         */
      192    17625
      193    17626        /* Symrefs */
      194    17627        %K$RWPARM (NAME=KNA_RWPARM_CON,STCLASS=SYMREF);
      195    17943        %GATE (FPTN=KNA_LNKSSN,STCLASS=SYMREF);
      196    17962        %VLP_WINDOW (FPTN=KNA_WINDOW,STCLASS=SYMREF);
      197    18006        %KN$NETPARM (NAME=KN_NETPARM_INIT,STCLASS=SYMREF);
      198    18159    1   DCL KNA_WINDOW_TL CHAR(2) SYMREF;
      199    18160    1   DCL KN_NODE# UBIN SYMREF;
      200    18161
      201    18162        /* Constants */
      202    18163    1   DCL NUMBERS CHAR(0) CONSTANT INIT('0123456789');
      203    18164    1   DCL LGNSTR CHAR(SGN.LOGON.LGNSIZ) BASED;
      204    18165        %EJECT;
PL6.E3A0      #001=KNA$OPEN File=KNA$APE.:E05TSI                                 WED 07/30/97 00:55 Page:41
      205    18166        /*   Get the address of the DCB by indexing into the ROSeg tables and
      206    18167        check DCB parameters.  The only thing to check right now is for a
      207    18168        valid resource of 'HOnn' or 'MEnn'.
      208    18169        */
      209    18170
      210    18171    1      DCB$ = G$ROS.DCBPTR$ -> G$DCBTABLE(DCBNUMBER);

  18171   2 000005  EC80 0000 0000  xsym                 LDB,B6   G$ROS$
          2 000008  DC86                                 LDB,B5   ,B6
          2 000009  CCC7 0004                            LDB,B4   @DCBNUMBER,AUTO
          2 00000B  B804                                 LDR,R3   ,B4
          2 00000C  BCB5                                 LDB,B3   ,B5,R3
          2 00000D  BFC7 0074                            STB,B3   DCB$,AUTO

      211    18172
      212    18173    1      IF MYDCB.FCD

  18173   2 00000F  82C3 001F                            LB,'4000'X        31,B3
  18173   2 000011       4000
          2 000012  0581 000A                            BBF      s:18182,PREL

      213    18174    2      THEN DO;

      214    18175    2           ERROR = EDCB_OPEN;

  18175   2 000014  8C80 0000 0012  01                   LDI      EDCB_OPEN
          2 000017  ACC7 0006                            LDB,B2   @ERROR,AUTO
          2 000019  8D02                                 SDI      ,B2

      215    18176    2           ALTRETURN;

  18176   2 00001A  C380 0000 0000  xent                 LNJ,B4   X6A_AALT

      216    18177    2           END;
      217    18178        /*E* ERROR: KNA-E$DCBOPEN
      218    18179             MESSAGE: That DCB is already open.
      219    18180        */
PL6.E3A0      #001=KNA$OPEN File=KNA$APE.:E05TSI                                 WED 07/30/97 00:55 Page:42
      220    18181
      221    18182    1      RESTYPE = SUBSTR(MYDCB.RES,0,2);

  18182   2 00001D  AB83                                 LAB,B2   ,B3
          2 00001E  2C32                                 LDV,R2   50
          2 00001F  6C02                                 LDV,R6   2
          2 000020  BBC7 007C                            LAB,B3   RESTYPE,AUTO
          2 000022  3C00                                 LDV,R3   0
          2 000023  0008                                 MMM

      222    18183    1      CALL INDEX(I,' ',MYDCB.RES);

  18183   2 000024  DCC7 0074                            LDB,B5   DCB$,AUTO
          2 000026  0028                                 SRH      ;
          2 000027       4178 2000                                ALPHANUM('2000'X,IMO,,1),;
          2 000029       4407 00C2                                BINARY(WINDOW+17,AUTO,,4),;
          2 00002B       4405 0019                                ALPHANUM(25,B5,,4)
          2 00002D  5381 0006                            CBE      s:18183+16,PREL
          2 00002F  6C04                                 LDV,R6   4
          2 000030  EF47 006E                            STR,R6   I,AUTO
          2 000032  0F81 0005                            B        s:18184,PREL
          2 000034  E847 00C3                            LDR,R6   WINDOW+18,AUTO
          2 000036  EF47 006E                            STR,R6   I,AUTO

      223    18184    1      IF I = 0 OR I = 1 OR I = 3 OR (I = 4 AND RESTYPE ~= 'UC')

  18184   2 000038  6901 0021                            BEZ,R6   s:18186,PREL
          2 00003A  6D01                                 CMV,R6   1
          2 00003B  0901 001E                            BE       s:18186,PREL
          2 00003D  6D03                                 CMV,R6   3
          2 00003E  0901 001B                            BE       s:18186,PREL
          2 000040  6D04                                 CMV,R6   4
          2 000041  0981 000B                            BNE      s:18184+21,PREL
          2 000043  BB80 0000 0000  01                   LAB,B3   ENO_IOP
          2 000046  0022                                 ACM      ;
          2 000047       4207 007C                                ALPHANUM(RESTYPE,AUTO,,2,FILL),;
          2 000049       4203 001E                                ALPHANUM(30,B3,,2,FILL)
PL6.E3A0      #001=KNA$OPEN File=KNA$APE.:E05TSI                                 WED 07/30/97 00:55 Page:43
          2 00004B  5301 000E                            CBNE     s:18186,PREL
          2 00004D  6D02                                 CMV,R6   2
          2 00004E  0981 0014                            BNE      s:18191,PREL
          2 000050  BB80 0000 0000  01                   LAB,B3   ENO_IOP
          2 000053  0022                                 ACM      ;
          2 000054       4205 001A                                ALPHANUM(26,B5,,2,FILL),;
          2 000056       4203 001F                                ALPHANUM(31,B3,,2,FILL)
          2 000058  5381 000A                            CBE      s:18191,PREL

      224    18185    1        OR (I = 2 AND SUBSTR(MYDCB.RES,2,2) ~= '  ')
      225    18186    2      THEN DO;

  18185   2                              BADRES          null
      226    18187    2   BADRES: ;
      227    18188    2           ERROR = EBAD_DCB_RES;

  18188   2 00005A  8C80 0000 0008  01   BADRES          LDI      EBAD_DCB_RES
          2 00005D  ECC7 0006                            LDB,B6   @ERROR,AUTO
          2 00005F  8D06                                 SDI      ,B6

      228    18189    2           ALTRETURN;

  18189   2 000060  C380 0000 0000  xent                 LNJ,B4   X6A_AALT

      229    18190    2           END;
      230    18191    1      IF I = 4

  18191   2 000063  6D04                                 CMV,R6   4
          2 000064  0981 0035                            BNE      s:18198,PREL

      231    18192    2      THEN DO;

      232    18193    2           CALL INDEX(I,SUBSTR(MYDCB.RES,2,1),NUMBERS) ALTRET (BADRES);

  18193   2 000066  BB80 0000 0000  01                   LAB,B3   ENO_IOP
          2 000069  0028                                 SRH      ;
          2 00006A       4105 001A                                ALPHANUM(26,B5,,1),;
PL6.E3A0      #001=KNA$OPEN File=KNA$APE.:E05TSI                                 WED 07/30/97 00:55 Page:44
          2 00006C       4407 00C2                                BINARY(WINDOW+17,AUTO,,4),;
          2 00006E       4A03 0019                                ALPHANUM(25,B3,,10)
          2 000070  5381 0005                            CBE      s:18193+16,PREL
          2 000072  6C0A                                 LDV,R6   10
          2 000073  EF47 006E                            STR,R6   I,AUTO
          2 000075  0FE5                                 B        s:18186,SPREL
          2 000076  E847 00C3                            LDR,R6   WINDOW+18,AUTO
          2 000078  EF47 006E                            STR,R6   I,AUTO

      233    18194    2           CALL INDEX(I,SUBSTR(MYDCB.RES,3,1),NUMBERS) ALTRET (BADRES);

  18194   2 00007A  BB80 0000 0000  01                   LAB,B3   ENO_IOP
          2 00007D  0028                                 SRH      ;
          2 00007E       C105 001A                                ALPHANUM(26,B5,1,1),;
          2 000080       4407 00C2                                BINARY(WINDOW+17,AUTO,,4),;
          2 000082       4A03 0019                                ALPHANUM(25,B3,,10)
          2 000084  5381 0005                            CBE      s:18194+16,PREL
          2 000086  6C0A                                 LDV,R6   10
          2 000087  EF47 006E                            STR,R6   I,AUTO
          2 000089  0FD1                                 B        s:18186,SPREL
          2 00008A  E847 00C3                            LDR,R6   WINDOW+18,AUTO
          2 00008C  EF47 006E                            STR,R6   I,AUTO

      234    18195    2           CALL CHARBIN(STRM,SUBSTR(MYDCB.RES,2,2));

  18195   2 00008E  002A                                 CDB      ;
          2 00008F       0205 001A                                UNPACKED(26,B5,,2,UNSIGNED),;
          2 000091       0407 00C2                                BINARY(WINDOW+17,AUTO,,4)
          2 000093  437F                                 CSYNC    s:18195+4,SPREL
          2 000094  D847 00C3                            LDR,R5   WINDOW+18,AUTO
          2 000096  DF47 0073                            STR,R5   STRM,AUTO

      235    18196    2           END;

  18196   2 000098  0F81 0004                            B        s:18200,PREL

      236    18197    1      ELSE
PL6.E3A0      #001=KNA$OPEN File=KNA$APE.:E05TSI                                 WED 07/30/97 00:55 Page:45
      237    18198    1           STRM = 1;

  18198   2 00009A  5C01                                 LDV,R5   1
          2 00009B  DF47 0073                            STR,R5   STRM,AUTO

      238    18199
      239    18200    1      UCSTREAM = '0'B;

  18200   2 00009D  8747 006D                            CL       UCSTREAM,AUTO

      240    18201    1      NEWSTREAM = '1'B;

  18201   2 00009F  8947 006C                            LBT,'8000'X       NEWSTREAM,AUTO
  18201   2 0000A1       8000

      241    18202        /*N* DCBS - More validation of parameters and support of further ORGs
      242    18203        must be done here.
      243    18204        */
      244    18205
      245    18206        %EJECT;
PL6.E3A0      #001=KNA$OPEN File=KNA$APE.:E05TSI                                 WED 07/30/97 00:55 Page:46
      246    18207    2      DO SELECT(RESTYPE);

  18207   2 0000A2  BB80 0000 0000  01                   LAB,B3   ENO_IOP
          2 0000A5  0022                                 ACM      ;
          2 0000A6       4207 007C                                ALPHANUM(RESTYPE,AUTO,,2,FILL),;
          2 0000A8       4203 0020                                ALPHANUM(32,B3,,2,FILL)
          2 0000AA  7301 002D                            CBL      s:18207+54,PREL
          2 0000AC  BB80 0000 0000  01                   LAB,B3   ENO_IOP
          2 0000AF  0022                                 ACM      ;
          2 0000B0       4207 007C                                ALPHANUM(RESTYPE,AUTO,,2,FILL),;
          2 0000B2       4203 0020                                ALPHANUM(32,B3,,2,FILL)
          2 0000B4  5381 004D                            CBE      s:18214,PREL
          2 0000B6  BB80 0000 0000  01                   LAB,B3   ENO_IOP
          2 0000B9  0022                                 ACM      ;
          2 0000BA       4207 007C                                ALPHANUM(RESTYPE,AUTO,,2,FILL),;
          2 0000BC       4203 001E                                ALPHANUM(30,B3,,2,FILL)
          2 0000BE  7301 000D                            CBL      s:18207+42,PREL
          2 0000C0  BB80 0000 0000  01                   LAB,B3   ENO_IOP
          2 0000C3  0022                                 ACM      ;
          2 0000C4       4207 007C                                ALPHANUM(RESTYPE,AUTO,,2,FILL),;
          2 0000C6       4203 001E                                ALPHANUM(30,B3,,2,FILL)
          2 0000C8  5381 00A2                            CBE      s:18232,PREL
          2 0000CA  0F81 0135                            B        s:18287,PREL
          2 0000CC  BB80 0000 0000  01                   LAB,B3   ENO_IOP
          2 0000CF  0022                                 ACM      ;
          2 0000D0       4207 007C                                ALPHANUM(RESTYPE,AUTO,,2,FILL),;
          2 0000D2       4203 0021                                ALPHANUM(33,B3,,2,FILL)
          2 0000D4  5301 012B                            CBNE     s:18287,PREL
          2 0000D6  0F81 011A                            B        s:18278,PREL
          2 0000D8  BB80 0000 0000  01                   LAB,B3   ENO_IOP
          2 0000DB  0022                                 ACM      ;
          2 0000DC       4207 007C                                ALPHANUM(RESTYPE,AUTO,,2,FILL),;
          2 0000DE       4203 0022                                ALPHANUM(34,B3,,2,FILL)
          2 0000E0  5301 011F                            CBNE     s:18287,PREL
          2 0000E2  0F81 0001                            B        s:18209,PREL

      247    18208    2           SELECT ('HO');
PL6.E3A0      #001=KNA$OPEN File=KNA$APE.:E05TSI                                 WED 07/30/97 00:55 Page:47

      248    18209    2           DCB$->MYDCB.DDEV.RES = %G_DDEV_RES_HO#;

  18209   2 0000E4  4C01                                 LDV,R4   1
          2 0000E5  CAC5 0003                            SRM,R4,'0007'X    3,B5
          2 0000E7       0007

      249    18210    2           IF DCB$->MYDCB.RLCID ~= '0'B

  18210   2 0000E8  BB80 0000 0000  03                   LAB,B3   0
          2 0000EB  5C01                                 LDV,R5   1
          2 0000EC  0022                                 ACM      ;
          2 0000ED       4405 002D                                ALPHANUM(45,B5,,4,FILL),;
          2 0000EF       4003 0000                                ALPHANUM(0,B3,,R5,FILL)
          2 0000F1  5381 0007                            CBE      s:18212,PREL

      250    18211    2           THEN NETWORK_ADDR = DCB$->MYDCB.RLCID;

  18211   2 0000F3  8CC5 002D                            LDI      45,B5
          2 0000F5  8D47 007D                            SDI      NETWORK_ADDR,AUTO
          2 0000F7  0F81 0111                            B        s:18291,PREL

      251    18212    2           ELSE NETWORK_ADDR = G$ROS.DCBPTR$->G$DCBTABLE(%G_M$LM#)->MYDCB.RLCID;

  18212   2 0000F9  BC86                                 LDB,B3   ,B6
          2 0000FA  ACC3 0004                            LDB,B2   4,B3
          2 0000FC  8CC2 002D                            LDI      45,B2
          2 0000FE  8D47 007D                            SDI      NETWORK_ADDR,AUTO
          2 000100  0F81 0108                            B        s:18291,PREL

      252    18213    2           SELECT ('LG');

      253    18214    2           DCB$->MYDCB.DDEV.RES = %G_DDEV_RES_LG#;

  18214   2 000102  4C03                                 LDV,R4   3
          2 000103  CAC5 0003                            SRM,R4,'0007'X    3,B5
          2 000105       0007
PL6.E3A0      #001=KNA$OPEN File=KNA$APE.:E05TSI                                 WED 07/30/97 00:55 Page:48

      254    18215    2           IF ADDR(LGN_) = ADDR(NIL)

  18215   2 000106  BCC7 0008                            LDB,B3   @LGN_,AUTO
          2 000108  8DD3                                 CMN      B3
          2 000109  0981 000A                            BNE      s:18220,PREL

      255    18216    3           THEN DO;

      256    18217    3                ERROR = EBAD_DCB_RES;

  18217   2 00010B  8C80 0000 0008  01                   LDI      EBAD_DCB_RES
          2 00010E  ACC7 0006                            LDB,B2   @ERROR,AUTO
          2 000110  8D02                                 SDI      ,B2

      257    18218    3                ALTRETURN;

  18218   2 000111  C380 0000 0000  xent                 LNJ,B4   X6A_AALT

      258    18219    3                END;
      259    18220    2           SGN = '0'B;

  18220   2 000114  5C64                                 LDV,R5   100
          2 000115  0021                                 ALR      ;
          2 000116       4178 0000                                ALPHANUM('0000'X,IMO,,1),;
          2 000118       4007 007F                                ALPHANUM(SGN,AUTO,,R5,FILL)

      260    18221    2           SGN.FCN = IGA_SGN;

  18221   2 00011A  3C02                                 LDV,R3   2
          2 00011B  437F                                 CSYNC    s:18221,SPREL
          2 00011C  B7C7 007F                            STH,R3   SGN,AUTO

      261    18222    2           SGN.TERMINAL_ID.TTYP = %KLTY_PROG#;

  18222   2 00011E  87C7 0081                            CLH      SGN+2,AUTO

PL6.E3A0      #001=KNA$OPEN File=KNA$APE.:E05TSI                                 WED 07/30/97 00:55 Page:49
      262    18223    2           SGN.TERMINAL_ID.TERMID = G$JIT.UNAME;

  18223   2 000120  AC80 0000 0000  xsym                 LDB,B2   G$JIT$
          2 000123  0021                                 ALR      ;
          2 000124       4C02 000A                                ALPHANUM(10,B2,,12),;
          2 000126       4E07 0082                                ALPHANUM(SGN+3,AUTO,,14,FILL)

      263    18224    2           SGN.USER.SYSID = G$JIT.SYSID;

  18224   2 000128  2C0A                                 LDV,R2   10
          2 000129  6C02                                 LDV,R6   2
          2 00012A  BBC7 0089                            LAB,B3   SGN+10,AUTO
          2 00012C  3C01                                 LDV,R3   1
          2 00012D  437F                                 CSYNC    s:18224+4,SPREL
          2 00012E  0008                                 MMM

      264    18225    2           SGN.NMID = G$JIT.USR#;

  18225   2 00012F  F842 0004                            LDR,R7   4,B2
          2 000131  F570 00FF                            AND,R7   255,IMO
          2 000133  6C00                                 LDV,R6   0
          2 000134  8D47 00C2                            SDI      WINDOW+17,AUTO
          2 000136  ABC7 00C2                            LAB,B2   WINDOW+17,AUTO
          2 000138  2C00                                 LDV,R2   0
          2 000139  6C04                                 LDV,R6   4
          2 00013A  BBC7 008A                            LAB,B3   SGN+11,AUTO
          2 00013C  3C01                                 LDV,R3   1
          2 00013D  0008                                 MMM

      265    18226    2           SGN.LOGON.LGNSIZ = VBOUND(LGN_) + 1;

  18226   2 00013E  DCC7 0008                            LDB,B5   @LGN_,AUTO
          2 000140  E805                                 LDR,R6   ,B5
          2 000141  6E01                                 ADV,R6   1
          2 000142  EAC7 008D                            SRM,R6,'00FF'X    SGN+14,AUTO
          2 000144       00FF

PL6.E3A0      #001=KNA$OPEN File=KNA$APE.:E05TSI                                 WED 07/30/97 00:55 Page:50
      266    18227    2           SGN.LOGON.LGNTXT = VBASE(LGN_)->LGNSTR;

  18227   2 000145  8CC5 0001                            LDI      1,B5
          2 000147  B856                                 LDR,R3   R6
          2 000148  E570 7FFF                            AND,R6   32767,IMO
          2 00014A  8D47 00C2                            SDI      WINDOW+17,AUTO
          2 00014C  BCC7 00C2                            LDB,B3   WINDOW+17,AUTO
          2 00014E  304F                                 SOR,R3   15
          2 00014F  A847 008D                            LDR,R2   SGN+14,AUTO
          2 000151  A570 00FF                            AND,R2   255,IMO
          2 000153  C852                                 LDR,R4   R2
          2 000154  D870 2046                            LDR,R5   8262,IMO
          2 000156  0021                                 ALR      ;
          2 000157       4033 0000                                ALPHANUM(0,B3,R3,,R4),;
          2 000159       4007 008E                                ALPHANUM(SGN+15,AUTO,,R5,FILL)

      267    18228    2           SGN.NODE = KN_NODE#;

  18228   2 00015B  E800 0000 0000  xsym                 LDR,R6   KN_NODE#
          2 00015E  437F                                 CSYNC    s:18228+2,SPREL
          2 00015F  EAC7 007F                            SRM,R6,'00FF'X    SGN,AUTO
          2 000161       00FF

      268    18229    2           SGN.TERMINAL_ID.TERM.CHANNEL = G$JIT.SYSID;

  18229   2 000162  AC80 0000 0000  xsym                 LDB,B2   G$JIT$
          2 000165  B842 0005                            LDR,R3   5,B2
          2 000167  BF47 0082                            STR,R3   SGN+3,AUTO
          2 000169  0F81 009F                            B        s:18291,PREL

      269    18230
      270    18231    2           SELECT ('UC');

      271    18232    2           IF MYDCB.ORG = %G_ORG_SE#

  18232   2 00016B  C845 001F                            LDR,R4   31,B5
          2 00016D  C570 00FF                            AND,R4   255,IMO
PL6.E3A0      #001=KNA$OPEN File=KNA$APE.:E05TSI                                 WED 07/30/97 00:55 Page:51
          2 00016F  4D06                                 CMV,R4   6
          2 000170  0981 000A                            BNE      s:18241,PREL

      272    18233    3           THEN DO;

      273    18234    3                ERROR = EBAD_ORG;

  18234   2 000172  8C80 0000 000A  01                   LDI      EBAD_ORG
          2 000175  BCC7 0006                            LDB,B3   @ERROR,AUTO
          2 000177  8D03                                 SDI      ,B3

      274    18235    3                ALTRETURN;

  18235   2 000178  C380 0000 0000  xent                 LNJ,B4   X6A_AALT

      275    18236    3                END;
      276    18237        /*E* ERROR: KNA-E$BAD_ORG-E
      277    18238             MESSAGE:ORG = SE is not available to FPRGs.
      278    18239        */
      279    18240
      280    18241    2           I = G$ROS.NUMDCBS;

  18241   2 00017B  E846 0014                            LDR,R6   20,B6
          2 00017D  EF47 006E                            STR,R6   I,AUTO

      281    18242    3           DO WHILE (I>=0);

  18242   2 00017F  6801 005C                            BLZ,R6   s:18273,PREL

      282    18243    3                IF DCBADDR(I) ~= ADDR(NIL)

  18243   2 000181  EC80 0000 0000  xsym                 LDB,B6   G$ROS$
          2 000184  DC86                                 LDB,B5   ,B6
          2 000185  B847 006E                            LDR,R3   I,AUTO
          2 000187  8DB5                                 CMN      ,B5,R3
          2 000188  0901 004D                            BE       s:18264,PREL

PL6.E3A0      #001=KNA$OPEN File=KNA$APE.:E05TSI                                 WED 07/30/97 00:55 Page:52
      283    18244    3                THEN IF DCBADDR(I)->MYDCB.FCD AND DCBADDR(I)->MYDCB.STRM = STRM

  18244   2 00018A  CCB5                                 LDB,B4   ,B5,R3
          2 00018B  82C4 001F                            LB,'4000'X        31,B4
          2 00018D       4000
          2 00018E  0581 0047                            BBF      s:18264,PREL
          2 000190  E844 0002                            LDR,R6   2,B4
          2 000192  E570 00FF                            AND,R6   255,IMO
          2 000194  E947 0073                            CMR,R6   STRM,AUTO
          2 000196  0981 003F                            BNE      s:18264,PREL
          2 000198  BB80 0000 0000  01                   LAB,B3   ENO_IOP
          2 00019B  0022                                 ACM      ;
          2 00019C       4204 0019                                ALPHANUM(25,B4,,2,FILL),;
          2 00019E       4203 001E                                ALPHANUM(30,B3,,2,FILL)
          2 0001A0  5301 0035                            CBNE     s:18264,PREL

      284    18245    3                       AND SUBSTR(DCBADDR(I)->MYDCB.RES,0,2) = 'UC'
      285    18246    4                     THEN DO;

      286    18247    4                          NEWSTREAM = '0'B;

  18247   2 0001A2  8747 006C                            CL       NEWSTREAM,AUTO

      287    18248    5                          DO CASE (MYDCB.ORG);

  18248   2 0001A4  BCC7 0074                            LDB,B3   DCB$,AUTO
          2 0001A6  A843 001F                            LDR,R2   31,B3
          2 0001A8  A570 00FF                            AND,R2   255,IMO
          2 0001AA  2D07                                 CMV,R2   7
          2 0001AB  0281 0017                            BGE      s:18255,PREL
          2 0001AD  9820 0000 01B3  02                   LDR,R1   s:18248+15,R2
          2 0001B0  8390 0000 01BA  02                   JMP      s:18251,R1
          2 0001B3       0009                            DC       s:18255,PREL
          2 0001B4       0009                            DC       s:18255,PREL
          2 0001B5       0000                            DC       s:18251,PREL
          2 0001B6       0009                            DC       s:18255,PREL
          2 0001B7       0009                            DC       s:18255,PREL
PL6.E3A0      #001=KNA$OPEN File=KNA$APE.:E05TSI                                 WED 07/30/97 00:55 Page:53
          2 0001B8       0009                            DC       s:18255,PREL
          2 0001B9       0000                            DC       s:18251,PREL

      288    18249
      289    18250    5                           CASE (%G_ORG_FORM#,%G_ORG_SE#);

      290    18251    5                             IF MYDCB.ORG ~= DCBADDR(I)->MYDCB.ORG

  18251   2 0001BA  D844 001F                            LDR,R5   31,B4
          2 0001BC  D570 00FF                            AND,R5   255,IMO
          2 0001BE  A955                                 CMR,R2   R5
          2 0001BF  0981 000D                            BNE      s:18257,PREL
          2 0001C1  0F81 0014                            B        s:18264,PREL

      291    18252    5                             THEN GOTO SET_BAD_ORG;
      292    18253
      293    18254    5                           CASE (ELSE);

      294    18255    5                             IF DCBADDR(I)->MYDCB.ORG = %G_ORG_SE# OR

  18255   2 0001C3  D844 001F                            LDR,R5   31,B4
          2 0001C5  D570 00FF                            AND,R5   255,IMO
          2 0001C7  5D06                                 CMV,R5   6
          2 0001C8  0901 0004                            BE       s:18257,PREL
          2 0001CA  5D02                                 CMV,R5   2
          2 0001CB  0981 000A                            BNE      s:18264,PREL

      295    18256    5                               DCBADDR(I)->MYDCB.ORG = %G_ORG_FORM#
      296    18257    6                             THEN DO;

      297    18258    6   SET_BAD_ORG:                   ;

  18258   2                              SET_BAD_ORG     null
      298    18259    6                                  ERROR = ERR_ORGNOTCOM;

  18259   2 0001CD  8C80 0000 0014  01   SET_BAD_ORG     LDI      ERR_ORGNOTCOM
          2 0001D0  ACC7 0006                            LDB,B2   @ERROR,AUTO
PL6.E3A0      #001=KNA$OPEN File=KNA$APE.:E05TSI                                 WED 07/30/97 00:55 Page:54
          2 0001D2  8D02                                 SDI      ,B2

      299    18260    6                                  ALTRETURN;

  18260   2 0001D3  C380 0000 0000  xent                 LNJ,B4   X6A_AALT

      300    18261    6                                  END;
      301    18262    5                             END/*do case*/;

      302    18263    4                          END/*do if same uc stream*/;
      303    18264    3                I = I - 1;

  18264   2 0001D6  88C7 006E                            DEC      I,AUTO

      304    18265    3                END/*do while*/;

  18265   2 0001D8  E847 006E                            LDR,R6   I,AUTO
          2 0001DA  6881 FFA6                            BGEZ,R6  s:18243,PREL

      305    18266
      306    18267        /*E* ERROR: KNA-%E$ORGNOTCOM-C
      307    18268             MESSAGE: The ORG is not compatible.
      308    18269             MESSAGE1: Another DCB is already open to the same stream as the one
      309    18270                       you are opening, but one has ORG=FORM and one does not.
      310    18271        */
      311    18272
      312    18273    2           DCB$->MYDCB.DDEV.RES = %G_DDEV_RES_UC#;

  18273   2 0001DC  5C02                                 LDV,R5   2
          2 0001DD  ECC7 0074                            LDB,B6   DCB$,AUTO
          2 0001DF  DAC6 0003                            SRM,R5,'0007'X    3,B6
          2 0001E1       0007

      313    18274    2           NETWORK_ADDR = G$ROS.DCBPTR$->G$DCBTABLE(%G_M$ME#)->MYDCB.RLCID;

  18274   2 0001E2  DC80 0000 0000  xsym                 LDB,B5   G$ROS$
          2 0001E5  CC85                                 LDB,B4   ,B5
PL6.E3A0      #001=KNA$OPEN File=KNA$APE.:E05TSI                                 WED 07/30/97 00:55 Page:55
          2 0001E6  BCC4 0006                            LDB,B3   6,B4
          2 0001E8  8CC3 002D                            LDI      45,B3
          2 0001EA  8D47 007D                            SDI      NETWORK_ADDR,AUTO

      314    18275    2           UCSTREAM = '1'B;

  18275   2 0001EC  8947 006D                            LBT,'8000'X       UCSTREAM,AUTO
  18275   2 0001EE       8000
          2 0001EF  0F81 0019                            B        s:18291,PREL

      315    18276
      316    18277    2           SELECT ('NA');

      317    18278    2           DCB$->MYDCB.DDEV.RES = %G_DDEV_RES_NA#;

  18278   2 0001F1  4C04                                 LDV,R4   4
          2 0001F2  CAC5 0003                            SRM,R4,'0007'X    3,B5
          2 0001F4       0007

      318    18279    2           NETWORK_ADDR = '0'B;

  18279   2 0001F5  8747 007D                            CL       NETWORK_ADDR,AUTO
          2 0001F7  8747 007E                            CL       NETWORK_ADDR+1,AUTO

      319    18280    2           NETWORK_ADDR.NODE# = KN_NODE#;

  18280   2 0001F9  B800 0000 0000  xsym                 LDR,R3   KN_NODE#
          2 0001FC  B7C7 007D                            STH,R3   NETWORK_ADDR,AUTO
          2 0001FE  0F81 000A                            B        s:18291,PREL

      320    18281
      321    18282    2           SELECT (ELSE);

      322    18283        /*E*     ERROR: KNA-E$INVRES
      323    18284                 MESSAGE: An invalid resource expressed on OPEN
      324    18285        */
      325    18286
PL6.E3A0      #001=KNA$OPEN File=KNA$APE.:E05TSI                                 WED 07/30/97 00:55 Page:56
      326    18287    2      ERROR = EBAD_DCB_RES;

  18287   2 000200  8C80 0000 0008  01                   LDI      EBAD_DCB_RES
          2 000203  BCC7 0006                            LDB,B3   @ERROR,AUTO
          2 000205  8D03                                 SDI      ,B3

      327    18288    2      ALTRETURN;

  18288   2 000206  C380 0000 0000  xent                 LNJ,B4   X6A_AALT

      328    18289    2           END;

      329    18290
      330    18291    1      IF NETWORK_ADDR.LDCTX = 0 AND RESTYPE ~= 'NA' AND RESTYPE ~= 'LG'

  18291   2 000209  E847 007E                            LDR,R6   NETWORK_ADDR+1,AUTO
          2 00020B  6981 001E                            BNEZ,R6  s:18319,PREL
          2 00020D  EB80 0000 0000  01                   LAB,B6   ENO_IOP
          2 000210  0022                                 ACM      ;
          2 000211       4207 007C                                ALPHANUM(RESTYPE,AUTO,,2,FILL),;
          2 000213       4206 0021                                ALPHANUM(33,B6,,2,FILL)
          2 000215  5381 0014                            CBE      s:18319,PREL
          2 000217  EB80 0000 0000  01                   LAB,B6   ENO_IOP
          2 00021A  0022                                 ACM      ;
          2 00021B       4207 007C                                ALPHANUM(RESTYPE,AUTO,,2,FILL),;
          2 00021D       4206 0020                                ALPHANUM(32,B6,,2,FILL)
          2 00021F  5381 000A                            CBE      s:18319,PREL

      331    18292    2      THEN DO;

      332    18293
      333    18294
      334    18295    2           ERROR = ENET_ADDR;

  18295   2 000221  8C80 0000 000C  01                   LDI      ENET_ADDR
          2 000224  ECC7 0006                            LDB,B6   @ERROR,AUTO
          2 000226  8D06                                 SDI      ,B6
PL6.E3A0      #001=KNA$OPEN File=KNA$APE.:E05TSI                                 WED 07/30/97 00:55 Page:57

      335    18296    2           ALTRETURN;

  18296   2 000227  C380 0000 0000  xent                 LNJ,B4   X6A_AALT

      336    18297    2           END;
      337    18298        /*E*     ERROR: KNA-E$NET_ADDR
      338    18299                 MESSAGE: No network address has been specified for this resource.
      339    18300        */
      340    18301        %EJECT;
PL6.E3A0      #001=KNA$OPEN File=KNA$APE.:E05TSI                                 WED 07/30/97 00:55 Page:58
      341    18302        /*
      342    18303             It looks like it is perfectly valid to open this DCB for user
      343    18304        I/O now.  We must check to see if there already is an APE network
      344    18305        connection to the specified network address.  If so, then this DCB
      345    18306        can just be marked OPENed and we can return.  If such a network
      346    18307        connection doesn't exist we'll create it by setting up a Session.
      347    18308             The means we use to find out if there is such a network connection
      348    18309        already is to scan the DCB table for a DCB which is going to the same
      349    18310        place as this one.  If so, we're done.
      350    18311        */
      351    18312
      352    18313        /*N* OPEN - We should probably speed up the recognition of an already
      353    18314        existent network connection by having a pointer in the user's JIT to
      354    18315        APE SSN contexts linked together.  We'll probably need it for other
      355    18316        things anyway.
      356    18317        */
      357    18318
      358    18319    1      OPNDCB$ = ADDR(NIL);

  18319   2 00022A  EB80 0000 0000                       LAB,B6   0
          2 00022D  EFC7 007A                            STB,B6   OPNDCB$,AUTO

      359    18320
      360    18321    1      IF RESTYPE ~= 'LG'

  18321   2 00022F  DB80 0000 0000  01                   LAB,B5   ENO_IOP
          2 000232  0022                                 ACM      ;
          2 000233       4207 007C                                ALPHANUM(RESTYPE,AUTO,,2,FILL),;
          2 000235       4205 0020                                ALPHANUM(32,B5,,2,FILL)
          2 000237  5381 0036                            CBE      s:18344,PREL

      361    18322    2      THEN DO;

      362    18323    2   FINDOPNDCB:
      363    18324    3           DO I = 1 TO G$ROS.NUMDCBS;

  18324   2 000239  5C01                 FINDOPNDCB      LDV,R5   1
PL6.E3A0      #001=KNA$OPEN File=KNA$APE.:E05TSI                                 WED 07/30/97 00:55 Page:59
          2 00023A  DF47 006E                            STR,R5   I,AUTO
          2 00023C  0F81 0028                            B        s:18336+2,PREL

      364    18325    3                TEMP$ = G$ROS.DCBPTR$ -> G$DCBTABLE(I);

  18325   2 00023E  EC80 0000 0000  xsym                 LDB,B6   G$ROS$
          2 000241  DC86                                 LDB,B5   ,B6
          2 000242  B847 006E                            LDR,R3   I,AUTO
          2 000244  CCB5                                 LDB,B4   ,B5,R3
          2 000245  CFC7 0078                            STB,B4   TEMP$,AUTO

      365    18326
      366    18327    3                IF TEMP$ ~= ADDR(NIL)

  18327   2 000247  8DC7 0078                            CMN      TEMP$,AUTO
          2 000249  0901 0019                            BE       s:18336,PREL

      367    18328    3                THEN IF TEMP$ -> MYDCB.FCD = '1'B

  18328   2 00024B  82C4 001F                            LB,'4000'X        31,B4
  18328   2 00024D       4000
          2 00024E  0581 0014                            BBF      s:18336,PREL

      368    18329    3                     THEN IF SUBSTR(TEMP$ -> MYDCB.RES,0,LENGTHC(RESTYPE)) = RESTYPE
             18329                              AND

  18329   2 000250  0022                                 ACM      ;
          2 000251       4204 0019                                ALPHANUM(25,B4,,2,FILL),;
          2 000253       4207 007C                                ALPHANUM(RESTYPE,AUTO,,2,FILL)
          2 000255  5301 000D                            CBNE     s:18336,PREL
          2 000257  5C04                                 LDV,R5   4
          2 000258  0022                                 ACM      ;
          2 000259       4404 002D                                ALPHANUM(45,B4,,4,FILL),;
          2 00025B       4007 007D                                ALPHANUM(NETWORK_ADDR,AUTO,,R5,FILL)
          2 00025D  5301 0005                            CBNE     s:18336,PREL

      369    18330    3                            TEMP$->MYDCB.RLCID = NETWORK_ADDR
PL6.E3A0      #001=KNA$OPEN File=KNA$APE.:E05TSI                                 WED 07/30/97 00:55 Page:60
      370    18331    4                          THEN DO;

      371    18332    4                               OPNDCB$ = TEMP$;

  18332   2 00025F  CFC7 007A                            STB,B4   OPNDCB$,AUTO

      372    18333    4                               EXIT FINDOPNDCB;

  18333   2 000261  0F81 000C                            B        s:18344,PREL

      373    18334    4                               END;
      374    18335
      375    18336    3                END FINDOPNDCB;            /* DO I = 1 TO G$ROS.NUMDCBS          */

  18336   2 000263  8AC7 006E                            INC      I,AUTO
          2 000265  EC80 0000 0000  xsym                 LDB,B6   G$ROS$
          2 000268  E847 006E                            LDR,R6   I,AUTO
          2 00026A  6854                                 BLZ,R6   s:18325,SPREL
          2 00026B  E946 0014                            CMR,R6   20,B6
          2 00026D  03D1                                 BLE      s:18325,SPREL

      376    18337    2           END/*do if restype~=LG */;

      377    18338        %EJECT;
PL6.E3A0      #001=KNA$OPEN File=KNA$APE.:E05TSI                                 WED 07/30/97 00:55 Page:61
      378    18339        /* If a DCB was found which meets the requirements for this DCB's OPEN.
      379    18340        All we have to do is fetch the SSN$ address and increment the OPEN DCB
      380    18341        counter.
      381    18342        */
      382    18343
      383    18344    1      IF OPNDCB$ ~= ADDR(NIL)

  18344   2 00026E  8DC7 007A                            CMN      OPNDCB$,AUTO
          2 000270  0901 000B                            BE       s:18356,PREL

      384    18345    2      THEN DO;

      385    18346    2           SSN$ = OPNDCB$ -> MYDCB.SSN$;

  18346   2 000272  ECC7 007A                            LDB,B6   OPNDCB$,AUTO
          2 000274  DCC6 0030                            LDB,B5   48,B6
          2 000276  DFC7 0076                            STB,B5   SSN$,AUTO

      386    18347    2           KNA$SSN.NUMDCBS = KNA$SSN.NUMDCBS+1;

  18347   2 000278  8AC5 0006                            INC      6,B5

      387    18348    2           END;

  18348   2 00027A  0F81 0213                            B        s:18541,PREL

      388    18349
      389    18350        /*
      390    18351             We don't already have a SSN context for this network connection.
      391    18352        Now we have to make one so we must get some context blocks and establish
      392    18353        the connection with Session.
      393    18354        */
      394    18355    2      ELSE DO;

      395    18356    2           CALL KNA$GETSSN (SSN$)

  18356   2 00027C  EBC7 0076                            LAB,B6   SSN$,AUTO
PL6.E3A0      #001=KNA$OPEN File=KNA$APE.:E05TSI                                 WED 07/30/97 00:55 Page:62
          2 00027E  EFC7 00C2                            STB,B6   WINDOW+17,AUTO
          2 000280  BBC7 00C2                            LAB,B3   WINDOW+17,AUTO
          2 000282  CBF0 0100                            LAB,B4   256,IMO
          2 000284  E380 0000 0000  xent                 LNJ,B6   KNA$GETSSN
          2 000287       0003                            DC       s:18363,PREL
          2 000288  0F81 000A                            B        s:18367,PREL

      396    18357    3           WHENALTRETURN DO;

      397    18358
      398    18359        /*E*     ERROR: KNA-E$APE_SSN
      399    18360                 MESSAGE: Unable to establish a network Session for this DCB
      400    18361        */
      401    18362
      402    18363    3                ERROR = EAPE_SSN;

  18363   2 00028A  8C80 0000 000E  01                   LDI      EAPE_SSN
          2 00028D  ECC7 0006                            LDB,B6   @ERROR,AUTO
          2 00028F  8D06                                 SDI      ,B6

      403    18364    3                ALTRETURN;

  18364   2 000290  C380 0000 0000  xent                 LNJ,B4   X6A_AALT

      404    18365    3                END;
      405    18366
      406    18367    2           KNA$SSN = '0'B;

  18367   2 000293  ECC7 0076                            LDB,B6   SSN$,AUTO
          2 000295  5C32                                 LDV,R5   50
          2 000296  0021                                 ALR      ;
          2 000297       4178 0000                                ALPHANUM('0000'X,IMO,,1),;
          2 000299       4006 0000                                ALPHANUM(0,B6,,R5,FILL)

      407    18368    2           IF DCBNUMBER = %G_M$LM# OR DCBNUMBER = %G_M$ME#

  18368   2 00029B  437F                                 CSYNC    s:18367+7,SPREL
PL6.E3A0      #001=KNA$OPEN File=KNA$APE.:E05TSI                                 WED 07/30/97 00:55 Page:63
          2 00029C  ECC7 0004                            LDB,B6   @DCBNUMBER,AUTO
          2 00029E  E806                                 LDR,R6   ,B6
          2 00029F  6D02                                 CMV,R6   2
          2 0002A0  0901 0004                            BE       s:18370,PREL
          2 0002A2  6D03                                 CMV,R6   3
          2 0002A3  0981 0005                            BNE      s:18371,PREL

      408    18369    2           THEN
      409    18370    2                KNA$SSN.FLAGS.PRIMARY = '1'B;

  18370   2 0002A5  DCC7 0076                            LDB,B5   SSN$,AUTO
          2 0002A7  8905                                 LBT,'0400'X       ,B5
          2 0002A8       0400

      410    18371    2           KNA$SSN.IOPQ$ = ADDR(NIL);

  18371   2 0002A9  DB80 0000 0000                       LAB,B5   0
          2 0002AC  CCC7 0076                            LDB,B4   SSN$,AUTO
          2 0002AE  DFC4 000B                            STB,B5   11,B4

      411    18372    2           KNA$SSN.STATE = %KNA_STATE_WSSNINIT#;

  18372   2 0002B0  DCC7 0076                            LDB,B5   SSN$,AUTO
          2 0002B2  6C01                                 LDV,R6   1
          2 0002B3  EF45 0013                            STR,R6   19,B5

      412    18373    2           KNA$SSN.NUMDCBS = 1;

  18373   2 0002B5  DCC7 0076                            LDB,B5   SSN$,AUTO
          2 0002B7  EF45 0006                            STR,R6   6,B5

      413    18374    2           KNA$SSN.USER# = G$JIT.USR#;

  18374   2 0002B9  DCC7 0076                            LDB,B5   SSN$,AUTO
          2 0002BB  CC80 0000 0000  xsym                 LDB,B4   G$JIT$
          2 0002BE  C844 0004                            LDR,R4   4,B4
          2 0002C0  C570 00FF                            AND,R4   255,IMO
PL6.E3A0      #001=KNA$OPEN File=KNA$APE.:E05TSI                                 WED 07/30/97 00:55 Page:64
          2 0002C2  CF45 0011                            STR,R4   17,B5

      414    18375    2           KNA$SSN.IOPRD$ = ADDR(NIL);

  18375   2 0002C4  DB80 0000 0000                       LAB,B5   0
          2 0002C7  BCC7 0076                            LDB,B3   SSN$,AUTO
          2 0002C9  DFC3 000D                            STB,B5   13,B3

      415    18376    2           KNA$SSN.RLCID = NETWORK_ADDR;

  18376   2 0002CB  8CC7 007D                            LDI      NETWORK_ADDR,AUTO
          2 0002CD  DCC7 0076                            LDB,B5   SSN$,AUTO
          2 0002CF  8D45 000F                            SDI      15,B5

      416    18377
      417    18378        %EJECT;
PL6.E3A0      #001=KNA$OPEN File=KNA$APE.:E05TSI                                 WED 07/30/97 00:55 Page:65
      418    18379        /*
      419    18380             Now get an LDCT and initialize it for Session
      420    18381        */
      421    18382
      422    18383    2           KN$NETPARM = '0'B;

  18383   2 0002D1  5C42                                 LDV,R5   66
          2 0002D2  0021                                 ALR      ;
          2 0002D3       4178 0000                                ALPHANUM('0000'X,IMO,,1),;
          2 0002D5       4007 0037                                ALPHANUM(KN$NETPARM,AUTO,,R5,FILL)

      423    18384    2           CALL KNA$GETLDCT (KN$NETPARM.LDCT$)

  18384   2 0002D7  DBC7 0037                            LAB,B5   KN$NETPARM,AUTO
          2 0002D9  437F                                 CSYNC    s:18384+1,SPREL
          2 0002DA  DFC7 00C2                            STB,B5   WINDOW+17,AUTO
          2 0002DC  BBC7 00C2                            LAB,B3   WINDOW+17,AUTO
          2 0002DE  CBF0 0100                            LAB,B4   256,IMO
          2 0002E0  E380 0000 0000  xent                 LNJ,B6   KNA$GETLDCT
          2 0002E3       0003                            DC       s:18391,PREL
          2 0002E4  0F81 0009                            B        s:18395,PREL

      424    18385    3           WHENALTRETURN DO;

      425    18386
      426    18387        /*E*     ERROR: KNA-E$NOLDCT
      427    18388                 MESSAGE: No LDCT for this network Session is available
      428    18389        */
      429    18390
      430    18391    3                ERROR = ENOLDCT;

  18391   2 0002E6  8C80 0000 0002  01                   LDI      ENOLDCT
          2 0002E9  ECC7 0006                            LDB,B6   @ERROR,AUTO
          2 0002EB  8D06                                 SDI      ,B6

      431    18392    3                GOTO RLSSSN_N_ALTRET;

PL6.E3A0      #001=KNA$OPEN File=KNA$APE.:E05TSI                                 WED 07/30/97 00:55 Page:66
  18392   2 0002EC  0F81 0108                            B        s:18469,PREL

      432    18393    3                END;
      433    18394
      434    18395    2           KNA$SSN.LDCT$ = KN$NETPARM.LDCT$;

  18395   2 0002EE  ECC7 0037                            LDB,B6   KN$NETPARM,AUTO
          2 0002F0  DCC7 0076                            LDB,B5   SSN$,AUTO
          2 0002F2  EFC5 0004                            STB,B6   4,B5

      435    18396    2           KN$NETPARM.SLDCT$ = KN$NETPARM.LDCT$;

  18396   2 0002F4  ECC7 0037                            LDB,B6   KN$NETPARM,AUTO
          2 0002F6  EFC7 004E                            STB,B6   KN$NETPARM+23,AUTO

      436    18397
      437    18398    2           KN$LDCT.USER# = G$JIT.USR#;

  18398   2 0002F8  DC80 0000 0000  xsym                 LDB,B5   G$JIT$
          2 0002FB  E845 0004                            LDR,R6   4,B5
          2 0002FD  E570 00FF                            AND,R6   255,IMO
          2 0002FF  EF46 000E                            STR,R6   14,B6

      438    18399    2           KN$LDCT.USER_ENTRY$ = ENTADDR(KNA$IN);

  18399   2 000301  EB80 0000 0000  xent                 LAB,B6   KNA$IN
          2 000304  CCC7 0037                            LDB,B4   KN$NETPARM,AUTO
          2 000306  EFC4 000C                            STB,B6   12,B4

      439    18400    2           KN$LDCT.CONN_TYPE = %KN_CNTYPE_APE;

  18400   2 000308  6C01                                 LDV,R6   1
          2 000309  ECC7 0037                            LDB,B6   KN$NETPARM,AUTO
          2 00030B  E786                                 STH,R6   ,B6

      440    18401    2           KN$LDCT.UID$ = SSN$;

PL6.E3A0      #001=KNA$OPEN File=KNA$APE.:E05TSI                                 WED 07/30/97 00:55 Page:67
  18401   2 00030C  ECC7 0076                            LDB,B6   SSN$,AUTO
          2 00030E  CCC7 0037                            LDB,B4   KN$NETPARM,AUTO
          2 000310  EFC4 0005                            STB,B6   5,B4

      441    18402
      442    18403        /* If this is a LOGON talk to NODE ADMIN */
      443    18404    2           IF RESTYPE='LG'

  18404   2 000312  EB80 0000 0000  01                   LAB,B6   ENO_IOP
          2 000315  0022                                 ACM      ;
          2 000316       4207 007C                                ALPHANUM(RESTYPE,AUTO,,2,FILL),;
          2 000318       4206 0020                                ALPHANUM(32,B6,,2,FILL)
          2 00031A  5301 0037                            CBNE     s:18415,PREL

      444    18405    3           THEN DO;

      445    18406    3                CALL KNB$GETRESP (ADDR(SGN),SIZEC(SGN),ADDR(SGNRSP),SIZEC(SGNRSP));

  18406   2 00031C  EBC7 007F                            LAB,B6   SGN,AUTO
          2 00031E  EFC7 00C2                            STB,B6   WINDOW+17,AUTO
          2 000320  CBF0 0064                            LAB,B4   100,IMO
          2 000322  BBC7 007F                            LAB,B3   SGN,AUTO
          2 000324  BFC7 00C4                            STB,B3   WINDOW+19,AUTO
          2 000326  ABF0 0064                            LAB,B2   100,IMO
          2 000328  AFC7 00CC                            STB,B2   WINDOW+27,AUTO
          2 00032A  9BC7 00C4                            LAB,B1   WINDOW+19,AUTO
          2 00032C  9FC7 00CA                            STB,B1   WINDOW+25,AUTO
          2 00032E  CFC7 00C8                            STB,B4   WINDOW+23,AUTO
          2 000330  EBC7 00C2                            LAB,B6   WINDOW+17,AUTO
          2 000332  EFC7 00C6                            STB,B6   WINDOW+21,AUTO
          2 000334  BBC7 00C6                            LAB,B3   WINDOW+21,AUTO
          2 000336  CBF0 0400                            LAB,B4   1024,IMO
          2 000338  E380 0000 0000  xent                 LNJ,B6   KNB$GETRESP
          2 00033B       0001                            DC       s:18407,PREL

      446    18407    3                IF SGNRSP.ERRCODE ~= '0'B

PL6.E3A0      #001=KNA$OPEN File=KNA$APE.:E05TSI                                 WED 07/30/97 00:55 Page:68
  18407   2 00033C  EB80 0000 0000  03                   LAB,B6   0
          2 00033F  5C01                                 LDV,R5   1
          2 000340  0022                                 ACM      ;
          2 000341       4407 0084                                ALPHANUM(SGN+5,AUTO,,4,FILL),;
          2 000343       4006 0000                                ALPHANUM(0,B6,,R5,FILL)
          2 000345  5381 0008                            CBE      s:18412,PREL

      447    18408    4                THEN DO;

      448    18409    4                     ERROR = SGNRSP.ERRCODE;

  18409   2 000347  8CC7 0084                            LDI      SGN+5,AUTO
          2 000349  ECC7 0006                            LDB,B6   @ERROR,AUTO
          2 00034B  8D06                                 SDI      ,B6

      449    18410    4                     GOTO RLSDCT_N_ALTRET;

  18410   2 00034C  0F81 00B4                            B        s:18471,PREL

      450    18411    4                     END;
      451    18412    3                NETWORK_ADDR = SGNRSP.RLCID;

  18412   2 00034E  8CC7 0082                            LDI      SGN+3,AUTO
          2 000350  8D47 007D                            SDI      NETWORK_ADDR,AUTO

      452    18413    3                END;

      453    18414
      454    18415    2           FPT_CONNECT.RLCID = NETWORK_ADDR;

  18415   2 000352  8CC7 007D                            LDI      NETWORK_ADDR,AUTO
          2 000354  8D47 0065                            SDI      FPT_CONNECT+13,AUTO

      455    18416    2           FPT_CONNECT.TERMINAL_ID.TTYP = %KLTY_PROG#;

  18416   2 000356  87C7 005D                            CLH      FPT_CONNECT+5,AUTO

PL6.E3A0      #001=KNA$OPEN File=KNA$APE.:E05TSI                                 WED 07/30/97 00:55 Page:69
      456    18417    2           FPT_CONNECT.USER.SYSID = G$JIT.SYSID;

  18417   2 000358  EC80 0000 0000  xsym                 LDB,B6   G$JIT$
          2 00035B  D846 0005                            LDR,R5   5,B6
          2 00035D  DF47 0067                            STR,R5   FPT_CONNECT+15,AUTO

      457    18418    2           IF RESTYPE = 'NA'

  18418   2 00035F  DB80 0000 0000  01                   LAB,B5   ENO_IOP
          2 000362  0022                                 ACM      ;
          2 000363       4207 007C                                ALPHANUM(RESTYPE,AUTO,,2,FILL),;
          2 000365       4205 0021                                ALPHANUM(33,B5,,2,FILL)
          2 000367  5301 000E                            CBNE     s:18423,PREL

      458    18419    3           THEN DO;

      459    18420    3                FPT_CONNECT.TERMINAL_ID.TERMID = G$JIT.UNAME;

  18420   2 000369  0021                                 ALR      ;
          2 00036A       4C06 000A                                ALPHANUM(10,B6,,12),;
          2 00036C       4E07 005E                                ALPHANUM(FPT_CONNECT+6,AUTO,,14,FILL)

      460    18421    3                FPT_CONNECT.RESOURCE = 'NODADM';

  18421   2 00036E  DB80 0000 0000  01                   LAB,B5   ENO_IOP
          2 000371  0021                                 ALR      ;
          2 000372       4605 0023                                ALPHANUM(35,B5,,6),;
          2 000374       4807 0059                                ALPHANUM(FPT_CONNECT+1,AUTO,,8,FILL)

      461    18422    3                END;

      462    18423    2           FPT_CONNECT.TYPE = %KN_CON_TYP_SESS;

  18423   2 000376  4C01                                 LDV,R4   1
          2 000377  437F                                 CSYNC    s:18423,SPREL
          2 000378  CF47 0058                            STR,R4   FPT_CONNECT,AUTO

PL6.E3A0      #001=KNA$OPEN File=KNA$APE.:E05TSI                                 WED 07/30/97 00:55 Page:70
      463    18424    2           FPT_CONNECT.SERVICE = 0;

  18424   2 00037A  8847 0068                            LBF,'00FF'X       FPT_CONNECT+16,AUTO
  18424   2 00037C       00FF

      464    18425    2           RWPARM = KNA_RWPARM_CON;

  18425   2 00037D  AB80 0000 0000  xsym                 LAB,B2   KNA_RWPARM_CON
          2 000380  2C00                                 LDV,R2   0
          2 000381  6C52                                 LDV,R6   82
          2 000382  BB87                                 LAB,B3   ,AUTO
          2 000383  3C18                                 LDV,R3   24
          2 000384  0008                                 MMM

      465    18426    2           RWPARM.STR = MYDCB.STRM;

  18426   2 000385  DCC7 0074                            LDB,B5   DCB$,AUTO
          2 000387  E845 0002                            LDR,R6   2,B5
          2 000389  EAC7 0029                            SRM,R6,'00FF'X    RWPARM+29,AUTO
          2 00038B       00FF

      466    18427    2           CALL KNA$BUILD_VDO (%KV_VDO_FNC_UPDRELDVC,RWPARM,HDR);

  18427   2 00038C  CBF0 001E                            LAB,B4   30,IMO
          2 00038E  ABC7 0035                            LAB,B2   HDR,AUTO
          2 000390  AFC7 00C6                            STB,B2   WINDOW+21,AUTO
          2 000392  9BC7 000C                            LAB,B1   RWPARM,AUTO
          2 000394  9FC7 00C4                            STB,B1   WINDOW+19,AUTO
          2 000396  CFC7 00C2                            STB,B4   WINDOW+17,AUTO
          2 000398  BBC7 00C2                            LAB,B3   WINDOW+17,AUTO
          2 00039A  CBF0 0300                            LAB,B4   768,IMO
          2 00039C  E380 0000 0000  xent                 LNJ,B6   KNA$BUILD_VDO
          2 00039F       0001                            DC       s:18428,PREL

      467    18428    2           KN$NETPARM.UHDR$ = ADDR(HDR);

  18428   2 0003A0  EBC7 0035                            LAB,B6   HDR,AUTO
PL6.E3A0      #001=KNA$OPEN File=KNA$APE.:E05TSI                                 WED 07/30/97 00:55 Page:71
          2 0003A2  EFC7 003C                            STB,B6   KN$NETPARM+5,AUTO

      468    18429    2           KN$NETPARM.UHDRSZ = RWPARM.UHDRSZ;

  18429   2 0003A4  E847 0025                            LDR,R6   RWPARM+25,AUTO
          2 0003A6  EF47 003E                            STR,R6   KN$NETPARM+7,AUTO

      469    18430    2           KN$NETPARM.FPT$ = ADDR(FPT_CONNECT);

  18430   2 0003A8  DBC7 0058                            LAB,B5   FPT_CONNECT,AUTO
          2 0003AA  DFC7 0050                            STB,B5   KN$NETPARM+25,AUTO

      470    18431
      471    18432        %EJECT;
PL6.E3A0      #001=KNA$OPEN File=KNA$APE.:E05TSI                                 WED 07/30/97 00:55 Page:72
      472    18433        /*
      473    18434             Loop to reattempt Session connection depending upon resource type
      474    18435        errors
      475    18436        */
      476    18437                %LOCK (G=KNA_LNKSSN);

  18442   2 0003AC  BB80 0000 0001  03                   LAB,B3   +1
          2 0003AF  CBF0 0100                            LAB,B4   256,IMO
          2 0003B1  E380 0000 0000  xent                 LNJ,B6   GHH$LOCK
          2 0003B4       0001                            DC       s:18446,PREL

      477    18444
      478    18445    3           DO WHILE ('1'B);

      479    18446    3                KN$NETPARM.FUNCTION = %KN_FCN_INIT;

  18446   2 0003B5  6C01                                 LDV,R6   1
          2 0003B6  EF47 004B                            STR,R6   KN$NETPARM+20,AUTO

      480    18447    3                CALL KNS$SEND (KN$NETPARM);

  18447   2 0003B8  EBC7 0037                            LAB,B6   KN$NETPARM,AUTO
          2 0003BA  EFC7 00C2                            STB,B6   WINDOW+17,AUTO
          2 0003BC  BBC7 00C2                            LAB,B3   WINDOW+17,AUTO
          2 0003BE  CBF0 0100                            LAB,B4   256,IMO
          2 0003C0  E380 0000 0000  xent                 LNJ,B6   KNS$SEND
          2 0003C3       0001                            DC       s:18449,PREL

      481    18448
      482    18449    3                IF KN$NETPARM.ERRCODE = 0

  18449   2 0003C4  E847 004D                            LDR,R6   KN$NETPARM+22,AUTO
          2 0003C6  6901 006F                            BEZ,R6   s:18506,PREL

      483    18450    3                THEN EXIT;
      484    18451
      485    18452    4                DO SELECT (KN$NETPARM.ERRCODE);
PL6.E3A0      #001=KNA$OPEN File=KNA$APE.:E05TSI                                 WED 07/30/97 00:55 Page:73

  18452   2 0003C8  E970 0003                            CMR,R6   3,IMO
          2 0003CA  0201 000E                            BL       s:18452+17,PREL
          2 0003CC  0901 0019                            BE       s:18459,PREL
          2 0003CE  E970 0006                            CMR,R6   6,IMO
          2 0003D0  0201 0059                            BL       s:18494,PREL
          2 0003D2  0901 000B                            BE       s:18455,PREL
          2 0003D4  6D07                                 CMV,R6   7
          2 0003D5  0981 0054                            BNE      s:18494,PREL
          2 0003D7  0F81 0038                            B        s:18489,PREL
          2 0003D9  6D01                                 CMV,R6   1
          2 0003DA  0981 004F                            BNE      s:18494,PREL
          2 0003DC  0F81 0033                            B        s:18489,PREL

      486    18453
      487    18454    4                     SELECT (%KN_ERR_NOTCTX);

      488    18455    4                     ERROR = ENOTCTX;

  18455   2 0003DE  8C80 0000 0004  01                   LDI      ENOTCTX
          2 0003E1  ECC7 0006                            LDB,B6   @ERROR,AUTO
          2 0003E3  8D06                                 SDI      ,B6

      489    18456    4                     GOTO UNLOCK_N_ALTRET;

  18456   2 0003E4  0F81 0007                            B        s:18466,PREL

      490    18457
      491    18458    4                     SELECT (%KN_ERR_NORTE);

      492    18459    4                     ERROR = ENORTE;

  18459   2 0003E6  8C80 0000 0006  01                   LDI      ENORTE
          2 0003E9  ECC7 0006                            LDB,B6   @ERROR,AUTO
          2 0003EB  8D06                                 SDI      ,B6

      493    18460    4   UNLOCK_N_ALTRET:
PL6.E3A0      #001=KNA$OPEN File=KNA$APE.:E05TSI                                 WED 07/30/97 00:55 Page:74
      494    18461                          %UNLOCK (G=KNA_LNKSSN);

  18466   2 0003EC  BB80 0000 0001  03   UNLOCK_N_ALTRET LAB,B3   +1
          2 0003EF  CBF0 0100                            LAB,B4   256,IMO
          2 0003F1  E380 0000 0000  xent                 LNJ,B6   GHH$UNLOCK
          2 0003F4       0001                            DC       s:18469,PREL

      495    18468    4   RLSSSN_N_ALTRET:
      496    18469    4                     CALL KNA$RLSLDCT(KN$NETPARM.LDCT$);

  18469   2 0003F5  EBC7 0037            RLSSSN_N_ALTRET LAB,B6   KN$NETPARM,AUTO
          2 0003F7  EFC7 00C2                            STB,B6   WINDOW+17,AUTO
          2 0003F9  BBC7 00C2                            LAB,B3   WINDOW+17,AUTO
          2 0003FB  CBF0 0100                            LAB,B4   256,IMO
          2 0003FD  E380 0000 0000  xent                 LNJ,B6   KNA$RLSLDCT
          2 000400       0001                            DC       s:18471,PREL

      497    18470    4   RLSDCT_N_ALTRET:
      498    18471    4                     CALL KNA$RLSSSN(SSN$);

  18471   2 000401  EBC7 0076            RLSDCT_N_ALTRET LAB,B6   SSN$,AUTO
          2 000403  EFC7 00C2                            STB,B6   WINDOW+17,AUTO
          2 000405  BBC7 00C2                            LAB,B3   WINDOW+17,AUTO
          2 000407  CBF0 0100                            LAB,B4   256,IMO
          2 000409  E380 0000 0000  xent                 LNJ,B6   KNA$RLSSSN
          2 00040C       0001                            DC       s:18472,PREL

      499    18472    4                     ALTRETURN;

  18472   2 00040D  C380 0000 0000  xent                 LNJ,B4   X6A_AALT

      500    18473
      501    18474        /*E*     ERROR: KNA-E$NOTCTX
      502    18475                 MESSAGE: No transport context is available.
      503    18476        */
      504    18477
      505    18478        /*E*     ERROR: KNA-E$NORTE
PL6.E3A0      #001=KNA$OPEN File=KNA$APE.:E05TSI                                 WED 07/30/97 00:55 Page:75
      506    18479                 MESSAGE: No network connection is available
      507    18480        */
      508    18481
      509    18482
      510    18483        /*
      511    18484             Try again when a Circular Queue frees up causing this user to run
      512    18485        again.
      513    18486        */
      514    18487
      515    18488    4                     SELECT (%KN_ERR_NOQ,%KN_ERR_NOQ2);

      516    18489    4                     KNA$SSN.FLAGS.CQ = '1'B;

  18489   2 000410  ECC7 0076                            LDB,B6   SSN$,AUTO
          2 000412  8906                                 LBT,'2000'X       ,B6
          2 000413       2000

      517    18490    4                     CALL KNA$REG_USER(%GH_EVCBL,SSN$);

  18490   2 000414  EBF0 0019                            LAB,B6   25,IMO
          2 000416  DBC7 0076                            LAB,B5   SSN$,AUTO
          2 000418  DFC7 00C4                            STB,B5   WINDOW+19,AUTO
          2 00041A  EFC7 00C2                            STB,B6   WINDOW+17,AUTO
          2 00041C  BBC7 00C2                            LAB,B3   WINDOW+17,AUTO
          2 00041E  CBF0 0200                            LAB,B4   512,IMO
          2 000420  E380 0000 0000  xent                 LNJ,B6   KNA$REG_USER
          2 000423       0001                            DC       s:18491,PREL

      518    18491    4                     KNA$SSN.FLAGS.CQ = '0'B;

  18491   2 000424  ECC7 0076                            LDB,B6   SSN$,AUTO
          2 000426  8806                                 LBF,'2000'X       ,B6
          2 000427       2000
          2 000428  0F81 FF8C                            B        s:18446,PREL

      519    18492
      520    18493    4                     SELECT (ELSE);
PL6.E3A0      #001=KNA$OPEN File=KNA$APE.:E05TSI                                 WED 07/30/97 00:55 Page:76

      521    18494    4                CALL SCREECH (SCR_UNEXP);

  18494   2 00042A  BB80 0000 0003  03                   LAB,B3   +3
          2 00042D  CBF0 0100                            LAB,B4   256,IMO
          2 00042F  E380 0000 0000  xent                 LNJ,B6   SCREECH
          2 000432       0001                            DC       s:18495,PREL

      522    18495    4                ALTRETURN;

  18495   2 000433  C380 0000 0000  xent                 LNJ,B4   X6A_AALT

      523    18496
      524    18497    4                     END /* End cases */;

      525    18498    3                END;                       /* DO WHILE ('1'B);                   */

      526    18499        %EJECT;
PL6.E3A0      #001=KNA$OPEN File=KNA$APE.:E05TSI                                 WED 07/30/97 00:55 Page:77
      527    18500        /*
      528    18501             We have made a good contact with Session and he is attempting to
      529    18502        establish the network connection for us.  We must now REG the user and
      530    18503        wait for Session to tell us about success or failure.
      531    18504        */
      532    18505
      533    18506    2           CALL KNA$REG_USER(%GH_EVCW,SSN$);

  18506   2 000436  EBF0 0015                            LAB,B6   21,IMO
          2 000438  DBC7 0076                            LAB,B5   SSN$,AUTO
          2 00043A  DFC7 00C4                            STB,B5   WINDOW+19,AUTO
          2 00043C  EFC7 00C2                            STB,B6   WINDOW+17,AUTO
          2 00043E  BBC7 00C2                            LAB,B3   WINDOW+17,AUTO
          2 000440  CBF0 0200                            LAB,B4   512,IMO
          2 000442  E380 0000 0000  xent                 LNJ,B6   KNA$REG_USER
          2 000445       0001                            DC       s:18507,PREL

      534    18507    2           IF KNA$SSN.FLAGS.SSNERR = '1'B

  18507   2 000446  ECC7 0076                            LDB,B6   SSN$,AUTO
          2 000448  8286                                 LB,'0800'X        ,B6
          2 000449       0800
          2 00044A  0581 000F                            BBF      s:18516,PREL

      535    18508    3           THEN DO;

      536    18509    3                ERROR = KNA$SSN.ERROR;

  18509   2 00044C  8CC6 0001                            LDI      1,B6
          2 00044E  DCC7 0006                            LDB,B5   @ERROR,AUTO
          2 000450  8D05                                 SDI      ,B5

      537    18510
      538    18511    3                IF KNA$SSN.STATE = %KNA_STATE_WSSNINIT#

  18511   2 000451  ECC7 0076                            LDB,B6   SSN$,AUTO
          2 000453  D846 0013                            LDR,R5   19,B6
PL6.E3A0      #001=KNA$OPEN File=KNA$APE.:E05TSI                                 WED 07/30/97 00:55 Page:78
          2 000455  5D01                                 CMV,R5   1
          2 000456  0901 FF95                            BE       s:18466,PREL

      539    18512    3                THEN GOTO UNLOCK_N_ALTRET; /* no INIT_ACK, or a failure one.     */
      540    18513    3                GOTO CLOSE_IT;   /* probably a disconnect right after INIT_ACK   */

  18513   2 000458  0F81 0325                            B        s:18718,PREL

      541    18514    3                END;
      542    18515
      543    18516    2           KNA$SSN.RLCID = KN$LDCT.RLCID;

  18516   2 00045A  DCC7 0037                            LDB,B5   KN$NETPARM,AUTO
          2 00045C  8CC5 0001                            LDI      1,B5
          2 00045E  8D46 000F                            SDI      15,B6

      544    18517
      545    18518        /*
      546    18519             We now have a valid network connection for this user.  Send an
      547    18520        OPEN message to the other end and wait for a positive reply before
      548    18521        returning to this user.  Then we are truly open.
      549    18522        */
      550    18523
      551    18524    2           RWPARM = KNA_RWPARM_CON;

  18524   2 000460  AB80 0000 0000  xsym                 LAB,B2   KNA_RWPARM_CON
          2 000463  2C00                                 LDV,R2   0
          2 000464  6C52                                 LDV,R6   82
          2 000465  BB87                                 LAB,B3   ,AUTO
          2 000466  3C18                                 LDV,R3   24
          2 000467  0008                                 MMM

      552    18525    2           CALL KNA$FCNOU(%KV_VDO_FNC_OPNSSN_RQS,KNA$SSN,RWPARM,ERR);

  18525   2 000468  EBF0 0010                            LAB,B6   16,IMO
          2 00046A  DBC7 006F                            LAB,B5   ERR,AUTO
          2 00046C  DFC7 00C8                            STB,B5   WINDOW+23,AUTO
PL6.E3A0      #001=KNA$OPEN File=KNA$APE.:E05TSI                                 WED 07/30/97 00:55 Page:79
          2 00046E  CBC7 000C                            LAB,B4   RWPARM,AUTO
          2 000470  CFC7 00C6                            STB,B4   WINDOW+21,AUTO
          2 000472  ACC7 0076                            LDB,B2   SSN$,AUTO
          2 000474  AFC7 00C4                            STB,B2   WINDOW+19,AUTO
          2 000476  EFC7 00C2                            STB,B6   WINDOW+17,AUTO
          2 000478  BBC7 00C2                            LAB,B3   WINDOW+17,AUTO
          2 00047A  CBF0 0400                            LAB,B4   1024,IMO
          2 00047C  E380 0000 0000  xent                 LNJ,B6   KNA$FCNOU
          2 00047F       0001                            DC       s:18526,PREL

      553    18526    2           KNA$SSN.STATE = %KNA_STATE_ACTIVE#;

  18526   2 000480  ECC7 0076                            LDB,B6   SSN$,AUTO
          2 000482  6C03                                 LDV,R6   3
          2 000483  EF46 0013                            STR,R6   19,B6

      554    18527                %UNLOCK (G=KNA_LNKSSN);

  18532   2 000485  BB80 0000 0001  03                   LAB,B3   +1
          2 000488  CBF0 0100                            LAB,B4   256,IMO
          2 00048A  E380 0000 0000  xent                 LNJ,B6   GHH$UNLOCK
          2 00048D       0001                            DC       s:18541,PREL

      555    18534    2           END/*do if opndcb$ = nil*/;

      556    18535
      557    18536        %EJECT;
PL6.E3A0      #001=KNA$OPEN File=KNA$APE.:E05TSI                                 WED 07/30/97 00:55 Page:80
      558    18537        /*   Whether we had to get a new set of SSN/LDCT contexts or not we
      559    18538        now come here to finish the final tidbits of DCB opening.
      560    18539        */
      561    18540
      562    18541    1      KNA$SSN.EVENT = MYDCB.EVENT;

  18541   2 00048E  ECC7 0076                            LDB,B6   SSN$,AUTO
          2 000490  DCC7 0074                            LDB,B5   DCB$,AUTO
          2 000492  E845 0025                            LDR,R6   37,B5
          2 000494  EF46 0016                            STR,R6   22,B6

      563    18542    1      MYDCB.SSN$ = SSN$;

  18542   2 000496  ECC7 0076                            LDB,B6   SSN$,AUTO
          2 000498  EFC5 0030                            STB,B6   48,B5

      564    18543    1      MYDCB.DDEV.CG = KNA$SSN.FLAGS.CG;

  18543   2 00049A  CCC7 0076                            LDB,B4   SSN$,AUTO
          2 00049C  E804                                 LDR,R6   ,B4
          2 00049D  6049                                 SOR,R6   9
          2 00049E  EAC5 0003                            SRM,R6,'0008'X    3,B5
          2 0004A0       0008

      565    18544    1      MYDCB.STRM = STRM;

  18544   2 0004A1  E847 0073                            LDR,R6   STRM,AUTO
          2 0004A3  EAC5 0002                            SRM,R6,'00FF'X    2,B5
          2 0004A5       00FF

      566    18545    1      MYDCB.FCD = '1'B;

  18545   2 0004A6  8945 001F                            LBT,'4000'X       31,B5
  18545   2 0004A8       4000

      567    18546    1      MYDCB.FCI = '1'B;

PL6.E3A0      #001=KNA$OPEN File=KNA$APE.:E05TSI                                 WED 07/30/97 00:55 Page:81
  18546   2 0004A9  8945 001F                            LBT,'8000'X       31,B5
  18546   2 0004AB       8000

      568    18547    1      MYDCB.FFLG = 'FF'X;

  18547   2 0004AC  8945 0003                            LBT,'FF00'X       3,B5
  18547   2 0004AE       FF00

      569    18548
      570    18549           %LOCK (G=KNA_LNKSSN);

  18554   2 0004AF  BB80 0000 0001  03                   LAB,B3   +1
          2 0004B2  CBF0 0100                            LAB,B4   256,IMO
          2 0004B4  E380 0000 0000  xent                 LNJ,B6   GHH$LOCK
          2 0004B7       0001                            DC       s:18556,PREL

      571    18556    1      IF NEWSTREAM AND STRM ~= 1 AND UCSTREAM

  18556   2 0004B8  89C7 006C                            CMZ      NEWSTREAM,AUTO
          2 0004BA  0881 0144                            BAGE     s:18622,PREL
          2 0004BC  E847 0073                            LDR,R6   STRM,AUTO
          2 0004BE  6D01                                 CMV,R6   1
          2 0004BF  0901 013F                            BE       s:18622,PREL
          2 0004C1  89C7 006D                            CMZ      UCSTREAM,AUTO
          2 0004C3  0881 013B                            BAGE     s:18622,PREL

      572    18557    2      THEN DO;

      573    18558    2           RWPARM = KNA_RWPARM_CON;

  18558   2 0004C5  AB80 0000 0000  xsym                 LAB,B2   KNA_RWPARM_CON
          2 0004C8  2C00                                 LDV,R2   0
          2 0004C9  6C52                                 LDV,R6   82
          2 0004CA  BB87                                 LAB,B3   ,AUTO
          2 0004CB  3C18                                 LDV,R3   24
          2 0004CC  0008                                 MMM

PL6.E3A0      #001=KNA$OPEN File=KNA$APE.:E05TSI                                 WED 07/30/97 00:55 Page:82
      574    18559    2           RWPARM.STR = 1;

  18559   2 0004CD  6C01                                 LDV,R6   1
          2 0004CE  EAC7 0029                            SRM,R6,'00FF'X    RWPARM+29,AUTO
          2 0004D0       00FF

      575    18560    2           RWPARM.STRID = STRM;

  18560   2 0004D1  D847 0073                            LDR,R5   STRM,AUTO
          2 0004D3  D7C7 0028                            STH,R5   RWPARM+28,AUTO

      576    18561    2           CALL KNA$FCNOU(%KV_VDO_FNC_DCLSTR,KNA$SSN,RWPARM,ERR);

  18561   2 0004D5  EBF0 0008                            LAB,B6   8,IMO
          2 0004D7  DBC7 006F                            LAB,B5   ERR,AUTO
          2 0004D9  DFC7 00C8                            STB,B5   WINDOW+23,AUTO
          2 0004DB  CBC7 000C                            LAB,B4   RWPARM,AUTO
          2 0004DD  CFC7 00C6                            STB,B4   WINDOW+21,AUTO
          2 0004DF  ACC7 0076                            LDB,B2   SSN$,AUTO
          2 0004E1  AFC7 00C4                            STB,B2   WINDOW+19,AUTO
          2 0004E3  EFC7 00C2                            STB,B6   WINDOW+17,AUTO
          2 0004E5  BBC7 00C2                            LAB,B3   WINDOW+17,AUTO
          2 0004E7  CBF0 0400                            LAB,B4   1024,IMO
          2 0004E9  E380 0000 0000  xent                 LNJ,B6   KNA$FCNOU
          2 0004EC       0001                            DC       s:18562,PREL

      577    18562    2           RWPARM.STR = STRM;

  18562   2 0004ED  E847 0073                            LDR,R6   STRM,AUTO
          2 0004EF  EAC7 0029                            SRM,R6,'00FF'X    RWPARM+29,AUTO
          2 0004F1       00FF

      578    18563    2           IF ADDR(VLP_WINDOW)~= ADDR(NIL)

  18563   2 0004F2  ECC7 000A                            LDB,B6   @VLP_WINDOW,AUTO
          2 0004F4  8DD6                                 CMN      B6
          2 0004F5  0901 001A                            BE       s:18569,PREL
PL6.E3A0      #001=KNA$OPEN File=KNA$APE.:E05TSI                                 WED 07/30/97 00:55 Page:83

      579    18564    3           THEN DO;

      580    18565    3                WINDOW = VLP_WINDOW;

  18565   2 0004F7  AB86                                 LAB,B2   ,B6
          2 0004F8  2C00                                 LDV,R2   0
          2 0004F9  6C20                                 LDV,R6   32
          2 0004FA  BBC7 00B1                            LAB,B3   WINDOW,AUTO
          2 0004FC  3C00                                 LDV,R3   0
          2 0004FD  0008                                 MMM

      581    18566    3                CALL KNA$CONV_STR(WINDOW,ERROR);

  18566   2 0004FE  DCC7 0006                            LDB,B5   @ERROR,AUTO
          2 000500  DFC7 00C4                            STB,B5   WINDOW+19,AUTO
          2 000502  CBC7 00B1                            LAB,B4   WINDOW,AUTO
          2 000504  CFC7 00C2                            STB,B4   WINDOW+17,AUTO
          2 000506  BBC7 00C2                            LAB,B3   WINDOW+17,AUTO
          2 000508  CBF0 0200                            LAB,B4   512,IMO
          2 00050A  E380 0000 0000  xent                 LNJ,B6   KNA$CONV_STR
          2 00050D       0001                            DC       s:18567,PREL

      582    18567    3                END;

  18567   2 00050E  0F81 000A                            B        s:18570,PREL

      583    18568    2           ELSE
      584    18569    2                WINDOW = KNA_WINDOW;

  18569   2 000510  AB80 0000 0000  xsym                 LAB,B2   KNA_WINDOW
          2 000513  2C00                                 LDV,R2   0
          2 000514  6C20                                 LDV,R6   32
          2 000515  BBC7 00B1                            LAB,B3   WINDOW,AUTO
          2 000517  3C00                                 LDV,R3   0
          2 000518  0008                                 MMM

PL6.E3A0      #001=KNA$OPEN File=KNA$APE.:E05TSI                                 WED 07/30/97 00:55 Page:84
      585    18570    2           RWPARM.MSG$ = ADDR(WINDOW);

  18570   2 000519  EBC7 00B1                            LAB,B6   WINDOW,AUTO
          2 00051B  EFC7 000C                            STB,B6   RWPARM,AUTO

      586    18571    2           RWPARM.MSGSZ = SIZEC(WINDOW);

  18571   2 00051D  6C20                                 LDV,R6   32
          2 00051E  EF47 000E                            STR,R6   RWPARM+2,AUTO

      587    18572    2           RWPARM.V$ = ADDR(KNA_WINDOW_TL);

  18572   2 000520  DB80 0000 0000  xsym                 LAB,B5   KNA_WINDOW_TL
          2 000523  DFC7 002D                            STB,B5   RWPARM+33,AUTO

      588    18573    2           RWPARM.VSZ = SIZEC (KNA_WINDOW_TL);

  18573   2 000525  5C02                                 LDV,R5   2
          2 000526  DF47 0031                            STR,R5   RWPARM+37,AUTO

      589    18574    2           IF ADDR(VLP_WINDOW) ~= ADDR(NIL)

  18574   2 000528  CCC7 000A                            LDB,B4   @VLP_WINDOW,AUTO
          2 00052A  8DD4                                 CMN      B4
          2 00052B  0981 000A                            BNE      s:18576,PREL
          2 00052D  BCC7 0074                            LDB,B3   DCB$,AUTO
          2 00052F  C843 001F                            LDR,R4   31,B3
          2 000531  C570 00FF                            AND,R4   255,IMO
          2 000533  4D02                                 CMV,R4   2
          2 000534  0981 0019                            BNE      s:18577,PREL

      590    18575    2             OR MYDCB.ORG = %G_ORG_FORM#
      591    18576    2           THEN CALL KNA$FCNOU(%KV_VDO_FNC_PRM_SET,KNA$SSN,RWPARM,ERR);

  18576   2 000536  BBF0 0013                            LAB,B3   19,IMO
          2 000538  ABC7 006F                            LAB,B2   ERR,AUTO
          2 00053A  AFC7 00C8                            STB,B2   WINDOW+23,AUTO
PL6.E3A0      #001=KNA$OPEN File=KNA$APE.:E05TSI                                 WED 07/30/97 00:55 Page:85
          2 00053C  9BC7 000C                            LAB,B1   RWPARM,AUTO
          2 00053E  9FC7 00C6                            STB,B1   WINDOW+21,AUTO
          2 000540  ECC7 0076                            LDB,B6   SSN$,AUTO
          2 000542  EFC7 00C4                            STB,B6   WINDOW+19,AUTO
          2 000544  BFC7 00C2                            STB,B3   WINDOW+17,AUTO
          2 000546  BBC7 00C2                            LAB,B3   WINDOW+17,AUTO
          2 000548  CBF0 0400                            LAB,B4   1024,IMO
          2 00054A  E380 0000 0000  xent                 LNJ,B6   KNA$FCNOU
          2 00054D       0001                            DC       s:18577,PREL

      592    18577    2           RWPARM = KNA_RWPARM_CON;

  18577   2 00054E  AB80 0000 0000  xsym                 LAB,B2   KNA_RWPARM_CON
          2 000551  2C00                                 LDV,R2   0
          2 000552  6C52                                 LDV,R6   82
          2 000553  BB87                                 LAB,B3   ,AUTO
          2 000554  3C18                                 LDV,R3   24
          2 000555  0008                                 MMM

      593    18578    2           RWPARM.STR = STRM;

  18578   2 000556  E847 0073                            LDR,R6   STRM,AUTO
          2 000558  EAC7 0029                            SRM,R6,'00FF'X    RWPARM+29,AUTO
          2 00055A       00FF

      594    18579    2           IF MYDCB.ORG = %G_ORG_FORM#

  18579   2 00055B  ECC7 0074                            LDB,B6   DCB$,AUTO
          2 00055D  D846 001F                            LDR,R5   31,B6
          2 00055F  D570 00FF                            AND,R5   255,IMO
          2 000561  5D02                                 CMV,R5   2
          2 000562  0981 0006                            BNE      s:18582,PREL

      595    18580    2           THEN
      596    18581    2                RWPARM.ORG = %KV#VD_ORG_FORM;

  18581   2 000564  4C04                                 LDV,R4   4
PL6.E3A0      #001=KNA$OPEN File=KNA$APE.:E05TSI                                 WED 07/30/97 00:55 Page:86
          2 000565  C7C7 0028                            STH,R4   RWPARM+28,AUTO
          2 000567  0F81 0014                            B        s:18590,PREL

      597    18582    2           ELSE IF MYDCB.ORG = %G_ORG_X364#

  18582   2 000569  5D07                                 CMV,R5   7
          2 00056A  0981 0006                            BNE      s:18585,PREL

      598    18583    2                THEN
      599    18584    2                     RWPARM.ORG = %KV#VD_ORG_X364;

  18584   2 00056C  4C02                                 LDV,R4   2
          2 00056D  C7C7 0028                            STH,R4   RWPARM+28,AUTO
          2 00056F  0F81 000C                            B        s:18590,PREL

      600    18585    2                ELSE IF MYDCB.ORG = %G_ORG_SE#

  18585   2 000571  5D06                                 CMV,R5   6
          2 000572  0981 0006                            BNE      s:18589,PREL

      601    18586    2                     THEN
      602    18587    2                          RWPARM.ORG = %KV#VD_ORG_SE;

  18587   2 000574  4C05                                 LDV,R4   5
          2 000575  C7C7 0028                            STH,R4   RWPARM+28,AUTO
          2 000577  0F81 0004                            B        s:18590,PREL

      603    18588    2                     ELSE
      604    18589    2                          RWPARM.ORG = %KV#VD_ORG_UR;

  18589   2 000579  4C01                                 LDV,R4   1
          2 00057A  C7C7 0028                            STH,R4   RWPARM+28,AUTO

      605    18590    2           IOP$ = ADDR(NIL);

  18590   2 00057C  DB80 0000 0000                       LAB,B5   0
          2 00057F  DFC7 0071                            STB,B5   IOP$,AUTO
PL6.E3A0      #001=KNA$OPEN File=KNA$APE.:E05TSI                                 WED 07/30/97 00:55 Page:87

      606    18591    2           CALL KNA$GETIOP(IOP$)

  18591   2 000581  CBC7 0071                            LAB,B4   IOP$,AUTO
          2 000583  CFC7 00C2                            STB,B4   WINDOW+17,AUTO
          2 000585  BBC7 00C2                            LAB,B3   WINDOW+17,AUTO
          2 000587  CBF0 0100                            LAB,B4   256,IMO
          2 000589  E380 0000 0000  xent                 LNJ,B6   KNA$GETIOP
          2 00058C       0010                            DC       s:18598,PREL

      607    18592    3           WHENRETURN DO ;

      608    18593    3                RWPARM.MRKTYP = %KV_VDOMRKTYP_ENDACK;

  18593   2 00058D  6C01                                 LDV,R6   1
          2 00058E  E7C7 0029                            STH,R6   RWPARM+29,AUTO

      609    18594    3                KNA$SSN.IOPQ$ = IOP$;

  18594   2 000590  ECC7 0071                            LDB,B6   IOP$,AUTO
          2 000592  DCC7 0076                            LDB,B5   SSN$,AUTO
          2 000594  EFC5 000B                            STB,B6   11,B5

      610    18595    3                KNA$SSN.FLAGS.RRRPND = '1'B;

  18595   2 000596  ECC7 0076                            LDB,B6   SSN$,AUTO
          2 000598  8906                                 LBT,'0200'X       ,B6
          2 000599       0200

      611    18596    3                END;

  18596   2 00059A  0F81 0009                            B        s:18601,PREL

      612    18597    3           WHENALTRETURN DO;

      613    18598    3                ERROR = ENO_IOP;

PL6.E3A0      #001=KNA$OPEN File=KNA$APE.:E05TSI                                 WED 07/30/97 00:55 Page:88
  18598   2 00059C  8C80 0000 0000  01                   LDI      ENO_IOP
          2 00059F  ECC7 0006                            LDB,B6   @ERROR,AUTO
          2 0005A1  8D06                                 SDI      ,B6

      614    18599    3                GOTO KNA_CLOSE;

  18599   2 0005A2  0F81 0079                            B        s:18629,PREL

      615    18600    3                END;
      616    18601    2           CALL KNA$FCNOU(%KV_VDO_FNC_OPNSTR,KNA$SSN,RWPARM,ERR);

  18601   2 0005A4  EBF0 0021                            LAB,B6   33,IMO
          2 0005A6  DBC7 006F                            LAB,B5   ERR,AUTO
          2 0005A8  DFC7 00C8                            STB,B5   WINDOW+23,AUTO
          2 0005AA  CBC7 000C                            LAB,B4   RWPARM,AUTO
          2 0005AC  CFC7 00C6                            STB,B4   WINDOW+21,AUTO
          2 0005AE  BCC7 0076                            LDB,B3   SSN$,AUTO
          2 0005B0  BFC7 00C4                            STB,B3   WINDOW+19,AUTO
          2 0005B2  EFC7 00C2                            STB,B6   WINDOW+17,AUTO
          2 0005B4  BBC7 00C2                            LAB,B3   WINDOW+17,AUTO
          2 0005B6  CBF0 0400                            LAB,B4   1024,IMO
          2 0005B8  E380 0000 0000  xent                 LNJ,B6   KNA$FCNOU
          2 0005BB       0001                            DC       s:18602,PREL

      617    18602    2           IF(IOP$ ~= ADDR(NIL))

  18602   2 0005BC  8DC7 0071                            CMN      IOP$,AUTO
          2 0005BE  0901 0040                            BE       s:18622,PREL

      618    18603    3           THEN DO;

      619    18604    3                CALL KNA$REG_USER(%GH_EVCW,SSN$)

  18604   2 0005C0  EBF0 0015                            LAB,B6   21,IMO
          2 0005C2  DBC7 0076                            LAB,B5   SSN$,AUTO
          2 0005C4  DFC7 00C4                            STB,B5   WINDOW+19,AUTO
          2 0005C6  EFC7 00C2                            STB,B6   WINDOW+17,AUTO
PL6.E3A0      #001=KNA$OPEN File=KNA$APE.:E05TSI                                 WED 07/30/97 00:55 Page:89
          2 0005C8  BBC7 00C2                            LAB,B3   WINDOW+17,AUTO
          2 0005CA  CBF0 0200                            LAB,B4   512,IMO
          2 0005CC  E380 0000 0000  xent                 LNJ,B6   KNA$REG_USER
          2 0005CF       0009                            DC       s:18609,PREL

      620    18605    4                WHENRETURN DO;

      621    18606    4                     ERROR = IOP$->KN$IOP.ERRCODE;

  18606   2 0005D0  ECC7 0071                            LDB,B6   IOP$,AUTO
          2 0005D2  8C86                                 LDI      ,B6
          2 0005D3  DCC7 0006                            LDB,B5   @ERROR,AUTO
          2 0005D5  8D05                                 SDI      ,B5

      622    18607    4                     END;

  18607   2 0005D6  0F81 0008                            B        s:18611,PREL

      623    18608    4                WHENALTRETURN DO;

      624    18609    4                     ERROR = KNA$SSN.ERROR;

  18609   2 0005D8  ECC7 0076                            LDB,B6   SSN$,AUTO
          2 0005DA  8CC6 0001                            LDI      1,B6
          2 0005DC  DCC7 0006                            LDB,B5   @ERROR,AUTO
          2 0005DE  8D05                                 SDI      ,B5

      625    18610    4                     END;

      626    18611    3                KNA$SSN.IOPQ$ = ADDR(NIL);

  18611   2 0005DF  EB80 0000 0000                       LAB,B6   0
          2 0005E2  CCC7 0076                            LDB,B4   SSN$,AUTO
          2 0005E4  EFC4 000B                            STB,B6   11,B4

      627    18612    3                CALL KNA$RLSIOP(IOP$);

PL6.E3A0      #001=KNA$OPEN File=KNA$APE.:E05TSI                                 WED 07/30/97 00:55 Page:90
  18612   2 0005E6  EBC7 0071                            LAB,B6   IOP$,AUTO
          2 0005E8  EFC7 00C2                            STB,B6   WINDOW+17,AUTO
          2 0005EA  BBC7 00C2                            LAB,B3   WINDOW+17,AUTO
          2 0005EC  CBF0 0100                            LAB,B4   256,IMO
          2 0005EE  E380 0000 0000  xent                 LNJ,B6   KNA$RLSIOP
          2 0005F1       0001                            DC       s:18613,PREL

      628    18613    3                IF (ERROR ~= '0'B)

  18613   2 0005F2  ECC7 0006                            LDB,B6   @ERROR,AUTO
          2 0005F4  DB80 0000 0000  03                   LAB,B5   0
          2 0005F7  5C01                                 LDV,R5   1
          2 0005F8  0022                                 ACM      ;
          2 0005F9       4406 0000                                ALPHANUM(0,B6,,4,FILL),;
          2 0005FB       4005 0000                                ALPHANUM(0,B5,,R5,FILL)
          2 0005FD  5301 001E                            CBNE     s:18629,PREL

      629    18614    3                THEN GOTO KNA_CLOSE;
      630    18615    3                END;

      631    18616    2           END;

      632    18617           %UNLOCK (G=KNA_LNKSSN);

  18622   2 0005FF  BB80 0000 0001  03                   LAB,B3   +1
          2 000602  CBF0 0100                            LAB,B4   256,IMO
          2 000604  E380 0000 0000  xent                 LNJ,B6   GHH$UNLOCK
          2 000607       0001                            DC       s:18625,PREL

      633    18624
      634    18625    1      MYDCB.RLCID = KNA$SSN.RLCID;

  18625   2 000608  ECC7 0076                            LDB,B6   SSN$,AUTO
          2 00060A  8CC6 000F                            LDI      15,B6
          2 00060C  DCC7 0074                            LDB,B5   DCB$,AUTO
          2 00060E  8D45 002D                            SDI      45,B5

PL6.E3A0      #001=KNA$OPEN File=KNA$APE.:E05TSI                                 WED 07/30/97 00:55 Page:91
      635    18626    1      RETURN;

  18626   2 000610  C380 0000 0000  xent                 LNJ,B4   X6A_ARET

      636    18627        %EJECT;
PL6.E3A0      #001=KNA$OPEN File=KNA$APE.:E05TSI                                 WED 07/30/97 00:55 Page:92
      637    18628    1   KNA$TRUNC: ENTRY (DCBNUMBER,ERROR) ALTRET;

  18628   2 000613  D380 0000 0000  xent KNA$TRUNC       LNJ,B5   X6A_AUTO_N
          2 000616       00CE 0004                       DC       206,4

      638    18629    1      CLOSING = '0'B;

  18629   2 000618  8747 006B                            CL       CLOSING,AUTO

      639    18630    1      GOTO MAINLINE;

  18630   2 00061A  0F81 000E                            B        s:18637,PREL

  18629   2                              KNA_CLOSE       null
      640    18631
      641    18632    1   KNA_CLOSE: ;
      642    18633    1      CLOSING = '1'B;

  18633   2 00061C  8947 006B            KNA_CLOSE       LBT,'8000'X       CLOSING,AUTO
  18633   2 00061E       8000

      643    18634    1      GOTO INTERNAL_CLOSE;

  18634   2 00061F  0F81 009A                            B        s:18680,PREL

      644    18635
      645    18636    1   KNA$CLOSE: ENTRY (DCBNUMBER,ERROR) ALTRET;

  18636   2 000621  D380 0000 0000  xent KNA$CLOSE       LNJ,B5   X6A_AUTO_N
          2 000624       00CE 0004                       DC       206,4

      646    18637    1      CLOSING = '1'B;

  18637   2 000626  8947 006B                            LBT,'8000'X       CLOSING,AUTO
  18637   2 000628       8000

  18637   2                              MAINLINE        null
PL6.E3A0      #001=KNA$OPEN File=KNA$APE.:E05TSI                                 WED 07/30/97 00:55 Page:93
      647    18638    1   MAINLINE: ;
      648    18639
      649    18640    1      DCB$ = G$ROS.DCBPTR$->G$DCBTABLE(DCBNUMBER);

  18640   2 000629  EC80 0000 0000  xsym MAINLINE        LDB,B6   G$ROS$
          2 00062C  DC86                                 LDB,B5   ,B6
          2 00062D  CCC7 0004                            LDB,B4   @DCBNUMBER,AUTO
          2 00062F  B804                                 LDR,R3   ,B4
          2 000630  BCB5                                 LDB,B3   ,B5,R3
          2 000631  BFC7 0074                            STB,B3   DCB$,AUTO

      650    18641    1      SSN$ = MYDCB.SSN$;

  18641   2 000633  ACC3 0030                            LDB,B2   48,B3
          2 000635  AFC7 0076                            STB,B2   SSN$,AUTO

      651    18642    1      ERROR = '0'B;                        /* so we know whether to ALTRETURN    */

  18642   2 000637  DCC7 0006                            LDB,B5   @ERROR,AUTO
          2 000639  8705                                 CL       ,B5
          2 00063A  8745 0001                            CL       1,B5

      652    18643
      653    18644    1      IF NOT MYDCB.FCD                     /* Dcb is closed                      */

  18644   2 00063C  82C3 001F                            LB,'4000'X        31,B3
  18644   2 00063E       4000
          2 00063F  0501 0008                            BBT      s:18658,PREL

      654    18645    2      THEN DO;

      655    18646    2           ERROR = EDCB_CLOSED;

  18646   2 000641  8C80 0000 0010  01                   LDI      EDCB_CLOSED
          2 000644  8D05                                 SDI      ,B5

      656    18647    2           ALTRETURN;
PL6.E3A0      #001=KNA$OPEN File=KNA$APE.:E05TSI                                 WED 07/30/97 00:55 Page:94

  18647   2 000645  C380 0000 0000  xent                 LNJ,B4   X6A_AALT

      657    18648    2           END;
      658    18649        /*E* ERROR: KNA-E$DCBCLOSED
      659    18650             MESSAGE: That DCB is already closed.
      660    18651        */
      661    18652
      662    18653           %LOCK (G=KNA_LNKSSN);

  18658   2 000648  BB80 0000 0001  03                   LAB,B3   +1
          2 00064B  CBF0 0100                            LAB,B4   256,IMO
          2 00064D  E380 0000 0000  xent                 LNJ,B6   GHH$LOCK
          2 000650       0001                            DC       s:18662,PREL

      663    18660
      664    18661                       /* If there is a NOWAIT request kill it if it is for this dcb  */
      665    18662    1      IF KNA$SSN.IOPRD$ ~= ADDR(NIL)

  18662   2 000651  ECC7 0076                            LDB,B6   SSN$,AUTO
          2 000653  8DC6 000D                            CMN      13,B6
          2 000655  0901 0060                            BE       s:18680,PREL

      666    18663    1      THEN
      667    18664    1           IF KNA$SSN.IOPRD$->KN$IOP.DCB$ = DCB$

  18664   2 000657  DCC6 000D                            LDB,B5   13,B6
          2 000659  CCC5 000A                            LDB,B4   10,B5
          2 00065B  CDC7 0074                            CMB,B4   DCB$,AUTO
          2 00065D  0981 0058                            BNE      s:18680,PREL

      668    18665    2           THEN DO;

      669    18666    2                RWPARM = KNA_RWPARM_CON;

  18666   2 00065F  AB80 0000 0000  xsym                 LAB,B2   KNA_RWPARM_CON
          2 000662  2C00                                 LDV,R2   0
PL6.E3A0      #001=KNA$OPEN File=KNA$APE.:E05TSI                                 WED 07/30/97 00:55 Page:95
          2 000663  6C52                                 LDV,R6   82
          2 000664  BB87                                 LAB,B3   ,AUTO
          2 000665  3C18                                 LDV,R3   24
          2 000666  0008                                 MMM

      670    18667    2                RWPARM.MRKTYP = %KV_VDOMRKTYP_ENDACK;

  18667   2 000667  6C01                                 LDV,R6   1
          2 000668  E7C7 0029                            STH,R6   RWPARM+29,AUTO

      671    18668    2                RWPARM.STR = MYDCB.STRM;

  18668   2 00066A  ECC7 0074                            LDB,B6   DCB$,AUTO
          2 00066C  D846 0002                            LDR,R5   2,B6
          2 00066E  DAC7 0029                            SRM,R5,'00FF'X    RWPARM+29,AUTO
          2 000670       00FF

      672    18669    2                CALL KNA$FCNOU(%KV_VDO_FNC_RQSDAT,KNA$SSN,RWPARM,ERR)

  18669   2 000671  DBF0 0016                            LAB,B5   22,IMO
          2 000673  CBC7 006F                            LAB,B4   ERR,AUTO
          2 000675  CFC7 00C8                            STB,B4   WINDOW+23,AUTO
          2 000677  ABC7 000C                            LAB,B2   RWPARM,AUTO
          2 000679  AFC7 00C6                            STB,B2   WINDOW+21,AUTO
          2 00067B  9CC7 0076                            LDB,B1   SSN$,AUTO
          2 00067D  9FC7 00C4                            STB,B1   WINDOW+19,AUTO
          2 00067F  DFC7 00C2                            STB,B5   WINDOW+17,AUTO
          2 000681  BBC7 00C2                            LAB,B3   WINDOW+17,AUTO
          2 000683  CBF0 0400                            LAB,B4   1024,IMO
          2 000685  E380 0000 0000  xent                 LNJ,B6   KNA$FCNOU
          2 000688       0015                            DC       s:18674,PREL

      673    18670    3                WHENRETURN DO;

      674    18671    3                     KNA$SSN.FLAGS.RRRPND = '1'B;

  18671   2 000689  ECC7 0076                            LDB,B6   SSN$,AUTO
PL6.E3A0      #001=KNA$OPEN File=KNA$APE.:E05TSI                                 WED 07/30/97 00:55 Page:96
          2 00068B  8906                                 LBT,'0200'X       ,B6
          2 00068C       0200

      675    18672    3                     CALL KNA$REG_USER(%GH_EVCW,SSN$);

  18672   2 00068D  EBF0 0015                            LAB,B6   21,IMO
          2 00068F  DBC7 0076                            LAB,B5   SSN$,AUTO
          2 000691  DFC7 00C4                            STB,B5   WINDOW+19,AUTO
          2 000693  EFC7 00C2                            STB,B6   WINDOW+17,AUTO
          2 000695  BBC7 00C2                            LAB,B3   WINDOW+17,AUTO
          2 000697  CBF0 0200                            LAB,B4   512,IMO
          2 000699  E380 0000 0000  xent                 LNJ,B6   KNA$REG_USER
          2 00069C       0001                            DC       s:18674,PREL

      676    18673    3                     END;

      677    18674    2                IF KNA$SSN.IOPRD$ ~= ADDR(NIL)

  18674   2 00069D  ECC7 0076                            LDB,B6   SSN$,AUTO
          2 00069F  8DC6 000D                            CMN      13,B6
          2 0006A1  0901 000D                            BE       s:18677,PREL

      678    18675    2                THEN
      679    18676    2                     CALL KNA$RLSIOP(KNA$SSN.IOPRD$);

  18676   2 0006A3  DBC6 000D                            LAB,B5   13,B6
          2 0006A5  DFC7 00C2                            STB,B5   WINDOW+17,AUTO
          2 0006A7  BBC7 00C2                            LAB,B3   WINDOW+17,AUTO
          2 0006A9  CBF0 0100                            LAB,B4   256,IMO
          2 0006AB  E380 0000 0000  xent                 LNJ,B6   KNA$RLSIOP
          2 0006AE       0001                            DC       s:18677,PREL

      680    18677    2                KNA$SSN.IOPRD$ = ADDR(NIL);

  18677   2 0006AF  EB80 0000 0000                       LAB,B6   0
          2 0006B2  DCC7 0076                            LDB,B5   SSN$,AUTO
          2 0006B4  EFC5 000D                            STB,B6   13,B5
PL6.E3A0      #001=KNA$OPEN File=KNA$APE.:E05TSI                                 WED 07/30/97 00:55 Page:97

      681    18678    2                END;

      682    18679
      683    18680    1      IF NOT CLOSING THEN GOTO UNLOCK_N_RTN;

  18680   2 0006B6  89C7 006B                            CMZ      CLOSING,AUTO
          2 0006B8  0881 0157                            BAGE     s:18743,PREL

  18680   2                              INTERNAL_CLOSE  null
      684    18681
      685    18682    1   INTERNAL_CLOSE: ;
      686    18683    1      MYDCB.FCD = '0'B;

  18683   2 0006BA  ECC7 0074            INTERNAL_CLOSE  LDB,B6   DCB$,AUTO
          2 0006BC  8846 001F                            LBF,'4000'X       31,B6
          2 0006BE       4000

      687    18684    1      MYDCB.SSN$ = ADDR(NIL);

  18684   2 0006BF  DB80 0000 0000                       LAB,B5   0
          2 0006C2  DFC6 0030                            STB,B5   48,B6

      688    18685    1      MYDCB.RLCID = '0'B;

  18685   2 0006C4  8746 002D                            CL       45,B6
          2 0006C6  8746 002E                            CL       46,B6

      689    18686    1      KNA$SSN.NUMDCBS = KNA$SSN.NUMDCBS - 1;

  18686   2 0006C8  CCC7 0076                            LDB,B4   SSN$,AUTO
          2 0006CA  88C4 0006                            DEC      6,B4

      690    18687    1      IF MYDCB.DDEV.RES = %G_DDEV_RES_UC#

  18687   2 0006CC  E846 0003                            LDR,R6   3,B6
          2 0006CE  E570 0007                            AND,R6   7,IMO
PL6.E3A0      #001=KNA$OPEN File=KNA$APE.:E05TSI                                 WED 07/30/97 00:55 Page:98
          2 0006D0  6D02                                 CMV,R6   2
          2 0006D1  0981 0075                            BNE      s:18710,PREL

      691    18688    2      THEN DO;

      692    18689    2           I = G$ROS.NUMDCBS;

  18689   2 0006D3  DC80 0000 0000  xsym                 LDB,B5   G$ROS$
          2 0006D6  D845 0014                            LDR,R5   20,B5
          2 0006D8  DF47 006E                            STR,R5   I,AUTO

      693    18690    2           NEWSTREAM = '0'B;

  18690   2 0006DA  8747 006C                            CL       NEWSTREAM,AUTO

      694    18691    3           DO WHILE (I>0);

  18691   2 0006DC  5A81 002C                            BLEZ,R5  s:18701,PREL

      695    18692    3                IF DCBADDR(I)~=ADDR(NIL)

  18692   2 0006DE  EC80 0000 0000  xsym                 LDB,B6   G$ROS$
          2 0006E1  DC86                                 LDB,B5   ,B6
          2 0006E2  B847 006E                            LDR,R3   I,AUTO
          2 0006E4  8DB5                                 CMN      ,B5,R3
          2 0006E5  0901 001E                            BE       s:18699,PREL

      696    18693    3                THEN
      697    18694    3                     IF DCBADDR(I)->MYDCB.FCD

  18694   2 0006E7  CCB5                                 LDB,B4   ,B5,R3
          2 0006E8  82C4 001F                            LB,'4000'X        31,B4
          2 0006EA       4000
          2 0006EB  0581 0018                            BBF      s:18699,PREL
          2 0006ED  BCC7 0074                            LDB,B3   DCB$,AUTO
          2 0006EF  E843 0002                            LDR,R6   2,B3
          2 0006F1  E570 00FF                            AND,R6   255,IMO
PL6.E3A0      #001=KNA$OPEN File=KNA$APE.:E05TSI                                 WED 07/30/97 00:55 Page:99
          2 0006F3  D844 0002                            LDR,R5   2,B4
          2 0006F5  D570 00FF                            AND,R5   255,IMO
          2 0006F7  E955                                 CMR,R6   R5
          2 0006F8  0981 000B                            BNE      s:18699,PREL
          2 0006FA  C844 0003                            LDR,R4   3,B4
          2 0006FC  C570 0007                            AND,R4   7,IMO
          2 0006FE  4D02                                 CMV,R4   2
          2 0006FF  0981 0004                            BNE      s:18699,PREL

      698    18695    3                       AND MYDCB.STRM = DCBADDR(I)->MYDCB.STRM
      699    18696    3                       AND DCBADDR(I)->MYDCB.DDEV.RES = %G_DDEV_RES_UC#
      700    18697    3                     THEN
      701    18698    3                          NEWSTREAM = '1'B;

  18698   2 000701  8947 006C                            LBT,'8000'X       NEWSTREAM,AUTO
  18698   2 000703       8000

      702    18699    3                I = I - 1;

  18699   2 000704  88C7 006E                            DEC      I,AUTO

      703    18700    3                END;

  18700   2 000706  E847 006E                            LDR,R6   I,AUTO
          2 000708  6A56                                 BGZ,R6   s:18692,SPREL

      704    18701    2           IF NOT NEWSTREAM

  18701   2 000709  89C7 006C                            CMZ      NEWSTREAM,AUTO
          2 00070B  0801 003B                            BAL      s:18710,PREL

      705    18702    3           THEN DO;

      706    18703    3                RWPARM = KNA_RWPARM_CON;

  18703   2 00070D  AB80 0000 0000  xsym                 LAB,B2   KNA_RWPARM_CON
          2 000710  2C00                                 LDV,R2   0
PL6.E3A0      #001=KNA$OPEN File=KNA$APE.:E05TSI                                 WED 07/30/97 00:55 Page:100
          2 000711  6C52                                 LDV,R6   82
          2 000712  BB87                                 LAB,B3   ,AUTO
          2 000713  3C18                                 LDV,R3   24
          2 000714  0008                                 MMM

      707    18704    3                RWPARM.STR = MYDCB.STRM;

  18704   2 000715  ECC7 0074                            LDB,B6   DCB$,AUTO
          2 000717  E846 0002                            LDR,R6   2,B6
          2 000719  EAC7 0029                            SRM,R6,'00FF'X    RWPARM+29,AUTO
          2 00071B       00FF

      708    18705    3                IF (MYDCB.DISP~=%G_DISP_KEEP#) AND NOT(G$JIT.JUNK.KEEP)

  18705   2 00071C  E846 001F                            LDR,R6   31,B6
          2 00071E  6048                                 SOR,R6   8
          2 00071F  E570 000F                            AND,R6   15,IMO
          2 000721  6D02                                 CMV,R6   2
          2 000722  0901 000C                            BE       s:18707,PREL
          2 000724  DC80 0000 0000  xsym                 LDB,B5   G$JIT$
          2 000727  82C5 0098                            LB,'4000'X        152,B5
          2 000729       4000
          2 00072A  0501 0004                            BBT      s:18707,PREL

      709    18706    3                THEN RWPARM.VDOFLGS.DLTSTR = '1'B;

  18706   2 00072C  8947 0028                            LBT,'0080'X       RWPARM+28,AUTO
  18706   2 00072E       0080

      710    18707    3                CALL KNA$FCNOU(%KV_VDO_FNC_CLSSTR,KNA$SSN,RWPARM,ERR);

  18707   2 00072F  DBF0 0022                            LAB,B5   34,IMO
          2 000731  CBC7 006F                            LAB,B4   ERR,AUTO
          2 000733  CFC7 00C8                            STB,B4   WINDOW+23,AUTO
          2 000735  ABC7 000C                            LAB,B2   RWPARM,AUTO
          2 000737  AFC7 00C6                            STB,B2   WINDOW+21,AUTO
          2 000739  9CC7 0076                            LDB,B1   SSN$,AUTO
PL6.E3A0      #001=KNA$OPEN File=KNA$APE.:E05TSI                                 WED 07/30/97 00:55 Page:101
          2 00073B  9FC7 00C4                            STB,B1   WINDOW+19,AUTO
          2 00073D  DFC7 00C2                            STB,B5   WINDOW+17,AUTO
          2 00073F  BBC7 00C2                            LAB,B3   WINDOW+17,AUTO
          2 000741  CBF0 0400                            LAB,B4   1024,IMO
          2 000743  E380 0000 0000  xent                 LNJ,B6   KNA$FCNOU
          2 000746       0001                            DC       s:18710,PREL

      711    18708    3                END;

      712    18709    2           END;

      713    18710    1      IF KNA$SSN.FLAGS.MRKPND

  18710   2 000747  ECC7 0076                            LDB,B6   SSN$,AUTO
          2 000749  8286                                 LB,'0080'X        ,B6
          2 00074A       0080
          2 00074B  0581 002C                            BBF      s:18718,PREL

      714    18711    2      THEN DO;

      715    18712    2           RWPARM = KNA_RWPARM_CON;

  18712   2 00074D  AB80 0000 0000  xsym                 LAB,B2   KNA_RWPARM_CON
          2 000750  2C00                                 LDV,R2   0
          2 000751  6C52                                 LDV,R6   82
          2 000752  BB87                                 LAB,B3   ,AUTO
          2 000753  3C18                                 LDV,R3   24
          2 000754  0008                                 MMM

      716    18713    2           RWPARM.MRKTYP = %KV_VDOMRKTYP_MRK;

  18713   2 000755  6C03                                 LDV,R6   3
          2 000756  E7C7 0029                            STH,R6   RWPARM+29,AUTO

      717    18714    2           RWPARM.MARKER = KNA$SSN.MARKER;

  18714   2 000758  ECC7 0076                            LDB,B6   SSN$,AUTO
PL6.E3A0      #001=KNA$OPEN File=KNA$APE.:E05TSI                                 WED 07/30/97 00:55 Page:102
          2 00075A  8CC6 0017                            LDI      23,B6
          2 00075C  8D47 0019                            SDI      RWPARM+13,AUTO

      718    18715    2           CALL KNA$FCNOU(%KV_VDO_FNC_MRK,KNA$SSN,RWPARM,ERR);

  18715   2 00075E  DBF0 001F                            LAB,B5   31,IMO
          2 000760  CBC7 006F                            LAB,B4   ERR,AUTO
          2 000762  CFC7 00C8                            STB,B4   WINDOW+23,AUTO
          2 000764  ABC7 000C                            LAB,B2   RWPARM,AUTO
          2 000766  AFC7 00C6                            STB,B2   WINDOW+21,AUTO
          2 000768  EFC7 00C4                            STB,B6   WINDOW+19,AUTO
          2 00076A  DFC7 00C2                            STB,B5   WINDOW+17,AUTO
          2 00076C  BBC7 00C2                            LAB,B3   WINDOW+17,AUTO
          2 00076E  CBF0 0400                            LAB,B4   1024,IMO
          2 000770  E380 0000 0000  xent                 LNJ,B6   KNA$FCNOU
          2 000773       0001                            DC       s:18716,PREL

      719    18716    2           KNA$SSN.FLAGS.MRKPND = '0'B;

  18716   2 000774  ECC7 0076                            LDB,B6   SSN$,AUTO
          2 000776  8806                                 LBF,'0080'X       ,B6
          2 000777       0080

      720    18717    2           END;

      721    18718    1      IF KNA$SSN.NUMDCBS ~= 0 THEN GOTO UNLOCK_N_RTN;

  18718   2 000778  ECC7 0076                            LDB,B6   SSN$,AUTO
          2 00077A  E846 0006                            LDR,R6   6,B6
          2 00077C  6981 0093                            BNEZ,R6  s:18743,PREL

  18718   2                              CLOSE_IT        null
      722    18719
      723    18720    1   CLOSE_IT: ;                             /* entry for partially failed open    */
      724    18721    1      IF KNA$SSN.STATE = %KNA_STATE_TERM#

  18721   2 00077E  E846 0013            CLOSE_IT        LDR,R6   19,B6
PL6.E3A0      #001=KNA$OPEN File=KNA$APE.:E05TSI                                 WED 07/30/97 00:55 Page:103
          2 000780  6D05                                 CMV,R6   5
          2 000781  0981 0006                            BNE      s:18724,PREL

      725    18722
      726    18723    1      THEN I = %KN_FCN_TERM_ACK;

  18723   2 000783  5C04                                 LDV,R5   4
          2 000784  DF47 006E                            STR,R5   I,AUTO
          2 000786  0F81 0004                            B        s:18727,PREL

      727    18724    1      ELSE I = %KN_FCN_TERM;

  18724   2 000788  5C03                                 LDV,R5   3
          2 000789  DF47 006E                            STR,R5   I,AUTO

      728    18725
      729    18726
      730    18727    1      FPT_TERM = '0'B;

  18727   2 00078B  DB80 0000 0000  00                   LAB,B5   FPT_TERM
          2 00078E  5C08                                 LDV,R5   8
          2 00078F  0021                                 ALR      ;
          2 000790       4178 0000                                ALPHANUM('0000'X,IMO,,1),;
          2 000792       4005 0000                                ALPHANUM(0,B5,,R5,FILL)

      731    18728    1      KN$NETPARM = KN_NETPARM_INIT;

  18728   2 000794  AB80 0000 0000  xsym                 LAB,B2   KN_NETPARM_INIT
          2 000797  2C00                                 LDV,R2   0
          2 000798  6C42                                 LDV,R6   66
          2 000799  BB87                                 LAB,B3   ,AUTO
          2 00079A  3C6E                                 LDV,R3   110
          2 00079B  437F                                 CSYNC    s:18728+6,SPREL
          2 00079C  0008                                 MMM

      732    18729    1      KN$NETPARM.FUNCTION = I;

PL6.E3A0      #001=KNA$OPEN File=KNA$APE.:E05TSI                                 WED 07/30/97 00:55 Page:104
  18729   2 00079D  E847 006E                            LDR,R6   I,AUTO
          2 00079F  EF47 004B                            STR,R6   KN$NETPARM+20,AUTO

      733    18730    1      KN$NETPARM.FPT$ = ADDR(FPT_TERM);

  18730   2 0007A1  EB80 0000 0000  00                   LAB,B6   FPT_TERM
          2 0007A4  EFC7 0050                            STB,B6   KN$NETPARM+25,AUTO

      734    18731    1      KN$NETPARM.LDCT$ = KNA$SSN.LDCT$;

  18731   2 0007A6  DCC7 0076                            LDB,B5   SSN$,AUTO
          2 0007A8  CCC5 0004                            LDB,B4   4,B5
          2 0007AA  CFC7 0037                            STB,B4   KN$NETPARM,AUTO

      735    18732    1      KN$NETPARM.SLDCT$ = KN$NETPARM.LDCT$;

  18732   2 0007AC  CFC7 004E                            STB,B4   KN$NETPARM+23,AUTO

      736    18733
      737    18734    2      DO WHILE('1'B);

      738    18735    2           CALL KNS$SEND (KN$NETPARM);

  18735   2 0007AE  EBC7 0037                            LAB,B6   KN$NETPARM,AUTO
          2 0007B0  EFC7 00C2                            STB,B6   WINDOW+17,AUTO
          2 0007B2  BBC7 00C2                            LAB,B3   WINDOW+17,AUTO
          2 0007B4  CBF0 0100                            LAB,B4   256,IMO
          2 0007B6  E380 0000 0000  xent                 LNJ,B6   KNS$SEND
          2 0007B9       0001                            DC       s:18737,PREL

      739    18736
      740    18737    2           IF KN$NETPARM.ERRCODE ~= %KN_ERR_NOQ

  18737   2 0007BA  E847 004D                            LDR,R6   KN$NETPARM+22,AUTO
          2 0007BC  6D01                                 CMV,R6   1
          2 0007BD  0981 0012                            BNE      s:18743,PREL

PL6.E3A0      #001=KNA$OPEN File=KNA$APE.:E05TSI                                 WED 07/30/97 00:55 Page:105
      741    18738    2           THEN
      742    18739    2                EXIT;
      743    18740
      744    18741    2           CALL KNA$REG_USER (%GH_EVCBL,SSN$);

  18741   2 0007BF  EBF0 0019                            LAB,B6   25,IMO
          2 0007C1  DBC7 0076                            LAB,B5   SSN$,AUTO
          2 0007C3  DFC7 00C4                            STB,B5   WINDOW+19,AUTO
          2 0007C5  EFC7 00C2                            STB,B6   WINDOW+17,AUTO
          2 0007C7  BBC7 00C2                            LAB,B3   WINDOW+17,AUTO
          2 0007C9  CBF0 0200                            LAB,B4   512,IMO
          2 0007CB  E380 0000 0000  xent                 LNJ,B6   KNA$REG_USER
          2 0007CE       0001                            DC       s:18742,PREL

      745    18742    2           END;

  18742   2 0007CF  0FDF                                 B        s:18735,SPREL

      746    18743    1      IF I = %KN_FCN_TERM

  18743   2 0007D0  D847 006E                            LDR,R5   I,AUTO
          2 0007D2  5D03                                 CMV,R5   3
          2 0007D3  0981 0016                            BNE      s:18748,PREL

      747    18744    2      THEN DO;

      748    18745    2           KNA$SSN.STATE = %KNA_STATE_WTERM;

  18745   2 0007D5  ECC7 0076                            LDB,B6   SSN$,AUTO
          2 0007D7  4C06                                 LDV,R4   6
          2 0007D8  CF46 0013                            STR,R4   19,B6

      749    18746    2           CALL KNA$REG_USER (%GH_EVCW,SSN$);

  18746   2 0007DA  EBF0 0015                            LAB,B6   21,IMO
          2 0007DC  DBC7 0076                            LAB,B5   SSN$,AUTO
          2 0007DE  DFC7 00C4                            STB,B5   WINDOW+19,AUTO
PL6.E3A0      #001=KNA$OPEN File=KNA$APE.:E05TSI                                 WED 07/30/97 00:55 Page:106
          2 0007E0  EFC7 00C2                            STB,B6   WINDOW+17,AUTO
          2 0007E2  BBC7 00C2                            LAB,B3   WINDOW+17,AUTO
          2 0007E4  CBF0 0200                            LAB,B4   512,IMO
          2 0007E6  E380 0000 0000  xent                 LNJ,B6   KNA$REG_USER
          2 0007E9       0001                            DC       s:18748,PREL

      750    18747    2           END;

      751    18748    1      CALL KNA$RLSLDCT (KNA$SSN.LDCT$);

  18748   2 0007EA  ECC7 0076                            LDB,B6   SSN$,AUTO
          2 0007EC  DBC6 0004                            LAB,B5   4,B6
          2 0007EE  DFC7 00C2                            STB,B5   WINDOW+17,AUTO
          2 0007F0  BBC7 00C2                            LAB,B3   WINDOW+17,AUTO
          2 0007F2  CBF0 0100                            LAB,B4   256,IMO
          2 0007F4  E380 0000 0000  xent                 LNJ,B6   KNA$RLSLDCT
          2 0007F7       0001                            DC       s:18754,PREL

      752    18749           %UNLOCK (G=KNA_LNKSSN);

  18754   2 0007F8  BB80 0000 0001  03                   LAB,B3   +1
          2 0007FB  CBF0 0100                            LAB,B4   256,IMO
          2 0007FD  E380 0000 0000  xent                 LNJ,B6   GHH$UNLOCK
          2 000800       0001                            DC       s:18757,PREL

      753    18756
      754    18757    1      CALL KNA$RLSSSN (SSN$);

  18757   2 000801  EBC7 0076                            LAB,B6   SSN$,AUTO
          2 000803  EFC7 00C2                            STB,B6   WINDOW+17,AUTO
          2 000805  BBC7 00C2                            LAB,B3   WINDOW+17,AUTO
          2 000807  CBF0 0100                            LAB,B4   256,IMO
          2 000809  E380 0000 0000  xent                 LNJ,B6   KNA$RLSSSN
          2 00080C       0001                            DC       s:18758,PREL

      755    18758    1      RETURN;                              /* dont unlock twice                  */

PL6.E3A0      #001=KNA$OPEN File=KNA$APE.:E05TSI                                 WED 07/30/97 00:55 Page:107
  18758   2 00080D  C380 0000 0000  xent                 LNJ,B4   X6A_ARET

  18743   2                              UNLOCK_N_RTN    null
      756    18759    1   UNLOCK_N_RTN: ;
      757    18760           %UNLOCK (G=KNA_LNKSSN);

  18765   2 000810  BB80 0000 0001  03   UNLOCK_N_RTN    LAB,B3   +1
          2 000813  CBF0 0100                            LAB,B4   256,IMO
          2 000815  E380 0000 0000  xent                 LNJ,B6   GHH$UNLOCK
          2 000818       0001                            DC       s:18767,PREL

      758    18767    1      IF ERROR = '0'B THEN RETURN;

  18767   2 000819  ECC7 0006                            LDB,B6   @ERROR,AUTO
          2 00081B  DB80 0000 0000  03                   LAB,B5   0
          2 00081E  5C01                                 LDV,R5   1
          2 00081F  0022                                 ACM      ;
          2 000820       4406 0000                                ALPHANUM(0,B6,,4,FILL),;
          2 000822       4005 0000                                ALPHANUM(0,B5,,R5,FILL)
          2 000824  5301 0004                            CBNE     s:18768,PREL

  18767   2 000826  C380 0000 0000  xent                 LNJ,B4   X6A_ARET

      759    18768    1      ALTRETURN;

  18768   2 000829  C380 0000 0000  xent                 LNJ,B4   X6A_AALT
      760    18769
      761    18770    1   END KNA$OPEN;
      762    18771        %EOD;

PL6.E3A0      #001=KNA$OPEN File=KNA$APE.:E05TSI                                 WED 07/30/97 00:55 Page:108
--  Include file information  --

   K_SCODE_C.:E05TOU  is referenced.
   KV_GLBCNS_E.:E05TOU  is referenced.
   KV$VDO.:E05TOU  is referenced.
   K$RWPARM.:E05TOU  is referenced.
   KI_CP6.:E05TOU  is referenced.
   KL_AFCN_C.:E05TOU  is referenced.
   KL_SUPER_C.:E05TOU  is referenced.
   GF_LCP6_M.:E05TOU  is referenced.
   KL_MACRO_C.:E05TOU  is referenced.
   GH_SCHD_E.:E05TOU  is referenced.
   G_JIT_M.:E05TOU  is referenced.
   G_ROS_M.:E05TOU  is referenced.
   GH_LCP6_M.:E05TOU  is referenced.
   KI_ERRORS_C.:E05TOU  is referenced.
   KN_ERRORS_C.:E05TOU  is referenced.
   GU_LCP6_M.:E05TOU  is referenced.
   KNH_MACRO_C.:E05TOU  is referenced.
   KN_DATA_M.:E05TOU  is referenced.
   GH_GATE_M.:E05TOU  cannot be made into a system file and is referenced.
   KNA_MACRO_M.:E05TOU  is referenced.
   G_LCP6_E.:E05TOU  is referenced.
   F_ERRORS_C.:E05TOU  is referenced.
      No diagnostics issued in procedure KNA$OPEN.
PL6.E3A0      #001=KNA$OPEN File=KNA$APE.:E05TSI                                 WED 07/30/97 00:55 Page:109

 **** Variables and constants ****

  ****  Section 000  Data  KNA$OPEN

  ****  Scalars and arrays  ****
HexLoc.c.b A Datatyp(siz) R M Lvl/name                 HexLoc.c.b A Datatyp(siz) R M Lvl/name

     0-0-0/w STRC(64)    r     1 FPT_TERM

  ****  Section 001 RoData KNA$OPEN

  ****  Scalars and arrays  ****
HexLoc.c.b A Datatyp(siz) R M Lvl/name                 HexLoc.c.b A Datatyp(siz) R M Lvl/name

     E-0-0/w STRC(32)    r     1 EAPE_SSN                   8-0-0/w STRC(32)    r     1 EBAD_DCB_RES
     A-0-0/w STRC(32)    r     1 EBAD_ORG                  10-0-0/w STRC(32)    r     1 EDCB_CLOSED
    12-0-0/w STRC(32)    r     1 EDCB_OPEN                  C-0-0/w STRC(32)    r     1 ENET_ADDR
     2-0-0/w STRC(32)    r     1 ENOLDCT                    6-0-0/w STRC(32)    r     1 ENORTE
     4-0-0/w STRC(32)    r     1 ENOTCTX                    0-0-0/w STRC(32)    r     1 ENO_IOP
    14-0-0/w STRC(32)    r     1 ERR_ORGNOTCOM             19-0-0/c CHAR(10)    r     1 NUMBERS
    16-0-0/w STRC(48)    r     1 SCR_UNEXP

  ****  Auto variables  ****

  ****  Scalars and arrays  ****
HexLoc.c.b A Datatyp(siz) R M Lvl/name                 HexLoc.c.b A Datatyp(siz) R M Lvl/name

     4-0-0/w PTR         r     1 @DCBNUMBER                 6-0-0/w PTR         r     1 @ERROR
     8-0-0/w PTR         r     1 @LGN_                      A-0-0/w PTR         r     1 @VLP_WINDOW
    6B-0-0/b BIT         r     1 CLOSING                   74-0-0/w PTR         r     1 DCB$
    *0-0-0/w UBIN(16)    r     1 DCBNUMBER                 6F-0-0/w UBIN(32)    r     1 ERR
    *0-0-0/w STRC(32)    r     1 ERROR                     58-0-0/w STRC(304)   r     1 FPT_CONNECT
    35-0-0/w STRC(32)    r     1 HDR                       6E-0-0/w SBIN(16)    r     1 I
    71-0-0/w PTR         r     1 IOP$                      37-0-0/w STRC(528)   r     1 KN$NETPARM
    *0-0-0/w VECT        r     1 LGN_                      7D-0-0/w STRC(32)    r     1 NETWORK_ADDR
    6C-0-0/b BIT         r     1 NEWSTREAM                 7A-0-0/w PTR         r     1 OPNDCB$
    7C-0-0/c CHAR(2)     r     1 RESTYPE                    C-0-0/w STRC(656)   r     1 RWPARM
PL6.E3A0      #001=KNA$OPEN File=KNA$APE.:E05TSI                                 WED 07/30/97 00:55 Page:110
    7F-0-0/w STRC(800)   r     1 SGN                       7F-0-0/w STRC(800)   r     1 SGNRSP
    76-0-0/w PTR         r     1 SSN$                      73-0-0/w UBIN(16)    r     1 STRM
    78-0-0/w PTR         r     1 TEMP$                     6D-0-0/b BIT         r     1 UCSTREAM
    *0-0-0/w STRC(256)   r     1 VLP_WINDOW                B1-0-0/w STRC(256)   r     1 WINDOW

  ****  SYMREF variables  ****

  ****  Scalars and arrays  ****
HexLoc.c.b A Datatyp(siz) R M Lvl/name                 HexLoc.c.b A Datatyp(siz) R M Lvl/name

     0-0-0/w PTR         r     1 G$JIT$                     0-0-0/w PTR         r     1 G$ROS$
     0-0-0/w STRC(48)    r     1 KNA_LNKSSN                 0-0-0/w STRC(656)   r     1 KNA_RWPARM_CON
     0-0-0/w STRC(256)   r     1 KNA_WINDOW                 0-0-0/c CHAR(2)     r     1 KNA_WINDOW_TL
     0-0-0/w STRC(528)   r     1 KN_NETPARM_INIT            0-0-0/w UBIN(16)    r     1 KN_NODE#

  ****  BASED and DCB variables  ****

  ****  Scalars and arrays  ****
HexLoc.c.b A Datatyp(siz) R M Lvl/name                 HexLoc.c.b A Datatyp(siz) R M Lvl/name

     0-0-0/w PTR         r     1 G$DCBTABLE(0:0)
     0-0-0/w STRC(5616)  r     1 G$JIT                      0-0-0/w STRC(928)   r     1 G$ROS
     0-0-0/w STRC(432)   r     1 KN$IOP                     0-0-0/w STRC(256)   r     1 KN$LDCT
     0-0-0/w STRC(400)   r     1 KNA$SSN                    0-0-0/c ACHR        r     1 LGNSTR
     0-0-0/w ASTR(808)   r     1 MYDCB


   Procedure KNA$OPEN requires 2092 words for executable code.
   Procedure KNA$OPEN requires 206 words of local(AUTO) storage.
PL6.E3A0      #001=KNA$OPEN File=KNA$APE.:E05TSI                                 WED 07/30/97 00:55 Page:111
          *** CROSS REFERENCE LISTING ***
**     DENOTES     IDENTIFIER DEFINITION
<<                 IDENTIFIER'S VALUE SET
>>                 IDENTIFIER'S VALUE USED
<>                 IDENTIFIER SET AND/OR USED
--                 IDENTIFIER REFERENCED
PL6.E3A0      #001=KNA$OPEN File=KNA$APE.:E05TSI                                 WED 07/30/97 00:55 Page:112
          MINI XREF LISTING

BADRES
     18185**LABEL   18193--CALLALT 18194--CALLALT
CLOSE_IT
     18718**LABEL   18513--GOTO
CLOSING
     15660**DCL     18629<<ASSIGN  18633<<ASSIGN  18637<<ASSIGN  18680>>IF
DCB$
     15667**DCL     16736--IMP-PTR 18171<<ASSIGN  18173>>IF      18182>>ASSIGN  18183>>CALLBLT 18184>>IF
     18193>>CALLBLT 18194>>CALLBLT 18195>>CALLBLT 18209>>ASSIGN  18210>>IF      18211>>ASSIGN  18214>>ASSIGN
     18232>>IF      18248>>DOCASE  18251>>IF      18273>>ASSIGN  18278>>ASSIGN  18426>>ASSIGN  18541>>ASSIGN
     18542>>ASSIGN  18543>>ASSIGN  18544>>ASSIGN  18545>>ASSIGN  18546>>ASSIGN  18547>>ASSIGN  18574>>IF
     18579>>IF      18582>>IF      18585>>IF      18625>>ASSIGN  18640<<ASSIGN  18641>>ASSIGN  18644>>IF
     18664>>IF      18668>>ASSIGN  18683>>ASSIGN  18684>>ASSIGN  18685>>ASSIGN  18687>>IF      18694>>IF
     18704>>ASSIGN  18705>>IF
DCBNUMBER
     14947**DCL        72--PROC    18171>>ASSIGN  18368>>IF      18368>>IF      18628--ENTRY   18636--ENTRY
     18640>>ASSIGN
EAPE_SSN
     17384**DCL     18363>>ASSIGN
EBAD_DCB_RES
     17243**DCL     18188>>ASSIGN  18217>>ASSIGN  18287>>ASSIGN
EBAD_ORG
     17290**DCL     18234>>ASSIGN
EDCB_CLOSED
     17431**DCL     18646>>ASSIGN
EDCB_OPEN
     17478**DCL     18175>>ASSIGN
ENET_ADDR
     17337**DCL     18295>>ASSIGN
ENOLDCT
     17102**DCL     18391>>ASSIGN
ENORTE
PL6.E3A0      #001=KNA$OPEN File=KNA$APE.:E05TSI                                 WED 07/30/97 00:55 Page:113
     17196**DCL     18459>>ASSIGN
ENOTCTX
     17149**DCL     18455>>ASSIGN
ENO_IOP
     17055**DCL     18598>>ASSIGN
ERR
     15664**DCL     18525<>CALL    18561<>CALL    18576<>CALL    18601<>CALL    18669<>CALL    18707<>CALL
     18715<>CALL
ERROR
     14962**DCL        72--PROC    18175<<ASSIGN  18188<<ASSIGN  18217<<ASSIGN  18234<<ASSIGN  18259<<ASSIGN
     18287<<ASSIGN  18295<<ASSIGN  18363<<ASSIGN  18391<<ASSIGN  18409<<ASSIGN  18455<<ASSIGN  18459<<ASSIGN
     18509<<ASSIGN  18566<>CALL    18598<<ASSIGN  18606<<ASSIGN  18609<<ASSIGN  18613>>IF      18628--ENTRY
     18636--ENTRY   18642<<ASSIGN  18646<<ASSIGN  18767>>IF
ERR_ORGNOTCOM
     17525**DCL     18259>>ASSIGN
FINDOPNDCB
     18324**LABEL   18333--EXIT
FPT_CONNECT
     15583**DCL     18430--ASSIGN
FPT_CONNECT.RESOURCE
     15589**DCL     18421<<ASSIGN
FPT_CONNECT.RLCID
     15619**DCL     18415<<ASSIGN
FPT_CONNECT.RLCID.GENERATION
     15619**DCL     15620--REDEF
FPT_CONNECT.RLCID.LDCTX
     15620**DCL     15620--REDEF
FPT_CONNECT.SERVICE
     15622**DCL     18424<<ASSIGN
FPT_CONNECT.TERMINAL_ID.TERM
     15608**DCL     15617--REDEF
FPT_CONNECT.TERMINAL_ID.TERMID
     15617**DCL     18420<<ASSIGN
FPT_CONNECT.TERMINAL_ID.TTYP
     15608**DCL     18416<<ASSIGN
FPT_CONNECT.TYPE
PL6.E3A0      #001=KNA$OPEN File=KNA$APE.:E05TSI                                 WED 07/30/97 00:55 Page:114
     15587**DCL     18423<<ASSIGN
FPT_CONNECT.USER.SYSID
     15621**DCL     18417<<ASSIGN
FPT_TERM
     15652**DCL     18727<<ASSIGN  18730--ASSIGN
G$DCBTABLE
     17029**DCL     18171>>ASSIGN  18212>>ASSIGN  18274>>ASSIGN  18325>>ASSIGN  18640>>ASSIGN
G$JIT.ERRLOG
     16584**DCL     16587--REDEF
G$JIT.JSUNIT
     16323**DCL     16324--REDEF
G$JIT.JUNK.KEEP
     16574**DCL     18705>>IF
G$JIT.MCLS
     16322**DCL     16322--REDEF
G$JIT.SYSID
     16312**DCL     18224>>ASSIGN  18229>>ASSIGN  18417>>ASSIGN
G$JIT.TMRZ
     16591**DCL     16592--REDEF
G$JIT.UNAME
     16313**DCL     18223>>ASSIGN  18420>>ASSIGN
G$JIT.USER_EXTIME
     16315**DCL     16316--REDEF
G$JIT.USER_MEMTIME
     16318**DCL     16318--REDEF
G$JIT.USER_SVTIME
     16317**DCL     16317--REDEF
G$JIT.USR#
     16312**DCL     18225>>ASSIGN  18374>>ASSIGN  18398>>ASSIGN
G$JIT$
     17036**DCL     16254--IMP-PTR 18223>>ASSIGN  18224>>ASSIGN  18225>>ASSIGN  18229>>ASSIGN  18374>>ASSIGN
     18398>>ASSIGN  18417>>ASSIGN  18420>>ASSIGN  18705>>IF
G$ROS.AUTO_DS$
     16219**DCL     16220--REDEF
G$ROS.AUTO_T$
     16220**DCL     16220--REDEF
PL6.E3A0      #001=KNA$OPEN File=KNA$APE.:E05TSI                                 WED 07/30/97 00:55 Page:115
G$ROS.DCBPTR$
     16215**DCL     18171>>ASSIGN  18212>>ASSIGN  18274>>ASSIGN  18325>>ASSIGN  18640>>ASSIGN
G$ROS.NUMDCBS
     16219**DCL     18241>>ASSIGN  18324>>DOINDEX 18689>>ASSIGN
G$ROS$
     17037**DCL     16210--IMP-PTR 18171>>ASSIGN  18212>>ASSIGN  18241>>ASSIGN  18274>>ASSIGN  18324>>DOINDEX
     18325>>ASSIGN  18640>>ASSIGN  18689>>ASSIGN
GHH$LOCK
       688**DCL-ENT 18442--CALL    18554--CALL    18658--CALL
GHH$UNLOCK
       688**DCL-ENT 18466--CALL    18532--CALL    18622--CALL    18754--CALL    18765--CALL
HDR
     15406**DCL     18427<>CALL    18428--ASSIGN
I
     15663**DCL     18183<<CALLBLT 18184>>IF      18184>>IF      18184>>IF      18184>>IF      18184>>IF
     18191>>IF      18193<<CALLBLT 18194<<CALLBLT 18241<<ASSIGN  18242>>DOWHILE 18243--IF      18244--IF
     18244--IF      18244--IF      18251--IF      18255--IF      18255--IF      18264<<ASSIGN  18264>>ASSIGN
     18324<<DOINDEX 18325>>ASSIGN  18689<<ASSIGN  18691>>DOWHILE 18692--IF      18694--IF      18694--IF
     18694--IF      18699<<ASSIGN  18699>>ASSIGN  18723<<ASSIGN  18724<<ASSIGN  18729>>ASSIGN  18743>>IF
INTERNAL_CLOSE
     18680**LABEL   18634--GOTO
IOP$
     15665**DCL     18590<<ASSIGN  18591<>CALL    18594>>ASSIGN  18602>>IF      18606>>ASSIGN  18612<>CALL
KN$IOP.ARS
     16907**DCL     16908--REDEF   16909--REDEF
KN$IOP.DCB$
     16935**DCL     18664>>IF
KN$IOP.ERRCODE
     16869**DCL     18606>>ASSIGN
KN$IOP.LNK$
     16937**DCL     16938--REDEF
KN$LDCT.CONN_TYPE
     15967**DCL     18400<<ASSIGN
KN$LDCT.RLCID
     15999**DCL     18516>>ASSIGN
KN$LDCT.RLCID.LDCTX
PL6.E3A0      #001=KNA$OPEN File=KNA$APE.:E05TSI                                 WED 07/30/97 00:55 Page:116
     16027**DCL     16034--REDEF   16042--REDEF
KN$LDCT.TRANSPORT_ID
     16061**DCL     16069--REDEF
KN$LDCT.UID
     16091**DCL     16092--REDEF   16101--REDEF
KN$LDCT.UID$
     16092**DCL     18401<<ASSIGN
KN$LDCT.USER#
     16184**DCL     18398<<ASSIGN
KN$LDCT.USER_ENTRY$
     16172**DCL     18399<<ASSIGN
KN$NETPARM
     15429**DCL     18383<<ASSIGN  18447<>CALL    18728<<ASSIGN  18735<>CALL
KN$NETPARM.ERRCODE
     15536**DCL     18449>>IF      18452>>DOSELCT 18737>>IF
KN$NETPARM.FPT$
     15548**DCL     18430<<ASSIGN  18730<<ASSIGN
KN$NETPARM.FUNCTION
     15524**DCL     18446<<ASSIGN  18729<<ASSIGN
KN$NETPARM.LDCT$
     15430**DCL     15966--IMP-PTR 18384<>CALL    18395>>ASSIGN  18396>>ASSIGN  18398>>ASSIGN  18399>>ASSIGN
     18400>>ASSIGN  18401>>ASSIGN  18469<>CALL    18516>>ASSIGN  18731<<ASSIGN  18732>>ASSIGN
KN$NETPARM.MSG$
     15436**DCL     15441--REDEF
KN$NETPARM.NHDR$
     15488**DCL     15489--REDEF
KN$NETPARM.SHDR$
     15466**DCL     15467--REDEF
KN$NETPARM.SLDCT$
     15543**DCL     18396<<ASSIGN  18732<<ASSIGN
KN$NETPARM.THDR$
     15477**DCL     15478--REDEF
KN$NETPARM.UHDR$
     15452**DCL     15453--REDEF   18428<<ASSIGN
KN$NETPARM.UHDRSZ
     15461**DCL     18429<<ASSIGN
PL6.E3A0      #001=KNA$OPEN File=KNA$APE.:E05TSI                                 WED 07/30/97 00:55 Page:117
KNA$BUILD_VDO
     15044**DCL-ENT 18427--CALL
KNA$CONV_STR
     15045**DCL-ENT 18566--CALL
KNA$FCNOU
     15054**DCL-ENT 18525--CALL    18561--CALL    18576--CALL    18601--CALL    18669--CALL    18707--CALL
     18715--CALL
KNA$GETIOP
     15049**DCL-ENT 18591--CALL
KNA$GETLDCT
     15041**DCL-ENT 18384--CALL
KNA$GETSSN
     15046**DCL-ENT 18356--CALL
KNA$IN
     15050**DCL-ENT 18399--ASSIGN
KNA$REG_USER
     15052**DCL-ENT 18490--CALL    18506--CALL    18604--CALL    18672--CALL    18741--CALL    18746--CALL
KNA$RLSIOP
     15048**DCL-ENT 18612--CALL    18676--CALL
KNA$RLSLDCT
     15042**DCL-ENT 18469--CALL    18748--CALL
KNA$RLSSSN
     15047**DCL-ENT 18471--CALL    18757--CALL
KNA$SSN
     16780**DCL     18367<<ASSIGN  18525<>CALL    18561<>CALL    18576<>CALL    18601<>CALL    18669<>CALL
     18707<>CALL    18715<>CALL
KNA$SSN.ERROR
     16806**DCL     18509>>ASSIGN  18609>>ASSIGN
KNA$SSN.EVENT
     16848**DCL     18541<<ASSIGN
KNA$SSN.FLAGS.CG
     16784**DCL     18543>>ASSIGN
KNA$SSN.FLAGS.CQ
     16784**DCL     18489<<ASSIGN  18491<<ASSIGN
KNA$SSN.FLAGS.MRKPND
     16788**DCL     18710>>IF      18716<<ASSIGN
PL6.E3A0      #001=KNA$OPEN File=KNA$APE.:E05TSI                                 WED 07/30/97 00:55 Page:118
KNA$SSN.FLAGS.PRIMARY
     16784**DCL     18370<<ASSIGN
KNA$SSN.FLAGS.RRRPND
     16784**DCL     18595<<ASSIGN  18671<<ASSIGN
KNA$SSN.FLAGS.SSNERR
     16784**DCL     18507>>IF
KNA$SSN.IOPQ$
     16842**DCL     18371<<ASSIGN  18594<<ASSIGN  18611<<ASSIGN
KNA$SSN.IOPRD$
     16842**DCL     16842--REDEF   18375<<ASSIGN  18662>>IF      18664>>IF      18674>>IF      18676<>CALL
     18677<<ASSIGN
KNA$SSN.LDCT$
     16839**DCL     18395<<ASSIGN  18731>>ASSIGN  18748<>CALL
KNA$SSN.MARKER
     16848**DCL     18714>>ASSIGN
KNA$SSN.NUMDCBS
     16839**DCL     18347<<ASSIGN  18347>>ASSIGN  18373<<ASSIGN  18686<<ASSIGN  18686>>ASSIGN  18718>>IF
KNA$SSN.RLCID
     16846**DCL     18376<<ASSIGN  18516<<ASSIGN  18625>>ASSIGN
KNA$SSN.RLCID.NODE#
     16846**DCL     16846--REDEF
KNA$SSN.STATE
     16847**DCL     18372<<ASSIGN  18511>>IF      18526<<ASSIGN  18721>>IF      18745<<ASSIGN
KNA$SSN.USER#
     16847**DCL     18374<<ASSIGN
KNA_CLOSE
     18629**LABEL   18599--GOTO    18614--GOTO
KNA_LNKSSN
     17955**DCL     18442<>CALL    18466<>CALL    18532<>CALL    18554<>CALL    18622<>CALL    18658<>CALL
     18754<>CALL    18765<>CALL
KNA_RWPARM_CON
     17644**DCL     18425>>ASSIGN  18524>>ASSIGN  18558>>ASSIGN  18577>>ASSIGN  18666>>ASSIGN  18703>>ASSIGN
     18712>>ASSIGN
KNA_RWPARM_CON.BLKREC
     17674**DCL     17699--REDEF
KNA_RWPARM_CON.DVE.DVBYTE.VFC
PL6.E3A0      #001=KNA$OPEN File=KNA$APE.:E05TSI                                 WED 07/30/97 00:55 Page:119
     17714**DCL     17715--REDEF
KNA_RWPARM_CON.DVE.EOMCHAR
     17722**DCL     17726--REDEF
KNA_RWPARM_CON.ERR
     17786**DCL     17791--REDEF
KNA_RWPARM_CON.FC
     17750**DCL     17751--REDEF
KNA_RWPARM_CON.FLDID
     17932**DCL     17933--REDEF
KNA_RWPARM_CON.KEYTYPE
     17939**DCL     17940--REDEF
KNA_RWPARM_CON.MSG$
     17645**DCL     17646--REDEF   17655--REDEF
KNA_RWPARM_CON.MSGID
     17761**DCL     17766--REDEF
KNA_RWPARM_CON.MSGIDXT
     17774**DCL     17778--REDEF
KNA_RWPARM_CON.ORG
     17910**DCL     17911--REDEF
KNA_RWPARM_CON.VDOFLGS
     17912**DCL     17923--REDEF
KNA_WINDOW
     17980**DCL     18569>>ASSIGN
KNA_WINDOW.FWINDOW
     17980**DCL     17980--REDEF   17981--REDEF
KNA_WINDOW_TL
     18159**DCL     18572--ASSIGN  18573--ASSIGN
KNB$GETRESP
     15053**DCL-ENT 18406--CALL
KNS$SEND
     15043**DCL-ENT 18447--CALL    18735--CALL
KN_NETPARM_INIT
     18019**DCL     18728>>ASSIGN
KN_NETPARM_INIT.MSG$
     18026**DCL     18031--REDEF
KN_NETPARM_INIT.NHDR$
PL6.E3A0      #001=KNA$OPEN File=KNA$APE.:E05TSI                                 WED 07/30/97 00:55 Page:120
     18078**DCL     18079--REDEF
KN_NETPARM_INIT.SHDR$
     18056**DCL     18057--REDEF
KN_NETPARM_INIT.THDR$
     18067**DCL     18068--REDEF
KN_NETPARM_INIT.UHDR$
     18042**DCL     18043--REDEF
KN_NODE#
     18160**DCL     18228>>ASSIGN  18280>>ASSIGN
LGNSTR
     18164**DCL     18227>>ASSIGN
LGN_
     14994**DCL        72--PROC    18215--IF      18226>>ASSIGN  18227>>ASSIGN
MAINLINE
     18637**LABEL   18630--GOTO
MYDCB.DCBNAME.L
     16763**DCL     16763--IMP-SIZ
MYDCB.DDEV.CG
     16746**DCL     18543<<ASSIGN
MYDCB.DDEV.RES
     16746**DCL     18209<<ASSIGN  18214<<ASSIGN  18273<<ASSIGN  18278<<ASSIGN  18687>>IF      18694>>IF
MYDCB.DISP
     16751**DCL     18705>>IF
MYDCB.EOMCHAR
     16754**DCL     16754--REDEF   16755--REDEF
MYDCB.EVENT
     16756**DCL     18541>>ASSIGN
MYDCB.FCD
     16750**DCL     18173>>IF      18244>>IF      18328>>IF      18545<<ASSIGN  18644>>IF      18683<<ASSIGN
     18694>>IF
MYDCB.FCI
     16750**DCL     18546<<ASSIGN
MYDCB.FFLG
     16744**DCL     18547<<ASSIGN
MYDCB.FLDID
     16753**DCL     16753--REDEF
PL6.E3A0      #001=KNA$OPEN File=KNA$APE.:E05TSI                                 WED 07/30/97 00:55 Page:121
MYDCB.ORG
     16751**DCL     18232>>IF      18248>>DOCASE  18251>>IF      18251>>IF      18255>>IF      18255>>IF
     18574>>IF      18579>>IF      18582>>IF      18585>>IF
MYDCB.RES
     16748**DCL     16749--REDEF   18182>>ASSIGN  18183>>CALLBLT 18184>>IF      18193>>CALLBLT 18194>>CALLBLT
     18195>>CALLBLT 18244>>IF      18329>>IF
MYDCB.RLCID
     16758**DCL     18210>>IF      18211>>ASSIGN  18212>>ASSIGN  18274>>ASSIGN  18329>>IF      18625<<ASSIGN
     18685<<ASSIGN
MYDCB.SSN$
     16763**DCL     18346>>ASSIGN  18542<<ASSIGN  18641>>ASSIGN  18684<<ASSIGN
MYDCB.STRM
     16743**DCL     18244>>IF      18426>>ASSIGN  18544<<ASSIGN  18668>>ASSIGN  18694>>IF      18694>>IF
     18704>>ASSIGN
NETWORK_ADDR
     15672**DCL     18211<<ASSIGN  18212<<ASSIGN  18274<<ASSIGN  18279<<ASSIGN  18329>>IF      18376>>ASSIGN
     18412<<ASSIGN  18415>>ASSIGN
NETWORK_ADDR.LDCTX
     15675**DCL     18291>>IF
NETWORK_ADDR.NODE#
     15673**DCL     18280<<ASSIGN
NEWSTREAM
     15661**DCL     18201<<ASSIGN  18247<<ASSIGN  18556>>IF      18690<<ASSIGN  18698<<ASSIGN  18701>>IF
NUMBERS
     18163**DCL     18193>>CALLBLT 18194>>CALLBLT
OPNDCB$
     15670**DCL     18319<<ASSIGN  18332<<ASSIGN  18344>>IF      18346>>ASSIGN
RESTYPE
     15671**DCL     18182<<ASSIGN  18184>>IF      18207>>DOSELCT 18291>>IF      18291>>IF      18321>>IF
     18329--IF      18329>>IF      18404>>IF      18418>>IF
RLSDCT_N_ALTRET
     18471**LABEL   18410--GOTO
RLSSSN_N_ALTRET
     18469**LABEL   18392--GOTO
RWPARM
     15074**DCL     18425<<ASSIGN  18427<>CALL    18524<<ASSIGN  18525<>CALL    18558<<ASSIGN  18561<>CALL
PL6.E3A0      #001=KNA$OPEN File=KNA$APE.:E05TSI                                 WED 07/30/97 00:55 Page:122
     18576<>CALL    18577<<ASSIGN  18601<>CALL    18666<<ASSIGN  18669<>CALL    18703<<ASSIGN  18707<>CALL
     18712<<ASSIGN  18715<>CALL
RWPARM.BLKREC
     15104**DCL     15129--REDEF
RWPARM.DVE.DVBYTE.VFC
     15144**DCL     15145--REDEF
RWPARM.DVE.EOMCHAR
     15152**DCL     15156--REDEF
RWPARM.ERR
     15216**DCL     15221--REDEF
RWPARM.FC
     15180**DCL     15181--REDEF
RWPARM.FLDID
     15362**DCL     15363--REDEF
RWPARM.KEYTYPE
     15369**DCL     15370--REDEF
RWPARM.MARKER
     15129**DCL     18714<<ASSIGN
RWPARM.MRKTYP
     15354**DCL     18593<<ASSIGN  18667<<ASSIGN  18713<<ASSIGN
RWPARM.MSG$
     15075**DCL     15076--REDEF   15085--REDEF   18570<<ASSIGN
RWPARM.MSGID
     15191**DCL     15196--REDEF
RWPARM.MSGIDXT
     15204**DCL     15208--REDEF
RWPARM.MSGSZ
     15086**DCL     18571<<ASSIGN
RWPARM.ORG
     15340**DCL     15341--REDEF   18581<<ASSIGN  18584<<ASSIGN  18587<<ASSIGN  18589<<ASSIGN
RWPARM.STR
     15355**DCL     18426<<ASSIGN  18559<<ASSIGN  18562<<ASSIGN  18578<<ASSIGN  18668<<ASSIGN  18704<<ASSIGN
RWPARM.STRID
     15341**DCL     18560<<ASSIGN
RWPARM.UHDRSZ
     15234**DCL     18429>>ASSIGN
PL6.E3A0      #001=KNA$OPEN File=KNA$APE.:E05TSI                                 WED 07/30/97 00:55 Page:123
RWPARM.V$
     15359**DCL     18572<<ASSIGN
RWPARM.VDOFLGS
     15342**DCL     15353--REDEF
RWPARM.VDOFLGS.DLTSTR
     15346**DCL     18706<<ASSIGN
RWPARM.VSZ
     15361**DCL     18573<<ASSIGN
SCREECH
     15051**DCL-ENT 18494--CALL
SCR_UNEXP
     17586**DCL     18494<>CALL
SET_BAD_ORG
     18258**LABEL   18252--GOTO
SGN
     15691**DCL     15784--REDEF   18220<<ASSIGN  18406--CALL    18406--CALL
SGN.FCN
     15692**DCL     18221<<ASSIGN
SGN.LOGON.LGNSIZ
     15766**DCL     18164--IMP-SIZ 18226<<ASSIGN  18227>>ASSIGN
SGN.LOGON.LGNTXT
     15767**DCL     18227<<ASSIGN
SGN.NMID
     15755**DCL     18225<<ASSIGN
SGN.NODE
     15695**DCL     18228<<ASSIGN
SGN.TERMINAL_ID.TERM
     15718**DCL     15727--REDEF
SGN.TERMINAL_ID.TERM.CHANNEL
     15724**DCL     18229<<ASSIGN
SGN.TERMINAL_ID.TERMID
     15727**DCL     18223<<ASSIGN
SGN.TERMINAL_ID.TTYP
     15718**DCL     18222<<ASSIGN
SGN.USER.SYSID
     15747**DCL     18224<<ASSIGN
PL6.E3A0      #001=KNA$OPEN File=KNA$APE.:E05TSI                                 WED 07/30/97 00:55 Page:124
SGNRSP
     15784**DCL     18406--CALL    18406--CALL
SGNRSP.ERRCODE
     15840**DCL     18407>>IF      18409>>ASSIGN
SGNRSP.RLCID
     15808**DCL     18412>>ASSIGN
SGNRSP.TERMID.TERM
     15888**DCL     15897--REDEF
SSN$
     15668**DCL     16780--IMP-PTR 18346<<ASSIGN  18347>>ASSIGN  18347>>ASSIGN  18356<>CALL    18367>>ASSIGN
     18370>>ASSIGN  18371>>ASSIGN  18372>>ASSIGN  18373>>ASSIGN  18374>>ASSIGN  18375>>ASSIGN  18376>>ASSIGN
     18395>>ASSIGN  18401>>ASSIGN  18471<>CALL    18489>>ASSIGN  18490<>CALL    18491>>ASSIGN  18506<>CALL
     18507>>IF      18509>>ASSIGN  18511>>IF      18516>>ASSIGN  18525>>CALL    18526>>ASSIGN  18541>>ASSIGN
     18542>>ASSIGN  18543>>ASSIGN  18561>>CALL    18576>>CALL    18594>>ASSIGN  18595>>ASSIGN  18601>>CALL
     18604<>CALL    18609>>ASSIGN  18611>>ASSIGN  18625>>ASSIGN  18641<<ASSIGN  18662>>IF      18664>>IF
     18669>>CALL    18671>>ASSIGN  18672<>CALL    18674>>IF      18676>>CALL    18677>>ASSIGN  18686>>ASSIGN
     18686>>ASSIGN  18707>>CALL    18710>>IF      18714>>ASSIGN  18715>>CALL    18716>>ASSIGN  18718>>IF
     18721>>IF      18731>>ASSIGN  18741<>CALL    18745>>ASSIGN  18746<>CALL    18748>>CALL    18757<>CALL
STRM
     15666**DCL     18195<<CALLBLT 18198<<ASSIGN  18244>>IF      18544>>ASSIGN  18556>>IF      18560>>ASSIGN
     18562>>ASSIGN  18578>>ASSIGN
TEMP$
     15669**DCL     18325<<ASSIGN  18327>>IF      18328>>IF      18329>>IF      18329>>IF      18332>>ASSIGN
UCSTREAM
     15662**DCL     18200<<ASSIGN  18275<<ASSIGN  18556>>IF
UNLOCK_N_ALTRET
     18466**LABEL   18456--GOTO    18512--GOTO
UNLOCK_N_RTN
     18743**LABEL   18680--GOTO    18718--GOTO
VLP_WINDOW
     15013**DCL        72--PROC    18563--IF      18565>>ASSIGN  18574--IF
VLP_WINDOW.FWINDOW
     15013**DCL     15013--REDEF   15014--REDEF
WINDOW
     15923**DCL     18565<<ASSIGN  18566<>CALL    18569<<ASSIGN  18570--ASSIGN  18571--ASSIGN
WINDOW.FWINDOW
PL6.E3A0      #001=KNA$OPEN File=KNA$APE.:E05TSI                                 WED 07/30/97 00:55 Page:125
     15923**DCL     15923--REDEF   15924--REDEF

