PL6.E3A0      #003=KNA$USERIO File=KNA$APE.:E05TSI                               WED 07/30/97 00:58 Page:239
     1342        1        /*T***********************************************************/
     1343        2        /*T*                                                         */
     1344        3        /*T* Copyright (c) Bull HN Information Systems Inc., 1997    */
     1345        4        /*T*                                                         */
     1346        5        /*T***********************************************************/
     1347        6        /*F*
     1348        7           NAME: KNA$USERIO
     1349        8           PURPOSE:
     1350        9                  This routine handles M$READ/WRITE on behalf of network
     1351       10             connections.
     1352       11           DESCRIPTION:
     1353       12                  This routine takes an application program's M$READ or M$WRITE
     1354       13             and does the proper Presentation Protocol.  A message specifying
     1355       14             a request for data (M$READ) or the data itself (M$WRITE) is sent
     1356       15             via a connection established with the monitor Session layer.
     1357       16        */
     1358       17        /*D*
     1359       18           NAME: KNA$USERIO
     1360       19             This routine handles M$READ/WRITE on behalf of the user.
     1361       20
     1362       21           ENTRY: KNA$READ
     1363       22             Provides an internal interface for the monitor to issue M$READ.
     1364       23
     1365       24           ENTRY: KNA$WRITE
     1366       25             Provides an internal interface for the monitor to issue M$WRITE.
     1367       26
     1368       27           ENTRY: KNA$WRITE_NOW
     1369       28             Provides an internal interface for the monitor to issue M$WRITE
     1370       29             which doesn't do flow control.
     1371       30
     1372       31           CALL:  CALL KNA$routine(DCBNUMBER,UBUF$,ERROR,KNA_PARAMS) ALTRET;
     1373       32
     1374       33                  This routine altreturns if an error is encountered.
     1375       34           PARAMETERS:
     1376       35                  DCBNUMBER - DCB number for the DCB on the M$READ/WRITE
     1377       36                  UBUF$ - User buffer address pulled from the FPT
     1378       37                  ERROR - Error code to be returned
PL6.E3A0      #003=KNA$USERIO File=KNA$APE.:E05TSI                               WED 07/30/97 00:58 Page:240
     1379       38                  KNA_PARAMS - Structure passed by GFM$MCL for MCL info.
     1380       39                               This parameter is only used by KNA$USERIO.
     1381       40           INTERFACE:
     1382       41                  KNS$SESSION - To send messages on the network
     1383       42                  KNA$GETIOP - To get an I/O packet
     1384       43                  KNA$RLSIOP - To release an I/O packet
     1385       44                  GHS$REGUSER - REG a user on wait I/O situations
     1386       45                  KNA$OPEN - For a default OPEN on the passed DCB
     1387       46           ENVIRONMENT:
     1388       47             The KNA$USERIO routine is called from GFM$MCL, the MCL handler for
     1389       48             file management MCLs.  All the FPT parameters are available to
     1390       49             us in a structure.
     1391       50
     1392       51             The other entry points are called from any where in the monitor running
     1393       52             on behalf of a REGable user.  The DCB passed must be set up the
     1394       53             way that the monitor wishes.  The current use of these routines
     1395       54             is by job step to downline load fprgs and report an fprg
     1396       55             exit/abort condition.
     1397       56
     1398       57           DESCRIPTION:
     1399       58                  Entry from GFM$MCL results in all the user's FPT information
     1400       59             being stored away in AUTO.  Next (or if entry was not from GFM$MCL)
     1401       60             the DCB number passed is validated and a check is made to see if
     1402       61             we have to do a default OPEN.  The user's parameters are checked
     1403       62             to see if we have everything we need to do this operation, such
     1404       63             as keys, buffer, etc.  If this check succeeds then we do either
     1405       64             a READ or a WRITE.
     1406       65
     1407       66                  A WRITE operation causes us to make sure that the other
     1408       67             end of the network connection has given us throttling information
     1409       68             to allow us to send him the specified data.  If not, the user is
     1410       69             REGged until such time as that is the case.  The user's data is
     1411       70             merely passed along via a call to KNS$SESSION if we already have
     1412       71             enough throttling permission to send the data.
     1413       72
     1414       73                  A WRITENOW operation doesn't do flow control and causes a
     1415       74             Presentation function code to be put on the message which
PL6.E3A0      #003=KNA$USERIO File=KNA$APE.:E05TSI                               WED 07/30/97 00:58 Page:241
     1416       75             directs this message to the other monitor (host).
     1417       76
     1418       77                  A READ operation causes the allocation of an IO packet for
     1419       78             keeping track of the user's buffer.  A message is sent via
     1420       79             Session to tell the guy at the other end of the network connection
     1421       80             that he can send some stuff over.  After this message is sent the
     1422       81             user is REGged until his data arrives.
     1423       82        */
     1424       83        %EJECT;
PL6.E3A0      #003=KNA$USERIO File=KNA$APE.:E05TSI                               WED 07/30/97 00:58 Page:242
     1425       84        KNA$USERIO: PROC(DCBNUMBER,UBUF$,ERROR,KNA_PARAMS) ALTRET;
     1426       85        %INCLUDE KNA_MACRO_M;
     1427      161        %INCLUDE KN_ERRORS_C;
     1428      225        %INCLUDE KI_ERRORS_C;
     1429      310        %INCLUDE KI_SUBS_C;
     1430      446        %INCLUDE GH_LCP6_M;
     1431     1280        %INCLUDE GH_SCHD_E;
     1432     1376        %INCLUDE GH_SCHD_M;
     1433     1520        %INCLUDE G_HJIT_M;
     1434     1665        %INCLUDE G_ROS_M;
     1435     1747        %INCLUDE G_JIT_M;
     1436     2012        %INCLUDE GH_GATE_M;
     1437     2053        %INCLUDE KN_DATA_M;
     1438     3839        %INCLUDE K_SCODE_C;
     1439     3924        %INCLUDE P_FEP_M;
     1440     4362        %INCLUDE KL_MACRO_C;
     1441     7714        %INCLUDE K_ID_E;
     1442     7764        %K#ENTID_E;
     1443     7783        %INCLUDE GU_LCP6_M;
     1444     8711        %INCLUDE GU_MACROS_M;
     1445     8870        %INCLUDE GF_LCP6_M;
     1446     9338        %INCLUDE G_LCP6_E;
     1447     9596        %GF_MCL_E;                              /* Get the MCL EQUs                   */
     1448     9606        %INCLUDE F_ERRORS_C;
     1449     9846        %INCLUDE UD_ERRORS_C;
     1450     9888        %INCLUDE GM_VIRTUAL_E;
     1451    10098        %INCLUDE KV$VDO;
     1452    11113        %INCLUDE K$RWPARM;
     1453    11499        /* We involke this so the VDH macros work */
     1454    11500        %KV_VDO_ALL_E;
     1455    11579
     1456    11580        /*     Parameters
     1457    11581        */
     1458    11582    1   DCL DCBNUMBER UBIN;
     1459    11583    1   DCL UBUF$ VECTOR;
     1460    11584        %VLP_ERRCODE (FPTN=ERROR,STCLASS="");
     1461    11630        %GUD_HAND_PARAMS (FPTN=KNA_PARAMS,STCLASS="");
PL6.E3A0      #003=KNA$USERIO File=KNA$APE.:E05TSI                               WED 07/30/97 00:58 Page:243
     1462    11706
     1463    11707        /*     Static storage
     1464    11708        */
     1465    11709        %VLP_ERRCODE (STCLASS=CONSTANT, FCG=KN, MID=A, MON='1'B,
     1466    11710                      FPTN=ENWIO, ERR#=%E$NWIO, SEV=G_SEV_ERROR#);
     1467    11756        %VLP_ERRCODE (STCLASS=CONSTANT, FCG=KN, MID=A, MON='1'B,
     1468    11757                      FPTN=EDCBNUM, ERR#=%E$BADDCB#, SEV=G_SEV_ERROR#);
     1469    11803        %VLP_ERRCODE (STCLASS=CONSTANT, FCG=KN, MID=A, MON='1'B,
     1470    11804                      FPTN=EBADBUF, ERR#=%E$BADVECT2, SEV=G_SEV_ERROR#);
     1471    11850        %VLP_ERRCODE (STCLASS=CONSTANT, FCG=KN, MID=A, MON='1'B,
     1472    11851                      FPTN=ENO_IOP, ERR#=%E$NO_IOP, SEV=G_SEV_ERROR#);
     1473    11897        %VLP_ERRCODE (STCLASS=CONSTANT, FCG=KN, MID=A, MON='1'B,
     1474    11898                      FPTN=ESHORT_BUFFER, ERR#=%E$LD, SEV=G_SEV_CONT#);
     1475    11944        %VLP_ERRCODE (STCLASS=CONSTANT, FCG=KN, MID=A, MON='1'B,
     1476    11945                      FPTN=ENO_DAT, ERR#=%E$NODAT, SEV=G_SEV_CONT#);
     1477    11991        %VLP_ERRCODE (STCLASS=CONSTANT, FCG=KN, MID=A, MON='1'B,
     1478    11992                      FPTN=EBYD, ERR#=%E$BYD, SEV=G_SEV_CONT#);
     1479    12038        %VLP_ERRCODE (STCLASS=CONSTANT, FCG=KN, MID=A, MON='1'B,
     1480    12039                      FPTN=ELDSC, ERR#=%E$LDSC, SEV=G_SEV_ABORT#);
     1481    12085        %VLP_ERRCODE (STCLASS=CONSTANT, FCG=KN, MID=A, MON='1'B,
     1482    12086                      FPTN=EXTRA_READ, ERR#=%E$XTRARD, SEV=G_SEV_CONT#);
     1483    12132        %VLP_SCODE (FPTN=SC_IOP,ERR#=%S$IOP,SEV=G_SEV_SCREECH#,
     1484    12133                    STCLASS=CONSTANT,FCG=KN,MID=A,MON='1'B);
     1485    12194
     1486    12195        /*     AUTO storage
     1487    12196        */
     1488    12197    1   DCL MSGSIZE UBIN;
     1489    12198    1   DCL RESTYPE UBIN;
     1490    12199    1   DCL STR UBIN;                           /* Stream number                      */
     1491    12200    1   DCL PARMSPEC BIT(1);
     1492    12201    1   DCL USRFPT$ PTR;
     1493    12202    1   DCL KEY$ PTR;
     1494    12203    1   DCL KEYSZ UBIN;
     1495    12204    1   DCL LSTIOP$ PTR;
     1496    12205    1   DCL FPT_BUF$ VECTOR;
     1497    12206    1   DCL FPT_CODE UBIN;
     1498    12207    1   DCL DCB$ PTR;
PL6.E3A0      #003=KNA$USERIO File=KNA$APE.:E05TSI                               WED 07/30/97 00:58 Page:244
     1499    12208    1   DCL SSN$ PTR;
     1500    12209    1   DCL IOP$ PTR;
     1501    12210    1   DCL ASDT_INDEX UBIN;
     1502    12211    1   DCL EVENT UBIN;
     1503    12212    1   DCL 1 TEMP,
     1504    12213    1         2 BYTE_OFF    BIT(1),
     1505    12214    1         2 *           BIT(11),
     1506    12215    1         2 V_WRD_ADDR  UBIN(20) UNAL;
     1507    12216    1   DCL TEMP_CPTR REDEF TEMP CPTR;
     1508    12217    1   DCL VA_ADDR UBIN(32);
     1509    12218    1   DCL FLOW_CONTROL BIT(1);
     1510    12219        %K$RWPARM (NAME=K$RWPARM,STCLASS=AUTO);
     1511    12535        %G$NWIO (FPTN=NWIO,STCLASS=AUTO,PARONLY=1);
     1512    12564    1   DCL ERR UBIN;
     1513    12565    1   DCL TCB_ERR BIT(32);
     1514    12566    1   DCL I SBIN;
     1515    12567    1   DCL FCN UBIN;
     1516    12568    1   DCL ROUTINE EPTR;
     1517    12569        %EJECT;
PL6.E3A0      #003=KNA$USERIO File=KNA$APE.:E05TSI                               WED 07/30/97 00:58 Page:245
     1518    12570
     1519    12571        /*     BASED
     1520    12572        */
     1521    12573        %G$JIT (STCLASS="BASED(G$JIT$)");
     1522    12987        %M$DCB (DCBN=MYDCB,STCLASS="BASED(DCB$)");
     1523    13038        %G$ROS (FPTN=G$ROS,STCLASS="BASED(G$ROS$)");
     1524    13082        %G$UHJIT (FPTN=G$UHJIT,STCLASS="BASED(G$UHJIT$)");
     1525    16056        %G$MHJIT (FPTN=G$MHJIT,STCLASS="BASED(G$MHJIT$)");
     1526    22930        %G$ECCB(STCLASS=BASED);
     1527    23006        %KNA$SSN (FPTN=KNA$SSN,STCLASS="BASED(SSN$)");
     1528    23089        %G$USER (FPTN=G$U,STCLASS=BASED);
     1529    23100        %G$ASDT;
     1530    23129        %G$DCBTABLE;
     1531    23140        %KN$IOP (NAME=KN$IOP,STCLASS="BASED(IOP$)");
     1532    23313        %G$ASDT_MCL (STCLASS="BASED(G$ASDT_MCL$)");
     1533    24007        %FPT_READ(VECTORS=NO,STCLASS="BASED(USRFPT$)");
     1534    24033        %FPT_WRITE(VECTORS=NO,STCLASS="BASED(USRFPT$)");
     1535    24057    1   DCL B$WORD UBIN BASED ALIGNED;
     1536    24058        %VLP_CG (STCLASS=BASED);
     1537    24078    1   DCL VFC CHAR(1) BASED UNAL;
     1538    24079
     1539    24080        /*     Useful External Pointers and Symrefs
     1540    24081        */
     1541    24082    1   DCL G$JIT$ PTR SYMREF READONLY;
     1542    24083    1   DCL G$ROS$ PTR SYMREF;
     1543    24084    1   DCL G$UHJIT$ PTR SYMREF;
     1544    24085    1   DCL G$MHJIT$ PTR SYMREF;
     1545    24086    1   DCL G$ASDT_MCL$ PTR SYMREF;
     1546    24087        %GATE(FPTN=KNA_LNKIOP,STCLASS=SYMREF);
     1547    24106        %GATE (FPTN=KNA_LNKSSN,STCLASS=SYMREF);
     1548    24125        %K$RWPARM (NAME=KNA_RWPARM_CON,STCLASS=SYMREF);
     1549    24441        %PS_LCP6STT (STCLASS=SYMREF);
     1550    24945
     1551    24946        /*     ENTRY definitions
     1552    24947        */
     1553    24948    1   DCL SCREECH ENTRY(1);
     1554    24949    1   DCL GHS$EVENT ENTRY(7);
PL6.E3A0      #003=KNA$USERIO File=KNA$APE.:E05TSI                               WED 07/30/97 00:58 Page:246
     1555    24950    1   DCL KNA$FCNOU ENTRY(4) ALTRET;
     1556    24951    1   DCL KNA$FCNO ENTRY(4) ALTRET;
     1557    24952    1   DCL KNA$OPEN ENTRY(4) ALTRET;
     1558    24953    1   DCL KNA$GETIOP ENTRY(1) ALTRET;
     1559    24954    1   DCL KNA$RLSIOP ENTRY(1) ALTRET;
     1560    24955    1   DCL KNA$REG_USER ENTRY(2) ALTRET;
     1561    24956    1   DCL KNA$SAVEMAP ENTRY(2);
     1562    24957        %EJECT;
PL6.E3A0      #003=KNA$USERIO File=KNA$APE.:E05TSI                               WED 07/30/97 00:58 Page:247
     1563    24958        /*
     1564    24959               This is where the procedure KNA$USERIO begins.  Parameters from
     1565    24960        the FPT are merely moved into local storage and then we go off to the
     1566    24961        mainline code.
     1567    24962        */
     1568    24963    1      VBASE(FPT_BUF$) = KNA_PARAMS.CPTRS.PAR3$;
     1569    24964    1      VBOUND(FPT_BUF$) = KNA_PARAMS.BND.PAR3;
     1570    24965    1      KEY$ = KNA_PARAMS.PTRS.PAR2$;
     1571    24966    1      KEYSZ = KNA_PARAMS.BND.PAR2 + 1;
     1572    24967    1      FPT_CODE = KNA_PARAMS.MCL.CODE;
     1573    24968    1      USRFPT$=KNA_PARAMS.PTRS.PAR1$;
     1574    24969    1      PARMSPEC = '1'B;
     1575    24970    1      FLOW_CONTROL = '1'B;
     1576    24971
     1577    24972    1      IF G$UHJIT.DMN.ID = %G_DMN_DB# OR G$UHJIT.DMN.ID = %G_DMN_DB_SVC#
     1578    24973    1      THEN STR = KIDM_DB;
     1579    24974    1      ELSE STR = KIDM_USER;
     1580    24975
     1581    24976    1      GOTO MAINSTREAM;
     1582    24977
     1583    24978    1   KNA$READ: ENTRY (DCBNUMBER,UBUF$,ERROR,KNA_PARAMS) ALTRET;
     1584    24979    1      FPT_CODE = %G_MCL_READ#;
     1585    24980    1      GOTO SETUP_MON;
     1586    24981
     1587    24982    1   KNA$WRITE: ENTRY (DCBNUMBER,UBUF$,ERROR,KNA_PARAMS) ALTRET;
     1588    24983    1      FLOW_CONTROL = '1'B;
     1589    24984    1      GOTO SETUP_MON_WRITE;
     1590    24985
     1591    24986    1   KNA$WRITE_NOW: ENTRY (DCBNUMBER,UBUF$,ERROR,KNA_PARAMS) ALTRET;
     1592    24987
     1593    24988    1      FLOW_CONTROL = '0'B;
     1594    24989
     1595    24990    1   SETUP_MON_WRITE: ;
     1596    24991    1      FPT_CODE = %G_MCL_WRITE#;
     1597    24992
     1598    24993    1   SETUP_MON: ;
     1599    24994    1      FPT_BUF$ = UBUF$;
PL6.E3A0      #003=KNA$USERIO File=KNA$APE.:E05TSI                               WED 07/30/97 00:58 Page:248
     1600    24995    1      USRFPT$=ADDR(KNA_PARAMS);
     1601    24996    1      PARMSPEC = '0'B;
     1602    24997    1      STR = KIDM_MON;
     1603    24998    1      KEY$ = ADDR(NIL);
     1604    24999    1      KEYSZ = 0;
     1605    25000    1      GOTO MAINSTREAM;
     1606    25001
     1607    25002        /* Now we must do some validity checks.
     1608    25003        */
     1609    25004    1   MAINSTREAM:
     1610    25005    1      ERROR = '0'B;
     1611    25006    1      IF DCBNUMBER > G$ROS.NUMDCBS OR DCBNUMBER = 0
     1612    25007    2      THEN DO;
     1613    25008    2           ERROR = EDCBNUM;
     1614    25009    2           ALTRETURN;
     1615    25010    2           END;
     1616    25011        /*E* ERROR: KNA-E$BADDCB#
     1617    25012             MESSAGE: An invalid DCB has been passed
     1618    25013        */
     1619    25014
     1620    25015    1      IF USRFPT$~=ADDR(NIL) AND FPT_CODE=%G_MCL_READ#
     1621    25016    1      THEN
     1622    25017    1           IF VBASE(FPT_BUF$)=ADDR(NIL)
     1623    25018    1             OR FPT_READ.V.READMLT AND VBOUND(FPT_BUF$)<127
     1624    25019    2           THEN DO;
     1625    25020    2                ERROR = EBADBUF;
     1626    25021    2                ALTRETURN;
     1627    25022    2                END;
     1628    25023        /*E* ERROR: KNA-E$BADVECT2
     1629    25024             MESSAGE: An invalid buffer vector was specified
     1630    25025             MESSAGE1: M$READ specified BUF=NIL
     1631    25026                       or M$READ with READMLT specified BUF < 256 bytes.
     1632    25027        */
     1633    25028
     1634    25029        /*N*  READ/WRITE - Many more validity checks need to be made depending
     1635    25030        upon options in the DCB.  Also many more things will be passed on the
     1636    25031        FPT.  A good way of resolving the flavor of DCB we have and the validity
PL6.E3A0      #003=KNA$USERIO File=KNA$APE.:E05TSI                               WED 07/30/97 00:58 Page:249
     1637    25032        of things passed on READ/WRITE FPTs (for instance, no buffer vector
     1638    25033        could actually be legal) has yet to be resolved.  A better understanding
     1639    25034        of what ORGS vs. ACCESSes vs. ASNs vs. FPT parameters needed by the
     1640    25035        users has to be developed first.
     1641    25036        */
     1642    25037
     1643    25038        /*     If the DCB passed to us is not OPEN then we will attempt a
     1644    25039        default OPEN.
     1645    25040        */
     1646    25041    1      DCB$ = G$ROS.DCBPTR$ -> G$DCBTABLE(DCBNUMBER);
     1647    25042    1      IF MYDCB.FCD = '0'B
     1648    25043    2      THEN DO;
     1649    25044    2           MYDCB.ORG = %G_ORG_CONSEC#;
     1650    25045    2           CALL KNA$OPEN(DCBNUMBER,ERROR) ALTRET(CANT_OPEN);
     1651    25046    2           IF ERROR ~= '0'B
     1652    25047    3           THEN DO;
     1653    25048    3   CANT_OPEN:   ALTRETURN;
     1654    25049    3                END;
     1655    25050    2           END;
     1656    25051         %EJECT;
PL6.E3A0      #003=KNA$USERIO File=KNA$APE.:E05TSI                               WED 07/30/97 00:58 Page:250
     1657    25052           %LOCK (G=KNA_LNKSSN);
     1658    25059    1      SSN$ = MYDCB.SSN$;
     1659    25060
     1660    25061    1      IF KNA$SSN.FLAGS.MRKPND
     1661    25062    1      THEN
     1662    25063    1           CALL SEND_MARKER;
     1663    25064
     1664    25065    1      IF KNA$SSN.STATE ~= %KNA_STATE_ACTIVE#
     1665    25066    2      THEN DO;
     1666    25067    2           ERROR = ELDSC;
     1667    25068    2           GOTO FINISHED;
     1668    25069    2           END;
     1669    25070        /*E* ERROR: KNA-%E$LDSC
     1670    25071             MESSAGE: Disconnect received from endpoint.
     1671    25072             MESSAGE1: The other endpoint is disconnecting.
     1672    25073        */
     1673    25074
     1674    25075    1      MYDCB.TYC = '0'B;
     1675    25076    1      IF STR = KIDM_USER
     1676    25077    1      THEN STR = MYDCB.STRM;
     1677    25078
     1678    25079    1      K$RWPARM = KNA_RWPARM_CON;
     1679    25080
     1680    25081    1      IF PARMSPEC AND KNA_PARAMS.PTRS.PAR4$ ~= ADDR(NIL)
     1681    25082    2      THEN DO;
     1682    25083    2           K$RWPARM.STATION = KNA_PARAMS.PTRS.PAR4$->VLP_CG.STATION#;
     1683    25084    2           K$RWPARM.MSGTYP = KNA_PARAMS.PTRS.PAR4$->VLP_CG.MSGTYP#;
     1684    25085    2           K$RWPARM.MSGID = KNA_PARAMS.PTRS.PAR4$->VLP_CG.MSGID#;
     1685    25086    2           END;
     1686    25087
     1687    25088
     1688    25089        %EJECT;
PL6.E3A0      #003=KNA$USERIO File=KNA$APE.:E05TSI                               WED 07/30/97 00:58 Page:251
     1689    25090
     1690    25091    1      RESTYPE = MYDCB.DDEV.RES;
     1691    25092    1      IF VBASE(FPT_BUF$) = ADDR(NIL)
     1692    25093    1      THEN
     1693    25094    1           MSGSIZE = 0;
     1694    25095    1      ELSE
     1695    25096    1           MSGSIZE = VBOUND(FPT_BUF$)+1;
     1696    25097        /*     Now do either the WRITE or the READ
     1697    25098        */
     1698    25099    1      IF FPT_CODE = %G_MCL_WRITE#
     1699    25100    2      THEN DO;
     1700    25101
     1701    25102        /* Stay in this loop until we get to send the data out to Session
     1702    25103        */
     1703    25104    3   WRITELOOP: DO WHILE('1'B);
     1704    25105    3                IF USRFPT$ ~= ADDR(NIL)
     1705    25106    3                THEN K$RWPARM.DVE.DVBYTE = FPT_WRITE.V.DVBYTE;
     1706    25107
     1707    25108    3                IF K$RWPARM.DVE.DVBYTE.NODAT
     1708    25109    3                THEN ROUTINE = ENTADDR(KNA$FCNO);
     1709    25110    3                ELSE ROUTINE = ENTADDR(KNA$FCNOU);
     1710    25111
     1711    25112        /* Check to see if the other end only wants to receive part of the message */
     1712    25113    3                IF FLOW_CONTROL AND KNA$SSN.THRTLVL.MAXRCRBYTSIZ < MSGSIZE
     1713    25114    3                  AND KNA$SSN.THRTLVL.MAXNMBRCR >= 1
     1714    25115    3                  AND (KNA$SSN.FLAGS.MULT_STR AND STR~=KIDM_MON
     1715    25116    3                  OR STR = KNA$SSN.THRTLVL.STR
     1716    25117    3                  OR KNA$SSN.THRTLVL.STR = 0)
     1717    25118    4                THEN DO;
     1718    25119    4                     IF KNA$SSN.THRTLVL.MAXRCRBYTSIZ = 0 THEN
     1719    25120    4                          GOTO FINISHED;   /* Outputdiscard says "send nothing"  */
     1720    25121    4                     MSGSIZE = KNA$SSN.THRTLVL.MAXRCRBYTSIZ;
     1721    25122    4                     ERROR = ESHORT_BUFFER;
     1722    25123    4                     END;
     1723    25124        /* If RRR we want an end ack back */
     1724    25125    3                IF K$RWPARM.DVE.DVBYTE.RRR
     1725    25126    3                THEN K$RWPARM.MRKTYP = %KV_VDOMRKTYP_ENDACK;
PL6.E3A0      #003=KNA$USERIO File=KNA$APE.:E05TSI                               WED 07/30/97 00:58 Page:252
     1726    25127
     1727    25128        /* Check the throttling values to see if we can send the data now.
     1728    25129        */
     1729    25130    3                IF FLOW_CONTROL = '0'B OR
     1730    25131    3                  KNA$SSN.THRTLVL.MAXNMBRCR >=1 AND KNA$SSN.THRTLVL.MAXNMBBYT >=
             25131                           MSGSIZE
     1731    25132    3                  AND (KNA$SSN.FLAGS.MULT_STR AND STR~=KIDM_MON
     1732    25133    3                  OR STR = KNA$SSN.THRTLVL.STR
     1733    25134    3                  OR KNA$SSN.THRTLVL.STR = 0)
     1734    25135    4                THEN DO;
     1735    25136    4                     KNA$SSN.FLAGS.BLOCKED = '0'B;
     1736    25137    4                     IF FLOW_CONTROL
     1737    25138    4                     THEN FCN = %KV_VDO_FNC_DAT;
     1738    25139    4                     ELSE FCN = %KV_VDO_FNC_DAT_IMD;
     1739    25140
     1740    25141    4                     K$RWPARM.STR = STR;
     1741    25142    4                     K$RWPARM.MSGSZ = MSGSIZE;
     1742    25143
     1743    25144    4                     K$RWPARM.MSGC$ = VBASE(FPT_BUF$);
     1744    25145    4                     IF K$RWPARM.DVE.DVBYTE.VFC
     1745    25146    5                     THEN DO;
     1746    25147    5                          K$RWPARM.DVE.VFC = K$RWPARM.MSGC$->VFC;
     1747    25148    5                          K$RWPARM.MSGC$ = PINCRC (K$RWPARM.MSGC$,1);
     1748    25149    5                          K$RWPARM.MSGSZ = K$RWPARM.MSGSZ - 1;
     1749    25150    5                          END;
     1750    25151    4                     ELSE IF USRFPT$ ~= ADDR(NIL) AND MYDCB.DVFC ~= BINASC(0)
     1751    25152    5                          THEN DO;
     1752    25153    5                               K$RWPARM.DVE.DVBYTE.VFC = '1'B;
     1753    25154    5                               K$RWPARM.DVE.VFC = MYDCB.DVFC;
     1754    25155    5                               END;
     1755    25156    4                     K$RWPARM.KEY$ = KEY$;
     1756    25157    4                     K$RWPARM.KEYSZ = KEYSZ;
     1757    25158    4                     IF USRFPT$ ~= ADDR(NIL)
     1758    25159    5                     THEN DO;
     1759    25160    5                          K$RWPARM.KEYTYPE = FPT_WRITE.V.KEYTYPE;
     1760    25161    5                          IF K$RWPARM.KEYTYPE = 0
     1761    25162    5                          THEN K$RWPARM.KEYTYPE = MYDCB.KEYTYPE;
PL6.E3A0      #003=KNA$USERIO File=KNA$APE.:E05TSI                               WED 07/30/97 00:58 Page:253
     1762    25163    5                          IF FPT_WRITE.V.EOM AND SUBSTR(MYDCB.RES,0,2)~='UC'
     1763    25164    6                          THEN DO;
     1764    25165    6                               K$RWPARM.DVE.EOMCHAR = FPT_WRITE.V.EOMCHAR;
     1765    25166    6                               K$RWPARM.DVE.DVBYTE.VFC = '0'B;
     1766    25167    6                               K$RWPARM.EOM_EOR = '1'B;
     1767    25168    6                               END;
     1768    25169    5                          END;
     1769    25170
     1770    25171    4                     CALL ROUTINE (FCN,KNA$SSN,K$RWPARM,ERR)
     1771    25172    4                       ALTRET (SSN_ERR);
     1772    25173
     1773    25174    4                     IF FLOW_CONTROL
     1774    25175    5                     THEN DO;
     1775    25176    5                          KNA$SSN.THRTLVL.MAXNMBRCR = KNA$SSN.THRTLVL.MAXNMBRCR-1;
     1776    25177    5                          KNA$SSN.THRTLVL.MAXNMBBYT = KNA$SSN.THRTLVL.MAXNMBBYT -
             25177                                   MSGSIZE;
     1777    25178    5                          END;
     1778    25179    4                     EXIT WRITELOOP;
     1779    25180
     1780    25181    4                     END/* End for sending the data now*/;
     1781    25182
     1782    25183        /* If we don't have enough throttling to do this then we'll just
     1783    25184        set a bit saying that we are waiting for a message and REG the
     1784    25185        current user.
     1785    25186        */
     1786    25187    4                ELSE DO;
     1787    25188    4                     IF KNA$SSN.FLAGS.BLOCKED
     1788    25189    4                     THEN GOTO REG_BLOCKED;
     1789    25190
     1790    25191    4                     K$RWPARM.STR = STR;
     1791    25192    4                     K$RWPARM.MAXRCRBYTSIZ = MSGSIZE;
     1792    25193    4                     IF KNA$SSN.THRTLVL.MAXNMBRCR = 0
     1793    25194    4                     THEN K$RWPARM.RSN = %KV_BLKRSN_MAXNMBRCR;
     1794    25195    4                     ELSE K$RWPARM.RSN = %KV_BLKRSN_MAXNMBBYT;
     1795    25196    4                     KNA$SSN.REGRSN = 0;   /* So we can detect getting blocked   */
     1796    25197
     1797    25198    4                     CALL ROUTINE(%KV_VDO_FNC_BLKDAT,KNA$SSN,K$RWPARM,ERR)
PL6.E3A0      #003=KNA$USERIO File=KNA$APE.:E05TSI                               WED 07/30/97 00:58 Page:254
     1798    25199                                                /* call KNA$FCNO or KNA$FCNOU*/
     1799    25200    4                       ALTRET (SSN_ERR);
     1800    25201
     1801    25202
     1802    25203    4                     KNA$SSN.FLAGS.BLOCKED = '1'B;
     1803    25204    4                     IF KNA$SSN.REGRSN ~= 0
     1804    25205    4                     THEN GOTO WRITELOOP;  /* Start over if we got blocked       */
     1805    25206
     1806    25207    4   REG_BLOCKED:      IF MYDCB.DVBYTE.NODAT
     1807    25208    5                     THEN DO;
     1808    25209    5                          ERROR=ENO_DAT;
     1809    25210    5                          GOTO FINISHED;
     1810    25211    5                          END;
     1811    25212        /*E* ERROR: KNA-%E$NODAT
     1812    25213             MESSAGE: No throttling available for write or no data available for read.
     1813    25214        */
     1814    25215    4                     CALL KNA$REG_USER(%GH_EVCBL,SSN$)
     1815    25216    5                     WHENALTRETURN DO;
     1816    25217    5                          IF STR ~= KIDM_MON
     1817    25218    5                            OR KNA$SSN.STATE ~= %KNA_STATE_ACTIVE#
     1818    25219    6                          THEN DO;
     1819    25220    6                               G$JIT.JUNK.BACKP$='1'B;
     1820    25221    6   SSN_ERR:                    IF KNA$SSN.FLAGS.SSNERR THEN ERROR = KNA$SSN.ERROR;
     1821    25222    6                               ELSE ERROR = EBYD;
     1822    25223    6                               KNA$SSN.FLAGS.BLOCKED = '0'B;
     1823    25224    6                               GOTO FINISHED;
     1824    25225    6                               END/*do if mon*/;
     1825    25226    5                          END/*altret from reg_user*/;
     1826    25227        /*E* ERROR: KNA-%E$BYD
     1827    25228             MESSAGE: Asynchronous event interrupted I/O.
     1828    25229        */
     1829    25230    3                     END;/*do if no throttling*/;
     1830    25231    3                END/* writeloop: do while('1'B)*/;
     1831    25232        %EJECT;
PL6.E3A0      #003=KNA$USERIO File=KNA$APE.:E05TSI                               WED 07/30/97 00:58 Page:255
     1832    25233
     1833    25234        /* Update the various write counters.
     1834    25235        */
     1835    25236    3           DO CASE(RESTYPE);
     1836    25237    3            CASE(%G_DDEV_RES_HO#);
     1837    25238    3              G$JIT.WRITES_HOST = G$JIT.WRITES_HOST +1;
     1838    25239    3              PS_LCP6STT.WRITES_HOST = PS_LCP6STT.WRITES_HOST +1;
     1839    25240    3              PS_LCP6STT.BYTES_WRT_HOST = PS_LCP6STT.BYTES_WRT_HOST + MSGSIZE;
     1840    25241    3            CASE(%G_DDEV_RES_UC#);
     1841    25242    3              G$JIT.WRITES_UC = G$JIT.WRITES_UC +1;
     1842    25243    3              PS_LCP6STT.WRITES_UC = PS_LCP6STT.WRITES_UC +1;
     1843    25244    3              PS_LCP6STT.BYTES_WRT_UC = PS_LCP6STT.BYTES_WRT_UC + MSGSIZE;
     1844    25245    3            CASE(%G_DDEV_RES_LG#);
     1845    25246    3              PS_LCP6STT.WRITES_LG = PS_LCP6STT.WRITES_LG +1;
     1846    25247    3              PS_LCP6STT.BYTES_WRT_LG = PS_LCP6STT.BYTES_WRT_LG + MSGSIZE;
     1847    25248    3            CASE(%G_DDEV_RES_NA#);
     1848    25249    3              PS_LCP6STT.WRITES_NA = PS_LCP6STT.WRITES_NA +1;
     1849    25250    3              PS_LCP6STT.BYTES_WRT_NA = PS_LCP6STT.BYTES_WRT_NA + MSGSIZE;
     1850    25251    3              END/*do select*/;
     1851    25252
     1852    25253        /* If this is an RRR request grab a IOP packet */
     1853    25254    2           IF K$RWPARM.DVE.DVBYTE.RRR
     1854    25255    3           THEN DO;
     1855    25256    3                CALL KNA$GETIOP(IOP$)
     1856    25257    4                WHENALTRETURN DO;
     1857    25258    4                     ERROR = ENO_IOP;
     1858    25259    4                     GOTO FINISHED;
     1859    25260    4                     END;
     1860    25261    3                KNA$SSN.IOPQ$ = IOP$;
     1861    25262    3                KNA$SSN.FLAGS.RRRPND = '1'B;
     1862    25263    3                CALL KNA$REG_USER(%GH_EVCW,SSN$)
     1863    25264    4                WHENRETURN DO;
     1864    25265    4                     IF KN$IOP.ERRCODE THEN ERROR = KN$IOP.ERRCODE;
     1865    25266    4                     END;
     1866    25267    4                WHENALTRETURN DO;
     1867    25268    4                     IF KNA$SSN.FLAGS.SSNERR THEN ERROR = KNA$SSN.ERROR;
     1868    25269    4                     ELSE ERROR = EBYD;
PL6.E3A0      #003=KNA$USERIO File=KNA$APE.:E05TSI                               WED 07/30/97 00:58 Page:256
     1869    25270    4                     END;
     1870    25271    3                IF PARMSPEC AND KNA_PARAMS.PTRS.PAR4$ ~= ADDR(NIL)
     1871    25272    3                THEN KNA_PARAMS.PTRS.PAR4$->VLP_CG.MSGID# = KN$IOP.MSGID;
     1872    25273
     1873    25274    3                CALL KNA$RLSIOP (IOP$);
     1874    25275    3                KNA$SSN.IOPQ$ = ADDR(NIL);
     1875    25276    3                END;
     1876    25277    2           END;
     1877    25278        %EJECT;
PL6.E3A0      #003=KNA$USERIO File=KNA$APE.:E05TSI                               WED 07/30/97 00:58 Page:257
     1878    25279        /*
     1879    25280               Now we come to the READ code.  Here we basically just have to
     1880    25281        get an I/O packet for keeping track of the user's buffer, issue a
     1881    25282        message to the network connection specifying how much we can accept,
     1882    25283        mark this in our SSN context, and REG the user until this is all
     1883    25284        done.
     1884    25285        */
     1885    25286    2      ELSE DO;
     1886    25287        /*
     1887    25288          Verify that there is no other read operation pending on this stream.
     1888    25289          If there is, report an error and return.
     1889    25290                                                                                      */
     1890    25291    2           IF KNA$SSN.IOPRD$ ~= ADDR(NIL)  /* Another read out standing          */
     1891    25292    3           THEN DO;
     1892    25293    3                IF MOD(KNA_LNKSSN.SREG,64)<61
     1893    25294    4                THEN DO;
     1894    25295    4                     ERROR = EXTRA_READ;
     1895    25296    4                     GOTO FINISHED;
     1896    25297    4                     END;
     1897    25298
     1898    25299    3                IOP$ = KNA$SSN.IOPRD$;
     1899    25300    3                K$RWPARM.STR = KN$IOP.DCB$->MYDCB.STRM;
     1900    25301    3                CALL CANCEL_READ ALTRET(SSN_ERR);
     1901    25302    3                K$RWPARM.MRKTYP = 0;
     1902    25303    3                IF KNA$SSN.IOPRD$ = ADDR(NIL) /* Got message                     */
     1903    25304    3                THEN GOTO READ_COMPLETED;
     1904    25305
     1905    25306    3                NWIO = '0'B;
     1906    25307    3                NWIO.P# = SIZEW(NWIO) - SIZEW(NWIO.P#);
     1907    25308    3                TCB_ERR = EXTRA_READ;
     1908    25309    3                EVENT = KN$IOP.EVENT;
     1909    25310    3                CALL GHS$EVENT (KNA$SSN.USER#,%GH_USRDMN#,%G_IO_CMP#,EVENT,TCB_ERR,NWIO
             25310                         );
     1910    25311    3                END/*do if ssn.ioprd$ ~= nil*/;
     1911    25312        /*E* ERROR: KNA-E$XTRARD-0
     1912    25313             MESSAGE: Read errored because of another read issued.
     1913    25314        */
PL6.E3A0      #003=KNA$USERIO File=KNA$APE.:E05TSI                               WED 07/30/97 00:58 Page:258
     1914    25315
     1915    25316    3           ELSE DO;                        /*when no read is outstanding*/
     1916    25317    3   READ_COMPLETED: ;
     1917    25318    3                CALL KNA$GETIOP(IOP$)
     1918    25319    4                WHENALTRETURN DO;
     1919    25320
     1920    25321    4                     ERROR = ENO_IOP;
     1921    25322    4                     GOTO FINISHED;
     1922    25323    4                     END;
     1923    25324    3                END/*else do*/;
     1924    25325        /*E* ERROR: KNA-E$NO_IOP
     1925    25326             MESSAGE: No I/O packets available for this operation.
     1926    25327        */
     1927    25328
     1928    25329
     1929    25330    2           KN$IOP = '0'B;
     1930    25331    2           IOP$->KN$IOP.FLAGS.INUSE = '1'B;
     1931    25332    2           IOP$->KN$IOP.L.USER# = G$JIT.USR#;
     1932    25333        /*
     1933    25334          Link up the new I/O packet.  If this is the first one on the chain,
     1934    25335          also setup the pointer from APE session context.
     1935    25336                                                                                      */
     1936    25337    2           KNA$SSN.IOPRD$=IOP$;
     1937    25338
     1938    25339    2           KN$IOP.FLAGS.WAIT='1'B;
     1939    25340
     1940    25341    2           KN$IOP.DCB$=DCB$;
     1941    25342    2           CALL KNA$SAVEMAP (DCB$,KN$IOP.DCBSEGDES);
     1942    25343    2           KN$IOP.BUF_ = FPT_BUF$;
     1943    25344    2           CALL KNA$SAVEMAP(VBASE(KN$IOP.BUF_),KN$IOP.BUFSEGDES);
     1944    25345
     1945    25346        /*     Set up for sending a READ REQUEST for the data
     1946    25347        */
     1947    25348    2           K$RWPARM.STR = STR;
     1948    25349    2           K$RWPARM.MAXRCRBYTSIZ = MSGSIZE;
     1949    25350    2           K$RWPARM.MAXNMBRCR=1;
     1950    25351    2           K$RWPARM.MAXNMBBYT=6000;
PL6.E3A0      #003=KNA$USERIO File=KNA$APE.:E05TSI                               WED 07/30/97 00:58 Page:259
     1951    25352    2           IF USRFPT$ ~= ADDR(NIL)
     1952    25353    3           THEN DO;
     1953    25354    3                KN$IOP.FLAGS.WAIT = FPT_READ.V.WAIT;
     1954    25355    4                IF FPT_READ.V.READMLT THEN DO;
     1955    25356    4                     KN$IOP.FLAGS.READMLT = '1'B;
     1956    25357    4                     K$RWPARM.READMLT = '1'B;
     1957    25358    4                     K$RWPARM.MAXNMBBYT = K$RWPARM.MAXRCRBYTSIZ;
     1958    25359    4                     END;
     1959    25360    3                KN$IOP.EVENT = FPT_READ.V.EVENT;
     1960    25361    3                K$RWPARM.DVE.DVBYTE = FPT_READ.V.DVBYTE;
     1961    25362    3                K$RWPARM.KEYTYPE = FPT_READ.V.KEYTYPE;
     1962    25363    3                IF K$RWPARM.KEYTYPE = 0
     1963    25364    3                THEN K$RWPARM.KEYTYPE = MYDCB.KEYTYPE;
     1964    25365    3                IF FPT_READ.V.KEYS
     1965    25366    4                THEN DO;
     1966    25367    4                     K$RWPARM.KEY$ = KEY$;
     1967    25368    4                     K$RWPARM.KEYSZ = KEYSZ;
     1968    25369    4                     END;
     1969    25370    3                IF FPT_READ.V.KEYR
     1970    25371    4                THEN DO;
     1971    25372    4                     VBASE(KN$IOP.KEY_) = KEY$;
     1972    25373    4                     VBOUND(KN$IOP.KEY_) = KEYSZ - 1;
     1973    25374    4                     CALL KNA$SAVEMAP(VBASE(KN$IOP.KEY_),KN$IOP.KEYSEGDES);
     1974    25375    4                     KN$IOP.KEYTYPE = K$RWPARM.KEYTYPE;
     1975    25376    4                     END;
     1976    25377    3                ELSE KN$IOP.KEY_ = VECTOR(NIL);
     1977    25378    3                END;
     1978    25379
     1979    25380
     1980    25381    2           K$RWPARM.VDOFLGS.WAIT = KN$IOP.FLAGS.WAIT;
     1981    25382
     1982    25383    2           CALL KNA$FCNOU (%KV_VDO_FNC_RQSDAT,KNA$SSN,K$RWPARM,ERR)
     1983    25384    3           WHENALTRETURN DO;
     1984    25385    3                CALL KNA$RLSIOP(IOP$);
     1985    25386    3                KNA$SSN.IOPRD$ = ADDR(NIL);
     1986    25387    3                GOTO SSN_ERR;
     1987    25388    3                END;
PL6.E3A0      #003=KNA$USERIO File=KNA$APE.:E05TSI                               WED 07/30/97 00:58 Page:260
     1988    25389
     1989    25390
     1990    25391        /* Update the various read counters.
     1991    25392        */
     1992    25393    3           DO CASE(RESTYPE);
     1993    25394    3            CASE(%G_DDEV_RES_HO#);
     1994    25395    3              G$JIT.READS_HOST = G$JIT.READS_HOST +1;
     1995    25396    3              PS_LCP6STT.READS_HOST = PS_LCP6STT.READS_HOST +1;
     1996    25397    3            CASE(%G_DDEV_RES_UC#);
     1997    25398    3              G$JIT.READS_UC = G$JIT.READS_UC +1;
     1998    25399    3              PS_LCP6STT.READS_UC = PS_LCP6STT.READS_UC +1;
     1999    25400    3            CASE(%G_DDEV_RES_LG#);
     2000    25401    3              PS_LCP6STT.READS_LG = PS_LCP6STT.READS_LG +1;
     2001    25402    3            CASE(%G_DDEV_RES_NA#);
     2002    25403    3              PS_LCP6STT.READS_NA = PS_LCP6STT.READS_NA +1;
     2003    25404    3              END/*do case*/;
     2004    25405
     2005    25406        /* If this is a no wait I/O then return.
     2006    25407        */
     2007    25408    2           IF NOT KN$IOP.FLAGS.WAIT
     2008    25409    2           THEN GOTO FINISHED;
     2009    25410        /*     We sent off the message, now we just wait for the user to get
     2010    25411        his data delivered.
     2011    25412        */
     2012    25413    2           IF STR = KIDM_MON
     2013    25414    2             AND (USRFPT$ = ADDR(NIL) OR NOT FPT_READ.V.BRKABLE)
     2014    25415    2           THEN
     2015    25416    2                CALL KNA$REG_USER(%GH_EVCW,SSN$);
     2016    25417    2           ELSE
     2017    25418    2                CALL KNA$REG_USER(%GH_EVCRD,SSN$);
     2018    25419
     2019    25420    2           IF NOT KN$IOP.FLAGS.RDDONE      /* Read did not finish                */
     2020    25421    3           THEN DO;
     2021    25422    3                K$RWPARM.MAXNMBRCR = 0;
     2022    25423    3                IF NOT KNA$SSN.FLAGS.MRKPND AND NOT KNA$SSN.FLAGS.SSNERR
     2023    25424    3                THEN
     2024    25425    3                     CALL CANCEL_READ;
PL6.E3A0      #003=KNA$USERIO File=KNA$APE.:E05TSI                               WED 07/30/97 00:58 Page:261
     2025    25426    3                IF KN$IOP.FLAGS.RDDONE AND NOT G$MHJIT.CU$->G$U.ASYNCH & %U_ALIBFD
     2026    25427    3                THEN EXIT;
     2027    25428    3                IF KNA$SSN.FLAGS.SSNERR THEN KN$IOP.ERRCODE = KNA$SSN.ERROR;
     2028    25429    3                ELSE KN$IOP.ERRCODE = EBYD;
     2029    25430    3                IF STR ~= KIDM_MON
     2030    25431    3                THEN G$JIT.JUNK.BACKP$='1'B;
     2031    25432    3                END;
     2032    25433    2           IF KNA$SSN.FLAGS.MRKPND
     2033    25434    2           THEN
     2034    25435    2                CALL SEND_MARKER;
     2035    25436
     2036    25437    2           ERROR = KN$IOP.ERRCODE;
     2037    25438    2           IF PARMSPEC AND KNA_PARAMS.PTRS.PAR4$ ~= ADDR(NIL)
     2038    25439    2           THEN KNA_PARAMS.PTRS.PAR4$->VLP_CG.MSGTYP# = KN$IOP.MSGTYPE;
     2039    25440    2           KNA$SSN.IOPRD$=ADDR(NIL);
     2040    25441    2           CALL KNA$RLSIOP(IOP$);
     2041    25442    2           IF MYDCB.TYC.LD# = '1'B
     2042    25443    3           THEN DO;
     2043    25444
     2044    25445        /*E*     ERROR: KNA-E$LD
     2045    25446                 MESSAGE: The supplied buffer was too small
     2046    25447        */
     2047    25448    3                ERROR = ESHORT_BUFFER;
     2048    25449    3                END;
     2049    25450    2           END;
     2050    25451    1   FINISHED:;
     2051    25452           %UNLOCK (G=KNA_LNKSSN);
     2052    25459    1      IF ERROR ~= '0'B
     2053    25460    1      THEN
     2054    25461    1           ALTRETURN;
     2055    25462    1      RETURN;
     2056    25463
     2057    25464    1   CANCEL_READ: PROC ALTRET;
     2058    25465
     2059    25466    2      K$RWPARM.MRKTYP = %KV_VDOMRKTYP_ENDACK;
     2060    25467    2      CALL KNA$FCNOU (%KV_VDO_FNC_RQSDAT,KNA$SSN,K$RWPARM,ERR)
     2061    25468    3      WHENRETURN DO;
PL6.E3A0      #003=KNA$USERIO File=KNA$APE.:E05TSI                               WED 07/30/97 00:58 Page:262
     2062    25469    3           KNA$SSN.FLAGS.RRRPND = '1'B;
     2063    25470    4           CALL KNA$REG_USER(%GH_EVCW,SSN$) WHENALTRETURN DO;
     2064    25471    4                ALTRETURN;
     2065    25472    4                END;
     2066    25473    3           END;
     2067    25474
     2068    25475    2      RETURN;
     2069    25476    2   END CANCEL_READ;
     2070    25477
     2071    25478    1   SEND_MARKER: PROC;
     2072    25479
     2073    25480    2      K$RWPARM = KNA_RWPARM_CON;
     2074    25481    2      K$RWPARM.MRKTYP = %KV_VDOMRKTYP_MRK;
     2075    25482    2      K$RWPARM.MARKER = KNA$SSN.MARKER;
     2076    25483    2      CALL KNA$FCNOU(%KV_VDO_FNC_MRK,KNA$SSN,K$RWPARM,ERR);
     2077    25484    2      KNA$SSN.FLAGS.MRKPND = '0'B;
     2078    25485    2      RETURN;
     2079    25486    2   END SEND_MARKER;
     2080    25487    1   END KNA$USERIO;

PL6.E3A0      #003=KNA$USERIO File=KNA$APE.:E05TSI                               WED 07/30/97 00:58 Page:263
--  Include file information  --

   K$RWPARM.:E05TOU  is referenced.
   KV$VDO.:E05TOU  is referenced.
   GM_VIRTUAL_E.:E05TOU  is referenced.
   UD_ERRORS_C.:E05TOU  is referenced.
   F_ERRORS_C.:E05TOU  is referenced.
   G_LCP6_E.:E05TOU  is referenced.
   GF_LCP6_M.:E05TOU  is referenced.
   GU_MACROS_M.:E05TOU  is referenced.
   GU_LCP6_M.:E05TOU  is referenced.
   K_ID_E.:E05TOU  is referenced.
   KL_MACRO_C.:E05TOU  is referenced.
   P_FEP_M.:E05TOU  is referenced.
   K_SCODE_C.:E05TOU  is referenced.
   KN_DATA_M.:E05TOU  is referenced.
   GH_GATE_M.:E05TOU  cannot be made into a system file and is referenced.
   G_JIT_M.:E05TOU  is referenced.
   G_ROS_M.:E05TOU  is referenced.
   G_HJIT_M.:E05TOU  is referenced.
   GH_SCHD_M.:E05TOU  is referenced.
   GH_SCHD_E.:E05TOU  is referenced.
   GH_LCP6_M.:E05TOU  is referenced.
   KI_SUBS_C.:E05TOU  is referenced.
   KI_ERRORS_C.:E05TOU  is referenced.
   KN_ERRORS_C.:E05TOU  is referenced.
   KNA_MACRO_M.:E05TOU  is referenced.
      No diagnostics issued in procedure KNA$USERIO.

   Procedure KNA$USERIO requires 1782 words for executable code.
   Procedure KNA$USERIO requires 118 words of local(AUTO) storage.

    No errors detected in file KNA$APE.:E05TSI    .

PL6.E3A0      #003=KNA$USERIO File=KNA$APE.:E05TSI                               WED 07/30/97 00:58 Page:264

 Object Unit name= KNA$USERIO                                 File name= KNA$APE.:E05TOU
 UTS= JUL 30 '97 00:58:31.72 WED                              Compiler= PL-6/E31         Sev=      00
 SharedLib= :SHARED_LCP6_SYSTEM                               Alt SharedLib=


    ****  Control sections  ****

 Sect   Type Bound  Init  Size HexSiz  Section name
    0  RoData even  UTS     22     16  KNA$USERIO
    1   Proc  even  none  1782    6F6  KNA$USERIO
    2  RoData even  none     6      6  KNA$USERIO

    ****  Entry defs  ****

                              Check   Calling
                             calling  sequence
  Sect HexLoc Primary Altret sequence   type   Parms  Name
     1      0   yes    yes     yes      Std        4  KNA$USERIO
     1     3C          yes     yes      Std        4  KNA$READ
     1     47          yes     yes      Std        4  KNA$WRITE
     1     51          yes     yes      Std        4  KNA$WRITE_NOW
PL6.E3A0      #003=KNA$USERIO File=KNA$APE.:E05TSI                               WED 07/30/97 00:58 Page:265

  ****  Entry refs  ****

         Check        Calling
        calling       sequence
Altret sequence SRef   type   Args  Name
 yes     yes           Std       4 KNA$OPEN
 yes     yes           Std       1 GHH$LOCK
 yes     yes           Std       1 GHH$UNLOCK
 yes     yes           Std       4 KNA$FCNO
 yes     yes           Std       4 KNA$FCNOU
         yes           Std       7 GHS$EVENT
 yes     yes           Std       2 KNA$REG_USER
 yes     yes           Std       1 KNA$GETIOP
         yes           Std       2 KNA$SAVEMAP
 yes     yes           Std       1 KNA$RLSIOP
                       nStd      0 X6A_AUTO_N
                       nStd      0 X6A_AALT
                       nStd      0 X6A_ARET

  ****  Data refs  ****

  Flags:  r = read only, s = secondary
Flgs Name                             Flgs Name                             Flgs Name
r    G$JIT$                                G$ROS$                                G$UHJIT$
     G$MHJIT$                              G$ASDT_MCL$                           KNA_LNKSSN
     KNA_RWPARM_CON                        PS_LCP6STT                       r    G$ROS$
PL6.E3A0      #003=KNA$USERIO File=KNA$APE.:E05TSI                               WED 07/30/97 00:58 Page:266


     1342        1        /*T***********************************************************/
     1343        2        /*T*                                                         */
     1344        3        /*T* Copyright (c) Bull HN Information Systems Inc., 1997    */
     1345        4        /*T*                                                         */
     1346        5        /*T***********************************************************/
     1347        6        /*F*
     1348        7           NAME: KNA$USERIO
     1349        8           PURPOSE:
     1350        9                  This routine handles M$READ/WRITE on behalf of network
     1351       10             connections.
     1352       11           DESCRIPTION:
     1353       12                  This routine takes an application program's M$READ or M$WRITE
     1354       13             and does the proper Presentation Protocol.  A message specifying
     1355       14             a request for data (M$READ) or the data itself (M$WRITE) is sent
     1356       15             via a connection established with the monitor Session layer.
     1357       16        */
     1358       17        /*D*
     1359       18           NAME: KNA$USERIO
     1360       19             This routine handles M$READ/WRITE on behalf of the user.
     1361       20
     1362       21           ENTRY: KNA$READ
     1363       22             Provides an internal interface for the monitor to issue M$READ.
     1364       23
     1365       24           ENTRY: KNA$WRITE
     1366       25             Provides an internal interface for the monitor to issue M$WRITE.
     1367       26
     1368       27           ENTRY: KNA$WRITE_NOW
     1369       28             Provides an internal interface for the monitor to issue M$WRITE
     1370       29             which doesn't do flow control.
     1371       30
     1372       31           CALL:  CALL KNA$routine(DCBNUMBER,UBUF$,ERROR,KNA_PARAMS) ALTRET;
     1373       32
     1374       33                  This routine altreturns if an error is encountered.
     1375       34           PARAMETERS:
     1376       35                  DCBNUMBER - DCB number for the DCB on the M$READ/WRITE
     1377       36                  UBUF$ - User buffer address pulled from the FPT
PL6.E3A0      #003=KNA$USERIO File=KNA$APE.:E05TSI                               WED 07/30/97 00:58 Page:267
     1378       37                  ERROR - Error code to be returned
     1379       38                  KNA_PARAMS - Structure passed by GFM$MCL for MCL info.
     1380       39                               This parameter is only used by KNA$USERIO.
     1381       40           INTERFACE:
     1382       41                  KNS$SESSION - To send messages on the network
     1383       42                  KNA$GETIOP - To get an I/O packet
     1384       43                  KNA$RLSIOP - To release an I/O packet
     1385       44                  GHS$REGUSER - REG a user on wait I/O situations
     1386       45                  KNA$OPEN - For a default OPEN on the passed DCB
     1387       46           ENVIRONMENT:
     1388       47             The KNA$USERIO routine is called from GFM$MCL, the MCL handler for
     1389       48             file management MCLs.  All the FPT parameters are available to
     1390       49             us in a structure.
     1391       50
     1392       51             The other entry points are called from any where in the monitor running
     1393       52             on behalf of a REGable user.  The DCB passed must be set up the
     1394       53             way that the monitor wishes.  The current use of these routines
     1395       54             is by job step to downline load fprgs and report an fprg
     1396       55             exit/abort condition.
     1397       56
     1398       57           DESCRIPTION:
     1399       58                  Entry from GFM$MCL results in all the user's FPT information
     1400       59             being stored away in AUTO.  Next (or if entry was not from GFM$MCL)
     1401       60             the DCB number passed is validated and a check is made to see if
     1402       61             we have to do a default OPEN.  The user's parameters are checked
     1403       62             to see if we have everything we need to do this operation, such
     1404       63             as keys, buffer, etc.  If this check succeeds then we do either
     1405       64             a READ or a WRITE.
     1406       65
     1407       66                  A WRITE operation causes us to make sure that the other
     1408       67             end of the network connection has given us throttling information
     1409       68             to allow us to send him the specified data.  If not, the user is
     1410       69             REGged until such time as that is the case.  The user's data is
     1411       70             merely passed along via a call to KNS$SESSION if we already have
     1412       71             enough throttling permission to send the data.
     1413       72
     1414       73                  A WRITENOW operation doesn't do flow control and causes a
PL6.E3A0      #003=KNA$USERIO File=KNA$APE.:E05TSI                               WED 07/30/97 00:58 Page:268
     1415       74             Presentation function code to be put on the message which
     1416       75             directs this message to the other monitor (host).
     1417       76
     1418       77                  A READ operation causes the allocation of an IO packet for
     1419       78             keeping track of the user's buffer.  A message is sent via
     1420       79             Session to tell the guy at the other end of the network connection
     1421       80             that he can send some stuff over.  After this message is sent the
     1422       81             user is REGged until his data arrives.
     1423       82        */
     1424       83        %EJECT;
PL6.E3A0      #003=KNA$USERIO File=KNA$APE.:E05TSI                               WED 07/30/97 00:58 Page:269
     1425       84        KNA$USERIO: PROC(DCBNUMBER,UBUF$,ERROR,KNA_PARAMS) ALTRET;

     84   1 000000  D380 0000 0000  xent KNA$USERIO      LNJ,B5   X6A_AUTO_N
          1 000003       0076 0004                       DC       118,4

     1426       85        %INCLUDE KNA_MACRO_M;
     1427      161        %INCLUDE KN_ERRORS_C;
     1428      225        %INCLUDE KI_ERRORS_C;
     1429      310        %INCLUDE KI_SUBS_C;
     1430      446        %INCLUDE GH_LCP6_M;
     1431     1280        %INCLUDE GH_SCHD_E;
     1432     1376        %INCLUDE GH_SCHD_M;
     1433     1520        %INCLUDE G_HJIT_M;
     1434     1665        %INCLUDE G_ROS_M;
     1435     1747        %INCLUDE G_JIT_M;
     1436     2012        %INCLUDE GH_GATE_M;
     1437     2053        %INCLUDE KN_DATA_M;
     1438     3839        %INCLUDE K_SCODE_C;
     1439     3924        %INCLUDE P_FEP_M;
     1440     4362        %INCLUDE KL_MACRO_C;
     1441     7714        %INCLUDE K_ID_E;
     1442     7764        %K#ENTID_E;
     1443     7783        %INCLUDE GU_LCP6_M;
     1444     8711        %INCLUDE GU_MACROS_M;
     1445     8870        %INCLUDE GF_LCP6_M;
     1446     9338        %INCLUDE G_LCP6_E;
     1447     9596        %GF_MCL_E;                              /* Get the MCL EQUs                   */
     1448     9606        %INCLUDE F_ERRORS_C;
     1449     9846        %INCLUDE UD_ERRORS_C;
     1450     9888        %INCLUDE GM_VIRTUAL_E;
     1451    10098        %INCLUDE KV$VDO;
     1452    11113        %INCLUDE K$RWPARM;
     1453    11499        /* We involke this so the VDH macros work */
     1454    11500        %KV_VDO_ALL_E;
     1455    11579
     1456    11580        /*     Parameters
     1457    11581        */
PL6.E3A0      #003=KNA$USERIO File=KNA$APE.:E05TSI                               WED 07/30/97 00:58 Page:270
     1458    11582    1   DCL DCBNUMBER UBIN;
     1459    11583    1   DCL UBUF$ VECTOR;
     1460    11584        %VLP_ERRCODE (FPTN=ERROR,STCLASS="");
     1461    11630        %GUD_HAND_PARAMS (FPTN=KNA_PARAMS,STCLASS="");
     1462    11706
     1463    11707        /*     Static storage
     1464    11708        */
     1465    11709        %VLP_ERRCODE (STCLASS=CONSTANT, FCG=KN, MID=A, MON='1'B,
     1466    11710                      FPTN=ENWIO, ERR#=%E$NWIO, SEV=G_SEV_ERROR#);
     1467    11756        %VLP_ERRCODE (STCLASS=CONSTANT, FCG=KN, MID=A, MON='1'B,
     1468    11757                      FPTN=EDCBNUM, ERR#=%E$BADDCB#, SEV=G_SEV_ERROR#);
     1469    11803        %VLP_ERRCODE (STCLASS=CONSTANT, FCG=KN, MID=A, MON='1'B,
     1470    11804                      FPTN=EBADBUF, ERR#=%E$BADVECT2, SEV=G_SEV_ERROR#);
     1471    11850        %VLP_ERRCODE (STCLASS=CONSTANT, FCG=KN, MID=A, MON='1'B,
     1472    11851                      FPTN=ENO_IOP, ERR#=%E$NO_IOP, SEV=G_SEV_ERROR#);
     1473    11897        %VLP_ERRCODE (STCLASS=CONSTANT, FCG=KN, MID=A, MON='1'B,
     1474    11898                      FPTN=ESHORT_BUFFER, ERR#=%E$LD, SEV=G_SEV_CONT#);
     1475    11944        %VLP_ERRCODE (STCLASS=CONSTANT, FCG=KN, MID=A, MON='1'B,
     1476    11945                      FPTN=ENO_DAT, ERR#=%E$NODAT, SEV=G_SEV_CONT#);
     1477    11991        %VLP_ERRCODE (STCLASS=CONSTANT, FCG=KN, MID=A, MON='1'B,
     1478    11992                      FPTN=EBYD, ERR#=%E$BYD, SEV=G_SEV_CONT#);
     1479    12038        %VLP_ERRCODE (STCLASS=CONSTANT, FCG=KN, MID=A, MON='1'B,
     1480    12039                      FPTN=ELDSC, ERR#=%E$LDSC, SEV=G_SEV_ABORT#);
     1481    12085        %VLP_ERRCODE (STCLASS=CONSTANT, FCG=KN, MID=A, MON='1'B,
     1482    12086                      FPTN=EXTRA_READ, ERR#=%E$XTRARD, SEV=G_SEV_CONT#);
     1483    12132        %VLP_SCODE (FPTN=SC_IOP,ERR#=%S$IOP,SEV=G_SEV_SCREECH#,
     1484    12133                    STCLASS=CONSTANT,FCG=KN,MID=A,MON='1'B);
     1485    12194
     1486    12195        /*     AUTO storage
     1487    12196        */
     1488    12197    1   DCL MSGSIZE UBIN;
     1489    12198    1   DCL RESTYPE UBIN;
     1490    12199    1   DCL STR UBIN;                           /* Stream number                      */
     1491    12200    1   DCL PARMSPEC BIT(1);
     1492    12201    1   DCL USRFPT$ PTR;
     1493    12202    1   DCL KEY$ PTR;
     1494    12203    1   DCL KEYSZ UBIN;
PL6.E3A0      #003=KNA$USERIO File=KNA$APE.:E05TSI                               WED 07/30/97 00:58 Page:271
     1495    12204    1   DCL LSTIOP$ PTR;
     1496    12205    1   DCL FPT_BUF$ VECTOR;
     1497    12206    1   DCL FPT_CODE UBIN;
     1498    12207    1   DCL DCB$ PTR;
     1499    12208    1   DCL SSN$ PTR;
     1500    12209    1   DCL IOP$ PTR;
     1501    12210    1   DCL ASDT_INDEX UBIN;
     1502    12211    1   DCL EVENT UBIN;
     1503    12212    1   DCL 1 TEMP,
     1504    12213    1         2 BYTE_OFF    BIT(1),
     1505    12214    1         2 *           BIT(11),
     1506    12215    1         2 V_WRD_ADDR  UBIN(20) UNAL;
     1507    12216    1   DCL TEMP_CPTR REDEF TEMP CPTR;
     1508    12217    1   DCL VA_ADDR UBIN(32);
     1509    12218    1   DCL FLOW_CONTROL BIT(1);
     1510    12219        %K$RWPARM (NAME=K$RWPARM,STCLASS=AUTO);
     1511    12535        %G$NWIO (FPTN=NWIO,STCLASS=AUTO,PARONLY=1);
     1512    12564    1   DCL ERR UBIN;
     1513    12565    1   DCL TCB_ERR BIT(32);
     1514    12566    1   DCL I SBIN;
     1515    12567    1   DCL FCN UBIN;
     1516    12568    1   DCL ROUTINE EPTR;
     1517    12569        %EJECT;
PL6.E3A0      #003=KNA$USERIO File=KNA$APE.:E05TSI                               WED 07/30/97 00:58 Page:272
     1518    12570
     1519    12571        /*     BASED
     1520    12572        */
     1521    12573        %G$JIT (STCLASS="BASED(G$JIT$)");
     1522    12987        %M$DCB (DCBN=MYDCB,STCLASS="BASED(DCB$)");
     1523    13038        %G$ROS (FPTN=G$ROS,STCLASS="BASED(G$ROS$)");
     1524    13082        %G$UHJIT (FPTN=G$UHJIT,STCLASS="BASED(G$UHJIT$)");
     1525    16056        %G$MHJIT (FPTN=G$MHJIT,STCLASS="BASED(G$MHJIT$)");
     1526    22930        %G$ECCB(STCLASS=BASED);
     1527    23006        %KNA$SSN (FPTN=KNA$SSN,STCLASS="BASED(SSN$)");
     1528    23089        %G$USER (FPTN=G$U,STCLASS=BASED);
     1529    23100        %G$ASDT;
     1530    23129        %G$DCBTABLE;
     1531    23140        %KN$IOP (NAME=KN$IOP,STCLASS="BASED(IOP$)");
     1532    23313        %G$ASDT_MCL (STCLASS="BASED(G$ASDT_MCL$)");
     1533    24007        %FPT_READ(VECTORS=NO,STCLASS="BASED(USRFPT$)");
     1534    24033        %FPT_WRITE(VECTORS=NO,STCLASS="BASED(USRFPT$)");
     1535    24057    1   DCL B$WORD UBIN BASED ALIGNED;
     1536    24058        %VLP_CG (STCLASS=BASED);
     1537    24078    1   DCL VFC CHAR(1) BASED UNAL;
     1538    24079
     1539    24080        /*     Useful External Pointers and Symrefs
     1540    24081        */
     1541    24082    1   DCL G$JIT$ PTR SYMREF READONLY;
     1542    24083    1   DCL G$ROS$ PTR SYMREF;
     1543    24084    1   DCL G$UHJIT$ PTR SYMREF;
     1544    24085    1   DCL G$MHJIT$ PTR SYMREF;
     1545    24086    1   DCL G$ASDT_MCL$ PTR SYMREF;
     1546    24087        %GATE(FPTN=KNA_LNKIOP,STCLASS=SYMREF);
     1547    24106        %GATE (FPTN=KNA_LNKSSN,STCLASS=SYMREF);
     1548    24125        %K$RWPARM (NAME=KNA_RWPARM_CON,STCLASS=SYMREF);
     1549    24441        %PS_LCP6STT (STCLASS=SYMREF);
     1550    24945
     1551    24946        /*     ENTRY definitions
     1552    24947        */
     1553    24948    1   DCL SCREECH ENTRY(1);
     1554    24949    1   DCL GHS$EVENT ENTRY(7);
PL6.E3A0      #003=KNA$USERIO File=KNA$APE.:E05TSI                               WED 07/30/97 00:58 Page:273
     1555    24950    1   DCL KNA$FCNOU ENTRY(4) ALTRET;
     1556    24951    1   DCL KNA$FCNO ENTRY(4) ALTRET;
     1557    24952    1   DCL KNA$OPEN ENTRY(4) ALTRET;
     1558    24953    1   DCL KNA$GETIOP ENTRY(1) ALTRET;
     1559    24954    1   DCL KNA$RLSIOP ENTRY(1) ALTRET;
     1560    24955    1   DCL KNA$REG_USER ENTRY(2) ALTRET;
     1561    24956    1   DCL KNA$SAVEMAP ENTRY(2);
     1562    24957        %EJECT;
PL6.E3A0      #003=KNA$USERIO File=KNA$APE.:E05TSI                               WED 07/30/97 00:58 Page:274
     1563    24958        /*
     1564    24959               This is where the procedure KNA$USERIO begins.  Parameters from
     1565    24960        the FPT are merely moved into local storage and then we go off to the
     1566    24961        mainline code.
     1567    24962        */
     1568    24963    1      VBASE(FPT_BUF$) = KNA_PARAMS.CPTRS.PAR3$;

  24963   1 000005  ECC7 000A                            LDB,B6   @KNA_PARAMS,AUTO
          1 000007  8CC6 000A                            LDI      10,B6
          1 000009  8D47 0018                            SDI      FPT_BUF$+1,AUTO

     1569    24964    1      VBOUND(FPT_BUF$) = KNA_PARAMS.BND.PAR3;

  24964   1 00000B  D846 0028                            LDR,R5   40,B6
          1 00000D  DF47 0017                            STR,R5   FPT_BUF$,AUTO

     1570    24965    1      KEY$ = KNA_PARAMS.PTRS.PAR2$;

  24965   1 00000F  DCC6 0008                            LDB,B5   8,B6
          1 000011  DFC7 0012                            STB,B5   KEY$,AUTO

     1571    24966    1      KEYSZ = KNA_PARAMS.BND.PAR2 + 1;

  24966   1 000013  C846 0027                            LDR,R4   39,B6
          1 000015  4E01                                 ADV,R4   1
          1 000016  CF47 0014                            STR,R4   KEYSZ,AUTO

     1572    24967    1      FPT_CODE = KNA_PARAMS.MCL.CODE;

  24967   1 000018  B806                                 LDR,R3   ,B6
          1 000019  B570 03FF                            AND,R3   1023,IMO
          1 00001B  BF47 001A                            STR,R3   FPT_CODE,AUTO

     1573    24968    1      USRFPT$=KNA_PARAMS.PTRS.PAR1$;

  24968   1 00001D  CCC6 0006                            LDB,B4   6,B6
          1 00001F  CFC7 0010                            STB,B4   USRFPT$,AUTO
PL6.E3A0      #003=KNA$USERIO File=KNA$APE.:E05TSI                               WED 07/30/97 00:58 Page:275

     1574    24969    1      PARMSPEC = '1'B;

  24969   1 000021  8947 000F                            LBT,'8000'X       PARMSPEC,AUTO
  24969   1 000023       8000

     1575    24970    1      FLOW_CONTROL = '1'B;

  24970   1 000024  8947 0027                            LBT,'8000'X       FLOW_CONTROL,AUTO
  24970   1 000026       8000

     1576    24971
     1577    24972    1      IF G$UHJIT.DMN.ID = %G_DMN_DB# OR G$UHJIT.DMN.ID = %G_DMN_DB_SVC#

  24972   1 000027  BC80 0000 0000  xsym                 LDB,B3   G$UHJIT$
          1 00002A  A843 007E                            LDR,R2   126,B3
          1 00002C  2D05                                 CMV,R2   5
          1 00002D  0901 0004                            BE       s:24973,PREL
          1 00002F  2D01                                 CMV,R2   1
          1 000030  0981 0006                            BNE      s:24974,PREL

     1578    24973    1      THEN STR = KIDM_DB;

  24973   1 000032  1C03                                 LDV,R1   3
          1 000033  9F47 000E                            STR,R1   STR,AUTO
          1 000035  0F81 0004                            B        s:24976,PREL

     1579    24974    1      ELSE STR = KIDM_USER;

  24974   1 000037  1C02                                 LDV,R1   2
          1 000038  9F47 000E                            STR,R1   STR,AUTO

     1580    24975
     1581    24976    1      GOTO MAINSTREAM;

  24976   1 00003A  0F81 003A                            B        s:25005,PREL

PL6.E3A0      #003=KNA$USERIO File=KNA$APE.:E05TSI                               WED 07/30/97 00:58 Page:276
     1582    24977
     1583    24978    1   KNA$READ: ENTRY (DCBNUMBER,UBUF$,ERROR,KNA_PARAMS) ALTRET;

  24978   1 00003C  D380 0000 0000  xent KNA$READ        LNJ,B5   X6A_AUTO_N
          1 00003F       0076 0004                       DC       118,4

     1584    24979    1      FPT_CODE = %G_MCL_READ#;

  24979   1 000041  E870 0142                            LDR,R6   322,IMO
          1 000043  EF47 001A                            STR,R6   FPT_CODE,AUTO

     1585    24980    1      GOTO SETUP_MON;

  24980   1 000045  0F81 0016                            B        s:24991,PREL

     1586    24981
     1587    24982    1   KNA$WRITE: ENTRY (DCBNUMBER,UBUF$,ERROR,KNA_PARAMS) ALTRET;

  24982   1 000047  D380 0000 0000  xent KNA$WRITE       LNJ,B5   X6A_AUTO_N
          1 00004A       0076 0004                       DC       118,4

     1588    24983    1      FLOW_CONTROL = '1'B;

  24983   1 00004C  8947 0027                            LBT,'8000'X       FLOW_CONTROL,AUTO
  24983   1 00004E       8000

     1589    24984    1      GOTO SETUP_MON_WRITE;

  24984   1 00004F  0F81 0008                            B        s:24988,PREL

     1590    24985
     1591    24986    1   KNA$WRITE_NOW: ENTRY (DCBNUMBER,UBUF$,ERROR,KNA_PARAMS) ALTRET;

  24986   1 000051  D380 0000 0000  xent KNA$WRITE_NOW   LNJ,B5   X6A_AUTO_N
          1 000054       0076 0004                       DC       118,4

     1592    24987
PL6.E3A0      #003=KNA$USERIO File=KNA$APE.:E05TSI                               WED 07/30/97 00:58 Page:277
     1593    24988    1      FLOW_CONTROL = '0'B;

  24988   1 000056  8747 0027                            CL       FLOW_CONTROL,AUTO

  24988   1                              SETUP_MON_WRITE null
     1594    24989
     1595    24990    1   SETUP_MON_WRITE: ;
     1596    24991    1      FPT_CODE = %G_MCL_WRITE#;

  24991   1 000058  E870 0143            SETUP_MON_WRITE LDR,R6   323,IMO
          1 00005A  EF47 001A                            STR,R6   FPT_CODE,AUTO

  24991   1                              SETUP_MON       null
     1597    24992
     1598    24993    1   SETUP_MON: ;
     1599    24994    1      FPT_BUF$ = UBUF$;

  24994   1 00005C  ACC7 0006            SETUP_MON       LDB,B2   @UBUF$,AUTO
          1 00005E  2C00                                 LDV,R2   0
          1 00005F  6C06                                 LDV,R6   6
          1 000060  BB87                                 LAB,B3   ,AUTO
          1 000061  3C2E                                 LDV,R3   46
          1 000062  0008                                 MMM

     1600    24995    1      USRFPT$=ADDR(KNA_PARAMS);

  24995   1 000063  ECC7 000A                            LDB,B6   @KNA_PARAMS,AUTO
          1 000065  EFC7 0010                            STB,B6   USRFPT$,AUTO

     1601    24996    1      PARMSPEC = '0'B;

  24996   1 000067  8747 000F                            CL       PARMSPEC,AUTO

     1602    24997    1      STR = KIDM_MON;

  24997   1 000069  6C7F                                 LDV,R6   127
          1 00006A  EF47 000E                            STR,R6   STR,AUTO
PL6.E3A0      #003=KNA$USERIO File=KNA$APE.:E05TSI                               WED 07/30/97 00:58 Page:278

     1603    24998    1      KEY$ = ADDR(NIL);

  24998   1 00006C  DB80 0000 0000                       LAB,B5   0
          1 00006F  DFC7 0012                            STB,B5   KEY$,AUTO

     1604    24999    1      KEYSZ = 0;

  24999   1 000071  8747 0014                            CL       KEYSZ,AUTO

     1605    25000    1      GOTO MAINSTREAM;

  25000   1 000073  0F81 0001                            B        s:25005,PREL

     1606    25001
     1607    25002        /* Now we must do some validity checks.
     1608    25003        */
     1609    25004    1   MAINSTREAM:
     1610    25005    1      ERROR = '0'B;

  25005   1 000075  CCC7 0008            MAINSTREAM      LDB,B4   @ERROR,AUTO
          1 000077  8704                                 CL       ,B4
          1 000078  8744 0001                            CL       1,B4

     1611    25006    1      IF DCBNUMBER > G$ROS.NUMDCBS OR DCBNUMBER = 0

  25006   1 00007A  BCC7 0004                            LDB,B3   @DCBNUMBER,AUTO
          1 00007C  AC80 0000 0000  xsym                 LDB,B2   G$ROS$
          1 00007F  E803                                 LDR,R6   ,B3
          1 000080  E942 0014                            CMR,R6   20,B2
          1 000082  0301 0003                            BG       s:25008,PREL
          1 000084  6981 0008                            BNEZ,R6  s:25015,PREL

     1612    25007    2      THEN DO;

     1613    25008    2           ERROR = EDCBNUM;

PL6.E3A0      #003=KNA$USERIO File=KNA$APE.:E05TSI                               WED 07/30/97 00:58 Page:279
  25008   1 000086  8C80 0000 0002  00                   LDI      EDCBNUM
          1 000089  8D04                                 SDI      ,B4

     1614    25009    2           ALTRETURN;

  25009   1 00008A  C380 0000 0000  xent                 LNJ,B4   X6A_AALT

     1615    25010    2           END;
     1616    25011        /*E* ERROR: KNA-E$BADDCB#
     1617    25012             MESSAGE: An invalid DCB has been passed
     1618    25013        */
     1619    25014
     1620    25015    1      IF USRFPT$~=ADDR(NIL) AND FPT_CODE=%G_MCL_READ#

  25015   1 00008D  8DC7 0010                            CMN      USRFPT$,AUTO
          1 00008F  0901 001D                            BE       s:25041,PREL
          1 000091  D847 001A                            LDR,R5   FPT_CODE,AUTO
          1 000093  D970 0142                            CMR,R5   322,IMO
          1 000095  0981 0017                            BNE      s:25041,PREL

     1621    25016    1      THEN
     1622    25017    1           IF VBASE(FPT_BUF$)=ADDR(NIL)

  25017   1 000097  8DC7 0018                            CMN      FPT_BUF$+1,AUTO
          1 000099  0901 000C                            BE       s:25020,PREL
          1 00009B  9CC7 0010                            LDB,B1   USRFPT$,AUTO
          1 00009D  8281                                 LB,'0004'X        ,B1
          1 00009E       0004
          1 00009F  0581 000D                            BBF      s:25041,PREL
          1 0000A1  C847 0017                            LDR,R4   FPT_BUF$,AUTO
          1 0000A3  4D7F                                 CMV,R4   127
          1 0000A4  0281 0008                            BGE      s:25041,PREL

     1623    25018    1             OR FPT_READ.V.READMLT AND VBOUND(FPT_BUF$)<127
     1624    25019    2           THEN DO;

     1625    25020    2                ERROR = EBADBUF;
PL6.E3A0      #003=KNA$USERIO File=KNA$APE.:E05TSI                               WED 07/30/97 00:58 Page:280

  25020   1 0000A6  8C80 0000 0004  00                   LDI      EBADBUF
          1 0000A9  8D04                                 SDI      ,B4

     1626    25021    2                ALTRETURN;

  25021   1 0000AA  C380 0000 0000  xent                 LNJ,B4   X6A_AALT

     1627    25022    2                END;
     1628    25023        /*E* ERROR: KNA-E$BADVECT2
     1629    25024             MESSAGE: An invalid buffer vector was specified
     1630    25025             MESSAGE1: M$READ specified BUF=NIL
     1631    25026                       or M$READ with READMLT specified BUF < 256 bytes.
     1632    25027        */
     1633    25028
     1634    25029        /*N*  READ/WRITE - Many more validity checks need to be made depending
     1635    25030        upon options in the DCB.  Also many more things will be passed on the
     1636    25031        FPT.  A good way of resolving the flavor of DCB we have and the validity
     1637    25032        of things passed on READ/WRITE FPTs (for instance, no buffer vector
     1638    25033        could actually be legal) has yet to be resolved.  A better understanding
     1639    25034        of what ORGS vs. ACCESSes vs. ASNs vs. FPT parameters needed by the
     1640    25035        users has to be developed first.
     1641    25036        */
     1642    25037
     1643    25038        /*     If the DCB passed to us is not OPEN then we will attempt a
     1644    25039        default OPEN.
     1645    25040        */
     1646    25041    1      DCB$ = G$ROS.DCBPTR$ -> G$DCBTABLE(DCBNUMBER);

  25041   1 0000AD  9C82                                 LDB,B1   ,B2
          1 0000AE  B856                                 LDR,R3   R6
          1 0000AF  ECB1                                 LDB,B6   ,B1,R3
          1 0000B0  EFC7 001B                            STB,B6   DCB$,AUTO

     1647    25042    1      IF MYDCB.FCD = '0'B

  25042   1 0000B2  82C6 001F                            LB,'4000'X        31,B6
PL6.E3A0      #003=KNA$USERIO File=KNA$APE.:E05TSI                               WED 07/30/97 00:58 Page:281
  25042   1 0000B4       4000
          1 0000B5  0501 0021                            BBT      s:25057,PREL

     1648    25043    2      THEN DO;

     1649    25044    2           MYDCB.ORG = %G_ORG_CONSEC#;

  25044   1 0000B7  5C01                                 LDV,R5   1
          1 0000B8  DAC6 001F                            SRM,R5,'00FF'X    31,B6
          1 0000BA       00FF

     1650    25045    2           CALL KNA$OPEN(DCBNUMBER,ERROR) ALTRET(CANT_OPEN);

  25045   1 0000BB  CFC7 006C                            STB,B4   ROUTINE+6,AUTO
          1 0000BD  BFC7 006A                            STB,B3   ROUTINE+4,AUTO
          1 0000BF  BBC7 006A                            LAB,B3   ROUTINE+4,AUTO
          1 0000C1  CBF0 0200                            LAB,B4   512,IMO
          1 0000C3  E380 0000 0000  xent                 LNJ,B6   KNA$OPEN
          1 0000C6       000E                            DC       s:25047,PREL

     1651    25046    2           IF ERROR ~= '0'B

  25046   1 0000C7  ECC7 0008                            LDB,B6   @ERROR,AUTO
          1 0000C9  DB80 0000 0000  02                   LAB,B5   0
          1 0000CC  5C01                                 LDV,R5   1
          1 0000CD  0022                                 ACM      ;
          1 0000CE       4406 0000                                ALPHANUM(0,B6,,4,FILL),;
          1 0000D0       4005 0000                                ALPHANUM(0,B5,,R5,FILL)
          1 0000D2  5381 0004                            CBE      s:25057,PREL

     1652    25047    3           THEN DO;

     1653    25048    3   CANT_OPEN:   ALTRETURN;

  25048   1 0000D4  C380 0000 0000  xent CANT_OPEN       LNJ,B4   X6A_AALT

     1654    25049    3                END;
PL6.E3A0      #003=KNA$USERIO File=KNA$APE.:E05TSI                               WED 07/30/97 00:58 Page:282
     1655    25050    2           END;
     1656    25051         %EJECT;
PL6.E3A0      #003=KNA$USERIO File=KNA$APE.:E05TSI                               WED 07/30/97 00:58 Page:283
     1657    25052           %LOCK (G=KNA_LNKSSN);

  25057   1 0000D7  BB80 0000 0001  02                   LAB,B3   +1
          1 0000DA  CBF0 0100                            LAB,B4   256,IMO
          1 0000DC  E380 0000 0000  xent                 LNJ,B6   GHH$LOCK
          1 0000DF       0001                            DC       s:25059,PREL

     1658    25059    1      SSN$ = MYDCB.SSN$;

  25059   1 0000E0  ECC7 001B                            LDB,B6   DCB$,AUTO
          1 0000E2  DCC6 0030                            LDB,B5   48,B6
          1 0000E4  DFC7 001D                            STB,B5   SSN$,AUTO

     1659    25060
     1660    25061    1      IF KNA$SSN.FLAGS.MRKPND

  25061   1 0000E6  8285                                 LB,'0080'X        ,B5
  25061   1 0000E7       0080
          1 0000E8  0581 0004                            BBF      s:25065,PREL

     1661    25062    1      THEN
     1662    25063    1           CALL SEND_MARKER;

  25063   1 0000EA  E3C0 05DA                            LNJ,B6   s:0,PREL
          1 0000EC       0001                            DC       s:25065,PREL

     1663    25064
     1664    25065    1      IF KNA$SSN.STATE ~= %KNA_STATE_ACTIVE#

  25065   1 0000ED  ECC7 001D                            LDB,B6   SSN$,AUTO
          1 0000EF  E846 0013                            LDR,R6   19,B6
          1 0000F1  6D03                                 CMV,R6   3
          1 0000F2  0901 0009                            BE       s:25075,PREL

     1665    25066    2      THEN DO;

     1666    25067    2           ERROR = ELDSC;
PL6.E3A0      #003=KNA$USERIO File=KNA$APE.:E05TSI                               WED 07/30/97 00:58 Page:284

  25067   1 0000F4  8C80 0000 000E  00                   LDI      ELDSC
          1 0000F7  DCC7 0008                            LDB,B5   @ERROR,AUTO
          1 0000F9  8D05                                 SDI      ,B5

     1667    25068    2           GOTO FINISHED;

  25068   1 0000FA  0F81 0573                            B        s:25450,PREL

     1668    25069    2           END;
     1669    25070        /*E* ERROR: KNA-%E$LDSC
     1670    25071             MESSAGE: Disconnect received from endpoint.
     1671    25072             MESSAGE1: The other endpoint is disconnecting.
     1672    25073        */
     1673    25074
     1674    25075    1      MYDCB.TYC = '0'B;

  25075   1 0000FC  DCC7 001B                            LDB,B5   DCB$,AUTO
          1 0000FE  8745 0001                            CL       1,B5

     1675    25076    1      IF STR = KIDM_USER

  25076   1 000100  E847 000E                            LDR,R6   STR,AUTO
          1 000102  6D02                                 CMV,R6   2
          1 000103  0981 0009                            BNE      s:25079,PREL

     1676    25077    1      THEN STR = MYDCB.STRM;

  25077   1 000105  ECC7 001B                            LDB,B6   DCB$,AUTO
          1 000107  E846 0002                            LDR,R6   2,B6
          1 000109  E570 00FF                            AND,R6   255,IMO
          1 00010B  EF47 000E                            STR,R6   STR,AUTO

     1677    25078
     1678    25079    1      K$RWPARM = KNA_RWPARM_CON;

  25079   1 00010D  AB80 0000 0000  xsym                 LAB,B2   KNA_RWPARM_CON
PL6.E3A0      #003=KNA$USERIO File=KNA$APE.:E05TSI                               WED 07/30/97 00:58 Page:285
          1 000110  2C00                                 LDV,R2   0
          1 000111  6C52                                 LDV,R6   82
          1 000112  BB87                                 LAB,B3   ,AUTO
          1 000113  3C50                                 LDV,R3   80
          1 000114  0008                                 MMM

     1679    25080
     1680    25081    1      IF PARMSPEC AND KNA_PARAMS.PTRS.PAR4$ ~= ADDR(NIL)

  25081   1 000115  89C7 000F                            CMZ      PARMSPEC,AUTO
          1 000117  0881 001D                            BAGE     s:25091,PREL
          1 000119  ECC7 000A                            LDB,B6   @KNA_PARAMS,AUTO
          1 00011B  8DC6 000C                            CMN      12,B6
          1 00011D  0901 0017                            BE       s:25091,PREL

     1681    25082    2      THEN DO;

     1682    25083    2           K$RWPARM.STATION = KNA_PARAMS.PTRS.PAR4$->VLP_CG.STATION#;

  25083   1 00011F  DCC6 000C                            LDB,B5   12,B6
          1 000121  AB85                                 LAB,B2   ,B5
          1 000122  2C00                                 LDV,R2   0
          1 000123  6C08                                 LDV,R6   8
          1 000124  BB87                                 LAB,B3   ,AUTO
          1 000125  3C56                                 LDV,R3   86
          1 000126  0008                                 MMM

     1683    25084    2           K$RWPARM.MSGTYP = KNA_PARAMS.PTRS.PAR4$->VLP_CG.MSGTYP#;

  25084   1 000127  CCC6 000C                            LDB,B4   12,B6
          1 000129  AB84                                 LAB,B2   ,B4
          1 00012A  2C08                                 LDV,R2   8
          1 00012B  6C08                                 LDV,R6   8
          1 00012C  BB87                                 LAB,B3   ,AUTO
          1 00012D  3C5E                                 LDV,R3   94
          1 00012E  0008                                 MMM

PL6.E3A0      #003=KNA$USERIO File=KNA$APE.:E05TSI                               WED 07/30/97 00:58 Page:286
     1684    25085    2           K$RWPARM.MSGID = KNA_PARAMS.PTRS.PAR4$->VLP_CG.MSGID#;

  25085   1 00012F  9CC6 000C                            LDB,B1   12,B6
          1 000131  8CC1 0009                            LDI      9,B1
          1 000133  8D47 0039                            SDI      K$RWPARM+17,AUTO

     1685    25086    2           END;

     1686    25087
     1687    25088
     1688    25089        %EJECT;
PL6.E3A0      #003=KNA$USERIO File=KNA$APE.:E05TSI                               WED 07/30/97 00:58 Page:287
     1689    25090
     1690    25091    1      RESTYPE = MYDCB.DDEV.RES;

  25091   1 000135  ECC7 001B                            LDB,B6   DCB$,AUTO
          1 000137  E846 0003                            LDR,R6   3,B6
          1 000139  E570 0007                            AND,R6   7,IMO
          1 00013B  EF47 000D                            STR,R6   RESTYPE,AUTO

     1691    25092    1      IF VBASE(FPT_BUF$) = ADDR(NIL)

  25092   1 00013D  8DC7 0018                            CMN      FPT_BUF$+1,AUTO
          1 00013F  0981 0005                            BNE      s:25096,PREL

     1692    25093    1      THEN
     1693    25094    1           MSGSIZE = 0;

  25094   1 000141  8747 000C                            CL       MSGSIZE,AUTO
          1 000143  0F81 0006                            B        s:25099,PREL

     1694    25095    1      ELSE
     1695    25096    1           MSGSIZE = VBOUND(FPT_BUF$)+1;

  25096   1 000145  D847 0017                            LDR,R5   FPT_BUF$,AUTO
          1 000147  5E01                                 ADV,R5   1
          1 000148  DF47 000C                            STR,R5   MSGSIZE,AUTO

     1696    25097        /*     Now do either the WRITE or the READ
     1697    25098        */
     1698    25099    1      IF FPT_CODE = %G_MCL_WRITE#

  25099   1 00014A  D847 001A                            LDR,R5   FPT_CODE,AUTO
          1 00014C  D970 0143                            CMR,R5   323,IMO
          1 00014E  0981 0298                            BNE      s:25291,PREL

     1699    25100    2      THEN DO;

     1700    25101
PL6.E3A0      #003=KNA$USERIO File=KNA$APE.:E05TSI                               WED 07/30/97 00:58 Page:288
     1701    25102        /* Stay in this loop until we get to send the data out to Session
     1702    25103        */
     1703    25104    3   WRITELOOP: DO WHILE('1'B);

  25104   1                              WRITELOOP       null
     1704    25105    3                IF USRFPT$ ~= ADDR(NIL)

  25105   1 000150  8DC7 0010            WRITELOOP       CMN      USRFPT$,AUTO
          1 000152  0901 0009                            BE       s:25108,PREL

     1705    25106    3                THEN K$RWPARM.DVE.DVBYTE = FPT_WRITE.V.DVBYTE;

  25106   1 000154  ECC7 0010                            LDB,B6   USRFPT$,AUTO
          1 000156  E2C6 0002                            LLH,R6   2,B6
          1 000158  6008                                 SOL,R6   8
          1 000159  6048                                 SOR,R6   8
          1 00015A  E7C7 0037                            STH,R6   K$RWPARM+15,AUTO

     1706    25107
     1707    25108    3                IF K$RWPARM.DVE.DVBYTE.NODAT

  25108   1 00015C  82C7 0037                            LB,'0400'X        K$RWPARM+15,AUTO
  25108   1 00015E       0400
          1 00015F  0581 0008                            BBF      s:25110,PREL

     1708    25109    3                THEN ROUTINE = ENTADDR(KNA$FCNO);

  25109   1 000161  EB80 0000 0000  xent                 LAB,B6   KNA$FCNO
          1 000164  EFC7 0066                            STB,B6   ROUTINE,AUTO
          1 000166  0F81 0006                            B        s:25113,PREL

     1709    25110    3                ELSE ROUTINE = ENTADDR(KNA$FCNOU);

  25110   1 000168  EB80 0000 0000  xent                 LAB,B6   KNA$FCNOU
          1 00016B  EFC7 0066                            STB,B6   ROUTINE,AUTO

     1710    25111
PL6.E3A0      #003=KNA$USERIO File=KNA$APE.:E05TSI                               WED 07/30/97 00:58 Page:289
     1711    25112        /* Check to see if the other end only wants to receive part of the message */
     1712    25113    3                IF FLOW_CONTROL AND KNA$SSN.THRTLVL.MAXRCRBYTSIZ < MSGSIZE

  25113   1 00016D  89C7 0027                            CMZ      FLOW_CONTROL,AUTO
          1 00016F  0881 002B                            BAGE     s:25125,PREL
          1 000171  DCC7 001D                            LDB,B5   SSN$,AUTO
          1 000173  E845 0009                            LDR,R6   9,B5
          1 000175  E947 000C                            CMR,R6   MSGSIZE,AUTO
          1 000177  0281 0023                            BGE      s:25125,PREL
          1 000179  D845 0008                            LDR,R5   8,B5
          1 00017B  5D01                                 CMV,R5   1
          1 00017C  0201 001E                            BL       s:25125,PREL
          1 00017E  8285                                 LB,'0100'X        ,B5
          1 00017F       0100
          1 000180  0581 0006                            BBF      s:25113+26,PREL
          1 000182  C847 000E                            LDR,R4   STR,AUTO
          1 000184  4D7F                                 CMV,R4   127
          1 000185  0981 000B                            BNE      s:25119,PREL
          1 000187  C847 000E                            LDR,R4   STR,AUTO
          1 000189  C945 000A                            CMR,R4   10,B5
          1 00018B  0901 0005                            BE       s:25119,PREL
          1 00018D  B845 000A                            LDR,R3   10,B5
          1 00018F  3981 000B                            BNEZ,R3  s:25125,PREL

     1713    25114    3                  AND KNA$SSN.THRTLVL.MAXNMBRCR >= 1
     1714    25115    3                  AND (KNA$SSN.FLAGS.MULT_STR AND STR~=KIDM_MON
     1715    25116    3                  OR STR = KNA$SSN.THRTLVL.STR
     1716    25117    3                  OR KNA$SSN.THRTLVL.STR = 0)
     1717    25118    4                THEN DO;

     1718    25119    4                     IF KNA$SSN.THRTLVL.MAXRCRBYTSIZ = 0 THEN

  25119   1 000191  6901 04DC                            BEZ,R6   s:25450,PREL

     1719    25120    4                          GOTO FINISHED;   /* Outputdiscard says "send nothing"  */
     1720    25121    4                     MSGSIZE = KNA$SSN.THRTLVL.MAXRCRBYTSIZ;

PL6.E3A0      #003=KNA$USERIO File=KNA$APE.:E05TSI                               WED 07/30/97 00:58 Page:290
  25121   1 000193  EF47 000C                            STR,R6   MSGSIZE,AUTO

     1721    25122    4                     ERROR = ESHORT_BUFFER;

  25122   1 000195  8C80 0000 0008  00                   LDI      ESHORT_BUFFER
          1 000198  CCC7 0008                            LDB,B4   @ERROR,AUTO
          1 00019A  8D04                                 SDI      ,B4

     1722    25123    4                     END;

     1723    25124        /* If RRR we want an end ack back */
     1724    25125    3                IF K$RWPARM.DVE.DVBYTE.RRR

  25125   1 00019B  82C7 0037                            LB,'0800'X        K$RWPARM+15,AUTO
  25125   1 00019D       0800
          1 00019E  0581 0004                            BBF      s:25130,PREL

     1725    25126    3                THEN K$RWPARM.MRKTYP = %KV_VDOMRKTYP_ENDACK;

  25126   1 0001A0  6C01                                 LDV,R6   1
          1 0001A1  E7C7 0045                            STH,R6   K$RWPARM+29,AUTO

     1726    25127
     1727    25128        /* Check the throttling values to see if we can send the data now.
     1728    25129        */
     1729    25130    3                IF FLOW_CONTROL = '0'B OR

  25130   1 0001A3  89C7 0027                            CMZ      FLOW_CONTROL,AUTO
          1 0001A5  0881 0021                            BAGE     s:25136,PREL
          1 0001A7  DCC7 001D                            LDB,B5   SSN$,AUTO
          1 0001A9  E845 0008                            LDR,R6   8,B5
          1 0001AB  6D01                                 CMV,R6   1
          1 0001AC  0201 00CC                            BL       s:25188,PREL
          1 0001AE  D845 0007                            LDR,R5   7,B5
          1 0001B0  D947 000C                            CMR,R5   MSGSIZE,AUTO
          1 0001B2  0201 00C6                            BL       s:25188,PREL
          1 0001B4  8285                                 LB,'0100'X        ,B5
PL6.E3A0      #003=KNA$USERIO File=KNA$APE.:E05TSI                               WED 07/30/97 00:58 Page:291
          1 0001B5       0100
          1 0001B6  0581 0006                            BBF      s:25130+26,PREL
          1 0001B8  C847 000E                            LDR,R4   STR,AUTO
          1 0001BA  4D7F                                 CMV,R4   127
          1 0001BB  0981 000B                            BNE      s:25136,PREL
          1 0001BD  C847 000E                            LDR,R4   STR,AUTO
          1 0001BF  C945 000A                            CMR,R4   10,B5
          1 0001C1  0901 0005                            BE       s:25136,PREL
          1 0001C3  B845 000A                            LDR,R3   10,B5
          1 0001C5  3981 00B3                            BNEZ,R3  s:25188,PREL

     1730    25131    3                  KNA$SSN.THRTLVL.MAXNMBRCR >=1 AND KNA$SSN.THRTLVL.MAXNMBBYT >=
             25131                           MSGSIZE
     1731    25132    3                  AND (KNA$SSN.FLAGS.MULT_STR AND STR~=KIDM_MON
     1732    25133    3                  OR STR = KNA$SSN.THRTLVL.STR
     1733    25134    3                  OR KNA$SSN.THRTLVL.STR = 0)
     1734    25135    4                THEN DO;

     1735    25136    4                     KNA$SSN.FLAGS.BLOCKED = '0'B;

  25136   1 0001C7  DCC7 001D                            LDB,B5   SSN$,AUTO
          1 0001C9  8805                                 LBF,'4000'X       ,B5
          1 0001CA       4000

     1736    25137    4                     IF FLOW_CONTROL

  25137   1 0001CB  89C7 0027                            CMZ      FLOW_CONTROL,AUTO
          1 0001CD  0881 0006                            BAGE     s:25139,PREL

     1737    25138    4                     THEN FCN = %KV_VDO_FNC_DAT;

  25138   1 0001CF  6C05                                 LDV,R6   5
          1 0001D0  EF47 0065                            STR,R6   FCN,AUTO
          1 0001D2  0F81 0004                            B        s:25141,PREL

     1738    25139    4                     ELSE FCN = %KV_VDO_FNC_DAT_IMD;

PL6.E3A0      #003=KNA$USERIO File=KNA$APE.:E05TSI                               WED 07/30/97 00:58 Page:292
  25139   1 0001D4  6C06                                 LDV,R6   6
          1 0001D5  EF47 0065                            STR,R6   FCN,AUTO

     1739    25140
     1740    25141    4                     K$RWPARM.STR = STR;

  25141   1 0001D7  D847 000E                            LDR,R5   STR,AUTO
          1 0001D9  DAC7 0045                            SRM,R5,'00FF'X    K$RWPARM+29,AUTO
          1 0001DB       00FF

     1741    25142    4                     K$RWPARM.MSGSZ = MSGSIZE;

  25142   1 0001DC  C847 000C                            LDR,R4   MSGSIZE,AUTO
          1 0001DE  CF47 002A                            STR,R4   K$RWPARM+2,AUTO

     1742    25143
     1743    25144    4                     K$RWPARM.MSGC$ = VBASE(FPT_BUF$);

  25144   1 0001E0  8CC7 0018                            LDI      FPT_BUF$+1,AUTO
          1 0001E2  8D47 0028                            SDI      K$RWPARM,AUTO

     1744    25145    4                     IF K$RWPARM.DVE.DVBYTE.VFC

  25145   1 0001E4  82C7 0037                            LB,'4000'X        K$RWPARM+15,AUTO
  25145   1 0001E6       4000
          1 0001E7  0581 001A                            BBF      s:25151,PREL

     1745    25146    5                     THEN DO;

     1746    25147    5                          K$RWPARM.DVE.VFC = K$RWPARM.MSGC$->VFC;

  25147   1 0001E9  B856                                 LDR,R3   R6
          1 0001EA  E570 7FFF                            AND,R6   32767,IMO
          1 0001EC  8D47 006A                            SDI      ROUTINE+4,AUTO
          1 0001EE  DCC7 006A                            LDB,B5   ROUTINE+4,AUTO
          1 0001F0  304F                                 SOR,R3   15
          1 0001F1  A0B5                                 LDH,R2   ,B5,R3
PL6.E3A0      #003=KNA$USERIO File=KNA$APE.:E05TSI                               WED 07/30/97 00:58 Page:293
          1 0001F2  AAC7 0037                            SRM,R2,'00FF'X    K$RWPARM+15,AUTO
          1 0001F4       00FF

     1747    25148    5                          K$RWPARM.MSGC$ = PINCRC (K$RWPARM.MSGC$,1);

  25148   1 0001F5  8CC7 0028                            LDI      K$RWPARM,AUTO
          1 0001F7  7031                                 DCL,R7   1
          1 0001F8  8470 0000 0001                       AID      1,IMO
          1 0001FB  7071                                 DCR,R7   1
          1 0001FC  8D47 0028                            SDI      K$RWPARM,AUTO

     1748    25149    5                          K$RWPARM.MSGSZ = K$RWPARM.MSGSZ - 1;

  25149   1 0001FE  88C7 002A                            DEC      K$RWPARM+2,AUTO

     1749    25150    5                          END;

  25150   1 000200  0F81 0016                            B        s:25156,PREL

     1750    25151    4                     ELSE IF USRFPT$ ~= ADDR(NIL) AND MYDCB.DVFC ~= BINASC(0)

  25151   1 000202  8DC7 0010                            CMN      USRFPT$,AUTO
          1 000204  0901 0012                            BE       s:25156,PREL
          1 000206  DCC7 001B                            LDB,B5   DCB$,AUTO
          1 000208  B845 0024                            LDR,R3   36,B5
          1 00020A  3008                                 SOL,R3   8
          1 00020B  3068                                 SAR,R3   8
          1 00020C  3D00                                 CMV,R3   0
          1 00020D  0901 0009                            BE       s:25156,PREL

     1751    25152    5                          THEN DO;

     1752    25153    5                               K$RWPARM.DVE.DVBYTE.VFC = '1'B;

  25153   1 00020F  8947 0037                            LBT,'4000'X       K$RWPARM+15,AUTO
  25153   1 000211       4000

PL6.E3A0      #003=KNA$USERIO File=KNA$APE.:E05TSI                               WED 07/30/97 00:58 Page:294
     1753    25154    5                               K$RWPARM.DVE.VFC = MYDCB.DVFC;

  25154   1 000212  B845 0024                            LDR,R3   36,B5
          1 000214  BAC7 0037                            SRM,R3,'00FF'X    K$RWPARM+15,AUTO
          1 000216       00FF

     1754    25155    5                               END;

     1755    25156    4                     K$RWPARM.KEY$ = KEY$;

  25156   1 000217  DCC7 0012                            LDB,B5   KEY$,AUTO
          1 000219  DFC7 004B                            STB,B5   K$RWPARM+35,AUTO

     1756    25157    4                     K$RWPARM.KEYSZ = KEYSZ;

  25157   1 00021B  B847 0014                            LDR,R3   KEYSZ,AUTO
          1 00021D  BAC7 0050                            SRM,R3,'00FF'X    K$RWPARM+40,AUTO
          1 00021F       00FF

     1757    25158    4                     IF USRFPT$ ~= ADDR(NIL)

  25158   1 000220  8DC7 0010                            CMN      USRFPT$,AUTO
          1 000222  0901 002D                            BE       s:25171,PREL

     1758    25159    5                     THEN DO;

     1759    25160    5                          K$RWPARM.KEYTYPE = FPT_WRITE.V.KEYTYPE;

  25160   1 000224  CCC7 0010                            LDB,B4   USRFPT$,AUTO
          1 000226  A804                                 LDR,R2   ,B4
          1 000227  A570 007F                            AND,R2   127,IMO
          1 000229  A7C7 0050                            STH,R2   K$RWPARM+40,AUTO

     1760    25161    5                          IF K$RWPARM.KEYTYPE = 0

  25161   1 00022B  A2C7 0050                            LLH,R2   K$RWPARM+40,AUTO
          1 00022D  2981 0007                            BNEZ,R2  s:25163,PREL
PL6.E3A0      #003=KNA$USERIO File=KNA$APE.:E05TSI                               WED 07/30/97 00:58 Page:295

     1761    25162    5                          THEN K$RWPARM.KEYTYPE = MYDCB.KEYTYPE;

  25162   1 00022F  BCC7 001B                            LDB,B3   DCB$,AUTO
          1 000231  92C3 0024                            LLH,R1   36,B3
          1 000233  97C7 0050                            STH,R1   K$RWPARM+40,AUTO

     1762    25163    5                          IF FPT_WRITE.V.EOM AND SUBSTR(MYDCB.RES,0,2)~='UC'

  25163   1 000235  8284                                 LB,'0080'X        ,B4
  25163   1 000236       0080
          1 000237  0581 0018                            BBF      s:25171,PREL
          1 000239  BCC7 001B                            LDB,B3   DCB$,AUTO
          1 00023B  AB80 0000 0000  00                   LAB,B2   0
          1 00023E  0022                                 ACM      ;
          1 00023F       4203 0019                                ALPHANUM(25,B3,,2,FILL),;
          1 000241       4202 0015                                ALPHANUM(21,B2,,2,FILL)
          1 000243  5381 000C                            CBE      s:25171,PREL

     1763    25164    6                          THEN DO;

     1764    25165    6                               K$RWPARM.DVE.EOMCHAR = FPT_WRITE.V.EOMCHAR;

  25165   1 000245  A844 0002                            LDR,R2   2,B4
          1 000247  AAC7 0037                            SRM,R2,'00FF'X    K$RWPARM+15,AUTO
          1 000249       00FF

     1765    25166    6                               K$RWPARM.DVE.DVBYTE.VFC = '0'B;

  25166   1 00024A  8847 0037                            LBF,'4000'X       K$RWPARM+15,AUTO
  25166   1 00024C       4000

     1766    25167    6                               K$RWPARM.EOM_EOR = '1'B;

  25167   1 00024D  8947 0038                            LBT,'2000'X       K$RWPARM+16,AUTO
  25167   1 00024F       2000

PL6.E3A0      #003=KNA$USERIO File=KNA$APE.:E05TSI                               WED 07/30/97 00:58 Page:296
     1767    25168    6                               END;

     1768    25169    5                          END;

     1769    25170
     1770    25171    4                     CALL ROUTINE (FCN,KNA$SSN,K$RWPARM,ERR)

  25171   1 000250  CBC7 0061                            LAB,B4   ERR,AUTO
          1 000252  CFC7 0070                            STB,B4   ROUTINE+10,AUTO
          1 000254  BBC7 0028                            LAB,B3   K$RWPARM,AUTO
          1 000256  BFC7 006E                            STB,B3   ROUTINE+8,AUTO
          1 000258  ACC7 001D                            LDB,B2   SSN$,AUTO
          1 00025A  AFC7 006C                            STB,B2   ROUTINE+6,AUTO
          1 00025C  9BC7 0065                            LAB,B1   FCN,AUTO
          1 00025E  9FC7 006A                            STB,B1   ROUTINE+4,AUTO
          1 000260  BBC7 006A                            LAB,B3   ROUTINE+4,AUTO
          1 000262  9B86                                 LAB,B1   ,B6
          1 000263  CBF0 0400                            LAB,B4   1024,IMO
          1 000265  E381                                 LNJ,B6   ,B1
          1 000266       0084                            DC       s:25221,PREL

     1771    25172    4                       ALTRET (SSN_ERR);
     1772    25173
     1773    25174    4                     IF FLOW_CONTROL

  25174   1 000267  89C7 0027                            CMZ      FLOW_CONTROL,AUTO
          1 000269  0881 000D                            BAGE     s:25179,PREL

     1774    25175    5                     THEN DO;

     1775    25176    5                          KNA$SSN.THRTLVL.MAXNMBRCR = KNA$SSN.THRTLVL.MAXNMBRCR-1;

  25176   1 00026B  ECC7 001D                            LDB,B6   SSN$,AUTO
          1 00026D  88C6 0008                            DEC      8,B6

     1776    25177    5                          KNA$SSN.THRTLVL.MAXNMBBYT = KNA$SSN.THRTLVL.MAXNMBBYT -
             25177                                   MSGSIZE;
PL6.E3A0      #003=KNA$USERIO File=KNA$APE.:E05TSI                               WED 07/30/97 00:58 Page:297

  25177   1 00026F  ECC7 001D                            LDB,B6   SSN$,AUTO
          1 000271  E846 0007                            LDR,R6   7,B6
          1 000273  E247 000C                            SUB,R6   MSGSIZE,AUTO
          1 000275  EF46 0007                            STR,R6   7,B6

     1777    25178    5                          END;

     1778    25179    4                     EXIT WRITELOOP;

  25179   1 000277  0F81 008D                            B        s:25236,PREL

     1779    25180
     1780    25181    4                     END/* End for sending the data now*/;
     1781    25182
     1782    25183        /* If we don't have enough throttling to do this then we'll just
     1783    25184        set a bit saying that we are waiting for a message and REG the
     1784    25185        current user.
     1785    25186        */
     1786    25187    4                ELSE DO;

     1787    25188    4                     IF KNA$SSN.FLAGS.BLOCKED

  25188   1 000279  8285                                 LB,'4000'X        ,B5
  25188   1 00027A       4000
          1 00027B  0501 003B                            BBT      s:25207,PREL

     1788    25189    4                     THEN GOTO REG_BLOCKED;
     1789    25190
     1790    25191    4                     K$RWPARM.STR = STR;

  25191   1 00027D  D847 000E                            LDR,R5   STR,AUTO
          1 00027F  DAC7 0045                            SRM,R5,'00FF'X    K$RWPARM+29,AUTO
          1 000281       00FF

     1791    25192    4                     K$RWPARM.MAXRCRBYTSIZ = MSGSIZE;

PL6.E3A0      #003=KNA$USERIO File=KNA$APE.:E05TSI                               WED 07/30/97 00:58 Page:298
  25192   1 000282  E847 000C                            LDR,R6   MSGSIZE,AUTO
          1 000284  EF47 0048                            STR,R6   K$RWPARM+32,AUTO

     1792    25193    4                     IF KNA$SSN.THRTLVL.MAXNMBRCR = 0

  25193   1 000286  C845 0008                            LDR,R4   8,B5
          1 000288  4981 0007                            BNEZ,R4  s:25195,PREL

     1793    25194    4                     THEN K$RWPARM.RSN = %KV_BLKRSN_MAXNMBRCR;

  25194   1 00028A  3C02                                 LDV,R3   2
          1 00028B  BAC7 0038                            SRM,R3,'00FF'X    K$RWPARM+16,AUTO
          1 00028D       00FF
          1 00028E  0F81 0005                            B        s:25196,PREL

     1794    25195    4                     ELSE K$RWPARM.RSN = %KV_BLKRSN_MAXNMBBYT;

  25195   1 000290  3C01                                 LDV,R3   1
          1 000291  BAC7 0038                            SRM,R3,'00FF'X    K$RWPARM+16,AUTO
          1 000293       00FF

     1795    25196    4                     KNA$SSN.REGRSN = 0;   /* So we can detect getting blocked   */

  25196   1 000294  8745 0012                            CL       18,B5

     1796    25197
     1797    25198    4                     CALL ROUTINE(%KV_VDO_FNC_BLKDAT,KNA$SSN,K$RWPARM,ERR)

  25198   1 000296  DBF0 0002                            LAB,B5   2,IMO
          1 000298  CBC7 0061                            LAB,B4   ERR,AUTO
          1 00029A  CFC7 0070                            STB,B4   ROUTINE+10,AUTO
          1 00029C  BBC7 0028                            LAB,B3   K$RWPARM,AUTO
          1 00029E  BFC7 006E                            STB,B3   ROUTINE+8,AUTO
          1 0002A0  ACC7 001D                            LDB,B2   SSN$,AUTO
          1 0002A2  AFC7 006C                            STB,B2   ROUTINE+6,AUTO
          1 0002A4  DFC7 006A                            STB,B5   ROUTINE+4,AUTO
          1 0002A6  BBC7 006A                            LAB,B3   ROUTINE+4,AUTO
PL6.E3A0      #003=KNA$USERIO File=KNA$APE.:E05TSI                               WED 07/30/97 00:58 Page:299
          1 0002A8  9B86                                 LAB,B1   ,B6
          1 0002A9  CBF0 0400                            LAB,B4   1024,IMO
          1 0002AB  E381                                 LNJ,B6   ,B1
          1 0002AC       003E                            DC       s:25221,PREL

     1798    25199                                                /* call KNA$FCNO or KNA$FCNOU*/
     1799    25200    4                       ALTRET (SSN_ERR);
     1800    25201
     1801    25202
     1802    25203    4                     KNA$SSN.FLAGS.BLOCKED = '1'B;

  25203   1 0002AD  ECC7 001D                            LDB,B6   SSN$,AUTO
          1 0002AF  8906                                 LBT,'4000'X       ,B6
          1 0002B0       4000

     1803    25204    4                     IF KNA$SSN.REGRSN ~= 0

  25204   1 0002B1  ECC7 001D                            LDB,B6   SSN$,AUTO
          1 0002B3  E846 0012                            LDR,R6   18,B6
          1 0002B5  6981 FE9A                            BNEZ,R6  s:25100,PREL

     1804    25205    4                     THEN GOTO WRITELOOP;  /* Start over if we got blocked       */
     1805    25206
     1806    25207    4   REG_BLOCKED:      IF MYDCB.DVBYTE.NODAT

  25207   1 0002B7  ECC7 001B            REG_BLOCKED     LDB,B6   DCB$,AUTO
          1 0002B9  82C6 0002                            LB,'0400'X        2,B6
          1 0002BB       0400
          1 0002BC  0581 0009                            BBF      s:25215,PREL

     1807    25208    5                     THEN DO;

     1808    25209    5                          ERROR=ENO_DAT;

  25209   1 0002BE  8C80 0000 000A  00                   LDI      ENO_DAT
          1 0002C1  DCC7 0008                            LDB,B5   @ERROR,AUTO
          1 0002C3  8D05                                 SDI      ,B5
PL6.E3A0      #003=KNA$USERIO File=KNA$APE.:E05TSI                               WED 07/30/97 00:58 Page:300

     1809    25210    5                          GOTO FINISHED;

  25210   1 0002C4  0F81 03A9                            B        s:25450,PREL

     1810    25211    5                          END;
     1811    25212        /*E* ERROR: KNA-%E$NODAT
     1812    25213             MESSAGE: No throttling available for write or no data available for read.
     1813    25214        */
     1814    25215    4                     CALL KNA$REG_USER(%GH_EVCBL,SSN$)

  25215   1 0002C6  DBF0 0019                            LAB,B5   25,IMO
          1 0002C8  CBC7 001D                            LAB,B4   SSN$,AUTO
          1 0002CA  CFC7 006C                            STB,B4   ROUTINE+6,AUTO
          1 0002CC  DFC7 006A                            STB,B5   ROUTINE+4,AUTO
          1 0002CE  BBC7 006A                            LAB,B3   ROUTINE+4,AUTO
          1 0002D0  CBF0 0200                            LAB,B4   512,IMO
          1 0002D2  E380 0000 0000  xent                 LNJ,B6   KNA$REG_USER
          1 0002D5       0003                            DC       s:25217,PREL
          1 0002D6  0F81 002C                            B        s:25231,PREL

     1815    25216    5                     WHENALTRETURN DO;

     1816    25217    5                          IF STR ~= KIDM_MON

  25217   1 0002D8  E847 000E                            LDR,R6   STR,AUTO
          1 0002DA  6D7F                                 CMV,R6   127
          1 0002DB  0981 0008                            BNE      s:25220,PREL
          1 0002DD  ECC7 001D                            LDB,B6   SSN$,AUTO
          1 0002DF  D846 0013                            LDR,R5   19,B6
          1 0002E1  5D03                                 CMV,R5   3
          1 0002E2  0901 0020                            BE       s:25231,PREL

     1817    25218    5                            OR KNA$SSN.STATE ~= %KNA_STATE_ACTIVE#
     1818    25219    6                          THEN DO;

     1819    25220    6                               G$JIT.JUNK.BACKP$='1'B;
PL6.E3A0      #003=KNA$USERIO File=KNA$APE.:E05TSI                               WED 07/30/97 00:58 Page:301

  25220   1 0002E4  EC80 0000 0000  xsym                 LDB,B6   G$JIT$
          1 0002E7  8946 0098                            LBT,'0100'X       152,B6
          1 0002E9       0100

     1820    25221    6   SSN_ERR:                    IF KNA$SSN.FLAGS.SSNERR THEN ERROR = KNA$SSN.ERROR;

  25221   1 0002EA  ECC7 001D            SSN_ERR         LDB,B6   SSN$,AUTO
          1 0002EC  8286                                 LB,'0800'X        ,B6
          1 0002ED       0800
          1 0002EE  0581 0008                            BBF      s:25222,PREL

  25221   1 0002F0  8CC6 0001                            LDI      1,B6
          1 0002F2  DCC7 0008                            LDB,B5   @ERROR,AUTO
          1 0002F4  8D05                                 SDI      ,B5
          1 0002F5  0F81 0007                            B        s:25223,PREL

     1821    25222    6                               ELSE ERROR = EBYD;

  25222   1 0002F7  8C80 0000 000C  00                   LDI      EBYD
          1 0002FA  DCC7 0008                            LDB,B5   @ERROR,AUTO
          1 0002FC  8D05                                 SDI      ,B5

     1822    25223    6                               KNA$SSN.FLAGS.BLOCKED = '0'B;

  25223   1 0002FD  ECC7 001D                            LDB,B6   SSN$,AUTO
          1 0002FF  8806                                 LBF,'4000'X       ,B6
          1 000300       4000

     1823    25224    6                               GOTO FINISHED;

  25224   1 000301  0F81 036C                            B        s:25450,PREL

     1824    25225    6                               END/*do if mon*/;
     1825    25226    5                          END/*altret from reg_user*/;
     1826    25227        /*E* ERROR: KNA-%E$BYD
     1827    25228             MESSAGE: Asynchronous event interrupted I/O.
PL6.E3A0      #003=KNA$USERIO File=KNA$APE.:E05TSI                               WED 07/30/97 00:58 Page:302
     1828    25229        */
     1829    25230    3                     END;/*do if no throttling*/;

     1830    25231    3                END/* writeloop: do while('1'B)*/;

  25231   1 000303  0F81 FE4C                            B        s:25100,PREL

     1831    25232        %EJECT;
PL6.E3A0      #003=KNA$USERIO File=KNA$APE.:E05TSI                               WED 07/30/97 00:58 Page:303
     1832    25233
     1833    25234        /* Update the various write counters.
     1834    25235        */
     1835    25236    3           DO CASE(RESTYPE);

  25236   1 000305  B847 000D                            LDR,R3   RESTYPE,AUTO
          1 000307  3D05                                 CMV,R3   5
          1 000308  0281 005C                            BGE      s:25254,PREL
          1 00030A  A830 0000 0310  01                   LDR,R2   s:25236+11,R3
          1 00030D  83A0 0000 0315  01                   JMP      s:25238,R2
          1 000310       0050                            DC       s:25254,PREL
          1 000311       0000                            DC       s:25238,PREL
          1 000312       0018                            DC       s:25242,PREL
          1 000313       0030                            DC       s:25246,PREL
          1 000314       0041                            DC       s:25249,PREL

     1836    25237    3            CASE(%G_DDEV_RES_HO#);

     1837    25238    3              G$JIT.WRITES_HOST = G$JIT.WRITES_HOST +1;

  25238   1 000315  EC80 0000 0000  xsym                 LDB,B6   G$JIT$
          1 000318  8AC6 0043                            INC      67,B6
          1 00031A  8EC6 0042                            CAD      66,B6

     1838    25239    3              PS_LCP6STT.WRITES_HOST = PS_LCP6STT.WRITES_HOST +1;

  25239   1 00031C  8A80 0000 005F  xsym                 INC      PS_LCP6STT+95
          1 00031F  8E80 0000 005E  xsym                 CAD      PS_LCP6STT+94

     1839    25240    3              PS_LCP6STT.BYTES_WRT_HOST = PS_LCP6STT.BYTES_WRT_HOST + MSGSIZE;

  25240   1 000322  F847 000C                            LDR,R7   MSGSIZE,AUTO
          1 000324  6C00                                 LDV,R6   0
          1 000325  8400 0000 006E  xsym                 AID      PS_LCP6STT+110
          1 000328  8D00 0000 006E  xsym                 SDI      PS_LCP6STT+110
          1 00032B  0F81 0039                            B        s:25254,PREL

PL6.E3A0      #003=KNA$USERIO File=KNA$APE.:E05TSI                               WED 07/30/97 00:58 Page:304
     1840    25241    3            CASE(%G_DDEV_RES_UC#);

     1841    25242    3              G$JIT.WRITES_UC = G$JIT.WRITES_UC +1;

  25242   1 00032D  EC80 0000 0000  xsym                 LDB,B6   G$JIT$
          1 000330  8AC6 0047                            INC      71,B6
          1 000332  8EC6 0046                            CAD      70,B6

     1842    25243    3              PS_LCP6STT.WRITES_UC = PS_LCP6STT.WRITES_UC +1;

  25243   1 000334  8A80 0000 0061  xsym                 INC      PS_LCP6STT+97
          1 000337  8E80 0000 0060  xsym                 CAD      PS_LCP6STT+96

     1843    25244    3              PS_LCP6STT.BYTES_WRT_UC = PS_LCP6STT.BYTES_WRT_UC + MSGSIZE;

  25244   1 00033A  F847 000C                            LDR,R7   MSGSIZE,AUTO
          1 00033C  6C00                                 LDV,R6   0
          1 00033D  8400 0000 0070  xsym                 AID      PS_LCP6STT+112
          1 000340  8D00 0000 0070  xsym                 SDI      PS_LCP6STT+112
          1 000343  0F81 0021                            B        s:25254,PREL

     1844    25245    3            CASE(%G_DDEV_RES_LG#);

     1845    25246    3              PS_LCP6STT.WRITES_LG = PS_LCP6STT.WRITES_LG +1;

  25246   1 000345  8A80 0000 0063  xsym                 INC      PS_LCP6STT+99
          1 000348  8E80 0000 0062  xsym                 CAD      PS_LCP6STT+98

     1846    25247    3              PS_LCP6STT.BYTES_WRT_LG = PS_LCP6STT.BYTES_WRT_LG + MSGSIZE;

  25247   1 00034B  F847 000C                            LDR,R7   MSGSIZE,AUTO
          1 00034D  6C00                                 LDV,R6   0
          1 00034E  8400 0000 0072  xsym                 AID      PS_LCP6STT+114
          1 000351  8D00 0000 0072  xsym                 SDI      PS_LCP6STT+114
          1 000354  0F81 0010                            B        s:25254,PREL

     1847    25248    3            CASE(%G_DDEV_RES_NA#);
PL6.E3A0      #003=KNA$USERIO File=KNA$APE.:E05TSI                               WED 07/30/97 00:58 Page:305

     1848    25249    3              PS_LCP6STT.WRITES_NA = PS_LCP6STT.WRITES_NA +1;

  25249   1 000356  8A80 0000 0065  xsym                 INC      PS_LCP6STT+101
          1 000359  8E80 0000 0064  xsym                 CAD      PS_LCP6STT+100

     1849    25250    3              PS_LCP6STT.BYTES_WRT_NA = PS_LCP6STT.BYTES_WRT_NA + MSGSIZE;

  25250   1 00035C  F847 000C                            LDR,R7   MSGSIZE,AUTO
          1 00035E  6C00                                 LDV,R6   0
          1 00035F  8400 0000 0074  xsym                 AID      PS_LCP6STT+116
          1 000362  8D00 0000 0074  xsym                 SDI      PS_LCP6STT+116

     1850    25251    3              END/*do select*/;

     1851    25252
     1852    25253        /* If this is an RRR request grab a IOP packet */
     1853    25254    2           IF K$RWPARM.DVE.DVBYTE.RRR

  25254   1 000365  82C7 0037                            LB,'0800'X        K$RWPARM+15,AUTO
  25254   1 000367       0800
          1 000368  0581 0305                            BBF      s:25450,PREL

     1854    25255    3           THEN DO;

     1855    25256    3                CALL KNA$GETIOP(IOP$)

  25256   1 00036A  EBC7 001F                            LAB,B6   IOP$,AUTO
          1 00036C  EFC7 006A                            STB,B6   ROUTINE+4,AUTO
          1 00036E  BBC7 006A                            LAB,B3   ROUTINE+4,AUTO
          1 000370  CBF0 0100                            LAB,B4   256,IMO
          1 000372  E380 0000 0000  xent                 LNJ,B6   KNA$GETIOP
          1 000375       0003                            DC       s:25258,PREL
          1 000376  0F81 0009                            B        s:25261,PREL

     1856    25257    4                WHENALTRETURN DO;

PL6.E3A0      #003=KNA$USERIO File=KNA$APE.:E05TSI                               WED 07/30/97 00:58 Page:306
     1857    25258    4                     ERROR = ENO_IOP;

  25258   1 000378  8C80 0000 0006  00                   LDI      ENO_IOP
          1 00037B  ECC7 0008                            LDB,B6   @ERROR,AUTO
          1 00037D  8D06                                 SDI      ,B6

     1858    25259    4                     GOTO FINISHED;

  25259   1 00037E  0F81 02EF                            B        s:25450,PREL

     1859    25260    4                     END;
     1860    25261    3                KNA$SSN.IOPQ$ = IOP$;

  25261   1 000380  ECC7 001F                            LDB,B6   IOP$,AUTO
          1 000382  DCC7 001D                            LDB,B5   SSN$,AUTO
          1 000384  EFC5 000B                            STB,B6   11,B5

     1861    25262    3                KNA$SSN.FLAGS.RRRPND = '1'B;

  25262   1 000386  ECC7 001D                            LDB,B6   SSN$,AUTO
          1 000388  8906                                 LBT,'0200'X       ,B6
          1 000389       0200

     1862    25263    3                CALL KNA$REG_USER(%GH_EVCW,SSN$)

  25263   1 00038A  EBF0 0015                            LAB,B6   21,IMO
          1 00038C  DBC7 001D                            LAB,B5   SSN$,AUTO
          1 00038E  DFC7 006C                            STB,B5   ROUTINE+6,AUTO
          1 000390  EFC7 006A                            STB,B6   ROUTINE+4,AUTO
          1 000392  BBC7 006A                            LAB,B3   ROUTINE+4,AUTO
          1 000394  CBF0 0200                            LAB,B4   512,IMO
          1 000396  E380 0000 0000  xent                 LNJ,B6   KNA$REG_USER
          1 000399       0014                            DC       s:25268,PREL

     1863    25264    4                WHENRETURN DO;

     1864    25265    4                     IF KN$IOP.ERRCODE THEN ERROR = KN$IOP.ERRCODE;
PL6.E3A0      #003=KNA$USERIO File=KNA$APE.:E05TSI                               WED 07/30/97 00:58 Page:307

  25265   1 00039A  ECC7 001F                            LDB,B6   IOP$,AUTO
          1 00039C  DB80 0000 0000  02                   LAB,B5   0
          1 00039F  5C01                                 LDV,R5   1
          1 0003A0  0022                                 ACM      ;
          1 0003A1       4406 0000                                ALPHANUM(0,B6,,4,FILL),;
          1 0003A3       4005 0000                                ALPHANUM(0,B5,,R5,FILL)
          1 0003A5  5381 0005                            CBE      s:25266,PREL

  25265   1 0003A7  8C86                                 LDI      ,B6
          1 0003A8  DCC7 0008                            LDB,B5   @ERROR,AUTO
          1 0003AA  8D05                                 SDI      ,B5

     1865    25266    4                     END;

  25266   1 0003AB  0F81 0014                            B        s:25271,PREL

     1866    25267    4                WHENALTRETURN DO;

     1867    25268    4                     IF KNA$SSN.FLAGS.SSNERR THEN ERROR = KNA$SSN.ERROR;

  25268   1 0003AD  ECC7 001D                            LDB,B6   SSN$,AUTO
          1 0003AF  8286                                 LB,'0800'X        ,B6
          1 0003B0       0800
          1 0003B1  0581 0008                            BBF      s:25269,PREL

  25268   1 0003B3  8CC6 0001                            LDI      1,B6
          1 0003B5  DCC7 0008                            LDB,B5   @ERROR,AUTO
          1 0003B7  8D05                                 SDI      ,B5
          1 0003B8  0F81 0007                            B        s:25271,PREL

     1868    25269    4                     ELSE ERROR = EBYD;

  25269   1 0003BA  8C80 0000 000C  00                   LDI      EBYD
          1 0003BD  DCC7 0008                            LDB,B5   @ERROR,AUTO
          1 0003BF  8D05                                 SDI      ,B5

PL6.E3A0      #003=KNA$USERIO File=KNA$APE.:E05TSI                               WED 07/30/97 00:58 Page:308
     1869    25270    4                     END;

     1870    25271    3                IF PARMSPEC AND KNA_PARAMS.PTRS.PAR4$ ~= ADDR(NIL)

  25271   1 0003C0  89C7 000F                            CMZ      PARMSPEC,AUTO
          1 0003C2  0881 000F                            BAGE     s:25274,PREL
          1 0003C4  ECC7 000A                            LDB,B6   @KNA_PARAMS,AUTO
          1 0003C6  8DC6 000C                            CMN      12,B6
          1 0003C8  0901 0009                            BE       s:25274,PREL

     1871    25272    3                THEN KNA_PARAMS.PTRS.PAR4$->VLP_CG.MSGID# = KN$IOP.MSGID;

  25272   1 0003CA  DCC6 000C                            LDB,B5   12,B6
          1 0003CC  CCC7 001F                            LDB,B4   IOP$,AUTO
          1 0003CE  8CC4 000C                            LDI      12,B4
          1 0003D0  8D45 0009                            SDI      9,B5

     1872    25273
     1873    25274    3                CALL KNA$RLSIOP (IOP$);

  25274   1 0003D2  EBC7 001F                            LAB,B6   IOP$,AUTO
          1 0003D4  EFC7 006A                            STB,B6   ROUTINE+4,AUTO
          1 0003D6  BBC7 006A                            LAB,B3   ROUTINE+4,AUTO
          1 0003D8  CBF0 0100                            LAB,B4   256,IMO
          1 0003DA  E380 0000 0000  xent                 LNJ,B6   KNA$RLSIOP
          1 0003DD       0001                            DC       s:25275,PREL

     1874    25275    3                KNA$SSN.IOPQ$ = ADDR(NIL);

  25275   1 0003DE  EB80 0000 0000                       LAB,B6   0
          1 0003E1  DCC7 001D                            LDB,B5   SSN$,AUTO
          1 0003E3  EFC5 000B                            STB,B6   11,B5

     1875    25276    3                END;

     1876    25277    2           END;

PL6.E3A0      #003=KNA$USERIO File=KNA$APE.:E05TSI                               WED 07/30/97 00:58 Page:309
  25277   1 0003E5  0F81 0288                            B        s:25450,PREL

     1877    25278        %EJECT;
PL6.E3A0      #003=KNA$USERIO File=KNA$APE.:E05TSI                               WED 07/30/97 00:58 Page:310
     1878    25279        /*
     1879    25280               Now we come to the READ code.  Here we basically just have to
     1880    25281        get an I/O packet for keeping track of the user's buffer, issue a
     1881    25282        message to the network connection specifying how much we can accept,
     1882    25283        mark this in our SSN context, and REG the user until this is all
     1883    25284        done.
     1884    25285        */
     1885    25286    2      ELSE DO;

     1886    25287        /*
     1887    25288          Verify that there is no other read operation pending on this stream.
     1888    25289          If there is, report an error and return.
     1889    25290                                                                                      */
     1890    25291    2           IF KNA$SSN.IOPRD$ ~= ADDR(NIL)  /* Another read out standing          */

  25291   1 0003E7  DCC7 001D                            LDB,B5   SSN$,AUTO
          1 0003E9  8DC5 000D                            CMN      13,B5
          1 0003EB  0901 0060                            BE       s:25316,PREL

     1891    25292    3           THEN DO;

     1892    25293    3                IF MOD(KNA_LNKSSN.SREG,64)<61

  25293   1 0003ED  C800 0000 0002  xsym                 LDR,R4   KNA_LNKSSN+2
          1 0003F0  C570 003F                            AND,R4   63,IMO
          1 0003F2  4D3D                                 CMV,R4   61
          1 0003F3  0881 0009                            BAGE     s:25299,PREL

     1893    25294    4                THEN DO;

     1894    25295    4                     ERROR = EXTRA_READ;

  25295   1 0003F5  8C80 0000 0010  00                   LDI      EXTRA_READ
          1 0003F8  CCC7 0008                            LDB,B4   @ERROR,AUTO
          1 0003FA  8D04                                 SDI      ,B4

     1895    25296    4                     GOTO FINISHED;
PL6.E3A0      #003=KNA$USERIO File=KNA$APE.:E05TSI                               WED 07/30/97 00:58 Page:311

  25296   1 0003FB  0F81 0272                            B        s:25450,PREL

     1896    25297    4                     END;
     1897    25298
     1898    25299    3                IOP$ = KNA$SSN.IOPRD$;

  25299   1 0003FD  CCC5 000D                            LDB,B4   13,B5
          1 0003FF  CFC7 001F                            STB,B4   IOP$,AUTO

     1899    25300    3                K$RWPARM.STR = KN$IOP.DCB$->MYDCB.STRM;

  25300   1 000401  ACC4 000A                            LDB,B2   10,B4
          1 000403  C842 0002                            LDR,R4   2,B2
          1 000405  CAC7 0045                            SRM,R4,'00FF'X    K$RWPARM+29,AUTO
          1 000407       00FF

     1900    25301    3                CALL CANCEL_READ ALTRET(SSN_ERR);

  25301   1 000408  E3C0 0281                            LNJ,B6   s:0,PREL
          1 00040A       FEE0                            DC       s:25221,PREL

     1901    25302    3                K$RWPARM.MRKTYP = 0;

  25302   1 00040B  87C7 0045                            CLH      K$RWPARM+29,AUTO

     1902    25303    3                IF KNA$SSN.IOPRD$ = ADDR(NIL) /* Got message                     */

  25303   1 00040D  ECC7 001D                            LDB,B6   SSN$,AUTO
          1 00040F  8DC6 000D                            CMN      13,B6
          1 000411  0901 003A                            BE       s:25316,PREL

     1903    25304    3                THEN GOTO READ_COMPLETED;
     1904    25305
     1905    25306    3                NWIO = '0'B;

  25306   1 000413  5C20                                 LDV,R5   32
PL6.E3A0      #003=KNA$USERIO File=KNA$APE.:E05TSI                               WED 07/30/97 00:58 Page:312
          1 000414  0021                                 ALR      ;
          1 000415       4178 0000                                ALPHANUM('0000'X,IMO,,1),;
          1 000417       4007 0051                                ALPHANUM(NWIO,AUTO,,R5,FILL)

     1906    25307    3                NWIO.P# = SIZEW(NWIO) - SIZEW(NWIO.P#);

  25307   1 000419  6C0F                                 LDV,R6   15
          1 00041A  437F                                 CSYNC    s:25307,SPREL
          1 00041B  EF47 0051                            STR,R6   NWIO,AUTO

     1907    25308    3                TCB_ERR = EXTRA_READ;

  25308   1 00041D  8C80 0000 0010  00                   LDI      EXTRA_READ
          1 000420  8D47 0062                            SDI      TCB_ERR,AUTO

     1908    25309    3                EVENT = KN$IOP.EVENT;

  25309   1 000422  DCC7 001F                            LDB,B5   IOP$,AUTO
          1 000424  C845 001A                            LDR,R4   26,B5
          1 000426  CF47 0022                            STR,R4   EVENT,AUTO

     1909    25310    3               CALL GHS$EVENT (KNA$SSN.USER#,%GH_USRDMN#,%G_IO_CMP#,EVENT,TCB_ERR,NWIO
             25310                         );

  25310   1 000428  CBF0 0000                            LAB,B4   0,IMO
          1 00042A  BBF0 0005                            LAB,B3   5,IMO
          1 00042C  ABC7 0051                            LAB,B2   NWIO,AUTO
          1 00042E  AFC7 0074                            STB,B2   ROUTINE+14,AUTO
          1 000430  9BC7 0062                            LAB,B1   TCB_ERR,AUTO
          1 000432  9FC7 0072                            STB,B1   ROUTINE+12,AUTO
          1 000434  EBC7 0022                            LAB,B6   EVENT,AUTO
          1 000436  EFC7 0070                            STB,B6   ROUTINE+10,AUTO
          1 000438  BFC7 006E                            STB,B3   ROUTINE+8,AUTO
          1 00043A  CFC7 006C                            STB,B4   ROUTINE+6,AUTO
          1 00043C  ECC7 001D                            LDB,B6   SSN$,AUTO
          1 00043E  DBC6 0011                            LAB,B5   17,B6
          1 000440  DFC7 006A                            STB,B5   ROUTINE+4,AUTO
PL6.E3A0      #003=KNA$USERIO File=KNA$APE.:E05TSI                               WED 07/30/97 00:58 Page:313
          1 000442  BBC7 006A                            LAB,B3   ROUTINE+4,AUTO
          1 000444  CBF0 0600                            LAB,B4   1536,IMO
          1 000446  E380 0000 0000  xent                 LNJ,B6   GHS$EVENT
          1 000449       0001                            DC       s:25311,PREL

     1910    25311    3                END/*do if ssn.ioprd$ ~= nil*/;

  25311   1 00044A  0F81 0017                            B        s:25330,PREL

     1911    25312        /*E* ERROR: KNA-E$XTRARD-0
     1912    25313             MESSAGE: Read errored because of another read issued.
     1913    25314        */
     1914    25315
     1915    25316    3           ELSE DO;                        /*when no read is outstanding*/

  25309   1                              READ_COMPLETED  null
     1916    25317    3   READ_COMPLETED: ;
     1917    25318    3                CALL KNA$GETIOP(IOP$)

  25318   1 00044C  EBC7 001F            READ_COMPLETED  LAB,B6   IOP$,AUTO
          1 00044E  EFC7 006A                            STB,B6   ROUTINE+4,AUTO
          1 000450  BBC7 006A                            LAB,B3   ROUTINE+4,AUTO
          1 000452  CBF0 0100                            LAB,B4   256,IMO
          1 000454  E380 0000 0000  xent                 LNJ,B6   KNA$GETIOP
          1 000457       0003                            DC       s:25321,PREL
          1 000458  0F81 0009                            B        s:25330,PREL

     1918    25319    4                WHENALTRETURN DO;

     1919    25320
     1920    25321    4                     ERROR = ENO_IOP;

  25321   1 00045A  8C80 0000 0006  00                   LDI      ENO_IOP
          1 00045D  ECC7 0008                            LDB,B6   @ERROR,AUTO
          1 00045F  8D06                                 SDI      ,B6

     1921    25322    4                     GOTO FINISHED;
PL6.E3A0      #003=KNA$USERIO File=KNA$APE.:E05TSI                               WED 07/30/97 00:58 Page:314

  25322   1 000460  0F81 020D                            B        s:25450,PREL

     1922    25323    4                     END;
     1923    25324    3                END/*else do*/;

     1924    25325        /*E* ERROR: KNA-E$NO_IOP
     1925    25326             MESSAGE: No I/O packets available for this operation.
     1926    25327        */
     1927    25328
     1928    25329
     1929    25330    2           KN$IOP = '0'B;

  25330   1 000462  ECC7 001F                            LDB,B6   IOP$,AUTO
          1 000464  5C36                                 LDV,R5   54
          1 000465  0021                                 ALR      ;
          1 000466       4178 0000                                ALPHANUM('0000'X,IMO,,1),;
          1 000468       4006 0000                                ALPHANUM(0,B6,,R5,FILL)

     1930    25331    2           IOP$->KN$IOP.FLAGS.INUSE = '1'B;

  25331   1 00046A  437F                                 CSYNC    s:25330+7,SPREL
          1 00046B  ECC7 001F                            LDB,B6   IOP$,AUTO
          1 00046D  8946 0003                            LBT,'1000'X       3,B6
          1 00046F       1000

     1931    25332    2           IOP$->KN$IOP.L.USER# = G$JIT.USR#;

  25332   1 000470  EC80 0000 0000  xsym                 LDB,B6   G$JIT$
          1 000473  DCC7 001F                            LDB,B5   IOP$,AUTO
          1 000475  E846 0004                            LDR,R6   4,B6
          1 000477  EAC5 000F                            SRM,R6,'00FF'X    15,B5
          1 000479       00FF

     1932    25333        /*
     1933    25334          Link up the new I/O packet.  If this is the first one on the chain,
     1934    25335          also setup the pointer from APE session context.
PL6.E3A0      #003=KNA$USERIO File=KNA$APE.:E05TSI                               WED 07/30/97 00:58 Page:315
     1935    25336                                                                                      */
     1936    25337    2           KNA$SSN.IOPRD$=IOP$;

  25337   1 00047A  DCC7 001F                            LDB,B5   IOP$,AUTO
          1 00047C  CCC7 001D                            LDB,B4   SSN$,AUTO
          1 00047E  DFC4 000D                            STB,B5   13,B4

     1937    25338
     1938    25339    2           KN$IOP.FLAGS.WAIT='1'B;

  25339   1 000480  DCC7 001F                            LDB,B5   IOP$,AUTO
          1 000482  8945 0003                            LBT,'4000'X       3,B5
          1 000484       4000

     1939    25340
     1940    25341    2           KN$IOP.DCB$=DCB$;

  25341   1 000485  DCC7 001B                            LDB,B5   DCB$,AUTO
          1 000487  CCC7 001F                            LDB,B4   IOP$,AUTO
          1 000489  DFC4 000A                            STB,B5   10,B4

     1941    25342    2           CALL KNA$SAVEMAP (DCB$,KN$IOP.DCBSEGDES);

  25342   1 00048B  DCC7 001F                            LDB,B5   IOP$,AUTO
          1 00048D  CBC5 0014                            LAB,B4   20,B5
          1 00048F  CFC7 006C                            STB,B4   ROUTINE+6,AUTO
          1 000491  BBC7 001B                            LAB,B3   DCB$,AUTO
          1 000493  BFC7 006A                            STB,B3   ROUTINE+4,AUTO
          1 000495  BBC7 006A                            LAB,B3   ROUTINE+4,AUTO
          1 000497  CBF0 0200                            LAB,B4   512,IMO
          1 000499  E380 0000 0000  xent                 LNJ,B6   KNA$SAVEMAP
          1 00049C       0001                            DC       s:25343,PREL

     1942    25343    2           KN$IOP.BUF_ = FPT_BUF$;

  25343   1 00049D  AB87                                 LAB,B2   ,AUTO
          1 00049E  2C2E                                 LDV,R2   46
PL6.E3A0      #003=KNA$USERIO File=KNA$APE.:E05TSI                               WED 07/30/97 00:58 Page:316
          1 00049F  6C06                                 LDV,R6   6
          1 0004A0  BCC7 001F                            LDB,B3   IOP$,AUTO
          1 0004A2  3C08                                 LDV,R3   8
          1 0004A3  0008                                 MMM

     1943    25344    2           CALL KNA$SAVEMAP(VBASE(KN$IOP.BUF_),KN$IOP.BUFSEGDES);

  25344   1 0004A4  ECC7 001F                            LDB,B6   IOP$,AUTO
          1 0004A6  DBC6 0010                            LAB,B5   16,B6
          1 0004A8  DFC7 006C                            STB,B5   ROUTINE+6,AUTO
          1 0004AA  CBC6 0005                            LAB,B4   5,B6
          1 0004AC  CFC7 006A                            STB,B4   ROUTINE+4,AUTO
          1 0004AE  BBC7 006A                            LAB,B3   ROUTINE+4,AUTO
          1 0004B0  CBF0 0200                            LAB,B4   512,IMO
          1 0004B2  E380 0000 0000  xent                 LNJ,B6   KNA$SAVEMAP
          1 0004B5       0001                            DC       s:25348,PREL

     1944    25345
     1945    25346        /*     Set up for sending a READ REQUEST for the data
     1946    25347        */
     1947    25348    2           K$RWPARM.STR = STR;

  25348   1 0004B6  E847 000E                            LDR,R6   STR,AUTO
          1 0004B8  EAC7 0045                            SRM,R6,'00FF'X    K$RWPARM+29,AUTO
          1 0004BA       00FF

     1948    25349    2           K$RWPARM.MAXRCRBYTSIZ = MSGSIZE;

  25349   1 0004BB  D847 000C                            LDR,R5   MSGSIZE,AUTO
          1 0004BD  DF47 0048                            STR,R5   K$RWPARM+32,AUTO

     1949    25350    2           K$RWPARM.MAXNMBRCR=1;

  25350   1 0004BF  4C01                                 LDV,R4   1
          1 0004C0  CF47 0046                            STR,R4   K$RWPARM+30,AUTO

     1950    25351    2           K$RWPARM.MAXNMBBYT=6000;
PL6.E3A0      #003=KNA$USERIO File=KNA$APE.:E05TSI                               WED 07/30/97 00:58 Page:317

  25351   1 0004C2  B870 1770                            LDR,R3   6000,IMO
          1 0004C4  BF47 0047                            STR,R3   K$RWPARM+31,AUTO

     1951    25352    2           IF USRFPT$ ~= ADDR(NIL)

  25352   1 0004C6  8DC7 0010                            CMN      USRFPT$,AUTO
          1 0004C8  0901 0077                            BE       s:25381,PREL

     1952    25353    3           THEN DO;

     1953    25354    3                KN$IOP.FLAGS.WAIT = FPT_READ.V.WAIT;

  25354   1 0004CA  ECC7 0010                            LDB,B6   USRFPT$,AUTO
          1 0004CC  A806                                 LDR,R2   ,B6
          1 0004CD  2009                                 SOL,R2   9
          1 0004CE  DCC7 001F                            LDB,B5   IOP$,AUTO
          1 0004D0  AAC5 0003                            SRM,R2,'4000'X    3,B5
          1 0004D2       4000

     1954    25355    4                IF FPT_READ.V.READMLT THEN DO;

  25355   1 0004D3  8286                                 LB,'0004'X        ,B6
  25355   1 0004D4       0004
          1 0004D5  0581 000D                            BBF      s:25360,PREL

     1955    25356    4                     KN$IOP.FLAGS.READMLT = '1'B;

  25356   1 0004D7  DCC7 001F                            LDB,B5   IOP$,AUTO
          1 0004D9  8945 0003                            LBT,'0800'X       3,B5
          1 0004DB       0800

     1956    25357    4                     K$RWPARM.READMLT = '1'B;

  25357   1 0004DC  8947 0038                            LBT,'4000'X       K$RWPARM+16,AUTO
  25357   1 0004DE       4000

PL6.E3A0      #003=KNA$USERIO File=KNA$APE.:E05TSI                               WED 07/30/97 00:58 Page:318
     1957    25358    4                     K$RWPARM.MAXNMBBYT = K$RWPARM.MAXRCRBYTSIZ;

  25358   1 0004DF  A847 0048                            LDR,R2   K$RWPARM+32,AUTO
          1 0004E1  AF47 0047                            STR,R2   K$RWPARM+31,AUTO

     1958    25359    4                     END;

     1959    25360    3                KN$IOP.EVENT = FPT_READ.V.EVENT;

  25360   1 0004E3  DCC7 001F                            LDB,B5   IOP$,AUTO
          1 0004E5  A846 0001                            LDR,R2   1,B6
          1 0004E7  AF45 001A                            STR,R2   26,B5

     1960    25361    3                K$RWPARM.DVE.DVBYTE = FPT_READ.V.DVBYTE;

  25361   1 0004E9  A2C6 0002                            LLH,R2   2,B6
          1 0004EB  2008                                 SOL,R2   8
          1 0004EC  2048                                 SOR,R2   8
          1 0004ED  A7C7 0037                            STH,R2   K$RWPARM+15,AUTO

     1961    25362    3                K$RWPARM.KEYTYPE = FPT_READ.V.KEYTYPE;

  25362   1 0004EF  A846 0002                            LDR,R2   2,B6
          1 0004F1  A570 00FF                            AND,R2   255,IMO
          1 0004F3  A7C7 0050                            STH,R2   K$RWPARM+40,AUTO

     1962    25363    3                IF K$RWPARM.KEYTYPE = 0

  25363   1 0004F5  A2C7 0050                            LLH,R2   K$RWPARM+40,AUTO
          1 0004F7  2981 0007                            BNEZ,R2  s:25365,PREL

     1963    25364    3                THEN K$RWPARM.KEYTYPE = MYDCB.KEYTYPE;

  25364   1 0004F9  DCC7 001B                            LDB,B5   DCB$,AUTO
          1 0004FB  92C5 0024                            LLH,R1   36,B5
          1 0004FD  97C7 0050                            STH,R1   K$RWPARM+40,AUTO

PL6.E3A0      #003=KNA$USERIO File=KNA$APE.:E05TSI                               WED 07/30/97 00:58 Page:319
     1964    25365    3                IF FPT_READ.V.KEYS

  25365   1 0004FF  8286                                 LB,'0080'X        ,B6
  25365   1 000500       0080
          1 000501  0581 000A                            BBF      s:25370,PREL

     1965    25366    4                THEN DO;

     1966    25367    4                     K$RWPARM.KEY$ = KEY$;

  25367   1 000503  DCC7 0012                            LDB,B5   KEY$,AUTO
          1 000505  DFC7 004B                            STB,B5   K$RWPARM+35,AUTO

     1967    25368    4                     K$RWPARM.KEYSZ = KEYSZ;

  25368   1 000507  A847 0014                            LDR,R2   KEYSZ,AUTO
          1 000509  AAC7 0050                            SRM,R2,'00FF'X    K$RWPARM+40,AUTO
          1 00050B       00FF

     1968    25369    4                     END;

     1969    25370    3                IF FPT_READ.V.KEYR

  25370   1 00050C  8286                                 LB,'0040'X        ,B6
  25370   1 00050D       0040
          1 00050E  0581 0028                            BBF      s:25377,PREL

     1970    25371    4                THEN DO;

     1971    25372    4                     VBASE(KN$IOP.KEY_) = KEY$;

  25372   1 000510  DCC7 0012                            LDB,B5   KEY$,AUTO
          1 000512  CCC7 001F                            LDB,B4   IOP$,AUTO
          1 000514  DFC4 0008                            STB,B5   8,B4

     1972    25373    4                     VBOUND(KN$IOP.KEY_) = KEYSZ - 1;

PL6.E3A0      #003=KNA$USERIO File=KNA$APE.:E05TSI                               WED 07/30/97 00:58 Page:320
  25373   1 000516  CCC7 001F                            LDB,B4   IOP$,AUTO
          1 000518  A847 0014                            LDR,R2   KEYSZ,AUTO
          1 00051A  2EFF                                 ADV,R2   -1
          1 00051B  AF44 0007                            STR,R2   7,B4

     1973    25374    4                     CALL KNA$SAVEMAP(VBASE(KN$IOP.KEY_),KN$IOP.KEYSEGDES);

  25374   1 00051D  CCC7 001F                            LDB,B4   IOP$,AUTO
          1 00051F  BBC4 0012                            LAB,B3   18,B4
          1 000521  BFC7 006C                            STB,B3   ROUTINE+6,AUTO
          1 000523  ABC4 0008                            LAB,B2   8,B4
          1 000525  AFC7 006A                            STB,B2   ROUTINE+4,AUTO
          1 000527  BBC7 006A                            LAB,B3   ROUTINE+4,AUTO
          1 000529  CBF0 0200                            LAB,B4   512,IMO
          1 00052B  E380 0000 0000  xent                 LNJ,B6   KNA$SAVEMAP
          1 00052E       0001                            DC       s:25375,PREL

     1974    25375    4                     KN$IOP.KEYTYPE = K$RWPARM.KEYTYPE;

  25375   1 00052F  ECC7 001F                            LDB,B6   IOP$,AUTO
          1 000531  E2C7 0050                            LLH,R6   K$RWPARM+40,AUTO
          1 000533  EF46 0002                            STR,R6   2,B6

     1975    25376    4                     END;

  25376   1 000535  0F81 000A                            B        s:25381,PREL

     1976    25377    3                ELSE KN$IOP.KEY_ = VECTOR(NIL);

  25377   1 000537  AB80 0000 0000  02                   LAB,B2   0
          1 00053A  2C06                                 LDV,R2   6
          1 00053B  6C06                                 LDV,R6   6
          1 00053C  BCC7 001F                            LDB,B3   IOP$,AUTO
          1 00053E  3C0E                                 LDV,R3   14
          1 00053F  0008                                 MMM

     1977    25378    3                END;
PL6.E3A0      #003=KNA$USERIO File=KNA$APE.:E05TSI                               WED 07/30/97 00:58 Page:321

     1978    25379
     1979    25380
     1980    25381    2           K$RWPARM.VDOFLGS.WAIT = KN$IOP.FLAGS.WAIT;

  25381   1 000540  ECC7 001F                            LDB,B6   IOP$,AUTO
          1 000542  E846 0003                            LDR,R6   3,B6
          1 000544  604A                                 SOR,R6   10
          1 000545  EAC7 0044                            SRM,R6,'0010'X    K$RWPARM+28,AUTO
          1 000547       0010

     1981    25382
     1982    25383    2           CALL KNA$FCNOU (%KV_VDO_FNC_RQSDAT,KNA$SSN,K$RWPARM,ERR)

  25383   1 000548  DBF0 0016                            LAB,B5   22,IMO
          1 00054A  CBC7 0061                            LAB,B4   ERR,AUTO
          1 00054C  CFC7 0070                            STB,B4   ROUTINE+10,AUTO
          1 00054E  BBC7 0028                            LAB,B3   K$RWPARM,AUTO
          1 000550  BFC7 006E                            STB,B3   ROUTINE+8,AUTO
          1 000552  ACC7 001D                            LDB,B2   SSN$,AUTO
          1 000554  AFC7 006C                            STB,B2   ROUTINE+6,AUTO
          1 000556  DFC7 006A                            STB,B5   ROUTINE+4,AUTO
          1 000558  BBC7 006A                            LAB,B3   ROUTINE+4,AUTO
          1 00055A  CBF0 0400                            LAB,B4   1024,IMO
          1 00055C  E380 0000 0000  xent                 LNJ,B6   KNA$FCNOU
          1 00055F       0003                            DC       s:25385,PREL
          1 000560  0F81 0016                            B        s:25393,PREL

     1983    25384    3           WHENALTRETURN DO;

     1984    25385    3                CALL KNA$RLSIOP(IOP$);

  25385   1 000562  EBC7 001F                            LAB,B6   IOP$,AUTO
          1 000564  EFC7 006A                            STB,B6   ROUTINE+4,AUTO
          1 000566  BBC7 006A                            LAB,B3   ROUTINE+4,AUTO
          1 000568  CBF0 0100                            LAB,B4   256,IMO
          1 00056A  E380 0000 0000  xent                 LNJ,B6   KNA$RLSIOP
PL6.E3A0      #003=KNA$USERIO File=KNA$APE.:E05TSI                               WED 07/30/97 00:58 Page:322
          1 00056D       0001                            DC       s:25386,PREL

     1985    25386    3                KNA$SSN.IOPRD$ = ADDR(NIL);

  25386   1 00056E  EB80 0000 0000                       LAB,B6   0
          1 000571  DCC7 001D                            LDB,B5   SSN$,AUTO
          1 000573  EFC5 000D                            STB,B6   13,B5

     1986    25387    3                GOTO SSN_ERR;

  25387   1 000575  0F81 FD74                            B        s:25221,PREL

     1987    25388    3                END;
     1988    25389
     1989    25390
     1990    25391        /* Update the various read counters.
     1991    25392        */
     1992    25393    3           DO CASE(RESTYPE);

  25393   1 000577  B847 000D                            LDR,R3   RESTYPE,AUTO
          1 000579  3D05                                 CMV,R3   5
          1 00057A  0281 0038                            BGE      s:25408,PREL
          1 00057C  A830 0000 0582  01                   LDR,R2   s:25393+11,R3
          1 00057F  83A0 0000 0587  01                   JMP      s:25395,R2
          1 000582       002C                            DC       s:25408,PREL
          1 000583       0000                            DC       s:25395,PREL
          1 000584       000F                            DC       s:25398,PREL
          1 000585       001E                            DC       s:25401,PREL
          1 000586       0026                            DC       s:25403,PREL

     1993    25394    3            CASE(%G_DDEV_RES_HO#);

     1994    25395    3              G$JIT.READS_HOST = G$JIT.READS_HOST +1;

  25395   1 000587  EC80 0000 0000  xsym                 LDB,B6   G$JIT$
          1 00058A  8AC6 0041                            INC      65,B6
          1 00058C  8EC6 0040                            CAD      64,B6
PL6.E3A0      #003=KNA$USERIO File=KNA$APE.:E05TSI                               WED 07/30/97 00:58 Page:323

     1995    25396    3              PS_LCP6STT.READS_HOST = PS_LCP6STT.READS_HOST +1;

  25396   1 00058E  8A80 0000 0057  xsym                 INC      PS_LCP6STT+87
          1 000591  8E80 0000 0056  xsym                 CAD      PS_LCP6STT+86
          1 000594  0F81 001E                            B        s:25408,PREL

     1996    25397    3            CASE(%G_DDEV_RES_UC#);

     1997    25398    3              G$JIT.READS_UC = G$JIT.READS_UC +1;

  25398   1 000596  EC80 0000 0000  xsym                 LDB,B6   G$JIT$
          1 000599  8AC6 0045                            INC      69,B6
          1 00059B  8EC6 0044                            CAD      68,B6

     1998    25399    3              PS_LCP6STT.READS_UC = PS_LCP6STT.READS_UC +1;

  25399   1 00059D  8A80 0000 0059  xsym                 INC      PS_LCP6STT+89
          1 0005A0  8E80 0000 0058  xsym                 CAD      PS_LCP6STT+88
          1 0005A3  0F81 000F                            B        s:25408,PREL

     1999    25400    3            CASE(%G_DDEV_RES_LG#);

     2000    25401    3              PS_LCP6STT.READS_LG = PS_LCP6STT.READS_LG +1;

  25401   1 0005A5  8A80 0000 005B  xsym                 INC      PS_LCP6STT+91
          1 0005A8  8E80 0000 005A  xsym                 CAD      PS_LCP6STT+90
          1 0005AB  0F81 0007                            B        s:25408,PREL

     2001    25402    3            CASE(%G_DDEV_RES_NA#);

     2002    25403    3              PS_LCP6STT.READS_NA = PS_LCP6STT.READS_NA +1;

  25403   1 0005AD  8A80 0000 005D  xsym                 INC      PS_LCP6STT+93
          1 0005B0  8E80 0000 005C  xsym                 CAD      PS_LCP6STT+92

     2003    25404    3              END/*do case*/;
PL6.E3A0      #003=KNA$USERIO File=KNA$APE.:E05TSI                               WED 07/30/97 00:58 Page:324

     2004    25405
     2005    25406        /* If this is a no wait I/O then return.
     2006    25407        */
     2007    25408    2           IF NOT KN$IOP.FLAGS.WAIT

  25408   1 0005B3  ECC7 001F                            LDB,B6   IOP$,AUTO
          1 0005B5  82C6 0003                            LB,'4000'X        3,B6
          1 0005B7       4000
          1 0005B8  0581 00B5                            BBF      s:25450,PREL

     2008    25409    2           THEN GOTO FINISHED;
     2009    25410        /*     We sent off the message, now we just wait for the user to get
     2010    25411        his data delivered.
     2011    25412        */
     2012    25413    2           IF STR = KIDM_MON

  25413   1 0005BA  E847 000E                            LDR,R6   STR,AUTO
          1 0005BC  6D7F                                 CMV,R6   127
          1 0005BD  0981 001D                            BNE      s:25418,PREL
          1 0005BF  8DC7 0010                            CMN      USRFPT$,AUTO
          1 0005C1  0901 0007                            BE       s:25416,PREL
          1 0005C3  DCC7 0010                            LDB,B5   USRFPT$,AUTO
          1 0005C5  8285                                 LB,'0010'X        ,B5
          1 0005C6       0010
          1 0005C7  0501 0013                            BBT      s:25418,PREL

     2013    25414    2             AND (USRFPT$ = ADDR(NIL) OR NOT FPT_READ.V.BRKABLE)
     2014    25415    2           THEN
     2015    25416    2                CALL KNA$REG_USER(%GH_EVCW,SSN$);

  25416   1 0005C9  DBF0 0015                            LAB,B5   21,IMO
          1 0005CB  CBC7 001D                            LAB,B4   SSN$,AUTO
          1 0005CD  CFC7 006C                            STB,B4   ROUTINE+6,AUTO
          1 0005CF  DFC7 006A                            STB,B5   ROUTINE+4,AUTO
          1 0005D1  BBC7 006A                            LAB,B3   ROUTINE+4,AUTO
          1 0005D3  CBF0 0200                            LAB,B4   512,IMO
PL6.E3A0      #003=KNA$USERIO File=KNA$APE.:E05TSI                               WED 07/30/97 00:58 Page:325
          1 0005D5  E380 0000 0000  xent                 LNJ,B6   KNA$REG_USER
          1 0005D8       0001                            DC       s:25416+16,PREL
          1 0005D9  0F81 0011                            B        s:25420,PREL

     2016    25417    2           ELSE
     2017    25418    2                CALL KNA$REG_USER(%GH_EVCRD,SSN$);

  25418   1 0005DB  DBF0 0016                            LAB,B5   22,IMO
          1 0005DD  CBC7 001D                            LAB,B4   SSN$,AUTO
          1 0005DF  CFC7 006C                            STB,B4   ROUTINE+6,AUTO
          1 0005E1  DFC7 006A                            STB,B5   ROUTINE+4,AUTO
          1 0005E3  BBC7 006A                            LAB,B3   ROUTINE+4,AUTO
          1 0005E5  CBF0 0200                            LAB,B4   512,IMO
          1 0005E7  E380 0000 0000  xent                 LNJ,B6   KNA$REG_USER
          1 0005EA       0001                            DC       s:25420,PREL

     2018    25419
     2019    25420    2           IF NOT KN$IOP.FLAGS.RDDONE      /* Read did not finish                */

  25420   1 0005EB  ECC7 001F                            LDB,B6   IOP$,AUTO
          1 0005ED  82C6 0003                            LB,'2000'X        3,B6
          1 0005EF       2000
          1 0005F0  0501 003C                            BBT      s:25433,PREL

     2020    25421    3           THEN DO;

     2021    25422    3                K$RWPARM.MAXNMBRCR = 0;

  25422   1 0005F2  8747 0046                            CL       K$RWPARM+30,AUTO

     2022    25423    3                IF NOT KNA$SSN.FLAGS.MRKPND AND NOT KNA$SSN.FLAGS.SSNERR

  25423   1 0005F4  DCC7 001D                            LDB,B5   SSN$,AUTO
          1 0005F6  8285                                 LB,'0080'X        ,B5
          1 0005F7       0080
          1 0005F8  0501 0008                            BBT      s:25426,PREL
          1 0005FA  8285                                 LB,'0800'X        ,B5
PL6.E3A0      #003=KNA$USERIO File=KNA$APE.:E05TSI                               WED 07/30/97 00:58 Page:326
          1 0005FB       0800
          1 0005FC  0501 0004                            BBT      s:25426,PREL

     2023    25424    3                THEN
     2024    25425    3                     CALL CANCEL_READ;

  25425   1 0005FE  E3C0 008B                            LNJ,B6   s:0,PREL
          1 000600       0001                            DC       s:25426,PREL

     2025    25426    3                IF KN$IOP.FLAGS.RDDONE AND NOT G$MHJIT.CU$->G$U.ASYNCH & %U_ALIBFD

  25426   1 000601  ECC7 001F                            LDB,B6   IOP$,AUTO
          1 000603  82C6 0003                            LB,'2000'X        3,B6
          1 000605       2000
          1 000606  0581 000C                            BBF      s:25428,PREL
          1 000608  DC80 0000 0000  xsym                 LDB,B5   G$MHJIT$
          1 00060B  CCC5 0352                            LDB,B4   850,B5
          1 00060D  E844 0001                            LDR,R6   1,B4
          1 00060F  E570 0800                            AND,R6   2048,IMO
          1 000611  6901 001B                            BEZ,R6   s:25433,PREL

     2026    25427    3                THEN EXIT;
     2027    25428    3                IF KNA$SSN.FLAGS.SSNERR THEN KN$IOP.ERRCODE = KNA$SSN.ERROR;

  25428   1 000613  DCC7 001D                            LDB,B5   SSN$,AUTO
          1 000615  8285                                 LB,'0800'X        ,B5
          1 000616       0800
          1 000617  0581 0006                            BBF      s:25429,PREL

  25428   1 000619  8CC5 0001                            LDI      1,B5
          1 00061B  8D06                                 SDI      ,B6
          1 00061C  0F81 0005                            B        s:25430,PREL

     2028    25429    3                ELSE KN$IOP.ERRCODE = EBYD;

  25429   1 00061E  8C80 0000 000C  00                   LDI      EBYD
          1 000621  8D06                                 SDI      ,B6
PL6.E3A0      #003=KNA$USERIO File=KNA$APE.:E05TSI                               WED 07/30/97 00:58 Page:327

     2029    25430    3                IF STR ~= KIDM_MON

  25430   1 000622  E847 000E                            LDR,R6   STR,AUTO
          1 000624  6D7F                                 CMV,R6   127
          1 000625  0901 0007                            BE       s:25433,PREL

     2030    25431    3                THEN G$JIT.JUNK.BACKP$='1'B;

  25431   1 000627  EC80 0000 0000  xsym                 LDB,B6   G$JIT$
          1 00062A  8946 0098                            LBT,'0100'X       152,B6
          1 00062C       0100

     2031    25432    3                END;

     2032    25433    2           IF KNA$SSN.FLAGS.MRKPND

  25433   1 00062D  ECC7 001D                            LDB,B6   SSN$,AUTO
          1 00062F  8286                                 LB,'0080'X        ,B6
          1 000630       0080
          1 000631  0581 0004                            BBF      s:25437,PREL

     2033    25434    2           THEN
     2034    25435    2                CALL SEND_MARKER;

  25435   1 000633  E3C0 0091                            LNJ,B6   s:0,PREL
          1 000635       0001                            DC       s:25437,PREL

     2035    25436
     2036    25437    2           ERROR = KN$IOP.ERRCODE;

  25437   1 000636  ECC7 001F                            LDB,B6   IOP$,AUTO
          1 000638  8C86                                 LDI      ,B6
          1 000639  DCC7 0008                            LDB,B5   @ERROR,AUTO
          1 00063B  8D05                                 SDI      ,B5

     2037    25438    2           IF PARMSPEC AND KNA_PARAMS.PTRS.PAR4$ ~= ADDR(NIL)
PL6.E3A0      #003=KNA$USERIO File=KNA$APE.:E05TSI                               WED 07/30/97 00:58 Page:328

  25438   1 00063C  89C7 000F                            CMZ      PARMSPEC,AUTO
          1 00063E  0881 0010                            BAGE     s:25440,PREL
          1 000640  ECC7 000A                            LDB,B6   @KNA_PARAMS,AUTO
          1 000642  8DC6 000C                            CMN      12,B6
          1 000644  0901 000A                            BE       s:25440,PREL

     2038    25439    2           THEN KNA_PARAMS.PTRS.PAR4$->VLP_CG.MSGTYP# = KN$IOP.MSGTYPE;

  25439   1 000646  CCC6 000C                            LDB,B4   12,B6
          1 000648  ACC7 001F                            LDB,B2   IOP$,AUTO
          1 00064A  2C2C                                 LDV,R2   44
          1 00064B  6C08                                 LDV,R6   8
          1 00064C  BB84                                 LAB,B3   ,B4
          1 00064D  3C08                                 LDV,R3   8
          1 00064E  0008                                 MMM

     2039    25440    2           KNA$SSN.IOPRD$=ADDR(NIL);

  25440   1 00064F  EB80 0000 0000                       LAB,B6   0
          1 000652  CCC7 001D                            LDB,B4   SSN$,AUTO
          1 000654  EFC4 000D                            STB,B6   13,B4

     2040    25441    2           CALL KNA$RLSIOP(IOP$);

  25441   1 000656  EBC7 001F                            LAB,B6   IOP$,AUTO
          1 000658  EFC7 006A                            STB,B6   ROUTINE+4,AUTO
          1 00065A  BBC7 006A                            LAB,B3   ROUTINE+4,AUTO
          1 00065C  CBF0 0100                            LAB,B4   256,IMO
          1 00065E  E380 0000 0000  xent                 LNJ,B6   KNA$RLSIOP
          1 000661       0001                            DC       s:25442,PREL

     2041    25442    2           IF MYDCB.TYC.LD# = '1'B

  25442   1 000662  ECC7 001B                            LDB,B6   DCB$,AUTO
          1 000664  89C6 0001                            CMZ      1,B6
          1 000666  0881 0007                            BAGE     s:25450,PREL
PL6.E3A0      #003=KNA$USERIO File=KNA$APE.:E05TSI                               WED 07/30/97 00:58 Page:329

     2042    25443    3           THEN DO;

     2043    25444
     2044    25445        /*E*     ERROR: KNA-E$LD
     2045    25446                 MESSAGE: The supplied buffer was too small
     2046    25447        */
     2047    25448    3                ERROR = ESHORT_BUFFER;

  25448   1 000668  8C80 0000 0008  00                   LDI      ESHORT_BUFFER
          1 00066B  DCC7 0008                            LDB,B5   @ERROR,AUTO
          1 00066D  8D05                                 SDI      ,B5

     2048    25449    3                END;

     2049    25450    2           END;

  25439   1                              FINISHED        null
     2050    25451    1   FINISHED:;
     2051    25452           %UNLOCK (G=KNA_LNKSSN);

  25457   1 00066E  BB80 0000 0001  02   FINISHED        LAB,B3   +1
          1 000671  CBF0 0100                            LAB,B4   256,IMO
          1 000673  E380 0000 0000  xent                 LNJ,B6   GHH$UNLOCK
          1 000676       0001                            DC       s:25459,PREL

     2052    25459    1      IF ERROR ~= '0'B

  25459   1 000677  ECC7 0008                            LDB,B6   @ERROR,AUTO
          1 000679  DB80 0000 0000  02                   LAB,B5   0
          1 00067C  5C01                                 LDV,R5   1
          1 00067D  0022                                 ACM      ;
          1 00067E       4406 0000                                ALPHANUM(0,B6,,4,FILL),;
          1 000680       4005 0000                                ALPHANUM(0,B5,,R5,FILL)
          1 000682  5381 0004                            CBE      s:25462,PREL

     2053    25460    1      THEN
PL6.E3A0      #003=KNA$USERIO File=KNA$APE.:E05TSI                               WED 07/30/97 00:58 Page:330
     2054    25461    1           ALTRETURN;

  25461   1 000684  C380 0000 0000  xent                 LNJ,B4   X6A_AALT

     2055    25462    1      RETURN;

  25462   1 000687  C380 0000 0000  xent                 LNJ,B4   X6A_ARET

     2056    25463
     2057    25464    1   CANCEL_READ: PROC ALTRET;

  25464   1 00068A  EFC7 0068            CANCEL_READ     STB,B6   ROUTINE+2,AUTO

     2058    25465
     2059    25466    2      K$RWPARM.MRKTYP = %KV_VDOMRKTYP_ENDACK;

  25466   1 00068C  6C01                                 LDV,R6   1
          1 00068D  E7C7 0045                            STH,R6   K$RWPARM+29,AUTO

     2060    25467    2      CALL KNA$FCNOU (%KV_VDO_FNC_RQSDAT,KNA$SSN,K$RWPARM,ERR)

  25467   1 00068F  DBF0 0016                            LAB,B5   22,IMO
          1 000691  CBC7 0061                            LAB,B4   ERR,AUTO
          1 000693  CFC7 0070                            STB,B4   ROUTINE+10,AUTO
          1 000695  BBC7 0028                            LAB,B3   K$RWPARM,AUTO
          1 000697  BFC7 006E                            STB,B3   ROUTINE+8,AUTO
          1 000699  ACC7 001D                            LDB,B2   SSN$,AUTO
          1 00069B  AFC7 006C                            STB,B2   ROUTINE+6,AUTO
          1 00069D  DFC7 006A                            STB,B5   ROUTINE+4,AUTO
          1 00069F  BBC7 006A                            LAB,B3   ROUTINE+4,AUTO
          1 0006A1  CBF0 0400                            LAB,B4   1024,IMO
          1 0006A3  E380 0000 0000  xent                 LNJ,B6   KNA$FCNOU
          1 0006A6       001B                            DC       s:25475,PREL

     2061    25468    3      WHENRETURN DO;

     2062    25469    3           KNA$SSN.FLAGS.RRRPND = '1'B;
PL6.E3A0      #003=KNA$USERIO File=KNA$APE.:E05TSI                               WED 07/30/97 00:58 Page:331

  25469   1 0006A7  ECC7 001D                            LDB,B6   SSN$,AUTO
          1 0006A9  8906                                 LBT,'0200'X       ,B6
          1 0006AA       0200

     2063    25470    4           CALL KNA$REG_USER(%GH_EVCW,SSN$) WHENALTRETURN DO;

  25470   1 0006AB  EBF0 0015                            LAB,B6   21,IMO
          1 0006AD  DBC7 001D                            LAB,B5   SSN$,AUTO
          1 0006AF  DFC7 006C                            STB,B5   ROUTINE+6,AUTO
          1 0006B1  EFC7 006A                            STB,B6   ROUTINE+4,AUTO
          1 0006B3  BBC7 006A                            LAB,B3   ROUTINE+4,AUTO
          1 0006B5  CBF0 0200                            LAB,B4   512,IMO
          1 0006B7  E380 0000 0000  xent                 LNJ,B6   KNA$REG_USER
          1 0006BA       0003                            DC       s:25471,PREL
          1 0006BB  0F81 0005                            B        s:25475,PREL

     2064    25471    4                ALTRETURN;

  25471   1 0006BD  ECC7 0068                            LDB,B6   ROUTINE+2,AUTO
          1 0006BF  B806                                 LDR,R3   ,B6
          1 0006C0  C3B6                                 LNJ,B4   ,B6,R3

     2065    25472    4                END;
     2066    25473    3           END;

     2067    25474
     2068    25475    2      RETURN;

  25475   1 0006C1  ECC7 0068                            LDB,B6   ROUTINE+2,AUTO
          1 0006C3  C3C6 0001                            LNJ,B4   1,B6

     2069    25476    2   END CANCEL_READ;
     2070    25477
     2071    25478    1   SEND_MARKER: PROC;

  25478   1 0006C5  EFC7 0068            SEND_MARKER     STB,B6   ROUTINE+2,AUTO
PL6.E3A0      #003=KNA$USERIO File=KNA$APE.:E05TSI                               WED 07/30/97 00:58 Page:332

     2072    25479
     2073    25480    2      K$RWPARM = KNA_RWPARM_CON;

  25480   1 0006C7  AB80 0000 0000  xsym                 LAB,B2   KNA_RWPARM_CON
          1 0006CA  2C00                                 LDV,R2   0
          1 0006CB  6C52                                 LDV,R6   82
          1 0006CC  BB87                                 LAB,B3   ,AUTO
          1 0006CD  3C50                                 LDV,R3   80
          1 0006CE  0008                                 MMM

     2074    25481    2      K$RWPARM.MRKTYP = %KV_VDOMRKTYP_MRK;

  25481   1 0006CF  6C03                                 LDV,R6   3
          1 0006D0  E7C7 0045                            STH,R6   K$RWPARM+29,AUTO

     2075    25482    2      K$RWPARM.MARKER = KNA$SSN.MARKER;

  25482   1 0006D2  ECC7 001D                            LDB,B6   SSN$,AUTO
          1 0006D4  8CC6 0017                            LDI      23,B6
          1 0006D6  8D47 0035                            SDI      K$RWPARM+13,AUTO

     2076    25483    2      CALL KNA$FCNOU(%KV_VDO_FNC_MRK,KNA$SSN,K$RWPARM,ERR);

  25483   1 0006D8  DBF0 001F                            LAB,B5   31,IMO
          1 0006DA  CBC7 0061                            LAB,B4   ERR,AUTO
          1 0006DC  CFC7 0070                            STB,B4   ROUTINE+10,AUTO
          1 0006DE  ABC7 0028                            LAB,B2   K$RWPARM,AUTO
          1 0006E0  AFC7 006E                            STB,B2   ROUTINE+8,AUTO
          1 0006E2  EFC7 006C                            STB,B6   ROUTINE+6,AUTO
          1 0006E4  DFC7 006A                            STB,B5   ROUTINE+4,AUTO
          1 0006E6  BBC7 006A                            LAB,B3   ROUTINE+4,AUTO
          1 0006E8  CBF0 0400                            LAB,B4   1024,IMO
          1 0006EA  E380 0000 0000  xent                 LNJ,B6   KNA$FCNOU
          1 0006ED       0001                            DC       s:25484,PREL

     2077    25484    2      KNA$SSN.FLAGS.MRKPND = '0'B;
PL6.E3A0      #003=KNA$USERIO File=KNA$APE.:E05TSI                               WED 07/30/97 00:58 Page:333

  25484   1 0006EE  ECC7 001D                            LDB,B6   SSN$,AUTO
          1 0006F0  8806                                 LBF,'0080'X       ,B6
          1 0006F1       0080

     2078    25485    2      RETURN;

  25485   1 0006F2  ECC7 0068                            LDB,B6   ROUTINE+2,AUTO
          1 0006F4  C3C6 0001                            LNJ,B4   1,B6
     2079    25486    2   END SEND_MARKER;
     2080    25487    1   END KNA$USERIO;

PL6.E3A0      #003=KNA$USERIO File=KNA$APE.:E05TSI                               WED 07/30/97 00:58 Page:334
--  Include file information  --

   K$RWPARM.:E05TOU  is referenced.
   KV$VDO.:E05TOU  is referenced.
   GM_VIRTUAL_E.:E05TOU  is referenced.
   UD_ERRORS_C.:E05TOU  is referenced.
   F_ERRORS_C.:E05TOU  is referenced.
   G_LCP6_E.:E05TOU  is referenced.
   GF_LCP6_M.:E05TOU  is referenced.
   GU_MACROS_M.:E05TOU  is referenced.
   GU_LCP6_M.:E05TOU  is referenced.
   K_ID_E.:E05TOU  is referenced.
   KL_MACRO_C.:E05TOU  is referenced.
   P_FEP_M.:E05TOU  is referenced.
   K_SCODE_C.:E05TOU  is referenced.
   KN_DATA_M.:E05TOU  is referenced.
   GH_GATE_M.:E05TOU  cannot be made into a system file and is referenced.
   G_JIT_M.:E05TOU  is referenced.
   G_ROS_M.:E05TOU  is referenced.
   G_HJIT_M.:E05TOU  is referenced.
   GH_SCHD_M.:E05TOU  is referenced.
   GH_SCHD_E.:E05TOU  is referenced.
   GH_LCP6_M.:E05TOU  is referenced.
   KI_SUBS_C.:E05TOU  is referenced.
   KI_ERRORS_C.:E05TOU  is referenced.
   KN_ERRORS_C.:E05TOU  is referenced.
   KNA_MACRO_M.:E05TOU  is referenced.
      No diagnostics issued in procedure KNA$USERIO.
PL6.E3A0      #003=KNA$USERIO File=KNA$APE.:E05TSI                               WED 07/30/97 00:58 Page:335

 **** Variables and constants ****

  ****  Section 000 RoData KNA$USERIO

  ****  Scalars and arrays  ****
HexLoc.c.b A Datatyp(siz) R M Lvl/name                 HexLoc.c.b A Datatyp(siz) R M Lvl/name

     4-0-0/w STRC(32)    r     1 EBADBUF                    C-0-0/w STRC(32)    r     1 EBYD
     2-0-0/w STRC(32)    r     1 EDCBNUM                    E-0-0/w STRC(32)    r     1 ELDSC
     A-0-0/w STRC(32)    r     1 ENO_DAT                    6-0-0/w STRC(32)    r     1 ENO_IOP
     8-0-0/w STRC(32)    r     1 ESHORT_BUFFER             10-0-0/w STRC(32)    r     1 EXTRA_READ

  ****  Auto variables  ****

  ****  Scalars and arrays  ****
HexLoc.c.b A Datatyp(siz) R M Lvl/name                 HexLoc.c.b A Datatyp(siz) R M Lvl/name

     4-0-0/w PTR         r     1 @DCBNUMBER                 8-0-0/w PTR         r     1 @ERROR
     A-0-0/w PTR         r     1 @KNA_PARAMS                6-0-0/w PTR         r     1 @UBUF$
    1B-0-0/w PTR         r     1 DCB$                      *0-0-0/w UBIN(16)    r     1 DCBNUMBER
    61-0-0/w UBIN(16)    r     1 ERR                       *0-0-0/w STRC(32)    r     1 ERROR
    22-0-0/w UBIN(16)    r     1 EVENT                     65-0-0/w UBIN(16)    r     1 FCN
    27-0-0/b BIT         r     1 FLOW_CONTROL              17-0-0/w VECT        r     1 FPT_BUF$
    1A-0-0/w UBIN(16)    r     1 FPT_CODE                  1F-0-0/w PTR         r     1 IOP$
    28-0-0/w STRC(656)   r     1 K$RWPARM                  12-0-0/w PTR         r     1 KEY$
    14-0-0/w UBIN(16)    r     1 KEYSZ                     *0-0-0/w STRC(1280)  r     1 KNA_PARAMS
     C-0-0/w UBIN(16)    r     1 MSGSIZE                   51-0-0/w STRC(256)   r     1 NWIO
     F-0-0/b BIT         r     1 PARMSPEC                   D-0-0/w UBIN(16)    r     1 RESTYPE
    66-0-0/w EPTR        r     1 ROUTINE                   1D-0-0/w PTR         r     1 SSN$
     E-0-0/w UBIN(16)    r     1 STR                       62-0-0/b BIT (32)    r     1 TCB_ERR
    *0-0-0/w VECT        r     1 UBUF$                     10-0-0/w PTR         r     1 USRFPT$

  ****  SYMREF variables  ****

  ****  Scalars and arrays  ****
HexLoc.c.b A Datatyp(siz) R M Lvl/name                 HexLoc.c.b A Datatyp(siz) R M Lvl/name

PL6.E3A0      #003=KNA$USERIO File=KNA$APE.:E05TSI                               WED 07/30/97 00:58 Page:336
     0-0-0/w PTR         r     1 G$ASDT_MCL$                0-0-0/w PTR         r     1 G$JIT$
     0-0-0/w PTR         r     1 G$MHJIT$                   0-0-0/w PTR         r     1 G$ROS$
     0-0-0/w PTR         r     1 G$UHJIT$                   0-0-0/w STRC(48)    r     1 KNA_LNKSSN
     0-0-0/w STRC(656)   r     1 KNA_RWPARM_CON             0-0-0/w STRC(2208)  r     1 PS_LCP6STT

  ****  BASED and DCB variables  ****

  ****  Scalars and arrays  ****
HexLoc.c.b A Datatyp(siz) R M Lvl/name                 HexLoc.c.b A Datatyp(siz) R M Lvl/name

     0-0-0/w STRC(48)    r     1 FPT_READ                   0-0-0/w STRC(48)    r     1 FPT_WRITE
     0-0-0/w PTR         r     1 G$DCBTABLE(0:0)
     0-0-0/w STRC(5616)  r     1 G$JIT                      0-0-0/w STRC(27232) r     1 G$MHJIT
     0-0-0/w STRC(928)   r     1 G$ROS                      0-0-0/w STRC(384)   r     1 G$U
     0-0-0/w STRC(6480)  r     1 G$UHJIT                    0-0-0/w STRC(432)   r     1 KN$IOP
     0-0-0/w STRC(400)   r     1 KNA$SSN                    0-0-0/w ASTR(808)   r     1 MYDCB
     0-0-0/c CHAR        r     1 VFC                        0-0-0/w STRC(192)   r     1 VLP_CG


   Procedure KNA$USERIO requires 1782 words for executable code.
   Procedure KNA$USERIO requires 118 words of local(AUTO) storage.

    No errors detected in file KNA$APE.:E05TSI    .
PL6.E3A0      #003=KNA$USERIO File=KNA$APE.:E05TSI                               WED 07/30/97 00:58 Page:337
          *** CROSS REFERENCE LISTING ***
**     DENOTES     IDENTIFIER DEFINITION
<<                 IDENTIFIER'S VALUE SET
>>                 IDENTIFIER'S VALUE USED
<>                 IDENTIFIER SET AND/OR USED
--                 IDENTIFIER REFERENCED
PL6.E3A0      #003=KNA$USERIO File=KNA$APE.:E05TSI                               WED 07/30/97 00:58 Page:338
          MINI XREF LISTING

CANCEL_READ
     25464**PROC    25301--CALL    25425--CALL
CANT_OPEN
     25048**LABEL   25045--CALLALT
DCB$
     12207**DCL     13007--IMP-PTR 25041<<ASSIGN  25042>>IF      25044>>ASSIGN  25059>>ASSIGN  25075>>ASSIGN
     25077>>ASSIGN  25091>>ASSIGN  25151>>IF      25154>>ASSIGN  25162>>ASSIGN  25163>>IF      25207>>IF
     25341>>ASSIGN  25342<>CALL    25364>>ASSIGN  25442>>IF
DCBNUMBER
     11582**DCL        84--PROC    24978--ENTRY   24982--ENTRY   24986--ENTRY   25006>>IF      25006>>IF
     25041>>ASSIGN  25045<>CALL
EBADBUF
     11818**DCL     25020>>ASSIGN
EBYD
     12006**DCL     25222>>ASSIGN  25269>>ASSIGN  25429>>ASSIGN
EDCBNUM
     11771**DCL     25008>>ASSIGN
ELDSC
     12053**DCL     25067>>ASSIGN
ENO_DAT
     11959**DCL     25209>>ASSIGN
ENO_IOP
     11865**DCL     25258>>ASSIGN  25321>>ASSIGN
ERR
     12564**DCL     25171<>CALL    25198<>CALL    25383<>CALL    25467<>CALL    25483<>CALL
ERROR
     11598**DCL        84--PROC    24978--ENTRY   24982--ENTRY   24986--ENTRY   25005<<ASSIGN  25008<<ASSIGN
     25020<<ASSIGN  25045<>CALL    25046>>IF      25067<<ASSIGN  25122<<ASSIGN  25209<<ASSIGN  25221<<ASSIGN
     25222<<ASSIGN  25258<<ASSIGN  25265<<ASSIGN  25268<<ASSIGN  25269<<ASSIGN  25295<<ASSIGN  25321<<ASSIGN
     25437<<ASSIGN  25448<<ASSIGN  25459>>IF
ESHORT_BUFFER
     11912**DCL     25122>>ASSIGN  25448>>ASSIGN
PL6.E3A0      #003=KNA$USERIO File=KNA$APE.:E05TSI                               WED 07/30/97 00:58 Page:339
EVENT
     12211**DCL     25309<<ASSIGN  25310<>CALL
EXTRA_READ
     12100**DCL     25295>>ASSIGN  25308>>ASSIGN
FCN
     12567**DCL     25138<<ASSIGN  25139<<ASSIGN  25171<>CALL
FINISHED
     25439**LABEL   25068--GOTO    25120--GOTO    25210--GOTO    25224--GOTO    25259--GOTO    25296--GOTO
     25322--GOTO    25409--GOTO
FLOW_CONTROL
     12218**DCL     24970<<ASSIGN  24983<<ASSIGN  24988<<ASSIGN  25113>>IF      25130>>IF      25137>>IF
     25174>>IF
FPT_BUF$
     12205**DCL     24963<<ASSIGN  24964<<ASSIGN  24994<<ASSIGN  25017>>IF      25017>>IF      25092>>IF
     25096>>ASSIGN  25144>>ASSIGN  25343>>ASSIGN
FPT_CODE
     12206**DCL     24967<<ASSIGN  24979<<ASSIGN  24991<<ASSIGN  25015>>IF      25099>>IF
FPT_READ.V.BRKABLE
     24026**DCL     25413>>IF
FPT_READ.V.DVBYTE
     24027**DCL     25361>>ASSIGN
FPT_READ.V.EVENT
     24027**DCL     25360>>ASSIGN
FPT_READ.V.KEYR
     24025**DCL     25370>>IF
FPT_READ.V.KEYS
     24025**DCL     25365>>IF
FPT_READ.V.KEYTYPE
     24030**DCL     25362>>ASSIGN
FPT_READ.V.READMLT
     24026**DCL     25017>>IF      25355>>IF
FPT_READ.V.WAIT
     24026**DCL     25354>>ASSIGN
FPT_WRITE.V.DVBYTE
     24052**DCL     25106>>ASSIGN
FPT_WRITE.V.EOM
PL6.E3A0      #003=KNA$USERIO File=KNA$APE.:E05TSI                               WED 07/30/97 00:58 Page:340
     24051**DCL     25163>>IF
FPT_WRITE.V.EOMCHAR
     24055**DCL     25165>>ASSIGN
FPT_WRITE.V.KEYTYPE
     24051**DCL     25160>>ASSIGN
G$ASDT_MCL$
     24086**DCL     23319--IMP-PTR
G$DCBTABLE
     23135**DCL     25041>>ASSIGN
G$ECCB.FLTFLG
     22973**DCL     23004--REDEF
G$JIT.ERRLOG
     12917**DCL     12920--REDEF
G$JIT.JSUNIT
     12656**DCL     12657--REDEF
G$JIT.JUNK.BACKP$
     12909**DCL     25220<<ASSIGN  25431<<ASSIGN
G$JIT.MCLS
     12655**DCL     12655--REDEF
G$JIT.READS_HOST
     12747**DCL     25395<<ASSIGN  25395>>ASSIGN
G$JIT.READS_UC
     12748**DCL     25398<<ASSIGN  25398>>ASSIGN
G$JIT.TMRZ
     12924**DCL     12925--REDEF
G$JIT.USER_EXTIME
     12648**DCL     12649--REDEF
G$JIT.USER_MEMTIME
     12651**DCL     12651--REDEF
G$JIT.USER_SVTIME
     12650**DCL     12650--REDEF
G$JIT.USR#
     12645**DCL     25332>>ASSIGN
G$JIT.WRITES_HOST
     12748**DCL     25238<<ASSIGN  25238>>ASSIGN
G$JIT.WRITES_UC
PL6.E3A0      #003=KNA$USERIO File=KNA$APE.:E05TSI                               WED 07/30/97 00:58 Page:341
     12749**DCL     25242<<ASSIGN  25242>>ASSIGN
G$JIT$
     24082**DCL     12587--IMP-PTR 25220>>ASSIGN  25238>>ASSIGN  25238>>ASSIGN  25242>>ASSIGN  25242>>ASSIGN
     25332>>ASSIGN  25395>>ASSIGN  25395>>ASSIGN  25398>>ASSIGN  25398>>ASSIGN  25431>>ASSIGN
G$MHJIT.CU$
     22401**DCL     25426>>IF
G$MHJIT.INTCON.HHJIT
     22535**DCL     22535--REDEF
G$MHJIT.INTCON.P$$
     22508**DCL     22508--REDEF
G$MHJIT.ISA_BIGFOOT.P$$
     19453**DCL     19453--REDEF
G$MHJIT.ISA_DBINH.P$$
     20667**DCL     20667--REDEF
G$MHJIT.ISA_IDLE.P$$
     17548**DCL     17548--REDEF
G$MHJIT.ISA_LVL10.P$$
     20970**DCL     20970--REDEF
G$MHJIT.ISA_LVL11.P$$
     21273**DCL     21273--REDEF
G$MHJIT.ISA_LVL12.P$$
     21576**DCL     21576--REDEF
G$MHJIT.ISA_LVL5.P$$
     19756**DCL     19756--REDEF
G$MHJIT.ISA_OV.P$$
     19150**DCL     19150--REDEF
G$MHJIT.ISA_PFS.P$$
     18821**DCL     18821--REDEF
G$MHJIT.ISA_RT_CLOCK.P$$
     22183**DCL     22183--REDEF
G$MHJIT.ISA_SATYR_RCV.P$$
     20060**DCL     20060--REDEF
G$MHJIT.ISA_SATYR_TRN.P$$
     20364**DCL     20364--REDEF
G$MHJIT.ISA_SCHD.P$$
     21879**DCL     21879--REDEF
PL6.E3A0      #003=KNA$USERIO File=KNA$APE.:E05TSI                               WED 07/30/97 00:58 Page:342
G$MHJIT.ISA_WDOG.P$$
     18929**DCL     18929--REDEF
G$MHJIT.TSA_DB.ISA.P$$
     18151**DCL     18151--REDEF
G$MHJIT.TSA_DB.P$$
     18022**DCL     18022--REDEF   18023--REDEF
G$MHJIT.TSA_HND.ISA.P$$
     22729**DCL     22729--REDEF
G$MHJIT.TSA_HND.P$$
     22600**DCL     22600--REDEF   22601--REDEF
G$MHJIT.TSA_MON.ISA.P$$
     17763**DCL     17763--REDEF
G$MHJIT.TSA_MON.P$$
     17634**DCL     17634--REDEF   17635--REDEF
G$MHJIT.TSA_OV.ISA.P$$
     18539**DCL     18539--REDEF
G$MHJIT.TSA_OV.P$$
     18410**DCL     18410--REDEF   18411--REDEF
G$MHJIT$
     24085**DCL     16073--IMP-PTR 25426>>IF
G$ROS.AUTO_DS$
     13061**DCL     13062--REDEF
G$ROS.AUTO_T$
     13062**DCL     13062--REDEF
G$ROS.DCBPTR$
     13057**DCL     25041>>ASSIGN
G$ROS.NUMDCBS
     13061**DCL     25006>>IF
G$ROS$
     24083**DCL     13052--IMP-PTR 25006>>IF      25041>>ASSIGN
G$U.ASYNCH
     23095**DCL     25426>>IF
G$U.MISC
     23095**DCL     23095--REDEF
G$UHJIT.DMN.ID
     14817**DCL     24972>>IF      24972>>IF
PL6.E3A0      #003=KNA$USERIO File=KNA$APE.:E05TSI                               WED 07/30/97 00:58 Page:343
G$UHJIT.ISA_USR
     14522**DCL     14817--REDEF
G$UHJIT.ISA_USR.P$$
     14597**DCL     14597--REDEF
G$UHJIT.TSA_CP.ISA.P$$
     15804**DCL     15804--REDEF
G$UHJIT.TSA_CP.P$$
     15675**DCL     15675--REDEF   15676--REDEF
G$UHJIT.TSA_DB.ISA.P$$
     15416**DCL     15416--REDEF
G$UHJIT.TSA_DB.P$$
     15287**DCL     15287--REDEF   15288--REDEF
G$UHJIT.TSA_RTT.P$$
     16050**DCL     16050--REDEF   16051--REDEF
G$UHJIT.TSA_USR.ISA.P$$
     15006**DCL     15006--REDEF
G$UHJIT.TSA_USR.P$$
     14877**DCL     14877--REDEF   14878--REDEF
G$UHJIT$
     24084**DCL     13099--IMP-PTR 24972>>IF      24972>>IF
GHH$LOCK
      2052**DCL-ENT 25057--CALL
GHH$UNLOCK
      2052**DCL-ENT 25457--CALL
GHS$EVENT
     24949**DCL-ENT 25310--CALL
IOP$
     12209**DCL     23141--IMP-PTR 25256<>CALL    25261>>ASSIGN  25265>>IF      25265>>ASSIGN  25272>>ASSIGN
     25274<>CALL    25299<<ASSIGN  25300>>ASSIGN  25309>>ASSIGN  25318<>CALL    25330>>ASSIGN  25331>>ASSIGN
     25332>>ASSIGN  25337>>ASSIGN  25339>>ASSIGN  25341>>ASSIGN  25342>>CALL    25343>>ASSIGN  25344>>CALL
     25344>>CALL    25354>>ASSIGN  25356>>ASSIGN  25360>>ASSIGN  25372>>ASSIGN  25373>>ASSIGN  25374>>CALL
     25374>>CALL    25375>>ASSIGN  25377>>ASSIGN  25381>>ASSIGN  25385<>CALL    25408>>IF      25420>>IF
     25426>>IF      25428>>ASSIGN  25429>>ASSIGN  25437>>ASSIGN  25439>>ASSIGN  25441<>CALL
K$RWPARM
     12236**DCL     25079<<ASSIGN  25171<>CALL    25198<>CALL    25383<>CALL    25467<>CALL    25480<<ASSIGN
     25483<>CALL
PL6.E3A0      #003=KNA$USERIO File=KNA$APE.:E05TSI                               WED 07/30/97 00:58 Page:344
K$RWPARM.BLKREC
     12266**DCL     12291--REDEF
K$RWPARM.DVE.DVBYTE
     12298**DCL     25106<<ASSIGN  25361<<ASSIGN
K$RWPARM.DVE.DVBYTE.NODAT
     12311**DCL     25108>>IF
K$RWPARM.DVE.DVBYTE.RRR
     12310**DCL     25125>>IF      25254>>IF
K$RWPARM.DVE.DVBYTE.VFC
     12306**DCL     12307--REDEF   25145>>IF      25153<<ASSIGN  25166<<ASSIGN
K$RWPARM.DVE.EOMCHAR
     12314**DCL     12318--REDEF   25165<<ASSIGN
K$RWPARM.DVE.VFC
     12318**DCL     25147<<ASSIGN  25154<<ASSIGN
K$RWPARM.EOM_EOR
     12335**DCL     25167<<ASSIGN
K$RWPARM.ERR
     12378**DCL     12383--REDEF
K$RWPARM.FC
     12342**DCL     12343--REDEF
K$RWPARM.FLDID
     12524**DCL     12525--REDEF
K$RWPARM.KEY$
     12522**DCL     25156<<ASSIGN  25367<<ASSIGN
K$RWPARM.KEYSZ
     12533**DCL     25157<<ASSIGN  25368<<ASSIGN
K$RWPARM.KEYTYPE
     12531**DCL     12532--REDEF   25160<<ASSIGN  25161>>IF      25162<<ASSIGN  25362<<ASSIGN  25363>>IF
     25364<<ASSIGN  25375>>ASSIGN
K$RWPARM.MARKER
     12291**DCL     25482<<ASSIGN
K$RWPARM.MAXNMBBYT
     12519**DCL     25351<<ASSIGN  25358<<ASSIGN
K$RWPARM.MAXNMBRCR
     12518**DCL     25350<<ASSIGN  25422<<ASSIGN
K$RWPARM.MAXRCRBYTSIZ
PL6.E3A0      #003=KNA$USERIO File=KNA$APE.:E05TSI                               WED 07/30/97 00:58 Page:345
     12520**DCL     25192<<ASSIGN  25349<<ASSIGN  25358>>ASSIGN
K$RWPARM.MRKTYP
     12516**DCL     25126<<ASSIGN  25302<<ASSIGN  25466<<ASSIGN  25481<<ASSIGN
K$RWPARM.MSG$
     12237**DCL     12238--REDEF   12247--REDEF
K$RWPARM.MSGC$
     12238**DCL     25144<<ASSIGN  25147>>ASSIGN  25148<<ASSIGN  25148>>ASSIGN
K$RWPARM.MSGID
     12353**DCL     12358--REDEF   25085<<ASSIGN
K$RWPARM.MSGIDXT
     12366**DCL     12370--REDEF
K$RWPARM.MSGSZ
     12248**DCL     25142<<ASSIGN  25149<<ASSIGN  25149>>ASSIGN
K$RWPARM.MSGTYP
     12257**DCL     25084<<ASSIGN
K$RWPARM.ORG
     12502**DCL     12503--REDEF
K$RWPARM.READMLT
     12326**DCL     25357<<ASSIGN
K$RWPARM.RSN
     12343**DCL     25194<<ASSIGN  25195<<ASSIGN
K$RWPARM.STATION
     12252**DCL     25083<<ASSIGN
K$RWPARM.STR
     12517**DCL     25141<<ASSIGN  25191<<ASSIGN  25300<<ASSIGN  25348<<ASSIGN
K$RWPARM.VDOFLGS
     12504**DCL     12515--REDEF
K$RWPARM.VDOFLGS.WAIT
     12511**DCL     25381<<ASSIGN
KEY$
     12202**DCL     24965<<ASSIGN  24998<<ASSIGN  25156>>ASSIGN  25367>>ASSIGN  25372>>ASSIGN
KEYSZ
     12203**DCL     24966<<ASSIGN  24999<<ASSIGN  25157>>ASSIGN  25368>>ASSIGN  25373>>ASSIGN
KN$IOP
     23141**DCL     25330<<ASSIGN
KN$IOP.ARS
PL6.E3A0      #003=KNA$USERIO File=KNA$APE.:E05TSI                               WED 07/30/97 00:58 Page:346
     23197**DCL     23198--REDEF   23199--REDEF
KN$IOP.BUFSEGDES
     23249**DCL     25344<>CALL
KN$IOP.BUF_
     23212**DCL     25343<<ASSIGN  25344<>CALL
KN$IOP.DCB$
     23225**DCL     25300>>ASSIGN  25341<<ASSIGN
KN$IOP.DCBSEGDES
     23293**DCL     25342<>CALL
KN$IOP.ERRCODE
     23159**DCL     25265>>IF      25265>>ASSIGN  25428<<ASSIGN  25429<<ASSIGN  25437>>ASSIGN
KN$IOP.EVENT
     23311**DCL     25309>>ASSIGN  25360<<ASSIGN
KN$IOP.FLAGS.INUSE
     23207**DCL     25331<<ASSIGN
KN$IOP.FLAGS.RDDONE
     23206**DCL     25420>>IF      25426>>IF
KN$IOP.FLAGS.READMLT
     23208**DCL     25356<<ASSIGN
KN$IOP.FLAGS.WAIT
     23205**DCL     25339<<ASSIGN  25354<<ASSIGN  25381>>ASSIGN  25408>>IF
KN$IOP.KEYSEGDES
     23271**DCL     25374<>CALL
KN$IOP.KEYTYPE
     23198**DCL     25375<<ASSIGN
KN$IOP.KEY_
     23219**DCL     25372<<ASSIGN  25373<<ASSIGN  25374<>CALL    25377<<ASSIGN
KN$IOP.L.USER#
     23231**DCL     25332<<ASSIGN
KN$IOP.LNK$
     23227**DCL     23228--REDEF
KN$IOP.MSGID
     23226**DCL     25272>>ASSIGN
KN$IOP.MSGTYPE
     23310**DCL     25439>>ASSIGN
KNA$FCNO
PL6.E3A0      #003=KNA$USERIO File=KNA$APE.:E05TSI                               WED 07/30/97 00:58 Page:347
     24951**DCL-ENT 25109--ASSIGN
KNA$FCNOU
     24950**DCL-ENT 25110--ASSIGN  25383--CALL    25467--CALL    25483--CALL
KNA$GETIOP
     24953**DCL-ENT 25256--CALL    25318--CALL
KNA$OPEN
     24952**DCL-ENT 25045--CALL
KNA$REG_USER
     24955**DCL-ENT 25215--CALL    25263--CALL    25416--CALL    25418--CALL    25470--CALL
KNA$RLSIOP
     24954**DCL-ENT 25274--CALL    25385--CALL    25441--CALL
KNA$SAVEMAP
     24956**DCL-ENT 25342--CALL    25344--CALL    25374--CALL
KNA$SSN
     23019**DCL     25171<>CALL    25198<>CALL    25383<>CALL    25467<>CALL    25483<>CALL
KNA$SSN.ERROR
     23045**DCL     25221>>ASSIGN  25268>>ASSIGN  25428>>ASSIGN
KNA$SSN.FLAGS.BLOCKED
     23023**DCL     25136<<ASSIGN  25188>>IF      25203<<ASSIGN  25223<<ASSIGN
KNA$SSN.FLAGS.MRKPND
     23027**DCL     25061>>IF      25423>>IF      25433>>IF      25484<<ASSIGN
KNA$SSN.FLAGS.MULT_STR
     23023**DCL     25113>>IF      25130>>IF
KNA$SSN.FLAGS.RRRPND
     23023**DCL     25262<<ASSIGN  25469<<ASSIGN
KNA$SSN.FLAGS.SSNERR
     23023**DCL     25221>>IF      25268>>IF      25423>>IF      25428>>IF
KNA$SSN.IOPQ$
     23081**DCL     25261<<ASSIGN  25275<<ASSIGN
KNA$SSN.IOPRD$
     23081**DCL     23081--REDEF   25291>>IF      25299>>ASSIGN  25303>>IF      25337<<ASSIGN  25386<<ASSIGN
     25440<<ASSIGN
KNA$SSN.MARKER
     23087**DCL     25482>>ASSIGN
KNA$SSN.REGRSN
     23086**DCL     25196<<ASSIGN  25204>>IF
PL6.E3A0      #003=KNA$USERIO File=KNA$APE.:E05TSI                               WED 07/30/97 00:58 Page:348
KNA$SSN.RLCID.NODE#
     23085**DCL     23085--REDEF
KNA$SSN.STATE
     23086**DCL     25065>>IF      25217>>IF
KNA$SSN.THRTLVL.MAXNMBBYT
     23078**DCL     25130>>IF      25177<<ASSIGN  25177>>ASSIGN
KNA$SSN.THRTLVL.MAXNMBRCR
     23078**DCL     25113>>IF      25130>>IF      25176<<ASSIGN  25176>>ASSIGN  25193>>IF
KNA$SSN.THRTLVL.MAXRCRBYTSIZ
     23079**DCL     25113>>IF      25119>>IF      25121>>ASSIGN
KNA$SSN.THRTLVL.STR
     23079**DCL     25113>>IF      25113>>IF      25130>>IF      25130>>IF
KNA$SSN.USER#
     23086**DCL     25310<>CALL
KNA_LNKSSN
     24118**DCL     25057<>CALL    25457<>CALL
KNA_LNKSSN.SREG
     24123**DCL     25293>>IF
KNA_PARAMS
     11631**DCL        84--PROC    24978--ENTRY   24982--ENTRY   24986--ENTRY   24995--ASSIGN
KNA_PARAMS.BND
     11691**DCL     11692--REDEF
KNA_PARAMS.BND.PAR2
     11691**DCL     24966>>ASSIGN
KNA_PARAMS.BND.PAR3
     11691**DCL     24964>>ASSIGN
KNA_PARAMS.CPTRS.PAR3$
     11689**DCL     24963>>ASSIGN
KNA_PARAMS.DESC
     11693**DCL     11694--REDEF
KNA_PARAMS.MCL.CODE
     11638**DCL     11638--REDEF   24967>>ASSIGN
KNA_PARAMS.PTRS
     11687**DCL     11688--REDEF   11690--REDEF   11690--REDEF   11690--REDEF
KNA_PARAMS.PTRS.PAR1$
     11687**DCL     24968>>ASSIGN
PL6.E3A0      #003=KNA$USERIO File=KNA$APE.:E05TSI                               WED 07/30/97 00:58 Page:349
KNA_PARAMS.PTRS.PAR2$
     11687**DCL     24965>>ASSIGN
KNA_PARAMS.PTRS.PAR4$
     11687**DCL     25081>>IF      25083>>ASSIGN  25084>>ASSIGN  25085>>ASSIGN  25271>>IF      25272>>ASSIGN
     25438>>IF      25439>>ASSIGN
KNA_RWPARM_CON
     24142**DCL     25079>>ASSIGN  25480>>ASSIGN
KNA_RWPARM_CON.BLKREC
     24172**DCL     24197--REDEF
KNA_RWPARM_CON.DVE.DVBYTE.VFC
     24212**DCL     24213--REDEF
KNA_RWPARM_CON.DVE.EOMCHAR
     24220**DCL     24224--REDEF
KNA_RWPARM_CON.ERR
     24284**DCL     24289--REDEF
KNA_RWPARM_CON.FC
     24248**DCL     24249--REDEF
KNA_RWPARM_CON.FLDID
     24430**DCL     24431--REDEF
KNA_RWPARM_CON.KEYTYPE
     24437**DCL     24438--REDEF
KNA_RWPARM_CON.MSG$
     24143**DCL     24144--REDEF   24153--REDEF
KNA_RWPARM_CON.MSGID
     24259**DCL     24264--REDEF
KNA_RWPARM_CON.MSGIDXT
     24272**DCL     24276--REDEF
KNA_RWPARM_CON.ORG
     24408**DCL     24409--REDEF
KNA_RWPARM_CON.VDOFLGS
     24410**DCL     24421--REDEF
MAINSTREAM
     25005**LABEL   24976--GOTO    25000--GOTO
MSGSIZE
     12197**DCL     25094<<ASSIGN  25096<<ASSIGN  25113>>IF      25121<<ASSIGN  25130>>IF      25142>>ASSIGN
     25177>>ASSIGN  25192>>ASSIGN  25240>>ASSIGN  25244>>ASSIGN  25247>>ASSIGN  25250>>ASSIGN  25349>>ASSIGN
PL6.E3A0      #003=KNA$USERIO File=KNA$APE.:E05TSI                               WED 07/30/97 00:58 Page:350
MYDCB.DCBNAME.L
     13034**DCL     13034--IMP-SIZ
MYDCB.DDEV.RES
     13017**DCL     25091>>ASSIGN
MYDCB.DVBYTE.NODAT
     13013**DCL     25207>>IF
MYDCB.DVFC
     13027**DCL     25151>>IF      25154>>ASSIGN
MYDCB.EOMCHAR
     13025**DCL     13025--REDEF   13026--REDEF
MYDCB.FCD
     13021**DCL     25042>>IF
MYDCB.FLDID
     13024**DCL     13024--REDEF
MYDCB.KEYTYPE
     13027**DCL     25162>>ASSIGN  25364>>ASSIGN
MYDCB.ORG
     13022**DCL     25044<<ASSIGN
MYDCB.RES
     13019**DCL     13020--REDEF   25163>>IF
MYDCB.SSN$
     13034**DCL     25059>>ASSIGN
MYDCB.STRM
     13014**DCL     25077>>ASSIGN  25300>>ASSIGN
MYDCB.TYC
     13011**DCL     25075<<ASSIGN
MYDCB.TYC.LD#
     13011**DCL     25442>>IF
NWIO
     12539**DCL     25306<<ASSIGN  25307--ASSIGN  25310<>CALL
NWIO.P#
     12539**DCL     25307<<ASSIGN  25307--ASSIGN
PARMSPEC
     12200**DCL     24969<<ASSIGN  24996<<ASSIGN  25081>>IF      25271>>IF      25438>>IF
PS_LCP6STT.BYTES_WRT_HOST
     24872**DCL     25240<<ASSIGN  25240>>ASSIGN
PL6.E3A0      #003=KNA$USERIO File=KNA$APE.:E05TSI                               WED 07/30/97 00:58 Page:351
PS_LCP6STT.BYTES_WRT_LG
     24882**DCL     25247<<ASSIGN  25247>>ASSIGN
PS_LCP6STT.BYTES_WRT_NA
     24887**DCL     25250<<ASSIGN  25250>>ASSIGN
PS_LCP6STT.BYTES_WRT_UC
     24877**DCL     25244<<ASSIGN  25244>>ASSIGN
PS_LCP6STT.READS_HOST
     24812**DCL     25396<<ASSIGN  25396>>ASSIGN
PS_LCP6STT.READS_LG
     24822**DCL     25401<<ASSIGN  25401>>ASSIGN
PS_LCP6STT.READS_NA
     24827**DCL     25403<<ASSIGN  25403>>ASSIGN
PS_LCP6STT.READS_UC
     24817**DCL     25399<<ASSIGN  25399>>ASSIGN
PS_LCP6STT.REQSTATS.DSPMSK
     24707**DCL     24713--REDEF
PS_LCP6STT.REQSTATS.SLCMSK
     24748**DCL     24755--REDEF
PS_LCP6STT.WRITES_HOST
     24832**DCL     25239<<ASSIGN  25239>>ASSIGN
PS_LCP6STT.WRITES_LG
     24842**DCL     25246<<ASSIGN  25246>>ASSIGN
PS_LCP6STT.WRITES_NA
     24847**DCL     25249<<ASSIGN  25249>>ASSIGN
PS_LCP6STT.WRITES_UC
     24837**DCL     25243<<ASSIGN  25243>>ASSIGN
READ_COMPLETED
     25309**LABEL   25304--GOTO
REG_BLOCKED
     25207**LABEL   25189--GOTO
RESTYPE
     12198**DCL     25091<<ASSIGN  25236>>DOCASE  25393>>DOCASE
ROUTINE
     12568**DCL     25109<<ASSIGN  25110<<ASSIGN  25171>>CALL    25198>>CALL
SEND_MARKER
     25478**PROC    25063--CALL    25435--CALL
PL6.E3A0      #003=KNA$USERIO File=KNA$APE.:E05TSI                               WED 07/30/97 00:58 Page:352
SETUP_MON
     24991**LABEL   24980--GOTO
SETUP_MON_WRITE
     24988**LABEL   24984--GOTO
SSN$
     12208**DCL     23019--IMP-PTR 25059<<ASSIGN  25061>>IF      25065>>IF      25113>>IF      25113>>IF
     25113>>IF      25113>>IF      25113>>IF      25119>>IF      25121>>ASSIGN  25130>>IF      25130>>IF
     25130>>IF      25130>>IF      25130>>IF      25136>>ASSIGN  25171>>CALL    25176>>ASSIGN  25176>>ASSIGN
     25177>>ASSIGN  25177>>ASSIGN  25188>>IF      25193>>IF      25196>>ASSIGN  25198>>CALL    25203>>ASSIGN
     25204>>IF      25215<>CALL    25217>>IF      25221>>IF      25221>>ASSIGN  25223>>ASSIGN  25261>>ASSIGN
     25262>>ASSIGN  25263<>CALL    25268>>IF      25268>>ASSIGN  25275>>ASSIGN  25291>>IF      25299>>ASSIGN
     25303>>IF      25310>>CALL    25337>>ASSIGN  25383>>CALL    25386>>ASSIGN  25416<>CALL    25418<>CALL
     25423>>IF      25423>>IF      25428>>IF      25428>>ASSIGN  25433>>IF      25440>>ASSIGN  25467>>CALL
     25469>>ASSIGN  25470<>CALL    25482>>ASSIGN  25483>>CALL    25484>>ASSIGN
SSN_ERR
     25221**LABEL   25171--CALLALT 25198--CALLALT 25301--CALLALT 25387--GOTO
STR
     12199**DCL     24973<<ASSIGN  24974<<ASSIGN  24997<<ASSIGN  25076>>IF      25077<<ASSIGN  25113>>IF
     25113>>IF      25130>>IF      25130>>IF      25141>>ASSIGN  25191>>ASSIGN  25217>>IF      25348>>ASSIGN
     25413>>IF      25430>>IF
TCB_ERR
     12565**DCL     25308<<ASSIGN  25310<>CALL
TEMP
     12212**DCL     12216--REDEF
UBUF$
     11583**DCL        84--PROC    24978--ENTRY   24982--ENTRY   24986--ENTRY   24994>>ASSIGN
USRFPT$
     12201**DCL     24020--IMP-PTR 24046--IMP-PTR 24968<<ASSIGN  24995<<ASSIGN  25015>>IF      25017>>IF
     25105>>IF      25106>>ASSIGN  25151>>IF      25158>>IF      25160>>ASSIGN  25163>>IF      25165>>ASSIGN
     25352>>IF      25354>>ASSIGN  25355>>IF      25360>>ASSIGN  25361>>ASSIGN  25362>>ASSIGN  25365>>IF
     25370>>IF      25413>>IF      25413>>IF
VFC
     24078**DCL     25147>>ASSIGN
VLP_CG.MSGID#
     24075**DCL     25085>>ASSIGN  25272<<ASSIGN
VLP_CG.MSGTYP#
PL6.E3A0      #003=KNA$USERIO File=KNA$APE.:E05TSI                               WED 07/30/97 00:58 Page:353
     24074**DCL     25084>>ASSIGN  25439<<ASSIGN
VLP_CG.STATION#
     24074**DCL     25083>>ASSIGN
WRITELOOP
     25104**LABEL   25179--EXIT    25205--GOTO
