PL6.E3A0      #002=KNA$IN File=KNA$APE.:E05TSI                                   WED 07/30/97 00:57 Page:126
      763        1        /*T***********************************************************/
      764        2        /*T*                                                         */
      765        3        /*T* Copyright (c) Bull HN Information Systems Inc., 1997    */
      766        4        /*T*                                                         */
      767        5        /*T***********************************************************/
      768        6        /*F*
      769        7           NAME: KNA$IN
      770        8           PURPOSE:
      771        9                  To field responses from Session on behalf of the entire
      772       10             Application Presentation Engine code.
      773       11           DESCRIPTION:
      774       12             The address of KNA$IN is put in KN$LDCT.USER_ENTRY$ by KNA$OPEN.
      775       13             KNS$SESSION  will call KN$LDCT.USER_ENTRY$.
      776       14
      777       15                  This routine inspects Session's reason for invoking it and
      778       16             does the appropriate thing.  This may be unreg a user, move data
      779       17             into a user's buffer, etc.
      780       18        */
      781       19        /*D*
      782       20           NAME: KNA$IN
      783       21           CALL:
      784       22                  CALL KNA$IN (INV_FNC,KN$NETPARM,CODE) ALTRET;
      785       23
      786       24                  This routine may ALTRET to indicate to the caller a problem.
      787       25           PARAMETERS:
      788       26                  INV_FNC - Function Session is invoking us for
      789       27                  KN$NETPARM - Structure with all sorts of miscellaneous info
      790       28                  CODE - A reason code associated with some invocations
      791       29           INTERFACE:
      792       30                  GHS$RUE - Report an event on this user
      793       31                  GHH$ASD - Activate a map's Segment Descriptor
      794       32           ENVIRONMENT:
      795       33                  Running on behalf of some unrelated user.
      796       34           DESCRIPTION:
      797       35                  This routine may be invoked for a whole slew of reasons.
      798       36             Session may be communicating: data available, connection established
      799       37             or rejected, connection lost, etc.
PL6.E3A0      #002=KNA$IN File=KNA$APE.:E05TSI                                   WED 07/30/97 00:57 Page:127
      800       38                  For connection established this routine merely sets some
      801       39             status in the user's SSN context and wakes up the proper user.
      802       40                  For data, this routine checks the function code of the
      803       41             message and handles it.  Typical function codes and actions would
      804       42             be:
      805       43                  WRITE - move data into user's buffer and RUE him
      806       44                  READ - update our throttling info and send RUE the user if
      807       45                         he is currently blocked on a M$WRITE
      808       46        */
      809       47        %EJECT;
PL6.E3A0      #002=KNA$IN File=KNA$APE.:E05TSI                                   WED 07/30/97 00:57 Page:128
      810       48        KNA$IN: PROC (KN$NETPARM) ALTRET;
      811       49
      812       50        %INCLUDE F_ERRORS_C;
      813      290        %INCLUDE G_LCP6_E;
      814      548        %INCLUDE GH_GATE_M;
      815      589        %INCLUDE GH_SCHD_M;
      816      733        %INCLUDE KN_DATA_M;
      817     2519        %INCLUDE KNH_MACRO_C;
      818     2802        %INCLUDE P_FEP_M;
      819     3240        %INCLUDE KL_MACRO_C;
      820     6592        %INCLUDE K_ID_E;
      821     6642        %K#ENTID_E;
      822     6661        %INCLUDE KI_ERRORS_C;
      823     6746        %INCLUDE KI_SUBS_C;
      824     6882        %INCLUDE KNA_MACRO_M;
      825     6958        %INCLUDE GF_LCP6_M;
      826     7426        %INCLUDE GH_SCHD_E;
      827     7522        %INCLUDE GH_LCP6_M;
      828     8356        %INCLUDE GU_LCP6_M;
      829     9284        %INCLUDE GM_VIRTUAL_E;
      830     9494        %INCLUDE KN_ERRORS_C;
      831     9558        %INCLUDE K$RWPARM;
      832     9944        %INCLUDE KV$VDO;
      833    10959        %INCLUDE K_SCODE_C;
      834    11044
      835    11045        /*     Parameter definitions */
      836    11046        %KN$NETPARM (STCLASS="");
      837    11199
      838    11200        /*     Auto storage */
      839    11201    1   DCL BFR$ CPTR;
      840    11202    1   DCL EVENT UBIN;
      841    11203    1   DCL LSTIOP$ PTR;
      842    11204    1   DCL SSN$ PTR;
      843    11205    1   DCL IOP$ PTR;
      844    11206    1   DCL DATASIZE UBIN;
      845    11207    1   DCL DATAARS UBIN;
      846    11208    1   DCL DATA$ CPTR;
PL6.E3A0      #002=KNA$IN File=KNA$APE.:E05TSI                                   WED 07/30/97 00:57 Page:129
      847    11209    1   DCL VLP$ PTR;
      848    11210    1   DCL ERR UBIN;
      849    11211    1   DCL TCB_ERR BIT(32);
      850    11212    1   DCL STATE CHAR(4);
      851    11213        %K$RWPARM(NAME=K$RWPARM,STCLASS="");
      852    11529        %K$RWPARM (NAME=OPARM,STCLASS=AUTO);
      853    11845        %G$COMIO (FPTN=COMIO,PARONLY=1,STCLASS=AUTO);
      854    11853        %G$NWIO (FPTN=NWIO,PARONLY=1,STCLASS=AUTO);
      855    11882
      856    11883        /*     External pointers */
      857    11884    1   DCL G$ASDT_MCL$ PTR SYMREF;
      858    11885    1   DCL G$WINDOW1$ PTR SYMREF;
      859    11886    1   DCL G$USRT$ PTR SYMREF;
      860    11887
      861    11888        /*     Based storage */
      862    11889    1   DCL CODE UBIN BASED(KN$NETPARM.FPT$);
      863    11890        %G$USER (FPTN="G$USER(0:0)",STCLASS="BASED(G$USRT$)");
      864    11901    1   DCL DATASTRING CHAR(DATASIZE) BASED;
      865    11902        %M$DCB(DCBN=MYDCB,STCLASS=BASED);
      866    11953        %KN$LDCT (STCLASS="BASED(KN$NETPARM.LDCT$)");
      867    12198        %KN$IOP (STCLASS="BASED(IOP$)");
      868    12371        %G$ASDT_MCL (STCLASS="BASED(G$ASDT_MCL$)");
      869    13065        %KNA$SSN (STCLASS="BASED(SSN$)");
      870    13148        /*     VDO macro invocations  */
      871    13149        %KV_VDO_ALL_E;
      872    13228        %KV$VDO(NAME=KV$VDOHDR,STCLASS="BASED(KN$NETPARM.UHDR$)");
      873    13255        %KV$VDO_EVT(STCLASS="BASED(KN$NETPARM.UHDR$)");
      874    13297        %KV$VDO_RQSDAT;
      875    13345        %KV$VDO_BLKDAT;
      876    13388        /*     Constant */
      877    13389        %VLP_ERRCODE (FPTN=ECNCFAIL,STCLASS=CONSTANT,
      878    13390                       FCG=KN,MID=A,MON='1'B,ERR#=%E$CNCFAIL);
      879    13436        %VLP_ERRCODE (FPTN=ELDSC,STCLASS=CONSTANT,
      880    13437                       FCG=KN,MID=A,MON='1'B,ERR#=%E$LDSC,SEV=G_SEV_ABORT#);
      881    13483        %VLP_ERRCODE (FPTN=EBYD,STCLASS=CONSTANT,
      882    13484                       FCG=KN,MID=A,MON='1'B,ERR#=%E$BYD,SEV=G_SEV_CONT#);
      883    13530        %VLP_SCODE (FPTN=SCR_UNEXP,FCG=KN,MID=A,ERR#=%S$UNEXPRESP,
PL6.E3A0      #002=KNA$IN File=KNA$APE.:E05TSI                                   WED 07/30/97 00:57 Page:130
      884    13531                       MON='1'B,SEV=G_SEV_SCREECH#,STCLASS=CONSTANT);
      885    13592        %KV$VDO_DAT (NAME=NODAT_VDO,STCLASS=CONSTANT,
      886    13593                       FNC=KV_VDO_FNC_DAT,VLP=YES,LAST=",");
      887    13638        %KV$VDOVLP_ERR (NAME=ERR,LST=YES,LVL=2,STCLASS=CONSTANT,
      888    13639                       FCG=KN,MID=A,ERR#=%E$NODAT,SEV=0,MON='1'B);
      889    13736
      890    13737        /*    Symrefs        */
      891    13738        %GATE(FPTN=KNA_LNKIOP,STCLASS=SYMREF);
      892    13757        %GATE (FPTN=KNA_LNKSSN,STCLASS=SYMREF);
      893    13776
      894    13777        /*     ENTRY definitions
      895    13778        */
      896    13779    1   DCL KNA$FCNO ENTRY(4) ALTRET;
      897    13780    1   DCL KNA$MAP ENTRY(2);
      898    13781    1   DCL GHS$EVENT ENTRY(7);
      899    13782    1   DCL KNA$RLSIOP ENTRY(1) ALTRET;
      900    13783    1   DCL SCREECH ENTRY(1);
      901    13784    1   DCL GHH$ASD ENTRY(2);
      902    13785    1   DCL GHQ$STATE ENTRY(2);
      903    13786    1   DCL GHS$RUE ENTRY(4) ALTRET;
      904    13787    1   DCL GJU$EVENT ENTRY(2);
      905    13788    1   DCL KNS$SEND ENTRY(1) ALTRET;
      906    13789    1   DCL KNA$DECODE_VDO ENTRY(1) ALTRET;
      907    13790
      908    13791        /* Symrefs */
      909    13792        %K$RWPARM (NAME=KNA_RWPARM_CON,STCLASS=SYMREF);
      910    14108        %PS_LCP6STT (STCLASS=SYMREF);
      911    14612        %EJECT;
PL6.E3A0      #002=KNA$IN File=KNA$APE.:E05TSI                                   WED 07/30/97 00:57 Page:131
      912    14613
      913    14614        /*   Break out what to do by invocation function
      914    14615        */
      915    14616
      916    14617    2      IF KN$NETPARM.FUNCTION ~= %KN_FCN_INIT_ACK THEN DO;
      917    14618                %LOCK (G=KNA_LNKSSN);
      918    14625    2           END;
      919    14626    1      SSN$ = KN$LDCT.UID$;
      920    14627    1   CASE_FCN:
      921    14628    2      DO CASE (KN$NETPARM.FUNCTION);
      922    14629
      923    14630        /*   KN_FCN_INIT_ACK tells us that Session has finished trying to
      924    14631        establish the network connection for us.  We better be in a state to
      925    14632        accept this.  CODE tells us whether the connection attempt actually
      926    14633        succeeded or not.
      927    14634        */
      928    14635
      929    14636    2       CASE (%KN_FCN_INIT_ACK);
      930    14637    2         IF KNA$SSN.STATE ~= %KNA_STATE_WSSNINIT#
      931    14638    2         THEN CALL SCREECH(SCR_UNEXP);
      932    14639
      933    14640    2         IF CODE ~= 0
      934    14641    3         THEN DO;
      935    14642    3              KNA$SSN.ERROR = ECNCFAIL;
      936    14643    3              KNA$SSN.FLAGS.SSNERR = '1'B;
      937    14644    3              END;
      938    14645        /*E* ERROR: KNA-E$CNCFAIL
      939    14646             MESSAGE: The attempt to create the network connection has failed.
      940    14647        */
      941    14648
      942    14649        /*   The connection succeeded, so set the status and wake up our sleepy
      943    14650        user.
      944    14651        */
      945    14652    2         ELSE
      946    14653    2              KNA$SSN.STATE = %KNA_STATE_WSSNOPN#;
      947    14654    2         CALL GHS$RUE(%GH_EVCIC,KNA$SSN.USER#);
      948    14655    2         RETURN;
PL6.E3A0      #002=KNA$IN File=KNA$APE.:E05TSI                                   WED 07/30/97 00:57 Page:132
      949    14656
      950    14657        %EJECT;
PL6.E3A0      #002=KNA$IN File=KNA$APE.:E05TSI                                   WED 07/30/97 00:57 Page:133
      951    14658        /*
      952    14659             KN_FCN_DATA involves handling by Presentation function code
      953    14660        the message(s) received.
      954    14661        */
      955    14662    2       CASE (%KN_FCN_DATA);
      956    14663    2         K$RWPARM=KNA_RWPARM_CON;
      957    14664    2         K$RWPARM.UHDR$=KN$NETPARM.UHDR$;
      958    14665    2         K$RWPARM.UHDRSZ = KN$NETPARM.UHDRSZ;
      959    14666
      960    14667    2         IF KV$VDOHDR.FNC = %KV_VDO_FNC_DAT
      961    14668    2         THEN IOP$ = KNA$SSN.IOPRD$;
      962    14669    2         ELSE IOP$=KNA$SSN.IOPQ$;
      963    14670
      964    14671    2         IF IOP$ ~= ADDR(NIL)
      965    14672    3         THEN DO;
      966    14673    3              K$RWPARM.KEYTYPE = KN$IOP.KEYTYPE;
      967    14674    3              K$RWPARM.READMLT = KN$IOP.FLAGS.READMLT;
      968    14675    3              END;
      969    14676    2         CALL KNA$DECODE_VDO(K$RWPARM)
      970    14677    3         WHENALTRETURN DO;
      971    14678    3              CALL PROTOCOL_ERR;
      972    14679    3              EXIT CASE_FCN;
      973    14680    3              END;
      974    14681
      975    14682    3         DO CASE (KV$VDOHDR.FNC);
      976    14683
      977    14684        /*     A WRITE REQUEST contains data for our user.  We will have to
      978    14685        map onto our user's buffer after finding the IO packet for him.
      979    14686        */
      980    14687    3          CASE (%KV_VDO_FNC_DAT,%KV_VDO_FNC_PRM_RSP);
      981    14688
      982    14689        /*
      983    14690          Locate the I/O packet for the stream we just got the buffer for and
      984    14691          screech if we can't find it.
      985    14692                                                                                      */
      986    14693
      987    14694    3            IF IOP$ = ADDR(NIL)
PL6.E3A0      #002=KNA$IN File=KNA$APE.:E05TSI                                   WED 07/30/97 00:57 Page:134
      988    14695    4            THEN DO;
      989    14696    4                 CALL PROTOCOL_ERR;
      990    14697    4                 EXIT CASE_FCN;
      991    14698    4                 END;
      992    14699        /*
      993    14700          Map onto the users buffer so we can move the data into it
      994    14701                                                                                      */
      995    14702    3            KN$IOP.FLAGS.RDDONE = '1'B;
      996    14703    3            BFR$=VBASE(KN$IOP.BUF_);
      997    14704    3            CALL KNA$MAP(BFR$,KN$IOP.BUFSEGDES);
      998    14705
      999    14706        /*     Now figure out how much data to move into the user's buffer
     1000    14707        and go do it.  The virtual address of the user's buffer (KN$IOP.BUF_)
     1001    14708        has already been adjusted to point into the WINDOW1 segment.
     1002    14709        */
     1003    14710    3            DATA$=K$RWPARM.MSGC$;
     1004    14711    3            DATASIZE=K$RWPARM.MSGSZ;
     1005    14712
     1006    14713    3            IF DATASIZE > VBOUND(KN$IOP.BUF_)+1
     1007    14714    4            THEN DO;
     1008    14715    4                 DATASIZE = VBOUND(KN$IOP.BUF_)+1;
     1009    14716    4                 KN$IOP.FLAGS.TRUNC = '1'B;
     1010    14717    4                 END;
     1011    14718    3            DATAARS = DATASIZE;
     1012    14719
     1013    14720    3            BFR$->DATASTRING = DATA$ -> DATASTRING;
     1014    14721    3            IF KN$IOP.KEY_ ~= VECTOR(NIL)
     1015    14722    4            THEN DO;
     1016    14723    4                 BFR$=VBASE(KN$IOP.KEY_);
     1017    14724    4                 CALL KNA$MAP(BFR$,KN$IOP.KEYSEGDES);
     1018    14725
     1019    14726        /*     Now figure out how much data to move into the user's key buffer
     1020    14727        and go do it.  The virtual address of the user's key buffer (KN$IOP.KEY_)
     1021    14728        has already been adjusted to point into the WINDOW1 segment.
     1022    14729        */
     1023    14730    4                 DATA$=K$RWPARM.KEY$;
     1024    14731    4                 DATASIZE=K$RWPARM.KEYSZ;
PL6.E3A0      #002=KNA$IN File=KNA$APE.:E05TSI                                   WED 07/30/97 00:57 Page:135
     1025    14732
     1026    14733    4                 IF DATASIZE > VBOUND(KN$IOP.KEY_)+1
     1027    14734    5                 THEN DO;
     1028    14735    5                      DATASIZE = VBOUND(KN$IOP.KEY_)+1;
     1029    14736    5                      KN$IOP.FLAGS.TRUNC = '1'B;
     1030    14737    5                      END;
     1031    14738
     1032    14739    4                 BFR$->DATASTRING = DATA$ -> DATASTRING;
     1033    14740    4                 END;
     1034    14741        /*
     1035    14742          The data has been moved into the buffer.  Now, map over the users
     1036    14743          DCB so we can post status.
     1037    14744                                                                                      */
     1038    14745    3            CALL KNA$MAP(KN$IOP.DCB$,KN$IOP.DCBSEGDES);
     1039    14746
     1040    14747        /* Update the various read counters.
     1041    14748        */
     1042    14749    3            IF KV$VDOHDR.FNC=%KV_VDO_FNC_DAT
     1043    14750    4            THEN DO CASE(KN$IOP.DCB$->MYDCB.DDEV.RES);
     1044    14751    4             CASE(%G_DDEV_RES_HO#);
     1045    14752    4               PS_LCP6STT.BYTES_READ_HOST = PS_LCP6STT.BYTES_READ_HOST + DATAARS;
     1046    14753    4             CASE(%G_DDEV_RES_UC#);
     1047    14754    4               PS_LCP6STT.BYTES_READ_UC = PS_LCP6STT.BYTES_READ_UC + DATAARS;
     1048    14755    4             CASE(%G_DDEV_RES_LG#);
     1049    14756    4               PS_LCP6STT.BYTES_READ_LG = PS_LCP6STT.BYTES_READ_LG + DATAARS;
     1050    14757    4             CASE(%G_DDEV_RES_NA#);
     1051    14758    4               PS_LCP6STT.BYTES_READ_NA = PS_LCP6STT.BYTES_READ_NA + DATAARS;
     1052    14759    4               END/*do case*/;
     1053    14760    3            KN$IOP.DCB$->MYDCB.ARS = DATAARS;
     1054    14761    3            KN$IOP.DCB$->MYDCB.TYC.LD#=KN$IOP.FLAGS.TRUNC;
     1055    14762    3            IF NOT K$RWPARM.EOM_EOR
     1056    14763    3            THEN KN$IOP.DCB$->MYDCB.EOMCHAR=K$RWPARM.DVE.EOMCHAR;
     1057    14764    3            ELSE KN$IOP.DCB$->MYDCB.EOMCHAR=%G_EOM_EOR#;
     1058    14765    3            KN$IOP.DCB$->MYDCB.ACTPOS=K$RWPARM.ACTPOS;
     1059    14766    3            KN$IOP.DCB$->MYDCB.DVBYTE=K$RWPARM.DVE.DVBYTE;
     1060    14767    3            IF KN$IOP.DCB$->MYDCB.ORG = %G_ORG_FORM#
     1061    14768    3            THEN
PL6.E3A0      #002=KNA$IN File=KNA$APE.:E05TSI                                   WED 07/30/97 00:57 Page:136
     1062    14769    3                 KN$IOP.DCB$->MYDCB.FLDID=K$RWPARM.FLDID;
     1063    14770    3            KN$IOP.ERRCODE = K$RWPARM.MSG_ERRCODE;
     1064    14771    3            KN$IOP.MSGTYPE = K$RWPARM.MSGTYP;
     1065    14772        /*
     1066    14773          RUE the user.  If there were errors, they
     1067    14774          will be reported by KNA$USERIO, who was running on behalf of the
     1068    14775          user, when the user did the MCL.
     1069    14776                                                                                      */
     1070    14777    3   READ_COMP: ;
     1071    14778    3            IF KN$IOP.FLAGS.WAIT
     1072    14779    4            THEN DO;
     1073    14780    4                 IF G$USER.FLG(KNA$SSN.USER#) & %U_SCIO
     1074    14781    4                 THEN CALL GHS$RUE(%GH_EVCIC,KNA$SSN.USER#);
     1075    14782    4                 END;
     1076    14783    4            ELSE DO;                       /* It was a no wait I/O               */
     1077    14784    4                 NWIO = '0'B;
     1078    14785    4                 NWIO.P# = SIZEW(NWIO) - SIZEW(NWIO.P#);
     1079    14786    4                 TCB_ERR = KN$IOP.ERRCODE;
     1080    14787    4                 NWIO.ARS = DATAARS;
     1081    14788    4                 NWIO.DVE.DVBYTE = K$RWPARM.DVE.DVBYTE;
     1082    14789    4                 NWIO.DVE.EOMCHAR = K$RWPARM.DVE.EOMCHAR;
     1083    14790    4                 NWIO.CGPARM.STATION# = K$RWPARM.STATION;
     1084    14791    4                 NWIO.CGPARM.MSGTYP# = K$RWPARM.MSGTYP;
     1085    14792    4                 NWIO.CGPARM.MSGID# = K$RWPARM.MSGID;
     1086    14793    4                 EVENT = KN$IOP.EVENT;
     1087    14794    4                 CALL GHS$EVENT (KNA$SSN.USER#,%GH_USRDMN#,%G_IO_CMP#,EVENT,TCB_ERR,
             14794                          NWIO);
     1088    14795    4                 CALL KNA$RLSIOP(KNA$SSN.IOPRD$);
     1089    14796    4                 KNA$SSN.IOPRD$ = ADDR(NIL);
     1090    14797    4                 END;
     1091    14798        %EJECT;
PL6.E3A0      #002=KNA$IN File=KNA$APE.:E05TSI                                   WED 07/30/97 00:57 Page:137
     1092    14799        /*   A DCLSTR will cause the MULT_STR bit to be set in KNA$SSN */
     1093    14800    3          CASE (%KV_VDO_FNC_DCLSTR,%KV_VDO_FNC_CLSSTR,%KV_VDO_FNC_OPNSTR);
     1094    14801    3            KNA$SSN.FLAGS.MULT_STR  = '1'B;
     1095    14802
     1096    14803        %EJECT;
PL6.E3A0      #002=KNA$IN File=KNA$APE.:E05TSI                                   WED 07/30/97 00:57 Page:138
     1097    14804        /*
     1098    14805             A READ (DATA) REQUEST message merely saves the throttling info
     1099    14806        and unREGs our user if he's REGged BLOCKED.
     1100    14807        */
     1101    14808    3          CASE (%KV_VDO_FNC_RQSDAT);
     1102    14809    3            IF KN$NETPARM.UHDR$->KV$VDO_RQSDAT.EOFNO_DAT
     1103    14810    3              AND NOT (KNA$SSN.FLAGS.REGGED AND KNA$SSN.FLAGS.BLOCKED)
     1104    14811    3              AND KNA$SSN.STATE ~= %KNA_STATE_WTERM
     1105    14812    4            THEN DO;
     1106    14813    4                 KN$NETPARM.UHDR$=ADDR(NODAT_VDO);
     1107    14814    4                 KN$NETPARM.UHDRSZ = LENGTHC(NODAT_VDO);
     1108    14815    4                 KN$NETPARM.FUNCTION = %KN_FCN_DATA;
     1109    14816    4                 CALL KNS$SEND(KN$NETPARM) ALTRET(UNLK_N_ALTRET);
     1110    14817    4                 EXIT CASE_FCN;
     1111    14818    4                 END;
     1112    14819    3            IF KN$NETPARM.UHDR$->KV$VDO_RQSDAT.INCMAXNMBRCR
     1113    14820    3            THEN
     1114    14821    3                 KNA$SSN.THRTLVL.MAXNMBRCR = KNA$SSN.THRTLVL.MAXNMBRCR + KN$NETPARM.
             14821                          UHDR$ -> KV$VDO_RQSDAT.MAXNMBRCR;
     1115    14822    3            ELSE
     1116    14823    3                 KNA$SSN.THRTLVL.MAXNMBRCR = KN$NETPARM.UHDR$->KV$VDO_RQSDAT.MAXNMBRCR;
     1117    14824    3            IF KN$NETPARM.UHDR$->KV$VDO_RQSDAT.INCMAXNMBBYT
     1118    14825    4            THEN DO;
     1119    14826    4                 IF KNA$SSN.FLAGS.BLOCKED AND KNA$SSN.FLAGS.REGGED
     1120    14827    5                 THEN DO;
     1121    14828                           %UNLOCK(G=KNA_LNKSSN);
     1122    14835    5                      RETURN;
     1123    14836    5                      END;
     1124    14837    4                 KNA$SSN.THRTLVL.MAXNMBBYT = KNA$SSN.THRTLVL.MAXNMBBYT + KN$NETPARM.
             14837                          UHDR$ -> KV$VDO_RQSDAT.MAXNMBBYT;
     1125    14838    4                 END;
     1126    14839    3            ELSE
     1127    14840    3                 KNA$SSN.THRTLVL.MAXNMBBYT = KN$NETPARM.UHDR$->KV$VDO_RQSDAT.MAXNMBBYT;
     1128    14841    3            KNA$SSN.THRTLVL.MAXRCRBYTSIZ = KN$NETPARM.UHDR$->KV$VDO_RQSDAT.MAXRCRBYTSIZ
             14841                     ;
     1129    14842    3            KNA$SSN.THRTLVL.STR = KN$NETPARM.UHDR$->KV$VDO_RQSDAT.STR;
     1130    14843
PL6.E3A0      #002=KNA$IN File=KNA$APE.:E05TSI                                   WED 07/30/97 00:57 Page:139
     1131    14844    3            IF KNA$SSN.FLAGS.REGGED = '1'B AND
     1132    14845    3              KNA$SSN.FLAGS.BLOCKED = '1'B
     1133    14846    4            THEN DO;
     1134    14847    4                 CALL GHS$RUE(%GH_EVCUB,KNA$SSN.USER#);
     1135    14848    4                 KNA$SSN.FLAGS.BLOCKED = '0'B;
     1136    14849    4                 END;
     1137    14850    3            IF KNA$SSN.THRTLVL.MAXNMBBYT = 0 OR KNA$SSN.THRTLVL.MAXNMBRCR = 0
     1138    14851    4            THEN DO;
     1139    14852    4                 OPARM = KNA_RWPARM_CON;
     1140    14853    4                 CALL KNA$FCNO(%KV_VDO_FNC_BLKDAT,KNA$SSN,OPARM,KN$NETPARM.ERRCODE)
     1141    14854    5                 WHENALTRETURN DO;
     1142    14855    5   UNLK_N_ALTRET:     ;
     1143    14856                           %UNLOCK (G=KNA_LNKSSN);
     1144    14863    5                      ALTRETURN;
     1145    14864    5                      END;
     1146    14865    4                 END;
     1147    14866    4            ELSE DO;
     1148    14867    4                 IF KNA$SSN.EVENT ~= 0 AND (K$RWPARM.STR = KIDM_USER OR K$RWPARM.STR =
             14867                          KIDM_CP
     1149    14868    4                   OR K$RWPARM.STR ~= KIDM_MON AND KNA$SSN.FLAGS.MULT_STR)
     1150    14869    5                 THEN DO;
     1151    14870    5                      COMIO='0'B;
     1152    14871    5                      COMIO.P#=SIZEW(COMIO)-SIZEW(COMIO.P#);
     1153    14872    5                      COMIO.ARS=KN$NETPARM.UHDR$->KV$VDO_RQSDAT.MAXNMBBYT;
     1154    14873    5                      CALL GHS$EVENT(KNA$SSN.USER#,%GH_USRDMN#,%G_DATA_RQS#,KNA$SSN.
             14873                               EVENT,,COMIO);
     1155    14874    5                      END;
     1156    14875    4                 END;
     1157    14876        %EJECT;
PL6.E3A0      #002=KNA$IN File=KNA$APE.:E05TSI                                   WED 07/30/97 00:57 Page:140
     1158    14877        /*
     1159    14878             Ignore output block for now
     1160    14879         */
     1161    14880    3          CASE (%KV_VDO_FNC_BLKDAT);
     1162    14881
     1163    14882    3            IF KNA$SSN.EVENT ~= 0 AND (K$RWPARM.STR = KIDM_USER OR K$RWPARM.STR =
             14882                     KIDM_CP
     1164    14883    3              OR K$RWPARM.STR ~= KIDM_MON AND KNA$SSN.FLAGS.MULT_STR)
     1165    14884    4            THEN DO;
     1166    14885    4                 COMIO='0'B;
     1167    14886    4                 COMIO.P#=SIZEW(COMIO)-SIZEW(COMIO.P#);
     1168    14887    4                 COMIO.ARS=KN$NETPARM.UHDR$->KV$VDO_BLKDAT.RCRBYTSIZ;
     1169    14888    4                 CALL GHS$EVENT(KNA$SSN.USER#,%GH_USRDMN#,%G_DATA_AVL#,KNA$SSN.EVENT,,
             14888                          COMIO);
     1170    14889    4                 END;
     1171    14890        %EJECT;
PL6.E3A0      #002=KNA$IN File=KNA$APE.:E05TSI                                   WED 07/30/97 00:57 Page:141
     1172    14891    3          CASE (%KV_VDO_FNC_DAT_IMD);
     1173    14892    3            IF KV$VDOHDR.STR = KIDM_MON    /* Monitor stream                     */
     1174    14893    4            THEN DO;
     1175    14894    4                 DATASIZE=K$RWPARM.MSGSZ;
     1176    14895    4                 DATA$=K$RWPARM.MSGC$;
     1177    14896
     1178    14897
     1179    14898    4                 CALL GJU$EVENT(KNA$SSN.USER#,DATA$->DATASTRING);
     1180    14899    4                 END;
     1181    14900
     1182    14901        %EJECT;
PL6.E3A0      #002=KNA$IN File=KNA$APE.:E05TSI                                   WED 07/30/97 00:57 Page:142
     1183    14902    3          CASE (%KV_VDO_FNC_EVT);
     1184    14903    3            IF KNA$SSN.STATE = %KNA_STATE_ACTIVE#
     1185    14904    3            THEN
     1186    14905    3                 IF KV$VDO_EVT.TYP = %KV_EVTTYP_BRK
     1187    14906    3                   AND KV$VDO_EVT.BRKCNT < 4
     1188    14907    3                 THEN
     1189    14908    3                      CALL GHS$RUE(%GH_EVCBK,KNA$SSN.USER#);
     1190    14909    3                 ELSE
     1191    14910    3                      CALL GHS$RUE(%GH_EVCEC,KNA$SSN.USER#);
     1192    14911    3            GOTO CHECK_MRKPND;
     1193    14912        %EJECT;
PL6.E3A0      #002=KNA$IN File=KNA$APE.:E05TSI                                   WED 07/30/97 00:57 Page:143
     1194    14913    3          CASE (%KV_VDO_FNC_DSC_RQS);
     1195    14914    3            IF KNA$SSN.STATE = %KNA_STATE_ACTIVE#
     1196    14915    3            THEN
     1197    14916    3                 CALL GHS$RUE(%GH_EVDSC,KNA$SSN.USER#);
     1198    14917    3            KNA$SSN.STATE = %KNA_STATE_DSC#;
     1199    14918    3            KNA$SSN.ERROR = ELDSC;
     1200    14919    3            KNA$SSN.FLAGS.SSNERR = '1'B;
     1201    14920    3            GOTO CHECK_MRKPND;
     1202    14921
     1203    14922        %EJECT;
PL6.E3A0      #002=KNA$IN File=KNA$APE.:E05TSI                                   WED 07/30/97 00:57 Page:144
     1204    14923    3          CASE (%KV_VDO_FNC_CLSSSN_RQS);
     1205    14924    3            KNA$SSN.STATE = %KNA_STATE_DSC#;
     1206    14925    3            CALL GHS$RUE(%GH_EVBRK,KNA$SSN.USER#);
     1207    14926    3            KNA$SSN.ERROR = ELDSC;
     1208    14927    3            IF KNA$SSN.IOPRD$ ~= ADDR(NIL)
     1209    14928    3              AND NOT KNA$SSN.IOPRD$->KN$IOP.FLAGS.RDDONE
     1210    14929    4            THEN DO;
     1211    14930    4                 KNA$SSN.IOPRD$->KN$IOP.ERRCODE = ELDSC;
     1212    14931    4                 IOP$ = KNA$SSN.IOPRD$;
     1213    14932    4                 GOTO READ_COMP;
     1214    14933    4                 END;
     1215    14934
     1216    14935        %EJECT;
PL6.E3A0      #002=KNA$IN File=KNA$APE.:E05TSI                                   WED 07/30/97 00:57 Page:145
     1217    14936    3          CASE (%KV_VDO_FNC_PRM_SET);
     1218    14937
     1219    14938        %EJECT;
PL6.E3A0      #002=KNA$IN File=KNA$APE.:E05TSI                                   WED 07/30/97 00:57 Page:146
     1220    14939    3          CASE (%KV_VDO_FNC_RQSMRK);
     1221    14940    3   CHECK_MRKPND: ;
     1222    14941    3            IF K$RWPARM.MRKTYP = %KV_VDOMRKTYP_MRK
     1223    14942    4            THEN DO;
     1224    14943                                           /*  If there is a marker pending send it   */
     1225    14944    4                 IF (KNA$SSN.FLAGS.MRKPND)
     1226    14945    5                 THEN DO;
     1227    14946    5                      OPARM = KNA_RWPARM_CON;
     1228    14947    5                      OPARM.MARKER = KNA$SSN.MARKER;
     1229    14948    5                      OPARM.MRKTYP = %KV_VDOMRKTYP_MRK;
     1230    14949    5                      CALL KNA$FCNO(%KV_VDO_FNC_MRK,KNA$SSN,OPARM,KN$NETPARM.ERRCODE)
     1231    14950    5                        ALTRET (UNLK_N_ALTRET);
     1232    14951    5                      END;
     1233    14952                                            /* Save marker for EXIT, next READ, or
     1234    14953                                                an EVENT. */
     1235    14954    4                 KNA$SSN.MARKER = K$RWPARM.MARKER;
     1236    14955    4                 KNA$SSN.FLAGS.MRKPND = '1'B;
     1237    14956                                            /* Clear marker type so we don't send a
     1238    14957                                                marker back */
     1239    14958    4                 K$RWPARM.MRKTYP = 0;
     1240    14959    4                 END ;                     /* Do Case                            */
     1241    14960        %EJECT;
PL6.E3A0      #002=KNA$IN File=KNA$APE.:E05TSI                                   WED 07/30/97 00:57 Page:147
     1242    14961    3          CASE (%KV_VDO_FNC_RQSSTT);
     1243    14962    3            CALL GHQ$STATE(KN$LDCT.USER#,STATE);
     1244    14963    3            K$RWPARM.MSG$ = ADDR(STATE);
     1245    14964    3            K$RWPARM.MSGSZ = SIZEC(STATE);
     1246    14965    3            CALL KNA$FCNO (%KV_VDO_FNC_STT,KNA$SSN,K$RWPARM,KN$NETPARM.ERRCODE)
     1247    14966    3              ALTRET (UNLK_N_ALTRET);
     1248    14967
     1249    14968
     1250    14969        %EJECT;
PL6.E3A0      #002=KNA$IN File=KNA$APE.:E05TSI                                   WED 07/30/97 00:57 Page:148
     1251    14970    3          CASE (%KV_VDO_FNC_MRK);
     1252    14971
     1253    14972    3            IF KNA$SSN.FLAGS.RRRPND AND KNA$SSN.FLAGS.REGGED
     1254    14973    3              AND G$USER.FLG(KNA$SSN.USER#) & %U_SCIO
     1255    14974    4            THEN DO;
     1256    14975    4                 IOP$ = KNA$SSN.IOPQ$;
     1257    14976    4                 IF IOP$ ~= ADDR(NIL)
     1258    14977    5                 THEN DO;
     1259    14978    5                      KN$IOP.ERRCODE = K$RWPARM.MSG_ERRCODE;
     1260    14979    5                      KN$IOP.MSGID = K$RWPARM.MSGID;
     1261    14980    5                      KN$IOP.FLDID = K$RWPARM.FLDID;
     1262    14981    5                      END;
     1263    14982    4                 CALL GHS$RUE (%GH_EVCIC,KNA$SSN.USER#);
     1264    14983    4                 KNA$SSN.FLAGS.RRRPND= '0'B;
     1265    14984    4                 END;
     1266    14985                                 /* Clear marker type so we wont send a marker back   */
     1267    14986    3            K$RWPARM.MRKTYP = 0;
     1268    14987
     1269    14988        %EJECT;
PL6.E3A0      #002=KNA$IN File=KNA$APE.:E05TSI                                   WED 07/30/97 00:57 Page:149
     1270    14989    3          CASE (ELSE);
     1271    14990    3            CALL PROTOCOL_ERR;
     1272    14991    3            END/* do case (kv$vdohdr.fnc) */;
     1273    14992
     1274    14993    2         IF K$RWPARM.MRKTYP ~= 0
     1275    14994    3         THEN DO;
     1276    14995    3              OPARM = KNA_RWPARM_CON;
     1277    14996    3              OPARM.MRKTYP = K$RWPARM.MRKTYP;
     1278    14997
     1279    14998    4              DO CASE(K$RWPARM.MRKTYP);
     1280    14999
     1281    15000    4               CASE (%KV_VDOMRKTYP_SNDLSTRCRID);
     1282    15001    4                 OPARM.BLKREC = KNA$SSN.BLKREC;
     1283    15002    4                 OPARM.MRKTYP = %KV_VDOMRKTYP_LSTRCRID;
     1284    15003
     1285    15004    4               CASE (%KV_VDOMRKTYP_LSTRCRID);
     1286    15005    4                 KNA$SSN.BLKREC = K$RWPARM.BLKREC;
     1287    15006    4                 GOTO NO_MARKER;
     1288    15007
     1289    15008    4               CASE (%KV_VDOMRKTYP_ENDACK,%KV_VDOMRKTYP_MRK);
     1290    15009    4                 OPARM.MARKER = K$RWPARM.MARKER;
     1291    15010
     1292    15011    4                 END;
     1293    15012
     1294    15013    3              CALL KNA$FCNO (%KV_VDO_FNC_MRK,KNA$SSN,OPARM,KN$NETPARM.ERRCODE)
     1295    15014    4              WHENALTRETURN DO;
     1296    15015    4                   KV$VDOHDR.FNC = %KV_VDO_FNC_RQSMRK;
     1297    15016    4                   GOTO UNLK_N_ALTRET;
     1298    15017    4                   END;
     1299    15018    3   NO_MARKER: ;
     1300    15019    3              END;
     1301    15020        %EJECT;
PL6.E3A0      #002=KNA$IN File=KNA$APE.:E05TSI                                   WED 07/30/97 00:57 Page:150
     1302    15021    2       CASE (%KN_FCN_UNQ);
     1303    15022    2         IF KNA$SSN.FLAGS.CQ
     1304    15023    3         THEN DO;
     1305    15024    3              CALL GHS$RUE(%GH_EVCUB,KNA$SSN.USER#);
     1306    15025    3              KNA$SSN.FLAGS.CQ = '0'B;
     1307    15026    3              KNA$SSN.FLAGS.REGGED = '0'B;
     1308    15027    3              END;
     1309    15028        %EJECT;
PL6.E3A0      #002=KNA$IN File=KNA$APE.:E05TSI                                   WED 07/30/97 00:57 Page:151
     1310    15029    2       CASE (%KN_FCN_TERM);
     1311    15030    2         IF KNA$SSN.FLAGS.PRIMARY
     1312    15031    2         THEN
     1313    15032    2              CALL GHS$RUE (%GH_EVDSC,KNA$SSN.USER#);
     1314    15033    2         KNA$SSN.ERROR = ELDSC;
     1315    15034    2         KNA$SSN.FLAGS.SSNERR = '1'B;
     1316    15035    2         KNA$SSN.STATE = %KNA_STATE_TERM#;
     1317    15036    2         IF G$USER.FLG(KNA$SSN.USER#) & %U_SCIO
     1318    15037    2           AND G$USER.MISC$(KNA$SSN.USER#) = KNA$SSN.LDCT$
     1319    15038    2         THEN
     1320    15039    2              CALL GHS$RUE (%GH_EVFC,KNA$SSN.USER#);
     1321    15040
     1322    15041        %EJECT;
PL6.E3A0      #002=KNA$IN File=KNA$APE.:E05TSI                                   WED 07/30/97 00:57 Page:152
     1323    15042    2       CASE (%KN_FCN_TERM_ACK);
     1324    15043    2         CALL GHS$RUE (%GH_EVCIC,KNA$SSN.USER#);
     1325    15044
     1326    15045        %EJECT;
PL6.E3A0      #002=KNA$IN File=KNA$APE.:E05TSI                                   WED 07/30/97 00:57 Page:153
     1327    15046    2       CASE (ELSE);
     1328    15047    2         CALL SCREECH (SCR_UNEXP);
     1329    15048    2         END;
     1330    15049           %UNLOCK (G=KNA_LNKSSN);
     1331    15056    1      RETURN;
     1332    15057        %EJECT;
PL6.E3A0      #002=KNA$IN File=KNA$APE.:E05TSI                                   WED 07/30/97 00:57 Page:154
     1333    15058    1   PROTOCOL_ERR: PROC;
     1334    15059
     1335    15060        /*N* ERROR LOG */
     1336    15061    2      RETURN;
     1337    15062
     1338    15063    2   END PROTOCOL_ERR;
     1339    15064
     1340    15065    1   END KNA$IN;
     1341    15066        %EOD;

PL6.E3A0      #002=KNA$IN File=KNA$APE.:E05TSI                                   WED 07/30/97 00:57 Page:155
--  Include file information  --

   K_SCODE_C.:E05TOU  is referenced.
   KV$VDO.:E05TOU  is referenced.
   K$RWPARM.:E05TOU  is referenced.
   KN_ERRORS_C.:E05TOU  is referenced.
   GM_VIRTUAL_E.:E05TOU  is referenced.
   GU_LCP6_M.:E05TOU  is referenced.
   GH_LCP6_M.:E05TOU  is referenced.
   GH_SCHD_E.:E05TOU  is referenced.
   GF_LCP6_M.:E05TOU  is referenced.
   KNA_MACRO_M.:E05TOU  is referenced.
   KI_SUBS_C.:E05TOU  is referenced.
   KI_ERRORS_C.:E05TOU  is referenced.
   K_ID_E.:E05TOU  is referenced.
   KL_MACRO_C.:E05TOU  is referenced.
   P_FEP_M.:E05TOU  is referenced.
   KNH_MACRO_C.:E05TOU  is referenced.
   KN_DATA_M.:E05TOU  is referenced.
   GH_SCHD_M.:E05TOU  is referenced.
   GH_GATE_M.:E05TOU  cannot be made into a system file and is referenced.
   G_LCP6_E.:E05TOU  is referenced.
   F_ERRORS_C.:E05TOU  is referenced.
      No diagnostics issued in procedure KNA$IN.

   Procedure KNA$IN requires 1669 words for executable code.
   Procedure KNA$IN requires 140 words of local(AUTO) storage.

PL6.E3A0      #002=KNA$IN File=KNA$APE.:E05TSI                                   WED 07/30/97 00:57 Page:156

 Object Unit name= KNA$IN                                     File name= KNA$APE.:E05TOU
 UTS= JUL 30 '97 00:57:01.72 WED                              Compiler= PL-6/E31         Sev=      00
 SharedLib= :SHARED_LCP6_SYSTEM                               Alt SharedLib=


    ****  Control sections  ****

 Sect   Type Bound  Init  Size HexSiz  Section name
    0  RoData even  UTS     15      F  KNA$IN
    1   Proc  even  none  1669    685  KNA$IN
    2  RoData even  none     7      7  KNA$IN

    ****  Entry defs  ****

                              Check   Calling
                             calling  sequence
  Sect HexLoc Primary Altret sequence   type   Parms  Name
     1      0   yes    yes     yes      Std        1  KNA$IN
PL6.E3A0      #002=KNA$IN File=KNA$APE.:E05TSI                                   WED 07/30/97 00:57 Page:157

  ****  Entry refs  ****

         Check        Calling
        calling       sequence
Altret sequence SRef   type   Args  Name
 yes     yes           Std       1 GHH$LOCK
         yes           Std       1 SCREECH
 yes     yes           Std       1 GHH$UNLOCK
 yes     yes           Std       4 GHS$RUE
         yes           Std       2 KNA$MAP
 yes     yes           Std       1 KNA$DECODE_VDO
         yes           Std       7 GHS$EVENT
 yes     yes           Std       1 KNS$SEND
         yes           Std       2 GHQ$STATE
 yes     yes           Std       1 KNA$RLSIOP
 yes     yes           Std       4 KNA$FCNO
         yes           Std       2 GJU$EVENT
                       nStd      0 X6A_AUTO_1
                       nStd      0 X6A_ARET
                       nStd      0 X6A_AALT

  ****  Data refs  ****

  Flags:  r = read only, s = secondary
Flgs Name                             Flgs Name                             Flgs Name
     G$ASDT_MCL$                           G$USRT$                               KNA_LNKSSN
     KNA_RWPARM_CON                        PS_LCP6STT                       r    G$ROS$
PL6.E3A0      #002=KNA$IN File=KNA$APE.:E05TSI                                   WED 07/30/97 00:57 Page:158


      763        1        /*T***********************************************************/
      764        2        /*T*                                                         */
      765        3        /*T* Copyright (c) Bull HN Information Systems Inc., 1997    */
      766        4        /*T*                                                         */
      767        5        /*T***********************************************************/
      768        6        /*F*
      769        7           NAME: KNA$IN
      770        8           PURPOSE:
      771        9                  To field responses from Session on behalf of the entire
      772       10             Application Presentation Engine code.
      773       11           DESCRIPTION:
      774       12             The address of KNA$IN is put in KN$LDCT.USER_ENTRY$ by KNA$OPEN.
      775       13             KNS$SESSION  will call KN$LDCT.USER_ENTRY$.
      776       14
      777       15                  This routine inspects Session's reason for invoking it and
      778       16             does the appropriate thing.  This may be unreg a user, move data
      779       17             into a user's buffer, etc.
      780       18        */
      781       19        /*D*
      782       20           NAME: KNA$IN
      783       21           CALL:
      784       22                  CALL KNA$IN (INV_FNC,KN$NETPARM,CODE) ALTRET;
      785       23
      786       24                  This routine may ALTRET to indicate to the caller a problem.
      787       25           PARAMETERS:
      788       26                  INV_FNC - Function Session is invoking us for
      789       27                  KN$NETPARM - Structure with all sorts of miscellaneous info
      790       28                  CODE - A reason code associated with some invocations
      791       29           INTERFACE:
      792       30                  GHS$RUE - Report an event on this user
      793       31                  GHH$ASD - Activate a map's Segment Descriptor
      794       32           ENVIRONMENT:
      795       33                  Running on behalf of some unrelated user.
      796       34           DESCRIPTION:
      797       35                  This routine may be invoked for a whole slew of reasons.
      798       36             Session may be communicating: data available, connection established
PL6.E3A0      #002=KNA$IN File=KNA$APE.:E05TSI                                   WED 07/30/97 00:57 Page:159
      799       37             or rejected, connection lost, etc.
      800       38                  For connection established this routine merely sets some
      801       39             status in the user's SSN context and wakes up the proper user.
      802       40                  For data, this routine checks the function code of the
      803       41             message and handles it.  Typical function codes and actions would
      804       42             be:
      805       43                  WRITE - move data into user's buffer and RUE him
      806       44                  READ - update our throttling info and send RUE the user if
      807       45                         he is currently blocked on a M$WRITE
      808       46        */
      809       47        %EJECT;
PL6.E3A0      #002=KNA$IN File=KNA$APE.:E05TSI                                   WED 07/30/97 00:57 Page:160
      810       48        KNA$IN: PROC (KN$NETPARM) ALTRET;

     48   1 000000  D380 0000 0000  xent KNA$IN          LNJ,B5   X6A_AUTO_1
          1 000003       008C 0001                       DC       140,1

      811       49
      812       50        %INCLUDE F_ERRORS_C;
      813      290        %INCLUDE G_LCP6_E;
      814      548        %INCLUDE GH_GATE_M;
      815      589        %INCLUDE GH_SCHD_M;
      816      733        %INCLUDE KN_DATA_M;
      817     2519        %INCLUDE KNH_MACRO_C;
      818     2802        %INCLUDE P_FEP_M;
      819     3240        %INCLUDE KL_MACRO_C;
      820     6592        %INCLUDE K_ID_E;
      821     6642        %K#ENTID_E;
      822     6661        %INCLUDE KI_ERRORS_C;
      823     6746        %INCLUDE KI_SUBS_C;
      824     6882        %INCLUDE KNA_MACRO_M;
      825     6958        %INCLUDE GF_LCP6_M;
      826     7426        %INCLUDE GH_SCHD_E;
      827     7522        %INCLUDE GH_LCP6_M;
      828     8356        %INCLUDE GU_LCP6_M;
      829     9284        %INCLUDE GM_VIRTUAL_E;
      830     9494        %INCLUDE KN_ERRORS_C;
      831     9558        %INCLUDE K$RWPARM;
      832     9944        %INCLUDE KV$VDO;
      833    10959        %INCLUDE K_SCODE_C;
      834    11044
      835    11045        /*     Parameter definitions */
      836    11046        %KN$NETPARM (STCLASS="");
      837    11199
      838    11200        /*     Auto storage */
      839    11201    1   DCL BFR$ CPTR;
      840    11202    1   DCL EVENT UBIN;
      841    11203    1   DCL LSTIOP$ PTR;
      842    11204    1   DCL SSN$ PTR;
PL6.E3A0      #002=KNA$IN File=KNA$APE.:E05TSI                                   WED 07/30/97 00:57 Page:161
      843    11205    1   DCL IOP$ PTR;
      844    11206    1   DCL DATASIZE UBIN;
      845    11207    1   DCL DATAARS UBIN;
      846    11208    1   DCL DATA$ CPTR;
      847    11209    1   DCL VLP$ PTR;
      848    11210    1   DCL ERR UBIN;
      849    11211    1   DCL TCB_ERR BIT(32);
      850    11212    1   DCL STATE CHAR(4);
      851    11213        %K$RWPARM(NAME=K$RWPARM,STCLASS="");
      852    11529        %K$RWPARM (NAME=OPARM,STCLASS=AUTO);
      853    11845        %G$COMIO (FPTN=COMIO,PARONLY=1,STCLASS=AUTO);
      854    11853        %G$NWIO (FPTN=NWIO,PARONLY=1,STCLASS=AUTO);
      855    11882
      856    11883        /*     External pointers */
      857    11884    1   DCL G$ASDT_MCL$ PTR SYMREF;
      858    11885    1   DCL G$WINDOW1$ PTR SYMREF;
      859    11886    1   DCL G$USRT$ PTR SYMREF;
      860    11887
      861    11888        /*     Based storage */
      862    11889    1   DCL CODE UBIN BASED(KN$NETPARM.FPT$);
      863    11890        %G$USER (FPTN="G$USER(0:0)",STCLASS="BASED(G$USRT$)");
      864    11901    1   DCL DATASTRING CHAR(DATASIZE) BASED;
      865    11902        %M$DCB(DCBN=MYDCB,STCLASS=BASED);
      866    11953        %KN$LDCT (STCLASS="BASED(KN$NETPARM.LDCT$)");
      867    12198        %KN$IOP (STCLASS="BASED(IOP$)");
      868    12371        %G$ASDT_MCL (STCLASS="BASED(G$ASDT_MCL$)");
      869    13065        %KNA$SSN (STCLASS="BASED(SSN$)");
      870    13148        /*     VDO macro invocations  */
      871    13149        %KV_VDO_ALL_E;
      872    13228        %KV$VDO(NAME=KV$VDOHDR,STCLASS="BASED(KN$NETPARM.UHDR$)");
      873    13255        %KV$VDO_EVT(STCLASS="BASED(KN$NETPARM.UHDR$)");
      874    13297        %KV$VDO_RQSDAT;
      875    13345        %KV$VDO_BLKDAT;
      876    13388        /*     Constant */
      877    13389        %VLP_ERRCODE (FPTN=ECNCFAIL,STCLASS=CONSTANT,
      878    13390                       FCG=KN,MID=A,MON='1'B,ERR#=%E$CNCFAIL);
      879    13436        %VLP_ERRCODE (FPTN=ELDSC,STCLASS=CONSTANT,
PL6.E3A0      #002=KNA$IN File=KNA$APE.:E05TSI                                   WED 07/30/97 00:57 Page:162
      880    13437                       FCG=KN,MID=A,MON='1'B,ERR#=%E$LDSC,SEV=G_SEV_ABORT#);
      881    13483        %VLP_ERRCODE (FPTN=EBYD,STCLASS=CONSTANT,
      882    13484                       FCG=KN,MID=A,MON='1'B,ERR#=%E$BYD,SEV=G_SEV_CONT#);
      883    13530        %VLP_SCODE (FPTN=SCR_UNEXP,FCG=KN,MID=A,ERR#=%S$UNEXPRESP,
      884    13531                       MON='1'B,SEV=G_SEV_SCREECH#,STCLASS=CONSTANT);
      885    13592        %KV$VDO_DAT (NAME=NODAT_VDO,STCLASS=CONSTANT,
      886    13593                       FNC=KV_VDO_FNC_DAT,VLP=YES,LAST=",");
      887    13638        %KV$VDOVLP_ERR (NAME=ERR,LST=YES,LVL=2,STCLASS=CONSTANT,
      888    13639                       FCG=KN,MID=A,ERR#=%E$NODAT,SEV=0,MON='1'B);
      889    13736
      890    13737        /*    Symrefs        */
      891    13738        %GATE(FPTN=KNA_LNKIOP,STCLASS=SYMREF);
      892    13757        %GATE (FPTN=KNA_LNKSSN,STCLASS=SYMREF);
      893    13776
      894    13777        /*     ENTRY definitions
      895    13778        */
      896    13779    1   DCL KNA$FCNO ENTRY(4) ALTRET;
      897    13780    1   DCL KNA$MAP ENTRY(2);
      898    13781    1   DCL GHS$EVENT ENTRY(7);
      899    13782    1   DCL KNA$RLSIOP ENTRY(1) ALTRET;
      900    13783    1   DCL SCREECH ENTRY(1);
      901    13784    1   DCL GHH$ASD ENTRY(2);
      902    13785    1   DCL GHQ$STATE ENTRY(2);
      903    13786    1   DCL GHS$RUE ENTRY(4) ALTRET;
      904    13787    1   DCL GJU$EVENT ENTRY(2);
      905    13788    1   DCL KNS$SEND ENTRY(1) ALTRET;
      906    13789    1   DCL KNA$DECODE_VDO ENTRY(1) ALTRET;
      907    13790
      908    13791        /* Symrefs */
      909    13792        %K$RWPARM (NAME=KNA_RWPARM_CON,STCLASS=SYMREF);
      910    14108        %PS_LCP6STT (STCLASS=SYMREF);
      911    14612        %EJECT;
PL6.E3A0      #002=KNA$IN File=KNA$APE.:E05TSI                                   WED 07/30/97 00:57 Page:163
      912    14613
      913    14614        /*   Break out what to do by invocation function
      914    14615        */
      915    14616
      916    14617    2      IF KN$NETPARM.FUNCTION ~= %KN_FCN_INIT_ACK THEN DO;

  14617   1 000005  ECC7 0004                            LDB,B6   @KN$NETPARM,AUTO
          1 000007  E846 0014                            LDR,R6   20,B6
          1 000009  6D02                                 CMV,R6   2
          1 00000A  0901 000A                            BE       s:14626,PREL

      917    14618                %LOCK (G=KNA_LNKSSN);

  14623   1 00000C  BB80 0000 0000  02                   LAB,B3   0
          1 00000F  CBF0 0100                            LAB,B4   256,IMO
          1 000011  E380 0000 0000  xent                 LNJ,B6   GHH$LOCK
          1 000014       0001                            DC       s:14626,PREL

      918    14625    2           END;

      919    14626    1      SSN$ = KN$LDCT.UID$;

  14626   1 000015  ECC7 0004                            LDB,B6   @KN$NETPARM,AUTO
          1 000017  DC86                                 LDB,B5   ,B6
          1 000018  CCC5 0005                            LDB,B4   5,B5
          1 00001A  CFC7 000B                            STB,B4   SSN$,AUTO

      920    14627    1   CASE_FCN:
      921    14628    2      DO CASE (KN$NETPARM.FUNCTION);

  14628   1 00001C  B846 0014            CASE_FCN        LDR,R3   20,B6
          1 00001E  3D09                                 CMV,R3   9
          1 00001F  0281 064A                            BGE      s:15047,PREL
          1 000021  A830 0000 0027  01                   LDR,R2   CASE_FCN+11,R3
          1 000024  83A0 0000 0030  01                   JMP      s:14637,R2
          1 000027       063A                            DC       s:15047,PREL
          1 000028       063A                            DC       s:15047,PREL
PL6.E3A0      #002=KNA$IN File=KNA$APE.:E05TSI                                   WED 07/30/97 00:57 Page:164
          1 000029       0000                            DC       s:14637,PREL
          1 00002A       05DC                            DC       s:15030,PREL
          1 00002B       0628                            DC       s:15043,PREL
          1 00002C       0038                            DC       s:14663,PREL
          1 00002D       063A                            DC       s:15047,PREL
          1 00002E       063A                            DC       s:15047,PREL
          1 00002F       05C0                            DC       s:15022,PREL

      922    14629
      923    14630        /*   KN_FCN_INIT_ACK tells us that Session has finished trying to
      924    14631        establish the network connection for us.  We better be in a state to
      925    14632        accept this.  CODE tells us whether the connection attempt actually
      926    14633        succeeded or not.
      927    14634        */
      928    14635
      929    14636    2       CASE (%KN_FCN_INIT_ACK);

      930    14637    2         IF KNA$SSN.STATE ~= %KNA_STATE_WSSNINIT#

  14637   1 000030  E844 0013                            LDR,R6   19,B4
          1 000032  6D01                                 CMV,R6   1
          1 000033  0901 000A                            BE       s:14640,PREL

      931    14638    2         THEN CALL SCREECH(SCR_UNEXP);

  14638   1 000035  BB80 0000 0002  02                   LAB,B3   +2
          1 000038  CBF0 0100                            LAB,B4   256,IMO
          1 00003A  E380 0000 0000  xent                 LNJ,B6   SCREECH
          1 00003D       0001                            DC       s:14640,PREL

      932    14639
      933    14640    2         IF CODE ~= 0

  14640   1 00003E  ECC7 0004                            LDB,B6   @KN$NETPARM,AUTO
          1 000040  DCC6 0019                            LDB,B5   25,B6
          1 000042  E805                                 LDR,R6   ,B5
          1 000043  6901 000C                            BEZ,R6   s:14653,PREL
PL6.E3A0      #002=KNA$IN File=KNA$APE.:E05TSI                                   WED 07/30/97 00:57 Page:165

      934    14641    3         THEN DO;

      935    14642    3              KNA$SSN.ERROR = ECNCFAIL;

  14642   1 000045  8C80 0000 0000  00                   LDI      ECNCFAIL
          1 000048  CCC7 000B                            LDB,B4   SSN$,AUTO
          1 00004A  8D44 0001                            SDI      1,B4

      936    14643    3              KNA$SSN.FLAGS.SSNERR = '1'B;

  14643   1 00004C  8904                                 LBT,'0800'X       ,B4
  14643   1 00004D       0800

      937    14644    3              END;

  14644   1 00004E  0F81 0006                            B        s:14654,PREL

      938    14645        /*E* ERROR: KNA-E$CNCFAIL
      939    14646             MESSAGE: The attempt to create the network connection has failed.
      940    14647        */
      941    14648
      942    14649        /*   The connection succeeded, so set the status and wake up our sleepy
      943    14650        user.
      944    14651        */
      945    14652    2         ELSE
      946    14653    2              KNA$SSN.STATE = %KNA_STATE_WSSNOPN#;

  14653   1 000050  CCC7 000B                            LDB,B4   SSN$,AUTO
          1 000052  5C02                                 LDV,R5   2
          1 000053  DF44 0013                            STR,R5   19,B4

      947    14654    2         CALL GHS$RUE(%GH_EVCIC,KNA$SSN.USER#);

  14654   1 000055  DBF0 0017                            LAB,B5   23,IMO
          1 000057  BBC4 0011                            LAB,B3   17,B4
          1 000059  BFC7 0082                            STB,B3   NWIO+20,AUTO
PL6.E3A0      #002=KNA$IN File=KNA$APE.:E05TSI                                   WED 07/30/97 00:57 Page:166
          1 00005B  DFC7 0080                            STB,B5   NWIO+18,AUTO
          1 00005D  BBC7 0080                            LAB,B3   NWIO+18,AUTO
          1 00005F  CBF0 0200                            LAB,B4   512,IMO
          1 000061  E380 0000 0000  xent                 LNJ,B6   GHS$RUE
          1 000064       0001                            DC       s:14655,PREL

      948    14655    2         RETURN;

  14655   1 000065  C380 0000 0000  xent                 LNJ,B4   X6A_ARET

      949    14656
      950    14657        %EJECT;
PL6.E3A0      #002=KNA$IN File=KNA$APE.:E05TSI                                   WED 07/30/97 00:57 Page:167
      951    14658        /*
      952    14659             KN_FCN_DATA involves handling by Presentation function code
      953    14660        the message(s) received.
      954    14661        */
      955    14662    2       CASE (%KN_FCN_DATA);

      956    14663    2         K$RWPARM=KNA_RWPARM_CON;

  14663   1 000068  AB80 0000 0000  xsym                 LAB,B2   KNA_RWPARM_CON
          1 00006B  2C00                                 LDV,R2   0
          1 00006C  6C52                                 LDV,R6   82
          1 00006D  BB87                                 LAB,B3   ,AUTO
          1 00006E  3C34                                 LDV,R3   52
          1 00006F  0008                                 MMM

      957    14664    2         K$RWPARM.UHDR$=KN$NETPARM.UHDR$;

  14664   1 000070  DCC6 0005                            LDB,B5   5,B6
          1 000072  DFC7 0031                            STB,B5   K$RWPARM+23,AUTO

      958    14665    2         K$RWPARM.UHDRSZ = KN$NETPARM.UHDRSZ;

  14665   1 000074  E846 0007                            LDR,R6   7,B6
          1 000076  EF47 0033                            STR,R6   K$RWPARM+25,AUTO

      959    14666
      960    14667    2         IF KV$VDOHDR.FNC = %KV_VDO_FNC_DAT

  14667   1 000078  CCC6 0005                            LDB,B4   5,B6
          1 00007A  D284                                 LLH,R5   ,B4
          1 00007B  5D05                                 CMV,R5   5
          1 00007C  0981 0009                            BNE      s:14669,PREL

      961    14668    2         THEN IOP$ = KNA$SSN.IOPRD$;

  14668   1 00007E  ACC7 000B                            LDB,B2   SSN$,AUTO
          1 000080  9CC2 000D                            LDB,B1   13,B2
PL6.E3A0      #002=KNA$IN File=KNA$APE.:E05TSI                                   WED 07/30/97 00:57 Page:168
          1 000082  9FC7 000D                            STB,B1   IOP$,AUTO
          1 000084  0F81 0007                            B        s:14671,PREL

      962    14669    2         ELSE IOP$=KNA$SSN.IOPQ$;

  14669   1 000086  ACC7 000B                            LDB,B2   SSN$,AUTO
          1 000088  9CC2 000B                            LDB,B1   11,B2
          1 00008A  9FC7 000D                            STB,B1   IOP$,AUTO

      963    14670
      964    14671    2         IF IOP$ ~= ADDR(NIL)

  14671   1 00008C  8DC7 000D                            CMN      IOP$,AUTO
          1 00008E  0901 000B                            BE       s:14676,PREL

      965    14672    3         THEN DO;

      966    14673    3              K$RWPARM.KEYTYPE = KN$IOP.KEYTYPE;

  14673   1 000090  C841 0002                            LDR,R4   2,B1
          1 000092  C7C7 0042                            STH,R4   K$RWPARM+40,AUTO

      967    14674    3              K$RWPARM.READMLT = KN$IOP.FLAGS.READMLT;

  14674   1 000094  D841 0003                            LDR,R5   3,B1
          1 000096  5003                                 SOL,R5   3
          1 000097  DAC7 002A                            SRM,R5,'4000'X    K$RWPARM+16,AUTO
          1 000099       4000

      968    14675    3              END;

      969    14676    2         CALL KNA$DECODE_VDO(K$RWPARM)

  14676   1 00009A  CBC7 001A                            LAB,B4   K$RWPARM,AUTO
          1 00009C  CFC7 0080                            STB,B4   NWIO+18,AUTO
          1 00009E  BBC7 0080                            LAB,B3   NWIO+18,AUTO
          1 0000A0  CBF0 0100                            LAB,B4   256,IMO
PL6.E3A0      #002=KNA$IN File=KNA$APE.:E05TSI                                   WED 07/30/97 00:57 Page:169
          1 0000A2  E380 0000 0000  xent                 LNJ,B6   KNA$DECODE_VDO
          1 0000A5       0003                            DC       s:14678,PREL
          1 0000A6  0F81 0006                            B        s:14682,PREL

      970    14677    3         WHENALTRETURN DO;

      971    14678    3              CALL PROTOCOL_ERR;

  14678   1 0000A8  E3C0 05D6                            LNJ,B6   s:0,PREL
          1 0000AA       0001                            DC       s:14679,PREL

      972    14679    3              EXIT CASE_FCN;

  14679   1 0000AB  0F81 05C7                            B        s:15054,PREL

      973    14680    3              END;
      974    14681
      975    14682    3         DO CASE (KV$VDOHDR.FNC);

  14682   1 0000AD  ECC7 0004                            LDB,B6   @KN$NETPARM,AUTO
          1 0000AF  DCC6 0005                            LDB,B5   5,B6
          1 0000B1  B285                                 LLH,R3   ,B5
          1 0000B2  3D23                                 CMV,R3   35
          1 0000B3  0281 04DC                            BGE      s:14990,PREL
          1 0000B5  A830 0000 00BB  01                   LDR,R2   s:14682+14,R3
          1 0000B8  83A0 0000 00DE  01                   JMP      s:14694,R2
          1 0000BB       04B2                            DC       s:14990,PREL
          1 0000BC       04B2                            DC       s:14990,PREL
          1 0000BD       02F4                            DC       s:14882,PREL
          1 0000BE       03CB                            DC       s:14924,PREL
          1 0000BF       04B2                            DC       s:14990,PREL
          1 0000C0       0000                            DC       s:14694,PREL
          1 0000C1       033B                            DC       s:14892,PREL
          1 0000C2       04B2                            DC       s:14990,PREL
          1 0000C3       01E0                            DC       s:14801,PREL
          1 0000C4       04B2                            DC       s:14990,PREL
          1 0000C5       03A6                            DC       s:14914,PREL
PL6.E3A0      #002=KNA$IN File=KNA$APE.:E05TSI                                   WED 07/30/97 00:57 Page:170
          1 0000C6       04B2                            DC       s:14990,PREL
          1 0000C7       04B2                            DC       s:14990,PREL
          1 0000C8       036F                            DC       s:14903,PREL
          1 0000C9       04B2                            DC       s:14990,PREL
          1 0000CA       04B2                            DC       s:14990,PREL
          1 0000CB       04B2                            DC       s:14990,PREL
          1 0000CC       04B2                            DC       s:14990,PREL
          1 0000CD       0000                            DC       s:14694,PREL
          1 0000CE       04B5                            DC       s:14993,PREL
          1 0000CF       04B2                            DC       s:14990,PREL
          1 0000D0       04B2                            DC       s:14990,PREL
          1 0000D1       01E6                            DC       s:14809,PREL
          1 0000D2       04B2                            DC       s:14990,PREL
          1 0000D3       043A                            DC       s:14962,PREL
          1 0000D4       04B2                            DC       s:14990,PREL
          1 0000D5       04B2                            DC       s:14990,PREL
          1 0000D6       04B2                            DC       s:14990,PREL
          1 0000D7       04B2                            DC       s:14990,PREL
          1 0000D8       04B2                            DC       s:14990,PREL
          1 0000D9       04B2                            DC       s:14990,PREL
          1 0000DA       046E                            DC       s:14972,PREL
          1 0000DB       03F9                            DC       s:14939,PREL
          1 0000DC       01E0                            DC       s:14801,PREL
          1 0000DD       01E0                            DC       s:14801,PREL

      976    14683
      977    14684        /*     A WRITE REQUEST contains data for our user.  We will have to
      978    14685        map onto our user's buffer after finding the IO packet for him.
      979    14686        */
      980    14687    3          CASE (%KV_VDO_FNC_DAT,%KV_VDO_FNC_PRM_RSP);

      981    14688
      982    14689        /*
      983    14690          Locate the I/O packet for the stream we just got the buffer for and
      984    14691          screech if we can't find it.
      985    14692                                                                                      */
      986    14693
PL6.E3A0      #002=KNA$IN File=KNA$APE.:E05TSI                                   WED 07/30/97 00:57 Page:171
      987    14694    3            IF IOP$ = ADDR(NIL)

  14694   1 0000DE  8DC7 000D                            CMN      IOP$,AUTO
          1 0000E0  0981 0006                            BNE      s:14702,PREL

      988    14695    4            THEN DO;

      989    14696    4                 CALL PROTOCOL_ERR;

  14696   1 0000E2  E3C0 059C                            LNJ,B6   s:0,PREL
          1 0000E4       0001                            DC       s:14697,PREL

      990    14697    4                 EXIT CASE_FCN;

  14697   1 0000E5  0F81 058D                            B        s:15054,PREL

      991    14698    4                 END;
      992    14699        /*
      993    14700          Map onto the users buffer so we can move the data into it
      994    14701                                                                                      */
      995    14702    3            KN$IOP.FLAGS.RDDONE = '1'B;

  14702   1 0000E7  CCC7 000D                            LDB,B4   IOP$,AUTO
          1 0000E9  8944 0003                            LBT,'2000'X       3,B4
          1 0000EB       2000

      996    14703    3            BFR$=VBASE(KN$IOP.BUF_);

  14703   1 0000EC  8CC4 0005                            LDI      5,B4
          1 0000EE  8D47 0006                            SDI      BFR$,AUTO

      997    14704    3            CALL KNA$MAP(BFR$,KN$IOP.BUFSEGDES);

  14704   1 0000F0  DBC4 0010                            LAB,B5   16,B4
          1 0000F2  DFC7 0082                            STB,B5   NWIO+20,AUTO
          1 0000F4  BBC7 0006                            LAB,B3   BFR$,AUTO
          1 0000F6  BFC7 0080                            STB,B3   NWIO+18,AUTO
PL6.E3A0      #002=KNA$IN File=KNA$APE.:E05TSI                                   WED 07/30/97 00:57 Page:172
          1 0000F8  BBC7 0080                            LAB,B3   NWIO+18,AUTO
          1 0000FA  CBF0 0200                            LAB,B4   512,IMO
          1 0000FC  E380 0000 0000  xent                 LNJ,B6   KNA$MAP
          1 0000FF       0001                            DC       s:14710,PREL

      998    14705
      999    14706        /*     Now figure out how much data to move into the user's buffer
     1000    14707        and go do it.  The virtual address of the user's buffer (KN$IOP.BUF_)
     1001    14708        has already been adjusted to point into the WINDOW1 segment.
     1002    14709        */
     1003    14710    3            DATA$=K$RWPARM.MSGC$;

  14710   1 000100  8CC7 001A                            LDI      K$RWPARM,AUTO
          1 000102  8D47 0011                            SDI      DATA$,AUTO

     1004    14711    3            DATASIZE=K$RWPARM.MSGSZ;

  14711   1 000104  D847 001C                            LDR,R5   K$RWPARM+2,AUTO
          1 000106  DF47 000F                            STR,R5   DATASIZE,AUTO

     1005    14712
     1006    14713    3            IF DATASIZE > VBOUND(KN$IOP.BUF_)+1

  14713   1 000108  ECC7 000D                            LDB,B6   IOP$,AUTO
          1 00010A  C846 0004                            LDR,R4   4,B6
          1 00010C  4E01                                 ADV,R4   1
          1 00010D  C955                                 CMR,R4   R5
          1 00010E  0281 0007                            BGE      s:14718,PREL

     1007    14714    4            THEN DO;

     1008    14715    4                 DATASIZE = VBOUND(KN$IOP.BUF_)+1;

  14715   1 000110  D854                                 LDR,R5   R4
          1 000111  DF47 000F                            STR,R5   DATASIZE,AUTO

     1009    14716    4                 KN$IOP.FLAGS.TRUNC = '1'B;
PL6.E3A0      #002=KNA$IN File=KNA$APE.:E05TSI                                   WED 07/30/97 00:57 Page:173

  14716   1 000113  8946 0003                            LBT,'8000'X       3,B6
  14716   1 000115       8000

     1010    14717    4                 END;

     1011    14718    3            DATAARS = DATASIZE;

  14718   1 000116  DF47 0010                            STR,R5   DATAARS,AUTO

     1012    14719
     1013    14720    3            BFR$->DATASTRING = DATA$ -> DATASTRING;

  14720   1 000118  8CC7 0006                            LDI      BFR$,AUTO
          1 00011A  B856                                 LDR,R3   R6
          1 00011B  E570 7FFF                            AND,R6   32767,IMO
          1 00011D  8D47 0080                            SDI      NWIO+18,AUTO
          1 00011F  DCC7 0080                            LDB,B5   NWIO+18,AUTO
          1 000121  304F                                 SOR,R3   15
          1 000122  8CC7 0011                            LDI      DATA$,AUTO
          1 000124  A856                                 LDR,R2   R6
          1 000125  E570 7FFF                            AND,R6   32767,IMO
          1 000127  8D47 0082                            SDI      NWIO+20,AUTO
          1 000129  CCC7 0082                            LDB,B4   NWIO+20,AUTO
          1 00012B  204F                                 SOR,R2   15
          1 00012C  AB84                                 LAB,B2   ,B4
          1 00012D  E855                                 LDR,R6   R5
          1 00012E  BB85                                 LAB,B3   ,B5
          1 00012F  0008                                 MMM

     1014    14721    3            IF KN$IOP.KEY_ ~= VECTOR(NIL)

  14721   1 000130  ECC7 000D                            LDB,B6   IOP$,AUTO
          1 000132  9B80 0000 0000  02                   LAB,B1   0
          1 000135  5C06                                 LDV,R5   6
          1 000136  0022                                 ACM      ;
          1 000137       4606 0007                                ALPHANUM(7,B6,,6,FILL),;
PL6.E3A0      #002=KNA$IN File=KNA$APE.:E05TSI                                   WED 07/30/97 00:57 Page:174
          1 000139       4001 0004                                ALPHANUM(4,B1,,R5,FILL)
          1 00013B  5381 0046                            CBE      s:14745,PREL

     1015    14722    4            THEN DO;

     1016    14723    4                 BFR$=VBASE(KN$IOP.KEY_);

  14723   1 00013D  8CC6 0008                            LDI      8,B6
          1 00013F  8D47 0006                            SDI      BFR$,AUTO

     1017    14724    4                 CALL KNA$MAP(BFR$,KN$IOP.KEYSEGDES);

  14724   1 000141  9BC6 0012                            LAB,B1   18,B6
          1 000143  9FC7 0082                            STB,B1   NWIO+20,AUTO
          1 000145  EBC7 0006                            LAB,B6   BFR$,AUTO
          1 000147  EFC7 0080                            STB,B6   NWIO+18,AUTO
          1 000149  BBC7 0080                            LAB,B3   NWIO+18,AUTO
          1 00014B  CBF0 0200                            LAB,B4   512,IMO
          1 00014D  E380 0000 0000  xent                 LNJ,B6   KNA$MAP
          1 000150       0001                            DC       s:14730,PREL

     1018    14725
     1019    14726        /*     Now figure out how much data to move into the user's key buffer
     1020    14727        and go do it.  The virtual address of the user's key buffer (KN$IOP.KEY_)
     1021    14728        has already been adjusted to point into the WINDOW1 segment.
     1022    14729        */
     1023    14730    4                 DATA$=K$RWPARM.KEY$;

  14730   1 000151  ECC7 003D                            LDB,B6   K$RWPARM+35,AUTO
          1 000153  EFC7 0011                            STB,B6   DATA$,AUTO

     1024    14731    4                 DATASIZE=K$RWPARM.KEYSZ;

  14731   1 000155  E847 0042                            LDR,R6   K$RWPARM+40,AUTO
          1 000157  E570 00FF                            AND,R6   255,IMO
          1 000159  EF47 000F                            STR,R6   DATASIZE,AUTO

PL6.E3A0      #002=KNA$IN File=KNA$APE.:E05TSI                                   WED 07/30/97 00:57 Page:175
     1025    14732
     1026    14733    4                 IF DATASIZE > VBOUND(KN$IOP.KEY_)+1

  14733   1 00015B  DCC7 000D                            LDB,B5   IOP$,AUTO
          1 00015D  D845 0007                            LDR,R5   7,B5
          1 00015F  5E01                                 ADV,R5   1
          1 000160  D956                                 CMR,R5   R6
          1 000161  0281 0007                            BGE      s:14739,PREL

     1027    14734    5                 THEN DO;

     1028    14735    5                      DATASIZE = VBOUND(KN$IOP.KEY_)+1;

  14735   1 000163  E855                                 LDR,R6   R5
          1 000164  EF47 000F                            STR,R6   DATASIZE,AUTO

     1029    14736    5                      KN$IOP.FLAGS.TRUNC = '1'B;

  14736   1 000166  8945 0003                            LBT,'8000'X       3,B5
  14736   1 000168       8000

     1030    14737    5                      END;

     1031    14738
     1032    14739    4                 BFR$->DATASTRING = DATA$ -> DATASTRING;

  14739   1 000169  8CC7 0006                            LDI      BFR$,AUTO
          1 00016B  B856                                 LDR,R3   R6
          1 00016C  E570 7FFF                            AND,R6   32767,IMO
          1 00016E  8D47 0080                            SDI      NWIO+18,AUTO
          1 000170  CCC7 0080                            LDB,B4   NWIO+18,AUTO
          1 000172  304F                                 SOR,R3   15
          1 000173  8CC7 0011                            LDI      DATA$,AUTO
          1 000175  A856                                 LDR,R2   R6
          1 000176  E570 7FFF                            AND,R6   32767,IMO
          1 000178  8D47 0082                            SDI      NWIO+20,AUTO
          1 00017A  BCC7 0082                            LDB,B3   NWIO+20,AUTO
PL6.E3A0      #002=KNA$IN File=KNA$APE.:E05TSI                                   WED 07/30/97 00:57 Page:176
          1 00017C  204F                                 SOR,R2   15
          1 00017D  AB83                                 LAB,B2   ,B3
          1 00017E  E847 000F                            LDR,R6   DATASIZE,AUTO
          1 000180  BB84                                 LAB,B3   ,B4
          1 000181  0008                                 MMM

     1033    14740    4                 END;

     1034    14741        /*
     1035    14742          The data has been moved into the buffer.  Now, map over the users
     1036    14743          DCB so we can post status.
     1037    14744                                                                                      */
     1038    14745    3            CALL KNA$MAP(KN$IOP.DCB$,KN$IOP.DCBSEGDES);

  14745   1 000182  ECC7 000D                            LDB,B6   IOP$,AUTO
          1 000184  DBC6 0014                            LAB,B5   20,B6
          1 000186  DFC7 0082                            STB,B5   NWIO+20,AUTO
          1 000188  ABC6 000A                            LAB,B2   10,B6
          1 00018A  AFC7 0080                            STB,B2   NWIO+18,AUTO
          1 00018C  BBC7 0080                            LAB,B3   NWIO+18,AUTO
          1 00018E  CBF0 0200                            LAB,B4   512,IMO
          1 000190  E380 0000 0000  xent                 LNJ,B6   KNA$MAP
          1 000193       0001                            DC       s:14749,PREL

     1039    14746
     1040    14747        /* Update the various read counters.
     1041    14748        */
     1042    14749    3            IF KV$VDOHDR.FNC=%KV_VDO_FNC_DAT

  14749   1 000194  ECC7 0004                            LDB,B6   @KN$NETPARM,AUTO
          1 000196  DCC6 0005                            LDB,B5   5,B6
          1 000198  E285                                 LLH,R6   ,B5
          1 000199  6D05                                 CMV,R6   5
          1 00019A  0981 0041                            BNE      s:14760,PREL

     1043    14750    4            THEN DO CASE(KN$IOP.DCB$->MYDCB.DDEV.RES);

PL6.E3A0      #002=KNA$IN File=KNA$APE.:E05TSI                                   WED 07/30/97 00:57 Page:177
  14750   1 00019C  CCC7 000D                            LDB,B4   IOP$,AUTO
          1 00019E  BCC4 000A                            LDB,B3   10,B4
          1 0001A0  B843 0003                            LDR,R3   3,B3
          1 0001A2  B570 0007                            AND,R3   7,IMO
          1 0001A4  3D05                                 CMV,R3   5
          1 0001A5  0281 0036                            BGE      s:14760,PREL
          1 0001A7  A830 0000 01AD  01                   LDR,R2   s:14750+17,R3
          1 0001AA  83A0 0000 01B2  01                   JMP      s:14752,R2
          1 0001AD       002A                            DC       s:14760,PREL
          1 0001AE       0000                            DC       s:14752,PREL
          1 0001AF       000B                            DC       s:14754,PREL
          1 0001B0       0016                            DC       s:14756,PREL
          1 0001B1       0021                            DC       s:14758,PREL

     1044    14751    4             CASE(%G_DDEV_RES_HO#);

     1045    14752    4               PS_LCP6STT.BYTES_READ_HOST = PS_LCP6STT.BYTES_READ_HOST + DATAARS;

  14752   1 0001B2  F847 0010                            LDR,R7   DATAARS,AUTO
          1 0001B4  6C00                                 LDV,R6   0
          1 0001B5  8400 0000 0066  xsym                 AID      PS_LCP6STT+102
          1 0001B8  8D00 0000 0066  xsym                 SDI      PS_LCP6STT+102
          1 0001BB  0F81 0020                            B        s:14760,PREL

     1046    14753    4             CASE(%G_DDEV_RES_UC#);

     1047    14754    4               PS_LCP6STT.BYTES_READ_UC = PS_LCP6STT.BYTES_READ_UC + DATAARS;

  14754   1 0001BD  F847 0010                            LDR,R7   DATAARS,AUTO
          1 0001BF  6C00                                 LDV,R6   0
          1 0001C0  8400 0000 0068  xsym                 AID      PS_LCP6STT+104
          1 0001C3  8D00 0000 0068  xsym                 SDI      PS_LCP6STT+104
          1 0001C6  0F81 0015                            B        s:14760,PREL

     1048    14755    4             CASE(%G_DDEV_RES_LG#);

     1049    14756    4               PS_LCP6STT.BYTES_READ_LG = PS_LCP6STT.BYTES_READ_LG + DATAARS;
PL6.E3A0      #002=KNA$IN File=KNA$APE.:E05TSI                                   WED 07/30/97 00:57 Page:178

  14756   1 0001C8  F847 0010                            LDR,R7   DATAARS,AUTO
          1 0001CA  6C00                                 LDV,R6   0
          1 0001CB  8400 0000 006A  xsym                 AID      PS_LCP6STT+106
          1 0001CE  8D00 0000 006A  xsym                 SDI      PS_LCP6STT+106
          1 0001D1  0F81 000A                            B        s:14760,PREL

     1050    14757    4             CASE(%G_DDEV_RES_NA#);

     1051    14758    4               PS_LCP6STT.BYTES_READ_NA = PS_LCP6STT.BYTES_READ_NA + DATAARS;

  14758   1 0001D3  F847 0010                            LDR,R7   DATAARS,AUTO
          1 0001D5  6C00                                 LDV,R6   0
          1 0001D6  8400 0000 006C  xsym                 AID      PS_LCP6STT+108
          1 0001D9  8D00 0000 006C  xsym                 SDI      PS_LCP6STT+108

     1052    14759    4               END/*do case*/;

     1053    14760    3            KN$IOP.DCB$->MYDCB.ARS = DATAARS;

  14760   1 0001DC  DCC7 000D                            LDB,B5   IOP$,AUTO
          1 0001DE  CCC5 000A                            LDB,B4   10,B5
          1 0001E0  E847 0010                            LDR,R6   DATAARS,AUTO
          1 0001E2  EF04                                 STR,R6   ,B4

     1054    14761    3            KN$IOP.DCB$->MYDCB.TYC.LD#=KN$IOP.FLAGS.TRUNC;

  14761   1 0001E3  CCC5 000A                            LDB,B4   10,B5
          1 0001E5  D845 0003                            LDR,R5   3,B5
          1 0001E7  DAC4 0001                            SRM,R5,'8000'X    1,B4
          1 0001E9       8000

     1055    14762    3            IF NOT K$RWPARM.EOM_EOR

  14762   1 0001EA  82C7 002A                            LB,'2000'X        K$RWPARM+16,AUTO
  14762   1 0001EC       2000
          1 0001ED  0501 000B                            BBT      s:14764,PREL
PL6.E3A0      #002=KNA$IN File=KNA$APE.:E05TSI                                   WED 07/30/97 00:57 Page:179

     1056    14763    3            THEN KN$IOP.DCB$->MYDCB.EOMCHAR=K$RWPARM.DVE.EOMCHAR;

  14763   1 0001EF  CCC5 000A                            LDB,B4   10,B5
          1 0001F1  0021                                 ALR      ;
          1 0001F2       C107 0029                                ALPHANUM(K$RWPARM+15,AUTO,1,1),;
          1 0001F4       4204 0022                                ALPHANUM(34,B4,,2,FILL)
          1 0001F6  437F                                 CSYNC    s:14763+6,SPREL
          1 0001F7  0F81 000B                            B        s:14765,PREL

     1057    14764    3            ELSE KN$IOP.DCB$->MYDCB.EOMCHAR=%G_EOM_EOR#;

  14764   1 0001F9  CCC5 000A                            LDB,B4   10,B5
          1 0001FB  AB80 0000 0000  00                   LAB,B2   ECNCFAIL
          1 0001FE  2C1C                                 LDV,R2   28
          1 0001FF  6C02                                 LDV,R6   2
          1 000200  BB84                                 LAB,B3   ,B4
          1 000201  3C44                                 LDV,R3   68
          1 000202  0008                                 MMM

     1058    14765    3            KN$IOP.DCB$->MYDCB.ACTPOS=K$RWPARM.ACTPOS;

  14765   1 000203  DCC7 000D                            LDB,B5   IOP$,AUTO
          1 000205  CCC5 000A                            LDB,B4   10,B5
          1 000207  E847 0041                            LDR,R6   K$RWPARM+39,AUTO
          1 000209  EF44 002F                            STR,R6   47,B4

     1059    14766    3            KN$IOP.DCB$->MYDCB.DVBYTE=K$RWPARM.DVE.DVBYTE;

  14766   1 00020B  CCC5 000A                            LDB,B4   10,B5
          1 00020D  E2C7 0029                            LLH,R6   K$RWPARM+15,AUTO
          1 00020F  6008                                 SOL,R6   8
          1 000210  6048                                 SOR,R6   8
          1 000211  E7C4 0002                            STH,R6   2,B4

     1060    14767    3            IF KN$IOP.DCB$->MYDCB.ORG = %G_ORG_FORM#

PL6.E3A0      #002=KNA$IN File=KNA$APE.:E05TSI                                   WED 07/30/97 00:57 Page:180
  14767   1 000213  CCC5 000A                            LDB,B4   10,B5
          1 000215  E844 001F                            LDR,R6   31,B4
          1 000217  E570 00FF                            AND,R6   255,IMO
          1 000219  6D02                                 CMV,R6   2
          1 00021A  0981 0005                            BNE      s:14770,PREL

     1061    14768    3            THEN
     1062    14769    3                 KN$IOP.DCB$->MYDCB.FLDID=K$RWPARM.FLDID;

  14769   1 00021C  D847 0040                            LDR,R5   K$RWPARM+38,AUTO
          1 00021E  DF44 0021                            STR,R5   33,B4

     1063    14770    3            KN$IOP.ERRCODE = K$RWPARM.MSG_ERRCODE;

  14770   1 000220  8CC7 0034                            LDI      K$RWPARM+26,AUTO
          1 000222  8D05                                 SDI      ,B5

     1064    14771    3            KN$IOP.MSGTYPE = K$RWPARM.MSGTYP;

  14771   1 000223  AB87                                 LAB,B2   ,AUTO
          1 000224  2C42                                 LDV,R2   66
          1 000225  6C08                                 LDV,R6   8
          1 000226  BB85                                 LAB,B3   ,B5
          1 000227  3C2C                                 LDV,R3   44
          1 000228  0008                                 MMM

  14771   1                              READ_COMP       null
     1065    14772        /*
     1066    14773          RUE the user.  If there were errors, they
     1067    14774          will be reported by KNA$USERIO, who was running on behalf of the
     1068    14775          user, when the user did the MCL.
     1069    14776                                                                                      */
     1070    14777    3   READ_COMP: ;
     1071    14778    3            IF KN$IOP.FLAGS.WAIT

  14778   1 000229  ECC7 000D            READ_COMP       LDB,B6   IOP$,AUTO
          1 00022B  82C6 0003                            LB,'4000'X        3,B6
PL6.E3A0      #002=KNA$IN File=KNA$APE.:E05TSI                                   WED 07/30/97 00:57 Page:181
          1 00022D       4000
          1 00022E  0581 0025                            BBF      s:14784,PREL

     1072    14779    4            THEN DO;

     1073    14780    4                 IF G$USER.FLG(KNA$SSN.USER#) & %U_SCIO

  14780   1 000230  DCC7 000B                            LDB,B5   SSN$,AUTO
          1 000232  B845 0011                            LDR,R3   17,B5
          1 000234  CC80 0000 0000  xsym                 LDB,B4   G$USRT$
          1 000237  BF47 0080                            STR,R3   NWIO+18,AUTO
          1 000239  3F18                                 MLV,R3   24
          1 00023A  B847 0080                            LDR,R3   NWIO+18,AUTO
          1 00023C  3F18                                 MLV,R3   24
          1 00023D  E834                                 LDR,R6   ,B4,R3
          1 00023E  E570 0800                            AND,R6   2048,IMO
          1 000240  6901 0352                            BEZ,R6   s:14993,PREL

     1074    14781    4                 THEN CALL GHS$RUE(%GH_EVCIC,KNA$SSN.USER#);

  14781   1 000242  BBF0 0017                            LAB,B3   23,IMO
          1 000244  ABC5 0011                            LAB,B2   17,B5
          1 000246  AFC7 0082                            STB,B2   NWIO+20,AUTO
          1 000248  BFC7 0080                            STB,B3   NWIO+18,AUTO
          1 00024A  BBC7 0080                            LAB,B3   NWIO+18,AUTO
          1 00024C  CBF0 0200                            LAB,B4   512,IMO
          1 00024E  E380 0000 0000  xent                 LNJ,B6   GHS$RUE
          1 000251       0001                            DC       s:14782,PREL

     1075    14782    4                 END;

  14782   1 000252  0F81 0340                            B        s:14993,PREL

     1076    14783    4            ELSE DO;                       /* It was a no wait I/O               */

     1077    14784    4                 NWIO = '0'B;

PL6.E3A0      #002=KNA$IN File=KNA$APE.:E05TSI                                   WED 07/30/97 00:57 Page:182
  14784   1 000254  5C20                                 LDV,R5   32
          1 000255  0021                                 ALR      ;
          1 000256       4178 0000                                ALPHANUM('0000'X,IMO,,1),;
          1 000258       4007 006E                                ALPHANUM(NWIO,AUTO,,R5,FILL)

     1078    14785    4                 NWIO.P# = SIZEW(NWIO) - SIZEW(NWIO.P#);

  14785   1 00025A  6C0F                                 LDV,R6   15
          1 00025B  437F                                 CSYNC    s:14785,SPREL
          1 00025C  EF47 006E                            STR,R6   NWIO,AUTO

     1079    14786    4                 TCB_ERR = KN$IOP.ERRCODE;

  14786   1 00025E  8C86                                 LDI      ,B6
          1 00025F  8D47 0016                            SDI      TCB_ERR,AUTO

     1080    14787    4                 NWIO.ARS = DATAARS;

  14787   1 000261  C847 0010                            LDR,R4   DATAARS,AUTO
          1 000263  CF47 006F                            STR,R4   NWIO+1,AUTO

     1081    14788    4                 NWIO.DVE.DVBYTE = K$RWPARM.DVE.DVBYTE;

  14788   1 000265  B847 0029                            LDR,R3   K$RWPARM+15,AUTO
          1 000267  BAC7 0070                            SRM,R3,'FE00'X    NWIO+2,AUTO
          1 000269       FE00

     1082    14789    4                 NWIO.DVE.EOMCHAR = K$RWPARM.DVE.EOMCHAR;

  14789   1 00026A  BAC7 0070                            SRM,R3,'00FF'X    NWIO+2,AUTO
  14789   1 00026C       00FF

     1083    14790    4                 NWIO.CGPARM.STATION# = K$RWPARM.STATION;

  14790   1 00026D  AB87                                 LAB,B2   ,AUTO
          1 00026E  2C3A                                 LDV,R2   58
          1 00026F  6C08                                 LDV,R6   8
PL6.E3A0      #002=KNA$IN File=KNA$APE.:E05TSI                                   WED 07/30/97 00:57 Page:183
          1 000270  BBC7 0072                            LAB,B3   NWIO+4,AUTO
          1 000272  3C00                                 LDV,R3   0
          1 000273  0008                                 MMM

     1084    14791    4                 NWIO.CGPARM.MSGTYP# = K$RWPARM.MSGTYP;

  14791   1 000274  AB87                                 LAB,B2   ,AUTO
          1 000275  2C42                                 LDV,R2   66
          1 000276  6C08                                 LDV,R6   8
          1 000277  BBC7 0076                            LAB,B3   NWIO+8,AUTO
          1 000279  3C00                                 LDV,R3   0
          1 00027A  0008                                 MMM

     1085    14792    4                 NWIO.CGPARM.MSGID# = K$RWPARM.MSGID;

  14792   1 00027B  8CC7 002B                            LDI      K$RWPARM+17,AUTO
          1 00027D  8D47 007B                            SDI      NWIO+13,AUTO

     1086    14793    4                 EVENT = KN$IOP.EVENT;

  14793   1 00027F  ECC7 000D                            LDB,B6   IOP$,AUTO
          1 000281  C846 001A                            LDR,R4   26,B6
          1 000283  CF47 0008                            STR,R4   EVENT,AUTO

     1087    14794    4                 CALL GHS$EVENT (KNA$SSN.USER#,%GH_USRDMN#,%G_IO_CMP#,EVENT,TCB_ERR,
             14794                          NWIO);

  14794   1 000285  DBF0 0000                            LAB,B5   0,IMO
          1 000287  CBF0 0005                            LAB,B4   5,IMO
          1 000289  BBC7 006E                            LAB,B3   NWIO,AUTO
          1 00028B  BFC7 008A                            STB,B3   NWIO+28,AUTO
          1 00028D  9BC7 0016                            LAB,B1   TCB_ERR,AUTO
          1 00028F  9FC7 0088                            STB,B1   NWIO+26,AUTO
          1 000291  EBC7 0008                            LAB,B6   EVENT,AUTO
          1 000293  EFC7 0086                            STB,B6   NWIO+24,AUTO
          1 000295  CFC7 0084                            STB,B4   NWIO+22,AUTO
          1 000297  DFC7 0082                            STB,B5   NWIO+20,AUTO
PL6.E3A0      #002=KNA$IN File=KNA$APE.:E05TSI                                   WED 07/30/97 00:57 Page:184
          1 000299  ECC7 000B                            LDB,B6   SSN$,AUTO
          1 00029B  DBC6 0011                            LAB,B5   17,B6
          1 00029D  DFC7 0080                            STB,B5   NWIO+18,AUTO
          1 00029F  BBC7 0080                            LAB,B3   NWIO+18,AUTO
          1 0002A1  CBF0 0600                            LAB,B4   1536,IMO
          1 0002A3  E380 0000 0000  xent                 LNJ,B6   GHS$EVENT
          1 0002A6       0001                            DC       s:14795,PREL

     1088    14795    4                 CALL KNA$RLSIOP(KNA$SSN.IOPRD$);

  14795   1 0002A7  ECC7 000B                            LDB,B6   SSN$,AUTO
          1 0002A9  DBC6 000D                            LAB,B5   13,B6
          1 0002AB  DFC7 0080                            STB,B5   NWIO+18,AUTO
          1 0002AD  BBC7 0080                            LAB,B3   NWIO+18,AUTO
          1 0002AF  CBF0 0100                            LAB,B4   256,IMO
          1 0002B1  E380 0000 0000  xent                 LNJ,B6   KNA$RLSIOP
          1 0002B4       0001                            DC       s:14796,PREL

     1089    14796    4                 KNA$SSN.IOPRD$ = ADDR(NIL);

  14796   1 0002B5  EB80 0000 0000                       LAB,B6   0
          1 0002B8  DCC7 000B                            LDB,B5   SSN$,AUTO
          1 0002BA  EFC5 000D                            STB,B6   13,B5

     1090    14797    4                 END;

  14797   1 0002BC  0F81 02D6                            B        s:14993,PREL

     1091    14798        %EJECT;
PL6.E3A0      #002=KNA$IN File=KNA$APE.:E05TSI                                   WED 07/30/97 00:57 Page:185
     1092    14799        /*   A DCLSTR will cause the MULT_STR bit to be set in KNA$SSN */
     1093    14800    3          CASE (%KV_VDO_FNC_DCLSTR,%KV_VDO_FNC_CLSSTR,%KV_VDO_FNC_OPNSTR);

     1094    14801    3            KNA$SSN.FLAGS.MULT_STR  = '1'B;

  14801   1 0002BE  CCC7 000B                            LDB,B4   SSN$,AUTO
          1 0002C0  8904                                 LBT,'0100'X       ,B4
          1 0002C1       0100
          1 0002C2  0F81 02D0                            B        s:14993,PREL

     1095    14802
     1096    14803        %EJECT;
PL6.E3A0      #002=KNA$IN File=KNA$APE.:E05TSI                                   WED 07/30/97 00:57 Page:186
     1097    14804        /*
     1098    14805             A READ (DATA) REQUEST message merely saves the throttling info
     1099    14806        and unREGs our user if he's REGged BLOCKED.
     1100    14807        */
     1101    14808    3          CASE (%KV_VDO_FNC_RQSDAT);

     1102    14809    3            IF KN$NETPARM.UHDR$->KV$VDO_RQSDAT.EOFNO_DAT

  14809   1 0002C4  82C5 0004                            LB,'0400'X        4,B5
  14809   1 0002C6       0400
          1 0002C7  0581 0024                            BBF      s:14819,PREL
          1 0002C9  CCC7 000B                            LDB,B4   SSN$,AUTO
          1 0002CB  8984                                 CMZ      ,B4
          1 0002CC  0881 0005                            BAGE     s:14809+14,PREL
          1 0002CE  8284                                 LB,'4000'X        ,B4
          1 0002CF       4000
          1 0002D0  0501 001B                            BBT      s:14819,PREL
          1 0002D2  E844 0013                            LDR,R6   19,B4
          1 0002D4  6D06                                 CMV,R6   6
          1 0002D5  0901 0016                            BE       s:14819,PREL

     1103    14810    3              AND NOT (KNA$SSN.FLAGS.REGGED AND KNA$SSN.FLAGS.BLOCKED)
     1104    14811    3              AND KNA$SSN.STATE ~= %KNA_STATE_WTERM
     1105    14812    4            THEN DO;

     1106    14813    4                 KN$NETPARM.UHDR$=ADDR(NODAT_VDO);

  14813   1 0002D7  BB80 0000 0009  00                   LAB,B3   NODAT_VDO
          1 0002DA  BFC6 0005                            STB,B3   5,B6

     1107    14814    4                 KN$NETPARM.UHDRSZ = LENGTHC(NODAT_VDO);

  14814   1 0002DC  6C0A                                 LDV,R6   10
          1 0002DD  EF46 0007                            STR,R6   7,B6

     1108    14815    4                 KN$NETPARM.FUNCTION = %KN_FCN_DATA;

PL6.E3A0      #002=KNA$IN File=KNA$APE.:E05TSI                                   WED 07/30/97 00:57 Page:187
  14815   1 0002DF  5C05                                 LDV,R5   5
          1 0002E0  DF46 0014                            STR,R5   20,B6

     1109    14816    4                 CALL KNS$SEND(KN$NETPARM) ALTRET(UNLK_N_ALTRET);

  14816   1 0002E2  BBC7 0004                            LAB,B3   @KN$NETPARM,AUTO
          1 0002E4  CBF0 0100                            LAB,B4   256,IMO
          1 0002E6  E380 0000 0000  xent                 LNJ,B6   KNS$SEND
          1 0002E9       0094                            DC       s:14854,PREL

     1110    14817    4                 EXIT CASE_FCN;

  14817   1 0002EA  0F81 0388                            B        s:15054,PREL

     1111    14818    4                 END;
     1112    14819    3            IF KN$NETPARM.UHDR$->KV$VDO_RQSDAT.INCMAXNMBRCR

  14819   1 0002EC  89C5 0004                            CMZ      4,B5
          1 0002EE  0881 000B                            BAGE     s:14823,PREL

     1113    14820    3            THEN
     1114    14821    3                 KNA$SSN.THRTLVL.MAXNMBRCR = KNA$SSN.THRTLVL.MAXNMBRCR + KN$NETPARM.
             14821                          UHDR$ -> KV$VDO_RQSDAT.MAXNMBRCR;

  14821   1 0002F0  CCC7 000B                            LDB,B4   SSN$,AUTO
          1 0002F2  E844 0008                            LDR,R6   8,B4
          1 0002F4  EA45 0002                            ADD,R6   2,B5
          1 0002F6  EF44 0008                            STR,R6   8,B4
          1 0002F8  0F81 0007                            B        s:14824,PREL

     1115    14822    3            ELSE
     1116    14823    3                KNA$SSN.THRTLVL.MAXNMBRCR = KN$NETPARM.UHDR$->KV$VDO_RQSDAT.MAXNMBRCR;

  14823   1 0002FA  CCC7 000B                            LDB,B4   SSN$,AUTO
          1 0002FC  E845 0002                            LDR,R6   2,B5
          1 0002FE  EF44 0008                            STR,R6   8,B4

PL6.E3A0      #002=KNA$IN File=KNA$APE.:E05TSI                                   WED 07/30/97 00:57 Page:188
     1117    14824    3            IF KN$NETPARM.UHDR$->KV$VDO_RQSDAT.INCMAXNMBBYT

  14824   1 000300  DCC6 0005                            LDB,B5   5,B6
          1 000302  82C5 0004                            LB,'4000'X        4,B5
          1 000304       4000
          1 000305  0581 001C                            BBF      s:14840,PREL

     1118    14825    4            THEN DO;

     1119    14826    4                 IF KNA$SSN.FLAGS.BLOCKED AND KNA$SSN.FLAGS.REGGED

  14826   1 000307  8284                                 LB,'4000'X        ,B4
  14826   1 000308       4000
          1 000309  0581 0010                            BBF      s:14837,PREL
          1 00030B  8984                                 CMZ      ,B4
          1 00030C  0881 000D                            BAGE     s:14837,PREL

     1120    14827    5                 THEN DO;

     1121    14828                           %UNLOCK(G=KNA_LNKSSN);

  14833   1 00030E  BB80 0000 0000  02                   LAB,B3   0
          1 000311  CBF0 0100                            LAB,B4   256,IMO
          1 000313  E380 0000 0000  xent                 LNJ,B6   GHH$UNLOCK
          1 000316       0001                            DC       s:14835,PREL

     1122    14835    5                      RETURN;

  14835   1 000317  C380 0000 0000  xent                 LNJ,B4   X6A_ARET

     1123    14836    5                      END;
     1124    14837    4                 KNA$SSN.THRTLVL.MAXNMBBYT = KNA$SSN.THRTLVL.MAXNMBBYT + KN$NETPARM.
             14837                          UHDR$ -> KV$VDO_RQSDAT.MAXNMBBYT;

  14837   1 00031A  D844 0007                            LDR,R5   7,B4
          1 00031C  DA45 0003                            ADD,R5   3,B5
          1 00031E  DF44 0007                            STR,R5   7,B4
PL6.E3A0      #002=KNA$IN File=KNA$APE.:E05TSI                                   WED 07/30/97 00:57 Page:189

     1125    14838    4                 END;

  14838   1 000320  0F81 0005                            B        s:14841,PREL

     1126    14839    3            ELSE
     1127    14840    3                KNA$SSN.THRTLVL.MAXNMBBYT = KN$NETPARM.UHDR$->KV$VDO_RQSDAT.MAXNMBBYT;

  14840   1 000322  D845 0003                            LDR,R5   3,B5
          1 000324  DF44 0007                            STR,R5   7,B4

     1128    14841    3           KNA$SSN.THRTLVL.MAXRCRBYTSIZ = KN$NETPARM.UHDR$->KV$VDO_RQSDAT.MAXRCRBYTSIZ
             14841                     ;

  14841   1 000326  DCC6 0005                            LDB,B5   5,B6
          1 000328  C845 0001                            LDR,R4   1,B5
          1 00032A  CF44 0009                            STR,R4   9,B4

     1129    14842    3            KNA$SSN.THRTLVL.STR = KN$NETPARM.UHDR$->KV$VDO_RQSDAT.STR;

  14842   1 00032C  DCC6 0005                            LDB,B5   5,B6
          1 00032E  B805                                 LDR,R3   ,B5
          1 00032F  B570 007F                            AND,R3   127,IMO
          1 000331  BF44 000A                            STR,R3   10,B4

     1130    14843
     1131    14844    3            IF KNA$SSN.FLAGS.REGGED = '1'B AND

  14844   1 000333  8984                                 CMZ      ,B4
          1 000334  0881 0019                            BAGE     s:14850,PREL
          1 000336  8284                                 LB,'4000'X        ,B4
          1 000337       4000
          1 000338  0581 0015                            BBF      s:14850,PREL

     1132    14845    3              KNA$SSN.FLAGS.BLOCKED = '1'B
     1133    14846    4            THEN DO;

PL6.E3A0      #002=KNA$IN File=KNA$APE.:E05TSI                                   WED 07/30/97 00:57 Page:190
     1134    14847    4                 CALL GHS$RUE(%GH_EVCUB,KNA$SSN.USER#);

  14847   1 00033A  DBF0 001A                            LAB,B5   26,IMO
          1 00033C  BBC4 0011                            LAB,B3   17,B4
          1 00033E  BFC7 0082                            STB,B3   NWIO+20,AUTO
          1 000340  DFC7 0080                            STB,B5   NWIO+18,AUTO
          1 000342  BBC7 0080                            LAB,B3   NWIO+18,AUTO
          1 000344  CBF0 0200                            LAB,B4   512,IMO
          1 000346  E380 0000 0000  xent                 LNJ,B6   GHS$RUE
          1 000349       0001                            DC       s:14848,PREL

     1135    14848    4                 KNA$SSN.FLAGS.BLOCKED = '0'B;

  14848   1 00034A  ECC7 000B                            LDB,B6   SSN$,AUTO
          1 00034C  8806                                 LBF,'4000'X       ,B6
          1 00034D       4000

     1136    14849    4                 END;

     1137    14850    3            IF KNA$SSN.THRTLVL.MAXNMBBYT = 0 OR KNA$SSN.THRTLVL.MAXNMBRCR = 0

  14850   1 00034E  ECC7 000B                            LDB,B6   SSN$,AUTO
          1 000350  E846 0007                            LDR,R6   7,B6
          1 000352  6901 0005                            BEZ,R6   s:14852,PREL
          1 000354  D846 0008                            LDR,R5   8,B6
          1 000356  5981 0034                            BNEZ,R5  s:14867,PREL

     1138    14851    4            THEN DO;

     1139    14852    4                 OPARM = KNA_RWPARM_CON;

  14852   1 000358  AB80 0000 0000  xsym                 LAB,B2   KNA_RWPARM_CON
          1 00035B  2C00                                 LDV,R2   0
          1 00035C  6C52                                 LDV,R6   82
          1 00035D  BBC7 0043                            LAB,B3   OPARM,AUTO
          1 00035F  3C00                                 LDV,R3   0
          1 000360  0008                                 MMM
PL6.E3A0      #002=KNA$IN File=KNA$APE.:E05TSI                                   WED 07/30/97 00:57 Page:191

     1140    14853    4                 CALL KNA$FCNO(%KV_VDO_FNC_BLKDAT,KNA$SSN,OPARM,KN$NETPARM.ERRCODE)

  14853   1 000361  EBF0 0002                            LAB,B6   2,IMO
          1 000363  DCC7 0004                            LDB,B5   @KN$NETPARM,AUTO
          1 000365  CBC5 0016                            LAB,B4   22,B5
          1 000367  CFC7 0086                            STB,B4   NWIO+24,AUTO
          1 000369  BBC7 0043                            LAB,B3   OPARM,AUTO
          1 00036B  BFC7 0084                            STB,B3   NWIO+22,AUTO
          1 00036D  ACC7 000B                            LDB,B2   SSN$,AUTO
          1 00036F  AFC7 0082                            STB,B2   NWIO+20,AUTO
          1 000371  EFC7 0080                            STB,B6   NWIO+18,AUTO
          1 000373  BBC7 0080                            LAB,B3   NWIO+18,AUTO
          1 000375  CBF0 0400                            LAB,B4   1024,IMO
          1 000377  E380 0000 0000  xent                 LNJ,B6   KNA$FCNO
          1 00037A       0003                            DC       s:14854,PREL
          1 00037B  0F81 000D                            B        s:14865,PREL

     1141    14854    5                 WHENALTRETURN DO;

  14848   1                              UNLK_N_ALTRET   null
     1142    14855    5   UNLK_N_ALTRET:     ;
     1143    14856                           %UNLOCK (G=KNA_LNKSSN);

  14861   1 00037D  BB80 0000 0000  02   UNLK_N_ALTRET   LAB,B3   0
          1 000380  CBF0 0100                            LAB,B4   256,IMO
          1 000382  E380 0000 0000  xent                 LNJ,B6   GHH$UNLOCK
          1 000385       0001                            DC       s:14863,PREL

     1144    14863    5                      ALTRETURN;

  14863   1 000386  C380 0000 0000  xent                 LNJ,B4   X6A_AALT

     1145    14864    5                      END;
     1146    14865    4                 END;

  14865   1 000389  0F81 0209                            B        s:14993,PREL
PL6.E3A0      #002=KNA$IN File=KNA$APE.:E05TSI                                   WED 07/30/97 00:57 Page:192

     1147    14866    4            ELSE DO;

     1148    14867    4                 IF KNA$SSN.EVENT ~= 0 AND (K$RWPARM.STR = KIDM_USER OR K$RWPARM.STR =
             14867                          KIDM_CP

  14867   1 00038B  C846 0016                            LDR,R4   22,B6
          1 00038D  4901 0205                            BEZ,R4   s:14993,PREL
          1 00038F  B847 0037                            LDR,R3   K$RWPARM+29,AUTO
          1 000391  B570 00FF                            AND,R3   255,IMO
          1 000393  3D02                                 CMV,R3   2
          1 000394  0901 000B                            BE       s:14870,PREL
          1 000396  3D01                                 CMV,R3   1
          1 000397  0901 0008                            BE       s:14870,PREL
          1 000399  3D7F                                 CMV,R3   127
          1 00039A  0901 01F8                            BE       s:14993,PREL
          1 00039C  8286                                 LB,'0100'X        ,B6
          1 00039D       0100
          1 00039E  0581 01F4                            BBF      s:14993,PREL

     1149    14868    4                   OR K$RWPARM.STR ~= KIDM_MON AND KNA$SSN.FLAGS.MULT_STR)
     1150    14869    5                 THEN DO;

     1151    14870    5                      COMIO='0'B;

  14870   1 0003A0  8747 006C                            CL       COMIO,AUTO
          1 0003A2  8747 006D                            CL       COMIO+1,AUTO

     1152    14871    5                      COMIO.P#=SIZEW(COMIO)-SIZEW(COMIO.P#);

  14871   1 0003A4  6C01                                 LDV,R6   1
          1 0003A5  EF47 006C                            STR,R6   COMIO,AUTO

     1153    14872    5                      COMIO.ARS=KN$NETPARM.UHDR$->KV$VDO_RQSDAT.MAXNMBBYT;

  14872   1 0003A7  DCC7 0004                            LDB,B5   @KN$NETPARM,AUTO
          1 0003A9  CCC5 0005                            LDB,B4   5,B5
PL6.E3A0      #002=KNA$IN File=KNA$APE.:E05TSI                                   WED 07/30/97 00:57 Page:193
          1 0003AB  D844 0003                            LDR,R5   3,B4
          1 0003AD  DF47 006D                            STR,R5   COMIO+1,AUTO

     1154    14873    5                      CALL GHS$EVENT(KNA$SSN.USER#,%GH_USRDMN#,%G_DATA_RQS#,KNA$SSN.
             14873                               EVENT,,COMIO);

  14873   1 0003AF  CBF0 0000                            LAB,B4   0,IMO
          1 0003B1  BBF0 0003                            LAB,B3   3,IMO
          1 0003B3  ABC7 006C                            LAB,B2   COMIO,AUTO
          1 0003B5  AFC7 008A                            STB,B2   NWIO+28,AUTO
          1 0003B7  9B80 0000 0000                       LAB,B1   0
          1 0003BA  9FC7 0088                            STB,B1   NWIO+26,AUTO
          1 0003BC  DBC6 0016                            LAB,B5   22,B6
          1 0003BE  DFC7 0086                            STB,B5   NWIO+24,AUTO
          1 0003C0  BFC7 0084                            STB,B3   NWIO+22,AUTO
          1 0003C2  CFC7 0082                            STB,B4   NWIO+20,AUTO
          1 0003C4  DBC6 0011                            LAB,B5   17,B6
          1 0003C6  DFC7 0080                            STB,B5   NWIO+18,AUTO
          1 0003C8  BBC7 0080                            LAB,B3   NWIO+18,AUTO
          1 0003CA  CBF0 0600                            LAB,B4   1536,IMO
          1 0003CC  E380 0000 0000  xent                 LNJ,B6   GHS$EVENT
          1 0003CF       0001                            DC       s:14875,PREL

     1155    14874    5                      END;

     1156    14875    4                 END;

  14875   1 0003D0  0F81 01C2                            B        s:14993,PREL

     1157    14876        %EJECT;
PL6.E3A0      #002=KNA$IN File=KNA$APE.:E05TSI                                   WED 07/30/97 00:57 Page:194
     1158    14877        /*
     1159    14878             Ignore output block for now
     1160    14879         */
     1161    14880    3          CASE (%KV_VDO_FNC_BLKDAT);

     1162    14881
     1163    14882    3            IF KNA$SSN.EVENT ~= 0 AND (K$RWPARM.STR = KIDM_USER OR K$RWPARM.STR =
             14882                     KIDM_CP

  14882   1 0003D2  CCC7 000B                            LDB,B4   SSN$,AUTO
          1 0003D4  E844 0016                            LDR,R6   22,B4
          1 0003D6  6901 01BC                            BEZ,R6   s:14993,PREL
          1 0003D8  D847 0037                            LDR,R5   K$RWPARM+29,AUTO
          1 0003DA  D570 00FF                            AND,R5   255,IMO
          1 0003DC  5D02                                 CMV,R5   2
          1 0003DD  0901 000B                            BE       s:14885,PREL
          1 0003DF  5D01                                 CMV,R5   1
          1 0003E0  0901 0008                            BE       s:14885,PREL
          1 0003E2  5D7F                                 CMV,R5   127
          1 0003E3  0901 01AF                            BE       s:14993,PREL
          1 0003E5  8284                                 LB,'0100'X        ,B4
          1 0003E6       0100
          1 0003E7  0581 01AB                            BBF      s:14993,PREL

     1164    14883    3              OR K$RWPARM.STR ~= KIDM_MON AND KNA$SSN.FLAGS.MULT_STR)
     1165    14884    4            THEN DO;

     1166    14885    4                 COMIO='0'B;

  14885   1 0003E9  8747 006C                            CL       COMIO,AUTO
          1 0003EB  8747 006D                            CL       COMIO+1,AUTO

     1167    14886    4                 COMIO.P#=SIZEW(COMIO)-SIZEW(COMIO.P#);

  14886   1 0003ED  6C01                                 LDV,R6   1
          1 0003EE  EF47 006C                            STR,R6   COMIO,AUTO

PL6.E3A0      #002=KNA$IN File=KNA$APE.:E05TSI                                   WED 07/30/97 00:57 Page:195
     1168    14887    4                 COMIO.ARS=KN$NETPARM.UHDR$->KV$VDO_BLKDAT.RCRBYTSIZ;

  14887   1 0003F0  DCC6 0005                            LDB,B5   5,B6
          1 0003F2  C845 0001                            LDR,R4   1,B5
          1 0003F4  CF47 006D                            STR,R4   COMIO+1,AUTO

     1169    14888    4                 CALL GHS$EVENT(KNA$SSN.USER#,%GH_USRDMN#,%G_DATA_AVL#,KNA$SSN.EVENT,,
             14888                          COMIO);

  14888   1 0003F6  DBF0 0000                            LAB,B5   0,IMO
          1 0003F8  BBF0 0004                            LAB,B3   4,IMO
          1 0003FA  ABC7 006C                            LAB,B2   COMIO,AUTO
          1 0003FC  AFC7 008A                            STB,B2   NWIO+28,AUTO
          1 0003FE  9B80 0000 0000                       LAB,B1   0
          1 000401  9FC7 0088                            STB,B1   NWIO+26,AUTO
          1 000403  EBC4 0016                            LAB,B6   22,B4
          1 000405  EFC7 0086                            STB,B6   NWIO+24,AUTO
          1 000407  BFC7 0084                            STB,B3   NWIO+22,AUTO
          1 000409  DFC7 0082                            STB,B5   NWIO+20,AUTO
          1 00040B  EBC4 0011                            LAB,B6   17,B4
          1 00040D  EFC7 0080                            STB,B6   NWIO+18,AUTO
          1 00040F  BBC7 0080                            LAB,B3   NWIO+18,AUTO
          1 000411  CBF0 0600                            LAB,B4   1536,IMO
          1 000413  E380 0000 0000  xent                 LNJ,B6   GHS$EVENT
          1 000416       0001                            DC       s:14889,PREL

     1170    14889    4                 END;

  14889   1 000417  0F81 017B                            B        s:14993,PREL

     1171    14890        %EJECT;
PL6.E3A0      #002=KNA$IN File=KNA$APE.:E05TSI                                   WED 07/30/97 00:57 Page:196
     1172    14891    3          CASE (%KV_VDO_FNC_DAT_IMD);

     1173    14892    3            IF KV$VDOHDR.STR = KIDM_MON    /* Monitor stream                     */

  14892   1 000419  E805                                 LDR,R6   ,B5
          1 00041A  E570 007F                            AND,R6   127,IMO
          1 00041C  6D7F                                 CMV,R6   127
          1 00041D  0981 0175                            BNE      s:14993,PREL

     1174    14893    4            THEN DO;

     1175    14894    4                 DATASIZE=K$RWPARM.MSGSZ;

  14894   1 00041F  D847 001C                            LDR,R5   K$RWPARM+2,AUTO
          1 000421  DF47 000F                            STR,R5   DATASIZE,AUTO

     1176    14895    4                 DATA$=K$RWPARM.MSGC$;

  14895   1 000423  8CC7 001A                            LDI      K$RWPARM,AUTO
          1 000425  8D47 0011                            SDI      DATA$,AUTO

     1177    14896
     1178    14897
     1179    14898    4                 CALL GJU$EVENT(KNA$SSN.USER#,DATA$->DATASTRING);

  14898   1 000427  9856                                 LDR,R1   R6
          1 000428  E570 7FFF                            AND,R6   32767,IMO
          1 00042A  8D47 0080                            SDI      NWIO+18,AUTO
          1 00042C  DCC7 0080                            LDB,B5   NWIO+18,AUTO
          1 00042E  104F                                 SOR,R1   15
          1 00042F  DFC7 0086                            STB,B5   NWIO+24,AUTO
          1 000431  8CC7 0086                            LDI      NWIO+24,AUTO
          1 000433  7031                                 DCL,R7   1
          1 000434  8D47 0088                            SDI      NWIO+26,AUTO
          1 000436  F851                                 LDR,R7   R1
          1 000437  6C00                                 LDV,R6   0
          1 000438  8447 0088                            AID      NWIO+26,AUTO
PL6.E3A0      #002=KNA$IN File=KNA$APE.:E05TSI                                   WED 07/30/97 00:57 Page:197
          1 00043A  7071                                 DCR,R7   1
          1 00043B  8D47 0084                            SDI      NWIO+22,AUTO
          1 00043D  CCC7 000B                            LDB,B4   SSN$,AUTO
          1 00043F  BBC4 0011                            LAB,B3   17,B4
          1 000441  BFC7 0082                            STB,B3   NWIO+20,AUTO
          1 000443  BBC7 0082                            LAB,B3   NWIO+20,AUTO
          1 000445  CBF0 0200                            LAB,B4   512,IMO
          1 000447  E380 0000 0000  xent                 LNJ,B6   GJU$EVENT
          1 00044A       0001                            DC       s:14899,PREL

     1180    14899    4                 END;

  14899   1 00044B  0F81 0147                            B        s:14993,PREL

     1181    14900
     1182    14901        %EJECT;
PL6.E3A0      #002=KNA$IN File=KNA$APE.:E05TSI                                   WED 07/30/97 00:57 Page:198
     1183    14902    3          CASE (%KV_VDO_FNC_EVT);

     1184    14903    3            IF KNA$SSN.STATE = %KNA_STATE_ACTIVE#

  14903   1 00044D  CCC7 000B                            LDB,B4   SSN$,AUTO
          1 00044F  E844 0013                            LDR,R6   19,B4
          1 000451  6D03                                 CMV,R6   3
          1 000452  0981 002F                            BNE      s:14911,PREL

     1185    14904    3            THEN
     1186    14905    3                 IF KV$VDO_EVT.TYP = %KV_EVTTYP_BRK

  14905   1 000454  D845 0001                            LDR,R5   1,B5
          1 000456  D570 00FF                            AND,R5   255,IMO
          1 000458  5D01                                 CMV,R5   1
          1 000459  0981 0018                            BNE      s:14910,PREL
          1 00045B  C2C5 0001                            LLH,R4   1,B5
          1 00045D  4D04                                 CMV,R4   4
          1 00045E  0281 0013                            BGE      s:14910,PREL

     1187    14906    3                   AND KV$VDO_EVT.BRKCNT < 4
     1188    14907    3                 THEN
     1189    14908    3                      CALL GHS$RUE(%GH_EVCBK,KNA$SSN.USER#);

  14908   1 000460  BBF0 001C                            LAB,B3   28,IMO
          1 000462  ABC4 0011                            LAB,B2   17,B4
          1 000464  AFC7 0082                            STB,B2   NWIO+20,AUTO
          1 000466  BFC7 0080                            STB,B3   NWIO+18,AUTO
          1 000468  BBC7 0080                            LAB,B3   NWIO+18,AUTO
          1 00046A  CBF0 0200                            LAB,B4   512,IMO
          1 00046C  E380 0000 0000  xent                 LNJ,B6   GHS$RUE
          1 00046F       0001                            DC       s:14908+16,PREL
          1 000470  0F81 0011                            B        s:14911,PREL

     1190    14909    3                 ELSE
     1191    14910    3                      CALL GHS$RUE(%GH_EVCEC,KNA$SSN.USER#);

PL6.E3A0      #002=KNA$IN File=KNA$APE.:E05TSI                                   WED 07/30/97 00:57 Page:199
  14910   1 000472  BBF0 001E                            LAB,B3   30,IMO
          1 000474  ABC4 0011                            LAB,B2   17,B4
          1 000476  AFC7 0082                            STB,B2   NWIO+20,AUTO
          1 000478  BFC7 0080                            STB,B3   NWIO+18,AUTO
          1 00047A  BBC7 0080                            LAB,B3   NWIO+18,AUTO
          1 00047C  CBF0 0200                            LAB,B4   512,IMO
          1 00047E  E380 0000 0000  xent                 LNJ,B6   GHS$RUE
          1 000481       0001                            DC       s:14911,PREL

     1192    14911    3            GOTO CHECK_MRKPND;

  14911   1 000482  0F81 0054                            B        s:14939,PREL

     1193    14912        %EJECT;
PL6.E3A0      #002=KNA$IN File=KNA$APE.:E05TSI                                   WED 07/30/97 00:57 Page:200
     1194    14913    3          CASE (%KV_VDO_FNC_DSC_RQS);

     1195    14914    3            IF KNA$SSN.STATE = %KNA_STATE_ACTIVE#

  14914   1 000484  CCC7 000B                            LDB,B4   SSN$,AUTO
          1 000486  E844 0013                            LDR,R6   19,B4
          1 000488  6D03                                 CMV,R6   3
          1 000489  0981 0011                            BNE      s:14917,PREL

     1196    14915    3            THEN
     1197    14916    3                 CALL GHS$RUE(%GH_EVDSC,KNA$SSN.USER#);

  14916   1 00048B  BBF0 0020                            LAB,B3   32,IMO
          1 00048D  ABC4 0011                            LAB,B2   17,B4
          1 00048F  AFC7 0082                            STB,B2   NWIO+20,AUTO
          1 000491  BFC7 0080                            STB,B3   NWIO+18,AUTO
          1 000493  BBC7 0080                            LAB,B3   NWIO+18,AUTO
          1 000495  CBF0 0200                            LAB,B4   512,IMO
          1 000497  E380 0000 0000  xent                 LNJ,B6   GHS$RUE
          1 00049A       0001                            DC       s:14917,PREL

     1198    14917    3            KNA$SSN.STATE = %KNA_STATE_DSC#;

  14917   1 00049B  ECC7 000B                            LDB,B6   SSN$,AUTO
          1 00049D  6C04                                 LDV,R6   4
          1 00049E  EF46 0013                            STR,R6   19,B6

     1199    14918    3            KNA$SSN.ERROR = ELDSC;

  14918   1 0004A0  8C80 0000 0002  00                   LDI      ELDSC
          1 0004A3  8D46 0001                            SDI      1,B6

     1200    14919    3            KNA$SSN.FLAGS.SSNERR = '1'B;

  14919   1 0004A5  8906                                 LBT,'0800'X       ,B6
  14919   1 0004A6       0800

PL6.E3A0      #002=KNA$IN File=KNA$APE.:E05TSI                                   WED 07/30/97 00:57 Page:201
     1201    14920    3            GOTO CHECK_MRKPND;

  14920   1 0004A7  0F81 002F                            B        s:14939,PREL

     1202    14921
     1203    14922        %EJECT;
PL6.E3A0      #002=KNA$IN File=KNA$APE.:E05TSI                                   WED 07/30/97 00:57 Page:202
     1204    14923    3          CASE (%KV_VDO_FNC_CLSSSN_RQS);

     1205    14924    3            KNA$SSN.STATE = %KNA_STATE_DSC#;

  14924   1 0004A9  CCC7 000B                            LDB,B4   SSN$,AUTO
          1 0004AB  6C04                                 LDV,R6   4
          1 0004AC  EF44 0013                            STR,R6   19,B4

     1206    14925    3            CALL GHS$RUE(%GH_EVBRK,KNA$SSN.USER#);

  14925   1 0004AE  DBF0 0009                            LAB,B5   9,IMO
          1 0004B0  BBC4 0011                            LAB,B3   17,B4
          1 0004B2  BFC7 0082                            STB,B3   NWIO+20,AUTO
          1 0004B4  DFC7 0080                            STB,B5   NWIO+18,AUTO
          1 0004B6  BBC7 0080                            LAB,B3   NWIO+18,AUTO
          1 0004B8  CBF0 0200                            LAB,B4   512,IMO
          1 0004BA  E380 0000 0000  xent                 LNJ,B6   GHS$RUE
          1 0004BD       0001                            DC       s:14926,PREL

     1207    14926    3            KNA$SSN.ERROR = ELDSC;

  14926   1 0004BE  8C80 0000 0002  00                   LDI      ELDSC
          1 0004C1  ECC7 000B                            LDB,B6   SSN$,AUTO
          1 0004C3  8D46 0001                            SDI      1,B6

     1208    14927    3            IF KNA$SSN.IOPRD$ ~= ADDR(NIL)

  14927   1 0004C5  8DC6 000D                            CMN      13,B6
          1 0004C7  0901 00CB                            BE       s:14993,PREL
          1 0004C9  DCC6 000D                            LDB,B5   13,B6
          1 0004CB  82C5 0003                            LB,'2000'X        3,B5
          1 0004CD       2000
          1 0004CE  0501 00C4                            BBT      s:14993,PREL

     1209    14928    3              AND NOT KNA$SSN.IOPRD$->KN$IOP.FLAGS.RDDONE
     1210    14929    4            THEN DO;

PL6.E3A0      #002=KNA$IN File=KNA$APE.:E05TSI                                   WED 07/30/97 00:57 Page:203
     1211    14930    4                 KNA$SSN.IOPRD$->KN$IOP.ERRCODE = ELDSC;

  14930   1 0004D0  8D05                                 SDI      ,B5

     1212    14931    4                 IOP$ = KNA$SSN.IOPRD$;

  14931   1 0004D1  DCC6 000D                            LDB,B5   13,B6
          1 0004D3  DFC7 000D                            STB,B5   IOP$,AUTO

     1213    14932    4                 GOTO READ_COMP;

  14932   1 0004D5  0F81 FD53                            B        s:14771,PREL

     1214    14933    4                 END;
     1215    14934
     1216    14935        %EJECT;
PL6.E3A0      #002=KNA$IN File=KNA$APE.:E05TSI                                   WED 07/30/97 00:57 Page:204
     1217    14936    3          CASE (%KV_VDO_FNC_PRM_SET);

     1218    14937
     1219    14938        %EJECT;
PL6.E3A0      #002=KNA$IN File=KNA$APE.:E05TSI                                   WED 07/30/97 00:57 Page:205
     1220    14939    3          CASE (%KV_VDO_FNC_RQSMRK);

  14936   1                              CHECK_MRKPND    null
     1221    14940    3   CHECK_MRKPND: ;
     1222    14941    3            IF K$RWPARM.MRKTYP = %KV_VDOMRKTYP_MRK

  14941   1 0004D7  E2C7 0037            CHECK_MRKPND    LLH,R6   K$RWPARM+29,AUTO
          1 0004D9  6D03                                 CMV,R6   3
          1 0004DA  0981 00B8                            BNE      s:14993,PREL

     1223    14942    4            THEN DO;

     1224    14943                                           /*  If there is a marker pending send it   */
     1225    14944    4                 IF (KNA$SSN.FLAGS.MRKPND)

  14944   1 0004DC  ECC7 000B                            LDB,B6   SSN$,AUTO
          1 0004DE  8286                                 LB,'0080'X        ,B6
          1 0004DF       0080
          1 0004E0  0581 002B                            BBF      s:14954,PREL

     1226    14945    5                 THEN DO;

     1227    14946    5                      OPARM = KNA_RWPARM_CON;

  14946   1 0004E2  AB80 0000 0000  xsym                 LAB,B2   KNA_RWPARM_CON
          1 0004E5  2C00                                 LDV,R2   0
          1 0004E6  6C52                                 LDV,R6   82
          1 0004E7  BBC7 0043                            LAB,B3   OPARM,AUTO
          1 0004E9  3C00                                 LDV,R3   0
          1 0004EA  0008                                 MMM

     1228    14947    5                      OPARM.MARKER = KNA$SSN.MARKER;

  14947   1 0004EB  ECC7 000B                            LDB,B6   SSN$,AUTO
          1 0004ED  8CC6 0017                            LDI      23,B6
          1 0004EF  8D47 0050                            SDI      OPARM+13,AUTO

PL6.E3A0      #002=KNA$IN File=KNA$APE.:E05TSI                                   WED 07/30/97 00:57 Page:206
     1229    14948    5                      OPARM.MRKTYP = %KV_VDOMRKTYP_MRK;

  14948   1 0004F1  5C03                                 LDV,R5   3
          1 0004F2  D7C7 0060                            STH,R5   OPARM+29,AUTO

     1230    14949    5                      CALL KNA$FCNO(%KV_VDO_FNC_MRK,KNA$SSN,OPARM,KN$NETPARM.ERRCODE)

  14949   1 0004F4  DBF0 001F                            LAB,B5   31,IMO
          1 0004F6  CCC7 0004                            LDB,B4   @KN$NETPARM,AUTO
          1 0004F8  BBC4 0016                            LAB,B3   22,B4
          1 0004FA  BFC7 0086                            STB,B3   NWIO+24,AUTO
          1 0004FC  ABC7 0043                            LAB,B2   OPARM,AUTO
          1 0004FE  AFC7 0084                            STB,B2   NWIO+22,AUTO
          1 000500  EFC7 0082                            STB,B6   NWIO+20,AUTO
          1 000502  DFC7 0080                            STB,B5   NWIO+18,AUTO
          1 000504  BBC7 0080                            LAB,B3   NWIO+18,AUTO
          1 000506  CBF0 0400                            LAB,B4   1024,IMO
          1 000508  E380 0000 0000  xent                 LNJ,B6   KNA$FCNO
          1 00050B       FE72                            DC       s:14854,PREL

     1231    14950    5                        ALTRET (UNLK_N_ALTRET);
     1232    14951    5                      END;

     1233    14952                                            /* Save marker for EXIT, next READ, or
     1234    14953                                                an EVENT. */
     1235    14954    4                 KNA$SSN.MARKER = K$RWPARM.MARKER;

  14954   1 00050C  8CC7 0027                            LDI      K$RWPARM+13,AUTO
          1 00050E  ECC7 000B                            LDB,B6   SSN$,AUTO
          1 000510  8D46 0017                            SDI      23,B6

     1236    14955    4                 KNA$SSN.FLAGS.MRKPND = '1'B;

  14955   1 000512  8906                                 LBT,'0080'X       ,B6
  14955   1 000513       0080

     1237    14956                                            /* Clear marker type so we don't send a
PL6.E3A0      #002=KNA$IN File=KNA$APE.:E05TSI                                   WED 07/30/97 00:57 Page:207
     1238    14957                                                marker back */
     1239    14958    4                 K$RWPARM.MRKTYP = 0;

  14958   1 000514  87C7 0037                            CLH      K$RWPARM+29,AUTO

     1240    14959    4                 END ;                     /* Do Case                            */

  14959   1 000516  0F81 007C                            B        s:14993,PREL

     1241    14960        %EJECT;
PL6.E3A0      #002=KNA$IN File=KNA$APE.:E05TSI                                   WED 07/30/97 00:57 Page:208
     1242    14961    3          CASE (%KV_VDO_FNC_RQSSTT);

     1243    14962    3            CALL GHQ$STATE(KN$LDCT.USER#,STATE);

  14962   1 000518  CC86                                 LDB,B4   ,B6
          1 000519  BBC7 0018                            LAB,B3   STATE,AUTO
          1 00051B  BFC7 0082                            STB,B3   NWIO+20,AUTO
          1 00051D  DBC4 000E                            LAB,B5   14,B4
          1 00051F  DFC7 0080                            STB,B5   NWIO+18,AUTO
          1 000521  BBC7 0080                            LAB,B3   NWIO+18,AUTO
          1 000523  CBF0 0200                            LAB,B4   512,IMO
          1 000525  E380 0000 0000  xent                 LNJ,B6   GHQ$STATE
          1 000528       0001                            DC       s:14963,PREL

     1244    14963    3            K$RWPARM.MSG$ = ADDR(STATE);

  14963   1 000529  EBC7 0018                            LAB,B6   STATE,AUTO
          1 00052B  EFC7 001A                            STB,B6   K$RWPARM,AUTO

     1245    14964    3            K$RWPARM.MSGSZ = SIZEC(STATE);

  14964   1 00052D  6C04                                 LDV,R6   4
          1 00052E  EF47 001C                            STR,R6   K$RWPARM+2,AUTO

     1246    14965    3            CALL KNA$FCNO (%KV_VDO_FNC_STT,KNA$SSN,K$RWPARM,KN$NETPARM.ERRCODE)

  14965   1 000530  DBF0 001D                            LAB,B5   29,IMO
          1 000532  CCC7 0004                            LDB,B4   @KN$NETPARM,AUTO
          1 000534  BBC4 0016                            LAB,B3   22,B4
          1 000536  BFC7 0086                            STB,B3   NWIO+24,AUTO
          1 000538  ABC7 001A                            LAB,B2   K$RWPARM,AUTO
          1 00053A  AFC7 0084                            STB,B2   NWIO+22,AUTO
          1 00053C  9CC7 000B                            LDB,B1   SSN$,AUTO
          1 00053E  9FC7 0082                            STB,B1   NWIO+20,AUTO
          1 000540  DFC7 0080                            STB,B5   NWIO+18,AUTO
          1 000542  BBC7 0080                            LAB,B3   NWIO+18,AUTO
          1 000544  CBF0 0400                            LAB,B4   1024,IMO
PL6.E3A0      #002=KNA$IN File=KNA$APE.:E05TSI                                   WED 07/30/97 00:57 Page:209
          1 000546  E380 0000 0000  xent                 LNJ,B6   KNA$FCNO
          1 000549       FE34                            DC       s:14854,PREL
          1 00054A  0F81 0048                            B        s:14993,PREL

     1247    14966    3              ALTRET (UNLK_N_ALTRET);
     1248    14967
     1249    14968
     1250    14969        %EJECT;
PL6.E3A0      #002=KNA$IN File=KNA$APE.:E05TSI                                   WED 07/30/97 00:57 Page:210
     1251    14970    3          CASE (%KV_VDO_FNC_MRK);

     1252    14971
     1253    14972    3            IF KNA$SSN.FLAGS.RRRPND AND KNA$SSN.FLAGS.REGGED

  14972   1 00054C  CCC7 000B                            LDB,B4   SSN$,AUTO
          1 00054E  8284                                 LB,'0200'X        ,B4
          1 00054F       0200
          1 000550  0581 003B                            BBF      s:14986,PREL
          1 000552  8984                                 CMZ      ,B4
          1 000553  0881 0038                            BAGE     s:14986,PREL
          1 000555  9844 0011                            LDR,R1   17,B4
          1 000557  BC80 0000 0000  xsym                 LDB,B3   G$USRT$
          1 00055A  9F47 0080                            STR,R1   NWIO+18,AUTO
          1 00055C  1F18                                 MLV,R1   24
          1 00055D  B847 0080                            LDR,R3   NWIO+18,AUTO
          1 00055F  3F18                                 MLV,R3   24
          1 000560  E833                                 LDR,R6   ,B3,R3
          1 000561  E570 0800                            AND,R6   2048,IMO
          1 000563  6901 0028                            BEZ,R6   s:14986,PREL

     1254    14973    3              AND G$USER.FLG(KNA$SSN.USER#) & %U_SCIO
     1255    14974    4            THEN DO;

     1256    14975    4                 IOP$ = KNA$SSN.IOPQ$;

  14975   1 000565  DCC4 000B                            LDB,B5   11,B4
          1 000567  DFC7 000D                            STB,B5   IOP$,AUTO

     1257    14976    4                 IF IOP$ ~= ADDR(NIL)

  14976   1 000569  8DC7 000D                            CMN      IOP$,AUTO
          1 00056B  0901 000C                            BE       s:14982,PREL

     1258    14977    5                 THEN DO;

     1259    14978    5                      KN$IOP.ERRCODE = K$RWPARM.MSG_ERRCODE;
PL6.E3A0      #002=KNA$IN File=KNA$APE.:E05TSI                                   WED 07/30/97 00:57 Page:211

  14978   1 00056D  8CC7 0034                            LDI      K$RWPARM+26,AUTO
          1 00056F  8D05                                 SDI      ,B5

     1260    14979    5                      KN$IOP.MSGID = K$RWPARM.MSGID;

  14979   1 000570  8CC7 002B                            LDI      K$RWPARM+17,AUTO
          1 000572  8D45 000C                            SDI      12,B5

     1261    14980    5                      KN$IOP.FLDID = K$RWPARM.FLDID;

  14980   1 000574  D847 0040                            LDR,R5   K$RWPARM+38,AUTO
          1 000576  DF45 0002                            STR,R5   2,B5

     1262    14981    5                      END;

     1263    14982    4                 CALL GHS$RUE (%GH_EVCIC,KNA$SSN.USER#);

  14982   1 000578  BBF0 0017                            LAB,B3   23,IMO
          1 00057A  ABC4 0011                            LAB,B2   17,B4
          1 00057C  AFC7 0082                            STB,B2   NWIO+20,AUTO
          1 00057E  BFC7 0080                            STB,B3   NWIO+18,AUTO
          1 000580  BBC7 0080                            LAB,B3   NWIO+18,AUTO
          1 000582  CBF0 0200                            LAB,B4   512,IMO
          1 000584  E380 0000 0000  xent                 LNJ,B6   GHS$RUE
          1 000587       0001                            DC       s:14983,PREL

     1264    14983    4                 KNA$SSN.FLAGS.RRRPND= '0'B;

  14983   1 000588  ECC7 000B                            LDB,B6   SSN$,AUTO
          1 00058A  8806                                 LBF,'0200'X       ,B6
          1 00058B       0200

     1265    14984    4                 END;

     1266    14985                                 /* Clear marker type so we wont send a marker back   */
     1267    14986    3            K$RWPARM.MRKTYP = 0;
PL6.E3A0      #002=KNA$IN File=KNA$APE.:E05TSI                                   WED 07/30/97 00:57 Page:212

  14986   1 00058C  87C7 0037                            CLH      K$RWPARM+29,AUTO
          1 00058E  0F81 0004                            B        s:14993,PREL

     1268    14987
     1269    14988        %EJECT;
PL6.E3A0      #002=KNA$IN File=KNA$APE.:E05TSI                                   WED 07/30/97 00:57 Page:213
     1270    14989    3          CASE (ELSE);

     1271    14990    3            CALL PROTOCOL_ERR;

  14990   1 000590  E3C0 00EE                            LNJ,B6   s:0,PREL
          1 000592       0001                            DC       s:14993,PREL

     1272    14991    3            END/* do case (kv$vdohdr.fnc) */;

     1273    14992
     1274    14993    2         IF K$RWPARM.MRKTYP ~= 0

  14993   1 000593  E2C7 0037                            LLH,R6   K$RWPARM+29,AUTO
          1 000595  6901 00DD                            BEZ,R6   s:15054,PREL

     1275    14994    3         THEN DO;

     1276    14995    3              OPARM = KNA_RWPARM_CON;

  14995   1 000597  AB80 0000 0000  xsym                 LAB,B2   KNA_RWPARM_CON
          1 00059A  2C00                                 LDV,R2   0
          1 00059B  6C52                                 LDV,R6   82
          1 00059C  BBC7 0043                            LAB,B3   OPARM,AUTO
          1 00059E  3C00                                 LDV,R3   0
          1 00059F  0008                                 MMM

     1277    14996    3              OPARM.MRKTYP = K$RWPARM.MRKTYP;

  14996   1 0005A0  E2C7 0037                            LLH,R6   K$RWPARM+29,AUTO
          1 0005A2  E7C7 0060                            STH,R6   OPARM+29,AUTO

     1278    14997
     1279    14998    4              DO CASE(K$RWPARM.MRKTYP);

  14998   1 0005A4  B856                                 LDR,R3   R6
          1 0005A5  3D05                                 CMV,R3   5
          1 0005A6  0281 0023                            BGE      s:15013,PREL
PL6.E3A0      #002=KNA$IN File=KNA$APE.:E05TSI                                   WED 07/30/97 00:57 Page:214
          1 0005A8  A830 0000 05AE  01                   LDR,R2   s:14998+10,R3
          1 0005AB  83A0 0000 05B3  01                   JMP      s:15001,R2
          1 0005AE       0017                            DC       s:15013,PREL
          1 0005AF       0013                            DC       s:15009,PREL
          1 0005B0       000B                            DC       s:15005,PREL
          1 0005B1       0013                            DC       s:15009,PREL
          1 0005B2       0000                            DC       s:15001,PREL

     1280    14999
     1281    15000    4               CASE (%KV_VDOMRKTYP_SNDLSTRCRID);

     1282    15001    4                 OPARM.BLKREC = KNA$SSN.BLKREC;

  15001   1 0005B3  ECC7 000B                            LDB,B6   SSN$,AUTO
          1 0005B5  8CC6 0014                            LDI      20,B6
          1 0005B7  8D47 0050                            SDI      OPARM+13,AUTO

     1283    15002    4                 OPARM.MRKTYP = %KV_VDOMRKTYP_LSTRCRID;

  15002   1 0005B9  5C02                                 LDV,R5   2
          1 0005BA  D7C7 0060                            STH,R5   OPARM+29,AUTO
          1 0005BC  0F81 000D                            B        s:15013,PREL

     1284    15003
     1285    15004    4               CASE (%KV_VDOMRKTYP_LSTRCRID);

     1286    15005    4                 KNA$SSN.BLKREC = K$RWPARM.BLKREC;

  15005   1 0005BE  8CC7 0027                            LDI      K$RWPARM+13,AUTO
          1 0005C0  ECC7 000B                            LDB,B6   SSN$,AUTO
          1 0005C2  8D46 0014                            SDI      20,B6

     1287    15006    4                 GOTO NO_MARKER;

  15006   1 0005C4  0F81 0029                            B        s:15009,PREL

     1288    15007
PL6.E3A0      #002=KNA$IN File=KNA$APE.:E05TSI                                   WED 07/30/97 00:57 Page:215
     1289    15008    4               CASE (%KV_VDOMRKTYP_ENDACK,%KV_VDOMRKTYP_MRK);

     1290    15009    4                 OPARM.MARKER = K$RWPARM.MARKER;

  15009   1 0005C6  8CC7 0027                            LDI      K$RWPARM+13,AUTO
          1 0005C8  8D47 0050                            SDI      OPARM+13,AUTO

     1291    15010
     1292    15011    4                 END;

     1293    15012
     1294    15013    3              CALL KNA$FCNO (%KV_VDO_FNC_MRK,KNA$SSN,OPARM,KN$NETPARM.ERRCODE)

  15013   1 0005CA  EBF0 001F                            LAB,B6   31,IMO
          1 0005CC  DCC7 0004                            LDB,B5   @KN$NETPARM,AUTO
          1 0005CE  CBC5 0016                            LAB,B4   22,B5
          1 0005D0  CFC7 0086                            STB,B4   NWIO+24,AUTO
          1 0005D2  BBC7 0043                            LAB,B3   OPARM,AUTO
          1 0005D4  BFC7 0084                            STB,B3   NWIO+22,AUTO
          1 0005D6  ACC7 000B                            LDB,B2   SSN$,AUTO
          1 0005D8  AFC7 0082                            STB,B2   NWIO+20,AUTO
          1 0005DA  EFC7 0080                            STB,B6   NWIO+18,AUTO
          1 0005DC  BBC7 0080                            LAB,B3   NWIO+18,AUTO
          1 0005DE  CBF0 0400                            LAB,B4   1024,IMO
          1 0005E0  E380 0000 0000  xent                 LNJ,B6   KNA$FCNO
          1 0005E3       0003                            DC       s:15015,PREL
          1 0005E4  0F81 0009                            B        s:15009,PREL

     1295    15014    4              WHENALTRETURN DO;

     1296    15015    4                   KV$VDOHDR.FNC = %KV_VDO_FNC_RQSMRK;

  15015   1 0005E6  ECC7 0004                            LDB,B6   @KN$NETPARM,AUTO
          1 0005E8  DCC6 0005                            LDB,B5   5,B6
          1 0005EA  6C20                                 LDV,R6   32
          1 0005EB  E785                                 STH,R6   ,B5

PL6.E3A0      #002=KNA$IN File=KNA$APE.:E05TSI                                   WED 07/30/97 00:57 Page:216
     1297    15016    4                   GOTO UNLK_N_ALTRET;

  15016   1 0005EC  0F81 FD90                            B        s:14854,PREL

  15009   1                              NO_MARKER       null
     1298    15017    4                   END;
     1299    15018    3   NO_MARKER: ;
     1300    15019    3              END;

  15019   1 0005EE  0F81 0084            NO_MARKER       B        s:15054,PREL

     1301    15020        %EJECT;
PL6.E3A0      #002=KNA$IN File=KNA$APE.:E05TSI                                   WED 07/30/97 00:57 Page:217
     1302    15021    2       CASE (%KN_FCN_UNQ);

     1303    15022    2         IF KNA$SSN.FLAGS.CQ

  15022   1 0005F0  8284                                 LB,'2000'X        ,B4
  15022   1 0005F1       2000
          1 0005F2  0581 0080                            BBF      s:15054,PREL

     1304    15023    3         THEN DO;

     1305    15024    3              CALL GHS$RUE(%GH_EVCUB,KNA$SSN.USER#);

  15024   1 0005F4  BBF0 001A                            LAB,B3   26,IMO
          1 0005F6  ABC4 0011                            LAB,B2   17,B4
          1 0005F8  AFC7 0082                            STB,B2   NWIO+20,AUTO
          1 0005FA  BFC7 0080                            STB,B3   NWIO+18,AUTO
          1 0005FC  BBC7 0080                            LAB,B3   NWIO+18,AUTO
          1 0005FE  CBF0 0200                            LAB,B4   512,IMO
          1 000600  E380 0000 0000  xent                 LNJ,B6   GHS$RUE
          1 000603       0001                            DC       s:15025,PREL

     1306    15025    3              KNA$SSN.FLAGS.CQ = '0'B;

  15025   1 000604  ECC7 000B                            LDB,B6   SSN$,AUTO
          1 000606  8806                                 LBF,'2000'X       ,B6
          1 000607       2000

     1307    15026    3              KNA$SSN.FLAGS.REGGED = '0'B;

  15026   1 000608  8806                                 LBF,'8000'X       ,B6
  15026   1 000609       8000

     1308    15027    3              END;

  15027   1 00060A  0F81 0068                            B        s:15054,PREL

     1309    15028        %EJECT;
PL6.E3A0      #002=KNA$IN File=KNA$APE.:E05TSI                                   WED 07/30/97 00:57 Page:218
     1310    15029    2       CASE (%KN_FCN_TERM);

     1311    15030    2         IF KNA$SSN.FLAGS.PRIMARY

  15030   1 00060C  8284                                 LB,'0400'X        ,B4
  15030   1 00060D       0400
          1 00060E  0581 0011                            BBF      s:15033,PREL

     1312    15031    2         THEN
     1313    15032    2              CALL GHS$RUE (%GH_EVDSC,KNA$SSN.USER#);

  15032   1 000610  BBF0 0020                            LAB,B3   32,IMO
          1 000612  ABC4 0011                            LAB,B2   17,B4
          1 000614  AFC7 0082                            STB,B2   NWIO+20,AUTO
          1 000616  BFC7 0080                            STB,B3   NWIO+18,AUTO
          1 000618  BBC7 0080                            LAB,B3   NWIO+18,AUTO
          1 00061A  CBF0 0200                            LAB,B4   512,IMO
          1 00061C  E380 0000 0000  xent                 LNJ,B6   GHS$RUE
          1 00061F       0001                            DC       s:15033,PREL

     1314    15033    2         KNA$SSN.ERROR = ELDSC;

  15033   1 000620  8C80 0000 0002  00                   LDI      ELDSC
          1 000623  ECC7 000B                            LDB,B6   SSN$,AUTO
          1 000625  8D46 0001                            SDI      1,B6

     1315    15034    2         KNA$SSN.FLAGS.SSNERR = '1'B;

  15034   1 000627  8906                                 LBT,'0800'X       ,B6
  15034   1 000628       0800

     1316    15035    2         KNA$SSN.STATE = %KNA_STATE_TERM#;

  15035   1 000629  5C05                                 LDV,R5   5
          1 00062A  DF46 0013                            STR,R5   19,B6

     1317    15036    2         IF G$USER.FLG(KNA$SSN.USER#) & %U_SCIO
PL6.E3A0      #002=KNA$IN File=KNA$APE.:E05TSI                                   WED 07/30/97 00:57 Page:219

  15036   1 00062C  B846 0011                            LDR,R3   17,B6
          1 00062E  DC80 0000 0000  xsym                 LDB,B5   G$USRT$
          1 000631  BF47 0080                            STR,R3   NWIO+18,AUTO
          1 000633  3F18                                 MLV,R3   24
          1 000634  B847 0080                            LDR,R3   NWIO+18,AUTO
          1 000636  3F18                                 MLV,R3   24
          1 000637  C835                                 LDR,R4   ,B5,R3
          1 000638  C570 0800                            AND,R4   2048,IMO
          1 00063A  4901 0038                            BEZ,R4   s:15054,PREL
          1 00063C  A846 0011                            LDR,R2   17,B6
          1 00063E  CBC5 0005                            LAB,B4   5,B5
          1 000640  2F0C                                 MLV,R2   12
          1 000641  BCA4                                 LDB,B3   ,B4,R2
          1 000642  BDC6 0004                            CMB,B3   4,B6
          1 000644  0981 002E                            BNE      s:15054,PREL

     1318    15037    2           AND G$USER.MISC$(KNA$SSN.USER#) = KNA$SSN.LDCT$
     1319    15038    2         THEN
     1320    15039    2              CALL GHS$RUE (%GH_EVFC,KNA$SSN.USER#);

  15039   1 000646  CBF0 0022                            LAB,B4   34,IMO
          1 000648  BBC6 0011                            LAB,B3   17,B6
          1 00064A  BFC7 0082                            STB,B3   NWIO+20,AUTO
          1 00064C  CFC7 0080                            STB,B4   NWIO+18,AUTO
          1 00064E  BBC7 0080                            LAB,B3   NWIO+18,AUTO
          1 000650  CBF0 0200                            LAB,B4   512,IMO
          1 000652  E380 0000 0000  xent                 LNJ,B6   GHS$RUE
          1 000655       0001                            DC       s:15039+16,PREL
          1 000656  0F81 001C                            B        s:15054,PREL

     1321    15040
     1322    15041        %EJECT;
PL6.E3A0      #002=KNA$IN File=KNA$APE.:E05TSI                                   WED 07/30/97 00:57 Page:220
     1323    15042    2       CASE (%KN_FCN_TERM_ACK);

     1324    15043    2         CALL GHS$RUE (%GH_EVCIC,KNA$SSN.USER#);

  15043   1 000658  BBF0 0017                            LAB,B3   23,IMO
          1 00065A  ABC4 0011                            LAB,B2   17,B4
          1 00065C  AFC7 0082                            STB,B2   NWIO+20,AUTO
          1 00065E  BFC7 0080                            STB,B3   NWIO+18,AUTO
          1 000660  BBC7 0080                            LAB,B3   NWIO+18,AUTO
          1 000662  CBF0 0200                            LAB,B4   512,IMO
          1 000664  E380 0000 0000  xent                 LNJ,B6   GHS$RUE
          1 000667       0001                            DC       s:15043+16,PREL
          1 000668  0F81 000A                            B        s:15054,PREL

     1325    15044
     1326    15045        %EJECT;
PL6.E3A0      #002=KNA$IN File=KNA$APE.:E05TSI                                   WED 07/30/97 00:57 Page:221
     1327    15046    2       CASE (ELSE);

     1328    15047    2         CALL SCREECH (SCR_UNEXP);

  15047   1 00066A  BB80 0000 0002  02                   LAB,B3   +2
          1 00066D  CBF0 0100                            LAB,B4   256,IMO
          1 00066F  E380 0000 0000  xent                 LNJ,B6   SCREECH
          1 000672       0001                            DC       s:15054,PREL

     1329    15048    2         END;

     1330    15049           %UNLOCK (G=KNA_LNKSSN);

  15054   1 000673  BB80 0000 0000  02                   LAB,B3   0
          1 000676  CBF0 0100                            LAB,B4   256,IMO
          1 000678  E380 0000 0000  xent                 LNJ,B6   GHH$UNLOCK
          1 00067B       0001                            DC       s:15056,PREL

     1331    15056    1      RETURN;

  15056   1 00067C  C380 0000 0000  xent                 LNJ,B4   X6A_ARET

     1332    15057        %EJECT;
PL6.E3A0      #002=KNA$IN File=KNA$APE.:E05TSI                                   WED 07/30/97 00:57 Page:222
     1333    15058    1   PROTOCOL_ERR: PROC;

  15058   1 00067F  EFC7 007E            PROTOCOL_ERR    STB,B6   NWIO+16,AUTO

     1334    15059
     1335    15060        /*N* ERROR LOG */
     1336    15061    2      RETURN;

  15061   1 000681  ECC7 007E                            LDB,B6   NWIO+16,AUTO
          1 000683  C3C6 0001                            LNJ,B4   1,B6
     1337    15062
     1338    15063    2   END PROTOCOL_ERR;
     1339    15064
     1340    15065    1   END KNA$IN;
     1341    15066        %EOD;

PL6.E3A0      #002=KNA$IN File=KNA$APE.:E05TSI                                   WED 07/30/97 00:57 Page:223
--  Include file information  --

   K_SCODE_C.:E05TOU  is referenced.
   KV$VDO.:E05TOU  is referenced.
   K$RWPARM.:E05TOU  is referenced.
   KN_ERRORS_C.:E05TOU  is referenced.
   GM_VIRTUAL_E.:E05TOU  is referenced.
   GU_LCP6_M.:E05TOU  is referenced.
   GH_LCP6_M.:E05TOU  is referenced.
   GH_SCHD_E.:E05TOU  is referenced.
   GF_LCP6_M.:E05TOU  is referenced.
   KNA_MACRO_M.:E05TOU  is referenced.
   KI_SUBS_C.:E05TOU  is referenced.
   KI_ERRORS_C.:E05TOU  is referenced.
   K_ID_E.:E05TOU  is referenced.
   KL_MACRO_C.:E05TOU  is referenced.
   P_FEP_M.:E05TOU  is referenced.
   KNH_MACRO_C.:E05TOU  is referenced.
   KN_DATA_M.:E05TOU  is referenced.
   GH_SCHD_M.:E05TOU  is referenced.
   GH_GATE_M.:E05TOU  cannot be made into a system file and is referenced.
   G_LCP6_E.:E05TOU  is referenced.
   F_ERRORS_C.:E05TOU  is referenced.
      No diagnostics issued in procedure KNA$IN.
PL6.E3A0      #002=KNA$IN File=KNA$APE.:E05TSI                                   WED 07/30/97 00:57 Page:224

 **** Variables and constants ****

  ****  Section 000 RoData KNA$IN

  ****  Scalars and arrays  ****
HexLoc.c.b A Datatyp(siz) R M Lvl/name                 HexLoc.c.b A Datatyp(siz) R M Lvl/name

     0-0-0/w STRC(32)    r     1 ECNCFAIL                   2-0-0/w STRC(32)    r     1 ELDSC
     9-0-0/w STRC(80)    r     1 NODAT_VDO                  6-0-0/w STRC(48)    r     1 SCR_UNEXP

  ****  Auto variables  ****

  ****  Scalars and arrays  ****
HexLoc.c.b A Datatyp(siz) R M Lvl/name                 HexLoc.c.b A Datatyp(siz) R M Lvl/name

     4-0-0/w PTR         r     1 @KN$NETPARM                6-0-0/w PTR         r     1 BFR$
    6C-0-0/w STRC(32)    r     1 COMIO                     11-0-0/w PTR         r     1 DATA$
    10-0-0/w UBIN(16)    r     1 DATAARS                    F-0-0/w UBIN(16)    r     1 DATASIZE
     8-0-0/w UBIN(16)    r     1 EVENT                      D-0-0/w PTR         r     1 IOP$
    1A-0-0/w STRC(656)   r     1 K$RWPARM                  *0-0-0/w STRC(528)   r     1 KN$NETPARM
    6E-0-0/w STRC(256)   r     1 NWIO                      43-0-0/w STRC(656)   r     1 OPARM
     B-0-0/w PTR         r     1 SSN$                      18-0-0/c CHAR(4)     r     1 STATE
    16-0-0/b BIT (32)    r     1 TCB_ERR

  ****  SYMREF variables  ****

  ****  Scalars and arrays  ****
HexLoc.c.b A Datatyp(siz) R M Lvl/name                 HexLoc.c.b A Datatyp(siz) R M Lvl/name

     0-0-0/w PTR         r     1 G$ASDT_MCL$                0-0-0/w PTR         r     1 G$USRT$
     0-0-0/w STRC(48)    r     1 KNA_LNKSSN                 0-0-0/w STRC(656)   r     1 KNA_RWPARM_CON
     0-0-0/w STRC(2208)  r     1 PS_LCP6STT

  ****  BASED and DCB variables  ****

  ****  Scalars and arrays  ****
HexLoc.c.b A Datatyp(siz) R M Lvl/name                 HexLoc.c.b A Datatyp(siz) R M Lvl/name
PL6.E3A0      #002=KNA$IN File=KNA$APE.:E05TSI                                   WED 07/30/97 00:57 Page:225

     0-0-0/w UBIN(16)    r     1 CODE                       0-0-0/c ACHR        r     1 DATASTRING
     0-0-0/w STRC(384)   r     1 G$USER(0:0)                0-0-0/w STRC(432)   r     1 KN$IOP
     0-0-0/w STRC(256)   r     1 KN$LDCT                    0-0-0/w STRC(400)   r     1 KNA$SSN
     0-0-0/w STRC(16)    r     1 KV$VDOHDR                  0-0-0/w STRC(48)    r     1 KV$VDO_BLKDAT
     0-0-0/w STRC(32)    r     1 KV$VDO_EVT                 0-0-0/w STRC(80)    r     1 KV$VDO_RQSDAT
     0-0-0/w ASTR(808)   r     1 MYDCB


   Procedure KNA$IN requires 1669 words for executable code.
   Procedure KNA$IN requires 140 words of local(AUTO) storage.
PL6.E3A0      #002=KNA$IN File=KNA$APE.:E05TSI                                   WED 07/30/97 00:57 Page:226
          *** CROSS REFERENCE LISTING ***
**     DENOTES     IDENTIFIER DEFINITION
<<                 IDENTIFIER'S VALUE SET
>>                 IDENTIFIER'S VALUE USED
<>                 IDENTIFIER SET AND/OR USED
--                 IDENTIFIER REFERENCED
PL6.E3A0      #002=KNA$IN File=KNA$APE.:E05TSI                                   WED 07/30/97 00:57 Page:227
          MINI XREF LISTING

BFR$
     11201**DCL     14703<<ASSIGN  14704<>CALL    14720>>ASSIGN  14723<<ASSIGN  14724<>CALL    14739>>ASSIGN
CASE_FCN
     14628**LABEL   14679--EXIT    14697--EXIT    14817--EXIT
CHECK_MRKPND
     14936**LABEL   14911--GOTO    14920--GOTO
CODE
     11889**DCL     14640>>IF
COMIO
     11849**DCL     14870<<ASSIGN  14871--ASSIGN  14873<>CALL    14885<<ASSIGN  14886--ASSIGN  14888<>CALL
COMIO.ARS
     11851**DCL     14872<<ASSIGN  14887<<ASSIGN
COMIO.P#
     11849**DCL     14871<<ASSIGN  14871--ASSIGN  14886<<ASSIGN  14886--ASSIGN
DATA$
     11208**DCL     14710<<ASSIGN  14720>>ASSIGN  14730<<ASSIGN  14739>>ASSIGN  14895<<ASSIGN  14898>>CALL
DATAARS
     11207**DCL     14718<<ASSIGN  14752>>ASSIGN  14754>>ASSIGN  14756>>ASSIGN  14758>>ASSIGN  14760>>ASSIGN
     14787>>ASSIGN
DATASIZE
     11206**DCL     11901--IMP-SIZ 14711<<ASSIGN  14713>>IF      14715<<ASSIGN  14718>>ASSIGN  14720>>ASSIGN
     14720>>ASSIGN  14731<<ASSIGN  14733>>IF      14735<<ASSIGN  14739>>ASSIGN  14739>>ASSIGN  14894<<ASSIGN
     14898>>CALL
DATASTRING
     11901**DCL     14720<<ASSIGN  14720>>ASSIGN  14739<<ASSIGN  14739>>ASSIGN  14898<>CALL
ECNCFAIL
     13404**DCL     14642>>ASSIGN
ELDSC
     13451**DCL     14918>>ASSIGN  14926>>ASSIGN  14930>>ASSIGN  15033>>ASSIGN
EVENT
     11202**DCL     14793<<ASSIGN  14794<>CALL
G$ASDT_MCL$
PL6.E3A0      #002=KNA$IN File=KNA$APE.:E05TSI                                   WED 07/30/97 00:57 Page:228
     11884**DCL     12377--IMP-PTR
G$USER.FLG
     11895**DCL     14780>>IF      14972>>IF      15036>>IF
G$USER.MISC
     11896**DCL     11896--REDEF
G$USER.MISC$
     11896**DCL     15036>>IF
G$USRT$
     11886**DCL     11895--IMP-PTR 14780>>IF      14972>>IF      15036>>IF      15036>>IF
GHH$LOCK
       588**DCL-ENT 14623--CALL
GHH$UNLOCK
       588**DCL-ENT 14833--CALL    14861--CALL    15054--CALL
GHQ$STATE
     13785**DCL-ENT 14962--CALL
GHS$EVENT
     13781**DCL-ENT 14794--CALL    14873--CALL    14888--CALL
GHS$RUE
     13786**DCL-ENT 14654--CALL    14781--CALL    14847--CALL    14908--CALL    14910--CALL    14916--CALL
     14925--CALL    14982--CALL    15024--CALL    15032--CALL    15039--CALL    15043--CALL
GJU$EVENT
     13787**DCL-ENT 14898--CALL
IOP$
     11205**DCL     12199--IMP-PTR 14668<<ASSIGN  14669<<ASSIGN  14671>>IF      14673>>ASSIGN  14674>>ASSIGN
     14694>>IF      14702>>ASSIGN  14703>>ASSIGN  14704>>CALL    14713>>IF      14715>>ASSIGN  14716>>ASSIGN
     14721>>IF      14723>>ASSIGN  14724>>CALL    14733>>IF      14735>>ASSIGN  14736>>ASSIGN  14745>>CALL
     14745>>CALL    14750>>DOCASE  14760>>ASSIGN  14761>>ASSIGN  14761>>ASSIGN  14763>>ASSIGN  14764>>ASSIGN
     14765>>ASSIGN  14766>>ASSIGN  14767>>IF      14769>>ASSIGN  14770>>ASSIGN  14771>>ASSIGN  14778>>IF
     14786>>ASSIGN  14793>>ASSIGN  14931<<ASSIGN  14975<<ASSIGN  14976>>IF      14978>>ASSIGN  14979>>ASSIGN
     14980>>ASSIGN
K$RWPARM
     11230**DCL     14663<<ASSIGN  14676<>CALL    14965<>CALL
K$RWPARM.ACTPOS
     11520**DCL     14765>>ASSIGN
K$RWPARM.BLKREC
     11260**DCL     11285--REDEF   15005>>ASSIGN
PL6.E3A0      #002=KNA$IN File=KNA$APE.:E05TSI                                   WED 07/30/97 00:57 Page:229
K$RWPARM.DVE.DVBYTE
     11292**DCL     14766>>ASSIGN  14788>>ASSIGN
K$RWPARM.DVE.DVBYTE.VFC
     11300**DCL     11301--REDEF
K$RWPARM.DVE.EOMCHAR
     11308**DCL     11312--REDEF   14763>>ASSIGN  14789>>ASSIGN
K$RWPARM.EOM_EOR
     11329**DCL     14762>>IF
K$RWPARM.ERR
     11372**DCL     11377--REDEF
K$RWPARM.FC
     11336**DCL     11337--REDEF
K$RWPARM.FLDID
     11518**DCL     11519--REDEF   14769>>ASSIGN  14980>>ASSIGN
K$RWPARM.KEY$
     11516**DCL     14730>>ASSIGN
K$RWPARM.KEYSZ
     11527**DCL     14731>>ASSIGN
K$RWPARM.KEYTYPE
     11525**DCL     11526--REDEF   14673<<ASSIGN
K$RWPARM.MARKER
     11285**DCL     14954>>ASSIGN  15009>>ASSIGN
K$RWPARM.MRKTYP
     11510**DCL     14941>>IF      14958<<ASSIGN  14986<<ASSIGN  14993>>IF      14996>>ASSIGN  14998>>DOCASE
K$RWPARM.MSG$
     11231**DCL     11232--REDEF   11241--REDEF   14963<<ASSIGN
K$RWPARM.MSGC$
     11232**DCL     14710>>ASSIGN  14895>>ASSIGN
K$RWPARM.MSGID
     11347**DCL     11352--REDEF   14792>>ASSIGN  14979>>ASSIGN
K$RWPARM.MSGIDXT
     11360**DCL     11364--REDEF
K$RWPARM.MSGSZ
     11242**DCL     14711>>ASSIGN  14894>>ASSIGN  14964<<ASSIGN
K$RWPARM.MSGTYP
     11251**DCL     14771>>ASSIGN  14791>>ASSIGN
PL6.E3A0      #002=KNA$IN File=KNA$APE.:E05TSI                                   WED 07/30/97 00:57 Page:230
K$RWPARM.MSG_ERRCODE
     11495**DCL     14770>>ASSIGN  14978>>ASSIGN
K$RWPARM.ORG
     11496**DCL     11497--REDEF
K$RWPARM.READMLT
     11320**DCL     14674<<ASSIGN
K$RWPARM.STATION
     11246**DCL     14790>>ASSIGN
K$RWPARM.STR
     11511**DCL     14867>>IF      14867>>IF      14867>>IF      14882>>IF      14882>>IF      14882>>IF
K$RWPARM.UHDR$
     11385**DCL     14664<<ASSIGN
K$RWPARM.UHDRSZ
     11390**DCL     14665<<ASSIGN
K$RWPARM.VDOFLGS
     11498**DCL     11509--REDEF
KN$IOP.ARS
     12255**DCL     12256--REDEF   12257--REDEF
KN$IOP.BUFSEGDES
     12307**DCL     14704<>CALL
KN$IOP.BUF_
     12270**DCL     14703>>ASSIGN  14713>>IF      14715>>ASSIGN
KN$IOP.DCB$
     12283**DCL     14745<>CALL    14750>>DOCASE  14760>>ASSIGN  14761>>ASSIGN  14763>>ASSIGN  14764>>ASSIGN
     14765>>ASSIGN  14766>>ASSIGN  14767>>IF      14769>>ASSIGN
KN$IOP.DCBSEGDES
     12351**DCL     14745<>CALL
KN$IOP.ERRCODE
     12217**DCL     14770<<ASSIGN  14786>>ASSIGN  14930<<ASSIGN  14978<<ASSIGN
KN$IOP.EVENT
     12369**DCL     14793>>ASSIGN
KN$IOP.FLAGS.RDDONE
     12264**DCL     14702<<ASSIGN  14927>>IF
KN$IOP.FLAGS.READMLT
     12266**DCL     14674>>ASSIGN
KN$IOP.FLAGS.TRUNC
PL6.E3A0      #002=KNA$IN File=KNA$APE.:E05TSI                                   WED 07/30/97 00:57 Page:231
     12262**DCL     14716<<ASSIGN  14736<<ASSIGN  14761>>ASSIGN
KN$IOP.FLAGS.WAIT
     12263**DCL     14778>>IF
KN$IOP.FLDID
     12257**DCL     14980<<ASSIGN
KN$IOP.KEYSEGDES
     12329**DCL     14724<>CALL
KN$IOP.KEYTYPE
     12256**DCL     14673>>ASSIGN
KN$IOP.KEY_
     12277**DCL     14721>>IF      14723>>ASSIGN  14733>>IF      14735>>ASSIGN
KN$IOP.LNK$
     12285**DCL     12286--REDEF
KN$IOP.MSGID
     12284**DCL     14979<<ASSIGN
KN$IOP.MSGTYPE
     12368**DCL     14771<<ASSIGN
KN$LDCT.RLCID.LDCTX
     12029**DCL     12036--REDEF   12044--REDEF
KN$LDCT.TRANSPORT_ID
     12063**DCL     12071--REDEF
KN$LDCT.UID
     12093**DCL     12094--REDEF   12103--REDEF
KN$LDCT.UID$
     12094**DCL     14626>>ASSIGN
KN$LDCT.USER#
     12186**DCL     14962<>CALL
KN$NETPARM
     11059**DCL        48--PROC    14816<>CALL
KN$NETPARM.ERRCODE
     11166**DCL     14853<>CALL    14949<>CALL    14965<>CALL    15013<>CALL
KN$NETPARM.FPT$
     11178**DCL     11889--IMP-PTR 14640>>IF
KN$NETPARM.FUNCTION
     11154**DCL     14617>>IF      14628>>DOCASE  14815<<ASSIGN
KN$NETPARM.LDCT$
PL6.E3A0      #002=KNA$IN File=KNA$APE.:E05TSI                                   WED 07/30/97 00:57 Page:232
     11060**DCL     11968--IMP-PTR 14626>>ASSIGN  14962>>CALL
KN$NETPARM.MSG$
     11066**DCL     11071--REDEF
KN$NETPARM.NHDR$
     11118**DCL     11119--REDEF
KN$NETPARM.SHDR$
     11096**DCL     11097--REDEF
KN$NETPARM.THDR$
     11107**DCL     11108--REDEF
KN$NETPARM.UHDR$
     11082**DCL     11083--REDEF   13248--IMP-PTR 13288--IMP-PTR 14664>>ASSIGN  14667>>IF      14682>>DOCASE
     14749>>IF      14809>>IF      14813<<ASSIGN  14819>>IF      14821>>ASSIGN  14823>>ASSIGN  14824>>IF
     14837>>ASSIGN  14840>>ASSIGN  14841>>ASSIGN  14842>>ASSIGN  14872>>ASSIGN  14887>>ASSIGN  14892>>IF
     14905>>IF      14905>>IF      15015>>ASSIGN
KN$NETPARM.UHDRSZ
     11091**DCL     14665>>ASSIGN  14814<<ASSIGN
KNA$DECODE_VDO
     13789**DCL-ENT 14676--CALL
KNA$FCNO
     13779**DCL-ENT 14853--CALL    14949--CALL    14965--CALL    15013--CALL
KNA$MAP
     13780**DCL-ENT 14704--CALL    14724--CALL    14745--CALL
KNA$RLSIOP
     13782**DCL-ENT 14795--CALL
KNA$SSN
     13078**DCL     14853<>CALL    14949<>CALL    14965<>CALL    15013<>CALL
KNA$SSN.BLKREC
     13145**DCL     15001>>ASSIGN  15005<<ASSIGN
KNA$SSN.ERROR
     13104**DCL     14642<<ASSIGN  14918<<ASSIGN  14926<<ASSIGN  15033<<ASSIGN
KNA$SSN.EVENT
     13146**DCL     14867>>IF      14873<>CALL    14882>>IF      14888<>CALL
KNA$SSN.FLAGS.BLOCKED
     13082**DCL     14809>>IF      14826>>IF      14844>>IF      14848<<ASSIGN
KNA$SSN.FLAGS.CQ
     13082**DCL     15022>>IF      15025<<ASSIGN
PL6.E3A0      #002=KNA$IN File=KNA$APE.:E05TSI                                   WED 07/30/97 00:57 Page:233
KNA$SSN.FLAGS.MRKPND
     13086**DCL     14944>>IF      14955<<ASSIGN
KNA$SSN.FLAGS.MULT_STR
     13082**DCL     14801<<ASSIGN  14867>>IF      14882>>IF
KNA$SSN.FLAGS.PRIMARY
     13082**DCL     15030>>IF
KNA$SSN.FLAGS.REGGED
     13082**DCL     14809>>IF      14826>>IF      14844>>IF      14972>>IF      15026<<ASSIGN
KNA$SSN.FLAGS.RRRPND
     13082**DCL     14972>>IF      14983<<ASSIGN
KNA$SSN.FLAGS.SSNERR
     13082**DCL     14643<<ASSIGN  14919<<ASSIGN  15034<<ASSIGN
KNA$SSN.IOPQ$
     13140**DCL     14669>>ASSIGN  14975>>ASSIGN
KNA$SSN.IOPRD$
     13140**DCL     13140--REDEF   14668>>ASSIGN  14795<>CALL    14796<<ASSIGN  14927>>IF      14927>>IF
     14930>>ASSIGN  14931>>ASSIGN
KNA$SSN.LDCT$
     13137**DCL     15036>>IF
KNA$SSN.MARKER
     13146**DCL     14947>>ASSIGN  14954<<ASSIGN
KNA$SSN.RLCID.NODE#
     13144**DCL     13144--REDEF
KNA$SSN.STATE
     13145**DCL     14637>>IF      14653<<ASSIGN  14809>>IF      14903>>IF      14914>>IF      14917<<ASSIGN
     14924<<ASSIGN  15035<<ASSIGN
KNA$SSN.THRTLVL.MAXNMBBYT
     13137**DCL     14837<<ASSIGN  14837>>ASSIGN  14840<<ASSIGN  14850>>IF
KNA$SSN.THRTLVL.MAXNMBRCR
     13137**DCL     14821<<ASSIGN  14821>>ASSIGN  14823<<ASSIGN  14850>>IF
KNA$SSN.THRTLVL.MAXRCRBYTSIZ
     13138**DCL     14841<<ASSIGN
KNA$SSN.THRTLVL.STR
     13138**DCL     14842<<ASSIGN
KNA$SSN.USER#
     13145**DCL     14654<>CALL    14780>>IF      14781<>CALL    14794<>CALL    14847<>CALL    14873<>CALL
PL6.E3A0      #002=KNA$IN File=KNA$APE.:E05TSI                                   WED 07/30/97 00:57 Page:234
     14888<>CALL    14898<>CALL    14908<>CALL    14910<>CALL    14916<>CALL    14925<>CALL    14972>>IF
     14982<>CALL    15024<>CALL    15032<>CALL    15036>>IF      15036>>IF      15039<>CALL    15043<>CALL
KNA_LNKSSN
     13769**DCL     14623<>CALL    14833<>CALL    14861<>CALL    15054<>CALL
KNA_RWPARM_CON
     13809**DCL     14663>>ASSIGN  14852>>ASSIGN  14946>>ASSIGN  14995>>ASSIGN
KNA_RWPARM_CON.BLKREC
     13839**DCL     13864--REDEF
KNA_RWPARM_CON.DVE.DVBYTE.VFC
     13879**DCL     13880--REDEF
KNA_RWPARM_CON.DVE.EOMCHAR
     13887**DCL     13891--REDEF
KNA_RWPARM_CON.ERR
     13951**DCL     13956--REDEF
KNA_RWPARM_CON.FC
     13915**DCL     13916--REDEF
KNA_RWPARM_CON.FLDID
     14097**DCL     14098--REDEF
KNA_RWPARM_CON.KEYTYPE
     14104**DCL     14105--REDEF
KNA_RWPARM_CON.MSG$
     13810**DCL     13811--REDEF   13820--REDEF
KNA_RWPARM_CON.MSGID
     13926**DCL     13931--REDEF
KNA_RWPARM_CON.MSGIDXT
     13939**DCL     13943--REDEF
KNA_RWPARM_CON.ORG
     14075**DCL     14076--REDEF
KNA_RWPARM_CON.VDOFLGS
     14077**DCL     14088--REDEF
KNS$SEND
     13788**DCL-ENT 14816--CALL
KV$VDOHDR.FNC
     13252**DCL     14667>>IF      14682>>DOCASE  14749>>IF      15015<<ASSIGN
KV$VDOHDR.STR
     13252**DCL     14892>>IF
PL6.E3A0      #002=KNA$IN File=KNA$APE.:E05TSI                                   WED 07/30/97 00:57 Page:235
KV$VDO_BLKDAT.RCRBYTSIZ
     13385**DCL     14887>>ASSIGN
KV$VDO_EVT.BRKCNT
     13295**DCL     14905>>IF
KV$VDO_EVT.TYP
     13295**DCL     14905>>IF
KV$VDO_RQSDAT.EOFNO_DAT
     13341**DCL     14809>>IF
KV$VDO_RQSDAT.INCMAXNMBBYT
     13339**DCL     14824>>IF
KV$VDO_RQSDAT.INCMAXNMBRCR
     13339**DCL     14819>>IF
KV$VDO_RQSDAT.MAXNMBBYT
     13338**DCL     14837>>ASSIGN  14840>>ASSIGN  14872>>ASSIGN
KV$VDO_RQSDAT.MAXNMBRCR
     13337**DCL     14821>>ASSIGN  14823>>ASSIGN
KV$VDO_RQSDAT.MAXRCRBYTSIZ
     13337**DCL     14841>>ASSIGN
KV$VDO_RQSDAT.STR
     13334**DCL     14842>>ASSIGN
MYDCB.ACTPOS
     11945**DCL     14765<<ASSIGN
MYDCB.ARS
     11926**DCL     14760<<ASSIGN
MYDCB.DCBNAME.L
     11949**DCL     11949--IMP-SIZ
MYDCB.DDEV.RES
     11932**DCL     14750>>DOCASE
MYDCB.DVBYTE
     11927**DCL     14766<<ASSIGN
MYDCB.EOMCHAR
     11940**DCL     11940--REDEF   11941--REDEF   14763<<ASSIGN  14764<<ASSIGN
MYDCB.FLDID
     11939**DCL     11939--REDEF   14769<<ASSIGN
MYDCB.ORG
     11937**DCL     14767>>IF
PL6.E3A0      #002=KNA$IN File=KNA$APE.:E05TSI                                   WED 07/30/97 00:57 Page:236
MYDCB.RES
     11934**DCL     11935--REDEF
MYDCB.TYC.LD#
     11926**DCL     14761<<ASSIGN
NODAT_VDO
     13626**DCL     14813--ASSIGN  14814--ASSIGN
NO_MARKER
     15009**LABEL   15006--GOTO
NWIO
     11857**DCL     14784<<ASSIGN  14785--ASSIGN  14794<>CALL
NWIO.ARS
     11859**DCL     14787<<ASSIGN
NWIO.CGPARM.MSGID#
     11878**DCL     14792<<ASSIGN
NWIO.CGPARM.MSGTYP#
     11877**DCL     14791<<ASSIGN
NWIO.CGPARM.STATION#
     11877**DCL     14790<<ASSIGN
NWIO.DVE.DVBYTE
     11859**DCL     14788<<ASSIGN
NWIO.DVE.EOMCHAR
     11859**DCL     14789<<ASSIGN
NWIO.P#
     11857**DCL     14785<<ASSIGN  14785--ASSIGN
OPARM
     11546**DCL     14852<<ASSIGN  14853<>CALL    14946<<ASSIGN  14949<>CALL    14995<<ASSIGN  15013<>CALL
OPARM.BLKREC
     11576**DCL     11601--REDEF   15001<<ASSIGN
OPARM.DVE.DVBYTE.VFC
     11616**DCL     11617--REDEF
OPARM.DVE.EOMCHAR
     11624**DCL     11628--REDEF
OPARM.ERR
     11688**DCL     11693--REDEF
OPARM.FC
     11652**DCL     11653--REDEF
PL6.E3A0      #002=KNA$IN File=KNA$APE.:E05TSI                                   WED 07/30/97 00:57 Page:237
OPARM.FLDID
     11834**DCL     11835--REDEF
OPARM.KEYTYPE
     11841**DCL     11842--REDEF
OPARM.MARKER
     11601**DCL     14947<<ASSIGN  15009<<ASSIGN
OPARM.MRKTYP
     11826**DCL     14948<<ASSIGN  14996<<ASSIGN  15002<<ASSIGN
OPARM.MSG$
     11547**DCL     11548--REDEF   11557--REDEF
OPARM.MSGID
     11663**DCL     11668--REDEF
OPARM.MSGIDXT
     11676**DCL     11680--REDEF
OPARM.ORG
     11812**DCL     11813--REDEF
OPARM.VDOFLGS
     11814**DCL     11825--REDEF
PROTOCOL_ERR
     15058**PROC    14678--CALL    14696--CALL    14990--CALL
PS_LCP6STT.BYTES_READ_HOST
     14519**DCL     14752<<ASSIGN  14752>>ASSIGN
PS_LCP6STT.BYTES_READ_LG
     14529**DCL     14756<<ASSIGN  14756>>ASSIGN
PS_LCP6STT.BYTES_READ_NA
     14534**DCL     14758<<ASSIGN  14758>>ASSIGN
PS_LCP6STT.BYTES_READ_UC
     14524**DCL     14754<<ASSIGN  14754>>ASSIGN
PS_LCP6STT.REQSTATS.DSPMSK
     14374**DCL     14380--REDEF
PS_LCP6STT.REQSTATS.SLCMSK
     14415**DCL     14422--REDEF
READ_COMP
     14771**LABEL   14932--GOTO
SCREECH
     13783**DCL-ENT 14638--CALL    15047--CALL
PL6.E3A0      #002=KNA$IN File=KNA$APE.:E05TSI                                   WED 07/30/97 00:57 Page:238
SCR_UNEXP
     13558**DCL     14638<>CALL    15047<>CALL
SSN$
     11204**DCL     13078--IMP-PTR 14626<<ASSIGN  14637>>IF      14642>>ASSIGN  14643>>ASSIGN  14653>>ASSIGN
     14654>>CALL    14668>>ASSIGN  14669>>ASSIGN  14780>>IF      14781>>CALL    14794>>CALL    14795>>CALL
     14796>>ASSIGN  14801>>ASSIGN  14809>>IF      14809>>IF      14809>>IF      14821>>ASSIGN  14821>>ASSIGN
     14823>>ASSIGN  14826>>IF      14826>>IF      14837>>ASSIGN  14837>>ASSIGN  14840>>ASSIGN  14841>>ASSIGN
     14842>>ASSIGN  14844>>IF      14844>>IF      14847>>CALL    14848>>ASSIGN  14850>>IF      14850>>IF
     14853>>CALL    14867>>IF      14867>>IF      14873>>CALL    14873>>CALL    14882>>IF      14882>>IF
     14888>>CALL    14888>>CALL    14898>>CALL    14903>>IF      14908>>CALL    14910>>CALL    14914>>IF
     14916>>CALL    14917>>ASSIGN  14918>>ASSIGN  14919>>ASSIGN  14924>>ASSIGN  14925>>CALL    14926>>ASSIGN
     14927>>IF      14927>>IF      14930>>ASSIGN  14931>>ASSIGN  14944>>IF      14947>>ASSIGN  14949>>CALL
     14954>>ASSIGN  14955>>ASSIGN  14965>>CALL    14972>>IF      14972>>IF      14972>>IF      14975>>ASSIGN
     14982>>CALL    14983>>ASSIGN  15001>>ASSIGN  15005>>ASSIGN  15013>>CALL    15022>>IF      15024>>CALL
     15025>>ASSIGN  15026>>ASSIGN  15030>>IF      15032>>CALL    15033>>ASSIGN  15034>>ASSIGN  15035>>ASSIGN
     15036>>IF      15036>>IF      15036>>IF      15039>>CALL    15043>>CALL
STATE
     11212**DCL     14962<>CALL    14963--ASSIGN  14964--ASSIGN
TCB_ERR
     11211**DCL     14786<<ASSIGN  14794<>CALL
UNLK_N_ALTRET
     14848**LABEL   14816--CALLALT 14949--CALLALT 14965--CALLALT 15016--GOTO

