PL6.E3A0      #006=KNA$BUILD_VDO File=KNA$SUBS.:E05TSI                           WED 07/30/97 01:01 Page:155
      894        1        /*T***********************************************************/
      895        2        /*T*                                                         */
      896        3        /*T* Copyright (c) Bull HN Information Systems Inc., 1997    */
      897        4        /*T*                                                         */
      898        5        /*T***********************************************************/
      899        6
      900        7        KNA$BUILD_VDO: PROC(FUNCTION,K$RWPARM,HDR);
      901        8
      902        9        %INCLUDE KV$VDO;
      903     1024        %INCLUDE K$RWPARM;
      904     1410        %INCLUDE GU_LCP6_M;
      905     2338        %INCLUDE G_LCP6_E;
      906     2596        %INCLUDE KV_PRMID_E;
      907     2770        %KV_PRMID_E;
      908     2926        %INCLUDE K_CP6_M;
      909     3122        %INCLUDE KI$CP6V_C;
      910     3561
      911     3562        /* Parameters */
      912     3563    1   DCL FUNCTION UBIN;
      913     3564        %K$RWPARM (NAME=K$RWPARM);
      914     3880    1   DCL HDR CHAR(100) WALIGNED;
      915     3881
      916     3882        /* Based structures */
      917     3883        %KV_VDO_ALL;
      918     6026        %KV$VDOVLP_MRK (NAME=VDOVLP_MRK,STCLASS=BASED,LAST=",");
      919     6079    1         2 BMRK REDEF ID,
      920     6080    1           3 BLK# UBIN (16) UNAL,
      921     6081    1           3 REC# UBIN (16) UNAL;
      922     6082    1   DCL 1 VDO BASED,
      923     6083    1         2 * CHAR(VDOSZ);
      924     6084    1   DCL 1 VDO1 BASED(HDR$) WALIGNED ,
      925     6085    1         2 WD1 UBIN ,
      926     6086    1         2 WD2 UBIN ,
      927     6087    1         2 WD3 UBIN ,
      928     6088    1         2 WD4 UBIN ,
      929     6089    1         2 WD5 UBIN ,
      930     6090    1         2 WD6 UBIN ;
PL6.E3A0      #006=KNA$BUILD_VDO File=KNA$SUBS.:E05TSI                           WED 07/30/97 01:01 Page:156
      931     6091
      932     6092    1   DCL FLDID UBIN BASED;
      933     6093    1   DCL KEY CHAR(K$RWPARM.KEYSZ) BASED;
      934     6094        %FPT$DCLFLD_V(BASED="BASED(K$RWPARM.V$)");
      935     6114    1   DCL TL CHAR(K$RWPARM.VSZ) BASED(K$RWPARM.V$);
      936     6115        %FPT$ERASE_V(BASED="BASED(K$RWPARM.V$)");
      937     6131        %FPT$MDFFLD_V(BASED="BASED(K$RWPARM.V$)");
      938     6147        %VLP$FLDATR_V (FPTN=VLP$FLDATR,BASED="BASED(K$RWPARM.IP$)");
      939     6164        %FPT$TRMPRG_V (BASED="BASED(K$RWPARM.V$)");
      940     6176        /* Auto */
      941     6177    1   DCL HDR$ PTR;
      942     6178    1   DCL LHDR$ PTR;
      943     6179    1   DCL MSGSZ UBIN;
      944     6180    1   DCL VDOSZ UBIN;
      945     6181    1   DCL TEMP2U REDEF VDOSZ UBIN ;
      946     6182    1   DCL TEMP2S REDEF VDOSZ SBIN ;
      947     6183    1   DCL OP$ CPTR;
      948     6184    1   DCL 1 OP$1 REDEF OP$ ,
      949     6185    1         2 HIBIT BIT(1) UNAL ,
      950     6186    1         2 WAPTR BIT(31) UNAL ;
      951     6187    1   DCL OPP$ REDEF OP$ PTR;
      952     6188
      953     6189    1   DCL B$CHAR CHAR(1) BASED(OP$) UNAL;
      954     6190    1   DCL UBNBSD UBIN WORD BASED ALIGNED ;
      955     6191    1   DCL 1 UBNBSD1 REDEF UBNBSD ALIGNED ,
      956     6192    1         2 HLF1 UBIN(8) UNAL ,
      957     6193    1         2 HLF2 UBIN(8) UNAL ;
      958     6194
      959     6195    1   DCL TEMP1U UBIN ;
      960     6196    1   DCL TEMP1S REDEF TEMP1U SBIN ;
      961     6197    1   DCL 1 TEMP1STR REDEF TEMP1U ,
      962     6198    1         2 HLF1 UBIN(8) UNAL ,
      963     6199    1         2 HLF2 UBIN(8) UNAL ;
      964     6200    1   DCL TEMP3U UBIN;
      965     6201    1   DCL TEMP3S REDEF TEMP3U SBIN;
      966     6202
      967     6203        /* Refs */
PL6.E3A0      #006=KNA$BUILD_VDO File=KNA$SUBS.:E05TSI                           WED 07/30/97 01:01 Page:157
      968     6204        %KV$VDOVLP_CG_MSGID (NAME=KNA_VDOVLP_CG_MSGID,STCLASS=SYMREF);
      969     6256        %KV$VDOVLP_CG_MSGTYP (NAME=KNA_VDOVLP_CG_MSGTYP,STCLASS=SYMREF);
      970     6308        %KV$VDOVLP_CG_STA (NAME=KNA_VDOVLP_CG_STA,STCLASS=SYMREF);
      971     6359        %KV$VDOVLP_DAT1 (NAME=KNA_VDOVLP_DAT1,STCLASS=SYMREF);
      972     6409        %KV$VDOVLP_DAT2 (NAME=KNA_VDOVLP_DAT2,STCLASS=SYMREF);
      973     6459        %KV$VDOVLP_ERR (NAME=KNA_VDOVLP_ERR,STCLASS=SYMREF);
      974     6556        %KV$VDOVLP_FLDID (NAME=KNA_VDOVLP_FLDID,STCLASS=SYMREF);
      975     6607        %KV$VDOVLP_KEY (NAME=KNA_VDOVLP_KEY,STCLASS=SYMREF);
      976     6657        %KV$VDOVLP_MRK (NAME=KNA_VDOVLP_MRK,STCLASS=SYMREF);
      977     6710        %KV_VDOBYTSIZ (NAME=KNA_VDOBYTSIZ,STCLASS=SYMREF);
      978     6730
      979     6731
      980     6732        %EJECT;
PL6.E3A0      #006=KNA$BUILD_VDO File=KNA$SUBS.:E05TSI                           WED 07/30/97 01:01 Page:158
      981     6733
      982     6734
      983     6735
      984     6736    1      HDR$ = ADDR(HDR);
      985     6737    1      IF FUNCTION > %KV_VDO_FNC_HI
      986     6738    2      THEN DO;
      987     6739    2           RETURN;
      988     6740    2           END;
      989     6741    1      VDOSZ = KNA_VDOBYTSIZ(FUNCTION);
      990     6742        /*
      991     6743             HDR$->VDO = '0'B;
      992     6744                                          */
      993     6745    1      VDO1.WD1 = 0 ;
      994     6746    1      HDR$->KV$VDO.FNC = FUNCTION;
      995     6747    1      MSGSZ = K$RWPARM.MSGSZ;
      996     6748    1      HDR$->KV$VDO.STR = K$RWPARM.STR;
      997     6749
      998     6750    2      DO CASE (FUNCTION);
      999     6751
     1000     6752    2       CASE (%KV_VDO_FNC_BLKDAT);
     1001     6753    2         HDR$->KV$VDO_BLKDAT.RCRBYTSIZ = K$RWPARM.MAXRCRBYTSIZ/256*512 + MOD(K$RWPARM.
              6753                  MAXRCRBYTSIZ,256);
     1002     6754    2         VDO1.WD3 = 0 ;
     1003     6755    2         HDR$->KV$VDO_BLKDAT.RSN = K$RWPARM.RSN;
     1004     6756
     1005     6757    2       CASE (%KV_VDO_FNC_CLSSTR);
     1006     6758    2         VDO1.WD2 = 0 ;
     1007     6759    2         HDR$->KV$VDO_CLSSTR.DLT = K$RWPARM.VDOFLGS.DLTSTR;
     1008     6760    2         HDR$->KV$VDO_CLSSTR.NEWSSN = K$RWPARM.VDOFLGS.NEWSSN;
     1009     6761
     1010     6762
     1011     6763    2       CASE (%KV_VDO_FNC_DCLFLD);
     1012     6764    2         HDR$->KV$VDO_DCLFLD.LIN = FPT$DCLFLD_V.LIN;
     1013     6765    2         HDR$->KV$VDO_DCLFLD.CLM = FPT$DCLFLD_V.CLM;
     1014     6766    2         HDR$->KV$VDO_DCLFLD.WDT = FPT$DCLFLD_V.WDT;
     1015     6767    2         HDR$->KV$VDO_DCLFLD.ID = FPT$DCLFLD_V.ID;
     1016     6768    2         IF VLP$FLDATR.ABSGRPRND ~= 0
PL6.E3A0      #006=KNA$BUILD_VDO File=KNA$SUBS.:E05TSI                           WED 07/30/97 01:01 Page:159
     1017     6769    3         THEN DO;
     1018     6770    3              HDR$->KV$VDO_DCLFLD.GRPRND =
     1019     6771    3                BINBIT(VLP$FLDATR.ABSGRPRND,SIZEB(KV$VDO_DCLFLD.GRPRND));
     1020     6772    3              HDR$->KV$VDO_DCLFLD.GRPRND.ABS = '1'B;
     1021     6773    3              END;
     1022     6774    2         ELSE
     1023     6775    2              HDR$->KV$VDO_DCLFLD.GRPRND = VLP$FLDATR.GRPRND;
     1024     6776    2         HDR$->KV$VDO_DCLFLD.QLF = VLP$FLDATR.QLF;
     1025     6777
     1026     6778    2       CASE (%KV_VDO_FNC_DAT,%KV_VDO_FNC_DAT_IMD);
     1027     6779    2         VDO1.WD2 = 0 ;
     1028     6780    2         IF K$RWPARM.DVE.DVBYTE.VFC
     1029     6781    3         THEN DO;
     1030     6782    3              HDR$->KV$VDO_DAT.DATCTRCHRTYP = %KV_DATCTRCHRTYP_VFC;
     1031     6783    3              HDR$->KV$VDO_DAT.DATCTRCHR = K$RWPARM.DVE.VFC;
     1032     6784    3              END;
     1033     6785    2         IF K$RWPARM.EOM_EOR
     1034     6786    3         THEN DO;
     1035     6787    3              HDR$->KV$VDO_DAT.DATCTRCHRTYP = %KV_DATCTRCHRTYP_ACT;
     1036     6788    3              HDR$->KV$VDO_DAT.DATCTRCHR = K$RWPARM.DVE.EOMCHAR;
     1037     6789    3              END;
     1038     6790    2         IF K$RWPARM.DVE.DVBYTE.TRANS
     1039     6791    2         THEN HDR$->KV$VDO_DAT.DATMOD = %KV_DATMOD_TRN;
     1040     6792
     1041     6793    2       CASE (%KV_VDO_FNC_DLT);
     1042     6794    2         VDO1.WD2 = 0 ;
     1043     6795    2         HDR$->KV$VDO_DLT.CTLFLG = FPT$TRMPRG_V.CTLFLG;
     1044     6796
     1045     6797    2       CASE (%KV_VDO_FNC_DCLSTR);
     1046     6798    2         VDO1.WD2 = 0 ;
     1047     6799    2         HDR$->KV$VDO_DCLSTR.STRID = K$RWPARM.STRID;
     1048     6800
     1049     6801    2       CASE (%KV_VDO_FNC_ERS);
     1050     6802    2         VDO1.WD2 = 0 ;
     1051     6803    2         HDR$->KV$VDO_ERS.PRT = FPT$ERASE_V.PRT;
     1052     6804    2         HDR$->KV$VDO_ERS.CNS = FPT$ERASE_V.CNS;
     1053     6805
PL6.E3A0      #006=KNA$BUILD_VDO File=KNA$SUBS.:E05TSI                           WED 07/30/97 01:01 Page:160
     1054     6806    2       CASE (%KV_VDO_FNC_OPNSTR);
     1055     6807    2         VDO1.WD2 = 0 ;
     1056     6808    2         VDO1.WD3 = 0 ;
     1057     6809    2         HDR$->KV$VDO_OPNSTR.ORG = K$RWPARM.ORG;
     1058     6810
     1059     6811
     1060     6812    2       CASE (%KV_VDO_FNC_PRM_SET);
     1061     6813    2         MSGSZ = MSGSZ + K$RWPARM.VSZ;
     1062     6814
     1063     6815    2       CASE (%KV_VDO_FNC_RQSDAT);
     1064     6816    2         VDO1.WD5 = 0 ;
     1065     6817    2         HDR$->KV$VDO_RQSDAT.EOFNO_DAT = K$RWPARM.DVE.DVBYTE.NODAT;
     1066     6818    2         HDR$->KV$VDO_RQSDAT.RE_RED = K$RWPARM.DVE.DVBYTE.REREAD;
     1067     6819        /*    HDR$->KV$VDO_RQSDAT.BP = K$RWPARM.DVE.DVBYTE.BP; if ORG=SE ever works */
     1068     6820    2         HDR$->KV$VDO_RQSDAT.READMLT = K$RWPARM.READMLT;
     1069     6821    2         IF K$RWPARM.DVE.DVBYTE.TRANS
     1070     6822    2         THEN
     1071     6823    2              HDR$->KV$VDO_RQSDAT.DATMOD = %KV_DATMOD_TRN;
     1072     6824    2         HDR$->KV$VDO_RQSDAT.MAXNMBRCR = K$RWPARM.MAXNMBRCR;
     1073     6825    2         HDR$->KV$VDO_RQSDAT.MAXNMBBYT = K$RWPARM.MAXNMBBYT;
     1074     6826    2         HDR$->KV$VDO_RQSDAT.MAXRCRBYTSIZ = K$RWPARM.MAXRCRBYTSIZ;
     1075     6827    2         HDR$->KV$VDO_RQSDAT.WAT = K$RWPARM.VDOFLGS.WAIT;
     1076     6828
     1077     6829    2       CASE (%KV_VDO_FNC_RQSPRM);
     1078     6830    2         VDO1.WD2 = 0 ;
     1079     6831    2         HDR$->KV$VDO_RQSPRM.PRMID = K$RWPARM.PRMID;
     1080     6832    2         HDR$->KV$VDO_RQSPRM.MAXNMBBYT = K$RWPARM.MAXNMBBYT;
     1081     6833
     1082     6834    2       CASE (%KV_VDO_FNC_SLCGRPRND);
     1083     6835    2         VDO1.WD2 = 0 ;
     1084     6836    2         IF VLP$FLDATR.ABSGRPRND ~= 0
     1085     6837    3         THEN DO;
     1086     6838    3              HDR$->KV$VDO_SLCGRPRND.GRPRND =
     1087     6839    3                BINBIT(VLP$FLDATR.ABSGRPRND,SIZEB(KV$VDO_SLCGRPRND.GRPRND));
     1088     6840    3              HDR$->KV$VDO_SLCGRPRND.GRPRND.ABS = '1'B;
     1089     6841    3              END;
     1090     6842    2         ELSE
PL6.E3A0      #006=KNA$BUILD_VDO File=KNA$SUBS.:E05TSI                           WED 07/30/97 01:01 Page:161
     1091     6843    2              HDR$->KV$VDO_SLCGRPRND.GRPRND = VLP$FLDATR.GRPRND;
     1092     6844
     1093     6845    2       CASE (%KV_VDO_FNC_SLCQLF);
     1094     6846    2         VDO1.WD2 = 0 ;
     1095     6847    2         HDR$->KV$VDO_SLCQLF.QLF = VLP$FLDATR.QLF;
     1096     6848
     1097     6849    2       CASE (ELSE) ;
     1098     6850    2         IF VDOSZ > 2 THEN
     1099     6851    2              VDO1.WD2 =  0 ;
     1100     6852
     1101     6853
     1102     6854    2         END /* CASES */;
     1103     6855    1      LHDR$ = HDR$;
     1104     6856    1      HDR$ = PINCRW(HDR$,VDOSZ/2);
     1105     6857        /* CG message type */
     1106     6858    1      IF K$RWPARM.MSGTYP ~= ' '
     1107     6859    2      THEN DO;
     1108     6860    2           IF K$RWPARM.MSGID ~= 0
     1109     6861    3           THEN DO;
     1110     6862    3                HDR$->KV$VDOVLP_CG_MSGID = KNA_VDOVLP_CG_MSGID;
     1111     6863    3                HDR$->KV$VDOVLP_CG_MSGID.CG_MSGIDXT = K$RWPARM.MSGIDXT;
     1112     6864    3                HDR$->KV$VDOVLP_CG_MSGID.CG_MSGID=K$RWPARM.MSGID;
     1113     6865    3                HDR$ = PINCRC(HDR$,SIZEC(KNA_VDOVLP_CG_MSGID));
     1114     6866    3                END;
     1115     6867    2           HDR$->KV$VDOVLP_CG_MSGTYP = KNA_VDOVLP_CG_MSGTYP;
     1116     6868    2           HDR$->KV$VDOVLP_CG_MSGTYP.CG_MSGTYP = K$RWPARM.MSGTYP;
     1117     6869    2           LHDR$ = HDR$;
     1118     6870    2           HDR$ = PINCRC(HDR$,SIZEC(KNA_VDOVLP_CG_MSGTYP));
     1119     6871    2           END;
     1120     6872
     1121     6873    1      IF K$RWPARM.STATION ~= ' '
     1122     6874    2      THEN DO;
     1123     6875    2           HDR$->KV$VDOVLP_CG_STA = KNA_VDOVLP_CG_STA;
     1124     6876    2           HDR$->KV$VDOVLP_CG_STA.CG_STA = K$RWPARM.STATION;
     1125     6877    2           LHDR$ = HDR$;
     1126     6878    2           HDR$ = PINCRC(HDR$,SIZEC(KNA_VDOVLP_CG_STA));
     1127     6879    2           END;
PL6.E3A0      #006=KNA$BUILD_VDO File=KNA$SUBS.:E05TSI                           WED 07/30/97 01:01 Page:162
     1128     6880
     1129     6881    1      IF K$RWPARM.MSG_ERRCODE ~= '0'B
     1130     6882    2      THEN DO;
     1131     6883    2           HDR$->KV$VDOVLP_ERR = KNA_VDOVLP_ERR;
     1132     6884    2           HDR$->KV$VDOVLP_ERR.ERRCODE=K$RWPARM.MSG_ERRCODE;
     1133     6885    2           LHDR$ = HDR$;
     1134     6886    2           HDR$ = PINCRC(HDR$,SIZEC(KNA_VDOVLP_ERR));
     1135     6887    2           END;
     1136     6888
     1137     6889    1      IF K$RWPARM.KEY$ ~= ADDR(NIL)
     1138     6890    1      THEN IF K$RWPARM.KEYTYPE = %G_KEYTYPE_FLDID#
     1139     6891    2           THEN DO;
     1140     6892    2                HDR$->KV$VDOVLP_FLDID = KNA_VDOVLP_FLDID;
     1141     6893    2                HDR$->KV$VDOVLP_FLDID.BYTSIZ = K$RWPARM.KEYSZ;
     1142     6894    2                HDR$->KV$VDOVLP_FLDID.FLDID = K$RWPARM.KEY$->FLDID;
     1143     6895    2                LHDR$ = HDR$;
     1144     6896    2                HDR$ = PINCRC(HDR$,SIZEC(KNA_VDOVLP_FLDID));
     1145     6897    2                END;
     1146     6898    2           ELSE DO;
     1147     6899    2                HDR$->KV$VDOVLP_KEY = KNA_VDOVLP_KEY;
     1148     6900    2                HDR$->KV$VDOVLP_KEY.BYTSIZ = K$RWPARM.KEYSZ;
     1149     6901    2                IF K$RWPARM.KEYTYPE ~= %G_KEYTYPE_COORD#
     1150     6902    2                THEN
     1151     6903    2                     HDR$->KV$VDOVLP_KEY.TYP = %KV_VDOVLP_TYP_ENTSRD;
     1152     6904    2                LHDR$ = HDR$;
     1153     6905    2                HDR$ = PINCRC(HDR$,SIZEC(KNA_VDOVLP_KEY));
     1154     6906    2                HDR$->KEY = K$RWPARM.KEY$->KEY;
     1155     6907    2                HDR$ = PINCRW(HDR$,(K$RWPARM.KEYSZ+1)/2);
     1156     6908    2                END;
     1157     6909
     1158     6910    1      IF K$RWPARM.MRKTYP ~= 0
     1159     6911    2      THEN DO;
     1160     6912    2           HDR$->VDOVLP_MRK = KNA_VDOVLP_MRK;
     1161     6913    2           HDR$->VDOVLP_MRK.MRKTYP = K$RWPARM.MRKTYP;
     1162     6914    2           IF FUNCTION = %KV_VDO_FNC_MRK
     1163     6915    2           THEN
     1164     6916    2                HDR$->VDOVLP_MRK.RSP = '1'B;
PL6.E3A0      #006=KNA$BUILD_VDO File=KNA$SUBS.:E05TSI                           WED 07/30/97 01:01 Page:163
     1165     6917    2           IF K$RWPARM.MRKTYP = %KV_VDOMRKTYP_LSTRCRID
     1166     6918    3           THEN DO;
     1167     6919    3                HDR$->VDOVLP_MRK.BMRK.BLK# = K$RWPARM.BLKREC.BLKU#;
     1168     6920    3                HDR$->VDOVLP_MRK.BMRK.REC# = K$RWPARM.BLKREC.RECU#;
     1169     6921    3                HDR$->VDOVLP_MRK.BYTSIZ = LENGTHC(K$RWPARM.BLKREC);
     1170     6922    3                END;
     1171     6923    3           ELSE DO;
     1172     6924    3                HDR$->VDOVLP_MRK.ID = K$RWPARM.MARKER;
     1173     6925    3                HDR$->VDOVLP_MRK.BYTSIZ = SIZEC(HDR$->VDOVLP_MRK.ID);
     1174     6926    3                END;
     1175     6927    2           LHDR$ = HDR$;
     1176     6928    2           HDR$ = PINCRC(HDR$,SIZEC(KNA_VDOVLP_MRK));
     1177     6929    2           END;
     1178     6930
     1179     6931    1      IF (FUNCTION = %KV_VDO_FNC_DAT OR FUNCTION = %KV_VDO_FNC_DAT_IMD
     1180     6932    1        OR FUNCTION = %KV_VDO_FNC_STT)
     1181     6933    1        AND NOT K$RWPARM.DVE.DVBYTE.BP AND NOT K$RWPARM.DVE.DVBYTE.TRANS
     1182     6934    1        AND K$RWPARM.MSGC$ ~= ADDR(NIL)
     1183     6935    1        AND K$RWPARM.MSGSZ > 2
     1184     6936    2      THEN DO;
     1185     6937    2           TEMP1U = K$RWPARM.MSGSZ - 1 ;
     1186     6938    2           TEMP3U = TEMP1U / 2 ;
     1187     6939    2           TEMP2S = 0 ;
     1188     6940    2           OP$ = PINCRC(K$RWPARM.MSGC$,TEMP1U);
     1189     6941    2           IF OP$1.HIBIT = '1'B
     1190     6942    3           THEN DO;
     1191     6943    3                OP$1.HIBIT = '0'B ;
     1192     6944    3                IF OPP$->UBNBSD ~= 8224 /* 32*256 + 32 */ THEN
     1193     6945    3                     GOTO LOUT ;
     1194     6946    3                GOTO LLUUP1 ;
     1195     6947    3                END ;
     1196     6948    2           IF OPP$->UBNBSD1.HLF1 ~= 32
     1197     6949    2           THEN GOTO LOUT;
     1198     6950    3           ELSE DO;
     1199     6951    3                MSGSZ = MSGSZ - 1;
     1200     6952    3                K$RWPARM.MSGSZ = TEMP1S ;
     1201     6953    3                IF TEMP1S < 3
PL6.E3A0      #006=KNA$BUILD_VDO File=KNA$SUBS.:E05TSI                           WED 07/30/97 01:01 Page:164
     1202     6954    3                THEN GOTO LOUT;
     1203     6955    3                END ;
     1204     6956    2   LLUUP:
     1205     6957    2           OPP$=PINCRW(OPP$,-1);
     1206     6958    2           IF OPP$->UBNBSD ~= 8224         /* 32*256 + 32                        */
     1207     6959    2           THEN GOTO LOUT1;
     1208     6960    2   LLUUP1:
     1209     6961    2           TEMP2S = TEMP2S + 1 ;
     1210     6962    2           IF TEMP2S < TEMP3S
     1211     6963    2           THEN GOTO LLUUP;
     1212     6964
     1213     6965    2   LOUT1:
     1214     6966    2           MSGSZ = MSGSZ - TEMP2S - TEMP2S ;
     1215     6967    2           K$RWPARM.MSGSZ = K$RWPARM.MSGSZ - TEMP2S - TEMP2S ;
     1216     6968
     1217     6969    2           END;
     1218     6970
     1219     6971    1   LOUT:
     1220     6972    1      IF MSGSZ > 0
     1221     6973    2      THEN DO;
     1222     6974    2           LHDR$ = HDR$;
     1223     6975    2           IF MSGSZ > 255
     1224     6976    3           THEN DO;
     1225     6977    3                HDR$->KV$VDOVLP_DAT2 = KNA_VDOVLP_DAT2;
     1226     6978    3                HDR$->KV$VDOVLP_DAT2.BYTSIZ = MSGSZ;
     1227     6979    3                HDR$ = PINCRC (HDR$,SIZEC(KNA_VDOVLP_DAT2));
     1228     6980    3                END;
     1229     6981    3           ELSE DO;
     1230     6982    3                HDR$->KV$VDOVLP_DAT1 = KNA_VDOVLP_DAT1;
     1231     6983    3                HDR$->KV$VDOVLP_DAT1.BYTSIZ = MSGSZ;
     1232     6984    3                HDR$ = PINCRC (HDR$,SIZEC(KNA_VDOVLP_DAT1));
     1233     6985    3                END;
     1234     6986    2           END;
     1235     6987    1      IF LHDR$ ~= ADDR(HDR)                /* vlps                               */
     1236     6988    2      THEN DO;
     1237     6989    2           ADDR(HDR)->KV$VDO.VLP = '1'B;
     1238     6990    2           LHDR$->KV$VDOVLP.LST = '1'B;
PL6.E3A0      #006=KNA$BUILD_VDO File=KNA$SUBS.:E05TSI                           WED 07/30/97 01:01 Page:165
     1239     6991    2           END;
     1240     6992
     1241     6993    1      TEMP1U = 0 ;
     1242     6994    1      IF FUNCTION = %KV_VDO_FNC_PRM_SET    /* TL exists                          */
     1243     6995    2      THEN DO;
     1244     6996    2           HDR$->TL = K$RWPARM.V$->TL;
     1245     6997    2           TEMP1U = K$RWPARM.VSZ ;
     1246     6998    2           END;
     1247     6999
     1248     7000    1      K$RWPARM.UHDR$ = ADDR(HDR);
     1249     7001    1      TEMP2U = POFFW(HDR$,ADDR(HDR)) ;
     1250     7002    1      K$RWPARM.UHDRSZ = TEMP2U + TEMP2U + TEMP1U ;
     1251     7003    1      RETURN;
     1252     7004
     1253     7005    1   END KNA$BUILD_VDO;
     1254     7006        %EOD;

PL6.E3A0      #006=KNA$BUILD_VDO File=KNA$SUBS.:E05TSI                           WED 07/30/97 01:01 Page:166
--  Include file information  --

   KI$CP6V_C.:E05TOU  is referenced.
   K_CP6_M.:E05TOU  is referenced.
   KV_PRMID_E.:E05TOU  is referenced.
   G_LCP6_E.:E05TOU  is referenced.
   GU_LCP6_M.:E05TOU  is referenced.
   K$RWPARM.:E05TOU  is referenced.
   KV$VDO.:E05TOU  is referenced.
      No diagnostics issued in procedure KNA$BUILD_VDO.

   Procedure KNA$BUILD_VDO requires 867 words for executable code.
   Procedure KNA$BUILD_VDO requires 22 words of local(AUTO) storage.

PL6.E3A0      #006=KNA$BUILD_VDO File=KNA$SUBS.:E05TSI                           WED 07/30/97 01:01 Page:167

 Object Unit name= KNA$BUILD_VDO                              File name= KNA$SUBS.:E05TOU
 UTS= JUL 30 '97 01:01:44.80 WED                              Compiler= PL-6/E31         Sev=      00
 SharedLib= :SHARED_LCP6_SYSTEM                               Alt SharedLib=


    ****  Control sections  ****

 Sect   Type Bound  Init  Size HexSiz  Section name
    0   Proc  even  none   867    363  KNA$BUILD_VDO
    1  RoData even  none     2      2  KNA$BUILD_VDO

    ****  Entry defs  ****

                              Check   Calling
                             calling  sequence
  Sect HexLoc Primary Altret sequence   type   Parms  Name
     0      0   yes            yes      Std        3  KNA$BUILD_VDO

  ****  Entry refs  ****

         Check        Calling
        calling       sequence
Altret sequence SRef   type   Args  Name
                       nStd      0 X6A_AUTO_3
                       nStd      0 X6A_ARET

  ****  Data refs  ****

  Flags:  r = read only, s = secondary
Flgs Name                             Flgs Name                             Flgs Name
     KNA_VDOVLP_CG_MSGID                   KNA_VDOVLP_CG_MSGTYP                  KNA_VDOVLP_CG_STA
     KNA_VDOVLP_DAT1                       KNA_VDOVLP_DAT2                       KNA_VDOVLP_ERR
     KNA_VDOVLP_FLDID                      KNA_VDOVLP_KEY                        KNA_VDOVLP_MRK
     KNA_VDOBYTSIZ                    r    G$ROS$
PL6.E3A0      #006=KNA$BUILD_VDO File=KNA$SUBS.:E05TSI                           WED 07/30/97 01:01 Page:168


      894        1        /*T***********************************************************/
      895        2        /*T*                                                         */
      896        3        /*T* Copyright (c) Bull HN Information Systems Inc., 1997    */
      897        4        /*T*                                                         */
      898        5        /*T***********************************************************/
      899        6
      900        7        KNA$BUILD_VDO: PROC(FUNCTION,K$RWPARM,HDR);

      7   0 000000  D380 0000 0000  xent KNA$BUILD_VDO   LNJ,B5   X6A_AUTO_3
          0 000003       0016 0003                       DC       22,3

      901        8
      902        9        %INCLUDE KV$VDO;
      903     1024        %INCLUDE K$RWPARM;
      904     1410        %INCLUDE GU_LCP6_M;
      905     2338        %INCLUDE G_LCP6_E;
      906     2596        %INCLUDE KV_PRMID_E;
      907     2770        %KV_PRMID_E;
      908     2926        %INCLUDE K_CP6_M;
      909     3122        %INCLUDE KI$CP6V_C;
      910     3561
      911     3562        /* Parameters */
      912     3563    1   DCL FUNCTION UBIN;
      913     3564        %K$RWPARM (NAME=K$RWPARM);
      914     3880    1   DCL HDR CHAR(100) WALIGNED;
      915     3881
      916     3882        /* Based structures */
      917     3883        %KV_VDO_ALL;
      918     6026        %KV$VDOVLP_MRK (NAME=VDOVLP_MRK,STCLASS=BASED,LAST=",");
      919     6079    1         2 BMRK REDEF ID,
      920     6080    1           3 BLK# UBIN (16) UNAL,
      921     6081    1           3 REC# UBIN (16) UNAL;
      922     6082    1   DCL 1 VDO BASED,
      923     6083    1         2 * CHAR(VDOSZ);
      924     6084    1   DCL 1 VDO1 BASED(HDR$) WALIGNED ,
      925     6085    1         2 WD1 UBIN ,
PL6.E3A0      #006=KNA$BUILD_VDO File=KNA$SUBS.:E05TSI                           WED 07/30/97 01:01 Page:169
      926     6086    1         2 WD2 UBIN ,
      927     6087    1         2 WD3 UBIN ,
      928     6088    1         2 WD4 UBIN ,
      929     6089    1         2 WD5 UBIN ,
      930     6090    1         2 WD6 UBIN ;
      931     6091
      932     6092    1   DCL FLDID UBIN BASED;
      933     6093    1   DCL KEY CHAR(K$RWPARM.KEYSZ) BASED;
      934     6094        %FPT$DCLFLD_V(BASED="BASED(K$RWPARM.V$)");
      935     6114    1   DCL TL CHAR(K$RWPARM.VSZ) BASED(K$RWPARM.V$);
      936     6115        %FPT$ERASE_V(BASED="BASED(K$RWPARM.V$)");
      937     6131        %FPT$MDFFLD_V(BASED="BASED(K$RWPARM.V$)");
      938     6147        %VLP$FLDATR_V (FPTN=VLP$FLDATR,BASED="BASED(K$RWPARM.IP$)");
      939     6164        %FPT$TRMPRG_V (BASED="BASED(K$RWPARM.V$)");
      940     6176        /* Auto */
      941     6177    1   DCL HDR$ PTR;
      942     6178    1   DCL LHDR$ PTR;
      943     6179    1   DCL MSGSZ UBIN;
      944     6180    1   DCL VDOSZ UBIN;
      945     6181    1   DCL TEMP2U REDEF VDOSZ UBIN ;
      946     6182    1   DCL TEMP2S REDEF VDOSZ SBIN ;
      947     6183    1   DCL OP$ CPTR;
      948     6184    1   DCL 1 OP$1 REDEF OP$ ,
      949     6185    1         2 HIBIT BIT(1) UNAL ,
      950     6186    1         2 WAPTR BIT(31) UNAL ;
      951     6187    1   DCL OPP$ REDEF OP$ PTR;
      952     6188
      953     6189    1   DCL B$CHAR CHAR(1) BASED(OP$) UNAL;
      954     6190    1   DCL UBNBSD UBIN WORD BASED ALIGNED ;
      955     6191    1   DCL 1 UBNBSD1 REDEF UBNBSD ALIGNED ,
      956     6192    1         2 HLF1 UBIN(8) UNAL ,
      957     6193    1         2 HLF2 UBIN(8) UNAL ;
      958     6194
      959     6195    1   DCL TEMP1U UBIN ;
      960     6196    1   DCL TEMP1S REDEF TEMP1U SBIN ;
      961     6197    1   DCL 1 TEMP1STR REDEF TEMP1U ,
      962     6198    1         2 HLF1 UBIN(8) UNAL ,
PL6.E3A0      #006=KNA$BUILD_VDO File=KNA$SUBS.:E05TSI                           WED 07/30/97 01:01 Page:170
      963     6199    1         2 HLF2 UBIN(8) UNAL ;
      964     6200    1   DCL TEMP3U UBIN;
      965     6201    1   DCL TEMP3S REDEF TEMP3U SBIN;
      966     6202
      967     6203        /* Refs */
      968     6204        %KV$VDOVLP_CG_MSGID (NAME=KNA_VDOVLP_CG_MSGID,STCLASS=SYMREF);
      969     6256        %KV$VDOVLP_CG_MSGTYP (NAME=KNA_VDOVLP_CG_MSGTYP,STCLASS=SYMREF);
      970     6308        %KV$VDOVLP_CG_STA (NAME=KNA_VDOVLP_CG_STA,STCLASS=SYMREF);
      971     6359        %KV$VDOVLP_DAT1 (NAME=KNA_VDOVLP_DAT1,STCLASS=SYMREF);
      972     6409        %KV$VDOVLP_DAT2 (NAME=KNA_VDOVLP_DAT2,STCLASS=SYMREF);
      973     6459        %KV$VDOVLP_ERR (NAME=KNA_VDOVLP_ERR,STCLASS=SYMREF);
      974     6556        %KV$VDOVLP_FLDID (NAME=KNA_VDOVLP_FLDID,STCLASS=SYMREF);
      975     6607        %KV$VDOVLP_KEY (NAME=KNA_VDOVLP_KEY,STCLASS=SYMREF);
      976     6657        %KV$VDOVLP_MRK (NAME=KNA_VDOVLP_MRK,STCLASS=SYMREF);
      977     6710        %KV_VDOBYTSIZ (NAME=KNA_VDOBYTSIZ,STCLASS=SYMREF);
      978     6730
      979     6731
      980     6732        %EJECT;
PL6.E3A0      #006=KNA$BUILD_VDO File=KNA$SUBS.:E05TSI                           WED 07/30/97 01:01 Page:171
      981     6733
      982     6734
      983     6735
      984     6736    1      HDR$ = ADDR(HDR);

   6736   0 000005  ECC7 0008                            LDB,B6   @HDR,AUTO
          0 000007  EFC7 000A                            STB,B6   HDR$,AUTO

      985     6737    1      IF FUNCTION > %KV_VDO_FNC_HI

   6737   0 000009  DCC7 0004                            LDB,B5   @FUNCTION,AUTO
          0 00000B  E805                                 LDR,R6   ,B5
          0 00000C  6D22                                 CMV,R6   34
          0 00000D  0381 0004                            BLE      s:6741,PREL

      986     6738    2      THEN DO;

      987     6739    2           RETURN;

   6739   0 00000F  C380 0000 0000  xent                 LNJ,B4   X6A_ARET

      988     6740    2           END;
      989     6741    1      VDOSZ = KNA_VDOBYTSIZ(FUNCTION);

   6741   0 000012  B856                                 LDR,R3   R6
          0 000013  D2B0 0000 0000  xsym                 LLH,R5   KNA_VDOBYTSIZ,R3
          0 000016  DF47 000F                            STR,R5   VDOSZ,AUTO

      990     6742        /*
      991     6743             HDR$->VDO = '0'B;
      992     6744                                          */
      993     6745    1      VDO1.WD1 = 0 ;

   6745   0 000018  8706                                 CL       ,B6

      994     6746    1      HDR$->KV$VDO.FNC = FUNCTION;

PL6.E3A0      #006=KNA$BUILD_VDO File=KNA$SUBS.:E05TSI                           WED 07/30/97 01:01 Page:172
   6746   0 000019  C805                                 LDR,R4   ,B5
          0 00001A  C786                                 STH,R4   ,B6

      995     6747    1      MSGSZ = K$RWPARM.MSGSZ;

   6747   0 00001B  CCC7 0006                            LDB,B4   @K$RWPARM,AUTO
          0 00001D  C844 0002                            LDR,R4   2,B4
          0 00001F  CF47 000E                            STR,R4   MSGSZ,AUTO

      996     6748    1      HDR$->KV$VDO.STR = K$RWPARM.STR;

   6748   0 000021  A844 001D                            LDR,R2   29,B4
          0 000023  AA86                                 SRM,R2,'007F'X    ,B6
          0 000024       007F

      997     6749
      998     6750    2      DO CASE (FUNCTION);

   6750   0 000025  A805                                 LDR,R2   ,B5
          0 000026  2D23                                 CMV,R2   35
          0 000027  0281 014E                            BGE      s:6850,PREL
          0 000029  9820 0000 002F  00                   LDR,R1   s:6750+10,R2
          0 00002C  8390 0000 0052  00                   JMP      s:6753,R1
          0 00002F       0124                            DC       s:6850,PREL
          0 000030       0124                            DC       s:6850,PREL
          0 000031       0000                            DC       s:6753,PREL
          0 000032       0124                            DC       s:6850,PREL
          0 000033       0124                            DC       s:6850,PREL
          0 000034       005F                            DC       s:6779,PREL
          0 000035       005F                            DC       s:6779,PREL
          0 000036       0025                            DC       s:6764,PREL
          0 000037       0097                            DC       s:6798,PREL
          0 000038       008B                            DC       s:6794,PREL
          0 000039       0124                            DC       s:6850,PREL
          0 00003A       0124                            DC       s:6850,PREL
          0 00003B       009F                            DC       s:6802,PREL
          0 00003C       0124                            DC       s:6850,PREL
PL6.E3A0      #006=KNA$BUILD_VDO File=KNA$SUBS.:E05TSI                           WED 07/30/97 01:01 Page:173
          0 00003D       0124                            DC       s:6850,PREL
          0 00003E       0124                            DC       s:6850,PREL
          0 00003F       0124                            DC       s:6850,PREL
          0 000040       0124                            DC       s:6850,PREL
          0 000041       0124                            DC       s:6850,PREL
          0 000042       00BB                            DC       s:6813,PREL
          0 000043       0124                            DC       s:6850,PREL
          0 000044       0124                            DC       s:6850,PREL
          0 000045       00C1                            DC       s:6816,PREL
          0 000046       00F2                            DC       s:6830,PREL
          0 000047       0124                            DC       s:6850,PREL
          0 000048       0124                            DC       s:6850,PREL
          0 000049       00FE                            DC       s:6835,PREL
          0 00004A       0118                            DC       s:6846,PREL
          0 00004B       0124                            DC       s:6850,PREL
          0 00004C       0124                            DC       s:6850,PREL
          0 00004D       0124                            DC       s:6850,PREL
          0 00004E       0124                            DC       s:6850,PREL
          0 00004F       0124                            DC       s:6850,PREL
          0 000050       00B1                            DC       s:6807,PREL
          0 000051       0015                            DC       s:6758,PREL

      999     6751
     1000     6752    2       CASE (%KV_VDO_FNC_BLKDAT);

     1001     6753    2         HDR$->KV$VDO_BLKDAT.RCRBYTSIZ = K$RWPARM.MAXRCRBYTSIZ/256*512 + MOD(K$RWPARM.
              6753                  MAXRCRBYTSIZ,256);

   6753   0 000052  E844 0020                            LDR,R6   32,B4
          0 000054  6048                                 SOR,R6   8
          0 000055  B844 0020                            LDR,R3   32,B4
          0 000057  B570 00FF                            AND,R3   255,IMO
          0 000059  6009                                 SOL,R6   9
          0 00005A  EA53                                 ADD,R6   R3
          0 00005B  EF46 0001                            STR,R6   1,B6

     1002     6754    2         VDO1.WD3 = 0 ;
PL6.E3A0      #006=KNA$BUILD_VDO File=KNA$SUBS.:E05TSI                           WED 07/30/97 01:01 Page:174

   6754   0 00005D  8746 0002                            CL       2,B6

     1003     6755    2         HDR$->KV$VDO_BLKDAT.RSN = K$RWPARM.RSN;

   6755   0 00005F  B844 0010                            LDR,R3   16,B4
          0 000061  B570 00FF                            AND,R3   255,IMO
          0 000063  B7C6 0002                            STH,R3   2,B6
          0 000065  0F81 0115                            B        s:6855,PREL

     1004     6756
     1005     6757    2       CASE (%KV_VDO_FNC_CLSSTR);

     1006     6758    2         VDO1.WD2 = 0 ;

   6758   0 000067  8746 0001                            CL       1,B6

     1007     6759    2         HDR$->KV$VDO_CLSSTR.DLT = K$RWPARM.VDOFLGS.DLTSTR;

   6759   0 000069  A844 001C                            LDR,R2   28,B4
          0 00006B  2008                                 SOL,R2   8
          0 00006C  AAC6 0001                            SRM,R2,'8000'X    1,B6
          0 00006E       8000

     1008     6760    2         HDR$->KV$VDO_CLSSTR.NEWSSN = K$RWPARM.VDOFLGS.NEWSSN;

   6760   0 00006F  A844 001C                            LDR,R2   28,B4
          0 000071  2008                                 SOL,R2   8
          0 000072  AAC6 0001                            SRM,R2,'4000'X    1,B6
          0 000074       4000
          0 000075  0F81 0105                            B        s:6855,PREL

     1009     6761
     1010     6762
     1011     6763    2       CASE (%KV_VDO_FNC_DCLFLD);

     1012     6764    2         HDR$->KV$VDO_DCLFLD.LIN = FPT$DCLFLD_V.LIN;
PL6.E3A0      #006=KNA$BUILD_VDO File=KNA$SUBS.:E05TSI                           WED 07/30/97 01:01 Page:175

   6764   0 000077  BCC4 0021                            LDB,B3   33,B4
          0 000079  E843 0001                            LDR,R6   1,B3
          0 00007B  EF46 0001                            STR,R6   1,B6

     1013     6765    2         HDR$->KV$VDO_DCLFLD.CLM = FPT$DCLFLD_V.CLM;

   6765   0 00007D  BCC4 0021                            LDB,B3   33,B4
          0 00007F  B843 0002                            LDR,R3   2,B3
          0 000081  BF46 0002                            STR,R3   2,B6

     1014     6766    2         HDR$->KV$VDO_DCLFLD.WDT = FPT$DCLFLD_V.WDT;

   6766   0 000083  BCC4 0021                            LDB,B3   33,B4
          0 000085  A2C3 0004                            LLH,R2   4,B3
          0 000087  AF46 0003                            STR,R2   3,B6

     1015     6767    2         HDR$->KV$VDO_DCLFLD.ID = FPT$DCLFLD_V.ID;

   6767   0 000089  BCC4 0021                            LDB,B3   33,B4
          0 00008B  9843 0003                            LDR,R1   3,B3
          0 00008D  9F46 0005                            STR,R1   5,B6

     1016     6768    2         IF VLP$FLDATR.ABSGRPRND ~= 0

   6768   0 00008F  BCC4 0013                            LDB,B3   19,B4
          0 000091  E2C3 0002                            LLH,R6   2,B3
          0 000093  6901 000D                            BEZ,R6   s:6775,PREL

     1017     6769    3         THEN DO;

     1018     6770    3              HDR$->KV$VDO_DCLFLD.GRPRND =

   6770   0 000095  E2C3 0002                            LLH,R6   2,B3
          0 000097  6008                                 SOL,R6   8
          0 000098  6048                                 SOR,R6   8
          0 000099  EAC6 0004                            SRM,R6,'00FF'X    4,B6
PL6.E3A0      #006=KNA$BUILD_VDO File=KNA$SUBS.:E05TSI                           WED 07/30/97 01:01 Page:176
          0 00009B       00FF

     1019     6771    3                BINBIT(VLP$FLDATR.ABSGRPRND,SIZEB(KV$VDO_DCLFLD.GRPRND));
     1020     6772    3              HDR$->KV$VDO_DCLFLD.GRPRND.ABS = '1'B;

   6772   0 00009C  8946 0004                            LBT,'0080'X       4,B6
   6772   0 00009E       0080

     1021     6773    3              END;

   6773   0 00009F  0F81 0007                            B        s:6776,PREL

     1022     6774    2         ELSE
     1023     6775    2              HDR$->KV$VDO_DCLFLD.GRPRND = VLP$FLDATR.GRPRND;

   6775   0 0000A1  E283                                 LLH,R6   ,B3
          0 0000A2  6008                                 SOL,R6   8
          0 0000A3  6048                                 SOR,R6   8
          0 0000A4  EAC6 0004                            SRM,R6,'00FF'X    4,B6
          0 0000A6       00FF

     1024     6776    2         HDR$->KV$VDO_DCLFLD.QLF = VLP$FLDATR.QLF;

   6776   0 0000A7  BCC4 0013                            LDB,B3   19,B4
          0 0000A9  E2C3 0001                            LLH,R6   1,B3
          0 0000AB  6008                                 SOL,R6   8
          0 0000AC  6048                                 SOR,R6   8
          0 0000AD  E7C6 0004                            STH,R6   4,B6
          0 0000AF  0F81 00CB                            B        s:6855,PREL

     1025     6777
     1026     6778    2       CASE (%KV_VDO_FNC_DAT,%KV_VDO_FNC_DAT_IMD);

     1027     6779    2         VDO1.WD2 = 0 ;

   6779   0 0000B1  8746 0001                            CL       1,B6

PL6.E3A0      #006=KNA$BUILD_VDO File=KNA$SUBS.:E05TSI                           WED 07/30/97 01:01 Page:177
     1028     6780    2         IF K$RWPARM.DVE.DVBYTE.VFC

   6780   0 0000B3  82C4 000F                            LB,'4000'X        15,B4
   6780   0 0000B5       4000
          0 0000B6  0581 000B                            BBF      s:6785,PREL

     1029     6781    3         THEN DO;

     1030     6782    3              HDR$->KV$VDO_DAT.DATCTRCHRTYP = %KV_DATCTRCHRTYP_VFC;

   6782   0 0000B8  A870 0800                            LDR,R2   2048,IMO
          0 0000BA  AAC6 0001                            SRM,R2,'0C00'X    1,B6
          0 0000BC       0C00

     1031     6783    3              HDR$->KV$VDO_DAT.DATCTRCHR = K$RWPARM.DVE.VFC;

   6783   0 0000BD  9844 000F                            LDR,R1   15,B4
          0 0000BF  9AC6 0001                            SRM,R1,'00FF'X    1,B6
          0 0000C1       00FF

     1032     6784    3              END;

     1033     6785    2         IF K$RWPARM.EOM_EOR

   6785   0 0000C2  82C4 0010                            LB,'2000'X        16,B4
   6785   0 0000C4       2000
          0 0000C5  0581 000B                            BBF      s:6790,PREL

     1034     6786    3         THEN DO;

     1035     6787    3              HDR$->KV$VDO_DAT.DATCTRCHRTYP = %KV_DATCTRCHRTYP_ACT;

   6787   0 0000C7  A870 0400                            LDR,R2   1024,IMO
          0 0000C9  AAC6 0001                            SRM,R2,'0C00'X    1,B6
          0 0000CB       0C00

     1036     6788    3              HDR$->KV$VDO_DAT.DATCTRCHR = K$RWPARM.DVE.EOMCHAR;
PL6.E3A0      #006=KNA$BUILD_VDO File=KNA$SUBS.:E05TSI                           WED 07/30/97 01:01 Page:178

   6788   0 0000CC  9844 000F                            LDR,R1   15,B4
          0 0000CE  9AC6 0001                            SRM,R1,'00FF'X    1,B6
          0 0000D0       00FF

     1037     6789    3              END;

     1038     6790    2         IF K$RWPARM.DVE.DVBYTE.TRANS

   6790   0 0000D1  82C4 000F                            LB,'1000'X        15,B4
   6790   0 0000D3       1000
          0 0000D4  0581 00A6                            BBF      s:6855,PREL

     1039     6791    2         THEN HDR$->KV$VDO_DAT.DATMOD = %KV_DATMOD_TRN;

   6791   0 0000D6  A870 0100                            LDR,R2   256,IMO
          0 0000D8  AAC6 0001                            SRM,R2,'0300'X    1,B6
          0 0000DA       0300
          0 0000DB  0F81 009F                            B        s:6855,PREL

     1040     6792
     1041     6793    2       CASE (%KV_VDO_FNC_DLT);

     1042     6794    2         VDO1.WD2 = 0 ;

   6794   0 0000DD  8746 0001                            CL       1,B6

     1043     6795    2         HDR$->KV$VDO_DLT.CTLFLG = FPT$TRMPRG_V.CTLFLG;

   6795   0 0000DF  BCC4 0021                            LDB,B3   33,B4
          0 0000E1  A2C3 0001                            LLH,R2   1,B3
          0 0000E3  2008                                 SOL,R2   8
          0 0000E4  2048                                 SOR,R2   8
          0 0000E5  A7C6 0001                            STH,R2   1,B6
          0 0000E7  0F81 0093                            B        s:6855,PREL

     1044     6796
PL6.E3A0      #006=KNA$BUILD_VDO File=KNA$SUBS.:E05TSI                           WED 07/30/97 01:01 Page:179
     1045     6797    2       CASE (%KV_VDO_FNC_DCLSTR);

     1046     6798    2         VDO1.WD2 = 0 ;

   6798   0 0000E9  8746 0001                            CL       1,B6

     1047     6799    2         HDR$->KV$VDO_DCLSTR.STRID = K$RWPARM.STRID;

   6799   0 0000EB  A2C4 001C                            LLH,R2   28,B4
          0 0000ED  A7C6 0001                            STH,R2   1,B6
          0 0000EF  0F81 008B                            B        s:6855,PREL

     1048     6800
     1049     6801    2       CASE (%KV_VDO_FNC_ERS);

     1050     6802    2         VDO1.WD2 = 0 ;

   6802   0 0000F1  8746 0001                            CL       1,B6

     1051     6803    2         HDR$->KV$VDO_ERS.PRT = FPT$ERASE_V.PRT;

   6803   0 0000F3  BCC4 0021                            LDB,B3   33,B4
          0 0000F5  A843 0002                            LDR,R2   2,B3
          0 0000F7  AAC6 0001                            SRM,R2,'8000'X    1,B6
          0 0000F9       8000

     1052     6804    2         HDR$->KV$VDO_ERS.CNS = FPT$ERASE_V.CNS;

   6804   0 0000FA  BCC4 0021                            LDB,B3   33,B4
          0 0000FC  A843 0002                            LDR,R2   2,B3
          0 0000FE  AAC6 0001                            SRM,R2,'4000'X    1,B6
          0 000100       4000
          0 000101  0F81 0079                            B        s:6855,PREL

     1053     6805
     1054     6806    2       CASE (%KV_VDO_FNC_OPNSTR);

PL6.E3A0      #006=KNA$BUILD_VDO File=KNA$SUBS.:E05TSI                           WED 07/30/97 01:01 Page:180
     1055     6807    2         VDO1.WD2 = 0 ;

   6807   0 000103  8746 0001                            CL       1,B6

     1056     6808    2         VDO1.WD3 = 0 ;

   6808   0 000105  8746 0002                            CL       2,B6

     1057     6809    2         HDR$->KV$VDO_OPNSTR.ORG = K$RWPARM.ORG;

   6809   0 000107  A2C4 001C                            LLH,R2   28,B4
          0 000109  A7C6 0001                            STH,R2   1,B6
          0 00010B  0F81 006F                            B        s:6855,PREL

     1058     6810
     1059     6811
     1060     6812    2       CASE (%KV_VDO_FNC_PRM_SET);

     1061     6813    2         MSGSZ = MSGSZ + K$RWPARM.VSZ;

   6813   0 00010D  CA44 0025                            ADD,R4   37,B4
          0 00010F  CF47 000E                            STR,R4   MSGSZ,AUTO
          0 000111  0F81 0069                            B        s:6855,PREL

     1062     6814
     1063     6815    2       CASE (%KV_VDO_FNC_RQSDAT);

     1064     6816    2         VDO1.WD5 = 0 ;

   6816   0 000113  8746 0004                            CL       4,B6

     1065     6817    2         HDR$->KV$VDO_RQSDAT.EOFNO_DAT = K$RWPARM.DVE.DVBYTE.NODAT;

   6817   0 000115  A844 000F                            LDR,R2   15,B4
          0 000117  AAC6 0004                            SRM,R2,'0400'X    4,B6
          0 000119       0400

PL6.E3A0      #006=KNA$BUILD_VDO File=KNA$SUBS.:E05TSI                           WED 07/30/97 01:01 Page:181
     1066     6818    2         HDR$->KV$VDO_RQSDAT.RE_RED = K$RWPARM.DVE.DVBYTE.REREAD;

   6818   0 00011A  A844 000F                            LDR,R2   15,B4
          0 00011C  2041                                 SOR,R2   1
          0 00011D  AAC6 0004                            SRM,R2,'2000'X    4,B6
          0 00011F       2000

     1067     6819        /*    HDR$->KV$VDO_RQSDAT.BP = K$RWPARM.DVE.DVBYTE.BP; if ORG=SE ever works */
     1068     6820    2         HDR$->KV$VDO_RQSDAT.READMLT = K$RWPARM.READMLT;

   6820   0 000120  A844 0010                            LDR,R2   16,B4
          0 000122  2047                                 SOR,R2   7
          0 000123  AAC6 0004                            SRM,R2,'0080'X    4,B6
          0 000125       0080

     1069     6821    2         IF K$RWPARM.DVE.DVBYTE.TRANS

   6821   0 000126  82C4 000F                            LB,'1000'X        15,B4
   6821   0 000128       1000
          0 000129  0581 0006                            BBF      s:6824,PREL

     1070     6822    2         THEN
     1071     6823    2              HDR$->KV$VDO_RQSDAT.DATMOD = %KV_DATMOD_TRN;

   6823   0 00012B  A870 0800                            LDR,R2   2048,IMO
          0 00012D  AAC6 0004                            SRM,R2,'1800'X    4,B6
          0 00012F       1800

     1072     6824    2         HDR$->KV$VDO_RQSDAT.MAXNMBRCR = K$RWPARM.MAXNMBRCR;

   6824   0 000130  A844 001E                            LDR,R2   30,B4
          0 000132  AF46 0002                            STR,R2   2,B6

     1073     6825    2         HDR$->KV$VDO_RQSDAT.MAXNMBBYT = K$RWPARM.MAXNMBBYT;

   6825   0 000134  9844 001F                            LDR,R1   31,B4
          0 000136  9F46 0003                            STR,R1   3,B6
PL6.E3A0      #006=KNA$BUILD_VDO File=KNA$SUBS.:E05TSI                           WED 07/30/97 01:01 Page:182

     1074     6826    2         HDR$->KV$VDO_RQSDAT.MAXRCRBYTSIZ = K$RWPARM.MAXRCRBYTSIZ;

   6826   0 000138  E844 0020                            LDR,R6   32,B4
          0 00013A  EF46 0001                            STR,R6   1,B6

     1075     6827    2         HDR$->KV$VDO_RQSDAT.WAT = K$RWPARM.VDOFLGS.WAIT;

   6827   0 00013C  B844 001C                            LDR,R3   28,B4
          0 00013E  3005                                 SOL,R3   5
          0 00013F  BAC6 0004                            SRM,R3,'0200'X    4,B6
          0 000141       0200
          0 000142  0F81 0038                            B        s:6855,PREL

     1076     6828
     1077     6829    2       CASE (%KV_VDO_FNC_RQSPRM);

     1078     6830    2         VDO1.WD2 = 0 ;

   6830   0 000144  8746 0001                            CL       1,B6

     1079     6831    2         HDR$->KV$VDO_RQSPRM.PRMID = K$RWPARM.PRMID;

   6831   0 000146  A844 0026                            LDR,R2   38,B4
          0 000148  A7C6 0001                            STH,R2   1,B6

     1080     6832    2         HDR$->KV$VDO_RQSPRM.MAXNMBBYT = K$RWPARM.MAXNMBBYT;

   6832   0 00014A  A844 001F                            LDR,R2   31,B4
          0 00014C  AF46 0002                            STR,R2   2,B6
          0 00014E  0F81 002C                            B        s:6855,PREL

     1081     6833
     1082     6834    2       CASE (%KV_VDO_FNC_SLCGRPRND);

     1083     6835    2         VDO1.WD2 = 0 ;

PL6.E3A0      #006=KNA$BUILD_VDO File=KNA$SUBS.:E05TSI                           WED 07/30/97 01:01 Page:183
   6835   0 000150  8746 0001                            CL       1,B6

     1084     6836    2         IF VLP$FLDATR.ABSGRPRND ~= 0

   6836   0 000152  BCC4 0013                            LDB,B3   19,B4
          0 000154  A2C3 0002                            LLH,R2   2,B3
          0 000156  2901 000C                            BEZ,R2   s:6843,PREL

     1085     6837    3         THEN DO;

     1086     6838    3              HDR$->KV$VDO_SLCGRPRND.GRPRND =

   6838   0 000158  92C3 0002                            LLH,R1   2,B3
          0 00015A  1008                                 SOL,R1   8
          0 00015B  1048                                 SOR,R1   8
          0 00015C  97C6 0001                            STH,R1   1,B6

     1087     6839    3                BINBIT(VLP$FLDATR.ABSGRPRND,SIZEB(KV$VDO_SLCGRPRND.GRPRND));
     1088     6840    3              HDR$->KV$VDO_SLCGRPRND.GRPRND.ABS = '1'B;

   6840   0 00015E  8946 0001                            LBT,'8000'X       1,B6
   6840   0 000160       8000

     1089     6841    3              END;

   6841   0 000161  0F81 0019                            B        s:6855,PREL

     1090     6842    2         ELSE
     1091     6843    2              HDR$->KV$VDO_SLCGRPRND.GRPRND = VLP$FLDATR.GRPRND;

   6843   0 000163  9283                                 LLH,R1   ,B3
          0 000164  1008                                 SOL,R1   8
          0 000165  1048                                 SOR,R1   8
          0 000166  97C6 0001                            STH,R1   1,B6
          0 000168  0F81 0012                            B        s:6855,PREL

     1092     6844
PL6.E3A0      #006=KNA$BUILD_VDO File=KNA$SUBS.:E05TSI                           WED 07/30/97 01:01 Page:184
     1093     6845    2       CASE (%KV_VDO_FNC_SLCQLF);

     1094     6846    2         VDO1.WD2 = 0 ;

   6846   0 00016A  8746 0001                            CL       1,B6

     1095     6847    2         HDR$->KV$VDO_SLCQLF.QLF = VLP$FLDATR.QLF;

   6847   0 00016C  BCC4 0013                            LDB,B3   19,B4
          0 00016E  A2C3 0001                            LLH,R2   1,B3
          0 000170  2008                                 SOL,R2   8
          0 000171  2048                                 SOR,R2   8
          0 000172  A7C6 0001                            STH,R2   1,B6
          0 000174  0F81 0006                            B        s:6855,PREL

     1096     6848
     1097     6849    2       CASE (ELSE) ;

     1098     6850    2         IF VDOSZ > 2 THEN

   6850   0 000176  5D02                                 CMV,R5   2
          0 000177  0381 0003                            BLE      s:6855,PREL

     1099     6851    2              VDO1.WD2 =  0 ;

   6851   0 000179  8746 0001                            CL       1,B6

     1100     6852
     1101     6853
     1102     6854    2         END /* CASES */;

     1103     6855    1      LHDR$ = HDR$;

   6855   0 00017B  EFC7 000C                            STB,B6   LHDR$,AUTO

     1104     6856    1      HDR$ = PINCRW(HDR$,VDOSZ/2);

PL6.E3A0      #006=KNA$BUILD_VDO File=KNA$SUBS.:E05TSI                           WED 07/30/97 01:01 Page:185
   6856   0 00017D  5041                                 SOR,R5   1
          0 00017E  F855                                 LDR,R7   R5
          0 00017F  6C00                                 LDV,R6   0
          0 000180  8447 000A                            AID      HDR$,AUTO
          0 000182  8D47 000A                            SDI      HDR$,AUTO

     1105     6857        /* CG message type */
     1106     6858    1      IF K$RWPARM.MSGTYP ~= ' '

   6858   0 000184  BB80 0000 0000  01                   LAB,B3   0
          0 000187  0022                                 ACM      ;
          0 000188       4804 0007                                ALPHANUM(7,B4,,8,FILL),;
          0 00018A       4103 0000                                ALPHANUM(0,B3,,1,FILL)
          0 00018C  5381 0039                            CBE      s:6873,PREL

     1107     6859    2      THEN DO;

     1108     6860    2           IF K$RWPARM.MSGID ~= 0

   6860   0 00018E  8CC4 0011                            LDI      17,B4
          0 000190  84F0 0000 0000                       SID      0,IMO
          0 000193  6981 0003                            BNEZ,R6  s:6862,PREL
          0 000195  7901 0018                            BEZ,R7   s:6867,PREL

     1109     6861    3           THEN DO;

     1110     6862    3                HDR$->KV$VDOVLP_CG_MSGID = KNA_VDOVLP_CG_MSGID;

   6862   0 000197  AB80 0000 0000  xsym                 LAB,B2   KNA_VDOVLP_CG_MSGID
          0 00019A  2C00                                 LDV,R2   0
          0 00019B  6C0C                                 LDV,R6   12
          0 00019C  BCC7 000A                            LDB,B3   HDR$,AUTO
          0 00019E  3C00                                 LDV,R3   0
          0 00019F  0008                                 MMM

     1111     6863    3                HDR$->KV$VDOVLP_CG_MSGID.CG_MSGIDXT = K$RWPARM.MSGIDXT;

PL6.E3A0      #006=KNA$BUILD_VDO File=KNA$SUBS.:E05TSI                           WED 07/30/97 01:01 Page:186
   6863   0 0001A0  8CC4 0013                            LDI      19,B4
          0 0001A2  BCC7 000A                            LDB,B3   HDR$,AUTO
          0 0001A4  8D43 0004                            SDI      4,B3

     1112     6864    3                HDR$->KV$VDOVLP_CG_MSGID.CG_MSGID=K$RWPARM.MSGID;

   6864   0 0001A6  8CC4 0011                            LDI      17,B4
          0 0001A8  8D43 0002                            SDI      2,B3

     1113     6865    3                HDR$ = PINCRC(HDR$,SIZEC(KNA_VDOVLP_CG_MSGID));

   6865   0 0001AA  ABC3 0006                            LAB,B2   6,B3
          0 0001AC  AFC7 000A                            STB,B2   HDR$,AUTO

     1114     6866    3                END;

     1115     6867    2           HDR$->KV$VDOVLP_CG_MSGTYP = KNA_VDOVLP_CG_MSGTYP;

   6867   0 0001AE  AB80 0000 0000  xsym                 LAB,B2   KNA_VDOVLP_CG_MSGTYP
          0 0001B1  2C00                                 LDV,R2   0
          0 0001B2  6C0C                                 LDV,R6   12
          0 0001B3  BCC7 000A                            LDB,B3   HDR$,AUTO
          0 0001B5  3C00                                 LDV,R3   0
          0 0001B6  0008                                 MMM

     1116     6868    2           HDR$->KV$VDOVLP_CG_MSGTYP.CG_MSGTYP = K$RWPARM.MSGTYP;

   6868   0 0001B7  AB84                                 LAB,B2   ,B4
          0 0001B8  2C0E                                 LDV,R2   14
          0 0001B9  6C08                                 LDV,R6   8
          0 0001BA  BCC7 000A                            LDB,B3   HDR$,AUTO
          0 0001BC  3C04                                 LDV,R3   4
          0 0001BD  0008                                 MMM

     1117     6869    2           LHDR$ = HDR$;

   6869   0 0001BE  BCC7 000A                            LDB,B3   HDR$,AUTO
PL6.E3A0      #006=KNA$BUILD_VDO File=KNA$SUBS.:E05TSI                           WED 07/30/97 01:01 Page:187
          0 0001C0  BFC7 000C                            STB,B3   LHDR$,AUTO

     1118     6870    2           HDR$ = PINCRC(HDR$,SIZEC(KNA_VDOVLP_CG_MSGTYP));

   6870   0 0001C2  9BC3 0006                            LAB,B1   6,B3
          0 0001C4  9FC7 000A                            STB,B1   HDR$,AUTO

     1119     6871    2           END;

     1120     6872
     1121     6873    1      IF K$RWPARM.STATION ~= ' '

   6873   0 0001C6  BB80 0000 0000  01                   LAB,B3   0
          0 0001C9  0022                                 ACM      ;
          0 0001CA       4804 0003                                ALPHANUM(3,B4,,8,FILL),;
          0 0001CC       4103 0000                                ALPHANUM(0,B3,,1,FILL)
          0 0001CE  5381 0019                            CBE      s:6881,PREL

     1122     6874    2      THEN DO;

     1123     6875    2           HDR$->KV$VDOVLP_CG_STA = KNA_VDOVLP_CG_STA;

   6875   0 0001D0  AB80 0000 0000  xsym                 LAB,B2   KNA_VDOVLP_CG_STA
          0 0001D3  2C00                                 LDV,R2   0
          0 0001D4  6C0C                                 LDV,R6   12
          0 0001D5  BCC7 000A                            LDB,B3   HDR$,AUTO
          0 0001D7  3C00                                 LDV,R3   0
          0 0001D8  0008                                 MMM

     1124     6876    2           HDR$->KV$VDOVLP_CG_STA.CG_STA = K$RWPARM.STATION;

   6876   0 0001D9  AB84                                 LAB,B2   ,B4
          0 0001DA  2C06                                 LDV,R2   6
          0 0001DB  6C08                                 LDV,R6   8
          0 0001DC  BCC7 000A                            LDB,B3   HDR$,AUTO
          0 0001DE  3C04                                 LDV,R3   4
          0 0001DF  0008                                 MMM
PL6.E3A0      #006=KNA$BUILD_VDO File=KNA$SUBS.:E05TSI                           WED 07/30/97 01:01 Page:188

     1125     6877    2           LHDR$ = HDR$;

   6877   0 0001E0  BCC7 000A                            LDB,B3   HDR$,AUTO
          0 0001E2  BFC7 000C                            STB,B3   LHDR$,AUTO

     1126     6878    2           HDR$ = PINCRC(HDR$,SIZEC(KNA_VDOVLP_CG_STA));

   6878   0 0001E4  9BC3 0006                            LAB,B1   6,B3
          0 0001E6  9FC7 000A                            STB,B1   HDR$,AUTO

     1127     6879    2           END;

     1128     6880
     1129     6881    1      IF K$RWPARM.MSG_ERRCODE ~= '0'B

   6881   0 0001E8  BB80 0000 0000  01                   LAB,B3   0
          0 0001EB  5C01                                 LDV,R5   1
          0 0001EC  0022                                 ACM      ;
          0 0001ED       4404 001A                                ALPHANUM(26,B4,,4,FILL),;
          0 0001EF       4003 0001                                ALPHANUM(1,B3,,R5,FILL)
          0 0001F1  5381 0016                            CBE      s:6889,PREL

     1130     6882    2      THEN DO;

     1131     6883    2           HDR$->KV$VDOVLP_ERR = KNA_VDOVLP_ERR;

   6883   0 0001F3  AB80 0000 0000  xsym                 LAB,B2   KNA_VDOVLP_ERR
          0 0001F6  2C00                                 LDV,R2   0
          0 0001F7  6C06                                 LDV,R6   6
          0 0001F8  BCC7 000A                            LDB,B3   HDR$,AUTO
          0 0001FA  3C00                                 LDV,R3   0
          0 0001FB  0008                                 MMM

     1132     6884    2           HDR$->KV$VDOVLP_ERR.ERRCODE=K$RWPARM.MSG_ERRCODE;

   6884   0 0001FC  8CC4 001A                            LDI      26,B4
PL6.E3A0      #006=KNA$BUILD_VDO File=KNA$SUBS.:E05TSI                           WED 07/30/97 01:01 Page:189
          0 0001FE  BCC7 000A                            LDB,B3   HDR$,AUTO
          0 000200  8D43 0001                            SDI      1,B3

     1133     6885    2           LHDR$ = HDR$;

   6885   0 000202  BFC7 000C                            STB,B3   LHDR$,AUTO

     1134     6886    2           HDR$ = PINCRC(HDR$,SIZEC(KNA_VDOVLP_ERR));

   6886   0 000204  ABC3 0003                            LAB,B2   3,B3
          0 000206  AFC7 000A                            STB,B2   HDR$,AUTO

     1135     6887    2           END;

     1136     6888
     1137     6889    1      IF K$RWPARM.KEY$ ~= ADDR(NIL)

   6889   0 000208  8DC4 0023                            CMN      35,B4
          0 00020A  0901 004E                            BE       s:6910,PREL

     1138     6890    1      THEN IF K$RWPARM.KEYTYPE = %G_KEYTYPE_FLDID#

   6890   0 00020C  E2C4 0028                            LLH,R6   40,B4
          0 00020E  6D01                                 CMV,R6   1
          0 00020F  0981 0018                            BNE      s:6899,PREL

     1139     6891    2           THEN DO;

     1140     6892    2                HDR$->KV$VDOVLP_FLDID = KNA_VDOVLP_FLDID;

   6892   0 000211  8C80 0000 0000  xsym                 LDI      KNA_VDOVLP_FLDID
          0 000214  BCC7 000A                            LDB,B3   HDR$,AUTO
          0 000216  8D03                                 SDI      ,B3

     1141     6893    2                HDR$->KV$VDOVLP_FLDID.BYTSIZ = K$RWPARM.KEYSZ;

   6893   0 000217  C844 0028                            LDR,R4   40,B4
PL6.E3A0      #006=KNA$BUILD_VDO File=KNA$SUBS.:E05TSI                           WED 07/30/97 01:01 Page:190
          0 000219  CA83                                 SRM,R4,'00FF'X    ,B3
          0 00021A       00FF

     1142     6894    2                HDR$->KV$VDOVLP_FLDID.FLDID = K$RWPARM.KEY$->FLDID;

   6894   0 00021B  ACC4 0023                            LDB,B2   35,B4
          0 00021D  E802                                 LDR,R6   ,B2
          0 00021E  EF43 0001                            STR,R6   1,B3

     1143     6895    2                LHDR$ = HDR$;

   6895   0 000220  BFC7 000C                            STB,B3   LHDR$,AUTO

     1144     6896    2                HDR$ = PINCRC(HDR$,SIZEC(KNA_VDOVLP_FLDID));

   6896   0 000222  ABC3 0002                            LAB,B2   2,B3
          0 000224  AFC7 000A                            STB,B2   HDR$,AUTO

     1145     6897    2                END;

   6897   0 000226  0F81 0032                            B        s:6910,PREL

     1146     6898    2           ELSE DO;

     1147     6899    2                HDR$->KV$VDOVLP_KEY = KNA_VDOVLP_KEY;

   6899   0 000228  BCC7 000A                            LDB,B3   HDR$,AUTO
          0 00022A  C800 0000 0000  xsym                 LDR,R4   KNA_VDOVLP_KEY
          0 00022D  CF03                                 STR,R4   ,B3

     1148     6900    2                HDR$->KV$VDOVLP_KEY.BYTSIZ = K$RWPARM.KEYSZ;

   6900   0 00022E  E844 0028                            LDR,R6   40,B4
          0 000230  EA83                                 SRM,R6,'00FF'X    ,B3
          0 000231       00FF

     1149     6901    2                IF K$RWPARM.KEYTYPE ~= %G_KEYTYPE_COORD#
PL6.E3A0      #006=KNA$BUILD_VDO File=KNA$SUBS.:E05TSI                           WED 07/30/97 01:01 Page:191

   6901   0 000232  E2C4 0028                            LLH,R6   40,B4
          0 000234  6D02                                 CMV,R6   2
          0 000235  0901 0005                            BE       s:6904,PREL

     1150     6902    2                THEN
     1151     6903    2                     HDR$->KV$VDOVLP_KEY.TYP = %KV_VDOVLP_TYP_ENTSRD;

   6903   0 000237  C870 0A00                            LDR,R4   2560,IMO
          0 000239  CA83                                 SRM,R4,'7F00'X    ,B3
          0 00023A       7F00

     1152     6904    2                LHDR$ = HDR$;

   6904   0 00023B  BFC7 000C                            STB,B3   LHDR$,AUTO

     1153     6905    2                HDR$ = PINCRC(HDR$,SIZEC(KNA_VDOVLP_KEY));

   6905   0 00023D  ABC3 0001                            LAB,B2   1,B3
          0 00023F  AFC7 000A                            STB,B2   HDR$,AUTO

     1154     6906    2                HDR$->KEY = K$RWPARM.KEY$->KEY;

   6906   0 000241  E844 0028                            LDR,R6   40,B4
          0 000243  E570 00FF                            AND,R6   255,IMO
          0 000245  9CC4 0023                            LDB,B1   35,B4
          0 000247  AB81                                 LAB,B2   ,B1
          0 000248  2C00                                 LDV,R2   0
          0 000249  BCC7 000A                            LDB,B3   HDR$,AUTO
          0 00024B  3C00                                 LDV,R3   0
          0 00024C  0008                                 MMM

     1155     6907    2                HDR$ = PINCRW(HDR$,(K$RWPARM.KEYSZ+1)/2);

   6907   0 00024D  E844 0028                            LDR,R6   40,B4
          0 00024F  E570 00FF                            AND,R6   255,IMO
          0 000251  6E01                                 ADV,R6   1
PL6.E3A0      #006=KNA$BUILD_VDO File=KNA$SUBS.:E05TSI                           WED 07/30/97 01:01 Page:192
          0 000252  6041                                 SOR,R6   1
          0 000253  F856                                 LDR,R7   R6
          0 000254  6C00                                 LDV,R6   0
          0 000255  8447 000A                            AID      HDR$,AUTO
          0 000257  8D47 000A                            SDI      HDR$,AUTO

     1156     6908    2                END;

     1157     6909
     1158     6910    1      IF K$RWPARM.MRKTYP ~= 0

   6910   0 000259  E2C4 001D                            LLH,R6   29,B4
          0 00025B  6901 0037                            BEZ,R6   s:6931,PREL

     1159     6911    2      THEN DO;

     1160     6912    2           HDR$->VDOVLP_MRK = KNA_VDOVLP_MRK;

   6912   0 00025D  AB80 0000 0000  xsym                 LAB,B2   KNA_VDOVLP_MRK
          0 000260  2C00                                 LDV,R2   0
          0 000261  6C08                                 LDV,R6   8
          0 000262  BCC7 000A                            LDB,B3   HDR$,AUTO
          0 000264  3C00                                 LDV,R3   0
          0 000265  0008                                 MMM

     1161     6913    2           HDR$->VDOVLP_MRK.MRKTYP = K$RWPARM.MRKTYP;

   6913   0 000266  E2C4 001D                            LLH,R6   29,B4
          0 000268  BCC7 000A                            LDB,B3   HDR$,AUTO
          0 00026A  EAC3 0001                            SRM,R6,'00FF'X    1,B3
          0 00026C       00FF

     1162     6914    2           IF FUNCTION = %KV_VDO_FNC_MRK

   6914   0 00026D  E805                                 LDR,R6   ,B5
          0 00026E  6D1F                                 CMV,R6   31
          0 00026F  0981 0004                            BNE      s:6917,PREL
PL6.E3A0      #006=KNA$BUILD_VDO File=KNA$SUBS.:E05TSI                           WED 07/30/97 01:01 Page:193

     1163     6915    2           THEN
     1164     6916    2                HDR$->VDOVLP_MRK.RSP = '1'B;

   6916   0 000271  8943 0001                            LBT,'8000'X       1,B3
   6916   0 000273       8000

     1165     6917    2           IF K$RWPARM.MRKTYP = %KV_VDOMRKTYP_LSTRCRID

   6917   0 000274  E2C4 001D                            LLH,R6   29,B4
          0 000276  6D02                                 CMV,R6   2
          0 000277  0981 000E                            BNE      s:6924,PREL

     1166     6918    3           THEN DO;

     1167     6919    3                HDR$->VDOVLP_MRK.BMRK.BLK# = K$RWPARM.BLKREC.BLKU#;

   6919   0 000279  C844 000D                            LDR,R4   13,B4
          0 00027B  CF43 0002                            STR,R4   2,B3

     1168     6920    3                HDR$->VDOVLP_MRK.BMRK.REC# = K$RWPARM.BLKREC.RECU#;

   6920   0 00027D  E844 000E                            LDR,R6   14,B4
          0 00027F  EF43 0003                            STR,R6   3,B3

     1169     6921    3                HDR$->VDOVLP_MRK.BYTSIZ = LENGTHC(K$RWPARM.BLKREC);

   6921   0 000281  3C04                                 LDV,R3   4
          0 000282  BA83                                 SRM,R3,'00FF'X    ,B3
          0 000283       00FF

     1170     6922    3                END;

   6922   0 000284  0F81 0008                            B        s:6927,PREL

     1171     6923    3           ELSE DO;

PL6.E3A0      #006=KNA$BUILD_VDO File=KNA$SUBS.:E05TSI                           WED 07/30/97 01:01 Page:194
     1172     6924    3                HDR$->VDOVLP_MRK.ID = K$RWPARM.MARKER;

   6924   0 000286  8CC4 000D                            LDI      13,B4
          0 000288  8D43 0002                            SDI      2,B3

     1173     6925    3                HDR$->VDOVLP_MRK.BYTSIZ = SIZEC(HDR$->VDOVLP_MRK.ID);

   6925   0 00028A  4C04                                 LDV,R4   4
          0 00028B  CA83                                 SRM,R4,'00FF'X    ,B3
          0 00028C       00FF

     1174     6926    3                END;

     1175     6927    2           LHDR$ = HDR$;

   6927   0 00028D  BFC7 000C                            STB,B3   LHDR$,AUTO

     1176     6928    2           HDR$ = PINCRC(HDR$,SIZEC(KNA_VDOVLP_MRK));

   6928   0 00028F  ABC3 0004                            LAB,B2   4,B3
          0 000291  AFC7 000A                            STB,B2   HDR$,AUTO

     1177     6929    2           END;

     1178     6930
     1179     6931    1      IF (FUNCTION = %KV_VDO_FNC_DAT OR FUNCTION = %KV_VDO_FNC_DAT_IMD

   6931   0 000293  E805                                 LDR,R6   ,B5
          0 000294  6D05                                 CMV,R6   5
          0 000295  0901 0007                            BE       s:6931+10,PREL
          0 000297  6D06                                 CMV,R6   6
          0 000298  0901 0004                            BE       s:6931+10,PREL
          0 00029A  6D1D                                 CMV,R6   29
          0 00029B  0981 0069                            BNE      s:6969,PREL
          0 00029D  89C4 000F                            CMZ      15,B4
          0 00029F  0801 0065                            BAL      s:6969,PREL
          0 0002A1  82C4 000F                            LB,'1000'X        15,B4
PL6.E3A0      #006=KNA$BUILD_VDO File=KNA$SUBS.:E05TSI                           WED 07/30/97 01:01 Page:195
          0 0002A3       1000
          0 0002A4  0501 0060                            BBT      s:6969,PREL
          0 0002A6  8D84                                 CMN      ,B4
          0 0002A7  0901 005D                            BE       s:6969,PREL
          0 0002A9  C844 0002                            LDR,R4   2,B4
          0 0002AB  4D02                                 CMV,R4   2
          0 0002AC  0A81 0058                            BALE     s:6969,PREL

     1180     6932    1        OR FUNCTION = %KV_VDO_FNC_STT)
     1181     6933    1        AND NOT K$RWPARM.DVE.DVBYTE.BP AND NOT K$RWPARM.DVE.DVBYTE.TRANS
     1182     6934    1        AND K$RWPARM.MSGC$ ~= ADDR(NIL)
     1183     6935    1        AND K$RWPARM.MSGSZ > 2
     1184     6936    2      THEN DO;

     1185     6937    2           TEMP1U = K$RWPARM.MSGSZ - 1 ;

   6937   0 0002AE  4EFF                                 ADV,R4   -1
          0 0002AF  CF47 0012                            STR,R4   TEMP1U,AUTO

     1186     6938    2           TEMP3U = TEMP1U / 2 ;

   6938   0 0002B1  4041                                 SOR,R4   1
          0 0002B2  CF47 0013                            STR,R4   TEMP3U,AUTO

     1187     6939    2           TEMP2S = 0 ;

   6939   0 0002B4  8747 000F                            CL       VDOSZ,AUTO

     1188     6940    2           OP$ = PINCRC(K$RWPARM.MSGC$,TEMP1U);

   6940   0 0002B6  8C84                                 LDI      ,B4
          0 0002B7  7031                                 DCL,R7   1
          0 0002B8  8D47 0014                            SDI      TEMP3U+1,AUTO
          0 0002BA  F847 0012                            LDR,R7   TEMP1U,AUTO
          0 0002BC  6C00                                 LDV,R6   0
          0 0002BD  8447 0014                            AID      TEMP3U+1,AUTO
          0 0002BF  7071                                 DCR,R7   1
PL6.E3A0      #006=KNA$BUILD_VDO File=KNA$SUBS.:E05TSI                           WED 07/30/97 01:01 Page:196
          0 0002C0  8D47 0010                            SDI      OP$,AUTO

     1189     6941    2           IF OP$1.HIBIT = '1'B

   6941   0 0002C2  89C7 0010                            CMZ      OP$,AUTO
          0 0002C4  0881 000D                            BAGE     s:6948,PREL

     1190     6942    3           THEN DO;

     1191     6943    3                OP$1.HIBIT = '0'B ;

   6943   0 0002C6  8847 0010                            LBF,'8000'X       OP$,AUTO
   6943   0 0002C8       8000

     1192     6944    3                IF OPP$->UBNBSD ~= 8224 /* 32*256 + 32 */ THEN

   6944   0 0002C9  BCC7 0010                            LDB,B3   OP$,AUTO
          0 0002CB  E803                                 LDR,R6   ,B3
          0 0002CC  E970 2020                            CMR,R6   8224,IMO
          0 0002CE  0981 0036                            BNE      s:6969,PREL

     1193     6945    3                     GOTO LOUT ;
     1194     6946    3                GOTO LLUUP1 ;

   6946   0 0002D0  0F81 001B                            B        s:6961,PREL

     1195     6947    3                END ;
     1196     6948    2           IF OPP$->UBNBSD1.HLF1 ~= 32

   6948   0 0002D2  BCC7 0010                            LDB,B3   OP$,AUTO
          0 0002D4  B283                                 LLH,R3   ,B3
          0 0002D5  3D20                                 CMV,R3   32
          0 0002D6  0981 002E                            BNE      s:6969,PREL

     1197     6949    2           THEN GOTO LOUT;
     1198     6950    3           ELSE DO;

PL6.E3A0      #006=KNA$BUILD_VDO File=KNA$SUBS.:E05TSI                           WED 07/30/97 01:01 Page:197
     1199     6951    3                MSGSZ = MSGSZ - 1;

   6951   0 0002D8  88C7 000E                            DEC      MSGSZ,AUTO

     1200     6952    3                K$RWPARM.MSGSZ = TEMP1S ;

   6952   0 0002DA  A847 0012                            LDR,R2   TEMP1U,AUTO
          0 0002DC  AF44 0002                            STR,R2   2,B4

     1201     6953    3                IF TEMP1S < 3

   6953   0 0002DE  2D03                                 CMV,R2   3
          0 0002DF  0801 0025                            BAL      s:6969,PREL

     1202     6954    3                THEN GOTO LOUT;
     1203     6955    3                END ;

     1204     6956    2   LLUUP:
     1205     6957    2           OPP$=PINCRW(OPP$,-1);

   6957   0 0002E1  ECC7 0010            LLUUP           LDB,B6   OP$,AUTO
          0 0002E3  DBC6 FFFF                            LAB,B5   -1,B6
          0 0002E5  DFC7 0010                            STB,B5   OP$,AUTO

     1206     6958    2           IF OPP$->UBNBSD ~= 8224         /* 32*256 + 32                        */

   6958   0 0002E7  E805                                 LDR,R6   ,B5
          0 0002E8  E970 2020                            CMR,R6   8224,IMO
          0 0002EA  0981 0008                            BNE      s:6966,PREL

     1207     6959    2           THEN GOTO LOUT1;
     1208     6960    2   LLUUP1:
     1209     6961    2           TEMP2S = TEMP2S + 1 ;

   6961   0 0002EC  8AC7 000F            LLUUP1          INC      VDOSZ,AUTO

     1210     6962    2           IF TEMP2S < TEMP3S
PL6.E3A0      #006=KNA$BUILD_VDO File=KNA$SUBS.:E05TSI                           WED 07/30/97 01:01 Page:198

   6962   0 0002EE  E847 000F                            LDR,R6   VDOSZ,AUTO
          0 0002F0  E947 0013                            CMR,R6   TEMP3U,AUTO
          0 0002F2  086F                                 BAL      s:6955,SPREL

     1211     6963    2           THEN GOTO LLUUP;
     1212     6964
     1213     6965    2   LOUT1:
     1214     6966    2           MSGSZ = MSGSZ - TEMP2S - TEMP2S ;

   6966   0 0002F3  E847 000E            LOUT1           LDR,R6   MSGSZ,AUTO
          0 0002F5  E247 000F                            SUB,R6   VDOSZ,AUTO
          0 0002F7  E247 000F                            SUB,R6   VDOSZ,AUTO
          0 0002F9  EF47 000E                            STR,R6   MSGSZ,AUTO

     1215     6967    2           K$RWPARM.MSGSZ = K$RWPARM.MSGSZ - TEMP2S - TEMP2S ;

   6967   0 0002FB  ECC7 0006                            LDB,B6   @K$RWPARM,AUTO
          0 0002FD  D846 0002                            LDR,R5   2,B6
          0 0002FF  D247 000F                            SUB,R5   VDOSZ,AUTO
          0 000301  D247 000F                            SUB,R5   VDOSZ,AUTO
          0 000303  DF46 0002                            STR,R5   2,B6

     1216     6968
     1217     6969    2           END;

     1218     6970
     1219     6971    1   LOUT:
     1220     6972    1      IF MSGSZ > 0

   6972   0 000305  E847 000E            LOUT            LDR,R6   MSGSZ,AUTO
          0 000307  6901 0021                            BEZ,R6   s:6987,PREL

     1221     6973    2      THEN DO;

     1222     6974    2           LHDR$ = HDR$;

PL6.E3A0      #006=KNA$BUILD_VDO File=KNA$SUBS.:E05TSI                           WED 07/30/97 01:01 Page:199
   6974   0 000309  ECC7 000A                            LDB,B6   HDR$,AUTO
          0 00030B  EFC7 000C                            STB,B6   LHDR$,AUTO

     1223     6975    2           IF MSGSZ > 255

   6975   0 00030D  E970 00FF                            CMR,R6   255,IMO
          0 00030F  0381 000F                            BLE      s:6982,PREL

     1224     6976    3           THEN DO;

     1225     6977    3                HDR$->KV$VDOVLP_DAT2 = KNA_VDOVLP_DAT2;

   6977   0 000311  8C80 0000 0000  xsym                 LDI      KNA_VDOVLP_DAT2
          0 000314  8D06                                 SDI      ,B6

     1226     6978    3                HDR$->KV$VDOVLP_DAT2.BYTSIZ = MSGSZ;

   6978   0 000315  D847 000E                            LDR,R5   MSGSZ,AUTO
          0 000317  DF46 0001                            STR,R5   1,B6

     1227     6979    3                HDR$ = PINCRC (HDR$,SIZEC(KNA_VDOVLP_DAT2));

   6979   0 000319  DBC6 0002                            LAB,B5   2,B6
          0 00031B  DFC7 000A                            STB,B5   HDR$,AUTO

     1228     6980    3                END;

   6980   0 00031D  0F81 000B                            B        s:6987,PREL

     1229     6981    3           ELSE DO;

     1230     6982    3                HDR$->KV$VDOVLP_DAT1 = KNA_VDOVLP_DAT1;

   6982   0 00031F  D800 0000 0000  xsym                 LDR,R5   KNA_VDOVLP_DAT1
          0 000322  DF06                                 STR,R5   ,B6

     1231     6983    3                HDR$->KV$VDOVLP_DAT1.BYTSIZ = MSGSZ;
PL6.E3A0      #006=KNA$BUILD_VDO File=KNA$SUBS.:E05TSI                           WED 07/30/97 01:01 Page:200

   6983   0 000323  EA86                                 SRM,R6,'00FF'X    ,B6
   6983   0 000324       00FF

     1232     6984    3                HDR$ = PINCRC (HDR$,SIZEC(KNA_VDOVLP_DAT1));

   6984   0 000325  DBC6 0001                            LAB,B5   1,B6
          0 000327  DFC7 000A                            STB,B5   HDR$,AUTO

     1233     6985    3                END;

     1234     6986    2           END;

     1235     6987    1      IF LHDR$ ~= ADDR(HDR)                /* vlps                               */

   6987   0 000329  ECC7 000C                            LDB,B6   LHDR$,AUTO
          0 00032B  EDC7 0008                            CMB,B6   @HDR,AUTO
          0 00032D  0901 0007                            BE       s:6993,PREL

     1236     6988    2      THEN DO;

     1237     6989    2           ADDR(HDR)->KV$VDO.VLP = '1'B;

   6989   0 00032F  DCC7 0008                            LDB,B5   @HDR,AUTO
          0 000331  8905                                 LBT,'0080'X       ,B5
          0 000332       0080

     1238     6990    2           LHDR$->KV$VDOVLP.LST = '1'B;

   6990   0 000333  8906                                 LBT,'8000'X       ,B6
   6990   0 000334       8000

     1239     6991    2           END;

     1240     6992
     1241     6993    1      TEMP1U = 0 ;

PL6.E3A0      #006=KNA$BUILD_VDO File=KNA$SUBS.:E05TSI                           WED 07/30/97 01:01 Page:201
   6993   0 000335  8747 0012                            CL       TEMP1U,AUTO

     1242     6994    1      IF FUNCTION = %KV_VDO_FNC_PRM_SET    /* TL exists                          */

   6994   0 000337  DCC7 0004                            LDB,B5   @FUNCTION,AUTO
          0 000339  E805                                 LDR,R6   ,B5
          0 00033A  6D13                                 CMV,R6   19
          0 00033B  0981 0012                            BNE      s:7000,PREL

     1243     6995    2      THEN DO;

     1244     6996    2           HDR$->TL = K$RWPARM.V$->TL;

   6996   0 00033D  CCC7 0006                            LDB,B4   @K$RWPARM,AUTO
          0 00033F  D844 0025                            LDR,R5   37,B4
          0 000341  BCC4 0021                            LDB,B3   33,B4
          0 000343  AB83                                 LAB,B2   ,B3
          0 000344  2C00                                 LDV,R2   0
          0 000345  E855                                 LDR,R6   R5
          0 000346  BCC7 000A                            LDB,B3   HDR$,AUTO
          0 000348  3C00                                 LDV,R3   0
          0 000349  0008                                 MMM

     1245     6997    2           TEMP1U = K$RWPARM.VSZ ;

   6997   0 00034A  E844 0025                            LDR,R6   37,B4
          0 00034C  EF47 0012                            STR,R6   TEMP1U,AUTO

     1246     6998    2           END;

     1247     6999
     1248     7000    1      K$RWPARM.UHDR$ = ADDR(HDR);

   7000   0 00034E  ECC7 0008                            LDB,B6   @HDR,AUTO
          0 000350  CCC7 0006                            LDB,B4   @K$RWPARM,AUTO
          0 000352  EFC4 0017                            STB,B6   23,B4

PL6.E3A0      #006=KNA$BUILD_VDO File=KNA$SUBS.:E05TSI                           WED 07/30/97 01:01 Page:202
     1249     7001    1      TEMP2U = POFFW(HDR$,ADDR(HDR)) ;

   7001   0 000354  8CC7 000A                            LDI      HDR$,AUTO
          0 000356  84C7 0008                            SID      @HDR,AUTO
          0 000358  E857                                 LDR,R6   R7
          0 000359  EF47 000F                            STR,R6   VDOSZ,AUTO

     1250     7002    1      K$RWPARM.UHDRSZ = TEMP2U + TEMP2U + TEMP1U ;

   7002   0 00035B  6001                                 SOL,R6   1
          0 00035C  EA47 0012                            ADD,R6   TEMP1U,AUTO
          0 00035E  EF44 0019                            STR,R6   25,B4

     1251     7003    1      RETURN;

   7003   0 000360  C380 0000 0000  xent                 LNJ,B4   X6A_ARET
     1252     7004
     1253     7005    1   END KNA$BUILD_VDO;
     1254     7006        %EOD;

PL6.E3A0      #006=KNA$BUILD_VDO File=KNA$SUBS.:E05TSI                           WED 07/30/97 01:01 Page:203
--  Include file information  --

   KI$CP6V_C.:E05TOU  is referenced.
   K_CP6_M.:E05TOU  is referenced.
   KV_PRMID_E.:E05TOU  is referenced.
   G_LCP6_E.:E05TOU  is referenced.
   GU_LCP6_M.:E05TOU  is referenced.
   K$RWPARM.:E05TOU  is referenced.
   KV$VDO.:E05TOU  is referenced.
      No diagnostics issued in procedure KNA$BUILD_VDO.
PL6.E3A0      #006=KNA$BUILD_VDO File=KNA$SUBS.:E05TSI                           WED 07/30/97 01:01 Page:204

 **** Variables and constants ****

  ****  Auto variables  ****

  ****  Scalars and arrays  ****
HexLoc.c.b A Datatyp(siz) R M Lvl/name                 HexLoc.c.b A Datatyp(siz) R M Lvl/name

     4-0-0/w PTR         r     1 @FUNCTION                  8-0-0/w PTR         r     1 @HDR
     6-0-0/w PTR         r     1 @K$RWPARM                 *0-0-0/w UBIN(16)    r     1 FUNCTION
    *0-0-0/w CHAR(100)   r     1 HDR                        A-0-0/w PTR         r     1 HDR$
    *0-0-0/w STRC(656)   r     1 K$RWPARM                   C-0-0/w PTR         r     1 LHDR$
     E-0-0/w UBIN(16)    r     1 MSGSZ                     10-0-0/w PTR         r     1 OP$
    10-0-0/w STRC(32)    r     1 OP$1                      10-0-0/w PTR         r     1 OPP$
    12-0-0/w SBIN(16)    r     1 TEMP1S                    12-0-0/w UBIN(16)    r     1 TEMP1U
     F-0-0/w SBIN(16)    r     1 TEMP2S                     F-0-0/w UBIN(16)    r     1 TEMP2U
    13-0-0/w SBIN(16)    r     1 TEMP3S                    13-0-0/w UBIN(16)    r     1 TEMP3U
     F-0-0/w UBIN(16)    r     1 VDOSZ

  ****  SYMREF variables  ****

  ****  Scalars and arrays  ****
HexLoc.c.b A Datatyp(siz) R M Lvl/name                 HexLoc.c.b A Datatyp(siz) R M Lvl/name

     0-0-0/c UBIN(8)     r     1 KNA_VDOBYTSIZ(0:34)
     0-0-0/w STRC(96)    r     1 KNA_VDOVLP_CG_MSGID        0-0-0/w STRC(96)    r     1 KNA_VDOVLP_CG_MSGTYP
     0-0-0/w STRC(96)    r     1 KNA_VDOVLP_CG_STA          0-0-0/w STRC(16)    r     1 KNA_VDOVLP_DAT1
     0-0-0/w STRC(32)    r     1 KNA_VDOVLP_DAT2            0-0-0/w STRC(48)    r     1 KNA_VDOVLP_ERR
     0-0-0/w STRC(32)    r     1 KNA_VDOVLP_FLDID           0-0-0/w STRC(16)    r     1 KNA_VDOVLP_KEY
     0-0-0/w STRC(64)    r     1 KNA_VDOVLP_MRK

  ****  BASED and DCB variables  ****

  ****  Scalars and arrays  ****
HexLoc.c.b A Datatyp(siz) R M Lvl/name                 HexLoc.c.b A Datatyp(siz) R M Lvl/name

     0-0-0/w UBIN(16)    r     1 FLDID                      0-0-0/w STRC(80)    r     1 FPT$DCLFLD_V
     0-0-0/w STRC(48)    r     1 FPT$ERASE_V                0-0-0/w STRC(32)    r     1 FPT$TRMPRG_V
PL6.E3A0      #006=KNA$BUILD_VDO File=KNA$SUBS.:E05TSI                           WED 07/30/97 01:01 Page:205
     0-0-0/c ACHR        r     1 KEY                        0-0-0/w STRC(16)    r     1 KV$VDO
     0-0-0/w STRC(16)    r     1 KV$VDOVLP                  0-0-0/w STRC(96)    r     1 KV$VDOVLP_CG_MSGID
     0-0-0/w STRC(96)    r     1 KV$VDOVLP_CG_MSGTYP        0-0-0/w STRC(96)    r     1 KV$VDOVLP_CG_STA
     0-0-0/w STRC(16)    r     1 KV$VDOVLP_DAT1             0-0-0/w STRC(32)    r     1 KV$VDOVLP_DAT2
     0-0-0/w STRC(48)    r     1 KV$VDOVLP_ERR              0-0-0/w STRC(32)    r     1 KV$VDOVLP_FLDID
     0-0-0/w STRC(16)    r     1 KV$VDOVLP_KEY              0-0-0/w STRC(48)    r     1 KV$VDO_BLKDAT
     0-0-0/w STRC(32)    r     1 KV$VDO_CLSSTR              0-0-0/w STRC(32)    r     1 KV$VDO_DAT
     0-0-0/w STRC(96)    r     1 KV$VDO_DCLFLD              0-0-0/w STRC(32)    r     1 KV$VDO_DCLSTR
     0-0-0/w STRC(32)    r     1 KV$VDO_DLT                 0-0-0/w STRC(32)    r     1 KV$VDO_ERS
     0-0-0/w STRC(48)    r     1 KV$VDO_OPNSTR              0-0-0/w STRC(80)    r     1 KV$VDO_RQSDAT
     0-0-0/w STRC(48)    r     1 KV$VDO_RQSPRM              0-0-0/w STRC(32)    r     1 KV$VDO_SLCGRPRND
     0-0-0/w STRC(32)    r     1 KV$VDO_SLCQLF              0-0-0/c ACHR        r     1 TL
     0-0-0/w UBIN(16)    r     1 UBNBSD                     0-0-0/w STRC(16)    r     1 UBNBSD1
     0-0-0/w STRC(96)    r     1 VDO1                       0-0-0/w STRC(64)    r     1 VDOVLP_MRK
     0-0-0/w STRC(48)    r     1 VLP$FLDATR


   Procedure KNA$BUILD_VDO requires 867 words for executable code.
   Procedure KNA$BUILD_VDO requires 22 words of local(AUTO) storage.
PL6.E3A0      #006=KNA$BUILD_VDO File=KNA$SUBS.:E05TSI                           WED 07/30/97 01:01 Page:206
          *** CROSS REFERENCE LISTING ***
**     DENOTES     IDENTIFIER DEFINITION
<<                 IDENTIFIER'S VALUE SET
>>                 IDENTIFIER'S VALUE USED
<>                 IDENTIFIER SET AND/OR USED
--                 IDENTIFIER REFERENCED
PL6.E3A0      #006=KNA$BUILD_VDO File=KNA$SUBS.:E05TSI                           WED 07/30/97 01:01 Page:207
          MINI XREF LISTING

FLDID
      6092**DCL      6894>>ASSIGN
FPT$DCLFLD_V.CLM
      6112**DCL      6765>>ASSIGN
FPT$DCLFLD_V.ID
      6112**DCL      6767>>ASSIGN
FPT$DCLFLD_V.LIN
      6111**DCL      6764>>ASSIGN
FPT$DCLFLD_V.WDT
      6112**DCL      6766>>ASSIGN
FPT$ERASE_V.CNS
      6129**DCL      6804>>ASSIGN
FPT$ERASE_V.PRT
      6129**DCL      6803>>ASSIGN
FPT$TRMPRG_V.CTLFLG
      6173**DCL      6795>>ASSIGN
FPT$TRMPRG_V.CTLFLG.RSTBRK
      6174**DCL      6174--REDEF
FUNCTION
      3563**DCL         7--PROC     6737>>IF       6741>>ASSIGN   6746>>ASSIGN   6750>>DOCASE   6914>>IF
      6931>>IF       6931>>IF       6931>>IF       6994>>IF
HDR
      3880**DCL         7--PROC     6736--ASSIGN   6987--IF       6989--ASSIGN   7000--ASSIGN   7001--ASSIGN
HDR$
      6177**DCL      6084--IMP-PTR  6736<<ASSIGN   6745>>ASSIGN   6746>>ASSIGN   6748>>ASSIGN   6753>>ASSIGN
      6754>>ASSIGN   6755>>ASSIGN   6758>>ASSIGN   6759>>ASSIGN   6760>>ASSIGN   6764>>ASSIGN   6765>>ASSIGN
      6766>>ASSIGN   6767>>ASSIGN   6770>>ASSIGN   6772>>ASSIGN   6775>>ASSIGN   6776>>ASSIGN   6779>>ASSIGN
      6782>>ASSIGN   6783>>ASSIGN   6787>>ASSIGN   6788>>ASSIGN   6791>>ASSIGN   6794>>ASSIGN   6795>>ASSIGN
      6798>>ASSIGN   6799>>ASSIGN   6802>>ASSIGN   6803>>ASSIGN   6804>>ASSIGN   6807>>ASSIGN   6808>>ASSIGN
      6809>>ASSIGN   6816>>ASSIGN   6817>>ASSIGN   6818>>ASSIGN   6820>>ASSIGN   6823>>ASSIGN   6824>>ASSIGN
      6825>>ASSIGN   6826>>ASSIGN   6827>>ASSIGN   6830>>ASSIGN   6831>>ASSIGN   6832>>ASSIGN   6835>>ASSIGN
      6838>>ASSIGN   6840>>ASSIGN   6843>>ASSIGN   6846>>ASSIGN   6847>>ASSIGN   6851>>ASSIGN   6855>>ASSIGN
PL6.E3A0      #006=KNA$BUILD_VDO File=KNA$SUBS.:E05TSI                           WED 07/30/97 01:01 Page:208
      6856<<ASSIGN   6856>>ASSIGN   6862>>ASSIGN   6863>>ASSIGN   6864>>ASSIGN   6865<<ASSIGN   6865>>ASSIGN
      6867>>ASSIGN   6868>>ASSIGN   6869>>ASSIGN   6870<<ASSIGN   6870>>ASSIGN   6875>>ASSIGN   6876>>ASSIGN
      6877>>ASSIGN   6878<<ASSIGN   6878>>ASSIGN   6883>>ASSIGN   6884>>ASSIGN   6885>>ASSIGN   6886<<ASSIGN
      6886>>ASSIGN   6892>>ASSIGN   6893>>ASSIGN   6894>>ASSIGN   6895>>ASSIGN   6896<<ASSIGN   6896>>ASSIGN
      6899>>ASSIGN   6900>>ASSIGN   6903>>ASSIGN   6904>>ASSIGN   6905<<ASSIGN   6905>>ASSIGN   6906>>ASSIGN
      6907<<ASSIGN   6907>>ASSIGN   6912>>ASSIGN   6913>>ASSIGN   6916>>ASSIGN   6919>>ASSIGN   6920>>ASSIGN
      6921>>ASSIGN   6924>>ASSIGN   6925>>ASSIGN   6925>>ASSIGN   6927>>ASSIGN   6928<<ASSIGN   6928>>ASSIGN
      6974>>ASSIGN   6977>>ASSIGN   6978>>ASSIGN   6979<<ASSIGN   6979>>ASSIGN   6982>>ASSIGN   6983>>ASSIGN
      6984<<ASSIGN   6984>>ASSIGN   6996>>ASSIGN   7001>>ASSIGN
K$RWPARM
      3581**DCL         7--PROC
K$RWPARM.BLKREC
      3611**DCL      3636--REDEF    6921--ASSIGN
K$RWPARM.BLKREC.BLKU#
      3612**DCL      6919>>ASSIGN
K$RWPARM.BLKREC.RECU#
      3624**DCL      6920>>ASSIGN
K$RWPARM.DVE.DVBYTE.BP
      3650**DCL      6931>>IF
K$RWPARM.DVE.DVBYTE.NODAT
      3656**DCL      6817>>ASSIGN
K$RWPARM.DVE.DVBYTE.REREAD
      3652**DCL      6818>>ASSIGN
K$RWPARM.DVE.DVBYTE.TRANS
      3654**DCL      6790>>IF       6821>>IF       6931>>IF
K$RWPARM.DVE.DVBYTE.VFC
      3651**DCL      3652--REDEF    6780>>IF
K$RWPARM.DVE.EOMCHAR
      3659**DCL      3663--REDEF    6788>>ASSIGN
K$RWPARM.DVE.VFC
      3663**DCL      6783>>ASSIGN
K$RWPARM.EOM_EOR
      3680**DCL      6785>>IF
K$RWPARM.ERR
      3723**DCL      3728--REDEF
K$RWPARM.FC
PL6.E3A0      #006=KNA$BUILD_VDO File=KNA$SUBS.:E05TSI                           WED 07/30/97 01:01 Page:209
      3687**DCL      3688--REDEF
K$RWPARM.FLDID
      3869**DCL      3870--REDEF
K$RWPARM.IP$
      3715**DCL      6160--IMP-PTR  6768>>IF       6770>>ASSIGN   6775>>ASSIGN   6776>>ASSIGN   6836>>IF
      6838>>ASSIGN   6843>>ASSIGN   6847>>ASSIGN
K$RWPARM.KEY$
      3867**DCL      6889>>IF       6894>>ASSIGN   6906>>ASSIGN
K$RWPARM.KEYSZ
      3878**DCL      6093--IMP-SIZ  6893>>ASSIGN   6900>>ASSIGN   6906>>ASSIGN   6906>>ASSIGN   6907>>ASSIGN
K$RWPARM.KEYTYPE
      3876**DCL      3877--REDEF    6890>>IF       6901>>IF
K$RWPARM.MARKER
      3636**DCL      6924>>ASSIGN
K$RWPARM.MAXNMBBYT
      3864**DCL      6825>>ASSIGN   6832>>ASSIGN
K$RWPARM.MAXNMBRCR
      3863**DCL      6824>>ASSIGN
K$RWPARM.MAXRCRBYTSIZ
      3865**DCL      6753>>ASSIGN   6753>>ASSIGN   6826>>ASSIGN
K$RWPARM.MRKTYP
      3861**DCL      6910>>IF       6913>>ASSIGN   6917>>IF
K$RWPARM.MSG$
      3582**DCL      3583--REDEF    3592--REDEF
K$RWPARM.MSGC$
      3583**DCL      6931>>IF       6940>>ASSIGN
K$RWPARM.MSGID
      3698**DCL      3703--REDEF    6860>>IF       6864>>ASSIGN
K$RWPARM.MSGIDXT
      3711**DCL      3715--REDEF    6863>>ASSIGN
K$RWPARM.MSGSZ
      3593**DCL      6747>>ASSIGN   6931>>IF       6937>>ASSIGN   6952<<ASSIGN   6967<<ASSIGN   6967>>ASSIGN
K$RWPARM.MSGTYP
      3602**DCL      6858>>IF       6868>>ASSIGN
K$RWPARM.MSG_ERRCODE
      3846**DCL      6881>>IF       6884>>ASSIGN
PL6.E3A0      #006=KNA$BUILD_VDO File=KNA$SUBS.:E05TSI                           WED 07/30/97 01:01 Page:210
K$RWPARM.ORG
      3847**DCL      3848--REDEF    6809>>ASSIGN
K$RWPARM.PRMID
      3870**DCL      6831>>ASSIGN
K$RWPARM.READMLT
      3671**DCL      6820>>ASSIGN
K$RWPARM.RSN
      3688**DCL      6755>>ASSIGN
K$RWPARM.STATION
      3597**DCL      6873>>IF       6876>>ASSIGN
K$RWPARM.STR
      3862**DCL      6748>>ASSIGN
K$RWPARM.STRID
      3848**DCL      6799>>ASSIGN
K$RWPARM.UHDR$
      3736**DCL      7000<<ASSIGN
K$RWPARM.UHDRSZ
      3741**DCL      7002<<ASSIGN
K$RWPARM.V$
      3866**DCL      6103--IMP-PTR  6114--IMP-PTR  6124--IMP-PTR  6140--IMP-PTR  6173--IMP-PTR  6764>>ASSIGN
      6765>>ASSIGN   6766>>ASSIGN   6767>>ASSIGN   6795>>ASSIGN   6803>>ASSIGN   6804>>ASSIGN   6996>>ASSIGN
K$RWPARM.VDOFLGS
      3849**DCL      3860--REDEF
K$RWPARM.VDOFLGS.DLTSTR
      3853**DCL      6759>>ASSIGN
K$RWPARM.VDOFLGS.NEWSSN
      3854**DCL      6760>>ASSIGN
K$RWPARM.VDOFLGS.WAIT
      3856**DCL      6827>>ASSIGN
K$RWPARM.VSZ
      3868**DCL      6114--IMP-SIZ  6813>>ASSIGN   6996>>ASSIGN   6996>>ASSIGN   6997>>ASSIGN
KEY
      6093**DCL      6906<<ASSIGN   6906>>ASSIGN
KNA_VDOBYTSIZ
      6723**DCL      6741>>ASSIGN
KNA_VDOVLP_CG_MSGID
PL6.E3A0      #006=KNA$BUILD_VDO File=KNA$SUBS.:E05TSI                           WED 07/30/97 01:01 Page:211
      6239**DCL      6862>>ASSIGN   6865--ASSIGN
KNA_VDOVLP_CG_MSGTYP
      6291**DCL      6867>>ASSIGN   6870--ASSIGN
KNA_VDOVLP_CG_STA
      6343**DCL      6875>>ASSIGN   6878--ASSIGN
KNA_VDOVLP_DAT1
      6394**DCL      6982>>ASSIGN   6984--ASSIGN
KNA_VDOVLP_DAT2
      6444**DCL      6977>>ASSIGN   6979--ASSIGN
KNA_VDOVLP_ERR
      6494**DCL      6883>>ASSIGN   6886--ASSIGN
KNA_VDOVLP_FLDID
      6591**DCL      6892>>ASSIGN   6896--ASSIGN
KNA_VDOVLP_KEY
      6642**DCL      6899>>ASSIGN   6905--ASSIGN
KNA_VDOVLP_MRK
      6692**DCL      6912>>ASSIGN   6928--ASSIGN
KV$VDO.FNC
      3988**DCL      6746<<ASSIGN
KV$VDO.STR
      3988**DCL      6748<<ASSIGN
KV$VDO.VLP
      3988**DCL      6989<<ASSIGN
KV$VDOVLP.LST
      5397**DCL      6990<<ASSIGN
KV$VDOVLP_CG_MSGID
      5495**DCL      6862<<ASSIGN
KV$VDOVLP_CG_MSGID.CG_MSGID
      5509**DCL      6864<<ASSIGN
KV$VDOVLP_CG_MSGID.CG_MSGIDXT
      5510**DCL      6863<<ASSIGN
KV$VDOVLP_CG_MSGTYP
      5548**DCL      6867<<ASSIGN
KV$VDOVLP_CG_MSGTYP.CG_MSGTYP
      5562**DCL      6868<<ASSIGN
KV$VDOVLP_CG_STA
PL6.E3A0      #006=KNA$BUILD_VDO File=KNA$SUBS.:E05TSI                           WED 07/30/97 01:01 Page:212
      5601**DCL      6875<<ASSIGN
KV$VDOVLP_CG_STA.CG_STA
      5615**DCL      6876<<ASSIGN
KV$VDOVLP_DAT1
      5653**DCL      6982<<ASSIGN
KV$VDOVLP_DAT1.BYTSIZ
      5659**DCL      6983<<ASSIGN
KV$VDOVLP_DAT2
      5704**DCL      6977<<ASSIGN
KV$VDOVLP_DAT2.BYTSIZ
      5712**DCL      6978<<ASSIGN
KV$VDOVLP_ERR
      5806**DCL      6883<<ASSIGN
KV$VDOVLP_ERR.ERRCODE
      5837**DCL      6884<<ASSIGN
KV$VDOVLP_FLDID
      5904**DCL      6892<<ASSIGN
KV$VDOVLP_FLDID.BYTSIZ
      5910**DCL      6893<<ASSIGN
KV$VDOVLP_FLDID.FLDID
      5918**DCL      6894<<ASSIGN
KV$VDOVLP_KEY
      5956**DCL      6899<<ASSIGN
KV$VDOVLP_KEY.BYTSIZ
      5962**DCL      6900<<ASSIGN
KV$VDOVLP_KEY.TYP
      5960**DCL      6903<<ASSIGN
KV$VDO_BLKDAT.RCRBYTSIZ
      4032**DCL      6753<<ASSIGN
KV$VDO_BLKDAT.RSN
      4032**DCL      6755<<ASSIGN
KV$VDO_CLSSTR.DLT
      4119**DCL      6759<<ASSIGN
KV$VDO_CLSSTR.NEWSSN
      4119**DCL      6760<<ASSIGN
KV$VDO_DAT.DATCTRCHR
PL6.E3A0      #006=KNA$BUILD_VDO File=KNA$SUBS.:E05TSI                           WED 07/30/97 01:01 Page:213
      4165**DCL      6783<<ASSIGN   6788<<ASSIGN
KV$VDO_DAT.DATCTRCHRTYP
      4164**DCL      6782<<ASSIGN   6787<<ASSIGN
KV$VDO_DAT.DATMOD
      4165**DCL      6791<<ASSIGN
KV$VDO_DCLFLD.CLM
      4209**DCL      6765<<ASSIGN
KV$VDO_DCLFLD.GRPRND
      4271**DCL      6770<<ASSIGN   6770--ASSIGN   6775<<ASSIGN
KV$VDO_DCLFLD.GRPRND.ABS
      4277**DCL      6772<<ASSIGN
KV$VDO_DCLFLD.ID
      4293**DCL      6767<<ASSIGN
KV$VDO_DCLFLD.LIN
      4209**DCL      6764<<ASSIGN
KV$VDO_DCLFLD.QLF
      4228**DCL      6776<<ASSIGN
KV$VDO_DCLFLD.WDT
      4210**DCL      6766<<ASSIGN
KV$VDO_DCLSTR.STRID
      4336**DCL      6799<<ASSIGN
KV$VDO_DLT.CTLFLG
      4380**DCL      6795<<ASSIGN
KV$VDO_ERS.CNS
      4469**DCL      6804<<ASSIGN
KV$VDO_ERS.PRT
      4469**DCL      6803<<ASSIGN
KV$VDO_OPNSTR.ORG
      4726**DCL      6809<<ASSIGN
KV$VDO_RQSDAT.DATMOD
      4899**DCL      6823<<ASSIGN
KV$VDO_RQSDAT.EOFNO_DAT
      4900**DCL      6817<<ASSIGN
KV$VDO_RQSDAT.MAXNMBBYT
      4897**DCL      6825<<ASSIGN
KV$VDO_RQSDAT.MAXNMBRCR
PL6.E3A0      #006=KNA$BUILD_VDO File=KNA$SUBS.:E05TSI                           WED 07/30/97 01:01 Page:214
      4896**DCL      6824<<ASSIGN
KV$VDO_RQSDAT.MAXRCRBYTSIZ
      4896**DCL      6826<<ASSIGN
KV$VDO_RQSDAT.READMLT
      4901**DCL      6820<<ASSIGN
KV$VDO_RQSDAT.RE_RED
      4899**DCL      6818<<ASSIGN
KV$VDO_RQSDAT.WAT
      4900**DCL      6827<<ASSIGN
KV$VDO_RQSPRM.MAXNMBBYT
      4987**DCL      6832<<ASSIGN
KV$VDO_RQSPRM.PRMID
      4987**DCL      6831<<ASSIGN
KV$VDO_SLCGRPRND.GRPRND
      5133**DCL      6838<<ASSIGN   6838--ASSIGN   6843<<ASSIGN
KV$VDO_SLCGRPRND.GRPRND.ABS
      5139**DCL      6840<<ASSIGN
KV$VDO_SLCQLF.QLF
      5216**DCL      6847<<ASSIGN
LHDR$
      6178**DCL      6855<<ASSIGN   6869<<ASSIGN   6877<<ASSIGN   6885<<ASSIGN   6895<<ASSIGN   6904<<ASSIGN
      6927<<ASSIGN   6974<<ASSIGN   6987>>IF       6990>>ASSIGN
LLUUP
      6957**LABEL    6963--GOTO
LLUUP1
      6961**LABEL    6946--GOTO
LOUT
      6972**LABEL    6945--GOTO     6949--GOTO     6954--GOTO
LOUT1
      6966**LABEL    6959--GOTO
MSGSZ
      6179**DCL      6747<<ASSIGN   6813<<ASSIGN   6813>>ASSIGN   6951<<ASSIGN   6951>>ASSIGN   6966<<ASSIGN
      6966>>ASSIGN   6972>>IF       6975>>IF       6978>>ASSIGN   6983>>ASSIGN
OP$
      6183**DCL      6184--REDEF    6187--REDEF    6189--IMP-PTR  6940<<ASSIGN
OP$1.HIBIT
PL6.E3A0      #006=KNA$BUILD_VDO File=KNA$SUBS.:E05TSI                           WED 07/30/97 01:01 Page:215
      6185**DCL      6941>>IF       6943<<ASSIGN
OPP$
      6187**DCL      6944>>IF       6948>>IF       6957<<ASSIGN   6957>>ASSIGN   6958>>IF
TEMP1S
      6196**DCL      6952>>ASSIGN   6953>>IF
TEMP1U
      6195**DCL      6196--REDEF    6197--REDEF    6937<<ASSIGN   6938>>ASSIGN   6940>>ASSIGN   6993<<ASSIGN
      6997<<ASSIGN   7002>>ASSIGN
TEMP2S
      6182**DCL      6939<<ASSIGN   6961<<ASSIGN   6961>>ASSIGN   6962>>IF       6966>>ASSIGN   6966>>ASSIGN
      6967>>ASSIGN   6967>>ASSIGN
TEMP2U
      6181**DCL      7001<<ASSIGN   7002>>ASSIGN   7002>>ASSIGN
TEMP3S
      6201**DCL      6962>>IF
TEMP3U
      6200**DCL      6201--REDEF    6938<<ASSIGN
TL
      6114**DCL      6996<<ASSIGN   6996>>ASSIGN
UBNBSD
      6190**DCL      6191--REDEF    6944>>IF       6958>>IF
UBNBSD1.HLF1
      6192**DCL      6948>>IF
VDO1.WD1
      6085**DCL      6745<<ASSIGN
VDO1.WD2
      6086**DCL      6758<<ASSIGN   6779<<ASSIGN   6794<<ASSIGN   6798<<ASSIGN   6802<<ASSIGN   6807<<ASSIGN
      6830<<ASSIGN   6835<<ASSIGN   6846<<ASSIGN   6851<<ASSIGN
VDO1.WD3
      6087**DCL      6754<<ASSIGN   6808<<ASSIGN
VDO1.WD5
      6089**DCL      6816<<ASSIGN
VDOSZ
      6180**DCL      6083--IMP-SIZ  6181--REDEF    6182--REDEF    6741<<ASSIGN   6850>>IF       6856>>ASSIGN
VDOVLP_MRK
      6061**DCL      6912<<ASSIGN
PL6.E3A0      #006=KNA$BUILD_VDO File=KNA$SUBS.:E05TSI                           WED 07/30/97 01:01 Page:216
VDOVLP_MRK.BMRK.BLK#
      6080**DCL      6919<<ASSIGN
VDOVLP_MRK.BMRK.REC#
      6081**DCL      6920<<ASSIGN
VDOVLP_MRK.BYTSIZ
      6067**DCL      6921<<ASSIGN   6925<<ASSIGN
VDOVLP_MRK.ID
      6076**DCL      6079--REDEF    6924<<ASSIGN   6925--ASSIGN
VDOVLP_MRK.MRKTYP
      6075**DCL      6913<<ASSIGN
VDOVLP_MRK.RSP
      6075**DCL      6916<<ASSIGN
VLP$FLDATR.ABSGRPRND
      6162**DCL      6768>>IF       6770>>ASSIGN   6836>>IF       6838>>ASSIGN
VLP$FLDATR.GRPRND
      6160**DCL      6775>>ASSIGN   6843>>ASSIGN
VLP$FLDATR.QLF
      6161**DCL      6776>>ASSIGN   6847>>ASSIGN

PL6.E3A0      #007=KNA$FCNO File=KNA$SUBS.:E05TSI                                WED 07/30/97 01:03 Page:217
     1255        1        /*T***********************************************************/
     1256        2        /*T*                                                         */
     1257        3        /*T* Copyright (c) Bull HN Information Systems Inc., 1997    */
     1258        4        /*T*                                                         */
     1259        5        /*T***********************************************************/
     1260        6        KNA$FCNO: PROC (FNC,KNA$SSN,K$RWPARM,ERR) ALTRET;
     1261        7
     1262        8        %INCLUDE K$RWPARM;
     1263      394        %INCLUDE KNA_MACRO_M;
     1264      470        %INCLUDE KN_DATA_M;
     1265     2256        %INCLUDE KNH_MACRO_C;                   /* for KNH_FCN_equs                   */
     1266     2539        %INCLUDE KN_ERRORS_C;
     1267     2603        %INCLUDE LCP_6;
     1268     6882
     1269     6883        %INCLUDE GH_SCHD_E;
     1270     6979        /* Parameters */
     1271     6980    1   DCL FNC UBIN;                           /* VDO function to be performed       */
     1272     6981        %K$RWPARM (NAME=K$RWPARM,STCLASS=PARAM);
     1273     7297        %KNA$SSN (FPTN=KNA$SSN,STCLASS=PARAM);
     1274     7380    1   DCL ERR UBIN;
     1275     7381
     1276     7382        /* Auto */
     1277     7383    1   DCL HDR CHAR(100);
     1278     7384        %KN$NETPARM;
     1279     7537    1   DCL USER BIT(1);
     1280     7538
     1281     7539        /* External Data */
     1282     7540        %KN$NETPARM (NAME=KN_NETPARM_INIT,STCLASS=SYMREF);
     1283     7693
     1284     7694        /* Error codes */
     1285     7695        %VLP_ERRCODE (FPTN=ERR_NOQ,FCG=KN,MID=A,MON='1'B,ERR#=%E$NOQ,SEV=G_SEV_ERROR#);
     1286     7741
     1287     7742        /* Entrys */
     1288     7743    1   DCL KNS$SEND ENTRY(1) ALTRET;
     1289     7744    1   DCL KNA$BUILD_VDO ENTRY(3);
     1290     7745    1   DCL KNA$REG_USER ENTRY(2) ALTRET;
     1291     7746
PL6.E3A0      #007=KNA$FCNO File=KNA$SUBS.:E05TSI                                WED 07/30/97 01:03 Page:218
     1292     7747        %EJECT;
PL6.E3A0      #007=KNA$FCNO File=KNA$SUBS.:E05TSI                                WED 07/30/97 01:03 Page:219
     1293     7748    1      USER = '0'B;
     1294     7749    1      GOTO COMMON_START;
     1295     7750
     1296     7751    1   KNA$FCNOU: ENTRY (FNC,KNA$SSN,K$RWPARM,ERR) ALTRET;
     1297     7752
     1298     7753    1      USER = '1'B;
     1299     7754
     1300     7755    1   COMMON_START: ;
     1301     7756
     1302     7757        /* If we are terminating altret */
     1303     7758    1      IF KNA$SSN.STATE = %KNA_STATE_TERM#
     1304     7759    1        OR KNA$SSN.STATE = %KNA_STATE_WTERM
     1305     7760    1      THEN ALTRETURN;
     1306     7761
     1307     7762    1      IF FNC ~= 0
     1308     7763    1      THEN CALL KNA$BUILD_VDO (FNC,K$RWPARM,HDR);
     1309     7764
     1310     7765    1      KN$NETPARM = KN_NETPARM_INIT;
     1311     7766    1      KN$NETPARM.FUNCTION = %KN_FCN_DATA;
     1312     7767    1      KN$NETPARM.UHDR$ = K$RWPARM.UHDR$;
     1313     7768    1      KN$NETPARM.UHDRSZ = K$RWPARM.UHDRSZ;
     1314     7769    1      KN$NETPARM.MSG$ = K$RWPARM.MSGC$;
     1315     7770    1      KN$NETPARM.MSGSZ = K$RWPARM.MSGSZ;
     1316     7771    1      ERR = 0;
     1317     7772    2      DO WHILE('1'B);
     1318     7773    2           KN$NETPARM.LDCT$ = KNA$SSN.LDCT$;
     1319     7774    2           KN$NETPARM.SLDCT$ = KN$NETPARM.LDCT$;
     1320     7775    2           CALL KNS$SEND(KN$NETPARM)
     1321     7776    3           WHENRETURN DO;
     1322     7777    3                RETURN;
     1323     7778    3                END;
     1324     7779    2           IF KN$NETPARM.ERRCODE ~= %KN_ERR_NOQ
     1325     7780    2             AND KN$NETPARM.ERRCODE ~= %KN_ERR_NOQ2 OR NOT USER
     1326     7781    3           THEN DO;
     1327     7782    3                ERR = KN$NETPARM.ERRCODE;
     1328     7783    3                KNA$SSN.ERROR = ERR_NOQ;
     1329     7784    3                ALTRETURN;
PL6.E3A0      #007=KNA$FCNO File=KNA$SUBS.:E05TSI                                WED 07/30/97 01:03 Page:220
     1330     7785    3                END;
     1331     7786        /*E* ERROR: KNA-E$NOQ-0
     1332     7787             MESSAGE: No circular queue available for this write
     1333     7788        */
     1334     7789
     1335     7790    2           KNA$SSN.FLAGS.CQ = '1'B;
     1336     7791    2           CALL KNA$REG_USER(%GH_EVCBL,ADDR(KNA$SSN));
     1337     7792    2           KNA$SSN.FLAGS.CQ = '0'B;
     1338     7793    2           END;
     1339     7794
     1340     7795
     1341     7796    1   END KNA$FCNO;
     1342     7797        %EOD;

PL6.E3A0      #007=KNA$FCNO File=KNA$SUBS.:E05TSI                                WED 07/30/97 01:03 Page:221
--  Include file information  --

   GH_SCHD_E.:E05TOU  is referenced.
   G_LCP6_E.:E05TOU  is referenced.
   GT_LCP6_M.:E05TOU  is referenced.
   KI_CP6.:E05TOU  is referenced.
   GF_LCP6_M.:E05TOU  is referenced.
   GM_LCP6_M.:E05TOU  is referenced.
   GU_LCP6_M.:E05TOU  is referenced.
   GJ_LCP6_M.:E05TOU  is referenced.
   GH_LCP6_M.:E05TOU  is referenced.
   LCP_6.:E05TOU  cannot be made into a system file and is referenced.
   KN_ERRORS_C.:E05TOU  is referenced.
   KNH_MACRO_C.:E05TOU  is referenced.
   KN_DATA_M.:E05TOU  is referenced.
   KNA_MACRO_M.:E05TOU  is referenced.
   K$RWPARM.:E05TOU  is referenced.
      No diagnostics issued in procedure KNA$FCNO.

   Procedure KNA$FCNO requires 160 words for executable code.
   Procedure KNA$FCNO requires 102 words of local(AUTO) storage.

PL6.E3A0      #007=KNA$FCNO File=KNA$SUBS.:E05TSI                                WED 07/30/97 01:03 Page:222

 Object Unit name= KNA$FCNO                                   File name= KNA$SUBS.:E05TOU
 UTS= JUL 30 '97 01:03:13.52 WED                              Compiler= PL-6/E31         Sev=      00
 SharedLib= :SHARED_LCP6_SYSTEM                               Alt SharedLib=


    ****  Control sections  ****

 Sect   Type Bound  Init  Size HexSiz  Section name
    0   Data  even  none     2      2  KNA$FCNO
    1   Proc  even  none   160     A0  KNA$FCNO

    ****  Entry defs  ****

                              Check   Calling
                             calling  sequence
  Sect HexLoc Primary Altret sequence   type   Parms  Name
     1      0   yes    yes     yes      Std        4  KNA$FCNO
     1      9          yes     yes      Std        4  KNA$FCNOU

  ****  Entry refs  ****

         Check        Calling
        calling       sequence
Altret sequence SRef   type   Args  Name
         yes           Std       3 KNA$BUILD_VDO
 yes     yes           Std       1 KNS$SEND
 yes     yes           Std       2 KNA$REG_USER
                       nStd      0 X6A_AUTO_N
                       nStd      0 X6A_AALT
                       nStd      0 X6A_ARET

  ****  Data refs  ****

  Flags:  r = read only, s = secondary
Flgs Name                             Flgs Name                             Flgs Name
     KN_NETPARM_INIT                  r    G$ROS$
PL6.E3A0      #007=KNA$FCNO File=KNA$SUBS.:E05TSI                                WED 07/30/97 01:03 Page:223


     1255        1        /*T***********************************************************/
     1256        2        /*T*                                                         */
     1257        3        /*T* Copyright (c) Bull HN Information Systems Inc., 1997    */
     1258        4        /*T*                                                         */
     1259        5        /*T***********************************************************/
     1260        6        KNA$FCNO: PROC (FNC,KNA$SSN,K$RWPARM,ERR) ALTRET;

      6   1 000000  D380 0000 0000  xent KNA$FCNO        LNJ,B5   X6A_AUTO_N
          1 000003       0066 0004                       DC       102,4

     1261        7
     1262        8        %INCLUDE K$RWPARM;
     1263      394        %INCLUDE KNA_MACRO_M;
     1264      470        %INCLUDE KN_DATA_M;
     1265     2256        %INCLUDE KNH_MACRO_C;                   /* for KNH_FCN_equs                   */
     1266     2539        %INCLUDE KN_ERRORS_C;
     1267     2603        %INCLUDE LCP_6;
     1268     6882
     1269     6883        %INCLUDE GH_SCHD_E;
     1270     6979        /* Parameters */
     1271     6980    1   DCL FNC UBIN;                           /* VDO function to be performed       */
     1272     6981        %K$RWPARM (NAME=K$RWPARM,STCLASS=PARAM);
     1273     7297        %KNA$SSN (FPTN=KNA$SSN,STCLASS=PARAM);
     1274     7380    1   DCL ERR UBIN;
     1275     7381
     1276     7382        /* Auto */
     1277     7383    1   DCL HDR CHAR(100);
     1278     7384        %KN$NETPARM;
     1279     7537    1   DCL USER BIT(1);
     1280     7538
     1281     7539        /* External Data */
     1282     7540        %KN$NETPARM (NAME=KN_NETPARM_INIT,STCLASS=SYMREF);
     1283     7693
     1284     7694        /* Error codes */
     1285     7695        %VLP_ERRCODE (FPTN=ERR_NOQ,FCG=KN,MID=A,MON='1'B,ERR#=%E$NOQ,SEV=G_SEV_ERROR#);
     1286     7741
PL6.E3A0      #007=KNA$FCNO File=KNA$SUBS.:E05TSI                                WED 07/30/97 01:03 Page:224
     1287     7742        /* Entrys */
     1288     7743    1   DCL KNS$SEND ENTRY(1) ALTRET;
     1289     7744    1   DCL KNA$BUILD_VDO ENTRY(3);
     1290     7745    1   DCL KNA$REG_USER ENTRY(2) ALTRET;
     1291     7746
     1292     7747        %EJECT;
PL6.E3A0      #007=KNA$FCNO File=KNA$SUBS.:E05TSI                                WED 07/30/97 01:03 Page:225
     1293     7748    1      USER = '0'B;

   7748   1 000005  8747 005F                            CL       USER,AUTO

     1294     7749    1      GOTO COMMON_START;

   7749   1 000007  0F81 0009                            B        s:7753,PREL

     1295     7750
     1296     7751    1   KNA$FCNOU: ENTRY (FNC,KNA$SSN,K$RWPARM,ERR) ALTRET;

   7751   1 000009  D380 0000 0000  xent KNA$FCNOU       LNJ,B5   X6A_AUTO_N
          1 00000C       0066 0004                       DC       102,4

     1297     7752
     1298     7753    1      USER = '1'B;

   7753   1 00000E  8947 005F                            LBT,'8000'X       USER,AUTO
   7753   1 000010       8000

   7753   1                              COMMON_START    null
     1299     7754
     1300     7755    1   COMMON_START: ;
     1301     7756
     1302     7757        /* If we are terminating altret */
     1303     7758    1      IF KNA$SSN.STATE = %KNA_STATE_TERM#

   7758   1 000011  ECC7 0006            COMMON_START    LDB,B6   @KNA$SSN,AUTO
          1 000013  E846 0013                            LDR,R6   19,B6
          1 000015  6D05                                 CMV,R6   5
          1 000016  0901 0004                            BE       s:7760,PREL
          1 000018  6D06                                 CMV,R6   6
          1 000019  0981 0004                            BNE      s:7762,PREL

     1304     7759    1        OR KNA$SSN.STATE = %KNA_STATE_WTERM
     1305     7760    1      THEN ALTRETURN;

PL6.E3A0      #007=KNA$FCNO File=KNA$SUBS.:E05TSI                                WED 07/30/97 01:03 Page:226
   7760   1 00001B  C380 0000 0000  xent                 LNJ,B4   X6A_AALT

     1306     7761
     1307     7762    1      IF FNC ~= 0

   7762   1 00001E  DCC7 0004                            LDB,B5   @FNC,AUTO
          1 000020  D805                                 LDR,R5   ,B5
          1 000021  5901 0013                            BEZ,R5   s:7765,PREL

     1308     7763    1      THEN CALL KNA$BUILD_VDO (FNC,K$RWPARM,HDR);

   7763   1 000023  CBC7 000C                            LAB,B4   HDR,AUTO
          1 000025  CFC7 0064                            STB,B4   USER+5,AUTO
          1 000027  BCC7 0008                            LDB,B3   @K$RWPARM,AUTO
          1 000029  BFC7 0062                            STB,B3   USER+3,AUTO
          1 00002B  DFC7 0060                            STB,B5   USER+1,AUTO
          1 00002D  BBC7 0060                            LAB,B3   USER+1,AUTO
          1 00002F  CBF0 0300                            LAB,B4   768,IMO
          1 000031  E380 0000 0000  xent                 LNJ,B6   KNA$BUILD_VDO
          1 000034       0001                            DC       s:7765,PREL

     1309     7764
     1310     7765    1      KN$NETPARM = KN_NETPARM_INIT;

   7765   1 000035  AB80 0000 0000  xsym                 LAB,B2   KN_NETPARM_INIT
          1 000038  2C00                                 LDV,R2   0
          1 000039  6C42                                 LDV,R6   66
          1 00003A  BB87                                 LAB,B3   ,AUTO
          1 00003B  3C7C                                 LDV,R3   124
          1 00003C  0008                                 MMM

     1311     7766    1      KN$NETPARM.FUNCTION = %KN_FCN_DATA;

   7766   1 00003D  6C05                                 LDV,R6   5
          1 00003E  EF47 0052                            STR,R6   KN$NETPARM+20,AUTO

     1312     7767    1      KN$NETPARM.UHDR$ = K$RWPARM.UHDR$;
PL6.E3A0      #007=KNA$FCNO File=KNA$SUBS.:E05TSI                                WED 07/30/97 01:03 Page:227

   7767   1 000040  ECC7 0008                            LDB,B6   @K$RWPARM,AUTO
          1 000042  DCC6 0017                            LDB,B5   23,B6
          1 000044  DFC7 0043                            STB,B5   KN$NETPARM+5,AUTO

     1313     7768    1      KN$NETPARM.UHDRSZ = K$RWPARM.UHDRSZ;

   7768   1 000046  D846 0019                            LDR,R5   25,B6
          1 000048  DF47 0045                            STR,R5   KN$NETPARM+7,AUTO

     1314     7769    1      KN$NETPARM.MSG$ = K$RWPARM.MSGC$;

   7769   1 00004A  8C86                                 LDI      ,B6
          1 00004B  8D47 0040                            SDI      KN$NETPARM+2,AUTO

     1315     7770    1      KN$NETPARM.MSGSZ = K$RWPARM.MSGSZ;

   7770   1 00004D  C846 0002                            LDR,R4   2,B6
          1 00004F  CF47 0042                            STR,R4   KN$NETPARM+4,AUTO

     1316     7771    1      ERR = 0;

   7771   1 000051  CCC7 000A                            LDB,B4   @ERR,AUTO
          1 000053  8704                                 CL       ,B4

     1317     7772    2      DO WHILE('1'B);

     1318     7773    2           KN$NETPARM.LDCT$ = KNA$SSN.LDCT$;

   7773   1 000054  ECC7 0006                            LDB,B6   @KNA$SSN,AUTO
          1 000056  DCC6 0004                            LDB,B5   4,B6
          1 000058  DFC7 003E                            STB,B5   KN$NETPARM,AUTO

     1319     7774    2           KN$NETPARM.SLDCT$ = KN$NETPARM.LDCT$;

   7774   1 00005A  DFC7 0055                            STB,B5   KN$NETPARM+23,AUTO

PL6.E3A0      #007=KNA$FCNO File=KNA$SUBS.:E05TSI                                WED 07/30/97 01:03 Page:228
     1320     7775    2           CALL KNS$SEND(KN$NETPARM)

   7775   1 00005C  CBC7 003E                            LAB,B4   KN$NETPARM,AUTO
          1 00005E  CFC7 0060                            STB,B4   USER+1,AUTO
          1 000060  BBC7 0060                            LAB,B3   USER+1,AUTO
          1 000062  CBF0 0100                            LAB,B4   256,IMO
          1 000064  E380 0000 0000  xent                 LNJ,B6   KNS$SEND
          1 000067       0004                            DC       s:7779,PREL

     1321     7776    3           WHENRETURN DO;

     1322     7777    3                RETURN;

   7777   1 000068  C380 0000 0000  xent                 LNJ,B4   X6A_ARET

     1323     7778    3                END;
     1324     7779    2           IF KN$NETPARM.ERRCODE ~= %KN_ERR_NOQ

   7779   1 00006B  E847 0054                            LDR,R6   KN$NETPARM+22,AUTO
          1 00006D  6D01                                 CMV,R6   1
          1 00006E  0901 0004                            BE       s:7779+8,PREL
          1 000070  6D07                                 CMV,R6   7
          1 000071  0981 0005                            BNE      s:7782,PREL
          1 000073  89C7 005F                            CMZ      USER,AUTO
          1 000075  0801 000E                            BAL      s:7790,PREL

     1325     7780    2             AND KN$NETPARM.ERRCODE ~= %KN_ERR_NOQ2 OR NOT USER
     1326     7781    3           THEN DO;

     1327     7782    3                ERR = KN$NETPARM.ERRCODE;

   7782   1 000077  ECC7 000A                            LDB,B6   @ERR,AUTO
          1 000079  EF06                                 STR,R6   ,B6

     1328     7783    3                KNA$SSN.ERROR = ERR_NOQ;

   7783   1 00007A  8C80 0000 0000  00                   LDI      ERR_NOQ
PL6.E3A0      #007=KNA$FCNO File=KNA$SUBS.:E05TSI                                WED 07/30/97 01:03 Page:229
          1 00007D  DCC7 0006                            LDB,B5   @KNA$SSN,AUTO
          1 00007F  8D45 0001                            SDI      1,B5

     1329     7784    3                ALTRETURN;

   7784   1 000081  C380 0000 0000  xent                 LNJ,B4   X6A_AALT

     1330     7785    3                END;
     1331     7786        /*E* ERROR: KNA-E$NOQ-0
     1332     7787             MESSAGE: No circular queue available for this write
     1333     7788        */
     1334     7789
     1335     7790    2           KNA$SSN.FLAGS.CQ = '1'B;

   7790   1 000084  ECC7 0006                            LDB,B6   @KNA$SSN,AUTO
          1 000086  8906                                 LBT,'2000'X       ,B6
          1 000087       2000

     1336     7791    2           CALL KNA$REG_USER(%GH_EVCBL,ADDR(KNA$SSN));

   7791   1 000088  DBF0 0019                            LAB,B5   25,IMO
          1 00008A  EFC7 0060                            STB,B6   USER+1,AUTO
          1 00008C  CBC7 0060                            LAB,B4   USER+1,AUTO
          1 00008E  CFC7 0064                            STB,B4   USER+5,AUTO
          1 000090  DFC7 0062                            STB,B5   USER+3,AUTO
          1 000092  BBC7 0062                            LAB,B3   USER+3,AUTO
          1 000094  CBF0 0200                            LAB,B4   512,IMO
          1 000096  E380 0000 0000  xent                 LNJ,B6   KNA$REG_USER
          1 000099       0001                            DC       s:7792,PREL

     1337     7792    2           KNA$SSN.FLAGS.CQ = '0'B;

   7792   1 00009A  ECC7 0006                            LDB,B6   @KNA$SSN,AUTO
          1 00009C  8806                                 LBF,'2000'X       ,B6
          1 00009D       2000

     1338     7793    2           END;
PL6.E3A0      #007=KNA$FCNO File=KNA$SUBS.:E05TSI                                WED 07/30/97 01:03 Page:230

   7793   1 00009E  0F81 FFB5                            B        s:7773,PREL
     1339     7794
     1340     7795
     1341     7796    1   END KNA$FCNO;
     1342     7797        %EOD;

PL6.E3A0      #007=KNA$FCNO File=KNA$SUBS.:E05TSI                                WED 07/30/97 01:03 Page:231
--  Include file information  --

   GH_SCHD_E.:E05TOU  is referenced.
   G_LCP6_E.:E05TOU  is referenced.
   GT_LCP6_M.:E05TOU  is referenced.
   KI_CP6.:E05TOU  is referenced.
   GF_LCP6_M.:E05TOU  is referenced.
   GM_LCP6_M.:E05TOU  is referenced.
   GU_LCP6_M.:E05TOU  is referenced.
   GJ_LCP6_M.:E05TOU  is referenced.
   GH_LCP6_M.:E05TOU  is referenced.
   LCP_6.:E05TOU  cannot be made into a system file and is referenced.
   KN_ERRORS_C.:E05TOU  is referenced.
   KNH_MACRO_C.:E05TOU  is referenced.
   KN_DATA_M.:E05TOU  is referenced.
   KNA_MACRO_M.:E05TOU  is referenced.
   K$RWPARM.:E05TOU  is referenced.
      No diagnostics issued in procedure KNA$FCNO.
PL6.E3A0      #007=KNA$FCNO File=KNA$SUBS.:E05TSI                                WED 07/30/97 01:03 Page:232

 **** Variables and constants ****

  ****  Section 000  Data  KNA$FCNO

  ****  Scalars and arrays  ****
HexLoc.c.b A Datatyp(siz) R M Lvl/name                 HexLoc.c.b A Datatyp(siz) R M Lvl/name

     0-0-0/w STRC(32)    r     1 ERR_NOQ

  ****  Auto variables  ****

  ****  Scalars and arrays  ****
HexLoc.c.b A Datatyp(siz) R M Lvl/name                 HexLoc.c.b A Datatyp(siz) R M Lvl/name

     A-0-0/w PTR         r     1 @ERR                       4-0-0/w PTR         r     1 @FNC
     8-0-0/w PTR         r     1 @K$RWPARM                  6-0-0/w PTR         r     1 @KNA$SSN
    *0-0-0/w UBIN(16)    r     1 ERR                       *0-0-0/w UBIN(16)    r     1 FNC
     C-0-0/c CHAR(100)   r     1 HDR                       *0-0-0/w STRC(656)   r     1 K$RWPARM
    3E-0-0/w STRC(528)   r     1 KN$NETPARM                *0-0-0/w STRC(400)   r     1 KNA$SSN
    5F-0-0/b BIT         r     1 USER

  ****  SYMREF variables  ****

  ****  Scalars and arrays  ****
HexLoc.c.b A Datatyp(siz) R M Lvl/name                 HexLoc.c.b A Datatyp(siz) R M Lvl/name

     0-0-0/w STRC(528)   r     1 KN_NETPARM_INIT


   Procedure KNA$FCNO requires 160 words for executable code.
   Procedure KNA$FCNO requires 102 words of local(AUTO) storage.
PL6.E3A0      #007=KNA$FCNO File=KNA$SUBS.:E05TSI                                WED 07/30/97 01:03 Page:233
          *** CROSS REFERENCE LISTING ***
**     DENOTES     IDENTIFIER DEFINITION
<<                 IDENTIFIER'S VALUE SET
>>                 IDENTIFIER'S VALUE USED
<>                 IDENTIFIER SET AND/OR USED
--                 IDENTIFIER REFERENCED
PL6.E3A0      #007=KNA$FCNO File=KNA$SUBS.:E05TSI                                WED 07/30/97 01:03 Page:234
          MINI XREF LISTING

COMMON_START
      7753**LABEL    7749--GOTO
ERR
      7380**DCL         6--PROC     7751--ENTRY    7771<<ASSIGN   7782<<ASSIGN
ERR_NOQ
      7709**DCL      7783>>ASSIGN
FNC
      6980**DCL         6--PROC     7751--ENTRY    7762>>IF       7763<>CALL
HDR
      7383**DCL      7763<>CALL
K$RWPARM
      6998**DCL         6--PROC     7751--ENTRY    7763<>CALL
K$RWPARM.BLKREC
      7028**DCL      7053--REDEF
K$RWPARM.DVE.DVBYTE.VFC
      7068**DCL      7069--REDEF
K$RWPARM.DVE.EOMCHAR
      7076**DCL      7080--REDEF
K$RWPARM.ERR
      7140**DCL      7145--REDEF
K$RWPARM.FC
      7104**DCL      7105--REDEF
K$RWPARM.FLDID
      7286**DCL      7287--REDEF
K$RWPARM.KEYTYPE
      7293**DCL      7294--REDEF
K$RWPARM.MSG$
      6999**DCL      7000--REDEF    7009--REDEF
K$RWPARM.MSGC$
      7000**DCL      7769>>ASSIGN
K$RWPARM.MSGID
      7115**DCL      7120--REDEF
PL6.E3A0      #007=KNA$FCNO File=KNA$SUBS.:E05TSI                                WED 07/30/97 01:03 Page:235
K$RWPARM.MSGIDXT
      7128**DCL      7132--REDEF
K$RWPARM.MSGSZ
      7010**DCL      7770>>ASSIGN
K$RWPARM.ORG
      7264**DCL      7265--REDEF
K$RWPARM.UHDR$
      7153**DCL      7767>>ASSIGN
K$RWPARM.UHDRSZ
      7158**DCL      7768>>ASSIGN
K$RWPARM.VDOFLGS
      7266**DCL      7277--REDEF
KN$NETPARM
      7397**DCL      7765<<ASSIGN   7775<>CALL
KN$NETPARM.ERRCODE
      7504**DCL      7779>>IF       7779>>IF       7782>>ASSIGN
KN$NETPARM.FUNCTION
      7492**DCL      7766<<ASSIGN
KN$NETPARM.LDCT$
      7398**DCL      7773<<ASSIGN   7774>>ASSIGN
KN$NETPARM.MSG$
      7404**DCL      7409--REDEF    7769<<ASSIGN
KN$NETPARM.MSGSZ
      7415**DCL      7770<<ASSIGN
KN$NETPARM.NHDR$
      7456**DCL      7457--REDEF
KN$NETPARM.SHDR$
      7434**DCL      7435--REDEF
KN$NETPARM.SLDCT$
      7511**DCL      7774<<ASSIGN
KN$NETPARM.THDR$
      7445**DCL      7446--REDEF
KN$NETPARM.UHDR$
      7420**DCL      7421--REDEF    7767<<ASSIGN
KN$NETPARM.UHDRSZ
      7429**DCL      7768<<ASSIGN
PL6.E3A0      #007=KNA$FCNO File=KNA$SUBS.:E05TSI                                WED 07/30/97 01:03 Page:236
KNA$BUILD_VDO
      7744**DCL-ENT  7763--CALL
KNA$REG_USER
      7745**DCL-ENT  7791--CALL
KNA$SSN
      7310**DCL         6--PROC     7751--ENTRY    7791--CALL
KNA$SSN.ERROR
      7336**DCL      7783<<ASSIGN
KNA$SSN.FLAGS.CQ
      7314**DCL      7790<<ASSIGN   7792<<ASSIGN
KNA$SSN.IOPRD$
      7372**DCL      7372--REDEF
KNA$SSN.LDCT$
      7369**DCL      7773>>ASSIGN
KNA$SSN.RLCID.NODE#
      7376**DCL      7376--REDEF
KNA$SSN.STATE
      7377**DCL      7758>>IF       7758>>IF
KNS$SEND
      7743**DCL-ENT  7775--CALL
KN_NETPARM_INIT
      7553**DCL      7765>>ASSIGN
KN_NETPARM_INIT.MSG$
      7560**DCL      7565--REDEF
KN_NETPARM_INIT.NHDR$
      7612**DCL      7613--REDEF
KN_NETPARM_INIT.SHDR$
      7590**DCL      7591--REDEF
KN_NETPARM_INIT.THDR$
      7601**DCL      7602--REDEF
KN_NETPARM_INIT.UHDR$
      7576**DCL      7577--REDEF
USER
      7537**DCL      7748<<ASSIGN   7753<<ASSIGN   7779>>IF

PL6.E3A0      #008=KNA$CONV_STR File=KNA$SUBS.:E05TSI                            WED 07/30/97 01:03 Page:237
     1343        1        /*T***********************************************************/
     1344        2        /*T*                                                         */
     1345        3        /*T* Copyright (c) Bull HN Information Systems Inc., 1997    */
     1346        4        /*T*                                                         */
     1347        5        /*T***********************************************************/
     1348        6        KNA$CONV_STR: PROC (WINDOW,ERROR) ALTRET;
     1349        7
     1350        8        /*F* NAME: KNA$CONV_STR
     1351        9             PURPOSE: To convert a stream name to a stream number
     1352       10             DESCRIPTION: This module validates the passed stream name and
     1353       11                          then converts the name to a number.  It does this
     1354       12                        by converting the name to a number.
     1355       13         */
     1356       14
     1357       15        /* Include files */
     1358       16        %INCLUDE F_ERRORS_C;
     1359      256        %INCLUDE LCP_6;
     1360     4535
     1361     4536        /* Parameters */
     1362     4537        %VLP_WINDOW (FPTN=WINDOW,STCLASS=PARAM);
     1363     4581    1   DCL ERROR BIT(32) ALIGNED;
     1364     4582
     1365     4583        /* Auto */
     1366     4584    1   DCL I UBIN;
     1367     4585
     1368     4586
     1369     4587        /* Error codes */
     1370     4588        %VLP_ERRCODE (FPTN=INVRES,ERR#=%E$INVRES,FCG=KN,MID=A,MON='1'B,SEV=%G_SEV_ERROR#);
     1371     4634
     1372     4635        %EJECT;
PL6.E3A0      #008=KNA$CONV_STR File=KNA$SUBS.:E05TSI                            WED 07/30/97 01:03 Page:238
     1373     4636    1      IF WINDOW.FWINDOW = '    '
     1374     4637    2      THEN DO;
     1375     4638    2           WINDOW.FSTR.ID = 0;
     1376     4639    2           RETURN;
     1377     4640    2           END;
     1378     4641    1      IF SUBSTR(WINDOW.FWINDOW,0,2) ~= 'UC'
     1379     4642    2      THEN DO;
     1380     4643    2           ERROR = INVRES;
     1381     4644    2           ALTRETURN;
     1382     4645    2           END;
     1383     4646    1      CALL INDEX(I,SUBSTR(WINDOW.FWINDOW,2,1),'0123456789')
     1384     4647    2      WHENALTRETURN DO;
     1385     4648    2           ERROR = INVRES;
     1386     4649    2           ALTRETURN;
     1387     4650    2           END;
     1388     4651    1      CALL INDEX(I,SUBSTR(WINDOW.FWINDOW,3,1),'0123456789')
     1389     4652    2      WHENALTRETURN DO;
     1390     4653    2           ERROR = INVRES;
     1391     4654    2           ALTRETURN;
     1392     4655    2           END;
     1393     4656    1      CALL CHARBIN(I,SUBSTR(WINDOW.FWINDOW,2,2));
     1394     4657    1      WINDOW.FSTR.ID = I;
     1395     4658    1      RETURN;
     1396     4659
     1397     4660    1   END KNA$CONV_STR;
     1398     4661        %EOD;

PL6.E3A0      #008=KNA$CONV_STR File=KNA$SUBS.:E05TSI                            WED 07/30/97 01:03 Page:239
--  Include file information  --

   G_LCP6_E.:E05TOU  is referenced.
   GT_LCP6_M.:E05TOU  is referenced.
   KI_CP6.:E05TOU  is referenced.
   GF_LCP6_M.:E05TOU  is referenced.
   GM_LCP6_M.:E05TOU  is referenced.
   GU_LCP6_M.:E05TOU  is referenced.
   GJ_LCP6_M.:E05TOU  is referenced.
   GH_LCP6_M.:E05TOU  is referenced.
   LCP_6.:E05TOU  cannot be made into a system file and is referenced.
   F_ERRORS_C.:E05TOU  is referenced.
      No diagnostics issued in procedure KNA$CONV_STR.

   Procedure KNA$CONV_STR requires 118 words for executable code.
   Procedure KNA$CONV_STR requires 12 words of local(AUTO) storage.

PL6.E3A0      #008=KNA$CONV_STR File=KNA$SUBS.:E05TSI                            WED 07/30/97 01:03 Page:240

 Object Unit name= KNA$CONV_STR                               File name= KNA$SUBS.:E05TOU
 UTS= JUL 30 '97 01:03:42.52 WED                              Compiler= PL-6/E31         Sev=      00
 SharedLib= :SHARED_LCP6_SYSTEM                               Alt SharedLib=


    ****  Control sections  ****

 Sect   Type Bound  Init  Size HexSiz  Section name
    0   Data  even  none     2      2  KNA$CONV_STR
    1  RoData even  UTS      8      8  KNA$CONV_STR
    2   Proc  even  none   118     76  KNA$CONV_STR

    ****  Entry defs  ****

                              Check   Calling
                             calling  sequence
  Sect HexLoc Primary Altret sequence   type   Parms  Name
     2      0   yes    yes     yes      Std        2  KNA$CONV_STR

  ****  Entry refs  ****

         Check        Calling
        calling       sequence
Altret sequence SRef   type   Args  Name
                       nStd      0 X6A_AUTO_2
                       nStd      0 X6A_ARET
                       nStd      0 X6A_AALT

  ****  Data refs  ****

  Flags:  r = read only, s = secondary
Flgs Name                             Flgs Name                             Flgs Name
r    G$ROS$
PL6.E3A0      #008=KNA$CONV_STR File=KNA$SUBS.:E05TSI                            WED 07/30/97 01:03 Page:241


     1343        1        /*T***********************************************************/
     1344        2        /*T*                                                         */
     1345        3        /*T* Copyright (c) Bull HN Information Systems Inc., 1997    */
     1346        4        /*T*                                                         */
     1347        5        /*T***********************************************************/
     1348        6        KNA$CONV_STR: PROC (WINDOW,ERROR) ALTRET;

      6   2 000000  D380 0000 0000  xent KNA$CONV_STR    LNJ,B5   X6A_AUTO_2
          2 000003       000C 0002                       DC       12,2

     1349        7
     1350        8        /*F* NAME: KNA$CONV_STR
     1351        9             PURPOSE: To convert a stream name to a stream number
     1352       10             DESCRIPTION: This module validates the passed stream name and
     1353       11                          then converts the name to a number.  It does this
     1354       12                        by converting the name to a number.
     1355       13         */
     1356       14
     1357       15        /* Include files */
     1358       16        %INCLUDE F_ERRORS_C;
     1359      256        %INCLUDE LCP_6;
     1360     4535
     1361     4536        /* Parameters */
     1362     4537        %VLP_WINDOW (FPTN=WINDOW,STCLASS=PARAM);
     1363     4581    1   DCL ERROR BIT(32) ALIGNED;
     1364     4582
     1365     4583        /* Auto */
     1366     4584    1   DCL I UBIN;
     1367     4585
     1368     4586
     1369     4587        /* Error codes */
     1370     4588        %VLP_ERRCODE (FPTN=INVRES,ERR#=%E$INVRES,FCG=KN,MID=A,MON='1'B,SEV=%G_SEV_ERROR#);
     1371     4634
     1372     4635        %EJECT;
PL6.E3A0      #008=KNA$CONV_STR File=KNA$SUBS.:E05TSI                            WED 07/30/97 01:03 Page:242
     1373     4636    1      IF WINDOW.FWINDOW = '    '

   4636   2 000005  ECC7 0004                            LDB,B6   @WINDOW,AUTO
          2 000007  DB80 0000 0000  01                   LAB,B5   0
          2 00000A  0022                                 ACM      ;
          2 00000B       4406 0000                                ALPHANUM(0,B6,,4,FILL),;
          2 00000D       4405 0000                                ALPHANUM(0,B5,,4,FILL)
          2 00000F  5301 0005                            CBNE     s:4641,PREL

     1374     4637    2      THEN DO;

     1375     4638    2           WINDOW.FSTR.ID = 0;

   4638   2 000011  8786                                 CLH      ,B6

     1376     4639    2           RETURN;

   4639   2 000012  C380 0000 0000  xent                 LNJ,B4   X6A_ARET

     1377     4640    2           END;
     1378     4641    1      IF SUBSTR(WINDOW.FWINDOW,0,2) ~= 'UC'

   4641   2 000015  DB80 0000 0000  01                   LAB,B5   0
          2 000018  0022                                 ACM      ;
          2 000019       4206 0000                                ALPHANUM(0,B6,,2,FILL),;
          2 00001B       4205 0002                                ALPHANUM(2,B5,,2,FILL)
          2 00001D  5381 000A                            CBE      s:4646,PREL

     1379     4642    2      THEN DO;

     1380     4643    2           ERROR = INVRES;

   4643   2 00001F  8C80 0000 0000  00                   LDI      INVRES
          2 000022  DCC7 0006                            LDB,B5   @ERROR,AUTO
          2 000024  8D05                                 SDI      ,B5

     1381     4644    2           ALTRETURN;
PL6.E3A0      #008=KNA$CONV_STR File=KNA$SUBS.:E05TSI                            WED 07/30/97 01:03 Page:243

   4644   2 000025  C380 0000 0000  xent                 LNJ,B4   X6A_AALT

     1382     4645    2           END;
     1383     4646    1      CALL INDEX(I,SUBSTR(WINDOW.FWINDOW,2,1),'0123456789')

   4646   2 000028  DB80 0000 0000  01                   LAB,B5   0
          2 00002B  0028                                 SRH      ;
          2 00002C       4106 0001                                ALPHANUM(1,B6,,1),;
          2 00002E       4407 000A                                BINARY(I+2,AUTO,,4),;
          2 000030       4A05 0003                                ALPHANUM(3,B5,,10)
          2 000032  5381 0006                            CBE      s:4646+17,PREL
          2 000034  6C0A                                 LDV,R6   10
          2 000035  EF47 0008                            STR,R6   I,AUTO
          2 000037  0F81 0007                            B        s:4648,PREL
          2 000039  E847 000B                            LDR,R6   I+3,AUTO
          2 00003B  EF47 0008                            STR,R6   I,AUTO
          2 00003D  0F81 000A                            B        s:4651,PREL

     1384     4647    2      WHENALTRETURN DO;

     1385     4648    2           ERROR = INVRES;

   4648   2 00003F  8C80 0000 0000  00                   LDI      INVRES
          2 000042  ECC7 0006                            LDB,B6   @ERROR,AUTO
          2 000044  8D06                                 SDI      ,B6

     1386     4649    2           ALTRETURN;

   4649   2 000045  C380 0000 0000  xent                 LNJ,B4   X6A_AALT

     1387     4650    2           END;
     1388     4651    1      CALL INDEX(I,SUBSTR(WINDOW.FWINDOW,3,1),'0123456789')

   4651   2 000048  DB80 0000 0000  01                   LAB,B5   0
          2 00004B  0028                                 SRH      ;
          2 00004C       C106 0001                                ALPHANUM(1,B6,1,1),;
PL6.E3A0      #008=KNA$CONV_STR File=KNA$SUBS.:E05TSI                            WED 07/30/97 01:03 Page:244
          2 00004E       4407 000A                                BINARY(I+2,AUTO,,4),;
          2 000050       4A05 0003                                ALPHANUM(3,B5,,10)
          2 000052  5381 0006                            CBE      s:4651+17,PREL
          2 000054  6C0A                                 LDV,R6   10
          2 000055  EF47 0008                            STR,R6   I,AUTO
          2 000057  0F81 0007                            B        s:4653,PREL
          2 000059  E847 000B                            LDR,R6   I+3,AUTO
          2 00005B  EF47 0008                            STR,R6   I,AUTO
          2 00005D  0F81 000A                            B        s:4656,PREL

     1389     4652    2      WHENALTRETURN DO;

     1390     4653    2           ERROR = INVRES;

   4653   2 00005F  8C80 0000 0000  00                   LDI      INVRES
          2 000062  ECC7 0006                            LDB,B6   @ERROR,AUTO
          2 000064  8D06                                 SDI      ,B6

     1391     4654    2           ALTRETURN;

   4654   2 000065  C380 0000 0000  xent                 LNJ,B4   X6A_AALT

     1392     4655    2           END;
     1393     4656    1      CALL CHARBIN(I,SUBSTR(WINDOW.FWINDOW,2,2));

   4656   2 000068  002A                                 CDB      ;
          2 000069       0206 0001                                UNPACKED(1,B6,,2,UNSIGNED),;
          2 00006B       0407 000A                                BINARY(I+2,AUTO,,4)
          2 00006D  437F                                 CSYNC    s:4656+4,SPREL
          2 00006E  E847 000B                            LDR,R6   I+3,AUTO
          2 000070  EF47 0008                            STR,R6   I,AUTO

     1394     4657    1      WINDOW.FSTR.ID = I;

   4657   2 000072  E786                                 STH,R6   ,B6

     1395     4658    1      RETURN;
PL6.E3A0      #008=KNA$CONV_STR File=KNA$SUBS.:E05TSI                            WED 07/30/97 01:03 Page:245

   4658   2 000073  C380 0000 0000  xent                 LNJ,B4   X6A_ARET
     1396     4659
     1397     4660    1   END KNA$CONV_STR;
     1398     4661        %EOD;

PL6.E3A0      #008=KNA$CONV_STR File=KNA$SUBS.:E05TSI                            WED 07/30/97 01:03 Page:246
--  Include file information  --

   G_LCP6_E.:E05TOU  is referenced.
   GT_LCP6_M.:E05TOU  is referenced.
   KI_CP6.:E05TOU  is referenced.
   GF_LCP6_M.:E05TOU  is referenced.
   GM_LCP6_M.:E05TOU  is referenced.
   GU_LCP6_M.:E05TOU  is referenced.
   GJ_LCP6_M.:E05TOU  is referenced.
   GH_LCP6_M.:E05TOU  is referenced.
   LCP_6.:E05TOU  cannot be made into a system file and is referenced.
   F_ERRORS_C.:E05TOU  is referenced.
      No diagnostics issued in procedure KNA$CONV_STR.
PL6.E3A0      #008=KNA$CONV_STR File=KNA$SUBS.:E05TSI                            WED 07/30/97 01:03 Page:247

 **** Variables and constants ****

  ****  Section 000  Data  KNA$CONV_STR

  ****  Scalars and arrays  ****
HexLoc.c.b A Datatyp(siz) R M Lvl/name                 HexLoc.c.b A Datatyp(siz) R M Lvl/name

     0-0-0/w STRC(32)    r     1 INVRES

  ****  Auto variables  ****

  ****  Scalars and arrays  ****
HexLoc.c.b A Datatyp(siz) R M Lvl/name                 HexLoc.c.b A Datatyp(siz) R M Lvl/name

     6-0-0/w PTR         r     1 @ERROR                     4-0-0/w PTR         r     1 @WINDOW
    *0-0-0/w BIT (32)    r     1 ERROR                      8-0-0/w UBIN(16)    r     1 I
    *0-0-0/w STRC(256)   r     1 WINDOW


   Procedure KNA$CONV_STR requires 118 words for executable code.
   Procedure KNA$CONV_STR requires 12 words of local(AUTO) storage.
PL6.E3A0      #008=KNA$CONV_STR File=KNA$SUBS.:E05TSI                            WED 07/30/97 01:03 Page:248
          *** CROSS REFERENCE LISTING ***
**     DENOTES     IDENTIFIER DEFINITION
<<                 IDENTIFIER'S VALUE SET
>>                 IDENTIFIER'S VALUE USED
<>                 IDENTIFIER SET AND/OR USED
--                 IDENTIFIER REFERENCED
PL6.E3A0      #008=KNA$CONV_STR File=KNA$SUBS.:E05TSI                            WED 07/30/97 01:03 Page:249
          MINI XREF LISTING

ERROR
      4581**DCL         6--PROC     4643<<ASSIGN   4648<<ASSIGN   4653<<ASSIGN
I
      4584**DCL      4646<<CALLBLT  4651<<CALLBLT  4656<<CALLBLT  4657>>ASSIGN
INVRES
      4602**DCL      4643>>ASSIGN   4648>>ASSIGN   4653>>ASSIGN
WINDOW
      4555**DCL         6--PROC
WINDOW.FSTR.ID
      4555**DCL      4638<<ASSIGN   4657<<ASSIGN
WINDOW.FWINDOW
      4555**DCL      4555--REDEF    4556--REDEF    4636>>IF       4641>>IF       4646>>CALLBLT  4651>>CALLBLT
      4656>>CALLBLT

PL6.E3A0      #009=KNA$CHECK_VDO File=KNA$SUBS.:E05TSI                           WED 07/30/97 01:04 Page:250
     1399        1        /*T***********************************************************/
     1400        2        /*T*                                                         */
     1401        3        /*T* Copyright (c) Bull HN Information Systems Inc., 1997    */
     1402        4        /*T*                                                         */
     1403        5        /*T***********************************************************/
     1404        6        KNA$CHECK_VDO: PROC (K$RWPARM,ERR) ALTRET;
     1405        7
     1406        8        /*F*
     1407        9             NAME: KNA$CHECK_VDO
     1408       10             PURPOSE:
     1409       11                  This routine checks the buffer of  VDOs
     1410       12        */
     1411       13
     1412       14        %INCLUDE CP_6_SUBS;
     1413      554        %INCLUDE GU_LCP6_M;
     1414     1482        %INCLUDE G_LCP6_E;
     1415     1740        %INCLUDE KV$VDO;
     1416     2755        %INCLUDE K$RWPARM;
     1417     3141        %INCLUDE KN_ERRORS_C;
     1418     3205        %K$RWPARM(NAME=K$RWPARM,STCLASS=PARAM);
     1419     3521        %VLP_ERRCODE (FPTN=ERR,STCLASS=PARAM);
     1420     3567        %KV_VDO_E;
     1421     3603        %KV_VDOVLP_E;
     1422     3617        %KV_VDOMRKTYP_E;
     1423     3623        %KV_DATMOD_E;
     1424     3629        %KV_DATCTRCHRTYP_E;
     1425     3635
     1426     3636        /* Table size of all vdos */
     1427     3637        %KV_VDOBYTSIZ (NAME=KNA_VDOBYTSIZ,STCLASS=SYMREF);
     1428     3657        %KV$VDO (STCLASS="BASED(MSG$)");
     1429     3684        %KV$VDOVLP (STCLASS="BASED(MSG$)");
     1430     3720        %KV$VDOVLP_DAT1 (STCLASS="BASED(MSG$)",LAST=",");
     1431     3770    1         2 MSG CHAR(KV$VDOVLP_DAT1.BYTSIZ);
     1432     3771        %KV$VDOVLP_DAT2 (STCLASS="BASED(MSG$)",LAST=",");
     1433     3821    1         2 MSG CHAR(MSGSZ);
     1434     3822        %KV$VDOVLP_FLDID (STCLASS="BASED(MSG$)");
     1435     3873        %KV$VDOVLP_KEY (STCLASS="BASED(MSG$)",LAST=",");
PL6.E3A0      #009=KNA$CHECK_VDO File=KNA$SUBS.:E05TSI                           WED 07/30/97 01:04 Page:251
     1436     3923    1         2 KEY CHAR(KV$VDOVLP_KEY.BYTSIZ);
     1437     3924        %KV$VDOVLP_MRK (STCLASS="BASED(MSG$)");
     1438     3977
     1439     3978        /* Error codes */
     1440     3979        %VLP_ERRCODE (FPTN=ERR_ILGVDO,FCG=KN,MID=A,MON='1'B,ERR#=%E$ILGVDO,SEV=G_SEV_ERROR#)
              3979            ;
     1441     4025        %VLP_ERRCODE (FPTN=ERR_ILGMRK,FCG=KN,MID=A,MON='1'B,ERR#=%E$ILGMRK,SEV=G_SEV_ERROR#)
              4025            ;
     1442     4071        %VLP_ERRCODE (FPTN=ERR_ILGVDOVLP,FCG=KN,MID=A,MON='1'B,ERR#=%E$ILGVDOVLP,SEV=
              4071            G_SEV_ERROR#);
     1443     4117        %VLP_ERRCODE (FPTN=ERR_MALFORMED,FCG=KN,MID=A,MON='1'B,ERR#=%E$MALFORMED,SEV=
              4117            G_SEV_ERROR#);
     1444     4163
     1445     4164    1   DCL MSG$ CPTR;
     1446     4165    1   DCL MSGSZ UBIN;
     1447     4166    1   DCL B$HWORD UBIN(16) BASED CALIGNED;
     1448     4167    1   DCL TMP_SZ UBIN;
     1449     4168    1   DCL MARKER BIT(1);
     1450     4169    1   DCL VLP BIT(1);
     1451     4170    1   DCL LAST$ CPTR;
     1452     4171    1   DCL LAST BIT(1);
     1453     4172        %EJECT;
PL6.E3A0      #009=KNA$CHECK_VDO File=KNA$SUBS.:E05TSI                           WED 07/30/97 01:04 Page:252
     1454     4173
     1455     4174    1      MSG$ = K$RWPARM.UHDR$;
     1456     4175    1      TMP_SZ = K$RWPARM.UHDRSZ;
     1457     4176    1      MARKER = '0'B;
     1458     4177
     1459     4178    2      DO WHILE (TMP_SZ > 0 AND NOT MARKER);
     1460     4179
     1461     4180    2           VLP = KV$VDO.VLP;
     1462     4181    3           DO CASE (KV$VDO.FNC);
     1463     4182
     1464     4183    3            CASE (%KV_VDO_FNC_DAT,
     1465     4184    3             %KV_VDO_FNC_DCLFLD,%KV_VDO_FNC_ERS,%KV_VDO_FNC_RLSFLD,
     1466     4185    3             %KV_VDO_FNC_SLCFLD,%KV_VDO_FNC_SLCGRPRND,%KV_VDO_FNC_SLCQLF,
     1467     4186    3             %KV_VDO_FNC_UPDRELDVC);
     1468     4187
     1469     4188    3            CASE (%KV_VDO_FNC_RQSMRK);
     1470     4189    3              MARKER = '1'B;
     1471     4190
     1472     4191
     1473     4192    3            CASE (ELSE);
     1474     4193    3              ERR = ERR_ILGVDO;
     1475     4194    3              ALTRETURN;
     1476     4195        /*E* ERROR: KNA-E$ILGVDO
     1477     4196             MESSAGE: A illegal VDO function was passed on a M$WRTMLT.
     1478     4197        */
     1479     4198
     1480     4199
     1481     4200    3              END;                         /* End cases                          */
     1482     4201
     1483     4202    2           TMP_SZ = TMP_SZ - KNA_VDOBYTSIZ(KV$VDO.FNC);
     1484     4203    2           MSG$ = PINCRC(MSG$,KNA_VDOBYTSIZ(KV$VDO.FNC));
     1485     4204
     1486     4205    2           LAST = '0'B;
     1487     4206
     1488     4207    2           IF VLP
     1489     4208    2           THEN
     1490     4209    3           DO WHILE (TMP_SZ > 0 AND NOT LAST);
PL6.E3A0      #009=KNA$CHECK_VDO File=KNA$SUBS.:E05TSI                           WED 07/30/97 01:04 Page:253
     1491     4210
     1492     4211    3                LAST = KV$VDOVLP.LST;
     1493     4212
     1494     4213    3                LAST$ = MSG$;
     1495     4214
     1496     4215    4                DO CASE (MSG$->KV$VDOVLP.TYP);
     1497     4216
     1498     4217    4                 CASE (%KV_VDOVLP_TYP_DAT1);
     1499     4218    4                   MSGSZ = KV$VDOVLP_DAT1.BYTSIZ;
     1500     4219    4                   TMP_SZ = TMP_SZ - SIZEC(KV$VDOVLP_DAT1);
     1501     4220    4                   MSG$ = PINCRC(MSG$,SIZEC(KV$VDOVLP_DAT1));
     1502     4221    4                   IF MOD(TMP_SZ,2) ~= 0
     1503     4222    5                   THEN DO;
     1504     4223    5                        TMP_SZ = TMP_SZ - 1;
     1505     4224    5                        MSG$ = PINCRC(MSG$,1);
     1506     4225    5                        END;
     1507     4226
     1508     4227    4                 CASE (%KV_VDOVLP_TYP_DAT2);
     1509     4228    4                   MSGSZ = KV$VDOVLP_DAT2.BYTSIZ;
     1510     4229    4                   TMP_SZ = TMP_SZ - SIZEC(KV$VDOVLP_DAT2);
     1511     4230    4                   MSG$=PINCRC(MSG$,SIZEC(KV$VDOVLP_DAT2));
     1512     4231    4                   IF MOD(TMP_SZ,2) ~= 0
     1513     4232    5                   THEN DO;
     1514     4233    5                        TMP_SZ = TMP_SZ - 1;
     1515     4234    5                        MSG$ = PINCRC(MSG$,1);
     1516     4235    5                        END;
     1517     4236
     1518     4237    4                 CASE (%KV_VDOVLP_TYP_FLDID);
     1519     4238    4                   TMP_SZ = TMP_SZ - SIZEC(KV$VDOVLP_FLDID);
     1520     4239    4                   MSG$=PINCRC(MSG$,SIZEC(KV$VDOVLP_FLDID));
     1521     4240
     1522     4241
     1523     4242    4                 CASE (%KV_VDOVLP_TYP_KEY);
     1524     4243    4                   TMP_SZ = TMP_SZ - SIZEC(KV$VDOVLP_KEY);
     1525     4244    4                   MSG$=PINCRC(MSG$,SIZEC(KV$VDOVLP_KEY));
     1526     4245
     1527     4246    4                 CASE (%KV_VDOVLP_TYP_MRK);
PL6.E3A0      #009=KNA$CHECK_VDO File=KNA$SUBS.:E05TSI                           WED 07/30/97 01:04 Page:254
     1528     4247    4                   KV$VDOVLP_MRK.MRKTYP = %KV_VDOMRKTYP_ENDACK;
     1529     4248    4                   KV$VDOVLP_MRK.RSP = '0'B;
     1530     4249    4                   MSG$ = PINCRW(MSG$,SIZEW(KV$VDOVLP_MRK));
     1531     4250    4                   TMP_SZ = TMP_SZ - SIZEC(KV$VDOVLP_MRK);
     1532     4251    4                   IF TMP_SZ ~= 0          /* Not last thing in buffer           */
     1533     4252    5                   THEN DO;
     1534     4253    5                        ERR = ERR_ILGMRK;
     1535     4254    5                        ALTRETURN;
     1536     4255    5                        END;
     1537     4256        /*E* ERROR: KNA-E$ILGMRK
     1538     4257             MESSAGE: Marker VLP is not last thing in the buffer.
     1539     4258        */
     1540     4259
     1541     4260
     1542     4261    4                 CASE (ELSE);
     1543     4262    4                   ERR = ERR_ILGVDOVLP;
     1544     4263    4                   ALTRETURN;
     1545     4264        /*E* ERROR: KNA-E$ILGVDOVLP
     1546     4265             MESSAGE: Illegal VDOVLP in M$WRTMLT buffer.
     1547     4266        */
     1548     4267
     1549     4268
     1550     4269    4                   END;                    /* End cases                          */
     1551     4270
     1552     4271    3                TMP_SZ = (TMP_SZ / 2) * 2;
     1553     4272    3                MSG$ = PINCRC(K$RWPARM.UHDR$,((POFFC(MSG$,K$RWPARM.UHDR$)+1)/2)*2);
     1554     4273    3                END;
     1555     4274
     1556     4275    2           END;
     1557     4276    1      IF TMP_SZ ~= 0
     1558     4277    2      THEN DO;
     1559     4278    2           ERR = ERR_MALFORMED;
     1560     4279    2           ALTRETURN;
     1561     4280    2           END;
     1562     4281        /*E* ERROR: KNA-E$MALFORMED
     1563     4282             MESSAGE: Malformed buffer on a M$WRTMLT.
     1564     4283             MESSAGE1: Either there was a malformed VDO or VDOVLP.
PL6.E3A0      #009=KNA$CHECK_VDO File=KNA$SUBS.:E05TSI                           WED 07/30/97 01:04 Page:255
     1565     4284        */
     1566     4285
     1567     4286    1      IF LAST$ = ADDR(NIL) OR LAST$->KV$VDOVLP.TYP ~= %KV_VDOVLP_TYP_MRK
     1568     4287    1        OR NOT MARKER
     1569     4288    2      THEN DO;
     1570     4289    2           ERR = ERR_ILGMRK;
     1571     4290    2           ALTRETURN;
     1572     4291    2           END;
     1573     4292
     1574     4293    1      RETURN;
     1575     4294
     1576     4295
     1577     4296
     1578     4297    1   END KNA$CHECK_VDO;
     1579     4298        %EOD;

PL6.E3A0      #009=KNA$CHECK_VDO File=KNA$SUBS.:E05TSI                           WED 07/30/97 01:04 Page:256
--  Include file information  --

   KN_ERRORS_C.:E05TOU  is referenced.
   K$RWPARM.:E05TOU  is referenced.
   KV$VDO.:E05TOU  is referenced.
   G_LCP6_E.:E05TOU  is referenced.
   GU_LCP6_M.:E05TOU  is referenced.
   CP_6_SUBS.:E05TOU  is referenced.
      No diagnostics issued in procedure KNA$CHECK_VDO.

   Procedure KNA$CHECK_VDO requires 389 words for executable code.
   Procedure KNA$CHECK_VDO requires 22 words of local(AUTO) storage.

PL6.E3A0      #009=KNA$CHECK_VDO File=KNA$SUBS.:E05TSI                           WED 07/30/97 01:04 Page:257

 Object Unit name= KNA$CHECK_VDO                              File name= KNA$SUBS.:E05TOU
 UTS= JUL 30 '97 01:04:01.92 WED                              Compiler= PL-6/E31         Sev=      00
 SharedLib= :SHARED_LCP6_SYSTEM                               Alt SharedLib=


    ****  Control sections  ****

 Sect   Type Bound  Init  Size HexSiz  Section name
    0   Data  even  none     8      8  KNA$CHECK_VDO
    1   Proc  even  none   389    185  KNA$CHECK_VDO

    ****  Entry defs  ****

                              Check   Calling
                             calling  sequence
  Sect HexLoc Primary Altret sequence   type   Parms  Name
     1      0   yes    yes     yes      Std        2  KNA$CHECK_VDO

  ****  Entry refs  ****

         Check        Calling
        calling       sequence
Altret sequence SRef   type   Args  Name
                       nStd      0 X6A_AUTO_2
                       nStd      0 X6A_AALT
                       nStd      0 X6A_ARET

  ****  Data refs  ****

  Flags:  r = read only, s = secondary
Flgs Name                             Flgs Name                             Flgs Name
     KNA_VDOBYTSIZ                    r    G$ROS$
PL6.E3A0      #009=KNA$CHECK_VDO File=KNA$SUBS.:E05TSI                           WED 07/30/97 01:04 Page:258


     1399        1        /*T***********************************************************/
     1400        2        /*T*                                                         */
     1401        3        /*T* Copyright (c) Bull HN Information Systems Inc., 1997    */
     1402        4        /*T*                                                         */
     1403        5        /*T***********************************************************/
     1404        6        KNA$CHECK_VDO: PROC (K$RWPARM,ERR) ALTRET;

      6   1 000000  D380 0000 0000  xent KNA$CHECK_VDO   LNJ,B5   X6A_AUTO_2
          1 000003       0016 0002                       DC       22,2

     1405        7
     1406        8        /*F*
     1407        9             NAME: KNA$CHECK_VDO
     1408       10             PURPOSE:
     1409       11                  This routine checks the buffer of  VDOs
     1410       12        */
     1411       13
     1412       14        %INCLUDE CP_6_SUBS;
     1413      554        %INCLUDE GU_LCP6_M;
     1414     1482        %INCLUDE G_LCP6_E;
     1415     1740        %INCLUDE KV$VDO;
     1416     2755        %INCLUDE K$RWPARM;
     1417     3141        %INCLUDE KN_ERRORS_C;
     1418     3205        %K$RWPARM(NAME=K$RWPARM,STCLASS=PARAM);
     1419     3521        %VLP_ERRCODE (FPTN=ERR,STCLASS=PARAM);
     1420     3567        %KV_VDO_E;
     1421     3603        %KV_VDOVLP_E;
     1422     3617        %KV_VDOMRKTYP_E;
     1423     3623        %KV_DATMOD_E;
     1424     3629        %KV_DATCTRCHRTYP_E;
     1425     3635
     1426     3636        /* Table size of all vdos */
     1427     3637        %KV_VDOBYTSIZ (NAME=KNA_VDOBYTSIZ,STCLASS=SYMREF);
     1428     3657        %KV$VDO (STCLASS="BASED(MSG$)");
     1429     3684        %KV$VDOVLP (STCLASS="BASED(MSG$)");
     1430     3720        %KV$VDOVLP_DAT1 (STCLASS="BASED(MSG$)",LAST=",");
PL6.E3A0      #009=KNA$CHECK_VDO File=KNA$SUBS.:E05TSI                           WED 07/30/97 01:04 Page:259
     1431     3770    1         2 MSG CHAR(KV$VDOVLP_DAT1.BYTSIZ);
     1432     3771        %KV$VDOVLP_DAT2 (STCLASS="BASED(MSG$)",LAST=",");
     1433     3821    1         2 MSG CHAR(MSGSZ);
     1434     3822        %KV$VDOVLP_FLDID (STCLASS="BASED(MSG$)");
     1435     3873        %KV$VDOVLP_KEY (STCLASS="BASED(MSG$)",LAST=",");
     1436     3923    1         2 KEY CHAR(KV$VDOVLP_KEY.BYTSIZ);
     1437     3924        %KV$VDOVLP_MRK (STCLASS="BASED(MSG$)");
     1438     3977
     1439     3978        /* Error codes */
     1440     3979       %VLP_ERRCODE (FPTN=ERR_ILGVDO,FCG=KN,MID=A,MON='1'B,ERR#=%E$ILGVDO,SEV=G_SEV_ERROR#)
              3979            ;
     1441     4025       %VLP_ERRCODE (FPTN=ERR_ILGMRK,FCG=KN,MID=A,MON='1'B,ERR#=%E$ILGMRK,SEV=G_SEV_ERROR#)
              4025            ;
     1442     4071        %VLP_ERRCODE (FPTN=ERR_ILGVDOVLP,FCG=KN,MID=A,MON='1'B,ERR#=%E$ILGVDOVLP,SEV=
              4071            G_SEV_ERROR#);
     1443     4117        %VLP_ERRCODE (FPTN=ERR_MALFORMED,FCG=KN,MID=A,MON='1'B,ERR#=%E$MALFORMED,SEV=
              4117            G_SEV_ERROR#);
     1444     4163
     1445     4164    1   DCL MSG$ CPTR;
     1446     4165    1   DCL MSGSZ UBIN;
     1447     4166    1   DCL B$HWORD UBIN(16) BASED CALIGNED;
     1448     4167    1   DCL TMP_SZ UBIN;
     1449     4168    1   DCL MARKER BIT(1);
     1450     4169    1   DCL VLP BIT(1);
     1451     4170    1   DCL LAST$ CPTR;
     1452     4171    1   DCL LAST BIT(1);
     1453     4172        %EJECT;
PL6.E3A0      #009=KNA$CHECK_VDO File=KNA$SUBS.:E05TSI                           WED 07/30/97 01:04 Page:260
     1454     4173
     1455     4174    1      MSG$ = K$RWPARM.UHDR$;

   4174   1 000005  ECC7 0004                            LDB,B6   @K$RWPARM,AUTO
          1 000007  DCC6 0017                            LDB,B5   23,B6
          1 000009  DFC7 0008                            STB,B5   MSG$,AUTO

     1456     4175    1      TMP_SZ = K$RWPARM.UHDRSZ;

   4175   1 00000B  E846 0019                            LDR,R6   25,B6
          1 00000D  EF47 000B                            STR,R6   TMP_SZ,AUTO

     1457     4176    1      MARKER = '0'B;

   4176   1 00000F  8747 000C                            CL       MARKER,AUTO

     1458     4177
     1459     4178    2      DO WHILE (TMP_SZ > 0 AND NOT MARKER);

   4178   1 000011  0F81 0143                            B        s:4275,PREL

     1460     4179
     1461     4180    2           VLP = KV$VDO.VLP;

   4180   1 000013  ECC7 0008                            LDB,B6   MSG$,AUTO
          1 000015  E806                                 LDR,R6   ,B6
          1 000016  6008                                 SOL,R6   8
          1 000017  E570 8000                            AND,R6   -32768,IMO
          1 000019  EF47 000D                            STR,R6   VLP,AUTO

     1462     4181    3           DO CASE (KV$VDO.FNC);

   4181   1 00001B  B286                                 LLH,R3   ,B6
          1 00001C  3EFB                                 ADV,R3   -5
          1 00001D  3D1C                                 CMV,R3   28
          1 00001E  0281 0028                            BGE      s:4193,PREL
          1 000020  A830 0000 0026  01                   LDR,R2   s:4181+11,R3
PL6.E3A0      #009=KNA$CHECK_VDO File=KNA$SUBS.:E05TSI                           WED 07/30/97 01:04 Page:261
          1 000023  83A0 0000 0042  01                   JMP      s:4189,R2
          1 000026       000E                            DC       s:4202,PREL
          1 000027       0005                            DC       s:4193,PREL
          1 000028       000E                            DC       s:4202,PREL
          1 000029       0005                            DC       s:4193,PREL
          1 00002A       0005                            DC       s:4193,PREL
          1 00002B       0005                            DC       s:4193,PREL
          1 00002C       0005                            DC       s:4193,PREL
          1 00002D       000E                            DC       s:4202,PREL
          1 00002E       0005                            DC       s:4193,PREL
          1 00002F       0005                            DC       s:4193,PREL
          1 000030       0005                            DC       s:4193,PREL
          1 000031       0005                            DC       s:4193,PREL
          1 000032       0005                            DC       s:4193,PREL
          1 000033       0005                            DC       s:4193,PREL
          1 000034       0005                            DC       s:4193,PREL
          1 000035       000E                            DC       s:4202,PREL
          1 000036       0005                            DC       s:4193,PREL
          1 000037       0005                            DC       s:4193,PREL
          1 000038       0005                            DC       s:4193,PREL
          1 000039       0005                            DC       s:4193,PREL
          1 00003A       000E                            DC       s:4202,PREL
          1 00003B       000E                            DC       s:4202,PREL
          1 00003C       000E                            DC       s:4202,PREL
          1 00003D       0005                            DC       s:4193,PREL
          1 00003E       0005                            DC       s:4193,PREL
          1 00003F       000E                            DC       s:4202,PREL
          1 000040       0005                            DC       s:4193,PREL
          1 000041       0000                            DC       s:4189,PREL

     1463     4182
     1464     4183    3            CASE (%KV_VDO_FNC_DAT,

     1465     4184    3             %KV_VDO_FNC_DCLFLD,%KV_VDO_FNC_ERS,%KV_VDO_FNC_RLSFLD,
     1466     4185    3             %KV_VDO_FNC_SLCFLD,%KV_VDO_FNC_SLCGRPRND,%KV_VDO_FNC_SLCQLF,
     1467     4186    3             %KV_VDO_FNC_UPDRELDVC);
     1468     4187
PL6.E3A0      #009=KNA$CHECK_VDO File=KNA$SUBS.:E05TSI                           WED 07/30/97 01:04 Page:262
     1469     4188    3            CASE (%KV_VDO_FNC_RQSMRK);

     1470     4189    3              MARKER = '1'B;

   4189   1 000042  8947 000C                            LBT,'8000'X       MARKER,AUTO
   4189   1 000044       8000
          1 000045  0F81 000A                            B        s:4202,PREL

     1471     4190
     1472     4191
     1473     4192    3            CASE (ELSE);

     1474     4193    3              ERR = ERR_ILGVDO;

   4193   1 000047  8C80 0000 0000  00                   LDI      ERR_ILGVDO
          1 00004A  DCC7 0006                            LDB,B5   @ERR,AUTO
          1 00004C  8D05                                 SDI      ,B5

     1475     4194    3              ALTRETURN;

   4194   1 00004D  C380 0000 0000  xent                 LNJ,B4   X6A_AALT

     1476     4195        /*E* ERROR: KNA-E$ILGVDO
     1477     4196             MESSAGE: A illegal VDO function was passed on a M$WRTMLT.
     1478     4197        */
     1479     4198
     1480     4199
     1481     4200    3              END;                         /* End cases                          */

     1482     4201
     1483     4202    2           TMP_SZ = TMP_SZ - KNA_VDOBYTSIZ(KV$VDO.FNC);

   4202   1 000050  9286                                 LLH,R1   ,B6
          1 000051  D290 0000 0000  xsym                 LLH,R5   KNA_VDOBYTSIZ,R1
          1 000054  D247 000B                            SUB,R5   TMP_SZ,AUTO
          1 000056  8255                                 NEG      R5
          1 000057  DF47 000B                            STR,R5   TMP_SZ,AUTO
PL6.E3A0      #009=KNA$CHECK_VDO File=KNA$SUBS.:E05TSI                           WED 07/30/97 01:04 Page:263

     1484     4203    2           MSG$ = PINCRC(MSG$,KNA_VDOBYTSIZ(KV$VDO.FNC));

   4203   1 000059  B290 0000 0000  xsym                 LLH,R3   KNA_VDOBYTSIZ,R1
          1 00005C  8CC7 0008                            LDI      MSG$,AUTO
          1 00005E  7031                                 DCL,R7   1
          1 00005F  8D47 0012                            SDI      LAST+2,AUTO
          1 000061  F853                                 LDR,R7   R3
          1 000062  6C00                                 LDV,R6   0
          1 000063  8447 0012                            AID      LAST+2,AUTO
          1 000065  7071                                 DCR,R7   1
          1 000066  8D47 0008                            SDI      MSG$,AUTO

     1485     4204
     1486     4205    2           LAST = '0'B;

   4205   1 000068  8747 0010                            CL       LAST,AUTO

     1487     4206
     1488     4207    2           IF VLP

   4207   1 00006A  89C7 000D                            CMZ      VLP,AUTO
          1 00006C  0881 00E8                            BAGE     s:4275,PREL

     1489     4208    2           THEN
     1490     4209    3           DO WHILE (TMP_SZ > 0 AND NOT LAST);

   4209   1 00006E  0F81 00E0                            B        s:4273,PREL

     1491     4210
     1492     4211    3                LAST = KV$VDOVLP.LST;

   4211   1 000070  ECC7 0008                            LDB,B6   MSG$,AUTO
          1 000072  E806                                 LDR,R6   ,B6
          1 000073  E570 8000                            AND,R6   -32768,IMO
          1 000075  EF47 0010                            STR,R6   LAST,AUTO

PL6.E3A0      #009=KNA$CHECK_VDO File=KNA$SUBS.:E05TSI                           WED 07/30/97 01:04 Page:264
     1493     4212
     1494     4213    3                LAST$ = MSG$;

   4213   1 000077  8CC7 0008                            LDI      MSG$,AUTO
          1 000079  8D47 000E                            SDI      LAST$,AUTO

     1495     4214
     1496     4215    4                DO CASE (MSG$->KV$VDOVLP.TYP);

   4215   1 00007B  B806                                 LDR,R3   ,B6
          1 00007C  3048                                 SOR,R3   8
          1 00007D  B570 007F                            AND,R3   127,IMO
          1 00007F  3EFC                                 ADV,R3   -4
          1 000080  3D06                                 CMV,R3   6
          1 000081  0281 009F                            BGE      s:4262,PREL
          1 000083  A830 0000 0089  01                   LDR,R2   s:4215+14,R3
          1 000086  83A0 0000 008F  01                   JMP      s:4218,R2
          1 000089       0000                            DC       s:4218,PREL
          1 00008A       0029                            DC       s:4228,PREL
          1 00008B       0092                            DC       s:4262,PREL
          1 00008C       0050                            DC       s:4238,PREL
          1 00008D       005C                            DC       s:4243,PREL
          1 00008E       0076                            DC       s:4247,PREL

     1497     4216
     1498     4217    4                 CASE (%KV_VDOVLP_TYP_DAT1);

     1499     4218    4                   MSGSZ = KV$VDOVLP_DAT1.BYTSIZ;

   4218   1 00008F  D806                                 LDR,R5   ,B6
          1 000090  D570 00FF                            AND,R5   255,IMO
          1 000092  DF47 000A                            STR,R5   MSGSZ,AUTO

     1500     4219    4                   TMP_SZ = TMP_SZ - SIZEC(KV$VDOVLP_DAT1);

   4219   1 000094  5003                                 SOL,R5   3
          1 000095  5E1F                                 ADV,R5   31
PL6.E3A0      #009=KNA$CHECK_VDO File=KNA$SUBS.:E05TSI                           WED 07/30/97 01:04 Page:265
          1 000096  5044                                 SOR,R5   4
          1 000097  5001                                 SOL,R5   1
          1 000098  8255                                 NEG      R5
          1 000099  DA47 000B                            ADD,R5   TMP_SZ,AUTO
          1 00009B  DF47 000B                            STR,R5   TMP_SZ,AUTO

     1501     4220    4                   MSG$ = PINCRC(MSG$,SIZEC(KV$VDOVLP_DAT1));

   4220   1 00009D  C806                                 LDR,R4   ,B6
          1 00009E  C570 00FF                            AND,R4   255,IMO
          1 0000A0  4003                                 SOL,R4   3
          1 0000A1  4E1F                                 ADV,R4   31
          1 0000A2  4044                                 SOR,R4   4
          1 0000A3  F854                                 LDR,R7   R4
          1 0000A4  6C00                                 LDV,R6   0
          1 0000A5  8447 0008                            AID      MSG$,AUTO
          1 0000A7  8D47 0008                            SDI      MSG$,AUTO

     1502     4221    4                   IF MOD(TMP_SZ,2) ~= 0

   4221   1 0000A9  D570 0001                            AND,R5   1,IMO
          1 0000AB  5901 007E                            BEZ,R5   s:4271,PREL

     1503     4222    5                   THEN DO;

     1504     4223    5                        TMP_SZ = TMP_SZ - 1;

   4223   1 0000AD  88C7 000B                            DEC      TMP_SZ,AUTO

     1505     4224    5                        MSG$ = PINCRC(MSG$,1);

   4224   1 0000AF  7031                                 DCL,R7   1
          1 0000B0  8470 0000 0001                       AID      1,IMO
          1 0000B3  7071                                 DCR,R7   1
          1 0000B4  8D47 0008                            SDI      MSG$,AUTO

     1506     4225    5                        END;
PL6.E3A0      #009=KNA$CHECK_VDO File=KNA$SUBS.:E05TSI                           WED 07/30/97 01:04 Page:266

   4225   1 0000B6  0F81 0073                            B        s:4271,PREL

     1507     4226
     1508     4227    4                 CASE (%KV_VDOVLP_TYP_DAT2);

     1509     4228    4                   MSGSZ = KV$VDOVLP_DAT2.BYTSIZ;

   4228   1 0000B8  D846 0001                            LDR,R5   1,B6
          1 0000BA  DF47 000A                            STR,R5   MSGSZ,AUTO

     1510     4229    4                   TMP_SZ = TMP_SZ - SIZEC(KV$VDOVLP_DAT2);

   4229   1 0000BC  5003                                 SOL,R5   3
          1 0000BD  5E2F                                 ADV,R5   47
          1 0000BE  5044                                 SOR,R5   4
          1 0000BF  5001                                 SOL,R5   1
          1 0000C0  8255                                 NEG      R5
          1 0000C1  DA47 000B                            ADD,R5   TMP_SZ,AUTO
          1 0000C3  DF47 000B                            STR,R5   TMP_SZ,AUTO

     1511     4230    4                   MSG$=PINCRC(MSG$,SIZEC(KV$VDOVLP_DAT2));

   4230   1 0000C5  C847 000A                            LDR,R4   MSGSZ,AUTO
          1 0000C7  4003                                 SOL,R4   3
          1 0000C8  4E2F                                 ADV,R4   47
          1 0000C9  4044                                 SOR,R4   4
          1 0000CA  F854                                 LDR,R7   R4
          1 0000CB  6C00                                 LDV,R6   0
          1 0000CC  8447 0008                            AID      MSG$,AUTO
          1 0000CE  8D47 0008                            SDI      MSG$,AUTO

     1512     4231    4                   IF MOD(TMP_SZ,2) ~= 0

   4231   1 0000D0  D570 0001                            AND,R5   1,IMO
          1 0000D2  5901 0057                            BEZ,R5   s:4271,PREL

PL6.E3A0      #009=KNA$CHECK_VDO File=KNA$SUBS.:E05TSI                           WED 07/30/97 01:04 Page:267
     1513     4232    5                   THEN DO;

     1514     4233    5                        TMP_SZ = TMP_SZ - 1;

   4233   1 0000D4  88C7 000B                            DEC      TMP_SZ,AUTO

     1515     4234    5                        MSG$ = PINCRC(MSG$,1);

   4234   1 0000D6  7031                                 DCL,R7   1
          1 0000D7  8470 0000 0001                       AID      1,IMO
          1 0000DA  7071                                 DCR,R7   1
          1 0000DB  8D47 0008                            SDI      MSG$,AUTO

     1516     4235    5                        END;

   4235   1 0000DD  0F81 004C                            B        s:4271,PREL

     1517     4236
     1518     4237    4                 CASE (%KV_VDOVLP_TYP_FLDID);

     1519     4238    4                   TMP_SZ = TMP_SZ - SIZEC(KV$VDOVLP_FLDID);

   4238   1 0000DF  D847 000B                            LDR,R5   TMP_SZ,AUTO
          1 0000E1  5EFC                                 ADV,R5   -4
          1 0000E2  DF47 000B                            STR,R5   TMP_SZ,AUTO

     1520     4239    4                   MSG$=PINCRC(MSG$,SIZEC(KV$VDOVLP_FLDID));

   4239   1 0000E4  8470 0000 0002                       AID      2,IMO
          1 0000E7  8D47 0008                            SDI      MSG$,AUTO
          1 0000E9  0F81 0040                            B        s:4271,PREL

     1521     4240
     1522     4241
     1523     4242    4                 CASE (%KV_VDOVLP_TYP_KEY);

     1524     4243    4                   TMP_SZ = TMP_SZ - SIZEC(KV$VDOVLP_KEY);
PL6.E3A0      #009=KNA$CHECK_VDO File=KNA$SUBS.:E05TSI                           WED 07/30/97 01:04 Page:268

   4243   1 0000EB  D806                                 LDR,R5   ,B6
          1 0000EC  D570 00FF                            AND,R5   255,IMO
          1 0000EE  5003                                 SOL,R5   3
          1 0000EF  5E1F                                 ADV,R5   31
          1 0000F0  5044                                 SOR,R5   4
          1 0000F1  5001                                 SOL,R5   1
          1 0000F2  8255                                 NEG      R5
          1 0000F3  DA47 000B                            ADD,R5   TMP_SZ,AUTO
          1 0000F5  DF47 000B                            STR,R5   TMP_SZ,AUTO

     1525     4244    4                   MSG$=PINCRC(MSG$,SIZEC(KV$VDOVLP_KEY));

   4244   1 0000F7  C806                                 LDR,R4   ,B6
          1 0000F8  C570 00FF                            AND,R4   255,IMO
          1 0000FA  4003                                 SOL,R4   3
          1 0000FB  4E1F                                 ADV,R4   31
          1 0000FC  4044                                 SOR,R4   4
          1 0000FD  F854                                 LDR,R7   R4
          1 0000FE  6C00                                 LDV,R6   0
          1 0000FF  8447 0008                            AID      MSG$,AUTO
          1 000101  8D47 0008                            SDI      MSG$,AUTO
          1 000103  0F81 0026                            B        s:4271,PREL

     1526     4245
     1527     4246    4                 CASE (%KV_VDOVLP_TYP_MRK);

     1528     4247    4                   KV$VDOVLP_MRK.MRKTYP = %KV_VDOMRKTYP_ENDACK;

   4247   1 000105  5C01                                 LDV,R5   1
          1 000106  DAC6 0001                            SRM,R5,'00FF'X    1,B6
          1 000108       00FF

     1529     4248    4                   KV$VDOVLP_MRK.RSP = '0'B;

   4248   1 000109  8846 0001                            LBF,'8000'X       1,B6
   4248   1 00010B       8000
PL6.E3A0      #009=KNA$CHECK_VDO File=KNA$SUBS.:E05TSI                           WED 07/30/97 01:04 Page:269

     1530     4249    4                   MSG$ = PINCRW(MSG$,SIZEW(KV$VDOVLP_MRK));

   4249   1 00010C  8470 0000 0004                       AID      4,IMO
          1 00010F  8D47 0008                            SDI      MSG$,AUTO

     1531     4250    4                   TMP_SZ = TMP_SZ - SIZEC(KV$VDOVLP_MRK);

   4250   1 000111  C847 000B                            LDR,R4   TMP_SZ,AUTO
          1 000113  4EF8                                 ADV,R4   -8
          1 000114  CF47 000B                            STR,R4   TMP_SZ,AUTO

     1532     4251    4                   IF TMP_SZ ~= 0          /* Not last thing in buffer           */

   4251   1 000116  4901 0013                            BEZ,R4   s:4271,PREL

     1533     4252    5                   THEN DO;

     1534     4253    5                        ERR = ERR_ILGMRK;

   4253   1 000118  8C80 0000 0002  00                   LDI      ERR_ILGMRK
          1 00011B  ECC7 0006                            LDB,B6   @ERR,AUTO
          1 00011D  8D06                                 SDI      ,B6

     1535     4254    5                        ALTRETURN;

   4254   1 00011E  C380 0000 0000  xent                 LNJ,B4   X6A_AALT

     1536     4255    5                        END;
     1537     4256        /*E* ERROR: KNA-E$ILGMRK
     1538     4257             MESSAGE: Marker VLP is not last thing in the buffer.
     1539     4258        */
     1540     4259
     1541     4260
     1542     4261    4                 CASE (ELSE);

     1543     4262    4                   ERR = ERR_ILGVDOVLP;
PL6.E3A0      #009=KNA$CHECK_VDO File=KNA$SUBS.:E05TSI                           WED 07/30/97 01:04 Page:270

   4262   1 000121  8C80 0000 0004  00                   LDI      ERR_ILGVDOVLP
          1 000124  DCC7 0006                            LDB,B5   @ERR,AUTO
          1 000126  8D05                                 SDI      ,B5

     1544     4263    4                   ALTRETURN;

   4263   1 000127  C380 0000 0000  xent                 LNJ,B4   X6A_AALT

     1545     4264        /*E* ERROR: KNA-E$ILGVDOVLP
     1546     4265             MESSAGE: Illegal VDOVLP in M$WRTMLT buffer.
     1547     4266        */
     1548     4267
     1549     4268
     1550     4269    4                   END;                    /* End cases                          */

     1551     4270
     1552     4271    3                TMP_SZ = (TMP_SZ / 2) * 2;

   4271   1 00012A  D847 000B                            LDR,R5   TMP_SZ,AUTO
          1 00012C  5041                                 SOR,R5   1
          1 00012D  5001                                 SOL,R5   1
          1 00012E  DF47 000B                            STR,R5   TMP_SZ,AUTO

     1553     4272    3                MSG$ = PINCRC(K$RWPARM.UHDR$,((POFFC(MSG$,K$RWPARM.UHDR$)+1)/2)*2);

   4272   1 000130  ECC7 0004                            LDB,B6   @K$RWPARM,AUTO
          1 000132  8CC6 0017                            LDI      23,B6
          1 000134  7031                                 DCL,R7   1
          1 000135  8D47 0012                            SDI      LAST+2,AUTO
          1 000137  8CC7 0008                            LDI      MSG$,AUTO
          1 000139  7031                                 DCL,R7   1
          1 00013A  84C7 0012                            SID      LAST+2,AUTO
          1 00013C  8470 0000 0001                       AID      1,IMO
          1 00013F  70E1                                 DAR,R7   1
          1 000140  6881 0006                            BGEZ,R6  s:4272+23,PREL
          1 000142  0681 0004                            BCF      s:4272+23,PREL
PL6.E3A0      #009=KNA$CHECK_VDO File=KNA$SUBS.:E05TSI                           WED 07/30/97 01:04 Page:271
          1 000144  8470 0000 0001                       AID      1,IMO
          1 000147  DCC6 0017                            LDB,B5   23,B6
          1 000149  DFC7 0014                            STB,B5   LAST+4,AUTO
          1 00014B  8447 0014                            AID      LAST+4,AUTO
          1 00014D  8D47 0008                            SDI      MSG$,AUTO

     1554     4273    3                END;

   4273   1 00014F  5901 0005                            BEZ,R5   s:4275,PREL
          1 000151  89C7 0010                            CMZ      LAST,AUTO
          1 000153  0881 FF1C                            BAGE     s:4211,PREL

     1555     4274
     1556     4275    2           END;

   4275   1 000155  E847 000B                            LDR,R6   TMP_SZ,AUTO
          1 000157  6901 0005                            BEZ,R6   s:4276,PREL
          1 000159  89C7 000C                            CMZ      MARKER,AUTO
          1 00015B  0881 FEB7                            BAGE     s:4180,PREL

     1557     4276    1      IF TMP_SZ ~= 0

   4276   1 00015D  6901 000A                            BEZ,R6   s:4286,PREL

     1558     4277    2      THEN DO;

     1559     4278    2           ERR = ERR_MALFORMED;

   4278   1 00015F  8C80 0000 0006  00                   LDI      ERR_MALFORMED
          1 000162  ECC7 0006                            LDB,B6   @ERR,AUTO
          1 000164  8D06                                 SDI      ,B6

     1560     4279    2           ALTRETURN;

   4279   1 000165  C380 0000 0000  xent                 LNJ,B4   X6A_AALT

     1561     4280    2           END;
PL6.E3A0      #009=KNA$CHECK_VDO File=KNA$SUBS.:E05TSI                           WED 07/30/97 01:04 Page:272
     1562     4281        /*E* ERROR: KNA-E$MALFORMED
     1563     4282             MESSAGE: Malformed buffer on a M$WRTMLT.
     1564     4283             MESSAGE1: Either there was a malformed VDO or VDOVLP.
     1565     4284        */
     1566     4285
     1567     4286    1      IF LAST$ = ADDR(NIL) OR LAST$->KV$VDOVLP.TYP ~= %KV_VDOVLP_TYP_MRK

   4286   1 000168  8DC7 000E                            CMN      LAST$,AUTO
          1 00016A  0901 000E                            BE       s:4289,PREL
          1 00016C  ECC7 000E                            LDB,B6   LAST$,AUTO
          1 00016E  D806                                 LDR,R5   ,B6
          1 00016F  5048                                 SOR,R5   8
          1 000170  D570 007F                            AND,R5   127,IMO
          1 000172  5D09                                 CMV,R5   9
          1 000173  0981 0005                            BNE      s:4289,PREL
          1 000175  89C7 000C                            CMZ      MARKER,AUTO
          1 000177  0801 000A                            BAL      s:4293,PREL

     1568     4287    1        OR NOT MARKER
     1569     4288    2      THEN DO;

     1570     4289    2           ERR = ERR_ILGMRK;

   4289   1 000179  8C80 0000 0002  00                   LDI      ERR_ILGMRK
          1 00017C  ECC7 0006                            LDB,B6   @ERR,AUTO
          1 00017E  8D06                                 SDI      ,B6

     1571     4290    2           ALTRETURN;

   4290   1 00017F  C380 0000 0000  xent                 LNJ,B4   X6A_AALT

     1572     4291    2           END;
     1573     4292
     1574     4293    1      RETURN;

   4293   1 000182  C380 0000 0000  xent                 LNJ,B4   X6A_ARET
     1575     4294
PL6.E3A0      #009=KNA$CHECK_VDO File=KNA$SUBS.:E05TSI                           WED 07/30/97 01:04 Page:273
     1576     4295
     1577     4296
     1578     4297    1   END KNA$CHECK_VDO;
     1579     4298        %EOD;

PL6.E3A0      #009=KNA$CHECK_VDO File=KNA$SUBS.:E05TSI                           WED 07/30/97 01:04 Page:274
--  Include file information  --

   KN_ERRORS_C.:E05TOU  is referenced.
   K$RWPARM.:E05TOU  is referenced.
   KV$VDO.:E05TOU  is referenced.
   G_LCP6_E.:E05TOU  is referenced.
   GU_LCP6_M.:E05TOU  is referenced.
   CP_6_SUBS.:E05TOU  is referenced.
      No diagnostics issued in procedure KNA$CHECK_VDO.
PL6.E3A0      #009=KNA$CHECK_VDO File=KNA$SUBS.:E05TSI                           WED 07/30/97 01:04 Page:275

 **** Variables and constants ****

  ****  Section 000  Data  KNA$CHECK_VDO

  ****  Scalars and arrays  ****
HexLoc.c.b A Datatyp(siz) R M Lvl/name                 HexLoc.c.b A Datatyp(siz) R M Lvl/name

     2-0-0/w STRC(32)    r     1 ERR_ILGMRK                 0-0-0/w STRC(32)    r     1 ERR_ILGVDO
     4-0-0/w STRC(32)    r     1 ERR_ILGVDOVLP              6-0-0/w STRC(32)    r     1 ERR_MALFORMED

  ****  Auto variables  ****

  ****  Scalars and arrays  ****
HexLoc.c.b A Datatyp(siz) R M Lvl/name                 HexLoc.c.b A Datatyp(siz) R M Lvl/name

     6-0-0/w PTR         r     1 @ERR                       4-0-0/w PTR         r     1 @K$RWPARM
    *0-0-0/w STRC(32)    r     1 ERR                       *0-0-0/w STRC(656)   r     1 K$RWPARM
    10-0-0/b BIT         r     1 LAST                       E-0-0/w PTR         r     1 LAST$
     C-0-0/b BIT         r     1 MARKER                     8-0-0/w PTR         r     1 MSG$
     A-0-0/w UBIN(16)    r     1 MSGSZ                      B-0-0/w UBIN(16)    r     1 TMP_SZ
     D-0-0/b BIT         r     1 VLP

  ****  SYMREF variables  ****

  ****  Scalars and arrays  ****
HexLoc.c.b A Datatyp(siz) R M Lvl/name                 HexLoc.c.b A Datatyp(siz) R M Lvl/name

     0-0-0/c UBIN(8)     r     1 KNA_VDOBYTSIZ(0:34)

  ****  BASED and DCB variables  ****

  ****  Scalars and arrays  ****
HexLoc.c.b A Datatyp(siz) R M Lvl/name                 HexLoc.c.b A Datatyp(siz) R M Lvl/name

     0-0-0/w STRC(16)    r     1 KV$VDO                     0-0-0/w STRC(16)    r     1 KV$VDOVLP
     0-0-0/w ASTR(16)    r     1 KV$VDOVLP_DAT1             0-0-0/w ASTR(32)    r     1 KV$VDOVLP_DAT2
     0-0-0/w STRC(32)    r     1 KV$VDOVLP_FLDID            0-0-0/w ASTR(16)    r     1 KV$VDOVLP_KEY
PL6.E3A0      #009=KNA$CHECK_VDO File=KNA$SUBS.:E05TSI                           WED 07/30/97 01:04 Page:276
     0-0-0/w STRC(64)    r     1 KV$VDOVLP_MRK


   Procedure KNA$CHECK_VDO requires 389 words for executable code.
   Procedure KNA$CHECK_VDO requires 22 words of local(AUTO) storage.
PL6.E3A0      #009=KNA$CHECK_VDO File=KNA$SUBS.:E05TSI                           WED 07/30/97 01:04 Page:277
          *** CROSS REFERENCE LISTING ***
**     DENOTES     IDENTIFIER DEFINITION
<<                 IDENTIFIER'S VALUE SET
>>                 IDENTIFIER'S VALUE USED
<>                 IDENTIFIER SET AND/OR USED
--                 IDENTIFIER REFERENCED
PL6.E3A0      #009=KNA$CHECK_VDO File=KNA$SUBS.:E05TSI                           WED 07/30/97 01:04 Page:278
          MINI XREF LISTING

ERR
      3535**DCL         6--PROC     4193<<ASSIGN   4253<<ASSIGN   4262<<ASSIGN   4278<<ASSIGN   4289<<ASSIGN
ERR_ILGMRK
      4039**DCL      4253>>ASSIGN   4289>>ASSIGN
ERR_ILGVDO
      3993**DCL      4193>>ASSIGN
ERR_ILGVDOVLP
      4085**DCL      4262>>ASSIGN
ERR_MALFORMED
      4131**DCL      4278>>ASSIGN
K$RWPARM
      3222**DCL         6--PROC
K$RWPARM.BLKREC
      3252**DCL      3277--REDEF
K$RWPARM.DVE.DVBYTE.VFC
      3292**DCL      3293--REDEF
K$RWPARM.DVE.EOMCHAR
      3300**DCL      3304--REDEF
K$RWPARM.ERR
      3364**DCL      3369--REDEF
K$RWPARM.FC
      3328**DCL      3329--REDEF
K$RWPARM.FLDID
      3510**DCL      3511--REDEF
K$RWPARM.KEYTYPE
      3517**DCL      3518--REDEF
K$RWPARM.MSG$
      3223**DCL      3224--REDEF    3233--REDEF
K$RWPARM.MSGID
      3339**DCL      3344--REDEF
K$RWPARM.MSGIDXT
      3352**DCL      3356--REDEF
PL6.E3A0      #009=KNA$CHECK_VDO File=KNA$SUBS.:E05TSI                           WED 07/30/97 01:04 Page:279
K$RWPARM.ORG
      3488**DCL      3489--REDEF
K$RWPARM.UHDR$
      3377**DCL      4174>>ASSIGN   4272>>ASSIGN   4272>>ASSIGN
K$RWPARM.UHDRSZ
      3382**DCL      4175>>ASSIGN
K$RWPARM.VDOFLGS
      3490**DCL      3501--REDEF
KNA_VDOBYTSIZ
      3650**DCL      4202>>ASSIGN   4203>>ASSIGN
KV$VDO.FNC
      3681**DCL      4181>>DOCASE   4202>>ASSIGN   4203>>ASSIGN
KV$VDO.VLP
      3681**DCL      4180>>ASSIGN
KV$VDOVLP.LST
      3710**DCL      4211>>ASSIGN
KV$VDOVLP.TYP
      3710**DCL      4215>>DOCASE   4286>>IF
KV$VDOVLP_DAT1
      3755**DCL      4219--ASSIGN   4220--ASSIGN
KV$VDOVLP_DAT1.BYTSIZ
      3761**DCL      3770--IMP-SIZ  4218>>ASSIGN   4219>>ASSIGN   4220>>ASSIGN
KV$VDOVLP_DAT2
      3806**DCL      4229--ASSIGN   4230--ASSIGN
KV$VDOVLP_DAT2.BYTSIZ
      3814**DCL      4228>>ASSIGN
KV$VDOVLP_FLDID
      3857**DCL      4238--ASSIGN   4239--ASSIGN
KV$VDOVLP_KEY
      3908**DCL      4243--ASSIGN   4244--ASSIGN
KV$VDOVLP_KEY.BYTSIZ
      3914**DCL      3923--IMP-SIZ  4243>>ASSIGN   4244>>ASSIGN
KV$VDOVLP_MRK
      3959**DCL      4249--ASSIGN   4250--ASSIGN
KV$VDOVLP_MRK.MRKTYP
      3973**DCL      4247<<ASSIGN
PL6.E3A0      #009=KNA$CHECK_VDO File=KNA$SUBS.:E05TSI                           WED 07/30/97 01:04 Page:280
KV$VDOVLP_MRK.RSP
      3973**DCL      4248<<ASSIGN
LAST
      4171**DCL      4205<<ASSIGN   4209>>DOWHILE  4211<<ASSIGN
LAST$
      4170**DCL      4213<<ASSIGN   4286>>IF       4286>>IF
MARKER
      4168**DCL      4176<<ASSIGN   4178>>DOWHILE  4189<<ASSIGN   4286>>IF
MSG$
      4164**DCL      3677--IMP-PTR  3706--IMP-PTR  3755--IMP-PTR  3806--IMP-PTR  3857--IMP-PTR  3908--IMP-PTR
      3959--IMP-PTR  4174<<ASSIGN   4180>>ASSIGN   4181>>DOCASE   4202>>ASSIGN   4203<<ASSIGN   4203>>ASSIGN
      4203>>ASSIGN   4211>>ASSIGN   4213>>ASSIGN   4215>>DOCASE   4218>>ASSIGN   4219>>ASSIGN   4219>>ASSIGN
      4220<<ASSIGN   4220>>ASSIGN   4220>>ASSIGN   4220>>ASSIGN   4224<<ASSIGN   4224>>ASSIGN   4228>>ASSIGN
      4230<<ASSIGN   4230>>ASSIGN   4234<<ASSIGN   4234>>ASSIGN   4239<<ASSIGN   4239>>ASSIGN   4243>>ASSIGN
      4243>>ASSIGN   4244<<ASSIGN   4244>>ASSIGN   4244>>ASSIGN   4244>>ASSIGN   4247>>ASSIGN   4248>>ASSIGN
      4249<<ASSIGN   4249>>ASSIGN   4272<<ASSIGN   4272>>ASSIGN
MSGSZ
      4165**DCL      3821--IMP-SIZ  4218<<ASSIGN   4228<<ASSIGN   4229>>ASSIGN   4230>>ASSIGN
TMP_SZ
      4167**DCL      4175<<ASSIGN   4178>>DOWHILE  4202<<ASSIGN   4202>>ASSIGN   4209>>DOWHILE  4219<<ASSIGN
      4219>>ASSIGN   4221>>IF       4223<<ASSIGN   4223>>ASSIGN   4229<<ASSIGN   4229>>ASSIGN   4231>>IF
      4233<<ASSIGN   4233>>ASSIGN   4238<<ASSIGN   4238>>ASSIGN   4243<<ASSIGN   4243>>ASSIGN   4250<<ASSIGN
      4250>>ASSIGN   4251>>IF       4271<<ASSIGN   4271>>ASSIGN   4276>>IF
VLP
      4169**DCL      4180<<ASSIGN   4207>>IF

PL6.E3A0      #010=KNA$CHECKSUM File=KNA$SUBS.:E05TSI                            WED 07/30/97 01:04 Page:281
     1580        1        /*M* KNA$CHECKSUM - Build and check the checksum for the OSI layers. */
     1581        2        /*T***********************************************************/
     1582        3        /*T*                                                         */
     1583        4        /*T* Copyright (c) Bull HN Information Systems Inc., 1997    */
     1584        5        /*T*                                                         */
     1585        6        /*T***********************************************************/
     1586        7        /*X* PLM=3,IND=5,ENU=0,ECU=0  */
     1587        8
     1588        9
     1589       10        /*D* NAME: KNA$CALC_CHKSUM
     1590       11
     1591       12             ENTRY: KNA$CHK_CHKSUM
     1592       13
     1593       14             PURPOSE:
     1594       15                  The KNA$CALC_CHKSUM routine computes the checksum bytes.
     1595       16                  The KNA$CHK_CHKSUM routine verifys the checksum bytes.
     1596       17
     1597       18             ENTRY:
     1598       19                   CALL KNA$CALC_CHKSUM (FRAG$, FRAGSIZE, CHKOFF)
     1599       20                   CALL KNA$CHK_CHKSUM (FRAG$, FRAGSIZE)
     1600       21
     1601       22             INPUT:
     1602       23                   FRAG$ - CPTR.  Contains the address of the first byte in
     1603       24                                  the data to be checksummed.
     1604       25                   FRAGSIZE - SBIN.  Contains the byte size of the data to
     1605       26                                   be checksummed (presumed to be <16k).
     1606       27                   CHKOFF - SBIN.  Contains the byte number of the first byte
     1607       28                                   of the checksum value, assuming the first
     1608       29                                   byte to be 1.  (or if you consider the first
     1609       30                                   byte to be 0, the index to the last byte of
     1610       31                                   the checksum.
     1611       32             DESCRIPTION:
     1612       33                    The two checksum bytes are computed using the ISO
     1613       34                    standard modulo 255 algorithm.
     1614       35        */
     1615       36        KNA$CHECKSUM: PROC (FRAG$,FRAGSIZE,CHKOFF) ALTRET;
     1616       37
PL6.E3A0      #010=KNA$CHECKSUM File=KNA$SUBS.:E05TSI                            WED 07/30/97 01:04 Page:282
     1617       38    1   DCL FRAG$ CPTR;
     1618       39    1   DCL FRAGSIZE SBIN;
     1619       40    1   DCL CHKOFF SBIN;
     1620       41
     1621       42    1   DCL ITEMP SBIN WORD;
     1622       43    1   DCL SIZE SBIN WORD;
     1623       44    1   DCL C0 UBIN WORD;
     1624       45    1   DCL 1 C0X REDEF C0,2 * BIT(8),2 LO UBIN BYTE UNAL;
     1625       46    1   DCL C1 UBIN WORD;
     1626       47    1   DCL 1 C1X REDEF C1,2 SIGN BIT(1),2 * BIT(7),2 LO UBIN BYTE UNAL;
     1627       48    1   DCL CL1 REDEF C1 SBIN;
     1628       49    1   DCL CPTR$ CPTR;
     1629       50    1   DCL PTR$ REDEF CPTR$ PTR;
     1630       51    1   DCL 1 PTRX REDEF CPTR$,2 OFF UBIN(8) UNAL,2 * BIT(24);
     1631       52    1   DCL COFFS SBIN;
     1632       53    1   DCL XX SBIN;
     1633       54    1   DCL TEMP2 UBIN;
     1634       55    1   DCL 1 TEMP2X REDEF TEMP2,2 * BIT(8),2 LO UBIN BYTE UNAL;
     1635       56    1   DCL TEMP4 UBIN(32);
     1636       57    1   DCL 1 TEMP4X REDEF TEMP4,2 * BIT(24),2 LO UBIN BYTE UNAL;
     1637       58    1   DCL YY SBIN;
     1638       59
     1639       60    1   DCL UBNBSD UBIN BYTE BASED CALIGNED;
     1640       61    1   DCL 1 B$UBIN(0:0) UBIN(8) BASED CALIGNED;
     1641       62
     1642       63        %EJECT;
PL6.E3A0      #010=KNA$CHECKSUM File=KNA$SUBS.:E05TSI                            WED 07/30/97 01:04 Page:283
     1643       64    1   KNA$CALC_CHKSUM: ENTRY (FRAG$,FRAGSIZE,CHKOFF) ALTRET;
     1644       65
     1645       66    1   KNA$CHK_CHKSUM: ENTRY(FRAG$,FRAGSIZE) ALTRET;
     1646       67
     1647       68    1      C0 = 0;
     1648       69    1      C1 = 0;
     1649       70    1      CPTR$ = FRAG$;
     1650       71    1      ITEMP = PTRX.OFF /128;
     1651       72    1      PTRX.OFF = 0;
     1652       73    1      COFFS = ITEMP;
     1653       74    1      SIZE = FRAGSIZE + ITEMP;
     1654       75
     1655       76    2      DO UNTIL ITEMP=SIZE;
     1656       77    2           C0 = C0 + PTR$->B$UBIN(ITEMP);
     1657       78    2           CL1 = CL1 + C0;
     1658       79    3           IF CL1 < 0 THEN DO;
     1659       80        /* Add the carries from a byte back in, but only when they're in danger
     1660       81           of being lost.  (This is equivalent to MOD-255 arithmetic). */
     1661       82    3                C1 = C1X.LO + C1 / 256;
     1662       83    3                C0 = C0 / 256 + C0X.LO;
     1663       84    3                END;
     1664       85    2           ITEMP = ITEMP + 1;
     1665       86    2           END;
     1666       87        /* Add the carry bits back in, reducing each to <=510. */
     1667       88    1      C0 = C0 / 256 + C0X.LO;
     1668       89    1      C1 = C1 / 256 + C1X.LO;
     1669       90    1      IF C0 > 254 THEN C0 = C0 - 255;
     1670       91    1      IF C1 > 254 THEN C1 = C1 - 255;
     1671       92
     1672       93    1      IF ADDR(CHKOFF)=ADDR(NIL)            /* Checksum verify.                   */
     1673       94    1      THEN IF ( C0 ~= 0 ) OR ( C1 ~= 0 )
     1674       95    1           THEN ALTRETURN;
     1675       96    1           ELSE RETURN;
     1676       97                                                /* Checksum compute.                  */
     1677       98
     1678       99    1      COFFS = COFFS + CHKOFF;
     1679      100    1      TEMP2 = SIZE - COFFS;
PL6.E3A0      #010=KNA$CHECKSUM File=KNA$SUBS.:E05TSI                            WED 07/30/97 01:04 Page:284
     1680      101    1      TEMP4 = TEMP2 * C0;
     1681      102        /* Compute MOD(TEMP4,255).  Presuming that it has <23 bits nonzero */
     1682      103        /* First, add bytes 1-2 to byte 3, reducing the value to 16 bits. */
     1683      104    1      TEMP2 = TEMP4 / 256;
     1684      105    1      TEMP2 = TEMP2 + TEMP4X.LO;
     1685      106        /* Then, add those two bytes, reducing the value to 9 bits. */
     1686      107    1      TEMP2 = TEMP2 / 256 + TEMP2X.LO;
     1687      108        /* Finally, remove any remaining excess of 255 */
     1688      109    1      IF TEMP2 > 254 THEN TEMP2 = TEMP2 - 255;
     1689      110    1      XX = TEMP2 - C1;
     1690      111
     1691      112    1      IF XX < 0
     1692      113    1      THEN XX = XX + 255;
     1693      114
     1694      115    1      TEMP2 = TEMP2 + C0;
     1695      116    1      IF TEMP2 > 254 THEN TEMP2 = TEMP2 - 255;
     1696      117    1      YY = C1 - TEMP2;
     1697      118    1      IF YY < 0
     1698      119    1      THEN YY = YY + 255;
     1699      120
     1700      121    1      PTR$->B$UBIN(COFFS) = YY;
     1701      122    1      PTR$->B$UBIN(COFFS-1) = XX;
     1702      123    1      RETURN;
     1703      124
     1704      125    1   END KNA$CHECKSUM;

PL6.E3A0      #010=KNA$CHECKSUM File=KNA$SUBS.:E05TSI                            WED 07/30/97 01:04 Page:285
      No diagnostics issued in procedure KNA$CHECKSUM.

   Procedure KNA$CHECKSUM requires 215 words for executable code.
   Procedure KNA$CHECKSUM requires 22 words of local(AUTO) storage.

    No errors detected in file KNA$SUBS.:E05TSI    .

PL6.E3A0      #010=KNA$CHECKSUM File=KNA$SUBS.:E05TSI                            WED 07/30/97 01:04 Page:286

 Object Unit name= KNA$CHECKSUM                               File name= KNA$SUBS.:E05TOU
 UTS= JUL 30 '97 01:04:29.76 WED                              Compiler= PL-6/E31         Sev=      00
 SharedLib= :SHARED_LCP6_SYSTEM                               Alt SharedLib=


    ****  Control sections  ****

 Sect   Type Bound  Init  Size HexSiz  Section name
    0   Proc  even  none   215     D7  KNA$CHECKSUM

    ****  Entry defs  ****

                              Check   Calling
                             calling  sequence
  Sect HexLoc Primary Altret sequence   type   Parms  Name
     0      0   yes    yes     yes      Std        3  KNA$CHECKSUM
     0      7          yes     yes      Std        3  KNA$CALC_CHKSUM
     0      E          yes     yes      Std        2  KNA$CHK_CHKSUM

  ****  Entry refs  ****

         Check        Calling
        calling       sequence
Altret sequence SRef   type   Args  Name
                       nStd      0 X6A_AUTO_3
                       nStd      0 X6A_AALT
                       nStd      0 X6A_ARET

  ****  Data refs  ****

  Flags:  r = read only, s = secondary
Flgs Name                             Flgs Name                             Flgs Name
r    G$ROS$
PL6.E3A0      #010=KNA$CHECKSUM File=KNA$SUBS.:E05TSI                            WED 07/30/97 01:04 Page:287


     1580        1        /*M* KNA$CHECKSUM - Build and check the checksum for the OSI layers. */
     1581        2        /*T***********************************************************/
     1582        3        /*T*                                                         */
     1583        4        /*T* Copyright (c) Bull HN Information Systems Inc., 1997    */
     1584        5        /*T*                                                         */
     1585        6        /*T***********************************************************/
     1586        7        /*X* PLM=3,IND=5,ENU=0,ECU=0  */
     1587        8
     1588        9
     1589       10        /*D* NAME: KNA$CALC_CHKSUM
     1590       11
     1591       12             ENTRY: KNA$CHK_CHKSUM
     1592       13
     1593       14             PURPOSE:
     1594       15                  The KNA$CALC_CHKSUM routine computes the checksum bytes.
     1595       16                  The KNA$CHK_CHKSUM routine verifys the checksum bytes.
     1596       17
     1597       18             ENTRY:
     1598       19                   CALL KNA$CALC_CHKSUM (FRAG$, FRAGSIZE, CHKOFF)
     1599       20                   CALL KNA$CHK_CHKSUM (FRAG$, FRAGSIZE)
     1600       21
     1601       22             INPUT:
     1602       23                   FRAG$ - CPTR.  Contains the address of the first byte in
     1603       24                                  the data to be checksummed.
     1604       25                   FRAGSIZE - SBIN.  Contains the byte size of the data to
     1605       26                                   be checksummed (presumed to be <16k).
     1606       27                   CHKOFF - SBIN.  Contains the byte number of the first byte
     1607       28                                   of the checksum value, assuming the first
     1608       29                                   byte to be 1.  (or if you consider the first
     1609       30                                   byte to be 0, the index to the last byte of
     1610       31                                   the checksum.
     1611       32             DESCRIPTION:
     1612       33                    The two checksum bytes are computed using the ISO
     1613       34                    standard modulo 255 algorithm.
     1614       35        */
     1615       36        KNA$CHECKSUM: PROC (FRAG$,FRAGSIZE,CHKOFF) ALTRET;
PL6.E3A0      #010=KNA$CHECKSUM File=KNA$SUBS.:E05TSI                            WED 07/30/97 01:04 Page:288

     36   0 000000  D380 0000 0000  xent KNA$CHECKSUM    LNJ,B5   X6A_AUTO_3
          0 000003       0016 0003                       DC       22,3
          0 000005  0F81 0006                            B        s:64+5,PREL

     1616       37
     1617       38    1   DCL FRAG$ CPTR;
     1618       39    1   DCL FRAGSIZE SBIN;
     1619       40    1   DCL CHKOFF SBIN;
     1620       41
     1621       42    1   DCL ITEMP SBIN WORD;
     1622       43    1   DCL SIZE SBIN WORD;
     1623       44    1   DCL C0 UBIN WORD;
     1624       45    1   DCL 1 C0X REDEF C0,2 * BIT(8),2 LO UBIN BYTE UNAL;
     1625       46    1   DCL C1 UBIN WORD;
     1626       47    1   DCL 1 C1X REDEF C1,2 SIGN BIT(1),2 * BIT(7),2 LO UBIN BYTE UNAL;
     1627       48    1   DCL CL1 REDEF C1 SBIN;
     1628       49    1   DCL CPTR$ CPTR;
     1629       50    1   DCL PTR$ REDEF CPTR$ PTR;
     1630       51    1   DCL 1 PTRX REDEF CPTR$,2 OFF UBIN(8) UNAL,2 * BIT(24);
     1631       52    1   DCL COFFS SBIN;
     1632       53    1   DCL XX SBIN;
     1633       54    1   DCL TEMP2 UBIN;
     1634       55    1   DCL 1 TEMP2X REDEF TEMP2,2 * BIT(8),2 LO UBIN BYTE UNAL;
     1635       56    1   DCL TEMP4 UBIN(32);
     1636       57    1   DCL 1 TEMP4X REDEF TEMP4,2 * BIT(24),2 LO UBIN BYTE UNAL;
     1637       58    1   DCL YY SBIN;
     1638       59
     1639       60    1   DCL UBNBSD UBIN BYTE BASED CALIGNED;
     1640       61    1   DCL 1 B$UBIN(0:0) UBIN(8) BASED CALIGNED;
     1641       62
     1642       63        %EJECT;
PL6.E3A0      #010=KNA$CHECKSUM File=KNA$SUBS.:E05TSI                            WED 07/30/97 01:04 Page:289
     1643       64    1   KNA$CALC_CHKSUM: ENTRY (FRAG$,FRAGSIZE,CHKOFF) ALTRET;

     64   0 000007  D380 0000 0000  xent KNA$CALC_CHKSUM LNJ,B5   X6A_AUTO_3
          0 00000A       0016 0003                       DC       22,3
          0 00000C  0F81 0006                            B        s:68,PREL

     1644       65
     1645       66    1   KNA$CHK_CHKSUM: ENTRY(FRAG$,FRAGSIZE) ALTRET;

     66   0 00000E  D380 0000 0000  xent KNA$CHK_CHKSUM  LNJ,B5   X6A_AUTO_3
          0 000011       0016 0003                       DC       22,3

     1646       67
     1647       68    1      C0 = 0;

     68   0 000013  8747 000C                            CL       C0,AUTO

     1648       69    1      C1 = 0;

     69   0 000015  8747 000D                            CL       C1,AUTO

     1649       70    1      CPTR$ = FRAG$;

     70   0 000017  ECC7 0004                            LDB,B6   @FRAG$,AUTO
          0 000019  8C86                                 LDI      ,B6
          0 00001A  8D47 000E                            SDI      CPTR$,AUTO

     1650       71    1      ITEMP = PTRX.OFF /128;

     71   0 00001C  D2C7 000E                            LLH,R5   CPTR$,AUTO
          0 00001E  5047                                 SOR,R5   7
          0 00001F  DF47 000A                            STR,R5   ITEMP,AUTO

     1651       72    1      PTRX.OFF = 0;

     72   0 000021  87C7 000E                            CLH      CPTR$,AUTO

PL6.E3A0      #010=KNA$CHECKSUM File=KNA$SUBS.:E05TSI                            WED 07/30/97 01:04 Page:290
     1652       73    1      COFFS = ITEMP;

     73   0 000023  DF47 0010                            STR,R5   COFFS,AUTO

     1653       74    1      SIZE = FRAGSIZE + ITEMP;

     74   0 000025  DCC7 0006                            LDB,B5   @FRAGSIZE,AUTO
          0 000027  DA05                                 ADD,R5   ,B5
          0 000028  DF47 000B                            STR,R5   SIZE,AUTO

     1654       75
     1655       76    2      DO UNTIL ITEMP=SIZE;

     1656       77    2           C0 = C0 + PTR$->B$UBIN(ITEMP);

     77   0 00002A  ECC7 000E                            LDB,B6   CPTR$,AUTO
          0 00002C  B847 000A                            LDR,R3   ITEMP,AUTO
          0 00002E  E2B6                                 LLH,R6   ,B6,R3
          0 00002F  EA47 000C                            ADD,R6   C0,AUTO
          0 000031  EF47 000C                            STR,R6   C0,AUTO

     1657       78    2           CL1 = CL1 + C0;

     78   0 000033  EA47 000D                            ADD,R6   C1,AUTO
          0 000035  EF47 000D                            STR,R6   C1,AUTO

     1658       79    3           IF CL1 < 0 THEN DO;

     79   0 000037  6881 0015                            BGEZ,R6  s:85,PREL

     1659       80        /* Add the carries from a byte back in, but only when they're in danger
     1660       81           of being lost.  (This is equivalent to MOD-255 arithmetic). */
     1661       82    3                C1 = C1X.LO + C1 / 256;

     82   0 000039  D847 000D                            LDR,R5   C1,AUTO
          0 00003B  5048                                 SOR,R5   8
          0 00003C  C847 000D                            LDR,R4   C1,AUTO
PL6.E3A0      #010=KNA$CHECKSUM File=KNA$SUBS.:E05TSI                            WED 07/30/97 01:04 Page:291
          0 00003E  C570 00FF                            AND,R4   255,IMO
          0 000040  CA55                                 ADD,R4   R5
          0 000041  CF47 000D                            STR,R4   C1,AUTO

     1662       83    3                C0 = C0 / 256 + C0X.LO;

     83   0 000043  E847 000C                            LDR,R6   C0,AUTO
          0 000045  6048                                 SOR,R6   8
          0 000046  D847 000C                            LDR,R5   C0,AUTO
          0 000048  D570 00FF                            AND,R5   255,IMO
          0 00004A  DA56                                 ADD,R5   R6
          0 00004B  DF47 000C                            STR,R5   C0,AUTO

     1663       84    3                END;

     1664       85    2           ITEMP = ITEMP + 1;

     85   0 00004D  8AC7 000A                            INC      ITEMP,AUTO

     1665       86    2           END;

     86   0 00004F  E847 000A                            LDR,R6   ITEMP,AUTO
          0 000051  E947 000B                            CMR,R6   SIZE,AUTO
          0 000053  09D7                                 BNE      s:77,SPREL

     1666       87        /* Add the carry bits back in, reducing each to <=510. */
     1667       88    1      C0 = C0 / 256 + C0X.LO;

     88   0 000054  D847 000C                            LDR,R5   C0,AUTO
          0 000056  5048                                 SOR,R5   8
          0 000057  C847 000C                            LDR,R4   C0,AUTO
          0 000059  C570 00FF                            AND,R4   255,IMO
          0 00005B  CA55                                 ADD,R4   R5
          0 00005C  CF47 000C                            STR,R4   C0,AUTO

     1668       89    1      C1 = C1 / 256 + C1X.LO;

PL6.E3A0      #010=KNA$CHECKSUM File=KNA$SUBS.:E05TSI                            WED 07/30/97 01:04 Page:292
     89   0 00005E  D847 000D                            LDR,R5   C1,AUTO
          0 000060  5048                                 SOR,R5   8
          0 000061  B847 000D                            LDR,R3   C1,AUTO
          0 000063  B570 00FF                            AND,R3   255,IMO
          0 000065  BA55                                 ADD,R3   R5
          0 000066  BF47 000D                            STR,R3   C1,AUTO

     1669       90    1      IF C0 > 254 THEN C0 = C0 - 255;

     90   0 000068  C970 00FE                            CMR,R4   254,IMO
          0 00006A  0381 0005                            BLE      s:91,PREL

     90   0 00006C  CA70 FF01                            ADD,R4   -255,IMO
          0 00006E  CF47 000C                            STR,R4   C0,AUTO

     1670       91    1      IF C1 > 254 THEN C1 = C1 - 255;

     91   0 000070  B970 00FE                            CMR,R3   254,IMO
          0 000072  0381 0005                            BLE      s:93,PREL

     91   0 000074  BA70 FF01                            ADD,R3   -255,IMO
          0 000076  BF47 000D                            STR,R3   C1,AUTO

     1671       92
     1672       93    1      IF ADDR(CHKOFF)=ADDR(NIL)            /* Checksum verify.                   */

     93   0 000078  DCC7 0008                            LDB,B5   @CHKOFF,AUTO
          0 00007A  8DD5                                 CMN      B5
          0 00007B  0981 000B                            BNE      s:99,PREL

     1673       94    1      THEN IF ( C0 ~= 0 ) OR ( C1 ~= 0 )

     94   0 00007D  4981 0003                            BNEZ,R4  s:95,PREL
          0 00007F  3901 0004                            BEZ,R3   s:96,PREL

     1674       95    1           THEN ALTRETURN;

PL6.E3A0      #010=KNA$CHECKSUM File=KNA$SUBS.:E05TSI                            WED 07/30/97 01:04 Page:293
     95   0 000081  C380 0000 0000  xent                 LNJ,B4   X6A_AALT

     1675       96    1           ELSE RETURN;

     96   0 000084  C380 0000 0000  xent                 LNJ,B4   X6A_ARET

     1676       97                                                /* Checksum compute.                  */
     1677       98
     1678       99    1      COFFS = COFFS + CHKOFF;

     99   0 000087  D847 0010                            LDR,R5   COFFS,AUTO
          0 000089  DA05                                 ADD,R5   ,B5
          0 00008A  DF47 0010                            STR,R5   COFFS,AUTO

     1679      100    1      TEMP2 = SIZE - COFFS;

    100   0 00008C  D247 000B                            SUB,R5   SIZE,AUTO
          0 00008E  8255                                 NEG      R5
          0 00008F  DF47 0012                            STR,R5   TEMP2,AUTO

     1680      101    1      TEMP4 = TEMP2 * C0;

    101   0 000091  F855                                 LDR,R7   R5
          0 000092  FB54                                 MUL,R7   R4
          0 000093  8D47 0013                            SDI      TEMP4,AUTO

     1681      102        /* Compute MOD(TEMP4,255).  Presuming that it has <23 bits nonzero */
     1682      103        /* First, add bytes 1-2 to byte 3, reducing the value to 16 bits. */
     1683      104    1      TEMP2 = TEMP4 / 256;

    104   0 000095  70C8                                 DOR,R7   8
          0 000096  D857                                 LDR,R5   R7
          0 000097  DF47 0012                            STR,R5   TEMP2,AUTO

     1684      105    1      TEMP2 = TEMP2 + TEMP4X.LO;

    105   0 000099  E847 0014                            LDR,R6   TEMP4+1,AUTO
PL6.E3A0      #010=KNA$CHECKSUM File=KNA$SUBS.:E05TSI                            WED 07/30/97 01:04 Page:294
          0 00009B  E570 00FF                            AND,R6   255,IMO
          0 00009D  EA55                                 ADD,R6   R5
          0 00009E  D856                                 LDR,R5   R6
          0 00009F  DF47 0012                            STR,R5   TEMP2,AUTO

     1685      106        /* Then, add those two bytes, reducing the value to 9 bits. */
     1686      107    1      TEMP2 = TEMP2 / 256 + TEMP2X.LO;

    107   0 0000A1  5048                                 SOR,R5   8
          0 0000A2  E847 0012                            LDR,R6   TEMP2,AUTO
          0 0000A4  E570 00FF                            AND,R6   255,IMO
          0 0000A6  EA55                                 ADD,R6   R5
          0 0000A7  EF47 0012                            STR,R6   TEMP2,AUTO

     1687      108        /* Finally, remove any remaining excess of 255 */
     1688      109    1      IF TEMP2 > 254 THEN TEMP2 = TEMP2 - 255;

    109   0 0000A9  E970 00FE                            CMR,R6   254,IMO
          0 0000AB  0381 0005                            BLE      s:110,PREL

    109   0 0000AD  EA70 FF01                            ADD,R6   -255,IMO
          0 0000AF  EF47 0012                            STR,R6   TEMP2,AUTO

     1689      110    1      XX = TEMP2 - C1;

    110   0 0000B1  E253                                 SUB,R6   R3
          0 0000B2  EF47 0011                            STR,R6   XX,AUTO

     1690      111
     1691      112    1      IF XX < 0

    112   0 0000B4  6881 0005                            BGEZ,R6  s:115,PREL

     1692      113    1      THEN XX = XX + 255;

    113   0 0000B6  EA70 00FF                            ADD,R6   255,IMO
          0 0000B8  EF47 0011                            STR,R6   XX,AUTO
PL6.E3A0      #010=KNA$CHECKSUM File=KNA$SUBS.:E05TSI                            WED 07/30/97 01:04 Page:295

     1693      114
     1694      115    1      TEMP2 = TEMP2 + C0;

    115   0 0000BA  CA47 0012                            ADD,R4   TEMP2,AUTO
          0 0000BC  CF47 0012                            STR,R4   TEMP2,AUTO

     1695      116    1      IF TEMP2 > 254 THEN TEMP2 = TEMP2 - 255;

    116   0 0000BE  C970 00FE                            CMR,R4   254,IMO
          0 0000C0  0381 0005                            BLE      s:117,PREL

    116   0 0000C2  CA70 FF01                            ADD,R4   -255,IMO
          0 0000C4  CF47 0012                            STR,R4   TEMP2,AUTO

     1696      117    1      YY = C1 - TEMP2;

    117   0 0000C6  B254                                 SUB,R3   R4
          0 0000C7  BF47 0015                            STR,R3   YY,AUTO

     1697      118    1      IF YY < 0

    118   0 0000C9  3881 0005                            BGEZ,R3  s:121,PREL

     1698      119    1      THEN YY = YY + 255;

    119   0 0000CB  BA70 00FF                            ADD,R3   255,IMO
          0 0000CD  BF47 0015                            STR,R3   YY,AUTO

     1699      120
     1700      121    1      PTR$->B$UBIN(COFFS) = YY;

    121   0 0000CF  A847 0010                            LDR,R2   COFFS,AUTO
          0 0000D1  B7A6                                 STH,R3   ,B6,R2

     1701      122    1      PTR$->B$UBIN(COFFS-1) = XX;

PL6.E3A0      #010=KNA$CHECKSUM File=KNA$SUBS.:E05TSI                            WED 07/30/97 01:04 Page:296
    122   0 0000D2  2EFF                                 ADV,R2   -1
          0 0000D3  E7A6                                 STH,R6   ,B6,R2

     1702      123    1      RETURN;

    123   0 0000D4  C380 0000 0000  xent                 LNJ,B4   X6A_ARET
     1703      124
     1704      125    1   END KNA$CHECKSUM;

PL6.E3A0      #010=KNA$CHECKSUM File=KNA$SUBS.:E05TSI                            WED 07/30/97 01:04 Page:297
      No diagnostics issued in procedure KNA$CHECKSUM.
PL6.E3A0      #010=KNA$CHECKSUM File=KNA$SUBS.:E05TSI                            WED 07/30/97 01:04 Page:298

 **** Variables and constants ****

  ****  Auto variables  ****

  ****  Scalars and arrays  ****
HexLoc.c.b A Datatyp(siz) R M Lvl/name                 HexLoc.c.b A Datatyp(siz) R M Lvl/name

     8-0-0/w PTR         r     1 @CHKOFF                    4-0-0/w PTR         r     1 @FRAG$
     6-0-0/w PTR         r     1 @FRAGSIZE                  C-0-0/w UBIN(16)    r     1 C0
     C-0-0/w STRC(16)    r     1 C0X                        D-0-0/w UBIN(16)    r     1 C1
     D-0-0/w STRC(16)    r     1 C1X                       *0-0-0/w SBIN(16)    r     1 CHKOFF
     D-0-0/w SBIN(16)    r     1 CL1                       10-0-0/w SBIN(16)    r     1 COFFS
     E-0-0/w PTR         r     1 CPTR$                     *0-0-0/w PTR         r     1 FRAG$
    *0-0-0/w SBIN(16)    r     1 FRAGSIZE                   A-0-0/w SBIN(16)    r     1 ITEMP
     E-0-0/w PTR         r     1 PTR$                       E-0-0/w STRC(32)    r     1 PTRX
     B-0-0/w SBIN(16)    r     1 SIZE                      12-0-0/w UBIN(16)    r     1 TEMP2
    12-0-0/w STRC(16)    r     1 TEMP2X                    13-0-0/w UBIN(32)    r     1 TEMP4
    13-0-0/w STRC(32)    r     1 TEMP4X                    11-0-0/w SBIN(16)    r     1 XX
    15-0-0/w SBIN(16)    r     1 YY

  ****  BASED and DCB variables  ****

  ****  Scalars and arrays  ****
HexLoc.c.b A Datatyp(siz) R M Lvl/name                 HexLoc.c.b A Datatyp(siz) R M Lvl/name

     0-0-0/c UBIN(8)     r     1 B$UBIN(0:0)


   Procedure KNA$CHECKSUM requires 215 words for executable code.
   Procedure KNA$CHECKSUM requires 22 words of local(AUTO) storage.

    No errors detected in file KNA$SUBS.:E05TSI    .
PL6.E3A0      #010=KNA$CHECKSUM File=KNA$SUBS.:E05TSI                            WED 07/30/97 01:04 Page:299
          *** CROSS REFERENCE LISTING ***
**     DENOTES     IDENTIFIER DEFINITION
<<                 IDENTIFIER'S VALUE SET
>>                 IDENTIFIER'S VALUE USED
<>                 IDENTIFIER SET AND/OR USED
--                 IDENTIFIER REFERENCED
PL6.E3A0      #010=KNA$CHECKSUM File=KNA$SUBS.:E05TSI                            WED 07/30/97 01:04 Page:300
          MINI XREF LISTING

B$UBIN
        61**DCL        77>>ASSIGN    121<<ASSIGN    122<<ASSIGN
C0
        44**DCL        45--REDEF      68<<ASSIGN     77<<ASSIGN     77>>ASSIGN     78>>ASSIGN     83<<ASSIGN
        83>>ASSIGN     88<<ASSIGN     88>>ASSIGN     90>>IF         90<<ASSIGN     90>>ASSIGN     94>>IF
       101>>ASSIGN    115>>ASSIGN
C0X.LO
        45**DCL        83>>ASSIGN     88>>ASSIGN
C1
        46**DCL        47--REDEF      48--REDEF      69<<ASSIGN     82<<ASSIGN     82>>ASSIGN     89<<ASSIGN
        89>>ASSIGN     91>>IF         91<<ASSIGN     91>>ASSIGN     94>>IF        110>>ASSIGN    117>>ASSIGN
C1X.LO
        47**DCL        82>>ASSIGN     89>>ASSIGN
CHKOFF
        40**DCL        36--PROC       64--ENTRY      93--IF         99>>ASSIGN
CL1
        48**DCL        78<<ASSIGN     78>>ASSIGN     79>>IF
COFFS
        52**DCL        73<<ASSIGN     99<<ASSIGN     99>>ASSIGN    100>>ASSIGN    121>>ASSIGN    122>>ASSIGN
CPTR$
        49**DCL        50--REDEF      51--REDEF      70<<ASSIGN
FRAG$
        38**DCL        36--PROC       64--ENTRY      66--ENTRY      70>>ASSIGN
FRAGSIZE
        39**DCL        36--PROC       64--ENTRY      66--ENTRY      74>>ASSIGN
ITEMP
        42**DCL        71<<ASSIGN     73>>ASSIGN     74>>ASSIGN     76>>DOUNTIL    77>>ASSIGN     85<<ASSIGN
        85>>ASSIGN
PTR$
        50**DCL        77>>ASSIGN    121>>ASSIGN    122>>ASSIGN
PTRX.OFF
        51**DCL        71>>ASSIGN     72<<ASSIGN
PL6.E3A0      #010=KNA$CHECKSUM File=KNA$SUBS.:E05TSI                            WED 07/30/97 01:04 Page:301
SIZE
        43**DCL        74<<ASSIGN     76>>DOUNTIL   100>>ASSIGN
TEMP2
        54**DCL        55--REDEF     100<<ASSIGN    101>>ASSIGN    104<<ASSIGN    105<<ASSIGN    105>>ASSIGN
       107<<ASSIGN    107>>ASSIGN    109>>IF        109<<ASSIGN    109>>ASSIGN    110>>ASSIGN    115<<ASSIGN
       115>>ASSIGN    116>>IF        116<<ASSIGN    116>>ASSIGN    117>>ASSIGN
TEMP2X.LO
        55**DCL       107>>ASSIGN
TEMP4
        56**DCL        57--REDEF     101<<ASSIGN    104>>ASSIGN
TEMP4X.LO
        57**DCL       105>>ASSIGN
XX
        53**DCL       110<<ASSIGN    112>>IF        113<<ASSIGN    113>>ASSIGN    122>>ASSIGN
YY
        58**DCL       117<<ASSIGN    118>>IF        119<<ASSIGN    119>>ASSIGN    121>>ASSIGN
