VERSION E05

PL6.E3A0      #001=KNA$CONTEXT File=KNA$SUBS.:E05TSI                             WED 07/30/97 00:58 Page:1
        1        1        /*M* KNA$SUBS - Application Presentation Engine  Assorted routines */
        2        2        /*T***********************************************************/
        3        3        /*T*                                                         */
        4        4        /*T* Copyright (c) Bull HN Information Systems Inc., 1997    */
        5        5        /*T*                                                         */
        6        6        /*T***********************************************************/
        7        7        /*X* PLM=3,IND=5,ENU=0,ECU=0  */
        8        8
        9        9        /*P* NAME: KNA$SUBS
       10       10           PURPOSE:  This module contains various utility routines used by the
       11       11                     Application Protocol Engine:
       12       12
       13       13                     KNA$CONTEXT - To get and release IOP, LDCT, TCTX and SSN context
       14       14                     KNA$LOCATE_TCTX - Selectively locate a transport context
       15       15                     KNA$CHECKSUM - Build and OSI header checksums
       16       16                     KNA$MAP - To map user area into the monitor window
       17       17                     KNA$REG_USER - To reg the user
       18       18                     KNA$DECODE_VDO - To decode a read response
       19       19                     KNA$BUILD_VDO
       20       20                     KNA$FCNO and KNA$FCNOU
       21       21                     KNA$CONV_STR - To convert stream name to stream number
       22       22                     KNA$CHECK_VDO
       23       23        */
       24       24
       25       25
       26       26        %EJECT;
PL6.E3A0      #001=KNA$CONTEXT File=KNA$SUBS.:E05TSI                             WED 07/30/97 00:58 Page:2
       27       27        /*F* NAME: KNA$CONTEXT
       28       28             PURPOSE:
       29       29                   The KNA$CONTEXT module contains the routines to allocate
       30       30                   and deallocate the LCP-6 I/O Packets, Session Context
       31       31                   Blocks and Logical Device Control Table entries.
       32       32        */
       33       33
       34       34        /*D* NAME: KNA$GET_context_block
       35       35
       36       36             CALL: CALL KNA$GET [ IOP | LDCT | TCTX | SSN ] (ctx$)
       37       37
       38       38             OUTPUT: ctx$ - contains the address on the allocated context block.
       39       39
       40       40             DESCRIPTION:
       41       41                   Current usage and peak counts for each of type of context
       42       42                   blocks are maintained.
       43       43                   If there are no context blocks available the alternate
       44       44                   return is taken.
       45       45        */
       46       46
       47       47        /*D* NAME: KNA$RLS_context_block
       48       48
       49       49             CALL: CALL KNA$RLS [ IOP | LDCT | SSN ] (ctx$)
       50       50
       51       51             INPUT: ctx$ - contains the address of the context block to be released.
       52       52
       53       53             DESCRIPTION:
       54       54                   The context block is added to the chain of free context
       55       55                   blocks.
       56       56                   If the context checker for any specific type is turned
       57       57                   on, the release context routine will run the chain of
       58       58                   free context blocks to check for inconsistancies.
       59       59        */
       60       60
       61       61        KNA$CONTEXT: PROC(CTX$) ALTRET;
       62       62
       63       63        %INCLUDE GH_SCHD_M;
PL6.E3A0      #001=KNA$CONTEXT File=KNA$SUBS.:E05TSI                             WED 07/30/97 00:58 Page:3
       64      207        %INCLUDE K_ADDRESS_M;
       65      710        %INCLUDE K_TRANSPORT_E;
       66     1035        %INCLUDE KN_DATA_M;
       67     2821        %INCLUDE KNA_MACRO_M;
       68     2897        %INCLUDE GH_LCP6_M;
       69     3731        %INCLUDE GU_LCP6_M;
       70     4659        %INCLUDE GH_GATE_M;
       71     4700        %INCLUDE K_SCODE_C;
       72     4785        %INCLUDE FR_SCODE_C;
       73     4802        %INCLUDE G_JIT_M;
       74     5067
       75     5068                                                /* Input parameters                   */
       76     5069    1   DCL CTX$ PTR;
       77     5070
       78     5071                                                /* Auto Storage                       */
       79     5072    1   DCL DATA$ PTR;                          /*addr of appropriate kn_data_tbl*/
       80     5073    1   DCL LDCTX UBIN;
       81     5074    1   DCL TCTX_ID REDEF LDCTX UBIN;
       82     5075    1   DCL GENERATION UBIN;
       83     5076
       84     5077    1   DCL CTX_COUNT UBIN;
       85     5078    1   DCL CTX$$ PTR;
       86     5079    1   DCL LNK$ PTR;
       87     5080
       88     5081                                                /* Static Data                        */
       89     5082        %VLP_SCODE (FPTN=SC_BRKN_CHAIN,ERR#=%S$BRKN_CHAIN,SEV=G_SEV_SCREECH#,
       90     5083                    STCLASS=CONSTANT,FCG=KN,MID=A,MON='1'B);
       91     5144        %VLP_SCODE (FPTN=SC_IOP,ERR#=%S$IOP,SEV=G_SEV_SCREECH#,
       92     5145                    STCLASS=CONSTANT,FCG=KN,MID=A,MON='1'B);
       93     5206        %VLP_SCODE (FPTN=SC_LDCT,ERR#=%S$LDCT,SEV=G_SEV_SCREECH#,
       94     5207                    STCLASS=CONSTANT,FCG=KN,MID=A,MON='1'B);
       95     5268        %VLP_SCODE (FPTN=SC_SSN,ERR#=%S$SSN,SEV=G_SEV_SCREECH#,
       96     5269                    STCLASS=CONSTANT,FCG=KN,MID=A,MON='1'B);
       97     5330        %VLP_SCODE (FPTN=SC_TCTX,ERR#=%S$TCTX,SEV=G_SEV_SCREECH#,
       98     5331                    STCLASS=CONSTANT,FCG=KN,MID=A,MON='1'B);
       99     5392        %VLP_SCODE (FPTN=SC_DELU,ERR#=%S$R2FEW,SEV=G_SEV_SCREECH#,
      100     5393                    STCLASS=CONSTANT,FCG=KN,MID=A,MON='1'B);
PL6.E3A0      #001=KNA$CONTEXT File=KNA$SUBS.:E05TSI                             WED 07/30/97 00:58 Page:4
      101     5454        %GATE (FPTN=KN_CTX_GATE,STCLASS=SYMREF);
      102     5473
      103     5474                                                /* External Data                      */
      104     5475    1   DCL G$BOBCAT$ PTR SYMREF READONLY;
      105     5476    1   DCL G$JIT$ PTR SYMREF READONLY;
      106     5477    1   DCL KN_IOP_START$ PTR SYMREF READONLY;
      107     5478    1   DCL KN_LDCT_START$ PTR SYMREF READONLY;
      108     5479    1   DCL KN_SSN_START$ PTR SYMREF READONLY;
      109     5480    1   DCL KN_TCTX_START$ PTR SYMREF READONLY;
      110     5481    1   DCL KN_IOP_END$ PTR SYMREF READONLY;
      111     5482    1   DCL KN_LDCT_END$ PTR SYMREF READONLY;
      112     5483    1   DCL KN_SSN_END$ PTR SYMREF READONLY;
      113     5484    1   DCL KN_DCT$$ PTR SYMREF READONLY;
      114     5485    1   DCL KN_TCTX$$ PTR SYMREF READONLY;
      115     5486    1   DCL KNT_WINDOW_EXTENDED UBIN SYMREF;
      116     5487    1   DCL KNT_RETRAN_TIMER UBIN SYMREF;
      117     5488    1   DCL KNT_WINDOW_TIMER UBIN SYMREF;
      118     5489    1   DCL KNT_INACTIVITY_TIMER UBIN SYMREF;
      119     5490    1   DCL KNT_REFERENCE_TIMER UBIN SYMREF;
      120     5491
      121     5492                                                /* Based Data                         */
      122     5493        %KN_DATA_TBL (FPTN=KN$DATA, TYPE=STRUCTURE, STCLASS="BASED(DATA$)");
      123     5557        %KNA$SSN;
      124     5640        %KN$IOP;
      125     5813        %KN$LDCT;
      126     6058        %K$TCTX;
      127     6965    1   DCL KN$DCT$(0:0) PTR BASED(KN_DCT$$);
      128     6966    1   DCL K$TCTX$(0:0) PTR BASED(KN_TCTX$$);
      129     6967        %G$JIT(STCLASS="BASED(G$JIT$)");
      130     7381    1   DCL B$PTR PTR BASED;
      131     7382
      132     7383
      133     7384    1   DCL SCREECH ENTRY(1);
      134     7385    1   DCL KNT$TTIMER ENTRY(1);
      135     7386    1   DCL KNT$RLS_CHAIN ENTRY(1);
      136     7387    1   DCL GHS$CANCEL_TMR ENTRY(1);
      137     7388        %EJECT;
PL6.E3A0      #001=KNA$CONTEXT File=KNA$SUBS.:E05TSI                             WED 07/30/97 00:58 Page:5
      138     7389    1   KNA$GETIOP: ENTRY(CTX$) ALTRET;
      139     7390    1      DATA$ = ADDR(KN_IOP_START$);
      140     7391    1      CALL GET_CTX
      141     7392    2      WHENALTRETURN DO;
      142     7393    2           CALL SCREECH(SC_IOP);
      143     7394    2           ALTRETURN;
      144     7395    2           END;
      145     7396        /*S* SCREECH_CODE: KNA-S$IOP
      146     7397             TYPE: SCREECH
      147     7398             MESSAGE: Out of system IOPs.  NETCON IOP value may be too small.
      148     7399             REMARKS: If increasing the IOP value is ineffective, submit a star.
      149     7400        */
      150     7401    1      CTX$->KN$IOP = '0'B;
      151     7402    1      CTX$->KN$IOP.FLAGS.INUSE = '1'B;
      152     7403    1      CTX$->KN$IOP.L.USER# = G$JIT.USR#;
      153     7404    1      RETURN;
      154     7405
      155     7406    1   KNA$RLSIOP: ENTRY(CTX$) ALTRET;
      156     7407    1      IF CTX$ = ADDR(NIL) THEN CALL CTX_SCREECH;
      157     7408
      158     7409    1      IF NOT(CTX$->KN$IOP.FLAGS.INUSE)
      159     7410    1      THEN CALL CTX_SCREECH;
      160     7411
      161     7412    1      ELSE CTX$->KN$IOP.FLAGS.INUSE = '0'B;
      162     7413
      163     7414    1      DATA$ = ADDR(KN_IOP_START$);
      164     7415    1      CALL RLS_CTX;
      165     7416    1      RETURN;
      166     7417        %EJECT;
PL6.E3A0      #001=KNA$CONTEXT File=KNA$SUBS.:E05TSI                             WED 07/30/97 00:58 Page:6
      167     7418    1   KNA$GETLDCT: ENTRY(CTX$) ALTRET;
      168     7419    1      DATA$ = ADDR(KN_LDCT_START$);
      169     7420    1      CALL GET_CTX
      170     7421    2      WHENALTRETURN DO;
      171     7422    2           CALL SCREECH(SC_LDCT);
      172     7423    2           ALTRETURN;
      173     7424    2           END;
      174     7425        /*S* SCREECH_CODE: KNA-S$LDCT
      175     7426             TYPE: SCREECH
      176     7427             MESSAGE: Out of system LDCTs.  NETCON LDCT value may be too small.
      177     7428             REMARKS: If increasing the LDCT value is ineffective, submit a star.
      178     7429        */
      179     7430
      180     7431    1      LDCTX = CTX$->KN$LDCT.LDCTX;
      181     7432    1      GENERATION = CTX$->KN$LDCT.GENERATION +1;
      182     7433    1      CTX$->KN$LDCT = '0'B;
      183     7434    1      CTX$->KN$LDCT.LDCTX = LDCTX;
      184     7435    1      CTX$->KN$LDCT.GENERATION = GENERATION;
      185     7436    1      CTX$->KN$LDCT.CQPTR = -1;
      186     7437
      187     7438    1      KN$DCT$(LDCTX) = CTX$;
      188     7439
      189     7440    1      RETURN;
      190     7441
      191     7442
      192     7443    1   KNA$RLSLDCT: ENTRY(CTX$) ALTRET;
      193     7444    1      IF CTX$ = ADDR(NIL) THEN CALL CTX_SCREECH;
      194     7445
      195     7446    2      ELSE DO;
      196     7447    2           CTX$->KN$LDCT.USER# = 0;
      197     7448    2           KN$DCT$(CTX$->KN$LDCT.LDCTX) = ADDR(NIL);
      198     7449    2           END;
      199     7450
      200     7451           %LOCK (G=KN_CTX_GATE);
      201     7458    1      IF CTX$->KN$LDCT.FLAGS.QUEUED
      202     7459    2      THEN DO;
      203     7460    2           CTX$->KN$LDCT.FLAGS.REL = '1'B;
PL6.E3A0      #001=KNA$CONTEXT File=KNA$SUBS.:E05TSI                             WED 07/30/97 00:58 Page:7
      204     7461    2           CTX$->KN$LDCT.USER_ENTRY$ = ENTADDR(NIL);
      205     7462                %UNLOCK (G=KN_CTX_GATE);
      206     7469    2           RETURN;
      207     7470    2           END;
      208     7471
      209     7472    1      DATA$ = ADDR(KN_LDCT_START$);
      210     7473    1      CALL RLS_CTX2;
      211     7474    1      RETURN;
      212     7475
      213     7476        %EJECT;
PL6.E3A0      #001=KNA$CONTEXT File=KNA$SUBS.:E05TSI                             WED 07/30/97 00:58 Page:8
      214     7477    1   KNA$GETSSN: ENTRY(CTX$) ALTRET;
      215     7478    1      DATA$ = ADDR(KN_SSN_START$);
      216     7479    1      CALL GET_CTX
      217     7480    2      WHENALTRETURN DO;
      218     7481    2           CALL SCREECH(SC_SSN);
      219     7482    2           ALTRETURN;
      220     7483    2           END;
      221     7484        /*S* SCREECH_CODE: KNA-S$SSN
      222     7485             TYPE: SCREECH
      223     7486             MESSAGE: Out of system APESSNs.  NETCON APESSN value may be too small.
      224     7487             REMARKS: If increasing the APESSN value is ineffective, submit a star.
      225     7488        */
      226     7489    1      CTX$->KNA$SSN = '0'B;
      227     7490    1      RETURN;
      228     7491
      229     7492
      230     7493    1   KNA$RLSSSN: ENTRY(CTX$) ALTRET;
      231     7494    1      IF CTX$ = ADDR(NIL) THEN CALL CTX_SCREECH;
      232     7495    1      ELSE CTX$->KNA$SSN.STATE = 0;
      233     7496
      234     7497    1      DATA$ =ADDR(KN_SSN_START$);
      235     7498    1      CALL RLS_CTX;
      236     7499    1      RETURN;
      237     7500
      238     7501        %EJECT;
PL6.E3A0      #001=KNA$CONTEXT File=KNA$SUBS.:E05TSI                             WED 07/30/97 00:58 Page:9
      239     7502    1   KNA$GETTCTX: ENTRY(CTX$) ALTRET;
      240     7503    1      DATA$ = ADDR(KN_TCTX_START$);
      241     7504    1      CALL GET_CTX
      242     7505    2      WHENALTRETURN DO;
      243     7506    2           CALL SCREECH(SC_TCTX);
      244     7507    2           END;
      245     7508        /*S* SCREECH_CODE: KNA-S$TCTX
      246     7509             TYPE: SCREECH
      247     7510             MESSAGE: Out of Transport Context.
      248     7511        */
      249     7512
      250     7513    1      TCTX_ID = CTX$->K$TCTX.SRC_REF;
      251     7514    1      CTX$->K$TCTX = '0'B;
      252     7515    1      CTX$->K$TCTX.SRC_REF = TCTX_ID;
      253     7516    1      CTX$->K$TCTX.STATE = %K_TSTATE_CLOSED;
      254     7517    1      CTX$->K$TCTX.RCV_WINDOW_SZ = KNT_WINDOW_EXTENDED;
      255     7518    1      CTX$->K$TCTX.RECV_UWE = CTX$->K$TCTX.RCV_WINDOW_SZ;
      256     7519    1      CTX$->K$TCTX.SEND_RETRY_COUNT = 1;
      257     7520    1      CTX$->K$TCTX.TPDUSZ = 128;
      258     7521    1      CTX$->K$TCTX.TPDUSZ_PARM = %K_TPDUSIZE_128;
      259     7522    1      CTX$->K$TCTX.MAXSEQ = 2147483647/*.7FFF FFFF*/;
      260     7523    1      CTX$->K$TCTX.SSN_CRDT = 1;
      261     7524
      262     7525    1      CTX$->K$TCTX.TMR_RETRAN.INTERVAL = (KNT_RETRAN_TIMER *15) /2;
      263     7526    1      CTX$->K$TCTX.TMR_WINDOW.INTERVAL = (KNT_WINDOW_TIMER *15) /2;
      264     7527    1      CTX$->K$TCTX.TMR_INACTIVITY.INTERVAL = (KNT_INACTIVITY_TIMER *15) /2;
      265     7528    1      CTX$->K$TCTX.TMR_REFERENCE.INTERVAL = (KNT_REFERENCE_TIMER *15) /2;
      266     7529
      267     7530    1      CTX$->K$TCTX.TMR_RETRAN.CLOCK_ID.TCTX = CTX$->K$TCTX.SRC_REF;
      268     7531    1      CTX$->K$TCTX.TMR_WINDOW.CLOCK_ID.TCTX = CTX$->K$TCTX.SRC_REF;
      269     7532    1      CTX$->K$TCTX.TMR_INACTIVITY.CLOCK_ID.TCTX = CTX$->K$TCTX.SRC_REF;
      270     7533    1      CTX$->K$TCTX.TMR_REFERENCE.CLOCK_ID.TCTX = CTX$->K$TCTX.SRC_REF;
      271     7534
      272     7535    1      CTX$->K$TCTX.TMR_RETRAN.CLOCK_ID.TMR = %K_TTIMER_RETRAN;
      273     7536    1      CTX$->K$TCTX.TMR_WINDOW.CLOCK_ID.TMR = %K_TTIMER_WINDOW;
      274     7537    1      CTX$->K$TCTX.TMR_INACTIVITY.CLOCK_ID.TMR = %K_TTIMER_INACTIVITY;
      275     7538    1      CTX$->K$TCTX.TMR_REFERENCE.CLOCK_ID.TMR = %K_TTIMER_REFERENCE;
PL6.E3A0      #001=KNA$CONTEXT File=KNA$SUBS.:E05TSI                             WED 07/30/97 00:58 Page:10
      276     7539
      277     7540
      278     7541    1      CTX$->K$TCTX.TMR_RETRAN.PROC$ = ENTADDR(KNT$TTIMER);
      279     7542    1      CTX$->K$TCTX.TMR_WINDOW.PROC$ = ENTADDR(KNT$TTIMER);
      280     7543    1      CTX$->K$TCTX.TMR_INACTIVITY.PROC$ = ENTADDR(KNT$TTIMER);
      281     7544    1      CTX$->K$TCTX.TMR_REFERENCE.PROC$ = ENTADDR(KNT$TTIMER);
      282     7545
      283     7546    1      K$TCTX$(TCTX_ID) = CTX$;
      284     7547
      285     7548    1      RETURN;
      286     7549
      287     7550
      288     7551    1   KNA$RELTCTX: ENTRY(CTX$) ALTRET;
      289     7552    1      IF CTX$ = ADDR(NIL) THEN CALL CTX_SCREECH;
      290     7553
      291     7554    1      ELSE CALL GHS$CANCEL_TMR (CTX$->K$TCTX.TMR_RETRAN);
      292     7555    1      CALL GHS$CANCEL_TMR (CTX$->K$TCTX.TMR_WINDOW);
      293     7556    1      CALL GHS$CANCEL_TMR (CTX$->K$TCTX.TMR_INACTIVITY);
      294     7557    1      CALL GHS$CANCEL_TMR (CTX$->K$TCTX.TMR_REFERENCE);
      295     7558
      296     7559    1      CALL KNT$RLS_CHAIN(CTX$->K$TCTX);
      297     7560
      298     7561    1      CTX$->K$TCTX.STATE = %K_TSTATE_CLOSED;
      299     7562
      300     7563    1      DATA$ = ADDR(KN_TCTX_START$);
      301     7564    1      CALL RLS_CTX;
      302     7565    1      RETURN;
      303     7566
      304     7567        %EJECT;
PL6.E3A0      #001=KNA$CONTEXT File=KNA$SUBS.:E05TSI                             WED 07/30/97 00:58 Page:11
      305     7568        /*D* NAME: KNA$CHECK
      306     7569
      307     7570             PURPOSE: To check for resources that may be still allocated
      308     7571                      to the user at delete user time.
      309     7572        */
      310     7573
      311     7574    1   KNA$CHECK: ENTRY ALTRET;
      312     7575
      313     7576    1      DATA$ = KN_SSN_START$;
      314     7577    2      DO WHILE DATA$ <= KN_SSN_END$;
      315     7578    2           IF DATA$->KNA$SSN.STATE ~= 0 AND DATA$->KNA$SSN.USER# = G$JIT.USR#
      316     7579    2           THEN CALL DELU_SCREECH;
      317     7580
      318     7581    2           ELSE DATA$ = PINCRW(DATA$,SIZEW(KNA$SSN));
      319     7582    2           END;
      320     7583
      321     7584    1      DATA$ = KN_IOP_START$;
      322     7585    2      DO WHILE DATA$ <= KN_IOP_END$;
      323     7586    2           IF DATA$->KN$IOP.LNK$ < G$BOBCAT$
      324     7587    3           THEN DO;
      325     7588    3                IF DATA$->KN$IOP.L.USER# = G$JIT.USR#
      326     7589    3                THEN CALL DELU_SCREECH;
      327     7590    3                END;
      328     7591    2           ELSE DATA$ = PINCRW(DATA$,SIZEW(KN$IOP));
      329     7592    2           END;
      330     7593
      331     7594    1      DATA$ = KN_LDCT_START$;
      332     7595    2      DO WHILE DATA$ <= KN_LDCT_END$;
      333     7596    2           IF DATA$->KN$LDCT.USER# = G$JIT.USR#
      334     7597    2           THEN CALL DELU_SCREECH;
      335     7598
      336     7599    2           ELSE DATA$ = PINCRW(DATA$,SIZEW(KN$LDCT));
      337     7600    2           END;
      338     7601    1      RETURN;
      339     7602
      340     7603        %EJECT;
PL6.E3A0      #001=KNA$CONTEXT File=KNA$SUBS.:E05TSI                             WED 07/30/97 00:58 Page:12
      341     7604
      342     7605    1   GET_CTX: PROC ALTRET;
      343     7606           %LOCK (G=KN_CTX_GATE);
      344     7613
      345     7614    2      CTX$ = KN$DATA.HEAD$;
      346     7615
      347     7616    2      IF CTX$ = ADDR(NIL)
      348     7617    3      THEN DO;
      349     7618    3           IF KN$DATA.USE# ~= KN$DATA.MAX#
      350     7619    3           THEN CALL CTX_SCREECH;
      351     7620
      352     7621                %UNLOCK (G=KN_CTX_GATE);
      353     7628    3           ALTRETURN;
      354     7629    3           END;
      355     7630
      356     7631    3      ELSE DO;
      357     7632    3           KN$DATA.USE# = KN$DATA.USE# +1;
      358     7633    3           IF KN$DATA.USE# > KN$DATA.PEAK#
      359     7634    3           THEN KN$DATA.PEAK# = KN$DATA.USE#;
      360     7635
      361     7636    3           LNK$ = PINCRW(CTX$,KN$DATA.LNK#);
      362     7637    3           KN$DATA.HEAD$ = LNK$->B$PTR;
      363     7638                %UNLOCK (G=KN_CTX_GATE);
      364     7645    3           RETURN;
      365     7646    3           END;
      366     7647    2   END GET_CTX;
      367     7648        %EJECT;
PL6.E3A0      #001=KNA$CONTEXT File=KNA$SUBS.:E05TSI                             WED 07/30/97 00:58 Page:13
      368     7649
      369     7650    1   RLS_CTX: PROC;
      370     7651           %LOCK (G=KN_CTX_GATE);
      371     7658
      372     7659    2   RLS_CTX2: ENTRY;
      373     7660    2      IF KN$DATA.CHECK ~= 0
      374     7661    3      THEN DO;
      375     7662    3           CTX_COUNT = 0;
      376     7663    3           CTX$$ = KN$DATA.HEAD$;
      377     7664
      378     7665    4           DO WHILE CTX$$ ~= ADDR(NIL);
      379     7666    4                CTX_COUNT = CTX_COUNT + 1;
      380     7667
      381     7668    4                LNK$ = PINCRW(CTX$$,KN$DATA.LNK#);
      382     7669    4                IF (CTX$$ = CTX$) OR (LNK$->B$PTR = CTX$$)
      383     7670    4                THEN CALL CTX_SCREECH;
      384     7671
      385     7672    4                ELSE IF (CTX$$ > KN$DATA.END$) OR (CTX$$ < KN$DATA.START$)
      386     7673    4                     THEN CALL CTX_SCREECH;
      387     7674
      388     7675    4                     ELSE CTX$$ = LNK$->B$PTR;
      389     7676    4                END;
      390     7677
      391     7678    3           IF CTX_COUNT + KN$DATA.USE# ~= KN$DATA.MAX#
      392     7679    3           THEN CALL CTX_SCREECH;
      393     7680    3           END/*do if check*/;
      394     7681
      395     7682    2      LNK$ = PINCRW(CTX$,KN$DATA.LNK#);
      396     7683    2      LNK$->B$PTR = KN$DATA.HEAD$;
      397     7684    2      KN$DATA.HEAD$ = CTX$;
      398     7685    2      KN$DATA.USE# = KN$DATA.USE# -1;
      399     7686
      400     7687    2      CTX$ = ADDR(NIL);
      401     7688           %UNLOCK (G=KN_CTX_GATE);
      402     7695    2      RETURN;
      403     7696
      404     7697    2   END RLS_CTX;
PL6.E3A0      #001=KNA$CONTEXT File=KNA$SUBS.:E05TSI                             WED 07/30/97 00:58 Page:14
      405     7698        %EJECT;
PL6.E3A0      #001=KNA$CONTEXT File=KNA$SUBS.:E05TSI                             WED 07/30/97 00:58 Page:15
      406     7699    1   CTX_SCREECH: PROC;
      407     7700    2      CALL SCREECH(SC_BRKN_CHAIN);
      408     7701
      409     7702        /*S* SCREECH_CODE: KNA-S$BRKN_CHAIN
      410     7703             TYPE: SCREECH
      411     7704             MESSAGE: Error in the chain of IOPs, LDCTs, SSN or TCTX Blocks.
      412     7705        */
      413     7706    2   END CTX_SCREECH;
      414     7707
      415     7708        %EJECT;
PL6.E3A0      #001=KNA$CONTEXT File=KNA$SUBS.:E05TSI                             WED 07/30/97 00:58 Page:16
      416     7709    1   DELU_SCREECH: PROC;
      417     7710    2      CALL SCREECH(SC_DELU);
      418     7711
      419     7712        /*S* SCREECH_CODE: KNA-S$R2FEW
      420     7713             TYPE: SCREECH
      421     7714             MESSAGE: User has resources allocated at delete user.
      422     7715        */
      423     7716    2   END DELU_SCREECH;
      424     7717    1   END KNA$CONTEXT;
      425     7718        %EOD;

PL6.E3A0      #001=KNA$CONTEXT File=KNA$SUBS.:E05TSI                             WED 07/30/97 00:58 Page:17
--  Include file information  --

   G_JIT_M.:E05TOU  is referenced.
   FR_SCODE_C.:E05TOU  is referenced.
   K_SCODE_C.:E05TOU  is referenced.
   GH_GATE_M.:E05TOU  cannot be made into a system file and is referenced.
   GU_LCP6_M.:E05TOU  is referenced.
   GH_LCP6_M.:E05TOU  is referenced.
   KNA_MACRO_M.:E05TOU  is referenced.
   KN_DATA_M.:E05TOU  is referenced.
   K_TRANSPORT_E.:E05TOU  is referenced.
   K_ADDRESS_M.:E05TOU  is referenced.
   GH_SCHD_M.:E05TOU  is referenced.
      No diagnostics issued in procedure KNA$CONTEXT.

   Procedure KNA$CONTEXT requires 995 words for executable code.
   Procedure KNA$CONTEXT requires 22 words of local(AUTO) storage.

PL6.E3A0      #001=KNA$CONTEXT File=KNA$SUBS.:E05TSI                             WED 07/30/97 00:58 Page:18

 Object Unit name= KNA$CONTEXT                                File name= KNA$SUBS.:E05TOU
 UTS= JUL 30 '97 00:58:30.12 WED                              Compiler= PL-6/E31         Sev=      00
 SharedLib= :SHARED_LCP6_SYSTEM                               Alt SharedLib=


    ****  Control sections  ****

 Sect   Type Bound  Init  Size HexSiz  Section name
    0  RoData even  UTS     18     12  KNA$CONTEXT
    1   Proc  even  none   995    3E3  KNA$CONTEXT
    2  RoData even  none    16     10  KNA$CONTEXT

    ****  Entry defs  ****

                              Check   Calling
                             calling  sequence
  Sect HexLoc Primary Altret sequence   type   Parms  Name
     1      0   yes    yes     yes      Std        1  KNA$CONTEXT
     1      7          yes     yes      Std        1  KNA$GETIOP
     1     3C          yes     yes      Std        1  KNA$RLSIOP
     1     64          yes     yes      Std        1  KNA$GETLDCT
     1     A9          yes     yes      Std        1  KNA$RLSLDCT
     1     F5          yes     yes      Std        1  KNA$GETSSN
     1    11D          yes     yes      Std        1  KNA$RLSSSN
     1    13A          yes     yes      Std        1  KNA$GETTCTX
     1    201          yes     yes      Std        1  KNA$RELTCTX
     1    267          yes     yes      Std        0  KNA$CHECK
PL6.E3A0      #001=KNA$CONTEXT File=KNA$SUBS.:E05TSI                             WED 07/30/97 00:58 Page:19

  ****  Entry refs  ****

         Check        Calling
        calling       sequence
Altret sequence SRef   type   Args  Name
         yes           Std       1 SCREECH
 yes     yes           Std       1 GHH$UNLOCK
         yes           Std       1 KNT$TTIMER
 yes     yes           Std       1 GHH$LOCK
         yes           Std       1 GHS$CANCEL_TMR
         yes           Std       1 KNT$RLS_CHAIN
                       nStd      0 X6A_AUTO_1
                       nStd      0 X6A_AALT
                       nStd      0 X6A_ARET
                       nStd      0 X6C_ALRZ

  ****  Data refs  ****

  Flags:  r = read only, s = secondary
Flgs Name                             Flgs Name                             Flgs Name
     KN_CTX_GATE                      r    G$BOBCAT$                        r    G$JIT$
r    KN_IOP_START$                    r    KN_LDCT_START$                   r    KN_SSN_START$
r    KN_TCTX_START$                   r    KN_IOP_END$                      r    KN_LDCT_END$
r    KN_SSN_END$                      r    KN_DCT$$                         r    KN_TCTX$$
     KNT_WINDOW_EXTENDED                   KNT_RETRAN_TIMER                      KNT_WINDOW_TIMER
     KNT_INACTIVITY_TIMER                  KNT_REFERENCE_TIMER              r    G$ROS$
PL6.E3A0      #001=KNA$CONTEXT File=KNA$SUBS.:E05TSI                             WED 07/30/97 00:58 Page:20


        1        1        /*M* KNA$SUBS - Application Presentation Engine  Assorted routines */
        2        2        /*T***********************************************************/
        3        3        /*T*                                                         */
        4        4        /*T* Copyright (c) Bull HN Information Systems Inc., 1997    */
        5        5        /*T*                                                         */
        6        6        /*T***********************************************************/
        7        7        /*X* PLM=3,IND=5,ENU=0,ECU=0  */
        8        8
        9        9        /*P* NAME: KNA$SUBS
       10       10           PURPOSE:  This module contains various utility routines used by the
       11       11                     Application Protocol Engine:
       12       12
       13       13                     KNA$CONTEXT - To get and release IOP, LDCT, TCTX and SSN context
       14       14                     KNA$LOCATE_TCTX - Selectively locate a transport context
       15       15                     KNA$CHECKSUM - Build and OSI header checksums
       16       16                     KNA$MAP - To map user area into the monitor window
       17       17                     KNA$REG_USER - To reg the user
       18       18                     KNA$DECODE_VDO - To decode a read response
       19       19                     KNA$BUILD_VDO
       20       20                     KNA$FCNO and KNA$FCNOU
       21       21                     KNA$CONV_STR - To convert stream name to stream number
       22       22                     KNA$CHECK_VDO
       23       23        */
       24       24
       25       25
       26       26        %EJECT;
PL6.E3A0      #001=KNA$CONTEXT File=KNA$SUBS.:E05TSI                             WED 07/30/97 00:58 Page:21
       27       27        /*F* NAME: KNA$CONTEXT
       28       28             PURPOSE:
       29       29                   The KNA$CONTEXT module contains the routines to allocate
       30       30                   and deallocate the LCP-6 I/O Packets, Session Context
       31       31                   Blocks and Logical Device Control Table entries.
       32       32        */
       33       33
       34       34        /*D* NAME: KNA$GET_context_block
       35       35
       36       36             CALL: CALL KNA$GET [ IOP | LDCT | TCTX | SSN ] (ctx$)
       37       37
       38       38             OUTPUT: ctx$ - contains the address on the allocated context block.
       39       39
       40       40             DESCRIPTION:
       41       41                   Current usage and peak counts for each of type of context
       42       42                   blocks are maintained.
       43       43                   If there are no context blocks available the alternate
       44       44                   return is taken.
       45       45        */
       46       46
       47       47        /*D* NAME: KNA$RLS_context_block
       48       48
       49       49             CALL: CALL KNA$RLS [ IOP | LDCT | SSN ] (ctx$)
       50       50
       51       51             INPUT: ctx$ - contains the address of the context block to be released.
       52       52
       53       53             DESCRIPTION:
       54       54                   The context block is added to the chain of free context
       55       55                   blocks.
       56       56                   If the context checker for any specific type is turned
       57       57                   on, the release context routine will run the chain of
       58       58                   free context blocks to check for inconsistancies.
       59       59        */
       60       60
       61       61        KNA$CONTEXT: PROC(CTX$) ALTRET;

     61   1 000000  D380 0000 0000  xent KNA$CONTEXT     LNJ,B5   X6A_AUTO_1
PL6.E3A0      #001=KNA$CONTEXT File=KNA$SUBS.:E05TSI                             WED 07/30/97 00:58 Page:22
          1 000003       0016 0001                       DC       22,1
          1 000005  0F81 0006                            B        s:7390,PREL

       62       62
       63       63        %INCLUDE GH_SCHD_M;
       64      207        %INCLUDE K_ADDRESS_M;
       65      710        %INCLUDE K_TRANSPORT_E;
       66     1035        %INCLUDE KN_DATA_M;
       67     2821        %INCLUDE KNA_MACRO_M;
       68     2897        %INCLUDE GH_LCP6_M;
       69     3731        %INCLUDE GU_LCP6_M;
       70     4659        %INCLUDE GH_GATE_M;
       71     4700        %INCLUDE K_SCODE_C;
       72     4785        %INCLUDE FR_SCODE_C;
       73     4802        %INCLUDE G_JIT_M;
       74     5067
       75     5068                                                /* Input parameters                   */
       76     5069    1   DCL CTX$ PTR;
       77     5070
       78     5071                                                /* Auto Storage                       */
       79     5072    1   DCL DATA$ PTR;                          /*addr of appropriate kn_data_tbl*/
       80     5073    1   DCL LDCTX UBIN;
       81     5074    1   DCL TCTX_ID REDEF LDCTX UBIN;
       82     5075    1   DCL GENERATION UBIN;
       83     5076
       84     5077    1   DCL CTX_COUNT UBIN;
       85     5078    1   DCL CTX$$ PTR;
       86     5079    1   DCL LNK$ PTR;
       87     5080
       88     5081                                                /* Static Data                        */
       89     5082        %VLP_SCODE (FPTN=SC_BRKN_CHAIN,ERR#=%S$BRKN_CHAIN,SEV=G_SEV_SCREECH#,
       90     5083                    STCLASS=CONSTANT,FCG=KN,MID=A,MON='1'B);
       91     5144        %VLP_SCODE (FPTN=SC_IOP,ERR#=%S$IOP,SEV=G_SEV_SCREECH#,
       92     5145                    STCLASS=CONSTANT,FCG=KN,MID=A,MON='1'B);
       93     5206        %VLP_SCODE (FPTN=SC_LDCT,ERR#=%S$LDCT,SEV=G_SEV_SCREECH#,
       94     5207                    STCLASS=CONSTANT,FCG=KN,MID=A,MON='1'B);
       95     5268        %VLP_SCODE (FPTN=SC_SSN,ERR#=%S$SSN,SEV=G_SEV_SCREECH#,
PL6.E3A0      #001=KNA$CONTEXT File=KNA$SUBS.:E05TSI                             WED 07/30/97 00:58 Page:23
       96     5269                    STCLASS=CONSTANT,FCG=KN,MID=A,MON='1'B);
       97     5330        %VLP_SCODE (FPTN=SC_TCTX,ERR#=%S$TCTX,SEV=G_SEV_SCREECH#,
       98     5331                    STCLASS=CONSTANT,FCG=KN,MID=A,MON='1'B);
       99     5392        %VLP_SCODE (FPTN=SC_DELU,ERR#=%S$R2FEW,SEV=G_SEV_SCREECH#,
      100     5393                    STCLASS=CONSTANT,FCG=KN,MID=A,MON='1'B);
      101     5454        %GATE (FPTN=KN_CTX_GATE,STCLASS=SYMREF);
      102     5473
      103     5474                                                /* External Data                      */
      104     5475    1   DCL G$BOBCAT$ PTR SYMREF READONLY;
      105     5476    1   DCL G$JIT$ PTR SYMREF READONLY;
      106     5477    1   DCL KN_IOP_START$ PTR SYMREF READONLY;
      107     5478    1   DCL KN_LDCT_START$ PTR SYMREF READONLY;
      108     5479    1   DCL KN_SSN_START$ PTR SYMREF READONLY;
      109     5480    1   DCL KN_TCTX_START$ PTR SYMREF READONLY;
      110     5481    1   DCL KN_IOP_END$ PTR SYMREF READONLY;
      111     5482    1   DCL KN_LDCT_END$ PTR SYMREF READONLY;
      112     5483    1   DCL KN_SSN_END$ PTR SYMREF READONLY;
      113     5484    1   DCL KN_DCT$$ PTR SYMREF READONLY;
      114     5485    1   DCL KN_TCTX$$ PTR SYMREF READONLY;
      115     5486    1   DCL KNT_WINDOW_EXTENDED UBIN SYMREF;
      116     5487    1   DCL KNT_RETRAN_TIMER UBIN SYMREF;
      117     5488    1   DCL KNT_WINDOW_TIMER UBIN SYMREF;
      118     5489    1   DCL KNT_INACTIVITY_TIMER UBIN SYMREF;
      119     5490    1   DCL KNT_REFERENCE_TIMER UBIN SYMREF;
      120     5491
      121     5492                                                /* Based Data                         */
      122     5493        %KN_DATA_TBL (FPTN=KN$DATA, TYPE=STRUCTURE, STCLASS="BASED(DATA$)");
      123     5557        %KNA$SSN;
      124     5640        %KN$IOP;
      125     5813        %KN$LDCT;
      126     6058        %K$TCTX;
      127     6965    1   DCL KN$DCT$(0:0) PTR BASED(KN_DCT$$);
      128     6966    1   DCL K$TCTX$(0:0) PTR BASED(KN_TCTX$$);
      129     6967        %G$JIT(STCLASS="BASED(G$JIT$)");
      130     7381    1   DCL B$PTR PTR BASED;
      131     7382
      132     7383
PL6.E3A0      #001=KNA$CONTEXT File=KNA$SUBS.:E05TSI                             WED 07/30/97 00:58 Page:24
      133     7384    1   DCL SCREECH ENTRY(1);
      134     7385    1   DCL KNT$TTIMER ENTRY(1);
      135     7386    1   DCL KNT$RLS_CHAIN ENTRY(1);
      136     7387    1   DCL GHS$CANCEL_TMR ENTRY(1);
      137     7388        %EJECT;
PL6.E3A0      #001=KNA$CONTEXT File=KNA$SUBS.:E05TSI                             WED 07/30/97 00:58 Page:25
      138     7389    1   KNA$GETIOP: ENTRY(CTX$) ALTRET;

   7389   1 000007  D380 0000 0000  xent KNA$GETIOP      LNJ,B5   X6A_AUTO_1
          1 00000A       0016 0001                       DC       22,1

      139     7390    1      DATA$ = ADDR(KN_IOP_START$);

   7390   1 00000C  EB80 0000 0000  xsym                 LAB,B6   KN_IOP_START$
          1 00000F  EFC7 0006                            STB,B6   DATA$,AUTO

      140     7391    1      CALL GET_CTX

   7391   1 000011  E3C0 02DD                            LNJ,B6   s:0,PREL
          1 000013       0003                            DC       s:7393,PREL
          1 000014  0F81 000D                            B        s:7401,PREL

      141     7392    2      WHENALTRETURN DO;

      142     7393    2           CALL SCREECH(SC_IOP);

   7393   1 000016  BB80 0000 0000  02                   LAB,B3   0
          1 000019  CBF0 0100                            LAB,B4   256,IMO
          1 00001B  E380 0000 0000  xent                 LNJ,B6   SCREECH
          1 00001E       0001                            DC       s:7394,PREL

      143     7394    2           ALTRETURN;

   7394   1 00001F  C380 0000 0000  xent                 LNJ,B4   X6A_AALT

      144     7395    2           END;
      145     7396        /*S* SCREECH_CODE: KNA-S$IOP
      146     7397             TYPE: SCREECH
      147     7398             MESSAGE: Out of system IOPs.  NETCON IOP value may be too small.
      148     7399             REMARKS: If increasing the IOP value is ineffective, submit a star.
      149     7400        */
      150     7401    1      CTX$->KN$IOP = '0'B;

PL6.E3A0      #001=KNA$CONTEXT File=KNA$SUBS.:E05TSI                             WED 07/30/97 00:58 Page:26
   7401   1 000022  ECC7 0004                            LDB,B6   @CTX$,AUTO
          1 000024  DC86                                 LDB,B5   ,B6
          1 000025  5C36                                 LDV,R5   54
          1 000026  0021                                 ALR      ;
          1 000027       4178 0000                                ALPHANUM('0000'X,IMO,,1),;
          1 000029       4005 0000                                ALPHANUM(0,B5,,R5,FILL)

      151     7402    1      CTX$->KN$IOP.FLAGS.INUSE = '1'B;

   7402   1 00002B  437F                                 CSYNC    s:7401+8,SPREL
          1 00002C  DC86                                 LDB,B5   ,B6
          1 00002D  8945 0003                            LBT,'1000'X       3,B5
          1 00002F       1000

      152     7403    1      CTX$->KN$IOP.L.USER# = G$JIT.USR#;

   7403   1 000030  DC86                                 LDB,B5   ,B6
          1 000031  CC80 0000 0000  xsym                 LDB,B4   G$JIT$
          1 000034  E844 0004                            LDR,R6   4,B4
          1 000036  EAC5 000F                            SRM,R6,'00FF'X    15,B5
          1 000038       00FF

      153     7404    1      RETURN;

   7404   1 000039  C380 0000 0000  xent                 LNJ,B4   X6A_ARET

      154     7405
      155     7406    1   KNA$RLSIOP: ENTRY(CTX$) ALTRET;

   7406   1 00003C  D380 0000 0000  xent KNA$RLSIOP      LNJ,B5   X6A_AUTO_1
          1 00003F       0016 0001                       DC       22,1

      156     7407    1      IF CTX$ = ADDR(NIL) THEN CALL CTX_SCREECH;

   7407   1 000041  ECC7 0004                            LDB,B6   @CTX$,AUTO
          1 000043  8D86                                 CMN      ,B6
          1 000044  0981 0004                            BNE      s:7409,PREL
PL6.E3A0      #001=KNA$CONTEXT File=KNA$SUBS.:E05TSI                             WED 07/30/97 00:58 Page:27

   7407   1 000046  E3C0 037E                            LNJ,B6   s:0,PREL
          1 000048       0001                            DC       s:7409,PREL

      157     7408
      158     7409    1      IF NOT(CTX$->KN$IOP.FLAGS.INUSE)

   7409   1 000049  ECC7 0004                            LDB,B6   @CTX$,AUTO
          1 00004B  DC86                                 LDB,B5   ,B6
          1 00004C  82C5 0003                            LB,'1000'X        3,B5
          1 00004E       1000
          1 00004F  0501 0006                            BBT      s:7412,PREL

      159     7410    1      THEN CALL CTX_SCREECH;

   7410   1 000051  E3C0 0373                            LNJ,B6   s:0,PREL
          1 000053       0001                            DC       s:7410+3,PREL
          1 000054  0F81 0004                            B        s:7414,PREL

      160     7411
      161     7412    1      ELSE CTX$->KN$IOP.FLAGS.INUSE = '0'B;

   7412   1 000056  8845 0003                            LBF,'1000'X       3,B5
   7412   1 000058       1000

      162     7413
      163     7414    1      DATA$ = ADDR(KN_IOP_START$);

   7414   1 000059  EB80 0000 0000  xsym                 LAB,B6   KN_IOP_START$
          1 00005C  EFC7 0006                            STB,B6   DATA$,AUTO

      164     7415    1      CALL RLS_CTX;

   7415   1 00005E  E3C0 02E2                            LNJ,B6   s:0,PREL
          1 000060       0001                            DC       s:7416,PREL

      165     7416    1      RETURN;
PL6.E3A0      #001=KNA$CONTEXT File=KNA$SUBS.:E05TSI                             WED 07/30/97 00:58 Page:28

   7416   1 000061  C380 0000 0000  xent                 LNJ,B4   X6A_ARET

      166     7417        %EJECT;
PL6.E3A0      #001=KNA$CONTEXT File=KNA$SUBS.:E05TSI                             WED 07/30/97 00:58 Page:29
      167     7418    1   KNA$GETLDCT: ENTRY(CTX$) ALTRET;

   7418   1 000064  D380 0000 0000  xent KNA$GETLDCT     LNJ,B5   X6A_AUTO_1
          1 000067       0016 0001                       DC       22,1

      168     7419    1      DATA$ = ADDR(KN_LDCT_START$);

   7419   1 000069  EB80 0000 0000  xsym                 LAB,B6   KN_LDCT_START$
          1 00006C  EFC7 0006                            STB,B6   DATA$,AUTO

      169     7420    1      CALL GET_CTX

   7420   1 00006E  E3C0 0280                            LNJ,B6   s:0,PREL
          1 000070       0003                            DC       s:7422,PREL
          1 000071  0F81 000D                            B        s:7431,PREL

      170     7421    2      WHENALTRETURN DO;

      171     7422    2           CALL SCREECH(SC_LDCT);

   7422   1 000073  BB80 0000 0002  02                   LAB,B3   +2
          1 000076  CBF0 0100                            LAB,B4   256,IMO
          1 000078  E380 0000 0000  xent                 LNJ,B6   SCREECH
          1 00007B       0001                            DC       s:7423,PREL

      172     7423    2           ALTRETURN;

   7423   1 00007C  C380 0000 0000  xent                 LNJ,B4   X6A_AALT

      173     7424    2           END;
      174     7425        /*S* SCREECH_CODE: KNA-S$LDCT
      175     7426             TYPE: SCREECH
      176     7427             MESSAGE: Out of system LDCTs.  NETCON LDCT value may be too small.
      177     7428             REMARKS: If increasing the LDCT value is ineffective, submit a star.
      178     7429        */
      179     7430
      180     7431    1      LDCTX = CTX$->KN$LDCT.LDCTX;
PL6.E3A0      #001=KNA$CONTEXT File=KNA$SUBS.:E05TSI                             WED 07/30/97 00:58 Page:30

   7431   1 00007F  ECC7 0004                            LDB,B6   @CTX$,AUTO
          1 000081  DC86                                 LDB,B5   ,B6
          1 000082  E845 0007                            LDR,R6   7,B5
          1 000084  EF47 0008                            STR,R6   LDCTX,AUTO

      181     7432    1      GENERATION = CTX$->KN$LDCT.GENERATION +1;

   7432   1 000086  D2C5 0004                            LLH,R5   4,B5
          1 000088  5E01                                 ADV,R5   1
          1 000089  DF47 0009                            STR,R5   GENERATION,AUTO

      182     7433    1      CTX$->KN$LDCT = '0'B;

   7433   1 00008B  5C20                                 LDV,R5   32
          1 00008C  0021                                 ALR      ;
          1 00008D       4178 0000                                ALPHANUM('0000'X,IMO,,1),;
          1 00008F       4005 0000                                ALPHANUM(0,B5,,R5,FILL)

      183     7434    1      CTX$->KN$LDCT.LDCTX = LDCTX;

   7434   1 000091  437F                                 CSYNC    s:7433+5,SPREL
          1 000092  DC86                                 LDB,B5   ,B6
          1 000093  E847 0008                            LDR,R6   LDCTX,AUTO
          1 000095  EF45 0007                            STR,R6   7,B5

      184     7435    1      CTX$->KN$LDCT.GENERATION = GENERATION;

   7435   1 000097  DC86                                 LDB,B5   ,B6
          1 000098  C847 0009                            LDR,R4   GENERATION,AUTO
          1 00009A  C7C5 0004                            STH,R4   4,B5

      185     7436    1      CTX$->KN$LDCT.CQPTR = -1;

   7436   1 00009C  DC86                                 LDB,B5   ,B6
          1 00009D  8945 000F                            LBT,'FFFF'X       15,B5
          1 00009F       FFFF
PL6.E3A0      #001=KNA$CONTEXT File=KNA$SUBS.:E05TSI                             WED 07/30/97 00:58 Page:31

      186     7437
      187     7438    1      KN$DCT$(LDCTX) = CTX$;

   7438   1 0000A0  DC86                                 LDB,B5   ,B6
          1 0000A1  CC80 0000 0000  xsym                 LDB,B4   KN_DCT$$
          1 0000A4  B856                                 LDR,R3   R6
          1 0000A5  DFB4                                 STB,B5   ,B4,R3

      188     7439
      189     7440    1      RETURN;

   7440   1 0000A6  C380 0000 0000  xent                 LNJ,B4   X6A_ARET

      190     7441
      191     7442
      192     7443    1   KNA$RLSLDCT: ENTRY(CTX$) ALTRET;

   7443   1 0000A9  D380 0000 0000  xent KNA$RLSLDCT     LNJ,B5   X6A_AUTO_1
          1 0000AC       0016 0001                       DC       22,1

      193     7444    1      IF CTX$ = ADDR(NIL) THEN CALL CTX_SCREECH;

   7444   1 0000AE  ECC7 0004                            LDB,B6   @CTX$,AUTO
          1 0000B0  8D86                                 CMN      ,B6
          1 0000B1  0981 0006                            BNE      s:7447,PREL

   7444   1 0000B3  E3C0 0311                            LNJ,B6   s:0,PREL
          1 0000B5       0001                            DC       s:7444+8,PREL
          1 0000B6  0F81 000E                            B        s:7456,PREL

      194     7445
      195     7446    2      ELSE DO;

      196     7447    2           CTX$->KN$LDCT.USER# = 0;

   7447   1 0000B8  DC86                                 LDB,B5   ,B6
PL6.E3A0      #001=KNA$CONTEXT File=KNA$SUBS.:E05TSI                             WED 07/30/97 00:58 Page:32
          1 0000B9  8745 000E                            CL       14,B5

      197     7448    2           KN$DCT$(CTX$->KN$LDCT.LDCTX) = ADDR(NIL);

   7448   1 0000BB  DC86                                 LDB,B5   ,B6
          1 0000BC  B845 0007                            LDR,R3   7,B5
          1 0000BE  CB80 0000 0000                       LAB,B4   0
          1 0000C1  BC80 0000 0000  xsym                 LDB,B3   KN_DCT$$
          1 0000C4  CFB3                                 STB,B4   ,B3,R3

      198     7449    2           END;

      199     7450
      200     7451           %LOCK (G=KN_CTX_GATE);

   7456   1 0000C5  BB80 0000 0004  02                   LAB,B3   +4
          1 0000C8  CBF0 0100                            LAB,B4   256,IMO
          1 0000CA  E380 0000 0000  xent                 LNJ,B6   GHH$LOCK
          1 0000CD       0001                            DC       s:7458,PREL

      201     7458    1      IF CTX$->KN$LDCT.FLAGS.QUEUED

   7458   1 0000CE  ECC7 0004                            LDB,B6   @CTX$,AUTO
          1 0000D0  DC86                                 LDB,B5   ,B6
          1 0000D1  89C5 000A                            CMZ      10,B5
          1 0000D3  0881 0016                            BAGE     s:7472,PREL

      202     7459    2      THEN DO;

      203     7460    2           CTX$->KN$LDCT.FLAGS.REL = '1'B;

   7460   1 0000D5  8945 000A                            LBT,'4000'X       10,B5
   7460   1 0000D7       4000

      204     7461    2           CTX$->KN$LDCT.USER_ENTRY$ = ENTADDR(NIL);

   7461   1 0000D8  DC86                                 LDB,B5   ,B6
PL6.E3A0      #001=KNA$CONTEXT File=KNA$SUBS.:E05TSI                             WED 07/30/97 00:58 Page:33
          1 0000D9  CC80 0000 0006  02                   LDB,B4   +6
          1 0000DC  CFC5 000C                            STB,B4   12,B5

      205     7462                %UNLOCK (G=KN_CTX_GATE);

   7467   1 0000DE  BB80 0000 0004  02                   LAB,B3   +4
          1 0000E1  CBF0 0100                            LAB,B4   256,IMO
          1 0000E3  E380 0000 0000  xent                 LNJ,B6   GHH$UNLOCK
          1 0000E6       0001                            DC       s:7469,PREL

      206     7469    2           RETURN;

   7469   1 0000E7  C380 0000 0000  xent                 LNJ,B4   X6A_ARET

      207     7470    2           END;
      208     7471
      209     7472    1      DATA$ = ADDR(KN_LDCT_START$);

   7472   1 0000EA  CB80 0000 0000  xsym                 LAB,B4   KN_LDCT_START$
          1 0000ED  CFC7 0006                            STB,B4   DATA$,AUTO

      210     7473    1      CALL RLS_CTX2;

   7473   1 0000EF  E3C0 025E                            LNJ,B6   s:0,PREL
          1 0000F1       0001                            DC       s:7474,PREL

      211     7474    1      RETURN;

   7474   1 0000F2  C380 0000 0000  xent                 LNJ,B4   X6A_ARET

      212     7475
      213     7476        %EJECT;
PL6.E3A0      #001=KNA$CONTEXT File=KNA$SUBS.:E05TSI                             WED 07/30/97 00:58 Page:34
      214     7477    1   KNA$GETSSN: ENTRY(CTX$) ALTRET;

   7477   1 0000F5  D380 0000 0000  xent KNA$GETSSN      LNJ,B5   X6A_AUTO_1
          1 0000F8       0016 0001                       DC       22,1

      215     7478    1      DATA$ = ADDR(KN_SSN_START$);

   7478   1 0000FA  EB80 0000 0000  xsym                 LAB,B6   KN_SSN_START$
          1 0000FD  EFC7 0006                            STB,B6   DATA$,AUTO

      216     7479    1      CALL GET_CTX

   7479   1 0000FF  E3C0 01EF                            LNJ,B6   s:0,PREL
          1 000101       0003                            DC       s:7481,PREL
          1 000102  0F81 000D                            B        s:7489,PREL

      217     7480    2      WHENALTRETURN DO;

      218     7481    2           CALL SCREECH(SC_SSN);

   7481   1 000104  BB80 0000 0008  02                   LAB,B3   +8
          1 000107  CBF0 0100                            LAB,B4   256,IMO
          1 000109  E380 0000 0000  xent                 LNJ,B6   SCREECH
          1 00010C       0001                            DC       s:7482,PREL

      219     7482    2           ALTRETURN;

   7482   1 00010D  C380 0000 0000  xent                 LNJ,B4   X6A_AALT

      220     7483    2           END;
      221     7484        /*S* SCREECH_CODE: KNA-S$SSN
      222     7485             TYPE: SCREECH
      223     7486             MESSAGE: Out of system APESSNs.  NETCON APESSN value may be too small.
      224     7487             REMARKS: If increasing the APESSN value is ineffective, submit a star.
      225     7488        */
      226     7489    1      CTX$->KNA$SSN = '0'B;

PL6.E3A0      #001=KNA$CONTEXT File=KNA$SUBS.:E05TSI                             WED 07/30/97 00:58 Page:35
   7489   1 000110  ECC7 0004                            LDB,B6   @CTX$,AUTO
          1 000112  DC86                                 LDB,B5   ,B6
          1 000113  5C32                                 LDV,R5   50
          1 000114  0021                                 ALR      ;
          1 000115       4178 0000                                ALPHANUM('0000'X,IMO,,1),;
          1 000117       4005 0000                                ALPHANUM(0,B5,,R5,FILL)

      227     7490    1      RETURN;

   7490   1 000119  437F                                 CSYNC    s:7489+8,SPREL
          1 00011A  C380 0000 0000  xent                 LNJ,B4   X6A_ARET

      228     7491
      229     7492
      230     7493    1   KNA$RLSSSN: ENTRY(CTX$) ALTRET;

   7493   1 00011D  D380 0000 0000  xent KNA$RLSSSN      LNJ,B5   X6A_AUTO_1
          1 000120       0016 0001                       DC       22,1

      231     7494    1      IF CTX$ = ADDR(NIL) THEN CALL CTX_SCREECH;

   7494   1 000122  ECC7 0004                            LDB,B6   @CTX$,AUTO
          1 000124  8D86                                 CMN      ,B6
          1 000125  0981 0006                            BNE      s:7495,PREL

   7494   1 000127  E3C0 029D                            LNJ,B6   s:0,PREL
          1 000129       0001                            DC       s:7494+8,PREL
          1 00012A  0F81 0004                            B        s:7497,PREL

      232     7495    1      ELSE CTX$->KNA$SSN.STATE = 0;

   7495   1 00012C  DC86                                 LDB,B5   ,B6
          1 00012D  8745 0013                            CL       19,B5

      233     7496
      234     7497    1      DATA$ =ADDR(KN_SSN_START$);

PL6.E3A0      #001=KNA$CONTEXT File=KNA$SUBS.:E05TSI                             WED 07/30/97 00:58 Page:36
   7497   1 00012F  EB80 0000 0000  xsym                 LAB,B6   KN_SSN_START$
          1 000132  EFC7 0006                            STB,B6   DATA$,AUTO

      235     7498    1      CALL RLS_CTX;

   7498   1 000134  E3C0 020C                            LNJ,B6   s:0,PREL
          1 000136       0001                            DC       s:7499,PREL

      236     7499    1      RETURN;

   7499   1 000137  C380 0000 0000  xent                 LNJ,B4   X6A_ARET

      237     7500
      238     7501        %EJECT;
PL6.E3A0      #001=KNA$CONTEXT File=KNA$SUBS.:E05TSI                             WED 07/30/97 00:58 Page:37
      239     7502    1   KNA$GETTCTX: ENTRY(CTX$) ALTRET;

   7502   1 00013A  D380 0000 0000  xent KNA$GETTCTX     LNJ,B5   X6A_AUTO_1
          1 00013D       0016 0001                       DC       22,1

      240     7503    1      DATA$ = ADDR(KN_TCTX_START$);

   7503   1 00013F  EB80 0000 0000  xsym                 LAB,B6   KN_TCTX_START$
          1 000142  EFC7 0006                            STB,B6   DATA$,AUTO

      241     7504    1      CALL GET_CTX

   7504   1 000144  E3C0 01AA                            LNJ,B6   s:0,PREL
          1 000146       0003                            DC       s:7506,PREL
          1 000147  0F81 000A                            B        s:7513,PREL

      242     7505    2      WHENALTRETURN DO;

      243     7506    2           CALL SCREECH(SC_TCTX);

   7506   1 000149  BB80 0000 000A  02                   LAB,B3   +10
          1 00014C  CBF0 0100                            LAB,B4   256,IMO
          1 00014E  E380 0000 0000  xent                 LNJ,B6   SCREECH
          1 000151       0001                            DC       s:7513,PREL

      244     7507    2           END;

      245     7508        /*S* SCREECH_CODE: KNA-S$TCTX
      246     7509             TYPE: SCREECH
      247     7510             MESSAGE: Out of Transport Context.
      248     7511        */
      249     7512
      250     7513    1      TCTX_ID = CTX$->K$TCTX.SRC_REF;

   7513   1 000152  ECC7 0004                            LDB,B6   @CTX$,AUTO
          1 000154  DC86                                 LDB,B5   ,B6
          1 000155  E845 0002                            LDR,R6   2,B5
PL6.E3A0      #001=KNA$CONTEXT File=KNA$SUBS.:E05TSI                             WED 07/30/97 00:58 Page:38
          1 000157  EF47 0008                            STR,R6   LDCTX,AUTO

      251     7514    1      CTX$->K$TCTX = '0'B;

   7514   1 000159  DFC7 0014                            STB,B5   LNK$+7,AUTO
          1 00015B  AB80 0000 0000  02                   LAB,B2   0
          1 00015E  2C0C                                 LDV,R2   12
          1 00015F  6C01                                 LDV,R6   1
          1 000160  BB85                                 LAB,B3   ,B5
          1 000161  3C00                                 LDV,R3   0
          1 000162  F870 0160                            LDR,R7   352,IMO
          1 000164  D380 0000 0000  xent                 LNJ,B5   X6C_ALRZ

      252     7515    1      CTX$->K$TCTX.SRC_REF = TCTX_ID;

   7515   1 000167  ECC7 0004                            LDB,B6   @CTX$,AUTO
          1 000169  DC86                                 LDB,B5   ,B6
          1 00016A  E847 0008                            LDR,R6   LDCTX,AUTO
          1 00016C  EF45 0002                            STR,R6   2,B5

      253     7516    1      CTX$->K$TCTX.STATE = %K_TSTATE_CLOSED;

   7516   1 00016E  DC86                                 LDB,B5   ,B6
          1 00016F  5C02                                 LDV,R5   2
          1 000170  D785                                 STH,R5   ,B5

      254     7517    1      CTX$->K$TCTX.RCV_WINDOW_SZ = KNT_WINDOW_EXTENDED;

   7517   1 000171  DC86                                 LDB,B5   ,B6
          1 000172  C800 0000 0000  xsym                 LDR,R4   KNT_WINDOW_EXTENDED
          1 000175  CAC5 0005                            SRM,R4,'00FF'X    5,B5
          1 000177       00FF

      255     7518    1      CTX$->K$TCTX.RECV_UWE = CTX$->K$TCTX.RCV_WINDOW_SZ;

   7518   1 000178  DC86                                 LDB,B5   ,B6
          1 000179  F845 0005                            LDR,R7   5,B5
PL6.E3A0      #001=KNA$CONTEXT File=KNA$SUBS.:E05TSI                             WED 07/30/97 00:58 Page:39
          1 00017B  F570 00FF                            AND,R7   255,IMO
          1 00017D  6C00                                 LDV,R6   0
          1 00017E  8D45 0024                            SDI      36,B5

      256     7519    1      CTX$->K$TCTX.SEND_RETRY_COUNT = 1;

   7519   1 000180  DC86                                 LDB,B5   ,B6
          1 000181  6C01                                 LDV,R6   1
          1 000182  E7C5 004D                            STH,R6   77,B5

      257     7520    1      CTX$->K$TCTX.TPDUSZ = 128;

   7520   1 000184  DC86                                 LDB,B5   ,B6
          1 000185  B870 0080                            LDR,R3   128,IMO
          1 000187  BF45 0009                            STR,R3   9,B5

      258     7521    1      CTX$->K$TCTX.TPDUSZ_PARM = %K_TPDUSIZE_128;

   7521   1 000189  DC86                                 LDB,B5   ,B6
          1 00018A  2C07                                 LDV,R2   7
          1 00018B  AAC5 0008                            SRM,R2,'00FF'X    8,B5
          1 00018D       00FF

      259     7522    1      CTX$->K$TCTX.MAXSEQ = 2147483647/*.7FFF FFFF*/;

   7522   1 00018E  DC86                                 LDB,B5   ,B6
          1 00018F  8CF0 7FFF FFFF                       LDI      2147483647,IMO
          1 000192  8D45 000A                            SDI      10,B5

      260     7523    1      CTX$->K$TCTX.SSN_CRDT = 1;

   7523   1 000194  DC86                                 LDB,B5   ,B6
          1 000195  1C01                                 LDV,R1   1
          1 000196  9F45 004A                            STR,R1   74,B5

      261     7524
      262     7525    1      CTX$->K$TCTX.TMR_RETRAN.INTERVAL = (KNT_RETRAN_TIMER *15) /2;
PL6.E3A0      #001=KNA$CONTEXT File=KNA$SUBS.:E05TSI                             WED 07/30/97 00:58 Page:40

   7525   1 000198  DC86                                 LDB,B5   ,B6
          1 000199  E800 0000 0000  xsym                 LDR,R6   KNT_RETRAN_TIMER
          1 00019C  6F0F                                 MLV,R6   15
          1 00019D  6041                                 SOR,R6   1
          1 00019E  EF45 0053                            STR,R6   83,B5

      263     7526    1      CTX$->K$TCTX.TMR_WINDOW.INTERVAL = (KNT_WINDOW_TIMER *15) /2;

   7526   1 0001A0  DC86                                 LDB,B5   ,B6
          1 0001A1  E800 0000 0000  xsym                 LDR,R6   KNT_WINDOW_TIMER
          1 0001A4  6F0F                                 MLV,R6   15
          1 0001A5  6041                                 SOR,R6   1
          1 0001A6  EF45 005D                            STR,R6   93,B5

      264     7527    1      CTX$->K$TCTX.TMR_INACTIVITY.INTERVAL = (KNT_INACTIVITY_TIMER *15) /2;

   7527   1 0001A8  DC86                                 LDB,B5   ,B6
          1 0001A9  E800 0000 0000  xsym                 LDR,R6   KNT_INACTIVITY_TIMER
          1 0001AC  6F0F                                 MLV,R6   15
          1 0001AD  6041                                 SOR,R6   1
          1 0001AE  EF45 0067                            STR,R6   103,B5

      265     7528    1      CTX$->K$TCTX.TMR_REFERENCE.INTERVAL = (KNT_REFERENCE_TIMER *15) /2;

   7528   1 0001B0  DC86                                 LDB,B5   ,B6
          1 0001B1  E800 0000 0000  xsym                 LDR,R6   KNT_REFERENCE_TIMER
          1 0001B4  6F0F                                 MLV,R6   15
          1 0001B5  6041                                 SOR,R6   1
          1 0001B6  EF45 0071                            STR,R6   113,B5

      266     7529
      267     7530    1      CTX$->K$TCTX.TMR_RETRAN.CLOCK_ID.TCTX = CTX$->K$TCTX.SRC_REF;

   7530   1 0001B8  DC86                                 LDB,B5   ,B6
          1 0001B9  E845 0002                            LDR,R6   2,B5
          1 0001BB  E7C5 0052                            STH,R6   82,B5
PL6.E3A0      #001=KNA$CONTEXT File=KNA$SUBS.:E05TSI                             WED 07/30/97 00:58 Page:41

      268     7531    1      CTX$->K$TCTX.TMR_WINDOW.CLOCK_ID.TCTX = CTX$->K$TCTX.SRC_REF;

   7531   1 0001BD  DC86                                 LDB,B5   ,B6
          1 0001BE  E845 0002                            LDR,R6   2,B5
          1 0001C0  E7C5 005C                            STH,R6   92,B5

      269     7532    1      CTX$->K$TCTX.TMR_INACTIVITY.CLOCK_ID.TCTX = CTX$->K$TCTX.SRC_REF;

   7532   1 0001C2  DC86                                 LDB,B5   ,B6
          1 0001C3  E845 0002                            LDR,R6   2,B5
          1 0001C5  E7C5 0066                            STH,R6   102,B5

      270     7533    1      CTX$->K$TCTX.TMR_REFERENCE.CLOCK_ID.TCTX = CTX$->K$TCTX.SRC_REF;

   7533   1 0001C7  DC86                                 LDB,B5   ,B6
          1 0001C8  E845 0002                            LDR,R6   2,B5
          1 0001CA  E7C5 0070                            STH,R6   112,B5

      271     7534
      272     7535    1      CTX$->K$TCTX.TMR_RETRAN.CLOCK_ID.TMR = %K_TTIMER_RETRAN;

   7535   1 0001CC  DC86                                 LDB,B5   ,B6
          1 0001CD  8845 0052                            LBF,'00FF'X       82,B5
          1 0001CF       00FF

      273     7536    1      CTX$->K$TCTX.TMR_WINDOW.CLOCK_ID.TMR = %K_TTIMER_WINDOW;

   7536   1 0001D0  DC86                                 LDB,B5   ,B6
          1 0001D1  6C01                                 LDV,R6   1
          1 0001D2  EAC5 005C                            SRM,R6,'00FF'X    92,B5
          1 0001D4       00FF

      274     7537    1      CTX$->K$TCTX.TMR_INACTIVITY.CLOCK_ID.TMR = %K_TTIMER_INACTIVITY;

   7537   1 0001D5  DC86                                 LDB,B5   ,B6
          1 0001D6  6C02                                 LDV,R6   2
PL6.E3A0      #001=KNA$CONTEXT File=KNA$SUBS.:E05TSI                             WED 07/30/97 00:58 Page:42
          1 0001D7  EAC5 0066                            SRM,R6,'00FF'X    102,B5
          1 0001D9       00FF

      275     7538    1      CTX$->K$TCTX.TMR_REFERENCE.CLOCK_ID.TMR = %K_TTIMER_REFERENCE;

   7538   1 0001DA  DC86                                 LDB,B5   ,B6
          1 0001DB  6C03                                 LDV,R6   3
          1 0001DC  EAC5 0070                            SRM,R6,'00FF'X    112,B5
          1 0001DE       00FF

      276     7539
      277     7540
      278     7541    1      CTX$->K$TCTX.TMR_RETRAN.PROC$ = ENTADDR(KNT$TTIMER);

   7541   1 0001DF  DC86                                 LDB,B5   ,B6
          1 0001E0  CB80 0000 0000  xent                 LAB,B4   KNT$TTIMER
          1 0001E3  CFC5 0050                            STB,B4   80,B5

      279     7542    1      CTX$->K$TCTX.TMR_WINDOW.PROC$ = ENTADDR(KNT$TTIMER);

   7542   1 0001E5  DC86                                 LDB,B5   ,B6
          1 0001E6  CB80 0000 0000  xent                 LAB,B4   KNT$TTIMER
          1 0001E9  CFC5 005A                            STB,B4   90,B5

      280     7543    1      CTX$->K$TCTX.TMR_INACTIVITY.PROC$ = ENTADDR(KNT$TTIMER);

   7543   1 0001EB  DC86                                 LDB,B5   ,B6
          1 0001EC  CB80 0000 0000  xent                 LAB,B4   KNT$TTIMER
          1 0001EF  CFC5 0064                            STB,B4   100,B5

      281     7544    1      CTX$->K$TCTX.TMR_REFERENCE.PROC$ = ENTADDR(KNT$TTIMER);

   7544   1 0001F1  DC86                                 LDB,B5   ,B6
          1 0001F2  CB80 0000 0000  xent                 LAB,B4   KNT$TTIMER
          1 0001F5  CFC5 006E                            STB,B4   110,B5

      282     7545
PL6.E3A0      #001=KNA$CONTEXT File=KNA$SUBS.:E05TSI                             WED 07/30/97 00:58 Page:43
      283     7546    1      K$TCTX$(TCTX_ID) = CTX$;

   7546   1 0001F7  DC86                                 LDB,B5   ,B6
          1 0001F8  CC80 0000 0000  xsym                 LDB,B4   KN_TCTX$$
          1 0001FB  B847 0008                            LDR,R3   LDCTX,AUTO
          1 0001FD  DFB4                                 STB,B5   ,B4,R3

      284     7547
      285     7548    1      RETURN;

   7548   1 0001FE  C380 0000 0000  xent                 LNJ,B4   X6A_ARET

      286     7549
      287     7550
      288     7551    1   KNA$RELTCTX: ENTRY(CTX$) ALTRET;

   7551   1 000201  D380 0000 0000  xent KNA$RELTCTX     LNJ,B5   X6A_AUTO_1
          1 000204       0016 0001                       DC       22,1

      289     7552    1      IF CTX$ = ADDR(NIL) THEN CALL CTX_SCREECH;

   7552   1 000206  ECC7 0004                            LDB,B6   @CTX$,AUTO
          1 000208  8D86                                 CMN      ,B6
          1 000209  0981 0006                            BNE      s:7554,PREL

   7552   1 00020B  E3C0 01B9                            LNJ,B6   s:0,PREL
          1 00020D       0001                            DC       s:7552+8,PREL
          1 00020E  0F81 000E                            B        s:7555,PREL

      290     7553
      291     7554    1      ELSE CALL GHS$CANCEL_TMR (CTX$->K$TCTX.TMR_RETRAN);

   7554   1 000210  DC86                                 LDB,B5   ,B6
          1 000211  CBC5 0050                            LAB,B4   80,B5
          1 000213  CFC7 0014                            STB,B4   LNK$+7,AUTO
          1 000215  BBC7 0014                            LAB,B3   LNK$+7,AUTO
          1 000217  CBF0 0100                            LAB,B4   256,IMO
PL6.E3A0      #001=KNA$CONTEXT File=KNA$SUBS.:E05TSI                             WED 07/30/97 00:58 Page:44
          1 000219  E380 0000 0000  xent                 LNJ,B6   GHS$CANCEL_TMR
          1 00021C       0001                            DC       s:7555,PREL

      292     7555    1      CALL GHS$CANCEL_TMR (CTX$->K$TCTX.TMR_WINDOW);

   7555   1 00021D  ECC7 0004                            LDB,B6   @CTX$,AUTO
          1 00021F  DC86                                 LDB,B5   ,B6
          1 000220  CBC5 005A                            LAB,B4   90,B5
          1 000222  CFC7 0014                            STB,B4   LNK$+7,AUTO
          1 000224  BBC7 0014                            LAB,B3   LNK$+7,AUTO
          1 000226  CBF0 0100                            LAB,B4   256,IMO
          1 000228  E380 0000 0000  xent                 LNJ,B6   GHS$CANCEL_TMR
          1 00022B       0001                            DC       s:7556,PREL

      293     7556    1      CALL GHS$CANCEL_TMR (CTX$->K$TCTX.TMR_INACTIVITY);

   7556   1 00022C  ECC7 0004                            LDB,B6   @CTX$,AUTO
          1 00022E  DC86                                 LDB,B5   ,B6
          1 00022F  CBC5 0064                            LAB,B4   100,B5
          1 000231  CFC7 0014                            STB,B4   LNK$+7,AUTO
          1 000233  BBC7 0014                            LAB,B3   LNK$+7,AUTO
          1 000235  CBF0 0100                            LAB,B4   256,IMO
          1 000237  E380 0000 0000  xent                 LNJ,B6   GHS$CANCEL_TMR
          1 00023A       0001                            DC       s:7557,PREL

      294     7557    1      CALL GHS$CANCEL_TMR (CTX$->K$TCTX.TMR_REFERENCE);

   7557   1 00023B  ECC7 0004                            LDB,B6   @CTX$,AUTO
          1 00023D  DC86                                 LDB,B5   ,B6
          1 00023E  CBC5 006E                            LAB,B4   110,B5
          1 000240  CFC7 0014                            STB,B4   LNK$+7,AUTO
          1 000242  BBC7 0014                            LAB,B3   LNK$+7,AUTO
          1 000244  CBF0 0100                            LAB,B4   256,IMO
          1 000246  E380 0000 0000  xent                 LNJ,B6   GHS$CANCEL_TMR
          1 000249       0001                            DC       s:7559,PREL

      295     7558
PL6.E3A0      #001=KNA$CONTEXT File=KNA$SUBS.:E05TSI                             WED 07/30/97 00:58 Page:45
      296     7559    1      CALL KNT$RLS_CHAIN(CTX$->K$TCTX);

   7559   1 00024A  ECC7 0004                            LDB,B6   @CTX$,AUTO
          1 00024C  DC86                                 LDB,B5   ,B6
          1 00024D  DFC7 0014                            STB,B5   LNK$+7,AUTO
          1 00024F  BBC7 0014                            LAB,B3   LNK$+7,AUTO
          1 000251  CBF0 0100                            LAB,B4   256,IMO
          1 000253  E380 0000 0000  xent                 LNJ,B6   KNT$RLS_CHAIN
          1 000256       0001                            DC       s:7561,PREL

      297     7560
      298     7561    1      CTX$->K$TCTX.STATE = %K_TSTATE_CLOSED;

   7561   1 000257  ECC7 0004                            LDB,B6   @CTX$,AUTO
          1 000259  DC86                                 LDB,B5   ,B6
          1 00025A  6C02                                 LDV,R6   2
          1 00025B  E785                                 STH,R6   ,B5

      299     7562
      300     7563    1      DATA$ = ADDR(KN_TCTX_START$);

   7563   1 00025C  DB80 0000 0000  xsym                 LAB,B5   KN_TCTX_START$
          1 00025F  DFC7 0006                            STB,B5   DATA$,AUTO

      301     7564    1      CALL RLS_CTX;

   7564   1 000261  E3C0 00DF                            LNJ,B6   s:0,PREL
          1 000263       0001                            DC       s:7565,PREL

      302     7565    1      RETURN;

   7565   1 000264  C380 0000 0000  xent                 LNJ,B4   X6A_ARET

      303     7566
      304     7567        %EJECT;
PL6.E3A0      #001=KNA$CONTEXT File=KNA$SUBS.:E05TSI                             WED 07/30/97 00:58 Page:46
      305     7568        /*D* NAME: KNA$CHECK
      306     7569
      307     7570             PURPOSE: To check for resources that may be still allocated
      308     7571                      to the user at delete user time.
      309     7572        */
      310     7573
      311     7574    1   KNA$CHECK: ENTRY ALTRET;

   7574   1 000267  D380 0000 0000  xent KNA$CHECK       LNJ,B5   X6A_AUTO_1
          1 00026A       0016 0001                       DC       22,1

      312     7575
      313     7576    1      DATA$ = KN_SSN_START$;

   7576   1 00026C  EC80 0000 0000  xsym                 LDB,B6   KN_SSN_START$
          1 00026F  EFC7 0006                            STB,B6   DATA$,AUTO

      314     7577    2      DO WHILE DATA$ <= KN_SSN_END$;

   7577   1 000271  ED80 0000 0000  xsym                 CMB,B6   KN_SSN_END$
          1 000274  0301 0021                            BG       s:7584,PREL

      315     7578    2           IF DATA$->KNA$SSN.STATE ~= 0 AND DATA$->KNA$SSN.USER# = G$JIT.USR#

   7578   1 000276  ECC7 0006                            LDB,B6   DATA$,AUTO
          1 000278  E846 0013                            LDR,R6   19,B6
          1 00027A  6901 0011                            BEZ,R6   s:7581,PREL
          1 00027C  DC80 0000 0000  xsym                 LDB,B5   G$JIT$
          1 00027F  D845 0004                            LDR,R5   4,B5
          1 000281  D570 00FF                            AND,R5   255,IMO
          1 000283  D946 0011                            CMR,R5   17,B6
          1 000285  0981 0006                            BNE      s:7581,PREL

      316     7579    2           THEN CALL DELU_SCREECH;

   7579   1 000287  E3C0 014C                            LNJ,B6   s:0,PREL
          1 000289       0001                            DC       s:7579+3,PREL
PL6.E3A0      #001=KNA$CONTEXT File=KNA$SUBS.:E05TSI                             WED 07/30/97 00:58 Page:47
          1 00028A  0F81 0005                            B        s:7582,PREL

      317     7580
      318     7581    2           ELSE DATA$ = PINCRW(DATA$,SIZEW(KNA$SSN));

   7581   1 00028C  DBC6 0019                            LAB,B5   25,B6
          1 00028E  DFC7 0006                            STB,B5   DATA$,AUTO

      319     7582    2           END;

   7582   1 000290  ECC7 0006                            LDB,B6   DATA$,AUTO
          1 000292  ED80 0000 0000  xsym                 CMB,B6   KN_SSN_END$
          1 000295  03E1                                 BLE      s:7578,SPREL

      320     7583
      321     7584    1      DATA$ = KN_IOP_START$;

   7584   1 000296  DC80 0000 0000  xsym                 LDB,B5   KN_IOP_START$
          1 000299  DFC7 0006                            STB,B5   DATA$,AUTO

      322     7585    2      DO WHILE DATA$ <= KN_IOP_END$;

   7585   1 00029B  DD80 0000 0000  xsym                 CMB,B5   KN_IOP_END$
          1 00029E  0301 0027                            BG       s:7594,PREL

      323     7586    2           IF DATA$->KN$IOP.LNK$ < G$BOBCAT$

   7586   1 0002A0  ECC7 0006                            LDB,B6   DATA$,AUTO
          1 0002A2  DCC6 000E                            LDB,B5   14,B6
          1 0002A4  DD80 0000 0000  xsym                 CMB,B5   G$BOBCAT$
          1 0002A7  0281 0014                            BGE      s:7591,PREL

      324     7587    3           THEN DO;

      325     7588    3                IF DATA$->KN$IOP.L.USER# = G$JIT.USR#

   7588   1 0002A9  E846 000F                            LDR,R6   15,B6
PL6.E3A0      #001=KNA$CONTEXT File=KNA$SUBS.:E05TSI                             WED 07/30/97 00:58 Page:48
          1 0002AB  E570 00FF                            AND,R6   255,IMO
          1 0002AD  CC80 0000 0000  xsym                 LDB,B4   G$JIT$
          1 0002B0  D844 0004                            LDR,R5   4,B4
          1 0002B2  D570 00FF                            AND,R5   255,IMO
          1 0002B4  E955                                 CMR,R6   R5
          1 0002B5  0981 000A                            BNE      s:7592,PREL

      326     7589    3                THEN CALL DELU_SCREECH;

   7589   1 0002B7  E3C0 011C                            LNJ,B6   s:0,PREL
          1 0002B9       0001                            DC       s:7590,PREL

      327     7590    3                END;

   7590   1 0002BA  0F81 0005                            B        s:7592,PREL

      328     7591    2           ELSE DATA$ = PINCRW(DATA$,SIZEW(KN$IOP));

   7591   1 0002BC  CBC6 001B                            LAB,B4   27,B6
          1 0002BE  CFC7 0006                            STB,B4   DATA$,AUTO

      329     7592    2           END;

   7592   1 0002C0  ECC7 0006                            LDB,B6   DATA$,AUTO
          1 0002C2  ED80 0000 0000  xsym                 CMB,B6   KN_IOP_END$
          1 0002C5  03DB                                 BLE      s:7586,SPREL

      330     7593
      331     7594    1      DATA$ = KN_LDCT_START$;

   7594   1 0002C6  EC80 0000 0000  xsym                 LDB,B6   KN_LDCT_START$
          1 0002C9  EFC7 0006                            STB,B6   DATA$,AUTO

      332     7595    2      DO WHILE DATA$ <= KN_LDCT_END$;

   7595   1 0002CB  ED80 0000 0000  xsym                 CMB,B6   KN_LDCT_END$
          1 0002CE  0301 001D                            BG       s:7601,PREL
PL6.E3A0      #001=KNA$CONTEXT File=KNA$SUBS.:E05TSI                             WED 07/30/97 00:58 Page:49

      333     7596    2           IF DATA$->KN$LDCT.USER# = G$JIT.USR#

   7596   1 0002D0  ECC7 0006                            LDB,B6   DATA$,AUTO
          1 0002D2  DC80 0000 0000  xsym                 LDB,B5   G$JIT$
          1 0002D5  E845 0004                            LDR,R6   4,B5
          1 0002D7  E570 00FF                            AND,R6   255,IMO
          1 0002D9  E946 000E                            CMR,R6   14,B6
          1 0002DB  0981 0006                            BNE      s:7599,PREL

      334     7597    2           THEN CALL DELU_SCREECH;

   7597   1 0002DD  E3C0 00F6                            LNJ,B6   s:0,PREL
          1 0002DF       0001                            DC       s:7597+3,PREL
          1 0002E0  0F81 0005                            B        s:7600,PREL

      335     7598
      336     7599    2           ELSE DATA$ = PINCRW(DATA$,SIZEW(KN$LDCT));

   7599   1 0002E2  CBC6 0010                            LAB,B4   16,B6
          1 0002E4  CFC7 0006                            STB,B4   DATA$,AUTO

      337     7600    2           END;

   7600   1 0002E6  ECC7 0006                            LDB,B6   DATA$,AUTO
          1 0002E8  ED80 0000 0000  xsym                 CMB,B6   KN_LDCT_END$
          1 0002EB  03E5                                 BLE      s:7596,SPREL

      338     7601    1      RETURN;

   7601   1 0002EC  C380 0000 0000  xent                 LNJ,B4   X6A_ARET

      339     7602
      340     7603        %EJECT;
PL6.E3A0      #001=KNA$CONTEXT File=KNA$SUBS.:E05TSI                             WED 07/30/97 00:58 Page:50
      341     7604
      342     7605    1   GET_CTX: PROC ALTRET;

   7605   1 0002EF  EFC7 0010            GET_CTX         STB,B6   LNK$+3,AUTO

      343     7606           %LOCK (G=KN_CTX_GATE);

   7611   1 0002F1  BB80 0000 0004  02                   LAB,B3   +4
          1 0002F4  CBF0 0100                            LAB,B4   256,IMO
          1 0002F6  E380 0000 0000  xent                 LNJ,B6   GHH$LOCK
          1 0002F9       0001                            DC       s:7614,PREL

      344     7613
      345     7614    2      CTX$ = KN$DATA.HEAD$;

   7614   1 0002FA  ECC7 0006                            LDB,B6   DATA$,AUTO
          1 0002FC  DCC6 0004                            LDB,B5   4,B6
          1 0002FE  CCC7 0004                            LDB,B4   @CTX$,AUTO
          1 000300  DF84                                 STB,B5   ,B4

      346     7615
      347     7616    2      IF CTX$ = ADDR(NIL)

   7616   1 000301  8D84                                 CMN      ,B4
          1 000302  0981 0017                            BNE      s:7632,PREL

      348     7617    3      THEN DO;

      349     7618    3           IF KN$DATA.USE# ~= KN$DATA.MAX#

   7618   1 000304  E846 0007                            LDR,R6   7,B6
          1 000306  E946 0006                            CMR,R6   6,B6
          1 000308  0901 0004                            BE       s:7626,PREL

      350     7619    3           THEN CALL CTX_SCREECH;

   7619   1 00030A  E3C0 00BA                            LNJ,B6   s:0,PREL
PL6.E3A0      #001=KNA$CONTEXT File=KNA$SUBS.:E05TSI                             WED 07/30/97 00:58 Page:51
          1 00030C       0001                            DC       s:7626,PREL

      351     7620
      352     7621                %UNLOCK (G=KN_CTX_GATE);

   7626   1 00030D  BB80 0000 0004  02                   LAB,B3   +4
          1 000310  CBF0 0100                            LAB,B4   256,IMO
          1 000312  E380 0000 0000  xent                 LNJ,B6   GHH$UNLOCK
          1 000315       0001                            DC       s:7628,PREL

      353     7628    3           ALTRETURN;

   7628   1 000316  ECC7 0010                            LDB,B6   LNK$+3,AUTO
          1 000318  B806                                 LDR,R3   ,B6
          1 000319  C3B6                                 LNJ,B4   ,B6,R3

      354     7629    3           END;
      355     7630
      356     7631    3      ELSE DO;

      357     7632    3           KN$DATA.USE# = KN$DATA.USE# +1;

   7632   1 00031A  8AC6 0007                            INC      7,B6

      358     7633    3           IF KN$DATA.USE# > KN$DATA.PEAK#

   7633   1 00031C  E846 0007                            LDR,R6   7,B6
          1 00031E  E946 0008                            CMR,R6   8,B6
          1 000320  0381 0003                            BLE      s:7636,PREL

      359     7634    3           THEN KN$DATA.PEAK# = KN$DATA.USE#;

   7634   1 000322  EF46 0008                            STR,R6   8,B6

      360     7635
      361     7636    3           LNK$ = PINCRW(CTX$,KN$DATA.LNK#);

PL6.E3A0      #001=KNA$CONTEXT File=KNA$SUBS.:E05TSI                             WED 07/30/97 00:58 Page:52
   7636   1 000324  B846 000A                            LDR,R3   10,B6
          1 000326  DC84                                 LDB,B5   ,B4
          1 000327  DFC7 0014                            STB,B5   LNK$+7,AUTO
          1 000329  F853                                 LDR,R7   R3
          1 00032A  6C00                                 LDV,R6   0
          1 00032B  8447 0014                            AID      LNK$+7,AUTO
          1 00032D  8D47 000D                            SDI      LNK$,AUTO

      362     7637    3           KN$DATA.HEAD$ = LNK$->B$PTR;

   7637   1 00032F  BCC7 000D                            LDB,B3   LNK$,AUTO
          1 000331  AC83                                 LDB,B2   ,B3
          1 000332  AFC6 0004                            STB,B2   4,B6

      363     7638                %UNLOCK (G=KN_CTX_GATE);

   7643   1 000334  BB80 0000 0004  02                   LAB,B3   +4
          1 000337  CBF0 0100                            LAB,B4   256,IMO
          1 000339  E380 0000 0000  xent                 LNJ,B6   GHH$UNLOCK
          1 00033C       0001                            DC       s:7645,PREL

      364     7645    3           RETURN;

   7645   1 00033D  ECC7 0010                            LDB,B6   LNK$+3,AUTO
          1 00033F  C3C6 0001                            LNJ,B4   1,B6

      365     7646    3           END;
      366     7647    2   END GET_CTX;
      367     7648        %EJECT;
PL6.E3A0      #001=KNA$CONTEXT File=KNA$SUBS.:E05TSI                             WED 07/30/97 00:58 Page:53
      368     7649
      369     7650    1   RLS_CTX: PROC;

   7650   1 000341  EFC7 0010            RLS_CTX         STB,B6   LNK$+3,AUTO

      370     7651           %LOCK (G=KN_CTX_GATE);

   7656   1 000343  BB80 0000 0004  02                   LAB,B3   +4
          1 000346  CBF0 0100                            LAB,B4   256,IMO
          1 000348  E380 0000 0000  xent                 LNJ,B6   GHH$LOCK
          1 00034B       0001                            DC       s:7656+9,PREL
          1 00034C  0F81 0003                            B        s:7660,PREL

      371     7658
      372     7659    2   RLS_CTX2: ENTRY;

   7659   1 00034E  EFC7 0010            RLS_CTX2        STB,B6   LNK$+3,AUTO

      373     7660    2      IF KN$DATA.CHECK ~= 0

   7660   1 000350  ECC7 0006                            LDB,B6   DATA$,AUTO
          1 000352  E846 0009                            LDR,R6   9,B6
          1 000354  6901 0046                            BEZ,R6   s:7682,PREL

      374     7661    3      THEN DO;

      375     7662    3           CTX_COUNT = 0;

   7662   1 000356  8747 000A                            CL       CTX_COUNT,AUTO

      376     7663    3           CTX$$ = KN$DATA.HEAD$;

   7663   1 000358  DCC6 0004                            LDB,B5   4,B6
          1 00035A  DFC7 000B                            STB,B5   CTX$$,AUTO

      377     7664
      378     7665    4           DO WHILE CTX$$ ~= ADDR(NIL);
PL6.E3A0      #001=KNA$CONTEXT File=KNA$SUBS.:E05TSI                             WED 07/30/97 00:58 Page:54

   7665   1 00035C  0F81 002E                            B        s:7676,PREL

      379     7666    4                CTX_COUNT = CTX_COUNT + 1;

   7666   1 00035E  8AC7 000A                            INC      CTX_COUNT,AUTO

      380     7667
      381     7668    4                LNK$ = PINCRW(CTX$$,KN$DATA.LNK#);

   7668   1 000360  ECC7 0006                            LDB,B6   DATA$,AUTO
          1 000362  B846 000A                            LDR,R3   10,B6
          1 000364  F853                                 LDR,R7   R3
          1 000365  6C00                                 LDV,R6   0
          1 000366  8447 000B                            AID      CTX$$,AUTO
          1 000368  8D47 000D                            SDI      LNK$,AUTO

      382     7669    4                IF (CTX$$ = CTX$) OR (LNK$->B$PTR = CTX$$)

   7669   1 00036A  DCC7 000B                            LDB,B5   CTX$$,AUTO
          1 00036C  CCC7 0004                            LDB,B4   @CTX$,AUTO
          1 00036E  DD84                                 CMB,B5   ,B4
          1 00036F  0901 0008                            BE       s:7670,PREL
          1 000371  BCC7 000D                            LDB,B3   LNK$,AUTO
          1 000373  AC83                                 LDB,B2   ,B3
          1 000374  ADC7 000B                            CMB,B2   CTX$$,AUTO
          1 000376  0981 0006                            BNE      s:7672,PREL

      383     7670    4                THEN CALL CTX_SCREECH;

   7670   1 000378  E3C0 004C                            LNJ,B6   s:0,PREL
          1 00037A       0001                            DC       s:7670+3,PREL
          1 00037B  0F81 000F                            B        s:7676,PREL

      384     7671
      385     7672    4                ELSE IF (CTX$$ > KN$DATA.END$) OR (CTX$$ < KN$DATA.START$)

PL6.E3A0      #001=KNA$CONTEXT File=KNA$SUBS.:E05TSI                             WED 07/30/97 00:58 Page:55
   7672   1 00037D  DDC6 0002                            CMB,B5   2,B6
          1 00037F  0301 0004                            BG       s:7673,PREL
          1 000381  DD86                                 CMB,B5   ,B6
          1 000382  0281 0006                            BGE      s:7675,PREL

      386     7673    4                     THEN CALL CTX_SCREECH;

   7673   1 000384  E3C0 0040                            LNJ,B6   s:0,PREL
          1 000386       0001                            DC       s:7673+3,PREL
          1 000387  0F81 0003                            B        s:7676,PREL

      387     7674
      388     7675    4                     ELSE CTX$$ = LNK$->B$PTR;

   7675   1 000389  AFC7 000B                            STB,B2   CTX$$,AUTO

      389     7676    4                END;

   7676   1 00038B  8DC7 000B                            CMN      CTX$$,AUTO
          1 00038D  09D1                                 BNE      s:7666,SPREL

      390     7677
      391     7678    3           IF CTX_COUNT + KN$DATA.USE# ~= KN$DATA.MAX#

   7678   1 00038E  ECC7 0006                            LDB,B6   DATA$,AUTO
          1 000390  E847 000A                            LDR,R6   CTX_COUNT,AUTO
          1 000392  EA46 0007                            ADD,R6   7,B6
          1 000394  E946 0006                            CMR,R6   6,B6
          1 000396  0901 0004                            BE       s:7682,PREL

      392     7679    3           THEN CALL CTX_SCREECH;

   7679   1 000398  E3C0 002C                            LNJ,B6   s:0,PREL
          1 00039A       0001                            DC       s:7682,PREL

      393     7680    3           END/*do if check*/;

PL6.E3A0      #001=KNA$CONTEXT File=KNA$SUBS.:E05TSI                             WED 07/30/97 00:58 Page:56
      394     7681
      395     7682    2      LNK$ = PINCRW(CTX$,KN$DATA.LNK#);

   7682   1 00039B  ECC7 0006                            LDB,B6   DATA$,AUTO
          1 00039D  B846 000A                            LDR,R3   10,B6
          1 00039F  DCC7 0004                            LDB,B5   @CTX$,AUTO
          1 0003A1  CC85                                 LDB,B4   ,B5
          1 0003A2  CFC7 0014                            STB,B4   LNK$+7,AUTO
          1 0003A4  F853                                 LDR,R7   R3
          1 0003A5  6C00                                 LDV,R6   0
          1 0003A6  8447 0014                            AID      LNK$+7,AUTO
          1 0003A8  8D47 000D                            SDI      LNK$,AUTO

      396     7683    2      LNK$->B$PTR = KN$DATA.HEAD$;

   7683   1 0003AA  BCC6 0004                            LDB,B3   4,B6
          1 0003AC  ACC7 000D                            LDB,B2   LNK$,AUTO
          1 0003AE  BF82                                 STB,B3   ,B2

      397     7684    2      KN$DATA.HEAD$ = CTX$;

   7684   1 0003AF  CC85                                 LDB,B4   ,B5
          1 0003B0  CFC6 0004                            STB,B4   4,B6

      398     7685    2      KN$DATA.USE# = KN$DATA.USE# -1;

   7685   1 0003B2  88C6 0007                            DEC      7,B6

      399     7686
      400     7687    2      CTX$ = ADDR(NIL);

   7687   1 0003B4  BB80 0000 0000                       LAB,B3   0
          1 0003B7  BF85                                 STB,B3   ,B5

      401     7688           %UNLOCK (G=KN_CTX_GATE);

   7693   1 0003B8  BB80 0000 0004  02                   LAB,B3   +4
PL6.E3A0      #001=KNA$CONTEXT File=KNA$SUBS.:E05TSI                             WED 07/30/97 00:58 Page:57
          1 0003BB  CBF0 0100                            LAB,B4   256,IMO
          1 0003BD  E380 0000 0000  xent                 LNJ,B6   GHH$UNLOCK
          1 0003C0       0001                            DC       s:7695,PREL

      402     7695    2      RETURN;

   7695   1 0003C1  ECC7 0010                            LDB,B6   LNK$+3,AUTO
          1 0003C3  C3C6 0001                            LNJ,B4   1,B6

      403     7696
      404     7697    2   END RLS_CTX;
      405     7698        %EJECT;
PL6.E3A0      #001=KNA$CONTEXT File=KNA$SUBS.:E05TSI                             WED 07/30/97 00:58 Page:58
      406     7699    1   CTX_SCREECH: PROC;

   7699   1 0003C5  EFC7 0012            CTX_SCREECH     STB,B6   LNK$+5,AUTO

      407     7700    2      CALL SCREECH(SC_BRKN_CHAIN);

   7700   1 0003C7  BB80 0000 000C  02                   LAB,B3   +12
          1 0003CA  CBF0 0100                            LAB,B4   256,IMO
          1 0003CC  E380 0000 0000  xent                 LNJ,B6   SCREECH
          1 0003CF       0001                            DC       s:7706,PREL

      408     7701
      409     7702        /*S* SCREECH_CODE: KNA-S$BRKN_CHAIN
      410     7703             TYPE: SCREECH
      411     7704             MESSAGE: Error in the chain of IOPs, LDCTs, SSN or TCTX Blocks.
      412     7705        */
      413     7706    2   END CTX_SCREECH;

   7706   1 0003D0  ECC7 0012                            LDB,B6   LNK$+5,AUTO
          1 0003D2  C3C6 0001                            LNJ,B4   1,B6

      414     7707
      415     7708        %EJECT;
PL6.E3A0      #001=KNA$CONTEXT File=KNA$SUBS.:E05TSI                             WED 07/30/97 00:58 Page:59
      416     7709    1   DELU_SCREECH: PROC;

   7709   1 0003D4  EFC7 0010            DELU_SCREECH    STB,B6   LNK$+3,AUTO

      417     7710    2      CALL SCREECH(SC_DELU);

   7710   1 0003D6  BB80 0000 000E  02                   LAB,B3   +14
          1 0003D9  CBF0 0100                            LAB,B4   256,IMO
          1 0003DB  E380 0000 0000  xent                 LNJ,B6   SCREECH
          1 0003DE       0001                            DC       s:7716,PREL

      418     7711
      419     7712        /*S* SCREECH_CODE: KNA-S$R2FEW
      420     7713             TYPE: SCREECH
      421     7714             MESSAGE: User has resources allocated at delete user.
      422     7715        */
      423     7716    2   END DELU_SCREECH;

   7716   1 0003DF  ECC7 0010                            LDB,B6   LNK$+3,AUTO
          1 0003E1  C3C6 0001                            LNJ,B4   1,B6
      424     7717    1   END KNA$CONTEXT;
      425     7718        %EOD;

PL6.E3A0      #001=KNA$CONTEXT File=KNA$SUBS.:E05TSI                             WED 07/30/97 00:58 Page:60
--  Include file information  --

   G_JIT_M.:E05TOU  is referenced.
   FR_SCODE_C.:E05TOU  is referenced.
   K_SCODE_C.:E05TOU  is referenced.
   GH_GATE_M.:E05TOU  cannot be made into a system file and is referenced.
   GU_LCP6_M.:E05TOU  is referenced.
   GH_LCP6_M.:E05TOU  is referenced.
   KNA_MACRO_M.:E05TOU  is referenced.
   KN_DATA_M.:E05TOU  is referenced.
   K_TRANSPORT_E.:E05TOU  is referenced.
   K_ADDRESS_M.:E05TOU  is referenced.
   GH_SCHD_M.:E05TOU  is referenced.
      No diagnostics issued in procedure KNA$CONTEXT.
PL6.E3A0      #001=KNA$CONTEXT File=KNA$SUBS.:E05TSI                             WED 07/30/97 00:58 Page:61

 **** Variables and constants ****

  ****  Section 000 RoData KNA$CONTEXT

  ****  Scalars and arrays  ****
HexLoc.c.b A Datatyp(siz) R M Lvl/name                 HexLoc.c.b A Datatyp(siz) R M Lvl/name

     0-0-0/w STRC(48)    r     1 SC_BRKN_CHAIN              F-0-0/w STRC(48)    r     1 SC_DELU
     3-0-0/w STRC(48)    r     1 SC_IOP                     6-0-0/w STRC(48)    r     1 SC_LDCT
     9-0-0/w STRC(48)    r     1 SC_SSN                     C-0-0/w STRC(48)    r     1 SC_TCTX

  ****  Auto variables  ****

  ****  Scalars and arrays  ****
HexLoc.c.b A Datatyp(siz) R M Lvl/name                 HexLoc.c.b A Datatyp(siz) R M Lvl/name

     4-0-0/w PTR         r     1 @CTX$                     *0-0-0/w PTR         r     1 CTX$
     B-0-0/w PTR         r     1 CTX$$                      A-0-0/w UBIN(16)    r     1 CTX_COUNT
     6-0-0/w PTR         r     1 DATA$                      9-0-0/w UBIN(16)    r     1 GENERATION
     8-0-0/w UBIN(16)    r     1 LDCTX                      D-0-0/w PTR         r     1 LNK$
     8-0-0/w UBIN(16)    r     1 TCTX_ID

  ****  SYMREF variables  ****

  ****  Scalars and arrays  ****
HexLoc.c.b A Datatyp(siz) R M Lvl/name                 HexLoc.c.b A Datatyp(siz) R M Lvl/name

     0-0-0/w PTR         r     1 G$BOBCAT$                  0-0-0/w PTR         r     1 G$JIT$
     0-0-0/w UBIN(16)    r     1 KNT_INACTIVITY_TIMER       0-0-0/w UBIN(16)    r     1 KNT_REFERENCE_TIMER
     0-0-0/w UBIN(16)    r     1 KNT_RETRAN_TIMER           0-0-0/w UBIN(16)    r     1 KNT_WINDOW_EXTENDED
     0-0-0/w UBIN(16)    r     1 KNT_WINDOW_TIMER           0-0-0/w STRC(48)    r     1 KN_CTX_GATE
     0-0-0/w PTR         r     1 KN_DCT$$                   0-0-0/w PTR         r     1 KN_IOP_END$
     0-0-0/w PTR         r     1 KN_IOP_START$              0-0-0/w PTR         r     1 KN_LDCT_END$
     0-0-0/w PTR         r     1 KN_LDCT_START$             0-0-0/w PTR         r     1 KN_SSN_END$
     0-0-0/w PTR         r     1 KN_SSN_START$              0-0-0/w PTR         r     1 KN_TCTX$$
     0-0-0/w PTR         r     1 KN_TCTX_START$

PL6.E3A0      #001=KNA$CONTEXT File=KNA$SUBS.:E05TSI                             WED 07/30/97 00:58 Page:62
  ****  BASED and DCB variables  ****

  ****  Scalars and arrays  ****
HexLoc.c.b A Datatyp(siz) R M Lvl/name                 HexLoc.c.b A Datatyp(siz) R M Lvl/name

     0-0-0/w PTR         r     1 B$PTR                      0-0-0/w STRC(5616)  r     1 G$JIT
     0-0-0/w STRC(2816)  r     1 K$TCTX
     0-0-0/w PTR         r     1 K$TCTX$(0:0)
     0-0-0/w STRC(208)   r     1 KN$DATA
     0-0-0/w PTR         r     1 KN$DCT$(0:0)
     0-0-0/w STRC(432)   r     1 KN$IOP                     0-0-0/w STRC(256)   r     1 KN$LDCT
     0-0-0/w STRC(400)   r     1 KNA$SSN


   Procedure KNA$CONTEXT requires 995 words for executable code.
   Procedure KNA$CONTEXT requires 22 words of local(AUTO) storage.
PL6.E3A0      #001=KNA$CONTEXT File=KNA$SUBS.:E05TSI                             WED 07/30/97 00:58 Page:63
          *** CROSS REFERENCE LISTING ***
**     DENOTES     IDENTIFIER DEFINITION
<<                 IDENTIFIER'S VALUE SET
>>                 IDENTIFIER'S VALUE USED
<>                 IDENTIFIER SET AND/OR USED
--                 IDENTIFIER REFERENCED
PL6.E3A0      #001=KNA$CONTEXT File=KNA$SUBS.:E05TSI                             WED 07/30/97 00:58 Page:64
          MINI XREF LISTING

B$PTR
      7381**DCL      7637>>ASSIGN   7669>>IF       7675>>ASSIGN   7683<<ASSIGN
CTX$
      5069**DCL        61--PROC     7389--ENTRY    7401>>ASSIGN   7402>>ASSIGN   7403>>ASSIGN   7406--ENTRY
      7407>>IF       7409>>IF       7412>>ASSIGN   7418--ENTRY    7431>>ASSIGN   7432>>ASSIGN   7433>>ASSIGN
      7434>>ASSIGN   7435>>ASSIGN   7436>>ASSIGN   7438>>ASSIGN   7443--ENTRY    7444>>IF       7447>>ASSIGN
      7448>>ASSIGN   7458>>IF       7460>>ASSIGN   7461>>ASSIGN   7477--ENTRY    7489>>ASSIGN   7493--ENTRY
      7494>>IF       7495>>ASSIGN   7502--ENTRY    7513>>ASSIGN   7514>>ASSIGN   7515>>ASSIGN   7516>>ASSIGN
      7517>>ASSIGN   7518>>ASSIGN   7518>>ASSIGN   7519>>ASSIGN   7520>>ASSIGN   7521>>ASSIGN   7522>>ASSIGN
      7523>>ASSIGN   7525>>ASSIGN   7526>>ASSIGN   7527>>ASSIGN   7528>>ASSIGN   7530>>ASSIGN   7530>>ASSIGN
      7531>>ASSIGN   7531>>ASSIGN   7532>>ASSIGN   7532>>ASSIGN   7533>>ASSIGN   7533>>ASSIGN   7535>>ASSIGN
      7536>>ASSIGN   7537>>ASSIGN   7538>>ASSIGN   7541>>ASSIGN   7542>>ASSIGN   7543>>ASSIGN   7544>>ASSIGN
      7546>>ASSIGN   7551--ENTRY    7552>>IF       7554>>CALL     7555>>CALL     7556>>CALL     7557>>CALL
      7559>>CALL     7561>>ASSIGN   7614<<ASSIGN   7616>>IF       7636>>ASSIGN   7669>>IF       7682>>ASSIGN
      7684>>ASSIGN   7687<<ASSIGN
CTX$$
      5078**DCL      7663<<ASSIGN   7665>>DOWHILE  7668>>ASSIGN   7669>>IF       7669>>IF       7672>>IF
      7672>>IF       7675<<ASSIGN
CTX_COUNT
      5077**DCL      7662<<ASSIGN   7666<<ASSIGN   7666>>ASSIGN   7678>>IF
CTX_SCREECH
      7699**PROC     7407--CALL     7410--CALL     7444--CALL     7494--CALL     7552--CALL     7619--CALL
      7670--CALL     7673--CALL     7679--CALL
DATA$
      5072**DCL      5499--IMP-PTR  7390<<ASSIGN   7414<<ASSIGN   7419<<ASSIGN   7472<<ASSIGN   7478<<ASSIGN
      7497<<ASSIGN   7503<<ASSIGN   7563<<ASSIGN   7576<<ASSIGN   7577>>DOWHILE  7578>>IF       7578>>IF
      7581<<ASSIGN   7581>>ASSIGN   7584<<ASSIGN   7585>>DOWHILE  7586>>IF       7588>>IF       7591<<ASSIGN
      7591>>ASSIGN   7594<<ASSIGN   7595>>DOWHILE  7596>>IF       7599<<ASSIGN   7599>>ASSIGN   7614>>ASSIGN
      7618>>IF       7618>>IF       7632>>ASSIGN   7632>>ASSIGN   7633>>IF       7633>>IF       7634>>ASSIGN
      7634>>ASSIGN   7636>>ASSIGN   7637>>ASSIGN   7660>>IF       7663>>ASSIGN   7668>>ASSIGN   7672>>IF
      7672>>IF       7678>>IF       7678>>IF       7682>>ASSIGN   7683>>ASSIGN   7684>>ASSIGN   7685>>ASSIGN
      7685>>ASSIGN
PL6.E3A0      #001=KNA$CONTEXT File=KNA$SUBS.:E05TSI                             WED 07/30/97 00:58 Page:65
DELU_SCREECH
      7709**PROC     7579--CALL     7589--CALL     7597--CALL
G$BOBCAT$
      5475**DCL      7586>>IF
G$JIT.ERRLOG
      7311**DCL      7314--REDEF
G$JIT.JSUNIT
      7050**DCL      7051--REDEF
G$JIT.MCLS
      7049**DCL      7049--REDEF
G$JIT.TMRZ
      7318**DCL      7319--REDEF
G$JIT.USER_EXTIME
      7042**DCL      7043--REDEF
G$JIT.USER_MEMTIME
      7045**DCL      7045--REDEF
G$JIT.USER_SVTIME
      7044**DCL      7044--REDEF
G$JIT.USR#
      7039**DCL      7403>>ASSIGN   7578>>IF       7588>>IF       7596>>IF
G$JIT$
      5476**DCL      6981--IMP-PTR  7403>>ASSIGN   7578>>IF       7588>>IF       7596>>IF
GENERATION
      5075**DCL      7432<<ASSIGN   7435>>ASSIGN
GET_CTX
      7605**PROC     7391--CALL     7420--CALL     7479--CALL     7504--CALL
GHH$LOCK
      4699**DCL-ENT  7456--CALL     7611--CALL     7656--CALL
GHH$UNLOCK
      4699**DCL-ENT  7467--CALL     7626--CALL     7643--CALL     7693--CALL
GHS$CANCEL_TMR
      7387**DCL-ENT  7554--CALL     7555--CALL     7556--CALL     7557--CALL
K$TCTX
      6063**DCL      7514<<ASSIGN   7559<>CALL
K$TCTX.DST_NSAP.ADDRESS_N
      6948**DCL      6949--REDEF
PL6.E3A0      #001=KNA$CONTEXT File=KNA$SUBS.:E05TSI                             WED 07/30/97 00:58 Page:66
K$TCTX.MAXSEQ
      6167**DCL      7522<<ASSIGN
K$TCTX.NODE
      6070**DCL      6083--REDEF
K$TCTX.RCV_WINDOW_SZ
      6135**DCL      7517<<ASSIGN   7518>>ASSIGN
K$TCTX.RECV_UWE
      6441**DCL      7518<<ASSIGN
K$TCTX.SEND_RETRY_COUNT
      6607**DCL      7519<<ASSIGN
K$TCTX.SRC_NSAP.ADDRESS_N
      6884**DCL      6885--REDEF
K$TCTX.SRC_REF
      6097**DCL      7513>>ASSIGN   7515<<ASSIGN   7530>>ASSIGN   7531>>ASSIGN   7532>>ASSIGN   7533>>ASSIGN
K$TCTX.SSN_CRDT
      6592**DCL      7523<<ASSIGN
K$TCTX.STATE
      6064**DCL      7516<<ASSIGN   7561<<ASSIGN
K$TCTX.TMR_INACTIVITY
      6702**DCL      7556<>CALL
K$TCTX.TMR_INACTIVITY.ARG
      6704**DCL      6705--REDEF
K$TCTX.TMR_INACTIVITY.CLOCK_ID.TCTX
      6705**DCL      7532<<ASSIGN
K$TCTX.TMR_INACTIVITY.CLOCK_ID.TMR
      6705**DCL      7537<<ASSIGN
K$TCTX.TMR_INACTIVITY.INTERVAL
      6705**DCL      7527<<ASSIGN
K$TCTX.TMR_INACTIVITY.PROC$
      6704**DCL      7543<<ASSIGN
K$TCTX.TMR_REFERENCE
      6732**DCL      7557<>CALL
K$TCTX.TMR_REFERENCE.ARG
      6734**DCL      6735--REDEF
K$TCTX.TMR_REFERENCE.CLOCK_ID.TCTX
      6735**DCL      7533<<ASSIGN
PL6.E3A0      #001=KNA$CONTEXT File=KNA$SUBS.:E05TSI                             WED 07/30/97 00:58 Page:67
K$TCTX.TMR_REFERENCE.CLOCK_ID.TMR
      6735**DCL      7538<<ASSIGN
K$TCTX.TMR_REFERENCE.INTERVAL
      6735**DCL      7528<<ASSIGN
K$TCTX.TMR_REFERENCE.PROC$
      6734**DCL      7544<<ASSIGN
K$TCTX.TMR_RETRAN
      6643**DCL      7554<>CALL
K$TCTX.TMR_RETRAN.ARG
      6645**DCL      6646--REDEF
K$TCTX.TMR_RETRAN.CLOCK_ID.TCTX
      6646**DCL      7530<<ASSIGN
K$TCTX.TMR_RETRAN.CLOCK_ID.TMR
      6646**DCL      7535<<ASSIGN
K$TCTX.TMR_RETRAN.INTERVAL
      6646**DCL      7525<<ASSIGN
K$TCTX.TMR_RETRAN.PROC$
      6645**DCL      7541<<ASSIGN
K$TCTX.TMR_WINDOW
      6672**DCL      7555<>CALL
K$TCTX.TMR_WINDOW.ARG
      6674**DCL      6675--REDEF
K$TCTX.TMR_WINDOW.CLOCK_ID.TCTX
      6675**DCL      7531<<ASSIGN
K$TCTX.TMR_WINDOW.CLOCK_ID.TMR
      6675**DCL      7536<<ASSIGN
K$TCTX.TMR_WINDOW.INTERVAL
      6675**DCL      7526<<ASSIGN
K$TCTX.TMR_WINDOW.PROC$
      6674**DCL      7542<<ASSIGN
K$TCTX.TPDUSZ
      6166**DCL      7520<<ASSIGN
K$TCTX.TPDUSZ_PARM
      6165**DCL      7521<<ASSIGN
K$TCTX$
      6966**DCL      7546<<ASSIGN
PL6.E3A0      #001=KNA$CONTEXT File=KNA$SUBS.:E05TSI                             WED 07/30/97 00:58 Page:68
KN$DATA.CHECK
      5540**DCL      7660>>IF
KN$DATA.END$
      5515**DCL      7672>>IF
KN$DATA.HEAD$
      5520**DCL      7614>>ASSIGN   7637<<ASSIGN   7663>>ASSIGN   7683>>ASSIGN   7684<<ASSIGN
KN$DATA.LNK#
      5546**DCL      7636>>ASSIGN   7668>>ASSIGN   7682>>ASSIGN
KN$DATA.MAX#
      5526**DCL      7618>>IF       7678>>IF
KN$DATA.PEAK#
      5535**DCL      7633>>IF       7634<<ASSIGN
KN$DATA.START$
      5510**DCL      7672>>IF
KN$DATA.USE#
      5531**DCL      7618>>IF       7632<<ASSIGN   7632>>ASSIGN   7633>>IF       7634>>ASSIGN   7678>>IF
      7685<<ASSIGN   7685>>ASSIGN
KN$DCT$
      6965**DCL      7438<<ASSIGN   7448<<ASSIGN
KN$IOP
      5641**DCL      7401<<ASSIGN   7591--ASSIGN
KN$IOP.ARS
      5697**DCL      5698--REDEF    5699--REDEF
KN$IOP.FLAGS.INUSE
      5707**DCL      7402<<ASSIGN   7409>>IF       7412<<ASSIGN
KN$IOP.L.USER#
      5731**DCL      7403<<ASSIGN   7588>>IF
KN$IOP.LNK$
      5727**DCL      5728--REDEF    7586>>IF
KN$LDCT
      5828**DCL      7433<<ASSIGN   7599--ASSIGN
KN$LDCT.CQPTR
      6051**DCL      7436<<ASSIGN
KN$LDCT.FLAGS.QUEUED
      6005**DCL      7458>>IF
KN$LDCT.FLAGS.REL
PL6.E3A0      #001=KNA$CONTEXT File=KNA$SUBS.:E05TSI                             WED 07/30/97 00:58 Page:69
      6013**DCL      7460<<ASSIGN
KN$LDCT.GENERATION
      5938**DCL      7432>>ASSIGN   7435<<ASSIGN
KN$LDCT.LDCTX
      5970**DCL      7431>>ASSIGN   7434<<ASSIGN   7448>>ASSIGN
KN$LDCT.RLCID.LDCTX
      5889**DCL      5896--REDEF    5904--REDEF
KN$LDCT.TRANSPORT_ID
      5923**DCL      5931--REDEF
KN$LDCT.UID
      5953**DCL      5954--REDEF    5963--REDEF
KN$LDCT.USER#
      6046**DCL      7447<<ASSIGN   7596>>IF
KN$LDCT.USER_ENTRY$
      6034**DCL      7461<<ASSIGN
KNA$SSN
      5570**DCL      7489<<ASSIGN   7581--ASSIGN
KNA$SSN.IOPRD$
      5632**DCL      5632--REDEF
KNA$SSN.RLCID.NODE#
      5636**DCL      5636--REDEF
KNA$SSN.STATE
      5637**DCL      7495<<ASSIGN   7578>>IF
KNA$SSN.USER#
      5637**DCL      7578>>IF
KNT$RLS_CHAIN
      7386**DCL-ENT  7559--CALL
KNT$TTIMER
      7385**DCL-ENT  7541--ASSIGN   7542--ASSIGN   7543--ASSIGN   7544--ASSIGN
KNT_INACTIVITY_TIMER
      5489**DCL      7527>>ASSIGN
KNT_REFERENCE_TIMER
      5490**DCL      7528>>ASSIGN
KNT_RETRAN_TIMER
      5487**DCL      7525>>ASSIGN
KNT_WINDOW_EXTENDED
PL6.E3A0      #001=KNA$CONTEXT File=KNA$SUBS.:E05TSI                             WED 07/30/97 00:58 Page:70
      5486**DCL      7517>>ASSIGN
KNT_WINDOW_TIMER
      5488**DCL      7526>>ASSIGN
KN_CTX_GATE
      5466**DCL      7456<>CALL     7467<>CALL     7611<>CALL     7626<>CALL     7643<>CALL     7656<>CALL
      7693<>CALL
KN_DCT$$
      5484**DCL      6965--IMP-PTR  7438>>ASSIGN   7448>>ASSIGN
KN_IOP_END$
      5481**DCL      7585>>DOWHILE
KN_IOP_START$
      5477**DCL      7390--ASSIGN   7414--ASSIGN   7584>>ASSIGN
KN_LDCT_END$
      5482**DCL      7595>>DOWHILE
KN_LDCT_START$
      5478**DCL      7419--ASSIGN   7472--ASSIGN   7594>>ASSIGN
KN_SSN_END$
      5483**DCL      7577>>DOWHILE
KN_SSN_START$
      5479**DCL      7478--ASSIGN   7497--ASSIGN   7576>>ASSIGN
KN_TCTX$$
      5485**DCL      6966--IMP-PTR  7546>>ASSIGN
KN_TCTX_START$
      5480**DCL      7503--ASSIGN   7563--ASSIGN
LDCTX
      5073**DCL      5074--REDEF    7431<<ASSIGN   7434>>ASSIGN   7438>>ASSIGN
LNK$
      5079**DCL      7636<<ASSIGN   7637>>ASSIGN   7668<<ASSIGN   7669>>IF       7675>>ASSIGN   7682<<ASSIGN
      7683>>ASSIGN
RLS_CTX
      7650**PROC     7415--CALL     7498--CALL     7564--CALL
RLS_CTX2 IN PROCEDURE RLS_CTX
      7659**ENTRY    7473--CALL
SCREECH
      7384**DCL-ENT  7393--CALL     7422--CALL     7481--CALL     7506--CALL     7700--CALL     7710--CALL
SC_BRKN_CHAIN
PL6.E3A0      #001=KNA$CONTEXT File=KNA$SUBS.:E05TSI                             WED 07/30/97 00:58 Page:71
      5110**DCL      7700<>CALL
SC_DELU
      5420**DCL      7710<>CALL
SC_IOP
      5172**DCL      7393<>CALL
SC_LDCT
      5234**DCL      7422<>CALL
SC_SSN
      5296**DCL      7481<>CALL
SC_TCTX
      5358**DCL      7506<>CALL
TCTX_ID
      5074**DCL      7513<<ASSIGN   7515>>ASSIGN   7546>>ASSIGN

PL6.E3A0      #002=KNA$LOCATE_TCTX File=KNA$SUBS.:E05TSI                         WED 07/30/97 00:59 Page:72
      426        1        /*T***********************************************************/
      427        2        /*T*                                                         */
      428        3        /*T* Copyright (c) Bull HN Information Systems Inc., 1997    */
      429        4        /*T*                                                         */
      430        5        /*T***********************************************************/
      431        6        %EJECT;
PL6.E3A0      #002=KNA$LOCATE_TCTX File=KNA$SUBS.:E05TSI                         WED 07/30/97 00:59 Page:73
      432        7        /*F*  NAME: KNA$LOCATE_TCTX
      433        8
      434        9              PURPOSE: To locate an allocated TCTX where the selected
      435       10                       NODE, CLASS, QOS, CHKSUM, EXTENDED, EXPEDITED and
      436       11                       CLASS_2_FLOW options match those specified in the
      437       12                       connect request.
      438       13
      439       14                       The alternate return is taken if a TCTX with
      440       15                       matching specifications cannot be found.
      441       16
      442       17              INPUT:   KN$NETPARM.FPT$ contains the address of FPT_CONNECT
      443       18                       KN$NETPARM.LDCT$ contains the address of the session
      444       19                       connection LDCT if this is call from local session.
      445       20
      446       21              OUTPUT:  KN$NETPARM.TCTX_ID will contain the index for the TCXT
      447       22                       KN$LDCT.TRANSPORT_ID will contain the index for the TCTX
      448       23                       if this is a call from local session.
      449       24        */
      450       25
      451       26        /*X* PLM=3,IND=5,ENU=0,ECU=0 */
      452       27        KNA$LOCATE_TCTX: PROC(KN$NETPARM) ALTRET;
      453       28
      454       29        %INCLUDE KN_DATA_M;
      455     1815        %INCLUDE KNH_MACRO_C;
      456     2098        %INCLUDE K_ADDRESS_M;
      457     2601        %INCLUDE KI_CP6;
      458     3697        %INCLUDE GH_SCHD_M;
      459     3841
      460     3842                                                /* Input parameters                   */
      461     3843        %KN$NETPARM;
      462     3996
      463     3997                                                /* AUTO Storage                       */
      464     3998    1   DCL TCTX# UBIN;
      465     3999    1   DCL TCTX$ PTR;
      466     4000
      467     4001                                                /* Based data                         */
      468     4002    1   DCL KN$TCTX$(0:0) PTR BASED(KN_TCTX$$);
PL6.E3A0      #002=KNA$LOCATE_TCTX File=KNA$SUBS.:E05TSI                         WED 07/30/97 00:59 Page:74
      469     4003        %KN$LDCT (STCLASS="BASED(KN$NETPARM.LDCT$)");
      470     4248        %K$TCTX (NAME=K$TCTX, STCLASS="BASED(TCTX$)");
      471     5155        %FPT_CONNECT (STCLASS="BASED(KN$NETPARM.FPT$)");
      472     5224                                                /* External data                      */
      473     5225    1   DCL KN_TCTX$$ PTR SYMREF READONLY;
      474     5226    1   DCL KN_TCTX_MAX# UBIN SYMREF READONLY;
      475     5227
      476     5228
      477     5229    1      TCTX# = 1;
      478     5230
      479     5231    2      DO WHILE ( TCTX# < KN_TCTX_MAX# );
      480     5232    2           TCTX$ = KN$TCTX$(TCTX#);
      481     5233    2           IF TCTX$ ~= ADDR(NIL)
      482     5234    3           THEN DO;
      483     5235    3                IF K$TCTX.STATE > %K_TSTATE_CLOSED
      484     5236    3                THEN IF K$TCTX.NODE = FPT_CONNECT.RLCID.NODE
      485     5237    4                     THEN DO;
      486     5238    4                          IF K$TCTX.CLASS = 15
      487     5239    5                          THEN DO;
      488     5240    5                               FPT_CONNECT.CLASS = 15;
      489     5241    5                               FPT_CONNECT.SERVICE = K$TCTX.QOS;
      490     5242    5                               FPT_CONNECT.TR_FLAGS = K$TCTX.OPTION;
      491     5243    5                               GOTO GOT_MATCH;
      492     5244    5                               END;
      493     5245
      494     5246    4                          IF K$TCTX.QOS = FPT_CONNECT.SERVICE
      495     5247    4                            AND K$TCTX.CLASS = FPT_CONNECT.CLASS
      496     5248    4                            AND BITBIN(K$TCTX.OPTION & '001F'X) = BITBIN(FPT_CONNECT.
              5248                                     TR_FLAGS & '001F'X)
      497     5249                                                /* .1F elimates the trace flag        */
      498     5250    5                          THEN DO;
      499     5251    5   GOT_MATCH:                  ;
      500     5252    5                               KN$NETPARM.TCTX_ID = K$TCTX.SRC_REF;
      501     5253    5                               IF KN$NETPARM.FUNCTION = %KN_FCN_INIT
      502     5254    6                               THEN DO;
      503     5255    6                                    IF KN$LDCT.CONN_TYPE ~= %KN_CNTYPE_LINK
      504     5256    7                                    THEN DO;
PL6.E3A0      #002=KNA$LOCATE_TCTX File=KNA$SUBS.:E05TSI                         WED 07/30/97 00:59 Page:75
      505     5257    7                                         KN$LDCT.TRANSPORT_ID = K$TCTX.SRC_REF;
      506     5258    7                                         END;
      507     5259    6                                    END;
      508     5260    5                               RETURN;
      509     5261    5                               END/*got match*/;
      510     5262    4                          END/*node match*/;
      511     5263    3                END/*do if tctx$ ~nil*/;
      512     5264
      513     5265    2           TCTX# = TCTX# +1;
      514     5266    2           END/*do while tldct < knt_nxt_tdct*/;
      515     5267
      516     5268    1      ALTRETURN;
      517     5269
      518     5270    1   END KNA$LOCATE_TCTX;
      519     5271        %EOD;

PL6.E3A0      #002=KNA$LOCATE_TCTX File=KNA$SUBS.:E05TSI                         WED 07/30/97 00:59 Page:76
--  Include file information  --

   GH_SCHD_M.:E05TOU  is referenced.
   KI_CP6.:E05TOU  is referenced.
   K_ADDRESS_M.:E05TOU  is referenced.
   KNH_MACRO_C.:E05TOU  is referenced.
   KN_DATA_M.:E05TOU  is referenced.
      No diagnostics issued in procedure KNA$LOCATE_TCTX.

   Procedure KNA$LOCATE_TCTX requires 124 words for executable code.
   Procedure KNA$LOCATE_TCTX requires 10 words of local(AUTO) storage.

PL6.E3A0      #002=KNA$LOCATE_TCTX File=KNA$SUBS.:E05TSI                         WED 07/30/97 00:59 Page:77

 Object Unit name= KNA$LOCATE_TCTX                            File name= KNA$SUBS.:E05TOU
 UTS= JUL 30 '97 00:59:21.84 WED                              Compiler= PL-6/E31         Sev=      00
 SharedLib= :SHARED_LCP6_SYSTEM                               Alt SharedLib=


    ****  Control sections  ****

 Sect   Type Bound  Init  Size HexSiz  Section name
    0   Proc  even  none   124     7C  KNA$LOCATE_TCTX

    ****  Entry defs  ****

                              Check   Calling
                             calling  sequence
  Sect HexLoc Primary Altret sequence   type   Parms  Name
     0      0   yes    yes     yes      Std        1  KNA$LOCATE_TCTX

  ****  Entry refs  ****

         Check        Calling
        calling       sequence
Altret sequence SRef   type   Args  Name
                       nStd      0 X6A_AUTO_1
                       nStd      0 X6A_ARET
                       nStd      0 X6A_AALT

  ****  Data refs  ****

  Flags:  r = read only, s = secondary
Flgs Name                             Flgs Name                             Flgs Name
r    KN_TCTX$$                        r    KN_TCTX_MAX#                     r    G$ROS$
PL6.E3A0      #002=KNA$LOCATE_TCTX File=KNA$SUBS.:E05TSI                         WED 07/30/97 00:59 Page:78


      426        1        /*T***********************************************************/
      427        2        /*T*                                                         */
      428        3        /*T* Copyright (c) Bull HN Information Systems Inc., 1997    */
      429        4        /*T*                                                         */
      430        5        /*T***********************************************************/
      431        6        %EJECT;
PL6.E3A0      #002=KNA$LOCATE_TCTX File=KNA$SUBS.:E05TSI                         WED 07/30/97 00:59 Page:79
      432        7        /*F*  NAME: KNA$LOCATE_TCTX
      433        8
      434        9              PURPOSE: To locate an allocated TCTX where the selected
      435       10                       NODE, CLASS, QOS, CHKSUM, EXTENDED, EXPEDITED and
      436       11                       CLASS_2_FLOW options match those specified in the
      437       12                       connect request.
      438       13
      439       14                       The alternate return is taken if a TCTX with
      440       15                       matching specifications cannot be found.
      441       16
      442       17              INPUT:   KN$NETPARM.FPT$ contains the address of FPT_CONNECT
      443       18                       KN$NETPARM.LDCT$ contains the address of the session
      444       19                       connection LDCT if this is call from local session.
      445       20
      446       21              OUTPUT:  KN$NETPARM.TCTX_ID will contain the index for the TCXT
      447       22                       KN$LDCT.TRANSPORT_ID will contain the index for the TCTX
      448       23                       if this is a call from local session.
      449       24        */
      450       25
      451       26        /*X* PLM=3,IND=5,ENU=0,ECU=0 */
      452       27        KNA$LOCATE_TCTX: PROC(KN$NETPARM) ALTRET;

     27   0 000000  D380 0000 0000  xent KNA$LOCATE_TCTX LNJ,B5   X6A_AUTO_1
          0 000003       000A 0001                       DC       10,1

      453       28
      454       29        %INCLUDE KN_DATA_M;
      455     1815        %INCLUDE KNH_MACRO_C;
      456     2098        %INCLUDE K_ADDRESS_M;
      457     2601        %INCLUDE KI_CP6;
      458     3697        %INCLUDE GH_SCHD_M;
      459     3841
      460     3842                                                /* Input parameters                   */
      461     3843        %KN$NETPARM;
      462     3996
      463     3997                                                /* AUTO Storage                       */
      464     3998    1   DCL TCTX# UBIN;
PL6.E3A0      #002=KNA$LOCATE_TCTX File=KNA$SUBS.:E05TSI                         WED 07/30/97 00:59 Page:80
      465     3999    1   DCL TCTX$ PTR;
      466     4000
      467     4001                                                /* Based data                         */
      468     4002    1   DCL KN$TCTX$(0:0) PTR BASED(KN_TCTX$$);
      469     4003        %KN$LDCT (STCLASS="BASED(KN$NETPARM.LDCT$)");
      470     4248        %K$TCTX (NAME=K$TCTX, STCLASS="BASED(TCTX$)");
      471     5155        %FPT_CONNECT (STCLASS="BASED(KN$NETPARM.FPT$)");
      472     5224                                                /* External data                      */
      473     5225    1   DCL KN_TCTX$$ PTR SYMREF READONLY;
      474     5226    1   DCL KN_TCTX_MAX# UBIN SYMREF READONLY;
      475     5227
      476     5228
      477     5229    1      TCTX# = 1;

   5229   0 000005  6C01                                 LDV,R6   1
          0 000006  EF47 0006                            STR,R6   TCTX#,AUTO

      478     5230
      479     5231    2      DO WHILE ( TCTX# < KN_TCTX_MAX# );

   5231   0 000008  E900 0000 0000  xsym                 CMR,R6   KN_TCTX_MAX#
          0 00000B  0281 006D                            BGE      s:5268,PREL

      480     5232    2           TCTX$ = KN$TCTX$(TCTX#);

   5232   0 00000D  EC80 0000 0000  xsym                 LDB,B6   KN_TCTX$$
          0 000010  B847 0006                            LDR,R3   TCTX#,AUTO
          0 000012  DCB6                                 LDB,B5   ,B6,R3
          0 000013  DFC7 0007                            STB,B5   TCTX$,AUTO

      481     5233    2           IF TCTX$ ~= ADDR(NIL)

   5233   0 000015  8DC7 0007                            CMN      TCTX$,AUTO
          0 000017  0901 0058                            BE       s:5265,PREL

      482     5234    3           THEN DO;

PL6.E3A0      #002=KNA$LOCATE_TCTX File=KNA$SUBS.:E05TSI                         WED 07/30/97 00:59 Page:81
      483     5235    3                IF K$TCTX.STATE > %K_TSTATE_CLOSED

   5235   0 000019  E285                                 LLH,R6   ,B5
          0 00001A  6D02                                 CMV,R6   2
          0 00001B  0381 0054                            BLE      s:5265,PREL

      484     5236    3                THEN IF K$TCTX.NODE = FPT_CONNECT.RLCID.NODE

   5236   0 00001D  CCC7 0004                            LDB,B4   @KN$NETPARM,AUTO
          0 00001F  BCC4 0019                            LDB,B3   25,B4
          0 000021  D805                                 LDR,R5   ,B5
          0 000022  D570 00FF                            AND,R5   255,IMO
          0 000024  C2C3 000D                            LLH,R4   13,B3
          0 000026  D954                                 CMR,R5   R4
          0 000027  0981 0048                            BNE      s:5265,PREL

      485     5237    4                     THEN DO;

      486     5238    4                          IF K$TCTX.CLASS = 15

   5238   0 000029  A2C5 0005                            LLH,R2   5,B5
          0 00002B  2D0F                                 CMV,R2   15
          0 00002C  0981 0013                            BNE      s:5246,PREL

      487     5239    5                          THEN DO;

      488     5240    5                               FPT_CONNECT.CLASS = 15;

   5240   0 00002E  1C0F                                 LDV,R1   15
          0 00002F  97C3 0011                            STH,R1   17,B3

      489     5241    5                               FPT_CONNECT.SERVICE = K$TCTX.QOS;

   5241   0 000031  BCC4 0019                            LDB,B3   25,B4
          0 000033  E845 0004                            LDR,R6   4,B5
          0 000035  EAC3 0010                            SRM,R6,'00FF'X    16,B3
          0 000037       00FF
PL6.E3A0      #002=KNA$LOCATE_TCTX File=KNA$SUBS.:E05TSI                         WED 07/30/97 00:59 Page:82

      490     5242    5                               FPT_CONNECT.TR_FLAGS = K$TCTX.OPTION;

   5242   0 000038  BCC4 0019                            LDB,B3   25,B4
          0 00003A  E845 000C                            LDR,R6   12,B5
          0 00003C  EF43 0012                            STR,R6   18,B3

      491     5243    5                               GOTO GOT_MATCH;

   5243   0 00003E  0F81 001C                            B        s:5250,PREL

      492     5244    5                               END;
      493     5245
      494     5246    4                          IF K$TCTX.QOS = FPT_CONNECT.SERVICE

   5246   0 000040  9845 0004                            LDR,R1   4,B5
          0 000042  9570 00FF                            AND,R1   255,IMO
          0 000044  E843 0010                            LDR,R6   16,B3
          0 000046  E570 00FF                            AND,R6   255,IMO
          0 000048  9956                                 CMR,R1   R6
          0 000049  0981 0026                            BNE      s:5265,PREL
          0 00004B  E2C3 0011                            LLH,R6   17,B3
          0 00004D  A956                                 CMR,R2   R6
          0 00004E  0981 0021                            BNE      s:5265,PREL
          0 000050  E845 000C                            LDR,R6   12,B5
          0 000052  E570 001F                            AND,R6   31,IMO
          0 000054  D843 0012                            LDR,R5   18,B3
          0 000056  D570 001F                            AND,R5   31,IMO
          0 000058  E955                                 CMR,R6   R5
          0 000059  0981 0016                            BNE      s:5265,PREL

      495     5247    4                            AND K$TCTX.CLASS = FPT_CONNECT.CLASS
      496     5248    4                            AND BITBIN(K$TCTX.OPTION & '001F'X) = BITBIN(FPT_CONNECT.
              5248                                     TR_FLAGS & '001F'X)
      497     5249                                                /* .1F elimates the trace flag        */
      498     5250    5                          THEN DO;

PL6.E3A0      #002=KNA$LOCATE_TCTX File=KNA$SUBS.:E05TSI                         WED 07/30/97 00:59 Page:83
   5242   0                              GOT_MATCH       null
      499     5251    5   GOT_MATCH:                  ;
      500     5252    5                               KN$NETPARM.TCTX_ID = K$TCTX.SRC_REF;

   5252   0 00005B  E845 0002            GOT_MATCH       LDR,R6   2,B5
          0 00005D  EF44 0011                            STR,R6   17,B4

      501     5253    5                               IF KN$NETPARM.FUNCTION = %KN_FCN_INIT

   5253   0 00005F  D844 0014                            LDR,R5   20,B4
          0 000061  5D01                                 CMV,R5   1
          0 000062  0981 000A                            BNE      s:5260,PREL

      502     5254    6                               THEN DO;

      503     5255    6                                    IF KN$LDCT.CONN_TYPE ~= %KN_CNTYPE_LINK

   5255   0 000064  BC84                                 LDB,B3   ,B4
          0 000065  C283                                 LLH,R4   ,B3
          0 000066  4D06                                 CMV,R4   6
          0 000067  0901 0005                            BE       s:5260,PREL

      504     5256    7                                    THEN DO;

      505     5257    7                                         KN$LDCT.TRANSPORT_ID = K$TCTX.SRC_REF;

   5257   0 000069  A845 0002                            LDR,R2   2,B5
          0 00006B  AF43 0003                            STR,R2   3,B3

      506     5258    7                                         END;

      507     5259    6                                    END;

      508     5260    5                               RETURN;

   5260   0 00006D  C380 0000 0000  xent                 LNJ,B4   X6A_ARET

PL6.E3A0      #002=KNA$LOCATE_TCTX File=KNA$SUBS.:E05TSI                         WED 07/30/97 00:59 Page:84
      509     5261    5                               END/*got match*/;
      510     5262    4                          END/*node match*/;
      511     5263    3                END/*do if tctx$ ~nil*/;
      512     5264
      513     5265    2           TCTX# = TCTX# +1;

   5265   0 000070  8AC7 0006                            INC      TCTX#,AUTO

      514     5266    2           END/*do while tldct < knt_nxt_tdct*/;

   5266   0 000072  E847 0006                            LDR,R6   TCTX#,AUTO
          0 000074  E900 0000 0000  xsym                 CMR,R6   KN_TCTX_MAX#
          0 000077  0201 FF95                            BL       s:5232,PREL

      515     5267
      516     5268    1      ALTRETURN;

   5268   0 000079  C380 0000 0000  xent                 LNJ,B4   X6A_AALT
      517     5269
      518     5270    1   END KNA$LOCATE_TCTX;
      519     5271        %EOD;

PL6.E3A0      #002=KNA$LOCATE_TCTX File=KNA$SUBS.:E05TSI                         WED 07/30/97 00:59 Page:85
--  Include file information  --

   GH_SCHD_M.:E05TOU  is referenced.
   KI_CP6.:E05TOU  is referenced.
   K_ADDRESS_M.:E05TOU  is referenced.
   KNH_MACRO_C.:E05TOU  is referenced.
   KN_DATA_M.:E05TOU  is referenced.
      No diagnostics issued in procedure KNA$LOCATE_TCTX.
PL6.E3A0      #002=KNA$LOCATE_TCTX File=KNA$SUBS.:E05TSI                         WED 07/30/97 00:59 Page:86

 **** Variables and constants ****

  ****  Auto variables  ****

  ****  Scalars and arrays  ****
HexLoc.c.b A Datatyp(siz) R M Lvl/name                 HexLoc.c.b A Datatyp(siz) R M Lvl/name

     4-0-0/w PTR         r     1 @KN$NETPARM               *0-0-0/w STRC(528)   r     1 KN$NETPARM
     6-0-0/w UBIN(16)    r     1 TCTX#                      7-0-0/w PTR         r     1 TCTX$

  ****  SYMREF variables  ****

  ****  Scalars and arrays  ****
HexLoc.c.b A Datatyp(siz) R M Lvl/name                 HexLoc.c.b A Datatyp(siz) R M Lvl/name

     0-0-0/w PTR         r     1 KN_TCTX$$                  0-0-0/w UBIN(16)    r     1 KN_TCTX_MAX#

  ****  BASED and DCB variables  ****

  ****  Scalars and arrays  ****
HexLoc.c.b A Datatyp(siz) R M Lvl/name                 HexLoc.c.b A Datatyp(siz) R M Lvl/name

     0-0-0/w STRC(304)   r     1 FPT_CONNECT                0-0-0/w STRC(2816)  r     1 K$TCTX
     0-0-0/w STRC(256)   r     1 KN$LDCT
     0-0-0/w PTR         r     1 KN$TCTX$(0:0)


   Procedure KNA$LOCATE_TCTX requires 124 words for executable code.
   Procedure KNA$LOCATE_TCTX requires 10 words of local(AUTO) storage.
PL6.E3A0      #002=KNA$LOCATE_TCTX File=KNA$SUBS.:E05TSI                         WED 07/30/97 00:59 Page:87
          *** CROSS REFERENCE LISTING ***
**     DENOTES     IDENTIFIER DEFINITION
<<                 IDENTIFIER'S VALUE SET
>>                 IDENTIFIER'S VALUE USED
<>                 IDENTIFIER SET AND/OR USED
--                 IDENTIFIER REFERENCED
PL6.E3A0      #002=KNA$LOCATE_TCTX File=KNA$SUBS.:E05TSI                         WED 07/30/97 00:59 Page:88
          MINI XREF LISTING

FPT_CONNECT.CLASS
      5209**DCL      5240<<ASSIGN   5246>>IF
FPT_CONNECT.RLCID.GENERATION
      5205**DCL      5206--REDEF
FPT_CONNECT.RLCID.LDCTX
      5206**DCL      5206--REDEF
FPT_CONNECT.RLCID.NODE
      5205**DCL      5236>>IF
FPT_CONNECT.SERVICE
      5208**DCL      5241<<ASSIGN   5246>>IF
FPT_CONNECT.TERMINAL_ID.TERM
      5194**DCL      5203--REDEF
FPT_CONNECT.TR_FLAGS
      5210**DCL      5242<<ASSIGN   5246>>IF
GOT_MATCH
      5242**LABEL    5243--GOTO
K$TCTX.CLASS
      4319**DCL      5238>>IF       5246>>IF
K$TCTX.DST_NSAP.ADDRESS_N
      5138**DCL      5139--REDEF
K$TCTX.NODE
      4260**DCL      4273--REDEF    5236>>IF
K$TCTX.OPTION
      4358**DCL      5242>>ASSIGN   5246>>IF
K$TCTX.QOS
      4308**DCL      5241>>ASSIGN   5246>>IF
K$TCTX.SRC_NSAP.ADDRESS_N
      5074**DCL      5075--REDEF
K$TCTX.SRC_REF
      4287**DCL      5252>>ASSIGN   5257>>ASSIGN
K$TCTX.STATE
      4254**DCL      5235>>IF
PL6.E3A0      #002=KNA$LOCATE_TCTX File=KNA$SUBS.:E05TSI                         WED 07/30/97 00:59 Page:89
K$TCTX.TMR_INACTIVITY.ARG
      4894**DCL      4895--REDEF
K$TCTX.TMR_REFERENCE.ARG
      4924**DCL      4925--REDEF
K$TCTX.TMR_RETRAN.ARG
      4835**DCL      4836--REDEF
K$TCTX.TMR_WINDOW.ARG
      4864**DCL      4865--REDEF
KN$LDCT.CONN_TYPE
      4019**DCL      5255>>IF
KN$LDCT.RLCID.LDCTX
      4079**DCL      4086--REDEF    4094--REDEF
KN$LDCT.TRANSPORT_ID
      4113**DCL      4121--REDEF    5257<<ASSIGN
KN$LDCT.UID
      4143**DCL      4144--REDEF    4153--REDEF
KN$NETPARM
      3856**DCL        27--PROC
KN$NETPARM.FPT$
      3975**DCL      5169--IMP-PTR  5236>>IF       5240>>ASSIGN   5241>>ASSIGN   5242>>ASSIGN   5246>>IF
      5246>>IF       5246>>IF
KN$NETPARM.FUNCTION
      3951**DCL      5253>>IF
KN$NETPARM.LDCT$
      3857**DCL      4018--IMP-PTR  5255>>IF       5257>>ASSIGN
KN$NETPARM.MSG$
      3863**DCL      3868--REDEF
KN$NETPARM.NHDR$
      3915**DCL      3916--REDEF
KN$NETPARM.SHDR$
      3893**DCL      3894--REDEF
KN$NETPARM.TCTX_ID
      3926**DCL      5252<<ASSIGN
KN$NETPARM.THDR$
      3904**DCL      3905--REDEF
KN$NETPARM.UHDR$
PL6.E3A0      #002=KNA$LOCATE_TCTX File=KNA$SUBS.:E05TSI                         WED 07/30/97 00:59 Page:90
      3879**DCL      3880--REDEF
KN$TCTX$
      4002**DCL      5232>>ASSIGN
KN_TCTX$$
      5225**DCL      4002--IMP-PTR  5232>>ASSIGN
KN_TCTX_MAX#
      5226**DCL      5231>>DOWHILE
TCTX#
      3998**DCL      5229<<ASSIGN   5231>>DOWHILE  5232>>ASSIGN   5265<<ASSIGN   5265>>ASSIGN
TCTX$
      3999**DCL      4253--IMP-PTR  5232<<ASSIGN   5233>>IF       5235>>IF       5236>>IF       5238>>IF
      5241>>ASSIGN   5242>>ASSIGN   5246>>IF       5246>>IF       5246>>IF       5252>>ASSIGN   5257>>ASSIGN

PL6.E3A0      #003=KNA$MAP File=KNA$SUBS.:E05TSI                                 WED 07/30/97 00:59 Page:91
      520        1        /*T***********************************************************/
      521        2        /*T*                                                         */
      522        3        /*T* Copyright (c) Bull HN Information Systems Inc., 1997    */
      523        4        /*T*                                                         */
      524        5        /*T***********************************************************/
      525        6
      526        7
      527        8        /*F* NAME:  KNA$MAP
      528        9             PURPOSE:
      529       10                  The purpose of this routine is to take a segment
      530       11                  descriptor that has been saved in an IOP and map
      531       12                  the necessary data into the window segment, modifying the
      532       13                  passed pointer so that it points into the window segment
      533       14                  where the data is.
      534       15           DESCRIPTION:
      535       16                  This routine is used by KNA$IN to remap a descriptor that
      536       17                  was saved in an IOP by KNA$SAVEMAP.  The passed descriptor
      537       18                  is mapped into the window segment and the passed pointer
      538       19                  is modified to locate the data within the window segment.
      539       20        */
      540       21        /*D*
      541       22           NAME:  KNA$MAP
      542       23             CALL: CALL KNA$MAP(ptr$,segdesc);
      543       24
      544       25           PARAMETERS:
      545       26                  ptr$ - The virtual pointer
      546       27                  segdesc - The segment descriptor from the IOP
      547       28        */
      548       29
      549       30        KNA$MAP: PROC(PTR$,SEGDES);
      550       31                                                /* INCLUDES                           */
      551       32        %INCLUDE GH_LCP6_M;
      552      866        %INCLUDE G_HJIT_M;
      553     1011                                                /* SYMREFS                            */
      554     1012    1   DCL G$ASDT_MCL$ PTR SYMREF;
      555     1013    1   DCL G$UHJIT$ PTR SYMREF;
      556     1014    1   DCL G$WINDOW1$ PTR SYMREF;
PL6.E3A0      #003=KNA$MAP File=KNA$SUBS.:E05TSI                                 WED 07/30/97 00:59 Page:92
      557     1015                                                /* BASED                              */
      558     1016        %G$UHJIT(STCLASS="BASED(G$UHJIT$)");
      559     3990        %G$ASDT_MCL(STCLASS="BASED(G$ASDT_MCL$)");
      560     4684        %G$ASDT(STCLASS=BASED);
      561     4713                                                /* ARGS                               */
      562     4714    1   DCL PTR$ UBIN(32);
      563     4715    1   DCL PTR$$ REDEF PTR$ CPTR;
      564     4716    1   DCL 1 LITTLE$ REDEF PTR$,               /* Used for 4K segs 0 - 15            */
      565     4717    1         2 U16 UBIN(16) UNAL,
      566     4718    1         2 U4 UBIN(4) UNAL,
      567     4719    1         2 U12 UBIN(12) UNAL ;
      568     4720    1   DCL 1 BIG$ REDEF PTR$,                  /* Used for 64K segs 16 - 30          */
      569     4721    1         2 CFLG BIT(1),
      570     4722    1         2 U15 UBIN(15) UNAL,
      571     4723    1         2 U16 UBIN(16) UNAL ;
      572     4724    1   DCL SEGDES BIT(32) ALIGNED;
      573     4725                                                /* TEMPS                              */
      574     4726    1   DCL OFFSET UBIN(32);
      575     4727    1   DCL SEGNO UBIN;
      576     4728    1   DCL NONWORD_ALIGNED BIT(1) ;
      577     4729                                                /* ENTRYS                             */
      578     4730    1   DCL GHH$ASD ENTRY(2);
      579     4731    1      IF BIG$.U15 = 0
      580     4732    1      THEN OFFSET = LITTLE$.U12;
      581     4733    1      ELSE OFFSET = BIG$.U16;
      582     4734
      583     4735    1      IF BIG$.CFLG
      584     4736    1      THEN NONWORD_ALIGNED = '1'B;
      585     4737    1      ELSE NONWORD_ALIGNED = '0'B;
      586     4738
      587     4739    1      G$ASDT_MCL.WINDOW1 = SEGDES;
      588     4740    1      CALL GHH$ASD(G$WINDOW1$,G$ASDT_MCL.WINDOW1);
      589     4741
      590     4742        /* Setup the pointer to be an offset from the base of WINDOW1
      591     4743        */
      592     4744    1      PTR$$=PINCRW(G$WINDOW1$,OFFSET);
      593     4745    1      IF NONWORD_ALIGNED
PL6.E3A0      #003=KNA$MAP File=KNA$SUBS.:E05TSI                                 WED 07/30/97 00:59 Page:93
      594     4746    1      THEN BIG$.CFLG = '1'B;
      595     4747
      596     4748    1      RETURN;
      597     4749        %EJECT;
PL6.E3A0      #003=KNA$MAP File=KNA$SUBS.:E05TSI                                 WED 07/30/97 00:59 Page:94
      598     4750        /*F* NAME: KNA$SAVEMAP
      599     4751             PURPOSE: To move a segment descriptor from the user's ASDT
      600     4752                      into the IOP.
      601     4753             DESCRIPTION: This routine is used by the read code in KNA$USERIO.
      602     4754        */
      603     4755
      604     4756    1   KNA$SAVEMAP: ENTRY(PTR$,SEGDES);
      605     4757
      606     4758    1      IF BIG$.U15 = 0
      607     4759    1      THEN SEGNO = LITTLE$.U4;
      608     4760    1      ELSE SEGNO = BIG$.U15 + 15;
      609     4761
      610     4762    1      SEGDES = ADDR(G$UHJIT$->G$UHJIT.ASDT_MCL)->G$ASDT(SEGNO);
      611     4763    1      RETURN;
      612     4764
      613     4765    1   END;
      614     4766        %EOD;

PL6.E3A0      #003=KNA$MAP File=KNA$SUBS.:E05TSI                                 WED 07/30/97 00:59 Page:95
--  Include file information  --

   G_HJIT_M.:E05TOU  is referenced.
   GH_LCP6_M.:E05TOU  is referenced.
      No diagnostics issued in procedure KNA$MAP.

   Procedure KNA$MAP requires 113 words for executable code.
   Procedure KNA$MAP requires 16 words of local(AUTO) storage.

PL6.E3A0      #003=KNA$MAP File=KNA$SUBS.:E05TSI                                 WED 07/30/97 00:59 Page:96

 Object Unit name= KNA$MAP                                    File name= KNA$SUBS.:E05TOU
 UTS= JUL 30 '97 00:59:44.52 WED                              Compiler= PL-6/E31         Sev=      00
 SharedLib= :SHARED_LCP6_SYSTEM                               Alt SharedLib=


    ****  Control sections  ****

 Sect   Type Bound  Init  Size HexSiz  Section name
    0   Proc  even  none   113     71  KNA$MAP

    ****  Entry defs  ****

                              Check   Calling
                             calling  sequence
  Sect HexLoc Primary Altret sequence   type   Parms  Name
     0      0   yes            yes      Std        2  KNA$MAP
     0     4D                  yes      Std        2  KNA$SAVEMAP

  ****  Entry refs  ****

         Check        Calling
        calling       sequence
Altret sequence SRef   type   Args  Name
         yes           Std       2 GHH$ASD
                       nStd      0 X6A_AUTO_2
                       nStd      0 X6A_ARET

  ****  Data refs  ****

  Flags:  r = read only, s = secondary
Flgs Name                             Flgs Name                             Flgs Name
     G$ASDT_MCL$                           G$UHJIT$                              G$WINDOW1$
r    G$ROS$
PL6.E3A0      #003=KNA$MAP File=KNA$SUBS.:E05TSI                                 WED 07/30/97 00:59 Page:97


      520        1        /*T***********************************************************/
      521        2        /*T*                                                         */
      522        3        /*T* Copyright (c) Bull HN Information Systems Inc., 1997    */
      523        4        /*T*                                                         */
      524        5        /*T***********************************************************/
      525        6
      526        7
      527        8        /*F* NAME:  KNA$MAP
      528        9             PURPOSE:
      529       10                  The purpose of this routine is to take a segment
      530       11                  descriptor that has been saved in an IOP and map
      531       12                  the necessary data into the window segment, modifying the
      532       13                  passed pointer so that it points into the window segment
      533       14                  where the data is.
      534       15           DESCRIPTION:
      535       16                  This routine is used by KNA$IN to remap a descriptor that
      536       17                  was saved in an IOP by KNA$SAVEMAP.  The passed descriptor
      537       18                  is mapped into the window segment and the passed pointer
      538       19                  is modified to locate the data within the window segment.
      539       20        */
      540       21        /*D*
      541       22           NAME:  KNA$MAP
      542       23             CALL: CALL KNA$MAP(ptr$,segdesc);
      543       24
      544       25           PARAMETERS:
      545       26                  ptr$ - The virtual pointer
      546       27                  segdesc - The segment descriptor from the IOP
      547       28        */
      548       29
      549       30        KNA$MAP: PROC(PTR$,SEGDES);

     30   0 000000  D380 0000 0000  xent KNA$MAP         LNJ,B5   X6A_AUTO_2
          0 000003       0010 0002                       DC       16,2

      550       31                                                /* INCLUDES                           */
      551       32        %INCLUDE GH_LCP6_M;
PL6.E3A0      #003=KNA$MAP File=KNA$SUBS.:E05TSI                                 WED 07/30/97 00:59 Page:98
      552      866        %INCLUDE G_HJIT_M;
      553     1011                                                /* SYMREFS                            */
      554     1012    1   DCL G$ASDT_MCL$ PTR SYMREF;
      555     1013    1   DCL G$UHJIT$ PTR SYMREF;
      556     1014    1   DCL G$WINDOW1$ PTR SYMREF;
      557     1015                                                /* BASED                              */
      558     1016        %G$UHJIT(STCLASS="BASED(G$UHJIT$)");
      559     3990        %G$ASDT_MCL(STCLASS="BASED(G$ASDT_MCL$)");
      560     4684        %G$ASDT(STCLASS=BASED);
      561     4713                                                /* ARGS                               */
      562     4714    1   DCL PTR$ UBIN(32);
      563     4715    1   DCL PTR$$ REDEF PTR$ CPTR;
      564     4716    1   DCL 1 LITTLE$ REDEF PTR$,               /* Used for 4K segs 0 - 15            */
      565     4717    1         2 U16 UBIN(16) UNAL,
      566     4718    1         2 U4 UBIN(4) UNAL,
      567     4719    1         2 U12 UBIN(12) UNAL ;
      568     4720    1   DCL 1 BIG$ REDEF PTR$,                  /* Used for 64K segs 16 - 30          */
      569     4721    1         2 CFLG BIT(1),
      570     4722    1         2 U15 UBIN(15) UNAL,
      571     4723    1         2 U16 UBIN(16) UNAL ;
      572     4724    1   DCL SEGDES BIT(32) ALIGNED;
      573     4725                                                /* TEMPS                              */
      574     4726    1   DCL OFFSET UBIN(32);
      575     4727    1   DCL SEGNO UBIN;
      576     4728    1   DCL NONWORD_ALIGNED BIT(1) ;
      577     4729                                                /* ENTRYS                             */
      578     4730    1   DCL GHH$ASD ENTRY(2);
      579     4731    1      IF BIG$.U15 = 0

   4731   0 000005  ECC7 0004                            LDB,B6   @PTR$,AUTO
          0 000007  8286                                 LB,'7FFF'X        ,B6
          0 000008       7FFF
          0 000009  0501 000A                            BBT      s:4733,PREL

      580     4732    1      THEN OFFSET = LITTLE$.U12;

   4732   0 00000B  F846 0001                            LDR,R7   1,B6
PL6.E3A0      #003=KNA$MAP File=KNA$SUBS.:E05TSI                                 WED 07/30/97 00:59 Page:99
          0 00000D  F570 0FFF                            AND,R7   4095,IMO
          0 00000F  6C00                                 LDV,R6   0
          0 000010  8D47 0008                            SDI      OFFSET,AUTO
          0 000012  0F81 0006                            B        s:4735,PREL

      581     4733    1      ELSE OFFSET = BIG$.U16;

   4733   0 000014  F846 0001                            LDR,R7   1,B6
          0 000016  6C00                                 LDV,R6   0
          0 000017  8D47 0008                            SDI      OFFSET,AUTO

      582     4734
      583     4735    1      IF BIG$.CFLG

   4735   0 000019  8986                                 CMZ      ,B6
          0 00001A  0881 0006                            BAGE     s:4737,PREL

      584     4736    1      THEN NONWORD_ALIGNED = '1'B;

   4736   0 00001C  8947 000B                            LBT,'8000'X       NONWORD_ALIGNED,AUTO
   4736   0 00001E       8000
          0 00001F  0F81 0003                            B        s:4739,PREL

      585     4737    1      ELSE NONWORD_ALIGNED = '0'B;

   4737   0 000021  8747 000B                            CL       NONWORD_ALIGNED,AUTO

      586     4738
      587     4739    1      G$ASDT_MCL.WINDOW1 = SEGDES;

   4739   0 000023  DCC7 0006                            LDB,B5   @SEGDES,AUTO
          0 000025  8C85                                 LDI      ,B5
          0 000026  CC80 0000 0000  xsym                 LDB,B4   G$ASDT_MCL$
          0 000029  8D44 0030                            SDI      48,B4

      588     4740    1      CALL GHH$ASD(G$WINDOW1$,G$ASDT_MCL.WINDOW1);

PL6.E3A0      #003=KNA$MAP File=KNA$SUBS.:E05TSI                                 WED 07/30/97 00:59 Page:100
   4740   0 00002B  BBC4 0030                            LAB,B3   48,B4
          0 00002D  BFC7 000E                            STB,B3   NONWORD_ALIGNED+3,AUTO
          0 00002F  AB80 0000 0000  xsym                 LAB,B2   G$WINDOW1$
          0 000032  AFC7 000C                            STB,B2   NONWORD_ALIGNED+1,AUTO
          0 000034  BBC7 000C                            LAB,B3   NONWORD_ALIGNED+1,AUTO
          0 000036  CBF0 0200                            LAB,B4   512,IMO
          0 000038  E380 0000 0000  xent                 LNJ,B6   GHH$ASD
          0 00003B       0001                            DC       s:4744,PREL

      589     4741
      590     4742        /* Setup the pointer to be an offset from the base of WINDOW1
      591     4743        */
      592     4744    1      PTR$$=PINCRW(G$WINDOW1$,OFFSET);

   4744   0 00003C  8C80 0000 0000  xsym                 LDI      G$WINDOW1$
          0 00003F  8447 0008                            AID      OFFSET,AUTO
          0 000041  ECC7 0004                            LDB,B6   @PTR$,AUTO
          0 000043  8D06                                 SDI      ,B6

      593     4745    1      IF NONWORD_ALIGNED

   4745   0 000044  89C7 000B                            CMZ      NONWORD_ALIGNED,AUTO
          0 000046  0881 0003                            BAGE     s:4748,PREL

      594     4746    1      THEN BIG$.CFLG = '1'B;

   4746   0 000048  8906                                 LBT,'8000'X       ,B6
   4746   0 000049       8000

      595     4747
      596     4748    1      RETURN;

   4748   0 00004A  C380 0000 0000  xent                 LNJ,B4   X6A_ARET

      597     4749        %EJECT;
PL6.E3A0      #003=KNA$MAP File=KNA$SUBS.:E05TSI                                 WED 07/30/97 00:59 Page:101
      598     4750        /*F* NAME: KNA$SAVEMAP
      599     4751             PURPOSE: To move a segment descriptor from the user's ASDT
      600     4752                      into the IOP.
      601     4753             DESCRIPTION: This routine is used by the read code in KNA$USERIO.
      602     4754        */
      603     4755
      604     4756    1   KNA$SAVEMAP: ENTRY(PTR$,SEGDES);

   4756   0 00004D  D380 0000 0000  xent KNA$SAVEMAP     LNJ,B5   X6A_AUTO_2
          0 000050       0010 0002                       DC       16,2

      605     4757
      606     4758    1      IF BIG$.U15 = 0

   4758   0 000052  ECC7 0004                            LDB,B6   @PTR$,AUTO
          0 000054  8286                                 LB,'7FFF'X        ,B6
          0 000055       7FFF
          0 000056  0501 0008                            BBT      s:4760,PREL

      607     4759    1      THEN SEGNO = LITTLE$.U4;

   4759   0 000058  E846 0001                            LDR,R6   1,B6
          0 00005A  604C                                 SOR,R6   12
          0 00005B  EF47 000A                            STR,R6   SEGNO,AUTO
          0 00005D  0F81 0007                            B        s:4762,PREL

      608     4760    1      ELSE SEGNO = BIG$.U15 + 15;

   4760   0 00005F  E806                                 LDR,R6   ,B6
          0 000060  E570 7FFF                            AND,R6   32767,IMO
          0 000062  6E0F                                 ADV,R6   15
          0 000063  EF47 000A                            STR,R6   SEGNO,AUTO

      609     4761
      610     4762    1      SEGDES = ADDR(G$UHJIT$->G$UHJIT.ASDT_MCL)->G$ASDT(SEGNO);

   4762   0 000065  DC80 0000 0000  xsym                 LDB,B5   G$UHJIT$
PL6.E3A0      #003=KNA$MAP File=KNA$SUBS.:E05TSI                                 WED 07/30/97 00:59 Page:102
          0 000068  B856                                 LDR,R3   R6
          0 000069  3E1F                                 ADV,R3   31
          0 00006A  8CB5                                 LDI      ,B5,R3
          0 00006B  CCC7 0006                            LDB,B4   @SEGDES,AUTO
          0 00006D  8D04                                 SDI      ,B4

      611     4763    1      RETURN;

   4763   0 00006E  C380 0000 0000  xent                 LNJ,B4   X6A_ARET
      612     4764
      613     4765    1   END;
      614     4766        %EOD;

PL6.E3A0      #003=KNA$MAP File=KNA$SUBS.:E05TSI                                 WED 07/30/97 00:59 Page:103
--  Include file information  --

   G_HJIT_M.:E05TOU  is referenced.
   GH_LCP6_M.:E05TOU  is referenced.
      No diagnostics issued in procedure KNA$MAP.
PL6.E3A0      #003=KNA$MAP File=KNA$SUBS.:E05TSI                                 WED 07/30/97 00:59 Page:104

 **** Variables and constants ****

  ****  Auto variables  ****

  ****  Scalars and arrays  ****
HexLoc.c.b A Datatyp(siz) R M Lvl/name                 HexLoc.c.b A Datatyp(siz) R M Lvl/name

     4-0-0/w PTR         r     1 @PTR$                      6-0-0/w PTR         r     1 @SEGDES
    *0-0-0/w STRC(32)    r     1 BIG$                      *0-0-0/w STRC(32)    r     1 LITTLE$
     B-0-0/b BIT         r     1 NONWORD_ALIGNED            8-0-0/w UBIN(32)    r     1 OFFSET
    *0-0-0/w UBIN(32)    r     1 PTR$                      *0-0-0/w PTR         r     1 PTR$$
    *0-0-0/w BIT (32)    r     1 SEGDES                     A-0-0/w UBIN(16)    r     1 SEGNO

  ****  SYMREF variables  ****

  ****  Scalars and arrays  ****
HexLoc.c.b A Datatyp(siz) R M Lvl/name                 HexLoc.c.b A Datatyp(siz) R M Lvl/name

     0-0-0/w PTR         r     1 G$ASDT_MCL$                0-0-0/w PTR         r     1 G$UHJIT$
     0-0-0/w PTR         r     1 G$WINDOW1$

  ****  BASED and DCB variables  ****

  ****  Scalars and arrays  ****
HexLoc.c.b A Datatyp(siz) R M Lvl/name                 HexLoc.c.b A Datatyp(siz) R M Lvl/name

     0-0-0/w STRC(32)    r     1 G$ASDT(0:30)               0-0-0/w STRC(992)   r     1 G$ASDT_MCL
     0-0-0/w STRC(6480)  r     1 G$UHJIT


   Procedure KNA$MAP requires 113 words for executable code.
   Procedure KNA$MAP requires 16 words of local(AUTO) storage.
PL6.E3A0      #003=KNA$MAP File=KNA$SUBS.:E05TSI                                 WED 07/30/97 00:59 Page:105
          *** CROSS REFERENCE LISTING ***
**     DENOTES     IDENTIFIER DEFINITION
<<                 IDENTIFIER'S VALUE SET
>>                 IDENTIFIER'S VALUE USED
<>                 IDENTIFIER SET AND/OR USED
--                 IDENTIFIER REFERENCED
PL6.E3A0      #003=KNA$MAP File=KNA$SUBS.:E05TSI                                 WED 07/30/97 00:59 Page:106
          MINI XREF LISTING

BIG$.CFLG
      4721**DCL      4735>>IF       4746<<ASSIGN
BIG$.U15
      4722**DCL      4731>>IF       4758>>IF       4760>>ASSIGN
BIG$.U16
      4723**DCL      4733>>ASSIGN
G$ASDT
      4689**DCL      4762>>ASSIGN
G$ASDT_MCL.WINDOW1
      4545**DCL      4739<<ASSIGN   4740<>CALL
G$ASDT_MCL$
      1012**DCL      3996--IMP-PTR  4739>>ASSIGN   4740>>CALL
G$UHJIT.ASDT_MCL
      1740**DCL      4762--ASSIGN
G$UHJIT.ISA_USR
      2456**DCL      2751--REDEF
G$UHJIT.ISA_USR.P$$
      2531**DCL      2531--REDEF
G$UHJIT.TSA_CP.ISA.P$$
      3738**DCL      3738--REDEF
G$UHJIT.TSA_CP.P$$
      3609**DCL      3609--REDEF    3610--REDEF
G$UHJIT.TSA_DB.ISA.P$$
      3350**DCL      3350--REDEF
G$UHJIT.TSA_DB.P$$
      3221**DCL      3221--REDEF    3222--REDEF
G$UHJIT.TSA_RTT.P$$
      3984**DCL      3984--REDEF    3985--REDEF
G$UHJIT.TSA_USR.ISA.P$$
      2940**DCL      2940--REDEF
G$UHJIT.TSA_USR.P$$
      2811**DCL      2811--REDEF    2812--REDEF
PL6.E3A0      #003=KNA$MAP File=KNA$SUBS.:E05TSI                                 WED 07/30/97 00:59 Page:107
G$UHJIT$
      1013**DCL      1033--IMP-PTR  4762>>ASSIGN
G$WINDOW1$
      1014**DCL      4740<>CALL     4744>>ASSIGN
GHH$ASD
      4730**DCL-ENT  4740--CALL
LITTLE$.U12
      4719**DCL      4732>>ASSIGN
LITTLE$.U4
      4718**DCL      4759>>ASSIGN
NONWORD_ALIGNED
      4728**DCL      4736<<ASSIGN   4737<<ASSIGN   4745>>IF
OFFSET
      4726**DCL      4732<<ASSIGN   4733<<ASSIGN   4744>>ASSIGN
PTR$
      4714**DCL        30--PROC     4715--REDEF    4716--REDEF    4720--REDEF    4756--ENTRY
PTR$$
      4715**DCL      4744<<ASSIGN
SEGDES
      4724**DCL        30--PROC     4739>>ASSIGN   4756--ENTRY    4762<<ASSIGN
SEGNO
      4727**DCL      4759<<ASSIGN   4760<<ASSIGN   4762>>ASSIGN

PL6.E3A0      #004=KNA$REG_USER File=KNA$SUBS.:E05TSI                            WED 07/30/97 01:00 Page:108
      615        1        /*T***********************************************************/
      616        2        /*T*                                                         */
      617        3        /*T* Copyright (c) Bull HN Information Systems Inc., 1997    */
      618        4        /*T*                                                         */
      619        5        /*T***********************************************************/
      620        6        /*F*
      621        7           NAME: KNA$REG_USER
      622        8           PURPOSE:
      623        9             To set some status in the APE context block before REGging the user.
      624       10             the user.
      625       11        */
      626       12        /*D*
      627       13           NAME: KNA$REG_USER
      628       14           CALL:
      629       15                  CALL KNA$REG_USER (EVENT,SSN$);
      630       16           PARAMETERS:
      631       17                  EVENT - Code describing the event that we are REGging for
      632       18                  SSN$  - Pointer to the concerned APE context
      633       19           DESCRIPTION:
      634       20                  Save EVENT as the reason for REGging and then call GHS$REG
      635       21             with the same EVENT.  Set status to say we are REGged.
      636       22        */
      637       23        %EJECT;
PL6.E3A0      #004=KNA$REG_USER File=KNA$SUBS.:E05TSI                            WED 07/30/97 01:00 Page:109
      638       24        KNA$REG_USER: PROC (EVENT,SSN$) ALTRET;
      639       25        %INCLUDE GU_LCP6_M;
      640      953        %INCLUDE KNA_MACRO_M;
      641     1029        %INCLUDE GH_GATE_M;
      642     1070        /*     Parameters */
      643     1071    1   DCL EVENT UBIN WORD;
      644     1072    1   DCL SSN$ PTR;
      645     1073        /*     Based storage */
      646     1074        %KNA$SSN (STCLASS="BASED(SSN$)");
      647     1157    1   DCL GHS$REG ENTRY(2) ALTRET;
      648     1158        /* Symref */
      649     1159        %GATE (FPTN=KNA_LNKSSN,STCLASS=SYMREF);
      650     1178
      651     1179    1      KNA$SSN.FLAGS.REGGED = '1'B;
      652     1180    1      KNA$SSN.REGRSN = EVENT;
      653     1181    1      CALL GHS$REG(EVENT,KNA$SSN.LDCT$)
      654     1182    2      WHENALTRETURN DO;
      655     1183                %LOCK (G=KNA_LNKSSN);
      656     1190    2           KNA$SSN.FLAGS.REGGED = '0'B;
      657     1191    2           ALTRETURN;
      658     1192    2           END;
      659     1193           %LOCK (G=KNA_LNKSSN);
      660     1200    1      KNA$SSN.FLAGS.REGGED = '0'B;
      661     1201    1   END KNA$REG_USER;
      662     1202        %EOD;

PL6.E3A0      #004=KNA$REG_USER File=KNA$SUBS.:E05TSI                            WED 07/30/97 01:00 Page:110
--  Include file information  --

   GH_GATE_M.:E05TOU  cannot be made into a system file and is referenced.
   KNA_MACRO_M.:E05TOU  is referenced.
   GU_LCP6_M.:E05TOU  is referenced.
      No diagnostics issued in procedure KNA$REG_USER.

   Procedure KNA$REG_USER requires 67 words for executable code.
   Procedure KNA$REG_USER requires 12 words of local(AUTO) storage.

PL6.E3A0      #004=KNA$REG_USER File=KNA$SUBS.:E05TSI                            WED 07/30/97 01:00 Page:111

 Object Unit name= KNA$REG_USER                               File name= KNA$SUBS.:E05TOU
 UTS= JUL 30 '97 01:00:42.72 WED                              Compiler= PL-6/E31         Sev=      00
 SharedLib= :SHARED_LCP6_SYSTEM                               Alt SharedLib=


    ****  Control sections  ****

 Sect   Type Bound  Init  Size HexSiz  Section name
    0   Proc  even  none    67     43  KNA$REG_USER
    1  RoData even  none     2      2  KNA$REG_USER

    ****  Entry defs  ****

                              Check   Calling
                             calling  sequence
  Sect HexLoc Primary Altret sequence   type   Parms  Name
     0      0   yes    yes     yes      Std        2  KNA$REG_USER

  ****  Entry refs  ****

         Check        Calling
        calling       sequence
Altret sequence SRef   type   Args  Name
 yes     yes           Std       2 GHS$REG
 yes     yes           Std       1 GHH$LOCK
                       nStd      0 X6A_AUTO_2
                       nStd      0 X6A_AALT
                       nStd      0 X6A_ARET

  ****  Data refs  ****

  Flags:  r = read only, s = secondary
Flgs Name                             Flgs Name                             Flgs Name
     KNA_LNKSSN                       r    G$ROS$
PL6.E3A0      #004=KNA$REG_USER File=KNA$SUBS.:E05TSI                            WED 07/30/97 01:00 Page:112


      615        1        /*T***********************************************************/
      616        2        /*T*                                                         */
      617        3        /*T* Copyright (c) Bull HN Information Systems Inc., 1997    */
      618        4        /*T*                                                         */
      619        5        /*T***********************************************************/
      620        6        /*F*
      621        7           NAME: KNA$REG_USER
      622        8           PURPOSE:
      623        9             To set some status in the APE context block before REGging the user.
      624       10             the user.
      625       11        */
      626       12        /*D*
      627       13           NAME: KNA$REG_USER
      628       14           CALL:
      629       15                  CALL KNA$REG_USER (EVENT,SSN$);
      630       16           PARAMETERS:
      631       17                  EVENT - Code describing the event that we are REGging for
      632       18                  SSN$  - Pointer to the concerned APE context
      633       19           DESCRIPTION:
      634       20                  Save EVENT as the reason for REGging and then call GHS$REG
      635       21             with the same EVENT.  Set status to say we are REGged.
      636       22        */
      637       23        %EJECT;
PL6.E3A0      #004=KNA$REG_USER File=KNA$SUBS.:E05TSI                            WED 07/30/97 01:00 Page:113
      638       24        KNA$REG_USER: PROC (EVENT,SSN$) ALTRET;

     24   0 000000  D380 0000 0000  xent KNA$REG_USER    LNJ,B5   X6A_AUTO_2
          0 000003       000C 0002                       DC       12,2

      639       25        %INCLUDE GU_LCP6_M;
      640      953        %INCLUDE KNA_MACRO_M;
      641     1029        %INCLUDE GH_GATE_M;
      642     1070        /*     Parameters */
      643     1071    1   DCL EVENT UBIN WORD;
      644     1072    1   DCL SSN$ PTR;
      645     1073        /*     Based storage */
      646     1074        %KNA$SSN (STCLASS="BASED(SSN$)");
      647     1157    1   DCL GHS$REG ENTRY(2) ALTRET;
      648     1158        /* Symref */
      649     1159        %GATE (FPTN=KNA_LNKSSN,STCLASS=SYMREF);
      650     1178
      651     1179    1      KNA$SSN.FLAGS.REGGED = '1'B;

   1179   0 000005  ECC7 0006                            LDB,B6   @SSN$,AUTO
          0 000007  DC86                                 LDB,B5   ,B6
          0 000008  8905                                 LBT,'8000'X       ,B5
          0 000009       8000

      652     1180    1      KNA$SSN.REGRSN = EVENT;

   1180   0 00000A  DC86                                 LDB,B5   ,B6
          0 00000B  CCC7 0004                            LDB,B4   @EVENT,AUTO
          0 00000D  E804                                 LDR,R6   ,B4
          0 00000E  EF45 0012                            STR,R6   18,B5

      653     1181    1      CALL GHS$REG(EVENT,KNA$SSN.LDCT$)

   1181   0 000010  DC86                                 LDB,B5   ,B6
          0 000011  BBC5 0004                            LAB,B3   4,B5
          0 000013  BFC7 000A                            STB,B3   @SSN$+4,AUTO
          0 000015  CFC7 0008                            STB,B4   @SSN$+2,AUTO
PL6.E3A0      #004=KNA$REG_USER File=KNA$SUBS.:E05TSI                            WED 07/30/97 01:00 Page:114
          0 000017  BBC7 0008                            LAB,B3   @SSN$+2,AUTO
          0 000019  CBF0 0200                            LAB,B4   512,IMO
          0 00001B  E380 0000 0000  xent                 LNJ,B6   GHS$REG
          0 00001E       0003                            DC       s:1188,PREL
          0 00001F  0F81 0012                            B        s:1198,PREL

      654     1182    2      WHENALTRETURN DO;

      655     1183                %LOCK (G=KNA_LNKSSN);

   1188   0 000021  BB80 0000 0000  01                   LAB,B3   0
          0 000024  CBF0 0100                            LAB,B4   256,IMO
          0 000026  E380 0000 0000  xent                 LNJ,B6   GHH$LOCK
          0 000029       0001                            DC       s:1190,PREL

      656     1190    2           KNA$SSN.FLAGS.REGGED = '0'B;

   1190   0 00002A  ECC7 0006                            LDB,B6   @SSN$,AUTO
          0 00002C  DC86                                 LDB,B5   ,B6
          0 00002D  8805                                 LBF,'8000'X       ,B5
          0 00002E       8000

      657     1191    2           ALTRETURN;

   1191   0 00002F  C380 0000 0000  xent                 LNJ,B4   X6A_AALT

      658     1192    2           END;
      659     1193           %LOCK (G=KNA_LNKSSN);

   1198   0 000032  BB80 0000 0000  01                   LAB,B3   0
          0 000035  CBF0 0100                            LAB,B4   256,IMO
          0 000037  E380 0000 0000  xent                 LNJ,B6   GHH$LOCK
          0 00003A       0001                            DC       s:1200,PREL

      660     1200    1      KNA$SSN.FLAGS.REGGED = '0'B;

   1200   0 00003B  ECC7 0006                            LDB,B6   @SSN$,AUTO
PL6.E3A0      #004=KNA$REG_USER File=KNA$SUBS.:E05TSI                            WED 07/30/97 01:00 Page:115
          0 00003D  DC86                                 LDB,B5   ,B6
          0 00003E  8805                                 LBF,'8000'X       ,B5
          0 00003F       8000

      661     1201    1   END KNA$REG_USER;

   1201   0 000040  C380 0000 0000  xent                 LNJ,B4   X6A_ARET
      662     1202        %EOD;

PL6.E3A0      #004=KNA$REG_USER File=KNA$SUBS.:E05TSI                            WED 07/30/97 01:00 Page:116
--  Include file information  --

   GH_GATE_M.:E05TOU  cannot be made into a system file and is referenced.
   KNA_MACRO_M.:E05TOU  is referenced.
   GU_LCP6_M.:E05TOU  is referenced.
      No diagnostics issued in procedure KNA$REG_USER.
PL6.E3A0      #004=KNA$REG_USER File=KNA$SUBS.:E05TSI                            WED 07/30/97 01:00 Page:117

 **** Variables and constants ****

  ****  Auto variables  ****

  ****  Scalars and arrays  ****
HexLoc.c.b A Datatyp(siz) R M Lvl/name                 HexLoc.c.b A Datatyp(siz) R M Lvl/name

     4-0-0/w PTR         r     1 @EVENT                     6-0-0/w PTR         r     1 @SSN$
    *0-0-0/w UBIN(16)    r     1 EVENT                     *0-0-0/w PTR         r     1 SSN$

  ****  SYMREF variables  ****

  ****  Scalars and arrays  ****
HexLoc.c.b A Datatyp(siz) R M Lvl/name                 HexLoc.c.b A Datatyp(siz) R M Lvl/name

     0-0-0/w STRC(48)    r     1 KNA_LNKSSN

  ****  BASED and DCB variables  ****

  ****  Scalars and arrays  ****
HexLoc.c.b A Datatyp(siz) R M Lvl/name                 HexLoc.c.b A Datatyp(siz) R M Lvl/name

     0-0-0/w STRC(400)   r     1 KNA$SSN


   Procedure KNA$REG_USER requires 67 words for executable code.
   Procedure KNA$REG_USER requires 12 words of local(AUTO) storage.
PL6.E3A0      #004=KNA$REG_USER File=KNA$SUBS.:E05TSI                            WED 07/30/97 01:00 Page:118
          *** CROSS REFERENCE LISTING ***
**     DENOTES     IDENTIFIER DEFINITION
<<                 IDENTIFIER'S VALUE SET
>>                 IDENTIFIER'S VALUE USED
<>                 IDENTIFIER SET AND/OR USED
--                 IDENTIFIER REFERENCED
PL6.E3A0      #004=KNA$REG_USER File=KNA$SUBS.:E05TSI                            WED 07/30/97 01:00 Page:119
          MINI XREF LISTING

EVENT
      1071**DCL        24--PROC     1180>>ASSIGN   1181<>CALL
GHH$LOCK
      1069**DCL-ENT  1188--CALL     1198--CALL
GHS$REG
      1157**DCL-ENT  1181--CALL
KNA$SSN.FLAGS.REGGED
      1091**DCL      1179<<ASSIGN   1190<<ASSIGN   1200<<ASSIGN
KNA$SSN.IOPRD$
      1149**DCL      1149--REDEF
KNA$SSN.LDCT$
      1146**DCL      1181<>CALL
KNA$SSN.REGRSN
      1154**DCL      1180<<ASSIGN
KNA$SSN.RLCID.NODE#
      1153**DCL      1153--REDEF
KNA_LNKSSN
      1171**DCL      1188<>CALL     1198<>CALL
SSN$
      1072**DCL        24--PROC     1087--IMP-PTR  1179>>ASSIGN   1180>>ASSIGN   1181>>CALL     1190>>ASSIGN
      1200>>ASSIGN

PL6.E3A0      #005=KNA$DECODE_VDO File=KNA$SUBS.:E05TSI                          WED 07/30/97 01:00 Page:120
      663        1        /*T***********************************************************/
      664        2        /*T*                                                         */
      665        3        /*T* Copyright (c) Bull HN Information Systems Inc., 1997    */
      666        4        /*T*                                                         */
      667        5        /*T***********************************************************/
      668        6
      669        7        KNA$DECODE_VDO: PROC (K$RWPARM) ALTRET;
      670        8
      671        9        /*F*
      672       10             NAME: KNA$DECODE_VDO
      673       11             PURPOSE:
      674       12                  This routine decodes a read response and merges the information
      675       13                  into K$RWPARM.
      676       14             DESCRIPTION:
      677       15                  None.
      678       16        */
      679       17
      680       18        %INCLUDE G_LCP6_E;
      681      276        %INCLUDE KV$VDO;
      682     1291        %INCLUDE K$RWPARM;
      683     1677        %INCLUDE GU_LCP6_M;
      684     2605        %K$RWPARM (NAME=K$RWPARM);
      685     2921        %KV_VDO_E;
      686     2957        %KV_VDOVLP_E;
      687     2971        %KV_VDOMRKTYP_E;
      688     2977        %KV_DATMOD_E;
      689     2983        %KV_DATCTRCHRTYP_E;
      690     2989
      691     2990        /* Table size of all vdos */
      692     2991        %KV_VDOBYTSIZ (NAME=KNA_VDOBYTSIZ,STCLASS=SYMREF);
      693     3011        %KV$VDO (STCLASS="BASED(K$RWPARM.UHDR$)");
      694     3038        %KV$VDO_DAT (STCLASS="BASED(K$RWPARM.UHDR$)");
      695     3083        %KV$VDOVLP;
      696     3119        %KV$VDOVLP_ACTPOS (STCLASS="BASED(MSG$)");
      697     3170        %KV$VDOVLP_CG_MSGID (STCLASS="BASED(MSG$)");
      698     3222        %KV$VDOVLP_CG_MSGTYP (STCLASS="BASED(MSG$)");
      699     3274        %KV$VDOVLP_CG_STA (STCLASS="BASED(MSG$)");
PL6.E3A0      #005=KNA$DECODE_VDO File=KNA$SUBS.:E05TSI                          WED 07/30/97 01:00 Page:121
      700     3325        %KV$VDOVLP_DAT1 (STCLASS="BASED(MSG$)",LAST=",");
      701     3375    1         2 MSG CHAR(K$RWPARM.MSGSZ);
      702     3376        %KV$VDOVLP_DAT2 (STCLASS="BASED(MSG$)",LAST=",");
      703     3426    1         2 MSG CHAR(K$RWPARM.MSGSZ);
      704     3427        %KV$VDOVLP_ERR (STCLASS="BASED(MSG$)");
      705     3524        %KV$VDOVLP_FLDID (STCLASS="BASED(MSG$)");
      706     3575        %KV$VDOVLP_KEY (STCLASS="BASED(MSG$)",LAST=",");
      707     3625    1         2 KEY CHAR(KV$VDOVLP_KEY.BYTSIZ);
      708     3626        %KV$VDOVLP_MRK (STCLASS="BASED(MSG$)");
      709     3679
      710     3680
      711     3681    1   DCL MSG$ PTR;
      712     3682    1   DCL TEMPU1 UBIN;
      713     3683    1   DCL TEMPS1 REDEF TEMPU1 SBIN;
      714     3684    1   DCL 1 TEMPU1S REDEF TEMPU1,
      715     3685    1         2 * BIT(15) UNAL ,
      716     3686    1         2 LOBIT BIT(1) UNAL;
      717     3687
      718     3688    1   DCL B$HWORD UBIN(16) BASED CALIGNED;
      719     3689    1   DCL TMP_SZ UBIN;
      720     3690        %EJECT;
PL6.E3A0      #005=KNA$DECODE_VDO File=KNA$SUBS.:E05TSI                          WED 07/30/97 01:00 Page:122
      721     3691
      722     3692    1      TMP_SZ = KNA_VDOBYTSIZ(KV$VDO_DAT.FNC);
      723     3693    1      IF KV$VDO.FNC = 0 OR KV$VDO.FNC > %KV_VDO_FNC_HI OR K$RWPARM.UHDRSZ < TMP_SZ
      724     3694    1      THEN
      725     3695    1           GOTO L1 ;
      726     3696
      727     3697    1      K$RWPARM.STR = KV$VDO.STR;
      728     3698
      729     3699        /*
      730     3700                DO CASE (KV$VDO.FNC);
      731     3701                 CASE (%KV_VDO_FNC_DAT);
      732     3702        */
      733     3703    1      IF KV$VDO.FNC = %KV_VDO_FNC_DAT
      734     3704    2      THEN DO;
      735     3705
      736     3706    3           IF K$RWPARM.READMLT THEN DO;
      737     3707    3                K$RWPARM.MSGSZ = K$RWPARM.UHDRSZ;
      738     3708    3                K$RWPARM.MSG$ = K$RWPARM.UHDR$;
      739     3709    3                RETURN;
      740     3710    3                END;
      741     3711    2           IF KV$VDO_DAT.DATCTRCHRTYP = %KV_DATCTRCHRTYP_ACT
      742     3712    2           THEN K$RWPARM.DVE.EOMCHAR = KV$VDO_DAT.DATCTRCHR;
      743     3713    3           ELSE DO;
      744     3714    3                TEMPU1 = KV$VDO_DAT.DATCTRCHRTYP ;
      745     3715    3                K$RWPARM.EOM_EOR = '1'B;
      746     3716    3                IF TEMPU1 = %KV_DATCTRCHRTYP_VFC
      747     3717    4                THEN DO;
      748     3718    4                     K$RWPARM.DVE.DVBYTE.VFC = '1'B;
      749     3719    4                     K$RWPARM.DVE.VFC = KV$VDO_DAT.DATCTRCHR;
      750     3720    4                     END;
      751     3721    3                END;
      752     3722    2           IF KV$VDO_DAT.DATMOD = %KV_DATMOD_TRN
      753     3723    2           THEN K$RWPARM.DVE.DVBYTE.TRANS = '1'B;
      754     3724
      755     3725    2           END;                            /* End cases                          */
      756     3726
      757     3727    1      TEMPU1 = 0;
PL6.E3A0      #005=KNA$DECODE_VDO File=KNA$SUBS.:E05TSI                          WED 07/30/97 01:00 Page:123
      758     3728    1      IF KV$VDO_DAT.VLP
      759     3729    2      THEN DO;
      760     3730
      761     3731    2   L2:
      762     3732    2           TEMPU1 = 0;
      763     3733    2           IF (TMP_SZ < K$RWPARM.UHDRSZ)
      764     3734    3           THEN DO;
      765     3735
      766     3736
      767     3737    3                MSG$ = PINCRW(K$RWPARM.UHDR$,TMP_SZ/2) ;
      768     3738
      769     3739    4                DO CASE (MSG$->KV$VDOVLP.TYP);
      770     3740
      771     3741    4                 CASE (%KV_VDOVLP_TYP_ACTPOS);
      772     3742    4                   K$RWPARM.ACTPOS = KV$VDOVLP_ACTPOS.ACTPOS;
      773     3743    4                   TMP_SZ = TMP_SZ + SIZEC(KV$VDOVLP_ACTPOS);
      774     3744    4                   IF MSG$->KV$VDOVLP.LST = '0'B
      775     3745    4                   THEN GOTO L2;
      776     3746    4                   GOTO L4;
      777     3747
      778     3748    4                 CASE (%KV_VDOVLP_TYP_CG_MSGID);
      779     3749    4                   K$RWPARM.MSGIDXT = KV$VDOVLP_CG_MSGID.CG_MSGIDXT;
      780     3750    4                   K$RWPARM.MSGID=KV$VDOVLP_CG_MSGID.CG_MSGID;
      781     3751    4                   TMP_SZ = TMP_SZ + SIZEC(KV$VDOVLP_CG_MSGID) ;
      782     3752    4                   IF MSG$->KV$VDOVLP.LST = '0'B
      783     3753    4                   THEN GOTO L2;
      784     3754    4                   GOTO L4;
      785     3755
      786     3756    4                 CASE (%KV_VDOVLP_TYP_CG_MSGTYP);
      787     3757    4                   K$RWPARM.MSGTYP = KV$VDOVLP_CG_MSGTYP.CG_MSGTYP;
      788     3758    4                   TMP_SZ = TMP_SZ + SIZEC(KV$VDOVLP_CG_MSGTYP) ;
      789     3759    4                   IF MSG$->KV$VDOVLP.LST = '0'B
      790     3760    4                   THEN GOTO L2;
      791     3761    4                   GOTO L4;
      792     3762
      793     3763    4                 CASE (%KV_VDOVLP_TYP_CG_STA);
      794     3764    4                   K$RWPARM.STATION = KV$VDOVLP_CG_STA.CG_STA;
PL6.E3A0      #005=KNA$DECODE_VDO File=KNA$SUBS.:E05TSI                          WED 07/30/97 01:00 Page:124
      795     3765    4                   TMP_SZ = TMP_SZ + SIZEC(KV$VDOVLP_CG_STA) ;
      796     3766    4                   IF MSG$->KV$VDOVLP.LST = '0'B
      797     3767    4                   THEN GOTO L2;
      798     3768    4                   GOTO L4;
      799     3769
      800     3770    4                 CASE (%KV_VDOVLP_TYP_DAT1);
      801     3771    4                   K$RWPARM.MSG$ = ADDR(KV$VDOVLP_DAT1.MSG);
      802     3772    4                   K$RWPARM.MSGSZ = KV$VDOVLP_DAT1.BYTSIZ;
      803     3773    4                   TEMPU1 = LENGTHC(KV$VDOVLP_DAT1) ;
      804     3774
      805     3775    4                 CASE (%KV_VDOVLP_TYP_DAT2);
      806     3776    4                   K$RWPARM.MSGSZ = KV$VDOVLP_DAT2.BYTSIZ;
      807     3777    4                   K$RWPARM.MSG$ = ADDR(KV$VDOVLP_DAT2.MSG);
      808     3778    4                   TEMPU1 = LENGTHC(KV$VDOVLP_DAT2) ;
      809     3779
      810     3780    4                 CASE (%KV_VDOVLP_TYP_ERR);
      811     3781    4                   K$RWPARM.MSG_ERRCODE=KV$VDOVLP_ERR.ERRCODE;
      812     3782    4                   TMP_SZ = TMP_SZ + SIZEC(KV$VDOVLP_ERR) ;
      813     3783    4                   IF MSG$->KV$VDOVLP.LST = '0'B
      814     3784    4                   THEN GOTO L2;
      815     3785    4                   GOTO L4;
      816     3786
      817     3787
      818     3788    4                 CASE (%KV_VDOVLP_TYP_FLDID);
      819     3789    4                   K$RWPARM.FLDID = KV$VDOVLP_FLDID.FLDID;
      820     3790    4                   IF K$RWPARM.KEYTYPE = %G_KEYTYPE_FLDID#
      821     3791    4                   THEN
      822     3792    5                   DO ;
      823     3793    5                        K$RWPARM.KEYSZ = KV$VDOVLP_FLDID.BYTSIZ;
      824     3794    5                        K$RWPARM.KEY$ = ADDR(KV$VDOVLP_FLDID.FLDID);
      825     3795    5                        END;
      826     3796    4                   TMP_SZ = TMP_SZ + SIZEC(KV$VDOVLP_FLDID) ;
      827     3797    4                   IF MSG$->KV$VDOVLP.LST = '0'B
      828     3798    4                   THEN GOTO L2;
      829     3799    4                   GOTO L4;
      830     3800
      831     3801
PL6.E3A0      #005=KNA$DECODE_VDO File=KNA$SUBS.:E05TSI                          WED 07/30/97 01:00 Page:125
      832     3802    4                 CASE (%KV_VDOVLP_TYP_KEY);
      833     3803    4                   IF K$RWPARM.KEYTYPE = %G_KEYTYPE_COORD#
      834     3804    4                   THEN
      835     3805    5                   DO ;
      836     3806    5                        K$RWPARM.KEYSZ = KV$VDOVLP_KEY.BYTSIZ;
      837     3807    5                        K$RWPARM.KEY$ = ADDR(KV$VDOVLP_KEY.KEY);
      838     3808    5                        END;
      839     3809    4                   TEMPU1 = LENGTHC(KV$VDOVLP_KEY) ;
      840     3810
      841     3811    4                 CASE (%KV_VDOVLP_TYP_MRK);
      842     3812    4                   K$RWPARM.MRKTYP = KV$VDOVLP_MRK.MRKTYP;
      843     3813    4                   IF K$RWPARM.MRKTYP = %KV_VDOMRKTYP_LSTRCRID
      844     3814    4                   THEN
      845     3815    5                   DO ;
      846     3816    5                        K$RWPARM.BLKREC.BLKU#=ADDR(KV$VDOVLP_MRK.ID)->B$HWORD;
      847     3817    5                        K$RWPARM.BLKREC.RECU#=PINCRC(ADDR(KV$VDOVLP_MRK.ID),2)->B$HWORD
              3817                                 ;
      848     3818    5                        END;
      849     3819    4                   ELSE
      850     3820    4                        K$RWPARM.MARKER = KV$VDOVLP_MRK.ID;
      851     3821    4                   TMP_SZ = TMP_SZ + SIZEC(KV$VDOVLP_MRK) ;
      852     3822    4                   IF MSG$->KV$VDOVLP.LST = '0'B
      853     3823    4                   THEN GOTO L2;
      854     3824    4                   GOTO L4;
      855     3825
      856     3826    4                 CASE (ELSE);
      857     3827    4                   GOTO L1 ;
      858     3828
      859     3829    4                   END;                    /* End cases                          */
      860     3830
      861     3831    3                IF TEMPU1S.LOBIT
      862     3832    3                THEN TMP_SZ = TMP_SZ + 1;
      863     3833
      864     3834    3                TMP_SZ = TMP_SZ + TEMPU1 ;
      865     3835
      866     3836    3                IF MSG$->KV$VDOVLP.LST = '0'B
      867     3837    3                THEN GOTO L2;
PL6.E3A0      #005=KNA$DECODE_VDO File=KNA$SUBS.:E05TSI                          WED 07/30/97 01:00 Page:126
      868     3838
      869     3839    3                END;
      870     3840
      871     3841    2           END ;
      872     3842
      873     3843
      874     3844    1   L4:
      875     3845    1      IF TMP_SZ = K$RWPARM.UHDRSZ OR TMP_SZ = K$RWPARM.UHDRSZ + MOD(TEMPU1,2)
      876     3846    1      THEN RETURN;
      877     3847
      878     3848    1   L1:
      879     3849    1      CALL PROTOCOL_ERR;
      880     3850    1      ALTRETURN;
      881     3851
      882     3852
      883     3853    1   PROTOCOL_ERR: PROC;
      884     3854
      885     3855                  /*N* Error log */
      886     3856    2      RETURN;
      887     3857
      888     3858
      889     3859    2   END PROTOCOL_ERR;
      890     3860
      891     3861
      892     3862    1   END KNA$DECODE_VDO;
      893     3863        %EOD;

PL6.E3A0      #005=KNA$DECODE_VDO File=KNA$SUBS.:E05TSI                          WED 07/30/97 01:00 Page:127
--  Include file information  --

   GU_LCP6_M.:E05TOU  is referenced.
   K$RWPARM.:E05TOU  is referenced.
   KV$VDO.:E05TOU  is referenced.
   G_LCP6_E.:E05TOU  is referenced.
      No diagnostics issued in procedure KNA$DECODE_VDO.

   Procedure KNA$DECODE_VDO requires 382 words for executable code.
   Procedure KNA$DECODE_VDO requires 14 words of local(AUTO) storage.

PL6.E3A0      #005=KNA$DECODE_VDO File=KNA$SUBS.:E05TSI                          WED 07/30/97 01:00 Page:128

 Object Unit name= KNA$DECODE_VDO                             File name= KNA$SUBS.:E05TOU
 UTS= JUL 30 '97 01:00:58.16 WED                              Compiler= PL-6/E31         Sev=      00
 SharedLib= :SHARED_LCP6_SYSTEM                               Alt SharedLib=


    ****  Control sections  ****

 Sect   Type Bound  Init  Size HexSiz  Section name
    0   Proc  even  none   382    17E  KNA$DECODE_VDO

    ****  Entry defs  ****

                              Check   Calling
                             calling  sequence
  Sect HexLoc Primary Altret sequence   type   Parms  Name
     0      0   yes    yes     yes      Std        1  KNA$DECODE_VDO

  ****  Entry refs  ****

         Check        Calling
        calling       sequence
Altret sequence SRef   type   Args  Name
                       nStd      0 X6A_AUTO_1
                       nStd      0 X6A_ARET
                       nStd      0 X6A_AALT

  ****  Data refs  ****

  Flags:  r = read only, s = secondary
Flgs Name                             Flgs Name                             Flgs Name
     KNA_VDOBYTSIZ                    r    G$ROS$
PL6.E3A0      #005=KNA$DECODE_VDO File=KNA$SUBS.:E05TSI                          WED 07/30/97 01:00 Page:129


      663        1        /*T***********************************************************/
      664        2        /*T*                                                         */
      665        3        /*T* Copyright (c) Bull HN Information Systems Inc., 1997    */
      666        4        /*T*                                                         */
      667        5        /*T***********************************************************/
      668        6
      669        7        KNA$DECODE_VDO: PROC (K$RWPARM) ALTRET;

      7   0 000000  D380 0000 0000  xent KNA$DECODE_VDO  LNJ,B5   X6A_AUTO_1
          0 000003       000E 0001                       DC       14,1

      670        8
      671        9        /*F*
      672       10             NAME: KNA$DECODE_VDO
      673       11             PURPOSE:
      674       12                  This routine decodes a read response and merges the information
      675       13                  into K$RWPARM.
      676       14             DESCRIPTION:
      677       15                  None.
      678       16        */
      679       17
      680       18        %INCLUDE G_LCP6_E;
      681      276        %INCLUDE KV$VDO;
      682     1291        %INCLUDE K$RWPARM;
      683     1677        %INCLUDE GU_LCP6_M;
      684     2605        %K$RWPARM (NAME=K$RWPARM);
      685     2921        %KV_VDO_E;
      686     2957        %KV_VDOVLP_E;
      687     2971        %KV_VDOMRKTYP_E;
      688     2977        %KV_DATMOD_E;
      689     2983        %KV_DATCTRCHRTYP_E;
      690     2989
      691     2990        /* Table size of all vdos */
      692     2991        %KV_VDOBYTSIZ (NAME=KNA_VDOBYTSIZ,STCLASS=SYMREF);
      693     3011        %KV$VDO (STCLASS="BASED(K$RWPARM.UHDR$)");
      694     3038        %KV$VDO_DAT (STCLASS="BASED(K$RWPARM.UHDR$)");
PL6.E3A0      #005=KNA$DECODE_VDO File=KNA$SUBS.:E05TSI                          WED 07/30/97 01:00 Page:130
      695     3083        %KV$VDOVLP;
      696     3119        %KV$VDOVLP_ACTPOS (STCLASS="BASED(MSG$)");
      697     3170        %KV$VDOVLP_CG_MSGID (STCLASS="BASED(MSG$)");
      698     3222        %KV$VDOVLP_CG_MSGTYP (STCLASS="BASED(MSG$)");
      699     3274        %KV$VDOVLP_CG_STA (STCLASS="BASED(MSG$)");
      700     3325        %KV$VDOVLP_DAT1 (STCLASS="BASED(MSG$)",LAST=",");
      701     3375    1         2 MSG CHAR(K$RWPARM.MSGSZ);
      702     3376        %KV$VDOVLP_DAT2 (STCLASS="BASED(MSG$)",LAST=",");
      703     3426    1         2 MSG CHAR(K$RWPARM.MSGSZ);
      704     3427        %KV$VDOVLP_ERR (STCLASS="BASED(MSG$)");
      705     3524        %KV$VDOVLP_FLDID (STCLASS="BASED(MSG$)");
      706     3575        %KV$VDOVLP_KEY (STCLASS="BASED(MSG$)",LAST=",");
      707     3625    1         2 KEY CHAR(KV$VDOVLP_KEY.BYTSIZ);
      708     3626        %KV$VDOVLP_MRK (STCLASS="BASED(MSG$)");
      709     3679
      710     3680
      711     3681    1   DCL MSG$ PTR;
      712     3682    1   DCL TEMPU1 UBIN;
      713     3683    1   DCL TEMPS1 REDEF TEMPU1 SBIN;
      714     3684    1   DCL 1 TEMPU1S REDEF TEMPU1,
      715     3685    1         2 * BIT(15) UNAL ,
      716     3686    1         2 LOBIT BIT(1) UNAL;
      717     3687
      718     3688    1   DCL B$HWORD UBIN(16) BASED CALIGNED;
      719     3689    1   DCL TMP_SZ UBIN;
      720     3690        %EJECT;
PL6.E3A0      #005=KNA$DECODE_VDO File=KNA$SUBS.:E05TSI                          WED 07/30/97 01:00 Page:131
      721     3691
      722     3692    1      TMP_SZ = KNA_VDOBYTSIZ(KV$VDO_DAT.FNC);

   3692   0 000005  ECC7 0004                            LDB,B6   @K$RWPARM,AUTO
          0 000007  DCC6 0017                            LDB,B5   23,B6
          0 000009  B285                                 LLH,R3   ,B5
          0 00000A  E2B0 0000 0000  xsym                 LLH,R6   KNA_VDOBYTSIZ,R3
          0 00000D  EF47 0009                            STR,R6   TMP_SZ,AUTO

      723     3693    1      IF KV$VDO.FNC = 0 OR KV$VDO.FNC > %KV_VDO_FNC_HI OR K$RWPARM.UHDRSZ < TMP_SZ

   3693   0 00000F  3901 0162                            BEZ,R3   s:3849,PREL
          0 000011  3D22                                 CMV,R3   34
          0 000012  0301 015F                            BG       s:3849,PREL
          0 000014  E946 0019                            CMR,R6   25,B6
          0 000016  0301 015B                            BG       s:3849,PREL

      724     3694    1      THEN
      725     3695    1           GOTO L1 ;
      726     3696
      727     3697    1      K$RWPARM.STR = KV$VDO.STR;

   3697   0 000018  D805                                 LDR,R5   ,B5
          0 000019  D570 007F                            AND,R5   127,IMO
          0 00001B  DAC6 001D                            SRM,R5,'00FF'X    29,B6
          0 00001D       00FF

      728     3698
      729     3699        /*
      730     3700                DO CASE (KV$VDO.FNC);
      731     3701                 CASE (%KV_VDO_FNC_DAT);
      732     3702        */
      733     3703    1      IF KV$VDO.FNC = %KV_VDO_FNC_DAT

   3703   0 00001E  D285                                 LLH,R5   ,B5
          0 00001F  5D05                                 CMV,R5   5
          0 000020  0981 0038                            BNE      s:3727,PREL
PL6.E3A0      #005=KNA$DECODE_VDO File=KNA$SUBS.:E05TSI                          WED 07/30/97 01:00 Page:132

      734     3704    2      THEN DO;

      735     3705
      736     3706    3           IF K$RWPARM.READMLT THEN DO;

   3706   0 000022  82C6 0010                            LB,'4000'X        16,B6
   3706   0 000024       4000
          0 000025  0581 0009                            BBF      s:3711,PREL

      737     3707    3                K$RWPARM.MSGSZ = K$RWPARM.UHDRSZ;

   3707   0 000027  C846 0019                            LDR,R4   25,B6
          0 000029  CF46 0002                            STR,R4   2,B6

      738     3708    3                K$RWPARM.MSG$ = K$RWPARM.UHDR$;

   3708   0 00002B  DF86                                 STB,B5   ,B6

      739     3709    3                RETURN;

   3709   0 00002C  C380 0000 0000  xent                 LNJ,B4   X6A_ARET

      740     3710    3                END;
      741     3711    2           IF KV$VDO_DAT.DATCTRCHRTYP = %KV_DATCTRCHRTYP_ACT

   3711   0 00002F  C845 0001                            LDR,R4   1,B5
          0 000031  404A                                 SOR,R4   10
          0 000032  C570 0003                            AND,R4   3,IMO
          0 000034  4D01                                 CMV,R4   1
          0 000035  0981 0008                            BNE      s:3714,PREL

      742     3712    2           THEN K$RWPARM.DVE.EOMCHAR = KV$VDO_DAT.DATCTRCHR;

   3712   0 000037  B845 0001                            LDR,R3   1,B5
          0 000039  BAC6 000F                            SRM,R3,'00FF'X    15,B6
          0 00003B       00FF
PL6.E3A0      #005=KNA$DECODE_VDO File=KNA$SUBS.:E05TSI                          WED 07/30/97 01:00 Page:133
          0 00003C  0F81 0011                            B        s:3722,PREL

      743     3713    3           ELSE DO;

      744     3714    3                TEMPU1 = KV$VDO_DAT.DATCTRCHRTYP ;

   3714   0 00003E  CF47 0008                            STR,R4   TEMPU1,AUTO

      745     3715    3                K$RWPARM.EOM_EOR = '1'B;

   3715   0 000040  8946 0010                            LBT,'2000'X       16,B6
   3715   0 000042       2000

      746     3716    3                IF TEMPU1 = %KV_DATCTRCHRTYP_VFC

   3716   0 000043  4D02                                 CMV,R4   2
          0 000044  0981 0009                            BNE      s:3722,PREL

      747     3717    4                THEN DO;

      748     3718    4                     K$RWPARM.DVE.DVBYTE.VFC = '1'B;

   3718   0 000046  8946 000F                            LBT,'4000'X       15,B6
   3718   0 000048       4000

      749     3719    4                     K$RWPARM.DVE.VFC = KV$VDO_DAT.DATCTRCHR;

   3719   0 000049  D845 0001                            LDR,R5   1,B5
          0 00004B  DAC6 000F                            SRM,R5,'00FF'X    15,B6
          0 00004D       00FF

      750     3720    4                     END;

      751     3721    3                END;

      752     3722    2           IF KV$VDO_DAT.DATMOD = %KV_DATMOD_TRN

PL6.E3A0      #005=KNA$DECODE_VDO File=KNA$SUBS.:E05TSI                          WED 07/30/97 01:00 Page:134
   3722   0 00004E  D845 0001                            LDR,R5   1,B5
          0 000050  5048                                 SOR,R5   8
          0 000051  D570 0003                            AND,R5   3,IMO
          0 000053  5D01                                 CMV,R5   1
          0 000054  0981 0004                            BNE      s:3727,PREL

      753     3723    2           THEN K$RWPARM.DVE.DVBYTE.TRANS = '1'B;

   3723   0 000056  8946 000F                            LBT,'1000'X       15,B6
   3723   0 000058       1000

      754     3724
      755     3725    2           END;                            /* End cases                          */

      756     3726
      757     3727    1      TEMPU1 = 0;

   3727   0 000059  8747 0008                            CL       TEMPU1,AUTO

      758     3728    1      IF KV$VDO_DAT.VLP

   3728   0 00005B  8285                                 LB,'0080'X        ,B5
   3728   0 00005C       0080
          0 00005D  0581 0100                            BBF      s:3841,PREL

      759     3729    2      THEN DO;

      760     3730
      761     3731    2   L2:
      762     3732    2           TEMPU1 = 0;

   3732   0 00005F  8747 0008            L2              CL       TEMPU1,AUTO

      763     3733    2           IF (TMP_SZ < K$RWPARM.UHDRSZ)

   3733   0 000061  ECC7 0004                            LDB,B6   @K$RWPARM,AUTO
          0 000063  E847 0009                            LDR,R6   TMP_SZ,AUTO
PL6.E3A0      #005=KNA$DECODE_VDO File=KNA$SUBS.:E05TSI                          WED 07/30/97 01:00 Page:135
          0 000065  E946 0019                            CMR,R6   25,B6
          0 000067  0281 00F6                            BGE      s:3841,PREL

      764     3734    3           THEN DO;

      765     3735
      766     3736
      767     3737    3                MSG$ = PINCRW(K$RWPARM.UHDR$,TMP_SZ/2) ;

   3737   0 000069  6041                                 SOR,R6   1
          0 00006A  DCC6 0017                            LDB,B5   23,B6
          0 00006C  DFC7 000C                            STB,B5   TMP_SZ+3,AUTO
          0 00006E  F856                                 LDR,R7   R6
          0 00006F  6C00                                 LDV,R6   0
          0 000070  8447 000C                            AID      TMP_SZ+3,AUTO
          0 000072  8D47 0006                            SDI      MSG$,AUTO

      768     3738
      769     3739    4                DO CASE (MSG$->KV$VDOVLP.TYP);

   3739   0 000074  CCC7 0006                            LDB,B4   MSG$,AUTO
          0 000076  B804                                 LDR,R3   ,B4
          0 000077  3048                                 SOR,R3   8
          0 000078  B570 007F                            AND,R3   127,IMO
          0 00007A  3D0C                                 CMV,R3   12
          0 00007B  0281 00D0                            BGE      s:3827,PREL
          0 00007D  A830 0000 0083  00                   LDR,R2   s:3739+15,R3
          0 000080  83A0 0000 008F  00                   JMP      s:3742,R2
          0 000083       00BD                            DC       s:3827,PREL
          0 000084       000D                            DC       s:3749,PREL
          0 000085       001F                            DC       s:3757,PREL
          0 000086       0031                            DC       s:3764,PREL
          0 000087       0043                            DC       s:3771,PREL
          0 000088       0050                            DC       s:3776,PREL
          0 000089       005C                            DC       s:3781,PREL
          0 00008A       006A                            DC       s:3789,PREL
          0 00008B       0085                            DC       s:3803,PREL
PL6.E3A0      #005=KNA$DECODE_VDO File=KNA$SUBS.:E05TSI                          WED 07/30/97 01:00 Page:136
          0 00008C       009A                            DC       s:3812,PREL
          0 00008D       00BD                            DC       s:3827,PREL
          0 00008E       0000                            DC       s:3742,PREL

      770     3740
      771     3741    4                 CASE (%KV_VDOVLP_TYP_ACTPOS);

      772     3742    4                   K$RWPARM.ACTPOS = KV$VDOVLP_ACTPOS.ACTPOS;

   3742   0 00008F  D844 0001                            LDR,R5   1,B4
          0 000091  DF46 0027                            STR,R5   39,B6

      773     3743    4                   TMP_SZ = TMP_SZ + SIZEC(KV$VDOVLP_ACTPOS);

   3743   0 000093  C847 0009                            LDR,R4   TMP_SZ,AUTO
          0 000095  4E04                                 ADV,R4   4
          0 000096  CF47 0009                            STR,R4   TMP_SZ,AUTO

      774     3744    4                   IF MSG$->KV$VDOVLP.LST = '0'B

   3744   0 000098  8984                                 CMZ      ,B4
          0 000099  08C6                                 BAGE     s:3729,SPREL

      775     3745    4                   THEN GOTO L2;
      776     3746    4                   GOTO L4;

   3746   0 00009A  0F81 00C3                            B        s:3841,PREL

      777     3747
      778     3748    4                 CASE (%KV_VDOVLP_TYP_CG_MSGID);

      779     3749    4                   K$RWPARM.MSGIDXT = KV$VDOVLP_CG_MSGID.CG_MSGIDXT;

   3749   0 00009C  8CC4 0004                            LDI      4,B4
          0 00009E  8D46 0013                            SDI      19,B6

      780     3750    4                   K$RWPARM.MSGID=KV$VDOVLP_CG_MSGID.CG_MSGID;
PL6.E3A0      #005=KNA$DECODE_VDO File=KNA$SUBS.:E05TSI                          WED 07/30/97 01:00 Page:137

   3750   0 0000A0  8CC4 0002                            LDI      2,B4
          0 0000A2  8D46 0011                            SDI      17,B6

      781     3751    4                   TMP_SZ = TMP_SZ + SIZEC(KV$VDOVLP_CG_MSGID) ;

   3751   0 0000A4  D847 0009                            LDR,R5   TMP_SZ,AUTO
          0 0000A6  5E0C                                 ADV,R5   12
          0 0000A7  DF47 0009                            STR,R5   TMP_SZ,AUTO

      782     3752    4                   IF MSG$->KV$VDOVLP.LST = '0'B

   3752   0 0000A9  8984                                 CMZ      ,B4
          0 0000AA  0881 FFB4                            BAGE     s:3729,PREL

      783     3753    4                   THEN GOTO L2;
      784     3754    4                   GOTO L4;

   3754   0 0000AC  0F81 00B1                            B        s:3841,PREL

      785     3755
      786     3756    4                 CASE (%KV_VDOVLP_TYP_CG_MSGTYP);

      787     3757    4                   K$RWPARM.MSGTYP = KV$VDOVLP_CG_MSGTYP.CG_MSGTYP;

   3757   0 0000AE  AB84                                 LAB,B2   ,B4
          0 0000AF  2C04                                 LDV,R2   4
          0 0000B0  6C08                                 LDV,R6   8
          0 0000B1  BB86                                 LAB,B3   ,B6
          0 0000B2  3C0E                                 LDV,R3   14
          0 0000B3  0008                                 MMM

      788     3758    4                   TMP_SZ = TMP_SZ + SIZEC(KV$VDOVLP_CG_MSGTYP) ;

   3758   0 0000B4  E847 0009                            LDR,R6   TMP_SZ,AUTO
          0 0000B6  6E0C                                 ADV,R6   12
          0 0000B7  EF47 0009                            STR,R6   TMP_SZ,AUTO
PL6.E3A0      #005=KNA$DECODE_VDO File=KNA$SUBS.:E05TSI                          WED 07/30/97 01:00 Page:138

      789     3759    4                   IF MSG$->KV$VDOVLP.LST = '0'B

   3759   0 0000B9  DCC7 0006                            LDB,B5   MSG$,AUTO
          0 0000BB  8985                                 CMZ      ,B5
          0 0000BC  0881 FFA2                            BAGE     s:3729,PREL

      790     3760    4                   THEN GOTO L2;
      791     3761    4                   GOTO L4;

   3761   0 0000BE  0F81 009F                            B        s:3841,PREL

      792     3762
      793     3763    4                 CASE (%KV_VDOVLP_TYP_CG_STA);

      794     3764    4                   K$RWPARM.STATION = KV$VDOVLP_CG_STA.CG_STA;

   3764   0 0000C0  AB84                                 LAB,B2   ,B4
          0 0000C1  2C04                                 LDV,R2   4
          0 0000C2  6C08                                 LDV,R6   8
          0 0000C3  BB86                                 LAB,B3   ,B6
          0 0000C4  3C06                                 LDV,R3   6
          0 0000C5  0008                                 MMM

      795     3765    4                   TMP_SZ = TMP_SZ + SIZEC(KV$VDOVLP_CG_STA) ;

   3765   0 0000C6  E847 0009                            LDR,R6   TMP_SZ,AUTO
          0 0000C8  6E0C                                 ADV,R6   12
          0 0000C9  EF47 0009                            STR,R6   TMP_SZ,AUTO

      796     3766    4                   IF MSG$->KV$VDOVLP.LST = '0'B

   3766   0 0000CB  DCC7 0006                            LDB,B5   MSG$,AUTO
          0 0000CD  8985                                 CMZ      ,B5
          0 0000CE  0881 FF90                            BAGE     s:3729,PREL

      797     3767    4                   THEN GOTO L2;
PL6.E3A0      #005=KNA$DECODE_VDO File=KNA$SUBS.:E05TSI                          WED 07/30/97 01:00 Page:139
      798     3768    4                   GOTO L4;

   3768   0 0000D0  0F81 008D                            B        s:3841,PREL

      799     3769
      800     3770    4                 CASE (%KV_VDOVLP_TYP_DAT1);

      801     3771    4                   K$RWPARM.MSG$ = ADDR(KV$VDOVLP_DAT1.MSG);

   3771   0 0000D2  BBC4 0001                            LAB,B3   1,B4
          0 0000D4  BF86                                 STB,B3   ,B6

      802     3772    4                   K$RWPARM.MSGSZ = KV$VDOVLP_DAT1.BYTSIZ;

   3772   0 0000D5  D804                                 LDR,R5   ,B4
          0 0000D6  D570 00FF                            AND,R5   255,IMO
          0 0000D8  DF46 0002                            STR,R5   2,B6

      803     3773    4                   TEMPU1 = LENGTHC(KV$VDOVLP_DAT1) ;

   3773   0 0000DA  5E02                                 ADV,R5   2
          0 0000DB  DF47 0008                            STR,R5   TEMPU1,AUTO
          0 0000DD  0F81 0070                            B        s:3831,PREL

      804     3774
      805     3775    4                 CASE (%KV_VDOVLP_TYP_DAT2);

      806     3776    4                   K$RWPARM.MSGSZ = KV$VDOVLP_DAT2.BYTSIZ;

   3776   0 0000DF  D844 0001                            LDR,R5   1,B4
          0 0000E1  DF46 0002                            STR,R5   2,B6

      807     3777    4                   K$RWPARM.MSG$ = ADDR(KV$VDOVLP_DAT2.MSG);

   3777   0 0000E3  BBC4 0002                            LAB,B3   2,B4
          0 0000E5  BF86                                 STB,B3   ,B6

PL6.E3A0      #005=KNA$DECODE_VDO File=KNA$SUBS.:E05TSI                          WED 07/30/97 01:00 Page:140
      808     3778    4                   TEMPU1 = LENGTHC(KV$VDOVLP_DAT2) ;

   3778   0 0000E6  5E04                                 ADV,R5   4
          0 0000E7  DF47 0008                            STR,R5   TEMPU1,AUTO
          0 0000E9  0F81 0064                            B        s:3831,PREL

      809     3779
      810     3780    4                 CASE (%KV_VDOVLP_TYP_ERR);

      811     3781    4                   K$RWPARM.MSG_ERRCODE=KV$VDOVLP_ERR.ERRCODE;

   3781   0 0000EB  8CC4 0001                            LDI      1,B4
          0 0000ED  8D46 001A                            SDI      26,B6

      812     3782    4                   TMP_SZ = TMP_SZ + SIZEC(KV$VDOVLP_ERR) ;

   3782   0 0000EF  D847 0009                            LDR,R5   TMP_SZ,AUTO
          0 0000F1  5E06                                 ADV,R5   6
          0 0000F2  DF47 0009                            STR,R5   TMP_SZ,AUTO

      813     3783    4                   IF MSG$->KV$VDOVLP.LST = '0'B

   3783   0 0000F4  8984                                 CMZ      ,B4
          0 0000F5  0881 FF69                            BAGE     s:3729,PREL

      814     3784    4                   THEN GOTO L2;
      815     3785    4                   GOTO L4;

   3785   0 0000F7  0F81 0066                            B        s:3841,PREL

      816     3786
      817     3787
      818     3788    4                 CASE (%KV_VDOVLP_TYP_FLDID);

      819     3789    4                   K$RWPARM.FLDID = KV$VDOVLP_FLDID.FLDID;

   3789   0 0000F9  D844 0001                            LDR,R5   1,B4
PL6.E3A0      #005=KNA$DECODE_VDO File=KNA$SUBS.:E05TSI                          WED 07/30/97 01:00 Page:141
          0 0000FB  DF46 0026                            STR,R5   38,B6

      820     3790    4                   IF K$RWPARM.KEYTYPE = %G_KEYTYPE_FLDID#

   3790   0 0000FD  C2C6 0028                            LLH,R4   40,B6
          0 0000FF  4D01                                 CMV,R4   1
          0 000100  0981 0009                            BNE      s:3796,PREL

      821     3791    4                   THEN
      822     3792    5                   DO ;

      823     3793    5                        K$RWPARM.KEYSZ = KV$VDOVLP_FLDID.BYTSIZ;

   3793   0 000102  B804                                 LDR,R3   ,B4
          0 000103  BAC6 0028                            SRM,R3,'00FF'X    40,B6
          0 000105       00FF

      824     3794    5                        K$RWPARM.KEY$ = ADDR(KV$VDOVLP_FLDID.FLDID);

   3794   0 000106  BBC4 0001                            LAB,B3   1,B4
          0 000108  BFC6 0023                            STB,B3   35,B6

      825     3795    5                        END;

      826     3796    4                   TMP_SZ = TMP_SZ + SIZEC(KV$VDOVLP_FLDID) ;

   3796   0 00010A  B847 0009                            LDR,R3   TMP_SZ,AUTO
          0 00010C  3E04                                 ADV,R3   4
          0 00010D  BF47 0009                            STR,R3   TMP_SZ,AUTO

      827     3797    4                   IF MSG$->KV$VDOVLP.LST = '0'B

   3797   0 00010F  8984                                 CMZ      ,B4
          0 000110  0881 FF4E                            BAGE     s:3729,PREL

      828     3798    4                   THEN GOTO L2;
      829     3799    4                   GOTO L4;
PL6.E3A0      #005=KNA$DECODE_VDO File=KNA$SUBS.:E05TSI                          WED 07/30/97 01:00 Page:142

   3799   0 000112  0F81 004B                            B        s:3841,PREL

      830     3800
      831     3801
      832     3802    4                 CASE (%KV_VDOVLP_TYP_KEY);

      833     3803    4                   IF K$RWPARM.KEYTYPE = %G_KEYTYPE_COORD#

   3803   0 000114  D2C6 0028                            LLH,R5   40,B6
          0 000116  5D02                                 CMV,R5   2
          0 000117  0981 0009                            BNE      s:3809,PREL

      834     3804    4                   THEN
      835     3805    5                   DO ;

      836     3806    5                        K$RWPARM.KEYSZ = KV$VDOVLP_KEY.BYTSIZ;

   3806   0 000119  C804                                 LDR,R4   ,B4
          0 00011A  CAC6 0028                            SRM,R4,'00FF'X    40,B6
          0 00011C       00FF

      837     3807    5                        K$RWPARM.KEY$ = ADDR(KV$VDOVLP_KEY.KEY);

   3807   0 00011D  BBC4 0001                            LAB,B3   1,B4
          0 00011F  BFC6 0023                            STB,B3   35,B6

      838     3808    5                        END;

      839     3809    4                   TEMPU1 = LENGTHC(KV$VDOVLP_KEY) ;

   3809   0 000121  C804                                 LDR,R4   ,B4
          0 000122  C570 00FF                            AND,R4   255,IMO
          0 000124  4E02                                 ADV,R4   2
          0 000125  CF47 0008                            STR,R4   TEMPU1,AUTO
          0 000127  0F81 0026                            B        s:3831,PREL

PL6.E3A0      #005=KNA$DECODE_VDO File=KNA$SUBS.:E05TSI                          WED 07/30/97 01:00 Page:143
      840     3810
      841     3811    4                 CASE (%KV_VDOVLP_TYP_MRK);

      842     3812    4                   K$RWPARM.MRKTYP = KV$VDOVLP_MRK.MRKTYP;

   3812   0 000129  D844 0001                            LDR,R5   1,B4
          0 00012B  D570 00FF                            AND,R5   255,IMO
          0 00012D  D7C6 001D                            STH,R5   29,B6

      843     3813    4                   IF K$RWPARM.MRKTYP = %KV_VDOMRKTYP_LSTRCRID

   3813   0 00012F  D2C6 001D                            LLH,R5   29,B6
          0 000131  5D02                                 CMV,R5   2
          0 000132  0981 000B                            BNE      s:3820,PREL

      844     3814    4                   THEN
      845     3815    5                   DO ;

      846     3816    5                        K$RWPARM.BLKREC.BLKU#=ADDR(KV$VDOVLP_MRK.ID)->B$HWORD;

   3816   0 000134  C844 0002                            LDR,R4   2,B4
          0 000136  CF46 000D                            STR,R4   13,B6

      847     3817    5                       K$RWPARM.BLKREC.RECU#=PINCRC(ADDR(KV$VDOVLP_MRK.ID),2)->B$HWORD
              3817                                 ;

   3817   0 000138  B844 0003                            LDR,R3   3,B4
          0 00013A  BF46 000E                            STR,R3   14,B6

      848     3818    5                        END;

   3818   0 00013C  0F81 0005                            B        s:3821,PREL

      849     3819    4                   ELSE
      850     3820    4                        K$RWPARM.MARKER = KV$VDOVLP_MRK.ID;

   3820   0 00013E  8CC4 0002                            LDI      2,B4
PL6.E3A0      #005=KNA$DECODE_VDO File=KNA$SUBS.:E05TSI                          WED 07/30/97 01:00 Page:144
          0 000140  8D46 000D                            SDI      13,B6

      851     3821    4                   TMP_SZ = TMP_SZ + SIZEC(KV$VDOVLP_MRK) ;

   3821   0 000142  E847 0009                            LDR,R6   TMP_SZ,AUTO
          0 000144  6E08                                 ADV,R6   8
          0 000145  EF47 0009                            STR,R6   TMP_SZ,AUTO

      852     3822    4                   IF MSG$->KV$VDOVLP.LST = '0'B

   3822   0 000147  8984                                 CMZ      ,B4
          0 000148  0881 FF16                            BAGE     s:3729,PREL

      853     3823    4                   THEN GOTO L2;
      854     3824    4                   GOTO L4;

   3824   0 00014A  0F81 0013                            B        s:3841,PREL

      855     3825
      856     3826    4                 CASE (ELSE);

      857     3827    4                   GOTO L1 ;

   3827   0 00014C  0F81 0025                            B        s:3849,PREL

      858     3828
      859     3829    4                   END;                    /* End cases                          */

      860     3830
      861     3831    3                IF TEMPU1S.LOBIT

   3831   0 00014E  82C7 0008                            LB,'0001'X        TEMPU1,AUTO
   3831   0 000150       0001
          0 000151  0581 0003                            BBF      s:3834,PREL

      862     3832    3                THEN TMP_SZ = TMP_SZ + 1;

PL6.E3A0      #005=KNA$DECODE_VDO File=KNA$SUBS.:E05TSI                          WED 07/30/97 01:00 Page:145
   3832   0 000153  8AC7 0009                            INC      TMP_SZ,AUTO

      863     3833
      864     3834    3                TMP_SZ = TMP_SZ + TEMPU1 ;

   3834   0 000155  D847 0009                            LDR,R5   TMP_SZ,AUTO
          0 000157  DA47 0008                            ADD,R5   TEMPU1,AUTO
          0 000159  DF47 0009                            STR,R5   TMP_SZ,AUTO

      865     3835
      866     3836    3                IF MSG$->KV$VDOVLP.LST = '0'B

   3836   0 00015B  8984                                 CMZ      ,B4
          0 00015C  0881 FF02                            BAGE     s:3729,PREL

      867     3837    3                THEN GOTO L2;
      868     3838
      869     3839    3                END;

      870     3840
      871     3841    2           END ;

      872     3842
      873     3843
      874     3844    1   L4:
      875     3845    1      IF TMP_SZ = K$RWPARM.UHDRSZ OR TMP_SZ = K$RWPARM.UHDRSZ + MOD(TEMPU1,2)

   3845   0 00015E  E847 0009            L4              LDR,R6   TMP_SZ,AUTO
          0 000160  E946 0019                            CMR,R6   25,B6
          0 000162  0901 000C                            BE       s:3846,PREL
          0 000164  D847 0008                            LDR,R5   TEMPU1,AUTO
          0 000166  D570 0001                            AND,R5   1,IMO
          0 000168  DA46 0019                            ADD,R5   25,B6
          0 00016A  5801 0007                            BLZ,R5   s:3849,PREL
          0 00016C  D956                                 CMR,R5   R6
          0 00016D  0981 0004                            BNE      s:3849,PREL

PL6.E3A0      #005=KNA$DECODE_VDO File=KNA$SUBS.:E05TSI                          WED 07/30/97 01:00 Page:146
      876     3846    1      THEN RETURN;

   3846   0 00016F  C380 0000 0000  xent                 LNJ,B4   X6A_ARET

      877     3847
      878     3848    1   L1:
      879     3849    1      CALL PROTOCOL_ERR;

   3849   0 000172  E3C0 0005            L1              LNJ,B6   s:0,PREL
          0 000174       0001                            DC       s:3850,PREL

      880     3850    1      ALTRETURN;

   3850   0 000175  C380 0000 0000  xent                 LNJ,B4   X6A_AALT

      881     3851
      882     3852
      883     3853    1   PROTOCOL_ERR: PROC;

   3853   0 000178  EFC7 000A            PROTOCOL_ERR    STB,B6   TMP_SZ+1,AUTO

      884     3854
      885     3855                  /*N* Error log */
      886     3856    2      RETURN;

   3856   0 00017A  ECC7 000A                            LDB,B6   TMP_SZ+1,AUTO
          0 00017C  C3C6 0001                            LNJ,B4   1,B6
      887     3857
      888     3858
      889     3859    2   END PROTOCOL_ERR;
      890     3860
      891     3861
      892     3862    1   END KNA$DECODE_VDO;
      893     3863        %EOD;

PL6.E3A0      #005=KNA$DECODE_VDO File=KNA$SUBS.:E05TSI                          WED 07/30/97 01:00 Page:147
--  Include file information  --

   GU_LCP6_M.:E05TOU  is referenced.
   K$RWPARM.:E05TOU  is referenced.
   KV$VDO.:E05TOU  is referenced.
   G_LCP6_E.:E05TOU  is referenced.
      No diagnostics issued in procedure KNA$DECODE_VDO.
PL6.E3A0      #005=KNA$DECODE_VDO File=KNA$SUBS.:E05TSI                          WED 07/30/97 01:00 Page:148

 **** Variables and constants ****

  ****  Auto variables  ****

  ****  Scalars and arrays  ****
HexLoc.c.b A Datatyp(siz) R M Lvl/name                 HexLoc.c.b A Datatyp(siz) R M Lvl/name

     4-0-0/w PTR         r     1 @K$RWPARM                 *0-0-0/w STRC(656)   r     1 K$RWPARM
     6-0-0/w PTR         r     1 MSG$                       8-0-0/w UBIN(16)    r     1 TEMPU1
     8-0-0/w STRC(16)    r     1 TEMPU1S                    9-0-0/w UBIN(16)    r     1 TMP_SZ

  ****  SYMREF variables  ****

  ****  Scalars and arrays  ****
HexLoc.c.b A Datatyp(siz) R M Lvl/name                 HexLoc.c.b A Datatyp(siz) R M Lvl/name

     0-0-0/c UBIN(8)     r     1 KNA_VDOBYTSIZ(0:34)

  ****  BASED and DCB variables  ****

  ****  Scalars and arrays  ****
HexLoc.c.b A Datatyp(siz) R M Lvl/name                 HexLoc.c.b A Datatyp(siz) R M Lvl/name

     0-0-0/c UBIN(16)    r     1 B$HWORD                    0-0-0/w STRC(16)    r     1 KV$VDO
     0-0-0/w STRC(16)    r     1 KV$VDOVLP                  0-0-0/w STRC(32)    r     1 KV$VDOVLP_ACTPOS
     0-0-0/w STRC(96)    r     1 KV$VDOVLP_CG_MSGID         0-0-0/w STRC(96)    r     1 KV$VDOVLP_CG_MSGTYP
     0-0-0/w STRC(96)    r     1 KV$VDOVLP_CG_STA           0-0-0/w ASTR(16)    r     1 KV$VDOVLP_DAT1
     0-0-0/w ASTR(32)    r     1 KV$VDOVLP_DAT2             0-0-0/w STRC(48)    r     1 KV$VDOVLP_ERR
     0-0-0/w STRC(32)    r     1 KV$VDOVLP_FLDID            0-0-0/w ASTR(16)    r     1 KV$VDOVLP_KEY
     0-0-0/w STRC(64)    r     1 KV$VDOVLP_MRK              0-0-0/w STRC(32)    r     1 KV$VDO_DAT


   Procedure KNA$DECODE_VDO requires 382 words for executable code.
   Procedure KNA$DECODE_VDO requires 14 words of local(AUTO) storage.
PL6.E3A0      #005=KNA$DECODE_VDO File=KNA$SUBS.:E05TSI                          WED 07/30/97 01:00 Page:149
          *** CROSS REFERENCE LISTING ***
**     DENOTES     IDENTIFIER DEFINITION
<<                 IDENTIFIER'S VALUE SET
>>                 IDENTIFIER'S VALUE USED
<>                 IDENTIFIER SET AND/OR USED
--                 IDENTIFIER REFERENCED
PL6.E3A0      #005=KNA$DECODE_VDO File=KNA$SUBS.:E05TSI                          WED 07/30/97 01:00 Page:150
          MINI XREF LISTING

B$HWORD
      3688**DCL      3816>>ASSIGN   3817>>ASSIGN
K$RWPARM
      2622**DCL         7--PROC
K$RWPARM.ACTPOS
      2912**DCL      3742<<ASSIGN
K$RWPARM.BLKREC
      2652**DCL      2677--REDEF
K$RWPARM.BLKREC.BLKU#
      2653**DCL      3816<<ASSIGN
K$RWPARM.BLKREC.RECU#
      2665**DCL      3817<<ASSIGN
K$RWPARM.DVE.DVBYTE.TRANS
      2695**DCL      3723<<ASSIGN
K$RWPARM.DVE.DVBYTE.VFC
      2692**DCL      2693--REDEF    3718<<ASSIGN
K$RWPARM.DVE.EOMCHAR
      2700**DCL      2704--REDEF    3712<<ASSIGN
K$RWPARM.DVE.VFC
      2704**DCL      3719<<ASSIGN
K$RWPARM.EOM_EOR
      2721**DCL      3715<<ASSIGN
K$RWPARM.ERR
      2764**DCL      2769--REDEF
K$RWPARM.FC
      2728**DCL      2729--REDEF
K$RWPARM.FLDID
      2910**DCL      2911--REDEF    3789<<ASSIGN
K$RWPARM.KEY$
      2908**DCL      3794<<ASSIGN   3807<<ASSIGN
K$RWPARM.KEYSZ
      2919**DCL      3793<<ASSIGN   3806<<ASSIGN
PL6.E3A0      #005=KNA$DECODE_VDO File=KNA$SUBS.:E05TSI                          WED 07/30/97 01:00 Page:151
K$RWPARM.KEYTYPE
      2917**DCL      2918--REDEF    3790>>IF       3803>>IF
K$RWPARM.MARKER
      2677**DCL      3820<<ASSIGN
K$RWPARM.MRKTYP
      2902**DCL      3812<<ASSIGN   3813>>IF
K$RWPARM.MSG$
      2623**DCL      2624--REDEF    2633--REDEF    3708<<ASSIGN   3771<<ASSIGN   3777<<ASSIGN
K$RWPARM.MSGID
      2739**DCL      2744--REDEF    3750<<ASSIGN
K$RWPARM.MSGIDXT
      2752**DCL      2756--REDEF    3749<<ASSIGN
K$RWPARM.MSGSZ
      2634**DCL      3375--IMP-SIZ  3426--IMP-SIZ  3707<<ASSIGN   3772<<ASSIGN   3773>>ASSIGN   3776<<ASSIGN
      3778>>ASSIGN
K$RWPARM.MSGTYP
      2643**DCL      3757<<ASSIGN
K$RWPARM.MSG_ERRCODE
      2887**DCL      3781<<ASSIGN
K$RWPARM.ORG
      2888**DCL      2889--REDEF
K$RWPARM.READMLT
      2712**DCL      3706>>IF
K$RWPARM.STATION
      2638**DCL      3764<<ASSIGN
K$RWPARM.STR
      2903**DCL      3697<<ASSIGN
K$RWPARM.UHDR$
      2777**DCL      3031--IMP-PTR  3071--IMP-PTR  3692>>ASSIGN   3693>>IF       3693>>IF       3697>>ASSIGN
      3703>>IF       3708>>ASSIGN   3711>>IF       3712>>ASSIGN   3714>>ASSIGN   3719>>ASSIGN   3722>>IF
      3728>>IF       3737>>ASSIGN
K$RWPARM.UHDRSZ
      2782**DCL      3693>>IF       3707>>ASSIGN   3733>>IF       3845>>IF       3845>>IF
K$RWPARM.VDOFLGS
      2890**DCL      2901--REDEF
KNA_VDOBYTSIZ
PL6.E3A0      #005=KNA$DECODE_VDO File=KNA$SUBS.:E05TSI                          WED 07/30/97 01:00 Page:152
      3004**DCL      3692>>ASSIGN
KV$VDO.FNC
      3035**DCL      3693>>IF       3693>>IF       3703>>IF
KV$VDO.STR
      3035**DCL      3697>>ASSIGN
KV$VDOVLP.LST
      3109**DCL      3744>>IF       3752>>IF       3759>>IF       3766>>IF       3783>>IF       3797>>IF
      3822>>IF       3836>>IF
KV$VDOVLP.TYP
      3109**DCL      3739>>DOCASE
KV$VDOVLP_ACTPOS
      3154**DCL      3743--ASSIGN
KV$VDOVLP_ACTPOS.ACTPOS
      3168**DCL      3742>>ASSIGN
KV$VDOVLP_CG_MSGID
      3205**DCL      3751--ASSIGN
KV$VDOVLP_CG_MSGID.CG_MSGID
      3219**DCL      3750>>ASSIGN
KV$VDOVLP_CG_MSGID.CG_MSGIDXT
      3220**DCL      3749>>ASSIGN
KV$VDOVLP_CG_MSGTYP
      3257**DCL      3758--ASSIGN
KV$VDOVLP_CG_MSGTYP.CG_MSGTYP
      3271**DCL      3757>>ASSIGN
KV$VDOVLP_CG_STA
      3309**DCL      3765--ASSIGN
KV$VDOVLP_CG_STA.CG_STA
      3323**DCL      3764>>ASSIGN
KV$VDOVLP_DAT1
      3360**DCL      3773--ASSIGN
KV$VDOVLP_DAT1.BYTSIZ
      3366**DCL      3772>>ASSIGN
KV$VDOVLP_DAT1.MSG
      3375**DCL      3771--ASSIGN
KV$VDOVLP_DAT2
      3411**DCL      3778--ASSIGN
PL6.E3A0      #005=KNA$DECODE_VDO File=KNA$SUBS.:E05TSI                          WED 07/30/97 01:00 Page:153
KV$VDOVLP_DAT2.BYTSIZ
      3419**DCL      3776>>ASSIGN
KV$VDOVLP_DAT2.MSG
      3426**DCL      3777--ASSIGN
KV$VDOVLP_ERR
      3462**DCL      3782--ASSIGN
KV$VDOVLP_ERR.ERRCODE
      3493**DCL      3781>>ASSIGN
KV$VDOVLP_FLDID
      3559**DCL      3796--ASSIGN
KV$VDOVLP_FLDID.BYTSIZ
      3565**DCL      3793>>ASSIGN
KV$VDOVLP_FLDID.FLDID
      3573**DCL      3789>>ASSIGN   3794--ASSIGN
KV$VDOVLP_KEY
      3610**DCL      3809--ASSIGN
KV$VDOVLP_KEY.BYTSIZ
      3616**DCL      3625--IMP-SIZ  3806>>ASSIGN   3809>>ASSIGN
KV$VDOVLP_KEY.KEY
      3625**DCL      3807--ASSIGN
KV$VDOVLP_MRK
      3661**DCL      3821--ASSIGN
KV$VDOVLP_MRK.ID
      3676**DCL      3816--ASSIGN   3817--ASSIGN   3820>>ASSIGN
KV$VDOVLP_MRK.MRKTYP
      3675**DCL      3812>>ASSIGN
KV$VDO_DAT.DATCTRCHR
      3080**DCL      3712>>ASSIGN   3719>>ASSIGN
KV$VDO_DAT.DATCTRCHRTYP
      3079**DCL      3711>>IF       3714>>ASSIGN
KV$VDO_DAT.DATMOD
      3080**DCL      3722>>IF
KV$VDO_DAT.FNC
      3075**DCL      3692>>ASSIGN
KV$VDO_DAT.VLP
      3075**DCL      3728>>IF
PL6.E3A0      #005=KNA$DECODE_VDO File=KNA$SUBS.:E05TSI                          WED 07/30/97 01:00 Page:154
L1
      3849**LABEL    3695--GOTO     3827--GOTO
L2
      3732**LABEL    3745--GOTO     3753--GOTO     3760--GOTO     3767--GOTO     3784--GOTO     3798--GOTO
      3823--GOTO     3837--GOTO
L4
      3845**LABEL    3746--GOTO     3754--GOTO     3761--GOTO     3768--GOTO     3785--GOTO     3799--GOTO
      3824--GOTO
MSG$
      3681**DCL      3154--IMP-PTR  3205--IMP-PTR  3257--IMP-PTR  3309--IMP-PTR  3360--IMP-PTR  3411--IMP-PTR
      3462--IMP-PTR  3559--IMP-PTR  3610--IMP-PTR  3661--IMP-PTR  3737<<ASSIGN   3739>>DOCASE   3742>>ASSIGN
      3744>>IF       3749>>ASSIGN   3750>>ASSIGN   3752>>IF       3757>>ASSIGN   3759>>IF       3764>>ASSIGN
      3766>>IF       3771>>ASSIGN   3772>>ASSIGN   3776>>ASSIGN   3777>>ASSIGN   3781>>ASSIGN   3783>>IF
      3789>>ASSIGN   3793>>ASSIGN   3794>>ASSIGN   3797>>IF       3806>>ASSIGN   3807>>ASSIGN   3809>>ASSIGN
      3809>>ASSIGN   3812>>ASSIGN   3816>>ASSIGN   3817>>ASSIGN   3820>>ASSIGN   3822>>IF       3836>>IF
PROTOCOL_ERR
      3853**PROC     3849--CALL
TEMPU1
      3682**DCL      3683--REDEF    3684--REDEF    3714<<ASSIGN   3716>>IF       3727<<ASSIGN   3732<<ASSIGN
      3773<<ASSIGN   3778<<ASSIGN   3809<<ASSIGN   3834>>ASSIGN   3845>>IF
TEMPU1S.LOBIT
      3686**DCL      3831>>IF
TMP_SZ
      3689**DCL      3692<<ASSIGN   3693>>IF       3733>>IF       3737>>ASSIGN   3743<<ASSIGN   3743>>ASSIGN
      3751<<ASSIGN   3751>>ASSIGN   3758<<ASSIGN   3758>>ASSIGN   3765<<ASSIGN   3765>>ASSIGN   3782<<ASSIGN
      3782>>ASSIGN   3796<<ASSIGN   3796>>ASSIGN   3821<<ASSIGN   3821>>ASSIGN   3832<<ASSIGN   3832>>ASSIGN
      3834<<ASSIGN   3834>>ASSIGN   3845>>IF       3845>>IF

