VERSION E05

PL6.E3A0      #001=KNA_DATA_D File=KNA_DATA_D.:E05TSI                            WED 07/30/97 00:58 Page:1
        1        1        /*M* KNA_DATA_D  APE Constant and Static data                       */
        2        2        /*T***********************************************************/
        3        3        /*T*                                                         */
        4        4        /*T* Copyright (c) Bull HN Information Systems Inc., 1997    */
        5        5        /*T*                                                         */
        6        6        /*T***********************************************************/
        7        7        /*P*
        8        8            NAME:   KNA_DATA_D
        9        9            PURPOSE: This module contains APE static and constant data
       10       10        */
       11       11
       12       12        /*F*
       13       13            NAME:   KNA_DATA_D
       14       14            PURPOSE: This module contains APE static and constant data
       15       15        */
       16       16        %EJECT;
PL6.E3A0      #001=KNA_DATA_D File=KNA_DATA_D.:E05TSI                            WED 07/30/97 00:58 Page:2
       17       17        KNA_DATA_D: PROC;
       18       18        /* */
       19       19        %INCLUDE LCP_6;
       20     4298        %INCLUDE K_CP6_M;
       21     4494        %INCLUDE KV$VDO;
       22     5509        %INCLUDE KV_PRMID_E;
       23     5683        %INCLUDE K$RWPARM;
       24     6069
       25     6070        %KV_PRMID_E;
       26     6226        %KV_VDO_ALL;
       27     8369        /*
       28     8370                            Data VDO
       29     8371        */
       30     8372        %KV$VDO_DAT(NAME=KNA$VDO_DAT,VLP=YES,FNC=KV_VDO_FNC_DAT,
       31     8373                    STCLASS=CONSTANT SYMDEF,LAST=",");
       32     8418        /*
       33     8419                            DATA2 VLP
       34     8420        */
       35     8421        %KV$VDOVLP_DAT2(NAME=KNA$VDOVLP_DAT2,LVL=2,LST=YES,
       36     8422                     STCLASS=CONSTANT SYMDEF);
       37     8472        /*
       38     8473                            Request data VDO
       39     8474        */
       40     8475        %KV$VDO_RQSDAT(NAME=KNA$VDO_RQSDAT,FNC=KV_VDO_FNC_RQSDAT,
       41     8476               INCMAXNMBRCR=YES,INCMAXNMBBYT=YES,STCLASS=CONSTANT SYMDEF);
       42     8524
       43     8525        /*
       44     8526                           Block data VDO
       45     8527          */
       46     8528        %KV$VDO_BLKDAT (NAME=KNA$VDO_BLKDAT,STCLASS=CONSTANT SYMDEF);
       47     8571        /*
       48     8572                          Table that has byte size of all VDOs
       49     8573                                                                                      */
       50     8574        %KV_VDOBYTSIZ(NAME=KNA_VDOBYTSIZ,STCLASS=STATIC SYMDEF);
       51     8594        /*
       52     8595                          Static RWPARM structure
       53     8596                                                                                      */
PL6.E3A0      #001=KNA_DATA_D File=KNA_DATA_D.:E05TSI                            WED 07/30/97 00:58 Page:3
       54     8597        %K$RWPARM(NAME=KNA_RWPARM_CON,STCLASS=STATIC SYMDEF);
       55     8913        /* This defines constant message definitions */
       56     8914
       57     8915        %KV$VDOVLP_CG_MSGTYP (NAME=KNA_VDOVLP_CG_MSGTYP,STCLASS="CONSTANT SYMDEF");
       58     8967        %KV$VDOVLP_CG_MSGID (NAME=KNA_VDOVLP_CG_MSGID,STCLASS="CONSTANT SYMDEF");
       59     9019        %KV$VDOVLP_CG_STA (NAME=KNA_VDOVLP_CG_STA,STCLASS="CONSTANT SYMDEF");
       60     9070        %KV$VDOVLP_DAT1 (NAME=KNA_VDOVLP_DAT1,LST=YES,STCLASS="CONSTANT SYMDEF");
       61     9120        %KV$VDOVLP_DAT2 (NAME=KNA_VDOVLP_DAT2,LST=YES,STCLASS="CONSTANT SYMDEF");
       62     9170        %KV$VDOVLP_FLDID (NAME=KNA_VDOVLP_FLDID,STCLASS="CONSTANT SYMDEF");
       63     9221        %KV$VDOVLP_KEY (NAME=KNA_VDOVLP_KEY,STCLASS="CONSTANT SYMDEF");
       64     9271        %KV$VDOVLP_MRK (NAME=KNA_VDOVLP_MRK,BYTSIZ=4,MRKTYP=%KV_VDOMRKTYP_LSTRCRID,STCLASS=
              9271            "CONSTANT SYMDEF");
       65     9324        %KV$VDOVLP_MRK  (NAME=KNA_VDOVLP_RRR,BYTSIZ=2,MRKTYP=%KV_VDOMRKTYP_ENDACK,STCLASS=
              9324            "STATIC SYMDEF");
       66     9377        %KV$VDOVLP_ERR (NAME=KNA_VDOVLP_ERR,STCLASS="CONSTANT SYMDEF",
       67     9378             FCG=KI,MID=A,MON='1'B,ERR#=0,SEV=0);
       68     9475        %KV$VDO_MRK (NAME=KNA_VDO_MRKRSP,FNC=KV_VDO_FNC_MRK,STCLASS="CONSTANT SYMDEF",LAST=
              9475            ",",VLP=YES);
       69     9516        %KV$VDOVLP_DAT1 (NAME=DAT2,LVL=2,BYTSIZ=4,LST=YES);
       70     9566
       71     9567        /* Default window */
       72     9568        %VLP_WINDOW (FPTN=KNA_WINDOW,STCLASS="CONSTANT SYMDEF",FWINDOW=
              9568            "%CONCAT(%BINASC(0),%BINASC(0))");
       73     9612    1   DCL 1 KNA_WINDOW_TL CONSTANT SYMDEF,
       74     9613    1         2 T UBIN BYTE CALIGNED INIT(%KV_PRMID_WINDOW),
       75     9614    1         2 L UBIN BYTE CALIGNED INIT(SIZEC(KNA_WINDOW));
       76     9615    1   END KNA_DATA_D;

PL6.E3A0      #001=KNA_DATA_D File=KNA_DATA_D.:E05TSI                            WED 07/30/97 00:58 Page:4
--  Include file information  --

   K$RWPARM.:E05TOU  is referenced.
   KV_PRMID_E.:E05TOU  is referenced.
   KV$VDO.:E05TOU  is referenced.
   K_CP6_M.:E05TOU  is referenced.
   G_LCP6_E.:E05TOU  is referenced.
   GT_LCP6_M.:E05TOU  is referenced.
   KI_CP6.:E05TOU  is referenced.
   GF_LCP6_M.:E05TOU  is referenced.
   GM_LCP6_M.:E05TOU  is referenced.
   GU_LCP6_M.:E05TOU  is referenced.
   GJ_LCP6_M.:E05TOU  is referenced.
   GH_LCP6_M.:E05TOU  is referenced.
   LCP_6.:E05TOU  cannot be made into a system file and is referenced.
      No diagnostics issued in procedure KNA_DATA_D.

   No code generated for procedure KNA_DATA_D .
   Procedure KNA_DATA_D requires 4 words of local(AUTO) storage.

    No errors detected in file KNA_DATA_D.:E05TSI    .

PL6.E3A0      #001=KNA_DATA_D File=KNA_DATA_D.:E05TSI                            WED 07/30/97 00:58 Page:5

 Object Unit name= KNA_DATA_D                                 File name= KNA_DATA_D.:E05TOU
 UTS= JUL 30 '97 00:58:46.56 WED                              Compiler= PL-6/E31         Sev=      00
 SharedLib= :SHARED_LCP6_SYSTEM                               Alt SharedLib=


    ****  Control sections  ****

 Sect   Type Bound  Init  Size HexSiz  Section name
    0  RoData even  UTS     62     3E  KNA_DATA_D
    1   Data  even  none    63     3F  KNA_DATA_D
    2   Proc  even  none     0      0  KNA_DATA_D

    ****  Entry defs  ****

                              Check   Calling
                             calling  sequence
  Sect HexLoc Primary Altret sequence   type   Parms  Name
     2      0   yes            yes     ~proc       0  KNA_DATA_D
PL6.E3A0      #001=KNA_DATA_D File=KNA_DATA_D.:E05TSI                            WED 07/30/97 00:58 Page:6

  ****  Data defs  ****

 Sect HexLoc  Name                           Sect HexLoc  Name
    0      0  KNA$VDO_DAT                        0      4  KNA$VDO_RQSDAT
    0      9  KNA$VDO_BLKDAT                     1      0  KNA_VDOBYTSIZ
    1     12  KNA_RWPARM_CON                     0      C  KNA_VDOVLP_CG_MSGTYP
    0     12  KNA_VDOVLP_CG_MSGID                0     18  KNA_VDOVLP_CG_STA
    0     1E  KNA_VDOVLP_DAT1                    0     1F  KNA_VDOVLP_DAT2
    0     21  KNA_VDOVLP_FLDID                   0     23  KNA_VDOVLP_KEY
    0     24  KNA_VDOVLP_MRK                     1     3B  KNA_VDOVLP_RRR
    0     28  KNA_VDOVLP_ERR                     0     2B  KNA_VDO_MRKRSP
    0     2D  KNA_WINDOW                         0     3D  KNA_WINDOW_TL

  ****  Data refs  ****

  Flags:  r = read only, s = secondary
Flgs Name                             Flgs Name                             Flgs Name
r    G$ROS$
PL6.E3A0      #001=KNA_DATA_D File=KNA_DATA_D.:E05TSI                            WED 07/30/97 00:58 Page:7

        1        1        /*M* KNA_DATA_D  APE Constant and Static data                       */
        2        2        /*T***********************************************************/
        3        3        /*T*                                                         */
        4        4        /*T* Copyright (c) Bull HN Information Systems Inc., 1997    */
        5        5        /*T*                                                         */
        6        6        /*T***********************************************************/
        7        7        /*P*
        8        8            NAME:   KNA_DATA_D
        9        9            PURPOSE: This module contains APE static and constant data
       10       10        */
       11       11
       12       12        /*F*
       13       13            NAME:   KNA_DATA_D
       14       14            PURPOSE: This module contains APE static and constant data
       15       15        */
       16       16        %EJECT;
PL6.E3A0      #001=KNA_DATA_D File=KNA_DATA_D.:E05TSI                            WED 07/30/97 00:58 Page:8
       17       17        KNA_DATA_D: PROC;
       18       18        /* */
       19       19        %INCLUDE LCP_6;
       20     4298        %INCLUDE K_CP6_M;
       21     4494        %INCLUDE KV$VDO;
       22     5509        %INCLUDE KV_PRMID_E;
       23     5683        %INCLUDE K$RWPARM;
       24     6069
       25     6070        %KV_PRMID_E;
       26     6226        %KV_VDO_ALL;
       27     8369        /*
       28     8370                            Data VDO
       29     8371        */
       30     8372        %KV$VDO_DAT(NAME=KNA$VDO_DAT,VLP=YES,FNC=KV_VDO_FNC_DAT,
       31     8373                    STCLASS=CONSTANT SYMDEF,LAST=",");
       32     8418        /*
       33     8419                            DATA2 VLP
       34     8420        */
       35     8421        %KV$VDOVLP_DAT2(NAME=KNA$VDOVLP_DAT2,LVL=2,LST=YES,
       36     8422                     STCLASS=CONSTANT SYMDEF);
       37     8472        /*
       38     8473                            Request data VDO
       39     8474        */
       40     8475        %KV$VDO_RQSDAT(NAME=KNA$VDO_RQSDAT,FNC=KV_VDO_FNC_RQSDAT,
       41     8476               INCMAXNMBRCR=YES,INCMAXNMBBYT=YES,STCLASS=CONSTANT SYMDEF);
       42     8524
       43     8525        /*
       44     8526                           Block data VDO
       45     8527          */
       46     8528        %KV$VDO_BLKDAT (NAME=KNA$VDO_BLKDAT,STCLASS=CONSTANT SYMDEF);
       47     8571        /*
       48     8572                          Table that has byte size of all VDOs
       49     8573                                                                                      */
       50     8574        %KV_VDOBYTSIZ(NAME=KNA_VDOBYTSIZ,STCLASS=STATIC SYMDEF);
       51     8594        /*
       52     8595                          Static RWPARM structure
       53     8596                                                                                      */
PL6.E3A0      #001=KNA_DATA_D File=KNA_DATA_D.:E05TSI                            WED 07/30/97 00:58 Page:9
       54     8597        %K$RWPARM(NAME=KNA_RWPARM_CON,STCLASS=STATIC SYMDEF);
       55     8913        /* This defines constant message definitions */
       56     8914
       57     8915        %KV$VDOVLP_CG_MSGTYP (NAME=KNA_VDOVLP_CG_MSGTYP,STCLASS="CONSTANT SYMDEF");
       58     8967        %KV$VDOVLP_CG_MSGID (NAME=KNA_VDOVLP_CG_MSGID,STCLASS="CONSTANT SYMDEF");
       59     9019        %KV$VDOVLP_CG_STA (NAME=KNA_VDOVLP_CG_STA,STCLASS="CONSTANT SYMDEF");
       60     9070        %KV$VDOVLP_DAT1 (NAME=KNA_VDOVLP_DAT1,LST=YES,STCLASS="CONSTANT SYMDEF");
       61     9120        %KV$VDOVLP_DAT2 (NAME=KNA_VDOVLP_DAT2,LST=YES,STCLASS="CONSTANT SYMDEF");
       62     9170        %KV$VDOVLP_FLDID (NAME=KNA_VDOVLP_FLDID,STCLASS="CONSTANT SYMDEF");
       63     9221        %KV$VDOVLP_KEY (NAME=KNA_VDOVLP_KEY,STCLASS="CONSTANT SYMDEF");
       64     9271        %KV$VDOVLP_MRK (NAME=KNA_VDOVLP_MRK,BYTSIZ=4,MRKTYP=%KV_VDOMRKTYP_LSTRCRID,STCLASS=
              9271            "CONSTANT SYMDEF");
       65     9324        %KV$VDOVLP_MRK  (NAME=KNA_VDOVLP_RRR,BYTSIZ=2,MRKTYP=%KV_VDOMRKTYP_ENDACK,STCLASS=
              9324            "STATIC SYMDEF");
       66     9377        %KV$VDOVLP_ERR (NAME=KNA_VDOVLP_ERR,STCLASS="CONSTANT SYMDEF",
       67     9378             FCG=KI,MID=A,MON='1'B,ERR#=0,SEV=0);
       68     9475        %KV$VDO_MRK (NAME=KNA_VDO_MRKRSP,FNC=KV_VDO_FNC_MRK,STCLASS="CONSTANT SYMDEF",LAST=
              9475            ",",VLP=YES);
       69     9516        %KV$VDOVLP_DAT1 (NAME=DAT2,LVL=2,BYTSIZ=4,LST=YES);
       70     9566
       71     9567        /* Default window */
       72     9568        %VLP_WINDOW (FPTN=KNA_WINDOW,STCLASS="CONSTANT SYMDEF",FWINDOW=
              9568            "%CONCAT(%BINASC(0),%BINASC(0))");
       73     9612    1   DCL 1 KNA_WINDOW_TL CONSTANT SYMDEF,
       74     9613    1         2 T UBIN BYTE CALIGNED INIT(%KV_PRMID_WINDOW),
       75     9614    1         2 L UBIN BYTE CALIGNED INIT(SIZEC(KNA_WINDOW));
       76     9615    1   END KNA_DATA_D;

PL6.E3A0      #001=KNA_DATA_D File=KNA_DATA_D.:E05TSI                            WED 07/30/97 00:58 Page:10
--  Include file information  --

   K$RWPARM.:E05TOU  is referenced.
   KV_PRMID_E.:E05TOU  is referenced.
   KV$VDO.:E05TOU  is referenced.
   K_CP6_M.:E05TOU  is referenced.
   G_LCP6_E.:E05TOU  is referenced.
   GT_LCP6_M.:E05TOU  is referenced.
   KI_CP6.:E05TOU  is referenced.
   GF_LCP6_M.:E05TOU  is referenced.
   GM_LCP6_M.:E05TOU  is referenced.
   GU_LCP6_M.:E05TOU  is referenced.
   GJ_LCP6_M.:E05TOU  is referenced.
   GH_LCP6_M.:E05TOU  is referenced.
   LCP_6.:E05TOU  cannot be made into a system file and is referenced.
      No diagnostics issued in procedure KNA_DATA_D.
PL6.E3A0      #001=KNA_DATA_D File=KNA_DATA_D.:E05TSI                            WED 07/30/97 00:58 Page:11

 **** Variables and constants ****

  ****  Section 000 RoData KNA_DATA_D

  ****  Scalars and arrays  ****
HexLoc.c.b A Datatyp(siz) R M Lvl/name                 HexLoc.c.b A Datatyp(siz) R M Lvl/name

    2D-0-0/w STRC(256)   r     1 KNA_WINDOW

  ****  BASED and DCB variables  ****

  ****  Scalars and arrays  ****
HexLoc.c.b A Datatyp(siz) R M Lvl/name                 HexLoc.c.b A Datatyp(siz) R M Lvl/name

     0-0-0/w STRC(48)    r     1 KV$VDO_BLKDAT              0-0-0/w STRC(32)    r     1 KV$VDO_CLSSSN
     0-0-0/w STRC(32)    r     1 KV$VDO_CLSSTR              0-0-0/w STRC(32)    r     1 KV$VDO_DAT
     0-0-0/w STRC(96)    r     1 KV$VDO_DCLFLD              0-0-0/w STRC(32)    r     1 KV$VDO_DCLSTR
     0-0-0/w STRC(32)    r     1 KV$VDO_DLT                 0-0-0/w STRC(32)    r     1 KV$VDO_DSC
     0-0-0/w STRC(32)    r     1 KV$VDO_ERS                 0-0-0/w STRC(32)    r     1 KV$VDO_EVT
     0-0-0/w STRC(32)    r     1 KV$VDO_HVPS                0-0-0/w STRC(16)    r     1 KV$VDO_MRK
     0-0-0/w STRC(16)    r     1 KV$VDO_NOP                 0-0-0/w STRC(32)    r     1 KV$VDO_OPNSSN
     0-0-0/w STRC(48)    r     1 KV$VDO_OPNSTR              0-0-0/w STRC(16)    r     1 KV$VDO_PRM
     0-0-0/w STRC(16)    r     1 KV$VDO_RLSFLD              0-0-0/w STRC(16)    r     1 KV$VDO_RMS
     0-0-0/w STRC(80)    r     1 KV$VDO_RQSDAT              0-0-0/w STRC(16)    r     1 KV$VDO_RQSMRK
     0-0-0/w STRC(48)    r     1 KV$VDO_RQSPRM              0-0-0/w STRC(16)    r     1 KV$VDO_RQSSTT
     0-0-0/w STRC(16)    r     1 KV$VDO_SLCFLD              0-0-0/w STRC(32)    r     1 KV$VDO_SLCGRPRND
     0-0-0/w STRC(32)    r     1 KV$VDO_SLCQLF              0-0-0/w STRC(32)    r     1 KV$VDO_SMS
     0-0-0/w STRC(16)    r     1 KV$VDO_STT                 0-0-0/w STRC(16)    r     1 KV$VDO_UPDRELDVC


   No code generated for procedure KNA_DATA_D .
   Procedure KNA_DATA_D requires 4 words of local(AUTO) storage.

    No errors detected in file KNA_DATA_D.:E05TSI    .
PL6.E3A0      #001=KNA_DATA_D File=KNA_DATA_D.:E05TSI                            WED 07/30/97 00:58 Page:12
          *** CROSS REFERENCE LISTING ***
**     DENOTES     IDENTIFIER DEFINITION
<<                 IDENTIFIER'S VALUE SET
>>                 IDENTIFIER'S VALUE USED
<>                 IDENTIFIER SET AND/OR USED
--                 IDENTIFIER REFERENCED
PL6.E3A0      #001=KNA_DATA_D File=KNA_DATA_D.:E05TSI                            WED 07/30/97 00:58 Page:13
          MINI XREF LISTING

KNA_RWPARM_CON.BLKREC
      8644**DCL      8669--REDEF
KNA_RWPARM_CON.DVE.DVBYTE.VFC
      8684**DCL      8685--REDEF
KNA_RWPARM_CON.DVE.EOMCHAR
      8692**DCL      8696--REDEF
KNA_RWPARM_CON.ERR
      8756**DCL      8761--REDEF
KNA_RWPARM_CON.FC
      8720**DCL      8721--REDEF
KNA_RWPARM_CON.FLDID
      8902**DCL      8903--REDEF
KNA_RWPARM_CON.KEYTYPE
      8909**DCL      8910--REDEF
KNA_RWPARM_CON.MSG$
      8615**DCL      8616--REDEF    8625--REDEF
KNA_RWPARM_CON.MSGID
      8731**DCL      8736--REDEF
KNA_RWPARM_CON.MSGIDXT
      8744**DCL      8748--REDEF
KNA_RWPARM_CON.ORG
      8880**DCL      8881--REDEF
KNA_RWPARM_CON.VDOFLGS
      8882**DCL      8893--REDEF
KNA_WINDOW
      9586**DCL      9614--DCLINIT
KNA_WINDOW.FWINDOW
      9586**DCL      9586--REDEF    9587--REDEF
KV$VDO_BLKDAT
      6368**DCL      8587--DCLINIT
KV$VDO_CLSSSN
      6412**DCL      8587--DCLINIT  8587--DCLINIT
PL6.E3A0      #001=KNA_DATA_D File=KNA_DATA_D.:E05TSI                            WED 07/30/97 00:58 Page:14
KV$VDO_CLSSTR
      6455**DCL      8592--DCLINIT
KV$VDO_DAT
      6499**DCL      8587--DCLINIT  8588--DCLINIT
KV$VDO_DCLFLD
      6545**DCL      8588--DCLINIT
KV$VDO_DCLSTR
      6672**DCL      8588--DCLINIT
KV$VDO_DLT
      6716**DCL      8588--DCLINIT
KV$VDO_DSC
      6762**DCL      8588--DCLINIT  8588--DCLINIT
KV$VDO_ERS
      6805**DCL      8588--DCLINIT
KV$VDO_EVT
      6849**DCL      8589--DCLINIT
KV$VDO_HVPS
      6892**DCL      8589--DCLINIT
KV$VDO_MRK
      6935**DCL      8591--DCLINIT
KV$VDO_NOP
      6977**DCL      8589--DCLINIT
KV$VDO_OPNSSN
      7019**DCL      8589--DCLINIT  8589--DCLINIT
KV$VDO_OPNSTR
      7062**DCL      8592--DCLINIT
KV$VDO_PRM
      7106**DCL      8589--DCLINIT  8590--DCLINIT
KV$VDO_RLSFLD
      7148**DCL      8590--DCLINIT
KV$VDO_RMS
      7190**DCL      8590--DCLINIT
KV$VDO_RQSDAT
      7232**DCL      8590--DCLINIT
KV$VDO_RQSMRK
      7281**DCL      8592--DCLINIT
PL6.E3A0      #001=KNA_DATA_D File=KNA_DATA_D.:E05TSI                            WED 07/30/97 00:58 Page:15
KV$VDO_RQSPRM
      7323**DCL      8590--DCLINIT
KV$VDO_RQSSTT
      7367**DCL      8590--DCLINIT
KV$VDO_SLCFLD
      7409**DCL      8590--DCLINIT
KV$VDO_SLCGRPRND
      7451**DCL      8591--DCLINIT
KV$VDO_SLCQLF
      7534**DCL      8591--DCLINIT
KV$VDO_SMS
      7620**DCL      8591--DCLINIT
KV$VDO_STT
      7663**DCL      8591--DCLINIT
KV$VDO_UPDRELDVC
      7705**DCL      8591--DCLINIT
