PL6.E3A0      #003=KNH$OPEN File=KNH$HMI.:E05TSI                                 WED 07/30/97 01:05 Page:154
      963        1        /*T***********************************************************/
      964        2        /*T*                                                         */
      965        3        /*T* Copyright (c) Bull HN Information Systems Inc., 1997    */
      966        4        /*T*                                                         */
      967        5        /*T***********************************************************/
      968        6        /*X*     NSO,PLM=3,SQB=Y,AND=Y,ENI=0,SDI=3,MCL=10,CSI=0,ECI=0,IAD=3,IND=0 */
      969        7        KNH$OPEN: PROC (VLP_HMI,ERR) ALTRET;
      970        8
      971        9        /*F* NAME: KNH$OPEN
      972       10             PURPOSE:
      973       11                  To open the Handler Monitor Interface for a handler.
      974       12             DESCRIPTION:
      975       13                  When an M$OPEN is issued by a handler with ORG=HMI,
      976       14                  this routine acquires the memory and sets up the users
      977       15                  map for the HMI.
      978       16              */
      979       17
      980       18        /* Include files */
      981       19        %INCLUDE KN_ERRORS_C;
      982       83        %INCLUDE GF_LCP6_M;
      983      551        %INCLUDE GH_LCP6_M;
      984     1385        %INCLUDE GH_SCHD_E;
      985     1481        %INCLUDE GH_SCHD_M;
      986     1625        %INCLUDE GM_MACRO_M;
      987     2107        %INCLUDE GM_VIRTUAL_E;
      988     2317        %INCLUDE G_LCP6_E;
      989     2575        %INCLUDE GU_LCP6_M;
      990     3503        %INCLUDE G_HJIT_M;
      991     3648        %INCLUDE G_JIT_M;
      992     3913        %INCLUDE GH_GATE_M;
      993     3954        %INCLUDE KN_DATA_M;
      994     5740        %INCLUDE KNH_MACRO_C;
      995     6023        %INCLUDE K_REASON_C;
      996     6049
      997     6050        /* Parameters */
      998     6051        %VLP_HMI (STCLASS="");
      999     6067    1   DCL ERR BIT(32) ALIGNED;                /* Error code returned if an altret   */
PL6.E3A0      #003=KNH$OPEN File=KNH$HMI.:E05TSI                                 WED 07/30/97 01:05 Page:155
     1000     6068
     1001     6069        /* Entry point references */
     1002     6070    1   DCL GHS$REG ENTRY(2) ALTRET;
     1003     6071    1   DCL GHH$ASD ENTRY(2);
     1004     6072    1   DCL GMA$GET ENTRY(5) ALTRET;
     1005     6073    1   DCL GMA$GETIO ENTRY(5) ALTRET;
     1006     6074    1   DCL GMA$REL ENTRY(2) ALTRET;
     1007     6075    1   DCL GMA$REL_ACCTMEM ENTRY(1) ALTRET;
     1008     6076    1   DCL GMA$CHKSIZE ENTRY(1) ALTRET;
     1009     6077    1   DCL KNH$SCAN ENTRY(2) ALTRET;
     1010     6078    1   DCL KNN$RECV ENTRY(1) ALTRET;
     1011     6079    1   DCL KNS$SEND ENTRY(1) ALTRET;
     1012     6080    1   DCL KNB$INIT ENTRY;
     1013     6081
     1014     6082        /* Macro invocations */
     1015     6083        %G$UHJIT (STCLASS="BASED(G$UHJIT$)");
     1016     9057        %G$JIT (STCLASS="BASED(G$JIT$)");
     1017     9471        %G$USER (FPTN="G$USER(0:0)",STCLASS="BASED(G$USRT$)");
     1018     9482        %GATE (FPTN=G$GATE, STCLASS=BASED);
     1019     9501        %KNH$HMI (STCLASS="BASED(HMI$)");
     1020     9508        %KNH$QHDR (STCLASS="BASED(G$HAND_Q$)");
     1021     9521        %KN$LDCT(STCLASS="BASED(DCT$)");
     1022     9766        %KN$DCT$;
     1023     9769        %GM_CHKSZ_PARAMS (FPTN=CHKSZ, STCLASS=AUTO);
     1024     9863        %KN$NETPARM(STCLASS=AUTO,NAME=NETPARM) ;
     1025    10016        %FPT_TERM(FPTN=FPT$TERM,STCLASS=AUTO);
     1026    10038        %FPT_CONNECT_ACK (FPTN=FPT$CONNECT_ACK,STCLASS=AUTO);
     1027    10087
     1028    10088        /* Symref items */
     1029    10089        %KN$NETPARM (NAME=KN_NETPARM_INIT,STCLASS=SYMREF);
     1030    10242    1   DCL G$JIT$ PTR SYMREF READONLY;
     1031    10243    1   DCL G$UHJIT$ PTR SYMREF;
     1032    10244    1   DCL G$USRT$ PTR SYMREF;
     1033    10245    1   DCL G$HAND_Q$ PTR SYMREF;
     1034    10246    1   DCL KN_LDCT_MAX# UBIN SYMREF;
     1035    10247    1   DCL KN_HMI$ PTR SYMREF;
     1036    10248    1   DCL KN_HMI# UBIN SYMREF;
PL6.E3A0      #003=KNH$OPEN File=KNH$HMI.:E05TSI                                 WED 07/30/97 01:05 Page:156
     1037    10249    1   DCL KN_DCT$$ PTR SYMREF;
     1038    10250
     1039    10251        /* Auto variables */
     1040    10252    1   DCL PPS UBIN;
     1041    10253    1   DCL HMI$ PTR;
     1042    10254    1   DCL I UBIN;
     1043    10255    1   DCL USR# UBIN;
     1044    10256    1   DCL DCT$ PTR ;
     1045    10257        /* Error codes */
     1046    10258        %VLP_ERRCODE (FPTN=NOCQMEM,
     1047    10259         FCG=KN,
     1048    10260         MID=H,
     1049    10261         MON='1'B,
     1050    10262         ERR#=%E$NOCQMEM,
     1051    10263         SEV=G_SEV_ERROR#,
     1052    10264         STCLASS=CONSTANT);
     1053    10310        /*E*
     1054    10311             ERROR: KNH-E$NOCQMEM-G_SEV_ERR#
     1055    10312             MESSAGE1: No memory available for Handler Monitor Interface
     1056    10313         */
     1057    10314        %VLP_ERRCODE (FPTN=NOHMI,
     1058    10315         FCG=KN,
     1059    10316         MID=H,
     1060    10317         MON='1'B,
     1061    10318         ERR#=%E$NOHMI,
     1062    10319         SEV=G_SEV_ERROR#,
     1063    10320         STCLASS=CONSTANT);
     1064    10366        /*E*
     1065    10367             ERROR: KNH-E$NOHMI-G_SEV_ERROR#
     1066    10368             MESSAGE: No HMI entry available.
     1067    10369             MESSAGE1: All the available HMI entries are used.
     1068    10370             */
     1069    10371        %VLP_ERRCODE (FPTN=ONEHMI,
     1070    10372         FCG=KN,
     1071    10373         MID=H,
     1072    10374         MON='1'B,
     1073    10375         ERR#=%E$ONEHMI,
PL6.E3A0      #003=KNH$OPEN File=KNH$HMI.:E05TSI                                 WED 07/30/97 01:05 Page:157
     1074    10376         SEV=G_SEV_ERROR#,
     1075    10377         STCLASS=CONSTANT);
     1076    10423        /*E*
     1077    10424             ERROR: KNH-E$ONEHMI-G_SEV_ERR#
     1078    10425             MESSAGE1: Only one DCB open to ORG=CQ is allowed
     1079    10426         */
     1080    10427
     1081    10428
     1082    10429
     1083    10430        %EJECT;
PL6.E3A0      #003=KNH$OPEN File=KNH$HMI.:E05TSI                                 WED 07/30/97 01:05 Page:158
     1084    10431    1      IF G$USER.HMI$(G$JIT.USR#) ~= ADDR(NIL)
     1085    10432    2      THEN DO;
     1086    10433    2         ERR = ONEHMI;
     1087    10434    2         ALTRETURN;
     1088    10435    2      END;
     1089    10436        /* Find an available HMI slot for this user */
     1090    10437    1      HMI$ = KN_HMI$ ;
     1091    10438    1   L_LEXIT:
     1092    10439    2      DO ;
     1093    10440    3         DO I = 1 TO KN_HMI#;
     1094    10441                 %LOCK (G=KNH$HMI.SCQ.LOCK);
     1095    10448    3            IF KNH$HMI.USER# = 0
     1096    10449    3            THEN
     1097    10450    3            EXIT L_LEXIT ;
     1098    10451
     1099    10452                 %UNLOCK (G=KNH$HMI.SCQ.LOCK);
     1100    10459
     1101    10460    3            HMI$ = PINCRW(HMI$,SIZEW(KNH$HMI)) ;
     1102    10461    3         END;
     1103    10462    2         ERR = NOHMI;
     1104    10463    2         ALTRETURN;
     1105    10464    2      END L_LEXIT ;
     1106    10465
     1107    10466    1      KNH$HMI.USER# = G$JIT.USR#;
     1108    10467           %UNLOCK (G=KNH$HMI.SCQ.LOCK);
     1109    10474
     1110    10475    1      PPS = (VLP_HMI.CTXSIZE + VLP_HMI.RCQSIZE +
     1111    10476    1        VLP_HMI.SCQSIZE + SIZEW(KNH$QHDR) + 255)/256;
     1112    10477
     1113    10478    1      CHKSZ='0'B;
     1114    10479    1      CHKSZ.SIZE = PPS;
     1115    10480    1      CHKSZ.FLGS.REQ_ALL = '1'B;
     1116    10481    1      CHKSZ.FLGS.PARK = '1'B;
     1117    10482    1      IF VLP_HMI.IO THEN CHKSZ.FLGS.NSHUF = '1'B;
     1118    10483    1      CALL GMA$CHKSIZE(CHKSZ)
     1119    10484    2      WHENALTRETURN DO;
     1120    10485    2         KNH$HMI.USER# = 0;
PL6.E3A0      #003=KNH$OPEN File=KNH$HMI.:E05TSI                                 WED 07/30/97 01:05 Page:159
     1121    10486    2         ERR = NOCQMEM;
     1122    10487    2         ALTRETURN;
     1123    10488    2      END;
     1124    10489    1      IF CHKSZ.FLGS.NSHUF
     1125    10490    2      THEN DO;
     1126    10491    2         CALL GMA$GETIO (%GM_HAND_Q#,PPS,%G_R_USR#,%G_R_USR#,%G_RING0#)
     1127    10492    3         WHENALTRETURN DO;
     1128    10493    3            ERR = NOCQMEM;
     1129    10494    3            ALTRETURN;
     1130    10495    3         END;
     1131    10496    2      END;
     1132    10497    2      ELSE DO;
     1133    10498    2         CALL GMA$GET (%GM_HAND_Q#,PPS,%G_R_USR#,%G_R_USR#,%G_RING0#);
     1134    10499    2      END;
     1135    10500
     1136    10501    1      G$JIT.CQPC = G$JIT.CQPC + PPS;
     1137    10502
     1138    10503        /* Put HMI index into user table */
     1139    10504    1      G$USER.HMI$(G$JIT.USR#) = HMI$ ;
     1140    10505    1      KNH$HMI.PP# = G$UHJIT.ASDT_USR.HAND_Q.BASE;
     1141    10506    1      KNH$HMI.PPSZ = PPS - 1;
     1142    10507
     1143    10508    1      G$UHJIT.ASDT_MCL.HAND_Q = G$UHJIT.ASDT_USR.HAND_Q;
     1144    10509    1      CALL GHH$ASD(G$HAND_Q$,G$UHJIT.ASDT_MCL.HAND_Q);
     1145    10510
     1146    10511        /* Initialize the header */
     1147    10512    1      KNH$QHDR = '0'B;
     1148    10513
     1149    10514        /* Use all the memory we allocated. */
     1150    10515    1      PPS = (PPS*256 - SIZEW(KNH$QHDR) -
     1151    10516    1        VLP_HMI.CTXSIZE - VLP_HMI.RCQSIZE - VLP_HMI.SCQSIZE)/2;
     1152    10517    1      KNH$QHDR.RCQ.SZ = (VLP_HMI.RCQSIZE + PPS)/2;
     1153    10518    1      KNH$QHDR.SCQ.SZ = (VLP_HMI.SCQSIZE + PPS)/2;
     1154    10519    1      KNH$QHDR.CTX.SZ = VLP_HMI.CTXSIZE;
     1155    10520    1      KNH$QHDR.CTX.OFFSET = SIZEW(KNH$QHDR);
     1156    10521    1      KNH$QHDR.RCQ.OFFSET = KNH$QHDR.CTX.OFFSET + VLP_HMI.CTXSIZE;
     1157    10522    1      KNH$QHDR.SCQ.OFFSET = KNH$QHDR.RCQ.OFFSET + KNH$QHDR.RCQ.SZ*2;
PL6.E3A0      #003=KNH$OPEN File=KNH$HMI.:E05TSI                                 WED 07/30/97 01:05 Page:160
     1158    10523        /* Initialize KNH$HMI */
     1159    10524    1      KNH$HMI.SCQ = KNH$QHDR.SCQ;
     1160    10525    1      KNH$HMI.RCQ = KNH$QHDR.RCQ;
     1161    10526    1      ADDR(KNH$HMI.SCQ.LOCK)->G$GATE.FLG = '1'B;
     1162    10527    1      ADDR(KNH$HMI.RCQ.LOCK)->G$GATE.FLG = '1'B;
     1163    10528    1      KNH$HMI.WAIT_HEAD$ = ADDR(NIL);
     1164    10529    1      KNH$HMI.WAIT_COUNT = 0;
     1165    10530    1      KNH$HMI.CTX.SZ = VLP_HMI.CTXSIZE;
     1166    10531    1      KNH$HMI.CTX.OFFSET = SIZEW(KNH$QHDR);
     1167    10532    1      KNH$HMI.SCQ.SCANNED = '0'B;
     1168    10533    1      KNH$HMI.SCQ.CLOSING = '0'B;
     1169    10534
     1170    10535        /* If this is user 1 initialize the monitor connection */
     1171    10536    1      IF KNH$HMI.USER# = 1
     1172    10537    1      THEN
     1173    10538    1      CALL KNB$INIT;
     1174    10539    1      RETURN;
     1175    10540
     1176    10541        %EJECT;
PL6.E3A0      #003=KNH$OPEN File=KNH$HMI.:E05TSI                                 WED 07/30/97 01:05 Page:161
     1177    10542    1   KNH$CLOSE: ENTRY ALTRET;
     1178    10543
     1179    10544        /*F*  NAME:    KNH$CLOSE
     1180    10545              PURPOSE: To close down a circular queue.
     1181    10546              DESCRIPTION:
     1182    10547                       All LDCTs associated with the queue are terminated
     1183    10548              and the ASDTs are NILed out.  The memory for the queue is
     1184    10549              released.
     1185    10550                                                        */
     1186    10551
     1187    10552    1      USR# = G$JIT.USR# ;
     1188    10553    1      HMI$ = G$USER.HMI$(USR#) ;
     1189    10554    1      PPS = KNH$HMI.PPSZ + 1 ;
     1190    10555    1      KNH$HMI.SCQ.CLOSING = '1'B;
     1191    10556
     1192    10557        /* Call KNH$SCAN to free up anyone waiting for this HMI interface */
     1193    10558    1      CALL KNH$SCAN;
     1194    10559
     1195    10560
     1196    10561    2      DO WHILE (KNH$HMI.LDCTS# > 0);
     1197    10562
     1198    10563    3         DO I = 1 TO KN_LDCT_MAX# ;
     1199    10564
     1200    10565    3            DCT$ = KN$DCT$(I) ;
     1201    10566    3            IF DCT$ ~= ADDR(NIL) THEN
     1202    10567    3            IF KN$LDCT.STATE ~= %KN_ST_NULL THEN
     1203    10568    3            IF USR# = KN$LDCT.USER# THEN
     1204    10569    4            DO ;
     1205    10570    4               NETPARM = KN_NETPARM_INIT;
     1206    10571    4               NETPARM.LDCT$ = DCT$ ;
     1207    10572    4               FPT$TERM.RLCID = KN$LDCT.RLCID ;
     1208    10573    4               FPT$TERM.REASON = %KN_TERM_REASON_CLOSE ;
     1209    10574    4               FPT$CONNECT_ACK.REASON = %K_REASON_USRREJ;
     1210    10575
     1211    10576    4               IF KN$LDCT.CONN_TYPE=%KN_CNTYPE_LINK
     1212    10577    5               THEN DO;
     1213    10578    5                  NETPARM.FUNCTION = %KN_FCN_TERM;
PL6.E3A0      #003=KNH$OPEN File=KNH$HMI.:E05TSI                                 WED 07/30/97 01:05 Page:162
     1214    10579    5                  NETPARM.FPT$ = ADDR(FPT$TERM);
     1215    10580    5                  CALL KNN$RECV(NETPARM);
     1216    10581    5               END;
     1217    10582    4               ELSE
     1218    10583    5               DO CASE (KN$LDCT.STATE);
     1219    10584
     1220    10585    5               CASE (%KN_ST_ACTIVE);
     1221    10586    5                  NETPARM.FUNCTION = %KN_FCN_TERM;
     1222    10587    5                  NETPARM.FPT$ = ADDR(FPT$TERM);
     1223    10588    5                  CALL KNS$SEND(NETPARM);
     1224    10589
     1225    10590    5               CASE (%KN_ST_WIAFL,%KN_ST_WTIAFLNT,%KN_ST_WTAFLNT);
     1226    10591    5                  NETPARM.FUNCTION = %KN_FCN_INIT_ACK;
     1227    10592    5                  NETPARM.FPT$ = ADDR(FPT$CONNECT_ACK);
     1228    10593    5                  CALL KNS$SEND(NETPARM);
     1229    10594
     1230    10595    5               CASE (%KN_ST_WTAFL);
     1231    10596    5                  NETPARM.FUNCTION = %KN_FCN_TERM;
     1232    10597    5                  NETPARM.FPT$ = ADDR(FPT$TERM);
     1233    10598    5                  CALL KNS$SEND(NETPARM);
     1234    10599
     1235    10600    5               END;
     1236    10601    4            END ;
     1237    10602
     1238    10603    3         END ;
     1239    10604
     1240    10605    2         CALL GHS$REG(%GH_EVSL,10);
     1241    10606    2      END;                                 /* DO WHILE (KNH$HMI.LDCTS# > 0)      */
     1242    10607
     1243    10608
     1244    10609    1      G$USER.HMI$(USR#) = ADDR(NIL);
     1245    10610    1      G$UHJIT.ASDT_MCL.HAND_Q.V = '0'B;
     1246    10611    1      CALL GMA$REL_ACCTMEM(PPS);
     1247    10612    1      CALL GMA$REL(%GM_HAND_Q#,PPS);
     1248    10613    1      G$JIT.CQPC = G$JIT.CQPC - PPS;
     1249    10614    1      KNH$HMI.USER# = 0 ;
     1250    10615
PL6.E3A0      #003=KNH$OPEN File=KNH$HMI.:E05TSI                                 WED 07/30/97 01:05 Page:163
     1251    10616    1      RETURN ;
     1252    10617
     1253    10618    1   END KNH$OPEN;

PL6.E3A0      #003=KNH$OPEN File=KNH$HMI.:E05TSI                                 WED 07/30/97 01:05 Page:164
--  Include file information  --

   K_REASON_C.:E05TOU  is referenced.
   KNH_MACRO_C.:E05TOU  is referenced.
   KN_DATA_M.:E05TOU  is referenced.
   GH_GATE_M.:E05TOU  cannot be made into a system file and is referenced.
   G_JIT_M.:E05TOU  is referenced.
   G_HJIT_M.:E05TOU  is referenced.
   GU_LCP6_M.:E05TOU  is referenced.
   G_LCP6_E.:E05TOU  is referenced.
   GM_VIRTUAL_E.:E05TOU  is referenced.
   GM_MACRO_M.:E05TOU  is referenced.
   GH_SCHD_M.:E05TOU  is referenced.
   GH_SCHD_E.:E05TOU  is referenced.
   GH_LCP6_M.:E05TOU  is referenced.
   GF_LCP6_M.:E05TOU  is referenced.
   KN_ERRORS_C.:E05TOU  is referenced.
      No diagnostics issued in procedure KNH$OPEN.

   Procedure KNH$OPEN requires 709 words for executable code.
   Procedure KNH$OPEN requires 72 words of local(AUTO) storage.

    No errors detected in file KNH$HMI.:E05TSI    .

PL6.E3A0      #003=KNH$OPEN File=KNH$HMI.:E05TSI                                 WED 07/30/97 01:05 Page:165

 Object Unit name= KNH$OPEN                                   File name= KNH$HMI.:E05TOU
 UTS= JUL 30 '97 01:05:51.20 WED                              Compiler= PL-6/E31         Sev=      00
 SharedLib= :SHARED_LCP6_SYSTEM                               Alt SharedLib=


    ****  Control sections  ****

 Sect   Type Bound  Init  Size HexSiz  Section name
    0  RoData even  UTS      6      6  KNH$OPEN
    1   Proc  even  none   709    2C5  KNH$OPEN
    2  RoData even  none     6      6  KNH$OPEN

    ****  Entry defs  ****

                              Check   Calling
                             calling  sequence
  Sect HexLoc Primary Altret sequence   type   Parms  Name
     1      0   yes    yes     yes      Std        2  KNH$OPEN
     1    1AB          yes     yes      Std        0  KNH$CLOSE
PL6.E3A0      #003=KNH$OPEN File=KNH$HMI.:E05TSI                                 WED 07/30/97 01:05 Page:166

  ****  Entry refs  ****

         Check        Calling
        calling       sequence
Altret sequence SRef   type   Args  Name
 yes     yes           Std       1 GHH$LOCK
 yes     yes           Std       1 GHH$UNLOCK
 yes     yes           Std       5 GMA$GETIO
 yes     yes           Std       5 GMA$GET
 yes     yes           Std       1 GMA$REL_ACCTMEM
         yes           Std       2 GHH$ASD
 yes     yes           Std       2 KNH$SCAN
 yes     yes           Std       1 KNN$RECV
 yes     yes           Std       1 GMA$CHKSIZE
 yes     yes           Std       1 KNS$SEND
 yes     yes           Std       2 GHS$REG
         yes           Std       0 KNB$INIT
 yes     yes           Std       2 GMA$REL
                       nStd      0 X6A_AUTO_2
                       nStd      0 X6A_AALT
                       nStd      0 X6A_ARET

  ****  Data refs  ****

  Flags:  r = read only, s = secondary
Flgs Name                             Flgs Name                             Flgs Name
     KN_NETPARM_INIT                  r    G$JIT$                                G$UHJIT$
     G$USRT$                               G$HAND_Q$                             KN_LDCT_MAX#
     KN_HMI$                               KN_HMI#                               KN_DCT$$
r    G$ROS$
PL6.E3A0      #003=KNH$OPEN File=KNH$HMI.:E05TSI                                 WED 07/30/97 01:05 Page:167


      963        1        /*T***********************************************************/
      964        2        /*T*                                                         */
      965        3        /*T* Copyright (c) Bull HN Information Systems Inc., 1997    */
      966        4        /*T*                                                         */
      967        5        /*T***********************************************************/
      968        6        /*X*     NSO,PLM=3,SQB=Y,AND=Y,ENI=0,SDI=3,MCL=10,CSI=0,ECI=0,IAD=3,IND=0 */
      969        7        KNH$OPEN: PROC (VLP_HMI,ERR) ALTRET;

      7   1 000000  D380 0000 0000  xent KNH$OPEN        LNJ,B5   X6A_AUTO_2
          1 000003       0048 0002                       DC       72,2

      970        8
      971        9        /*F* NAME: KNH$OPEN
      972       10             PURPOSE:
      973       11                  To open the Handler Monitor Interface for a handler.
      974       12             DESCRIPTION:
      975       13                  When an M$OPEN is issued by a handler with ORG=HMI,
      976       14                  this routine acquires the memory and sets up the users
      977       15                  map for the HMI.
      978       16              */
      979       17
      980       18        /* Include files */
      981       19        %INCLUDE KN_ERRORS_C;
      982       83        %INCLUDE GF_LCP6_M;
      983      551        %INCLUDE GH_LCP6_M;
      984     1385        %INCLUDE GH_SCHD_E;
      985     1481        %INCLUDE GH_SCHD_M;
      986     1625        %INCLUDE GM_MACRO_M;
      987     2107        %INCLUDE GM_VIRTUAL_E;
      988     2317        %INCLUDE G_LCP6_E;
      989     2575        %INCLUDE GU_LCP6_M;
      990     3503        %INCLUDE G_HJIT_M;
      991     3648        %INCLUDE G_JIT_M;
      992     3913        %INCLUDE GH_GATE_M;
      993     3954        %INCLUDE KN_DATA_M;
      994     5740        %INCLUDE KNH_MACRO_C;
PL6.E3A0      #003=KNH$OPEN File=KNH$HMI.:E05TSI                                 WED 07/30/97 01:05 Page:168
      995     6023        %INCLUDE K_REASON_C;
      996     6049
      997     6050        /* Parameters */
      998     6051        %VLP_HMI (STCLASS="");
      999     6067    1   DCL ERR BIT(32) ALIGNED;                /* Error code returned if an altret   */
     1000     6068
     1001     6069        /* Entry point references */
     1002     6070    1   DCL GHS$REG ENTRY(2) ALTRET;
     1003     6071    1   DCL GHH$ASD ENTRY(2);
     1004     6072    1   DCL GMA$GET ENTRY(5) ALTRET;
     1005     6073    1   DCL GMA$GETIO ENTRY(5) ALTRET;
     1006     6074    1   DCL GMA$REL ENTRY(2) ALTRET;
     1007     6075    1   DCL GMA$REL_ACCTMEM ENTRY(1) ALTRET;
     1008     6076    1   DCL GMA$CHKSIZE ENTRY(1) ALTRET;
     1009     6077    1   DCL KNH$SCAN ENTRY(2) ALTRET;
     1010     6078    1   DCL KNN$RECV ENTRY(1) ALTRET;
     1011     6079    1   DCL KNS$SEND ENTRY(1) ALTRET;
     1012     6080    1   DCL KNB$INIT ENTRY;
     1013     6081
     1014     6082        /* Macro invocations */
     1015     6083        %G$UHJIT (STCLASS="BASED(G$UHJIT$)");
     1016     9057        %G$JIT (STCLASS="BASED(G$JIT$)");
     1017     9471        %G$USER (FPTN="G$USER(0:0)",STCLASS="BASED(G$USRT$)");
     1018     9482        %GATE (FPTN=G$GATE, STCLASS=BASED);
     1019     9501        %KNH$HMI (STCLASS="BASED(HMI$)");
     1020     9508        %KNH$QHDR (STCLASS="BASED(G$HAND_Q$)");
     1021     9521        %KN$LDCT(STCLASS="BASED(DCT$)");
     1022     9766        %KN$DCT$;
     1023     9769        %GM_CHKSZ_PARAMS (FPTN=CHKSZ, STCLASS=AUTO);
     1024     9863        %KN$NETPARM(STCLASS=AUTO,NAME=NETPARM) ;
     1025    10016        %FPT_TERM(FPTN=FPT$TERM,STCLASS=AUTO);
     1026    10038        %FPT_CONNECT_ACK (FPTN=FPT$CONNECT_ACK,STCLASS=AUTO);
     1027    10087
     1028    10088        /* Symref items */
     1029    10089        %KN$NETPARM (NAME=KN_NETPARM_INIT,STCLASS=SYMREF);
     1030    10242    1   DCL G$JIT$ PTR SYMREF READONLY;
     1031    10243    1   DCL G$UHJIT$ PTR SYMREF;
PL6.E3A0      #003=KNH$OPEN File=KNH$HMI.:E05TSI                                 WED 07/30/97 01:05 Page:169
     1032    10244    1   DCL G$USRT$ PTR SYMREF;
     1033    10245    1   DCL G$HAND_Q$ PTR SYMREF;
     1034    10246    1   DCL KN_LDCT_MAX# UBIN SYMREF;
     1035    10247    1   DCL KN_HMI$ PTR SYMREF;
     1036    10248    1   DCL KN_HMI# UBIN SYMREF;
     1037    10249    1   DCL KN_DCT$$ PTR SYMREF;
     1038    10250
     1039    10251        /* Auto variables */
     1040    10252    1   DCL PPS UBIN;
     1041    10253    1   DCL HMI$ PTR;
     1042    10254    1   DCL I UBIN;
     1043    10255    1   DCL USR# UBIN;
     1044    10256    1   DCL DCT$ PTR ;
     1045    10257        /* Error codes */
     1046    10258        %VLP_ERRCODE (FPTN=NOCQMEM,
     1047    10259         FCG=KN,
     1048    10260         MID=H,
     1049    10261         MON='1'B,
     1050    10262         ERR#=%E$NOCQMEM,
     1051    10263         SEV=G_SEV_ERROR#,
     1052    10264         STCLASS=CONSTANT);
     1053    10310        /*E*
     1054    10311             ERROR: KNH-E$NOCQMEM-G_SEV_ERR#
     1055    10312             MESSAGE1: No memory available for Handler Monitor Interface
     1056    10313         */
     1057    10314        %VLP_ERRCODE (FPTN=NOHMI,
     1058    10315         FCG=KN,
     1059    10316         MID=H,
     1060    10317         MON='1'B,
     1061    10318         ERR#=%E$NOHMI,
     1062    10319         SEV=G_SEV_ERROR#,
     1063    10320         STCLASS=CONSTANT);
     1064    10366        /*E*
     1065    10367             ERROR: KNH-E$NOHMI-G_SEV_ERROR#
     1066    10368             MESSAGE: No HMI entry available.
     1067    10369             MESSAGE1: All the available HMI entries are used.
     1068    10370             */
PL6.E3A0      #003=KNH$OPEN File=KNH$HMI.:E05TSI                                 WED 07/30/97 01:05 Page:170
     1069    10371        %VLP_ERRCODE (FPTN=ONEHMI,
     1070    10372         FCG=KN,
     1071    10373         MID=H,
     1072    10374         MON='1'B,
     1073    10375         ERR#=%E$ONEHMI,
     1074    10376         SEV=G_SEV_ERROR#,
     1075    10377         STCLASS=CONSTANT);
     1076    10423        /*E*
     1077    10424             ERROR: KNH-E$ONEHMI-G_SEV_ERR#
     1078    10425             MESSAGE1: Only one DCB open to ORG=CQ is allowed
     1079    10426         */
     1080    10427
     1081    10428
     1082    10429
     1083    10430        %EJECT;
PL6.E3A0      #003=KNH$OPEN File=KNH$HMI.:E05TSI                                 WED 07/30/97 01:05 Page:171
     1084    10431    1      IF G$USER.HMI$(G$JIT.USR#) ~= ADDR(NIL)

  10431   1 000005  EC80 0000 0000  xsym                 LDB,B6   G$JIT$
          1 000008  B846 0004                            LDR,R3   4,B6
          1 00000A  B570 00FF                            AND,R3   255,IMO
          1 00000C  DC80 0000 0000  xsym                 LDB,B5   G$USRT$
          1 00000F  3F0C                                 MLV,R3   12
          1 000010  3E0A                                 ADV,R3   10
          1 000011  8DB5                                 CMN      ,B5,R3
          1 000012  0901 000A                            BE       s:10437,PREL

     1085    10432    2      THEN DO;

     1086    10433    2         ERR = ONEHMI;

  10433   1 000014  8C80 0000 0004  00                   LDI      ONEHMI
          1 000017  CCC7 0006                            LDB,B4   @ERR,AUTO
          1 000019  8D04                                 SDI      ,B4

     1087    10434    2         ALTRETURN;

  10434   1 00001A  C380 0000 0000  xent                 LNJ,B4   X6A_AALT

     1088    10435    2      END;
     1089    10436        /* Find an available HMI slot for this user */
     1090    10437    1      HMI$ = KN_HMI$ ;

  10437   1 00001D  CC80 0000 0000  xsym                 LDB,B4   KN_HMI$
          1 000020  CFC7 0038                            STB,B4   HMI$,AUTO

     1091    10438    1   L_LEXIT:
     1092    10439    2      DO ;

  10439   1                              L_LEXIT         null
     1093    10440    3         DO I = 1 TO KN_HMI#;

  10440   1 000022  6C01                 L_LEXIT         LDV,R6   1
PL6.E3A0      #003=KNH$OPEN File=KNH$HMI.:E05TSI                                 WED 07/30/97 01:05 Page:172
          1 000023  EF47 003A                            STR,R6   I,AUTO
          1 000025  0F81 0029                            B        s:10461+2,PREL

     1094    10441                 %LOCK (G=KNH$HMI.SCQ.LOCK);

  10446   1 000027  ECC7 0038                            LDB,B6   HMI$,AUTO
          1 000029  DBC6 000B                            LAB,B5   11,B6
          1 00002B  DFC7 003E                            STB,B5   DCT$+2,AUTO
          1 00002D  BBC7 003E                            LAB,B3   DCT$+2,AUTO
          1 00002F  CBF0 0100                            LAB,B4   256,IMO
          1 000031  E380 0000 0000  xent                 LNJ,B6   GHH$LOCK
          1 000034       0001                            DC       s:10448,PREL

     1095    10448    3            IF KNH$HMI.USER# = 0

  10448   1 000035  ECC7 0038                            LDB,B6   HMI$,AUTO
          1 000037  E846 0014                            LDR,R6   20,B6
          1 000039  6901 0024                            BEZ,R6   s:10466,PREL

     1096    10449    3            THEN
     1097    10450    3            EXIT L_LEXIT ;
     1098    10451
     1099    10452                 %UNLOCK (G=KNH$HMI.SCQ.LOCK);

  10457   1 00003B  DBC6 000B                            LAB,B5   11,B6
          1 00003D  DFC7 003E                            STB,B5   DCT$+2,AUTO
          1 00003F  BBC7 003E                            LAB,B3   DCT$+2,AUTO
          1 000041  CBF0 0100                            LAB,B4   256,IMO
          1 000043  E380 0000 0000  xent                 LNJ,B6   GHH$UNLOCK
          1 000046       0001                            DC       s:10460,PREL

     1100    10459
     1101    10460    3            HMI$ = PINCRW(HMI$,SIZEW(KNH$HMI)) ;

  10460   1 000047  ECC7 0038                            LDB,B6   HMI$,AUTO
          1 000049  DBC6 0019                            LAB,B5   25,B6
          1 00004B  DFC7 0038                            STB,B5   HMI$,AUTO
PL6.E3A0      #003=KNH$OPEN File=KNH$HMI.:E05TSI                                 WED 07/30/97 01:05 Page:173

     1102    10461    3         END;

  10461   1 00004D  8AC7 003A                            INC      I,AUTO
          1 00004F  E847 003A                            LDR,R6   I,AUTO
          1 000051  E900 0000 0000  xsym                 CMR,R6   KN_HMI#
          1 000054  03D3                                 BLE      s:10446,SPREL

     1103    10462    2         ERR = NOHMI;

  10462   1 000055  8C80 0000 0002  00                   LDI      NOHMI
          1 000058  ECC7 0006                            LDB,B6   @ERR,AUTO
          1 00005A  8D06                                 SDI      ,B6

     1104    10463    2         ALTRETURN;

  10463   1 00005B  C380 0000 0000  xent                 LNJ,B4   X6A_AALT

     1105    10464    2      END L_LEXIT ;
     1106    10465
     1107    10466    1      KNH$HMI.USER# = G$JIT.USR#;

  10466   1 00005E  DC80 0000 0000  xsym                 LDB,B5   G$JIT$
          1 000061  E845 0004                            LDR,R6   4,B5
          1 000063  E570 00FF                            AND,R6   255,IMO
          1 000065  EF46 0014                            STR,R6   20,B6

     1108    10467           %UNLOCK (G=KNH$HMI.SCQ.LOCK);

  10472   1 000067  CBC6 000B                            LAB,B4   11,B6
          1 000069  CFC7 003E                            STB,B4   DCT$+2,AUTO
          1 00006B  BBC7 003E                            LAB,B3   DCT$+2,AUTO
          1 00006D  CBF0 0100                            LAB,B4   256,IMO
          1 00006F  E380 0000 0000  xent                 LNJ,B6   GHH$UNLOCK
          1 000072       0001                            DC       s:10475,PREL

     1109    10474
PL6.E3A0      #003=KNH$OPEN File=KNH$HMI.:E05TSI                                 WED 07/30/97 01:05 Page:174
     1110    10475    1      PPS = (VLP_HMI.CTXSIZE + VLP_HMI.RCQSIZE +

  10475   1 000073  ECC7 0004                            LDB,B6   @VLP_HMI,AUTO
          1 000075  E846 0002                            LDR,R6   2,B6
          1 000077  EA46 0001                            ADD,R6   1,B6
          1 000079  EA06                                 ADD,R6   ,B6
          1 00007A  EA70 0117                            ADD,R6   279,IMO
          1 00007C  6048                                 SOR,R6   8
          1 00007D  EF47 0037                            STR,R6   PPS,AUTO

     1111    10476    1        VLP_HMI.SCQSIZE + SIZEW(KNH$QHDR) + 255)/256;
     1112    10477
     1113    10478    1      CHKSZ='0'B;

  10478   1 00007F  5C08                                 LDV,R5   8
          1 000080  0021                                 ALR      ;
          1 000081       4178 0000                                ALPHANUM('0000'X,IMO,,1),;
          1 000083       4007 0008                                ALPHANUM(CHKSZ,AUTO,,R5,FILL)

     1114    10479    1      CHKSZ.SIZE = PPS;

  10479   1 000085  437F                                 CSYNC    s:10478+5,SPREL
          1 000086  E847 0037                            LDR,R6   PPS,AUTO
          1 000088  EF47 0008                            STR,R6   CHKSZ,AUTO

     1115    10480    1      CHKSZ.FLGS.REQ_ALL = '1'B;

  10480   1 00008A  8947 000B                            LBT,'4000'X       CHKSZ+3,AUTO
  10480   1 00008C       4000

     1116    10481    1      CHKSZ.FLGS.PARK = '1'B;

  10481   1 00008D  8947 000B                            LBT,'2000'X       CHKSZ+3,AUTO
  10481   1 00008F       2000

     1117    10482    1      IF VLP_HMI.IO THEN CHKSZ.FLGS.NSHUF = '1'B;

PL6.E3A0      #003=KNH$OPEN File=KNH$HMI.:E05TSI                                 WED 07/30/97 01:05 Page:175
  10482   1 000090  89C6 0003                            CMZ      3,B6
          1 000092  0881 0004                            BAGE     s:10483,PREL

  10482   1 000094  8947 000B                            LBT,'1000'X       CHKSZ+3,AUTO
  10482   1 000096       1000

     1118    10483    1      CALL GMA$CHKSIZE(CHKSZ)

  10483   1 000097  DBC7 0008                            LAB,B5   CHKSZ,AUTO
          1 000099  DFC7 003E                            STB,B5   DCT$+2,AUTO
          1 00009B  BBC7 003E                            LAB,B3   DCT$+2,AUTO
          1 00009D  CBF0 0100                            LAB,B4   256,IMO
          1 00009F  E380 0000 0000  xent                 LNJ,B6   GMA$CHKSIZE
          1 0000A2       0003                            DC       s:10485,PREL
          1 0000A3  0F81 000E                            B        s:10489,PREL

     1119    10484    2      WHENALTRETURN DO;

     1120    10485    2         KNH$HMI.USER# = 0;

  10485   1 0000A5  ECC7 0038                            LDB,B6   HMI$,AUTO
          1 0000A7  8746 0014                            CL       20,B6

     1121    10486    2         ERR = NOCQMEM;

  10486   1 0000A9  8C80 0000 0000  00                   LDI      NOCQMEM
          1 0000AC  DCC7 0006                            LDB,B5   @ERR,AUTO
          1 0000AE  8D05                                 SDI      ,B5

     1122    10487    2         ALTRETURN;

  10487   1 0000AF  C380 0000 0000  xent                 LNJ,B4   X6A_AALT

     1123    10488    2      END;
     1124    10489    1      IF CHKSZ.FLGS.NSHUF

  10489   1 0000B2  82C7 000B                            LB,'1000'X        CHKSZ+3,AUTO
PL6.E3A0      #003=KNH$OPEN File=KNH$HMI.:E05TSI                                 WED 07/30/97 01:05 Page:176
  10489   1 0000B4       1000
          1 0000B5  0581 002A                            BBF      s:10498,PREL

     1125    10490    2      THEN DO;

     1126    10491    2         CALL GMA$GETIO (%GM_HAND_Q#,PPS,%G_R_USR#,%G_R_USR#,%G_RING0#)

  10491   1 0000B7  EBF0 001C                            LAB,B6   28,IMO
          1 0000B9  DBF0 0000                            LAB,B5   0,IMO
          1 0000BB  CBF0 0000                            LAB,B4   0,IMO
          1 0000BD  BBF0 C000                            LAB,B3   -16384,IMO
          1 0000BF  BFC7 0046                            STB,B3   DCT$+10,AUTO
          1 0000C1  CFC7 0044                            STB,B4   DCT$+8,AUTO
          1 0000C3  DFC7 0042                            STB,B5   DCT$+6,AUTO
          1 0000C5  ABC7 0037                            LAB,B2   PPS,AUTO
          1 0000C7  AFC7 0040                            STB,B2   DCT$+4,AUTO
          1 0000C9  EFC7 003E                            STB,B6   DCT$+2,AUTO
          1 0000CB  BBC7 003E                            LAB,B3   DCT$+2,AUTO
          1 0000CD  CBF0 0500                            LAB,B4   1280,IMO
          1 0000CF  E380 0000 0000  xent                 LNJ,B6   GMA$GETIO
          1 0000D2       0003                            DC       s:10493,PREL
          1 0000D3  0F81 000A                            B        s:10496,PREL

     1127    10492    3         WHENALTRETURN DO;

     1128    10493    3            ERR = NOCQMEM;

  10493   1 0000D5  8C80 0000 0000  00                   LDI      NOCQMEM
          1 0000D8  ECC7 0006                            LDB,B6   @ERR,AUTO
          1 0000DA  8D06                                 SDI      ,B6

     1129    10494    3            ALTRETURN;

  10494   1 0000DB  C380 0000 0000  xent                 LNJ,B4   X6A_AALT

     1130    10495    3         END;
     1131    10496    2      END;
PL6.E3A0      #003=KNH$OPEN File=KNH$HMI.:E05TSI                                 WED 07/30/97 01:05 Page:177

  10496   1 0000DE  0F81 001D                            B        s:10501,PREL

     1132    10497    2      ELSE DO;

     1133    10498    2         CALL GMA$GET (%GM_HAND_Q#,PPS,%G_R_USR#,%G_R_USR#,%G_RING0#);

  10498   1 0000E0  EBF0 001C                            LAB,B6   28,IMO
          1 0000E2  DBF0 0000                            LAB,B5   0,IMO
          1 0000E4  CBF0 0000                            LAB,B4   0,IMO
          1 0000E6  BBF0 C000                            LAB,B3   -16384,IMO
          1 0000E8  BFC7 0046                            STB,B3   DCT$+10,AUTO
          1 0000EA  CFC7 0044                            STB,B4   DCT$+8,AUTO
          1 0000EC  DFC7 0042                            STB,B5   DCT$+6,AUTO
          1 0000EE  ABC7 0037                            LAB,B2   PPS,AUTO
          1 0000F0  AFC7 0040                            STB,B2   DCT$+4,AUTO
          1 0000F2  EFC7 003E                            STB,B6   DCT$+2,AUTO
          1 0000F4  BBC7 003E                            LAB,B3   DCT$+2,AUTO
          1 0000F6  CBF0 0500                            LAB,B4   1280,IMO
          1 0000F8  E380 0000 0000  xent                 LNJ,B6   GMA$GET
          1 0000FB       0001                            DC       s:10501,PREL

     1134    10499    2      END;

     1135    10500
     1136    10501    1      G$JIT.CQPC = G$JIT.CQPC + PPS;

  10501   1 0000FC  EC80 0000 0000  xsym                 LDB,B6   G$JIT$
          1 0000FF  E846 008B                            LDR,R6   139,B6
          1 000101  EA47 0037                            ADD,R6   PPS,AUTO
          1 000103  EF46 008B                            STR,R6   139,B6

     1137    10502
     1138    10503        /* Put HMI index into user table */
     1139    10504    1      G$USER.HMI$(G$JIT.USR#) = HMI$ ;

  10504   1 000105  B846 0004                            LDR,R3   4,B6
PL6.E3A0      #003=KNH$OPEN File=KNH$HMI.:E05TSI                                 WED 07/30/97 01:05 Page:178
          1 000107  B570 00FF                            AND,R3   255,IMO
          1 000109  DCC7 0038                            LDB,B5   HMI$,AUTO
          1 00010B  CC80 0000 0000  xsym                 LDB,B4   G$USRT$
          1 00010E  3F0C                                 MLV,R3   12
          1 00010F  3E0A                                 ADV,R3   10
          1 000110  DFB4                                 STB,B5   ,B4,R3

     1140    10505    1      KNH$HMI.PP# = G$UHJIT.ASDT_USR.HAND_Q.BASE;

  10505   1 000111  CC80 0000 0000  xsym                 LDB,B4   G$UHJIT$
          1 000114  F844 0038                            LDR,R7   56,B4
          1 000116  F570 7FFF                            AND,R7   32767,IMO
          1 000118  6C00                                 LDV,R6   0
          1 000119  8D45 0015                            SDI      21,B5

     1141    10506    1      KNH$HMI.PPSZ = PPS - 1;

  10506   1 00011B  D847 0037                            LDR,R5   PPS,AUTO
          1 00011D  5EFF                                 ADV,R5   -1
          1 00011E  DF45 0017                            STR,R5   23,B5

     1142    10507
     1143    10508    1      G$UHJIT.ASDT_MCL.HAND_Q = G$UHJIT.ASDT_USR.HAND_Q;

  10508   1 000120  8CC4 0038                            LDI      56,B4
          1 000122  8D44 0076                            SDI      118,B4

     1144    10509    1      CALL GHH$ASD(G$HAND_Q$,G$UHJIT.ASDT_MCL.HAND_Q);

  10509   1 000124  BBC4 0076                            LAB,B3   118,B4
          1 000126  BFC7 0040                            STB,B3   DCT$+4,AUTO
          1 000128  AB80 0000 0000  xsym                 LAB,B2   G$HAND_Q$
          1 00012B  AFC7 003E                            STB,B2   DCT$+2,AUTO
          1 00012D  BBC7 003E                            LAB,B3   DCT$+2,AUTO
          1 00012F  CBF0 0200                            LAB,B4   512,IMO
          1 000131  E380 0000 0000  xent                 LNJ,B6   GHH$ASD
          1 000134       0001                            DC       s:10512,PREL
PL6.E3A0      #003=KNH$OPEN File=KNH$HMI.:E05TSI                                 WED 07/30/97 01:05 Page:179

     1145    10510
     1146    10511        /* Initialize the header */
     1147    10512    1      KNH$QHDR = '0'B;

  10512   1 000135  EC80 0000 0000  xsym                 LDB,B6   G$HAND_Q$
          1 000138  5C30                                 LDV,R5   48
          1 000139  0021                                 ALR      ;
          1 00013A       4178 0000                                ALPHANUM('0000'X,IMO,,1),;
          1 00013C       4006 0000                                ALPHANUM(0,B6,,R5,FILL)

     1148    10513
     1149    10514        /* Use all the memory we allocated. */
     1150    10515    1      PPS = (PPS*256 - SIZEW(KNH$QHDR) -

  10515   1 00013E  437F                                 CSYNC    s:10512+8,SPREL
          1 00013F  ECC7 0004                            LDB,B6   @VLP_HMI,AUTO
          1 000141  E847 0037                            LDR,R6   PPS,AUTO
          1 000143  6008                                 SOL,R6   8
          1 000144  8256                                 NEG      R6
          1 000145  EA46 0002                            ADD,R6   2,B6
          1 000147  EA46 0001                            ADD,R6   1,B6
          1 000149  EA06                                 ADD,R6   ,B6
          1 00014A  8256                                 NEG      R6
          1 00014B  6EE8                                 ADV,R6   -24
          1 00014C  E370 0002                            DIV,R6   2,IMO
          1 00014E  EF47 0037                            STR,R6   PPS,AUTO

     1151    10516    1        VLP_HMI.CTXSIZE - VLP_HMI.RCQSIZE - VLP_HMI.SCQSIZE)/2;
     1152    10517    1      KNH$QHDR.RCQ.SZ = (VLP_HMI.RCQSIZE + PPS)/2;

  10517   1 000150  EA46 0001                            ADD,R6   1,B6
          1 000152  6041                                 SOR,R6   1
          1 000153  DC80 0000 0000  xsym                 LDB,B5   G$HAND_Q$
          1 000156  EF45 0002                            STR,R6   2,B5

     1153    10518    1      KNH$QHDR.SCQ.SZ = (VLP_HMI.SCQSIZE + PPS)/2;
PL6.E3A0      #003=KNH$OPEN File=KNH$HMI.:E05TSI                                 WED 07/30/97 01:05 Page:180

  10518   1 000158  C806                                 LDR,R4   ,B6
          1 000159  CA47 0037                            ADD,R4   PPS,AUTO
          1 00015B  4041                                 SOR,R4   1
          1 00015C  CF45 0006                            STR,R4   6,B5

     1154    10519    1      KNH$QHDR.CTX.SZ = VLP_HMI.CTXSIZE;

  10519   1 00015E  B846 0002                            LDR,R3   2,B6
          1 000160  3001                                 SOL,R3   1
          1 000161  BAC5 0009                            SRM,R3,'FFFE'X    9,B5
          1 000163       FFFE

     1155    10520    1      KNH$QHDR.CTX.OFFSET = SIZEW(KNH$QHDR);

  10520   1 000164  3C18                                 LDV,R3   24
          1 000165  BF45 0008                            STR,R3   8,B5

     1156    10521    1      KNH$QHDR.RCQ.OFFSET = KNH$QHDR.CTX.OFFSET + VLP_HMI.CTXSIZE;

  10521   1 000167  BA46 0002                            ADD,R3   2,B6
          1 000169  BF45 0003                            STR,R3   3,B5

     1157    10522    1      KNH$QHDR.SCQ.OFFSET = KNH$QHDR.RCQ.OFFSET + KNH$QHDR.RCQ.SZ*2;

  10522   1 00016B  6001                                 SOL,R6   1
          1 00016C  EA53                                 ADD,R6   R3
          1 00016D  EF45 0007                            STR,R6   7,B5

     1158    10523        /* Initialize KNH$HMI */
     1159    10524    1      KNH$HMI.SCQ = KNH$QHDR.SCQ;

  10524   1 00016F  CCC7 0038                            LDB,B4   HMI$,AUTO
          1 000171  5C10                                 LDV,R5   16
          1 000172  0021                                 ALR      ;
          1 000173       4805 0004                                ALPHANUM(4,B5,,8),;
          1 000175       4004 0007                                ALPHANUM(7,B4,,R5,FILL)
PL6.E3A0      #003=KNH$OPEN File=KNH$HMI.:E05TSI                                 WED 07/30/97 01:05 Page:181

     1160    10525    1      KNH$HMI.RCQ = KNH$QHDR.RCQ;

  10525   1 000177  437F                                 CSYNC    s:10524+7,SPREL
          1 000178  CCC7 0038                            LDB,B4   HMI$,AUTO
          1 00017A  5C0E                                 LDV,R5   14
          1 00017B  0021                                 ALR      ;
          1 00017C       4805 0000                                ALPHANUM(0,B5,,8),;
          1 00017E       4004 0000                                ALPHANUM(0,B4,,R5,FILL)

     1161    10526    1      ADDR(KNH$HMI.SCQ.LOCK)->G$GATE.FLG = '1'B;

  10526   1 000180  437F                                 CSYNC    s:10525+8,SPREL
          1 000181  DCC7 0038                            LDB,B5   HMI$,AUTO
          1 000183  8945 000B                            LBT,'8000'X       11,B5
          1 000185       8000

     1162    10527    1      ADDR(KNH$HMI.RCQ.LOCK)->G$GATE.FLG = '1'B;

  10527   1 000186  8945 0004                            LBT,'8000'X       4,B5
  10527   1 000188       8000

     1163    10528    1      KNH$HMI.WAIT_HEAD$ = ADDR(NIL);

  10528   1 000189  CB80 0000 0000                       LAB,B4   0
          1 00018C  CFC5 0011                            STB,B4   17,B5

     1164    10529    1      KNH$HMI.WAIT_COUNT = 0;

  10529   1 00018E  8745 0013                            CL       19,B5

     1165    10530    1      KNH$HMI.CTX.SZ = VLP_HMI.CTXSIZE;

  10530   1 000190  E846 0002                            LDR,R6   2,B6
          1 000192  EF45 0010                            STR,R6   16,B5

     1166    10531    1      KNH$HMI.CTX.OFFSET = SIZEW(KNH$QHDR);
PL6.E3A0      #003=KNH$OPEN File=KNH$HMI.:E05TSI                                 WED 07/30/97 01:05 Page:182

  10531   1 000194  4C18                                 LDV,R4   24
          1 000195  CF45 000F                            STR,R4   15,B5

     1167    10532    1      KNH$HMI.SCQ.SCANNED = '0'B;

  10532   1 000197  8845 000E                            LBF,'4000'X       14,B5
  10532   1 000199       4000

     1168    10533    1      KNH$HMI.SCQ.CLOSING = '0'B;

  10533   1 00019A  8845 000E                            LBF,'0001'X       14,B5
  10533   1 00019C       0001

     1169    10534
     1170    10535        /* If this is user 1 initialize the monitor connection */
     1171    10536    1      IF KNH$HMI.USER# = 1

  10536   1 00019D  B845 0014                            LDR,R3   20,B5
          1 00019F  3D01                                 CMV,R3   1
          1 0001A0  0981 0007                            BNE      s:10539,PREL

     1172    10537    1      THEN
     1173    10538    1      CALL KNB$INIT;

  10538   1 0001A2  CBF0 0000                            LAB,B4   0,IMO
          1 0001A4  E380 0000 0000  xent                 LNJ,B6   KNB$INIT
          1 0001A7       0001                            DC       s:10539,PREL

     1174    10539    1      RETURN;

  10539   1 0001A8  C380 0000 0000  xent                 LNJ,B4   X6A_ARET

     1175    10540
     1176    10541        %EJECT;
PL6.E3A0      #003=KNH$OPEN File=KNH$HMI.:E05TSI                                 WED 07/30/97 01:05 Page:183
     1177    10542    1   KNH$CLOSE: ENTRY ALTRET;

  10542   1 0001AB  D380 0000 0000  xent KNH$CLOSE       LNJ,B5   X6A_AUTO_2
          1 0001AE       0048 0002                       DC       72,2

     1178    10543
     1179    10544        /*F*  NAME:    KNH$CLOSE
     1180    10545              PURPOSE: To close down a circular queue.
     1181    10546              DESCRIPTION:
     1182    10547                       All LDCTs associated with the queue are terminated
     1183    10548              and the ASDTs are NILed out.  The memory for the queue is
     1184    10549              released.
     1185    10550                                                        */
     1186    10551
     1187    10552    1      USR# = G$JIT.USR# ;

  10552   1 0001B0  EC80 0000 0000  xsym                 LDB,B6   G$JIT$
          1 0001B3  E846 0004                            LDR,R6   4,B6
          1 0001B5  E570 00FF                            AND,R6   255,IMO
          1 0001B7  EF47 003B                            STR,R6   USR#,AUTO

     1188    10553    1      HMI$ = G$USER.HMI$(USR#) ;

  10553   1 0001B9  DC80 0000 0000  xsym                 LDB,B5   G$USRT$
          1 0001BC  B856                                 LDR,R3   R6
          1 0001BD  3F0C                                 MLV,R3   12
          1 0001BE  3E0A                                 ADV,R3   10
          1 0001BF  CCB5                                 LDB,B4   ,B5,R3
          1 0001C0  CFC7 0038                            STB,B4   HMI$,AUTO

     1189    10554    1      PPS = KNH$HMI.PPSZ + 1 ;

  10554   1 0001C2  D844 0017                            LDR,R5   23,B4
          1 0001C4  5E01                                 ADV,R5   1
          1 0001C5  DF47 0037                            STR,R5   PPS,AUTO

     1190    10555    1      KNH$HMI.SCQ.CLOSING = '1'B;
PL6.E3A0      #003=KNH$OPEN File=KNH$HMI.:E05TSI                                 WED 07/30/97 01:05 Page:184

  10555   1 0001C7  8944 000E                            LBT,'0001'X       14,B4
  10555   1 0001C9       0001

     1191    10556
     1192    10557        /* Call KNH$SCAN to free up anyone waiting for this HMI interface */
     1193    10558    1      CALL KNH$SCAN;

  10558   1 0001CA  CBF0 0000                            LAB,B4   0,IMO
          1 0001CC  E380 0000 0000  xent                 LNJ,B6   KNH$SCAN
          1 0001CF       0001                            DC       s:10561,PREL

     1194    10559
     1195    10560
     1196    10561    2      DO WHILE (KNH$HMI.LDCTS# > 0);

  10561   1 0001D0  ECC7 0038                            LDB,B6   HMI$,AUTO
          1 0001D2  E846 0018                            LDR,R6   24,B6
          1 0001D4  6901 00B3                            BEZ,R6   s:10609,PREL

     1197    10562
     1198    10563    3         DO I = 1 TO KN_LDCT_MAX# ;

  10563   1 0001D6  6C01                                 LDV,R6   1
          1 0001D7  EF47 003A                            STR,R6   I,AUTO
          1 0001D9  0F81 0098                            B        s:10603+2,PREL

     1199    10564
     1200    10565    3            DCT$ = KN$DCT$(I) ;

  10565   1 0001DB  EC80 0000 0000  xsym                 LDB,B6   KN_DCT$$
          1 0001DE  B847 003A                            LDR,R3   I,AUTO
          1 0001E0  DCB6                                 LDB,B5   ,B6,R3
          1 0001E1  DFC7 003C                            STB,B5   DCT$,AUTO

     1201    10566    3            IF DCT$ ~= ADDR(NIL) THEN

PL6.E3A0      #003=KNH$OPEN File=KNH$HMI.:E05TSI                                 WED 07/30/97 01:05 Page:185
  10566   1 0001E3  8DC7 003C                            CMN      DCT$,AUTO
          1 0001E5  0901 008A                            BE       s:10603,PREL

     1202    10567    3            IF KN$LDCT.STATE ~= %KN_ST_NULL THEN

  10567   1 0001E7  8285                                 LB,'00FF'X        ,B5
  10567   1 0001E8       00FF
          1 0001E9  0581 0086                            BBF      s:10603,PREL

     1203    10568    3            IF USR# = KN$LDCT.USER# THEN

  10568   1 0001EB  E847 003B                            LDR,R6   USR#,AUTO
          1 0001ED  E945 000E                            CMR,R6   14,B5
          1 0001EF  0981 0080                            BNE      s:10603,PREL

     1204    10569    4            DO ;

     1205    10570    4               NETPARM = KN_NETPARM_INIT;

  10570   1 0001F1  AB80 0000 0000  xsym                 LAB,B2   KN_NETPARM_INIT
          1 0001F4  2C00                                 LDV,R2   0
          1 0001F5  6C42                                 LDV,R6   66
          1 0001F6  BB87                                 LAB,B3   ,AUTO
          1 0001F7  3C18                                 LDV,R3   24
          1 0001F8  0008                                 MMM

     1206    10571    4               NETPARM.LDCT$ = DCT$ ;

  10571   1 0001F9  ECC7 003C                            LDB,B6   DCT$,AUTO
          1 0001FB  EFC7 000C                            STB,B6   NETPARM,AUTO

     1207    10572    4               FPT$TERM.RLCID = KN$LDCT.RLCID ;

  10572   1 0001FD  8CC6 0001                            LDI      1,B6
          1 0001FF  8D47 002D                            SDI      FPT$TERM,AUTO

     1208    10573    4               FPT$TERM.REASON = %KN_TERM_REASON_CLOSE ;
PL6.E3A0      #003=KNH$OPEN File=KNH$HMI.:E05TSI                                 WED 07/30/97 01:05 Page:186

  10573   1 000201  5C02                                 LDV,R5   2
          1 000202  DF47 002F                            STR,R5   FPT$TERM+2,AUTO

     1209    10574    4               FPT$CONNECT_ACK.REASON = %K_REASON_USRREJ;

  10574   1 000204  4C05                                 LDV,R4   5
          1 000205  CF47 0031                            STR,R4   FPT$CONNECT_ACK,AUTO

     1210    10575
     1211    10576    4               IF KN$LDCT.CONN_TYPE=%KN_CNTYPE_LINK

  10576   1 000207  B286                                 LLH,R3   ,B6
          1 000208  3D06                                 CMV,R3   6
          1 000209  0981 0016                            BNE      s:10583,PREL

     1212    10577    5               THEN DO;

     1213    10578    5                  NETPARM.FUNCTION = %KN_FCN_TERM;

  10578   1 00020B  2C03                                 LDV,R2   3
          1 00020C  AF47 0020                            STR,R2   NETPARM+20,AUTO

     1214    10579    5                  NETPARM.FPT$ = ADDR(FPT$TERM);

  10579   1 00020E  DBC7 002D                            LAB,B5   FPT$TERM,AUTO
          1 000210  DFC7 0025                            STB,B5   NETPARM+25,AUTO

     1215    10580    5                  CALL KNN$RECV(NETPARM);

  10580   1 000212  CBC7 000C                            LAB,B4   NETPARM,AUTO
          1 000214  CFC7 003E                            STB,B4   DCT$+2,AUTO
          1 000216  BBC7 003E                            LAB,B3   DCT$+2,AUTO
          1 000218  CBF0 0100                            LAB,B4   256,IMO
          1 00021A  E380 0000 0000  xent                 LNJ,B6   KNN$RECV
          1 00021D       0001                            DC       s:10581,PREL

PL6.E3A0      #003=KNH$OPEN File=KNH$HMI.:E05TSI                                 WED 07/30/97 01:05 Page:187
     1216    10581    5               END;

  10581   1 00021E  0F81 0051                            B        s:10603,PREL

     1217    10582    4               ELSE
     1218    10583    5               DO CASE (KN$LDCT.STATE);

  10583   1 000220  A806                                 LDR,R2   ,B6
          1 000221  A570 00FF                            AND,R2   255,IMO
          1 000223  2D08                                 CMV,R2   8
          1 000224  0281 004B                            BGE      s:10603,PREL
          1 000226  9820 0000 022C  01                   LDR,R1   s:10583+12,R2
          1 000229  8390 0000 0234  01                   JMP      s:10586,R1
          1 00022C       003C                            DC       s:10603,PREL
          1 00022D       003C                            DC       s:10603,PREL
          1 00022E       0015                            DC       s:10591,PREL
          1 00022F       003C                            DC       s:10603,PREL
          1 000230       0029                            DC       s:10596,PREL
          1 000231       0000                            DC       s:10586,PREL
          1 000232       0015                            DC       s:10591,PREL
          1 000233       0015                            DC       s:10591,PREL

     1219    10584
     1220    10585    5               CASE (%KN_ST_ACTIVE);

     1221    10586    5                  NETPARM.FUNCTION = %KN_FCN_TERM;

  10586   1 000234  6C03                                 LDV,R6   3
          1 000235  EF47 0020                            STR,R6   NETPARM+20,AUTO

     1222    10587    5                  NETPARM.FPT$ = ADDR(FPT$TERM);

  10587   1 000237  DBC7 002D                            LAB,B5   FPT$TERM,AUTO
          1 000239  DFC7 0025                            STB,B5   NETPARM+25,AUTO

     1223    10588    5                  CALL KNS$SEND(NETPARM);

PL6.E3A0      #003=KNH$OPEN File=KNH$HMI.:E05TSI                                 WED 07/30/97 01:05 Page:188
  10588   1 00023B  CBC7 000C                            LAB,B4   NETPARM,AUTO
          1 00023D  CFC7 003E                            STB,B4   DCT$+2,AUTO
          1 00023F  BBC7 003E                            LAB,B3   DCT$+2,AUTO
          1 000241  CBF0 0100                            LAB,B4   256,IMO
          1 000243  E380 0000 0000  xent                 LNJ,B6   KNS$SEND
          1 000246       0001                            DC       s:10588+12,PREL
          1 000247  0F81 0028                            B        s:10603,PREL

     1224    10589
     1225    10590    5               CASE (%KN_ST_WIAFL,%KN_ST_WTIAFLNT,%KN_ST_WTAFLNT);

     1226    10591    5                  NETPARM.FUNCTION = %KN_FCN_INIT_ACK;

  10591   1 000249  DF47 0020                            STR,R5   NETPARM+20,AUTO

     1227    10592    5                  NETPARM.FPT$ = ADDR(FPT$CONNECT_ACK);

  10592   1 00024B  DBC7 0031                            LAB,B5   FPT$CONNECT_ACK,AUTO
          1 00024D  DFC7 0025                            STB,B5   NETPARM+25,AUTO

     1228    10593    5                  CALL KNS$SEND(NETPARM);

  10593   1 00024F  CBC7 000C                            LAB,B4   NETPARM,AUTO
          1 000251  CFC7 003E                            STB,B4   DCT$+2,AUTO
          1 000253  BBC7 003E                            LAB,B3   DCT$+2,AUTO
          1 000255  CBF0 0100                            LAB,B4   256,IMO
          1 000257  E380 0000 0000  xent                 LNJ,B6   KNS$SEND
          1 00025A       0001                            DC       s:10593+12,PREL
          1 00025B  0F81 0014                            B        s:10603,PREL

     1229    10594
     1230    10595    5               CASE (%KN_ST_WTAFL);

     1231    10596    5                  NETPARM.FUNCTION = %KN_FCN_TERM;

  10596   1 00025D  6C03                                 LDV,R6   3
          1 00025E  EF47 0020                            STR,R6   NETPARM+20,AUTO
PL6.E3A0      #003=KNH$OPEN File=KNH$HMI.:E05TSI                                 WED 07/30/97 01:05 Page:189

     1232    10597    5                  NETPARM.FPT$ = ADDR(FPT$TERM);

  10597   1 000260  DBC7 002D                            LAB,B5   FPT$TERM,AUTO
          1 000262  DFC7 0025                            STB,B5   NETPARM+25,AUTO

     1233    10598    5                  CALL KNS$SEND(NETPARM);

  10598   1 000264  CBC7 000C                            LAB,B4   NETPARM,AUTO
          1 000266  CFC7 003E                            STB,B4   DCT$+2,AUTO
          1 000268  BBC7 003E                            LAB,B3   DCT$+2,AUTO
          1 00026A  CBF0 0100                            LAB,B4   256,IMO
          1 00026C  E380 0000 0000  xent                 LNJ,B6   KNS$SEND
          1 00026F       0001                            DC       s:10603,PREL

     1234    10599
     1235    10600    5               END;

     1236    10601    4            END ;

     1237    10602
     1238    10603    3         END ;

  10603   1 000270  8AC7 003A                            INC      I,AUTO
          1 000272  E847 003A                            LDR,R6   I,AUTO
          1 000274  E900 0000 0000  xsym                 CMR,R6   KN_LDCT_MAX#
          1 000277  0381 FF63                            BLE      s:10565,PREL

     1239    10604
     1240    10605    2         CALL GHS$REG(%GH_EVSL,10);

  10605   1 000279  BB80 0000 0002  02                   LAB,B3   +2
          1 00027C  CBF0 0200                            LAB,B4   512,IMO
          1 00027E  E380 0000 0000  xent                 LNJ,B6   GHS$REG
          1 000281       0001                            DC       s:10606,PREL

     1241    10606    2      END;                                 /* DO WHILE (KNH$HMI.LDCTS# > 0)      */
PL6.E3A0      #003=KNH$OPEN File=KNH$HMI.:E05TSI                                 WED 07/30/97 01:05 Page:190

  10606   1 000282  ECC7 0038                            LDB,B6   HMI$,AUTO
          1 000284  E846 0018                            LDR,R6   24,B6
          1 000286  6981 FF4F                            BNEZ,R6  s:10563,PREL

     1242    10607
     1243    10608
     1244    10609    1      G$USER.HMI$(USR#) = ADDR(NIL);

  10609   1 000288  DB80 0000 0000                       LAB,B5   0
          1 00028B  CC80 0000 0000  xsym                 LDB,B4   G$USRT$
          1 00028E  B847 003B                            LDR,R3   USR#,AUTO
          1 000290  3F0C                                 MLV,R3   12
          1 000291  3E0A                                 ADV,R3   10
          1 000292  DFB4                                 STB,B5   ,B4,R3

     1245    10610    1      G$UHJIT.ASDT_MCL.HAND_Q.V = '0'B;

  10610   1 000293  DC80 0000 0000  xsym                 LDB,B5   G$UHJIT$
          1 000296  8845 0076                            LBF,'8000'X       118,B5
          1 000298       8000

     1246    10611    1      CALL GMA$REL_ACCTMEM(PPS);

  10611   1 000299  CBC7 0037                            LAB,B4   PPS,AUTO
          1 00029B  CFC7 003E                            STB,B4   DCT$+2,AUTO
          1 00029D  BBC7 003E                            LAB,B3   DCT$+2,AUTO
          1 00029F  CBF0 0100                            LAB,B4   256,IMO
          1 0002A1  E380 0000 0000  xent                 LNJ,B6   GMA$REL_ACCTMEM
          1 0002A4       0001                            DC       s:10612,PREL

     1247    10612    1      CALL GMA$REL(%GM_HAND_Q#,PPS);

  10612   1 0002A5  EBF0 001C                            LAB,B6   28,IMO
          1 0002A7  DBC7 0037                            LAB,B5   PPS,AUTO
          1 0002A9  DFC7 0040                            STB,B5   DCT$+4,AUTO
          1 0002AB  EFC7 003E                            STB,B6   DCT$+2,AUTO
PL6.E3A0      #003=KNH$OPEN File=KNH$HMI.:E05TSI                                 WED 07/30/97 01:05 Page:191
          1 0002AD  BBC7 003E                            LAB,B3   DCT$+2,AUTO
          1 0002AF  CBF0 0200                            LAB,B4   512,IMO
          1 0002B1  E380 0000 0000  xent                 LNJ,B6   GMA$REL
          1 0002B4       0001                            DC       s:10613,PREL

     1248    10613    1      G$JIT.CQPC = G$JIT.CQPC - PPS;

  10613   1 0002B5  EC80 0000 0000  xsym                 LDB,B6   G$JIT$
          1 0002B8  E846 008B                            LDR,R6   139,B6
          1 0002BA  E247 0037                            SUB,R6   PPS,AUTO
          1 0002BC  EF46 008B                            STR,R6   139,B6

     1249    10614    1      KNH$HMI.USER# = 0 ;

  10614   1 0002BE  DCC7 0038                            LDB,B5   HMI$,AUTO
          1 0002C0  8745 0014                            CL       20,B5

     1250    10615
     1251    10616    1      RETURN ;

  10616   1 0002C2  C380 0000 0000  xent                 LNJ,B4   X6A_ARET
     1252    10617
     1253    10618    1   END KNH$OPEN;

PL6.E3A0      #003=KNH$OPEN File=KNH$HMI.:E05TSI                                 WED 07/30/97 01:05 Page:192
--  Include file information  --

   K_REASON_C.:E05TOU  is referenced.
   KNH_MACRO_C.:E05TOU  is referenced.
   KN_DATA_M.:E05TOU  is referenced.
   GH_GATE_M.:E05TOU  cannot be made into a system file and is referenced.
   G_JIT_M.:E05TOU  is referenced.
   G_HJIT_M.:E05TOU  is referenced.
   GU_LCP6_M.:E05TOU  is referenced.
   G_LCP6_E.:E05TOU  is referenced.
   GM_VIRTUAL_E.:E05TOU  is referenced.
   GM_MACRO_M.:E05TOU  is referenced.
   GH_SCHD_M.:E05TOU  is referenced.
   GH_SCHD_E.:E05TOU  is referenced.
   GH_LCP6_M.:E05TOU  is referenced.
   GF_LCP6_M.:E05TOU  is referenced.
   KN_ERRORS_C.:E05TOU  is referenced.
      No diagnostics issued in procedure KNH$OPEN.
PL6.E3A0      #003=KNH$OPEN File=KNH$HMI.:E05TSI                                 WED 07/30/97 01:05 Page:193

 **** Variables and constants ****

  ****  Section 000 RoData KNH$OPEN

  ****  Scalars and arrays  ****
HexLoc.c.b A Datatyp(siz) R M Lvl/name                 HexLoc.c.b A Datatyp(siz) R M Lvl/name

     0-0-0/w STRC(32)    r     1 NOCQMEM                    2-0-0/w STRC(32)    r     1 NOHMI
     4-0-0/w STRC(32)    r     1 ONEHMI

  ****  Auto variables  ****

  ****  Scalars and arrays  ****
HexLoc.c.b A Datatyp(siz) R M Lvl/name                 HexLoc.c.b A Datatyp(siz) R M Lvl/name

     6-0-0/w PTR         r     1 @ERR                       4-0-0/w PTR         r     1 @VLP_HMI
     8-0-0/w STRC(64)    r     1 CHKSZ                     3C-0-0/w PTR         r     1 DCT$
    *0-0-0/w BIT (32)    r     1 ERR                       31-0-0/w STRC(96)    r     1 FPT$CONNECT_ACK
    2D-0-0/w STRC(64)    r     1 FPT$TERM                  38-0-0/w PTR         r     1 HMI$
    3A-0-0/w UBIN(16)    r     1 I                          C-0-0/w STRC(528)   r     1 NETPARM
    37-0-0/w UBIN(16)    r     1 PPS                       3B-0-0/w UBIN(16)    r     1 USR#
    *0-0-0/w STRC(64)    r     1 VLP_HMI

  ****  SYMREF variables  ****

  ****  Scalars and arrays  ****
HexLoc.c.b A Datatyp(siz) R M Lvl/name                 HexLoc.c.b A Datatyp(siz) R M Lvl/name

     0-0-0/w PTR         r     1 G$HAND_Q$                  0-0-0/w PTR         r     1 G$JIT$
     0-0-0/w PTR         r     1 G$UHJIT$                   0-0-0/w PTR         r     1 G$USRT$
     0-0-0/w PTR         r     1 KN_DCT$$                   0-0-0/w UBIN(16)    r     1 KN_HMI#
     0-0-0/w PTR         r     1 KN_HMI$                    0-0-0/w UBIN(16)    r     1 KN_LDCT_MAX#
     0-0-0/w STRC(528)   r     1 KN_NETPARM_INIT

  ****  BASED and DCB variables  ****

  ****  Scalars and arrays  ****
PL6.E3A0      #003=KNH$OPEN File=KNH$HMI.:E05TSI                                 WED 07/30/97 01:05 Page:194
HexLoc.c.b A Datatyp(siz) R M Lvl/name                 HexLoc.c.b A Datatyp(siz) R M Lvl/name

     0-0-0/w STRC(48)    r     1 G$GATE                     0-0-0/w STRC(5616)  r     1 G$JIT
     0-0-0/w STRC(6480)  r     1 G$UHJIT                    0-0-0/w STRC(384)   r     1 G$USER(0:0)
     0-0-0/w PTR         r     1 KN$DCT$(0:0)
     0-0-0/w STRC(256)   r     1 KN$LDCT                    0-0-0/c STRC(400)   r     1 KNH$HMI
     0-0-0/w STRC(384)   r     1 KNH$QHDR


   Procedure KNH$OPEN requires 709 words for executable code.
   Procedure KNH$OPEN requires 72 words of local(AUTO) storage.

    No errors detected in file KNH$HMI.:E05TSI    .
PL6.E3A0      #003=KNH$OPEN File=KNH$HMI.:E05TSI                                 WED 07/30/97 01:05 Page:195
          *** CROSS REFERENCE LISTING ***
**     DENOTES     IDENTIFIER DEFINITION
<<                 IDENTIFIER'S VALUE SET
>>                 IDENTIFIER'S VALUE USED
<>                 IDENTIFIER SET AND/OR USED
--                 IDENTIFIER REFERENCED
PL6.E3A0      #003=KNH$OPEN File=KNH$HMI.:E05TSI                                 WED 07/30/97 01:05 Page:196
          MINI XREF LISTING

CHKSZ
      9775**DCL     10478<<ASSIGN  10483<>CALL
CHKSZ.FLGS.NSHUF
      9849**DCL     10482<<ASSIGN  10489>>IF
CHKSZ.FLGS.PARK
      9843**DCL     10481<<ASSIGN
CHKSZ.FLGS.REQ_ALL
      9837**DCL     10480<<ASSIGN
CHKSZ.SIZE
      9776**DCL     10479<<ASSIGN
DCT$
     10256**DCL      9536--IMP-PTR 10565<<ASSIGN  10566>>IF      10567>>IF      10568>>IF      10571>>ASSIGN
     10572>>ASSIGN  10576>>IF      10583>>DOCASE
ERR
      6067**DCL         7--PROC    10433<<ASSIGN  10462<<ASSIGN  10486<<ASSIGN  10493<<ASSIGN
FPT$CONNECT_ACK
     10052**DCL     10592--ASSIGN
FPT$CONNECT_ACK.REASON
     10056**DCL     10574<<ASSIGN
FPT$CONNECT_ACK.UID.UID
     10082**DCL     10082--REDEF   10082--REDEF
FPT$TERM
     10030**DCL     10579--ASSIGN  10587--ASSIGN  10597--ASSIGN
FPT$TERM.REASON
     10035**DCL     10573<<ASSIGN
FPT$TERM.RLCID
     10034**DCL     10572<<ASSIGN
G$GATE.FLG
      9498**DCL     10526<<ASSIGN  10527<<ASSIGN
G$HAND_Q$
     10245**DCL      9509--IMP-PTR 10509<>CALL    10512>>ASSIGN  10517>>ASSIGN  10518>>ASSIGN  10519>>ASSIGN
     10520>>ASSIGN  10521>>ASSIGN  10521>>ASSIGN  10522>>ASSIGN  10522>>ASSIGN  10522>>ASSIGN  10524>>ASSIGN
PL6.E3A0      #003=KNH$OPEN File=KNH$HMI.:E05TSI                                 WED 07/30/97 01:05 Page:197
     10525>>ASSIGN
G$JIT.CQPC
      9251**DCL     10501<<ASSIGN  10501>>ASSIGN  10613<<ASSIGN  10613>>ASSIGN
G$JIT.ERRLOG
      9401**DCL      9404--REDEF
G$JIT.JSUNIT
      9140**DCL      9141--REDEF
G$JIT.MCLS
      9139**DCL      9139--REDEF
G$JIT.TMRZ
      9408**DCL      9409--REDEF
G$JIT.USER_EXTIME
      9132**DCL      9133--REDEF
G$JIT.USER_MEMTIME
      9135**DCL      9135--REDEF
G$JIT.USER_SVTIME
      9134**DCL      9134--REDEF
G$JIT.USR#
      9129**DCL     10431>>IF      10466>>ASSIGN  10504>>ASSIGN  10552>>ASSIGN
G$JIT$
     10242**DCL      9071--IMP-PTR 10431>>IF      10466>>ASSIGN  10501>>ASSIGN  10501>>ASSIGN  10504>>ASSIGN
     10552>>ASSIGN  10613>>ASSIGN  10613>>ASSIGN
G$UHJIT.ASDT_MCL.HAND_Q
      7442**DCL     10508<<ASSIGN  10509<>CALL
G$UHJIT.ASDT_MCL.HAND_Q.V
      7444**DCL     10610<<ASSIGN
G$UHJIT.ASDT_USR.HAND_Q
      6748**DCL     10508>>ASSIGN
G$UHJIT.ASDT_USR.HAND_Q.BASE
      6750**DCL     10505>>ASSIGN
G$UHJIT.ISA_USR
      7523**DCL      7818--REDEF
G$UHJIT.ISA_USR.P$$
      7598**DCL      7598--REDEF
G$UHJIT.TSA_CP.ISA.P$$
      8805**DCL      8805--REDEF
PL6.E3A0      #003=KNH$OPEN File=KNH$HMI.:E05TSI                                 WED 07/30/97 01:05 Page:198
G$UHJIT.TSA_CP.P$$
      8676**DCL      8676--REDEF    8677--REDEF
G$UHJIT.TSA_DB.ISA.P$$
      8417**DCL      8417--REDEF
G$UHJIT.TSA_DB.P$$
      8288**DCL      8288--REDEF    8289--REDEF
G$UHJIT.TSA_RTT.P$$
      9051**DCL      9051--REDEF    9052--REDEF
G$UHJIT.TSA_USR.ISA.P$$
      8007**DCL      8007--REDEF
G$UHJIT.TSA_USR.P$$
      7878**DCL      7878--REDEF    7879--REDEF
G$UHJIT$
     10243**DCL      6100--IMP-PTR 10505>>ASSIGN  10508>>ASSIGN  10508>>ASSIGN  10509>>CALL    10610>>ASSIGN
G$USER.HMI$
      9480**DCL     10431>>IF      10504<<ASSIGN  10553>>ASSIGN  10609<<ASSIGN
G$USER.MISC
      9477**DCL      9477--REDEF
G$USRT$
     10244**DCL      9476--IMP-PTR 10431>>IF      10504>>ASSIGN  10553>>ASSIGN  10609>>ASSIGN
GHH$ASD
      6071**DCL-ENT 10509--CALL
GHH$LOCK
      3953**DCL-ENT 10446--CALL
GHH$UNLOCK
      3953**DCL-ENT 10457--CALL    10472--CALL
GHS$REG
      6070**DCL-ENT 10605--CALL
GMA$CHKSIZE
      6076**DCL-ENT 10483--CALL
GMA$GET
      6072**DCL-ENT 10498--CALL
GMA$GETIO
      6073**DCL-ENT 10491--CALL
GMA$REL
      6074**DCL-ENT 10612--CALL
PL6.E3A0      #003=KNH$OPEN File=KNH$HMI.:E05TSI                                 WED 07/30/97 01:05 Page:199
GMA$REL_ACCTMEM
      6075**DCL-ENT 10611--CALL
HMI$
     10253**DCL      9502--IMP-PTR 10437<<ASSIGN  10446>>CALL    10448>>IF      10457>>CALL    10460<<ASSIGN
     10460>>ASSIGN  10466>>ASSIGN  10472>>CALL    10485>>ASSIGN  10504>>ASSIGN  10505>>ASSIGN  10506>>ASSIGN
     10524>>ASSIGN  10525>>ASSIGN  10526>>ASSIGN  10527>>ASSIGN  10528>>ASSIGN  10529>>ASSIGN  10530>>ASSIGN
     10531>>ASSIGN  10532>>ASSIGN  10533>>ASSIGN  10536>>IF      10553<<ASSIGN  10554>>ASSIGN  10555>>ASSIGN
     10561>>DOWHILE 10614>>ASSIGN
I
     10254**DCL     10440<<DOINDEX 10563<<DOINDEX 10565>>ASSIGN
KN$DCT$
      9767**DCL     10565>>ASSIGN
KN$LDCT.CONN_TYPE
      9537**DCL     10576>>IF
KN$LDCT.RLCID
      9569**DCL     10572>>ASSIGN
KN$LDCT.RLCID.LDCTX
      9597**DCL      9604--REDEF    9612--REDEF
KN$LDCT.STATE
      9551**DCL     10567>>IF      10583>>DOCASE
KN$LDCT.TRANSPORT_ID
      9631**DCL      9639--REDEF
KN$LDCT.UID
      9661**DCL      9662--REDEF    9671--REDEF
KN$LDCT.USER#
      9754**DCL     10568>>IF
KNB$INIT
      6080**DCL-ENT 10538--CALL
KNH$HMI
      9502**DCL     10460--ASSIGN
KNH$HMI.CTX.OFFSET
      9504**DCL     10531<<ASSIGN
KNH$HMI.CTX.SZ
      9505**DCL     10530<<ASSIGN
KNH$HMI.LDCTS#
      9506**DCL     10561>>DOWHILE
PL6.E3A0      #003=KNH$OPEN File=KNH$HMI.:E05TSI                                 WED 07/30/97 01:05 Page:200
KNH$HMI.PP#
      9505**DCL     10505<<ASSIGN
KNH$HMI.PPSZ
      9506**DCL     10506<<ASSIGN  10554>>ASSIGN
KNH$HMI.RCQ
      9502**DCL     10525<<ASSIGN
KNH$HMI.RCQ.LOCK
      9502**DCL     10527--ASSIGN
KNH$HMI.SCQ
      9503**DCL     10524<<ASSIGN
KNH$HMI.SCQ.CLOSING
      9504**DCL     10533<<ASSIGN  10555<<ASSIGN
KNH$HMI.SCQ.LOCK
      9504**DCL     10446<>CALL    10457<>CALL    10472<>CALL    10526--ASSIGN
KNH$HMI.SCQ.SCANNED
      9504**DCL     10532<<ASSIGN
KNH$HMI.USER#
      9505**DCL     10448>>IF      10466<<ASSIGN  10485<<ASSIGN  10536>>IF      10614<<ASSIGN
KNH$HMI.WAIT_COUNT
      9505**DCL     10529<<ASSIGN
KNH$HMI.WAIT_HEAD$
      9505**DCL     10528<<ASSIGN
KNH$QHDR
      9509**DCL     10475--ASSIGN  10512<<ASSIGN  10515--ASSIGN  10520--ASSIGN  10531--ASSIGN
KNH$QHDR.CTX.OFFSET
      9513**DCL     10520<<ASSIGN  10521>>ASSIGN
KNH$QHDR.CTX.SZ
      9513**DCL     10519<<ASSIGN
KNH$QHDR.RCQ
      9509**DCL      9509--REDEF   10525>>ASSIGN
KNH$QHDR.RCQ.OFFSET
      9509**DCL     10521<<ASSIGN  10522>>ASSIGN
KNH$QHDR.RCQ.SZ
      9509**DCL     10517<<ASSIGN  10522>>ASSIGN
KNH$QHDR.SCQ
      9510**DCL     10524>>ASSIGN
PL6.E3A0      #003=KNH$OPEN File=KNH$HMI.:E05TSI                                 WED 07/30/97 01:05 Page:201
KNH$QHDR.SCQ.OFFSET
      9510**DCL     10522<<ASSIGN
KNH$QHDR.SCQ.SZ
      9510**DCL     10518<<ASSIGN
KNH$SCAN
      6077**DCL-ENT 10558--CALL
KNN$RECV
      6078**DCL-ENT 10580--CALL
KNS$SEND
      6079**DCL-ENT 10588--CALL    10593--CALL    10598--CALL
KN_DCT$$
     10249**DCL      9767--IMP-PTR 10565>>ASSIGN
KN_HMI#
     10248**DCL     10440>>DOINDEX
KN_HMI$
     10247**DCL     10437>>ASSIGN
KN_LDCT_MAX#
     10246**DCL     10563>>DOINDEX
KN_NETPARM_INIT
     10102**DCL     10570>>ASSIGN
KN_NETPARM_INIT.MSG$
     10109**DCL     10114--REDEF
KN_NETPARM_INIT.NHDR$
     10161**DCL     10162--REDEF
KN_NETPARM_INIT.SHDR$
     10139**DCL     10140--REDEF
KN_NETPARM_INIT.THDR$
     10150**DCL     10151--REDEF
KN_NETPARM_INIT.UHDR$
     10125**DCL     10126--REDEF
L_LEXIT
     10439**LABEL   10450--EXIT
NETPARM
      9876**DCL     10570<<ASSIGN  10580<>CALL    10588<>CALL    10593<>CALL    10598<>CALL
NETPARM.FPT$
      9995**DCL     10579<<ASSIGN  10587<<ASSIGN  10592<<ASSIGN  10597<<ASSIGN
PL6.E3A0      #003=KNH$OPEN File=KNH$HMI.:E05TSI                                 WED 07/30/97 01:05 Page:202
NETPARM.FUNCTION
      9971**DCL     10578<<ASSIGN  10586<<ASSIGN  10591<<ASSIGN  10596<<ASSIGN
NETPARM.LDCT$
      9877**DCL     10571<<ASSIGN
NETPARM.MSG$
      9883**DCL      9888--REDEF
NETPARM.NHDR$
      9935**DCL      9936--REDEF
NETPARM.SHDR$
      9913**DCL      9914--REDEF
NETPARM.THDR$
      9924**DCL      9925--REDEF
NETPARM.UHDR$
      9899**DCL      9900--REDEF
NOCQMEM
     10278**DCL     10486>>ASSIGN  10493>>ASSIGN
NOHMI
     10334**DCL     10462>>ASSIGN
ONEHMI
     10391**DCL     10433>>ASSIGN
PPS
     10252**DCL     10475<<ASSIGN  10479>>ASSIGN  10491<>CALL    10498<>CALL    10501>>ASSIGN  10506>>ASSIGN
     10515<<ASSIGN  10515>>ASSIGN  10517>>ASSIGN  10518>>ASSIGN  10554<<ASSIGN  10611<>CALL    10612<>CALL
     10613>>ASSIGN
USR#
     10255**DCL     10552<<ASSIGN  10553>>ASSIGN  10568>>IF      10609>>ASSIGN
VLP_HMI
      6064**DCL         7--PROC
VLP_HMI.CTXSIZE
      6064**DCL     10475>>ASSIGN  10515>>ASSIGN  10519>>ASSIGN  10521>>ASSIGN  10530>>ASSIGN
VLP_HMI.IO
      6065**DCL     10482>>IF
VLP_HMI.RCQSIZE
      6064**DCL     10475>>ASSIGN  10515>>ASSIGN  10517>>ASSIGN
VLP_HMI.SCQSIZE
      6064**DCL     10475>>ASSIGN  10515>>ASSIGN  10518>>ASSIGN
