PL6.E3A0      #003=KNN$SENDTERM_ACK File=KNN$NETWORK.:E05TSI                     WED 07/30/97 01:07 Page:298
     1905        1        /*T***********************************************************/
     1906        2        /*T*                                                         */
     1907        3        /*T* Copyright (c) Bull HN Information Systems Inc., 1997    */
     1908        4        /*T*                                                         */
     1909        5        /*T***********************************************************/
     1910        6        KNN$SENDTERM_ACK: PROC(ARG);
     1911        7
     1912        8        %INCLUDE GH_SCHD_M;
     1913      152        %INCLUDE GH_GATE_M;
     1914      193        %INCLUDE KNH_MACRO_C;
     1915      476        %INCLUDE KN_DATA_M;
     1916     2262        %INCLUDE K_ADDRESS_M;
     1917     2765        %INCLUDE KNN_NETWORK_M;
     1918     3128
     1919     3129    1   DCL ARG UBIN(16);
     1920     3130    1   DCL LDCT$ PTR;
     1921     3131    1   DCL CTYPE UBIN;
     1922     3132    1   DCL KNH$SEND ENTRY(1) ALTRET;
     1923     3133    1   DCL KNA$RLSLDCT ENTRY(1) ALTRET;
     1924     3134    1   DCL GHS$SET_TMR ENTRY(1);
     1925     3135
     1926     3136        %GH$TMR_BLK(FPTN=KNN$TMRBLK,STCLASS=STATIC);
     1927     3159
     1928     3160        %FPT_TERM_ACK(FPTN=FPT@TERM_ACK,STCLASS=CONSTANT);
     1929     3182
     1930     3183        %KN$NETPARM(NAME=KN_NETPARM_INIT,STCLASS=SYMREF);
     1931     3336        %KN$NETPARM(NAME=KN@NETPARM,STCLASS=AUTO);
     1932     3489
     1933     3490        %GATE(FPTN=KNN_LOCK,STCLASS=SYMREF);
     1934     3509
     1935     3510    1   DCL KN_DCT$$ PTR SYMREF;
     1936     3511    1   DCL KN$LDCT$(0:0) PTR BASED(KN_DCT$$);
     1937     3512        %KN$LDCT(NAME=KN$LDCT,STCLASS="BASED(LDCT$)");
     1938     3757
     1939     3758    1   DCL KNN_LINK$$ PTR SYMREF;
     1940     3759    1   DCL KNN$LINK$(0:0) PTR BASED(KNN_LINK$$);
     1941     3760    1   DCL LINK$ PTR;
PL6.E3A0      #003=KNN$SENDTERM_ACK File=KNN$NETWORK.:E05TSI                     WED 07/30/97 01:07 Page:299
     1942     3761        %KNN$LINK(STCLASS="BASED(LINK$)");
     1943     4012
     1944     4013    1   DCL ENTSWITCH BIT(1);
     1945     4014
     1946     4015    1      ENTSWITCH = '1'B;
     1947     4016    1      GOTO SKIPLOCK;
     1948     4017
     1949     4018    1   KNN$SENDTERM_ACK_DFR: ENTRY(ARG);
     1950     4019           %LOCK(G=KNN_LOCK);
     1951     4026    1      ENTSWITCH = '0'B;
     1952     4027    1   SKIPLOCK:;
     1953     4028    1      LDCT$ = KN$LDCT$(ARG);
     1954     4029    1      CTYPE = KN$LDCT.CONN_TYPE;
     1955     4030    1      IF ENTSWITCH THEN GOTO JUSTDEFER;
     1956     4031    1      KN@NETPARM = KN_NETPARM_INIT;
     1957     4032    1      KN@NETPARM.LDCT$ = LDCT$;
     1958     4033    1      KN@NETPARM.FPT$ = ADDR(FPT@TERM_ACK);
     1959     4034    1      KN@NETPARM.FUNCTION = %KN_FCN_TERM_ACK;
     1960     4035    1      KN@NETPARM.NHDR$ = ADDR(NIL);
     1961     4036    1      KN@NETPARM.NHDRSZ = 0;
     1962     4037    2      CALL KNH$SEND(KN@NETPARM) WHENALTRETURN DO;
     1963     4038    2   JUSTDEFER:;
     1964     4039    2           KNN$TMRBLK.PROC$ = ENTADDR(KNN$SENDTERM_ACK_DFR);
     1965     4040    2           KNN$TMRBLK.ARG = KN$LDCT.LDCTX;
     1966     4041    2           KNN$TMRBLK.INTERVAL = 15*5;     /*5 SECONDS                           */
     1967     4042    2           CALL GHS$SET_TMR(KNN$TMRBLK);
     1968     4043    2           IF ENTSWITCH THEN RETURN;
     1969     4044                %UNLOCK(G=KNN_LOCK);
     1970     4051    2           RETURN;
     1971     4052    2           END;
     1972     4053    2      IF CTYPE ~= %KN_CNTYPE_CIRCUIT THEN DO;
     1973     4054    2           LINK$ = KNN$LINK$(KN$LDCT.LINK_ID);
     1974     4055    2           KNN$LINK.LDCT$ = ADDR(NIL);
     1975     4056    2           END;
     1976     4057           %UNLOCK(G=KNN_LOCK);
     1977     4064    1      RETURN;
     1978     4065    1   END KNN$SENDTERM_ACK;
PL6.E3A0      #003=KNN$SENDTERM_ACK File=KNN$NETWORK.:E05TSI                     WED 07/30/97 01:07 Page:300

PL6.E3A0      #003=KNN$SENDTERM_ACK File=KNN$NETWORK.:E05TSI                     WED 07/30/97 01:07 Page:301
--  Include file information  --

   KNN_NETWORK_M.:E05TOU  is referenced.
   K_ADDRESS_M.:E05TOU  is referenced.
   KN_DATA_M.:E05TOU  is referenced.
   KNH_MACRO_C.:E05TOU  is referenced.
   GH_GATE_M.:E05TOU  cannot be made into a system file and is referenced.
   GH_SCHD_M.:E05TOU  is referenced.
      No diagnostics issued in procedure KNN$SENDTERM_ACK.

   Procedure KNN$SENDTERM_ACK requires 158 words for executable code.
   Procedure KNN$SENDTERM_ACK requires 48 words of local(AUTO) storage.

    No errors detected in file KNN$NETWORK.:E05TSI    .

PL6.E3A0      #003=KNN$SENDTERM_ACK File=KNN$NETWORK.:E05TSI                     WED 07/30/97 01:07 Page:302

 Object Unit name= KNN$SENDTERM_ACK                           File name= KNN$NETWORK.:E05TOU
 UTS= JUL 30 '97 01:07:54.72 WED                              Compiler= PL-6/E31         Sev=      00
 SharedLib= :SHARED_LCP6_SYSTEM                               Alt SharedLib=


    ****  Control sections  ****

 Sect   Type Bound  Init  Size HexSiz  Section name
    0   Data  even  none    10      A  KNN$SENDTERM_ACK
    1  RoData even  UTS      2      2  KNN$SENDTERM_ACK
    2   Proc  even  none   158     9E  KNN$SENDTERM_ACK
    3  RoData even  none     4      4  KNN$SENDTERM_ACK

    ****  Entry defs  ****

                              Check   Calling
                             calling  sequence
  Sect HexLoc Primary Altret sequence   type   Parms  Name
     2      0   yes            yes      Std        1  KNN$SENDTERM_ACK
     2      A                  yes      Std        1  KNN$SENDTERM_ACK_DFR

  ****  Entry refs  ****

         Check        Calling
        calling       sequence
Altret sequence SRef   type   Args  Name
 yes     yes           Std       1 GHH$LOCK
 yes     yes           Std       1 KNH$SEND
 yes     yes           Std       1 GHH$UNLOCK
         yes           Std       1 GHS$SET_TMR
         yes           Std       1 KNN$SENDTERM_ACK_DFR
                       nStd      0 X6A_AUTO_1
                       nStd      0 X6A_ARET
PL6.E3A0      #003=KNN$SENDTERM_ACK File=KNN$NETWORK.:E05TSI                     WED 07/30/97 01:07 Page:303

  ****  Data refs  ****

  Flags:  r = read only, s = secondary
Flgs Name                             Flgs Name                             Flgs Name
     KN_NETPARM_INIT                       KNN_LOCK                              KN_DCT$$
     KNN_LINK$$                       r    G$ROS$
PL6.E3A0      #003=KNN$SENDTERM_ACK File=KNN$NETWORK.:E05TSI                     WED 07/30/97 01:07 Page:304


     1905        1        /*T***********************************************************/
     1906        2        /*T*                                                         */
     1907        3        /*T* Copyright (c) Bull HN Information Systems Inc., 1997    */
     1908        4        /*T*                                                         */
     1909        5        /*T***********************************************************/
     1910        6        KNN$SENDTERM_ACK: PROC(ARG);

      6   2 000000  D380 0000 0000  xent KNN$SENDTERM_ACKLNJ,B5   X6A_AUTO_1
          2 000003       0030 0001                       DC       48,1

     1911        7
     1912        8        %INCLUDE GH_SCHD_M;
     1913      152        %INCLUDE GH_GATE_M;
     1914      193        %INCLUDE KNH_MACRO_C;
     1915      476        %INCLUDE KN_DATA_M;
     1916     2262        %INCLUDE K_ADDRESS_M;
     1917     2765        %INCLUDE KNN_NETWORK_M;
     1918     3128
     1919     3129    1   DCL ARG UBIN(16);
     1920     3130    1   DCL LDCT$ PTR;
     1921     3131    1   DCL CTYPE UBIN;
     1922     3132    1   DCL KNH$SEND ENTRY(1) ALTRET;
     1923     3133    1   DCL KNA$RLSLDCT ENTRY(1) ALTRET;
     1924     3134    1   DCL GHS$SET_TMR ENTRY(1);
     1925     3135
     1926     3136        %GH$TMR_BLK(FPTN=KNN$TMRBLK,STCLASS=STATIC);
     1927     3159
     1928     3160        %FPT_TERM_ACK(FPTN=FPT@TERM_ACK,STCLASS=CONSTANT);
     1929     3182
     1930     3183        %KN$NETPARM(NAME=KN_NETPARM_INIT,STCLASS=SYMREF);
     1931     3336        %KN$NETPARM(NAME=KN@NETPARM,STCLASS=AUTO);
     1932     3489
     1933     3490        %GATE(FPTN=KNN_LOCK,STCLASS=SYMREF);
     1934     3509
     1935     3510    1   DCL KN_DCT$$ PTR SYMREF;
     1936     3511    1   DCL KN$LDCT$(0:0) PTR BASED(KN_DCT$$);
PL6.E3A0      #003=KNN$SENDTERM_ACK File=KNN$NETWORK.:E05TSI                     WED 07/30/97 01:07 Page:305
     1937     3512        %KN$LDCT(NAME=KN$LDCT,STCLASS="BASED(LDCT$)");
     1938     3757
     1939     3758    1   DCL KNN_LINK$$ PTR SYMREF;
     1940     3759    1   DCL KNN$LINK$(0:0) PTR BASED(KNN_LINK$$);
     1941     3760    1   DCL LINK$ PTR;
     1942     3761        %KNN$LINK(STCLASS="BASED(LINK$)");
     1943     4012
     1944     4013    1   DCL ENTSWITCH BIT(1);
     1945     4014
     1946     4015    1      ENTSWITCH = '1'B;

   4015   2 000005  8947 002C                            LBT,'8000'X       ENTSWITCH,AUTO
   4015   2 000007       8000

     1947     4016    1      GOTO SKIPLOCK;

   4016   2 000008  0F81 0011                            B        s:4026,PREL

     1948     4017
     1949     4018    1   KNN$SENDTERM_ACK_DFR: ENTRY(ARG);

   4018   2 00000A  D380 0000 0000  xent KNN$SENDTERM_AC*LNJ,B5   X6A_AUTO_1
          2 00000D       0030 0001                       DC       48,1

     1950     4019           %LOCK(G=KNN_LOCK);

   4024   2 00000F  BB80 0000 0000  03                   LAB,B3   0
          2 000012  CBF0 0100                            LAB,B4   256,IMO
          2 000014  E380 0000 0000  xent                 LNJ,B6   GHH$LOCK
          2 000017       0001                            DC       s:4026,PREL

     1951     4026    1      ENTSWITCH = '0'B;

   4026   2 000018  8747 002C                            CL       ENTSWITCH,AUTO

   4026   2                              SKIPLOCK        null
     1952     4027    1   SKIPLOCK:;
PL6.E3A0      #003=KNN$SENDTERM_ACK File=KNN$NETWORK.:E05TSI                     WED 07/30/97 01:07 Page:306
     1953     4028    1      LDCT$ = KN$LDCT$(ARG);

   4028   2 00001A  ECC7 0004            SKIPLOCK        LDB,B6   @ARG,AUTO
          2 00001C  B806                                 LDR,R3   ,B6
          2 00001D  DC80 0000 0000  xsym                 LDB,B5   KN_DCT$$
          2 000020  CCB5                                 LDB,B4   ,B5,R3
          2 000021  CFC7 0006                            STB,B4   LDCT$,AUTO

     1954     4029    1      CTYPE = KN$LDCT.CONN_TYPE;

   4029   2 000023  E284                                 LLH,R6   ,B4
          2 000024  EF47 0008                            STR,R6   CTYPE,AUTO

     1955     4030    1      IF ENTSWITCH THEN GOTO JUSTDEFER;

   4030   2 000026  89C7 002C                            CMZ      ENTSWITCH,AUTO
          2 000028  0801 002A                            BAL      s:4037,PREL

     1956     4031    1      KN@NETPARM = KN_NETPARM_INIT;

   4031   2 00002A  AB80 0000 0000  xsym                 LAB,B2   KN_NETPARM_INIT
          2 00002D  2C00                                 LDV,R2   0
          2 00002E  6C42                                 LDV,R6   66
          2 00002F  BB87                                 LAB,B3   ,AUTO
          2 000030  3C12                                 LDV,R3   18
          2 000031  0008                                 MMM

     1957     4032    1      KN@NETPARM.LDCT$ = LDCT$;

   4032   2 000032  DCC7 0006                            LDB,B5   LDCT$,AUTO
          2 000034  DFC7 0009                            STB,B5   KN@NETPARM,AUTO

     1958     4033    1      KN@NETPARM.FPT$ = ADDR(FPT@TERM_ACK);

   4033   2 000036  CB80 0000 0000  01                   LAB,B4   FPT@TERM_ACK
          2 000039  CFC7 0022                            STB,B4   KN@NETPARM+25,AUTO

PL6.E3A0      #003=KNN$SENDTERM_ACK File=KNN$NETWORK.:E05TSI                     WED 07/30/97 01:07 Page:307
     1959     4034    1      KN@NETPARM.FUNCTION = %KN_FCN_TERM_ACK;

   4034   2 00003B  6C04                                 LDV,R6   4
          2 00003C  EF47 001D                            STR,R6   KN@NETPARM+20,AUTO

     1960     4035    1      KN@NETPARM.NHDR$ = ADDR(NIL);

   4035   2 00003E  AB80 0000 0000                       LAB,B2   0
          2 000041  AFC7 0017                            STB,B2   KN@NETPARM+14,AUTO

     1961     4036    1      KN@NETPARM.NHDRSZ = 0;

   4036   2 000043  8747 0019                            CL       KN@NETPARM+16,AUTO

     1962     4037    2      CALL KNH$SEND(KN@NETPARM) WHENALTRETURN DO;

   4037   2 000045  9BC7 0009                            LAB,B1   KN@NETPARM,AUTO
          2 000047  9FC7 002E                            STB,B1   ENTSWITCH+2,AUTO
          2 000049  BBC7 002E                            LAB,B3   ENTSWITCH+2,AUTO
          2 00004B  CBF0 0100                            LAB,B4   256,IMO
          2 00004D  E380 0000 0000  xent                 LNJ,B6   KNH$SEND
          2 000050       0003                            DC       s:4037,PREL
          2 000051  0F81 002D                            B        s:4053,PREL

   4037   2                              JUSTDEFER       null
     1963     4038    2   JUSTDEFER:;
     1964     4039    2           KNN$TMRBLK.PROC$ = ENTADDR(KNN$SENDTERM_ACK_DFR);

   4039   2 000053  EBC0 FFB6            JUSTDEFER       LAB,B6   s:4018,PREL
          2 000055  EF80 0000 0000  00                   STB,B6   KNN$TMRBLK

     1965     4040    2           KNN$TMRBLK.ARG = KN$LDCT.LDCTX;

   4040   2 000058  DCC7 0006                            LDB,B5   LDCT$,AUTO
          2 00005A  E845 0007                            LDR,R6   7,B5
          2 00005C  EF00 0000 0002  00                   STR,R6   KNN$TMRBLK+2

PL6.E3A0      #003=KNN$SENDTERM_ACK File=KNN$NETWORK.:E05TSI                     WED 07/30/97 01:07 Page:308
     1966     4041    2           KNN$TMRBLK.INTERVAL = 15*5;     /*5 SECONDS                           */

   4041   2 00005F  5C4B                                 LDV,R5   75
          2 000060  DF00 0000 0003  00                   STR,R5   KNN$TMRBLK+3

     1967     4042    2           CALL GHS$SET_TMR(KNN$TMRBLK);

   4042   2 000063  BB80 0000 0002  03                   LAB,B3   +2
          2 000066  CBF0 0100                            LAB,B4   256,IMO
          2 000068  E380 0000 0000  xent                 LNJ,B6   GHS$SET_TMR
          2 00006B       0001                            DC       s:4043,PREL

     1968     4043    2           IF ENTSWITCH THEN RETURN;

   4043   2 00006C  89C7 002C                            CMZ      ENTSWITCH,AUTO
          2 00006E  0881 0004                            BAGE     s:4049,PREL

   4043   2 000070  C380 0000 0000  xent                 LNJ,B4   X6A_ARET

     1969     4044                %UNLOCK(G=KNN_LOCK);

   4049   2 000073  BB80 0000 0000  03                   LAB,B3   0
          2 000076  CBF0 0100                            LAB,B4   256,IMO
          2 000078  E380 0000 0000  xent                 LNJ,B6   GHH$UNLOCK
          2 00007B       0001                            DC       s:4051,PREL

     1970     4051    2           RETURN;

   4051   2 00007C  C380 0000 0000  xent                 LNJ,B4   X6A_ARET

     1971     4052    2           END;
     1972     4053    2      IF CTYPE ~= %KN_CNTYPE_CIRCUIT THEN DO;

   4053   2 00007F  E847 0008                            LDR,R6   CTYPE,AUTO
          2 000081  6D07                                 CMV,R6   7
          2 000082  0901 000F                            BE       s:4062,PREL

PL6.E3A0      #003=KNN$SENDTERM_ACK File=KNN$NETWORK.:E05TSI                     WED 07/30/97 01:07 Page:309
     1973     4054    2           LINK$ = KNN$LINK$(KN$LDCT.LINK_ID);

   4054   2 000084  ECC7 0006                            LDB,B6   LDCT$,AUTO
          2 000086  B846 0003                            LDR,R3   3,B6
          2 000088  DC80 0000 0000  xsym                 LDB,B5   KNN_LINK$$
          2 00008B  CCB5                                 LDB,B4   ,B5,R3
          2 00008C  CFC7 002A                            STB,B4   LINK$,AUTO

     1974     4055    2           KNN$LINK.LDCT$ = ADDR(NIL);

   4055   2 00008E  BB80 0000 0000                       LAB,B3   0
          2 000091  BF84                                 STB,B3   ,B4

     1975     4056    2           END;

     1976     4057           %UNLOCK(G=KNN_LOCK);

   4062   2 000092  BB80 0000 0000  03                   LAB,B3   0
          2 000095  CBF0 0100                            LAB,B4   256,IMO
          2 000097  E380 0000 0000  xent                 LNJ,B6   GHH$UNLOCK
          2 00009A       0001                            DC       s:4064,PREL

     1977     4064    1      RETURN;

   4064   2 00009B  C380 0000 0000  xent                 LNJ,B4   X6A_ARET
     1978     4065    1   END KNN$SENDTERM_ACK;

PL6.E3A0      #003=KNN$SENDTERM_ACK File=KNN$NETWORK.:E05TSI                     WED 07/30/97 01:07 Page:310
--  Include file information  --

   KNN_NETWORK_M.:E05TOU  is referenced.
   K_ADDRESS_M.:E05TOU  is referenced.
   KN_DATA_M.:E05TOU  is referenced.
   KNH_MACRO_C.:E05TOU  is referenced.
   GH_GATE_M.:E05TOU  cannot be made into a system file and is referenced.
   GH_SCHD_M.:E05TOU  is referenced.
      No diagnostics issued in procedure KNN$SENDTERM_ACK.
PL6.E3A0      #003=KNN$SENDTERM_ACK File=KNN$NETWORK.:E05TSI                     WED 07/30/97 01:07 Page:311

 **** Variables and constants ****

  ****  Section 000  Data  KNN$SENDTERM_ACK

  ****  Scalars and arrays  ****
HexLoc.c.b A Datatyp(siz) R M Lvl/name                 HexLoc.c.b A Datatyp(siz) R M Lvl/name

     0-0-0/w STRC(160)   r     1 KNN$TMRBLK

  ****  Section 001 RoData KNN$SENDTERM_ACK

  ****  Scalars and arrays  ****
HexLoc.c.b A Datatyp(siz) R M Lvl/name                 HexLoc.c.b A Datatyp(siz) R M Lvl/name

     0-0-0/w STRC(32)    r     1 FPT@TERM_ACK

  ****  Auto variables  ****

  ****  Scalars and arrays  ****
HexLoc.c.b A Datatyp(siz) R M Lvl/name                 HexLoc.c.b A Datatyp(siz) R M Lvl/name

     4-0-0/w PTR         r     1 @ARG                      *0-0-0/w UBIN(16)    r     1 ARG
     8-0-0/w UBIN(16)    r     1 CTYPE                     2C-0-0/b BIT         r     1 ENTSWITCH
     9-0-0/w STRC(528)   r     1 KN@NETPARM                 6-0-0/w PTR         r     1 LDCT$
    2A-0-0/w PTR         r     1 LINK$

  ****  SYMREF variables  ****

  ****  Scalars and arrays  ****
HexLoc.c.b A Datatyp(siz) R M Lvl/name                 HexLoc.c.b A Datatyp(siz) R M Lvl/name

     0-0-0/w PTR         r     1 KNN_LINK$$                 0-0-0/w STRC(48)    r     1 KNN_LOCK
     0-0-0/w PTR         r     1 KN_DCT$$                   0-0-0/w STRC(528)   r     1 KN_NETPARM_INIT

  ****  BASED and DCB variables  ****

  ****  Scalars and arrays  ****
PL6.E3A0      #003=KNN$SENDTERM_ACK File=KNN$NETWORK.:E05TSI                     WED 07/30/97 01:07 Page:312
HexLoc.c.b A Datatyp(siz) R M Lvl/name                 HexLoc.c.b A Datatyp(siz) R M Lvl/name

     0-0-0/w STRC(256)   r     1 KN$LDCT
     0-0-0/w PTR         r     1 KN$LDCT$(0:0)
     0-0-0/c STRC(608)   r     1 KNN$LINK
     0-0-0/w PTR         r     1 KNN$LINK$(0:0)


   Procedure KNN$SENDTERM_ACK requires 158 words for executable code.
   Procedure KNN$SENDTERM_ACK requires 48 words of local(AUTO) storage.

    No errors detected in file KNN$NETWORK.:E05TSI    .
PL6.E3A0      #003=KNN$SENDTERM_ACK File=KNN$NETWORK.:E05TSI                     WED 07/30/97 01:07 Page:313
          *** CROSS REFERENCE LISTING ***
**     DENOTES     IDENTIFIER DEFINITION
<<                 IDENTIFIER'S VALUE SET
>>                 IDENTIFIER'S VALUE USED
<>                 IDENTIFIER SET AND/OR USED
--                 IDENTIFIER REFERENCED
PL6.E3A0      #003=KNN$SENDTERM_ACK File=KNN$NETWORK.:E05TSI                     WED 07/30/97 01:07 Page:314
          MINI XREF LISTING

ARG
      3129**DCL         6--PROC     4018--ENTRY    4028>>ASSIGN
CTYPE
      3131**DCL      4029<<ASSIGN   4053>>IF
ENTSWITCH
      4013**DCL      4015<<ASSIGN   4026<<ASSIGN   4030>>IF       4043>>IF
FPT@TERM_ACK
      3176**DCL      4033--ASSIGN
GHH$LOCK
       192**DCL-ENT  4024--CALL
GHH$UNLOCK
       192**DCL-ENT  4049--CALL     4062--CALL
GHS$SET_TMR
      3134**DCL-ENT  4042--CALL
JUSTDEFER
      4037**LABEL    4030--GOTO
KN$LDCT.CONN_TYPE
      3528**DCL      4029>>ASSIGN
KN$LDCT.LDCTX
      3669**DCL      4040>>ASSIGN
KN$LDCT.LINK_ID
      3630**DCL      4054>>ASSIGN
KN$LDCT.RLCID.LDCTX
      3588**DCL      3595--REDEF    3603--REDEF
KN$LDCT.TRANSPORT_ID
      3622**DCL      3630--REDEF
KN$LDCT.UID
      3652**DCL      3653--REDEF    3662--REDEF
KN$LDCT$
      3511**DCL      4028>>ASSIGN
KN@NETPARM
      3349**DCL      4031<<ASSIGN   4037<>CALL
PL6.E3A0      #003=KNN$SENDTERM_ACK File=KNN$NETWORK.:E05TSI                     WED 07/30/97 01:07 Page:315
KN@NETPARM.FPT$
      3468**DCL      4033<<ASSIGN
KN@NETPARM.FUNCTION
      3444**DCL      4034<<ASSIGN
KN@NETPARM.LDCT$
      3350**DCL      4032<<ASSIGN
KN@NETPARM.MSG$
      3356**DCL      3361--REDEF
KN@NETPARM.NHDR$
      3408**DCL      3409--REDEF    4035<<ASSIGN
KN@NETPARM.NHDRSZ
      3414**DCL      4036<<ASSIGN
KN@NETPARM.SHDR$
      3386**DCL      3387--REDEF
KN@NETPARM.THDR$
      3397**DCL      3398--REDEF
KN@NETPARM.UHDR$
      3372**DCL      3373--REDEF
KNH$SEND
      3132**DCL-ENT  4037--CALL
KNN$LINK.DEST.ADDRESS_N
      3949**DCL      3950--REDEF
KNN$LINK.LADR.ADDRESS_N
      3892**DCL      3893--REDEF
KNN$LINK.LDCT$
      3763**DCL      3770--REDEF    4055<<ASSIGN
KNN$LINK$
      3759**DCL      4054>>ASSIGN
KNN$SENDTERM_ACK_DFR
      4018**ENTRY    4039--ASSIGN
KNN$TMRBLK
      3150**DCL      4042<>CALL
KNN$TMRBLK.ARG
      3154**DCL      3155--REDEF    4040<<ASSIGN
KNN$TMRBLK.INTERVAL
      3155**DCL      4041<<ASSIGN
PL6.E3A0      #003=KNN$SENDTERM_ACK File=KNN$NETWORK.:E05TSI                     WED 07/30/97 01:07 Page:316
KNN$TMRBLK.PROC$
      3154**DCL      4039<<ASSIGN
KNN_LINK$$
      3758**DCL      3759--IMP-PTR  4054>>ASSIGN
KNN_LOCK
      3502**DCL      4024<>CALL     4049<>CALL     4062<>CALL
KN_DCT$$
      3510**DCL      3511--IMP-PTR  4028>>ASSIGN
KN_NETPARM_INIT
      3196**DCL      4031>>ASSIGN
KN_NETPARM_INIT.MSG$
      3203**DCL      3208--REDEF
KN_NETPARM_INIT.NHDR$
      3255**DCL      3256--REDEF
KN_NETPARM_INIT.SHDR$
      3233**DCL      3234--REDEF
KN_NETPARM_INIT.THDR$
      3244**DCL      3245--REDEF
KN_NETPARM_INIT.UHDR$
      3219**DCL      3220--REDEF
LDCT$
      3130**DCL      3527--IMP-PTR  4028<<ASSIGN   4029>>ASSIGN   4032>>ASSIGN   4040>>ASSIGN   4054>>ASSIGN
LINK$
      3760**DCL      3762--IMP-PTR  4054<<ASSIGN   4055>>ASSIGN
SKIPLOCK
      4026**LABEL    4016--GOTO
