VERSION E05

PL6.E3A0      #001=KNN$SEND File=KNN$NETWORK.:E05TSI                             WED 07/30/97 01:04 Page:1
        1        1        /*M* KNN$NETWORK - send and receive CP6 network level messages*/
        2        2        /*T***********************************************************/
        3        3        /*T*                                                         */
        4        4        /*T* Copyright (c) Bull HN Information Systems Inc., 1997    */
        5        5        /*T*                                                         */
        6        6        /*T***********************************************************/
        7        7
        8        8        /*X* PLM=3,IND=5,ECU=0,ENU=0   */
        9        9
       10       10        KNN$SEND: PROC (KN$NETPARM) ALTRET;
       11       11
       12       12        %INCLUDE K_SCODE_C;
       13       97        %INCLUDE GU_LCP6_M;
       14     1025        %INCLUDE KN_DATA_M;
       15     2811        %INCLUDE KNH_MACRO_C;
       16     3094        %INCLUDE KNN_NETWORK_M;
       17     3457        %INCLUDE K_QDPHDRS_M;
       18     4339        %INCLUDE KJ_FCNS_C;
       19     4366        %INCLUDE K_ADDRESS_M;
       20     4869        %INCLUDE KL_MACRO_C;
       21     8221        %INCLUDE K_INTERFACE_M;
       22     8630        %INCLUDE KI_CP6;
       23     9726        %INCLUDE KI_SUBS_C;
       24     9862
       25     9863                                                /* Parameters                         */
       26     9864        %PLIST;
       27     9865        %KN$NETPARM (NAME=KN$NETPARM);
       28    10018
       29    10019                                                /* Auto                               */
       30    10020        %K$NQDP_HDR (NAME=QDP_HDR, STCLASS=AUTO);
       31    10097        %K$NQDP_HDR (NAME=OSI_INIT,STCLASS=AUTO,MSGTYPE=OSI_INIT); /* a big one,too*/
       32    10442    1   DCL DEST_NODE UBIN;
       33    10443    1   DCL ROUTE$ PTR;
       34    10444    1   DCL LINK$ PTR;
       35    10445    1   DCL TLINK$ PTR;
       36    10446    1   DCL LINK# UBIN;
       37    10447    1   DCL CHAN# UBIN;
PL6.E3A0      #001=KNN$SEND File=KNN$NETWORK.:E05TSI                             WED 07/30/97 01:04 Page:2
       38    10448    1   DCL QQQ$ PTR AUTO;
       39    10449    1   DCL SAVE_FPT$ PTR;
       40    10450    1   DCL I UBIN;
       41    10451    1   DCL J UBIN;
       42    10452        %KL_UPDOSI(FPTN=ROUTE,ADRTYP=NET,STCLASS=AUTO);
       43    10661        %FPT_CONNECT(STCLASS=AUTO,ADRTYP=NET);
       44    10832    1   DCL SNPATMPLT1 CHAR(8) ALIGNED;
       45    10833    1   DCL 1 SNPATMPLT2 REDEF SNPATMPLT1 ALIGNED,
       46    10834    1         2 NIBBLES(0:13) UNAL,
       47    10835    1           3 NIB UBIN(4) UNAL;
       48    10836
       49    10837    1   DCL SNPATMPLT3 CHAR(8) ALIGNED;
       50    10838    1   DCL 1 SNPATMPLT4 REDEF SNPATMPLT3 ALIGNED,
       51    10839    1         2 NIBBLES(0:13) UNAL,
       52    10840    1           3 NIB UBIN(4) UNAL;
       53    10841
       54    10842                                                /* External Data                      */
       55    10843    1   DCL KN_NODE# UBIN SYMREF;
       56    10844    1   DCL KNN_ROUTE$$ PTR SYMREF;
       57    10845    1   DCL KNN_NODES UBIN SYMREF;
       58    10846    1   DCL KNN_LINK$$ PTR SYMREF;
       59    10847    1   DCL KNN_LINKS UBIN SYMREF;
       60    10848
       61    10849                                                /* Internal Data                      */
       62    10850
       63    10851        %K$NQDP_HDR (NAME=INIT_QDP_HDR, STCLASS=CONSTANT, MSGTYPE=OSI_DATA);
       64    10928        %K$NQDP_HDR (NAME=OSI_INIT_C,STCLASS=CONSTANT,MSGTYPE=OSI_INIT);
       65    11273
       66    11274        %FPT_CONNECT(FPTN=FPT_CONNECT_C,STCLASS=CONSTANT,ADRTYP=NET,TYPE=CIRCUIT);
       67    11445        %VLP_SCODE (FPTN=SNODES,ERR#=%S$BADNODE,SEV=G_SEV_SCREECH#,
       68    11446                    STCLASS=CONSTANT,FCG=KN,MID=N,MON='1'B);
       69    11507
       70    11508        %VLP_SCODE (FPTN=PRTCLERR,ERR#=%S$PRTCLERR,SEV=G_SEV_SCREECH#,
       71    11509                       STCLASS=CONSTANT,FCG=KN,MID=N,MON='1'B);
       72    11570
       73    11571        %VLP_SCODE (FPTN=BADFNC,ERR#=%S$BADFNC,SEV=G_SEV_SCREECH#,
       74    11572                       STCLASS=CONSTANT,FCG=KN,MID=N,MON='1'B);
PL6.E3A0      #001=KNN$SEND File=KNN$NETWORK.:E05TSI                             WED 07/30/97 01:04 Page:3
       75    11633
       76    11634                                                /* Entry references                   */
       77    11635    1   DCL KNH$SEND ENTRY(1) ALTRET;
       78    11636    1   DCL KNN$DECODE_NSAP ENTRY(2) ALTRET;
       79    11637    1   DCL KNA$RLSLDCT ENTRY(1) ALTRET;
       80    11638    1   DCL KNA$GETLDCT ENTRY(1) ALTRET;
       81    11639    1   DCL KNN$RECV ENTRY(1) ALTRET;
       82    11640    1   DCL SCREECH ENTRY(1);
       83    11641    1   DCL KNN$SENDOSI ENTRY(1) ALTRET;
       84    11642
       85    11643                                                /* Based structures                   */
       86    11644    1   DCL KNN$ROUTE$(0:0) PTR BASED(KNN_ROUTE$$);
       87    11645    1   DCL KNN$LINK$(0:0) PTR BASED(KNN_LINK$$);
       88    11646        %KNN$ROUTE (STCLASS="BASED(ROUTE$)");
       89    11718        %KNN$LINK (STCLASS="BASED(LINK$)");
       90    11969        %KN$LDCT (STCLASS="BASED(KN$NETPARM.LDCT$)");
       91    12214        %K$NSAP(FPTN=DST,STCLASS="BASED(KN$NETPARM.DST_ADDR$)");
       92    12266        %K$NSAP(FPTN=SRC,STCLASS="BASED(KN$NETPARM.SRC_ADDR$)");
       93    12318        %EJECT;
PL6.E3A0      #001=KNN$SEND File=KNN$NETWORK.:E05TSI                             WED 07/30/97 01:04 Page:4
       94    12319
       95    12320        /*F* NAME: Fep_Network_Services
       96    12321
       97    12322        KNN$NETWORK contains the network functions for the FEP. It
       98    12323        interfaces to KNH (Handler monitor interface, KNT (transport),
       99    12324        or KNS (session).
      100    12325
      101    12326        The file KNN$NETWORK contains the following modules:
      102    12327
      103    12328        .fif
      104    12329        }  KNN$SEND  - Forwards messages to another node
      105    12330        }  KNN$RECV  - Receives incoming messages
      106    12331        .fin
      107    12332
      108    12333        */
      109    12334        %EJECT;
PL6.E3A0      #001=KNN$SEND File=KNN$NETWORK.:E05TSI                             WED 07/30/97 01:04 Page:5
      110    12335
      111    12336        /*F* NAME: KNN$SEND Outbound Messages
      112    12337
      113    12338        This procedure is the interface for the higher layers to the
      114    12339        network layer. It is called from KNS$SEND or KNT$SEND with
      115    12340        the following parameters:
      116    12341
      117    12342        .fif
      118    12343        }  KN$NETPARM.FUNCTION
      119    12344        }                     - Contains the function to be performed
      120    12345        }                       When called for CP-6 connections:
      121    12346        }                          KN_FCN_DATA
      122    12347        }                       When called for OSI connections:
      123    12348        }                          K_NCONNECT_REQ
      124    12349        }                          K_NDATA_REQ
      125    12350        }
      126    12351        }  KN$NETPARM.NODE contains the desintation node#.
      127    12352        .fin
      128    12353
      129    12354        A network header is built in auto and KN$NETPARM is updated
      130    12355        to frame this header in .NHDR$ and .NHDRSZ.
      131    12356
      132    12357        KNN$SEND finds the KNN$ROUTE table entry for the destination
      133    12358        node, and then finds the KNN$LINK table entry from KNN$ROUTE.LINK$.
      134    12359
      135    12360        KN$NETPARM.LDCT$ is reset with the address of the LDCT that is
      136    12361        specified in KNN$LINK.LDCT$.
      137    12362
      138    12363        The message is then forwarded by a call to KNH$SEND with function
      139    12364        set to DATA.
      140    12365        */
      141    12366
      142    12367        /*
      143    12368             coupler uses rectype as the function code when transmitting non
      144    12369             standard function types such as time messages back to the host.
      145    12370        */
      146    12371    1      KN$NETPARM.RECTYPE = 0;
PL6.E3A0      #001=KNN$SEND File=KNN$NETWORK.:E05TSI                             WED 07/30/97 01:04 Page:6
      147    12372        /*
      148    12373                connection request for OSI transport over CONS.
      149    12374        */
      150    12375    1      IF KN$NETPARM.FUNCTION = %K_NCONNECT_REQ
      151    12376    2        AND KN$NETPARM.FLAGS.CONS THEN DO;
      152    12377    3           CALL KNN$DECODE_NSAP(DST,ROUTE) WHENALTRETURN DO;
      153    12378    3                KN$NETPARM.ERRCODE = %KN_ERR_NORTE;
      154    12379    3                ALTRETURN;
      155    12380    3                END;
      156    12381    3           IF ROUTE.QOS = 255 OR ROUTE.FEP# >= KNN_NODES THEN DO;
      157    12382    3                KN$NETPARM.ERRCODE = %KN_ERR_NORTE;
      158    12383    3                ALTRETURN;
      159    12384    3                END;
      160    12385
      161    12386
      162    12387    2           IF KN_NODE# = ROUTE.FEP# THEN;  /* this node is the boundry node      */
      163    12388    3           ELSE DO;
      164    12389    3                IF KNN$ROUTE$(ROUTE.FEP#)->KNN$ROUTE.LINK$ = ADDR(NIL) OR
      165    12390    4                  KNN$ROUTE$(ROUTE.FEP#)->KNN$ROUTE.CURRENT_QOS = 255 THEN DO;
      166    12391    4                     KN$NETPARM.ERRCODE = %KN_ERR_NORTE;
      167    12392    4                     CALL KNA$RLSLDCT(KN$NETPARM.LDCT$);
      168    12393    4                     ALTRETURN;
      169    12394    4                     END;
      170    12395
      171    12396    3                LINK$ = KNN$ROUTE$(ROUTE.FEP#)->KNN$ROUTE.LINK$;
      172    12397    4                IF KNN$LINK.LDCT$ = ADDR(NIL) OR KNN$LINK.QOS = 255 THEN DO;
      173    12398    4                     KN$NETPARM.ERRCODE = %KN_ERR_NORTE;
      174    12399    4                     ALTRETURN;
      175    12400    4                     END;
      176    12401    3                LINK# = KNN$LINK.LDCT$->KN$LDCT.LINK_ID;
      177    12402    3                END;
      178    12403        /*
      179    12404             now that we are sure that there is a route associated with this link.
      180    12405             This could be a connection request from the host, in which case we need
      181    12406             to allocate the ldct.  If the connection request is from a remote connected
      182    12407             system then the ldct was allocated during the knn$recv.fpt_connect code.
      183    12408             Transport is reqesting us to build a K_MSGTYP_OSI_INIT#.
PL6.E3A0      #001=KNN$SEND File=KNN$NETWORK.:E05TSI                             WED 07/30/97 01:04 Page:7
      184    12409        */
      185    12410    3           IF KN$NETPARM.LDCT$ = ADDR(NIL) THEN DO;
      186    12411    4                CALL KNA$GETLDCT(KN$NETPARM.LDCT$) WHENALTRETURN DO;
      187    12412    4                     KN$NETPARM.ERRCODE = %KN_ERR_NOLDCT;
      188    12413    4                     ALTRETURN;
      189    12414    4                     END;
      190    12415    3                KN$LDCT.CONN_TYPE = %KN_CNTYPE_CIRCUIT;
      191    12416    3                KN$LDCT.STATE = %KN_ST_OPENING;
      192    12417    3                KN$LDCT.USER_ENTRY$ = ENTADDR(KNN$RECV);
      193    12418        /*
      194    12419             to find the link on which to issue this connect.  scan the list of links and
      195    12420             compare the chan# with knn$link.chan# and not vc.
      196    12421        */
      197    12422    4                IF KN_NODE# = ROUTE.FEP# THEN DO;
      198    12423                   /*
      199    12424                   the connection to the network is on this node.
      200    12425                   */
      201    12426    5                     DO J = 0 TO KNN_LINKS - 1;
      202    12427    5                          LINK$ = KNN$LINK$(J);
      203    12428    5                          IF NOT KNN$LINK.FLAGS.VIRCIR
      204    12429    5                            AND KNN$LINK.NODE# >= %K_CNC_IS#
      205    12430    5                            AND KNN$LINK.LDCT$ ~= ADDR(NIL)
      206    12431    6                          THEN DO;
      207    12432    6                               SNPATMPLT1 = ROUTE.SNPA.ADDRESS;
      208    12433    6                               SNPATMPLT3 = KNN$LINK.SNPA.ADDRESS;
      209    12434    7                               DO I = 0 TO MINIMUM(ROUTE.SNPA.LEN,KNN$LINK.SNPA.LEN)-1;
      210    12435    7                                    IF SNPATMPLT2.NIBBLES.NIB(I) ~= SNPATMPLT4.NIBBLES.
             12435                                             NIB(I) THEN
      211    12436    7                                         GOTO NXTJ2;
      212    12437    7                                    END;   /* do i = 0 to min(len,len)-1         */
      213    12438    6                               TLINK$ = LINK$;
      214    12439    6                               GOTO FOUNDROUTE;
      215    12440    6                               END;        /* if not vircir and node > is        */
      216    12441    5   NXTJ2:                 ;
      217    12442    5                          END;             /* do j= 0 to knn_links -1            */
      218    12443    4                     GOTO NOROUTE;
      219    12444    4                     END;                  /* if kn_node# = route.fep#           */
PL6.E3A0      #001=KNN$SEND File=KNN$NETWORK.:E05TSI                             WED 07/30/97 01:04 Page:8
      220    12445    4                ELSE DO;
      221    12446    4                     CHAN# = KNN$LINK.CHAN#;
      222    12447    5                     DO I = 0 TO KNN_LINKS-1;
      223    12448    5                          TLINK$ = KNN$LINK$(I);
      224    12449    6                          IF TLINK$->KNN$LINK.CHAN# = CHAN# AND NOT TLINK$->KNN$LINK.
             12449                                   FLAGS.VIRCIR THEN DO;
      225    12450    6                               QQQ$ = KN$NETPARM.LDCT$;
             12450                                        /* save so we can return it to transport*/
      226    12451    7                               IF TLINK$->KNN$LINK.LDCT$ = ADDR(NIL) THEN DO;
      227    12452    7   NOROUTE:                         CALL KNA$RLSLDCT(KN$NETPARM.LDCT$);
      228    12453    7                                    KN$NETPARM.ERRCODE = %KN_ERR_NORTE;
      229    12454    7                                    ALTRETURN;
      230    12455    7                                    END;
      231    12456    6                               GOTO FOUNDROUTE;
      232    12457    6                               END;        /* chan# and not vircir               */
      233    12458    5                          END;             /* do i = 0 knn_links                 */
      234    12459    4                     GOTO NOROUTE;
      235    12460    4                     END;                  /* else kn_node = route.fep#          */
      236    12461    3   FOUNDROUTE:  ;
      237    12462    3                KN$LDCT.UID = TLINK$->KNN$LINK.LDCT$->KN$LDCT.UID;
      238    12463    3                KN$LDCT.USER# = TLINK$->KNN$LINK.LDCT$->KN$LDCT.USER#;
      239    12464    3                FPT_CONNECT = FPT_CONNECT_C;
      240    12465    3                FPT_CONNECT.CLASS = 0;
      241    12466    3                FPT_CONNECT.TR_FLAGS = '0'B;
      242    12467    3                IF ROUTE.NW_TYPE ~= %K_NWTYPE_X2580
      243    12468    4                THEN DO;
      244    12469    4                     FPT_CONNECT.DEST = DST;
      245    12470    4                     FPT_CONNECT.LADR = SRC;
      246    12471    4                     FPT_CONNECT.DSTSNPA = ROUTE.SNPA;
      247    12472    4                     END;
      248    12473    4                ELSE DO;
      249    12474    4                     FPT_CONNECT.DSTSNPA = DST;
      250    12475    4                     FPT_CONNECT.DSTSNPA.LNG = FPT_CONNECT.DSTSNPA.LNG*2;
      251    12476    4                     END;
      252    12477    3                KN$NETPARM.FUNCTION = %KN_FCN_INIT;
      253    12478    3                FPT_CONNECT.RESOURCE = ' ';
      254    12479    3                KN$NETPARM.RECTYPE = 0;
PL6.E3A0      #001=KNN$SEND File=KNN$NETWORK.:E05TSI                             WED 07/30/97 01:04 Page:9
      255    12480    3                KN$NETPARM.THDRSZ = 0;
      256    12481    3                KN$NETPARM.UHDRSZ = 0;
      257    12482    3                KN$NETPARM.SHDRSZ = 0;
      258    12483    3                KN$NETPARM.NHDRSZ = 0;
      259    12484    3                IF KN$NETPARM.FLAGS.CONS = '0'B
      260    12485    3                THEN KN$NETPARM.MSGSZ = 0; /*else contains tpdu_un*/
      261    12486    3                KN$NETPARM.FPT$ = ADDR(FPT_CONNECT);
      262    12487    4                CALL KNH$SEND(KN$NETPARM) WHENALTRETURN DO;
      263    12488    4                     GOTO NOROUTE;         /* error code is set by send          */
      264    12489    4                     END;
      265    12490    3                RETURN;     /* now back to transport to await the fpt_init_ack   */
      266    12491    3                END;                       /* if ldct = addr(nil)                */
      267    12492    3           ELSE DO;         /* ldct is not addr(nil) connection is to the host   */
      268    12493    3                DEST_NODE = ROUTE.HOST#;
      269    12494    3                ROUTE$ = KNN$ROUTE$(DEST_NODE);
      270    12495    3                IF NOT KNN$ROUTE.FLAGS.LINK_CONNECTED
      271    12496    4                  OR NOT KNN$ROUTE.FLAGS.HOST_NODE OR KNN$ROUTE.CURRENT_QOS = 255 THEN
             12496                           DO;
      272    12497        /*
      273    12498                   if the dest node is not link connected and it is not a host node then
      274    12499                   we shouldn't be here
      275    12500        */
      276    12501    4                     KN$NETPARM.ERRCODE = %KN_ERR_NORTE;
      277    12502    4                     ALTRETURN;
      278    12503    4                     END;
      279    12504    3                IF KNN$ROUTE.LINK$ = ADDR(NIL)
      280    12505    4                  OR KNN$ROUTE.LINK$->KNN$LINK.LDCT$ = ADDR(NIL) THEN DO;
      281    12506    4                     KN$NETPARM.ERRCODE = %KN_ERR_NORTE;
      282    12507    4                     ALTRETURN;
      283    12508    4                     END;
      284    12509
      285    12510    3                QQQ$ = KN$NETPARM.LDCT$;
      286    12511    3                KN$NETPARM.LDCT$ = KNN$ROUTE.LINK$->KNN$LINK.LDCT$;
      287    12512    3                KN$NETPARM.FUNCTION = %KN_FCN_DATA;
      288    12513    3                OSI_INIT = OSI_INIT_C;
      289    12514    3                OSI_INIT.DEST_NODE = DEST_NODE + 1;
      290    12515    3                OSI_INIT.SOURCE_NODE = KN_NODE# + 1;
PL6.E3A0      #001=KNN$SEND File=KNN$NETWORK.:E05TSI                             WED 07/30/97 01:04 Page:10
      291    12516    3                OSI_INIT.DST_NSAP = DST;
      292    12517    3                OSI_INIT.SRC_NSAP = SRC;
      293    12518    3                KN$NETPARM.NHDR$ = ADDR(OSI_INIT);
      294    12519    3                KN$NETPARM.NHDRSZ = LENGTHC(OSI_INIT);
      295    12520    3                SAVE_FPT$ = KN$NETPARM.FPT$;
      296    12521    3                KN$NETPARM.FPT$ = ADDR(NIL);
      297    12522    3                CALL KNH$SEND(KN$NETPARM) ALTRET(ERROR1);
      298    12523
      299    12524    3                KNN$ROUTE.LINK$->KNN$LINK.MSGS_OUT = KNN$ROUTE.LINK$->KNN$LINK.MSGS_OUT
             12524                         + 1;
      300    12525    3                LINK# = KN$LDCT.LINK_ID;
      301    12526    3                KNN$ROUTE.LINK.MSGS_OUT(LINK#) = KNN$ROUTE.LINK.MSGS_OUT(LINK#) + 1;
      302    12527
      303    12528    3                KN$NETPARM.LDCT$ = QQQ$;
      304    12529    3                KN$NETPARM.FPT$ = SAVE_FPT$;
      305    12530    3                RETURN;
      306    12531    3                END;                       /* else ldct ~= addr(nil)             */
      307    12532    2           END;                            /* function = nconnect and CONS       */
      308    12533        %EJECT;
PL6.E3A0      #001=KNN$SEND File=KNN$NETWORK.:E05TSI                             WED 07/30/97 01:04 Page:11
      309    12534        /*
      310    12535                connection request for OSI transport over CLNS.
      311    12536        */
      312    12537
      313    12538    2      IF KN$NETPARM.FUNCTION = %K_NCONNECT_REQ THEN DO;
      314    12539    2           KN$NETPARM.FUNCTION = %K_NDATA;
      315    12540    2           OSI_INIT = OSI_INIT_C;
      316    12541    2           OSI_INIT.DEST_NODE = KN$NETPARM.NODE + 1;
      317    12542    2           DEST_NODE = KN$NETPARM.NODE;
      318    12543    2           OSI_INIT.SOURCE_NODE = KN_NODE# + 1;
      319    12544    2           OSI_INIT.DST_NSAP = DST;
      320    12545    2           OSI_INIT.SRC_NSAP = SRC;
      321    12546    2           KN$NETPARM.UHDRSZ = 0;
      322    12547    2           KN$NETPARM.NHDR$ = ADDR(OSI_INIT);
      323    12548    2           KN$NETPARM.NHDRSZ = LENGTHC(OSI_INIT);
      324    12549    2           QQQ$ = KN$NETPARM.LDCT$;
      325    12550    2           SAVE_FPT$ = KN$NETPARM.FPT$;
      326    12551    2           KN$NETPARM.FPT$ = ADDR(NIL);
      327    12552    3           IF DEST_NODE <= KNN_NODES THEN DO;
      328    12553    3                ROUTE$ = KNN$ROUTE$(DEST_NODE);
      329    12554    3                IF KNN$ROUTE.LINK$ = ADDR(NIL)
      330    12555    3                  OR KNN$ROUTE.LINK$->KNN$LINK.LDCT$ = ADDR(NIL)
      331    12556    3                  OR NOT KNN$ROUTE.FLAGS.LINK_CONNECTED
      332    12557    4                  OR NOT KNN$ROUTE.FLAGS.HOST_NODE THEN DO;
      333    12558    4                     KN$NETPARM.ERRCODE = %KN_ERR_NORTE;
      334    12559    4                     GOTO ERROR1;
      335    12560    4                     END;
      336    12561    3                KN$NETPARM.LDCT$ = KNN$ROUTE.LINK$->KNN$LINK.LDCT$;
      337    12562    3                CALL KNH$SEND(KN$NETPARM) ALTRET(ERROR1);
      338    12563    3                END;                       /*  if dest_node <                    */
      339    12564    3           ELSE DO;
      340    12565    3                KN$NETPARM.ERRCODE = %KN_ERR_NORTE;
      341    12566    3                GOTO ERROR1;
      342    12567    3                END;                       /* else dest_node <                   */
      343    12568    2           RETURN;
      344    12569    2           END;                            /* nconnect and CLNS                  */
      345    12570        %EJECT;
PL6.E3A0      #001=KNN$SEND File=KNN$NETWORK.:E05TSI                             WED 07/30/97 01:04 Page:12
      346    12571
      347    12572    2      IF KN$NETPARM.FUNCTION = %K_NDATA THEN DO;
      348    12573        /*
      349    12574             a function of k_ndata could indicate one of two things:
      350    12575                1 - an incoming transport frag from a foreign osi
      351    12576                    system.  In this case we build an osi_data message and forward
      352    12577                    to the designated host.
      353    12578
      354    12579                2 - an outgoing data message.  These are for OSI CLNS
      355    12580                    connections which have already been established.  forward kn$netparm
      356    12581                    to sendosi.
      357    12582        */
      358    12583    3           IF KN$NETPARM.DST_ADDR$ = ADDR(NIL) THEN DO;
      359    12584         /*
      360    12585                incoming request to be forwarded to the host
      361    12586        */
      362    12587    3                QDP_HDR = INIT_QDP_HDR;
      363    12588    3                QDP_HDR.DEST_NODE = KN$NETPARM.NODE + 1;
      364    12589    3                DEST_NODE = KN$NETPARM.NODE;
      365    12590    3                QDP_HDR.SOURCE_NODE = KN_NODE# + 1;
      366    12591    3                KN$NETPARM.UHDRSZ = 0;
      367    12592    3                KN$NETPARM.NHDR$ = ADDR(QDP_HDR);
      368    12593    3                KN$NETPARM.NHDRSZ = LENGTHC(QDP_HDR);
      369    12594    3                QQQ$ = KN$NETPARM.LDCT$;
      370    12595    3                SAVE_FPT$ = KN$NETPARM.FPT$;
      371    12596    3                KN$NETPARM.FPT$ = ADDR(NIL);
      372    12597    4                IF DEST_NODE <= KNN_NODES THEN DO;
      373    12598    4                     ROUTE$ = KNN$ROUTE$(DEST_NODE);
      374    12599    4                     IF KNN$ROUTE.LINK$ = ADDR(NIL)
      375    12600    4                       OR KNN$ROUTE.LINK$->KNN$LINK.LDCT$ = ADDR(NIL)
      376    12601    4                       OR NOT KNN$ROUTE.FLAGS.LINK_CONNECTED
      377    12602    5                       OR NOT KNN$ROUTE.FLAGS.HOST_NODE THEN DO;
      378    12603    5                          KN$NETPARM.ERRCODE = %KN_ERR_NORTE;
      379    12604    5                          GOTO ERROR1;
      380    12605    5                          END;
      381    12606    4                     KN$NETPARM.LDCT$ = KNN$ROUTE.LINK$->KNN$LINK.LDCT$;
      382    12607    4                     CALL KNH$SEND(KN$NETPARM) ALTRET(ERROR1);
PL6.E3A0      #001=KNN$SEND File=KNN$NETWORK.:E05TSI                             WED 07/30/97 01:04 Page:13
      383    12608    4                     END;                  /*  if dest_node <                    */
      384    12609    4                ELSE DO;
      385    12610    4                     KN$NETPARM.ERRCODE = %KN_ERR_NORTE;
      386    12611    4                     GOTO ERROR1;
      387    12612    4                     END;                  /* else dest_node <                   */
      388    12613    3                RETURN;
      389    12614    3                END;                       /* if dst_addr$ = addr(nil)           */
      390    12615    3           ELSE DO;         /* dst_addr$ ~= addr(nil) forward to knn$sendosi     */
      391    12616    3                QQQ$ = KN$NETPARM.LDCT$;
      392    12617    3                SAVE_FPT$ = KN$NETPARM.FPT$;
      393    12618    3                KN$NETPARM.FPT$ = ADDR(NIL);
      394    12619
      395    12620    3                CALL KNN$SENDOSI(KN$NETPARM);
             12620                         /* may altret, drop the message regardless*/
      396    12621    3                KN$NETPARM.FPT$ = SAVE_FPT$;
      397    12622    3                KN$NETPARM.LDCT$ = QQQ$;
      398    12623    3                RETURN; /*  kn$netparm.errcode set in sendosi, drop the message  */
      399    12624    3                END;
      400    12625    2           END;                            /* if function = k_ndata              */
      401    12626
      402    12627        %EJECT;
PL6.E3A0      #001=KNN$SEND File=KNN$NETWORK.:E05TSI                             WED 07/30/97 01:04 Page:14
      403    12628        /*
      404    12629                data request for CP-6 QDP or CP-6 Class 4 transport
      405    12630        */
      406    12631    1      IF KN$NETPARM.FUNCTION ~= %KN_FCN_DATA
      407    12632    1      THEN CALL SCREECH(BADFNC);
      408    12633
      409    12634        /*S* SCREECH_CODE: KNN-S$BADFNC
      410    12635             TYPE: SCREECH
      411    12636             MESSAGE: Bad Function code passed to network.
      412    12637        */
      413    12638
      414    12639    1      SAVE_FPT$ = KN$NETPARM.FPT$;
             12639               /* dont send the fpt$ to knh$send, it confuses hdlc */
      415    12640    1      KN$NETPARM.FPT$ = ADDR(NIL);
      416    12641
      417    12642    1      IF KN$NETPARM.NODE > KNN_NODES
      418    12643    1      THEN CALL SCREECH(SNODES);
      419    12644
      420    12645        /*S* SCREECH_CODE: KNN-S$BADNODE
      421    12646             TYPE: SCREECH
      422    12647             MESSAGE: Bad FEP Node parameter passed to KNN$SEND
      423    12648        */
      424    12649
      425    12650
      426    12651    1      DEST_NODE = KN$NETPARM.NODE;
      427    12652    1      ROUTE$ = KNN$ROUTE$(DEST_NODE);
      428    12653    1      LINK$ = KNN$ROUTE.LINK$;
      429    12654
      430    12655    1      IF LINK$ = ADDR(NIL) OR KNN$LINK.LDCT$ = ADDR(NIL)
      431    12656    2      THEN DO;
      432    12657    2           KN$NETPARM.ERRCODE = %KN_ERR_NORTE;
      433    12658    2           ALTRETURN;
      434    12659    2           END;
      435    12660
      436    12661    1      QQQ$ = KN$NETPARM.LDCT$;
      437    12662
      438    12663    1      KN$NETPARM.NHDRSZ=LENGTHC(INIT_QDP_HDR);
PL6.E3A0      #001=KNN$SEND File=KNN$NETWORK.:E05TSI                             WED 07/30/97 01:04 Page:15
      439    12664    1      KN$NETPARM.NHDR$ = ADDR(QDP_HDR);
      440    12665
      441    12666    1      QDP_HDR = INIT_QDP_HDR;
      442    12667
      443    12668    1      IF KN$NETPARM.LDCT$ ~= ADDR(NIL) AND KN$LDCT.CONN_TYPE = %KN_CNTYPE_QDP
      444    12669    1      THEN QDP_HDR.MSGTYP = %K_MSGTYP_CP6_QDP#;
      445    12670    1      ELSE QDP_HDR.MSGTYP = %K_MSGTYP_CP6_CL4#; /* ape, ssn, link                */
      446    12671
      447    12672    1      QDP_HDR.DEST_NODE = KN$NETPARM.NODE + 1;
      448    12673    1      QDP_HDR.SOURCE_NODE = KN_NODE# + 1;
      449    12674
      450    12675    1      KN$NETPARM.LDCT$ = KNN$LINK.LDCT$;
      451    12676    1      CALL KNH$SEND (KN$NETPARM) ALTRET(ERROR1);
      452    12677
      453    12678    1      KNN$LINK.MSGS_OUT = KNN$LINK.MSGS_OUT + 1;
      454    12679    1      LINK# = KN$LDCT.LINK_ID;
      455    12680    1      KNN$ROUTE.LINK.MSGS_OUT(LINK#) = KNN$ROUTE.LINK.MSGS_OUT(LINK#) + 1;
      456    12681
      457    12682    1      KN$NETPARM.LDCT$ = QQQ$;
      458    12683    1      KN$NETPARM.FPT$ = SAVE_FPT$;
      459    12684    1      RETURN;
      460    12685
      461    12686    1   ERROR1:
      462    12687    1      KN$NETPARM.FPT$ = SAVE_FPT$;
      463    12688    1      KN$NETPARM.LDCT$ = QQQ$;
      464    12689    1      ALTRETURN;
      465    12690
      466    12691    1   END KNN$SEND;
      467    12692        %EOD;

PL6.E3A0      #001=KNN$SEND File=KNN$NETWORK.:E05TSI                             WED 07/30/97 01:04 Page:16
--  Include file information  --

   KI_SUBS_C.:E05TOU  is referenced.
   KI_CP6.:E05TOU  is referenced.
   K_INTERFACE_M.:E05TOU  is referenced.
   KL_MACRO_C.:E05TOU  is referenced.
   K_ADDRESS_M.:E05TOU  is referenced.
   KJ_FCNS_C.:E05TOU  is referenced.
   K_QDPHDRS_M.:E05TOU  is referenced.
   KNN_NETWORK_M.:E05TOU  is referenced.
   KNH_MACRO_C.:E05TOU  is referenced.
   KN_DATA_M.:E05TOU  is referenced.
   GU_LCP6_M.:E05TOU  is referenced.
   K_SCODE_C.:E05TOU  is referenced.
      No diagnostics issued in procedure KNN$SEND.

   Procedure KNN$SEND requires 1079 words for executable code.
   Procedure KNN$SEND requires 144 words of local(AUTO) storage.

PL6.E3A0      #001=KNN$SEND File=KNN$NETWORK.:E05TSI                             WED 07/30/97 01:04 Page:17

 Object Unit name= KNN$SEND                                   File name= KNN$NETWORK.:E05TOU
 UTS= JUL 30 '97 01:04:15.04 WED                              Compiler= PL-6/E31         Sev=      00
 SharedLib= :SHARED_LCP6_SYSTEM                               Alt SharedLib=


    ****  Control sections  ****

 Sect   Type Bound  Init  Size HexSiz  Section name
    0  RoData even  UTS     90     5A  KNN$SEND
    1   Proc  even  none  1079    437  KNN$SEND
    2  RoData even  none     4      4  KNN$SEND

    ****  Entry defs  ****

                              Check   Calling
                             calling  sequence
  Sect HexLoc Primary Altret sequence   type   Parms  Name
     1      0   yes    yes     yes      Std        1  KNN$SEND

  ****  Entry refs  ****

         Check        Calling
        calling       sequence
Altret sequence SRef   type   Args  Name
 yes     yes           Std       2 KNN$DECODE_NSAP
 yes     yes           Std       1 KNA$RLSLDCT
 yes     yes           Std       1 KNN$RECV
 yes     yes           Std       1 KNH$SEND
 yes     yes           Std       1 KNN$SENDOSI
         yes           Std       1 SCREECH
 yes     yes           Std       1 KNA$GETLDCT
                       nStd      0 X6A_AUTO_1
                       nStd      0 X6A_AALT
                       nStd      0 X6B_BLR
                       nStd      0 X6A_ARET
PL6.E3A0      #001=KNN$SEND File=KNN$NETWORK.:E05TSI                             WED 07/30/97 01:04 Page:18

  ****  Data refs  ****

  Flags:  r = read only, s = secondary
Flgs Name                             Flgs Name                             Flgs Name
     KN_NODE#                              KNN_ROUTE$$                           KNN_NODES
     KNN_LINK$$                            KNN_LINKS                        r    G$ROS$
PL6.E3A0      #001=KNN$SEND File=KNN$NETWORK.:E05TSI                             WED 07/30/97 01:04 Page:19


        1        1        /*M* KNN$NETWORK - send and receive CP6 network level messages*/
        2        2        /*T***********************************************************/
        3        3        /*T*                                                         */
        4        4        /*T* Copyright (c) Bull HN Information Systems Inc., 1997    */
        5        5        /*T*                                                         */
        6        6        /*T***********************************************************/
        7        7
        8        8        /*X* PLM=3,IND=5,ECU=0,ENU=0   */
        9        9
       10       10        KNN$SEND: PROC (KN$NETPARM) ALTRET;

     10   1 000000  D380 0000 0000  xent KNN$SEND        LNJ,B5   X6A_AUTO_1
          1 000003       0090 0001                       DC       144,1

       11       11
       12       12        %INCLUDE K_SCODE_C;
       13       97        %INCLUDE GU_LCP6_M;
       14     1025        %INCLUDE KN_DATA_M;
       15     2811        %INCLUDE KNH_MACRO_C;
       16     3094        %INCLUDE KNN_NETWORK_M;
       17     3457        %INCLUDE K_QDPHDRS_M;
       18     4339        %INCLUDE KJ_FCNS_C;
       19     4366        %INCLUDE K_ADDRESS_M;
       20     4869        %INCLUDE KL_MACRO_C;
       21     8221        %INCLUDE K_INTERFACE_M;
       22     8630        %INCLUDE KI_CP6;
       23     9726        %INCLUDE KI_SUBS_C;
       24     9862
       25     9863                                                /* Parameters                         */
       26     9864        %PLIST;
       27     9865        %KN$NETPARM (NAME=KN$NETPARM);
       28    10018
       29    10019                                                /* Auto                               */
       30    10020        %K$NQDP_HDR (NAME=QDP_HDR, STCLASS=AUTO);
       31    10097        %K$NQDP_HDR (NAME=OSI_INIT,STCLASS=AUTO,MSGTYPE=OSI_INIT); /* a big one,too*/
       32    10442    1   DCL DEST_NODE UBIN;
PL6.E3A0      #001=KNN$SEND File=KNN$NETWORK.:E05TSI                             WED 07/30/97 01:04 Page:20
       33    10443    1   DCL ROUTE$ PTR;
       34    10444    1   DCL LINK$ PTR;
       35    10445    1   DCL TLINK$ PTR;
       36    10446    1   DCL LINK# UBIN;
       37    10447    1   DCL CHAN# UBIN;
       38    10448    1   DCL QQQ$ PTR AUTO;
       39    10449    1   DCL SAVE_FPT$ PTR;
       40    10450    1   DCL I UBIN;
       41    10451    1   DCL J UBIN;
       42    10452        %KL_UPDOSI(FPTN=ROUTE,ADRTYP=NET,STCLASS=AUTO);
       43    10661        %FPT_CONNECT(STCLASS=AUTO,ADRTYP=NET);
       44    10832    1   DCL SNPATMPLT1 CHAR(8) ALIGNED;
       45    10833    1   DCL 1 SNPATMPLT2 REDEF SNPATMPLT1 ALIGNED,
       46    10834    1         2 NIBBLES(0:13) UNAL,
       47    10835    1           3 NIB UBIN(4) UNAL;
       48    10836
       49    10837    1   DCL SNPATMPLT3 CHAR(8) ALIGNED;
       50    10838    1   DCL 1 SNPATMPLT4 REDEF SNPATMPLT3 ALIGNED,
       51    10839    1         2 NIBBLES(0:13) UNAL,
       52    10840    1           3 NIB UBIN(4) UNAL;
       53    10841
       54    10842                                                /* External Data                      */
       55    10843    1   DCL KN_NODE# UBIN SYMREF;
       56    10844    1   DCL KNN_ROUTE$$ PTR SYMREF;
       57    10845    1   DCL KNN_NODES UBIN SYMREF;
       58    10846    1   DCL KNN_LINK$$ PTR SYMREF;
       59    10847    1   DCL KNN_LINKS UBIN SYMREF;
       60    10848
       61    10849                                                /* Internal Data                      */
       62    10850
       63    10851        %K$NQDP_HDR (NAME=INIT_QDP_HDR, STCLASS=CONSTANT, MSGTYPE=OSI_DATA);
       64    10928        %K$NQDP_HDR (NAME=OSI_INIT_C,STCLASS=CONSTANT,MSGTYPE=OSI_INIT);
       65    11273
       66    11274        %FPT_CONNECT(FPTN=FPT_CONNECT_C,STCLASS=CONSTANT,ADRTYP=NET,TYPE=CIRCUIT);
       67    11445        %VLP_SCODE (FPTN=SNODES,ERR#=%S$BADNODE,SEV=G_SEV_SCREECH#,
       68    11446                    STCLASS=CONSTANT,FCG=KN,MID=N,MON='1'B);
       69    11507
PL6.E3A0      #001=KNN$SEND File=KNN$NETWORK.:E05TSI                             WED 07/30/97 01:04 Page:21
       70    11508        %VLP_SCODE (FPTN=PRTCLERR,ERR#=%S$PRTCLERR,SEV=G_SEV_SCREECH#,
       71    11509                       STCLASS=CONSTANT,FCG=KN,MID=N,MON='1'B);
       72    11570
       73    11571        %VLP_SCODE (FPTN=BADFNC,ERR#=%S$BADFNC,SEV=G_SEV_SCREECH#,
       74    11572                       STCLASS=CONSTANT,FCG=KN,MID=N,MON='1'B);
       75    11633
       76    11634                                                /* Entry references                   */
       77    11635    1   DCL KNH$SEND ENTRY(1) ALTRET;
       78    11636    1   DCL KNN$DECODE_NSAP ENTRY(2) ALTRET;
       79    11637    1   DCL KNA$RLSLDCT ENTRY(1) ALTRET;
       80    11638    1   DCL KNA$GETLDCT ENTRY(1) ALTRET;
       81    11639    1   DCL KNN$RECV ENTRY(1) ALTRET;
       82    11640    1   DCL SCREECH ENTRY(1);
       83    11641    1   DCL KNN$SENDOSI ENTRY(1) ALTRET;
       84    11642
       85    11643                                                /* Based structures                   */
       86    11644    1   DCL KNN$ROUTE$(0:0) PTR BASED(KNN_ROUTE$$);
       87    11645    1   DCL KNN$LINK$(0:0) PTR BASED(KNN_LINK$$);
       88    11646        %KNN$ROUTE (STCLASS="BASED(ROUTE$)");
       89    11718        %KNN$LINK (STCLASS="BASED(LINK$)");
       90    11969        %KN$LDCT (STCLASS="BASED(KN$NETPARM.LDCT$)");
       91    12214        %K$NSAP(FPTN=DST,STCLASS="BASED(KN$NETPARM.DST_ADDR$)");
       92    12266        %K$NSAP(FPTN=SRC,STCLASS="BASED(KN$NETPARM.SRC_ADDR$)");
       93    12318        %EJECT;
PL6.E3A0      #001=KNN$SEND File=KNN$NETWORK.:E05TSI                             WED 07/30/97 01:04 Page:22
       94    12319
       95    12320        /*F* NAME: Fep_Network_Services
       96    12321
       97    12322        KNN$NETWORK contains the network functions for the FEP. It
       98    12323        interfaces to KNH (Handler monitor interface, KNT (transport),
       99    12324        or KNS (session).
      100    12325
      101    12326        The file KNN$NETWORK contains the following modules:
      102    12327
      103    12328        .fif
      104    12329        }  KNN$SEND  - Forwards messages to another node
      105    12330        }  KNN$RECV  - Receives incoming messages
      106    12331        .fin
      107    12332
      108    12333        */
      109    12334        %EJECT;
PL6.E3A0      #001=KNN$SEND File=KNN$NETWORK.:E05TSI                             WED 07/30/97 01:04 Page:23
      110    12335
      111    12336        /*F* NAME: KNN$SEND Outbound Messages
      112    12337
      113    12338        This procedure is the interface for the higher layers to the
      114    12339        network layer. It is called from KNS$SEND or KNT$SEND with
      115    12340        the following parameters:
      116    12341
      117    12342        .fif
      118    12343        }  KN$NETPARM.FUNCTION
      119    12344        }                     - Contains the function to be performed
      120    12345        }                       When called for CP-6 connections:
      121    12346        }                          KN_FCN_DATA
      122    12347        }                       When called for OSI connections:
      123    12348        }                          K_NCONNECT_REQ
      124    12349        }                          K_NDATA_REQ
      125    12350        }
      126    12351        }  KN$NETPARM.NODE contains the desintation node#.
      127    12352        .fin
      128    12353
      129    12354        A network header is built in auto and KN$NETPARM is updated
      130    12355        to frame this header in .NHDR$ and .NHDRSZ.
      131    12356
      132    12357        KNN$SEND finds the KNN$ROUTE table entry for the destination
      133    12358        node, and then finds the KNN$LINK table entry from KNN$ROUTE.LINK$.
      134    12359
      135    12360        KN$NETPARM.LDCT$ is reset with the address of the LDCT that is
      136    12361        specified in KNN$LINK.LDCT$.
      137    12362
      138    12363        The message is then forwarded by a call to KNH$SEND with function
      139    12364        set to DATA.
      140    12365        */
      141    12366
      142    12367        /*
      143    12368             coupler uses rectype as the function code when transmitting non
      144    12369             standard function types such as time messages back to the host.
      145    12370        */
      146    12371    1      KN$NETPARM.RECTYPE = 0;
PL6.E3A0      #001=KNN$SEND File=KNN$NETWORK.:E05TSI                             WED 07/30/97 01:04 Page:24

  12371   1 000005  ECC7 0004                            LDB,B6   @KN$NETPARM,AUTO
          1 000007  8746 0013                            CL       19,B6

      147    12372        /*
      148    12373                connection request for OSI transport over CONS.
      149    12374        */
      150    12375    1      IF KN$NETPARM.FUNCTION = %K_NCONNECT_REQ

  12375   1 000009  E846 0014                            LDR,R6   20,B6
          1 00000B  6D1F                                 CMV,R6   31
          1 00000C  0981 026F                            BNE      s:12538,PREL
          1 00000E  82C6 0012                            LB,'0100'X        18,B6
          1 000010       0100
          1 000011  0581 026A                            BBF      s:12538,PREL

      151    12376    2        AND KN$NETPARM.FLAGS.CONS THEN DO;

      152    12377    3           CALL KNN$DECODE_NSAP(DST,ROUTE) WHENALTRETURN DO;

  12377   1 000013  DCC6 001F                            LDB,B5   31,B6
          1 000015  CBC7 0039                            LAB,B4   ROUTE,AUTO
          1 000017  CFC7 008E                            STB,B4   SNPATMPLT3+6,AUTO
          1 000019  DFC7 008C                            STB,B5   SNPATMPLT3+4,AUTO
          1 00001B  BBC7 008C                            LAB,B3   SNPATMPLT3+4,AUTO
          1 00001D  CBF0 0200                            LAB,B4   512,IMO
          1 00001F  E380 0000 0000  xent                 LNJ,B6   KNN$DECODE_NSAP
          1 000022       0003                            DC       s:12378,PREL
          1 000023  0F81 0009                            B        s:12381,PREL

      153    12378    3                KN$NETPARM.ERRCODE = %KN_ERR_NORTE;

  12378   1 000025  ECC7 0004                            LDB,B6   @KN$NETPARM,AUTO
          1 000027  6C03                                 LDV,R6   3
          1 000028  EF46 0016                            STR,R6   22,B6

      154    12379    3                ALTRETURN;
PL6.E3A0      #001=KNN$SEND File=KNN$NETWORK.:E05TSI                             WED 07/30/97 01:04 Page:25

  12379   1 00002A  C380 0000 0000  xent                 LNJ,B4   X6A_AALT

      155    12380    3                END;
      156    12381    3           IF ROUTE.QOS = 255 OR ROUTE.FEP# >= KNN_NODES THEN DO;

  12381   1 00002D  E847 003B                            LDR,R6   ROUTE+2,AUTO
          1 00002F  E570 00FF                            AND,R6   255,IMO
          1 000031  E970 00FF                            CMR,R6   255,IMO
          1 000033  0901 000A                            BE       s:12382,PREL
          1 000035  D847 003A                            LDR,R5   ROUTE+1,AUTO
          1 000037  D570 00FF                            AND,R5   255,IMO
          1 000039  D900 0000 0000  xsym                 CMR,R5   KNN_NODES
          1 00003C  0201 0009                            BL       s:12387,PREL

      157    12382    3                KN$NETPARM.ERRCODE = %KN_ERR_NORTE;

  12382   1 00003E  ECC7 0004                            LDB,B6   @KN$NETPARM,AUTO
          1 000040  5C03                                 LDV,R5   3
          1 000041  DF46 0016                            STR,R5   22,B6

      158    12383    3                ALTRETURN;

  12383   1 000043  C380 0000 0000  xent                 LNJ,B4   X6A_AALT

      159    12384    3                END;
      160    12385
      161    12386
      162    12387    2           IF KN_NODE# = ROUTE.FEP# THEN;  /* this node is the boundry node      */

  12387   1 000046  D900 0000 0000  xsym                 CMR,R5   KN_NODE#
          1 000049  0901 0038                            BE       s:12410,PREL

      163    12388    3           ELSE DO;

      164    12389    3                IF KNN$ROUTE$(ROUTE.FEP#)->KNN$ROUTE.LINK$ = ADDR(NIL) OR

PL6.E3A0      #001=KNN$SEND File=KNN$NETWORK.:E05TSI                             WED 07/30/97 01:04 Page:26
  12389   1 00004B  B855                                 LDR,R3   R5
          1 00004C  EC80 0000 0000  xsym                 LDB,B6   KNN_ROUTE$$
          1 00004F  DCB6                                 LDB,B5   ,B6,R3
          1 000050  8D85                                 CMN      ,B5
          1 000051  0901 0007                            BE       s:12391,PREL
          1 000053  C845 0005                            LDR,R4   5,B5
          1 000055  C970 00FF                            CMR,R4   255,IMO
          1 000057  0981 0011                            BNE      s:12396,PREL

      165    12390    4                  KNN$ROUTE$(ROUTE.FEP#)->KNN$ROUTE.CURRENT_QOS = 255 THEN DO;

      166    12391    4                     KN$NETPARM.ERRCODE = %KN_ERR_NORTE;

  12391   1 000059  CCC7 0004                            LDB,B4   @KN$NETPARM,AUTO
          1 00005B  4C03                                 LDV,R4   3
          1 00005C  CF44 0016                            STR,R4   22,B4

      167    12392    4                     CALL KNA$RLSLDCT(KN$NETPARM.LDCT$);

  12392   1 00005E  BBC7 0004                            LAB,B3   @KN$NETPARM,AUTO
          1 000060  CBF0 0100                            LAB,B4   256,IMO
          1 000062  E380 0000 0000  xent                 LNJ,B6   KNA$RLSLDCT
          1 000065       0001                            DC       s:12393,PREL

      168    12393    4                     ALTRETURN;

  12393   1 000066  C380 0000 0000  xent                 LNJ,B4   X6A_AALT

      169    12394    4                     END;
      170    12395
      171    12396    3                LINK$ = KNN$ROUTE$(ROUTE.FEP#)->KNN$ROUTE.LINK$;

  12396   1 000069  CC85                                 LDB,B4   ,B5
          1 00006A  CFC7 002D                            STB,B4   LINK$,AUTO

      172    12397    4                IF KNN$LINK.LDCT$ = ADDR(NIL) OR KNN$LINK.QOS = 255 THEN DO;

PL6.E3A0      #001=KNN$SEND File=KNN$NETWORK.:E05TSI                             WED 07/30/97 01:04 Page:27
  12397   1 00006C  8D84                                 CMN      ,B4
          1 00006D  0901 0007                            BE       s:12398,PREL
          1 00006F  A844 0004                            LDR,R2   4,B4
          1 000071  A970 00FF                            CMR,R2   255,IMO
          1 000073  0981 0009                            BNE      s:12401,PREL

      173    12398    4                     KN$NETPARM.ERRCODE = %KN_ERR_NORTE;

  12398   1 000075  BCC7 0004                            LDB,B3   @KN$NETPARM,AUTO
          1 000077  2C03                                 LDV,R2   3
          1 000078  AF43 0016                            STR,R2   22,B3

      174    12399    4                     ALTRETURN;

  12399   1 00007A  C380 0000 0000  xent                 LNJ,B4   X6A_AALT

      175    12400    4                     END;
      176    12401    3                LINK# = KNN$LINK.LDCT$->KN$LDCT.LINK_ID;

  12401   1 00007D  BC84                                 LDB,B3   ,B4
          1 00007E  9843 0003                            LDR,R1   3,B3
          1 000080  9F47 0031                            STR,R1   LINK#,AUTO

      177    12402    3                END;

      178    12403        /*
      179    12404             now that we are sure that there is a route associated with this link.
      180    12405             This could be a connection request from the host, in which case we need
      181    12406             to allocate the ldct.  If the connection request is from a remote connected
      182    12407             system then the ldct was allocated during the knn$recv.fpt_connect code.
      183    12408             Transport is reqesting us to build a K_MSGTYP_OSI_INIT#.
      184    12409        */
      185    12410    3           IF KN$NETPARM.LDCT$ = ADDR(NIL) THEN DO;

  12410   1 000082  ECC7 0004                            LDB,B6   @KN$NETPARM,AUTO
          1 000084  8D86                                 CMN      ,B6
          1 000085  0981 0154                            BNE      s:12493,PREL
PL6.E3A0      #001=KNN$SEND File=KNN$NETWORK.:E05TSI                             WED 07/30/97 01:04 Page:28

      186    12411    4                CALL KNA$GETLDCT(KN$NETPARM.LDCT$) WHENALTRETURN DO;

  12411   1 000087  BBC7 0004                            LAB,B3   @KN$NETPARM,AUTO
          1 000089  CBF0 0100                            LAB,B4   256,IMO
          1 00008B  E380 0000 0000  xent                 LNJ,B6   KNA$GETLDCT
          1 00008E       0003                            DC       s:12412,PREL
          1 00008F  0F81 0009                            B        s:12415,PREL

      187    12412    4                     KN$NETPARM.ERRCODE = %KN_ERR_NOLDCT;

  12412   1 000091  ECC7 0004                            LDB,B6   @KN$NETPARM,AUTO
          1 000093  6C05                                 LDV,R6   5
          1 000094  EF46 0016                            STR,R6   22,B6

      188    12413    4                     ALTRETURN;

  12413   1 000096  C380 0000 0000  xent                 LNJ,B4   X6A_AALT

      189    12414    4                     END;
      190    12415    3                KN$LDCT.CONN_TYPE = %KN_CNTYPE_CIRCUIT;

  12415   1 000099  ECC7 0004                            LDB,B6   @KN$NETPARM,AUTO
          1 00009B  DC86                                 LDB,B5   ,B6
          1 00009C  6C07                                 LDV,R6   7
          1 00009D  E785                                 STH,R6   ,B5

      191    12416    3                KN$LDCT.STATE = %KN_ST_OPENING;

  12416   1 00009E  DC86                                 LDB,B5   ,B6
          1 00009F  5C09                                 LDV,R5   9
          1 0000A0  DA85                                 SRM,R5,'00FF'X    ,B5
          1 0000A1       00FF

      192    12417    3                KN$LDCT.USER_ENTRY$ = ENTADDR(KNN$RECV);

  12417   1 0000A2  DC86                                 LDB,B5   ,B6
PL6.E3A0      #001=KNN$SEND File=KNN$NETWORK.:E05TSI                             WED 07/30/97 01:04 Page:29
          1 0000A3  CB80 0000 0000  xent                 LAB,B4   KNN$RECV
          1 0000A6  CFC5 000C                            STB,B4   12,B5

      193    12418        /*
      194    12419             to find the link on which to issue this connect.  scan the list of links and
      195    12420             compare the chan# with knn$link.chan# and not vc.
      196    12421        */
      197    12422    4                IF KN_NODE# = ROUTE.FEP# THEN DO;

  12422   1 0000A8  C847 003A                            LDR,R4   ROUTE+1,AUTO
          1 0000AA  C570 00FF                            AND,R4   255,IMO
          1 0000AC  C900 0000 0000  xsym                 CMR,R4   KN_NODE#
          1 0000AF  0981 006F                            BNE      s:12446,PREL

      198    12423                   /*
      199    12424                   the connection to the network is on this node.
      200    12425                   */
      201    12426    5                     DO J = 0 TO KNN_LINKS - 1;

  12426   1 0000B1  8747 0038                            CL       J,AUTO
          1 0000B3  0F81 0062                            B        s:12434+2,PREL

      202    12427    5                          LINK$ = KNN$LINK$(J);

  12427   1 0000B5  EC80 0000 0000  xsym                 LDB,B6   KNN_LINK$$
          1 0000B8  B847 0038                            LDR,R3   J,AUTO
          1 0000BA  DCB6                                 LDB,B5   ,B6,R3
          1 0000BB  DFC7 002D                            STB,B5   LINK$,AUTO

      203    12428    5                          IF NOT KNN$LINK.FLAGS.VIRCIR

  12428   1 0000BD  82C5 0003                            LB,'1000'X        3,B5
  12428   1 0000BF       1000
          1 0000C0  0501 0053                            BBT      s:12434,PREL
          1 0000C2  E845 0002                            LDR,R6   2,B5
          1 0000C4  E970 00FD                            CMR,R6   253,IMO
          1 0000C6  0201 004D                            BL       s:12434,PREL
PL6.E3A0      #001=KNN$SEND File=KNN$NETWORK.:E05TSI                             WED 07/30/97 01:04 Page:30
          1 0000C8  8D85                                 CMN      ,B5
          1 0000C9  0901 004A                            BE       s:12434,PREL

      204    12429    5                            AND KNN$LINK.NODE# >= %K_CNC_IS#
      205    12430    5                            AND KNN$LINK.LDCT$ ~= ADDR(NIL)
      206    12431    6                          THEN DO;

      207    12432    6                               SNPATMPLT1 = ROUTE.SNPA.ADDRESS;

  12432   1 0000CB  0021                                 ALR      ;
          1 0000CC       C707 0053                                ALPHANUM(ROUTE+26,AUTO,1,7),;
          1 0000CE       4807 0084                                ALPHANUM(SNPATMPLT1,AUTO,,8,FILL)

      208    12433    6                               SNPATMPLT3 = KNN$LINK.SNPA.ADDRESS;

  12433   1 0000D0  0021                                 ALR      ;
          1 0000D1       C705 001F                                ALPHANUM(31,B5,1,7),;
          1 0000D3       4807 0088                                ALPHANUM(SNPATMPLT3,AUTO,,8,FILL)

      209    12434    7                              DO I = 0 TO MINIMUM(ROUTE.SNPA.LEN,KNN$LINK.SNPA.LEN)-1;

  12434   1 0000D5  437F                                 CSYNC    s:12433+4,SPREL
          1 0000D6  8747 0037                            CL       I,AUTO
          1 0000D8  0F81 002A                            B        s:12437+2,PREL

      210    12435    7                                   IF SNPATMPLT2.NIBBLES.NIB(I) ~= SNPATMPLT4.NIBBLES.
             12435                                             NIB(I) THEN

  12435   1 0000DA  ABC7 0084                            LAB,B2   SNPATMPLT1,AUTO
          1 0000DC  A847 0037                            LDR,R2   I,AUTO
          1 0000DE  2002                                 SOL,R2   2
          1 0000DF  6C04                                 LDV,R6   4
          1 0000E0  BBC7 008C                            LAB,B3   SNPATMPLT3+4,AUTO
          1 0000E2  3C00                                 LDV,R3   0
          1 0000E3  7C10                                 LDV,R7   16
          1 0000E4  D380 0000 0000  xent                 LNJ,B5   X6B_BLR
          1 0000E7  E847 008C                            LDR,R6   SNPATMPLT3+4,AUTO
PL6.E3A0      #001=KNN$SEND File=KNN$NETWORK.:E05TSI                             WED 07/30/97 01:04 Page:31
          1 0000E9  604C                                 SOR,R6   12
          1 0000EA  EF47 008E                            STR,R6   SNPATMPLT3+6,AUTO
          1 0000EC  ABC7 0088                            LAB,B2   SNPATMPLT3,AUTO
          1 0000EE  A847 0037                            LDR,R2   I,AUTO
          1 0000F0  2002                                 SOL,R2   2
          1 0000F1  6C04                                 LDV,R6   4
          1 0000F2  BBC7 008C                            LAB,B3   SNPATMPLT3+4,AUTO
          1 0000F4  3C10                                 LDV,R3   16
          1 0000F5  7C10                                 LDV,R7   16
          1 0000F6  D380 0000 0000  xent                 LNJ,B5   X6B_BLR
          1 0000F9  E847 008D                            LDR,R6   SNPATMPLT3+5,AUTO
          1 0000FB  604C                                 SOR,R6   12
          1 0000FC  D847 008E                            LDR,R5   SNPATMPLT3+6,AUTO
          1 0000FE  E955                                 CMR,R6   R5
          1 0000FF  0981 0014                            BNE      s:12434,PREL

      211    12436    7                                         GOTO NXTJ2;
      212    12437    7                                    END;   /* do i = 0 to min(len,len)-1         */

  12437   1 000101  8AC7 0037                            INC      I,AUTO
          1 000103  ECC7 002D                            LDB,B6   LINK$,AUTO
          1 000105  E2C6 001F                            LLH,R6   31,B6
          1 000107  D2C7 0053                            LLH,R5   ROUTE+26,AUTO
          1 000109  D956                                 CMR,R5   R6
          1 00010A  0281 0002                            BGE      s:12437+12,PREL
          1 00010C  E855                                 LDR,R6   R5
          1 00010D  E947 0037                            CMR,R6   I,AUTO
          1 00010F  034B                                 BG       s:12435,SPREL

      213    12438    6                               TLINK$ = LINK$;

  12438   1 000110  EFC7 002F                            STB,B6   TLINK$,AUTO

      214    12439    6                               GOTO FOUNDROUTE;

  12439   1 000112  0F81 004C                            B        s:12452,PREL

PL6.E3A0      #001=KNN$SEND File=KNN$NETWORK.:E05TSI                             WED 07/30/97 01:04 Page:32
  12434   1                              NXTJ2           null
      215    12440    6                               END;        /* if not vircir and node > is        */
      216    12441    5   NXTJ2:                 ;
      217    12442    5                          END;             /* do j= 0 to knn_links -1            */

  12442   1 000114  8AC7 0038            NXTJ2           INC      J,AUTO
          1 000116  E847 0038                            LDR,R6   J,AUTO
          1 000118  E900 0000 0000  xsym                 CMR,R6   KNN_LINKS
          1 00011B  0201 FF99                            BL       s:12427,PREL

      218    12443    4                     GOTO NOROUTE;

  12443   1 00011D  0F81 0026                            B        s:12452,PREL

      219    12444    4                     END;                  /* if kn_node# = route.fep#           */
      220    12445    4                ELSE DO;

      221    12446    4                     CHAN# = KNN$LINK.CHAN#;

  12446   1 00011F  DCC7 002D                            LDB,B5   LINK$,AUTO
          1 000121  B845 0023                            LDR,R3   35,B5
          1 000123  BF47 0032                            STR,R3   CHAN#,AUTO

      222    12447    5                     DO I = 0 TO KNN_LINKS-1;

  12447   1 000125  8747 0037                            CL       I,AUTO
          1 000127  0F81 0030                            B        s:12458+2,PREL

      223    12448    5                          TLINK$ = KNN$LINK$(I);

  12448   1 000129  EC80 0000 0000  xsym                 LDB,B6   KNN_LINK$$
          1 00012C  B847 0037                            LDR,R3   I,AUTO
          1 00012E  DCB6                                 LDB,B5   ,B6,R3
          1 00012F  DFC7 002F                            STB,B5   TLINK$,AUTO

      224    12449    6                          IF TLINK$->KNN$LINK.CHAN# = CHAN# AND NOT TLINK$->KNN$LINK.
             12449                                   FLAGS.VIRCIR THEN DO;
PL6.E3A0      #001=KNN$SEND File=KNN$NETWORK.:E05TSI                             WED 07/30/97 01:04 Page:33

  12449   1 000131  E845 0023                            LDR,R6   35,B5
          1 000133  E947 0032                            CMR,R6   CHAN#,AUTO
          1 000135  0981 0020                            BNE      s:12458,PREL
          1 000137  82C5 0003                            LB,'1000'X        3,B5
          1 000139       1000
          1 00013A  0501 001B                            BBT      s:12458,PREL

      225    12450    6                               QQQ$ = KN$NETPARM.LDCT$;
             12450                                        /* save so we can return it to transport*/

  12450   1 00013C  CCC7 0004                            LDB,B4   @KN$NETPARM,AUTO
          1 00013E  BC84                                 LDB,B3   ,B4
          1 00013F  BFC7 0033                            STB,B3   QQQ$,AUTO

      226    12451    7                               IF TLINK$->KNN$LINK.LDCT$ = ADDR(NIL) THEN DO;

  12451   1 000141  8D85                                 CMN      ,B5
          1 000142  0981 0011                            BNE      s:12456,PREL

      227    12452    7   NOROUTE:                         CALL KNA$RLSLDCT(KN$NETPARM.LDCT$);

  12452   1 000144  BBC7 0004            NOROUTE         LAB,B3   @KN$NETPARM,AUTO
          1 000146  CBF0 0100                            LAB,B4   256,IMO
          1 000148  E380 0000 0000  xent                 LNJ,B6   KNA$RLSLDCT
          1 00014B       0001                            DC       s:12453,PREL

      228    12453    7                                    KN$NETPARM.ERRCODE = %KN_ERR_NORTE;

  12453   1 00014C  ECC7 0004                            LDB,B6   @KN$NETPARM,AUTO
          1 00014E  6C03                                 LDV,R6   3
          1 00014F  EF46 0016                            STR,R6   22,B6

      229    12454    7                                    ALTRETURN;

  12454   1 000151  C380 0000 0000  xent                 LNJ,B4   X6A_AALT

PL6.E3A0      #001=KNN$SEND File=KNN$NETWORK.:E05TSI                             WED 07/30/97 01:04 Page:34
      230    12455    7                                    END;
      231    12456    6                               GOTO FOUNDROUTE;

  12456   1 000154  0F81 000A                            B        s:12452,PREL

      232    12457    6                               END;        /* chan# and not vircir               */
      233    12458    5                          END;             /* do i = 0 knn_links                 */

  12458   1 000156  8AC7 0037                            INC      I,AUTO
          1 000158  E847 0037                            LDR,R6   I,AUTO
          1 00015A  E900 0000 0000  xsym                 CMR,R6   KNN_LINKS
          1 00015D  024C                                 BL       s:12448,SPREL

      234    12459    4                     GOTO NOROUTE;

  12459   1 00015E  0FE6                                 B        s:12452,SPREL

  12452   1                              FOUNDROUTE      null
      235    12460    4                     END;                  /* else kn_node = route.fep#          */
      236    12461    3   FOUNDROUTE:  ;
      237    12462    3                KN$LDCT.UID = TLINK$->KNN$LINK.LDCT$->KN$LDCT.UID;

  12462   1 00015F  ECC7 0004            FOUNDROUTE      LDB,B6   @KN$NETPARM,AUTO
          1 000161  DC86                                 LDB,B5   ,B6
          1 000162  CCC7 002F                            LDB,B4   TLINK$,AUTO
          1 000164  BC84                                 LDB,B3   ,B4
          1 000165  8CC3 0005                            LDI      5,B3
          1 000167  8D45 0005                            SDI      5,B5

      238    12463    3                KN$LDCT.USER# = TLINK$->KNN$LINK.LDCT$->KN$LDCT.USER#;

  12463   1 000169  DC86                                 LDB,B5   ,B6
          1 00016A  BC84                                 LDB,B3   ,B4
          1 00016B  E843 000E                            LDR,R6   14,B3
          1 00016D  EF45 000E                            STR,R6   14,B5

      239    12464    3                FPT_CONNECT = FPT_CONNECT_C;
PL6.E3A0      #001=KNN$SEND File=KNN$NETWORK.:E05TSI                             WED 07/30/97 01:04 Page:35

  12464   1 00016F  AB80 0000 0000  00                   LAB,B2   INIT_QDP_HDR
          1 000172  2C48                                 LDV,R2   72
          1 000173  6C5A                                 LDV,R6   90
          1 000174  BBC7 0057                            LAB,B3   FPT_CONNECT,AUTO
          1 000176  3C00                                 LDV,R3   0
          1 000177  0008                                 MMM

      240    12465    3                FPT_CONNECT.CLASS = 0;

  12465   1 000178  87C7 0068                            CLH      FPT_CONNECT+17,AUTO

      241    12466    3                FPT_CONNECT.TR_FLAGS = '0'B;

  12466   1 00017A  8747 0069                            CL       FPT_CONNECT+18,AUTO

      242    12467    3                IF ROUTE.NW_TYPE ~= %K_NWTYPE_X2580

  12467   1 00017C  E847 0039                            LDR,R6   ROUTE,AUTO
          1 00017E  E570 000F                            AND,R6   15,IMO
          1 000180  6D01                                 CMV,R6   1
          1 000181  0901 001D                            BE       s:12474,PREL

      243    12468    4                THEN DO;

      244    12469    4                     FPT_CONNECT.DEST = DST;

  12469   1 000183  DCC6 001F                            LDB,B5   31,B6
          1 000185  AB85                                 LAB,B2   ,B5
          1 000186  2C00                                 LDV,R2   0
          1 000187  6C16                                 LDV,R6   22
          1 000188  BBC7 006A                            LAB,B3   FPT_CONNECT+19,AUTO
          1 00018A  3C00                                 LDV,R3   0
          1 00018B  0008                                 MMM

      245    12470    4                     FPT_CONNECT.LADR = SRC;

PL6.E3A0      #001=KNN$SEND File=KNN$NETWORK.:E05TSI                             WED 07/30/97 01:04 Page:36
  12470   1 00018C  CCC6 001D                            LDB,B4   29,B6
          1 00018E  AB84                                 LAB,B2   ,B4
          1 00018F  2C00                                 LDV,R2   0
          1 000190  6C16                                 LDV,R6   22
          1 000191  BBC7 0075                            LAB,B3   FPT_CONNECT+30,AUTO
          1 000193  3C00                                 LDV,R3   0
          1 000194  0008                                 MMM

      246    12471    4                     FPT_CONNECT.DSTSNPA = ROUTE.SNPA;

  12471   1 000195  ABC7 0053                            LAB,B2   ROUTE+26,AUTO
          1 000197  2C00                                 LDV,R2   0
          1 000198  6C08                                 LDV,R6   8
          1 000199  BBC7 0080                            LAB,B3   FPT_CONNECT+41,AUTO
          1 00019B  3C00                                 LDV,R3   0
          1 00019C  0008                                 MMM

      247    12472    4                     END;

  12472   1 00019D  0F81 000F                            B        s:12477,PREL

      248    12473    4                ELSE DO;

      249    12474    4                     FPT_CONNECT.DSTSNPA = DST;

  12474   1 00019F  DCC6 001F                            LDB,B5   31,B6
          1 0001A1  AB85                                 LAB,B2   ,B5
          1 0001A2  2C00                                 LDV,R2   0
          1 0001A3  6C08                                 LDV,R6   8
          1 0001A4  BBC7 0080                            LAB,B3   FPT_CONNECT+41,AUTO
          1 0001A6  3C00                                 LDV,R3   0
          1 0001A7  0008                                 MMM

      250    12475    4                     FPT_CONNECT.DSTSNPA.LNG = FPT_CONNECT.DSTSNPA.LNG*2;

  12475   1 0001A8  E2C7 0080                            LLH,R6   FPT_CONNECT+41,AUTO
          1 0001AA  6001                                 SOL,R6   1
PL6.E3A0      #001=KNN$SEND File=KNN$NETWORK.:E05TSI                             WED 07/30/97 01:04 Page:37
          1 0001AB  E7C7 0080                            STH,R6   FPT_CONNECT+41,AUTO

      251    12476    4                     END;

      252    12477    3                KN$NETPARM.FUNCTION = %KN_FCN_INIT;

  12477   1 0001AD  6C01                                 LDV,R6   1
          1 0001AE  EF46 0014                            STR,R6   20,B6

      253    12478    3                FPT_CONNECT.RESOURCE = ' ';

  12478   1 0001B0  0021                                 ALR      ;
          1 0001B1       4178 2000                                ALPHANUM('2000'X,IMO,,1),;
          1 0001B3       4807 0058                                ALPHANUM(FPT_CONNECT+1,AUTO,,8,FILL)

      254    12479    3                KN$NETPARM.RECTYPE = 0;

  12479   1 0001B5  437F                                 CSYNC    s:12478+4,SPREL
          1 0001B6  8746 0013                            CL       19,B6

      255    12480    3                KN$NETPARM.THDRSZ = 0;

  12480   1 0001B8  8746 000D                            CL       13,B6

      256    12481    3                KN$NETPARM.UHDRSZ = 0;

  12481   1 0001BA  8746 0007                            CL       7,B6

      257    12482    3                KN$NETPARM.SHDRSZ = 0;

  12482   1 0001BC  8746 000A                            CL       10,B6

      258    12483    3                KN$NETPARM.NHDRSZ = 0;

  12483   1 0001BE  8746 0010                            CL       16,B6

      259    12484    3                IF KN$NETPARM.FLAGS.CONS = '0'B
PL6.E3A0      #001=KNN$SEND File=KNN$NETWORK.:E05TSI                             WED 07/30/97 01:04 Page:38

  12484   1 0001C0  82C6 0012                            LB,'0100'X        18,B6
  12484   1 0001C2       0100
          1 0001C3  0501 0003                            BBT      s:12486,PREL

      260    12485    3                THEN KN$NETPARM.MSGSZ = 0; /*else contains tpdu_un*/

  12485   1 0001C5  8746 0004                            CL       4,B6

      261    12486    3                KN$NETPARM.FPT$ = ADDR(FPT_CONNECT);

  12486   1 0001C7  CBC7 0057                            LAB,B4   FPT_CONNECT,AUTO
          1 0001C9  CFC6 0019                            STB,B4   25,B6

      262    12487    4                CALL KNH$SEND(KN$NETPARM) WHENALTRETURN DO;

  12487   1 0001CB  BBC7 0004                            LAB,B3   @KN$NETPARM,AUTO
          1 0001CD  CBF0 0100                            LAB,B4   256,IMO
          1 0001CF  E380 0000 0000  xent                 LNJ,B6   KNH$SEND
          1 0001D2       0003                            DC       s:12488,PREL
          1 0001D3  0F81 0003                            B        s:12490,PREL

      263    12488    4                     GOTO NOROUTE;         /* error code is set by send          */

  12488   1 0001D5  0F81 FF6E                            B        s:12452,PREL

      264    12489    4                     END;
      265    12490    3                RETURN;     /* now back to transport to await the fpt_init_ack   */

  12490   1 0001D7  C380 0000 0000  xent                 LNJ,B4   X6A_ARET

      266    12491    3                END;                       /* if ldct = addr(nil)                */
      267    12492    3           ELSE DO;         /* ldct is not addr(nil) connection is to the host   */

      268    12493    3                DEST_NODE = ROUTE.HOST#;

  12493   1 0001DA  C2C7 003A                            LLH,R4   ROUTE+1,AUTO
PL6.E3A0      #001=KNN$SEND File=KNN$NETWORK.:E05TSI                             WED 07/30/97 01:04 Page:39
          1 0001DC  CF47 002A                            STR,R4   DEST_NODE,AUTO

      269    12494    3                ROUTE$ = KNN$ROUTE$(DEST_NODE);

  12494   1 0001DE  DC80 0000 0000  xsym                 LDB,B5   KNN_ROUTE$$
          1 0001E1  B854                                 LDR,R3   R4
          1 0001E2  CCB5                                 LDB,B4   ,B5,R3
          1 0001E3  CFC7 002B                            STB,B4   ROUTE$,AUTO

      270    12495    3                IF NOT KNN$ROUTE.FLAGS.LINK_CONNECTED

  12495   1 0001E5  82C4 0007                            LB,'4000'X        7,B4
  12495   1 0001E7       4000
          1 0001E8  0581 000B                            BBF      s:12501,PREL
          1 0001EA  89C4 0007                            CMZ      7,B4
          1 0001EC  0881 0007                            BAGE     s:12501,PREL
          1 0001EE  A844 0005                            LDR,R2   5,B4
          1 0001F0  A970 00FF                            CMR,R2   255,IMO
          1 0001F2  0981 0007                            BNE      s:12504,PREL

      271    12496    4                  OR NOT KNN$ROUTE.FLAGS.HOST_NODE OR KNN$ROUTE.CURRENT_QOS = 255 THEN
             12496                           DO;

      272    12497        /*
      273    12498                   if the dest node is not link connected and it is not a host node then
      274    12499                   we shouldn't be here
      275    12500        */
      276    12501    4                     KN$NETPARM.ERRCODE = %KN_ERR_NORTE;

  12501   1 0001F4  2C03                                 LDV,R2   3
          1 0001F5  AF46 0016                            STR,R2   22,B6

      277    12502    4                     ALTRETURN;

  12502   1 0001F7  C380 0000 0000  xent                 LNJ,B4   X6A_AALT

      278    12503    4                     END;
PL6.E3A0      #001=KNN$SEND File=KNN$NETWORK.:E05TSI                             WED 07/30/97 01:04 Page:40
      279    12504    3                IF KNN$ROUTE.LINK$ = ADDR(NIL)

  12504   1 0001FA  8D84                                 CMN      ,B4
          1 0001FB  0901 0005                            BE       s:12506,PREL
          1 0001FD  BC84                                 LDB,B3   ,B4
          1 0001FE  8D83                                 CMN      ,B3
          1 0001FF  0981 0007                            BNE      s:12510,PREL

      280    12505    4                  OR KNN$ROUTE.LINK$->KNN$LINK.LDCT$ = ADDR(NIL) THEN DO;

      281    12506    4                     KN$NETPARM.ERRCODE = %KN_ERR_NORTE;

  12506   1 000201  1C03                                 LDV,R1   3
          1 000202  9F46 0016                            STR,R1   22,B6

      282    12507    4                     ALTRETURN;

  12507   1 000204  C380 0000 0000  xent                 LNJ,B4   X6A_AALT

      283    12508    4                     END;
      284    12509
      285    12510    3                QQQ$ = KN$NETPARM.LDCT$;

  12510   1 000207  AC86                                 LDB,B2   ,B6
          1 000208  AFC7 0033                            STB,B2   QQQ$,AUTO

      286    12511    3                KN$NETPARM.LDCT$ = KNN$ROUTE.LINK$->KNN$LINK.LDCT$;

  12511   1 00020A  9C83                                 LDB,B1   ,B3
          1 00020B  9F86                                 STB,B1   ,B6

      287    12512    3                KN$NETPARM.FUNCTION = %KN_FCN_DATA;

  12512   1 00020C  6C05                                 LDV,R6   5
          1 00020D  EF46 0014                            STR,R6   20,B6

      288    12513    3                OSI_INIT = OSI_INIT_C;
PL6.E3A0      #001=KNN$SEND File=KNN$NETWORK.:E05TSI                             WED 07/30/97 01:04 Page:41

  12513   1 00020F  AB80 0000 0000  00                   LAB,B2   INIT_QDP_HDR
          1 000212  2C04                                 LDV,R2   4
          1 000213  6C44                                 LDV,R6   68
          1 000214  BB87                                 LAB,B3   ,AUTO
          1 000215  3C10                                 LDV,R3   16
          1 000216  0008                                 MMM

      289    12514    3                OSI_INIT.DEST_NODE = DEST_NODE + 1;

  12514   1 000217  E847 002A                            LDR,R6   DEST_NODE,AUTO
          1 000219  6E01                                 ADV,R6   1
          1 00021A  E7C7 0009                            STH,R6   OSI_INIT+1,AUTO

      290    12515    3                OSI_INIT.SOURCE_NODE = KN_NODE# + 1;

  12515   1 00021C  D800 0000 0000  xsym                 LDR,R5   KN_NODE#
          1 00021F  5E01                                 ADV,R5   1
          1 000220  DAC7 0009                            SRM,R5,'00FF'X    OSI_INIT+1,AUTO
          1 000222       00FF

      291    12516    3                OSI_INIT.DST_NSAP = DST;

  12516   1 000223  DCC6 001F                            LDB,B5   31,B6
          1 000225  AB85                                 LAB,B2   ,B5
          1 000226  2C00                                 LDV,R2   0
          1 000227  6C16                                 LDV,R6   22
          1 000228  BB87                                 LAB,B3   ,AUTO
          1 000229  3C14                                 LDV,R3   20
          1 00022A  0008                                 MMM

      292    12517    3                OSI_INIT.SRC_NSAP = SRC;

  12517   1 00022B  CCC6 001D                            LDB,B4   29,B6
          1 00022D  AB84                                 LAB,B2   ,B4
          1 00022E  2C00                                 LDV,R2   0
          1 00022F  6C16                                 LDV,R6   22
PL6.E3A0      #001=KNN$SEND File=KNN$NETWORK.:E05TSI                             WED 07/30/97 01:04 Page:42
          1 000230  BB87                                 LAB,B3   ,AUTO
          1 000231  3C2A                                 LDV,R3   42
          1 000232  0008                                 MMM

      293    12518    3                KN$NETPARM.NHDR$ = ADDR(OSI_INIT);

  12518   1 000233  9BC7 0008                            LAB,B1   OSI_INIT,AUTO
          1 000235  9FC6 000E                            STB,B1   14,B6

      294    12519    3                KN$NETPARM.NHDRSZ = LENGTHC(OSI_INIT);

  12519   1 000237  6C44                                 LDV,R6   68
          1 000238  EF46 0010                            STR,R6   16,B6

      295    12520    3                SAVE_FPT$ = KN$NETPARM.FPT$;

  12520   1 00023A  DCC6 0019                            LDB,B5   25,B6
          1 00023C  DFC7 0035                            STB,B5   SAVE_FPT$,AUTO

      296    12521    3                KN$NETPARM.FPT$ = ADDR(NIL);

  12521   1 00023E  EB80 0000 0000                       LAB,B6   0
          1 000241  9CC7 0004                            LDB,B1   @KN$NETPARM,AUTO
          1 000243  EFC1 0019                            STB,B6   25,B1

      297    12522    3                CALL KNH$SEND(KN$NETPARM) ALTRET(ERROR1);

  12522   1 000245  BBC7 0004                            LAB,B3   @KN$NETPARM,AUTO
          1 000247  CBF0 0100                            LAB,B4   256,IMO
          1 000249  E380 0000 0000  xent                 LNJ,B6   KNH$SEND
          1 00024C       01DF                            DC       s:12687,PREL

      298    12523
      299    12524    3               KNN$ROUTE.LINK$->KNN$LINK.MSGS_OUT = KNN$ROUTE.LINK$->KNN$LINK.MSGS_OUT
             12524                         + 1;

  12524   1 00024D  ECC7 002B                            LDB,B6   ROUTE$,AUTO
PL6.E3A0      #001=KNN$SEND File=KNN$NETWORK.:E05TSI                             WED 07/30/97 01:04 Page:43
          1 00024F  DC86                                 LDB,B5   ,B6
          1 000250  8AC5 0008                            INC      8,B5
          1 000252  8EC5 0007                            CAD      7,B5

      300    12525    3                LINK# = KN$LDCT.LINK_ID;

  12525   1 000254  DCC7 0004                            LDB,B5   @KN$NETPARM,AUTO
          1 000256  CC85                                 LDB,B4   ,B5
          1 000257  E844 0003                            LDR,R6   3,B4
          1 000259  EF47 0031                            STR,R6   LINK#,AUTO

      301    12526    3                KNN$ROUTE.LINK.MSGS_OUT(LINK#) = KNN$ROUTE.LINK.MSGS_OUT(LINK#) + 1;

  12526   1 00025B  B856                                 LDR,R3   R6
          1 00025C  3F0A                                 MLV,R3   10
          1 00025D  5C04                                 LDV,R5   4
          1 00025E  0021                                 ALR      ;
          1 00025F       4436 000B                                ALPHANUM(11,B6,R3,,4),;
          1 000261       4007 008E                                ALPHANUM(SNPATMPLT3+6,AUTO,,R5,FILL)
          1 000263  437F                                 CSYNC    s:12526+7,SPREL
          1 000264  8CC7 008E                            LDI      SNPATMPLT3+6,AUTO
          1 000266  8470 0000 0001                       AID      1,IMO
          1 000269  8D47 008C                            SDI      SNPATMPLT3+4,AUTO
          1 00026B  ABC7 008C                            LAB,B2   SNPATMPLT3+4,AUTO
          1 00026D  2C00                                 LDV,R2   0
          1 00026E  6C04                                 LDV,R6   4
          1 00026F  BB86                                 LAB,B3   ,B6
          1 000270  3E16                                 ADV,R3   22
          1 000271  0008                                 MMM

      302    12527
      303    12528    3                KN$NETPARM.LDCT$ = QQQ$;

  12528   1 000272  CCC7 0033                            LDB,B4   QQQ$,AUTO
          1 000274  CF85                                 STB,B4   ,B5

      304    12529    3                KN$NETPARM.FPT$ = SAVE_FPT$;
PL6.E3A0      #001=KNN$SEND File=KNN$NETWORK.:E05TSI                             WED 07/30/97 01:04 Page:44

  12529   1 000275  ACC7 0035                            LDB,B2   SAVE_FPT$,AUTO
          1 000277  AFC5 0019                            STB,B2   25,B5

      305    12530    3                RETURN;

  12530   1 000279  C380 0000 0000  xent                 LNJ,B4   X6A_ARET

      306    12531    3                END;                       /* else ldct ~= addr(nil)             */
      307    12532    2           END;                            /* function = nconnect and CONS       */
      308    12533        %EJECT;
PL6.E3A0      #001=KNN$SEND File=KNN$NETWORK.:E05TSI                             WED 07/30/97 01:04 Page:45
      309    12534        /*
      310    12535                connection request for OSI transport over CLNS.
      311    12536        */
      312    12537
      313    12538    2      IF KN$NETPARM.FUNCTION = %K_NCONNECT_REQ THEN DO;

  12538   1 00027C  0981 007A                            BNE      s:12572,PREL

      314    12539    2           KN$NETPARM.FUNCTION = %K_NDATA;

  12539   1 00027E  6C21                                 LDV,R6   33
          1 00027F  EF46 0014                            STR,R6   20,B6

      315    12540    2           OSI_INIT = OSI_INIT_C;

  12540   1 000281  AB80 0000 0000  00                   LAB,B2   INIT_QDP_HDR
          1 000284  2C04                                 LDV,R2   4
          1 000285  6C44                                 LDV,R6   68
          1 000286  BB87                                 LAB,B3   ,AUTO
          1 000287  3C10                                 LDV,R3   16
          1 000288  0008                                 MMM

      316    12541    2           OSI_INIT.DEST_NODE = KN$NETPARM.NODE + 1;

  12541   1 000289  E846 0015                            LDR,R6   21,B6
          1 00028B  6E01                                 ADV,R6   1
          1 00028C  E7C7 0009                            STH,R6   OSI_INIT+1,AUTO

      317    12542    2           DEST_NODE = KN$NETPARM.NODE;

  12542   1 00028E  D846 0015                            LDR,R5   21,B6
          1 000290  DF47 002A                            STR,R5   DEST_NODE,AUTO

      318    12543    2           OSI_INIT.SOURCE_NODE = KN_NODE# + 1;

  12543   1 000292  C800 0000 0000  xsym                 LDR,R4   KN_NODE#
          1 000295  4E01                                 ADV,R4   1
PL6.E3A0      #001=KNN$SEND File=KNN$NETWORK.:E05TSI                             WED 07/30/97 01:04 Page:46
          1 000296  CAC7 0009                            SRM,R4,'00FF'X    OSI_INIT+1,AUTO
          1 000298       00FF

      319    12544    2           OSI_INIT.DST_NSAP = DST;

  12544   1 000299  DCC6 001F                            LDB,B5   31,B6
          1 00029B  AB85                                 LAB,B2   ,B5
          1 00029C  2C00                                 LDV,R2   0
          1 00029D  6C16                                 LDV,R6   22
          1 00029E  BB87                                 LAB,B3   ,AUTO
          1 00029F  3C14                                 LDV,R3   20
          1 0002A0  0008                                 MMM

      320    12545    2           OSI_INIT.SRC_NSAP = SRC;

  12545   1 0002A1  CCC6 001D                            LDB,B4   29,B6
          1 0002A3  AB84                                 LAB,B2   ,B4
          1 0002A4  2C00                                 LDV,R2   0
          1 0002A5  6C16                                 LDV,R6   22
          1 0002A6  BB87                                 LAB,B3   ,AUTO
          1 0002A7  3C2A                                 LDV,R3   42
          1 0002A8  0008                                 MMM

      321    12546    2           KN$NETPARM.UHDRSZ = 0;

  12546   1 0002A9  8746 0007                            CL       7,B6

      322    12547    2           KN$NETPARM.NHDR$ = ADDR(OSI_INIT);

  12547   1 0002AB  9BC7 0008                            LAB,B1   OSI_INIT,AUTO
          1 0002AD  9FC6 000E                            STB,B1   14,B6

      323    12548    2           KN$NETPARM.NHDRSZ = LENGTHC(OSI_INIT);

  12548   1 0002AF  6C44                                 LDV,R6   68
          1 0002B0  EF46 0010                            STR,R6   16,B6

PL6.E3A0      #001=KNN$SEND File=KNN$NETWORK.:E05TSI                             WED 07/30/97 01:04 Page:47
      324    12549    2           QQQ$ = KN$NETPARM.LDCT$;

  12549   1 0002B2  DC86                                 LDB,B5   ,B6
          1 0002B3  DFC7 0033                            STB,B5   QQQ$,AUTO

      325    12550    2           SAVE_FPT$ = KN$NETPARM.FPT$;

  12550   1 0002B5  DCC6 0019                            LDB,B5   25,B6
          1 0002B7  DFC7 0035                            STB,B5   SAVE_FPT$,AUTO

      326    12551    2           KN$NETPARM.FPT$ = ADDR(NIL);

  12551   1 0002B9  EB80 0000 0000                       LAB,B6   0
          1 0002BC  9CC7 0004                            LDB,B1   @KN$NETPARM,AUTO
          1 0002BE  EFC1 0019                            STB,B6   25,B1

      327    12552    3           IF DEST_NODE <= KNN_NODES THEN DO;

  12552   1 0002C0  D847 002A                            LDR,R5   DEST_NODE,AUTO
          1 0002C2  D900 0000 0000  xsym                 CMR,R5   KNN_NODES
          1 0002C5  0301 0029                            BG       s:12565,PREL

      328    12553    3                ROUTE$ = KNN$ROUTE$(DEST_NODE);

  12553   1 0002C7  EC80 0000 0000  xsym                 LDB,B6   KNN_ROUTE$$
          1 0002CA  B855                                 LDR,R3   R5
          1 0002CB  DCB6                                 LDB,B5   ,B6,R3
          1 0002CC  DFC7 002B                            STB,B5   ROUTE$,AUTO

      329    12554    3                IF KNN$ROUTE.LINK$ = ADDR(NIL)

  12554   1 0002CE  8D85                                 CMN      ,B5
          1 0002CF  0901 000E                            BE       s:12558,PREL
          1 0002D1  EC85                                 LDB,B6   ,B5
          1 0002D2  8D86                                 CMN      ,B6
          1 0002D3  0901 000A                            BE       s:12558,PREL
          1 0002D5  82C5 0007                            LB,'4000'X        7,B5
PL6.E3A0      #001=KNN$SEND File=KNN$NETWORK.:E05TSI                             WED 07/30/97 01:04 Page:48
          1 0002D7       4000
          1 0002D8  0581 0005                            BBF      s:12558,PREL
          1 0002DA  89C5 0007                            CMZ      7,B5
          1 0002DC  0801 0006                            BAL      s:12561,PREL

      330    12555    3                  OR KNN$ROUTE.LINK$->KNN$LINK.LDCT$ = ADDR(NIL)
      331    12556    3                  OR NOT KNN$ROUTE.FLAGS.LINK_CONNECTED
      332    12557    4                  OR NOT KNN$ROUTE.FLAGS.HOST_NODE THEN DO;

      333    12558    4                     KN$NETPARM.ERRCODE = %KN_ERR_NORTE;

  12558   1 0002DE  4C03                                 LDV,R4   3
          1 0002DF  CF41 0016                            STR,R4   22,B1

      334    12559    4                     GOTO ERROR1;

  12559   1 0002E1  0F81 0149                            B        s:12687,PREL

      335    12560    4                     END;
      336    12561    3                KN$NETPARM.LDCT$ = KNN$ROUTE.LINK$->KNN$LINK.LDCT$;

  12561   1 0002E3  DC86                                 LDB,B5   ,B6
          1 0002E4  DF81                                 STB,B5   ,B1

      337    12562    3                CALL KNH$SEND(KN$NETPARM) ALTRET(ERROR1);

  12562   1 0002E5  BBC7 0004                            LAB,B3   @KN$NETPARM,AUTO
          1 0002E7  CBF0 0100                            LAB,B4   256,IMO
          1 0002E9  E380 0000 0000  xent                 LNJ,B6   KNH$SEND
          1 0002EC       013F                            DC       s:12687,PREL

      338    12563    3                END;                       /*  if dest_node <                    */

  12563   1 0002ED  0F81 0006                            B        s:12568,PREL

      339    12564    3           ELSE DO;

PL6.E3A0      #001=KNN$SEND File=KNN$NETWORK.:E05TSI                             WED 07/30/97 01:04 Page:49
      340    12565    3                KN$NETPARM.ERRCODE = %KN_ERR_NORTE;

  12565   1 0002EF  4C03                                 LDV,R4   3
          1 0002F0  CF41 0016                            STR,R4   22,B1

      341    12566    3                GOTO ERROR1;

  12566   1 0002F2  0F81 0138                            B        s:12687,PREL

      342    12567    3                END;                       /* else dest_node <                   */
      343    12568    2           RETURN;

  12568   1 0002F4  C380 0000 0000  xent                 LNJ,B4   X6A_ARET

      344    12569    2           END;                            /* nconnect and CLNS                  */
      345    12570        %EJECT;
PL6.E3A0      #001=KNN$SEND File=KNN$NETWORK.:E05TSI                             WED 07/30/97 01:04 Page:50
      346    12571
      347    12572    2      IF KN$NETPARM.FUNCTION = %K_NDATA THEN DO;

  12572   1 0002F7  6D21                                 CMV,R6   33
          1 0002F8  0981 0088                            BNE      s:12631,PREL

      348    12573        /*
      349    12574             a function of k_ndata could indicate one of two things:
      350    12575                1 - an incoming transport frag from a foreign osi
      351    12576                    system.  In this case we build an osi_data message and forward
      352    12577                    to the designated host.
      353    12578
      354    12579                2 - an outgoing data message.  These are for OSI CLNS
      355    12580                    connections which have already been established.  forward kn$netparm
      356    12581                    to sendosi.
      357    12582        */
      358    12583    3           IF KN$NETPARM.DST_ADDR$ = ADDR(NIL) THEN DO;

  12583   1 0002FA  8DC6 001F                            CMN      31,B6
          1 0002FC  0981 0064                            BNE      s:12616,PREL

      359    12584         /*
      360    12585                incoming request to be forwarded to the host
      361    12586        */
      362    12587    3                QDP_HDR = INIT_QDP_HDR;

  12587   1 0002FE  8C80 0000 0000  00                   LDI      INIT_QDP_HDR
          1 000301  8D47 0006                            SDI      QDP_HDR,AUTO

      363    12588    3                QDP_HDR.DEST_NODE = KN$NETPARM.NODE + 1;

  12588   1 000303  D846 0015                            LDR,R5   21,B6
          1 000305  5E01                                 ADV,R5   1
          1 000306  D7C7 0007                            STH,R5   QDP_HDR+1,AUTO

      364    12589    3                DEST_NODE = KN$NETPARM.NODE;

PL6.E3A0      #001=KNN$SEND File=KNN$NETWORK.:E05TSI                             WED 07/30/97 01:04 Page:51
  12589   1 000308  C846 0015                            LDR,R4   21,B6
          1 00030A  CF47 002A                            STR,R4   DEST_NODE,AUTO

      365    12590    3                QDP_HDR.SOURCE_NODE = KN_NODE# + 1;

  12590   1 00030C  B800 0000 0000  xsym                 LDR,R3   KN_NODE#
          1 00030F  3E01                                 ADV,R3   1
          1 000310  BAC7 0007                            SRM,R3,'00FF'X    QDP_HDR+1,AUTO
          1 000312       00FF

      366    12591    3                KN$NETPARM.UHDRSZ = 0;

  12591   1 000313  8746 0007                            CL       7,B6

      367    12592    3                KN$NETPARM.NHDR$ = ADDR(QDP_HDR);

  12592   1 000315  DBC7 0006                            LAB,B5   QDP_HDR,AUTO
          1 000317  DFC6 000E                            STB,B5   14,B6

      368    12593    3                KN$NETPARM.NHDRSZ = LENGTHC(QDP_HDR);

  12593   1 000319  2C04                                 LDV,R2   4
          1 00031A  AF46 0010                            STR,R2   16,B6

      369    12594    3                QQQ$ = KN$NETPARM.LDCT$;

  12594   1 00031C  CC86                                 LDB,B4   ,B6
          1 00031D  CFC7 0033                            STB,B4   QQQ$,AUTO

      370    12595    3                SAVE_FPT$ = KN$NETPARM.FPT$;

  12595   1 00031F  BCC6 0019                            LDB,B3   25,B6
          1 000321  BFC7 0035                            STB,B3   SAVE_FPT$,AUTO

      371    12596    3                KN$NETPARM.FPT$ = ADDR(NIL);

  12596   1 000323  AB80 0000 0000                       LAB,B2   0
PL6.E3A0      #001=KNN$SEND File=KNN$NETWORK.:E05TSI                             WED 07/30/97 01:04 Page:52
          1 000326  AFC6 0019                            STB,B2   25,B6

      372    12597    4                IF DEST_NODE <= KNN_NODES THEN DO;

  12597   1 000328  C900 0000 0000  xsym                 CMR,R4   KNN_NODES
          1 00032B  0301 002D                            BG       s:12610,PREL

      373    12598    4                     ROUTE$ = KNN$ROUTE$(DEST_NODE);

  12598   1 00032D  9C80 0000 0000  xsym                 LDB,B1   KNN_ROUTE$$
          1 000330  9854                                 LDR,R1   R4
          1 000331  EC91                                 LDB,B6   ,B1,R1
          1 000332  EFC7 002B                            STB,B6   ROUTE$,AUTO

      374    12599    4                     IF KNN$ROUTE.LINK$ = ADDR(NIL)

  12599   1 000334  8D86                                 CMN      ,B6
          1 000335  0901 000E                            BE       s:12603,PREL
          1 000337  DC86                                 LDB,B5   ,B6
          1 000338  8D85                                 CMN      ,B5
          1 000339  0901 000A                            BE       s:12603,PREL
          1 00033B  82C6 0007                            LB,'4000'X        7,B6
          1 00033D       4000
          1 00033E  0581 0005                            BBF      s:12603,PREL
          1 000340  89C6 0007                            CMZ      7,B6
          1 000342  0801 0008                            BAL      s:12606,PREL

      375    12600    4                       OR KNN$ROUTE.LINK$->KNN$LINK.LDCT$ = ADDR(NIL)
      376    12601    4                       OR NOT KNN$ROUTE.FLAGS.LINK_CONNECTED
      377    12602    5                       OR NOT KNN$ROUTE.FLAGS.HOST_NODE THEN DO;

      378    12603    5                          KN$NETPARM.ERRCODE = %KN_ERR_NORTE;

  12603   1 000344  DCC7 0004                            LDB,B5   @KN$NETPARM,AUTO
          1 000346  5C03                                 LDV,R5   3
          1 000347  DF45 0016                            STR,R5   22,B5

PL6.E3A0      #001=KNN$SEND File=KNN$NETWORK.:E05TSI                             WED 07/30/97 01:04 Page:53
      379    12604    5                          GOTO ERROR1;

  12604   1 000349  0F81 00E1                            B        s:12687,PREL

      380    12605    5                          END;
      381    12606    4                     KN$NETPARM.LDCT$ = KNN$ROUTE.LINK$->KNN$LINK.LDCT$;

  12606   1 00034B  AC85                                 LDB,B2   ,B5
          1 00034C  ECC7 0004                            LDB,B6   @KN$NETPARM,AUTO
          1 00034E  AF86                                 STB,B2   ,B6

      382    12607    4                     CALL KNH$SEND(KN$NETPARM) ALTRET(ERROR1);

  12607   1 00034F  BBC7 0004                            LAB,B3   @KN$NETPARM,AUTO
          1 000351  CBF0 0100                            LAB,B4   256,IMO
          1 000353  E380 0000 0000  xent                 LNJ,B6   KNH$SEND
          1 000356       00D5                            DC       s:12687,PREL

      383    12608    4                     END;                  /*  if dest_node <                    */

  12608   1 000357  0F81 0006                            B        s:12613,PREL

      384    12609    4                ELSE DO;

      385    12610    4                     KN$NETPARM.ERRCODE = %KN_ERR_NORTE;

  12610   1 000359  1C03                                 LDV,R1   3
          1 00035A  9F46 0016                            STR,R1   22,B6

      386    12611    4                     GOTO ERROR1;

  12611   1 00035C  0F81 00CE                            B        s:12687,PREL

      387    12612    4                     END;                  /* else dest_node <                   */
      388    12613    3                RETURN;

  12613   1 00035E  C380 0000 0000  xent                 LNJ,B4   X6A_ARET
PL6.E3A0      #001=KNN$SEND File=KNN$NETWORK.:E05TSI                             WED 07/30/97 01:04 Page:54

      389    12614    3                END;                       /* if dst_addr$ = addr(nil)           */
      390    12615    3           ELSE DO;         /* dst_addr$ ~= addr(nil) forward to knn$sendosi     */

      391    12616    3                QQQ$ = KN$NETPARM.LDCT$;

  12616   1 000361  DC86                                 LDB,B5   ,B6
          1 000362  DFC7 0033                            STB,B5   QQQ$,AUTO

      392    12617    3                SAVE_FPT$ = KN$NETPARM.FPT$;

  12617   1 000364  CCC6 0019                            LDB,B4   25,B6
          1 000366  CFC7 0035                            STB,B4   SAVE_FPT$,AUTO

      393    12618    3                KN$NETPARM.FPT$ = ADDR(NIL);

  12618   1 000368  BB80 0000 0000                       LAB,B3   0
          1 00036B  BFC6 0019                            STB,B3   25,B6

      394    12619
      395    12620    3                CALL KNN$SENDOSI(KN$NETPARM);
             12620                         /* may altret, drop the message regardless*/

  12620   1 00036D  BBC7 0004                            LAB,B3   @KN$NETPARM,AUTO
          1 00036F  CBF0 0100                            LAB,B4   256,IMO
          1 000371  E380 0000 0000  xent                 LNJ,B6   KNN$SENDOSI
          1 000374       0001                            DC       s:12621,PREL

      396    12621    3                KN$NETPARM.FPT$ = SAVE_FPT$;

  12621   1 000375  ECC7 0035                            LDB,B6   SAVE_FPT$,AUTO
          1 000377  DCC7 0004                            LDB,B5   @KN$NETPARM,AUTO
          1 000379  EFC5 0019                            STB,B6   25,B5

      397    12622    3                KN$NETPARM.LDCT$ = QQQ$;

  12622   1 00037B  CCC7 0033                            LDB,B4   QQQ$,AUTO
PL6.E3A0      #001=KNN$SEND File=KNN$NETWORK.:E05TSI                             WED 07/30/97 01:04 Page:55
          1 00037D  CF85                                 STB,B4   ,B5

      398    12623    3                RETURN; /*  kn$netparm.errcode set in sendosi, drop the message  */

  12623   1 00037E  C380 0000 0000  xent                 LNJ,B4   X6A_ARET

      399    12624    3                END;
      400    12625    2           END;                            /* if function = k_ndata              */
      401    12626
      402    12627        %EJECT;
PL6.E3A0      #001=KNN$SEND File=KNN$NETWORK.:E05TSI                             WED 07/30/97 01:04 Page:56
      403    12628        /*
      404    12629                data request for CP-6 QDP or CP-6 Class 4 transport
      405    12630        */
      406    12631    1      IF KN$NETPARM.FUNCTION ~= %KN_FCN_DATA

  12631   1 000381  6D05                                 CMV,R6   5
          1 000382  0901 000A                            BE       s:12639,PREL

      407    12632    1      THEN CALL SCREECH(BADFNC);

  12632   1 000384  BB80 0000 0000  02                   LAB,B3   0
          1 000387  CBF0 0100                            LAB,B4   256,IMO
          1 000389  E380 0000 0000  xent                 LNJ,B6   SCREECH
          1 00038C       0001                            DC       s:12639,PREL

      408    12633
      409    12634        /*S* SCREECH_CODE: KNN-S$BADFNC
      410    12635             TYPE: SCREECH
      411    12636             MESSAGE: Bad Function code passed to network.
      412    12637        */
      413    12638
      414    12639    1      SAVE_FPT$ = KN$NETPARM.FPT$;
             12639               /* dont send the fpt$ to knh$send, it confuses hdlc */

  12639   1 00038D  ECC7 0004                            LDB,B6   @KN$NETPARM,AUTO
          1 00038F  DCC6 0019                            LDB,B5   25,B6
          1 000391  DFC7 0035                            STB,B5   SAVE_FPT$,AUTO

      415    12640    1      KN$NETPARM.FPT$ = ADDR(NIL);

  12640   1 000393  CB80 0000 0000                       LAB,B4   0
          1 000396  CFC6 0019                            STB,B4   25,B6

      416    12641
      417    12642    1      IF KN$NETPARM.NODE > KNN_NODES

  12642   1 000398  E846 0015                            LDR,R6   21,B6
PL6.E3A0      #001=KNN$SEND File=KNN$NETWORK.:E05TSI                             WED 07/30/97 01:04 Page:57
          1 00039A  6801 000F                            BLZ,R6   s:12651,PREL
          1 00039C  E900 0000 0000  xsym                 CMR,R6   KNN_NODES
          1 00039F  0381 000A                            BLE      s:12651,PREL

      418    12643    1      THEN CALL SCREECH(SNODES);

  12643   1 0003A1  BB80 0000 0002  02                   LAB,B3   +2
          1 0003A4  CBF0 0100                            LAB,B4   256,IMO
          1 0003A6  E380 0000 0000  xent                 LNJ,B6   SCREECH
          1 0003A9       0001                            DC       s:12651,PREL

      419    12644
      420    12645        /*S* SCREECH_CODE: KNN-S$BADNODE
      421    12646             TYPE: SCREECH
      422    12647             MESSAGE: Bad FEP Node parameter passed to KNN$SEND
      423    12648        */
      424    12649
      425    12650
      426    12651    1      DEST_NODE = KN$NETPARM.NODE;

  12651   1 0003AA  ECC7 0004                            LDB,B6   @KN$NETPARM,AUTO
          1 0003AC  E846 0015                            LDR,R6   21,B6
          1 0003AE  EF47 002A                            STR,R6   DEST_NODE,AUTO

      427    12652    1      ROUTE$ = KNN$ROUTE$(DEST_NODE);

  12652   1 0003B0  DC80 0000 0000  xsym                 LDB,B5   KNN_ROUTE$$
          1 0003B3  B856                                 LDR,R3   R6
          1 0003B4  CCB5                                 LDB,B4   ,B5,R3
          1 0003B5  CFC7 002B                            STB,B4   ROUTE$,AUTO

      428    12653    1      LINK$ = KNN$ROUTE.LINK$;

  12653   1 0003B7  BC84                                 LDB,B3   ,B4
          1 0003B8  BFC7 002D                            STB,B3   LINK$,AUTO

      429    12654
PL6.E3A0      #001=KNN$SEND File=KNN$NETWORK.:E05TSI                             WED 07/30/97 01:04 Page:58
      430    12655    1      IF LINK$ = ADDR(NIL) OR KNN$LINK.LDCT$ = ADDR(NIL)

  12655   1 0003BA  8DC7 002D                            CMN      LINK$,AUTO
          1 0003BC  0901 0004                            BE       s:12657,PREL
          1 0003BE  8D83                                 CMN      ,B3
          1 0003BF  0981 0007                            BNE      s:12661,PREL

      431    12656    2      THEN DO;

      432    12657    2           KN$NETPARM.ERRCODE = %KN_ERR_NORTE;

  12657   1 0003C1  5C03                                 LDV,R5   3
          1 0003C2  DF46 0016                            STR,R5   22,B6

      433    12658    2           ALTRETURN;

  12658   1 0003C4  C380 0000 0000  xent                 LNJ,B4   X6A_AALT

      434    12659    2           END;
      435    12660
      436    12661    1      QQQ$ = KN$NETPARM.LDCT$;

  12661   1 0003C7  AC86                                 LDB,B2   ,B6
          1 0003C8  AFC7 0033                            STB,B2   QQQ$,AUTO

      437    12662
      438    12663    1      KN$NETPARM.NHDRSZ=LENGTHC(INIT_QDP_HDR);

  12663   1 0003CA  5C04                                 LDV,R5   4
          1 0003CB  DF46 0010                            STR,R5   16,B6

      439    12664    1      KN$NETPARM.NHDR$ = ADDR(QDP_HDR);

  12664   1 0003CD  9BC7 0006                            LAB,B1   QDP_HDR,AUTO
          1 0003CF  9FC6 000E                            STB,B1   14,B6

      440    12665
PL6.E3A0      #001=KNN$SEND File=KNN$NETWORK.:E05TSI                             WED 07/30/97 01:04 Page:59
      441    12666    1      QDP_HDR = INIT_QDP_HDR;

  12666   1 0003D1  8C80 0000 0000  00                   LDI      INIT_QDP_HDR
          1 0003D4  8D47 0006                            SDI      QDP_HDR,AUTO

      442    12667
      443    12668    1      IF KN$NETPARM.LDCT$ ~= ADDR(NIL) AND KN$LDCT.CONN_TYPE = %KN_CNTYPE_QDP

  12668   1 0003D6  8D86                                 CMN      ,B6
          1 0003D7  0901 000C                            BE       s:12670,PREL
          1 0003D9  DC86                                 LDB,B5   ,B6
          1 0003DA  C285                                 LLH,R4   ,B5
          1 0003DB  4D05                                 CMV,R4   5
          1 0003DC  0981 0007                            BNE      s:12670,PREL

      444    12669    1      THEN QDP_HDR.MSGTYP = %K_MSGTYP_CP6_QDP#;

  12669   1 0003DE  A870 00FE                            LDR,R2   254,IMO
          1 0003E0  A7C7 0006                            STH,R2   QDP_HDR,AUTO
          1 0003E2  0F81 0005                            B        s:12672,PREL

      445    12670    1      ELSE QDP_HDR.MSGTYP = %K_MSGTYP_CP6_CL4#; /* ape, ssn, link                */

  12670   1 0003E4  C870 00FD                            LDR,R4   253,IMO
          1 0003E6  C7C7 0006                            STH,R4   QDP_HDR,AUTO

      446    12671
      447    12672    1      QDP_HDR.DEST_NODE = KN$NETPARM.NODE + 1;

  12672   1 0003E8  3E01                                 ADV,R3   1
          1 0003E9  B7C7 0007                            STH,R3   QDP_HDR+1,AUTO

      448    12673    1      QDP_HDR.SOURCE_NODE = KN_NODE# + 1;

  12673   1 0003EB  C800 0000 0000  xsym                 LDR,R4   KN_NODE#
          1 0003EE  4E01                                 ADV,R4   1
          1 0003EF  CAC7 0007                            SRM,R4,'00FF'X    QDP_HDR+1,AUTO
PL6.E3A0      #001=KNN$SEND File=KNN$NETWORK.:E05TSI                             WED 07/30/97 01:04 Page:60
          1 0003F1       00FF

      449    12674
      450    12675    1      KN$NETPARM.LDCT$ = KNN$LINK.LDCT$;

  12675   1 0003F2  DC83                                 LDB,B5   ,B3
          1 0003F3  DF86                                 STB,B5   ,B6

      451    12676    1      CALL KNH$SEND (KN$NETPARM) ALTRET(ERROR1);

  12676   1 0003F4  BBC7 0004                            LAB,B3   @KN$NETPARM,AUTO
          1 0003F6  CBF0 0100                            LAB,B4   256,IMO
          1 0003F8  E380 0000 0000  xent                 LNJ,B6   KNH$SEND
          1 0003FB       0030                            DC       s:12687,PREL

      452    12677
      453    12678    1      KNN$LINK.MSGS_OUT = KNN$LINK.MSGS_OUT + 1;

  12678   1 0003FC  ECC7 002D                            LDB,B6   LINK$,AUTO
          1 0003FE  8AC6 0008                            INC      8,B6
          1 000400  8EC6 0007                            CAD      7,B6

      454    12679    1      LINK# = KN$LDCT.LINK_ID;

  12679   1 000402  DCC7 0004                            LDB,B5   @KN$NETPARM,AUTO
          1 000404  CC85                                 LDB,B4   ,B5
          1 000405  E844 0003                            LDR,R6   3,B4
          1 000407  EF47 0031                            STR,R6   LINK#,AUTO

      455    12680    1      KNN$ROUTE.LINK.MSGS_OUT(LINK#) = KNN$ROUTE.LINK.MSGS_OUT(LINK#) + 1;

  12680   1 000409  BCC7 002B                            LDB,B3   ROUTE$,AUTO
          1 00040B  B856                                 LDR,R3   R6
          1 00040C  3F0A                                 MLV,R3   10
          1 00040D  5C04                                 LDV,R5   4
          1 00040E  0021                                 ALR      ;
          1 00040F       4433 000B                                ALPHANUM(11,B3,R3,,4),;
PL6.E3A0      #001=KNN$SEND File=KNN$NETWORK.:E05TSI                             WED 07/30/97 01:04 Page:61
          1 000411       4007 008E                                ALPHANUM(SNPATMPLT3+6,AUTO,,R5,FILL)
          1 000413  437F                                 CSYNC    s:12680+9,SPREL
          1 000414  8CC7 008E                            LDI      SNPATMPLT3+6,AUTO
          1 000416  8470 0000 0001                       AID      1,IMO
          1 000419  8D47 008C                            SDI      SNPATMPLT3+4,AUTO
          1 00041B  ABC7 008C                            LAB,B2   SNPATMPLT3+4,AUTO
          1 00041D  2C00                                 LDV,R2   0
          1 00041E  6C04                                 LDV,R6   4
          1 00041F  3E16                                 ADV,R3   22
          1 000420  0008                                 MMM

      456    12681
      457    12682    1      KN$NETPARM.LDCT$ = QQQ$;

  12682   1 000421  ECC7 0033                            LDB,B6   QQQ$,AUTO
          1 000423  EF85                                 STB,B6   ,B5

      458    12683    1      KN$NETPARM.FPT$ = SAVE_FPT$;

  12683   1 000424  CCC7 0035                            LDB,B4   SAVE_FPT$,AUTO
          1 000426  CFC5 0019                            STB,B4   25,B5

      459    12684    1      RETURN;

  12684   1 000428  C380 0000 0000  xent                 LNJ,B4   X6A_ARET

      460    12685
      461    12686    1   ERROR1:
      462    12687    1      KN$NETPARM.FPT$ = SAVE_FPT$;

  12687   1 00042B  ECC7 0035            ERROR1          LDB,B6   SAVE_FPT$,AUTO
          1 00042D  DCC7 0004                            LDB,B5   @KN$NETPARM,AUTO
          1 00042F  EFC5 0019                            STB,B6   25,B5

      463    12688    1      KN$NETPARM.LDCT$ = QQQ$;

  12688   1 000431  CCC7 0033                            LDB,B4   QQQ$,AUTO
PL6.E3A0      #001=KNN$SEND File=KNN$NETWORK.:E05TSI                             WED 07/30/97 01:04 Page:62
          1 000433  CF85                                 STB,B4   ,B5

      464    12689    1      ALTRETURN;

  12689   1 000434  C380 0000 0000  xent                 LNJ,B4   X6A_AALT
      465    12690
      466    12691    1   END KNN$SEND;
      467    12692        %EOD;

PL6.E3A0      #001=KNN$SEND File=KNN$NETWORK.:E05TSI                             WED 07/30/97 01:04 Page:63
--  Include file information  --

   KI_SUBS_C.:E05TOU  is referenced.
   KI_CP6.:E05TOU  is referenced.
   K_INTERFACE_M.:E05TOU  is referenced.
   KL_MACRO_C.:E05TOU  is referenced.
   K_ADDRESS_M.:E05TOU  is referenced.
   KJ_FCNS_C.:E05TOU  is referenced.
   K_QDPHDRS_M.:E05TOU  is referenced.
   KNN_NETWORK_M.:E05TOU  is referenced.
   KNH_MACRO_C.:E05TOU  is referenced.
   KN_DATA_M.:E05TOU  is referenced.
   GU_LCP6_M.:E05TOU  is referenced.
   K_SCODE_C.:E05TOU  is referenced.
      No diagnostics issued in procedure KNN$SEND.
PL6.E3A0      #001=KNN$SEND File=KNN$NETWORK.:E05TSI                             WED 07/30/97 01:04 Page:64

 **** Variables and constants ****

  ****  Section 000 RoData KNN$SEND

  ****  Scalars and arrays  ****
HexLoc.c.b A Datatyp(siz) R M Lvl/name                 HexLoc.c.b A Datatyp(siz) R M Lvl/name

    57-0-0/w STRC(48)    r     1 BADFNC                    24-0-0/w STRC(720)   r     1 FPT_CONNECT_C
     0-0-0/w STRC(32)    r     1 INIT_QDP_HDR               2-0-0/w STRC(544)   r     1 OSI_INIT_C
    51-0-0/w STRC(48)    r     1 SNODES

  ****  Auto variables  ****

  ****  Scalars and arrays  ****
HexLoc.c.b A Datatyp(siz) R M Lvl/name                 HexLoc.c.b A Datatyp(siz) R M Lvl/name

     4-0-0/w PTR         r     1 @KN$NETPARM               32-0-0/w UBIN(16)    r     1 CHAN#
    2A-0-0/w UBIN(16)    r     1 DEST_NODE                 57-0-0/w STRC(720)   r     1 FPT_CONNECT
    37-0-0/w UBIN(16)    r     1 I                         38-0-0/w UBIN(16)    r     1 J
    *0-0-0/w STRC(528)   r     1 KN$NETPARM                31-0-0/w UBIN(16)    r     1 LINK#
    2D-0-0/w PTR         r     1 LINK$                      8-0-0/w STRC(544)   r     1 OSI_INIT
     6-0-0/w STRC(32)    r     1 QDP_HDR                   33-0-0/w PTR         r     1 QQQ$
    39-0-0/w STRC(480)   r     1 ROUTE                     2B-0-0/w PTR         r     1 ROUTE$
    35-0-0/w PTR         r     1 SAVE_FPT$                 84-0-0/w CHAR(8)     r     1 SNPATMPLT1
    84-0-0/w STRC(56)    r     1 SNPATMPLT2                88-0-0/w CHAR(8)     r     1 SNPATMPLT3
    88-0-0/w STRC(56)    r     1 SNPATMPLT4                2F-0-0/w PTR         r     1 TLINK$

  ****  SYMREF variables  ****

  ****  Scalars and arrays  ****
HexLoc.c.b A Datatyp(siz) R M Lvl/name                 HexLoc.c.b A Datatyp(siz) R M Lvl/name

     0-0-0/w PTR         r     1 KNN_LINK$$                 0-0-0/w UBIN(16)    r     1 KNN_LINKS
     0-0-0/w UBIN(16)    r     1 KNN_NODES                  0-0-0/w PTR         r     1 KNN_ROUTE$$
     0-0-0/w UBIN(16)    r     1 KN_NODE#

  ****  BASED and DCB variables  ****
PL6.E3A0      #001=KNN$SEND File=KNN$NETWORK.:E05TSI                             WED 07/30/97 01:04 Page:65

  ****  Scalars and arrays  ****
HexLoc.c.b A Datatyp(siz) R M Lvl/name                 HexLoc.c.b A Datatyp(siz) R M Lvl/name

     0-0-0/c STRC(176)   r     1 DST                        0-0-0/w STRC(256)   r     1 KN$LDCT
     0-0-0/c STRC(608)   r     1 KNN$LINK
     0-0-0/w PTR         r     1 KNN$LINK$(0:0)
     0-0-0/w STRC(208)   r     1 KNN$ROUTE
     0-0-0/w PTR         r     1 KNN$ROUTE$(0:0)
     0-0-0/c STRC(176)   r     1 SRC


   Procedure KNN$SEND requires 1079 words for executable code.
   Procedure KNN$SEND requires 144 words of local(AUTO) storage.
PL6.E3A0      #001=KNN$SEND File=KNN$NETWORK.:E05TSI                             WED 07/30/97 01:04 Page:66
          *** CROSS REFERENCE LISTING ***
**     DENOTES     IDENTIFIER DEFINITION
<<                 IDENTIFIER'S VALUE SET
>>                 IDENTIFIER'S VALUE USED
<>                 IDENTIFIER SET AND/OR USED
--                 IDENTIFIER REFERENCED
PL6.E3A0      #001=KNN$SEND File=KNN$NETWORK.:E05TSI                             WED 07/30/97 01:04 Page:67
          MINI XREF LISTING

BADFNC
     11599**DCL     12632<>CALL
CHAN#
     10447**DCL     12446<<ASSIGN  12449>>IF
DEST_NODE
     10442**DCL     12493<<ASSIGN  12494>>ASSIGN  12514>>ASSIGN  12542<<ASSIGN  12552>>IF      12553>>ASSIGN
     12589<<ASSIGN  12597>>IF      12598>>ASSIGN  12651<<ASSIGN  12652>>ASSIGN
DST
     12230**DCL     12377<>CALL    12469>>ASSIGN  12474>>ASSIGN  12516>>ASSIGN  12544>>ASSIGN
DST.ADDRESS_N
     12262**DCL     12263--REDEF
ERROR1
     12687**LABEL   12522--CALLALT 12559--GOTO    12562--CALLALT 12566--GOTO    12604--GOTO    12607--CALLALT
     12611--GOTO    12676--CALLALT
FOUNDROUTE
     12452**LABEL   12439--GOTO    12456--GOTO
FPT_CONNECT
     10675**DCL     12464<<ASSIGN  12486--ASSIGN
FPT_CONNECT.CLASS
     10715**DCL     12465<<ASSIGN
FPT_CONNECT.DEST
     10742**DCL     12469<<ASSIGN
FPT_CONNECT.DEST.ADDRESS_N
     10772**DCL     10773--REDEF
FPT_CONNECT.DSTSNPA
     10828**DCL     12471<<ASSIGN  12474<<ASSIGN
FPT_CONNECT.DSTSNPA.ADR_STRING
     10828**DCL     10828--REDEF
FPT_CONNECT.DSTSNPA.LNG
     10828**DCL     12475<<ASSIGN  12475>>ASSIGN
FPT_CONNECT.LADR
     10794**DCL     12470<<ASSIGN
PL6.E3A0      #001=KNN$SEND File=KNN$NETWORK.:E05TSI                             WED 07/30/97 01:04 Page:68
FPT_CONNECT.LADR.ADDRESS_N
     10824**DCL     10825--REDEF
FPT_CONNECT.RESOURCE
     10681**DCL     12478<<ASSIGN
FPT_CONNECT.RLCID.GENERATION
     10711**DCL     10712--REDEF
FPT_CONNECT.RLCID.LDCTX
     10712**DCL     10712--REDEF
FPT_CONNECT.TERMINAL_ID.TERM
     10700**DCL     10709--REDEF
FPT_CONNECT.TR_FLAGS
     10716**DCL     12466<<ASSIGN
FPT_CONNECT_C
     11288**DCL     12464>>ASSIGN
FPT_CONNECT_C.DEST.ADDRESS_N
     11385**DCL     11386--REDEF
FPT_CONNECT_C.DSTSNPA.ADR_STRING
     11441**DCL     11441--REDEF
FPT_CONNECT_C.LADR.ADDRESS_N
     11437**DCL     11438--REDEF
FPT_CONNECT_C.RLCID.GENERATION
     11324**DCL     11325--REDEF
FPT_CONNECT_C.RLCID.LDCTX
     11325**DCL     11325--REDEF
FPT_CONNECT_C.TERMINAL_ID.TERM
     11313**DCL     11322--REDEF
I
     10450**DCL     12434<<DOINDEX 12435>>IF      12435>>IF      12447<<DOINDEX 12448>>ASSIGN
INIT_QDP_HDR
     10872**DCL     12587>>ASSIGN  12663--ASSIGN  12666>>ASSIGN
J
     10451**DCL     12426<<DOINDEX 12427>>ASSIGN
KN$LDCT.CONN_TYPE
     11985**DCL     12415<<ASSIGN  12668>>IF
KN$LDCT.LINK_ID
     12087**DCL     12401>>ASSIGN  12525>>ASSIGN  12679>>ASSIGN
PL6.E3A0      #001=KNN$SEND File=KNN$NETWORK.:E05TSI                             WED 07/30/97 01:04 Page:69
KN$LDCT.RLCID.LDCTX
     12045**DCL     12052--REDEF   12060--REDEF
KN$LDCT.STATE
     11999**DCL     12416<<ASSIGN
KN$LDCT.TRANSPORT_ID
     12079**DCL     12087--REDEF
KN$LDCT.UID
     12109**DCL     12110--REDEF   12119--REDEF   12462<<ASSIGN  12462>>ASSIGN
KN$LDCT.USER#
     12202**DCL     12463<<ASSIGN  12463>>ASSIGN
KN$LDCT.USER_ENTRY$
     12190**DCL     12417<<ASSIGN
KN$NETPARM
      9878**DCL        10--PROC    12487<>CALL    12522<>CALL    12562<>CALL    12607<>CALL    12620<>CALL
     12676<>CALL
KN$NETPARM.DST_ADDR$
     10012**DCL     12230--IMP-PTR 12377>>CALL    12469>>ASSIGN  12474>>ASSIGN  12516>>ASSIGN  12544>>ASSIGN
     12583>>IF
KN$NETPARM.ERRCODE
      9985**DCL     12378<<ASSIGN  12382<<ASSIGN  12391<<ASSIGN  12398<<ASSIGN  12412<<ASSIGN  12453<<ASSIGN
     12501<<ASSIGN  12506<<ASSIGN  12558<<ASSIGN  12565<<ASSIGN  12603<<ASSIGN  12610<<ASSIGN  12657<<ASSIGN
KN$NETPARM.FLAGS.CONS
      9955**DCL     12375>>IF      12484>>IF
KN$NETPARM.FPT$
      9997**DCL     12486<<ASSIGN  12520>>ASSIGN  12521<<ASSIGN  12529<<ASSIGN  12550>>ASSIGN  12551<<ASSIGN
     12595>>ASSIGN  12596<<ASSIGN  12617>>ASSIGN  12618<<ASSIGN  12621<<ASSIGN  12639>>ASSIGN  12640<<ASSIGN
     12683<<ASSIGN  12687<<ASSIGN
KN$NETPARM.FUNCTION
      9973**DCL     12375>>IF      12477<<ASSIGN  12512<<ASSIGN  12538>>IF      12539<<ASSIGN  12572>>IF
     12631>>IF
KN$NETPARM.LDCT$
      9879**DCL     11984--IMP-PTR 12392<>CALL    12410>>IF      12411<>CALL    12415>>ASSIGN  12416>>ASSIGN
     12417>>ASSIGN  12450>>ASSIGN  12452<>CALL    12462>>ASSIGN  12463>>ASSIGN  12510>>ASSIGN  12511<<ASSIGN
     12525>>ASSIGN  12528<<ASSIGN  12549>>ASSIGN  12561<<ASSIGN  12594>>ASSIGN  12606<<ASSIGN  12616>>ASSIGN
     12622<<ASSIGN  12661>>ASSIGN  12668>>IF      12668>>IF      12675<<ASSIGN  12679>>ASSIGN  12682<<ASSIGN
     12688<<ASSIGN
PL6.E3A0      #001=KNN$SEND File=KNN$NETWORK.:E05TSI                             WED 07/30/97 01:04 Page:70
KN$NETPARM.MSG$
      9885**DCL      9890--REDEF
KN$NETPARM.MSGSZ
      9896**DCL     12485<<ASSIGN
KN$NETPARM.NHDR$
      9937**DCL      9938--REDEF   12518<<ASSIGN  12547<<ASSIGN  12592<<ASSIGN  12664<<ASSIGN
KN$NETPARM.NHDRSZ
      9943**DCL     12483<<ASSIGN  12519<<ASSIGN  12548<<ASSIGN  12593<<ASSIGN  12663<<ASSIGN
KN$NETPARM.NODE
      9980**DCL     12541>>ASSIGN  12542>>ASSIGN  12588>>ASSIGN  12589>>ASSIGN  12642>>IF      12651>>ASSIGN
     12672>>ASSIGN
KN$NETPARM.RECTYPE
      9964**DCL     12371<<ASSIGN  12479<<ASSIGN
KN$NETPARM.SHDR$
      9915**DCL      9916--REDEF
KN$NETPARM.SHDRSZ
      9921**DCL     12482<<ASSIGN
KN$NETPARM.SRC_ADDR$
     10007**DCL     12282--IMP-PTR 12470>>ASSIGN  12517>>ASSIGN  12545>>ASSIGN
KN$NETPARM.THDR$
      9926**DCL      9927--REDEF
KN$NETPARM.THDRSZ
      9932**DCL     12480<<ASSIGN
KN$NETPARM.UHDR$
      9901**DCL      9902--REDEF
KN$NETPARM.UHDRSZ
      9910**DCL     12481<<ASSIGN  12546<<ASSIGN  12591<<ASSIGN
KNA$GETLDCT
     11638**DCL-ENT 12411--CALL
KNA$RLSLDCT
     11637**DCL-ENT 12392--CALL    12452--CALL
KNH$SEND
     11635**DCL-ENT 12487--CALL    12522--CALL    12562--CALL    12607--CALL    12676--CALL
KNN$DECODE_NSAP
     11636**DCL-ENT 12377--CALL
KNN$LINK.CHAN#
PL6.E3A0      #001=KNN$SEND File=KNN$NETWORK.:E05TSI                             WED 07/30/97 01:04 Page:71
     11953**DCL     12446>>ASSIGN  12449>>IF
KNN$LINK.DEST.ADDRESS_N
     11906**DCL     11907--REDEF
KNN$LINK.FLAGS.VIRCIR
     11764**DCL     12428>>IF      12449>>IF
KNN$LINK.LADR.ADDRESS_N
     11849**DCL     11850--REDEF
KNN$LINK.LDCT$
     11720**DCL     11727--REDEF   12397>>IF      12401>>ASSIGN  12428>>IF      12451>>IF      12462>>ASSIGN
     12463>>ASSIGN  12504>>IF      12511>>ASSIGN  12554>>IF      12561>>ASSIGN  12599>>IF      12606>>ASSIGN
     12655>>IF      12675>>ASSIGN
KNN$LINK.MSGS_OUT
     11795**DCL     12524<<ASSIGN  12524>>ASSIGN  12678<<ASSIGN  12678>>ASSIGN
KNN$LINK.NODE#
     11735**DCL     12428>>IF
KNN$LINK.QOS
     11779**DCL     12397>>IF
KNN$LINK.SNPA.ADDRESS
     11942**DCL     12433>>ASSIGN
KNN$LINK.SNPA.LEN
     11937**DCL     12434>>DOINDEX
KNN$LINK$
     11645**DCL     12427>>ASSIGN  12448>>ASSIGN
KNN$RECV
     11639**DCL-ENT 12417--ASSIGN
KNN$ROUTE.CURRENT_QOS
     11665**DCL     12389>>IF      12495>>IF
KNN$ROUTE.FLAGS.HOST_NODE
     11675**DCL     12495>>IF      12554>>IF      12599>>IF
KNN$ROUTE.FLAGS.LINK_CONNECTED
     11679**DCL     12495>>IF      12554>>IF      12599>>IF
KNN$ROUTE.LINK.MSGS_OUT
     11712**DCL     12526<<ASSIGN  12526>>ASSIGN  12680<<ASSIGN  12680>>ASSIGN
KNN$ROUTE.LINK$
     11648**DCL     12389>>IF      12396>>ASSIGN  12504>>IF      12504>>IF      12511>>ASSIGN  12524>>ASSIGN
     12524>>ASSIGN  12554>>IF      12554>>IF      12561>>ASSIGN  12599>>IF      12599>>IF      12606>>ASSIGN
PL6.E3A0      #001=KNN$SEND File=KNN$NETWORK.:E05TSI                             WED 07/30/97 01:04 Page:72
     12653>>ASSIGN
KNN$ROUTE$
     11644**DCL     12389>>IF      12389>>IF      12396>>ASSIGN  12494>>ASSIGN  12553>>ASSIGN  12598>>ASSIGN
     12652>>ASSIGN
KNN$SENDOSI
     11641**DCL-ENT 12620--CALL
KNN_LINK$$
     10846**DCL     11645--IMP-PTR 12427>>ASSIGN  12448>>ASSIGN
KNN_LINKS
     10847**DCL     12426>>DOINDEX 12447>>DOINDEX
KNN_NODES
     10845**DCL     12381>>IF      12552>>IF      12597>>IF      12642>>IF
KNN_ROUTE$$
     10844**DCL     11644--IMP-PTR 12389>>IF      12389>>IF      12396>>ASSIGN  12494>>ASSIGN  12553>>ASSIGN
     12598>>ASSIGN  12652>>ASSIGN
KN_NODE#
     10843**DCL     12387>>IF      12422>>IF      12515>>ASSIGN  12543>>ASSIGN  12590>>ASSIGN  12673>>ASSIGN
LINK#
     10446**DCL     12401<<ASSIGN  12525<<ASSIGN  12526>>ASSIGN  12526>>ASSIGN  12679<<ASSIGN  12680>>ASSIGN
     12680>>ASSIGN
LINK$
     10444**DCL     11719--IMP-PTR 12396<<ASSIGN  12397>>IF      12397>>IF      12401>>ASSIGN  12427<<ASSIGN
     12428>>IF      12428>>IF      12428>>IF      12433>>ASSIGN  12434>>DOINDEX 12438>>ASSIGN  12446>>ASSIGN
     12653<<ASSIGN  12655>>IF      12655>>IF      12675>>ASSIGN  12678>>ASSIGN  12678>>ASSIGN
NOROUTE
     12452**LABEL   12443--GOTO    12459--GOTO    12488--GOTO
NXTJ2
     12434**LABEL   12436--GOTO
OSI_INIT
     10118**DCL     12513<<ASSIGN  12518--ASSIGN  12519--ASSIGN  12540<<ASSIGN  12547--ASSIGN  12548--ASSIGN
OSI_INIT.DEST_NODE
     10139**DCL     12514<<ASSIGN  12541<<ASSIGN
OSI_INIT.DST_NSAP
     10170**DCL     12516<<ASSIGN  12544<<ASSIGN
OSI_INIT.DST_NSAP.ADDRESS
     10179**DCL     10180--REDEF
PL6.E3A0      #001=KNN$SEND File=KNN$NETWORK.:E05TSI                             WED 07/30/97 01:04 Page:73
OSI_INIT.SOURCE_NODE
     10147**DCL     12515<<ASSIGN  12543<<ASSIGN
OSI_INIT.SRC_NSAP
     10228**DCL     12517<<ASSIGN  12545<<ASSIGN
OSI_INIT.SRC_NSAP.ADDRESS
     10237**DCL     10238--REDEF
OSI_INIT.TR_OPTIONS.TPDUSIZE
     10294**DCL     10295--REDEF
OSI_INIT_C
     10949**DCL     12513>>ASSIGN  12540>>ASSIGN
OSI_INIT_C.DST_NSAP.ADDRESS
     11010**DCL     11011--REDEF
OSI_INIT_C.SRC_NSAP.ADDRESS
     11068**DCL     11069--REDEF
OSI_INIT_C.TR_OPTIONS.TPDUSIZE
     11125**DCL     11126--REDEF
QDP_HDR
     10041**DCL     12587<<ASSIGN  12592--ASSIGN  12593--ASSIGN  12664--ASSIGN  12666<<ASSIGN
QDP_HDR.DEST_NODE
     10062**DCL     12588<<ASSIGN  12672<<ASSIGN
QDP_HDR.MSGTYP
     10042**DCL     12669<<ASSIGN  12670<<ASSIGN
QDP_HDR.SOURCE_NODE
     10068**DCL     12590<<ASSIGN  12673<<ASSIGN
QQQ$
     10448**DCL     12450<<ASSIGN  12510<<ASSIGN  12528>>ASSIGN  12549<<ASSIGN  12594<<ASSIGN  12616<<ASSIGN
     12622>>ASSIGN  12661<<ASSIGN  12682>>ASSIGN  12688>>ASSIGN
ROUTE
     10469**DCL     12377<>CALL
ROUTE.FEP#
     10509**DCL     12381>>IF      12387>>IF      12389>>IF      12389>>IF      12396>>ASSIGN  12422>>IF
ROUTE.HOST#
     10506**DCL     12493>>ASSIGN
ROUTE.LNSAP.ADDRESS_N
     10623**DCL     10624--REDEF
ROUTE.MYNODE#
PL6.E3A0      #001=KNN$SEND File=KNN$NETWORK.:E05TSI                             WED 07/30/97 01:04 Page:74
     10504**DCL     10506--REDEF
ROUTE.NODE#
     10507**DCL     10509--REDEF
ROUTE.NSAP.ADDRESS_N
     10567**DCL     10568--REDEF
ROUTE.NW_TYPE
     10498**DCL     12467>>IF
ROUTE.QOS
     10512**DCL     12381>>IF
ROUTE.SNPA
     10647**DCL     12471>>ASSIGN
ROUTE.SNPA.ADDRESS
     10654**DCL     12432>>ASSIGN
ROUTE.SNPA.LEN
     10649**DCL     12434>>DOINDEX
ROUTE$
     10443**DCL     11647--IMP-PTR 12494<<ASSIGN  12495>>IF      12495>>IF      12495>>IF      12504>>IF
     12504>>IF      12511>>ASSIGN  12524>>ASSIGN  12524>>ASSIGN  12526>>ASSIGN  12526>>ASSIGN  12553<<ASSIGN
     12554>>IF      12554>>IF      12554>>IF      12554>>IF      12561>>ASSIGN  12598<<ASSIGN  12599>>IF
     12599>>IF      12599>>IF      12599>>IF      12606>>ASSIGN  12652<<ASSIGN  12653>>ASSIGN  12680>>ASSIGN
     12680>>ASSIGN
SAVE_FPT$
     10449**DCL     12520<<ASSIGN  12529>>ASSIGN  12550<<ASSIGN  12595<<ASSIGN  12617<<ASSIGN  12621>>ASSIGN
     12639<<ASSIGN  12683>>ASSIGN  12687>>ASSIGN
SCREECH
     11640**DCL-ENT 12632--CALL    12643--CALL
SNODES
     11473**DCL     12643<>CALL
SNPATMPLT1
     10832**DCL     10833--REDEF   12432<<ASSIGN
SNPATMPLT2.NIBBLES.NIB
     10835**DCL     12435>>IF
SNPATMPLT3
     10837**DCL     10838--REDEF   12433<<ASSIGN
SNPATMPLT4.NIBBLES.NIB
     10840**DCL     12435>>IF
PL6.E3A0      #001=KNN$SEND File=KNN$NETWORK.:E05TSI                             WED 07/30/97 01:04 Page:75
SRC
     12282**DCL     12470>>ASSIGN  12517>>ASSIGN  12545>>ASSIGN
SRC.ADDRESS_N
     12314**DCL     12315--REDEF
TLINK$
     10445**DCL     12438<<ASSIGN  12448<<ASSIGN  12449>>IF      12449>>IF      12451>>IF      12462>>ASSIGN
     12463>>ASSIGN

