VERSION E05

PL6.E3A0      #001=KNN$RECVOSI File=KNN$SUBS.:E05TSI                             WED 07/30/97 01:05 Page:1
        1        1        /*M* KNN$RECVOSI - OSI network message decoder  */
        2        2        /*T***********************************************************/
        3        3        /*T*                                                         */
        4        4        /*T* Copyright (c) Bull HN Information Systems Inc., 1997    */
        5        5        /*T*                                                         */
        6        6        /*T***********************************************************/
        7        7        /*X* PLM=3,IND=3,ENU=0,ECU=0,CRM=70,CCC=YES,CSI=3,CTI=2,DCI=3,ECI=3,ENI=3,SDI=3 */
        8        8        /*P*    NAME:   KNN$RECVOSI
        9        9                PURPOSE: This module contains the procedure to decode OSI
       10       10                         network layer messages.
       11       11        */
       12       12
       13       13
       14       14        /*F*  NAME:    KNN$RECVOSI
       15       15
       16       16              PURPOSE: decode network pdus
       17       17              DESCRIPTION:
       18       18        */
       19       19
       20       20        %EJECT;
PL6.E3A0      #001=KNN$RECVOSI File=KNN$SUBS.:E05TSI                             WED 07/30/97 01:05 Page:2
       21       21        KNN$RECVOSI: PROC(KN$NETPARM) ALTRET;
       22       22
       23       23        %INCLUDE LCP_6;
       24     4302        %INCLUDE K_NETWORK_M;
       25     4571        %INCLUDE K_NETWORK_E;
       26     4660        %INCLUDE KNH_MACRO_C;
       27     4943        %INCLUDE K_ADDRESS_M;
       28     5446        %INCLUDE K_SCODE_C;
       29     5531        %INCLUDE KNN_NETWORK_M;
       30     5894        %INCLUDE KN_DATA_M;
       31     7680        %INCLUDE K_INTERFACE_M;
       32     8089        %INCLUDE KL_MACRO_C;
       33    11441        %INCLUDE KN_ERRORS_C;
       34    11505        %INCLUDE K_QDPHDRS_M;
       35    12387
       36    12388        %KN$NETPARM(NAME=KN$NETPARM,STCLASS="");
       37    12541
       38    12542    1   DCL KNN$SENDERR ENTRY(1) ALTRET;
       39    12543    1   DCL KNA$CHK_CHKSUM ENTRY(2) ALTRET;
       40    12544    1   DCL KNA$CALC_CHKSUM ENTRY(3) ALTRET;
       41    12545    1   DCL KNT$SEND_4HOST ENTRY(1) ALTRET;
       42    12546    1   DCL KNT$RECV_4HOST ENTRY(1) ALTRET;
       43    12547    1   DCL KNN$REASSEM ENTRY(3) ALTRET;
       44    12548    1   DCL KNN$DECODE_NSAP ENTRY(2) ALTRET;
       45    12549    1   DCL KNH$SEND ENTRY(1) ALTRET;
       46    12550    1   DCL SCREECH ENTRY(1);
       47    12551    1   DCL GHE$ERRLOG ENTRY(5) ALTRET;
       48    12552
       49    12553    1   DCL KNN_NODES UBIN SYMREF;
       50    12554    1   DCL KN_NODE# UBIN SYMREF;
       51    12555    1   DCL KNN_ROUTE$$ PTR SYMREF;
       52    12556    1   DCL KNN_LINKS UBIN SYMREF;
       53    12557    1   DCL KNN_LINK$$ PTR SYMREF;
       54    12558    1   DCL KNN_OSIROUTE$$ PTR SYMREF;
       55    12559    1   DCL KNN_OSIMAX# UBIN SYMREF;
       56    12560    1   DCL KNN_OSIROUTE# UBIN SYMREF;
       57    12561
PL6.E3A0      #001=KNN$RECVOSI File=KNN$SUBS.:E05TSI                             WED 07/30/97 01:05 Page:3
       58    12562        %K$NPDU_FIXED(STCLASS="BASED(KN$NETPARM.NHDR$)");
       59    12619        %K$NPDU_SEGMENT;
       60    12671        %K$NSAP(ADRTYP=NET);
       61    12723        %KNN$LINK(STCLASS="BASED(LINK$)");
       62    12974        %KNN$ROUTE(STCLASS="BASED(ROUTE$)");
       63    13046    1   DCL KNN$ROUTE$(0:0) PTR BASED(KNN_ROUTE$$);
       64    13047    1   DCL KNN$LINK$(0:0) PTR BASED(KNN_LINK$$);
       65    13048    1   DCL ADDRESS CHAR(SIZE) BASED;
       66    13049    1   DCL CHR(0:0) CHAR(1) BASED CALIGNED;
       67    13050    1   DCL CALLEDFROM$ EPTR BASED;
       68    13051
       69    13052        %K$NQDP_HDR (NAME=K$NQDP_HDR_C,MSGTYPE=OSI_DATA,ALGN=ALIGNED,STCLASS=CONSTANT);
       70    13129        %VLP_SCODE (FPTN=PRTCLERR,ERR#=%S$PRTCLERR,SEV=G_SEV_SCREECH#,
       71    13130                       STCLASS=CONSTANT,FCG=KN,MID=N,MON='1'B);
       72    13191
       73    13192        %VLP_ERRCODE(FPTN=E_DSCRD_RNS,FCG=KN,MID=N,MON='1'B,STCLASS=CONSTANT,ERR#=
             13192            %E$DSCRD_RNS);
       74    13238        /*E* ERROR: KNN-E$DSCRD_RNS
       75    13239             MESSAGE: OSI network pdu was discarded and no reason was specified.
       76    13240        */
       77    13241
       78    13242        %VLP_ERRCODE(FPTN=E_DSCRD_PPE,FCG=KN,MID=N,MON='1'B,STCLASS=CONSTANT,ERR#=
             13242            %E$DSCRD_PPE);
       79    13288        /*E* ERROR: KNN-E$DSCRD_PPE
       80    13289             MESSAGE: OSI network pdu was discarded due to a protocol procedure error
       81    13290        */
       82    13291
       83    13292        %VLP_ERRCODE(FPTN=E_DSCRD_IC,FCG=KN,MID=N,MON='1'B,STCLASS=CONSTANT,ERR#=%E$DSCRD_IC
             13292            );
       84    13338        /*E* ERROR: KNN-E$DSCRD_IC
       85    13339             MESSAGE: OSI network pdu was discarded due to an Incorrect checksum
       86    13340         */
       87    13341
       88    13342        %VLP_ERRCODE(FPTN=E_DSCRD_CONGEST,FCG=KN,MID=N,MON='1'B,STCLASS=CONSTANT,ERR#=
             13342            %E$DSCRD_CONGEST);
       89    13388        /*E* ERROR: KNN-E$DSCRD_CONGEST
       90    13389             MESSAGE: OSI network pdu was discarded due to system congestion
PL6.E3A0      #001=KNN$RECVOSI File=KNN$SUBS.:E05TSI                             WED 07/30/97 01:05 Page:4
       91    13390        */
       92    13391
       93    13392        %VLP_ERRCODE(FPTN=E_DSCRD_HDRSNTX,FCG=KN,MID=N,MON='1'B,STCLASS=CONSTANT,ERR#=
             13392            %E$DSCRD_HDRSNTX);
       94    13438        /*E* ERROR: KNN-E$DSCRD_HDRSNTX
       95    13439             MESSAGE: Syntax error in the network header; pdu was discarded.
       96    13440        */
       97    13441
       98    13442        %VLP_ERRCODE(FPTN=E_DSCRD_CANTSEG,FCG=KN,MID=N,MON='1'B,STCLASS=CONSTANT,ERR#=
             13442            %E$DSCRD_CANTSEG);
       99    13488        /*E* ERROR: KNN-E$DSCRD_CANTSEG
      100    13489             MESSAGE: segmentation needed but not permitted, pdu was discarded.
      101    13490         */
      102    13491
      103    13492        %VLP_ERRCODE(FPTN=E_DSCRD_INCMPPDU,FCG=KN,MID=N,MON='1'B,STCLASS=CONSTANT,ERR#=
             13492            %E$DSCRD_INCMPPDU);
      104    13538        /*E* ERROR: KNN-E$DSCRD_INCMPPDU
      105    13539             MESSAGE: An Incomplete pdu was received; pdu was discarded.
      106    13540        */
      107    13541
      108    13542        %VLP_ERRCODE(FPTN=E_DSCRD_DUPOPT,FCG=KN,MID=N,MON='1'B,STCLASS=CONSTANT,ERR#=
             13542            %E$DSCRD_DUPOPT);
      109    13588        /*E* ERROR: KNN-E$DSCRD_DUPOPT
      110    13589             MESSAGE: duplicate option specified, pdu discarded.
      111    13590        */
      112    13591
      113    13592        %VLP_ERRCODE(FPTN=E_DSCRD_DSTUNREACH,FCG=KN,MID=N,MON='1'B,STCLASS=CONSTANT,ERR#=
             13592            %E$DSCRD_DSTUNREACH);
      114    13638        /*E* ERROR: KNN-E$DSCRD_DSTUNREACH
      115    13639             MESSAGE: destination unreachable, pdu discarded.
      116    13640        */
      117    13641
      118    13642        %VLP_ERRCODE(FPTN=E_DSCRD_DSTUNKNWN,FCG=KN,MID=N,MON='1'B,STCLASS=CONSTANT,ERR#=
             13642            %E$DSCRD_DSTUNKNWN);
      119    13688        /*E* ERROR: KNN-E$DSCRD_DSTUNKNWN
      120    13689             MESSAGE:  destination unknown, pdu discarded.
      121    13690        */
PL6.E3A0      #001=KNN$RECVOSI File=KNN$SUBS.:E05TSI                             WED 07/30/97 01:05 Page:5
      122    13691
      123    13692        %VLP_ERRCODE(FPTN=E_DSCRD_SRCRTEERR,FCG=KN,MID=N,MON='1'B,STCLASS=CONSTANT,ERR#=
             13692            %E$DSCRD_SRCRTEERR);
      124    13738        /*E* ERROR: KNN-E$DSCRD_SRCRTEERR
      125    13739             MESSAGE: Unspecified source routing error, discard pdu.
      126    13740        */
      127    13741
      128    13742        %VLP_ERRCODE(FPTN=E_DSCRD_SRCRTESNTX,FCG=KN,MID=N,MON='1'B,STCLASS=CONSTANT,ERR#=
             13742            %E$DSCRD_SRCRTESNTX);
      129    13788        /*E* ERROR: KNN-E$DSCRD_SRCRTESNTX
      130    13789             MESSAGE: Syntax error in source routing field, pdu discarded.
      131    13790        */
      132    13791
      133    13792        %VLP_ERRCODE(FPTN=E_DSCRD_SRCRTEUNKWN,FCG=KN,MID=N,MON='1'B,STCLASS=CONSTANT,ERR#=
             13792            %E$DSCRD_SRCRTEUNKWN);
      134    13838        /*E* ERROR: KNN-E$DSCRD_SRCRTEUNKWN
      135    13839             MESSAGE: Unknown address in source routing field pdu discarded.
      136    13840        */
      137    13841
      138    13842        %VLP_ERRCODE(FPTN=E_DSCRD_PTHNOTACPT,FCG=KN,MID=N,MON='1'B,STCLASS=CONSTANT,ERR#=
             13842            %E$DSCRD_PTHNOTACPT);
      139    13888        /*E* ERROR: KNN-E$DSCRD_PTHNOTACPT
      140    13889             MESSAGE: Path was not acceptable, pdu was discarded.
      141    13890        */
      142    13891
      143    13892        %VLP_ERRCODE(FPTN=E_DSCRD_LIFEEXPTRAN,FCG=KN,MID=N,MON='1'B,STCLASS=CONSTANT,ERR#=
             13892            %E$DSCRD_LIFEEXPTRAN);
      144    13938        /*E* ERROR: KNN-E$DSCRD_LIFEEXPTRAN
      145    13939             MESSAGE:  Lifetime expired in transit, pdu was discarded.
      146    13940        */
      147    13941
      148    13942        %VLP_ERRCODE(FPTN=E_DSCRD_LIFEEXPASSM,FCG=KN,MID=N,MON='1'B,STCLASS=CONSTANT,ERR#=
             13942            %E$DSCRD_LIFEEXPASSM);
      149    13988        /*E* ERROR: KNN-E$DSCRD_LIFEEXPASSM
      150    13989             MESSAGE: Lifetime expired during assembly, pdu was discarded.
      151    13990        */
      152    13991
PL6.E3A0      #001=KNN$RECVOSI File=KNN$SUBS.:E05TSI                             WED 07/30/97 01:05 Page:6
      153    13992        %VLP_ERRCODE(FPTN=E_DSCRD_OPTNON,FCG=KN,MID=N,MON='1'B,STCLASS=CONSTANT,ERR#=
             13992            %E$DSCRD_OPTNON);
      154    14038        /*E* ERROR: KNN-E$DSCRD_OPTNON
      155    14039             MESSAGE:  Unsupported option specified, pdu was discarded.
      156    14040        */
      157    14041
      158    14042        %VLP_ERRCODE(FPTN=E_DSCRD_OPTPRCLVERS,FCG=KN,MID=N,MON='1'B,STCLASS=CONSTANT,ERR#=
             14042            %E$DSCRD_OPTPRCLVERS);
      159    14088        /*E* ERROR: KNN-E$DSCRD_OPTPRCLVERS
      160    14089             MESSAGE: * Unsupported protocol version specified, pdu was discarded.
      161    14090        */
      162    14091
      163    14092        %VLP_ERRCODE(FPTN=E_DSCRD_OPTSEC,FCG=KN,MID=N,MON='1'B,STCLASS=CONSTANT,ERR#=
             14092            %E$DSCRD_OPTSEC);
      164    14138        /*E* ERROR: KNN-E$DSCRD_OPTSEC
      165    14139             MESSAGE:  Unsupported security option, pdu discarded.
      166    14140        */
      167    14141
      168    14142        %VLP_ERRCODE(FPTN=E_DSCRD_OPTSRCRTE,FCG=KN,MID=N,MON='1'B,STCLASS=CONSTANT,ERR#=
             14142            %E$DSCRD_OPTSRCRTE);
      169    14188        /*E* ERROR: KNN-E$DSCRD_OPTSRCRTE
      170    14189             MESSAGE:  Unsupported Source routing option, pdu discarded
      171    14190        */
      172    14191
      173    14192        %VLP_ERRCODE(FPTN=E_DSCRD_OPTRECRTE,FCG=KN,MID=N,MON='1'B,STCLASS=CONSTANT,ERR#=
             14192            %E$DSCRD_OPTRECRTE);
      174    14238        /*E* ERROR: KNN-E$DSCRD_OPTRECRTE
      175    14239             MESSAGE:  Unsupported record route option, pdu discarded.
      176    14240        */
      177    14241
      178    14242        %VLP_ERRCODE(FPTN=E_DSCRD_REASSEM,FCG=KN,MID=N,MON='1'B,STCLASS=CONSTANT,ERR#=
             14242            %E$DSCRD_REASSEM);
      179    14288        /*E* ERROR: KNN-E$DSCRD_REASSEM
      180    14289             MESSAGE: Reassembly interface error, pdu discarded.
      181    14290        */
      182    14291
      183    14292        %K$NSAP(FPTN=DESTINATION,STCLASS=AUTO,ADRTYP=NET);
PL6.E3A0      #001=KNN$RECVOSI File=KNN$SUBS.:E05TSI                             WED 07/30/97 01:05 Page:7
      184    14344        %K$NSAP(FPTN=SOURCE,STCLASS=AUTO,ADRTYP=NET);
      185    14396        %LIST;
      186    14397        %FPT_NSAP(STCLASS=AUTO);
             14398        %LSET LISTDIR='0'B;
             14411    1   DCL 1 FPT_NSAP AUTO ALIGNED,
             14434    1        2 NSAP CALIGNED,
             14436    1     3 LEN UBIN BYTE CALIGNED /*(0)*/,
             14441    1     3 AFI UBIN BYTE UNAL /*(0)*/,
             14464    1        3 ADDRESS_N(0:19) CALIGNED UBIN(8) /*(0*0)*/,
             14465    1        3 ADDRESS REDEF ADDRESS_N CHAR(20) CALIGNED ;
      187    14469        %PLIST;
      188    14470        %K$NPDU_SEGMENT(NAME=SEGMENT,STCLASS=AUTO);
      189    14522        %KL_UPDOSI(FPTN=SRCROUTE,STCLASS=AUTO);/* node#,link# of src address*/
      190    14731        %KL_UPDOSI(FPTN=DSTROUTE,STCLASS=AUTO);/* node#,link# of dst address*/
      191    14940        %K$NQDP_HDR (NAME=NQDP_HDR,MSGTYPE=OSI_DATA,ALGN=ALIGNED,STCLASS=AUTO);
      192    15017
      193    15018        %VLP_ERRCODE(FPTN=ERR_CODE,STCLASS=AUTO);
      194    15064
      195    15065    1   DCL SIZE UBIN;
      196    15066    1   DCL OPTSZ UBIN BYTE;
      197    15067    1   DCL OPTVAL UBIN BYTE;
      198    15068    1   DCL DATASIZE SBIN;
      199    15069    1   DCL FIXEDSIZ UBIN;
      200    15070    1   DCL SEGLENGTH UBIN;
      201    15071    1   DCL D$ PTR;
      202    15072    1   DCL QQQ$ PTR;
      203    15073    1   DCL SAVE_FPT$ PTR;
      204    15074    1   DCL LINK$ PTR;
      205    15075    1   DCL ROUTE$ PTR;
      206    15076    1   DCL CURINDX UBIN;                       /*  is index into npdu      */
      207    15077    1   DCL DSTINDX UBIN; /* index into k$npdu_fixed to destination address + 1 */
      208    15078    1   DCL SRCINDX UBIN;                       /* source address index     */
      209    15079    1   DCL CODE UBIN BYTE;                     /* options code in pdu      */
      210    15080    1   DCL LI SBIN;                       /* decreasing header byte count  */
      211    15081    1   DCL I UBIN;
      212    15082    1   DCL J UBIN;
      213    15083    1   DCL ERRVAL(0:3) UBIN;                   /* values for errlogger     */
PL6.E3A0      #001=KNN$RECVOSI File=KNN$SUBS.:E05TSI                             WED 07/30/97 01:05 Page:8
      214    15084        /*
      215    15085             use these to keep worst case code from being generated.
      216    15086        */
      217    15087    1   DCL SNPATMPLT1 CHAR(8) ALIGNED;
      218    15088    1   DCL 1 SNPATMPLT2 REDEF SNPATMPLT1 ALIGNED,
      219    15089    1          2 NIBBLES(0:13) UNAL,
      220    15090    1             3 NIB UBIN(4) UNAL;
      221    15091
      222    15092    1   DCL SNPATMPLT3 CHAR(8) ALIGNED;
      223    15093    1   DCL 1 SNPATMPLT4 REDEF SNPATMPLT3 ALIGNED,
      224    15094    1          2 NIBBLES(0:13) UNAL,
      225    15095    1             3 NIB UBIN(4) UNAL;
      226    15096
      227    15097        %EJECT;
PL6.E3A0      #001=KNN$RECVOSI File=KNN$SUBS.:E05TSI                             WED 07/30/97 01:05 Page:9
      228    15098
      229    15099    1      QQQ$ = KN$NETPARM.LDCT$;
      230    15100    1      SAVE_FPT$ = KN$NETPARM.FPT$;
      231    15101    1      KN$NETPARM.FPT$ = ADDR(NIL);
      232    15102    1      SIZE = KN$NETPARM.NHDRSZ;
      233    15103    1      IF SIZE = 0 THEN RETURN;
      234    15104
      235    15105    1      IF SIZE < LENGTHC(K$NPDU_FIXED) THEN
      236    15106    1         CALL SCREECH(PRTCLERR);
      237    15107
      238    15108    1      LI = K$NPDU_FIXED.LENGTH;
      239    15109    1      IF LI > SIZE THEN
      240    15110    1         CALL SCREECH(PRTCLERR);
      241    15111
      242    15112    1      ERRVAL(3) = K$NPDU_FIXED.TYPE;       /* for the errlogger        */
      243    15113
      244    15114    1      SEGLENGTH = K$NPDU_FIXED.SEGLENX*256 + K$NPDU_FIXED.SEGLENY;
      245    15115    1      IF SIZE ~= SEGLENGTH THEN
      246    15116    1         CALL SCREECH(PRTCLERR);
      247    15117
      248    15118    1      DATASIZE = SEGLENGTH - LI;
      249    15119    1      LI = LI - LENGTHC(K$NPDU_FIXED);
      250    15120    1      FIXEDSIZ = LENGTHC(K$NPDU_FIXED);
      251    15121    1      CURINDX = FIXEDSIZ;
      252    15122
      253    15123    1      ADDR(DESTINATION.LEN)->CHR(0) = SUBSTR(ADDR(K$NPDU_FIXED)->ADDRESS,CURINDX,1);
      254    15124    1      IF DESTINATION.LEN > LI THEN
      255    15125    1         CALL SCREECH(PRTCLERR);
      256    15126
      257    15127    1      D$ = ADDR(DESTINATION);
      258    15128    1      DSTINDX = CURINDX + 1; /* save the start of the destination address */
      259    15129    2      DO I = 1 TO DESTINATION.LEN;
      260    15130    2         SUBSTR(D$->ADDRESS,I,1) = SUBSTR(ADDR(K$NPDU_FIXED)->ADDRESS,CURINDX+I,1);
      261    15131    2         END;
      262    15132    1      CURINDX = CURINDX + I;
      263    15133
      264    15134    1      LI = LI - (DESTINATION.LEN+1);
PL6.E3A0      #001=KNN$RECVOSI File=KNN$SUBS.:E05TSI                             WED 07/30/97 01:05 Page:10
      265    15135
      266    15136    1      ADDR(SOURCE.LEN)->CHR(0) = SUBSTR(ADDR(K$NPDU_FIXED)->ADDRESS,CURINDX,1);
      267    15137    1      SRCINDX = CURINDX+1;  /* save the start of the source address    */
      268    15138
      269    15139    1      IF SOURCE.LEN > LI THEN
      270    15140    1         CALL SCREECH(PRTCLERR);
      271    15141
      272    15142    1      D$ = ADDR(SOURCE);
      273    15143    2      DO I = 1 TO SOURCE.LEN;
      274    15144    2         SUBSTR(D$->ADDRESS,I,1) = SUBSTR(ADDR(K$NPDU_FIXED)->ADDRESS,CURINDX+I,1);
      275    15145    2         END;
      276    15146
      277    15147    1      CURINDX = CURINDX + I;
      278    15148
      279    15149    1      LI = LI - (SOURCE.LEN+1);
      280    15150
      281    15151        /*
      282    15152             The address are now ready to use.  From now on we can send error pdus
      283    15153             set up netparm to send errcode.
      284    15154        */
      285    15155
      286    15156
      287    15157    1      KN$NETPARM.DST_ADDR$ = ADDR(DESTINATION);
      288    15158    1      KN$NETPARM.SRC_ADDR$ = ADDR(SOURCE);
      289    15159
      290    15160    1      IF K$NPDU_FIXED.PROTOCOLID ~= %K_PRTCL_ID OR
      291    15161    2        K$NPDU_FIXED.VERSION ~= %K_PRTCL_ID_EXT THEN DO;
      292    15162    2         KN$NETPARM.ERRCODE = %K_DSCRD_HDRSNTX;
      293    15163    2         ERR_CODE = E_DSCRD_HDRSNTX;
      294    15164    2         GOTO ERR;
      295    15165    2         END;
      296    15166
      297    15167    2      IF K$NPDU_FIXED.CHECKSUMX ~= 0 OR K$NPDU_FIXED.CHECKSUMY ~= 0 THEN DO;
      298    15168    2         I = K$NPDU_FIXED.LENGTH;
      299    15169    3         CALL KNA$CHK_CHKSUM(ADDR(K$NPDU_FIXED),I) WHENALTRETURN DO;
      300    15170    3            KN$NETPARM.ERRCODE = %K_DSCRD_IC;
      301    15171    3            ERR_CODE = E_DSCRD_IC;
PL6.E3A0      #001=KNN$RECVOSI File=KNN$SUBS.:E05TSI                             WED 07/30/97 01:05 Page:11
      302    15172    3            GOTO ERR;
      303    15173    3            END;
      304    15174    2         END;
      305    15175
      306    15176    2      IF K$NPDU_FIXED.MS AND K$NPDU_FIXED.SP = '0'B THEN DO;
      307    15177    2         KN$NETPARM.ERRCODE = %K_DSCRD_CANTSEG;
      308    15178    2         ERR_CODE = E_DSCRD_CANTSEG;
      309    15179    2         GOTO ERR;
      310    15180    2         END;
      311    15181
      312    15182    2      IF K$NPDU_FIXED.SP = '0'B THEN DO;
      313    15183    2         SEGMENT.TOTLEN = SEGLENGTH;
      314    15184    2         SEGMENT.DATAID = 0;
      315    15185    2         SEGMENT.OFFSET = 0;
      316    15186    2         END;
      317    15187    2      ELSE DO;
      318    15188    3         IF LI < LENGTHC(K$NPDU_SEGMENT) THEN DO;
      319    15189    3            KN$NETPARM.ERRCODE = %K_DSCRD_HDRSNTX;
      320    15190    3            ERR_CODE = E_DSCRD_HDRSNTX;
      321    15191    3            GOTO ERR;
      322    15192    3            END;
      323    15193
      324    15194        /*
      325    15195             segment part at this point has got to be present.  otherwise we would have
      326    15196             returned.
      327    15197        */
      328    15198    3         DO I = 0 TO LENGTHC(K$NPDU_SEGMENT)-1;
      329    15199    3            SUBSTR(ADDR(SEGMENT.DATAID)->ADDRESS,I,1) = SUBSTR(ADDR(K$NPDU_FIXED)->
             15199                     ADDRESS,CURINDX+I,1);
      330    15200    3            END;
      331    15201    2         CURINDX = LENGTHC(K$NPDU_SEGMENT);
      332    15202    2         LI = LI - LENGTHC(SEGMENT);
      333    15203    2         END;
      334    15204
      335    15205    2      IF K$NPDU_FIXED.LIFETIME = 0 THEN DO;
      336    15206    2         KN$NETPARM.ERRCODE = %K_DSCRD_LIFEEXPTRAN;
      337    15207    2         ERR_CODE = E_DSCRD_LIFEEXPTRAN;
PL6.E3A0      #001=KNN$RECVOSI File=KNN$SUBS.:E05TSI                             WED 07/30/97 01:05 Page:12
      338    15208    2         GOTO ERR;
      339    15209    2         END;
      340    15210
      341    15211        /*
      342    15212             parse the options.
      343    15213        */
      344    15214
      345    15215
      346    15216    2      DO WHILE LI > 2;
      347    15217    2         ADDR(CODE)->CHR(0) = SUBSTR(ADDR(K$NPDU_FIXED)->ADDRESS,CURINDX,1);
      348    15218    2         CURINDX = CURINDX + 1;
      349    15219    2         ADDR(OPTSZ)->CHR(0) = SUBSTR(ADDR(K$NPDU_FIXED)->ADDRESS,CURINDX,1);
      350    15220    2         CURINDX = CURINDX + 1;
      351    15221    2         LI = LI-2-OPTSZ;
      352    15222    3         IF LI < 0 THEN DO;
      353    15223    3            KN$NETPARM.ERRCODE = %K_DSCRD_HDRSNTX;
      354    15224    3            ERR_CODE = E_DSCRD_HDRSNTX;
      355    15225    3            GOTO ERR;
      356    15226    3            END;
      357    15227
      358    15228    3         DO CASE(CODE);
      359    15229
      360    15230    3            CASE(%K_NPRM_PAD); /* pad characters to get header to a byte boundry*/
      361    15231
      362    15232    3            CASE(%K_NPRM_SEC);             /* security                 */
      363    15233    3            KN$NETPARM.ERRCODE = %K_DSCRD_OPTSEC;
      364    15234    3            ERR_CODE = E_DSCRD_OPTSEC;
      365    15235    3            GOTO ERR;
      366    15236
      367    15237    3            CASE(%K_NPRM_SRCRTE);          /* source routing           */
      368    15238    3            ADDR(OPTVAL)->CHR(0) = SUBSTR(ADDR(K$NPDU_FIXED)->ADDRESS,CURINDX,1);
      369    15239        /*
      370    15240                partial source routing options are accepted but not implemented.
      371    15241                complete source routing pdus are discarded.
      372    15242        */
      373    15243    4            IF OPTVAL ~= %K_NPRM_SRCRTE_PSR THEN DO;
      374    15244    4               KN$NETPARM.ERRCODE = %K_DSCRD_OPTSRCRTE;
PL6.E3A0      #001=KNN$RECVOSI File=KNN$SUBS.:E05TSI                             WED 07/30/97 01:05 Page:13
      375    15245    4               ERR_CODE = E_DSCRD_OPTSRCRTE;
      376    15246    4               GOTO ERR;
      377    15247    4               END;
      378    15248
      379    15249    3            CASE(%K_NPRM_RECRTE);          /* record route             */
      380    15250    3            ADDR(OPTVAL)->CHR(0) = SUBSTR(ADDR(K$NPDU_FIXED)->ADDRESS,CURINDX,1);
      381    15251    4            IF OPTVAL ~= %K_NPRM_RECRTE_PRR THEN DO;
      382    15252    4               KN$NETPARM.ERRCODE = %K_DSCRD_OPTRECRTE;
      383    15253    4               ERR_CODE = E_DSCRD_OPTRECRTE;
      384    15254    4               GOTO ERR;
      385    15255    4               END;
      386    15256
      387    15257    3            CASE(%K_NPRM_QOS);
      388    15258
      389    15259    3            CASE(%K_NPRM_PRIO);
      390    15260
      391    15261    3            CASE(ELSE);
      392    15262    3            KN$NETPARM.ERRCODE = %K_DSCRD_OPTNON;
      393    15263    3            ERR_CODE = E_DSCRD_OPTNON;
      394    15264    3            GOTO ERR;
      395    15265
      396    15266    3            END;                           /* case                     */
      397    15267    2         CURINDX = CURINDX + OPTSZ;
      398    15268    2         END;                              /* do while                 */
      399    15269    1      KN$NETPARM.THDRSZ = KN$NETPARM.NHDRSZ - K$NPDU_FIXED.LENGTH;
      400    15270    1      KN$NETPARM.THDR_C$ = PINCRC(KN$NETPARM.NHDR$,K$NPDU_FIXED.LENGTH);
      401    15271        /*
      402    15272          the message is now ready to be routed.  If this is the first hop from a host
      403    15273          node then transport has to be called to allow transport to complete its
      404    15274          context.  If it is the last hop before a host node transport must again be called.
      405    15275          Other cases are as follows:
      406    15276             if destination address is x121
      407    15277                search osiaddress list
      408    15278                if address is present get node/link#s.
      409    15279                   if node is our node
      410    15280                      build fpt
      411    15281                      call knh$send.
PL6.E3A0      #001=KNN$RECVOSI File=KNN$SUBS.:E05TSI                             WED 07/30/97 01:05 Page:14
      412    15282                   else
      413    15283                      find route
      414    15284                      if route available forward;else error noroute.
      415    15285                else search the link laddr list
      416    15286                   if addr present then
      417    15287                      get dstnode# out of dsp.
      418    15288                      if dstnode# our node# then call transport.
      419    15289                      else if dstnode# is link and host call recv4_host
      420    15290                           get route
      421    15291                           call knh$send
      422    15292                   else
      423    15293                      error(noroute)
      424    15294                else if cp6 addr and not type fep then send error(noroute)
      425    15295                     else
      426    15296                         get dstnode#
      427    15297                         if route available call knh$send.
      428    15298        */
      429    15299    2      CALL KNN$DECODE_NSAP(SOURCE,SRCROUTE) WHENALTRETURN DO;
      430    15300    2         RETURN;                 /* discard invalid source address     */
      431    15301    2         END;
      432    15302
      433    15303    1      KN$NETPARM.RECTYPE = K$NPDU_FIXED.LENGTH;
             15303               /* send full network header on error pdu */
      434    15304    2      CALL KNN$DECODE_NSAP(DESTINATION,DSTROUTE) WHENALTRETURN DO;
      435    15305    2         KN$NETPARM.ERRCODE = %K_DSCRD_DSTUNKNWN;
      436    15306    2         ERR_CODE = E_DSCRD_DSTUNKNWN;
      437    15307    2         GOTO ERR;
      438    15308    2         END;
      439    15309
      440    15310
      441    15311    2      IF DSTROUTE.FEP# > KNN_NODES THEN DO;
      442    15312    2         KN$NETPARM.ERRCODE = %K_DSCRD_DSTUNKNWN;
      443    15313    2         ERR_CODE = E_DSCRD_DSTUNKNWN;
      444    15314    2         GOTO ERR;
      445    15315    2         END;
      446    15316
      447    15317    2      IF DSTROUTE.QOS = 255 AND DSTROUTE.FEP# ~= KN_NODE# THEN DO;
PL6.E3A0      #001=KNN$RECVOSI File=KNN$SUBS.:E05TSI                             WED 07/30/97 01:05 Page:15
      448    15318    2         KN$NETPARM.ERRCODE = %K_DSCRD_DSTUNREACH;
      449    15319    2         ERR_CODE = E_DSCRD_DSTUNREACH;
      450    15320    2         GOTO ERR;
      451    15321    2         END;
      452    15322
      453    15323        /*
      454    15324             if both the source and destination nodes are link connected and host nodes
      455    15325             then do not call transport, do not pass go and do not collect $200.  Instead
      456    15326             send the message as is.
      457    15327        */
      458    15328    1      IF DSTROUTE.NS_TYPE = %K_TYPE_LNSAP AND
      459    15329    1        SRCROUTE.NS_TYPE = %K_TYPE_LNSAP AND
      460    15330    1        DSTROUTE.FEP# = SRCROUTE.FEP# AND
      461    15331    2        DSTROUTE.HOST# < KNN_NODES AND SRCROUTE.HOST# < KNN_NODES THEN DO;
      462    15332                                                /* no transport needed      */
      463    15333    2         IF KNN$ROUTE$(DSTROUTE.HOST#)->KNN$ROUTE.FLAGS.HOST_NODE
      464    15334    3           AND KNN$ROUTE$(SRCROUTE.HOST#)->KNN$ROUTE.FLAGS.HOST_NODE THEN DO;
      465    15335    3            ROUTE$ = KNN$ROUTE$(DSTROUTE.FEP#);
      466    15336    3            LINK$ = KNN$ROUTE.LINK$;
      467    15337    4            IF KNN$ROUTE.LINK$ = ADDR(NIL) OR KNN$LINK.LDCT$ = ADDR(NIL) THEN DO;
      468    15338    4               KN$NETPARM.ERRCODE = %K_DSCRD_DSTUNREACH;
      469    15339    4               ERR_CODE = E_DSCRD_DSTUNREACH;
      470    15340    4               GOTO ERR;
      471    15341    4               END;
      472    15342    3            KN$NETPARM.FPT$ = ADDR(NIL);
      473    15343    3            KN$NETPARM.LDCT$ = KNN$LINK.LDCT$;
      474    15344    3            CALL FORWARD ALTRET(ERR2);
      475    15345    3            GOTO EXITOSINET;
      476    15346    3            END;
      477    15347    2         END;                              /* src.fep# = dst.fep#      */
      478    15348
      479    15349        /*
      480    15350             if the destination node# is our node and the address was in the ositable
      481    15351             then this message is to be forwared to that link.
      482    15352        */
      483    15353
      484    15354
PL6.E3A0      #001=KNN$RECVOSI File=KNN$SUBS.:E05TSI                             WED 07/30/97 01:05 Page:16
      485    15355    2      IF DSTROUTE.FEP# = KN_NODE# THEN DO;
      486    15356        /*
      487    15357             check the pdu type if it is data forward it to the correct node.
      488    15358             if it is an error pdu generate an errorlog entry for it.
      489    15359             if it is those one of the amazing dynamic routing pdu discard it.
      490    15360        */
      491    15361    3         IF K$NPDU_FIXED.TYPE ~= %K_DT_PDU THEN DO;
      492    15362    4            IF K$NPDU_FIXED.TYPE = %K_ER_PDU THEN DO;
      493    15363    4               SUBSTR(ADDR(I)->ADDRESS,0,2) = SUBSTR(ADDR(K$NPDU_FIXED)->ADDRESS,
             15363                        CURINDX,2);
      494    15364    4               CURINDX = CURINDX + 2;      /* size of errcode field    */
      495    15365    4               SIZE = MINIMUM(CURINDX,KN$NETPARM.NHDRSZ);
      496    15366    5               DO CASE (I);
      497    15367    5                  CASE(%K_DSCRD_RNS);      /* Reason not specified     */
      498    15368    5                  ERR_CODE = E_DSCRD_RNS;
      499    15369    5                  CASE(%K_DSCRD_PPE);      /* Protocol procedure error */
      500    15370    5                  ERR_CODE = E_DSCRD_PPE;
      501    15371    5                  CASE(%K_DSCRD_IC);       /* Incorrect checksum       */
      502    15372    5                  ERR_CODE = E_DSCRD_IC;
      503    15373    5                  CASE(%K_DSCRD_CONGEST); /* Pdu discarded due to congestion */
      504    15374    5                  ERR_CODE = E_DSCRD_CONGEST;
      505    15375    5                  CASE(%K_DSCRD_HDRSNTX);  /* Pdu header syntax error  */
      506    15376    5                  ERR_CODE = E_DSCRD_HDRSNTX;
      507    15377    5                  CASE(%K_DSCRD_CANTSEG); /* Segmentation needed but not permitted */
      508    15378    5                  ERR_CODE = E_DSCRD_CANTSEG;
      509    15379    5                  CASE(%K_DSCRD_INCMPPDU); /* Incomlete pdu received   */
      510    15380    5                  ERR_CODE = E_DSCRD_INCMPPDU;
      511    15381    5                  CASE(%K_DSCRD_DUPOPT);   /* Duplicate option         */
      512    15382    5                  ERR_CODE = E_DSCRD_DUPOPT;
      513    15383    5                  CASE(%K_DSCRD_DSTUNREACH); /* Destination reachable  */
      514    15384    5                  ERR_CODE = E_DSCRD_DSTUNREACH;
      515    15385    5                  CASE(%K_DSCRD_DSTUNKNWN); /* Destination unknown*/
      516    15386    5                  ERR_CODE = E_DSCRD_DSTUNKNWN;
      517    15387    5                  CASE(%K_DSCRD_SRCRTEERR); /* Unspecifed source routing error*/
      518    15388    5                  ERR_CODE = E_DSCRD_SRCRTEERR;
      519    15389    5                  CASE(%K_DSCRD_SRCRTESNTX); /* Syntax error in source routing field */
      520    15390    5                  ERR_CODE = E_DSCRD_SRCRTESNTX;
PL6.E3A0      #001=KNN$RECVOSI File=KNN$SUBS.:E05TSI                             WED 07/30/97 01:05 Page:17
      521    15391    5                  CASE(%K_DSCRD_SRCRTEUNKWN);
             15391                           /* Unknown address in source routing field */
      522    15392    5                  ERR_CODE = E_DSCRD_SRCRTEUNKWN;
      523    15393    5                  CASE(%K_DSCRD_PTHNOTACPT); /* Path not acceptable*/
      524    15394    5                  ERR_CODE = E_DSCRD_PTHNOTACPT;
      525    15395    5                  CASE(%K_DSCRD_LIFEEXPTRAN); /* Lifetime expired in transit*/
      526    15396    5                  ERR_CODE = E_DSCRD_LIFEEXPTRAN;
      527    15397    5                  CASE(%K_DSCRD_LIFEEXPASSM); /* Lifetime expired during assembly */
      528    15398    5                  ERR_CODE = E_DSCRD_LIFEEXPASSM;
      529    15399    5                  CASE(%K_DSCRD_OPTNON); /* Unsupported option not specified */
      530    15400    5                  ERR_CODE = E_DSCRD_OPTNON;
      531    15401    5                  CASE(%K_DSCRD_OPTPRCLVERS); /* Unsupported protocol version*/
      532    15402    5                  ERR_CODE = E_DSCRD_OPTPRCLVERS;
      533    15403    5                  CASE(%K_DSCRD_OPTSEC); /* Unsupported security option*/
      534    15404    5                  ERR_CODE = E_DSCRD_OPTSEC;
      535    15405    5                  CASE(%K_DSCRD_OPTSRCRTE); /* Unsupported source routing option*/
      536    15406    5                  ERR_CODE = E_DSCRD_OPTSRCRTE;
      537    15407    5                  CASE(%K_DSCRD_OPTRECRTE); /* Unsupported recording route option*/
      538    15408    5                  ERR_CODE = E_DSCRD_OPTRECRTE;
      539    15409    5                  CASE(%K_DSCRD_REASSEM);  /* Reassembly interface     */
      540    15410    5                  ERR_CODE = E_DSCRD_REASSEM;
      541    15411    5                  CASE(ELSE);
      542    15412    5                  ERR_CODE = E_DSCRD_RNS;
      543    15413    5                  END;                     /* do case (err_code)*/
      544    15414    4               ADDR(ERRVAL(0))->CALLEDFROM$ = ENTADDR(KNN$RECVOSI);
      545    15415    4               CALL GHE$ERRLOG(ERR_CODE,ERRVAL,K$NPDU_FIXED,SIZEC(K$NPDU_FIXED),'0'B);
      546    15416    4               GOTO EXITOSINET;
      547    15417    4               END;
      548    15418    3            ELSE
      549    15419    4               IF K$NPDU_FIXED.TYPE ~= %K_ESH_PDU OR K$NPDU_FIXED.TYPE ~= %K_ISH_PDU
             15419                        THEN DO;
      550    15420    4                  KN$NETPARM.ERRCODE = %K_DSCRD_HDRSNTX;
      551    15421    4                  ERR_CODE = E_DSCRD_HDRSNTX;
      552    15422    4                  GOTO ERR;
      553    15423    4                  END;
      554    15424
      555    15425    3            END;
PL6.E3A0      #001=KNN$RECVOSI File=KNN$SUBS.:E05TSI                             WED 07/30/97 01:05 Page:18
      556    15426
      557    15427    3         IF DSTROUTE.NS_TYPE = %K_TYPE_LNSAP THEN DO;
      558    15428        /*
      559    15429             the destination address is one of our addresses.  make sure that the
      560    15430             destination node specified is a host and that it is link connected
      561    15431        */
      562    15432    3            IF DSTROUTE.HOST# > KNN_NODES
      563    15433    3              OR NOT KNN$ROUTE$(DSTROUTE.HOST#)->KNN$ROUTE.FLAGS.LINK_CONNECTED
      564    15434    3              OR NOT KNN$ROUTE$(DSTROUTE.HOST#)->KNN$ROUTE.FLAGS.HOST_NODE
      565    15435    3              OR DSTROUTE.QOS = 255
      566    15436    3              OR KNN$ROUTE$(DSTROUTE.HOST#)->KNN$ROUTE.LINK$ = ADDR(NIL)
      567    15437    3              OR KNN$ROUTE$(DSTROUTE.HOST#)->KNN$ROUTE.LINK$->KNN$LINK.LDCT$ = ADDR(NIL
             15437                       )
      568    15438    4            THEN DO;
      569    15439    4               KN$NETPARM.ERRCODE = %K_DSCRD_DSTUNREACH;
      570    15440    4               ERR_CODE = E_DSCRD_DSTUNREACH;
      571    15441    4               GOTO ERR;
      572    15442    4               END;
      573    15443
      574    15444    3            KN$NETPARM.FUNCTION = %K_NDATA;
      575    15445    4            IF K$NPDU_FIXED.MS = '0'B AND SEGMENT.TOTLEN = SEGLENGTH THEN DO;
      576    15446    4               KN$NETPARM.NODE = DSTROUTE.HOST#;
      577    15447    5               CALL KNT$RECV_4HOST(KN$NETPARM) WHENRETURN DO;
      578    15448    5                  KN$NETPARM.THDRSZ = 0;
      579    15449    5                  END;
      580    15450    5               WHENALTRETURN DO;
      581    15451    5                  IF KN$NETPARM.ERRCODE ~= 0 THEN GOTO ERR2; /*altret*/
      582    15452    5                  ELSE                /* message buffered by trans     */
      583    15453    5                     GOTO EXITOSINET;
      584    15454    5                  END;
      585    15455    4               KN$NETPARM.LDCT$ = KNN$ROUTE$(DSTROUTE.HOST#)->KNN$ROUTE.LINK$->KNN$LINK
             15455                        .LDCT$;
      586    15456    4               NQDP_HDR = K$NQDP_HDR_C;
      587    15457    4               NQDP_HDR.DEST_NODE = DSTROUTE.HOST#+1;
      588    15458    4               NQDP_HDR.SOURCE_NODE = SRCROUTE.FEP#+1;
      589    15459    4               KN$NETPARM.NHDR$ = ADDR(NQDP_HDR);
      590    15460    4               KN$NETPARM.NHDRSZ = LENGTHC(NQDP_HDR);
PL6.E3A0      #001=KNN$RECVOSI File=KNN$SUBS.:E05TSI                             WED 07/30/97 01:05 Page:19
      591    15461    4               KN$NETPARM.UHDRSZ = 0;
      592    15462    4               KN$NETPARM.LDCT$ = KNN$ROUTE$(DSTROUTE.HOST#)->KNN$ROUTE.LINK$->KNN$LINK
             15462                        .LDCT$;
      593    15463    4               CALL FORWARD ALTRET(ERR2);
      594    15464    4               GOTO EXITOSINET;
      595    15465    4               END;
      596    15466    4            ELSE DO;
      597    15467    4               KN$NETPARM.NODE = DSTROUTE.HOST#;
      598    15468    5               CALL KNN$REASSEM(KN$NETPARM,DSTROUTE,SRCROUTE) WHENALTRETURN DO;
      599    15469    5                  IF KN$NETPARM.ERRCODE = 0 THEN
      600    15470        /*
      601    15471           message complete and delivered to transport and forwarded to the host.
      602    15472        */
      603    15473    5                     GOTO EXITOSINET;
      604    15474    5                  IF KN$NETPARM.ERRCODE = %K_DSCRD_REASSEM THEN
      605    15475    5                     ERR_CODE = E_DSCRD_REASSEM;
      606    15476    5                  ELSE
      607    15477    5                     ERR_CODE = E_DSCRD_CANTSEG;
      608    15478    5                  GOTO ERR;
      609    15479    5                  END;
      610    15480    4               END;
      611    15481    3            END;                           /* if dstforhost            */
      612    15482    3         ELSE DO;                          /* else type = rnsap        */
      613    15483             /*
      614    15484             search vc list for a currently active connection
      615    15485             */
      616    15486    4            DO J = 0 TO KNN_LINKS - 1;
      617    15487    4               LINK$ = KNN$LINK$(J);
      618    15488    4               IF KNN$LINK.FLAGS.VIRCIR
      619    15489    4                 AND KNN$LINK.NODE# >= %K_CNC_IS#
      620    15490    5                 AND DSTROUTE.SNPA.LEN = KNN$LINK.SNPA.LEN THEN DO;
      621    15491    5                  SNPATMPLT1 = DSTROUTE.SNPA.ADDRESS;
      622    15492    5                  SNPATMPLT3 = KNN$LINK.SNPA.ADDRESS;
      623    15493    6                  DO I = 0 TO DSTROUTE.SNPA.LEN - 1;
      624    15494    6                     IF SNPATMPLT2.NIBBLES.NIB(I) ~= SNPATMPLT4.NIBBLES.NIB(I) THEN
      625    15495    6                        GOTO NXTJ;
      626    15496    6                     END;                  /* i = 0 to len-1           */
PL6.E3A0      #001=KNN$RECVOSI File=KNN$SUBS.:E05TSI                             WED 07/30/97 01:05 Page:20
      627    15497    5                  KN$NETPARM.LDCT$ = KNN$LINK.LDCT$;
      628    15498    5                  CALL FORWARD ALTRET(ERR2);
      629    15499    5                  GOTO EXITOSINET;
      630    15500    5                  END;                     /*  if vircir et al         */
      631    15501    4   NXTJ:       ;
      632    15502    4               END;                        /* do j = 0 to knn_links    */
      633    15503                /*
      634    15504                no vc connection currently running.  try to find a substr match
      635    15505                */
      636    15506    4            DO J = 0 TO KNN_LINKS - 1;
      637    15507    4               LINK$ = KNN$LINK$(J);
      638    15508    5               IF NOT KNN$LINK.FLAGS.VIRCIR AND KNN$LINK.NODE# >= %K_CNC_IS# THEN DO;
      639    15509    5                  SNPATMPLT1 = DSTROUTE.SNPA.ADDRESS;
      640    15510    5                  SNPATMPLT3 = KNN$LINK.SNPA.ADDRESS;
      641    15511    6                  DO I = 0 TO MINIMUM(DSTROUTE.NSAP.LEN,KNN$LINK.SNPA.LEN)-1;
      642    15512    6                     IF SNPATMPLT2.NIBBLES.NIB(I) ~= SNPATMPLT4.NIBBLES.NIB(I) THEN
      643    15513    6                        GOTO NXTJ2;
      644    15514    6                     END;             /* do i = 0 to min(len,len)-1    */
      645    15515    5                  FPT_NSAP.NSAP.LEN = DSTROUTE.SNPA.LEN;
      646    15516    5                  FPT_NSAP.NSAP.ADDRESS = DSTROUTE.SNPA.ADDRESS;
      647    15517    5                  KN$NETPARM.FPT$ = ADDR(FPT_NSAP);
      648    15518    5                  KN$NETPARM.LDCT$ = KNN$LINK.LDCT$;
      649    15519    5                  CALL FORWARD ALTRET(ERR2);
      650    15520    5                  GOTO EXITOSINET;
      651    15521    5                  END;                     /* not vc and node# > is    */
      652    15522    4   NXTJ2:      ;
      653    15523    4               END;                   /* do j = 0 to knn_links - 1     */
      654    15524    3            END;                           /* else type = rnsap        */
      655    15525    2         END;                              /* If dstnode = KN_NODE#    */
      656    15526    2      ELSE DO;                   /* message not bound for our node     */
      657    15527
      658    15528    2         ROUTE$ = KNN$ROUTE$(DSTROUTE.FEP#);
      659    15529    2         LINK$ = KNN$ROUTE.LINK$;
      660    15530
      661    15531    2         IF KNN$ROUTE.CURRENT_QOS = 255
      662    15532    3           OR KNN$ROUTE.LINK$ = ADDR(NIL) OR KNN$LINK.LDCT$ = ADDR(NIL) THEN DO;
      663    15533    3            KN$NETPARM.ERRCODE = %K_DSCRD_DSTUNREACH;
PL6.E3A0      #001=KNN$RECVOSI File=KNN$SUBS.:E05TSI                             WED 07/30/97 01:05 Page:21
      664    15534    3            ERR_CODE = E_DSCRD_DSTUNREACH;
      665    15535    3            GOTO ERR;
      666    15536    3            END;
      667    15537    2         KN$NETPARM.LDCT$ = KNN$LINK.LDCT$;
      668    15538    2         CALL FORWARD ALTRET(ERR2);
      669    15539    2         END;               /* else message not bound for this node    */
      670    15540
      671    15541    1      GOTO EXITOSINET;
      672    15542
      673    15543    1   ERR:; /* message is to be discarded and a error pdu generated if possible*/
      674    15544    1      ADDR(ERRVAL(0))->CALLEDFROM$ = ENTADDR(KNN$RECVOSI);
      675    15545    1      CALL GHE$ERRLOG(ERR_CODE,ERRVAL,K$NPDU_FIXED,SIZEC(K$NPDU_FIXED),'0'B);
      676    15546        /*
      677    15547                switch the source and destination so that senderr
      678    15548                will send the error back to the bad pdus originator
      679    15549        */
      680    15550    1      KN$NETPARM.NODE = SRCROUTE.FEP#;
      681    15551    1      KN$NETPARM.SRC_ADDR$ = ADDR(DESTINATION);
      682    15552    1      KN$NETPARM.DST_ADDR$ = ADDR(SOURCE);
      683    15553    1      CALL KNN$SENDERR(KN$NETPARM);
      684    15554
      685    15555    1   EXITOSINET:;
      686    15556    1      KN$NETPARM.RECTYPE = 0; /* was set to indicate index at which error occurred*/
      687    15557    1      KN$NETPARM.FPT$ = SAVE_FPT$;
      688    15558    1      KN$NETPARM.LDCT$ = QQQ$;
      689    15559    1      RETURN;
      690    15560
      691    15561    1   ERR2:;                                  /* dont discard message, yet*/
      692    15562    1      KN$NETPARM.LDCT$ = QQQ$;
      693    15563    1      KN$NETPARM.FPT$ = SAVE_FPT$;
      694    15564    1      KN$NETPARM.RECTYPE = 0;
      695    15565    1      ALTRETURN;
      696    15566        %EJECT;
PL6.E3A0      #001=KNN$RECVOSI File=KNN$SUBS.:E05TSI                             WED 07/30/97 01:05 Page:22
      697    15567    1   FORWARD: PROC ALTRET;
      698    15568
      699    15569    3      IF KN$NETPARM.LDCT$ = ADDR(NIL) THEN DO;
      700    15570    3         KN$NETPARM.ERRCODE = %K_DSCRD_DSTUNREACH;
      701    15571    3         ERR_CODE = E_DSCRD_DSTUNREACH;
      702    15572    3         GOTO SENDERR;
      703    15573    3         END;
      704    15574    3      CALL KNH$SEND(KN$NETPARM) WHENALTRETURN DO;
      705    15575    4         IF KN$NETPARM.ERRCODE = %KN_ERR_Q2SMALL THEN DO;
      706    15576    4            KN$NETPARM.ERRCODE = %K_DSCRD_CONGEST; /* should really seg*/
      707    15577    4            ERR_CODE = E_DSCRD_CONGEST;
      708    15578    4   SENDERR: ;
      709    15579    4            ADDR(ERRVAL(0))->CALLEDFROM$ = ENTADDR(KNN$RECVOSI);
      710    15580    4            CALL GHE$ERRLOG(ERR_CODE,ERRVAL,K$NPDU_FIXED,SIZEC(K$NPDU_FIXED),'0'B);
      711    15581    4            KN$NETPARM.NODE = SRCROUTE.FEP#;
      712    15582    4            KN$NETPARM.SRC_ADDR$ = ADDR(SOURCE);
      713    15583    4            KN$NETPARM.DST_ADDR$ = ADDR(DESTINATION);
      714    15584    4            CALL KNN$SENDERR(KN$NETPARM);
      715    15585    4            END;
      716    15586    3         ELSE
      717    15587    3            ALTRETURN;
      718    15588    3         END;                              /* whenaltreturn            */
      719    15589    2   END FORWARD;
      720    15590    1   END KNN$RECVOSI;
      721    15591        %EOD;

PL6.E3A0      #001=KNN$RECVOSI File=KNN$SUBS.:E05TSI                             WED 07/30/97 01:05 Page:23
--  Include file information  --

   K_QDPHDRS_M.:E05TOU  is referenced.
   KN_ERRORS_C.:E05TOU  is referenced.
   KL_MACRO_C.:E05TOU  is referenced.
   K_INTERFACE_M.:E05TOU  is referenced.
   KN_DATA_M.:E05TOU  is referenced.
   KNN_NETWORK_M.:E05TOU  is referenced.
   K_SCODE_C.:E05TOU  is referenced.
   K_ADDRESS_M.:E05TOU  is referenced.
   KNH_MACRO_C.:E05TOU  is referenced.
   K_NETWORK_E.:E05TOU  is referenced.
   K_NETWORK_M.:E05TOU  is referenced.
   G_LCP6_E.:E05TOU  is referenced.
   GT_LCP6_M.:E05TOU  is referenced.
   KI_CP6.:E05TOU  is referenced.
   GF_LCP6_M.:E05TOU  is referenced.
   GM_LCP6_M.:E05TOU  is referenced.
   GU_LCP6_M.:E05TOU  is referenced.
   GJ_LCP6_M.:E05TOU  is referenced.
   GH_LCP6_M.:E05TOU  is referenced.
   LCP_6.:E05TOU  cannot be made into a system file and is referenced.
      No diagnostics issued in procedure KNN$RECVOSI.

   Procedure KNN$RECVOSI requires 1928 words for executable code.
   Procedure KNN$RECVOSI requires 154 words of local(AUTO) storage.

PL6.E3A0      #001=KNN$RECVOSI File=KNN$SUBS.:E05TSI                             WED 07/30/97 01:05 Page:24

 Object Unit name= KNN$RECVOSI                                File name= KNN$SUBS.:E05TOU
 UTS= JUL 30 '97 01:05:06.68 WED                              Compiler= PL-6/E31         Sev=      00
 SharedLib= :SHARED_LCP6_SYSTEM                               Alt SharedLib=


    ****  Control sections  ****

 Sect   Type Bound  Init  Size HexSiz  Section name
    0  RoData even  UTS     49     31  KNN$RECVOSI
    1   Proc  even  none  1928    788  KNN$RECVOSI
    2  RoData even  none     2      2  KNN$RECVOSI

    ****  Entry defs  ****

                              Check   Calling
                             calling  sequence
  Sect HexLoc Primary Altret sequence   type   Parms  Name
     1      0   yes    yes     yes      Std        1  KNN$RECVOSI

  ****  Entry refs  ****

         Check        Calling
        calling       sequence
Altret sequence SRef   type   Args  Name
         yes           Std       1 SCREECH
 yes     yes           Std       1 KNT$RECV_4HOST
 yes     yes           Std       2 KNA$CHK_CHKSUM
 yes     yes           Std       2 KNN$DECODE_NSAP
 yes     yes           Std       1 KNN$SENDERR
 yes     yes           Std       5 GHE$ERRLOG
 yes     yes           Std       3 KNN$REASSEM
 yes     yes           Std       1 KNH$SEND
 yes     yes           Std       1 KNN$RECVOSI
                       nStd      0 X6A_AUTO_1
                       nStd      0 X6A_ARET
                       nStd      0 X6B_BLR
                       nStd      0 X6A_AALT
PL6.E3A0      #001=KNN$RECVOSI File=KNN$SUBS.:E05TSI                             WED 07/30/97 01:05 Page:25

  ****  Data refs  ****

  Flags:  r = read only, s = secondary
Flgs Name                             Flgs Name                             Flgs Name
     KNN_NODES                             KN_NODE#                              KNN_ROUTE$$
     KNN_LINKS                             KNN_LINK$$                       r    G$ROS$
PL6.E3A0      #001=KNN$RECVOSI File=KNN$SUBS.:E05TSI                             WED 07/30/97 01:05 Page:26


        1        1        /*M* KNN$RECVOSI - OSI network message decoder  */
        2        2        /*T***********************************************************/
        3        3        /*T*                                                         */
        4        4        /*T* Copyright (c) Bull HN Information Systems Inc., 1997    */
        5        5        /*T*                                                         */
        6        6        /*T***********************************************************/
        7        7        /*X* PLM=3,IND=3,ENU=0,ECU=0,CRM=70,CCC=YES,CSI=3,CTI=2,DCI=3,ECI=3,ENI=3,SDI=3 */
        8        8        /*P*    NAME:   KNN$RECVOSI
        9        9                PURPOSE: This module contains the procedure to decode OSI
       10       10                         network layer messages.
       11       11        */
       12       12
       13       13
       14       14        /*F*  NAME:    KNN$RECVOSI
       15       15
       16       16              PURPOSE: decode network pdus
       17       17              DESCRIPTION:
       18       18        */
       19       19
       20       20        %EJECT;
PL6.E3A0      #001=KNN$RECVOSI File=KNN$SUBS.:E05TSI                             WED 07/30/97 01:05 Page:27
       21       21        KNN$RECVOSI: PROC(KN$NETPARM) ALTRET;

     21   1 000000  D380 0000 0000  xent KNN$RECVOSI     LNJ,B5   X6A_AUTO_1
          1 000003       009A 0001                       DC       154,1

       22       22
       23       23        %INCLUDE LCP_6;
       24     4302        %INCLUDE K_NETWORK_M;
       25     4571        %INCLUDE K_NETWORK_E;
       26     4660        %INCLUDE KNH_MACRO_C;
       27     4943        %INCLUDE K_ADDRESS_M;
       28     5446        %INCLUDE K_SCODE_C;
       29     5531        %INCLUDE KNN_NETWORK_M;
       30     5894        %INCLUDE KN_DATA_M;
       31     7680        %INCLUDE K_INTERFACE_M;
       32     8089        %INCLUDE KL_MACRO_C;
       33    11441        %INCLUDE KN_ERRORS_C;
       34    11505        %INCLUDE K_QDPHDRS_M;
       35    12387
       36    12388        %KN$NETPARM(NAME=KN$NETPARM,STCLASS="");
       37    12541
       38    12542    1   DCL KNN$SENDERR ENTRY(1) ALTRET;
       39    12543    1   DCL KNA$CHK_CHKSUM ENTRY(2) ALTRET;
       40    12544    1   DCL KNA$CALC_CHKSUM ENTRY(3) ALTRET;
       41    12545    1   DCL KNT$SEND_4HOST ENTRY(1) ALTRET;
       42    12546    1   DCL KNT$RECV_4HOST ENTRY(1) ALTRET;
       43    12547    1   DCL KNN$REASSEM ENTRY(3) ALTRET;
       44    12548    1   DCL KNN$DECODE_NSAP ENTRY(2) ALTRET;
       45    12549    1   DCL KNH$SEND ENTRY(1) ALTRET;
       46    12550    1   DCL SCREECH ENTRY(1);
       47    12551    1   DCL GHE$ERRLOG ENTRY(5) ALTRET;
       48    12552
       49    12553    1   DCL KNN_NODES UBIN SYMREF;
       50    12554    1   DCL KN_NODE# UBIN SYMREF;
       51    12555    1   DCL KNN_ROUTE$$ PTR SYMREF;
       52    12556    1   DCL KNN_LINKS UBIN SYMREF;
       53    12557    1   DCL KNN_LINK$$ PTR SYMREF;
PL6.E3A0      #001=KNN$RECVOSI File=KNN$SUBS.:E05TSI                             WED 07/30/97 01:05 Page:28
       54    12558    1   DCL KNN_OSIROUTE$$ PTR SYMREF;
       55    12559    1   DCL KNN_OSIMAX# UBIN SYMREF;
       56    12560    1   DCL KNN_OSIROUTE# UBIN SYMREF;
       57    12561
       58    12562        %K$NPDU_FIXED(STCLASS="BASED(KN$NETPARM.NHDR$)");
       59    12619        %K$NPDU_SEGMENT;
       60    12671        %K$NSAP(ADRTYP=NET);
       61    12723        %KNN$LINK(STCLASS="BASED(LINK$)");
       62    12974        %KNN$ROUTE(STCLASS="BASED(ROUTE$)");
       63    13046    1   DCL KNN$ROUTE$(0:0) PTR BASED(KNN_ROUTE$$);
       64    13047    1   DCL KNN$LINK$(0:0) PTR BASED(KNN_LINK$$);
       65    13048    1   DCL ADDRESS CHAR(SIZE) BASED;
       66    13049    1   DCL CHR(0:0) CHAR(1) BASED CALIGNED;
       67    13050    1   DCL CALLEDFROM$ EPTR BASED;
       68    13051
       69    13052        %K$NQDP_HDR (NAME=K$NQDP_HDR_C,MSGTYPE=OSI_DATA,ALGN=ALIGNED,STCLASS=CONSTANT);
       70    13129        %VLP_SCODE (FPTN=PRTCLERR,ERR#=%S$PRTCLERR,SEV=G_SEV_SCREECH#,
       71    13130                       STCLASS=CONSTANT,FCG=KN,MID=N,MON='1'B);
       72    13191
       73    13192        %VLP_ERRCODE(FPTN=E_DSCRD_RNS,FCG=KN,MID=N,MON='1'B,STCLASS=CONSTANT,ERR#=
             13192            %E$DSCRD_RNS);
       74    13238        /*E* ERROR: KNN-E$DSCRD_RNS
       75    13239             MESSAGE: OSI network pdu was discarded and no reason was specified.
       76    13240        */
       77    13241
       78    13242        %VLP_ERRCODE(FPTN=E_DSCRD_PPE,FCG=KN,MID=N,MON='1'B,STCLASS=CONSTANT,ERR#=
             13242            %E$DSCRD_PPE);
       79    13288        /*E* ERROR: KNN-E$DSCRD_PPE
       80    13289             MESSAGE: OSI network pdu was discarded due to a protocol procedure error
       81    13290        */
       82    13291
       83    13292       %VLP_ERRCODE(FPTN=E_DSCRD_IC,FCG=KN,MID=N,MON='1'B,STCLASS=CONSTANT,ERR#=%E$DSCRD_IC
             13292            );
       84    13338        /*E* ERROR: KNN-E$DSCRD_IC
       85    13339             MESSAGE: OSI network pdu was discarded due to an Incorrect checksum
       86    13340         */
       87    13341
PL6.E3A0      #001=KNN$RECVOSI File=KNN$SUBS.:E05TSI                             WED 07/30/97 01:05 Page:29
       88    13342        %VLP_ERRCODE(FPTN=E_DSCRD_CONGEST,FCG=KN,MID=N,MON='1'B,STCLASS=CONSTANT,ERR#=
             13342            %E$DSCRD_CONGEST);
       89    13388        /*E* ERROR: KNN-E$DSCRD_CONGEST
       90    13389             MESSAGE: OSI network pdu was discarded due to system congestion
       91    13390        */
       92    13391
       93    13392        %VLP_ERRCODE(FPTN=E_DSCRD_HDRSNTX,FCG=KN,MID=N,MON='1'B,STCLASS=CONSTANT,ERR#=
             13392            %E$DSCRD_HDRSNTX);
       94    13438        /*E* ERROR: KNN-E$DSCRD_HDRSNTX
       95    13439             MESSAGE: Syntax error in the network header; pdu was discarded.
       96    13440        */
       97    13441
       98    13442        %VLP_ERRCODE(FPTN=E_DSCRD_CANTSEG,FCG=KN,MID=N,MON='1'B,STCLASS=CONSTANT,ERR#=
             13442            %E$DSCRD_CANTSEG);
       99    13488        /*E* ERROR: KNN-E$DSCRD_CANTSEG
      100    13489             MESSAGE: segmentation needed but not permitted, pdu was discarded.
      101    13490         */
      102    13491
      103    13492        %VLP_ERRCODE(FPTN=E_DSCRD_INCMPPDU,FCG=KN,MID=N,MON='1'B,STCLASS=CONSTANT,ERR#=
             13492            %E$DSCRD_INCMPPDU);
      104    13538        /*E* ERROR: KNN-E$DSCRD_INCMPPDU
      105    13539             MESSAGE: An Incomplete pdu was received; pdu was discarded.
      106    13540        */
      107    13541
      108    13542        %VLP_ERRCODE(FPTN=E_DSCRD_DUPOPT,FCG=KN,MID=N,MON='1'B,STCLASS=CONSTANT,ERR#=
             13542            %E$DSCRD_DUPOPT);
      109    13588        /*E* ERROR: KNN-E$DSCRD_DUPOPT
      110    13589             MESSAGE: duplicate option specified, pdu discarded.
      111    13590        */
      112    13591
      113    13592        %VLP_ERRCODE(FPTN=E_DSCRD_DSTUNREACH,FCG=KN,MID=N,MON='1'B,STCLASS=CONSTANT,ERR#=
             13592            %E$DSCRD_DSTUNREACH);
      114    13638        /*E* ERROR: KNN-E$DSCRD_DSTUNREACH
      115    13639             MESSAGE: destination unreachable, pdu discarded.
      116    13640        */
      117    13641
      118    13642        %VLP_ERRCODE(FPTN=E_DSCRD_DSTUNKNWN,FCG=KN,MID=N,MON='1'B,STCLASS=CONSTANT,ERR#=
PL6.E3A0      #001=KNN$RECVOSI File=KNN$SUBS.:E05TSI                             WED 07/30/97 01:05 Page:30
             13642            %E$DSCRD_DSTUNKNWN);
      119    13688        /*E* ERROR: KNN-E$DSCRD_DSTUNKNWN
      120    13689             MESSAGE:  destination unknown, pdu discarded.
      121    13690        */
      122    13691
      123    13692        %VLP_ERRCODE(FPTN=E_DSCRD_SRCRTEERR,FCG=KN,MID=N,MON='1'B,STCLASS=CONSTANT,ERR#=
             13692            %E$DSCRD_SRCRTEERR);
      124    13738        /*E* ERROR: KNN-E$DSCRD_SRCRTEERR
      125    13739             MESSAGE: Unspecified source routing error, discard pdu.
      126    13740        */
      127    13741
      128    13742        %VLP_ERRCODE(FPTN=E_DSCRD_SRCRTESNTX,FCG=KN,MID=N,MON='1'B,STCLASS=CONSTANT,ERR#=
             13742            %E$DSCRD_SRCRTESNTX);
      129    13788        /*E* ERROR: KNN-E$DSCRD_SRCRTESNTX
      130    13789             MESSAGE: Syntax error in source routing field, pdu discarded.
      131    13790        */
      132    13791
      133    13792        %VLP_ERRCODE(FPTN=E_DSCRD_SRCRTEUNKWN,FCG=KN,MID=N,MON='1'B,STCLASS=CONSTANT,ERR#=
             13792            %E$DSCRD_SRCRTEUNKWN);
      134    13838        /*E* ERROR: KNN-E$DSCRD_SRCRTEUNKWN
      135    13839             MESSAGE: Unknown address in source routing field pdu discarded.
      136    13840        */
      137    13841
      138    13842        %VLP_ERRCODE(FPTN=E_DSCRD_PTHNOTACPT,FCG=KN,MID=N,MON='1'B,STCLASS=CONSTANT,ERR#=
             13842            %E$DSCRD_PTHNOTACPT);
      139    13888        /*E* ERROR: KNN-E$DSCRD_PTHNOTACPT
      140    13889             MESSAGE: Path was not acceptable, pdu was discarded.
      141    13890        */
      142    13891
      143    13892        %VLP_ERRCODE(FPTN=E_DSCRD_LIFEEXPTRAN,FCG=KN,MID=N,MON='1'B,STCLASS=CONSTANT,ERR#=
             13892            %E$DSCRD_LIFEEXPTRAN);
      144    13938        /*E* ERROR: KNN-E$DSCRD_LIFEEXPTRAN
      145    13939             MESSAGE:  Lifetime expired in transit, pdu was discarded.
      146    13940        */
      147    13941
      148    13942        %VLP_ERRCODE(FPTN=E_DSCRD_LIFEEXPASSM,FCG=KN,MID=N,MON='1'B,STCLASS=CONSTANT,ERR#=
             13942            %E$DSCRD_LIFEEXPASSM);
PL6.E3A0      #001=KNN$RECVOSI File=KNN$SUBS.:E05TSI                             WED 07/30/97 01:05 Page:31
      149    13988        /*E* ERROR: KNN-E$DSCRD_LIFEEXPASSM
      150    13989             MESSAGE: Lifetime expired during assembly, pdu was discarded.
      151    13990        */
      152    13991
      153    13992        %VLP_ERRCODE(FPTN=E_DSCRD_OPTNON,FCG=KN,MID=N,MON='1'B,STCLASS=CONSTANT,ERR#=
             13992            %E$DSCRD_OPTNON);
      154    14038        /*E* ERROR: KNN-E$DSCRD_OPTNON
      155    14039             MESSAGE:  Unsupported option specified, pdu was discarded.
      156    14040        */
      157    14041
      158    14042        %VLP_ERRCODE(FPTN=E_DSCRD_OPTPRCLVERS,FCG=KN,MID=N,MON='1'B,STCLASS=CONSTANT,ERR#=
             14042            %E$DSCRD_OPTPRCLVERS);
      159    14088        /*E* ERROR: KNN-E$DSCRD_OPTPRCLVERS
      160    14089             MESSAGE: * Unsupported protocol version specified, pdu was discarded.
      161    14090        */
      162    14091
      163    14092        %VLP_ERRCODE(FPTN=E_DSCRD_OPTSEC,FCG=KN,MID=N,MON='1'B,STCLASS=CONSTANT,ERR#=
             14092            %E$DSCRD_OPTSEC);
      164    14138        /*E* ERROR: KNN-E$DSCRD_OPTSEC
      165    14139             MESSAGE:  Unsupported security option, pdu discarded.
      166    14140        */
      167    14141
      168    14142        %VLP_ERRCODE(FPTN=E_DSCRD_OPTSRCRTE,FCG=KN,MID=N,MON='1'B,STCLASS=CONSTANT,ERR#=
             14142            %E$DSCRD_OPTSRCRTE);
      169    14188        /*E* ERROR: KNN-E$DSCRD_OPTSRCRTE
      170    14189             MESSAGE:  Unsupported Source routing option, pdu discarded
      171    14190        */
      172    14191
      173    14192        %VLP_ERRCODE(FPTN=E_DSCRD_OPTRECRTE,FCG=KN,MID=N,MON='1'B,STCLASS=CONSTANT,ERR#=
             14192            %E$DSCRD_OPTRECRTE);
      174    14238        /*E* ERROR: KNN-E$DSCRD_OPTRECRTE
      175    14239             MESSAGE:  Unsupported record route option, pdu discarded.
      176    14240        */
      177    14241
      178    14242        %VLP_ERRCODE(FPTN=E_DSCRD_REASSEM,FCG=KN,MID=N,MON='1'B,STCLASS=CONSTANT,ERR#=
             14242            %E$DSCRD_REASSEM);
      179    14288        /*E* ERROR: KNN-E$DSCRD_REASSEM
PL6.E3A0      #001=KNN$RECVOSI File=KNN$SUBS.:E05TSI                             WED 07/30/97 01:05 Page:32
      180    14289             MESSAGE: Reassembly interface error, pdu discarded.
      181    14290        */
      182    14291
      183    14292        %K$NSAP(FPTN=DESTINATION,STCLASS=AUTO,ADRTYP=NET);
      184    14344        %K$NSAP(FPTN=SOURCE,STCLASS=AUTO,ADRTYP=NET);
      185    14396        %LIST;
      186    14397        %FPT_NSAP(STCLASS=AUTO);
             14398        %LSET LISTDIR='0'B;
             14411    1   DCL 1 FPT_NSAP AUTO ALIGNED,
             14434    1        2 NSAP CALIGNED,
             14436    1     3 LEN UBIN BYTE CALIGNED /*(0)*/,
             14441    1     3 AFI UBIN BYTE UNAL /*(0)*/,
             14464    1        3 ADDRESS_N(0:19) CALIGNED UBIN(8) /*(0*0)*/,
             14465    1        3 ADDRESS REDEF ADDRESS_N CHAR(20) CALIGNED ;
      187    14469        %PLIST;
      188    14470        %K$NPDU_SEGMENT(NAME=SEGMENT,STCLASS=AUTO);
      189    14522        %KL_UPDOSI(FPTN=SRCROUTE,STCLASS=AUTO);/* node#,link# of src address*/
      190    14731        %KL_UPDOSI(FPTN=DSTROUTE,STCLASS=AUTO);/* node#,link# of dst address*/
      191    14940        %K$NQDP_HDR (NAME=NQDP_HDR,MSGTYPE=OSI_DATA,ALGN=ALIGNED,STCLASS=AUTO);
      192    15017
      193    15018        %VLP_ERRCODE(FPTN=ERR_CODE,STCLASS=AUTO);
      194    15064
      195    15065    1   DCL SIZE UBIN;
      196    15066    1   DCL OPTSZ UBIN BYTE;
      197    15067    1   DCL OPTVAL UBIN BYTE;
      198    15068    1   DCL DATASIZE SBIN;
      199    15069    1   DCL FIXEDSIZ UBIN;
      200    15070    1   DCL SEGLENGTH UBIN;
      201    15071    1   DCL D$ PTR;
      202    15072    1   DCL QQQ$ PTR;
      203    15073    1   DCL SAVE_FPT$ PTR;
      204    15074    1   DCL LINK$ PTR;
      205    15075    1   DCL ROUTE$ PTR;
      206    15076    1   DCL CURINDX UBIN;                       /*  is index into npdu      */
      207    15077    1   DCL DSTINDX UBIN; /* index into k$npdu_fixed to destination address + 1 */
      208    15078    1   DCL SRCINDX UBIN;                       /* source address index     */
      209    15079    1   DCL CODE UBIN BYTE;                     /* options code in pdu      */
PL6.E3A0      #001=KNN$RECVOSI File=KNN$SUBS.:E05TSI                             WED 07/30/97 01:05 Page:33
      210    15080    1   DCL LI SBIN;                       /* decreasing header byte count  */
      211    15081    1   DCL I UBIN;
      212    15082    1   DCL J UBIN;
      213    15083    1   DCL ERRVAL(0:3) UBIN;                   /* values for errlogger     */
      214    15084        /*
      215    15085             use these to keep worst case code from being generated.
      216    15086        */
      217    15087    1   DCL SNPATMPLT1 CHAR(8) ALIGNED;
      218    15088    1   DCL 1 SNPATMPLT2 REDEF SNPATMPLT1 ALIGNED,
      219    15089    1          2 NIBBLES(0:13) UNAL,
      220    15090    1             3 NIB UBIN(4) UNAL;
      221    15091
      222    15092    1   DCL SNPATMPLT3 CHAR(8) ALIGNED;
      223    15093    1   DCL 1 SNPATMPLT4 REDEF SNPATMPLT3 ALIGNED,
      224    15094    1          2 NIBBLES(0:13) UNAL,
      225    15095    1             3 NIB UBIN(4) UNAL;
      226    15096
      227    15097        %EJECT;
PL6.E3A0      #001=KNN$RECVOSI File=KNN$SUBS.:E05TSI                             WED 07/30/97 01:05 Page:34
      228    15098
      229    15099    1      QQQ$ = KN$NETPARM.LDCT$;

  15099   1 000005  ECC7 0004                            LDB,B6   @KN$NETPARM,AUTO
          1 000007  DC86                                 LDB,B5   ,B6
          1 000008  DFC7 0072                            STB,B5   QQQ$,AUTO

      230    15100    1      SAVE_FPT$ = KN$NETPARM.FPT$;

  15100   1 00000A  CCC6 0019                            LDB,B4   25,B6
          1 00000C  CFC7 0074                            STB,B4   SAVE_FPT$,AUTO

      231    15101    1      KN$NETPARM.FPT$ = ADDR(NIL);

  15101   1 00000E  BB80 0000 0000                       LAB,B3   0
          1 000011  BFC6 0019                            STB,B3   25,B6

      232    15102    1      SIZE = KN$NETPARM.NHDRSZ;

  15102   1 000013  E846 0010                            LDR,R6   16,B6
          1 000015  EF47 006A                            STR,R6   SIZE,AUTO

      233    15103    1      IF SIZE = 0 THEN RETURN;

  15103   1 000017  6981 0004                            BNEZ,R6  s:15105,PREL

  15103   1 000019  C380 0000 0000  xent                 LNJ,B4   X6A_ARET

      234    15104
      235    15105    1      IF SIZE < LENGTHC(K$NPDU_FIXED) THEN

  15105   1 00001C  6D09                                 CMV,R6   9
          1 00001D  0281 000A                            BGE      s:15108,PREL

      236    15106    1         CALL SCREECH(PRTCLERR);

  15106   1 00001F  BB80 0000 0000  02                   LAB,B3   0
PL6.E3A0      #001=KNN$RECVOSI File=KNN$SUBS.:E05TSI                             WED 07/30/97 01:05 Page:35
          1 000022  CBF0 0100                            LAB,B4   256,IMO
          1 000024  E380 0000 0000  xent                 LNJ,B6   SCREECH
          1 000027       0001                            DC       s:15108,PREL

      237    15107
      238    15108    1      LI = K$NPDU_FIXED.LENGTH;

  15108   1 000028  ECC7 0004                            LDB,B6   @KN$NETPARM,AUTO
          1 00002A  DCC6 000E                            LDB,B5   14,B6
          1 00002C  E805                                 LDR,R6   ,B5
          1 00002D  E570 00FF                            AND,R6   255,IMO
          1 00002F  EF47 007E                            STR,R6   LI,AUTO

      239    15109    1      IF LI > SIZE THEN

  15109   1 000031  6801 000E                            BLZ,R6   s:15112,PREL
          1 000033  E947 006A                            CMR,R6   SIZE,AUTO
          1 000035  0381 000A                            BLE      s:15112,PREL

      240    15110    1         CALL SCREECH(PRTCLERR);

  15110   1 000037  BB80 0000 0000  02                   LAB,B3   0
          1 00003A  CBF0 0100                            LAB,B4   256,IMO
          1 00003C  E380 0000 0000  xent                 LNJ,B6   SCREECH
          1 00003F       0001                            DC       s:15112,PREL

      241    15111
      242    15112    1      ERRVAL(3) = K$NPDU_FIXED.TYPE;       /* for the errlogger        */

  15112   1 000040  ECC7 0004                            LDB,B6   @KN$NETPARM,AUTO
          1 000042  DCC6 000E                            LDB,B5   14,B6
          1 000044  E845 0002                            LDR,R6   2,B5
          1 000046  6048                                 SOR,R6   8
          1 000047  E570 001F                            AND,R6   31,IMO
          1 000049  EF47 0084                            STR,R6   ERRVAL+3,AUTO

      243    15113
PL6.E3A0      #001=KNN$RECVOSI File=KNN$SUBS.:E05TSI                             WED 07/30/97 01:05 Page:36
      244    15114    1      SEGLENGTH = K$NPDU_FIXED.SEGLENX*256 + K$NPDU_FIXED.SEGLENY;

  15114   1 00004B  DCC6 000E                            LDB,B5   14,B6
          1 00004D  D845 0002                            LDR,R5   2,B5
          1 00004F  5008                                 SOL,R5   8
          1 000050  C2C5 0003                            LLH,R4   3,B5
          1 000052  DA54                                 ADD,R5   R4
          1 000053  DF47 006F                            STR,R5   SEGLENGTH,AUTO

      245    15115    1      IF SIZE ~= SEGLENGTH THEN

  15115   1 000055  D947 006A                            CMR,R5   SIZE,AUTO
          1 000057  0901 000A                            BE       s:15118,PREL

      246    15116    1         CALL SCREECH(PRTCLERR);

  15116   1 000059  BB80 0000 0000  02                   LAB,B3   0
          1 00005C  CBF0 0100                            LAB,B4   256,IMO
          1 00005E  E380 0000 0000  xent                 LNJ,B6   SCREECH
          1 000061       0001                            DC       s:15118,PREL

      247    15117
      248    15118    1      DATASIZE = SEGLENGTH - LI;

  15118   1 000062  E847 006F                            LDR,R6   SEGLENGTH,AUTO
          1 000064  E247 007E                            SUB,R6   LI,AUTO
          1 000066  EF47 006D                            STR,R6   DATASIZE,AUTO

      249    15119    1      LI = LI - LENGTHC(K$NPDU_FIXED);

  15119   1 000068  D847 007E                            LDR,R5   LI,AUTO
          1 00006A  5EF7                                 ADV,R5   -9
          1 00006B  DF47 007E                            STR,R5   LI,AUTO

      250    15120    1      FIXEDSIZ = LENGTHC(K$NPDU_FIXED);

  15120   1 00006D  4C09                                 LDV,R4   9
PL6.E3A0      #001=KNN$RECVOSI File=KNN$SUBS.:E05TSI                             WED 07/30/97 01:05 Page:37
          1 00006E  CF47 006E                            STR,R4   FIXEDSIZ,AUTO

      251    15121    1      CURINDX = FIXEDSIZ;

  15121   1 000070  CF47 007A                            STR,R4   CURINDX,AUTO

      252    15122
      253    15123    1      ADDR(DESTINATION.LEN)->CHR(0) = SUBSTR(ADDR(K$NPDU_FIXED)->ADDRESS,CURINDX,1);

  15123   1 000072  ECC7 0004                            LDB,B6   @KN$NETPARM,AUTO
          1 000074  DCC6 000E                            LDB,B5   14,B6
          1 000076  B854                                 LDR,R3   R4
          1 000077  A0B5                                 LDH,R2   ,B5,R3
          1 000078  A7C7 0006                            STH,R2   DESTINATION,AUTO

      254    15124    1      IF DESTINATION.LEN > LI THEN

  15124   1 00007A  92C7 0006                            LLH,R1   DESTINATION,AUTO
          1 00007C  9955                                 CMR,R1   R5
          1 00007D  0A81 000A                            BALE     s:15127,PREL

      255    15125    1         CALL SCREECH(PRTCLERR);

  15125   1 00007F  BB80 0000 0000  02                   LAB,B3   0
          1 000082  CBF0 0100                            LAB,B4   256,IMO
          1 000084  E380 0000 0000  xent                 LNJ,B6   SCREECH
          1 000087       0001                            DC       s:15127,PREL

      256    15126
      257    15127    1      D$ = ADDR(DESTINATION);

  15127   1 000088  EBC7 0006                            LAB,B6   DESTINATION,AUTO
          1 00008A  EFC7 0070                            STB,B6   D$,AUTO

      258    15128    1      DSTINDX = CURINDX + 1; /* save the start of the destination address */

  15128   1 00008C  E847 007A                            LDR,R6   CURINDX,AUTO
PL6.E3A0      #001=KNN$RECVOSI File=KNN$SUBS.:E05TSI                             WED 07/30/97 01:05 Page:38
          1 00008E  6E01                                 ADV,R6   1
          1 00008F  EF47 007B                            STR,R6   DSTINDX,AUTO

      259    15129    2      DO I = 1 TO DESTINATION.LEN;

  15129   1 000091  5C01                                 LDV,R5   1
          1 000092  DF47 007F                            STR,R5   I,AUTO
          1 000094  0F81 0012                            B        s:15131+2,PREL

      260    15130    2         SUBSTR(D$->ADDRESS,I,1) = SUBSTR(ADDR(K$NPDU_FIXED)->ADDRESS,CURINDX+I,1);

  15130   1 000096  ECC7 0004                            LDB,B6   @KN$NETPARM,AUTO
          1 000098  DCC6 000E                            LDB,B5   14,B6
          1 00009A  E847 007A                            LDR,R6   CURINDX,AUTO
          1 00009C  EA47 007F                            ADD,R6   I,AUTO
          1 00009E  B856                                 LDR,R3   R6
          1 00009F  E0B5                                 LDH,R6   ,B5,R3
          1 0000A0  CCC7 0070                            LDB,B4   D$,AUTO
          1 0000A2  B847 007F                            LDR,R3   I,AUTO
          1 0000A4  E7B4                                 STH,R6   ,B4,R3

      261    15131    2         END;

  15131   1 0000A5  8AC7 007F                            INC      I,AUTO
          1 0000A7  E2C7 0006                            LLH,R6   DESTINATION,AUTO
          1 0000A9  E947 007F                            CMR,R6   I,AUTO
          1 0000AB  02EB                                 BGE      s:15130,SPREL

      262    15132    1      CURINDX = CURINDX + I;

  15132   1 0000AC  D847 007A                            LDR,R5   CURINDX,AUTO
          1 0000AE  DA47 007F                            ADD,R5   I,AUTO
          1 0000B0  DF47 007A                            STR,R5   CURINDX,AUTO

      263    15133
      264    15134    1      LI = LI - (DESTINATION.LEN+1);

PL6.E3A0      #001=KNN$RECVOSI File=KNN$SUBS.:E05TSI                             WED 07/30/97 01:05 Page:39
  15134   1 0000B2  E247 007E                            SUB,R6   LI,AUTO
          1 0000B4  8656                                 CPL      R6
          1 0000B5  EF47 007E                            STR,R6   LI,AUTO

      265    15135
      266    15136    1      ADDR(SOURCE.LEN)->CHR(0) = SUBSTR(ADDR(K$NPDU_FIXED)->ADDRESS,CURINDX,1);

  15136   1 0000B7  ECC7 0004                            LDB,B6   @KN$NETPARM,AUTO
          1 0000B9  DCC6 000E                            LDB,B5   14,B6
          1 0000BB  B855                                 LDR,R3   R5
          1 0000BC  C0B5                                 LDH,R4   ,B5,R3
          1 0000BD  C7C7 0011                            STH,R4   SOURCE,AUTO

      267    15137    1      SRCINDX = CURINDX+1;  /* save the start of the source address    */

  15137   1 0000BF  3E01                                 ADV,R3   1
          1 0000C0  BF47 007C                            STR,R3   SRCINDX,AUTO

      268    15138
      269    15139    1      IF SOURCE.LEN > LI THEN

  15139   1 0000C2  A2C7 0011                            LLH,R2   SOURCE,AUTO
          1 0000C4  A956                                 CMR,R2   R6
          1 0000C5  0A81 000A                            BALE     s:15142,PREL

      270    15140    1         CALL SCREECH(PRTCLERR);

  15140   1 0000C7  BB80 0000 0000  02                   LAB,B3   0
          1 0000CA  CBF0 0100                            LAB,B4   256,IMO
          1 0000CC  E380 0000 0000  xent                 LNJ,B6   SCREECH
          1 0000CF       0001                            DC       s:15142,PREL

      271    15141
      272    15142    1      D$ = ADDR(SOURCE);

  15142   1 0000D0  EBC7 0011                            LAB,B6   SOURCE,AUTO
          1 0000D2  EFC7 0070                            STB,B6   D$,AUTO
PL6.E3A0      #001=KNN$RECVOSI File=KNN$SUBS.:E05TSI                             WED 07/30/97 01:05 Page:40

      273    15143    2      DO I = 1 TO SOURCE.LEN;

  15143   1 0000D4  6C01                                 LDV,R6   1
          1 0000D5  EF47 007F                            STR,R6   I,AUTO
          1 0000D7  0F81 0012                            B        s:15145+2,PREL

      274    15144    2         SUBSTR(D$->ADDRESS,I,1) = SUBSTR(ADDR(K$NPDU_FIXED)->ADDRESS,CURINDX+I,1);

  15144   1 0000D9  ECC7 0004                            LDB,B6   @KN$NETPARM,AUTO
          1 0000DB  DCC6 000E                            LDB,B5   14,B6
          1 0000DD  E847 007A                            LDR,R6   CURINDX,AUTO
          1 0000DF  EA47 007F                            ADD,R6   I,AUTO
          1 0000E1  B856                                 LDR,R3   R6
          1 0000E2  E0B5                                 LDH,R6   ,B5,R3
          1 0000E3  CCC7 0070                            LDB,B4   D$,AUTO
          1 0000E5  B847 007F                            LDR,R3   I,AUTO
          1 0000E7  E7B4                                 STH,R6   ,B4,R3

      275    15145    2         END;

  15145   1 0000E8  8AC7 007F                            INC      I,AUTO
          1 0000EA  E2C7 0011                            LLH,R6   SOURCE,AUTO
          1 0000EC  E947 007F                            CMR,R6   I,AUTO
          1 0000EE  02EB                                 BGE      s:15144,SPREL

      276    15146
      277    15147    1      CURINDX = CURINDX + I;

  15147   1 0000EF  D847 007A                            LDR,R5   CURINDX,AUTO
          1 0000F1  DA47 007F                            ADD,R5   I,AUTO
          1 0000F3  DF47 007A                            STR,R5   CURINDX,AUTO

      278    15148
      279    15149    1      LI = LI - (SOURCE.LEN+1);

  15149   1 0000F5  E247 007E                            SUB,R6   LI,AUTO
PL6.E3A0      #001=KNN$RECVOSI File=KNN$SUBS.:E05TSI                             WED 07/30/97 01:05 Page:41
          1 0000F7  8656                                 CPL      R6
          1 0000F8  EF47 007E                            STR,R6   LI,AUTO

      280    15150
      281    15151        /*
      282    15152             The address are now ready to use.  From now on we can send error pdus
      283    15153             set up netparm to send errcode.
      284    15154        */
      285    15155
      286    15156
      287    15157    1      KN$NETPARM.DST_ADDR$ = ADDR(DESTINATION);

  15157   1 0000FA  EBC7 0006                            LAB,B6   DESTINATION,AUTO
          1 0000FC  DCC7 0004                            LDB,B5   @KN$NETPARM,AUTO
          1 0000FE  EFC5 001F                            STB,B6   31,B5

      288    15158    1      KN$NETPARM.SRC_ADDR$ = ADDR(SOURCE);

  15158   1 000100  CBC7 0011                            LAB,B4   SOURCE,AUTO
          1 000102  CFC5 001D                            STB,B4   29,B5

      289    15159
      290    15160    1      IF K$NPDU_FIXED.PROTOCOLID ~= %K_PRTCL_ID OR

  15160   1 000104  BCC5 000E                            LDB,B3   14,B5
          1 000106  C283                                 LLH,R4   ,B3
          1 000107  C970 0081                            CMR,R4   129,IMO
          1 000109  0981 0006                            BNE      s:15162,PREL
          1 00010B  B2C3 0001                            LLH,R3   1,B3
          1 00010D  3D01                                 CMV,R3   1
          1 00010E  0901 000B                            BE       s:15167,PREL

      291    15161    2        K$NPDU_FIXED.VERSION ~= %K_PRTCL_ID_EXT THEN DO;

      292    15162    2         KN$NETPARM.ERRCODE = %K_DSCRD_HDRSNTX;

  15162   1 000110  3C04                                 LDV,R3   4
PL6.E3A0      #001=KNN$RECVOSI File=KNN$SUBS.:E05TSI                             WED 07/30/97 01:05 Page:42
          1 000111  BF45 0016                            STR,R3   22,B5

      293    15163    2         ERR_CODE = E_DSCRD_HDRSNTX;

  15163   1 000113  8C80 0000 000D  00                   LDI      E_DSCRD_HDRSNTX
          1 000116  8D47 0068                            SDI      ERR_CODE,AUTO

      294    15164    2         GOTO ERR;

  15164   1 000118  0F81 05AA                            B        s:15537,PREL

      295    15165    2         END;
      296    15166
      297    15167    2      IF K$NPDU_FIXED.CHECKSUMX ~= 0 OR K$NPDU_FIXED.CHECKSUMY ~= 0 THEN DO;

  15167   1 00011A  82C3 0003                            LB,'00FF'X        3,B3
  15167   1 00011C       00FF
          1 00011D  0501 0005                            BBT      s:15168,PREL
          1 00011F  A2C3 0004                            LLH,R2   4,B3
          1 000121  2901 0028                            BEZ,R2   s:15176,PREL

      298    15168    2         I = K$NPDU_FIXED.LENGTH;

  15168   1 000123  A803                                 LDR,R2   ,B3
          1 000124  A570 00FF                            AND,R2   255,IMO
          1 000126  AF47 007F                            STR,R2   I,AUTO

      299    15169    3         CALL KNA$CHK_CHKSUM(ADDR(K$NPDU_FIXED),I) WHENALTRETURN DO;

  15169   1 000128  ECC5 000E                            LDB,B6   14,B5
          1 00012A  EFC7 0090                            STB,B6   SNPATMPLT3+7,AUTO
          1 00012C  CBC7 007F                            LAB,B4   I,AUTO
          1 00012E  CFC7 0094                            STB,B4   SNPATMPLT3+11,AUTO
          1 000130  BBC7 0090                            LAB,B3   SNPATMPLT3+7,AUTO
          1 000132  BFC7 0092                            STB,B3   SNPATMPLT3+9,AUTO
          1 000134  BBC7 0092                            LAB,B3   SNPATMPLT3+9,AUTO
          1 000136  CBF0 0200                            LAB,B4   512,IMO
PL6.E3A0      #001=KNN$RECVOSI File=KNN$SUBS.:E05TSI                             WED 07/30/97 01:05 Page:43
          1 000138  E380 0000 0000  xent                 LNJ,B6   KNA$CHK_CHKSUM
          1 00013B       0003                            DC       s:15170,PREL
          1 00013C  0F81 000D                            B        s:15176,PREL

      300    15170    3            KN$NETPARM.ERRCODE = %K_DSCRD_IC;

  15170   1 00013E  ECC7 0004                            LDB,B6   @KN$NETPARM,AUTO
          1 000140  6C02                                 LDV,R6   2
          1 000141  EF46 0016                            STR,R6   22,B6

      301    15171    3            ERR_CODE = E_DSCRD_IC;

  15171   1 000143  8C80 0000 0009  00                   LDI      E_DSCRD_IC
          1 000146  8D47 0068                            SDI      ERR_CODE,AUTO

      302    15172    3            GOTO ERR;

  15172   1 000148  0F81 057A                            B        s:15537,PREL

      303    15173    3            END;
      304    15174    2         END;

      305    15175
      306    15176    2      IF K$NPDU_FIXED.MS AND K$NPDU_FIXED.SP = '0'B THEN DO;

  15176   1 00014A  ECC7 0004                            LDB,B6   @KN$NETPARM,AUTO
          1 00014C  DCC6 000E                            LDB,B5   14,B6
          1 00014E  82C5 0002                            LB,'4000'X        2,B5
          1 000150       4000
          1 000151  0581 000F                            BBF      s:15182,PREL
          1 000153  89C5 0002                            CMZ      2,B5
          1 000155  0801 000B                            BAL      s:15182,PREL

      307    15177    2         KN$NETPARM.ERRCODE = %K_DSCRD_CANTSEG;

  15177   1 000157  6C05                                 LDV,R6   5
          1 000158  EF46 0016                            STR,R6   22,B6
PL6.E3A0      #001=KNN$RECVOSI File=KNN$SUBS.:E05TSI                             WED 07/30/97 01:05 Page:44

      308    15178    2         ERR_CODE = E_DSCRD_CANTSEG;

  15178   1 00015A  8C80 0000 000F  00                   LDI      E_DSCRD_CANTSEG
          1 00015D  8D47 0068                            SDI      ERR_CODE,AUTO

      309    15179    2         GOTO ERR;

  15179   1 00015F  0F81 0563                            B        s:15537,PREL

      310    15180    2         END;
      311    15181
      312    15182    2      IF K$NPDU_FIXED.SP = '0'B THEN DO;

  15182   1 000161  89C5 0002                            CMZ      2,B5
          1 000163  0801 000B                            BAL      s:15188,PREL

      313    15183    2         SEGMENT.TOTLEN = SEGLENGTH;

  15183   1 000165  E847 006F                            LDR,R6   SEGLENGTH,AUTO
          1 000167  EF47 0029                            STR,R6   SEGMENT+2,AUTO

      314    15184    2         SEGMENT.DATAID = 0;

  15184   1 000169  8747 0027                            CL       SEGMENT,AUTO

      315    15185    2         SEGMENT.OFFSET = 0;

  15185   1 00016B  8747 0028                            CL       SEGMENT+1,AUTO

      316    15186    2         END;

  15186   1 00016D  0F81 0030                            B        s:15205,PREL

      317    15187    2      ELSE DO;

      318    15188    3         IF LI < LENGTHC(K$NPDU_SEGMENT) THEN DO;
PL6.E3A0      #001=KNN$RECVOSI File=KNN$SUBS.:E05TSI                             WED 07/30/97 01:05 Page:45

  15188   1 00016F  E847 007E                            LDR,R6   LI,AUTO
          1 000171  6D06                                 CMV,R6   6
          1 000172  0881 000B                            BAGE     s:15198,PREL

      319    15189    3            KN$NETPARM.ERRCODE = %K_DSCRD_HDRSNTX;

  15189   1 000174  5C04                                 LDV,R5   4
          1 000175  DF46 0016                            STR,R5   22,B6

      320    15190    3            ERR_CODE = E_DSCRD_HDRSNTX;

  15190   1 000177  8C80 0000 000D  00                   LDI      E_DSCRD_HDRSNTX
          1 00017A  8D47 0068                            SDI      ERR_CODE,AUTO

      321    15191    3            GOTO ERR;

  15191   1 00017C  0F81 0546                            B        s:15537,PREL

      322    15192    3            END;
      323    15193
      324    15194        /*
      325    15195             segment part at this point has got to be present.  otherwise we would have
      326    15196             returned.
      327    15197        */
      328    15198    3         DO I = 0 TO LENGTHC(K$NPDU_SEGMENT)-1;

  15198   1 00017E  8747 007F                            CL       I,AUTO
          1 000180  0F81 0011                            B        s:15200+2,PREL

      329    15199    3            SUBSTR(ADDR(SEGMENT.DATAID)->ADDRESS,I,1) = SUBSTR(ADDR(K$NPDU_FIXED)->
             15199                     ADDRESS,CURINDX+I,1);

  15199   1 000182  ECC7 0004                            LDB,B6   @KN$NETPARM,AUTO
          1 000184  DCC6 000E                            LDB,B5   14,B6
          1 000186  E847 007A                            LDR,R6   CURINDX,AUTO
          1 000188  EA47 007F                            ADD,R6   I,AUTO
PL6.E3A0      #001=KNN$RECVOSI File=KNN$SUBS.:E05TSI                             WED 07/30/97 01:05 Page:46
          1 00018A  B856                                 LDR,R3   R6
          1 00018B  E0B5                                 LDH,R6   ,B5,R3
          1 00018C  B847 007F                            LDR,R3   I,AUTO
          1 00018E  3E4E                                 ADV,R3   78
          1 00018F  E7B7                                 STH,R6   ,AUTO,R3

      330    15200    3            END;

  15200   1 000190  8AC7 007F                            INC      I,AUTO
          1 000192  E847 007F                            LDR,R6   I,AUTO
          1 000194  6D05                                 CMV,R6   5
          1 000195  03ED                                 BLE      s:15199,SPREL

      331    15201    2         CURINDX = LENGTHC(K$NPDU_SEGMENT);

  15201   1 000196  5C06                                 LDV,R5   6
          1 000197  DF47 007A                            STR,R5   CURINDX,AUTO

      332    15202    2         LI = LI - LENGTHC(SEGMENT);

  15202   1 000199  C847 007E                            LDR,R4   LI,AUTO
          1 00019B  4EFA                                 ADV,R4   -6
          1 00019C  CF47 007E                            STR,R4   LI,AUTO

      333    15203    2         END;

      334    15204
      335    15205    2      IF K$NPDU_FIXED.LIFETIME = 0 THEN DO;

  15205   1 00019E  DCC6 000E                            LDB,B5   14,B6
          1 0001A0  82C5 0001                            LB,'00FF'X        1,B5
          1 0001A2       00FF
          1 0001A3  0501 000C                            BBT      s:15216,PREL

      336    15206    2         KN$NETPARM.ERRCODE = %K_DSCRD_LIFEEXPTRAN;

  15206   1 0001A5  E870 00A0                            LDR,R6   160,IMO
PL6.E3A0      #001=KNN$RECVOSI File=KNN$SUBS.:E05TSI                             WED 07/30/97 01:05 Page:47
          1 0001A7  EF46 0016                            STR,R6   22,B6

      337    15207    2         ERR_CODE = E_DSCRD_LIFEEXPTRAN;

  15207   1 0001A9  8C80 0000 0021  00                   LDI      E_DSCRD_LIFEEXPTRAN
          1 0001AC  8D47 0068                            SDI      ERR_CODE,AUTO

      338    15208    2         GOTO ERR;

  15208   1 0001AE  0F81 0514                            B        s:15537,PREL

      339    15209    2         END;
      340    15210
      341    15211        /*
      342    15212             parse the options.
      343    15213        */
      344    15214
      345    15215
      346    15216    2      DO WHILE LI > 2;

  15216   1 0001B0  E847 007E                            LDR,R6   LI,AUTO
          1 0001B2  6D02                                 CMV,R6   2
          1 0001B3  0A81 008C                            BALE     s:15269,PREL

      347    15217    2         ADDR(CODE)->CHR(0) = SUBSTR(ADDR(K$NPDU_FIXED)->ADDRESS,CURINDX,1);

  15217   1 0001B5  ECC7 0004                            LDB,B6   @KN$NETPARM,AUTO
          1 0001B7  DCC6 000E                            LDB,B5   14,B6
          1 0001B9  B847 007A                            LDR,R3   CURINDX,AUTO
          1 0001BB  E0B5                                 LDH,R6   ,B5,R3
          1 0001BC  E7C7 007D                            STH,R6   CODE,AUTO

      348    15218    2         CURINDX = CURINDX + 1;

  15218   1 0001BE  8AC7 007A                            INC      CURINDX,AUTO

      349    15219    2         ADDR(OPTSZ)->CHR(0) = SUBSTR(ADDR(K$NPDU_FIXED)->ADDRESS,CURINDX,1);
PL6.E3A0      #001=KNN$RECVOSI File=KNN$SUBS.:E05TSI                             WED 07/30/97 01:05 Page:48

  15219   1 0001C0  DCC6 000E                            LDB,B5   14,B6
          1 0001C2  B847 007A                            LDR,R3   CURINDX,AUTO
          1 0001C4  D0B5                                 LDH,R5   ,B5,R3
          1 0001C5  D7C7 006B                            STH,R5   OPTSZ,AUTO

      350    15220    2         CURINDX = CURINDX + 1;

  15220   1 0001C7  8AC7 007A                            INC      CURINDX,AUTO

      351    15221    2         LI = LI-2-OPTSZ;

  15221   1 0001C9  C2C7 006B                            LLH,R4   OPTSZ,AUTO
          1 0001CB  C247 007E                            SUB,R4   LI,AUTO
          1 0001CD  8254                                 NEG      R4
          1 0001CE  4EFE                                 ADV,R4   -2
          1 0001CF  CF47 007E                            STR,R4   LI,AUTO

      352    15222    3         IF LI < 0 THEN DO;

  15222   1 0001D1  4881 000B                            BGEZ,R4  s:15228,PREL

      353    15223    3            KN$NETPARM.ERRCODE = %K_DSCRD_HDRSNTX;

  15223   1 0001D3  3C04                                 LDV,R3   4
          1 0001D4  BF46 0016                            STR,R3   22,B6

      354    15224    3            ERR_CODE = E_DSCRD_HDRSNTX;

  15224   1 0001D6  8C80 0000 000D  00                   LDI      E_DSCRD_HDRSNTX
          1 0001D9  8D47 0068                            SDI      ERR_CODE,AUTO

      355    15225    3            GOTO ERR;

  15225   1 0001DB  0F81 04E7                            B        s:15537,PREL

      356    15226    3            END;
PL6.E3A0      #001=KNN$RECVOSI File=KNN$SUBS.:E05TSI                             WED 07/30/97 01:05 Page:49
      357    15227
      358    15228    3         DO CASE(CODE);

  15228   1 0001DD  B2C7 007D                            LLH,R3   CODE,AUTO
          1 0001DF  BA70 FF3D                            ADD,R3   -195,IMO
          1 0001E1  3D0B                                 CMV,R3   11
          1 0001E2  0281 0049                            BGE      s:15262,PREL
          1 0001E4  A830 0000 01EA  01                   LDR,R2   s:15228+13,R3
          1 0001E7  83A0 0000 01F5  01                   JMP      s:15233,R2
          1 0001EA       0042                            DC       s:15267,PREL
          1 0001EB       0037                            DC       s:15262,PREL
          1 0001EC       0000                            DC       s:15233,PREL
          1 0001ED       0037                            DC       s:15262,PREL
          1 0001EE       0037                            DC       s:15262,PREL
          1 0001EF       000B                            DC       s:15238,PREL
          1 0001F0       0037                            DC       s:15262,PREL
          1 0001F1       0037                            DC       s:15262,PREL
          1 0001F2       0021                            DC       s:15250,PREL
          1 0001F3       0042                            DC       s:15267,PREL
          1 0001F4       0042                            DC       s:15267,PREL

      359    15229
      360    15230    3            CASE(%K_NPRM_PAD); /* pad characters to get header to a byte boundry*/

      361    15231
      362    15232    3            CASE(%K_NPRM_SEC);             /* security                 */

      363    15233    3            KN$NETPARM.ERRCODE = %K_DSCRD_OPTSEC;

  15233   1 0001F5  9870 00B2                            LDR,R1   178,IMO
          1 0001F7  9F46 0016                            STR,R1   22,B6

      364    15234    3            ERR_CODE = E_DSCRD_OPTSEC;

  15234   1 0001F9  8C80 0000 0029  00                   LDI      E_DSCRD_OPTSEC
          1 0001FC  8D47 0068                            SDI      ERR_CODE,AUTO

PL6.E3A0      #001=KNN$RECVOSI File=KNN$SUBS.:E05TSI                             WED 07/30/97 01:05 Page:50
      365    15235    3            GOTO ERR;

  15235   1 0001FE  0F81 04C4                            B        s:15537,PREL

      366    15236
      367    15237    3            CASE(%K_NPRM_SRCRTE);          /* source routing           */

      368    15238    3            ADDR(OPTVAL)->CHR(0) = SUBSTR(ADDR(K$NPDU_FIXED)->ADDRESS,CURINDX,1);

  15238   1 000200  DCC6 000E                            LDB,B5   14,B6
          1 000202  9847 007A                            LDR,R1   CURINDX,AUTO
          1 000204  E095                                 LDH,R6   ,B5,R1
          1 000205  E7C7 006C                            STH,R6   OPTVAL,AUTO

      369    15239        /*
      370    15240                partial source routing options are accepted but not implemented.
      371    15241                complete source routing pdus are discarded.
      372    15242        */
      373    15243    4            IF OPTVAL ~= %K_NPRM_SRCRTE_PSR THEN DO;

  15243   1 000207  E2C7 006C                            LLH,R6   OPTVAL,AUTO
          1 000209  6901 002D                            BEZ,R6   s:15267,PREL

      374    15244    4               KN$NETPARM.ERRCODE = %K_DSCRD_OPTSRCRTE;

  15244   1 00020B  E870 00B3                            LDR,R6   179,IMO
          1 00020D  EF46 0016                            STR,R6   22,B6

      375    15245    4               ERR_CODE = E_DSCRD_OPTSRCRTE;

  15245   1 00020F  8C80 0000 002B  00                   LDI      E_DSCRD_OPTSRCRTE
          1 000212  8D47 0068                            SDI      ERR_CODE,AUTO

      376    15246    4               GOTO ERR;

  15246   1 000214  0F81 04AE                            B        s:15537,PREL

PL6.E3A0      #001=KNN$RECVOSI File=KNN$SUBS.:E05TSI                             WED 07/30/97 01:05 Page:51
      377    15247    4               END;
      378    15248
      379    15249    3            CASE(%K_NPRM_RECRTE);          /* record route             */

      380    15250    3            ADDR(OPTVAL)->CHR(0) = SUBSTR(ADDR(K$NPDU_FIXED)->ADDRESS,CURINDX,1);

  15250   1 000216  DCC6 000E                            LDB,B5   14,B6
          1 000218  9847 007A                            LDR,R1   CURINDX,AUTO
          1 00021A  E095                                 LDH,R6   ,B5,R1
          1 00021B  E7C7 006C                            STH,R6   OPTVAL,AUTO

      381    15251    4            IF OPTVAL ~= %K_NPRM_RECRTE_PRR THEN DO;

  15251   1 00021D  E2C7 006C                            LLH,R6   OPTVAL,AUTO
          1 00021F  6901 0017                            BEZ,R6   s:15267,PREL

      382    15252    4               KN$NETPARM.ERRCODE = %K_DSCRD_OPTRECRTE;

  15252   1 000221  E870 00B4                            LDR,R6   180,IMO
          1 000223  EF46 0016                            STR,R6   22,B6

      383    15253    4               ERR_CODE = E_DSCRD_OPTRECRTE;

  15253   1 000225  8C80 0000 002D  00                   LDI      E_DSCRD_OPTRECRTE
          1 000228  8D47 0068                            SDI      ERR_CODE,AUTO

      384    15254    4               GOTO ERR;

  15254   1 00022A  0F81 0498                            B        s:15537,PREL

      385    15255    4               END;
      386    15256
      387    15257    3            CASE(%K_NPRM_QOS);

      388    15258
      389    15259    3            CASE(%K_NPRM_PRIO);

PL6.E3A0      #001=KNN$RECVOSI File=KNN$SUBS.:E05TSI                             WED 07/30/97 01:05 Page:52
      390    15260
      391    15261    3            CASE(ELSE);

      392    15262    3            KN$NETPARM.ERRCODE = %K_DSCRD_OPTNON;

  15262   1 00022C  A870 00B0                            LDR,R2   176,IMO
          1 00022E  AF46 0016                            STR,R2   22,B6

      393    15263    3            ERR_CODE = E_DSCRD_OPTNON;

  15263   1 000230  8C80 0000 0025  00                   LDI      E_DSCRD_OPTNON
          1 000233  8D47 0068                            SDI      ERR_CODE,AUTO

      394    15264    3            GOTO ERR;

  15264   1 000235  0F81 048D                            B        s:15537,PREL

      395    15265
      396    15266    3            END;                           /* case                     */

      397    15267    2         CURINDX = CURINDX + OPTSZ;

  15267   1 000237  E2C7 006B                            LLH,R6   OPTSZ,AUTO
          1 000239  EA47 007A                            ADD,R6   CURINDX,AUTO
          1 00023B  EF47 007A                            STR,R6   CURINDX,AUTO

      398    15268    2         END;                              /* do while                 */

  15268   1 00023D  4D02                                 CMV,R4   2
          1 00023E  0A01 FF76                            BAG      s:15217,PREL

      399    15269    1      KN$NETPARM.THDRSZ = KN$NETPARM.NHDRSZ - K$NPDU_FIXED.LENGTH;

  15269   1 000240  DCC6 000E                            LDB,B5   14,B6
          1 000242  E805                                 LDR,R6   ,B5
          1 000243  E570 00FF                            AND,R6   255,IMO
          1 000245  E246 0010                            SUB,R6   16,B6
PL6.E3A0      #001=KNN$RECVOSI File=KNN$SUBS.:E05TSI                             WED 07/30/97 01:05 Page:53
          1 000247  8256                                 NEG      R6
          1 000248  EF46 000D                            STR,R6   13,B6

      400    15270    1      KN$NETPARM.THDR_C$ = PINCRC(KN$NETPARM.NHDR$,K$NPDU_FIXED.LENGTH);

  15270   1 00024A  B805                                 LDR,R3   ,B5
          1 00024B  B570 00FF                            AND,R3   255,IMO
          1 00024D  DFC7 0090                            STB,B5   SNPATMPLT3+7,AUTO
          1 00024F  8CC7 0090                            LDI      SNPATMPLT3+7,AUTO
          1 000251  7031                                 DCL,R7   1
          1 000252  8D47 0092                            SDI      SNPATMPLT3+9,AUTO
          1 000254  F853                                 LDR,R7   R3
          1 000255  6C00                                 LDV,R6   0
          1 000256  8447 0092                            AID      SNPATMPLT3+9,AUTO
          1 000258  7071                                 DCR,R7   1
          1 000259  8D46 000B                            SDI      11,B6

      401    15271        /*
      402    15272          the message is now ready to be routed.  If this is the first hop from a host
      403    15273          node then transport has to be called to allow transport to complete its
      404    15274          context. If it is the last hop before a host node transport must again be called.
      405    15275          Other cases are as follows:
      406    15276             if destination address is x121
      407    15277                search osiaddress list
      408    15278                if address is present get node/link#s.
      409    15279                   if node is our node
      410    15280                      build fpt
      411    15281                      call knh$send.
      412    15282                   else
      413    15283                      find route
      414    15284                      if route available forward;else error noroute.
      415    15285                else search the link laddr list
      416    15286                   if addr present then
      417    15287                      get dstnode# out of dsp.
      418    15288                      if dstnode# our node# then call transport.
      419    15289                      else if dstnode# is link and host call recv4_host
      420    15290                           get route
PL6.E3A0      #001=KNN$RECVOSI File=KNN$SUBS.:E05TSI                             WED 07/30/97 01:05 Page:54
      421    15291                           call knh$send
      422    15292                   else
      423    15293                      error(noroute)
      424    15294                else if cp6 addr and not type fep then send error(noroute)
      425    15295                     else
      426    15296                         get dstnode#
      427    15297                         if route available call knh$send.
      428    15298        */
      429    15299    2      CALL KNN$DECODE_NSAP(SOURCE,SRCROUTE) WHENALTRETURN DO;

  15299   1 00025B  DBC7 002A                            LAB,B5   SRCROUTE,AUTO
          1 00025D  DFC7 0092                            STB,B5   SNPATMPLT3+9,AUTO
          1 00025F  CBC7 0011                            LAB,B4   SOURCE,AUTO
          1 000261  CFC7 0090                            STB,B4   SNPATMPLT3+7,AUTO
          1 000263  BBC7 0090                            LAB,B3   SNPATMPLT3+7,AUTO
          1 000265  CBF0 0200                            LAB,B4   512,IMO
          1 000267  E380 0000 0000  xent                 LNJ,B6   KNN$DECODE_NSAP
          1 00026A       0003                            DC       s:15300,PREL
          1 00026B  0F81 0004                            B        s:15303,PREL

      430    15300    2         RETURN;                 /* discard invalid source address     */

  15300   1 00026D  C380 0000 0000  xent                 LNJ,B4   X6A_ARET

      431    15301    2         END;
      432    15302
      433    15303    1      KN$NETPARM.RECTYPE = K$NPDU_FIXED.LENGTH;
             15303               /* send full network header on error pdu */

  15303   1 000270  ECC7 0004                            LDB,B6   @KN$NETPARM,AUTO
          1 000272  DCC6 000E                            LDB,B5   14,B6
          1 000274  E805                                 LDR,R6   ,B5
          1 000275  E570 00FF                            AND,R6   255,IMO
          1 000277  EF46 0013                            STR,R6   19,B6

      434    15304    2      CALL KNN$DECODE_NSAP(DESTINATION,DSTROUTE) WHENALTRETURN DO;

PL6.E3A0      #001=KNN$RECVOSI File=KNN$SUBS.:E05TSI                             WED 07/30/97 01:05 Page:55
  15304   1 000279  CBC7 0048                            LAB,B4   DSTROUTE,AUTO
          1 00027B  CFC7 0092                            STB,B4   SNPATMPLT3+9,AUTO
          1 00027D  DBC7 0006                            LAB,B5   DESTINATION,AUTO
          1 00027F  DFC7 0090                            STB,B5   SNPATMPLT3+7,AUTO
          1 000281  BBC7 0090                            LAB,B3   SNPATMPLT3+7,AUTO
          1 000283  CBF0 0200                            LAB,B4   512,IMO
          1 000285  E380 0000 0000  xent                 LNJ,B6   KNN$DECODE_NSAP
          1 000288       0003                            DC       s:15305,PREL
          1 000289  0F81 000E                            B        s:15311,PREL

      435    15305    2         KN$NETPARM.ERRCODE = %K_DSCRD_DSTUNKNWN;

  15305   1 00028B  ECC7 0004                            LDB,B6   @KN$NETPARM,AUTO
          1 00028D  E870 0081                            LDR,R6   129,IMO
          1 00028F  EF46 0016                            STR,R6   22,B6

      436    15306    2         ERR_CODE = E_DSCRD_DSTUNKNWN;

  15306   1 000291  8C80 0000 0017  00                   LDI      E_DSCRD_DSTUNKNWN
          1 000294  8D47 0068                            SDI      ERR_CODE,AUTO

      437    15307    2         GOTO ERR;

  15307   1 000296  0F81 042C                            B        s:15537,PREL

      438    15308    2         END;
      439    15309
      440    15310
      441    15311    2      IF DSTROUTE.FEP# > KNN_NODES THEN DO;

  15311   1 000298  E847 0049                            LDR,R6   DSTROUTE+1,AUTO
          1 00029A  E570 00FF                            AND,R6   255,IMO
          1 00029C  E900 0000 0000  xsym                 CMR,R6   KNN_NODES
          1 00029F  0381 000E                            BLE      s:15317,PREL

      442    15312    2         KN$NETPARM.ERRCODE = %K_DSCRD_DSTUNKNWN;

PL6.E3A0      #001=KNN$RECVOSI File=KNN$SUBS.:E05TSI                             WED 07/30/97 01:05 Page:56
  15312   1 0002A1  ECC7 0004                            LDB,B6   @KN$NETPARM,AUTO
          1 0002A3  D870 0081                            LDR,R5   129,IMO
          1 0002A5  DF46 0016                            STR,R5   22,B6

      443    15313    2         ERR_CODE = E_DSCRD_DSTUNKNWN;

  15313   1 0002A7  8C80 0000 0017  00                   LDI      E_DSCRD_DSTUNKNWN
          1 0002AA  8D47 0068                            SDI      ERR_CODE,AUTO

      444    15314    2         GOTO ERR;

  15314   1 0002AC  0F81 0416                            B        s:15537,PREL

      445    15315    2         END;
      446    15316
      447    15317    2      IF DSTROUTE.QOS = 255 AND DSTROUTE.FEP# ~= KN_NODE# THEN DO;

  15317   1 0002AE  D847 004A                            LDR,R5   DSTROUTE+2,AUTO
          1 0002B0  D570 00FF                            AND,R5   255,IMO
          1 0002B2  D970 00FF                            CMR,R5   255,IMO
          1 0002B4  0981 0013                            BNE      s:15328,PREL
          1 0002B6  E900 0000 0000  xsym                 CMR,R6   KN_NODE#
          1 0002B9  0901 000E                            BE       s:15328,PREL

      448    15318    2         KN$NETPARM.ERRCODE = %K_DSCRD_DSTUNREACH;

  15318   1 0002BB  ECC7 0004                            LDB,B6   @KN$NETPARM,AUTO
          1 0002BD  C870 0080                            LDR,R4   128,IMO
          1 0002BF  CF46 0016                            STR,R4   22,B6

      449    15319    2         ERR_CODE = E_DSCRD_DSTUNREACH;

  15319   1 0002C1  8C80 0000 0015  00                   LDI      E_DSCRD_DSTUNREACH
          1 0002C4  8D47 0068                            SDI      ERR_CODE,AUTO

      450    15320    2         GOTO ERR;

PL6.E3A0      #001=KNN$RECVOSI File=KNN$SUBS.:E05TSI                             WED 07/30/97 01:05 Page:57
  15320   1 0002C6  0F81 03FC                            B        s:15537,PREL

      451    15321    2         END;
      452    15322
      453    15323        /*
      454    15324             if both the source and destination nodes are link connected and host nodes
      455    15325             then do not call transport, do not pass go and do not collect $200.  Instead
      456    15326             send the message as is.
      457    15327        */
      458    15328    1      IF DSTROUTE.NS_TYPE = %K_TYPE_LNSAP AND

  15328   1 0002C8  C847 0048                            LDR,R4   DSTROUTE,AUTO
          1 0002CA  4044                                 SOR,R4   4
          1 0002CB  C570 000F                            AND,R4   15,IMO
          1 0002CD  4D01                                 CMV,R4   1
          1 0002CE  0981 0057                            BNE      s:15355,PREL
          1 0002D0  B847 002A                            LDR,R3   SRCROUTE,AUTO
          1 0002D2  3044                                 SOR,R3   4
          1 0002D3  B570 000F                            AND,R3   15,IMO
          1 0002D5  3D01                                 CMV,R3   1
          1 0002D6  0981 004F                            BNE      s:15355,PREL
          1 0002D8  A847 002B                            LDR,R2   SRCROUTE+1,AUTO
          1 0002DA  A570 00FF                            AND,R2   255,IMO
          1 0002DC  E952                                 CMR,R6   R2
          1 0002DD  0981 0048                            BNE      s:15355,PREL
          1 0002DF  92C7 0049                            LLH,R1   DSTROUTE+1,AUTO
          1 0002E1  9900 0000 0000  xsym                 CMR,R1   KNN_NODES
          1 0002E4  0281 0041                            BGE      s:15355,PREL
          1 0002E6  E2C7 002B                            LLH,R6   SRCROUTE+1,AUTO
          1 0002E8  E900 0000 0000  xsym                 CMR,R6   KNN_NODES
          1 0002EB  0281 003A                            BGE      s:15355,PREL

      459    15329    1        SRCROUTE.NS_TYPE = %K_TYPE_LNSAP AND
      460    15330    1        DSTROUTE.FEP# = SRCROUTE.FEP# AND
      461    15331    2        DSTROUTE.HOST# < KNN_NODES AND SRCROUTE.HOST# < KNN_NODES THEN DO;

      462    15332                                                /* no transport needed      */
PL6.E3A0      #001=KNN$RECVOSI File=KNN$SUBS.:E05TSI                             WED 07/30/97 01:05 Page:58
      463    15333    2         IF KNN$ROUTE$(DSTROUTE.HOST#)->KNN$ROUTE.FLAGS.HOST_NODE

  15333   1 0002ED  EC80 0000 0000  xsym                 LDB,B6   KNN_ROUTE$$
          1 0002F0  DC96                                 LDB,B5   ,B6,R1
          1 0002F1  89C5 0007                            CMZ      7,B5
          1 0002F3  0881 0032                            BAGE     s:15355,PREL
          1 0002F5  B856                                 LDR,R3   R6
          1 0002F6  CCB6                                 LDB,B4   ,B6,R3
          1 0002F7  89C4 0007                            CMZ      7,B4
          1 0002F9  0881 002C                            BAGE     s:15355,PREL

      464    15334    3           AND KNN$ROUTE$(SRCROUTE.HOST#)->KNN$ROUTE.FLAGS.HOST_NODE THEN DO;

      465    15335    3            ROUTE$ = KNN$ROUTE$(DSTROUTE.FEP#);

  15335   1 0002FB  B847 0049                            LDR,R3   DSTROUTE+1,AUTO
          1 0002FD  B570 00FF                            AND,R3   255,IMO
          1 0002FF  CCB6                                 LDB,B4   ,B6,R3
          1 000300  CFC7 0078                            STB,B4   ROUTE$,AUTO

      466    15336    3            LINK$ = KNN$ROUTE.LINK$;

  15336   1 000302  BC84                                 LDB,B3   ,B4
          1 000303  BFC7 0076                            STB,B3   LINK$,AUTO

      467    15337    4            IF KNN$ROUTE.LINK$ = ADDR(NIL) OR KNN$LINK.LDCT$ = ADDR(NIL) THEN DO;

  15337   1 000305  8D84                                 CMN      ,B4
          1 000306  0901 0004                            BE       s:15338,PREL
          1 000308  8D83                                 CMN      ,B3
          1 000309  0981 000E                            BNE      s:15342,PREL

      468    15338    4               KN$NETPARM.ERRCODE = %K_DSCRD_DSTUNREACH;

  15338   1 00030B  ACC7 0004                            LDB,B2   @KN$NETPARM,AUTO
          1 00030D  E870 0080                            LDR,R6   128,IMO
          1 00030F  EF42 0016                            STR,R6   22,B2
PL6.E3A0      #001=KNN$RECVOSI File=KNN$SUBS.:E05TSI                             WED 07/30/97 01:05 Page:59

      469    15339    4               ERR_CODE = E_DSCRD_DSTUNREACH;

  15339   1 000311  8C80 0000 0015  00                   LDI      E_DSCRD_DSTUNREACH
          1 000314  8D47 0068                            SDI      ERR_CODE,AUTO

      470    15340    4               GOTO ERR;

  15340   1 000316  0F81 03AC                            B        s:15537,PREL

      471    15341    4               END;
      472    15342    3            KN$NETPARM.FPT$ = ADDR(NIL);

  15342   1 000318  AB80 0000 0000                       LAB,B2   0
          1 00031B  9CC7 0004                            LDB,B1   @KN$NETPARM,AUTO
          1 00031D  AFC1 0019                            STB,B2   25,B1

      473    15343    3            KN$NETPARM.LDCT$ = KNN$LINK.LDCT$;

  15343   1 00031F  DC83                                 LDB,B5   ,B3
          1 000320  DF81                                 STB,B5   ,B1

      474    15344    3            CALL FORWARD ALTRET(ERR2);

  15344   1 000321  E3C0 03F7                            LNJ,B6   s:0,PREL
          1 000323       03E8                            DC       s:15558,PREL

      475    15345    3            GOTO EXITOSINET;

  15345   1 000324  0F81 03D8                            B        s:15552,PREL

      476    15346    3            END;
      477    15347    2         END;                              /* src.fep# = dst.fep#      */
      478    15348
      479    15349        /*
      480    15350             if the destination node# is our node and the address was in the ositable
      481    15351             then this message is to be forwared to that link.
PL6.E3A0      #001=KNN$RECVOSI File=KNN$SUBS.:E05TSI                             WED 07/30/97 01:05 Page:60
      482    15352        */
      483    15353
      484    15354
      485    15355    2      IF DSTROUTE.FEP# = KN_NODE# THEN DO;

  15355   1 000326  E847 0049                            LDR,R6   DSTROUTE+1,AUTO
          1 000328  E570 00FF                            AND,R6   255,IMO
          1 00032A  E900 0000 0000  xsym                 CMR,R6   KN_NODE#
          1 00032D  0981 0369                            BNE      s:15528,PREL

      486    15356        /*
      487    15357             check the pdu type if it is data forward it to the correct node.
      488    15358             if it is an error pdu generate an errorlog entry for it.
      489    15359             if it is those one of the amazing dynamic routing pdu discard it.
      490    15360        */
      491    15361    3         IF K$NPDU_FIXED.TYPE ~= %K_DT_PDU THEN DO;

  15361   1 00032F  ECC7 0004                            LDB,B6   @KN$NETPARM,AUTO
          1 000331  DCC6 000E                            LDB,B5   14,B6
          1 000333  B845 0002                            LDR,R3   2,B5
          1 000335  3048                                 SOR,R3   8
          1 000336  B570 001F                            AND,R3   31,IMO
          1 000338  3D1C                                 CMV,R3   28
          1 000339  0901 01B7                            BE       s:15427,PREL

      492    15362    4            IF K$NPDU_FIXED.TYPE = %K_ER_PDU THEN DO;

  15362   1 00033B  3D01                                 CMV,R3   1
          1 00033C  0981 01A4                            BNE      s:15419,PREL

      493    15363    4               SUBSTR(ADDR(I)->ADDRESS,0,2) = SUBSTR(ADDR(K$NPDU_FIXED)->ADDRESS,
             15363                        CURINDX,2);

  15363   1 00033E  AB85                                 LAB,B2   ,B5
          1 00033F  A847 007A                            LDR,R2   CURINDX,AUTO
          1 000341  6C02                                 LDV,R6   2
          1 000342  BBC7 007F                            LAB,B3   I,AUTO
PL6.E3A0      #001=KNN$RECVOSI File=KNN$SUBS.:E05TSI                             WED 07/30/97 01:05 Page:61
          1 000344  3C00                                 LDV,R3   0
          1 000345  0008                                 MMM

      494    15364    4               CURINDX = CURINDX + 2;      /* size of errcode field    */

  15364   1 000346  E847 007A                            LDR,R6   CURINDX,AUTO
          1 000348  6E02                                 ADV,R6   2
          1 000349  EF47 007A                            STR,R6   CURINDX,AUTO

      495    15365    4               SIZE = MINIMUM(CURINDX,KN$NETPARM.NHDRSZ);

  15365   1 00034B  D846 0010                            LDR,R5   16,B6
          1 00034D  D956                                 CMR,R5   R6
          1 00034E  0381 0002                            BLE      s:15365+6,PREL
          1 000350  D856                                 LDR,R5   R6
          1 000351  DF47 006A                            STR,R5   SIZE,AUTO

      496    15366    5               DO CASE (I);

  15366   1 000353  B847 007F                            LDR,R3   I,AUTO
          1 000355  B970 00C1                            CMR,R3   193,IMO
          1 000357  0281 0162                            BGE      s:15412,PREL
          1 000359  A830 0000 035F  01                   LDR,R2   s:15366+12,R3
          1 00035C  83A0 0000 0420  01                   JMP      s:15368,R2
          1 00035F       0000                            DC       s:15368,PREL
          1 000360       0007                            DC       s:15370,PREL
          1 000361       000E                            DC       s:15372,PREL
          1 000362       0015                            DC       s:15374,PREL
          1 000363       001C                            DC       s:15376,PREL
          1 000364       0023                            DC       s:15378,PREL
          1 000365       002A                            DC       s:15380,PREL
          1 000366       0031                            DC       s:15382,PREL
          1 000367       009A                            DC       s:15412,PREL
          1 000368       009A                            DC       s:15412,PREL
          1 000369       009A                            DC       s:15412,PREL
          1 00036A       009A                            DC       s:15412,PREL
          1 00036B       009A                            DC       s:15412,PREL
PL6.E3A0      #001=KNN$RECVOSI File=KNN$SUBS.:E05TSI                             WED 07/30/97 01:05 Page:62
          1 00036C       009A                            DC       s:15412,PREL
          1 00036D       009A                            DC       s:15412,PREL
          1 00036E       009A                            DC       s:15412,PREL
          1 00036F       009A                            DC       s:15412,PREL
          1 000370       009A                            DC       s:15412,PREL
          1 000371       009A                            DC       s:15412,PREL
          1 000372       009A                            DC       s:15412,PREL
          1 000373       009A                            DC       s:15412,PREL
          1 000374       009A                            DC       s:15412,PREL
          1 000375       009A                            DC       s:15412,PREL
          1 000376       009A                            DC       s:15412,PREL
          1 000377       009A                            DC       s:15412,PREL
          1 000378       009A                            DC       s:15412,PREL
          1 000379       009A                            DC       s:15412,PREL
          1 00037A       009A                            DC       s:15412,PREL
          1 00037B       009A                            DC       s:15412,PREL
          1 00037C       009A                            DC       s:15412,PREL
          1 00037D       009A                            DC       s:15412,PREL
          1 00037E       009A                            DC       s:15412,PREL
          1 00037F       009A                            DC       s:15412,PREL
          1 000380       009A                            DC       s:15412,PREL
          1 000381       009A                            DC       s:15412,PREL
          1 000382       009A                            DC       s:15412,PREL
          1 000383       009A                            DC       s:15412,PREL
          1 000384       009A                            DC       s:15412,PREL
          1 000385       009A                            DC       s:15412,PREL
          1 000386       009A                            DC       s:15412,PREL
          1 000387       009A                            DC       s:15412,PREL
          1 000388       009A                            DC       s:15412,PREL
          1 000389       009A                            DC       s:15412,PREL
          1 00038A       009A                            DC       s:15412,PREL
          1 00038B       009A                            DC       s:15412,PREL
          1 00038C       009A                            DC       s:15412,PREL
          1 00038D       009A                            DC       s:15412,PREL
          1 00038E       009A                            DC       s:15412,PREL
          1 00038F       009A                            DC       s:15412,PREL
          1 000390       009A                            DC       s:15412,PREL
PL6.E3A0      #001=KNN$RECVOSI File=KNN$SUBS.:E05TSI                             WED 07/30/97 01:05 Page:63
          1 000391       009A                            DC       s:15412,PREL
          1 000392       009A                            DC       s:15412,PREL
          1 000393       009A                            DC       s:15412,PREL
          1 000394       009A                            DC       s:15412,PREL
          1 000395       009A                            DC       s:15412,PREL
          1 000396       009A                            DC       s:15412,PREL
          1 000397       009A                            DC       s:15412,PREL
          1 000398       009A                            DC       s:15412,PREL
          1 000399       009A                            DC       s:15412,PREL
          1 00039A       009A                            DC       s:15412,PREL
          1 00039B       009A                            DC       s:15412,PREL
          1 00039C       009A                            DC       s:15412,PREL
          1 00039D       009A                            DC       s:15412,PREL
          1 00039E       009A                            DC       s:15412,PREL
          1 00039F       009A                            DC       s:15412,PREL
          1 0003A0       009A                            DC       s:15412,PREL
          1 0003A1       009A                            DC       s:15412,PREL
          1 0003A2       009A                            DC       s:15412,PREL
          1 0003A3       009A                            DC       s:15412,PREL
          1 0003A4       009A                            DC       s:15412,PREL
          1 0003A5       009A                            DC       s:15412,PREL
          1 0003A6       009A                            DC       s:15412,PREL
          1 0003A7       009A                            DC       s:15412,PREL
          1 0003A8       009A                            DC       s:15412,PREL
          1 0003A9       009A                            DC       s:15412,PREL
          1 0003AA       009A                            DC       s:15412,PREL
          1 0003AB       009A                            DC       s:15412,PREL
          1 0003AC       009A                            DC       s:15412,PREL
          1 0003AD       009A                            DC       s:15412,PREL
          1 0003AE       009A                            DC       s:15412,PREL
          1 0003AF       009A                            DC       s:15412,PREL
          1 0003B0       009A                            DC       s:15412,PREL
          1 0003B1       009A                            DC       s:15412,PREL
          1 0003B2       009A                            DC       s:15412,PREL
          1 0003B3       009A                            DC       s:15412,PREL
          1 0003B4       009A                            DC       s:15412,PREL
          1 0003B5       009A                            DC       s:15412,PREL
PL6.E3A0      #001=KNN$RECVOSI File=KNN$SUBS.:E05TSI                             WED 07/30/97 01:05 Page:64
          1 0003B6       009A                            DC       s:15412,PREL
          1 0003B7       009A                            DC       s:15412,PREL
          1 0003B8       009A                            DC       s:15412,PREL
          1 0003B9       009A                            DC       s:15412,PREL
          1 0003BA       009A                            DC       s:15412,PREL
          1 0003BB       009A                            DC       s:15412,PREL
          1 0003BC       009A                            DC       s:15412,PREL
          1 0003BD       009A                            DC       s:15412,PREL
          1 0003BE       009A                            DC       s:15412,PREL
          1 0003BF       009A                            DC       s:15412,PREL
          1 0003C0       009A                            DC       s:15412,PREL
          1 0003C1       009A                            DC       s:15412,PREL
          1 0003C2       009A                            DC       s:15412,PREL
          1 0003C3       009A                            DC       s:15412,PREL
          1 0003C4       009A                            DC       s:15412,PREL
          1 0003C5       009A                            DC       s:15412,PREL
          1 0003C6       009A                            DC       s:15412,PREL
          1 0003C7       009A                            DC       s:15412,PREL
          1 0003C8       009A                            DC       s:15412,PREL
          1 0003C9       009A                            DC       s:15412,PREL
          1 0003CA       009A                            DC       s:15412,PREL
          1 0003CB       009A                            DC       s:15412,PREL
          1 0003CC       009A                            DC       s:15412,PREL
          1 0003CD       009A                            DC       s:15412,PREL
          1 0003CE       009A                            DC       s:15412,PREL
          1 0003CF       009A                            DC       s:15412,PREL
          1 0003D0       009A                            DC       s:15412,PREL
          1 0003D1       009A                            DC       s:15412,PREL
          1 0003D2       009A                            DC       s:15412,PREL
          1 0003D3       009A                            DC       s:15412,PREL
          1 0003D4       009A                            DC       s:15412,PREL
          1 0003D5       009A                            DC       s:15412,PREL
          1 0003D6       009A                            DC       s:15412,PREL
          1 0003D7       009A                            DC       s:15412,PREL
          1 0003D8       009A                            DC       s:15412,PREL
          1 0003D9       009A                            DC       s:15412,PREL
          1 0003DA       009A                            DC       s:15412,PREL
PL6.E3A0      #001=KNN$RECVOSI File=KNN$SUBS.:E05TSI                             WED 07/30/97 01:05 Page:65
          1 0003DB       009A                            DC       s:15412,PREL
          1 0003DC       009A                            DC       s:15412,PREL
          1 0003DD       009A                            DC       s:15412,PREL
          1 0003DE       009A                            DC       s:15412,PREL
          1 0003DF       0038                            DC       s:15384,PREL
          1 0003E0       003F                            DC       s:15386,PREL
          1 0003E1       009A                            DC       s:15412,PREL
          1 0003E2       009A                            DC       s:15412,PREL
          1 0003E3       009A                            DC       s:15412,PREL
          1 0003E4       009A                            DC       s:15412,PREL
          1 0003E5       009A                            DC       s:15412,PREL
          1 0003E6       009A                            DC       s:15412,PREL
          1 0003E7       009A                            DC       s:15412,PREL
          1 0003E8       009A                            DC       s:15412,PREL
          1 0003E9       009A                            DC       s:15412,PREL
          1 0003EA       009A                            DC       s:15412,PREL
          1 0003EB       009A                            DC       s:15412,PREL
          1 0003EC       009A                            DC       s:15412,PREL
          1 0003ED       009A                            DC       s:15412,PREL
          1 0003EE       009A                            DC       s:15412,PREL
          1 0003EF       0046                            DC       s:15388,PREL
          1 0003F0       004D                            DC       s:15390,PREL
          1 0003F1       0054                            DC       s:15392,PREL
          1 0003F2       005B                            DC       s:15394,PREL
          1 0003F3       009A                            DC       s:15412,PREL
          1 0003F4       009A                            DC       s:15412,PREL
          1 0003F5       009A                            DC       s:15412,PREL
          1 0003F6       009A                            DC       s:15412,PREL
          1 0003F7       009A                            DC       s:15412,PREL
          1 0003F8       009A                            DC       s:15412,PREL
          1 0003F9       009A                            DC       s:15412,PREL
          1 0003FA       009A                            DC       s:15412,PREL
          1 0003FB       009A                            DC       s:15412,PREL
          1 0003FC       009A                            DC       s:15412,PREL
          1 0003FD       009A                            DC       s:15412,PREL
          1 0003FE       009A                            DC       s:15412,PREL
          1 0003FF       0062                            DC       s:15396,PREL
PL6.E3A0      #001=KNN$RECVOSI File=KNN$SUBS.:E05TSI                             WED 07/30/97 01:05 Page:66
          1 000400       0069                            DC       s:15398,PREL
          1 000401       009A                            DC       s:15412,PREL
          1 000402       009A                            DC       s:15412,PREL
          1 000403       009A                            DC       s:15412,PREL
          1 000404       009A                            DC       s:15412,PREL
          1 000405       009A                            DC       s:15412,PREL
          1 000406       009A                            DC       s:15412,PREL
          1 000407       009A                            DC       s:15412,PREL
          1 000408       009A                            DC       s:15412,PREL
          1 000409       009A                            DC       s:15412,PREL
          1 00040A       009A                            DC       s:15412,PREL
          1 00040B       009A                            DC       s:15412,PREL
          1 00040C       009A                            DC       s:15412,PREL
          1 00040D       009A                            DC       s:15412,PREL
          1 00040E       009A                            DC       s:15412,PREL
          1 00040F       0070                            DC       s:15400,PREL
          1 000410       0077                            DC       s:15402,PREL
          1 000411       007E                            DC       s:15404,PREL
          1 000412       0085                            DC       s:15406,PREL
          1 000413       008C                            DC       s:15408,PREL
          1 000414       009A                            DC       s:15412,PREL
          1 000415       009A                            DC       s:15412,PREL
          1 000416       009A                            DC       s:15412,PREL
          1 000417       009A                            DC       s:15412,PREL
          1 000418       009A                            DC       s:15412,PREL
          1 000419       009A                            DC       s:15412,PREL
          1 00041A       009A                            DC       s:15412,PREL
          1 00041B       009A                            DC       s:15412,PREL
          1 00041C       009A                            DC       s:15412,PREL
          1 00041D       009A                            DC       s:15412,PREL
          1 00041E       009A                            DC       s:15412,PREL
          1 00041F       0093                            DC       s:15410,PREL

      497    15367    5                  CASE(%K_DSCRD_RNS);      /* Reason not specified     */

      498    15368    5                  ERR_CODE = E_DSCRD_RNS;

PL6.E3A0      #001=KNN$RECVOSI File=KNN$SUBS.:E05TSI                             WED 07/30/97 01:05 Page:67
  15368   1 000420  8C80 0000 0005  00                   LDI      E_DSCRD_RNS
          1 000423  8D47 0068                            SDI      ERR_CODE,AUTO
          1 000425  0F81 0099                            B        s:15414,PREL

      499    15369    5                  CASE(%K_DSCRD_PPE);      /* Protocol procedure error */

      500    15370    5                  ERR_CODE = E_DSCRD_PPE;

  15370   1 000427  8C80 0000 0007  00                   LDI      E_DSCRD_PPE
          1 00042A  8D47 0068                            SDI      ERR_CODE,AUTO
          1 00042C  0F81 0092                            B        s:15414,PREL

      501    15371    5                  CASE(%K_DSCRD_IC);       /* Incorrect checksum       */

      502    15372    5                  ERR_CODE = E_DSCRD_IC;

  15372   1 00042E  8C80 0000 0009  00                   LDI      E_DSCRD_IC
          1 000431  8D47 0068                            SDI      ERR_CODE,AUTO
          1 000433  0F81 008B                            B        s:15414,PREL

      503    15373    5                  CASE(%K_DSCRD_CONGEST); /* Pdu discarded due to congestion */

      504    15374    5                  ERR_CODE = E_DSCRD_CONGEST;

  15374   1 000435  8C80 0000 000B  00                   LDI      E_DSCRD_CONGEST
          1 000438  8D47 0068                            SDI      ERR_CODE,AUTO
          1 00043A  0F81 0084                            B        s:15414,PREL

      505    15375    5                  CASE(%K_DSCRD_HDRSNTX);  /* Pdu header syntax error  */

      506    15376    5                  ERR_CODE = E_DSCRD_HDRSNTX;

  15376   1 00043C  8C80 0000 000D  00                   LDI      E_DSCRD_HDRSNTX
          1 00043F  8D47 0068                            SDI      ERR_CODE,AUTO
          1 000441  0F81 007D                            B        s:15414,PREL

      507    15377    5                  CASE(%K_DSCRD_CANTSEG); /* Segmentation needed but not permitted */
PL6.E3A0      #001=KNN$RECVOSI File=KNN$SUBS.:E05TSI                             WED 07/30/97 01:05 Page:68

      508    15378    5                  ERR_CODE = E_DSCRD_CANTSEG;

  15378   1 000443  8C80 0000 000F  00                   LDI      E_DSCRD_CANTSEG
          1 000446  8D47 0068                            SDI      ERR_CODE,AUTO
          1 000448  0F81 0076                            B        s:15414,PREL

      509    15379    5                  CASE(%K_DSCRD_INCMPPDU); /* Incomlete pdu received   */

      510    15380    5                  ERR_CODE = E_DSCRD_INCMPPDU;

  15380   1 00044A  8C80 0000 0011  00                   LDI      E_DSCRD_INCMPPDU
          1 00044D  8D47 0068                            SDI      ERR_CODE,AUTO
          1 00044F  0F81 006F                            B        s:15414,PREL

      511    15381    5                  CASE(%K_DSCRD_DUPOPT);   /* Duplicate option         */

      512    15382    5                  ERR_CODE = E_DSCRD_DUPOPT;

  15382   1 000451  8C80 0000 0013  00                   LDI      E_DSCRD_DUPOPT
          1 000454  8D47 0068                            SDI      ERR_CODE,AUTO
          1 000456  0F81 0068                            B        s:15414,PREL

      513    15383    5                  CASE(%K_DSCRD_DSTUNREACH); /* Destination reachable  */

      514    15384    5                  ERR_CODE = E_DSCRD_DSTUNREACH;

  15384   1 000458  8C80 0000 0015  00                   LDI      E_DSCRD_DSTUNREACH
          1 00045B  8D47 0068                            SDI      ERR_CODE,AUTO
          1 00045D  0F81 0061                            B        s:15414,PREL

      515    15385    5                  CASE(%K_DSCRD_DSTUNKNWN); /* Destination unknown*/

      516    15386    5                  ERR_CODE = E_DSCRD_DSTUNKNWN;

  15386   1 00045F  8C80 0000 0017  00                   LDI      E_DSCRD_DSTUNKNWN
          1 000462  8D47 0068                            SDI      ERR_CODE,AUTO
PL6.E3A0      #001=KNN$RECVOSI File=KNN$SUBS.:E05TSI                             WED 07/30/97 01:05 Page:69
          1 000464  0F81 005A                            B        s:15414,PREL

      517    15387    5                  CASE(%K_DSCRD_SRCRTEERR); /* Unspecifed source routing error*/

      518    15388    5                  ERR_CODE = E_DSCRD_SRCRTEERR;

  15388   1 000466  8C80 0000 0019  00                   LDI      E_DSCRD_SRCRTEERR
          1 000469  8D47 0068                            SDI      ERR_CODE,AUTO
          1 00046B  0F81 0053                            B        s:15414,PREL

      519    15389    5                 CASE(%K_DSCRD_SRCRTESNTX); /* Syntax error in source routing field */

      520    15390    5                  ERR_CODE = E_DSCRD_SRCRTESNTX;

  15390   1 00046D  8C80 0000 001B  00                   LDI      E_DSCRD_SRCRTESNTX
          1 000470  8D47 0068                            SDI      ERR_CODE,AUTO
          1 000472  0F81 004C                            B        s:15414,PREL

      521    15391    5                  CASE(%K_DSCRD_SRCRTEUNKWN);
             15391                           /* Unknown address in source routing field */

      522    15392    5                  ERR_CODE = E_DSCRD_SRCRTEUNKWN;

  15392   1 000474  8C80 0000 001D  00                   LDI      E_DSCRD_SRCRTEUNKWN
          1 000477  8D47 0068                            SDI      ERR_CODE,AUTO
          1 000479  0F81 0045                            B        s:15414,PREL

      523    15393    5                  CASE(%K_DSCRD_PTHNOTACPT); /* Path not acceptable*/

      524    15394    5                  ERR_CODE = E_DSCRD_PTHNOTACPT;

  15394   1 00047B  8C80 0000 001F  00                   LDI      E_DSCRD_PTHNOTACPT
          1 00047E  8D47 0068                            SDI      ERR_CODE,AUTO
          1 000480  0F81 003E                            B        s:15414,PREL

      525    15395    5                  CASE(%K_DSCRD_LIFEEXPTRAN); /* Lifetime expired in transit*/

PL6.E3A0      #001=KNN$RECVOSI File=KNN$SUBS.:E05TSI                             WED 07/30/97 01:05 Page:70
      526    15396    5                  ERR_CODE = E_DSCRD_LIFEEXPTRAN;

  15396   1 000482  8C80 0000 0021  00                   LDI      E_DSCRD_LIFEEXPTRAN
          1 000485  8D47 0068                            SDI      ERR_CODE,AUTO
          1 000487  0F81 0037                            B        s:15414,PREL

      527    15397    5                  CASE(%K_DSCRD_LIFEEXPASSM); /* Lifetime expired during assembly */

      528    15398    5                  ERR_CODE = E_DSCRD_LIFEEXPASSM;

  15398   1 000489  8C80 0000 0023  00                   LDI      E_DSCRD_LIFEEXPASSM
          1 00048C  8D47 0068                            SDI      ERR_CODE,AUTO
          1 00048E  0F81 0030                            B        s:15414,PREL

      529    15399    5                  CASE(%K_DSCRD_OPTNON); /* Unsupported option not specified */

      530    15400    5                  ERR_CODE = E_DSCRD_OPTNON;

  15400   1 000490  8C80 0000 0025  00                   LDI      E_DSCRD_OPTNON
          1 000493  8D47 0068                            SDI      ERR_CODE,AUTO
          1 000495  0F81 0029                            B        s:15414,PREL

      531    15401    5                  CASE(%K_DSCRD_OPTPRCLVERS); /* Unsupported protocol version*/

      532    15402    5                  ERR_CODE = E_DSCRD_OPTPRCLVERS;

  15402   1 000497  8C80 0000 0027  00                   LDI      E_DSCRD_OPTPRCLVERS
          1 00049A  8D47 0068                            SDI      ERR_CODE,AUTO
          1 00049C  0F81 0022                            B        s:15414,PREL

      533    15403    5                  CASE(%K_DSCRD_OPTSEC); /* Unsupported security option*/

      534    15404    5                  ERR_CODE = E_DSCRD_OPTSEC;

  15404   1 00049E  8C80 0000 0029  00                   LDI      E_DSCRD_OPTSEC
          1 0004A1  8D47 0068                            SDI      ERR_CODE,AUTO
          1 0004A3  0F81 001B                            B        s:15414,PREL
PL6.E3A0      #001=KNN$RECVOSI File=KNN$SUBS.:E05TSI                             WED 07/30/97 01:05 Page:71

      535    15405    5                  CASE(%K_DSCRD_OPTSRCRTE); /* Unsupported source routing option*/

      536    15406    5                  ERR_CODE = E_DSCRD_OPTSRCRTE;

  15406   1 0004A5  8C80 0000 002B  00                   LDI      E_DSCRD_OPTSRCRTE
          1 0004A8  8D47 0068                            SDI      ERR_CODE,AUTO
          1 0004AA  0F81 0014                            B        s:15414,PREL

      537    15407    5                  CASE(%K_DSCRD_OPTRECRTE); /* Unsupported recording route option*/

      538    15408    5                  ERR_CODE = E_DSCRD_OPTRECRTE;

  15408   1 0004AC  8C80 0000 002D  00                   LDI      E_DSCRD_OPTRECRTE
          1 0004AF  8D47 0068                            SDI      ERR_CODE,AUTO
          1 0004B1  0F81 000D                            B        s:15414,PREL

      539    15409    5                  CASE(%K_DSCRD_REASSEM);  /* Reassembly interface     */

      540    15410    5                  ERR_CODE = E_DSCRD_REASSEM;

  15410   1 0004B3  8C80 0000 002F  00                   LDI      E_DSCRD_REASSEM
          1 0004B6  8D47 0068                            SDI      ERR_CODE,AUTO
          1 0004B8  0F81 0006                            B        s:15414,PREL

      541    15411    5                  CASE(ELSE);

      542    15412    5                  ERR_CODE = E_DSCRD_RNS;

  15412   1 0004BA  8C80 0000 0005  00                   LDI      E_DSCRD_RNS
          1 0004BD  8D47 0068                            SDI      ERR_CODE,AUTO

      543    15413    5                  END;                     /* do case (err_code)*/

      544    15414    4               ADDR(ERRVAL(0))->CALLEDFROM$ = ENTADDR(KNN$RECVOSI);

  15414   1 0004BF  CBC0 FB40                            LAB,B4   s:21,PREL
PL6.E3A0      #001=KNN$RECVOSI File=KNN$SUBS.:E05TSI                             WED 07/30/97 01:05 Page:72
          1 0004C1  CFC7 0081                            STB,B4   ERRVAL,AUTO

      545    15415    4               CALL GHE$ERRLOG(ERR_CODE,ERRVAL,K$NPDU_FIXED,SIZEC(K$NPDU_FIXED),'0'B);

  15415   1 0004C3  BCC6 000E                            LDB,B3   14,B6
          1 0004C5  9BF0 000A                            LAB,B1   10,IMO
          1 0004C7  EBF0 0000                            LAB,B6   0,IMO
          1 0004C9  EFC7 0098                            STB,B6   SNPATMPLT3+15,AUTO
          1 0004CB  9FC7 0096                            STB,B1   SNPATMPLT3+13,AUTO
          1 0004CD  BFC7 0094                            STB,B3   SNPATMPLT3+11,AUTO
          1 0004CF  EBC7 0081                            LAB,B6   ERRVAL,AUTO
          1 0004D1  EFC7 0092                            STB,B6   SNPATMPLT3+9,AUTO
          1 0004D3  EBC7 0068                            LAB,B6   ERR_CODE,AUTO
          1 0004D5  EFC7 0090                            STB,B6   SNPATMPLT3+7,AUTO
          1 0004D7  BBC7 0090                            LAB,B3   SNPATMPLT3+7,AUTO
          1 0004D9  CBF0 0500                            LAB,B4   1280,IMO
          1 0004DB  E380 0000 0000  xent                 LNJ,B6   GHE$ERRLOG
          1 0004DE       0001                            DC       s:15416,PREL

      546    15416    4               GOTO EXITOSINET;

  15416   1 0004DF  0F81 021D                            B        s:15552,PREL

      547    15417    4               END;
      548    15418    3            ELSE
      549    15419    4               IF K$NPDU_FIXED.TYPE ~= %K_ESH_PDU OR K$NPDU_FIXED.TYPE ~= %K_ISH_PDU
             15419                        THEN DO;

  15419   1 0004E1  3D02                                 CMV,R3   2
          1 0004E2  0981 0004                            BNE      s:15420,PREL
          1 0004E4  3D04                                 CMV,R3   4
          1 0004E5  0901 000B                            BE       s:15427,PREL

      550    15420    4                  KN$NETPARM.ERRCODE = %K_DSCRD_HDRSNTX;

  15420   1 0004E7  2C04                                 LDV,R2   4
          1 0004E8  AF46 0016                            STR,R2   22,B6
PL6.E3A0      #001=KNN$RECVOSI File=KNN$SUBS.:E05TSI                             WED 07/30/97 01:05 Page:73

      551    15421    4                  ERR_CODE = E_DSCRD_HDRSNTX;

  15421   1 0004EA  8C80 0000 000D  00                   LDI      E_DSCRD_HDRSNTX
          1 0004ED  8D47 0068                            SDI      ERR_CODE,AUTO

      552    15422    4                  GOTO ERR;

  15422   1 0004EF  0F81 01D3                            B        s:15537,PREL

      553    15423    4                  END;
      554    15424
      555    15425    3            END;
      556    15426
      557    15427    3         IF DSTROUTE.NS_TYPE = %K_TYPE_LNSAP THEN DO;

  15427   1 0004F1  4D01                                 CMV,R4   1
          1 0004F2  0981 00B7                            BNE      s:15486,PREL

      558    15428        /*
      559    15429             the destination address is one of our addresses.  make sure that the
      560    15430             destination node specified is a host and that it is link connected
      561    15431        */
      562    15432    3            IF DSTROUTE.HOST# > KNN_NODES

  15432   1 0004F4  A2C7 0049                            LLH,R2   DSTROUTE+1,AUTO
          1 0004F6  A900 0000 0000  xsym                 CMR,R2   KNN_NODES
          1 0004F9  0301 0019                            BG       s:15439,PREL
          1 0004FB  CC80 0000 0000  xsym                 LDB,B4   KNN_ROUTE$$
          1 0004FE  BCA4                                 LDB,B3   ,B4,R2
          1 0004FF  82C3 0007                            LB,'4000'X        7,B3
          1 000501       4000
          1 000502  0581 0010                            BBF      s:15439,PREL
          1 000504  89C3 0007                            CMZ      7,B3
          1 000506  0881 000C                            BAGE     s:15439,PREL
          1 000508  D970 00FF                            CMR,R5   255,IMO
          1 00050A  0901 0008                            BE       s:15439,PREL
PL6.E3A0      #001=KNN$RECVOSI File=KNN$SUBS.:E05TSI                             WED 07/30/97 01:05 Page:74
          1 00050C  8D83                                 CMN      ,B3
          1 00050D  0901 0005                            BE       s:15439,PREL
          1 00050F  AC83                                 LDB,B2   ,B3
          1 000510  8D82                                 CMN      ,B2
          1 000511  0981 000C                            BNE      s:15444,PREL

      563    15433    3              OR NOT KNN$ROUTE$(DSTROUTE.HOST#)->KNN$ROUTE.FLAGS.LINK_CONNECTED
      564    15434    3              OR NOT KNN$ROUTE$(DSTROUTE.HOST#)->KNN$ROUTE.FLAGS.HOST_NODE
      565    15435    3              OR DSTROUTE.QOS = 255
      566    15436    3              OR KNN$ROUTE$(DSTROUTE.HOST#)->KNN$ROUTE.LINK$ = ADDR(NIL)
      567    15437    3             OR KNN$ROUTE$(DSTROUTE.HOST#)->KNN$ROUTE.LINK$->KNN$LINK.LDCT$ = ADDR(NIL
             15437                       )
      568    15438    4            THEN DO;

      569    15439    4               KN$NETPARM.ERRCODE = %K_DSCRD_DSTUNREACH;

  15439   1 000513  9870 0080                            LDR,R1   128,IMO
          1 000515  9F46 0016                            STR,R1   22,B6

      570    15440    4               ERR_CODE = E_DSCRD_DSTUNREACH;

  15440   1 000517  8C80 0000 0015  00                   LDI      E_DSCRD_DSTUNREACH
          1 00051A  8D47 0068                            SDI      ERR_CODE,AUTO

      571    15441    4               GOTO ERR;

  15441   1 00051C  0F81 01A6                            B        s:15537,PREL

      572    15442    4               END;
      573    15443
      574    15444    3            KN$NETPARM.FUNCTION = %K_NDATA;

  15444   1 00051E  1C21                                 LDV,R1   33
          1 00051F  9F46 0014                            STR,R1   20,B6

      575    15445    4            IF K$NPDU_FIXED.MS = '0'B AND SEGMENT.TOTLEN = SEGLENGTH THEN DO;

PL6.E3A0      #001=KNN$RECVOSI File=KNN$SUBS.:E05TSI                             WED 07/30/97 01:05 Page:75
  15445   1 000521  82C5 0002                            LB,'4000'X        2,B5
  15445   1 000523       4000
          1 000524  0501 0053                            BBT      s:15467,PREL
          1 000526  E847 0029                            LDR,R6   SEGMENT+2,AUTO
          1 000528  E947 006F                            CMR,R6   SEGLENGTH,AUTO
          1 00052A  0981 004D                            BNE      s:15467,PREL

      576    15446    4               KN$NETPARM.NODE = DSTROUTE.HOST#;

  15446   1 00052C  D2C7 0049                            LLH,R5   DSTROUTE+1,AUTO
          1 00052E  DF46 0015                            STR,R5   21,B6

      577    15447    5               CALL KNT$RECV_4HOST(KN$NETPARM) WHENRETURN DO;

  15447   1 000530  BBC7 0004                            LAB,B3   @KN$NETPARM,AUTO
          1 000532  CBF0 0100                            LAB,B4   256,IMO
          1 000534  E380 0000 0000  xent                 LNJ,B6   KNT$RECV_4HOST
          1 000537       0007                            DC       s:15451,PREL

      578    15448    5                  KN$NETPARM.THDRSZ = 0;

  15448   1 000538  ECC7 0004                            LDB,B6   @KN$NETPARM,AUTO
          1 00053A  8746 000D                            CL       13,B6

      579    15449    5                  END;

  15449   1 00053C  0F81 0009                            B        s:15455,PREL

      580    15450    5               WHENALTRETURN DO;

      581    15451    5                  IF KN$NETPARM.ERRCODE ~= 0 THEN GOTO ERR2; /*altret*/

  15451   1 00053E  ECC7 0004                            LDB,B6   @KN$NETPARM,AUTO
          1 000540  E846 0016                            LDR,R6   22,B6
          1 000542  6981 01C8                            BNEZ,R6  s:15558,PREL

      582    15452    5                  ELSE                /* message buffered by trans     */
PL6.E3A0      #001=KNN$RECVOSI File=KNN$SUBS.:E05TSI                             WED 07/30/97 01:05 Page:76
      583    15453    5                     GOTO EXITOSINET;

  15453   1 000544  0F81 01B8                            B        s:15552,PREL

      584    15454    5                  END;
      585    15455    4              KN$NETPARM.LDCT$ = KNN$ROUTE$(DSTROUTE.HOST#)->KNN$ROUTE.LINK$->KNN$LINK
             15455                        .LDCT$;

  15455   1 000546  DC80 0000 0000  xsym                 LDB,B5   KNN_ROUTE$$
          1 000549  B2C7 0049                            LLH,R3   DSTROUTE+1,AUTO
          1 00054B  CCB5                                 LDB,B4   ,B5,R3
          1 00054C  BC84                                 LDB,B3   ,B4
          1 00054D  AC83                                 LDB,B2   ,B3
          1 00054E  AF86                                 STB,B2   ,B6

      586    15456    4               NQDP_HDR = K$NQDP_HDR_C;

  15456   1 00054F  8C80 0000 0000  00                   LDI      K$NQDP_HDR_C
          1 000552  8D47 0066                            SDI      NQDP_HDR,AUTO

      587    15457    4               NQDP_HDR.DEST_NODE = DSTROUTE.HOST#+1;

  15457   1 000554  D2C7 0049                            LLH,R5   DSTROUTE+1,AUTO
          1 000556  5E01                                 ADV,R5   1
          1 000557  D7C7 0067                            STH,R5   NQDP_HDR+1,AUTO

      588    15458    4               NQDP_HDR.SOURCE_NODE = SRCROUTE.FEP#+1;

  15458   1 000559  C847 002B                            LDR,R4   SRCROUTE+1,AUTO
          1 00055B  C570 00FF                            AND,R4   255,IMO
          1 00055D  4E01                                 ADV,R4   1
          1 00055E  CAC7 0067                            SRM,R4,'00FF'X    NQDP_HDR+1,AUTO
          1 000560       00FF

      589    15459    4               KN$NETPARM.NHDR$ = ADDR(NQDP_HDR);

  15459   1 000561  DBC7 0066                            LAB,B5   NQDP_HDR,AUTO
PL6.E3A0      #001=KNN$RECVOSI File=KNN$SUBS.:E05TSI                             WED 07/30/97 01:05 Page:77
          1 000563  DFC6 000E                            STB,B5   14,B6

      590    15460    4               KN$NETPARM.NHDRSZ = LENGTHC(NQDP_HDR);

  15460   1 000565  5C04                                 LDV,R5   4
          1 000566  DF46 0010                            STR,R5   16,B6

      591    15461    4               KN$NETPARM.UHDRSZ = 0;

  15461   1 000568  8746 0007                            CL       7,B6

      592    15462    4              KN$NETPARM.LDCT$ = KNN$ROUTE$(DSTROUTE.HOST#)->KNN$ROUTE.LINK$->KNN$LINK
             15462                        .LDCT$;

  15462   1 00056A  CC80 0000 0000  xsym                 LDB,B4   KNN_ROUTE$$
          1 00056D  B2C7 0049                            LLH,R3   DSTROUTE+1,AUTO
          1 00056F  BCB4                                 LDB,B3   ,B4,R3
          1 000570  AC83                                 LDB,B2   ,B3
          1 000571  9C82                                 LDB,B1   ,B2
          1 000572  9F86                                 STB,B1   ,B6

      593    15463    4               CALL FORWARD ALTRET(ERR2);

  15463   1 000573  E3C0 01A5                            LNJ,B6   s:0,PREL
          1 000575       0196                            DC       s:15558,PREL

      594    15464    4               GOTO EXITOSINET;

  15464   1 000576  0F81 0186                            B        s:15552,PREL

      595    15465    4               END;
      596    15466    4            ELSE DO;

      597    15467    4               KN$NETPARM.NODE = DSTROUTE.HOST#;

  15467   1 000578  E2C7 0049                            LLH,R6   DSTROUTE+1,AUTO
          1 00057A  EF46 0015                            STR,R6   21,B6
PL6.E3A0      #001=KNN$RECVOSI File=KNN$SUBS.:E05TSI                             WED 07/30/97 01:05 Page:78

      598    15468    5               CALL KNN$REASSEM(KN$NETPARM,DSTROUTE,SRCROUTE) WHENALTRETURN DO;

  15468   1 00057C  BBC7 002A                            LAB,B3   SRCROUTE,AUTO
          1 00057E  BFC7 0094                            STB,B3   SNPATMPLT3+11,AUTO
          1 000580  DBC7 0048                            LAB,B5   DSTROUTE,AUTO
          1 000582  DFC7 0092                            STB,B5   SNPATMPLT3+9,AUTO
          1 000584  EFC7 0090                            STB,B6   SNPATMPLT3+7,AUTO
          1 000586  BBC7 0090                            LAB,B3   SNPATMPLT3+7,AUTO
          1 000588  CBF0 0300                            LAB,B4   768,IMO
          1 00058A  E380 0000 0000  xent                 LNJ,B6   KNN$REASSEM
          1 00058D       0003                            DC       s:15469,PREL
          1 00058E  0F81 0019                            B        s:15481,PREL

      599    15469    5                  IF KN$NETPARM.ERRCODE = 0 THEN

  15469   1 000590  ECC7 0004                            LDB,B6   @KN$NETPARM,AUTO
          1 000592  E846 0016                            LDR,R6   22,B6
          1 000594  6901 0168                            BEZ,R6   s:15552,PREL

      600    15470        /*
      601    15471           message complete and delivered to transport and forwarded to the host.
      602    15472        */
      603    15473    5                     GOTO EXITOSINET;
      604    15474    5                  IF KN$NETPARM.ERRCODE = %K_DSCRD_REASSEM THEN

  15474   1 000596  E970 00C0                            CMR,R6   192,IMO
          1 000598  0981 0008                            BNE      s:15477,PREL

      605    15475    5                     ERR_CODE = E_DSCRD_REASSEM;

  15475   1 00059A  8C80 0000 002F  00                   LDI      E_DSCRD_REASSEM
          1 00059D  8D47 0068                            SDI      ERR_CODE,AUTO
          1 00059F  0F81 0006                            B        s:15478,PREL

      606    15476    5                  ELSE
      607    15477    5                     ERR_CODE = E_DSCRD_CANTSEG;
PL6.E3A0      #001=KNN$RECVOSI File=KNN$SUBS.:E05TSI                             WED 07/30/97 01:05 Page:79

  15477   1 0005A1  8C80 0000 000F  00                   LDI      E_DSCRD_CANTSEG
          1 0005A4  8D47 0068                            SDI      ERR_CODE,AUTO

      608    15478    5                  GOTO ERR;

  15478   1 0005A6  0F81 011C                            B        s:15537,PREL

      609    15479    5                  END;
      610    15480    4               END;

      611    15481    3            END;                           /* if dstforhost            */

  15481   1 0005A8  0F81 0118                            B        s:15541,PREL

      612    15482    3         ELSE DO;                          /* else type = rnsap        */

      613    15483             /*
      614    15484             search vc list for a currently active connection
      615    15485             */
      616    15486    4            DO J = 0 TO KNN_LINKS - 1;

  15486   1 0005AA  8747 0080                            CL       J,AUTO
          1 0005AC  0F81 0065                            B        s:15493+2,PREL

      617    15487    4               LINK$ = KNN$LINK$(J);

  15487   1 0005AE  EC80 0000 0000  xsym                 LDB,B6   KNN_LINK$$
          1 0005B1  B847 0080                            LDR,R3   J,AUTO
          1 0005B3  DCB6                                 LDB,B5   ,B6,R3
          1 0005B4  DFC7 0076                            STB,B5   LINK$,AUTO

      618    15488    4               IF KNN$LINK.FLAGS.VIRCIR

  15488   1 0005B6  82C5 0003                            LB,'1000'X        3,B5
  15488   1 0005B8       1000
          1 0005B9  0581 0056                            BBF      s:15493,PREL
PL6.E3A0      #001=KNN$RECVOSI File=KNN$SUBS.:E05TSI                             WED 07/30/97 01:05 Page:80
          1 0005BB  E845 0002                            LDR,R6   2,B5
          1 0005BD  E970 00FD                            CMR,R6   253,IMO
          1 0005BF  0201 0050                            BL       s:15493,PREL
          1 0005C1  D2C7 0062                            LLH,R5   DSTROUTE+26,AUTO
          1 0005C3  C2C5 001F                            LLH,R4   31,B5
          1 0005C5  D954                                 CMR,R5   R4
          1 0005C6  0981 0049                            BNE      s:15493,PREL

      619    15489    4                 AND KNN$LINK.NODE# >= %K_CNC_IS#
      620    15490    5                 AND DSTROUTE.SNPA.LEN = KNN$LINK.SNPA.LEN THEN DO;

      621    15491    5                  SNPATMPLT1 = DSTROUTE.SNPA.ADDRESS;

  15491   1 0005C8  0021                                 ALR      ;
          1 0005C9       C707 0062                                ALPHANUM(DSTROUTE+26,AUTO,1,7),;
          1 0005CB       4807 0085                                ALPHANUM(SNPATMPLT1,AUTO,,8,FILL)

      622    15492    5                  SNPATMPLT3 = KNN$LINK.SNPA.ADDRESS;

  15492   1 0005CD  0021                                 ALR      ;
          1 0005CE       C705 001F                                ALPHANUM(31,B5,1,7),;
          1 0005D0       4807 0089                                ALPHANUM(SNPATMPLT3,AUTO,,8,FILL)

      623    15493    6                  DO I = 0 TO DSTROUTE.SNPA.LEN - 1;

  15493   1 0005D2  437F                                 CSYNC    s:15492+4,SPREL
          1 0005D3  8747 007F                            CL       I,AUTO
          1 0005D5  0F81 002A                            B        s:15496+2,PREL

      624    15494    6                     IF SNPATMPLT2.NIBBLES.NIB(I) ~= SNPATMPLT4.NIBBLES.NIB(I) THEN

  15494   1 0005D7  ABC7 0085                            LAB,B2   SNPATMPLT1,AUTO
          1 0005D9  A847 007F                            LDR,R2   I,AUTO
          1 0005DB  2002                                 SOL,R2   2
          1 0005DC  6C04                                 LDV,R6   4
          1 0005DD  BBC7 0090                            LAB,B3   SNPATMPLT3+7,AUTO
          1 0005DF  3C00                                 LDV,R3   0
PL6.E3A0      #001=KNN$RECVOSI File=KNN$SUBS.:E05TSI                             WED 07/30/97 01:05 Page:81
          1 0005E0  7C10                                 LDV,R7   16
          1 0005E1  D380 0000 0000  xent                 LNJ,B5   X6B_BLR
          1 0005E4  E847 0090                            LDR,R6   SNPATMPLT3+7,AUTO
          1 0005E6  604C                                 SOR,R6   12
          1 0005E7  EF47 0092                            STR,R6   SNPATMPLT3+9,AUTO
          1 0005E9  ABC7 0089                            LAB,B2   SNPATMPLT3,AUTO
          1 0005EB  A847 007F                            LDR,R2   I,AUTO
          1 0005ED  2002                                 SOL,R2   2
          1 0005EE  6C04                                 LDV,R6   4
          1 0005EF  BBC7 0090                            LAB,B3   SNPATMPLT3+7,AUTO
          1 0005F1  3C10                                 LDV,R3   16
          1 0005F2  7C10                                 LDV,R7   16
          1 0005F3  D380 0000 0000  xent                 LNJ,B5   X6B_BLR
          1 0005F6  E847 0091                            LDR,R6   SNPATMPLT3+8,AUTO
          1 0005F8  604C                                 SOR,R6   12
          1 0005F9  D847 0092                            LDR,R5   SNPATMPLT3+9,AUTO
          1 0005FB  E955                                 CMR,R6   R5
          1 0005FC  0981 0013                            BNE      s:15493,PREL

      625    15495    6                        GOTO NXTJ;
      626    15496    6                     END;                  /* i = 0 to len-1           */

  15496   1 0005FE  8AC7 007F                            INC      I,AUTO
          1 000600  E2C7 0062                            LLH,R6   DSTROUTE+26,AUTO
          1 000602  E947 007F                            CMR,R6   I,AUTO
          1 000604  0353                                 BG       s:15494,SPREL

      627    15497    5                  KN$NETPARM.LDCT$ = KNN$LINK.LDCT$;

  15497   1 000605  ECC7 0076                            LDB,B6   LINK$,AUTO
          1 000607  DC86                                 LDB,B5   ,B6
          1 000608  CCC7 0004                            LDB,B4   @KN$NETPARM,AUTO
          1 00060A  DF84                                 STB,B5   ,B4

      628    15498    5                  CALL FORWARD ALTRET(ERR2);

  15498   1 00060B  E3C0 010D                            LNJ,B6   s:0,PREL
PL6.E3A0      #001=KNN$RECVOSI File=KNN$SUBS.:E05TSI                             WED 07/30/97 01:05 Page:82
          1 00060D       00FE                            DC       s:15558,PREL

      629    15499    5                  GOTO EXITOSINET;

  15499   1 00060E  0F81 00EE                            B        s:15552,PREL

  15493   1                              NXTJ            null
      630    15500    5                  END;                     /*  if vircir et al         */
      631    15501    4   NXTJ:       ;
      632    15502    4               END;                        /* do j = 0 to knn_links    */

  15502   1 000610  8AC7 0080            NXTJ            INC      J,AUTO
          1 000612  E847 0080                            LDR,R6   J,AUTO
          1 000614  E900 0000 0000  xsym                 CMR,R6   KNN_LINKS
          1 000617  0201 FF96                            BL       s:15487,PREL

      633    15503                /*
      634    15504                no vc connection currently running.  try to find a substr match
      635    15505                */
      636    15506    4            DO J = 0 TO KNN_LINKS - 1;

  15506   1 000619  8747 0080                            CL       J,AUTO
          1 00061B  0F81 0072                            B        s:15517+2,PREL

      637    15507    4               LINK$ = KNN$LINK$(J);

  15507   1 00061D  EC80 0000 0000  xsym                 LDB,B6   KNN_LINK$$
          1 000620  B847 0080                            LDR,R3   J,AUTO
          1 000622  DCB6                                 LDB,B5   ,B6,R3
          1 000623  DFC7 0076                            STB,B5   LINK$,AUTO

      638    15508    5               IF NOT KNN$LINK.FLAGS.VIRCIR AND KNN$LINK.NODE# >= %K_CNC_IS# THEN DO;

  15508   1 000625  82C5 0003                            LB,'1000'X        3,B5
  15508   1 000627       1000
          1 000628  0501 0063                            BBT      s:15517,PREL
          1 00062A  E845 0002                            LDR,R6   2,B5
PL6.E3A0      #001=KNN$RECVOSI File=KNN$SUBS.:E05TSI                             WED 07/30/97 01:05 Page:83
          1 00062C  E970 00FD                            CMR,R6   253,IMO
          1 00062E  0201 005D                            BL       s:15517,PREL

      639    15509    5                  SNPATMPLT1 = DSTROUTE.SNPA.ADDRESS;

  15509   1 000630  0021                                 ALR      ;
          1 000631       C707 0062                                ALPHANUM(DSTROUTE+26,AUTO,1,7),;
          1 000633       4807 0085                                ALPHANUM(SNPATMPLT1,AUTO,,8,FILL)

      640    15510    5                  SNPATMPLT3 = KNN$LINK.SNPA.ADDRESS;

  15510   1 000635  0021                                 ALR      ;
          1 000636       C705 001F                                ALPHANUM(31,B5,1,7),;
          1 000638       4807 0089                                ALPHANUM(SNPATMPLT3,AUTO,,8,FILL)

      641    15511    6                  DO I = 0 TO MINIMUM(DSTROUTE.NSAP.LEN,KNN$LINK.SNPA.LEN)-1;

  15511   1 00063A  437F                                 CSYNC    s:15510+4,SPREL
          1 00063B  8747 007F                            CL       I,AUTO
          1 00063D  0F81 002A                            B        s:15514+2,PREL

      642    15512    6                     IF SNPATMPLT2.NIBBLES.NIB(I) ~= SNPATMPLT4.NIBBLES.NIB(I) THEN

  15512   1 00063F  ABC7 0085                            LAB,B2   SNPATMPLT1,AUTO
          1 000641  A847 007F                            LDR,R2   I,AUTO
          1 000643  2002                                 SOL,R2   2
          1 000644  6C04                                 LDV,R6   4
          1 000645  BBC7 0090                            LAB,B3   SNPATMPLT3+7,AUTO
          1 000647  3C00                                 LDV,R3   0
          1 000648  7C10                                 LDV,R7   16
          1 000649  D380 0000 0000  xent                 LNJ,B5   X6B_BLR
          1 00064C  E847 0090                            LDR,R6   SNPATMPLT3+7,AUTO
          1 00064E  604C                                 SOR,R6   12
          1 00064F  EF47 0092                            STR,R6   SNPATMPLT3+9,AUTO
          1 000651  ABC7 0089                            LAB,B2   SNPATMPLT3,AUTO
          1 000653  A847 007F                            LDR,R2   I,AUTO
          1 000655  2002                                 SOL,R2   2
PL6.E3A0      #001=KNN$RECVOSI File=KNN$SUBS.:E05TSI                             WED 07/30/97 01:05 Page:84
          1 000656  6C04                                 LDV,R6   4
          1 000657  BBC7 0090                            LAB,B3   SNPATMPLT3+7,AUTO
          1 000659  3C10                                 LDV,R3   16
          1 00065A  7C10                                 LDV,R7   16
          1 00065B  D380 0000 0000  xent                 LNJ,B5   X6B_BLR
          1 00065E  E847 0091                            LDR,R6   SNPATMPLT3+8,AUTO
          1 000660  604C                                 SOR,R6   12
          1 000661  D847 0092                            LDR,R5   SNPATMPLT3+9,AUTO
          1 000663  E955                                 CMR,R6   R5
          1 000664  0981 0027                            BNE      s:15517,PREL

      643    15513    6                        GOTO NXTJ2;
      644    15514    6                     END;             /* do i = 0 to min(len,len)-1    */

  15514   1 000666  8AC7 007F                            INC      I,AUTO
          1 000668  ECC7 0076                            LDB,B6   LINK$,AUTO
          1 00066A  E2C6 001F                            LLH,R6   31,B6
          1 00066C  D2C7 004C                            LLH,R5   DSTROUTE+4,AUTO
          1 00066E  D956                                 CMR,R5   R6
          1 00066F  0281 0002                            BGE      s:15514+12,PREL
          1 000671  E855                                 LDR,R6   R5
          1 000672  E947 007F                            CMR,R6   I,AUTO
          1 000674  034B                                 BG       s:15512,SPREL

      645    15515    5                  FPT_NSAP.NSAP.LEN = DSTROUTE.SNPA.LEN;

  15515   1 000675  E2C7 0062                            LLH,R6   DSTROUTE+26,AUTO
          1 000677  E7C7 001C                            STH,R6   FPT_NSAP,AUTO

      646    15516    5                  FPT_NSAP.NSAP.ADDRESS = DSTROUTE.SNPA.ADDRESS;

  15516   1 000679  0021                                 ALR      ;
          1 00067A       C707 0062                                ALPHANUM(DSTROUTE+26,AUTO,1,7),;
          1 00067C       5407 001D                                ALPHANUM(FPT_NSAP+1,AUTO,,20,FILL)

      647    15517    5                  KN$NETPARM.FPT$ = ADDR(FPT_NSAP);

PL6.E3A0      #001=KNN$RECVOSI File=KNN$SUBS.:E05TSI                             WED 07/30/97 01:05 Page:85
  15517   1 00067E  DBC7 001C                            LAB,B5   FPT_NSAP,AUTO
          1 000680  CCC7 0004                            LDB,B4   @KN$NETPARM,AUTO
          1 000682  437F                                 CSYNC    s:15517+3,SPREL
          1 000683  DFC4 0019                            STB,B5   25,B4

      648    15518    5                  KN$NETPARM.LDCT$ = KNN$LINK.LDCT$;

  15518   1 000685  BC86                                 LDB,B3   ,B6
          1 000686  BF84                                 STB,B3   ,B4

      649    15519    5                  CALL FORWARD ALTRET(ERR2);

  15519   1 000687  E3C0 0091                            LNJ,B6   s:0,PREL
          1 000689       0082                            DC       s:15558,PREL

      650    15520    5                  GOTO EXITOSINET;

  15520   1 00068A  0F81 0072                            B        s:15552,PREL

  15517   1                              NXTJ2           null
      651    15521    5                  END;                     /* not vc and node# > is    */
      652    15522    4   NXTJ2:      ;
      653    15523    4               END;                   /* do j = 0 to knn_links - 1     */

  15523   1 00068C  8AC7 0080            NXTJ2           INC      J,AUTO
          1 00068E  E847 0080                            LDR,R6   J,AUTO
          1 000690  E900 0000 0000  xsym                 CMR,R6   KNN_LINKS
          1 000693  0201 FF89                            BL       s:15507,PREL

      654    15524    3            END;                           /* else type = rnsap        */

      655    15525    2         END;                              /* If dstnode = KN_NODE#    */

  15525   1 000695  0F81 002B                            B        s:15541,PREL

      656    15526    2      ELSE DO;                   /* message not bound for our node     */

PL6.E3A0      #001=KNN$RECVOSI File=KNN$SUBS.:E05TSI                             WED 07/30/97 01:05 Page:86
      657    15527
      658    15528    2         ROUTE$ = KNN$ROUTE$(DSTROUTE.FEP#);

  15528   1 000697  B856                                 LDR,R3   R6
          1 000698  EC80 0000 0000  xsym                 LDB,B6   KNN_ROUTE$$
          1 00069B  DCB6                                 LDB,B5   ,B6,R3
          1 00069C  DFC7 0078                            STB,B5   ROUTE$,AUTO

      659    15529    2         LINK$ = KNN$ROUTE.LINK$;

  15529   1 00069E  CC85                                 LDB,B4   ,B5
          1 00069F  CFC7 0076                            STB,B4   LINK$,AUTO

      660    15530
      661    15531    2         IF KNN$ROUTE.CURRENT_QOS = 255

  15531   1 0006A1  A845 0005                            LDR,R2   5,B5
          1 0006A3  A970 00FF                            CMR,R2   255,IMO
          1 0006A5  0901 0007                            BE       s:15533,PREL
          1 0006A7  8D85                                 CMN      ,B5
          1 0006A8  0901 0004                            BE       s:15533,PREL
          1 0006AA  8D84                                 CMN      ,B4
          1 0006AB  0981 000E                            BNE      s:15537,PREL

      662    15532    3           OR KNN$ROUTE.LINK$ = ADDR(NIL) OR KNN$LINK.LDCT$ = ADDR(NIL) THEN DO;

      663    15533    3            KN$NETPARM.ERRCODE = %K_DSCRD_DSTUNREACH;

  15533   1 0006AD  BCC7 0004                            LDB,B3   @KN$NETPARM,AUTO
          1 0006AF  9870 0080                            LDR,R1   128,IMO
          1 0006B1  9F43 0016                            STR,R1   22,B3

      664    15534    3            ERR_CODE = E_DSCRD_DSTUNREACH;

  15534   1 0006B3  8C80 0000 0015  00                   LDI      E_DSCRD_DSTUNREACH
          1 0006B6  8D47 0068                            SDI      ERR_CODE,AUTO

PL6.E3A0      #001=KNN$RECVOSI File=KNN$SUBS.:E05TSI                             WED 07/30/97 01:05 Page:87
      665    15535    3            GOTO ERR;

  15535   1 0006B8  0F81 000A                            B        s:15537,PREL

      666    15536    3            END;
      667    15537    2         KN$NETPARM.LDCT$ = KNN$LINK.LDCT$;

  15537   1 0006BA  BC84                                 LDB,B3   ,B4
          1 0006BB  ACC7 0004                            LDB,B2   @KN$NETPARM,AUTO
          1 0006BD  BF82                                 STB,B3   ,B2

      668    15538    2         CALL FORWARD ALTRET(ERR2);

  15538   1 0006BE  E3C0 005A                            LNJ,B6   s:0,PREL
          1 0006C0       004B                            DC       s:15558,PREL

      669    15539    2         END;               /* else message not bound for this node    */

      670    15540
      671    15541    1      GOTO EXITOSINET;

  15541   1 0006C1  0F81 003B                            B        s:15552,PREL

  15537   1                              ERR             null
      672    15542
      673    15543    1   ERR:; /* message is to be discarded and a error pdu generated if possible*/
      674    15544    1      ADDR(ERRVAL(0))->CALLEDFROM$ = ENTADDR(KNN$RECVOSI);

  15544   1 0006C3  EBC0 F93C            ERR             LAB,B6   s:21,PREL
          1 0006C5  EFC7 0081                            STB,B6   ERRVAL,AUTO

      675    15545    1      CALL GHE$ERRLOG(ERR_CODE,ERRVAL,K$NPDU_FIXED,SIZEC(K$NPDU_FIXED),'0'B);

  15545   1 0006C7  DCC7 0004                            LDB,B5   @KN$NETPARM,AUTO
          1 0006C9  CCC5 000E                            LDB,B4   14,B5
          1 0006CB  BBF0 000A                            LAB,B3   10,IMO
          1 0006CD  ABF0 0000                            LAB,B2   0,IMO
PL6.E3A0      #001=KNN$RECVOSI File=KNN$SUBS.:E05TSI                             WED 07/30/97 01:05 Page:88
          1 0006CF  AFC7 0098                            STB,B2   SNPATMPLT3+15,AUTO
          1 0006D1  BFC7 0096                            STB,B3   SNPATMPLT3+13,AUTO
          1 0006D3  CFC7 0094                            STB,B4   SNPATMPLT3+11,AUTO
          1 0006D5  9BC7 0081                            LAB,B1   ERRVAL,AUTO
          1 0006D7  9FC7 0092                            STB,B1   SNPATMPLT3+9,AUTO
          1 0006D9  EBC7 0068                            LAB,B6   ERR_CODE,AUTO
          1 0006DB  EFC7 0090                            STB,B6   SNPATMPLT3+7,AUTO
          1 0006DD  BBC7 0090                            LAB,B3   SNPATMPLT3+7,AUTO
          1 0006DF  CBF0 0500                            LAB,B4   1280,IMO
          1 0006E1  E380 0000 0000  xent                 LNJ,B6   GHE$ERRLOG
          1 0006E4       0001                            DC       s:15550,PREL

      676    15546        /*
      677    15547                switch the source and destination so that senderr
      678    15548                will send the error back to the bad pdus originator
      679    15549        */
      680    15550    1      KN$NETPARM.NODE = SRCROUTE.FEP#;

  15550   1 0006E5  ECC7 0004                            LDB,B6   @KN$NETPARM,AUTO
          1 0006E7  E847 002B                            LDR,R6   SRCROUTE+1,AUTO
          1 0006E9  E570 00FF                            AND,R6   255,IMO
          1 0006EB  EF46 0015                            STR,R6   21,B6

      681    15551    1      KN$NETPARM.SRC_ADDR$ = ADDR(DESTINATION);

  15551   1 0006ED  DBC7 0006                            LAB,B5   DESTINATION,AUTO
          1 0006EF  DFC6 001D                            STB,B5   29,B6

      682    15552    1      KN$NETPARM.DST_ADDR$ = ADDR(SOURCE);

  15552   1 0006F1  CBC7 0011                            LAB,B4   SOURCE,AUTO
          1 0006F3  CFC6 001F                            STB,B4   31,B6

      683    15553    1      CALL KNN$SENDERR(KN$NETPARM);

  15553   1 0006F5  BBC7 0004                            LAB,B3   @KN$NETPARM,AUTO
          1 0006F7  CBF0 0100                            LAB,B4   256,IMO
PL6.E3A0      #001=KNN$RECVOSI File=KNN$SUBS.:E05TSI                             WED 07/30/97 01:05 Page:89
          1 0006F9  E380 0000 0000  xent                 LNJ,B6   KNN$SENDERR
          1 0006FC       0001                            DC       s:15552,PREL

  15552   1                              EXITOSINET      null
      684    15554
      685    15555    1   EXITOSINET:;
      686    15556    1      KN$NETPARM.RECTYPE = 0; /* was set to indicate index at which error occurred*/

  15556   1 0006FD  ECC7 0004            EXITOSINET      LDB,B6   @KN$NETPARM,AUTO
          1 0006FF  8746 0013                            CL       19,B6

      687    15557    1      KN$NETPARM.FPT$ = SAVE_FPT$;

  15557   1 000701  DCC7 0074                            LDB,B5   SAVE_FPT$,AUTO
          1 000703  DFC6 0019                            STB,B5   25,B6

      688    15558    1      KN$NETPARM.LDCT$ = QQQ$;

  15558   1 000705  CCC7 0072                            LDB,B4   QQQ$,AUTO
          1 000707  CF86                                 STB,B4   ,B6

      689    15559    1      RETURN;

  15559   1 000708  C380 0000 0000  xent                 LNJ,B4   X6A_ARET

  15558   1                              ERR2            null
      690    15560
      691    15561    1   ERR2:;                                  /* dont discard message, yet*/
      692    15562    1      KN$NETPARM.LDCT$ = QQQ$;

  15562   1 00070B  ECC7 0072            ERR2            LDB,B6   QQQ$,AUTO
          1 00070D  DCC7 0004                            LDB,B5   @KN$NETPARM,AUTO
          1 00070F  EF85                                 STB,B6   ,B5

      693    15563    1      KN$NETPARM.FPT$ = SAVE_FPT$;

  15563   1 000710  CCC7 0074                            LDB,B4   SAVE_FPT$,AUTO
PL6.E3A0      #001=KNN$RECVOSI File=KNN$SUBS.:E05TSI                             WED 07/30/97 01:05 Page:90
          1 000712  CFC5 0019                            STB,B4   25,B5

      694    15564    1      KN$NETPARM.RECTYPE = 0;

  15564   1 000714  8745 0013                            CL       19,B5

      695    15565    1      ALTRETURN;

  15565   1 000716  C380 0000 0000  xent                 LNJ,B4   X6A_AALT

      696    15566        %EJECT;
PL6.E3A0      #001=KNN$RECVOSI File=KNN$SUBS.:E05TSI                             WED 07/30/97 01:05 Page:91
      697    15567    1   FORWARD: PROC ALTRET;

  15567   1 000719  EFC7 008E            FORWARD         STB,B6   SNPATMPLT3+5,AUTO

      698    15568
      699    15569    3      IF KN$NETPARM.LDCT$ = ADDR(NIL) THEN DO;

  15569   1 00071B  DCC7 0004                            LDB,B5   @KN$NETPARM,AUTO
          1 00071D  8D85                                 CMN      ,B5
          1 00071E  0981 000C                            BNE      s:15574,PREL

      700    15570    3         KN$NETPARM.ERRCODE = %K_DSCRD_DSTUNREACH;

  15570   1 000720  E870 0080                            LDR,R6   128,IMO
          1 000722  EF45 0016                            STR,R6   22,B5

      701    15571    3         ERR_CODE = E_DSCRD_DSTUNREACH;

  15571   1 000724  8C80 0000 0015  00                   LDI      E_DSCRD_DSTUNREACH
          1 000727  8D47 0068                            SDI      ERR_CODE,AUTO

      702    15572    3         GOTO SENDERR;

  15572   1 000729  0F81 001A                            B        s:15577,PREL

      703    15573    3         END;
      704    15574    3      CALL KNH$SEND(KN$NETPARM) WHENALTRETURN DO;

  15574   1 00072B  BBC7 0004                            LAB,B3   @KN$NETPARM,AUTO
          1 00072D  CBF0 0100                            LAB,B4   256,IMO
          1 00072F  E380 0000 0000  xent                 LNJ,B6   KNH$SEND
          1 000732       0003                            DC       s:15575,PREL
          1 000733  0F81 0050                            B        s:15589,PREL

      705    15575    4         IF KN$NETPARM.ERRCODE = %KN_ERR_Q2SMALL THEN DO;

  15575   1 000735  ECC7 0004                            LDB,B6   @KN$NETPARM,AUTO
PL6.E3A0      #001=KNN$RECVOSI File=KNN$SUBS.:E05TSI                             WED 07/30/97 01:05 Page:92
          1 000737  E846 0016                            LDR,R6   22,B6
          1 000739  6D04                                 CMV,R6   4
          1 00073A  0981 0045                            BNE      s:15587,PREL

      706    15576    4            KN$NETPARM.ERRCODE = %K_DSCRD_CONGEST; /* should really seg*/

  15576   1 00073C  6C03                                 LDV,R6   3
          1 00073D  EF46 0016                            STR,R6   22,B6

      707    15577    4            ERR_CODE = E_DSCRD_CONGEST;

  15577   1 00073F  8C80 0000 000B  00                   LDI      E_DSCRD_CONGEST
          1 000742  8D47 0068                            SDI      ERR_CODE,AUTO

  15577   1                              SENDERR         null
      708    15578    4   SENDERR: ;
      709    15579    4            ADDR(ERRVAL(0))->CALLEDFROM$ = ENTADDR(KNN$RECVOSI);

  15579   1 000744  EBC0 F8BB            SENDERR         LAB,B6   s:21,PREL
          1 000746  EFC7 0081                            STB,B6   ERRVAL,AUTO

      710    15580    4            CALL GHE$ERRLOG(ERR_CODE,ERRVAL,K$NPDU_FIXED,SIZEC(K$NPDU_FIXED),'0'B);

  15580   1 000748  DCC7 0004                            LDB,B5   @KN$NETPARM,AUTO
          1 00074A  CCC5 000E                            LDB,B4   14,B5
          1 00074C  BBF0 000A                            LAB,B3   10,IMO
          1 00074E  ABF0 0000                            LAB,B2   0,IMO
          1 000750  AFC7 0098                            STB,B2   SNPATMPLT3+15,AUTO
          1 000752  BFC7 0096                            STB,B3   SNPATMPLT3+13,AUTO
          1 000754  CFC7 0094                            STB,B4   SNPATMPLT3+11,AUTO
          1 000756  9BC7 0081                            LAB,B1   ERRVAL,AUTO
          1 000758  9FC7 0092                            STB,B1   SNPATMPLT3+9,AUTO
          1 00075A  EBC7 0068                            LAB,B6   ERR_CODE,AUTO
          1 00075C  EFC7 0090                            STB,B6   SNPATMPLT3+7,AUTO
          1 00075E  BBC7 0090                            LAB,B3   SNPATMPLT3+7,AUTO
          1 000760  CBF0 0500                            LAB,B4   1280,IMO
          1 000762  E380 0000 0000  xent                 LNJ,B6   GHE$ERRLOG
PL6.E3A0      #001=KNN$RECVOSI File=KNN$SUBS.:E05TSI                             WED 07/30/97 01:05 Page:93
          1 000765       0001                            DC       s:15581,PREL

      711    15581    4            KN$NETPARM.NODE = SRCROUTE.FEP#;

  15581   1 000766  ECC7 0004                            LDB,B6   @KN$NETPARM,AUTO
          1 000768  E847 002B                            LDR,R6   SRCROUTE+1,AUTO
          1 00076A  E570 00FF                            AND,R6   255,IMO
          1 00076C  EF46 0015                            STR,R6   21,B6

      712    15582    4            KN$NETPARM.SRC_ADDR$ = ADDR(SOURCE);

  15582   1 00076E  DBC7 0011                            LAB,B5   SOURCE,AUTO
          1 000770  DFC6 001D                            STB,B5   29,B6

      713    15583    4            KN$NETPARM.DST_ADDR$ = ADDR(DESTINATION);

  15583   1 000772  CBC7 0006                            LAB,B4   DESTINATION,AUTO
          1 000774  CFC6 001F                            STB,B4   31,B6

      714    15584    4            CALL KNN$SENDERR(KN$NETPARM);

  15584   1 000776  BBC7 0004                            LAB,B3   @KN$NETPARM,AUTO
          1 000778  CBF0 0100                            LAB,B4   256,IMO
          1 00077A  E380 0000 0000  xent                 LNJ,B6   KNN$SENDERR
          1 00077D       0001                            DC       s:15585,PREL

      715    15585    4            END;

  15585   1 00077E  0F81 0005                            B        s:15589,PREL

      716    15586    3         ELSE
      717    15587    3            ALTRETURN;

  15587   1 000780  ECC7 008E                            LDB,B6   SNPATMPLT3+5,AUTO
          1 000782  B806                                 LDR,R3   ,B6
          1 000783  C3B6                                 LNJ,B4   ,B6,R3

PL6.E3A0      #001=KNN$RECVOSI File=KNN$SUBS.:E05TSI                             WED 07/30/97 01:05 Page:94
      718    15588    3         END;                              /* whenaltreturn            */
      719    15589    2   END FORWARD;

  15589   1 000784  ECC7 008E                            LDB,B6   SNPATMPLT3+5,AUTO
          1 000786  C3C6 0001                            LNJ,B4   1,B6
      720    15590    1   END KNN$RECVOSI;
      721    15591        %EOD;

PL6.E3A0      #001=KNN$RECVOSI File=KNN$SUBS.:E05TSI                             WED 07/30/97 01:05 Page:95
--  Include file information  --

   K_QDPHDRS_M.:E05TOU  is referenced.
   KN_ERRORS_C.:E05TOU  is referenced.
   KL_MACRO_C.:E05TOU  is referenced.
   K_INTERFACE_M.:E05TOU  is referenced.
   KN_DATA_M.:E05TOU  is referenced.
   KNN_NETWORK_M.:E05TOU  is referenced.
   K_SCODE_C.:E05TOU  is referenced.
   K_ADDRESS_M.:E05TOU  is referenced.
   KNH_MACRO_C.:E05TOU  is referenced.
   K_NETWORK_E.:E05TOU  is referenced.
   K_NETWORK_M.:E05TOU  is referenced.
   G_LCP6_E.:E05TOU  is referenced.
   GT_LCP6_M.:E05TOU  is referenced.
   KI_CP6.:E05TOU  is referenced.
   GF_LCP6_M.:E05TOU  is referenced.
   GM_LCP6_M.:E05TOU  is referenced.
   GU_LCP6_M.:E05TOU  is referenced.
   GJ_LCP6_M.:E05TOU  is referenced.
   GH_LCP6_M.:E05TOU  is referenced.
   LCP_6.:E05TOU  cannot be made into a system file and is referenced.
      No diagnostics issued in procedure KNN$RECVOSI.
PL6.E3A0      #001=KNN$RECVOSI File=KNN$SUBS.:E05TSI                             WED 07/30/97 01:05 Page:96

 **** Variables and constants ****

  ****  Section 000 RoData KNN$RECVOSI

  ****  Scalars and arrays  ****
HexLoc.c.b A Datatyp(siz) R M Lvl/name                 HexLoc.c.b A Datatyp(siz) R M Lvl/name

     F-0-0/w STRC(32)    r     1 E_DSCRD_CANTSEG            B-0-0/w STRC(32)    r     1 E_DSCRD_CONGEST
    17-0-0/w STRC(32)    r     1 E_DSCRD_DSTUNKNWN         15-0-0/w STRC(32)    r     1 E_DSCRD_DSTUNREACH
    13-0-0/w STRC(32)    r     1 E_DSCRD_DUPOPT             D-0-0/w STRC(32)    r     1 E_DSCRD_HDRSNTX
     9-0-0/w STRC(32)    r     1 E_DSCRD_IC                11-0-0/w STRC(32)    r     1 E_DSCRD_INCMPPDU
    23-0-0/w STRC(32)    r     1 E_DSCRD_LIFEEXPASSM       21-0-0/w STRC(32)    r     1 E_DSCRD_LIFEEXPTRAN
    25-0-0/w STRC(32)    r     1 E_DSCRD_OPTNON            27-0-0/w STRC(32)    r     1 E_DSCRD_OPTPRCLVERS
    2D-0-0/w STRC(32)    r     1 E_DSCRD_OPTRECRTE         29-0-0/w STRC(32)    r     1 E_DSCRD_OPTSEC
    2B-0-0/w STRC(32)    r     1 E_DSCRD_OPTSRCRTE          7-0-0/w STRC(32)    r     1 E_DSCRD_PPE
    1F-0-0/w STRC(32)    r     1 E_DSCRD_PTHNOTACPT        2F-0-0/w STRC(32)    r     1 E_DSCRD_REASSEM
     5-0-0/w STRC(32)    r     1 E_DSCRD_RNS               19-0-0/w STRC(32)    r     1 E_DSCRD_SRCRTEERR
    1B-0-0/w STRC(32)    r     1 E_DSCRD_SRCRTESNTX        1D-0-0/w STRC(32)    r     1 E_DSCRD_SRCRTEUNKWN
     0-0-0/w STRC(32)    r     1 K$NQDP_HDR_C               2-0-0/w STRC(48)    r     1 PRTCLERR

  ****  Auto variables  ****

  ****  Scalars and arrays  ****
HexLoc.c.b A Datatyp(siz) R M Lvl/name                 HexLoc.c.b A Datatyp(siz) R M Lvl/name

     4-0-0/w PTR         r     1 @KN$NETPARM               7D-0-0/w UBIN(8)     r     1 CODE
    7A-0-0/w UBIN(16)    r     1 CURINDX                   70-0-0/w PTR         r     1 D$
    6D-0-0/w SBIN(16)    r     1 DATASIZE                   6-0-0/c STRC(176)   r     1 DESTINATION
    7B-0-0/w UBIN(16)    r     1 DSTINDX                   48-0-0/w STRC(480)   r     1 DSTROUTE
    81-0-0/w UBIN(16)    r     1 ERRVAL(0:3)               68-0-0/w STRC(32)    r     1 ERR_CODE
    6E-0-0/w UBIN(16)    r     1 FIXEDSIZ                  1C-0-0/w STRC(176)   r     1 FPT_NSAP
    7F-0-0/w UBIN(16)    r     1 I                         80-0-0/w UBIN(16)    r     1 J
    *0-0-0/w STRC(528)   r     1 KN$NETPARM                7E-0-0/w SBIN(16)    r     1 LI
    76-0-0/w PTR         r     1 LINK$                     66-0-0/w STRC(32)    r     1 NQDP_HDR
    6B-0-0/w UBIN(8)     r     1 OPTSZ                     6C-0-0/w UBIN(8)     r     1 OPTVAL
    72-0-0/w PTR         r     1 QQQ$                      78-0-0/w PTR         r     1 ROUTE$
    74-0-0/w PTR         r     1 SAVE_FPT$                 6F-0-0/w UBIN(16)    r     1 SEGLENGTH
PL6.E3A0      #001=KNN$RECVOSI File=KNN$SUBS.:E05TSI                             WED 07/30/97 01:05 Page:97
    27-0-0/w STRC(48)    r     1 SEGMENT                   6A-0-0/w UBIN(16)    r     1 SIZE
    85-0-0/w CHAR(8)     r     1 SNPATMPLT1                85-0-0/w STRC(56)    r     1 SNPATMPLT2
    89-0-0/w CHAR(8)     r     1 SNPATMPLT3                89-0-0/w STRC(56)    r     1 SNPATMPLT4
    11-0-0/c STRC(176)   r     1 SOURCE                    7C-0-0/w UBIN(16)    r     1 SRCINDX
    2A-0-0/w STRC(480)   r     1 SRCROUTE

  ****  SYMREF variables  ****

  ****  Scalars and arrays  ****
HexLoc.c.b A Datatyp(siz) R M Lvl/name                 HexLoc.c.b A Datatyp(siz) R M Lvl/name

     0-0-0/w PTR         r     1 KNN_LINK$$                 0-0-0/w UBIN(16)    r     1 KNN_LINKS
     0-0-0/w UBIN(16)    r     1 KNN_NODES                  0-0-0/w PTR         r     1 KNN_ROUTE$$
     0-0-0/w UBIN(16)    r     1 KN_NODE#

  ****  BASED and DCB variables  ****

  ****  Scalars and arrays  ****
HexLoc.c.b A Datatyp(siz) R M Lvl/name                 HexLoc.c.b A Datatyp(siz) R M Lvl/name

     0-0-0/c ACHR        r     1 ADDRESS                    0-0-0/w EPTR        r     1 CALLEDFROM$
     0-0-0/c CHAR        r     1 CHR(0:0)                   0-0-0/w STRC(72)    r     1 K$NPDU_FIXED
     0-0-0/w STRC(48)    r     1 K$NPDU_SEGMENT             0-0-0/c STRC(608)   r     1 KNN$LINK
     0-0-0/w PTR         r     1 KNN$LINK$(0:0)
     0-0-0/w STRC(208)   r     1 KNN$ROUTE
     0-0-0/w PTR         r     1 KNN$ROUTE$(0:0)


   Procedure KNN$RECVOSI requires 1928 words for executable code.
   Procedure KNN$RECVOSI requires 154 words of local(AUTO) storage.
PL6.E3A0      #001=KNN$RECVOSI File=KNN$SUBS.:E05TSI                             WED 07/30/97 01:05 Page:98
          *** CROSS REFERENCE LISTING ***
**     DENOTES     IDENTIFIER DEFINITION
<<                 IDENTIFIER'S VALUE SET
>>                 IDENTIFIER'S VALUE USED
<>                 IDENTIFIER SET AND/OR USED
--                 IDENTIFIER REFERENCED
PL6.E3A0      #001=KNN$RECVOSI File=KNN$SUBS.:E05TSI                             WED 07/30/97 01:05 Page:99
          MINI XREF LISTING

ADDRESS
     13048**DCL     15123>>ASSIGN  15130<<ASSIGN  15130>>ASSIGN  15136>>ASSIGN  15144<<ASSIGN  15144>>ASSIGN
     15199<<ASSIGN  15199>>ASSIGN  15217>>ASSIGN  15219>>ASSIGN  15238>>ASSIGN  15250>>ASSIGN  15363<<ASSIGN
     15363>>ASSIGN
CALLEDFROM$
     13050**DCL     15414<<ASSIGN  15544<<ASSIGN  15579<<ASSIGN
CHR
     13049**DCL     15123<<ASSIGN  15136<<ASSIGN  15217<<ASSIGN  15219<<ASSIGN  15238<<ASSIGN  15250<<ASSIGN
CODE
     15079**DCL     15217--ASSIGN  15228>>DOCASE
CURINDX
     15076**DCL     15121<<ASSIGN  15123>>ASSIGN  15128>>ASSIGN  15130>>ASSIGN  15132<<ASSIGN  15132>>ASSIGN
     15136>>ASSIGN  15137>>ASSIGN  15144>>ASSIGN  15147<<ASSIGN  15147>>ASSIGN  15199>>ASSIGN  15201<<ASSIGN
     15217>>ASSIGN  15218<<ASSIGN  15218>>ASSIGN  15219>>ASSIGN  15220<<ASSIGN  15220>>ASSIGN  15238>>ASSIGN
     15250>>ASSIGN  15267<<ASSIGN  15267>>ASSIGN  15363>>ASSIGN  15364<<ASSIGN  15364>>ASSIGN  15365>>ASSIGN
D$
     15071**DCL     15127<<ASSIGN  15130>>ASSIGN  15142<<ASSIGN  15144>>ASSIGN
DATASIZE
     15068**DCL     15118<<ASSIGN
DESTINATION
     14308**DCL     15127--ASSIGN  15157--ASSIGN  15304<>CALL    15551--ASSIGN  15583--ASSIGN
DESTINATION.ADDRESS_N
     14340**DCL     14341--REDEF
DESTINATION.LEN
     14312**DCL     15123--ASSIGN  15124>>IF      15129>>DOINDEX 15134>>ASSIGN
DSTINDX
     15077**DCL     15128<<ASSIGN
DSTROUTE
     14748**DCL     15304<>CALL    15468<>CALL
DSTROUTE.FEP#
     14788**DCL     15311>>IF      15317>>IF      15328>>IF      15335>>ASSIGN  15355>>IF      15528>>ASSIGN
DSTROUTE.HOST#
PL6.E3A0      #001=KNN$RECVOSI File=KNN$SUBS.:E05TSI                             WED 07/30/97 01:05 Page:100
     14785**DCL     15328>>IF      15333>>IF      15432>>IF      15432>>IF      15432>>IF      15432>>IF
     15432>>IF      15446>>ASSIGN  15455>>ASSIGN  15457>>ASSIGN  15462>>ASSIGN  15467>>ASSIGN
DSTROUTE.LNSAP.ADDRESS_N
     14902**DCL     14903--REDEF
DSTROUTE.MYNODE#
     14783**DCL     14785--REDEF
DSTROUTE.NODE#
     14786**DCL     14788--REDEF
DSTROUTE.NSAP.ADDRESS_N
     14846**DCL     14847--REDEF
DSTROUTE.NSAP.LEN
     14818**DCL     15511>>DOINDEX
DSTROUTE.NS_TYPE
     14771**DCL     15328>>IF      15427>>IF
DSTROUTE.QOS
     14791**DCL     15317>>IF      15432>>IF
DSTROUTE.SNPA.ADDRESS
     14933**DCL     15491>>ASSIGN  15509>>ASSIGN  15516>>ASSIGN
DSTROUTE.SNPA.LEN
     14928**DCL     15488>>IF      15493>>DOINDEX 15515>>ASSIGN
ERR
     15537**LABEL   15164--GOTO    15172--GOTO    15179--GOTO    15191--GOTO    15208--GOTO    15225--GOTO
     15235--GOTO    15246--GOTO    15254--GOTO    15264--GOTO    15307--GOTO    15314--GOTO    15320--GOTO
     15340--GOTO    15422--GOTO    15441--GOTO    15478--GOTO    15535--GOTO
ERR2
     15558**LABEL   15344--CALLALT 15451--GOTO    15463--CALLALT 15498--CALLALT 15519--CALLALT 15538--CALLALT
ERRVAL
     15083**DCL     15112<<ASSIGN  15414--ASSIGN  15415<>CALL    15544--ASSIGN  15545<>CALL    15579--ASSIGN
     15580<>CALL
ERR_CODE
     15032**DCL     15163<<ASSIGN  15171<<ASSIGN  15178<<ASSIGN  15190<<ASSIGN  15207<<ASSIGN  15224<<ASSIGN
     15234<<ASSIGN  15245<<ASSIGN  15253<<ASSIGN  15263<<ASSIGN  15306<<ASSIGN  15313<<ASSIGN  15319<<ASSIGN
     15339<<ASSIGN  15368<<ASSIGN  15370<<ASSIGN  15372<<ASSIGN  15374<<ASSIGN  15376<<ASSIGN  15378<<ASSIGN
     15380<<ASSIGN  15382<<ASSIGN  15384<<ASSIGN  15386<<ASSIGN  15388<<ASSIGN  15390<<ASSIGN  15392<<ASSIGN
     15394<<ASSIGN  15396<<ASSIGN  15398<<ASSIGN  15400<<ASSIGN  15402<<ASSIGN  15404<<ASSIGN  15406<<ASSIGN
     15408<<ASSIGN  15410<<ASSIGN  15412<<ASSIGN  15415<>CALL    15421<<ASSIGN  15440<<ASSIGN  15475<<ASSIGN
PL6.E3A0      #001=KNN$RECVOSI File=KNN$SUBS.:E05TSI                             WED 07/30/97 01:05 Page:101
     15477<<ASSIGN  15534<<ASSIGN  15545<>CALL    15571<<ASSIGN  15577<<ASSIGN  15580<>CALL
EXITOSINET
     15552**LABEL   15345--GOTO    15416--GOTO    15453--GOTO    15464--GOTO    15473--GOTO    15499--GOTO
     15520--GOTO    15541--GOTO
E_DSCRD_CANTSEG
     13456**DCL     15178>>ASSIGN  15378>>ASSIGN  15477>>ASSIGN
E_DSCRD_CONGEST
     13356**DCL     15374>>ASSIGN  15577>>ASSIGN
E_DSCRD_DSTUNKNWN
     13656**DCL     15306>>ASSIGN  15313>>ASSIGN  15386>>ASSIGN
E_DSCRD_DSTUNREACH
     13606**DCL     15319>>ASSIGN  15339>>ASSIGN  15384>>ASSIGN  15440>>ASSIGN  15534>>ASSIGN  15571>>ASSIGN
E_DSCRD_DUPOPT
     13556**DCL     15382>>ASSIGN
E_DSCRD_HDRSNTX
     13406**DCL     15163>>ASSIGN  15190>>ASSIGN  15224>>ASSIGN  15376>>ASSIGN  15421>>ASSIGN
E_DSCRD_IC
     13306**DCL     15171>>ASSIGN  15372>>ASSIGN
E_DSCRD_INCMPPDU
     13506**DCL     15380>>ASSIGN
E_DSCRD_LIFEEXPASSM
     13956**DCL     15398>>ASSIGN
E_DSCRD_LIFEEXPTRAN
     13906**DCL     15207>>ASSIGN  15396>>ASSIGN
E_DSCRD_OPTNON
     14006**DCL     15263>>ASSIGN  15400>>ASSIGN
E_DSCRD_OPTPRCLVERS
     14056**DCL     15402>>ASSIGN
E_DSCRD_OPTRECRTE
     14206**DCL     15253>>ASSIGN  15408>>ASSIGN
E_DSCRD_OPTSEC
     14106**DCL     15234>>ASSIGN  15404>>ASSIGN
E_DSCRD_OPTSRCRTE
     14156**DCL     15245>>ASSIGN  15406>>ASSIGN
E_DSCRD_PPE
     13256**DCL     15370>>ASSIGN
PL6.E3A0      #001=KNN$RECVOSI File=KNN$SUBS.:E05TSI                             WED 07/30/97 01:05 Page:102
E_DSCRD_PTHNOTACPT
     13856**DCL     15394>>ASSIGN
E_DSCRD_REASSEM
     14256**DCL     15410>>ASSIGN  15475>>ASSIGN
E_DSCRD_RNS
     13206**DCL     15368>>ASSIGN  15412>>ASSIGN
E_DSCRD_SRCRTEERR
     13706**DCL     15388>>ASSIGN
E_DSCRD_SRCRTESNTX
     13756**DCL     15390>>ASSIGN
E_DSCRD_SRCRTEUNKWN
     13806**DCL     15392>>ASSIGN
FIXEDSIZ
     15069**DCL     15120<<ASSIGN  15121>>ASSIGN
FORWARD
     15567**PROC    15344--CALL    15463--CALL    15498--CALL    15519--CALL    15538--CALL
FPT_NSAP
     14411**DCL     15517--ASSIGN
FPT_NSAP.NSAP.ADDRESS
     14465**DCL     15516<<ASSIGN
FPT_NSAP.NSAP.ADDRESS_N
     14464**DCL     14465--REDEF
FPT_NSAP.NSAP.LEN
     14436**DCL     15515<<ASSIGN
GHE$ERRLOG
     12551**DCL-ENT 15415--CALL    15545--CALL    15580--CALL
I
     15081**DCL     15129<<DOINDEX 15130>>ASSIGN  15130>>ASSIGN  15132>>ASSIGN  15143<<DOINDEX 15144>>ASSIGN
     15144>>ASSIGN  15147>>ASSIGN  15168<<ASSIGN  15169<>CALL    15198<<DOINDEX 15199>>ASSIGN  15199>>ASSIGN
     15363--ASSIGN  15366>>DOCASE  15493<<DOINDEX 15494>>IF      15494>>IF      15511<<DOINDEX 15512>>IF
     15512>>IF
J
     15082**DCL     15486<<DOINDEX 15487>>ASSIGN  15506<<DOINDEX 15507>>ASSIGN
K$NPDU_FIXED
     12578**DCL     15105--IF      15119--ASSIGN  15120--ASSIGN  15123--ASSIGN  15130--ASSIGN  15136--ASSIGN
     15144--ASSIGN  15169--CALL    15199--ASSIGN  15217--ASSIGN  15219--ASSIGN  15238--ASSIGN  15250--ASSIGN
PL6.E3A0      #001=KNN$RECVOSI File=KNN$SUBS.:E05TSI                             WED 07/30/97 01:05 Page:103
     15363--ASSIGN  15415<>CALL    15415--CALL    15545<>CALL    15545--CALL    15580<>CALL    15580--CALL
K$NPDU_FIXED.CHECKSUMX
     12614**DCL     15167>>IF
K$NPDU_FIXED.CHECKSUMY
     12617**DCL     15167>>IF
K$NPDU_FIXED.LENGTH
     12584**DCL     15108>>ASSIGN  15168>>ASSIGN  15269>>ASSIGN  15270>>ASSIGN  15303>>ASSIGN
K$NPDU_FIXED.LIFETIME
     12588**DCL     15205>>IF
K$NPDU_FIXED.MS
     12596**DCL     15176>>IF      15445>>IF
K$NPDU_FIXED.PROTOCOLID
     12582**DCL     15160>>IF
K$NPDU_FIXED.SEGLENX
     12606**DCL     15114>>ASSIGN
K$NPDU_FIXED.SEGLENY
     12610**DCL     15114>>ASSIGN
K$NPDU_FIXED.SP
     12593**DCL     15176>>IF      15182>>IF
K$NPDU_FIXED.TYPE
     12604**DCL     15112>>ASSIGN  15361>>IF      15362>>IF      15419>>IF      15419>>IF
K$NPDU_FIXED.VERSION
     12586**DCL     15160>>IF
K$NPDU_SEGMENT
     12635**DCL     15188--IF      15198--DOINDEX 15201--ASSIGN
K$NQDP_HDR_C
     13073**DCL     15456>>ASSIGN
K$NSAP.ADDRESS_N
     12719**DCL     12720--REDEF
KN$NETPARM
     12401**DCL        21--PROC    15447<>CALL    15468<>CALL    15553<>CALL    15574<>CALL    15584<>CALL
KN$NETPARM.DST_ADDR$
     12535**DCL     15157<<ASSIGN  15552<<ASSIGN  15583<<ASSIGN
KN$NETPARM.ERRCODE
     12508**DCL     15162<<ASSIGN  15170<<ASSIGN  15177<<ASSIGN  15189<<ASSIGN  15206<<ASSIGN  15223<<ASSIGN
     15233<<ASSIGN  15244<<ASSIGN  15252<<ASSIGN  15262<<ASSIGN  15305<<ASSIGN  15312<<ASSIGN  15318<<ASSIGN
PL6.E3A0      #001=KNN$RECVOSI File=KNN$SUBS.:E05TSI                             WED 07/30/97 01:05 Page:104
     15338<<ASSIGN  15420<<ASSIGN  15439<<ASSIGN  15451>>IF      15469>>IF      15474>>IF      15533<<ASSIGN
     15570<<ASSIGN  15575>>IF      15576<<ASSIGN
KN$NETPARM.FPT$
     12520**DCL     15100>>ASSIGN  15101<<ASSIGN  15342<<ASSIGN  15517<<ASSIGN  15557<<ASSIGN  15563<<ASSIGN
KN$NETPARM.FUNCTION
     12496**DCL     15444<<ASSIGN
KN$NETPARM.LDCT$
     12402**DCL     15099>>ASSIGN  15343<<ASSIGN  15455<<ASSIGN  15462<<ASSIGN  15497<<ASSIGN  15518<<ASSIGN
     15537<<ASSIGN  15558<<ASSIGN  15562<<ASSIGN  15569>>IF
KN$NETPARM.MSG$
     12408**DCL     12413--REDEF
KN$NETPARM.NHDR$
     12460**DCL     12461--REDEF   12578--IMP-PTR 15108>>ASSIGN  15112>>ASSIGN  15114>>ASSIGN  15114>>ASSIGN
     15123>>ASSIGN  15130>>ASSIGN  15136>>ASSIGN  15144>>ASSIGN  15160>>IF      15160>>IF      15167>>IF
     15167>>IF      15168>>ASSIGN  15169>>CALL    15176>>IF      15176>>IF      15182>>IF      15199>>ASSIGN
     15205>>IF      15217>>ASSIGN  15219>>ASSIGN  15238>>ASSIGN  15250>>ASSIGN  15269>>ASSIGN  15270>>ASSIGN
     15270>>ASSIGN  15303>>ASSIGN  15361>>IF      15362>>IF      15363>>ASSIGN  15415>>CALL    15419>>IF
     15419>>IF      15445>>IF      15459<<ASSIGN  15545>>CALL    15580>>CALL
KN$NETPARM.NHDRSZ
     12466**DCL     15102>>ASSIGN  15269>>ASSIGN  15365>>ASSIGN  15460<<ASSIGN
KN$NETPARM.NODE
     12503**DCL     15446<<ASSIGN  15467<<ASSIGN  15550<<ASSIGN  15581<<ASSIGN
KN$NETPARM.RECTYPE
     12487**DCL     15303<<ASSIGN  15556<<ASSIGN  15564<<ASSIGN
KN$NETPARM.SHDR$
     12438**DCL     12439--REDEF
KN$NETPARM.SRC_ADDR$
     12530**DCL     15158<<ASSIGN  15551<<ASSIGN  15582<<ASSIGN
KN$NETPARM.THDR$
     12449**DCL     12450--REDEF
KN$NETPARM.THDRSZ
     12455**DCL     15269<<ASSIGN  15448<<ASSIGN
KN$NETPARM.THDR_C$
     12450**DCL     15270<<ASSIGN
KN$NETPARM.UHDR$
     12424**DCL     12425--REDEF
PL6.E3A0      #001=KNN$RECVOSI File=KNN$SUBS.:E05TSI                             WED 07/30/97 01:05 Page:105
KN$NETPARM.UHDRSZ
     12433**DCL     15461<<ASSIGN
KNA$CHK_CHKSUM
     12543**DCL-ENT 15169--CALL
KNH$SEND
     12549**DCL-ENT 15574--CALL
KNN$DECODE_NSAP
     12548**DCL-ENT 15299--CALL    15304--CALL
KNN$LINK.DEST.ADDRESS_N
     12911**DCL     12912--REDEF
KNN$LINK.FLAGS.VIRCIR
     12769**DCL     15488>>IF      15508>>IF
KNN$LINK.LADR.ADDRESS_N
     12854**DCL     12855--REDEF
KNN$LINK.LDCT$
     12725**DCL     12732--REDEF   15337>>IF      15343>>ASSIGN  15432>>IF      15455>>ASSIGN  15462>>ASSIGN
     15497>>ASSIGN  15518>>ASSIGN  15531>>IF      15537>>ASSIGN
KNN$LINK.NODE#
     12740**DCL     15488>>IF      15508>>IF
KNN$LINK.SNPA.ADDRESS
     12947**DCL     15492>>ASSIGN  15510>>ASSIGN
KNN$LINK.SNPA.LEN
     12942**DCL     15488>>IF      15511>>DOINDEX
KNN$LINK$
     13047**DCL     15487>>ASSIGN  15507>>ASSIGN
KNN$REASSEM
     12547**DCL-ENT 15468--CALL
KNN$RECVOSI
        21**PROC    15414--ASSIGN  15544--ASSIGN  15579--ASSIGN
KNN$ROUTE.CURRENT_QOS
     12993**DCL     15531>>IF
KNN$ROUTE.FLAGS.HOST_NODE
     13003**DCL     15333>>IF      15333>>IF      15432>>IF
KNN$ROUTE.FLAGS.LINK_CONNECTED
     13007**DCL     15432>>IF
KNN$ROUTE.LINK$
PL6.E3A0      #001=KNN$RECVOSI File=KNN$SUBS.:E05TSI                             WED 07/30/97 01:05 Page:106
     12976**DCL     15336>>ASSIGN  15337>>IF      15432>>IF      15432>>IF      15455>>ASSIGN  15462>>ASSIGN
     15529>>ASSIGN  15531>>IF
KNN$ROUTE$
     13046**DCL     15333>>IF      15333>>IF      15335>>ASSIGN  15432>>IF      15432>>IF      15432>>IF
     15432>>IF      15455>>ASSIGN  15462>>ASSIGN  15528>>ASSIGN
KNN$SENDERR
     12542**DCL-ENT 15553--CALL    15584--CALL
KNN_LINK$$
     12557**DCL     13047--IMP-PTR 15487>>ASSIGN  15507>>ASSIGN
KNN_LINKS
     12556**DCL     15486>>DOINDEX 15506>>DOINDEX
KNN_NODES
     12553**DCL     15311>>IF      15328>>IF      15328>>IF      15432>>IF
KNN_ROUTE$$
     12555**DCL     13046--IMP-PTR 15333>>IF      15333>>IF      15335>>ASSIGN  15432>>IF      15432>>IF
     15432>>IF      15432>>IF      15455>>ASSIGN  15462>>ASSIGN  15528>>ASSIGN
KNT$RECV_4HOST
     12546**DCL-ENT 15447--CALL
KN_NODE#
     12554**DCL     15317>>IF      15355>>IF
LI
     15080**DCL     15108<<ASSIGN  15109>>IF      15118>>ASSIGN  15119<<ASSIGN  15119>>ASSIGN  15124>>IF
     15134<<ASSIGN  15134>>ASSIGN  15139>>IF      15149<<ASSIGN  15149>>ASSIGN  15188>>IF      15202<<ASSIGN
     15202>>ASSIGN  15216>>DOWHILE 15221<<ASSIGN  15221>>ASSIGN  15222>>IF
LINK$
     15074**DCL     12724--IMP-PTR 15336<<ASSIGN  15337>>IF      15343>>ASSIGN  15487<<ASSIGN  15488>>IF
     15488>>IF      15488>>IF      15492>>ASSIGN  15497>>ASSIGN  15507<<ASSIGN  15508>>IF      15508>>IF
     15510>>ASSIGN  15511>>DOINDEX 15518>>ASSIGN  15529<<ASSIGN  15531>>IF      15537>>ASSIGN
NQDP_HDR
     14961**DCL     15456<<ASSIGN  15459--ASSIGN  15460--ASSIGN
NQDP_HDR.DEST_NODE
     14982**DCL     15457<<ASSIGN
NQDP_HDR.SOURCE_NODE
     14988**DCL     15458<<ASSIGN
NXTJ
     15493**LABEL   15495--GOTO
PL6.E3A0      #001=KNN$RECVOSI File=KNN$SUBS.:E05TSI                             WED 07/30/97 01:05 Page:107
NXTJ2
     15517**LABEL   15513--GOTO
OPTSZ
     15066**DCL     15219--ASSIGN  15221>>ASSIGN  15267>>ASSIGN
OPTVAL
     15067**DCL     15238--ASSIGN  15243>>IF      15250--ASSIGN  15251>>IF
PRTCLERR
     13157**DCL     15106<>CALL    15110<>CALL    15116<>CALL    15125<>CALL    15140<>CALL
QQQ$
     15072**DCL     15099<<ASSIGN  15558>>ASSIGN  15562>>ASSIGN
ROUTE$
     15075**DCL     12975--IMP-PTR 15335<<ASSIGN  15336>>ASSIGN  15337>>IF      15528<<ASSIGN  15529>>ASSIGN
     15531>>IF      15531>>IF
SAVE_FPT$
     15073**DCL     15100<<ASSIGN  15557>>ASSIGN  15563>>ASSIGN
SCREECH
     12550**DCL-ENT 15106--CALL    15110--CALL    15116--CALL    15125--CALL    15140--CALL
SEGLENGTH
     15070**DCL     15114<<ASSIGN  15115>>IF      15118>>ASSIGN  15183>>ASSIGN  15445>>IF
SEGMENT
     14486**DCL     15202--ASSIGN
SEGMENT.DATAID
     14495**DCL     15184<<ASSIGN  15199--ASSIGN
SEGMENT.OFFSET
     14504**DCL     15185<<ASSIGN
SEGMENT.TOTLEN
     14517**DCL     15183<<ASSIGN  15445>>IF
SENDERR IN PROCEDURE FORWARD
     15577**LABEL   15572--GOTO
SIZE
     15065**DCL     13048--IMP-SIZ 15102<<ASSIGN  15103>>IF      15105>>IF      15109>>IF      15115>>IF
     15123>>ASSIGN  15130>>ASSIGN  15130>>ASSIGN  15136>>ASSIGN  15144>>ASSIGN  15144>>ASSIGN  15199>>ASSIGN
     15199>>ASSIGN  15217>>ASSIGN  15219>>ASSIGN  15238>>ASSIGN  15250>>ASSIGN  15363>>ASSIGN  15363>>ASSIGN
     15365<<ASSIGN
SNPATMPLT1
     15087**DCL     15088--REDEF   15491<<ASSIGN  15509<<ASSIGN
PL6.E3A0      #001=KNN$RECVOSI File=KNN$SUBS.:E05TSI                             WED 07/30/97 01:05 Page:108
SNPATMPLT2.NIBBLES.NIB
     15090**DCL     15494>>IF      15512>>IF
SNPATMPLT3
     15092**DCL     15093--REDEF   15492<<ASSIGN  15510<<ASSIGN
SNPATMPLT4.NIBBLES.NIB
     15095**DCL     15494>>IF      15512>>IF
SOURCE
     14360**DCL     15142--ASSIGN  15158--ASSIGN  15299<>CALL    15552--ASSIGN  15582--ASSIGN
SOURCE.ADDRESS_N
     14392**DCL     14393--REDEF
SOURCE.LEN
     14364**DCL     15136--ASSIGN  15139>>IF      15143>>DOINDEX 15149>>ASSIGN
SRCINDX
     15078**DCL     15137<<ASSIGN
SRCROUTE
     14539**DCL     15299<>CALL    15468<>CALL
SRCROUTE.FEP#
     14579**DCL     15328>>IF      15458>>ASSIGN  15550>>ASSIGN  15581>>ASSIGN
SRCROUTE.HOST#
     14576**DCL     15328>>IF      15333>>IF
SRCROUTE.LNSAP.ADDRESS_N
     14693**DCL     14694--REDEF
SRCROUTE.MYNODE#
     14574**DCL     14576--REDEF
SRCROUTE.NODE#
     14577**DCL     14579--REDEF
SRCROUTE.NSAP.ADDRESS_N
     14637**DCL     14638--REDEF
SRCROUTE.NS_TYPE
     14562**DCL     15328>>IF

