PL6.E3A0      #006=KNN$TIMER File=KNN$SUBS.:E05TSI                               WED 07/30/97 01:10 Page:267
     1582        1        /*T***********************************************************/
     1583        2        /*T*                                                         */
     1584        3        /*T* Copyright (c) Bull HN Information Systems Inc., 1997    */
     1585        4        /*T*                                                         */
     1586        5        /*T***********************************************************/
     1587        6        %EJECT;
PL6.E3A0      #006=KNN$TIMER File=KNN$SUBS.:E05TSI                               WED 07/30/97 01:10 Page:268
     1588        7        KNN$TIMER: PROC;
     1589        8        /*
     1590        9             entry point for the monitor clock. each entry represents .5 seconds.
     1591       10             which is then decremented off of the reassemtim clock in the block
     1592       11             headers if any exist.  when time runs out send an error and delete the
     1593       12             exists fragments.
     1594       13        */
     1595       14
     1596       15        %INCLUDE LCP_6;
     1597     4294        %INCLUDE KN_DATA_M;
     1598     6080        %INCLUDE K_ADDRESS_M;
     1599     6583        %INCLUDE K_NETWORK_M;
     1600     6852        %INCLUDE K_NETWORK_E;
     1601     6941        %INCLUDE GH_GATE_M;
     1602     6982        %INCLUDE K_SCODE_C;
     1603     7067        %INCLUDE GH_SCHD_M;
     1604     7211        %INCLUDE KN_ERRORS_C;
     1605     7275
     1606     7276    1   DCL KVB$GET2NSYS ENTRY(2) ALTRET;
     1607     7277    1   DCL KVB$RLS2NSYS ENTRY(2) ALTRET;
     1608     7278    1   DCL GUS$MONTIMR ENTRY(4);
     1609     7279    1   DCL KNN$SENDERR ENTRY(1) ALTRET;
     1610     7280    1   DCL SCREECH ENTRY(1);
     1611     7281    1   DCL GHS$SET_TMR ENTRY(1);
     1612     7282    1   DCL GHE$ERRLOG ENTRY(5) ALTRET;
     1613     7283
     1614     7284        %KN$NETPARM(NAME=NETPARM_C,STCLASS=CONSTANT);
     1615     7437
     1616     7438        %VLP_SCODE (FPTN=PRTCLERR,ERR#=%S$PRTCLERR,SEV=G_SEV_SCREECH#,
     1617     7439                       STCLASS=CONSTANT,FCG=KN,MID=N,MON='1'B);
     1618     7500
     1619     7501        %VLP_ERRCODE(FPTN=E_DSCRD_LIFEEXPASSM,FCG=KN,MID=N,MON='1'B,STCLASS=CONSTANT,ERR#=
              7501            %E$DSCRD_LIFEEXPASSM);
     1620     7547
     1621     7548        %KN$NETPARM(NAME=NETPARM,STCLASS=AUTO);
     1622     7701        %K$NFRAG(STCLASS="BASED(TFRAG$)");
     1623     7735        %K$NHDR(STCLASS = "BASED(HDR$)");
PL6.E3A0      #006=KNN$TIMER File=KNN$SUBS.:E05TSI                               WED 07/30/97 01:10 Page:269
     1624     7913        %K$NPDU_SEGMENT(STCLASS="BASED(NETPARM.FPT$)");
     1625     7965        %K$NSAP(FPTN=SOURCE,STCLASS="BASED(NETPARM.SRC_ADDR$)");
     1626     8017        %K$NSAP(FPTN=DESTINATION,STCLASS="BASED(NETPARM.DST_ADDR$)");
     1627     8069        %K$NPDU_FIXED(STCLASS="BASED(NETPARM.NHDR$)");
     1628     8126        %GH$TMR_BLK(STCLASS=STATIC);
     1629     8149    1   DCL ADDRESS CHAR(SIZE) BASED;
     1630     8150    1   DCL ONEWORD UBIN WORD BASED;
     1631     8151    1   DCL CALLEDFROM$ EPTR BASED;
     1632     8152
     1633     8153    1   DCL KNN_REASSEMTIME UBIN SYMREF;
     1634     8154    1   DCL KV_B_POOL# UBIN SYMREF;
     1635     8155    1   DCL KNN_RASSMHD$ PTR SYMREF;
     1636     8156    1   DCL KNN_RASSMTL$ PTR SYMREF;
     1637     8157    1   DCL KNN_LIFETIME_UNIT UBIN SYMREF;
     1638     8158        %GATE(FPTN=KNN_LOCK,STCLASS="SYMREF");
     1639     8177
     1640     8178    1   DCL FIXED$ PTR;
     1641     8179    1   DCL SEG$ PTR;
     1642     8180    1   DCL DATA$ PTR;
     1643     8181    1   DCL HDR$ PTR;
     1644     8182    1   DCL TFRAG$ PTR;
     1645     8183    1   DCL SRC$ PTR;
     1646     8184    1   DCL DST$ PTR;
     1647     8185
     1648     8186    1   DCL DATASIZE UBIN;
     1649     8187    1   DCL I UBIN;
     1650     8188    1   DCL SIZE UBIN;
     1651     8189    1   DCL ERRVAL(0:3) UBIN;
     1652     8190
     1653     8191        %LOCK(G=KNN_LOCK);
     1654     8198    1      HDR$ = KNN_RASSMHD$;
     1655     8199    2      DO WHILE HDR$ ~= ADDR(NIL);
     1656     8200    2         K$NHDR.REASSEMTIM = K$NHDR.REASSEMTIM - 1;
     1657     8201    3         IF K$NHDR.REASSEMTIM = 0 THEN DO;
     1658     8202    3            NETPARM.NODE = K$NHDR.SRCNODE#;
     1659     8203        /*
     1660     8204                switch the souce and destination for senderr
PL6.E3A0      #006=KNN$TIMER File=KNN$SUBS.:E05TSI                               WED 07/30/97 01:10 Page:270
     1661     8205        */
     1662     8206    3            NETPARM.SRC_ADDR$ = ADDR(K$NHDR.DESTINATION);
     1663     8207    3            NETPARM.DST_ADDR$ = ADDR(K$NHDR.SOURCE);
     1664     8208    3            NETPARM.ERRCODE = %K_DSCRD_LIFEEXPASSM;
     1665     8209    3            NETPARM.RECTYPE = K$NPDU_FIXED.LENGTH; /* should contain offset to size */
     1666     8210    3            NETPARM.NHDR$ = K$NHDR.HDR$;
     1667     8211    3            NETPARM.NHDRSZ = K$NHDR.RECVSZ;
     1668     8212    3            CALL KNN$SENDERR(NETPARM);
     1669     8213    3            ADDR(ERRVAL(0))->CALLEDFROM$ = ENTADDR(KNN$TIMER);
     1670     8214    3            CALL GHE$ERRLOG(E_DSCRD_LIFEEXPASSM,ERRVAL,K$NPDU_FIXED,SIZEC(K$NPDU_FIXED)
              8214                     ,'0'B);
     1671     8215
     1672     8216    4            IF K$NHDR.BLINK$ = ADDR(NIL) THEN DO; /* at head           */
     1673     8217    4               KNN_RASSMHD$ = K$NHDR.FLINK$;
     1674     8218    4               IF KNN_RASSMHD$ ~= ADDR(NIL) THEN
     1675     8219    4                  KNN_RASSMHD$->K$NHDR.BLINK$ = ADDR(NIL);
     1676     8220    4               END;
     1677     8221    3            ELSE
     1678     8222    3               K$NHDR.BLINK$->K$NHDR.FLINK$ = K$NHDR.FLINK$;
     1679     8223
     1680     8224    4            IF K$NHDR.FLINK$ = ADDR(NIL) THEN DO;
     1681     8225    4               KNN_RASSMTL$ = K$NHDR.BLINK$;
     1682     8226    4               IF KNN_RASSMTL$ ~= ADDR(NIL) THEN
     1683     8227    4                  KNN_RASSMTL$->K$NHDR.FLINK$ = ADDR(NIL);
     1684     8228    4               END;
     1685     8229    3            ELSE
     1686     8230    3               K$NHDR.FLINK$->K$NHDR.BLINK$ = K$NHDR.BLINK$;
     1687     8231
     1688     8232    4            DO WHILE K$NHDR.FRAG$ ~= ADDR(NIL);
     1689     8233    4               TFRAG$ = K$NHDR.FRAG$->K$NFRAG.LINK$;
     1690     8234    5               CALL KVB$RLS2NSYS(TFRAG$->ONEWORD) WHENALTRETURN DO;
     1691     8235    5                  CALL SCREECH(PRTCLERR);
     1692     8236    5                  END;
     1693     8237    4               K$NHDR.FRAG$ = TFRAG$;
     1694     8238    4               END;
     1695     8239
     1696     8240    3            TFRAG$ = K$NHDR.HDR$;
PL6.E3A0      #006=KNN$TIMER File=KNN$SUBS.:E05TSI                               WED 07/30/97 01:10 Page:271
     1697     8241    4            CALL KVB$RLS2NSYS(TFRAG$->ONEWORD) WHENALTRETURN DO;
     1698     8242    4               CALL SCREECH(PRTCLERR);
     1699     8243    4               END;
     1700     8244
     1701     8245    4            CALL KVB$RLS2NSYS(HDR$->ONEWORD) WHENALTRETURN DO;
     1702     8246    4               CALL SCREECH(PRTCLERR);
     1703     8247    4               END;
     1704     8248    3            END;                           /* one timed out            */
     1705     8249    2         HDR$ = K$NHDR.FLINK$;
     1706     8250    2         END;                              /* while hdr$ = addr(nil)   */
     1707     8251    1      GH$TMR_BLK.PROC$ = ENTADDR(KNN$TIMER);
     1708     8252    1      GH$TMR_BLK.INTERVAL = KNN_LIFETIME_UNIT;
     1709     8253    1      CALL GHS$SET_TMR(GH$TMR_BLK);
     1710     8254        %UNLOCK(G=KNN_LOCK);
     1711     8261    1   END KNN$TIMER;

PL6.E3A0      #006=KNN$TIMER File=KNN$SUBS.:E05TSI                               WED 07/30/97 01:10 Page:272
--  Include file information  --

   KN_ERRORS_C.:E05TOU  is referenced.
   GH_SCHD_M.:E05TOU  is referenced.
   K_SCODE_C.:E05TOU  is referenced.
   GH_GATE_M.:E05TOU  cannot be made into a system file and is referenced.
   K_NETWORK_E.:E05TOU  is referenced.
   K_NETWORK_M.:E05TOU  is referenced.
   K_ADDRESS_M.:E05TOU  is referenced.
   KN_DATA_M.:E05TOU  is referenced.
   G_LCP6_E.:E05TOU  is referenced.
   GT_LCP6_M.:E05TOU  is referenced.
   KI_CP6.:E05TOU  is referenced.
   GF_LCP6_M.:E05TOU  is referenced.
   GM_LCP6_M.:E05TOU  is referenced.
   GU_LCP6_M.:E05TOU  is referenced.
   GJ_LCP6_M.:E05TOU  is referenced.
   GH_LCP6_M.:E05TOU  is referenced.
   LCP_6.:E05TOU  cannot be made into a system file and is referenced.
      No diagnostics issued in procedure KNN$TIMER.

   Procedure KNN$TIMER requires 295 words for executable code.
   Procedure KNN$TIMER requires 68 words of local(AUTO) storage.

    No errors detected in file KNN$SUBS.:E05TSI    .

PL6.E3A0      #006=KNN$TIMER File=KNN$SUBS.:E05TSI                               WED 07/30/97 01:10 Page:273

 Object Unit name= KNN$TIMER                                  File name= KNN$SUBS.:E05TOU
 UTS= JUL 30 '97 01:10:06.48 WED                              Compiler= PL-6/E31         Sev=      00
 SharedLib= :SHARED_LCP6_SYSTEM                               Alt SharedLib=


    ****  Control sections  ****

 Sect   Type Bound  Init  Size HexSiz  Section name
    0  RoData even  UTS     38     26  KNN$TIMER
    1   Data  even  none    10      A  KNN$TIMER
    2   Proc  even  none   295    127  KNN$TIMER
    3  RoData even  none     6      6  KNN$TIMER

    ****  Entry defs  ****

                              Check   Calling
                             calling  sequence
  Sect HexLoc Primary Altret sequence   type   Parms  Name
     2      0   yes            yes      Std        0  KNN$TIMER

  ****  Entry refs  ****

         Check        Calling
        calling       sequence
Altret sequence SRef   type   Args  Name
 yes     yes           Std       1 GHH$LOCK
 yes     yes           Std       2 KVB$RLS2NSYS
         yes           Std       1 SCREECH
 yes     yes           Std       1 GHH$UNLOCK
 yes     yes           Std       1 KNN$SENDERR
 yes     yes           Std       5 GHE$ERRLOG
         yes           Std       1 GHS$SET_TMR
         yes           Std       0 KNN$TIMER
                       nStd      0 X6A_AUTO_0
                       nStd      0 X6A_ARET
PL6.E3A0      #006=KNN$TIMER File=KNN$SUBS.:E05TSI                               WED 07/30/97 01:10 Page:274

  ****  Data refs  ****

  Flags:  r = read only, s = secondary
Flgs Name                             Flgs Name                             Flgs Name
     KNN_RASSMHD$                          KNN_RASSMTL$                          KNN_LIFETIME_UNIT
     KNN_LOCK                         r    G$ROS$
PL6.E3A0      #006=KNN$TIMER File=KNN$SUBS.:E05TSI                               WED 07/30/97 01:10 Page:275


     1582        1        /*T***********************************************************/
     1583        2        /*T*                                                         */
     1584        3        /*T* Copyright (c) Bull HN Information Systems Inc., 1997    */
     1585        4        /*T*                                                         */
     1586        5        /*T***********************************************************/
     1587        6        %EJECT;
PL6.E3A0      #006=KNN$TIMER File=KNN$SUBS.:E05TSI                               WED 07/30/97 01:10 Page:276
     1588        7        KNN$TIMER: PROC;

      7   2 000000  D380 0000 0000  xent KNN$TIMER       LNJ,B5   X6A_AUTO_0
          2 000003       0044 0000                       DC       68,0

     1589        8        /*
     1590        9             entry point for the monitor clock. each entry represents .5 seconds.
     1591       10             which is then decremented off of the reassemtim clock in the block
     1592       11             headers if any exist.  when time runs out send an error and delete the
     1593       12             exists fragments.
     1594       13        */
     1595       14
     1596       15        %INCLUDE LCP_6;
     1597     4294        %INCLUDE KN_DATA_M;
     1598     6080        %INCLUDE K_ADDRESS_M;
     1599     6583        %INCLUDE K_NETWORK_M;
     1600     6852        %INCLUDE K_NETWORK_E;
     1601     6941        %INCLUDE GH_GATE_M;
     1602     6982        %INCLUDE K_SCODE_C;
     1603     7067        %INCLUDE GH_SCHD_M;
     1604     7211        %INCLUDE KN_ERRORS_C;
     1605     7275
     1606     7276    1   DCL KVB$GET2NSYS ENTRY(2) ALTRET;
     1607     7277    1   DCL KVB$RLS2NSYS ENTRY(2) ALTRET;
     1608     7278    1   DCL GUS$MONTIMR ENTRY(4);
     1609     7279    1   DCL KNN$SENDERR ENTRY(1) ALTRET;
     1610     7280    1   DCL SCREECH ENTRY(1);
     1611     7281    1   DCL GHS$SET_TMR ENTRY(1);
     1612     7282    1   DCL GHE$ERRLOG ENTRY(5) ALTRET;
     1613     7283
     1614     7284        %KN$NETPARM(NAME=NETPARM_C,STCLASS=CONSTANT);
     1615     7437
     1616     7438        %VLP_SCODE (FPTN=PRTCLERR,ERR#=%S$PRTCLERR,SEV=G_SEV_SCREECH#,
     1617     7439                       STCLASS=CONSTANT,FCG=KN,MID=N,MON='1'B);
     1618     7500
     1619     7501        %VLP_ERRCODE(FPTN=E_DSCRD_LIFEEXPASSM,FCG=KN,MID=N,MON='1'B,STCLASS=CONSTANT,ERR#=
              7501            %E$DSCRD_LIFEEXPASSM);
PL6.E3A0      #006=KNN$TIMER File=KNN$SUBS.:E05TSI                               WED 07/30/97 01:10 Page:277
     1620     7547
     1621     7548        %KN$NETPARM(NAME=NETPARM,STCLASS=AUTO);
     1622     7701        %K$NFRAG(STCLASS="BASED(TFRAG$)");
     1623     7735        %K$NHDR(STCLASS = "BASED(HDR$)");
     1624     7913        %K$NPDU_SEGMENT(STCLASS="BASED(NETPARM.FPT$)");
     1625     7965        %K$NSAP(FPTN=SOURCE,STCLASS="BASED(NETPARM.SRC_ADDR$)");
     1626     8017        %K$NSAP(FPTN=DESTINATION,STCLASS="BASED(NETPARM.DST_ADDR$)");
     1627     8069        %K$NPDU_FIXED(STCLASS="BASED(NETPARM.NHDR$)");
     1628     8126        %GH$TMR_BLK(STCLASS=STATIC);
     1629     8149    1   DCL ADDRESS CHAR(SIZE) BASED;
     1630     8150    1   DCL ONEWORD UBIN WORD BASED;
     1631     8151    1   DCL CALLEDFROM$ EPTR BASED;
     1632     8152
     1633     8153    1   DCL KNN_REASSEMTIME UBIN SYMREF;
     1634     8154    1   DCL KV_B_POOL# UBIN SYMREF;
     1635     8155    1   DCL KNN_RASSMHD$ PTR SYMREF;
     1636     8156    1   DCL KNN_RASSMTL$ PTR SYMREF;
     1637     8157    1   DCL KNN_LIFETIME_UNIT UBIN SYMREF;
     1638     8158        %GATE(FPTN=KNN_LOCK,STCLASS="SYMREF");
     1639     8177
     1640     8178    1   DCL FIXED$ PTR;
     1641     8179    1   DCL SEG$ PTR;
     1642     8180    1   DCL DATA$ PTR;
     1643     8181    1   DCL HDR$ PTR;
     1644     8182    1   DCL TFRAG$ PTR;
     1645     8183    1   DCL SRC$ PTR;
     1646     8184    1   DCL DST$ PTR;
     1647     8185
     1648     8186    1   DCL DATASIZE UBIN;
     1649     8187    1   DCL I UBIN;
     1650     8188    1   DCL SIZE UBIN;
     1651     8189    1   DCL ERRVAL(0:3) UBIN;
     1652     8190
     1653     8191        %LOCK(G=KNN_LOCK);

   8196   2 000005  BB80 0000 0000  03                   LAB,B3   0
          2 000008  CBF0 0100                            LAB,B4   256,IMO
PL6.E3A0      #006=KNN$TIMER File=KNN$SUBS.:E05TSI                               WED 07/30/97 01:10 Page:278
          2 00000A  E380 0000 0000  xent                 LNJ,B6   GHH$LOCK
          2 00000D       0001                            DC       s:8198,PREL

     1654     8198    1      HDR$ = KNN_RASSMHD$;

   8198   2 00000E  EC80 0000 0000  xsym                 LDB,B6   KNN_RASSMHD$
          2 000011  EFC7 002B                            STB,B6   HDR$,AUTO

     1655     8199    2      DO WHILE HDR$ ~= ADDR(NIL);

   8199   2 000013  0F81 00EF                            B        s:8250,PREL

     1656     8200    2         K$NHDR.REASSEMTIM = K$NHDR.REASSEMTIM - 1;

   8200   2 000015  ECC7 002B                            LDB,B6   HDR$,AUTO
          2 000017  8CC6 0008                            LDI      8,B6
          2 000019  8470 FFFF FFFF                       AID      -1,IMO
          2 00001C  8D46 0008                            SDI      8,B6

     1657     8201    3         IF K$NHDR.REASSEMTIM = 0 THEN DO;

   8201   2 00001E  84F0 0000 0000                       SID      0,IMO
          2 000021  6981 00DB                            BNEZ,R6  s:8249,PREL
          2 000023  7981 00D9                            BNEZ,R7  s:8249,PREL

     1658     8202    3            NETPARM.NODE = K$NHDR.SRCNODE#;

   8202   2 000025  E846 0028                            LDR,R6   40,B6
          2 000027  E570 00FF                            AND,R6   255,IMO
          2 000029  EF47 0019                            STR,R6   NETPARM+21,AUTO

     1659     8203        /*
     1660     8204                switch the souce and destination for senderr
     1661     8205        */
     1662     8206    3            NETPARM.SRC_ADDR$ = ADDR(K$NHDR.DESTINATION);

   8206   2 00002B  DBC6 0015                            LAB,B5   21,B6
PL6.E3A0      #006=KNN$TIMER File=KNN$SUBS.:E05TSI                               WED 07/30/97 01:10 Page:279
          2 00002D  DFC7 0021                            STB,B5   NETPARM+29,AUTO

     1663     8207    3            NETPARM.DST_ADDR$ = ADDR(K$NHDR.SOURCE);

   8207   2 00002F  CBC6 000A                            LAB,B4   10,B6
          2 000031  CFC7 0023                            STB,B4   NETPARM+31,AUTO

     1664     8208    3            NETPARM.ERRCODE = %K_DSCRD_LIFEEXPASSM;

   8208   2 000033  D870 00A1                            LDR,R5   161,IMO
          2 000035  DF47 001A                            STR,R5   NETPARM+22,AUTO

     1665     8209    3            NETPARM.RECTYPE = K$NPDU_FIXED.LENGTH; /* should contain offset to size */

   8209   2 000037  BCC7 0012                            LDB,B3   NETPARM+14,AUTO
          2 000039  C803                                 LDR,R4   ,B3
          2 00003A  C570 00FF                            AND,R4   255,IMO
          2 00003C  CF47 0017                            STR,R4   NETPARM+19,AUTO

     1666     8210    3            NETPARM.NHDR$ = K$NHDR.HDR$;

   8210   2 00003E  ACC6 0020                            LDB,B2   32,B6
          2 000040  AFC7 0012                            STB,B2   NETPARM+14,AUTO

     1667     8211    3            NETPARM.NHDRSZ = K$NHDR.RECVSZ;

   8211   2 000042  B846 0026                            LDR,R3   38,B6
          2 000044  BF47 0014                            STR,R3   NETPARM+16,AUTO

     1668     8212    3            CALL KNN$SENDERR(NETPARM);

   8212   2 000046  BBC7 0004                            LAB,B3   NETPARM,AUTO
          2 000048  BFC7 003A                            STB,B3   ERRVAL+4,AUTO
          2 00004A  BBC7 003A                            LAB,B3   ERRVAL+4,AUTO
          2 00004C  CBF0 0100                            LAB,B4   256,IMO
          2 00004E  E380 0000 0000  xent                 LNJ,B6   KNN$SENDERR
          2 000051       0001                            DC       s:8213,PREL
PL6.E3A0      #006=KNN$TIMER File=KNN$SUBS.:E05TSI                               WED 07/30/97 01:10 Page:280

     1669     8213    3            ADDR(ERRVAL(0))->CALLEDFROM$ = ENTADDR(KNN$TIMER);

   8213   2 000052  EBC0 FFAD                            LAB,B6   s:7,PREL
          2 000054  EFC7 0036                            STB,B6   ERRVAL,AUTO

     1670     8214    3           CALL GHE$ERRLOG(E_DSCRD_LIFEEXPASSM,ERRVAL,K$NPDU_FIXED,SIZEC(K$NPDU_FIXED)
              8214                     ,'0'B);

   8214   2 000056  DBF0 000A                            LAB,B5   10,IMO
          2 000058  CBF0 0000                            LAB,B4   0,IMO
          2 00005A  CFC7 0042                            STB,B4   ERRVAL+12,AUTO
          2 00005C  DFC7 0040                            STB,B5   ERRVAL+10,AUTO
          2 00005E  BCC7 0012                            LDB,B3   NETPARM+14,AUTO
          2 000060  BFC7 003E                            STB,B3   ERRVAL+8,AUTO
          2 000062  ABC7 0036                            LAB,B2   ERRVAL,AUTO
          2 000064  AFC7 003C                            STB,B2   ERRVAL+6,AUTO
          2 000066  9B80 0000 0024  00                   LAB,B1   E_DSCRD_LIFEEXPASSM
          2 000069  9FC7 003A                            STB,B1   ERRVAL+4,AUTO
          2 00006B  BBC7 003A                            LAB,B3   ERRVAL+4,AUTO
          2 00006D  CBF0 0500                            LAB,B4   1280,IMO
          2 00006F  E380 0000 0000  xent                 LNJ,B6   GHE$ERRLOG
          2 000072       0001                            DC       s:8216,PREL

     1671     8215
     1672     8216    4            IF K$NHDR.BLINK$ = ADDR(NIL) THEN DO; /* at head           */

   8216   2 000073  ECC7 002B                            LDB,B6   HDR$,AUTO
          2 000075  8DC6 0004                            CMN      4,B6
          2 000077  0981 0012                            BNE      s:8222,PREL

     1673     8217    4               KNN_RASSMHD$ = K$NHDR.FLINK$;

   8217   2 000079  DCC6 0002                            LDB,B5   2,B6
          2 00007B  DF80 0000 0000  xsym                 STB,B5   KNN_RASSMHD$

     1674     8218    4               IF KNN_RASSMHD$ ~= ADDR(NIL) THEN
PL6.E3A0      #006=KNN$TIMER File=KNN$SUBS.:E05TSI                               WED 07/30/97 01:10 Page:281

   8218   2 00007E  8D80 0000 0000  xsym                 CMN      KNN_RASSMHD$
          2 000081  0901 000E                            BE       s:8224,PREL

     1675     8219    4                  KNN_RASSMHD$->K$NHDR.BLINK$ = ADDR(NIL);

   8219   2 000083  CB80 0000 0000                       LAB,B4   0
          2 000086  CFC5 0004                            STB,B4   4,B5

     1676     8220    4               END;

   8220   2 000088  0F81 0007                            B        s:8224,PREL

     1677     8221    3            ELSE
     1678     8222    3               K$NHDR.BLINK$->K$NHDR.FLINK$ = K$NHDR.FLINK$;

   8222   2 00008A  DCC6 0004                            LDB,B5   4,B6
          2 00008C  CCC6 0002                            LDB,B4   2,B6
          2 00008E  CFC5 0002                            STB,B4   2,B5

     1679     8223
     1680     8224    4            IF K$NHDR.FLINK$ = ADDR(NIL) THEN DO;

   8224   2 000090  8DC6 0002                            CMN      2,B6
          2 000092  0981 0012                            BNE      s:8230,PREL

     1681     8225    4               KNN_RASSMTL$ = K$NHDR.BLINK$;

   8225   2 000094  DCC6 0004                            LDB,B5   4,B6
          2 000096  DF80 0000 0000  xsym                 STB,B5   KNN_RASSMTL$

     1682     8226    4               IF KNN_RASSMTL$ ~= ADDR(NIL) THEN

   8226   2 000099  8D80 0000 0000  xsym                 CMN      KNN_RASSMTL$
          2 00009C  0901 000E                            BE       s:8232,PREL

     1683     8227    4                  KNN_RASSMTL$->K$NHDR.FLINK$ = ADDR(NIL);
PL6.E3A0      #006=KNN$TIMER File=KNN$SUBS.:E05TSI                               WED 07/30/97 01:10 Page:282

   8227   2 00009E  CB80 0000 0000                       LAB,B4   0
          2 0000A1  CFC5 0002                            STB,B4   2,B5

     1684     8228    4               END;

   8228   2 0000A3  0F81 0007                            B        s:8232,PREL

     1685     8229    3            ELSE
     1686     8230    3               K$NHDR.FLINK$->K$NHDR.BLINK$ = K$NHDR.BLINK$;

   8230   2 0000A5  DCC6 0002                            LDB,B5   2,B6
          2 0000A7  CCC6 0004                            LDB,B4   4,B6
          2 0000A9  CFC5 0004                            STB,B4   4,B5

     1687     8231
     1688     8232    4            DO WHILE K$NHDR.FRAG$ ~= ADDR(NIL);

   8232   2 0000AB  0F81 0022                            B        s:8238,PREL

     1689     8233    4               TFRAG$ = K$NHDR.FRAG$->K$NFRAG.LINK$;

   8233   2 0000AD  ECC7 002B                            LDB,B6   HDR$,AUTO
          2 0000AF  DCC6 0006                            LDB,B5   6,B6
          2 0000B1  CCC5 0001                            LDB,B4   1,B5
          2 0000B3  CFC7 002D                            STB,B4   TFRAG$,AUTO

     1690     8234    5               CALL KVB$RLS2NSYS(TFRAG$->ONEWORD) WHENALTRETURN DO;

   8234   2 0000B5  BBC7 002D                            LAB,B3   TFRAG$,AUTO
          2 0000B7  CBF0 0100                            LAB,B4   256,IMO
          2 0000B9  E380 0000 0000  xent                 LNJ,B6   KVB$RLS2NSYS
          2 0000BC       0003                            DC       s:8235,PREL
          2 0000BD  0F81 000A                            B        s:8237,PREL

     1691     8235    5                  CALL SCREECH(PRTCLERR);

PL6.E3A0      #006=KNN$TIMER File=KNN$SUBS.:E05TSI                               WED 07/30/97 01:10 Page:283
   8235   2 0000BF  BB80 0000 0002  03                   LAB,B3   +2
          2 0000C2  CBF0 0100                            LAB,B4   256,IMO
          2 0000C4  E380 0000 0000  xent                 LNJ,B6   SCREECH
          2 0000C7       0001                            DC       s:8237,PREL

     1692     8236    5                  END;

     1693     8237    4               K$NHDR.FRAG$ = TFRAG$;

   8237   2 0000C8  ECC7 002D                            LDB,B6   TFRAG$,AUTO
          2 0000CA  DCC7 002B                            LDB,B5   HDR$,AUTO
          2 0000CC  EFC5 0006                            STB,B6   6,B5

     1694     8238    4               END;

   8238   2 0000CE  ECC7 002B                            LDB,B6   HDR$,AUTO
          2 0000D0  8DC6 0006                            CMN      6,B6
          2 0000D2  09DB                                 BNE      s:8233,SPREL

     1695     8239
     1696     8240    3            TFRAG$ = K$NHDR.HDR$;

   8240   2 0000D3  DCC6 0020                            LDB,B5   32,B6
          2 0000D5  DFC7 002D                            STB,B5   TFRAG$,AUTO

     1697     8241    4            CALL KVB$RLS2NSYS(TFRAG$->ONEWORD) WHENALTRETURN DO;

   8241   2 0000D7  BBC7 002D                            LAB,B3   TFRAG$,AUTO
          2 0000D9  CBF0 0100                            LAB,B4   256,IMO
          2 0000DB  E380 0000 0000  xent                 LNJ,B6   KVB$RLS2NSYS
          2 0000DE       0003                            DC       s:8242,PREL
          2 0000DF  0F81 000A                            B        s:8245,PREL

     1698     8242    4               CALL SCREECH(PRTCLERR);

   8242   2 0000E1  BB80 0000 0002  03                   LAB,B3   +2
          2 0000E4  CBF0 0100                            LAB,B4   256,IMO
PL6.E3A0      #006=KNN$TIMER File=KNN$SUBS.:E05TSI                               WED 07/30/97 01:10 Page:284
          2 0000E6  E380 0000 0000  xent                 LNJ,B6   SCREECH
          2 0000E9       0001                            DC       s:8245,PREL

     1699     8243    4               END;

     1700     8244
     1701     8245    4            CALL KVB$RLS2NSYS(HDR$->ONEWORD) WHENALTRETURN DO;

   8245   2 0000EA  BBC7 002B                            LAB,B3   HDR$,AUTO
          2 0000EC  CBF0 0100                            LAB,B4   256,IMO
          2 0000EE  E380 0000 0000  xent                 LNJ,B6   KVB$RLS2NSYS
          2 0000F1       0003                            DC       s:8246,PREL
          2 0000F2  0F81 000A                            B        s:8249,PREL

     1702     8246    4               CALL SCREECH(PRTCLERR);

   8246   2 0000F4  BB80 0000 0002  03                   LAB,B3   +2
          2 0000F7  CBF0 0100                            LAB,B4   256,IMO
          2 0000F9  E380 0000 0000  xent                 LNJ,B6   SCREECH
          2 0000FC       0001                            DC       s:8249,PREL

     1703     8247    4               END;

     1704     8248    3            END;                           /* one timed out            */

     1705     8249    2         HDR$ = K$NHDR.FLINK$;

   8249   2 0000FD  ECC7 002B                            LDB,B6   HDR$,AUTO
          2 0000FF  DCC6 0002                            LDB,B5   2,B6
          2 000101  DFC7 002B                            STB,B5   HDR$,AUTO

     1706     8250    2         END;                              /* while hdr$ = addr(nil)   */

   8250   2 000103  8DC7 002B                            CMN      HDR$,AUTO
          2 000105  0981 FF0F                            BNE      s:8200,PREL

     1707     8251    1      GH$TMR_BLK.PROC$ = ENTADDR(KNN$TIMER);
PL6.E3A0      #006=KNN$TIMER File=KNN$SUBS.:E05TSI                               WED 07/30/97 01:10 Page:285

   8251   2 000107  EBC0 FEF8                            LAB,B6   s:7,PREL
          2 000109  EF80 0000 0000  01                   STB,B6   GH$TMR_BLK

     1708     8252    1      GH$TMR_BLK.INTERVAL = KNN_LIFETIME_UNIT;

   8252   2 00010C  E800 0000 0000  xsym                 LDR,R6   KNN_LIFETIME_UNIT
          2 00010F  EF00 0000 0003  01                   STR,R6   GH$TMR_BLK+3

     1709     8253    1      CALL GHS$SET_TMR(GH$TMR_BLK);

   8253   2 000112  BB80 0000 0004  03                   LAB,B3   +4
          2 000115  CBF0 0100                            LAB,B4   256,IMO
          2 000117  E380 0000 0000  xent                 LNJ,B6   GHS$SET_TMR
          2 00011A       0001                            DC       s:8259,PREL

     1710     8254        %UNLOCK(G=KNN_LOCK);

   8259   2 00011B  BB80 0000 0000  03                   LAB,B3   0
          2 00011E  CBF0 0100                            LAB,B4   256,IMO
          2 000120  E380 0000 0000  xent                 LNJ,B6   GHH$UNLOCK
          2 000123       0001                            DC       s:8261,PREL

     1711     8261    1   END KNN$TIMER;

   8261   2 000124  C380 0000 0000  xent                 LNJ,B4   X6A_ARET

PL6.E3A0      #006=KNN$TIMER File=KNN$SUBS.:E05TSI                               WED 07/30/97 01:10 Page:286
--  Include file information  --

   KN_ERRORS_C.:E05TOU  is referenced.
   GH_SCHD_M.:E05TOU  is referenced.
   K_SCODE_C.:E05TOU  is referenced.
   GH_GATE_M.:E05TOU  cannot be made into a system file and is referenced.
   K_NETWORK_E.:E05TOU  is referenced.
   K_NETWORK_M.:E05TOU  is referenced.
   K_ADDRESS_M.:E05TOU  is referenced.
   KN_DATA_M.:E05TOU  is referenced.
   G_LCP6_E.:E05TOU  is referenced.
   GT_LCP6_M.:E05TOU  is referenced.
   KI_CP6.:E05TOU  is referenced.
   GF_LCP6_M.:E05TOU  is referenced.
   GM_LCP6_M.:E05TOU  is referenced.
   GU_LCP6_M.:E05TOU  is referenced.
   GJ_LCP6_M.:E05TOU  is referenced.
   GH_LCP6_M.:E05TOU  is referenced.
   LCP_6.:E05TOU  cannot be made into a system file and is referenced.
      No diagnostics issued in procedure KNN$TIMER.
PL6.E3A0      #006=KNN$TIMER File=KNN$SUBS.:E05TSI                               WED 07/30/97 01:10 Page:287

 **** Variables and constants ****

  ****  Section 000 RoData KNN$TIMER

  ****  Scalars and arrays  ****
HexLoc.c.b A Datatyp(siz) R M Lvl/name                 HexLoc.c.b A Datatyp(siz) R M Lvl/name

    24-0-0/w STRC(32)    r     1 E_DSCRD_LIFEEXPASSM       21-0-0/w STRC(48)    r     1 PRTCLERR

  ****  Section 001  Data  KNN$TIMER

  ****  Scalars and arrays  ****
HexLoc.c.b A Datatyp(siz) R M Lvl/name                 HexLoc.c.b A Datatyp(siz) R M Lvl/name

     0-0-0/w STRC(160)   r     1 GH$TMR_BLK

  ****  Auto variables  ****

  ****  Scalars and arrays  ****
HexLoc.c.b A Datatyp(siz) R M Lvl/name                 HexLoc.c.b A Datatyp(siz) R M Lvl/name

    36-0-0/w UBIN(16)    r     1 ERRVAL(0:3)               2B-0-0/w PTR         r     1 HDR$
     4-0-0/w STRC(528)   r     1 NETPARM                   35-0-0/w UBIN(16)    r     1 SIZE
    2D-0-0/w PTR         r     1 TFRAG$

  ****  SYMREF variables  ****

  ****  Scalars and arrays  ****
HexLoc.c.b A Datatyp(siz) R M Lvl/name                 HexLoc.c.b A Datatyp(siz) R M Lvl/name

     0-0-0/w UBIN(16)    r     1 KNN_LIFETIME_UNIT          0-0-0/w STRC(48)    r     1 KNN_LOCK
     0-0-0/w PTR         r     1 KNN_RASSMHD$               0-0-0/w PTR         r     1 KNN_RASSMTL$

  ****  BASED and DCB variables  ****

  ****  Scalars and arrays  ****
HexLoc.c.b A Datatyp(siz) R M Lvl/name                 HexLoc.c.b A Datatyp(siz) R M Lvl/name
PL6.E3A0      #006=KNN$TIMER File=KNN$SUBS.:E05TSI                               WED 07/30/97 01:10 Page:288

     0-0-0/w EPTR        r     1 CALLEDFROM$                0-0-0/w STRC(80)    r     1 K$NFRAG
     0-0-0/w STRC(656)   r     1 K$NHDR                     0-0-0/w STRC(72)    r     1 K$NPDU_FIXED
     0-0-0/w UBIN(16)    r     1 ONEWORD


   Procedure KNN$TIMER requires 295 words for executable code.
   Procedure KNN$TIMER requires 68 words of local(AUTO) storage.

    No errors detected in file KNN$SUBS.:E05TSI    .
PL6.E3A0      #006=KNN$TIMER File=KNN$SUBS.:E05TSI                               WED 07/30/97 01:10 Page:289
          *** CROSS REFERENCE LISTING ***
**     DENOTES     IDENTIFIER DEFINITION
<<                 IDENTIFIER'S VALUE SET
>>                 IDENTIFIER'S VALUE USED
<>                 IDENTIFIER SET AND/OR USED
--                 IDENTIFIER REFERENCED
PL6.E3A0      #006=KNN$TIMER File=KNN$SUBS.:E05TSI                               WED 07/30/97 01:10 Page:290
          MINI XREF LISTING

CALLEDFROM$
      8151**DCL      8213<<ASSIGN
DESTINATION.ADDRESS_N
      8065**DCL      8066--REDEF
ERRVAL
      8189**DCL      8213--ASSIGN   8214<>CALL
E_DSCRD_LIFEEXPASSM
      7515**DCL      8214<>CALL
GH$TMR_BLK
      8140**DCL      8253<>CALL
GH$TMR_BLK.ARG
      8144**DCL      8145--REDEF
GH$TMR_BLK.INTERVAL
      8145**DCL      8252<<ASSIGN
GH$TMR_BLK.PROC$
      8144**DCL      8251<<ASSIGN
GHE$ERRLOG
      7282**DCL-ENT  8214--CALL
GHH$LOCK
      6981**DCL-ENT  8196--CALL
GHH$UNLOCK
      6981**DCL-ENT  8259--CALL
GHS$SET_TMR
      7281**DCL-ENT  8253--CALL
HDR$
      8181**DCL      7751--IMP-PTR  8198<<ASSIGN   8199>>DOWHILE  8200>>ASSIGN   8200>>ASSIGN   8201>>IF
      8202>>ASSIGN   8206>>ASSIGN   8207>>ASSIGN   8210>>ASSIGN   8211>>ASSIGN   8216>>IF       8217>>ASSIGN
      8222>>ASSIGN   8222>>ASSIGN   8224>>IF       8225>>ASSIGN   8230>>ASSIGN   8230>>ASSIGN   8232>>DOWHILE
      8233>>ASSIGN   8237>>ASSIGN   8240>>ASSIGN   8245>>CALL     8249<<ASSIGN   8249>>ASSIGN
K$NFRAG.LINK$
      7722**DCL      8233>>ASSIGN
K$NHDR.BLINK$
PL6.E3A0      #006=KNN$TIMER File=KNN$SUBS.:E05TSI                               WED 07/30/97 01:10 Page:291
      7764**DCL      8216>>IF       8219<<ASSIGN   8222>>ASSIGN   8225>>ASSIGN   8230<<ASSIGN   8230>>ASSIGN
K$NHDR.DESTINATION
      7847**DCL      8206--ASSIGN
K$NHDR.DESTINATION.ADDRESS_N
      7877**DCL      7878--REDEF
K$NHDR.FLINK$
      7760**DCL      8217>>ASSIGN   8222<<ASSIGN   8222>>ASSIGN   8224>>IF       8227<<ASSIGN   8230>>ASSIGN
      8249>>ASSIGN
K$NHDR.FRAG$
      7768**DCL      8232>>DOWHILE  8233>>ASSIGN   8237<<ASSIGN
K$NHDR.HDR$
      7881**DCL      8210>>ASSIGN   8240>>ASSIGN
K$NHDR.REASSEMTIM
      7772**DCL      8200<<ASSIGN   8200>>ASSIGN   8201>>IF
K$NHDR.RECVSZ
      7898**DCL      8211>>ASSIGN
K$NHDR.SOURCE
      7795**DCL      8207--ASSIGN
K$NHDR.SOURCE.ADDRESS_N
      7825**DCL      7826--REDEF
K$NHDR.SRCNODE#
      7911**DCL      8202>>ASSIGN
K$NPDU_FIXED
      8085**DCL      8214<>CALL     8214--CALL
K$NPDU_FIXED.LENGTH
      8091**DCL      8209>>ASSIGN
KNN$SENDERR
      7279**DCL-ENT  8212--CALL
KNN$TIMER
         7**PROC     8213--ASSIGN   8251--ASSIGN
KNN_LIFETIME_UNIT
      8157**DCL      8252>>ASSIGN
KNN_LOCK
      8170**DCL      8196<>CALL     8259<>CALL
KNN_RASSMHD$
      8155**DCL      8198>>ASSIGN   8217<<ASSIGN   8218>>IF       8219>>ASSIGN
PL6.E3A0      #006=KNN$TIMER File=KNN$SUBS.:E05TSI                               WED 07/30/97 01:10 Page:292
KNN_RASSMTL$
      8156**DCL      8225<<ASSIGN   8226>>IF       8227>>ASSIGN
KVB$RLS2NSYS
      7277**DCL-ENT  8234--CALL     8241--CALL     8245--CALL
NETPARM
      7561**DCL      8212<>CALL
NETPARM.DST_ADDR$
      7695**DCL      8033--IMP-PTR  8207<<ASSIGN
NETPARM.ERRCODE
      7668**DCL      8208<<ASSIGN
NETPARM.FPT$
      7680**DCL      7929--IMP-PTR
NETPARM.MSG$
      7568**DCL      7573--REDEF
NETPARM.NHDR$
      7620**DCL      7621--REDEF    8085--IMP-PTR  8209>>ASSIGN   8210<<ASSIGN   8214>>CALL
NETPARM.NHDRSZ
      7626**DCL      8211<<ASSIGN
NETPARM.NODE
      7663**DCL      8202<<ASSIGN
NETPARM.RECTYPE
      7647**DCL      8209<<ASSIGN
NETPARM.SHDR$
      7598**DCL      7599--REDEF
NETPARM.SRC_ADDR$
      7690**DCL      7981--IMP-PTR  8206<<ASSIGN
NETPARM.THDR$
      7609**DCL      7610--REDEF
NETPARM.UHDR$
      7584**DCL      7585--REDEF
NETPARM_C.MSG$
      7304**DCL      7309--REDEF
NETPARM_C.NHDR$
      7356**DCL      7357--REDEF
NETPARM_C.SHDR$
      7334**DCL      7335--REDEF
PL6.E3A0      #006=KNN$TIMER File=KNN$SUBS.:E05TSI                               WED 07/30/97 01:10 Page:293
NETPARM_C.THDR$
      7345**DCL      7346--REDEF
NETPARM_C.UHDR$
      7320**DCL      7321--REDEF
ONEWORD
      8150**DCL      8234<>CALL     8241<>CALL     8245<>CALL
PRTCLERR
      7466**DCL      8235<>CALL     8242<>CALL     8246<>CALL
SCREECH
      7280**DCL-ENT  8235--CALL     8242--CALL     8246--CALL
SIZE
      8188**DCL      8149--IMP-SIZ
SOURCE.ADDRESS_N
      8013**DCL      8014--REDEF
TFRAG$
      8182**DCL      7717--IMP-PTR  8233<<ASSIGN   8234>>CALL     8237>>ASSIGN   8240<<ASSIGN   8241>>CALL
