VERSION E05

PL6.E3A0      #001=KNT_DATA_D File=KNT$MISC.:E05TSI                              WED 07/30/97 01:08 Page:1
        1        1        /*M* KNT$MISC - Miscellaneous routines used by Fep transport. */
        2        2        /*T***********************************************************/
        3        3        /*T*                                                         */
        4        4        /*T* Copyright (c) Bull HN Information Systems Inc., 1997    */
        5        5        /*T*                                                         */
        6        6        /*T***********************************************************/
        7        7        /*X* PLM=3,IND=5,ENU=0,ECU=0  */
        8        8
        9        9        /*P* NAME: KNT$MISC
       10       10
       11       11        The file KNT$MISC contains the following modules/routines:
       12       12
       13       13        KNT_DATA_D
       14       14        KNT$DSESSION
       15       15        KNT$GETBUF and KNT$RELBUF
       16       16        KNT$RLS_CHAIN
       17       17        KNT$RETRANS
       18       18        KNT$TTIMER
       19       19        KNT$SET_UNQSESS
       20       20        KNT$UNQ
       21       21        KNT$TRACE
       22       22        */
       23       23
       24       24        /*M* KNT_DATA_D - Data used by the transport layer.   */
       25       25        /*X*  MEC,MOC,EXM=20,CLM=30,CRM=80                                */
       26       26
       27       27
       28       28        /*F* NAME: KNT_DATA_D
       29       29
       30       30        */
       31       31        KNT_DATA_D: PROC;
       32       32
       33       33        %INCLUDE K_TRANSPORT_E;
       34      358        %INCLUDE K_TRANSPORT_M;
       35     2142        %INCLUDE K_ADDRESS_M;
       36     2645        %INCLUDE K_SCODE_C;
       37     2730        %INCLUDE KN_DATA_M;
PL6.E3A0      #001=KNT_DATA_D File=KNT$MISC.:E05TSI                              WED 07/30/97 01:08 Page:2
       38     4516 S      %INCLUDE GU_LCP6_M;
       39     4517
       40     4518    1   DCL KNT$SET_UNQSESS ENTRY;
       41     4519
       42     4520                                      /* Based data used to determine byte sizes      */
       43     4521        %K$TPDU_CR_CC (NAME=K$TPDU_C, ALGN=CALIGNED);
       44     4590        %K$TPDU_DR (ALGN=CALIGNED);
       45     4633        %K$TPDU_DC (ALGN=CALIGNED);
       46     4672        %K$TPDU_DT (ALGN=CALIGNED);
       47     4722        %K$TPDU_DT_EXT (ALGN=CALIGNED);
       48     4786        %K$TPDU_AK (ALGN=CALIGNED);
       49     4834        %K$TPDU_AK_EXT (ALGN=CALIGNED);
       50     4878        %K$TPDU_EA (ALGN=CALIGNED);
       51     4904        %K$TPDU_EA_EXT (ALGN=CALIGNED);
       52     4930        %K$TPDU_ER (ALGN=CALIGNED);
       53     4969        %K$TPDU_CP6 (ALGN=CALIGNED);
       54     5004
       55     5005        %K$NSAP;
       56     5057        %K$TSAP;
       57     5092
       58     5093        %EJECT;
PL6.E3A0      #001=KNT_DATA_D File=KNT$MISC.:E05TSI                              WED 07/30/97 01:08 Page:3
       59     5094
       60     5095    1   DCL K_TSAP_SZ UBIN CONSTANT SYMDEF INIT(LENGTHC(K$TSAP));
       61     5096    1   DCL K_NSAP_SZ UBIN CONSTANT SYMDEF INIT(LENGTHC(K$NSAP));
       62     5097
       63     5098    1   DCL K_TPDU_SIZE(0:15) SBIN CONSTANT SYMDEF INIT(
       64     5099    1           LENGTHC(K$TPDU_CP6),
       65     5100    1           LENGTHC(K$TPDU_DT),
       66     5101    1           LENGTHC(K$TPDU_EA),
       67     5102    1           255/* 3 is not used*/,
       68     5103    1           255/* 4 is not used*/,
       69     5104    1           255/* RJ only used with class 1*/,
       70     5105    1           LENGTHC(K$TPDU_AK),
       71     5106    1           LENGTHC(K$TPDU_ER),
       72     5107    1           LENGTHC(K$TPDU_DR),
       73     5108    1           255/* 9 is not used*/,
       74     5109    1           255/* 10 is not used*/,
       75     5110    1           255/* 11 is not used*/,
       76     5111    1           LENGTHC(K$TPDU_DC),
       77     5112    1           LENGTHC(K$TPDU_C),
       78     5113    1           LENGTHC(K$TPDU_C),
       79     5114    1           LENGTHC(K$TPDU_DT));
       80     5115
       81     5116    1   DCL K_TPDU_SIZE_EXT(0:15) SBIN CONSTANT SYMDEF INIT(
       82     5117    1           LENGTHC(K$TPDU_CP6),
       83     5118    1           LENGTHC(K$TPDU_DT_EXT),
       84     5119    1           LENGTHC(K$TPDU_EA_EXT),
       85     5120    1           255/* 3 is not used*/,
       86     5121    1           255/* 4 is not used*/,
       87     5122    1           255/* RJ only used with class 1*/,
       88     5123    1           LENGTHC(K$TPDU_AK_EXT),
       89     5124    1           LENGTHC(K$TPDU_ER),
       90     5125    1           LENGTHC(K$TPDU_DR),
       91     5126    1           255/* 9 is not used*/,
       92     5127    1           255/* 10 is not used*/,
       93     5128    1           255/* 11 is not used*/,
       94     5129    1           LENGTHC(K$TPDU_DC),
       95     5130    1           LENGTHC(K$TPDU_C),
PL6.E3A0      #001=KNT_DATA_D File=KNT$MISC.:E05TSI                              WED 07/30/97 01:08 Page:4
       96     5131    1           LENGTHC(K$TPDU_C),
       97     5132    1           LENGTHC(K$TPDU_DT_EXT));
       98     5133
       99     5134
      100     5135
      101     5136    1   DCL K_TPDUSZ_VALUES(0:13) SBIN CONSTANT SYMDEF INIT(
      102     5137    1                   0,0,0,0,0,0,0,
      103     5138    1                   128,256,512,1024,2048,4096,8192);
      104     5139
      105     5140        /*K* K_TPDUSZ_VALUES - ARRAY(0:13).
      106     5141        Contains the maximum TPDU size given a value from K$TPARM_TPDU.SIZE
      107     5142        to be used as an index.  See K_TPDUSIZE_equ in file K_TRANSPORT_E.
      108     5143        */
      109     5144
      110     5145
      111     5146        %K$TPARM_CHKSUM (NAME=K_CKSUM_INIT, STCLASS = CONSTANT SYMDEF);
      112     5186
      113     5187    1   DCL KV_B_POOL# UBIN WORD STATIC SYMDEF INIT(0);
      114     5188    1   DCL KV_B_POOL$(0:5) PTR STATIC SYMDEF INIT(ADDR(NIL)*0);
      115     5189
      116     5190    1   DCL KNT_SCODE_ADDR PTR CONSTANT SYMDEF INIT(ADDR(KNT_SCODE));
      117     5191
      118     5192        %VLP_SCODE (FPTN=KNT_SCODE,ERR#=%S$PRTCLERR,SEV=G_SEV_SCREECH#,
      119     5193                       STCLASS=CONSTANT SYMDEF,FCG=KN,MID=T,MON='1'B);
      120     5254
      121     5255        /*S* SCREECH_CODE: KNT-S$PRTCLERR
      122     5256             TYPE: SCREECH
      123     5257             MESSAGE: Communications protocol error.
      124     5258        */
      125     5259
      126     5260
      127     5261
      128     5262        %KN$LDCT (NAME=KNT_UNQ_LDCT, STCLASS=STATIC SYMDEF, USER_ENTRY=KNT$SET_UNQSESS);
      129     5507        /*K* KNT_UNQ_LDCT - LDCT.
      130     5508        This LDCT, which is compiled in static memory, is used by
      131     5509        transport to specify an entry point that HMI may call when
      132     5510        items have been removed from COUPLER's RCQ and we have
PL6.E3A0      #001=KNT_DATA_D File=KNT$MISC.:E05TSI                              WED 07/30/97 01:08 Page:5
      133     5511        buffered data waiting to be delivered to host session.
      134     5512        */
      135     5513
      136     5514    1   DCL KNT_WAIT_HEAD$ PTR STATIC SYMDEF INIT(ADDR(NIL));
      137     5515        /*K* KNT_WAIT_HEAD$ - PTR.
      138     5516        Contains the address of the first LDCT on the chain of
      139     5517        LDCTs that are waiting for Transport Buffer space.
      140     5518        Waiting LDCTs are chained through KN$LDCT.LNK$.
      141     5519        */
      142     5520
      143     5521    1   DCL KNT_WAIT_COUNT UBIN STATIC SYMDEF INIT(0);
      144     5522        /*K* KNT_WAIT_COUNT - UBIN.
      145     5523        Contains a count of the LDCTs that are on the chain of LDCTs
      146     5524        that are waiting for Transport Buffer space plus a count of
      147     5525        the Transport connections that need a reassembly buffer.
      148     5526        */
      149     5527
      150     5528    1   DCL KNT$TRC_BUF$ PTR SYMDEF STATIC INIT(ADDR(NIL));
      151     5529        /*K* KNT$TRC_BUF$ - PTR.
      152     5530        Contains the address of the transport trace buffer.
      153     5531        The trace buffer is allocated by GIM$FINISH_INIT
      154     5532        in the unused area within PPUT and the address of
      155     5533        that area is stored here.
      156     5534        */
      157     5535
      158     5536    1   DCL KNT_TRC_BUF# UBIN STATIC SYMDEF INIT(0);
      159     5537        /*K* KNT_TRC_BUF# - UBIN.
      160     5538        Contains the number of entries in the transport
      161     5539        trace buffer.  Initialized by GIM$FINISH_INIT.
      162     5540        */
      163     5541
      164     5542    1   DCL KNT_TRC_X UBIN STATIC SYMDEF INIT(0);
      165     5543        /*K* KNT_TRC_X - UBIN.
      166     5544        Contains the index to the next available entry
      167     5545        in the transport trace buffer.
      168     5546        */
      169     5547
PL6.E3A0      #001=KNT_DATA_D File=KNT$MISC.:E05TSI                              WED 07/30/97 01:08 Page:6
      170     5548        %EJECT;
PL6.E3A0      #001=KNT_DATA_D File=KNT$MISC.:E05TSI                              WED 07/30/97 01:08 Page:7
      171     5549        /*******************************************************************/
      172     5550        /*                                                                 */
      173     5551        /*                                                                 */
      174     5552        /*              Counts that should be in STATS                     */
      175     5553        /*                                                                 */
      176     5554        /*                                                                 */
      177     5555        /*******************************************************************/
      178     5556
      179     5557
      180     5558    1   DCL KNT_DISCARDED_TPDUS UBIN STATIC SYMDEF INIT(0);
      181     5559        /*K* KNT_DISCARDED_TPDUS - UBIN.
      182     5560        Contains a count of number of all TPDUs that have been discarded.
      183     5561        */
      184     5562
      185     5563
      186     5564    1   DCL KNT_CHKSUM_ERR UBIN STATIC SYMDEF INIT(0);
      187     5565        /*K* KNT_CHKSUM_ERR - UBIN.
      188     5566        Contains a count of number of TPDUs that have been discarded
      189     5567        becuase of checksum failure.
      190     5568        */
      191     5569
      192     5570    1   DCL KNT_ASSMBUF_ERR UBIN STATIC SYMDEF INIT(0);
      193     5571        /*K* KNT_ASSMBUF_ERR - UBIN.
      194     5572        Contains a count of number of times KNT$GET_RBUF failed
      195     5573        when a reassembly buffer was needed.  The count of these
      196     5574        failures is included in TCTX.RERR.NOBUF.
      197     5575        */
      198     5576
      199     5577        %EJECT;
PL6.E3A0      #001=KNT_DATA_D File=KNT$MISC.:E05TSI                              WED 07/30/97 01:08 Page:8
      200     5578        /*******************************************************************/
      201     5579        /*                                                                 */
      202     5580        /*                                                                 */
      203     5581        /*              Defaults for transport options                     */
      204     5582        /*                                                                 */
      205     5583        /*                                                                 */
      206     5584        /*******************************************************************/
      207     5585
      208     5586
      209     5587    1   DCL KNT_DEFAULT_TPDUSZ UBIN STATIC SYMDEF INIT(0);
      210     5588        /*K* KNT_DEFAULT_TPDUSZ - UBIN.
      211     5589        Contains a value to be used to determine the default tpdu size.
      212     5590        This is an index into K_TPDUSZ_VALUES.  Valid values are 7 through 13.
      213     5591        If outside of this range, 13 (8192 bytes) will be assumed.
      214     5592        This default applies to CP-6 transport connections only.
      215     5593        */
      216     5594
      217     5595    1   DCL KNT_DEFAULT_EXTENDED UBIN STATIC SYMDEF INIT(1);
      218     5596        /*K* KNT_DEFAULT_EXTENDED - UBIN.
      219     5597        If set to zero will cause all outbound transport class 4
      220     5598        connections to use the normal formats.  The default is to
      221     5599        use the extended format, thereby allowing for a larger
      222     5600        window size.
      223     5601        */
      224     5602
      225     5603    1   DCL KNT_DEFAULT_CLASS UBIN STATIC SYMDEF INIT(4);
      226     5604        /*K* KNT_DEFAULT_CLASS - UBIN.
      227     5605        Specifies the transport class that session is to
      228     5606        choose for all connections that are not QDP.
      229     5607        */
      230     5608
      231     5609    1   DCL KNT_DEFAULT_QOS UBIN STATIC SYMDEF INIT(0);
      232     5610        /*K* KNT_DEFAULT_QOS - UBIN.
      233     5611        Specifies the transport QOS that session is to
      234     5612        choose for all connections that are not QDP.
      235     5613        */
      236     5614
PL6.E3A0      #001=KNT_DATA_D File=KNT$MISC.:E05TSI                              WED 07/30/97 01:08 Page:9
      237     5615    1   DCL KNT_DEFAULT_CHKSUM UBIN STATIC SYMDEF INIT(1);
      238     5616        /*K* KNT_DEFAULT_CHKSUM - UBIN.
      239     5617        If set to zero will cause all outbound transport connections
      240     5618        to be created with the non-use of the checksum facility.
      241     5619        */
      242     5620
      243     5621    1   DCL KNT_DO_CHKSUM UBIN STATIC SYMDEF INIT(1);
      244     5622        /*K* KNT_DO_CHKSUM - UBIN.
      245     5623        If set to zero will cause all checking of checksums to
      246     5624        be inhibited.
      247     5625        */
      248     5626
      249     5627    1   DCL KNT_WINDOW_NORMAL UBIN STATIC SYMDEF INIT(15);
      250     5628        /*K* KNT_WINDOW_NORMAL - UBIN.
      251     5629        Contains the default transport window size for transport connections
      252     5630        that use the normal formats.
      253     5631        The default for the default is 15.
      254     5632        */
      255     5633
      256     5634    1   DCL KNT_WINDOW_EXTENDED UBIN STATIC SYMDEF INIT(40);
      257     5635        /*K* KNT_WINDOW_EXTENDED - UBIN.
      258     5636        Contains the default transport window size for transport connections
      259     5637        that use the extended formats.
      260     5638        The default for the default is 40.
      261     5639        */
      262     5640
      263     5641    1   DCL KNT_HOLDBACK UBIN STATIC SYMDEF INIT(5);
      264     5642        /*K* KNT_HOLDBACK - UBIN.
      265     5643        Contains the maximum number of unacked messages that may be
      266     5644        in the receive window.
      267     5645        */
      268     5646
      269     5647
      270     5648        /* knt_retran_tpdu#, knt_max_retry and knt_retran_timer values
      271     5649           all have to be considered together.  The timeout value for
      272     5650           HDLC also has to be taken into consiceration.
      273     5651        */
PL6.E3A0      #001=KNT_DATA_D File=KNT$MISC.:E05TSI                              WED 07/30/97 01:08 Page:10
      274     5652
      275     5653    1   DCL KNT_RETRAN_TPDU# UBIN STATIC SYMDEF INIT(10);
      276     5654        /*K* KNT_RETRAN_TPDU# - UBIN.
      277     5655        Contains the maximum number of unacked messages that are to
      278     5656        be retransmitted when the retranmission timer expires.
      279     5657        */
      280     5658
      281     5659    1   DCL KNT_MAX_RETRY UBIN STATIC SYMDEF INIT(6);
      282     5660        /*K* KNT_MAX_RETRY - UBIN.
      283     5661        Contains the default value to determine how many times
      284     5662        to attempt to resend an un-ACKed TPDU before beginning
      285     5663        the disconnect process.
      286     5664        The default for the default is 6.
      287     5665        */
      288     5666
      289     5667    1   DCL KNT_RETRAN_TIMER UBIN STATIC SYMDEF INIT(25);
      290     5668        /*K* KNT_RETRAN_TIMER - UBIN.
      291     5669        Contains the default value for the retransmission timer
      292     5670        expressed in seconds.  The default is 25.
      293     5671        */
      294     5672
      295     5673    1   DCL KNT_WINDOW_TIMER UBIN STATIC SYMDEF INIT(20);
      296     5674        /*K* KNT_WINDOW_TIMER - UBIN.
      297     5675        Contains the default value for the window timer
      298     5676        expressed in seconds.  The default is 20.
      299     5677        */
      300     5678
      301     5679    1   DCL KNT_FCCWINDOW_TIMER UBIN STATIC SYMDEF INIT(260);
      302     5680        /*K* KNT_FCCWINDOW_TIMER - UBIN.
      303     5681        Contains the default value for the keep-alive window timer,
      304     5682        expressed in seconds.  The default is 260.
      305     5683        */
      306     5684
      307     5685    1   DCL KNT_INACTIVITY_TIMER UBIN STATIC SYMDEF INIT(900);
      308     5686        /*K* KNT_INACTIVITY_TIMER - UBIN.
      309     5687        Contains the default value for the inactivity timer
      310     5688        expressed in seconds.  The default is 900 (15 min).
PL6.E3A0      #001=KNT_DATA_D File=KNT$MISC.:E05TSI                              WED 07/30/97 01:08 Page:11
      311     5689        */
      312     5690
      313     5691    1   DCL KNT_REFERENCE_TIMER UBIN STATIC SYMDEF INIT(360);
      314     5692        /*K* KNT_REFERENCE_TIMER - UBIN.
      315     5693        Contains the default value for the reference timer
      316     5694        expressed in seconds.  The default is 360 (6 min).
      317     5695        */
      318     5696
      319     5697
      320     5698        %EJECT;
PL6.E3A0      #001=KNT_DATA_D File=KNT$MISC.:E05TSI                              WED 07/30/97 01:08 Page:12
      321     5699        /*******************************************************************/
      322     5700        /*                                                                 */
      323     5701        /*                                                                 */
      324     5702        /*     Options that may be set to aid debugging transport          */
      325     5703        /*                                                                 */
      326     5704        /*                                                                 */
      327     5705        /*******************************************************************/
      328     5706
      329     5707
      330     5708    1   DCL KNT_TIMER_SCREECH UBIN STATIC SYMDEF INIT(0);
      331     5709        /*K* KNT_TIMER_SCREECH - UBIN.
      332     5710        If set to non-zero will cause the KNT$TTIMER to screech the fep
      333     5711        when entered with what appears to be stale timer info.
      334     5712        */
      335     5713
      336     5714    1   DCL KNT_ERROR_SCREECH UBIN STATIC SYMDEF INIT(0);
      337     5715        /*K* KNT_ERROR_SCREECH - UBIN.
      338     5716        If set to non-zero will cause the transport to call screech
      339     5717        instead of just logging the error tpdu.
      340     5718        */
      341     5719
      342     5720    1   DCL KNT_BUFFER_SCREECH UBIN STATIC SYMDEF INIT(0);
      343     5721        /*K* KNT_BUFFER_SCREECH - UBIN.
      344     5722        If set to non-zero will cause a screech if we run out of transport
      345     5723        buffers.
      346     5724        */
      347     5725
      348     5726    1   DCL KNT_TRACE_INTERMEDIATE UBIN STATIC SYMDEF INIT(0);
      349     5727        /*K* KNT_TRACE_INTERMEDIATE - UBIN.
      350     5728        If set to non-zero will cause a trace of most of the tpdus
      351     5729        associated with an intermediate transport connection.
      352     5730        */
      353     5731
      354     5732    1   DCL KNT_TRACE_CLASS4 UBIN STATIC SYMDEF INIT(0);
      355     5733        /*K* KNT_TRACE_CLASS4 - UBIN.
      356     5734        If set to non-zero will cause a trace of most of the tpdus
      357     5735        associated with all class 4 transport connection.
PL6.E3A0      #001=KNT_DATA_D File=KNT$MISC.:E05TSI                              WED 07/30/97 01:08 Page:13
      358     5736        */
      359     5737
      360     5738    1   DCL KNT_TRACE_OSI UBIN STATIC SYMDEF INIT(0);
      361     5739        /*K* KNT_TRACE_OSI - UBIN.
      362     5740        If set to non-zero will cause a trace of most of the tpdus
      363     5741        associated with all OSI transport connection.
      364     5742        */
      365     5743
      366     5744
      367     5745    1   END KNT_DATA_D;
      368     5746        %EOD;

PL6.E3A0      #001=KNT_DATA_D File=KNT$MISC.:E05TSI                              WED 07/30/97 01:08 Page:14
--  Include file information  --

   KN_DATA_M.:E05TOU  is referenced.
   K_SCODE_C.:E05TOU  is referenced.
   K_ADDRESS_M.:E05TOU  is referenced.
   K_TRANSPORT_M.:E05TOU  is referenced.
   K_TRANSPORT_E.:E05TOU  is referenced.
   G_LCP6_E.:E05TOU  was found in the system file and is never referenced.
   GT_LCP6_M.:E05TOU  was found in the system file and is never referenced.
   KI_CP6.:E05TOU  was found in the system file and is never referenced.
   GF_LCP6_M.:E05TOU  was found in the system file and is never referenced.
   GM_LCP6_M.:E05TOU  was found in the system file and is never referenced.
   GU_LCP6_M.:E05TOU  was found in the system file and is referenced.
   GJ_LCP6_M.:E05TOU  was found in the system file and is never referenced.
   GH_LCP6_M.:E05TOU  was found in the system file and is never referenced.
      No diagnostics issued in procedure KNT_DATA_D.

   No code generated for procedure KNT_DATA_D .
   Procedure KNT_DATA_D requires 4 words of local(AUTO) storage.

PL6.E3A0      #001=KNT_DATA_D File=KNT$MISC.:E05TSI                              WED 07/30/97 01:08 Page:15

 Object Unit name= KNT_DATA_D                                 File name= KNT$MISC.:E05TOU
 UTS= JUL 30 '97 01:08:40.08 WED                              Compiler= PL-6/E31         Sev=      00
 SharedLib= :SHARED_LCP6_SYSTEM                               Alt SharedLib=


    ****  Control sections  ****

 Sect   Type Bound  Init  Size HexSiz  Section name
    0  RoData even  UTS     55     37  KNT_DATA_D
    1   Data  even  none    61     3D  KNT_DATA_D
    2   Proc  even  none     0      0  KNT_DATA_D

    ****  Entry defs  ****

                              Check   Calling
                             calling  sequence
  Sect HexLoc Primary Altret sequence   type   Parms  Name
     2      0   yes            yes     ~proc       0  KNT_DATA_D
PL6.E3A0      #001=KNT_DATA_D File=KNT$MISC.:E05TSI                              WED 07/30/97 01:08 Page:16

  ****  Data defs  ****

 Sect HexLoc  Name                           Sect HexLoc  Name
    0      0  K_TSAP_SZ                          0      1  K_NSAP_SZ
    0      2  K_TPDU_SIZE                        0     12  K_TPDU_SIZE_EXT
    0     22  K_TPDUSZ_VALUES                    0     30  K_CKSUM_INIT
    1      0  KV_B_POOL#                         1      1  KV_B_POOL$
    0     32  KNT_SCODE_ADDR                     0     34  KNT_SCODE
    1      D  KNT_UNQ_LDCT                       1     1D  KNT_WAIT_HEAD$
    1     1F  KNT_WAIT_COUNT                     1     20  KNT$TRC_BUF$
    1     22  KNT_TRC_BUF#                       1     23  KNT_TRC_X
    1     24  KNT_DISCARDED_TPDUS                1     25  KNT_CHKSUM_ERR
    1     26  KNT_ASSMBUF_ERR                    1     27  KNT_DEFAULT_TPDUSZ
    1     28  KNT_DEFAULT_EXTENDED               1     29  KNT_DEFAULT_CLASS
    1     2A  KNT_DEFAULT_QOS                    1     2B  KNT_DEFAULT_CHKSUM
    1     2C  KNT_DO_CHKSUM                      1     2D  KNT_WINDOW_NORMAL
    1     2E  KNT_WINDOW_EXTENDED                1     2F  KNT_HOLDBACK
    1     30  KNT_RETRAN_TPDU#                   1     31  KNT_MAX_RETRY
    1     32  KNT_RETRAN_TIMER                   1     33  KNT_WINDOW_TIMER
    1     34  KNT_FCCWINDOW_TIMER                1     35  KNT_INACTIVITY_TIMER
    1     36  KNT_REFERENCE_TIMER                1     37  KNT_TIMER_SCREECH
    1     38  KNT_ERROR_SCREECH                  1     39  KNT_BUFFER_SCREECH
    1     3A  KNT_TRACE_INTERMEDIATE             1     3B  KNT_TRACE_CLASS4
    1     3C  KNT_TRACE_OSI

  ****  Entry refs  ****

         Check        Calling
        calling       sequence
Altret sequence SRef   type   Args  Name
         yes           Std       0 KNT$SET_UNQSESS
PL6.E3A0      #001=KNT_DATA_D File=KNT$MISC.:E05TSI                              WED 07/30/97 01:08 Page:17

  ****  Data refs  ****

  Flags:  r = read only, s = secondary
Flgs Name                             Flgs Name                             Flgs Name
r    G$ROS$
PL6.E3A0      #001=KNT_DATA_D File=KNT$MISC.:E05TSI                              WED 07/30/97 01:08 Page:18

        1        1        /*M* KNT$MISC - Miscellaneous routines used by Fep transport. */
        2        2        /*T***********************************************************/
        3        3        /*T*                                                         */
        4        4        /*T* Copyright (c) Bull HN Information Systems Inc., 1997    */
        5        5        /*T*                                                         */
        6        6        /*T***********************************************************/
        7        7        /*X* PLM=3,IND=5,ENU=0,ECU=0  */
        8        8
        9        9        /*P* NAME: KNT$MISC
       10       10
       11       11        The file KNT$MISC contains the following modules/routines:
       12       12
       13       13        KNT_DATA_D
       14       14        KNT$DSESSION
       15       15        KNT$GETBUF and KNT$RELBUF
       16       16        KNT$RLS_CHAIN
       17       17        KNT$RETRANS
       18       18        KNT$TTIMER
       19       19        KNT$SET_UNQSESS
       20       20        KNT$UNQ
       21       21        KNT$TRACE
       22       22        */
       23       23
       24       24        /*M* KNT_DATA_D - Data used by the transport layer.   */
       25       25        /*X*  MEC,MOC,EXM=20,CLM=30,CRM=80                                */
       26       26
       27       27
       28       28        /*F* NAME: KNT_DATA_D
       29       29
       30       30        */
       31       31        KNT_DATA_D: PROC;
       32       32
       33       33        %INCLUDE K_TRANSPORT_E;
       34      358        %INCLUDE K_TRANSPORT_M;
       35     2142        %INCLUDE K_ADDRESS_M;
       36     2645        %INCLUDE K_SCODE_C;
       37     2730        %INCLUDE KN_DATA_M;
PL6.E3A0      #001=KNT_DATA_D File=KNT$MISC.:E05TSI                              WED 07/30/97 01:08 Page:19
       38     4516 S      %INCLUDE GU_LCP6_M;
       39     4517
       40     4518    1   DCL KNT$SET_UNQSESS ENTRY;
       41     4519
       42     4520                                      /* Based data used to determine byte sizes      */
       43     4521        %K$TPDU_CR_CC (NAME=K$TPDU_C, ALGN=CALIGNED);
       44     4590        %K$TPDU_DR (ALGN=CALIGNED);
       45     4633        %K$TPDU_DC (ALGN=CALIGNED);
       46     4672        %K$TPDU_DT (ALGN=CALIGNED);
       47     4722        %K$TPDU_DT_EXT (ALGN=CALIGNED);
       48     4786        %K$TPDU_AK (ALGN=CALIGNED);
       49     4834        %K$TPDU_AK_EXT (ALGN=CALIGNED);
       50     4878        %K$TPDU_EA (ALGN=CALIGNED);
       51     4904        %K$TPDU_EA_EXT (ALGN=CALIGNED);
       52     4930        %K$TPDU_ER (ALGN=CALIGNED);
       53     4969        %K$TPDU_CP6 (ALGN=CALIGNED);
       54     5004
       55     5005        %K$NSAP;
       56     5057        %K$TSAP;
       57     5092
       58     5093        %EJECT;
PL6.E3A0      #001=KNT_DATA_D File=KNT$MISC.:E05TSI                              WED 07/30/97 01:08 Page:20
       59     5094
       60     5095    1   DCL K_TSAP_SZ UBIN CONSTANT SYMDEF INIT(LENGTHC(K$TSAP));
       61     5096    1   DCL K_NSAP_SZ UBIN CONSTANT SYMDEF INIT(LENGTHC(K$NSAP));
       62     5097
       63     5098    1   DCL K_TPDU_SIZE(0:15) SBIN CONSTANT SYMDEF INIT(
       64     5099    1           LENGTHC(K$TPDU_CP6),
       65     5100    1           LENGTHC(K$TPDU_DT),
       66     5101    1           LENGTHC(K$TPDU_EA),
       67     5102    1           255/* 3 is not used*/,
       68     5103    1           255/* 4 is not used*/,
       69     5104    1           255/* RJ only used with class 1*/,
       70     5105    1           LENGTHC(K$TPDU_AK),
       71     5106    1           LENGTHC(K$TPDU_ER),
       72     5107    1           LENGTHC(K$TPDU_DR),
       73     5108    1           255/* 9 is not used*/,
       74     5109    1           255/* 10 is not used*/,
       75     5110    1           255/* 11 is not used*/,
       76     5111    1           LENGTHC(K$TPDU_DC),
       77     5112    1           LENGTHC(K$TPDU_C),
       78     5113    1           LENGTHC(K$TPDU_C),
       79     5114    1           LENGTHC(K$TPDU_DT));
       80     5115
       81     5116    1   DCL K_TPDU_SIZE_EXT(0:15) SBIN CONSTANT SYMDEF INIT(
       82     5117    1           LENGTHC(K$TPDU_CP6),
       83     5118    1           LENGTHC(K$TPDU_DT_EXT),
       84     5119    1           LENGTHC(K$TPDU_EA_EXT),
       85     5120    1           255/* 3 is not used*/,
       86     5121    1           255/* 4 is not used*/,
       87     5122    1           255/* RJ only used with class 1*/,
       88     5123    1           LENGTHC(K$TPDU_AK_EXT),
       89     5124    1           LENGTHC(K$TPDU_ER),
       90     5125    1           LENGTHC(K$TPDU_DR),
       91     5126    1           255/* 9 is not used*/,
       92     5127    1           255/* 10 is not used*/,
       93     5128    1           255/* 11 is not used*/,
       94     5129    1           LENGTHC(K$TPDU_DC),
       95     5130    1           LENGTHC(K$TPDU_C),
PL6.E3A0      #001=KNT_DATA_D File=KNT$MISC.:E05TSI                              WED 07/30/97 01:08 Page:21
       96     5131    1           LENGTHC(K$TPDU_C),
       97     5132    1           LENGTHC(K$TPDU_DT_EXT));
       98     5133
       99     5134
      100     5135
      101     5136    1   DCL K_TPDUSZ_VALUES(0:13) SBIN CONSTANT SYMDEF INIT(
      102     5137    1                   0,0,0,0,0,0,0,
      103     5138    1                   128,256,512,1024,2048,4096,8192);
      104     5139
      105     5140        /*K* K_TPDUSZ_VALUES - ARRAY(0:13).
      106     5141        Contains the maximum TPDU size given a value from K$TPARM_TPDU.SIZE
      107     5142        to be used as an index.  See K_TPDUSIZE_equ in file K_TRANSPORT_E.
      108     5143        */
      109     5144
      110     5145
      111     5146        %K$TPARM_CHKSUM (NAME=K_CKSUM_INIT, STCLASS = CONSTANT SYMDEF);
      112     5186
      113     5187    1   DCL KV_B_POOL# UBIN WORD STATIC SYMDEF INIT(0);
      114     5188    1   DCL KV_B_POOL$(0:5) PTR STATIC SYMDEF INIT(ADDR(NIL)*0);
      115     5189
      116     5190    1   DCL KNT_SCODE_ADDR PTR CONSTANT SYMDEF INIT(ADDR(KNT_SCODE));
      117     5191
      118     5192        %VLP_SCODE (FPTN=KNT_SCODE,ERR#=%S$PRTCLERR,SEV=G_SEV_SCREECH#,
      119     5193                       STCLASS=CONSTANT SYMDEF,FCG=KN,MID=T,MON='1'B);
      120     5254
      121     5255        /*S* SCREECH_CODE: KNT-S$PRTCLERR
      122     5256             TYPE: SCREECH
      123     5257             MESSAGE: Communications protocol error.
      124     5258        */
      125     5259
      126     5260
      127     5261
      128     5262        %KN$LDCT (NAME=KNT_UNQ_LDCT, STCLASS=STATIC SYMDEF, USER_ENTRY=KNT$SET_UNQSESS);
      129     5507        /*K* KNT_UNQ_LDCT - LDCT.
      130     5508        This LDCT, which is compiled in static memory, is used by
      131     5509        transport to specify an entry point that HMI may call when
      132     5510        items have been removed from COUPLER's RCQ and we have
PL6.E3A0      #001=KNT_DATA_D File=KNT$MISC.:E05TSI                              WED 07/30/97 01:08 Page:22
      133     5511        buffered data waiting to be delivered to host session.
      134     5512        */
      135     5513
      136     5514    1   DCL KNT_WAIT_HEAD$ PTR STATIC SYMDEF INIT(ADDR(NIL));
      137     5515        /*K* KNT_WAIT_HEAD$ - PTR.
      138     5516        Contains the address of the first LDCT on the chain of
      139     5517        LDCTs that are waiting for Transport Buffer space.
      140     5518        Waiting LDCTs are chained through KN$LDCT.LNK$.
      141     5519        */
      142     5520
      143     5521    1   DCL KNT_WAIT_COUNT UBIN STATIC SYMDEF INIT(0);
      144     5522        /*K* KNT_WAIT_COUNT - UBIN.
      145     5523        Contains a count of the LDCTs that are on the chain of LDCTs
      146     5524        that are waiting for Transport Buffer space plus a count of
      147     5525        the Transport connections that need a reassembly buffer.
      148     5526        */
      149     5527
      150     5528    1   DCL KNT$TRC_BUF$ PTR SYMDEF STATIC INIT(ADDR(NIL));
      151     5529        /*K* KNT$TRC_BUF$ - PTR.
      152     5530        Contains the address of the transport trace buffer.
      153     5531        The trace buffer is allocated by GIM$FINISH_INIT
      154     5532        in the unused area within PPUT and the address of
      155     5533        that area is stored here.
      156     5534        */
      157     5535
      158     5536    1   DCL KNT_TRC_BUF# UBIN STATIC SYMDEF INIT(0);
      159     5537        /*K* KNT_TRC_BUF# - UBIN.
      160     5538        Contains the number of entries in the transport
      161     5539        trace buffer.  Initialized by GIM$FINISH_INIT.
      162     5540        */
      163     5541
      164     5542    1   DCL KNT_TRC_X UBIN STATIC SYMDEF INIT(0);
      165     5543        /*K* KNT_TRC_X - UBIN.
      166     5544        Contains the index to the next available entry
      167     5545        in the transport trace buffer.
      168     5546        */
      169     5547
PL6.E3A0      #001=KNT_DATA_D File=KNT$MISC.:E05TSI                              WED 07/30/97 01:08 Page:23
      170     5548        %EJECT;
PL6.E3A0      #001=KNT_DATA_D File=KNT$MISC.:E05TSI                              WED 07/30/97 01:08 Page:24
      171     5549        /*******************************************************************/
      172     5550        /*                                                                 */
      173     5551        /*                                                                 */
      174     5552        /*              Counts that should be in STATS                     */
      175     5553        /*                                                                 */
      176     5554        /*                                                                 */
      177     5555        /*******************************************************************/
      178     5556
      179     5557
      180     5558    1   DCL KNT_DISCARDED_TPDUS UBIN STATIC SYMDEF INIT(0);
      181     5559        /*K* KNT_DISCARDED_TPDUS - UBIN.
      182     5560        Contains a count of number of all TPDUs that have been discarded.
      183     5561        */
      184     5562
      185     5563
      186     5564    1   DCL KNT_CHKSUM_ERR UBIN STATIC SYMDEF INIT(0);
      187     5565        /*K* KNT_CHKSUM_ERR - UBIN.
      188     5566        Contains a count of number of TPDUs that have been discarded
      189     5567        becuase of checksum failure.
      190     5568        */
      191     5569
      192     5570    1   DCL KNT_ASSMBUF_ERR UBIN STATIC SYMDEF INIT(0);
      193     5571        /*K* KNT_ASSMBUF_ERR - UBIN.
      194     5572        Contains a count of number of times KNT$GET_RBUF failed
      195     5573        when a reassembly buffer was needed.  The count of these
      196     5574        failures is included in TCTX.RERR.NOBUF.
      197     5575        */
      198     5576
      199     5577        %EJECT;
PL6.E3A0      #001=KNT_DATA_D File=KNT$MISC.:E05TSI                              WED 07/30/97 01:08 Page:25
      200     5578        /*******************************************************************/
      201     5579        /*                                                                 */
      202     5580        /*                                                                 */
      203     5581        /*              Defaults for transport options                     */
      204     5582        /*                                                                 */
      205     5583        /*                                                                 */
      206     5584        /*******************************************************************/
      207     5585
      208     5586
      209     5587    1   DCL KNT_DEFAULT_TPDUSZ UBIN STATIC SYMDEF INIT(0);
      210     5588        /*K* KNT_DEFAULT_TPDUSZ - UBIN.
      211     5589        Contains a value to be used to determine the default tpdu size.
      212     5590        This is an index into K_TPDUSZ_VALUES.  Valid values are 7 through 13.
      213     5591        If outside of this range, 13 (8192 bytes) will be assumed.
      214     5592        This default applies to CP-6 transport connections only.
      215     5593        */
      216     5594
      217     5595    1   DCL KNT_DEFAULT_EXTENDED UBIN STATIC SYMDEF INIT(1);
      218     5596        /*K* KNT_DEFAULT_EXTENDED - UBIN.
      219     5597        If set to zero will cause all outbound transport class 4
      220     5598        connections to use the normal formats.  The default is to
      221     5599        use the extended format, thereby allowing for a larger
      222     5600        window size.
      223     5601        */
      224     5602
      225     5603    1   DCL KNT_DEFAULT_CLASS UBIN STATIC SYMDEF INIT(4);
      226     5604        /*K* KNT_DEFAULT_CLASS - UBIN.
      227     5605        Specifies the transport class that session is to
      228     5606        choose for all connections that are not QDP.
      229     5607        */
      230     5608
      231     5609    1   DCL KNT_DEFAULT_QOS UBIN STATIC SYMDEF INIT(0);
      232     5610        /*K* KNT_DEFAULT_QOS - UBIN.
      233     5611        Specifies the transport QOS that session is to
      234     5612        choose for all connections that are not QDP.
      235     5613        */
      236     5614
PL6.E3A0      #001=KNT_DATA_D File=KNT$MISC.:E05TSI                              WED 07/30/97 01:08 Page:26
      237     5615    1   DCL KNT_DEFAULT_CHKSUM UBIN STATIC SYMDEF INIT(1);
      238     5616        /*K* KNT_DEFAULT_CHKSUM - UBIN.
      239     5617        If set to zero will cause all outbound transport connections
      240     5618        to be created with the non-use of the checksum facility.
      241     5619        */
      242     5620
      243     5621    1   DCL KNT_DO_CHKSUM UBIN STATIC SYMDEF INIT(1);
      244     5622        /*K* KNT_DO_CHKSUM - UBIN.
      245     5623        If set to zero will cause all checking of checksums to
      246     5624        be inhibited.
      247     5625        */
      248     5626
      249     5627    1   DCL KNT_WINDOW_NORMAL UBIN STATIC SYMDEF INIT(15);
      250     5628        /*K* KNT_WINDOW_NORMAL - UBIN.
      251     5629        Contains the default transport window size for transport connections
      252     5630        that use the normal formats.
      253     5631        The default for the default is 15.
      254     5632        */
      255     5633
      256     5634    1   DCL KNT_WINDOW_EXTENDED UBIN STATIC SYMDEF INIT(40);
      257     5635        /*K* KNT_WINDOW_EXTENDED - UBIN.
      258     5636        Contains the default transport window size for transport connections
      259     5637        that use the extended formats.
      260     5638        The default for the default is 40.
      261     5639        */
      262     5640
      263     5641    1   DCL KNT_HOLDBACK UBIN STATIC SYMDEF INIT(5);
      264     5642        /*K* KNT_HOLDBACK - UBIN.
      265     5643        Contains the maximum number of unacked messages that may be
      266     5644        in the receive window.
      267     5645        */
      268     5646
      269     5647
      270     5648        /* knt_retran_tpdu#, knt_max_retry and knt_retran_timer values
      271     5649           all have to be considered together.  The timeout value for
      272     5650           HDLC also has to be taken into consiceration.
      273     5651        */
PL6.E3A0      #001=KNT_DATA_D File=KNT$MISC.:E05TSI                              WED 07/30/97 01:08 Page:27
      274     5652
      275     5653    1   DCL KNT_RETRAN_TPDU# UBIN STATIC SYMDEF INIT(10);
      276     5654        /*K* KNT_RETRAN_TPDU# - UBIN.
      277     5655        Contains the maximum number of unacked messages that are to
      278     5656        be retransmitted when the retranmission timer expires.
      279     5657        */
      280     5658
      281     5659    1   DCL KNT_MAX_RETRY UBIN STATIC SYMDEF INIT(6);
      282     5660        /*K* KNT_MAX_RETRY - UBIN.
      283     5661        Contains the default value to determine how many times
      284     5662        to attempt to resend an un-ACKed TPDU before beginning
      285     5663        the disconnect process.
      286     5664        The default for the default is 6.
      287     5665        */
      288     5666
      289     5667    1   DCL KNT_RETRAN_TIMER UBIN STATIC SYMDEF INIT(25);
      290     5668        /*K* KNT_RETRAN_TIMER - UBIN.
      291     5669        Contains the default value for the retransmission timer
      292     5670        expressed in seconds.  The default is 25.
      293     5671        */
      294     5672
      295     5673    1   DCL KNT_WINDOW_TIMER UBIN STATIC SYMDEF INIT(20);
      296     5674        /*K* KNT_WINDOW_TIMER - UBIN.
      297     5675        Contains the default value for the window timer
      298     5676        expressed in seconds.  The default is 20.
      299     5677        */
      300     5678
      301     5679    1   DCL KNT_FCCWINDOW_TIMER UBIN STATIC SYMDEF INIT(260);
      302     5680        /*K* KNT_FCCWINDOW_TIMER - UBIN.
      303     5681        Contains the default value for the keep-alive window timer,
      304     5682        expressed in seconds.  The default is 260.
      305     5683        */
      306     5684
      307     5685    1   DCL KNT_INACTIVITY_TIMER UBIN STATIC SYMDEF INIT(900);
      308     5686        /*K* KNT_INACTIVITY_TIMER - UBIN.
      309     5687        Contains the default value for the inactivity timer
      310     5688        expressed in seconds.  The default is 900 (15 min).
PL6.E3A0      #001=KNT_DATA_D File=KNT$MISC.:E05TSI                              WED 07/30/97 01:08 Page:28
      311     5689        */
      312     5690
      313     5691    1   DCL KNT_REFERENCE_TIMER UBIN STATIC SYMDEF INIT(360);
      314     5692        /*K* KNT_REFERENCE_TIMER - UBIN.
      315     5693        Contains the default value for the reference timer
      316     5694        expressed in seconds.  The default is 360 (6 min).
      317     5695        */
      318     5696
      319     5697
      320     5698        %EJECT;
PL6.E3A0      #001=KNT_DATA_D File=KNT$MISC.:E05TSI                              WED 07/30/97 01:08 Page:29
      321     5699        /*******************************************************************/
      322     5700        /*                                                                 */
      323     5701        /*                                                                 */
      324     5702        /*     Options that may be set to aid debugging transport          */
      325     5703        /*                                                                 */
      326     5704        /*                                                                 */
      327     5705        /*******************************************************************/
      328     5706
      329     5707
      330     5708    1   DCL KNT_TIMER_SCREECH UBIN STATIC SYMDEF INIT(0);
      331     5709        /*K* KNT_TIMER_SCREECH - UBIN.
      332     5710        If set to non-zero will cause the KNT$TTIMER to screech the fep
      333     5711        when entered with what appears to be stale timer info.
      334     5712        */
      335     5713
      336     5714    1   DCL KNT_ERROR_SCREECH UBIN STATIC SYMDEF INIT(0);
      337     5715        /*K* KNT_ERROR_SCREECH - UBIN.
      338     5716        If set to non-zero will cause the transport to call screech
      339     5717        instead of just logging the error tpdu.
      340     5718        */
      341     5719
      342     5720    1   DCL KNT_BUFFER_SCREECH UBIN STATIC SYMDEF INIT(0);
      343     5721        /*K* KNT_BUFFER_SCREECH - UBIN.
      344     5722        If set to non-zero will cause a screech if we run out of transport
      345     5723        buffers.
      346     5724        */
      347     5725
      348     5726    1   DCL KNT_TRACE_INTERMEDIATE UBIN STATIC SYMDEF INIT(0);
      349     5727        /*K* KNT_TRACE_INTERMEDIATE - UBIN.
      350     5728        If set to non-zero will cause a trace of most of the tpdus
      351     5729        associated with an intermediate transport connection.
      352     5730        */
      353     5731
      354     5732    1   DCL KNT_TRACE_CLASS4 UBIN STATIC SYMDEF INIT(0);
      355     5733        /*K* KNT_TRACE_CLASS4 - UBIN.
      356     5734        If set to non-zero will cause a trace of most of the tpdus
      357     5735        associated with all class 4 transport connection.
PL6.E3A0      #001=KNT_DATA_D File=KNT$MISC.:E05TSI                              WED 07/30/97 01:08 Page:30
      358     5736        */
      359     5737
      360     5738    1   DCL KNT_TRACE_OSI UBIN STATIC SYMDEF INIT(0);
      361     5739        /*K* KNT_TRACE_OSI - UBIN.
      362     5740        If set to non-zero will cause a trace of most of the tpdus
      363     5741        associated with all OSI transport connection.
      364     5742        */
      365     5743
      366     5744
      367     5745    1   END KNT_DATA_D;
      368     5746        %EOD;

PL6.E3A0      #001=KNT_DATA_D File=KNT$MISC.:E05TSI                              WED 07/30/97 01:08 Page:31
--  Include file information  --

   KN_DATA_M.:E05TOU  is referenced.
   K_SCODE_C.:E05TOU  is referenced.
   K_ADDRESS_M.:E05TOU  is referenced.
   K_TRANSPORT_M.:E05TOU  is referenced.
   K_TRANSPORT_E.:E05TOU  is referenced.
   G_LCP6_E.:E05TOU  was found in the system file and is never referenced.
   GT_LCP6_M.:E05TOU  was found in the system file and is never referenced.
   KI_CP6.:E05TOU  was found in the system file and is never referenced.
   GF_LCP6_M.:E05TOU  was found in the system file and is never referenced.
   GM_LCP6_M.:E05TOU  was found in the system file and is never referenced.
   GU_LCP6_M.:E05TOU  was found in the system file and is referenced.
   GJ_LCP6_M.:E05TOU  was found in the system file and is never referenced.
   GH_LCP6_M.:E05TOU  was found in the system file and is never referenced.
      No diagnostics issued in procedure KNT_DATA_D.
PL6.E3A0      #001=KNT_DATA_D File=KNT$MISC.:E05TSI                              WED 07/30/97 01:08 Page:32

 **** Variables and constants ****

  ****  Section 000 RoData KNT_DATA_D

  ****  Scalars and arrays  ****
HexLoc.c.b A Datatyp(siz) R M Lvl/name                 HexLoc.c.b A Datatyp(siz) R M Lvl/name

    34-0-0/w STRC(48)    r     1 KNT_SCODE

  ****  BASED and DCB variables  ****

  ****  Scalars and arrays  ****
HexLoc.c.b A Datatyp(siz) R M Lvl/name                 HexLoc.c.b A Datatyp(siz) R M Lvl/name

     0-0-0/c STRC(176)   r     1 K$NSAP                     0-0-0/c STRC(40)    r     1 K$TPDU_AK
     0-0-0/c STRC(80)    r     1 K$TPDU_AK_EXT              0-0-0/c STRC(56)    r     1 K$TPDU_C
     0-0-0/c STRC(32)    r     1 K$TPDU_CP6                 0-0-0/c STRC(48)    r     1 K$TPDU_DC
     0-0-0/c STRC(56)    r     1 K$TPDU_DR                  0-0-0/c STRC(40)    r     1 K$TPDU_DT
     0-0-0/c STRC(64)    r     1 K$TPDU_DT_EXT              0-0-0/c STRC(40)    r     1 K$TPDU_EA
     0-0-0/c STRC(64)    r     1 K$TPDU_EA_EXT              0-0-0/c STRC(40)    r     1 K$TPDU_ER
     0-0-0/w STRC(272)   r     1 K$TSAP


   No code generated for procedure KNT_DATA_D .
   Procedure KNT_DATA_D requires 4 words of local(AUTO) storage.
PL6.E3A0      #001=KNT_DATA_D File=KNT$MISC.:E05TSI                              WED 07/30/97 01:08 Page:33
          *** CROSS REFERENCE LISTING ***
**     DENOTES     IDENTIFIER DEFINITION
<<                 IDENTIFIER'S VALUE SET
>>                 IDENTIFIER'S VALUE USED
<>                 IDENTIFIER SET AND/OR USED
--                 IDENTIFIER REFERENCED
PL6.E3A0      #001=KNT_DATA_D File=KNT$MISC.:E05TSI                              WED 07/30/97 01:08 Page:34
          MINI XREF LISTING

K$NSAP
      5021**DCL      5096--DCLINIT
K$NSAP.ADDRESS_N
      5053**DCL      5054--REDEF
K$TPDU_AK
      4802**DCL      5105--DCLINIT
K$TPDU_AK_EXT
      4850**DCL      5123--DCLINIT
K$TPDU_C
      4537**DCL      5112--DCLINIT  5113--DCLINIT  5130--DCLINIT  5131--DCLINIT
K$TPDU_CP6
      4985**DCL      5099--DCLINIT  5117--DCLINIT
K$TPDU_DC
      4649**DCL      5111--DCLINIT  5129--DCLINIT
K$TPDU_DR
      4606**DCL      5107--DCLINIT  5125--DCLINIT
K$TPDU_DT
      4688**DCL      5100--DCLINIT  5114--DCLINIT
K$TPDU_DT_EXT
      4738**DCL      5118--DCLINIT  5132--DCLINIT
K$TPDU_EA
      4894**DCL      5101--DCLINIT
K$TPDU_EA_EXT
      4920**DCL      5119--DCLINIT
K$TPDU_ER
      4946**DCL      5106--DCLINIT  5124--DCLINIT
K$TSAP
      5073**DCL      5095--DCLINIT
KNT$SET_UNQSESS
      4518**DCL-ENT  5483--DCLINIT
KNT_SCODE
      5220**DCL      5190--DCLINIT
PL6.E3A0      #001=KNT_DATA_D File=KNT$MISC.:E05TSI                              WED 07/30/97 01:08 Page:35
KNT_UNQ_LDCT.RLCID.LDCTX
      5338**DCL      5345--REDEF    5353--REDEF
KNT_UNQ_LDCT.TRANSPORT_ID
      5372**DCL      5380--REDEF
KNT_UNQ_LDCT.UID
      5402**DCL      5403--REDEF    5412--REDEF

PL6.E3A0      #002=KNT$DSESSION File=KNT$MISC.:E05TSI                            WED 07/30/97 01:09 Page:36
      369        1        /*T***********************************************************/
      370        2        /*T*                                                         */
      371        3        /*T* Copyright (c) Bull HN Information Systems Inc., 1997    */
      372        4        /*T*                                                         */
      373        5        /*T***********************************************************/
      374        6
      375        7        /*M* KNT$DSESSION - Call session from the transport layer.  */
      376        8        /*X* PLM=3,IND=5,ENU=0,ECU=0  */
      377        9
      378       10        /*F* NAME: KNT$DSESSION
      379       11
      380       12             PURPOSE:
      381       13                  To assemble message fragments received from the peer and
      382       14                  forward full messages to session.
      383       15
      384       16             DESCRIPTION:
      385       17                  Acknowledgement fragments are returned to peer as
      386       18                  appropriate.
      387       19
      388       20                  Used by KNT$RECV on receipt of TPDU_DT.
      389       21        */
      390       22        KNT$DSESSION: PROC(KN$NETPARM) ALTRET;
      391       23
      392       24        %INCLUDE K_ADDRESS_M;
      393      527        %INCLUDE K_INTERFACE_M;
      394      936        %INCLUDE K_TRANSPORT_E;
      395     1261        %INCLUDE K_TRANSPORT_M;
      396     3045        %INCLUDE KN_DATA_M;
      397     4831        %INCLUDE KNH_MACRO_C;                   /* get CP-6 function code             */
      398     5114        %INCLUDE GH_SCHD_M;
      399     5258        %INCLUDE GH_GATE_M;
      400     5299
      401     5300        %KN$NETPARM;
      402     5453
      403     5454    1   DCL CTX$ PTR;
      404     5455    1   DCL HPTR$ PTR;
      405     5456    1   DCL BUFS_RLSD UBIN;
PL6.E3A0      #002=KNT$DSESSION File=KNT$MISC.:E05TSI                            WED 07/30/97 01:09 Page:37
      406     5457        %K$TPDU_DT_EXT (STCLASS=AUTO);
      407     5521
      408     5522        %K$FRAG_HDR (NAME=FRAG_HDR, STCLASS=BASED);
      409     5605        %K$TCTX (NAME=KN$TCTX,STCLASS="BASED(CTX$)");
      410     6512
      411     6513    1   DCL KNT_SCODE UBIN(32) SYMREF;
      412     6514    1   DCL KNT_WAIT_COUNT UBIN SYMREF;
      413     6515    1   DCL KNT_UNQ_LDCT UBIN SYMREF;
      414     6516    1   DCL KNT_ASSMBUF_ERR UBIN SYMREF;
      415     6517
      416     6518        %GATE (FPTN=KNT_LOCKSESS,STCLASS="STATIC SYMDEF");
      417     6537
      418     6538    1   DCL KNT$RELBUF ENTRY(2);
      419     6539    1   DCL KNT$GET_RBUF ENTRY(3) ALTRET;
      420     6540    1   DCL KNN$SEND ENTRY(1) ALTRET;
      421     6541    1   DCL KNS$RECV ENTRY(1) ALTRET;
      422     6542    1   DCL KNT$UNQ_BUFFER ENTRY;
      423     6543    1   DCL KNT$SEND_AK ENTRY(1) ALTRET;
      424     6544    1   DCL KNT$TR_DSSN ENTRY(1);
      425     6545    1   DCL KNT$TR_ERROR ENTRY(1);
      426     6546    1   DCL SCREECH ENTRY(1);
      427     6547
      428     6548        %EJECT;
PL6.E3A0      #002=KNT$DSESSION File=KNT$MISC.:E05TSI                            WED 07/30/97 01:09 Page:38
      429     6549    1      CTX$ = KN$NETPARM.TCTX$;
      430     6550    1      HPTR$ = ADDR(NIL);
      431     6551    1      BUFS_RLSD = 0;
      432     6552
      433     6553        /* If all of out of sequence TPDUs have been gathered up, deliver them now.
      434     6554        */
      435     6555           %LOCK (G=KNT_LOCKSESS);
      436     6562    2      DO WHILE (KN$TCTX.RECV_HEAD$ ~= ADDR(NIL))    AND
      437     6563    2        (KN$TCTX.RECV_HEAD$->FRAG_HDR.SEQ = KN$TCTX.RECV_NEXT);
      438     6564
      439     6565    2           HPTR$ = KN$TCTX.RECV_HEAD$;
      440     6566
      441     6567    2           IF ( HPTR$->FRAG_HDR.FLAGS.EOT = '0'B )
      442     6568    2           THEN CALL CON_CAT(KN$TCTX)
      443     6569    3                WHENALTRETURN DO;
      444     6570                          %UNLOCK (G=KNT_LOCKSESS);
      445     6577    3                     ALTRETURN;
      446     6578    3                     END;
      447     6579
      448     6580    2           HPTR$ = KN$TCTX.RECV_HEAD$;
      449     6581
      450     6582    2           KN$NETPARM.SHDR$ = PINCRC(HPTR$,SIZEC(FRAG_HDR));
      451     6583    2           KN$NETPARM.SHDRSZ = HPTR$->FRAG_HDR.DATA_BSIZE;
      452     6584
      453     6585    2           IF HPTR$->FRAG_HDR.FLAGS.EOT = '0'B
      454     6586    2             OR KN$TCTX.SSN_CRDT <= 0
      455     6587    3           THEN DO;
      456     6588                     %UNLOCK (G=KNT_LOCKSESS);
      457     6595    3                GOTO UNQ_CHECK;
      458     6596    3                END;
      459     6597
      460     6598        /* When entered for a primary connection, call local CP-6 Session.
      461     6599        */
      462     6600    2           KN$NETPARM.FUNCTION = %KN_FCN_DATA;
      463     6601    2           KN$NETPARM.FPT$ = ADDR(NIL);
      464     6602
      465     6603    2           IF KN$TCTX.PRIMARY
PL6.E3A0      #002=KNT$DSESSION File=KNT$MISC.:E05TSI                            WED 07/30/97 01:09 Page:39
      466     6604    3           THEN DO;
      467     6605    3                CALL KNS$RECV(KN$NETPARM) ALTRET(LEAVE_BUFFERED);
      468     6606    3                GOTO FIX_LWE;
      469     6607    3                END/*do if primary*/;
      470     6608
      471     6609        /* When entered at RECV_4HOST, build a transport header and call
      472     6610           KNN$SEND to forward to the host.
      473     6611        */
      474     6612    2           K$TPDU_DT_EXT = '0'B;
      475     6613    2           K$TPDU_DT_EXT.LI = LENGTHC(K$TPDU_DT_EXT) -1;
      476     6614    2           K$TPDU_DT_EXT.TYPE = %K_TPDU_TYPE_DT;
      477     6615    2           K$TPDU_DT_EXT.EOT = '1'B;
      478     6616    2           K$TPDU_DT_EXT.TPDU_NR = KN$TCTX.RECV_NEXT;
      479     6617    2           K$TPDU_DT_EXT.DST_REF = KN$TCTX.HOST_REF;
      480     6618
      481     6619    2           KN$NETPARM.UHDRSZ = 0;
      482     6620    2           KN$NETPARM.THDRSZ = K$TPDU_DT_EXT.LI +1;
      483     6621    2           KN$NETPARM.THDR$ = ADDR(K$TPDU_DT_EXT);
      484     6622    2           KN$NETPARM.NODE = KN$TCTX.HOST_NODE;
      485     6623    2           KN$NETPARM.SLDCT$ = ADDR(KNT_UNQ_LDCT);
      486     6624
      487     6625    2           CALL KNN$SEND(KN$NETPARM)
      488     6626    3           WHENRETURN DO;                  /*update lwe if knt$recv didn't*/
      489     6627    3                IF KN$TCTX.OPTION.TRACE THEN CALL KNT$TR_DSSN(KN$NETPARM);
      490     6628
      491     6629    3                IF KN$TCTX.OPTION.OSI
      492     6630    3                THEN KN$TCTX.SSN_CRDT = KN$TCTX.SSN_CRDT -1;
      493     6631    3   FIX_LWE:
      494     6632
      495     6633    3                KN$TCTX.RECV_LWE = HPTR$->FRAG_HDR.SEQ +1;
      496     6634    3                IF KN$TCTX.RECV_LWE > KN$TCTX.MAXSEQ
      497     6635    3                THEN KN$TCTX.RECV_LWE = KN$TCTX.RECV_LWE - KN$TCTX.MAXSEQ - 1;
      498     6636
      499     6637    3                KN$TCTX.RECV_NEXT = KN$TCTX.RECV_NEXT + 1;
      500     6638    3                IF KN$TCTX.RECV_NEXT > KN$TCTX.MAXSEQ
      501     6639    3                THEN KN$TCTX.RECV_NEXT = KN$TCTX.RECV_NEXT - KN$TCTX.MAXSEQ - 1;
      502     6640
PL6.E3A0      #002=KNT$DSESSION File=KNT$MISC.:E05TSI                            WED 07/30/97 01:09 Page:40
      503     6641    3                KN$TCTX.RECV_HEAD$ = HPTR$->FRAG_HDR.LINK$;
      504     6642    3                CALL KNT$RELBUF(HPTR$->FRAG_HDR,KN$TCTX);
      505     6643    3                BUFS_RLSD = BUFS_RLSD +1;
      506     6644    3                END;
      507     6645
      508     6646    3           WHENALTRETURN DO;
      509     6647    3   LEAVE_BUFFERED:
      510     6648    3                KN$TCTX.HOST_CQ_FULL = '1'B;
      511     6649    3                KN$TCTX.RERR.TBUF_NOQ = KN$TCTX.RERR.TBUF_NOQ +1;
      512     6650    3                KN$NETPARM.ERRCODE = 0;
      513     6651                     %UNLOCK (G=KNT_LOCKSESS);
      514     6658    3                RETURN;
      515     6659    3                END;
      516     6660
      517     6661                %UNLOCK (G=KNT_LOCKSESS);
      518     6668                %LOCK (G=KNT_LOCKSESS);
      519     6675    2           END/*do while recv_head$ ~ nil*/;
      520     6676           %UNLOCK (G=KNT_LOCKSESS);
      521     6683
      522     6684    1      IF NOT KN$TCTX.LOST_TPDU AND KN$TCTX.RECV_HEAD$~=ADDR(NIL)
      523     6685    1        AND KN$TCTX.CLASS = 4
      524     6686    2      THEN DO;
      525     6687    2           IF KN$TCTX.RECV_HEAD$->FRAG_HDR.SEQ ~= KN$TCTX.RECV_NEXT
      526     6688    3           THEN DO;
      527     6689    3                KN$TCTX.LOST_TPDU = '1'B;
      528     6690    3                KN$TCTX.RERR.LOST_TPDU = KN$TCTX.RERR.LOST_TPDU +1;
      529     6691
      530     6692    3                CALL KNT$SEND_AK(KN$NETPARM);
      531     6693
      532     6694    3                KN$NETPARM.THDRSZ = %K_ERROR_LOST_TPDU;
      533     6695    3                CALL KNT$TR_ERROR(KN$NETPARM);
      534     6696    3                END;
      535     6697    2           END;
      536     6698
      537     6699    1   UNQ_CHECK:
      538     6700    1      IF (BUFS_RLSD > 0)
      539     6701    2      THEN DO;
PL6.E3A0      #002=KNT$DSESSION File=KNT$MISC.:E05TSI                            WED 07/30/97 01:09 Page:41
      540     6702    2           IF KNT_WAIT_COUNT > 0
      541     6703    2           THEN CALL KNT$UNQ_BUFFER;
      542     6704
      543     6705    2           IF NOT KN$TCTX.LOST_TPDU
      544     6706    3           THEN DO;
      545     6707    3                KN$TCTX.RECV_UWE = KN$TCTX.RECV_LWE + KN$TCTX.RCV_WINDOW_SZ;
      546     6708
      547     6709    3                IF KN$TCTX.CLASS=4 OR
      548     6710    3                  (KN$TCTX.CLASS=2 AND KN$TCTX.OPTION.CLASS_2_FLOW='1'B)
      549     6711    3                THEN CALL KNT$SEND_AK(KN$NETPARM);
      550     6712    3                END;
      551     6713    2           END;
      552     6714
      553     6715    1      RETURN;
      554     6716
      555     6717        %EJECT;
PL6.E3A0      #002=KNT$DSESSION File=KNT$MISC.:E05TSI                            WED 07/30/97 01:09 Page:42
      556     6718    1   CON_CAT: PROC(KN$TCTX) ALTRET;
      557     6719
      558     6720        %K$TCTX (NAME=KN$TCTX,STCLASS="");
      559     7627
      560     7628    2   DCL TPTR$ PTR;
      561     7629    2   DCL TSIZE UBIN;
      562     7630    2   DCL NUM SBIN;
      563     7631    2   DCL NEXT UBIN(32);
      564     7632    2   DCL DPTR$ CPTR;
      565     7633    2   DCL SPTR$ PTR;
      566     7634    2   DCL THPTR$ PTR;
      567     7635    2   DCL ITEMP SBIN;
      568     7636    2   DCL CHRBSD CHAR(ITEMP) BASED CALIGNED;
      569     7637
      570     7638    2      TPTR$ = KN$TCTX.RECV_HEAD$;
      571     7639    2      TSIZE = 0;
      572     7640    2      NUM =  0;
      573     7641    2      NEXT = KN$TCTX.RECV_NEXT;
      574     7642
      575     7643    3      DO WHILE ( (TPTR$ ~= ADDR(NIL) ) AND
      576     7644    3        (NEXT = TPTR$->FRAG_HDR.SEQ ) );
      577     7645
      578     7646    3           TSIZE = TSIZE + TPTR$->FRAG_HDR.DATA_BSIZE;
      579     7647
      580     7648    3           NEXT = NEXT + 1;
      581     7649    3           IF NEXT > KN$TCTX.MAXSEQ
      582     7650    3           THEN NEXT = 0;
      583     7651
      584     7652    3           NUM = NUM + 1;
      585     7653    3           IF TPTR$->FRAG_HDR.FLAGS.EOT
      586     7654    3           THEN GOTO GOT_EOT;
      587     7655    3           TPTR$ = TPTR$->FRAG_HDR.LINK$;
      588     7656    3           END;
      589     7657
      590     7658    2      RETURN;                         /*dont combine them till all are received*/
      591     7659
      592     7660    2   GOT_EOT:
PL6.E3A0      #002=KNT$DSESSION File=KNT$MISC.:E05TSI                            WED 07/30/97 01:09 Page:43
      593     7661    2      IF NUM <= 1 THEN RETURN;
      594     7662
      595     7663    2      CALL KNT$GET_RBUF(TSIZE, TPTR$, KN$TCTX);
      596     7664    2      IF TPTR$ = ADDR(NIL)
      597     7665    3      THEN DO;
      598     7666    3           IF KN$TCTX.NEED_ASSMBUF = '0'B
      599     7667    4           THEN DO;
      600     7668    4                KN$TCTX.NEED_ASSMBUF = '1'B;
      601     7669    4                KNT_WAIT_COUNT = KNT_WAIT_COUNT +1;
      602     7670    4                KNT_ASSMBUF_ERR = KNT_ASSMBUF_ERR +1;
      603     7671    4                END;
      604     7672    3           ALTRETURN;
      605     7673    3           END;
      606     7674
      607     7675    2      KN$TCTX.REASSM_TSDUS = KN$TCTX.REASSM_TSDUS +1;
      608     7676    2      KN$TCTX.REASSM_FRAGS = KN$TCTX.REASSM_FRAGS + NUM;
      609     7677
      610     7678    2      DPTR$ = PINCRC(TPTR$,SIZEC(TPTR$->FRAG_HDR));
      611     7679
      612     7680    3      DO WHILE ( NUM > 0 );
      613     7681    3           NUM = NUM - 1;
      614     7682    3           THPTR$ = KN$TCTX.RECV_HEAD$;
      615     7683    3           TPTR$->FRAG_HDR.SEQ = THPTR$->FRAG_HDR.SEQ;
      616     7684    3           TPTR$->FRAG_HDR.LINK$ = THPTR$->FRAG_HDR.LINK$;
      617     7685    3           TPTR$->FRAG_HDR.FLAGS.EOT = THPTR$->FRAG_HDR.FLAGS.EOT;
      618     7686    3           KN$TCTX.RECV_NEXT = TPTR$->FRAG_HDR.SEQ;
      619     7687    3           SPTR$ = PINCRC(THPTR$,SIZEC(THPTR$->FRAG_HDR));
      620     7688    3           ITEMP = THPTR$->FRAG_HDR.DATA_BSIZE;
      621     7689
      622     7690    3           DPTR$->CHRBSD = SPTR$->CHRBSD;
      623     7691    3           DPTR$ = PINCRC(DPTR$, ITEMP);
      624     7692
      625     7693    3           KN$TCTX.RECV_HEAD$ = THPTR$->FRAG_HDR.LINK$;
      626     7694    3           CALL KNT$RELBUF(THPTR$->FRAG_HDR,KN$TCTX);
      627     7695    3           IF TPTR$->FRAG_HDR.FLAGS.EOT
      628     7696    3           THEN GOTO GOT_EOT2;
      629     7697    3           END;
PL6.E3A0      #002=KNT$DSESSION File=KNT$MISC.:E05TSI                            WED 07/30/97 01:09 Page:44
      630     7698
      631     7699    2   GOT_EOT2:
      632     7700    2      KN$TCTX.RECV_HEAD$ = TPTR$;
      633     7701    2      RETURN;
      634     7702
      635     7703    2   END CON_CAT;
      636     7704
      637     7705    1   END KNT$DSESSION;
      638     7706        %EOD;

PL6.E3A0      #002=KNT$DSESSION File=KNT$MISC.:E05TSI                            WED 07/30/97 01:09 Page:45
--  Include file information  --

   GH_GATE_M.:E05TOU  cannot be made into a system file and is referenced.
   GH_SCHD_M.:E05TOU  is referenced.
   KNH_MACRO_C.:E05TOU  is referenced.
   KN_DATA_M.:E05TOU  is referenced.
   K_TRANSPORT_M.:E05TOU  is referenced.
   K_TRANSPORT_E.:E05TOU  is referenced.
   K_INTERFACE_M.:E05TOU  is referenced.
   K_ADDRESS_M.:E05TOU  is referenced.
   G_LCP6_E.:E05TOU  was found in the system file and is never referenced.
   GT_LCP6_M.:E05TOU  was found in the system file and is never referenced.
   KI_CP6.:E05TOU  was found in the system file and is never referenced.
   GF_LCP6_M.:E05TOU  was found in the system file and is never referenced.
   GM_LCP6_M.:E05TOU  was found in the system file and is never referenced.
   GU_LCP6_M.:E05TOU  was found in the system file and is never referenced.
   GJ_LCP6_M.:E05TOU  was found in the system file and is never referenced.
   GH_LCP6_M.:E05TOU  was found in the system file and is never referenced.
      No diagnostics issued in procedure KNT$DSESSION.

   Procedure KNT$DSESSION requires 709 words for executable code.
   Procedure KNT$DSESSION requires 40 words of local(AUTO) storage.

PL6.E3A0      #002=KNT$DSESSION File=KNT$MISC.:E05TSI                            WED 07/30/97 01:09 Page:46

 Object Unit name= KNT$DSESSION                               File name= KNT$MISC.:E05TOU
 UTS= JUL 30 '97 01:09:08.00 WED                              Compiler= PL-6/E31         Sev=      00
 SharedLib= :SHARED_LCP6_SYSTEM                               Alt SharedLib=


    ****  Control sections  ****

 Sect   Type Bound  Init  Size HexSiz  Section name
    0   Data  even  none     3      3  KNT$DSESSION
    1   Proc  even  none   709    2C5  KNT$DSESSION
    2  RoData even  none     2      2  KNT$DSESSION

    ****  Entry defs  ****

                              Check   Calling
                             calling  sequence
  Sect HexLoc Primary Altret sequence   type   Parms  Name
     1      0   yes    yes     yes      Std        1  KNT$DSESSION

  ****  Data defs  ****

 Sect HexLoc  Name                           Sect HexLoc  Name
    0      0  KNT_LOCKSESS
PL6.E3A0      #002=KNT$DSESSION File=KNT$MISC.:E05TSI                            WED 07/30/97 01:09 Page:47

  ****  Entry refs  ****

         Check        Calling
        calling       sequence
Altret sequence SRef   type   Args  Name
 yes     yes           Std       1 GHH$LOCK
 yes     yes           Std       1 GHH$UNLOCK
         yes           Std       1 KNT$TR_ERROR
         yes           Std       0 KNT$UNQ_BUFFER
 yes     yes           Std       1 KNS$RECV
 yes     yes           Std       1 KNT$SEND_AK
 yes     yes           Std       1 KNN$SEND
         yes           Std       1 KNT$TR_DSSN
         yes           Std       2 KNT$RELBUF
 yes     yes           Std       3 KNT$GET_RBUF
                       nStd      0 X6A_AUTO_1
                       nStd      0 X6A_AALT
                       nStd      0 X6B_BLR
                       nStd      0 X6A_ARET

  ****  Data refs  ****

  Flags:  r = read only, s = secondary
Flgs Name                             Flgs Name                             Flgs Name
     KNT_WAIT_COUNT                        KNT_UNQ_LDCT                          KNT_ASSMBUF_ERR
r    G$ROS$
PL6.E3A0      #002=KNT$DSESSION File=KNT$MISC.:E05TSI                            WED 07/30/97 01:09 Page:48


      369        1        /*T***********************************************************/
      370        2        /*T*                                                         */
      371        3        /*T* Copyright (c) Bull HN Information Systems Inc., 1997    */
      372        4        /*T*                                                         */
      373        5        /*T***********************************************************/
      374        6
      375        7        /*M* KNT$DSESSION - Call session from the transport layer.  */
      376        8        /*X* PLM=3,IND=5,ENU=0,ECU=0  */
      377        9
      378       10        /*F* NAME: KNT$DSESSION
      379       11
      380       12             PURPOSE:
      381       13                  To assemble message fragments received from the peer and
      382       14                  forward full messages to session.
      383       15
      384       16             DESCRIPTION:
      385       17                  Acknowledgement fragments are returned to peer as
      386       18                  appropriate.
      387       19
      388       20                  Used by KNT$RECV on receipt of TPDU_DT.
      389       21        */
      390       22        KNT$DSESSION: PROC(KN$NETPARM) ALTRET;

     22   1 000000  D380 0000 0000  xent KNT$DSESSION    LNJ,B5   X6A_AUTO_1
          1 000003       0028 0001                       DC       40,1

      391       23
      392       24        %INCLUDE K_ADDRESS_M;
      393      527        %INCLUDE K_INTERFACE_M;
      394      936        %INCLUDE K_TRANSPORT_E;
      395     1261        %INCLUDE K_TRANSPORT_M;
      396     3045        %INCLUDE KN_DATA_M;
      397     4831        %INCLUDE KNH_MACRO_C;                   /* get CP-6 function code             */
      398     5114        %INCLUDE GH_SCHD_M;
      399     5258        %INCLUDE GH_GATE_M;
      400     5299
PL6.E3A0      #002=KNT$DSESSION File=KNT$MISC.:E05TSI                            WED 07/30/97 01:09 Page:49
      401     5300        %KN$NETPARM;
      402     5453
      403     5454    1   DCL CTX$ PTR;
      404     5455    1   DCL HPTR$ PTR;
      405     5456    1   DCL BUFS_RLSD UBIN;
      406     5457        %K$TPDU_DT_EXT (STCLASS=AUTO);
      407     5521
      408     5522        %K$FRAG_HDR (NAME=FRAG_HDR, STCLASS=BASED);
      409     5605        %K$TCTX (NAME=KN$TCTX,STCLASS="BASED(CTX$)");
      410     6512
      411     6513    1   DCL KNT_SCODE UBIN(32) SYMREF;
      412     6514    1   DCL KNT_WAIT_COUNT UBIN SYMREF;
      413     6515    1   DCL KNT_UNQ_LDCT UBIN SYMREF;
      414     6516    1   DCL KNT_ASSMBUF_ERR UBIN SYMREF;
      415     6517
      416     6518        %GATE (FPTN=KNT_LOCKSESS,STCLASS="STATIC SYMDEF");
      417     6537
      418     6538    1   DCL KNT$RELBUF ENTRY(2);
      419     6539    1   DCL KNT$GET_RBUF ENTRY(3) ALTRET;
      420     6540    1   DCL KNN$SEND ENTRY(1) ALTRET;
      421     6541    1   DCL KNS$RECV ENTRY(1) ALTRET;
      422     6542    1   DCL KNT$UNQ_BUFFER ENTRY;
      423     6543    1   DCL KNT$SEND_AK ENTRY(1) ALTRET;
      424     6544    1   DCL KNT$TR_DSSN ENTRY(1);
      425     6545    1   DCL KNT$TR_ERROR ENTRY(1);
      426     6546    1   DCL SCREECH ENTRY(1);
      427     6547
      428     6548        %EJECT;
PL6.E3A0      #002=KNT$DSESSION File=KNT$MISC.:E05TSI                            WED 07/30/97 01:09 Page:50
      429     6549    1      CTX$ = KN$NETPARM.TCTX$;

   6549   1 000005  ECC7 0004                            LDB,B6   @KN$NETPARM,AUTO
          1 000007  DCC6 001B                            LDB,B5   27,B6
          1 000009  DFC7 0006                            STB,B5   CTX$,AUTO

      430     6550    1      HPTR$ = ADDR(NIL);

   6550   1 00000B  CB80 0000 0000                       LAB,B4   0
          1 00000E  CFC7 0008                            STB,B4   HPTR$,AUTO

      431     6551    1      BUFS_RLSD = 0;

   6551   1 000010  8747 000A                            CL       BUFS_RLSD,AUTO

      432     6552
      433     6553        /* If all of out of sequence TPDUs have been gathered up, deliver them now.
      434     6554        */
      435     6555           %LOCK (G=KNT_LOCKSESS);

   6560   1 000012  BB80 0000 0000  02                   LAB,B3   0
          1 000015  CBF0 0100                            LAB,B4   256,IMO
          1 000017  E380 0000 0000  xent                 LNJ,B6   GHH$LOCK
          1 00001A       0001                            DC       s:6562,PREL

      436     6562    2      DO WHILE (KN$TCTX.RECV_HEAD$ ~= ADDR(NIL))    AND

   6562   1 00001B  0F81 0126                            B        s:6675,PREL

      437     6563    2        (KN$TCTX.RECV_HEAD$->FRAG_HDR.SEQ = KN$TCTX.RECV_NEXT);
      438     6564
      439     6565    2           HPTR$ = KN$TCTX.RECV_HEAD$;

   6565   1 00001D  ECC7 0006                            LDB,B6   CTX$,AUTO
          1 00001F  DCC6 002A                            LDB,B5   42,B6
          1 000021  DFC7 0008                            STB,B5   HPTR$,AUTO

PL6.E3A0      #002=KNT$DSESSION File=KNT$MISC.:E05TSI                            WED 07/30/97 01:09 Page:51
      440     6566
      441     6567    2           IF ( HPTR$->FRAG_HDR.FLAGS.EOT = '0'B )

   6567   1 000023  82C5 0006                            LB,'0001'X        6,B5
   6567   1 000025       0001
          1 000026  0501 0014                            BBT      s:6580,PREL

      442     6568    2           THEN CALL CON_CAT(KN$TCTX)

   6568   1 000028  EFC7 0012                            STB,B6   K$TPDU_DT_EXT+7,AUTO
          1 00002A  E3C0 019C                            LNJ,B6   s:0,PREL
          1 00002C       0003                            DC       s:6575,PREL
          1 00002D  0F81 000D                            B        s:6580,PREL

      443     6569    3                WHENALTRETURN DO;

      444     6570                          %UNLOCK (G=KNT_LOCKSESS);

   6575   1 00002F  BB80 0000 0000  02                   LAB,B3   0
          1 000032  CBF0 0100                            LAB,B4   256,IMO
          1 000034  E380 0000 0000  xent                 LNJ,B6   GHH$UNLOCK
          1 000037       0001                            DC       s:6577,PREL

      445     6577    3                     ALTRETURN;

   6577   1 000038  C380 0000 0000  xent                 LNJ,B4   X6A_AALT

      446     6578    3                     END;
      447     6579
      448     6580    2           HPTR$ = KN$TCTX.RECV_HEAD$;

   6580   1 00003B  ECC7 0006                            LDB,B6   CTX$,AUTO
          1 00003D  DCC6 002A                            LDB,B5   42,B6
          1 00003F  DFC7 0008                            STB,B5   HPTR$,AUTO

      449     6581
      450     6582    2           KN$NETPARM.SHDR$ = PINCRC(HPTR$,SIZEC(FRAG_HDR));
PL6.E3A0      #002=KNT$DSESSION File=KNT$MISC.:E05TSI                            WED 07/30/97 01:09 Page:52

   6582   1 000041  CBC5 0008                            LAB,B4   8,B5
          1 000043  BCC7 0004                            LDB,B3   @KN$NETPARM,AUTO
          1 000045  CFC3 0008                            STB,B4   8,B3

      451     6583    2           KN$NETPARM.SHDRSZ = HPTR$->FRAG_HDR.DATA_BSIZE;

   6583   1 000047  E845 0001                            LDR,R6   1,B5
          1 000049  EF43 000A                            STR,R6   10,B3

      452     6584
      453     6585    2           IF HPTR$->FRAG_HDR.FLAGS.EOT = '0'B

   6585   1 00004B  82C5 0006                            LB,'0001'X        6,B5
   6585   1 00004D       0001
          1 00004E  0581 0005                            BBF      s:6593,PREL
          1 000050  D846 004A                            LDR,R5   74,B6
          1 000052  5A01 000C                            BGZ,R5   s:6600,PREL

      454     6586    2             OR KN$TCTX.SSN_CRDT <= 0
      455     6587    3           THEN DO;

      456     6588                     %UNLOCK (G=KNT_LOCKSESS);

   6593   1 000054  BB80 0000 0000  02                   LAB,B3   0
          1 000057  CBF0 0100                            LAB,B4   256,IMO
          1 000059  E380 0000 0000  xent                 LNJ,B6   GHH$UNLOCK
          1 00005C       0001                            DC       s:6595,PREL

      457     6595    3                GOTO UNQ_CHECK;

   6595   1 00005D  0F81 0132                            B        s:6697,PREL

      458     6596    3                END;
      459     6597
      460     6598        /* When entered for a primary connection, call local CP-6 Session.
      461     6599        */
PL6.E3A0      #002=KNT$DSESSION File=KNT$MISC.:E05TSI                            WED 07/30/97 01:09 Page:53
      462     6600    2           KN$NETPARM.FUNCTION = %KN_FCN_DATA;

   6600   1 00005F  4C05                                 LDV,R4   5
          1 000060  CF43 0014                            STR,R4   20,B3

      463     6601    2           KN$NETPARM.FPT$ = ADDR(NIL);

   6601   1 000062  AB80 0000 0000                       LAB,B2   0
          1 000065  AFC3 0019                            STB,B2   25,B3

      464     6602
      465     6603    2           IF KN$TCTX.PRIMARY

   6603   1 000067  82C6 000D                            LB,'0001'X        13,B6
   6603   1 000069       0001
          1 00006A  0581 000B                            BBF      s:6612,PREL

      466     6604    3           THEN DO;

      467     6605    3                CALL KNS$RECV(KN$NETPARM) ALTRET(LEAVE_BUFFERED);

   6605   1 00006C  BBC7 0004                            LAB,B3   @KN$NETPARM,AUTO
          1 00006E  CBF0 0100                            LAB,B4   256,IMO
          1 000070  E380 0000 0000  xent                 LNJ,B6   KNS$RECV
          1 000073       00A6                            DC       s:6646,PREL

      468     6606    3                GOTO FIX_LWE;

   6606   1 000074  0F81 005D                            B        s:6633,PREL

      469     6607    3                END/*do if primary*/;
      470     6608
      471     6609        /* When entered at RECV_4HOST, build a transport header and call
      472     6610           KNN$SEND to forward to the host.
      473     6611        */
      474     6612    2           K$TPDU_DT_EXT = '0'B;

PL6.E3A0      #002=KNT$DSESSION File=KNT$MISC.:E05TSI                            WED 07/30/97 01:09 Page:54
   6612   1 000076  5C08                                 LDV,R5   8
          1 000077  0021                                 ALR      ;
          1 000078       4178 0000                                ALPHANUM('0000'X,IMO,,1),;
          1 00007A       4007 000B                                ALPHANUM(K$TPDU_DT_EXT,AUTO,,R5,FILL)

      475     6613    2           K$TPDU_DT_EXT.LI = LENGTHC(K$TPDU_DT_EXT) -1;

   6613   1 00007C  6C07                                 LDV,R6   7
          1 00007D  437F                                 CSYNC    s:6613,SPREL
          1 00007E  E7C7 000B                            STH,R6   K$TPDU_DT_EXT,AUTO

      476     6614    2           K$TPDU_DT_EXT.TYPE = %K_TPDU_TYPE_DT;

   6614   1 000080  8947 000B                            LBT,'00F0'X       K$TPDU_DT_EXT,AUTO
   6614   1 000082       00F0

      477     6615    2           K$TPDU_DT_EXT.EOT = '1'B;

   6615   1 000083  8947 000D                            LBT,'8000'X       K$TPDU_DT_EXT+2,AUTO
   6615   1 000085       8000

      478     6616    2           K$TPDU_DT_EXT.TPDU_NR = KN$TCTX.RECV_NEXT;

   6616   1 000086  8CC6 0026                            LDI      38,B6
          1 000088  7081                                 DOL,R7   1
          1 000089  8D47 0022                            SDI      ITEMP+2,AUTO
          1 00008B  ABC7 0022                            LAB,B2   ITEMP+2,AUTO
          1 00008D  2C00                                 LDV,R2   0
          1 00008E  6C20                                 LDV,R6   32
          1 00008F  BBC7 000D                            LAB,B3   K$TPDU_DT_EXT+2,AUTO
          1 000091  3C01                                 LDV,R3   1
          1 000092  7C1F                                 LDV,R7   31
          1 000093  D380 0000 0000  xent                 LNJ,B5   X6B_BLR

      479     6617    2           K$TPDU_DT_EXT.DST_REF = KN$TCTX.HOST_REF;

   6617   1 000096  ECC7 0006                            LDB,B6   CTX$,AUTO
PL6.E3A0      #002=KNT$DSESSION File=KNT$MISC.:E05TSI                            WED 07/30/97 01:09 Page:55
          1 000098  E846 0003                            LDR,R6   3,B6
          1 00009A  EF47 000C                            STR,R6   K$TPDU_DT_EXT+1,AUTO

      480     6618
      481     6619    2           KN$NETPARM.UHDRSZ = 0;

   6619   1 00009C  DCC7 0004                            LDB,B5   @KN$NETPARM,AUTO
          1 00009E  8745 0007                            CL       7,B5

      482     6620    2           KN$NETPARM.THDRSZ = K$TPDU_DT_EXT.LI +1;

   6620   1 0000A0  E2C7 000B                            LLH,R6   K$TPDU_DT_EXT,AUTO
          1 0000A2  6E01                                 ADV,R6   1
          1 0000A3  EF45 000D                            STR,R6   13,B5

      483     6621    2           KN$NETPARM.THDR$ = ADDR(K$TPDU_DT_EXT);

   6621   1 0000A5  CBC7 000B                            LAB,B4   K$TPDU_DT_EXT,AUTO
          1 0000A7  CFC5 000B                            STB,B4   11,B5

      484     6622    2           KN$NETPARM.NODE = KN$TCTX.HOST_NODE;

   6622   1 0000A9  D2C6 0004                            LLH,R5   4,B6
          1 0000AB  DF45 0015                            STR,R5   21,B5

      485     6623    2           KN$NETPARM.SLDCT$ = ADDR(KNT_UNQ_LDCT);

   6623   1 0000AD  BB80 0000 0000  xsym                 LAB,B3   KNT_UNQ_LDCT
          1 0000B0  BFC5 0017                            STB,B3   23,B5

      486     6624
      487     6625    2           CALL KNN$SEND(KN$NETPARM)

   6625   1 0000B2  BBC7 0004                            LAB,B3   @KN$NETPARM,AUTO
          1 0000B4  CBF0 0100                            LAB,B4   256,IMO
          1 0000B6  E380 0000 0000  xent                 LNJ,B6   KNN$SEND
          1 0000B9       0060                            DC       s:6646,PREL
PL6.E3A0      #002=KNT$DSESSION File=KNT$MISC.:E05TSI                            WED 07/30/97 01:09 Page:56

      488     6626    3           WHENRETURN DO;                  /*update lwe if knt$recv didn't*/

      489     6627    3                IF KN$TCTX.OPTION.TRACE THEN CALL KNT$TR_DSSN(KN$NETPARM);

   6627   1 0000BA  ECC7 0006                            LDB,B6   CTX$,AUTO
          1 0000BC  82C6 000C                            LB,'0040'X        12,B6
          1 0000BE       0040
          1 0000BF  0581 0009                            BBF      s:6629,PREL

   6627   1 0000C1  BBC7 0004                            LAB,B3   @KN$NETPARM,AUTO
          1 0000C3  CBF0 0100                            LAB,B4   256,IMO
          1 0000C5  E380 0000 0000  xent                 LNJ,B6   KNT$TR_DSSN
          1 0000C8       0001                            DC       s:6629,PREL

      490     6628
      491     6629    3                IF KN$TCTX.OPTION.OSI

   6629   1 0000C9  ECC7 0006                            LDB,B6   CTX$,AUTO
          1 0000CB  82C6 000C                            LB,'0010'X        12,B6
          1 0000CD       0010
          1 0000CE  0581 0003                            BBF      s:6633,PREL

      492     6630    3                THEN KN$TCTX.SSN_CRDT = KN$TCTX.SSN_CRDT -1;

   6630   1 0000D0  88C6 004A                            DEC      74,B6

      493     6631    3   FIX_LWE:
      494     6632
      495     6633    3                KN$TCTX.RECV_LWE = HPTR$->FRAG_HDR.SEQ +1;

   6633   1 0000D2  ECC7 0008            FIX_LWE         LDB,B6   HPTR$,AUTO
          1 0000D4  DCC7 0006                            LDB,B5   CTX$,AUTO
          1 0000D6  8CC6 0002                            LDI      2,B6
          1 0000D8  8470 0000 0001                       AID      1,IMO
          1 0000DB  8D45 0022                            SDI      34,B5

PL6.E3A0      #002=KNT$DSESSION File=KNT$MISC.:E05TSI                            WED 07/30/97 01:09 Page:57
      496     6634    3                IF KN$TCTX.RECV_LWE > KN$TCTX.MAXSEQ

   6634   1 0000DD  84C5 000A                            SID      10,B5
          1 0000DF  0681 000E                            BCF      s:6637,PREL
          1 0000E1  6981 0003                            BNEZ,R6  s:6635,PREL
          1 0000E3  7901 000A                            BEZ,R7   s:6637,PREL

      497     6635    3                THEN KN$TCTX.RECV_LWE = KN$TCTX.RECV_LWE - KN$TCTX.MAXSEQ - 1;

   6635   1 0000E5  8CC5 0022                            LDI      34,B5
          1 0000E7  84C5 000A                            SID      10,B5
          1 0000E9  8470 FFFF FFFF                       AID      -1,IMO
          1 0000EC  8D45 0022                            SDI      34,B5

      498     6636
      499     6637    3                KN$TCTX.RECV_NEXT = KN$TCTX.RECV_NEXT + 1;

   6637   1 0000EE  8AC5 0027                            INC      39,B5
          1 0000F0  8EC5 0026                            CAD      38,B5

      500     6638    3                IF KN$TCTX.RECV_NEXT > KN$TCTX.MAXSEQ

   6638   1 0000F2  8CC5 0026                            LDI      38,B5
          1 0000F4  84C5 000A                            SID      10,B5
          1 0000F6  0681 000E                            BCF      s:6641,PREL
          1 0000F8  6981 0003                            BNEZ,R6  s:6639,PREL
          1 0000FA  7901 000A                            BEZ,R7   s:6641,PREL

      501     6639    3                THEN KN$TCTX.RECV_NEXT = KN$TCTX.RECV_NEXT - KN$TCTX.MAXSEQ - 1;

   6639   1 0000FC  8CC5 0026                            LDI      38,B5
          1 0000FE  84C5 000A                            SID      10,B5
          1 000100  8470 FFFF FFFF                       AID      -1,IMO
          1 000103  8D45 0026                            SDI      38,B5

      502     6640
      503     6641    3                KN$TCTX.RECV_HEAD$ = HPTR$->FRAG_HDR.LINK$;
PL6.E3A0      #002=KNT$DSESSION File=KNT$MISC.:E05TSI                            WED 07/30/97 01:09 Page:58

   6641   1 000105  CCC6 0004                            LDB,B4   4,B6
          1 000107  CFC5 002A                            STB,B4   42,B5

      504     6642    3                CALL KNT$RELBUF(HPTR$->FRAG_HDR,KN$TCTX);

   6642   1 000109  DFC7 0024                            STB,B5   ITEMP+4,AUTO
          1 00010B  EFC7 0022                            STB,B6   ITEMP+2,AUTO
          1 00010D  BBC7 0022                            LAB,B3   ITEMP+2,AUTO
          1 00010F  CBF0 0200                            LAB,B4   512,IMO
          1 000111  E380 0000 0000  xent                 LNJ,B6   KNT$RELBUF
          1 000114       0001                            DC       s:6643,PREL

      505     6643    3                BUFS_RLSD = BUFS_RLSD +1;

   6643   1 000115  8AC7 000A                            INC      BUFS_RLSD,AUTO

      506     6644    3                END;

   6644   1 000117  0F81 0018                            B        s:6666,PREL

      507     6645
      508     6646    3           WHENALTRETURN DO;

      509     6647    3   LEAVE_BUFFERED:
      510     6648    3                KN$TCTX.HOST_CQ_FULL = '1'B;

   6648   1 000119  ECC7 0006            LEAVE_BUFFERED  LDB,B6   CTX$,AUTO
          1 00011B  8946 000D                            LBT,'0008'X       13,B6
          1 00011D       0008

      511     6649    3                KN$TCTX.RERR.TBUF_NOQ = KN$TCTX.RERR.TBUF_NOQ +1;

   6649   1 00011E  8AC6 001B                            INC      27,B6

      512     6650    3                KN$NETPARM.ERRCODE = 0;

PL6.E3A0      #002=KNT$DSESSION File=KNT$MISC.:E05TSI                            WED 07/30/97 01:09 Page:59
   6650   1 000120  DCC7 0004                            LDB,B5   @KN$NETPARM,AUTO
          1 000122  8745 0016                            CL       22,B5

      513     6651                     %UNLOCK (G=KNT_LOCKSESS);

   6656   1 000124  BB80 0000 0000  02                   LAB,B3   0
          1 000127  CBF0 0100                            LAB,B4   256,IMO
          1 000129  E380 0000 0000  xent                 LNJ,B6   GHH$UNLOCK
          1 00012C       0001                            DC       s:6658,PREL

      514     6658    3                RETURN;

   6658   1 00012D  C380 0000 0000  xent                 LNJ,B4   X6A_ARET

      515     6659    3                END;
      516     6660
      517     6661                %UNLOCK (G=KNT_LOCKSESS);

   6666   1 000130  BB80 0000 0000  02                   LAB,B3   0
          1 000133  CBF0 0100                            LAB,B4   256,IMO
          1 000135  E380 0000 0000  xent                 LNJ,B6   GHH$UNLOCK
          1 000138       0001                            DC       s:6673,PREL

      518     6668                %LOCK (G=KNT_LOCKSESS);

   6673   1 000139  BB80 0000 0000  02                   LAB,B3   0
          1 00013C  CBF0 0100                            LAB,B4   256,IMO
          1 00013E  E380 0000 0000  xent                 LNJ,B6   GHH$LOCK
          1 000141       0001                            DC       s:6675,PREL

      519     6675    2           END/*do while recv_head$ ~ nil*/;

   6675   1 000142  ECC7 0006                            LDB,B6   CTX$,AUTO
          1 000144  8DC6 002A                            CMN      42,B6
          1 000146  0901 000B                            BE       s:6681,PREL
          1 000148  DCC6 002A                            LDB,B5   42,B6
          1 00014A  8CC5 0002                            LDI      2,B5
PL6.E3A0      #002=KNT$DSESSION File=KNT$MISC.:E05TSI                            WED 07/30/97 01:09 Page:60
          1 00014C  84C6 0026                            SID      38,B6
          1 00014E  6981 0003                            BNEZ,R6  s:6681,PREL
          1 000150  7901 FECC                            BEZ,R7   s:6565,PREL

      520     6676           %UNLOCK (G=KNT_LOCKSESS);

   6681   1 000152  BB80 0000 0000  02                   LAB,B3   0
          1 000155  CBF0 0100                            LAB,B4   256,IMO
          1 000157  E380 0000 0000  xent                 LNJ,B6   GHH$UNLOCK
          1 00015A       0001                            DC       s:6684,PREL

      521     6683
      522     6684    1      IF NOT KN$TCTX.LOST_TPDU AND KN$TCTX.RECV_HEAD$~=ADDR(NIL)

   6684   1 00015B  ECC7 0006                            LDB,B6   CTX$,AUTO
          1 00015D  82C6 000D                            LB,'0080'X        13,B6
          1 00015F       0080
          1 000160  0501 002F                            BBT      s:6697,PREL
          1 000162  8DC6 002A                            CMN      42,B6
          1 000164  0901 002B                            BE       s:6697,PREL
          1 000166  E2C6 0005                            LLH,R6   5,B6
          1 000168  6D04                                 CMV,R6   4
          1 000169  0981 0026                            BNE      s:6697,PREL

      523     6685    1        AND KN$TCTX.CLASS = 4
      524     6686    2      THEN DO;

      525     6687    2           IF KN$TCTX.RECV_HEAD$->FRAG_HDR.SEQ ~= KN$TCTX.RECV_NEXT

   6687   1 00016B  DCC6 002A                            LDB,B5   42,B6
          1 00016D  8CC5 0002                            LDI      2,B5
          1 00016F  84C6 0026                            SID      38,B6
          1 000171  6981 0003                            BNEZ,R6  s:6689,PREL
          1 000173  7901 001C                            BEZ,R7   s:6697,PREL

      526     6688    3           THEN DO;

PL6.E3A0      #002=KNT$DSESSION File=KNT$MISC.:E05TSI                            WED 07/30/97 01:09 Page:61
      527     6689    3                KN$TCTX.LOST_TPDU = '1'B;

   6689   1 000175  8946 000D                            LBT,'0080'X       13,B6
   6689   1 000177       0080

      528     6690    3                KN$TCTX.RERR.LOST_TPDU = KN$TCTX.RERR.LOST_TPDU +1;

   6690   1 000178  8AC6 0018                            INC      24,B6

      529     6691
      530     6692    3                CALL KNT$SEND_AK(KN$NETPARM);

   6692   1 00017A  BBC7 0004                            LAB,B3   @KN$NETPARM,AUTO
          1 00017C  CBF0 0100                            LAB,B4   256,IMO
          1 00017E  E380 0000 0000  xent                 LNJ,B6   KNT$SEND_AK
          1 000181       0001                            DC       s:6694,PREL

      531     6693
      532     6694    3                KN$NETPARM.THDRSZ = %K_ERROR_LOST_TPDU;

   6694   1 000182  ECC7 0004                            LDB,B6   @KN$NETPARM,AUTO
          1 000184  E870 00E4                            LDR,R6   228,IMO
          1 000186  EF46 000D                            STR,R6   13,B6

      533     6695    3                CALL KNT$TR_ERROR(KN$NETPARM);

   6695   1 000188  BBC7 0004                            LAB,B3   @KN$NETPARM,AUTO
          1 00018A  CBF0 0100                            LAB,B4   256,IMO
          1 00018C  E380 0000 0000  xent                 LNJ,B6   KNT$TR_ERROR
          1 00018F       0001                            DC       s:6697,PREL

      534     6696    3                END;

      535     6697    2           END;

      536     6698
      537     6699    1   UNQ_CHECK:
PL6.E3A0      #002=KNT$DSESSION File=KNT$MISC.:E05TSI                            WED 07/30/97 01:09 Page:62
      538     6700    1      IF (BUFS_RLSD > 0)

   6700   1 000190  E847 000A            UNQ_CHECK       LDR,R6   BUFS_RLSD,AUTO
          1 000192  6901 0031                            BEZ,R6   s:6715,PREL

      539     6701    2      THEN DO;

      540     6702    2           IF KNT_WAIT_COUNT > 0

   6702   1 000194  D800 0000 0000  xsym                 LDR,R5   KNT_WAIT_COUNT
          1 000197  5901 0007                            BEZ,R5   s:6705,PREL

      541     6703    2           THEN CALL KNT$UNQ_BUFFER;

   6703   1 000199  CBF0 0000                            LAB,B4   0,IMO
          1 00019B  E380 0000 0000  xent                 LNJ,B6   KNT$UNQ_BUFFER
          1 00019E       0001                            DC       s:6705,PREL

      542     6704
      543     6705    2           IF NOT KN$TCTX.LOST_TPDU

   6705   1 00019F  ECC7 0006                            LDB,B6   CTX$,AUTO
          1 0001A1  82C6 000D                            LB,'0080'X        13,B6
          1 0001A3       0080
          1 0001A4  0501 001F                            BBT      s:6715,PREL

      544     6706    3           THEN DO;

      545     6707    3                KN$TCTX.RECV_UWE = KN$TCTX.RECV_LWE + KN$TCTX.RCV_WINDOW_SZ;

   6707   1 0001A6  F846 0005                            LDR,R7   5,B6
          1 0001A8  F570 00FF                            AND,R7   255,IMO
          1 0001AA  6C00                                 LDV,R6   0
          1 0001AB  8446 0022                            AID      34,B6
          1 0001AD  8D46 0024                            SDI      36,B6

      546     6708
PL6.E3A0      #002=KNT$DSESSION File=KNT$MISC.:E05TSI                            WED 07/30/97 01:09 Page:63
      547     6709    3                IF KN$TCTX.CLASS=4 OR

   6709   1 0001AF  D2C6 0005                            LLH,R5   5,B6
          1 0001B1  5D04                                 CMV,R5   4
          1 0001B2  0901 0009                            BE       s:6711,PREL
          1 0001B4  5D02                                 CMV,R5   2
          1 0001B5  0981 000E                            BNE      s:6715,PREL
          1 0001B7  82C6 000C                            LB,'0008'X        12,B6
          1 0001B9       0008
          1 0001BA  0581 0009                            BBF      s:6715,PREL

      548     6710    3                  (KN$TCTX.CLASS=2 AND KN$TCTX.OPTION.CLASS_2_FLOW='1'B)
      549     6711    3                THEN CALL KNT$SEND_AK(KN$NETPARM);

   6711   1 0001BC  BBC7 0004                            LAB,B3   @KN$NETPARM,AUTO
          1 0001BE  CBF0 0100                            LAB,B4   256,IMO
          1 0001C0  E380 0000 0000  xent                 LNJ,B6   KNT$SEND_AK
          1 0001C3       0001                            DC       s:6715,PREL

      550     6712    3                END;

      551     6713    2           END;

      552     6714
      553     6715    1      RETURN;

   6715   1 0001C4  C380 0000 0000  xent                 LNJ,B4   X6A_ARET

      554     6716
      555     6717        %EJECT;
PL6.E3A0      #002=KNT$DSESSION File=KNT$MISC.:E05TSI                            WED 07/30/97 01:09 Page:64
      556     6718    1   CON_CAT: PROC(KN$TCTX) ALTRET;

   6718   1 0001C7  EFC7 0010            CON_CAT         STB,B6   K$TPDU_DT_EXT+5,AUTO

      557     6719
      558     6720        %K$TCTX (NAME=KN$TCTX,STCLASS="");
      559     7627
      560     7628    2   DCL TPTR$ PTR;
      561     7629    2   DCL TSIZE UBIN;
      562     7630    2   DCL NUM SBIN;
      563     7631    2   DCL NEXT UBIN(32);
      564     7632    2   DCL DPTR$ CPTR;
      565     7633    2   DCL SPTR$ PTR;
      566     7634    2   DCL THPTR$ PTR;
      567     7635    2   DCL ITEMP SBIN;
      568     7636    2   DCL CHRBSD CHAR(ITEMP) BASED CALIGNED;
      569     7637
      570     7638    2      TPTR$ = KN$TCTX.RECV_HEAD$;

   7638   1 0001C9  DCC7 0012                            LDB,B5   @KN$TCTX,AUTO
          1 0001CB  CCC5 002A                            LDB,B4   42,B5
          1 0001CD  CFC7 0014                            STB,B4   TPTR$,AUTO

      571     7639    2      TSIZE = 0;

   7639   1 0001CF  8747 0016                            CL       TSIZE,AUTO

      572     7640    2      NUM =  0;

   7640   1 0001D1  8747 0017                            CL       NUM,AUTO

      573     7641    2      NEXT = KN$TCTX.RECV_NEXT;

   7641   1 0001D3  8CC5 0026                            LDI      38,B5
          1 0001D5  8D47 0018                            SDI      NEXT,AUTO

      574     7642
PL6.E3A0      #002=KNT$DSESSION File=KNT$MISC.:E05TSI                            WED 07/30/97 01:09 Page:65
      575     7643    3      DO WHILE ( (TPTR$ ~= ADDR(NIL) ) AND

   7643   1 0001D7  0F81 0028                            B        s:7656,PREL

      576     7644    3        (NEXT = TPTR$->FRAG_HDR.SEQ ) );
      577     7645
      578     7646    3           TSIZE = TSIZE + TPTR$->FRAG_HDR.DATA_BSIZE;

   7646   1 0001D9  ECC7 0014                            LDB,B6   TPTR$,AUTO
          1 0001DB  E847 0016                            LDR,R6   TSIZE,AUTO
          1 0001DD  EA46 0001                            ADD,R6   1,B6
          1 0001DF  EF47 0016                            STR,R6   TSIZE,AUTO

      579     7647
      580     7648    3           NEXT = NEXT + 1;

   7648   1 0001E1  8AC7 0019                            INC      NEXT+1,AUTO
          1 0001E3  8EC7 0018                            CAD      NEXT,AUTO

      581     7649    3           IF NEXT > KN$TCTX.MAXSEQ

   7649   1 0001E5  DCC7 0012                            LDB,B5   @KN$TCTX,AUTO
          1 0001E7  8CC7 0018                            LDI      NEXT,AUTO
          1 0001E9  84C5 000A                            SID      10,B5
          1 0001EB  0681 0009                            BCF      s:7652,PREL
          1 0001ED  6981 0003                            BNEZ,R6  s:7650,PREL
          1 0001EF  7901 0005                            BEZ,R7   s:7652,PREL

      582     7650    3           THEN NEXT = 0;

   7650   1 0001F1  8747 0018                            CL       NEXT,AUTO
          1 0001F3  8747 0019                            CL       NEXT+1,AUTO

      583     7651
      584     7652    3           NUM = NUM + 1;

   7652   1 0001F5  8AC7 0017                            INC      NUM,AUTO
PL6.E3A0      #002=KNT$DSESSION File=KNT$MISC.:E05TSI                            WED 07/30/97 01:09 Page:66

      585     7653    3           IF TPTR$->FRAG_HDR.FLAGS.EOT

   7653   1 0001F7  82C6 0006                            LB,'0001'X        6,B6
   7653   1 0001F9       0001
          1 0001FA  0501 0014                            BBT      s:7661,PREL

      586     7654    3           THEN GOTO GOT_EOT;
      587     7655    3           TPTR$ = TPTR$->FRAG_HDR.LINK$;

   7655   1 0001FC  CCC6 0004                            LDB,B4   4,B6
          1 0001FE  CFC7 0014                            STB,B4   TPTR$,AUTO

      588     7656    3           END;

   7656   1 000200  8DC7 0014                            CMN      TPTR$,AUTO
          1 000202  0901 0008                            BE       s:7658,PREL
          1 000204  8CC7 0018                            LDI      NEXT,AUTO
          1 000206  84C4 0002                            SID      2,B4
          1 000208  6981 0002                            BNEZ,R6  s:7658,PREL
          1 00020A  794F                                 BEZ,R7   s:7646,SPREL

      589     7657
      590     7658    2      RETURN;                         /*dont combine them till all are received*/

   7658   1 00020B  ECC7 0010                            LDB,B6   K$TPDU_DT_EXT+5,AUTO
          1 00020D  C3C6 0001                            LNJ,B4   1,B6

      591     7659
      592     7660    2   GOT_EOT:
      593     7661    2      IF NUM <= 1 THEN RETURN;

   7661   1 00020F  E847 0017            GOT_EOT         LDR,R6   NUM,AUTO
          1 000211  6D01                                 CMV,R6   1
          1 000212  0A01 0005                            BAG      s:7663,PREL

   7661   1 000214  ECC7 0010                            LDB,B6   K$TPDU_DT_EXT+5,AUTO
PL6.E3A0      #002=KNT$DSESSION File=KNT$MISC.:E05TSI                            WED 07/30/97 01:09 Page:67
          1 000216  C3C6 0001                            LNJ,B4   1,B6

      594     7662
      595     7663    2      CALL KNT$GET_RBUF(TSIZE, TPTR$, KN$TCTX);

   7663   1 000218  DFC7 0026                            STB,B5   ITEMP+6,AUTO
          1 00021A  CBC7 0014                            LAB,B4   TPTR$,AUTO
          1 00021C  CFC7 0024                            STB,B4   ITEMP+4,AUTO
          1 00021E  BBC7 0016                            LAB,B3   TSIZE,AUTO
          1 000220  BFC7 0022                            STB,B3   ITEMP+2,AUTO
          1 000222  BBC7 0022                            LAB,B3   ITEMP+2,AUTO
          1 000224  CBF0 0300                            LAB,B4   768,IMO
          1 000226  E380 0000 0000  xent                 LNJ,B6   KNT$GET_RBUF
          1 000229       0001                            DC       s:7664,PREL

      596     7664    2      IF TPTR$ = ADDR(NIL)

   7664   1 00022A  8DC7 0014                            CMN      TPTR$,AUTO
          1 00022C  0981 0015                            BNE      s:7675,PREL

      597     7665    3      THEN DO;

      598     7666    3           IF KN$TCTX.NEED_ASSMBUF = '0'B

   7666   1 00022E  ECC7 0012                            LDB,B6   @KN$TCTX,AUTO
          1 000230  82C6 000D                            LB,'0040'X        13,B6
          1 000232       0040
          1 000233  0501 000A                            BBT      s:7672,PREL

      599     7667    4           THEN DO;

      600     7668    4                KN$TCTX.NEED_ASSMBUF = '1'B;

   7668   1 000235  8946 000D                            LBT,'0040'X       13,B6
   7668   1 000237       0040

      601     7669    4                KNT_WAIT_COUNT = KNT_WAIT_COUNT +1;
PL6.E3A0      #002=KNT$DSESSION File=KNT$MISC.:E05TSI                            WED 07/30/97 01:09 Page:68

   7669   1 000238  8A80 0000 0000  xsym                 INC      KNT_WAIT_COUNT

      602     7670    4                KNT_ASSMBUF_ERR = KNT_ASSMBUF_ERR +1;

   7670   1 00023B  8A80 0000 0000  xsym                 INC      KNT_ASSMBUF_ERR

      603     7671    4                END;

      604     7672    3           ALTRETURN;

   7672   1 00023E  ECC7 0010                            LDB,B6   K$TPDU_DT_EXT+5,AUTO
          1 000240  B806                                 LDR,R3   ,B6
          1 000241  C3B6                                 LNJ,B4   ,B6,R3

      605     7673    3           END;
      606     7674
      607     7675    2      KN$TCTX.REASSM_TSDUS = KN$TCTX.REASSM_TSDUS +1;

   7675   1 000242  ECC7 0012                            LDB,B6   @KN$TCTX,AUTO
          1 000244  8AC6 0048                            INC      72,B6

      608     7676    2      KN$TCTX.REASSM_FRAGS = KN$TCTX.REASSM_FRAGS + NUM;

   7676   1 000246  E846 0049                            LDR,R6   73,B6
          1 000248  EA47 0017                            ADD,R6   NUM,AUTO
          1 00024A  EF46 0049                            STR,R6   73,B6

      609     7677
      610     7678    2      DPTR$ = PINCRC(TPTR$,SIZEC(TPTR$->FRAG_HDR));

   7678   1 00024C  DCC7 0014                            LDB,B5   TPTR$,AUTO
          1 00024E  CBC5 0008                            LAB,B4   8,B5
          1 000250  CFC7 001A                            STB,B4   DPTR$,AUTO

      611     7679
      612     7680    3      DO WHILE ( NUM > 0 );
PL6.E3A0      #002=KNT$DSESSION File=KNT$MISC.:E05TSI                            WED 07/30/97 01:09 Page:69

   7680   1 000252  D847 0017                            LDR,R5   NUM,AUTO
          1 000254  5A81 0066                            BLEZ,R5  s:7700,PREL

      613     7681    3           NUM = NUM - 1;

   7681   1 000256  88C7 0017                            DEC      NUM,AUTO

      614     7682    3           THPTR$ = KN$TCTX.RECV_HEAD$;

   7682   1 000258  ECC7 0012                            LDB,B6   @KN$TCTX,AUTO
          1 00025A  DCC6 002A                            LDB,B5   42,B6
          1 00025C  DFC7 001E                            STB,B5   THPTR$,AUTO

      615     7683    3           TPTR$->FRAG_HDR.SEQ = THPTR$->FRAG_HDR.SEQ;

   7683   1 00025E  8CC5 0002                            LDI      2,B5
          1 000260  CCC7 0014                            LDB,B4   TPTR$,AUTO
          1 000262  8D44 0002                            SDI      2,B4

      616     7684    3           TPTR$->FRAG_HDR.LINK$ = THPTR$->FRAG_HDR.LINK$;

   7684   1 000264  CCC5 0004                            LDB,B4   4,B5
          1 000266  BCC7 0014                            LDB,B3   TPTR$,AUTO
          1 000268  CFC3 0004                            STB,B4   4,B3

      617     7685    3           TPTR$->FRAG_HDR.FLAGS.EOT = THPTR$->FRAG_HDR.FLAGS.EOT;

   7685   1 00026A  E845 0006                            LDR,R6   6,B5
          1 00026C  CCC7 0014                            LDB,B4   TPTR$,AUTO
          1 00026E  EAC4 0006                            SRM,R6,'0001'X    6,B4
          1 000270       0001

      618     7686    3           KN$TCTX.RECV_NEXT = TPTR$->FRAG_HDR.SEQ;

   7686   1 000271  CCC7 0014                            LDB,B4   TPTR$,AUTO
          1 000273  8CC4 0002                            LDI      2,B4
PL6.E3A0      #002=KNT$DSESSION File=KNT$MISC.:E05TSI                            WED 07/30/97 01:09 Page:70
          1 000275  8D46 0026                            SDI      38,B6

      619     7687    3           SPTR$ = PINCRC(THPTR$,SIZEC(THPTR$->FRAG_HDR));

   7687   1 000277  BBC5 0008                            LAB,B3   8,B5
          1 000279  BFC7 001C                            STB,B3   SPTR$,AUTO

      620     7688    3           ITEMP = THPTR$->FRAG_HDR.DATA_BSIZE;

   7688   1 00027B  D845 0001                            LDR,R5   1,B5
          1 00027D  DF47 0020                            STR,R5   ITEMP,AUTO

      621     7689
      622     7690    3           DPTR$->CHRBSD = SPTR$->CHRBSD;

   7690   1 00027F  8CC7 001A                            LDI      DPTR$,AUTO
          1 000281  B856                                 LDR,R3   R6
          1 000282  E570 7FFF                            AND,R6   32767,IMO
          1 000284  8D47 0022                            SDI      ITEMP+2,AUTO
          1 000286  ACC7 0022                            LDB,B2   ITEMP+2,AUTO
          1 000288  304F                                 SOR,R3   15
          1 000289  AFC7 0024                            STB,B2   ITEMP+4,AUTO
          1 00028B  AB83                                 LAB,B2   ,B3
          1 00028C  2C00                                 LDV,R2   0
          1 00028D  E855                                 LDR,R6   R5
          1 00028E  BCC7 0024                            LDB,B3   ITEMP+4,AUTO
          1 000290  0008                                 MMM

      623     7691    3           DPTR$ = PINCRC(DPTR$, ITEMP);

   7691   1 000291  8CC7 001A                            LDI      DPTR$,AUTO
          1 000293  7031                                 DCL,R7   1
          1 000294  8D47 0022                            SDI      ITEMP+2,AUTO
          1 000296  E847 0020                            LDR,R6   ITEMP,AUTO
          1 000298  70F0                                 DAR,R7   16
          1 000299  8447 0022                            AID      ITEMP+2,AUTO
          1 00029B  7071                                 DCR,R7   1
PL6.E3A0      #002=KNT$DSESSION File=KNT$MISC.:E05TSI                            WED 07/30/97 01:09 Page:71
          1 00029C  8D47 001A                            SDI      DPTR$,AUTO

      624     7692
      625     7693    3           KN$TCTX.RECV_HEAD$ = THPTR$->FRAG_HDR.LINK$;

   7693   1 00029E  DCC7 001E                            LDB,B5   THPTR$,AUTO
          1 0002A0  CCC5 0004                            LDB,B4   4,B5
          1 0002A2  CFC6 002A                            STB,B4   42,B6

      626     7694    3           CALL KNT$RELBUF(THPTR$->FRAG_HDR,KN$TCTX);

   7694   1 0002A4  EFC7 0024                            STB,B6   ITEMP+4,AUTO
          1 0002A6  DFC7 0022                            STB,B5   ITEMP+2,AUTO
          1 0002A8  BBC7 0022                            LAB,B3   ITEMP+2,AUTO
          1 0002AA  CBF0 0200                            LAB,B4   512,IMO
          1 0002AC  E380 0000 0000  xent                 LNJ,B6   KNT$RELBUF
          1 0002AF       0001                            DC       s:7695,PREL

      627     7695    3           IF TPTR$->FRAG_HDR.FLAGS.EOT

   7695   1 0002B0  ECC7 0014                            LDB,B6   TPTR$,AUTO
          1 0002B2  82C6 0006                            LB,'0001'X        6,B6
          1 0002B4       0001
          1 0002B5  0501 0005                            BBT      s:7700,PREL

      628     7696    3           THEN GOTO GOT_EOT2;
      629     7697    3           END;

   7697   1 0002B7  E847 0017                            LDR,R6   NUM,AUTO
          1 0002B9  6A01 FF9C                            BGZ,R6   s:7681,PREL

      630     7698
      631     7699    2   GOT_EOT2:
      632     7700    2      KN$TCTX.RECV_HEAD$ = TPTR$;

   7700   1 0002BB  ECC7 0014            GOT_EOT2        LDB,B6   TPTR$,AUTO
          1 0002BD  DCC7 0012                            LDB,B5   @KN$TCTX,AUTO
PL6.E3A0      #002=KNT$DSESSION File=KNT$MISC.:E05TSI                            WED 07/30/97 01:09 Page:72
          1 0002BF  EFC5 002A                            STB,B6   42,B5

      633     7701    2      RETURN;

   7701   1 0002C1  ECC7 0010                            LDB,B6   K$TPDU_DT_EXT+5,AUTO
          1 0002C3  C3C6 0001                            LNJ,B4   1,B6
      634     7702
      635     7703    2   END CON_CAT;
      636     7704
      637     7705    1   END KNT$DSESSION;
      638     7706        %EOD;

PL6.E3A0      #002=KNT$DSESSION File=KNT$MISC.:E05TSI                            WED 07/30/97 01:09 Page:73
--  Include file information  --

   GH_GATE_M.:E05TOU  cannot be made into a system file and is referenced.
   GH_SCHD_M.:E05TOU  is referenced.
   KNH_MACRO_C.:E05TOU  is referenced.
   KN_DATA_M.:E05TOU  is referenced.
   K_TRANSPORT_M.:E05TOU  is referenced.
   K_TRANSPORT_E.:E05TOU  is referenced.
   K_INTERFACE_M.:E05TOU  is referenced.
   K_ADDRESS_M.:E05TOU  is referenced.
   G_LCP6_E.:E05TOU  was found in the system file and is never referenced.
   GT_LCP6_M.:E05TOU  was found in the system file and is never referenced.
   KI_CP6.:E05TOU  was found in the system file and is never referenced.
   GF_LCP6_M.:E05TOU  was found in the system file and is never referenced.
   GM_LCP6_M.:E05TOU  was found in the system file and is never referenced.
   GU_LCP6_M.:E05TOU  was found in the system file and is never referenced.
   GJ_LCP6_M.:E05TOU  was found in the system file and is never referenced.
   GH_LCP6_M.:E05TOU  was found in the system file and is never referenced.
      No diagnostics issued in procedure KNT$DSESSION.
PL6.E3A0      #002=KNT$DSESSION File=KNT$MISC.:E05TSI                            WED 07/30/97 01:09 Page:74

 **** Variables and constants ****

  ****  Section 000  Data  KNT$DSESSION

  ****  Scalars and arrays  ****
HexLoc.c.b A Datatyp(siz) R M Lvl/name                 HexLoc.c.b A Datatyp(siz) R M Lvl/name

     0-0-0/w STRC(48)    r     1 KNT_LOCKSESS

  ****  Auto variables  ****

  ****  Scalars and arrays  ****
HexLoc.c.b A Datatyp(siz) R M Lvl/name                 HexLoc.c.b A Datatyp(siz) R M Lvl/name

     4-0-0/w PTR         r     1 @KN$NETPARM               12-0-0/w PTR         r     1 @KN$TCTX
     A-0-0/w UBIN(16)    r     1 BUFS_RLSD                  6-0-0/w PTR         r     1 CTX$
    1A-0-0/w PTR         r     1 DPTR$                      8-0-0/w PTR         r     1 HPTR$
    20-0-0/w SBIN(16)    r     1 ITEMP                      B-0-0/w STRC(64)    r     1 K$TPDU_DT_EXT
    *0-0-0/w STRC(528)   r     1 KN$NETPARM                *0-0-0/w STRC(2816)  r     1 KN$TCTX
    18-0-0/w UBIN(32)    r     1 NEXT                      17-0-0/w SBIN(16)    r     1 NUM
    1C-0-0/w PTR         r     1 SPTR$                     1E-0-0/w PTR         r     1 THPTR$
    14-0-0/w PTR         r     1 TPTR$                     16-0-0/w UBIN(16)    r     1 TSIZE

  ****  SYMREF variables  ****

  ****  Scalars and arrays  ****
HexLoc.c.b A Datatyp(siz) R M Lvl/name                 HexLoc.c.b A Datatyp(siz) R M Lvl/name

     0-0-0/w UBIN(16)    r     1 KNT_ASSMBUF_ERR            0-0-0/w UBIN(16)    r     1 KNT_UNQ_LDCT
     0-0-0/w UBIN(16)    r     1 KNT_WAIT_COUNT

  ****  BASED and DCB variables  ****

  ****  Scalars and arrays  ****
HexLoc.c.b A Datatyp(siz) R M Lvl/name                 HexLoc.c.b A Datatyp(siz) R M Lvl/name

     0-0-0/c ACHR        r     1 CHRBSD                     0-0-0/w STRC(128)   r     1 FRAG_HDR
PL6.E3A0      #002=KNT$DSESSION File=KNT$MISC.:E05TSI                            WED 07/30/97 01:09 Page:75
     0-0-0/w STRC(2816)  r     1 KN$TCTX


   Procedure KNT$DSESSION requires 709 words for executable code.
   Procedure KNT$DSESSION requires 40 words of local(AUTO) storage.
PL6.E3A0      #002=KNT$DSESSION File=KNT$MISC.:E05TSI                            WED 07/30/97 01:09 Page:76
          *** CROSS REFERENCE LISTING ***
**     DENOTES     IDENTIFIER DEFINITION
<<                 IDENTIFIER'S VALUE SET
>>                 IDENTIFIER'S VALUE USED
<>                 IDENTIFIER SET AND/OR USED
--                 IDENTIFIER REFERENCED
PL6.E3A0      #002=KNT$DSESSION File=KNT$MISC.:E05TSI                            WED 07/30/97 01:09 Page:77
          MINI XREF LISTING

BUFS_RLSD
      5456**DCL      6551<<ASSIGN   6643<<ASSIGN   6643>>ASSIGN   6700>>IF
CHRBSD IN PROCEDURE CON_CAT
      7636**DCL      7690<<ASSIGN   7690>>ASSIGN
CON_CAT
      6718**PROC     6568--CALL
CTX$
      5454**DCL      5610--IMP-PTR  6549<<ASSIGN   6562>>DOWHILE  6562>>DOWHILE  6562>>DOWHILE  6565>>ASSIGN
      6568>>CALL     6580>>ASSIGN   6585>>IF       6603>>IF       6616>>ASSIGN   6617>>ASSIGN   6622>>ASSIGN
      6627>>IF       6629>>IF       6630>>ASSIGN   6630>>ASSIGN   6633>>ASSIGN   6634>>IF       6634>>IF
      6635>>ASSIGN   6635>>ASSIGN   6635>>ASSIGN   6637>>ASSIGN   6637>>ASSIGN   6638>>IF       6638>>IF
      6639>>ASSIGN   6639>>ASSIGN   6639>>ASSIGN   6641>>ASSIGN   6642>>CALL     6648>>ASSIGN   6649>>ASSIGN
      6649>>ASSIGN   6684>>IF       6684>>IF       6684>>IF       6687>>IF       6687>>IF       6689>>ASSIGN
      6690>>ASSIGN   6690>>ASSIGN   6705>>IF       6707>>ASSIGN   6707>>ASSIGN   6707>>ASSIGN   6709>>IF
      6709>>IF       6709>>IF
DPTR$ IN PROCEDURE CON_CAT
      7632**DCL      7678<<ASSIGN   7690>>ASSIGN   7691<<ASSIGN   7691>>ASSIGN
FIX_LWE
      6633**LABEL    6606--GOTO
FRAG_HDR
      5539**DCL      6582--ASSIGN   6642<>CALL     7678--ASSIGN   7687--ASSIGN   7694<>CALL
FRAG_HDR.DATA_BSIZE
      5548**DCL      6583>>ASSIGN   7646>>ASSIGN   7688>>ASSIGN
FRAG_HDR.FLAGS.EOT
      5593**DCL      6567>>IF       6585>>IF       7653>>IF       7685<<ASSIGN   7685>>ASSIGN   7695>>IF
FRAG_HDR.LINK$
      5564**DCL      6641>>ASSIGN   7655>>ASSIGN   7684<<ASSIGN   7684>>ASSIGN   7693>>ASSIGN
FRAG_HDR.SEQ
      5552**DCL      5553--REDEF    6562>>DOWHILE  6633>>ASSIGN   6687>>IF       7643>>DOWHILE  7683<<ASSIGN
      7683>>ASSIGN   7686>>ASSIGN
GHH$LOCK
      5298**DCL-ENT  6560--CALL     6673--CALL
PL6.E3A0      #002=KNT$DSESSION File=KNT$MISC.:E05TSI                            WED 07/30/97 01:09 Page:78
GHH$UNLOCK
      5298**DCL-ENT  6575--CALL     6593--CALL     6656--CALL     6666--CALL     6681--CALL
GOT_EOT IN PROCEDURE CON_CAT
      7661**LABEL    7654--GOTO
GOT_EOT2 IN PROCEDURE CON_CAT
      7700**LABEL    7696--GOTO
HPTR$
      5455**DCL      6550<<ASSIGN   6565<<ASSIGN   6567>>IF       6580<<ASSIGN   6582>>ASSIGN   6583>>ASSIGN
      6585>>IF       6633>>ASSIGN   6641>>ASSIGN   6642>>CALL
ITEMP IN PROCEDURE CON_CAT
      7635**DCL      7636--IMP-SIZ  7688<<ASSIGN   7690>>ASSIGN   7690>>ASSIGN   7691>>ASSIGN
K$TPDU_DT_EXT
      5473**DCL      6612<<ASSIGN   6613--ASSIGN   6621--ASSIGN
K$TPDU_DT_EXT.DST_REF
      5488**DCL      6617<<ASSIGN
K$TPDU_DT_EXT.EOT
      5495**DCL      6615<<ASSIGN
K$TPDU_DT_EXT.LI
      5474**DCL      6613<<ASSIGN   6620>>ASSIGN
K$TPDU_DT_EXT.TPDU_NR
      5502**DCL      6616<<ASSIGN
K$TPDU_DT_EXT.TYPE
      5481**DCL      6614<<ASSIGN
KN$NETPARM
      5313**DCL        22--PROC     6605<>CALL     6625<>CALL     6627<>CALL     6692<>CALL     6695<>CALL
      6711<>CALL
KN$NETPARM.ERRCODE
      5420**DCL      6650<<ASSIGN
KN$NETPARM.FPT$
      5432**DCL      6601<<ASSIGN
KN$NETPARM.FUNCTION
      5408**DCL      6600<<ASSIGN
KN$NETPARM.MSG$
      5320**DCL      5325--REDEF
KN$NETPARM.NHDR$
      5372**DCL      5373--REDEF
PL6.E3A0      #002=KNT$DSESSION File=KNT$MISC.:E05TSI                            WED 07/30/97 01:09 Page:79
KN$NETPARM.NODE
      5415**DCL      6622<<ASSIGN
KN$NETPARM.SHDR$
      5350**DCL      5351--REDEF    6582<<ASSIGN
KN$NETPARM.SHDRSZ
      5356**DCL      6583<<ASSIGN
KN$NETPARM.SLDCT$
      5427**DCL      6623<<ASSIGN
KN$NETPARM.TCTX$
      5437**DCL      6549>>ASSIGN
KN$NETPARM.THDR$
      5361**DCL      5362--REDEF    6621<<ASSIGN
KN$NETPARM.THDRSZ
      5367**DCL      6620<<ASSIGN   6694<<ASSIGN
KN$NETPARM.UHDR$
      5336**DCL      5337--REDEF
KN$NETPARM.UHDRSZ
      5345**DCL      6619<<ASSIGN
KN$TCTX
      5610**DCL      6568<>CALL     6642<>CALL
KN$TCTX.CLASS
      5676**DCL      6684>>IF       6709>>IF       6709>>IF
KN$TCTX.DST_NSAP.ADDRESS_N
      6495**DCL      6496--REDEF
KN$TCTX.HOST_CQ_FULL
      5838**DCL      6648<<ASSIGN
KN$TCTX.HOST_NODE
      5659**DCL      6622>>ASSIGN
KN$TCTX.HOST_REF
      5652**DCL      6617>>ASSIGN
KN$TCTX.LOST_TPDU
      5795**DCL      6684>>IF       6689<<ASSIGN   6705>>IF
KN$TCTX.MAXSEQ
      5714**DCL      6634>>IF       6635>>ASSIGN   6638>>IF       6639>>ASSIGN
KN$TCTX.NODE
      5617**DCL      5630--REDEF
PL6.E3A0      #002=KNT$DSESSION File=KNT$MISC.:E05TSI                            WED 07/30/97 01:09 Page:80
KN$TCTX.OPTION.CLASS_2_FLOW
      5748**DCL      6709>>IF
KN$TCTX.OPTION.OSI
      5738**DCL      6629>>IF
KN$TCTX.OPTION.TRACE
      5724**DCL      6627>>IF
KN$TCTX.PRIMARY
      5855**DCL      6603>>IF
KN$TCTX.RCV_WINDOW_SZ
      5682**DCL      6707>>ASSIGN
KN$TCTX.RECV_HEAD$
      6016**DCL      6562>>DOWHILE  6562>>DOWHILE  6565>>ASSIGN   6580>>ASSIGN   6641<<ASSIGN   6684>>IF
      6687>>IF
KN$TCTX.RECV_LWE
      5978**DCL      6633<<ASSIGN   6634>>IF       6635<<ASSIGN   6635>>ASSIGN   6707>>ASSIGN
KN$TCTX.RECV_NEXT
      5997**DCL      6562>>DOWHILE  6616>>ASSIGN   6637<<ASSIGN   6637>>ASSIGN   6638>>IF       6639<<ASSIGN
      6639>>ASSIGN   6687>>IF
KN$TCTX.RECV_UWE
      5988**DCL      6707<<ASSIGN
KN$TCTX.RERR.LOST_TPDU
      5935**DCL      6690<<ASSIGN   6690>>ASSIGN
KN$TCTX.RERR.TBUF_NOQ
      5952**DCL      6649<<ASSIGN   6649>>ASSIGN
KN$TCTX.SRC_NSAP.ADDRESS_N
      6431**DCL      6432--REDEF
KN$TCTX.SSN_CRDT
      6139**DCL      6585>>IF       6630<<ASSIGN   6630>>ASSIGN
KN$TCTX.TMR_INACTIVITY.ARG
      6251**DCL      6252--REDEF
KN$TCTX.TMR_REFERENCE.ARG
      6281**DCL      6282--REDEF
KN$TCTX.TMR_RETRAN.ARG
      6192**DCL      6193--REDEF
KN$TCTX.TMR_WINDOW.ARG
      6221**DCL      6222--REDEF
PL6.E3A0      #002=KNT$DSESSION File=KNT$MISC.:E05TSI                            WED 07/30/97 01:09 Page:81
KN$TCTX IN PROCEDURE CON_CAT
      6725**DCL      6718--PROC     7663<>CALL     7694<>CALL
KN$TCTX.DST_NSAP.ADDRESS_N IN PROCEDURE CON_CAT
      7610**DCL      7611--REDEF
KN$TCTX.MAXSEQ IN PROCEDURE CON_CAT
      6829**DCL      7649>>IF
KN$TCTX.NEED_ASSMBUF IN PROCEDURE CON_CAT
      6918**DCL      7666>>IF       7668<<ASSIGN
KN$TCTX.NODE IN PROCEDURE CON_CAT
      6732**DCL      6745--REDEF
KN$TCTX.REASSM_FRAGS IN PROCEDURE CON_CAT
      7249**DCL      7676<<ASSIGN   7676>>ASSIGN
KN$TCTX.REASSM_TSDUS IN PROCEDURE CON_CAT
      7244**DCL      7675<<ASSIGN   7675>>ASSIGN
KN$TCTX.RECV_HEAD$ IN PROCEDURE CON_CAT
      7131**DCL      7638>>ASSIGN   7682>>ASSIGN   7693<<ASSIGN   7700<<ASSIGN
KN$TCTX.RECV_NEXT IN PROCEDURE CON_CAT
      7112**DCL      7641>>ASSIGN   7686<<ASSIGN
KN$TCTX.SRC_NSAP.ADDRESS_N IN PROCEDURE CON_CAT
      7546**DCL      7547--REDEF
KN$TCTX.TMR_INACTIVITY.ARG IN PROCEDURE CON_CAT
      7366**DCL      7367--REDEF
KN$TCTX.TMR_REFERENCE.ARG IN PROCEDURE CON_CAT
      7396**DCL      7397--REDEF
KN$TCTX.TMR_RETRAN.ARG IN PROCEDURE CON_CAT
      7307**DCL      7308--REDEF
KN$TCTX.TMR_WINDOW.ARG IN PROCEDURE CON_CAT
      7336**DCL      7337--REDEF
KNN$SEND
      6540**DCL-ENT  6625--CALL
KNS$RECV
      6541**DCL-ENT  6605--CALL
KNT$GET_RBUF
      6539**DCL-ENT  7663--CALL
KNT$RELBUF
      6538**DCL-ENT  6642--CALL     7694--CALL
PL6.E3A0      #002=KNT$DSESSION File=KNT$MISC.:E05TSI                            WED 07/30/97 01:09 Page:82
KNT$SEND_AK
      6543**DCL-ENT  6692--CALL     6711--CALL
KNT$TR_DSSN
      6544**DCL-ENT  6627--CALL
KNT$TR_ERROR
      6545**DCL-ENT  6695--CALL
KNT$UNQ_BUFFER
      6542**DCL-ENT  6703--CALL
KNT_ASSMBUF_ERR
      6516**DCL      7670<<ASSIGN   7670>>ASSIGN
KNT_LOCKSESS
      6530**DCL      6560<>CALL     6575<>CALL     6593<>CALL     6656<>CALL     6666<>CALL     6673<>CALL
      6681<>CALL
KNT_UNQ_LDCT
      6515**DCL      6623--ASSIGN
KNT_WAIT_COUNT
      6514**DCL      6702>>IF       7669<<ASSIGN   7669>>ASSIGN
LEAVE_BUFFERED
      6648**LABEL    6605--CALLALT
NEXT IN PROCEDURE CON_CAT
      7631**DCL      7641<<ASSIGN   7643>>DOWHILE  7648<<ASSIGN   7648>>ASSIGN   7649>>IF       7650<<ASSIGN
NUM IN PROCEDURE CON_CAT
      7630**DCL      7640<<ASSIGN   7652<<ASSIGN   7652>>ASSIGN   7661>>IF       7676>>ASSIGN   7680>>DOWHILE
      7681<<ASSIGN   7681>>ASSIGN
SPTR$ IN PROCEDURE CON_CAT
      7633**DCL      7687<<ASSIGN   7690>>ASSIGN
THPTR$ IN PROCEDURE CON_CAT
      7634**DCL      7682<<ASSIGN   7683>>ASSIGN   7684>>ASSIGN   7685>>ASSIGN   7687>>ASSIGN   7687>>ASSIGN
      7688>>ASSIGN   7693>>ASSIGN   7694>>CALL
TPTR$ IN PROCEDURE CON_CAT
      7628**DCL      7638<<ASSIGN   7643>>DOWHILE  7643>>DOWHILE  7646>>ASSIGN   7653>>IF       7655<<ASSIGN
      7655>>ASSIGN   7663<>CALL     7664>>IF       7678>>ASSIGN   7678>>ASSIGN   7683>>ASSIGN   7684>>ASSIGN
      7685>>ASSIGN   7686>>ASSIGN   7695>>IF       7700>>ASSIGN
TSIZE IN PROCEDURE CON_CAT
      7629**DCL      7639<<ASSIGN   7646<<ASSIGN   7646>>ASSIGN   7663<>CALL
UNQ_CHECK
PL6.E3A0      #002=KNT$DSESSION File=KNT$MISC.:E05TSI                            WED 07/30/97 01:09 Page:83
      6700**LABEL    6595--GOTO

PL6.E3A0      #003=KNT$GETBUF File=KNT$MISC.:E05TSI                              WED 07/30/97 01:09 Page:84
      639        1        /*M* KNT$GETBUF -  Get a transport buffer.            */
      640        2        /*T***********************************************************/
      641        3        /*T*                                                         */
      642        4        /*T* Copyright (c) Bull HN Information Systems Inc., 1997    */
      643        5        /*T*                                                         */
      644        6        /*T***********************************************************/
      645        7        /*X* PLM=3,IND=5,ENU=0,ECU=0  */
      646        8
      647        9        /*F* NAME: KNT$GETBUF
      648       10
      649       11             PURPOSE:
      650       12                  To get a buffer for a transport fragment.
      651       13
      652       14             DESCRIPTION:
      653       15                  Call KVB$GET2NSYS, initialize the header information, and
      654       16                   update buffer statistics.
      655       17
      656       18        */
      657       19        KNT$GETBUF: PROC (FRAGSIZE,FRAG$,KN$TCTX) ALTRET;
      658       20
      659       21        %INCLUDE K_ADDRESS_M;
      660      524        %INCLUDE K_TRANSPORT_E;
      661      849        %INCLUDE K_TRANSPORT_M;
      662     2633        %INCLUDE KN_DATA_M;
      663     4419        %INCLUDE KV$BPC;
      664     4448        %INCLUDE GH_SCHD_M;
      665     4592
      666     4593                                                /* Input Parameters                   */
      667     4594    1   DCL FRAGSIZE SBIN WORD;                 /*byte size of buffer to allocate     */
      668     4595    1   DCL FRAG$ PTR;           /*where we return the address of allocated buffer    */
      669     4596        %K$TCTX (NAME=KN$TCTX,STCLASS="");
      670     5503
      671     5504                                                /* Auto Storage                       */
      672     5505    1   DCL BUFSIZE SBIN WORD;
      673     5506    1   DCL ENTRY_SWITCH UBIN;
      674     5507
      675     5508        %EQU SEND_ENTRY = 0;
PL6.E3A0      #003=KNT$GETBUF File=KNT$MISC.:E05TSI                              WED 07/30/97 01:09 Page:85
      676     5509        %EQU RECV_ENTRY = 1;
      677     5510        %EQU ABUF_ENTRY = 2;
      678     5511
      679     5512                                                /* Based Structures                   */
      680     5513        %K$FRAG_HDR (NAME=FRAG_HDR);
      681     5596        %KV$BPC;
      682     5618
      683     5619                                                /* External Data                      */
      684     5620    1   DCL G$CBUFFER$ PTR SYMREF;
      685     5621    1   DCL KNT_BUFFER_SCREECH UBIN SYMREF;
      686     5622    1   DCL KNT_SCODE UBIN(32) SYMREF;
      687     5623
      688     5624                                                /* External Procedures                */
      689     5625    1   DCL KVB$GET2NSYS ENTRY(2) ALTRET;
      690     5626    1   DCL SCREECH ENTRY(1);
      691     5627
      692     5628        %EJECT;
PL6.E3A0      #003=KNT$GETBUF File=KNT$MISC.:E05TSI                              WED 07/30/97 01:09 Page:86
      693     5629
      694     5630    1   KNT$GET_SBUF: ENTRY(FRAGSIZE,FRAG$,KN$TCTX) ALTRET;
      695     5631    1      ENTRY_SWITCH = %SEND_ENTRY;
      696     5632    1      GOTO COMMON;
      697     5633
      698     5634    1   KNT$GET_RBUF: ENTRY(FRAGSIZE,FRAG$,KN$TCTX) ALTRET;
      699     5635    1      ENTRY_SWITCH = %RECV_ENTRY;
      700     5636    1      GOTO COMMON;
      701     5637
      702     5638    1   KNT$GET_ABUF: ENTRY(FRAGSIZE,FRAG$) ALTRET;
      703     5639    1      ENTRY_SWITCH = %ABUF_ENTRY;
      704     5640
      705     5641    1   COMMON: ;
      706     5642    1      BUFSIZE = (FRAGSIZE + SIZEC(FRAG_HDR) +1) / 2;
      707     5643
      708     5644    1      CALL KVB$GET2NSYS(BUFSIZE,FRAG$);
      709     5645
      710     5646    1      IF FRAG$ = ADDR(NIL)
      711     5647    2      THEN DO;
      712     5648    2           IF G$CBUFFER$->KV$BPC.USE = 0
      713     5649    2           THEN GOTO ENTER_SCREECH;
      714     5650
      715     5651    2           IF KNT_BUFFER_SCREECH ~= 0
      716     5652    3           THEN DO;
      717     5653    3   ENTER_SCREECH:
      718     5654    3                CALL SCREECH(KNT_SCODE);
      719     5655    3                END;
      720     5656    3           ELSE DO;
      721     5657    3                IF ENTRY_SWITCH = %SEND_ENTRY
      722     5658    3                THEN KN$TCTX.SERR.NOBUF = KN$TCTX.SERR.NOBUF +1;
      723     5659    3                IF ENTRY_SWITCH = %RECV_ENTRY
      724     5660    3                THEN KN$TCTX.RERR.NOBUF = KN$TCTX.RERR.NOBUF +1;
      725     5661    3                ALTRETURN;
      726     5662    3                END;
      727     5663    2           END;
      728     5664
      729     5665    1      FRAG$->FRAG_HDR = '0'B;
PL6.E3A0      #003=KNT$GETBUF File=KNT$MISC.:E05TSI                              WED 07/30/97 01:09 Page:87
      730     5666    1      FRAG$->FRAG_HDR.BUFF_WSIZE = BUFSIZE;
      731     5667    1      FRAG$->FRAG_HDR.DATA_BSIZE = FRAGSIZE;
      732     5668
      733     5669    1      IF ENTRY_SWITCH = %SEND_ENTRY
      734     5670    2      THEN DO;
      735     5671    2           FRAG$->FRAG_HDR.FLAGS.SEND = '1'B;
      736     5672
      737     5673    2           KN$TCTX.SEND_BUFF.CUR = KN$TCTX.SEND_BUFF.CUR +1;
      738     5674    2           IF KN$TCTX.SEND_BUFF.CUR > KN$TCTX.SEND_BUFF.PEAK
      739     5675    2           THEN KN$TCTX.SEND_BUFF.PEAK = KN$TCTX.SEND_BUFF.CUR;
      740     5676
      741     5677    2           KN$TCTX.SEND_BUFF.BYTES_CUR = KN$TCTX.SEND_BUFF.BYTES_CUR + BUFSIZE;
      742     5678    2           IF KN$TCTX.SEND_BUFF.BYTES_CUR > KN$TCTX.SEND_BUFF.BYTES_PEAK
      743     5679    2           THEN KN$TCTX.SEND_BUFF.BYTES_PEAK = KN$TCTX.SEND_BUFF.BYTES_CUR;
      744     5680    2           END;
      745     5681
      746     5682    1      IF ENTRY_SWITCH = %RECV_ENTRY
      747     5683    2      THEN DO;
      748     5684    2           FRAG$->FRAG_HDR.FLAGS.RECV = '1'B;
      749     5685
      750     5686    2           KN$TCTX.RECV_BUFF.CUR = KN$TCTX.RECV_BUFF.CUR +1;
      751     5687    2           IF KN$TCTX.RECV_BUFF.CUR > KN$TCTX.RECV_BUFF.PEAK
      752     5688    2           THEN KN$TCTX.RECV_BUFF.PEAK = KN$TCTX.RECV_BUFF.CUR;
      753     5689
      754     5690    2           KN$TCTX.RECV_BUFF.BYTES_CUR = KN$TCTX.RECV_BUFF.BYTES_CUR + BUFSIZE;
      755     5691    2           IF KN$TCTX.RECV_BUFF.BYTES_CUR > KN$TCTX.RECV_BUFF.BYTES_PEAK
      756     5692    2           THEN KN$TCTX.RECV_BUFF.BYTES_PEAK = KN$TCTX.RECV_BUFF.BYTES_CUR;
      757     5693    2           END;
      758     5694    1      RETURN;
      759     5695
      760     5696    1   END KNT$GETBUF;
      761     5697        %EOD;

PL6.E3A0      #003=KNT$GETBUF File=KNT$MISC.:E05TSI                              WED 07/30/97 01:09 Page:88
--  Include file information  --

   GH_SCHD_M.:E05TOU  is referenced.
   KV$BPC.:E05TOU  is referenced.
   KN_DATA_M.:E05TOU  is referenced.
   K_TRANSPORT_M.:E05TOU  is referenced.
   K_TRANSPORT_E.:E05TOU  is referenced.
   K_ADDRESS_M.:E05TOU  is referenced.
   G_LCP6_E.:E05TOU  was found in the system file and is never referenced.
   GT_LCP6_M.:E05TOU  was found in the system file and is never referenced.
   KI_CP6.:E05TOU  was found in the system file and is never referenced.
   GF_LCP6_M.:E05TOU  was found in the system file and is never referenced.
   GM_LCP6_M.:E05TOU  was found in the system file and is never referenced.
   GU_LCP6_M.:E05TOU  was found in the system file and is never referenced.
   GJ_LCP6_M.:E05TOU  was found in the system file and is never referenced.
   GH_LCP6_M.:E05TOU  was found in the system file and is never referenced.
      No diagnostics issued in procedure KNT$GETBUF.

   Procedure KNT$GETBUF requires 195 words for executable code.
   Procedure KNT$GETBUF requires 16 words of local(AUTO) storage.

PL6.E3A0      #003=KNT$GETBUF File=KNT$MISC.:E05TSI                              WED 07/30/97 01:09 Page:89

 Object Unit name= KNT$GETBUF                                 File name= KNT$MISC.:E05TOU
 UTS= JUL 30 '97 01:09:42.96 WED                              Compiler= PL-6/E31         Sev=      00
 SharedLib= :SHARED_LCP6_SYSTEM                               Alt SharedLib=


    ****  Control sections  ****

 Sect   Type Bound  Init  Size HexSiz  Section name
    0   Proc  even  none   195     C3  KNT$GETBUF
    1  RoData even  none     2      2  KNT$GETBUF

    ****  Entry defs  ****

                              Check   Calling
                             calling  sequence
  Sect HexLoc Primary Altret sequence   type   Parms  Name
     0      0   yes    yes     yes      Std        3  KNT$GETBUF
     0      7          yes     yes      Std        3  KNT$GET_SBUF
     0     10          yes     yes      Std        3  KNT$GET_RBUF
     0     1A          yes     yes      Std        2  KNT$GET_ABUF

  ****  Entry refs  ****

         Check        Calling
        calling       sequence
Altret sequence SRef   type   Args  Name
 yes     yes           Std       2 KVB$GET2NSYS
         yes           Std       1 SCREECH
                       nStd      0 X6A_AUTO_3
                       nStd      0 X6A_AALT
                       nStd      0 X6A_ARET
PL6.E3A0      #003=KNT$GETBUF File=KNT$MISC.:E05TSI                              WED 07/30/97 01:09 Page:90

  ****  Data refs  ****

  Flags:  r = read only, s = secondary
Flgs Name                             Flgs Name                             Flgs Name
     G$CBUFFER$                            KNT_BUFFER_SCREECH                    KNT_SCODE
r    G$ROS$
PL6.E3A0      #003=KNT$GETBUF File=KNT$MISC.:E05TSI                              WED 07/30/97 01:09 Page:91


      639        1        /*M* KNT$GETBUF -  Get a transport buffer.            */
      640        2        /*T***********************************************************/
      641        3        /*T*                                                         */
      642        4        /*T* Copyright (c) Bull HN Information Systems Inc., 1997    */
      643        5        /*T*                                                         */
      644        6        /*T***********************************************************/
      645        7        /*X* PLM=3,IND=5,ENU=0,ECU=0  */
      646        8
      647        9        /*F* NAME: KNT$GETBUF
      648       10
      649       11             PURPOSE:
      650       12                  To get a buffer for a transport fragment.
      651       13
      652       14             DESCRIPTION:
      653       15                  Call KVB$GET2NSYS, initialize the header information, and
      654       16                   update buffer statistics.
      655       17
      656       18        */
      657       19        KNT$GETBUF: PROC (FRAGSIZE,FRAG$,KN$TCTX) ALTRET;

     19   0 000000  D380 0000 0000  xent KNT$GETBUF      LNJ,B5   X6A_AUTO_3
          0 000003       0010 0003                       DC       16,3
          0 000005  0F81 0006                            B        s:5631,PREL

      658       20
      659       21        %INCLUDE K_ADDRESS_M;
      660      524        %INCLUDE K_TRANSPORT_E;
      661      849        %INCLUDE K_TRANSPORT_M;
      662     2633        %INCLUDE KN_DATA_M;
      663     4419        %INCLUDE KV$BPC;
      664     4448        %INCLUDE GH_SCHD_M;
      665     4592
      666     4593                                                /* Input Parameters                   */
      667     4594    1   DCL FRAGSIZE SBIN WORD;                 /*byte size of buffer to allocate     */
      668     4595    1   DCL FRAG$ PTR;           /*where we return the address of allocated buffer    */
      669     4596        %K$TCTX (NAME=KN$TCTX,STCLASS="");
PL6.E3A0      #003=KNT$GETBUF File=KNT$MISC.:E05TSI                              WED 07/30/97 01:09 Page:92
      670     5503
      671     5504                                                /* Auto Storage                       */
      672     5505    1   DCL BUFSIZE SBIN WORD;
      673     5506    1   DCL ENTRY_SWITCH UBIN;
      674     5507
      675     5508        %EQU SEND_ENTRY = 0;
      676     5509        %EQU RECV_ENTRY = 1;
      677     5510        %EQU ABUF_ENTRY = 2;
      678     5511
      679     5512                                                /* Based Structures                   */
      680     5513        %K$FRAG_HDR (NAME=FRAG_HDR);
      681     5596        %KV$BPC;
      682     5618
      683     5619                                                /* External Data                      */
      684     5620    1   DCL G$CBUFFER$ PTR SYMREF;
      685     5621    1   DCL KNT_BUFFER_SCREECH UBIN SYMREF;
      686     5622    1   DCL KNT_SCODE UBIN(32) SYMREF;
      687     5623
      688     5624                                                /* External Procedures                */
      689     5625    1   DCL KVB$GET2NSYS ENTRY(2) ALTRET;
      690     5626    1   DCL SCREECH ENTRY(1);
      691     5627
      692     5628        %EJECT;
PL6.E3A0      #003=KNT$GETBUF File=KNT$MISC.:E05TSI                              WED 07/30/97 01:09 Page:93
      693     5629
      694     5630    1   KNT$GET_SBUF: ENTRY(FRAGSIZE,FRAG$,KN$TCTX) ALTRET;

   5630   0 000007  D380 0000 0000  xent KNT$GET_SBUF    LNJ,B5   X6A_AUTO_3
          0 00000A       0010 0003                       DC       16,3

      695     5631    1      ENTRY_SWITCH = %SEND_ENTRY;

   5631   0 00000C  8747 000B                            CL       ENTRY_SWITCH,AUTO

      696     5632    1      GOTO COMMON;

   5632   0 00000E  0F81 0013                            B        s:5639,PREL

      697     5633
      698     5634    1   KNT$GET_RBUF: ENTRY(FRAGSIZE,FRAG$,KN$TCTX) ALTRET;

   5634   0 000010  D380 0000 0000  xent KNT$GET_RBUF    LNJ,B5   X6A_AUTO_3
          0 000013       0010 0003                       DC       16,3

      699     5635    1      ENTRY_SWITCH = %RECV_ENTRY;

   5635   0 000015  6C01                                 LDV,R6   1
          0 000016  EF47 000B                            STR,R6   ENTRY_SWITCH,AUTO

      700     5636    1      GOTO COMMON;

   5636   0 000018  0F81 0009                            B        s:5639,PREL

      701     5637
      702     5638    1   KNT$GET_ABUF: ENTRY(FRAGSIZE,FRAG$) ALTRET;

   5638   0 00001A  D380 0000 0000  xent KNT$GET_ABUF    LNJ,B5   X6A_AUTO_3
          0 00001D       0010 0003                       DC       16,3

      703     5639    1      ENTRY_SWITCH = %ABUF_ENTRY;

PL6.E3A0      #003=KNT$GETBUF File=KNT$MISC.:E05TSI                              WED 07/30/97 01:09 Page:94
   5639   0 00001F  6C02                                 LDV,R6   2
          0 000020  EF47 000B                            STR,R6   ENTRY_SWITCH,AUTO

   5639   0                              COMMON          null
      704     5640
      705     5641    1   COMMON: ;
      706     5642    1      BUFSIZE = (FRAGSIZE + SIZEC(FRAG_HDR) +1) / 2;

   5642   0 000022  ECC7 0004            COMMON          LDB,B6   @FRAGSIZE,AUTO
          0 000024  E806                                 LDR,R6   ,B6
          0 000025  6E11                                 ADV,R6   17
          0 000026  E370 0002                            DIV,R6   2,IMO
          0 000028  EF47 000A                            STR,R6   BUFSIZE,AUTO

      707     5643
      708     5644    1      CALL KVB$GET2NSYS(BUFSIZE,FRAG$);

   5644   0 00002A  DCC7 0006                            LDB,B5   @FRAG$,AUTO
          0 00002C  DFC7 000E                            STB,B5   ENTRY_SWITCH+3,AUTO
          0 00002E  CBC7 000A                            LAB,B4   BUFSIZE,AUTO
          0 000030  CFC7 000C                            STB,B4   ENTRY_SWITCH+1,AUTO
          0 000032  BBC7 000C                            LAB,B3   ENTRY_SWITCH+1,AUTO
          0 000034  CBF0 0200                            LAB,B4   512,IMO
          0 000036  E380 0000 0000  xent                 LNJ,B6   KVB$GET2NSYS
          0 000039       0001                            DC       s:5646,PREL

      709     5645
      710     5646    1      IF FRAG$ = ADDR(NIL)

   5646   0 00003A  ECC7 0006                            LDB,B6   @FRAG$,AUTO
          0 00003C  8D86                                 CMN      ,B6
          0 00003D  0981 002F                            BNE      s:5665,PREL

      711     5647    2      THEN DO;

      712     5648    2           IF G$CBUFFER$->KV$BPC.USE = 0

PL6.E3A0      #003=KNT$GETBUF File=KNT$MISC.:E05TSI                              WED 07/30/97 01:09 Page:95
   5648   0 00003F  DC80 0000 0000  xsym                 LDB,B5   G$CBUFFER$
          0 000042  8CC5 0002                            LDI      2,B5
          0 000044  84F0 0000 0000                       SID      0,IMO
          0 000047  6981 0003                            BNEZ,R6  s:5651,PREL
          0 000049  7901 0006                            BEZ,R7   s:5652,PREL

      713     5649    2           THEN GOTO ENTER_SCREECH;
      714     5650
      715     5651    2           IF KNT_BUFFER_SCREECH ~= 0

   5651   0 00004B  E800 0000 0000  xsym                 LDR,R6   KNT_BUFFER_SCREECH
          0 00004E  6901 000C                            BEZ,R6   s:5657,PREL

      716     5652    3           THEN DO;

      717     5653    3   ENTER_SCREECH:
      718     5654    3                CALL SCREECH(KNT_SCODE);

   5654   0 000050  BB80 0000 0000  01   ENTER_SCREECH   LAB,B3   0
          0 000053  CBF0 0100                            LAB,B4   256,IMO
          0 000055  E380 0000 0000  xent                 LNJ,B6   SCREECH
          0 000058       0001                            DC       s:5655,PREL

      719     5655    3                END;

   5655   0 000059  0F81 0013                            B        s:5665,PREL

      720     5656    3           ELSE DO;

      721     5657    3                IF ENTRY_SWITCH = %SEND_ENTRY

   5657   0 00005B  D847 000B                            LDR,R5   ENTRY_SWITCH,AUTO
          0 00005D  5981 0005                            BNEZ,R5  s:5659,PREL

      722     5658    3                THEN KN$TCTX.SERR.NOBUF = KN$TCTX.SERR.NOBUF +1;

   5658   0 00005F  CCC7 0008                            LDB,B4   @KN$TCTX,AUTO
PL6.E3A0      #003=KNT$GETBUF File=KNT$MISC.:E05TSI                              WED 07/30/97 01:09 Page:96
          0 000061  8AC4 0010                            INC      16,B4

      723     5659    3                IF ENTRY_SWITCH = %RECV_ENTRY

   5659   0 000063  5D01                                 CMV,R5   1
          0 000064  0981 0005                            BNE      s:5661,PREL

      724     5660    3                THEN KN$TCTX.RERR.NOBUF = KN$TCTX.RERR.NOBUF +1;

   5660   0 000066  CCC7 0008                            LDB,B4   @KN$TCTX,AUTO
          0 000068  8AC4 0016                            INC      22,B4

      725     5661    3                ALTRETURN;

   5661   0 00006A  C380 0000 0000  xent                 LNJ,B4   X6A_AALT

      726     5662    3                END;
      727     5663    2           END;
      728     5664
      729     5665    1      FRAG$->FRAG_HDR = '0'B;

   5665   0 00006D  ECC7 0006                            LDB,B6   @FRAG$,AUTO
          0 00006F  DC86                                 LDB,B5   ,B6
          0 000070  5C10                                 LDV,R5   16
          0 000071  0021                                 ALR      ;
          0 000072       4178 0000                                ALPHANUM('0000'X,IMO,,1),;
          0 000074       4005 0000                                ALPHANUM(0,B5,,R5,FILL)

      730     5666    1      FRAG$->FRAG_HDR.BUFF_WSIZE = BUFSIZE;

   5666   0 000076  437F                                 CSYNC    s:5665+8,SPREL
          0 000077  DC86                                 LDB,B5   ,B6
          0 000078  E847 000A                            LDR,R6   BUFSIZE,AUTO
          0 00007A  EF05                                 STR,R6   ,B5

      731     5667    1      FRAG$->FRAG_HDR.DATA_BSIZE = FRAGSIZE;

PL6.E3A0      #003=KNT$GETBUF File=KNT$MISC.:E05TSI                              WED 07/30/97 01:09 Page:97
   5667   0 00007B  DC86                                 LDB,B5   ,B6
          0 00007C  CCC7 0004                            LDB,B4   @FRAGSIZE,AUTO
          0 00007E  E804                                 LDR,R6   ,B4
          0 00007F  EF45 0001                            STR,R6   1,B5

      732     5668
      733     5669    1      IF ENTRY_SWITCH = %SEND_ENTRY

   5669   0 000081  E847 000B                            LDR,R6   ENTRY_SWITCH,AUTO
          0 000083  6981 001D                            BNEZ,R6  s:5682,PREL

      734     5670    2      THEN DO;

      735     5671    2           FRAG$->FRAG_HDR.FLAGS.SEND = '1'B;

   5671   0 000085  DC86                                 LDB,B5   ,B6
          0 000086  8945 0006                            LBT,'0002'X       6,B5
          0 000088       0002

      736     5672
      737     5673    2           KN$TCTX.SEND_BUFF.CUR = KN$TCTX.SEND_BUFF.CUR +1;

   5673   0 000089  DCC7 0008                            LDB,B5   @KN$TCTX,AUTO
          0 00008B  8AC5 002E                            INC      46,B5

      738     5674    2           IF KN$TCTX.SEND_BUFF.CUR > KN$TCTX.SEND_BUFF.PEAK

   5674   0 00008D  C845 002E                            LDR,R4   46,B5
          0 00008F  C945 002F                            CMR,R4   47,B5
          0 000091  0381 0003                            BLE      s:5677,PREL

      739     5675    2           THEN KN$TCTX.SEND_BUFF.PEAK = KN$TCTX.SEND_BUFF.CUR;

   5675   0 000093  CF45 002F                            STR,R4   47,B5

      740     5676
      741     5677    2           KN$TCTX.SEND_BUFF.BYTES_CUR = KN$TCTX.SEND_BUFF.BYTES_CUR + BUFSIZE;
PL6.E3A0      #003=KNT$GETBUF File=KNT$MISC.:E05TSI                              WED 07/30/97 01:09 Page:98

   5677   0 000095  B845 0030                            LDR,R3   48,B5
          0 000097  BA47 000A                            ADD,R3   BUFSIZE,AUTO
          0 000099  BF45 0030                            STR,R3   48,B5

      742     5678    2           IF KN$TCTX.SEND_BUFF.BYTES_CUR > KN$TCTX.SEND_BUFF.BYTES_PEAK

   5678   0 00009B  B945 0031                            CMR,R3   49,B5
          0 00009D  0381 0003                            BLE      s:5682,PREL

      743     5679    2           THEN KN$TCTX.SEND_BUFF.BYTES_PEAK = KN$TCTX.SEND_BUFF.BYTES_CUR;

   5679   0 00009F  BF45 0031                            STR,R3   49,B5

      744     5680    2           END;

      745     5681
      746     5682    1      IF ENTRY_SWITCH = %RECV_ENTRY

   5682   0 0000A1  6D01                                 CMV,R6   1
          0 0000A2  0981 001D                            BNE      s:5694,PREL

      747     5683    2      THEN DO;

      748     5684    2           FRAG$->FRAG_HDR.FLAGS.RECV = '1'B;

   5684   0 0000A4  DC86                                 LDB,B5   ,B6
          0 0000A5  8945 0006                            LBT,'0004'X       6,B5
          0 0000A7       0004

      749     5685
      750     5686    2           KN$TCTX.RECV_BUFF.CUR = KN$TCTX.RECV_BUFF.CUR +1;

   5686   0 0000A8  DCC7 0008                            LDB,B5   @KN$TCTX,AUTO
          0 0000AA  8AC5 001E                            INC      30,B5

      751     5687    2           IF KN$TCTX.RECV_BUFF.CUR > KN$TCTX.RECV_BUFF.PEAK
PL6.E3A0      #003=KNT$GETBUF File=KNT$MISC.:E05TSI                              WED 07/30/97 01:09 Page:99

   5687   0 0000AC  C845 001E                            LDR,R4   30,B5
          0 0000AE  C945 001F                            CMR,R4   31,B5
          0 0000B0  0381 0003                            BLE      s:5690,PREL

      752     5688    2           THEN KN$TCTX.RECV_BUFF.PEAK = KN$TCTX.RECV_BUFF.CUR;

   5688   0 0000B2  CF45 001F                            STR,R4   31,B5

      753     5689
      754     5690    2           KN$TCTX.RECV_BUFF.BYTES_CUR = KN$TCTX.RECV_BUFF.BYTES_CUR + BUFSIZE;

   5690   0 0000B4  B845 0020                            LDR,R3   32,B5
          0 0000B6  BA47 000A                            ADD,R3   BUFSIZE,AUTO
          0 0000B8  BF45 0020                            STR,R3   32,B5

      755     5691    2           IF KN$TCTX.RECV_BUFF.BYTES_CUR > KN$TCTX.RECV_BUFF.BYTES_PEAK

   5691   0 0000BA  B945 0021                            CMR,R3   33,B5
          0 0000BC  0381 0003                            BLE      s:5694,PREL

      756     5692    2           THEN KN$TCTX.RECV_BUFF.BYTES_PEAK = KN$TCTX.RECV_BUFF.BYTES_CUR;

   5692   0 0000BE  BF45 0021                            STR,R3   33,B5

      757     5693    2           END;

      758     5694    1      RETURN;

   5694   0 0000C0  C380 0000 0000  xent                 LNJ,B4   X6A_ARET
      759     5695
      760     5696    1   END KNT$GETBUF;
      761     5697        %EOD;

PL6.E3A0      #003=KNT$GETBUF File=KNT$MISC.:E05TSI                              WED 07/30/97 01:09 Page:100
--  Include file information  --

   GH_SCHD_M.:E05TOU  is referenced.
   KV$BPC.:E05TOU  is referenced.
   KN_DATA_M.:E05TOU  is referenced.
   K_TRANSPORT_M.:E05TOU  is referenced.
   K_TRANSPORT_E.:E05TOU  is referenced.
   K_ADDRESS_M.:E05TOU  is referenced.
   G_LCP6_E.:E05TOU  was found in the system file and is never referenced.
   GT_LCP6_M.:E05TOU  was found in the system file and is never referenced.
   KI_CP6.:E05TOU  was found in the system file and is never referenced.
   GF_LCP6_M.:E05TOU  was found in the system file and is never referenced.
   GM_LCP6_M.:E05TOU  was found in the system file and is never referenced.
   GU_LCP6_M.:E05TOU  was found in the system file and is never referenced.
   GJ_LCP6_M.:E05TOU  was found in the system file and is never referenced.
   GH_LCP6_M.:E05TOU  was found in the system file and is never referenced.
      No diagnostics issued in procedure KNT$GETBUF.
PL6.E3A0      #003=KNT$GETBUF File=KNT$MISC.:E05TSI                              WED 07/30/97 01:09 Page:101

 **** Variables and constants ****

  ****  Auto variables  ****

  ****  Scalars and arrays  ****
HexLoc.c.b A Datatyp(siz) R M Lvl/name                 HexLoc.c.b A Datatyp(siz) R M Lvl/name

     6-0-0/w PTR         r     1 @FRAG$                     4-0-0/w PTR         r     1 @FRAGSIZE
     8-0-0/w PTR         r     1 @KN$TCTX                   A-0-0/w SBIN(16)    r     1 BUFSIZE
     B-0-0/w UBIN(16)    r     1 ENTRY_SWITCH              *0-0-0/w PTR         r     1 FRAG$
    *0-0-0/w SBIN(16)    r     1 FRAGSIZE                  *0-0-0/w STRC(2816)  r     1 KN$TCTX

  ****  SYMREF variables  ****

  ****  Scalars and arrays  ****
HexLoc.c.b A Datatyp(siz) R M Lvl/name                 HexLoc.c.b A Datatyp(siz) R M Lvl/name

     0-0-0/w PTR         r     1 G$CBUFFER$                 0-0-0/w UBIN(16)    r     1 KNT_BUFFER_SCREECH
     0-0-0/w UBIN(32)    r     1 KNT_SCODE

  ****  BASED and DCB variables  ****

  ****  Scalars and arrays  ****
HexLoc.c.b A Datatyp(siz) R M Lvl/name                 HexLoc.c.b A Datatyp(siz) R M Lvl/name

     0-0-0/w STRC(128)   r     1 FRAG_HDR                   0-0-0/w ASTR(1824)  r     1 KV$BPC


   Procedure KNT$GETBUF requires 195 words for executable code.
   Procedure KNT$GETBUF requires 16 words of local(AUTO) storage.
PL6.E3A0      #003=KNT$GETBUF File=KNT$MISC.:E05TSI                              WED 07/30/97 01:09 Page:102
          *** CROSS REFERENCE LISTING ***
**     DENOTES     IDENTIFIER DEFINITION
<<                 IDENTIFIER'S VALUE SET
>>                 IDENTIFIER'S VALUE USED
<>                 IDENTIFIER SET AND/OR USED
--                 IDENTIFIER REFERENCED
PL6.E3A0      #003=KNT$GETBUF File=KNT$MISC.:E05TSI                              WED 07/30/97 01:09 Page:103
          MINI XREF LISTING

BUFSIZE
      5505**DCL      5642<<ASSIGN   5644<>CALL     5666>>ASSIGN   5677>>ASSIGN   5690>>ASSIGN
COMMON
      5639**LABEL    5632--GOTO     5636--GOTO
ENTER_SCREECH
      5654**LABEL    5649--GOTO
ENTRY_SWITCH
      5506**DCL      5631<<ASSIGN   5635<<ASSIGN   5639<<ASSIGN   5657>>IF       5659>>IF       5669>>IF
      5682>>IF
FRAG$
      4595**DCL        19--PROC     5630--ENTRY    5634--ENTRY    5638--ENTRY    5644<>CALL     5646>>IF
      5665>>ASSIGN   5666>>ASSIGN   5667>>ASSIGN   5671>>ASSIGN   5684>>ASSIGN
FRAGSIZE
      4594**DCL        19--PROC     5630--ENTRY    5634--ENTRY    5638--ENTRY    5642>>ASSIGN   5667>>ASSIGN
FRAG_HDR
      5530**DCL      5642--ASSIGN   5665<<ASSIGN
FRAG_HDR.BUFF_WSIZE
      5534**DCL      5666<<ASSIGN
FRAG_HDR.DATA_BSIZE
      5539**DCL      5667<<ASSIGN
FRAG_HDR.FLAGS.RECV
      5574**DCL      5684<<ASSIGN
FRAG_HDR.FLAGS.SEND
      5579**DCL      5671<<ASSIGN
FRAG_HDR.SEQ
      5543**DCL      5544--REDEF
G$CBUFFER$
      5620**DCL      5648>>IF
KN$TCTX
      4601**DCL        19--PROC     5630--ENTRY    5634--ENTRY
KN$TCTX.DST_NSAP.ADDRESS_N
      5486**DCL      5487--REDEF
PL6.E3A0      #003=KNT$GETBUF File=KNT$MISC.:E05TSI                              WED 07/30/97 01:09 Page:104
KN$TCTX.NODE
      4608**DCL      4621--REDEF
KN$TCTX.RECV_BUFF.BYTES_CUR
      4967**DCL      5690<<ASSIGN   5690>>ASSIGN   5691>>IF       5692>>ASSIGN
KN$TCTX.RECV_BUFF.BYTES_PEAK
      4968**DCL      5691>>IF       5692<<ASSIGN
KN$TCTX.RECV_BUFF.CUR
      4965**DCL      5686<<ASSIGN   5686>>ASSIGN   5687>>IF       5688>>ASSIGN
KN$TCTX.RECV_BUFF.PEAK
      4966**DCL      5687>>IF       5688<<ASSIGN
KN$TCTX.RERR.NOBUF
      4913**DCL      5660<<ASSIGN   5660>>ASSIGN
KN$TCTX.SEND_BUFF.BYTES_CUR
      5027**DCL      5677<<ASSIGN   5677>>ASSIGN   5678>>IF       5679>>ASSIGN
KN$TCTX.SEND_BUFF.BYTES_PEAK
      5028**DCL      5678>>IF       5679<<ASSIGN
KN$TCTX.SEND_BUFF.CUR
      5025**DCL      5673<<ASSIGN   5673>>ASSIGN   5674>>IF       5675>>ASSIGN
KN$TCTX.SEND_BUFF.PEAK
      5026**DCL      5674>>IF       5675<<ASSIGN
KN$TCTX.SERR.NOBUF
      4871**DCL      5658<<ASSIGN   5658>>ASSIGN
KN$TCTX.SRC_NSAP.ADDRESS_N
      5422**DCL      5423--REDEF
KN$TCTX.TMR_INACTIVITY.ARG
      5242**DCL      5243--REDEF
KN$TCTX.TMR_REFERENCE.ARG
      5272**DCL      5273--REDEF
KN$TCTX.TMR_RETRAN.ARG
      5183**DCL      5184--REDEF
KN$TCTX.TMR_WINDOW.ARG
      5212**DCL      5213--REDEF
KNT_BUFFER_SCREECH
      5621**DCL      5651>>IF
KNT_SCODE
      5622**DCL      5654<>CALL
PL6.E3A0      #003=KNT$GETBUF File=KNT$MISC.:E05TSI                              WED 07/30/97 01:09 Page:105
KV$BPC.BITMAPSIZ
      5612**DCL      5615--IMP-SIZ
KV$BPC.USE
      5605**DCL      5648>>IF
KVB$GET2NSYS
      5625**DCL-ENT  5644--CALL
SCREECH
      5626**DCL-ENT  5654--CALL

PL6.E3A0      #004=KNT$RELBUF File=KNT$MISC.:E05TSI                              WED 07/30/97 01:10 Page:106
      762        1        /*M* KNT$RELBUF - Release a transport buffer.                 */
      763        2        /*T***********************************************************/
      764        3        /*T*                                                         */
      765        4        /*T* Copyright (c) Bull HN Information Systems Inc., 1997    */
      766        5        /*T*                                                         */
      767        6        /*T***********************************************************/
      768        7        /*X* PLM=3,IND=5,ENU=0,ECU=0  */
      769        8
      770        9        /*F* NAME: KNT$RELBUF
      771       10
      772       11             PURPOSE:
      773       12                  To return a transport buffer to the pool.
      774       13
      775       14             DESCRIPTION:
      776       15                  Call KVB$RLS2NSYS and update buffer statistics.
      777       16
      778       17        */
      779       18        KNT$RELBUF: PROC (FRAG_HDR,KN$TCTX);
      780       19
      781       20        %INCLUDE K_ADDRESS_M;
      782      523        %INCLUDE K_TRANSPORT_E;
      783      848        %INCLUDE K_TRANSPORT_M;
      784     2632        %INCLUDE KN_DATA_M;
      785     4418        %INCLUDE GH_SCHD_M;
      786     4562
      787     4563        %K$FRAG_HDR (NAME=FRAG_HDR,STCLASS="");
      788     4646        %K$TCTX (NAME=KN$TCTX,STCLASS="");
      789     5553
      790     5554    1   DCL BUFSIZE SBIN WORD;
      791     5555
      792     5556    1   DCL KVB$RLS2NSYS ENTRY(2) ALTRET;
      793     5557
      794     5558    1      BUFSIZE = FRAG_HDR.BUFF_WSIZE;
      795     5559
      796     5560    1      CALL KVB$RLS2NSYS (FRAG_HDR.BUFF_WSIZE);
      797     5561
      798     5562    1      IF FRAG_HDR.FLAGS.SEND
PL6.E3A0      #004=KNT$RELBUF File=KNT$MISC.:E05TSI                              WED 07/30/97 01:10 Page:107
      799     5563    2      THEN DO;
      800     5564    2           KN$TCTX.SEND_BUFF.CUR = KN$TCTX.SEND_BUFF.CUR -1;
      801     5565    2           KN$TCTX.SEND_BUFF.BYTES_CUR = KN$TCTX.SEND_BUFF.BYTES_CUR - BUFSIZE;
      802     5566    2           END;
      803     5567
      804     5568    2      ELSE DO;
      805     5569    2           KN$TCTX.RECV_BUFF.CUR = KN$TCTX.RECV_BUFF.CUR -1;
      806     5570    2           KN$TCTX.RECV_BUFF.BYTES_CUR = KN$TCTX.RECV_BUFF.BYTES_CUR - BUFSIZE;
      807     5571    2           END;
      808     5572    1      RETURN;
      809     5573
      810     5574    1   END KNT$RELBUF;
      811     5575        %EOD;

PL6.E3A0      #004=KNT$RELBUF File=KNT$MISC.:E05TSI                              WED 07/30/97 01:10 Page:108
--  Include file information  --

   GH_SCHD_M.:E05TOU  is referenced.
   KN_DATA_M.:E05TOU  is referenced.
   K_TRANSPORT_M.:E05TOU  is referenced.
   K_TRANSPORT_E.:E05TOU  is referenced.
   K_ADDRESS_M.:E05TOU  is referenced.
   G_LCP6_E.:E05TOU  was found in the system file and is never referenced.
   GT_LCP6_M.:E05TOU  was found in the system file and is never referenced.
   KI_CP6.:E05TOU  was found in the system file and is never referenced.
   GF_LCP6_M.:E05TOU  was found in the system file and is never referenced.
   GM_LCP6_M.:E05TOU  was found in the system file and is never referenced.
   GU_LCP6_M.:E05TOU  was found in the system file and is never referenced.
   GJ_LCP6_M.:E05TOU  was found in the system file and is never referenced.
   GH_LCP6_M.:E05TOU  was found in the system file and is never referenced.
      No diagnostics issued in procedure KNT$RELBUF.

   Procedure KNT$RELBUF requires 50 words for executable code.
   Procedure KNT$RELBUF requires 10 words of local(AUTO) storage.

PL6.E3A0      #004=KNT$RELBUF File=KNT$MISC.:E05TSI                              WED 07/30/97 01:10 Page:109

 Object Unit name= KNT$RELBUF                                 File name= KNT$MISC.:E05TOU
 UTS= JUL 30 '97 01:10:06.24 WED                              Compiler= PL-6/E31         Sev=      00
 SharedLib= :SHARED_LCP6_SYSTEM                               Alt SharedLib=


    ****  Control sections  ****

 Sect   Type Bound  Init  Size HexSiz  Section name
    0   Proc  even  none    50     32  KNT$RELBUF

    ****  Entry defs  ****

                              Check   Calling
                             calling  sequence
  Sect HexLoc Primary Altret sequence   type   Parms  Name
     0      0   yes            yes      Std        2  KNT$RELBUF

  ****  Entry refs  ****

         Check        Calling
        calling       sequence
Altret sequence SRef   type   Args  Name
 yes     yes           Std       2 KVB$RLS2NSYS
                       nStd      0 X6A_AUTO_2
                       nStd      0 X6A_ARET

  ****  Data refs  ****

  Flags:  r = read only, s = secondary
Flgs Name                             Flgs Name                             Flgs Name
r    G$ROS$
PL6.E3A0      #004=KNT$RELBUF File=KNT$MISC.:E05TSI                              WED 07/30/97 01:10 Page:110


      762        1        /*M* KNT$RELBUF - Release a transport buffer.                 */
      763        2        /*T***********************************************************/
      764        3        /*T*                                                         */
      765        4        /*T* Copyright (c) Bull HN Information Systems Inc., 1997    */
      766        5        /*T*                                                         */
      767        6        /*T***********************************************************/
      768        7        /*X* PLM=3,IND=5,ENU=0,ECU=0  */
      769        8
      770        9        /*F* NAME: KNT$RELBUF
      771       10
      772       11             PURPOSE:
      773       12                  To return a transport buffer to the pool.
      774       13
      775       14             DESCRIPTION:
      776       15                  Call KVB$RLS2NSYS and update buffer statistics.
      777       16
      778       17        */
      779       18        KNT$RELBUF: PROC (FRAG_HDR,KN$TCTX);

     18   0 000000  D380 0000 0000  xent KNT$RELBUF      LNJ,B5   X6A_AUTO_2
          0 000003       000A 0002                       DC       10,2

      780       19
      781       20        %INCLUDE K_ADDRESS_M;
      782      523        %INCLUDE K_TRANSPORT_E;
      783      848        %INCLUDE K_TRANSPORT_M;
      784     2632        %INCLUDE KN_DATA_M;
      785     4418        %INCLUDE GH_SCHD_M;
      786     4562
      787     4563        %K$FRAG_HDR (NAME=FRAG_HDR,STCLASS="");
      788     4646        %K$TCTX (NAME=KN$TCTX,STCLASS="");
      789     5553
      790     5554    1   DCL BUFSIZE SBIN WORD;
      791     5555
      792     5556    1   DCL KVB$RLS2NSYS ENTRY(2) ALTRET;
      793     5557
PL6.E3A0      #004=KNT$RELBUF File=KNT$MISC.:E05TSI                              WED 07/30/97 01:10 Page:111
      794     5558    1      BUFSIZE = FRAG_HDR.BUFF_WSIZE;

   5558   0 000005  ECC7 0004                            LDB,B6   @FRAG_HDR,AUTO
          0 000007  E806                                 LDR,R6   ,B6
          0 000008  EF47 0008                            STR,R6   BUFSIZE,AUTO

      795     5559
      796     5560    1      CALL KVB$RLS2NSYS (FRAG_HDR.BUFF_WSIZE);

   5560   0 00000A  BBC7 0004                            LAB,B3   @FRAG_HDR,AUTO
          0 00000C  CBF0 0100                            LAB,B4   256,IMO
          0 00000E  E380 0000 0000  xent                 LNJ,B6   KVB$RLS2NSYS
          0 000011       0001                            DC       s:5562,PREL

      797     5561
      798     5562    1      IF FRAG_HDR.FLAGS.SEND

   5562   0 000012  ECC7 0004                            LDB,B6   @FRAG_HDR,AUTO
          0 000014  82C6 0006                            LB,'0002'X        6,B6
          0 000016       0002
          0 000017  0581 000D                            BBF      s:5569,PREL

      799     5563    2      THEN DO;

      800     5564    2           KN$TCTX.SEND_BUFF.CUR = KN$TCTX.SEND_BUFF.CUR -1;

   5564   0 000019  DCC7 0006                            LDB,B5   @KN$TCTX,AUTO
          0 00001B  88C5 002E                            DEC      46,B5

      801     5565    2           KN$TCTX.SEND_BUFF.BYTES_CUR = KN$TCTX.SEND_BUFF.BYTES_CUR - BUFSIZE;

   5565   0 00001D  E845 0030                            LDR,R6   48,B5
          0 00001F  E247 0008                            SUB,R6   BUFSIZE,AUTO
          0 000021  EF45 0030                            STR,R6   48,B5

      802     5566    2           END;

PL6.E3A0      #004=KNT$RELBUF File=KNT$MISC.:E05TSI                              WED 07/30/97 01:10 Page:112
   5566   0 000023  0F81 000B                            B        s:5572,PREL

      803     5567
      804     5568    2      ELSE DO;

      805     5569    2           KN$TCTX.RECV_BUFF.CUR = KN$TCTX.RECV_BUFF.CUR -1;

   5569   0 000025  DCC7 0006                            LDB,B5   @KN$TCTX,AUTO
          0 000027  88C5 001E                            DEC      30,B5

      806     5570    2           KN$TCTX.RECV_BUFF.BYTES_CUR = KN$TCTX.RECV_BUFF.BYTES_CUR - BUFSIZE;

   5570   0 000029  E845 0020                            LDR,R6   32,B5
          0 00002B  E247 0008                            SUB,R6   BUFSIZE,AUTO
          0 00002D  EF45 0020                            STR,R6   32,B5

      807     5571    2           END;

      808     5572    1      RETURN;

   5572   0 00002F  C380 0000 0000  xent                 LNJ,B4   X6A_ARET
      809     5573
      810     5574    1   END KNT$RELBUF;
      811     5575        %EOD;

PL6.E3A0      #004=KNT$RELBUF File=KNT$MISC.:E05TSI                              WED 07/30/97 01:10 Page:113
--  Include file information  --

   GH_SCHD_M.:E05TOU  is referenced.
   KN_DATA_M.:E05TOU  is referenced.
   K_TRANSPORT_M.:E05TOU  is referenced.
   K_TRANSPORT_E.:E05TOU  is referenced.
   K_ADDRESS_M.:E05TOU  is referenced.
   G_LCP6_E.:E05TOU  was found in the system file and is never referenced.
   GT_LCP6_M.:E05TOU  was found in the system file and is never referenced.
   KI_CP6.:E05TOU  was found in the system file and is never referenced.
   GF_LCP6_M.:E05TOU  was found in the system file and is never referenced.
   GM_LCP6_M.:E05TOU  was found in the system file and is never referenced.
   GU_LCP6_M.:E05TOU  was found in the system file and is never referenced.
   GJ_LCP6_M.:E05TOU  was found in the system file and is never referenced.
   GH_LCP6_M.:E05TOU  was found in the system file and is never referenced.
      No diagnostics issued in procedure KNT$RELBUF.
PL6.E3A0      #004=KNT$RELBUF File=KNT$MISC.:E05TSI                              WED 07/30/97 01:10 Page:114

 **** Variables and constants ****

  ****  Auto variables  ****

  ****  Scalars and arrays  ****
HexLoc.c.b A Datatyp(siz) R M Lvl/name                 HexLoc.c.b A Datatyp(siz) R M Lvl/name

     4-0-0/w PTR         r     1 @FRAG_HDR                  6-0-0/w PTR         r     1 @KN$TCTX
     8-0-0/w SBIN(16)    r     1 BUFSIZE                   *0-0-0/w STRC(128)   r     1 FRAG_HDR
    *0-0-0/w STRC(2816)  r     1 KN$TCTX


   Procedure KNT$RELBUF requires 50 words for executable code.
   Procedure KNT$RELBUF requires 10 words of local(AUTO) storage.
PL6.E3A0      #004=KNT$RELBUF File=KNT$MISC.:E05TSI                              WED 07/30/97 01:10 Page:115
          *** CROSS REFERENCE LISTING ***
**     DENOTES     IDENTIFIER DEFINITION
<<                 IDENTIFIER'S VALUE SET
>>                 IDENTIFIER'S VALUE USED
<>                 IDENTIFIER SET AND/OR USED
--                 IDENTIFIER REFERENCED
PL6.E3A0      #004=KNT$RELBUF File=KNT$MISC.:E05TSI                              WED 07/30/97 01:10 Page:116
          MINI XREF LISTING

BUFSIZE
      5554**DCL      5558<<ASSIGN   5565>>ASSIGN   5570>>ASSIGN
FRAG_HDR
      4580**DCL        18--PROC
FRAG_HDR.BUFF_WSIZE
      4584**DCL      5558>>ASSIGN   5560<>CALL
FRAG_HDR.FLAGS.SEND
      4629**DCL      5562>>IF
FRAG_HDR.SEQ
      4593**DCL      4594--REDEF
KN$TCTX
      4651**DCL        18--PROC
KN$TCTX.DST_NSAP.ADDRESS_N
      5536**DCL      5537--REDEF
KN$TCTX.NODE
      4658**DCL      4671--REDEF
KN$TCTX.RECV_BUFF.BYTES_CUR
      5017**DCL      5570<<ASSIGN   5570>>ASSIGN
KN$TCTX.RECV_BUFF.CUR
      5015**DCL      5569<<ASSIGN   5569>>ASSIGN
KN$TCTX.SEND_BUFF.BYTES_CUR
      5077**DCL      5565<<ASSIGN   5565>>ASSIGN
KN$TCTX.SEND_BUFF.CUR
      5075**DCL      5564<<ASSIGN   5564>>ASSIGN
KN$TCTX.SRC_NSAP.ADDRESS_N
      5472**DCL      5473--REDEF
KN$TCTX.TMR_INACTIVITY.ARG
      5292**DCL      5293--REDEF
KN$TCTX.TMR_REFERENCE.ARG
      5322**DCL      5323--REDEF
KN$TCTX.TMR_RETRAN.ARG
      5233**DCL      5234--REDEF
PL6.E3A0      #004=KNT$RELBUF File=KNT$MISC.:E05TSI                              WED 07/30/97 01:10 Page:117
KN$TCTX.TMR_WINDOW.ARG
      5262**DCL      5263--REDEF
KVB$RLS2NSYS
      5556**DCL-ENT  5560--CALL

PL6.E3A0      #005=KNT$RLS_CHAIN File=KNT$MISC.:E05TSI                           WED 07/30/97 01:10 Page:118
      812        1        /*M* KNT$RLS_CHAIN - Release the send and receive chains.     */
      813        2        /*T***********************************************************/
      814        3        /*T*                                                         */
      815        4        /*T* Copyright (c) Bull HN Information Systems Inc., 1997    */
      816        5        /*T*                                                         */
      817        6        /*T***********************************************************/
      818        7        /*X* PLM=3,IND=5,ENU=0,ECU=0  */
      819        8
      820        9        /*F* NAME: KNT$RLS_CHAIN
      821       10             PURPOSE:
      822       11                  The send and receive chains for a peer pair are released.
      823       12
      824       13             DESCRIPTION:
      825       14                  Start at the head of each chain and go to the end.
      826       15
      827       16        */
      828       17        KNT$RLS_CHAIN: PROC(KN$TCTX);
      829       18
      830       19        %INCLUDE K_ADDRESS_M;
      831      522        %INCLUDE KN_DATA_M;
      832     2308        %INCLUDE K_TRANSPORT_E;
      833     2633        %INCLUDE K_TRANSPORT_M;
      834     4417        %INCLUDE GH_SCHD_M;
      835     4561
      836     4562        %K$TCTX (NAME=KN$TCTX,STCLASS="");
      837     5469
      838     5470    1   DCL PTR$$(0:3) PTR;
      839     5471    1   DCL PTR$ PTR;
      840     5472    1   DCL PTR2$ PTR;
      841     5473    1   DCL ITEMP SBIN;
      842     5474    1   DCL BUFS_RLSD UBIN;
      843     5475
      844     5476        %K$FRAG_HDR (NAME=FRAG_HDR);
      845     5559
      846     5560    1   DCL KNT$RELBUF ENTRY(2);
      847     5561    1   DCL KNT$UNQ_BUFFER ENTRY;
      848     5562
PL6.E3A0      #005=KNT$RLS_CHAIN File=KNT$MISC.:E05TSI                           WED 07/30/97 01:10 Page:119
      849     5563    1   DCL KNT_WAIT_COUNT UBIN SYMREF;
      850     5564
      851     5565        %EJECT
      852     5566    1      BUFS_RLSD = 0;
      853     5567
      854     5568    1      PTR$$(0) = KN$TCTX.SEND_EHEAD$;
      855     5569    1      PTR$$(1) = KN$TCTX.SEND_HEAD$;
      856     5570    1      PTR$$(2) = KN$TCTX.RECV_EHEAD$;
      857     5571    1      PTR$$(3) = KN$TCTX.RECV_HEAD$;
      858     5572
      859     5573    2      DO ITEMP = 0 TO 3;
      860     5574    2           PTR$ = PTR$$(ITEMP);
      861     5575    3           DO WHILE ( PTR$ ~= ADDR(NIL) );
      862     5576    3                PTR2$ = PTR$->FRAG_HDR.LINK$;
      863     5577    3                CALL KNT$RELBUF(PTR$->FRAG_HDR,KN$TCTX);
      864     5578    3                BUFS_RLSD = BUFS_RLSD +1;
      865     5579    3                PTR$ = PTR2$;
      866     5580    3                END/*do while*/;
      867     5581    2           END/*0 to 3*/;
      868     5582
      869     5583    1      KN$TCTX.SEND_HEAD$ = ADDR(NIL);
      870     5584    1      KN$TCTX.SEND_TAIL$ = ADDR(NIL);
      871     5585    1      KN$TCTX.SEND_NOTSENT$ = ADDR(NIL);
      872     5586
      873     5587    1      KN$TCTX.SEND_EHEAD$ = ADDR(NIL);
      874     5588    1      KN$TCTX.SEND_ETAIL$ = ADDR(NIL);
      875     5589    1      KN$TCTX.SEND_ENOTSENT$ = ADDR(NIL);
      876     5590
      877     5591    1      KN$TCTX.RECV_HEAD$ = ADDR(NIL);
      878     5592    1      KN$TCTX.RECV_EHEAD$ = ADDR(NIL);
      879     5593
      880     5594    1      IF (BUFS_RLSD > 0) AND (KNT_WAIT_COUNT > 0)
      881     5595    1      THEN CALL KNT$UNQ_BUFFER;
      882     5596
      883     5597    1      RETURN;
      884     5598
      885     5599    1   END KNT$RLS_CHAIN;
PL6.E3A0      #005=KNT$RLS_CHAIN File=KNT$MISC.:E05TSI                           WED 07/30/97 01:10 Page:120
      886     5600        %EOD;

PL6.E3A0      #005=KNT$RLS_CHAIN File=KNT$MISC.:E05TSI                           WED 07/30/97 01:10 Page:121
--  Include file information  --

   GH_SCHD_M.:E05TOU  is referenced.
   K_TRANSPORT_M.:E05TOU  is referenced.
   K_TRANSPORT_E.:E05TOU  is referenced.
   KN_DATA_M.:E05TOU  is referenced.
   K_ADDRESS_M.:E05TOU  is referenced.
   G_LCP6_E.:E05TOU  was found in the system file and is never referenced.
   GT_LCP6_M.:E05TOU  was found in the system file and is never referenced.
   KI_CP6.:E05TOU  was found in the system file and is never referenced.
   GF_LCP6_M.:E05TOU  was found in the system file and is never referenced.
   GM_LCP6_M.:E05TOU  was found in the system file and is never referenced.
   GU_LCP6_M.:E05TOU  was found in the system file and is never referenced.
   GJ_LCP6_M.:E05TOU  was found in the system file and is never referenced.
   GH_LCP6_M.:E05TOU  was found in the system file and is never referenced.
      No diagnostics issued in procedure KNT$RLS_CHAIN.

   Procedure KNT$RLS_CHAIN requires 130 words for executable code.
   Procedure KNT$RLS_CHAIN requires 24 words of local(AUTO) storage.

PL6.E3A0      #005=KNT$RLS_CHAIN File=KNT$MISC.:E05TSI                           WED 07/30/97 01:10 Page:122

 Object Unit name= KNT$RLS_CHAIN                              File name= KNT$MISC.:E05TOU
 UTS= JUL 30 '97 01:10:25.12 WED                              Compiler= PL-6/E31         Sev=      00
 SharedLib= :SHARED_LCP6_SYSTEM                               Alt SharedLib=


    ****  Control sections  ****

 Sect   Type Bound  Init  Size HexSiz  Section name
    0   Proc  even  none   130     82  KNT$RLS_CHAIN

    ****  Entry defs  ****

                              Check   Calling
                             calling  sequence
  Sect HexLoc Primary Altret sequence   type   Parms  Name
     0      0   yes            yes      Std        1  KNT$RLS_CHAIN

  ****  Entry refs  ****

         Check        Calling
        calling       sequence
Altret sequence SRef   type   Args  Name
         yes           Std       2 KNT$RELBUF
         yes           Std       0 KNT$UNQ_BUFFER
                       nStd      0 X6A_AUTO_1
                       nStd      0 X6A_ARET

  ****  Data refs  ****

  Flags:  r = read only, s = secondary
Flgs Name                             Flgs Name                             Flgs Name
     KNT_WAIT_COUNT                   r    G$ROS$
PL6.E3A0      #005=KNT$RLS_CHAIN File=KNT$MISC.:E05TSI                           WED 07/30/97 01:10 Page:123


      812        1        /*M* KNT$RLS_CHAIN - Release the send and receive chains.     */
      813        2        /*T***********************************************************/
      814        3        /*T*                                                         */
      815        4        /*T* Copyright (c) Bull HN Information Systems Inc., 1997    */
      816        5        /*T*                                                         */
      817        6        /*T***********************************************************/
      818        7        /*X* PLM=3,IND=5,ENU=0,ECU=0  */
      819        8
      820        9        /*F* NAME: KNT$RLS_CHAIN
      821       10             PURPOSE:
      822       11                  The send and receive chains for a peer pair are released.
      823       12
      824       13             DESCRIPTION:
      825       14                  Start at the head of each chain and go to the end.
      826       15
      827       16        */
      828       17        KNT$RLS_CHAIN: PROC(KN$TCTX);

     17   0 000000  D380 0000 0000  xent KNT$RLS_CHAIN   LNJ,B5   X6A_AUTO_1
          0 000003       0018 0001                       DC       24,1

      829       18
      830       19        %INCLUDE K_ADDRESS_M;
      831      522        %INCLUDE KN_DATA_M;
      832     2308        %INCLUDE K_TRANSPORT_E;
      833     2633        %INCLUDE K_TRANSPORT_M;
      834     4417        %INCLUDE GH_SCHD_M;
      835     4561
      836     4562        %K$TCTX (NAME=KN$TCTX,STCLASS="");
      837     5469
      838     5470    1   DCL PTR$$(0:3) PTR;
      839     5471    1   DCL PTR$ PTR;
      840     5472    1   DCL PTR2$ PTR;
      841     5473    1   DCL ITEMP SBIN;
      842     5474    1   DCL BUFS_RLSD UBIN;
      843     5475
PL6.E3A0      #005=KNT$RLS_CHAIN File=KNT$MISC.:E05TSI                           WED 07/30/97 01:10 Page:124
      844     5476        %K$FRAG_HDR (NAME=FRAG_HDR);
      845     5559
      846     5560    1   DCL KNT$RELBUF ENTRY(2);
      847     5561    1   DCL KNT$UNQ_BUFFER ENTRY;
      848     5562
      849     5563    1   DCL KNT_WAIT_COUNT UBIN SYMREF;
      850     5564
      851     5565        %EJECT
      852     5566    1      BUFS_RLSD = 0;

   5566   0 000005  8747 0013                            CL       BUFS_RLSD,AUTO

      853     5567
      854     5568    1      PTR$$(0) = KN$TCTX.SEND_EHEAD$;

   5568   0 000007  ECC7 0004                            LDB,B6   @KN$TCTX,AUTO
          0 000009  DCC6 0040                            LDB,B5   64,B6
          0 00000B  DFC7 0006                            STB,B5   PTR$$,AUTO

      855     5569    1      PTR$$(1) = KN$TCTX.SEND_HEAD$;

   5569   0 00000D  CCC6 003A                            LDB,B4   58,B6
          0 00000F  CFC7 0008                            STB,B4   PTR$$+2,AUTO

      856     5570    1      PTR$$(2) = KN$TCTX.RECV_EHEAD$;

   5570   0 000011  BCC6 002C                            LDB,B3   44,B6
          0 000013  BFC7 000A                            STB,B3   PTR$$+4,AUTO

      857     5571    1      PTR$$(3) = KN$TCTX.RECV_HEAD$;

   5571   0 000015  ACC6 002A                            LDB,B2   42,B6
          0 000017  AFC7 000C                            STB,B2   PTR$$+6,AUTO

      858     5572
      859     5573    2      DO ITEMP = 0 TO 3;

PL6.E3A0      #005=KNT$RLS_CHAIN File=KNT$MISC.:E05TSI                           WED 07/30/97 01:10 Page:125
   5573   0 000019  8747 0012                            CL       ITEMP,AUTO

      860     5574    2           PTR$ = PTR$$(ITEMP);

   5574   0 00001B  B847 0012                            LDR,R3   ITEMP,AUTO
          0 00001D  3E03                                 ADV,R3   3
          0 00001E  ECB7                                 LDB,B6   ,AUTO,R3
          0 00001F  EFC7 000E                            STB,B6   PTR$,AUTO

      861     5575    3           DO WHILE ( PTR$ ~= ADDR(NIL) );

   5575   0 000021  0F81 001B                            B        s:5580,PREL

      862     5576    3                PTR2$ = PTR$->FRAG_HDR.LINK$;

   5576   0 000023  ECC7 000E                            LDB,B6   PTR$,AUTO
          0 000025  DCC6 0004                            LDB,B5   4,B6
          0 000027  DFC7 0010                            STB,B5   PTR2$,AUTO

      863     5577    3                CALL KNT$RELBUF(PTR$->FRAG_HDR,KN$TCTX);

   5577   0 000029  CCC7 0004                            LDB,B4   @KN$TCTX,AUTO
          0 00002B  CFC7 0016                            STB,B4   BUFS_RLSD+3,AUTO
          0 00002D  EFC7 0014                            STB,B6   BUFS_RLSD+1,AUTO
          0 00002F  BBC7 0014                            LAB,B3   BUFS_RLSD+1,AUTO
          0 000031  CBF0 0200                            LAB,B4   512,IMO
          0 000033  E380 0000 0000  xent                 LNJ,B6   KNT$RELBUF
          0 000036       0001                            DC       s:5578,PREL

      864     5578    3                BUFS_RLSD = BUFS_RLSD +1;

   5578   0 000037  8AC7 0013                            INC      BUFS_RLSD,AUTO

      865     5579    3                PTR$ = PTR2$;

   5579   0 000039  ECC7 0010                            LDB,B6   PTR2$,AUTO
          0 00003B  EFC7 000E                            STB,B6   PTR$,AUTO
PL6.E3A0      #005=KNT$RLS_CHAIN File=KNT$MISC.:E05TSI                           WED 07/30/97 01:10 Page:126

      866     5580    3                END/*do while*/;

   5580   0 00003D  8DC7 000E                            CMN      PTR$,AUTO
          0 00003F  09E4                                 BNE      s:5576,SPREL

      867     5581    2           END/*0 to 3*/;

   5581   0 000040  8AC7 0012                            INC      ITEMP,AUTO
          0 000042  E847 0012                            LDR,R6   ITEMP,AUTO
          0 000044  6D03                                 CMV,R6   3
          0 000045  0AD6                                 BALE     s:5574,SPREL

      868     5582
      869     5583    1      KN$TCTX.SEND_HEAD$ = ADDR(NIL);

   5583   0 000046  DB80 0000 0000                       LAB,B5   0
          0 000049  CCC7 0004                            LDB,B4   @KN$TCTX,AUTO
          0 00004B  DFC4 003A                            STB,B5   58,B4

      870     5584    1      KN$TCTX.SEND_TAIL$ = ADDR(NIL);

   5584   0 00004D  BB80 0000 0000                       LAB,B3   0
          0 000050  BFC4 003C                            STB,B3   60,B4

      871     5585    1      KN$TCTX.SEND_NOTSENT$ = ADDR(NIL);

   5585   0 000052  AB80 0000 0000                       LAB,B2   0
          0 000055  AFC4 003E                            STB,B2   62,B4

      872     5586
      873     5587    1      KN$TCTX.SEND_EHEAD$ = ADDR(NIL);

   5587   0 000057  9B80 0000 0000                       LAB,B1   0
          0 00005A  9FC4 0040                            STB,B1   64,B4

      874     5588    1      KN$TCTX.SEND_ETAIL$ = ADDR(NIL);
PL6.E3A0      #005=KNT$RLS_CHAIN File=KNT$MISC.:E05TSI                           WED 07/30/97 01:10 Page:127

   5588   0 00005C  EB80 0000 0000                       LAB,B6   0
          0 00005F  EFC4 0042                            STB,B6   66,B4

      875     5589    1      KN$TCTX.SEND_ENOTSENT$ = ADDR(NIL);

   5589   0 000061  EB80 0000 0000                       LAB,B6   0
          0 000064  EFC4 0044                            STB,B6   68,B4

      876     5590
      877     5591    1      KN$TCTX.RECV_HEAD$ = ADDR(NIL);

   5591   0 000066  EB80 0000 0000                       LAB,B6   0
          0 000069  EFC4 002A                            STB,B6   42,B4

      878     5592    1      KN$TCTX.RECV_EHEAD$ = ADDR(NIL);

   5592   0 00006B  EB80 0000 0000                       LAB,B6   0
          0 00006E  EFC4 002C                            STB,B6   44,B4

      879     5593
      880     5594    1      IF (BUFS_RLSD > 0) AND (KNT_WAIT_COUNT > 0)

   5594   0 000070  D847 0013                            LDR,R5   BUFS_RLSD,AUTO
          0 000072  5901 000C                            BEZ,R5   s:5597,PREL
          0 000074  C800 0000 0000  xsym                 LDR,R4   KNT_WAIT_COUNT
          0 000077  4901 0007                            BEZ,R4   s:5597,PREL

      881     5595    1      THEN CALL KNT$UNQ_BUFFER;

   5595   0 000079  CBF0 0000                            LAB,B4   0,IMO
          0 00007B  E380 0000 0000  xent                 LNJ,B6   KNT$UNQ_BUFFER
          0 00007E       0001                            DC       s:5597,PREL

      882     5596
      883     5597    1      RETURN;

PL6.E3A0      #005=KNT$RLS_CHAIN File=KNT$MISC.:E05TSI                           WED 07/30/97 01:10 Page:128
   5597   0 00007F  C380 0000 0000  xent                 LNJ,B4   X6A_ARET
      884     5598
      885     5599    1   END KNT$RLS_CHAIN;
      886     5600        %EOD;

PL6.E3A0      #005=KNT$RLS_CHAIN File=KNT$MISC.:E05TSI                           WED 07/30/97 01:10 Page:129
--  Include file information  --

   GH_SCHD_M.:E05TOU  is referenced.
   K_TRANSPORT_M.:E05TOU  is referenced.
   K_TRANSPORT_E.:E05TOU  is referenced.
   KN_DATA_M.:E05TOU  is referenced.
   K_ADDRESS_M.:E05TOU  is referenced.
   G_LCP6_E.:E05TOU  was found in the system file and is never referenced.
   GT_LCP6_M.:E05TOU  was found in the system file and is never referenced.
   KI_CP6.:E05TOU  was found in the system file and is never referenced.
   GF_LCP6_M.:E05TOU  was found in the system file and is never referenced.
   GM_LCP6_M.:E05TOU  was found in the system file and is never referenced.
   GU_LCP6_M.:E05TOU  was found in the system file and is never referenced.
   GJ_LCP6_M.:E05TOU  was found in the system file and is never referenced.
   GH_LCP6_M.:E05TOU  was found in the system file and is never referenced.
      No diagnostics issued in procedure KNT$RLS_CHAIN.
PL6.E3A0      #005=KNT$RLS_CHAIN File=KNT$MISC.:E05TSI                           WED 07/30/97 01:10 Page:130

 **** Variables and constants ****

  ****  Auto variables  ****

  ****  Scalars and arrays  ****
HexLoc.c.b A Datatyp(siz) R M Lvl/name                 HexLoc.c.b A Datatyp(siz) R M Lvl/name

     4-0-0/w PTR         r     1 @KN$TCTX                  13-0-0/w UBIN(16)    r     1 BUFS_RLSD
    12-0-0/w SBIN(16)    r     1 ITEMP                     *0-0-0/w STRC(2816)  r     1 KN$TCTX
     E-0-0/w PTR         r     1 PTR$                       6-0-0/w PTR         r     1 PTR$$(0:3)
    10-0-0/w PTR         r     1 PTR2$

  ****  SYMREF variables  ****

  ****  Scalars and arrays  ****
HexLoc.c.b A Datatyp(siz) R M Lvl/name                 HexLoc.c.b A Datatyp(siz) R M Lvl/name

     0-0-0/w UBIN(16)    r     1 KNT_WAIT_COUNT

  ****  BASED and DCB variables  ****

  ****  Scalars and arrays  ****
HexLoc.c.b A Datatyp(siz) R M Lvl/name                 HexLoc.c.b A Datatyp(siz) R M Lvl/name

     0-0-0/w STRC(128)   r     1 FRAG_HDR


   Procedure KNT$RLS_CHAIN requires 130 words for executable code.
   Procedure KNT$RLS_CHAIN requires 24 words of local(AUTO) storage.
PL6.E3A0      #005=KNT$RLS_CHAIN File=KNT$MISC.:E05TSI                           WED 07/30/97 01:10 Page:131
          *** CROSS REFERENCE LISTING ***
**     DENOTES     IDENTIFIER DEFINITION
<<                 IDENTIFIER'S VALUE SET
>>                 IDENTIFIER'S VALUE USED
<>                 IDENTIFIER SET AND/OR USED
--                 IDENTIFIER REFERENCED
PL6.E3A0      #005=KNT$RLS_CHAIN File=KNT$MISC.:E05TSI                           WED 07/30/97 01:10 Page:132
          MINI XREF LISTING

BUFS_RLSD
      5474**DCL      5566<<ASSIGN   5578<<ASSIGN   5578>>ASSIGN   5594>>IF
FRAG_HDR
      5493**DCL      5577<>CALL
FRAG_HDR.LINK$
      5518**DCL      5576>>ASSIGN
FRAG_HDR.SEQ
      5506**DCL      5507--REDEF
ITEMP
      5473**DCL      5573<<DOINDEX  5574>>ASSIGN
KN$TCTX
      4567**DCL        17--PROC     5577<>CALL
KN$TCTX.DST_NSAP.ADDRESS_N
      5452**DCL      5453--REDEF
KN$TCTX.NODE
      4574**DCL      4587--REDEF
KN$TCTX.RECV_EHEAD$
      4984**DCL      5570>>ASSIGN   5592<<ASSIGN
KN$TCTX.RECV_HEAD$
      4973**DCL      5571>>ASSIGN   5591<<ASSIGN
KN$TCTX.SEND_EHEAD$
      5053**DCL      5568>>ASSIGN   5587<<ASSIGN
KN$TCTX.SEND_ENOTSENT$
      5066**DCL      5589<<ASSIGN
KN$TCTX.SEND_ETAIL$
      5060**DCL      5588<<ASSIGN
KN$TCTX.SEND_HEAD$
      5028**DCL      5569>>ASSIGN   5583<<ASSIGN
KN$TCTX.SEND_NOTSENT$
      5045**DCL      5585<<ASSIGN
KN$TCTX.SEND_TAIL$
      5036**DCL      5584<<ASSIGN
PL6.E3A0      #005=KNT$RLS_CHAIN File=KNT$MISC.:E05TSI                           WED 07/30/97 01:10 Page:133
KN$TCTX.SRC_NSAP.ADDRESS_N
      5388**DCL      5389--REDEF
KN$TCTX.TMR_INACTIVITY.ARG
      5208**DCL      5209--REDEF
KN$TCTX.TMR_REFERENCE.ARG
      5238**DCL      5239--REDEF
KN$TCTX.TMR_RETRAN.ARG
      5149**DCL      5150--REDEF
KN$TCTX.TMR_WINDOW.ARG
      5178**DCL      5179--REDEF
KNT$RELBUF
      5560**DCL-ENT  5577--CALL
KNT$UNQ_BUFFER
      5561**DCL-ENT  5595--CALL
KNT_WAIT_COUNT
      5563**DCL      5594>>IF
PTR$
      5471**DCL      5574<<ASSIGN   5575>>DOWHILE  5576>>ASSIGN   5577>>CALL     5579<<ASSIGN
PTR$$
      5470**DCL      5568<<ASSIGN   5569<<ASSIGN   5570<<ASSIGN   5571<<ASSIGN   5574>>ASSIGN
PTR2$
      5472**DCL      5576<<ASSIGN   5579>>ASSIGN

PL6.E3A0      #006=KNT$RETRANS File=KNT$MISC.:E05TSI                             WED 07/30/97 01:10 Page:134
      887        1        /*M* KNT$RETRANS - Retransmit a segment to the peer. */
      888        2        /*T***********************************************************/
      889        3        /*T*                                                         */
      890        4        /*T* Copyright (c) Bull HN Information Systems Inc., 1997    */
      891        5        /*T*                                                         */
      892        6        /*T***********************************************************/
      893        7        /*X* PLM=3,IND=5,ENU=0,ECU=0  */
      894        8
      895        9        /*F* NAME: KNT$RETRANS
      896       10
      897       11        The KNT$RETRANS routine is used to retransmit a segment to the peer.
      898       12        This routine is called by:
      899       13          - KNT$TTIMER when the RETRAN Timer has expired
      900       14          - KNT$RECV when a TPDU_CR is received and the state is AKWAIT
      901       15          - KNT$RECV when a TPDU_AK is received that reduces the upper window edge
      902       16
      903       17        The retransmission timer is maintained on a per transport connection
      904       18        basis.  The timer is started whenever a TPDU requiring acknowledgement
      905       19        is transmitted and restarted whenever it receives an acknowledgement.
      906       20        The timer is stopped when an acknowledgement is received for the last
      907       21        TPDU that required acknowledgement.
      908       22
      909       23        When the retransmission timer expires, the first expediated data
      910       24        TPDU awaiting acknowledgement is retransmitted, if any.
      911       25        Otherwise some number of normal data TPDUs will be retransmitted.
      912       26        If entered from KNT$TTIMER, the number of TPDUs to be retransmitted
      913       27        is determined by the value of KNT_RETRAN_TPDU#.
      914       28        If entered because of a reduced send upper window edge, those tpdus
      915       29        between the current lower window edge and the new upper window edge
      916       30        will be retransmitted.
      917       31
      918       32        See ISO Specification 8073, 12.2.1.2 j.
      919       33        */
      920       34        KNT$RETRANS: PROC(KN$NETPARM) ALTRET;
      921       35
      922       36        %INCLUDE K_ADDRESS_M;
      923      539        %INCLUDE KN_DATA_M;
PL6.E3A0      #006=KNT$RETRANS File=KNT$MISC.:E05TSI                             WED 07/30/97 01:10 Page:135
      924     2325        %INCLUDE KNH_MACRO_C;                   /* get CP-6 function code             */
      925     2608        %INCLUDE K_INTERFACE_M;
      926     3017        %INCLUDE K_TRANSPORT_E;
      927     3342        %INCLUDE K_TRANSPORT_M;
      928     5126        %INCLUDE GH_SCHD_M;
      929     5270        %INCLUDE GH_GATE_M;
      930     5311
      931     5312                                                /* Input parameters                   */
      932     5313        %KN$NETPARM;
      933     5466
      934     5467                                                /* Auto Storage                       */
      935     5468
      936     5469    1   DCL CTX$ PTR;
      937     5470    1   DCL DATA$ CPTR;
      938     5471    1   DCL DATASIZE SBIN;
      939     5472    1   DCL HPTR$ PTR;
      940     5473    1   DCL RETRAN# UBIN;
      941     5474    1   DCL RETRAN_MAX UBIN;
      942     5475
      943     5476                                                /* Based Data                         */
      944     5477        %K$TCTX (NAME=KN$TCTX,STCLASS="BASED(CTX$)");
      945     6384    1   DCL KN$LDCT$(0:0) PTR BASED(KN_DCT$$);
      946     6385
      947     6386        %K$FRAG_HDR (NAME=FRAG_HDR);
      948     6469
      949     6470                                                /* External Data                      */
      950     6471    1   DCL KN_DCT$$ PTR SYMREF;
      951     6472    1   DCL KNT_RETRAN_TPDU# UBIN SYMREF;
      952     6473    1   DCL KNT_SCODE UBIN(32) SYMREF;
      953     6474        %GATE (FPTN=KNT_LOCK,STCLASS="STATIC SYMDEF");
      954     6493
      955     6494                                                /* External Procedures                */
      956     6495    1   DCL KNN$SEND ENTRY(1) ALTRET;
      957     6496    1   DCL KNH$SEND ENTRY(1) ALTRET;
      958     6497    1   DCL KNT$TR_RETRN ENTRY(1);
      959     6498    1   DCL SCREECH ENTRY(1);
      960     6499
PL6.E3A0      #006=KNT$RETRANS File=KNT$MISC.:E05TSI                             WED 07/30/97 01:10 Page:136
      961     6500        %EJECT;
PL6.E3A0      #006=KNT$RETRANS File=KNT$MISC.:E05TSI                             WED 07/30/97 01:10 Page:137
      962     6501    1      CTX$ = KN$NETPARM.TCTX$;
      963     6502    1      RETRAN_MAX = KNT_RETRAN_TPDU#;
      964     6503    1      GOTO COMMON;
      965     6504
      966     6505    1   KNT$RETRANS_LOST: ENTRY(KN$NETPARM) ALTRET;
      967     6506    1      CTX$ = KN$NETPARM.TCTX$;
      968     6507
      969     6508    1      IF KN$TCTX.SEND_UWE > KN$TCTX.SEND_LWE
      970     6509    1      THEN RETRAN_MAX = KN$TCTX.SEND_UWE - KN$TCTX.SEND_LWE;
      971     6510    1      ELSE RETRAN_MAX = KN$TCTX.MAXSEQ - KN$TCTX.SEND_LWE + KN$TCTX.SEND_UWE;
      972     6511
      973     6512    1      KN$NETPARM.MSGSZ = 0;
      974     6513    1      KN$NETPARM.UHDRSZ = 0;
      975     6514    1      KN$NETPARM.SHDRSZ = 0;
      976     6515
      977     6516    1   COMMON: ;
      978     6517           %LOCK (G=KNT_LOCK);
      979     6524
      980     6525        /* Figure out which fragment to retransmit, if any.
      981     6526        */
      982     6527    1      IF (KN$TCTX.SEND_EHEAD$ ~= ADDR(NIL) )
      983     6528    1      THEN HPTR$ = KN$TCTX.SEND_EHEAD$;
      984     6529    1      ELSE IF ( KN$TCTX.SEND_HEAD$ = KN$TCTX.SEND_NOTSENT$ )
      985     6530    1           THEN GOTO UNLOCK_N_RETURN;
      986     6531    1           ELSE HPTR$ = KN$TCTX.SEND_HEAD$;
      987     6532
      988     6533    1      IF HPTR$ = ADDR(NIL)
      989     6534    1      THEN GOTO UNLOCK_N_RETURN;
      990     6535
      991     6536    1      RETRAN# = 0;
      992     6537
      993     6538    1   RETRAN: ;
      994     6539    1      KN$NETPARM.THDR$ = PINCRW(HPTR$,SIZEW(FRAG_HDR));
      995     6540    1      KN$NETPARM.THDRSZ = HPTR$->FRAG_HDR.DATA_BSIZE;
      996     6541    1      KN$NETPARM.NODE = KN$TCTX.NODE;
      997     6542
      998     6543    1      IF KN$TCTX.OPTION.OSI
PL6.E3A0      #006=KNT$RETRANS File=KNT$MISC.:E05TSI                             WED 07/30/97 01:10 Page:138
      999     6544    2      THEN DO;
     1000     6545    2           KN$NETPARM.FUNCTION = %K_NDATA;
     1001     6546    2           KN$NETPARM.SRC_ADDR$ = ADDR(KN$TCTX.SRC_NSAP);
     1002     6547    2           KN$NETPARM.DST_ADDR$ = ADDR(KN$TCTX.DST_NSAP);
     1003     6548    2           END;
     1004     6549    1      ELSE KN$NETPARM.FUNCTION = %KN_FCN_DATA;
     1005     6550
     1006     6551    1      IF KN$TCTX.OPTION.CONS
     1007     6552    2      THEN DO;
     1008     6553    2           KN$NETPARM.LDCT$ = KN$LDCT$(KN$TCTX.LDCTX#);
     1009     6554    2           CALL KNH$SEND(KN$NETPARM) ALTRET(SET_ERR);
     1010     6555    2           END;
     1011     6556
     1012     6557    2      ELSE DO;
     1013     6558    2           CALL KNN$SEND(KN$NETPARM)
     1014     6559    3           WHENALTRETURN DO;
     1015     6560    3   SET_ERR:
     1016     6561    3                KN$TCTX.SERR.NOQ = KN$TCTX.SERR.NOQ +1;
     1017     6562    3                KN$NETPARM.ERRCODE = 0;
     1018     6563                     %UNLOCK (G=KNT_LOCK);
     1019     6570    3                ALTRETURN;
     1020     6571    3                END;
     1021     6572    2           END/*do if not cons*/;
     1022     6573
     1023     6574    1      IF KN$TCTX.OPTION.TRACE THEN CALL KNT$TR_RETRN(KN$NETPARM);
     1024     6575
     1025     6576    1      KN$TCTX.SERR.RETRAN = KN$TCTX.SERR.RETRAN +1;
     1026     6577
     1027     6578    1      RETRAN# = RETRAN# +1;
     1028     6579    1      IF RETRAN# = RETRAN_MAX THEN GOTO UNLOCK_N_RETURN;
     1029     6580
     1030     6581    1      IF HPTR$ = KN$TCTX.SEND_EHEAD$ THEN GOTO UNLOCK_N_RETURN;
     1031     6582
     1032     6583    1      HPTR$ = HPTR$->FRAG_HDR.LINK$;
     1033     6584
     1034     6585    1      IF HPTR$ = ADDR(NIL) THEN GOTO UNLOCK_N_RETURN;
     1035     6586
PL6.E3A0      #006=KNT$RETRANS File=KNT$MISC.:E05TSI                             WED 07/30/97 01:10 Page:139
     1036     6587    1      IF HPTR$->FRAG_HDR.SEQ >= KN$TCTX.SEND_UWE
     1037     6588    1      THEN GOTO UNLOCK_N_RETURN;
     1038     6589
     1039     6590    1      IF HPTR$ ~= KN$TCTX.SEND_NOTSENT$
     1040     6591    1      THEN GOTO RETRAN;
     1041     6592
     1042     6593    1   UNLOCK_N_RETURN:
     1043     6594           %UNLOCK (G=KNT_LOCK);
     1044     6601    1      RETURN;
     1045     6602
     1046     6603    1   END KNT$RETRANS;
     1047     6604        %EOD;

PL6.E3A0      #006=KNT$RETRANS File=KNT$MISC.:E05TSI                             WED 07/30/97 01:10 Page:140
--  Include file information  --

   GH_GATE_M.:E05TOU  cannot be made into a system file and is referenced.
   GH_SCHD_M.:E05TOU  is referenced.
   K_TRANSPORT_M.:E05TOU  is referenced.
   K_TRANSPORT_E.:E05TOU  is referenced.
   K_INTERFACE_M.:E05TOU  is referenced.
   KNH_MACRO_C.:E05TOU  is referenced.
   KN_DATA_M.:E05TOU  is referenced.
   K_ADDRESS_M.:E05TOU  is referenced.
   G_LCP6_E.:E05TOU  was found in the system file and is never referenced.
   GT_LCP6_M.:E05TOU  was found in the system file and is never referenced.
   KI_CP6.:E05TOU  was found in the system file and is never referenced.
   GF_LCP6_M.:E05TOU  was found in the system file and is never referenced.
   GM_LCP6_M.:E05TOU  was found in the system file and is never referenced.
   GU_LCP6_M.:E05TOU  was found in the system file and is never referenced.
   GJ_LCP6_M.:E05TOU  was found in the system file and is never referenced.
   GH_LCP6_M.:E05TOU  was found in the system file and is never referenced.
      No diagnostics issued in procedure KNT$RETRANS.

   Procedure KNT$RETRANS requires 254 words for executable code.
   Procedure KNT$RETRANS requires 16 words of local(AUTO) storage.

PL6.E3A0      #006=KNT$RETRANS File=KNT$MISC.:E05TSI                             WED 07/30/97 01:10 Page:141

 Object Unit name= KNT$RETRANS                                File name= KNT$MISC.:E05TOU
 UTS= JUL 30 '97 01:10:44.12 WED                              Compiler= PL-6/E31         Sev=      00
 SharedLib= :SHARED_LCP6_SYSTEM                               Alt SharedLib=


    ****  Control sections  ****

 Sect   Type Bound  Init  Size HexSiz  Section name
    0   Data  even  none     3      3  KNT$RETRANS
    1   Proc  even  none   254     FE  KNT$RETRANS
    2  RoData even  none     2      2  KNT$RETRANS

    ****  Entry defs  ****

                              Check   Calling
                             calling  sequence
  Sect HexLoc Primary Altret sequence   type   Parms  Name
     1      0   yes    yes     yes      Std        1  KNT$RETRANS
     1     12          yes     yes      Std        1  KNT$RETRANS_LOST

  ****  Data defs  ****

 Sect HexLoc  Name                           Sect HexLoc  Name
    0      0  KNT_LOCK
PL6.E3A0      #006=KNT$RETRANS File=KNT$MISC.:E05TSI                             WED 07/30/97 01:10 Page:142

  ****  Entry refs  ****

         Check        Calling
        calling       sequence
Altret sequence SRef   type   Args  Name
 yes     yes           Std       1 GHH$LOCK
 yes     yes           Std       1 KNH$SEND
 yes     yes           Std       1 GHH$UNLOCK
 yes     yes           Std       1 KNN$SEND
         yes           Std       1 KNT$TR_RETRN
                       nStd      0 X6A_AUTO_1
                       nStd      0 X6A_AALT
                       nStd      0 X6A_ARET

  ****  Data refs  ****

  Flags:  r = read only, s = secondary
Flgs Name                             Flgs Name                             Flgs Name
     KN_DCT$$                              KNT_RETRAN_TPDU#                 r    G$ROS$
PL6.E3A0      #006=KNT$RETRANS File=KNT$MISC.:E05TSI                             WED 07/30/97 01:10 Page:143


      887        1        /*M* KNT$RETRANS - Retransmit a segment to the peer. */
      888        2        /*T***********************************************************/
      889        3        /*T*                                                         */
      890        4        /*T* Copyright (c) Bull HN Information Systems Inc., 1997    */
      891        5        /*T*                                                         */
      892        6        /*T***********************************************************/
      893        7        /*X* PLM=3,IND=5,ENU=0,ECU=0  */
      894        8
      895        9        /*F* NAME: KNT$RETRANS
      896       10
      897       11        The KNT$RETRANS routine is used to retransmit a segment to the peer.
      898       12        This routine is called by:
      899       13          - KNT$TTIMER when the RETRAN Timer has expired
      900       14          - KNT$RECV when a TPDU_CR is received and the state is AKWAIT
      901       15          - KNT$RECV when a TPDU_AK is received that reduces the upper window edge
      902       16
      903       17        The retransmission timer is maintained on a per transport connection
      904       18        basis.  The timer is started whenever a TPDU requiring acknowledgement
      905       19        is transmitted and restarted whenever it receives an acknowledgement.
      906       20        The timer is stopped when an acknowledgement is received for the last
      907       21        TPDU that required acknowledgement.
      908       22
      909       23        When the retransmission timer expires, the first expediated data
      910       24        TPDU awaiting acknowledgement is retransmitted, if any.
      911       25        Otherwise some number of normal data TPDUs will be retransmitted.
      912       26        If entered from KNT$TTIMER, the number of TPDUs to be retransmitted
      913       27        is determined by the value of KNT_RETRAN_TPDU#.
      914       28        If entered because of a reduced send upper window edge, those tpdus
      915       29        between the current lower window edge and the new upper window edge
      916       30        will be retransmitted.
      917       31
      918       32        See ISO Specification 8073, 12.2.1.2 j.
      919       33        */
      920       34        KNT$RETRANS: PROC(KN$NETPARM) ALTRET;

     34   1 000000  D380 0000 0000  xent KNT$RETRANS     LNJ,B5   X6A_AUTO_1
PL6.E3A0      #006=KNT$RETRANS File=KNT$MISC.:E05TSI                             WED 07/30/97 01:10 Page:144
          1 000003       0010 0001                       DC       16,1

      921       35
      922       36        %INCLUDE K_ADDRESS_M;
      923      539        %INCLUDE KN_DATA_M;
      924     2325        %INCLUDE KNH_MACRO_C;                   /* get CP-6 function code             */
      925     2608        %INCLUDE K_INTERFACE_M;
      926     3017        %INCLUDE K_TRANSPORT_E;
      927     3342        %INCLUDE K_TRANSPORT_M;
      928     5126        %INCLUDE GH_SCHD_M;
      929     5270        %INCLUDE GH_GATE_M;
      930     5311
      931     5312                                                /* Input parameters                   */
      932     5313        %KN$NETPARM;
      933     5466
      934     5467                                                /* Auto Storage                       */
      935     5468
      936     5469    1   DCL CTX$ PTR;
      937     5470    1   DCL DATA$ CPTR;
      938     5471    1   DCL DATASIZE SBIN;
      939     5472    1   DCL HPTR$ PTR;
      940     5473    1   DCL RETRAN# UBIN;
      941     5474    1   DCL RETRAN_MAX UBIN;
      942     5475
      943     5476                                                /* Based Data                         */
      944     5477        %K$TCTX (NAME=KN$TCTX,STCLASS="BASED(CTX$)");
      945     6384    1   DCL KN$LDCT$(0:0) PTR BASED(KN_DCT$$);
      946     6385
      947     6386        %K$FRAG_HDR (NAME=FRAG_HDR);
      948     6469
      949     6470                                                /* External Data                      */
      950     6471    1   DCL KN_DCT$$ PTR SYMREF;
      951     6472    1   DCL KNT_RETRAN_TPDU# UBIN SYMREF;
      952     6473    1   DCL KNT_SCODE UBIN(32) SYMREF;
      953     6474        %GATE (FPTN=KNT_LOCK,STCLASS="STATIC SYMDEF");
      954     6493
      955     6494                                                /* External Procedures                */
PL6.E3A0      #006=KNT$RETRANS File=KNT$MISC.:E05TSI                             WED 07/30/97 01:10 Page:145
      956     6495    1   DCL KNN$SEND ENTRY(1) ALTRET;
      957     6496    1   DCL KNH$SEND ENTRY(1) ALTRET;
      958     6497    1   DCL KNT$TR_RETRN ENTRY(1);
      959     6498    1   DCL SCREECH ENTRY(1);
      960     6499
      961     6500        %EJECT;
PL6.E3A0      #006=KNT$RETRANS File=KNT$MISC.:E05TSI                             WED 07/30/97 01:10 Page:146
      962     6501    1      CTX$ = KN$NETPARM.TCTX$;

   6501   1 000005  ECC7 0004                            LDB,B6   @KN$NETPARM,AUTO
          1 000007  DCC6 001B                            LDB,B5   27,B6
          1 000009  DFC7 0006                            STB,B5   CTX$,AUTO

      963     6502    1      RETRAN_MAX = KNT_RETRAN_TPDU#;

   6502   1 00000B  E800 0000 0000  xsym                 LDR,R6   KNT_RETRAN_TPDU#
          1 00000E  EF47 000E                            STR,R6   RETRAN_MAX,AUTO

      964     6503    1      GOTO COMMON;

   6503   1 000010  0F81 002E                            B        s:6514,PREL

      965     6504
      966     6505    1   KNT$RETRANS_LOST: ENTRY(KN$NETPARM) ALTRET;

   6505   1 000012  D380 0000 0000  xent KNT$RETRANS_LOSTLNJ,B5   X6A_AUTO_1
          1 000015       0010 0001                       DC       16,1

      967     6506    1      CTX$ = KN$NETPARM.TCTX$;

   6506   1 000017  ECC7 0004                            LDB,B6   @KN$NETPARM,AUTO
          1 000019  DCC6 001B                            LDB,B5   27,B6
          1 00001B  DFC7 0006                            STB,B5   CTX$,AUTO

      968     6507
      969     6508    1      IF KN$TCTX.SEND_UWE > KN$TCTX.SEND_LWE

   6508   1 00001D  8CC5 0034                            LDI      52,B5
          1 00001F  84C5 0032                            SID      50,B5
          1 000021  0681 000E                            BCF      s:6510,PREL
          1 000023  6981 0003                            BNEZ,R6  s:6509,PREL
          1 000025  7901 000A                            BEZ,R7   s:6510,PREL

      970     6509    1      THEN RETRAN_MAX = KN$TCTX.SEND_UWE - KN$TCTX.SEND_LWE;
PL6.E3A0      #006=KNT$RETRANS File=KNT$MISC.:E05TSI                             WED 07/30/97 01:10 Page:147

   6509   1 000027  8CC5 0034                            LDI      52,B5
          1 000029  84C5 0032                            SID      50,B5
          1 00002B  E857                                 LDR,R6   R7
          1 00002C  EF47 000E                            STR,R6   RETRAN_MAX,AUTO
          1 00002E  0F81 000A                            B        s:6512,PREL

      971     6510    1      ELSE RETRAN_MAX = KN$TCTX.MAXSEQ - KN$TCTX.SEND_LWE + KN$TCTX.SEND_UWE;

   6510   1 000030  8CC5 000A                            LDI      10,B5
          1 000032  84C5 0032                            SID      50,B5
          1 000034  8445 0034                            AID      52,B5
          1 000036  E857                                 LDR,R6   R7
          1 000037  EF47 000E                            STR,R6   RETRAN_MAX,AUTO

      972     6511
      973     6512    1      KN$NETPARM.MSGSZ = 0;

   6512   1 000039  8746 0004                            CL       4,B6

      974     6513    1      KN$NETPARM.UHDRSZ = 0;

   6513   1 00003B  8746 0007                            CL       7,B6

      975     6514    1      KN$NETPARM.SHDRSZ = 0;

   6514   1 00003D  8746 000A                            CL       10,B6

   6514   1                              COMMON          null
      976     6515
      977     6516    1   COMMON: ;
      978     6517           %LOCK (G=KNT_LOCK);

   6522   1 00003F  BB80 0000 0000  02   COMMON          LAB,B3   0
          1 000042  CBF0 0100                            LAB,B4   256,IMO
          1 000044  E380 0000 0000  xent                 LNJ,B6   GHH$LOCK
          1 000047       0001                            DC       s:6527,PREL
PL6.E3A0      #006=KNT$RETRANS File=KNT$MISC.:E05TSI                             WED 07/30/97 01:10 Page:148

      979     6524
      980     6525        /* Figure out which fragment to retransmit, if any.
      981     6526        */
      982     6527    1      IF (KN$TCTX.SEND_EHEAD$ ~= ADDR(NIL) )

   6527   1 000048  ECC7 0006                            LDB,B6   CTX$,AUTO
          1 00004A  8DC6 0040                            CMN      64,B6
          1 00004C  0901 0007                            BE       s:6529,PREL

      983     6528    1      THEN HPTR$ = KN$TCTX.SEND_EHEAD$;

   6528   1 00004E  DCC6 0040                            LDB,B5   64,B6
          1 000050  DFC7 000B                            STB,B5   HPTR$,AUTO
          1 000052  0F81 0009                            B        s:6533,PREL

      984     6529    1      ELSE IF ( KN$TCTX.SEND_HEAD$ = KN$TCTX.SEND_NOTSENT$ )

   6529   1 000054  DCC6 003A                            LDB,B5   58,B6
          1 000056  DDC6 003E                            CMB,B5   62,B6
          1 000058  0901 0099                            BE       s:6599,PREL

      985     6530    1           THEN GOTO UNLOCK_N_RETURN;
      986     6531    1           ELSE HPTR$ = KN$TCTX.SEND_HEAD$;

   6531   1 00005A  DFC7 000B                            STB,B5   HPTR$,AUTO

      987     6532
      988     6533    1      IF HPTR$ = ADDR(NIL)

   6533   1 00005C  8DC7 000B                            CMN      HPTR$,AUTO
          1 00005E  0901 0093                            BE       s:6599,PREL

      989     6534    1      THEN GOTO UNLOCK_N_RETURN;
      990     6535
      991     6536    1      RETRAN# = 0;

PL6.E3A0      #006=KNT$RETRANS File=KNT$MISC.:E05TSI                             WED 07/30/97 01:10 Page:149
   6536   1 000060  8747 000D                            CL       RETRAN#,AUTO

   6536   1                              RETRAN          null
      992     6537
      993     6538    1   RETRAN: ;
      994     6539    1      KN$NETPARM.THDR$ = PINCRW(HPTR$,SIZEW(FRAG_HDR));

   6539   1 000062  ECC7 000B            RETRAN          LDB,B6   HPTR$,AUTO
          1 000064  DBC6 0008                            LAB,B5   8,B6
          1 000066  CCC7 0004                            LDB,B4   @KN$NETPARM,AUTO
          1 000068  DFC4 000B                            STB,B5   11,B4

      995     6540    1      KN$NETPARM.THDRSZ = HPTR$->FRAG_HDR.DATA_BSIZE;

   6540   1 00006A  E846 0001                            LDR,R6   1,B6
          1 00006C  EF44 000D                            STR,R6   13,B4

      996     6541    1      KN$NETPARM.NODE = KN$TCTX.NODE;

   6541   1 00006E  BCC7 0006                            LDB,B3   CTX$,AUTO
          1 000070  D803                                 LDR,R5   ,B3
          1 000071  D570 00FF                            AND,R5   255,IMO
          1 000073  DF44 0015                            STR,R5   21,B4

      997     6542
      998     6543    1      IF KN$TCTX.OPTION.OSI

   6543   1 000075  82C3 000C                            LB,'0010'X        12,B3
   6543   1 000077       0010
          1 000078  0581 000E                            BBF      s:6549,PREL

      999     6544    2      THEN DO;

     1000     6545    2           KN$NETPARM.FUNCTION = %K_NDATA;

   6545   1 00007A  4C21                                 LDV,R4   33
          1 00007B  CF44 0014                            STR,R4   20,B4
PL6.E3A0      #006=KNT$RETRANS File=KNT$MISC.:E05TSI                             WED 07/30/97 01:10 Page:150

     1001     6546    2           KN$NETPARM.SRC_ADDR$ = ADDR(KN$TCTX.SRC_NSAP);

   6546   1 00007D  ABC3 009A                            LAB,B2   154,B3
          1 00007F  AFC4 001D                            STB,B2   29,B4

     1002     6547    2           KN$NETPARM.DST_ADDR$ = ADDR(KN$TCTX.DST_NSAP);

   6547   1 000081  9BC3 00A5                            LAB,B1   165,B3
          1 000083  9FC4 001F                            STB,B1   31,B4

     1003     6548    2           END;

   6548   1 000085  0F81 0004                            B        s:6551,PREL

     1004     6549    1      ELSE KN$NETPARM.FUNCTION = %KN_FCN_DATA;

   6549   1 000087  4C05                                 LDV,R4   5
          1 000088  CF44 0014                            STR,R4   20,B4

     1005     6550
     1006     6551    1      IF KN$TCTX.OPTION.CONS

   6551   1 00008A  82C3 000C                            LB,'0020'X        12,B3
   6551   1 00008C       0020
          1 00008D  0581 0013                            BBF      s:6558,PREL

     1007     6552    2      THEN DO;

     1008     6553    2           KN$NETPARM.LDCT$ = KN$LDCT$(KN$TCTX.LDCTX#);

   6553   1 00008F  B803                                 LDR,R3   ,B3
          1 000090  B570 00FF                            AND,R3   255,IMO
          1 000092  AC80 0000 0000  xsym                 LDB,B2   KN_DCT$$
          1 000095  9CB2                                 LDB,B1   ,B2,R3
          1 000096  9F84                                 STB,B1   ,B4

PL6.E3A0      #006=KNT$RETRANS File=KNT$MISC.:E05TSI                             WED 07/30/97 01:10 Page:151
     1009     6554    2           CALL KNH$SEND(KN$NETPARM) ALTRET(SET_ERR);

   6554   1 000097  BBC7 0004                            LAB,B3   @KN$NETPARM,AUTO
          1 000099  CBF0 0100                            LAB,B4   256,IMO
          1 00009B  E380 0000 0000  xent                 LNJ,B6   KNH$SEND
          1 00009E       000D                            DC       s:6559,PREL

     1010     6555    2           END;

   6555   1 00009F  0F81 001F                            B        s:6574,PREL

     1011     6556
     1012     6557    2      ELSE DO;

     1013     6558    2           CALL KNN$SEND(KN$NETPARM)

   6558   1 0000A1  BBC7 0004                            LAB,B3   @KN$NETPARM,AUTO
          1 0000A3  CBF0 0100                            LAB,B4   256,IMO
          1 0000A5  E380 0000 0000  xent                 LNJ,B6   KNN$SEND
          1 0000A8       0003                            DC       s:6559,PREL
          1 0000A9  0F81 0015                            B        s:6574,PREL

     1014     6559    3           WHENALTRETURN DO;

     1015     6560    3   SET_ERR:
     1016     6561    3                KN$TCTX.SERR.NOQ = KN$TCTX.SERR.NOQ +1;

   6561   1 0000AB  ECC7 0006            SET_ERR         LDB,B6   CTX$,AUTO
          1 0000AD  8AC6 0013                            INC      19,B6

     1017     6562    3                KN$NETPARM.ERRCODE = 0;

   6562   1 0000AF  DCC7 0004                            LDB,B5   @KN$NETPARM,AUTO
          1 0000B1  8745 0016                            CL       22,B5

     1018     6563                     %UNLOCK (G=KNT_LOCK);

PL6.E3A0      #006=KNT$RETRANS File=KNT$MISC.:E05TSI                             WED 07/30/97 01:10 Page:152
   6568   1 0000B3  BB80 0000 0000  02                   LAB,B3   0
          1 0000B6  CBF0 0100                            LAB,B4   256,IMO
          1 0000B8  E380 0000 0000  xent                 LNJ,B6   GHH$UNLOCK
          1 0000BB       0001                            DC       s:6570,PREL

     1019     6570    3                ALTRETURN;

   6570   1 0000BC  C380 0000 0000  xent                 LNJ,B4   X6A_AALT

     1020     6571    3                END;
     1021     6572    2           END/*do if not cons*/;

     1022     6573
     1023     6574    1      IF KN$TCTX.OPTION.TRACE THEN CALL KNT$TR_RETRN(KN$NETPARM);

   6574   1 0000BF  ECC7 0006                            LDB,B6   CTX$,AUTO
          1 0000C1  82C6 000C                            LB,'0040'X        12,B6
          1 0000C3       0040
          1 0000C4  0581 0009                            BBF      s:6576,PREL

   6574   1 0000C6  BBC7 0004                            LAB,B3   @KN$NETPARM,AUTO
          1 0000C8  CBF0 0100                            LAB,B4   256,IMO
          1 0000CA  E380 0000 0000  xent                 LNJ,B6   KNT$TR_RETRN
          1 0000CD       0001                            DC       s:6576,PREL

     1024     6575
     1025     6576    1      KN$TCTX.SERR.RETRAN = KN$TCTX.SERR.RETRAN +1;

   6576   1 0000CE  ECC7 0006                            LDB,B6   CTX$,AUTO
          1 0000D0  8AC6 0014                            INC      20,B6

     1026     6577
     1027     6578    1      RETRAN# = RETRAN# +1;

   6578   1 0000D2  8AC7 000D                            INC      RETRAN#,AUTO

     1028     6579    1      IF RETRAN# = RETRAN_MAX THEN GOTO UNLOCK_N_RETURN;
PL6.E3A0      #006=KNT$RETRANS File=KNT$MISC.:E05TSI                             WED 07/30/97 01:10 Page:153

   6579   1 0000D4  E847 000D                            LDR,R6   RETRAN#,AUTO
          1 0000D6  E947 000E                            CMR,R6   RETRAN_MAX,AUTO
          1 0000D8  0901 0019                            BE       s:6599,PREL

     1029     6580
     1030     6581    1      IF HPTR$ = KN$TCTX.SEND_EHEAD$ THEN GOTO UNLOCK_N_RETURN;

   6581   1 0000DA  DCC7 000B                            LDB,B5   HPTR$,AUTO
          1 0000DC  DDC6 0040                            CMB,B5   64,B6
          1 0000DE  0901 0013                            BE       s:6599,PREL

     1031     6582
     1032     6583    1      HPTR$ = HPTR$->FRAG_HDR.LINK$;

   6583   1 0000E0  CCC5 0004                            LDB,B4   4,B5
          1 0000E2  CFC7 000B                            STB,B4   HPTR$,AUTO

     1033     6584
     1034     6585    1      IF HPTR$ = ADDR(NIL) THEN GOTO UNLOCK_N_RETURN;

   6585   1 0000E4  8DC7 000B                            CMN      HPTR$,AUTO
          1 0000E6  0901 000B                            BE       s:6599,PREL

     1035     6586
     1036     6587    1      IF HPTR$->FRAG_HDR.SEQ >= KN$TCTX.SEND_UWE

   6587   1 0000E8  8CC4 0002                            LDI      2,B4
          1 0000EA  84C6 0034                            SID      52,B6
          1 0000EC  0601 0005                            BCT      s:6599,PREL

     1037     6588    1      THEN GOTO UNLOCK_N_RETURN;
     1038     6589
     1039     6590    1      IF HPTR$ ~= KN$TCTX.SEND_NOTSENT$

   6590   1 0000EE  CDC6 003E                            CMB,B4   62,B6
          1 0000F0  0981 FF71                            BNE      s:6536,PREL
PL6.E3A0      #006=KNT$RETRANS File=KNT$MISC.:E05TSI                             WED 07/30/97 01:10 Page:154

     1040     6591    1      THEN GOTO RETRAN;
     1041     6592
     1042     6593    1   UNLOCK_N_RETURN:
     1043     6594           %UNLOCK (G=KNT_LOCK);

   6599   1 0000F2  BB80 0000 0000  02   UNLOCK_N_RETURN LAB,B3   0
          1 0000F5  CBF0 0100                            LAB,B4   256,IMO
          1 0000F7  E380 0000 0000  xent                 LNJ,B6   GHH$UNLOCK
          1 0000FA       0001                            DC       s:6601,PREL

     1044     6601    1      RETURN;

   6601   1 0000FB  C380 0000 0000  xent                 LNJ,B4   X6A_ARET
     1045     6602
     1046     6603    1   END KNT$RETRANS;
     1047     6604        %EOD;

PL6.E3A0      #006=KNT$RETRANS File=KNT$MISC.:E05TSI                             WED 07/30/97 01:10 Page:155
--  Include file information  --

   GH_GATE_M.:E05TOU  cannot be made into a system file and is referenced.
   GH_SCHD_M.:E05TOU  is referenced.
   K_TRANSPORT_M.:E05TOU  is referenced.
   K_TRANSPORT_E.:E05TOU  is referenced.
   K_INTERFACE_M.:E05TOU  is referenced.
   KNH_MACRO_C.:E05TOU  is referenced.
   KN_DATA_M.:E05TOU  is referenced.
   K_ADDRESS_M.:E05TOU  is referenced.
   G_LCP6_E.:E05TOU  was found in the system file and is never referenced.
   GT_LCP6_M.:E05TOU  was found in the system file and is never referenced.
   KI_CP6.:E05TOU  was found in the system file and is never referenced.
   GF_LCP6_M.:E05TOU  was found in the system file and is never referenced.
   GM_LCP6_M.:E05TOU  was found in the system file and is never referenced.
   GU_LCP6_M.:E05TOU  was found in the system file and is never referenced.
   GJ_LCP6_M.:E05TOU  was found in the system file and is never referenced.
   GH_LCP6_M.:E05TOU  was found in the system file and is never referenced.
      No diagnostics issued in procedure KNT$RETRANS.
PL6.E3A0      #006=KNT$RETRANS File=KNT$MISC.:E05TSI                             WED 07/30/97 01:10 Page:156

 **** Variables and constants ****

  ****  Section 000  Data  KNT$RETRANS

  ****  Scalars and arrays  ****
HexLoc.c.b A Datatyp(siz) R M Lvl/name                 HexLoc.c.b A Datatyp(siz) R M Lvl/name

     0-0-0/w STRC(48)    r     1 KNT_LOCK

  ****  Auto variables  ****

  ****  Scalars and arrays  ****
HexLoc.c.b A Datatyp(siz) R M Lvl/name                 HexLoc.c.b A Datatyp(siz) R M Lvl/name

     4-0-0/w PTR         r     1 @KN$NETPARM                6-0-0/w PTR         r     1 CTX$
     B-0-0/w PTR         r     1 HPTR$                     *0-0-0/w STRC(528)   r     1 KN$NETPARM
     D-0-0/w UBIN(16)    r     1 RETRAN#                    E-0-0/w UBIN(16)    r     1 RETRAN_MAX

  ****  SYMREF variables  ****

  ****  Scalars and arrays  ****
HexLoc.c.b A Datatyp(siz) R M Lvl/name                 HexLoc.c.b A Datatyp(siz) R M Lvl/name

     0-0-0/w UBIN(16)    r     1 KNT_RETRAN_TPDU#           0-0-0/w PTR         r     1 KN_DCT$$

  ****  BASED and DCB variables  ****

  ****  Scalars and arrays  ****
HexLoc.c.b A Datatyp(siz) R M Lvl/name                 HexLoc.c.b A Datatyp(siz) R M Lvl/name

     0-0-0/w STRC(128)   r     1 FRAG_HDR
     0-0-0/w PTR         r     1 KN$LDCT$(0:0)
     0-0-0/w STRC(2816)  r     1 KN$TCTX


   Procedure KNT$RETRANS requires 254 words for executable code.
PL6.E3A0      #006=KNT$RETRANS File=KNT$MISC.:E05TSI                             WED 07/30/97 01:10 Page:157
   Procedure KNT$RETRANS requires 16 words of local(AUTO) storage.
PL6.E3A0      #006=KNT$RETRANS File=KNT$MISC.:E05TSI                             WED 07/30/97 01:10 Page:158
          *** CROSS REFERENCE LISTING ***
**     DENOTES     IDENTIFIER DEFINITION
<<                 IDENTIFIER'S VALUE SET
>>                 IDENTIFIER'S VALUE USED
<>                 IDENTIFIER SET AND/OR USED
--                 IDENTIFIER REFERENCED
PL6.E3A0      #006=KNT$RETRANS File=KNT$MISC.:E05TSI                             WED 07/30/97 01:10 Page:159
          MINI XREF LISTING

COMMON
      6514**LABEL    6503--GOTO
CTX$
      5469**DCL      5482--IMP-PTR  6501<<ASSIGN   6506<<ASSIGN   6508>>IF       6508>>IF       6509>>ASSIGN
      6509>>ASSIGN   6510>>ASSIGN   6510>>ASSIGN   6510>>ASSIGN   6527>>IF       6528>>ASSIGN   6529>>IF
      6529>>IF       6531>>ASSIGN   6541>>ASSIGN   6543>>IF       6546>>ASSIGN   6547>>ASSIGN   6551>>IF
      6553>>ASSIGN   6561>>ASSIGN   6561>>ASSIGN   6574>>IF       6576>>ASSIGN   6576>>ASSIGN   6581>>IF
      6587>>IF       6590>>IF
FRAG_HDR
      6403**DCL      6539--ASSIGN
FRAG_HDR.DATA_BSIZE
      6412**DCL      6540>>ASSIGN
FRAG_HDR.LINK$
      6428**DCL      6583>>ASSIGN
FRAG_HDR.SEQ
      6416**DCL      6417--REDEF    6587>>IF
GHH$LOCK
      5310**DCL-ENT  6522--CALL
GHH$UNLOCK
      5310**DCL-ENT  6568--CALL     6599--CALL
HPTR$
      5472**DCL      6528<<ASSIGN   6531<<ASSIGN   6533>>IF       6539>>ASSIGN   6540>>ASSIGN   6581>>IF
      6583<<ASSIGN   6583>>ASSIGN   6585>>IF       6587>>IF       6590>>IF
KN$LDCT$
      6384**DCL      6553>>ASSIGN
KN$NETPARM
      5326**DCL        34--PROC     6505--ENTRY    6554<>CALL     6558<>CALL     6574<>CALL
KN$NETPARM.DST_ADDR$
      5460**DCL      6547<<ASSIGN
KN$NETPARM.ERRCODE
      5433**DCL      6562<<ASSIGN
KN$NETPARM.FUNCTION
PL6.E3A0      #006=KNT$RETRANS File=KNT$MISC.:E05TSI                             WED 07/30/97 01:10 Page:160
      5421**DCL      6545<<ASSIGN   6549<<ASSIGN
KN$NETPARM.LDCT$
      5327**DCL      6553<<ASSIGN
KN$NETPARM.MSG$
      5333**DCL      5338--REDEF
KN$NETPARM.MSGSZ
      5344**DCL      6512<<ASSIGN
KN$NETPARM.NHDR$
      5385**DCL      5386--REDEF
KN$NETPARM.NODE
      5428**DCL      6541<<ASSIGN
KN$NETPARM.SHDR$
      5363**DCL      5364--REDEF
KN$NETPARM.SHDRSZ
      5369**DCL      6514<<ASSIGN
KN$NETPARM.SRC_ADDR$
      5455**DCL      6546<<ASSIGN
KN$NETPARM.TCTX$
      5450**DCL      6501>>ASSIGN   6506>>ASSIGN
KN$NETPARM.THDR$
      5374**DCL      5375--REDEF    6539<<ASSIGN
KN$NETPARM.THDRSZ
      5380**DCL      6540<<ASSIGN
KN$NETPARM.UHDR$
      5349**DCL      5350--REDEF
KN$NETPARM.UHDRSZ
      5358**DCL      6513<<ASSIGN
KN$TCTX.DST_NSAP
      6337**DCL      6547--ASSIGN
KN$TCTX.DST_NSAP.ADDRESS_N
      6367**DCL      6368--REDEF
KN$TCTX.LDCTX#
      5502**DCL      6553>>ASSIGN
KN$TCTX.MAXSEQ
      5586**DCL      6510>>ASSIGN
KN$TCTX.NODE
PL6.E3A0      #006=KNT$RETRANS File=KNT$MISC.:E05TSI                             WED 07/30/97 01:10 Page:161
      5489**DCL      5502--REDEF    6541>>ASSIGN
KN$TCTX.OPTION.CONS
      5601**DCL      6551>>IF
KN$TCTX.OPTION.OSI
      5610**DCL      6543>>IF
KN$TCTX.OPTION.TRACE
      5596**DCL      6574>>IF
KN$TCTX.SEND_EHEAD$
      5968**DCL      6527>>IF       6528>>ASSIGN   6581>>IF
KN$TCTX.SEND_HEAD$
      5943**DCL      6529>>IF       6531>>ASSIGN
KN$TCTX.SEND_LWE
      5910**DCL      6508>>IF       6509>>ASSIGN   6510>>ASSIGN
KN$TCTX.SEND_NOTSENT$
      5960**DCL      6529>>IF       6590>>IF
KN$TCTX.SEND_UWE
      5916**DCL      6508>>IF       6509>>ASSIGN   6510>>ASSIGN   6587>>IF
KN$TCTX.SERR.NOQ
      5774**DCL      6561<<ASSIGN   6561>>ASSIGN
KN$TCTX.SERR.RETRAN
      5782**DCL      6576<<ASSIGN   6576>>ASSIGN
KN$TCTX.SRC_NSAP
      6273**DCL      6546--ASSIGN
KN$TCTX.SRC_NSAP.ADDRESS_N
      6303**DCL      6304--REDEF
KN$TCTX.TMR_INACTIVITY.ARG
      6123**DCL      6124--REDEF
KN$TCTX.TMR_REFERENCE.ARG
      6153**DCL      6154--REDEF
KN$TCTX.TMR_RETRAN.ARG
      6064**DCL      6065--REDEF
KN$TCTX.TMR_WINDOW.ARG
      6093**DCL      6094--REDEF
KNH$SEND
      6496**DCL-ENT  6554--CALL
KNN$SEND
PL6.E3A0      #006=KNT$RETRANS File=KNT$MISC.:E05TSI                             WED 07/30/97 01:10 Page:162
      6495**DCL-ENT  6558--CALL
KNT$TR_RETRN
      6497**DCL-ENT  6574--CALL
KNT_LOCK
      6486**DCL      6522<>CALL     6568<>CALL     6599<>CALL
KNT_RETRAN_TPDU#
      6472**DCL      6502>>ASSIGN
KN_DCT$$
      6471**DCL      6384--IMP-PTR  6553>>ASSIGN
RETRAN
      6536**LABEL    6591--GOTO
RETRAN#
      5473**DCL      6536<<ASSIGN   6578<<ASSIGN   6578>>ASSIGN   6579>>IF
RETRAN_MAX
      5474**DCL      6502<<ASSIGN   6509<<ASSIGN   6510<<ASSIGN   6579>>IF
SET_ERR
      6561**LABEL    6554--CALLALT
UNLOCK_N_RETURN
      6599**LABEL    6530--GOTO     6534--GOTO     6579--GOTO     6581--GOTO     6585--GOTO     6588--GOTO

PL6.E3A0      #007=KNT$SET_REFWAIT File=KNT$MISC.:E05TSI                         WED 07/30/97 01:11 Page:163
     1048        1        /*M* KNT$SET_REFWAIT - Do TCTX rundown and put in REFWAIT state */
     1049        2        /*T***********************************************************/
     1050        3        /*T*                                                         */
     1051        4        /*T* Copyright (c) Bull HN Information Systems Inc., 1997    */
     1052        5        /*T*                                                         */
     1053        6        /*T***********************************************************/
     1054        7        /*X* PLM=3,IND=5,ENU=0,ECU=0  */
     1055        8
     1056        9        /*F* NAME: KNT$SET_REFWAIT
     1057       10             PURPOSE:
     1058       11                  Final rundown for the TCTX before it is put in state REFWAIT.
     1059       12
     1060       13             DESCRIPTION:
     1061       14                  The send and receive chains for a peer pair are released.
     1062       15                  All timers are reset.  The state is changed to REFWAIT and
     1063       16                  the reference timer is set.
     1064       17
     1065       18        */
     1066       19        KNT$SET_REFWAIT: PROC(KN$TCTX);
     1067       20
     1068       21        %INCLUDE K_ADDRESS_M;
     1069      524        %INCLUDE KN_DATA_M;
     1070     2310        %INCLUDE GH_SCHD_M;
     1071     2454
     1072     2455        %K$TCTX (NAME=KN$TCTX,STCLASS="");
     1073     3362
     1074     3363    1   DCL GHS$CANCEL_TMR ENTRY(1);
     1075     3364    1   DCL GHS$SET_TMR ENTRY(1);
     1076     3365    1   DCL KNT$RLS_CHAIN ENTRY(1);
     1077     3366
     1078     3367        %EJECT;
PL6.E3A0      #007=KNT$SET_REFWAIT File=KNT$MISC.:E05TSI                         WED 07/30/97 01:11 Page:164
     1079     3368    1      CALL GHS$CANCEL_TMR(KN$TCTX.TMR_RETRAN);
     1080     3369    1      CALL GHS$CANCEL_TMR(KN$TCTX.TMR_WINDOW);
     1081     3370    1      CALL GHS$CANCEL_TMR(KN$TCTX.TMR_INACTIVITY);
     1082     3371
     1083     3372    1      CALL KNT$RLS_CHAIN(KN$TCTX);
     1084     3373
     1085     3374    1      KN$TCTX.STATE = %K_TSTATE_REFWAIT;
     1086     3375    1      CALL GHS$SET_TMR (KN$TCTX.TMR_REFERENCE);
     1087     3376
     1088     3377    1      RETURN;
     1089     3378    1   END KNT$SET_REFWAIT;
     1090     3379        %EOD;

PL6.E3A0      #007=KNT$SET_REFWAIT File=KNT$MISC.:E05TSI                         WED 07/30/97 01:11 Page:165
--  Include file information  --

   GH_SCHD_M.:E05TOU  is referenced.
   KN_DATA_M.:E05TOU  is referenced.
   K_ADDRESS_M.:E05TOU  is referenced.
   G_LCP6_E.:E05TOU  was found in the system file and is never referenced.
   GT_LCP6_M.:E05TOU  was found in the system file and is never referenced.
   KI_CP6.:E05TOU  was found in the system file and is never referenced.
   GF_LCP6_M.:E05TOU  was found in the system file and is never referenced.
   GM_LCP6_M.:E05TOU  was found in the system file and is never referenced.
   GU_LCP6_M.:E05TOU  was found in the system file and is never referenced.
   GJ_LCP6_M.:E05TOU  was found in the system file and is never referenced.
   GH_LCP6_M.:E05TOU  was found in the system file and is never referenced.
      No diagnostics issued in procedure KNT$SET_REFWAIT.

   Procedure KNT$SET_REFWAIT requires 74 words for executable code.
   Procedure KNT$SET_REFWAIT requires 8 words of local(AUTO) storage.

PL6.E3A0      #007=KNT$SET_REFWAIT File=KNT$MISC.:E05TSI                         WED 07/30/97 01:11 Page:166

 Object Unit name= KNT$SET_REFWAIT                            File name= KNT$MISC.:E05TOU
 UTS= JUL 30 '97 01:11:11.92 WED                              Compiler= PL-6/E31         Sev=      00
 SharedLib= :SHARED_LCP6_SYSTEM                               Alt SharedLib=


    ****  Control sections  ****

 Sect   Type Bound  Init  Size HexSiz  Section name
    0   Proc  even  none    74     4A  KNT$SET_REFWAIT

    ****  Entry defs  ****

                              Check   Calling
                             calling  sequence
  Sect HexLoc Primary Altret sequence   type   Parms  Name
     0      0   yes            yes      Std        1  KNT$SET_REFWAIT

  ****  Entry refs  ****

         Check        Calling
        calling       sequence
Altret sequence SRef   type   Args  Name
         yes           Std       1 GHS$CANCEL_TMR
         yes           Std       1 KNT$RLS_CHAIN
         yes           Std       1 GHS$SET_TMR
                       nStd      0 X6A_AUTO_1
                       nStd      0 X6A_ARET

  ****  Data refs  ****

  Flags:  r = read only, s = secondary
Flgs Name                             Flgs Name                             Flgs Name
r    G$ROS$
PL6.E3A0      #007=KNT$SET_REFWAIT File=KNT$MISC.:E05TSI                         WED 07/30/97 01:11 Page:167


     1048        1        /*M* KNT$SET_REFWAIT - Do TCTX rundown and put in REFWAIT state */
     1049        2        /*T***********************************************************/
     1050        3        /*T*                                                         */
     1051        4        /*T* Copyright (c) Bull HN Information Systems Inc., 1997    */
     1052        5        /*T*                                                         */
     1053        6        /*T***********************************************************/
     1054        7        /*X* PLM=3,IND=5,ENU=0,ECU=0  */
     1055        8
     1056        9        /*F* NAME: KNT$SET_REFWAIT
     1057       10             PURPOSE:
     1058       11                  Final rundown for the TCTX before it is put in state REFWAIT.
     1059       12
     1060       13             DESCRIPTION:
     1061       14                  The send and receive chains for a peer pair are released.
     1062       15                  All timers are reset.  The state is changed to REFWAIT and
     1063       16                  the reference timer is set.
     1064       17
     1065       18        */
     1066       19        KNT$SET_REFWAIT: PROC(KN$TCTX);

     19   0 000000  D380 0000 0000  xent KNT$SET_REFWAIT LNJ,B5   X6A_AUTO_1
          0 000003       0008 0001                       DC       8,1

     1067       20
     1068       21        %INCLUDE K_ADDRESS_M;
     1069      524        %INCLUDE KN_DATA_M;
     1070     2310        %INCLUDE GH_SCHD_M;
     1071     2454
     1072     2455        %K$TCTX (NAME=KN$TCTX,STCLASS="");
     1073     3362
     1074     3363    1   DCL GHS$CANCEL_TMR ENTRY(1);
     1075     3364    1   DCL GHS$SET_TMR ENTRY(1);
     1076     3365    1   DCL KNT$RLS_CHAIN ENTRY(1);
     1077     3366
     1078     3367        %EJECT;
PL6.E3A0      #007=KNT$SET_REFWAIT File=KNT$MISC.:E05TSI                         WED 07/30/97 01:11 Page:168
     1079     3368    1      CALL GHS$CANCEL_TMR(KN$TCTX.TMR_RETRAN);

   3368   0 000005  ECC7 0004                            LDB,B6   @KN$TCTX,AUTO
          0 000007  DBC6 0050                            LAB,B5   80,B6
          0 000009  DFC7 0006                            STB,B5   @KN$TCTX+2,AUTO
          0 00000B  BBC7 0006                            LAB,B3   @KN$TCTX+2,AUTO
          0 00000D  CBF0 0100                            LAB,B4   256,IMO
          0 00000F  E380 0000 0000  xent                 LNJ,B6   GHS$CANCEL_TMR
          0 000012       0001                            DC       s:3369,PREL

     1080     3369    1      CALL GHS$CANCEL_TMR(KN$TCTX.TMR_WINDOW);

   3369   0 000013  ECC7 0004                            LDB,B6   @KN$TCTX,AUTO
          0 000015  DBC6 005A                            LAB,B5   90,B6
          0 000017  DFC7 0006                            STB,B5   @KN$TCTX+2,AUTO
          0 000019  BBC7 0006                            LAB,B3   @KN$TCTX+2,AUTO
          0 00001B  CBF0 0100                            LAB,B4   256,IMO
          0 00001D  E380 0000 0000  xent                 LNJ,B6   GHS$CANCEL_TMR
          0 000020       0001                            DC       s:3370,PREL

     1081     3370    1      CALL GHS$CANCEL_TMR(KN$TCTX.TMR_INACTIVITY);

   3370   0 000021  ECC7 0004                            LDB,B6   @KN$TCTX,AUTO
          0 000023  DBC6 0064                            LAB,B5   100,B6
          0 000025  DFC7 0006                            STB,B5   @KN$TCTX+2,AUTO
          0 000027  BBC7 0006                            LAB,B3   @KN$TCTX+2,AUTO
          0 000029  CBF0 0100                            LAB,B4   256,IMO
          0 00002B  E380 0000 0000  xent                 LNJ,B6   GHS$CANCEL_TMR
          0 00002E       0001                            DC       s:3372,PREL

     1082     3371
     1083     3372    1      CALL KNT$RLS_CHAIN(KN$TCTX);

   3372   0 00002F  BBC7 0004                            LAB,B3   @KN$TCTX,AUTO
          0 000031  CBF0 0100                            LAB,B4   256,IMO
          0 000033  E380 0000 0000  xent                 LNJ,B6   KNT$RLS_CHAIN
          0 000036       0001                            DC       s:3374,PREL
PL6.E3A0      #007=KNT$SET_REFWAIT File=KNT$MISC.:E05TSI                         WED 07/30/97 01:11 Page:169

     1084     3373
     1085     3374    1      KN$TCTX.STATE = %K_TSTATE_REFWAIT;

   3374   0 000037  6C01                                 LDV,R6   1
          0 000038  ECC7 0004                            LDB,B6   @KN$TCTX,AUTO
          0 00003A  E786                                 STH,R6   ,B6

     1086     3375    1      CALL GHS$SET_TMR (KN$TCTX.TMR_REFERENCE);

   3375   0 00003B  DBC6 006E                            LAB,B5   110,B6
          0 00003D  DFC7 0006                            STB,B5   @KN$TCTX+2,AUTO
          0 00003F  BBC7 0006                            LAB,B3   @KN$TCTX+2,AUTO
          0 000041  CBF0 0100                            LAB,B4   256,IMO
          0 000043  E380 0000 0000  xent                 LNJ,B6   GHS$SET_TMR
          0 000046       0001                            DC       s:3377,PREL

     1087     3376
     1088     3377    1      RETURN;

   3377   0 000047  C380 0000 0000  xent                 LNJ,B4   X6A_ARET
     1089     3378    1   END KNT$SET_REFWAIT;
     1090     3379        %EOD;

PL6.E3A0      #007=KNT$SET_REFWAIT File=KNT$MISC.:E05TSI                         WED 07/30/97 01:11 Page:170
--  Include file information  --

   GH_SCHD_M.:E05TOU  is referenced.
   KN_DATA_M.:E05TOU  is referenced.
   K_ADDRESS_M.:E05TOU  is referenced.
   G_LCP6_E.:E05TOU  was found in the system file and is never referenced.
   GT_LCP6_M.:E05TOU  was found in the system file and is never referenced.
   KI_CP6.:E05TOU  was found in the system file and is never referenced.
   GF_LCP6_M.:E05TOU  was found in the system file and is never referenced.
   GM_LCP6_M.:E05TOU  was found in the system file and is never referenced.
   GU_LCP6_M.:E05TOU  was found in the system file and is never referenced.
   GJ_LCP6_M.:E05TOU  was found in the system file and is never referenced.
   GH_LCP6_M.:E05TOU  was found in the system file and is never referenced.
      No diagnostics issued in procedure KNT$SET_REFWAIT.
PL6.E3A0      #007=KNT$SET_REFWAIT File=KNT$MISC.:E05TSI                         WED 07/30/97 01:11 Page:171

 **** Variables and constants ****

  ****  Auto variables  ****

  ****  Scalars and arrays  ****
HexLoc.c.b A Datatyp(siz) R M Lvl/name                 HexLoc.c.b A Datatyp(siz) R M Lvl/name

     4-0-0/w PTR         r     1 @KN$TCTX                  *0-0-0/w STRC(2816)  r     1 KN$TCTX


   Procedure KNT$SET_REFWAIT requires 74 words for executable code.
   Procedure KNT$SET_REFWAIT requires 8 words of local(AUTO) storage.
PL6.E3A0      #007=KNT$SET_REFWAIT File=KNT$MISC.:E05TSI                         WED 07/30/97 01:11 Page:172
          *** CROSS REFERENCE LISTING ***
**     DENOTES     IDENTIFIER DEFINITION
<<                 IDENTIFIER'S VALUE SET
>>                 IDENTIFIER'S VALUE USED
<>                 IDENTIFIER SET AND/OR USED
--                 IDENTIFIER REFERENCED
PL6.E3A0      #007=KNT$SET_REFWAIT File=KNT$MISC.:E05TSI                         WED 07/30/97 01:11 Page:173
          MINI XREF LISTING

GHS$CANCEL_TMR
      3363**DCL-ENT  3368--CALL     3369--CALL     3370--CALL
GHS$SET_TMR
      3364**DCL-ENT  3375--CALL
KN$TCTX
      2460**DCL        19--PROC     3372<>CALL
KN$TCTX.DST_NSAP.ADDRESS_N
      3345**DCL      3346--REDEF
KN$TCTX.NODE
      2467**DCL      2480--REDEF
KN$TCTX.SRC_NSAP.ADDRESS_N
      3281**DCL      3282--REDEF
KN$TCTX.STATE
      2461**DCL      3374<<ASSIGN
KN$TCTX.TMR_INACTIVITY
      3099**DCL      3370<>CALL
KN$TCTX.TMR_INACTIVITY.ARG
      3101**DCL      3102--REDEF
KN$TCTX.TMR_REFERENCE
      3129**DCL      3375<>CALL
KN$TCTX.TMR_REFERENCE.ARG
      3131**DCL      3132--REDEF
KN$TCTX.TMR_RETRAN
      3040**DCL      3368<>CALL
KN$TCTX.TMR_RETRAN.ARG
      3042**DCL      3043--REDEF
KN$TCTX.TMR_WINDOW
      3069**DCL      3369<>CALL
KN$TCTX.TMR_WINDOW.ARG
      3071**DCL      3072--REDEF
KNT$RLS_CHAIN
      3365**DCL-ENT  3372--CALL

