PL6.E3A0      #008=KNT$TTIMER File=KNT$MISC.:E05TSI                              WED 07/30/97 01:11 Page:174
     1091        1        /*M* KNT$TTIMER - Expired transport clock handler.  */
     1092        2        /*T***********************************************************/
     1093        3        /*T*                                                         */
     1094        4        /*T* Copyright (c) Bull HN Information Systems Inc., 1997    */
     1095        5        /*T*                                                         */
     1096        6        /*T***********************************************************/
     1097        7        /*X* PLM=3,IND=5,ENU=0,ECU=0   */
     1098        8
     1099        9        /*F* NAME: KNT$TTIMER
     1100       10
     1101       11        The KNT$TTIMER routine is the handler for the expired transport
     1102       12        clocks.
     1103       13
     1104       14
     1105       15        */
     1106       16        KNT$TTIMER: PROC(CLOCK_ID);
     1107       17
     1108       18        %INCLUDE K_ADDRESS_M;
     1109      521        %INCLUDE KNH_MACRO_C;
     1110      804        %INCLUDE KN_DATA_M;
     1111     2590        %INCLUDE K_TRANSPORT_E;
     1112     2915        %INCLUDE K_TRANSPORT_M;
     1113     4699        %INCLUDE GH_SCHD_M;
     1114     4843
     1115     4844                                                /* Input parameters                   */
     1116     4845    1   DCL 1 CLOCK_ID ALIGNED,
     1117     4846    1         2 TCTX UBIN BYTE UNAL,
     1118     4847    1         2 TIMER UBIN BYTE UNAL;
     1119     4848
     1120     4849                                                /* Auto Storage                       */
     1121     4850    1   DCL CTX$ PTR;
     1122     4851    1   DCL TYPE UBIN;
     1123     4852    1   DCL FUNCTION UBIN;
     1124     4853
     1125     4854        %KN$NETPARM (STCLASS=AUTO);
     1126     5007
     1127     5008                                                /* Based Data                         */
PL6.E3A0      #008=KNT$TTIMER File=KNT$MISC.:E05TSI                              WED 07/30/97 01:11 Page:175
     1128     5009        %K$TCTX (NAME=KN$TCTX,STCLASS="BASED(CTX$)");
     1129     5916    1   DCL KN$TCTX$(0:0) PTR BASED(KN_TCTX$$);
     1130     5917
     1131     5918                                                /* External Data                      */
     1132     5919    1   DCL KN_TCTX$$ PTR SYMREF;
     1133     5920    1   DCL KNT_MAX_RETRY UBIN SYMREF;
     1134     5921    1   DCL KNT_TIMER_SCREECH UBIN SYMREF;
     1135     5922    1   DCL KNT_SCODE UBIN(32) SYMREF;
     1136     5923        %KN$NETPARM (NAME=KN_NETPARM_INIT, STCLASS=SYMREF);
     1137     6076
     1138     6077                                                /* External Procedures                */
     1139     6078    1   DCL GHS$SET_TMR ENTRY(1);
     1140     6079    1   DCL GHS$CANCEL_TMR ENTRY(1);
     1141     6080    1   DCL KNT$RETRANS ENTRY(1) ALTRET;
     1142     6081    1   DCL KNT$RLS_CHAIN ENTRY(1);
     1143     6082    1   DCL KNA$RELTCTX ENTRY(1) ALTRET;
     1144     6083    1   DCL KNS$RECV ENTRY(1) ALTRET;
     1145     6084    1   DCL KNT$SEND_AK ENTRY(1) ALTRET;
     1146     6085    1   DCL KNT$SEND_DR ENTRY(1) ALTRET;
     1147     6086    1   DCL KNT$SEND_DR_HOST ENTRY(1) ALTRET;
     1148     6087    1   DCL KNT$SET_REFWAIT ENTRY(1);
     1149     6088    1   DCL KNT$UNQ_FLOW ENTRY(1);
     1150     6089    1   DCL SCREECH ENTRY(1);
     1151     6090
     1152     6091        %EJECT;
PL6.E3A0      #008=KNT$TTIMER File=KNT$MISC.:E05TSI                              WED 07/30/97 01:11 Page:176
     1153     6092    1      CTX$ = KN$TCTX$(CLOCK_ID.TCTX);
     1154     6093    1      IF CTX$ = ADDR(NIL)
     1155     6094    2      THEN DO;
     1156     6095    2           CALL I$TIMER_SCREECH;
     1157     6096    2           RETURN;
     1158     6097    2           END;
     1159     6098
     1160     6099    1      KN$NETPARM = KN_NETPARM_INIT;
     1161     6100    1      KN$NETPARM.TCTX$ = CTX$;
     1162     6101    1      KN$NETPARM.NODE = KN$TCTX.NODE;
     1163     6102
     1164     6103        /* When the call to KNT$TTIMER was made with the pseudo timer code,
     1165     6104           this is a call to begin the disconnect process for this connection.
     1166     6105        */
     1167     6106    1      IF CLOCK_ID.TIMER = %K_TTIMER_PSEUDO
     1168     6107    2      THEN DO;
     1169     6108    2           CALL I$WINDOW_STOP;
     1170     6109    2           CALL I$INACTIVITY_STOP;
     1171     6110    2           CALL GHS$CANCEL_TMR (KN$TCTX.TMR_RETRAN);
     1172     6111
     1173     6112    2           KN$TCTX.ERR = %K_ERROR_RESTART;
     1174     6113    2           GOTO INIT_RELEASE;
     1175     6114    2           END;
     1176     6115
     1177     6116    1      KN$TCTX.TMR_COUNT(CLOCK_ID.TIMER) = KN$TCTX.TMR_COUNT(CLOCK_ID.TIMER) +1;
     1178     6117
     1179     6118        /* When the retran timer expires after the maximum number of transmissions
     1180     6119           we wait one final time to provide a higher probability of receiving
     1181     6120           an ack before entering the release phase.  We do this for any possible
     1182     6121           state of the transport connection.
     1183     6122        */
     1184     6123    1      IF CLOCK_ID.TIMER = %K_TTIMER_RETRAN
     1185     6124    2      THEN DO;
     1186     6125    2           IF KN$TCTX.CLASS ~= 4
     1187     6126    2           THEN CALL I$TIMER_SCREECH;
     1188     6127
     1189     6128    2           IF KN$TCTX.SEND_RETRY_COUNT = KNT_MAX_RETRY
PL6.E3A0      #008=KNT$TTIMER File=KNT$MISC.:E05TSI                              WED 07/30/97 01:11 Page:177
     1190     6129    3           THEN DO;
     1191     6130    3   WAIT_T1:
     1192     6131    3                KN$TCTX.SEND_RETRY_COUNT = KN$TCTX.SEND_RETRY_COUNT + 1;
     1193     6132    3                CALL I$RETRAN_START;
     1194     6133    3                RETURN;
     1195     6134    3                END;
     1196     6135
     1197     6136        /* If the transport connection is in the OPEN state when the retran
     1198     6137           timer expires, the first un-acked tpdu in the window is retransmitted,
     1199     6138           the retry_count is bumped and the retran timer is restarted.
     1200     6139        */
     1201     6140    2           IF KN$TCTX.STATE = %K_TSTATE_OPEN
     1202     6141    3           THEN DO;
     1203     6142    3                IF KN$TCTX.SEND_RETRY_COUNT < KNT_MAX_RETRY
     1204     6143    4                THEN DO;
     1205     6144    4   RETRANSMIT_TPDU:
     1206     6145    4                     CALL KNT$RETRANS(KN$NETPARM);
     1207     6146    4                     IF KN$TCTX.SEND_HEAD$ = ADDR(NIL) AND
     1208     6147    4                       KN$TCTX.SEND_EHEAD$ = ADDR(NIL)
     1209     6148    4                     THEN RETURN;
     1210     6149    4                     GOTO WAIT_T1;
     1211     6150    4                     END;
     1212     6151
     1213     6152        /* After the maximum number of retries, we begin the release procedure.
     1214     6153           The window and inactivity timers are stopped and the transport
     1215     6154           state is set to CLOSING.  A disconnect request tpdu is sent to
     1216     6155           the other endpoint and we reset the retran timer and retry count
     1217     6156           to try to get a response to the disconnect request.
     1218     6157        */
     1219     6158    3                CALL I$WINDOW_STOP;
     1220     6159    3                CALL I$INACTIVITY_STOP;
     1221     6160    3   INIT_RELEASE0: ;
     1222     6161    3                IF KN$TCTX.ERR = 0
     1223     6162    3                THEN KN$TCTX.ERR = %K_ERROR_RETRAN;
     1224     6163
     1225     6164    3   INIT_RELEASE: ;
     1226     6165    3                KN$TCTX.STATE = %K_TSTATE_CLOSING;
PL6.E3A0      #008=KNT$TTIMER File=KNT$MISC.:E05TSI                              WED 07/30/97 01:11 Page:178
     1227     6166    3                CALL KNT$RLS_CHAIN(KN$TCTX);
     1228     6167
     1229     6168    3                IF KN$TCTX.PRIMARY
     1230     6169    4                THEN DO;
     1231     6170    4                     KN$NETPARM.FUNCTION = %KN_FCN_TERM;
     1232     6171    4                     KN$NETPARM.TCTX_ID = KN$TCTX.SRC_REF;
     1233     6172    4                     CALL KNS$RECV(KN$NETPARM);
     1234     6173    4                     KN$NETPARM.NODE = KN$TCTX.NODE;
     1235     6174    4                     KN$NETPARM.TCTX$ = CTX$;
     1236     6175    4                     END;
     1237     6176    4                ELSE DO;
     1238     6177    4                     CALL KNT$SEND_DR_HOST(KN$NETPARM);
     1239     6178    4                     END;
     1240     6179
     1241     6180    3                IF KN$TCTX.LNK$ ~= ADDR(NIL)
     1242     6181    3                THEN CALL KNT$UNQ_FLOW(KN$TCTX.LNK$);
     1243     6182
     1244     6183    3                IF KN$TCTX.ERR = %K_ERROR_RESTART
     1245     6184    3                THEN GOTO END_IT;
     1246     6185
     1247     6186    3                KN$TCTX.SEND_RETRY_COUNT = 1;
     1248     6187
     1249     6188    3                CALL KNT$SEND_DR(KN$NETPARM);
     1250     6189    3                CALL I$RETRAN_START;
     1251     6190
     1252     6191    3                RETURN;
     1253     6192    3                END/*do if open*/;
     1254     6193
     1255     6194        /* If the retran timer expires while waiting for an ACK to our TPDU_CC,
     1256     6195           we retransmit the TPDU_CC and restart the timer.  After the
     1257     6196           maximum number of retries, the release procedure is initiated.
     1258     6197        */
     1259     6198    2           IF KN$TCTX.STATE = %K_TSTATE_AKWAIT
     1260     6199    3           THEN DO;
     1261     6200    3                IF KN$TCTX.SEND_RETRY_COUNT < KNT_MAX_RETRY
     1262     6201    3                THEN GOTO RETRANSMIT_TPDU;
     1263     6202    3                ELSE GOTO INIT_RELEASE0;
PL6.E3A0      #008=KNT$TTIMER File=KNT$MISC.:E05TSI                              WED 07/30/97 01:11 Page:179
     1264     6203    3                END/*do fi akwait*/;
     1265     6204
     1266     6205        /*  If the retran timer expires when the state is CLOSING, after the
     1267     6206            usual number of retires to transmit the disconnect request, the
     1268     6207            state of the connection is set to REFWAIT, and the reference timer
     1269     6208            is started so we can discared any tpdus that belong to this connection
     1270     6209            that may leak through the network.
     1271     6210        */
     1272     6211    2           IF KN$TCTX.STATE = %K_TSTATE_CLOSING
     1273     6212    3           THEN DO;
     1274     6213    3                IF KN$TCTX.CLASS ~= 4 THEN GOTO END_IT;
     1275     6214
     1276     6215    3                IF KN$TCTX.SEND_RETRY_COUNT < KNT_MAX_RETRY
     1277     6216    4                THEN DO;
     1278     6217    4                     KN$TCTX.SEND_RETRY_COUNT = KN$TCTX.SEND_RETRY_COUNT + 1;
     1279     6218    4                     GOTO RETRANSMIT_TPDU;
     1280     6219    4                     END;
     1281     6220    4                ELSE DO;
     1282     6221    4   END_IT:
     1283     6222    4                     CALL KNT$SET_REFWAIT (KN$TCTX);
     1284     6223    4                     END;
     1285     6224    3                RETURN;
     1286     6225    3                END/*do if closing*/;
     1287     6226
     1288     6227        /* If the retran timer expires while we are waiting for the connect
     1289     6228           confirm, we retransmit the tpdu_cr the standare number of times
     1290     6229           and then initiate the r3lease procedures.
     1291     6230        */
     1292     6231    2           IF KN$TCTX.STATE = %K_TSTATE_WFCC
     1293     6232    2             OR KN$TCTX.STATE = %K_TSTATE_WBCL
     1294     6233    2             OR KN$TCTX.STATE = %K_TSTATE_WFCC_R
     1295     6234    3           THEN DO;
     1296     6235    3                IF KN$TCTX.SEND_RETRY_COUNT < KNT_MAX_RETRY
     1297     6236    3                THEN GOTO RETRANSMIT_TPDU;
     1298     6237    4                ELSE DO;
     1299     6238    4                     KN$TCTX.ERR = %K_ERROR_CONNECT_TO;
     1300     6239                                                /* Connection establishment timed out */
PL6.E3A0      #008=KNT$TTIMER File=KNT$MISC.:E05TSI                              WED 07/30/97 01:11 Page:180
     1301     6240    4                     GOTO INIT_RELEASE;
     1302     6241    4                     END;
     1303     6242    3                END/*do if wfcc or wbcl*/;
     1304     6243
     1305     6244        /* If the retrans timer expires while the transport connection is in
     1306     6245           any other state, simply ignore it.
     1307     6246        */
     1308     6247    2           CALL I$TIMER_SCREECH;
     1309     6248    2           RETURN;
     1310     6249
     1311     6250    2           END/*do if timer_retran*/;
     1312     6251
     1313     6252        %EJECT;
PL6.E3A0      #008=KNT$TTIMER File=KNT$MISC.:E05TSI                              WED 07/30/97 01:11 Page:181
     1314     6253        /* When the reference timer expires, the transport connection is
     1315     6254           marked CLOSED and the context block is returned to the chain of
     1316     6255           free entries.
     1317     6256        */
     1318     6257    1      IF CLOCK_ID.TIMER = %K_TTIMER_REFERENCE
     1319     6258    2      THEN DO;
     1320     6259    2           IF KN$TCTX.STATE = %K_TSTATE_REFWAIT
     1321     6260    3           THEN DO;
     1322     6261    3                KN$TCTX.STATE = %K_TSTATE_CLOSED;
     1323     6262    3                CALL KNA$RELTCTX(CTX$);
     1324     6263    3                END;
     1325     6264    2           ELSE CALL I$TIMER_SCREECH;
     1326     6265    2           RETURN;
     1327     6266    2           END;
     1328     6267
     1329     6268        %EJECT;
PL6.E3A0      #008=KNT$TTIMER File=KNT$MISC.:E05TSI                              WED 07/30/97 01:11 Page:182
     1330     6269        /* If the window timer or the inactivity timer expires while the
     1331     6270           the timer is in any state but open, it is ignored.
     1332     6271           Otherwise, send an Ack tpdu when the window timer expires and
     1333     6272           initiate the release procedures when the inactivity timer expries.
     1334     6273        */
     1335     6274    1      IF KN$TCTX.STATE ~= %K_TSTATE_OPEN
     1336     6275    1      THEN RETURN;
     1337     6276
     1338     6277    1      IF KN$TCTX.CLASS ~= 4
     1339     6278    1      THEN CALL I$TIMER_SCREECH;
     1340     6279
     1341     6280    1      IF CLOCK_ID.TIMER = %K_TTIMER_WINDOW
     1342     6281    2      THEN DO;
     1343     6282    2           CALL KNT$SEND_AK(KN$NETPARM);
     1344     6283    2           CALL GHS$SET_TMR (KN$TCTX.TMR_WINDOW);
     1345     6284    2           RETURN;
     1346     6285    2           END;
     1347     6286
     1348     6287
     1349     6288    1      IF CLOCK_ID.TIMER = %K_TTIMER_INACTIVITY
     1350     6289    2      THEN DO;
     1351     6290    2           IF NOT KN$TCTX.OPTION.OSI
     1352     6291    3           THEN DO;
     1353     6292    3                CALL GHS$SET_TMR (KN$TCTX.TMR_INACTIVITY);
     1354     6293    3                RETURN;
     1355     6294    3                END;
     1356     6295
     1357     6296    2           CALL I$WINDOW_STOP;
     1358     6297    2           KN$TCTX.ERR = %K_ERROR_INACT_TO;
     1359     6298    2           GOTO INIT_RELEASE;
     1360     6299    2           END;
     1361     6300
     1362     6301    1      CALL I$TIMER_SCREECH;
     1363     6302
     1364     6303    1      RETURN;
     1365     6304        %EJECT;
PL6.E3A0      #008=KNT$TTIMER File=KNT$MISC.:E05TSI                              WED 07/30/97 01:11 Page:183
     1366     6305
     1367     6306    1   I$RETRAN_START: PROC;
     1368     6307    2      CALL GHS$SET_TMR (KN$TCTX.TMR_RETRAN);
     1369     6308    2      RETURN;
     1370     6309    2   END I$RETRAN_START;
     1371     6310
     1372     6311    1   I$WINDOW_STOP: PROC;
     1373     6312    2      CALL GHS$CANCEL_TMR (KN$TCTX.TMR_WINDOW);
     1374     6313    2      RETURN;
     1375     6314    2   END I$WINDOW_STOP;
     1376     6315
     1377     6316    1   I$INACTIVITY_STOP: PROC;
     1378     6317    2      CALL GHS$CANCEL_TMR (KN$TCTX.TMR_INACTIVITY);
     1379     6318    2      RETURN;
     1380     6319    2   END I$INACTIVITY_STOP;
     1381     6320
     1382     6321
     1383     6322    1   I$TIMER_SCREECH: PROC;
     1384     6323    2      IF KNT_TIMER_SCREECH ~= 0
     1385     6324    3      THEN DO;
     1386     6325    3           CALL SCREECH(KNT_SCODE);
     1387     6326    3           END;
     1388     6327    2      RETURN;
     1389     6328    2   END I$TIMER_SCREECH;
     1390     6329    1   END KNT$TTIMER;
     1391     6330        %EOD;

PL6.E3A0      #008=KNT$TTIMER File=KNT$MISC.:E05TSI                              WED 07/30/97 01:11 Page:184
--  Include file information  --

   GH_SCHD_M.:E05TOU  is referenced.
   K_TRANSPORT_M.:E05TOU  is referenced.
   K_TRANSPORT_E.:E05TOU  is referenced.
   KN_DATA_M.:E05TOU  is referenced.
   KNH_MACRO_C.:E05TOU  is referenced.
   K_ADDRESS_M.:E05TOU  is referenced.
   G_LCP6_E.:E05TOU  was found in the system file and is never referenced.
   GT_LCP6_M.:E05TOU  was found in the system file and is never referenced.
   KI_CP6.:E05TOU  was found in the system file and is never referenced.
   GF_LCP6_M.:E05TOU  was found in the system file and is never referenced.
   GM_LCP6_M.:E05TOU  was found in the system file and is never referenced.
   GU_LCP6_M.:E05TOU  was found in the system file and is never referenced.
   GJ_LCP6_M.:E05TOU  was found in the system file and is never referenced.
   GH_LCP6_M.:E05TOU  was found in the system file and is never referenced.
      No diagnostics issued in procedure KNT$TTIMER.

   Procedure KNT$TTIMER requires 560 words for executable code.
   Procedure KNT$TTIMER requires 48 words of local(AUTO) storage.

PL6.E3A0      #008=KNT$TTIMER File=KNT$MISC.:E05TSI                              WED 07/30/97 01:11 Page:185

 Object Unit name= KNT$TTIMER                                 File name= KNT$MISC.:E05TOU
 UTS= JUL 30 '97 01:11:31.36 WED                              Compiler= PL-6/E31         Sev=      00
 SharedLib= :SHARED_LCP6_SYSTEM                               Alt SharedLib=


    ****  Control sections  ****

 Sect   Type Bound  Init  Size HexSiz  Section name
    0   Proc  even  none   560    230  KNT$TTIMER
    1  RoData even  none     2      2  KNT$TTIMER

    ****  Entry defs  ****

                              Check   Calling
                             calling  sequence
  Sect HexLoc Primary Altret sequence   type   Parms  Name
     0      0   yes            yes      Std        1  KNT$TTIMER

  ****  Entry refs  ****

         Check        Calling
        calling       sequence
Altret sequence SRef   type   Args  Name
         yes           Std       1 GHS$CANCEL_TMR
         yes           Std       1 KNT$SET_REFWAIT
 yes     yes           Std       1 KNT$RETRANS
         yes           Std       1 KNT$RLS_CHAIN
 yes     yes           Std       1 KNA$RELTCTX
         yes           Std       1 GHS$SET_TMR
 yes     yes           Std       1 KNT$SEND_AK
 yes     yes           Std       1 KNS$RECV
 yes     yes           Std       1 KNT$SEND_DR_HOST
         yes           Std       1 KNT$UNQ_FLOW
 yes     yes           Std       1 KNT$SEND_DR
         yes           Std       1 SCREECH
                       nStd      0 X6A_AUTO_1
                       nStd      0 X6A_ARET
PL6.E3A0      #008=KNT$TTIMER File=KNT$MISC.:E05TSI                              WED 07/30/97 01:11 Page:186

  ****  Data refs  ****

  Flags:  r = read only, s = secondary
Flgs Name                             Flgs Name                             Flgs Name
     KN_TCTX$$                             KNT_MAX_RETRY                         KNT_TIMER_SCREECH
     KNT_SCODE                             KN_NETPARM_INIT                  r    G$ROS$
PL6.E3A0      #008=KNT$TTIMER File=KNT$MISC.:E05TSI                              WED 07/30/97 01:11 Page:187


     1091        1        /*M* KNT$TTIMER - Expired transport clock handler.  */
     1092        2        /*T***********************************************************/
     1093        3        /*T*                                                         */
     1094        4        /*T* Copyright (c) Bull HN Information Systems Inc., 1997    */
     1095        5        /*T*                                                         */
     1096        6        /*T***********************************************************/
     1097        7        /*X* PLM=3,IND=5,ENU=0,ECU=0   */
     1098        8
     1099        9        /*F* NAME: KNT$TTIMER
     1100       10
     1101       11        The KNT$TTIMER routine is the handler for the expired transport
     1102       12        clocks.
     1103       13
     1104       14
     1105       15        */
     1106       16        KNT$TTIMER: PROC(CLOCK_ID);

     16   0 000000  D380 0000 0000  xent KNT$TTIMER      LNJ,B5   X6A_AUTO_1
          0 000003       0030 0001                       DC       48,1

     1107       17
     1108       18        %INCLUDE K_ADDRESS_M;
     1109      521        %INCLUDE KNH_MACRO_C;
     1110      804        %INCLUDE KN_DATA_M;
     1111     2590        %INCLUDE K_TRANSPORT_E;
     1112     2915        %INCLUDE K_TRANSPORT_M;
     1113     4699        %INCLUDE GH_SCHD_M;
     1114     4843
     1115     4844                                                /* Input parameters                   */
     1116     4845    1   DCL 1 CLOCK_ID ALIGNED,
     1117     4846    1         2 TCTX UBIN BYTE UNAL,
     1118     4847    1         2 TIMER UBIN BYTE UNAL;
     1119     4848
     1120     4849                                                /* Auto Storage                       */
     1121     4850    1   DCL CTX$ PTR;
     1122     4851    1   DCL TYPE UBIN;
PL6.E3A0      #008=KNT$TTIMER File=KNT$MISC.:E05TSI                              WED 07/30/97 01:11 Page:188
     1123     4852    1   DCL FUNCTION UBIN;
     1124     4853
     1125     4854        %KN$NETPARM (STCLASS=AUTO);
     1126     5007
     1127     5008                                                /* Based Data                         */
     1128     5009        %K$TCTX (NAME=KN$TCTX,STCLASS="BASED(CTX$)");
     1129     5916    1   DCL KN$TCTX$(0:0) PTR BASED(KN_TCTX$$);
     1130     5917
     1131     5918                                                /* External Data                      */
     1132     5919    1   DCL KN_TCTX$$ PTR SYMREF;
     1133     5920    1   DCL KNT_MAX_RETRY UBIN SYMREF;
     1134     5921    1   DCL KNT_TIMER_SCREECH UBIN SYMREF;
     1135     5922    1   DCL KNT_SCODE UBIN(32) SYMREF;
     1136     5923        %KN$NETPARM (NAME=KN_NETPARM_INIT, STCLASS=SYMREF);
     1137     6076
     1138     6077                                                /* External Procedures                */
     1139     6078    1   DCL GHS$SET_TMR ENTRY(1);
     1140     6079    1   DCL GHS$CANCEL_TMR ENTRY(1);
     1141     6080    1   DCL KNT$RETRANS ENTRY(1) ALTRET;
     1142     6081    1   DCL KNT$RLS_CHAIN ENTRY(1);
     1143     6082    1   DCL KNA$RELTCTX ENTRY(1) ALTRET;
     1144     6083    1   DCL KNS$RECV ENTRY(1) ALTRET;
     1145     6084    1   DCL KNT$SEND_AK ENTRY(1) ALTRET;
     1146     6085    1   DCL KNT$SEND_DR ENTRY(1) ALTRET;
     1147     6086    1   DCL KNT$SEND_DR_HOST ENTRY(1) ALTRET;
     1148     6087    1   DCL KNT$SET_REFWAIT ENTRY(1);
     1149     6088    1   DCL KNT$UNQ_FLOW ENTRY(1);
     1150     6089    1   DCL SCREECH ENTRY(1);
     1151     6090
     1152     6091        %EJECT;
PL6.E3A0      #008=KNT$TTIMER File=KNT$MISC.:E05TSI                              WED 07/30/97 01:11 Page:189
     1153     6092    1      CTX$ = KN$TCTX$(CLOCK_ID.TCTX);

   6092   0 000005  ECC7 0004                            LDB,B6   @CLOCK_ID,AUTO
          0 000007  B286                                 LLH,R3   ,B6
          0 000008  DC80 0000 0000  xsym                 LDB,B5   KN_TCTX$$
          0 00000B  CCB5                                 LDB,B4   ,B5,R3
          0 00000C  CFC7 0006                            STB,B4   CTX$,AUTO

     1154     6093    1      IF CTX$ = ADDR(NIL)

   6093   0 00000E  8DC7 0006                            CMN      CTX$,AUTO
          0 000010  0981 0007                            BNE      s:6099,PREL

     1155     6094    2      THEN DO;

     1156     6095    2           CALL I$TIMER_SCREECH;

   6095   0 000012  E3C0 0209                            LNJ,B6   s:0,PREL
          0 000014       0001                            DC       s:6096,PREL

     1157     6096    2           RETURN;

   6096   0 000015  C380 0000 0000  xent                 LNJ,B4   X6A_ARET

     1158     6097    2           END;
     1159     6098
     1160     6099    1      KN$NETPARM = KN_NETPARM_INIT;

   6099   0 000018  AB80 0000 0000  xsym                 LAB,B2   KN_NETPARM_INIT
          0 00001B  2C00                                 LDV,R2   0
          0 00001C  6C42                                 LDV,R6   66
          0 00001D  BB87                                 LAB,B3   ,AUTO
          0 00001E  3C14                                 LDV,R3   20
          0 00001F  0008                                 MMM

     1161     6100    1      KN$NETPARM.TCTX$ = CTX$;

PL6.E3A0      #008=KNT$TTIMER File=KNT$MISC.:E05TSI                              WED 07/30/97 01:11 Page:190
   6100   0 000020  DCC7 0006                            LDB,B5   CTX$,AUTO
          0 000022  DFC7 0025                            STB,B5   KN$NETPARM+27,AUTO

     1162     6101    1      KN$NETPARM.NODE = KN$TCTX.NODE;

   6101   0 000024  E805                                 LDR,R6   ,B5
          0 000025  E570 00FF                            AND,R6   255,IMO
          0 000027  EF47 001F                            STR,R6   KN$NETPARM+21,AUTO

     1163     6102
     1164     6103        /* When the call to KNT$TTIMER was made with the pseudo timer code,
     1165     6104           this is a call to begin the disconnect process for this connection.
     1166     6105        */
     1167     6106    1      IF CLOCK_ID.TIMER = %K_TTIMER_PSEUDO

   6106   0 000029  D806                                 LDR,R5   ,B6
          0 00002A  D570 00FF                            AND,R5   255,IMO
          0 00002C  5D04                                 CMV,R5   4
          0 00002D  0981 001E                            BNE      s:6116,PREL

     1168     6107    2      THEN DO;

     1169     6108    2           CALL I$WINDOW_STOP;

   6108   0 00002F  E3C0 01C4                            LNJ,B6   s:0,PREL
          0 000031       0001                            DC       s:6109,PREL

     1170     6109    2           CALL I$INACTIVITY_STOP;

   6109   0 000032  E3C0 01D5                            LNJ,B6   s:0,PREL
          0 000034       0001                            DC       s:6110,PREL

     1171     6110    2           CALL GHS$CANCEL_TMR (KN$TCTX.TMR_RETRAN);

   6110   0 000035  ECC7 0006                            LDB,B6   CTX$,AUTO
          0 000037  DBC6 0050                            LAB,B5   80,B6
          0 000039  DFC7 002E                            STB,B5   KN$NETPARM+36,AUTO
PL6.E3A0      #008=KNT$TTIMER File=KNT$MISC.:E05TSI                              WED 07/30/97 01:11 Page:191
          0 00003B  BBC7 002E                            LAB,B3   KN$NETPARM+36,AUTO
          0 00003D  CBF0 0100                            LAB,B4   256,IMO
          0 00003F  E380 0000 0000  xent                 LNJ,B6   GHS$CANCEL_TMR
          0 000042       0001                            DC       s:6112,PREL

     1172     6111
     1173     6112    2           KN$TCTX.ERR = %K_ERROR_RESTART;

   6112   0 000043  E870 00F6                            LDR,R6   246,IMO
          0 000045  ECC7 0006                            LDB,B6   CTX$,AUTO
          0 000047  EAC6 000E                            SRM,R6,'00FF'X    14,B6
          0 000049       00FF

     1174     6113    2           GOTO INIT_RELEASE;

   6113   0 00004A  0F81 0062                            B        s:6161,PREL

     1175     6114    2           END;
     1176     6115
     1177     6116    1      KN$TCTX.TMR_COUNT(CLOCK_ID.TIMER) = KN$TCTX.TMR_COUNT(CLOCK_ID.TIMER) +1;

   6116   0 00004C  B855                                 LDR,R3   R5
          0 00004D  CBC5 004E                            LAB,B4   78,B5
          0 00004F  C2B4                                 LLH,R4   ,B4,R3
          0 000050  4E01                                 ADV,R4   1
          0 000051  CBC5 004E                            LAB,B4   78,B5
          0 000053  C7B4                                 STH,R4   ,B4,R3

     1178     6117
     1179     6118        /* When the retran timer expires after the maximum number of transmissions
     1180     6119           we wait one final time to provide a higher probability of receiving
     1181     6120           an ack before entering the release phase.  We do this for any possible
     1182     6121           state of the transport connection.
     1183     6122        */
     1184     6123    1      IF CLOCK_ID.TIMER = %K_TTIMER_RETRAN

   6123   0 000054  8286                                 LB,'00FF'X        ,B6
PL6.E3A0      #008=KNT$TTIMER File=KNT$MISC.:E05TSI                              WED 07/30/97 01:11 Page:192
   6123   0 000055       00FF
          0 000056  0501 0106                            BBT      s:6257,PREL

     1185     6124    2      THEN DO;

     1186     6125    2           IF KN$TCTX.CLASS ~= 4

   6125   0 000058  DCC7 0006                            LDB,B5   CTX$,AUTO
          0 00005A  E2C5 0005                            LLH,R6   5,B5
          0 00005C  6D04                                 CMV,R6   4
          0 00005D  0901 0004                            BE       s:6128,PREL

     1187     6126    2           THEN CALL I$TIMER_SCREECH;

   6126   0 00005F  E3C0 01BC                            LNJ,B6   s:0,PREL
          0 000061       0001                            DC       s:6128,PREL

     1188     6127
     1189     6128    2           IF KN$TCTX.SEND_RETRY_COUNT = KNT_MAX_RETRY

   6128   0 000062  ECC7 0006                            LDB,B6   CTX$,AUTO
          0 000064  E2C6 004D                            LLH,R6   77,B6
          0 000066  E900 0000 0000  xsym                 CMR,R6   KNT_MAX_RETRY
          0 000069  0981 000E                            BNE      s:6140,PREL

     1190     6129    3           THEN DO;

     1191     6130    3   WAIT_T1:
     1192     6131    3                KN$TCTX.SEND_RETRY_COUNT = KN$TCTX.SEND_RETRY_COUNT + 1;

   6131   0 00006B  ECC7 0006            WAIT_T1         LDB,B6   CTX$,AUTO
          0 00006D  E2C6 004D                            LLH,R6   77,B6
          0 00006F  6E01                                 ADV,R6   1
          0 000070  E7C6 004D                            STH,R6   77,B6

     1193     6132    3                CALL I$RETRAN_START;

PL6.E3A0      #008=KNT$TTIMER File=KNT$MISC.:E05TSI                              WED 07/30/97 01:11 Page:193
   6132   0 000072  E3C0 016D                            LNJ,B6   s:0,PREL
          0 000074       0001                            DC       s:6133,PREL

     1194     6133    3                RETURN;

   6133   0 000075  C380 0000 0000  xent                 LNJ,B4   X6A_ARET

     1195     6134    3                END;
     1196     6135
     1197     6136        /* If the transport connection is in the OPEN state when the retran
     1198     6137           timer expires, the first un-acked tpdu in the window is retransmitted,
     1199     6138           the retry_count is bumped and the retran timer is restarted.
     1200     6139        */
     1201     6140    2           IF KN$TCTX.STATE = %K_TSTATE_OPEN

   6140   0 000078  D286                                 LLH,R5   ,B6
          0 000079  5D05                                 CMV,R5   5
          0 00007A  0981 00A0                            BNE      s:6198,PREL

     1202     6141    3           THEN DO;

     1203     6142    3                IF KN$TCTX.SEND_RETRY_COUNT < KNT_MAX_RETRY

   6142   0 00007C  E900 0000 0000  xsym                 CMR,R6   KNT_MAX_RETRY
          0 00007F  0281 001B                            BGE      s:6158,PREL

     1204     6143    4                THEN DO;

     1205     6144    4   RETRANSMIT_TPDU:
     1206     6145    4                     CALL KNT$RETRANS(KN$NETPARM);

   6145   0 000081  EBC7 000A            RETRANSMIT_TPDU LAB,B6   KN$NETPARM,AUTO
          0 000083  EFC7 002E                            STB,B6   KN$NETPARM+36,AUTO
          0 000085  BBC7 002E                            LAB,B3   KN$NETPARM+36,AUTO
          0 000087  CBF0 0100                            LAB,B4   256,IMO
          0 000089  E380 0000 0000  xent                 LNJ,B6   KNT$RETRANS
          0 00008C       0001                            DC       s:6146,PREL
PL6.E3A0      #008=KNT$TTIMER File=KNT$MISC.:E05TSI                              WED 07/30/97 01:11 Page:194

     1207     6146    4                     IF KN$TCTX.SEND_HEAD$ = ADDR(NIL) AND

   6146   0 00008D  ECC7 0006                            LDB,B6   CTX$,AUTO
          0 00008F  8DC6 003A                            CMN      58,B6
          0 000091  0981 0008                            BNE      s:6149,PREL
          0 000093  8DC6 0040                            CMN      64,B6
          0 000095  0981 0004                            BNE      s:6149,PREL

     1208     6147    4                       KN$TCTX.SEND_EHEAD$ = ADDR(NIL)
     1209     6148    4                     THEN RETURN;

   6148   0 000097  C380 0000 0000  xent                 LNJ,B4   X6A_ARET

     1210     6149    4                     GOTO WAIT_T1;

   6149   0 00009A  0FD1                                 B        s:6129,SPREL

     1211     6150    4                     END;
     1212     6151
     1213     6152        /* After the maximum number of retries, we begin the release procedure.
     1214     6153           The window and inactivity timers are stopped and the transport
     1215     6154           state is set to CLOSING.  A disconnect request tpdu is sent to
     1216     6155           the other endpoint and we reset the retran timer and retry count
     1217     6156           to try to get a response to the disconnect request.
     1218     6157        */
     1219     6158    3                CALL I$WINDOW_STOP;

   6158   0 00009B  E3C0 0158                            LNJ,B6   s:0,PREL
          0 00009D       0001                            DC       s:6159,PREL

     1220     6159    3                CALL I$INACTIVITY_STOP;

   6159   0 00009E  E3C0 0169                            LNJ,B6   s:0,PREL
          0 0000A0       0001                            DC       s:6143,PREL

   6143   0                              INIT_RELEASE0   null
PL6.E3A0      #008=KNT$TTIMER File=KNT$MISC.:E05TSI                              WED 07/30/97 01:11 Page:195
     1221     6160    3   INIT_RELEASE0: ;
     1222     6161    3                IF KN$TCTX.ERR = 0

   6161   0 0000A1  ECC7 0006            INIT_RELEASE0   LDB,B6   CTX$,AUTO
          0 0000A3  82C6 000E                            LB,'00FF'X        14,B6
          0 0000A5       00FF
          0 0000A6  0501 0006                            BBT      s:6161,PREL

     1223     6162    3                THEN KN$TCTX.ERR = %K_ERROR_RETRAN;

   6162   0 0000A8  E870 00DD                            LDR,R6   221,IMO
          0 0000AA  EAC6 000E                            SRM,R6,'00FF'X    14,B6
          0 0000AC       00FF

   6161   0                              INIT_RELEASE    null
     1224     6163
     1225     6164    3   INIT_RELEASE: ;
     1226     6165    3                KN$TCTX.STATE = %K_TSTATE_CLOSING;

   6165   0 0000AD  6C08                 INIT_RELEASE    LDV,R6   8
          0 0000AE  ECC7 0006                            LDB,B6   CTX$,AUTO
          0 0000B0  E786                                 STH,R6   ,B6

     1227     6166    3                CALL KNT$RLS_CHAIN(KN$TCTX);

   6166   0 0000B1  BBC7 0006                            LAB,B3   CTX$,AUTO
          0 0000B3  CBF0 0100                            LAB,B4   256,IMO
          0 0000B5  E380 0000 0000  xent                 LNJ,B6   KNT$RLS_CHAIN
          0 0000B8       0001                            DC       s:6168,PREL

     1228     6167
     1229     6168    3                IF KN$TCTX.PRIMARY

   6168   0 0000B9  ECC7 0006                            LDB,B6   CTX$,AUTO
          0 0000BB  82C6 000D                            LB,'0001'X        13,B6
          0 0000BD       0001
          0 0000BE  0581 001F                            BBF      s:6177,PREL
PL6.E3A0      #008=KNT$TTIMER File=KNT$MISC.:E05TSI                              WED 07/30/97 01:11 Page:196

     1230     6169    4                THEN DO;

     1231     6170    4                     KN$NETPARM.FUNCTION = %KN_FCN_TERM;

   6170   0 0000C0  6C03                                 LDV,R6   3
          0 0000C1  EF47 001E                            STR,R6   KN$NETPARM+20,AUTO

     1232     6171    4                     KN$NETPARM.TCTX_ID = KN$TCTX.SRC_REF;

   6171   0 0000C3  D846 0002                            LDR,R5   2,B6
          0 0000C5  DF47 001B                            STR,R5   KN$NETPARM+17,AUTO

     1233     6172    4                     CALL KNS$RECV(KN$NETPARM);

   6172   0 0000C7  DBC7 000A                            LAB,B5   KN$NETPARM,AUTO
          0 0000C9  DFC7 002E                            STB,B5   KN$NETPARM+36,AUTO
          0 0000CB  BBC7 002E                            LAB,B3   KN$NETPARM+36,AUTO
          0 0000CD  CBF0 0100                            LAB,B4   256,IMO
          0 0000CF  E380 0000 0000  xent                 LNJ,B6   KNS$RECV
          0 0000D2       0001                            DC       s:6173,PREL

     1234     6173    4                     KN$NETPARM.NODE = KN$TCTX.NODE;

   6173   0 0000D3  ECC7 0006                            LDB,B6   CTX$,AUTO
          0 0000D5  E806                                 LDR,R6   ,B6
          0 0000D6  E570 00FF                            AND,R6   255,IMO
          0 0000D8  EF47 001F                            STR,R6   KN$NETPARM+21,AUTO

     1235     6174    4                     KN$NETPARM.TCTX$ = CTX$;

   6174   0 0000DA  EFC7 0025                            STB,B6   KN$NETPARM+27,AUTO

     1236     6175    4                     END;

   6175   0 0000DC  0F81 000D                            B        s:6180,PREL

PL6.E3A0      #008=KNT$TTIMER File=KNT$MISC.:E05TSI                              WED 07/30/97 01:11 Page:197
     1237     6176    4                ELSE DO;

     1238     6177    4                     CALL KNT$SEND_DR_HOST(KN$NETPARM);

   6177   0 0000DE  DBC7 000A                            LAB,B5   KN$NETPARM,AUTO
          0 0000E0  DFC7 002E                            STB,B5   KN$NETPARM+36,AUTO
          0 0000E2  BBC7 002E                            LAB,B3   KN$NETPARM+36,AUTO
          0 0000E4  CBF0 0100                            LAB,B4   256,IMO
          0 0000E6  E380 0000 0000  xent                 LNJ,B6   KNT$SEND_DR_HOST
          0 0000E9       0001                            DC       s:6180,PREL

     1239     6178    4                     END;

     1240     6179
     1241     6180    3                IF KN$TCTX.LNK$ ~= ADDR(NIL)

   6180   0 0000EA  ECC7 0006                            LDB,B6   CTX$,AUTO
          0 0000EC  8DC6 0006                            CMN      6,B6
          0 0000EE  0901 000D                            BE       s:6183,PREL

     1242     6181    3                THEN CALL KNT$UNQ_FLOW(KN$TCTX.LNK$);

   6181   0 0000F0  DBC6 0006                            LAB,B5   6,B6
          0 0000F2  DFC7 002E                            STB,B5   KN$NETPARM+36,AUTO
          0 0000F4  BBC7 002E                            LAB,B3   KN$NETPARM+36,AUTO
          0 0000F6  CBF0 0100                            LAB,B4   256,IMO
          0 0000F8  E380 0000 0000  xent                 LNJ,B6   KNT$UNQ_FLOW
          0 0000FB       0001                            DC       s:6183,PREL

     1243     6182
     1244     6183    3                IF KN$TCTX.ERR = %K_ERROR_RESTART

   6183   0 0000FC  ECC7 0006                            LDB,B6   CTX$,AUTO
          0 0000FE  E846 000E                            LDR,R6   14,B6
          0 000100  E570 00FF                            AND,R6   255,IMO
          0 000102  E970 00F6                            CMR,R6   246,IMO
          0 000104  0901 0032                            BE       s:6220,PREL
PL6.E3A0      #008=KNT$TTIMER File=KNT$MISC.:E05TSI                              WED 07/30/97 01:11 Page:198

     1245     6184    3                THEN GOTO END_IT;
     1246     6185
     1247     6186    3                KN$TCTX.SEND_RETRY_COUNT = 1;

   6186   0 000106  5C01                                 LDV,R5   1
          0 000107  D7C6 004D                            STH,R5   77,B6

     1248     6187
     1249     6188    3                CALL KNT$SEND_DR(KN$NETPARM);

   6188   0 000109  DBC7 000A                            LAB,B5   KN$NETPARM,AUTO
          0 00010B  DFC7 002E                            STB,B5   KN$NETPARM+36,AUTO
          0 00010D  BBC7 002E                            LAB,B3   KN$NETPARM+36,AUTO
          0 00010F  CBF0 0100                            LAB,B4   256,IMO
          0 000111  E380 0000 0000  xent                 LNJ,B6   KNT$SEND_DR
          0 000114       0001                            DC       s:6189,PREL

     1250     6189    3                CALL I$RETRAN_START;

   6189   0 000115  E3C0 00CA                            LNJ,B6   s:0,PREL
          0 000117       0001                            DC       s:6191,PREL

     1251     6190
     1252     6191    3                RETURN;

   6191   0 000118  C380 0000 0000  xent                 LNJ,B4   X6A_ARET

     1253     6192    3                END/*do if open*/;
     1254     6193
     1255     6194        /* If the retran timer expires while waiting for an ACK to our TPDU_CC,
     1256     6195           we retransmit the TPDU_CC and restart the timer.  After the
     1257     6196           maximum number of retries, the release procedure is initiated.
     1258     6197        */
     1259     6198    2           IF KN$TCTX.STATE = %K_TSTATE_AKWAIT

   6198   0 00011B  5D07                                 CMV,R5   7
PL6.E3A0      #008=KNT$TTIMER File=KNT$MISC.:E05TSI                              WED 07/30/97 01:11 Page:199
          0 00011C  0981 0008                            BNE      s:6211,PREL

     1260     6199    3           THEN DO;

     1261     6200    3                IF KN$TCTX.SEND_RETRY_COUNT < KNT_MAX_RETRY

   6200   0 00011E  E900 0000 0000  xsym                 CMR,R6   KNT_MAX_RETRY
          0 000121  0201 FF5F                            BL       s:6143,PREL

     1262     6201    3                THEN GOTO RETRANSMIT_TPDU;
     1263     6202    3                ELSE GOTO INIT_RELEASE0;

   6202   0 000123  0F81 FF7D                            B        s:6143,PREL

     1264     6203    3                END/*do fi akwait*/;
     1265     6204
     1266     6205        /*  If the retran timer expires when the state is CLOSING, after the
     1267     6206            usual number of retires to transmit the disconnect request, the
     1268     6207            state of the connection is set to REFWAIT, and the reference timer
     1269     6208            is started so we can discared any tpdus that belong to this connection
     1270     6209            that may leak through the network.
     1271     6210        */
     1272     6211    2           IF KN$TCTX.STATE = %K_TSTATE_CLOSING

   6211   0 000125  5D08                                 CMV,R5   8
          0 000126  0981 001B                            BNE      s:6231,PREL

     1273     6212    3           THEN DO;

     1274     6213    3                IF KN$TCTX.CLASS ~= 4 THEN GOTO END_IT;

   6213   0 000128  C2C6 0005                            LLH,R4   5,B6
          0 00012A  4D04                                 CMV,R4   4
          0 00012B  0981 000B                            BNE      s:6220,PREL

     1275     6214
     1276     6215    3                IF KN$TCTX.SEND_RETRY_COUNT < KNT_MAX_RETRY
PL6.E3A0      #008=KNT$TTIMER File=KNT$MISC.:E05TSI                              WED 07/30/97 01:11 Page:200

   6215   0 00012D  E900 0000 0000  xsym                 CMR,R6   KNT_MAX_RETRY
          0 000130  0281 0006                            BGE      s:6220,PREL

     1277     6216    4                THEN DO;

     1278     6217    4                     KN$TCTX.SEND_RETRY_COUNT = KN$TCTX.SEND_RETRY_COUNT + 1;

   6217   0 000132  6E01                                 ADV,R6   1
          0 000133  E7C6 004D                            STH,R6   77,B6

     1279     6218    4                     GOTO RETRANSMIT_TPDU;

   6218   0 000135  0F81 FF4B                            B        s:6143,PREL

     1280     6219    4                     END;
     1281     6220    4                ELSE DO;

     1282     6221    4   END_IT:
     1283     6222    4                     CALL KNT$SET_REFWAIT (KN$TCTX);

   6222   0 000137  BBC7 0006            END_IT          LAB,B3   CTX$,AUTO
          0 000139  CBF0 0100                            LAB,B4   256,IMO
          0 00013B  E380 0000 0000  xent                 LNJ,B6   KNT$SET_REFWAIT
          0 00013E       0001                            DC       s:6224,PREL

     1284     6223    4                     END;

     1285     6224    3                RETURN;

   6224   0 00013F  C380 0000 0000  xent                 LNJ,B4   X6A_ARET

     1286     6225    3                END/*do if closing*/;
     1287     6226
     1288     6227        /* If the retran timer expires while we are waiting for the connect
     1289     6228           confirm, we retransmit the tpdu_cr the standare number of times
     1290     6229           and then initiate the r3lease procedures.
PL6.E3A0      #008=KNT$TTIMER File=KNT$MISC.:E05TSI                              WED 07/30/97 01:11 Page:201
     1291     6230        */
     1292     6231    2           IF KN$TCTX.STATE = %K_TSTATE_WFCC

   6231   0 000142  5D03                                 CMV,R5   3
          0 000143  0901 0007                            BE       s:6235,PREL
          0 000145  5D04                                 CMV,R5   4
          0 000146  0901 0004                            BE       s:6235,PREL
          0 000148  5D0A                                 CMV,R5   10
          0 000149  0981 000D                            BNE      s:6247,PREL

     1293     6232    2             OR KN$TCTX.STATE = %K_TSTATE_WBCL
     1294     6233    2             OR KN$TCTX.STATE = %K_TSTATE_WFCC_R
     1295     6234    3           THEN DO;

     1296     6235    3                IF KN$TCTX.SEND_RETRY_COUNT < KNT_MAX_RETRY

   6235   0 00014B  E900 0000 0000  xsym                 CMR,R6   KNT_MAX_RETRY
          0 00014E  0201 FF32                            BL       s:6143,PREL

     1297     6236    3                THEN GOTO RETRANSMIT_TPDU;
     1298     6237    4                ELSE DO;

     1299     6238    4                     KN$TCTX.ERR = %K_ERROR_CONNECT_TO;

   6238   0 000150  C870 00DC                            LDR,R4   220,IMO
          0 000152  CAC6 000E                            SRM,R4,'00FF'X    14,B6
          0 000154       00FF

     1300     6239                                                /* Connection establishment timed out */
     1301     6240    4                     GOTO INIT_RELEASE;

   6240   0 000155  0F81 FF57                            B        s:6161,PREL

     1302     6241    4                     END;
     1303     6242    3                END/*do if wfcc or wbcl*/;
     1304     6243
     1305     6244        /* If the retrans timer expires while the transport connection is in
PL6.E3A0      #008=KNT$TTIMER File=KNT$MISC.:E05TSI                              WED 07/30/97 01:11 Page:202
     1306     6245           any other state, simply ignore it.
     1307     6246        */
     1308     6247    2           CALL I$TIMER_SCREECH;

   6247   0 000157  E3C0 00C4                            LNJ,B6   s:0,PREL
          0 000159       0001                            DC       s:6248,PREL

     1309     6248    2           RETURN;

   6248   0 00015A  C380 0000 0000  xent                 LNJ,B4   X6A_ARET

     1310     6249
     1311     6250    2           END/*do if timer_retran*/;
     1312     6251
     1313     6252        %EJECT;
PL6.E3A0      #008=KNT$TTIMER File=KNT$MISC.:E05TSI                              WED 07/30/97 01:11 Page:203
     1314     6253        /* When the reference timer expires, the transport connection is
     1315     6254           marked CLOSED and the context block is returned to the chain of
     1316     6255           free entries.
     1317     6256        */
     1318     6257    1      IF CLOCK_ID.TIMER = %K_TTIMER_REFERENCE

   6257   0 00015D  E806                                 LDR,R6   ,B6
          0 00015E  E570 00FF                            AND,R6   255,IMO
          0 000160  6D03                                 CMV,R6   3
          0 000161  0981 001D                            BNE      s:6274,PREL

     1319     6258    2      THEN DO;

     1320     6259    2           IF KN$TCTX.STATE = %K_TSTATE_REFWAIT

   6259   0 000163  DCC7 0006                            LDB,B5   CTX$,AUTO
          0 000165  C285                                 LLH,R4   ,B5
          0 000166  4D01                                 CMV,R4   1
          0 000167  0981 0011                            BNE      s:6264,PREL

     1321     6260    3           THEN DO;

     1322     6261    3                KN$TCTX.STATE = %K_TSTATE_CLOSED;

   6261   0 000169  2C02                                 LDV,R2   2
          0 00016A  A785                                 STH,R2   ,B5

     1323     6262    3                CALL KNA$RELTCTX(CTX$);

   6262   0 00016B  DBC7 0006                            LAB,B5   CTX$,AUTO
          0 00016D  DFC7 002E                            STB,B5   KN$NETPARM+36,AUTO
          0 00016F  BBC7 002E                            LAB,B3   KN$NETPARM+36,AUTO
          0 000171  CBF0 0100                            LAB,B4   256,IMO
          0 000173  E380 0000 0000  xent                 LNJ,B6   KNA$RELTCTX
          0 000176       0001                            DC       s:6263,PREL

     1324     6263    3                END;
PL6.E3A0      #008=KNT$TTIMER File=KNT$MISC.:E05TSI                              WED 07/30/97 01:11 Page:204

   6263   0 000177  0F81 0004                            B        s:6265,PREL

     1325     6264    2           ELSE CALL I$TIMER_SCREECH;

   6264   0 000179  E3C0 00A2                            LNJ,B6   s:0,PREL
          0 00017B       0001                            DC       s:6265,PREL

     1326     6265    2           RETURN;

   6265   0 00017C  C380 0000 0000  xent                 LNJ,B4   X6A_ARET

     1327     6266    2           END;
     1328     6267
     1329     6268        %EJECT;
PL6.E3A0      #008=KNT$TTIMER File=KNT$MISC.:E05TSI                              WED 07/30/97 01:11 Page:205
     1330     6269        /* If the window timer or the inactivity timer expires while the
     1331     6270           the timer is in any state but open, it is ignored.
     1332     6271           Otherwise, send an Ack tpdu when the window timer expires and
     1333     6272           initiate the release procedures when the inactivity timer expries.
     1334     6273        */
     1335     6274    1      IF KN$TCTX.STATE ~= %K_TSTATE_OPEN

   6274   0 00017F  DCC7 0006                            LDB,B5   CTX$,AUTO
          0 000181  C285                                 LLH,R4   ,B5
          0 000182  4D05                                 CMV,R4   5
          0 000183  0901 0004                            BE       s:6277,PREL

     1336     6275    1      THEN RETURN;

   6275   0 000185  C380 0000 0000  xent                 LNJ,B4   X6A_ARET

     1337     6276
     1338     6277    1      IF KN$TCTX.CLASS ~= 4

   6277   0 000188  A2C5 0005                            LLH,R2   5,B5
          0 00018A  2D04                                 CMV,R2   4
          0 00018B  0901 0004                            BE       s:6280,PREL

     1339     6278    1      THEN CALL I$TIMER_SCREECH;

   6278   0 00018D  E3C0 008E                            LNJ,B6   s:0,PREL
          0 00018F       0001                            DC       s:6280,PREL

     1340     6279
     1341     6280    1      IF CLOCK_ID.TIMER = %K_TTIMER_WINDOW

   6280   0 000190  ECC7 0004                            LDB,B6   @CLOCK_ID,AUTO
          0 000192  E806                                 LDR,R6   ,B6
          0 000193  E570 00FF                            AND,R6   255,IMO
          0 000195  6D01                                 CMV,R6   1
          0 000196  0981 001E                            BNE      s:6288,PREL

PL6.E3A0      #008=KNT$TTIMER File=KNT$MISC.:E05TSI                              WED 07/30/97 01:11 Page:206
     1342     6281    2      THEN DO;

     1343     6282    2           CALL KNT$SEND_AK(KN$NETPARM);

   6282   0 000198  DBC7 000A                            LAB,B5   KN$NETPARM,AUTO
          0 00019A  DFC7 002E                            STB,B5   KN$NETPARM+36,AUTO
          0 00019C  BBC7 002E                            LAB,B3   KN$NETPARM+36,AUTO
          0 00019E  CBF0 0100                            LAB,B4   256,IMO
          0 0001A0  E380 0000 0000  xent                 LNJ,B6   KNT$SEND_AK
          0 0001A3       0001                            DC       s:6283,PREL

     1344     6283    2           CALL GHS$SET_TMR (KN$TCTX.TMR_WINDOW);

   6283   0 0001A4  ECC7 0006                            LDB,B6   CTX$,AUTO
          0 0001A6  DBC6 005A                            LAB,B5   90,B6
          0 0001A8  DFC7 002E                            STB,B5   KN$NETPARM+36,AUTO
          0 0001AA  BBC7 002E                            LAB,B3   KN$NETPARM+36,AUTO
          0 0001AC  CBF0 0100                            LAB,B4   256,IMO
          0 0001AE  E380 0000 0000  xent                 LNJ,B6   GHS$SET_TMR
          0 0001B1       0001                            DC       s:6284,PREL

     1345     6284    2           RETURN;

   6284   0 0001B2  C380 0000 0000  xent                 LNJ,B4   X6A_ARET

     1346     6285    2           END;
     1347     6286
     1348     6287
     1349     6288    1      IF CLOCK_ID.TIMER = %K_TTIMER_INACTIVITY

   6288   0 0001B5  6D02                                 CMV,R6   2
          0 0001B6  0981 0023                            BNE      s:6301,PREL

     1350     6289    2      THEN DO;

     1351     6290    2           IF NOT KN$TCTX.OPTION.OSI

PL6.E3A0      #008=KNT$TTIMER File=KNT$MISC.:E05TSI                              WED 07/30/97 01:11 Page:207
   6290   0 0001B8  DCC7 0006                            LDB,B5   CTX$,AUTO
          0 0001BA  82C5 000C                            LB,'0010'X        12,B5
          0 0001BC       0010
          0 0001BD  0501 0010                            BBT      s:6296,PREL

     1352     6291    3           THEN DO;

     1353     6292    3                CALL GHS$SET_TMR (KN$TCTX.TMR_INACTIVITY);

   6292   0 0001BF  CBC5 0064                            LAB,B4   100,B5
          0 0001C1  CFC7 002E                            STB,B4   KN$NETPARM+36,AUTO
          0 0001C3  BBC7 002E                            LAB,B3   KN$NETPARM+36,AUTO
          0 0001C5  CBF0 0100                            LAB,B4   256,IMO
          0 0001C7  E380 0000 0000  xent                 LNJ,B6   GHS$SET_TMR
          0 0001CA       0001                            DC       s:6293,PREL

     1354     6293    3                RETURN;

   6293   0 0001CB  C380 0000 0000  xent                 LNJ,B4   X6A_ARET

     1355     6294    3                END;
     1356     6295
     1357     6296    2           CALL I$WINDOW_STOP;

   6296   0 0001CE  E3C0 0025                            LNJ,B6   s:0,PREL
          0 0001D0       0001                            DC       s:6297,PREL

     1358     6297    2           KN$TCTX.ERR = %K_ERROR_INACT_TO;

   6297   0 0001D1  E870 00DE                            LDR,R6   222,IMO
          0 0001D3  ECC7 0006                            LDB,B6   CTX$,AUTO
          0 0001D5  EAC6 000E                            SRM,R6,'00FF'X    14,B6
          0 0001D7       00FF

     1359     6298    2           GOTO INIT_RELEASE;

   6298   0 0001D8  0F81 FED4                            B        s:6161,PREL
PL6.E3A0      #008=KNT$TTIMER File=KNT$MISC.:E05TSI                              WED 07/30/97 01:11 Page:208

     1360     6299    2           END;
     1361     6300
     1362     6301    1      CALL I$TIMER_SCREECH;

   6301   0 0001DA  E3C0 0041                            LNJ,B6   s:0,PREL
          0 0001DC       0001                            DC       s:6303,PREL

     1363     6302
     1364     6303    1      RETURN;

   6303   0 0001DD  C380 0000 0000  xent                 LNJ,B4   X6A_ARET

     1365     6304        %EJECT;
PL6.E3A0      #008=KNT$TTIMER File=KNT$MISC.:E05TSI                              WED 07/30/97 01:11 Page:209
     1366     6305
     1367     6306    1   I$RETRAN_START: PROC;

   6306   0 0001E0  EFC7 002C            I$RETRAN_START  STB,B6   KN$NETPARM+34,AUTO

     1368     6307    2      CALL GHS$SET_TMR (KN$TCTX.TMR_RETRAN);

   6307   0 0001E2  DCC7 0006                            LDB,B5   CTX$,AUTO
          0 0001E4  CBC5 0050                            LAB,B4   80,B5
          0 0001E6  CFC7 002E                            STB,B4   KN$NETPARM+36,AUTO
          0 0001E8  BBC7 002E                            LAB,B3   KN$NETPARM+36,AUTO
          0 0001EA  CBF0 0100                            LAB,B4   256,IMO
          0 0001EC  E380 0000 0000  xent                 LNJ,B6   GHS$SET_TMR
          0 0001EF       0001                            DC       s:6308,PREL

     1369     6308    2      RETURN;

   6308   0 0001F0  ECC7 002C                            LDB,B6   KN$NETPARM+34,AUTO
          0 0001F2  C3C6 0001                            LNJ,B4   1,B6

     1370     6309    2   END I$RETRAN_START;
     1371     6310
     1372     6311    1   I$WINDOW_STOP: PROC;

   6311   0 0001F4  EFC7 002C            I$WINDOW_STOP   STB,B6   KN$NETPARM+34,AUTO

     1373     6312    2      CALL GHS$CANCEL_TMR (KN$TCTX.TMR_WINDOW);

   6312   0 0001F6  DCC7 0006                            LDB,B5   CTX$,AUTO
          0 0001F8  CBC5 005A                            LAB,B4   90,B5
          0 0001FA  CFC7 002E                            STB,B4   KN$NETPARM+36,AUTO
          0 0001FC  BBC7 002E                            LAB,B3   KN$NETPARM+36,AUTO
          0 0001FE  CBF0 0100                            LAB,B4   256,IMO
          0 000200  E380 0000 0000  xent                 LNJ,B6   GHS$CANCEL_TMR
          0 000203       0001                            DC       s:6313,PREL

     1374     6313    2      RETURN;
PL6.E3A0      #008=KNT$TTIMER File=KNT$MISC.:E05TSI                              WED 07/30/97 01:11 Page:210

   6313   0 000204  ECC7 002C                            LDB,B6   KN$NETPARM+34,AUTO
          0 000206  C3C6 0001                            LNJ,B4   1,B6

     1375     6314    2   END I$WINDOW_STOP;
     1376     6315
     1377     6316    1   I$INACTIVITY_STOP: PROC;

   6316   0 000208  EFC7 002C            I$INACTIVITY_ST*STB,B6   KN$NETPARM+34,AUTO

     1378     6317    2      CALL GHS$CANCEL_TMR (KN$TCTX.TMR_INACTIVITY);

   6317   0 00020A  DCC7 0006                            LDB,B5   CTX$,AUTO
          0 00020C  CBC5 0064                            LAB,B4   100,B5
          0 00020E  CFC7 002E                            STB,B4   KN$NETPARM+36,AUTO
          0 000210  BBC7 002E                            LAB,B3   KN$NETPARM+36,AUTO
          0 000212  CBF0 0100                            LAB,B4   256,IMO
          0 000214  E380 0000 0000  xent                 LNJ,B6   GHS$CANCEL_TMR
          0 000217       0001                            DC       s:6318,PREL

     1379     6318    2      RETURN;

   6318   0 000218  ECC7 002C                            LDB,B6   KN$NETPARM+34,AUTO
          0 00021A  C3C6 0001                            LNJ,B4   1,B6

     1380     6319    2   END I$INACTIVITY_STOP;
     1381     6320
     1382     6321
     1383     6322    1   I$TIMER_SCREECH: PROC;

   6322   0 00021C  EFC7 002C            I$TIMER_SCREECH STB,B6   KN$NETPARM+34,AUTO

     1384     6323    2      IF KNT_TIMER_SCREECH ~= 0

   6323   0 00021E  E800 0000 0000  xsym                 LDR,R6   KNT_TIMER_SCREECH
          0 000221  6901 000A                            BEZ,R6   s:6327,PREL

PL6.E3A0      #008=KNT$TTIMER File=KNT$MISC.:E05TSI                              WED 07/30/97 01:11 Page:211
     1385     6324    3      THEN DO;

     1386     6325    3           CALL SCREECH(KNT_SCODE);

   6325   0 000223  BB80 0000 0000  01                   LAB,B3   0
          0 000226  CBF0 0100                            LAB,B4   256,IMO
          0 000228  E380 0000 0000  xent                 LNJ,B6   SCREECH
          0 00022B       0001                            DC       s:6327,PREL

     1387     6326    3           END;

     1388     6327    2      RETURN;

   6327   0 00022C  ECC7 002C                            LDB,B6   KN$NETPARM+34,AUTO
          0 00022E  C3C6 0001                            LNJ,B4   1,B6
     1389     6328    2   END I$TIMER_SCREECH;
     1390     6329    1   END KNT$TTIMER;
     1391     6330        %EOD;

PL6.E3A0      #008=KNT$TTIMER File=KNT$MISC.:E05TSI                              WED 07/30/97 01:11 Page:212
--  Include file information  --

   GH_SCHD_M.:E05TOU  is referenced.
   K_TRANSPORT_M.:E05TOU  is referenced.
   K_TRANSPORT_E.:E05TOU  is referenced.
   KN_DATA_M.:E05TOU  is referenced.
   KNH_MACRO_C.:E05TOU  is referenced.
   K_ADDRESS_M.:E05TOU  is referenced.
   G_LCP6_E.:E05TOU  was found in the system file and is never referenced.
   GT_LCP6_M.:E05TOU  was found in the system file and is never referenced.
   KI_CP6.:E05TOU  was found in the system file and is never referenced.
   GF_LCP6_M.:E05TOU  was found in the system file and is never referenced.
   GM_LCP6_M.:E05TOU  was found in the system file and is never referenced.
   GU_LCP6_M.:E05TOU  was found in the system file and is never referenced.
   GJ_LCP6_M.:E05TOU  was found in the system file and is never referenced.
   GH_LCP6_M.:E05TOU  was found in the system file and is never referenced.
      No diagnostics issued in procedure KNT$TTIMER.
PL6.E3A0      #008=KNT$TTIMER File=KNT$MISC.:E05TSI                              WED 07/30/97 01:11 Page:213

 **** Variables and constants ****

  ****  Auto variables  ****

  ****  Scalars and arrays  ****
HexLoc.c.b A Datatyp(siz) R M Lvl/name                 HexLoc.c.b A Datatyp(siz) R M Lvl/name

     4-0-0/w PTR         r     1 @CLOCK_ID                 *0-0-0/w STRC(16)    r     1 CLOCK_ID
     6-0-0/w PTR         r     1 CTX$                       A-0-0/w STRC(528)   r     1 KN$NETPARM

  ****  SYMREF variables  ****

  ****  Scalars and arrays  ****
HexLoc.c.b A Datatyp(siz) R M Lvl/name                 HexLoc.c.b A Datatyp(siz) R M Lvl/name

     0-0-0/w UBIN(16)    r     1 KNT_MAX_RETRY              0-0-0/w UBIN(32)    r     1 KNT_SCODE
     0-0-0/w UBIN(16)    r     1 KNT_TIMER_SCREECH          0-0-0/w STRC(528)   r     1 KN_NETPARM_INIT
     0-0-0/w PTR         r     1 KN_TCTX$$

  ****  BASED and DCB variables  ****

  ****  Scalars and arrays  ****
HexLoc.c.b A Datatyp(siz) R M Lvl/name                 HexLoc.c.b A Datatyp(siz) R M Lvl/name

     0-0-0/w STRC(2816)  r     1 KN$TCTX
     0-0-0/w PTR         r     1 KN$TCTX$(0:0)


   Procedure KNT$TTIMER requires 560 words for executable code.
   Procedure KNT$TTIMER requires 48 words of local(AUTO) storage.
PL6.E3A0      #008=KNT$TTIMER File=KNT$MISC.:E05TSI                              WED 07/30/97 01:11 Page:214
          *** CROSS REFERENCE LISTING ***
**     DENOTES     IDENTIFIER DEFINITION
<<                 IDENTIFIER'S VALUE SET
>>                 IDENTIFIER'S VALUE USED
<>                 IDENTIFIER SET AND/OR USED
--                 IDENTIFIER REFERENCED
PL6.E3A0      #008=KNT$TTIMER File=KNT$MISC.:E05TSI                              WED 07/30/97 01:11 Page:215
          MINI XREF LISTING

CLOCK_ID
      4845**DCL        16--PROC
CLOCK_ID.TCTX
      4846**DCL      6092>>ASSIGN
CLOCK_ID.TIMER
      4847**DCL      6106>>IF       6116>>ASSIGN   6116>>ASSIGN   6123>>IF       6257>>IF       6280>>IF
      6288>>IF
CTX$
      4850**DCL      5014--IMP-PTR  6092<<ASSIGN   6093>>IF       6100>>ASSIGN   6101>>ASSIGN   6110>>CALL
      6112>>ASSIGN   6116>>ASSIGN   6116>>ASSIGN   6125>>IF       6128>>IF       6131>>ASSIGN   6131>>ASSIGN
      6140>>IF       6142>>IF       6146>>IF       6146>>IF       6161>>IF       6162>>ASSIGN   6165>>ASSIGN
      6166>>CALL     6168>>IF       6171>>ASSIGN   6173>>ASSIGN   6174>>ASSIGN   6180>>IF       6181>>CALL
      6183>>IF       6186>>ASSIGN   6198>>IF       6200>>IF       6211>>IF       6213>>IF       6215>>IF
      6217>>ASSIGN   6217>>ASSIGN   6222>>CALL     6231>>IF       6231>>IF       6231>>IF       6235>>IF
      6238>>ASSIGN   6259>>IF       6261>>ASSIGN   6262<>CALL     6274>>IF       6277>>IF       6283>>CALL
      6290>>IF       6292>>CALL     6297>>ASSIGN   6307>>CALL     6312>>CALL     6317>>CALL
END_IT
      6222**LABEL    6184--GOTO     6213--GOTO
GHS$CANCEL_TMR
      6079**DCL-ENT  6110--CALL     6312--CALL     6317--CALL
GHS$SET_TMR
      6078**DCL-ENT  6283--CALL     6292--CALL     6307--CALL
I$INACTIVITY_STOP
      6316**PROC     6109--CALL     6159--CALL
I$RETRAN_START
      6306**PROC     6132--CALL     6189--CALL
I$TIMER_SCREECH
      6322**PROC     6095--CALL     6126--CALL     6247--CALL     6264--CALL     6278--CALL     6301--CALL
I$WINDOW_STOP
      6311**PROC     6108--CALL     6158--CALL     6296--CALL
INIT_RELEASE
      6161**LABEL    6113--GOTO     6240--GOTO     6298--GOTO
PL6.E3A0      #008=KNT$TTIMER File=KNT$MISC.:E05TSI                              WED 07/30/97 01:11 Page:216
INIT_RELEASE0
      6143**LABEL    6202--GOTO
KN$NETPARM
      4867**DCL      6099<<ASSIGN   6145<>CALL     6172<>CALL     6177<>CALL     6188<>CALL     6282<>CALL
KN$NETPARM.FUNCTION
      4962**DCL      6170<<ASSIGN
KN$NETPARM.MSG$
      4874**DCL      4879--REDEF
KN$NETPARM.NHDR$
      4926**DCL      4927--REDEF
KN$NETPARM.NODE
      4969**DCL      6101<<ASSIGN   6173<<ASSIGN
KN$NETPARM.SHDR$
      4904**DCL      4905--REDEF
KN$NETPARM.TCTX$
      4991**DCL      6100<<ASSIGN   6174<<ASSIGN
KN$NETPARM.TCTX_ID
      4937**DCL      6171<<ASSIGN
KN$NETPARM.THDR$
      4915**DCL      4916--REDEF
KN$NETPARM.UHDR$
      4890**DCL      4891--REDEF
KN$TCTX
      5014**DCL      6166<>CALL     6222<>CALL
KN$TCTX.CLASS
      5080**DCL      6125>>IF       6213>>IF       6277>>IF
KN$TCTX.DST_NSAP.ADDRESS_N
      5899**DCL      5900--REDEF
KN$TCTX.ERR
      5271**DCL      6112<<ASSIGN   6161>>IF       6162<<ASSIGN   6183>>IF       6238<<ASSIGN   6297<<ASSIGN
KN$TCTX.LNK$
      5098**DCL      6180>>IF       6181<>CALL
KN$TCTX.NODE
      5021**DCL      5034--REDEF    6101>>ASSIGN   6173>>ASSIGN
KN$TCTX.OPTION.OSI
      5142**DCL      6290>>IF
PL6.E3A0      #008=KNT$TTIMER File=KNT$MISC.:E05TSI                              WED 07/30/97 01:11 Page:217
KN$TCTX.PRIMARY
      5259**DCL      6168>>IF
KN$TCTX.SEND_EHEAD$
      5500**DCL      6146>>IF
KN$TCTX.SEND_HEAD$
      5475**DCL      6146>>IF
KN$TCTX.SEND_RETRY_COUNT
      5558**DCL      6128>>IF       6131<<ASSIGN   6131>>ASSIGN   6142>>IF       6186<<ASSIGN   6200>>IF
      6215>>IF       6217<<ASSIGN   6217>>ASSIGN   6235>>IF
KN$TCTX.SRC_NSAP.ADDRESS_N
      5835**DCL      5836--REDEF
KN$TCTX.SRC_REF
      5048**DCL      6171>>ASSIGN
KN$TCTX.STATE
      5015**DCL      6140>>IF       6165<<ASSIGN   6198>>IF       6211>>IF       6231>>IF       6231>>IF
      6231>>IF       6259>>IF       6261<<ASSIGN   6274>>IF
KN$TCTX.TMR_COUNT
      5570**DCL      6116<<ASSIGN   6116>>ASSIGN
KN$TCTX.TMR_INACTIVITY
      5653**DCL      6292<>CALL     6317<>CALL
KN$TCTX.TMR_INACTIVITY.ARG
      5655**DCL      5656--REDEF
KN$TCTX.TMR_REFERENCE.ARG
      5685**DCL      5686--REDEF
KN$TCTX.TMR_RETRAN
      5594**DCL      6110<>CALL     6307<>CALL
KN$TCTX.TMR_RETRAN.ARG
      5596**DCL      5597--REDEF
KN$TCTX.TMR_WINDOW
      5623**DCL      6283<>CALL     6312<>CALL
KN$TCTX.TMR_WINDOW.ARG
      5625**DCL      5626--REDEF
KN$TCTX$
      5916**DCL      6092>>ASSIGN
KNA$RELTCTX
      6082**DCL-ENT  6262--CALL
PL6.E3A0      #008=KNT$TTIMER File=KNT$MISC.:E05TSI                              WED 07/30/97 01:11 Page:218
KNS$RECV
      6083**DCL-ENT  6172--CALL
KNT$RETRANS
      6080**DCL-ENT  6145--CALL
KNT$RLS_CHAIN
      6081**DCL-ENT  6166--CALL
KNT$SEND_AK
      6084**DCL-ENT  6282--CALL
KNT$SEND_DR
      6085**DCL-ENT  6188--CALL
KNT$SEND_DR_HOST
      6086**DCL-ENT  6177--CALL
KNT$SET_REFWAIT
      6087**DCL-ENT  6222--CALL
KNT$UNQ_FLOW
      6088**DCL-ENT  6181--CALL
KNT_MAX_RETRY
      5920**DCL      6128>>IF       6142>>IF       6200>>IF       6215>>IF       6235>>IF
KNT_SCODE
      5922**DCL      6325<>CALL
KNT_TIMER_SCREECH
      5921**DCL      6323>>IF
KN_NETPARM_INIT
      5936**DCL      6099>>ASSIGN
KN_NETPARM_INIT.MSG$
      5943**DCL      5948--REDEF
KN_NETPARM_INIT.NHDR$
      5995**DCL      5996--REDEF
KN_NETPARM_INIT.SHDR$
      5973**DCL      5974--REDEF
KN_NETPARM_INIT.THDR$
      5984**DCL      5985--REDEF
KN_NETPARM_INIT.UHDR$
      5959**DCL      5960--REDEF
KN_TCTX$$
      5919**DCL      5916--IMP-PTR  6092>>ASSIGN
PL6.E3A0      #008=KNT$TTIMER File=KNT$MISC.:E05TSI                              WED 07/30/97 01:11 Page:219
RETRANSMIT_TPDU
      6145**LABEL    6201--GOTO     6218--GOTO     6236--GOTO
SCREECH
      6089**DCL-ENT  6325--CALL
WAIT_T1
      6131**LABEL    6149--GOTO

PL6.E3A0      #009=KNT$SET_UNQSESS File=KNT$MISC.:E05TSI                         WED 07/30/97 01:12 Page:220
     1392        1        /*M* KNT$SET_UNQSESS - Handler for KNT_UNQ_LDCT.USER_ENTRY$  */
     1393        2        /*T***********************************************************/
     1394        3        /*T*                                                         */
     1395        4        /*T* Copyright (c) Bull HN Information Systems Inc., 1997    */
     1396        5        /*T*                                                         */
     1397        6        /*T***********************************************************/
     1398        7        /*X* PLM=3,IND=5,ENU=0,ECU=0   */
     1399        8
     1400        9        /*F* NAME: KNT$SET_UNQSESS
     1401       10
     1402       11        The KNT$SET_UNQSESS routine is entered from KNH$SCAN after the
     1403       12        COUPLER has removed items from his RCQ, and transport has his
     1404       13        LDCT queued waiting for space on that queue.
     1405       14
     1406       15        Here we simply set a timer with an interval value of zero that will
     1407       16        cause entry to the KNT$UNQ_SESSION routine when KNH$SCAN is finished.
     1408       17        */
     1409       18        KNT$SET_UNQSESS: PROC;
     1410       19
     1411       20        %INCLUDE GH_SCHD_M;
     1412      164
     1413      165        %GH$TMR_BLK (FPTN=KNT_UNQ_TMR, STCLASS=STATIC, INTERVAL=0, PROC$=KNT$UNQ_SESSION);
     1414      188
     1415      189    1   DCL GHS$SET_TMR ENTRY(1);
     1416      190    1   DCL KNT$UNQ_SESSION ENTRY;
     1417      191
     1418      192    1      CALL GHS$SET_TMR(KNT_UNQ_TMR);
     1419      193    1      RETURN;
     1420      194    1   END KNT$SET_UNQSESS;
     1421      195        %EOD;

PL6.E3A0      #009=KNT$SET_UNQSESS File=KNT$MISC.:E05TSI                         WED 07/30/97 01:12 Page:221
--  Include file information  --

   GH_SCHD_M.:E05TOU  is referenced.
   G_LCP6_E.:E05TOU  was found in the system file and is never referenced.
   GT_LCP6_M.:E05TOU  was found in the system file and is never referenced.
   KI_CP6.:E05TOU  was found in the system file and is never referenced.
   GF_LCP6_M.:E05TOU  was found in the system file and is never referenced.
   GM_LCP6_M.:E05TOU  was found in the system file and is never referenced.
   GU_LCP6_M.:E05TOU  was found in the system file and is never referenced.
   GJ_LCP6_M.:E05TOU  was found in the system file and is never referenced.
   GH_LCP6_M.:E05TOU  was found in the system file and is never referenced.
      No diagnostics issued in procedure KNT$SET_UNQSESS.

   Procedure KNT$SET_UNQSESS requires 17 words for executable code.
   Procedure KNT$SET_UNQSESS requires 4 words of local(AUTO) storage.

PL6.E3A0      #009=KNT$SET_UNQSESS File=KNT$MISC.:E05TSI                         WED 07/30/97 01:12 Page:222

 Object Unit name= KNT$SET_UNQSESS                            File name= KNT$MISC.:E05TOU
 UTS= JUL 30 '97 01:12:11.20 WED                              Compiler= PL-6/E31         Sev=      00
 SharedLib= :SHARED_LCP6_SYSTEM                               Alt SharedLib=


    ****  Control sections  ****

 Sect   Type Bound  Init  Size HexSiz  Section name
    0   Data  even  none    10      A  KNT$SET_UNQSESS
    1   Proc  even  none    17     11  KNT$SET_UNQSESS
    2  RoData even  none     2      2  KNT$SET_UNQSESS

    ****  Entry defs  ****

                              Check   Calling
                             calling  sequence
  Sect HexLoc Primary Altret sequence   type   Parms  Name
     1      0   yes            yes      Std        0  KNT$SET_UNQSESS

  ****  Entry refs  ****

         Check        Calling
        calling       sequence
Altret sequence SRef   type   Args  Name
         yes           Std       0 KNT$UNQ_SESSION
         yes           Std       1 GHS$SET_TMR
                       nStd      0 X6A_AUTO_0
                       nStd      0 X6A_ARET

  ****  Data refs  ****

  Flags:  r = read only, s = secondary
Flgs Name                             Flgs Name                             Flgs Name
r    G$ROS$
PL6.E3A0      #009=KNT$SET_UNQSESS File=KNT$MISC.:E05TSI                         WED 07/30/97 01:12 Page:223


     1392        1        /*M* KNT$SET_UNQSESS - Handler for KNT_UNQ_LDCT.USER_ENTRY$  */
     1393        2        /*T***********************************************************/
     1394        3        /*T*                                                         */
     1395        4        /*T* Copyright (c) Bull HN Information Systems Inc., 1997    */
     1396        5        /*T*                                                         */
     1397        6        /*T***********************************************************/
     1398        7        /*X* PLM=3,IND=5,ENU=0,ECU=0   */
     1399        8
     1400        9        /*F* NAME: KNT$SET_UNQSESS
     1401       10
     1402       11        The KNT$SET_UNQSESS routine is entered from KNH$SCAN after the
     1403       12        COUPLER has removed items from his RCQ, and transport has his
     1404       13        LDCT queued waiting for space on that queue.
     1405       14
     1406       15        Here we simply set a timer with an interval value of zero that will
     1407       16        cause entry to the KNT$UNQ_SESSION routine when KNH$SCAN is finished.
     1408       17        */
     1409       18        KNT$SET_UNQSESS: PROC;

     18   1 000000  D380 0000 0000  xent KNT$SET_UNQSESS LNJ,B5   X6A_AUTO_0
          1 000003       0004 0000                       DC       4,0

     1410       19
     1411       20        %INCLUDE GH_SCHD_M;
     1412      164
     1413      165        %GH$TMR_BLK (FPTN=KNT_UNQ_TMR, STCLASS=STATIC, INTERVAL=0, PROC$=KNT$UNQ_SESSION);
     1414      188
     1415      189    1   DCL GHS$SET_TMR ENTRY(1);
     1416      190    1   DCL KNT$UNQ_SESSION ENTRY;
     1417      191
     1418      192    1      CALL GHS$SET_TMR(KNT_UNQ_TMR);

    192   1 000005  BB80 0000 0000  02                   LAB,B3   0
          1 000008  CBF0 0100                            LAB,B4   256,IMO
          1 00000A  E380 0000 0000  xent                 LNJ,B6   GHS$SET_TMR
          1 00000D       0001                            DC       s:193,PREL
PL6.E3A0      #009=KNT$SET_UNQSESS File=KNT$MISC.:E05TSI                         WED 07/30/97 01:12 Page:224

     1419      193    1      RETURN;

    193   1 00000E  C380 0000 0000  xent                 LNJ,B4   X6A_ARET
     1420      194    1   END KNT$SET_UNQSESS;
     1421      195        %EOD;

PL6.E3A0      #009=KNT$SET_UNQSESS File=KNT$MISC.:E05TSI                         WED 07/30/97 01:12 Page:225
--  Include file information  --

   GH_SCHD_M.:E05TOU  is referenced.
   G_LCP6_E.:E05TOU  was found in the system file and is never referenced.
   GT_LCP6_M.:E05TOU  was found in the system file and is never referenced.
   KI_CP6.:E05TOU  was found in the system file and is never referenced.
   GF_LCP6_M.:E05TOU  was found in the system file and is never referenced.
   GM_LCP6_M.:E05TOU  was found in the system file and is never referenced.
   GU_LCP6_M.:E05TOU  was found in the system file and is never referenced.
   GJ_LCP6_M.:E05TOU  was found in the system file and is never referenced.
   GH_LCP6_M.:E05TOU  was found in the system file and is never referenced.
      No diagnostics issued in procedure KNT$SET_UNQSESS.
PL6.E3A0      #009=KNT$SET_UNQSESS File=KNT$MISC.:E05TSI                         WED 07/30/97 01:12 Page:226

 **** Variables and constants ****

  ****  Section 000  Data  KNT$SET_UNQSESS

  ****  Scalars and arrays  ****
HexLoc.c.b A Datatyp(siz) R M Lvl/name                 HexLoc.c.b A Datatyp(siz) R M Lvl/name

     0-0-0/w STRC(160)   r     1 KNT_UNQ_TMR


   Procedure KNT$SET_UNQSESS requires 17 words for executable code.
   Procedure KNT$SET_UNQSESS requires 4 words of local(AUTO) storage.
PL6.E3A0      #009=KNT$SET_UNQSESS File=KNT$MISC.:E05TSI                         WED 07/30/97 01:12 Page:227
          *** CROSS REFERENCE LISTING ***
**     DENOTES     IDENTIFIER DEFINITION
<<                 IDENTIFIER'S VALUE SET
>>                 IDENTIFIER'S VALUE USED
<>                 IDENTIFIER SET AND/OR USED
--                 IDENTIFIER REFERENCED
PL6.E3A0      #009=KNT$SET_UNQSESS File=KNT$MISC.:E05TSI                         WED 07/30/97 01:12 Page:228
          MINI XREF LISTING

GHS$SET_TMR
       189**DCL-ENT   192--CALL
KNT$UNQ_SESSION
       190**DCL-ENT   183--DCLINIT
KNT_UNQ_TMR
       179**DCL       192<>CALL
KNT_UNQ_TMR.ARG
       183**DCL       184--REDEF

PL6.E3A0      #010=KNT$UNQ File=KNT$MISC.:E05TSI                                 WED 07/30/97 01:12 Page:229
     1422        1        /*M* KNT$UNQ - Unqueue things for transport.   */
     1423        2        /*T***********************************************************/
     1424        3        /*T*                                                         */
     1425        4        /*T* Copyright (c) Bull HN Information Systems Inc., 1997    */
     1426        5        /*T*                                                         */
     1427        6        /*T***********************************************************/
     1428        7        /*X* PLM=3,IND=5,ENU=0,ECU=0   */
     1429        8
     1430        9        /*F* NAME: KNT$UNQ
     1431       10
     1432       11        The KNT$UNQ routine unqueues LDCTs waiting for the transport
     1433       12        connection to open, waiting for transport buffers to become free,
     1434       13        or waiting for space in the COUPLER's RCQ.
     1435       14
     1436       15        KNT$UNQ_BUFFER is called from various transport routines when one
     1437       16        or more transport buffers have been released and KNT_WAIT_COUNT
     1438       17        is non-zero.  We will look at all the transport context blocks to
     1439       18        find those needing a reassemble buffer first, and if any are found,
     1440       19        call KNT$DSESSION for the transport connection.  Next, the chain of
     1441       20        LDCTs that have been queued on the KNT_WAIT_HEAD$ chain to wait for
     1442       21        a free transport buffer will be unqueued.
     1443       22
     1444       23        KNT$UNQ_SESSION is called from the GHS$MONTIMR routine after
     1445       24        transport has been unqued by KNH$SCAN because space has become
     1446       25        available in the COUPLER's RCQ.  We will look at all transport
     1447       26        context blocks to find those with buffered data waiting for space
     1448       27        in the COUPLER's RCQ, and if any are found, call KNT$DSESSION for
     1449       28        the transport connection.
     1450       29
     1451       30        KNT$UNQ_OPEN is called when a TPDU is received for a transport
     1452       31        connection whose state is AKWAIT.  Queuing for open should only
     1453       32        happen for primary connections.  We run the chain of LDCTs that
     1454       33        are queued and call the LDCT.USER_ENTRY$ routine.
     1455       34
     1456       35        KNT$UNQ_FLOW is called after an ACK has been received that opens
     1457       36        up the send window.  This can happen for primary connections or
     1458       37        for intermediate connections if we run out of transport buffers
PL6.E3A0      #010=KNT$UNQ File=KNT$MISC.:E05TSI                                 WED 07/30/97 01:12 Page:230
     1459       38        and cannot move data from the COUPLER's SCQ.  We run the chain of
     1460       39        LDCTs that are queued and call the LDCT.USER_ENTRY$ routine.
     1461       40
     1462       41        */
     1463       42        KNT$UNQ: PROC(HEAD$);
     1464       43
     1465       44        %INCLUDE KN_DATA_M;
     1466     1830        %INCLUDE KNH_MACRO_C;
     1467     2113        %INCLUDE K_ADDRESS_M;
     1468     2616        %INCLUDE GH_SCHD_M;
     1469     2760
     1470     2761                                                /* Input parameters                   */
     1471     2762    1   DCL HEAD$ PTR;
     1472     2763
     1473     2764                                                /* Auto Storage                       */
     1474     2765    1   DCL LNK$ PTR;
     1475     2766    1   DCL ENTRY_SWITCH UBIN;
     1476     2767    1   DCL TCTX# UBIN;
     1477     2768    1   DCL CTX$ PTR;
     1478     2769        %KN$NETPARM (NAME=KN$NETPARM, STCLASS=AUTO);
     1479     2922
     1480     2923                                                /* Based Structures                   */
     1481     2924    1   DCL KN$TCTX$(0:0) PTR BASED(KN_TCTX$$);
     1482     2925        %K$TCTX (NAME=KN$TCTX, STCLASS="BASED(CTX$)");
     1483     3832        %KN$LDCT (STCLASS="BASED(KN$NETPARM.LDCT$)");
     1484     4077
     1485     4078                                                /* External Data                      */
     1486     4079    1   DCL KNT_WAIT_HEAD$ PTR SYMREF;
     1487     4080    1   DCL KNT_WAIT_COUNT UBIN SYMREF;
     1488     4081    1   DCL KN_TCTX$$ PTR SYMREF;
     1489     4082    1   DCL KN_TCTX_MAX# UBIN SYMREF;
     1490     4083        %KN$NETPARM (NAME=KN_NETPARM_INIT, STCLASS=SYMREF);
     1491     4236
     1492     4237                                                /* External Procedures                */
     1493     4238    1   DCL KNT$DSESSION ENTRY(1) ALTRET;
     1494     4239    1   DCL KNA$RLSLDCT ENTRY(1) ALTRET;
     1495     4240
PL6.E3A0      #010=KNT$UNQ File=KNT$MISC.:E05TSI                                 WED 07/30/97 01:12 Page:231
     1496     4241        %EJECT;
PL6.E3A0      #010=KNT$UNQ File=KNT$MISC.:E05TSI                                 WED 07/30/97 01:12 Page:232
     1497     4242
     1498     4243    1   KNT$UNQ_BUFFER: ENTRY;
     1499     4244    1      ENTRY_SWITCH = 1;
     1500     4245    1      GOTO COMMON_SEARCH;
     1501     4246
     1502     4247    1   KNT$UNQ_SESSION: ENTRY;
     1503     4248    1      ENTRY_SWITCH = 2;
     1504     4249
     1505     4250    1   COMMON_SEARCH: ;
     1506     4251    2      DO TCTX# = 1 TO KN_TCTX_MAX#;
     1507     4252    2           CTX$ = KN$TCTX$(TCTX#);
     1508     4253    2           IF CTX$ ~= ADDR(NIL)
     1509     4254    3           THEN DO;
     1510     4255    3                IF (KN$TCTX.STATE > %K_TSTATE_CLOSED) AND
     1511     4256    3                  ( (KN$TCTX.NEED_ASSMBUF AND ENTRY_SWITCH = 1) OR
     1512     4257    3                  (KN$TCTX.HOST_CQ_FULL AND ENTRY_SWITCH = 2) )
     1513     4258    4                THEN DO;
     1514     4259    4                     KN$NETPARM = KN_NETPARM_INIT;
     1515     4260    4                     KN$NETPARM.FUNCTION = %KN_FCN_DATA;
     1516     4261    4                     KN$NETPARM.TCTX$ = CTX$;
     1517     4262
     1518     4263    4                     KN$TCTX.HOST_CQ_FULL = '0'B;
     1519     4264    4                     KN$TCTX.NEED_ASSMBUF = '0'B;
     1520     4265
     1521     4266    4                     CALL KNT$DSESSION(KN$NETPARM);
     1522     4267
     1523     4268    4                     IF (ENTRY_SWITCH = 2)
     1524     4269    5                     THEN DO;
     1525     4270    5                          IF KN$TCTX.HOST_CQ_FULL THEN RETURN;
     1526     4271    5                          END;
     1527     4272    5                     ELSE DO;
     1528     4273    5                          IF KN$TCTX.NEED_ASSMBUF THEN RETURN;
     1529     4274    5                          KNT_WAIT_COUNT = KNT_WAIT_COUNT -1;
     1530     4275    5                          END;
     1531     4276    4                     END/*do if need assembly buffer*/;
     1532     4277    3                END/*do if ctx$ ~ nil*/;
     1533     4278    2           END/*do 1 to max*/;
PL6.E3A0      #010=KNT$UNQ File=KNT$MISC.:E05TSI                                 WED 07/30/97 01:12 Page:233
     1534     4279
     1535     4280    1      LNK$ = KNT_WAIT_HEAD$;
     1536     4281    1      KNT_WAIT_HEAD$ = ADDR(NIL);
     1537     4282    1      GOTO COMMON;
     1538     4283
     1539     4284
     1540     4285
     1541     4286    1   KNT$UNQ_OPEN: ENTRY(HEAD$);
     1542     4287    1   KNT$UNQ_FLOW: ENTRY(HEAD$);
     1543     4288    1      ENTRY_SWITCH = 0;
     1544     4289    1      LNK$ = HEAD$;
     1545     4290    1      HEAD$ = ADDR(NIL);
     1546     4291    1      GOTO COMMON;
     1547     4292
     1548     4293    1   COMMON: ;
     1549     4294    2      DO WHILE (LNK$ ~= ADDR(NIL) );
     1550     4295    2           KN$NETPARM.FUNCTION = %KN_FCN_UNQ;
     1551     4296    2           KN$NETPARM.LDCT$ = LNK$;
     1552     4297    2           LNK$ = KN$LDCT.LNK$;
     1553     4298    2           KN$LDCT.LNK$ = ADDR(NIL);
     1554     4299    2           KN$LDCT.FLAGS.QUEUED = '0'B;
     1555     4300
     1556     4301    2           IF KN$LDCT.USER_ENTRY$ ~= ENTADDR(NIL)
     1557     4302    2           THEN CALL KN$LDCT.USER_ENTRY$ (KN$NETPARM);
     1558     4303
     1559     4304    2           IF KN$LDCT.FLAGS.REL
     1560     4305    2           THEN CALL KNA$RLSLDCT (KN$NETPARM.LDCT$);
     1561     4306
     1562     4307    2           IF ENTRY_SWITCH = 1
     1563     4308    2           THEN KNT_WAIT_COUNT = KNT_WAIT_COUNT -1;
     1564     4309    2           END;
     1565     4310
     1566     4311    1      RETURN;
     1567     4312    1   END KNT$UNQ;
     1568     4313        %EOD;

PL6.E3A0      #010=KNT$UNQ File=KNT$MISC.:E05TSI                                 WED 07/30/97 01:12 Page:234
--  Include file information  --

   GH_SCHD_M.:E05TOU  is referenced.
   K_ADDRESS_M.:E05TOU  is referenced.
   KNH_MACRO_C.:E05TOU  is referenced.
   KN_DATA_M.:E05TOU  is referenced.
   G_LCP6_E.:E05TOU  was found in the system file and is never referenced.
   GT_LCP6_M.:E05TOU  was found in the system file and is never referenced.
   KI_CP6.:E05TOU  was found in the system file and is never referenced.
   GF_LCP6_M.:E05TOU  was found in the system file and is never referenced.
   GM_LCP6_M.:E05TOU  was found in the system file and is never referenced.
   GU_LCP6_M.:E05TOU  was found in the system file and is never referenced.
   GJ_LCP6_M.:E05TOU  was found in the system file and is never referenced.
   GH_LCP6_M.:E05TOU  was found in the system file and is never referenced.
      No diagnostics issued in procedure KNT$UNQ.

   Procedure KNT$UNQ requires 252 words for executable code.
   Procedure KNT$UNQ requires 48 words of local(AUTO) storage.

PL6.E3A0      #010=KNT$UNQ File=KNT$MISC.:E05TSI                                 WED 07/30/97 01:12 Page:235

 Object Unit name= KNT$UNQ                                    File name= KNT$MISC.:E05TOU
 UTS= JUL 30 '97 01:12:16.68 WED                              Compiler= PL-6/E31         Sev=      00
 SharedLib= :SHARED_LCP6_SYSTEM                               Alt SharedLib=


    ****  Control sections  ****

 Sect   Type Bound  Init  Size HexSiz  Section name
    0   Proc  even  none   252     FC  KNT$UNQ
    1  RoData even  none     2      2  KNT$UNQ

    ****  Entry defs  ****

                              Check   Calling
                             calling  sequence
  Sect HexLoc Primary Altret sequence   type   Parms  Name
     0      0   yes            yes      Std        1  KNT$UNQ
     0      7                  yes      Std        0  KNT$UNQ_BUFFER
     0     11                  yes      Std        0  KNT$UNQ_SESSION
     0     95                  yes      Std        1  KNT$UNQ_OPEN
     0     9C                  yes      Std        1  KNT$UNQ_FLOW

  ****  Entry refs  ****

         Check        Calling
        calling       sequence
Altret sequence SRef   type   Args  Name
 yes     yes           Std       1 KNT$DSESSION
 yes     yes           Std       1 KNA$RLSLDCT
                       nStd      0 X6A_AUTO_1
                       nStd      0 X6A_ARET
PL6.E3A0      #010=KNT$UNQ File=KNT$MISC.:E05TSI                                 WED 07/30/97 01:12 Page:236

  ****  Data refs  ****

  Flags:  r = read only, s = secondary
Flgs Name                             Flgs Name                             Flgs Name
     KNT_WAIT_HEAD$                        KNT_WAIT_COUNT                        KN_TCTX$$
     KN_TCTX_MAX#                          KN_NETPARM_INIT                  r    G$ROS$
PL6.E3A0      #010=KNT$UNQ File=KNT$MISC.:E05TSI                                 WED 07/30/97 01:12 Page:237


     1422        1        /*M* KNT$UNQ - Unqueue things for transport.   */
     1423        2        /*T***********************************************************/
     1424        3        /*T*                                                         */
     1425        4        /*T* Copyright (c) Bull HN Information Systems Inc., 1997    */
     1426        5        /*T*                                                         */
     1427        6        /*T***********************************************************/
     1428        7        /*X* PLM=3,IND=5,ENU=0,ECU=0   */
     1429        8
     1430        9        /*F* NAME: KNT$UNQ
     1431       10
     1432       11        The KNT$UNQ routine unqueues LDCTs waiting for the transport
     1433       12        connection to open, waiting for transport buffers to become free,
     1434       13        or waiting for space in the COUPLER's RCQ.
     1435       14
     1436       15        KNT$UNQ_BUFFER is called from various transport routines when one
     1437       16        or more transport buffers have been released and KNT_WAIT_COUNT
     1438       17        is non-zero.  We will look at all the transport context blocks to
     1439       18        find those needing a reassemble buffer first, and if any are found,
     1440       19        call KNT$DSESSION for the transport connection.  Next, the chain of
     1441       20        LDCTs that have been queued on the KNT_WAIT_HEAD$ chain to wait for
     1442       21        a free transport buffer will be unqueued.
     1443       22
     1444       23        KNT$UNQ_SESSION is called from the GHS$MONTIMR routine after
     1445       24        transport has been unqued by KNH$SCAN because space has become
     1446       25        available in the COUPLER's RCQ.  We will look at all transport
     1447       26        context blocks to find those with buffered data waiting for space
     1448       27        in the COUPLER's RCQ, and if any are found, call KNT$DSESSION for
     1449       28        the transport connection.
     1450       29
     1451       30        KNT$UNQ_OPEN is called when a TPDU is received for a transport
     1452       31        connection whose state is AKWAIT.  Queuing for open should only
     1453       32        happen for primary connections.  We run the chain of LDCTs that
     1454       33        are queued and call the LDCT.USER_ENTRY$ routine.
     1455       34
     1456       35        KNT$UNQ_FLOW is called after an ACK has been received that opens
     1457       36        up the send window.  This can happen for primary connections or
PL6.E3A0      #010=KNT$UNQ File=KNT$MISC.:E05TSI                                 WED 07/30/97 01:12 Page:238
     1458       37        for intermediate connections if we run out of transport buffers
     1459       38        and cannot move data from the COUPLER's SCQ.  We run the chain of
     1460       39        LDCTs that are queued and call the LDCT.USER_ENTRY$ routine.
     1461       40
     1462       41        */
     1463       42        KNT$UNQ: PROC(HEAD$);

     42   0 000000  D380 0000 0000  xent KNT$UNQ         LNJ,B5   X6A_AUTO_1
          0 000003       0030 0001                       DC       48,1
          0 000005  0F81 0006                            B        s:4244,PREL

     1464       43
     1465       44        %INCLUDE KN_DATA_M;
     1466     1830        %INCLUDE KNH_MACRO_C;
     1467     2113        %INCLUDE K_ADDRESS_M;
     1468     2616        %INCLUDE GH_SCHD_M;
     1469     2760
     1470     2761                                                /* Input parameters                   */
     1471     2762    1   DCL HEAD$ PTR;
     1472     2763
     1473     2764                                                /* Auto Storage                       */
     1474     2765    1   DCL LNK$ PTR;
     1475     2766    1   DCL ENTRY_SWITCH UBIN;
     1476     2767    1   DCL TCTX# UBIN;
     1477     2768    1   DCL CTX$ PTR;
     1478     2769        %KN$NETPARM (NAME=KN$NETPARM, STCLASS=AUTO);
     1479     2922
     1480     2923                                                /* Based Structures                   */
     1481     2924    1   DCL KN$TCTX$(0:0) PTR BASED(KN_TCTX$$);
     1482     2925        %K$TCTX (NAME=KN$TCTX, STCLASS="BASED(CTX$)");
     1483     3832        %KN$LDCT (STCLASS="BASED(KN$NETPARM.LDCT$)");
     1484     4077
     1485     4078                                                /* External Data                      */
     1486     4079    1   DCL KNT_WAIT_HEAD$ PTR SYMREF;
     1487     4080    1   DCL KNT_WAIT_COUNT UBIN SYMREF;
     1488     4081    1   DCL KN_TCTX$$ PTR SYMREF;
     1489     4082    1   DCL KN_TCTX_MAX# UBIN SYMREF;
PL6.E3A0      #010=KNT$UNQ File=KNT$MISC.:E05TSI                                 WED 07/30/97 01:12 Page:239
     1490     4083        %KN$NETPARM (NAME=KN_NETPARM_INIT, STCLASS=SYMREF);
     1491     4236
     1492     4237                                                /* External Procedures                */
     1493     4238    1   DCL KNT$DSESSION ENTRY(1) ALTRET;
     1494     4239    1   DCL KNA$RLSLDCT ENTRY(1) ALTRET;
     1495     4240
     1496     4241        %EJECT;
PL6.E3A0      #010=KNT$UNQ File=KNT$MISC.:E05TSI                                 WED 07/30/97 01:12 Page:240
     1497     4242
     1498     4243    1   KNT$UNQ_BUFFER: ENTRY;

   4243   0 000007  D380 0000 0000  xent KNT$UNQ_BUFFER  LNJ,B5   X6A_AUTO_1
          0 00000A       0030 0001                       DC       48,1

     1499     4244    1      ENTRY_SWITCH = 1;

   4244   0 00000C  6C01                                 LDV,R6   1
          0 00000D  EF47 0008                            STR,R6   ENTRY_SWITCH,AUTO

     1500     4245    1      GOTO COMMON_SEARCH;

   4245   0 00000F  0F81 0009                            B        s:4248,PREL

     1501     4246
     1502     4247    1   KNT$UNQ_SESSION: ENTRY;

   4247   0 000011  D380 0000 0000  xent KNT$UNQ_SESSION LNJ,B5   X6A_AUTO_1
          0 000014       0030 0001                       DC       48,1

     1503     4248    1      ENTRY_SWITCH = 2;

   4248   0 000016  6C02                                 LDV,R6   2
          0 000017  EF47 0008                            STR,R6   ENTRY_SWITCH,AUTO

   4248   0                              COMMON_SEARCH   null
     1504     4249
     1505     4250    1   COMMON_SEARCH: ;
     1506     4251    2      DO TCTX# = 1 TO KN_TCTX_MAX#;

   4251   0 000019  5C01                 COMMON_SEARCH   LDV,R5   1
          0 00001A  DF47 0009                            STR,R5   TCTX#,AUTO
          0 00001C  0F81 0064                            B        s:4278+2,PREL

     1507     4252    2           CTX$ = KN$TCTX$(TCTX#);

PL6.E3A0      #010=KNT$UNQ File=KNT$MISC.:E05TSI                                 WED 07/30/97 01:12 Page:241
   4252   0 00001E  EC80 0000 0000  xsym                 LDB,B6   KN_TCTX$$
          0 000021  B847 0009                            LDR,R3   TCTX#,AUTO
          0 000023  DCB6                                 LDB,B5   ,B6,R3
          0 000024  DFC7 000A                            STB,B5   CTX$,AUTO

     1508     4253    2           IF CTX$ ~= ADDR(NIL)

   4253   0 000026  8DC7 000A                            CMN      CTX$,AUTO
          0 000028  0901 0056                            BE       s:4278,PREL

     1509     4254    3           THEN DO;

     1510     4255    3                IF (KN$TCTX.STATE > %K_TSTATE_CLOSED) AND

   4255   0 00002A  E285                                 LLH,R6   ,B5
          0 00002B  6D02                                 CMV,R6   2
          0 00002C  0381 0052                            BLE      s:4278,PREL
          0 00002E  82C5 000D                            LB,'0040'X        13,B5
          0 000030       0040
          0 000031  0581 0006                            BBF      s:4255+14,PREL
          0 000033  D847 0008                            LDR,R5   ENTRY_SWITCH,AUTO
          0 000035  5D01                                 CMV,R5   1
          0 000036  0901 000B                            BE       s:4259,PREL
          0 000038  82C5 000D                            LB,'0008'X        13,B5
          0 00003A       0008
          0 00003B  0581 0043                            BBF      s:4278,PREL
          0 00003D  D847 0008                            LDR,R5   ENTRY_SWITCH,AUTO
          0 00003F  5D02                                 CMV,R5   2
          0 000040  0981 003E                            BNE      s:4278,PREL

     1511     4256    3                  ( (KN$TCTX.NEED_ASSMBUF AND ENTRY_SWITCH = 1) OR
     1512     4257    3                  (KN$TCTX.HOST_CQ_FULL AND ENTRY_SWITCH = 2) )
     1513     4258    4                THEN DO;

     1514     4259    4                     KN$NETPARM = KN_NETPARM_INIT;

   4259   0 000042  AB80 0000 0000  xsym                 LAB,B2   KN_NETPARM_INIT
PL6.E3A0      #010=KNT$UNQ File=KNT$MISC.:E05TSI                                 WED 07/30/97 01:12 Page:242
          0 000045  2C00                                 LDV,R2   0
          0 000046  6C42                                 LDV,R6   66
          0 000047  BB87                                 LAB,B3   ,AUTO
          0 000048  3C18                                 LDV,R3   24
          0 000049  0008                                 MMM

     1515     4260    4                     KN$NETPARM.FUNCTION = %KN_FCN_DATA;

   4260   0 00004A  6C05                                 LDV,R6   5
          0 00004B  EF47 0020                            STR,R6   KN$NETPARM+20,AUTO

     1516     4261    4                     KN$NETPARM.TCTX$ = CTX$;

   4261   0 00004D  ECC7 000A                            LDB,B6   CTX$,AUTO
          0 00004F  EFC7 0027                            STB,B6   KN$NETPARM+27,AUTO

     1517     4262
     1518     4263    4                     KN$TCTX.HOST_CQ_FULL = '0'B;

   4263   0 000051  8846 000D                            LBF,'0008'X       13,B6
   4263   0 000053       0008

     1519     4264    4                     KN$TCTX.NEED_ASSMBUF = '0'B;

   4264   0 000054  8846 000D                            LBF,'0040'X       13,B6
   4264   0 000056       0040

     1520     4265
     1521     4266    4                     CALL KNT$DSESSION(KN$NETPARM);

   4266   0 000057  DBC7 000C                            LAB,B5   KN$NETPARM,AUTO
          0 000059  DFC7 002E                            STB,B5   KN$NETPARM+34,AUTO
          0 00005B  BBC7 002E                            LAB,B3   KN$NETPARM+34,AUTO
          0 00005D  CBF0 0100                            LAB,B4   256,IMO
          0 00005F  E380 0000 0000  xent                 LNJ,B6   KNT$DSESSION
          0 000062       0001                            DC       s:4268,PREL

PL6.E3A0      #010=KNT$UNQ File=KNT$MISC.:E05TSI                                 WED 07/30/97 01:12 Page:243
     1522     4267
     1523     4268    4                     IF (ENTRY_SWITCH = 2)

   4268   0 000063  E847 0008                            LDR,R6   ENTRY_SWITCH,AUTO
          0 000065  6D02                                 CMV,R6   2
          0 000066  0981 000B                            BNE      s:4273,PREL

     1524     4269    5                     THEN DO;

     1525     4270    5                          IF KN$TCTX.HOST_CQ_FULL THEN RETURN;

   4270   0 000068  ECC7 000A                            LDB,B6   CTX$,AUTO
          0 00006A  82C6 000D                            LB,'0008'X        13,B6
          0 00006C       0008
          0 00006D  0581 0011                            BBF      s:4278,PREL

   4270   0 00006F  C380 0000 0000  xent                 LNJ,B4   X6A_ARET

     1526     4271    5                          END;
     1527     4272    5                     ELSE DO;

     1528     4273    5                          IF KN$TCTX.NEED_ASSMBUF THEN RETURN;

   4273   0 000072  ECC7 000A                            LDB,B6   CTX$,AUTO
          0 000074  82C6 000D                            LB,'0040'X        13,B6
          0 000076       0040
          0 000077  0581 0004                            BBF      s:4274,PREL

   4273   0 000079  C380 0000 0000  xent                 LNJ,B4   X6A_ARET

     1529     4274    5                          KNT_WAIT_COUNT = KNT_WAIT_COUNT -1;

   4274   0 00007C  8880 0000 0000  xsym                 DEC      KNT_WAIT_COUNT

     1530     4275    5                          END;

     1531     4276    4                     END/*do if need assembly buffer*/;
PL6.E3A0      #010=KNT$UNQ File=KNT$MISC.:E05TSI                                 WED 07/30/97 01:12 Page:244

     1532     4277    3                END/*do if ctx$ ~ nil*/;

     1533     4278    2           END/*do 1 to max*/;

   4278   0 00007F  8AC7 0009                            INC      TCTX#,AUTO
          0 000081  E847 0009                            LDR,R6   TCTX#,AUTO
          0 000083  E900 0000 0000  xsym                 CMR,R6   KN_TCTX_MAX#
          0 000086  0381 FF97                            BLE      s:4252,PREL

     1534     4279
     1535     4280    1      LNK$ = KNT_WAIT_HEAD$;

   4280   0 000088  EC80 0000 0000  xsym                 LDB,B6   KNT_WAIT_HEAD$
          0 00008B  EFC7 0006                            STB,B6   LNK$,AUTO

     1536     4281    1      KNT_WAIT_HEAD$ = ADDR(NIL);

   4281   0 00008D  DB80 0000 0000                       LAB,B5   0
          0 000090  DF80 0000 0000  xsym                 STB,B5   KNT_WAIT_HEAD$

     1537     4282    1      GOTO COMMON;

   4282   0 000093  0F81 001A                            B        s:4290,PREL

     1538     4283
     1539     4284
     1540     4285
     1541     4286    1   KNT$UNQ_OPEN: ENTRY(HEAD$);

   4286   0 000095  D380 0000 0000  xent KNT$UNQ_OPEN    LNJ,B5   X6A_AUTO_1
          0 000098       0030 0001                       DC       48,1
          0 00009A  0F81 0006                            B        s:4288,PREL

     1542     4287    1   KNT$UNQ_FLOW: ENTRY(HEAD$);

   4287   0 00009C  D380 0000 0000  xent KNT$UNQ_FLOW    LNJ,B5   X6A_AUTO_1
PL6.E3A0      #010=KNT$UNQ File=KNT$MISC.:E05TSI                                 WED 07/30/97 01:12 Page:245
          0 00009F       0030 0001                       DC       48,1

     1543     4288    1      ENTRY_SWITCH = 0;

   4288   0 0000A1  8747 0008                            CL       ENTRY_SWITCH,AUTO

     1544     4289    1      LNK$ = HEAD$;

   4289   0 0000A3  ECC7 0004                            LDB,B6   @HEAD$,AUTO
          0 0000A5  DC86                                 LDB,B5   ,B6
          0 0000A6  DFC7 0006                            STB,B5   LNK$,AUTO

     1545     4290    1      HEAD$ = ADDR(NIL);

   4290   0 0000A8  CB80 0000 0000                       LAB,B4   0
          0 0000AB  CF86                                 STB,B4   ,B6

     1546     4291    1      GOTO COMMON;

   4291   0 0000AC  0F81 0001                            B        s:4290,PREL

   4290   0                              COMMON          null
     1547     4292
     1548     4293    1   COMMON: ;
     1549     4294    2      DO WHILE (LNK$ ~= ADDR(NIL) );

   4294   0 0000AE  0F81 0046            COMMON          B        s:4309,PREL

     1550     4295    2           KN$NETPARM.FUNCTION = %KN_FCN_UNQ;

   4295   0 0000B0  6C08                                 LDV,R6   8
          0 0000B1  EF47 0020                            STR,R6   KN$NETPARM+20,AUTO

     1551     4296    2           KN$NETPARM.LDCT$ = LNK$;

   4296   0 0000B3  ECC7 0006                            LDB,B6   LNK$,AUTO
          0 0000B5  EFC7 000C                            STB,B6   KN$NETPARM,AUTO
PL6.E3A0      #010=KNT$UNQ File=KNT$MISC.:E05TSI                                 WED 07/30/97 01:12 Page:246

     1552     4297    2           LNK$ = KN$LDCT.LNK$;

   4297   0 0000B7  DCC6 0008                            LDB,B5   8,B6
          0 0000B9  DFC7 0006                            STB,B5   LNK$,AUTO

     1553     4298    2           KN$LDCT.LNK$ = ADDR(NIL);

   4298   0 0000BB  CB80 0000 0000                       LAB,B4   0
          0 0000BE  CFC6 0008                            STB,B4   8,B6

     1554     4299    2           KN$LDCT.FLAGS.QUEUED = '0'B;

   4299   0 0000C0  ECC7 000C                            LDB,B6   KN$NETPARM,AUTO
          0 0000C2  8846 000A                            LBF,'8000'X       10,B6
          0 0000C4       8000

     1555     4300
     1556     4301    2           IF KN$LDCT.USER_ENTRY$ ~= ENTADDR(NIL)

   4301   0 0000C5  ECC7 000C                            LDB,B6   KN$NETPARM,AUTO
          0 0000C7  CCC6 000C                            LDB,B4   12,B6
          0 0000C9  CD80 0000 0000  01                   CMB,B4   0
          0 0000CC  0901 000D                            BE       s:4304,PREL

     1557     4302    2           THEN CALL KN$LDCT.USER_ENTRY$ (KN$NETPARM);

   4302   0 0000CE  BBC7 000C                            LAB,B3   KN$NETPARM,AUTO
          0 0000D0  BFC7 002E                            STB,B3   KN$NETPARM+34,AUTO
          0 0000D2  BBC7 002E                            LAB,B3   KN$NETPARM+34,AUTO
          0 0000D4  9CC6 000C                            LDB,B1   12,B6
          0 0000D6  CBF0 0100                            LAB,B4   256,IMO
          0 0000D8  E381                                 LNJ,B6   ,B1
          0 0000D9       0001                            DC       s:4304,PREL

     1558     4303
     1559     4304    2           IF KN$LDCT.FLAGS.REL
PL6.E3A0      #010=KNT$UNQ File=KNT$MISC.:E05TSI                                 WED 07/30/97 01:12 Page:247

   4304   0 0000DA  ECC7 000C                            LDB,B6   KN$NETPARM,AUTO
          0 0000DC  82C6 000A                            LB,'4000'X        10,B6
          0 0000DE       4000
          0 0000DF  0581 000D                            BBF      s:4307,PREL

     1560     4305    2           THEN CALL KNA$RLSLDCT (KN$NETPARM.LDCT$);

   4305   0 0000E1  DBC7 000C                            LAB,B5   KN$NETPARM,AUTO
          0 0000E3  DFC7 002E                            STB,B5   KN$NETPARM+34,AUTO
          0 0000E5  BBC7 002E                            LAB,B3   KN$NETPARM+34,AUTO
          0 0000E7  CBF0 0100                            LAB,B4   256,IMO
          0 0000E9  E380 0000 0000  xent                 LNJ,B6   KNA$RLSLDCT
          0 0000EC       0001                            DC       s:4307,PREL

     1561     4306
     1562     4307    2           IF ENTRY_SWITCH = 1

   4307   0 0000ED  E847 0008                            LDR,R6   ENTRY_SWITCH,AUTO
          0 0000EF  6D01                                 CMV,R6   1
          0 0000F0  0981 0004                            BNE      s:4309,PREL

     1563     4308    2           THEN KNT_WAIT_COUNT = KNT_WAIT_COUNT -1;

   4308   0 0000F2  8880 0000 0000  xsym                 DEC      KNT_WAIT_COUNT

     1564     4309    2           END;

   4309   0 0000F5  8DC7 0006                            CMN      LNK$,AUTO
          0 0000F7  0981 FFB8                            BNE      s:4295,PREL

     1565     4310
     1566     4311    1      RETURN;

   4311   0 0000F9  C380 0000 0000  xent                 LNJ,B4   X6A_ARET
     1567     4312    1   END KNT$UNQ;
     1568     4313        %EOD;
PL6.E3A0      #010=KNT$UNQ File=KNT$MISC.:E05TSI                                 WED 07/30/97 01:12 Page:248

PL6.E3A0      #010=KNT$UNQ File=KNT$MISC.:E05TSI                                 WED 07/30/97 01:12 Page:249
--  Include file information  --

   GH_SCHD_M.:E05TOU  is referenced.
   K_ADDRESS_M.:E05TOU  is referenced.
   KNH_MACRO_C.:E05TOU  is referenced.
   KN_DATA_M.:E05TOU  is referenced.
   G_LCP6_E.:E05TOU  was found in the system file and is never referenced.
   GT_LCP6_M.:E05TOU  was found in the system file and is never referenced.
   KI_CP6.:E05TOU  was found in the system file and is never referenced.
   GF_LCP6_M.:E05TOU  was found in the system file and is never referenced.
   GM_LCP6_M.:E05TOU  was found in the system file and is never referenced.
   GU_LCP6_M.:E05TOU  was found in the system file and is never referenced.
   GJ_LCP6_M.:E05TOU  was found in the system file and is never referenced.
   GH_LCP6_M.:E05TOU  was found in the system file and is never referenced.
      No diagnostics issued in procedure KNT$UNQ.
PL6.E3A0      #010=KNT$UNQ File=KNT$MISC.:E05TSI                                 WED 07/30/97 01:12 Page:250

 **** Variables and constants ****

  ****  Auto variables  ****

  ****  Scalars and arrays  ****
HexLoc.c.b A Datatyp(siz) R M Lvl/name                 HexLoc.c.b A Datatyp(siz) R M Lvl/name

     4-0-0/w PTR         r     1 @HEAD$                     A-0-0/w PTR         r     1 CTX$
     8-0-0/w UBIN(16)    r     1 ENTRY_SWITCH              *0-0-0/w PTR         r     1 HEAD$
     C-0-0/w STRC(528)   r     1 KN$NETPARM                 6-0-0/w PTR         r     1 LNK$
     9-0-0/w UBIN(16)    r     1 TCTX#

  ****  SYMREF variables  ****

  ****  Scalars and arrays  ****
HexLoc.c.b A Datatyp(siz) R M Lvl/name                 HexLoc.c.b A Datatyp(siz) R M Lvl/name

     0-0-0/w UBIN(16)    r     1 KNT_WAIT_COUNT             0-0-0/w PTR         r     1 KNT_WAIT_HEAD$
     0-0-0/w STRC(528)   r     1 KN_NETPARM_INIT            0-0-0/w PTR         r     1 KN_TCTX$$
     0-0-0/w UBIN(16)    r     1 KN_TCTX_MAX#

  ****  BASED and DCB variables  ****

  ****  Scalars and arrays  ****
HexLoc.c.b A Datatyp(siz) R M Lvl/name                 HexLoc.c.b A Datatyp(siz) R M Lvl/name

     0-0-0/w STRC(256)   r     1 KN$LDCT                    0-0-0/w STRC(2816)  r     1 KN$TCTX
     0-0-0/w PTR         r     1 KN$TCTX$(0:0)


   Procedure KNT$UNQ requires 252 words for executable code.
   Procedure KNT$UNQ requires 48 words of local(AUTO) storage.
PL6.E3A0      #010=KNT$UNQ File=KNT$MISC.:E05TSI                                 WED 07/30/97 01:12 Page:251
          *** CROSS REFERENCE LISTING ***
**     DENOTES     IDENTIFIER DEFINITION
<<                 IDENTIFIER'S VALUE SET
>>                 IDENTIFIER'S VALUE USED
<>                 IDENTIFIER SET AND/OR USED
--                 IDENTIFIER REFERENCED
PL6.E3A0      #010=KNT$UNQ File=KNT$MISC.:E05TSI                                 WED 07/30/97 01:12 Page:252
          MINI XREF LISTING

COMMON
      4290**LABEL    4282--GOTO     4291--GOTO
COMMON_SEARCH
      4248**LABEL    4245--GOTO
CTX$
      2768**DCL      2930--IMP-PTR  4252<<ASSIGN   4253>>IF       4255>>IF       4255>>IF       4255>>IF
      4261>>ASSIGN   4263>>ASSIGN   4264>>ASSIGN   4270>>IF       4273>>IF
ENTRY_SWITCH
      2766**DCL      4244<<ASSIGN   4248<<ASSIGN   4255>>IF       4255>>IF       4268>>IF       4288<<ASSIGN
      4307>>IF
HEAD$
      2762**DCL        42--PROC     4286--ENTRY    4287--ENTRY    4289>>ASSIGN   4290<<ASSIGN
KN$LDCT.FLAGS.QUEUED
      4024**DCL      4299<<ASSIGN
KN$LDCT.FLAGS.REL
      4032**DCL      4304>>IF
KN$LDCT.LNK$
      3993**DCL      4297>>ASSIGN   4298<<ASSIGN
KN$LDCT.RLCID.LDCTX
      3908**DCL      3915--REDEF    3923--REDEF
KN$LDCT.TRANSPORT_ID
      3942**DCL      3950--REDEF
KN$LDCT.UID
      3972**DCL      3973--REDEF    3982--REDEF
KN$LDCT.USER_ENTRY$
      4053**DCL      4301>>IF       4302>>CALL
KN$NETPARM
      2782**DCL      4259<<ASSIGN   4266<>CALL     4302<>CALL
KN$NETPARM.FUNCTION
      2877**DCL      4260<<ASSIGN   4295<<ASSIGN
KN$NETPARM.LDCT$
      2783**DCL      3847--IMP-PTR  4296<<ASSIGN   4297>>ASSIGN   4298>>ASSIGN   4299>>ASSIGN   4301>>IF
PL6.E3A0      #010=KNT$UNQ File=KNT$MISC.:E05TSI                                 WED 07/30/97 01:12 Page:253
      4302>>CALL     4304>>IF       4305<>CALL
KN$NETPARM.MSG$
      2789**DCL      2794--REDEF
KN$NETPARM.NHDR$
      2841**DCL      2842--REDEF
KN$NETPARM.SHDR$
      2819**DCL      2820--REDEF
KN$NETPARM.TCTX$
      2906**DCL      4261<<ASSIGN
KN$NETPARM.THDR$
      2830**DCL      2831--REDEF
KN$NETPARM.UHDR$
      2805**DCL      2806--REDEF
KN$TCTX.DST_NSAP.ADDRESS_N
      3815**DCL      3816--REDEF
KN$TCTX.HOST_CQ_FULL
      3158**DCL      4255>>IF       4263<<ASSIGN   4270>>IF
KN$TCTX.NEED_ASSMBUF
      3123**DCL      4255>>IF       4264<<ASSIGN   4273>>IF
KN$TCTX.NODE
      2937**DCL      2950--REDEF
KN$TCTX.SRC_NSAP.ADDRESS_N
      3751**DCL      3752--REDEF
KN$TCTX.STATE
      2931**DCL      4255>>IF
KN$TCTX.TMR_INACTIVITY.ARG
      3571**DCL      3572--REDEF
KN$TCTX.TMR_REFERENCE.ARG
      3601**DCL      3602--REDEF
KN$TCTX.TMR_RETRAN.ARG
      3512**DCL      3513--REDEF
KN$TCTX.TMR_WINDOW.ARG
      3541**DCL      3542--REDEF
KN$TCTX$
      2924**DCL      4252>>ASSIGN
KNA$RLSLDCT
PL6.E3A0      #010=KNT$UNQ File=KNT$MISC.:E05TSI                                 WED 07/30/97 01:12 Page:254
      4239**DCL-ENT  4305--CALL
KNT$DSESSION
      4238**DCL-ENT  4266--CALL
KNT_WAIT_COUNT
      4080**DCL      4274<<ASSIGN   4274>>ASSIGN   4308<<ASSIGN   4308>>ASSIGN
KNT_WAIT_HEAD$
      4079**DCL      4280>>ASSIGN   4281<<ASSIGN
KN_NETPARM_INIT
      4096**DCL      4259>>ASSIGN
KN_NETPARM_INIT.MSG$
      4103**DCL      4108--REDEF
KN_NETPARM_INIT.NHDR$
      4155**DCL      4156--REDEF
KN_NETPARM_INIT.SHDR$
      4133**DCL      4134--REDEF
KN_NETPARM_INIT.THDR$
      4144**DCL      4145--REDEF
KN_NETPARM_INIT.UHDR$
      4119**DCL      4120--REDEF
KN_TCTX$$
      4081**DCL      2924--IMP-PTR  4252>>ASSIGN
KN_TCTX_MAX#
      4082**DCL      4251>>DOINDEX
LNK$
      2765**DCL      4280<<ASSIGN   4289<<ASSIGN   4294>>DOWHILE  4296>>ASSIGN   4297<<ASSIGN
TCTX#
      2767**DCL      4251<<DOINDEX  4252>>ASSIGN

PL6.E3A0      #011=KNT$TRACE File=KNT$MISC.:E05TSI                               WED 07/30/97 01:12 Page:255
     1569        1        /*T***********************************************************/
     1570        2        /*T*                                                         */
     1571        3        /*T* Copyright (c) Bull HN Information Systems Inc., 1997    */
     1572        4        /*T*                                                         */
     1573        5        /*T***********************************************************/
     1574        6
     1575        7        /*M* KNT$TRACE - Trace activity of specified transport connections.  */
     1576        8        /*X* PLM=3,IND=5,ENU=0,ECU=0  */
     1577        9
     1578       10        KNT$TRACE: PROC(KN$NETPARM);
     1579       11
     1580       12        %INCLUDE KN_DATA_M;
     1581     1798        %INCLUDE K_TRANSPORT_M;
     1582     3582
     1583     3583                                                /* Input Parameters                   */
     1584     3584        %KN$NETPARM;
     1585     3737
     1586     3738                                                /* AUTO Storage                       */
     1587     3739    1   DCL WHO UBIN;
     1588     3740    1   DCL TEMP$ PTR;
     1589     3741    1   DCL DATA$ CPTR;
     1590     3742
     1591     3743                                                /* Based structures                   */
     1592     3744        %KNT_TRC_BUF (FPTN=KNT$BUFF_ENTRY, STCLASS="BASED(TEMP$)");
     1593     3792
     1594     3793        %KNT_TRC_BUF(FPTN="KNT$TRC_BUF(0:0)", STCLASS="BASED(KNT$TRC_BUF$)");
     1595     3841
     1596     3842    1   DCL B$TPDU CHAR(10) BASED;
     1597     3843
     1598     3844                                                /* External Data                      */
     1599     3845    1   DCL KNT$TRC_BUF$ PTR SYMREF READONLY;
     1600     3846    1   DCL KNT_TRC_BUF# UBIN SYMREF;
     1601     3847    1   DCL KNT_TRC_X SBIN SYMREF;
     1602     3848
     1603     3849                                                /* External Procedures                */
     1604     3850    1   DCL GHI$TICS ENTRY(1);
     1605     3851    1   DCL GHI$TR_TICS ENTRY(1);
PL6.E3A0      #011=KNT$TRACE File=KNT$MISC.:E05TSI                               WED 07/30/97 01:12 Page:256
     1606     3852
     1607     3853        %EJECT;
PL6.E3A0      #011=KNT$TRACE File=KNT$MISC.:E05TSI                               WED 07/30/97 01:12 Page:257
     1608     3854    1   KNT$TR_SEND: ENTRY(KN$NETPARM);
     1609     3855    1      WHO = %ASCBIN('E') + 256 * ASCBIN('S'); /* SE -send                        */
     1610     3856    1      GOTO SET_DATA1;
     1611     3857
     1612     3858    1   KNT$TR_RECV: ENTRY(KN$NETPARM);
     1613     3859    1      WHO = %ASCBIN('C') + 256 * ASCBIN('R'); /* RC -receive                     */
     1614     3860    1      GOTO SET_DATA1;
     1615     3861
     1616     3862    1   KNT$TR_RETRN: ENTRY(KN$NETPARM);
     1617     3863    1      WHO = %ASCBIN('T') + 256 * ASCBIN('R'); /* RT - retransmit*/
     1618     3864    1      GOTO SET_DATA1;
     1619     3865
     1620     3866    1   KNT$TR_FHOST: ENTRY(KN$NETPARM);
     1621     3867    1      WHO = %ASCBIN('H') + 256 * ASCBIN('F'); /* FH -forward to host             */
     1622     3868    1      GOTO SET_DATA1;
     1623     3869
     1624     3870    1   KNT$TR_DSSN: ENTRY(KN$NETPARM);
     1625     3871    1      WHO = %ASCBIN('S') + 256 * ASCBIN('D'); /* DS -deliver to session*/
     1626     3872    1      GOTO SET_DATA1;
     1627     3873
     1628     3874    1   KNT$TR_RCVH: ENTRY(KN$NETPARM);
     1629     3875    1      WHO = %ASCBIN('H') + 256 * ASCBIN('R'); /* RH - received from host         */
     1630     3876    1      GOTO SET_DATA1;
     1631     3877
     1632     3878    1   KNT$TR_ERROR: ENTRY(KN$NETPARM);
     1633     3879    1      WHO = KN$NETPARM.THDRSZ;
     1634     3880    1      GOTO SET_DATA1;
     1635     3881
     1636     3882    1   KNT$TR_TERM: ENTRY(KN$NETPARM);
     1637     3883    1      WHO = %ASCBIN('R') + 256 * ASCBIN('T'); /* TR -term function recvd         */
     1638     3884    1      GOTO SET_DATA2;
     1639     3885
     1640     3886    1   KNT$TR_NCR: ENTRY(KN$NETPARM);
     1641     3887    1      WHO = %ASCBIN('R') + 256 * ASCBIN('C'); /* CR -NCONNECT Request sent       */
     1642     3888    1      GOTO SET_DATA2;
     1643     3889
     1644     3890    1   KNT$TR_NCI: ENTRY(KN$NETPARM);
PL6.E3A0      #011=KNT$TRACE File=KNT$MISC.:E05TSI                               WED 07/30/97 01:12 Page:258
     1645     3891    1      WHO = %ASCBIN('I') + 256 * ASCBIN('C'); /* CI -NCONNECT Indication rcvd    */
     1646     3892    1      GOTO SET_DATA2;
     1647     3893
     1648     3894    1   KNT$TR_NCC: ENTRY(KN$NETPARM);
     1649     3895    1      WHO = %ASCBIN('C') + 256 * ASCBIN('C'); /* CC -NCONNECT Confirm rcvd       */
     1650     3896    1      GOTO SET_DATA2;
     1651     3897
     1652     3898    1   KNT$TR_NRESET: ENTRY(KN$NETPARM);
     1653     3899    1      WHO = %ASCBIN('R') + 256 * ASCBIN('N'); /* NR -NRESET received             */
     1654     3900    1      GOTO SET_DATA2;
     1655     3901
     1656     3902    1   KNT$TR_NDISCONNECT: ENTRY(KN$NETPARM);
     1657     3903    1      WHO = %ASCBIN('D') + 256 * ASCBIN('N'); /* ND -NDISCONNECT received        */
     1658     3904    1      GOTO SET_DATA2;
     1659     3905
     1660     3906
     1661     3907
     1662     3908    1   SET_DATA1:
     1663     3909    1      DATA$ = KN$NETPARM.THDR_C$;
     1664     3910    1      GOTO COMMON;
     1665     3911
     1666     3912    1   SET_DATA2:
     1667     3913    1      DATA$ = ADDR(KN$NETPARM.TCTX_ID);
     1668     3914
     1669     3915    1   COMMON:
     1670     3916    1      TEMP$ = ADDR(KNT$TRC_BUF(KNT_TRC_X));
     1671     3917    1      KNT$BUFF_ENTRY.WHO = WHO;
     1672     3918
     1673     3919    1      IF DATA$ ~= ADDR(NIL)
     1674     3920    1      THEN KNT$BUFF_ENTRY.TPDU = DATA$->B$TPDU;
     1675     3921
     1676     3922    1      IF DATA$ = ADDR(KN$NETPARM.TCTX_ID)
     1677     3923    1      THEN CALL GHI$TR_TICS (KNT$BUFF_ENTRY.TIME);
     1678     3924    1      ELSE CALL GHI$TICS (KNT$BUFF_ENTRY.TIME);
     1679     3925
     1680     3926    1      KNT_TRC_X = KNT_TRC_X + 1;
     1681     3927
PL6.E3A0      #011=KNT$TRACE File=KNT$MISC.:E05TSI                               WED 07/30/97 01:12 Page:259
     1682     3928    1      IF KNT_TRC_X = KNT_TRC_BUF#
     1683     3929    1      THEN KNT_TRC_X = 0;
     1684     3930    1   END KNT$TRACE;

PL6.E3A0      #011=KNT$TRACE File=KNT$MISC.:E05TSI                               WED 07/30/97 01:12 Page:260
--  Include file information  --

   K_TRANSPORT_M.:E05TOU  is referenced.
   KN_DATA_M.:E05TOU  is referenced.
   G_LCP6_E.:E05TOU  was found in the system file and is never referenced.
   GT_LCP6_M.:E05TOU  was found in the system file and is never referenced.
   KI_CP6.:E05TOU  was found in the system file and is never referenced.
   GF_LCP6_M.:E05TOU  was found in the system file and is never referenced.
   GM_LCP6_M.:E05TOU  was found in the system file and is never referenced.
   GU_LCP6_M.:E05TOU  was found in the system file and is never referenced.
   GJ_LCP6_M.:E05TOU  was found in the system file and is never referenced.
   GH_LCP6_M.:E05TOU  was found in the system file and is never referenced.
      No diagnostics issued in procedure KNT$TRACE.

   Procedure KNT$TRACE requires 259 words for executable code.
   Procedure KNT$TRACE requires 14 words of local(AUTO) storage.

    No errors detected in file KNT$MISC.:E05TSI    .

PL6.E3A0      #011=KNT$TRACE File=KNT$MISC.:E05TSI                               WED 07/30/97 01:12 Page:261

 Object Unit name= KNT$TRACE                                  File name= KNT$MISC.:E05TOU
 UTS= JUL 30 '97 01:12:38.20 WED                              Compiler= PL-6/E31         Sev=      00
 SharedLib= :SHARED_LCP6_SYSTEM                               Alt SharedLib=


    ****  Control sections  ****

 Sect   Type Bound  Init  Size HexSiz  Section name
    0   Proc  even  none   259    103  KNT$TRACE

    ****  Entry defs  ****

                              Check   Calling
                             calling  sequence
  Sect HexLoc Primary Altret sequence   type   Parms  Name
     0      0   yes            yes      Std        1  KNT$TRACE
     0      7                  yes      Std        1  KNT$TR_SEND
     0     12                  yes      Std        1  KNT$TR_RECV
     0     1D                  yes      Std        1  KNT$TR_RETRN
     0     28                  yes      Std        1  KNT$TR_FHOST
     0     33                  yes      Std        1  KNT$TR_DSSN
     0     3E                  yes      Std        1  KNT$TR_RCVH
     0     49                  yes      Std        1  KNT$TR_ERROR
     0     56                  yes      Std        1  KNT$TR_TERM
     0     61                  yes      Std        1  KNT$TR_NCR
     0     6C                  yes      Std        1  KNT$TR_NCI
     0     77                  yes      Std        1  KNT$TR_NCC
     0     82                  yes      Std        1  KNT$TR_NRESET
     0     8D                  yes      Std        1  KNT$TR_NDISCONNECT
PL6.E3A0      #011=KNT$TRACE File=KNT$MISC.:E05TSI                               WED 07/30/97 01:12 Page:262

  ****  Entry refs  ****

         Check        Calling
        calling       sequence
Altret sequence SRef   type   Args  Name
         yes           Std       1 GHI$TR_TICS
         yes           Std       1 GHI$TICS
                       nStd      0 X6A_AUTO_1
                       nStd      0 X6A_ARET

  ****  Data refs  ****

  Flags:  r = read only, s = secondary
Flgs Name                             Flgs Name                             Flgs Name
r    KNT$TRC_BUF$                          KNT_TRC_BUF#                          KNT_TRC_X
r    G$ROS$
PL6.E3A0      #011=KNT$TRACE File=KNT$MISC.:E05TSI                               WED 07/30/97 01:12 Page:263


     1569        1        /*T***********************************************************/
     1570        2        /*T*                                                         */
     1571        3        /*T* Copyright (c) Bull HN Information Systems Inc., 1997    */
     1572        4        /*T*                                                         */
     1573        5        /*T***********************************************************/
     1574        6
     1575        7        /*M* KNT$TRACE - Trace activity of specified transport connections.  */
     1576        8        /*X* PLM=3,IND=5,ENU=0,ECU=0  */
     1577        9
     1578       10        KNT$TRACE: PROC(KN$NETPARM);

     10   0 000000  D380 0000 0000  xent KNT$TRACE       LNJ,B5   X6A_AUTO_1
          0 000003       000E 0001                       DC       14,1
          0 000005  0F81 0006                            B        s:3855,PREL

     1579       11
     1580       12        %INCLUDE KN_DATA_M;
     1581     1798        %INCLUDE K_TRANSPORT_M;
     1582     3582
     1583     3583                                                /* Input Parameters                   */
     1584     3584        %KN$NETPARM;
     1585     3737
     1586     3738                                                /* AUTO Storage                       */
     1587     3739    1   DCL WHO UBIN;
     1588     3740    1   DCL TEMP$ PTR;
     1589     3741    1   DCL DATA$ CPTR;
     1590     3742
     1591     3743                                                /* Based structures                   */
     1592     3744        %KNT_TRC_BUF (FPTN=KNT$BUFF_ENTRY, STCLASS="BASED(TEMP$)");
     1593     3792
     1594     3793        %KNT_TRC_BUF(FPTN="KNT$TRC_BUF(0:0)", STCLASS="BASED(KNT$TRC_BUF$)");
     1595     3841
     1596     3842    1   DCL B$TPDU CHAR(10) BASED;
     1597     3843
     1598     3844                                                /* External Data                      */
     1599     3845    1   DCL KNT$TRC_BUF$ PTR SYMREF READONLY;
PL6.E3A0      #011=KNT$TRACE File=KNT$MISC.:E05TSI                               WED 07/30/97 01:12 Page:264
     1600     3846    1   DCL KNT_TRC_BUF# UBIN SYMREF;
     1601     3847    1   DCL KNT_TRC_X SBIN SYMREF;
     1602     3848
     1603     3849                                                /* External Procedures                */
     1604     3850    1   DCL GHI$TICS ENTRY(1);
     1605     3851    1   DCL GHI$TR_TICS ENTRY(1);
     1606     3852
     1607     3853        %EJECT;
PL6.E3A0      #011=KNT$TRACE File=KNT$MISC.:E05TSI                               WED 07/30/97 01:12 Page:265
     1608     3854    1   KNT$TR_SEND: ENTRY(KN$NETPARM);

   3854   0 000007  D380 0000 0000  xent KNT$TR_SEND     LNJ,B5   X6A_AUTO_1
          0 00000A       000E 0001                       DC       14,1

     1609     3855    1      WHO = %ASCBIN('E') + 256 * ASCBIN('S'); /* SE -send                        */

   3855   0 00000C  E870 5345                            LDR,R6   21317,IMO
          0 00000E  EF47 0006                            STR,R6   WHO,AUTO

     1610     3856    1      GOTO SET_DATA1;

   3856   0 000010  0F81 0087                            B        s:3909,PREL

     1611     3857
     1612     3858    1   KNT$TR_RECV: ENTRY(KN$NETPARM);

   3858   0 000012  D380 0000 0000  xent KNT$TR_RECV     LNJ,B5   X6A_AUTO_1
          0 000015       000E 0001                       DC       14,1

     1613     3859    1      WHO = %ASCBIN('C') + 256 * ASCBIN('R'); /* RC -receive                     */

   3859   0 000017  E870 5243                            LDR,R6   21059,IMO
          0 000019  EF47 0006                            STR,R6   WHO,AUTO

     1614     3860    1      GOTO SET_DATA1;

   3860   0 00001B  0F81 007C                            B        s:3909,PREL

     1615     3861
     1616     3862    1   KNT$TR_RETRN: ENTRY(KN$NETPARM);

   3862   0 00001D  D380 0000 0000  xent KNT$TR_RETRN    LNJ,B5   X6A_AUTO_1
          0 000020       000E 0001                       DC       14,1

     1617     3863    1      WHO = %ASCBIN('T') + 256 * ASCBIN('R'); /* RT - retransmit*/

PL6.E3A0      #011=KNT$TRACE File=KNT$MISC.:E05TSI                               WED 07/30/97 01:12 Page:266
   3863   0 000022  E870 5254                            LDR,R6   21076,IMO
          0 000024  EF47 0006                            STR,R6   WHO,AUTO

     1618     3864    1      GOTO SET_DATA1;

   3864   0 000026  0F81 0071                            B        s:3909,PREL

     1619     3865
     1620     3866    1   KNT$TR_FHOST: ENTRY(KN$NETPARM);

   3866   0 000028  D380 0000 0000  xent KNT$TR_FHOST    LNJ,B5   X6A_AUTO_1
          0 00002B       000E 0001                       DC       14,1

     1621     3867    1      WHO = %ASCBIN('H') + 256 * ASCBIN('F'); /* FH -forward to host             */

   3867   0 00002D  E870 4648                            LDR,R6   17992,IMO
          0 00002F  EF47 0006                            STR,R6   WHO,AUTO

     1622     3868    1      GOTO SET_DATA1;

   3868   0 000031  0F81 0066                            B        s:3909,PREL

     1623     3869
     1624     3870    1   KNT$TR_DSSN: ENTRY(KN$NETPARM);

   3870   0 000033  D380 0000 0000  xent KNT$TR_DSSN     LNJ,B5   X6A_AUTO_1
          0 000036       000E 0001                       DC       14,1

     1625     3871    1      WHO = %ASCBIN('S') + 256 * ASCBIN('D'); /* DS -deliver to session*/

   3871   0 000038  E870 4453                            LDR,R6   17491,IMO
          0 00003A  EF47 0006                            STR,R6   WHO,AUTO

     1626     3872    1      GOTO SET_DATA1;

   3872   0 00003C  0F81 005B                            B        s:3909,PREL

PL6.E3A0      #011=KNT$TRACE File=KNT$MISC.:E05TSI                               WED 07/30/97 01:12 Page:267
     1627     3873
     1628     3874    1   KNT$TR_RCVH: ENTRY(KN$NETPARM);

   3874   0 00003E  D380 0000 0000  xent KNT$TR_RCVH     LNJ,B5   X6A_AUTO_1
          0 000041       000E 0001                       DC       14,1

     1629     3875    1      WHO = %ASCBIN('H') + 256 * ASCBIN('R'); /* RH - received from host         */

   3875   0 000043  E870 5248                            LDR,R6   21064,IMO
          0 000045  EF47 0006                            STR,R6   WHO,AUTO

     1630     3876    1      GOTO SET_DATA1;

   3876   0 000047  0F81 0050                            B        s:3909,PREL

     1631     3877
     1632     3878    1   KNT$TR_ERROR: ENTRY(KN$NETPARM);

   3878   0 000049  D380 0000 0000  xent KNT$TR_ERROR    LNJ,B5   X6A_AUTO_1
          0 00004C       000E 0001                       DC       14,1

     1633     3879    1      WHO = KN$NETPARM.THDRSZ;

   3879   0 00004E  ECC7 0004                            LDB,B6   @KN$NETPARM,AUTO
          0 000050  E846 000D                            LDR,R6   13,B6
          0 000052  EF47 0006                            STR,R6   WHO,AUTO

     1634     3880    1      GOTO SET_DATA1;

   3880   0 000054  0F81 0043                            B        s:3909,PREL

     1635     3881
     1636     3882    1   KNT$TR_TERM: ENTRY(KN$NETPARM);

   3882   0 000056  D380 0000 0000  xent KNT$TR_TERM     LNJ,B5   X6A_AUTO_1
          0 000059       000E 0001                       DC       14,1

PL6.E3A0      #011=KNT$TRACE File=KNT$MISC.:E05TSI                               WED 07/30/97 01:12 Page:268
     1637     3883    1      WHO = %ASCBIN('R') + 256 * ASCBIN('T'); /* TR -term function recvd         */

   3883   0 00005B  E870 5452                            LDR,R6   21586,IMO
          0 00005D  EF47 0006                            STR,R6   WHO,AUTO

     1638     3884    1      GOTO SET_DATA2;

   3884   0 00005F  0F81 0040                            B        s:3913,PREL

     1639     3885
     1640     3886    1   KNT$TR_NCR: ENTRY(KN$NETPARM);

   3886   0 000061  D380 0000 0000  xent KNT$TR_NCR      LNJ,B5   X6A_AUTO_1
          0 000064       000E 0001                       DC       14,1

     1641     3887    1      WHO = %ASCBIN('R') + 256 * ASCBIN('C'); /* CR -NCONNECT Request sent       */

   3887   0 000066  E870 4352                            LDR,R6   17234,IMO
          0 000068  EF47 0006                            STR,R6   WHO,AUTO

     1642     3888    1      GOTO SET_DATA2;

   3888   0 00006A  0F81 0035                            B        s:3913,PREL

     1643     3889
     1644     3890    1   KNT$TR_NCI: ENTRY(KN$NETPARM);

   3890   0 00006C  D380 0000 0000  xent KNT$TR_NCI      LNJ,B5   X6A_AUTO_1
          0 00006F       000E 0001                       DC       14,1

     1645     3891    1      WHO = %ASCBIN('I') + 256 * ASCBIN('C'); /* CI -NCONNECT Indication rcvd    */

   3891   0 000071  E870 4349                            LDR,R6   17225,IMO
          0 000073  EF47 0006                            STR,R6   WHO,AUTO

     1646     3892    1      GOTO SET_DATA2;

PL6.E3A0      #011=KNT$TRACE File=KNT$MISC.:E05TSI                               WED 07/30/97 01:12 Page:269
   3892   0 000075  0F81 002A                            B        s:3913,PREL

     1647     3893
     1648     3894    1   KNT$TR_NCC: ENTRY(KN$NETPARM);

   3894   0 000077  D380 0000 0000  xent KNT$TR_NCC      LNJ,B5   X6A_AUTO_1
          0 00007A       000E 0001                       DC       14,1

     1649     3895    1      WHO = %ASCBIN('C') + 256 * ASCBIN('C'); /* CC -NCONNECT Confirm rcvd       */

   3895   0 00007C  E870 4343                            LDR,R6   17219,IMO
          0 00007E  EF47 0006                            STR,R6   WHO,AUTO

     1650     3896    1      GOTO SET_DATA2;

   3896   0 000080  0F81 001F                            B        s:3913,PREL

     1651     3897
     1652     3898    1   KNT$TR_NRESET: ENTRY(KN$NETPARM);

   3898   0 000082  D380 0000 0000  xent KNT$TR_NRESET   LNJ,B5   X6A_AUTO_1
          0 000085       000E 0001                       DC       14,1

     1653     3899    1      WHO = %ASCBIN('R') + 256 * ASCBIN('N'); /* NR -NRESET received             */

   3899   0 000087  E870 4E52                            LDR,R6   20050,IMO
          0 000089  EF47 0006                            STR,R6   WHO,AUTO

     1654     3900    1      GOTO SET_DATA2;

   3900   0 00008B  0F81 0014                            B        s:3913,PREL

     1655     3901
     1656     3902    1   KNT$TR_NDISCONNECT: ENTRY(KN$NETPARM);

   3902   0 00008D  D380 0000 0000  xent KNT$TR_NDISCONN*LNJ,B5   X6A_AUTO_1
          0 000090       000E 0001                       DC       14,1
PL6.E3A0      #011=KNT$TRACE File=KNT$MISC.:E05TSI                               WED 07/30/97 01:12 Page:270

     1657     3903    1      WHO = %ASCBIN('D') + 256 * ASCBIN('N'); /* ND -NDISCONNECT received        */

   3903   0 000092  E870 4E44                            LDR,R6   20036,IMO
          0 000094  EF47 0006                            STR,R6   WHO,AUTO

     1658     3904    1      GOTO SET_DATA2;

   3904   0 000096  0F81 0009                            B        s:3913,PREL

     1659     3905
     1660     3906
     1661     3907
     1662     3908    1   SET_DATA1:
     1663     3909    1      DATA$ = KN$NETPARM.THDR_C$;

   3909   0 000098  ECC7 0004            SET_DATA1       LDB,B6   @KN$NETPARM,AUTO
          0 00009A  8CC6 000B                            LDI      11,B6
          0 00009C  8D47 0009                            SDI      DATA$,AUTO

     1664     3910    1      GOTO COMMON;

   3910   0 00009E  0F81 0007                            B        s:3916,PREL

     1665     3911
     1666     3912    1   SET_DATA2:
     1667     3913    1      DATA$ = ADDR(KN$NETPARM.TCTX_ID);

   3913   0 0000A0  ECC7 0004            SET_DATA2       LDB,B6   @KN$NETPARM,AUTO
          0 0000A2  DBC6 0011                            LAB,B5   17,B6
          0 0000A4  DFC7 0009                            STB,B5   DATA$,AUTO

     1668     3914
     1669     3915    1   COMMON:
     1670     3916    1      TEMP$ = ADDR(KNT$TRC_BUF(KNT_TRC_X));

   3916   0 0000A6  DC80 0000 0000  xsym COMMON          LDB,B5   KNT$TRC_BUF$
PL6.E3A0      #011=KNT$TRACE File=KNT$MISC.:E05TSI                               WED 07/30/97 01:12 Page:271
          0 0000A9  B800 0000 0000  xsym                 LDR,R3   KNT_TRC_X
          0 0000AC  3003                                 SOL,R3   3
          0 0000AD  CBB5                                 LAB,B4   ,B5,R3
          0 0000AE  CFC7 0007                            STB,B4   TEMP$,AUTO

     1671     3917    1      KNT$BUFF_ENTRY.WHO = WHO;

   3917   0 0000B0  E847 0006                            LDR,R6   WHO,AUTO
          0 0000B2  EF04                                 STR,R6   ,B4

     1672     3918
     1673     3919    1      IF DATA$ ~= ADDR(NIL)

   3919   0 0000B3  8DC7 0009                            CMN      DATA$,AUTO
          0 0000B5  0901 0011                            BE       s:3922,PREL

     1674     3920    1      THEN KNT$BUFF_ENTRY.TPDU = DATA$->B$TPDU;

   3920   0 0000B7  8CC7 0009                            LDI      DATA$,AUTO
          0 0000B9  B856                                 LDR,R3   R6
          0 0000BA  E570 7FFF                            AND,R6   32767,IMO
          0 0000BC  8D47 000C                            SDI      DATA$+3,AUTO
          0 0000BE  BCC7 000C                            LDB,B3   DATA$+3,AUTO
          0 0000C0  304F                                 SOR,R3   15
          0 0000C1  AB83                                 LAB,B2   ,B3
          0 0000C2  A853                                 LDR,R2   R3
          0 0000C3  6C0A                                 LDV,R6   10
          0 0000C4  BB84                                 LAB,B3   ,B4
          0 0000C5  3C06                                 LDV,R3   6
          0 0000C6  0008                                 MMM

     1675     3921
     1676     3922    1      IF DATA$ = ADDR(KN$NETPARM.TCTX_ID)

   3922   0 0000C7  8CC7 0004                            LDI      @KN$NETPARM,AUTO
          0 0000C9  8470 0000 0011                       AID      17,IMO
          0 0000CC  84C7 0009                            SID      DATA$,AUTO
PL6.E3A0      #011=KNT$TRACE File=KNT$MISC.:E05TSI                               WED 07/30/97 01:12 Page:272
          0 0000CE  6981 0013                            BNEZ,R6  s:3924,PREL
          0 0000D0  7981 0011                            BNEZ,R7  s:3924,PREL

     1677     3923    1      THEN CALL GHI$TR_TICS (KNT$BUFF_ENTRY.TIME);

   3923   0 0000D2  CCC7 0007                            LDB,B4   TEMP$,AUTO
          0 0000D4  BBC4 0001                            LAB,B3   1,B4
          0 0000D6  BFC7 000C                            STB,B3   DATA$+3,AUTO
          0 0000D8  BBC7 000C                            LAB,B3   DATA$+3,AUTO
          0 0000DA  CBF0 0100                            LAB,B4   256,IMO
          0 0000DC  E380 0000 0000  xent                 LNJ,B6   GHI$TR_TICS
          0 0000DF       0001                            DC       s:3923+14,PREL
          0 0000E0  0F81 000F                            B        s:3926,PREL

     1678     3924    1      ELSE CALL GHI$TICS (KNT$BUFF_ENTRY.TIME);

   3924   0 0000E2  CCC7 0007                            LDB,B4   TEMP$,AUTO
          0 0000E4  BBC4 0001                            LAB,B3   1,B4
          0 0000E6  BFC7 000C                            STB,B3   DATA$+3,AUTO
          0 0000E8  BBC7 000C                            LAB,B3   DATA$+3,AUTO
          0 0000EA  CBF0 0100                            LAB,B4   256,IMO
          0 0000EC  E380 0000 0000  xent                 LNJ,B6   GHI$TICS
          0 0000EF       0001                            DC       s:3926,PREL

     1679     3925
     1680     3926    1      KNT_TRC_X = KNT_TRC_X + 1;

   3926   0 0000F0  8A80 0000 0000  xsym                 INC      KNT_TRC_X

     1681     3927
     1682     3928    1      IF KNT_TRC_X = KNT_TRC_BUF#

   3928   0 0000F3  E800 0000 0000  xsym                 LDR,R6   KNT_TRC_X
          0 0000F6  6801 0009                            BLZ,R6   s:3930,PREL
          0 0000F8  E900 0000 0000  xsym                 CMR,R6   KNT_TRC_BUF#
          0 0000FB  0981 0004                            BNE      s:3930,PREL

PL6.E3A0      #011=KNT$TRACE File=KNT$MISC.:E05TSI                               WED 07/30/97 01:12 Page:273
     1683     3929    1      THEN KNT_TRC_X = 0;

   3929   0 0000FD  8700 0000 0000  xsym                 CL       KNT_TRC_X

     1684     3930    1   END KNT$TRACE;

   3930   0 000100  C380 0000 0000  xent                 LNJ,B4   X6A_ARET

PL6.E3A0      #011=KNT$TRACE File=KNT$MISC.:E05TSI                               WED 07/30/97 01:12 Page:274
--  Include file information  --

   K_TRANSPORT_M.:E05TOU  is referenced.
   KN_DATA_M.:E05TOU  is referenced.
   G_LCP6_E.:E05TOU  was found in the system file and is never referenced.
   GT_LCP6_M.:E05TOU  was found in the system file and is never referenced.
   KI_CP6.:E05TOU  was found in the system file and is never referenced.
   GF_LCP6_M.:E05TOU  was found in the system file and is never referenced.
   GM_LCP6_M.:E05TOU  was found in the system file and is never referenced.
   GU_LCP6_M.:E05TOU  was found in the system file and is never referenced.
   GJ_LCP6_M.:E05TOU  was found in the system file and is never referenced.
   GH_LCP6_M.:E05TOU  was found in the system file and is never referenced.
      No diagnostics issued in procedure KNT$TRACE.
PL6.E3A0      #011=KNT$TRACE File=KNT$MISC.:E05TSI                               WED 07/30/97 01:12 Page:275

 **** Variables and constants ****

  ****  Auto variables  ****

  ****  Scalars and arrays  ****
HexLoc.c.b A Datatyp(siz) R M Lvl/name                 HexLoc.c.b A Datatyp(siz) R M Lvl/name

     4-0-0/w PTR         r     1 @KN$NETPARM                9-0-0/w PTR         r     1 DATA$
    *0-0-0/w STRC(528)   r     1 KN$NETPARM                 7-0-0/w PTR         r     1 TEMP$
     6-0-0/w UBIN(16)    r     1 WHO

  ****  SYMREF variables  ****

  ****  Scalars and arrays  ****
HexLoc.c.b A Datatyp(siz) R M Lvl/name                 HexLoc.c.b A Datatyp(siz) R M Lvl/name

     0-0-0/w PTR         r     1 KNT$TRC_BUF$               0-0-0/w UBIN(16)    r     1 KNT_TRC_BUF#
     0-0-0/w SBIN(16)    r     1 KNT_TRC_X

  ****  BASED and DCB variables  ****

  ****  Scalars and arrays  ****
HexLoc.c.b A Datatyp(siz) R M Lvl/name                 HexLoc.c.b A Datatyp(siz) R M Lvl/name

     0-0-0/c CHAR(10)    r     1 B$TPDU                     0-0-0/w STRC(128)   r     1 KNT$BUFF_ENTRY
     0-0-0/w STRC(128)   r     1 KNT$TRC_BUF(0:0)


   Procedure KNT$TRACE requires 259 words for executable code.
   Procedure KNT$TRACE requires 14 words of local(AUTO) storage.

    No errors detected in file KNT$MISC.:E05TSI    .
PL6.E3A0      #011=KNT$TRACE File=KNT$MISC.:E05TSI                               WED 07/30/97 01:12 Page:276
          *** CROSS REFERENCE LISTING ***
**     DENOTES     IDENTIFIER DEFINITION
<<                 IDENTIFIER'S VALUE SET
>>                 IDENTIFIER'S VALUE USED
<>                 IDENTIFIER SET AND/OR USED
--                 IDENTIFIER REFERENCED
PL6.E3A0      #011=KNT$TRACE File=KNT$MISC.:E05TSI                               WED 07/30/97 01:12 Page:277
          MINI XREF LISTING

B$TPDU
      3842**DCL      3920>>ASSIGN
COMMON
      3916**LABEL    3910--GOTO
DATA$
      3741**DCL      3909<<ASSIGN   3913<<ASSIGN   3919>>IF       3920>>ASSIGN   3922>>IF
GHI$TICS
      3850**DCL-ENT  3924--CALL
GHI$TR_TICS
      3851**DCL-ENT  3923--CALL
KN$NETPARM
      3597**DCL        10--PROC     3854--ENTRY    3858--ENTRY    3862--ENTRY    3866--ENTRY    3870--ENTRY
      3874--ENTRY    3878--ENTRY    3882--ENTRY    3886--ENTRY    3890--ENTRY    3894--ENTRY    3898--ENTRY
      3902--ENTRY
KN$NETPARM.MSG$
      3604**DCL      3609--REDEF
KN$NETPARM.NHDR$
      3656**DCL      3657--REDEF
KN$NETPARM.SHDR$
      3634**DCL      3635--REDEF
KN$NETPARM.TCTX_ID
      3667**DCL      3913--ASSIGN   3922--IF
KN$NETPARM.THDR$
      3645**DCL      3646--REDEF
KN$NETPARM.THDRSZ
      3651**DCL      3879>>ASSIGN
KN$NETPARM.THDR_C$
      3646**DCL      3909>>ASSIGN
KN$NETPARM.UHDR$
      3620**DCL      3621--REDEF
KNT$BUFF_ENTRY.TIME
      3779**DCL      3923<>CALL     3924<>CALL
PL6.E3A0      #011=KNT$TRACE File=KNT$MISC.:E05TSI                               WED 07/30/97 01:12 Page:278
KNT$BUFF_ENTRY.TPDU
      3784**DCL      3920<<ASSIGN
KNT$BUFF_ENTRY.WHO
      3750**DCL      3917<<ASSIGN
KNT$TRC_BUF
      3798**DCL      3916--ASSIGN
KNT$TRC_BUF$
      3845**DCL      3798--IMP-PTR  3916>>ASSIGN
KNT_TRC_BUF#
      3846**DCL      3928>>IF
KNT_TRC_X
      3847**DCL      3916>>ASSIGN   3926<<ASSIGN   3926>>ASSIGN   3928>>IF       3929<<ASSIGN
SET_DATA1
      3909**LABEL    3856--GOTO     3860--GOTO     3864--GOTO     3868--GOTO     3872--GOTO     3876--GOTO
      3880--GOTO
SET_DATA2
      3913**LABEL    3884--GOTO     3888--GOTO     3892--GOTO     3896--GOTO     3900--GOTO     3904--GOTO
TEMP$
      3740**DCL      3749--IMP-PTR  3916<<ASSIGN   3917>>ASSIGN   3920>>ASSIGN   3923>>CALL     3924>>CALL
WHO
      3739**DCL      3855<<ASSIGN   3859<<ASSIGN   3863<<ASSIGN   3867<<ASSIGN   3871<<ASSIGN   3875<<ASSIGN
      3879<<ASSIGN   3883<<ASSIGN   3887<<ASSIGN   3891<<ASSIGN   3895<<ASSIGN   3899<<ASSIGN   3903<<ASSIGN
      3917>>ASSIGN
