PL6.E3A0      #002=KNT$RECV_4HOST File=KNT$RECV.:E05TSI                          WED 07/30/97 01:12 Page:354
     2557        1        /*M* KNT$RECV_4HOST - Send session messages to network.   */
     2558        2        /*T***********************************************************/
     2559        3        /*T*                                                         */
     2560        4        /*T* Copyright (c) Bull HN Information Systems Inc., 1997    */
     2561        5        /*T*                                                         */
     2562        6        /*T***********************************************************/
     2563        7        /*X* PLM=3,IND=5,ENU=0,ECU=0 */
     2564        8
     2565        9        KNT$RECV_4HOST: PROC(KN$NETPARM) ALTRET;
     2566       10
     2567       11        %INCLUDE K_ADDRESS_M;
     2568      514        %INCLUDE K_INTERFACE_M;
     2569      923        %INCLUDE K_TRANSPORT_E;
     2570     1248        %INCLUDE K_TRANSPORT_M;
     2571     3032        %INCLUDE KN_DATA_M;
     2572     4818        %INCLUDE KNH_MACRO_C;
     2573     5101 S      %INCLUDE KI_CP6;
     2574     5102        %INCLUDE GH_SCHD_M;
     2575     5246
     2576     5247                                                /* Input parameters                   */
     2577     5248        %KN$NETPARM;
     2578     5401                                                /* Auto Storage                       */
     2579     5402    1   DCL CTX$ PTR;
     2580     5403    1   DCL TCTX# UBIN;
     2581     5404    1   DCL LDCT_CIRCUIT BIT(1);
     2582     5405
     2583     5406
     2584     5407    1   DCL KNT$RLS_CHAIN ENTRY(1);
     2585     5408    1   DCL KNT$RECV_HOST_DATA ENTRY(1) ALTRET;
     2586     5409    1   DCL KNT$SEND_DR_HOST ENTRY(1) ALTRET;
     2587     5410    1   DCL KNT$SET_REFWAIT ENTRY(1);
     2588     5411    1   DCL KNT$TR_NCI ENTRY(1);
     2589     5412    1   DCL KNT$TR_NCC ENTRY(1);
     2590     5413    1   DCL KNT$TR_NRESET ENTRY(1);
     2591     5414    1   DCL KNT$TR_TERM ENTRY(1);
     2592     5415    1   DCL KNT$TR_NDISCONNECT ENTRY(1);
     2593     5416    1   DCL KNT$TR_SEND ENTRY(1);
PL6.E3A0      #002=KNT$RECV_4HOST File=KNT$RECV.:E05TSI                          WED 07/30/97 01:12 Page:355
     2594     5417    1   DCL KNA$GETTCTX ENTRY(1) ALTRET;
     2595     5418    1   DCL KNH$SEND ENTRY(1) ALTRET;
     2596     5419    1   DCL GHS$SET_TMR ENTRY(1);
     2597     5420    1   DCL SCREECH ENTRY(1);
     2598     5421
     2599     5422                                                /* Based Data                         */
     2600     5423        %K$TCTX (NAME=KN$TCTX, STCLASS="BASED(CTX$)");
     2601     6330    1   DCL KN$TCTX$(0:0) PTR BASED(KN_TCTX$$);
     2602     6331
     2603     6332        %K$TPDU_DT (NAME=B$TPDU_DT,STCLASS="BASED(KN$NETPARM.THDR_C$)",ALGN=CALIGNED);
     2604     6382
     2605     6383        %KN$LDCT (NAME=KN$LDCT, STCLASS="BASED(KN$NETPARM.LDCT$)");
     2606     6628
     2607     6629        %K$FRAG_HDR (NAME=FRAG_HDR, STCLASS=BASED);
     2608     6712
     2609     6713        %FPT_CONNECT (STCLASS="BASED(KN$NETPARM.FPT$)", ADRTYP=X121);
     2610     6884
     2611     6885                                                /* External Data                      */
     2612     6886    1   DCL KN_TCTX$$ PTR SYMREF;
     2613     6887    1   DCL KNT_SCODE UBIN(32) SYMREF;
     2614     6888    1   DCL KN_TCTX_MAX# UBIN SYMREF;
     2615     6889
     2616     6890        %EJECT;
PL6.E3A0      #002=KNT$RECV_4HOST File=KNT$RECV.:E05TSI                          WED 07/30/97 01:12 Page:356
     2617     6891        /*F* NAME: KNT$RECV_4HOST
     2618     6892
     2619     6893        This routine is entered when Network has just received a message for
     2620     6894        an adjacent host node and the MSGTYPE is not QDP.
     2621     6895
     2622     6896        If KNT$RECV_4HOST returns normally to KNN$RECV, network will proceed
     2623     6897        as if the recv_4host routine had not been called; i.e. the message
     2624     6898        will be forwarded to the host by KNN$RECV call KNH$SEND.
     2625     6899
     2626     6900        If KNT$RECV_4HOST altreturns to KNN$RECV, network will inspect the
     2627     6901        value in kn$netparm.errcode to determine how to proceed.
     2628     6902
     2629     6903             An error code of zero indicates that the message has been buffered
     2630     6904             by transport and no further processing of this message is necessary.
     2631     6905
     2632     6906             A non-zero error code will indicate that transport was unsuccessful
     2633     6907             in forwarding the message (probably because the coupler's cq was full).
     2634     6908             Network will altreturn to KNH$SCAN which will cause the message to be
     2635     6909             queued in hdlcx.25's cq.
     2636     6910
     2637     6911        KNN$RECV calls this routine with the following parameters:
     2638     6912        .fif
     2639     6913        }
     2640     6914        }    KN$NETPARM.FUNCTION
     2641     6915        }     - Contains a value to indicate what type of function is to
     2642     6916        }       be performed and what type of message has been received:
     2643     6917        }
     2644     6918        }        K_NCONNECT_IND - if initiating a CONS inbound VC connection
     2645     6919        }                         (KNN$RECV was called with KN_FCN_INIT)
     2646     6920        }
     2647     6921        }        K_NCONNECT_CFM - if CONS VC connect completion
     2648     6922        }                         (KNN$RECV was called with KN_FCN_INIT_ACK)
     2649     6923        }
     2650     6924        }        K_NRESET_IND   - if CONS VC disconnect
     2651     6925        }                         (KNH$HMI found KNH$MESS.FUNCTION = KN_FCN_RESET)
     2652     6926        }
     2653     6927        }        KN_FCN_DATA    - CP-6 message received
PL6.E3A0      #002=KNT$RECV_4HOST File=KNT$RECV.:E05TSI                          WED 07/30/97 01:12 Page:357
     2654     6928        }
     2655     6929        }        K_NDATA        - OSI message received
     2656     6930        }
     2657     6931        }    KN$NETPARM.THDR$
     2658     6932        }     - Contains the address within the message of the first
     2659     6933        }       byte of the TPDU.
     2660     6934        }
     2661     6935        }    KN$NETPARM.THDRSZ
     2662     6936        }     - Contains the byte size of the TPDU.
     2663     6937        }
     2664     6938        }    KN$NETPARM.NHDR$
     2665     6939        }     - used when FUNCTION is KN_FCN_DATA
     2666     6940        }       Contains the address of the network header.
     2667     6941        }
     2668     6942        }    KN$NETPARM.FPT$
     2669     6943        }     - used when FUNCTION is K_NCONNECT_IND to complete VC connection.
     2670     6944        }       Contains the address of FPT_CONNECT.
     2671     6945        }
     2672     6946        }    KN$NETPARM.LDCT$
     2673     6947        }     - Contains the address of the host link LDCT or the CONS VC LDCT.
     2674     6948
     2675     6949        }    KN$NETPARM.SLDCT$
     2676     6950        }     - Contains the address of the remote fep link LDCT.
     2677     6951        .fin
     2678     6952
     2679     6953        This routine is also entered from KNH$SCAN when the message arrived via
     2680     6954        a CIRCUIT LDCT and the state of that LDCT is OPEN.
     2681     6955
     2682     6956        If KNT$RECV_4HOST returns normally to KNH$SCAN, the message is to be
     2683     6957        marked as scanned.  An ALTRETURN indicates that the message is to be
     2684     6958        left on the SCQ.
     2685     6959
     2686     6960        KNH$SCAN calls this routine with the following parameters:
     2687     6961        .fif
     2688     6962        }
     2689     6963        }    KN$NETPARM.FUNCTION
     2690     6964        }     - Contains KN_FCN_DATA   message received
PL6.E3A0      #002=KNT$RECV_4HOST File=KNT$RECV.:E05TSI                          WED 07/30/97 01:12 Page:358
     2691     6965        }
     2692     6966        }    KN$NETPARM.THDR$
     2693     6967        }     - Contains the address within the message of the first
     2694     6968        }       byte of the TPDU.
     2695     6969        }
     2696     6970        }    KN$NETPARM.THDRSZ
     2697     6971        }     - Contains the byte size of the TPDU.
     2698     6972        }
     2699     6973        */
     2700     6974        %EJECT;
PL6.E3A0      #002=KNT$RECV_4HOST File=KNT$RECV.:E05TSI                          WED 07/30/97 01:12 Page:359
     2701     6975
     2702     6976    1      CTX$ = ADDR(NIL);
     2703     6977
     2704     6978    1      IF KN$LDCT.CONN_TYPE = %KN_CNTYPE_CIRCUIT
     2705     6979    2      THEN DO;
     2706     6980    2           LDCT_CIRCUIT = '1'B;
     2707     6981    2           TCTX# = KN$LDCT.RLCID.TCTX#;
     2708     6982    2           END;
     2709     6983    2      ELSE DO;
     2710     6984    2           LDCT_CIRCUIT = '0'B;
     2711     6985    2           TCTX# = B$TPDU_DT.DST_REF;
     2712     6986    2           END;
     2713     6987
     2714     6988    1      KN$NETPARM.TCTX_ID = TCTX#;
     2715     6989
     2716     6990    1      IF TCTX#>KN_TCTX_MAX# OR TCTX#=0
     2717     6991    1      THEN GOTO CIRCUIT_CHECK;
     2718     6992
     2719     6993    1      CTX$ = KN$TCTX$(TCTX#);
     2720     6994    1      KN$NETPARM.TCTX$ = CTX$;
     2721     6995
     2722     6996    1      IF CTX$ = ADDR(NIL)
     2723     6997    2      THEN DO;
     2724     6998    2   CIRCUIT_CHECK:
     2725     6999    2           IF TCTX#=0 AND KN$NETPARM.FUNCTION=%K_NCONNECT_IND
     2726     7000    2           THEN EXIT;
     2727     7001
     2728     7002    2           IF KN$LDCT.CONN_TYPE = %KN_CNTYPE_CIRCUIT
     2729     7003    3           THEN DO;
     2730     7004    3                CALL TRANSPORT_SCREECH;  /*N* at least for now */
     2731     7005    3                END;
     2732     7006    2           ELSE GOTO RECV_CR_4HOST;        /* for class 4 error processing       */
     2733     7007    2           END;
     2734     7008
     2735     7009        %EJECT;
PL6.E3A0      #002=KNT$RECV_4HOST File=KNT$RECV.:E05TSI                          WED 07/30/97 01:12 Page:360
     2736     7010    2      DO SELECT(KN$NETPARM.FUNCTION);
     2737     7011
     2738     7012    2           SELECT(%KN_FCN_DATA, %K_NDATA);
     2739     7013
     2740     7014
     2741     7015        /*     KNT$RECV_4HOST    - TPDU_CR
     2742     7016
     2743     7017           If this is a connect request, KNT$RECV_HOST_DATA
     2744     7018           will do the mucking with the tctx, modify the tpdu where it is now
     2745     7019           in the handlers cq.
     2746     7020
     2747     7021           If this is an OSI connection, of any class, KNT$RECV_HOST_DATA will
     2748     7022           also have called KNN$SEND to forward the message over the coupler.
     2749     7023
     2750     7024           If this is a CP-6 connection, here we RETURN to network where the
     2751     7025           TPDU_CR will be forwarded to the host.
     2752     7026        */
     2753     7027    2           IF B$TPDU_DT.TYPE = %K_TPDU_TYPE_CR
     2754     7028    3           THEN DO;
     2755     7029    3   RECV_CR_4HOST: ;
     2756     7030    3                CALL KNT$RECV_HOST_DATA(KN$NETPARM)
     2757     7031    4                WHENRETURN DO;
     2758     7032    4                     RETURN;               /*to forward the CP-6 _CR or _CC tpdu*/
     2759     7033    4                     END;
     2760     7034
     2761     7035    4                WHENALTRETURN DO;
     2762     7036    4                     IF KN$NETPARM.ERRCODE = %KN_ERR_NOQ
     2763     7037    4                       OR KN$NETPARM.ERRCODE = %KN_ERR_NOQ2
     2764     7038    5                     THEN DO;
     2765     7039                             /*N* un-muck with dst_ref */
     2766     7040    5                          ALTRETURN;
     2767     7041    5                          END;
     2768     7042    5                     ELSE DO;
     2769     7043                                      /* must have discarded the tpdu or sent it on   */
     2770     7044                                      /* in which case the error code should be zero. */
     2771     7045    5                          KN$NETPARM.ERRCODE = 0;
     2772     7046
PL6.E3A0      #002=KNT$RECV_4HOST File=KNT$RECV.:E05TSI                          WED 07/30/97 01:12 Page:361
     2773     7047    5                          IF LDCT_CIRCUIT
     2774     7048    5                          THEN RETURN;     /*so knh$scan doesn't leave on cq*/
     2775     7049    5                          ELSE ALTRETURN;  /*to avoid sending twice              */
     2776     7050    5                          END/*do if err = zero*/;
     2777     7051    4                     END/*do if altreturn*/;
     2778     7052    3                END/*do if tpud is _CR*/;
     2779     7053
     2780     7054        %EJECT;
PL6.E3A0      #002=KNT$RECV_4HOST File=KNT$RECV.:E05TSI                          WED 07/30/97 01:12 Page:362
     2781     7055
     2782     7056        /*     KNT$RECV_4HOST   - TPDU_any
     2783     7057
     2784     7058           For received data that is not a connect request, KNT$RECV_HOST_DATA
     2785     7059           will do the required processing by sending acks, resetting timers, etc.
     2786     7060
     2787     7061           In sequence data messages that may be sent on to the host will be
     2788     7062           forwarded by KNT$RECV_HOST_DATA calling network.  Out of sequence
     2789     7063           messages will be buffered.
     2790     7064
     2791     7065           If this entry to RECV_4HOST was from network, we ALTRETURN to
     2792     7066           avoid sending the message twice.
     2793     7067
     2794     7068           If this entry to RECV_4HOST was from KNH$HMI, we RETURN to
     2795     7069           avoid leaving the message on HDLC's SCQ.
     2796     7070        */
     2797     7071    2           KN$NETPARM.NODE = KN$TCTX.HOST_NODE;
     2798     7072
     2799     7073    2           CALL KNT$RECV_HOST_DATA(KN$NETPARM);
     2800     7074
     2801     7075    2           IF LDCT_CIRCUIT
     2802     7076    2           THEN RETURN;                    /*so knh$scan doesn't leave on cq     */
     2803     7077    2           ELSE ALTRETURN;                 /*to avoid sending twice*/
     2804     7078
     2805     7079        %EJECT;
PL6.E3A0      #002=KNT$RECV_4HOST File=KNT$RECV.:E05TSI                          WED 07/30/97 01:12 Page:363
     2806     7080
     2807     7081        /*     KNT$RECV_4HOST   - K_NCONNECT_IND
     2808     7082
     2809     7083        */
     2810     7084
     2811     7085    2           SELECT(%K_NCONNECT_IND);
     2812     7086    2           CALL KNT$TR_NCI(KN$NETPARM);
     2813     7087
     2814     7088    2           IF TCTX# ~= 0
     2815     7089    3           THEN DO;
     2816     7090    3                CALL TRANSPORT_SCREECH; /*N* at least for now */
     2817     7091    3                END;
     2818     7092
     2819     7093    2           CALL KNA$GETTCTX(CTX$)
     2820     7094    3           WHENALTRETURN DO;
     2821     7095    3                KN$NETPARM.ERRCODE = %KN_ERR_NOTCTX;
     2822     7096    3                ALTRETURN;
     2823     7097    3                END;
     2824     7098
     2825     7099    2           KN$TCTX.STATE = %K_TSTATE_WFCR_TPDU;
     2826     7100    2           KN$TCTX.LDCTX# = KN$NETPARM.LDCT$->KN$LDCT.LDCTX;
     2827     7101    2           KN$TCTX.HOST_NODE = KN$NETPARM.NODE;
     2828     7102    2           KN$TCTX.DST_NSAP = FPT_CONNECT.DEST;
     2829     7103    2           KN$TCTX.SRC_NSAP = FPT_CONNECT.LADR;
     2830     7104    2           KN$LDCT.RLCID.TCTX# = KN$TCTX.SRC_REF;
     2831     7105    2           RETURN;
     2832     7106
     2833     7107
     2834     7108        %EJECT;
PL6.E3A0      #002=KNT$RECV_4HOST File=KNT$RECV.:E05TSI                          WED 07/30/97 01:12 Page:364
     2835     7109
     2836     7110        /*     KNT$RECV_4HOST   - K_NCONNECT_CFM
     2837     7111
     2838     7112        */
     2839     7113
     2840     7114    2           SELECT(%K_NCONNECT_CFM);
     2841     7115    2           CALL KNT$TR_NCC(KN$NETPARM);
     2842     7116
     2843     7117    2           KN$NETPARM.FPT$ = ADDR(NIL);
     2844     7118    2           KN$NETPARM.FLAGS.CONS = '1'B;
     2845     7119    2           KN$NETPARM.NHDRSZ = 0;
     2846     7120    2           KN$NETPARM.SHDRSZ = 0;
     2847     7121    2           KN$NETPARM.UHDRSZ = 0;
     2848     7122    2           KN$NETPARM.MSGSZ = 0;
     2849     7123
     2850     7124    2           IF KN$TCTX.STATE=%K_TSTATE_WFNC OR KN$TCTX.STATE=%K_TSTATE_WFCC
     2851     7125    3           THEN DO;
     2852     7126    3                KN$NETPARM.FUNCTION = %K_NDATA;
     2853     7127    3                KN$NETPARM.THDR$ = PINCRW(KN$TCTX.SEND_HEAD$, SIZEW(FRAG_HDR) );
     2854     7128    3                KN$NETPARM.THDRSZ = KN$TCTX.SEND_HEAD$->FRAG_HDR.DATA_BSIZE;
     2855     7129    3                KN$TCTX.STATE = %K_TSTATE_WFCC;
     2856     7130    3                CALL KNT$TR_SEND(KN$NETPARM);
     2857     7131    3                END;
     2858     7132
     2859     7133    3           ELSE DO;
     2860     7134    3                IF KN$TCTX.STATE = %K_TSTATE_WBCL
     2861     7135    4                THEN DO;
     2862     7136    4                     KN$NETPARM.FUNCTION = %KN_FCN_TERM;
     2863     7137    4                     KN$NETPARM.THDRSZ = 0;
     2864     7138    4                     END;
     2865     7139    4                ELSE DO;
     2866     7140    4                     CALL TRANSPORT_SCREECH;
     2867     7141    4                     END;
     2868     7142    3                END;
     2869     7143
     2870     7144
     2871     7145    2           CALL KNH$SEND (KN$NETPARM)
PL6.E3A0      #002=KNT$RECV_4HOST File=KNT$RECV.:E05TSI                          WED 07/30/97 01:12 Page:365
     2872     7146    3           WHENALTRETURN DO;
     2873     7147    3                CALL TRANSPORT_SCREECH;/*N* what to do?*/
     2874     7148    3                END;
     2875     7149
     2876     7150    2           IF KN$TCTX.STATE = %K_TSTATE_WBCL
     2877     7151    3           THEN DO;
     2878     7152    3                CALL KNT$SET_REFWAIT (KN$TCTX);
     2879     7153    3                RETURN;
     2880     7154    3                END;
     2881     7155
     2882     7156    2           IF KN$TCTX.CLASS ~= 4
     2883     7157    3           THEN DO;
     2884     7158    3                CALL KNT$RLS_CHAIN (KN$TCTX);
     2885     7159    3                KN$TCTX.SEND_HEAD$ = ADDR(NIL);
     2886     7160    3                END;
     2887     7161
     2888     7162    2           RETURN;
     2889     7163
     2890     7164
     2891     7165        %EJECT;
PL6.E3A0      #002=KNT$RECV_4HOST File=KNT$RECV.:E05TSI                          WED 07/30/97 01:12 Page:366
     2892     7166
     2893     7167        /*     KNT$RECV_4HOST   - NDISCONNECT   NRESET   TERM
     2894     7168
     2895     7169        */
     2896     7170
     2897     7171    2           SELECT(%K_NRESET_IND, %K_NDISCONNECT_IND, %KN_FCN_TERM);
     2898     7172                                 /* term if called from scan - else called from nw??  */
     2899     7173    2           IF KN$NETPARM.FUNCTION = %K_NRESET_IND
     2900     7174    2           THEN CALL KNT$TR_NRESET(KN$NETPARM);
     2901     7175    2           ELSE IF KN$NETPARM.FUNCTION = %K_NDISCONNECT_IND
     2902     7176    2                THEN CALL KNT$TR_NDISCONNECT(KN$NETPARM);
     2903     7177    2                ELSE CALL KNT$TR_TERM(KN$NETPARM);
     2904     7178
     2905     7179    2           IF (KN$TCTX.STATE>%K_TSTATE_CLOSED)
     2906     7180    2             AND (KN$TCTX.STATE ~= %K_TSTATE_CLOSING)
     2907     7181    3           THEN DO;
     2908     7182    3                KN$TCTX.REASON = %K_REASON_NOTATTACHED;
     2909     7183    3                KN$TCTX.ERR = %K_ERROR_NRESET;
     2910     7184
     2911     7185    3                IF (KN$TCTX.STATE ~= %K_TSTATE_WFCR_TPDU)
     2912     7186    3                  AND (KN$TCTX.STATE ~= %K_TSTATE_WBCL)
     2913     7187    3                THEN CALL KNT$SEND_DR_HOST(KN$NETPARM);
     2914     7188
     2915     7189    3                CALL KNT$SET_REFWAIT (KN$TCTX);
     2916     7190    3                END;
     2917     7191
     2918     7192    2           RETURN;
     2919     7193
     2920     7194
     2921     7195        /*     KNT$RECV_4HOST   - TERM_ACK
     2922     7196
     2923     7197        */
     2924     7198
     2925     7199    2           SELECT(%KN_FCN_TERM_ACK);
     2926     7200                                           /* term-ack set only by hdlc for CONS VC*/
     2927     7201
     2928     7202    2           RETURN;
PL6.E3A0      #002=KNT$RECV_4HOST File=KNT$RECV.:E05TSI                          WED 07/30/97 01:12 Page:367
     2929     7203
     2930     7204
     2931     7205        %EJECT;
PL6.E3A0      #002=KNT$RECV_4HOST File=KNT$RECV.:E05TSI                          WED 07/30/97 01:12 Page:368
     2932     7206    2           SELECT(ELSE);
     2933     7207    2      CALL TRANSPORT_SCREECH;
     2934     7208
     2935     7209    2           END/*do case*/;
     2936     7210
     2937     7211
     2938     7212
     2939     7213
     2940     7214    1   TRANSPORT_SCREECH: PROC;
     2941     7215    2      CALL SCREECH(KNT_SCODE);
     2942     7216    2   END TRANSPORT_SCREECH;
     2943     7217
     2944     7218    1   END KNT$RECV_4HOST;

PL6.E3A0      #002=KNT$RECV_4HOST File=KNT$RECV.:E05TSI                          WED 07/30/97 01:12 Page:369
--  Include file information  --

   GH_SCHD_M.:E05TOU  is referenced.
   KNH_MACRO_C.:E05TOU  is referenced.
   KN_DATA_M.:E05TOU  is referenced.
   K_TRANSPORT_M.:E05TOU  is referenced.
   K_TRANSPORT_E.:E05TOU  is referenced.
   K_INTERFACE_M.:E05TOU  is referenced.
   K_ADDRESS_M.:E05TOU  is referenced.
   G_LCP6_E.:E05TOU  was found in the system file and is never referenced.
   GT_LCP6_M.:E05TOU  was found in the system file and is never referenced.
   KI_CP6.:E05TOU  was found in the system file and is referenced.
   GF_LCP6_M.:E05TOU  was found in the system file and is never referenced.
   GM_LCP6_M.:E05TOU  was found in the system file and is never referenced.
   GU_LCP6_M.:E05TOU  was found in the system file and is never referenced.
   GJ_LCP6_M.:E05TOU  was found in the system file and is never referenced.
   GH_LCP6_M.:E05TOU  was found in the system file and is never referenced.
      No diagnostics issued in procedure KNT$RECV_4HOST.

   Procedure KNT$RECV_4HOST requires 550 words for executable code.
   Procedure KNT$RECV_4HOST requires 18 words of local(AUTO) storage.

    No errors detected in file KNT$RECV.:E05TSI    .

PL6.E3A0      #002=KNT$RECV_4HOST File=KNT$RECV.:E05TSI                          WED 07/30/97 01:12 Page:370

 Object Unit name= KNT$RECV_4HOST                             File name= KNT$RECV.:E05TOU
 UTS= JUL 30 '97 01:12:31.20 WED                              Compiler= PL-6/E31         Sev=      00
 SharedLib= :SHARED_LCP6_SYSTEM                               Alt SharedLib=


    ****  Control sections  ****

 Sect   Type Bound  Init  Size HexSiz  Section name
    0   Proc  even  none   550    226  KNT$RECV_4HOST
    1  RoData even  none     2      2  KNT$RECV_4HOST

    ****  Entry defs  ****

                              Check   Calling
                             calling  sequence
  Sect HexLoc Primary Altret sequence   type   Parms  Name
     0      0   yes    yes     yes      Std        1  KNT$RECV_4HOST

  ****  Entry refs  ****

         Check        Calling
        calling       sequence
Altret sequence SRef   type   Args  Name
         yes           Std       1 KNT$SET_REFWAIT
 yes     yes           Std       1 KNT$RECV_HOST_DATA
 yes     yes           Std       1 KNH$SEND
         yes           Std       1 KNT$TR_NCI
         yes           Std       1 KNT$TR_NCC
 yes     yes           Std       1 KNA$GETTCTX
         yes           Std       1 KNT$TR_SEND
         yes           Std       1 KNT$RLS_CHAIN
         yes           Std       1 KNT$TR_NRESET
         yes           Std       1 KNT$TR_NDISCONNECT
         yes           Std       1 KNT$TR_TERM
 yes     yes           Std       1 KNT$SEND_DR_HOST
         yes           Std       1 SCREECH
                       nStd      0 X6A_AUTO_1
PL6.E3A0      #002=KNT$RECV_4HOST File=KNT$RECV.:E05TSI                          WED 07/30/97 01:12 Page:371
                       nStd      0 X6B_BLR
                       nStd      0 X6A_ARET
                       nStd      0 X6A_AALT

  ****  Data refs  ****

  Flags:  r = read only, s = secondary
Flgs Name                             Flgs Name                             Flgs Name
     KN_TCTX$$                             KNT_SCODE                             KN_TCTX_MAX#
r    G$ROS$
PL6.E3A0      #002=KNT$RECV_4HOST File=KNT$RECV.:E05TSI                          WED 07/30/97 01:12 Page:372


     2557        1        /*M* KNT$RECV_4HOST - Send session messages to network.   */
     2558        2        /*T***********************************************************/
     2559        3        /*T*                                                         */
     2560        4        /*T* Copyright (c) Bull HN Information Systems Inc., 1997    */
     2561        5        /*T*                                                         */
     2562        6        /*T***********************************************************/
     2563        7        /*X* PLM=3,IND=5,ENU=0,ECU=0 */
     2564        8
     2565        9        KNT$RECV_4HOST: PROC(KN$NETPARM) ALTRET;

      9   0 000000  D380 0000 0000  xent KNT$RECV_4HOST  LNJ,B5   X6A_AUTO_1
          0 000003       0012 0001                       DC       18,1

     2566       10
     2567       11        %INCLUDE K_ADDRESS_M;
     2568      514        %INCLUDE K_INTERFACE_M;
     2569      923        %INCLUDE K_TRANSPORT_E;
     2570     1248        %INCLUDE K_TRANSPORT_M;
     2571     3032        %INCLUDE KN_DATA_M;
     2572     4818        %INCLUDE KNH_MACRO_C;
     2573     5101 S      %INCLUDE KI_CP6;
     2574     5102        %INCLUDE GH_SCHD_M;
     2575     5246
     2576     5247                                                /* Input parameters                   */
     2577     5248        %KN$NETPARM;
     2578     5401                                                /* Auto Storage                       */
     2579     5402    1   DCL CTX$ PTR;
     2580     5403    1   DCL TCTX# UBIN;
     2581     5404    1   DCL LDCT_CIRCUIT BIT(1);
     2582     5405
     2583     5406
     2584     5407    1   DCL KNT$RLS_CHAIN ENTRY(1);
     2585     5408    1   DCL KNT$RECV_HOST_DATA ENTRY(1) ALTRET;
     2586     5409    1   DCL KNT$SEND_DR_HOST ENTRY(1) ALTRET;
     2587     5410    1   DCL KNT$SET_REFWAIT ENTRY(1);
     2588     5411    1   DCL KNT$TR_NCI ENTRY(1);
PL6.E3A0      #002=KNT$RECV_4HOST File=KNT$RECV.:E05TSI                          WED 07/30/97 01:12 Page:373
     2589     5412    1   DCL KNT$TR_NCC ENTRY(1);
     2590     5413    1   DCL KNT$TR_NRESET ENTRY(1);
     2591     5414    1   DCL KNT$TR_TERM ENTRY(1);
     2592     5415    1   DCL KNT$TR_NDISCONNECT ENTRY(1);
     2593     5416    1   DCL KNT$TR_SEND ENTRY(1);
     2594     5417    1   DCL KNA$GETTCTX ENTRY(1) ALTRET;
     2595     5418    1   DCL KNH$SEND ENTRY(1) ALTRET;
     2596     5419    1   DCL GHS$SET_TMR ENTRY(1);
     2597     5420    1   DCL SCREECH ENTRY(1);
     2598     5421
     2599     5422                                                /* Based Data                         */
     2600     5423        %K$TCTX (NAME=KN$TCTX, STCLASS="BASED(CTX$)");
     2601     6330    1   DCL KN$TCTX$(0:0) PTR BASED(KN_TCTX$$);
     2602     6331
     2603     6332        %K$TPDU_DT (NAME=B$TPDU_DT,STCLASS="BASED(KN$NETPARM.THDR_C$)",ALGN=CALIGNED);
     2604     6382
     2605     6383        %KN$LDCT (NAME=KN$LDCT, STCLASS="BASED(KN$NETPARM.LDCT$)");
     2606     6628
     2607     6629        %K$FRAG_HDR (NAME=FRAG_HDR, STCLASS=BASED);
     2608     6712
     2609     6713        %FPT_CONNECT (STCLASS="BASED(KN$NETPARM.FPT$)", ADRTYP=X121);
     2610     6884
     2611     6885                                                /* External Data                      */
     2612     6886    1   DCL KN_TCTX$$ PTR SYMREF;
     2613     6887    1   DCL KNT_SCODE UBIN(32) SYMREF;
     2614     6888    1   DCL KN_TCTX_MAX# UBIN SYMREF;
     2615     6889
     2616     6890        %EJECT;
PL6.E3A0      #002=KNT$RECV_4HOST File=KNT$RECV.:E05TSI                          WED 07/30/97 01:12 Page:374
     2617     6891        /*F* NAME: KNT$RECV_4HOST
     2618     6892
     2619     6893        This routine is entered when Network has just received a message for
     2620     6894        an adjacent host node and the MSGTYPE is not QDP.
     2621     6895
     2622     6896        If KNT$RECV_4HOST returns normally to KNN$RECV, network will proceed
     2623     6897        as if the recv_4host routine had not been called; i.e. the message
     2624     6898        will be forwarded to the host by KNN$RECV call KNH$SEND.
     2625     6899
     2626     6900        If KNT$RECV_4HOST altreturns to KNN$RECV, network will inspect the
     2627     6901        value in kn$netparm.errcode to determine how to proceed.
     2628     6902
     2629     6903             An error code of zero indicates that the message has been buffered
     2630     6904             by transport and no further processing of this message is necessary.
     2631     6905
     2632     6906             A non-zero error code will indicate that transport was unsuccessful
     2633     6907             in forwarding the message (probably because the coupler's cq was full).
     2634     6908             Network will altreturn to KNH$SCAN which will cause the message to be
     2635     6909             queued in hdlcx.25's cq.
     2636     6910
     2637     6911        KNN$RECV calls this routine with the following parameters:
     2638     6912        .fif
     2639     6913        }
     2640     6914        }    KN$NETPARM.FUNCTION
     2641     6915        }     - Contains a value to indicate what type of function is to
     2642     6916        }       be performed and what type of message has been received:
     2643     6917        }
     2644     6918        }        K_NCONNECT_IND - if initiating a CONS inbound VC connection
     2645     6919        }                         (KNN$RECV was called with KN_FCN_INIT)
     2646     6920        }
     2647     6921        }        K_NCONNECT_CFM - if CONS VC connect completion
     2648     6922        }                         (KNN$RECV was called with KN_FCN_INIT_ACK)
     2649     6923        }
     2650     6924        }        K_NRESET_IND   - if CONS VC disconnect
     2651     6925        }                         (KNH$HMI found KNH$MESS.FUNCTION = KN_FCN_RESET)
     2652     6926        }
     2653     6927        }        KN_FCN_DATA    - CP-6 message received
PL6.E3A0      #002=KNT$RECV_4HOST File=KNT$RECV.:E05TSI                          WED 07/30/97 01:12 Page:375
     2654     6928        }
     2655     6929        }        K_NDATA        - OSI message received
     2656     6930        }
     2657     6931        }    KN$NETPARM.THDR$
     2658     6932        }     - Contains the address within the message of the first
     2659     6933        }       byte of the TPDU.
     2660     6934        }
     2661     6935        }    KN$NETPARM.THDRSZ
     2662     6936        }     - Contains the byte size of the TPDU.
     2663     6937        }
     2664     6938        }    KN$NETPARM.NHDR$
     2665     6939        }     - used when FUNCTION is KN_FCN_DATA
     2666     6940        }       Contains the address of the network header.
     2667     6941        }
     2668     6942        }    KN$NETPARM.FPT$
     2669     6943        }     - used when FUNCTION is K_NCONNECT_IND to complete VC connection.
     2670     6944        }       Contains the address of FPT_CONNECT.
     2671     6945        }
     2672     6946        }    KN$NETPARM.LDCT$
     2673     6947        }     - Contains the address of the host link LDCT or the CONS VC LDCT.
     2674     6948
     2675     6949        }    KN$NETPARM.SLDCT$
     2676     6950        }     - Contains the address of the remote fep link LDCT.
     2677     6951        .fin
     2678     6952
     2679     6953        This routine is also entered from KNH$SCAN when the message arrived via
     2680     6954        a CIRCUIT LDCT and the state of that LDCT is OPEN.
     2681     6955
     2682     6956        If KNT$RECV_4HOST returns normally to KNH$SCAN, the message is to be
     2683     6957        marked as scanned.  An ALTRETURN indicates that the message is to be
     2684     6958        left on the SCQ.
     2685     6959
     2686     6960        KNH$SCAN calls this routine with the following parameters:
     2687     6961        .fif
     2688     6962        }
     2689     6963        }    KN$NETPARM.FUNCTION
     2690     6964        }     - Contains KN_FCN_DATA   message received
PL6.E3A0      #002=KNT$RECV_4HOST File=KNT$RECV.:E05TSI                          WED 07/30/97 01:12 Page:376
     2691     6965        }
     2692     6966        }    KN$NETPARM.THDR$
     2693     6967        }     - Contains the address within the message of the first
     2694     6968        }       byte of the TPDU.
     2695     6969        }
     2696     6970        }    KN$NETPARM.THDRSZ
     2697     6971        }     - Contains the byte size of the TPDU.
     2698     6972        }
     2699     6973        */
     2700     6974        %EJECT;
PL6.E3A0      #002=KNT$RECV_4HOST File=KNT$RECV.:E05TSI                          WED 07/30/97 01:12 Page:377
     2701     6975
     2702     6976    1      CTX$ = ADDR(NIL);

   6976   0 000005  EB80 0000 0000                       LAB,B6   0
          0 000008  EFC7 0006                            STB,B6   CTX$,AUTO

     2703     6977
     2704     6978    1      IF KN$LDCT.CONN_TYPE = %KN_CNTYPE_CIRCUIT

   6978   0 00000A  DCC7 0004                            LDB,B5   @KN$NETPARM,AUTO
          0 00000C  CC85                                 LDB,B4   ,B5
          0 00000D  E284                                 LLH,R6   ,B4
          0 00000E  6D07                                 CMV,R6   7
          0 00000F  0981 000A                            BNE      s:6984,PREL

     2705     6979    2      THEN DO;

     2706     6980    2           LDCT_CIRCUIT = '1'B;

   6980   0 000011  8947 0009                            LBT,'8000'X       LDCT_CIRCUIT,AUTO
   6980   0 000013       8000

     2707     6981    2           TCTX# = KN$LDCT.RLCID.TCTX#;

   6981   0 000014  D844 0002                            LDR,R5   2,B4
          0 000016  DF47 0008                            STR,R5   TCTX#,AUTO

     2708     6982    2           END;

   6982   0 000018  0F81 0018                            B        s:6988,PREL

     2709     6983    2      ELSE DO;

     2710     6984    2           LDCT_CIRCUIT = '0'B;

   6984   0 00001A  8747 0009                            CL       LDCT_CIRCUIT,AUTO

PL6.E3A0      #002=KNT$RECV_4HOST File=KNT$RECV.:E05TSI                          WED 07/30/97 01:12 Page:378
     2711     6985    2           TCTX# = B$TPDU_DT.DST_REF;

   6985   0 00001C  8CC5 000B                            LDI      11,B5
          0 00001E  B856                                 LDR,R3   R6
          0 00001F  E570 7FFF                            AND,R6   32767,IMO
          0 000021  8D47 000C                            SDI      LDCT_CIRCUIT+3,AUTO
          0 000023  CCC7 000C                            LDB,B4   LDCT_CIRCUIT+3,AUTO
          0 000025  304F                                 SOR,R3   15
          0 000026  5C02                                 LDV,R5   2
          0 000027  0021                                 ALR      ;
          0 000028       4234 0001                                ALPHANUM(1,B4,R3,,2),;
          0 00002A       4007 000E                                ALPHANUM(LDCT_CIRCUIT+5,AUTO,,R5,FILL)
          0 00002C  437F                                 CSYNC    s:6985+15,SPREL
          0 00002D  C847 000E                            LDR,R4   LDCT_CIRCUIT+5,AUTO
          0 00002F  CF47 0008                            STR,R4   TCTX#,AUTO

     2712     6986    2           END;

     2713     6987
     2714     6988    1      KN$NETPARM.TCTX_ID = TCTX#;

   6988   0 000031  E847 0008                            LDR,R6   TCTX#,AUTO
          0 000033  EF45 0011                            STR,R6   17,B5

     2715     6989
     2716     6990    1      IF TCTX#>KN_TCTX_MAX# OR TCTX#=0

   6990   0 000035  E900 0000 0000  xsym                 CMR,R6   KN_TCTX_MAX#
          0 000038  0301 0010                            BG       s:6997,PREL
          0 00003A  6901 000E                            BEZ,R6   s:6997,PREL

     2717     6991    1      THEN GOTO CIRCUIT_CHECK;
     2718     6992
     2719     6993    1      CTX$ = KN$TCTX$(TCTX#);

   6993   0 00003C  CC80 0000 0000  xsym                 LDB,B4   KN_TCTX$$
          0 00003F  B856                                 LDR,R3   R6
PL6.E3A0      #002=KNT$RECV_4HOST File=KNT$RECV.:E05TSI                          WED 07/30/97 01:12 Page:379
          0 000040  BCB4                                 LDB,B3   ,B4,R3
          0 000041  BFC7 0006                            STB,B3   CTX$,AUTO

     2720     6994    1      KN$NETPARM.TCTX$ = CTX$;

   6994   0 000043  BFC5 001B                            STB,B3   27,B5

     2721     6995
     2722     6996    1      IF CTX$ = ADDR(NIL)

   6996   0 000045  8DC7 0006                            CMN      CTX$,AUTO
          0 000047  0981 0012                            BNE      s:7010,PREL

     2723     6997    2      THEN DO;

     2724     6998    2   CIRCUIT_CHECK:
     2725     6999    2           IF TCTX#=0 AND KN$NETPARM.FUNCTION=%K_NCONNECT_IND

   6999   0 000049  6981 0006            CIRCUIT_CHECK   BNEZ,R6  s:7002,PREL
          0 00004B  D845 0014                            LDR,R5   20,B5
          0 00004D  5D1F                                 CMV,R5   31
          0 00004E  0901 000B                            BE       s:7010,PREL

     2726     7000    2           THEN EXIT;
     2727     7001
     2728     7002    2           IF KN$LDCT.CONN_TYPE = %KN_CNTYPE_CIRCUIT

   7002   0 000050  EC85                                 LDB,B6   ,B5
          0 000051  D286                                 LLH,R5   ,B6
          0 000052  5D07                                 CMV,R5   7
          0 000053  0981 0056                            BNE      s:7028,PREL

     2729     7003    3           THEN DO;

     2730     7004    3                CALL TRANSPORT_SCREECH;  /*N* at least for now */

   7004   0 000055  E3C0 01BE                            LNJ,B6   s:0,PREL
PL6.E3A0      #002=KNT$RECV_4HOST File=KNT$RECV.:E05TSI                          WED 07/30/97 01:12 Page:380
          0 000057       0001                            DC       s:7005,PREL

     2731     7005    3                END;

   7005   0 000058  0F81 0001                            B        s:7010,PREL

     2732     7006    2           ELSE GOTO RECV_CR_4HOST;        /* for class 4 error processing       */
     2733     7007    2           END;
     2734     7008
     2735     7009        %EJECT;
PL6.E3A0      #002=KNT$RECV_4HOST File=KNT$RECV.:E05TSI                          WED 07/30/97 01:12 Page:381
     2736     7010    2      DO SELECT(KN$NETPARM.FUNCTION);

   7010   0 00005A  ECC7 0004                            LDB,B6   @KN$NETPARM,AUTO
          0 00005C  E846 0014                            LDR,R6   20,B6
          0 00005E  E970 0021                            CMR,R6   33,IMO
          0 000060  0801 000E                            BAL      s:7010+21,PREL
          0 000062  0901 0027                            BE       s:7027,PREL
          0 000064  E970 0023                            CMR,R6   35,IMO
          0 000066  0801 01A8                            BAL      s:7207,PREL
          0 000068  0901 0157                            BE       s:7173,PREL
          0 00006A  6D24                                 CMV,R6   36
          0 00006B  0981 01A3                            BNE      s:7207,PREL
          0 00006D  0F81 0152                            B        s:7173,PREL
          0 00006F  E970 001F                            CMR,R6   31,IMO
          0 000071  0801 0008                            BAL      s:7010+32,PREL
          0 000073  0901 0074                            BE       s:7086,PREL
          0 000075  6D20                                 CMV,R6   32
          0 000076  0981 0198                            BNE      s:7207,PREL
          0 000078  0F81 00C7                            B        s:7115,PREL
          0 00007A  E970 0004                            CMR,R6   4,IMO
          0 00007C  0801 0008                            BAL      s:7010+43,PREL
          0 00007E  0901 018D                            BE       s:7202,PREL
          0 000080  6D05                                 CMV,R6   5
          0 000081  0981 018D                            BNE      s:7207,PREL
          0 000083  0F81 0006                            B        s:7027,PREL
          0 000085  6D03                                 CMV,R6   3
          0 000086  0981 0188                            BNE      s:7207,PREL
          0 000088  0F81 0137                            B        s:7173,PREL

     2737     7011
     2738     7012    2           SELECT(%KN_FCN_DATA, %K_NDATA);

     2739     7013
     2740     7014
     2741     7015        /*     KNT$RECV_4HOST    - TPDU_CR
     2742     7016
     2743     7017           If this is a connect request, KNT$RECV_HOST_DATA
PL6.E3A0      #002=KNT$RECV_4HOST File=KNT$RECV.:E05TSI                          WED 07/30/97 01:12 Page:382
     2744     7018           will do the mucking with the tctx, modify the tpdu where it is now
     2745     7019           in the handlers cq.
     2746     7020
     2747     7021           If this is an OSI connection, of any class, KNT$RECV_HOST_DATA will
     2748     7022           also have called KNN$SEND to forward the message over the coupler.
     2749     7023
     2750     7024           If this is a CP-6 connection, here we RETURN to network where the
     2751     7025           TPDU_CR will be forwarded to the host.
     2752     7026        */
     2753     7027    2           IF B$TPDU_DT.TYPE = %K_TPDU_TYPE_CR

   7027   0 00008A  8CC6 000B                            LDI      11,B6
          0 00008C  B856                                 LDR,R3   R6
          0 00008D  E570 7FFF                            AND,R6   32767,IMO
          0 00008F  8D47 000C                            SDI      LDCT_CIRCUIT+3,AUTO
          0 000091  DCC7 000C                            LDB,B5   LDCT_CIRCUIT+3,AUTO
          0 000093  304F                                 SOR,R3   15
          0 000094  BF47 000F                            STR,R3   LDCT_CIRCUIT+6,AUTO
          0 000096  DFC7 0010                            STB,B5   LDCT_CIRCUIT+7,AUTO
          0 000098  AB85                                 LAB,B2   ,B5
          0 000099  A853                                 LDR,R2   R3
          0 00009A  2003                                 SOL,R2   3
          0 00009B  2E08                                 ADV,R2   8
          0 00009C  6C04                                 LDV,R6   4
          0 00009D  BBC7 000C                            LAB,B3   LDCT_CIRCUIT+3,AUTO
          0 00009F  3C20                                 LDV,R3   32
          0 0000A0  7C10                                 LDV,R7   16
          0 0000A1  D380 0000 0000  xent                 LNJ,B5   X6B_BLR
          0 0000A4  E847 000E                            LDR,R6   LDCT_CIRCUIT+5,AUTO
          0 0000A6  604C                                 SOR,R6   12
          0 0000A7  6D0E                                 CMV,R6   14
          0 0000A8  0981 0025                            BNE      s:7071,PREL

     2754     7028    3           THEN DO;

   7004   0                              RECV_CR_4HOST   null
     2755     7029    3   RECV_CR_4HOST: ;
PL6.E3A0      #002=KNT$RECV_4HOST File=KNT$RECV.:E05TSI                          WED 07/30/97 01:12 Page:383
     2756     7030    3                CALL KNT$RECV_HOST_DATA(KN$NETPARM)

   7030   0 0000AA  BBC7 0004            RECV_CR_4HOST   LAB,B3   @KN$NETPARM,AUTO
          0 0000AC  CBF0 0100                            LAB,B4   256,IMO
          0 0000AE  E380 0000 0000  xent                 LNJ,B6   KNT$RECV_HOST_DATA
          0 0000B1       0004                            DC       s:7036,PREL

     2757     7031    4                WHENRETURN DO;

     2758     7032    4                     RETURN;               /*to forward the CP-6 _CR or _CC tpdu*/

   7032   0 0000B2  C380 0000 0000  xent                 LNJ,B4   X6A_ARET

     2759     7033    4                     END;
     2760     7034
     2761     7035    4                WHENALTRETURN DO;

     2762     7036    4                     IF KN$NETPARM.ERRCODE = %KN_ERR_NOQ

   7036   0 0000B5  ECC7 0004                            LDB,B6   @KN$NETPARM,AUTO
          0 0000B7  E846 0016                            LDR,R6   22,B6
          0 0000B9  6D01                                 CMV,R6   1
          0 0000BA  0901 0004                            BE       s:7040,PREL
          0 0000BC  6D07                                 CMV,R6   7
          0 0000BD  0981 0004                            BNE      s:7045,PREL

     2763     7037    4                       OR KN$NETPARM.ERRCODE = %KN_ERR_NOQ2
     2764     7038    5                     THEN DO;

     2765     7039                             /*N* un-muck with dst_ref */
     2766     7040    5                          ALTRETURN;

   7040   0 0000BF  C380 0000 0000  xent                 LNJ,B4   X6A_AALT

     2767     7041    5                          END;
     2768     7042    5                     ELSE DO;

PL6.E3A0      #002=KNT$RECV_4HOST File=KNT$RECV.:E05TSI                          WED 07/30/97 01:12 Page:384
     2769     7043                                      /* must have discarded the tpdu or sent it on   */
     2770     7044                                      /* in which case the error code should be zero. */
     2771     7045    5                          KN$NETPARM.ERRCODE = 0;

   7045   0 0000C2  8746 0016                            CL       22,B6

     2772     7046
     2773     7047    5                          IF LDCT_CIRCUIT

   7047   0 0000C4  89C7 0009                            CMZ      LDCT_CIRCUIT,AUTO
          0 0000C6  0881 0004                            BAGE     s:7049,PREL

     2774     7048    5                          THEN RETURN;     /*so knh$scan doesn't leave on cq*/

   7048   0 0000C8  C380 0000 0000  xent                 LNJ,B4   X6A_ARET

     2775     7049    5                          ELSE ALTRETURN;  /*to avoid sending twice              */

   7049   0 0000CB  C380 0000 0000  xent                 LNJ,B4   X6A_AALT

     2776     7050    5                          END/*do if err = zero*/;
     2777     7051    4                     END/*do if altreturn*/;
     2778     7052    3                END/*do if tpud is _CR*/;
     2779     7053
     2780     7054        %EJECT;
PL6.E3A0      #002=KNT$RECV_4HOST File=KNT$RECV.:E05TSI                          WED 07/30/97 01:12 Page:385
     2781     7055
     2782     7056        /*     KNT$RECV_4HOST   - TPDU_any
     2783     7057
     2784     7058           For received data that is not a connect request, KNT$RECV_HOST_DATA
     2785     7059           will do the required processing by sending acks, resetting timers, etc.
     2786     7060
     2787     7061           In sequence data messages that may be sent on to the host will be
     2788     7062           forwarded by KNT$RECV_HOST_DATA calling network.  Out of sequence
     2789     7063           messages will be buffered.
     2790     7064
     2791     7065           If this entry to RECV_4HOST was from network, we ALTRETURN to
     2792     7066           avoid sending the message twice.
     2793     7067
     2794     7068           If this entry to RECV_4HOST was from KNH$HMI, we RETURN to
     2795     7069           avoid leaving the message on HDLC's SCQ.
     2796     7070        */
     2797     7071    2           KN$NETPARM.NODE = KN$TCTX.HOST_NODE;

   7071   0 0000CE  ECC7 0004                            LDB,B6   @KN$NETPARM,AUTO
          0 0000D0  DCC7 0006                            LDB,B5   CTX$,AUTO
          0 0000D2  E2C5 0004                            LLH,R6   4,B5
          0 0000D4  EF46 0015                            STR,R6   21,B6

     2798     7072
     2799     7073    2           CALL KNT$RECV_HOST_DATA(KN$NETPARM);

   7073   0 0000D6  BBC7 0004                            LAB,B3   @KN$NETPARM,AUTO
          0 0000D8  CBF0 0100                            LAB,B4   256,IMO
          0 0000DA  E380 0000 0000  xent                 LNJ,B6   KNT$RECV_HOST_DATA
          0 0000DD       0001                            DC       s:7075,PREL

     2800     7074
     2801     7075    2           IF LDCT_CIRCUIT

   7075   0 0000DE  89C7 0009                            CMZ      LDCT_CIRCUIT,AUTO
          0 0000E0  0881 0004                            BAGE     s:7077,PREL

PL6.E3A0      #002=KNT$RECV_4HOST File=KNT$RECV.:E05TSI                          WED 07/30/97 01:12 Page:386
     2802     7076    2           THEN RETURN;                    /*so knh$scan doesn't leave on cq     */

   7076   0 0000E2  C380 0000 0000  xent                 LNJ,B4   X6A_ARET

     2803     7077    2           ELSE ALTRETURN;                 /*to avoid sending twice*/

   7077   0 0000E5  C380 0000 0000  xent                 LNJ,B4   X6A_AALT

     2804     7078
     2805     7079        %EJECT;
PL6.E3A0      #002=KNT$RECV_4HOST File=KNT$RECV.:E05TSI                          WED 07/30/97 01:12 Page:387
     2806     7080
     2807     7081        /*     KNT$RECV_4HOST   - K_NCONNECT_IND
     2808     7082
     2809     7083        */
     2810     7084
     2811     7085    2           SELECT(%K_NCONNECT_IND);

     2812     7086    2           CALL KNT$TR_NCI(KN$NETPARM);

   7086   0 0000E8  BBC7 0004                            LAB,B3   @KN$NETPARM,AUTO
          0 0000EA  CBF0 0100                            LAB,B4   256,IMO
          0 0000EC  E380 0000 0000  xent                 LNJ,B6   KNT$TR_NCI
          0 0000EF       0001                            DC       s:7088,PREL

     2813     7087
     2814     7088    2           IF TCTX# ~= 0

   7088   0 0000F0  E847 0008                            LDR,R6   TCTX#,AUTO
          0 0000F2  6901 0004                            BEZ,R6   s:7093,PREL

     2815     7089    3           THEN DO;

     2816     7090    3                CALL TRANSPORT_SCREECH; /*N* at least for now */

   7090   0 0000F4  E3C0 011F                            LNJ,B6   s:0,PREL
          0 0000F6       0001                            DC       s:7093,PREL

     2817     7091    3                END;

     2818     7092
     2819     7093    2           CALL KNA$GETTCTX(CTX$)

   7093   0 0000F7  EBC7 0006                            LAB,B6   CTX$,AUTO
          0 0000F9  EFC7 000C                            STB,B6   LDCT_CIRCUIT+3,AUTO
          0 0000FB  BBC7 000C                            LAB,B3   LDCT_CIRCUIT+3,AUTO
          0 0000FD  CBF0 0100                            LAB,B4   256,IMO
          0 0000FF  E380 0000 0000  xent                 LNJ,B6   KNA$GETTCTX
PL6.E3A0      #002=KNT$RECV_4HOST File=KNT$RECV.:E05TSI                          WED 07/30/97 01:12 Page:388
          0 000102       0003                            DC       s:7095,PREL
          0 000103  0F81 0009                            B        s:7099,PREL

     2820     7094    3           WHENALTRETURN DO;

     2821     7095    3                KN$NETPARM.ERRCODE = %KN_ERR_NOTCTX;

   7095   0 000105  ECC7 0004                            LDB,B6   @KN$NETPARM,AUTO
          0 000107  6C06                                 LDV,R6   6
          0 000108  EF46 0016                            STR,R6   22,B6

     2822     7096    3                ALTRETURN;

   7096   0 00010A  C380 0000 0000  xent                 LNJ,B4   X6A_AALT

     2823     7097    3                END;
     2824     7098
     2825     7099    2           KN$TCTX.STATE = %K_TSTATE_WFCR_TPDU;

   7099   0 00010D  6C0B                                 LDV,R6   11
          0 00010E  ECC7 0006                            LDB,B6   CTX$,AUTO
          0 000110  E786                                 STH,R6   ,B6

     2826     7100    2           KN$TCTX.LDCTX# = KN$NETPARM.LDCT$->KN$LDCT.LDCTX;

   7100   0 000111  ECC7 0004                            LDB,B6   @KN$NETPARM,AUTO
          0 000113  DC86                                 LDB,B5   ,B6
          0 000114  D845 0007                            LDR,R5   7,B5
          0 000116  CCC7 0006                            LDB,B4   CTX$,AUTO
          0 000118  DA84                                 SRM,R5,'00FF'X    ,B4
          0 000119       00FF

     2827     7101    2           KN$TCTX.HOST_NODE = KN$NETPARM.NODE;

   7101   0 00011A  D846 0015                            LDR,R5   21,B6
          0 00011C  DCC7 0006                            LDB,B5   CTX$,AUTO
          0 00011E  D7C5 0004                            STH,R5   4,B5
PL6.E3A0      #002=KNT$RECV_4HOST File=KNT$RECV.:E05TSI                          WED 07/30/97 01:12 Page:389

     2828     7102    2           KN$TCTX.DST_NSAP = FPT_CONNECT.DEST;

   7102   0 000120  DCC6 0019                            LDB,B5   25,B6
          0 000122  AB85                                 LAB,B2   ,B5
          0 000123  2C26                                 LDV,R2   38
          0 000124  6C16                                 LDV,R6   22
          0 000125  BCC7 0006                            LDB,B3   CTX$,AUTO
          0 000127  BBC3 00A5                            LAB,B3   165,B3
          0 000129  3C00                                 LDV,R3   0
          0 00012A  0008                                 MMM

     2829     7103    2           KN$TCTX.SRC_NSAP = FPT_CONNECT.LADR;

   7103   0 00012B  CCC6 0019                            LDB,B4   25,B6
          0 00012D  AB84                                 LAB,B2   ,B4
          0 00012E  2C3C                                 LDV,R2   60
          0 00012F  6C16                                 LDV,R6   22
          0 000130  BCC7 0006                            LDB,B3   CTX$,AUTO
          0 000132  BBC3 009A                            LAB,B3   154,B3
          0 000134  3C00                                 LDV,R3   0
          0 000135  0008                                 MMM

     2830     7104    2           KN$LDCT.RLCID.TCTX# = KN$TCTX.SRC_REF;

   7104   0 000136  BC86                                 LDB,B3   ,B6
          0 000137  9CC7 0006                            LDB,B1   CTX$,AUTO
          0 000139  E841 0002                            LDR,R6   2,B1
          0 00013B  EF43 0002                            STR,R6   2,B3

     2831     7105    2           RETURN;

   7105   0 00013D  C380 0000 0000  xent                 LNJ,B4   X6A_ARET

     2832     7106
     2833     7107
     2834     7108        %EJECT;
PL6.E3A0      #002=KNT$RECV_4HOST File=KNT$RECV.:E05TSI                          WED 07/30/97 01:12 Page:390
     2835     7109
     2836     7110        /*     KNT$RECV_4HOST   - K_NCONNECT_CFM
     2837     7111
     2838     7112        */
     2839     7113
     2840     7114    2           SELECT(%K_NCONNECT_CFM);

     2841     7115    2           CALL KNT$TR_NCC(KN$NETPARM);

   7115   0 000140  BBC7 0004                            LAB,B3   @KN$NETPARM,AUTO
          0 000142  CBF0 0100                            LAB,B4   256,IMO
          0 000144  E380 0000 0000  xent                 LNJ,B6   KNT$TR_NCC
          0 000147       0001                            DC       s:7117,PREL

     2842     7116
     2843     7117    2           KN$NETPARM.FPT$ = ADDR(NIL);

   7117   0 000148  EB80 0000 0000                       LAB,B6   0
          0 00014B  DCC7 0004                            LDB,B5   @KN$NETPARM,AUTO
          0 00014D  EFC5 0019                            STB,B6   25,B5

     2844     7118    2           KN$NETPARM.FLAGS.CONS = '1'B;

   7118   0 00014F  8945 0012                            LBT,'0100'X       18,B5
   7118   0 000151       0100

     2845     7119    2           KN$NETPARM.NHDRSZ = 0;

   7119   0 000152  8745 0010                            CL       16,B5

     2846     7120    2           KN$NETPARM.SHDRSZ = 0;

   7120   0 000154  8745 000A                            CL       10,B5

     2847     7121    2           KN$NETPARM.UHDRSZ = 0;

   7121   0 000156  8745 0007                            CL       7,B5
PL6.E3A0      #002=KNT$RECV_4HOST File=KNT$RECV.:E05TSI                          WED 07/30/97 01:12 Page:391

     2848     7122    2           KN$NETPARM.MSGSZ = 0;

   7122   0 000158  8745 0004                            CL       4,B5

     2849     7123
     2850     7124    2           IF KN$TCTX.STATE=%K_TSTATE_WFNC OR KN$TCTX.STATE=%K_TSTATE_WFCC

   7124   0 00015A  CCC7 0006                            LDB,B4   CTX$,AUTO
          0 00015C  E284                                 LLH,R6   ,B4
          0 00015D  6D09                                 CMV,R6   9
          0 00015E  0901 0004                            BE       s:7126,PREL
          0 000160  6D03                                 CMV,R6   3
          0 000161  0981 001C                            BNE      s:7134,PREL

     2851     7125    3           THEN DO;

     2852     7126    3                KN$NETPARM.FUNCTION = %K_NDATA;

   7126   0 000163  5C21                                 LDV,R5   33
          0 000164  DF45 0014                            STR,R5   20,B5

     2853     7127    3                KN$NETPARM.THDR$ = PINCRW(KN$TCTX.SEND_HEAD$, SIZEW(FRAG_HDR) );

   7127   0 000166  BCC4 003A                            LDB,B3   58,B4
          0 000168  ABC3 0008                            LAB,B2   8,B3
          0 00016A  AFC5 000B                            STB,B2   11,B5

     2854     7128    3                KN$NETPARM.THDRSZ = KN$TCTX.SEND_HEAD$->FRAG_HDR.DATA_BSIZE;

   7128   0 00016C  BCC4 003A                            LDB,B3   58,B4
          0 00016E  E843 0001                            LDR,R6   1,B3
          0 000170  EF45 000D                            STR,R6   13,B5

     2855     7129    3                KN$TCTX.STATE = %K_TSTATE_WFCC;

   7129   0 000172  4C03                                 LDV,R4   3
PL6.E3A0      #002=KNT$RECV_4HOST File=KNT$RECV.:E05TSI                          WED 07/30/97 01:12 Page:392
          0 000173  C784                                 STH,R4   ,B4

     2856     7130    3                CALL KNT$TR_SEND(KN$NETPARM);

   7130   0 000174  BBC7 0004                            LAB,B3   @KN$NETPARM,AUTO
          0 000176  CBF0 0100                            LAB,B4   256,IMO
          0 000178  E380 0000 0000  xent                 LNJ,B6   KNT$TR_SEND
          0 00017B       0001                            DC       s:7131,PREL

     2857     7131    3                END;

   7131   0 00017C  0F81 000E                            B        s:7145,PREL

     2858     7132
     2859     7133    3           ELSE DO;

     2860     7134    3                IF KN$TCTX.STATE = %K_TSTATE_WBCL

   7134   0 00017E  6D04                                 CMV,R6   4
          0 00017F  0981 0008                            BNE      s:7140,PREL

     2861     7135    4                THEN DO;

     2862     7136    4                     KN$NETPARM.FUNCTION = %KN_FCN_TERM;

   7136   0 000181  5C03                                 LDV,R5   3
          0 000182  DF45 0014                            STR,R5   20,B5

     2863     7137    4                     KN$NETPARM.THDRSZ = 0;

   7137   0 000184  8745 000D                            CL       13,B5

     2864     7138    4                     END;

   7138   0 000186  0F81 0004                            B        s:7145,PREL

     2865     7139    4                ELSE DO;
PL6.E3A0      #002=KNT$RECV_4HOST File=KNT$RECV.:E05TSI                          WED 07/30/97 01:12 Page:393

     2866     7140    4                     CALL TRANSPORT_SCREECH;

   7140   0 000188  E3C0 008B                            LNJ,B6   s:0,PREL
          0 00018A       0001                            DC       s:7145,PREL

     2867     7141    4                     END;

     2868     7142    3                END;

     2869     7143
     2870     7144
     2871     7145    2           CALL KNH$SEND (KN$NETPARM)

   7145   0 00018B  BBC7 0004                            LAB,B3   @KN$NETPARM,AUTO
          0 00018D  CBF0 0100                            LAB,B4   256,IMO
          0 00018F  E380 0000 0000  xent                 LNJ,B6   KNH$SEND
          0 000192       0003                            DC       s:7147,PREL
          0 000193  0F81 0004                            B        s:7150,PREL

     2872     7146    3           WHENALTRETURN DO;

     2873     7147    3                CALL TRANSPORT_SCREECH;/*N* what to do?*/

   7147   0 000195  E3C0 007E                            LNJ,B6   s:0,PREL
          0 000197       0001                            DC       s:7150,PREL

     2874     7148    3                END;

     2875     7149
     2876     7150    2           IF KN$TCTX.STATE = %K_TSTATE_WBCL

   7150   0 000198  ECC7 0006                            LDB,B6   CTX$,AUTO
          0 00019A  E286                                 LLH,R6   ,B6
          0 00019B  6D04                                 CMV,R6   4
          0 00019C  0981 000C                            BNE      s:7156,PREL

PL6.E3A0      #002=KNT$RECV_4HOST File=KNT$RECV.:E05TSI                          WED 07/30/97 01:12 Page:394
     2877     7151    3           THEN DO;

     2878     7152    3                CALL KNT$SET_REFWAIT (KN$TCTX);

   7152   0 00019E  BBC7 0006                            LAB,B3   CTX$,AUTO
          0 0001A0  CBF0 0100                            LAB,B4   256,IMO
          0 0001A2  E380 0000 0000  xent                 LNJ,B6   KNT$SET_REFWAIT
          0 0001A5       0001                            DC       s:7153,PREL

     2879     7153    3                RETURN;

   7153   0 0001A6  C380 0000 0000  xent                 LNJ,B4   X6A_ARET

     2880     7154    3                END;
     2881     7155
     2882     7156    2           IF KN$TCTX.CLASS ~= 4

   7156   0 0001A9  D2C6 0005                            LLH,R5   5,B6
          0 0001AB  5D04                                 CMV,R5   4
          0 0001AC  0901 0010                            BE       s:7162,PREL

     2883     7157    3           THEN DO;

     2884     7158    3                CALL KNT$RLS_CHAIN (KN$TCTX);

   7158   0 0001AE  BBC7 0006                            LAB,B3   CTX$,AUTO
          0 0001B0  CBF0 0100                            LAB,B4   256,IMO
          0 0001B2  E380 0000 0000  xent                 LNJ,B6   KNT$RLS_CHAIN
          0 0001B5       0001                            DC       s:7159,PREL

     2885     7159    3                KN$TCTX.SEND_HEAD$ = ADDR(NIL);

   7159   0 0001B6  EB80 0000 0000                       LAB,B6   0
          0 0001B9  DCC7 0006                            LDB,B5   CTX$,AUTO
          0 0001BB  EFC5 003A                            STB,B6   58,B5

     2886     7160    3                END;
PL6.E3A0      #002=KNT$RECV_4HOST File=KNT$RECV.:E05TSI                          WED 07/30/97 01:12 Page:395

     2887     7161
     2888     7162    2           RETURN;

   7162   0 0001BD  C380 0000 0000  xent                 LNJ,B4   X6A_ARET

     2889     7163
     2890     7164
     2891     7165        %EJECT;
PL6.E3A0      #002=KNT$RECV_4HOST File=KNT$RECV.:E05TSI                          WED 07/30/97 01:12 Page:396
     2892     7166
     2893     7167        /*     KNT$RECV_4HOST   - NDISCONNECT   NRESET   TERM
     2894     7168
     2895     7169        */
     2896     7170
     2897     7171    2           SELECT(%K_NRESET_IND, %K_NDISCONNECT_IND, %KN_FCN_TERM);

     2898     7172                                 /* term if called from scan - else called from nw??  */
     2899     7173    2           IF KN$NETPARM.FUNCTION = %K_NRESET_IND

   7173   0 0001C0  6D23                                 CMV,R6   35
          0 0001C1  0981 000B                            BNE      s:7175,PREL

     2900     7174    2           THEN CALL KNT$TR_NRESET(KN$NETPARM);

   7174   0 0001C3  BBC7 0004                            LAB,B3   @KN$NETPARM,AUTO
          0 0001C5  CBF0 0100                            LAB,B4   256,IMO
          0 0001C7  E380 0000 0000  xent                 LNJ,B6   KNT$TR_NRESET
          0 0001CA       0001                            DC       s:7174+8,PREL
          0 0001CB  0F81 0016                            B        s:7179,PREL

     2901     7175    2           ELSE IF KN$NETPARM.FUNCTION = %K_NDISCONNECT_IND

   7175   0 0001CD  6D24                                 CMV,R6   36
          0 0001CE  0981 000B                            BNE      s:7177,PREL

     2902     7176    2                THEN CALL KNT$TR_NDISCONNECT(KN$NETPARM);

   7176   0 0001D0  BBC7 0004                            LAB,B3   @KN$NETPARM,AUTO
          0 0001D2  CBF0 0100                            LAB,B4   256,IMO
          0 0001D4  E380 0000 0000  xent                 LNJ,B6   KNT$TR_NDISCONNECT
          0 0001D7       0001                            DC       s:7176+8,PREL
          0 0001D8  0F81 0009                            B        s:7179,PREL

     2903     7177    2                ELSE CALL KNT$TR_TERM(KN$NETPARM);

   7177   0 0001DA  BBC7 0004                            LAB,B3   @KN$NETPARM,AUTO
PL6.E3A0      #002=KNT$RECV_4HOST File=KNT$RECV.:E05TSI                          WED 07/30/97 01:12 Page:397
          0 0001DC  CBF0 0100                            LAB,B4   256,IMO
          0 0001DE  E380 0000 0000  xent                 LNJ,B6   KNT$TR_TERM
          0 0001E1       0001                            DC       s:7179,PREL

     2904     7178
     2905     7179    2           IF (KN$TCTX.STATE>%K_TSTATE_CLOSED)

   7179   0 0001E2  ECC7 0006                            LDB,B6   CTX$,AUTO
          0 0001E4  E286                                 LLH,R6   ,B6
          0 0001E5  6D02                                 CMV,R6   2
          0 0001E6  0381 0022                            BLE      s:7192,PREL
          0 0001E8  6D08                                 CMV,R6   8
          0 0001E9  0901 001F                            BE       s:7192,PREL

     2906     7180    2             AND (KN$TCTX.STATE ~= %K_TSTATE_CLOSING)
     2907     7181    3           THEN DO;

     2908     7182    3                KN$TCTX.REASON = %K_REASON_NOTATTACHED;

   7182   0 0001EB  5C02                                 LDV,R5   2
          0 0001EC  D7C6 000E                            STH,R5   14,B6

     2909     7183    3                KN$TCTX.ERR = %K_ERROR_NRESET;

   7183   0 0001EE  C870 00FA                            LDR,R4   250,IMO
          0 0001F0  CAC6 000E                            SRM,R4,'00FF'X    14,B6
          0 0001F2       00FF

     2910     7184
     2911     7185    3                IF (KN$TCTX.STATE ~= %K_TSTATE_WFCR_TPDU)

   7185   0 0001F3  6D0B                                 CMV,R6   11
          0 0001F4  0901 000C                            BE       s:7189,PREL
          0 0001F6  6D04                                 CMV,R6   4
          0 0001F7  0901 0009                            BE       s:7189,PREL

     2912     7186    3                  AND (KN$TCTX.STATE ~= %K_TSTATE_WBCL)
PL6.E3A0      #002=KNT$RECV_4HOST File=KNT$RECV.:E05TSI                          WED 07/30/97 01:12 Page:398
     2913     7187    3                THEN CALL KNT$SEND_DR_HOST(KN$NETPARM);

   7187   0 0001F9  BBC7 0004                            LAB,B3   @KN$NETPARM,AUTO
          0 0001FB  CBF0 0100                            LAB,B4   256,IMO
          0 0001FD  E380 0000 0000  xent                 LNJ,B6   KNT$SEND_DR_HOST
          0 000200       0001                            DC       s:7189,PREL

     2914     7188
     2915     7189    3                CALL KNT$SET_REFWAIT (KN$TCTX);

   7189   0 000201  BBC7 0006                            LAB,B3   CTX$,AUTO
          0 000203  CBF0 0100                            LAB,B4   256,IMO
          0 000205  E380 0000 0000  xent                 LNJ,B6   KNT$SET_REFWAIT
          0 000208       0001                            DC       s:7192,PREL

     2916     7190    3                END;

     2917     7191
     2918     7192    2           RETURN;

   7192   0 000209  C380 0000 0000  xent                 LNJ,B4   X6A_ARET

     2919     7193
     2920     7194
     2921     7195        /*     KNT$RECV_4HOST   - TERM_ACK
     2922     7196
     2923     7197        */
     2924     7198
     2925     7199    2           SELECT(%KN_FCN_TERM_ACK);

     2926     7200                                           /* term-ack set only by hdlc for CONS VC*/
     2927     7201
     2928     7202    2           RETURN;

   7202   0 00020C  C380 0000 0000  xent                 LNJ,B4   X6A_ARET

     2929     7203
PL6.E3A0      #002=KNT$RECV_4HOST File=KNT$RECV.:E05TSI                          WED 07/30/97 01:12 Page:399
     2930     7204
     2931     7205        %EJECT;
PL6.E3A0      #002=KNT$RECV_4HOST File=KNT$RECV.:E05TSI                          WED 07/30/97 01:12 Page:400
     2932     7206    2           SELECT(ELSE);

     2933     7207    2      CALL TRANSPORT_SCREECH;

   7207   0 00020F  E3C0 0004                            LNJ,B6   s:0,PREL
          0 000211       0001                            DC       s:7209,PREL

     2934     7208
     2935     7209    2           END/*do case*/;

   7209   0 000212  0F81 0010                            B        s:7218,PREL

     2936     7210
     2937     7211
     2938     7212
     2939     7213
     2940     7214    1   TRANSPORT_SCREECH: PROC;

   7214   0 000214  EFC7 000A            TRANSPORT_SCREE*STB,B6   LDCT_CIRCUIT+1,AUTO

     2941     7215    2      CALL SCREECH(KNT_SCODE);

   7215   0 000216  BB80 0000 0000  01                   LAB,B3   0
          0 000219  CBF0 0100                            LAB,B4   256,IMO
          0 00021B  E380 0000 0000  xent                 LNJ,B6   SCREECH
          0 00021E       0001                            DC       s:7216,PREL

     2942     7216    2   END TRANSPORT_SCREECH;

   7216   0 00021F  ECC7 000A                            LDB,B6   LDCT_CIRCUIT+1,AUTO
          0 000221  C3C6 0001                            LNJ,B4   1,B6

     2943     7217
     2944     7218    1   END KNT$RECV_4HOST;

   7218   0 000223  C380 0000 0000  xent                 LNJ,B4   X6A_ARET

PL6.E3A0      #002=KNT$RECV_4HOST File=KNT$RECV.:E05TSI                          WED 07/30/97 01:12 Page:401
--  Include file information  --

   GH_SCHD_M.:E05TOU  is referenced.
   KNH_MACRO_C.:E05TOU  is referenced.
   KN_DATA_M.:E05TOU  is referenced.
   K_TRANSPORT_M.:E05TOU  is referenced.
   K_TRANSPORT_E.:E05TOU  is referenced.
   K_INTERFACE_M.:E05TOU  is referenced.
   K_ADDRESS_M.:E05TOU  is referenced.
   G_LCP6_E.:E05TOU  was found in the system file and is never referenced.
   GT_LCP6_M.:E05TOU  was found in the system file and is never referenced.
   KI_CP6.:E05TOU  was found in the system file and is referenced.
   GF_LCP6_M.:E05TOU  was found in the system file and is never referenced.
   GM_LCP6_M.:E05TOU  was found in the system file and is never referenced.
   GU_LCP6_M.:E05TOU  was found in the system file and is never referenced.
   GJ_LCP6_M.:E05TOU  was found in the system file and is never referenced.
   GH_LCP6_M.:E05TOU  was found in the system file and is never referenced.
      No diagnostics issued in procedure KNT$RECV_4HOST.
PL6.E3A0      #002=KNT$RECV_4HOST File=KNT$RECV.:E05TSI                          WED 07/30/97 01:12 Page:402

 **** Variables and constants ****

  ****  Auto variables  ****

  ****  Scalars and arrays  ****
HexLoc.c.b A Datatyp(siz) R M Lvl/name                 HexLoc.c.b A Datatyp(siz) R M Lvl/name

     4-0-0/w PTR         r     1 @KN$NETPARM                6-0-0/w PTR         r     1 CTX$
    *0-0-0/w STRC(528)   r     1 KN$NETPARM                 9-0-0/b BIT         r     1 LDCT_CIRCUIT
     8-0-0/w UBIN(16)    r     1 TCTX#

  ****  SYMREF variables  ****

  ****  Scalars and arrays  ****
HexLoc.c.b A Datatyp(siz) R M Lvl/name                 HexLoc.c.b A Datatyp(siz) R M Lvl/name

     0-0-0/w UBIN(32)    r     1 KNT_SCODE                  0-0-0/w PTR         r     1 KN_TCTX$$
     0-0-0/w UBIN(16)    r     1 KN_TCTX_MAX#

  ****  BASED and DCB variables  ****

  ****  Scalars and arrays  ****
HexLoc.c.b A Datatyp(siz) R M Lvl/name                 HexLoc.c.b A Datatyp(siz) R M Lvl/name

     0-0-0/c STRC(40)    r     1 B$TPDU_DT                  0-0-0/w STRC(720)   r     1 FPT_CONNECT
     0-0-0/w STRC(128)   r     1 FRAG_HDR                   0-0-0/w STRC(256)   r     1 KN$LDCT
     0-0-0/w STRC(2816)  r     1 KN$TCTX
     0-0-0/w PTR         r     1 KN$TCTX$(0:0)


   Procedure KNT$RECV_4HOST requires 550 words for executable code.
   Procedure KNT$RECV_4HOST requires 18 words of local(AUTO) storage.

    No errors detected in file KNT$RECV.:E05TSI    .
PL6.E3A0      #002=KNT$RECV_4HOST File=KNT$RECV.:E05TSI                          WED 07/30/97 01:12 Page:403
          *** CROSS REFERENCE LISTING ***
**     DENOTES     IDENTIFIER DEFINITION
<<                 IDENTIFIER'S VALUE SET
>>                 IDENTIFIER'S VALUE USED
<>                 IDENTIFIER SET AND/OR USED
--                 IDENTIFIER REFERENCED
PL6.E3A0      #002=KNT$RECV_4HOST File=KNT$RECV.:E05TSI                          WED 07/30/97 01:12 Page:404
          MINI XREF LISTING

B$TPDU_DT.DST_REF
      6363**DCL      6985>>ASSIGN
B$TPDU_DT.TYPE
      6356**DCL      7027>>IF
CIRCUIT_CHECK
      6999**LABEL    6991--GOTO
CTX$
      5402**DCL      5428--IMP-PTR  6976<<ASSIGN   6993<<ASSIGN   6994>>ASSIGN   6996>>IF       7071>>ASSIGN
      7093<>CALL     7099>>ASSIGN   7100>>ASSIGN   7101>>ASSIGN   7102>>ASSIGN   7103>>ASSIGN   7104>>ASSIGN
      7124>>IF       7124>>IF       7127>>ASSIGN   7128>>ASSIGN   7129>>ASSIGN   7134>>IF       7150>>IF
      7152>>CALL     7156>>IF       7158>>CALL     7159>>ASSIGN   7179>>IF       7179>>IF       7182>>ASSIGN
      7183>>ASSIGN   7185>>IF       7185>>IF       7189>>CALL
FPT_CONNECT.DEST
      6794**DCL      7102>>ASSIGN
FPT_CONNECT.DEST.ADDRESS
      6803**DCL      6804--REDEF
FPT_CONNECT.DSTSNPA.ADR_STRING
      6880**DCL      6880--REDEF
FPT_CONNECT.LADR
      6846**DCL      7103>>ASSIGN
FPT_CONNECT.LADR.ADDRESS
      6855**DCL      6856--REDEF
FPT_CONNECT.RLCID.GENERATION
      6763**DCL      6764--REDEF
FPT_CONNECT.RLCID.LDCTX
      6764**DCL      6764--REDEF
FPT_CONNECT.TERMINAL_ID.TERM
      6752**DCL      6761--REDEF
FRAG_HDR
      6646**DCL      7127--ASSIGN
FRAG_HDR.DATA_BSIZE
      6655**DCL      7128>>ASSIGN
PL6.E3A0      #002=KNT$RECV_4HOST File=KNT$RECV.:E05TSI                          WED 07/30/97 01:12 Page:405
FRAG_HDR.SEQ
      6659**DCL      6660--REDEF
KN$LDCT.CONN_TYPE
      6399**DCL      6978>>IF       7002>>IF
KN$LDCT.LDCTX
      6540**DCL      7100>>ASSIGN
KN$LDCT.RLCID.LDCTX
      6459**DCL      6466--REDEF    6474--REDEF
KN$LDCT.RLCID.TCTX#
      6466**DCL      6981>>ASSIGN   7104<<ASSIGN
KN$LDCT.TRANSPORT_ID
      6493**DCL      6501--REDEF
KN$LDCT.UID
      6523**DCL      6524--REDEF    6533--REDEF
KN$NETPARM
      5261**DCL         9--PROC     7030<>CALL     7073<>CALL     7086<>CALL     7115<>CALL     7130<>CALL
      7145<>CALL     7174<>CALL     7176<>CALL     7177<>CALL     7187<>CALL
KN$NETPARM.ERRCODE
      5368**DCL      7036>>IF       7036>>IF       7045<<ASSIGN   7095<<ASSIGN
KN$NETPARM.FLAGS.CONS
      5338**DCL      7118<<ASSIGN
KN$NETPARM.FPT$
      5380**DCL      6727--IMP-PTR  7102>>ASSIGN   7103>>ASSIGN   7117<<ASSIGN
KN$NETPARM.FUNCTION
      5356**DCL      6999>>IF       7010>>DOSELCT  7126<<ASSIGN   7136<<ASSIGN   7173>>IF       7175>>IF
KN$NETPARM.LDCT$
      5262**DCL      6398--IMP-PTR  6978>>IF       6981>>ASSIGN   7002>>IF       7100>>ASSIGN   7104>>ASSIGN
KN$NETPARM.MSG$
      5268**DCL      5273--REDEF
KN$NETPARM.MSGSZ
      5279**DCL      7122<<ASSIGN
KN$NETPARM.NHDR$
      5320**DCL      5321--REDEF
KN$NETPARM.NHDRSZ
      5326**DCL      7119<<ASSIGN
KN$NETPARM.NODE
PL6.E3A0      #002=KNT$RECV_4HOST File=KNT$RECV.:E05TSI                          WED 07/30/97 01:12 Page:406
      5363**DCL      7071<<ASSIGN   7101>>ASSIGN
KN$NETPARM.SHDR$
      5298**DCL      5299--REDEF
KN$NETPARM.SHDRSZ
      5304**DCL      7120<<ASSIGN
KN$NETPARM.TCTX$
      5385**DCL      6994<<ASSIGN
KN$NETPARM.TCTX_ID
      5331**DCL      6988<<ASSIGN
KN$NETPARM.THDR$
      5309**DCL      5310--REDEF    7127<<ASSIGN
KN$NETPARM.THDRSZ
      5315**DCL      7128<<ASSIGN   7137<<ASSIGN
KN$NETPARM.THDR_C$
      5310**DCL      6348--IMP-PTR  6985>>ASSIGN   7027>>IF
KN$NETPARM.UHDR$
      5284**DCL      5285--REDEF
KN$NETPARM.UHDRSZ
      5293**DCL      7121<<ASSIGN
KN$TCTX
      5428**DCL      7152<>CALL     7158<>CALL     7189<>CALL
KN$TCTX.CLASS
      5494**DCL      7156>>IF
KN$TCTX.DST_NSAP
      6283**DCL      7102<<ASSIGN
KN$TCTX.DST_NSAP.ADDRESS_N
      6313**DCL      6314--REDEF
KN$TCTX.ERR
      5685**DCL      7183<<ASSIGN
KN$TCTX.HOST_NODE
      5477**DCL      7071>>ASSIGN   7101<<ASSIGN
KN$TCTX.LDCTX#
      5448**DCL      7100<<ASSIGN
KN$TCTX.NODE
      5435**DCL      5448--REDEF
KN$TCTX.REASON
PL6.E3A0      #002=KNT$RECV_4HOST File=KNT$RECV.:E05TSI                          WED 07/30/97 01:12 Page:407
      5679**DCL      7182<<ASSIGN
KN$TCTX.SEND_HEAD$
      5889**DCL      7127>>ASSIGN   7128>>ASSIGN   7159<<ASSIGN
KN$TCTX.SRC_NSAP
      6219**DCL      7103<<ASSIGN
KN$TCTX.SRC_NSAP.ADDRESS_N
      6249**DCL      6250--REDEF
KN$TCTX.SRC_REF
      5462**DCL      7104>>ASSIGN
KN$TCTX.STATE
      5429**DCL      7099<<ASSIGN   7124>>IF       7124>>IF       7129<<ASSIGN   7134>>IF       7150>>IF
      7179>>IF       7179>>IF       7185>>IF       7185>>IF
KN$TCTX.TMR_INACTIVITY.ARG
      6069**DCL      6070--REDEF
KN$TCTX.TMR_REFERENCE.ARG
      6099**DCL      6100--REDEF
KN$TCTX.TMR_RETRAN.ARG
      6010**DCL      6011--REDEF
KN$TCTX.TMR_WINDOW.ARG
      6039**DCL      6040--REDEF
KN$TCTX$
      6330**DCL      6993>>ASSIGN
KNA$GETTCTX
      5417**DCL-ENT  7093--CALL
KNH$SEND
      5418**DCL-ENT  7145--CALL
KNT$RECV_HOST_DATA
      5408**DCL-ENT  7030--CALL     7073--CALL
KNT$RLS_CHAIN
      5407**DCL-ENT  7158--CALL
KNT$SEND_DR_HOST
      5409**DCL-ENT  7187--CALL
KNT$SET_REFWAIT
      5410**DCL-ENT  7152--CALL     7189--CALL
KNT$TR_NCC
      5412**DCL-ENT  7115--CALL
PL6.E3A0      #002=KNT$RECV_4HOST File=KNT$RECV.:E05TSI                          WED 07/30/97 01:12 Page:408
KNT$TR_NCI
      5411**DCL-ENT  7086--CALL
KNT$TR_NDISCONNECT
      5415**DCL-ENT  7176--CALL
KNT$TR_NRESET
      5413**DCL-ENT  7174--CALL
KNT$TR_SEND
      5416**DCL-ENT  7130--CALL
KNT$TR_TERM
      5414**DCL-ENT  7177--CALL
KNT_SCODE
      6887**DCL      7215<>CALL
KN_TCTX$$
      6886**DCL      6330--IMP-PTR  6993>>ASSIGN
KN_TCTX_MAX#
      6888**DCL      6990>>IF
LDCT_CIRCUIT
      5404**DCL      6980<<ASSIGN   6984<<ASSIGN   7047>>IF       7075>>IF
RECV_CR_4HOST
      7004**LABEL    7006--GOTO
SCREECH
      5420**DCL-ENT  7215--CALL
TCTX#
      5403**DCL      6981<<ASSIGN   6985<<ASSIGN   6988>>ASSIGN   6990>>IF       6990>>IF       6993>>ASSIGN
      6999>>IF       7088>>IF
TRANSPORT_SCREECH
      7214**PROC     7004--CALL     7090--CALL     7140--CALL     7147--CALL     7207--CALL
