PL6.E3A0      #005=KNT$SEND_4HOST File=KNT$SEND.:E05TSI                          WED 07/30/97 01:14 Page:276
     1764        1        /*M* KNT$SEND_4HOST - Send session messages to network.   */
     1765        2        /*T***********************************************************/
     1766        3        /*T*                                                         */
     1767        4        /*T* Copyright (c) Bull HN Information Systems Inc., 1997    */
     1768        5        /*T*                                                         */
     1769        6        /*T***********************************************************/
     1770        7        /*X* PLM=3,IND=5,ENU=0,ECU=0 */
     1771        8
     1772        9        KNT$SEND_4HOST: PROC(KN$NETPARM) ALTRET;
     1773       10
     1774       11        %INCLUDE GH_GATE_M;
     1775       52        %INCLUDE GH_SCHD_M;
     1776      196        %INCLUDE K_ADDRESS_M;
     1777      699        %INCLUDE K_INTERFACE_M;
     1778     1108        %INCLUDE K_TRANSPORT_E;
     1779     1433        %INCLUDE K_TRANSPORT_M;
     1780     3217        %INCLUDE K_QDPHDRS_M;
     1781     4099        %INCLUDE KN_DATA_M;
     1782     5885        %INCLUDE KNH_MACRO_C;
     1783     6168
     1784     6169                                                /* Input parameters                   */
     1785     6170        %KN$NETPARM;
     1786     6323                                                /* Auto Storage                       */
     1787     6324    1   DCL ITEMP1 SBIN;
     1788     6325    1   DCL CTX$ PTR;
     1789     6326    1   DCL FRAG$ PTR;
     1790     6327    1   DCL THDRSZ UBIN;
     1791     6328    1   DCL ERRNUM UBIN;
     1792     6329
     1793     6330        %K$TPDU_DR (NAME=K$TPDU_DR, STCLASS=AUTO);
     1794     6373        %K$TPDU_CP6 (NAME=K$TPDU_CP6_FLOW, STCLASS=AUTO, LAST=",");
     1795     6408           %K$TPARM_FLOW_CONTROL (NAME=P, LVL=2, STCLASS=AUTO, LAST=";");
     1796     6444        %K$TPDU_UN (NAME=K$TPDU_UN, STCLASS=AUTO);
     1797     6483
     1798     6484
     1799     6485                                                /* External Procedures                */
     1800     6486    1   DCL KNA$RELTCTX ENTRY(1) ALTRET;
PL6.E3A0      #005=KNT$SEND_4HOST File=KNT$SEND.:E05TSI                          WED 07/30/97 01:14 Page:277
     1801     6487    1   DCL KNH$SEND ENTRY(1) ALTRET;
     1802     6488    1   DCL KNN$SEND ENTRY(1) ALTRET;
     1803     6489    1   DCL KNT$GET_SBUF ENTRY(3) ALTRET;
     1804     6490    1   DCL KNT$RELBUF ENTRY(2);
     1805     6491    1   DCL KNT$SEND_HOST_DATA ENTRY(1) ALTRET;
     1806     6492    1   DCL KNT$SEND_CR_4HOST ENTRY(1) ALTRET;
     1807     6493    1   DCL KNT$SEND_DR ENTRY(1) ALTRET;
     1808     6494    1   DCL KNT$SEND_DR_HOST ENTRY(1) ALTRET;
     1809     6495    1   DCL KNT$DSESSION ENTRY(1) ALTRET;
     1810     6496    1   DCL KNT$RLS_CHAIN ENTRY(1);
     1811     6497    1   DCL KNT$SET_REFWAIT ENTRY(1);
     1812     6498    1   DCL KNT$TR_ERROR ENTRY(1);
     1813     6499    1   DCL KNT$TR_FHOST ENTRY(1);
     1814     6500    1   DCL KNT$TR_RCVH ENTRY(1);
     1815     6501    1   DCL KNT$TR_NCR ENTRY(1);
     1816     6502    1   DCL KNT$TR_SEND ENTRY(1);
     1817     6503    1   DCL GHS$SET_TMR ENTRY(1);
     1818     6504    1   DCL GHS$CANCEL_TMR ENTRY(1);
     1819     6505    1   DCL SCREECH ENTRY(1);
     1820     6506
     1821     6507                                                /* External Data                      */
     1822     6508    1   DCL KN_TCTX_MAX# UBIN SYMREF;
     1823     6509    1   DCL KN_TCTX$$ PTR SYMREF;
     1824     6510    1   DCL KN_DCT$$ PTR SYMREF;
     1825     6511    1   DCL KNT_ERROR_SCREECH UBIN SYMREF;
     1826     6512    1   DCL KNT_SCODE UBIN(32) SYMREF;
     1827     6513
     1828     6514                                                /* Based Data                         */
     1829     6515        %K$TCTX (NAME=KN$TCTX, STCLASS="BASED(CTX$)");
     1830     7422    1   DCL KN$TCTX$(0:0) PTR BASED(KN_TCTX$$);
     1831     7423    1   DCL KN$LDCT$(0:0) PTR BASED(KN_DCT$$);
     1832     7424
     1833     7425        %KN$LDCT (NAME=KN$LDCT, STCLASS="BASED(KN$NETPARM.LDCT$)");
     1834     7670
     1835     7671        %K$FRAG_HDR (NAME=FRAG_HDR, STCLASS="BASED(FRAG$)");
     1836     7754
     1837     7755        %K$TPDU_CR_CC(NAME=B$TPDU_CR,STCLASS="BASED(KN$NETPARM.THDR_C$)");
PL6.E3A0      #005=KNT$SEND_4HOST File=KNT$SEND.:E05TSI                          WED 07/30/97 01:14 Page:278
     1838     7824        %K$TPDU_DR (NAME=B$TPDU_DR, STCLASS="BASED(KN$NETPARM.THDR_C$)");
     1839     7867        %K$TPDU_DT(NAME=B$TPDU_DT, STCLASS="BASED(KN$NETPARM.THDR_C$)");
     1840     7917
     1841     7918        %K$TPDU_CP6 (NAME=B$TPDU_CP6, STCLASS="BASED(KN$NETPARM.THDR$)", LAST=",");
     1842     7953            %K$TPARM_SSN_CRDT (NAME=P, STCLASS=BASED, LVL=2);
     1843     7992
     1844     7993
     1845     7994        %K$TPDU_CP6 (NAME=B$TPDU_CP6_OPT, STCLASS="BASED(KN$NETPARM.THDR$)", LAST=",");
     1846     8029            %K$TPARM_CP6_OPTIONS (NAME=P, STCLASS=BASED, LVL=2);
     1847     8074
     1848     8075
     1849     8076        %K$NQDP_HDR (NAME=B$NHDR, STCLASS="BASED(KN$NETPARM.NHDR$)");
     1850     8153
     1851     8154
     1852     8155    1   DCL B$TPDU CHAR(THDRSZ) BASED CALIGNED;
     1853     8156        %EJECT;
PL6.E3A0      #005=KNT$SEND_4HOST File=KNT$SEND.:E05TSI                          WED 07/30/97 01:14 Page:279
     1854     8157        /*F* NAME: KNT$SEND_4HOST
     1855     8158
     1856     8159        This routine is entered when Network has just received a message from
     1857     8160        an adjacent host node and the destination of the message is not this
     1858     8161        fep node.  KNN$RECV calls this routine with the following parameters:
     1859     8162        .fif
     1860     8163        }
     1861     8164        }    KN$NETPARM.FUNCTION
     1862     8165        }                - Contains a value to indicate if we have received
     1863     8166        }                  an OSI Session or CP-6 Session message:
     1864     8167        }                    KN_FCN_DATA - CP-6
     1865     8168        }                    K_NDATA      - OSI
     1866     8169        }
     1867     8170        }    KN$NETPARM.THDR$
     1868     8171        }                - Contains the address within the message of the first
     1869     8172        }                  byte of the TPDU.
     1870     8173        }
     1871     8174        }    KN$NETPARM.THDRSZ
     1872     8175        }                - Contains the byte size of the TPDU.
     1873     8176        }
     1874     8177        }    KN$NETPARM.NHDR$
     1875     8178        }                - Contains the address of the network header.
     1876     8179        }
     1877     8180        }    KN$NETPARM.LDCT$
     1878     8181        }                - Contains the address of the remote fep link LDCT.
     1879     8182        }
     1880     8183        }    KN$NETPARM.SLDCT$
     1881     8184        }                - Contains the address of the host link LDCT.
     1882     8185        .fin
     1883     8186
     1884     8187        The action to be taken is dependent on the type of TPDU that has been
     1885     8188        received.  This will be one of the following:
     1886     8189        .fif
     1887     8190        }    K_TPDU_TYPE_DT  - Data               - forward by calling KNT$SEND
     1888     8191        }    K_TPDU_TYPE_ED  - Expedited Data     - forward by calling KNT$SEND
     1889     8192        }    K_TPDU_TYPE_CR  - Connect Request    - forward by returning
     1890     8193        }    K_TPDU_TYPE_CC  - Connect Confirm    - forward by returning
PL6.E3A0      #005=KNT$SEND_4HOST File=KNT$SEND.:E05TSI                          WED 07/30/97 01:14 Page:280
     1891     8194        }    K_TPDU_TYPE_DR  - Disconnect Request
     1892     8195        .fin
     1893     8196
     1894     8197        There are three possible ways to exit:
     1895     8198        .fif
     1896     8199        }    RETURN         KNN$RECV will call KNH$SEND to forward the msg
     1897     8200        }
     1898     8201        }    ALTRETURN      with NETPARM.ERRCODE zero
     1899     8202        }                   KNN$RECV will simply return - message on COUPLER's
     1900     8203        }                                                 SQ is complete.
     1901     8204        }    ALTRETURN      with NETPARM.ERRCODE non-zero
     1902     8205        }                   KNN$RECV will altreturn - message on COUPLER's SQ
     1903     8206        }                                             will remain.
     1904     8207        .fin
     1905     8208        */
     1906     8209        %EJECT;
PL6.E3A0      #005=KNT$SEND_4HOST File=KNT$SEND.:E05TSI                          WED 07/30/97 01:14 Page:281
     1907     8210    1      CTX$ = KN$TCTX$(B$TPDU_CR.DST_REF);
     1908     8211
     1909     8212    1      KN$NETPARM.TCTX$ = CTX$;
     1910     8213
     1911     8214
     1912     8215        /*   KNT$SEND_4HOST   -   TPDU_DT and TPDU_ED
     1913     8216
     1914     8217           When the host is forwarding data, we make this look as if we had
     1915     8218           been called by local session by stiping off the transport header
     1916     8219           that was built on the host and setting netparn.shdr$ and .shdrsz
     1917     8220           to frame the spdu.
     1918     8221
     1919     8222           Entering the KNT$SEND routine will take care of busting it into
     1920     8223           smaller tpdus if necessary, buffering the composed tpdus, building
     1921     8224           the appropriate transport header, and forwarding the message by
     1922     8225           calling KNN$SEND or KNH$SEND.
     1923     8226
     1924     8227           If we have buffered twice the window size, we send a flow_stop
     1925     8228           tpdu to host transport.
     1926     8229
     1927     8230           We then altreturn to KNN$RECV, so we don't forward the message
     1928     8231           twice.
     1929     8232        */
     1930     8233
     1931     8234    1      IF B$TPDU_CR.TYPE = %K_TPDU_TYPE_DT
     1932     8235    2      THEN DO;
     1933     8236
     1934     8237    2   STRIP_OFF_THDR: ;
     1935     8238    2           IF KN$TCTX.OPTION.TRACE
     1936     8239    2           THEN CALL KNT$TR_RCVH(KN$NETPARM);
     1937     8240
     1938     8241    2           KN$NETPARM.NODE = KN$TCTX.NODE;
     1939     8242    2           KN$NETPARM.TCTX_ID = B$TPDU_DT.DST_REF;
     1940     8243
     1941     8244    2           THDRSZ = B$TPDU_DT.LI +1;
     1942     8245    2           KN$NETPARM.SHDR_C$ = PINCRC(KN$NETPARM.THDR_C$, THDRSZ);
     1943     8246    2           KN$NETPARM.SHDRSZ = KN$NETPARM.THDRSZ - THDRSZ;
PL6.E3A0      #005=KNT$SEND_4HOST File=KNT$SEND.:E05TSI                          WED 07/30/97 01:14 Page:282
     1944     8247    2           KN$NETPARM.UHDR$ = ADDR(NIL);
     1945     8248    2           KN$NETPARM.MSG$ = ADDR(NIL);
     1946     8249
     1947     8250    2           CALL KNT$SEND_HOST_DATA(KN$NETPARM)
     1948     8251    3           WHENALTRETURN DO;
     1949     8252    3                IF KN$NETPARM.ERRCODE = %KN_ERR_NOQ2
     1950     8253    3                THEN ALTRETURN;       /*couldn't get buf - leave on coupler cq   */
     1951     8254
     1952     8255    3                IF KN$TCTX.FLOW_CONTROLLED /*buffer limit exceeded*/
     1953     8256    3                  AND KN$TCTX.OPTION.OSI
     1954     8257    4                THEN DO;
     1955     8258    4                     K$TPDU_CP6_FLOW = '0'B;
     1956     8259    4                     K$TPDU_CP6_FLOW.P.CODE = %K_TPARM_FLOW_STOP;
     1957     8260    4                     CALL I$RETURN_TPDU_CP6;
     1958     8261    4                     END;
     1959     8262
     1960     8263        /*           KN$TCTX.FLOW_CONTROLLED = '0'B; reset when ak recvd */
     1961     8264    3                KN$NETPARM.ERRCODE = 0;    /*so knn won't altret to knh$scan     */
     1962     8265    3                END/*altret from knt$send*/;
     1963     8266
     1964     8267    2           ALTRETURN;                      /*so knn doesn't also forward message */
     1965     8268    2           END/*do if tpdu_dt*/;
     1966     8269
     1967     8270
     1968     8271
     1969     8272    1      IF B$TPDU_CR.TYPE = %K_TPDU_TYPE_ED
     1970     8273    2      THEN DO;
     1971     8274    2           KN$NETPARM.FUNCTION = %K_TEXPD_DATA_REQ;
     1972     8275    2           GOTO STRIP_OFF_THDR;
     1973     8276    2           END;
     1974     8277
     1975     8278
     1976     8279        %EJECT;
PL6.E3A0      #005=KNT$SEND_4HOST File=KNT$SEND.:E05TSI                          WED 07/30/97 01:14 Page:283
     1977     8280    1      IF B$TPDU_CR.TYPE ~= %K_TPDU_TYPE_CP6
     1978     8281    1      THEN CALL KNT$TR_RCVH(KN$NETPARM);
     1979     8282
     1980     8283    1      THDRSZ = KN$NETPARM.THDRSZ;
     1981     8284
     1982     8285    2      DO CASE ( B$TPDU_CR.TYPE );
     1983     8286
     1984     8287
     1985     8288        /*   KNT$SEND_4HOST   -   TPDU_CR
     1986     8289
     1987     8290           If the TPDU is a Connect Request, a secondary Transport Context
     1988     8291           Block is allocated and initialized by an entry into KNT$RECV.
     1989     8292
     1990     8293           If KNT$RECV finds errors, KNT$RECV will send a TPDU_DR back to the
     1991     8294           host and altreturn to here, where we will in turn altreturn to
     1992     8295           KNN$RECV to avoid sending the tpdu on.
     1993     8296
     1994     8297           On a normal return, the state of the TCTX is WFNC is mode is CONS;
     1995     8298           state is WFCC if mode is CLNS.
     1996     8299        */
     1997     8300
     1998     8301    2       CASE( %K_TPDU_TYPE_CR);
     1999     8302    2         CALL KNT$SEND_CR_4HOST(KN$NETPARM)
     2000     8303    3         WHENALTRETURN DO;
     2001     8304    3              GOTO MSG_COMPLETE;
     2002     8305    3              END;
     2003     8306
     2004     8307    2         CTX$ = KN$NETPARM.TCTX$;
     2005     8308
     2006     8309        /* Make sure we can get a buffer before continuing.
     2007     8310        */
     2008     8311    2         CALL KNT$GET_SBUF(THDRSZ,FRAG$,KN$TCTX)
     2009     8312    3         WHENALTRETURN DO;
     2010     8313    3              KN$TCTX.ERR = %K_ERROR_NOMEM;
     2011     8314    3   ABORT_CONNECT:
     2012     8315    3              CALL KNT$SEND_DR_HOST(KN$NETPARM);
     2013     8316
PL6.E3A0      #005=KNT$SEND_4HOST File=KNT$SEND.:E05TSI                          WED 07/30/97 01:14 Page:284
     2014     8317    3              CALL KNT$SET_REFWAIT(KN$TCTX);
     2015     8318
     2016     8319    3   MSG_COMPLETE:
     2017     8320    3              KN$NETPARM.ERRCODE = 0;
     2018     8321    3              ALTRETURN;                   /*to knn$recv to avoid sending twice  */
     2019     8322    3              END;
     2020     8323
     2021     8324        /* If we are to use Connection Oriented Network, try to establish a virtual
     2022     8325           circuit by calling KNN$SEND with K_NCONNECT_REQ function.  If successful,
     2023     8326           remember the index for the LDCT that was allocated for the virtual
     2024     8327           circuit in the transport context.
     2025     8328        */
     2026     8329    2         IF KN$TCTX.OPTION.CONS
     2027     8330    3         THEN DO;
     2028     8331    3              KN$NETPARM.FLAGS.CONS = '1'B;
     2029     8332    3              KN$NETPARM.FUNCTION = %K_NCONNECT_REQ;
     2030     8333    3              KN$NETPARM.LDCT$ = ADDR(NIL);
     2031     8334
     2032     8335    3              KN$NETPARM.MSGSZ = SIZEC(K$TPDU_UN);
     2033     8336    3              KN$NETPARM.MSGW$ = ADDR(K$TPDU_UN);
     2034     8337    3              K$TPDU_UN.LI = SIZEC(K$TPDU_UN) -1;
     2035     8338    3              K$TPDU_UN.TYPE = %K_TPDU_TYPE_UN;
     2036     8339    3              K$TPDU_UN.PRT_ID = %K_UN_PRTID_VC;
     2037     8340    3              K$TPDU_UN.SHARE = 0;
     2038     8341
     2039     8342    3              CALL KNT$TR_NCR(KN$NETPARM);
     2040     8343
     2041     8344    3              CALL KNN$SEND(KN$NETPARM)
     2042     8345    4              WHENALTRETURN DO;
     2043     8346    4                   KN$TCTX.ERR = KN$NETPARM.ERRCODE; /* kn_err_norte, knt_no_ldct*/
     2044     8347    4                   CALL KNT$RELBUF (FRAG$->FRAG_HDR, KN$TCTX);
     2045     8348    4                   GOTO ABORT_CONNECT;
     2046     8349    4                   END;
     2047     8350
     2048     8351    3              KN$NETPARM.LDCT$->KN$LDCT.RLCID.TCTX# = KN$TCTX.SRC_REF;
     2049     8352    3              KN$TCTX.LDCTX# = KN$NETPARM.LDCT$->KN$LDCT.LDCTX;
     2050     8353    3              END/*do if cons*/;
PL6.E3A0      #005=KNT$SEND_4HOST File=KNT$SEND.:E05TSI                          WED 07/30/97 01:14 Page:285
     2051     8354
     2052     8355
     2053     8356        /* Store the TPDU_CR or TPDU_CC into the pre-allocated buffer.
     2054     8357        */
     2055     8358    2   BUFFER_REQUEST: ;
     2056     8359    2         FRAG_HDR.SEQ_SBIN = -1;
     2057     8360
     2058     8361    2         KN$TCTX.SEND_HEAD$ = FRAG$;
     2059     8362    2         KN$TCTX.SEND_TAIL$ = FRAG$;
     2060     8363
     2061     8364    2         FRAG$ = PINCRW(FRAG$, SIZEW(FRAG_HDR) );
     2062     8365    2         FRAG$->B$TPDU = KN$NETPARM.THDR_C$->B$TPDU;
     2063     8366
     2064     8367        /* If class 4, start the retransmission timer.
     2065     8368        */
     2066     8369    2         IF KN$TCTX.CLASS = 4
     2067     8370    3         THEN DO;
     2068     8371    3              CALL GHS$SET_TMR (KN$TCTX.TMR_RETRAN);
     2069     8372    3              END;
     2070     8373
     2071     8374        /* If Connectionless network, return to network to forward the tpdu.
     2072     8375           If Connection oriented, altreturn to network to avoid sending the tpdu_cr.
     2073     8376           It will eventually be sent when we get a K_NCONNECT_CFM.
     2074     8377        */
     2075     8378    2         IF KN$TCTX.OPTION.CONS
     2076     8379    2         THEN GOTO MSG_COMPLETE/*to knn$recv to avoid sending twice*/;
     2077     8380    2         ELSE RETURN/*to knn$recv to forward host's tpdu_cr*/;
     2078     8381
     2079     8382        %EJECT;
PL6.E3A0      #005=KNT$SEND_4HOST File=KNT$SEND.:E05TSI                          WED 07/30/97 01:14 Page:286
     2080     8383
     2081     8384        /*   KNT$SEND_4HOST   -   TPDU_CC
     2082     8385
     2083     8386           If the TPDU is a Connect Confirm, the secondary Transport Context
     2084     8387           Block is updated by an entry into KNT$RECV.
     2085     8388           If using Connection Oriented Network, we forward it by calling KNH$SEND.
     2086     8389        */
     2087     8390    2       CASE(%K_TPDU_TYPE_CC);
     2088     8391    2         IF KN$TCTX.STATE ~= %K_TSTATE_WFTRESP
     2089     8392    3         THEN DO;
     2090     8393    3              KN$NETPARM.THDRSZ = %K_ERROR_BAD_TSTATE;
     2091     8394    3              CALL KNT$TR_ERROR(KN$NETPARM);
     2092     8395
     2093     8396    3              K$TPDU_DR.LI = SIZEC(K$TPDU_DR) -1;
     2094     8397    3              K$TPDU_DR.TYPE = %K_TPDU_TYPE_DR;
     2095     8398    3              K$TPDU_DR.DST_REF = B$TPDU_CR.SRC_REF;
     2096     8399    3              K$TPDU_DR.SRC_REF = B$TPDU_CR.DST_REF;
     2097     8400    3              K$TPDU_DR.REASON = %K_ERROR_BAD_TSTATE;
     2098     8401
     2099     8402    3              KN$NETPARM.THDRSZ = SIZEC(K$TPDU_DR);
     2100     8403    3              KN$NETPARM.THDR$ = ADDR(K$TPDU_DR);
     2101     8404    3              KN$NETPARM.NODE = KN$TCTX.HOST_NODE;
     2102     8405
     2103     8406    3              KN$NETPARM.MSGSZ = 0;
     2104     8407    3              KN$NETPARM.UHDRSZ = 0;
     2105     8408    3              KN$NETPARM.SHDRSZ = 0;
     2106     8409
     2107     8410    3              CALL KNN$SEND(KN$NETPARM);
     2108     8411
     2109     8412    3              GOTO MSG_COMPLETE;
     2110     8413    3              END;
     2111     8414
     2112     8415    2         KN$TCTX.HOST_REF = B$TPDU_CR.SRC_REF;
     2113     8416
     2114     8417    2         IF KN$TCTX.CLASS = 0
     2115     8418    2         THEN B$TPDU_CR.CDT = 0;
     2116     8419
PL6.E3A0      #005=KNT$SEND_4HOST File=KNT$SEND.:E05TSI                          WED 07/30/97 01:14 Page:287
     2117     8420    3         ELSE DO;                          /*for classes 2 and 4                 */
     2118     8421    3              IF KN$TCTX.RCV_WINDOW_SZ > 15
     2119     8422    3              THEN B$TPDU_CR.CDT = 15;
     2120     8423    3              ELSE B$TPDU_CR.CDT = KN$TCTX.RCV_WINDOW_SZ;
     2121     8424
     2122     8425    3              IF KN$TCTX.CLASS = 4
     2123     8426    4              THEN DO;
     2124     8427    4                   CALL KNT$GET_SBUF(THDRSZ,FRAG$,KN$TCTX)
     2125     8428    5                   WHENALTRETURN DO;
     2126     8429    5                        KN$NETPARM.ERRCODE = %KN_ERR_NOQ2;
     2127     8430    5                        ALTRETURN;         /*leave on coupler cq                 */
     2128     8431    5                        END;
     2129     8432    4                   END;
     2130     8433    3              END;
     2131     8434
     2132     8435    2         KN$TCTX.STATE = %K_TSTATE_WFCC;   /*fake out send_cr_4host*/
     2133     8436
     2134     8437    2         CALL KNT$SEND_CR_4HOST(KN$NETPARM)
     2135     8438    3         WHENALTRETURN DO;
     2136     8439    3              GOTO FORCE_SCREECH;
     2137     8440    3              END;
     2138     8441
     2139     8442    2         IF KN$TCTX.OPTION.CONS
     2140     8443    3         THEN DO;
     2141     8444    3              KN$NETPARM.LDCT$ = KN$LDCT$(KN$TCTX.LDCTX#);
     2142     8445    3              KN$NETPARM.FUNCTION = %KN_FCN_DATA;
     2143     8446    3              KN$NETPARM.NHDR$ = ADDR(NIL);
     2144     8447    3              KN$NETPARM.NHDRSZ = 0;
     2145     8448    3              KN$NETPARM.SHDRSZ = 0;
     2146     8449    3              KN$NETPARM.UHDRSZ = 0;
     2147     8450    3              KN$NETPARM.MSGSZ = 0;
     2148     8451
     2149     8452    3              CALL KNT$TR_SEND(KN$NETPARM);
     2150     8453
     2151     8454    3              CALL KNH$SEND(KN$NETPARM)
     2152     8455    4              WHENALTRETURN DO;
     2153     8456    4                   ALTRETURN; /*N* change hdr so nw wont call again */
PL6.E3A0      #005=KNT$SEND_4HOST File=KNT$SEND.:E05TSI                          WED 07/30/97 01:14 Page:288
     2154     8457    4                   END;
     2155     8458
     2156     8459    3              IF KN$TCTX.CLASS = 4
     2157     8460    3              THEN GOTO BUFFER_REQUEST;
     2158     8461    3              ALTRETURN;                   /*so knn doesn't also forward message */
     2159     8462    3              END/*cons   */;
     2160     8463
     2161     8464    2         IF KN$TCTX.OPTION.OSI
     2162     8465    3         THEN DO;
     2163     8466    3              KN$NETPARM.FUNCTION = %K_NDATA;
     2164     8467    3              KN$NETPARM.SRC_ADDR$ = ADDR(KN$TCTX.SRC_NSAP);
     2165     8468    3              KN$NETPARM.DST_ADDR$ = ADDR(KN$TCTX.DST_NSAP);
     2166     8469    3              END;
     2167     8470
     2168     8471    2         IF KN$TCTX.CLASS = 4
     2169     8472    2         THEN GOTO BUFFER_REQUEST;
     2170     8473    2         ELSE RETURN;                 /*to knn$recv to forward host's tpdu_cc*/
     2171     8474
     2172     8475        %EJECT;
PL6.E3A0      #005=KNT$SEND_4HOST File=KNT$SEND.:E05TSI                          WED 07/30/97 01:14 Page:289
     2173     8476
     2174     8477        /*   KNT$SEND_4HOST   -   TPDU_DR
     2175     8478
     2176     8479           If the TPDU is a Disconnect Request, OSI session on the host has
     2177     8480           requested T_DISCONNECT_REQ.
     2178     8481
     2179     8482           A call to the special entry point in KNT$RECV simply decodes
     2180     8483           the parmaeters and stores them in the TCTX.
     2181     8484        */
     2182     8485
     2183     8486    2       CASE(%K_TPDU_TYPE_DR);
     2184     8487
     2185     8488    2         IF B$TPDU_DR.DST_REF = 0
     2186     8489    3         THEN DO/*connection not yet open*/;
     2187     8490    4              DO ITEMP1 = 1 TO KN_TCTX_MAX#;
     2188     8491    4                   IF KN$TCTX$(ITEMP1) ~= ADDR(NIL)
     2189     8492    5                   THEN DO;
     2190     8493    5                        IF KN$TCTX$(ITEMP1)->KN$TCTX.HOST_NODE = B$NHDR.SOURCE_NODE -1
     2191     8494    5                          AND KN$TCTX$(ITEMP1)->KN$TCTX.HOST_REF = B$TPDU_DR.SRC_REF
     2192     8495    6                        THEN DO;
     2193     8496    6                             B$TPDU_DR.DST_REF = KN$TCTX$(ITEMP1)->KN$TCTX.SRC_REF;
     2194     8497    6                             CTX$ = KN$TCTX$(ITEMP1);
     2195     8498    6                             GOTO DECODE_TPDU_DR;
     2196     8499    6                             END;
     2197     8500    5                        END/*do if ctx$ not nil*/;
     2198     8501    4                   END/*do while*/;
     2199     8502    3              END/*do if .dst_ref 0*/;
     2200     8503
     2201     8504    2   DECODE_TPDU_DR:
     2202     8505    2         CALL KNT$SEND_CR_4HOST(KN$NETPARM)
     2203     8506    3         WHENALTRETURN DO;
     2204     8507    3              ALTRETURN;
     2205     8508    3              END;
     2206     8509
     2207     8510    2         IF KN$TCTX.STATE = %K_TSTATE_WFTRESP
     2208     8511    3         THEN DO;
     2209     8512    3              ITEMP1 = KN$TCTX.SRC_REF;
PL6.E3A0      #005=KNT$SEND_4HOST File=KNT$SEND.:E05TSI                          WED 07/30/97 01:14 Page:290
     2210     8513    3              KN$TCTX.SRC_REF = 0;
     2211     8514    3              CALL KNT$SEND_DR(KN$NETPARM);
     2212     8515    3              KN$TCTX.SRC_REF = ITEMP1;
     2213     8516    3              GOTO SET_REFWAIT;
     2214     8517    3              END;
     2215     8518
     2216     8519    2         IF KN$TCTX.STATE = %K_TSTATE_WFNC
     2217     8520    2         THEN GOTO TERM_VC;
     2218     8521
     2219     8522    2         IF KN$TCTX.STATE = %K_TSTATE_WFCC
     2220     8523    3         THEN DO;
     2221     8524    3              IF KN$TCTX.CLASS = 0
     2222     8525    4              THEN DO;
     2223     8526    4   SEND_TERM:
     2224     8527    4                   KN$NETPARM.UHDRSZ = 0;
     2225     8528    4                   KN$NETPARM.THDRSZ = 0;
     2226     8529    4                   KN$NETPARM.NHDRSZ = 0;
     2227     8530    4                   KN$NETPARM.FUNCTION = %KN_FCN_TERM;
     2228     8531    4                   KN$NETPARM.LDCT$ = KN$LDCT$(KN$TCTX.LDCTX#);
     2229     8532
     2230     8533    4                   CALL KNH$SEND(KN$NETPARM)
     2231     8534    5                   WHENALTRETURN DO;
     2232     8535    5                        ERRNUM = %K_ERROR_NETWORK;
     2233     8536    5                        GOTO SCREECH_CHECK;
     2234     8537    5                        END;
     2235     8538
     2236     8539    4   SET_REFWAIT:
     2237     8540    4                   CALL KNT$SET_REFWAIT(KN$TCTX);
     2238     8541
     2239     8542    4                   ALTRETURN;              /*so knn$recv won't forward same msg*/
     2240     8543    4                   END/*do if class 0 */;
     2241     8544
     2242     8545    4              ELSE DO;
     2243     8546    4   TERM_VC:
     2244     8547    4                   KN$TCTX.STATE = %K_TSTATE_WBCL;
     2245     8548    4                   ALTRETURN;
     2246     8549    4                   END/*do if class 2 or 4*/;
PL6.E3A0      #005=KNT$SEND_4HOST File=KNT$SEND.:E05TSI                          WED 07/30/97 01:14 Page:291
     2247     8550    3              END/*do if WFCC*/;
     2248     8551
     2249     8552    2         IF KN$TCTX.CLASS = 0
     2250     8553    2         THEN GOTO SEND_TERM;
     2251     8554
     2252     8555    2         IF KN$TCTX.STATE = %K_TSTATE_OPEN
     2253     8556    3         THEN DO;
     2254     8557    3              IF KN$TCTX.CLASS = 2
     2255     8558    3              THEN GOTO SET_CLOSING;
     2256     8559
     2257     8560    3              IF KN$TCTX.CLASS = 4
     2258     8561    4              THEN DO;
     2259     8562    4                   CALL GHS$CANCEL_TMR (KN$TCTX.TMR_WINDOW);
     2260     8563    4                   CALL GHS$CANCEL_TMR (KN$TCTX.TMR_INACTIVITY);
     2261     8564    4   SET_RETRY:
     2262     8565    4                   KN$TCTX.SEND_RETRY_COUNT = 1;
     2263     8566    4                   CALL GHS$SET_TMR (KN$TCTX.TMR_RETRAN);
     2264     8567    4                   END;
     2265     8568    3   SET_CLOSING:
     2266     8569    3              KN$TCTX.STATE = %K_TSTATE_CLOSING;
     2267     8570    3              CALL KNT$SEND_DR(KN$NETPARM);
     2268     8571    3              ALTRETURN;
     2269     8572    3              END;
     2270     8573
     2271     8574    2         IF (KN$TCTX.STATE = %K_TSTATE_AKWAIT) AND (KN$TCTX.CLASS = 4)
     2272     8575    2         THEN GOTO SET_RETRY;
     2273     8576    2         ELSE GOTO REPORT_BAD_TSTATE;
     2274     8577
     2275     8578
     2276     8579        %EJECT;
PL6.E3A0      #005=KNT$SEND_4HOST File=KNT$SEND.:E05TSI                          WED 07/30/97 01:14 Page:292
     2277     8580
     2278     8581        /*   KNT$SEND_4HOST   -   TPDU_CP6
     2279     8582
     2280     8583           If the TPDU is a CP-6 Control tpdu, the action to be taken is
     2281     8584           dependent on the appended parameter code.
     2282     8585
     2283     8586           Currently the only parameters defined are for passing initial transport
     2284     8587           options (trace is the only current one) and for passing host OSI
     2285     8588           session credit information.
     2286     8589        */
     2287     8590
     2288     8591    2       CASE(%K_TPDU_TYPE_CP6);
     2289     8592    3         DO CASE(B$TPDU_CP6.P.CODE);
     2290     8593
     2291     8594    3          CASE(%K_TPARM_CP6_OPTIONS);
     2292     8595    3            IF B$TPDU_CP6_OPT.LI ~= SIZEC(B$TPDU_CP6_OPT) -1
     2293     8596    3            THEN GOTO BAD_TPDU;
     2294     8597
     2295     8598    3            KN$TCTX.OPTION.TRACE = B$TPDU_CP6_OPT.P.OPTION.TRACE;
     2296     8599
     2297     8600    3            ALTRETURN;                     /*so knn doesn't forward message      */
     2298     8601
     2299     8602    3          CASE(%K_TPARM_SSN_CRDT);
     2300     8603    3            IF KN$TCTX.OPTION.OSI = '0'B
     2301     8604    3            THEN GOTO BAD_TPDU;
     2302     8605
     2303     8606    3            IF B$TPDU_CP6.LI ~= SIZEC(B$TPDU_CP6) -1
     2304     8607    3            THEN GOTO BAD_TPDU;
     2305     8608
     2306     8609    3            KN$TCTX.SSN_CRDT = KN$TCTX.SSN_CRDT + B$TPDU_CP6.P.CREDIT;
     2307     8610
     2308     8611    3            IF KN$TCTX.SSN_CRDT > 0
     2309     8612    4            THEN DO;
     2310     8613    4                 IF KN$TCTX.RECV_HEAD$ ~= ADDR(NIL)
     2311     8614    4                 THEN CALL KNT$DSESSION(KN$NETPARM);
     2312     8615    4                 END;
     2313     8616    4            ELSE DO;
PL6.E3A0      #005=KNT$SEND_4HOST File=KNT$SEND.:E05TSI                          WED 07/30/97 01:14 Page:293
     2314     8617    4                 K$TPDU_CP6_FLOW = '0'B;
     2315     8618    4                 K$TPDU_CP6_FLOW.P.CODE = %K_TPARM_SSN_CRDT_ACK;
     2316     8619    4                 CALL I$RETURN_TPDU_CP6;
     2317     8620    4                 END;
     2318     8621
     2319     8622    3            ALTRETURN;                     /*so knn doesn't forward message      */
     2320     8623
     2321     8624    3          CASE(ELSE);
     2322     8625    3            GOTO FORCE_SCREECH;
     2323     8626
     2324     8627
     2325     8628    3            END/*do case(b$tpdu_cp6.parm.code)*/;
     2326     8629
     2327     8630        %EJECT;
PL6.E3A0      #005=KNT$SEND_4HOST File=KNT$SEND.:E05TSI                          WED 07/30/97 01:14 Page:294
     2328     8631    2       CASE(ELSE);
     2329     8632    2   BAD_TPDU:
     2330     8633    2         ERRNUM = %K_ERROR_TPDU_TYPE;
     2331     8634    2         GOTO SCREECH_CHECK;
     2332     8635
     2333     8636    2         END/*do case(function)*/;
     2334     8637
     2335     8638
     2336     8639
     2337     8640    1   REPORT_BAD_TSTATE:
     2338     8641    1      ERRNUM = %K_ERROR_BAD_TSTATE;
     2339     8642
     2340     8643    1   SCREECH_CHECK:
     2341     8644    1      IF KNT_ERROR_SCREECH ~= 0
     2342     8645    2      THEN DO;
     2343     8646    2   FORCE_SCREECH:
     2344     8647    2           CALL SCREECH(KNT_SCODE);
     2345     8648    2           END;
     2346     8649
     2347     8650    1   LOG_ERR:
     2348     8651    1      KN$NETPARM.THDRSZ = ERRNUM;
     2349     8652    1      CALL KNT$TR_ERROR(KN$NETPARM);
     2350     8653
     2351     8654    1      ALTRETURN;
     2352     8655        %EJECT;
PL6.E3A0      #005=KNT$SEND_4HOST File=KNT$SEND.:E05TSI                          WED 07/30/97 01:14 Page:295
     2353     8656
     2354     8657        /*   I$RETURN_TPDU_CP6
     2355     8658
     2356     8659           This subroutine returns a TPDU_CP6 to the host to either flow
     2357     8660           stop host session or acknowledge a zero credit TPDU_CP6.
     2358     8661        */
     2359     8662
     2360     8663    1   I$RETURN_TPDU_CP6: PROC;
     2361     8664    2      K$TPDU_CP6_FLOW.LI = SIZEC(K$TPDU_CP6_FLOW) -1;
     2362     8665    2      K$TPDU_CP6_FLOW.TYPE = %K_TPDU_TYPE_CP6;
     2363     8666    2      K$TPDU_CP6_FLOW.DST_REF = KN$TCTX.HOST_REF;
     2364     8667
     2365     8668    2      KN$NETPARM.MSGSZ = 0;
     2366     8669    2      KN$NETPARM.UHDRSZ = 0;
     2367     8670    2      KN$NETPARM.SHDRSZ = 0;
     2368     8671    2      KN$NETPARM.THDRSZ = SIZEC(K$TPDU_CP6_FLOW);
     2369     8672    2      KN$NETPARM.THDR$ = ADDR(K$TPDU_CP6_FLOW);
     2370     8673    2      KN$NETPARM.NODE = KN$TCTX.HOST_NODE;
     2371     8674
     2372     8675    2      CALL KNN$SEND(KN$NETPARM);
     2373     8676
     2374     8677    2      RETURN;
     2375     8678    2   END I$RETURN_TPDU_CP6;
     2376     8679
     2377     8680    1   END KNT$SEND_4HOST;

PL6.E3A0      #005=KNT$SEND_4HOST File=KNT$SEND.:E05TSI                          WED 07/30/97 01:14 Page:296
--  Include file information  --

   KNH_MACRO_C.:E05TOU  is referenced.
   KN_DATA_M.:E05TOU  is referenced.
   K_QDPHDRS_M.:E05TOU  is referenced.
   K_TRANSPORT_M.:E05TOU  is referenced.
   K_TRANSPORT_E.:E05TOU  is referenced.
   K_INTERFACE_M.:E05TOU  is referenced.
   K_ADDRESS_M.:E05TOU  is referenced.
   GH_SCHD_M.:E05TOU  is referenced.
   GH_GATE_M.:E05TOU  cannot be made into a system file and is referenced.
   G_LCP6_E.:E05TOU  was found in the system file and is never referenced.
   GT_LCP6_M.:E05TOU  was found in the system file and is never referenced.
   KI_CP6.:E05TOU  was found in the system file and is never referenced.
   GF_LCP6_M.:E05TOU  was found in the system file and is never referenced.
   GM_LCP6_M.:E05TOU  was found in the system file and is never referenced.
   GU_LCP6_M.:E05TOU  was found in the system file and is never referenced.
   GJ_LCP6_M.:E05TOU  was found in the system file and is never referenced.
   GH_LCP6_M.:E05TOU  was found in the system file and is never referenced.
      No diagnostics issued in procedure KNT$SEND_4HOST.

   Procedure KNT$SEND_4HOST requires 1077 words for executable code.
   Procedure KNT$SEND_4HOST requires 30 words of local(AUTO) storage.

    No errors detected in file KNT$SEND.:E05TSI    .

PL6.E3A0      #005=KNT$SEND_4HOST File=KNT$SEND.:E05TSI                          WED 07/30/97 01:14 Page:297

 Object Unit name= KNT$SEND_4HOST                             File name= KNT$SEND.:E05TOU
 UTS= JUL 30 '97 01:14:16.36 WED                              Compiler= PL-6/E31         Sev=      00
 SharedLib= :SHARED_LCP6_SYSTEM                               Alt SharedLib=


    ****  Control sections  ****

 Sect   Type Bound  Init  Size HexSiz  Section name
    0   Proc  even  none  1077    435  KNT$SEND_4HOST
    1  RoData even  none     2      2  KNT$SEND_4HOST

    ****  Entry defs  ****

                              Check   Calling
                             calling  sequence
  Sect HexLoc Primary Altret sequence   type   Parms  Name
     0      0   yes    yes     yes      Std        1  KNT$SEND_4HOST

  ****  Entry refs  ****

         Check        Calling
        calling       sequence
Altret sequence SRef   type   Args  Name
         yes           Std       1 KNT$TR_RCVH
 yes     yes           Std       1 KNT$SEND_HOST_DATA
 yes     yes           Std       1 KNT$SEND_CR_4HOST
         yes           Std       1 KNT$SET_REFWAIT
 yes     yes           Std       1 KNT$DSESSION
 yes     yes           Std       1 KNH$SEND
         yes           Std       1 SCREECH
         yes           Std       1 GHS$CANCEL_TMR
 yes     yes           Std       3 KNT$GET_SBUF
         yes           Std       1 KNT$TR_NCR
         yes           Std       1 KNT$TR_ERROR
         yes           Std       1 GHS$SET_TMR
 yes     yes           Std       1 KNT$SEND_DR
 yes     yes           Std       1 KNT$SEND_DR_HOST
PL6.E3A0      #005=KNT$SEND_4HOST File=KNT$SEND.:E05TSI                          WED 07/30/97 01:14 Page:298
         yes           Std       1 KNT$TR_SEND
 yes     yes           Std       1 KNN$SEND
         yes           Std       2 KNT$RELBUF
                       nStd      0 X6A_AUTO_1
                       nStd      0 X6A_AALT
                       nStd      0 X6A_ARET

  ****  Data refs  ****

  Flags:  r = read only, s = secondary
Flgs Name                             Flgs Name                             Flgs Name
     KN_TCTX_MAX#                          KN_TCTX$$                             KN_DCT$$
     KNT_ERROR_SCREECH                     KNT_SCODE                        r    G$ROS$
PL6.E3A0      #005=KNT$SEND_4HOST File=KNT$SEND.:E05TSI                          WED 07/30/97 01:14 Page:299


     1764        1        /*M* KNT$SEND_4HOST - Send session messages to network.   */
     1765        2        /*T***********************************************************/
     1766        3        /*T*                                                         */
     1767        4        /*T* Copyright (c) Bull HN Information Systems Inc., 1997    */
     1768        5        /*T*                                                         */
     1769        6        /*T***********************************************************/
     1770        7        /*X* PLM=3,IND=5,ENU=0,ECU=0 */
     1771        8
     1772        9        KNT$SEND_4HOST: PROC(KN$NETPARM) ALTRET;

      9   0 000000  D380 0000 0000  xent KNT$SEND_4HOST  LNJ,B5   X6A_AUTO_1
          0 000003       001E 0001                       DC       30,1

     1773       10
     1774       11        %INCLUDE GH_GATE_M;
     1775       52        %INCLUDE GH_SCHD_M;
     1776      196        %INCLUDE K_ADDRESS_M;
     1777      699        %INCLUDE K_INTERFACE_M;
     1778     1108        %INCLUDE K_TRANSPORT_E;
     1779     1433        %INCLUDE K_TRANSPORT_M;
     1780     3217        %INCLUDE K_QDPHDRS_M;
     1781     4099        %INCLUDE KN_DATA_M;
     1782     5885        %INCLUDE KNH_MACRO_C;
     1783     6168
     1784     6169                                                /* Input parameters                   */
     1785     6170        %KN$NETPARM;
     1786     6323                                                /* Auto Storage                       */
     1787     6324    1   DCL ITEMP1 SBIN;
     1788     6325    1   DCL CTX$ PTR;
     1789     6326    1   DCL FRAG$ PTR;
     1790     6327    1   DCL THDRSZ UBIN;
     1791     6328    1   DCL ERRNUM UBIN;
     1792     6329
     1793     6330        %K$TPDU_DR (NAME=K$TPDU_DR, STCLASS=AUTO);
     1794     6373        %K$TPDU_CP6 (NAME=K$TPDU_CP6_FLOW, STCLASS=AUTO, LAST=",");
     1795     6408           %K$TPARM_FLOW_CONTROL (NAME=P, LVL=2, STCLASS=AUTO, LAST=";");
PL6.E3A0      #005=KNT$SEND_4HOST File=KNT$SEND.:E05TSI                          WED 07/30/97 01:14 Page:300
     1796     6444        %K$TPDU_UN (NAME=K$TPDU_UN, STCLASS=AUTO);
     1797     6483
     1798     6484
     1799     6485                                                /* External Procedures                */
     1800     6486    1   DCL KNA$RELTCTX ENTRY(1) ALTRET;
     1801     6487    1   DCL KNH$SEND ENTRY(1) ALTRET;
     1802     6488    1   DCL KNN$SEND ENTRY(1) ALTRET;
     1803     6489    1   DCL KNT$GET_SBUF ENTRY(3) ALTRET;
     1804     6490    1   DCL KNT$RELBUF ENTRY(2);
     1805     6491    1   DCL KNT$SEND_HOST_DATA ENTRY(1) ALTRET;
     1806     6492    1   DCL KNT$SEND_CR_4HOST ENTRY(1) ALTRET;
     1807     6493    1   DCL KNT$SEND_DR ENTRY(1) ALTRET;
     1808     6494    1   DCL KNT$SEND_DR_HOST ENTRY(1) ALTRET;
     1809     6495    1   DCL KNT$DSESSION ENTRY(1) ALTRET;
     1810     6496    1   DCL KNT$RLS_CHAIN ENTRY(1);
     1811     6497    1   DCL KNT$SET_REFWAIT ENTRY(1);
     1812     6498    1   DCL KNT$TR_ERROR ENTRY(1);
     1813     6499    1   DCL KNT$TR_FHOST ENTRY(1);
     1814     6500    1   DCL KNT$TR_RCVH ENTRY(1);
     1815     6501    1   DCL KNT$TR_NCR ENTRY(1);
     1816     6502    1   DCL KNT$TR_SEND ENTRY(1);
     1817     6503    1   DCL GHS$SET_TMR ENTRY(1);
     1818     6504    1   DCL GHS$CANCEL_TMR ENTRY(1);
     1819     6505    1   DCL SCREECH ENTRY(1);
     1820     6506
     1821     6507                                                /* External Data                      */
     1822     6508    1   DCL KN_TCTX_MAX# UBIN SYMREF;
     1823     6509    1   DCL KN_TCTX$$ PTR SYMREF;
     1824     6510    1   DCL KN_DCT$$ PTR SYMREF;
     1825     6511    1   DCL KNT_ERROR_SCREECH UBIN SYMREF;
     1826     6512    1   DCL KNT_SCODE UBIN(32) SYMREF;
     1827     6513
     1828     6514                                                /* Based Data                         */
     1829     6515        %K$TCTX (NAME=KN$TCTX, STCLASS="BASED(CTX$)");
     1830     7422    1   DCL KN$TCTX$(0:0) PTR BASED(KN_TCTX$$);
     1831     7423    1   DCL KN$LDCT$(0:0) PTR BASED(KN_DCT$$);
     1832     7424
PL6.E3A0      #005=KNT$SEND_4HOST File=KNT$SEND.:E05TSI                          WED 07/30/97 01:14 Page:301
     1833     7425        %KN$LDCT (NAME=KN$LDCT, STCLASS="BASED(KN$NETPARM.LDCT$)");
     1834     7670
     1835     7671        %K$FRAG_HDR (NAME=FRAG_HDR, STCLASS="BASED(FRAG$)");
     1836     7754
     1837     7755        %K$TPDU_CR_CC(NAME=B$TPDU_CR,STCLASS="BASED(KN$NETPARM.THDR_C$)");
     1838     7824        %K$TPDU_DR (NAME=B$TPDU_DR, STCLASS="BASED(KN$NETPARM.THDR_C$)");
     1839     7867        %K$TPDU_DT(NAME=B$TPDU_DT, STCLASS="BASED(KN$NETPARM.THDR_C$)");
     1840     7917
     1841     7918        %K$TPDU_CP6 (NAME=B$TPDU_CP6, STCLASS="BASED(KN$NETPARM.THDR$)", LAST=",");
     1842     7953            %K$TPARM_SSN_CRDT (NAME=P, STCLASS=BASED, LVL=2);
     1843     7992
     1844     7993
     1845     7994        %K$TPDU_CP6 (NAME=B$TPDU_CP6_OPT, STCLASS="BASED(KN$NETPARM.THDR$)", LAST=",");
     1846     8029            %K$TPARM_CP6_OPTIONS (NAME=P, STCLASS=BASED, LVL=2);
     1847     8074
     1848     8075
     1849     8076        %K$NQDP_HDR (NAME=B$NHDR, STCLASS="BASED(KN$NETPARM.NHDR$)");
     1850     8153
     1851     8154
     1852     8155    1   DCL B$TPDU CHAR(THDRSZ) BASED CALIGNED;
     1853     8156        %EJECT;
PL6.E3A0      #005=KNT$SEND_4HOST File=KNT$SEND.:E05TSI                          WED 07/30/97 01:14 Page:302
     1854     8157        /*F* NAME: KNT$SEND_4HOST
     1855     8158
     1856     8159        This routine is entered when Network has just received a message from
     1857     8160        an adjacent host node and the destination of the message is not this
     1858     8161        fep node.  KNN$RECV calls this routine with the following parameters:
     1859     8162        .fif
     1860     8163        }
     1861     8164        }    KN$NETPARM.FUNCTION
     1862     8165        }                - Contains a value to indicate if we have received
     1863     8166        }                  an OSI Session or CP-6 Session message:
     1864     8167        }                    KN_FCN_DATA - CP-6
     1865     8168        }                    K_NDATA      - OSI
     1866     8169        }
     1867     8170        }    KN$NETPARM.THDR$
     1868     8171        }                - Contains the address within the message of the first
     1869     8172        }                  byte of the TPDU.
     1870     8173        }
     1871     8174        }    KN$NETPARM.THDRSZ
     1872     8175        }                - Contains the byte size of the TPDU.
     1873     8176        }
     1874     8177        }    KN$NETPARM.NHDR$
     1875     8178        }                - Contains the address of the network header.
     1876     8179        }
     1877     8180        }    KN$NETPARM.LDCT$
     1878     8181        }                - Contains the address of the remote fep link LDCT.
     1879     8182        }
     1880     8183        }    KN$NETPARM.SLDCT$
     1881     8184        }                - Contains the address of the host link LDCT.
     1882     8185        .fin
     1883     8186
     1884     8187        The action to be taken is dependent on the type of TPDU that has been
     1885     8188        received.  This will be one of the following:
     1886     8189        .fif
     1887     8190        }    K_TPDU_TYPE_DT  - Data               - forward by calling KNT$SEND
     1888     8191        }    K_TPDU_TYPE_ED  - Expedited Data     - forward by calling KNT$SEND
     1889     8192        }    K_TPDU_TYPE_CR  - Connect Request    - forward by returning
     1890     8193        }    K_TPDU_TYPE_CC  - Connect Confirm    - forward by returning
PL6.E3A0      #005=KNT$SEND_4HOST File=KNT$SEND.:E05TSI                          WED 07/30/97 01:14 Page:303
     1891     8194        }    K_TPDU_TYPE_DR  - Disconnect Request
     1892     8195        .fin
     1893     8196
     1894     8197        There are three possible ways to exit:
     1895     8198        .fif
     1896     8199        }    RETURN         KNN$RECV will call KNH$SEND to forward the msg
     1897     8200        }
     1898     8201        }    ALTRETURN      with NETPARM.ERRCODE zero
     1899     8202        }                   KNN$RECV will simply return - message on COUPLER's
     1900     8203        }                                                 SQ is complete.
     1901     8204        }    ALTRETURN      with NETPARM.ERRCODE non-zero
     1902     8205        }                   KNN$RECV will altreturn - message on COUPLER's SQ
     1903     8206        }                                             will remain.
     1904     8207        .fin
     1905     8208        */
     1906     8209        %EJECT;
PL6.E3A0      #005=KNT$SEND_4HOST File=KNT$SEND.:E05TSI                          WED 07/30/97 01:14 Page:304
     1907     8210    1      CTX$ = KN$TCTX$(B$TPDU_CR.DST_REF);

   8210   0 000005  ECC7 0004                            LDB,B6   @KN$NETPARM,AUTO
          0 000007  DCC6 000B                            LDB,B5   11,B6
          0 000009  B845 0001                            LDR,R3   1,B5
          0 00000B  CC80 0000 0000  xsym                 LDB,B4   KN_TCTX$$
          0 00000E  BCB4                                 LDB,B3   ,B4,R3
          0 00000F  BFC7 0007                            STB,B3   CTX$,AUTO

     1908     8211
     1909     8212    1      KN$NETPARM.TCTX$ = CTX$;

   8212   0 000011  BFC6 001B                            STB,B3   27,B6

     1910     8213
     1911     8214
     1912     8215        /*   KNT$SEND_4HOST   -   TPDU_DT and TPDU_ED
     1913     8216
     1914     8217           When the host is forwarding data, we make this look as if we had
     1915     8218           been called by local session by stiping off the transport header
     1916     8219           that was built on the host and setting netparn.shdr$ and .shdrsz
     1917     8220           to frame the spdu.
     1918     8221
     1919     8222           Entering the KNT$SEND routine will take care of busting it into
     1920     8223           smaller tpdus if necessary, buffering the composed tpdus, building
     1921     8224           the appropriate transport header, and forwarding the message by
     1922     8225           calling KNN$SEND or KNH$SEND.
     1923     8226
     1924     8227           If we have buffered twice the window size, we send a flow_stop
     1925     8228           tpdu to host transport.
     1926     8229
     1927     8230           We then altreturn to KNN$RECV, so we don't forward the message
     1928     8231           twice.
     1929     8232        */
     1930     8233
     1931     8234    1      IF B$TPDU_CR.TYPE = %K_TPDU_TYPE_DT

PL6.E3A0      #005=KNT$SEND_4HOST File=KNT$SEND.:E05TSI                          WED 07/30/97 01:14 Page:305
   8234   0 000013  E805                                 LDR,R6   ,B5
          0 000014  6044                                 SOR,R6   4
          0 000015  E570 000F                            AND,R6   15,IMO
          0 000017  6D0F                                 CMV,R6   15
          0 000018  0981 0073                            BNE      s:8272,PREL

     1932     8235    2      THEN DO;

   8124   0                              STRIP_OFF_THDR  null
     1933     8236
     1934     8237    2   STRIP_OFF_THDR: ;
     1935     8238    2           IF KN$TCTX.OPTION.TRACE

   8238   0 00001A  ECC7 0007            STRIP_OFF_THDR  LDB,B6   CTX$,AUTO
          0 00001C  82C6 000C                            LB,'0040'X        12,B6
          0 00001E       0040
          0 00001F  0581 0009                            BBF      s:8241,PREL

     1936     8239    2           THEN CALL KNT$TR_RCVH(KN$NETPARM);

   8239   0 000021  BBC7 0004                            LAB,B3   @KN$NETPARM,AUTO
          0 000023  CBF0 0100                            LAB,B4   256,IMO
          0 000025  E380 0000 0000  xent                 LNJ,B6   KNT$TR_RCVH
          0 000028       0001                            DC       s:8241,PREL

     1937     8240
     1938     8241    2           KN$NETPARM.NODE = KN$TCTX.NODE;

   8241   0 000029  ECC7 0004                            LDB,B6   @KN$NETPARM,AUTO
          0 00002B  DCC7 0007                            LDB,B5   CTX$,AUTO
          0 00002D  E805                                 LDR,R6   ,B5
          0 00002E  E570 00FF                            AND,R6   255,IMO
          0 000030  EF46 0015                            STR,R6   21,B6

     1939     8242    2           KN$NETPARM.TCTX_ID = B$TPDU_DT.DST_REF;

   8242   0 000032  CCC6 000B                            LDB,B4   11,B6
PL6.E3A0      #005=KNT$SEND_4HOST File=KNT$SEND.:E05TSI                          WED 07/30/97 01:14 Page:306
          0 000034  D844 0001                            LDR,R5   1,B4
          0 000036  DF46 0011                            STR,R5   17,B6

     1940     8243
     1941     8244    2           THDRSZ = B$TPDU_DT.LI +1;

   8244   0 000038  C284                                 LLH,R4   ,B4
          0 000039  4E01                                 ADV,R4   1
          0 00003A  CF47 000B                            STR,R4   THDRSZ,AUTO

     1942     8245    2           KN$NETPARM.SHDR_C$ = PINCRC(KN$NETPARM.THDR_C$, THDRSZ);

   8245   0 00003C  8CC6 000B                            LDI      11,B6
          0 00003E  7031                                 DCL,R7   1
          0 00003F  8D47 0018                            SDI      K$TPDU_UN+4,AUTO
          0 000041  F854                                 LDR,R7   R4
          0 000042  6C00                                 LDV,R6   0
          0 000043  8447 0018                            AID      K$TPDU_UN+4,AUTO
          0 000045  7071                                 DCR,R7   1
          0 000046  8D46 0008                            SDI      8,B6

     1943     8246    2           KN$NETPARM.SHDRSZ = KN$NETPARM.THDRSZ - THDRSZ;

   8246   0 000048  D846 000D                            LDR,R5   13,B6
          0 00004A  D247 000B                            SUB,R5   THDRSZ,AUTO
          0 00004C  DF46 000A                            STR,R5   10,B6

     1944     8247    2           KN$NETPARM.UHDR$ = ADDR(NIL);

   8247   0 00004E  CB80 0000 0000                       LAB,B4   0
          0 000051  CFC6 0005                            STB,B4   5,B6

     1945     8248    2           KN$NETPARM.MSG$ = ADDR(NIL);

   8248   0 000053  BB80 0000 0000                       LAB,B3   0
          0 000056  BFC6 0002                            STB,B3   2,B6

PL6.E3A0      #005=KNT$SEND_4HOST File=KNT$SEND.:E05TSI                          WED 07/30/97 01:14 Page:307
     1946     8249
     1947     8250    2           CALL KNT$SEND_HOST_DATA(KN$NETPARM)

   8250   0 000058  BBC7 0004                            LAB,B3   @KN$NETPARM,AUTO
          0 00005A  CBF0 0100                            LAB,B4   256,IMO
          0 00005C  E380 0000 0000  xent                 LNJ,B6   KNT$SEND_HOST_DATA
          0 00005F       0003                            DC       s:8252,PREL
          0 000060  0F81 0028                            B        s:8267,PREL

     1948     8251    3           WHENALTRETURN DO;

     1949     8252    3                IF KN$NETPARM.ERRCODE = %KN_ERR_NOQ2

   8252   0 000062  ECC7 0004                            LDB,B6   @KN$NETPARM,AUTO
          0 000064  E846 0016                            LDR,R6   22,B6
          0 000066  6D07                                 CMV,R6   7
          0 000067  0981 0004                            BNE      s:8255,PREL

     1950     8253    3                THEN ALTRETURN;       /*couldn't get buf - leave on coupler cq   */

   8253   0 000069  C380 0000 0000  xent                 LNJ,B4   X6A_AALT

     1951     8254
     1952     8255    3                IF KN$TCTX.FLOW_CONTROLLED /*buffer limit exceeded*/

   8255   0 00006C  DCC7 0007                            LDB,B5   CTX$,AUTO
          0 00006E  82C5 000D                            LB,'0010'X        13,B5
          0 000070       0010
          0 000071  0581 0013                            BBF      s:8264,PREL
          0 000073  82C5 000C                            LB,'0010'X        12,B5
          0 000075       0010
          0 000076  0581 000E                            BBF      s:8264,PREL

     1953     8256    3                  AND KN$TCTX.OPTION.OSI
     1954     8257    4                THEN DO;

     1955     8258    4                     K$TPDU_CP6_FLOW = '0'B;
PL6.E3A0      #005=KNT$SEND_4HOST File=KNT$SEND.:E05TSI                          WED 07/30/97 01:14 Page:308

   8258   0 000078  5C06                                 LDV,R5   6
          0 000079  0021                                 ALR      ;
          0 00007A       4178 0000                                ALPHANUM('0000'X,IMO,,1),;
          0 00007C       4007 0011                                ALPHANUM(K$TPDU_CP6_FLOW,AUTO,,R5,FILL)

     1956     8259    4                     K$TPDU_CP6_FLOW.P.CODE = %K_TPARM_FLOW_STOP;

   8259   0 00007E  6C03                                 LDV,R6   3
          0 00007F  437F                                 CSYNC    s:8259,SPREL
          0 000080  E7C7 0013                            STH,R6   K$TPDU_CP6_FLOW+2,AUTO

     1957     8260    4                     CALL I$RETURN_TPDU_CP6;

   8260   0 000082  E3C0 0385                            LNJ,B6   s:0,PREL
          0 000084       0001                            DC       s:8264,PREL

     1958     8261    4                     END;

     1959     8262
     1960     8263        /*           KN$TCTX.FLOW_CONTROLLED = '0'B; reset when ak recvd */
     1961     8264    3                KN$NETPARM.ERRCODE = 0;    /*so knn won't altret to knh$scan     */

   8264   0 000085  ECC7 0004                            LDB,B6   @KN$NETPARM,AUTO
          0 000087  8746 0016                            CL       22,B6

     1962     8265    3                END/*altret from knt$send*/;

     1963     8266
     1964     8267    2           ALTRETURN;                      /*so knn doesn't also forward message */

   8267   0 000089  C380 0000 0000  xent                 LNJ,B4   X6A_AALT

     1965     8268    2           END/*do if tpdu_dt*/;
     1966     8269
     1967     8270
     1968     8271
PL6.E3A0      #005=KNT$SEND_4HOST File=KNT$SEND.:E05TSI                          WED 07/30/97 01:14 Page:309
     1969     8272    1      IF B$TPDU_CR.TYPE = %K_TPDU_TYPE_ED

   8272   0 00008C  6D01                                 CMV,R6   1
          0 00008D  0981 0006                            BNE      s:8280,PREL

     1970     8273    2      THEN DO;

     1971     8274    2           KN$NETPARM.FUNCTION = %K_TEXPD_DATA_REQ;

   8274   0 00008F  5C18                                 LDV,R5   24
          0 000090  DF46 0014                            STR,R5   20,B6

     1972     8275    2           GOTO STRIP_OFF_THDR;

   8275   0 000092  0F81 FF87                            B        s:8235,PREL

     1973     8276    2           END;
     1974     8277
     1975     8278
     1976     8279        %EJECT;
PL6.E3A0      #005=KNT$SEND_4HOST File=KNT$SEND.:E05TSI                          WED 07/30/97 01:14 Page:310
     1977     8280    1      IF B$TPDU_CR.TYPE ~= %K_TPDU_TYPE_CP6

   8280   0 000094  8285                                 LB,'00F0'X        ,B5
   8280   0 000095       00F0
          0 000096  0581 0009                            BBF      s:8283,PREL

     1978     8281    1      THEN CALL KNT$TR_RCVH(KN$NETPARM);

   8281   0 000098  BBC7 0004                            LAB,B3   @KN$NETPARM,AUTO
          0 00009A  CBF0 0100                            LAB,B4   256,IMO
          0 00009C  E380 0000 0000  xent                 LNJ,B6   KNT$TR_RCVH
          0 00009F       0001                            DC       s:8283,PREL

     1979     8282
     1980     8283    1      THDRSZ = KN$NETPARM.THDRSZ;

   8283   0 0000A0  ECC7 0004                            LDB,B6   @KN$NETPARM,AUTO
          0 0000A2  E846 000D                            LDR,R6   13,B6
          0 0000A4  EF47 000B                            STR,R6   THDRSZ,AUTO

     1981     8284
     1982     8285    2      DO CASE ( B$TPDU_CR.TYPE );

   8285   0 0000A6  DCC6 000B                            LDB,B5   11,B6
          0 0000A8  B805                                 LDR,R3   ,B5
          0 0000A9  3044                                 SOR,R3   4
          0 0000AA  B570 000F                            AND,R3   15,IMO
          0 0000AC  3D0F                                 CMV,R3   15
          0 0000AD  0281 0331                            BGE      s:8631,PREL
          0 0000AF  A830 0000 00B5  00                   LDR,R2   s:8285+15,R3
          0 0000B2  83A0 0000 00C4  00                   JMP      s:8302,R2
          0 0000B5       02CC                            DC       s:8592,PREL
          0 0000B6       031B                            DC       s:8631,PREL
          0 0000B7       031B                            DC       s:8631,PREL
          0 0000B8       031B                            DC       s:8631,PREL
          0 0000B9       031B                            DC       s:8631,PREL
          0 0000BA       031B                            DC       s:8631,PREL
PL6.E3A0      #005=KNT$SEND_4HOST File=KNT$SEND.:E05TSI                          WED 07/30/97 01:14 Page:311
          0 0000BB       031B                            DC       s:8631,PREL
          0 0000BC       031B                            DC       s:8631,PREL
          0 0000BD       01DA                            DC       s:8488,PREL
          0 0000BE       031B                            DC       s:8631,PREL
          0 0000BF       031B                            DC       s:8631,PREL
          0 0000C0       031B                            DC       s:8631,PREL
          0 0000C1       031B                            DC       s:8631,PREL
          0 0000C2       00E5                            DC       s:8391,PREL
          0 0000C3       0000                            DC       s:8302,PREL

     1983     8286
     1984     8287
     1985     8288        /*   KNT$SEND_4HOST   -   TPDU_CR
     1986     8289
     1987     8290           If the TPDU is a Connect Request, a secondary Transport Context
     1988     8291           Block is allocated and initialized by an entry into KNT$RECV.
     1989     8292
     1990     8293           If KNT$RECV finds errors, KNT$RECV will send a TPDU_DR back to the
     1991     8294           host and altreturn to here, where we will in turn altreturn to
     1992     8295           KNN$RECV to avoid sending the tpdu on.
     1993     8296
     1994     8297           On a normal return, the state of the TCTX is WFNC is mode is CONS;
     1995     8298           state is WFCC if mode is CLNS.
     1996     8299        */
     1997     8300
     1998     8301    2       CASE( %K_TPDU_TYPE_CR);

     1999     8302    2         CALL KNT$SEND_CR_4HOST(KN$NETPARM)

   8302   0 0000C4  BBC7 0004                            LAB,B3   @KN$NETPARM,AUTO
          0 0000C6  CBF0 0100                            LAB,B4   256,IMO
          0 0000C8  E380 0000 0000  xent                 LNJ,B6   KNT$SEND_CR_4HOST
          0 0000CB       0003                            DC       s:8304,PREL
          0 0000CC  0F81 0003                            B        s:8307,PREL

     2000     8303    3         WHENALTRETURN DO;

PL6.E3A0      #005=KNT$SEND_4HOST File=KNT$SEND.:E05TSI                          WED 07/30/97 01:14 Page:312
     2001     8304    3              GOTO MSG_COMPLETE;

   8304   0 0000CE  0F81 0032                            B        s:8320,PREL

     2002     8305    3              END;
     2003     8306
     2004     8307    2         CTX$ = KN$NETPARM.TCTX$;

   8307   0 0000D0  ECC7 0004                            LDB,B6   @KN$NETPARM,AUTO
          0 0000D2  DCC6 001B                            LDB,B5   27,B6
          0 0000D4  DFC7 0007                            STB,B5   CTX$,AUTO

     2005     8308
     2006     8309        /* Make sure we can get a buffer before continuing.
     2007     8310        */
     2008     8311    2         CALL KNT$GET_SBUF(THDRSZ,FRAG$,KN$TCTX)

   8311   0 0000D6  DFC7 001C                            STB,B5   K$TPDU_UN+8,AUTO
          0 0000D8  CBC7 0009                            LAB,B4   FRAG$,AUTO
          0 0000DA  CFC7 001A                            STB,B4   K$TPDU_UN+6,AUTO
          0 0000DC  BBC7 000B                            LAB,B3   THDRSZ,AUTO
          0 0000DE  BFC7 0018                            STB,B3   K$TPDU_UN+4,AUTO
          0 0000E0  BBC7 0018                            LAB,B3   K$TPDU_UN+4,AUTO
          0 0000E2  CBF0 0300                            LAB,B4   768,IMO
          0 0000E4  E380 0000 0000  xent                 LNJ,B6   KNT$GET_SBUF
          0 0000E7       0003                            DC       s:8313,PREL
          0 0000E8  0F81 001F                            B        s:8329,PREL

     2009     8312    3         WHENALTRETURN DO;

     2010     8313    3              KN$TCTX.ERR = %K_ERROR_NOMEM;

   8313   0 0000EA  E870 00F4                            LDR,R6   244,IMO
          0 0000EC  ECC7 0007                            LDB,B6   CTX$,AUTO
          0 0000EE  EAC6 000E                            SRM,R6,'00FF'X    14,B6
          0 0000F0       00FF

PL6.E3A0      #005=KNT$SEND_4HOST File=KNT$SEND.:E05TSI                          WED 07/30/97 01:14 Page:313
     2011     8314    3   ABORT_CONNECT:
     2012     8315    3              CALL KNT$SEND_DR_HOST(KN$NETPARM);

   8315   0 0000F1  BBC7 0004            ABORT_CONNECT   LAB,B3   @KN$NETPARM,AUTO
          0 0000F3  CBF0 0100                            LAB,B4   256,IMO
          0 0000F5  E380 0000 0000  xent                 LNJ,B6   KNT$SEND_DR_HOST
          0 0000F8       0001                            DC       s:8317,PREL

     2013     8316
     2014     8317    3              CALL KNT$SET_REFWAIT(KN$TCTX);

   8317   0 0000F9  BBC7 0007                            LAB,B3   CTX$,AUTO
          0 0000FB  CBF0 0100                            LAB,B4   256,IMO
          0 0000FD  E380 0000 0000  xent                 LNJ,B6   KNT$SET_REFWAIT
          0 000100       0001                            DC       s:8320,PREL

     2015     8318
     2016     8319    3   MSG_COMPLETE:
     2017     8320    3              KN$NETPARM.ERRCODE = 0;

   8320   0 000101  ECC7 0004            MSG_COMPLETE    LDB,B6   @KN$NETPARM,AUTO
          0 000103  8746 0016                            CL       22,B6

     2018     8321    3              ALTRETURN;                   /*to knn$recv to avoid sending twice  */

   8321   0 000105  C380 0000 0000  xent                 LNJ,B4   X6A_AALT

     2019     8322    3              END;
     2020     8323
     2021     8324        /* If we are to use Connection Oriented Network, try to establish a virtual
     2022     8325           circuit by calling KNN$SEND with K_NCONNECT_REQ function.  If successful,
     2023     8326           remember the index for the LDCT that was allocated for the virtual
     2024     8327           circuit in the transport context.
     2025     8328        */
     2026     8329    2         IF KN$TCTX.OPTION.CONS

   8329   0 000108  ECC7 0007                            LDB,B6   CTX$,AUTO
PL6.E3A0      #005=KNT$SEND_4HOST File=KNT$SEND.:E05TSI                          WED 07/30/97 01:14 Page:314
          0 00010A  82C6 000C                            LB,'0020'X        12,B6
          0 00010C       0020
          0 00010D  0581 0059                            BBF      s:8353,PREL

     2027     8330    3         THEN DO;

     2028     8331    3              KN$NETPARM.FLAGS.CONS = '1'B;

   8331   0 00010F  DCC7 0004                            LDB,B5   @KN$NETPARM,AUTO
          0 000111  8945 0012                            LBT,'0100'X       18,B5
          0 000113       0100

     2029     8332    3              KN$NETPARM.FUNCTION = %K_NCONNECT_REQ;

   8332   0 000114  6C1F                                 LDV,R6   31
          0 000115  EF45 0014                            STR,R6   20,B5

     2030     8333    3              KN$NETPARM.LDCT$ = ADDR(NIL);

   8333   0 000117  CB80 0000 0000                       LAB,B4   0
          0 00011A  CF85                                 STB,B4   ,B5

     2031     8334
     2032     8335    3              KN$NETPARM.MSGSZ = SIZEC(K$TPDU_UN);

   8335   0 00011B  5C04                                 LDV,R5   4
          0 00011C  DF45 0004                            STR,R5   4,B5

     2033     8336    3              KN$NETPARM.MSGW$ = ADDR(K$TPDU_UN);

   8336   0 00011E  BBC7 0014                            LAB,B3   K$TPDU_UN,AUTO
          0 000120  BFC5 0002                            STB,B3   2,B5

     2034     8337    3              K$TPDU_UN.LI = SIZEC(K$TPDU_UN) -1;

   8337   0 000122  4C03                                 LDV,R4   3
          0 000123  C7C7 0014                            STH,R4   K$TPDU_UN,AUTO
PL6.E3A0      #005=KNT$SEND_4HOST File=KNT$SEND.:E05TSI                          WED 07/30/97 01:14 Page:315

     2035     8338    3              K$TPDU_UN.TYPE = %K_TPDU_TYPE_UN;

   8338   0 000125  3C01                                 LDV,R3   1
          0 000126  BAC7 0014                            SRM,R3,'00FF'X    K$TPDU_UN,AUTO
          0 000128       00FF

     2036     8339    3              K$TPDU_UN.PRT_ID = %K_UN_PRTID_VC;

   8339   0 000129  B7C7 0015                            STH,R3   K$TPDU_UN+1,AUTO

     2037     8340    3              K$TPDU_UN.SHARE = 0;

   8340   0 00012B  8847 0015                            LBF,'00FF'X       K$TPDU_UN+1,AUTO
   8340   0 00012D       00FF

     2038     8341
     2039     8342    3              CALL KNT$TR_NCR(KN$NETPARM);

   8342   0 00012E  BBC7 0004                            LAB,B3   @KN$NETPARM,AUTO
          0 000130  CBF0 0100                            LAB,B4   256,IMO
          0 000132  E380 0000 0000  xent                 LNJ,B6   KNT$TR_NCR
          0 000135       0001                            DC       s:8344,PREL

     2040     8343
     2041     8344    3              CALL KNN$SEND(KN$NETPARM)

   8344   0 000136  BBC7 0004                            LAB,B3   @KN$NETPARM,AUTO
          0 000138  CBF0 0100                            LAB,B4   256,IMO
          0 00013A  E380 0000 0000  xent                 LNJ,B6   KNN$SEND
          0 00013D       0003                            DC       s:8346,PREL
          0 00013E  0F81 001A                            B        s:8351,PREL

     2042     8345    4              WHENALTRETURN DO;

     2043     8346    4                   KN$TCTX.ERR = KN$NETPARM.ERRCODE; /* kn_err_norte, knt_no_ldct*/

PL6.E3A0      #005=KNT$SEND_4HOST File=KNT$SEND.:E05TSI                          WED 07/30/97 01:14 Page:316
   8346   0 000140  ECC7 0004                            LDB,B6   @KN$NETPARM,AUTO
          0 000142  E846 0016                            LDR,R6   22,B6
          0 000144  DCC7 0007                            LDB,B5   CTX$,AUTO
          0 000146  EAC5 000E                            SRM,R6,'00FF'X    14,B5
          0 000148       00FF

     2044     8347    4                   CALL KNT$RELBUF (FRAG$->FRAG_HDR, KN$TCTX);

   8347   0 000149  DFC7 001A                            STB,B5   K$TPDU_UN+6,AUTO
          0 00014B  CCC7 0009                            LDB,B4   FRAG$,AUTO
          0 00014D  CFC7 0018                            STB,B4   K$TPDU_UN+4,AUTO
          0 00014F  BBC7 0018                            LAB,B3   K$TPDU_UN+4,AUTO
          0 000151  CBF0 0200                            LAB,B4   512,IMO
          0 000153  E380 0000 0000  xent                 LNJ,B6   KNT$RELBUF
          0 000156       0001                            DC       s:8348,PREL

     2045     8348    4                   GOTO ABORT_CONNECT;

   8348   0 000157  0F81 FF99                            B        s:8315,PREL

     2046     8349    4                   END;
     2047     8350
     2048     8351    3              KN$NETPARM.LDCT$->KN$LDCT.RLCID.TCTX# = KN$TCTX.SRC_REF;

   8351   0 000159  ECC7 0004                            LDB,B6   @KN$NETPARM,AUTO
          0 00015B  DC86                                 LDB,B5   ,B6
          0 00015C  CCC7 0007                            LDB,B4   CTX$,AUTO
          0 00015E  E844 0002                            LDR,R6   2,B4
          0 000160  EF45 0002                            STR,R6   2,B5

     2049     8352    3              KN$TCTX.LDCTX# = KN$NETPARM.LDCT$->KN$LDCT.LDCTX;

   8352   0 000162  DC86                                 LDB,B5   ,B6
          0 000163  E845 0007                            LDR,R6   7,B5
          0 000165  EA84                                 SRM,R6,'00FF'X    ,B4
          0 000166       00FF

PL6.E3A0      #005=KNT$SEND_4HOST File=KNT$SEND.:E05TSI                          WED 07/30/97 01:14 Page:317
     2050     8353    3              END/*do if cons*/;

   8347   0                              BUFFER_REQUEST  null
     2051     8354
     2052     8355
     2053     8356        /* Store the TPDU_CR or TPDU_CC into the pre-allocated buffer.
     2054     8357        */
     2055     8358    2   BUFFER_REQUEST: ;
     2056     8359    2         FRAG_HDR.SEQ_SBIN = -1;

   8359   0 000167  8CF0 FFFF FFFF       BUFFER_REQUEST  LDI      -1,IMO
          0 00016A  ECC7 0009                            LDB,B6   FRAG$,AUTO
          0 00016C  8D46 0002                            SDI      2,B6

     2057     8360
     2058     8361    2         KN$TCTX.SEND_HEAD$ = FRAG$;

   8361   0 00016E  ECC7 0009                            LDB,B6   FRAG$,AUTO
          0 000170  DCC7 0007                            LDB,B5   CTX$,AUTO
          0 000172  EFC5 003A                            STB,B6   58,B5

     2059     8362    2         KN$TCTX.SEND_TAIL$ = FRAG$;

   8362   0 000174  EFC5 003C                            STB,B6   60,B5

     2060     8363
     2061     8364    2         FRAG$ = PINCRW(FRAG$, SIZEW(FRAG_HDR) );

   8364   0 000176  CBC6 0008                            LAB,B4   8,B6
          0 000178  CFC7 0009                            STB,B4   FRAG$,AUTO

     2062     8365    2         FRAG$->B$TPDU = KN$NETPARM.THDR_C$->B$TPDU;

   8365   0 00017A  BCC7 0004                            LDB,B3   @KN$NETPARM,AUTO
          0 00017C  8CC3 000B                            LDI      11,B3
          0 00017E  B856                                 LDR,R3   R6
          0 00017F  E570 7FFF                            AND,R6   32767,IMO
PL6.E3A0      #005=KNT$SEND_4HOST File=KNT$SEND.:E05TSI                          WED 07/30/97 01:14 Page:318
          0 000181  8D47 0018                            SDI      K$TPDU_UN+4,AUTO
          0 000183  ACC7 0018                            LDB,B2   K$TPDU_UN+4,AUTO
          0 000185  304F                                 SOR,R3   15
          0 000186  A853                                 LDR,R2   R3
          0 000187  E847 000B                            LDR,R6   THDRSZ,AUTO
          0 000189  BB84                                 LAB,B3   ,B4
          0 00018A  3C00                                 LDV,R3   0
          0 00018B  0008                                 MMM

     2063     8366
     2064     8367        /* If class 4, start the retransmission timer.
     2065     8368        */
     2066     8369    2         IF KN$TCTX.CLASS = 4

   8369   0 00018C  ECC7 0007                            LDB,B6   CTX$,AUTO
          0 00018E  E2C6 0005                            LLH,R6   5,B6
          0 000190  6D04                                 CMV,R6   4
          0 000191  0981 000D                            BNE      s:8378,PREL

     2067     8370    3         THEN DO;

     2068     8371    3              CALL GHS$SET_TMR (KN$TCTX.TMR_RETRAN);

   8371   0 000193  DBC6 0050                            LAB,B5   80,B6
          0 000195  DFC7 0018                            STB,B5   K$TPDU_UN+4,AUTO
          0 000197  BBC7 0018                            LAB,B3   K$TPDU_UN+4,AUTO
          0 000199  CBF0 0100                            LAB,B4   256,IMO
          0 00019B  E380 0000 0000  xent                 LNJ,B6   GHS$SET_TMR
          0 00019E       0001                            DC       s:8378,PREL

     2069     8372    3              END;

     2070     8373
     2071     8374        /* If Connectionless network, return to network to forward the tpdu.
     2072     8375           If Connection oriented, altreturn to network to avoid sending the tpdu_cr.
     2073     8376           It will eventually be sent when we get a K_NCONNECT_CFM.
     2074     8377        */
PL6.E3A0      #005=KNT$SEND_4HOST File=KNT$SEND.:E05TSI                          WED 07/30/97 01:14 Page:319
     2075     8378    2         IF KN$TCTX.OPTION.CONS

   8378   0 00019F  ECC7 0007                            LDB,B6   CTX$,AUTO
          0 0001A1  82C6 000C                            LB,'0020'X        12,B6
          0 0001A3       0020
          0 0001A4  0501 FF5C                            BBT      s:8320,PREL

     2076     8379    2         THEN GOTO MSG_COMPLETE/*to knn$recv to avoid sending twice*/;
     2077     8380    2         ELSE RETURN/*to knn$recv to forward host's tpdu_cr*/;

   8380   0 0001A6  C380 0000 0000  xent                 LNJ,B4   X6A_ARET

     2078     8381
     2079     8382        %EJECT;
PL6.E3A0      #005=KNT$SEND_4HOST File=KNT$SEND.:E05TSI                          WED 07/30/97 01:14 Page:320
     2080     8383
     2081     8384        /*   KNT$SEND_4HOST   -   TPDU_CC
     2082     8385
     2083     8386           If the TPDU is a Connect Confirm, the secondary Transport Context
     2084     8387           Block is updated by an entry into KNT$RECV.
     2085     8388           If using Connection Oriented Network, we forward it by calling KNH$SEND.
     2086     8389        */
     2087     8390    2       CASE(%K_TPDU_TYPE_CC);

     2088     8391    2         IF KN$TCTX.STATE ~= %K_TSTATE_WFTRESP

   8391   0 0001A9  CCC7 0007                            LDB,B4   CTX$,AUTO
          0 0001AB  D284                                 LLH,R5   ,B4
          0 0001AC  5D06                                 CMV,R5   6
          0 0001AD  0901 0044                            BE       s:8415,PREL

     2089     8392    3         THEN DO;

     2090     8393    3              KN$NETPARM.THDRSZ = %K_ERROR_BAD_TSTATE;

   8393   0 0001AF  E870 00E0                            LDR,R6   224,IMO
          0 0001B1  EF46 000D                            STR,R6   13,B6

     2091     8394    3              CALL KNT$TR_ERROR(KN$NETPARM);

   8394   0 0001B3  BBC7 0004                            LAB,B3   @KN$NETPARM,AUTO
          0 0001B5  CBF0 0100                            LAB,B4   256,IMO
          0 0001B7  E380 0000 0000  xent                 LNJ,B6   KNT$TR_ERROR
          0 0001BA       0001                            DC       s:8396,PREL

     2092     8395
     2093     8396    3              K$TPDU_DR.LI = SIZEC(K$TPDU_DR) -1;

   8396   0 0001BB  6C07                                 LDV,R6   7
          0 0001BC  E7C7 000D                            STH,R6   K$TPDU_DR,AUTO

     2094     8397    3              K$TPDU_DR.TYPE = %K_TPDU_TYPE_DR;
PL6.E3A0      #005=KNT$SEND_4HOST File=KNT$SEND.:E05TSI                          WED 07/30/97 01:14 Page:321

   8397   0 0001BE  D870 0080                            LDR,R5   128,IMO
          0 0001C0  DAC7 000D                            SRM,R5,'00F0'X    K$TPDU_DR,AUTO
          0 0001C2       00F0

     2095     8398    3              K$TPDU_DR.DST_REF = B$TPDU_CR.SRC_REF;

   8398   0 0001C3  ECC7 0004                            LDB,B6   @KN$NETPARM,AUTO
          0 0001C5  DCC6 000B                            LDB,B5   11,B6
          0 0001C7  C845 0002                            LDR,R4   2,B5
          0 0001C9  CF47 000E                            STR,R4   K$TPDU_DR+1,AUTO

     2096     8399    3              K$TPDU_DR.SRC_REF = B$TPDU_CR.DST_REF;

   8399   0 0001CB  DCC6 000B                            LDB,B5   11,B6
          0 0001CD  B845 0001                            LDR,R3   1,B5
          0 0001CF  BF47 000F                            STR,R3   K$TPDU_DR+2,AUTO

     2097     8400    3              K$TPDU_DR.REASON = %K_ERROR_BAD_TSTATE;

   8400   0 0001D1  A870 00E0                            LDR,R2   224,IMO
          0 0001D3  A7C7 0010                            STH,R2   K$TPDU_DR+3,AUTO

     2098     8401
     2099     8402    3              KN$NETPARM.THDRSZ = SIZEC(K$TPDU_DR);

   8402   0 0001D5  1C08                                 LDV,R1   8
          0 0001D6  9F46 000D                            STR,R1   13,B6

     2100     8403    3              KN$NETPARM.THDR$ = ADDR(K$TPDU_DR);

   8403   0 0001D8  DBC7 000D                            LAB,B5   K$TPDU_DR,AUTO
          0 0001DA  DFC6 000B                            STB,B5   11,B6

     2101     8404    3              KN$NETPARM.NODE = KN$TCTX.HOST_NODE;

   8404   0 0001DC  CCC7 0007                            LDB,B4   CTX$,AUTO
PL6.E3A0      #005=KNT$SEND_4HOST File=KNT$SEND.:E05TSI                          WED 07/30/97 01:14 Page:322
          0 0001DE  C2C4 0004                            LLH,R4   4,B4
          0 0001E0  CF46 0015                            STR,R4   21,B6

     2102     8405
     2103     8406    3              KN$NETPARM.MSGSZ = 0;

   8406   0 0001E2  8746 0004                            CL       4,B6

     2104     8407    3              KN$NETPARM.UHDRSZ = 0;

   8407   0 0001E4  8746 0007                            CL       7,B6

     2105     8408    3              KN$NETPARM.SHDRSZ = 0;

   8408   0 0001E6  8746 000A                            CL       10,B6

     2106     8409
     2107     8410    3              CALL KNN$SEND(KN$NETPARM);

   8410   0 0001E8  BBC7 0004                            LAB,B3   @KN$NETPARM,AUTO
          0 0001EA  CBF0 0100                            LAB,B4   256,IMO
          0 0001EC  E380 0000 0000  xent                 LNJ,B6   KNN$SEND
          0 0001EF       0001                            DC       s:8412,PREL

     2108     8411
     2109     8412    3              GOTO MSG_COMPLETE;

   8412   0 0001F0  0F81 FF10                            B        s:8320,PREL

     2110     8413    3              END;
     2111     8414
     2112     8415    2         KN$TCTX.HOST_REF = B$TPDU_CR.SRC_REF;

   8415   0 0001F2  C845 0002                            LDR,R4   2,B5
          0 0001F4  CF44 0003                            STR,R4   3,B4

     2113     8416
PL6.E3A0      #005=KNT$SEND_4HOST File=KNT$SEND.:E05TSI                          WED 07/30/97 01:14 Page:323
     2114     8417    2         IF KN$TCTX.CLASS = 0

   8417   0 0001F6  E2C4 0005                            LLH,R6   5,B4
          0 0001F8  6981 0007                            BNEZ,R6  s:8421,PREL

     2115     8418    2         THEN B$TPDU_CR.CDT = 0;

   8418   0 0001FA  DCC6 000B                            LDB,B5   11,B6
          0 0001FC  8805                                 LBF,'000F'X       ,B5
          0 0001FD       000F
          0 0001FE  0F81 0035                            B        s:8435,PREL

     2116     8419
     2117     8420    3         ELSE DO;                          /*for classes 2 and 4                 */

     2118     8421    3              IF KN$TCTX.RCV_WINDOW_SZ > 15

   8421   0 000200  B844 0005                            LDR,R3   5,B4
          0 000202  B570 00FF                            AND,R3   255,IMO
          0 000204  3D0F                                 CMV,R3   15
          0 000205  0381 0007                            BLE      s:8423,PREL

     2119     8422    3              THEN B$TPDU_CR.CDT = 15;

   8422   0 000207  DCC6 000B                            LDB,B5   11,B6
          0 000209  8905                                 LBT,'000F'X       ,B5
          0 00020A       000F
          0 00020B  0F81 0007                            B        s:8425,PREL

     2120     8423    3              ELSE B$TPDU_CR.CDT = KN$TCTX.RCV_WINDOW_SZ;

   8423   0 00020D  DCC6 000B                            LDB,B5   11,B6
          0 00020F  A844 0005                            LDR,R2   5,B4
          0 000211  AA85                                 SRM,R2,'000F'X    ,B5
          0 000212       000F

     2121     8424
PL6.E3A0      #005=KNT$SEND_4HOST File=KNT$SEND.:E05TSI                          WED 07/30/97 01:14 Page:324
     2122     8425    3              IF KN$TCTX.CLASS = 4

   8425   0 000213  E2C4 0005                            LLH,R6   5,B4
          0 000215  6D04                                 CMV,R6   4
          0 000216  0981 001D                            BNE      s:8435,PREL

     2123     8426    4              THEN DO;

     2124     8427    4                   CALL KNT$GET_SBUF(THDRSZ,FRAG$,KN$TCTX)

   8427   0 000218  CFC7 001C                            STB,B4   K$TPDU_UN+8,AUTO
          0 00021A  DBC7 0009                            LAB,B5   FRAG$,AUTO
          0 00021C  DFC7 001A                            STB,B5   K$TPDU_UN+6,AUTO
          0 00021E  BBC7 000B                            LAB,B3   THDRSZ,AUTO
          0 000220  BFC7 0018                            STB,B3   K$TPDU_UN+4,AUTO
          0 000222  BBC7 0018                            LAB,B3   K$TPDU_UN+4,AUTO
          0 000224  CBF0 0300                            LAB,B4   768,IMO
          0 000226  E380 0000 0000  xent                 LNJ,B6   KNT$GET_SBUF
          0 000229       0003                            DC       s:8429,PREL
          0 00022A  0F81 0009                            B        s:8435,PREL

     2125     8428    5                   WHENALTRETURN DO;

     2126     8429    5                        KN$NETPARM.ERRCODE = %KN_ERR_NOQ2;

   8429   0 00022C  ECC7 0004                            LDB,B6   @KN$NETPARM,AUTO
          0 00022E  6C07                                 LDV,R6   7
          0 00022F  EF46 0016                            STR,R6   22,B6

     2127     8430    5                        ALTRETURN;         /*leave on coupler cq                 */

   8430   0 000231  C380 0000 0000  xent                 LNJ,B4   X6A_AALT

     2128     8431    5                        END;
     2129     8432    4                   END;

     2130     8433    3              END;
PL6.E3A0      #005=KNT$SEND_4HOST File=KNT$SEND.:E05TSI                          WED 07/30/97 01:14 Page:325

     2131     8434
     2132     8435    2         KN$TCTX.STATE = %K_TSTATE_WFCC;   /*fake out send_cr_4host*/

   8435   0 000234  6C03                                 LDV,R6   3
          0 000235  ECC7 0007                            LDB,B6   CTX$,AUTO
          0 000237  E786                                 STH,R6   ,B6

     2133     8436
     2134     8437    2         CALL KNT$SEND_CR_4HOST(KN$NETPARM)

   8437   0 000238  BBC7 0004                            LAB,B3   @KN$NETPARM,AUTO
          0 00023A  CBF0 0100                            LAB,B4   256,IMO
          0 00023C  E380 0000 0000  xent                 LNJ,B6   KNT$SEND_CR_4HOST
          0 00023F       0003                            DC       s:8439,PREL
          0 000240  0F81 0003                            B        s:8442,PREL

     2135     8438    3         WHENALTRETURN DO;

     2136     8439    3              GOTO FORCE_SCREECH;

   8439   0 000242  0F81 01AB                            B        s:8645,PREL

     2137     8440    3              END;
     2138     8441
     2139     8442    2         IF KN$TCTX.OPTION.CONS

   8442   0 000244  ECC7 0007                            LDB,B6   CTX$,AUTO
          0 000246  82C6 000C                            LB,'0020'X        12,B6
          0 000248       0020
          0 000249  0581 003A                            BBF      s:8464,PREL

     2140     8443    3         THEN DO;

     2141     8444    3              KN$NETPARM.LDCT$ = KN$LDCT$(KN$TCTX.LDCTX#);

   8444   0 00024B  B806                                 LDR,R3   ,B6
PL6.E3A0      #005=KNT$SEND_4HOST File=KNT$SEND.:E05TSI                          WED 07/30/97 01:14 Page:326
          0 00024C  B570 00FF                            AND,R3   255,IMO
          0 00024E  DC80 0000 0000  xsym                 LDB,B5   KN_DCT$$
          0 000251  CCB5                                 LDB,B4   ,B5,R3
          0 000252  BCC7 0004                            LDB,B3   @KN$NETPARM,AUTO
          0 000254  CF83                                 STB,B4   ,B3

     2142     8445    3              KN$NETPARM.FUNCTION = %KN_FCN_DATA;

   8445   0 000255  6C05                                 LDV,R6   5
          0 000256  EF43 0014                            STR,R6   20,B3

     2143     8446    3              KN$NETPARM.NHDR$ = ADDR(NIL);

   8446   0 000258  DB80 0000 0000                       LAB,B5   0
          0 00025B  DFC3 000E                            STB,B5   14,B3

     2144     8447    3              KN$NETPARM.NHDRSZ = 0;

   8447   0 00025D  8743 0010                            CL       16,B3

     2145     8448    3              KN$NETPARM.SHDRSZ = 0;

   8448   0 00025F  8743 000A                            CL       10,B3

     2146     8449    3              KN$NETPARM.UHDRSZ = 0;

   8449   0 000261  8743 0007                            CL       7,B3

     2147     8450    3              KN$NETPARM.MSGSZ = 0;

   8450   0 000263  8743 0004                            CL       4,B3

     2148     8451
     2149     8452    3              CALL KNT$TR_SEND(KN$NETPARM);

   8452   0 000265  BBC7 0004                            LAB,B3   @KN$NETPARM,AUTO
          0 000267  CBF0 0100                            LAB,B4   256,IMO
PL6.E3A0      #005=KNT$SEND_4HOST File=KNT$SEND.:E05TSI                          WED 07/30/97 01:14 Page:327
          0 000269  E380 0000 0000  xent                 LNJ,B6   KNT$TR_SEND
          0 00026C       0001                            DC       s:8454,PREL

     2150     8453
     2151     8454    3              CALL KNH$SEND(KN$NETPARM)

   8454   0 00026D  BBC7 0004                            LAB,B3   @KN$NETPARM,AUTO
          0 00026F  CBF0 0100                            LAB,B4   256,IMO
          0 000271  E380 0000 0000  xent                 LNJ,B6   KNH$SEND
          0 000274       0003                            DC       s:8456,PREL
          0 000275  0F81 0004                            B        s:8459,PREL

     2152     8455    4              WHENALTRETURN DO;

     2153     8456    4                   ALTRETURN; /*N* change hdr so nw wont call again */

   8456   0 000277  C380 0000 0000  xent                 LNJ,B4   X6A_AALT

     2154     8457    4                   END;
     2155     8458
     2156     8459    3              IF KN$TCTX.CLASS = 4

   8459   0 00027A  ECC7 0007                            LDB,B6   CTX$,AUTO
          0 00027C  E2C6 0005                            LLH,R6   5,B6
          0 00027E  6D04                                 CMV,R6   4
          0 00027F  0901 FEE7                            BE       s:8353,PREL

     2157     8460    3              THEN GOTO BUFFER_REQUEST;
     2158     8461    3              ALTRETURN;                   /*so knn doesn't also forward message */

   8461   0 000281  C380 0000 0000  xent                 LNJ,B4   X6A_AALT

     2159     8462    3              END/*cons   */;
     2160     8463
     2161     8464    2         IF KN$TCTX.OPTION.OSI

   8464   0 000284  82C6 000C                            LB,'0010'X        12,B6
PL6.E3A0      #005=KNT$SEND_4HOST File=KNT$SEND.:E05TSI                          WED 07/30/97 01:14 Page:328
   8464   0 000286       0010
          0 000287  0581 000E                            BBF      s:8471,PREL

     2162     8465    3         THEN DO;

     2163     8466    3              KN$NETPARM.FUNCTION = %K_NDATA;

   8466   0 000289  DCC7 0004                            LDB,B5   @KN$NETPARM,AUTO
          0 00028B  6C21                                 LDV,R6   33
          0 00028C  EF45 0014                            STR,R6   20,B5

     2164     8467    3              KN$NETPARM.SRC_ADDR$ = ADDR(KN$TCTX.SRC_NSAP);

   8467   0 00028E  CBC6 009A                            LAB,B4   154,B6
          0 000290  CFC5 001D                            STB,B4   29,B5

     2165     8468    3              KN$NETPARM.DST_ADDR$ = ADDR(KN$TCTX.DST_NSAP);

   8468   0 000292  BBC6 00A5                            LAB,B3   165,B6
          0 000294  BFC5 001F                            STB,B3   31,B5

     2166     8469    3              END;

     2167     8470
     2168     8471    2         IF KN$TCTX.CLASS = 4

   8471   0 000296  E2C6 0005                            LLH,R6   5,B6
          0 000298  6D04                                 CMV,R6   4
          0 000299  0901 FECD                            BE       s:8353,PREL

     2169     8472    2         THEN GOTO BUFFER_REQUEST;
     2170     8473    2         ELSE RETURN;                 /*to knn$recv to forward host's tpdu_cc*/

   8473   0 00029B  C380 0000 0000  xent                 LNJ,B4   X6A_ARET

     2171     8474
     2172     8475        %EJECT;
PL6.E3A0      #005=KNT$SEND_4HOST File=KNT$SEND.:E05TSI                          WED 07/30/97 01:14 Page:329
     2173     8476
     2174     8477        /*   KNT$SEND_4HOST   -   TPDU_DR
     2175     8478
     2176     8479           If the TPDU is a Disconnect Request, OSI session on the host has
     2177     8480           requested T_DISCONNECT_REQ.
     2178     8481
     2179     8482           A call to the special entry point in KNT$RECV simply decodes
     2180     8483           the parmaeters and stores them in the TCTX.
     2181     8484        */
     2182     8485
     2183     8486    2       CASE(%K_TPDU_TYPE_DR);

     2184     8487
     2185     8488    2         IF B$TPDU_DR.DST_REF = 0

   8488   0 00029E  D845 0001                            LDR,R5   1,B5
          0 0002A0  5981 003A                            BNEZ,R5  s:8502,PREL

     2186     8489    3         THEN DO/*connection not yet open*/;

     2187     8490    4              DO ITEMP1 = 1 TO KN_TCTX_MAX#;

   8490   0 0002A2  4C01                                 LDV,R4   1
          0 0002A3  CF47 0006                            STR,R4   ITEMP1,AUTO
          0 0002A5  0F81 002E                            B        s:8501+2,PREL

     2188     8491    4                   IF KN$TCTX$(ITEMP1) ~= ADDR(NIL)

   8491   0 0002A7  EC80 0000 0000  xsym                 LDB,B6   KN_TCTX$$
          0 0002AA  B847 0006                            LDR,R3   ITEMP1,AUTO
          0 0002AC  8DB6                                 CMN      ,B6,R3
          0 0002AD  0901 0024                            BE       s:8501,PREL

     2189     8492    5                   THEN DO;

     2190     8493    5                        IF KN$TCTX$(ITEMP1)->KN$TCTX.HOST_NODE = B$NHDR.SOURCE_NODE -1

PL6.E3A0      #005=KNT$SEND_4HOST File=KNT$SEND.:E05TSI                          WED 07/30/97 01:14 Page:330
   8493   0 0002AF  DCB6                                 LDB,B5   ,B6,R3
          0 0002B0  CCC7 0004                            LDB,B4   @KN$NETPARM,AUTO
          0 0002B2  BCC4 000E                            LDB,B3   14,B4
          0 0002B4  E2C5 0004                            LLH,R6   4,B5
          0 0002B6  D843 0001                            LDR,R5   1,B3
          0 0002B8  D570 00FF                            AND,R5   255,IMO
          0 0002BA  5EFF                                 ADV,R5   -1
          0 0002BB  E955                                 CMR,R6   R5
          0 0002BC  0981 0015                            BNE      s:8501,PREL
          0 0002BE  ACC4 000B                            LDB,B2   11,B4
          0 0002C0  C845 0003                            LDR,R4   3,B5
          0 0002C2  C942 0002                            CMR,R4   2,B2
          0 0002C4  0981 000D                            BNE      s:8501,PREL

     2191     8494    5                          AND KN$TCTX$(ITEMP1)->KN$TCTX.HOST_REF = B$TPDU_DR.SRC_REF
     2192     8495    6                        THEN DO;

     2193     8496    6                             B$TPDU_DR.DST_REF = KN$TCTX$(ITEMP1)->KN$TCTX.SRC_REF;

   8496   0 0002C6  A845 0002                            LDR,R2   2,B5
          0 0002C8  AF42 0001                            STR,R2   1,B2

     2194     8497    6                             CTX$ = KN$TCTX$(ITEMP1);

   8497   0 0002CA  EC80 0000 0000  xsym                 LDB,B6   KN_TCTX$$
          0 0002CD  DCB6                                 LDB,B5   ,B6,R3
          0 0002CE  DFC7 0007                            STB,B5   CTX$,AUTO

     2195     8498    6                             GOTO DECODE_TPDU_DR;

   8498   0 0002D0  0F81 000A                            B        s:8502,PREL

     2196     8499    6                             END;
     2197     8500    5                        END/*do if ctx$ not nil*/;
     2198     8501    4                   END/*do while*/;

   8501   0 0002D2  8AC7 0006                            INC      ITEMP1,AUTO
PL6.E3A0      #005=KNT$SEND_4HOST File=KNT$SEND.:E05TSI                          WED 07/30/97 01:14 Page:331
          0 0002D4  E847 0006                            LDR,R6   ITEMP1,AUTO
          0 0002D6  6851                                 BLZ,R6   s:8491,SPREL
          0 0002D7  E900 0000 0000  xsym                 CMR,R6   KN_TCTX_MAX#
          0 0002DA  03CD                                 BLE      s:8491,SPREL

     2199     8502    3              END/*do if .dst_ref 0*/;

     2200     8503
     2201     8504    2   DECODE_TPDU_DR:
     2202     8505    2         CALL KNT$SEND_CR_4HOST(KN$NETPARM)

   8505   0 0002DB  BBC7 0004            DECODE_TPDU_DR  LAB,B3   @KN$NETPARM,AUTO
          0 0002DD  CBF0 0100                            LAB,B4   256,IMO
          0 0002DF  E380 0000 0000  xent                 LNJ,B6   KNT$SEND_CR_4HOST
          0 0002E2       0003                            DC       s:8507,PREL
          0 0002E3  0F81 0004                            B        s:8510,PREL

     2203     8506    3         WHENALTRETURN DO;

     2204     8507    3              ALTRETURN;

   8507   0 0002E5  C380 0000 0000  xent                 LNJ,B4   X6A_AALT

     2205     8508    3              END;
     2206     8509
     2207     8510    2         IF KN$TCTX.STATE = %K_TSTATE_WFTRESP

   8510   0 0002E8  ECC7 0007                            LDB,B6   CTX$,AUTO
          0 0002EA  E286                                 LLH,R6   ,B6
          0 0002EB  6D06                                 CMV,R6   6
          0 0002EC  0981 0017                            BNE      s:8519,PREL

     2208     8511    3         THEN DO;

     2209     8512    3              ITEMP1 = KN$TCTX.SRC_REF;

   8512   0 0002EE  D846 0002                            LDR,R5   2,B6
PL6.E3A0      #005=KNT$SEND_4HOST File=KNT$SEND.:E05TSI                          WED 07/30/97 01:14 Page:332
          0 0002F0  DF47 0006                            STR,R5   ITEMP1,AUTO

     2210     8513    3              KN$TCTX.SRC_REF = 0;

   8513   0 0002F2  8746 0002                            CL       2,B6

     2211     8514    3              CALL KNT$SEND_DR(KN$NETPARM);

   8514   0 0002F4  BBC7 0004                            LAB,B3   @KN$NETPARM,AUTO
          0 0002F6  CBF0 0100                            LAB,B4   256,IMO
          0 0002F8  E380 0000 0000  xent                 LNJ,B6   KNT$SEND_DR
          0 0002FB       0001                            DC       s:8515,PREL

     2212     8515    3              KN$TCTX.SRC_REF = ITEMP1;

   8515   0 0002FC  ECC7 0007                            LDB,B6   CTX$,AUTO
          0 0002FE  E847 0006                            LDR,R6   ITEMP1,AUTO
          0 000300  EF46 0002                            STR,R6   2,B6

     2213     8516    3              GOTO SET_REFWAIT;

   8516   0 000302  0F81 0030                            B        s:8540,PREL

     2214     8517    3              END;
     2215     8518
     2216     8519    2         IF KN$TCTX.STATE = %K_TSTATE_WFNC

   8519   0 000304  6D09                                 CMV,R6   9
          0 000305  0901 0038                            BE       s:8545,PREL

     2217     8520    2         THEN GOTO TERM_VC;
     2218     8521
     2219     8522    2         IF KN$TCTX.STATE = %K_TSTATE_WFCC

   8522   0 000307  6D03                                 CMV,R6   3
          0 000308  0981 003A                            BNE      s:8552,PREL

PL6.E3A0      #005=KNT$SEND_4HOST File=KNT$SEND.:E05TSI                          WED 07/30/97 01:14 Page:333
     2220     8523    3         THEN DO;

     2221     8524    3              IF KN$TCTX.CLASS = 0

   8524   0 00030A  D2C6 0005                            LLH,R5   5,B6
          0 00030C  5981 0031                            BNEZ,R5  s:8545,PREL

     2222     8525    4              THEN DO;

     2223     8526    4   SEND_TERM:
     2224     8527    4                   KN$NETPARM.UHDRSZ = 0;

   8527   0 00030E  ECC7 0004            SEND_TERM       LDB,B6   @KN$NETPARM,AUTO
          0 000310  8746 0007                            CL       7,B6

     2225     8528    4                   KN$NETPARM.THDRSZ = 0;

   8528   0 000312  8746 000D                            CL       13,B6

     2226     8529    4                   KN$NETPARM.NHDRSZ = 0;

   8529   0 000314  8746 0010                            CL       16,B6

     2227     8530    4                   KN$NETPARM.FUNCTION = %KN_FCN_TERM;

   8530   0 000316  6C03                                 LDV,R6   3
          0 000317  EF46 0014                            STR,R6   20,B6

     2228     8531    4                   KN$NETPARM.LDCT$ = KN$LDCT$(KN$TCTX.LDCTX#);

   8531   0 000319  DCC7 0007                            LDB,B5   CTX$,AUTO
          0 00031B  B805                                 LDR,R3   ,B5
          0 00031C  B570 00FF                            AND,R3   255,IMO
          0 00031E  CC80 0000 0000  xsym                 LDB,B4   KN_DCT$$
          0 000321  BCB4                                 LDB,B3   ,B4,R3
          0 000322  BF86                                 STB,B3   ,B6

PL6.E3A0      #005=KNT$SEND_4HOST File=KNT$SEND.:E05TSI                          WED 07/30/97 01:14 Page:334
     2229     8532
     2230     8533    4                   CALL KNH$SEND(KN$NETPARM)

   8533   0 000323  BBC7 0004                            LAB,B3   @KN$NETPARM,AUTO
          0 000325  CBF0 0100                            LAB,B4   256,IMO
          0 000327  E380 0000 0000  xent                 LNJ,B6   KNH$SEND
          0 00032A       0003                            DC       s:8535,PREL
          0 00032B  0F81 0007                            B        s:8540,PREL

     2231     8534    5                   WHENALTRETURN DO;

     2232     8535    5                        ERRNUM = %K_ERROR_NETWORK;

   8535   0 00032D  E870 00F9                            LDR,R6   249,IMO
          0 00032F  EF47 000C                            STR,R6   ERRNUM,AUTO

     2233     8536    5                        GOTO SCREECH_CHECK;

   8536   0 000331  0F81 00B7                            B        s:8644,PREL

     2234     8537    5                        END;
     2235     8538
     2236     8539    4   SET_REFWAIT:
     2237     8540    4                   CALL KNT$SET_REFWAIT(KN$TCTX);

   8540   0 000333  BBC7 0007            SET_REFWAIT     LAB,B3   CTX$,AUTO
          0 000335  CBF0 0100                            LAB,B4   256,IMO
          0 000337  E380 0000 0000  xent                 LNJ,B6   KNT$SET_REFWAIT
          0 00033A       0001                            DC       s:8542,PREL

     2238     8541
     2239     8542    4                   ALTRETURN;              /*so knn$recv won't forward same msg*/

   8542   0 00033B  C380 0000 0000  xent                 LNJ,B4   X6A_AALT

     2240     8543    4                   END/*do if class 0 */;
     2241     8544
PL6.E3A0      #005=KNT$SEND_4HOST File=KNT$SEND.:E05TSI                          WED 07/30/97 01:14 Page:335
     2242     8545    4              ELSE DO;

     2243     8546    4   TERM_VC:
     2244     8547    4                   KN$TCTX.STATE = %K_TSTATE_WBCL;

   8547   0 00033E  5C04                 TERM_VC         LDV,R5   4
          0 00033F  D786                                 STH,R5   ,B6

     2245     8548    4                   ALTRETURN;

   8548   0 000340  C380 0000 0000  xent                 LNJ,B4   X6A_AALT

     2246     8549    4                   END/*do if class 2 or 4*/;
     2247     8550    3              END/*do if WFCC*/;
     2248     8551
     2249     8552    2         IF KN$TCTX.CLASS = 0

   8552   0 000343  D2C6 0005                            LLH,R5   5,B6
          0 000345  5949                                 BEZ,R5   s:8525,SPREL

     2250     8553    2         THEN GOTO SEND_TERM;
     2251     8554
     2252     8555    2         IF KN$TCTX.STATE = %K_TSTATE_OPEN

   8555   0 000346  6D05                                 CMV,R6   5
          0 000347  0981 0041                            BNE      s:8574,PREL

     2253     8556    3         THEN DO;

     2254     8557    3              IF KN$TCTX.CLASS = 2

   8557   0 000349  5D02                                 CMV,R5   2
          0 00034A  0901 002F                            BE       s:8567,PREL

     2255     8558    3              THEN GOTO SET_CLOSING;
     2256     8559
     2257     8560    3              IF KN$TCTX.CLASS = 4
PL6.E3A0      #005=KNT$SEND_4HOST File=KNT$SEND.:E05TSI                          WED 07/30/97 01:14 Page:336

   8560   0 00034C  5D04                                 CMV,R5   4
          0 00034D  0981 002C                            BNE      s:8567,PREL

     2258     8561    4              THEN DO;

     2259     8562    4                   CALL GHS$CANCEL_TMR (KN$TCTX.TMR_WINDOW);

   8562   0 00034F  DBC6 005A                            LAB,B5   90,B6
          0 000351  DFC7 0018                            STB,B5   K$TPDU_UN+4,AUTO
          0 000353  BBC7 0018                            LAB,B3   K$TPDU_UN+4,AUTO
          0 000355  CBF0 0100                            LAB,B4   256,IMO
          0 000357  E380 0000 0000  xent                 LNJ,B6   GHS$CANCEL_TMR
          0 00035A       0001                            DC       s:8563,PREL

     2260     8563    4                   CALL GHS$CANCEL_TMR (KN$TCTX.TMR_INACTIVITY);

   8563   0 00035B  ECC7 0007                            LDB,B6   CTX$,AUTO
          0 00035D  DBC6 0064                            LAB,B5   100,B6
          0 00035F  DFC7 0018                            STB,B5   K$TPDU_UN+4,AUTO
          0 000361  BBC7 0018                            LAB,B3   K$TPDU_UN+4,AUTO
          0 000363  CBF0 0100                            LAB,B4   256,IMO
          0 000365  E380 0000 0000  xent                 LNJ,B6   GHS$CANCEL_TMR
          0 000368       0001                            DC       s:8565,PREL

     2261     8564    4   SET_RETRY:
     2262     8565    4                   KN$TCTX.SEND_RETRY_COUNT = 1;

   8565   0 000369  6C01                 SET_RETRY       LDV,R6   1
          0 00036A  ECC7 0007                            LDB,B6   CTX$,AUTO
          0 00036C  E7C6 004D                            STH,R6   77,B6

     2263     8566    4                   CALL GHS$SET_TMR (KN$TCTX.TMR_RETRAN);

   8566   0 00036E  DBC6 0050                            LAB,B5   80,B6
          0 000370  DFC7 0018                            STB,B5   K$TPDU_UN+4,AUTO
          0 000372  BBC7 0018                            LAB,B3   K$TPDU_UN+4,AUTO
PL6.E3A0      #005=KNT$SEND_4HOST File=KNT$SEND.:E05TSI                          WED 07/30/97 01:14 Page:337
          0 000374  CBF0 0100                            LAB,B4   256,IMO
          0 000376  E380 0000 0000  xent                 LNJ,B6   GHS$SET_TMR
          0 000379       0001                            DC       s:8567,PREL

     2264     8567    4                   END;

     2265     8568    3   SET_CLOSING:
     2266     8569    3              KN$TCTX.STATE = %K_TSTATE_CLOSING;

   8569   0 00037A  6C08                 SET_CLOSING     LDV,R6   8
          0 00037B  ECC7 0007                            LDB,B6   CTX$,AUTO
          0 00037D  E786                                 STH,R6   ,B6

     2267     8570    3              CALL KNT$SEND_DR(KN$NETPARM);

   8570   0 00037E  BBC7 0004                            LAB,B3   @KN$NETPARM,AUTO
          0 000380  CBF0 0100                            LAB,B4   256,IMO
          0 000382  E380 0000 0000  xent                 LNJ,B6   KNT$SEND_DR
          0 000385       0001                            DC       s:8571,PREL

     2268     8571    3              ALTRETURN;

   8571   0 000386  C380 0000 0000  xent                 LNJ,B4   X6A_AALT

     2269     8572    3              END;
     2270     8573
     2271     8574    2         IF (KN$TCTX.STATE = %K_TSTATE_AKWAIT) AND (KN$TCTX.CLASS = 4)

   8574   0 000389  6D07                                 CMV,R6   7
          0 00038A  0981 0003                            BNE      s:8576,PREL
          0 00038C  5D04                                 CMV,R5   4
          0 00038D  095C                                 BE       s:8565,SPREL

     2272     8575    2         THEN GOTO SET_RETRY;
     2273     8576    2         ELSE GOTO REPORT_BAD_TSTATE;

   8576   0 00038E  0F81 0056                            B        s:8636,PREL
PL6.E3A0      #005=KNT$SEND_4HOST File=KNT$SEND.:E05TSI                          WED 07/30/97 01:14 Page:338

     2274     8577
     2275     8578
     2276     8579        %EJECT;
PL6.E3A0      #005=KNT$SEND_4HOST File=KNT$SEND.:E05TSI                          WED 07/30/97 01:14 Page:339
     2277     8580
     2278     8581        /*   KNT$SEND_4HOST   -   TPDU_CP6
     2279     8582
     2280     8583           If the TPDU is a CP-6 Control tpdu, the action to be taken is
     2281     8584           dependent on the appended parameter code.
     2282     8585
     2283     8586           Currently the only parameters defined are for passing initial transport
     2284     8587           options (trace is the only current one) and for passing host OSI
     2285     8588           session credit information.
     2286     8589        */
     2287     8590
     2288     8591    2       CASE(%K_TPDU_TYPE_CP6);

     2289     8592    3         DO CASE(B$TPDU_CP6.P.CODE);

   8592   0 000390  92C5 0002                            LLH,R1   2,B5
          0 000392  1D03                                 CMV,R1   3
          0 000393  0281 0049                            BGE      s:8625,PREL
          0 000395  B810 0000 039B  00                   LDR,R3   s:8592+11,R1
          0 000398  83B0 0000 039E  00                   JMP      s:8595,R3
          0 00039B       003F                            DC       s:8625,PREL
          0 00039C       000E                            DC       s:8603,PREL
          0 00039D       0000                            DC       s:8595,PREL

     2290     8593
     2291     8594    3          CASE(%K_TPARM_CP6_OPTIONS);

     2292     8595    3            IF B$TPDU_CP6_OPT.LI ~= SIZEC(B$TPDU_CP6_OPT) -1

   8595   0 00039E  D285                                 LLH,R5   ,B5
          0 00039F  5D07                                 CMV,R5   7
          0 0003A0  0981 003E                            BNE      s:8631,PREL

     2293     8596    3            THEN GOTO BAD_TPDU;
     2294     8597
     2295     8598    3            KN$TCTX.OPTION.TRACE = B$TPDU_CP6_OPT.P.OPTION.TRACE;

PL6.E3A0      #005=KNT$SEND_4HOST File=KNT$SEND.:E05TSI                          WED 07/30/97 01:14 Page:340
   8598   0 0003A2  C845 0003                            LDR,R4   3,B5
          0 0003A4  CCC7 0007                            LDB,B4   CTX$,AUTO
          0 0003A6  CAC4 000C                            SRM,R4,'0040'X    12,B4
          0 0003A8       0040

     2296     8599
     2297     8600    3            ALTRETURN;                     /*so knn doesn't forward message      */

   8600   0 0003A9  C380 0000 0000  xent                 LNJ,B4   X6A_AALT

     2298     8601
     2299     8602    3          CASE(%K_TPARM_SSN_CRDT);

     2300     8603    3            IF KN$TCTX.OPTION.OSI = '0'B

   8603   0 0003AC  CCC7 0007                            LDB,B4   CTX$,AUTO
          0 0003AE  82C4 000C                            LB,'0010'X        12,B4
          0 0003B0       0010
          0 0003B1  0581 002D                            BBF      s:8631,PREL

     2301     8604    3            THEN GOTO BAD_TPDU;
     2302     8605
     2303     8606    3            IF B$TPDU_CP6.LI ~= SIZEC(B$TPDU_CP6) -1

   8606   0 0003B3  D285                                 LLH,R5   ,B5
          0 0003B4  5D07                                 CMV,R5   7
          0 0003B5  0981 0029                            BNE      s:8631,PREL

     2304     8607    3            THEN GOTO BAD_TPDU;
     2305     8608
     2306     8609    3            KN$TCTX.SSN_CRDT = KN$TCTX.SSN_CRDT + B$TPDU_CP6.P.CREDIT;

   8609   0 0003B7  C844 004A                            LDR,R4   74,B4
          0 0003B9  CA45 0003                            ADD,R4   3,B5
          0 0003BB  CF44 004A                            STR,R4   74,B4

     2307     8610
PL6.E3A0      #005=KNT$SEND_4HOST File=KNT$SEND.:E05TSI                          WED 07/30/97 01:14 Page:341
     2308     8611    3            IF KN$TCTX.SSN_CRDT > 0

   8611   0 0003BD  4A81 000F                            BLEZ,R4  s:8617,PREL

     2309     8612    4            THEN DO;

     2310     8613    4                 IF KN$TCTX.RECV_HEAD$ ~= ADDR(NIL)

   8613   0 0003BF  8DC4 002A                            CMN      42,B4
          0 0003C1  0901 0018                            BE       s:8622,PREL

     2311     8614    4                 THEN CALL KNT$DSESSION(KN$NETPARM);

   8614   0 0003C3  BBC7 0004                            LAB,B3   @KN$NETPARM,AUTO
          0 0003C5  CBF0 0100                            LAB,B4   256,IMO
          0 0003C7  E380 0000 0000  xent                 LNJ,B6   KNT$DSESSION
          0 0003CA       0001                            DC       s:8615,PREL

     2312     8615    4                 END;

   8615   0 0003CB  0F81 000E                            B        s:8622,PREL

     2313     8616    4            ELSE DO;

     2314     8617    4                 K$TPDU_CP6_FLOW = '0'B;

   8617   0 0003CD  5C06                                 LDV,R5   6
          0 0003CE  0021                                 ALR      ;
          0 0003CF       4178 0000                                ALPHANUM('0000'X,IMO,,1),;
          0 0003D1       4007 0011                                ALPHANUM(K$TPDU_CP6_FLOW,AUTO,,R5,FILL)

     2315     8618    4                 K$TPDU_CP6_FLOW.P.CODE = %K_TPARM_SSN_CRDT_ACK;

   8618   0 0003D3  4C05                                 LDV,R4   5
          0 0003D4  437F                                 CSYNC    s:8618,SPREL
          0 0003D5  C7C7 0013                            STH,R4   K$TPDU_CP6_FLOW+2,AUTO

PL6.E3A0      #005=KNT$SEND_4HOST File=KNT$SEND.:E05TSI                          WED 07/30/97 01:14 Page:342
     2316     8619    4                 CALL I$RETURN_TPDU_CP6;

   8619   0 0003D7  E3C0 0030                            LNJ,B6   s:0,PREL
          0 0003D9       0001                            DC       s:8622,PREL

     2317     8620    4                 END;

     2318     8621
     2319     8622    3            ALTRETURN;                     /*so knn doesn't forward message      */

   8622   0 0003DA  C380 0000 0000  xent                 LNJ,B4   X6A_AALT

     2320     8623
     2321     8624    3          CASE(ELSE);

     2322     8625    3            GOTO FORCE_SCREECH;

   8625   0 0003DD  0F81 0010                            B        s:8645,PREL

     2323     8626
     2324     8627
     2325     8628    3            END/*do case(b$tpdu_cp6.parm.code)*/;

     2326     8629
     2327     8630        %EJECT;
PL6.E3A0      #005=KNT$SEND_4HOST File=KNT$SEND.:E05TSI                          WED 07/30/97 01:14 Page:343
     2328     8631    2       CASE(ELSE);

     2329     8632    2   BAD_TPDU:
     2330     8633    2         ERRNUM = %K_ERROR_TPDU_TYPE;

   8633   0 0003DF  D870 00E6            BAD_TPDU        LDR,R5   230,IMO
          0 0003E1  DF47 000C                            STR,R5   ERRNUM,AUTO

     2331     8634    2         GOTO SCREECH_CHECK;

   8634   0 0003E3  0F81 0005                            B        s:8644,PREL

     2332     8635
     2333     8636    2         END/*do case(function)*/;

     2334     8637
     2335     8638
     2336     8639
     2337     8640    1   REPORT_BAD_TSTATE:
     2338     8641    1      ERRNUM = %K_ERROR_BAD_TSTATE;

   8641   0 0003E5  C870 00E0            REPORT_BAD_TSTA*LDR,R4   224,IMO
          0 0003E7  CF47 000C                            STR,R4   ERRNUM,AUTO

     2339     8642
     2340     8643    1   SCREECH_CHECK:
     2341     8644    1      IF KNT_ERROR_SCREECH ~= 0

   8644   0 0003E9  E800 0000 0000  xsym SCREECH_CHECK   LDR,R6   KNT_ERROR_SCREECH
          0 0003EC  6901 000A                            BEZ,R6   s:8648,PREL

     2342     8645    2      THEN DO;

     2343     8646    2   FORCE_SCREECH:
     2344     8647    2           CALL SCREECH(KNT_SCODE);

   8647   0 0003EE  BB80 0000 0000  01   FORCE_SCREECH   LAB,B3   0
PL6.E3A0      #005=KNT$SEND_4HOST File=KNT$SEND.:E05TSI                          WED 07/30/97 01:14 Page:344
          0 0003F1  CBF0 0100                            LAB,B4   256,IMO
          0 0003F3  E380 0000 0000  xent                 LNJ,B6   SCREECH
          0 0003F6       0001                            DC       s:8648,PREL

     2345     8648    2           END;

     2346     8649
     2347     8650    1   LOG_ERR:
     2348     8651    1      KN$NETPARM.THDRSZ = ERRNUM;

   8651   0 0003F7  ECC7 0004            LOG_ERR         LDB,B6   @KN$NETPARM,AUTO
          0 0003F9  E847 000C                            LDR,R6   ERRNUM,AUTO
          0 0003FB  EF46 000D                            STR,R6   13,B6

     2349     8652    1      CALL KNT$TR_ERROR(KN$NETPARM);

   8652   0 0003FD  BBC7 0004                            LAB,B3   @KN$NETPARM,AUTO
          0 0003FF  CBF0 0100                            LAB,B4   256,IMO
          0 000401  E380 0000 0000  xent                 LNJ,B6   KNT$TR_ERROR
          0 000404       0001                            DC       s:8654,PREL

     2350     8653
     2351     8654    1      ALTRETURN;

   8654   0 000405  C380 0000 0000  xent                 LNJ,B4   X6A_AALT

     2352     8655        %EJECT;
PL6.E3A0      #005=KNT$SEND_4HOST File=KNT$SEND.:E05TSI                          WED 07/30/97 01:14 Page:345
     2353     8656
     2354     8657        /*   I$RETURN_TPDU_CP6
     2355     8658
     2356     8659           This subroutine returns a TPDU_CP6 to the host to either flow
     2357     8660           stop host session or acknowledge a zero credit TPDU_CP6.
     2358     8661        */
     2359     8662
     2360     8663    1   I$RETURN_TPDU_CP6: PROC;

   8663   0 000408  EFC7 0016            I$RETURN_TPDU_C*STB,B6   K$TPDU_UN+2,AUTO

     2361     8664    2      K$TPDU_CP6_FLOW.LI = SIZEC(K$TPDU_CP6_FLOW) -1;

   8664   0 00040A  6C05                                 LDV,R6   5
          0 00040B  E7C7 0011                            STH,R6   K$TPDU_CP6_FLOW,AUTO

     2362     8665    2      K$TPDU_CP6_FLOW.TYPE = %K_TPDU_TYPE_CP6;

   8665   0 00040D  8847 0011                            LBF,'00F0'X       K$TPDU_CP6_FLOW,AUTO
   8665   0 00040F       00F0

     2363     8666    2      K$TPDU_CP6_FLOW.DST_REF = KN$TCTX.HOST_REF;

   8666   0 000410  DCC7 0007                            LDB,B5   CTX$,AUTO
          0 000412  D845 0003                            LDR,R5   3,B5
          0 000414  DF47 0012                            STR,R5   K$TPDU_CP6_FLOW+1,AUTO

     2364     8667
     2365     8668    2      KN$NETPARM.MSGSZ = 0;

   8668   0 000416  CCC7 0004                            LDB,B4   @KN$NETPARM,AUTO
          0 000418  8744 0004                            CL       4,B4

     2366     8669    2      KN$NETPARM.UHDRSZ = 0;

   8669   0 00041A  8744 0007                            CL       7,B4

PL6.E3A0      #005=KNT$SEND_4HOST File=KNT$SEND.:E05TSI                          WED 07/30/97 01:14 Page:346
     2367     8670    2      KN$NETPARM.SHDRSZ = 0;

   8670   0 00041C  8744 000A                            CL       10,B4

     2368     8671    2      KN$NETPARM.THDRSZ = SIZEC(K$TPDU_CP6_FLOW);

   8671   0 00041E  5C06                                 LDV,R5   6
          0 00041F  DF44 000D                            STR,R5   13,B4

     2369     8672    2      KN$NETPARM.THDR$ = ADDR(K$TPDU_CP6_FLOW);

   8672   0 000421  EBC7 0011                            LAB,B6   K$TPDU_CP6_FLOW,AUTO
          0 000423  EFC4 000B                            STB,B6   11,B4

     2370     8673    2      KN$NETPARM.NODE = KN$TCTX.HOST_NODE;

   8673   0 000425  C2C5 0004                            LLH,R4   4,B5
          0 000427  CF44 0015                            STR,R4   21,B4

     2371     8674
     2372     8675    2      CALL KNN$SEND(KN$NETPARM);

   8675   0 000429  BBC7 0004                            LAB,B3   @KN$NETPARM,AUTO
          0 00042B  CBF0 0100                            LAB,B4   256,IMO
          0 00042D  E380 0000 0000  xent                 LNJ,B6   KNN$SEND
          0 000430       0001                            DC       s:8677,PREL

     2373     8676
     2374     8677    2      RETURN;

   8677   0 000431  ECC7 0016                            LDB,B6   K$TPDU_UN+2,AUTO
          0 000433  C3C6 0001                            LNJ,B4   1,B6
     2375     8678    2   END I$RETURN_TPDU_CP6;
     2376     8679
     2377     8680    1   END KNT$SEND_4HOST;

PL6.E3A0      #005=KNT$SEND_4HOST File=KNT$SEND.:E05TSI                          WED 07/30/97 01:14 Page:347
--  Include file information  --

   KNH_MACRO_C.:E05TOU  is referenced.
   KN_DATA_M.:E05TOU  is referenced.
   K_QDPHDRS_M.:E05TOU  is referenced.
   K_TRANSPORT_M.:E05TOU  is referenced.
   K_TRANSPORT_E.:E05TOU  is referenced.
   K_INTERFACE_M.:E05TOU  is referenced.
   K_ADDRESS_M.:E05TOU  is referenced.
   GH_SCHD_M.:E05TOU  is referenced.
   GH_GATE_M.:E05TOU  cannot be made into a system file and is referenced.
   G_LCP6_E.:E05TOU  was found in the system file and is never referenced.
   GT_LCP6_M.:E05TOU  was found in the system file and is never referenced.
   KI_CP6.:E05TOU  was found in the system file and is never referenced.
   GF_LCP6_M.:E05TOU  was found in the system file and is never referenced.
   GM_LCP6_M.:E05TOU  was found in the system file and is never referenced.
   GU_LCP6_M.:E05TOU  was found in the system file and is never referenced.
   GJ_LCP6_M.:E05TOU  was found in the system file and is never referenced.
   GH_LCP6_M.:E05TOU  was found in the system file and is never referenced.
      No diagnostics issued in procedure KNT$SEND_4HOST.
PL6.E3A0      #005=KNT$SEND_4HOST File=KNT$SEND.:E05TSI                          WED 07/30/97 01:14 Page:348

 **** Variables and constants ****

  ****  Auto variables  ****

  ****  Scalars and arrays  ****
HexLoc.c.b A Datatyp(siz) R M Lvl/name                 HexLoc.c.b A Datatyp(siz) R M Lvl/name

     4-0-0/w PTR         r     1 @KN$NETPARM                7-0-0/w PTR         r     1 CTX$
     C-0-0/w UBIN(16)    r     1 ERRNUM                     9-0-0/w PTR         r     1 FRAG$
     6-0-0/w SBIN(16)    r     1 ITEMP1                    11-0-0/w STRC(48)    r     1 K$TPDU_CP6_FLOW
     D-0-0/w STRC(56)    r     1 K$TPDU_DR                 14-0-0/w STRC(32)    r     1 K$TPDU_UN
    *0-0-0/w STRC(528)   r     1 KN$NETPARM                 B-0-0/w UBIN(16)    r     1 THDRSZ

  ****  SYMREF variables  ****

  ****  Scalars and arrays  ****
HexLoc.c.b A Datatyp(siz) R M Lvl/name                 HexLoc.c.b A Datatyp(siz) R M Lvl/name

     0-0-0/w UBIN(16)    r     1 KNT_ERROR_SCREECH          0-0-0/w UBIN(32)    r     1 KNT_SCODE
     0-0-0/w PTR         r     1 KN_DCT$$                   0-0-0/w PTR         r     1 KN_TCTX$$
     0-0-0/w UBIN(16)    r     1 KN_TCTX_MAX#

  ****  BASED and DCB variables  ****

  ****  Scalars and arrays  ****
HexLoc.c.b A Datatyp(siz) R M Lvl/name                 HexLoc.c.b A Datatyp(siz) R M Lvl/name

     0-0-0/w STRC(32)    r     1 B$NHDR                     0-0-0/c ACHR        r     1 B$TPDU
     0-0-0/w STRC(64)    r     1 B$TPDU_CP6                 0-0-0/w STRC(64)    r     1 B$TPDU_CP6_OPT
     0-0-0/w STRC(56)    r     1 B$TPDU_CR                  0-0-0/w STRC(56)    r     1 B$TPDU_DR
     0-0-0/w STRC(40)    r     1 B$TPDU_DT                  0-0-0/w STRC(128)   r     1 FRAG_HDR
     0-0-0/w STRC(256)   r     1 KN$LDCT
     0-0-0/w PTR         r     1 KN$LDCT$(0:0)
     0-0-0/w STRC(2816)  r     1 KN$TCTX
     0-0-0/w PTR         r     1 KN$TCTX$(0:0)

PL6.E3A0      #005=KNT$SEND_4HOST File=KNT$SEND.:E05TSI                          WED 07/30/97 01:14 Page:349

   Procedure KNT$SEND_4HOST requires 1077 words for executable code.
   Procedure KNT$SEND_4HOST requires 30 words of local(AUTO) storage.

    No errors detected in file KNT$SEND.:E05TSI    .
PL6.E3A0      #005=KNT$SEND_4HOST File=KNT$SEND.:E05TSI                          WED 07/30/97 01:14 Page:350
          *** CROSS REFERENCE LISTING ***
**     DENOTES     IDENTIFIER DEFINITION
<<                 IDENTIFIER'S VALUE SET
>>                 IDENTIFIER'S VALUE USED
<>                 IDENTIFIER SET AND/OR USED
--                 IDENTIFIER REFERENCED
PL6.E3A0      #005=KNT$SEND_4HOST File=KNT$SEND.:E05TSI                          WED 07/30/97 01:14 Page:351
          MINI XREF LISTING

ABORT_CONNECT
      8315**LABEL    8348--GOTO
B$NHDR.SOURCE_NODE
      8124**DCL      8493>>IF
B$TPDU
      8155**DCL      8365<<ASSIGN   8365>>ASSIGN
B$TPDU_CP6
      7934**DCL      8606--IF
B$TPDU_CP6.LI
      7935**DCL      8606>>IF
B$TPDU_CP6.P.CODE
      7974**DCL      8592>>DOCASE
B$TPDU_CP6.P.CREDIT
      7984**DCL      8609>>ASSIGN
B$TPDU_CP6_OPT
      8010**DCL      8595--IF
B$TPDU_CP6_OPT.LI
      8011**DCL      8595>>IF
B$TPDU_CP6_OPT.P.OPTION.TRACE
      8069**DCL      8598>>ASSIGN
B$TPDU_CR.CDT
      7785**DCL      8418<<ASSIGN   8422<<ASSIGN   8423<<ASSIGN
B$TPDU_CR.DST_REF
      7789**DCL      8210>>ASSIGN   8399>>ASSIGN
B$TPDU_CR.SRC_REF
      7797**DCL      8398>>ASSIGN   8415>>ASSIGN
B$TPDU_CR.TYPE
      7779**DCL      8234>>IF       8272>>IF       8280>>IF       8285>>DOCASE
B$TPDU_DR.DST_REF
      7854**DCL      8488>>IF       8496<<ASSIGN
B$TPDU_DR.SRC_REF
      7858**DCL      8493>>IF
PL6.E3A0      #005=KNT$SEND_4HOST File=KNT$SEND.:E05TSI                          WED 07/30/97 01:14 Page:352
B$TPDU_DT.DST_REF
      7898**DCL      8242>>ASSIGN
B$TPDU_DT.LI
      7884**DCL      8244>>ASSIGN
BAD_TPDU
      8633**LABEL    8596--GOTO     8604--GOTO     8607--GOTO
BUFFER_REQUEST
      8347**LABEL    8460--GOTO     8472--GOTO
CTX$
      6325**DCL      6520--IMP-PTR  8210<<ASSIGN   8212>>ASSIGN   8238>>IF       8241>>ASSIGN   8255>>IF
      8255>>IF       8307<<ASSIGN   8311>>CALL     8313>>ASSIGN   8317>>CALL     8329>>IF       8346>>ASSIGN
      8347>>CALL     8351>>ASSIGN   8352>>ASSIGN   8361>>ASSIGN   8362>>ASSIGN   8369>>IF       8371>>CALL
      8378>>IF       8391>>IF       8404>>ASSIGN   8415>>ASSIGN   8417>>IF       8421>>IF       8423>>ASSIGN
      8425>>IF       8427>>CALL     8435>>ASSIGN   8442>>IF       8444>>ASSIGN   8459>>IF       8464>>IF
      8467>>ASSIGN   8468>>ASSIGN   8471>>IF       8497<<ASSIGN   8510>>IF       8512>>ASSIGN   8513>>ASSIGN
      8515>>ASSIGN   8519>>IF       8522>>IF       8524>>IF       8531>>ASSIGN   8540>>CALL     8547>>ASSIGN
      8552>>IF       8555>>IF       8557>>IF       8560>>IF       8562>>CALL     8563>>CALL     8565>>ASSIGN
      8566>>CALL     8569>>ASSIGN   8574>>IF       8574>>IF       8598>>ASSIGN   8603>>IF       8609>>ASSIGN
      8609>>ASSIGN   8611>>IF       8613>>IF       8666>>ASSIGN   8673>>ASSIGN
DECODE_TPDU_DR
      8505**LABEL    8498--GOTO
ERRNUM
      6328**DCL      8535<<ASSIGN   8633<<ASSIGN   8641<<ASSIGN   8651>>ASSIGN
FORCE_SCREECH
      8647**LABEL    8439--GOTO     8625--GOTO
FRAG$
      6326**DCL      7688--IMP-PTR  8311<>CALL     8347>>CALL     8359>>ASSIGN   8361>>ASSIGN   8362>>ASSIGN
      8364<<ASSIGN   8364>>ASSIGN   8365>>ASSIGN   8427<>CALL
FRAG_HDR
      7688**DCL      8347<>CALL     8364--ASSIGN
FRAG_HDR.SEQ
      7701**DCL      7702--REDEF
FRAG_HDR.SEQ_SBIN
      7702**DCL      8359<<ASSIGN
GHS$CANCEL_TMR
      6504**DCL-ENT  8562--CALL     8563--CALL
PL6.E3A0      #005=KNT$SEND_4HOST File=KNT$SEND.:E05TSI                          WED 07/30/97 01:14 Page:353
GHS$SET_TMR
      6503**DCL-ENT  8371--CALL     8566--CALL
I$RETURN_TPDU_CP6
      8663**PROC     8260--CALL     8619--CALL
ITEMP1
      6324**DCL      8490<<DOINDEX  8491>>IF       8493>>IF       8493>>IF       8496>>ASSIGN   8497>>ASSIGN
      8512<<ASSIGN   8515>>ASSIGN
K$TPDU_CP6_FLOW
      6389**DCL      8258<<ASSIGN   8617<<ASSIGN   8664--ASSIGN   8671--ASSIGN   8672--ASSIGN
K$TPDU_CP6_FLOW.DST_REF
      6403**DCL      8666<<ASSIGN
K$TPDU_CP6_FLOW.LI
      6390**DCL      8664<<ASSIGN
K$TPDU_CP6_FLOW.P.CODE
      6429**DCL      8259<<ASSIGN   8618<<ASSIGN
K$TPDU_CP6_FLOW.TYPE
      6397**DCL      8665<<ASSIGN
K$TPDU_DR
      6346**DCL      8396--ASSIGN   8402--ASSIGN   8403--ASSIGN
K$TPDU_DR.DST_REF
      6360**DCL      8398<<ASSIGN
K$TPDU_DR.LI
      6347**DCL      8396<<ASSIGN
K$TPDU_DR.REASON
      6368**DCL      8400<<ASSIGN
K$TPDU_DR.SRC_REF
      6364**DCL      8399<<ASSIGN
K$TPDU_DR.TYPE
      6354**DCL      8397<<ASSIGN
K$TPDU_UN
      6460**DCL      8335--ASSIGN   8336--ASSIGN   8337--ASSIGN
K$TPDU_UN.LI
      6461**DCL      8337<<ASSIGN
K$TPDU_UN.PRT_ID
      6470**DCL      8339<<ASSIGN
K$TPDU_UN.SHARE
PL6.E3A0      #005=KNT$SEND_4HOST File=KNT$SEND.:E05TSI                          WED 07/30/97 01:14 Page:354
      6476**DCL      8340<<ASSIGN
K$TPDU_UN.TYPE
      6465**DCL      8338<<ASSIGN
KN$LDCT.LDCTX
      7582**DCL      8352>>ASSIGN
KN$LDCT.RLCID.LDCTX
      7501**DCL      7508--REDEF    7516--REDEF
KN$LDCT.RLCID.TCTX#
      7508**DCL      8351<<ASSIGN
KN$LDCT.TRANSPORT_ID
      7535**DCL      7543--REDEF
KN$LDCT.UID
      7565**DCL      7566--REDEF    7575--REDEF
KN$LDCT$
      7423**DCL      8444>>ASSIGN   8531>>ASSIGN
KN$NETPARM
      6183**DCL         9--PROC     8239<>CALL     8250<>CALL     8281<>CALL     8302<>CALL     8315<>CALL
      8342<>CALL     8344<>CALL     8394<>CALL     8410<>CALL     8437<>CALL     8452<>CALL     8454<>CALL
      8505<>CALL     8514<>CALL     8533<>CALL     8570<>CALL     8614<>CALL     8652<>CALL     8675<>CALL
KN$NETPARM.DST_ADDR$
      6317**DCL      8468<<ASSIGN
KN$NETPARM.ERRCODE
      6290**DCL      8252>>IF       8264<<ASSIGN   8320<<ASSIGN   8346>>ASSIGN   8429<<ASSIGN
KN$NETPARM.FLAGS.CONS
      6260**DCL      8331<<ASSIGN
KN$NETPARM.FUNCTION
      6278**DCL      8274<<ASSIGN   8332<<ASSIGN   8445<<ASSIGN   8466<<ASSIGN   8530<<ASSIGN
KN$NETPARM.LDCT$
      6184**DCL      7440--IMP-PTR  8333<<ASSIGN   8351>>ASSIGN   8352>>ASSIGN   8444<<ASSIGN   8531<<ASSIGN
KN$NETPARM.MSG$
      6190**DCL      6195--REDEF    8248<<ASSIGN
KN$NETPARM.MSGSZ
      6201**DCL      8335<<ASSIGN   8406<<ASSIGN   8450<<ASSIGN   8668<<ASSIGN
KN$NETPARM.MSGW$
      6195**DCL      8336<<ASSIGN
KN$NETPARM.NHDR$
PL6.E3A0      #005=KNT$SEND_4HOST File=KNT$SEND.:E05TSI                          WED 07/30/97 01:14 Page:355
      6242**DCL      6243--REDEF    8097--IMP-PTR  8446<<ASSIGN   8493>>IF
KN$NETPARM.NHDRSZ
      6248**DCL      8447<<ASSIGN   8529<<ASSIGN
KN$NETPARM.NODE
      6285**DCL      8241<<ASSIGN   8404<<ASSIGN   8673<<ASSIGN
KN$NETPARM.SHDR$
      6220**DCL      6221--REDEF
KN$NETPARM.SHDRSZ
      6226**DCL      8246<<ASSIGN   8408<<ASSIGN   8448<<ASSIGN   8670<<ASSIGN
KN$NETPARM.SHDR_C$
      6221**DCL      8245<<ASSIGN
KN$NETPARM.SRC_ADDR$
      6312**DCL      8467<<ASSIGN
KN$NETPARM.TCTX$
      6307**DCL      8212<<ASSIGN   8307>>ASSIGN
KN$NETPARM.TCTX_ID
      6253**DCL      8242<<ASSIGN
KN$NETPARM.THDR$
      6231**DCL      6232--REDEF    7934--IMP-PTR  8010--IMP-PTR  8403<<ASSIGN   8592>>DOCASE   8595>>IF
      8598>>ASSIGN   8606>>IF       8609>>ASSIGN   8672<<ASSIGN
KN$NETPARM.THDRSZ
      6237**DCL      8246>>ASSIGN   8283>>ASSIGN   8393<<ASSIGN   8402<<ASSIGN   8528<<ASSIGN   8651<<ASSIGN
      8671<<ASSIGN
KN$NETPARM.THDR_C$
      6232**DCL      7771--IMP-PTR  7840--IMP-PTR  7883--IMP-PTR  8210>>ASSIGN   8234>>IF       8242>>ASSIGN
      8244>>ASSIGN   8245>>ASSIGN   8272>>IF       8280>>IF       8285>>DOCASE   8365>>ASSIGN   8398>>ASSIGN
      8399>>ASSIGN   8415>>ASSIGN   8418>>ASSIGN   8422>>ASSIGN   8423>>ASSIGN   8488>>IF       8493>>IF
      8496>>ASSIGN
KN$NETPARM.UHDR$
      6206**DCL      6207--REDEF    8247<<ASSIGN
KN$NETPARM.UHDRSZ
      6215**DCL      8407<<ASSIGN   8449<<ASSIGN   8527<<ASSIGN   8669<<ASSIGN
KN$TCTX
      6520**DCL      8311<>CALL     8317<>CALL     8347<>CALL     8427<>CALL     8540<>CALL
KN$TCTX.CLASS
      6586**DCL      8369>>IF       8417>>IF       8425>>IF       8459>>IF       8471>>IF       8524>>IF
PL6.E3A0      #005=KNT$SEND_4HOST File=KNT$SEND.:E05TSI                          WED 07/30/97 01:14 Page:356
      8552>>IF       8557>>IF       8560>>IF       8574>>IF
KN$TCTX.DST_NSAP
      7375**DCL      8468--ASSIGN
KN$TCTX.DST_NSAP.ADDRESS_N
      7405**DCL      7406--REDEF
KN$TCTX.ERR
      6777**DCL      8313<<ASSIGN   8346<<ASSIGN
KN$TCTX.FLOW_CONTROLLED
      6735**DCL      8255>>IF
KN$TCTX.HOST_NODE
      6569**DCL      8404>>ASSIGN   8493>>IF       8673>>ASSIGN
KN$TCTX.HOST_REF
      6562**DCL      8415<<ASSIGN   8493>>IF       8666>>ASSIGN
KN$TCTX.LDCTX#
      6540**DCL      8352<<ASSIGN   8444>>ASSIGN   8531>>ASSIGN
KN$TCTX.NODE
      6527**DCL      6540--REDEF    8241>>ASSIGN
KN$TCTX.OPTION.CONS
      6639**DCL      8329>>IF       8378>>IF       8442>>IF
KN$TCTX.OPTION.OSI
      6648**DCL      8255>>IF       8464>>IF       8603>>IF
KN$TCTX.OPTION.TRACE
      6634**DCL      8238>>IF       8598<<ASSIGN
KN$TCTX.RCV_WINDOW_SZ
      6592**DCL      8421>>IF       8423>>ASSIGN
KN$TCTX.RECV_HEAD$
      6926**DCL      8613>>IF
KN$TCTX.SEND_HEAD$
      6981**DCL      8361<<ASSIGN
KN$TCTX.SEND_RETRY_COUNT
      7064**DCL      8565<<ASSIGN
KN$TCTX.SEND_TAIL$
      6989**DCL      8362<<ASSIGN
KN$TCTX.SRC_NSAP
      7311**DCL      8467--ASSIGN
KN$TCTX.SRC_NSAP.ADDRESS_N
PL6.E3A0      #005=KNT$SEND_4HOST File=KNT$SEND.:E05TSI                          WED 07/30/97 01:14 Page:357
      7341**DCL      7342--REDEF
KN$TCTX.SRC_REF
      6554**DCL      8351>>ASSIGN   8496>>ASSIGN   8512>>ASSIGN   8513<<ASSIGN   8515<<ASSIGN
KN$TCTX.SSN_CRDT
      7049**DCL      8609<<ASSIGN   8609>>ASSIGN   8611>>IF
KN$TCTX.STATE
      6521**DCL      8391>>IF       8435<<ASSIGN   8510>>IF       8519>>IF       8522>>IF       8547<<ASSIGN
      8555>>IF       8569<<ASSIGN   8574>>IF
KN$TCTX.TMR_INACTIVITY
      7159**DCL      8563<>CALL
KN$TCTX.TMR_INACTIVITY.ARG
      7161**DCL      7162--REDEF
KN$TCTX.TMR_REFERENCE.ARG
      7191**DCL      7192--REDEF
KN$TCTX.TMR_RETRAN
      7100**DCL      8371<>CALL     8566<>CALL
KN$TCTX.TMR_RETRAN.ARG
      7102**DCL      7103--REDEF
KN$TCTX.TMR_WINDOW
      7129**DCL      8562<>CALL
KN$TCTX.TMR_WINDOW.ARG
      7131**DCL      7132--REDEF
KN$TCTX$
      7422**DCL      8210>>ASSIGN   8491>>IF       8493>>IF       8493>>IF       8496>>ASSIGN   8497>>ASSIGN
KNH$SEND
      6487**DCL-ENT  8454--CALL     8533--CALL
KNN$SEND
      6488**DCL-ENT  8344--CALL     8410--CALL     8675--CALL
KNT$DSESSION
      6495**DCL-ENT  8614--CALL
KNT$GET_SBUF
      6489**DCL-ENT  8311--CALL     8427--CALL
KNT$RELBUF
      6490**DCL-ENT  8347--CALL
KNT$SEND_CR_4HOST
      6492**DCL-ENT  8302--CALL     8437--CALL     8505--CALL
PL6.E3A0      #005=KNT$SEND_4HOST File=KNT$SEND.:E05TSI                          WED 07/30/97 01:14 Page:358
KNT$SEND_DR
      6493**DCL-ENT  8514--CALL     8570--CALL
KNT$SEND_DR_HOST
      6494**DCL-ENT  8315--CALL
KNT$SEND_HOST_DATA
      6491**DCL-ENT  8250--CALL
KNT$SET_REFWAIT
      6497**DCL-ENT  8317--CALL     8540--CALL
KNT$TR_ERROR
      6498**DCL-ENT  8394--CALL     8652--CALL
KNT$TR_NCR
      6501**DCL-ENT  8342--CALL
KNT$TR_RCVH
      6500**DCL-ENT  8239--CALL     8281--CALL
KNT$TR_SEND
      6502**DCL-ENT  8452--CALL
KNT_ERROR_SCREECH
      6511**DCL      8644>>IF
KNT_SCODE
      6512**DCL      8647<>CALL
KN_DCT$$
      6510**DCL      7423--IMP-PTR  8444>>ASSIGN   8531>>ASSIGN
KN_TCTX$$
      6509**DCL      7422--IMP-PTR  8210>>ASSIGN   8491>>IF       8493>>IF       8493>>IF       8496>>ASSIGN
      8497>>ASSIGN
KN_TCTX_MAX#
      6508**DCL      8490>>DOINDEX
MSG_COMPLETE
      8320**LABEL    8304--GOTO     8379--GOTO     8412--GOTO
REPORT_BAD_TSTATE
      8641**LABEL    8576--GOTO
SCREECH
      6505**DCL-ENT  8647--CALL
SCREECH_CHECK
      8644**LABEL    8536--GOTO     8634--GOTO
SEND_TERM
PL6.E3A0      #005=KNT$SEND_4HOST File=KNT$SEND.:E05TSI                          WED 07/30/97 01:14 Page:359
      8527**LABEL    8553--GOTO
SET_CLOSING
      8569**LABEL    8558--GOTO
SET_REFWAIT
      8540**LABEL    8516--GOTO
SET_RETRY
      8565**LABEL    8575--GOTO
STRIP_OFF_THDR
      8124**LABEL    8275--GOTO
TERM_VC
      8547**LABEL    8520--GOTO
THDRSZ
      6327**DCL      8155--IMP-SIZ  8244<<ASSIGN   8245>>ASSIGN   8246>>ASSIGN   8283<<ASSIGN   8311<>CALL
      8365>>ASSIGN   8365>>ASSIGN   8427<>CALL
