PL6.E3A0      #004=KNT$SEND_TPDU File=KNT$SEND.:E05TSI                           WED 07/30/97 01:13 Page:153
      991        1        /*M* KNT$SEND_TPDU - Compose and send most of the TPDUs. */
      992        2        /*T***********************************************************/
      993        3        /*T*                                                         */
      994        4        /*T* Copyright (c) Bull HN Information Systems Inc., 1997    */
      995        5        /*T*                                                         */
      996        6        /*T***********************************************************/
      997        7        /*X* PLM=3,IND=5,ENU=0,ECU=0     */
      998        8
      999        9        /*P* NAME: KNT$SEND_TPDU
     1000       10
     1001       11        PURPOSE:  To compose and send to the peers most of the TPDUs.
     1002       12
     1003       13        DESCRIPTION:
     1004       14
     1005       15        For SEND_DT and SEND_ED we call KNN$SEND passing the previously
     1006       16        composed TDPU in the transport buffer.
     1007       17
     1008       18        For SEND_DR, SEND_CR, and SEND_CC we get a transport buffer, assemble
     1009       19        the total TPDU in it and call KNN$SEND.
     1010       20
     1011       21        For SEND_AK, SEND_EA, SEND_DC, and SEND_ER we assemble the TDPU in
     1012       22        auto and call KNN$SEND.
     1013       23        */
     1014       24        KNT$SEND_TPDU: PROC(KN$NETPARM)  ALTRET;
     1015       25
     1016       26        %INCLUDE K_ADDRESS_M;
     1017      529        %INCLUDE KN_DATA_M;
     1018     2315        %INCLUDE K_TRANSPORT_E;
     1019     2640        %INCLUDE K_TRANSPORT_M;
     1020     4424        %INCLUDE K_INTERFACE_M;
     1021     4833        %INCLUDE KNH_MACRO_C;
     1022     5116        %INCLUDE GH_SCHD_M;
     1023     5260
     1024     5261                                                /* Input parameters                   */
     1025     5262        %KN$NETPARM;
     1026     5415
     1027     5416                                                /* Auto Storage                       */
PL6.E3A0      #004=KNT$SEND_TPDU File=KNT$SEND.:E05TSI                           WED 07/30/97 01:13 Page:154
     1028     5417    1   DCL CTX$ PTR;
     1029     5418    1   DCL FRAG$ PTR;
     1030     5419    1   DCL TPDU$ PTR;
     1031     5420    1   DCL DPTR$ CPTR;
     1032     5421    1   DCL FRAG_SZ SBIN;
     1033     5422    1   DCL THDR_SZ SBIN;
     1034     5423    1   DCL SPDU_SZ SBIN;
     1035     5424    1   DCL ITEMP1 SBIN;
     1036     5425    1   DCL CDT SBIN(32);
     1037     5426    1   DCL ENTRY_SWITCH SBIN;
     1038     5427    1   DCL TPDU_DR_SWITCH UBIN;                /* 0=normal, 1=host*/
     1039     5428    1   DCL TPDU_AK_SWITCH UBIN;                /* 0=normal, 1=with fcc               */
     1040     5429    1   DCL SEND_DIRECTION UBIN;                /* 0=normal, 1=send host*/
     1041     5430    1   DCL CHKOFF SBIN;
     1042     5431    1   DCL SAVE_CHKSUM BIT(1) ALIGNED;
     1043     5432
     1044     5433        /* Reserve space in auto for the largest TPDU.
     1045     5434        */
     1046     5435        %K$TPDU_CR_CC(NAME=K$TPDU,STCLASS=AUTO,LAST=",");
     1047     5504        %K$TPARM_VERSION(NAME=ALLOC_VRS,LVL=2,LAST=",");
     1048     5540        %K$TPARM_TPDUSZ(NAME=ALLOC_TPDUSZ,LVL=2,LAST=",");
     1049     5579        %K$TPARM_TSAP_ID(NAME=ALLOC_TSAP,LVL=2,LAST=",");
     1050     5616        %K$TPARM_TSAP_ID(NAME=ALLOC_TSAP1,LVL=2,LAST=",");
     1051     5653        %K$TPARM_CHKSUM(NAME=ALLOC_CHK,LVL=2,LAST=",");
     1052     5693        %K$TPARM_OPTION(NAME=ALLOC_OPT,LVL=2,LAST=";");
     1053     5740
     1054     5741        %KN$NETPARM (NAME=KN@NETPARM, STCLASS=AUTO);
     1055     5894
     1056     5895                                                /* External Procedures                */
     1057     5896    1   DCL KNT$GET_SBUF ENTRY(3) ALTRET;
     1058     5897    1   DCL KNT$RELBUF ENTRY(2);
     1059     5898    1   DCL KNT$RLS_CHAIN ENTRY(1);
     1060     5899    1   DCL KNT$UNQ_BUFFER ENTRY;
     1061     5900    1   DCL KNA$CALC_CHKSUM ENTRY(3) ALTRET;
     1062     5901    1   DCL KNN$SEND ENTRY(1) ALTRET;
     1063     5902    1   DCL KNH$SEND ENTRY(1) ALTRET;
     1064     5903    1   DCL GHS$SET_TMR ENTRY(1);
PL6.E3A0      #004=KNT$SEND_TPDU File=KNT$SEND.:E05TSI                           WED 07/30/97 01:13 Page:155
     1065     5904    1   DCL GHS$CANCEL_TMR ENTRY(1);
     1066     5905    1   DCL KNT$TR_SEND ENTRY(1);
     1067     5906    1   DCL KNT$TR_FHOST ENTRY(1);
     1068     5907    1   DCL SCREECH ENTRY(1);
     1069     5908
     1070     5909                                                /* BASED Data                         */
     1071     5910        %K$TCTX (NAME=KN$TCTX, STCLASS="BASED(CTX$)");
     1072     6817
     1073     6818        %K$TPDU_GENERIC (NAME=B$TPDU, STCLASS="BASED(TPDU$)", ALGN=CALIGNED);
     1074     6878        %K$TPDU_AK_EXT(NAME=B$TPDU_AK_EXT, STCLASS="BASED(TPDU$)", ALGN=ALIGNED);
     1075     6922        %K$TPDU_AK(NAME=B$TPDU_AK, STCLASS="BASED(TPDU$)", ALGN=ALIGNED);
     1076     6970        %K$TPDU_DC(NAME=B$TPDU_DC, STCLASS="BASED(TPDU$)", ALGN=ALIGNED);
     1077     7009        %K$TPDU_DR(NAME=B$TPDU_DR, STCLASS="BASED(TPDU$)", ALGN=ALIGNED);
     1078     7052        %K$TPDU_CR_CC(NAME=B$TPDU_C, STCLASS="BASED(TPDU$)", ALGN=ALIGNED);
     1079     7121        %K$TPDU_EA_EXT(NAME=B$TPDU_EA_EXT, STCLASS="BASED(TPDU$)", ALGN=ALIGNED);
     1080     7147        %K$TPDU_EA(NAME=B$TPDU_EA, STCLASS="BASED(TPDU$)", ALGN=ALIGNED);
     1081     7173        %K$TPDU_ER(NAME=B$TPDU_ER, STCLASS="BASED(TPDU$)", ALGN=ALIGNED);
     1082     7212
     1083     7213        %K$FRAG_HDR(NAME=FRAG_HDR, STCLASS="BASED(FRAG$)");
     1084     7296
     1085     7297        /* Generate the structures for sizec values */
     1086     7298        %K$TPDU_CR_CC (ALGN=CALIGNED);
     1087     7367        %K$TPDU_DR (ALGN=CALIGNED);
     1088     7410        %K$TPDU_DC (ALGN=CALIGNED);
     1089     7449        %K$TPDU_AK (ALGN=CALIGNED);
     1090     7497        %K$TPDU_AK_EXT (ALGN=CALIGNED);
     1091     7541        %K$TPDU_EA (ALGN=CALIGNED);
     1092     7567        %K$TPDU_EA_EXT (ALGN=CALIGNED);
     1093     7593        %K$TPDU_ER (ALGN=CALIGNED);
     1094     7632        %K$TPARM_CHKSUM (ALGN=CALIGNED);
     1095     7672        %K$TPARM_VERSION (ALGN=CALIGNED);
     1096     7708        %K$TPARM_TPDUSZ (ALGN=CALIGNED);
     1097     7747        %K$TPARM_TSAP_ID (ALGN=CALIGNED);
     1098     7784        %K$TPARM_OPTION (ALGN=CALIGNED);
     1099     7831        %K$TPARM_CLR_INFO (ALGN=CALIGNED);
     1100     7880        %K$TPARM_FCC (ALGN=CALIGNED);
     1101     7927
PL6.E3A0      #004=KNT$SEND_TPDU File=KNT$SEND.:E05TSI                           WED 07/30/97 01:13 Page:156
     1102     7928    1   DCL CHR4BSD CHAR(4) BASED CALIGNED;
     1103     7929    1   DCL CHR3BSD CHAR(3) BASED CALIGNED;
     1104     7930    1   DCL CHR2BSD CHAR(2) BASED CALIGNED;
     1105     7931    1   DCL B$CHAR CHAR(ITEMP1) BASED CALIGNED;
     1106     7932    1   DCL B$CHAR_ALGN CHAR(ITEMP1) BASED ALIGNED;
     1107     7933
     1108     7934    1   DCL KN$LDCT$(0:0) PTR BASED(KN_DCT$$);
     1109     7935                                                /* External Data                      */
     1110     7936        %KN$NETPARM (NAME=KN_NETPARM_INIT, STCLASS=SYMREF);
     1111     8089    1   DCL K_CKSUM_INIT CHAR(4) SYMREF;
     1112     8090    1   DCL KNT_WAIT_COUNT UBIN SYMREF;
     1113     8091    1   DCL KNT_WINDOW_TIMER UBIN SYMREF;
     1114     8092    1   DCL KNT_FCCWINDOW_TIMER UBIN SYMREF;
     1115     8093    1   DCL KN_DCT$$ PTR SYMREF;
     1116     8094    1   DCL KNT_SCODE UBIN(32) SYMREF;
     1117     8095
     1118     8096    1   DCL 1 PARM_HDRS CONSTANT,
     1119     8097    1         2 VERS UBIN BYTE CALIGNED INIT(%K_TPARM_VERSION),
     1120     8098    1         2 * UBIN BYTE CALIGNED INIT(1),
     1121     8099    1         2 * UBIN BYTE CALIGNED INIT(1),
     1122     8100    1         2 SIZE UBIN BYTE CALIGNED INIT(%K_TPARM_TPDUSZ),
     1123     8101    1         2 * UBIN BYTE CALIGNED INIT(1),
     1124     8102    1         2 OPTION UBIN BYTE CALIGNED INIT(%K_TPARM_OPTION),
     1125     8103    1         2 * UBIN BYTE CALIGNED INIT(1),
     1126     8104    1         2 * UBIN BYTE CALIGNED INIT(0),
     1127     8105    1         2 CLR_INFO UBIN BYTE CALIGNED INIT(%K_TPARM_CLR_INFO),
     1128     8106    1         2 * UBIN BYTE CALIGNED INIT(1),
     1129     8107    1         2 * UBIN BYTE CALIGNED INIT(0);
     1130     8108
     1131     8109        %EJECT;
PL6.E3A0      #004=KNT$SEND_TPDU File=KNT$SEND.:E05TSI                           WED 07/30/97 01:13 Page:157
     1132     8110        /*F* NAME: KNT$SEND_DT - Send data TPDU
     1133     8111
     1134     8112        Called from KNT$SEND to forward data sent from session.
     1135     8113        Called from KNT$RECV after an ACK has been received to see if
     1136     8114        buffered tpdus may now be sent on.
     1137     8115
     1138     8116        */
     1139     8117    1   KNT$SEND_DT: ENTRY(KN$NETPARM) ALTRET;
     1140     8118    1      ENTRY_SWITCH = %K_TPDU_TYPE_DT;
     1141     8119    1      CTX$ = KN$NETPARM.TCTX$;
     1142     8120    1      KN$NETPARM.NODE = KN$TCTX.NODE;
     1143     8121
     1144     8122    2      DO WHILE ( KN$TCTX.SEND_NOTSENT$ ~= ADDR(NIL) ) AND
     1145     8123    2        ( KN$TCTX.SEND_EHEAD$ = ADDR(NIL) ) AND
     1146     8124    2        ( KN$TCTX.STATE = %K_TSTATE_OPEN );
     1147     8125
     1148     8126    2           FRAG$ = KN$TCTX.SEND_NOTSENT$;
     1149     8127
     1150     8128    2           IF KN$TCTX.CLASS=4 OR KN$TCTX.OPTION.CLASS_2_FLOW
     1151     8129    3           THEN DO;
     1152     8130    3                IF ( KN$TCTX.SEND_LWE <= KN$TCTX.SEND_UWE )
     1153     8131    4                THEN DO;
     1154     8132    4                     IF ( FRAG_HDR.SEQ >= KN$TCTX.SEND_UWE ) OR
     1155     8133    4                       ( FRAG_HDR.SEQ < KN$TCTX.SEND_LWE )
     1156     8134    5                     THEN DO;
     1157     8135    5   NO_SEND_WINDOW:
     1158     8136    5                          KN$TCTX.SERR.DT_NWINDOW = KN$TCTX.SERR.DT_NWINDOW +1;
     1159     8137    5                          ALTRETURN;
     1160     8138    5                          END;
     1161     8139    4                     END;
     1162     8140
     1163     8141    4                ELSE DO;
     1164     8142    4                     IF ( FRAG_HDR.SEQ >= KN$TCTX.SEND_UWE ) AND
     1165     8143    4                       ( FRAG_HDR.SEQ < KN$TCTX.SEND_LWE )
     1166     8144    4                     THEN GOTO NO_SEND_WINDOW;
     1167     8145    4                     END;
     1168     8146    3                END/*do if class4 flow control*/;
PL6.E3A0      #004=KNT$SEND_TPDU File=KNT$SEND.:E05TSI                           WED 07/30/97 01:13 Page:158
     1169     8147
     1170     8148    2           TPDU$ = PINCRW(FRAG$,SIZEW(FRAG_HDR));
     1171     8149    2           FRAG_SZ = FRAG_HDR.DATA_BSIZE;
     1172     8150
     1173     8151    2           CALL I$SEND_TO_NET
     1174     8152    3           WHENALTRETURN DO;
     1175     8153    3   NOQ_4BUFFERED:
     1176     8154    3                KN$TCTX.SERR.NOQ = KN$TCTX.SERR.NOQ +1;
     1177     8155    3                KN$NETPARM.ERRCODE = 0;
     1178     8156    3                RETURN;
     1179     8157    3                END;
     1180     8158
     1181     8159    2           IF KN$TCTX.CLASS = 4
     1182     8160    3           THEN DO;
     1183     8161    3                IF KN$TCTX.SEND_NOTSENT$ = KN$TCTX.SEND_HEAD$
     1184     8162    4                THEN DO;
     1185     8163    4                     KN$TCTX.SEND_RETRY_COUNT = 1;
     1186     8164    4                     CALL GHS$SET_TMR (KN$TCTX.TMR_RETRAN);
     1187     8165    4                     END;
     1188     8166    3                END;
     1189     8167
     1190     8168    2           KN$TCTX.SEND_NOTSENT$ = FRAG_HDR.LINK$;
     1191     8169
     1192     8170    2           IF KN$TCTX.CLASS ~= 4
     1193     8171    3           THEN DO;
     1194     8172    3                KN$TCTX.SEND_HEAD$ = FRAG_HDR.LINK$;
     1195     8173
     1196     8174    3                IF KN$TCTX.SEND_HEAD$ = ADDR(NIL)
     1197     8175    3                THEN KN$TCTX.SEND_TAIL$ = ADDR(NIL);
     1198     8176
     1199     8177    3                CALL KNT$RELBUF(FRAG$->FRAG_HDR,KN$TCTX);
     1200     8178    3                END;
     1201     8179
     1202     8180    2           END/*do while*/;
     1203     8181
     1204     8182    1   UNQ_CHECK: ;
     1205     8183    1      IF (KN$TCTX.CLASS ~= 4) AND (KNT_WAIT_COUNT ~= 0)
PL6.E3A0      #004=KNT$SEND_TPDU File=KNT$SEND.:E05TSI                           WED 07/30/97 01:13 Page:159
     1206     8184    1      THEN CALL KNT$UNQ_BUFFER;
     1207     8185
     1208     8186    1      RETURN;
     1209     8187
     1210     8188        %EJECT;
PL6.E3A0      #004=KNT$SEND_TPDU File=KNT$SEND.:E05TSI                           WED 07/30/97 01:13 Page:160
     1211     8189        /*F* NAME: KNT$SEND_ED - Send expidited data TPDU
     1212     8190
     1213     8191        Called from KNT$SEND and KNT$RECV.
     1214     8192        */
     1215     8193    1   KNT$SEND_ED: ENTRY(KN$NETPARM) ALTRET;
     1216     8194    1      ENTRY_SWITCH = %K_TPDU_TYPE_ED;
     1217     8195    1      CTX$ = KN$NETPARM.TCTX$;
     1218     8196    1      KN$NETPARM.NODE = KN$TCTX.NODE;
     1219     8197
     1220     8198    1      IF ( KN$TCTX.SEND_ENOTSENT$ ~= ADDR(NIL) ) AND
     1221     8199    1        ( KN$TCTX.SEND_ENOTSENT$ = KN$TCTX.SEND_EHEAD$ ) AND
     1222     8200    1        ( KN$TCTX.STATE = %K_TSTATE_OPEN )
     1223     8201    2      THEN DO;
     1224     8202    2           FRAG$ = KN$TCTX.SEND_ENOTSENT$;
     1225     8203    2           TPDU$ = PINCRW(FRAG$,SIZEW(FRAG_HDR));
     1226     8204    2           FRAG_SZ = FRAG_HDR.DATA_BSIZE;
     1227     8205
     1228     8206    2           CALL I$SEND_TO_NET ALTRET(NOQ_4BUFFERED);
     1229     8207
     1230     8208    2           KN$TCTX.SEND_ENOTSENT$ = FRAG_HDR.LINK$;
     1231     8209    2           KN$TCTX.SEND_RETRY_COUNT = 1;
     1232     8210    2           CALL GHS$SET_TMR (KN$TCTX.TMR_RETRAN);
     1233     8211    2           END;
     1234     8212
     1235     8213    1      RETURN;
     1236     8214
     1237     8215        %EJECT;
PL6.E3A0      #004=KNT$SEND_TPDU File=KNT$SEND.:E05TSI                           WED 07/30/97 01:13 Page:161
     1238     8216        /*F* NAME: KNT$SEND_DR - Send disconnect request TPDU
     1239     8217
     1240     8218        Called from KNT$SEND, KNT$SEND_4HOST, KNT$RECV and KNT$TTIMER.
     1241     8219
     1242     8220        KNT$SEND_DR_HOST is a special entry point to compose and send
     1243     8221        the TPDU_DR to the host node for an intermediate transport connection.
     1244     8222
     1245     8223        Called from KNT$RECV and KNT$TTIMER.
     1246     8224        */
     1247     8225
     1248     8226    1   KNT$SEND_DR: ENTRY(KN$NETPARM) ALTRET;
     1249     8227    1      TPDU_DR_SWITCH = 0;
     1250     8228    1      GOTO COMMON_DR;
     1251     8229
     1252     8230    1   KNT$SEND_DR_HOST: ENTRY(KN$NETPARM) ALTRET;
     1253     8231    1      TPDU_DR_SWITCH= 1;
     1254     8232
     1255     8233    1   COMMON_DR: ;
     1256     8234    1      ENTRY_SWITCH = %K_TPDU_TYPE_DR;
     1257     8235    1      CTX$ = KN$NETPARM.TCTX$;
     1258     8236    1      KN$NETPARM.NODE = KN$TCTX.NODE;
     1259     8237    1      KN$NETPARM.MSGSZ = 0;
     1260     8238    1      KN$NETPARM.UHDRSZ = 0;
     1261     8239    1      KN$NETPARM.SHDRSZ = 0;
     1262     8240
     1263     8241    1      CALL KNT$RLS_CHAIN(KN$TCTX);
     1264     8242
     1265     8243    1      THDR_SZ = SIZEC(K$TPDU_DR);
     1266     8244
     1267     8245    1      IF KN$TCTX.CLASS=4 OR KN$TCTX.CLASS=2
     1268     8246    1      THEN THDR_SZ = THDR_SZ + SIZEC(K$TPARM_CLR_INFO);
     1269     8247
     1270     8248    2      ELSE DO;
     1271     8249    2           IF KN$TCTX.REASON > %K_REASON_ADDRESS_UNKNOWN
     1272     8250    3           THEN DO;
     1273     8251    3                IF KN$TCTX.ERR = 0
     1274     8252    3                THEN KN$TCTX.ERR = KN$TCTX.REASON;
PL6.E3A0      #004=KNT$SEND_TPDU File=KNT$SEND.:E05TSI                           WED 07/30/97 01:13 Page:162
     1275     8253    3                KN$TCTX.REASON = %K_REASON_NOTSPEC;
     1276     8254    3                END;
     1277     8255    2           END;
     1278     8256
     1279     8257    1      IF TPDU_DR_SWITCH = 1
     1280     8258    1      THEN GOTO SKIP_CHKSUM;
     1281     8259    1      ELSE GOTO GOT_INIT_THDR_SZ;
     1282     8260
     1283     8261        %EJECT;
PL6.E3A0      #004=KNT$SEND_TPDU File=KNT$SEND.:E05TSI                           WED 07/30/97 01:13 Page:163
     1284     8262        /*F* NAME: KNT$SEND_CR - Send connect request TPDU
     1285     8263
     1286     8264        Called from KNT$SEND.
     1287     8265        */
     1288     8266    1   KNT$SEND_CR: ENTRY(KN$NETPARM) ALTRET;
     1289     8267    1      CTX$ = KN$NETPARM.TCTX$;
     1290     8268    1      ENTRY_SWITCH = %K_TPDU_TYPE_CR;
     1291     8269
     1292     8270    1      SAVE_CHKSUM = KN$TCTX.OPTION.CHKSUM;
     1293     8271    1      IF KN$TCTX.CLASS = 4
     1294     8272    1      THEN KN$TCTX.OPTION.CHKSUM = '1'B;   /* always required on a tpdu_cr       */
     1295     8273
     1296     8274    1      GOTO GET_INIT_THDR_SZ;
     1297     8275
     1298     8276        %EJECT;
PL6.E3A0      #004=KNT$SEND_TPDU File=KNT$SEND.:E05TSI                           WED 07/30/97 01:13 Page:164
     1299     8277        /*F* NAME: KNT$SEND_CC - Send connect confirm TPDU
     1300     8278
     1301     8279        Called from KNT$RECV.
     1302     8280        */
     1303     8281    1   KNT$SEND_CC: ENTRY(KN$NETPARM)  ALTRET;
     1304     8282    1      CTX$ = KN$NETPARM.TCTX$;
     1305     8283    1      ENTRY_SWITCH = %K_TPDU_TYPE_CC;
     1306     8284    1      SAVE_CHKSUM = KN$TCTX.OPTION.CHKSUM;
     1307     8285
     1308     8286    1      KN$NETPARM.SHDRSZ = 0;
     1309     8287    1      KN$NETPARM.UHDRSZ = 0;
     1310     8288    1      KN$NETPARM.MSGSZ = 0;
     1311     8289
     1312     8290    1   GET_INIT_THDR_SZ:;
     1313     8291    1      THDR_SZ = SIZEC(K$TPDU_CR_CC)
     1314     8292    1        + SIZEC(K$TPARM_TPDUSZ);
     1315     8293
     1316     8294    1      IF KN$TCTX.DST_TSAP.LEN > 0
     1317     8295    1      THEN THDR_SZ = THDR_SZ +2 + KN$TCTX.DST_TSAP.LEN;
     1318     8296
     1319     8297    1      IF KN$TCTX.SRC_TSAP.LEN > 0
     1320     8298    1      THEN THDR_SZ = THDR_SZ +2 + KN$TCTX.SRC_TSAP.LEN;
     1321     8299
     1322     8300    1      IF KN$TCTX.CLASS ~= 0
     1323     8301    2      THEN DO;
     1324     8302    2           THDR_SZ = THDR_SZ + SIZEC(K$TPARM_OPTION);
     1325     8303
     1326     8304    2           IF ENTRY_SWITCH = %K_TPDU_TYPE_CR
     1327     8305    2           THEN THDR_SZ = THDR_SZ + SIZEC(K$TPARM_VERSION);
     1328     8306                                  /*N* + SIZEC(K$TPARM_ALTCLASS) */
     1329     8307    2           END;
     1330     8308
     1331     8309    1   GOT_INIT_THDR_SZ:;
     1332     8310    1      IF KN$TCTX.OPTION.CHKSUM ~= '0'B
     1333     8311    1      THEN THDR_SZ = THDR_SZ + SIZEC(K$TPARM_CHKSUM);
     1334     8312
     1335     8313    1   SKIP_CHKSUM:
PL6.E3A0      #004=KNT$SEND_TPDU File=KNT$SEND.:E05TSI                           WED 07/30/97 01:13 Page:165
     1336     8314    1      SPDU_SZ = KN$NETPARM.SHDRSZ + KN$NETPARM.UHDRSZ + KN$NETPARM.MSGSZ;
     1337     8315
     1338     8316    1      IF KN$TCTX.OPTION.OSI = '0'B
     1339     8317    1      THEN THDR_SZ =( ( (THDR_SZ +1) /2) * 2);
     1340     8318
     1341     8319    1      FRAG_SZ = THDR_SZ + SPDU_SZ;
     1342     8320
     1343     8321    1      CALL KNT$GET_SBUF(FRAG_SZ,FRAG$,KN$TCTX)
     1344     8322    2      WHENALTRETURN DO;
     1345     8323    2           KN$NETPARM.ERRCODE = %K_ERROR_NOMEM;
     1346     8324    2           ALTRETURN;
     1347     8325    2           END;
     1348     8326
     1349     8327    1      FRAG_HDR.SEQ_SBIN = -1;
     1350     8328
     1351     8329    1      KN$TCTX.SEND_HEAD$ = FRAG$;
     1352     8330    1      KN$TCTX.SEND_TAIL$ = FRAG$;
     1353     8331
     1354     8332    1      TPDU$ = PINCRW(FRAG$,SIZEW(FRAG_HDR));
     1355     8333    1      B$TPDU_C.LI = THDR_SZ - 1;
     1356     8334    1      B$TPDU_C.SRC_REF = KN$TCTX.SRC_REF;
     1357     8335    1      B$TPDU_C.DST_REF = KN$TCTX.DST_REF;
     1358     8336    1      B$TPDU_C.MBZ = 0;
     1359     8337
     1360     8338    1      IF ENTRY_SWITCH = %K_TPDU_TYPE_DR
     1361     8339    2      THEN DO;
     1362     8340    2           FRAG_HDR.SEQ = 0;
     1363     8341    2           B$TPDU_DR.TYPE = %K_TPDU_TYPE_DR;
     1364     8342    2           B$TPDU_DR.REASON = KN$TCTX.REASON;
     1365     8343    2           B$TPDU_DR.MBZ = 0;
     1366     8344
     1367     8345    2           DPTR$ = PINCRC(TPDU$, SIZEC(K$TPDU_DR) ); /*init options ptr*/
     1368     8346
     1369     8347    2           IF KN$TCTX.CLASS=4 OR KN$TCTX.CLASS=2
     1370     8348    3           THEN DO;
     1371     8349    3                DPTR$->CHR3BSD = ADDR(PARM_HDRS.CLR_INFO)->CHR3BSD;
     1372     8350    3                DPTR$->K$TPARM_VERSION.VERS = KN$TCTX.ERR;
PL6.E3A0      #004=KNT$SEND_TPDU File=KNT$SEND.:E05TSI                           WED 07/30/97 01:13 Page:166
     1373     8351    3                DPTR$ = PINCRC(DPTR$, SIZEC(K$TPARM_VERSION) );
     1374     8352    3                END;
     1375     8353
     1376     8354    2           IF              TPDU_DR_SWITCH=1/*if host*/
     1377     8355    3           THEN DO;
     1378     8356    3                IF KN$TCTX.HOST_REF ~= 0
     1379     8357    4                THEN DO;
     1380     8358    4                     B$TPDU_DR.DST_REF = KN$TCTX.HOST_REF;
     1381     8359    4                     KN$NETPARM.NODE = KN$TCTX.HOST_NODE;
     1382     8360    4                     CALL I$SEND_TO_HOST
     1383     8361    5                     WHENALTRETURN DO;
     1384     8362                            /*N* leave the host hanging for now */
     1385     8363    5                          END;
     1386     8364    4                     END;
     1387     8365
     1388     8366    3                RETURN;
     1389     8367    3                END;
     1390     8368
     1391     8369    2           GOTO CHK_CHKSUM;
     1392     8370    2           END;
     1393     8371
     1394     8372    1      B$TPDU_C.TYPE = ENTRY_SWITCH;        /* set either CR or CC                */
     1395     8373
     1396     8374    1      B$TPDU_C.CLASS = KN$TCTX.CLASS;
     1397     8375    1      B$TPDU_C.EXT_FMT_FLAG = KN$TCTX.OPTION.EXTENDED;
     1398     8376
     1399     8377    1      IF KN$TCTX.CLASS = 0
     1400     8378    1      THEN B$TPDU_C.CDT = 0;
     1401     8379    2      ELSE DO;
     1402     8380    2           IF KN$TCTX.RCV_WINDOW_SZ > 15
     1403     8381    2           THEN B$TPDU_C.CDT = 15;
     1404     8382    2           ELSE B$TPDU_C.CDT = KN$TCTX.RCV_WINDOW_SZ;
     1405     8383    2           END;
     1406     8384
     1407     8385        /* Initialize the options pointer.
     1408     8386        */
     1409     8387    1      DPTR$ = PINCRC(TPDU$, SIZEC(K$TPDU_CR_CC) );
PL6.E3A0      #004=KNT$SEND_TPDU File=KNT$SEND.:E05TSI                           WED 07/30/97 01:13 Page:167
     1410     8388
     1411     8389        /* Build the B$TPDU_size parameter.
     1412     8390        */
     1413     8391    1      DPTR$->CHR2BSD = ADDR(PARM_HDRS.SIZE)->CHR2BSD;
     1414     8392    1      DPTR$->K$TPARM_TPDUSZ.SIZE = KN$TCTX.TPDUSZ_PARM;
     1415     8393    1      DPTR$ = PINCRC(DPTR$, SIZEC(K$TPARM_TPDUSZ));
     1416     8394
     1417     8395        /* Build the TSAP parameter.
     1418     8396           If building connect request, KN$TCTX.DST_TSAP is called_tsap parameter.
     1419     8397           If building connect confirm, KN$TCTX.DST_TSAP is calling_tsap parameter.
     1420     8398
     1421     8399           If building connect request, KN$TCTX.SRC_TSAP is calling_tsap parameter.
     1422     8400           If building connect confirm, KN$TCTX.SRC_TSAP is called_tsap parameter.
     1423     8401        */
     1424     8402    1      ITEMP1 = KN$TCTX.DST_TSAP.LEN;
     1425     8403    1      IF ITEMP1 > 0
     1426     8404    2      THEN DO;
     1427     8405    2           IF ENTRY_SWITCH = %K_TPDU_TYPE_CR
     1428     8406    2           THEN DPTR$->K$TPARM_TSAP_ID.CODE = %K_TPARM_CALLED_TSAP;
     1429     8407    2           ELSE DPTR$->K$TPARM_TSAP_ID.CODE = %K_TPARM_CALLING_TSAP;
     1430     8408
     1431     8409    2           DPTR$->K$TPARM_TSAP_ID.LEN = KN$TCTX.DST_TSAP.LEN;
     1432     8410    2           ADDR(DPTR$->K$TPARM_TSAP_ID.ID)->B$CHAR = ADDR(KN$TCTX.DST_TSAP.TSAP)->
              8410                    B$CHAR;
     1433     8411    2           DPTR$ = PINCRC(DPTR$,ITEMP1+2);
     1434     8412    2           END;
     1435     8413
     1436     8414    1      ITEMP1 = KN$TCTX.SRC_TSAP.LEN;
     1437     8415    1      IF ITEMP1 > 0
     1438     8416    2      THEN DO;
     1439     8417    2           IF ENTRY_SWITCH = %K_TPDU_TYPE_CR
     1440     8418    2           THEN DPTR$->K$TPARM_TSAP_ID.CODE = %K_TPARM_CALLING_TSAP;
     1441     8419    2           ELSE DPTR$->K$TPARM_TSAP_ID.CODE = %K_TPARM_CALLED_TSAP;
     1442     8420
     1443     8421    2           DPTR$->K$TPARM_TSAP_ID.LEN = KN$TCTX.SRC_TSAP.LEN;
     1444     8422    2           ADDR(DPTR$->K$TPARM_TSAP_ID.ID)->B$CHAR = ADDR(KN$TCTX.SRC_TSAP.TSAP)->
              8422                    B$CHAR;
PL6.E3A0      #004=KNT$SEND_TPDU File=KNT$SEND.:E05TSI                           WED 07/30/97 01:13 Page:168
     1445     8423    2           DPTR$ = PINCRC(DPTR$,ITEMP1+2);
     1446     8424    2           END;
     1447     8425
     1448     8426    1      IF KN$TCTX.CLASS = 0
     1449     8427    1      THEN GOTO APPEND_SHDR;
     1450     8428
     1451     8429        /* Build the options parameter.
     1452     8430        */
     1453     8431    1      DPTR$->CHR3BSD = ADDR(PARM_HDRS.OPTION)->CHR3BSD;
     1454     8432
     1455     8433    1      IF SAVE_CHKSUM = '0'B
     1456     8434    1      THEN DPTR$->K$TPARM_OPTION.CHKSUM = '1'B;
     1457     8435    1      IF KN$TCTX.OPTION.EXPEDITED ~= '0'B
     1458     8436    1      THEN DPTR$->K$TPARM_OPTION.EXPD = '1'B;
     1459     8437
     1460     8438    1      DPTR$ = PINCRC(DPTR$, SIZEC(K$TPARM_OPTION));
     1461     8439
     1462     8440        /* Build the altclass and version parameters if this is a TPDU_CR.
     1463     8441        */
     1464     8442    1      IF ENTRY_SWITCH = %K_TPDU_TYPE_CR
     1465     8443    2      THEN DO;
     1466     8444        /*N*    Build the altclass parameter   */
     1467     8445    2           DPTR$->CHR3BSD = ADDR(PARM_HDRS.VERS)->CHR3BSD;
     1468     8446    2           DPTR$ = PINCRC(DPTR$, SIZEC(K$TPARM_VERSION));
     1469     8447    2           END;
     1470     8448
     1471     8449        /* Build the checksum parameter.
     1472     8450        */
     1473     8451    1   CHK_CHKSUM: ;
     1474     8452    1      IF KN$TCTX.OPTION.CHKSUM ~= '0'B
     1475     8453    2      THEN DO;
     1476     8454    2           DPTR$->CHR4BSD = ADDR(K_CKSUM_INIT)->CHR4BSD;
     1477     8455    2           DPTR$ = PINCRC(DPTR$, SIZEC(K$TPARM_CHKSUM));
     1478     8456    2           CHKOFF = POFFC(DPTR$,TPDU$) - 1;
     1479     8457    2           END;
     1480     8458
     1481     8459        /* Finally, append the user data after the transport header.
PL6.E3A0      #004=KNT$SEND_TPDU File=KNT$SEND.:E05TSI                           WED 07/30/97 01:13 Page:169
     1482     8460        */
     1483     8461    1   APPEND_SHDR: ;
     1484     8462    1      IF KN$NETPARM.SHDRSZ > 0
     1485     8463    2      THEN DO;
     1486     8464    2           ITEMP1 = KN$NETPARM.SHDRSZ;
     1487     8465    2           DPTR$->B$CHAR = KN$NETPARM.SHDR$->B$CHAR_ALGN;
     1488     8466    2           DPTR$ = PINCRC(DPTR$, KN$NETPARM.SHDRSZ);
     1489     8467    2           END;
     1490     8468
     1491     8469    1      IF KN$NETPARM.UHDRSZ > 0
     1492     8470    2      THEN DO;
     1493     8471    2           ITEMP1 = KN$NETPARM.UHDRSZ;
     1494     8472    2           DPTR$->B$CHAR = KN$NETPARM.UHDR$->B$CHAR_ALGN;
     1495     8473    2           DPTR$ = PINCRC(DPTR$, KN$NETPARM.UHDRSZ);
     1496     8474    2           END;
     1497     8475
     1498     8476    1      IF KN$NETPARM.MSGSZ > 0
     1499     8477    2      THEN DO;
     1500     8478    2           ITEMP1 = KN$NETPARM.MSGSZ;
     1501     8479    2           DPTR$->B$CHAR = KN$NETPARM.MSG$->B$CHAR;
     1502     8480    2           END;
     1503     8481
     1504     8482    1      IF KN$TCTX.OPTION.CHKSUM
     1505     8483    2      THEN DO;
     1506     8484    2           IF ENTRY_SWITCH = %K_TPDU_TYPE_CR
     1507     8485    2           THEN KN$TCTX.OPTION.CHKSUM = SAVE_CHKSUM;
     1508     8486    2           GOTO BUILD_CHKSUM;
     1509     8487    2           END;
     1510     8488
     1511     8489    1      ELSE GOTO SEND_TO_NET;
     1512     8490
     1513     8491        %EJECT;
PL6.E3A0      #004=KNT$SEND_TPDU File=KNT$SEND.:E05TSI                           WED 07/30/97 01:13 Page:170
     1514     8492        /*F* NAME: KNT$SEND_AK - Send acknowledgement TPDU
     1515     8493
     1516     8494        Called from KNT$DSESSION, KNT$RECV and KNT$TTIMER.
     1517     8495        */
     1518     8496
     1519     8497    1   KNT$SEND_AK: ENTRY(KN$NETPARM)  ALTRET;
     1520     8498    1      TPDU_AK_SWITCH = 0;
     1521     8499    1      GOTO COMMON_AK;
     1522     8500
     1523     8501    1   KNT$SEND_AK_FCC: ENTRY(KN$NETPARM) ALTRET;
     1524     8502    1      TPDU_AK_SWITCH= 1;
     1525     8503
     1526     8504    1   COMMON_AK: ;
     1527     8505    1      CTX$ = KN$NETPARM.TCTX$;
     1528     8506    1      ENTRY_SWITCH = %K_TPDU_TYPE_AK;
     1529     8507
     1530     8508    1      IF KN$TCTX.CLASS~=4 AND KN$TCTX.OPTION.CLASS_2_FLOW = '0'B
     1531     8509    2      THEN DO;
     1532     8510    2           CALL SCREECH(KNT_SCODE);
     1533     8511    2           END;
     1534     8512
     1535     8513    1      IF KN$TCTX.LOST_TPDU
     1536     8514    1      THEN CDT = KN$TCTX.RECV_HEAD$->FRAG_HDR.SEQ - KN$TCTX.RECV_LWE;
     1537     8515    1      ELSE CDT = KN$TCTX.RECV_LWE - KN$TCTX.RECV_NEXT;
     1538     8516
     1539     8517    1      IF CDT < 0
     1540     8518    1      THEN CDT = CDT + KN$TCTX.MAXSEQ + 1;
     1541     8519
     1542     8520    1      IF NOT KN$TCTX.LOST_TPDU
     1543     8521    2      THEN DO;
     1544     8522    2           IF CDT = 1 AND KN$TCTX.RCV_WINDOW_SZ = 1
     1545     8523    2           THEN CDT = 1;
     1546     8524    2           ELSE CDT = KN$TCTX.RCV_WINDOW_SZ - CDT;
     1547     8525    2           END;
     1548     8526
     1549     8527    1      TPDU$ = ADDR(K$TPDU);
     1550     8528    1      IF KN$TCTX.OPTION.EXTENDED ~= '0'B
PL6.E3A0      #004=KNT$SEND_TPDU File=KNT$SEND.:E05TSI                           WED 07/30/97 01:13 Page:171
     1551     8529    2      THEN DO;
     1552     8530    2           B$TPDU_AK_EXT.LI = SIZEC(K$TPDU_AK_EXT) -1;
     1553     8531    2           B$TPDU_AK_EXT.CDT = CDT;
     1554     8532    2           B$TPDU_AK_EXT.YR_TU_NR = KN$TCTX.RECV_LWE;
     1555     8533    2           B$TPDU_AK_EXT.MBZ = 0;
     1556     8534    2           END;
     1557     8535    2      ELSE DO;
     1558     8536    2           B$TPDU_AK.LI = SIZEC(K$TPDU_AK) -1;
     1559     8537    2           B$TPDU_AK.CDT = CDT;
     1560     8538    2           B$TPDU_AK.YR_TU_NR = KN$TCTX.RECV_LWE;
     1561     8539    2           END;
     1562     8540
     1563     8541    1      B$TPDU_AK.TYPE = %K_TPDU_TYPE_AK;
     1564     8542
     1565     8543    1      IF TPDU_AK_SWITCH = 1
     1566     8544    2      THEN DO;
     1567     8545    2           DPTR$ = PINCRC(TPDU$, B$TPDU_AK.LI +1);
     1568     8546    2           DPTR$->K$TPARM_FCC = KN$NETPARM.FPT$->K$TPARM_FCC;
     1569     8547    2           B$TPDU_AK.LI = B$TPDU_AK.LI + SIZEC(K$TPARM_FCC);
     1570     8548    2           END;
     1571     8549
     1572     8550    1   SET_ACK_NODE: ;
     1573     8551    1      KN$NETPARM.NODE = KN$TCTX.NODE;
     1574     8552    1      GOTO FINISH_UP;
     1575     8553
     1576     8554        %EJECT;
PL6.E3A0      #004=KNT$SEND_TPDU File=KNT$SEND.:E05TSI                           WED 07/30/97 01:13 Page:172
     1577     8555        /*F* NAME: KNT$SEND_EA - Send expedited data acknowledgement TPDU
     1578     8556
     1579     8557        Called from KNT$RECV.
     1580     8558        */
     1581     8559
     1582     8560    1   KNT$SEND_EA: ENTRY(KN$NETPARM) ALTRET;
     1583     8561    1      CTX$ = KN$NETPARM.TCTX$;
     1584     8562    1      ENTRY_SWITCH = %K_TPDU_TYPE_EA;
     1585     8563
     1586     8564    1      TPDU$ = ADDR(K$TPDU);
     1587     8565    1      IF KN$TCTX.OPTION.EXTENDED ~= '0'B
     1588     8566    2      THEN DO;
     1589     8567    2           B$TPDU_EA_EXT.LI = SIZEC(K$TPDU_EA_EXT) -1;
     1590     8568    2           B$TPDU_EA_EXT.YR_TU_NR = KN$TCTX.RECV_EXPD;
     1591     8569    2           B$TPDU_EA_EXT.MBZ = 0;
     1592     8570    2           END;
     1593     8571
     1594     8572    2      ELSE DO;
     1595     8573    2           B$TPDU_EA.LI = SIZEC(K$TPDU_EA) -1;
     1596     8574    2           B$TPDU_EA.YR_EDTU_NR = KN$TCTX.RECV_EXPD;
     1597     8575    2           END;
     1598     8576
     1599     8577    1      B$TPDU_EA.TYPE = %K_TPDU_TYPE_EA;
     1600     8578    1      B$TPDU_EA.MBZ = 0;
     1601     8579
     1602     8580    1      GOTO SET_ACK_NODE;
     1603     8581
     1604     8582        %EJECT;
PL6.E3A0      #004=KNT$SEND_TPDU File=KNT$SEND.:E05TSI                           WED 07/30/97 01:13 Page:173
     1605     8583        /*F* NAME: KNT$SEND_DC - Send disconnect confirm TPDU
     1606     8584
     1607     8585        Called from KNT$RECV.
     1608     8586        */
     1609     8587    1   KNT$SEND_DC: ENTRY(KN$NETPARM)  ALTRET;
     1610     8588    1      CTX$ = KN$NETPARM.TCTX$;
     1611     8589    1      ENTRY_SWITCH = %K_TPDU_TYPE_DC;
     1612     8590
     1613     8591    1      TPDU$ = ADDR(K$TPDU);
     1614     8592    1      B$TPDU_DC.LI = SIZEC(K$TPDU_DC) -1;
     1615     8593    1      B$TPDU_DC.MBZ = 0;
     1616     8594    1      B$TPDU_DC.SRC_REF = KN$TCTX.SRC_REF;
     1617     8595    1      B$TPDU_DC.TYPE = %K_TPDU_TYPE_DC;
     1618     8596
     1619     8597    1      GOTO FINISH_UP;
     1620     8598
     1621     8599        %EJECT;
PL6.E3A0      #004=KNT$SEND_TPDU File=KNT$SEND.:E05TSI                           WED 07/30/97 01:13 Page:174
     1622     8600        /*F* NAME: KNT$SEND_ER - Send error TPDU
     1623     8601
     1624     8602        This routeine is currently not used.
     1625     8603        */
     1626     8604    1   KNT$SEND_ER: ENTRY(KN$NETPARM) ALTRET;
     1627     8605    1      CTX$ = KN$NETPARM.TCTX$;
     1628     8606    1      ENTRY_SWITCH = %K_TPDU_TYPE_ER;
     1629     8607
     1630     8608    1      TPDU$ = ADDR(K$TPDU);
     1631     8609    1      B$TPDU_ER.LI = SIZEC(K$TPDU_ER) -1;
     1632     8610    1      B$TPDU_ER.MBZ = 0;
     1633     8611    1      B$TPDU_ER.TYPE = %K_TPDU_TYPE_ER;
     1634     8612    1      B$TPDU_ER.REJECT_CAUSE = 1 /* Unimplemented function */;
     1635     8613
     1636     8614    1      GOTO FINISH_UP;
     1637     8615
     1638     8616        %EJECT;
PL6.E3A0      #004=KNT$SEND_TPDU File=KNT$SEND.:E05TSI                           WED 07/30/97 01:13 Page:175
     1639     8617    1   FINISH_UP: ;
     1640     8618    1      CHKOFF = B$TPDU.LI + 4;
     1641     8619
     1642     8620    1      IF KN$TCTX.OPTION.OSI = '0'B
     1643     8621    1      THEN B$TPDU.LI =( ( (B$TPDU.LI +2) /2) * 2) -1;
     1644     8622    1      FRAG_SZ = B$TPDU.LI + 1;
     1645     8623
     1646     8624    1   FINISH_UP2:;
     1647     8625    1      B$TPDU.DST_REF = KN$TCTX.DST_REF;
     1648     8626
     1649     8627    1      IF KN$TCTX.OPTION.CHKSUM ~= '0'B
     1650     8628    2      THEN DO;
     1651     8629    2           B$TPDU.LI = B$TPDU.LI + SIZEC(K$TPARM_CHKSUM);
     1652     8630    2           FRAG_SZ = B$TPDU.LI + 1;
     1653     8631    2           PINCRC(ADDR(B$TPDU),CHKOFF-3)->CHR4BSD = ADDR(K_CKSUM_INIT)->CHR4BSD;
     1654     8632    2   BUILD_CHKSUM:;
     1655     8633    2           CALL KNA$CALC_CHKSUM(TPDU$,FRAG_SZ,CHKOFF);
     1656     8634    2           END;
     1657     8635
     1658     8636    1   SEND_TO_NET:;
     1659     8637    1      CALL I$SEND_TO_NET
     1660     8638    2      WHENALTRETURN DO;
     1661     8639    2           IF ENTRY_SWITCH = %K_TPDU_TYPE_CR
     1662     8640    2             OR ENTRY_SWITCH = %K_TPDU_TYPE_CC
     1663     8641    2             OR ENTRY_SWITCH = %K_TPDU_TYPE_DR
     1664     8642    2           THEN GOTO NOQ_4BUFFERED;
     1665     8643
     1666     8644    3           ELSE DO;
     1667     8645                     /*N* cant send non-buffered tpdu*/
     1668     8646    3                END;
     1669     8647
     1670     8648    2           END/*altret from knn$send*/;
     1671     8649
     1672     8650    1      IF ENTRY_SWITCH = %K_TPDU_TYPE_AK
     1673     8651    2      THEN DO;
     1674     8652    2           IF TPDU_AK_SWITCH = 0
     1675     8653    2           THEN KN$TCTX.TMR_WINDOW.INTERVAL = (KNT_WINDOW_TIMER *15) /2;
PL6.E3A0      #004=KNT$SEND_TPDU File=KNT$SEND.:E05TSI                           WED 07/30/97 01:13 Page:176
     1676     8654    2           ELSE KN$TCTX.TMR_WINDOW.INTERVAL = (KNT_FCCWINDOW_TIMER *15) /2;
     1677     8655    2           IF KN$TCTX.CLASS = 4
     1678     8656    2           THEN CALL GHS$SET_TMR (KN$TCTX.TMR_WINDOW);
     1679     8657    2           IF NOT KN$TCTX.LOST_TPDU
     1680     8658    3           THEN DO;
     1681     8659    3                KN$TCTX.RECV_UWE = KN$TCTX.RECV_LWE + CDT;
     1682     8660    3                IF KN$TCTX.RECV_UWE > KN$TCTX.MAXSEQ
     1683     8661    3                THEN KN$TCTX.RECV_UWE = KN$TCTX.RECV_UWE - KN$TCTX.MAXSEQ - 1;
     1684     8662    3                END;
     1685     8663    2           END;
     1686     8664
     1687     8665    1      RETURN;
     1688     8666
     1689     8667        %EJECT;
PL6.E3A0      #004=KNT$SEND_TPDU File=KNT$SEND.:E05TSI                           WED 07/30/97 01:13 Page:177
     1690     8668        /*I* NAME: I$SEND_TO_NET
     1691     8669
     1692     8670             PURPOSE: To provide the common setup and call to network.
     1693     8671        */
     1694     8672
     1695     8673    1   I$SEND_TO_NET: PROC ALTRET;
     1696     8674
     1697     8675    2      SEND_DIRECTION = 0;
     1698     8676    2      GOTO COMMON_SEND;
     1699     8677
     1700     8678    2   I$SEND_TO_HOST: ENTRY ALTRET;
     1701     8679    2      SEND_DIRECTION = 1;
     1702     8680
     1703     8681    2   COMMON_SEND:
     1704     8682    2      KN@NETPARM = KN_NETPARM_INIT;
     1705     8683    2      KN@NETPARM.TCTX$ = CTX$;
     1706     8684    2      KN@NETPARM.TCTX_ID = KN$TCTX.SRC_REF;
     1707     8685    2      KN@NETPARM.THDR$ = TPDU$;
     1708     8686    2      KN@NETPARM.THDRSZ = FRAG_SZ;
     1709     8687    2      KN@NETPARM.NODE = KN$NETPARM.NODE;
     1710     8688
     1711     8689    2      KN@NETPARM.FUNCTION = %KN_FCN_DATA;
     1712     8690
     1713     8691    2      IF SEND_DIRECTION = 1
     1714     8692    2      THEN GOTO SEND_TO_HOST;
     1715     8693
     1716     8694    2      IF KN$TCTX.OPTION.OSI
     1717     8695    3      THEN DO;
     1718     8696    3           KN@NETPARM.FUNCTION = %K_NDATA;
     1719     8697    3           KN@NETPARM.SRC_ADDR$ = ADDR(KN$TCTX.SRC_NSAP);
     1720     8698    3           KN@NETPARM.DST_ADDR$ = ADDR(KN$TCTX.DST_NSAP);
     1721     8699    3           END;
     1722     8700
     1723     8701    2      IF KN$TCTX.OPTION.CONS
     1724     8702    3      THEN DO;
     1725     8703    3           KN@NETPARM.LDCT$ = KN$LDCT$(KN$TCTX.LDCTX#);
     1726     8704    3           CALL KNH$SEND(KN@NETPARM)
PL6.E3A0      #004=KNT$SEND_TPDU File=KNT$SEND.:E05TSI                           WED 07/30/97 01:13 Page:178
     1727     8705    4           WHENALTRETURN DO;
     1728     8706    4                ALTRETURN;
     1729     8707    4                END;
     1730     8708    3           END;
     1731     8709
     1732     8710    3      ELSE DO;
     1733     8711    3   SEND_TO_HOST:
     1734     8712    3           KN@NETPARM.LDCT$ = KN$NETPARM.LDCT$;
     1735     8713    3           CALL KNN$SEND(KN@NETPARM)
     1736     8714    4           WHENALTRETURN DO;
     1737     8715    4                ALTRETURN;
     1738     8716    4                END;
     1739     8717    3           END;
     1740     8718
     1741     8719    2      IF KN$TCTX.OPTION.TRACE
     1742     8720    2      THEN GOTO LOG_IT;
     1743     8721
     1744     8722    2      IF ENTRY_SWITCH~=%K_TPDU_TYPE_DT AND ENTRY_SWITCH~=%K_TPDU_TYPE_AK
     1745     8723    3      THEN DO;
     1746     8724    3   LOG_IT:
     1747     8725    3           IF ENTRY_SWITCH = %K_TPDU_TYPE_DR
     1748     8726    4           THEN DO;
     1749     8727    4                IF TPDU_DR_SWITCH = 0
     1750     8728    4                THEN GOTO LOG_SEND;
     1751     8729    4                ELSE CALL KNT$TR_FHOST(KN@NETPARM);
     1752     8730    4                END;
     1753     8731    4           ELSE DO;
     1754     8732    4   LOG_SEND:
     1755     8733    4                CALL KNT$TR_SEND(KN@NETPARM);
     1756     8734    4                END;
     1757     8735    3           END;
     1758     8736
     1759     8737    2      RETURN;
     1760     8738
     1761     8739    2   END I$SEND_TO_NET;
     1762     8740    1   END KNT$SEND_TPDU;
     1763     8741        %EOD;
PL6.E3A0      #004=KNT$SEND_TPDU File=KNT$SEND.:E05TSI                           WED 07/30/97 01:13 Page:179

PL6.E3A0      #004=KNT$SEND_TPDU File=KNT$SEND.:E05TSI                           WED 07/30/97 01:13 Page:180
--  Include file information  --

   GH_SCHD_M.:E05TOU  is referenced.
   KNH_MACRO_C.:E05TOU  is referenced.
   K_INTERFACE_M.:E05TOU  is referenced.
   K_TRANSPORT_M.:E05TOU  is referenced.
   K_TRANSPORT_E.:E05TOU  is referenced.
   KN_DATA_M.:E05TOU  is referenced.
   K_ADDRESS_M.:E05TOU  is referenced.
   G_LCP6_E.:E05TOU  was found in the system file and is never referenced.
   GT_LCP6_M.:E05TOU  was found in the system file and is never referenced.
   KI_CP6.:E05TOU  was found in the system file and is never referenced.
   GF_LCP6_M.:E05TOU  was found in the system file and is never referenced.
   GM_LCP6_M.:E05TOU  was found in the system file and is never referenced.
   GU_LCP6_M.:E05TOU  was found in the system file and is never referenced.
   GJ_LCP6_M.:E05TOU  was found in the system file and is never referenced.
   GH_LCP6_M.:E05TOU  was found in the system file and is never referenced.
      No diagnostics issued in procedure KNT$SEND_TPDU.

   Procedure KNT$SEND_TPDU requires 1915 words for executable code.
   Procedure KNT$SEND_TPDU requires 112 words of local(AUTO) storage.

PL6.E3A0      #004=KNT$SEND_TPDU File=KNT$SEND.:E05TSI                           WED 07/30/97 01:13 Page:181

 Object Unit name= KNT$SEND_TPDU                              File name= KNT$SEND.:E05TOU
 UTS= JUL 30 '97 01:13:09.80 WED                              Compiler= PL-6/E31         Sev=      00
 SharedLib= :SHARED_LCP6_SYSTEM                               Alt SharedLib=


    ****  Control sections  ****

 Sect   Type Bound  Init  Size HexSiz  Section name
    0  RoData even  UTS      6      6  KNT$SEND_TPDU
    1   Proc  even  none  1915    77B  KNT$SEND_TPDU
    2  RoData even  none     2      2  KNT$SEND_TPDU

    ****  Entry defs  ****

                              Check   Calling
                             calling  sequence
  Sect HexLoc Primary Altret sequence   type   Parms  Name
     1      0   yes    yes     yes      Std        1  KNT$SEND_TPDU
     1      7          yes     yes      Std        1  KNT$SEND_DT
     1     CF          yes     yes      Std        1  KNT$SEND_ED
     1    117          yes     yes      Std        1  KNT$SEND_DR
     1    120          yes     yes      Std        1  KNT$SEND_DR_HOST
     1    16C          yes     yes      Std        1  KNT$SEND_CR
     1    189          yes     yes      Std        1  KNT$SEND_CC
     1    4C2          yes     yes      Std        1  KNT$SEND_AK
     1    4CB          yes     yes      Std        1  KNT$SEND_AK_FCC
     1    5A2          yes     yes      Std        1  KNT$SEND_EA
     1    5DA          yes     yes      Std        1  KNT$SEND_DC
     1    600          yes     yes      Std        1  KNT$SEND_ER
PL6.E3A0      #004=KNT$SEND_TPDU File=KNT$SEND.:E05TSI                           WED 07/30/97 01:13 Page:182

  ****  Entry refs  ****

         Check        Calling
        calling       sequence
Altret sequence SRef   type   Args  Name
         yes           Std       0 KNT$UNQ_BUFFER
         yes           Std       1 SCREECH
         yes           Std       1 KNT$RLS_CHAIN
         yes           Std       1 GHS$SET_TMR
         yes           Std       2 KNT$RELBUF
 yes     yes           Std       3 KNT$GET_SBUF
 yes     yes           Std       3 KNA$CALC_CHKSUM
 yes     yes           Std       1 KNH$SEND
 yes     yes           Std       1 KNN$SEND
         yes           Std       1 KNT$TR_FHOST
         yes           Std       1 KNT$TR_SEND
                       nStd      0 X6A_AUTO_1
                       nStd      0 X6A_AALT
                       nStd      0 X6A_ARET

  ****  Data refs  ****

  Flags:  r = read only, s = secondary
Flgs Name                             Flgs Name                             Flgs Name
     KN_NETPARM_INIT                       K_CKSUM_INIT                          KNT_WAIT_COUNT
     KNT_WINDOW_TIMER                      KNT_FCCWINDOW_TIMER                   KN_DCT$$
     KNT_SCODE                        r    G$ROS$
PL6.E3A0      #004=KNT$SEND_TPDU File=KNT$SEND.:E05TSI                           WED 07/30/97 01:13 Page:183


      991        1        /*M* KNT$SEND_TPDU - Compose and send most of the TPDUs. */
      992        2        /*T***********************************************************/
      993        3        /*T*                                                         */
      994        4        /*T* Copyright (c) Bull HN Information Systems Inc., 1997    */
      995        5        /*T*                                                         */
      996        6        /*T***********************************************************/
      997        7        /*X* PLM=3,IND=5,ENU=0,ECU=0     */
      998        8
      999        9        /*P* NAME: KNT$SEND_TPDU
     1000       10
     1001       11        PURPOSE:  To compose and send to the peers most of the TPDUs.
     1002       12
     1003       13        DESCRIPTION:
     1004       14
     1005       15        For SEND_DT and SEND_ED we call KNN$SEND passing the previously
     1006       16        composed TDPU in the transport buffer.
     1007       17
     1008       18        For SEND_DR, SEND_CR, and SEND_CC we get a transport buffer, assemble
     1009       19        the total TPDU in it and call KNN$SEND.
     1010       20
     1011       21        For SEND_AK, SEND_EA, SEND_DC, and SEND_ER we assemble the TDPU in
     1012       22        auto and call KNN$SEND.
     1013       23        */
     1014       24        KNT$SEND_TPDU: PROC(KN$NETPARM)  ALTRET;

     24   1 000000  D380 0000 0000  xent KNT$SEND_TPDU   LNJ,B5   X6A_AUTO_1
          1 000003       0070 0001                       DC       112,1
          1 000005  0F81 0006                            B        s:8118,PREL

     1015       25
     1016       26        %INCLUDE K_ADDRESS_M;
     1017      529        %INCLUDE KN_DATA_M;
     1018     2315        %INCLUDE K_TRANSPORT_E;
     1019     2640        %INCLUDE K_TRANSPORT_M;
     1020     4424        %INCLUDE K_INTERFACE_M;
     1021     4833        %INCLUDE KNH_MACRO_C;
PL6.E3A0      #004=KNT$SEND_TPDU File=KNT$SEND.:E05TSI                           WED 07/30/97 01:13 Page:184
     1022     5116        %INCLUDE GH_SCHD_M;
     1023     5260
     1024     5261                                                /* Input parameters                   */
     1025     5262        %KN$NETPARM;
     1026     5415
     1027     5416                                                /* Auto Storage                       */
     1028     5417    1   DCL CTX$ PTR;
     1029     5418    1   DCL FRAG$ PTR;
     1030     5419    1   DCL TPDU$ PTR;
     1031     5420    1   DCL DPTR$ CPTR;
     1032     5421    1   DCL FRAG_SZ SBIN;
     1033     5422    1   DCL THDR_SZ SBIN;
     1034     5423    1   DCL SPDU_SZ SBIN;
     1035     5424    1   DCL ITEMP1 SBIN;
     1036     5425    1   DCL CDT SBIN(32);
     1037     5426    1   DCL ENTRY_SWITCH SBIN;
     1038     5427    1   DCL TPDU_DR_SWITCH UBIN;                /* 0=normal, 1=host*/
     1039     5428    1   DCL TPDU_AK_SWITCH UBIN;                /* 0=normal, 1=with fcc               */
     1040     5429    1   DCL SEND_DIRECTION UBIN;                /* 0=normal, 1=send host*/
     1041     5430    1   DCL CHKOFF SBIN;
     1042     5431    1   DCL SAVE_CHKSUM BIT(1) ALIGNED;
     1043     5432
     1044     5433        /* Reserve space in auto for the largest TPDU.
     1045     5434        */
     1046     5435        %K$TPDU_CR_CC(NAME=K$TPDU,STCLASS=AUTO,LAST=",");
     1047     5504        %K$TPARM_VERSION(NAME=ALLOC_VRS,LVL=2,LAST=",");
     1048     5540        %K$TPARM_TPDUSZ(NAME=ALLOC_TPDUSZ,LVL=2,LAST=",");
     1049     5579        %K$TPARM_TSAP_ID(NAME=ALLOC_TSAP,LVL=2,LAST=",");
     1050     5616        %K$TPARM_TSAP_ID(NAME=ALLOC_TSAP1,LVL=2,LAST=",");
     1051     5653        %K$TPARM_CHKSUM(NAME=ALLOC_CHK,LVL=2,LAST=",");
     1052     5693        %K$TPARM_OPTION(NAME=ALLOC_OPT,LVL=2,LAST=";");
     1053     5740
     1054     5741        %KN$NETPARM (NAME=KN@NETPARM, STCLASS=AUTO);
     1055     5894
     1056     5895                                                /* External Procedures                */
     1057     5896    1   DCL KNT$GET_SBUF ENTRY(3) ALTRET;
     1058     5897    1   DCL KNT$RELBUF ENTRY(2);
PL6.E3A0      #004=KNT$SEND_TPDU File=KNT$SEND.:E05TSI                           WED 07/30/97 01:13 Page:185
     1059     5898    1   DCL KNT$RLS_CHAIN ENTRY(1);
     1060     5899    1   DCL KNT$UNQ_BUFFER ENTRY;
     1061     5900    1   DCL KNA$CALC_CHKSUM ENTRY(3) ALTRET;
     1062     5901    1   DCL KNN$SEND ENTRY(1) ALTRET;
     1063     5902    1   DCL KNH$SEND ENTRY(1) ALTRET;
     1064     5903    1   DCL GHS$SET_TMR ENTRY(1);
     1065     5904    1   DCL GHS$CANCEL_TMR ENTRY(1);
     1066     5905    1   DCL KNT$TR_SEND ENTRY(1);
     1067     5906    1   DCL KNT$TR_FHOST ENTRY(1);
     1068     5907    1   DCL SCREECH ENTRY(1);
     1069     5908
     1070     5909                                                /* BASED Data                         */
     1071     5910        %K$TCTX (NAME=KN$TCTX, STCLASS="BASED(CTX$)");
     1072     6817
     1073     6818        %K$TPDU_GENERIC (NAME=B$TPDU, STCLASS="BASED(TPDU$)", ALGN=CALIGNED);
     1074     6878        %K$TPDU_AK_EXT(NAME=B$TPDU_AK_EXT, STCLASS="BASED(TPDU$)", ALGN=ALIGNED);
     1075     6922        %K$TPDU_AK(NAME=B$TPDU_AK, STCLASS="BASED(TPDU$)", ALGN=ALIGNED);
     1076     6970        %K$TPDU_DC(NAME=B$TPDU_DC, STCLASS="BASED(TPDU$)", ALGN=ALIGNED);
     1077     7009        %K$TPDU_DR(NAME=B$TPDU_DR, STCLASS="BASED(TPDU$)", ALGN=ALIGNED);
     1078     7052        %K$TPDU_CR_CC(NAME=B$TPDU_C, STCLASS="BASED(TPDU$)", ALGN=ALIGNED);
     1079     7121        %K$TPDU_EA_EXT(NAME=B$TPDU_EA_EXT, STCLASS="BASED(TPDU$)", ALGN=ALIGNED);
     1080     7147        %K$TPDU_EA(NAME=B$TPDU_EA, STCLASS="BASED(TPDU$)", ALGN=ALIGNED);
     1081     7173        %K$TPDU_ER(NAME=B$TPDU_ER, STCLASS="BASED(TPDU$)", ALGN=ALIGNED);
     1082     7212
     1083     7213        %K$FRAG_HDR(NAME=FRAG_HDR, STCLASS="BASED(FRAG$)");
     1084     7296
     1085     7297        /* Generate the structures for sizec values */
     1086     7298        %K$TPDU_CR_CC (ALGN=CALIGNED);
     1087     7367        %K$TPDU_DR (ALGN=CALIGNED);
     1088     7410        %K$TPDU_DC (ALGN=CALIGNED);
     1089     7449        %K$TPDU_AK (ALGN=CALIGNED);
     1090     7497        %K$TPDU_AK_EXT (ALGN=CALIGNED);
     1091     7541        %K$TPDU_EA (ALGN=CALIGNED);
     1092     7567        %K$TPDU_EA_EXT (ALGN=CALIGNED);
     1093     7593        %K$TPDU_ER (ALGN=CALIGNED);
     1094     7632        %K$TPARM_CHKSUM (ALGN=CALIGNED);
     1095     7672        %K$TPARM_VERSION (ALGN=CALIGNED);
PL6.E3A0      #004=KNT$SEND_TPDU File=KNT$SEND.:E05TSI                           WED 07/30/97 01:13 Page:186
     1096     7708        %K$TPARM_TPDUSZ (ALGN=CALIGNED);
     1097     7747        %K$TPARM_TSAP_ID (ALGN=CALIGNED);
     1098     7784        %K$TPARM_OPTION (ALGN=CALIGNED);
     1099     7831        %K$TPARM_CLR_INFO (ALGN=CALIGNED);
     1100     7880        %K$TPARM_FCC (ALGN=CALIGNED);
     1101     7927
     1102     7928    1   DCL CHR4BSD CHAR(4) BASED CALIGNED;
     1103     7929    1   DCL CHR3BSD CHAR(3) BASED CALIGNED;
     1104     7930    1   DCL CHR2BSD CHAR(2) BASED CALIGNED;
     1105     7931    1   DCL B$CHAR CHAR(ITEMP1) BASED CALIGNED;
     1106     7932    1   DCL B$CHAR_ALGN CHAR(ITEMP1) BASED ALIGNED;
     1107     7933
     1108     7934    1   DCL KN$LDCT$(0:0) PTR BASED(KN_DCT$$);
     1109     7935                                                /* External Data                      */
     1110     7936        %KN$NETPARM (NAME=KN_NETPARM_INIT, STCLASS=SYMREF);
     1111     8089    1   DCL K_CKSUM_INIT CHAR(4) SYMREF;
     1112     8090    1   DCL KNT_WAIT_COUNT UBIN SYMREF;
     1113     8091    1   DCL KNT_WINDOW_TIMER UBIN SYMREF;
     1114     8092    1   DCL KNT_FCCWINDOW_TIMER UBIN SYMREF;
     1115     8093    1   DCL KN_DCT$$ PTR SYMREF;
     1116     8094    1   DCL KNT_SCODE UBIN(32) SYMREF;
     1117     8095
     1118     8096    1   DCL 1 PARM_HDRS CONSTANT,
     1119     8097    1         2 VERS UBIN BYTE CALIGNED INIT(%K_TPARM_VERSION),
     1120     8098    1         2 * UBIN BYTE CALIGNED INIT(1),
     1121     8099    1         2 * UBIN BYTE CALIGNED INIT(1),
     1122     8100    1         2 SIZE UBIN BYTE CALIGNED INIT(%K_TPARM_TPDUSZ),
     1123     8101    1         2 * UBIN BYTE CALIGNED INIT(1),
     1124     8102    1         2 OPTION UBIN BYTE CALIGNED INIT(%K_TPARM_OPTION),
     1125     8103    1         2 * UBIN BYTE CALIGNED INIT(1),
     1126     8104    1         2 * UBIN BYTE CALIGNED INIT(0),
     1127     8105    1         2 CLR_INFO UBIN BYTE CALIGNED INIT(%K_TPARM_CLR_INFO),
     1128     8106    1         2 * UBIN BYTE CALIGNED INIT(1),
     1129     8107    1         2 * UBIN BYTE CALIGNED INIT(0);
     1130     8108
     1131     8109        %EJECT;
PL6.E3A0      #004=KNT$SEND_TPDU File=KNT$SEND.:E05TSI                           WED 07/30/97 01:13 Page:187
     1132     8110        /*F* NAME: KNT$SEND_DT - Send data TPDU
     1133     8111
     1134     8112        Called from KNT$SEND to forward data sent from session.
     1135     8113        Called from KNT$RECV after an ACK has been received to see if
     1136     8114        buffered tpdus may now be sent on.
     1137     8115
     1138     8116        */
     1139     8117    1   KNT$SEND_DT: ENTRY(KN$NETPARM) ALTRET;

   8117   1 000007  D380 0000 0000  xent KNT$SEND_DT     LNJ,B5   X6A_AUTO_1
          1 00000A       0070 0001                       DC       112,1

     1140     8118    1      ENTRY_SWITCH = %K_TPDU_TYPE_DT;

   8118   1 00000C  6C0F                                 LDV,R6   15
          1 00000D  EF47 0014                            STR,R6   ENTRY_SWITCH,AUTO

     1141     8119    1      CTX$ = KN$NETPARM.TCTX$;

   8119   1 00000F  ECC7 0004                            LDB,B6   @KN$NETPARM,AUTO
          1 000011  DCC6 001B                            LDB,B5   27,B6
          1 000013  DFC7 0006                            STB,B5   CTX$,AUTO

     1142     8120    1      KN$NETPARM.NODE = KN$TCTX.NODE;

   8120   1 000015  D805                                 LDR,R5   ,B5
          1 000016  D570 00FF                            AND,R5   255,IMO
          1 000018  DF46 0015                            STR,R5   21,B6

     1143     8121
     1144     8122    2      DO WHILE ( KN$TCTX.SEND_NOTSENT$ ~= ADDR(NIL) ) AND

   8122   1 00001A  0F81 0093                            B        s:8180,PREL

     1145     8123    2        ( KN$TCTX.SEND_EHEAD$ = ADDR(NIL) ) AND
     1146     8124    2        ( KN$TCTX.STATE = %K_TSTATE_OPEN );
     1147     8125
PL6.E3A0      #004=KNT$SEND_TPDU File=KNT$SEND.:E05TSI                           WED 07/30/97 01:13 Page:188
     1148     8126    2           FRAG$ = KN$TCTX.SEND_NOTSENT$;

   8126   1 00001C  ECC7 0006                            LDB,B6   CTX$,AUTO
          1 00001E  DCC6 003E                            LDB,B5   62,B6
          1 000020  DFC7 0008                            STB,B5   FRAG$,AUTO

     1149     8127
     1150     8128    2           IF KN$TCTX.CLASS=4 OR KN$TCTX.OPTION.CLASS_2_FLOW

   8128   1 000022  E2C6 0005                            LLH,R6   5,B6
          1 000024  6D04                                 CMV,R6   4
          1 000025  0901 0006                            BE       s:8130,PREL
          1 000027  82C6 000C                            LB,'0008'X        12,B6
          1 000029       0008
          1 00002A  0581 0029                            BBF      s:8148,PREL

     1151     8129    3           THEN DO;

     1152     8130    3                IF ( KN$TCTX.SEND_LWE <= KN$TCTX.SEND_UWE )

   8130   1 00002C  8CC6 0032                            LDI      50,B6
          1 00002E  84C6 0034                            SID      52,B6
          1 000030  6981 0003                            BNEZ,R6  s:8130+8,PREL
          1 000032  7901 0003                            BEZ,R7   s:8132,PREL
          1 000034  0601 0014                            BCT      s:8142,PREL

     1153     8131    4                THEN DO;

     1154     8132    4                     IF ( FRAG_HDR.SEQ >= KN$TCTX.SEND_UWE ) OR

   8132   1 000036  8CC5 0002                            LDI      2,B5
          1 000038  84C6 0034                            SID      52,B6
          1 00003A  0601 0007                            BCT      s:8134,PREL
          1 00003C  8CC5 0002                            LDI      2,B5
          1 00003E  84C6 0032                            SID      50,B6
          1 000040  0601 0013                            BCT      s:8148,PREL

PL6.E3A0      #004=KNT$SEND_TPDU File=KNT$SEND.:E05TSI                           WED 07/30/97 01:13 Page:189
     1155     8133    4                       ( FRAG_HDR.SEQ < KN$TCTX.SEND_LWE )
     1156     8134    5                     THEN DO;

     1157     8135    5   NO_SEND_WINDOW:
     1158     8136    5                          KN$TCTX.SERR.DT_NWINDOW = KN$TCTX.SERR.DT_NWINDOW +1;

   8136   1 000042  ECC7 0006            NO_SEND_WINDOW  LDB,B6   CTX$,AUTO
          1 000044  8AC6 0012                            INC      18,B6

     1159     8137    5                          ALTRETURN;

   8137   1 000046  C380 0000 0000  xent                 LNJ,B4   X6A_AALT

     1160     8138    5                          END;
     1161     8139    4                     END;
     1162     8140
     1163     8141    4                ELSE DO;

     1164     8142    4                     IF ( FRAG_HDR.SEQ >= KN$TCTX.SEND_UWE ) AND

   8142   1 000049  8CC5 0002                            LDI      2,B5
          1 00004B  84C6 0034                            SID      52,B6
          1 00004D  0681 0006                            BCF      s:8148,PREL
          1 00004F  8CC5 0002                            LDI      2,B5
          1 000051  84C6 0032                            SID      50,B6
          1 000053  06EF                                 BCF      s:8134,SPREL

     1165     8143    4                       ( FRAG_HDR.SEQ < KN$TCTX.SEND_LWE )
     1166     8144    4                     THEN GOTO NO_SEND_WINDOW;
     1167     8145    4                     END;

     1168     8146    3                END/*do if class4 flow control*/;

     1169     8147
     1170     8148    2           TPDU$ = PINCRW(FRAG$,SIZEW(FRAG_HDR));

   8148   1 000054  CBC5 0008                            LAB,B4   8,B5
PL6.E3A0      #004=KNT$SEND_TPDU File=KNT$SEND.:E05TSI                           WED 07/30/97 01:13 Page:190
          1 000056  CFC7 000A                            STB,B4   TPDU$,AUTO

     1171     8149    2           FRAG_SZ = FRAG_HDR.DATA_BSIZE;

   8149   1 000058  E845 0001                            LDR,R6   1,B5
          1 00005A  EF47 000E                            STR,R6   FRAG_SZ,AUTO

     1172     8150
     1173     8151    2           CALL I$SEND_TO_NET

   8151   1 00005C  E3C0 066F                            LNJ,B6   s:0,PREL
          1 00005E       0003                            DC       s:8152,PREL
          1 00005F  0F81 000C                            B        s:8159,PREL

     1174     8152    3           WHENALTRETURN DO;

     1175     8153    3   NOQ_4BUFFERED:
     1176     8154    3                KN$TCTX.SERR.NOQ = KN$TCTX.SERR.NOQ +1;

   8154   1 000061  ECC7 0006            NOQ_4BUFFERED   LDB,B6   CTX$,AUTO
          1 000063  8AC6 0013                            INC      19,B6

     1177     8155    3                KN$NETPARM.ERRCODE = 0;

   8155   1 000065  DCC7 0004                            LDB,B5   @KN$NETPARM,AUTO
          1 000067  8745 0016                            CL       22,B5

     1178     8156    3                RETURN;

   8156   1 000069  C380 0000 0000  xent                 LNJ,B4   X6A_ARET

     1179     8157    3                END;
     1180     8158
     1181     8159    2           IF KN$TCTX.CLASS = 4

   8159   1 00006C  ECC7 0006                            LDB,B6   CTX$,AUTO
          1 00006E  E2C6 0005                            LLH,R6   5,B6
PL6.E3A0      #004=KNT$SEND_TPDU File=KNT$SEND.:E05TSI                           WED 07/30/97 01:13 Page:191
          1 000070  6D04                                 CMV,R6   4
          1 000071  0981 0016                            BNE      s:8168,PREL

     1182     8160    3           THEN DO;

     1183     8161    3                IF KN$TCTX.SEND_NOTSENT$ = KN$TCTX.SEND_HEAD$

   8161   1 000073  DCC6 003E                            LDB,B5   62,B6
          1 000075  DDC6 003A                            CMB,B5   58,B6
          1 000077  0981 0010                            BNE      s:8168,PREL

     1184     8162    4                THEN DO;

     1185     8163    4                     KN$TCTX.SEND_RETRY_COUNT = 1;

   8163   1 000079  5C01                                 LDV,R5   1
          1 00007A  D7C6 004D                            STH,R5   77,B6

     1186     8164    4                     CALL GHS$SET_TMR (KN$TCTX.TMR_RETRAN);

   8164   1 00007C  CBC6 0050                            LAB,B4   80,B6
          1 00007E  CFC7 006A                            STB,B4   KN@NETPARM+36,AUTO
          1 000080  BBC7 006A                            LAB,B3   KN@NETPARM+36,AUTO
          1 000082  CBF0 0100                            LAB,B4   256,IMO
          1 000084  E380 0000 0000  xent                 LNJ,B6   GHS$SET_TMR
          1 000087       0001                            DC       s:8168,PREL

     1187     8165    4                     END;

     1188     8166    3                END;

     1189     8167
     1190     8168    2           KN$TCTX.SEND_NOTSENT$ = FRAG_HDR.LINK$;

   8168   1 000088  ECC7 0008                            LDB,B6   FRAG$,AUTO
          1 00008A  DCC6 0004                            LDB,B5   4,B6
          1 00008C  CCC7 0006                            LDB,B4   CTX$,AUTO
PL6.E3A0      #004=KNT$SEND_TPDU File=KNT$SEND.:E05TSI                           WED 07/30/97 01:13 Page:192
          1 00008E  DFC4 003E                            STB,B5   62,B4

     1191     8169
     1192     8170    2           IF KN$TCTX.CLASS ~= 4

   8170   1 000090  E2C4 0005                            LLH,R6   5,B4
          1 000092  6D04                                 CMV,R6   4
          1 000093  0901 001A                            BE       s:8180,PREL

     1193     8171    3           THEN DO;

     1194     8172    3                KN$TCTX.SEND_HEAD$ = FRAG_HDR.LINK$;

   8172   1 000095  BCC6 0004                            LDB,B3   4,B6
          1 000097  BFC4 003A                            STB,B3   58,B4

     1195     8173
     1196     8174    3                IF KN$TCTX.SEND_HEAD$ = ADDR(NIL)

   8174   1 000099  8DC4 003A                            CMN      58,B4
          1 00009B  0981 0006                            BNE      s:8177,PREL

     1197     8175    3                THEN KN$TCTX.SEND_TAIL$ = ADDR(NIL);

   8175   1 00009D  AB80 0000 0000                       LAB,B2   0
          1 0000A0  AFC4 003C                            STB,B2   60,B4

     1198     8176
     1199     8177    3                CALL KNT$RELBUF(FRAG$->FRAG_HDR,KN$TCTX);

   8177   1 0000A2  CFC7 006C                            STB,B4   KN@NETPARM+38,AUTO
          1 0000A4  EFC7 006A                            STB,B6   KN@NETPARM+36,AUTO
          1 0000A6  BBC7 006A                            LAB,B3   KN@NETPARM+36,AUTO
          1 0000A8  CBF0 0200                            LAB,B4   512,IMO
          1 0000AA  E380 0000 0000  xent                 LNJ,B6   KNT$RELBUF
          1 0000AD       0001                            DC       s:8180,PREL

PL6.E3A0      #004=KNT$SEND_TPDU File=KNT$SEND.:E05TSI                           WED 07/30/97 01:13 Page:193
     1200     8178    3                END;

     1201     8179
     1202     8180    2           END/*do while*/;

   8180   1 0000AE  ECC7 0006                            LDB,B6   CTX$,AUTO
          1 0000B0  8DC6 003E                            CMN      62,B6
          1 0000B2  0901 0009                            BE       s:8182,PREL
          1 0000B4  8DC6 0040                            CMN      64,B6
          1 0000B6  0981 0005                            BNE      s:8182,PREL
          1 0000B8  E286                                 LLH,R6   ,B6
          1 0000B9  6D05                                 CMV,R6   5
          1 0000BA  0901 FF61                            BE       s:8126,PREL

     1203     8181
     1204     8182    1   UNQ_CHECK: ;

   8182   1                              UNQ_CHECK       null
     1205     8183    1      IF (KN$TCTX.CLASS ~= 4) AND (KNT_WAIT_COUNT ~= 0)

   8183   1 0000BC  E2C6 0005            UNQ_CHECK       LLH,R6   5,B6
          1 0000BE  6D04                                 CMV,R6   4
          1 0000BF  0901 000C                            BE       s:8186,PREL
          1 0000C1  D800 0000 0000  xsym                 LDR,R5   KNT_WAIT_COUNT
          1 0000C4  5901 0007                            BEZ,R5   s:8186,PREL

     1206     8184    1      THEN CALL KNT$UNQ_BUFFER;

   8184   1 0000C6  CBF0 0000                            LAB,B4   0,IMO
          1 0000C8  E380 0000 0000  xent                 LNJ,B6   KNT$UNQ_BUFFER
          1 0000CB       0001                            DC       s:8186,PREL

     1207     8185
     1208     8186    1      RETURN;

   8186   1 0000CC  C380 0000 0000  xent                 LNJ,B4   X6A_ARET

PL6.E3A0      #004=KNT$SEND_TPDU File=KNT$SEND.:E05TSI                           WED 07/30/97 01:13 Page:194
     1209     8187
     1210     8188        %EJECT;
PL6.E3A0      #004=KNT$SEND_TPDU File=KNT$SEND.:E05TSI                           WED 07/30/97 01:13 Page:195
     1211     8189        /*F* NAME: KNT$SEND_ED - Send expidited data TPDU
     1212     8190
     1213     8191        Called from KNT$SEND and KNT$RECV.
     1214     8192        */
     1215     8193    1   KNT$SEND_ED: ENTRY(KN$NETPARM) ALTRET;

   8193   1 0000CF  D380 0000 0000  xent KNT$SEND_ED     LNJ,B5   X6A_AUTO_1
          1 0000D2       0070 0001                       DC       112,1

     1216     8194    1      ENTRY_SWITCH = %K_TPDU_TYPE_ED;

   8194   1 0000D4  6C01                                 LDV,R6   1
          1 0000D5  EF47 0014                            STR,R6   ENTRY_SWITCH,AUTO

     1217     8195    1      CTX$ = KN$NETPARM.TCTX$;

   8195   1 0000D7  ECC7 0004                            LDB,B6   @KN$NETPARM,AUTO
          1 0000D9  DCC6 001B                            LDB,B5   27,B6
          1 0000DB  DFC7 0006                            STB,B5   CTX$,AUTO

     1218     8196    1      KN$NETPARM.NODE = KN$TCTX.NODE;

   8196   1 0000DD  D805                                 LDR,R5   ,B5
          1 0000DE  D570 00FF                            AND,R5   255,IMO
          1 0000E0  DF46 0015                            STR,R5   21,B6

     1219     8197
     1220     8198    1      IF ( KN$TCTX.SEND_ENOTSENT$ ~= ADDR(NIL) ) AND

   8198   1 0000E2  8DC5 0044                            CMN      68,B5
          1 0000E4  0901 002F                            BE       s:8213,PREL
          1 0000E6  CCC5 0044                            LDB,B4   68,B5
          1 0000E8  CDC5 0040                            CMB,B4   64,B5
          1 0000EA  0981 0029                            BNE      s:8213,PREL
          1 0000EC  C285                                 LLH,R4   ,B5
          1 0000ED  4D05                                 CMV,R4   5
          1 0000EE  0981 0025                            BNE      s:8213,PREL
PL6.E3A0      #004=KNT$SEND_TPDU File=KNT$SEND.:E05TSI                           WED 07/30/97 01:13 Page:196

     1221     8199    1        ( KN$TCTX.SEND_ENOTSENT$ = KN$TCTX.SEND_EHEAD$ ) AND
     1222     8200    1        ( KN$TCTX.STATE = %K_TSTATE_OPEN )
     1223     8201    2      THEN DO;

     1224     8202    2           FRAG$ = KN$TCTX.SEND_ENOTSENT$;

   8202   1 0000F0  CFC7 0008                            STB,B4   FRAG$,AUTO

     1225     8203    2           TPDU$ = PINCRW(FRAG$,SIZEW(FRAG_HDR));

   8203   1 0000F2  BBC4 0008                            LAB,B3   8,B4
          1 0000F4  BFC7 000A                            STB,B3   TPDU$,AUTO

     1226     8204    2           FRAG_SZ = FRAG_HDR.DATA_BSIZE;

   8204   1 0000F6  C844 0001                            LDR,R4   1,B4
          1 0000F8  CF47 000E                            STR,R4   FRAG_SZ,AUTO

     1227     8205
     1228     8206    2           CALL I$SEND_TO_NET ALTRET(NOQ_4BUFFERED);

   8206   1 0000FA  E3C0 05D1                            LNJ,B6   s:0,PREL
          1 0000FC       FF65                            DC       s:8152,PREL

     1229     8207
     1230     8208    2           KN$TCTX.SEND_ENOTSENT$ = FRAG_HDR.LINK$;

   8208   1 0000FD  ECC7 0008                            LDB,B6   FRAG$,AUTO
          1 0000FF  DCC6 0004                            LDB,B5   4,B6
          1 000101  CCC7 0006                            LDB,B4   CTX$,AUTO
          1 000103  DFC4 0044                            STB,B5   68,B4

     1231     8209    2           KN$TCTX.SEND_RETRY_COUNT = 1;

   8209   1 000105  6C01                                 LDV,R6   1
          1 000106  E7C4 004D                            STH,R6   77,B4
PL6.E3A0      #004=KNT$SEND_TPDU File=KNT$SEND.:E05TSI                           WED 07/30/97 01:13 Page:197

     1232     8210    2           CALL GHS$SET_TMR (KN$TCTX.TMR_RETRAN);

   8210   1 000108  BBC4 0050                            LAB,B3   80,B4
          1 00010A  BFC7 006A                            STB,B3   KN@NETPARM+36,AUTO
          1 00010C  BBC7 006A                            LAB,B3   KN@NETPARM+36,AUTO
          1 00010E  CBF0 0100                            LAB,B4   256,IMO
          1 000110  E380 0000 0000  xent                 LNJ,B6   GHS$SET_TMR
          1 000113       0001                            DC       s:8213,PREL

     1233     8211    2           END;

     1234     8212
     1235     8213    1      RETURN;

   8213   1 000114  C380 0000 0000  xent                 LNJ,B4   X6A_ARET

     1236     8214
     1237     8215        %EJECT;
PL6.E3A0      #004=KNT$SEND_TPDU File=KNT$SEND.:E05TSI                           WED 07/30/97 01:13 Page:198
     1238     8216        /*F* NAME: KNT$SEND_DR - Send disconnect request TPDU
     1239     8217
     1240     8218        Called from KNT$SEND, KNT$SEND_4HOST, KNT$RECV and KNT$TTIMER.
     1241     8219
     1242     8220        KNT$SEND_DR_HOST is a special entry point to compose and send
     1243     8221        the TPDU_DR to the host node for an intermediate transport connection.
     1244     8222
     1245     8223        Called from KNT$RECV and KNT$TTIMER.
     1246     8224        */
     1247     8225
     1248     8226    1   KNT$SEND_DR: ENTRY(KN$NETPARM) ALTRET;

   8226   1 000117  D380 0000 0000  xent KNT$SEND_DR     LNJ,B5   X6A_AUTO_1
          1 00011A       0070 0001                       DC       112,1

     1249     8227    1      TPDU_DR_SWITCH = 0;

   8227   1 00011C  8747 0015                            CL       TPDU_DR_SWITCH,AUTO

     1250     8228    1      GOTO COMMON_DR;

   8228   1 00011E  0F81 0009                            B        s:8231,PREL

     1251     8229
     1252     8230    1   KNT$SEND_DR_HOST: ENTRY(KN$NETPARM) ALTRET;

   8230   1 000120  D380 0000 0000  xent KNT$SEND_DR_HOSTLNJ,B5   X6A_AUTO_1
          1 000123       0070 0001                       DC       112,1

     1253     8231    1      TPDU_DR_SWITCH= 1;

   8231   1 000125  6C01                                 LDV,R6   1
          1 000126  EF47 0015                            STR,R6   TPDU_DR_SWITCH,AUTO

   8231   1                              COMMON_DR       null
     1254     8232
     1255     8233    1   COMMON_DR: ;
PL6.E3A0      #004=KNT$SEND_TPDU File=KNT$SEND.:E05TSI                           WED 07/30/97 01:13 Page:199
     1256     8234    1      ENTRY_SWITCH = %K_TPDU_TYPE_DR;

   8234   1 000128  6C08                 COMMON_DR       LDV,R6   8
          1 000129  EF47 0014                            STR,R6   ENTRY_SWITCH,AUTO

     1257     8235    1      CTX$ = KN$NETPARM.TCTX$;

   8235   1 00012B  ECC7 0004                            LDB,B6   @KN$NETPARM,AUTO
          1 00012D  DCC6 001B                            LDB,B5   27,B6
          1 00012F  DFC7 0006                            STB,B5   CTX$,AUTO

     1258     8236    1      KN$NETPARM.NODE = KN$TCTX.NODE;

   8236   1 000131  D805                                 LDR,R5   ,B5
          1 000132  D570 00FF                            AND,R5   255,IMO
          1 000134  DF46 0015                            STR,R5   21,B6

     1259     8237    1      KN$NETPARM.MSGSZ = 0;

   8237   1 000136  8746 0004                            CL       4,B6

     1260     8238    1      KN$NETPARM.UHDRSZ = 0;

   8238   1 000138  8746 0007                            CL       7,B6

     1261     8239    1      KN$NETPARM.SHDRSZ = 0;

   8239   1 00013A  8746 000A                            CL       10,B6

     1262     8240
     1263     8241    1      CALL KNT$RLS_CHAIN(KN$TCTX);

   8241   1 00013C  BBC7 0006                            LAB,B3   CTX$,AUTO
          1 00013E  CBF0 0100                            LAB,B4   256,IMO
          1 000140  E380 0000 0000  xent                 LNJ,B6   KNT$RLS_CHAIN
          1 000143       0001                            DC       s:8243,PREL

PL6.E3A0      #004=KNT$SEND_TPDU File=KNT$SEND.:E05TSI                           WED 07/30/97 01:13 Page:200
     1264     8242
     1265     8243    1      THDR_SZ = SIZEC(K$TPDU_DR);

   8243   1 000144  6C07                                 LDV,R6   7
          1 000145  EF47 000F                            STR,R6   THDR_SZ,AUTO

     1266     8244
     1267     8245    1      IF KN$TCTX.CLASS=4 OR KN$TCTX.CLASS=2

   8245   1 000147  ECC7 0006                            LDB,B6   CTX$,AUTO
          1 000149  D2C6 0005                            LLH,R5   5,B6
          1 00014B  5D04                                 CMV,R5   4
          1 00014C  0901 0004                            BE       s:8246,PREL
          1 00014E  5D02                                 CMV,R5   2
          1 00014F  0981 0006                            BNE      s:8249,PREL

     1268     8246    1      THEN THDR_SZ = THDR_SZ + SIZEC(K$TPARM_CLR_INFO);

   8246   1 000151  6E03                                 ADV,R6   3
          1 000152  EF47 000F                            STR,R6   THDR_SZ,AUTO
          1 000154  0F81 0010                            B        s:8257,PREL

     1269     8247
     1270     8248    2      ELSE DO;

     1271     8249    2           IF KN$TCTX.REASON > %K_REASON_ADDRESS_UNKNOWN

   8249   1 000156  C2C6 000E                            LLH,R4   14,B6
          1 000158  4D03                                 CMV,R4   3
          1 000159  0381 000B                            BLE      s:8257,PREL

     1272     8250    3           THEN DO;

     1273     8251    3                IF KN$TCTX.ERR = 0

   8251   1 00015B  82C6 000E                            LB,'00FF'X        14,B6
   8251   1 00015D       00FF
PL6.E3A0      #004=KNT$SEND_TPDU File=KNT$SEND.:E05TSI                           WED 07/30/97 01:13 Page:201
          1 00015E  0501 0004                            BBT      s:8253,PREL

     1274     8252    3                THEN KN$TCTX.ERR = KN$TCTX.REASON;

   8252   1 000160  CAC6 000E                            SRM,R4,'00FF'X    14,B6
   8252   1 000162       00FF

     1275     8253    3                KN$TCTX.REASON = %K_REASON_NOTSPEC;

   8253   1 000163  87C6 000E                            CLH      14,B6

     1276     8254    3                END;

     1277     8255    2           END;

     1278     8256
     1279     8257    1      IF TPDU_DR_SWITCH = 1

   8257   1 000165  C847 0015                            LDR,R4   TPDU_DR_SWITCH,AUTO
          1 000167  4D01                                 CMV,R4   1
          1 000168  0901 0065                            BE       s:8314,PREL

     1280     8258    1      THEN GOTO SKIP_CHKSUM;
     1281     8259    1      ELSE GOTO GOT_INIT_THDR_SZ;

   8259   1 00016A  0F81 0057                            B        s:8307,PREL

     1282     8260
     1283     8261        %EJECT;
PL6.E3A0      #004=KNT$SEND_TPDU File=KNT$SEND.:E05TSI                           WED 07/30/97 01:13 Page:202
     1284     8262        /*F* NAME: KNT$SEND_CR - Send connect request TPDU
     1285     8263
     1286     8264        Called from KNT$SEND.
     1287     8265        */
     1288     8266    1   KNT$SEND_CR: ENTRY(KN$NETPARM) ALTRET;

   8266   1 00016C  D380 0000 0000  xent KNT$SEND_CR     LNJ,B5   X6A_AUTO_1
          1 00016F       0070 0001                       DC       112,1

     1289     8267    1      CTX$ = KN$NETPARM.TCTX$;

   8267   1 000171  ECC7 0004                            LDB,B6   @KN$NETPARM,AUTO
          1 000173  DCC6 001B                            LDB,B5   27,B6
          1 000175  DFC7 0006                            STB,B5   CTX$,AUTO

     1290     8268    1      ENTRY_SWITCH = %K_TPDU_TYPE_CR;

   8268   1 000177  6C0E                                 LDV,R6   14
          1 000178  EF47 0014                            STR,R6   ENTRY_SWITCH,AUTO

     1291     8269
     1292     8270    1      SAVE_CHKSUM = KN$TCTX.OPTION.CHKSUM;

   8270   1 00017A  D845 000C                            LDR,R5   12,B5
          1 00017C  500F                                 SOL,R5   15
          1 00017D  DF47 0019                            STR,R5   SAVE_CHKSUM,AUTO

     1293     8271    1      IF KN$TCTX.CLASS = 4

   8271   1 00017F  C2C5 0005                            LLH,R4   5,B5
          1 000181  4D04                                 CMV,R4   4
          1 000182  0981 0004                            BNE      s:8274,PREL

     1294     8272    1      THEN KN$TCTX.OPTION.CHKSUM = '1'B;   /* always required on a tpdu_cr       */

   8272   1 000184  8945 000C                            LBT,'0001'X       12,B5
   8272   1 000186       0001
PL6.E3A0      #004=KNT$SEND_TPDU File=KNT$SEND.:E05TSI                           WED 07/30/97 01:13 Page:203

     1295     8273
     1296     8274    1      GOTO GET_INIT_THDR_SZ;

   8274   1 000187  0F81 001A                            B        s:8288,PREL

     1297     8275
     1298     8276        %EJECT;
PL6.E3A0      #004=KNT$SEND_TPDU File=KNT$SEND.:E05TSI                           WED 07/30/97 01:13 Page:204
     1299     8277        /*F* NAME: KNT$SEND_CC - Send connect confirm TPDU
     1300     8278
     1301     8279        Called from KNT$RECV.
     1302     8280        */
     1303     8281    1   KNT$SEND_CC: ENTRY(KN$NETPARM)  ALTRET;

   8281   1 000189  D380 0000 0000  xent KNT$SEND_CC     LNJ,B5   X6A_AUTO_1
          1 00018C       0070 0001                       DC       112,1

     1304     8282    1      CTX$ = KN$NETPARM.TCTX$;

   8282   1 00018E  ECC7 0004                            LDB,B6   @KN$NETPARM,AUTO
          1 000190  DCC6 001B                            LDB,B5   27,B6
          1 000192  DFC7 0006                            STB,B5   CTX$,AUTO

     1305     8283    1      ENTRY_SWITCH = %K_TPDU_TYPE_CC;

   8283   1 000194  6C0D                                 LDV,R6   13
          1 000195  EF47 0014                            STR,R6   ENTRY_SWITCH,AUTO

     1306     8284    1      SAVE_CHKSUM = KN$TCTX.OPTION.CHKSUM;

   8284   1 000197  D845 000C                            LDR,R5   12,B5
          1 000199  500F                                 SOL,R5   15
          1 00019A  DF47 0019                            STR,R5   SAVE_CHKSUM,AUTO

     1307     8285
     1308     8286    1      KN$NETPARM.SHDRSZ = 0;

   8286   1 00019C  8746 000A                            CL       10,B6

     1309     8287    1      KN$NETPARM.UHDRSZ = 0;

   8287   1 00019E  8746 0007                            CL       7,B6

     1310     8288    1      KN$NETPARM.MSGSZ = 0;

PL6.E3A0      #004=KNT$SEND_TPDU File=KNT$SEND.:E05TSI                           WED 07/30/97 01:13 Page:205
   8288   1 0001A0  8746 0004                            CL       4,B6

   8288   1                              GET_INIT_THDR_SZnull
     1311     8289
     1312     8290    1   GET_INIT_THDR_SZ:;
     1313     8291    1      THDR_SZ = SIZEC(K$TPDU_CR_CC)

   8291   1 0001A2  5C0A                 GET_INIT_THDR_SZLDV,R5   10
          1 0001A3  DF47 000F                            STR,R5   THDR_SZ,AUTO

     1314     8292    1        + SIZEC(K$TPARM_TPDUSZ);
     1315     8293
     1316     8294    1      IF KN$TCTX.DST_TSAP.LEN > 0

   8294   1 0001A5  C845 0089                            LDR,R4   137,B5
          1 0001A7  4901 0005                            BEZ,R4   s:8297,PREL

     1317     8295    1      THEN THDR_SZ = THDR_SZ +2 + KN$TCTX.DST_TSAP.LEN;

   8295   1 0001A9  DA54                                 ADD,R5   R4
          1 0001AA  5E02                                 ADV,R5   2
          1 0001AB  DF47 000F                            STR,R5   THDR_SZ,AUTO

     1318     8296
     1319     8297    1      IF KN$TCTX.SRC_TSAP.LEN > 0

   8297   1 0001AD  B845 0078                            LDR,R3   120,B5
          1 0001AF  3901 0005                            BEZ,R3   s:8300,PREL

     1320     8298    1      THEN THDR_SZ = THDR_SZ +2 + KN$TCTX.SRC_TSAP.LEN;

   8298   1 0001B1  DA53                                 ADD,R5   R3
          1 0001B2  5E02                                 ADV,R5   2
          1 0001B3  DF47 000F                            STR,R5   THDR_SZ,AUTO

     1321     8299
     1322     8300    1      IF KN$TCTX.CLASS ~= 0
PL6.E3A0      #004=KNT$SEND_TPDU File=KNT$SEND.:E05TSI                           WED 07/30/97 01:13 Page:206

   8300   1 0001B5  A2C5 0005                            LLH,R2   5,B5
          1 0001B7  2901 000A                            BEZ,R2   s:8307,PREL

     1323     8301    2      THEN DO;

     1324     8302    2           THDR_SZ = THDR_SZ + SIZEC(K$TPARM_OPTION);

   8302   1 0001B9  5E03                                 ADV,R5   3
          1 0001BA  DF47 000F                            STR,R5   THDR_SZ,AUTO

     1325     8303
     1326     8304    2           IF ENTRY_SWITCH = %K_TPDU_TYPE_CR

   8304   1 0001BC  6D0E                                 CMV,R6   14
          1 0001BD  0981 0004                            BNE      s:8307,PREL

     1327     8305    2           THEN THDR_SZ = THDR_SZ + SIZEC(K$TPARM_VERSION);

   8305   1 0001BF  5E03                                 ADV,R5   3
          1 0001C0  DF47 000F                            STR,R5   THDR_SZ,AUTO

     1328     8306                                  /*N* + SIZEC(K$TPARM_ALTCLASS) */
     1329     8307    2           END;

   8300   1                              GOT_INIT_THDR_SZnull
     1330     8308
     1331     8309    1   GOT_INIT_THDR_SZ:;
     1332     8310    1      IF KN$TCTX.OPTION.CHKSUM ~= '0'B

   8310   1 0001C2  ECC7 0006            GOT_INIT_THDR_SZLDB,B6   CTX$,AUTO
          1 0001C4  82C6 000C                            LB,'0001'X        12,B6
          1 0001C6       0001
          1 0001C7  0581 0006                            BBF      s:8314,PREL

     1333     8311    1      THEN THDR_SZ = THDR_SZ + SIZEC(K$TPARM_CHKSUM);

PL6.E3A0      #004=KNT$SEND_TPDU File=KNT$SEND.:E05TSI                           WED 07/30/97 01:13 Page:207
   8311   1 0001C9  E847 000F                            LDR,R6   THDR_SZ,AUTO
          1 0001CB  6E04                                 ADV,R6   4
          1 0001CC  EF47 000F                            STR,R6   THDR_SZ,AUTO

     1334     8312
     1335     8313    1   SKIP_CHKSUM:
     1336     8314    1      SPDU_SZ = KN$NETPARM.SHDRSZ + KN$NETPARM.UHDRSZ + KN$NETPARM.MSGSZ;

   8314   1 0001CE  DCC7 0004            SKIP_CHKSUM     LDB,B5   @KN$NETPARM,AUTO
          1 0001D0  E845 000A                            LDR,R6   10,B5
          1 0001D2  EA45 0007                            ADD,R6   7,B5
          1 0001D4  EA45 0004                            ADD,R6   4,B5
          1 0001D6  EF47 0010                            STR,R6   SPDU_SZ,AUTO

     1337     8315
     1338     8316    1      IF KN$TCTX.OPTION.OSI = '0'B

   8316   1 0001D8  82C6 000C                            LB,'0010'X        12,B6
   8316   1 0001DA       0010
          1 0001DB  0501 0009                            BBT      s:8319,PREL

     1339     8317    1      THEN THDR_SZ =( ( (THDR_SZ +1) /2) * 2);

   8317   1 0001DD  D847 000F                            LDR,R5   THDR_SZ,AUTO
          1 0001DF  5E01                                 ADV,R5   1
          1 0001E0  D370 0002                            DIV,R5   2,IMO
          1 0001E2  5001                                 SOL,R5   1
          1 0001E3  DF47 000F                            STR,R5   THDR_SZ,AUTO

     1340     8318
     1341     8319    1      FRAG_SZ = THDR_SZ + SPDU_SZ;

   8319   1 0001E5  EA47 000F                            ADD,R6   THDR_SZ,AUTO
          1 0001E7  EF47 000E                            STR,R6   FRAG_SZ,AUTO

     1342     8320
     1343     8321    1      CALL KNT$GET_SBUF(FRAG_SZ,FRAG$,KN$TCTX)
PL6.E3A0      #004=KNT$SEND_TPDU File=KNT$SEND.:E05TSI                           WED 07/30/97 01:13 Page:208

   8321   1 0001E9  EFC7 006E                            STB,B6   KN@NETPARM+40,AUTO
          1 0001EB  CBC7 0008                            LAB,B4   FRAG$,AUTO
          1 0001ED  CFC7 006C                            STB,B4   KN@NETPARM+38,AUTO
          1 0001EF  BBC7 000E                            LAB,B3   FRAG_SZ,AUTO
          1 0001F1  BFC7 006A                            STB,B3   KN@NETPARM+36,AUTO
          1 0001F3  BBC7 006A                            LAB,B3   KN@NETPARM+36,AUTO
          1 0001F5  CBF0 0300                            LAB,B4   768,IMO
          1 0001F7  E380 0000 0000  xent                 LNJ,B6   KNT$GET_SBUF
          1 0001FA       0003                            DC       s:8323,PREL
          1 0001FB  0F81 000A                            B        s:8327,PREL

     1344     8322    2      WHENALTRETURN DO;

     1345     8323    2           KN$NETPARM.ERRCODE = %K_ERROR_NOMEM;

   8323   1 0001FD  ECC7 0004                            LDB,B6   @KN$NETPARM,AUTO
          1 0001FF  E870 00F4                            LDR,R6   244,IMO
          1 000201  EF46 0016                            STR,R6   22,B6

     1346     8324    2           ALTRETURN;

   8324   1 000203  C380 0000 0000  xent                 LNJ,B4   X6A_AALT

     1347     8325    2           END;
     1348     8326
     1349     8327    1      FRAG_HDR.SEQ_SBIN = -1;

   8327   1 000206  8CF0 FFFF FFFF                       LDI      -1,IMO
          1 000209  ECC7 0008                            LDB,B6   FRAG$,AUTO
          1 00020B  8D46 0002                            SDI      2,B6

     1350     8328
     1351     8329    1      KN$TCTX.SEND_HEAD$ = FRAG$;

   8329   1 00020D  ECC7 0008                            LDB,B6   FRAG$,AUTO
          1 00020F  DCC7 0006                            LDB,B5   CTX$,AUTO
PL6.E3A0      #004=KNT$SEND_TPDU File=KNT$SEND.:E05TSI                           WED 07/30/97 01:13 Page:209
          1 000211  EFC5 003A                            STB,B6   58,B5

     1352     8330    1      KN$TCTX.SEND_TAIL$ = FRAG$;

   8330   1 000213  EFC5 003C                            STB,B6   60,B5

     1353     8331
     1354     8332    1      TPDU$ = PINCRW(FRAG$,SIZEW(FRAG_HDR));

   8332   1 000215  CBC6 0008                            LAB,B4   8,B6
          1 000217  CFC7 000A                            STB,B4   TPDU$,AUTO

     1355     8333    1      B$TPDU_C.LI = THDR_SZ - 1;

   8333   1 000219  D847 000F                            LDR,R5   THDR_SZ,AUTO
          1 00021B  5EFF                                 ADV,R5   -1
          1 00021C  D784                                 STH,R5   ,B4

     1356     8334    1      B$TPDU_C.SRC_REF = KN$TCTX.SRC_REF;

   8334   1 00021D  ECC7 000A                            LDB,B6   TPDU$,AUTO
          1 00021F  C845 0002                            LDR,R4   2,B5
          1 000221  CF46 0002                            STR,R4   2,B6

     1357     8335    1      B$TPDU_C.DST_REF = KN$TCTX.DST_REF;

   8335   1 000223  ECC7 000A                            LDB,B6   TPDU$,AUTO
          1 000225  C845 0001                            LDR,R4   1,B5
          1 000227  CF46 0001                            STR,R4   1,B6

     1358     8336    1      B$TPDU_C.MBZ = 0;

   8336   1 000229  ECC7 000A                            LDB,B6   TPDU$,AUTO
          1 00022B  8846 0003                            LBF,'0C00'X       3,B6
          1 00022D       0C00

     1359     8337
PL6.E3A0      #004=KNT$SEND_TPDU File=KNT$SEND.:E05TSI                           WED 07/30/97 01:13 Page:210
     1360     8338    1      IF ENTRY_SWITCH = %K_TPDU_TYPE_DR

   8338   1 00022E  C847 0014                            LDR,R4   ENTRY_SWITCH,AUTO
          1 000230  4D08                                 CMV,R4   8
          1 000231  0981 0074                            BNE      s:8372,PREL

     1361     8339    2      THEN DO;

     1362     8340    2           FRAG_HDR.SEQ = 0;

   8340   1 000233  ECC7 0008                            LDB,B6   FRAG$,AUTO
          1 000235  8746 0002                            CL       2,B6
          1 000237  ECC7 0008                            LDB,B6   FRAG$,AUTO
          1 000239  8746 0003                            CL       3,B6

     1363     8341    2           B$TPDU_DR.TYPE = %K_TPDU_TYPE_DR;

   8341   1 00023B  B870 0080                            LDR,R3   128,IMO
          1 00023D  ECC7 000A                            LDB,B6   TPDU$,AUTO
          1 00023F  BA86                                 SRM,R3,'00F0'X    ,B6
          1 000240       00F0

     1364     8342    2           B$TPDU_DR.REASON = KN$TCTX.REASON;

   8342   1 000241  A2C5 000E                            LLH,R2   14,B5
          1 000243  ECC7 000A                            LDB,B6   TPDU$,AUTO
          1 000245  A7C6 0003                            STH,R2   3,B6

     1365     8343    2           B$TPDU_DR.MBZ = 0;

   8343   1 000247  ECC7 000A                            LDB,B6   TPDU$,AUTO
          1 000249  8806                                 LBF,'000F'X       ,B6
          1 00024A       000F

     1366     8344
     1367     8345    2           DPTR$ = PINCRC(TPDU$, SIZEC(K$TPDU_DR) ); /*init options ptr*/

PL6.E3A0      #004=KNT$SEND_TPDU File=KNT$SEND.:E05TSI                           WED 07/30/97 01:13 Page:211
   8345   1 00024B  8CC7 000A                            LDI      TPDU$,AUTO
          1 00024D  7031                                 DCL,R7   1
          1 00024E  8470 0000 0007                       AID      7,IMO
          1 000251  7071                                 DCR,R7   1
          1 000252  8D47 000C                            SDI      DPTR$,AUTO

     1368     8346
     1369     8347    2           IF KN$TCTX.CLASS=4 OR KN$TCTX.CLASS=2

   8347   1 000254  A2C5 0005                            LLH,R2   5,B5
          1 000256  2D04                                 CMV,R2   4
          1 000257  0901 0004                            BE       s:8349,PREL
          1 000259  2D02                                 CMV,R2   2
          1 00025A  0981 002C                            BNE      s:8354,PREL

     1370     8348    3           THEN DO;

     1371     8349    3                DPTR$->CHR3BSD = ADDR(PARM_HDRS.CLR_INFO)->CHR3BSD;

   8349   1 00025C  9856                                 LDR,R1   R6
          1 00025D  E570 7FFF                            AND,R6   32767,IMO
          1 00025F  8D47 006A                            SDI      KN@NETPARM+36,AUTO
          1 000261  ECC7 006A                            LDB,B6   KN@NETPARM+36,AUTO
          1 000263  104F                                 SOR,R1   15
          1 000264  AB80 0000 0000  00                   LAB,B2   PARM_HDRS
          1 000267  2C08                                 LDV,R2   8
          1 000268  6C03                                 LDV,R6   3
          1 000269  BB86                                 LAB,B3   ,B6
          1 00026A  B851                                 LDR,R3   R1
          1 00026B  0008                                 MMM

     1372     8350    3                DPTR$->K$TPARM_VERSION.VERS = KN$TCTX.ERR;

   8350   1 00026C  8CC7 000C                            LDI      DPTR$,AUTO
          1 00026E  B856                                 LDR,R3   R6
          1 00026F  E570 7FFF                            AND,R6   32767,IMO
          1 000271  8D47 006A                            SDI      KN@NETPARM+36,AUTO
PL6.E3A0      #004=KNT$SEND_TPDU File=KNT$SEND.:E05TSI                           WED 07/30/97 01:13 Page:212
          1 000273  DCC7 006A                            LDB,B5   KN@NETPARM+36,AUTO
          1 000275  304F                                 SOR,R3   15
          1 000276  CCC7 0006                            LDB,B4   CTX$,AUTO
          1 000278  D844 000E                            LDR,R5   14,B4
          1 00027A  D570 00FF                            AND,R5   255,IMO
          1 00027C  3E02                                 ADV,R3   2
          1 00027D  D7B5                                 STH,R5   ,B5,R3

     1373     8351    3                DPTR$ = PINCRC(DPTR$, SIZEC(K$TPARM_VERSION) );

   8351   1 00027E  8CC7 000C                            LDI      DPTR$,AUTO
          1 000280  7031                                 DCL,R7   1
          1 000281  8470 0000 0003                       AID      3,IMO
          1 000284  7071                                 DCR,R7   1
          1 000285  8D47 000C                            SDI      DPTR$,AUTO

     1374     8352    3                END;

     1375     8353
     1376     8354    2           IF              TPDU_DR_SWITCH=1/*if host*/

   8354   1 000287  D847 0015                            LDR,R5   TPDU_DR_SWITCH,AUTO
          1 000289  5D01                                 CMV,R5   1
          1 00028A  0981 0019                            BNE      s:8369,PREL

     1377     8355    3           THEN DO;

     1378     8356    3                IF KN$TCTX.HOST_REF ~= 0

   8356   1 00028C  ECC7 0006                            LDB,B6   CTX$,AUTO
          1 00028E  C846 0003                            LDR,R4   3,B6
          1 000290  4901 0010                            BEZ,R4   s:8366,PREL

     1379     8357    4                THEN DO;

     1380     8358    4                     B$TPDU_DR.DST_REF = KN$TCTX.HOST_REF;

PL6.E3A0      #004=KNT$SEND_TPDU File=KNT$SEND.:E05TSI                           WED 07/30/97 01:13 Page:213
   8358   1 000292  DCC7 000A                            LDB,B5   TPDU$,AUTO
          1 000294  CF45 0001                            STR,R4   1,B5

     1381     8359    4                     KN$NETPARM.NODE = KN$TCTX.HOST_NODE;

   8359   1 000296  DCC7 0004                            LDB,B5   @KN$NETPARM,AUTO
          1 000298  C2C6 0004                            LLH,R4   4,B6
          1 00029A  CF45 0015                            STR,R4   21,B5

     1382     8360    4                     CALL I$SEND_TO_HOST

   8360   1 00029C  E3C0 0435                            LNJ,B6   s:0,PREL
          1 00029E       0003                            DC       s:8366,PREL
          1 00029F  0F81 0001                            B        s:8366,PREL

     1383     8361    5                     WHENALTRETURN DO;

     1384     8362                            /*N* leave the host hanging for now */
     1385     8363    5                          END;

     1386     8364    4                     END;

     1387     8365
     1388     8366    3                RETURN;

   8366   1 0002A1  C380 0000 0000  xent                 LNJ,B4   X6A_ARET

     1389     8367    3                END;
     1390     8368
     1391     8369    2           GOTO CHK_CHKSUM;

   8369   1 0002A4  0F81 016F                            B        s:8447,PREL

     1392     8370    2           END;
     1393     8371
     1394     8372    1      B$TPDU_C.TYPE = ENTRY_SWITCH;        /* set either CR or CC                */

PL6.E3A0      #004=KNT$SEND_TPDU File=KNT$SEND.:E05TSI                           WED 07/30/97 01:13 Page:214
   8372   1 0002A6  4004                                 SOL,R4   4
          1 0002A7  ECC7 000A                            LDB,B6   TPDU$,AUTO
          1 0002A9  CA86                                 SRM,R4,'00F0'X    ,B6
          1 0002AA       00F0

     1395     8373
     1396     8374    1      B$TPDU_C.CLASS = KN$TCTX.CLASS;

   8374   1 0002AB  C2C5 0005                            LLH,R4   5,B5
          1 0002AD  400C                                 SOL,R4   12
          1 0002AE  ECC7 000A                            LDB,B6   TPDU$,AUTO
          1 0002B0  CAC6 0003                            SRM,R4,'F000'X    3,B6
          1 0002B2       F000

     1397     8375    1      B$TPDU_C.EXT_FMT_FLAG = KN$TCTX.OPTION.EXTENDED;

   8375   1 0002B3  C845 000C                            LDR,R4   12,B5
          1 0002B5  4007                                 SOL,R4   7
          1 0002B6  ECC7 000A                            LDB,B6   TPDU$,AUTO
          1 0002B8  CAC6 0003                            SRM,R4,'0200'X    3,B6
          1 0002BA       0200

     1398     8376
     1399     8377    1      IF KN$TCTX.CLASS = 0

   8377   1 0002BB  C2C5 0005                            LLH,R4   5,B5
          1 0002BD  4981 0007                            BNEZ,R4  s:8380,PREL

     1400     8378    1      THEN B$TPDU_C.CDT = 0;

   8378   1 0002BF  ECC7 000A                            LDB,B6   TPDU$,AUTO
          1 0002C1  8806                                 LBF,'000F'X       ,B6
          1 0002C2       000F
          1 0002C3  0F81 0014                            B        s:8387,PREL

     1401     8379    2      ELSE DO;

PL6.E3A0      #004=KNT$SEND_TPDU File=KNT$SEND.:E05TSI                           WED 07/30/97 01:13 Page:215
     1402     8380    2           IF KN$TCTX.RCV_WINDOW_SZ > 15

   8380   1 0002C5  B845 0005                            LDR,R3   5,B5
          1 0002C7  B570 00FF                            AND,R3   255,IMO
          1 0002C9  3D0F                                 CMV,R3   15
          1 0002CA  0381 0007                            BLE      s:8382,PREL

     1403     8381    2           THEN B$TPDU_C.CDT = 15;

   8381   1 0002CC  ECC7 000A                            LDB,B6   TPDU$,AUTO
          1 0002CE  8906                                 LBT,'000F'X       ,B6
          1 0002CF       000F
          1 0002D0  0F81 0007                            B        s:8387,PREL

     1404     8382    2           ELSE B$TPDU_C.CDT = KN$TCTX.RCV_WINDOW_SZ;

   8382   1 0002D2  ECC7 000A                            LDB,B6   TPDU$,AUTO
          1 0002D4  A845 0005                            LDR,R2   5,B5
          1 0002D6  AA86                                 SRM,R2,'000F'X    ,B6
          1 0002D7       000F

     1405     8383    2           END;

     1406     8384
     1407     8385        /* Initialize the options pointer.
     1408     8386        */
     1409     8387    1      DPTR$ = PINCRC(TPDU$, SIZEC(K$TPDU_CR_CC) );

   8387   1 0002D8  8CC7 000A                            LDI      TPDU$,AUTO
          1 0002DA  7031                                 DCL,R7   1
          1 0002DB  8470 0000 0007                       AID      7,IMO
          1 0002DE  7071                                 DCR,R7   1
          1 0002DF  8D47 000C                            SDI      DPTR$,AUTO

     1410     8388
     1411     8389        /* Build the B$TPDU_size parameter.
     1412     8390        */
PL6.E3A0      #004=KNT$SEND_TPDU File=KNT$SEND.:E05TSI                           WED 07/30/97 01:13 Page:216
     1413     8391    1      DPTR$->CHR2BSD = ADDR(PARM_HDRS.SIZE)->CHR2BSD;

   8391   1 0002E1  B856                                 LDR,R3   R6
          1 0002E2  E570 7FFF                            AND,R6   32767,IMO
          1 0002E4  8D47 006A                            SDI      KN@NETPARM+36,AUTO
          1 0002E6  ECC7 006A                            LDB,B6   KN@NETPARM+36,AUTO
          1 0002E8  304F                                 SOR,R3   15
          1 0002E9  AB80 0000 0000  00                   LAB,B2   PARM_HDRS
          1 0002EC  2C03                                 LDV,R2   3
          1 0002ED  6C02                                 LDV,R6   2
          1 0002EE  BB86                                 LAB,B3   ,B6
          1 0002EF  0008                                 MMM

     1414     8392    1      DPTR$->K$TPARM_TPDUSZ.SIZE = KN$TCTX.TPDUSZ_PARM;

   8392   1 0002F0  8CC7 000C                            LDI      DPTR$,AUTO
          1 0002F2  B856                                 LDR,R3   R6
          1 0002F3  E570 7FFF                            AND,R6   32767,IMO
          1 0002F5  8D47 006A                            SDI      KN@NETPARM+36,AUTO
          1 0002F7  DCC7 006A                            LDB,B5   KN@NETPARM+36,AUTO
          1 0002F9  304F                                 SOR,R3   15
          1 0002FA  CCC7 0006                            LDB,B4   CTX$,AUTO
          1 0002FC  D844 0008                            LDR,R5   8,B4
          1 0002FE  D570 00FF                            AND,R5   255,IMO
          1 000300  3E02                                 ADV,R3   2
          1 000301  D7B5                                 STH,R5   ,B5,R3

     1415     8393    1      DPTR$ = PINCRC(DPTR$, SIZEC(K$TPARM_TPDUSZ));

   8393   1 000302  8CC7 000C                            LDI      DPTR$,AUTO
          1 000304  7031                                 DCL,R7   1
          1 000305  8470 0000 0003                       AID      3,IMO
          1 000308  7071                                 DCR,R7   1
          1 000309  8D47 000C                            SDI      DPTR$,AUTO

     1416     8394
     1417     8395        /* Build the TSAP parameter.
PL6.E3A0      #004=KNT$SEND_TPDU File=KNT$SEND.:E05TSI                           WED 07/30/97 01:13 Page:217
     1418     8396           If building connect request, KN$TCTX.DST_TSAP is called_tsap parameter.
     1419     8397           If building connect confirm, KN$TCTX.DST_TSAP is calling_tsap parameter.
     1420     8398
     1421     8399           If building connect request, KN$TCTX.SRC_TSAP is calling_tsap parameter.
     1422     8400           If building connect confirm, KN$TCTX.SRC_TSAP is called_tsap parameter.
     1423     8401        */
     1424     8402    1      ITEMP1 = KN$TCTX.DST_TSAP.LEN;

   8402   1 00030B  D844 0089                            LDR,R5   137,B4
          1 00030D  DF47 0011                            STR,R5   ITEMP1,AUTO

     1425     8403    1      IF ITEMP1 > 0

   8403   1 00030F  5A81 004D                            BLEZ,R5  s:8414,PREL

     1426     8404    2      THEN DO;

     1427     8405    2           IF ENTRY_SWITCH = %K_TPDU_TYPE_CR

   8405   1 000311  C847 0014                            LDR,R4   ENTRY_SWITCH,AUTO
          1 000313  4D0E                                 CMV,R4   14
          1 000314  0981 000E                            BNE      s:8407,PREL

     1428     8406    2           THEN DPTR$->K$TPARM_TSAP_ID.CODE = %K_TPARM_CALLED_TSAP;

   8406   1 000316  B856                                 LDR,R3   R6
          1 000317  E570 7FFF                            AND,R6   32767,IMO
          1 000319  8D47 006A                            SDI      KN@NETPARM+36,AUTO
          1 00031B  DCC7 006A                            LDB,B5   KN@NETPARM+36,AUTO
          1 00031D  304F                                 SOR,R3   15
          1 00031E  A870 00C2                            LDR,R2   194,IMO
          1 000320  A7B5                                 STH,R2   ,B5,R3
          1 000321  0F81 000C                            B        s:8409,PREL

     1429     8407    2           ELSE DPTR$->K$TPARM_TSAP_ID.CODE = %K_TPARM_CALLING_TSAP;

   8407   1 000323  B856                                 LDR,R3   R6
PL6.E3A0      #004=KNT$SEND_TPDU File=KNT$SEND.:E05TSI                           WED 07/30/97 01:13 Page:218
          1 000324  E570 7FFF                            AND,R6   32767,IMO
          1 000326  8D47 006A                            SDI      KN@NETPARM+36,AUTO
          1 000328  DCC7 006A                            LDB,B5   KN@NETPARM+36,AUTO
          1 00032A  304F                                 SOR,R3   15
          1 00032B  A870 00C1                            LDR,R2   193,IMO
          1 00032D  A7B5                                 STH,R2   ,B5,R3

     1430     8408
     1431     8409    2           DPTR$->K$TPARM_TSAP_ID.LEN = KN$TCTX.DST_TSAP.LEN;

   8409   1 00032E  8CC7 000C                            LDI      DPTR$,AUTO
          1 000330  B856                                 LDR,R3   R6
          1 000331  E570 7FFF                            AND,R6   32767,IMO
          1 000333  8D47 006A                            SDI      KN@NETPARM+36,AUTO
          1 000335  DCC7 006A                            LDB,B5   KN@NETPARM+36,AUTO
          1 000337  304F                                 SOR,R3   15
          1 000338  A844 0089                            LDR,R2   137,B4
          1 00033A  3E01                                 ADV,R3   1
          1 00033B  A7B5                                 STH,R2   ,B5,R3

     1432     8410    2           ADDR(DPTR$->K$TPARM_TSAP_ID.ID)->B$CHAR = ADDR(KN$TCTX.DST_TSAP.TSAP)->
              8410                    B$CHAR;

   8410   1 00033C  8CC7 000C                            LDI      DPTR$,AUTO
          1 00033E  B856                                 LDR,R3   R6
          1 00033F  E570 7FFF                            AND,R6   32767,IMO
          1 000341  8D47 006A                            SDI      KN@NETPARM+36,AUTO
          1 000343  DCC7 006A                            LDB,B5   KN@NETPARM+36,AUTO
          1 000345  304F                                 SOR,R3   15
          1 000346  ABC4 008A                            LAB,B2   138,B4
          1 000348  2C00                                 LDV,R2   0
          1 000349  E855                                 LDR,R6   R5
          1 00034A  BB85                                 LAB,B3   ,B5
          1 00034B  3E02                                 ADV,R3   2
          1 00034C  0008                                 MMM

     1433     8411    2           DPTR$ = PINCRC(DPTR$,ITEMP1+2);
PL6.E3A0      #004=KNT$SEND_TPDU File=KNT$SEND.:E05TSI                           WED 07/30/97 01:13 Page:219

   8411   1 00034D  8CC7 000C                            LDI      DPTR$,AUTO
          1 00034F  7031                                 DCL,R7   1
          1 000350  8D47 006A                            SDI      KN@NETPARM+36,AUTO
          1 000352  E847 0011                            LDR,R6   ITEMP1,AUTO
          1 000354  70F0                                 DAR,R7   16
          1 000355  8447 006A                            AID      KN@NETPARM+36,AUTO
          1 000357  7071                                 DCR,R7   1
          1 000358  8470 0000 0001                       AID      1,IMO
          1 00035B  8D47 000C                            SDI      DPTR$,AUTO

     1434     8412    2           END;

     1435     8413
     1436     8414    1      ITEMP1 = KN$TCTX.SRC_TSAP.LEN;

   8414   1 00035D  DCC7 0006                            LDB,B5   CTX$,AUTO
          1 00035F  D845 0078                            LDR,R5   120,B5
          1 000361  DF47 0011                            STR,R5   ITEMP1,AUTO

     1437     8415    1      IF ITEMP1 > 0

   8415   1 000363  5A81 004D                            BLEZ,R5  s:8426,PREL

     1438     8416    2      THEN DO;

     1439     8417    2           IF ENTRY_SWITCH = %K_TPDU_TYPE_CR

   8417   1 000365  C847 0014                            LDR,R4   ENTRY_SWITCH,AUTO
          1 000367  4D0E                                 CMV,R4   14
          1 000368  0981 000E                            BNE      s:8419,PREL

     1440     8418    2           THEN DPTR$->K$TPARM_TSAP_ID.CODE = %K_TPARM_CALLING_TSAP;

   8418   1 00036A  B856                                 LDR,R3   R6
          1 00036B  E570 7FFF                            AND,R6   32767,IMO
          1 00036D  8D47 006A                            SDI      KN@NETPARM+36,AUTO
PL6.E3A0      #004=KNT$SEND_TPDU File=KNT$SEND.:E05TSI                           WED 07/30/97 01:13 Page:220
          1 00036F  CCC7 006A                            LDB,B4   KN@NETPARM+36,AUTO
          1 000371  304F                                 SOR,R3   15
          1 000372  A870 00C1                            LDR,R2   193,IMO
          1 000374  A7B4                                 STH,R2   ,B4,R3
          1 000375  0F81 000C                            B        s:8421,PREL

     1441     8419    2           ELSE DPTR$->K$TPARM_TSAP_ID.CODE = %K_TPARM_CALLED_TSAP;

   8419   1 000377  B856                                 LDR,R3   R6
          1 000378  E570 7FFF                            AND,R6   32767,IMO
          1 00037A  8D47 006A                            SDI      KN@NETPARM+36,AUTO
          1 00037C  CCC7 006A                            LDB,B4   KN@NETPARM+36,AUTO
          1 00037E  304F                                 SOR,R3   15
          1 00037F  A870 00C2                            LDR,R2   194,IMO
          1 000381  A7B4                                 STH,R2   ,B4,R3

     1442     8420
     1443     8421    2           DPTR$->K$TPARM_TSAP_ID.LEN = KN$TCTX.SRC_TSAP.LEN;

   8421   1 000382  8CC7 000C                            LDI      DPTR$,AUTO
          1 000384  B856                                 LDR,R3   R6
          1 000385  E570 7FFF                            AND,R6   32767,IMO
          1 000387  8D47 006A                            SDI      KN@NETPARM+36,AUTO
          1 000389  CCC7 006A                            LDB,B4   KN@NETPARM+36,AUTO
          1 00038B  304F                                 SOR,R3   15
          1 00038C  A845 0078                            LDR,R2   120,B5
          1 00038E  3E01                                 ADV,R3   1
          1 00038F  A7B4                                 STH,R2   ,B4,R3

     1444     8422    2           ADDR(DPTR$->K$TPARM_TSAP_ID.ID)->B$CHAR = ADDR(KN$TCTX.SRC_TSAP.TSAP)->
              8422                    B$CHAR;

   8422   1 000390  8CC7 000C                            LDI      DPTR$,AUTO
          1 000392  B856                                 LDR,R3   R6
          1 000393  E570 7FFF                            AND,R6   32767,IMO
          1 000395  8D47 006A                            SDI      KN@NETPARM+36,AUTO
          1 000397  CCC7 006A                            LDB,B4   KN@NETPARM+36,AUTO
PL6.E3A0      #004=KNT$SEND_TPDU File=KNT$SEND.:E05TSI                           WED 07/30/97 01:13 Page:221
          1 000399  304F                                 SOR,R3   15
          1 00039A  ABC5 0079                            LAB,B2   121,B5
          1 00039C  2C00                                 LDV,R2   0
          1 00039D  E855                                 LDR,R6   R5
          1 00039E  BB84                                 LAB,B3   ,B4
          1 00039F  3E02                                 ADV,R3   2
          1 0003A0  0008                                 MMM

     1445     8423    2           DPTR$ = PINCRC(DPTR$,ITEMP1+2);

   8423   1 0003A1  8CC7 000C                            LDI      DPTR$,AUTO
          1 0003A3  7031                                 DCL,R7   1
          1 0003A4  8D47 006A                            SDI      KN@NETPARM+36,AUTO
          1 0003A6  E847 0011                            LDR,R6   ITEMP1,AUTO
          1 0003A8  70F0                                 DAR,R7   16
          1 0003A9  8447 006A                            AID      KN@NETPARM+36,AUTO
          1 0003AB  7071                                 DCR,R7   1
          1 0003AC  8470 0000 0001                       AID      1,IMO
          1 0003AF  8D47 000C                            SDI      DPTR$,AUTO

     1446     8424    2           END;

     1447     8425
     1448     8426    1      IF KN$TCTX.CLASS = 0

   8426   1 0003B1  DCC7 0006                            LDB,B5   CTX$,AUTO
          1 0003B3  D2C5 0005                            LLH,R5   5,B5
          1 0003B5  5901 008B                            BEZ,R5   s:8457,PREL

     1449     8427    1      THEN GOTO APPEND_SHDR;
     1450     8428
     1451     8429        /* Build the options parameter.
     1452     8430        */
     1453     8431    1      DPTR$->CHR3BSD = ADDR(PARM_HDRS.OPTION)->CHR3BSD;

   8431   1 0003B7  B856                                 LDR,R3   R6
          1 0003B8  E570 7FFF                            AND,R6   32767,IMO
PL6.E3A0      #004=KNT$SEND_TPDU File=KNT$SEND.:E05TSI                           WED 07/30/97 01:13 Page:222
          1 0003BA  8D47 006A                            SDI      KN@NETPARM+36,AUTO
          1 0003BC  CCC7 006A                            LDB,B4   KN@NETPARM+36,AUTO
          1 0003BE  304F                                 SOR,R3   15
          1 0003BF  AB80 0000 0000  00                   LAB,B2   PARM_HDRS
          1 0003C2  2C05                                 LDV,R2   5
          1 0003C3  6C03                                 LDV,R6   3
          1 0003C4  BB84                                 LAB,B3   ,B4
          1 0003C5  0008                                 MMM

     1454     8432
     1455     8433    1      IF SAVE_CHKSUM = '0'B

   8433   1 0003C6  89C7 0019                            CMZ      SAVE_CHKSUM,AUTO
          1 0003C8  0801 000E                            BAL      s:8435,PREL

     1456     8434    1      THEN DPTR$->K$TPARM_OPTION.CHKSUM = '1'B;

   8434   1 0003CA  8CC7 000C                            LDI      DPTR$,AUTO
          1 0003CC  B856                                 LDR,R3   R6
          1 0003CD  E570 7FFF                            AND,R6   32767,IMO
          1 0003CF  8D47 006A                            SDI      KN@NETPARM+36,AUTO
          1 0003D1  DCC7 006A                            LDB,B5   KN@NETPARM+36,AUTO
          1 0003D3  304F                                 SOR,R3   15
          1 0003D4  3003                                 SOL,R3   3
          1 0003D5  3E16                                 ADV,R3   22
          1 0003D6  8935                                 LBT      ,B5,R3

     1457     8435    1      IF KN$TCTX.OPTION.EXPEDITED ~= '0'B

   8435   1 0003D7  DCC7 0006                            LDB,B5   CTX$,AUTO
          1 0003D9  82C5 000C                            LB,'0002'X        12,B5
          1 0003DB       0002
          1 0003DC  0581 000E                            BBF      s:8438,PREL

     1458     8436    1      THEN DPTR$->K$TPARM_OPTION.EXPD = '1'B;

   8436   1 0003DE  8CC7 000C                            LDI      DPTR$,AUTO
PL6.E3A0      #004=KNT$SEND_TPDU File=KNT$SEND.:E05TSI                           WED 07/30/97 01:13 Page:223
          1 0003E0  B856                                 LDR,R3   R6
          1 0003E1  E570 7FFF                            AND,R6   32767,IMO
          1 0003E3  8D47 006A                            SDI      KN@NETPARM+36,AUTO
          1 0003E5  ACC7 006A                            LDB,B2   KN@NETPARM+36,AUTO
          1 0003E7  304F                                 SOR,R3   15
          1 0003E8  3003                                 SOL,R3   3
          1 0003E9  3E17                                 ADV,R3   23
          1 0003EA  8932                                 LBT      ,B2,R3

     1459     8437
     1460     8438    1      DPTR$ = PINCRC(DPTR$, SIZEC(K$TPARM_OPTION));

   8438   1 0003EB  8CC7 000C                            LDI      DPTR$,AUTO
          1 0003ED  7031                                 DCL,R7   1
          1 0003EE  8470 0000 0003                       AID      3,IMO
          1 0003F1  7071                                 DCR,R7   1
          1 0003F2  8D47 000C                            SDI      DPTR$,AUTO

     1461     8439
     1462     8440        /* Build the altclass and version parameters if this is a TPDU_CR.
     1463     8441        */
     1464     8442    1      IF ENTRY_SWITCH = %K_TPDU_TYPE_CR

   8442   1 0003F4  D847 0014                            LDR,R5   ENTRY_SWITCH,AUTO
          1 0003F6  5D0E                                 CMV,R5   14
          1 0003F7  0981 001C                            BNE      s:8447,PREL

     1465     8443    2      THEN DO;

     1466     8444        /*N*    Build the altclass parameter   */
     1467     8445    2           DPTR$->CHR3BSD = ADDR(PARM_HDRS.VERS)->CHR3BSD;

   8445   1 0003F9  B856                                 LDR,R3   R6
          1 0003FA  E570 7FFF                            AND,R6   32767,IMO
          1 0003FC  8D47 006A                            SDI      KN@NETPARM+36,AUTO
          1 0003FE  ACC7 006A                            LDB,B2   KN@NETPARM+36,AUTO
          1 000400  304F                                 SOR,R3   15
PL6.E3A0      #004=KNT$SEND_TPDU File=KNT$SEND.:E05TSI                           WED 07/30/97 01:13 Page:224
          1 000401  AFC7 006C                            STB,B2   KN@NETPARM+38,AUTO
          1 000403  AB80 0000 0000  00                   LAB,B2   PARM_HDRS
          1 000406  2C00                                 LDV,R2   0
          1 000407  6C03                                 LDV,R6   3
          1 000408  BCC7 006C                            LDB,B3   KN@NETPARM+38,AUTO
          1 00040A  0008                                 MMM

     1468     8446    2           DPTR$ = PINCRC(DPTR$, SIZEC(K$TPARM_VERSION));

   8446   1 00040B  8CC7 000C                            LDI      DPTR$,AUTO
          1 00040D  7031                                 DCL,R7   1
          1 00040E  8470 0000 0003                       AID      3,IMO
          1 000411  7071                                 DCR,R7   1
          1 000412  8D47 000C                            SDI      DPTR$,AUTO

     1469     8447    2           END;

   8442   1                              CHK_CHKSUM      null
     1470     8448
     1471     8449        /* Build the checksum parameter.
     1472     8450        */
     1473     8451    1   CHK_CHKSUM: ;
     1474     8452    1      IF KN$TCTX.OPTION.CHKSUM ~= '0'B

   8452   1 000414  ECC7 0006            CHK_CHKSUM      LDB,B6   CTX$,AUTO
          1 000416  82C6 000C                            LB,'0001'X        12,B6
          1 000418       0001
          1 000419  0581 0027                            BBF      s:8457,PREL

     1475     8453    2      THEN DO;

     1476     8454    2           DPTR$->CHR4BSD = ADDR(K_CKSUM_INIT)->CHR4BSD;

   8454   1 00041B  B856                                 LDR,R3   R6
          1 00041C  E570 7FFF                            AND,R6   32767,IMO
          1 00041E  8D47 006A                            SDI      KN@NETPARM+36,AUTO
          1 000420  DCC7 006A                            LDB,B5   KN@NETPARM+36,AUTO
PL6.E3A0      #004=KNT$SEND_TPDU File=KNT$SEND.:E05TSI                           WED 07/30/97 01:13 Page:225
          1 000422  304F                                 SOR,R3   15
          1 000423  AB80 0000 0000  xsym                 LAB,B2   K_CKSUM_INIT
          1 000426  2C00                                 LDV,R2   0
          1 000427  6C04                                 LDV,R6   4
          1 000428  BB85                                 LAB,B3   ,B5
          1 000429  0008                                 MMM

     1477     8455    2           DPTR$ = PINCRC(DPTR$, SIZEC(K$TPARM_CHKSUM));

   8455   1 00042A  8CC7 000C                            LDI      DPTR$,AUTO
          1 00042C  8470 0000 0002                       AID      2,IMO
          1 00042F  8D47 000C                            SDI      DPTR$,AUTO

     1478     8456    2           CHKOFF = POFFC(DPTR$,TPDU$) - 1;

   8456   1 000431  8CC7 000A                            LDI      TPDU$,AUTO
          1 000433  7031                                 DCL,R7   1
          1 000434  8D47 006A                            SDI      KN@NETPARM+36,AUTO
          1 000436  8CC7 000C                            LDI      DPTR$,AUTO
          1 000438  7031                                 DCL,R7   1
          1 000439  84C7 006A                            SID      KN@NETPARM+36,AUTO
          1 00043B  8470 FFFF FFFF                       AID      -1,IMO
          1 00043E  E857                                 LDR,R6   R7
          1 00043F  EF47 0018                            STR,R6   CHKOFF,AUTO

     1479     8457    2           END;

   8452   1                              APPEND_SHDR     null
     1480     8458
     1481     8459        /* Finally, append the user data after the transport header.
     1482     8460        */
     1483     8461    1   APPEND_SHDR: ;
     1484     8462    1      IF KN$NETPARM.SHDRSZ > 0

   8462   1 000441  ECC7 0004            APPEND_SHDR     LDB,B6   @KN$NETPARM,AUTO
          1 000443  E846 000A                            LDR,R6   10,B6
          1 000445  6901 0023                            BEZ,R6   s:8469,PREL
PL6.E3A0      #004=KNT$SEND_TPDU File=KNT$SEND.:E05TSI                           WED 07/30/97 01:13 Page:226

     1485     8463    2      THEN DO;

     1486     8464    2           ITEMP1 = KN$NETPARM.SHDRSZ;

   8464   1 000447  EF47 0011                            STR,R6   ITEMP1,AUTO

     1487     8465    2           DPTR$->B$CHAR = KN$NETPARM.SHDR$->B$CHAR_ALGN;

   8465   1 000449  8CC7 000C                            LDI      DPTR$,AUTO
          1 00044B  B856                                 LDR,R3   R6
          1 00044C  E570 7FFF                            AND,R6   32767,IMO
          1 00044E  8D47 006A                            SDI      KN@NETPARM+36,AUTO
          1 000450  DCC7 006A                            LDB,B5   KN@NETPARM+36,AUTO
          1 000452  304F                                 SOR,R3   15
          1 000453  CCC6 0008                            LDB,B4   8,B6
          1 000455  AB84                                 LAB,B2   ,B4
          1 000456  2C00                                 LDV,R2   0
          1 000457  E847 0011                            LDR,R6   ITEMP1,AUTO
          1 000459  BB85                                 LAB,B3   ,B5
          1 00045A  0008                                 MMM

     1488     8466    2           DPTR$ = PINCRC(DPTR$, KN$NETPARM.SHDRSZ);

   8466   1 00045B  B846 000A                            LDR,R3   10,B6
          1 00045D  8CC7 000C                            LDI      DPTR$,AUTO
          1 00045F  7031                                 DCL,R7   1
          1 000460  8D47 006A                            SDI      KN@NETPARM+36,AUTO
          1 000462  F853                                 LDR,R7   R3
          1 000463  6C00                                 LDV,R6   0
          1 000464  8447 006A                            AID      KN@NETPARM+36,AUTO
          1 000466  7071                                 DCR,R7   1
          1 000467  8D47 000C                            SDI      DPTR$,AUTO

     1489     8467    2           END;

     1490     8468
PL6.E3A0      #004=KNT$SEND_TPDU File=KNT$SEND.:E05TSI                           WED 07/30/97 01:13 Page:227
     1491     8469    1      IF KN$NETPARM.UHDRSZ > 0

   8469   1 000469  E846 0007                            LDR,R6   7,B6
          1 00046B  6901 0023                            BEZ,R6   s:8476,PREL

     1492     8470    2      THEN DO;

     1493     8471    2           ITEMP1 = KN$NETPARM.UHDRSZ;

   8471   1 00046D  EF47 0011                            STR,R6   ITEMP1,AUTO

     1494     8472    2           DPTR$->B$CHAR = KN$NETPARM.UHDR$->B$CHAR_ALGN;

   8472   1 00046F  8CC7 000C                            LDI      DPTR$,AUTO
          1 000471  B856                                 LDR,R3   R6
          1 000472  E570 7FFF                            AND,R6   32767,IMO
          1 000474  8D47 006A                            SDI      KN@NETPARM+36,AUTO
          1 000476  DCC7 006A                            LDB,B5   KN@NETPARM+36,AUTO
          1 000478  304F                                 SOR,R3   15
          1 000479  CCC6 0005                            LDB,B4   5,B6
          1 00047B  AB84                                 LAB,B2   ,B4
          1 00047C  2C00                                 LDV,R2   0
          1 00047D  E847 0011                            LDR,R6   ITEMP1,AUTO
          1 00047F  BB85                                 LAB,B3   ,B5
          1 000480  0008                                 MMM

     1495     8473    2           DPTR$ = PINCRC(DPTR$, KN$NETPARM.UHDRSZ);

   8473   1 000481  B846 0007                            LDR,R3   7,B6
          1 000483  8CC7 000C                            LDI      DPTR$,AUTO
          1 000485  7031                                 DCL,R7   1
          1 000486  8D47 006A                            SDI      KN@NETPARM+36,AUTO
          1 000488  F853                                 LDR,R7   R3
          1 000489  6C00                                 LDV,R6   0
          1 00048A  8447 006A                            AID      KN@NETPARM+36,AUTO
          1 00048C  7071                                 DCR,R7   1
          1 00048D  8D47 000C                            SDI      DPTR$,AUTO
PL6.E3A0      #004=KNT$SEND_TPDU File=KNT$SEND.:E05TSI                           WED 07/30/97 01:13 Page:228

     1496     8474    2           END;

     1497     8475
     1498     8476    1      IF KN$NETPARM.MSGSZ > 0

   8476   1 00048F  E846 0004                            LDR,R6   4,B6
          1 000491  6901 001C                            BEZ,R6   s:8482,PREL

     1499     8477    2      THEN DO;

     1500     8478    2           ITEMP1 = KN$NETPARM.MSGSZ;

   8478   1 000493  EF47 0011                            STR,R6   ITEMP1,AUTO

     1501     8479    2           DPTR$->B$CHAR = KN$NETPARM.MSG$->B$CHAR;

   8479   1 000495  8CC7 000C                            LDI      DPTR$,AUTO
          1 000497  B856                                 LDR,R3   R6
          1 000498  E570 7FFF                            AND,R6   32767,IMO
          1 00049A  8D47 006A                            SDI      KN@NETPARM+36,AUTO
          1 00049C  DCC7 006A                            LDB,B5   KN@NETPARM+36,AUTO
          1 00049E  304F                                 SOR,R3   15
          1 00049F  8CC6 0002                            LDI      2,B6
          1 0004A1  A856                                 LDR,R2   R6
          1 0004A2  E570 7FFF                            AND,R6   32767,IMO
          1 0004A4  8D47 006C                            SDI      KN@NETPARM+38,AUTO
          1 0004A6  CCC7 006C                            LDB,B4   KN@NETPARM+38,AUTO
          1 0004A8  204F                                 SOR,R2   15
          1 0004A9  AB84                                 LAB,B2   ,B4
          1 0004AA  E847 0011                            LDR,R6   ITEMP1,AUTO
          1 0004AC  BB85                                 LAB,B3   ,B5
          1 0004AD  0008                                 MMM

     1502     8480    2           END;

     1503     8481
PL6.E3A0      #004=KNT$SEND_TPDU File=KNT$SEND.:E05TSI                           WED 07/30/97 01:13 Page:229
     1504     8482    1      IF KN$TCTX.OPTION.CHKSUM

   8482   1 0004AE  DCC7 0006                            LDB,B5   CTX$,AUTO
          1 0004B0  82C5 000C                            LB,'0001'X        12,B5
          1 0004B2       0001
          1 0004B3  0581 01B9                            BBF      s:8634,PREL

     1505     8483    2      THEN DO;

     1506     8484    2           IF ENTRY_SWITCH = %K_TPDU_TYPE_CR

   8484   1 0004B5  E847 0014                            LDR,R6   ENTRY_SWITCH,AUTO
          1 0004B7  6D0E                                 CMV,R6   14
          1 0004B8  0981 0007                            BNE      s:8486,PREL

     1507     8485    2           THEN KN$TCTX.OPTION.CHKSUM = SAVE_CHKSUM;

   8485   1 0004BA  D847 0019                            LDR,R5   SAVE_CHKSUM,AUTO
          1 0004BC  504F                                 SOR,R5   15
          1 0004BD  DAC5 000C                            SRM,R5,'0001'X    12,B5
          1 0004BF       0001

     1508     8486    2           GOTO BUILD_CHKSUM;

   8486   1 0004C0  0F81 0198                            B        s:8631,PREL

     1509     8487    2           END;
     1510     8488
     1511     8489    1      ELSE GOTO SEND_TO_NET;
     1512     8490
     1513     8491        %EJECT;
PL6.E3A0      #004=KNT$SEND_TPDU File=KNT$SEND.:E05TSI                           WED 07/30/97 01:13 Page:230
     1514     8492        /*F* NAME: KNT$SEND_AK - Send acknowledgement TPDU
     1515     8493
     1516     8494        Called from KNT$DSESSION, KNT$RECV and KNT$TTIMER.
     1517     8495        */
     1518     8496
     1519     8497    1   KNT$SEND_AK: ENTRY(KN$NETPARM)  ALTRET;

   8497   1 0004C2  D380 0000 0000  xent KNT$SEND_AK     LNJ,B5   X6A_AUTO_1
          1 0004C5       0070 0001                       DC       112,1

     1520     8498    1      TPDU_AK_SWITCH = 0;

   8498   1 0004C7  8747 0016                            CL       TPDU_AK_SWITCH,AUTO

     1521     8499    1      GOTO COMMON_AK;

   8499   1 0004C9  0F81 0009                            B        s:8502,PREL

     1522     8500
     1523     8501    1   KNT$SEND_AK_FCC: ENTRY(KN$NETPARM) ALTRET;

   8501   1 0004CB  D380 0000 0000  xent KNT$SEND_AK_FCC LNJ,B5   X6A_AUTO_1
          1 0004CE       0070 0001                       DC       112,1

     1524     8502    1      TPDU_AK_SWITCH= 1;

   8502   1 0004D0  6C01                                 LDV,R6   1
          1 0004D1  EF47 0016                            STR,R6   TPDU_AK_SWITCH,AUTO

   8502   1                              COMMON_AK       null
     1525     8503
     1526     8504    1   COMMON_AK: ;
     1527     8505    1      CTX$ = KN$NETPARM.TCTX$;

   8505   1 0004D3  ECC7 0004            COMMON_AK       LDB,B6   @KN$NETPARM,AUTO
          1 0004D5  DCC6 001B                            LDB,B5   27,B6
          1 0004D7  DFC7 0006                            STB,B5   CTX$,AUTO
PL6.E3A0      #004=KNT$SEND_TPDU File=KNT$SEND.:E05TSI                           WED 07/30/97 01:13 Page:231

     1528     8506    1      ENTRY_SWITCH = %K_TPDU_TYPE_AK;

   8506   1 0004D9  6C06                                 LDV,R6   6
          1 0004DA  EF47 0014                            STR,R6   ENTRY_SWITCH,AUTO

     1529     8507
     1530     8508    1      IF KN$TCTX.CLASS~=4 AND KN$TCTX.OPTION.CLASS_2_FLOW = '0'B

   8508   1 0004DC  D2C5 0005                            LLH,R5   5,B5
          1 0004DE  5D04                                 CMV,R5   4
          1 0004DF  0901 000F                            BE       s:8513,PREL
          1 0004E1  82C5 000C                            LB,'0008'X        12,B5
          1 0004E3       0008
          1 0004E4  0501 000A                            BBT      s:8513,PREL

     1531     8509    2      THEN DO;

     1532     8510    2           CALL SCREECH(KNT_SCODE);

   8510   1 0004E6  BB80 0000 0000  02                   LAB,B3   0
          1 0004E9  CBF0 0100                            LAB,B4   256,IMO
          1 0004EB  E380 0000 0000  xent                 LNJ,B6   SCREECH
          1 0004EE       0001                            DC       s:8513,PREL

     1533     8511    2           END;

     1534     8512
     1535     8513    1      IF KN$TCTX.LOST_TPDU

   8513   1 0004EF  ECC7 0006                            LDB,B6   CTX$,AUTO
          1 0004F1  82C6 000D                            LB,'0080'X        13,B6
          1 0004F3       0080
          1 0004F4  0581 000B                            BBF      s:8515,PREL

     1536     8514    1      THEN CDT = KN$TCTX.RECV_HEAD$->FRAG_HDR.SEQ - KN$TCTX.RECV_LWE;

PL6.E3A0      #004=KNT$SEND_TPDU File=KNT$SEND.:E05TSI                           WED 07/30/97 01:13 Page:232
   8514   1 0004F6  DCC6 002A                            LDB,B5   42,B6
          1 0004F8  8CC5 0002                            LDI      2,B5
          1 0004FA  84C6 0022                            SID      34,B6
          1 0004FC  8D47 0012                            SDI      CDT,AUTO
          1 0004FE  0F81 0007                            B        s:8517,PREL

     1537     8515    1      ELSE CDT = KN$TCTX.RECV_LWE - KN$TCTX.RECV_NEXT;

   8515   1 000500  8CC6 0022                            LDI      34,B6
          1 000502  84C6 0026                            SID      38,B6
          1 000504  8D47 0012                            SDI      CDT,AUTO

     1538     8516
     1539     8517    1      IF CDT < 0

   8517   1 000506  84F0 0000 0000                       SID      0,IMO
          1 000509  6881 000A                            BGEZ,R6  s:8520,PREL

     1540     8518    1      THEN CDT = CDT + KN$TCTX.MAXSEQ + 1;

   8518   1 00050B  8CC7 0012                            LDI      CDT,AUTO
          1 00050D  8446 000A                            AID      10,B6
          1 00050F  8470 0000 0001                       AID      1,IMO
          1 000512  8D47 0012                            SDI      CDT,AUTO

     1541     8519
     1542     8520    1      IF NOT KN$TCTX.LOST_TPDU

   8520   1 000514  82C6 000D                            LB,'0080'X        13,B6
   8520   1 000516       0080
          1 000517  0501 0021                            BBT      s:8527,PREL

     1543     8521    2      THEN DO;

     1544     8522    2           IF CDT = 1 AND KN$TCTX.RCV_WINDOW_SZ = 1

   8522   1 000519  8CC7 0012                            LDI      CDT,AUTO
PL6.E3A0      #004=KNT$SEND_TPDU File=KNT$SEND.:E05TSI                           WED 07/30/97 01:13 Page:233
          1 00051B  84F0 0000 0001                       SID      1,IMO
          1 00051E  6981 0011                            BNEZ,R6  s:8524,PREL
          1 000520  7981 000F                            BNEZ,R7  s:8524,PREL
          1 000522  E846 0005                            LDR,R6   5,B6
          1 000524  E570 00FF                            AND,R6   255,IMO
          1 000526  6D01                                 CMV,R6   1
          1 000527  0981 0008                            BNE      s:8524,PREL

     1545     8523    2           THEN CDT = 1;

   8523   1 000529  8CF0 0000 0001                       LDI      1,IMO
          1 00052C  8D47 0012                            SDI      CDT,AUTO
          1 00052E  0F81 000A                            B        s:8527,PREL

     1546     8524    2           ELSE CDT = KN$TCTX.RCV_WINDOW_SZ - CDT;

   8524   1 000530  F846 0005                            LDR,R7   5,B6
          1 000532  F570 00FF                            AND,R7   255,IMO
          1 000534  6C00                                 LDV,R6   0
          1 000535  84C7 0012                            SID      CDT,AUTO
          1 000537  8D47 0012                            SDI      CDT,AUTO

     1547     8525    2           END;

     1548     8526
     1549     8527    1      TPDU$ = ADDR(K$TPDU);

   8527   1 000539  DBC7 001A                            LAB,B5   K$TPDU,AUTO
          1 00053B  DFC7 000A                            STB,B5   TPDU$,AUTO

     1550     8528    1      IF KN$TCTX.OPTION.EXTENDED ~= '0'B

   8528   1 00053D  82C6 000C                            LB,'0004'X        12,B6
   8528   1 00053F       0004
          1 000540  0581 0015                            BBF      s:8536,PREL

     1551     8529    2      THEN DO;
PL6.E3A0      #004=KNT$SEND_TPDU File=KNT$SEND.:E05TSI                           WED 07/30/97 01:13 Page:234

     1552     8530    2           B$TPDU_AK_EXT.LI = SIZEC(K$TPDU_AK_EXT) -1;

   8530   1 000542  6C09                                 LDV,R6   9
          1 000543  E785                                 STH,R6   ,B5

     1553     8531    2           B$TPDU_AK_EXT.CDT = CDT;

   8531   1 000544  DCC7 000A                            LDB,B5   TPDU$,AUTO
          1 000546  D847 0013                            LDR,R5   CDT+1,AUTO
          1 000548  DF45 0004                            STR,R5   4,B5

     1554     8532    2           B$TPDU_AK_EXT.YR_TU_NR = KN$TCTX.RECV_LWE;

   8532   1 00054A  8CC6 0022                            LDI      34,B6
          1 00054C  DCC7 000A                            LDB,B5   TPDU$,AUTO
          1 00054E  8D45 0002                            SDI      2,B5

     1555     8533    2           B$TPDU_AK_EXT.MBZ = 0;

   8533   1 000550  DCC7 000A                            LDB,B5   TPDU$,AUTO
          1 000552  8805                                 LBF,'000F'X       ,B5
          1 000553       000F

     1556     8534    2           END;

   8534   1 000554  0F81 000F                            B        s:8541,PREL

     1557     8535    2      ELSE DO;

     1558     8536    2           B$TPDU_AK.LI = SIZEC(K$TPDU_AK) -1;

   8536   1 000556  6C04                                 LDV,R6   4
          1 000557  E785                                 STH,R6   ,B5

     1559     8537    2           B$TPDU_AK.CDT = CDT;

PL6.E3A0      #004=KNT$SEND_TPDU File=KNT$SEND.:E05TSI                           WED 07/30/97 01:13 Page:235
   8537   1 000558  D847 0013                            LDR,R5   CDT+1,AUTO
          1 00055A  DCC7 000A                            LDB,B5   TPDU$,AUTO
          1 00055C  DA85                                 SRM,R5,'000F'X    ,B5
          1 00055D       000F

     1560     8538    2           B$TPDU_AK.YR_TU_NR = KN$TCTX.RECV_LWE;

   8538   1 00055E  C846 0023                            LDR,R4   35,B6
          1 000560  DCC7 000A                            LDB,B5   TPDU$,AUTO
          1 000562  C7C5 0002                            STH,R4   2,B5

     1561     8539    2           END;

     1562     8540
     1563     8541    1      B$TPDU_AK.TYPE = %K_TPDU_TYPE_AK;

   8541   1 000564  6C60                                 LDV,R6   96
          1 000565  DCC7 000A                            LDB,B5   TPDU$,AUTO
          1 000567  EA85                                 SRM,R6,'00F0'X    ,B5
          1 000568       00F0

     1564     8542
     1565     8543    1      IF TPDU_AK_SWITCH = 1

   8543   1 000569  C847 0016                            LDR,R4   TPDU_AK_SWITCH,AUTO
          1 00056B  4D01                                 CMV,R4   1
          1 00056C  0981 002A                            BNE      s:8548,PREL

     1566     8544    2      THEN DO;

     1567     8545    2           DPTR$ = PINCRC(TPDU$, B$TPDU_AK.LI +1);

   8545   1 00056E  DCC7 000A                            LDB,B5   TPDU$,AUTO
          1 000570  B285                                 LLH,R3   ,B5
          1 000571  8CC7 000A                            LDI      TPDU$,AUTO
          1 000573  7031                                 DCL,R7   1
          1 000574  8D47 006A                            SDI      KN@NETPARM+36,AUTO
PL6.E3A0      #004=KNT$SEND_TPDU File=KNT$SEND.:E05TSI                           WED 07/30/97 01:13 Page:236
          1 000576  F853                                 LDR,R7   R3
          1 000577  6C00                                 LDV,R6   0
          1 000578  8447 006A                            AID      KN@NETPARM+36,AUTO
          1 00057A  7071                                 DCR,R7   1
          1 00057B  7031                                 DCL,R7   1
          1 00057C  8470 0000 0001                       AID      1,IMO
          1 00057F  7071                                 DCR,R7   1
          1 000580  8D47 000C                            SDI      DPTR$,AUTO

     1568     8546    2           DPTR$->K$TPARM_FCC = KN$NETPARM.FPT$->K$TPARM_FCC;

   8546   1 000582  B856                                 LDR,R3   R6
          1 000583  E570 7FFF                            AND,R6   32767,IMO
          1 000585  8D47 006A                            SDI      KN@NETPARM+36,AUTO
          1 000587  CCC7 006A                            LDB,B4   KN@NETPARM+36,AUTO
          1 000589  304F                                 SOR,R3   15
          1 00058A  BCC7 0004                            LDB,B3   @KN$NETPARM,AUTO
          1 00058C  ACC3 0019                            LDB,B2   25,B3
          1 00058E  2C00                                 LDV,R2   0
          1 00058F  6C0A                                 LDV,R6   10
          1 000590  BB84                                 LAB,B3   ,B4
          1 000591  0008                                 MMM

     1569     8547    2           B$TPDU_AK.LI = B$TPDU_AK.LI + SIZEC(K$TPARM_FCC);

   8547   1 000592  ECC7 000A                            LDB,B6   TPDU$,AUTO
          1 000594  E286                                 LLH,R6   ,B6
          1 000595  6E0A                                 ADV,R6   10
          1 000596  E786                                 STH,R6   ,B6

     1570     8548    2           END;

   8543   1                              SET_ACK_NODE    null
     1571     8549
     1572     8550    1   SET_ACK_NODE: ;
     1573     8551    1      KN$NETPARM.NODE = KN$TCTX.NODE;

PL6.E3A0      #004=KNT$SEND_TPDU File=KNT$SEND.:E05TSI                           WED 07/30/97 01:13 Page:237
   8551   1 000597  ECC7 0004            SET_ACK_NODE    LDB,B6   @KN$NETPARM,AUTO
          1 000599  DCC7 0006                            LDB,B5   CTX$,AUTO
          1 00059B  E805                                 LDR,R6   ,B5
          1 00059C  E570 00FF                            AND,R6   255,IMO
          1 00059E  EF46 0015                            STR,R6   21,B6

     1574     8552    1      GOTO FINISH_UP;

   8552   1 0005A0  0F81 0083                            B        s:8612,PREL

     1575     8553
     1576     8554        %EJECT;
PL6.E3A0      #004=KNT$SEND_TPDU File=KNT$SEND.:E05TSI                           WED 07/30/97 01:13 Page:238
     1577     8555        /*F* NAME: KNT$SEND_EA - Send expedited data acknowledgement TPDU
     1578     8556
     1579     8557        Called from KNT$RECV.
     1580     8558        */
     1581     8559
     1582     8560    1   KNT$SEND_EA: ENTRY(KN$NETPARM) ALTRET;

   8560   1 0005A2  D380 0000 0000  xent KNT$SEND_EA     LNJ,B5   X6A_AUTO_1
          1 0005A5       0070 0001                       DC       112,1

     1583     8561    1      CTX$ = KN$NETPARM.TCTX$;

   8561   1 0005A7  ECC7 0004                            LDB,B6   @KN$NETPARM,AUTO
          1 0005A9  DCC6 001B                            LDB,B5   27,B6
          1 0005AB  DFC7 0006                            STB,B5   CTX$,AUTO

     1584     8562    1      ENTRY_SWITCH = %K_TPDU_TYPE_EA;

   8562   1 0005AD  6C02                                 LDV,R6   2
          1 0005AE  EF47 0014                            STR,R6   ENTRY_SWITCH,AUTO

     1585     8563
     1586     8564    1      TPDU$ = ADDR(K$TPDU);

   8564   1 0005B0  CBC7 001A                            LAB,B4   K$TPDU,AUTO
          1 0005B2  CFC7 000A                            STB,B4   TPDU$,AUTO

     1587     8565    1      IF KN$TCTX.OPTION.EXTENDED ~= '0'B

   8565   1 0005B4  82C5 000C                            LB,'0004'X        12,B5
   8565   1 0005B6       0004
          1 0005B7  0581 000F                            BBF      s:8573,PREL

     1588     8566    2      THEN DO;

     1589     8567    2           B$TPDU_EA_EXT.LI = SIZEC(K$TPDU_EA_EXT) -1;

PL6.E3A0      #004=KNT$SEND_TPDU File=KNT$SEND.:E05TSI                           WED 07/30/97 01:13 Page:239
   8567   1 0005B9  5C07                                 LDV,R5   7
          1 0005BA  D784                                 STH,R5   ,B4

     1590     8568    2           B$TPDU_EA_EXT.YR_TU_NR = KN$TCTX.RECV_EXPD;

   8568   1 0005BB  8CC5 0028                            LDI      40,B5
          1 0005BD  CCC7 000A                            LDB,B4   TPDU$,AUTO
          1 0005BF  8D44 0002                            SDI      2,B4

     1591     8569    2           B$TPDU_EA_EXT.MBZ = 0;

   8569   1 0005C1  CCC7 000A                            LDB,B4   TPDU$,AUTO
          1 0005C3  8804                                 LBF,'000F'X       ,B4
          1 0005C4       000F

     1592     8570    2           END;

   8570   1 0005C5  0F81 0009                            B        s:8577,PREL

     1593     8571
     1594     8572    2      ELSE DO;

     1595     8573    2           B$TPDU_EA.LI = SIZEC(K$TPDU_EA) -1;

   8573   1 0005C7  5C04                                 LDV,R5   4
          1 0005C8  D784                                 STH,R5   ,B4

     1596     8574    2           B$TPDU_EA.YR_EDTU_NR = KN$TCTX.RECV_EXPD;

   8574   1 0005C9  C845 0029                            LDR,R4   41,B5
          1 0005CB  CCC7 000A                            LDB,B4   TPDU$,AUTO
          1 0005CD  C7C4 0002                            STH,R4   2,B4

     1597     8575    2           END;

     1598     8576
     1599     8577    1      B$TPDU_EA.TYPE = %K_TPDU_TYPE_EA;
PL6.E3A0      #004=KNT$SEND_TPDU File=KNT$SEND.:E05TSI                           WED 07/30/97 01:13 Page:240

   8577   1 0005CF  6C20                                 LDV,R6   32
          1 0005D0  CCC7 000A                            LDB,B4   TPDU$,AUTO
          1 0005D2  EA84                                 SRM,R6,'00F0'X    ,B4
          1 0005D3       00F0

     1600     8578    1      B$TPDU_EA.MBZ = 0;

   8578   1 0005D4  CCC7 000A                            LDB,B4   TPDU$,AUTO
          1 0005D6  8804                                 LBF,'000F'X       ,B4
          1 0005D7       000F

     1601     8579
     1602     8580    1      GOTO SET_ACK_NODE;

   8580   1 0005D8  0F81 FFBE                            B        s:8548,PREL

     1603     8581
     1604     8582        %EJECT;
PL6.E3A0      #004=KNT$SEND_TPDU File=KNT$SEND.:E05TSI                           WED 07/30/97 01:13 Page:241
     1605     8583        /*F* NAME: KNT$SEND_DC - Send disconnect confirm TPDU
     1606     8584
     1607     8585        Called from KNT$RECV.
     1608     8586        */
     1609     8587    1   KNT$SEND_DC: ENTRY(KN$NETPARM)  ALTRET;

   8587   1 0005DA  D380 0000 0000  xent KNT$SEND_DC     LNJ,B5   X6A_AUTO_1
          1 0005DD       0070 0001                       DC       112,1

     1610     8588    1      CTX$ = KN$NETPARM.TCTX$;

   8588   1 0005DF  ECC7 0004                            LDB,B6   @KN$NETPARM,AUTO
          1 0005E1  DCC6 001B                            LDB,B5   27,B6
          1 0005E3  DFC7 0006                            STB,B5   CTX$,AUTO

     1611     8589    1      ENTRY_SWITCH = %K_TPDU_TYPE_DC;

   8589   1 0005E5  6C0C                                 LDV,R6   12
          1 0005E6  EF47 0014                            STR,R6   ENTRY_SWITCH,AUTO

     1612     8590
     1613     8591    1      TPDU$ = ADDR(K$TPDU);

   8591   1 0005E8  CBC7 001A                            LAB,B4   K$TPDU,AUTO
          1 0005EA  CFC7 000A                            STB,B4   TPDU$,AUTO

     1614     8592    1      B$TPDU_DC.LI = SIZEC(K$TPDU_DC) -1;

   8592   1 0005EC  5C05                                 LDV,R5   5
          1 0005ED  D784                                 STH,R5   ,B4

     1615     8593    1      B$TPDU_DC.MBZ = 0;

   8593   1 0005EE  CCC7 000A                            LDB,B4   TPDU$,AUTO
          1 0005F0  8804                                 LBF,'000F'X       ,B4
          1 0005F1       000F

PL6.E3A0      #004=KNT$SEND_TPDU File=KNT$SEND.:E05TSI                           WED 07/30/97 01:13 Page:242
     1616     8594    1      B$TPDU_DC.SRC_REF = KN$TCTX.SRC_REF;

   8594   1 0005F2  CCC7 000A                            LDB,B4   TPDU$,AUTO
          1 0005F4  C845 0002                            LDR,R4   2,B5
          1 0005F6  CF44 0002                            STR,R4   2,B4

     1617     8595    1      B$TPDU_DC.TYPE = %K_TPDU_TYPE_DC;

   8595   1 0005F8  C870 00C0                            LDR,R4   192,IMO
          1 0005FA  CCC7 000A                            LDB,B4   TPDU$,AUTO
          1 0005FC  CA84                                 SRM,R4,'00F0'X    ,B4
          1 0005FD       00F0

     1618     8596
     1619     8597    1      GOTO FINISH_UP;

   8597   1 0005FE  0F81 0025                            B        s:8612,PREL

     1620     8598
     1621     8599        %EJECT;
PL6.E3A0      #004=KNT$SEND_TPDU File=KNT$SEND.:E05TSI                           WED 07/30/97 01:13 Page:243
     1622     8600        /*F* NAME: KNT$SEND_ER - Send error TPDU
     1623     8601
     1624     8602        This routeine is currently not used.
     1625     8603        */
     1626     8604    1   KNT$SEND_ER: ENTRY(KN$NETPARM) ALTRET;

   8604   1 000600  D380 0000 0000  xent KNT$SEND_ER     LNJ,B5   X6A_AUTO_1
          1 000603       0070 0001                       DC       112,1

     1627     8605    1      CTX$ = KN$NETPARM.TCTX$;

   8605   1 000605  ECC7 0004                            LDB,B6   @KN$NETPARM,AUTO
          1 000607  DCC6 001B                            LDB,B5   27,B6
          1 000609  DFC7 0006                            STB,B5   CTX$,AUTO

     1628     8606    1      ENTRY_SWITCH = %K_TPDU_TYPE_ER;

   8606   1 00060B  6C07                                 LDV,R6   7
          1 00060C  EF47 0014                            STR,R6   ENTRY_SWITCH,AUTO

     1629     8607
     1630     8608    1      TPDU$ = ADDR(K$TPDU);

   8608   1 00060E  CBC7 001A                            LAB,B4   K$TPDU,AUTO
          1 000610  CFC7 000A                            STB,B4   TPDU$,AUTO

     1631     8609    1      B$TPDU_ER.LI = SIZEC(K$TPDU_ER) -1;

   8609   1 000612  5C04                                 LDV,R5   4
          1 000613  D784                                 STH,R5   ,B4

     1632     8610    1      B$TPDU_ER.MBZ = 0;

   8610   1 000614  CCC7 000A                            LDB,B4   TPDU$,AUTO
          1 000616  8804                                 LBF,'000F'X       ,B4
          1 000617       000F

PL6.E3A0      #004=KNT$SEND_TPDU File=KNT$SEND.:E05TSI                           WED 07/30/97 01:13 Page:244
     1633     8611    1      B$TPDU_ER.TYPE = %K_TPDU_TYPE_ER;

   8611   1 000618  4C70                                 LDV,R4   112
          1 000619  CCC7 000A                            LDB,B4   TPDU$,AUTO
          1 00061B  CA84                                 SRM,R4,'00F0'X    ,B4
          1 00061C       00F0

     1634     8612    1      B$TPDU_ER.REJECT_CAUSE = 1 /* Unimplemented function */;

   8612   1 00061D  3C01                                 LDV,R3   1
          1 00061E  CCC7 000A                            LDB,B4   TPDU$,AUTO
          1 000620  B7C4 0002                            STH,R3   2,B4

     1635     8613
     1636     8614    1      GOTO FINISH_UP;

   8614   1 000622  0F81 0001                            B        s:8612,PREL

   8612   1                              FINISH_UP       null
     1637     8615
     1638     8616        %EJECT;
PL6.E3A0      #004=KNT$SEND_TPDU File=KNT$SEND.:E05TSI                           WED 07/30/97 01:13 Page:245
     1639     8617    1   FINISH_UP: ;
     1640     8618    1      CHKOFF = B$TPDU.LI + 4;

   8618   1 000624  CCC7 000A            FINISH_UP       LDB,B4   TPDU$,AUTO
          1 000626  E284                                 LLH,R6   ,B4
          1 000627  6E04                                 ADV,R6   4
          1 000628  EF47 0018                            STR,R6   CHKOFF,AUTO

     1641     8619
     1642     8620    1      IF KN$TCTX.OPTION.OSI = '0'B

   8620   1 00062A  82C5 000C                            LB,'0010'X        12,B5
   8620   1 00062C       0010
          1 00062D  0501 0007                            BBT      s:8622,PREL

     1643     8621    1      THEN B$TPDU.LI =( ( (B$TPDU.LI +2) /2) * 2) -1;

   8621   1 00062F  D284                                 LLH,R5   ,B4
          1 000630  5E02                                 ADV,R5   2
          1 000631  5041                                 SOR,R5   1
          1 000632  5001                                 SOL,R5   1
          1 000633  5EFF                                 ADV,R5   -1
          1 000634  D784                                 STH,R5   ,B4

     1644     8622    1      FRAG_SZ = B$TPDU.LI + 1;

   8622   1 000635  CCC7 000A                            LDB,B4   TPDU$,AUTO
          1 000637  E284                                 LLH,R6   ,B4
          1 000638  6E01                                 ADV,R6   1
          1 000639  EF47 000E                            STR,R6   FRAG_SZ,AUTO

   8622   1                              FINISH_UP2      null
     1645     8623
     1646     8624    1   FINISH_UP2:;
     1647     8625    1      B$TPDU.DST_REF = KN$TCTX.DST_REF;

   8625   1 00063B  D845 0001            FINISH_UP2      LDR,R5   1,B5
PL6.E3A0      #004=KNT$SEND_TPDU File=KNT$SEND.:E05TSI                           WED 07/30/97 01:13 Page:246
          1 00063D  DF44 0001                            STR,R5   1,B4

     1648     8626
     1649     8627    1      IF KN$TCTX.OPTION.CHKSUM ~= '0'B

   8627   1 00063F  82C5 000C                            LB,'0001'X        12,B5
   8627   1 000641       0001
          1 000642  0581 002A                            BBF      s:8634,PREL

     1650     8628    2      THEN DO;

     1651     8629    2           B$TPDU.LI = B$TPDU.LI + SIZEC(K$TPARM_CHKSUM);

   8629   1 000644  CCC7 000A                            LDB,B4   TPDU$,AUTO
          1 000646  E284                                 LLH,R6   ,B4
          1 000647  6E04                                 ADV,R6   4
          1 000648  E784                                 STH,R6   ,B4

     1652     8630    2           FRAG_SZ = B$TPDU.LI + 1;

   8630   1 000649  CCC7 000A                            LDB,B4   TPDU$,AUTO
          1 00064B  E284                                 LLH,R6   ,B4
          1 00064C  6E01                                 ADV,R6   1
          1 00064D  EF47 000E                            STR,R6   FRAG_SZ,AUTO

     1653     8631    2           PINCRC(ADDR(B$TPDU),CHKOFF-3)->CHR4BSD = ADDR(K_CKSUM_INIT)->CHR4BSD;

   8631   1 00064F  AB80 0000 0000  xsym                 LAB,B2   K_CKSUM_INIT
          1 000652  2C00                                 LDV,R2   0
          1 000653  6C04                                 LDV,R6   4
          1 000654  BB84                                 LAB,B3   ,B4
          1 000655  B847 0018                            LDR,R3   CHKOFF,AUTO
          1 000657  3EFD                                 ADV,R3   -3
          1 000658  0008                                 MMM

   8631   1                              BUILD_CHKSUM    null
     1654     8632    2   BUILD_CHKSUM:;
PL6.E3A0      #004=KNT$SEND_TPDU File=KNT$SEND.:E05TSI                           WED 07/30/97 01:13 Page:247
     1655     8633    2           CALL KNA$CALC_CHKSUM(TPDU$,FRAG_SZ,CHKOFF);

   8633   1 000659  DBC7 0018            BUILD_CHKSUM    LAB,B5   CHKOFF,AUTO
          1 00065B  DFC7 006E                            STB,B5   KN@NETPARM+40,AUTO
          1 00065D  CBC7 000E                            LAB,B4   FRAG_SZ,AUTO
          1 00065F  CFC7 006C                            STB,B4   KN@NETPARM+38,AUTO
          1 000661  BBC7 000A                            LAB,B3   TPDU$,AUTO
          1 000663  BFC7 006A                            STB,B3   KN@NETPARM+36,AUTO
          1 000665  BBC7 006A                            LAB,B3   KN@NETPARM+36,AUTO
          1 000667  CBF0 0300                            LAB,B4   768,IMO
          1 000669  E380 0000 0000  xent                 LNJ,B6   KNA$CALC_CHKSUM
          1 00066C       0001                            DC       s:8634,PREL

     1656     8634    2           END;

   8631   1                              SEND_TO_NET     null
     1657     8635
     1658     8636    1   SEND_TO_NET:;
     1659     8637    1      CALL I$SEND_TO_NET

   8637   1 00066D  E3C0 005E            SEND_TO_NET     LNJ,B6   s:0,PREL
          1 00066F       0003                            DC       s:8639,PREL
          1 000670  0F81 000C                            B        s:8650,PREL

     1660     8638    2      WHENALTRETURN DO;

     1661     8639    2           IF ENTRY_SWITCH = %K_TPDU_TYPE_CR

   8639   1 000672  E847 0014                            LDR,R6   ENTRY_SWITCH,AUTO
          1 000674  6D0E                                 CMV,R6   14
          1 000675  0901 F9EB                            BE       s:8152,PREL
          1 000677  6D0D                                 CMV,R6   13
          1 000678  0901 F9E8                            BE       s:8152,PREL
          1 00067A  6D08                                 CMV,R6   8
          1 00067B  0901 F9E5                            BE       s:8152,PREL

     1662     8640    2             OR ENTRY_SWITCH = %K_TPDU_TYPE_CC
PL6.E3A0      #004=KNT$SEND_TPDU File=KNT$SEND.:E05TSI                           WED 07/30/97 01:13 Page:248
     1663     8641    2             OR ENTRY_SWITCH = %K_TPDU_TYPE_DR
     1664     8642    2           THEN GOTO NOQ_4BUFFERED;
     1665     8643
     1666     8644    3           ELSE DO;

     1667     8645                     /*N* cant send non-buffered tpdu*/
     1668     8646    3                END;

     1669     8647
     1670     8648    2           END/*altret from knn$send*/;

     1671     8649
     1672     8650    1      IF ENTRY_SWITCH = %K_TPDU_TYPE_AK

   8650   1 00067D  E847 0014                            LDR,R6   ENTRY_SWITCH,AUTO
          1 00067F  6D06                                 CMV,R6   6
          1 000680  0981 0048                            BNE      s:8665,PREL

     1673     8651    2      THEN DO;

     1674     8652    2           IF TPDU_AK_SWITCH = 0

   8652   1 000682  D847 0016                            LDR,R5   TPDU_AK_SWITCH,AUTO
          1 000684  5981 000C                            BNEZ,R5  s:8654,PREL

     1675     8653    2           THEN KN$TCTX.TMR_WINDOW.INTERVAL = (KNT_WINDOW_TIMER *15) /2;

   8653   1 000686  C800 0000 0000  xsym                 LDR,R4   KNT_WINDOW_TIMER
          1 000689  4F0F                                 MLV,R4   15
          1 00068A  4041                                 SOR,R4   1
          1 00068B  ECC7 0006                            LDB,B6   CTX$,AUTO
          1 00068D  CF46 005D                            STR,R4   93,B6
          1 00068F  0F81 000A                            B        s:8655,PREL

     1676     8654    2           ELSE KN$TCTX.TMR_WINDOW.INTERVAL = (KNT_FCCWINDOW_TIMER *15) /2;

   8654   1 000691  C800 0000 0000  xsym                 LDR,R4   KNT_FCCWINDOW_TIMER
PL6.E3A0      #004=KNT$SEND_TPDU File=KNT$SEND.:E05TSI                           WED 07/30/97 01:13 Page:249
          1 000694  4F0F                                 MLV,R4   15
          1 000695  4041                                 SOR,R4   1
          1 000696  ECC7 0006                            LDB,B6   CTX$,AUTO
          1 000698  CF46 005D                            STR,R4   93,B6

     1677     8655    2           IF KN$TCTX.CLASS = 4

   8655   1 00069A  B2C6 0005                            LLH,R3   5,B6
          1 00069C  3D04                                 CMV,R3   4
          1 00069D  0981 000D                            BNE      s:8657,PREL

     1678     8656    2           THEN CALL GHS$SET_TMR (KN$TCTX.TMR_WINDOW);

   8656   1 00069F  DBC6 005A                            LAB,B5   90,B6
          1 0006A1  DFC7 006A                            STB,B5   KN@NETPARM+36,AUTO
          1 0006A3  BBC7 006A                            LAB,B3   KN@NETPARM+36,AUTO
          1 0006A5  CBF0 0100                            LAB,B4   256,IMO
          1 0006A7  E380 0000 0000  xent                 LNJ,B6   GHS$SET_TMR
          1 0006AA       0001                            DC       s:8657,PREL

     1679     8657    2           IF NOT KN$TCTX.LOST_TPDU

   8657   1 0006AB  ECC7 0006                            LDB,B6   CTX$,AUTO
          1 0006AD  82C6 000D                            LB,'0080'X        13,B6
          1 0006AF       0080
          1 0006B0  0501 0018                            BBT      s:8665,PREL

     1680     8658    3           THEN DO;

     1681     8659    3                KN$TCTX.RECV_UWE = KN$TCTX.RECV_LWE + CDT;

   8659   1 0006B2  8CC6 0022                            LDI      34,B6
          1 0006B4  8447 0012                            AID      CDT,AUTO
          1 0006B6  8D46 0024                            SDI      36,B6

     1682     8660    3                IF KN$TCTX.RECV_UWE > KN$TCTX.MAXSEQ

PL6.E3A0      #004=KNT$SEND_TPDU File=KNT$SEND.:E05TSI                           WED 07/30/97 01:13 Page:250
   8660   1 0006B8  84C6 000A                            SID      10,B6
          1 0006BA  0681 000E                            BCF      s:8665,PREL
          1 0006BC  6981 0003                            BNEZ,R6  s:8661,PREL
          1 0006BE  7901 000A                            BEZ,R7   s:8665,PREL

     1683     8661    3                THEN KN$TCTX.RECV_UWE = KN$TCTX.RECV_UWE - KN$TCTX.MAXSEQ - 1;

   8661   1 0006C0  8CC6 0024                            LDI      36,B6
          1 0006C2  84C6 000A                            SID      10,B6
          1 0006C4  8470 FFFF FFFF                       AID      -1,IMO
          1 0006C7  8D46 0024                            SDI      36,B6

     1684     8662    3                END;

     1685     8663    2           END;

     1686     8664
     1687     8665    1      RETURN;

   8665   1 0006C9  C380 0000 0000  xent                 LNJ,B4   X6A_ARET

     1688     8666
     1689     8667        %EJECT;
PL6.E3A0      #004=KNT$SEND_TPDU File=KNT$SEND.:E05TSI                           WED 07/30/97 01:13 Page:251
     1690     8668        /*I* NAME: I$SEND_TO_NET
     1691     8669
     1692     8670             PURPOSE: To provide the common setup and call to network.
     1693     8671        */
     1694     8672
     1695     8673    1   I$SEND_TO_NET: PROC ALTRET;

   8673   1 0006CC  EFC7 0068            I$SEND_TO_NET   STB,B6   KN@NETPARM+34,AUTO

     1696     8674
     1697     8675    2      SEND_DIRECTION = 0;

   8675   1 0006CE  8747 0017                            CL       SEND_DIRECTION,AUTO

     1698     8676    2      GOTO COMMON_SEND;

   8676   1 0006D0  0F81 0006                            B        s:8682,PREL

     1699     8677
     1700     8678    2   I$SEND_TO_HOST: ENTRY ALTRET;

   8678   1 0006D2  EFC7 0068            I$SEND_TO_HOST  STB,B6   KN@NETPARM+34,AUTO

     1701     8679    2      SEND_DIRECTION = 1;

   8679   1 0006D4  6C01                                 LDV,R6   1
          1 0006D5  EF47 0017                            STR,R6   SEND_DIRECTION,AUTO

     1702     8680
     1703     8681    2   COMMON_SEND:
     1704     8682    2      KN@NETPARM = KN_NETPARM_INIT;

   8682   1 0006D7  AB80 0000 0000  xsym COMMON_SEND     LAB,B2   KN_NETPARM_INIT
          1 0006DA  2C00                                 LDV,R2   0
          1 0006DB  6C42                                 LDV,R6   66
          1 0006DC  BBC7 0046                            LAB,B3   KN@NETPARM,AUTO
          1 0006DE  3C00                                 LDV,R3   0
PL6.E3A0      #004=KNT$SEND_TPDU File=KNT$SEND.:E05TSI                           WED 07/30/97 01:13 Page:252
          1 0006DF  0008                                 MMM

     1705     8683    2      KN@NETPARM.TCTX$ = CTX$;

   8683   1 0006E0  ECC7 0006                            LDB,B6   CTX$,AUTO
          1 0006E2  EFC7 0061                            STB,B6   KN@NETPARM+27,AUTO

     1706     8684    2      KN@NETPARM.TCTX_ID = KN$TCTX.SRC_REF;

   8684   1 0006E4  E846 0002                            LDR,R6   2,B6
          1 0006E6  EF47 0057                            STR,R6   KN@NETPARM+17,AUTO

     1707     8685    2      KN@NETPARM.THDR$ = TPDU$;

   8685   1 0006E8  DCC7 000A                            LDB,B5   TPDU$,AUTO
          1 0006EA  DFC7 0051                            STB,B5   KN@NETPARM+11,AUTO

     1708     8686    2      KN@NETPARM.THDRSZ = FRAG_SZ;

   8686   1 0006EC  D847 000E                            LDR,R5   FRAG_SZ,AUTO
          1 0006EE  DF47 0053                            STR,R5   KN@NETPARM+13,AUTO

     1709     8687    2      KN@NETPARM.NODE = KN$NETPARM.NODE;

   8687   1 0006F0  CCC7 0004                            LDB,B4   @KN$NETPARM,AUTO
          1 0006F2  C844 0015                            LDR,R4   21,B4
          1 0006F4  CF47 005B                            STR,R4   KN@NETPARM+21,AUTO

     1710     8688
     1711     8689    2      KN@NETPARM.FUNCTION = %KN_FCN_DATA;

   8689   1 0006F6  3C05                                 LDV,R3   5
          1 0006F7  BF47 005A                            STR,R3   KN@NETPARM+20,AUTO

     1712     8690
     1713     8691    2      IF SEND_DIRECTION = 1

PL6.E3A0      #004=KNT$SEND_TPDU File=KNT$SEND.:E05TSI                           WED 07/30/97 01:13 Page:253
   8691   1 0006F9  A847 0017                            LDR,R2   SEND_DIRECTION,AUTO
          1 0006FB  2D01                                 CMV,R2   1
          1 0006FC  0901 0033                            BE       s:8710,PREL

     1714     8692    2      THEN GOTO SEND_TO_HOST;
     1715     8693
     1716     8694    2      IF KN$TCTX.OPTION.OSI

   8694   1 0006FE  82C6 000C                            LB,'0010'X        12,B6
   8694   1 000700       0010
          1 000701  0581 000C                            BBF      s:8701,PREL

     1717     8695    3      THEN DO;

     1718     8696    3           KN@NETPARM.FUNCTION = %K_NDATA;

   8696   1 000703  3C21                                 LDV,R3   33
          1 000704  BF47 005A                            STR,R3   KN@NETPARM+20,AUTO

     1719     8697    3           KN@NETPARM.SRC_ADDR$ = ADDR(KN$TCTX.SRC_NSAP);

   8697   1 000706  BBC6 009A                            LAB,B3   154,B6
          1 000708  BFC7 0063                            STB,B3   KN@NETPARM+29,AUTO

     1720     8698    3           KN@NETPARM.DST_ADDR$ = ADDR(KN$TCTX.DST_NSAP);

   8698   1 00070A  ABC6 00A5                            LAB,B2   165,B6
          1 00070C  AFC7 0065                            STB,B2   KN@NETPARM+31,AUTO

     1721     8699    3           END;

     1722     8700
     1723     8701    2      IF KN$TCTX.OPTION.CONS

   8701   1 00070E  82C6 000C                            LB,'0020'X        12,B6
   8701   1 000710       0020
          1 000711  0581 001E                            BBF      s:8710,PREL
PL6.E3A0      #004=KNT$SEND_TPDU File=KNT$SEND.:E05TSI                           WED 07/30/97 01:13 Page:254

     1724     8702    3      THEN DO;

     1725     8703    3           KN@NETPARM.LDCT$ = KN$LDCT$(KN$TCTX.LDCTX#);

   8703   1 000713  9806                                 LDR,R1   ,B6
          1 000714  9570 00FF                            AND,R1   255,IMO
          1 000716  BC80 0000 0000  xsym                 LDB,B3   KN_DCT$$
          1 000719  AC93                                 LDB,B2   ,B3,R1
          1 00071A  AFC7 0046                            STB,B2   KN@NETPARM,AUTO

     1726     8704    3           CALL KNH$SEND(KN@NETPARM)

   8704   1 00071C  9BC7 0046                            LAB,B1   KN@NETPARM,AUTO
          1 00071E  9FC7 006A                            STB,B1   KN@NETPARM+36,AUTO
          1 000720  BBC7 006A                            LAB,B3   KN@NETPARM+36,AUTO
          1 000722  CBF0 0100                            LAB,B4   256,IMO
          1 000724  E380 0000 0000  xent                 LNJ,B6   KNH$SEND
          1 000727       0003                            DC       s:8706,PREL
          1 000728  0F81 0005                            B        s:8708,PREL

     1727     8705    4           WHENALTRETURN DO;

     1728     8706    4                ALTRETURN;

   8706   1 00072A  ECC7 0068                            LDB,B6   KN@NETPARM+34,AUTO
          1 00072C  B806                                 LDR,R3   ,B6
          1 00072D  C3B6                                 LNJ,B4   ,B6,R3

     1729     8707    4                END;
     1730     8708    3           END;

   8708   1 00072E  0F81 0016                            B        s:8719,PREL

     1731     8709
     1732     8710    3      ELSE DO;

PL6.E3A0      #004=KNT$SEND_TPDU File=KNT$SEND.:E05TSI                           WED 07/30/97 01:13 Page:255
     1733     8711    3   SEND_TO_HOST:
     1734     8712    3           KN@NETPARM.LDCT$ = KN$NETPARM.LDCT$;

   8712   1 000730  BC84                 SEND_TO_HOST    LDB,B3   ,B4
          1 000731  BFC7 0046                            STB,B3   KN@NETPARM,AUTO

     1735     8713    3           CALL KNN$SEND(KN@NETPARM)

   8713   1 000733  ABC7 0046                            LAB,B2   KN@NETPARM,AUTO
          1 000735  AFC7 006A                            STB,B2   KN@NETPARM+36,AUTO
          1 000737  BBC7 006A                            LAB,B3   KN@NETPARM+36,AUTO
          1 000739  CBF0 0100                            LAB,B4   256,IMO
          1 00073B  E380 0000 0000  xent                 LNJ,B6   KNN$SEND
          1 00073E       0003                            DC       s:8715,PREL
          1 00073F  0F81 0005                            B        s:8719,PREL

     1736     8714    4           WHENALTRETURN DO;

     1737     8715    4                ALTRETURN;

   8715   1 000741  ECC7 0068                            LDB,B6   KN@NETPARM+34,AUTO
          1 000743  B806                                 LDR,R3   ,B6
          1 000744  C3B6                                 LNJ,B4   ,B6,R3

     1738     8716    4                END;
     1739     8717    3           END;

     1740     8718
     1741     8719    2      IF KN$TCTX.OPTION.TRACE

   8719   1 000745  ECC7 0006                            LDB,B6   CTX$,AUTO
          1 000747  82C6 000C                            LB,'0040'X        12,B6
          1 000749       0040
          1 00074A  0501 0009                            BBT      s:8723,PREL

     1742     8720    2      THEN GOTO LOG_IT;
     1743     8721
PL6.E3A0      #004=KNT$SEND_TPDU File=KNT$SEND.:E05TSI                           WED 07/30/97 01:13 Page:256
     1744     8722    2      IF ENTRY_SWITCH~=%K_TPDU_TYPE_DT AND ENTRY_SWITCH~=%K_TPDU_TYPE_AK

   8722   1 00074C  E847 0014                            LDR,R6   ENTRY_SWITCH,AUTO
          1 00074E  6D0F                                 CMV,R6   15
          1 00074F  0901 0027                            BE       s:8737,PREL
          1 000751  6D06                                 CMV,R6   6
          1 000752  0901 0024                            BE       s:8737,PREL

     1745     8723    3      THEN DO;

     1746     8724    3   LOG_IT:
     1747     8725    3           IF ENTRY_SWITCH = %K_TPDU_TYPE_DR

   8725   1 000754  E847 0014            LOG_IT          LDR,R6   ENTRY_SWITCH,AUTO
          1 000756  6D08                                 CMV,R6   8
          1 000757  0981 0013                            BNE      s:8731,PREL

     1748     8726    4           THEN DO;

     1749     8727    4                IF TPDU_DR_SWITCH = 0

   8727   1 000759  D847 0015                            LDR,R5   TPDU_DR_SWITCH,AUTO
          1 00075B  5901 000F                            BEZ,R5   s:8731,PREL

     1750     8728    4                THEN GOTO LOG_SEND;
     1751     8729    4                ELSE CALL KNT$TR_FHOST(KN@NETPARM);

   8729   1 00075D  DBC7 0046                            LAB,B5   KN@NETPARM,AUTO
          1 00075F  DFC7 006A                            STB,B5   KN@NETPARM+36,AUTO
          1 000761  BBC7 006A                            LAB,B3   KN@NETPARM+36,AUTO
          1 000763  CBF0 0100                            LAB,B4   256,IMO
          1 000765  E380 0000 0000  xent                 LNJ,B6   KNT$TR_FHOST
          1 000768       0001                            DC       s:8730,PREL

     1752     8730    4                END;

   8730   1 000769  0F81 000D                            B        s:8737,PREL
PL6.E3A0      #004=KNT$SEND_TPDU File=KNT$SEND.:E05TSI                           WED 07/30/97 01:13 Page:257

     1753     8731    4           ELSE DO;

     1754     8732    4   LOG_SEND:
     1755     8733    4                CALL KNT$TR_SEND(KN@NETPARM);

   8733   1 00076B  DBC7 0046            LOG_SEND        LAB,B5   KN@NETPARM,AUTO
          1 00076D  DFC7 006A                            STB,B5   KN@NETPARM+36,AUTO
          1 00076F  BBC7 006A                            LAB,B3   KN@NETPARM+36,AUTO
          1 000771  CBF0 0100                            LAB,B4   256,IMO
          1 000773  E380 0000 0000  xent                 LNJ,B6   KNT$TR_SEND
          1 000776       0001                            DC       s:8737,PREL

     1756     8734    4                END;

     1757     8735    3           END;

     1758     8736
     1759     8737    2      RETURN;

   8737   1 000777  ECC7 0068                            LDB,B6   KN@NETPARM+34,AUTO
          1 000779  C3C6 0001                            LNJ,B4   1,B6
     1760     8738
     1761     8739    2   END I$SEND_TO_NET;
     1762     8740    1   END KNT$SEND_TPDU;
     1763     8741        %EOD;

PL6.E3A0      #004=KNT$SEND_TPDU File=KNT$SEND.:E05TSI                           WED 07/30/97 01:13 Page:258
--  Include file information  --

   GH_SCHD_M.:E05TOU  is referenced.
   KNH_MACRO_C.:E05TOU  is referenced.
   K_INTERFACE_M.:E05TOU  is referenced.
   K_TRANSPORT_M.:E05TOU  is referenced.
   K_TRANSPORT_E.:E05TOU  is referenced.
   KN_DATA_M.:E05TOU  is referenced.
   K_ADDRESS_M.:E05TOU  is referenced.
   G_LCP6_E.:E05TOU  was found in the system file and is never referenced.
   GT_LCP6_M.:E05TOU  was found in the system file and is never referenced.
   KI_CP6.:E05TOU  was found in the system file and is never referenced.
   GF_LCP6_M.:E05TOU  was found in the system file and is never referenced.
   GM_LCP6_M.:E05TOU  was found in the system file and is never referenced.
   GU_LCP6_M.:E05TOU  was found in the system file and is never referenced.
   GJ_LCP6_M.:E05TOU  was found in the system file and is never referenced.
   GH_LCP6_M.:E05TOU  was found in the system file and is never referenced.
      No diagnostics issued in procedure KNT$SEND_TPDU.
PL6.E3A0      #004=KNT$SEND_TPDU File=KNT$SEND.:E05TSI                           WED 07/30/97 01:13 Page:259

 **** Variables and constants ****

  ****  Section 000 RoData KNT$SEND_TPDU

  ****  Scalars and arrays  ****
HexLoc.c.b A Datatyp(siz) R M Lvl/name                 HexLoc.c.b A Datatyp(siz) R M Lvl/name

     0-0-0/c STRC(88)    r     1 PARM_HDRS

  ****  Auto variables  ****

  ****  Scalars and arrays  ****
HexLoc.c.b A Datatyp(siz) R M Lvl/name                 HexLoc.c.b A Datatyp(siz) R M Lvl/name

     4-0-0/w PTR         r     1 @KN$NETPARM               12-0-0/w SBIN(32)    r     1 CDT
    18-0-0/w SBIN(16)    r     1 CHKOFF                     6-0-0/w PTR         r     1 CTX$
     C-0-0/w PTR         r     1 DPTR$                     14-0-0/w SBIN(16)    r     1 ENTRY_SWITCH
     8-0-0/w PTR         r     1 FRAG$                      E-0-0/w SBIN(16)    r     1 FRAG_SZ
    11-0-0/w SBIN(16)    r     1 ITEMP1                    1A-0-0/w STRC(704)   r     1 K$TPDU
    *0-0-0/w STRC(528)   r     1 KN$NETPARM                46-0-0/w STRC(528)   r     1 KN@NETPARM
    19-0-0/w BIT         r     1 SAVE_CHKSUM               17-0-0/w UBIN(16)    r     1 SEND_DIRECTION
    10-0-0/w SBIN(16)    r     1 SPDU_SZ                    F-0-0/w SBIN(16)    r     1 THDR_SZ
     A-0-0/w PTR         r     1 TPDU$                     16-0-0/w UBIN(16)    r     1 TPDU_AK_SWITCH
    15-0-0/w UBIN(16)    r     1 TPDU_DR_SWITCH

  ****  SYMREF variables  ****

  ****  Scalars and arrays  ****
HexLoc.c.b A Datatyp(siz) R M Lvl/name                 HexLoc.c.b A Datatyp(siz) R M Lvl/name

     0-0-0/w UBIN(16)    r     1 KNT_FCCWINDOW_TIMER        0-0-0/w UBIN(32)    r     1 KNT_SCODE
     0-0-0/w UBIN(16)    r     1 KNT_WAIT_COUNT             0-0-0/w UBIN(16)    r     1 KNT_WINDOW_TIMER
     0-0-0/w PTR         r     1 KN_DCT$$                   0-0-0/w STRC(528)   r     1 KN_NETPARM_INIT
     0-0-0/c CHAR(4)     r     1 K_CKSUM_INIT

  ****  BASED and DCB variables  ****

PL6.E3A0      #004=KNT$SEND_TPDU File=KNT$SEND.:E05TSI                           WED 07/30/97 01:13 Page:260
  ****  Scalars and arrays  ****
HexLoc.c.b A Datatyp(siz) R M Lvl/name                 HexLoc.c.b A Datatyp(siz) R M Lvl/name

     0-0-0/c ACHR        r     1 B$CHAR                     0-0-0/w ACHR        r     1 B$CHAR_ALGN
     0-0-0/c STRC(56)    r     1 B$TPDU                     0-0-0/w STRC(40)    r     1 B$TPDU_AK
     0-0-0/w STRC(80)    r     1 B$TPDU_AK_EXT              0-0-0/w STRC(56)    r     1 B$TPDU_C
     0-0-0/w STRC(48)    r     1 B$TPDU_DC                  0-0-0/w STRC(56)    r     1 B$TPDU_DR
     0-0-0/w STRC(40)    r     1 B$TPDU_EA                  0-0-0/w STRC(64)    r     1 B$TPDU_EA_EXT
     0-0-0/w STRC(40)    r     1 B$TPDU_ER                  0-0-0/c CHAR(2)     r     1 CHR2BSD
     0-0-0/c CHAR(3)     r     1 CHR3BSD                    0-0-0/c CHAR(4)     r     1 CHR4BSD
     0-0-0/w STRC(128)   r     1 FRAG_HDR                   0-0-0/c STRC(32)    r     1 K$TPARM_CHKSUM
     0-0-0/c STRC(24)    r     1 K$TPARM_CLR_INFO           0-0-0/c STRC(80)    r     1 K$TPARM_FCC
     0-0-0/c STRC(24)    r     1 K$TPARM_OPTION             0-0-0/c STRC(24)    r     1 K$TPARM_TPDUSZ
     0-0-0/c STRC(272)   r     1 K$TPARM_TSAP_ID            0-0-0/c STRC(24)    r     1 K$TPARM_VERSION
     0-0-0/c STRC(40)    r     1 K$TPDU_AK                  0-0-0/c STRC(80)    r     1 K$TPDU_AK_EXT
     0-0-0/c STRC(56)    r     1 K$TPDU_CR_CC               0-0-0/c STRC(48)    r     1 K$TPDU_DC
     0-0-0/c STRC(56)    r     1 K$TPDU_DR                  0-0-0/c STRC(40)    r     1 K$TPDU_EA
     0-0-0/c STRC(64)    r     1 K$TPDU_EA_EXT              0-0-0/c STRC(40)    r     1 K$TPDU_ER
     0-0-0/w PTR         r     1 KN$LDCT$(0:0)
     0-0-0/w STRC(2816)  r     1 KN$TCTX


   Procedure KNT$SEND_TPDU requires 1915 words for executable code.
   Procedure KNT$SEND_TPDU requires 112 words of local(AUTO) storage.
PL6.E3A0      #004=KNT$SEND_TPDU File=KNT$SEND.:E05TSI                           WED 07/30/97 01:13 Page:261
          *** CROSS REFERENCE LISTING ***
**     DENOTES     IDENTIFIER DEFINITION
<<                 IDENTIFIER'S VALUE SET
>>                 IDENTIFIER'S VALUE USED
<>                 IDENTIFIER SET AND/OR USED
--                 IDENTIFIER REFERENCED
PL6.E3A0      #004=KNT$SEND_TPDU File=KNT$SEND.:E05TSI                           WED 07/30/97 01:13 Page:262
          MINI XREF LISTING

APPEND_SHDR
      8452**LABEL    8427--GOTO
B$CHAR
      7931**DCL      8410<<ASSIGN   8410>>ASSIGN   8422<<ASSIGN   8422>>ASSIGN   8465<<ASSIGN   8472<<ASSIGN
      8479<<ASSIGN   8479>>ASSIGN
B$CHAR_ALGN
      7932**DCL      8465>>ASSIGN   8472>>ASSIGN
B$TPDU
      6834**DCL      8631--ASSIGN
B$TPDU.DST_REF
      6862**DCL      8625<<ASSIGN
B$TPDU.LI
      6835**DCL      8618>>ASSIGN   8621<<ASSIGN   8621>>ASSIGN   8622>>ASSIGN   8629<<ASSIGN   8629>>ASSIGN
      8630>>ASSIGN
B$TPDU_AK.CDT
      6953**DCL      8537<<ASSIGN
B$TPDU_AK.LI
      6939**DCL      8536<<ASSIGN   8545>>ASSIGN   8547<<ASSIGN   8547>>ASSIGN
B$TPDU_AK.TYPE
      6946**DCL      8541<<ASSIGN
B$TPDU_AK.YR_TU_NR
      6964**DCL      8538<<ASSIGN
B$TPDU_AK_EXT.CDT
      6915**DCL      8531<<ASSIGN
B$TPDU_AK_EXT.LI
      6895**DCL      8530<<ASSIGN
B$TPDU_AK_EXT.MBZ
      6906**DCL      8533<<ASSIGN
B$TPDU_AK_EXT.YR_TU_NR
      6911**DCL      8532<<ASSIGN
B$TPDU_C.CDT
      7082**DCL      8378<<ASSIGN   8381<<ASSIGN   8382<<ASSIGN
PL6.E3A0      #004=KNT$SEND_TPDU File=KNT$SEND.:E05TSI                           WED 07/30/97 01:13 Page:263
B$TPDU_C.CLASS
      7101**DCL      8374<<ASSIGN
B$TPDU_C.DST_REF
      7086**DCL      8335<<ASSIGN
B$TPDU_C.EXT_FMT_FLAG
      7109**DCL      8375<<ASSIGN
B$TPDU_C.LI
      7069**DCL      8333<<ASSIGN
B$TPDU_C.MBZ
      7108**DCL      8336<<ASSIGN
B$TPDU_C.SRC_REF
      7094**DCL      8334<<ASSIGN
B$TPDU_C.TYPE
      7076**DCL      8372<<ASSIGN
B$TPDU_DC.LI
      6987**DCL      8592<<ASSIGN
B$TPDU_DC.MBZ
      6999**DCL      8593<<ASSIGN
B$TPDU_DC.SRC_REF
      7004**DCL      8594<<ASSIGN
B$TPDU_DC.TYPE
      6994**DCL      8595<<ASSIGN
B$TPDU_DR.DST_REF
      7039**DCL      8358<<ASSIGN
B$TPDU_DR.MBZ
      7038**DCL      8343<<ASSIGN
B$TPDU_DR.REASON
      7047**DCL      8342<<ASSIGN
B$TPDU_DR.TYPE
      7033**DCL      8341<<ASSIGN
B$TPDU_EA.LI
      7164**DCL      8573<<ASSIGN
B$TPDU_EA.MBZ
      7169**DCL      8578<<ASSIGN
B$TPDU_EA.TYPE
      7168**DCL      8577<<ASSIGN
PL6.E3A0      #004=KNT$SEND_TPDU File=KNT$SEND.:E05TSI                           WED 07/30/97 01:13 Page:264
B$TPDU_EA.YR_EDTU_NR
      7171**DCL      8574<<ASSIGN
B$TPDU_EA_EXT.LI
      7138**DCL      8567<<ASSIGN
B$TPDU_EA_EXT.MBZ
      7143**DCL      8569<<ASSIGN
B$TPDU_EA_EXT.YR_TU_NR
      7145**DCL      8568<<ASSIGN
B$TPDU_ER.LI
      7190**DCL      8609<<ASSIGN
B$TPDU_ER.MBZ
      7202**DCL      8610<<ASSIGN
B$TPDU_ER.REJECT_CAUSE
      7207**DCL      8612<<ASSIGN
B$TPDU_ER.TYPE
      7197**DCL      8611<<ASSIGN
BUILD_CHKSUM
      8631**LABEL    8486--GOTO
CDT
      5425**DCL      8514<<ASSIGN   8515<<ASSIGN   8517>>IF       8518<<ASSIGN   8518>>ASSIGN   8522>>IF
      8523<<ASSIGN   8524<<ASSIGN   8524>>ASSIGN   8531>>ASSIGN   8537>>ASSIGN   8659>>ASSIGN
CHKOFF
      5430**DCL      8456<<ASSIGN   8618<<ASSIGN   8631>>ASSIGN   8633<>CALL
CHK_CHKSUM
      8442**LABEL    8369--GOTO
CHR2BSD
      7930**DCL      8391<<ASSIGN   8391>>ASSIGN
CHR3BSD
      7929**DCL      8349<<ASSIGN   8349>>ASSIGN   8431<<ASSIGN   8431>>ASSIGN   8445<<ASSIGN   8445>>ASSIGN
CHR4BSD
      7928**DCL      8454<<ASSIGN   8454>>ASSIGN   8631<<ASSIGN   8631>>ASSIGN
COMMON_AK
      8502**LABEL    8499--GOTO
COMMON_DR
      8231**LABEL    8228--GOTO
COMMON_SEND IN PROCEDURE I$SEND_TO_NET
PL6.E3A0      #004=KNT$SEND_TPDU File=KNT$SEND.:E05TSI                           WED 07/30/97 01:13 Page:265
      8682**LABEL    8676--GOTO
CTX$
      5417**DCL      5915--IMP-PTR  8119<<ASSIGN   8120>>ASSIGN   8122>>DOWHILE  8122>>DOWHILE  8122>>DOWHILE
      8126>>ASSIGN   8128>>IF       8128>>IF       8130>>IF       8130>>IF       8132>>IF       8132>>IF
      8136>>ASSIGN   8136>>ASSIGN   8142>>IF       8142>>IF       8154>>ASSIGN   8154>>ASSIGN   8159>>IF
      8161>>IF       8161>>IF       8163>>ASSIGN   8164>>CALL     8168>>ASSIGN   8170>>IF       8172>>ASSIGN
      8174>>IF       8175>>ASSIGN   8177>>CALL     8183>>IF       8195<<ASSIGN   8196>>ASSIGN   8198>>IF
      8198>>IF       8198>>IF       8198>>IF       8202>>ASSIGN   8208>>ASSIGN   8209>>ASSIGN   8210>>CALL
      8235<<ASSIGN   8236>>ASSIGN   8241>>CALL     8245>>IF       8245>>IF       8249>>IF       8251>>IF
      8252>>ASSIGN   8252>>ASSIGN   8253>>ASSIGN   8267<<ASSIGN   8270>>ASSIGN   8271>>IF       8272>>ASSIGN
      8282<<ASSIGN   8284>>ASSIGN   8294>>IF       8295>>ASSIGN   8297>>IF       8298>>ASSIGN   8300>>IF
      8310>>IF       8316>>IF       8321>>CALL     8329>>ASSIGN   8330>>ASSIGN   8334>>ASSIGN   8335>>ASSIGN
      8342>>ASSIGN   8347>>IF       8347>>IF       8350>>ASSIGN   8356>>IF       8358>>ASSIGN   8359>>ASSIGN
      8374>>ASSIGN   8375>>ASSIGN   8377>>IF       8380>>IF       8382>>ASSIGN   8392>>ASSIGN   8402>>ASSIGN
      8409>>ASSIGN   8410>>ASSIGN   8414>>ASSIGN   8421>>ASSIGN   8422>>ASSIGN   8426>>IF       8435>>IF
      8452>>IF       8482>>IF       8485>>ASSIGN   8505<<ASSIGN   8508>>IF       8508>>IF       8513>>IF
      8514>>ASSIGN   8514>>ASSIGN   8515>>ASSIGN   8515>>ASSIGN   8518>>ASSIGN   8520>>IF       8522>>IF
      8524>>ASSIGN   8528>>IF       8532>>ASSIGN   8538>>ASSIGN   8551>>ASSIGN   8561<<ASSIGN   8565>>IF
      8568>>ASSIGN   8574>>ASSIGN   8588<<ASSIGN   8594>>ASSIGN   8605<<ASSIGN   8620>>IF       8625>>ASSIGN
      8627>>IF       8653>>ASSIGN   8654>>ASSIGN   8655>>IF       8656>>CALL     8657>>IF       8659>>ASSIGN
      8659>>ASSIGN   8660>>IF       8660>>IF       8661>>ASSIGN   8661>>ASSIGN   8661>>ASSIGN   8683>>ASSIGN
      8684>>ASSIGN   8694>>IF       8697>>ASSIGN   8698>>ASSIGN   8701>>IF       8703>>ASSIGN   8719>>IF
DPTR$
      5420**DCL      8345<<ASSIGN   8349>>ASSIGN   8350>>ASSIGN   8351<<ASSIGN   8351>>ASSIGN   8387<<ASSIGN
      8391>>ASSIGN   8392>>ASSIGN   8393<<ASSIGN   8393>>ASSIGN   8406>>ASSIGN   8407>>ASSIGN   8409>>ASSIGN
      8410>>ASSIGN   8411<<ASSIGN   8411>>ASSIGN   8418>>ASSIGN   8419>>ASSIGN   8421>>ASSIGN   8422>>ASSIGN
      8423<<ASSIGN   8423>>ASSIGN   8431>>ASSIGN   8434>>ASSIGN   8436>>ASSIGN   8438<<ASSIGN   8438>>ASSIGN
      8445>>ASSIGN   8446<<ASSIGN   8446>>ASSIGN   8454>>ASSIGN   8455<<ASSIGN   8455>>ASSIGN   8456>>ASSIGN
      8465>>ASSIGN   8466<<ASSIGN   8466>>ASSIGN   8472>>ASSIGN   8473<<ASSIGN   8473>>ASSIGN   8479>>ASSIGN
      8545<<ASSIGN   8546>>ASSIGN
ENTRY_SWITCH
      5426**DCL      8118<<ASSIGN   8194<<ASSIGN   8234<<ASSIGN   8268<<ASSIGN   8283<<ASSIGN   8304>>IF
      8338>>IF       8372>>ASSIGN   8405>>IF       8417>>IF       8442>>IF       8484>>IF       8506<<ASSIGN
      8562<<ASSIGN   8589<<ASSIGN   8606<<ASSIGN   8639>>IF       8639>>IF       8639>>IF       8650>>IF
      8722>>IF       8722>>IF       8725>>IF
FINISH_UP
PL6.E3A0      #004=KNT$SEND_TPDU File=KNT$SEND.:E05TSI                           WED 07/30/97 01:13 Page:266
      8612**LABEL    8552--GOTO     8597--GOTO     8614--GOTO
FRAG$
      5418**DCL      7230--IMP-PTR  8126<<ASSIGN   8132>>IF       8132>>IF       8142>>IF       8142>>IF
      8148>>ASSIGN   8149>>ASSIGN   8168>>ASSIGN   8172>>ASSIGN   8177>>CALL     8202<<ASSIGN   8203>>ASSIGN
      8204>>ASSIGN   8208>>ASSIGN   8321<>CALL     8327>>ASSIGN   8329>>ASSIGN   8330>>ASSIGN   8332>>ASSIGN
      8340>>ASSIGN
FRAG_HDR
      7230**DCL      8148--ASSIGN   8177<>CALL     8203--ASSIGN   8332--ASSIGN
FRAG_HDR.DATA_BSIZE
      7239**DCL      8149>>ASSIGN   8204>>ASSIGN
FRAG_HDR.LINK$
      7255**DCL      8168>>ASSIGN   8172>>ASSIGN   8208>>ASSIGN
FRAG_HDR.SEQ
      7243**DCL      7244--REDEF    8132>>IF       8132>>IF       8142>>IF       8142>>IF       8340<<ASSIGN
      8514>>ASSIGN
FRAG_HDR.SEQ_SBIN
      7244**DCL      8327<<ASSIGN
FRAG_SZ
      5421**DCL      8149<<ASSIGN   8204<<ASSIGN   8319<<ASSIGN   8321<>CALL     8622<<ASSIGN   8630<<ASSIGN
      8633<>CALL     8686>>ASSIGN
GET_INIT_THDR_SZ
      8288**LABEL    8274--GOTO
GHS$SET_TMR
      5903**DCL-ENT  8164--CALL     8210--CALL     8656--CALL
GOT_INIT_THDR_SZ
      8300**LABEL    8259--GOTO
I$SEND_TO_HOST IN PROCEDURE I$SEND_TO_NET
      8678**ENTRY    8360--CALL
I$SEND_TO_NET
      8673**PROC     8151--CALL     8206--CALL     8637--CALL
ITEMP1
      5424**DCL      7931--IMP-SIZ  7932--IMP-SIZ  8402<<ASSIGN   8403>>IF       8410>>ASSIGN   8410>>ASSIGN
      8411>>ASSIGN   8414<<ASSIGN   8415>>IF       8422>>ASSIGN   8422>>ASSIGN   8423>>ASSIGN   8464<<ASSIGN
      8465>>ASSIGN   8465>>ASSIGN   8471<<ASSIGN   8472>>ASSIGN   8472>>ASSIGN   8478<<ASSIGN   8479>>ASSIGN
      8479>>ASSIGN
K$TPARM_CHKSUM
PL6.E3A0      #004=KNT$SEND_TPDU File=KNT$SEND.:E05TSI                           WED 07/30/97 01:13 Page:267
      7649**DCL      8311--ASSIGN   8455--ASSIGN   8629--ASSIGN
K$TPARM_CLR_INFO
      7848**DCL      8246--ASSIGN
K$TPARM_CLR_INFO.PVALUE
      7865**DCL      7872--REDEF
K$TPARM_FCC
      7897**DCL      8546<<ASSIGN   8546>>ASSIGN   8547--ASSIGN
K$TPARM_OPTION
      7801**DCL      8302--ASSIGN   8438--ASSIGN
K$TPARM_OPTION.CHKSUM
      7818**DCL      8434<<ASSIGN
K$TPARM_OPTION.EXPD
      7824**DCL      8436<<ASSIGN
K$TPARM_TPDUSZ
      7725**DCL      8291--ASSIGN   8393--ASSIGN
K$TPARM_TPDUSZ.SIZE
      7738**DCL      8392<<ASSIGN
K$TPARM_TSAP_ID.CODE
      7768**DCL      8406<<ASSIGN   8407<<ASSIGN   8418<<ASSIGN   8419<<ASSIGN
K$TPARM_TSAP_ID.ID
      7779**DCL      8410--ASSIGN   8422--ASSIGN
K$TPARM_TSAP_ID.LEN
      7774**DCL      8409<<ASSIGN   8421<<ASSIGN
K$TPARM_VERSION
      7689**DCL      8305--ASSIGN   8351--ASSIGN   8446--ASSIGN
K$TPARM_VERSION.VERS
      7702**DCL      8350<<ASSIGN
K$TPDU
      5451**DCL      8527--ASSIGN   8564--ASSIGN   8591--ASSIGN   8608--ASSIGN
K$TPDU_AK
      7465**DCL      8536--ASSIGN
K$TPDU_AK_EXT
      7513**DCL      8530--ASSIGN
K$TPDU_CR_CC
      7314**DCL      8291--ASSIGN   8387--ASSIGN
K$TPDU_DC
PL6.E3A0      #004=KNT$SEND_TPDU File=KNT$SEND.:E05TSI                           WED 07/30/97 01:13 Page:268
      7426**DCL      8592--ASSIGN
K$TPDU_DR
      7383**DCL      8243--ASSIGN   8345--ASSIGN
K$TPDU_EA
      7557**DCL      8573--ASSIGN
K$TPDU_EA_EXT
      7583**DCL      8567--ASSIGN
K$TPDU_ER
      7609**DCL      8609--ASSIGN
KN$LDCT$
      7934**DCL      8703>>ASSIGN
KN$NETPARM
      5275**DCL        24--PROC     8117--ENTRY    8193--ENTRY    8226--ENTRY    8230--ENTRY    8266--ENTRY
      8281--ENTRY    8497--ENTRY    8501--ENTRY    8560--ENTRY    8587--ENTRY    8604--ENTRY
KN$NETPARM.ERRCODE
      5382**DCL      8155<<ASSIGN   8323<<ASSIGN
KN$NETPARM.FPT$
      5394**DCL      8546>>ASSIGN
KN$NETPARM.LDCT$
      5276**DCL      8712>>ASSIGN
KN$NETPARM.MSG$
      5282**DCL      5287--REDEF    8479>>ASSIGN
KN$NETPARM.MSGSZ
      5293**DCL      8237<<ASSIGN   8288<<ASSIGN   8314>>ASSIGN   8476>>IF       8478>>ASSIGN
KN$NETPARM.NHDR$
      5334**DCL      5335--REDEF
KN$NETPARM.NODE
      5377**DCL      8120<<ASSIGN   8196<<ASSIGN   8236<<ASSIGN   8359<<ASSIGN   8551<<ASSIGN   8687>>ASSIGN
KN$NETPARM.SHDR$
      5312**DCL      5313--REDEF    8465>>ASSIGN
KN$NETPARM.SHDRSZ
      5318**DCL      8239<<ASSIGN   8286<<ASSIGN   8314>>ASSIGN   8462>>IF       8464>>ASSIGN   8466>>ASSIGN
KN$NETPARM.TCTX$
      5399**DCL      8119>>ASSIGN   8195>>ASSIGN   8235>>ASSIGN   8267>>ASSIGN   8282>>ASSIGN   8505>>ASSIGN
      8561>>ASSIGN   8588>>ASSIGN   8605>>ASSIGN
KN$NETPARM.THDR$
PL6.E3A0      #004=KNT$SEND_TPDU File=KNT$SEND.:E05TSI                           WED 07/30/97 01:13 Page:269
      5323**DCL      5324--REDEF
KN$NETPARM.UHDR$
      5298**DCL      5299--REDEF    8472>>ASSIGN
KN$NETPARM.UHDRSZ
      5307**DCL      8238<<ASSIGN   8287<<ASSIGN   8314>>ASSIGN   8469>>IF       8471>>ASSIGN   8473>>ASSIGN
KN$TCTX
      5915**DCL      8177<>CALL     8241<>CALL     8321<>CALL
KN$TCTX.CLASS
      5981**DCL      8128>>IF       8159>>IF       8170>>IF       8183>>IF       8245>>IF       8245>>IF
      8271>>IF       8300>>IF       8347>>IF       8347>>IF       8374>>ASSIGN   8377>>IF       8426>>IF
      8508>>IF       8655>>IF
KN$TCTX.DST_NSAP
      6770**DCL      8698--ASSIGN
KN$TCTX.DST_NSAP.ADDRESS_N
      6800**DCL      6801--REDEF
KN$TCTX.DST_REF
      5941**DCL      8335>>ASSIGN   8625>>ASSIGN
KN$TCTX.DST_TSAP.LEN
      6664**DCL      8294>>IF       8295>>ASSIGN   8402>>ASSIGN   8409>>ASSIGN
KN$TCTX.DST_TSAP.TSAP
      6672**DCL      8410--ASSIGN
KN$TCTX.ERR
      6172**DCL      8251>>IF       8252<<ASSIGN   8350>>ASSIGN
KN$TCTX.HOST_NODE
      5964**DCL      8359>>ASSIGN
KN$TCTX.HOST_REF
      5957**DCL      8356>>IF       8358>>ASSIGN
KN$TCTX.LDCTX#
      5935**DCL      8703>>ASSIGN
KN$TCTX.LOST_TPDU
      6100**DCL      8513>>IF       8520>>IF       8657>>IF
KN$TCTX.MAXSEQ
      6019**DCL      8518>>ASSIGN   8660>>IF       8661>>ASSIGN
KN$TCTX.NODE
      5922**DCL      5935--REDEF    8120>>ASSIGN   8196>>ASSIGN   8236>>ASSIGN   8551>>ASSIGN
KN$TCTX.OPTION.CHKSUM
PL6.E3A0      #004=KNT$SEND_TPDU File=KNT$SEND.:E05TSI                           WED 07/30/97 01:13 Page:270
      6078**DCL      8270>>ASSIGN   8272<<ASSIGN   8284>>ASSIGN   8310>>IF       8452>>IF       8482>>IF
      8485<<ASSIGN   8627>>IF
KN$TCTX.OPTION.CLASS_2_FLOW
      6053**DCL      8128>>IF       8508>>IF
KN$TCTX.OPTION.CONS
      6034**DCL      8701>>IF
KN$TCTX.OPTION.EXPEDITED
      6066**DCL      8435>>IF
KN$TCTX.OPTION.EXTENDED
      6058**DCL      8375>>ASSIGN   8528>>IF       8565>>IF
KN$TCTX.OPTION.OSI
      6043**DCL      8316>>IF       8620>>IF       8694>>IF
KN$TCTX.OPTION.TRACE
      6029**DCL      8719>>IF
KN$TCTX.RCV_WINDOW_SZ
      5987**DCL      8380>>IF       8382>>ASSIGN   8522>>IF       8524>>ASSIGN
KN$TCTX.REASON
      6166**DCL      8249>>IF       8252>>ASSIGN   8253<<ASSIGN   8342>>ASSIGN
KN$TCTX.RECV_EXPD
      6313**DCL      8568>>ASSIGN   8574>>ASSIGN
KN$TCTX.RECV_HEAD$
      6321**DCL      8514>>ASSIGN
KN$TCTX.RECV_LWE
      6283**DCL      8514>>ASSIGN   8515>>ASSIGN   8532>>ASSIGN   8538>>ASSIGN   8659>>ASSIGN
KN$TCTX.RECV_NEXT
      6302**DCL      8515>>ASSIGN
KN$TCTX.RECV_UWE
      6293**DCL      8659<<ASSIGN   8660>>IF       8661<<ASSIGN   8661>>ASSIGN
KN$TCTX.SEND_EHEAD$
      6401**DCL      8122>>DOWHILE  8198>>IF
KN$TCTX.SEND_ENOTSENT$
      6414**DCL      8198>>IF       8198>>IF       8202>>ASSIGN   8208<<ASSIGN
KN$TCTX.SEND_HEAD$
      6376**DCL      8161>>IF       8172<<ASSIGN   8174>>IF       8329<<ASSIGN
KN$TCTX.SEND_LWE
      6343**DCL      8130>>IF       8132>>IF       8142>>IF
PL6.E3A0      #004=KNT$SEND_TPDU File=KNT$SEND.:E05TSI                           WED 07/30/97 01:13 Page:271
KN$TCTX.SEND_NOTSENT$
      6393**DCL      8122>>DOWHILE  8126>>ASSIGN   8161>>IF       8168<<ASSIGN
KN$TCTX.SEND_RETRY_COUNT
      6459**DCL      8163<<ASSIGN   8209<<ASSIGN
KN$TCTX.SEND_TAIL$
      6384**DCL      8175<<ASSIGN   8330<<ASSIGN
KN$TCTX.SEND_UWE
      6349**DCL      8130>>IF       8132>>IF       8142>>IF
KN$TCTX.SERR.DT_NWINDOW
      6201**DCL      8136<<ASSIGN   8136>>ASSIGN
KN$TCTX.SERR.NOQ
      6207**DCL      8154<<ASSIGN   8154>>ASSIGN
KN$TCTX.SRC_NSAP
      6706**DCL      8697--ASSIGN
KN$TCTX.SRC_NSAP.ADDRESS_N
      6736**DCL      6737--REDEF
KN$TCTX.SRC_REF
      5949**DCL      8334>>ASSIGN   8594>>ASSIGN   8684>>ASSIGN
KN$TCTX.SRC_TSAP.LEN
      6620**DCL      8297>>IF       8298>>ASSIGN   8414>>ASSIGN   8421>>ASSIGN
KN$TCTX.SRC_TSAP.TSAP
      6628**DCL      8422--ASSIGN
KN$TCTX.STATE
      5916**DCL      8122>>DOWHILE  8198>>IF
KN$TCTX.TMR_INACTIVITY.ARG
      6556**DCL      6557--REDEF
KN$TCTX.TMR_REFERENCE.ARG
      6586**DCL      6587--REDEF
KN$TCTX.TMR_RETRAN
      6495**DCL      8164<>CALL     8210<>CALL
KN$TCTX.TMR_RETRAN.ARG
      6497**DCL      6498--REDEF
KN$TCTX.TMR_WINDOW
      6524**DCL      8656<>CALL
KN$TCTX.TMR_WINDOW.ARG
      6526**DCL      6527--REDEF
PL6.E3A0      #004=KNT$SEND_TPDU File=KNT$SEND.:E05TSI                           WED 07/30/97 01:13 Page:272
KN$TCTX.TMR_WINDOW.INTERVAL
      6527**DCL      8653<<ASSIGN   8654<<ASSIGN
KN$TCTX.TPDUSZ_PARM
      6017**DCL      8392>>ASSIGN
KN@NETPARM
      5754**DCL      8682<<ASSIGN   8704<>CALL     8713<>CALL     8729<>CALL     8733<>CALL
KN@NETPARM.DST_ADDR$
      5888**DCL      8698<<ASSIGN
KN@NETPARM.FUNCTION
      5849**DCL      8689<<ASSIGN   8696<<ASSIGN
KN@NETPARM.LDCT$
      5755**DCL      8703<<ASSIGN   8712<<ASSIGN
KN@NETPARM.MSG$
      5761**DCL      5766--REDEF
KN@NETPARM.NHDR$
      5813**DCL      5814--REDEF
KN@NETPARM.NODE
      5856**DCL      8687<<ASSIGN
KN@NETPARM.SHDR$
      5791**DCL      5792--REDEF
KN@NETPARM.SRC_ADDR$
      5883**DCL      8697<<ASSIGN
KN@NETPARM.TCTX$
      5878**DCL      8683<<ASSIGN
KN@NETPARM.TCTX_ID
      5824**DCL      8684<<ASSIGN
KN@NETPARM.THDR$
      5802**DCL      5803--REDEF    8685<<ASSIGN
KN@NETPARM.THDRSZ
      5808**DCL      8686<<ASSIGN
KN@NETPARM.UHDR$
      5777**DCL      5778--REDEF
KNA$CALC_CHKSUM
      5900**DCL-ENT  8633--CALL
KNH$SEND
      5902**DCL-ENT  8704--CALL
PL6.E3A0      #004=KNT$SEND_TPDU File=KNT$SEND.:E05TSI                           WED 07/30/97 01:13 Page:273
KNN$SEND
      5901**DCL-ENT  8713--CALL
KNT$GET_SBUF
      5896**DCL-ENT  8321--CALL
KNT$RELBUF
      5897**DCL-ENT  8177--CALL
KNT$RLS_CHAIN
      5898**DCL-ENT  8241--CALL
KNT$TR_FHOST
      5906**DCL-ENT  8729--CALL
KNT$TR_SEND
      5905**DCL-ENT  8733--CALL
KNT$UNQ_BUFFER
      5899**DCL-ENT  8184--CALL
KNT_FCCWINDOW_TIMER
      8092**DCL      8654>>ASSIGN
KNT_SCODE
      8094**DCL      8510<>CALL
KNT_WAIT_COUNT
      8090**DCL      8183>>IF
KNT_WINDOW_TIMER
      8091**DCL      8653>>ASSIGN
KN_DCT$$
      8093**DCL      7934--IMP-PTR  8703>>ASSIGN
KN_NETPARM_INIT
      7949**DCL      8682>>ASSIGN
KN_NETPARM_INIT.MSG$
      7956**DCL      7961--REDEF
KN_NETPARM_INIT.NHDR$
      8008**DCL      8009--REDEF
KN_NETPARM_INIT.SHDR$
      7986**DCL      7987--REDEF
KN_NETPARM_INIT.THDR$
      7997**DCL      7998--REDEF
KN_NETPARM_INIT.UHDR$
      7972**DCL      7973--REDEF
PL6.E3A0      #004=KNT$SEND_TPDU File=KNT$SEND.:E05TSI                           WED 07/30/97 01:13 Page:274
K_CKSUM_INIT
      8089**DCL      8454--ASSIGN   8631--ASSIGN
LOG_IT IN PROCEDURE I$SEND_TO_NET
      8725**LABEL    8720--GOTO
LOG_SEND IN PROCEDURE I$SEND_TO_NET
      8733**LABEL    8728--GOTO
NOQ_4BUFFERED
      8154**LABEL    8206--CALLALT  8642--GOTO
NO_SEND_WINDOW
      8136**LABEL    8144--GOTO
PARM_HDRS.CLR_INFO
      8105**DCL      8349--ASSIGN
PARM_HDRS.OPTION
      8102**DCL      8431--ASSIGN
PARM_HDRS.SIZE
      8100**DCL      8391--ASSIGN
PARM_HDRS.VERS
      8097**DCL      8445--ASSIGN
SAVE_CHKSUM
      5431**DCL      8270<<ASSIGN   8284<<ASSIGN   8433>>IF       8485>>ASSIGN
SCREECH
      5907**DCL-ENT  8510--CALL
SEND_DIRECTION
      5429**DCL      8675<<ASSIGN   8679<<ASSIGN   8691>>IF
SEND_TO_HOST IN PROCEDURE I$SEND_TO_NET
      8712**LABEL    8692--GOTO
SEND_TO_NET
      8631**LABEL    8489--GOTO
SET_ACK_NODE
      8543**LABEL    8580--GOTO
SKIP_CHKSUM
      8314**LABEL    8258--GOTO
SPDU_SZ
      5423**DCL      8314<<ASSIGN   8319>>ASSIGN
THDR_SZ
      5422**DCL      8243<<ASSIGN   8246<<ASSIGN   8246>>ASSIGN   8291<<ASSIGN   8295<<ASSIGN   8295>>ASSIGN
PL6.E3A0      #004=KNT$SEND_TPDU File=KNT$SEND.:E05TSI                           WED 07/30/97 01:13 Page:275
      8298<<ASSIGN   8298>>ASSIGN   8302<<ASSIGN   8302>>ASSIGN   8305<<ASSIGN   8305>>ASSIGN   8311<<ASSIGN
      8311>>ASSIGN   8317<<ASSIGN   8317>>ASSIGN   8319>>ASSIGN   8333>>ASSIGN
TPDU$
      5419**DCL      6834--IMP-PTR  6894--IMP-PTR  6938--IMP-PTR  6986--IMP-PTR  7025--IMP-PTR  7068--IMP-PTR
      7137--IMP-PTR  7163--IMP-PTR  7189--IMP-PTR  8148<<ASSIGN   8203<<ASSIGN   8332<<ASSIGN   8333>>ASSIGN
      8334>>ASSIGN   8335>>ASSIGN   8336>>ASSIGN   8341>>ASSIGN   8342>>ASSIGN   8343>>ASSIGN   8345>>ASSIGN
      8358>>ASSIGN   8372>>ASSIGN   8374>>ASSIGN   8375>>ASSIGN   8378>>ASSIGN   8381>>ASSIGN   8382>>ASSIGN
      8387>>ASSIGN   8456>>ASSIGN   8527<<ASSIGN   8530>>ASSIGN   8531>>ASSIGN   8532>>ASSIGN   8533>>ASSIGN
      8536>>ASSIGN   8537>>ASSIGN   8538>>ASSIGN   8541>>ASSIGN   8545>>ASSIGN   8545>>ASSIGN   8547>>ASSIGN
      8547>>ASSIGN   8564<<ASSIGN   8567>>ASSIGN   8568>>ASSIGN   8569>>ASSIGN   8573>>ASSIGN   8574>>ASSIGN
      8577>>ASSIGN   8578>>ASSIGN   8591<<ASSIGN   8592>>ASSIGN   8593>>ASSIGN   8594>>ASSIGN   8595>>ASSIGN
      8608<<ASSIGN   8609>>ASSIGN   8610>>ASSIGN   8611>>ASSIGN   8612>>ASSIGN   8618>>ASSIGN   8621>>ASSIGN
      8621>>ASSIGN   8622>>ASSIGN   8625>>ASSIGN   8629>>ASSIGN   8629>>ASSIGN   8630>>ASSIGN   8631>>ASSIGN
      8633<>CALL     8685>>ASSIGN
TPDU_AK_SWITCH
      5428**DCL      8498<<ASSIGN   8502<<ASSIGN   8543>>IF       8652>>IF
TPDU_DR_SWITCH
      5427**DCL      8227<<ASSIGN   8231<<ASSIGN   8257>>IF       8354>>IF       8727>>IF

