VERSION E05

PL6.E3A0      #001=KNT$SEND File=KNT$SEND.:E05TSI                                WED 07/30/97 01:11 Page:1
        1        1        /*M* KNT$SEND - Send session messages to network.   */
        2        2        /*T***********************************************************/
        3        3        /*T*                                                         */
        4        4        /*T* Copyright (c) Bull HN Information Systems Inc., 1997    */
        5        5        /*T*                                                         */
        6        6        /*T***********************************************************/
        7        7        /*X* PLM=3,IND=5,ENU=0,ECU=0 */
        8        8
        9        9        KNT$SEND: PROC(KN$NETPARM) ALTRET;
       10       10
       11       11        %INCLUDE GH_GATE_M;
       12       52        %INCLUDE GH_SCHD_M;
       13      196        %INCLUDE K_ADDRESS_M;
       14      699        %INCLUDE K_INTERFACE_M;
       15     1108        %INCLUDE K_TRANSPORT_E;
       16     1433        %INCLUDE K_TRANSPORT_M;
       17     3217 S      %INCLUDE KI_CP6;
       18     3218        %INCLUDE KN_DATA_M;
       19     5004        %INCLUDE KNH_MACRO_C;
       20     5287
       21     5288                                                /* Input parameters                   */
       22     5289        %KN$NETPARM;
       23     5442                                                /* Auto Storage                       */
       24     5443    1   DCL ITEMP1 SBIN;
       25     5444    1   DCL EVENT SBIN;
       26     5445    1   DCL CTX$ PTR;
       27     5446    1   DCL FPT$ PTR;
       28     5447    1   DCL QQQ$ PTR;
       29     5448    1   DCL TCTX_ID SBIN;
       30     5449
       31     5450        %K$TPDU_DT (STCLASS=AUTO);
       32     5500        %K$TPDU_DT_0 (STCLASS=AUTO);
       33     5545        %K$TPDU_DT_EXT (STCLASS=AUTO);
       34     5609
       35     5610    1   DCL ENTRY_SWITCH UBIN;
       36     5611        %EQU PRIMARY=0;
       37     5612        %EQU SEND_4HOST=1;
PL6.E3A0      #001=KNT$SEND File=KNT$SEND.:E05TSI                                WED 07/30/97 01:11 Page:2
       38     5613
       39     5614                                                /* External Procedures                */
       40     5615    1   DCL KNA$GETTCTX ENTRY(1) ALTRET;
       41     5616    1   DCL KNA$RELTCTX ENTRY(1) ALTRET;
       42     5617    1   DCL KNH$SEND ENTRY(1) ALTRET;
       43     5618    1   DCL KNN$SEND ENTRY(1) ALTRET;
       44     5619    1   DCL KNT$SAVE_DT ENTRY(1) ALTRET;
       45     5620    1   DCL KNT$SAVE_ED ENTRY(1) ALTRET;
       46     5621    1   DCL KNT$SAVE_CLASS0 ENTRY(1) ALTRET;
       47     5622    1   DCL KNT$SAVE_CLASS2 ENTRY(1) ALTRET;
       48     5623    1   DCL KNT$SEND_CC ENTRY(1) ALTRET;
       49     5624    1   DCL KNT$SEND_CR ENTRY(1) ALTRET;
       50     5625    1   DCL KNT$SEND_DR ENTRY(1) ALTRET;
       51     5626    1   DCL KNT$SEND_DT ENTRY(1) ALTRET;
       52     5627    1   DCL KNT$SEND_ED ENTRY(1) ALTRET;
       53     5628    1   DCL GHS$SET_TMR ENTRY(1);
       54     5629    1   DCL GHS$CANCEL_TMR ENTRY(1);
       55     5630    1   DCL KNT$TR_SEND ENTRY(1);
       56     5631    1   DCL SCREECH ENTRY(1);
       57     5632
       58     5633                                                /* External Data                      */
       59     5634    1   DCL KNT_DEFAULT_CHKSUM UBIN SYMREF;
       60     5635    1   DCL KNT_DEFAULT_TPDUSZ UBIN SYMREF;
       61     5636    1   DCL KNT_WINDOW_NORMAL UBIN SYMREF;
       62     5637    1   DCL KN_TCTX$$ PTR SYMREF;
       63     5638    1   DCL KN_DCT$$ PTR SYMREF;
       64     5639    1   DCL KNT_ERROR_SCREECH UBIN SYMREF;
       65     5640    1   DCL KNT_SCODE UBIN(32) SYMREF;
       66     5641
       67     5642                                                /* Internal Data                      */
       68     5643        %GATE (FPTN=KNT_LOCKOUT, STCLASS="STATIC SYMDEF");
       69     5662
       70     5663                                                /* Based Structures                   */
       71     5664        %K$TCTX (NAME=KN$TCTX, STCLASS="BASED(CTX$)");
       72     6571    1   DCL KN$TCTX$(0:0) PTR BASED(KN_TCTX$$);
       73     6572    1   DCL KN$LDCT$(0:0) PTR BASED(KN_DCT$$);
       74     6573        %KN$LDCT (STCLASS="BASED(KN$NETPARM.LDCT$)");
PL6.E3A0      #001=KNT$SEND File=KNT$SEND.:E05TSI                                WED 07/30/97 01:11 Page:3
       75     6818        %FPT_CONNECT (STCLASS="BASED(FPT$)");
       76     6887        %K$TPDU_DT_0 (NAME=B$TPDU_DT_0,STCLASS=BASED,ALGN=CALIGNED);
       77     6932
       78     6933        %EJECT;
PL6.E3A0      #001=KNT$SEND File=KNT$SEND.:E05TSI                                WED 07/30/97 01:11 Page:4
       79     6934
       80     6935        /*F* NAME: KNT$SEND Outbound Messages
       81     6936
       82     6937        KNT$SEND is the interface for the higher layers to the
       83     6938        transport layer. It is called from Fep CP-6 Session (KNS$SEND)
       84     6939        or from KNT$SEND_4HOST with the following parameters:
       85     6940
       86     6941        .fif
       87     6942        }    KN$NETPARM.FUNCTION
       88     6943        }                - Contains the function to be performed:
       89     6944        }                  When called from local session for a CP-6 connection:
       90     6945        }                                     KN_FCN_INIT
       91     6946        }                                     KN_FCN_DATA
       92     6947        }
       93     6948        }                  When called for host transport on a CP-6 connection:
       94     6949        }                                     KN_FCN_DATA
       95     6950        }
       96     6951        }                  When called for host transport on a OSI connection:
       97     6952        }                                     K_NDATA
       98     6953        }                                     K_TEXPD_DATA_REQ
       99     6954        }
      100     6955        }    KN$NETPARM.TCTX_ID
      101     6956        }                - Contains the index for the transport context block.
      102     6957        }
      103     6958        }    KN$NETPARM.LDCT$
      104     6959        }                - Contains the address of the session connection LDCT
      105     6960        }                  if this is call from local session.
      106     6961        }
      107     6962        }    KN$NETPARM.FPT$
      108     6963        }                - Contains the address of FPT_CONNECT
      109     6964        }                  only used when FUNCTION is KN_FCN_INIT
      110     6965        }
      111     6966        }                  FPT_CONNECT.RLCID.NODE contains the node#
      112     6967        }                  of the other endpoint to be connected.
      113     6968        .fin
      114     6969
      115     6970        The action taken is dependent on the FUNCTION code.
PL6.E3A0      #001=KNT$SEND File=KNT$SEND.:E05TSI                                WED 07/30/97 01:11 Page:5
      116     6971        */
      117     6972
      118     6973        %EJECT;
PL6.E3A0      #001=KNT$SEND File=KNT$SEND.:E05TSI                                WED 07/30/97 01:11 Page:6
      119     6974
      120     6975    1      ENTRY_SWITCH = %PRIMARY;
      121     6976    1      GOTO COMMON;
      122     6977
      123     6978    1   KNT$SEND_HOST_DATA: ENTRY(KN$NETPARM) ALTRET;
      124     6979    1      ENTRY_SWITCH = %SEND_4HOST;
      125     6980
      126     6981    1   COMMON: ;
      127     6982    1      FPT$ = KN$NETPARM.FPT$;
      128     6983    1      QQQ$ = KN$NETPARM.LDCT$;
      129     6984
      130     6985    1      TCTX_ID = KN$NETPARM.TCTX_ID;
      131     6986    1      CTX$ = KN$TCTX$(TCTX_ID);
      132     6987    1      KN$NETPARM.TCTX$ = CTX$;
      133     6988
      134     6989           %LOCK (G=KNT_LOCKOUT);
      135     6996
      136     6997    2      DO CASE ( KN$NETPARM.FUNCTION );
      137     6998
      138     6999        /* Currently, OSI connections are not initiated from any handlers
      139     7000           or Fprgs.  So when the function is KN_FCN_INIT, the connection
      140     7001           is always initialized as a CP-6 Class 4 transport connection.
      141     7002
      142     7003           A TCTX block is allocated and set to state WFCC.  The TPCU_CR
      143     7004           is composed and sent to the remote endpoint via a call to
      144     7005           KNT$SEND_CR.
      145     7006        */
      146     7007    2       CASE( %KN_FCN_INIT);
      147     7008    2         CALL KNA$GETTCTX(CTX$)
      148     7009    3         WHENALTRETURN DO;
      149     7010    3              KN$NETPARM.ERRCODE = %KN_ERR_NOTCTX;
      150     7011
      151     7012    3   UNLOCK_N_ALTRET: ;
      152     7013    3              KN$NETPARM.LDCT$ = QQQ$;
      153     7014                   %UNLOCK (G=KNT_LOCKOUT);
      154     7021    3              ALTRETURN;
      155     7022    3              END;
PL6.E3A0      #001=KNT$SEND File=KNT$SEND.:E05TSI                                WED 07/30/97 01:11 Page:7
      156     7023
      157     7024    2         KN$TCTX.NODE = FPT_CONNECT.RLCID.NODE;
      158     7025    2         KN$NETPARM.NODE = KN$TCTX.NODE;
      159     7026
      160     7027    2         TCTX_ID = KN$TCTX.SRC_REF;
      161     7028    2         KN$NETPARM.TCTX_ID = TCTX_ID;
      162     7029    2         KN$NETPARM.TCTX$ = CTX$;
      163     7030
      164     7031    2         IF KN$LDCT.CONN_TYPE ~= %KN_CNTYPE_LINK
      165     7032    3         THEN DO;
      166     7033    3              KN$LDCT.TRANSPORT_ID = KN$TCTX.SRC_REF;
      167     7034    3              END;
      168     7035
      169     7036    2         KN$TCTX.PRIMARY = '1'B;
      170     7037    2         KN$TCTX.OUTBOUND = '1'B;
      171     7038    2         KN$TCTX.SEND_RETRY_COUNT = 1;
      172     7039    2         KN$TCTX.QOS = FPT_CONNECT.SERVICE;
      173     7040    2         KN$TCTX.CLASS = FPT_CONNECT.CLASS;
      174     7041    2         KN$TCTX.OPTION = FPT_CONNECT.TR_FLAGS;
      175     7042    2         KN$TCTX.OPTION.OSI = '0'B;
      176     7043    2         KN$TCTX.OPTION.EXPEDITED = '0'B;
      177     7044
      178     7045    2         IF KN$TCTX.OPTION.EXTENDED = '0'B
      179     7046    3         THEN DO;           /*gettctx set up for extended format - the default*/
      180     7047    3              KN$TCTX.MAXSEQ = 127;
      181     7048    3              KN$TCTX.RCV_WINDOW_SZ = KNT_WINDOW_NORMAL;
      182     7049    3              KN$TCTX.RECV_UWE = KN$TCTX.RCV_WINDOW_SZ;
      183     7050    3              END;
      184     7051
      185     7052    2         IF KNT_DEFAULT_CHKSUM=0 THEN KN$TCTX.OPTION.CHKSUM='0'B;
      186     7053
      187     7054    2         IF KNT_DEFAULT_TPDUSZ >= %K_TPDUSIZE_128
      188     7055    2           AND KNT_DEFAULT_TPDUSZ <= %K_TPDUSIZE_8192
      189     7056    2         THEN KN$TCTX.TPDUSZ_PARM = KNT_DEFAULT_TPDUSZ;
      190     7057    2         ELSE KN$TCTX.TPDUSZ_PARM = %K_TPDUSIZE_8192;
      191     7058
      192     7059    2         IF KN$TCTX.CLASS = 4
PL6.E3A0      #001=KNT$SEND File=KNT$SEND.:E05TSI                                WED 07/30/97 01:11 Page:8
      193     7060    2         THEN CALL GHS$SET_TMR (KN$TCTX.TMR_RETRAN);
      194     7061
      195     7062    2         KN$TCTX.STATE = %K_TSTATE_WFCC;
      196     7063
      197     7064    2         CALL KNT$SEND_CR(KN$NETPARM)
      198     7065    3         WHENALTRETURN DO;
      199     7066    3              CALL KNA$RELTCTX(CTX$);
      200     7067    3              GOTO UNLOCK_N_ALTRET;
      201     7068    3              END;
      202     7069
      203     7070    2   UNLOCK_N_RETURN: ;
      204     7071    2         KN$NETPARM.LDCT$ = QQQ$;
      205     7072              %UNLOCK (G=KNT_LOCKOUT);
      206     7079    2         RETURN;
      207     7080
      208     7081        %EJECT;
PL6.E3A0      #001=KNT$SEND File=KNT$SEND.:E05TSI                                WED 07/30/97 01:11 Page:9
      209     7082        /* When the function is KN_FCN_DATA or K_NDATA, the method of sending
      210     7083           the data to the remote end point is dependent on the transport class
      211     7084           and the type of network connection to be used, connection-oriented(CONS)
      212     7085           or connection-less (CLNS).
      213     7086        */
      214     7087
      215     7088    2       CASE (%KN_FCN_DATA, %K_NDATA);
      216     7089
      217     7090    2         IF KN$NETPARM.TCTX_ID = 0
      218     7091    3         THEN DO;
      219     7092    3              CALL SCREECH(KNT_SCODE);
      220     7093    3              END;
      221     7094
      222     7095    2         KN$NETPARM.THDR$ = ADDR(K$TPDU_DT_EXT); /* for knt$save to use*/
      223     7096    2         K$TPDU_DT_EXT = '0'B;
      224     7097
      225     7098        /* When the Class 4 transport state is OPEN and session requests that
      226     7099           we send data or expedited data, we call KNT$SAVE to get a buffer in
      227     7100           the transport pool, save the SPDU there, and link the buffer via
      228     7101           KN$TCTX.SEND_(E)HEAD$.
      229     7102
      230     7103           The message is sent on to network by calling KNT$SEND_DT or KNT$SEND_ED.
      231     7104           These routines call the appropriate network or link layer routine
      232     7105           depending on the type of network connection that is being used.
      233     7106        */
      234     7107    2         IF KN$TCTX.CLASS = 4
      235     7108    3         THEN DO;
      236     7109    3              IF KN$TCTX.STATE = %K_TSTATE_OPEN
      237     7110    4              THEN DO;
      238     7111    4                   CALL KNT$SAVE_DT(KN$NETPARM)
      239     7112    5                   WHENRETURN DO;
      240     7113    5                        CALL KNT$SEND_DT(KN$NETPARM);
      241     7114    5                        GOTO UNLOCK_N_RETURN;
      242     7115    5                        END;
      243     7116
      244     7117    5                   WHENALTRETURN DO;
      245     7118    5   CANT_SAVE_DATA:
PL6.E3A0      #001=KNT$SEND File=KNT$SEND.:E05TSI                                WED 07/30/97 01:11 Page:10
      246     7119    5                        IF KN$NETPARM.ERRCODE = %KN_ERR_NOQ2
      247     7120    5                        THEN GOTO UNLOCK_N_ALTRET; /*no buf available-knt_wait_head$*/
      248     7121
      249     7122    5                        KN$TCTX.FLOW_CONTROLLED = '1'B;
      250     7123
      251     7124    5                        IF KN$TCTX.PRIMARY
      252     7125    5                        THEN KN$NETPARM.ERRCODE=0; /*reset for kns$send*/
      253     7126
      254     7127    5                        GOTO UNLOCK_N_ALTRET; /*altret to send_4host or kns$send*/
      255     7128    5                        END;
      256     7129    4                   END/*do if class 4 open*/;
      257     7130
      258     7131        /* When the Class 4 transport state is AKWAIT, and this is an
      259     7132           intermediate connection, the data is buffered.  For primary
      260     7133           connections in the AKWAIT state, the LDCT is queued on the
      261     7134           transport context block (KN$TCTX.LNK$).
      262     7135        */
      263     7136    3              IF (KN$TCTX.STATE = %K_TSTATE_AKWAIT)
      264     7137    4              THEN DO;
      265     7138    4                   IF KN$TCTX.PRIMARY
      266     7139    4                   THEN GOTO LOCAL_NOT_OPEN;
      267     7140
      268     7141    4                   KN$TCTX.SERR.NOT_OPEN = KN$TCTX.SERR.NOT_OPEN +1;
      269     7142    4                   CALL KNT$SAVE_DT(KN$NETPARM) ALTRET(CANT_SAVE_DATA);
      270     7143    4   SIGNAL_FLOW_STOP: ;
      271     7144    4                   KN$TCTX.FLOW_CONTROLLED = '1'B;
      272     7145    4                   GOTO UNLOCK_N_ALTRET;   /*altret to send_4host*/
      273     7146    4                   END/*do if class 4 akwait*/;
      274     7147    3              END/*do if class 4*/;
      275     7148        %EJECT;
PL6.E3A0      #001=KNT$SEND File=KNT$SEND.:E05TSI                                WED 07/30/97 01:11 Page:11
      276     7149        /* When the state is WFCC, and this is a primary connection,
      277     7150           the LDCT is queued on the transport context block.  If attempting
      278     7151           to send data on an intermediate transport connection in the WFCC
      279     7152           state, it is a screech condition.
      280     7153        */
      281     7154
      282     7155    2   CHECK_TSTATE:
      283     7156    2         IF KN$TCTX.STATE ~= %K_TSTATE_OPEN
      284     7157    3         THEN DO;
      285     7158    3              IF KN$TCTX.PRIMARY
      286     7159    4              THEN DO;
      287     7160    4                   IF (KN$TCTX.STATE=%K_TSTATE_WFCC OR KN$TCTX.STATE=%K_TSTATE_WFCC_R)
      288     7161    5                   THEN DO;
      289     7162    5   LOCAL_NOT_OPEN:
      290     7163    5                        KN$TCTX.WAIT_4OPEN = '1'B;
      291     7164    5                        KN$TCTX.SERR.NOT_OPEN = KN$TCTX.SERR.NOT_OPEN +1;
      292     7165
      293     7166    5                        IF NOT(KN$LDCT.FLAGS.QUEUED)
      294     7167    6                        THEN DO;
      295     7168    6                             KN$LDCT.FLAGS.QUEUED = '1'B;
      296     7169    6                             KN$LDCT.LNK$ = KN$TCTX.LNK$;
      297     7170    6                             KN$TCTX.LNK$ = KN$NETPARM.LDCT$;
      298     7171    6                             END;
      299     7172    5                        KN$NETPARM.ERRCODE = %KN_ERR_NOQ2;
      300     7173    5                        GOTO UNLOCK_N_ALTRET;
      301     7174    5                        END/*do if wfcc*/;
      302     7175    4                   END/*do if primary connection*/;
      303     7176
      304     7177    3   REPORT_BAD_TSTATE:
      305     7178    3              IF KN$TCTX.STATE = %K_TSTATE_CLOSING
      306     7179    3                OR KN$TCTX.STATE = %K_TSTATE_REFWAIT
      307     7180    3              THEN GOTO UNLOCK_N_RETURN;
      308     7181
      309     7182    3              ELSE GOTO SCREECH_CHECK;
      310     7183    3              END/*do if state not open*/;
      311     7184
      312     7185
PL6.E3A0      #001=KNT$SEND File=KNT$SEND.:E05TSI                                WED 07/30/97 01:11 Page:12
      313     7186        %EJECT;
PL6.E3A0      #001=KNT$SEND File=KNT$SEND.:E05TSI                                WED 07/30/97 01:11 Page:13
      314     7187        /* For Class 2 and Class 0 connections in the OPEN state, a call
      315     7188           is made to the appropriate KNT$SAVE routine to determine if the
      316     7189           SPDU must be split into smaller TPDUs, or, in the case of Class 2
      317     7190           with flow control, if the data must be buffered because there is
      318     7191           insufficient credits to send the data.
      319     7192
      320     7193           The alternate return will be taken from the KNT$SAVE routines if
      321     7194           we are out of transport buffer space or if we are out of credits
      322     7195           for sending the data.
      323     7196
      324     7197           On a normal return, the contents of KN$TCTX.SEND_HEAD$ will contain
      325     7198           the address of the buffered data if the KNT$SAVE routine determined
      326     7199           that buffering was necessary, and we will attempt to send this buffered
      327     7200           data by calling KNT$SEND_DT.  When .SEND_HEAD$ is nil, the KNT$SAVE
      328     7201           routine has built the TPDU_DT header for us in our auto.  The data
      329     7202           is transmitted to the remote end point by a call to KNH$SEND if
      330     7203           this is a connection-oriented network connection; by a call to KNN$SEND
      331     7204           if this is a connection-less network service.
      332     7205
      333     7206        */
      334     7207    2         IF KN$TCTX.CLASS=0
      335     7208    3         THEN DO;
      336     7209    3              CALL KNT$SAVE_CLASS0(KN$NETPARM) ALTRET(CANT_SAVE_DATA);
      337     7210    3              GOTO SEND_MSG_CHECK;
      338     7211
      339     7212    3              END/*do if class 0*/;
      340     7213
      341     7214        %EJECT;
PL6.E3A0      #001=KNT$SEND File=KNT$SEND.:E05TSI                                WED 07/30/97 01:11 Page:14
      342     7215
      343     7216    2         IF KN$TCTX.CLASS=2
      344     7217    3         THEN DO;
      345     7218    3              CALL KNT$SAVE_CLASS2(KN$NETPARM) ALTRET(CANT_SAVE_DATA);
      346     7219
      347     7220    3   SEND_MSG_CHECK:
      348     7221    3              IF KN$TCTX.SEND_HEAD$ ~= ADDR(NIL)
      349     7222    4              THEN DO;
      350     7223    4                   CALL KNT$SEND_DT(KN$NETPARM);
      351     7224    4                   GOTO UNLOCK_N_RETURN;
      352     7225    4                   END;
      353     7226
      354     7227    4              ELSE DO;
      355     7228    4                   KN$NETPARM.MSG$ = KN$NETPARM.SHDR_C$;
      356     7229    4                   KN$NETPARM.MSGSZ = KN$NETPARM.SHDRSZ;
      357     7230    4                   KN$NETPARM.UHDRSZ = 0;
      358     7231    4                   KN$NETPARM.SHDRSZ = 0;
      359     7232
      360     7233    4                   IF KN$TCTX.OPTION.OSI
      361     7234    5                   THEN DO;
      362     7235    5                        KN$NETPARM.FUNCTION = %K_NDATA;
      363     7236    5                        KN$NETPARM.NHDRSZ = 0;
      364     7237    5                        END;
      365     7238    5                   ELSE DO;
      366     7239    5                        KN$NETPARM.NODE = KN$TCTX.NODE;
      367     7240    5                        END;
      368     7241
      369     7242    4                   IF KN$TCTX.OPTION.CONS
      370     7243    5                   THEN DO;
      371     7244    5                        KN$NETPARM.LDCT$ = KN$LDCT$(KN$TCTX.LDCTX#);
      372     7245    5                        CALL KNH$SEND(KN$NETPARM)
      373     7246    6                        WHENRETURN DO;
      374     7247    6   MSG_SENT:
      375     7248    6                             KN$TCTX.SEND_LWE = KN$TCTX.SEND_LWE +1;
      376     7249
      377     7250    6   TRACE_CHECK:
      378     7251    6                             IF KN$TCTX.OPTION.TRACE
PL6.E3A0      #001=KNT$SEND File=KNT$SEND.:E05TSI                                WED 07/30/97 01:11 Page:15
      379     7252    6                             THEN CALL KNT$TR_SEND(KN$NETPARM);
      380     7253
      381     7254    6                             GOTO UNLOCK_N_RETURN;
      382     7255    6                             END;
      383     7256
      384     7257    6                        WHENALTRETURN DO;
      385     7258    6   ALTRET_4_Q:
      386     7259    6                             IF KN$NETPARM.ERRCODE = %KN_ERR_NOQ
      387     7260    6                               OR KN$NETPARM.ERRCODE = %KN_ERR_NOQ2
      388     7261    7                             THEN DO;
      389     7262    7                                  KN$TCTX.SERR.NOQ = KN$TCTX.SERR.NOQ +1;
      390     7263        /* leave                       KN$NETPARRM.ERRCODE = KN_ERR_NOQ; */
      391     7264    7                                  GOTO UNLOCK_N_ALTRET;
      392     7265    7                                  END;
      393     7266
      394     7267    6                             ELSE GOTO FORCE_SCREECH;
      395     7268    6                             END;
      396     7269    5                        END/*do for CONS*/;
      397     7270
      398     7271    5                   ELSE DO/*for CLNS*/;
      399     7272    5                        KN$NETPARM.SRC_ADDR$ = ADDR(KN$TCTX.SRC_NSAP);
      400     7273    5                        KN$NETPARM.DST_ADDR$ = ADDR(KN$TCTX.DST_NSAP);
      401     7274
      402     7275    5                        CALL KNN$SEND(KN$NETPARM) ALTRET(ALTRET_4_Q);
      403     7276
      404     7277    5                        GOTO MSG_SENT;
      405     7278    5                        END/*do for CLNS*/;
      406     7279
      407     7280    3                   END;/*do if not buffered*/;
      408     7281
      409     7282    3              END/*class 2 open*/;
      410     7283
      411     7284        %EJECT;
PL6.E3A0      #001=KNT$SEND File=KNT$SEND.:E05TSI                                WED 07/30/97 01:11 Page:16
      412     7285        /* If we get here, we came from SEND_4HOST.  Note that the checks for
      413     7286           expedited data allowed on this transport connection and for
      414     7287           SPDU size > 16 was done on the host, so we wont duplicate it here.
      415     7288        */
      416     7289    2       CASE (%K_TEXPD_DATA_REQ);
      417     7290
      418     7291    2         IF KN$TCTX.STATE = %K_TSTATE_OPEN
      419     7292    3         THEN DO;
      420     7293    3              CALL KNT$SAVE_ED(KN$NETPARM) ALTRET(CANT_SAVE_DATA);
      421     7294    3              CALL KNT$SEND_ED(KN$NETPARM);
      422     7295    3              GOTO UNLOCK_N_RETURN;
      423     7296    3              END;
      424     7297
      425     7298    2         IF KN$TCTX.STATE = %K_TSTATE_AKWAIT
      426     7299    3         THEN DO;
      427     7300    3              CALL KNT$SAVE_ED(KN$NETPARM) ALTRET(CANT_SAVE_DATA);
      428     7301    3              GOTO SIGNAL_FLOW_STOP;
      429     7302    3              END;
      430     7303        %EJECT;
PL6.E3A0      #001=KNT$SEND File=KNT$SEND.:E05TSI                                WED 07/30/97 01:11 Page:17
      431     7304
      432     7305    2       CASE(ELSE);
      433     7306    2   SCREECH_CHECK:
      434     7307    2         IF KNT_ERROR_SCREECH ~= 0
      435     7308    3         THEN DO;
      436     7309    3   FORCE_SCREECH:
      437     7310    3              CALL SCREECH(KNT_SCODE);
      438     7311    3              END;
      439     7312
      440     7313    2         KN$NETPARM.ERRCODE = %KN_ERR_INVFCN;
      441     7314
      442     7315    2         GOTO UNLOCK_N_ALTRET;
      443     7316
      444     7317    2         END/*do case(function)*/;
      445     7318
      446     7319
      447     7320
      448     7321
      449     7322    1   END KNT$SEND;
      450     7323        %EOD;

PL6.E3A0      #001=KNT$SEND File=KNT$SEND.:E05TSI                                WED 07/30/97 01:11 Page:18
--  Include file information  --

   KNH_MACRO_C.:E05TOU  is referenced.
   KN_DATA_M.:E05TOU  is referenced.
   K_TRANSPORT_M.:E05TOU  is referenced.
   K_TRANSPORT_E.:E05TOU  is referenced.
   K_INTERFACE_M.:E05TOU  is referenced.
   K_ADDRESS_M.:E05TOU  is referenced.
   GH_SCHD_M.:E05TOU  is referenced.
   GH_GATE_M.:E05TOU  cannot be made into a system file and is referenced.
   G_LCP6_E.:E05TOU  was found in the system file and is never referenced.
   GT_LCP6_M.:E05TOU  was found in the system file and is never referenced.
   KI_CP6.:E05TOU  was found in the system file and is referenced.
   GF_LCP6_M.:E05TOU  was found in the system file and is never referenced.
   GM_LCP6_M.:E05TOU  was found in the system file and is never referenced.
   GU_LCP6_M.:E05TOU  was found in the system file and is never referenced.
   GJ_LCP6_M.:E05TOU  was found in the system file and is never referenced.
   GH_LCP6_M.:E05TOU  was found in the system file and is never referenced.
      No diagnostics issued in procedure KNT$SEND.

   Procedure KNT$SEND requires 674 words for executable code.
   Procedure KNT$SEND requires 28 words of local(AUTO) storage.

PL6.E3A0      #001=KNT$SEND File=KNT$SEND.:E05TSI                                WED 07/30/97 01:11 Page:19

 Object Unit name= KNT$SEND                                   File name= KNT$SEND.:E05TOU
 UTS= JUL 30 '97 01:11:13.04 WED                              Compiler= PL-6/E31         Sev=      00
 SharedLib= :SHARED_LCP6_SYSTEM                               Alt SharedLib=


    ****  Control sections  ****

 Sect   Type Bound  Init  Size HexSiz  Section name
    0   Data  even  none     3      3  KNT$SEND
    1   Proc  even  none   674    2A2  KNT$SEND
    2  RoData even  none     4      4  KNT$SEND

    ****  Entry defs  ****

                              Check   Calling
                             calling  sequence
  Sect HexLoc Primary Altret sequence   type   Parms  Name
     1      0   yes    yes     yes      Std        1  KNT$SEND
     1      9          yes     yes      Std        1  KNT$SEND_HOST_DATA

  ****  Data defs  ****

 Sect HexLoc  Name                           Sect HexLoc  Name
    0      0  KNT_LOCKOUT
PL6.E3A0      #001=KNT$SEND File=KNT$SEND.:E05TSI                                WED 07/30/97 01:11 Page:20

  ****  Entry refs  ****

         Check        Calling
        calling       sequence
Altret sequence SRef   type   Args  Name
 yes     yes           Std       1 GHH$LOCK
 yes     yes           Std       1 KNA$GETTCTX
 yes     yes           Std       1 GHH$UNLOCK
 yes     yes           Std       1 KNA$RELTCTX
         yes           Std       1 SCREECH
 yes     yes           Std       1 KNH$SEND
 yes     yes           Std       1 KNT$SAVE_ED
 yes     yes           Std       1 KNT$SEND_DT
 yes     yes           Std       1 KNT$SEND_ED
         yes           Std       1 GHS$SET_TMR
 yes     yes           Std       1 KNT$SEND_CR
 yes     yes           Std       1 KNT$SAVE_DT
 yes     yes           Std       1 KNT$SAVE_CLASS0
 yes     yes           Std       1 KNT$SAVE_CLASS2
         yes           Std       1 KNT$TR_SEND
 yes     yes           Std       1 KNN$SEND
                       nStd      0 X6A_AUTO_1
                       nStd      0 X6A_AALT
                       nStd      0 X6A_ARET

  ****  Data refs  ****

  Flags:  r = read only, s = secondary
Flgs Name                             Flgs Name                             Flgs Name
     KNT_DEFAULT_CHKSUM                    KNT_DEFAULT_TPDUSZ                    KNT_WINDOW_NORMAL
     KN_TCTX$$                             KN_DCT$$                              KNT_ERROR_SCREECH
     KNT_SCODE                        r    G$ROS$
PL6.E3A0      #001=KNT$SEND File=KNT$SEND.:E05TSI                                WED 07/30/97 01:11 Page:21


        1        1        /*M* KNT$SEND - Send session messages to network.   */
        2        2        /*T***********************************************************/
        3        3        /*T*                                                         */
        4        4        /*T* Copyright (c) Bull HN Information Systems Inc., 1997    */
        5        5        /*T*                                                         */
        6        6        /*T***********************************************************/
        7        7        /*X* PLM=3,IND=5,ENU=0,ECU=0 */
        8        8
        9        9        KNT$SEND: PROC(KN$NETPARM) ALTRET;

      9   1 000000  D380 0000 0000  xent KNT$SEND        LNJ,B5   X6A_AUTO_1
          1 000003       001C 0001                       DC       28,1

       10       10
       11       11        %INCLUDE GH_GATE_M;
       12       52        %INCLUDE GH_SCHD_M;
       13      196        %INCLUDE K_ADDRESS_M;
       14      699        %INCLUDE K_INTERFACE_M;
       15     1108        %INCLUDE K_TRANSPORT_E;
       16     1433        %INCLUDE K_TRANSPORT_M;
       17     3217 S      %INCLUDE KI_CP6;
       18     3218        %INCLUDE KN_DATA_M;
       19     5004        %INCLUDE KNH_MACRO_C;
       20     5287
       21     5288                                                /* Input parameters                   */
       22     5289        %KN$NETPARM;
       23     5442                                                /* Auto Storage                       */
       24     5443    1   DCL ITEMP1 SBIN;
       25     5444    1   DCL EVENT SBIN;
       26     5445    1   DCL CTX$ PTR;
       27     5446    1   DCL FPT$ PTR;
       28     5447    1   DCL QQQ$ PTR;
       29     5448    1   DCL TCTX_ID SBIN;
       30     5449
       31     5450        %K$TPDU_DT (STCLASS=AUTO);
       32     5500        %K$TPDU_DT_0 (STCLASS=AUTO);
PL6.E3A0      #001=KNT$SEND File=KNT$SEND.:E05TSI                                WED 07/30/97 01:11 Page:22
       33     5545        %K$TPDU_DT_EXT (STCLASS=AUTO);
       34     5609
       35     5610    1   DCL ENTRY_SWITCH UBIN;
       36     5611        %EQU PRIMARY=0;
       37     5612        %EQU SEND_4HOST=1;
       38     5613
       39     5614                                                /* External Procedures                */
       40     5615    1   DCL KNA$GETTCTX ENTRY(1) ALTRET;
       41     5616    1   DCL KNA$RELTCTX ENTRY(1) ALTRET;
       42     5617    1   DCL KNH$SEND ENTRY(1) ALTRET;
       43     5618    1   DCL KNN$SEND ENTRY(1) ALTRET;
       44     5619    1   DCL KNT$SAVE_DT ENTRY(1) ALTRET;
       45     5620    1   DCL KNT$SAVE_ED ENTRY(1) ALTRET;
       46     5621    1   DCL KNT$SAVE_CLASS0 ENTRY(1) ALTRET;
       47     5622    1   DCL KNT$SAVE_CLASS2 ENTRY(1) ALTRET;
       48     5623    1   DCL KNT$SEND_CC ENTRY(1) ALTRET;
       49     5624    1   DCL KNT$SEND_CR ENTRY(1) ALTRET;
       50     5625    1   DCL KNT$SEND_DR ENTRY(1) ALTRET;
       51     5626    1   DCL KNT$SEND_DT ENTRY(1) ALTRET;
       52     5627    1   DCL KNT$SEND_ED ENTRY(1) ALTRET;
       53     5628    1   DCL GHS$SET_TMR ENTRY(1);
       54     5629    1   DCL GHS$CANCEL_TMR ENTRY(1);
       55     5630    1   DCL KNT$TR_SEND ENTRY(1);
       56     5631    1   DCL SCREECH ENTRY(1);
       57     5632
       58     5633                                                /* External Data                      */
       59     5634    1   DCL KNT_DEFAULT_CHKSUM UBIN SYMREF;
       60     5635    1   DCL KNT_DEFAULT_TPDUSZ UBIN SYMREF;
       61     5636    1   DCL KNT_WINDOW_NORMAL UBIN SYMREF;
       62     5637    1   DCL KN_TCTX$$ PTR SYMREF;
       63     5638    1   DCL KN_DCT$$ PTR SYMREF;
       64     5639    1   DCL KNT_ERROR_SCREECH UBIN SYMREF;
       65     5640    1   DCL KNT_SCODE UBIN(32) SYMREF;
       66     5641
       67     5642                                                /* Internal Data                      */
       68     5643        %GATE (FPTN=KNT_LOCKOUT, STCLASS="STATIC SYMDEF");
       69     5662
PL6.E3A0      #001=KNT$SEND File=KNT$SEND.:E05TSI                                WED 07/30/97 01:11 Page:23
       70     5663                                                /* Based Structures                   */
       71     5664        %K$TCTX (NAME=KN$TCTX, STCLASS="BASED(CTX$)");
       72     6571    1   DCL KN$TCTX$(0:0) PTR BASED(KN_TCTX$$);
       73     6572    1   DCL KN$LDCT$(0:0) PTR BASED(KN_DCT$$);
       74     6573        %KN$LDCT (STCLASS="BASED(KN$NETPARM.LDCT$)");
       75     6818        %FPT_CONNECT (STCLASS="BASED(FPT$)");
       76     6887        %K$TPDU_DT_0 (NAME=B$TPDU_DT_0,STCLASS=BASED,ALGN=CALIGNED);
       77     6932
       78     6933        %EJECT;
PL6.E3A0      #001=KNT$SEND File=KNT$SEND.:E05TSI                                WED 07/30/97 01:11 Page:24
       79     6934
       80     6935        /*F* NAME: KNT$SEND Outbound Messages
       81     6936
       82     6937        KNT$SEND is the interface for the higher layers to the
       83     6938        transport layer. It is called from Fep CP-6 Session (KNS$SEND)
       84     6939        or from KNT$SEND_4HOST with the following parameters:
       85     6940
       86     6941        .fif
       87     6942        }    KN$NETPARM.FUNCTION
       88     6943        }                - Contains the function to be performed:
       89     6944        }                  When called from local session for a CP-6 connection:
       90     6945        }                                     KN_FCN_INIT
       91     6946        }                                     KN_FCN_DATA
       92     6947        }
       93     6948        }                  When called for host transport on a CP-6 connection:
       94     6949        }                                     KN_FCN_DATA
       95     6950        }
       96     6951        }                  When called for host transport on a OSI connection:
       97     6952        }                                     K_NDATA
       98     6953        }                                     K_TEXPD_DATA_REQ
       99     6954        }
      100     6955        }    KN$NETPARM.TCTX_ID
      101     6956        }                - Contains the index for the transport context block.
      102     6957        }
      103     6958        }    KN$NETPARM.LDCT$
      104     6959        }                - Contains the address of the session connection LDCT
      105     6960        }                  if this is call from local session.
      106     6961        }
      107     6962        }    KN$NETPARM.FPT$
      108     6963        }                - Contains the address of FPT_CONNECT
      109     6964        }                  only used when FUNCTION is KN_FCN_INIT
      110     6965        }
      111     6966        }                  FPT_CONNECT.RLCID.NODE contains the node#
      112     6967        }                  of the other endpoint to be connected.
      113     6968        .fin
      114     6969
      115     6970        The action taken is dependent on the FUNCTION code.
PL6.E3A0      #001=KNT$SEND File=KNT$SEND.:E05TSI                                WED 07/30/97 01:11 Page:25
      116     6971        */
      117     6972
      118     6973        %EJECT;
PL6.E3A0      #001=KNT$SEND File=KNT$SEND.:E05TSI                                WED 07/30/97 01:11 Page:26
      119     6974
      120     6975    1      ENTRY_SWITCH = %PRIMARY;

   6975   1 000005  8747 0018                            CL       ENTRY_SWITCH,AUTO

      121     6976    1      GOTO COMMON;

   6976   1 000007  0F81 0009                            B        s:6979,PREL

      122     6977
      123     6978    1   KNT$SEND_HOST_DATA: ENTRY(KN$NETPARM) ALTRET;

   6978   1 000009  D380 0000 0000  xent KNT$SEND_HOST_D*LNJ,B5   X6A_AUTO_1
          1 00000C       001C 0001                       DC       28,1

      124     6979    1      ENTRY_SWITCH = %SEND_4HOST;

   6979   1 00000E  6C01                                 LDV,R6   1
          1 00000F  EF47 0018                            STR,R6   ENTRY_SWITCH,AUTO

   6979   1                              COMMON          null
      125     6980
      126     6981    1   COMMON: ;
      127     6982    1      FPT$ = KN$NETPARM.FPT$;

   6982   1 000011  ECC7 0004            COMMON          LDB,B6   @KN$NETPARM,AUTO
          1 000013  DCC6 0019                            LDB,B5   25,B6
          1 000015  DFC7 000A                            STB,B5   FPT$,AUTO

      128     6983    1      QQQ$ = KN$NETPARM.LDCT$;

   6983   1 000017  CC86                                 LDB,B4   ,B6
          1 000018  CFC7 000C                            STB,B4   QQQ$,AUTO

      129     6984
      130     6985    1      TCTX_ID = KN$NETPARM.TCTX_ID;

PL6.E3A0      #001=KNT$SEND File=KNT$SEND.:E05TSI                                WED 07/30/97 01:11 Page:27
   6985   1 00001A  E846 0011                            LDR,R6   17,B6
          1 00001C  EF47 000E                            STR,R6   TCTX_ID,AUTO

      131     6986    1      CTX$ = KN$TCTX$(TCTX_ID);

   6986   1 00001E  BC80 0000 0000  xsym                 LDB,B3   KN_TCTX$$
          1 000021  B856                                 LDR,R3   R6
          1 000022  ACB3                                 LDB,B2   ,B3,R3
          1 000023  AFC7 0008                            STB,B2   CTX$,AUTO

      132     6987    1      KN$NETPARM.TCTX$ = CTX$;

   6987   1 000025  AFC6 001B                            STB,B2   27,B6

      133     6988
      134     6989           %LOCK (G=KNT_LOCKOUT);

   6994   1 000027  BB80 0000 0000  02                   LAB,B3   0
          1 00002A  CBF0 0100                            LAB,B4   256,IMO
          1 00002C  E380 0000 0000  xent                 LNJ,B6   GHH$LOCK
          1 00002F       0001                            DC       s:6997,PREL

      135     6996
      136     6997    2      DO CASE ( KN$NETPARM.FUNCTION );

   6997   1 000030  ECC7 0004                            LDB,B6   @KN$NETPARM,AUTO
          1 000032  B846 0014                            LDR,R3   20,B6
          1 000034  3D22                                 CMV,R3   34
          1 000035  0281 0254                            BGE      s:7305,PREL
          1 000037  A830 0000 003D  01                   LDR,R2   s:6997+13,R3
          1 00003A  83A0 0000 005F  01                   JMP      s:7008,R2
          1 00003D       022B                            DC       s:7305,PREL
          1 00003E       0000                            DC       s:7008,PREL
          1 00003F       022B                            DC       s:7305,PREL
          1 000040       022B                            DC       s:7305,PREL
          1 000041       022B                            DC       s:7305,PREL
          1 000042       00DB                            DC       s:7090,PREL
PL6.E3A0      #001=KNT$SEND File=KNT$SEND.:E05TSI                                WED 07/30/97 01:11 Page:28
          1 000043       022B                            DC       s:7305,PREL
          1 000044       022B                            DC       s:7305,PREL
          1 000045       022B                            DC       s:7305,PREL
          1 000046       022B                            DC       s:7305,PREL
          1 000047       022B                            DC       s:7305,PREL
          1 000048       022B                            DC       s:7305,PREL
          1 000049       022B                            DC       s:7305,PREL
          1 00004A       022B                            DC       s:7305,PREL
          1 00004B       022B                            DC       s:7305,PREL
          1 00004C       022B                            DC       s:7305,PREL
          1 00004D       022B                            DC       s:7305,PREL
          1 00004E       022B                            DC       s:7305,PREL
          1 00004F       022B                            DC       s:7305,PREL
          1 000050       022B                            DC       s:7305,PREL
          1 000051       022B                            DC       s:7305,PREL
          1 000052       022B                            DC       s:7305,PREL
          1 000053       022B                            DC       s:7305,PREL
          1 000054       022B                            DC       s:7305,PREL
          1 000055       0206                            DC       s:7291,PREL
          1 000056       022B                            DC       s:7305,PREL
          1 000057       022B                            DC       s:7305,PREL
          1 000058       022B                            DC       s:7305,PREL
          1 000059       022B                            DC       s:7305,PREL
          1 00005A       022B                            DC       s:7305,PREL
          1 00005B       022B                            DC       s:7305,PREL
          1 00005C       022B                            DC       s:7305,PREL
          1 00005D       022B                            DC       s:7305,PREL
          1 00005E       00DB                            DC       s:7090,PREL

      137     6998
      138     6999        /* Currently, OSI connections are not initiated from any handlers
      139     7000           or Fprgs.  So when the function is KN_FCN_INIT, the connection
      140     7001           is always initialized as a CP-6 Class 4 transport connection.
      141     7002
      142     7003           A TCTX block is allocated and set to state WFCC.  The TPCU_CR
      143     7004           is composed and sent to the remote endpoint via a call to
      144     7005           KNT$SEND_CR.
PL6.E3A0      #001=KNT$SEND File=KNT$SEND.:E05TSI                                WED 07/30/97 01:11 Page:29
      145     7006        */
      146     7007    2       CASE( %KN_FCN_INIT);

      147     7008    2         CALL KNA$GETTCTX(CTX$)

   7008   1 00005F  DBC7 0008                            LAB,B5   CTX$,AUTO
          1 000061  DFC7 001A                            STB,B5   ENTRY_SWITCH+2,AUTO
          1 000063  BBC7 001A                            LAB,B3   ENTRY_SWITCH+2,AUTO
          1 000065  CBF0 0100                            LAB,B4   256,IMO
          1 000067  E380 0000 0000  xent                 LNJ,B6   KNA$GETTCTX
          1 00006A       0003                            DC       s:7010,PREL
          1 00006B  0F81 0017                            B        s:7024,PREL

      148     7009    3         WHENALTRETURN DO;

      149     7010    3              KN$NETPARM.ERRCODE = %KN_ERR_NOTCTX;

   7010   1 00006D  ECC7 0004                            LDB,B6   @KN$NETPARM,AUTO
          1 00006F  6C06                                 LDV,R6   6
          1 000070  EF46 0016                            STR,R6   22,B6

   7010   1                              UNLOCK_N_ALTRET null
      150     7011
      151     7012    3   UNLOCK_N_ALTRET: ;
      152     7013    3              KN$NETPARM.LDCT$ = QQQ$;

   7013   1 000072  ECC7 000C            UNLOCK_N_ALTRET LDB,B6   QQQ$,AUTO
          1 000074  DCC7 0004                            LDB,B5   @KN$NETPARM,AUTO
          1 000076  EF85                                 STB,B6   ,B5

      153     7014                   %UNLOCK (G=KNT_LOCKOUT);

   7019   1 000077  BB80 0000 0000  02                   LAB,B3   0
          1 00007A  CBF0 0100                            LAB,B4   256,IMO
          1 00007C  E380 0000 0000  xent                 LNJ,B6   GHH$UNLOCK
          1 00007F       0001                            DC       s:7021,PREL

PL6.E3A0      #001=KNT$SEND File=KNT$SEND.:E05TSI                                WED 07/30/97 01:11 Page:30
      154     7021    3              ALTRETURN;

   7021   1 000080  C380 0000 0000  xent                 LNJ,B4   X6A_AALT

      155     7022    3              END;
      156     7023
      157     7024    2         KN$TCTX.NODE = FPT_CONNECT.RLCID.NODE;

   7024   1 000083  ECC7 000A                            LDB,B6   FPT$,AUTO
          1 000085  E2C6 000D                            LLH,R6   13,B6
          1 000087  DCC7 0008                            LDB,B5   CTX$,AUTO
          1 000089  EA85                                 SRM,R6,'00FF'X    ,B5
          1 00008A       00FF

      158     7025    2         KN$NETPARM.NODE = KN$TCTX.NODE;

   7025   1 00008B  DCC7 0004                            LDB,B5   @KN$NETPARM,AUTO
          1 00008D  CCC7 0008                            LDB,B4   CTX$,AUTO
          1 00008F  E804                                 LDR,R6   ,B4
          1 000090  E570 00FF                            AND,R6   255,IMO
          1 000092  EF45 0015                            STR,R6   21,B5

      159     7026
      160     7027    2         TCTX_ID = KN$TCTX.SRC_REF;

   7027   1 000094  D844 0002                            LDR,R5   2,B4
          1 000096  DF47 000E                            STR,R5   TCTX_ID,AUTO

      161     7028    2         KN$NETPARM.TCTX_ID = TCTX_ID;

   7028   1 000098  DF45 0011                            STR,R5   17,B5

      162     7029    2         KN$NETPARM.TCTX$ = CTX$;

   7029   1 00009A  CFC5 001B                            STB,B4   27,B5

      163     7030
PL6.E3A0      #001=KNT$SEND File=KNT$SEND.:E05TSI                                WED 07/30/97 01:11 Page:31
      164     7031    2         IF KN$LDCT.CONN_TYPE ~= %KN_CNTYPE_LINK

   7031   1 00009C  BC85                                 LDB,B3   ,B5
          1 00009D  C283                                 LLH,R4   ,B3
          1 00009E  4D06                                 CMV,R4   6
          1 00009F  0901 0005                            BE       s:7036,PREL

      165     7032    3         THEN DO;

      166     7033    3              KN$LDCT.TRANSPORT_ID = KN$TCTX.SRC_REF;

   7033   1 0000A1  B844 0002                            LDR,R3   2,B4
          1 0000A3  BF43 0003                            STR,R3   3,B3

      167     7034    3              END;

      168     7035
      169     7036    2         KN$TCTX.PRIMARY = '1'B;

   7036   1 0000A5  CCC7 0008                            LDB,B4   CTX$,AUTO
          1 0000A7  8944 000D                            LBT,'0001'X       13,B4
          1 0000A9       0001

      170     7037    2         KN$TCTX.OUTBOUND = '1'B;

   7037   1 0000AA  8944 000D                            LBT,'0004'X       13,B4
   7037   1 0000AC       0004

      171     7038    2         KN$TCTX.SEND_RETRY_COUNT = 1;

   7038   1 0000AD  6C01                                 LDV,R6   1
          1 0000AE  E7C4 004D                            STH,R6   77,B4

      172     7039    2         KN$TCTX.QOS = FPT_CONNECT.SERVICE;

   7039   1 0000B0  C846 0010                            LDR,R4   16,B6
          1 0000B2  CAC4 0004                            SRM,R4,'00FF'X    4,B4
PL6.E3A0      #001=KNT$SEND File=KNT$SEND.:E05TSI                                WED 07/30/97 01:11 Page:32
          1 0000B4       00FF

      173     7040    2         KN$TCTX.CLASS = FPT_CONNECT.CLASS;

   7040   1 0000B5  C2C6 0011                            LLH,R4   17,B6
          1 0000B7  CCC7 0008                            LDB,B4   CTX$,AUTO
          1 0000B9  C7C4 0005                            STH,R4   5,B4

      174     7041    2         KN$TCTX.OPTION = FPT_CONNECT.TR_FLAGS;

   7041   1 0000BB  CCC7 0008                            LDB,B4   CTX$,AUTO
          1 0000BD  C846 0012                            LDR,R4   18,B6
          1 0000BF  CF44 000C                            STR,R4   12,B4

      175     7042    2         KN$TCTX.OPTION.OSI = '0'B;

   7042   1 0000C1  8844 000C                            LBF,'0010'X       12,B4
   7042   1 0000C3       0010

      176     7043    2         KN$TCTX.OPTION.EXPEDITED = '0'B;

   7043   1 0000C4  8844 000C                            LBF,'0002'X       12,B4
   7043   1 0000C6       0002

      177     7044
      178     7045    2         IF KN$TCTX.OPTION.EXTENDED = '0'B

   7045   1 0000C7  82C4 000C                            LB,'0004'X        12,B4
   7045   1 0000C9       0004
          1 0000CA  0501 0015                            BBT      s:7052,PREL

      179     7046    3         THEN DO;           /*gettctx set up for extended format - the default*/

      180     7047    3              KN$TCTX.MAXSEQ = 127;

   7047   1 0000CC  8CF0 0000 007F                       LDI      127,IMO
          1 0000CF  8D44 000A                            SDI      10,B4
PL6.E3A0      #001=KNT$SEND File=KNT$SEND.:E05TSI                                WED 07/30/97 01:11 Page:33

      181     7048    3              KN$TCTX.RCV_WINDOW_SZ = KNT_WINDOW_NORMAL;

   7048   1 0000D1  C800 0000 0000  xsym                 LDR,R4   KNT_WINDOW_NORMAL
          1 0000D4  CAC4 0005                            SRM,R4,'00FF'X    5,B4
          1 0000D6       00FF

      182     7049    3              KN$TCTX.RECV_UWE = KN$TCTX.RCV_WINDOW_SZ;

   7049   1 0000D7  CCC7 0008                            LDB,B4   CTX$,AUTO
          1 0000D9  F844 0005                            LDR,R7   5,B4
          1 0000DB  F570 00FF                            AND,R7   255,IMO
          1 0000DD  6C00                                 LDV,R6   0
          1 0000DE  8D44 0024                            SDI      36,B4

      183     7050    3              END;

      184     7051
      185     7052    2         IF KNT_DEFAULT_CHKSUM=0 THEN KN$TCTX.OPTION.CHKSUM='0'B;

   7052   1 0000E0  E800 0000 0000  xsym                 LDR,R6   KNT_DEFAULT_CHKSUM
          1 0000E3  6981 0004                            BNEZ,R6  s:7054,PREL

   7052   1 0000E5  8844 000C                            LBF,'0001'X       12,B4
   7052   1 0000E7       0001

      186     7053
      187     7054    2         IF KNT_DEFAULT_TPDUSZ >= %K_TPDUSIZE_128

   7054   1 0000E8  C800 0000 0000  xsym                 LDR,R4   KNT_DEFAULT_TPDUSZ
          1 0000EB  4D07                                 CMV,R4   7
          1 0000EC  0201 0009                            BL       s:7057,PREL
          1 0000EE  4D0D                                 CMV,R4   13
          1 0000EF  0301 0006                            BG       s:7057,PREL

      188     7055    2           AND KNT_DEFAULT_TPDUSZ <= %K_TPDUSIZE_8192
      189     7056    2         THEN KN$TCTX.TPDUSZ_PARM = KNT_DEFAULT_TPDUSZ;
PL6.E3A0      #001=KNT$SEND File=KNT$SEND.:E05TSI                                WED 07/30/97 01:11 Page:34

   7056   1 0000F1  CAC4 0008                            SRM,R4,'00FF'X    8,B4
   7056   1 0000F3       00FF
          1 0000F4  0F81 0005                            B        s:7059,PREL

      190     7057    2         ELSE KN$TCTX.TPDUSZ_PARM = %K_TPDUSIZE_8192;

   7057   1 0000F6  3C0D                                 LDV,R3   13
          1 0000F7  BAC4 0008                            SRM,R3,'00FF'X    8,B4
          1 0000F9       00FF

      191     7058
      192     7059    2         IF KN$TCTX.CLASS = 4

   7059   1 0000FA  CCC7 0008                            LDB,B4   CTX$,AUTO
          1 0000FC  B2C4 0005                            LLH,R3   5,B4
          1 0000FE  3D04                                 CMV,R3   4
          1 0000FF  0981 000D                            BNE      s:7062,PREL

      193     7060    2         THEN CALL GHS$SET_TMR (KN$TCTX.TMR_RETRAN);

   7060   1 000101  BBC4 0050                            LAB,B3   80,B4
          1 000103  BFC7 001A                            STB,B3   ENTRY_SWITCH+2,AUTO
          1 000105  BBC7 001A                            LAB,B3   ENTRY_SWITCH+2,AUTO
          1 000107  CBF0 0100                            LAB,B4   256,IMO
          1 000109  E380 0000 0000  xent                 LNJ,B6   GHS$SET_TMR
          1 00010C       0001                            DC       s:7062,PREL

      194     7061
      195     7062    2         KN$TCTX.STATE = %K_TSTATE_WFCC;

   7062   1 00010D  6C03                                 LDV,R6   3
          1 00010E  ECC7 0008                            LDB,B6   CTX$,AUTO
          1 000110  E786                                 STH,R6   ,B6

      196     7063
      197     7064    2         CALL KNT$SEND_CR(KN$NETPARM)
PL6.E3A0      #001=KNT$SEND File=KNT$SEND.:E05TSI                                WED 07/30/97 01:11 Page:35

   7064   1 000111  BBC7 0004                            LAB,B3   @KN$NETPARM,AUTO
          1 000113  CBF0 0100                            LAB,B4   256,IMO
          1 000115  E380 0000 0000  xent                 LNJ,B6   KNT$SEND_CR
          1 000118       0003                            DC       s:7066,PREL
          1 000119  0F81 000F                            B        s:7062,PREL

      198     7065    3         WHENALTRETURN DO;

      199     7066    3              CALL KNA$RELTCTX(CTX$);

   7066   1 00011B  EBC7 0008                            LAB,B6   CTX$,AUTO
          1 00011D  EFC7 001A                            STB,B6   ENTRY_SWITCH+2,AUTO
          1 00011F  BBC7 001A                            LAB,B3   ENTRY_SWITCH+2,AUTO
          1 000121  CBF0 0100                            LAB,B4   256,IMO
          1 000123  E380 0000 0000  xent                 LNJ,B6   KNA$RELTCTX
          1 000126       0001                            DC       s:7067,PREL

      200     7067    3              GOTO UNLOCK_N_ALTRET;

   7067   1 000127  0F81 FF4A                            B        s:7010,PREL

   7062   1                              UNLOCK_N_RETURN null
      201     7068    3              END;
      202     7069
      203     7070    2   UNLOCK_N_RETURN: ;
      204     7071    2         KN$NETPARM.LDCT$ = QQQ$;

   7071   1 000129  ECC7 000C            UNLOCK_N_RETURN LDB,B6   QQQ$,AUTO
          1 00012B  DCC7 0004                            LDB,B5   @KN$NETPARM,AUTO
          1 00012D  EF85                                 STB,B6   ,B5

      205     7072              %UNLOCK (G=KNT_LOCKOUT);

   7077   1 00012E  BB80 0000 0000  02                   LAB,B3   0
          1 000131  CBF0 0100                            LAB,B4   256,IMO
          1 000133  E380 0000 0000  xent                 LNJ,B6   GHH$UNLOCK
PL6.E3A0      #001=KNT$SEND File=KNT$SEND.:E05TSI                                WED 07/30/97 01:11 Page:36
          1 000136       0001                            DC       s:7079,PREL

      206     7079    2         RETURN;

   7079   1 000137  C380 0000 0000  xent                 LNJ,B4   X6A_ARET

      207     7080
      208     7081        %EJECT;
PL6.E3A0      #001=KNT$SEND File=KNT$SEND.:E05TSI                                WED 07/30/97 01:11 Page:37
      209     7082        /* When the function is KN_FCN_DATA or K_NDATA, the method of sending
      210     7083           the data to the remote end point is dependent on the transport class
      211     7084           and the type of network connection to be used, connection-oriented(CONS)
      212     7085           or connection-less (CLNS).
      213     7086        */
      214     7087
      215     7088    2       CASE (%KN_FCN_DATA, %K_NDATA);

      216     7089
      217     7090    2         IF KN$NETPARM.TCTX_ID = 0

   7090   1 00013A  E846 0011                            LDR,R6   17,B6
          1 00013C  6981 000A                            BNEZ,R6  s:7095,PREL

      218     7091    3         THEN DO;

      219     7092    3              CALL SCREECH(KNT_SCODE);

   7092   1 00013E  BB80 0000 0002  02                   LAB,B3   +2
          1 000141  CBF0 0100                            LAB,B4   256,IMO
          1 000143  E380 0000 0000  xent                 LNJ,B6   SCREECH
          1 000146       0001                            DC       s:7095,PREL

      220     7093    3              END;

      221     7094
      222     7095    2         KN$NETPARM.THDR$ = ADDR(K$TPDU_DT_EXT); /* for knt$save to use*/

   7095   1 000147  EBC7 0014                            LAB,B6   K$TPDU_DT_EXT,AUTO
          1 000149  DCC7 0004                            LDB,B5   @KN$NETPARM,AUTO
          1 00014B  EFC5 000B                            STB,B6   11,B5

      223     7096    2         K$TPDU_DT_EXT = '0'B;

   7096   1 00014D  5C08                                 LDV,R5   8
          1 00014E  0021                                 ALR      ;
          1 00014F       4178 0000                                ALPHANUM('0000'X,IMO,,1),;
PL6.E3A0      #001=KNT$SEND File=KNT$SEND.:E05TSI                                WED 07/30/97 01:11 Page:38
          1 000151       4007 0014                                ALPHANUM(K$TPDU_DT_EXT,AUTO,,R5,FILL)

      224     7097
      225     7098        /* When the Class 4 transport state is OPEN and session requests that
      226     7099           we send data or expedited data, we call KNT$SAVE to get a buffer in
      227     7100           the transport pool, save the SPDU there, and link the buffer via
      228     7101           KN$TCTX.SEND_(E)HEAD$.
      229     7102
      230     7103           The message is sent on to network by calling KNT$SEND_DT or KNT$SEND_ED.
      231     7104           These routines call the appropriate network or link layer routine
      232     7105           depending on the type of network connection that is being used.
      233     7106        */
      234     7107    2         IF KN$TCTX.CLASS = 4

   7107   1 000153  ECC7 0008                            LDB,B6   CTX$,AUTO
          1 000155  437F                                 CSYNC    s:7107+1,SPREL
          1 000156  E2C6 0005                            LLH,R6   5,B6
          1 000158  6D04                                 CMV,R6   4
          1 000159  0981 0045                            BNE      s:7156,PREL

      235     7108    3         THEN DO;

      236     7109    3              IF KN$TCTX.STATE = %K_TSTATE_OPEN

   7109   1 00015B  C286                                 LLH,R4   ,B6
          1 00015C  4D05                                 CMV,R4   5
          1 00015D  0981 0028                            BNE      s:7136,PREL

      237     7110    4              THEN DO;

      238     7111    4                   CALL KNT$SAVE_DT(KN$NETPARM)

   7111   1 00015F  BBC7 0004                            LAB,B3   @KN$NETPARM,AUTO
          1 000161  CBF0 0100                            LAB,B4   256,IMO
          1 000163  E380 0000 0000  xent                 LNJ,B6   KNT$SAVE_DT
          1 000166       000B                            DC       s:7117,PREL

PL6.E3A0      #001=KNT$SEND File=KNT$SEND.:E05TSI                                WED 07/30/97 01:11 Page:39
      239     7112    5                   WHENRETURN DO;

      240     7113    5                        CALL KNT$SEND_DT(KN$NETPARM);

   7113   1 000167  BBC7 0004                            LAB,B3   @KN$NETPARM,AUTO
          1 000169  CBF0 0100                            LAB,B4   256,IMO
          1 00016B  E380 0000 0000  xent                 LNJ,B6   KNT$SEND_DT
          1 00016E       0001                            DC       s:7114,PREL

      241     7114    5                        GOTO UNLOCK_N_RETURN;

   7114   1 00016F  0F81 FFB9                            B        s:7062,PREL

      242     7115    5                        END;
      243     7116
      244     7117    5                   WHENALTRETURN DO;

      245     7118    5   CANT_SAVE_DATA:
      246     7119    5                        IF KN$NETPARM.ERRCODE = %KN_ERR_NOQ2

   7119   1 000171  ECC7 0004            CANT_SAVE_DATA  LDB,B6   @KN$NETPARM,AUTO
          1 000173  E846 0016                            LDR,R6   22,B6
          1 000175  6D07                                 CMV,R6   7
          1 000176  0901 FEFB                            BE       s:7010,PREL

      247     7120    5                        THEN GOTO UNLOCK_N_ALTRET; /*no buf available-knt_wait_head$*/
      248     7121
      249     7122    5                        KN$TCTX.FLOW_CONTROLLED = '1'B;

   7122   1 000178  DCC7 0008                            LDB,B5   CTX$,AUTO
          1 00017A  8945 000D                            LBT,'0010'X       13,B5
          1 00017C       0010

      250     7123
      251     7124    5                        IF KN$TCTX.PRIMARY

   7124   1 00017D  82C5 000D                            LB,'0001'X        13,B5
PL6.E3A0      #001=KNT$SEND File=KNT$SEND.:E05TSI                                WED 07/30/97 01:11 Page:40
   7124   1 00017F       0001
          1 000180  0581 0003                            BBF      s:7127,PREL

      252     7125    5                        THEN KN$NETPARM.ERRCODE=0; /*reset for kns$send*/

   7125   1 000182  8746 0016                            CL       22,B6

      253     7126
      254     7127    5                        GOTO UNLOCK_N_ALTRET; /*altret to send_4host or kns$send*/

   7127   1 000184  0F81 FEED                            B        s:7010,PREL

      255     7128    5                        END;
      256     7129    4                   END/*do if class 4 open*/;
      257     7130
      258     7131        /* When the Class 4 transport state is AKWAIT, and this is an
      259     7132           intermediate connection, the data is buffered.  For primary
      260     7133           connections in the AKWAIT state, the LDCT is queued on the
      261     7134           transport context block (KN$TCTX.LNK$).
      262     7135        */
      263     7136    3              IF (KN$TCTX.STATE = %K_TSTATE_AKWAIT)

   7136   1 000186  4D07                                 CMV,R4   7
          1 000187  0981 0017                            BNE      s:7156,PREL

      264     7137    4              THEN DO;

      265     7138    4                   IF KN$TCTX.PRIMARY

   7138   1 000189  82C6 000D                            LB,'0001'X        13,B6
   7138   1 00018B       0001
          1 00018C  0501 0021                            BBT      s:7161,PREL

      266     7139    4                   THEN GOTO LOCAL_NOT_OPEN;
      267     7140
      268     7141    4                   KN$TCTX.SERR.NOT_OPEN = KN$TCTX.SERR.NOT_OPEN +1;

PL6.E3A0      #001=KNT$SEND File=KNT$SEND.:E05TSI                                WED 07/30/97 01:11 Page:41
   7141   1 00018E  8AC6 000F                            INC      15,B6

      269     7142    4                   CALL KNT$SAVE_DT(KN$NETPARM) ALTRET(CANT_SAVE_DATA);

   7142   1 000190  BBC7 0004                            LAB,B3   @KN$NETPARM,AUTO
          1 000192  CBF0 0100                            LAB,B4   256,IMO
          1 000194  E380 0000 0000  xent                 LNJ,B6   KNT$SAVE_DT
          1 000197       FFDA                            DC       s:7117,PREL

   7141   1                              SIGNAL_FLOW_STOPnull
      270     7143    4   SIGNAL_FLOW_STOP: ;
      271     7144    4                   KN$TCTX.FLOW_CONTROLLED = '1'B;

   7144   1 000198  ECC7 0008            SIGNAL_FLOW_STOPLDB,B6   CTX$,AUTO
          1 00019A  8946 000D                            LBT,'0010'X       13,B6
          1 00019C       0010

      272     7145    4                   GOTO UNLOCK_N_ALTRET;   /*altret to send_4host*/

   7145   1 00019D  0F81 FED4                            B        s:7010,PREL

      273     7146    4                   END/*do if class 4 akwait*/;
      274     7147    3              END/*do if class 4*/;
      275     7148        %EJECT;
PL6.E3A0      #001=KNT$SEND File=KNT$SEND.:E05TSI                                WED 07/30/97 01:11 Page:42
      276     7149        /* When the state is WFCC, and this is a primary connection,
      277     7150           the LDCT is queued on the transport context block.  If attempting
      278     7151           to send data on an intermediate transport connection in the WFCC
      279     7152           state, it is a screech condition.
      280     7153        */
      281     7154
      282     7155    2   CHECK_TSTATE:
      283     7156    2         IF KN$TCTX.STATE ~= %K_TSTATE_OPEN

   7156   1 00019F  C286                 CHECK_TSTATE    LLH,R4   ,B6
          1 0001A0  4D05                                 CMV,R4   5
          1 0001A1  0901 0030                            BE       s:7207,PREL

      284     7157    3         THEN DO;

      285     7158    3              IF KN$TCTX.PRIMARY

   7158   1 0001A3  82C6 000D                            LB,'0001'X        13,B6
   7158   1 0001A5       0001
          1 0001A6  0581 0023                            BBF      s:7178,PREL

      286     7159    4              THEN DO;

      287     7160    4                   IF (KN$TCTX.STATE=%K_TSTATE_WFCC OR KN$TCTX.STATE=%K_TSTATE_WFCC_R)

   7160   1 0001A8  4D03                                 CMV,R4   3
          1 0001A9  0901 0004                            BE       s:7161,PREL
          1 0001AB  4D0A                                 CMV,R4   10
          1 0001AC  0981 001D                            BNE      s:7178,PREL

      288     7161    5                   THEN DO;

      289     7162    5   LOCAL_NOT_OPEN:
      290     7163    5                        KN$TCTX.WAIT_4OPEN = '1'B;

   7163   1 0001AE  8946 000D            LOCAL_NOT_OPEN  LBT,'0020'X       13,B6
   7163   1 0001B0       0020
PL6.E3A0      #001=KNT$SEND File=KNT$SEND.:E05TSI                                WED 07/30/97 01:11 Page:43

      291     7164    5                        KN$TCTX.SERR.NOT_OPEN = KN$TCTX.SERR.NOT_OPEN +1;

   7164   1 0001B1  8AC6 000F                            INC      15,B6

      292     7165
      293     7166    5                        IF NOT(KN$LDCT.FLAGS.QUEUED)

   7166   1 0001B3  CC85                                 LDB,B4   ,B5
          1 0001B4  89C4 000A                            CMZ      10,B4
          1 0001B6  0801 000E                            BAL      s:7172,PREL

      294     7167    6                        THEN DO;

      295     7168    6                             KN$LDCT.FLAGS.QUEUED = '1'B;

   7168   1 0001B8  8944 000A                            LBT,'8000'X       10,B4
   7168   1 0001BA       8000

      296     7169    6                             KN$LDCT.LNK$ = KN$TCTX.LNK$;

   7169   1 0001BB  CC85                                 LDB,B4   ,B5
          1 0001BC  BCC6 0006                            LDB,B3   6,B6
          1 0001BE  BFC4 0008                            STB,B3   8,B4

      297     7170    6                             KN$TCTX.LNK$ = KN$NETPARM.LDCT$;

   7170   1 0001C0  EC85                                 LDB,B6   ,B5
          1 0001C1  CCC7 0008                            LDB,B4   CTX$,AUTO
          1 0001C3  EFC4 0006                            STB,B6   6,B4

      298     7171    6                             END;

      299     7172    5                        KN$NETPARM.ERRCODE = %KN_ERR_NOQ2;

   7172   1 0001C5  6C07                                 LDV,R6   7
          1 0001C6  EF45 0016                            STR,R6   22,B5
PL6.E3A0      #001=KNT$SEND File=KNT$SEND.:E05TSI                                WED 07/30/97 01:11 Page:44

      300     7173    5                        GOTO UNLOCK_N_ALTRET;

   7173   1 0001C8  0F81 FEA9                            B        s:7010,PREL

      301     7174    5                        END/*do if wfcc*/;
      302     7175    4                   END/*do if primary connection*/;
      303     7176
      304     7177    3   REPORT_BAD_TSTATE:
      305     7178    3              IF KN$TCTX.STATE = %K_TSTATE_CLOSING

   7178   1 0001CA  4D08                 REPORT_BAD_TSTA*CMV,R4   8
          1 0001CB  0901 FF5D                            BE       s:7062,PREL
          1 0001CD  4D01                                 CMV,R4   1
          1 0001CE  0901 FF5A                            BE       s:7062,PREL

      306     7179    3                OR KN$TCTX.STATE = %K_TSTATE_REFWAIT
      307     7180    3              THEN GOTO UNLOCK_N_RETURN;
      308     7181
      309     7182    3              ELSE GOTO SCREECH_CHECK;

   7182   1 0001D0  0F81 00B9                            B        s:7305,PREL

      310     7183    3              END/*do if state not open*/;
      311     7184
      312     7185
      313     7186        %EJECT;
PL6.E3A0      #001=KNT$SEND File=KNT$SEND.:E05TSI                                WED 07/30/97 01:11 Page:45
      314     7187        /* For Class 2 and Class 0 connections in the OPEN state, a call
      315     7188           is made to the appropriate KNT$SAVE routine to determine if the
      316     7189           SPDU must be split into smaller TPDUs, or, in the case of Class 2
      317     7190           with flow control, if the data must be buffered because there is
      318     7191           insufficient credits to send the data.
      319     7192
      320     7193           The alternate return will be taken from the KNT$SAVE routines if
      321     7194           we are out of transport buffer space or if we are out of credits
      322     7195           for sending the data.
      323     7196
      324     7197           On a normal return, the contents of KN$TCTX.SEND_HEAD$ will contain
      325     7198           the address of the buffered data if the KNT$SAVE routine determined
      326     7199           that buffering was necessary, and we will attempt to send this buffered
      327     7200           data by calling KNT$SEND_DT.  When .SEND_HEAD$ is nil, the KNT$SAVE
      328     7201           routine has built the TPDU_DT header for us in our auto.  The data
      329     7202           is transmitted to the remote end point by a call to KNH$SEND if
      330     7203           this is a connection-oriented network connection; by a call to KNN$SEND
      331     7204           if this is a connection-less network service.
      332     7205
      333     7206        */
      334     7207    2         IF KN$TCTX.CLASS=0

   7207   1 0001D2  6981 000B                            BNEZ,R6  s:7216,PREL

      335     7208    3         THEN DO;

      336     7209    3              CALL KNT$SAVE_CLASS0(KN$NETPARM) ALTRET(CANT_SAVE_DATA);

   7209   1 0001D4  BBC7 0004                            LAB,B3   @KN$NETPARM,AUTO
          1 0001D6  CBF0 0100                            LAB,B4   256,IMO
          1 0001D8  E380 0000 0000  xent                 LNJ,B6   KNT$SAVE_CLASS0
          1 0001DB       FF96                            DC       s:7117,PREL

      337     7210    3              GOTO SEND_MSG_CHECK;

   7210   1 0001DC  0F81 000C                            B        s:7221,PREL

PL6.E3A0      #001=KNT$SEND File=KNT$SEND.:E05TSI                                WED 07/30/97 01:11 Page:46
      338     7211
      339     7212    3              END/*do if class 0*/;
      340     7213
      341     7214        %EJECT;
PL6.E3A0      #001=KNT$SEND File=KNT$SEND.:E05TSI                                WED 07/30/97 01:11 Page:47
      342     7215
      343     7216    2         IF KN$TCTX.CLASS=2

   7216   1 0001DE  6D02                                 CMV,R6   2
          1 0001DF  0981 00BF                            BNE      s:7322,PREL

      344     7217    3         THEN DO;

      345     7218    3              CALL KNT$SAVE_CLASS2(KN$NETPARM) ALTRET(CANT_SAVE_DATA);

   7218   1 0001E1  BBC7 0004                            LAB,B3   @KN$NETPARM,AUTO
          1 0001E3  CBF0 0100                            LAB,B4   256,IMO
          1 0001E5  E380 0000 0000  xent                 LNJ,B6   KNT$SAVE_CLASS2
          1 0001E8       FF89                            DC       s:7117,PREL

      346     7219
      347     7220    3   SEND_MSG_CHECK:
      348     7221    3              IF KN$TCTX.SEND_HEAD$ ~= ADDR(NIL)

   7221   1 0001E9  ECC7 0008            SEND_MSG_CHECK  LDB,B6   CTX$,AUTO
          1 0001EB  8DC6 003A                            CMN      58,B6
          1 0001ED  0901 000B                            BE       s:7228,PREL

      349     7222    4              THEN DO;

      350     7223    4                   CALL KNT$SEND_DT(KN$NETPARM);

   7223   1 0001EF  BBC7 0004                            LAB,B3   @KN$NETPARM,AUTO
          1 0001F1  CBF0 0100                            LAB,B4   256,IMO
          1 0001F3  E380 0000 0000  xent                 LNJ,B6   KNT$SEND_DT
          1 0001F6       0001                            DC       s:7224,PREL

      351     7224    4                   GOTO UNLOCK_N_RETURN;

   7224   1 0001F7  0F81 FF31                            B        s:7062,PREL

      352     7225    4                   END;
PL6.E3A0      #001=KNT$SEND File=KNT$SEND.:E05TSI                                WED 07/30/97 01:11 Page:48
      353     7226
      354     7227    4              ELSE DO;

      355     7228    4                   KN$NETPARM.MSG$ = KN$NETPARM.SHDR_C$;

   7228   1 0001F9  DCC7 0004                            LDB,B5   @KN$NETPARM,AUTO
          1 0001FB  8CC5 0008                            LDI      8,B5
          1 0001FD  8D45 0002                            SDI      2,B5

      356     7229    4                   KN$NETPARM.MSGSZ = KN$NETPARM.SHDRSZ;

   7229   1 0001FF  D845 000A                            LDR,R5   10,B5
          1 000201  DF45 0004                            STR,R5   4,B5

      357     7230    4                   KN$NETPARM.UHDRSZ = 0;

   7230   1 000203  8745 0007                            CL       7,B5

      358     7231    4                   KN$NETPARM.SHDRSZ = 0;

   7231   1 000205  8745 000A                            CL       10,B5

      359     7232
      360     7233    4                   IF KN$TCTX.OPTION.OSI

   7233   1 000207  ECC7 0008                            LDB,B6   CTX$,AUTO
          1 000209  82C6 000C                            LB,'0010'X        12,B6
          1 00020B       0010
          1 00020C  0581 0008                            BBF      s:7239,PREL

      361     7234    5                   THEN DO;

      362     7235    5                        KN$NETPARM.FUNCTION = %K_NDATA;

   7235   1 00020E  4C21                                 LDV,R4   33
          1 00020F  CF45 0014                            STR,R4   20,B5

PL6.E3A0      #001=KNT$SEND File=KNT$SEND.:E05TSI                                WED 07/30/97 01:11 Page:49
      363     7236    5                        KN$NETPARM.NHDRSZ = 0;

   7236   1 000211  8745 0010                            CL       16,B5

      364     7237    5                        END;

   7237   1 000213  0F81 0006                            B        s:7242,PREL

      365     7238    5                   ELSE DO;

      366     7239    5                        KN$NETPARM.NODE = KN$TCTX.NODE;

   7239   1 000215  C806                                 LDR,R4   ,B6
          1 000216  C570 00FF                            AND,R4   255,IMO
          1 000218  CF45 0015                            STR,R4   21,B5

      367     7240    5                        END;

      368     7241
      369     7242    4                   IF KN$TCTX.OPTION.CONS

   7242   1 00021A  82C6 000C                            LB,'0020'X        12,B6
   7242   1 00021C       0020
          1 00021D  0581 0036                            BBF      s:7272,PREL

      370     7243    5                   THEN DO;

      371     7244    5                        KN$NETPARM.LDCT$ = KN$LDCT$(KN$TCTX.LDCTX#);

   7244   1 00021F  B806                                 LDR,R3   ,B6
          1 000220  B570 00FF                            AND,R3   255,IMO
          1 000222  CC80 0000 0000  xsym                 LDB,B4   KN_DCT$$
          1 000225  BCB4                                 LDB,B3   ,B4,R3
          1 000226  BF85                                 STB,B3   ,B5

      372     7245    5                        CALL KNH$SEND(KN$NETPARM)

PL6.E3A0      #001=KNT$SEND File=KNT$SEND.:E05TSI                                WED 07/30/97 01:11 Page:50
   7245   1 000227  BBC7 0004                            LAB,B3   @KN$NETPARM,AUTO
          1 000229  CBF0 0100                            LAB,B4   256,IMO
          1 00022B  E380 0000 0000  xent                 LNJ,B6   KNH$SEND
          1 00022E       0016                            DC       s:7257,PREL

      373     7246    6                        WHENRETURN DO;

      374     7247    6   MSG_SENT:
      375     7248    6                             KN$TCTX.SEND_LWE = KN$TCTX.SEND_LWE +1;

   7248   1 00022F  ECC7 0008            MSG_SENT        LDB,B6   CTX$,AUTO
          1 000231  8AC6 0033                            INC      51,B6
          1 000233  8EC6 0032                            CAD      50,B6

      376     7249
      377     7250    6   TRACE_CHECK:
      378     7251    6                             IF KN$TCTX.OPTION.TRACE

   7251   1 000235  82C6 000C            TRACE_CHECK     LB,'0040'X        12,B6
   7251   1 000237       0040
          1 000238  0581 0009                            BBF      s:7254,PREL

      379     7252    6                             THEN CALL KNT$TR_SEND(KN$NETPARM);

   7252   1 00023A  BBC7 0004                            LAB,B3   @KN$NETPARM,AUTO
          1 00023C  CBF0 0100                            LAB,B4   256,IMO
          1 00023E  E380 0000 0000  xent                 LNJ,B6   KNT$TR_SEND
          1 000241       0001                            DC       s:7254,PREL

      380     7253
      381     7254    6                             GOTO UNLOCK_N_RETURN;

   7254   1 000242  0F81 FEE6                            B        s:7062,PREL

      382     7255    6                             END;
      383     7256
      384     7257    6                        WHENALTRETURN DO;
PL6.E3A0      #001=KNT$SEND File=KNT$SEND.:E05TSI                                WED 07/30/97 01:11 Page:51

      385     7258    6   ALTRET_4_Q:
      386     7259    6                             IF KN$NETPARM.ERRCODE = %KN_ERR_NOQ

   7259   1 000244  ECC7 0004            ALTRET_4_Q      LDB,B6   @KN$NETPARM,AUTO
          1 000246  E846 0016                            LDR,R6   22,B6
          1 000248  6D01                                 CMV,R6   1
          1 000249  0901 0004                            BE       s:7262,PREL
          1 00024B  6D07                                 CMV,R6   7
          1 00024C  0981 0042                            BNE      s:7308,PREL

      387     7260    6                               OR KN$NETPARM.ERRCODE = %KN_ERR_NOQ2
      388     7261    7                             THEN DO;

      389     7262    7                                  KN$TCTX.SERR.NOQ = KN$TCTX.SERR.NOQ +1;

   7262   1 00024E  DCC7 0008                            LDB,B5   CTX$,AUTO
          1 000250  8AC5 0013                            INC      19,B5

      390     7263        /* leave                       KN$NETPARRM.ERRCODE = KN_ERR_NOQ; */
      391     7264    7                                  GOTO UNLOCK_N_ALTRET;

   7264   1 000252  0F81 FE1F                            B        s:7010,PREL

      392     7265    7                                  END;
      393     7266
      394     7267    6                             ELSE GOTO FORCE_SCREECH;
      395     7268    6                             END;
      396     7269    5                        END/*do for CONS*/;
      397     7270
      398     7271    5                   ELSE DO/*for CLNS*/;

      399     7272    5                        KN$NETPARM.SRC_ADDR$ = ADDR(KN$TCTX.SRC_NSAP);

   7272   1 000254  CBC6 009A                            LAB,B4   154,B6
          1 000256  CFC5 001D                            STB,B4   29,B5

PL6.E3A0      #001=KNT$SEND File=KNT$SEND.:E05TSI                                WED 07/30/97 01:11 Page:52
      400     7273    5                        KN$NETPARM.DST_ADDR$ = ADDR(KN$TCTX.DST_NSAP);

   7273   1 000258  BBC6 00A5                            LAB,B3   165,B6
          1 00025A  BFC5 001F                            STB,B3   31,B5

      401     7274
      402     7275    5                        CALL KNN$SEND(KN$NETPARM) ALTRET(ALTRET_4_Q);

   7275   1 00025C  BBC7 0004                            LAB,B3   @KN$NETPARM,AUTO
          1 00025E  CBF0 0100                            LAB,B4   256,IMO
          1 000260  E380 0000 0000  xent                 LNJ,B6   KNN$SEND
          1 000263       FFE1                            DC       s:7257,PREL

      403     7276
      404     7277    5                        GOTO MSG_SENT;

   7277   1 000264  0FCB                                 B        s:7246,SPREL

      405     7278    5                        END/*do for CLNS*/;
      406     7279
      407     7280    3                   END;/*do if not buffered*/;
      408     7281
      409     7282    3              END/*class 2 open*/;
      410     7283
      411     7284        %EJECT;
PL6.E3A0      #001=KNT$SEND File=KNT$SEND.:E05TSI                                WED 07/30/97 01:11 Page:53
      412     7285        /* If we get here, we came from SEND_4HOST.  Note that the checks for
      413     7286           expedited data allowed on this transport connection and for
      414     7287           SPDU size > 16 was done on the host, so we wont duplicate it here.
      415     7288        */
      416     7289    2       CASE (%K_TEXPD_DATA_REQ);

      417     7290
      418     7291    2         IF KN$TCTX.STATE = %K_TSTATE_OPEN

   7291   1 000265  DCC7 0008                            LDB,B5   CTX$,AUTO
          1 000267  E285                                 LLH,R6   ,B5
          1 000268  6D05                                 CMV,R6   5
          1 000269  0981 0013                            BNE      s:7298,PREL

      419     7292    3         THEN DO;

      420     7293    3              CALL KNT$SAVE_ED(KN$NETPARM) ALTRET(CANT_SAVE_DATA);

   7293   1 00026B  BBC7 0004                            LAB,B3   @KN$NETPARM,AUTO
          1 00026D  CBF0 0100                            LAB,B4   256,IMO
          1 00026F  E380 0000 0000  xent                 LNJ,B6   KNT$SAVE_ED
          1 000272       FEFF                            DC       s:7117,PREL

      421     7294    3              CALL KNT$SEND_ED(KN$NETPARM);

   7294   1 000273  BBC7 0004                            LAB,B3   @KN$NETPARM,AUTO
          1 000275  CBF0 0100                            LAB,B4   256,IMO
          1 000277  E380 0000 0000  xent                 LNJ,B6   KNT$SEND_ED
          1 00027A       0001                            DC       s:7295,PREL

      422     7295    3              GOTO UNLOCK_N_RETURN;

   7295   1 00027B  0F81 FEAD                            B        s:7062,PREL

      423     7296    3              END;
      424     7297
      425     7298    2         IF KN$TCTX.STATE = %K_TSTATE_AKWAIT
PL6.E3A0      #001=KNT$SEND File=KNT$SEND.:E05TSI                                WED 07/30/97 01:11 Page:54

   7298   1 00027D  6D07                                 CMV,R6   7
          1 00027E  0981 0020                            BNE      s:7322,PREL

      426     7299    3         THEN DO;

      427     7300    3              CALL KNT$SAVE_ED(KN$NETPARM) ALTRET(CANT_SAVE_DATA);

   7300   1 000280  BBC7 0004                            LAB,B3   @KN$NETPARM,AUTO
          1 000282  CBF0 0100                            LAB,B4   256,IMO
          1 000284  E380 0000 0000  xent                 LNJ,B6   KNT$SAVE_ED
          1 000287       FEEA                            DC       s:7117,PREL

      428     7301    3              GOTO SIGNAL_FLOW_STOP;

   7301   1 000288  0F81 FF0F                            B        s:7141,PREL

      429     7302    3              END;
      430     7303        %EJECT;
PL6.E3A0      #001=KNT$SEND File=KNT$SEND.:E05TSI                                WED 07/30/97 01:11 Page:55
      431     7304
      432     7305    2       CASE(ELSE);

      433     7306    2   SCREECH_CHECK:
      434     7307    2         IF KNT_ERROR_SCREECH ~= 0

   7307   1 00028A  E800 0000 0000  xsym SCREECH_CHECK   LDR,R6   KNT_ERROR_SCREECH
          1 00028D  6901 000A                            BEZ,R6   s:7313,PREL

      435     7308    3         THEN DO;

      436     7309    3   FORCE_SCREECH:
      437     7310    3              CALL SCREECH(KNT_SCODE);

   7310   1 00028F  BB80 0000 0002  02   FORCE_SCREECH   LAB,B3   +2
          1 000292  CBF0 0100                            LAB,B4   256,IMO
          1 000294  E380 0000 0000  xent                 LNJ,B6   SCREECH
          1 000297       0001                            DC       s:7313,PREL

      438     7311    3              END;

      439     7312
      440     7313    2         KN$NETPARM.ERRCODE = %KN_ERR_INVFCN;

   7313   1 000298  ECC7 0004                            LDB,B6   @KN$NETPARM,AUTO
          1 00029A  6C02                                 LDV,R6   2
          1 00029B  EF46 0016                            STR,R6   22,B6

      441     7314
      442     7315    2         GOTO UNLOCK_N_ALTRET;

   7315   1 00029D  0F81 FDD4                            B        s:7010,PREL

      443     7316
      444     7317    2         END/*do case(function)*/;

      445     7318
PL6.E3A0      #001=KNT$SEND File=KNT$SEND.:E05TSI                                WED 07/30/97 01:11 Page:56
      446     7319
      447     7320
      448     7321
      449     7322    1   END KNT$SEND;

   7322   1 00029F  C380 0000 0000  xent                 LNJ,B4   X6A_ARET
      450     7323        %EOD;

PL6.E3A0      #001=KNT$SEND File=KNT$SEND.:E05TSI                                WED 07/30/97 01:11 Page:57
--  Include file information  --

   KNH_MACRO_C.:E05TOU  is referenced.
   KN_DATA_M.:E05TOU  is referenced.
   K_TRANSPORT_M.:E05TOU  is referenced.
   K_TRANSPORT_E.:E05TOU  is referenced.
   K_INTERFACE_M.:E05TOU  is referenced.
   K_ADDRESS_M.:E05TOU  is referenced.
   GH_SCHD_M.:E05TOU  is referenced.
   GH_GATE_M.:E05TOU  cannot be made into a system file and is referenced.
   G_LCP6_E.:E05TOU  was found in the system file and is never referenced.
   GT_LCP6_M.:E05TOU  was found in the system file and is never referenced.
   KI_CP6.:E05TOU  was found in the system file and is referenced.
   GF_LCP6_M.:E05TOU  was found in the system file and is never referenced.
   GM_LCP6_M.:E05TOU  was found in the system file and is never referenced.
   GU_LCP6_M.:E05TOU  was found in the system file and is never referenced.
   GJ_LCP6_M.:E05TOU  was found in the system file and is never referenced.
   GH_LCP6_M.:E05TOU  was found in the system file and is never referenced.
      No diagnostics issued in procedure KNT$SEND.
PL6.E3A0      #001=KNT$SEND File=KNT$SEND.:E05TSI                                WED 07/30/97 01:11 Page:58

 **** Variables and constants ****

  ****  Section 000  Data  KNT$SEND

  ****  Scalars and arrays  ****
HexLoc.c.b A Datatyp(siz) R M Lvl/name                 HexLoc.c.b A Datatyp(siz) R M Lvl/name

     0-0-0/w STRC(48)    r     1 KNT_LOCKOUT

  ****  Auto variables  ****

  ****  Scalars and arrays  ****
HexLoc.c.b A Datatyp(siz) R M Lvl/name                 HexLoc.c.b A Datatyp(siz) R M Lvl/name

     4-0-0/w PTR         r     1 @KN$NETPARM                8-0-0/w PTR         r     1 CTX$
    18-0-0/w UBIN(16)    r     1 ENTRY_SWITCH               A-0-0/w PTR         r     1 FPT$
    14-0-0/w STRC(64)    r     1 K$TPDU_DT_EXT             *0-0-0/w STRC(528)   r     1 KN$NETPARM
     C-0-0/w PTR         r     1 QQQ$                       E-0-0/w SBIN(16)    r     1 TCTX_ID

  ****  SYMREF variables  ****

  ****  Scalars and arrays  ****
HexLoc.c.b A Datatyp(siz) R M Lvl/name                 HexLoc.c.b A Datatyp(siz) R M Lvl/name

     0-0-0/w UBIN(16)    r     1 KNT_DEFAULT_CHKSUM         0-0-0/w UBIN(16)    r     1 KNT_DEFAULT_TPDUSZ
     0-0-0/w UBIN(16)    r     1 KNT_ERROR_SCREECH          0-0-0/w UBIN(32)    r     1 KNT_SCODE
     0-0-0/w UBIN(16)    r     1 KNT_WINDOW_NORMAL          0-0-0/w PTR         r     1 KN_DCT$$
     0-0-0/w PTR         r     1 KN_TCTX$$

  ****  BASED and DCB variables  ****

  ****  Scalars and arrays  ****
HexLoc.c.b A Datatyp(siz) R M Lvl/name                 HexLoc.c.b A Datatyp(siz) R M Lvl/name

     0-0-0/w STRC(304)   r     1 FPT_CONNECT                0-0-0/w STRC(256)   r     1 KN$LDCT
     0-0-0/w PTR         r     1 KN$LDCT$(0:0)
     0-0-0/w STRC(2816)  r     1 KN$TCTX
PL6.E3A0      #001=KNT$SEND File=KNT$SEND.:E05TSI                                WED 07/30/97 01:11 Page:59
     0-0-0/w PTR         r     1 KN$TCTX$(0:0)


   Procedure KNT$SEND requires 674 words for executable code.
   Procedure KNT$SEND requires 28 words of local(AUTO) storage.
PL6.E3A0      #001=KNT$SEND File=KNT$SEND.:E05TSI                                WED 07/30/97 01:11 Page:60
          *** CROSS REFERENCE LISTING ***
**     DENOTES     IDENTIFIER DEFINITION
<<                 IDENTIFIER'S VALUE SET
>>                 IDENTIFIER'S VALUE USED
<>                 IDENTIFIER SET AND/OR USED
--                 IDENTIFIER REFERENCED
PL6.E3A0      #001=KNT$SEND File=KNT$SEND.:E05TSI                                WED 07/30/97 01:11 Page:61
          MINI XREF LISTING

ALTRET_4_Q
      7259**LABEL    7275--CALLALT
CANT_SAVE_DATA
      7119**LABEL    7142--CALLALT  7209--CALLALT  7218--CALLALT  7293--CALLALT  7300--CALLALT
COMMON
      6979**LABEL    6976--GOTO
CTX$
      5445**DCL      5669--IMP-PTR  6986<<ASSIGN   6987>>ASSIGN   7008<>CALL     7024>>ASSIGN   7025>>ASSIGN
      7027>>ASSIGN   7029>>ASSIGN   7033>>ASSIGN   7036>>ASSIGN   7037>>ASSIGN   7038>>ASSIGN   7039>>ASSIGN
      7040>>ASSIGN   7041>>ASSIGN   7042>>ASSIGN   7043>>ASSIGN   7045>>IF       7047>>ASSIGN   7048>>ASSIGN
      7049>>ASSIGN   7049>>ASSIGN   7052>>ASSIGN   7056>>ASSIGN   7057>>ASSIGN   7059>>IF       7060>>CALL
      7062>>ASSIGN   7066<>CALL     7107>>IF       7109>>IF       7122>>ASSIGN   7124>>IF       7136>>IF
      7138>>IF       7141>>ASSIGN   7141>>ASSIGN   7144>>ASSIGN   7156>>IF       7158>>IF       7160>>IF
      7160>>IF       7163>>ASSIGN   7164>>ASSIGN   7164>>ASSIGN   7169>>ASSIGN   7170>>ASSIGN   7178>>IF
      7178>>IF       7207>>IF       7216>>IF       7221>>IF       7233>>IF       7239>>ASSIGN   7242>>IF
      7244>>ASSIGN   7248>>ASSIGN   7248>>ASSIGN   7251>>IF       7262>>ASSIGN   7262>>ASSIGN   7272>>ASSIGN
      7273>>ASSIGN   7291>>IF       7298>>IF
ENTRY_SWITCH
      5610**DCL      6975<<ASSIGN   6979<<ASSIGN
FORCE_SCREECH
      7310**LABEL    7267--GOTO
FPT$
      5446**DCL      6832--IMP-PTR  6982<<ASSIGN   7024>>ASSIGN   7039>>ASSIGN   7040>>ASSIGN   7041>>ASSIGN
FPT_CONNECT.CLASS
      6872**DCL      7040>>ASSIGN
FPT_CONNECT.RLCID.GENERATION
      6868**DCL      6869--REDEF
FPT_CONNECT.RLCID.LDCTX
      6869**DCL      6869--REDEF
FPT_CONNECT.RLCID.NODE
      6868**DCL      7024>>ASSIGN
FPT_CONNECT.SERVICE
PL6.E3A0      #001=KNT$SEND File=KNT$SEND.:E05TSI                                WED 07/30/97 01:11 Page:62
      6871**DCL      7039>>ASSIGN
FPT_CONNECT.TERMINAL_ID.TERM
      6857**DCL      6866--REDEF
FPT_CONNECT.TR_FLAGS
      6873**DCL      7041>>ASSIGN
GHH$LOCK
        51**DCL-ENT  6994--CALL
GHH$UNLOCK
        51**DCL-ENT  7019--CALL     7077--CALL
GHS$SET_TMR
      5628**DCL-ENT  7060--CALL
K$TPDU_DT_EXT
      5561**DCL      7095--ASSIGN   7096<<ASSIGN
KN$LDCT.CONN_TYPE
      6589**DCL      7031>>IF
KN$LDCT.FLAGS.QUEUED
      6765**DCL      7166>>IF       7168<<ASSIGN
KN$LDCT.LNK$
      6734**DCL      7169<<ASSIGN
KN$LDCT.RLCID.LDCTX
      6649**DCL      6656--REDEF    6664--REDEF
KN$LDCT.TRANSPORT_ID
      6683**DCL      6691--REDEF    7033<<ASSIGN
KN$LDCT.UID
      6713**DCL      6714--REDEF    6723--REDEF
KN$LDCT$
      6572**DCL      7244>>ASSIGN
KN$NETPARM
      5302**DCL         9--PROC     6978--ENTRY    7064<>CALL     7111<>CALL     7113<>CALL     7142<>CALL
      7209<>CALL     7218<>CALL     7223<>CALL     7245<>CALL     7252<>CALL     7275<>CALL     7293<>CALL
      7294<>CALL     7300<>CALL
KN$NETPARM.DST_ADDR$
      5436**DCL      7273<<ASSIGN
KN$NETPARM.ERRCODE
      5409**DCL      7010<<ASSIGN   7119>>IF       7125<<ASSIGN   7172<<ASSIGN   7259>>IF       7259>>IF
      7313<<ASSIGN
PL6.E3A0      #001=KNT$SEND File=KNT$SEND.:E05TSI                                WED 07/30/97 01:11 Page:63
KN$NETPARM.FPT$
      5421**DCL      6982>>ASSIGN
KN$NETPARM.FUNCTION
      5397**DCL      6997>>DOCASE   7235<<ASSIGN
KN$NETPARM.LDCT$
      5303**DCL      6588--IMP-PTR  6983>>ASSIGN   7013<<ASSIGN   7031>>IF       7033>>ASSIGN   7071<<ASSIGN
      7166>>IF       7168>>ASSIGN   7169>>ASSIGN   7170>>ASSIGN   7244<<ASSIGN
KN$NETPARM.MSG$
      5309**DCL      5314--REDEF    7228<<ASSIGN
KN$NETPARM.MSGSZ
      5320**DCL      7229<<ASSIGN
KN$NETPARM.NHDR$
      5361**DCL      5362--REDEF
KN$NETPARM.NHDRSZ
      5367**DCL      7236<<ASSIGN
KN$NETPARM.NODE
      5404**DCL      7025<<ASSIGN   7239<<ASSIGN
KN$NETPARM.SHDR$
      5339**DCL      5340--REDEF
KN$NETPARM.SHDRSZ
      5345**DCL      7229>>ASSIGN   7231<<ASSIGN
KN$NETPARM.SHDR_C$
      5340**DCL      7228>>ASSIGN
KN$NETPARM.SRC_ADDR$
      5431**DCL      7272<<ASSIGN
KN$NETPARM.TCTX$
      5426**DCL      6987<<ASSIGN   7029<<ASSIGN
KN$NETPARM.TCTX_ID
      5372**DCL      6985>>ASSIGN   7028<<ASSIGN   7090>>IF
KN$NETPARM.THDR$
      5350**DCL      5351--REDEF    7095<<ASSIGN
KN$NETPARM.UHDR$
      5325**DCL      5326--REDEF
KN$NETPARM.UHDRSZ
      5334**DCL      7230<<ASSIGN
KN$TCTX.CLASS
PL6.E3A0      #001=KNT$SEND File=KNT$SEND.:E05TSI                                WED 07/30/97 01:11 Page:64
      5735**DCL      7040<<ASSIGN   7059>>IF       7107>>IF       7207>>IF       7216>>IF
KN$TCTX.DST_NSAP
      6524**DCL      7273--ASSIGN
KN$TCTX.DST_NSAP.ADDRESS_N
      6554**DCL      6555--REDEF
KN$TCTX.FLOW_CONTROLLED
      5884**DCL      7122<<ASSIGN   7144<<ASSIGN
KN$TCTX.LDCTX#
      5689**DCL      7244>>ASSIGN
KN$TCTX.LNK$
      5753**DCL      7169>>ASSIGN   7170<<ASSIGN
KN$TCTX.MAXSEQ
      5773**DCL      7047<<ASSIGN
KN$TCTX.NODE
      5676**DCL      5689--REDEF    7024<<ASSIGN   7025>>ASSIGN   7239>>ASSIGN
KN$TCTX.OPTION
      5774**DCL      7041<<ASSIGN
KN$TCTX.OPTION.CHKSUM
      5832**DCL      7052<<ASSIGN
KN$TCTX.OPTION.CONS
      5788**DCL      7242>>IF
KN$TCTX.OPTION.EXPEDITED
      5820**DCL      7043<<ASSIGN
KN$TCTX.OPTION.EXTENDED
      5812**DCL      7045>>IF
KN$TCTX.OPTION.OSI
      5797**DCL      7042<<ASSIGN   7233>>IF
KN$TCTX.OPTION.TRACE
      5783**DCL      7251>>IF
KN$TCTX.OUTBOUND
      5906**DCL      7037<<ASSIGN
KN$TCTX.PRIMARY
      5914**DCL      7036<<ASSIGN   7124>>IF       7138>>IF       7158>>IF
KN$TCTX.QOS
      5724**DCL      7039<<ASSIGN
KN$TCTX.RCV_WINDOW_SZ
PL6.E3A0      #001=KNT$SEND File=KNT$SEND.:E05TSI                                WED 07/30/97 01:11 Page:65
      5741**DCL      7048<<ASSIGN   7049>>ASSIGN
KN$TCTX.RECV_UWE
      6047**DCL      7049<<ASSIGN
KN$TCTX.SEND_HEAD$
      6130**DCL      7221>>IF
KN$TCTX.SEND_LWE
      6097**DCL      7248<<ASSIGN   7248>>ASSIGN
KN$TCTX.SEND_RETRY_COUNT
      6213**DCL      7038<<ASSIGN
KN$TCTX.SERR.NOQ
      5961**DCL      7262<<ASSIGN   7262>>ASSIGN
KN$TCTX.SERR.NOT_OPEN
      5933**DCL      7141<<ASSIGN   7141>>ASSIGN   7164<<ASSIGN   7164>>ASSIGN
KN$TCTX.SRC_NSAP
      6460**DCL      7272--ASSIGN
KN$TCTX.SRC_NSAP.ADDRESS_N
      6490**DCL      6491--REDEF
KN$TCTX.SRC_REF
      5703**DCL      7027>>ASSIGN   7033>>ASSIGN
KN$TCTX.STATE
      5670**DCL      7062<<ASSIGN   7109>>IF       7136>>IF       7156>>IF       7160>>IF       7160>>IF
      7178>>IF       7178>>IF       7291>>IF       7298>>IF
KN$TCTX.TMR_INACTIVITY.ARG
      6310**DCL      6311--REDEF
KN$TCTX.TMR_REFERENCE.ARG
      6340**DCL      6341--REDEF
KN$TCTX.TMR_RETRAN
      6249**DCL      7060<>CALL
KN$TCTX.TMR_RETRAN.ARG
      6251**DCL      6252--REDEF
KN$TCTX.TMR_WINDOW.ARG
      6280**DCL      6281--REDEF
KN$TCTX.TPDUSZ_PARM
      5771**DCL      7056<<ASSIGN   7057<<ASSIGN
KN$TCTX.WAIT_4OPEN
      5870**DCL      7163<<ASSIGN
PL6.E3A0      #001=KNT$SEND File=KNT$SEND.:E05TSI                                WED 07/30/97 01:11 Page:66
KN$TCTX$
      6571**DCL      6986>>ASSIGN
KNA$GETTCTX
      5615**DCL-ENT  7008--CALL
KNA$RELTCTX
      5616**DCL-ENT  7066--CALL
KNH$SEND
      5617**DCL-ENT  7245--CALL
KNN$SEND
      5618**DCL-ENT  7275--CALL
KNT$SAVE_CLASS0
      5621**DCL-ENT  7209--CALL
KNT$SAVE_CLASS2
      5622**DCL-ENT  7218--CALL
KNT$SAVE_DT
      5619**DCL-ENT  7111--CALL     7142--CALL
KNT$SAVE_ED
      5620**DCL-ENT  7293--CALL     7300--CALL
KNT$SEND_CR
      5624**DCL-ENT  7064--CALL
KNT$SEND_DT
      5626**DCL-ENT  7113--CALL     7223--CALL
KNT$SEND_ED
      5627**DCL-ENT  7294--CALL
KNT$TR_SEND
      5630**DCL-ENT  7252--CALL
KNT_DEFAULT_CHKSUM
      5634**DCL      7052>>IF
KNT_DEFAULT_TPDUSZ
      5635**DCL      7054>>IF       7054>>IF       7056>>ASSIGN
KNT_ERROR_SCREECH
      5639**DCL      7307>>IF
KNT_LOCKOUT
      5655**DCL      6994<>CALL     7019<>CALL     7077<>CALL
KNT_SCODE
      5640**DCL      7092<>CALL     7310<>CALL
PL6.E3A0      #001=KNT$SEND File=KNT$SEND.:E05TSI                                WED 07/30/97 01:11 Page:67
KNT_WINDOW_NORMAL
      5636**DCL      7048>>ASSIGN
KN_DCT$$
      5638**DCL      6572--IMP-PTR  7244>>ASSIGN
KN_TCTX$$
      5637**DCL      6571--IMP-PTR  6986>>ASSIGN
LOCAL_NOT_OPEN
      7163**LABEL    7139--GOTO
MSG_SENT
      7248**LABEL    7277--GOTO
QQQ$
      5447**DCL      6983<<ASSIGN   7013>>ASSIGN   7071>>ASSIGN
SCREECH
      5631**DCL-ENT  7092--CALL     7310--CALL
SCREECH_CHECK
      7307**LABEL    7182--GOTO
SEND_MSG_CHECK
      7221**LABEL    7210--GOTO
SIGNAL_FLOW_STOP
      7141**LABEL    7301--GOTO
TCTX_ID
      5448**DCL      6985<<ASSIGN   6986>>ASSIGN   7027<<ASSIGN   7028>>ASSIGN
UNLOCK_N_ALTRET
      7010**LABEL    7067--GOTO     7120--GOTO     7127--GOTO     7145--GOTO     7173--GOTO     7264--GOTO
      7315--GOTO
UNLOCK_N_RETURN
      7062**LABEL    7114--GOTO     7180--GOTO     7224--GOTO     7254--GOTO     7295--GOTO

PL6.E3A0      #002=KNT$SAVE File=KNT$SEND.:E05TSI                                WED 07/30/97 01:12 Page:68
      451        1        /*M* KNT$SAVE - Save data and expdiated data for retransmission. */
      452        2        /*T***********************************************************/
      453        3        /*T*                                                         */
      454        4        /*T* Copyright (c) Bull HN Information Systems Inc., 1997    */
      455        5        /*T*                                                         */
      456        6        /*T***********************************************************/
      457        7        /*X* PLM=3,IND=5,ENU=0,ECU=0 */
      458        8
      459        9        /*F* NAME: KNT$SAVE
      460       10
      461       11             ENTRY: KNT$SAVE_DT
      462       12             ENTRY: KNT$SAVE_ED
      463       13             ENTRY: KNT$SAVE_CLASS2
      464       14             ENTRY: KNT$SAVE_CLASS0
      465       15
      466       16             INPUT: KN$NETPARM.TCTX$ -> the TCTX for the transport connection
      467       17                                        that is sending data.
      468       18                    KN$NETPARM.THDR$ -> auto storage where the TPDU header
      469       19                                        may be built.
      470       20
      471       21             PURPOSE:
      472       22                 To save the data TPDUs for possible retransmission and/or
      473       23                 break a large SPDU into smaller TPDUs for transmission.
      474       24
      475       25             DESCRIPTION:
      476       26                 The entry points KNT$SAVE_CLASS2 and KNT$SAVE_CLASS0
      477       27                 provide for simply building the TPDU data header if there is
      478       28                 no need to buffer; if the SPDU plus TPDU header fit within
      479       29                 the maximum TPDU size, and, if Class 2 with the flow control
      480       30                 option, there are sufficient credits to send the data.
      481       31                 When buffering is necessary, the TPDU header is built in
      482       32                 the buffer itself, rather than in the auto storage area located
      483       33                 via KN$NETPARM.THDR$.
      484       34
      485       35                 Class 4 data is always buffered for possible later retransmission.
      486       36
      487       37                 The buffer is obtained and filled for data or expedited data.
PL6.E3A0      #002=KNT$SAVE File=KNT$SEND.:E05TSI                                WED 07/30/97 01:12 Page:69
      488       38                 If the data to be saved is larger than the maximum TPDU size,
      489       39                 the data is saved in a series of linked buffers.
      490       40
      491       41                 The alternate return is taken with kn$netparm.errcode set
      492       42                 to KN_ERR_NOQ2 if we run out of transport buffers.
      493       43
      494       44                 The alternate return is taken with kn$netparm.errcode set
      495       45                 to ERROR_FLOW if we have buffered more than the limit as
      496       46                 specified in (KN$TCTX.RCV_WINDOW_SZ *4).  If this is a primary connection
      497       47                 the data will not have been buffered; if an intermediate
      498       48                 connection the host data will have been buffered.
      499       49        */
      500       50        KNT$SAVE: PROC(KN$NETPARM)  ALTRET;
      501       51
      502       52        %INCLUDE K_ADDRESS_M;
      503      555        %INCLUDE KN_DATA_M;
      504     2341        %INCLUDE K_TRANSPORT_E;
      505     2666        %INCLUDE K_TRANSPORT_M;
      506     4450        %INCLUDE GH_SCHD_M;
      507     4594
      508     4595                                                /* Input parameters                   */
      509     4596        %KN$NETPARM;
      510     4749
      511     4750                                                /* Auto Storage                       */
      512     4751    1   DCL CTX$ PTR;
      513     4752    1   DCL MOVE$ CPTR;
      514     4753    1   DCL LDCT$ REDEF MOVE$ PTR;
      515     4754    1   DCL TPDU$ CPTR;
      516     4755    1   DCL SPDU$ CPTR;
      517     4756    1   DCL FRAG$ PTR;
      518     4757    1   DCL FIRST_FRAG$ PTR;
      519     4758    1   DCL LAST_FRAG$ PTR;
      520     4759    1   DCL FRAG_SZ SBIN;
      521     4760    1   DCL THDR_SZ SBIN;
      522     4761    1   DCL THIS_SPDUSZ SBIN;
      523     4762    1   DCL SPDU_SZ SBIN;
      524     4763    1   DCL MOVE_SZ SBIN;
PL6.E3A0      #002=KNT$SAVE File=KNT$SEND.:E05TSI                                WED 07/30/97 01:12 Page:70
      525     4764    1   DCL SEND_NEXT UBIN(32);
      526     4765    1   DCL CHKOFF SBIN;
      527     4766    1   DCL EXTRA SBIN(32);
      528     4767    1   DCL FRAGS# UBIN;
      529     4768    1   DCL BUFFER_TPDU UBIN;
      530     4769    1   DCL ENTRY_SWITCH SBIN;                  /* 0 = normal data - class 0          */
      531     4770                                                /* 1 = exped. data - classes 2 and 4  */
      532     4771                                                /* 2 = normal data - class 2          */
      533     4772                                                /* 15 = normal data - class 4         */
      534     4773
      535     4774                                                /* Based Data                         */
      536     4775        %K$FRAG_HDR (NAME=FRAG_HDR,STCLASS="BASED(FRAG$)");
      537     4858
      538     4859        %K$TPDU_GENERIC (NAME=B$TPDU, STCLASS="BASED(TPDU$)");
      539     4919        %K$TPDU_DT (NAME=B$TPDU_DT, STCLASS="BASED(TPDU$)");
      540     4969        %K$TPDU_DT_EXT (NAME=B$TPDU_DT_EXT, STCLASS="BASED(TPDU$)");
      541     5033        %K$TPDU_DT_0 (NAME=B$TPDU_DT_0, STCLASS="BASED(TPDU$)");
      542     5078
      543     5079        %K$TPARM_CHKSUM (ALGN=CALIGNED);
      544     5119
      545     5120    1   DCL B$SPDU CHAR(MOVE_SZ) BASED CALIGNED;
      546     5121    1   DCL B$BIT32 BIT(32) BASED CALIGNED;
      547     5122    1   DCL B$CHAR4 CHAR(4) BASED CALIGNED;
      548     5123    1   DCL B$CHAR CHAR(MOVE_SZ) BASED CALIGNED;
      549     5124    1   DCL B$CHAR_ALGN CHAR(MOVE_SZ) BASED ALIGNED;
      550     5125
      551     5126        %K$TCTX (NAME=KN$TCTX, STCLASS="BASED(CTX$)");
      552     6033        %KN$LDCT (STCLASS=BASED);
      553     6278        %K$TPDU_DT (ALGN=CALIGNED, STCLASS="BASED(TPDU$)");
      554     6328        %K$TPDU_DT_EXT (ALGN=CALIGNED, STCLASS="BASED(TPDU$)");
      555     6392        %K$TPDU_DT_0 (ALGN=CALIGNED, STCLASS="BASED(TPDU$)");
      556     6437
      557     6438                                                /* External Data                      */
      558     6439    1   DCL 1 K_CKSUM_INIT CHAR(4) SYMREF;
      559     6440    1   DCL KNT_WAIT_HEAD$ PTR SYMREF;
      560     6441    1   DCL KNT_WAIT_COUNT UBIN SYMREF;
      561     6442
PL6.E3A0      #002=KNT$SAVE File=KNT$SEND.:E05TSI                                WED 07/30/97 01:12 Page:71
      562     6443                                                /* External routines                  */
      563     6444    1   DCL KNT$GET_SBUF ENTRY(3) ALTRET;
      564     6445    1   DCL KNT$RELBUF ENTRY(2);
      565     6446    1   DCL KNA$CALC_CHKSUM ENTRY(3) ALTRET;
      566     6447        %EJECT;
PL6.E3A0      #002=KNT$SAVE File=KNT$SEND.:E05TSI                                WED 07/30/97 01:12 Page:72
      567     6448        /*F* NAME: KNT$SAVE_DT and KNT$SAVE_ED
      568     6449
      569     6450        Called from KNT$SEND.
      570     6451        */
      571     6452    1   KNT$SAVE_CLASS2: ENTRY(KN$NETPARM) ALTRET;
      572     6453    1      ENTRY_SWITCH = 2;
      573     6454    1      GOTO CHECK_WINDOW;
      574     6455
      575     6456    1   KNT$SAVE_DT: ENTRY(KN$NETPARM) ALTRET;
      576     6457    1      ENTRY_SWITCH = %K_TPDU_TYPE_DT;
      577     6458
      578     6459    1   CHECK_WINDOW:
      579     6460    1      CTX$ = KN$NETPARM.TCTX$;
      580     6461
      581     6462    1      EXTRA = 0;
      582     6463
      583     6464    1      IF KN$TCTX.CLASS=2 AND KN$TCTX.OPTION.CLASS_2_FLOW='0'B
      584     6465    1      THEN GOTO COMMON;
      585     6466
      586     6467    1      IF ( KN$TCTX.SEND_LWE <= KN$TCTX.SEND_UWE )
      587     6468    2      THEN DO;
      588     6469    2           IF ( KN$TCTX.SEND_NEXT >= KN$TCTX.SEND_UWE ) OR
      589     6470    2             ( KN$TCTX.SEND_NEXT < KN$TCTX.SEND_LWE )
      590     6471    3           THEN DO;
      591     6472
      592     6473    3                EXTRA = KN$TCTX.SEND_NEXT - KN$TCTX.SEND_LWE;
      593     6474    3                IF EXTRA < 0
      594     6475    3                THEN EXTRA = EXTRA + KN$TCTX.MAXSEQ + 1;
      595     6476    3                END;
      596     6477    2           END;
      597     6478
      598     6479    2      ELSE DO/*when send_lwe >send_uwe*/;
      599     6480    2           IF ( KN$TCTX.SEND_NEXT >= KN$TCTX.SEND_UWE ) AND
      600     6481    2             ( KN$TCTX.SEND_NEXT < KN$TCTX.SEND_LWE )
      601     6482    3           THEN DO;
      602     6483    3                EXTRA = KN$TCTX.MAXSEQ - KN$TCTX.SEND_LWE + KN$TCTX.SEND_NEXT;
      603     6484    3                END;
PL6.E3A0      #002=KNT$SAVE File=KNT$SEND.:E05TSI                                WED 07/30/97 01:12 Page:73
      604     6485    2           END;
      605     6486
      606     6487    1      IF ( EXTRA = (4*KN$TCTX.RCV_WINDOW_SZ) )
      607     6488    2      THEN DO;
      608     6489    2           KN$NETPARM.ERRCODE = %K_ERROR_FLOW;
      609     6490    2           KN$TCTX.SERR.BUF_OVFLOW = KN$TCTX.SERR.BUF_OVFLOW +1;
      610     6491    2           END;
      611     6492
      612     6493    1      GOTO COMMON;
      613     6494
      614     6495    1   KNT$SAVE_ED: ENTRY(KN$NETPARM) ALTRET;
      615     6496    1      ENTRY_SWITCH = %K_TPDU_TYPE_ED;
      616     6497    1      GOTO COMMON;
      617     6498
      618     6499    1   KNT$SAVE_CLASS0: ENTRY(KN$NETPARM) ALTRET;
      619     6500    1      ENTRY_SWITCH = 0;
      620     6501    1      GOTO COMMON;
      621     6502
      622     6503
      623     6504    1   COMMON: ;
      624     6505    1      FIRST_FRAG$ = ADDR(NIL);
      625     6506    1      FRAGS# = 0;
      626     6507    1      CTX$ = KN$NETPARM.TCTX$;
      627     6508
      628     6509        /* Compute the size of the transport header and chksum param.
      629     6510        */
      630     6511    1      IF KN$TCTX.OPTION.EXTENDED ~= '0'B
      631     6512    1      THEN THDR_SZ = SIZEC(K$TPDU_DT_EXT);
      632     6513    1      ELSE IF ENTRY_SWITCH = 0
      633     6514    1           THEN THDR_SZ = SIZEC(K$TPDU_DT_0);
      634     6515    1           ELSE THDR_SZ = SIZEC(K$TPDU_DT);
      635     6516
      636     6517    1      IF KN$TCTX.OPTION.CHKSUM ~= '0'B
      637     6518    2      THEN DO;
      638     6519    2           CHKOFF = THDR_SZ + 3;
      639     6520    2           THDR_SZ = THDR_SZ + SIZEC(K$TPARM_CHKSUM);
      640     6521    2           END;
PL6.E3A0      #002=KNT$SAVE File=KNT$SEND.:E05TSI                                WED 07/30/97 01:12 Page:74
      641     6522
      642     6523    1      IF KN$TCTX.OPTION.OSI = '0'B
      643     6524    1      THEN THDR_SZ = ( (THDR_SZ +1) /2) * 2;
      644     6525
      645     6526    1      KN$NETPARM.THDRSZ = THDR_SZ;
      646     6527
      647     6528    1      IF ENTRY_SWITCH ~= %K_TPDU_TYPE_ED
      648     6529    1      THEN SEND_NEXT = KN$TCTX.SEND_NEXT;
      649     6530    1      ELSE SEND_NEXT = KN$TCTX.SEND_EXPD;
      650     6531
      651     6532    1      SPDU_SZ = 0;
      652     6533
      653     6534    1      IF KN$NETPARM.SHDR_C$ ~= ADDR(NIL)
      654     6535    1      THEN SPDU_SZ = SPDU_SZ + KN$NETPARM.SHDRSZ;
      655     6536
      656     6537    1      IF KN$NETPARM.UHDR_C$ ~= ADDR(NIL)
      657     6538    1      THEN SPDU_SZ = SPDU_SZ + KN$NETPARM.UHDRSZ;
      658     6539
      659     6540    1      IF KN$NETPARM.MSG$ ~= ADDR(NIL)
      660     6541    1      THEN SPDU_SZ = SPDU_SZ + KN$NETPARM.MSGSZ;
      661     6542
      662     6543        /* Determine if we should build a full fragment or just the TPDU header.
      663     6544        */
      664     6545    1      TPDU$ = KN$NETPARM.THDR$;
      665     6546
      666     6547    1      IF KN$TCTX.CLASS ~= 4
      667     6548    2      THEN DO;
      668     6549    2           BUFFER_TPDU = 0;
      669     6550    2           B$TPDU.LI = THDR_SZ -1;
      670     6551
      671     6552    2           IF THDR_SZ + SPDU_SZ <= KN$TCTX.TPDUSZ
      672     6553    2           THEN GOTO BUILD_TPDU_INFO;
      673     6554    2           END;
      674     6555
      675     6556    1      BUFFER_TPDU = 1;
      676     6557
      677     6558    2      DO WHILE (SPDU_SZ > 0 );
PL6.E3A0      #002=KNT$SAVE File=KNT$SEND.:E05TSI                                WED 07/30/97 01:12 Page:75
      678     6559
      679     6560        /* Compute the size of the transport info + size of the SPDU.
      680     6561        */
      681     6562    2           FRAG_SZ = THDR_SZ + SPDU_SZ;
      682     6563
      683     6564        /* See if we have to split it up into multiple TPDU's.
      684     6565        */
      685     6566    2           IF FRAG_SZ > KN$TCTX.TPDUSZ
      686     6567    3           THEN DO;
      687     6568    3                THIS_SPDUSZ = KN$TCTX.TPDUSZ - THDR_SZ;
      688     6569    3                FRAG_SZ = KN$TCTX.TPDUSZ;
      689     6570    3                SPDU_SZ = SPDU_SZ - THIS_SPDUSZ;
      690     6571    3                END;
      691     6572    3           ELSE DO;
      692     6573    3                THIS_SPDUSZ = SPDU_SZ;
      693     6574    3                SPDU_SZ = 0;
      694     6575    3                END;
      695     6576
      696     6577        /* Get a buffer for this part and initialize the fragment header.
      697     6578           If we run out of memory, undo all that we did here.
      698     6579        */
      699     6580    2           CALL KNT$GET_SBUF(FRAG_SZ,FRAG$,KN$TCTX)
      700     6581    3           WHENRETURN DO;
      701     6582    3                IF FIRST_FRAG$ = ADDR(NIL)
      702     6583    3                THEN FIRST_FRAG$ = FRAG$;
      703     6584    3                ELSE LAST_FRAG$->FRAG_HDR.LINK$ = FRAG$;
      704     6585    3                LAST_FRAG$ = FRAG$;
      705     6586    3                END;
      706     6587
      707     6588    3           WHENALTRETURN DO;
      708     6589    4                DO WHILE (FIRST_FRAG$ ~= ADDR(NIL));
      709     6590    4                     FRAG$ = FIRST_FRAG$;
      710     6591    4                     FIRST_FRAG$ = FRAG$->FRAG_HDR.LINK$;
      711     6592    4                     CALL KNT$RELBUF (FRAG$->FRAG_HDR, KN$TCTX);
      712     6593    4                     END/*do while*/;
      713     6594
      714     6595    3                IF KN$TCTX.PRIMARY
PL6.E3A0      #002=KNT$SAVE File=KNT$SEND.:E05TSI                                WED 07/30/97 01:12 Page:76
      715     6596    3                THEN LDCT$ = KN$NETPARM.LDCT$;
      716     6597    3                ELSE LDCT$ = KN$NETPARM.SLDCT$;
      717     6598
      718     6599    3                IF NOT LDCT$->KN$LDCT.FLAGS.QUEUED
      719     6600    4                THEN DO;
      720     6601    4                     LDCT$->KN$LDCT.FLAGS.QUEUED = '1'B;
      721     6602    4                     LDCT$->KN$LDCT.LNK$ = KNT_WAIT_HEAD$;
      722     6603    4                     KNT_WAIT_HEAD$ = LDCT$;
      723     6604    4                     KNT_WAIT_COUNT = KNT_WAIT_COUNT +1;
      724     6605    4                     END;
      725     6606
      726     6607    3                KN$NETPARM.ERRCODE = %KN_ERR_NOQ2;
      727     6608    3                ALTRETURN;
      728     6609    3                END;
      729     6610
      730     6611    2           FRAG_HDR.SEQ = SEND_NEXT;
      731     6612
      732     6613        /* Build the common information in the TPDU header.
      733     6614        */
      734     6615    2           TPDU$ = PINCRW(FRAG$,SIZEW(FRAG_HDR) );
      735     6616    2           B$TPDU.LI = FRAG_SZ - THIS_SPDUSZ - 1;
      736     6617
      737     6618    2   BUILD_TPDU_INFO:
      738     6619    2           IF ENTRY_SWITCH = %K_TPDU_TYPE_ED
      739     6620    2           THEN B$TPDU.TYPE = %K_TPDU_TYPE_ED;
      740     6621    2           ELSE B$TPDU.TYPE = %K_TPDU_TYPE_DT;
      741     6622
      742     6623    2           B$TPDU.CDT = 0;
      743     6624
      744     6625    2           IF ENTRY_SWITCH ~= 0
      745     6626    2           THEN B$TPDU.DST_REF = KN$TCTX.DST_REF;
      746     6627
      747     6628    2           IF KN$TCTX.OPTION.EXTENDED = '1'B
      748     6629    2           THEN B$TPDU_DT_EXT.TPDU_NR = SEND_NEXT;
      749     6630    2           ELSE IF ENTRY_SWITCH ~= 0
      750     6631    2                THEN B$TPDU_DT.TPDU_NR = SEND_NEXT;
      751     6632    2                ELSE B$TPDU_DT_0.TPDU_NR = 0;
PL6.E3A0      #002=KNT$SAVE File=KNT$SEND.:E05TSI                                WED 07/30/97 01:12 Page:77
      752     6633
      753     6634    2           SEND_NEXT = SEND_NEXT + 1;
      754     6635    2           IF SEND_NEXT > KN$TCTX.MAXSEQ
      755     6636    2           THEN SEND_NEXT = 0;
      756     6637
      757     6638    2           IF SPDU_SZ=0 OR BUFFER_TPDU=0
      758     6639    3           THEN DO;
      759     6640    3                IF ENTRY_SWITCH ~= 0
      760     6641    3                THEN B$TPDU_DT.EOT = '1'B;
      761     6642    3                ELSE B$TPDU_DT_0.EOT = '1'B;
      762     6643    3                END;
      763     6644    3           ELSE DO;
      764     6645    3                IF ENTRY_SWITCH ~= 0
      765     6646    3                THEN B$TPDU_DT.EOT = '0'B;
      766     6647    3                ELSE B$TPDU_DT_0.EOT = '0'B;
      767     6648    3                END;
      768     6649
      769     6650    2           IF BUFFER_TPDU = 0
      770     6651    2           THEN GOTO EXIT_SAVE;
      771     6652
      772     6653    2           SPDU$ = PINCRC(TPDU$,FRAG_SZ - THIS_SPDUSZ );
      773     6654        /* Move the SPDU into the buffer.
      774     6655        */
      775     6656    3           DO WHILE (THIS_SPDUSZ > 0);
      776     6657
      777     6658    3                IF KN$NETPARM.SHDR$ ~= ADDR(NIL)
      778     6659    4                THEN DO;
      779     6660    4                     MOVE$ = KN$NETPARM.SHDR_C$;
      780     6661    4                     IF THIS_SPDUSZ >= KN$NETPARM.SHDRSZ
      781     6662    5                     THEN DO;
      782     6663    5                          MOVE_SZ = KN$NETPARM.SHDRSZ;
      783     6664    5                          THIS_SPDUSZ = THIS_SPDUSZ - KN$NETPARM.SHDRSZ;
      784     6665    5                          KN$NETPARM.SHDR$ = ADDR(NIL);
      785     6666    5                          KN$NETPARM.SHDRSZ = 0;
      786     6667    5                          END;
      787     6668    5                     ELSE DO;
      788     6669    5                          MOVE_SZ = THIS_SPDUSZ;
PL6.E3A0      #002=KNT$SAVE File=KNT$SEND.:E05TSI                                WED 07/30/97 01:12 Page:78
      789     6670    5                          KN$NETPARM.SHDR_C$ = PINCRC(KN$NETPARM.SHDR_C$, THIS_SPDUSZ);
      790     6671    5                          KN$NETPARM.SHDRSZ = KN$NETPARM.SHDRSZ - THIS_SPDUSZ;
      791     6672    5                          THIS_SPDUSZ = 0; /* for do while*/
      792     6673    5                          END;
      793     6674    4                     GOTO MOVE_IT;
      794     6675    4                     END/*do if shrd$ ~ nil*/;
      795     6676
      796     6677    3                IF KN$NETPARM.UHDR$ ~= ADDR(NIL)
      797     6678    4                THEN DO;
      798     6679    4                     MOVE$ = KN$NETPARM.UHDR$;
      799     6680    4                     IF THIS_SPDUSZ >= KN$NETPARM.UHDRSZ
      800     6681    5                     THEN DO;
      801     6682    5                          MOVE_SZ = KN$NETPARM.UHDRSZ;
      802     6683    5                          THIS_SPDUSZ = THIS_SPDUSZ - KN$NETPARM.UHDRSZ;
      803     6684    5                          KN$NETPARM.UHDR$ = ADDR(NIL);
      804     6685    5                          KN$NETPARM.UHDRSZ = 0;
      805     6686    5                          END;
      806     6687    5                     ELSE DO;
      807     6688    5                          MOVE_SZ = THIS_SPDUSZ;
      808     6689    5                          KN$NETPARM.UHDR_C$ = PINCRC(KN$NETPARM.UHDR_C$, THIS_SPDUSZ);
      809     6690    5                          KN$NETPARM.UHDRSZ = KN$NETPARM.UHDRSZ - THIS_SPDUSZ;
      810     6691    5                          THIS_SPDUSZ = 0; /* for do while*/
      811     6692    5                          END;
      812     6693    4                     GOTO MOVE_IT;
      813     6694    4                     END/*do if uhrd$ ~ nil*/;
      814     6695
      815     6696    3                IF KN$NETPARM.MSG$ ~= ADDR(NIL)
      816     6697    4                THEN DO;
      817     6698    4                     MOVE$ = KN$NETPARM.MSG$;
      818     6699    4                     IF THIS_SPDUSZ >= KN$NETPARM.MSGSZ
      819     6700    5                     THEN DO;
      820     6701    5                          MOVE_SZ = KN$NETPARM.MSGSZ;
      821     6702    5                          THIS_SPDUSZ = THIS_SPDUSZ - KN$NETPARM.MSGSZ;
      822     6703    5                          KN$NETPARM.MSG$ = ADDR(NIL);
      823     6704    5                          KN$NETPARM.MSGSZ = 0;
      824     6705    5                          END;
      825     6706    5                     ELSE DO;
PL6.E3A0      #002=KNT$SAVE File=KNT$SEND.:E05TSI                                WED 07/30/97 01:12 Page:79
      826     6707    5                          MOVE_SZ = THIS_SPDUSZ;
      827     6708    5                          KN$NETPARM.MSG$ = PINCRC(KN$NETPARM.MSG$, THIS_SPDUSZ);
      828     6709    5                          KN$NETPARM.MSGSZ = KN$NETPARM.MSGSZ - THIS_SPDUSZ;
      829     6710    5                          THIS_SPDUSZ = 0; /* for do while*/
      830     6711    5                          END;
      831     6712    4                     GOTO MOVE_IT;
      832     6713    4                     END/*do if msg$ ~ nil*/;
      833     6714
      834     6715    3   MOVE_IT:     ;
      835     6716    3                SPDU$->B$SPDU = MOVE$->B$SPDU;
      836     6717    3                SPDU$ = PINCRC(SPDU$,MOVE_SZ);
      837     6718    3                MOVE$ = PINCRC(MOVE$,MOVE_SZ);
      838     6719
      839     6720    3                END/*do while this_tpdusz > 0*/;
      840     6721
      841     6722        /* And calculate the checksum if appropriate.
      842     6723        */
      843     6724    2           IF KN$TCTX.OPTION.CHKSUM ~= '0'B
      844     6725    3           THEN DO;
      845     6726    3                SPDU$ = PINCRC(TPDU$,CHKOFF-3);
      846     6727    3                SPDU$->B$CHAR4 = ADDR(K_CKSUM_INIT)->B$CHAR4;
      847     6728    3                CALL KNA$CALC_CHKSUM(TPDU$,FRAG_SZ,CHKOFF);
      848     6729    3                END;
      849     6730
      850     6731    2           FRAGS# = FRAGS# +1;
      851     6732    2           END/*do while spdu_size> 0*/;
      852     6733
      853     6734        /* Completed busting it apart safely, so go ahead and update the
      854     6735           Transport Context Block to reflect the new fragments to send.
      855     6736        */
      856     6737    1      IF ENTRY_SWITCH ~= %K_TPDU_TYPE_ED
      857     6738    2      THEN DO;
      858     6739    2           IF KN$TCTX.SEND_HEAD$ = ADDR(NIL)
      859     6740    2           THEN KN$TCTX.SEND_HEAD$ = FIRST_FRAG$;
      860     6741    2           ELSE KN$TCTX.SEND_TAIL$->FRAG_HDR.LINK$ = FIRST_FRAG$;
      861     6742
      862     6743    2           KN$TCTX.SEND_TAIL$ = LAST_FRAG$;
PL6.E3A0      #002=KNT$SAVE File=KNT$SEND.:E05TSI                                WED 07/30/97 01:12 Page:80
      863     6744
      864     6745    2           IF KN$TCTX.SEND_NOTSENT$ = ADDR(NIL)
      865     6746    2           THEN KN$TCTX.SEND_NOTSENT$ = FIRST_FRAG$;
      866     6747    2           END/*do if normal data*/;
      867     6748
      868     6749    2      ELSE DO;
      869     6750    2           IF KN$TCTX.SEND_EHEAD$ = ADDR(NIL)
      870     6751    2           THEN KN$TCTX.SEND_EHEAD$ = FIRST_FRAG$;
      871     6752    2           ELSE KN$TCTX.SEND_ETAIL$->FRAG_HDR.LINK$ = FIRST_FRAG$;
      872     6753
      873     6754    2           KN$TCTX.SEND_ETAIL$ = LAST_FRAG$;
      874     6755
      875     6756    2           IF KN$TCTX.SEND_ENOTSENT$ = ADDR(NIL)
      876     6757    2           THEN KN$TCTX.SEND_ENOTSENT$ = FIRST_FRAG$;
      877     6758    2           END/*do if expidated data*/;
      878     6759
      879     6760    1   EXIT_SAVE:
      880     6761    1      IF ENTRY_SWITCH ~= %K_TPDU_TYPE_ED
      881     6762    1      THEN KN$TCTX.SEND_NEXT = SEND_NEXT;
      882     6763    1      ELSE KN$TCTX.SEND_EXPD = SEND_NEXT;
      883     6764
      884     6765    1      IF FRAGS# > 1
      885     6766    2      THEN DO;
      886     6767    2           KN$TCTX.SGMENT_TSDUS = KN$TCTX.SGMENT_TSDUS +1;
      887     6768    2           KN$TCTX.SGMENT_FRAGS = KN$TCTX.SGMENT_FRAGS + FRAGS#;
      888     6769    2           END;
      889     6770    1      IF KN$NETPARM.ERRCODE = 0
      890     6771    1      THEN RETURN;
      891     6772    1      ELSE ALTRETURN;
      892     6773
      893     6774    1   END KNT$SAVE;
      894     6775        %EOD;

PL6.E3A0      #002=KNT$SAVE File=KNT$SEND.:E05TSI                                WED 07/30/97 01:12 Page:81
--  Include file information  --

   GH_SCHD_M.:E05TOU  is referenced.
   K_TRANSPORT_M.:E05TOU  is referenced.
   K_TRANSPORT_E.:E05TOU  is referenced.
   KN_DATA_M.:E05TOU  is referenced.
   K_ADDRESS_M.:E05TOU  is referenced.
   G_LCP6_E.:E05TOU  was found in the system file and is never referenced.
   GT_LCP6_M.:E05TOU  was found in the system file and is never referenced.
   KI_CP6.:E05TOU  was found in the system file and is never referenced.
   GF_LCP6_M.:E05TOU  was found in the system file and is never referenced.
   GM_LCP6_M.:E05TOU  was found in the system file and is never referenced.
   GU_LCP6_M.:E05TOU  was found in the system file and is never referenced.
   GJ_LCP6_M.:E05TOU  was found in the system file and is never referenced.
   GH_LCP6_M.:E05TOU  was found in the system file and is never referenced.
      No diagnostics issued in procedure KNT$SAVE.

   Procedure KNT$SAVE requires 1005 words for executable code.
   Procedure KNT$SAVE requires 40 words of local(AUTO) storage.

PL6.E3A0      #002=KNT$SAVE File=KNT$SEND.:E05TSI                                WED 07/30/97 01:12 Page:82

 Object Unit name= KNT$SAVE                                   File name= KNT$SEND.:E05TOU
 UTS= JUL 30 '97 01:12:08.04 WED                              Compiler= PL-6/E31         Sev=      00
 SharedLib= :SHARED_LCP6_SYSTEM                               Alt SharedLib=


    ****  Control sections  ****

 Sect   Type Bound  Init  Size HexSiz  Section name
    0   Proc  even  none  1005    3ED  KNT$SAVE

    ****  Entry defs  ****

                              Check   Calling
                             calling  sequence
  Sect HexLoc Primary Altret sequence   type   Parms  Name
     0      0   yes    yes     yes      Std        1  KNT$SAVE
     0      7          yes     yes      Std        1  KNT$SAVE_CLASS2
     0     11          yes     yes      Std        1  KNT$SAVE_DT
     0     81          yes     yes      Std        1  KNT$SAVE_ED
     0     8B          yes     yes      Std        1  KNT$SAVE_CLASS0

  ****  Entry refs  ****

         Check        Calling
        calling       sequence
Altret sequence SRef   type   Args  Name
 yes     yes           Std       3 KNT$GET_SBUF
         yes           Std       2 KNT$RELBUF
 yes     yes           Std       3 KNA$CALC_CHKSUM
                       nStd      0 X6A_AUTO_1
                       nStd      0 X6A_AALT
                       nStd      0 X6B_BLR
                       nStd      0 X6A_ARET
PL6.E3A0      #002=KNT$SAVE File=KNT$SEND.:E05TSI                                WED 07/30/97 01:12 Page:83

  ****  Data refs  ****

  Flags:  r = read only, s = secondary
Flgs Name                             Flgs Name                             Flgs Name
     K_CKSUM_INIT                          KNT_WAIT_HEAD$                        KNT_WAIT_COUNT
r    G$ROS$
PL6.E3A0      #002=KNT$SAVE File=KNT$SEND.:E05TSI                                WED 07/30/97 01:12 Page:84


      451        1        /*M* KNT$SAVE - Save data and expdiated data for retransmission. */
      452        2        /*T***********************************************************/
      453        3        /*T*                                                         */
      454        4        /*T* Copyright (c) Bull HN Information Systems Inc., 1997    */
      455        5        /*T*                                                         */
      456        6        /*T***********************************************************/
      457        7        /*X* PLM=3,IND=5,ENU=0,ECU=0 */
      458        8
      459        9        /*F* NAME: KNT$SAVE
      460       10
      461       11             ENTRY: KNT$SAVE_DT
      462       12             ENTRY: KNT$SAVE_ED
      463       13             ENTRY: KNT$SAVE_CLASS2
      464       14             ENTRY: KNT$SAVE_CLASS0
      465       15
      466       16             INPUT: KN$NETPARM.TCTX$ -> the TCTX for the transport connection
      467       17                                        that is sending data.
      468       18                    KN$NETPARM.THDR$ -> auto storage where the TPDU header
      469       19                                        may be built.
      470       20
      471       21             PURPOSE:
      472       22                 To save the data TPDUs for possible retransmission and/or
      473       23                 break a large SPDU into smaller TPDUs for transmission.
      474       24
      475       25             DESCRIPTION:
      476       26                 The entry points KNT$SAVE_CLASS2 and KNT$SAVE_CLASS0
      477       27                 provide for simply building the TPDU data header if there is
      478       28                 no need to buffer; if the SPDU plus TPDU header fit within
      479       29                 the maximum TPDU size, and, if Class 2 with the flow control
      480       30                 option, there are sufficient credits to send the data.
      481       31                 When buffering is necessary, the TPDU header is built in
      482       32                 the buffer itself, rather than in the auto storage area located
      483       33                 via KN$NETPARM.THDR$.
      484       34
      485       35                 Class 4 data is always buffered for possible later retransmission.
      486       36
PL6.E3A0      #002=KNT$SAVE File=KNT$SEND.:E05TSI                                WED 07/30/97 01:12 Page:85
      487       37                 The buffer is obtained and filled for data or expedited data.
      488       38                 If the data to be saved is larger than the maximum TPDU size,
      489       39                 the data is saved in a series of linked buffers.
      490       40
      491       41                 The alternate return is taken with kn$netparm.errcode set
      492       42                 to KN_ERR_NOQ2 if we run out of transport buffers.
      493       43
      494       44                 The alternate return is taken with kn$netparm.errcode set
      495       45                 to ERROR_FLOW if we have buffered more than the limit as
      496       46                 specified in (KN$TCTX.RCV_WINDOW_SZ *4).  If this is a primary connection
      497       47                 the data will not have been buffered; if an intermediate
      498       48                 connection the host data will have been buffered.
      499       49        */
      500       50        KNT$SAVE: PROC(KN$NETPARM)  ALTRET;

     50   0 000000  D380 0000 0000  xent KNT$SAVE        LNJ,B5   X6A_AUTO_1
          0 000003       0028 0001                       DC       40,1
          0 000005  0F81 0006                            B        s:6453,PREL

      501       51
      502       52        %INCLUDE K_ADDRESS_M;
      503      555        %INCLUDE KN_DATA_M;
      504     2341        %INCLUDE K_TRANSPORT_E;
      505     2666        %INCLUDE K_TRANSPORT_M;
      506     4450        %INCLUDE GH_SCHD_M;
      507     4594
      508     4595                                                /* Input parameters                   */
      509     4596        %KN$NETPARM;
      510     4749
      511     4750                                                /* Auto Storage                       */
      512     4751    1   DCL CTX$ PTR;
      513     4752    1   DCL MOVE$ CPTR;
      514     4753    1   DCL LDCT$ REDEF MOVE$ PTR;
      515     4754    1   DCL TPDU$ CPTR;
      516     4755    1   DCL SPDU$ CPTR;
      517     4756    1   DCL FRAG$ PTR;
      518     4757    1   DCL FIRST_FRAG$ PTR;
PL6.E3A0      #002=KNT$SAVE File=KNT$SEND.:E05TSI                                WED 07/30/97 01:12 Page:86
      519     4758    1   DCL LAST_FRAG$ PTR;
      520     4759    1   DCL FRAG_SZ SBIN;
      521     4760    1   DCL THDR_SZ SBIN;
      522     4761    1   DCL THIS_SPDUSZ SBIN;
      523     4762    1   DCL SPDU_SZ SBIN;
      524     4763    1   DCL MOVE_SZ SBIN;
      525     4764    1   DCL SEND_NEXT UBIN(32);
      526     4765    1   DCL CHKOFF SBIN;
      527     4766    1   DCL EXTRA SBIN(32);
      528     4767    1   DCL FRAGS# UBIN;
      529     4768    1   DCL BUFFER_TPDU UBIN;
      530     4769    1   DCL ENTRY_SWITCH SBIN;                  /* 0 = normal data - class 0          */
      531     4770                                                /* 1 = exped. data - classes 2 and 4  */
      532     4771                                                /* 2 = normal data - class 2          */
      533     4772                                                /* 15 = normal data - class 4         */
      534     4773
      535     4774                                                /* Based Data                         */
      536     4775        %K$FRAG_HDR (NAME=FRAG_HDR,STCLASS="BASED(FRAG$)");
      537     4858
      538     4859        %K$TPDU_GENERIC (NAME=B$TPDU, STCLASS="BASED(TPDU$)");
      539     4919        %K$TPDU_DT (NAME=B$TPDU_DT, STCLASS="BASED(TPDU$)");
      540     4969        %K$TPDU_DT_EXT (NAME=B$TPDU_DT_EXT, STCLASS="BASED(TPDU$)");
      541     5033        %K$TPDU_DT_0 (NAME=B$TPDU_DT_0, STCLASS="BASED(TPDU$)");
      542     5078
      543     5079        %K$TPARM_CHKSUM (ALGN=CALIGNED);
      544     5119
      545     5120    1   DCL B$SPDU CHAR(MOVE_SZ) BASED CALIGNED;
      546     5121    1   DCL B$BIT32 BIT(32) BASED CALIGNED;
      547     5122    1   DCL B$CHAR4 CHAR(4) BASED CALIGNED;
      548     5123    1   DCL B$CHAR CHAR(MOVE_SZ) BASED CALIGNED;
      549     5124    1   DCL B$CHAR_ALGN CHAR(MOVE_SZ) BASED ALIGNED;
      550     5125
      551     5126        %K$TCTX (NAME=KN$TCTX, STCLASS="BASED(CTX$)");
      552     6033        %KN$LDCT (STCLASS=BASED);
      553     6278        %K$TPDU_DT (ALGN=CALIGNED, STCLASS="BASED(TPDU$)");
      554     6328        %K$TPDU_DT_EXT (ALGN=CALIGNED, STCLASS="BASED(TPDU$)");
      555     6392        %K$TPDU_DT_0 (ALGN=CALIGNED, STCLASS="BASED(TPDU$)");
PL6.E3A0      #002=KNT$SAVE File=KNT$SEND.:E05TSI                                WED 07/30/97 01:12 Page:87
      556     6437
      557     6438                                                /* External Data                      */
      558     6439    1   DCL 1 K_CKSUM_INIT CHAR(4) SYMREF;
      559     6440    1   DCL KNT_WAIT_HEAD$ PTR SYMREF;
      560     6441    1   DCL KNT_WAIT_COUNT UBIN SYMREF;
      561     6442
      562     6443                                                /* External routines                  */
      563     6444    1   DCL KNT$GET_SBUF ENTRY(3) ALTRET;
      564     6445    1   DCL KNT$RELBUF ENTRY(2);
      565     6446    1   DCL KNA$CALC_CHKSUM ENTRY(3) ALTRET;
      566     6447        %EJECT;
PL6.E3A0      #002=KNT$SAVE File=KNT$SEND.:E05TSI                                WED 07/30/97 01:12 Page:88
      567     6448        /*F* NAME: KNT$SAVE_DT and KNT$SAVE_ED
      568     6449
      569     6450        Called from KNT$SEND.
      570     6451        */
      571     6452    1   KNT$SAVE_CLASS2: ENTRY(KN$NETPARM) ALTRET;

   6452   0 000007  D380 0000 0000  xent KNT$SAVE_CLASS2 LNJ,B5   X6A_AUTO_1
          0 00000A       0028 0001                       DC       40,1

      572     6453    1      ENTRY_SWITCH = 2;

   6453   0 00000C  6C02                                 LDV,R6   2
          0 00000D  EF47 0020                            STR,R6   ENTRY_SWITCH,AUTO

      573     6454    1      GOTO CHECK_WINDOW;

   6454   0 00000F  0F81 0009                            B        s:6460,PREL

      574     6455
      575     6456    1   KNT$SAVE_DT: ENTRY(KN$NETPARM) ALTRET;

   6456   0 000011  D380 0000 0000  xent KNT$SAVE_DT     LNJ,B5   X6A_AUTO_1
          0 000014       0028 0001                       DC       40,1

      576     6457    1      ENTRY_SWITCH = %K_TPDU_TYPE_DT;

   6457   0 000016  6C0F                                 LDV,R6   15
          0 000017  EF47 0020                            STR,R6   ENTRY_SWITCH,AUTO

      577     6458
      578     6459    1   CHECK_WINDOW:
      579     6460    1      CTX$ = KN$NETPARM.TCTX$;

   6460   0 000019  ECC7 0004            CHECK_WINDOW    LDB,B6   @KN$NETPARM,AUTO
          0 00001B  DCC6 001B                            LDB,B5   27,B6
          0 00001D  DFC7 0006                            STB,B5   CTX$,AUTO

PL6.E3A0      #002=KNT$SAVE File=KNT$SEND.:E05TSI                                WED 07/30/97 01:12 Page:89
      580     6461
      581     6462    1      EXTRA = 0;

   6462   0 00001F  8747 001C                            CL       EXTRA,AUTO
          0 000021  8747 001D                            CL       EXTRA+1,AUTO

      582     6463
      583     6464    1      IF KN$TCTX.CLASS=2 AND KN$TCTX.OPTION.CLASS_2_FLOW='0'B

   6464   0 000023  D2C5 0005                            LLH,R5   5,B5
          0 000025  5D02                                 CMV,R5   2
          0 000026  0981 0006                            BNE      s:6467,PREL
          0 000028  82C5 000C                            LB,'0008'X        12,B5
          0 00002A       0008
          0 00002B  0581 0068                            BBF      s:6500,PREL

      584     6465    1      THEN GOTO COMMON;
      585     6466
      586     6467    1      IF ( KN$TCTX.SEND_LWE <= KN$TCTX.SEND_UWE )

   6467   0 00002D  8CC5 0032                            LDI      50,B5
          0 00002F  84C5 0034                            SID      52,B5
          0 000031  6981 0003                            BNEZ,R6  s:6467+8,PREL
          0 000033  7901 0003                            BEZ,R7   s:6469,PREL
          0 000035  0601 0023                            BCT      s:6480,PREL

      587     6468    2      THEN DO;

      588     6469    2           IF ( KN$TCTX.SEND_NEXT >= KN$TCTX.SEND_UWE ) OR

   6469   0 000037  8CC5 0036                            LDI      54,B5
          0 000039  84C5 0034                            SID      52,B5
          0 00003B  0601 0007                            BCT      s:6473,PREL
          0 00003D  8CC5 0036                            LDI      54,B5
          0 00003F  84C5 0032                            SID      50,B5
          0 000041  0601 002B                            BCT      s:6487,PREL

PL6.E3A0      #002=KNT$SAVE File=KNT$SEND.:E05TSI                                WED 07/30/97 01:12 Page:90
      589     6470    2             ( KN$TCTX.SEND_NEXT < KN$TCTX.SEND_LWE )
      590     6471    3           THEN DO;

      591     6472
      592     6473    3                EXTRA = KN$TCTX.SEND_NEXT - KN$TCTX.SEND_LWE;

   6473   0 000043  8CC5 0036                            LDI      54,B5
          0 000045  84C5 0032                            SID      50,B5
          0 000047  8D47 001C                            SDI      EXTRA,AUTO

      593     6474    3                IF EXTRA < 0

   6474   0 000049  84F0 0000 0000                       SID      0,IMO
          0 00004C  6881 0020                            BGEZ,R6  s:6487,PREL

      594     6475    3                THEN EXTRA = EXTRA + KN$TCTX.MAXSEQ + 1;

   6475   0 00004E  8CC7 001C                            LDI      EXTRA,AUTO
          0 000050  8445 000A                            AID      10,B5
          0 000052  8470 0000 0001                       AID      1,IMO
          0 000055  8D47 001C                            SDI      EXTRA,AUTO

      595     6476    3                END;

      596     6477    2           END;

   6477   0 000057  0F81 0015                            B        s:6487,PREL

      597     6478
      598     6479    2      ELSE DO/*when send_lwe >send_uwe*/;

      599     6480    2           IF ( KN$TCTX.SEND_NEXT >= KN$TCTX.SEND_UWE ) AND

   6480   0 000059  8CC5 0036                            LDI      54,B5
          0 00005B  84C5 0034                            SID      52,B5
          0 00005D  0681 000F                            BCF      s:6487,PREL
          0 00005F  8CC5 0036                            LDI      54,B5
PL6.E3A0      #002=KNT$SAVE File=KNT$SEND.:E05TSI                                WED 07/30/97 01:12 Page:91
          0 000061  84C5 0032                            SID      50,B5
          0 000063  0601 0009                            BCT      s:6487,PREL

      600     6481    2             ( KN$TCTX.SEND_NEXT < KN$TCTX.SEND_LWE )
      601     6482    3           THEN DO;

      602     6483    3                EXTRA = KN$TCTX.MAXSEQ - KN$TCTX.SEND_LWE + KN$TCTX.SEND_NEXT;

   6483   0 000065  8CC5 000A                            LDI      10,B5
          0 000067  84C5 0032                            SID      50,B5
          0 000069  8445 0036                            AID      54,B5
          0 00006B  8D47 001C                            SDI      EXTRA,AUTO

      603     6484    3                END;

      604     6485    2           END;

      605     6486
      606     6487    1      IF ( EXTRA = (4*KN$TCTX.RCV_WINDOW_SZ) )

   6487   0 00006D  F845 0005                            LDR,R7   5,B5
          0 00006F  F570 00FF                            AND,R7   255,IMO
          0 000071  6C00                                 LDV,R6   0
          0 000072  7082                                 DOL,R7   2
          0 000073  84C7 001C                            SID      EXTRA,AUTO
          0 000075  6981 0009                            BNEZ,R6  s:6493,PREL
          0 000077  7981 0007                            BNEZ,R7  s:6493,PREL

      607     6488    2      THEN DO;

      608     6489    2           KN$NETPARM.ERRCODE = %K_ERROR_FLOW;

   6489   0 000079  E870 00F3                            LDR,R6   243,IMO
          0 00007B  EF46 0016                            STR,R6   22,B6

      609     6490    2           KN$TCTX.SERR.BUF_OVFLOW = KN$TCTX.SERR.BUF_OVFLOW +1;

PL6.E3A0      #002=KNT$SAVE File=KNT$SEND.:E05TSI                                WED 07/30/97 01:12 Page:92
   6490   0 00007D  8AC5 0011                            INC      17,B5

      610     6491    2           END;

      611     6492
      612     6493    1      GOTO COMMON;

   6493   0 00007F  0F81 0014                            B        s:6500,PREL

      613     6494
      614     6495    1   KNT$SAVE_ED: ENTRY(KN$NETPARM) ALTRET;

   6495   0 000081  D380 0000 0000  xent KNT$SAVE_ED     LNJ,B5   X6A_AUTO_1
          0 000084       0028 0001                       DC       40,1

      615     6496    1      ENTRY_SWITCH = %K_TPDU_TYPE_ED;

   6496   0 000086  6C01                                 LDV,R6   1
          0 000087  EF47 0020                            STR,R6   ENTRY_SWITCH,AUTO

      616     6497    1      GOTO COMMON;

   6497   0 000089  0F81 000A                            B        s:6500,PREL

      617     6498
      618     6499    1   KNT$SAVE_CLASS0: ENTRY(KN$NETPARM) ALTRET;

   6499   0 00008B  D380 0000 0000  xent KNT$SAVE_CLASS0 LNJ,B5   X6A_AUTO_1
          0 00008E       0028 0001                       DC       40,1

      619     6500    1      ENTRY_SWITCH = 0;

   6500   0 000090  8747 0020                            CL       ENTRY_SWITCH,AUTO

      620     6501    1      GOTO COMMON;

   6501   0 000092  0F81 0001                            B        s:6500,PREL
PL6.E3A0      #002=KNT$SAVE File=KNT$SEND.:E05TSI                                WED 07/30/97 01:12 Page:93

   6500   0                              COMMON          null
      621     6502
      622     6503
      623     6504    1   COMMON: ;
      624     6505    1      FIRST_FRAG$ = ADDR(NIL);

   6505   0 000094  EB80 0000 0000       COMMON          LAB,B6   0
          0 000097  EFC7 0010                            STB,B6   FIRST_FRAG$,AUTO

      625     6506    1      FRAGS# = 0;

   6506   0 000099  8747 001E                            CL       FRAGS#,AUTO

      626     6507    1      CTX$ = KN$NETPARM.TCTX$;

   6507   0 00009B  DCC7 0004                            LDB,B5   @KN$NETPARM,AUTO
          0 00009D  CCC5 001B                            LDB,B4   27,B5
          0 00009F  CFC7 0006                            STB,B4   CTX$,AUTO

      627     6508
      628     6509        /* Compute the size of the transport header and chksum param.
      629     6510        */
      630     6511    1      IF KN$TCTX.OPTION.EXTENDED ~= '0'B

   6511   0 0000A1  82C4 000C                            LB,'0004'X        12,B4
   6511   0 0000A3       0004
          0 0000A4  0581 0006                            BBF      s:6513,PREL

      631     6512    1      THEN THDR_SZ = SIZEC(K$TPDU_DT_EXT);

   6512   0 0000A6  6C08                                 LDV,R6   8
          0 0000A7  EF47 0015                            STR,R6   THDR_SZ,AUTO
          0 0000A9  0F81 000D                            B        s:6517,PREL

      632     6513    1      ELSE IF ENTRY_SWITCH = 0

PL6.E3A0      #002=KNT$SAVE File=KNT$SEND.:E05TSI                                WED 07/30/97 01:12 Page:94
   6513   0 0000AB  E847 0020                            LDR,R6   ENTRY_SWITCH,AUTO
          0 0000AD  6981 0006                            BNEZ,R6  s:6515,PREL

      633     6514    1           THEN THDR_SZ = SIZEC(K$TPDU_DT_0);

   6514   0 0000AF  5C03                                 LDV,R5   3
          0 0000B0  DF47 0015                            STR,R5   THDR_SZ,AUTO
          0 0000B2  0F81 0004                            B        s:6517,PREL

      634     6515    1           ELSE THDR_SZ = SIZEC(K$TPDU_DT);

   6515   0 0000B4  5C05                                 LDV,R5   5
          0 0000B5  DF47 0015                            STR,R5   THDR_SZ,AUTO

      635     6516
      636     6517    1      IF KN$TCTX.OPTION.CHKSUM ~= '0'B

   6517   0 0000B7  82C4 000C                            LB,'0001'X        12,B4
   6517   0 0000B9       0001
          0 0000BA  0581 000B                            BBF      s:6523,PREL

      637     6518    2      THEN DO;

      638     6519    2           CHKOFF = THDR_SZ + 3;

   6519   0 0000BC  E847 0015                            LDR,R6   THDR_SZ,AUTO
          0 0000BE  6E03                                 ADV,R6   3
          0 0000BF  EF47 001B                            STR,R6   CHKOFF,AUTO

      639     6520    2           THDR_SZ = THDR_SZ + SIZEC(K$TPARM_CHKSUM);

   6520   0 0000C1  D847 0015                            LDR,R5   THDR_SZ,AUTO
          0 0000C3  5E04                                 ADV,R5   4
          0 0000C4  DF47 0015                            STR,R5   THDR_SZ,AUTO

      640     6521    2           END;

PL6.E3A0      #002=KNT$SAVE File=KNT$SEND.:E05TSI                                WED 07/30/97 01:12 Page:95
      641     6522
      642     6523    1      IF KN$TCTX.OPTION.OSI = '0'B

   6523   0 0000C6  82C4 000C                            LB,'0010'X        12,B4
   6523   0 0000C8       0010
          0 0000C9  0501 0009                            BBT      s:6526,PREL

      643     6524    1      THEN THDR_SZ = ( (THDR_SZ +1) /2) * 2;

   6524   0 0000CB  E847 0015                            LDR,R6   THDR_SZ,AUTO
          0 0000CD  6E01                                 ADV,R6   1
          0 0000CE  E370 0002                            DIV,R6   2,IMO
          0 0000D0  6001                                 SOL,R6   1
          0 0000D1  EF47 0015                            STR,R6   THDR_SZ,AUTO

      644     6525
      645     6526    1      KN$NETPARM.THDRSZ = THDR_SZ;

   6526   0 0000D3  E847 0015                            LDR,R6   THDR_SZ,AUTO
          0 0000D5  EF45 000D                            STR,R6   13,B5

      646     6527
      647     6528    1      IF ENTRY_SWITCH ~= %K_TPDU_TYPE_ED

   6528   0 0000D7  D847 0020                            LDR,R5   ENTRY_SWITCH,AUTO
          0 0000D9  5D01                                 CMV,R5   1
          0 0000DA  0901 0007                            BE       s:6530,PREL

      648     6529    1      THEN SEND_NEXT = KN$TCTX.SEND_NEXT;

   6529   0 0000DC  8CC4 0036                            LDI      54,B4
          0 0000DE  8D47 0019                            SDI      SEND_NEXT,AUTO
          0 0000E0  0F81 0005                            B        s:6532,PREL

      649     6530    1      ELSE SEND_NEXT = KN$TCTX.SEND_EXPD;

   6530   0 0000E2  8CC4 0038                            LDI      56,B4
PL6.E3A0      #002=KNT$SAVE File=KNT$SEND.:E05TSI                                WED 07/30/97 01:12 Page:96
          0 0000E4  8D47 0019                            SDI      SEND_NEXT,AUTO

      650     6531
      651     6532    1      SPDU_SZ = 0;

   6532   0 0000E6  8747 0017                            CL       SPDU_SZ,AUTO

      652     6533
      653     6534    1      IF KN$NETPARM.SHDR_C$ ~= ADDR(NIL)

   6534   0 0000E8  8DC5 0008                            CMN      8,B5
          0 0000EA  0901 0007                            BE       s:6537,PREL

      654     6535    1      THEN SPDU_SZ = SPDU_SZ + KN$NETPARM.SHDRSZ;

   6535   0 0000EC  C847 0017                            LDR,R4   SPDU_SZ,AUTO
          0 0000EE  CA45 000A                            ADD,R4   10,B5
          0 0000F0  CF47 0017                            STR,R4   SPDU_SZ,AUTO

      655     6536
      656     6537    1      IF KN$NETPARM.UHDR_C$ ~= ADDR(NIL)

   6537   0 0000F2  8DC5 0005                            CMN      5,B5
          0 0000F4  0901 0007                            BE       s:6540,PREL

      657     6538    1      THEN SPDU_SZ = SPDU_SZ + KN$NETPARM.UHDRSZ;

   6538   0 0000F6  C847 0017                            LDR,R4   SPDU_SZ,AUTO
          0 0000F8  CA45 0007                            ADD,R4   7,B5
          0 0000FA  CF47 0017                            STR,R4   SPDU_SZ,AUTO

      658     6539
      659     6540    1      IF KN$NETPARM.MSG$ ~= ADDR(NIL)

   6540   0 0000FC  8DC5 0002                            CMN      2,B5
          0 0000FE  0901 0007                            BE       s:6545,PREL

PL6.E3A0      #002=KNT$SAVE File=KNT$SEND.:E05TSI                                WED 07/30/97 01:12 Page:97
      660     6541    1      THEN SPDU_SZ = SPDU_SZ + KN$NETPARM.MSGSZ;

   6541   0 000100  C847 0017                            LDR,R4   SPDU_SZ,AUTO
          0 000102  CA45 0004                            ADD,R4   4,B5
          0 000104  CF47 0017                            STR,R4   SPDU_SZ,AUTO

      661     6542
      662     6543        /* Determine if we should build a full fragment or just the TPDU header.
      663     6544        */
      664     6545    1      TPDU$ = KN$NETPARM.THDR$;

   6545   0 000106  BCC5 000B                            LDB,B3   11,B5
          0 000108  BFC7 000A                            STB,B3   TPDU$,AUTO

      665     6546
      666     6547    1      IF KN$TCTX.CLASS ~= 4

   6547   0 00010A  C2C4 0005                            LLH,R4   5,B4
          0 00010C  4D04                                 CMV,R4   4
          0 00010D  0901 0011                            BE       s:6556,PREL

      667     6548    2      THEN DO;

      668     6549    2           BUFFER_TPDU = 0;

   6549   0 00010F  8747 001F                            CL       BUFFER_TPDU,AUTO

      669     6550    2           B$TPDU.LI = THDR_SZ -1;

   6550   0 000111  B847 0015                            LDR,R3   THDR_SZ,AUTO
          0 000113  3EFF                                 ADV,R3   -1
          0 000114  B783                                 STH,R3   ,B3

      670     6551
      671     6552    2           IF THDR_SZ + SPDU_SZ <= KN$TCTX.TPDUSZ

   6552   0 000115  C847 0015                            LDR,R4   THDR_SZ,AUTO
PL6.E3A0      #002=KNT$SAVE File=KNT$SEND.:E05TSI                                WED 07/30/97 01:12 Page:98
          0 000117  CA47 0017                            ADD,R4   SPDU_SZ,AUTO
          0 000119  4801 00B0                            BLZ,R4   s:6619,PREL
          0 00011B  C944 0009                            CMR,R4   9,B4
          0 00011D  0381 00AC                            BLE      s:6619,PREL

      672     6553    2           THEN GOTO BUILD_TPDU_INFO;
      673     6554    2           END;

      674     6555
      675     6556    1      BUFFER_TPDU = 1;

   6556   0 00011F  4C01                                 LDV,R4   1
          0 000120  CF47 001F                            STR,R4   BUFFER_TPDU,AUTO

      676     6557
      677     6558    2      DO WHILE (SPDU_SZ > 0 );

   6558   0 000122  B847 0017                            LDR,R3   SPDU_SZ,AUTO
          0 000124  3A81 025F                            BLEZ,R3  s:6737,PREL

      678     6559
      679     6560        /* Compute the size of the transport info + size of the SPDU.
      680     6561        */
      681     6562    2           FRAG_SZ = THDR_SZ + SPDU_SZ;

   6562   0 000126  E847 0015                            LDR,R6   THDR_SZ,AUTO
          0 000128  EA47 0017                            ADD,R6   SPDU_SZ,AUTO
          0 00012A  EF47 0014                            STR,R6   FRAG_SZ,AUTO

      682     6563
      683     6564        /* See if we have to split it up into multiple TPDU's.
      684     6565        */
      685     6566    2           IF FRAG_SZ > KN$TCTX.TPDUSZ

   6566   0 00012C  ECC7 0006                            LDB,B6   CTX$,AUTO
          0 00012E  6801 0016                            BLZ,R6   s:6573,PREL
          0 000130  E946 0009                            CMR,R6   9,B6
PL6.E3A0      #002=KNT$SAVE File=KNT$SEND.:E05TSI                                WED 07/30/97 01:12 Page:99
          0 000132  0381 0012                            BLE      s:6573,PREL

      686     6567    3           THEN DO;

      687     6568    3                THIS_SPDUSZ = KN$TCTX.TPDUSZ - THDR_SZ;

   6568   0 000134  D846 0009                            LDR,R5   9,B6
          0 000136  D247 0015                            SUB,R5   THDR_SZ,AUTO
          0 000138  DF47 0016                            STR,R5   THIS_SPDUSZ,AUTO

      688     6569    3                FRAG_SZ = KN$TCTX.TPDUSZ;

   6569   0 00013A  E846 0009                            LDR,R6   9,B6
          0 00013C  EF47 0014                            STR,R6   FRAG_SZ,AUTO

      689     6570    3                SPDU_SZ = SPDU_SZ - THIS_SPDUSZ;

   6570   0 00013E  D247 0017                            SUB,R5   SPDU_SZ,AUTO
          0 000140  8255                                 NEG      R5
          0 000141  DF47 0017                            STR,R5   SPDU_SZ,AUTO

      690     6571    3                END;

   6571   0 000143  0F81 0007                            B        s:6580,PREL

      691     6572    3           ELSE DO;

      692     6573    3                THIS_SPDUSZ = SPDU_SZ;

   6573   0 000145  D847 0017                            LDR,R5   SPDU_SZ,AUTO
          0 000147  DF47 0016                            STR,R5   THIS_SPDUSZ,AUTO

      693     6574    3                SPDU_SZ = 0;

   6574   0 000149  8747 0017                            CL       SPDU_SZ,AUTO

      694     6575    3                END;
PL6.E3A0      #002=KNT$SAVE File=KNT$SEND.:E05TSI                                WED 07/30/97 01:12 Page:100

      695     6576
      696     6577        /* Get a buffer for this part and initialize the fragment header.
      697     6578           If we run out of memory, undo all that we did here.
      698     6579        */
      699     6580    2           CALL KNT$GET_SBUF(FRAG_SZ,FRAG$,KN$TCTX)

   6580   0 00014B  EFC7 0026                            STB,B6   ENTRY_SWITCH+6,AUTO
          0 00014D  DBC7 000E                            LAB,B5   FRAG$,AUTO
          0 00014F  DFC7 0024                            STB,B5   ENTRY_SWITCH+4,AUTO
          0 000151  CBC7 0014                            LAB,B4   FRAG_SZ,AUTO
          0 000153  CFC7 0022                            STB,B4   ENTRY_SWITCH+2,AUTO
          0 000155  BBC7 0022                            LAB,B3   ENTRY_SWITCH+2,AUTO
          0 000157  CBF0 0300                            LAB,B4   768,IMO
          0 000159  E380 0000 0000  xent                 LNJ,B6   KNT$GET_SBUF
          0 00015C       0017                            DC       s:6589,PREL

      700     6581    3           WHENRETURN DO;

      701     6582    3                IF FIRST_FRAG$ = ADDR(NIL)

   6582   0 00015D  8DC7 0010                            CMN      FIRST_FRAG$,AUTO
          0 00015F  0981 0007                            BNE      s:6584,PREL

      702     6583    3                THEN FIRST_FRAG$ = FRAG$;

   6583   0 000161  ECC7 000E                            LDB,B6   FRAG$,AUTO
          0 000163  EFC7 0010                            STB,B6   FIRST_FRAG$,AUTO
          0 000165  0F81 0007                            B        s:6585,PREL

      703     6584    3                ELSE LAST_FRAG$->FRAG_HDR.LINK$ = FRAG$;

   6584   0 000167  ECC7 000E                            LDB,B6   FRAG$,AUTO
          0 000169  DCC7 0012                            LDB,B5   LAST_FRAG$,AUTO
          0 00016B  EFC5 0004                            STB,B6   4,B5

      704     6585    3                LAST_FRAG$ = FRAG$;
PL6.E3A0      #002=KNT$SAVE File=KNT$SEND.:E05TSI                                WED 07/30/97 01:12 Page:101

   6585   0 00016D  ECC7 000E                            LDB,B6   FRAG$,AUTO
          0 00016F  EFC7 0012                            STB,B6   LAST_FRAG$,AUTO

      705     6586    3                END;

   6586   0 000171  0F81 0048                            B        s:6611,PREL

      706     6587
      707     6588    3           WHENALTRETURN DO;

      708     6589    4                DO WHILE (FIRST_FRAG$ ~= ADDR(NIL));

   6589   0 000173  0F81 0017                            B        s:6593,PREL

      709     6590    4                     FRAG$ = FIRST_FRAG$;

   6590   0 000175  ECC7 0010                            LDB,B6   FIRST_FRAG$,AUTO
          0 000177  EFC7 000E                            STB,B6   FRAG$,AUTO

      710     6591    4                     FIRST_FRAG$ = FRAG$->FRAG_HDR.LINK$;

   6591   0 000179  DCC6 0004                            LDB,B5   4,B6
          0 00017B  DFC7 0010                            STB,B5   FIRST_FRAG$,AUTO

      711     6592    4                     CALL KNT$RELBUF (FRAG$->FRAG_HDR, KN$TCTX);

   6592   0 00017D  CCC7 0006                            LDB,B4   CTX$,AUTO
          0 00017F  CFC7 0024                            STB,B4   ENTRY_SWITCH+4,AUTO
          0 000181  EFC7 0022                            STB,B6   ENTRY_SWITCH+2,AUTO
          0 000183  BBC7 0022                            LAB,B3   ENTRY_SWITCH+2,AUTO
          0 000185  CBF0 0200                            LAB,B4   512,IMO
          0 000187  E380 0000 0000  xent                 LNJ,B6   KNT$RELBUF
          0 00018A       0001                            DC       s:6593,PREL

      712     6593    4                     END/*do while*/;

PL6.E3A0      #002=KNT$SAVE File=KNT$SEND.:E05TSI                                WED 07/30/97 01:12 Page:102
   6593   0 00018B  8DC7 0010                            CMN      FIRST_FRAG$,AUTO
          0 00018D  09E8                                 BNE      s:6590,SPREL

      713     6594
      714     6595    3                IF KN$TCTX.PRIMARY

   6595   0 00018E  ECC7 0006                            LDB,B6   CTX$,AUTO
          0 000190  82C6 000D                            LB,'0001'X        13,B6
          0 000192       0001
          0 000193  0581 0008                            BBF      s:6597,PREL

      715     6596    3                THEN LDCT$ = KN$NETPARM.LDCT$;

   6596   0 000195  DCC7 0004                            LDB,B5   @KN$NETPARM,AUTO
          0 000197  CC85                                 LDB,B4   ,B5
          0 000198  CFC7 0008                            STB,B4   MOVE$,AUTO
          0 00019A  0F81 0007                            B        s:6599,PREL

      716     6597    3                ELSE LDCT$ = KN$NETPARM.SLDCT$;

   6597   0 00019C  DCC7 0004                            LDB,B5   @KN$NETPARM,AUTO
          0 00019E  CCC5 0017                            LDB,B4   23,B5
          0 0001A0  CFC7 0008                            STB,B4   MOVE$,AUTO

      717     6598
      718     6599    3                IF NOT LDCT$->KN$LDCT.FLAGS.QUEUED

   6599   0 0001A2  89C4 000A                            CMZ      10,B4
          0 0001A4  0801 000F                            BAL      s:6607,PREL

      719     6600    4                THEN DO;

      720     6601    4                     LDCT$->KN$LDCT.FLAGS.QUEUED = '1'B;

   6601   0 0001A6  8944 000A                            LBT,'8000'X       10,B4
   6601   0 0001A8       8000

PL6.E3A0      #002=KNT$SAVE File=KNT$SEND.:E05TSI                                WED 07/30/97 01:12 Page:103
      721     6602    4                     LDCT$->KN$LDCT.LNK$ = KNT_WAIT_HEAD$;

   6602   0 0001A9  BC80 0000 0000  xsym                 LDB,B3   KNT_WAIT_HEAD$
          0 0001AC  BFC4 0008                            STB,B3   8,B4

      722     6603    4                     KNT_WAIT_HEAD$ = LDCT$;

   6603   0 0001AE  CF80 0000 0000  xsym                 STB,B4   KNT_WAIT_HEAD$

      723     6604    4                     KNT_WAIT_COUNT = KNT_WAIT_COUNT +1;

   6604   0 0001B1  8A80 0000 0000  xsym                 INC      KNT_WAIT_COUNT

      724     6605    4                     END;

      725     6606
      726     6607    3                KN$NETPARM.ERRCODE = %KN_ERR_NOQ2;

   6607   0 0001B4  6C07                                 LDV,R6   7
          0 0001B5  EF45 0016                            STR,R6   22,B5

      727     6608    3                ALTRETURN;

   6608   0 0001B7  C380 0000 0000  xent                 LNJ,B4   X6A_AALT

      728     6609    3                END;
      729     6610
      730     6611    2           FRAG_HDR.SEQ = SEND_NEXT;

   6611   0 0001BA  8CC7 0019                            LDI      SEND_NEXT,AUTO
          0 0001BC  8D46 0002                            SDI      2,B6

      731     6612
      732     6613        /* Build the common information in the TPDU header.
      733     6614        */
      734     6615    2           TPDU$ = PINCRW(FRAG$,SIZEW(FRAG_HDR) );

PL6.E3A0      #002=KNT$SAVE File=KNT$SEND.:E05TSI                                WED 07/30/97 01:12 Page:104
   6615   0 0001BE  DCC7 000E                            LDB,B5   FRAG$,AUTO
          0 0001C0  CBC5 0008                            LAB,B4   8,B5
          0 0001C2  CFC7 000A                            STB,B4   TPDU$,AUTO

      735     6616    2           B$TPDU.LI = FRAG_SZ - THIS_SPDUSZ - 1;

   6616   0 0001C4  D847 0014                            LDR,R5   FRAG_SZ,AUTO
          0 0001C6  D247 0016                            SUB,R5   THIS_SPDUSZ,AUTO
          0 0001C8  5EFF                                 ADV,R5   -1
          0 0001C9  D784                                 STH,R5   ,B4

      736     6617
      737     6618    2   BUILD_TPDU_INFO:
      738     6619    2           IF ENTRY_SWITCH = %K_TPDU_TYPE_ED

   6619   0 0001CA  D847 0020            BUILD_TPDU_INFO LDR,R5   ENTRY_SWITCH,AUTO
          0 0001CC  5D01                                 CMV,R5   1
          0 0001CD  0981 0008                            BNE      s:6621,PREL

      739     6620    2           THEN B$TPDU.TYPE = %K_TPDU_TYPE_ED;

   6620   0 0001CF  4C10                                 LDV,R4   16
          0 0001D0  ECC7 000A                            LDB,B6   TPDU$,AUTO
          0 0001D2  CA86                                 SRM,R4,'00F0'X    ,B6
          0 0001D3       00F0
          0 0001D4  0F81 0005                            B        s:6623,PREL

      740     6621    2           ELSE B$TPDU.TYPE = %K_TPDU_TYPE_DT;

   6621   0 0001D6  ECC7 000A                            LDB,B6   TPDU$,AUTO
          0 0001D8  8906                                 LBT,'00F0'X       ,B6
          0 0001D9       00F0

      741     6622
      742     6623    2           B$TPDU.CDT = 0;

   6623   0 0001DA  ECC7 000A                            LDB,B6   TPDU$,AUTO
PL6.E3A0      #002=KNT$SAVE File=KNT$SEND.:E05TSI                                WED 07/30/97 01:12 Page:105
          0 0001DC  8806                                 LBF,'000F'X       ,B6
          0 0001DD       000F

      743     6624
      744     6625    2           IF ENTRY_SWITCH ~= 0

   6625   0 0001DE  5901 0009                            BEZ,R5   s:6628,PREL

      745     6626    2           THEN B$TPDU.DST_REF = KN$TCTX.DST_REF;

   6626   0 0001E0  ECC7 000A                            LDB,B6   TPDU$,AUTO
          0 0001E2  DCC7 0006                            LDB,B5   CTX$,AUTO
          0 0001E4  C845 0001                            LDR,R4   1,B5
          0 0001E6  CF46 0001                            STR,R4   1,B6

      746     6627
      747     6628    2           IF KN$TCTX.OPTION.EXTENDED = '1'B

   6628   0 0001E8  ECC7 0006                            LDB,B6   CTX$,AUTO
          0 0001EA  82C6 000C                            LB,'0004'X        12,B6
          0 0001EC       0004
          0 0001ED  0581 0011                            BBF      s:6630,PREL

      748     6629    2           THEN B$TPDU_DT_EXT.TPDU_NR = SEND_NEXT;

   6629   0 0001EF  7081                                 DOL,R7   1
          0 0001F0  8D47 0022                            SDI      ENTRY_SWITCH+2,AUTO
          0 0001F2  ABC7 0022                            LAB,B2   ENTRY_SWITCH+2,AUTO
          0 0001F4  2C00                                 LDV,R2   0
          0 0001F5  6C20                                 LDV,R6   32
          0 0001F6  BCC7 000A                            LDB,B3   TPDU$,AUTO
          0 0001F8  3C21                                 LDV,R3   33
          0 0001F9  7C1F                                 LDV,R7   31
          0 0001FA  D380 0000 0000  xent                 LNJ,B5   X6B_BLR
          0 0001FD  0F81 0012                            B        s:6634,PREL

      749     6630    2           ELSE IF ENTRY_SWITCH ~= 0
PL6.E3A0      #002=KNT$SAVE File=KNT$SEND.:E05TSI                                WED 07/30/97 01:12 Page:106

   6630   0 0001FF  5901 000B                            BEZ,R5   s:6632,PREL

      750     6631    2                THEN B$TPDU_DT.TPDU_NR = SEND_NEXT;

   6631   0 000201  C847 001A                            LDR,R4   SEND_NEXT+1,AUTO
          0 000203  4008                                 SOL,R4   8
          0 000204  DCC7 000A                            LDB,B5   TPDU$,AUTO
          0 000206  CAC5 0002                            SRM,R4,'7F00'X    2,B5
          0 000208       7F00
          0 000209  0F81 0006                            B        s:6634,PREL

      751     6632    2                ELSE B$TPDU_DT_0.TPDU_NR = 0;

   6632   0 00020B  DCC7 000A                            LDB,B5   TPDU$,AUTO
          0 00020D  8845 0001                            LBF,'7F00'X       1,B5
          0 00020F       7F00

      752     6633
      753     6634    2           SEND_NEXT = SEND_NEXT + 1;

   6634   0 000210  8AC7 001A                            INC      SEND_NEXT+1,AUTO
          0 000212  8EC7 0019                            CAD      SEND_NEXT,AUTO

      754     6635    2           IF SEND_NEXT > KN$TCTX.MAXSEQ

   6635   0 000214  ECC7 0006                            LDB,B6   CTX$,AUTO
          0 000216  8CC7 0019                            LDI      SEND_NEXT,AUTO
          0 000218  84C6 000A                            SID      10,B6
          0 00021A  0681 0009                            BCF      s:6638,PREL
          0 00021C  6981 0003                            BNEZ,R6  s:6636,PREL
          0 00021E  7901 0005                            BEZ,R7   s:6638,PREL

      755     6636    2           THEN SEND_NEXT = 0;

   6636   0 000220  8747 0019                            CL       SEND_NEXT,AUTO
          0 000222  8747 001A                            CL       SEND_NEXT+1,AUTO
PL6.E3A0      #002=KNT$SAVE File=KNT$SEND.:E05TSI                                WED 07/30/97 01:12 Page:107

      756     6637
      757     6638    2           IF SPDU_SZ=0 OR BUFFER_TPDU=0

   6638   0 000224  E847 0017                            LDR,R6   SPDU_SZ,AUTO
          0 000226  6901 0005                            BEZ,R6   s:6640,PREL
          0 000228  D847 001F                            LDR,R5   BUFFER_TPDU,AUTO
          0 00022A  5981 0013                            BNEZ,R5  s:6645,PREL

      758     6639    3           THEN DO;

      759     6640    3                IF ENTRY_SWITCH ~= 0

   6640   0 00022C  D847 0020                            LDR,R5   ENTRY_SWITCH,AUTO
          0 00022E  5901 0008                            BEZ,R5   s:6642,PREL

      760     6641    3                THEN B$TPDU_DT.EOT = '1'B;

   6641   0 000230  DCC7 000A                            LDB,B5   TPDU$,AUTO
          0 000232  8945 0002                            LBT,'8000'X       2,B5
          0 000234       8000
          0 000235  0F81 0018                            B        s:6650,PREL

      761     6642    3                ELSE B$TPDU_DT_0.EOT = '1'B;

   6642   0 000237  DCC7 000A                            LDB,B5   TPDU$,AUTO
          0 000239  8945 0001                            LBT,'8000'X       1,B5
          0 00023B       8000

      762     6643    3                END;

   6643   0 00023C  0F81 0011                            B        s:6650,PREL

      763     6644    3           ELSE DO;

      764     6645    3                IF ENTRY_SWITCH ~= 0

PL6.E3A0      #002=KNT$SAVE File=KNT$SEND.:E05TSI                                WED 07/30/97 01:12 Page:108
   6645   0 00023E  C847 0020                            LDR,R4   ENTRY_SWITCH,AUTO
          0 000240  4901 0008                            BEZ,R4   s:6647,PREL

      765     6646    3                THEN B$TPDU_DT.EOT = '0'B;

   6646   0 000242  DCC7 000A                            LDB,B5   TPDU$,AUTO
          0 000244  8845 0002                            LBF,'8000'X       2,B5
          0 000246       8000
          0 000247  0F81 0006                            B        s:6650,PREL

      766     6647    3                ELSE B$TPDU_DT_0.EOT = '0'B;

   6647   0 000249  DCC7 000A                            LDB,B5   TPDU$,AUTO
          0 00024B  8845 0001                            LBF,'8000'X       1,B5
          0 00024D       8000

      767     6648    3                END;

      768     6649
      769     6650    2           IF BUFFER_TPDU = 0

   6650   0 00024E  D847 001F                            LDR,R5   BUFFER_TPDU,AUTO
          0 000250  5901 0176                            BEZ,R5   s:6758,PREL

      770     6651    2           THEN GOTO EXIT_SAVE;
      771     6652
      772     6653    2           SPDU$ = PINCRC(TPDU$,FRAG_SZ - THIS_SPDUSZ );

   6653   0 000252  C847 0014                            LDR,R4   FRAG_SZ,AUTO
          0 000254  C247 0016                            SUB,R4   THIS_SPDUSZ,AUTO
          0 000256  8CC7 000A                            LDI      TPDU$,AUTO
          0 000258  7031                                 DCL,R7   1
          0 000259  8D47 0022                            SDI      ENTRY_SWITCH+2,AUTO
          0 00025B  E854                                 LDR,R6   R4
          0 00025C  70F0                                 DAR,R7   16
          0 00025D  8447 0022                            AID      ENTRY_SWITCH+2,AUTO
          0 00025F  7071                                 DCR,R7   1
PL6.E3A0      #002=KNT$SAVE File=KNT$SEND.:E05TSI                                WED 07/30/97 01:12 Page:109
          0 000260  8D47 000C                            SDI      SPDU$,AUTO

      773     6654        /* Move the SPDU into the buffer.
      774     6655        */
      775     6656    3           DO WHILE (THIS_SPDUSZ > 0);

   6656   0 000262  C847 0016                            LDR,R4   THIS_SPDUSZ,AUTO
          0 000264  4A81 00DD                            BLEZ,R4  s:6724,PREL

      776     6657
      777     6658    3                IF KN$NETPARM.SHDR$ ~= ADDR(NIL)

   6658   0 000266  ECC7 0004                            LDB,B6   @KN$NETPARM,AUTO
          0 000268  8DC6 0008                            CMN      8,B6
          0 00026A  0901 0032                            BE       s:6677,PREL

      778     6659    4                THEN DO;

      779     6660    4                     MOVE$ = KN$NETPARM.SHDR_C$;

   6660   0 00026C  8CC6 0008                            LDI      8,B6
          0 00026E  8D47 0008                            SDI      MOVE$,AUTO

      780     6661    4                     IF THIS_SPDUSZ >= KN$NETPARM.SHDRSZ

   6661   0 000270  D847 0016                            LDR,R5   THIS_SPDUSZ,AUTO
          0 000272  5801 0015                            BLZ,R5   s:6669,PREL
          0 000274  D946 000A                            CMR,R5   10,B6
          0 000276  0201 0011                            BL       s:6669,PREL

      781     6662    5                     THEN DO;

      782     6663    5                          MOVE_SZ = KN$NETPARM.SHDRSZ;

   6663   0 000278  C846 000A                            LDR,R4   10,B6
          0 00027A  CF47 0018                            STR,R4   MOVE_SZ,AUTO

PL6.E3A0      #002=KNT$SAVE File=KNT$SEND.:E05TSI                                WED 07/30/97 01:12 Page:110
      783     6664    5                          THIS_SPDUSZ = THIS_SPDUSZ - KN$NETPARM.SHDRSZ;

   6664   0 00027C  D254                                 SUB,R5   R4
          0 00027D  DF47 0016                            STR,R5   THIS_SPDUSZ,AUTO

      784     6665    5                          KN$NETPARM.SHDR$ = ADDR(NIL);

   6665   0 00027F  DB80 0000 0000                       LAB,B5   0
          0 000282  DFC6 0008                            STB,B5   8,B6

      785     6666    5                          KN$NETPARM.SHDRSZ = 0;

   6666   0 000284  8746 000A                            CL       10,B6

      786     6667    5                          END;

   6667   0 000286  0F81 0014                            B        s:6674,PREL

      787     6668    5                     ELSE DO;

      788     6669    5                          MOVE_SZ = THIS_SPDUSZ;

   6669   0 000288  DF47 0018                            STR,R5   MOVE_SZ,AUTO

      789     6670    5                         KN$NETPARM.SHDR_C$ = PINCRC(KN$NETPARM.SHDR_C$, THIS_SPDUSZ);

   6670   0 00028A  7031                                 DCL,R7   1
          0 00028B  8D47 0022                            SDI      ENTRY_SWITCH+2,AUTO
          0 00028D  E855                                 LDR,R6   R5
          0 00028E  70F0                                 DAR,R7   16
          0 00028F  8447 0022                            AID      ENTRY_SWITCH+2,AUTO
          0 000291  7071                                 DCR,R7   1
          0 000292  8D46 0008                            SDI      8,B6

      790     6671    5                          KN$NETPARM.SHDRSZ = KN$NETPARM.SHDRSZ - THIS_SPDUSZ;

   6671   0 000294  D246 000A                            SUB,R5   10,B6
PL6.E3A0      #002=KNT$SAVE File=KNT$SEND.:E05TSI                                WED 07/30/97 01:12 Page:111
          0 000296  8255                                 NEG      R5
          0 000297  DF46 000A                            STR,R5   10,B6

      791     6672    5                          THIS_SPDUSZ = 0; /* for do while*/

   6672   0 000299  8747 0016                            CL       THIS_SPDUSZ,AUTO

      792     6673    5                          END;

      793     6674    4                     GOTO MOVE_IT;

   6674   0 00029B  0F81 006F                            B        s:6704,PREL

      794     6675    4                     END/*do if shrd$ ~ nil*/;
      795     6676
      796     6677    3                IF KN$NETPARM.UHDR$ ~= ADDR(NIL)

   6677   0 00029D  8DC6 0005                            CMN      5,B6
          0 00029F  0901 0036                            BE       s:6696,PREL

      797     6678    4                THEN DO;

      798     6679    4                     MOVE$ = KN$NETPARM.UHDR$;

   6679   0 0002A1  DCC6 0005                            LDB,B5   5,B6
          0 0002A3  DFC7 0008                            STB,B5   MOVE$,AUTO

      799     6680    4                     IF THIS_SPDUSZ >= KN$NETPARM.UHDRSZ

   6680   0 0002A5  E847 0016                            LDR,R6   THIS_SPDUSZ,AUTO
          0 0002A7  6801 0015                            BLZ,R6   s:6688,PREL
          0 0002A9  E946 0007                            CMR,R6   7,B6
          0 0002AB  0201 0011                            BL       s:6688,PREL

      800     6681    5                     THEN DO;

      801     6682    5                          MOVE_SZ = KN$NETPARM.UHDRSZ;
PL6.E3A0      #002=KNT$SAVE File=KNT$SEND.:E05TSI                                WED 07/30/97 01:12 Page:112

   6682   0 0002AD  D846 0007                            LDR,R5   7,B6
          0 0002AF  DF47 0018                            STR,R5   MOVE_SZ,AUTO

      802     6683    5                          THIS_SPDUSZ = THIS_SPDUSZ - KN$NETPARM.UHDRSZ;

   6683   0 0002B1  E255                                 SUB,R6   R5
          0 0002B2  EF47 0016                            STR,R6   THIS_SPDUSZ,AUTO

      803     6684    5                          KN$NETPARM.UHDR$ = ADDR(NIL);

   6684   0 0002B4  CB80 0000 0000                       LAB,B4   0
          0 0002B7  CFC6 0005                            STB,B4   5,B6

      804     6685    5                          KN$NETPARM.UHDRSZ = 0;

   6685   0 0002B9  8746 0007                            CL       7,B6

      805     6686    5                          END;

   6686   0 0002BB  0F81 0018                            B        s:6693,PREL

      806     6687    5                     ELSE DO;

      807     6688    5                          MOVE_SZ = THIS_SPDUSZ;

   6688   0 0002BD  EF47 0018                            STR,R6   MOVE_SZ,AUTO

      808     6689    5                         KN$NETPARM.UHDR_C$ = PINCRC(KN$NETPARM.UHDR_C$, THIS_SPDUSZ);

   6689   0 0002BF  8CC6 0005                            LDI      5,B6
          0 0002C1  7031                                 DCL,R7   1
          0 0002C2  8D47 0022                            SDI      ENTRY_SWITCH+2,AUTO
          0 0002C4  E847 0016                            LDR,R6   THIS_SPDUSZ,AUTO
          0 0002C6  70F0                                 DAR,R7   16
          0 0002C7  8447 0022                            AID      ENTRY_SWITCH+2,AUTO
          0 0002C9  7071                                 DCR,R7   1
PL6.E3A0      #002=KNT$SAVE File=KNT$SEND.:E05TSI                                WED 07/30/97 01:12 Page:113
          0 0002CA  8D46 0005                            SDI      5,B6

      809     6690    5                          KN$NETPARM.UHDRSZ = KN$NETPARM.UHDRSZ - THIS_SPDUSZ;

   6690   0 0002CC  D846 0007                            LDR,R5   7,B6
          0 0002CE  D247 0016                            SUB,R5   THIS_SPDUSZ,AUTO
          0 0002D0  DF46 0007                            STR,R5   7,B6

      810     6691    5                          THIS_SPDUSZ = 0; /* for do while*/

   6691   0 0002D2  8747 0016                            CL       THIS_SPDUSZ,AUTO

      811     6692    5                          END;

      812     6693    4                     GOTO MOVE_IT;

   6693   0 0002D4  0F81 0036                            B        s:6704,PREL

      813     6694    4                     END/*do if uhrd$ ~ nil*/;
      814     6695
      815     6696    3                IF KN$NETPARM.MSG$ ~= ADDR(NIL)

   6696   0 0002D6  8DC6 0002                            CMN      2,B6
          0 0002D8  0901 0032                            BE       s:6704,PREL

      816     6697    4                THEN DO;

      817     6698    4                     MOVE$ = KN$NETPARM.MSG$;

   6698   0 0002DA  8CC6 0002                            LDI      2,B6
          0 0002DC  8D47 0008                            SDI      MOVE$,AUTO

      818     6699    4                     IF THIS_SPDUSZ >= KN$NETPARM.MSGSZ

   6699   0 0002DE  D847 0016                            LDR,R5   THIS_SPDUSZ,AUTO
          0 0002E0  5801 0015                            BLZ,R5   s:6707,PREL
          0 0002E2  D946 0004                            CMR,R5   4,B6
PL6.E3A0      #002=KNT$SAVE File=KNT$SEND.:E05TSI                                WED 07/30/97 01:12 Page:114
          0 0002E4  0201 0011                            BL       s:6707,PREL

      819     6700    5                     THEN DO;

      820     6701    5                          MOVE_SZ = KN$NETPARM.MSGSZ;

   6701   0 0002E6  C846 0004                            LDR,R4   4,B6
          0 0002E8  CF47 0018                            STR,R4   MOVE_SZ,AUTO

      821     6702    5                          THIS_SPDUSZ = THIS_SPDUSZ - KN$NETPARM.MSGSZ;

   6702   0 0002EA  D254                                 SUB,R5   R4
          0 0002EB  DF47 0016                            STR,R5   THIS_SPDUSZ,AUTO

      822     6703    5                          KN$NETPARM.MSG$ = ADDR(NIL);

   6703   0 0002ED  DB80 0000 0000                       LAB,B5   0
          0 0002F0  DFC6 0002                            STB,B5   2,B6

      823     6704    5                          KN$NETPARM.MSGSZ = 0;

   6704   0 0002F2  8746 0004                            CL       4,B6

      824     6705    5                          END;

   6705   0 0002F4  0F81 0014                            B        s:6712,PREL

      825     6706    5                     ELSE DO;

      826     6707    5                          MOVE_SZ = THIS_SPDUSZ;

   6707   0 0002F6  DF47 0018                            STR,R5   MOVE_SZ,AUTO

      827     6708    5                          KN$NETPARM.MSG$ = PINCRC(KN$NETPARM.MSG$, THIS_SPDUSZ);

   6708   0 0002F8  7031                                 DCL,R7   1
          0 0002F9  8D47 0022                            SDI      ENTRY_SWITCH+2,AUTO
PL6.E3A0      #002=KNT$SAVE File=KNT$SEND.:E05TSI                                WED 07/30/97 01:12 Page:115
          0 0002FB  E855                                 LDR,R6   R5
          0 0002FC  70F0                                 DAR,R7   16
          0 0002FD  8447 0022                            AID      ENTRY_SWITCH+2,AUTO
          0 0002FF  7071                                 DCR,R7   1
          0 000300  8D46 0002                            SDI      2,B6

      828     6709    5                          KN$NETPARM.MSGSZ = KN$NETPARM.MSGSZ - THIS_SPDUSZ;

   6709   0 000302  D246 0004                            SUB,R5   4,B6
          0 000304  8255                                 NEG      R5
          0 000305  DF46 0004                            STR,R5   4,B6

      829     6710    5                          THIS_SPDUSZ = 0; /* for do while*/

   6710   0 000307  8747 0016                            CL       THIS_SPDUSZ,AUTO

      830     6711    5                          END;

      831     6712    4                     GOTO MOVE_IT;

   6712   0 000309  0F81 0001                            B        s:6704,PREL

   6704   0                              MOVE_IT         null
      832     6713    4                     END/*do if msg$ ~ nil*/;
      833     6714
      834     6715    3   MOVE_IT:     ;
      835     6716    3                SPDU$->B$SPDU = MOVE$->B$SPDU;

   6716   0 00030B  8CC7 000C            MOVE_IT         LDI      SPDU$,AUTO
          0 00030D  B856                                 LDR,R3   R6
          0 00030E  E570 7FFF                            AND,R6   32767,IMO
          0 000310  8D47 0022                            SDI      ENTRY_SWITCH+2,AUTO
          0 000312  DCC7 0022                            LDB,B5   ENTRY_SWITCH+2,AUTO
          0 000314  304F                                 SOR,R3   15
          0 000315  8CC7 0008                            LDI      MOVE$,AUTO
          0 000317  A856                                 LDR,R2   R6
          0 000318  E570 7FFF                            AND,R6   32767,IMO
PL6.E3A0      #002=KNT$SAVE File=KNT$SEND.:E05TSI                                WED 07/30/97 01:12 Page:116
          0 00031A  8D47 0024                            SDI      ENTRY_SWITCH+4,AUTO
          0 00031C  CCC7 0024                            LDB,B4   ENTRY_SWITCH+4,AUTO
          0 00031E  204F                                 SOR,R2   15
          0 00031F  AB84                                 LAB,B2   ,B4
          0 000320  E847 0018                            LDR,R6   MOVE_SZ,AUTO
          0 000322  BB85                                 LAB,B3   ,B5
          0 000323  0008                                 MMM

      836     6717    3                SPDU$ = PINCRC(SPDU$,MOVE_SZ);

   6717   0 000324  8CC7 000C                            LDI      SPDU$,AUTO
          0 000326  7031                                 DCL,R7   1
          0 000327  8D47 0022                            SDI      ENTRY_SWITCH+2,AUTO
          0 000329  E847 0018                            LDR,R6   MOVE_SZ,AUTO
          0 00032B  70F0                                 DAR,R7   16
          0 00032C  8447 0022                            AID      ENTRY_SWITCH+2,AUTO
          0 00032E  7071                                 DCR,R7   1
          0 00032F  8D47 000C                            SDI      SPDU$,AUTO

      837     6718    3                MOVE$ = PINCRC(MOVE$,MOVE_SZ);

   6718   0 000331  8CC7 0008                            LDI      MOVE$,AUTO
          0 000333  7031                                 DCL,R7   1
          0 000334  8D47 0022                            SDI      ENTRY_SWITCH+2,AUTO
          0 000336  E847 0018                            LDR,R6   MOVE_SZ,AUTO
          0 000338  70F0                                 DAR,R7   16
          0 000339  8447 0022                            AID      ENTRY_SWITCH+2,AUTO
          0 00033B  7071                                 DCR,R7   1
          0 00033C  8D47 0008                            SDI      MOVE$,AUTO

      838     6719
      839     6720    3                END/*do while this_tpdusz > 0*/;

   6720   0 00033E  D847 0016                            LDR,R5   THIS_SPDUSZ,AUTO
          0 000340  5A01 FF25                            BGZ,R5   s:6658,PREL

      840     6721
PL6.E3A0      #002=KNT$SAVE File=KNT$SEND.:E05TSI                                WED 07/30/97 01:12 Page:117
      841     6722        /* And calculate the checksum if appropriate.
      842     6723        */
      843     6724    2           IF KN$TCTX.OPTION.CHKSUM ~= '0'B

   6724   0 000342  ECC7 0006                            LDB,B6   CTX$,AUTO
          0 000344  82C6 000C                            LB,'0001'X        12,B6
          0 000346       0001
          0 000347  0581 0036                            BBF      s:6731,PREL

      844     6725    3           THEN DO;

      845     6726    3                SPDU$ = PINCRC(TPDU$,CHKOFF-3);

   6726   0 000349  8CC7 000A                            LDI      TPDU$,AUTO
          0 00034B  7031                                 DCL,R7   1
          0 00034C  8D47 0022                            SDI      ENTRY_SWITCH+2,AUTO
          0 00034E  E847 001B                            LDR,R6   CHKOFF,AUTO
          0 000350  70F0                                 DAR,R7   16
          0 000351  8447 0022                            AID      ENTRY_SWITCH+2,AUTO
          0 000353  7071                                 DCR,R7   1
          0 000354  7031                                 DCL,R7   1
          0 000355  8470 FFFF FFFD                       AID      -3,IMO
          0 000358  7071                                 DCR,R7   1
          0 000359  8D47 000C                            SDI      SPDU$,AUTO

      846     6727    3                SPDU$->B$CHAR4 = ADDR(K_CKSUM_INIT)->B$CHAR4;

   6727   0 00035B  B856                                 LDR,R3   R6
          0 00035C  E570 7FFF                            AND,R6   32767,IMO
          0 00035E  8D47 0022                            SDI      ENTRY_SWITCH+2,AUTO
          0 000360  DCC7 0022                            LDB,B5   ENTRY_SWITCH+2,AUTO
          0 000362  304F                                 SOR,R3   15
          0 000363  AB80 0000 0000  xsym                 LAB,B2   K_CKSUM_INIT
          0 000366  2C00                                 LDV,R2   0
          0 000367  6C04                                 LDV,R6   4
          0 000368  BB85                                 LAB,B3   ,B5
          0 000369  0008                                 MMM
PL6.E3A0      #002=KNT$SAVE File=KNT$SEND.:E05TSI                                WED 07/30/97 01:12 Page:118

      847     6728    3                CALL KNA$CALC_CHKSUM(TPDU$,FRAG_SZ,CHKOFF);

   6728   0 00036A  EBC7 001B                            LAB,B6   CHKOFF,AUTO
          0 00036C  EFC7 0026                            STB,B6   ENTRY_SWITCH+6,AUTO
          0 00036E  CBC7 0014                            LAB,B4   FRAG_SZ,AUTO
          0 000370  CFC7 0024                            STB,B4   ENTRY_SWITCH+4,AUTO
          0 000372  ABC7 000A                            LAB,B2   TPDU$,AUTO
          0 000374  AFC7 0022                            STB,B2   ENTRY_SWITCH+2,AUTO
          0 000376  BBC7 0022                            LAB,B3   ENTRY_SWITCH+2,AUTO
          0 000378  CBF0 0300                            LAB,B4   768,IMO
          0 00037A  E380 0000 0000  xent                 LNJ,B6   KNA$CALC_CHKSUM
          0 00037D       0001                            DC       s:6731,PREL

      848     6729    3                END;

      849     6730
      850     6731    2           FRAGS# = FRAGS# +1;

   6731   0 00037E  8AC7 001E                            INC      FRAGS#,AUTO

      851     6732    2           END/*do while spdu_size> 0*/;

   6732   0 000380  E847 0017                            LDR,R6   SPDU_SZ,AUTO
          0 000382  6A01 FDA3                            BGZ,R6   s:6562,PREL

      852     6733
      853     6734        /* Completed busting it apart safely, so go ahead and update the
      854     6735           Transport Context Block to reflect the new fragments to send.
      855     6736        */
      856     6737    1      IF ENTRY_SWITCH ~= %K_TPDU_TYPE_ED

   6737   0 000384  E847 0020                            LDR,R6   ENTRY_SWITCH,AUTO
          0 000386  6D01                                 CMV,R6   1
          0 000387  0901 0021                            BE       s:6750,PREL

      857     6738    2      THEN DO;
PL6.E3A0      #002=KNT$SAVE File=KNT$SEND.:E05TSI                                WED 07/30/97 01:12 Page:119

      858     6739    2           IF KN$TCTX.SEND_HEAD$ = ADDR(NIL)

   6739   0 000389  ECC7 0006                            LDB,B6   CTX$,AUTO
          0 00038B  8DC6 003A                            CMN      58,B6
          0 00038D  0981 0007                            BNE      s:6741,PREL

      859     6740    2           THEN KN$TCTX.SEND_HEAD$ = FIRST_FRAG$;

   6740   0 00038F  DCC7 0010                            LDB,B5   FIRST_FRAG$,AUTO
          0 000391  DFC6 003A                            STB,B5   58,B6
          0 000393  0F81 0007                            B        s:6743,PREL

      860     6741    2           ELSE KN$TCTX.SEND_TAIL$->FRAG_HDR.LINK$ = FIRST_FRAG$;

   6741   0 000395  DCC6 003C                            LDB,B5   60,B6
          0 000397  CCC7 0010                            LDB,B4   FIRST_FRAG$,AUTO
          0 000399  CFC5 0004                            STB,B4   4,B5

      861     6742
      862     6743    2           KN$TCTX.SEND_TAIL$ = LAST_FRAG$;

   6743   0 00039B  DCC7 0012                            LDB,B5   LAST_FRAG$,AUTO
          0 00039D  DFC6 003C                            STB,B5   60,B6

      863     6744
      864     6745    2           IF KN$TCTX.SEND_NOTSENT$ = ADDR(NIL)

   6745   0 00039F  8DC6 003E                            CMN      62,B6
          0 0003A1  0981 0025                            BNE      s:6758,PREL

      865     6746    2           THEN KN$TCTX.SEND_NOTSENT$ = FIRST_FRAG$;

   6746   0 0003A3  CCC7 0010                            LDB,B4   FIRST_FRAG$,AUTO
          0 0003A5  CFC6 003E                            STB,B4   62,B6

      866     6747    2           END/*do if normal data*/;
PL6.E3A0      #002=KNT$SAVE File=KNT$SEND.:E05TSI                                WED 07/30/97 01:12 Page:120

   6747   0 0003A7  0F81 001F                            B        s:6758,PREL

      867     6748
      868     6749    2      ELSE DO;

      869     6750    2           IF KN$TCTX.SEND_EHEAD$ = ADDR(NIL)

   6750   0 0003A9  ECC7 0006                            LDB,B6   CTX$,AUTO
          0 0003AB  8DC6 0040                            CMN      64,B6
          0 0003AD  0981 0007                            BNE      s:6752,PREL

      870     6751    2           THEN KN$TCTX.SEND_EHEAD$ = FIRST_FRAG$;

   6751   0 0003AF  DCC7 0010                            LDB,B5   FIRST_FRAG$,AUTO
          0 0003B1  DFC6 0040                            STB,B5   64,B6
          0 0003B3  0F81 0007                            B        s:6754,PREL

      871     6752    2           ELSE KN$TCTX.SEND_ETAIL$->FRAG_HDR.LINK$ = FIRST_FRAG$;

   6752   0 0003B5  DCC6 0042                            LDB,B5   66,B6
          0 0003B7  CCC7 0010                            LDB,B4   FIRST_FRAG$,AUTO
          0 0003B9  CFC5 0004                            STB,B4   4,B5

      872     6753
      873     6754    2           KN$TCTX.SEND_ETAIL$ = LAST_FRAG$;

   6754   0 0003BB  DCC7 0012                            LDB,B5   LAST_FRAG$,AUTO
          0 0003BD  DFC6 0042                            STB,B5   66,B6

      874     6755
      875     6756    2           IF KN$TCTX.SEND_ENOTSENT$ = ADDR(NIL)

   6756   0 0003BF  8DC6 0044                            CMN      68,B6
          0 0003C1  0981 0005                            BNE      s:6758,PREL

      876     6757    2           THEN KN$TCTX.SEND_ENOTSENT$ = FIRST_FRAG$;
PL6.E3A0      #002=KNT$SAVE File=KNT$SEND.:E05TSI                                WED 07/30/97 01:12 Page:121

   6757   0 0003C3  CCC7 0010                            LDB,B4   FIRST_FRAG$,AUTO
          0 0003C5  CFC6 0044                            STB,B4   68,B6

      877     6758    2           END/*do if expidated data*/;

      878     6759
      879     6760    1   EXIT_SAVE:
      880     6761    1      IF ENTRY_SWITCH ~= %K_TPDU_TYPE_ED

   6761   0 0003C7  E847 0020            EXIT_SAVE       LDR,R6   ENTRY_SWITCH,AUTO
          0 0003C9  6D01                                 CMV,R6   1
          0 0003CA  0901 0007                            BE       s:6763,PREL

      881     6762    1      THEN KN$TCTX.SEND_NEXT = SEND_NEXT;

   6762   0 0003CC  8CC7 0019                            LDI      SEND_NEXT,AUTO
          0 0003CE  8D46 0036                            SDI      54,B6
          0 0003D0  0F81 0005                            B        s:6765,PREL

      882     6763    1      ELSE KN$TCTX.SEND_EXPD = SEND_NEXT;

   6763   0 0003D2  8CC7 0019                            LDI      SEND_NEXT,AUTO
          0 0003D4  8D46 0038                            SDI      56,B6

      883     6764
      884     6765    1      IF FRAGS# > 1

   6765   0 0003D6  D847 001E                            LDR,R5   FRAGS#,AUTO
          0 0003D8  5D01                                 CMV,R5   1
          0 0003D9  0381 0007                            BLE      s:6770,PREL

      885     6766    2      THEN DO;

      886     6767    2           KN$TCTX.SGMENT_TSDUS = KN$TCTX.SGMENT_TSDUS +1;

   6767   0 0003DB  8AC6 0046                            INC      70,B6
PL6.E3A0      #002=KNT$SAVE File=KNT$SEND.:E05TSI                                WED 07/30/97 01:12 Page:122

      887     6768    2           KN$TCTX.SGMENT_FRAGS = KN$TCTX.SGMENT_FRAGS + FRAGS#;

   6768   0 0003DD  DA46 0047                            ADD,R5   71,B6
          0 0003DF  DF46 0047                            STR,R5   71,B6

      888     6769    2           END;

      889     6770    1      IF KN$NETPARM.ERRCODE = 0

   6770   0 0003E1  DCC7 0004                            LDB,B5   @KN$NETPARM,AUTO
          0 0003E3  D845 0016                            LDR,R5   22,B5
          0 0003E5  5981 0004                            BNEZ,R5  s:6772,PREL

      890     6771    1      THEN RETURN;

   6771   0 0003E7  C380 0000 0000  xent                 LNJ,B4   X6A_ARET

      891     6772    1      ELSE ALTRETURN;

   6772   0 0003EA  C380 0000 0000  xent                 LNJ,B4   X6A_AALT
      892     6773
      893     6774    1   END KNT$SAVE;
      894     6775        %EOD;

PL6.E3A0      #002=KNT$SAVE File=KNT$SEND.:E05TSI                                WED 07/30/97 01:12 Page:123
--  Include file information  --

   GH_SCHD_M.:E05TOU  is referenced.
   K_TRANSPORT_M.:E05TOU  is referenced.
   K_TRANSPORT_E.:E05TOU  is referenced.
   KN_DATA_M.:E05TOU  is referenced.
   K_ADDRESS_M.:E05TOU  is referenced.
   G_LCP6_E.:E05TOU  was found in the system file and is never referenced.
   GT_LCP6_M.:E05TOU  was found in the system file and is never referenced.
   KI_CP6.:E05TOU  was found in the system file and is never referenced.
   GF_LCP6_M.:E05TOU  was found in the system file and is never referenced.
   GM_LCP6_M.:E05TOU  was found in the system file and is never referenced.
   GU_LCP6_M.:E05TOU  was found in the system file and is never referenced.
   GJ_LCP6_M.:E05TOU  was found in the system file and is never referenced.
   GH_LCP6_M.:E05TOU  was found in the system file and is never referenced.
      No diagnostics issued in procedure KNT$SAVE.
PL6.E3A0      #002=KNT$SAVE File=KNT$SEND.:E05TSI                                WED 07/30/97 01:12 Page:124

 **** Variables and constants ****

  ****  Auto variables  ****

  ****  Scalars and arrays  ****
HexLoc.c.b A Datatyp(siz) R M Lvl/name                 HexLoc.c.b A Datatyp(siz) R M Lvl/name

     4-0-0/w PTR         r     1 @KN$NETPARM               1F-0-0/w UBIN(16)    r     1 BUFFER_TPDU
    1B-0-0/w SBIN(16)    r     1 CHKOFF                     6-0-0/w PTR         r     1 CTX$
    20-0-0/w SBIN(16)    r     1 ENTRY_SWITCH              1C-0-0/w SBIN(32)    r     1 EXTRA
    10-0-0/w PTR         r     1 FIRST_FRAG$                E-0-0/w PTR         r     1 FRAG$
    1E-0-0/w UBIN(16)    r     1 FRAGS#                    14-0-0/w SBIN(16)    r     1 FRAG_SZ
    *0-0-0/w STRC(528)   r     1 KN$NETPARM                12-0-0/w PTR         r     1 LAST_FRAG$
     8-0-0/w PTR         r     1 LDCT$                      8-0-0/w PTR         r     1 MOVE$
    18-0-0/w SBIN(16)    r     1 MOVE_SZ                   19-0-0/w UBIN(32)    r     1 SEND_NEXT
     C-0-0/w PTR         r     1 SPDU$                     17-0-0/w SBIN(16)    r     1 SPDU_SZ
    15-0-0/w SBIN(16)    r     1 THDR_SZ                   16-0-0/w SBIN(16)    r     1 THIS_SPDUSZ
     A-0-0/w PTR         r     1 TPDU$

  ****  SYMREF variables  ****

  ****  Scalars and arrays  ****
HexLoc.c.b A Datatyp(siz) R M Lvl/name                 HexLoc.c.b A Datatyp(siz) R M Lvl/name

     0-0-0/w UBIN(16)    r     1 KNT_WAIT_COUNT             0-0-0/w PTR         r     1 KNT_WAIT_HEAD$
     0-0-0/c CHAR(4)     r     1 K_CKSUM_INIT

  ****  BASED and DCB variables  ****

  ****  Scalars and arrays  ****
HexLoc.c.b A Datatyp(siz) R M Lvl/name                 HexLoc.c.b A Datatyp(siz) R M Lvl/name

     0-0-0/c CHAR(4)     r     1 B$CHAR4                    0-0-0/c ACHR        r     1 B$SPDU
     0-0-0/w STRC(56)    r     1 B$TPDU                     0-0-0/w STRC(40)    r     1 B$TPDU_DT
     0-0-0/w STRC(24)    r     1 B$TPDU_DT_0                0-0-0/w STRC(64)    r     1 B$TPDU_DT_EXT
     0-0-0/w STRC(128)   r     1 FRAG_HDR                   0-0-0/c STRC(32)    r     1 K$TPARM_CHKSUM
     0-0-0/c STRC(40)    r     1 K$TPDU_DT                  0-0-0/c STRC(24)    r     1 K$TPDU_DT_0
PL6.E3A0      #002=KNT$SAVE File=KNT$SEND.:E05TSI                                WED 07/30/97 01:12 Page:125
     0-0-0/c STRC(64)    r     1 K$TPDU_DT_EXT              0-0-0/w STRC(256)   r     1 KN$LDCT
     0-0-0/w STRC(2816)  r     1 KN$TCTX


   Procedure KNT$SAVE requires 1005 words for executable code.
   Procedure KNT$SAVE requires 40 words of local(AUTO) storage.
PL6.E3A0      #002=KNT$SAVE File=KNT$SEND.:E05TSI                                WED 07/30/97 01:12 Page:126
          *** CROSS REFERENCE LISTING ***
**     DENOTES     IDENTIFIER DEFINITION
<<                 IDENTIFIER'S VALUE SET
>>                 IDENTIFIER'S VALUE USED
<>                 IDENTIFIER SET AND/OR USED
--                 IDENTIFIER REFERENCED
PL6.E3A0      #002=KNT$SAVE File=KNT$SEND.:E05TSI                                WED 07/30/97 01:12 Page:127
          MINI XREF LISTING

B$CHAR4
      5122**DCL      6727<<ASSIGN   6727>>ASSIGN
B$SPDU
      5120**DCL      6716<<ASSIGN   6716>>ASSIGN
B$TPDU.CDT
      4892**DCL      6623<<ASSIGN
B$TPDU.DST_REF
      4903**DCL      6626<<ASSIGN
B$TPDU.LI
      4876**DCL      6550<<ASSIGN   6616<<ASSIGN
B$TPDU.TYPE
      4886**DCL      6620<<ASSIGN   6621<<ASSIGN
B$TPDU_DT.EOT
      4957**DCL      6641<<ASSIGN   6646<<ASSIGN
B$TPDU_DT.TPDU_NR
      4963**DCL      6631<<ASSIGN
B$TPDU_DT_0.EOT
      5066**DCL      6642<<ASSIGN   6647<<ASSIGN
B$TPDU_DT_0.TPDU_NR
      5072**DCL      6632<<ASSIGN
B$TPDU_DT_EXT.TPDU_NR
      5014**DCL      6629<<ASSIGN
BUFFER_TPDU
      4768**DCL      6549<<ASSIGN   6556<<ASSIGN   6638>>IF       6650>>IF
BUILD_TPDU_INFO
      6619**LABEL    6553--GOTO
CHECK_WINDOW
      6460**LABEL    6454--GOTO
CHKOFF
      4765**DCL      6519<<ASSIGN   6726>>ASSIGN   6728<>CALL
COMMON
      6500**LABEL    6465--GOTO     6493--GOTO     6497--GOTO     6501--GOTO
PL6.E3A0      #002=KNT$SAVE File=KNT$SEND.:E05TSI                                WED 07/30/97 01:12 Page:128
CTX$
      4751**DCL      5131--IMP-PTR  6460<<ASSIGN   6464>>IF       6464>>IF       6467>>IF       6467>>IF
      6469>>IF       6469>>IF       6469>>IF       6469>>IF       6473>>ASSIGN   6473>>ASSIGN   6475>>ASSIGN
      6480>>IF       6480>>IF       6480>>IF       6480>>IF       6483>>ASSIGN   6483>>ASSIGN   6483>>ASSIGN
      6487>>IF       6490>>ASSIGN   6490>>ASSIGN   6507<<ASSIGN   6511>>IF       6517>>IF       6523>>IF
      6529>>ASSIGN   6530>>ASSIGN   6547>>IF       6552>>IF       6566>>IF       6568>>ASSIGN   6569>>ASSIGN
      6580>>CALL     6592>>CALL     6595>>IF       6626>>ASSIGN   6628>>IF       6635>>IF       6724>>IF
      6739>>IF       6740>>ASSIGN   6741>>ASSIGN   6743>>ASSIGN   6745>>IF       6746>>ASSIGN   6750>>IF
      6751>>ASSIGN   6752>>ASSIGN   6754>>ASSIGN   6756>>IF       6757>>ASSIGN   6762>>ASSIGN   6763>>ASSIGN
      6767>>ASSIGN   6767>>ASSIGN   6768>>ASSIGN   6768>>ASSIGN
ENTRY_SWITCH
      4769**DCL      6453<<ASSIGN   6457<<ASSIGN   6496<<ASSIGN   6500<<ASSIGN   6513>>IF       6528>>IF
      6619>>IF       6625>>IF       6630>>IF       6640>>IF       6645>>IF       6737>>IF       6761>>IF
EXIT_SAVE
      6761**LABEL    6651--GOTO
EXTRA
      4766**DCL      6462<<ASSIGN   6473<<ASSIGN   6474>>IF       6475<<ASSIGN   6475>>ASSIGN   6483<<ASSIGN
      6487>>IF
FIRST_FRAG$
      4757**DCL      6505<<ASSIGN   6582>>IF       6583<<ASSIGN   6589>>DOWHILE  6590>>ASSIGN   6591<<ASSIGN
      6740>>ASSIGN   6741>>ASSIGN   6746>>ASSIGN   6751>>ASSIGN   6752>>ASSIGN   6757>>ASSIGN
FRAG$
      4756**DCL      4792--IMP-PTR  6580<>CALL     6583>>ASSIGN   6584>>ASSIGN   6585>>ASSIGN   6590<<ASSIGN
      6591>>ASSIGN   6592>>CALL     6611>>ASSIGN   6615>>ASSIGN
FRAGS#
      4767**DCL      6506<<ASSIGN   6731<<ASSIGN   6731>>ASSIGN   6765>>IF       6768>>ASSIGN
FRAG_HDR
      4792**DCL      6592<>CALL     6615--ASSIGN
FRAG_HDR.LINK$
      4817**DCL      6584<<ASSIGN   6591>>ASSIGN   6741<<ASSIGN   6752<<ASSIGN
FRAG_HDR.SEQ
      4805**DCL      4806--REDEF    6611<<ASSIGN
FRAG_SZ
      4759**DCL      6562<<ASSIGN   6566>>IF       6569<<ASSIGN   6580<>CALL     6616>>ASSIGN   6653>>ASSIGN
      6728<>CALL
K$TPARM_CHKSUM
PL6.E3A0      #002=KNT$SAVE File=KNT$SEND.:E05TSI                                WED 07/30/97 01:12 Page:129
      5096**DCL      6520--ASSIGN
K$TPDU_DT
      6294**DCL      6515--ASSIGN
K$TPDU_DT_0
      6408**DCL      6514--ASSIGN
K$TPDU_DT_EXT
      6344**DCL      6512--ASSIGN
KN$LDCT.FLAGS.QUEUED
      6225**DCL      6599>>IF       6601<<ASSIGN
KN$LDCT.LNK$
      6194**DCL      6602<<ASSIGN
KN$LDCT.RLCID.LDCTX
      6109**DCL      6116--REDEF    6124--REDEF
KN$LDCT.TRANSPORT_ID
      6143**DCL      6151--REDEF
KN$LDCT.UID
      6173**DCL      6174--REDEF    6183--REDEF
KN$NETPARM
      4609**DCL        50--PROC     6452--ENTRY    6456--ENTRY    6495--ENTRY    6499--ENTRY
KN$NETPARM.ERRCODE
      4716**DCL      6489<<ASSIGN   6607<<ASSIGN   6770>>IF
KN$NETPARM.LDCT$
      4610**DCL      6596>>ASSIGN
KN$NETPARM.MSG$
      4616**DCL      4621--REDEF    6540>>IF       6696>>IF       6698>>ASSIGN   6703<<ASSIGN   6708<<ASSIGN
      6708>>ASSIGN
KN$NETPARM.MSGSZ
      4627**DCL      6541>>ASSIGN   6699>>IF       6701>>ASSIGN   6702>>ASSIGN   6704<<ASSIGN   6709<<ASSIGN
      6709>>ASSIGN
KN$NETPARM.NHDR$
      4668**DCL      4669--REDEF
KN$NETPARM.SHDR$
      4646**DCL      4647--REDEF    6658>>IF       6665<<ASSIGN
KN$NETPARM.SHDRSZ
      4652**DCL      6535>>ASSIGN   6661>>IF       6663>>ASSIGN   6664>>ASSIGN   6666<<ASSIGN   6671<<ASSIGN
      6671>>ASSIGN
PL6.E3A0      #002=KNT$SAVE File=KNT$SEND.:E05TSI                                WED 07/30/97 01:12 Page:130
KN$NETPARM.SHDR_C$
      4647**DCL      6534>>IF       6660>>ASSIGN   6670<<ASSIGN   6670>>ASSIGN
KN$NETPARM.SLDCT$
      4723**DCL      6597>>ASSIGN
KN$NETPARM.TCTX$
      4733**DCL      6460>>ASSIGN   6507>>ASSIGN
KN$NETPARM.THDR$
      4657**DCL      4658--REDEF    6545>>ASSIGN
KN$NETPARM.THDRSZ
      4663**DCL      6526<<ASSIGN
KN$NETPARM.UHDR$
      4632**DCL      4633--REDEF    6677>>IF       6679>>ASSIGN   6684<<ASSIGN
KN$NETPARM.UHDRSZ
      4641**DCL      6538>>ASSIGN   6680>>IF       6682>>ASSIGN   6683>>ASSIGN   6685<<ASSIGN   6690<<ASSIGN
      6690>>ASSIGN
KN$NETPARM.UHDR_C$
      4633**DCL      6537>>IF       6689<<ASSIGN   6689>>ASSIGN
KN$TCTX
      5131**DCL      6580<>CALL     6592<>CALL
KN$TCTX.CLASS
      5197**DCL      6464>>IF       6547>>IF
KN$TCTX.DST_NSAP.ADDRESS_N
      6016**DCL      6017--REDEF
KN$TCTX.DST_REF
      5157**DCL      6626>>ASSIGN
KN$TCTX.MAXSEQ
      5235**DCL      6475>>ASSIGN   6483>>ASSIGN   6635>>IF
KN$TCTX.NODE
      5138**DCL      5151--REDEF
KN$TCTX.OPTION.CHKSUM
      5294**DCL      6517>>IF       6724>>IF
KN$TCTX.OPTION.CLASS_2_FLOW
      5269**DCL      6464>>IF
KN$TCTX.OPTION.EXTENDED
      5274**DCL      6511>>IF       6628>>IF
KN$TCTX.OPTION.OSI
PL6.E3A0      #002=KNT$SAVE File=KNT$SEND.:E05TSI                                WED 07/30/97 01:12 Page:131
      5259**DCL      6523>>IF
KN$TCTX.PRIMARY
      5376**DCL      6595>>IF
KN$TCTX.RCV_WINDOW_SZ
      5203**DCL      6487>>IF
KN$TCTX.SEND_EHEAD$
      5617**DCL      6750>>IF       6751<<ASSIGN
KN$TCTX.SEND_ENOTSENT$
      5630**DCL      6756>>IF       6757<<ASSIGN
KN$TCTX.SEND_ETAIL$
      5624**DCL      6752>>ASSIGN   6754<<ASSIGN
KN$TCTX.SEND_EXPD
      5584**DCL      6530>>ASSIGN   6763<<ASSIGN
KN$TCTX.SEND_HEAD$
      5592**DCL      6739>>IF       6740<<ASSIGN
KN$TCTX.SEND_LWE
      5559**DCL      6467>>IF       6469>>IF       6473>>ASSIGN   6480>>IF       6483>>ASSIGN
KN$TCTX.SEND_NEXT
      5575**DCL      6469>>IF       6469>>IF       6473>>ASSIGN   6480>>IF       6480>>IF       6483>>ASSIGN
      6529>>ASSIGN   6762<<ASSIGN
KN$TCTX.SEND_NOTSENT$
      5609**DCL      6745>>IF       6746<<ASSIGN
KN$TCTX.SEND_TAIL$
      5600**DCL      6741>>ASSIGN   6743<<ASSIGN
KN$TCTX.SEND_UWE
      5565**DCL      6467>>IF       6469>>IF       6480>>IF
KN$TCTX.SERR.BUF_OVFLOW
      5407**DCL      6490<<ASSIGN   6490>>ASSIGN
KN$TCTX.SGMENT_FRAGS
      5644**DCL      6768<<ASSIGN   6768>>ASSIGN
KN$TCTX.SGMENT_TSDUS
      5638**DCL      6767<<ASSIGN   6767>>ASSIGN
KN$TCTX.SRC_NSAP.ADDRESS_N
      5952**DCL      5953--REDEF
KN$TCTX.TMR_INACTIVITY.ARG
      5772**DCL      5773--REDEF
PL6.E3A0      #002=KNT$SAVE File=KNT$SEND.:E05TSI                                WED 07/30/97 01:12 Page:132
KN$TCTX.TMR_REFERENCE.ARG
      5802**DCL      5803--REDEF
KN$TCTX.TMR_RETRAN.ARG
      5713**DCL      5714--REDEF
KN$TCTX.TMR_WINDOW.ARG
      5742**DCL      5743--REDEF
KN$TCTX.TPDUSZ
      5234**DCL      6552>>IF       6566>>IF       6568>>ASSIGN   6569>>ASSIGN
KNA$CALC_CHKSUM
      6446**DCL-ENT  6728--CALL
KNT$GET_SBUF
      6444**DCL-ENT  6580--CALL
KNT$RELBUF
      6445**DCL-ENT  6592--CALL
KNT_WAIT_COUNT
      6441**DCL      6604<<ASSIGN   6604>>ASSIGN
KNT_WAIT_HEAD$
      6440**DCL      6602>>ASSIGN   6603<<ASSIGN
K_CKSUM_INIT
      6439**DCL      6727--ASSIGN
LAST_FRAG$
      4758**DCL      6584>>ASSIGN   6585<<ASSIGN   6743>>ASSIGN   6754>>ASSIGN
LDCT$
      4753**DCL      6596<<ASSIGN   6597<<ASSIGN   6599>>IF       6601>>ASSIGN   6602>>ASSIGN   6603>>ASSIGN
MOVE$
      4752**DCL      4753--REDEF    6660<<ASSIGN   6679<<ASSIGN   6698<<ASSIGN   6716>>ASSIGN   6718<<ASSIGN
      6718>>ASSIGN
MOVE_IT
      6704**LABEL    6674--GOTO     6693--GOTO     6712--GOTO
MOVE_SZ
      4763**DCL      5120--IMP-SIZ  5123--IMP-SIZ  5124--IMP-SIZ  6663<<ASSIGN   6669<<ASSIGN   6682<<ASSIGN
      6688<<ASSIGN   6701<<ASSIGN   6707<<ASSIGN   6716>>ASSIGN   6716>>ASSIGN   6717>>ASSIGN   6718>>ASSIGN
SEND_NEXT
      4764**DCL      6529<<ASSIGN   6530<<ASSIGN   6611>>ASSIGN   6629>>ASSIGN   6631>>ASSIGN   6634<<ASSIGN
      6634>>ASSIGN   6635>>IF       6636<<ASSIGN   6762>>ASSIGN   6763>>ASSIGN
SPDU$
PL6.E3A0      #002=KNT$SAVE File=KNT$SEND.:E05TSI                                WED 07/30/97 01:12 Page:133
      4755**DCL      6653<<ASSIGN   6716>>ASSIGN   6717<<ASSIGN   6717>>ASSIGN   6726<<ASSIGN   6727>>ASSIGN
SPDU_SZ
      4762**DCL      6532<<ASSIGN   6535<<ASSIGN   6535>>ASSIGN   6538<<ASSIGN   6538>>ASSIGN   6541<<ASSIGN
      6541>>ASSIGN   6552>>IF       6558>>DOWHILE  6562>>ASSIGN   6570<<ASSIGN   6570>>ASSIGN   6573>>ASSIGN
      6574<<ASSIGN   6638>>IF
THDR_SZ
      4760**DCL      6512<<ASSIGN   6514<<ASSIGN   6515<<ASSIGN   6519>>ASSIGN   6520<<ASSIGN   6520>>ASSIGN
      6524<<ASSIGN   6524>>ASSIGN   6526>>ASSIGN   6550>>ASSIGN   6552>>IF       6562>>ASSIGN   6568>>ASSIGN
THIS_SPDUSZ
      4761**DCL      6568<<ASSIGN   6570>>ASSIGN   6573<<ASSIGN   6616>>ASSIGN   6653>>ASSIGN   6656>>DOWHILE
      6661>>IF       6664<<ASSIGN   6664>>ASSIGN   6669>>ASSIGN   6670>>ASSIGN   6671>>ASSIGN   6672<<ASSIGN
      6680>>IF       6683<<ASSIGN   6683>>ASSIGN   6688>>ASSIGN   6689>>ASSIGN   6690>>ASSIGN   6691<<ASSIGN
      6699>>IF       6702<<ASSIGN   6702>>ASSIGN   6707>>ASSIGN   6708>>ASSIGN   6709>>ASSIGN   6710<<ASSIGN
TPDU$
      4754**DCL      4875--IMP-PTR  4935--IMP-PTR  4985--IMP-PTR  5049--IMP-PTR  6294--IMP-PTR  6344--IMP-PTR
      6408--IMP-PTR  6545<<ASSIGN   6550>>ASSIGN   6615<<ASSIGN   6616>>ASSIGN   6620>>ASSIGN   6621>>ASSIGN
      6623>>ASSIGN   6626>>ASSIGN   6629>>ASSIGN   6631>>ASSIGN   6632>>ASSIGN   6641>>ASSIGN   6642>>ASSIGN
      6646>>ASSIGN   6647>>ASSIGN   6653>>ASSIGN   6726>>ASSIGN   6728<>CALL

PL6.E3A0      #003=KNT$SAVE_FRAG File=KNT$SEND.:E05TSI                           WED 07/30/97 01:12 Page:134
      895        1        /*T***********************************************************/
      896        2        /*T*                                                         */
      897        3        /*T* Copyright (c) Bull HN Information Systems Inc., 1997    */
      898        4        /*T*                                                         */
      899        5        /*T***********************************************************/
      900        6
      901        7        /*M* KNT$SAVE_FRAG - Save data when it can't be sent on up to session. */
      902        8        /*X* PLM=3,IND=5,ENU=0,ECU=0 */
      903        9
      904       10        /*P* NAME: KNT$SAVE_FRAG
      905       11             PURPOSE:
      906       12                  To save the TPDUs for later delivery to session.
      907       13
      908       14             DESCRIPTION:
      909       15                  The buffer is obtained, filled, and linked.
      910       16
      911       17                  Called from KNT$RECV when an out of sequence or non-EOT
      912       18                  tpdu has been received from network,
      913       19                  when local session has been unable to accept the spdu, or
      914       20                  when network has been able to forward the tpdu to the host.
      915       21        */
      916       22        KNT$SAVE_FRAG: PROC(KN$TCTX,TPDU_NR,EOT,DATA$,DATASIZE)  ALTRET;
      917       23
      918       24        %INCLUDE K_ADDRESS_M;
      919      527        %INCLUDE KN_DATA_M;
      920     2313        %INCLUDE K_TRANSPORT_E;
      921     2638        %INCLUDE K_TRANSPORT_M;
      922     4422        %INCLUDE GH_SCHD_M;
      923     4566
      924     4567                                                /* Input parameters                   */
      925     4568        %K$TCTX (NAME=KN$TCTX, STCLASS="");
      926     5475    1   DCL DATA$ CPTR;
      927     5476    1   DCL DATASIZE SBIN;
      928     5477    1   DCL EOT BIT(1) ALIGNED;
      929     5478    1   DCL TPDU_NR UBIN(32);
      930     5479
      931     5480    1   DCL TPDU$ PTR;
PL6.E3A0      #003=KNT$SAVE_FRAG File=KNT$SEND.:E05TSI                           WED 07/30/97 01:12 Page:135
      932     5481    1   DCL TPDU_SZ UBIN;
      933     5482    1   DCL BLINK$ PTR;
      934     5483    1   DCL FLINK$ PTR;
      935     5484    1   DCL BUF$ PTR;
      936     5485
      937     5486                                                /* Based Data                         */
      938     5487        %K$FRAG_HDR (NAME=FRAG_HDR,STCLASS="BASED(BUF$)");
      939     5570    1   DCL B$TPDU CHAR(TPDU_SZ) BASED CALIGNED;
      940     5571
      941     5572                                                /* External routines                  */
      942     5573    1   DCL KNT$GET_RBUF ENTRY(3) ALTRET;
      943     5574
      944     5575        %EJECT;
PL6.E3A0      #003=KNT$SAVE_FRAG File=KNT$SEND.:E05TSI                           WED 07/30/97 01:12 Page:136
      945     5576    1      FLINK$ = KN$TCTX.RECV_HEAD$;
      946     5577    1      BLINK$ = ADDR(NIL);
      947     5578
      948     5579    2      DO WHILE (FLINK$ ~= ADDR(NIL) );
      949     5580    2           IF TPDU_NR = FLINK$->FRAG_HDR.SEQ
      950     5581    3           THEN DO;
      951     5582    3                KN$TCTX.RERR.DT_NWINDOW = KN$TCTX.RERR.DT_NWINDOW +1;
      952     5583    3                RETURN;
      953     5584    3                END;
      954     5585
      955     5586    2           IF ( ( TPDU_NR > FLINK$->FRAG_HDR.SEQ ) OR
      956     5587    2             ( (TPDU_NR <= KN$TCTX.RECV_LWE ) AND
      957     5588    2             (FLINK$->FRAG_HDR.SEQ > KN$TCTX.RECV_LWE) ) )
      958     5589    3           THEN DO;
      959     5590    3                BLINK$ = FLINK$;
      960     5591    3                FLINK$ = FLINK$->FRAG_HDR.LINK$;
      961     5592    3                END;
      962     5593
      963     5594    3           ELSE DO;                        /*insert in middle of chain*/
      964     5595    3   ADD_TO_END:  ;
      965     5596    3                CALL KNT$GET_RBUF(DATASIZE,BUF$,KN$TCTX)
      966     5597    4                WHENALTRETURN DO;
      967     5598    4                     ALTRETURN;
      968     5599    4                     END;
      969     5600
      970     5601    3                FRAG_HDR.SEQ = TPDU_NR;
      971     5602    3                FRAG_HDR.FLAGS.EOT = EOT;
      972     5603    3                TPDU$ = PINCRW(BUF$,SIZEW(FRAG_HDR));
      973     5604
      974     5605    3                TPDU_SZ = DATASIZE;
      975     5606    3                TPDU$->B$TPDU = DATA$->B$TPDU;
      976     5607    3                BUF$->FRAG_HDR.LINK$ = FLINK$;
      977     5608
      978     5609    3                IF BLINK$ ~= ADDR(NIL)
      979     5610    3                THEN BLINK$->FRAG_HDR.LINK$ = BUF$;
      980     5611    3                ELSE KN$TCTX.RECV_HEAD$ = BUF$;
      981     5612
PL6.E3A0      #003=KNT$SAVE_FRAG File=KNT$SEND.:E05TSI                           WED 07/30/97 01:12 Page:137
      982     5613    3                RETURN;
      983     5614    3                END;
      984     5615    2           END/*do while ptr$ ~ nil*/;
      985     5616
      986     5617    1      GOTO ADD_TO_END;
      987     5618
      988     5619
      989     5620    1   END KNT$SAVE_FRAG;
      990     5621        %EOD;

PL6.E3A0      #003=KNT$SAVE_FRAG File=KNT$SEND.:E05TSI                           WED 07/30/97 01:12 Page:138
--  Include file information  --

   GH_SCHD_M.:E05TOU  is referenced.
   K_TRANSPORT_M.:E05TOU  is referenced.
   K_TRANSPORT_E.:E05TOU  is referenced.
   KN_DATA_M.:E05TOU  is referenced.
   K_ADDRESS_M.:E05TOU  is referenced.
   G_LCP6_E.:E05TOU  was found in the system file and is never referenced.
   GT_LCP6_M.:E05TOU  was found in the system file and is never referenced.
   KI_CP6.:E05TOU  was found in the system file and is never referenced.
   GF_LCP6_M.:E05TOU  was found in the system file and is never referenced.
   GM_LCP6_M.:E05TOU  was found in the system file and is never referenced.
   GU_LCP6_M.:E05TOU  was found in the system file and is never referenced.
   GJ_LCP6_M.:E05TOU  was found in the system file and is never referenced.
   GH_LCP6_M.:E05TOU  was found in the system file and is never referenced.
      No diagnostics issued in procedure KNT$SAVE_FRAG.

   Procedure KNT$SAVE_FRAG requires 176 words for executable code.
   Procedure KNT$SAVE_FRAG requires 30 words of local(AUTO) storage.

PL6.E3A0      #003=KNT$SAVE_FRAG File=KNT$SEND.:E05TSI                           WED 07/30/97 01:12 Page:139

 Object Unit name= KNT$SAVE_FRAG                              File name= KNT$SEND.:E05TOU
 UTS= JUL 30 '97 01:12:51.32 WED                              Compiler= PL-6/E31         Sev=      00
 SharedLib= :SHARED_LCP6_SYSTEM                               Alt SharedLib=


    ****  Control sections  ****

 Sect   Type Bound  Init  Size HexSiz  Section name
    0   Proc  even  none   176     B0  KNT$SAVE_FRAG

    ****  Entry defs  ****

                              Check   Calling
                             calling  sequence
  Sect HexLoc Primary Altret sequence   type   Parms  Name
     0      0   yes    yes     yes      Std        5  KNT$SAVE_FRAG

  ****  Entry refs  ****

         Check        Calling
        calling       sequence
Altret sequence SRef   type   Args  Name
 yes     yes           Std       3 KNT$GET_RBUF
                       nStd      0 X6A_AUTO_N
                       nStd      0 X6A_ARET
                       nStd      0 X6A_AALT

  ****  Data refs  ****

  Flags:  r = read only, s = secondary
Flgs Name                             Flgs Name                             Flgs Name
r    G$ROS$
PL6.E3A0      #003=KNT$SAVE_FRAG File=KNT$SEND.:E05TSI                           WED 07/30/97 01:12 Page:140


      895        1        /*T***********************************************************/
      896        2        /*T*                                                         */
      897        3        /*T* Copyright (c) Bull HN Information Systems Inc., 1997    */
      898        4        /*T*                                                         */
      899        5        /*T***********************************************************/
      900        6
      901        7        /*M* KNT$SAVE_FRAG - Save data when it can't be sent on up to session. */
      902        8        /*X* PLM=3,IND=5,ENU=0,ECU=0 */
      903        9
      904       10        /*P* NAME: KNT$SAVE_FRAG
      905       11             PURPOSE:
      906       12                  To save the TPDUs for later delivery to session.
      907       13
      908       14             DESCRIPTION:
      909       15                  The buffer is obtained, filled, and linked.
      910       16
      911       17                  Called from KNT$RECV when an out of sequence or non-EOT
      912       18                  tpdu has been received from network,
      913       19                  when local session has been unable to accept the spdu, or
      914       20                  when network has been able to forward the tpdu to the host.
      915       21        */
      916       22        KNT$SAVE_FRAG: PROC(KN$TCTX,TPDU_NR,EOT,DATA$,DATASIZE)  ALTRET;

     22   0 000000  D380 0000 0000  xent KNT$SAVE_FRAG   LNJ,B5   X6A_AUTO_N
          0 000003       001E 0005                       DC       30,5

      917       23
      918       24        %INCLUDE K_ADDRESS_M;
      919      527        %INCLUDE KN_DATA_M;
      920     2313        %INCLUDE K_TRANSPORT_E;
      921     2638        %INCLUDE K_TRANSPORT_M;
      922     4422        %INCLUDE GH_SCHD_M;
      923     4566
      924     4567                                                /* Input parameters                   */
      925     4568        %K$TCTX (NAME=KN$TCTX, STCLASS="");
      926     5475    1   DCL DATA$ CPTR;
PL6.E3A0      #003=KNT$SAVE_FRAG File=KNT$SEND.:E05TSI                           WED 07/30/97 01:12 Page:141
      927     5476    1   DCL DATASIZE SBIN;
      928     5477    1   DCL EOT BIT(1) ALIGNED;
      929     5478    1   DCL TPDU_NR UBIN(32);
      930     5479
      931     5480    1   DCL TPDU$ PTR;
      932     5481    1   DCL TPDU_SZ UBIN;
      933     5482    1   DCL BLINK$ PTR;
      934     5483    1   DCL FLINK$ PTR;
      935     5484    1   DCL BUF$ PTR;
      936     5485
      937     5486                                                /* Based Data                         */
      938     5487        %K$FRAG_HDR (NAME=FRAG_HDR,STCLASS="BASED(BUF$)");
      939     5570    1   DCL B$TPDU CHAR(TPDU_SZ) BASED CALIGNED;
      940     5571
      941     5572                                                /* External routines                  */
      942     5573    1   DCL KNT$GET_RBUF ENTRY(3) ALTRET;
      943     5574
      944     5575        %EJECT;
PL6.E3A0      #003=KNT$SAVE_FRAG File=KNT$SEND.:E05TSI                           WED 07/30/97 01:12 Page:142
      945     5576    1      FLINK$ = KN$TCTX.RECV_HEAD$;

   5576   0 000005  ECC7 0004                            LDB,B6   @KN$TCTX,AUTO
          0 000007  DCC6 002A                            LDB,B5   42,B6
          0 000009  DFC7 0013                            STB,B5   FLINK$,AUTO

      946     5577    1      BLINK$ = ADDR(NIL);

   5577   0 00000B  CB80 0000 0000                       LAB,B4   0
          0 00000E  CFC7 0011                            STB,B4   BLINK$,AUTO

      947     5578
      948     5579    2      DO WHILE (FLINK$ ~= ADDR(NIL) );

   5579   0 000010  0F81 0099                            B        s:5615,PREL

      949     5580    2           IF TPDU_NR = FLINK$->FRAG_HDR.SEQ

   5580   0 000012  ECC7 0013                            LDB,B6   FLINK$,AUTO
          0 000014  DCC7 0006                            LDB,B5   @TPDU_NR,AUTO
          0 000016  8C85                                 LDI      ,B5
          0 000017  84C6 0002                            SID      2,B6
          0 000019  6981 000A                            BNEZ,R6  s:5586,PREL
          0 00001B  7981 0008                            BNEZ,R7  s:5586,PREL

      950     5581    3           THEN DO;

      951     5582    3                KN$TCTX.RERR.DT_NWINDOW = KN$TCTX.RERR.DT_NWINDOW +1;

   5582   0 00001D  CCC7 0004                            LDB,B4   @KN$TCTX,AUTO
          0 00001F  8AC4 0017                            INC      23,B4

      952     5583    3                RETURN;

   5583   0 000021  C380 0000 0000  xent                 LNJ,B4   X6A_ARET

      953     5584    3                END;
PL6.E3A0      #003=KNT$SAVE_FRAG File=KNT$SEND.:E05TSI                           WED 07/30/97 01:12 Page:143
      954     5585
      955     5586    2           IF ( ( TPDU_NR > FLINK$->FRAG_HDR.SEQ ) OR

   5586   0 000024  8C85                                 LDI      ,B5
          0 000025  84C6 0002                            SID      2,B6
          0 000027  6981 0003                            BNEZ,R6  s:5586+7,PREL
          0 000029  7901 0003                            BEZ,R7   s:5586+9,PREL
          0 00002B  0601 0016                            BCT      s:5590,PREL
          0 00002D  CCC7 0004                            LDB,B4   @KN$TCTX,AUTO
          0 00002F  8C85                                 LDI      ,B5
          0 000030  84C4 0022                            SID      34,B4
          0 000032  6981 0003                            BNEZ,R6  s:5586+18,PREL
          0 000034  7901 0003                            BEZ,R7   s:5586+20,PREL
          0 000036  0601 0013                            BCT      s:5594,PREL
          0 000038  8CC6 0002                            LDI      2,B6
          0 00003A  84C4 0022                            SID      34,B4
          0 00003C  0681 000D                            BCF      s:5594,PREL
          0 00003E  6981 0003                            BNEZ,R6  s:5590,PREL
          0 000040  7901 0009                            BEZ,R7   s:5594,PREL

      956     5587    2             ( (TPDU_NR <= KN$TCTX.RECV_LWE ) AND
      957     5588    2             (FLINK$->FRAG_HDR.SEQ > KN$TCTX.RECV_LWE) ) )
      958     5589    3           THEN DO;

      959     5590    3                BLINK$ = FLINK$;

   5590   0 000042  EFC7 0011                            STB,B6   BLINK$,AUTO

      960     5591    3                FLINK$ = FLINK$->FRAG_HDR.LINK$;

   5591   0 000044  CCC6 0004                            LDB,B4   4,B6
          0 000046  CFC7 0013                            STB,B4   FLINK$,AUTO

      961     5592    3                END;

   5592   0 000048  0F81 0061                            B        s:5615,PREL

PL6.E3A0      #003=KNT$SAVE_FRAG File=KNT$SEND.:E05TSI                           WED 07/30/97 01:12 Page:144
      962     5593
      963     5594    3           ELSE DO;                        /*insert in middle of chain*/

   5591   0                              ADD_TO_END      null
      964     5595    3   ADD_TO_END:  ;
      965     5596    3                CALL KNT$GET_RBUF(DATASIZE,BUF$,KN$TCTX)

   5596   0 00004A  ECC7 0004            ADD_TO_END      LDB,B6   @KN$TCTX,AUTO
          0 00004C  EFC7 001C                            STB,B6   BUF$+7,AUTO
          0 00004E  DBC7 0015                            LAB,B5   BUF$,AUTO
          0 000050  DFC7 001A                            STB,B5   BUF$+5,AUTO
          0 000052  CCC7 000C                            LDB,B4   @DATASIZE,AUTO
          0 000054  CFC7 0018                            STB,B4   BUF$+3,AUTO
          0 000056  BBC7 0018                            LAB,B3   BUF$+3,AUTO
          0 000058  CBF0 0300                            LAB,B4   768,IMO
          0 00005A  E380 0000 0000  xent                 LNJ,B6   KNT$GET_RBUF
          0 00005D       0003                            DC       s:5598,PREL
          0 00005E  0F81 0004                            B        s:5601,PREL

      966     5597    4                WHENALTRETURN DO;

      967     5598    4                     ALTRETURN;

   5598   0 000060  C380 0000 0000  xent                 LNJ,B4   X6A_AALT

      968     5599    4                     END;
      969     5600
      970     5601    3                FRAG_HDR.SEQ = TPDU_NR;

   5601   0 000063  ECC7 0006                            LDB,B6   @TPDU_NR,AUTO
          0 000065  8C86                                 LDI      ,B6
          0 000066  DCC7 0015                            LDB,B5   BUF$,AUTO
          0 000068  8D45 0002                            SDI      2,B5

      971     5602    3                FRAG_HDR.FLAGS.EOT = EOT;

   5602   0 00006A  DCC7 0008                            LDB,B5   @EOT,AUTO
PL6.E3A0      #003=KNT$SAVE_FRAG File=KNT$SEND.:E05TSI                           WED 07/30/97 01:12 Page:145
          0 00006C  E805                                 LDR,R6   ,B5
          0 00006D  604F                                 SOR,R6   15
          0 00006E  CCC7 0015                            LDB,B4   BUF$,AUTO
          0 000070  EAC4 0006                            SRM,R6,'0001'X    6,B4
          0 000072       0001

      972     5603    3                TPDU$ = PINCRW(BUF$,SIZEW(FRAG_HDR));

   5603   0 000073  CCC7 0015                            LDB,B4   BUF$,AUTO
          0 000075  BBC4 0008                            LAB,B3   8,B4
          0 000077  BFC7 000E                            STB,B3   TPDU$,AUTO

      973     5604
      974     5605    3                TPDU_SZ = DATASIZE;

   5605   0 000079  ACC7 000C                            LDB,B2   @DATASIZE,AUTO
          0 00007B  E802                                 LDR,R6   ,B2
          0 00007C  EF47 0010                            STR,R6   TPDU_SZ,AUTO

      975     5606    3                TPDU$->B$TPDU = DATA$->B$TPDU;

   5606   0 00007E  9CC7 000A                            LDB,B1   @DATA$,AUTO
          0 000080  8C81                                 LDI      ,B1
          0 000081  B856                                 LDR,R3   R6
          0 000082  E570 7FFF                            AND,R6   32767,IMO
          0 000084  8D47 0018                            SDI      BUF$+3,AUTO
          0 000086  ECC7 0018                            LDB,B6   BUF$+3,AUTO
          0 000088  304F                                 SOR,R3   15
          0 000089  AB86                                 LAB,B2   ,B6
          0 00008A  A853                                 LDR,R2   R3
          0 00008B  E847 0010                            LDR,R6   TPDU_SZ,AUTO
          0 00008D  3C00                                 LDV,R3   0
          0 00008E  0008                                 MMM

      976     5607    3                BUF$->FRAG_HDR.LINK$ = FLINK$;

   5607   0 00008F  CCC7 0013                            LDB,B4   FLINK$,AUTO
PL6.E3A0      #003=KNT$SAVE_FRAG File=KNT$SEND.:E05TSI                           WED 07/30/97 01:12 Page:146
          0 000091  BCC7 0015                            LDB,B3   BUF$,AUTO
          0 000093  CFC3 0004                            STB,B4   4,B3

      977     5608
      978     5609    3                IF BLINK$ ~= ADDR(NIL)

   5609   0 000095  8DC7 0011                            CMN      BLINK$,AUTO
          0 000097  0901 0009                            BE       s:5611,PREL

      979     5610    3                THEN BLINK$->FRAG_HDR.LINK$ = BUF$;

   5610   0 000099  BCC7 0015                            LDB,B3   BUF$,AUTO
          0 00009B  ECC7 0011                            LDB,B6   BLINK$,AUTO
          0 00009D  BFC6 0004                            STB,B3   4,B6
          0 00009F  0F81 0007                            B        s:5613,PREL

      980     5611    3                ELSE KN$TCTX.RECV_HEAD$ = BUF$;

   5611   0 0000A1  BCC7 0015                            LDB,B3   BUF$,AUTO
          0 0000A3  ECC7 0004                            LDB,B6   @KN$TCTX,AUTO
          0 0000A5  BFC6 002A                            STB,B3   42,B6

      981     5612
      982     5613    3                RETURN;

   5613   0 0000A7  C380 0000 0000  xent                 LNJ,B4   X6A_ARET

      983     5614    3                END;
      984     5615    2           END/*do while ptr$ ~ nil*/;

   5615   0 0000AA  8DC7 0013                            CMN      FLINK$,AUTO
          0 0000AC  0981 FF65                            BNE      s:5580,PREL

      985     5616
      986     5617    1      GOTO ADD_TO_END;

   5617   0 0000AE  0F81 FF9B                            B        s:5594,PREL
PL6.E3A0      #003=KNT$SAVE_FRAG File=KNT$SEND.:E05TSI                           WED 07/30/97 01:12 Page:147
      987     5618
      988     5619
      989     5620    1   END KNT$SAVE_FRAG;
      990     5621        %EOD;

PL6.E3A0      #003=KNT$SAVE_FRAG File=KNT$SEND.:E05TSI                           WED 07/30/97 01:12 Page:148
--  Include file information  --

   GH_SCHD_M.:E05TOU  is referenced.
   K_TRANSPORT_M.:E05TOU  is referenced.
   K_TRANSPORT_E.:E05TOU  is referenced.
   KN_DATA_M.:E05TOU  is referenced.
   K_ADDRESS_M.:E05TOU  is referenced.
   G_LCP6_E.:E05TOU  was found in the system file and is never referenced.
   GT_LCP6_M.:E05TOU  was found in the system file and is never referenced.
   KI_CP6.:E05TOU  was found in the system file and is never referenced.
   GF_LCP6_M.:E05TOU  was found in the system file and is never referenced.
   GM_LCP6_M.:E05TOU  was found in the system file and is never referenced.
   GU_LCP6_M.:E05TOU  was found in the system file and is never referenced.
   GJ_LCP6_M.:E05TOU  was found in the system file and is never referenced.
   GH_LCP6_M.:E05TOU  was found in the system file and is never referenced.
      No diagnostics issued in procedure KNT$SAVE_FRAG.
PL6.E3A0      #003=KNT$SAVE_FRAG File=KNT$SEND.:E05TSI                           WED 07/30/97 01:12 Page:149

 **** Variables and constants ****

  ****  Auto variables  ****

  ****  Scalars and arrays  ****
HexLoc.c.b A Datatyp(siz) R M Lvl/name                 HexLoc.c.b A Datatyp(siz) R M Lvl/name

     A-0-0/w PTR         r     1 @DATA$                     C-0-0/w PTR         r     1 @DATASIZE
     8-0-0/w PTR         r     1 @EOT                       4-0-0/w PTR         r     1 @KN$TCTX
     6-0-0/w PTR         r     1 @TPDU_NR                  11-0-0/w PTR         r     1 BLINK$
    15-0-0/w PTR         r     1 BUF$                      *0-0-0/w PTR         r     1 DATA$
    *0-0-0/w SBIN(16)    r     1 DATASIZE                  *0-0-0/w BIT         r     1 EOT
    13-0-0/w PTR         r     1 FLINK$                    *0-0-0/w STRC(2816)  r     1 KN$TCTX
     E-0-0/w PTR         r     1 TPDU$                     *0-0-0/w UBIN(32)    r     1 TPDU_NR
    10-0-0/w UBIN(16)    r     1 TPDU_SZ

  ****  BASED and DCB variables  ****

  ****  Scalars and arrays  ****
HexLoc.c.b A Datatyp(siz) R M Lvl/name                 HexLoc.c.b A Datatyp(siz) R M Lvl/name

     0-0-0/c ACHR        r     1 B$TPDU                     0-0-0/w STRC(128)   r     1 FRAG_HDR


   Procedure KNT$SAVE_FRAG requires 176 words for executable code.
   Procedure KNT$SAVE_FRAG requires 30 words of local(AUTO) storage.
PL6.E3A0      #003=KNT$SAVE_FRAG File=KNT$SEND.:E05TSI                           WED 07/30/97 01:12 Page:150
          *** CROSS REFERENCE LISTING ***
**     DENOTES     IDENTIFIER DEFINITION
<<                 IDENTIFIER'S VALUE SET
>>                 IDENTIFIER'S VALUE USED
<>                 IDENTIFIER SET AND/OR USED
--                 IDENTIFIER REFERENCED
PL6.E3A0      #003=KNT$SAVE_FRAG File=KNT$SEND.:E05TSI                           WED 07/30/97 01:12 Page:151
          MINI XREF LISTING

ADD_TO_END
      5591**LABEL    5617--GOTO
B$TPDU
      5570**DCL      5606<<ASSIGN   5606>>ASSIGN
BLINK$
      5482**DCL      5577<<ASSIGN   5590<<ASSIGN   5609>>IF       5610>>ASSIGN
BUF$
      5484**DCL      5504--IMP-PTR  5596<>CALL     5601>>ASSIGN   5602>>ASSIGN   5603>>ASSIGN   5607>>ASSIGN
      5610>>ASSIGN   5611>>ASSIGN
DATA$
      5475**DCL        22--PROC     5606>>ASSIGN
DATASIZE
      5476**DCL        22--PROC     5596<>CALL     5605>>ASSIGN
EOT
      5477**DCL        22--PROC     5602>>ASSIGN
FLINK$
      5483**DCL      5576<<ASSIGN   5579>>DOWHILE  5580>>IF       5586>>IF       5586>>IF       5590>>ASSIGN
      5591<<ASSIGN   5591>>ASSIGN   5607>>ASSIGN
FRAG_HDR
      5504**DCL      5603--ASSIGN
FRAG_HDR.FLAGS.EOT
      5558**DCL      5602<<ASSIGN
FRAG_HDR.LINK$
      5529**DCL      5591>>ASSIGN   5607<<ASSIGN   5610<<ASSIGN
FRAG_HDR.SEQ
      5517**DCL      5518--REDEF    5580>>IF       5586>>IF       5586>>IF       5601<<ASSIGN
KN$TCTX
      4573**DCL        22--PROC     5596<>CALL
KN$TCTX.DST_NSAP.ADDRESS_N
      5458**DCL      5459--REDEF
KN$TCTX.NODE
      4580**DCL      4593--REDEF
PL6.E3A0      #003=KNT$SAVE_FRAG File=KNT$SEND.:E05TSI                           WED 07/30/97 01:12 Page:152
KN$TCTX.RECV_HEAD$
      4979**DCL      5576>>ASSIGN   5611<<ASSIGN
KN$TCTX.RECV_LWE
      4941**DCL      5586>>IF       5586>>IF
KN$TCTX.RERR.DT_NWINDOW
      4891**DCL      5582<<ASSIGN   5582>>ASSIGN
KN$TCTX.SRC_NSAP.ADDRESS_N
      5394**DCL      5395--REDEF
KN$TCTX.TMR_INACTIVITY.ARG
      5214**DCL      5215--REDEF
KN$TCTX.TMR_REFERENCE.ARG
      5244**DCL      5245--REDEF
KN$TCTX.TMR_RETRAN.ARG
      5155**DCL      5156--REDEF
KN$TCTX.TMR_WINDOW.ARG
      5184**DCL      5185--REDEF
KNT$GET_RBUF
      5573**DCL-ENT  5596--CALL
TPDU$
      5480**DCL      5603<<ASSIGN   5606>>ASSIGN
TPDU_NR
      5478**DCL        22--PROC     5580>>IF       5586>>IF       5586>>IF       5601>>ASSIGN
TPDU_SZ
      5481**DCL      5570--IMP-SIZ  5605<<ASSIGN   5606>>ASSIGN   5606>>ASSIGN

