VERSION E05

PL6.E3A0      #001=KNT_FMT_E File=KNT_FMT_E.:E05TSI                              TUE 07/29/97 07:23 Page:1
        1        1        /*M* KNT_FMT_E - Equ values for fep transport displays      */
        2        2        /*T***********************************************************/
        3        3        /*T*                                                         */
        4        4        /*T* Copyright (c) Bull HN Information Systems Inc., 1997    */
        5        5        /*T*                                                         */
        6        6        /*T***********************************************************/
        7        7        /* The OU is an include file built by DRAW using: (PL6,BI=4) */
        8        8        KNT_FMT_E: PROC;
        9        9
       10       10        %INCLUDE KN_DATA_M;
       11     1796        %INCLUDE GH_SCHD_M;
       12     1940        %INCLUDE K_ADDRESS_M;
       13     2443
       14     2444        %LIST;
       15     2445        %K$TCTX (NAME=KN$TCTX);
              2446         %LSET LISTDIR='0'B;
              2450    1   DCL 1 KN$TCTX BASED ALIGNED,
              2451    1         2 STATE UBIN BYTE CALIGNED,
              2457    1         2 NODE UBIN BYTE CALIGNED,
              2470    1         2 LDCTX# REDEF NODE UBIN BYTE CALIGNED,
              2476    1         2 DST_REF UBIN(16) CALIGNED,
              2484    1         2 SRC_REF UBIN(16) CALIGNED,
              2492    1         2 HOST_REF UBIN(16) CALIGNED,
              2499    1         2 HOST_NODE UBIN BYTE CALIGNED,
              2505    1         2 QOS UBIN BYTE CALIGNED,
              2516    1         2 CLASS UBIN BYTE CALIGNED,
              2522    1         2 RCV_WINDOW_SZ UBIN BYTE CALIGNED,
              2534    1         2 LNK$ PTR CALIGNED,
              2551    1         2 VERS UBIN BYTE CALIGNED,
              2552    1         2 TPDUSZ_PARM UBIN BYTE CALIGNED,
              2553    1         2 TPDUSZ UBIN(16) CALIGNED,
              2554    1         2 MAXSEQ UBIN(32) CALIGNED,
              2555    1         2 OPTION,
              2557    1           3 * BIT(1),
              2559    1           3 * BIT(8),
              2561    1           3 * BIT(1),
              2563    1           3 * BIT(1),
PL6.E3A0      #001=KNT_FMT_E File=KNT_FMT_E.:E05TSI                              TUE 07/29/97 07:23 Page:2
              2564    1           3 TRACE BIT(1),
              2569    1           3 CONS BIT(1) UNAL,
              2578    1           3 OSI BIT(1) UNAL,
              2588    1           3 CLASS_2_FLOW BIT(1) UNAL,
              2593    1           3 EXTENDED BIT(1) UNAL,
              2601    1           3 EXPEDITED BIT(1) UNAL,
              2613    1           3 CHKSUM BIT(1) UNAL,
              2626    1         2 FLAGS,
              2627    1           3 * BIT(1) UNAL,
              2631    1         3 * BIT(8) UNAL,
              2633    1           3 * BIT(1) UNAL,
              2635    1         3 LOST_TPDU BIT(1) UNAL,
              2643    1         3 NEED_ASSMBUF BIT(1) UNAL,
              2651    1         3 WAIT_4OPEN BIT(1) UNAL,
              2665    1         3 FLOW_CONTROLLED BIT(1) UNAL,
              2678    1         3 HOST_CQ_FULL BIT(1) UNAL,
              2687    1         3 OUTBOUND BIT(1) UNAL,
              2691    1         3 INBOUND BIT(1) UNAL,
              2695    1         3 PRIMARY BIT(1) UNAL,
              2701    1         2 REASON UBIN BYTE CALIGNED,
              2707    1         2 ERR UBIN BYTE CALIGNED,
              2713    1         2 SERR CALIGNED,
              2714    1           3 NOT_OPEN UBIN(16) CALIGNED,
              2720    1           3 NOBUF UBIN(16) CALIGNED,
              2726    1           3 BUF_OVFLOW UBIN(16) CALIGNED,
              2736    1           3 DT_NWINDOW UBIN(16) CALIGNED,
              2742    1           3 NOQ UBIN(16) CALIGNED,
              2750    1           3 RETRAN UBIN(16) CALIGNED,
              2755    1         2 RERR CALIGNED,
              2756    1           3 CHKSUM UBIN(16) CALIGNED,
              2762    1           3 NOBUF UBIN(16) CALIGNED,
              2768    1           3 DT_NWINDOW UBIN(16) CALIGNED,
              2775    1           3 LOST_TPDU UBIN(16) CALIGNED,
              2780    1           3 AK_NWINDOW UBIN(16) CALIGNED,
              2786    1           3 AK_SUBSEQ UBIN(16) CALIGNED,
              2792    1           3 TBUF_NOQ UBIN(16) CALIGNED,
              2799    1           3 NBUF_NOQ UBIN(16) CALIGNED,
PL6.E3A0      #001=KNT_FMT_E File=KNT_FMT_E.:E05TSI                              TUE 07/29/97 07:23 Page:3
              2806    1           3 NSESS_CDT UBIN(16) CALIGNED,
              2813    1         2 RECV_BUFF,
              2814    1           3 CUR UBIN(16) CALIGNED,
              2815    1           3 PEAK UBIN(16) CALIGNED,
              2816    1           3 BYTES_CUR UBIN(16) CALIGNED,
              2817    1           3 BYTES_PEAK UBIN(16) CALIGNED,
              2818    1         2 RECV_LWE UBIN(32) CALIGNED,
              2828    1         2 RECV_UWE UBIN(32) CALIGNED,
              2837    1         2 RECV_NEXT UBIN(32) CALIGNED,
              2848    1         2 RECV_EXPD UBIN(32) CALIGNED,
              2856    1         2 RECV_HEAD$ PTR CALIGNED,
              2867    1         2 RECV_EHEAD$ PTR CALIGNED,
              2873    1         2 SEND_BUFF,
              2874    1           3 CUR UBIN(16) CALIGNED,
              2875    1           3 PEAK UBIN(16) CALIGNED,
              2876    1           3 BYTES_CUR UBIN(16) CALIGNED,
              2877    1           3 BYTES_PEAK UBIN(16) CALIGNED,
              2878    1         2 SEND_LWE  UBIN(32) CALIGNED,
              2884    1         2 SEND_UWE  UBIN(32) CALIGNED,
              2894    1         2 SEND_NEXT UBIN(32) CALIGNED,
              2903    1         2 SEND_EXPD UBIN(32) CALIGNED,
              2911    1         2 SEND_HEAD$ PTR CALIGNED,
              2919    1         2 SEND_TAIL$ PTR CALIGNED,
              2928    1         2 SEND_NOTSENT$ PTR CALIGNED,
              2936    1         2 SEND_EHEAD$ PTR CALIGNED,
              2943    1         2 SEND_ETAIL$ PTR CALIGNED,
              2949    1         2 SEND_ENOTSENT$ PTR CALIGNED,
              2957    1         2 SGMENT_TSDUS UBIN(16) CALIGNED,
              2963    1         2 SGMENT_FRAGS UBIN(16) CALIGNED,
              2969    1         2 REASSM_TSDUS UBIN(16) CALIGNED,
              2974    1         2 REASSM_FRAGS UBIN(16) CALIGNED,
              2979    1         2 SSN_CRDT SBIN(16) CALIGNED,
              2987    1         2 * SBIN(16) CALIGNED,
              2988    1         2 SEND_SUBSEQ UBIN(16) CALIGNED,
              2994    1         2 SEND_RETRY_COUNT UBIN BYTE CALIGNED,
              3005    1         2 * UBIN BYTE CALIGNED,
              3006    1         2 TMR_COUNT(0:3) UBIN BYTE CALIGNED,
PL6.E3A0      #001=KNT_FMT_E File=KNT_FMT_E.:E05TSI                              TUE 07/29/97 07:23 Page:4
              3030    1   2 TMR_RETRAN CALIGNED,
              3032    1   3 PROC$ EPTR CALIGNED /*(ENTADDR(NIL))*/,3 ARG UBIN(16)CALIGNED /*(0)*/,
              3033    1   3 CLOCK_ID REDEF ARG,4 TCTX UBIN(8)CALIGNED,4 TMR UBIN(8)CALIGNED,3 INTERVAL
              3034    1   UBIN(16)CALIGNED /*(0)*/,3 WAKEUP UBIN(32)CALIGNED /*(0)*/,3 FLINK$ PTR CALIGNED /*(
              3034            ADDR(NIL)
              3035    1   )*/,3 BLINK$ PTR CALIGNED /*(ADDR(NIL))*/ ,
              3059    1   2 TMR_WINDOW CALIGNED,
              3061    1   3 PROC$ EPTR CALIGNED /*(ENTADDR(NIL))*/,3 ARG UBIN(16)CALIGNED /*(0)*/,
              3062    1   3 CLOCK_ID REDEF ARG,4 TCTX UBIN(8)CALIGNED,4 TMR UBIN(8)CALIGNED,3 INTERVAL
              3063    1   UBIN(16)CALIGNED /*(0)*/,3 WAKEUP UBIN(32)CALIGNED /*(0)*/,3 FLINK$ PTR CALIGNED /*(
              3063            ADDR(NIL)
              3064    1   )*/,3 BLINK$ PTR CALIGNED /*(ADDR(NIL))*/ ,
              3089    1   2 TMR_INACTIVITY CALIGNED,
              3091    1   3 PROC$ EPTR CALIGNED /*(ENTADDR(NIL))*/,3 ARG UBIN(16)CALIGNED /*(0)*/,
              3092    1   3 CLOCK_ID REDEF ARG,4 TCTX UBIN(8)CALIGNED,4 TMR UBIN(8)CALIGNED,3 INTERVAL
              3093    1   UBIN(16)CALIGNED /*(0)*/,3 WAKEUP UBIN(32)CALIGNED /*(0)*/,3 FLINK$ PTR CALIGNED /*(
              3093            ADDR(NIL)
              3094    1   )*/,3 BLINK$ PTR CALIGNED /*(ADDR(NIL))*/ ,
              3119    1   2 TMR_REFERENCE CALIGNED,
              3121    1   3 PROC$ EPTR CALIGNED /*(ENTADDR(NIL))*/,3 ARG UBIN(16)CALIGNED /*(0)*/,
              3122    1   3 CLOCK_ID REDEF ARG,4 TCTX UBIN(8)CALIGNED,4 TMR UBIN(8)CALIGNED,3 INTERVAL
              3123    1   UBIN(16)CALIGNED /*(0)*/,3 WAKEUP UBIN(32)CALIGNED /*(0)*/,3 FLINK$ PTR CALIGNED /*(
              3123            ADDR(NIL)
              3124    1   )*/,3 BLINK$ PTR CALIGNED /*(ADDR(NIL))*/ ,
              3153    1       2 SRC_TSAP CALIGNED,
              3155    1           3 LEN  UBIN(18) UNAL /*(0)*/,
              3163    1             3 TSAP CHAR(32) CALIGNED /*(' ')*/ ,
              3197    1       2 DST_TSAP CALIGNED,
              3199    1           3 LEN  UBIN(18) UNAL /*(0)*/,
              3207    1             3 TSAP CHAR(32) CALIGNED /*(' ')*/ ,
              3241    1        2 SRC_NSAP CALIGNED,
              3243    1     3 LEN UBIN BYTE CALIGNED /*(0)*/,
              3248    1     3 AFI UBIN BYTE UNAL /*(0)*/,
              3271    1        3 ADDRESS_N(0:19) CALIGNED UBIN(9) /*(0*0)*/,
              3272    1        3 ADDRESS REDEF ADDRESS_N CHAR(20) CALIGNED ,
              3305    1        2 DST_NSAP CALIGNED,
              3307    1     3 LEN UBIN BYTE CALIGNED /*(0)*/,
PL6.E3A0      #001=KNT_FMT_E File=KNT_FMT_E.:E05TSI                              TUE 07/29/97 07:23 Page:5
              3312    1     3 AFI UBIN BYTE UNAL /*(0)*/,
              3335    1        3 ADDRESS_N(0:19) CALIGNED UBIN(9) /*(0*0)*/,
              3336    1        3 ADDRESS REDEF ADDRESS_N CHAR(20) CALIGNED ;
       16     3352    1   END KNT_FMT_E;

PL6.E3A0      #001=KNT_FMT_E File=KNT_FMT_E.:E05TSI                              TUE 07/29/97 07:23 Page:6
--  Include file information  --

   K_ADDRESS_M.:E05TOU  is referenced.
   GH_SCHD_M.:E05TOU  is referenced.
   KN_DATA_M.:E05TOU  is referenced.
      No diagnostics issued in procedure KNT_FMT_E.

   No code generated for procedure KNT_FMT_E .
   Procedure KNT_FMT_E requires 4 words of local(AUTO) storage.

    No errors detected in file KNT_FMT_E.:E05TSI    .


07:23 JUL 29 '97 KNT_FMT_E.:E05TOU                                         1
    1      %EQU KN$TCTX#          =      0;
    2      %EQU KN$TCTX_STATE#    =      0;
    3      %EQU KN$TCTX_NODE#     =      9;
    4      %EQU KN$TCTX_LDCTX##   =      9;
    5      %EQU KN$TCTX_DST_REF#  =     18;
    6      %EQU KN$TCTX_SRC_REF#  =     36;
    7      %EQU KN$TCTX_HOST_REF#  =     54;
    8      %EQU KN$TCTX_HOST_NODE#  =     72;
    9      %EQU KN$TCTX_QOS#      =     81;
   10      %EQU KN$TCTX_CLASS#    =     90;
   11      %EQU KN$TCTX_RCV_WINDOW_SZ#  =     99;
   12      %EQU KN$TCTX_LNK$#     =    108;
   13      %EQU KN$TCTX_VERS#     =    144;
   14      %EQU KN$TCTX_TPDUSZ_PARM#  =    153;
   15      %EQU KN$TCTX_TPDUSZ#   =    162;
   16      %EQU KN$TCTX_MAXSEQ#   =    180;
   17      %EQU KN$TCTX_OPTION#   =    216;
   18      %EQU KN$TCTX_OPTION_TRACE#  =    227;
   19      %EQU KN$TCTX_OPTION_CONS#  =    228;
   20      %EQU KN$TCTX_OPTION_OSI#  =    229;
   21      %EQU KN$TCTX_OPTION_CLASS_2_FLOW#  =    230;
   22      %EQU KN$TCTX_OPTION_EXTENDED#  =    231;
   23      %EQU KN$TCTX_OPTION_EXPEDITED#  =    232;
   24      %EQU KN$TCTX_OPTION_CHKSUM#  =    233;
   25      %EQU KN$TCTX_FLAGS#    =    234;
   26      %EQU KN$TCTX_FLAGS_LOST_TPDU#  =    244;
   27      %EQU KN$TCTX_FLAGS_NEED_ASSMBUF#  =    245;
   28      %EQU KN$TCTX_FLAGS_WAIT_4OPEN#  =    246;
   29      %EQU KN$TCTX_FLAGS_FLOW_CONTROLLED#  =    247;
   30      %EQU KN$TCTX_FLAGS_HOST_CQ_FULL#  =    248;
   31      %EQU KN$TCTX_FLAGS_OUTBOUND#  =    249;
   32      %EQU KN$TCTX_FLAGS_INBOUND#  =    250;
   33      %EQU KN$TCTX_FLAGS_PRIMARY#  =    251;
   34      %EQU KN$TCTX_REASON#   =    252;
   35      %EQU KN$TCTX_ERR#      =    261;
   36      %EQU KN$TCTX_SERR#     =    270;
   37      %EQU KN$TCTX_SERR_NOT_OPEN#  =    270;
07:23 JUL 29 '97 KNT_FMT_E.:E05TOU                                         2
   38      %EQU KN$TCTX_SERR_NOBUF#  =    288;
   39      %EQU KN$TCTX_SERR_BUF_OVFLOW#  =    306;
   40      %EQU KN$TCTX_SERR_DT_NWINDOW#  =    324;
   41      %EQU KN$TCTX_SERR_NOQ#  =    342;
   42      %EQU KN$TCTX_SERR_RETRAN#  =    360;
   43      %EQU KN$TCTX_RERR#     =    378;
   44      %EQU KN$TCTX_RERR_CHKSUM#  =    378;
   45      %EQU KN$TCTX_RERR_NOBUF#  =    396;
   46      %EQU KN$TCTX_RERR_DT_NWINDOW#  =    414;
   47      %EQU KN$TCTX_RERR_LOST_TPDU#  =    432;
   48      %EQU KN$TCTX_RERR_AK_NWINDOW#  =    450;
   49      %EQU KN$TCTX_RERR_AK_SUBSEQ#  =    468;
   50      %EQU KN$TCTX_RERR_TBUF_NOQ#  =    486;
   51      %EQU KN$TCTX_RERR_NBUF_NOQ#  =    504;
   52      %EQU KN$TCTX_RERR_NSESS_CDT#  =    522;
   53      %EQU KN$TCTX_RECV_BUFF#  =    540;
   54      %EQU KN$TCTX_RECV_BUFF_CUR#  =    540;
   55      %EQU KN$TCTX_RECV_BUFF_PEAK#  =    558;
   56      %EQU KN$TCTX_RECV_BUFF_BYTES_CUR#  =    576;
   57      %EQU KN$TCTX_RECV_BUFF_BYTES_PEAK#  =    594;
   58      %EQU KN$TCTX_RECV_LWE#  =    612;
   59      %EQU KN$TCTX_RECV_UWE#  =    648;
   60      %EQU KN$TCTX_RECV_NEXT#  =    684;
   61      %EQU KN$TCTX_RECV_EXPD#  =    720;
   62      %EQU KN$TCTX_RECV_HEAD$#  =    756;
   63      %EQU KN$TCTX_RECV_EHEAD$#  =    792;
   64      %EQU KN$TCTX_SEND_BUFF#  =    828;
   65      %EQU KN$TCTX_SEND_BUFF_CUR#  =    828;
   66      %EQU KN$TCTX_SEND_BUFF_PEAK#  =    846;
   67      %EQU KN$TCTX_SEND_BUFF_BYTES_CUR#  =    864;
   68      %EQU KN$TCTX_SEND_BUFF_BYTES_PEAK#  =    882;
   69      %EQU KN$TCTX_SEND_LWE#  =    900;
   70      %EQU KN$TCTX_SEND_UWE#  =    936;
   71      %EQU KN$TCTX_SEND_NEXT#  =    972;
   72      %EQU KN$TCTX_SEND_EXPD#  =   1008;
   73      %EQU KN$TCTX_SEND_HEAD$#  =   1044;
   74      %EQU KN$TCTX_SEND_TAIL$#  =   1080;
07:23 JUL 29 '97 KNT_FMT_E.:E05TOU                                         3
   75      %EQU KN$TCTX_SEND_NOTSENT$#  =   1116;
   76      %EQU KN$TCTX_SEND_EHEAD$#  =   1152;
   77      %EQU KN$TCTX_SEND_ETAIL$#  =   1188;
   78      %EQU KN$TCTX_SEND_ENOTSENT$#  =   1224;
   79      %EQU KN$TCTX_SGMENT_TSDUS#  =   1260;
   80      %EQU KN$TCTX_SGMENT_FRAGS#  =   1278;
   81      %EQU KN$TCTX_REASSM_TSDUS#  =   1296;
   82      %EQU KN$TCTX_REASSM_FRAGS#  =   1314;
   83      %EQU KN$TCTX_SSN_CRDT#  =   1332;
   84      %EQU KN$TCTX_SEND_SUBSEQ#  =   1368;
   85      %EQU KN$TCTX_SEND_RETRY_COUNT#  =   1386;
   86      %EQU KN$TCTX_TMR_COUNT#  =   1404;
   87      %EQU KN$TCTX_TMR_RETRAN#  =   1440;
   88      %EQU KN$TCTX_TMR_RETRAN_PROC$#  =   1440;
   89      %EQU KN$TCTX_TMR_RETRAN_ARG#  =   1476;
   90      %EQU KN$TCTX_TMR_RETRAN_CLOCK_ID#  =   1476;
   91      %EQU KN$TCTX_TMR_RETRAN_INTERVAL#  =   1494;
   92      %EQU KN$TCTX_TMR_RETRAN_WAKEUP#  =   1512;
   93      %EQU KN$TCTX_TMR_RETRAN_FLINK$#  =   1548;
   94      %EQU KN$TCTX_TMR_RETRAN_BLINK$#  =   1584;
   95      %EQU KN$TCTX_TMR_WINDOW#  =   1620;
   96      %EQU KN$TCTX_TMR_WINDOW_PROC$#  =   1620;
   97      %EQU KN$TCTX_TMR_WINDOW_ARG#  =   1656;
   98      %EQU KN$TCTX_TMR_WINDOW_CLOCK_ID#  =   1656;
   99      %EQU KN$TCTX_TMR_WINDOW_INTERVAL#  =   1674;
  100      %EQU KN$TCTX_TMR_WINDOW_WAKEUP#  =   1692;
  101      %EQU KN$TCTX_TMR_WINDOW_FLINK$#  =   1728;
  102      %EQU KN$TCTX_TMR_WINDOW_BLINK$#  =   1764;
  103      %EQU KN$TCTX_TMR_INACTIVITY#  =   1800;
  104      %EQU KN$TCTX_TMR_INACTIVITY_PROC$#  =   1800;
  105      %EQU KN$TCTX_TMR_INACTIVITY_ARG#  =   1836;
  106      %EQU KN$TCTX_TMR_INACTIVITY_CLOCK_I#  =   1836;
  107      %EQU KN$TCTX_TMR_INACTIVITY_INTERVA#  =   1854;
  108      %EQU KN$TCTX_TMR_INACTIVITY_WAKEUP#  =   1872;
  109      %EQU KN$TCTX_TMR_INACTIVITY_FLINK$#  =   1908;
  110      %EQU KN$TCTX_TMR_INACTIVITY_BLINK$#  =   1944;
  111      %EQU KN$TCTX_TMR_REFERENCE#  =   1980;
07:23 JUL 29 '97 KNT_FMT_E.:E05TOU                                         4
  112      %EQU KN$TCTX_TMR_REFERENCE_PROC$#  =   1980;
  113      %EQU KN$TCTX_TMR_REFERENCE_ARG#  =   2016;
  114      %EQU KN$TCTX_TMR_REFERENCE_CLOCK_ID#  =   2016;
  115      %EQU KN$TCTX_TMR_REFERENCE_INTERVAL#  =   2034;
  116      %EQU KN$TCTX_TMR_REFERENCE_WAKEUP#  =   2052;
  117      %EQU KN$TCTX_TMR_REFERENCE_FLINK$#  =   2088;
  118      %EQU KN$TCTX_TMR_REFERENCE_BLINK$#  =   2124;
  119      %EQU KN$TCTX_SRC_TSAP#  =   2160;
  120      %EQU KN$TCTX_SRC_TSAP_LEN#  =   2160;
  121      %EQU KN$TCTX_SRC_TSAP_TSAP#  =   2178;
  122      %EQU KN$TCTX_DST_TSAP#  =   2466;
  123      %EQU KN$TCTX_DST_TSAP_LEN#  =   2466;
  124      %EQU KN$TCTX_DST_TSAP_TSAP#  =   2484;
  125      %EQU KN$TCTX_SRC_NSAP#  =   2772;
  126      %EQU KN$TCTX_SRC_NSAP_LEN#  =   2772;
  127      %EQU KN$TCTX_SRC_NSAP_AFI#  =   2781;
  128      %EQU KN$TCTX_SRC_NSAP_ADDRESS_N#  =   2790;
  129      %EQU KN$TCTX_SRC_NSAP_ADDRESS#  =   2790;
  130      %EQU KN$TCTX_DST_NSAP#  =   2970;
  131      %EQU KN$TCTX_DST_NSAP_LEN#  =   2970;
  132      %EQU KN$TCTX_DST_NSAP_AFI#  =   2979;
  133      %EQU KN$TCTX_DST_NSAP_ADDRESS_N#  =   2988;
  134      %EQU KN$TCTX_DST_NSAP_ADDRESS#  =   2988;

