VERSION E05

PL6.E3A0      #001=KN_DATA_D File=KN_DATA_D.:E05TSI                              WED 07/30/97 01:13 Page:1
        1        1        /*M* KN_DATA_D - Data for communications in the FEP */
        2        2        /*T***********************************************************/
        3        3        /*T*                                                         */
        4        4        /*T* Copyright (c) Bull HN Information Systems Inc., 1997    */
        5        5        /*T*                                                         */
        6        6        /*T***********************************************************/
        7        7        /*X* MEC,MOC,EXM=20,CLM=30,CRM=100 */
        8        8
        9        9                            /*F* NAME: KN_DATA_D
       10       10
       11       11                            The module KN_DATA_D contains the data required by
       12       12                            the communications logic in LCP-6.  This includes:
       13       13                            */
       14       14
       15       15        KN_DATA_D: PROC;
       16       16
       17       17        %INCLUDE GH_GATE_M;
       18       58        %INCLUDE KNH_MACRO_C;
       19      341        %INCLUDE KN_DATA_M;
       20     2127
       21     2128        %GATE (FPTN=KNA_LNKSSN, STCLASS="STATIC SYMDEF");
       22     2147        %GATE (FPTN=KNA_LNKIOP, STCLASS="STATIC SYMDEF");
       23     2166        %GATE (FPTN=KN_CTX_GATE, STCLASS="STATIC SYMDEF");
       24     2185        %GATE (FPTN=KNN_LOCK,STCLASS="STATIC SYMDEF");
       25     2204
       26     2205        %KN$NETPARM (NAME=KN_NETPARM_INIT,STCLASS="CONSTANT SYMDEF");
       27     2358
       28     2359        %LIST;
       29     2360        %KN_DATA_TBL (FPTN=IOP,TYPE=DATA);
              2361        %LSET LISTDIR='0'B;
              2377    1         DCL 1 KN_IOP_START$ PTR INIT(ADDR(NIL)) STATIC SYMDEF;
              2382    1         DCL 1 KN_IOP_END$ PTR INIT(ADDR(NIL)) STATIC SYMDEF;
              2387    1         DCL 1 KN_IOP_HEAD$ PTR INIT(ADDR(NIL)) STATIC SYMDEF;
              2393    1         DCL 1 KN_IOP_MAX# UBIN(16) CALIGNED INIT(0) STATIC SYMDEF;
              2398    1         DCL 1 KN_IOP_USE# UBIN(16) CALIGNED INIT(0) STATIC SYMDEF;
              2402    1         DCL 1 KN_IOP_PEAK# UBIN(16) CALIGNED INIT(0) STATIC SYMDEF;
              2407    1         DCL 1 KN_IOP_CHECK UBIN(16) CALIGNED INIT(0) STATIC SYMDEF;
PL6.E3A0      #001=KN_DATA_D File=KN_DATA_D.:E05TSI                              WED 07/30/97 01:13 Page:2
              2413    1         DCL 1 KN_IOP_LNK# UBIN(16) CALIGNED INIT(0) STATIC SYMDEF;
              2419    1         DCL 1 KN_IOP_NAME CHAR(4) CALIGNED INIT('IOP') STATIC SYMDEF;
       30     2424
       31     2425        %KN_DATA_TBL (FPTN=LDCT,TYPE=DATA);
              2426        %LSET LISTDIR='0'B;
              2442    1         DCL 1 KN_LDCT_START$ PTR INIT(ADDR(NIL)) STATIC SYMDEF;
              2447    1         DCL 1 KN_LDCT_END$ PTR INIT(ADDR(NIL)) STATIC SYMDEF;
              2452    1         DCL 1 KN_LDCT_HEAD$ PTR INIT(ADDR(NIL)) STATIC SYMDEF;
              2458    1         DCL 1 KN_LDCT_MAX# UBIN(16) CALIGNED INIT(0) STATIC SYMDEF;
              2463    1         DCL 1 KN_LDCT_USE# UBIN(16) CALIGNED INIT(0) STATIC SYMDEF;
              2467    1         DCL 1 KN_LDCT_PEAK# UBIN(16) CALIGNED INIT(0) STATIC SYMDEF;
              2472    1         DCL 1 KN_LDCT_CHECK UBIN(16) CALIGNED INIT(0) STATIC SYMDEF;
              2478    1         DCL 1 KN_LDCT_LNK# UBIN(16) CALIGNED INIT(0) STATIC SYMDEF;
              2484    1         DCL 1 KN_LDCT_NAME CHAR(4) CALIGNED INIT('LDCT') STATIC SYMDEF;
       32     2489
       33     2490        %KN_DATA_TBL (FPTN=SSN,TYPE=DATA);
              2491        %LSET LISTDIR='0'B;
              2507    1         DCL 1 KN_SSN_START$ PTR INIT(ADDR(NIL)) STATIC SYMDEF;
              2512    1         DCL 1 KN_SSN_END$ PTR INIT(ADDR(NIL)) STATIC SYMDEF;
              2517    1         DCL 1 KN_SSN_HEAD$ PTR INIT(ADDR(NIL)) STATIC SYMDEF;
              2523    1         DCL 1 KN_SSN_MAX# UBIN(16) CALIGNED INIT(0) STATIC SYMDEF;
              2528    1         DCL 1 KN_SSN_USE# UBIN(16) CALIGNED INIT(0) STATIC SYMDEF;
              2532    1         DCL 1 KN_SSN_PEAK# UBIN(16) CALIGNED INIT(0) STATIC SYMDEF;
              2537    1         DCL 1 KN_SSN_CHECK UBIN(16) CALIGNED INIT(0) STATIC SYMDEF;
              2543    1         DCL 1 KN_SSN_LNK# UBIN(16) CALIGNED INIT(0) STATIC SYMDEF;
              2549    1         DCL 1 KN_SSN_NAME CHAR(4) CALIGNED INIT('SSN') STATIC SYMDEF;
       34     2554
       35     2555        %KN_DATA_TBL (FPTN=TCTX,TYPE=DATA);
              2556        %LSET LISTDIR='0'B;
              2572    1         DCL 1 KN_TCTX_START$ PTR INIT(ADDR(NIL)) STATIC SYMDEF;
              2577    1         DCL 1 KN_TCTX_END$ PTR INIT(ADDR(NIL)) STATIC SYMDEF;
              2582    1         DCL 1 KN_TCTX_HEAD$ PTR INIT(ADDR(NIL)) STATIC SYMDEF;
              2588    1         DCL 1 KN_TCTX_MAX# UBIN(16) CALIGNED INIT(0) STATIC SYMDEF;
              2593    1         DCL 1 KN_TCTX_USE# UBIN(16) CALIGNED INIT(0) STATIC SYMDEF;
              2597    1         DCL 1 KN_TCTX_PEAK# UBIN(16) CALIGNED INIT(0) STATIC SYMDEF;
              2602    1         DCL 1 KN_TCTX_CHECK UBIN(16) CALIGNED INIT(0) STATIC SYMDEF;
              2608    1         DCL 1 KN_TCTX_LNK# UBIN(16) CALIGNED INIT(0) STATIC SYMDEF;
PL6.E3A0      #001=KN_DATA_D File=KN_DATA_D.:E05TSI                              WED 07/30/97 01:13 Page:3
              2614    1         DCL 1 KN_TCTX_NAME CHAR(4) CALIGNED INIT('TCTX') STATIC SYMDEF;
       36     2619
       37     2620        %PLIST;
       38     2621
       39     2622    1   DCL KN_DCT$$ PTR STATIC SYMDEF INIT(ADDR(NIL));
       40     2623    1   DCL KN_TCTX$$ PTR STATIC SYMDEF INIT(ADDR(NIL));
       41     2624    1   DCL KNN_ROUTE$$ PTR STATIC SYMDEF INIT(ADDR(NIL));
       42     2625    1   DCL KNN_LINK$$ PTR STATIC SYMDEF INIT(ADDR(NIL));
       43     2626    1   DCL KNN_OSIROUTE$$ PTR STATIC SYMDEF INIT(ADDR(NIL));
       44     2627    1   DCL KNN_OSIROUTE# UBIN STATIC SYMDEF INIT(0);
       45     2628    1   DCL KNN_OSIMAX# UBIN STATIC SYMDEF INIT(0);
       46     2629    1   DCL KNN_CHECKSUM UBIN STATIC SYMDEF INIT(0); /* to checksum or not to checksum*/
       47     2630    1   DCL KNN_LIFETIME UBIN STATIC SYMDEF INIT(500);
              2630            /* lifetime of messages in 500 ms units*/
       48     2631    1   DCL KNN_LIFETIME_UNIT UBIN STATIC SYMDEF INIT(1);
       49     2632    1   DCL KNN_REASSEMTIME UBIN STATIC SYMDEF INIT(50);
              2632            /* reassembly time in unites of 500 ms*/
       50     2633    1   DCL KNN_REASSEM_CLOCK UBIN STATIC SYMDEF INIT(0);
              2633            /* is network reassem clock running 0=no*/
       51     2634    1   DCL KNN_RASSMHD$ PTR STATIC SYMDEF INIT(ADDR(NIL)); /* head of reassembly chain*/
       52     2635    1   DCL KNN_RASSMTL$ PTR STATIC SYMDEF INIT(ADDR(NIL)); /* tail of reassembly chain*/
       53     2636    1   DCL KNN_DATAID UBIN STATIC SYMDEF INIT(1); /* unique id for segmented network pdus*/
       54     2637    1   DCL KN_HMI$ PTR STATIC SYMDEF INIT(ADDR(NIL));
       55     2638    1   DCL KN_HMI# UBIN STATIC SYMDEF INIT(0);
       56     2639
       57     2640    1   DCL KNN_NODES UBIN STATIC SYMDEF INIT(2);
       58     2641    1   DCL KNN_LINKS UBIN STATIC SYMDEF INIT(5);
       59     2642    1   DCL KN_NODE# UBIN STATIC SYMDEF INIT(0);
       60     2643
       61     2644    1   DCL 1 KN_NODE_BIN STATIC SYMDEF,
       62     2645    1         2 * CHAR(4) INIT('FEPA'),
       63     2646    1         2 FEX CHAR(4);
       64     2647    1   DCL KN_NODE_TEXT REDEF KN_NODE_BIN CHAR(8);
       65     2648
       66     2649    1   DCL KN_NODEADMIN$ PTR STATIC SYMDEF;
       67     2650                            /*K* KN_NODEADMIN$ - PTR.
       68     2651                            LDCT$ for Node Admin.
PL6.E3A0      #001=KN_DATA_D File=KN_DATA_D.:E05TSI                              WED 07/30/97 01:13 Page:4
       69     2652                            */
       70     2653
       71     2654    1   DCL KN_DELU_CHECK UBIN STATIC SYMDEF INIT(0);
       72     2655                            /*K* KN_DELU_CHECK - UBIN WORD.
       73     2656                            This word may be set non-zero to activate the
       74     2657                            routine that checks for resources still allocated
       75     2658                            to the user at delete user time.
       76     2659                            */
       77     2660
       78     2661    1   DCL KN_BUFFER CHAR(200) STATIC SYMDEF INIT(' ');
       79     2662    1   DCL KN_BUFFER$ PTR STATIC SYMDEF INIT(ADDR(KN_BUFFER));
       80     2663    1   DCL KN_BUSY BIT(1) STATIC SYMDEF INIT('0'B);
       81     2664    1   END KN_DATA_D;

PL6.E3A0      #001=KN_DATA_D File=KN_DATA_D.:E05TSI                              WED 07/30/97 01:13 Page:5
--  Include file information  --

   KN_DATA_M.:E05TOU  is referenced.
   KNH_MACRO_C.:E05TOU  is referenced.
   GH_GATE_M.:E05TOU  cannot be made into a system file and is referenced.
      No diagnostics issued in procedure KN_DATA_D.

   No code generated for procedure KN_DATA_D .
   Procedure KN_DATA_D requires 4 words of local(AUTO) storage.

    No errors detected in file KN_DATA_D.:E05TSI    .

PL6.E3A0      #001=KN_DATA_D File=KN_DATA_D.:E05TSI                              WED 07/30/97 01:13 Page:6

 Object Unit name= KN_DATA_D                                  File name= KN_DATA_D.:E05TOU
 UTS= JUL 30 '97 01:13:14.40 WED                              Compiler= PL-6/E31         Sev=      00
 SharedLib= :SHARED_LCP6_SYSTEM                               Alt SharedLib=


    ****  Control sections  ****

 Sect   Type Bound  Init  Size HexSiz  Section name
    0   Data  even  none   202     CA  KN_DATA_D
    1  RoData even  UTS     33     21  KN_DATA_D
    2   Proc  even  none     0      0  KN_DATA_D

    ****  Entry defs  ****

                              Check   Calling
                             calling  sequence
  Sect HexLoc Primary Altret sequence   type   Parms  Name
     2      0   yes            yes     ~proc       0  KN_DATA_D
PL6.E3A0      #001=KN_DATA_D File=KN_DATA_D.:E05TSI                              WED 07/30/97 01:13 Page:7

  ****  Data defs  ****

 Sect HexLoc  Name                           Sect HexLoc  Name
    0      0  KNA_LNKSSN                         0      3  KNA_LNKIOP
    0      6  KN_CTX_GATE                        0      9  KNN_LOCK
    1      0  KN_NETPARM_INIT                    0      C  KN_IOP_START$
    0      E  KN_IOP_END$                        0     10  KN_IOP_HEAD$
    0     12  KN_IOP_MAX#                        0     13  KN_IOP_USE#
    0     14  KN_IOP_PEAK#                       0     15  KN_IOP_CHECK
    0     16  KN_IOP_LNK#                        0     17  KN_IOP_NAME
    0     19  KN_LDCT_START$                     0     1B  KN_LDCT_END$
    0     1D  KN_LDCT_HEAD$                      0     1F  KN_LDCT_MAX#
    0     20  KN_LDCT_USE#                       0     21  KN_LDCT_PEAK#
    0     22  KN_LDCT_CHECK                      0     23  KN_LDCT_LNK#
    0     24  KN_LDCT_NAME                       0     26  KN_SSN_START$
    0     28  KN_SSN_END$                        0     2A  KN_SSN_HEAD$
    0     2C  KN_SSN_MAX#                        0     2D  KN_SSN_USE#
    0     2E  KN_SSN_PEAK#                       0     2F  KN_SSN_CHECK
    0     30  KN_SSN_LNK#                        0     31  KN_SSN_NAME
    0     33  KN_TCTX_START$                     0     35  KN_TCTX_END$
    0     37  KN_TCTX_HEAD$                      0     39  KN_TCTX_MAX#
    0     3A  KN_TCTX_USE#                       0     3B  KN_TCTX_PEAK#
    0     3C  KN_TCTX_CHECK                      0     3D  KN_TCTX_LNK#
    0     3E  KN_TCTX_NAME                       0     40  KN_DCT$$
    0     42  KN_TCTX$$                          0     44  KNN_ROUTE$$
    0     46  KNN_LINK$$                         0     48  KNN_OSIROUTE$$
    0     4A  KNN_OSIROUTE#                      0     4B  KNN_OSIMAX#
    0     4C  KNN_CHECKSUM                       0     4D  KNN_LIFETIME
    0     4E  KNN_LIFETIME_UNIT                  0     4F  KNN_REASSEMTIME
    0     50  KNN_REASSEM_CLOCK                  0     51  KNN_RASSMHD$
    0     53  KNN_RASSMTL$                       0     55  KNN_DATAID
    0     56  KN_HMI$                            0     58  KN_HMI#
    0     59  KNN_NODES                          0     5A  KNN_LINKS
    0     5B  KN_NODE#                           0     5C  KN_NODE_BIN
    0     60  KN_NODEADMIN$                      0     62  KN_DELU_CHECK
    0     63  KN_BUFFER                          0     C7  KN_BUFFER$
    0     C9  KN_BUSY
PL6.E3A0      #001=KN_DATA_D File=KN_DATA_D.:E05TSI                              WED 07/30/97 01:13 Page:8

  ****  Data refs  ****

  Flags:  r = read only, s = secondary
Flgs Name                             Flgs Name                             Flgs Name
r    G$ROS$
PL6.E3A0      #001=KN_DATA_D File=KN_DATA_D.:E05TSI                              WED 07/30/97 01:13 Page:9

        1        1        /*M* KN_DATA_D - Data for communications in the FEP */
        2        2        /*T***********************************************************/
        3        3        /*T*                                                         */
        4        4        /*T* Copyright (c) Bull HN Information Systems Inc., 1997    */
        5        5        /*T*                                                         */
        6        6        /*T***********************************************************/
        7        7        /*X* MEC,MOC,EXM=20,CLM=30,CRM=100 */
        8        8
        9        9                            /*F* NAME: KN_DATA_D
       10       10
       11       11                            The module KN_DATA_D contains the data required by
       12       12                            the communications logic in LCP-6.  This includes:
       13       13                            */
       14       14
       15       15        KN_DATA_D: PROC;
       16       16
       17       17        %INCLUDE GH_GATE_M;
       18       58        %INCLUDE KNH_MACRO_C;
       19      341        %INCLUDE KN_DATA_M;
       20     2127
       21     2128        %GATE (FPTN=KNA_LNKSSN, STCLASS="STATIC SYMDEF");
       22     2147        %GATE (FPTN=KNA_LNKIOP, STCLASS="STATIC SYMDEF");
       23     2166        %GATE (FPTN=KN_CTX_GATE, STCLASS="STATIC SYMDEF");
       24     2185        %GATE (FPTN=KNN_LOCK,STCLASS="STATIC SYMDEF");
       25     2204
       26     2205        %KN$NETPARM (NAME=KN_NETPARM_INIT,STCLASS="CONSTANT SYMDEF");
       27     2358
       28     2359        %LIST;
       29     2360        %KN_DATA_TBL (FPTN=IOP,TYPE=DATA);
              2361        %LSET LISTDIR='0'B;
              2377    1         DCL 1 KN_IOP_START$ PTR INIT(ADDR(NIL)) STATIC SYMDEF;
              2382    1         DCL 1 KN_IOP_END$ PTR INIT(ADDR(NIL)) STATIC SYMDEF;
              2387    1         DCL 1 KN_IOP_HEAD$ PTR INIT(ADDR(NIL)) STATIC SYMDEF;
              2393    1         DCL 1 KN_IOP_MAX# UBIN(16) CALIGNED INIT(0) STATIC SYMDEF;
              2398    1         DCL 1 KN_IOP_USE# UBIN(16) CALIGNED INIT(0) STATIC SYMDEF;
              2402    1         DCL 1 KN_IOP_PEAK# UBIN(16) CALIGNED INIT(0) STATIC SYMDEF;
              2407    1         DCL 1 KN_IOP_CHECK UBIN(16) CALIGNED INIT(0) STATIC SYMDEF;
PL6.E3A0      #001=KN_DATA_D File=KN_DATA_D.:E05TSI                              WED 07/30/97 01:13 Page:10
              2413    1         DCL 1 KN_IOP_LNK# UBIN(16) CALIGNED INIT(0) STATIC SYMDEF;
              2419    1         DCL 1 KN_IOP_NAME CHAR(4) CALIGNED INIT('IOP') STATIC SYMDEF;
       30     2424
       31     2425        %KN_DATA_TBL (FPTN=LDCT,TYPE=DATA);
              2426        %LSET LISTDIR='0'B;
              2442    1         DCL 1 KN_LDCT_START$ PTR INIT(ADDR(NIL)) STATIC SYMDEF;
              2447    1         DCL 1 KN_LDCT_END$ PTR INIT(ADDR(NIL)) STATIC SYMDEF;
              2452    1         DCL 1 KN_LDCT_HEAD$ PTR INIT(ADDR(NIL)) STATIC SYMDEF;
              2458    1         DCL 1 KN_LDCT_MAX# UBIN(16) CALIGNED INIT(0) STATIC SYMDEF;
              2463    1         DCL 1 KN_LDCT_USE# UBIN(16) CALIGNED INIT(0) STATIC SYMDEF;
              2467    1         DCL 1 KN_LDCT_PEAK# UBIN(16) CALIGNED INIT(0) STATIC SYMDEF;
              2472    1         DCL 1 KN_LDCT_CHECK UBIN(16) CALIGNED INIT(0) STATIC SYMDEF;
              2478    1         DCL 1 KN_LDCT_LNK# UBIN(16) CALIGNED INIT(0) STATIC SYMDEF;
              2484    1         DCL 1 KN_LDCT_NAME CHAR(4) CALIGNED INIT('LDCT') STATIC SYMDEF;
       32     2489
       33     2490        %KN_DATA_TBL (FPTN=SSN,TYPE=DATA);
              2491        %LSET LISTDIR='0'B;
              2507    1         DCL 1 KN_SSN_START$ PTR INIT(ADDR(NIL)) STATIC SYMDEF;
              2512    1         DCL 1 KN_SSN_END$ PTR INIT(ADDR(NIL)) STATIC SYMDEF;
              2517    1         DCL 1 KN_SSN_HEAD$ PTR INIT(ADDR(NIL)) STATIC SYMDEF;
              2523    1         DCL 1 KN_SSN_MAX# UBIN(16) CALIGNED INIT(0) STATIC SYMDEF;
              2528    1         DCL 1 KN_SSN_USE# UBIN(16) CALIGNED INIT(0) STATIC SYMDEF;
              2532    1         DCL 1 KN_SSN_PEAK# UBIN(16) CALIGNED INIT(0) STATIC SYMDEF;
              2537    1         DCL 1 KN_SSN_CHECK UBIN(16) CALIGNED INIT(0) STATIC SYMDEF;
              2543    1         DCL 1 KN_SSN_LNK# UBIN(16) CALIGNED INIT(0) STATIC SYMDEF;
              2549    1         DCL 1 KN_SSN_NAME CHAR(4) CALIGNED INIT('SSN') STATIC SYMDEF;
       34     2554
       35     2555        %KN_DATA_TBL (FPTN=TCTX,TYPE=DATA);
              2556        %LSET LISTDIR='0'B;
              2572    1         DCL 1 KN_TCTX_START$ PTR INIT(ADDR(NIL)) STATIC SYMDEF;
              2577    1         DCL 1 KN_TCTX_END$ PTR INIT(ADDR(NIL)) STATIC SYMDEF;
              2582    1         DCL 1 KN_TCTX_HEAD$ PTR INIT(ADDR(NIL)) STATIC SYMDEF;
              2588    1         DCL 1 KN_TCTX_MAX# UBIN(16) CALIGNED INIT(0) STATIC SYMDEF;
              2593    1         DCL 1 KN_TCTX_USE# UBIN(16) CALIGNED INIT(0) STATIC SYMDEF;
              2597    1         DCL 1 KN_TCTX_PEAK# UBIN(16) CALIGNED INIT(0) STATIC SYMDEF;
              2602    1         DCL 1 KN_TCTX_CHECK UBIN(16) CALIGNED INIT(0) STATIC SYMDEF;
              2608    1         DCL 1 KN_TCTX_LNK# UBIN(16) CALIGNED INIT(0) STATIC SYMDEF;
PL6.E3A0      #001=KN_DATA_D File=KN_DATA_D.:E05TSI                              WED 07/30/97 01:13 Page:11
              2614    1         DCL 1 KN_TCTX_NAME CHAR(4) CALIGNED INIT('TCTX') STATIC SYMDEF;
       36     2619
       37     2620        %PLIST;
       38     2621
       39     2622    1   DCL KN_DCT$$ PTR STATIC SYMDEF INIT(ADDR(NIL));
       40     2623    1   DCL KN_TCTX$$ PTR STATIC SYMDEF INIT(ADDR(NIL));
       41     2624    1   DCL KNN_ROUTE$$ PTR STATIC SYMDEF INIT(ADDR(NIL));
       42     2625    1   DCL KNN_LINK$$ PTR STATIC SYMDEF INIT(ADDR(NIL));
       43     2626    1   DCL KNN_OSIROUTE$$ PTR STATIC SYMDEF INIT(ADDR(NIL));
       44     2627    1   DCL KNN_OSIROUTE# UBIN STATIC SYMDEF INIT(0);
       45     2628    1   DCL KNN_OSIMAX# UBIN STATIC SYMDEF INIT(0);
       46     2629    1   DCL KNN_CHECKSUM UBIN STATIC SYMDEF INIT(0); /* to checksum or not to checksum*/
       47     2630    1   DCL KNN_LIFETIME UBIN STATIC SYMDEF INIT(500);
              2630            /* lifetime of messages in 500 ms units*/
       48     2631    1   DCL KNN_LIFETIME_UNIT UBIN STATIC SYMDEF INIT(1);
       49     2632    1   DCL KNN_REASSEMTIME UBIN STATIC SYMDEF INIT(50);
              2632            /* reassembly time in unites of 500 ms*/
       50     2633    1   DCL KNN_REASSEM_CLOCK UBIN STATIC SYMDEF INIT(0);
              2633            /* is network reassem clock running 0=no*/
       51     2634    1   DCL KNN_RASSMHD$ PTR STATIC SYMDEF INIT(ADDR(NIL)); /* head of reassembly chain*/
       52     2635    1   DCL KNN_RASSMTL$ PTR STATIC SYMDEF INIT(ADDR(NIL)); /* tail of reassembly chain*/
       53     2636    1  DCL KNN_DATAID UBIN STATIC SYMDEF INIT(1); /* unique id for segmented network pdus*/
       54     2637    1   DCL KN_HMI$ PTR STATIC SYMDEF INIT(ADDR(NIL));
       55     2638    1   DCL KN_HMI# UBIN STATIC SYMDEF INIT(0);
       56     2639
       57     2640    1   DCL KNN_NODES UBIN STATIC SYMDEF INIT(2);
       58     2641    1   DCL KNN_LINKS UBIN STATIC SYMDEF INIT(5);
       59     2642    1   DCL KN_NODE# UBIN STATIC SYMDEF INIT(0);
       60     2643
       61     2644    1   DCL 1 KN_NODE_BIN STATIC SYMDEF,
       62     2645    1         2 * CHAR(4) INIT('FEPA'),
       63     2646    1         2 FEX CHAR(4);
       64     2647    1   DCL KN_NODE_TEXT REDEF KN_NODE_BIN CHAR(8);
       65     2648
       66     2649    1   DCL KN_NODEADMIN$ PTR STATIC SYMDEF;
       67     2650                            /*K* KN_NODEADMIN$ - PTR.
       68     2651                            LDCT$ for Node Admin.
PL6.E3A0      #001=KN_DATA_D File=KN_DATA_D.:E05TSI                              WED 07/30/97 01:13 Page:12
       69     2652                            */
       70     2653
       71     2654    1   DCL KN_DELU_CHECK UBIN STATIC SYMDEF INIT(0);
       72     2655                            /*K* KN_DELU_CHECK - UBIN WORD.
       73     2656                            This word may be set non-zero to activate the
       74     2657                            routine that checks for resources still allocated
       75     2658                            to the user at delete user time.
       76     2659                            */
       77     2660
       78     2661    1   DCL KN_BUFFER CHAR(200) STATIC SYMDEF INIT(' ');
       79     2662    1   DCL KN_BUFFER$ PTR STATIC SYMDEF INIT(ADDR(KN_BUFFER));
       80     2663    1   DCL KN_BUSY BIT(1) STATIC SYMDEF INIT('0'B);
       81     2664    1   END KN_DATA_D;

PL6.E3A0      #001=KN_DATA_D File=KN_DATA_D.:E05TSI                              WED 07/30/97 01:13 Page:13
--  Include file information  --

   KN_DATA_M.:E05TOU  is referenced.
   KNH_MACRO_C.:E05TOU  is referenced.
   GH_GATE_M.:E05TOU  cannot be made into a system file and is referenced.
      No diagnostics issued in procedure KN_DATA_D.
PL6.E3A0      #001=KN_DATA_D File=KN_DATA_D.:E05TSI                              WED 07/30/97 01:13 Page:14

 **** Variables and constants ****

  ****  Section 000  Data  KN_DATA_D

  ****  Scalars and arrays  ****
HexLoc.c.b A Datatyp(siz) R M Lvl/name                 HexLoc.c.b A Datatyp(siz) R M Lvl/name

    63-0-0/c CHAR(200)   r     1 KN_BUFFER


   No code generated for procedure KN_DATA_D .
   Procedure KN_DATA_D requires 4 words of local(AUTO) storage.

    No errors detected in file KN_DATA_D.:E05TSI    .
PL6.E3A0      #001=KN_DATA_D File=KN_DATA_D.:E05TSI                              WED 07/30/97 01:13 Page:15
          *** CROSS REFERENCE LISTING ***
**     DENOTES     IDENTIFIER DEFINITION
<<                 IDENTIFIER'S VALUE SET
>>                 IDENTIFIER'S VALUE USED
<>                 IDENTIFIER SET AND/OR USED
--                 IDENTIFIER REFERENCED
PL6.E3A0      #001=KN_DATA_D File=KN_DATA_D.:E05TSI                              WED 07/30/97 01:13 Page:16
          MINI XREF LISTING

KN_BUFFER
      2661**DCL      2662--DCLINIT
KN_NETPARM_INIT.MSG$
      2225**DCL      2230--REDEF
KN_NETPARM_INIT.NHDR$
      2277**DCL      2278--REDEF
KN_NETPARM_INIT.SHDR$
      2255**DCL      2256--REDEF
KN_NETPARM_INIT.THDR$
      2266**DCL      2267--REDEF
KN_NETPARM_INIT.UHDR$
      2241**DCL      2242--REDEF
KN_NODE_BIN
      2644**DCL      2647--REDEF
