VERSION E05

PL6.E3A0      #001=KO_DATA_D File=KO_DATA_D.:E05TSI                              WED 07/30/97 01:16 Page:1
        1        1        /*M* KO_DATA_D - SYMDEFS used in FEP-resident part of PIGLET                  */
        2        2        /*T***********************************************************/
        3        3        /*T*                                                         */
        4        4        /*T* Copyright (c) Bull HN Information Systems Inc., 1997    */
        5        5        /*T*                                                         */
        6        6        /*T***********************************************************/
        7        7        KO_DATA_D: PROC;
        8        8        /******************************************************************************/
        9        9        /*  INCLUDE FILES                                                             */
       10       10        /******************************************************************************/
       11       11        %INCLUDE LCP_6;
       12      202        %INCLUDE KO_MACRO_C;
       13      399        %INCLUDE KO_SUBS;
       14      493        %INCLUDE KP_SUBS;                       /* HOST/FEP message EQUATES           */
       15      677        %INCLUDE KP_MSG;                        /* HOST/FEP message structure         */
       16      770        %INCLUDE KH_CHN;                        /* NODE-ADMIN interface               */
       17      810        %INCLUDE KH_MACRO_C;                    /* NODE-ADMIN interface               */
       18     1553        %INCLUDE KL_CONTROL_C;                  /* NODE-ADMIN EQUs                    */
       19     1933        %INCLUDE G_ROS_M;
       20     2015        %INCLUDE B_ERRORS_C;                    /* Monitor error codes                */
       21     3142        %EJECT;
PL6.E3A0      #001=KO_DATA_D File=KO_DATA_D.:E05TSI                              WED 07/30/97 01:16 Page:2
       22     3143        /******************************************************************************/
       23     3144        /*  STATIC SYMDEF DATA                                                        */
       24     3145        /******************************************************************************/
       25     3146        /**/
       26     3147        /*  CONTROL INFORMATION  */
       27     3148        /**/
       28     3149    1   DCL KO_MEM UBIN WORD STATIC SYMDEF INIT(10); /* Really unused                 */
       29     3150    1   DCL KO_RES CHAR(2) WALIGNED STATIC SYMDEF INIT('DK');
       30     3151    1   DCL KO_ATTR BIT(16) STATIC SYMDEF INIT('0'B);
       31     3152    1   DCL KO_CPU_CHAN SBIN WORD STATIC SYMDEF INIT(0);
       32     3153    1   DCL KO_INTERRUPT_LEVEL SBIN WORD STATIC SYMDEF;
       33     3154    1   DCL KO_RUNNING_LEVEL SBIN WORD STATIC SYMDEF;
       34     3155    1   DCL KO_INHIBIT_LEVEL SBIN WORD STATIC SYMDEF INIT(%KO_BASE_LEVEL#);
       35     3156    1   DCL KO_RETRIES SBIN STATIC SYMDEF INIT(%KO_RETRIES#);
       36     3157    1   DCL DEBUGGING BIT(1) STATIC SYMDEF INIT('0'B); /* 1=wait for debugger to start*/
       37     3158    1   DCL NA_LIVES BIT(1) STATIC SYMDEF INIT('1'B); /* Use Node-Admin for params    */
       38     3159    1   DCL SECS2WAIT UBIN(16) CONSTANT SYMDEF INIT(1); /* Wait if disk is not ready  */
       39     3160    1   DCL SECS2TIMEOUT UBIN(16) CONSTANT SYMDEF INIT(20); /* After this, time out   */
       40     3161    1   DCL MAIN_WAIT SBIN CONSTANT SYMDEF INIT(10); /* Wait in KOA$MAIN loop         */
       41     3162        %EJECT;
PL6.E3A0      #001=KO_DATA_D File=KO_DATA_D.:E05TSI                              WED 07/30/97 01:16 Page:3
       42     3163        /**/
       43     3164        /*  DESCRIBE THE DRIVE WE'RE OPERATING ON  */
       44     3165        /**/
       45     3166    1   DCL KO_CHANNEL UBIN STATIC SYMDEF;
       46     3167    1   DCL KO_DRIVE UBIN STATIC SYMDEF;
       47     3168    1   DCL KO_OPENED BIT(1) STATIC SYMDEF INIT('0'B);
       48     3169        /**/
       49     3170        /*  NODE-ADMIN INTERFACE  */
       50     3171        /**/
       51     3172        %KH_CHNDAT (STCLASS = "SYMREF");
       52     3190        %KH$CTLTBL (FPTN=KH_CTLTBL,STCLASS="STATIC SYMDEF",HIPARM=KL_HNDLRPARM_STD_HI);
       53     3402        /**/
       54     3403        /*  THINGS FOR HOST I/O  */
       55     3404        /**/
       56     3405    1   DCL HOST_LEN SBIN STATIC SYMDEF;        /* Allocated size                     */
       57     3406    1   DCL HOST_MES_LEN SBIN STATIC SYMDEF;    /* Byte count to WRITE                */
       58     3407    1   DCL HOST_BUF$ PTR STATIC SYMDEF INIT(ADDR(ABORT_MSG));
       59     3408        /**/
       60     3409        /*  THINGS FOR DISK I/O (parameters via common)  */
       61     3410        /**/
       62     3411    1   DCL DISK_LEN SBIN STATIC SYMDEF;        /* Byte count for RANGE               */
       63     3412    1   DCL DISK_BUF$ PTR STATIC SYMDEF;        /* ADDR for disk I/O                  */
       64     3413    1   DCL DISK_SECTOR_NO SBIN STATIC SYMDEF;
       65     3414    1   DCL DISK_SEC_SIZE SBIN STATIC SYMDEF;
       66     3415    1   DCL DISK_TRACK_NO SBIN STATIC SYMDEF;
       67     3416    1   DCL DISK_SIDE SBIN STATIC SYMDEF;
       68     3417    1   DCL DISK_RETRIES SBIN STATIC SYMDEF;
       69     3418        %EJECT;
PL6.E3A0      #001=KO_DATA_D File=KO_DATA_D.:E05TSI                              WED 07/30/97 01:16 Page:4
       70     3419        /**/
       71     3420        /*  PHYSICAL I/O BUFFERS  */
       72     3421        /**/
       73     3422    1   DCL IN_DISK_LEN SBIN STATIC SYMDEF;     /* Handy buffer...                    */
       74     3423    1   DCL IN_DISK_MES_LEN SBIN STATIC SYMDEF;
       75     3424    1   DCL IN_DISK_BUF$ PTR STATIC SYMDEF;     /* ...for input from disk             */
       76     3425    1   DCL OUT_DISK_LEN SBIN STATIC SYMDEF;    /* Handy buffer...                    */
       77     3426    1   DCL OUT_DISK_MES_LEN SBIN STATIC SYMDEF;
       78     3427    1   DCL OUT_DISK_BUF$ PTR STATIC SYMDEF;    /* ...for output to disk              */
       79     3428        /**/
       80     3429        /*  Mask of error bits in device status.  */
       81     3430        /**/
       82     3431        %KO_DEVICE_STATUS (NAME = ERRMASK_STATUS,
       83     3432                           NOT_READY = '1'B,
       84     3433                           UC_MEMERR = '1'B,
       85     3434                           BUS_PERR = '1'B,
       86     3435                           NO_RESOURCE = '1'B,
       87     3436                           C_MEMERR = '1'B,
       88     3437                           SEEK_ERROR = '1'B,
       89     3438                           FUTILE_SEARCH = '1'B,
       90     3439                           MISSED_SYNC = '1'B,
       91     3440                           DEV_FAULT = '1'B,
       92     3441                           READ_ERROR = '1'B,
       93     3442                           DELETED_FIELD = '1'B,
       94     3443                           OVERRUN = '1'B,
       95     3444                           STCLASS = "STATIC SYMDEF");
       96     3494        %EJECT;
PL6.E3A0      #001=KO_DATA_D File=KO_DATA_D.:E05TSI                              WED 07/30/97 01:16 Page:5
       97     3495        /**/
       98     3496        /*  VARIOUS STUFF  */
       99     3497        /**/
      100     3498    1   DCL THINGS_ARE_ROSY BIT(1) STATIC SYMDEF INIT('1'B);
      101     3499        %VLP_ERRCODE (FPTN = MONERR, STCLASS = "STATIC SYMDEF");
      102     3545        %VLP_SEGMENT (FPTN=PIGLET_SEGMENT,STCLASS="STATIC SYMDEF");
      103     3566        %KP$MSG (NAME=ABORT_MSG,
      104     3567                 INCL_DATA=NO,
      105     3568                 STCLASS="STATIC SYMDEF");
      106     3644        %KP$MSG (NAME=KP_MSG,
      107     3645                 STCLASS="BASED(HOST_BUF$)");
      108     3721        %EJECT;
PL6.E3A0      #001=KO_DATA_D File=KO_DATA_D.:E05TSI                              WED 07/30/97 01:16 Page:6
      109     3722        /**/
      110     3723        /*  LIMITS TO LIVE BY  */
      111     3724        /**/
      112     3725    1   DCL BUFFER_BYTES SBIN WORD STATIC SYMDEF; /* Size of entire normal MSG buffer */
      113     3726    1   DCL DATA_BYTES SBIN WORD STATIC SYMDEF; /* Size of data part of normal MSG    */
      114     3727        /**/
      115     3728        /*  TABLES  */
      116     3729        /**/
      117     3730    1   DCL 1 DEVICE_TABLE STATIC SYMDEF,
      118     3731    1         2 DEV_ENTRY (0:%KP_MAX_DRIVE#),   /* 0-LAST_DEVICE actually used        */
      119     3732                %KO_DEVICE_INFO (NAME = UNUSED, HEADER = NO, LVL = 3,
      120     3733                                 STCLASS = "STATIC SYMDEF", LAST = ",");
      121     3830    1         2 * SBIN WORD,
      122     3831    1         2 * SBIN WORD;
      123     3832    1   DCL TOP_DEVICE SBIN WORD STATIC SYMDEF;
      124     3833        /******************************************************************************/
      125     3834        /*  GLOBAL STUFF FROM THE OUTSIDE WORLD                                       */
      126     3835        /******************************************************************************/
      127     3836    1   DCL G$TCB$ PTR SYMREF;
      128     3837    1   DCL G$ROS$ PTR SYMREF;
      129     3838    1   DCL M$HOST DCB;
      130     3839        /******************************************************************************/
      131     3840    1             END KO_DATA_D;

PL6.E3A0      #001=KO_DATA_D File=KO_DATA_D.:E05TSI                              WED 07/30/97 01:16 Page:7
--  Include file information  --

   B_ERRORS_C.:E05TOU  is referenced.
   G_ROS_M.:E05TOU  is referenced.
   KL_CONTROL_C.:E05TOU  is referenced.
   KH_MACRO_C.:E05TOU  is referenced.
   KH_CHN.:E05TOU  is referenced.
   KP_MSG.:E05TOU  is referenced.
   KP_SUBS.:E05TOU  is referenced.
   KO_SUBS.:E05TOU  is referenced.
   KO_MACRO_C.:E05TOU  is referenced.
   LCP_6.:E05TOU  cannot be made into a system file and is referenced.
   G_LCP6_E.:E05TOU  was found in the system file and is referenced.
   GT_LCP6_M.:E05TOU  was found in the system file and is referenced.
   KI_CP6.:E05TOU  was found in the system file and is referenced.
   GF_LCP6_M.:E05TOU  was found in the system file and is referenced.
   GM_LCP6_M.:E05TOU  was found in the system file and is referenced.
   GU_LCP6_M.:E05TOU  was found in the system file and is referenced.
   GJ_LCP6_M.:E05TOU  was found in the system file and is referenced.
   GH_LCP6_M.:E05TOU  was found in the system file and is referenced.
      No diagnostics issued in procedure KO_DATA_D.

   No code generated for procedure KO_DATA_D .
   Procedure KO_DATA_D requires 4 words of local(AUTO) storage.

    No errors detected in file KO_DATA_D.:E05TSI    .

PL6.E3A0      #001=KO_DATA_D File=KO_DATA_D.:E05TSI                              WED 07/30/97 01:16 Page:8

 Object Unit name= KO_DATA_D                                  File name= KO_DATA_D.:E05TOU
 UTS= JUL 30 '97 01:16:33.92 WED                              Compiler= PL-6/E31         Sev=      00
 SharedLib= :SHARED_LCP6_SYSTEM                               Alt SharedLib=


    ****  Control sections  ****

 Sect   Type Bound  Init  Size HexSiz  Section name
    0   Data  even  none   157     9D  KO_DATA_D
    1  RoData even  UTS      3      3  KO_DATA_D
    2   DCB   even  none     0      0  M$HOST
    3   Proc  even  none     0      0  KO_DATA_D

    ****  Entry defs  ****

                              Check   Calling
                             calling  sequence
  Sect HexLoc Primary Altret sequence   type   Parms  Name
     3      0   yes            yes     ~proc       0  KO_DATA_D
PL6.E3A0      #001=KO_DATA_D File=KO_DATA_D.:E05TSI                              WED 07/30/97 01:16 Page:9

  ****  Data defs  ****

 Sect HexLoc  Name                           Sect HexLoc  Name
    0      0  KO_MEM                             0      1  KO_RES
    0      2  KO_ATTR                            0      3  KO_CPU_CHAN
    0      4  KO_INTERRUPT_LEVEL                 0      5  KO_RUNNING_LEVEL
    0      6  KO_INHIBIT_LEVEL                   0      7  KO_RETRIES
    0      8  DEBUGGING                          0      9  NA_LIVES
    1      0  SECS2WAIT                          1      1  SECS2TIMEOUT
    1      2  MAIN_WAIT                          0      A  KO_CHANNEL
    0      B  KO_DRIVE                           0      C  KO_OPENED
    0      D  KH_CTLTBL                          0     3E  HOST_LEN
    0     3F  HOST_MES_LEN                       0     40  HOST_BUF$
    0     42  DISK_LEN                           0     43  DISK_BUF$
    0     45  DISK_SECTOR_NO                     0     46  DISK_SEC_SIZE
    0     47  DISK_TRACK_NO                      0     48  DISK_SIDE
    0     49  DISK_RETRIES                       0     4A  IN_DISK_LEN
    0     4B  IN_DISK_MES_LEN                    0     4C  IN_DISK_BUF$
    0     4E  OUT_DISK_LEN                       0     4F  OUT_DISK_MES_LEN
    0     50  OUT_DISK_BUF$                      0     52  ERRMASK_STATUS
    0     53  THINGS_ARE_ROSY                    0     54  MONERR
    0     56  PIGLET_SEGMENT                     0     59  ABORT_MSG
    0     62  BUFFER_BYTES                       0     63  DATA_BYTES
    0     64  DEVICE_TABLE                       0     9C  TOP_DEVICE

  ****  Data refs  ****

  Flags:  r = read only, s = secondary
Flgs Name                             Flgs Name                             Flgs Name
     KH_CHNHI                              KH_CHNLOW                             M$HOST
r    G$ROS$
PL6.E3A0      #001=KO_DATA_D File=KO_DATA_D.:E05TSI                              WED 07/30/97 01:16 Page:10

        1        1        /*M* KO_DATA_D - SYMDEFS used in FEP-resident part of PIGLET                  */
        2        2        /*T***********************************************************/
        3        3        /*T*                                                         */
        4        4        /*T* Copyright (c) Bull HN Information Systems Inc., 1997    */
        5        5        /*T*                                                         */
        6        6        /*T***********************************************************/
        7        7        KO_DATA_D: PROC;
        8        8        /******************************************************************************/
        9        9        /*  INCLUDE FILES                                                             */
       10       10        /******************************************************************************/
       11       11        %INCLUDE LCP_6;
       12      202        %INCLUDE KO_MACRO_C;
       13      399        %INCLUDE KO_SUBS;
       14      493        %INCLUDE KP_SUBS;                       /* HOST/FEP message EQUATES           */
       15      677        %INCLUDE KP_MSG;                        /* HOST/FEP message structure         */
       16      770        %INCLUDE KH_CHN;                        /* NODE-ADMIN interface               */
       17      810        %INCLUDE KH_MACRO_C;                    /* NODE-ADMIN interface               */
       18     1553        %INCLUDE KL_CONTROL_C;                  /* NODE-ADMIN EQUs                    */
       19     1933        %INCLUDE G_ROS_M;
       20     2015        %INCLUDE B_ERRORS_C;                    /* Monitor error codes                */
       21     3142        %EJECT;
PL6.E3A0      #001=KO_DATA_D File=KO_DATA_D.:E05TSI                              WED 07/30/97 01:16 Page:11
       22     3143        /******************************************************************************/
       23     3144        /*  STATIC SYMDEF DATA                                                        */
       24     3145        /******************************************************************************/
       25     3146        /**/
       26     3147        /*  CONTROL INFORMATION  */
       27     3148        /**/
       28     3149    1   DCL KO_MEM UBIN WORD STATIC SYMDEF INIT(10); /* Really unused                 */
       29     3150    1   DCL KO_RES CHAR(2) WALIGNED STATIC SYMDEF INIT('DK');
       30     3151    1   DCL KO_ATTR BIT(16) STATIC SYMDEF INIT('0'B);
       31     3152    1   DCL KO_CPU_CHAN SBIN WORD STATIC SYMDEF INIT(0);
       32     3153    1   DCL KO_INTERRUPT_LEVEL SBIN WORD STATIC SYMDEF;
       33     3154    1   DCL KO_RUNNING_LEVEL SBIN WORD STATIC SYMDEF;
       34     3155    1   DCL KO_INHIBIT_LEVEL SBIN WORD STATIC SYMDEF INIT(%KO_BASE_LEVEL#);
       35     3156    1   DCL KO_RETRIES SBIN STATIC SYMDEF INIT(%KO_RETRIES#);
       36     3157    1   DCL DEBUGGING BIT(1) STATIC SYMDEF INIT('0'B); /* 1=wait for debugger to start*/
       37     3158    1   DCL NA_LIVES BIT(1) STATIC SYMDEF INIT('1'B); /* Use Node-Admin for params    */
       38     3159    1   DCL SECS2WAIT UBIN(16) CONSTANT SYMDEF INIT(1); /* Wait if disk is not ready  */
       39     3160    1   DCL SECS2TIMEOUT UBIN(16) CONSTANT SYMDEF INIT(20); /* After this, time out   */
       40     3161    1   DCL MAIN_WAIT SBIN CONSTANT SYMDEF INIT(10); /* Wait in KOA$MAIN loop         */
       41     3162        %EJECT;
PL6.E3A0      #001=KO_DATA_D File=KO_DATA_D.:E05TSI                              WED 07/30/97 01:16 Page:12
       42     3163        /**/
       43     3164        /*  DESCRIBE THE DRIVE WE'RE OPERATING ON  */
       44     3165        /**/
       45     3166    1   DCL KO_CHANNEL UBIN STATIC SYMDEF;
       46     3167    1   DCL KO_DRIVE UBIN STATIC SYMDEF;
       47     3168    1   DCL KO_OPENED BIT(1) STATIC SYMDEF INIT('0'B);
       48     3169        /**/
       49     3170        /*  NODE-ADMIN INTERFACE  */
       50     3171        /**/
       51     3172        %KH_CHNDAT (STCLASS = "SYMREF");
       52     3190        %KH$CTLTBL (FPTN=KH_CTLTBL,STCLASS="STATIC SYMDEF",HIPARM=KL_HNDLRPARM_STD_HI);
       53     3402        /**/
       54     3403        /*  THINGS FOR HOST I/O  */
       55     3404        /**/
       56     3405    1   DCL HOST_LEN SBIN STATIC SYMDEF;        /* Allocated size                     */
       57     3406    1   DCL HOST_MES_LEN SBIN STATIC SYMDEF;    /* Byte count to WRITE                */
       58     3407    1   DCL HOST_BUF$ PTR STATIC SYMDEF INIT(ADDR(ABORT_MSG));
       59     3408        /**/
       60     3409        /*  THINGS FOR DISK I/O (parameters via common)  */
       61     3410        /**/
       62     3411    1   DCL DISK_LEN SBIN STATIC SYMDEF;        /* Byte count for RANGE               */
       63     3412    1   DCL DISK_BUF$ PTR STATIC SYMDEF;        /* ADDR for disk I/O                  */
       64     3413    1   DCL DISK_SECTOR_NO SBIN STATIC SYMDEF;
       65     3414    1   DCL DISK_SEC_SIZE SBIN STATIC SYMDEF;
       66     3415    1   DCL DISK_TRACK_NO SBIN STATIC SYMDEF;
       67     3416    1   DCL DISK_SIDE SBIN STATIC SYMDEF;
       68     3417    1   DCL DISK_RETRIES SBIN STATIC SYMDEF;
       69     3418        %EJECT;
PL6.E3A0      #001=KO_DATA_D File=KO_DATA_D.:E05TSI                              WED 07/30/97 01:16 Page:13
       70     3419        /**/
       71     3420        /*  PHYSICAL I/O BUFFERS  */
       72     3421        /**/
       73     3422    1   DCL IN_DISK_LEN SBIN STATIC SYMDEF;     /* Handy buffer...                    */
       74     3423    1   DCL IN_DISK_MES_LEN SBIN STATIC SYMDEF;
       75     3424    1   DCL IN_DISK_BUF$ PTR STATIC SYMDEF;     /* ...for input from disk             */
       76     3425    1   DCL OUT_DISK_LEN SBIN STATIC SYMDEF;    /* Handy buffer...                    */
       77     3426    1   DCL OUT_DISK_MES_LEN SBIN STATIC SYMDEF;
       78     3427    1   DCL OUT_DISK_BUF$ PTR STATIC SYMDEF;    /* ...for output to disk              */
       79     3428        /**/
       80     3429        /*  Mask of error bits in device status.  */
       81     3430        /**/
       82     3431        %KO_DEVICE_STATUS (NAME = ERRMASK_STATUS,
       83     3432                           NOT_READY = '1'B,
       84     3433                           UC_MEMERR = '1'B,
       85     3434                           BUS_PERR = '1'B,
       86     3435                           NO_RESOURCE = '1'B,
       87     3436                           C_MEMERR = '1'B,
       88     3437                           SEEK_ERROR = '1'B,
       89     3438                           FUTILE_SEARCH = '1'B,
       90     3439                           MISSED_SYNC = '1'B,
       91     3440                           DEV_FAULT = '1'B,
       92     3441                           READ_ERROR = '1'B,
       93     3442                           DELETED_FIELD = '1'B,
       94     3443                           OVERRUN = '1'B,
       95     3444                           STCLASS = "STATIC SYMDEF");
       96     3494        %EJECT;
PL6.E3A0      #001=KO_DATA_D File=KO_DATA_D.:E05TSI                              WED 07/30/97 01:16 Page:14
       97     3495        /**/
       98     3496        /*  VARIOUS STUFF  */
       99     3497        /**/
      100     3498    1   DCL THINGS_ARE_ROSY BIT(1) STATIC SYMDEF INIT('1'B);
      101     3499        %VLP_ERRCODE (FPTN = MONERR, STCLASS = "STATIC SYMDEF");
      102     3545        %VLP_SEGMENT (FPTN=PIGLET_SEGMENT,STCLASS="STATIC SYMDEF");
      103     3566        %KP$MSG (NAME=ABORT_MSG,
      104     3567                 INCL_DATA=NO,
      105     3568                 STCLASS="STATIC SYMDEF");
      106     3644        %KP$MSG (NAME=KP_MSG,
      107     3645                 STCLASS="BASED(HOST_BUF$)");
      108     3721        %EJECT;
PL6.E3A0      #001=KO_DATA_D File=KO_DATA_D.:E05TSI                              WED 07/30/97 01:16 Page:15
      109     3722        /**/
      110     3723        /*  LIMITS TO LIVE BY  */
      111     3724        /**/
      112     3725    1   DCL BUFFER_BYTES SBIN WORD STATIC SYMDEF; /* Size of entire normal MSG buffer */
      113     3726    1   DCL DATA_BYTES SBIN WORD STATIC SYMDEF; /* Size of data part of normal MSG    */
      114     3727        /**/
      115     3728        /*  TABLES  */
      116     3729        /**/
      117     3730    1   DCL 1 DEVICE_TABLE STATIC SYMDEF,
      118     3731    1         2 DEV_ENTRY (0:%KP_MAX_DRIVE#),   /* 0-LAST_DEVICE actually used        */
      119     3732                %KO_DEVICE_INFO (NAME = UNUSED, HEADER = NO, LVL = 3,
      120     3733                                 STCLASS = "STATIC SYMDEF", LAST = ",");
      121     3830    1         2 * SBIN WORD,
      122     3831    1         2 * SBIN WORD;
      123     3832    1   DCL TOP_DEVICE SBIN WORD STATIC SYMDEF;
      124     3833        /******************************************************************************/
      125     3834        /*  GLOBAL STUFF FROM THE OUTSIDE WORLD                                       */
      126     3835        /******************************************************************************/
      127     3836    1   DCL G$TCB$ PTR SYMREF;
      128     3837    1   DCL G$ROS$ PTR SYMREF;
      129     3838    1   DCL M$HOST DCB;
      130     3839        /******************************************************************************/
      131     3840    1             END KO_DATA_D;

PL6.E3A0      #001=KO_DATA_D File=KO_DATA_D.:E05TSI                              WED 07/30/97 01:16 Page:16
--  Include file information  --

   B_ERRORS_C.:E05TOU  is referenced.
   G_ROS_M.:E05TOU  is referenced.
   KL_CONTROL_C.:E05TOU  is referenced.
   KH_MACRO_C.:E05TOU  is referenced.
   KH_CHN.:E05TOU  is referenced.
   KP_MSG.:E05TOU  is referenced.
   KP_SUBS.:E05TOU  is referenced.
   KO_SUBS.:E05TOU  is referenced.
   KO_MACRO_C.:E05TOU  is referenced.
   LCP_6.:E05TOU  cannot be made into a system file and is referenced.
   G_LCP6_E.:E05TOU  was found in the system file and is referenced.
   GT_LCP6_M.:E05TOU  was found in the system file and is referenced.
   KI_CP6.:E05TOU  was found in the system file and is referenced.
   GF_LCP6_M.:E05TOU  was found in the system file and is referenced.
   GM_LCP6_M.:E05TOU  was found in the system file and is referenced.
   GU_LCP6_M.:E05TOU  was found in the system file and is referenced.
   GJ_LCP6_M.:E05TOU  was found in the system file and is referenced.
   GH_LCP6_M.:E05TOU  was found in the system file and is referenced.
      No diagnostics issued in procedure KO_DATA_D.
PL6.E3A0      #001=KO_DATA_D File=KO_DATA_D.:E05TSI                              WED 07/30/97 01:16 Page:17

 **** Variables and constants ****

  ****  Section 000  Data  KO_DATA_D

  ****  Scalars and arrays  ****
HexLoc.c.b A Datatyp(siz) R M Lvl/name                 HexLoc.c.b A Datatyp(siz) R M Lvl/name

    59-0-0/w STRC(144)   r     1 ABORT_MSG                 40-0-0/w PTR         r     1 HOST_BUF$


   No code generated for procedure KO_DATA_D .
   Procedure KO_DATA_D requires 4 words of local(AUTO) storage.

    No errors detected in file KO_DATA_D.:E05TSI    .
PL6.E3A0      #001=KO_DATA_D File=KO_DATA_D.:E05TSI                              WED 07/30/97 01:16 Page:18
          *** CROSS REFERENCE LISTING ***
**     DENOTES     IDENTIFIER DEFINITION
<<                 IDENTIFIER'S VALUE SET
>>                 IDENTIFIER'S VALUE USED
<>                 IDENTIFIER SET AND/OR USED
--                 IDENTIFIER REFERENCED
PL6.E3A0      #001=KO_DATA_D File=KO_DATA_D.:E05TSI                              WED 07/30/97 01:16 Page:19
          MINI XREF LISTING

ABORT_MSG
      3569**DCL      3407--DCLINIT
HOST_BUF$
      3407**DCL      3646--IMP-PTR
KH_CHNHI
      3185**DCL      3186--REDEF
KH_CHNLOW
      3186**DCL      3187--REDEF
KP_MSG.TDATA
      3672**DCL      3673--REDEF    3674--REDEF    3679--REDEF    3693--REDEF    3698--REDEF    3702--REDEF
      3708--REDEF    3711--REDEF
PIGLET_SEGMENT.BASE
      3563**DCL      3563--REDEF
