VERSION E05

PL6.E3A0      #001=KPD$DISK_TYPE File=KPD$DISK_TYPE.:E05TSI                      WED 07/30/97 01:18 Page:1
        1        1        /*M* KPD$DISK_TYPE - Sets standards for various diskette types                */
        2        2        /*T***********************************************************/
        3        3        /*T*                                                         */
        4        4        /*T* Copyright (c) Bull HN Information Systems Inc., 1997    */
        5        5        /*T*                                                         */
        6        6        /*T***********************************************************/
        7        7        /*X* DMC,DFC */
        8        8        /*F*     NAME:          KPD$DISK_TYPE
        9        9                 PURPOSE:       Load default parameters for various diskette types.
       10       10        */
       11       11        KPD$DISK_TYPE: PROC(DISK_PARAMS,DISK_TYPE);
       12       12        /**/
       13       13        /*  INCLUDE FILES  */
       14       14        /**/
       15       15        %INCLUDE KP_DATA_R;
       16     1267        /**/
       17     1268        /*  PARAMETERS  */
       18     1269        /**/
       19     1270        %KP_OPTIONS (FPTN=DISK_PARAMS,STCLASS="");
       20     1303    1   DCL DISK_TYPE SBIN WORD;
       21     1304        /**/
       22     1305        %KP_OPTIONS (FPTN=DP_SSSSD,
       23     1306           TRACK_LO=0,
       24     1307           TRACK_HI=76,
       25     1308           SECTOR_LO=1,
       26     1309           SECTOR_HI=26,
       27     1310           SIDE_LO=0,
       28     1311           SIDE_HI=0,
       29     1312           SECTOR_SIZE=128,
       30     1313           STCLASS=CONSTANT);
       31     1346        %KP_OPTIONS (FPTN=DP_SSSDD,
       32     1347           TRACK_LO=0,
       33     1348           TRACK_HI=76,
       34     1349           SECTOR_LO=1,
       35     1350           SECTOR_HI=26,
       36     1351           SIDE_LO=0,
       37     1352           SIDE_HI=0,
PL6.E3A0      #001=KPD$DISK_TYPE File=KPD$DISK_TYPE.:E05TSI                      WED 07/30/97 01:18 Page:2
       38     1353           SECTOR_SIZE=256,
       39     1354           STCLASS=CONSTANT);
       40     1387        %KP_OPTIONS (FPTN=DP_SDSSD,
       41     1388           TRACK_LO=0,
       42     1389           TRACK_HI=76,
       43     1390           SECTOR_LO=1,
       44     1391           SECTOR_HI=26,
       45     1392           SIDE_LO=0,
       46     1393           SIDE_HI=1,
       47     1394           SECTOR_SIZE=128,
       48     1395           STCLASS=CONSTANT);
       49     1428        %KP_OPTIONS (FPTN=DP_SDSDD,
       50     1429           TRACK_LO=0,
       51     1430           TRACK_HI=76,
       52     1431           SECTOR_LO=1,
       53     1432           SECTOR_HI=26,
       54     1433           SIDE_LO=0,
       55     1434           SIDE_HI=1,
       56     1435           SECTOR_SIZE=256,
       57     1436           STCLASS=CONSTANT);
       58     1469        %KP_OPTIONS (FPTN=DP_MSSSD,
       59     1470           TRACK_LO=0,
       60     1471           TRACK_HI=79,
       61     1472           SECTOR_LO=1,
       62     1473           SECTOR_HI=16,
       63     1474           SIDE_LO=0,
       64     1475           SIDE_HI=0,
       65     1476           SECTOR_SIZE=128,
       66     1477           STCLASS=CONSTANT);
       67     1510        %KP_OPTIONS (FPTN=DP_MSSDD,
       68     1511           TRACK_LO=0,
       69     1512           TRACK_HI=79,
       70     1513           SECTOR_LO=1,
       71     1514           SECTOR_HI=16,
       72     1515           SIDE_LO=0,
       73     1516           SIDE_HI=0,
       74     1517           SECTOR_SIZE=256,
PL6.E3A0      #001=KPD$DISK_TYPE File=KPD$DISK_TYPE.:E05TSI                      WED 07/30/97 01:18 Page:3
       75     1518           STCLASS=CONSTANT);
       76     1551        %KP_OPTIONS (FPTN=DP_MDSSD,
       77     1552           TRACK_LO=0,
       78     1553           TRACK_HI=79,
       79     1554           SECTOR_LO=1,
       80     1555           SECTOR_HI=16,
       81     1556           SIDE_LO=0,
       82     1557           SIDE_HI=1,
       83     1558           SECTOR_SIZE=128,
       84     1559           STCLASS=CONSTANT);
       85     1592        %KP_OPTIONS (FPTN=DP_MDSDD,
       86     1593           TRACK_LO=0,
       87     1594           TRACK_HI=79,
       88     1595           SECTOR_LO=1,
       89     1596           SECTOR_HI=16,
       90     1597           SIDE_LO=0,
       91     1598           SIDE_HI=1,
       92     1599           SECTOR_SIZE=256,
       93     1600           STCLASS=CONSTANT);
       94     1633        %KP_OPTIONS (FPTN=DP_RFEP,
       95     1634           TRACK_LO=0,
       96     1635           TRACK_HI=79,
       97     1636           SECTOR_LO=0,
       98     1637           SECTOR_HI=15,
       99     1638           SIDE_LO=0,
      100     1639           SIDE_HI=1,
      101     1640           SECTOR_SIZE=256,
      102     1641           STCLASS=CONSTANT);
      103     1674        /**/
      104     1675    2       DO CASE(DISK_TYPE);
      105     1676    2          CASE(%DT_SSSSD#);
      106     1677    2            DISK_PARAMS = DP_SSSSD;
      107     1678    2          CASE(%DT_SSSDD#);
      108     1679    2            DISK_PARAMS = DP_SSSDD;
      109     1680    2          CASE(%DT_SDSSD#);
      110     1681    2            DISK_PARAMS = DP_SDSSD;
      111     1682    2          CASE(%DT_SDSDD#);
PL6.E3A0      #001=KPD$DISK_TYPE File=KPD$DISK_TYPE.:E05TSI                      WED 07/30/97 01:18 Page:4
      112     1683    2            DISK_PARAMS = DP_SDSDD;
      113     1684    2          CASE(%DT_MSSSD#);
      114     1685    2            DISK_PARAMS = DP_MSSSD;
      115     1686    2          CASE(%DT_MSSDD#);
      116     1687    2            DISK_PARAMS = DP_MSSDD;
      117     1688    2          CASE(%DT_MDSSD#);
      118     1689    2            DISK_PARAMS = DP_MDSSD;
      119     1690    2          CASE(%DT_MDSDD#);
      120     1691    2            DISK_PARAMS = DP_MDSDD;
      121     1692    2          CASE(%DT_RFEP#);
      122     1693    2            DISK_PARAMS = DP_RFEP;
      123     1694    2          END;                             /* END DO CASE                        */
      124     1695    1       RETURN;
      125     1696        /**/
      126     1697    1       END KPD$DISK_TYPE;

PL6.E3A0      #001=KPD$DISK_TYPE File=KPD$DISK_TYPE.:E05TSI                      WED 07/30/97 01:18 Page:5
--  Include file information  --

   XU_FORMAT_C.:E05TOU  is referenced.
   CP_6.:E05TOU  cannot be made into a system file and is referenced.
   KP_MACRO_C.:E05TOU  is referenced.
   KI_SUBS_C.:E05TOU  is referenced.
   KP_PERR_C.:E05TOU  is referenced.
   KP_SUBS.:E05TOU  is referenced.
   KP_DATA_R.:E05TOU  cannot be made into a system file and is referenced.
   B$JIT_C.:E05TOU  was found in the system file and is never referenced.
   CP_6_C.:E05TOU  was found in the system file and is referenced.
      No diagnostics issued in procedure KPD$DISK_TYPE.

   Procedure KPD$DISK_TYPE requires 62 words for executable code.
   Procedure KPD$DISK_TYPE requires 6 words of local(AUTO) storage.

    No errors detected in file KPD$DISK_TYPE.:E05TSI    .

PL6.E3A0      #001=KPD$DISK_TYPE File=KPD$DISK_TYPE.:E05TSI                      WED 07/30/97 01:18 Page:6

 Object Unit name= KPD$DISK_TYPE                              File name= KPD$DISK_TYPE.:E05TOU
 UTS= JUL 30 '97 01:18:04.88 WED                              Compiler= PL-6/E31         Sev=      00
 SharedLib= :SHARED_SYSTEM                                    Alt SharedLib=


    ****  Control sections  ****

 Sect   Type Bound  Init  Size OctSiz  Section name(segment info)
    0   DCB   even  none     0      0  M$UC
    1  RoData even  UTS    117    165  KPD$DISK_TYPE
    2   Proc  even  none    62     76  KPD$DISK_TYPE

    ****  Entry defs  ****

                              Check   Calling
                             calling  sequence
  Sect OctLoc Primary Altret sequence   type   Parms  Name
     2      0   yes            yes      Std        2  KPD$DISK_TYPE

  ****  Entry refs  ****

         Check        Calling
        calling       sequence
Altret sequence SRef   type   Args  Name
                       nStd      0 X66_AUTO_2
                       nStd      0 X66_ARET

  ****  Data refs  ****

  Flags:  r = read only, s = secondary
Flgs Name                             Flgs Name                             Flgs Name
     M$UC                                  KP_INBUF                              KP_RU_OUTBUF
     KP_RU_KEY
PL6.E3A0      #001=KPD$DISK_TYPE File=KPD$DISK_TYPE.:E05TSI                      WED 07/30/97 01:18 Page:7


        1        1        /*M* KPD$DISK_TYPE - Sets standards for various diskette types                */
        2        2        /*T***********************************************************/
        3        3        /*T*                                                         */
        4        4        /*T* Copyright (c) Bull HN Information Systems Inc., 1997    */
        5        5        /*T*                                                         */
        6        6        /*T***********************************************************/
        7        7        /*X* DMC,DFC */
        8        8        /*F*     NAME:          KPD$DISK_TYPE
        9        9                 PURPOSE:       Load default parameters for various diskette types.
       10       10        */
       11       11        KPD$DISK_TYPE: PROC(DISK_PARAMS,DISK_TYPE);

     11  2 000000   000000 700200 xent  KPD$DISK_TY* TSX0  ! X66_AUTO_2
         2 000001   000006 000002                    ZERO    6,2

       12       12        /**/
       13       13        /*  INCLUDE FILES  */
       14       14        /**/
       15       15        %INCLUDE KP_DATA_R;
       16     1267        /**/
       17     1268        /*  PARAMETERS  */
       18     1269        /**/
       19     1270        %KP_OPTIONS (FPTN=DISK_PARAMS,STCLASS="");
       20     1303    1   DCL DISK_TYPE SBIN WORD;
       21     1304        /**/
       22     1305        %KP_OPTIONS (FPTN=DP_SSSSD,
       23     1306           TRACK_LO=0,
       24     1307           TRACK_HI=76,
       25     1308           SECTOR_LO=1,
       26     1309           SECTOR_HI=26,
       27     1310           SIDE_LO=0,
       28     1311           SIDE_HI=0,
       29     1312           SECTOR_SIZE=128,
       30     1313           STCLASS=CONSTANT);
       31     1346        %KP_OPTIONS (FPTN=DP_SSSDD,
       32     1347           TRACK_LO=0,
PL6.E3A0      #001=KPD$DISK_TYPE File=KPD$DISK_TYPE.:E05TSI                      WED 07/30/97 01:18 Page:8
       33     1348           TRACK_HI=76,
       34     1349           SECTOR_LO=1,
       35     1350           SECTOR_HI=26,
       36     1351           SIDE_LO=0,
       37     1352           SIDE_HI=0,
       38     1353           SECTOR_SIZE=256,
       39     1354           STCLASS=CONSTANT);
       40     1387        %KP_OPTIONS (FPTN=DP_SDSSD,
       41     1388           TRACK_LO=0,
       42     1389           TRACK_HI=76,
       43     1390           SECTOR_LO=1,
       44     1391           SECTOR_HI=26,
       45     1392           SIDE_LO=0,
       46     1393           SIDE_HI=1,
       47     1394           SECTOR_SIZE=128,
       48     1395           STCLASS=CONSTANT);
       49     1428        %KP_OPTIONS (FPTN=DP_SDSDD,
       50     1429           TRACK_LO=0,
       51     1430           TRACK_HI=76,
       52     1431           SECTOR_LO=1,
       53     1432           SECTOR_HI=26,
       54     1433           SIDE_LO=0,
       55     1434           SIDE_HI=1,
       56     1435           SECTOR_SIZE=256,
       57     1436           STCLASS=CONSTANT);
       58     1469        %KP_OPTIONS (FPTN=DP_MSSSD,
       59     1470           TRACK_LO=0,
       60     1471           TRACK_HI=79,
       61     1472           SECTOR_LO=1,
       62     1473           SECTOR_HI=16,
       63     1474           SIDE_LO=0,
       64     1475           SIDE_HI=0,
       65     1476           SECTOR_SIZE=128,
       66     1477           STCLASS=CONSTANT);
       67     1510        %KP_OPTIONS (FPTN=DP_MSSDD,
       68     1511           TRACK_LO=0,
       69     1512           TRACK_HI=79,
PL6.E3A0      #001=KPD$DISK_TYPE File=KPD$DISK_TYPE.:E05TSI                      WED 07/30/97 01:18 Page:9
       70     1513           SECTOR_LO=1,
       71     1514           SECTOR_HI=16,
       72     1515           SIDE_LO=0,
       73     1516           SIDE_HI=0,
       74     1517           SECTOR_SIZE=256,
       75     1518           STCLASS=CONSTANT);
       76     1551        %KP_OPTIONS (FPTN=DP_MDSSD,
       77     1552           TRACK_LO=0,
       78     1553           TRACK_HI=79,
       79     1554           SECTOR_LO=1,
       80     1555           SECTOR_HI=16,
       81     1556           SIDE_LO=0,
       82     1557           SIDE_HI=1,
       83     1558           SECTOR_SIZE=128,
       84     1559           STCLASS=CONSTANT);
       85     1592        %KP_OPTIONS (FPTN=DP_MDSDD,
       86     1593           TRACK_LO=0,
       87     1594           TRACK_HI=79,
       88     1595           SECTOR_LO=1,
       89     1596           SECTOR_HI=16,
       90     1597           SIDE_LO=0,
       91     1598           SIDE_HI=1,
       92     1599           SECTOR_SIZE=256,
       93     1600           STCLASS=CONSTANT);
       94     1633        %KP_OPTIONS (FPTN=DP_RFEP,
       95     1634           TRACK_LO=0,
       96     1635           TRACK_HI=79,
       97     1636           SECTOR_LO=0,
       98     1637           SECTOR_HI=15,
       99     1638           SIDE_LO=0,
      100     1639           SIDE_HI=1,
      101     1640           SECTOR_SIZE=256,
      102     1641           STCLASS=CONSTANT);
      103     1674        /**/
      104     1675    2       DO CASE(DISK_TYPE);

   1675  2 000002   200004 470500                    LDP0    @DISK_TYPE,,AUTO
PL6.E3A0      #001=KPD$DISK_TYPE File=KPD$DISK_TYPE.:E05TSI                      WED 07/30/97 01:18 Page:10
         2 000003   000000 235100                    LDA     0,,PR0
         2 000004   000012 115007                    CMPA    10,DL
         2 000005   000007 602005 2                  TNC     s:1675+5,AL
         2 000006   000075 710000 2                  TRA     s:1695
         2 000007   000075 710000 2                  TRA     s:1695
         2 000010   000021 710000 2                  TRA     s:1677
         2 000011   000026 710000 2                  TRA     s:1679
         2 000012   000033 710000 2                  TRA     s:1681
         2 000013   000040 710000 2                  TRA     s:1683
         2 000014   000045 710000 2                  TRA     s:1685
         2 000015   000052 710000 2                  TRA     s:1687
         2 000016   000057 710000 2                  TRA     s:1689
         2 000017   000064 710000 2                  TRA     s:1691
         2 000020   000071 710000 2                  TRA     s:1693

      105     1676    2          CASE(%DT_SSSSD#);

      106     1677    2            DISK_PARAMS = DP_SSSSD;

   1677  2 000021   200003 471500                    LDP1    @DISK_PARAMS,,AUTO
         2 000022   000100 100400                    MLR     fill='000'O
         2 000023   000000 000064 1                  ADSC9   DP_SSSSD                 cn=0,n=52
         2 000024   100000 000064                    ADSC9   0,,PR1                   cn=0,n=52
         2 000025   000075 710000 2                  TRA     s:1695

      107     1678    2          CASE(%DT_SSSDD#);

      108     1679    2            DISK_PARAMS = DP_SSSDD;

   1679  2 000026   200003 471500                    LDP1    @DISK_PARAMS,,AUTO
         2 000027   000100 100400                    MLR     fill='000'O
         2 000030   000015 000064 1                  ADSC9   DP_SSSDD                 cn=0,n=52
         2 000031   100000 000064                    ADSC9   0,,PR1                   cn=0,n=52
         2 000032   000075 710000 2                  TRA     s:1695

      109     1680    2          CASE(%DT_SDSSD#);

PL6.E3A0      #001=KPD$DISK_TYPE File=KPD$DISK_TYPE.:E05TSI                      WED 07/30/97 01:18 Page:11
      110     1681    2            DISK_PARAMS = DP_SDSSD;

   1681  2 000033   200003 471500                    LDP1    @DISK_PARAMS,,AUTO
         2 000034   000100 100400                    MLR     fill='000'O
         2 000035   000032 000064 1                  ADSC9   DP_SDSSD                 cn=0,n=52
         2 000036   100000 000064                    ADSC9   0,,PR1                   cn=0,n=52
         2 000037   000075 710000 2                  TRA     s:1695

      111     1682    2          CASE(%DT_SDSDD#);

      112     1683    2            DISK_PARAMS = DP_SDSDD;

   1683  2 000040   200003 471500                    LDP1    @DISK_PARAMS,,AUTO
         2 000041   000100 100400                    MLR     fill='000'O
         2 000042   000047 000064 1                  ADSC9   DP_SDSDD                 cn=0,n=52
         2 000043   100000 000064                    ADSC9   0,,PR1                   cn=0,n=52
         2 000044   000075 710000 2                  TRA     s:1695

      113     1684    2          CASE(%DT_MSSSD#);

      114     1685    2            DISK_PARAMS = DP_MSSSD;

   1685  2 000045   200003 471500                    LDP1    @DISK_PARAMS,,AUTO
         2 000046   000100 100400                    MLR     fill='000'O
         2 000047   000064 000064 1                  ADSC9   DP_MSSSD                 cn=0,n=52
         2 000050   100000 000064                    ADSC9   0,,PR1                   cn=0,n=52
         2 000051   000075 710000 2                  TRA     s:1695

      115     1686    2          CASE(%DT_MSSDD#);

      116     1687    2            DISK_PARAMS = DP_MSSDD;

   1687  2 000052   200003 471500                    LDP1    @DISK_PARAMS,,AUTO
         2 000053   000100 100400                    MLR     fill='000'O
         2 000054   000101 000064 1                  ADSC9   DP_MSSDD                 cn=0,n=52
         2 000055   100000 000064                    ADSC9   0,,PR1                   cn=0,n=52
         2 000056   000075 710000 2                  TRA     s:1695
PL6.E3A0      #001=KPD$DISK_TYPE File=KPD$DISK_TYPE.:E05TSI                      WED 07/30/97 01:18 Page:12

      117     1688    2          CASE(%DT_MDSSD#);

      118     1689    2            DISK_PARAMS = DP_MDSSD;

   1689  2 000057   200003 471500                    LDP1    @DISK_PARAMS,,AUTO
         2 000060   000100 100400                    MLR     fill='000'O
         2 000061   000116 000064 1                  ADSC9   DP_MDSSD                 cn=0,n=52
         2 000062   100000 000064                    ADSC9   0,,PR1                   cn=0,n=52
         2 000063   000075 710000 2                  TRA     s:1695

      119     1690    2          CASE(%DT_MDSDD#);

      120     1691    2            DISK_PARAMS = DP_MDSDD;

   1691  2 000064   200003 471500                    LDP1    @DISK_PARAMS,,AUTO
         2 000065   000100 100400                    MLR     fill='000'O
         2 000066   000133 000064 1                  ADSC9   DP_MDSDD                 cn=0,n=52
         2 000067   100000 000064                    ADSC9   0,,PR1                   cn=0,n=52
         2 000070   000075 710000 2                  TRA     s:1695

      121     1692    2          CASE(%DT_RFEP#);

      122     1693    2            DISK_PARAMS = DP_RFEP;

   1693  2 000071   200003 471500                    LDP1    @DISK_PARAMS,,AUTO
         2 000072   000100 100400                    MLR     fill='000'O
         2 000073   000150 000064 1                  ADSC9   DP_RFEP                  cn=0,n=52
         2 000074   100000 000064                    ADSC9   0,,PR1                   cn=0,n=52

      123     1694    2          END;                             /* END DO CASE                        */

      124     1695    1       RETURN;

   1695  2 000075   000000 702200 xent               TSX2  ! X66_ARET
      125     1696        /**/
      126     1697    1       END KPD$DISK_TYPE;
PL6.E3A0      #001=KPD$DISK_TYPE File=KPD$DISK_TYPE.:E05TSI                      WED 07/30/97 01:18 Page:13

PL6.E3A0      #001=KPD$DISK_TYPE File=KPD$DISK_TYPE.:E05TSI                      WED 07/30/97 01:18 Page:14
--  Include file information  --

   XU_FORMAT_C.:E05TOU  is referenced.
   CP_6.:E05TOU  cannot be made into a system file and is referenced.
   KP_MACRO_C.:E05TOU  is referenced.
   KI_SUBS_C.:E05TOU  is referenced.
   KP_PERR_C.:E05TOU  is referenced.
   KP_SUBS.:E05TOU  is referenced.
   KP_DATA_R.:E05TOU  cannot be made into a system file and is referenced.
   B$JIT_C.:E05TOU  was found in the system file and is never referenced.
   CP_6_C.:E05TOU  was found in the system file and is referenced.
      No diagnostics issued in procedure KPD$DISK_TYPE.
PL6.E3A0      #001=KPD$DISK_TYPE File=KPD$DISK_TYPE.:E05TSI                      WED 07/30/97 01:18 Page:15

 **** Variables and constants ****

  ****  Section 001 RoData KPD$DISK_TYPE

  ****  Scalars and arrays  ****
OctLoc.c.b A Datatyp(siz) R M Lvl/name                 OctLoc.c.b A Datatyp(siz) R M Lvl/name

   133-0-0/w STRC(468)   r     1 DP_MDSDD                 116-0-0/w STRC(468)   r     1 DP_MDSSD
   101-0-0/w STRC(468)   r     1 DP_MSSDD                  64-0-0/w STRC(468)   r     1 DP_MSSSD
   150-0-0/w STRC(468)   r     1 DP_RFEP                   47-0-0/w STRC(468)   r     1 DP_SDSDD
    32-0-0/w STRC(468)   r     1 DP_SDSSD                  15-0-0/w STRC(468)   r     1 DP_SSSDD
     0-0-0/w STRC(468)   r     1 DP_SSSSD

  ****  Auto variables  ****

  ****  Scalars and arrays  ****
OctLoc.c.b A Datatyp(siz) R M Lvl/name                 OctLoc.c.b A Datatyp(siz) R M Lvl/name

     3-0-0/w PTR         r     1 @DISK_PARAMS               4-0-0/w PTR         r     1 @DISK_TYPE
    *0-0-0/w STRC(468)   r     1 DISK_PARAMS               *0-0-0/w SBIN        r     1 DISK_TYPE


   Procedure KPD$DISK_TYPE requires 62 words for executable code.
   Procedure KPD$DISK_TYPE requires 6 words of local(AUTO) storage.

    No errors detected in file KPD$DISK_TYPE.:E05TSI    .
PL6.E3A0      #001=KPD$DISK_TYPE File=KPD$DISK_TYPE.:E05TSI                      WED 07/30/97 01:18 Page:16
          *** CROSS REFERENCE LISTING ***
**     DENOTES     IDENTIFIER DEFINITION
<<                 IDENTIFIER'S VALUE SET
>>                 IDENTIFIER'S VALUE USED
<>                 IDENTIFIER SET AND/OR USED
--                 IDENTIFIER REFERENCED
PL6.E3A0      #001=KPD$DISK_TYPE File=KPD$DISK_TYPE.:E05TSI                      WED 07/30/97 01:18 Page:17
          MINI XREF LISTING

DISK_PARAMS
      1284**DCL        11--PROC     1677<<ASSIGN   1679<<ASSIGN   1681<<ASSIGN   1683<<ASSIGN   1685<<ASSIGN
      1687<<ASSIGN   1689<<ASSIGN   1691<<ASSIGN   1693<<ASSIGN
DISK_TYPE
      1303**DCL        11--PROC     1675>>DOCASE
DP_MDSDD
      1614**DCL      1691>>ASSIGN
DP_MDSSD
      1573**DCL      1689>>ASSIGN
DP_MSSDD
      1532**DCL      1687>>ASSIGN
DP_MSSSD
      1491**DCL      1685>>ASSIGN
DP_RFEP
      1655**DCL      1693>>ASSIGN
DP_SDSDD
      1450**DCL      1683>>ASSIGN
DP_SDSSD
      1409**DCL      1681>>ASSIGN
DP_SSSDD
      1368**DCL      1679>>ASSIGN
DP_SSSSD
      1327**DCL      1677>>ASSIGN
KP_EXIT.V.STEPCC#
       938**DCL       938--REDEF
KP_INBUF
       860**DCL       860--REDEF
KP_RU_KEY
       868**DCL       869--REDEF
KP_RU_KEY.NODE
       868**DCL       868--REDEF
KP_RU_KEY.PAGE
PL6.E3A0      #001=KPD$DISK_TYPE File=KPD$DISK_TYPE.:E05TSI                      WED 07/30/97 01:18 Page:18
       869**DCL       869--REDEF
KP_RU_OUTBUF
       862**DCL       862--REDEF
