VERSION E05

PL6.E3A0      #001=KPE$ERROR File=KPE$ERROR.:E05TSI                              WED 07/30/97 01:18 Page:1
        1        1        /*M* KPE$ERROR contains various error-handling routines for PIGETTE.          */
        2        2        /*T***********************************************************/
        3        3        /*T*                                                         */
        4        4        /*T* Copyright (c) Bull HN Information Systems Inc., 1997    */
        5        5        /*T*                                                         */
        6        6        /*T***********************************************************/
        7        7        /*F*     NAME:          KPE$ERROR
        8        8                 PURPOSE:       Be a single depository for all error msgs
        9        9                 DESCRIPTION:   Call the error-message reporter with
       10       10                                a PIGETTE-specific error message.
       11       11        */
       12       12        KPE$ERROR : PROC( ERROR_CODE ) ALTRET;
       13       13        /**/
       14       14        /*  Include files */
       15       15        /**/
       16       16        %INCLUDE KP_DATA_R;
       17     1268        /**/
       18     1269        /*  Entry declarations */
       19     1270        /**/
       20     1271    1   DCL XUR$ERRMSG ENTRY(7) ALTRET;
       21     1272        /**/
       22     1273    1   DCL 1 KP_ERRORCODE STATIC SYMDEF,
       23     1274    1         2 FCG_MID UBIN HALF UNAL INIT( BITBIN('132005'O) ),
       24     1275    1         2 MON BIT(1) UNAL INIT( '0'B ),
       25     1276    1         2 ERR# UBIN(14) UNAL,
       26     1277    1         2 SEV UBIN(3) UNAL;
       27     1278        /**/
       28     1279    1   DCL ERROR_CODE UBIN WORD;
       29     1280        /**/
       30     1281        /*E* ERROR:KPE-E$KP_OVER_RUN
       31     1282             MESSAGE:%%U1 %Data overrun/underrun occurred on drive. */
       32     1283        /**/
       33     1284        /*E* ERROR:KPE-E$KP_DEL_DATA
       34     1285             MESSAGE:%%U1 %Data record marked deleted */
       35     1286        /**/
       36     1287        /*E* ERROR:KPE-E$KP_READ_ERR
       37     1288             MESSAGE:%%U1 %Read error occurred on drive */
PL6.E3A0      #001=KPE$ERROR File=KPE$ERROR.:E05TSI                              WED 07/30/97 01:18 Page:2
       38     1289        /**/
       39     1290        /*E* ERROR:KPE-E$KP_DEV_FAULT
       40     1291             MESSAGE:%%U1 %Fault condition has occurred on drive */
       41     1292        /**/
       42     1293        /*E* ERROR:KPE-E$KP_DATA_SYNC
       43     1294             MESSAGE:%%U1 %Missed Data Sync */
       44     1295        /**/
       45     1296        /*E* ERROR:KPE-E$KP_BAD_SRCH
       46     1297             MESSAGE:%%U1 %Unsuccessful search during read/write operation */
       47     1298        /**/
       48     1299        /*E* ERROR:KPE-E$KP_NOT_READY
       49     1300             MESSAGE:%%U1 %Drive selected is not ready! Check diskette and/or drive */
       50     1301        /**/
       51     1302        /*E* ERROR:KPE-E$KP_DRIVE_BUSY
       52     1303             MESSAGE:%%U1 %That FEP's drive is busy. Try again later.*/
       53     1304        /**/
       54     1305        /**/
       55     1306        /*E* ERROR:KPE-E$KP_SEEK_ERR
       56     1307             MESSAGE:%%U1 %Seek error occurred on drive */
       57     1308        /**/
       58     1309        /*E* ERROR:KPE-E$KP_NO_DRIVE
       59     1310             MESSAGE:%%U1 %There is no such drive on that FEP!*/
       60     1311        /**/
       61     1312        /*E* ERROR:KPE-E$KP_C_MEM_ERR
       62     1313             MESSAGE:%%U1 %Corrected memory error occurred during operation */
       63     1314        /**/
       64     1315        /*E* ERROR:KPE-E$KP_NO_RSRC
       65     1316             MESSAGE:%%U1 %Non-existent resource requested */
       66     1317        /**/
       67     1318        /*E* ERROR:KPE-E$KP_BUS_ERR
       68     1319             MESSAGE:%%U1 %Bus parity error! */
       69     1320        /**/
       70     1321        /*E* ERROR:KPE-E$KP_U_MEM_ERR
       71     1322             MESSAGE:%%U1 %Non-correctable memory error occurred during operation! */
       72     1323        /**/
       73     1324        /*E* ERROR:KPE-E$FEP_OUT_OF_RANGE
       74     1325             MESSAGE:%%U1 %FEP number is out of range or bad node name. */
PL6.E3A0      #001=KPE$ERROR File=KPE$ERROR.:E05TSI                              WED 07/30/97 01:18 Page:3
       75     1326        /**/
       76     1327        /*E* ERROR:KPE-E$DRIVE_OUT_OF_RANGE
       77     1328             MESSAGE:%%U1 %Drive number is out of range. */
       78     1329        /**/
       79     1330        /*E* ERROR:KPE-E$FEP_NOT_THERE
       80     1331             MESSAGE:%%U1 %FEP selected is an ex-FEP. */
       81     1332        /**/
       82     1333        /*E* ERROR:KPE-E$NOT_FEP_RU
       83     1334             MESSAGE:%%U1 %That's not an FEP run unit. */
       84     1335        /**/
       85     1336        /*E* ERROR:KPE-E$NO_HEAD
       86     1337             MESSAGE:%%U1 %Run unit does not have a HEAD record. */
       87     1338        /**/
       88     1339        /*E* ERROR:KPE-E$NO_BIRTH
       89     1340             MESSAGE:%%U1 %Run unit does not have a BIRTH record. */
       90     1341        /**/
       91     1342        /*E* ERROR:KPE-E$NO_PGM_TXT
       92     1343             MESSAGE:%%U1 %Run unit does not have any program text. */
       93     1344        /**/
       94     1345        /*E* ERROR:KPE-E$TOO_BIG
       95     1346             MESSAGE:%%U1 %That FEP's too big to fit on a diskette! */
       96     1347        /**/
       97     1348        /*E* ERROR:KPE-E$BLANK_DSK
       98     1349             MESSAGE:%%U1 %Source diskette has no pgm text on it! */
       99     1350        /**/
      100     1351        /*E* ERROR:KPE-E$VD_RDSIZERR
      101     1352             MESSAGE:%%U1 %Sector size error. */
      102     1353        /**/
      103     1354        /*E* ERROR:KPE-E$NODE_NOT_FEP
      104     1355             MESSAGE:%%U1 %That node is not a FEP! */
      105     1356        /**/
      106     1357        /*E* ERROR:KPE-E$MUST_USE2_FEP
      107     1358             MESSAGE:%%U1 %A USE command is in effect for a different FEP! */
      108     1359        /**/
      109     1360        /*E* ERROR:KPE-E$SECURITY_VIOLATION
      110     1361             MESSAGE:%%U1 %You are not authorized to do that. */
      111     1362        /**/
PL6.E3A0      #001=KPE$ERROR File=KPE$ERROR.:E05TSI                              WED 07/30/97 01:18 Page:4
      112     1363        /*E* ERROR:KPE-E$NOT_BOOT_DISK
      113     1364             MESSAGE:%%U1 %Sorry, that is not a boot diskette. */
      114     1365        /**/
      115     1366        /*E* ERROR:KPE-E$KP_DRIVE_NOT_OPEN
      116     1367             MESSAGE:%%U1 %That drive is not open (internal error). */
      117     1368        /**/
      118     1369        /*E* ERROR:KPE-E$OPENED_EXEC
      119     1370             MESSAGE:%%U1 %That file is execute-only. */
      120     1371        /**/
      121     1372        /*E* ERROR:KPE-E$MSG_SYNCH_ERR
      122     1373             MESSAGE:%%U1 %Host/FEP message synchronization error! */
      123     1374        /**/
      124     1375        /*E* ERROR:KPE-E$NOT_DUMP_DISK
      125     1376             MESSAGE:%%U1 %Sorry, there's no dump on that diskette. */
      126     1377        /**/
      127     1378        /*E* ERROR:KPE-E$KP_CANT_NA_INIT
      128     1379             MESSAGE:%%U1 %PIGLET error: can't init NA.  */
      129     1380        /**/
      130     1381        /*E* ERROR:KPE-E$KP_CANT_PRIVS
      131     1382             MESSAGE:%%U1 %PIGLET error: can't turn on PRIVs.  */
      132     1383        /**/
      133     1384        /*E* ERROR:KPE-E$KP_CANT_MEMORY
      134     1385             MESSAGE:%%U1 %PIGLET error:  can't get memory.  */
      135     1386        /**/
      136     1387        /*E* ERROR:KPE-E$KP_CANT_DEVINIT
      137     1388             MESSAGE:%%U1 %PIGLET error:  can't init devices.  */
      138     1389        /**/
      139     1390        /*E* ERROR:KPE-E$KP_CANT_NA_REQUEST
      140     1391             MESSAGE:%%U1 %PIGLET error:  can't get drives from NA.  */
      141     1392        /**/
      142     1393        /*E* ERROR:KPE-E$KP_CANT_INTCON
      143     1394             MESSAGE:%%U1 %PIGLET error:  can't do M$INTCON.  */
      144     1395        /**/
      145     1396        /*E* ERROR:KPE-E$KP_CANT_NA_INIDONE
      146     1397             MESSAGE:%%U1 %PIGLET error:  can't finish NA init.  */
      147     1398        /**/
      148     1399        /**/
PL6.E3A0      #001=KPE$ERROR File=KPE$ERROR.:E05TSI                              WED 07/30/97 01:18 Page:5
      149     1400    1           KP_ERRORCODE.ERR# = ERROR_CODE;
      150     1401    1           IF GRIPE_INHIBIT <= 0
      151     1402    2            THEN DO;
      152     1403    2              CALL XUR$ERRMSG( KP_ERRORCODE, , , , , , 3 );
      153     1404    2               KP_EXIT.V.STEPCC# = 4;
      154     1405    2            END;
      155     1406    1           RETURN;
      156     1407        /*F*     NAME:          KPE$ERRMSG
      157     1408                 PURPOSE:       Print non-PIGETTE error codes.
      158     1409                 DESCRIPTION:   This routine is used to call the error-message
      159     1410                                reporter for a non-PIGETTE error.
      160     1411        */
      161     1412    1   KPE$ERRMSG : ENTRY (ERROR_CODE) ALTRET;
      162     1413        /**/
      163     1414    1            IF GRIPE_INHIBIT <= 0
      164     1415    2             THEN DO;
      165     1416    2               CALL XUR$ERRMSG (ERROR_CODE, KP_ERRDCB);
      166     1417    2               KP_EXIT.V.STEPCC# = 4;
      167     1418    2               END;
      168     1419    1            RETURN;
      169     1420
      170     1421    1   END KPE$ERROR;
      171     1422        %EOD;

PL6.E3A0      #001=KPE$ERROR File=KPE$ERROR.:E05TSI                              WED 07/30/97 01:18 Page:6
--  Include file information  --

   XU_FORMAT_C.:E05TOU  is referenced.
   CP_6.:E05TOU  cannot be made into a system file and is referenced.
   KP_MACRO_C.:E05TOU  is referenced.
   KI_SUBS_C.:E05TOU  is referenced.
   KP_PERR_C.:E05TOU  is referenced.
   KP_SUBS.:E05TOU  is referenced.
   KP_DATA_R.:E05TOU  cannot be made into a system file and is referenced.
   B$JIT_C.:E05TOU  was found in the system file and is never referenced.
   CP_6_C.:E05TOU  was found in the system file and is referenced.
      No diagnostics issued in procedure KPE$ERROR.

   Procedure KPE$ERROR requires 42 words for executable code.
   Procedure KPE$ERROR requires 12 words of local(AUTO) storage.

PL6.E3A0      #001=KPE$ERROR File=KPE$ERROR.:E05TSI                              WED 07/30/97 01:18 Page:7

 Object Unit name= KPE$ERROR                                  File name= KPE$ERROR.:E05TOU
 UTS= JUL 30 '97 01:18:21.28 WED                              Compiler= PL-6/E31         Sev=      00
 SharedLib= :SHARED_SYSTEM                                    Alt SharedLib=


    ****  Control sections  ****

 Sect   Type Bound  Init  Size OctSiz  Section name(segment info)
    0   DCB   even  none     0      0  M$UC
    1   Data  even  none     1      1  KPE$ERROR
    2   Proc  even  none    42     52  KPE$ERROR
    3  RoData even  none     3      3  KPE$ERROR

    ****  Entry defs  ****

                              Check   Calling
                             calling  sequence
  Sect OctLoc Primary Altret sequence   type   Parms  Name
     2      0   yes    yes     yes      Std        1  KPE$ERROR
     2     34          yes     yes      Std        1  KPE$ERRMSG

  ****  Data defs  ****

 Sect OctLoc  Name                           Sect OctLoc  Name
    1      0  KP_ERRORCODE

  ****  Entry refs  ****

         Check        Calling
        calling       sequence
Altret sequence SRef   type   Args  Name
 yes     yes           Std       7 XUR$ERRMSG
                       nStd      0 X66_AUTO_1
                       Std       0 B_CONSPOOL_D
                       nStd      0 X66_ARET
PL6.E3A0      #001=KPE$ERROR File=KPE$ERROR.:E05TSI                              WED 07/30/97 01:18 Page:8

  ****  Data refs  ****

  Flags:  r = read only, s = secondary
Flgs Name                             Flgs Name                             Flgs Name
     M$UC                                  KP_INBUF                              KP_RU_OUTBUF
     GRIPE_INHIBIT                         KP_RU_KEY                             KP_EXIT
     KP_ERRDCB                             B_VECTNIL

  ****  Segment refs  ****

  Flags:  r = read only, s = secondary
Flgs Name                             Flgs Name                             Flgs Name
     ISSID
PL6.E3A0      #001=KPE$ERROR File=KPE$ERROR.:E05TSI                              WED 07/30/97 01:18 Page:9


        1        1        /*M* KPE$ERROR contains various error-handling routines for PIGETTE.          */
        2        2        /*T***********************************************************/
        3        3        /*T*                                                         */
        4        4        /*T* Copyright (c) Bull HN Information Systems Inc., 1997    */
        5        5        /*T*                                                         */
        6        6        /*T***********************************************************/
        7        7        /*F*     NAME:          KPE$ERROR
        8        8                 PURPOSE:       Be a single depository for all error msgs
        9        9                 DESCRIPTION:   Call the error-message reporter with
       10       10                                a PIGETTE-specific error message.
       11       11        */
       12       12        KPE$ERROR : PROC( ERROR_CODE ) ALTRET;

     12  2 000000   000000 700200 xent  KPE$ERROR    TSX0  ! X66_AUTO_1
         2 000001   000014 000001                    ZERO    12,1

       13       13        /**/
       14       14        /*  Include files */
       15       15        /**/
       16       16        %INCLUDE KP_DATA_R;
       17     1268        /**/
       18     1269        /*  Entry declarations */
       19     1270        /**/
       20     1271    1   DCL XUR$ERRMSG ENTRY(7) ALTRET;
       21     1272        /**/
       22     1273    1   DCL 1 KP_ERRORCODE STATIC SYMDEF,
       23     1274    1         2 FCG_MID UBIN HALF UNAL INIT( BITBIN('132005'O) ),
       24     1275    1         2 MON BIT(1) UNAL INIT( '0'B ),
       25     1276    1         2 ERR# UBIN(14) UNAL,
       26     1277    1         2 SEV UBIN(3) UNAL;
       27     1278        /**/
       28     1279    1   DCL ERROR_CODE UBIN WORD;
       29     1280        /**/
       30     1281        /*E* ERROR:KPE-E$KP_OVER_RUN
       31     1282             MESSAGE:%%U1 %Data overrun/underrun occurred on drive. */
       32     1283        /**/
PL6.E3A0      #001=KPE$ERROR File=KPE$ERROR.:E05TSI                              WED 07/30/97 01:18 Page:10
       33     1284        /*E* ERROR:KPE-E$KP_DEL_DATA
       34     1285             MESSAGE:%%U1 %Data record marked deleted */
       35     1286        /**/
       36     1287        /*E* ERROR:KPE-E$KP_READ_ERR
       37     1288             MESSAGE:%%U1 %Read error occurred on drive */
       38     1289        /**/
       39     1290        /*E* ERROR:KPE-E$KP_DEV_FAULT
       40     1291             MESSAGE:%%U1 %Fault condition has occurred on drive */
       41     1292        /**/
       42     1293        /*E* ERROR:KPE-E$KP_DATA_SYNC
       43     1294             MESSAGE:%%U1 %Missed Data Sync */
       44     1295        /**/
       45     1296        /*E* ERROR:KPE-E$KP_BAD_SRCH
       46     1297             MESSAGE:%%U1 %Unsuccessful search during read/write operation */
       47     1298        /**/
       48     1299        /*E* ERROR:KPE-E$KP_NOT_READY
       49     1300             MESSAGE:%%U1 %Drive selected is not ready! Check diskette and/or drive */
       50     1301        /**/
       51     1302        /*E* ERROR:KPE-E$KP_DRIVE_BUSY
       52     1303             MESSAGE:%%U1 %That FEP's drive is busy. Try again later.*/
       53     1304        /**/
       54     1305        /**/
       55     1306        /*E* ERROR:KPE-E$KP_SEEK_ERR
       56     1307             MESSAGE:%%U1 %Seek error occurred on drive */
       57     1308        /**/
       58     1309        /*E* ERROR:KPE-E$KP_NO_DRIVE
       59     1310             MESSAGE:%%U1 %There is no such drive on that FEP!*/
       60     1311        /**/
       61     1312        /*E* ERROR:KPE-E$KP_C_MEM_ERR
       62     1313             MESSAGE:%%U1 %Corrected memory error occurred during operation */
       63     1314        /**/
       64     1315        /*E* ERROR:KPE-E$KP_NO_RSRC
       65     1316             MESSAGE:%%U1 %Non-existent resource requested */
       66     1317        /**/
       67     1318        /*E* ERROR:KPE-E$KP_BUS_ERR
       68     1319             MESSAGE:%%U1 %Bus parity error! */
       69     1320        /**/
PL6.E3A0      #001=KPE$ERROR File=KPE$ERROR.:E05TSI                              WED 07/30/97 01:18 Page:11
       70     1321        /*E* ERROR:KPE-E$KP_U_MEM_ERR
       71     1322             MESSAGE:%%U1 %Non-correctable memory error occurred during operation! */
       72     1323        /**/
       73     1324        /*E* ERROR:KPE-E$FEP_OUT_OF_RANGE
       74     1325             MESSAGE:%%U1 %FEP number is out of range or bad node name. */
       75     1326        /**/
       76     1327        /*E* ERROR:KPE-E$DRIVE_OUT_OF_RANGE
       77     1328             MESSAGE:%%U1 %Drive number is out of range. */
       78     1329        /**/
       79     1330        /*E* ERROR:KPE-E$FEP_NOT_THERE
       80     1331             MESSAGE:%%U1 %FEP selected is an ex-FEP. */
       81     1332        /**/
       82     1333        /*E* ERROR:KPE-E$NOT_FEP_RU
       83     1334             MESSAGE:%%U1 %That's not an FEP run unit. */
       84     1335        /**/
       85     1336        /*E* ERROR:KPE-E$NO_HEAD
       86     1337             MESSAGE:%%U1 %Run unit does not have a HEAD record. */
       87     1338        /**/
       88     1339        /*E* ERROR:KPE-E$NO_BIRTH
       89     1340             MESSAGE:%%U1 %Run unit does not have a BIRTH record. */
       90     1341        /**/
       91     1342        /*E* ERROR:KPE-E$NO_PGM_TXT
       92     1343             MESSAGE:%%U1 %Run unit does not have any program text. */
       93     1344        /**/
       94     1345        /*E* ERROR:KPE-E$TOO_BIG
       95     1346             MESSAGE:%%U1 %That FEP's too big to fit on a diskette! */
       96     1347        /**/
       97     1348        /*E* ERROR:KPE-E$BLANK_DSK
       98     1349             MESSAGE:%%U1 %Source diskette has no pgm text on it! */
       99     1350        /**/
      100     1351        /*E* ERROR:KPE-E$VD_RDSIZERR
      101     1352             MESSAGE:%%U1 %Sector size error. */
      102     1353        /**/
      103     1354        /*E* ERROR:KPE-E$NODE_NOT_FEP
      104     1355             MESSAGE:%%U1 %That node is not a FEP! */
      105     1356        /**/
      106     1357        /*E* ERROR:KPE-E$MUST_USE2_FEP
PL6.E3A0      #001=KPE$ERROR File=KPE$ERROR.:E05TSI                              WED 07/30/97 01:18 Page:12
      107     1358             MESSAGE:%%U1 %A USE command is in effect for a different FEP! */
      108     1359        /**/
      109     1360        /*E* ERROR:KPE-E$SECURITY_VIOLATION
      110     1361             MESSAGE:%%U1 %You are not authorized to do that. */
      111     1362        /**/
      112     1363        /*E* ERROR:KPE-E$NOT_BOOT_DISK
      113     1364             MESSAGE:%%U1 %Sorry, that is not a boot diskette. */
      114     1365        /**/
      115     1366        /*E* ERROR:KPE-E$KP_DRIVE_NOT_OPEN
      116     1367             MESSAGE:%%U1 %That drive is not open (internal error). */
      117     1368        /**/
      118     1369        /*E* ERROR:KPE-E$OPENED_EXEC
      119     1370             MESSAGE:%%U1 %That file is execute-only. */
      120     1371        /**/
      121     1372        /*E* ERROR:KPE-E$MSG_SYNCH_ERR
      122     1373             MESSAGE:%%U1 %Host/FEP message synchronization error! */
      123     1374        /**/
      124     1375        /*E* ERROR:KPE-E$NOT_DUMP_DISK
      125     1376             MESSAGE:%%U1 %Sorry, there's no dump on that diskette. */
      126     1377        /**/
      127     1378        /*E* ERROR:KPE-E$KP_CANT_NA_INIT
      128     1379             MESSAGE:%%U1 %PIGLET error: can't init NA.  */
      129     1380        /**/
      130     1381        /*E* ERROR:KPE-E$KP_CANT_PRIVS
      131     1382             MESSAGE:%%U1 %PIGLET error: can't turn on PRIVs.  */
      132     1383        /**/
      133     1384        /*E* ERROR:KPE-E$KP_CANT_MEMORY
      134     1385             MESSAGE:%%U1 %PIGLET error:  can't get memory.  */
      135     1386        /**/
      136     1387        /*E* ERROR:KPE-E$KP_CANT_DEVINIT
      137     1388             MESSAGE:%%U1 %PIGLET error:  can't init devices.  */
      138     1389        /**/
      139     1390        /*E* ERROR:KPE-E$KP_CANT_NA_REQUEST
      140     1391             MESSAGE:%%U1 %PIGLET error:  can't get drives from NA.  */
      141     1392        /**/
      142     1393        /*E* ERROR:KPE-E$KP_CANT_INTCON
      143     1394             MESSAGE:%%U1 %PIGLET error:  can't do M$INTCON.  */
PL6.E3A0      #001=KPE$ERROR File=KPE$ERROR.:E05TSI                              WED 07/30/97 01:18 Page:13
      144     1395        /**/
      145     1396        /*E* ERROR:KPE-E$KP_CANT_NA_INIDONE
      146     1397             MESSAGE:%%U1 %PIGLET error:  can't finish NA init.  */
      147     1398        /**/
      148     1399        /**/
      149     1400    1           KP_ERRORCODE.ERR# = ERROR_CODE;

   1400  2 000002   200003 470500                    LDP0    @ERROR_CODE,,AUTO
         2 000003   000000 236100                    LDQ     0,,PR0
         2 000004   000003 736000                    QLS     3
         2 000005   000000 676000 1                  ERQ     KP_ERRORCODE
         2 000006   377770 376007                    ANQ     131064,DL
         2 000007   000000 656000 1                  ERSQ    KP_ERRORCODE

      150     1401    1           IF GRIPE_INHIBIT <= 0

   1401  2 000010   000000 235000 xsym               LDA     GRIPE_INHIBIT
         2 000011   000033 605400 2                  TPNZ    s:1406

      151     1402    2            THEN DO;

      152     1403    2              CALL XUR$ERRMSG( KP_ERRORCODE, , , , , , 3 );

   1403  2 000012   000000 236000 3                  LDQ     0
         2 000013   200012 756100                    STQ     @ERROR_CODE+7,,AUTO
         2 000014   000001 236000 xsym               LDQ     B_VECTNIL+1
         2 000015   000001 235000 xsym               LDA     B_VECTNIL+1
         2 000016   200010 757100                    STAQ    @ERROR_CODE+5,,AUTO
         2 000017   000001 236000 xsym               LDQ     B_VECTNIL+1
         2 000020   000001 235000 xsym               LDA     B_VECTNIL+1
         2 000021   200006 757100                    STAQ    @ERROR_CODE+3,,AUTO
         2 000022   000001 236000 xsym               LDQ     B_VECTNIL+1
         2 000023   000001 235000 3                  LDA     1
         2 000024   200004 757100                    STAQ    @ERROR_CODE+1,,AUTO
         2 000025   200004 630500                    EPPR0   @ERROR_CODE+1,,AUTO
         2 000026   000025 631400 xsym               EPPR1   B_VECTNIL+21
         2 000027   000000 701000 xent               TSX1    XUR$ERRMSG
PL6.E3A0      #001=KPE$ERROR File=KPE$ERROR.:E05TSI                              WED 07/30/97 01:18 Page:14
         2 000030   000000 011000                    NOP     0

      153     1404    2               KP_EXIT.V.STEPCC# = 4;

   1404  2 000031   004000 236003                    LDQ     2048,DU
         2 000032   000004 552040 xsym               STBQ    KP_EXIT+4,'40'O

      154     1405    2            END;

      155     1406    1           RETURN;

   1406  2 000033   000000 702200 xent               TSX2  ! X66_ARET

      156     1407        /*F*     NAME:          KPE$ERRMSG
      157     1408                 PURPOSE:       Print non-PIGETTE error codes.
      158     1409                 DESCRIPTION:   This routine is used to call the error-message
      159     1410                                reporter for a non-PIGETTE error.
      160     1411        */
      161     1412    1   KPE$ERRMSG : ENTRY (ERROR_CODE) ALTRET;

   1412  2 000034   000000 700200 xent  KPE$ERRMSG   TSX0  ! X66_AUTO_1
         2 000035   000014 000001                    ZERO    12,1

      162     1413        /**/
      163     1414    1            IF GRIPE_INHIBIT <= 0

   1414  2 000036   000000 235000 xsym               LDA     GRIPE_INHIBIT
         2 000037   000051 605400 2                  TPNZ    s:1419

      164     1415    2             THEN DO;

      165     1416    2               CALL XUR$ERRMSG (ERROR_CODE, KP_ERRDCB);

   1416  2 000040   000002 236000 3                  LDQ     2
         2 000041   200003 235100                    LDA     @ERROR_CODE,,AUTO
         2 000042   200004 757100                    STAQ    @ERROR_CODE+1,,AUTO
         2 000043   200004 630500                    EPPR0   @ERROR_CODE+1,,AUTO
PL6.E3A0      #001=KPE$ERROR File=KPE$ERROR.:E05TSI                              WED 07/30/97 01:18 Page:15
         2 000044   000020 631400 xsym               EPPR1   B_VECTNIL+16
         2 000045   000000 701000 xent               TSX1    XUR$ERRMSG
         2 000046   000000 011000                    NOP     0

      166     1417    2               KP_EXIT.V.STEPCC# = 4;

   1417  2 000047   004000 236003                    LDQ     2048,DU
         2 000050   000004 552040 xsym               STBQ    KP_EXIT+4,'40'O

      167     1418    2               END;

      168     1419    1            RETURN;

   1419  2 000051   000000 702200 xent               TSX2  ! X66_ARET
      169     1420
      170     1421    1   END KPE$ERROR;
      171     1422        %EOD;

PL6.E3A0      #001=KPE$ERROR File=KPE$ERROR.:E05TSI                              WED 07/30/97 01:18 Page:16
--  Include file information  --

   XU_FORMAT_C.:E05TOU  is referenced.
   CP_6.:E05TOU  cannot be made into a system file and is referenced.
   KP_MACRO_C.:E05TOU  is referenced.
   KI_SUBS_C.:E05TOU  is referenced.
   KP_PERR_C.:E05TOU  is referenced.
   KP_SUBS.:E05TOU  is referenced.
   KP_DATA_R.:E05TOU  cannot be made into a system file and is referenced.
   B$JIT_C.:E05TOU  was found in the system file and is never referenced.
   CP_6_C.:E05TOU  was found in the system file and is referenced.
      No diagnostics issued in procedure KPE$ERROR.
PL6.E3A0      #001=KPE$ERROR File=KPE$ERROR.:E05TSI                              WED 07/30/97 01:18 Page:17

 **** Variables and constants ****

  ****  Section 001  Data  KPE$ERROR

  ****  Scalars and arrays  ****
OctLoc.c.b A Datatyp(siz) R M Lvl/name                 OctLoc.c.b A Datatyp(siz) R M Lvl/name

     0-0-0/b STRC        r     1 KP_ERRORCODE

  ****  Auto variables  ****

  ****  Scalars and arrays  ****
OctLoc.c.b A Datatyp(siz) R M Lvl/name                 OctLoc.c.b A Datatyp(siz) R M Lvl/name

     3-0-0/w PTR         r     1 @ERROR_CODE               *0-0-0/w UBIN        r     1 ERROR_CODE

  ****  SYMREF variables  ****

  ****  Scalars and arrays  ****
OctLoc.c.b A Datatyp(siz) R M Lvl/name                 OctLoc.c.b A Datatyp(siz) R M Lvl/name

     0-0-0/w SBIN        r     1 GRIPE_INHIBIT              0-0-0/w UBIN        r     1 KP_ERRDCB
     0-0-0/d STRC(216)   r     1 KP_EXIT


   Procedure KPE$ERROR requires 42 words for executable code.
   Procedure KPE$ERROR requires 12 words of local(AUTO) storage.
PL6.E3A0      #001=KPE$ERROR File=KPE$ERROR.:E05TSI                              WED 07/30/97 01:18 Page:18
          *** CROSS REFERENCE LISTING ***
**     DENOTES     IDENTIFIER DEFINITION
<<                 IDENTIFIER'S VALUE SET
>>                 IDENTIFIER'S VALUE USED
<>                 IDENTIFIER SET AND/OR USED
--                 IDENTIFIER REFERENCED
PL6.E3A0      #001=KPE$ERROR File=KPE$ERROR.:E05TSI                              WED 07/30/97 01:18 Page:19
          MINI XREF LISTING

ERROR_CODE
      1279**DCL        12--PROC     1400>>ASSIGN   1412--ENTRY    1416<>CALL
GRIPE_INHIBIT
       867**DCL      1401>>IF       1414>>IF
KP_ERRDCB
       942**DCL      1416<>CALL
KP_ERRORCODE
      1273**DCL      1403<>CALL
KP_ERRORCODE.ERR#
      1276**DCL      1400<<ASSIGN
KP_EXIT.V.STEPCC#
       939**DCL       939--REDEF    1404<<ASSIGN   1417<<ASSIGN
KP_INBUF
       861**DCL       861--REDEF
KP_RU_KEY
       869**DCL       870--REDEF
KP_RU_KEY.NODE
       869**DCL       869--REDEF
KP_RU_KEY.PAGE
       870**DCL       870--REDEF
KP_RU_OUTBUF
       863**DCL       863--REDEF
XUR$ERRMSG
      1271**DCL-ENT  1403--CALL     1416--CALL

PL6.E3A0      #002=KPE$ERR_TEXT File=KPE$ERROR.:E05TSI                           WED 07/30/97 01:18 Page:20
      172        1        /*M*     KPE$ERR_TEXT prints textual error messages for PIGETTE. */
      173        2        /*T***********************************************************/
      174        3        /*T*                                                         */
      175        4        /*T* Copyright (c) Bull HN Information Systems Inc., 1997    */
      176        5        /*T*                                                         */
      177        6        /*T***********************************************************/
      178        7        /*F*     NAME:          KPE$ERR_TEXT
      179        8                 PURPOSE:       Prints error messages from KP_OUTBUF buffer
      180        9                 DESCRIPTION:   This routine is used when the error messages
      181       10                                is not available via M$ERRMSG.
      182       11        */
      183       12        KPE$ERR_TEXT : PROC ALTRET;
      184       13        /**/
      185       14        /*  Include files */
      186       15        /**/
      187       16        %INCLUDE KP_DATA_R;
      188     1268        /**/
      189     1269        /*  Entry declarations */
      190     1270        /**/
      191     1271        %KP_ENTRIES (OMIT=KPE$ERR_TEXT);
      192     1377        /**/
      193     1378    1            IF GRIPE_INHIBIT <= 0
      194     1379    1             THEN
      195     1380    1               CALL KPI$IO_SVC (%KP_LO_WRITE#);
      196     1381
      197     1382    1   END KPE$ERR_TEXT;

PL6.E3A0      #002=KPE$ERR_TEXT File=KPE$ERROR.:E05TSI                           WED 07/30/97 01:18 Page:21
--  Include file information  --

   XU_FORMAT_C.:E05TOU  is referenced.
   CP_6.:E05TOU  cannot be made into a system file and is referenced.
   KP_MACRO_C.:E05TOU  is referenced.
   KI_SUBS_C.:E05TOU  is referenced.
   KP_PERR_C.:E05TOU  is referenced.
   KP_SUBS.:E05TOU  is referenced.
   KP_DATA_R.:E05TOU  cannot be made into a system file and is referenced.
   B$JIT_C.:E05TOU  was found in the system file and is never referenced.
   CP_6_C.:E05TOU  was found in the system file and is referenced.
      No diagnostics issued in procedure KPE$ERR_TEXT.

   Procedure KPE$ERR_TEXT requires 9 words for executable code.
   Procedure KPE$ERR_TEXT requires 4 words of local(AUTO) storage.

    No errors detected in file KPE$ERROR.:E05TSI    .

PL6.E3A0      #002=KPE$ERR_TEXT File=KPE$ERROR.:E05TSI                           WED 07/30/97 01:18 Page:22

 Object Unit name= KPE$ERR_TEXT                               File name= KPE$ERROR.:E05TOU
 UTS= JUL 30 '97 01:18:36.12 WED                              Compiler= PL-6/E31         Sev=      00
 SharedLib= :SHARED_SYSTEM                                    Alt SharedLib=


    ****  Control sections  ****

 Sect   Type Bound  Init  Size OctSiz  Section name(segment info)
    0   DCB   even  none     0      0  M$UC
    1   Proc  even  none     9     11  KPE$ERR_TEXT
    2  RoData even  none     1      1  KPE$ERR_TEXT

    ****  Entry defs  ****

                              Check   Calling
                             calling  sequence
  Sect OctLoc Primary Altret sequence   type   Parms  Name
     1      0   yes    yes     yes      Std        0  KPE$ERR_TEXT

  ****  Entry refs  ****

         Check        Calling
        calling       sequence
Altret sequence SRef   type   Args  Name
 yes     yes           Std       1 KPI$IO_SVC
                       nStd      0 X66_AUTO_0
                       Std       0 B_CONSPOOL_D
                       nStd      0 X66_ARET

  ****  Data refs  ****

  Flags:  r = read only, s = secondary
Flgs Name                             Flgs Name                             Flgs Name
     M$UC                                  KP_INBUF                              KP_RU_OUTBUF
     GRIPE_INHIBIT                         KP_RU_KEY                             B_VECTNIL
PL6.E3A0      #002=KPE$ERR_TEXT File=KPE$ERROR.:E05TSI                           WED 07/30/97 01:18 Page:23

  ****  Segment refs  ****

  Flags:  r = read only, s = secondary
Flgs Name                             Flgs Name                             Flgs Name
     ISSID
PL6.E3A0      #002=KPE$ERR_TEXT File=KPE$ERROR.:E05TSI                           WED 07/30/97 01:18 Page:24


      172        1        /*M*     KPE$ERR_TEXT prints textual error messages for PIGETTE. */
      173        2        /*T***********************************************************/
      174        3        /*T*                                                         */
      175        4        /*T* Copyright (c) Bull HN Information Systems Inc., 1997    */
      176        5        /*T*                                                         */
      177        6        /*T***********************************************************/
      178        7        /*F*     NAME:          KPE$ERR_TEXT
      179        8                 PURPOSE:       Prints error messages from KP_OUTBUF buffer
      180        9                 DESCRIPTION:   This routine is used when the error messages
      181       10                                is not available via M$ERRMSG.
      182       11        */
      183       12        KPE$ERR_TEXT : PROC ALTRET;

     12  1 000000   000000 700200 xent  KPE$ERR_TEXT TSX0  ! X66_AUTO_0
         1 000001   000004 000000                    ZERO    4,0

      184       13        /**/
      185       14        /*  Include files */
      186       15        /**/
      187       16        %INCLUDE KP_DATA_R;
      188     1268        /**/
      189     1269        /*  Entry declarations */
      190     1270        /**/
      191     1271        %KP_ENTRIES (OMIT=KPE$ERR_TEXT);
      192     1377        /**/
      193     1378    1            IF GRIPE_INHIBIT <= 0

   1378  1 000002   000000 235000 xsym               LDA     GRIPE_INHIBIT
         1 000003   000010 605400 1                  TPNZ    s:1382

      194     1379    1             THEN
      195     1380    1               CALL KPI$IO_SVC (%KP_LO_WRITE#);

   1380  1 000004   000000 630400 2                  EPPR0   0
         1 000005   000017 631400 xsym               EPPR1   B_VECTNIL+15
         1 000006   000000 701000 xent               TSX1    KPI$IO_SVC
PL6.E3A0      #002=KPE$ERR_TEXT File=KPE$ERROR.:E05TSI                           WED 07/30/97 01:18 Page:25
         1 000007   000000 011000                    NOP     0

      196     1381
      197     1382    1   END KPE$ERR_TEXT;

   1382  1 000010   000000 702200 xent               TSX2  ! X66_ARET

PL6.E3A0      #002=KPE$ERR_TEXT File=KPE$ERROR.:E05TSI                           WED 07/30/97 01:18 Page:26
--  Include file information  --

   XU_FORMAT_C.:E05TOU  is referenced.
   CP_6.:E05TOU  cannot be made into a system file and is referenced.
   KP_MACRO_C.:E05TOU  is referenced.
   KI_SUBS_C.:E05TOU  is referenced.
   KP_PERR_C.:E05TOU  is referenced.
   KP_SUBS.:E05TOU  is referenced.
   KP_DATA_R.:E05TOU  cannot be made into a system file and is referenced.
   B$JIT_C.:E05TOU  was found in the system file and is never referenced.
   CP_6_C.:E05TOU  was found in the system file and is referenced.
      No diagnostics issued in procedure KPE$ERR_TEXT.
PL6.E3A0      #002=KPE$ERR_TEXT File=KPE$ERROR.:E05TSI                           WED 07/30/97 01:18 Page:27

 **** Variables and constants ****

  ****  SYMREF variables  ****

  ****  Scalars and arrays  ****
OctLoc.c.b A Datatyp(siz) R M Lvl/name                 OctLoc.c.b A Datatyp(siz) R M Lvl/name

     0-0-0/w SBIN        r     1 GRIPE_INHIBIT


   Procedure KPE$ERR_TEXT requires 9 words for executable code.
   Procedure KPE$ERR_TEXT requires 4 words of local(AUTO) storage.

    No errors detected in file KPE$ERROR.:E05TSI    .
PL6.E3A0      #002=KPE$ERR_TEXT File=KPE$ERROR.:E05TSI                           WED 07/30/97 01:18 Page:28
          *** CROSS REFERENCE LISTING ***
**     DENOTES     IDENTIFIER DEFINITION
<<                 IDENTIFIER'S VALUE SET
>>                 IDENTIFIER'S VALUE USED
<>                 IDENTIFIER SET AND/OR USED
--                 IDENTIFIER REFERENCED
PL6.E3A0      #002=KPE$ERR_TEXT File=KPE$ERROR.:E05TSI                           WED 07/30/97 01:18 Page:29
          MINI XREF LISTING

GRIPE_INHIBIT
       867**DCL      1378>>IF
KPI$IO_SVC
      1306**DCL-ENT  1380--CALL
KP_EXIT.V.STEPCC#
       939**DCL       939--REDEF
KP_INBUF
       861**DCL       861--REDEF
KP_RU_KEY
       869**DCL       870--REDEF
KP_RU_KEY.NODE
       869**DCL       869--REDEF
KP_RU_KEY.PAGE
       870**DCL       870--REDEF
KP_RU_OUTBUF
       863**DCL       863--REDEF
