VERSION E05

PL6.E3A0      #001=KPF$FORMAT File=KPF$FORMAT.:E05TSI                            WED 07/30/97 01:19 Page:1
        1        1        /*M*  KPF$FORMAT - PIGETTE Output Formater                         */
        2        2        /*T***********************************************************/
        3        3        /*T*                                                         */
        4        4        /*T* Copyright (c) Bull HN Information Systems Inc., 1997    */
        5        5        /*T*                                                         */
        6        6        /*T***********************************************************/
        7        7        /*F*     NAME:          KPF$FORMAT
        8        8                 PURPOSE:       String formatting
        9        9                 DESCRIPTION:   When PIGETTE fires up, it tells the user
       10       10                                what feps are alive as far as it is con-
       11       11                                cerned. KPF$FORMAT puts it in nice fashion.
       12       12        */
       13       13        KPF$FORMAT: PROC      (TYPE,VALUE,STRING);
       14       14        /**/
       15       15        /* Include file */
       16       16        /**/
       17       17            %INCLUDE KP_SUBS;
       18      201        /**/
       19      202        /* Local declarations */
       20      203        /**/
       21      204    1   DCL TYPE UBIN WORD;
       22      205    1   DCL VALUE UBIN WORD;
       23      206    1   DCL OCTET(0:11) REDEF VALUE UBIN(3) UNAL;
       24      207    1   DCL STRING CHAR(12);
       25      208    1   DCL STRING_ARRAY(0:11) REDEF STRING CHAR(1) UNAL;
       26      209    1   DCL I UBIN WORD;
       27      210    1   DCL CHAR_SET(0:7) CHAR(1) CONSTANT INIT('0','1','2','3','4','5','6','7');
       28      211        /**/
       29      212        /* Code starts here */
       30      213        /**/
       31      214                                                /* Do case on type                    */
       32      215    2             DO CASE (TYPE);
       33      216    2               CASE (%KP_BINOCT#);
       34      217                                                /* Convert value into octal           */
       35      218    3                   DO I=0 TO 11;
       36      219    3                        STRING_ARRAY(I) = CHAR_SET(OCTET(I));
       37      220    3                   END;
PL6.E3A0      #001=KPF$FORMAT File=KPF$FORMAT.:E05TSI                            WED 07/30/97 01:19 Page:2
       38      221    2               CASE (%KP_10CHAR_NLZ#);
       39      222                            /* Convert value into 10 characters, no leading zeros     */
       40      223                                                /* Check for value = 0                */
       41      224    2                 IF VALUE = 0
       42      225    3                   THEN DO;
       43      226                                                /* It is zero, return one zero        */
       44      227    3                            STRING = ' ';
       45      228    3                            STRING_ARRAY(9) = '0';
       46      229    3                       END;
       47      230    3                   ELSE DO;
       48      231                                                /* It isn't zero, convert it          */
       49      232    3                            CALL BINCHAR (STRING,VALUE);
       50      233                                      /* Slide it over so we can return 10 characters */
       51      234    4                              DO I=0 TO 9;
       52      235    4                                   STRING_ARRAY(I) = STRING_ARRAY(I+2);
       53      236    4                                   STRING_ARRAY(I+2) = ' ';
       54      237    4                              END;
       55      238                                                /* Blank out any leading zeros        */
       56      239    3                            I = 0;
       57      240    4                              DO WHILE (STRING_ARRAY(I) = '0');
       58      241                                                /* Blank it                           */
       59      242    4                                   STRING_ARRAY(I) = ' ';
       60      243                                                /* Increment i                        */
       61      244    4                                   I = I + 1;
       62      245    4                              END;
       63      246    3                       END;
       64      247    2               CASE (%KP_L_JUST#);
       65      248                                           /* Convert to left justified blank filled  */
       66      249                                                /* Convert it to character            */
       67      250    2                 CALL BINCHAR (STRING,VALUE);
       68      251                                 /* Slide it over until the leading zeros are gone    */
       69      252    3                   DO WHILE (STRING_ARRAY(0) = '0');
       70      253                                                /* Slide it over one                  */
       71      254    4                          DO I=0 TO 10;
       72      255    4                               STRING_ARRAY(I) = STRING_ARRAY(I+1);
       73      256    4                               STRING_ARRAY(I+1) = ' ';
       74      257    4                          END;
PL6.E3A0      #001=KPF$FORMAT File=KPF$FORMAT.:E05TSI                            WED 07/30/97 01:19 Page:3
       75      258    3                   END;
       76      259    2               CASE (ELSE);
       77      260                                                /* Unknown format request             */
       78      261                                                /* Make string wrong                  */
       79      262    2                 STRING = 'Oops';
       80      263    2               END;
       81      264    1   END KPF$FORMAT;

PL6.E3A0      #001=KPF$FORMAT File=KPF$FORMAT.:E05TSI                            WED 07/30/97 01:19 Page:4
--  Include file information  --

   KP_SUBS.:E05TOU  is referenced.
   B$JIT_C.:E05TOU  was found in the system file and is never referenced.
   CP_6_C.:E05TOU  was found in the system file and is never referenced.
      No diagnostics issued in procedure KPF$FORMAT.

   Procedure KPF$FORMAT requires 111 words for executable code.
   Procedure KPF$FORMAT requires 10 words of local(AUTO) storage.

    No errors detected in file KPF$FORMAT.:E05TSI    .

PL6.E3A0      #001=KPF$FORMAT File=KPF$FORMAT.:E05TSI                            WED 07/30/97 01:19 Page:5

 Object Unit name= KPF$FORMAT                                 File name= KPF$FORMAT.:E05TOU
 UTS= JUL 30 '97 01:19:34.84 WED                              Compiler= PL-6/E31         Sev=      00
 SharedLib= :SHARED_SYSTEM                                    Alt SharedLib=


    ****  Control sections  ****

 Sect   Type Bound  Init  Size OctSiz  Section name(segment info)
    0  RoData even  UTS      3      3  KPF$FORMAT
    1   Proc  even  none   111    157  KPF$FORMAT
    2  RoData even  none     1      1  KPF$FORMAT

    ****  Entry defs  ****

                              Check   Calling
                             calling  sequence
  Sect OctLoc Primary Altret sequence   type   Parms  Name
     1      0   yes            yes      Std        3  KPF$FORMAT

  ****  Entry refs  ****

         Check        Calling
        calling       sequence
Altret sequence SRef   type   Args  Name
                       nStd      0 X66_AUTO_3
                       Std       0 B_CONSPOOL_D
                       nStd      0 X66_ARET

  ****  Data refs  ****

  Flags:  r = read only, s = secondary
Flgs Name                             Flgs Name                             Flgs Name
     B_VECTNIL
PL6.E3A0      #001=KPF$FORMAT File=KPF$FORMAT.:E05TSI                            WED 07/30/97 01:19 Page:6


        1        1        /*M*  KPF$FORMAT - PIGETTE Output Formater                         */
        2        2        /*T***********************************************************/
        3        3        /*T*                                                         */
        4        4        /*T* Copyright (c) Bull HN Information Systems Inc., 1997    */
        5        5        /*T*                                                         */
        6        6        /*T***********************************************************/
        7        7        /*F*     NAME:          KPF$FORMAT
        8        8                 PURPOSE:       String formatting
        9        9                 DESCRIPTION:   When PIGETTE fires up, it tells the user
       10       10                                what feps are alive as far as it is con-
       11       11                                cerned. KPF$FORMAT puts it in nice fashion.
       12       12        */
       13       13        KPF$FORMAT: PROC      (TYPE,VALUE,STRING);

     13  1 000000   000000 700200 xent  KPF$FORMAT   TSX0  ! X66_AUTO_3
         1 000001   000012 000003                    ZERO    10,3

       14       14        /**/
       15       15        /* Include file */
       16       16        /**/
       17       17            %INCLUDE KP_SUBS;
       18      201        /**/
       19      202        /* Local declarations */
       20      203        /**/
       21      204    1   DCL TYPE UBIN WORD;
       22      205    1   DCL VALUE UBIN WORD;
       23      206    1   DCL OCTET(0:11) REDEF VALUE UBIN(3) UNAL;
       24      207    1   DCL STRING CHAR(12);
       25      208    1   DCL STRING_ARRAY(0:11) REDEF STRING CHAR(1) UNAL;
       26      209    1   DCL I UBIN WORD;
       27      210    1   DCL CHAR_SET(0:7) CHAR(1) CONSTANT INIT('0','1','2','3','4','5','6','7');
       28      211        /**/
       29      212        /* Code starts here */
       30      213        /**/
       31      214                                                /* Do case on type                    */
       32      215    2             DO CASE (TYPE);
PL6.E3A0      #001=KPF$FORMAT File=KPF$FORMAT.:E05TSI                            WED 07/30/97 01:19 Page:7

    215  1 000002   200003 470500                    LDP0    @TYPE,,AUTO
         1 000003   000000 235100                    LDA     0,,PR0
         1 000004   000003 115007                    CMPA    3,DL
         1 000005   000007 602005 1                  TNC     s:215+5,AL
         1 000006   000152 710000 1                  TRA     s:262
         1 000007   000012 710000 1                  TRA     s:218
         1 000010   000034 710000 1                  TRA     s:224
         1 000011   000114 710000 1                  TRA     s:250

       33      216    2               CASE (%KP_BINOCT#);

       34      217                                                /* Convert value into octal           */
       35      218    3                   DO I=0 TO 11;

    218  1 000012   200006 450100                    STZ     I,,AUTO

       36      219    3                        STRING_ARRAY(I) = CHAR_SET(OCTET(I));

    219  1 000013   200006 236100                    LDQ     I,,AUTO
         1 000014   000003 402007                    MPY     3,DL
         1 000015   200004 470500                    LDP0    @VALUE,,AUTO
         1 000016   003100 061506                    CSR     bolr='003'O
         1 000017   000000 000003                    BDSC    0,Q,PR0                  by=0,bit=0,n=3
         1 000020   200010 000044                    BDSC    I+2,,AUTO                by=0,bit=0,n=36
         1 000021   200010 236100                    LDQ     I+2,,AUTO
         1 000022   200005 471500                    LDP1    @STRING,,AUTO
         1 000023   200006 235100                    LDA     I,,AUTO
         1 000024   040105 100406                    MLR     fill='040'O
         1 000025   000000 000001 0                  ADSC9   CHAR_SET,Q               cn=0,n=1
         1 000026   100000 000001                    ADSC9   0,A,PR1                  cn=0,n=1

       37      220    3                   END;

    220  1 000027   000001 035007                    ADLA    1,DL
         1 000030   200006 755100                    STA     I,,AUTO
         1 000031   000014 115007                    CMPA    12,DL
PL6.E3A0      #001=KPF$FORMAT File=KPF$FORMAT.:E05TSI                            WED 07/30/97 01:19 Page:8
         1 000032   000013 602000 1                  TNC     s:219
         1 000033   000156 710000 1                  TRA     s:264

       38      221    2               CASE (%KP_10CHAR_NLZ#);

       39      222                            /* Convert value into 10 characters, no leading zeros     */
       40      223                                                /* Check for value = 0                */
       41      224    2                 IF VALUE = 0

    224  1 000034   200004 471500                    LDP1    @VALUE,,AUTO
         1 000035   100000 235100                    LDA     0,,PR1
         1 000036   000047 601000 1                  TNZ     s:232

       42      225    3                   THEN DO;

       43      226                                                /* It is zero, return one zero        */
       44      227    3                            STRING = ' ';

    227  1 000037   200005 473500                    LDP3    @STRING,,AUTO
         1 000040   040100 100400                    MLR     fill='040'O
         1 000041   000035 000001 xsym               ADSC9   B_VECTNIL+29             cn=0,n=1
         1 000042   300000 000014                    ADSC9   0,,PR3                   cn=0,n=12

       45      228    3                            STRING_ARRAY(9) = '0';

    228  1 000043   040100 100400                    MLR     fill='040'O
         1 000044   000000 000001 2                  ADSC9   0                        cn=0,n=1
         1 000045   300002 200001                    ADSC9   2,,PR3                   cn=1,n=1

       46      229    3                       END;

    229  1 000046   000156 710000 1                  TRA     s:264

       47      230    3                   ELSE DO;

       48      231                                                /* It isn't zero, convert it          */
       49      232    3                            CALL BINCHAR (STRING,VALUE);
PL6.E3A0      #001=KPF$FORMAT File=KPF$FORMAT.:E05TSI                            WED 07/30/97 01:19 Page:9

    232  1 000047   000044 773000                    LRL     36
         1 000050   200010 757100                    STAQ    I+2,,AUTO
         1 000051   200005 473500                    LDP3    @STRING,,AUTO
         1 000052   000100 301500                    BTD
         1 000053   200010 000010                    NDSC9   I+2,,AUTO                cn=0,s=lsgnf,sf=0,n=8
         1 000054   300000 030014                    NDSC9   0,,PR3                   cn=0,s=nosgn,sf=0,n=12

       50      233                                      /* Slide it over so we can return 10 characters */
       51      234    4                              DO I=0 TO 9;

    234  1 000055   200006 450100                    STZ     I,,AUTO

       52      235    4                                   STRING_ARRAY(I) = STRING_ARRAY(I+2);

    235  1 000056   200005 470500                    LDP0    @STRING,,AUTO
         1 000057   200006 235100                    LDA     I,,AUTO
         1 000060   040105 100505                    MLR     fill='040'O
         1 000061   000000 400001                    ADSC9   0,A,PR0                  cn=2,n=1
         1 000062   000000 000001                    ADSC9   0,A,PR0                  cn=0,n=1

       53      236    4                                   STRING_ARRAY(I+2) = ' ';

    236  1 000063   040105 100400                    MLR     fill='040'O
         1 000064   000035 000001 xsym               ADSC9   B_VECTNIL+29             cn=0,n=1
         1 000065   000000 400001                    ADSC9   0,A,PR0                  cn=2,n=1

       54      237    4                              END;

    237  1 000066   000001 035007                    ADLA    1,DL
         1 000067   200006 755100                    STA     I,,AUTO
         1 000070   000012 115007                    CMPA    10,DL
         1 000071   000056 602000 1                  TNC     s:235

       55      238                                                /* Blank out any leading zeros        */
       56      239    3                            I = 0;

PL6.E3A0      #001=KPF$FORMAT File=KPF$FORMAT.:E05TSI                            WED 07/30/97 01:19 Page:10
    239  1 000072   200006 450100                    STZ     I,,AUTO

       57      240    4                              DO WHILE (STRING_ARRAY(I) = '0');

    240  1 000073   200006 235100                    LDA     I,,AUTO
         1 000074   040000 106505                    CMPC    fill='040'O
         1 000075   000000 000001                    ADSC9   0,A,PR0                  cn=0,n=1
         1 000076   000000 000001 2                  ADSC9   0                        cn=0,n=1
         1 000077   000156 601000 1                  TNZ     s:264

       58      241                                                /* Blank it                           */
       59      242    4                                   STRING_ARRAY(I) = ' ';

    242  1 000100   200005 470500                    LDP0    @STRING,,AUTO
         1 000101   200006 235100                    LDA     I,,AUTO
         1 000102   040105 100400                    MLR     fill='040'O
         1 000103   000035 000001 xsym               ADSC9   B_VECTNIL+29             cn=0,n=1
         1 000104   000000 000001                    ADSC9   0,A,PR0                  cn=0,n=1

       60      243                                                /* Increment i                        */
       61      244    4                                   I = I + 1;

    244  1 000105   000001 035007                    ADLA    1,DL
         1 000106   200006 755100                    STA     I,,AUTO

       62      245    4                              END;

    245  1 000107   040000 106505                    CMPC    fill='040'O
         1 000110   000000 000001                    ADSC9   0,A,PR0                  cn=0,n=1
         1 000111   000000 000001 2                  ADSC9   0                        cn=0,n=1
         1 000112   000100 600000 1                  TZE     s:242

       63      246    3                       END;

    246  1 000113   000156 710000 1                  TRA     s:264

       64      247    2               CASE (%KP_L_JUST#);
PL6.E3A0      #001=KPF$FORMAT File=KPF$FORMAT.:E05TSI                            WED 07/30/97 01:19 Page:11

       65      248                                           /* Convert to left justified blank filled  */
       66      249                                                /* Convert it to character            */
       67      250    2                 CALL BINCHAR (STRING,VALUE);

    250  1 000114   200004 471500                    LDP1    @VALUE,,AUTO
         1 000115   100000 235100                    LDA     0,,PR1
         1 000116   000044 773000                    LRL     36
         1 000117   200010 757100                    STAQ    I+2,,AUTO
         1 000120   200005 473500                    LDP3    @STRING,,AUTO
         1 000121   000100 301500                    BTD
         1 000122   200010 000010                    NDSC9   I+2,,AUTO                cn=0,s=lsgnf,sf=0,n=8
         1 000123   300000 030014                    NDSC9   0,,PR3                   cn=0,s=nosgn,sf=0,n=12

       68      251                                 /* Slide it over until the leading zeros are gone    */
       69      252    3                   DO WHILE (STRING_ARRAY(0) = '0');

    252  1 000124   040000 106500                    CMPC    fill='040'O
         1 000125   300000 000001                    ADSC9   0,,PR3                   cn=0,n=1
         1 000126   000000 000001 2                  ADSC9   0                        cn=0,n=1
         1 000127   000156 601000 1                  TNZ     s:264

       70      253                                                /* Slide it over one                  */
       71      254    4                          DO I=0 TO 10;

    254  1 000130   200006 450100                    STZ     I,,AUTO

       72      255    4                               STRING_ARRAY(I) = STRING_ARRAY(I+1);

    255  1 000131   200005 470500                    LDP0    @STRING,,AUTO
         1 000132   200006 235100                    LDA     I,,AUTO
         1 000133   040105 100505                    MLR     fill='040'O
         1 000134   000000 200001                    ADSC9   0,A,PR0                  cn=1,n=1
         1 000135   000000 000001                    ADSC9   0,A,PR0                  cn=0,n=1

       73      256    4                               STRING_ARRAY(I+1) = ' ';

PL6.E3A0      #001=KPF$FORMAT File=KPF$FORMAT.:E05TSI                            WED 07/30/97 01:19 Page:12
    256  1 000136   040105 100400                    MLR     fill='040'O
         1 000137   000035 000001 xsym               ADSC9   B_VECTNIL+29             cn=0,n=1
         1 000140   000000 200001                    ADSC9   0,A,PR0                  cn=1,n=1

       74      257    4                          END;

    257  1 000141   000001 035007                    ADLA    1,DL
         1 000142   200006 755100                    STA     I,,AUTO
         1 000143   000013 115007                    CMPA    11,DL
         1 000144   000131 602000 1                  TNC     s:255

       75      258    3                   END;

    258  1 000145   040000 106500                    CMPC    fill='040'O
         1 000146   000000 000001                    ADSC9   0,,PR0                   cn=0,n=1
         1 000147   000000 000001 2                  ADSC9   0                        cn=0,n=1
         1 000150   000130 600000 1                  TZE     s:254
         1 000151   000156 710000 1                  TRA     s:264

       76      259    2               CASE (ELSE);

       77      260                                                /* Unknown format request             */
       78      261                                                /* Make string wrong                  */
       79      262    2                 STRING = 'Oops';

    262  1 000152   200005 471500                    LDP1    @STRING,,AUTO
         1 000153   040100 100400                    MLR     fill='040'O
         1 000154   000002 000004 0                  ADSC9   CHAR_SET+2               cn=0,n=4
         1 000155   100000 000014                    ADSC9   0,,PR1                   cn=0,n=12

       80      263    2               END;

       81      264    1   END KPF$FORMAT;

    264  1 000156   000000 702200 xent               TSX2  ! X66_ARET

PL6.E3A0      #001=KPF$FORMAT File=KPF$FORMAT.:E05TSI                            WED 07/30/97 01:19 Page:13
--  Include file information  --

   KP_SUBS.:E05TOU  is referenced.
   B$JIT_C.:E05TOU  was found in the system file and is never referenced.
   CP_6_C.:E05TOU  was found in the system file and is never referenced.
      No diagnostics issued in procedure KPF$FORMAT.
PL6.E3A0      #001=KPF$FORMAT File=KPF$FORMAT.:E05TSI                            WED 07/30/97 01:19 Page:14

 **** Variables and constants ****

  ****  Section 000 RoData KPF$FORMAT

  ****  Scalars and arrays  ****
OctLoc.c.b A Datatyp(siz) R M Lvl/name                 OctLoc.c.b A Datatyp(siz) R M Lvl/name

     0-0-0/c CHAR        r     1 CHAR_SET(0:7)

  ****  Auto variables  ****

  ****  Scalars and arrays  ****
OctLoc.c.b A Datatyp(siz) R M Lvl/name                 OctLoc.c.b A Datatyp(siz) R M Lvl/name

     5-0-0/w PTR         r     1 @STRING                    3-0-0/w PTR         r     1 @TYPE
     4-0-0/w PTR         r     1 @VALUE                     6-0-0/w UBIN        r     1 I
    *0-0-0/w UBIN(3)     r     1 OCTET(0:11)               *0-0-0/c CHAR(12)    r     1 STRING
    *0-0-0/c CHAR        r     1 STRING_ARRAY(0:11)
    *0-0-0/w UBIN        r     1 TYPE                      *0-0-0/w UBIN        r     1 VALUE


   Procedure KPF$FORMAT requires 111 words for executable code.
   Procedure KPF$FORMAT requires 10 words of local(AUTO) storage.

    No errors detected in file KPF$FORMAT.:E05TSI    .
PL6.E3A0      #001=KPF$FORMAT File=KPF$FORMAT.:E05TSI                            WED 07/30/97 01:19 Page:15
          *** CROSS REFERENCE LISTING ***
**     DENOTES     IDENTIFIER DEFINITION
<<                 IDENTIFIER'S VALUE SET
>>                 IDENTIFIER'S VALUE USED
<>                 IDENTIFIER SET AND/OR USED
--                 IDENTIFIER REFERENCED
PL6.E3A0      #001=KPF$FORMAT File=KPF$FORMAT.:E05TSI                            WED 07/30/97 01:19 Page:16
          MINI XREF LISTING

CHAR_SET
       210**DCL       219>>ASSIGN
I
       209**DCL       218<<DOINDEX   219>>ASSIGN    219>>ASSIGN    234<<DOINDEX   235>>ASSIGN    235>>ASSIGN
       236>>ASSIGN    239<<ASSIGN    240>>DOWHILE   242>>ASSIGN    244<<ASSIGN    244>>ASSIGN    254<<DOINDEX
       255>>ASSIGN    255>>ASSIGN    256>>ASSIGN
OCTET
       206**DCL       219>>ASSIGN
STRING
       207**DCL        13--PROC      208--REDEF     227<<ASSIGN    232<<CALLBLT   250<<CALLBLT   262<<ASSIGN
STRING_ARRAY
       208**DCL       219<<ASSIGN    228<<ASSIGN    235<<ASSIGN    235>>ASSIGN    236<<ASSIGN    240>>DOWHILE
       242<<ASSIGN    252>>DOWHILE   255<<ASSIGN    255>>ASSIGN    256<<ASSIGN
TYPE
       204**DCL        13--PROC      215>>DOCASE
VALUE
       205**DCL        13--PROC      206--REDEF     224>>IF        232>>CALLBLT   250>>CALLBLT
