VERSION E05

PL6.E3A0      #001=KPL$LIST File=KPL$LIST.:E05TSI                                WED 07/30/97 01:20 Page:1
        1        1        /*M*     KPL$LIST List information about a RFEP boot diskette.                */
        2        2        /*T***********************************************************/
        3        3        /*T*                                                         */
        4        4        /*T* Copyright (c) Bull HN Information Systems Inc., 1997    */
        5        5        /*T*                                                         */
        6        6        /*T***********************************************************/
        7        7        /*F*     NAME:          KPL$LIST
        8        8                 PURPOSE:       Display pertinent data about the boot diskette.
        9        9                 DESCRIPTION:   Retrieve special housekeeping areas from the
       10       10                                the fep in question and then after un-
       11       11                                packing the stuff into Hostland, display the
       12       12                                meaningful info and also the unmeaningful
       13       13                                info.
       14       14        */
       15       15        KPL$LIST : PROC( OUT$ );
       16       16        /**/
       17       17        /*  PARAMETERS  */
       18       18        /**/
       19       19    1   DCL OUT$ PTR;
       20       20        /**/
       21       21        /*  Include files  */
       22       22        /**/
       23       23        %INCLUDE XU_MACRO_C;
       24     3129        %INCLUDE KP_DATA_R;
       25     4381        %INCLUDE XU_SUBS_C;
       26     4473        %INCLUDE XUF_ENTRY;
       27     4481        /**/
       28     4482        /*  Entry declarations  */
       29     4483        /**/
       30     4484        %KP_ENTRIES (OMIT=KPL$LIST);
       31     4590        /**/
       32     4591        /*  BASED DATA  */
       33     4592        /**/
       34     4593        %PARSE$OUT    ( NAME    = OUT$BLK,
       35     4594                        STCLASS = BASED );
       36     4639        %EJECT;
PL6.E3A0      #001=KPL$LIST File=KPL$LIST.:E05TSI                                WED 07/30/97 01:20 Page:2
       37     4640        /**/
       38     4641        /* Format data structure for magic X$WRITE routine */
       39     4642        /**/
       40     4643        /**/
       41     4644        /*  Local goodies  */
       42     4645        /**/
       43     4646        %KP_DISKID (FPTN=DISKID, STCLASS=AUTO);
       44     4658        %KP_DISKDIR (FPTN=DISKDIR, STCLASS=AUTO);
       45     4668    1   DCL FEP_NUM UBIN WORD;
       46     4669    1   DCL DRIVE_NUM UBIN WORD;
       47     4670    1   DCL DUMP_VSECTOR SBIN WORD;
       48     4671    1   DCL 1 DUMP_VSECTOR_ REDEF DUMP_VSECTOR,
       49     4672    1         2 * BIT(20) UNAL,
       50     4673    1         2 HOB UBIN(8) UNAL,
       51     4674    1         2 LOB UBIN(8) UNAL;
       52     4675    1   DCL FREE_VSECTOR SBIN WORD;
       53     4676    1   DCL 1 FREE_VSECTOR_ REDEF FREE_VSECTOR,
       54     4677    1         2 * BIT(20) UNAL,
       55     4678    1         2 HOB UBIN(8) UNAL,
       56     4679    1         2 LOB UBIN(8) UNAL;
       57     4680    1   DCL REV_LEVEL SBIN WORD;
       58     4681    1   DCL 1 REV_LEVEL_ REDEF REV_LEVEL,
       59     4682    1         2 * BIT(28) UNAL,
       60     4683    1         2 LOB UBIN(8) UNAL;
       61     4684        /**/
       62     4685        /* The various formats for the list directive */
       63     4686        /**/
       64     4687    1   DCL FMT1 CONSTANT CHAR(0) INIT(
       65     4688    1        'Diskette on FEP: %D Drive: %D'    );
       66     4689    1   DCL FMT2 CONSTANT CHAR(0) INIT(
       67     4690    1        'Created on %>A, %>A, at %>A.'    );
       68     4691    1   DCL FMT3 CONSTANT CHAR(0) INIT(
       69     4692    1        'Built for node %>A of site %>A.' );
       70     4693    1   DCL FMT4 CONSTANT CHAR(0) INIT(
       71     4694    1        'Dump starts on VSECTOR %D.'    );
       72     4695    1   DCL FMT5 CONSTANT CHAR(0) INIT(
       73     4696    1        'Free area starts on VSECTOR %D.'    );
PL6.E3A0      #001=KPL$LIST File=KPL$LIST.:E05TSI                                WED 07/30/97 01:20 Page:3
       74     4697    1   DCL FMT6 CONSTANT CHAR(0) INIT(
       75     4698    1        'WARNING:  This diskette is revision %D, not %D.' );
       76     4699    1   DCL FMT7 CONSTANT CHAR(0) INIT(
       77     4700    1        'Patch level %>A, CP-6 release %>A.' );
       78     4701    1   DCL KP_REVISION_LEVEL SBIN CONSTANT INIT(%KP_REVISION_LEVEL#);
       79     4702        %EJECT;
PL6.E3A0      #001=KPL$LIST File=KPL$LIST.:E05TSI                                WED 07/30/97 01:20 Page:4
       80     4703        /**/
       81     4704        /*  Make sure he is allowed to do this.  */
       82     4705        /**/
       83     4706    1           CALL KPU$SECURITY(%KP_PRIV_RD#) ALTRET(CANT_OPEN);
       84     4707        /**/
       85     4708        /*  Defaults, since LIST can only be used on RFEP boot diskettes.  */
       86     4709        /**/
       87     4710    1           CALL KPD$DISK_TYPE (IN_OPTS,%DT_RFEP#);
       88     4711        /**/
       89     4712        /*  DECODE OPTIONS  */
       90     4713        /**/
       91     4714    1           CALL KPU$FEP_AND_DRIVE(
       92     4715    1             OUT$ -> OUT$BLK,
       93     4716    1             FEP_NUM,DRIVE_NUM) ALTRET(CANT_OPEN);
       94     4717        /**/
       95     4718        /*  Open the diskette, get special data areas, and close it.  */
       96     4719        /**/
       97     4720    1           CALL KPX$OPEN( FEP_NUM, DRIVE_NUM ) ALTRET( BAD_ALTRET );
       98     4721    1           CALL KPU$READ_BLOCK( FEP_NUM,
       99     4722    1                                DRIVE_NUM,
      100     4723    1                                %KP_VSEC_DISKID#,
      101     4724    1                                ADDR(DISKID),
      102     4725    1                                %KP_NSEC_DISKID#)
      103     4726    1                                ALTRET( BAD_ALTRET );
      104     4727    1           CALL KPU$READ_BLOCK( FEP_NUM,
      105     4728    1                                DRIVE_NUM,
      106     4729    1                                %KP_VSEC_DISKDIR#,
      107     4730    1                                ADDR(DISKDIR),
      108     4731    1                                %KP_NSEC_DISKDIR#)
      109     4732    1                                ALTRET( BAD_ALTRET );
      110     4733    1           CALL KPX$CLOSE( FEP_NUM, DRIVE_NUM ) ALTRET( BAD_ALTRET );
      111     4734        %EJECT;
PL6.E3A0      #001=KPL$LIST File=KPL$LIST.:E05TSI                                WED 07/30/97 01:20 Page:5
      112     4735        /**/
      113     4736        /* Pluck out the interesting info from all those structures */
      114     4737        /**/
      115     4738    1           CALL X$WRITE( F_FDS, VECTOR(FMT1),
      116     4739    1                         VECTOR(FEP_NUM),
      117     4740    1                         VECTOR(DRIVE_NUM) );
      118     4741    1           CALL KPI$IO_SVC( %KP_LO_WRITE# );
      119     4742    1           IF DISKID.VERITY ~= 'FUZZY-PIGS' THEN
      120     4743    2              DO;
      121     4744    2                CALL KPE$ERROR (E$NOT_BOOT_DISK);
      122     4745    2                RETURN;
      123     4746    2                END;
      124     4747        /**/
      125     4748    1           IF DISKID.REVISION_LEVEL ~= %KP_REVISION_LEVEL# THEN
      126     4749    2              DO;
      127     4750    2                REV_LEVEL_ = '0'B;
      128     4751    2                REV_LEVEL_.LOB = DISKID.REVISION_LEVEL;
      129     4752    2                CALL X$WRITE( F_FDS, VECTOR(FMT6),
      130     4753    2                              VECTOR(REV_LEVEL),
      131     4754    2                              VECTOR(KP_REVISION_LEVEL));
      132     4755    2                CALL KPI$IO_SVC( %KP_LO_WRITE# );
      133     4756    2                END;
      134     4757        /**/
      135     4758    1           CALL X$WRITE( F_FDS, VECTOR(FMT2),
      136     4759    1                         VECTOR(DISKID.BUILD_DAY),
      137     4760    1                         VECTOR(DISKID.BUILD_DATE),
      138     4761    1                         VECTOR(DISKID.BUILD_TIME) );
      139     4762    1           CALL KPI$IO_SVC( %KP_LO_WRITE# );
      140     4763        /**/
      141     4764    1           CALL X$WRITE( F_FDS, VECTOR(FMT3),
      142     4765    1                         VECTOR(DISKID.DESTINATION_NODE),
      143     4766    1                         VECTOR(SUBSTR(DISKID.SITE_ID,0,36)));
      144     4767    1           CALL KPI$IO_SVC( %KP_LO_WRITE# );
      145     4768        /**/
      146     4769    1           CALL X$WRITE( F_FDS, VECTOR(FMT7),
      147     4770    1                         VECTOR(DISKID.PATCH_WEEK),
      148     4771    1                         VECTOR(DISKID.SYS_VERSION));
PL6.E3A0      #001=KPL$LIST File=KPL$LIST.:E05TSI                                WED 07/30/97 01:20 Page:6
      149     4772    1           CALL KPI$IO_SVC( %KP_LO_WRITE# );
      150     4773        /**/
      151     4774    1           FREE_VSECTOR_ = '0'B;
      152     4775    1           FREE_VSECTOR_.HOB = DISKDIR.FREE_VSEC.HOB;
      153     4776    1           FREE_VSECTOR_.LOB = DISKDIR.FREE_VSEC.LOB;
      154     4777    1           CALL X$WRITE( F_FDS, VECTOR(FMT5),
      155     4778    1                         VECTOR(FREE_VSECTOR) );
      156     4779    1           CALL KPI$IO_SVC( %KP_LO_WRITE# );
      157     4780        /**/
      158     4781    1           DUMP_VSECTOR_ = '0'B;
      159     4782    1           DUMP_VSECTOR_.HOB = DISKDIR.DUMP_VSEC.HOB;
      160     4783    1           DUMP_VSECTOR_.LOB = DISKDIR.DUMP_VSEC.LOB;
      161     4784    1           IF DUMP_VSECTOR > 0 THEN
      162     4785    2              DO;
      163     4786    2                 CALL X$WRITE( F_FDS, VECTOR(FMT4),
      164     4787    2                               VECTOR(DUMP_VSECTOR) );
      165     4788    2                 CALL KPI$IO_SVC( %KP_LO_WRITE# );
      166     4789    2                 END;
      167     4790        /**/
      168     4791    1           RETURN;
      169     4792        /**/
      170     4793        /* Getting here means a fatal error occurred */
      171     4794        /**/
      172     4795    1   BAD_ALTRET: ;
      173     4796    1   CANT_OPEN: ;
      174     4797    1           RETURN;
      175     4798        /**/
      176     4799    1   END KPL$LIST;

PL6.E3A0      #001=KPL$LIST File=KPL$LIST.:E05TSI                                WED 07/30/97 01:20 Page:7
--  Include file information  --

   XUF_ENTRY.:E05TOU  cannot be made into a system file and is referenced.
   XU_SUBS_C.:E05TOU  is referenced.
   XU_FORMAT_C.:E05TOU  is referenced.
   CP_6.:E05TOU  cannot be made into a system file and is referenced.
   KP_MACRO_C.:E05TOU  is referenced.
   KI_SUBS_C.:E05TOU  is referenced.
   KP_PERR_C.:E05TOU  is referenced.
   KP_SUBS.:E05TOU  is referenced.
   KP_DATA_R.:E05TOU  cannot be made into a system file and is referenced.
   XU_MACRO_C.:E05TOU  is referenced.
   B$JIT_C.:E05TOU  was found in the system file and is never referenced.
   CP_6_C.:E05TOU  was found in the system file and is referenced.
      No diagnostics issued in procedure KPL$LIST.

   Procedure KPL$LIST requires 287 words for executable code.
   Procedure KPL$LIST requires 160 words of local(AUTO) storage.

    No errors detected in file KPL$LIST.:E05TSI    .

PL6.E3A0      #001=KPL$LIST File=KPL$LIST.:E05TSI                                WED 07/30/97 01:20 Page:8

 Object Unit name= KPL$LIST                                   File name= KPL$LIST.:E05TOU
 UTS= JUL 30 '97 01:20:01.40 WED                              Compiler= PL-6/E31         Sev=      00
 SharedLib= :SHARED_SYSTEM                                    Alt SharedLib=


    ****  Control sections  ****

 Sect   Type Bound  Init  Size OctSiz  Section name(segment info)
    0   DCB   even  none     0      0  M$UC
    1  RoData even  UTS     63     77  KPL$LIST
    2   Proc  even  none   287    437  KPL$LIST
    3  RoData even  none    52     64  KPL$LIST

    ****  Entry defs  ****

                              Check   Calling
                             calling  sequence
  Sect OctLoc Primary Altret sequence   type   Parms  Name
     2      0   yes            yes      Std        1  KPL$LIST

  ****  Entry refs  ****

         Check        Calling
        calling       sequence
Altret sequence SRef   type   Args  Name
 yes     yes           Std       1 KPU$SECURITY
 yes     yes           Std       2 KPX$OPEN
 yes     yes           Std       5 KPU$READ_BLOCK
 yes     yes           Std       1 KPE$ERROR
         yes           Std       2 KPD$DISK_TYPE
         yes           Std      22 X$WRITE
 yes     yes           Std       3 KPU$FEP_AND_DRIVE
 yes     yes           Std       2 KPX$CLOSE
 yes     yes           Std       1 KPI$IO_SVC
                       nStd      0 X66_AUTO_1
                       Std       0 B_CONSPOOL_D
                       nStd      0 X66_ARET
PL6.E3A0      #001=KPL$LIST File=KPL$LIST.:E05TSI                                WED 07/30/97 01:20 Page:9

  ****  Data refs  ****

  Flags:  r = read only, s = secondary
Flgs Name                             Flgs Name                             Flgs Name
     M$UC                                  KP_INBUF                              KP_RU_OUTBUF
     KP_RU_KEY                             IN_OPTS                               F_FDS
     B_VECTNIL

  ****  Segment refs  ****

  Flags:  r = read only, s = secondary
Flgs Name                             Flgs Name                             Flgs Name
     ISSID
PL6.E3A0      #001=KPL$LIST File=KPL$LIST.:E05TSI                                WED 07/30/97 01:20 Page:10


        1        1        /*M*     KPL$LIST List information about a RFEP boot diskette.                */
        2        2        /*T***********************************************************/
        3        3        /*T*                                                         */
        4        4        /*T* Copyright (c) Bull HN Information Systems Inc., 1997    */
        5        5        /*T*                                                         */
        6        6        /*T***********************************************************/
        7        7        /*F*     NAME:          KPL$LIST
        8        8                 PURPOSE:       Display pertinent data about the boot diskette.
        9        9                 DESCRIPTION:   Retrieve special housekeeping areas from the
       10       10                                the fep in question and then after un-
       11       11                                packing the stuff into Hostland, display the
       12       12                                meaningful info and also the unmeaningful
       13       13                                info.
       14       14        */
       15       15        KPL$LIST : PROC( OUT$ );

     15  2 000000   000000 700200 xent  KPL$LIST     TSX0  ! X66_AUTO_1
         2 000001   000240 000001                    ZERO    160,1

       16       16        /**/
       17       17        /*  PARAMETERS  */
       18       18        /**/
       19       19    1   DCL OUT$ PTR;
       20       20        /**/
       21       21        /*  Include files  */
       22       22        /**/
       23       23        %INCLUDE XU_MACRO_C;
       24     3129        %INCLUDE KP_DATA_R;
       25     4381        %INCLUDE XU_SUBS_C;
       26     4473        %INCLUDE XUF_ENTRY;
       27     4481        /**/
       28     4482        /*  Entry declarations  */
       29     4483        /**/
       30     4484        %KP_ENTRIES (OMIT=KPL$LIST);
       31     4590        /**/
       32     4591        /*  BASED DATA  */
PL6.E3A0      #001=KPL$LIST File=KPL$LIST.:E05TSI                                WED 07/30/97 01:20 Page:11
       33     4592        /**/
       34     4593        %PARSE$OUT    ( NAME    = OUT$BLK,
       35     4594                        STCLASS = BASED );
       36     4639        %EJECT;
PL6.E3A0      #001=KPL$LIST File=KPL$LIST.:E05TSI                                WED 07/30/97 01:20 Page:12
       37     4640        /**/
       38     4641        /* Format data structure for magic X$WRITE routine */
       39     4642        /**/
       40     4643        /**/
       41     4644        /*  Local goodies  */
       42     4645        /**/
       43     4646        %KP_DISKID (FPTN=DISKID, STCLASS=AUTO);
       44     4658        %KP_DISKDIR (FPTN=DISKDIR, STCLASS=AUTO);
       45     4668    1   DCL FEP_NUM UBIN WORD;
       46     4669    1   DCL DRIVE_NUM UBIN WORD;
       47     4670    1   DCL DUMP_VSECTOR SBIN WORD;
       48     4671    1   DCL 1 DUMP_VSECTOR_ REDEF DUMP_VSECTOR,
       49     4672    1         2 * BIT(20) UNAL,
       50     4673    1         2 HOB UBIN(8) UNAL,
       51     4674    1         2 LOB UBIN(8) UNAL;
       52     4675    1   DCL FREE_VSECTOR SBIN WORD;
       53     4676    1   DCL 1 FREE_VSECTOR_ REDEF FREE_VSECTOR,
       54     4677    1         2 * BIT(20) UNAL,
       55     4678    1         2 HOB UBIN(8) UNAL,
       56     4679    1         2 LOB UBIN(8) UNAL;
       57     4680    1   DCL REV_LEVEL SBIN WORD;
       58     4681    1   DCL 1 REV_LEVEL_ REDEF REV_LEVEL,
       59     4682    1         2 * BIT(28) UNAL,
       60     4683    1         2 LOB UBIN(8) UNAL;
       61     4684        /**/
       62     4685        /* The various formats for the list directive */
       63     4686        /**/
       64     4687    1   DCL FMT1 CONSTANT CHAR(0) INIT(
       65     4688    1        'Diskette on FEP: %D Drive: %D'    );
       66     4689    1   DCL FMT2 CONSTANT CHAR(0) INIT(
       67     4690    1        'Created on %>A, %>A, at %>A.'    );
       68     4691    1   DCL FMT3 CONSTANT CHAR(0) INIT(
       69     4692    1        'Built for node %>A of site %>A.' );
       70     4693    1   DCL FMT4 CONSTANT CHAR(0) INIT(
       71     4694    1        'Dump starts on VSECTOR %D.'    );
       72     4695    1   DCL FMT5 CONSTANT CHAR(0) INIT(
       73     4696    1        'Free area starts on VSECTOR %D.'    );
PL6.E3A0      #001=KPL$LIST File=KPL$LIST.:E05TSI                                WED 07/30/97 01:20 Page:13
       74     4697    1   DCL FMT6 CONSTANT CHAR(0) INIT(
       75     4698    1        'WARNING:  This diskette is revision %D, not %D.' );
       76     4699    1   DCL FMT7 CONSTANT CHAR(0) INIT(
       77     4700    1        'Patch level %>A, CP-6 release %>A.' );
       78     4701    1   DCL KP_REVISION_LEVEL SBIN CONSTANT INIT(%KP_REVISION_LEVEL#);
       79     4702        %EJECT;
PL6.E3A0      #001=KPL$LIST File=KPL$LIST.:E05TSI                                WED 07/30/97 01:20 Page:14
       80     4703        /**/
       81     4704        /*  Make sure he is allowed to do this.  */
       82     4705        /**/
       83     4706    1           CALL KPU$SECURITY(%KP_PRIV_RD#) ALTRET(CANT_OPEN);

   4706  2 000002   000000 630400 3                  EPPR0   0
         2 000003   000017 631400 xsym               EPPR1   B_VECTNIL+15
         2 000004   000000 701000 xent               TSX1    KPU$SECURITY
         2 000005   000436 702000 2                  TSX2    BAD_ALTRET

       84     4707        /**/
       85     4708        /*  Defaults, since LIST can only be used on RFEP boot diskettes.  */
       86     4709        /**/
       87     4710    1           CALL KPD$DISK_TYPE (IN_OPTS,%DT_RFEP#);

   4710  2 000006   000001 630400 3                  EPPR0   1
         2 000007   000020 631400 xsym               EPPR1   B_VECTNIL+16
         2 000010   000000 701000 xent               TSX1    KPD$DISK_TYPE
         2 000011   000000 011000                    NOP     0

       88     4711        /**/
       89     4712        /*  DECODE OPTIONS  */
       90     4713        /**/
       91     4714    1           CALL KPU$FEP_AND_DRIVE(

   4714  2 000012   200003 470500                    LDP0    @OUT$,,AUTO
         2 000013   000000 471500                    LDP1    0,,PR0
         2 000014   200203 633500                    EPPR3   DRIVE_NUM,,AUTO
         2 000015   200212 453500                    STP3    REV_LEVEL+4,,AUTO
         2 000016   200202 634500                    EPPR4   FEP_NUM,,AUTO
         2 000017   200211 454500                    STP4    REV_LEVEL+3,,AUTO
         2 000020   200210 451500                    STP1    REV_LEVEL+2,,AUTO
         2 000021   200210 630500                    EPPR0   REV_LEVEL+2,,AUTO
         2 000022   000021 631400 xsym               EPPR1   B_VECTNIL+17
         2 000023   000000 701000 xent               TSX1    KPU$FEP_AND_DRIVE
         2 000024   000436 702000 2                  TSX2    BAD_ALTRET

PL6.E3A0      #001=KPL$LIST File=KPL$LIST.:E05TSI                                WED 07/30/97 01:20 Page:15
       92     4715    1             OUT$ -> OUT$BLK,
       93     4716    1             FEP_NUM,DRIVE_NUM) ALTRET(CANT_OPEN);
       94     4717        /**/
       95     4718        /*  Open the diskette, get special data areas, and close it.  */
       96     4719        /**/
       97     4720    1           CALL KPX$OPEN( FEP_NUM, DRIVE_NUM ) ALTRET( BAD_ALTRET );

   4720  2 000025   200203 630500                    EPPR0   DRIVE_NUM,,AUTO
         2 000026   200211 450500                    STP0    REV_LEVEL+3,,AUTO
         2 000027   200202 631500                    EPPR1   FEP_NUM,,AUTO
         2 000030   200210 451500                    STP1    REV_LEVEL+2,,AUTO
         2 000031   200210 630500                    EPPR0   REV_LEVEL+2,,AUTO
         2 000032   000020 631400 xsym               EPPR1   B_VECTNIL+16
         2 000033   000000 701000 xent               TSX1    KPX$OPEN
         2 000034   000436 702000 2                  TSX2    BAD_ALTRET

       98     4721    1           CALL KPU$READ_BLOCK( FEP_NUM,

   4721  2 000035   200004 630500                    EPPR0   DISKID,,AUTO
         2 000036   200210 450500                    STP0    REV_LEVEL+2,,AUTO
         2 000037   000003 236000 3                  LDQ     3
         2 000040   200215 756100                    STQ     REV_LEVEL+7,,AUTO
         2 000041   200210 631500                    EPPR1   REV_LEVEL+2,,AUTO
         2 000042   200214 451500                    STP1    REV_LEVEL+6,,AUTO
         2 000043   000002 236000 3                  LDQ     2
         2 000044   200213 756100                    STQ     REV_LEVEL+5,,AUTO
         2 000045   200203 633500                    EPPR3   DRIVE_NUM,,AUTO
         2 000046   200212 453500                    STP3    REV_LEVEL+4,,AUTO
         2 000047   200202 634500                    EPPR4   FEP_NUM,,AUTO
         2 000050   200211 454500                    STP4    REV_LEVEL+3,,AUTO
         2 000051   200211 630500                    EPPR0   REV_LEVEL+3,,AUTO
         2 000052   000023 631400 xsym               EPPR1   B_VECTNIL+19
         2 000053   000000 701000 xent               TSX1    KPU$READ_BLOCK
         2 000054   000436 702000 2                  TSX2    BAD_ALTRET

       99     4722    1                                DRIVE_NUM,
      100     4723    1                                %KP_VSEC_DISKID#,
PL6.E3A0      #001=KPL$LIST File=KPL$LIST.:E05TSI                                WED 07/30/97 01:20 Page:16
      101     4724    1                                ADDR(DISKID),
      102     4725    1                                %KP_NSEC_DISKID#)
      103     4726    1                                ALTRET( BAD_ALTRET );
      104     4727    1           CALL KPU$READ_BLOCK( FEP_NUM,

   4727  2 000055   200102 630500                    EPPR0   DISKDIR,,AUTO
         2 000056   200210 450500                    STP0    REV_LEVEL+2,,AUTO
         2 000057   000003 236000 3                  LDQ     3
         2 000060   200215 756100                    STQ     REV_LEVEL+7,,AUTO
         2 000061   200210 631500                    EPPR1   REV_LEVEL+2,,AUTO
         2 000062   200214 451500                    STP1    REV_LEVEL+6,,AUTO
         2 000063   000004 236000 3                  LDQ     4
         2 000064   200213 756100                    STQ     REV_LEVEL+5,,AUTO
         2 000065   200203 633500                    EPPR3   DRIVE_NUM,,AUTO
         2 000066   200212 453500                    STP3    REV_LEVEL+4,,AUTO
         2 000067   200202 634500                    EPPR4   FEP_NUM,,AUTO
         2 000070   200211 454500                    STP4    REV_LEVEL+3,,AUTO
         2 000071   200211 630500                    EPPR0   REV_LEVEL+3,,AUTO
         2 000072   000023 631400 xsym               EPPR1   B_VECTNIL+19
         2 000073   000000 701000 xent               TSX1    KPU$READ_BLOCK
         2 000074   000436 702000 2                  TSX2    BAD_ALTRET

      105     4728    1                                DRIVE_NUM,
      106     4729    1                                %KP_VSEC_DISKDIR#,
      107     4730    1                                ADDR(DISKDIR),
      108     4731    1                                %KP_NSEC_DISKDIR#)
      109     4732    1                                ALTRET( BAD_ALTRET );
      110     4733    1           CALL KPX$CLOSE( FEP_NUM, DRIVE_NUM ) ALTRET( BAD_ALTRET );

   4733  2 000075   200203 630500                    EPPR0   DRIVE_NUM,,AUTO
         2 000076   200211 450500                    STP0    REV_LEVEL+3,,AUTO
         2 000077   200202 631500                    EPPR1   FEP_NUM,,AUTO
         2 000100   200210 451500                    STP1    REV_LEVEL+2,,AUTO
         2 000101   200210 630500                    EPPR0   REV_LEVEL+2,,AUTO
         2 000102   000020 631400 xsym               EPPR1   B_VECTNIL+16
         2 000103   000000 701000 xent               TSX1    KPX$CLOSE
         2 000104   000436 702000 2                  TSX2    BAD_ALTRET
PL6.E3A0      #001=KPL$LIST File=KPL$LIST.:E05TSI                                WED 07/30/97 01:20 Page:17

      111     4734        %EJECT;
PL6.E3A0      #001=KPL$LIST File=KPL$LIST.:E05TSI                                WED 07/30/97 01:20 Page:18
      112     4735        /**/
      113     4736        /* Pluck out the interesting info from all those structures */
      114     4737        /**/
      115     4738    1           CALL X$WRITE( F_FDS, VECTOR(FMT1),

   4738  2 000105   777640 235007                    LDA     -96,DL
         2 000106   200210 452500                    STP2    REV_LEVEL+2,,AUTO
         2 000107   200210 236100                    LDQ     REV_LEVEL+2,,AUTO
         2 000110   000202 036003                    ADLQ    130,DU
         2 000111   200212 757100                    STAQ    REV_LEVEL+4,,AUTO
         2 000112   777640 235007                    LDA     -96,DL
         2 000113   200214 452500                    STP2    REV_LEVEL+6,,AUTO
         2 000114   200214 236100                    LDQ     REV_LEVEL+6,,AUTO
         2 000115   000203 036003                    ADLQ    131,DU
         2 000116   200220 757100                    STAQ    REV_LEVEL+10,,AUTO
         2 000117   200212 237100                    LDAQ    REV_LEVEL+4,,AUTO
         2 000120   200216 757100                    STAQ    REV_LEVEL+8,,AUTO
         2 000121   200220 237100                    LDAQ    REV_LEVEL+10,,AUTO
         2 000122   200222 757100                    STAQ    REV_LEVEL+12,,AUTO
         2 000123   200222 630500                    EPPR0   REV_LEVEL+12,,AUTO
         2 000124   200227 450500                    STP0    REV_LEVEL+17,,AUTO
         2 000125   200216 631500                    EPPR1   REV_LEVEL+8,,AUTO
         2 000126   200226 451500                    STP1    REV_LEVEL+16,,AUTO
         2 000127   000010 237000 3                  LDAQ    8
         2 000130   200224 757100                    STAQ    REV_LEVEL+14,,AUTO
         2 000131   200224 630500                    EPPR0   REV_LEVEL+14,,AUTO
         2 000132   000022 631400 xsym               EPPR1   B_VECTNIL+18
         2 000133   000000 701000 xent               TSX1    X$WRITE
         2 000134   000000 011000                    NOP     0

      116     4739    1                         VECTOR(FEP_NUM),
      117     4740    1                         VECTOR(DRIVE_NUM) );
      118     4741    1           CALL KPI$IO_SVC( %KP_LO_WRITE# );

   4741  2 000135   000012 630400 3                  EPPR0   10
         2 000136   000017 631400 xsym               EPPR1   B_VECTNIL+15
         2 000137   000000 701000 xent               TSX1    KPI$IO_SVC
PL6.E3A0      #001=KPL$LIST File=KPL$LIST.:E05TSI                                WED 07/30/97 01:20 Page:19
         2 000140   000000 011000                    NOP     0

      119     4742    1           IF DISKID.VERITY ~= 'FUZZY-PIGS' THEN

   4742  2 000141   040000 106500                    CMPC    fill='040'O
         2 000142   200004 000012                    ADSC9   DISKID,,AUTO             cn=0,n=10
         2 000143   000074 000012 1                  ADSC9   KP_REVISION_LEVEL+1      cn=0,n=10
         2 000144   000152 600000 2                  TZE     s:4748

      120     4743    2              DO;

      121     4744    2                CALL KPE$ERROR (E$NOT_BOOT_DISK);

   4744  2 000145   000014 630400 3                  EPPR0   12
         2 000146   000017 631400 xsym               EPPR1   B_VECTNIL+15
         2 000147   000000 701000 xent               TSX1    KPE$ERROR
         2 000150   000000 011000                    NOP     0

      122     4745    2                RETURN;

   4745  2 000151   000000 702200 xent               TSX2  ! X66_ARET

      123     4746    2                END;
      124     4747        /**/
      125     4748    1           IF DISKID.REVISION_LEVEL ~= %KP_REVISION_LEVEL# THEN

   4748  2 000152   200016 236100                    LDQ     DISKID+10,,AUTO
         2 000153   777000 376003                    ANQ     -512,DU
         2 000154   002000 116003                    CMPQ    1024,DU
         2 000155   000207 600000 2                  TZE     s:4758

      126     4749    2              DO;

      127     4750    2                REV_LEVEL_ = '0'B;

   4750  2 000156   200206 450100                    STZ     REV_LEVEL,,AUTO

PL6.E3A0      #001=KPL$LIST File=KPL$LIST.:E05TSI                                WED 07/30/97 01:20 Page:20
      128     4751    2                REV_LEVEL_.LOB = DISKID.REVISION_LEVEL;

   4751  2 000157   200016 236100                    LDQ     DISKID+10,,AUTO
         2 000160   000033 772000                    QRL     27
         2 000161   200206 676100                    ERQ     REV_LEVEL,,AUTO
         2 000162   000377 376007                    ANQ     255,DL
         2 000163   200206 656100                    ERSQ    REV_LEVEL,,AUTO

      129     4752    2                CALL X$WRITE( F_FDS, VECTOR(FMT6),

   4752  2 000164   777640 235007                    LDA     -96,DL
         2 000165   200210 452500                    STP2    REV_LEVEL+2,,AUTO
         2 000166   200210 236100                    LDQ     REV_LEVEL+2,,AUTO
         2 000167   000206 036003                    ADLQ    134,DU
         2 000170   200212 757100                    STAQ    REV_LEVEL+4,,AUTO
         2 000171   000022 236000 3                  LDQ     18
         2 000172   200217 756100                    STQ     REV_LEVEL+9,,AUTO
         2 000173   200212 630500                    EPPR0   REV_LEVEL+4,,AUTO
         2 000174   200216 450500                    STP0    REV_LEVEL+8,,AUTO
         2 000175   000024 237000 3                  LDAQ    20
         2 000176   200214 757100                    STAQ    REV_LEVEL+6,,AUTO
         2 000177   200214 630500                    EPPR0   REV_LEVEL+6,,AUTO
         2 000200   000022 631400 xsym               EPPR1   B_VECTNIL+18
         2 000201   000000 701000 xent               TSX1    X$WRITE
         2 000202   000000 011000                    NOP     0

      130     4753    2                              VECTOR(REV_LEVEL),
      131     4754    2                              VECTOR(KP_REVISION_LEVEL));
      132     4755    2                CALL KPI$IO_SVC( %KP_LO_WRITE# );

   4755  2 000203   000012 630400 3                  EPPR0   10
         2 000204   000017 631400 xsym               EPPR1   B_VECTNIL+15
         2 000205   000000 701000 xent               TSX1    KPI$IO_SVC
         2 000206   000000 011000                    NOP     0

      133     4756    2                END;

PL6.E3A0      #001=KPL$LIST File=KPL$LIST.:E05TSI                                WED 07/30/97 01:20 Page:21
      134     4757        /**/
      135     4758    1           CALL X$WRITE( F_FDS, VECTOR(FMT2),

   4758  2 000207   577640 235007                    LDA     -65632,DL
         2 000210   200210 452500                    STP2    REV_LEVEL+2,,AUTO
         2 000211   200210 236100                    LDQ     REV_LEVEL+2,,AUTO
         2 000212   000030 036000 3                  ADLQ    24
         2 000213   200212 757100                    STAQ    REV_LEVEL+4,,AUTO
         2 000214   000031 235000 3                  LDA     25
         2 000215   200214 452500                    STP2    REV_LEVEL+6,,AUTO
         2 000216   200214 236100                    LDQ     REV_LEVEL+6,,AUTO
         2 000217   000032 036000 3                  ADLQ    26
         2 000220   200216 757100                    STAQ    REV_LEVEL+8,,AUTO
         2 000221   000033 235000 3                  LDA     27
         2 000222   200220 452500                    STP2    REV_LEVEL+10,,AUTO
         2 000223   200220 236100                    LDQ     REV_LEVEL+10,,AUTO
         2 000224   000034 036000 3                  ADLQ    28
         2 000225   200224 757100                    STAQ    REV_LEVEL+14,,AUTO
         2 000226   200212 237100                    LDAQ    REV_LEVEL+4,,AUTO
         2 000227   200222 757100                    STAQ    REV_LEVEL+12,,AUTO
         2 000230   200216 237100                    LDAQ    REV_LEVEL+8,,AUTO
         2 000231   200226 757100                    STAQ    REV_LEVEL+16,,AUTO
         2 000232   200224 237100                    LDAQ    REV_LEVEL+14,,AUTO
         2 000233   200230 757100                    STAQ    REV_LEVEL+18,,AUTO
         2 000234   200230 630500                    EPPR0   REV_LEVEL+18,,AUTO
         2 000235   200236 450500                    STP0    REV_LEVEL+24,,AUTO
         2 000236   200226 631500                    EPPR1   REV_LEVEL+16,,AUTO
         2 000237   200235 451500                    STP1    REV_LEVEL+23,,AUTO
         2 000240   200222 633500                    EPPR3   REV_LEVEL+12,,AUTO
         2 000241   200234 453500                    STP3    REV_LEVEL+22,,AUTO
         2 000242   000036 237000 3                  LDAQ    30
         2 000243   200232 757100                    STAQ    REV_LEVEL+20,,AUTO
         2 000244   200232 630500                    EPPR0   REV_LEVEL+20,,AUTO
         2 000245   000023 631400 xsym               EPPR1   B_VECTNIL+19
         2 000246   000000 701000 xent               TSX1    X$WRITE
         2 000247   000000 011000                    NOP     0

PL6.E3A0      #001=KPL$LIST File=KPL$LIST.:E05TSI                                WED 07/30/97 01:20 Page:22
      136     4759    1                         VECTOR(DISKID.BUILD_DAY),
      137     4760    1                         VECTOR(DISKID.BUILD_DATE),
      138     4761    1                         VECTOR(DISKID.BUILD_TIME) );
      139     4762    1           CALL KPI$IO_SVC( %KP_LO_WRITE# );

   4762  2 000250   000012 630400 3                  EPPR0   10
         2 000251   000017 631400 xsym               EPPR1   B_VECTNIL+15
         2 000252   000000 701000 xent               TSX1    KPI$IO_SVC
         2 000253   000000 011000                    NOP     0

      140     4763        /**/
      141     4764    1           CALL X$WRITE( F_FDS, VECTOR(FMT3),

   4764  2 000254   000031 235000 3                  LDA     25
         2 000255   200210 452500                    STP2    REV_LEVEL+2,,AUTO
         2 000256   200210 236100                    LDQ     REV_LEVEL+2,,AUTO
         2 000257   000014 036003                    ADLQ    12,DU
         2 000260   200212 757100                    STAQ    REV_LEVEL+4,,AUTO
         2 000261   000035 235000 3                  LDA     29
         2 000262   200214 452500                    STP2    REV_LEVEL+6,,AUTO
         2 000263   200214 236100                    LDQ     REV_LEVEL+6,,AUTO
         2 000264   000042 036000 3                  ADLQ    34
         2 000265   200220 757100                    STAQ    REV_LEVEL+10,,AUTO
         2 000266   200212 237100                    LDAQ    REV_LEVEL+4,,AUTO
         2 000267   200216 757100                    STAQ    REV_LEVEL+8,,AUTO
         2 000270   200220 237100                    LDAQ    REV_LEVEL+10,,AUTO
         2 000271   200222 757100                    STAQ    REV_LEVEL+12,,AUTO
         2 000272   200222 630500                    EPPR0   REV_LEVEL+12,,AUTO
         2 000273   200227 450500                    STP0    REV_LEVEL+17,,AUTO
         2 000274   200216 631500                    EPPR1   REV_LEVEL+8,,AUTO
         2 000275   200226 451500                    STP1    REV_LEVEL+16,,AUTO
         2 000276   000044 237000 3                  LDAQ    36
         2 000277   200224 757100                    STAQ    REV_LEVEL+14,,AUTO
         2 000300   200224 630500                    EPPR0   REV_LEVEL+14,,AUTO
         2 000301   000022 631400 xsym               EPPR1   B_VECTNIL+18
         2 000302   000000 701000 xent               TSX1    X$WRITE
         2 000303   000000 011000                    NOP     0
PL6.E3A0      #001=KPL$LIST File=KPL$LIST.:E05TSI                                WED 07/30/97 01:20 Page:23

      142     4765    1                         VECTOR(DISKID.DESTINATION_NODE),
      143     4766    1                         VECTOR(SUBSTR(DISKID.SITE_ID,0,36)));
      144     4767    1           CALL KPI$IO_SVC( %KP_LO_WRITE# );

   4767  2 000304   000012 630400 3                  EPPR0   10
         2 000305   000017 631400 xsym               EPPR1   B_VECTNIL+15
         2 000306   000000 701000 xent               TSX1    KPI$IO_SVC
         2 000307   000000 011000                    NOP     0

      145     4768        /**/
      146     4769    1           CALL X$WRITE( F_FDS, VECTOR(FMT7),

   4769  2 000310   777640 235007                    LDA     -96,DL
         2 000311   200210 452500                    STP2    REV_LEVEL+2,,AUTO
         2 000312   200210 236100                    LDQ     REV_LEVEL+2,,AUTO
         2 000313   000043 036000 3                  ADLQ    35
         2 000314   200212 757100                    STAQ    REV_LEVEL+4,,AUTO
         2 000315   000050 235000 3                  LDA     40
         2 000316   200214 452500                    STP2    REV_LEVEL+6,,AUTO
         2 000317   200214 236100                    LDQ     REV_LEVEL+6,,AUTO
         2 000320   000051 036000 3                  ADLQ    41
         2 000321   200220 757100                    STAQ    REV_LEVEL+10,,AUTO
         2 000322   200212 237100                    LDAQ    REV_LEVEL+4,,AUTO
         2 000323   200216 757100                    STAQ    REV_LEVEL+8,,AUTO
         2 000324   200220 237100                    LDAQ    REV_LEVEL+10,,AUTO
         2 000325   200222 757100                    STAQ    REV_LEVEL+12,,AUTO
         2 000326   200222 630500                    EPPR0   REV_LEVEL+12,,AUTO
         2 000327   200227 450500                    STP0    REV_LEVEL+17,,AUTO
         2 000330   200216 631500                    EPPR1   REV_LEVEL+8,,AUTO
         2 000331   200226 451500                    STP1    REV_LEVEL+16,,AUTO
         2 000332   000052 237000 3                  LDAQ    42
         2 000333   200224 757100                    STAQ    REV_LEVEL+14,,AUTO
         2 000334   200224 630500                    EPPR0   REV_LEVEL+14,,AUTO
         2 000335   000022 631400 xsym               EPPR1   B_VECTNIL+18
         2 000336   000000 701000 xent               TSX1    X$WRITE
         2 000337   000000 011000                    NOP     0
PL6.E3A0      #001=KPL$LIST File=KPL$LIST.:E05TSI                                WED 07/30/97 01:20 Page:24

      147     4770    1                         VECTOR(DISKID.PATCH_WEEK),
      148     4771    1                         VECTOR(DISKID.SYS_VERSION));
      149     4772    1           CALL KPI$IO_SVC( %KP_LO_WRITE# );

   4772  2 000340   000012 630400 3                  EPPR0   10
         2 000341   000017 631400 xsym               EPPR1   B_VECTNIL+15
         2 000342   000000 701000 xent               TSX1    KPI$IO_SVC
         2 000343   000000 011000                    NOP     0

      150     4773        /**/
      151     4774    1           FREE_VSECTOR_ = '0'B;

   4774  2 000344   200205 450100                    STZ     FREE_VSECTOR,,AUTO

      152     4775    1           FREE_VSECTOR_.HOB = DISKDIR.FREE_VSEC.HOB;

   4775  2 000345   200102 236100                    LDQ     DISKDIR,,AUTO
         2 000346   000001 772000                    QRL     1
         2 000347   200205 676100                    ERQ     FREE_VSECTOR,,AUTO
         2 000350   177400 376007                    ANQ     65280,DL
         2 000351   200205 656100                    ERSQ    FREE_VSECTOR,,AUTO

      153     4776    1           FREE_VSECTOR_.LOB = DISKDIR.FREE_VSEC.LOB;

   4776  2 000352   200102 236100                    LDQ     DISKDIR,,AUTO
         2 000353   200205 676100                    ERQ     FREE_VSECTOR,,AUTO
         2 000354   000377 376007                    ANQ     255,DL
         2 000355   200205 656100                    ERSQ    FREE_VSECTOR,,AUTO

      154     4777    1           CALL X$WRITE( F_FDS, VECTOR(FMT5),

   4777  2 000356   777640 235007                    LDA     -96,DL
         2 000357   200210 452500                    STP2    REV_LEVEL+2,,AUTO
         2 000360   200210 236100                    LDQ     REV_LEVEL+2,,AUTO
         2 000361   000205 036003                    ADLQ    133,DU
         2 000362   200212 757100                    STAQ    REV_LEVEL+4,,AUTO
PL6.E3A0      #001=KPL$LIST File=KPL$LIST.:E05TSI                                WED 07/30/97 01:20 Page:25
         2 000363   200212 630500                    EPPR0   REV_LEVEL+4,,AUTO
         2 000364   200216 450500                    STP0    REV_LEVEL+8,,AUTO
         2 000365   000056 237000 3                  LDAQ    46
         2 000366   200214 757100                    STAQ    REV_LEVEL+6,,AUTO
         2 000367   200214 630500                    EPPR0   REV_LEVEL+6,,AUTO
         2 000370   000021 631400 xsym               EPPR1   B_VECTNIL+17
         2 000371   000000 701000 xent               TSX1    X$WRITE
         2 000372   000000 011000                    NOP     0

      155     4778    1                         VECTOR(FREE_VSECTOR) );
      156     4779    1           CALL KPI$IO_SVC( %KP_LO_WRITE# );

   4779  2 000373   000012 630400 3                  EPPR0   10
         2 000374   000017 631400 xsym               EPPR1   B_VECTNIL+15
         2 000375   000000 701000 xent               TSX1    KPI$IO_SVC
         2 000376   000000 011000                    NOP     0

      157     4780        /**/
      158     4781    1           DUMP_VSECTOR_ = '0'B;

   4781  2 000377   200204 450100                    STZ     DUMP_VSECTOR,,AUTO

      159     4782    1           DUMP_VSECTOR_.HOB = DISKDIR.DUMP_VSEC.HOB;

   4782  2 000400   200102 236100                    LDQ     DISKDIR,,AUTO
         2 000401   000023 772000                    QRL     19
         2 000402   200204 676100                    ERQ     DUMP_VSECTOR,,AUTO
         2 000403   177400 376007                    ANQ     65280,DL
         2 000404   200204 656100                    ERSQ    DUMP_VSECTOR,,AUTO

      160     4783    1           DUMP_VSECTOR_.LOB = DISKDIR.DUMP_VSEC.LOB;

   4783  2 000405   200102 236100                    LDQ     DISKDIR,,AUTO
         2 000406   000022 772000                    QRL     18
         2 000407   200204 676100                    ERQ     DUMP_VSECTOR,,AUTO
         2 000410   000377 376007                    ANQ     255,DL
         2 000411   200204 656100                    ERSQ    DUMP_VSECTOR,,AUTO
PL6.E3A0      #001=KPL$LIST File=KPL$LIST.:E05TSI                                WED 07/30/97 01:20 Page:26

      161     4784    1           IF DUMP_VSECTOR > 0 THEN

   4784  2 000412   200204 235100                    LDA     DUMP_VSECTOR,,AUTO
         2 000413   000435 604400 2                  TMOZ    s:4791

      162     4785    2              DO;

      163     4786    2                 CALL X$WRITE( F_FDS, VECTOR(FMT4),

   4786  2 000414   777640 235007                    LDA     -96,DL
         2 000415   200210 452500                    STP2    REV_LEVEL+2,,AUTO
         2 000416   200210 236100                    LDQ     REV_LEVEL+2,,AUTO
         2 000417   000204 036003                    ADLQ    132,DU
         2 000420   200212 757100                    STAQ    REV_LEVEL+4,,AUTO
         2 000421   200212 630500                    EPPR0   REV_LEVEL+4,,AUTO
         2 000422   200216 450500                    STP0    REV_LEVEL+8,,AUTO
         2 000423   000062 237000 3                  LDAQ    50
         2 000424   200214 757100                    STAQ    REV_LEVEL+6,,AUTO
         2 000425   200214 630500                    EPPR0   REV_LEVEL+6,,AUTO
         2 000426   000021 631400 xsym               EPPR1   B_VECTNIL+17
         2 000427   000000 701000 xent               TSX1    X$WRITE
         2 000430   000000 011000                    NOP     0

      164     4787    2                               VECTOR(DUMP_VSECTOR) );
      165     4788    2                 CALL KPI$IO_SVC( %KP_LO_WRITE# );

   4788  2 000431   000012 630400 3                  EPPR0   10
         2 000432   000017 631400 xsym               EPPR1   B_VECTNIL+15
         2 000433   000000 701000 xent               TSX1    KPI$IO_SVC
         2 000434   000000 011000                    NOP     0

      166     4789    2                 END;

      167     4790        /**/
      168     4791    1           RETURN;

PL6.E3A0      #001=KPL$LIST File=KPL$LIST.:E05TSI                                WED 07/30/97 01:20 Page:27
   4791  2 000435   000000 702200 xent               TSX2  ! X66_ARET

   4784  2 000436                       BAD_ALTRET   null
   4784  2 000436                       CANT_OPEN    null
      169     4792        /**/
      170     4793        /* Getting here means a fatal error occurred */
      171     4794        /**/
      172     4795    1   BAD_ALTRET: ;
      173     4796    1   CANT_OPEN: ;
      174     4797    1           RETURN;

   4797  2 000436   000000 702200 xent               TSX2  ! X66_ARET
      175     4798        /**/
      176     4799    1   END KPL$LIST;

PL6.E3A0      #001=KPL$LIST File=KPL$LIST.:E05TSI                                WED 07/30/97 01:20 Page:28
--  Include file information  --

   XUF_ENTRY.:E05TOU  cannot be made into a system file and is referenced.
   XU_SUBS_C.:E05TOU  is referenced.
   XU_FORMAT_C.:E05TOU  is referenced.
   CP_6.:E05TOU  cannot be made into a system file and is referenced.
   KP_MACRO_C.:E05TOU  is referenced.
   KI_SUBS_C.:E05TOU  is referenced.
   KP_PERR_C.:E05TOU  is referenced.
   KP_SUBS.:E05TOU  is referenced.
   KP_DATA_R.:E05TOU  cannot be made into a system file and is referenced.
   XU_MACRO_C.:E05TOU  is referenced.
   B$JIT_C.:E05TOU  was found in the system file and is never referenced.
   CP_6_C.:E05TOU  was found in the system file and is referenced.
      No diagnostics issued in procedure KPL$LIST.
PL6.E3A0      #001=KPL$LIST File=KPL$LIST.:E05TSI                                WED 07/30/97 01:20 Page:29

 **** Variables and constants ****

  ****  Section 001 RoData KPL$LIST

  ****  Scalars and arrays  ****
OctLoc.c.b A Datatyp(siz) R M Lvl/name                 OctLoc.c.b A Datatyp(siz) R M Lvl/name

     0-0-0/c CHAR(29)    r     1 FMT1                      10-0-0/c CHAR(28)    r     1 FMT2
    17-0-0/c CHAR(31)    r     1 FMT3                      27-0-0/c CHAR(26)    r     1 FMT4
    36-0-0/c CHAR(31)    r     1 FMT5                      46-0-0/c CHAR(47)    r     1 FMT6
    62-0-0/c CHAR(34)    r     1 FMT7                      73-0-0/w SBIN        r     1 KP_REVISION_LEVEL

  ****  Auto variables  ****

  ****  Scalars and arrays  ****
OctLoc.c.b A Datatyp(siz) R M Lvl/name                 OctLoc.c.b A Datatyp(siz) R M Lvl/name

     3-0-0/w PTR         r     1 @OUT$                    102-0-0/c STRC(2304)  r     1 DISKDIR
     4-0-0/c STRC(2232)  r     1 DISKID                   203-0-0/w UBIN        r     1 DRIVE_NUM
   204-0-0/w SBIN        r     1 DUMP_VSECTOR             204-0-0/w STRC        r     1 DUMP_VSECTOR_
   202-0-0/w UBIN        r     1 FEP_NUM                  205-0-0/w SBIN        r     1 FREE_VSECTOR
   205-0-0/w STRC        r     1 FREE_VSECTOR_             *0-0-0/w PTR         r     1 OUT$
   206-0-0/w SBIN        r     1 REV_LEVEL                206-0-0/w STRC        r     1 REV_LEVEL_

  ****  SYMREF variables  ****

  ****  Scalars and arrays  ****
OctLoc.c.b A Datatyp(siz) R M Lvl/name                 OctLoc.c.b A Datatyp(siz) R M Lvl/name

     0-0-0/w STRC(1080)  r     1 F_FDS                      0-0-0/w STRC(468)   r     1 IN_OPTS

  ****  BASED and DCB variables  ****

  ****  Scalars and arrays  ****
OctLoc.c.b A Datatyp(siz) R M Lvl/name                 OctLoc.c.b A Datatyp(siz) R M Lvl/name

     0-0-0/w STRC(144)   r     1 OUT$BLK
PL6.E3A0      #001=KPL$LIST File=KPL$LIST.:E05TSI                                WED 07/30/97 01:20 Page:30


   Procedure KPL$LIST requires 287 words for executable code.
   Procedure KPL$LIST requires 160 words of local(AUTO) storage.

    No errors detected in file KPL$LIST.:E05TSI    .
PL6.E3A0      #001=KPL$LIST File=KPL$LIST.:E05TSI                                WED 07/30/97 01:20 Page:31
          *** CROSS REFERENCE LISTING ***
**     DENOTES     IDENTIFIER DEFINITION
<<                 IDENTIFIER'S VALUE SET
>>                 IDENTIFIER'S VALUE USED
<>                 IDENTIFIER SET AND/OR USED
--                 IDENTIFIER REFERENCED
PL6.E3A0      #001=KPL$LIST File=KPL$LIST.:E05TSI                                WED 07/30/97 01:20 Page:32
          MINI XREF LISTING

BAD_ALTRET
      4784**LABEL    4720--CALLALT  4721--CALLALT  4727--CALLALT  4733--CALLALT
CANT_OPEN
      4784**LABEL    4706--CALLALT  4714--CALLALT
DISKDIR
      4659**DCL      4727--CALL
DISKDIR.DUMP_VSEC.HOB
      4661**DCL      4782>>ASSIGN
DISKDIR.DUMP_VSEC.LOB
      4662**DCL      4783>>ASSIGN
DISKDIR.FREE_VSEC.HOB
      4664**DCL      4775>>ASSIGN
DISKDIR.FREE_VSEC.LOB
      4665**DCL      4776>>ASSIGN
DISKID
      4647**DCL      4721--CALL
DISKID.BUILD_DATE
      4650**DCL      4758--CALL
DISKID.BUILD_DAY
      4651**DCL      4758--CALL
DISKID.BUILD_TIME
      4649**DCL      4758--CALL
DISKID.DESTINATION_NODE
      4652**DCL      4764--CALL
DISKID.PATCH_WEEK
      4654**DCL      4769--CALL
DISKID.REVISION_LEVEL
      4653**DCL      4748>>IF       4751>>ASSIGN
DISKID.SITE_ID
      4656**DCL      4764--CALL
DISKID.SYS_VERSION
      4655**DCL      4769--CALL
PL6.E3A0      #001=KPL$LIST File=KPL$LIST.:E05TSI                                WED 07/30/97 01:20 Page:33
DISKID.VERITY
      4648**DCL      4742>>IF
DRIVE_NUM
      4669**DCL      4714<>CALL     4720<>CALL     4721<>CALL     4727<>CALL     4733<>CALL     4738--CALL
DUMP_VSECTOR
      4670**DCL      4671--REDEF    4784>>IF       4786--CALL
DUMP_VSECTOR_
      4671**DCL      4781<<ASSIGN
DUMP_VSECTOR_.HOB
      4673**DCL      4782<<ASSIGN
DUMP_VSECTOR_.LOB
      4674**DCL      4783<<ASSIGN
FEP_NUM
      4668**DCL      4714<>CALL     4720<>CALL     4721<>CALL     4727<>CALL     4733<>CALL     4738--CALL
FMT1
      4687**DCL      4738--CALL
FMT2
      4689**DCL      4758--CALL
FMT3
      4691**DCL      4764--CALL
FMT4
      4693**DCL      4786--CALL
FMT5
      4695**DCL      4777--CALL
FMT6
      4697**DCL      4752--CALL
FMT7
      4699**DCL      4769--CALL
FREE_VSECTOR
      4675**DCL      4676--REDEF    4777--CALL
FREE_VSECTOR_
      4676**DCL      4774<<ASSIGN
FREE_VSECTOR_.HOB
      4678**DCL      4775<<ASSIGN
FREE_VSECTOR_.LOB
      4679**DCL      4776<<ASSIGN
PL6.E3A0      #001=KPL$LIST File=KPL$LIST.:E05TSI                                WED 07/30/97 01:20 Page:34
F_FDS
      4230**DCL      4738<>CALL     4752<>CALL     4758<>CALL     4764<>CALL     4769<>CALL     4777<>CALL
      4786<>CALL
IN_OPTS
      4136**DCL      4710<>CALL
KPD$DISK_TYPE
      4501**DCL-ENT  4710--CALL
KPE$ERROR
      4507**DCL-ENT  4744--CALL
KPI$IO_SVC
      4519**DCL-ENT  4741--CALL     4755--CALL     4762--CALL     4767--CALL     4772--CALL     4779--CALL
      4788--CALL
KPU$FEP_AND_DRIVE
      4537**DCL-ENT  4714--CALL
KPU$READ_BLOCK
      4572**DCL-ENT  4721--CALL     4727--CALL
KPU$SECURITY
      4587**DCL-ENT  4706--CALL
KPX$CLOSE
      4553**DCL-ENT  4733--CALL
KPX$OPEN
      4559**DCL-ENT  4720--CALL
KP_EXIT.V.STEPCC#
      4052**DCL      4052--REDEF
KP_INBUF
      3974**DCL      3974--REDEF
KP_REVISION_LEVEL
      4701**DCL      4752--CALL
KP_RU_KEY
      3982**DCL      3983--REDEF
KP_RU_KEY.NODE
      3982**DCL      3982--REDEF
KP_RU_KEY.PAGE
      3983**DCL      3983--REDEF
KP_RU_OUTBUF
      3976**DCL      3976--REDEF
PL6.E3A0      #001=KPL$LIST File=KPL$LIST.:E05TSI                                WED 07/30/97 01:20 Page:35
OUT$
        19**DCL        15--PROC     4714>>CALL
OUT$BLK
      4600**DCL      4714<>CALL
REV_LEVEL
      4680**DCL      4681--REDEF    4752--CALL
REV_LEVEL_
      4681**DCL      4750<<ASSIGN
REV_LEVEL_.LOB
      4683**DCL      4751<<ASSIGN
X$WRITE
      4479**DCL-ENT  4738--CALL     4752--CALL     4758--CALL     4764--CALL     4769--CALL     4777--CALL
      4786--CALL
