VERSION E05

PL6.E3A0      #001=KPT$TERM_MSG File=KPT$TERM_MSG.:E05TSI                        WED 07/30/97 01:21 Page:1
        1        1        /*M* KPT$TERM_IO   Send static messages to the terminal */
        2        2        /*T***********************************************************/
        3        3        /*T*                                                         */
        4        4        /*T* Copyright (c) Bull HN Information Systems Inc., 1997    */
        5        5        /*T*                                                         */
        6        6        /*T***********************************************************/
        7        7        /*F*     NAME:          KPT$TERM_MSG
        8        8                 PURPOSE:       Give msgs to the user
        9        9                 DESCRIPTION:   KPT$TERM_MSG is in charge of sending all canned
       10       10                                conversational (non-error) messages to the user.
       11       11        */
       12       12        KPT$TERM_MSG : PROC( TERM_IO_MSG );
       13       13        /**/
       14       14        /*      Include files */
       15       15        /**/
       16       16        %INCLUDE KP_DATA_R;
       17     1268        /**/
       18     1269        /* Entry definitions */
       19     1270        /**/
       20     1271    1   DCL KPI$IO_SVC ENTRY(1) ALTRET;
       21     1272    1   DCL XUR$ERRMSG ENTRY(7) ALTRET;
       22     1273        /**/
       23     1274        /*  STATIC data  */
       24     1275        /**/
       25     1276    1   DCL 1 TAD STATIC,
       26     1277    1         2 * UBIN(9) UNAL INIT(21),
       27     1278    1         2 TIME CHAR(11) UNAL,
       28     1279    1         2 * CHAR(2) UNAL INIT( ', ' ),
       29     1280    1         2 DATE CHAR(8) UNAL;
       30     1281    1   DCL 1 ERRORCODE STATIC,
       31     1282    1         2 FCG_MID UBIN HALF UNAL INIT( BITBIN('132024'O) ),
       32     1283    1         2 MON BIT(1) UNAL INIT( '0'B ),
       33     1284    1         2 ERR# UBIN(14) UNAL,
       34     1285    1         2 SEV UBIN(3) UNAL;
       35     1286    1   DCL TERM_IO_MSG UBIN WORD;
       36     1287        /**/
       37     1288        /*  CONSTANT  */
PL6.E3A0      #001=KPT$TERM_MSG File=KPT$TERM_MSG.:E05TSI                        WED 07/30/97 01:21 Page:2
       38     1289        /**/
       39     1290        %FPT_TIME    ( FPTN=FPT_TIME,
       40     1291                       DEST = LOCAL,
       41     1292                       DATE = TAD.DATE,
       42     1293                       TIME = TAD.TIME,
       43     1294                       SOURCE = CLOCK,
       44     1295                       STCLASS = CONSTANT );
       45     1314        /**/
       46     1315        /*  BASED STRUCTURES  */
       47     1316        /**/
       48     1317    1   DCL 1 TEXT$C BASED,
       49     1318    1         2 C UBIN BYTE UNAL,
       50     1319    1         2 TEXT CHAR(TEXT$C.C) UNAL;
       51     1320        /**/
       52     1321    1             IF TERM_IO_MSG = %T$GREETING
       53     1322    1              THEN
       54     1323    2                DO;
       55     1324        /*  Get time of day  */
       56     1325    2                 CALL M$TIME( FPT_TIME );
       57     1326        /* Give msg     */
       58     1327    2                 ERRORCODE.ERR# = TERM_IO_MSG;
       59     1328    2                 CALL XUR$ERRMSG( ERRORCODE, , ,
       60     1329    2                     VECTOR(ADDR(B_VERSION)->TEXT$C),
       61     1330    2                     VECTOR(TAD),
       62     1331    2                     VECTOR(KP_PROCNAME), 0);
       63     1332        /**/
       64     1333        /*E* ERROR: KPT-T$GREETING
       65     1334             MESSAGE: %U3 %U1 here at %U2.  */
       66     1335        /**/
       67     1336    2                 END;
       68     1337    1              ELSE
       69     1338    2                DO;
       70     1339    2                  ERRORCODE.ERR# = TERM_IO_MSG;
       71     1340    2                  CALL XUR$ERRMSG (ERRORCODE,,,VECTOR(KP_U1),,
       72     1341    2                    VECTOR(KP_PROCNAME),0);
       73     1342    2                    KP_U1.L = 0;
       74     1343    2                  END;
PL6.E3A0      #001=KPT$TERM_MSG File=KPT$TERM_MSG.:E05TSI                        WED 07/30/97 01:21 Page:3
       75     1344        /**/
       76     1345        /*E* ERROR: KPT-T$EXITING
       77     1346             MESSAGE: %U3 exiting.      */
       78     1347        /**/
       79     1348        /*E* ERROR: KPT-T$VINITING
       80     1349             MESSAGE: ...Voliniting  */
       81     1350        /**/
       82     1351        /*E* ERROR: KPT-T$VINITDUN
       83     1352             MESSAGE: Volinit complete.  */
       84     1353        /**/
       85     1354        /*E* ERROR: KPT-T$COPYING
       86     1355             MESSAGE: ...Copying% (%U1 tracks)% */
       87     1356        /**/
       88     1357        /*E* ERROR: KPT-T$COPYDUN
       89     1358             MESSAGE: Copy complete.  */
       90     1359        /**/
       91     1360        /*E* ERROR: KPT-T$THRESHOLD
       92     1361             MESSAGE: Getting close!   */
       93     1362        /**/
       94     1363        /*E* ERROR: KPT-T$WAITING
       95     1364             MESSAGE: At the next prompt, hit (RETURN) when ready. */
       96     1365        /**/
       97     1366        /*E* ERROR: KPT-T$USEACK
       98     1367             MESSAGE: ** USE COMMAND NOW ACTIVE **  */
       99     1368        /**/
      100     1369        /*E* ERROR: KPT-T$USENAK
      101     1370             MESSAGE: Previous USE command cancelled. */
      102     1371        /**/
      103     1372        /*E* ERROR: KPT-T$CERTIFYING
      104     1373             MESSAGE: ...Certifying  */
      105     1374        /**/
      106     1375        /*E* ERROR: KPT-T$CLONING
      107     1376             MESSAGE: ...Cloning  */
      108     1377        /**/
      109     1378        /*E* ERROR: KPT-T$CLONE_DONE
      110     1379             MESSAGE: ...Clone complete.  */
      111     1380        /**/
PL6.E3A0      #001=KPT$TERM_MSG File=KPT$TERM_MSG.:E05TSI                        WED 07/30/97 01:21 Page:4
      112     1381        /*E* ERROR: KPT-T$DUMPING
      113     1382             MESSAGE: ... Dumping  */
      114     1383        /**/
      115     1384        /*E* ERROR: KPT-T$NEXTDISK
      116     1385             MESSAGE: To continue dumping, put the second disk in the same drive.  */
      117     1386        /**/
      118     1387    1           RETURN;
      119     1388    1   END KPT$TERM_MSG;

PL6.E3A0      #001=KPT$TERM_MSG File=KPT$TERM_MSG.:E05TSI                        WED 07/30/97 01:21 Page:5
--  Include file information  --

   XU_FORMAT_C.:E05TOU  is referenced.
   CP_6.:E05TOU  cannot be made into a system file and is referenced.
   KP_MACRO_C.:E05TOU  is referenced.
   KI_SUBS_C.:E05TOU  is referenced.
   KP_PERR_C.:E05TOU  is referenced.
   KP_SUBS.:E05TOU  is referenced.
   KP_DATA_R.:E05TOU  cannot be made into a system file and is referenced.
   B$JIT_C.:E05TOU  was found in the system file and is never referenced.
   CP_6_C.:E05TOU  was found in the system file and is referenced.
      No diagnostics issued in procedure KPT$TERM_MSG.

   Procedure KPT$TERM_MSG requires 61 words for executable code.
   Procedure KPT$TERM_MSG requires 14 words of local(AUTO) storage.

    No errors detected in file KPT$TERM_MSG.:E05TSI    .

PL6.E3A0      #001=KPT$TERM_MSG File=KPT$TERM_MSG.:E05TSI                        WED 07/30/97 01:21 Page:6

 Object Unit name= KPT$TERM_MSG                               File name= KPT$TERM_MSG.:E05TOU
 UTS= JUL 30 '97 01:21:37.36 WED                              Compiler= PL-6/E31         Sev=      00
 SharedLib= :SHARED_SYSTEM                                    Alt SharedLib=


    ****  Control sections  ****

 Sect   Type Bound  Init  Size OctSiz  Section name(segment info)
    0   DCB   even  none     0      0  M$UC
    1   Data  even  none     7      7  KPT$TERM_MSG
    2  RoData even  UTS     12     14  KPT$TERM_MSG
    3   Proc  even  none    61     75  KPT$TERM_MSG
    4  RoData even  none    15     17  KPT$TERM_MSG

    ****  Entry defs  ****

                              Check   Calling
                             calling  sequence
  Sect OctLoc Primary Altret sequence   type   Parms  Name
     3      0   yes            yes      Std        1  KPT$TERM_MSG

  ****  Entry refs  ****

         Check        Calling
        calling       sequence
Altret sequence SRef   type   Args  Name
 yes     yes           Std       7 XUR$ERRMSG
                       nStd      0 X66_AUTO_1
                       Std       0 B_CONSPOOL_D
                       nStd      0 X66_ARET
PL6.E3A0      #001=KPT$TERM_MSG File=KPT$TERM_MSG.:E05TSI                        WED 07/30/97 01:21 Page:7

  ****  Data refs  ****

  Flags:  r = read only, s = secondary
Flgs Name                             Flgs Name                             Flgs Name
     M$UC                                  KP_INBUF                              KP_RU_OUTBUF
     KP_U1                                 KP_RU_KEY                        r    KP_PROCNAME
     B_VERSION                             B_VECTNIL

  ****  Segment refs  ****

  Flags:  r = read only, s = secondary
Flgs Name                             Flgs Name                             Flgs Name
     ISSID                                 NULLSID
PL6.E3A0      #001=KPT$TERM_MSG File=KPT$TERM_MSG.:E05TSI                        WED 07/30/97 01:21 Page:8


        1        1        /*M* KPT$TERM_IO   Send static messages to the terminal */
        2        2        /*T***********************************************************/
        3        3        /*T*                                                         */
        4        4        /*T* Copyright (c) Bull HN Information Systems Inc., 1997    */
        5        5        /*T*                                                         */
        6        6        /*T***********************************************************/
        7        7        /*F*     NAME:          KPT$TERM_MSG
        8        8                 PURPOSE:       Give msgs to the user
        9        9                 DESCRIPTION:   KPT$TERM_MSG is in charge of sending all canned
       10       10                                conversational (non-error) messages to the user.
       11       11        */
       12       12        KPT$TERM_MSG : PROC( TERM_IO_MSG );

     12  3 000000   000000 700200 xent  KPT$TERM_MSG TSX0  ! X66_AUTO_1
         3 000001   000016 000001                    ZERO    14,1

       13       13        /**/
       14       14        /*      Include files */
       15       15        /**/
       16       16        %INCLUDE KP_DATA_R;
       17     1268        /**/
       18     1269        /* Entry definitions */
       19     1270        /**/
       20     1271    1   DCL KPI$IO_SVC ENTRY(1) ALTRET;
       21     1272    1   DCL XUR$ERRMSG ENTRY(7) ALTRET;
       22     1273        /**/
       23     1274        /*  STATIC data  */
       24     1275        /**/
       25     1276    1   DCL 1 TAD STATIC,
       26     1277    1         2 * UBIN(9) UNAL INIT(21),
       27     1278    1         2 TIME CHAR(11) UNAL,
       28     1279    1         2 * CHAR(2) UNAL INIT( ', ' ),
       29     1280    1         2 DATE CHAR(8) UNAL;
       30     1281    1   DCL 1 ERRORCODE STATIC,
       31     1282    1         2 FCG_MID UBIN HALF UNAL INIT( BITBIN('132024'O) ),
       32     1283    1         2 MON BIT(1) UNAL INIT( '0'B ),
PL6.E3A0      #001=KPT$TERM_MSG File=KPT$TERM_MSG.:E05TSI                        WED 07/30/97 01:21 Page:9
       33     1284    1         2 ERR# UBIN(14) UNAL,
       34     1285    1         2 SEV UBIN(3) UNAL;
       35     1286    1   DCL TERM_IO_MSG UBIN WORD;
       36     1287        /**/
       37     1288        /*  CONSTANT  */
       38     1289        /**/
       39     1290        %FPT_TIME    ( FPTN=FPT_TIME,
       40     1291                       DEST = LOCAL,
       41     1292                       DATE = TAD.DATE,
       42     1293                       TIME = TAD.TIME,
       43     1294                       SOURCE = CLOCK,
       44     1295                       STCLASS = CONSTANT );
       45     1314        /**/
       46     1315        /*  BASED STRUCTURES  */
       47     1316        /**/
       48     1317    1   DCL 1 TEXT$C BASED,
       49     1318    1         2 C UBIN BYTE UNAL,
       50     1319    1         2 TEXT CHAR(TEXT$C.C) UNAL;
       51     1320        /**/
       52     1321    1             IF TERM_IO_MSG = %T$GREETING

   1321  3 000002   200003 470500                    LDP0    @TERM_IO_MSG,,AUTO
         3 000003   000000 235100                    LDA     0,,PR0
         3 000004   000765 115007                    CMPA    501,DL
         3 000005   000046 601000 3                  TNZ     s:1339

       53     1322    1              THEN
       54     1323    2                DO;

       55     1324        /*  Get time of day  */
       56     1325    2                 CALL M$TIME( FPT_TIME );

   1325  3 000006   000000 630400 2                  EPPR0   FPT_TIME
         3 000007   020004 713400                    CLIMB   8196
         3 000010   402000 401760                    pmme    nvectors=5

       57     1326        /* Give msg     */
PL6.E3A0      #001=KPT$TERM_MSG File=KPT$TERM_MSG.:E05TSI                        WED 07/30/97 01:21 Page:10
       58     1327    2                 ERRORCODE.ERR# = TERM_IO_MSG;

   1327  3 000011   200003 470500                    LDP0    @TERM_IO_MSG,,AUTO
         3 000012   000000 236100                    LDQ     0,,PR0
         3 000013   000003 736000                    QLS     3
         3 000014   000006 676000 1                  ERQ     ERRORCODE
         3 000015   377770 376007                    ANQ     131064,DL
         3 000016   000006 656000 1                  ERSQ    ERRORCODE

       59     1328    2                 CALL XUR$ERRMSG( ERRORCODE, , ,

   1328  3 000017   000000 236000 xsym               LDQ     B_VERSION
         3 000020   000033 772000                    QRL     27
         3 000021   000001 620006                    EAX0    1,QL
         3 000022   000000 635010                    EAA     0,X0
         3 000023   000002 771000                    ARL     2
         3 000024   000140 135007                    SBLA    96,DL
         3 000025   000000 236000 4                  LDQ     0
         3 000026   200004 757100                    STAQ    @TERM_IO_MSG+1,,AUTO
         3 000027   000006 236000 4                  LDQ     6
         3 000030   200014 756100                    STQ     @TERM_IO_MSG+9,,AUTO
         3 000031   000010 237000 4                  LDAQ    8
         3 000032   200012 757100                    STAQ    @TERM_IO_MSG+7,,AUTO
         3 000033   200004 631500                    EPPR1   @TERM_IO_MSG+1,,AUTO
         3 000034   200011 451500                    STP1    @TERM_IO_MSG+6,,AUTO
         3 000035   000001 236000 xsym               LDQ     B_VECTNIL+1
         3 000036   200010 756100                    STQ     @TERM_IO_MSG+5,,AUTO
         3 000037   000012 235000 4                  LDA     10
         3 000040   200006 757100                    STAQ    @TERM_IO_MSG+3,,AUTO
         3 000041   200006 630500                    EPPR0   @TERM_IO_MSG+3,,AUTO
         3 000042   000025 631400 xsym               EPPR1   B_VECTNIL+21
         3 000043   000000 701000 xent               TSX1    XUR$ERRMSG
         3 000044   000000 011000                    NOP     0

       60     1329    2                     VECTOR(ADDR(B_VERSION)->TEXT$C),
       61     1330    2                     VECTOR(TAD),
       62     1331    2                     VECTOR(KP_PROCNAME), 0);
PL6.E3A0      #001=KPT$TERM_MSG File=KPT$TERM_MSG.:E05TSI                        WED 07/30/97 01:21 Page:11
       63     1332        /**/
       64     1333        /*E* ERROR: KPT-T$GREETING
       65     1334             MESSAGE: %U3 %U1 here at %U2.  */
       66     1335        /**/
       67     1336    2                 END;

   1336  3 000045   000074 710000 3                  TRA     s:1387

       68     1337    1              ELSE
       69     1338    2                DO;

       70     1339    2                  ERRORCODE.ERR# = TERM_IO_MSG;

   1339  3 000046   000000 236100                    LDQ     0,,PR0
         3 000047   000003 736000                    QLS     3
         3 000050   000006 676000 1                  ERQ     ERRORCODE
         3 000051   377770 376007                    ANQ     131064,DL
         3 000052   000006 656000 1                  ERSQ    ERRORCODE

       71     1340    2                  CALL XUR$ERRMSG (ERRORCODE,,,VECTOR(KP_U1),,

   1340  3 000053   000006 236000 4                  LDQ     6
         3 000054   200012 756100                    STQ     @TERM_IO_MSG+7,,AUTO
         3 000055   000011 236000 4                  LDQ     9
         3 000056   000001 235000 xsym               LDA     B_VECTNIL+1
         3 000057   200010 757100                    STAQ    @TERM_IO_MSG+5,,AUTO
         3 000060   000016 236000 4                  LDQ     14
         3 000061   000001 235000 xsym               LDA     B_VECTNIL+1
         3 000062   200006 757100                    STAQ    @TERM_IO_MSG+3,,AUTO
         3 000063   000001 236000 xsym               LDQ     B_VECTNIL+1
         3 000064   000012 235000 4                  LDA     10
         3 000065   200004 757100                    STAQ    @TERM_IO_MSG+1,,AUTO
         3 000066   200004 630500                    EPPR0   @TERM_IO_MSG+1,,AUTO
         3 000067   000025 631400 xsym               EPPR1   B_VECTNIL+21
         3 000070   000000 701000 xent               TSX1    XUR$ERRMSG
         3 000071   000000 011000                    NOP     0

PL6.E3A0      #001=KPT$TERM_MSG File=KPT$TERM_MSG.:E05TSI                        WED 07/30/97 01:21 Page:12
       72     1341    2                    VECTOR(KP_PROCNAME),0);
       73     1342    2                    KP_U1.L = 0;

   1342  3 000072   000000 236003                    LDQ     0,DU
         3 000073   000000 552040 xsym               STBQ    KP_U1,'40'O

       74     1343    2                  END;

       75     1344        /**/
       76     1345        /*E* ERROR: KPT-T$EXITING
       77     1346             MESSAGE: %U3 exiting.      */
       78     1347        /**/
       79     1348        /*E* ERROR: KPT-T$VINITING
       80     1349             MESSAGE: ...Voliniting  */
       81     1350        /**/
       82     1351        /*E* ERROR: KPT-T$VINITDUN
       83     1352             MESSAGE: Volinit complete.  */
       84     1353        /**/
       85     1354        /*E* ERROR: KPT-T$COPYING
       86     1355             MESSAGE: ...Copying% (%U1 tracks)% */
       87     1356        /**/
       88     1357        /*E* ERROR: KPT-T$COPYDUN
       89     1358             MESSAGE: Copy complete.  */
       90     1359        /**/
       91     1360        /*E* ERROR: KPT-T$THRESHOLD
       92     1361             MESSAGE: Getting close!   */
       93     1362        /**/
       94     1363        /*E* ERROR: KPT-T$WAITING
       95     1364             MESSAGE: At the next prompt, hit (RETURN) when ready. */
       96     1365        /**/
       97     1366        /*E* ERROR: KPT-T$USEACK
       98     1367             MESSAGE: ** USE COMMAND NOW ACTIVE **  */
       99     1368        /**/
      100     1369        /*E* ERROR: KPT-T$USENAK
      101     1370             MESSAGE: Previous USE command cancelled. */
      102     1371        /**/
      103     1372        /*E* ERROR: KPT-T$CERTIFYING
PL6.E3A0      #001=KPT$TERM_MSG File=KPT$TERM_MSG.:E05TSI                        WED 07/30/97 01:21 Page:13
      104     1373             MESSAGE: ...Certifying  */
      105     1374        /**/
      106     1375        /*E* ERROR: KPT-T$CLONING
      107     1376             MESSAGE: ...Cloning  */
      108     1377        /**/
      109     1378        /*E* ERROR: KPT-T$CLONE_DONE
      110     1379             MESSAGE: ...Clone complete.  */
      111     1380        /**/
      112     1381        /*E* ERROR: KPT-T$DUMPING
      113     1382             MESSAGE: ... Dumping  */
      114     1383        /**/
      115     1384        /*E* ERROR: KPT-T$NEXTDISK
      116     1385             MESSAGE: To continue dumping, put the second disk in the same drive.  */
      117     1386        /**/
      118     1387    1           RETURN;

   1387  3 000074   000000 702200 xent               TSX2  ! X66_ARET
      119     1388    1   END KPT$TERM_MSG;

PL6.E3A0      #001=KPT$TERM_MSG File=KPT$TERM_MSG.:E05TSI                        WED 07/30/97 01:21 Page:14
--  Include file information  --

   XU_FORMAT_C.:E05TOU  is referenced.
   CP_6.:E05TOU  cannot be made into a system file and is referenced.
   KP_MACRO_C.:E05TOU  is referenced.
   KI_SUBS_C.:E05TOU  is referenced.
   KP_PERR_C.:E05TOU  is referenced.
   KP_SUBS.:E05TOU  is referenced.
   KP_DATA_R.:E05TOU  cannot be made into a system file and is referenced.
   B$JIT_C.:E05TOU  was found in the system file and is never referenced.
   CP_6_C.:E05TOU  was found in the system file and is referenced.
      No diagnostics issued in procedure KPT$TERM_MSG.
PL6.E3A0      #001=KPT$TERM_MSG File=KPT$TERM_MSG.:E05TSI                        WED 07/30/97 01:21 Page:15

 **** Variables and constants ****

  ****  Section 001  Data  KPT$TERM_MSG

  ****  Scalars and arrays  ****
OctLoc.c.b A Datatyp(siz) R M Lvl/name                 OctLoc.c.b A Datatyp(siz) R M Lvl/name

     6-0-0/b STRC        r     1 ERRORCODE                  0-0-0/c STRC(198)   r     1 TAD

  ****  Section 002 RoData KPT$TERM_MSG

  ****  Scalars and arrays  ****
OctLoc.c.b A Datatyp(siz) R M Lvl/name                 OctLoc.c.b A Datatyp(siz) R M Lvl/name

     0-0-0/d STRC(432)   r     1 FPT_TIME

  ****  Auto variables  ****

  ****  Scalars and arrays  ****
OctLoc.c.b A Datatyp(siz) R M Lvl/name                 OctLoc.c.b A Datatyp(siz) R M Lvl/name

     3-0-0/w PTR         r     1 @TERM_IO_MSG              *0-0-0/w UBIN        r     1 TERM_IO_MSG

  ****  SYMREF variables  ****

  ****  Scalars and arrays  ****
OctLoc.c.b A Datatyp(siz) R M Lvl/name                 OctLoc.c.b A Datatyp(siz) R M Lvl/name

     0-0-0/c CHAR        r     1 B_VERSION                  0-0-0/c STRC(144)   r     1 KP_PROCNAME
     0-0-0/c STRC(288)   r     1 KP_U1

  ****  BASED and DCB variables  ****

  ****  Scalars and arrays  ****
OctLoc.c.b A Datatyp(siz) R M Lvl/name                 OctLoc.c.b A Datatyp(siz) R M Lvl/name

     0-0-0/c ASTR(9)     r     1 TEXT$C
PL6.E3A0      #001=KPT$TERM_MSG File=KPT$TERM_MSG.:E05TSI                        WED 07/30/97 01:21 Page:16


   Procedure KPT$TERM_MSG requires 61 words for executable code.
   Procedure KPT$TERM_MSG requires 14 words of local(AUTO) storage.

    No errors detected in file KPT$TERM_MSG.:E05TSI    .
PL6.E3A0      #001=KPT$TERM_MSG File=KPT$TERM_MSG.:E05TSI                        WED 07/30/97 01:21 Page:17
          *** CROSS REFERENCE LISTING ***
**     DENOTES     IDENTIFIER DEFINITION
<<                 IDENTIFIER'S VALUE SET
>>                 IDENTIFIER'S VALUE USED
<>                 IDENTIFIER SET AND/OR USED
--                 IDENTIFIER REFERENCED
PL6.E3A0      #001=KPT$TERM_MSG File=KPT$TERM_MSG.:E05TSI                        WED 07/30/97 01:21 Page:18
          MINI XREF LISTING

B_VERSION
      1075**DCL      1328--CALL     1328--CALL
ERRORCODE
      1281**DCL      1328<>CALL     1340<>CALL
ERRORCODE.ERR#
      1284**DCL      1327<<ASSIGN   1339<<ASSIGN
FPT_TIME
      1306**DCL      1325<>CALL
FPT_TIME.V
      1310**DCL      1306--DCLINIT
KP_EXIT.V.STEPCC#
       939**DCL       939--REDEF
KP_INBUF
       861**DCL       861--REDEF
KP_PROCNAME
       898**DCL      1328--CALL     1340--CALL
KP_RU_KEY
       869**DCL       870--REDEF
KP_RU_KEY.NODE
       869**DCL       869--REDEF
KP_RU_KEY.PAGE
       870**DCL       870--REDEF
KP_RU_OUTBUF
       863**DCL       863--REDEF
KP_U1
       867**DCL      1340--CALL
KP_U1.L
       868**DCL      1342<<ASSIGN
M$TIME
       694**DCL-ENT  1325--CALL
TAD
      1276**DCL      1328--CALL
PL6.E3A0      #001=KPT$TERM_MSG File=KPT$TERM_MSG.:E05TSI                        WED 07/30/97 01:21 Page:19
TAD.DATE
      1280**DCL      1306--DCLINIT  1307--DCLINIT
TAD.TIME
      1278**DCL      1308--DCLINIT  1309--DCLINIT
TERM_IO_MSG
      1286**DCL        12--PROC     1321>>IF       1327>>ASSIGN   1339>>ASSIGN
TEXT$C
      1317**DCL      1328--CALL
TEXT$C.C
      1318**DCL      1319--IMP-SIZ  1328>>CALL
XUR$ERRMSG
      1272**DCL-ENT  1328--CALL     1340--CALL
