VERSION E05

PL6.E3A0      #001=KP_DATA_D File=KP_DATA_D.:E05TSI                              WED 07/30/97 01:22 Page:1
        1        1        /*M*  KP_DATA_D - PIGETTE Global Data SYMDEFS                      */
        2        2        /*T***********************************************************/
        3        3        /*T*                                                         */
        4        4        /*T* Copyright (c) Bull HN Information Systems Inc., 1997    */
        5        5        /*T*                                                         */
        6        6        /*T***********************************************************/
        7        7        /*F*     NAME:     KP_DATA_D
        8        8                 PURPOSE:  Global data definitions for PIGETTE
        9        9                 DESCRIPTION: This module has all the gloabl definitions used
       10       10                              by PIGETTE.
       11       11        */
       12       12        KP_DATA_D: PROC;
       13       13        /**/
       14       14        /* Include files */
       15       15        /**/
       16       16            %INCLUDE KP_SUBS;
       17      200            %INCLUDE KP_PERR_C;
       18      265            %INCLUDE KI_SUBS_C;
       19      401            %INCLUDE KP_MACRO_C;
       20      610            %INCLUDE CP_6;
       21     6169            %INCLUDE XU_FORMAT_C;
       22     6331        /**/
       23     6332        /* Input byte count, input and output buffers */
       24     6333        /**/
       25     6334    1   DCL KP_INPUT_COUNT UBIN WORD STATIC SYMDEF;
       26     6335    1   DCL KP_INBUF CHAR (%KP_INBUF_SIZE#) STATIC SYMDEF;
       27     6336    1   DCL R_KP_INBUF(0:%(KP_INBUF_SIZE#-1)) REDEF KP_INBUF UBIN BYTE UNAL;
       28     6337    1   DCL KP_OUTVFC UBIN BYTE STATIC SYMDEF;
       29     6338    1   DCL KP_OUTBUF CHAR (%KP_OUTBUF_SIZE#) STATIC SYMDEF;
       30     6339    1   DCL KP_A_OUTVFC UBIN BYTE STATIC SYMDEF;
       31     6340    1   DCL KP_A_OUTBUF CHAR (%KP_OUTBUF_SIZE#) STATIC SYMDEF;
       32     6341    1   DCL KP_RU_OUTBUF CHAR (%KP_RU_OUTBUF_SIZE#) STATIC SYMDEF;
       33     6342    1   DCL R_KP_RU_OUTBUF(0:%(KP_RU_OUTBUF_SIZE#-1)) REDEF KP_RU_OUTBUF UBIN BYTE UNAL;
       34     6343    1   DCL KP_RU_RECL UBIN WORD STATIC SYMDEF;
       35     6344        /**/
       36     6345        /* Things about FECG buffers.  These buffers are used to communicate          */
       37     6346        /* with PIGLET.  The 'FECG' part of the name is for historical reasons.       */
PL6.E3A0      #001=KP_DATA_D File=KP_DATA_D.:E05TSI                              WED 07/30/97 01:22 Page:2
       38     6347        /**/
       39     6348    1   DCL KP_FECG_IN CHAR (%KP_MAX_MSG_SIZE#) STATIC SYMDEF;
       40     6349    1   DCL KP_FECG_OUT CHAR (%KP_MAX_MSG_SIZE#) STATIC SYMDEF;
       41     6350    1   DCL KP_FECG_IN$ PTR INIT(ADDR(KP_FECG_IN)) STATIC SYMDEF;
       42     6351    1   DCL KP_FECG_OUT$ PTR INIT(ADDR(KP_FECG_OUT)) STATIC SYMDEF;
       43     6352    1   DCL KP_FECG_OUT_SIZE UBIN WORD STATIC SYMDEF;
       44     6353        /**/
       45     6354        /* Flag bits */
       46     6355        /**/
       47     6356    1   DCL KP_CECHO BIT(1) INIT('1'B) STATIC SYMDEF;
       48     6357    1   DCL KP_SLIST BIT(1) INIT('1'B) STATIC SYMDEF;
       49     6358    1   DCL KP_STILL_OK BIT(1) INIT ('1'B) STATIC SYMDEF;
       50     6359    1   DCL KP_STILL_READING BIT(1) STATIC SYMDEF;
       51     6360    1   DCL KP_TESTING BIT(1) INIT('0'B) STATIC SYMDEF;
       52     6361    1   DCL KP_INITIALIZING BIT(1) INIT('1'B) STATIC SYMDEF;
       53     6362    1   DCL GRIPE_INHIBIT SBIN WORD INIT(0) STATIC SYMDEF; /* >0 INHIBITS ERROR MSG   */
       54     6363        /**/
       55     6364        /*  The FEP that we're talking to  */
       56     6365        /**/
       57     6366    1   DCL KP_FEP_NO SBIN STATIC SYMDEF INIT(0);
       58     6367    1   DCL 1 KP_U1 STATIC SYMDEF,
       59     6368    1    2 L UBIN(9) UNAL,
       60     6369    1    2 TEXT CHAR(31);
       61     6370    1   DCL KP_FEP_TEXT CHAR(2) STATIC SYMDEF;
       62     6371        /**/
       63     6372        /* File name for opens to M$RU */
       64     6373        /**/
       65     6374    1   DCL KP_FILE_NAME CHAR (50) STATIC SYMDEF;
       66     6375        /**/
       67     6376        /* Indicator that the user is not yet a gonzo */
       68     6377        /**/
       69     6378    1   DCL KP_IN_GOOD_GRACE BIT(1) STATIC SYMDEF INIT( '1'B );
       70     6379        /**/
       71     6380        /* Key for reading and writing the run unit and the fparam area for */
       72     6381        /* the file information table                 */
       73     6382        /**/
       74     6383    1   DCL 1 KP_RU_KEY STATIC SYMDEF,
PL6.E3A0      #001=KP_DATA_D File=KP_DATA_D.:E05TSI                              WED 07/30/97 01:22 Page:3
       75     6384    1         2 COUNT UBIN BYTE UNAL,
       76     6385    1         2 TYPE UBIN BYTE UNAL,
       77     6386    1         2 NODE UBIN HALF UNAL,
       78     6387    1         2 DATASEG REDEF NODE,
       79     6388    1           3 * UBIN(6) UNAL,
       80     6389    1           3 SEGID BIT(12) UNAL,
       81     6390    1         2 PAGE UBIN HALF UNAL,
       82     6391    1         2 ISADDR REDEF PAGE UBIN HALF UNAL;
       83     6392    1   DCL 1 KP_RU_KEY1 REDEF KP_RU_KEY,
       84     6393    1         2 COUNT UBIN BYTE UNAL,
       85     6394    1         2 BYT1 UBIN BYTE UNAL,
       86     6395    1         2 BYT2 UBIN BYTE UNAL,
       87     6396    1         2 BYT3 UBIN BYTE UNAL,
       88     6397    1         2 BYT4 UBIN BYTE UNAL,
       89     6398    1         2 BYT5 UBIN BYTE UNAL;
       90     6399    1   DCL KP_FPARAM(0:1023) UBIN WORD STATIC SYMDEF;
       91     6400        /**/
       92     6401        /* Declares for various flags of global interest */
       93     6402        /**/
       94     6403    1   DCL KP_OUTPUT_DISP SBIN WORD STATIC SYMDEF;
       95     6404    1   DCL KP_DISK_ACTIVITY SBIN STATIC SYMDEF INIT(%KP_DISK_INACTIVE#);
       96     6405    1   DCL USE_LOCKED_FEP SBIN STATIC SYMDEF INIT(0);
       97     6406        /**/
       98     6407        /*  Other good stuff  */
       99     6408        /**/
      100     6409        %VLP_NAME (FPTN=KP_PROCNAME,LEN=15,NAME='PIGETTE',STCLASS="CONSTANT SYMDEF");
      101     6436        %VLP_NAME (FPTN=KP_PROMPT,LEN=15,NAME='Oink! ',STCLASS="CONSTANT SYMDEF");
      102     6463        %FPT_EXIT (FPTN=KP_EXIT, STCLASS=STATIC SYMDEF);
      103     6478    1   DCL KP_ERRDCB UBIN STATIC SYMDEF INIT(0);
      104     6479        /**/
      105     6480        /*  Limits to live by  */
      106     6481        /**/
      107     6482    1   DCL MAX_FEP_NO UBIN WORD STATIC SYMDEF INIT(%KI_FEMAX#); /* First guess       */
      108     6483    1   DCL MAX_DRIVE_NO UBIN WORD CONSTANT SYMDEF INIT(%KP_MAX_DRIVE#);
      109     6484        %KP_OPTIONS (FPTN=IN_DEFAULTS,STCLASS="STATIC SYMDEF");
      110     6517        %KP_OPTIONS (FPTN=OUT_DEFAULTS,STCLASS="STATIC SYMDEF");
      111     6550        %KP_OPTIONS (FPTN=IN_OPTS,STCLASS="STATIC SYMDEF");
PL6.E3A0      #001=KP_DATA_D File=KP_DATA_D.:E05TSI                              WED 07/30/97 01:22 Page:4
      112     6583        %KP_OPTIONS (FPTN=OUT_OPTS,STCLASS="STATIC SYMDEF");
      113     6616        /**/
      114     6617        /*  SYMREFS FROM ELSEWHERE  */
      115     6618        /**/
      116     6619    1   DCL B_VERSION CHAR(1) SYMREF;           /* LINKER-supplied version ID         */
      117     6620    1   DCL PRIMAL_BOOT BIT(1) SYMREF;
      118     6621    1   DCL SECONDARY_BOOT BIT(1) SYMREF;
      119     6622    1   DCL RELOADER BIT(1) SYMREF;
      120     6623        /**/
      121     6624        /*  SHARED FPTS  */
      122     6625        /**/
      123     6626        %FPT_NODEINFO (FPTN = FPT_NODEINFO,
      124     6627                       NODEINFO = VLR_NODEINFO,
      125     6628                       STCLASS = "STATIC SYMDEF");
      126     6640        %VLR_NODEINFO (FPTN = VLR_NODEINFO,
      127     6641                       STCLASS = "STATIC SYMDEF");
      128     6656        %F_FDS        ( NAME    = F_FDS,
      129     6657                        DVFC    = ' ',
      130     6658                        STCLASS = "STATIC SYMDEF",
      131     6659                        BUF     = KP_OUTBUF );
      132     6772        %FPT_MONINFO (FPTN = FPT_MONINFO,
      133     6773                      MONINFO = VLR_MONINFO,
      134     6774                      SITEINFO = VLR_SITEINFO,
      135     6775                      STCLASS = "CONSTANT SYMDEF");
      136     6790        %VLR_SITEINFO (STCLASS = "STATIC SYMDEF");
      137     6809        %VLR_MONINFO (STCLASS = "STATIC SYMDEF");
      138     6827    1   END KP_DATA_D;

PL6.E3A0      #001=KP_DATA_D File=KP_DATA_D.:E05TSI                              WED 07/30/97 01:22 Page:5
--  Include file information  --

   XU_FORMAT_C.:E05TOU  is referenced.
   CP_6_C.:E05TOU  is referenced.
   CP_6.:E05TOU  cannot be made into a system file and is referenced.
   KP_MACRO_C.:E05TOU  is referenced.
   KI_SUBS_C.:E05TOU  is referenced.
   KP_PERR_C.:E05TOU  is referenced.
   KP_SUBS.:E05TOU  is referenced.
      No diagnostics issued in procedure KP_DATA_D.

   No code generated for procedure KP_DATA_D .
   Procedure KP_DATA_D requires 4 words of local(AUTO) storage.

    No errors detected in file KP_DATA_D.:E05TSI    .

PL6.E3A0      #001=KP_DATA_D File=KP_DATA_D.:E05TSI                              WED 07/30/97 01:22 Page:6

 Object Unit name= KP_DATA_D                                  File name= KP_DATA_D.:E05TOU
 UTS= JUL 30 '97 01:22:59.64 WED                              Compiler= PL-6/E31         Sev=      00
 SharedLib= :SHARED_SYSTEM                                    Alt SharedLib=


    ****  Control sections  ****

 Sect   Type Bound  Init  Size OctSiz  Section name(segment info)
    0   DCB   even  none     0      0  M$UC
    1   Data  even  none  2600   5050  KP_DATA_D
    2  RoData even  UTS     22     26  KP_DATA_D
    3   Proc  even  none     0      0  KP_DATA_D

    ****  Entry defs  ****

                              Check   Calling
                             calling  sequence
  Sect OctLoc Primary Altret sequence   type   Parms  Name
     3      0   yes            yes     ~proc       0  KP_DATA_D
PL6.E3A0      #001=KP_DATA_D File=KP_DATA_D.:E05TSI                              WED 07/30/97 01:22 Page:7

  ****  Data defs  ****

 Sect OctLoc  Name                           Sect OctLoc  Name
    1      0  KP_INPUT_COUNT                     1      1  KP_INBUF
    1    201  KP_OUTVFC                          1    202  KP_OUTBUF
    1    240  KP_A_OUTVFC                        1    241  KP_A_OUTBUF
    1    277  KP_RU_OUTBUF                       1    477  KP_RU_RECL
    1    500  KP_FECG_IN                         1   1505  KP_FECG_OUT
    1   2512  KP_FECG_IN$                        1   2513  KP_FECG_OUT$
    1   2514  KP_FECG_OUT_SIZE                   1   2515  KP_CECHO
    1   2516  KP_SLIST                           1   2517  KP_STILL_OK
    1   2520  KP_STILL_READING                   1   2521  KP_TESTING
    1   2522  KP_INITIALIZING                    1   2523  GRIPE_INHIBIT
    1   2524  KP_FEP_NO                          1   2525  KP_U1
    1   2535  KP_FEP_TEXT                        1   2536  KP_FILE_NAME
    1   2553  KP_IN_GOOD_GRACE                   1   2554  KP_RU_KEY
    1   2556  KP_FPARAM                          1   4556  KP_OUTPUT_DISP
    1   4557  KP_DISK_ACTIVITY                   1   4560  USE_LOCKED_FEP
    2      0  KP_PROCNAME                        2      4  KP_PROMPT
    1   4562  KP_EXIT                            1   4570  KP_ERRDCB
    1   4571  MAX_FEP_NO                         2     10  MAX_DRIVE_NO
    1   4572  IN_DEFAULTS                        1   4607  OUT_DEFAULTS
    1   4624  IN_OPTS                            1   4641  OUT_OPTS
    1   4656  FPT_NODEINFO                       1   4666  VLR_NODEINFO
    1   4674  F_FDS                              2     12  FPT_MONINFO
    1   4732  VLR_SITEINFO                       1   5030  VLR_MONINFO

  ****  Data refs  ****

  Flags:  r = read only, s = secondary
Flgs Name                             Flgs Name                             Flgs Name
     M$UC
PL6.E3A0      #001=KP_DATA_D File=KP_DATA_D.:E05TSI                              WED 07/30/97 01:22 Page:8

  ****  Segment refs  ****

  Flags:  r = read only, s = secondary
Flgs Name                             Flgs Name                             Flgs Name
     ISSID                                 NULLSID
PL6.E3A0      #001=KP_DATA_D File=KP_DATA_D.:E05TSI                              WED 07/30/97 01:22 Page:9

        1        1        /*M*  KP_DATA_D - PIGETTE Global Data SYMDEFS                      */
        2        2        /*T***********************************************************/
        3        3        /*T*                                                         */
        4        4        /*T* Copyright (c) Bull HN Information Systems Inc., 1997    */
        5        5        /*T*                                                         */
        6        6        /*T***********************************************************/
        7        7        /*F*     NAME:     KP_DATA_D
        8        8                 PURPOSE:  Global data definitions for PIGETTE
        9        9                 DESCRIPTION: This module has all the gloabl definitions used
       10       10                              by PIGETTE.
       11       11        */
       12       12        KP_DATA_D: PROC;
       13       13        /**/
       14       14        /* Include files */
       15       15        /**/
       16       16            %INCLUDE KP_SUBS;
       17      200            %INCLUDE KP_PERR_C;
       18      265            %INCLUDE KI_SUBS_C;
       19      401            %INCLUDE KP_MACRO_C;
       20      610            %INCLUDE CP_6;
       21     6169            %INCLUDE XU_FORMAT_C;
       22     6331        /**/
       23     6332        /* Input byte count, input and output buffers */
       24     6333        /**/
       25     6334    1   DCL KP_INPUT_COUNT UBIN WORD STATIC SYMDEF;
       26     6335    1   DCL KP_INBUF CHAR (%KP_INBUF_SIZE#) STATIC SYMDEF;
       27     6336    1   DCL R_KP_INBUF(0:%(KP_INBUF_SIZE#-1)) REDEF KP_INBUF UBIN BYTE UNAL;
       28     6337    1   DCL KP_OUTVFC UBIN BYTE STATIC SYMDEF;
       29     6338    1   DCL KP_OUTBUF CHAR (%KP_OUTBUF_SIZE#) STATIC SYMDEF;
       30     6339    1   DCL KP_A_OUTVFC UBIN BYTE STATIC SYMDEF;
       31     6340    1   DCL KP_A_OUTBUF CHAR (%KP_OUTBUF_SIZE#) STATIC SYMDEF;
       32     6341    1   DCL KP_RU_OUTBUF CHAR (%KP_RU_OUTBUF_SIZE#) STATIC SYMDEF;
       33     6342    1   DCL R_KP_RU_OUTBUF(0:%(KP_RU_OUTBUF_SIZE#-1)) REDEF KP_RU_OUTBUF UBIN BYTE UNAL;
       34     6343    1   DCL KP_RU_RECL UBIN WORD STATIC SYMDEF;
       35     6344        /**/
       36     6345        /* Things about FECG buffers.  These buffers are used to communicate          */
       37     6346        /* with PIGLET.  The 'FECG' part of the name is for historical reasons.       */
PL6.E3A0      #001=KP_DATA_D File=KP_DATA_D.:E05TSI                              WED 07/30/97 01:22 Page:10
       38     6347        /**/
       39     6348    1   DCL KP_FECG_IN CHAR (%KP_MAX_MSG_SIZE#) STATIC SYMDEF;
       40     6349    1   DCL KP_FECG_OUT CHAR (%KP_MAX_MSG_SIZE#) STATIC SYMDEF;
       41     6350    1   DCL KP_FECG_IN$ PTR INIT(ADDR(KP_FECG_IN)) STATIC SYMDEF;
       42     6351    1   DCL KP_FECG_OUT$ PTR INIT(ADDR(KP_FECG_OUT)) STATIC SYMDEF;
       43     6352    1   DCL KP_FECG_OUT_SIZE UBIN WORD STATIC SYMDEF;
       44     6353        /**/
       45     6354        /* Flag bits */
       46     6355        /**/
       47     6356    1   DCL KP_CECHO BIT(1) INIT('1'B) STATIC SYMDEF;
       48     6357    1   DCL KP_SLIST BIT(1) INIT('1'B) STATIC SYMDEF;
       49     6358    1   DCL KP_STILL_OK BIT(1) INIT ('1'B) STATIC SYMDEF;
       50     6359    1   DCL KP_STILL_READING BIT(1) STATIC SYMDEF;
       51     6360    1   DCL KP_TESTING BIT(1) INIT('0'B) STATIC SYMDEF;
       52     6361    1   DCL KP_INITIALIZING BIT(1) INIT('1'B) STATIC SYMDEF;
       53     6362    1   DCL GRIPE_INHIBIT SBIN WORD INIT(0) STATIC SYMDEF; /* >0 INHIBITS ERROR MSG   */
       54     6363        /**/
       55     6364        /*  The FEP that we're talking to  */
       56     6365        /**/
       57     6366    1   DCL KP_FEP_NO SBIN STATIC SYMDEF INIT(0);
       58     6367    1   DCL 1 KP_U1 STATIC SYMDEF,
       59     6368    1    2 L UBIN(9) UNAL,
       60     6369    1    2 TEXT CHAR(31);
       61     6370    1   DCL KP_FEP_TEXT CHAR(2) STATIC SYMDEF;
       62     6371        /**/
       63     6372        /* File name for opens to M$RU */
       64     6373        /**/
       65     6374    1   DCL KP_FILE_NAME CHAR (50) STATIC SYMDEF;
       66     6375        /**/
       67     6376        /* Indicator that the user is not yet a gonzo */
       68     6377        /**/
       69     6378    1   DCL KP_IN_GOOD_GRACE BIT(1) STATIC SYMDEF INIT( '1'B );
       70     6379        /**/
       71     6380        /* Key for reading and writing the run unit and the fparam area for */
       72     6381        /* the file information table                 */
       73     6382        /**/
       74     6383    1   DCL 1 KP_RU_KEY STATIC SYMDEF,
PL6.E3A0      #001=KP_DATA_D File=KP_DATA_D.:E05TSI                              WED 07/30/97 01:22 Page:11
       75     6384    1         2 COUNT UBIN BYTE UNAL,
       76     6385    1         2 TYPE UBIN BYTE UNAL,
       77     6386    1         2 NODE UBIN HALF UNAL,
       78     6387    1         2 DATASEG REDEF NODE,
       79     6388    1           3 * UBIN(6) UNAL,
       80     6389    1           3 SEGID BIT(12) UNAL,
       81     6390    1         2 PAGE UBIN HALF UNAL,
       82     6391    1         2 ISADDR REDEF PAGE UBIN HALF UNAL;
       83     6392    1   DCL 1 KP_RU_KEY1 REDEF KP_RU_KEY,
       84     6393    1         2 COUNT UBIN BYTE UNAL,
       85     6394    1         2 BYT1 UBIN BYTE UNAL,
       86     6395    1         2 BYT2 UBIN BYTE UNAL,
       87     6396    1         2 BYT3 UBIN BYTE UNAL,
       88     6397    1         2 BYT4 UBIN BYTE UNAL,
       89     6398    1         2 BYT5 UBIN BYTE UNAL;
       90     6399    1   DCL KP_FPARAM(0:1023) UBIN WORD STATIC SYMDEF;
       91     6400        /**/
       92     6401        /* Declares for various flags of global interest */
       93     6402        /**/
       94     6403    1   DCL KP_OUTPUT_DISP SBIN WORD STATIC SYMDEF;
       95     6404    1   DCL KP_DISK_ACTIVITY SBIN STATIC SYMDEF INIT(%KP_DISK_INACTIVE#);
       96     6405    1   DCL USE_LOCKED_FEP SBIN STATIC SYMDEF INIT(0);
       97     6406        /**/
       98     6407        /*  Other good stuff  */
       99     6408        /**/
      100     6409        %VLP_NAME (FPTN=KP_PROCNAME,LEN=15,NAME='PIGETTE',STCLASS="CONSTANT SYMDEF");
      101     6436        %VLP_NAME (FPTN=KP_PROMPT,LEN=15,NAME='Oink! ',STCLASS="CONSTANT SYMDEF");
      102     6463        %FPT_EXIT (FPTN=KP_EXIT, STCLASS=STATIC SYMDEF);
      103     6478    1   DCL KP_ERRDCB UBIN STATIC SYMDEF INIT(0);
      104     6479        /**/
      105     6480        /*  Limits to live by  */
      106     6481        /**/
      107     6482    1   DCL MAX_FEP_NO UBIN WORD STATIC SYMDEF INIT(%KI_FEMAX#); /* First guess       */
      108     6483    1   DCL MAX_DRIVE_NO UBIN WORD CONSTANT SYMDEF INIT(%KP_MAX_DRIVE#);
      109     6484        %KP_OPTIONS (FPTN=IN_DEFAULTS,STCLASS="STATIC SYMDEF");
      110     6517        %KP_OPTIONS (FPTN=OUT_DEFAULTS,STCLASS="STATIC SYMDEF");
      111     6550        %KP_OPTIONS (FPTN=IN_OPTS,STCLASS="STATIC SYMDEF");
PL6.E3A0      #001=KP_DATA_D File=KP_DATA_D.:E05TSI                              WED 07/30/97 01:22 Page:12
      112     6583        %KP_OPTIONS (FPTN=OUT_OPTS,STCLASS="STATIC SYMDEF");
      113     6616        /**/
      114     6617        /*  SYMREFS FROM ELSEWHERE  */
      115     6618        /**/
      116     6619    1   DCL B_VERSION CHAR(1) SYMREF;           /* LINKER-supplied version ID         */
      117     6620    1   DCL PRIMAL_BOOT BIT(1) SYMREF;
      118     6621    1   DCL SECONDARY_BOOT BIT(1) SYMREF;
      119     6622    1   DCL RELOADER BIT(1) SYMREF;
      120     6623        /**/
      121     6624        /*  SHARED FPTS  */
      122     6625        /**/
      123     6626        %FPT_NODEINFO (FPTN = FPT_NODEINFO,
      124     6627                       NODEINFO = VLR_NODEINFO,
      125     6628                       STCLASS = "STATIC SYMDEF");
      126     6640        %VLR_NODEINFO (FPTN = VLR_NODEINFO,
      127     6641                       STCLASS = "STATIC SYMDEF");
      128     6656        %F_FDS        ( NAME    = F_FDS,
      129     6657                        DVFC    = ' ',
      130     6658                        STCLASS = "STATIC SYMDEF",
      131     6659                        BUF     = KP_OUTBUF );
      132     6772        %FPT_MONINFO (FPTN = FPT_MONINFO,
      133     6773                      MONINFO = VLR_MONINFO,
      134     6774                      SITEINFO = VLR_SITEINFO,
      135     6775                      STCLASS = "CONSTANT SYMDEF");
      136     6790        %VLR_SITEINFO (STCLASS = "STATIC SYMDEF");
      137     6809        %VLR_MONINFO (STCLASS = "STATIC SYMDEF");
      138     6827    1   END KP_DATA_D;

PL6.E3A0      #001=KP_DATA_D File=KP_DATA_D.:E05TSI                              WED 07/30/97 01:22 Page:13
--  Include file information  --

   XU_FORMAT_C.:E05TOU  is referenced.
   CP_6_C.:E05TOU  is referenced.
   CP_6.:E05TOU  cannot be made into a system file and is referenced.
   KP_MACRO_C.:E05TOU  is referenced.
   KI_SUBS_C.:E05TOU  is referenced.
   KP_PERR_C.:E05TOU  is referenced.
   KP_SUBS.:E05TOU  is referenced.
      No diagnostics issued in procedure KP_DATA_D.
PL6.E3A0      #001=KP_DATA_D File=KP_DATA_D.:E05TSI                              WED 07/30/97 01:22 Page:14

 **** Variables and constants ****

  ****  Section 001  Data  KP_DATA_D

  ****  Scalars and arrays  ****
OctLoc.c.b A Datatyp(siz) R M Lvl/name                 OctLoc.c.b A Datatyp(siz) R M Lvl/name

  4656-0-0/d STRC(288)   r     1 FPT_NODEINFO            4562-0-0/d STRC(216)   r     1 KP_EXIT
   500-0-0/c CHAR(2066)  r     1 KP_FECG_IN              1505-0-0/c CHAR(2066)  r     1 KP_FECG_OUT
   202-0-0/c CHAR(120)   r     1 KP_OUTBUF               5030-0-0/d STRC(540)   r     1 VLR_MONINFO
  4666-0-0/d STRC(216)   r     1 VLR_NODEINFO            4732-0-0/d STRC(2232)  r     1 VLR_SITEINFO


   No code generated for procedure KP_DATA_D .
   Procedure KP_DATA_D requires 4 words of local(AUTO) storage.

    No errors detected in file KP_DATA_D.:E05TSI    .
PL6.E3A0      #001=KP_DATA_D File=KP_DATA_D.:E05TSI                              WED 07/30/97 01:22 Page:15
          *** CROSS REFERENCE LISTING ***
**     DENOTES     IDENTIFIER DEFINITION
<<                 IDENTIFIER'S VALUE SET
>>                 IDENTIFIER'S VALUE USED
<>                 IDENTIFIER SET AND/OR USED
--                 IDENTIFIER REFERENCED
PL6.E3A0      #001=KP_DATA_D File=KP_DATA_D.:E05TSI                              WED 07/30/97 01:22 Page:16
          MINI XREF LISTING

FPT_NODEINFO.V
      6637**DCL      6637--DCLINIT
KP_EXIT.V
      6474**DCL      6474--DCLINIT
KP_EXIT.V.STEPCC#
      6475**DCL      6475--REDEF
KP_FECG_IN
      6348**DCL      6350--DCLINIT
KP_FECG_OUT
      6349**DCL      6351--DCLINIT
KP_INBUF
      6335**DCL      6336--REDEF
KP_OUTBUF
      6338**DCL      6691--DCLINIT  6693--DCLINIT
KP_RU_KEY
      6383**DCL      6392--REDEF
KP_RU_KEY.NODE
      6386**DCL      6387--REDEF
KP_RU_KEY.PAGE
      6390**DCL      6391--REDEF
KP_RU_OUTBUF
      6341**DCL      6342--REDEF
VLR_MONINFO
      6820**DCL      6786--DCLINIT
VLR_NODEINFO
      6650**DCL      6637--DCLINIT
VLR_SITEINFO
      6801**DCL      6786--DCLINIT
