PL6.E3A0      #002=KQC$ACTSTA File=KQC$CTL.:E05TSI                               WED 07/30/97 01:27 Page:205
     1286        1        /*T***********************************************************/
     1287        2        /*T*                                                         */
     1288        3        /*T* Copyright (c) Bull HN Information Systems Inc., 1997    */
     1289        4        /*T*                                                         */
     1290        5        /*T***********************************************************/
     1291        6        %EJECT;
PL6.E3A0      #002=KQC$ACTSTA File=KQC$CTL.:E05TSI                               WED 07/30/97 01:27 Page:206
     1292        7        /**/
     1293        8        /*F* NAME:         KQC$ACTSTA
     1294        9             PURPOSE:      To activate a station
     1295       10             CALL:         KQC$ACTSTA (KQ$STA,FPT_ACTIVATE.V)   ...FPT optional
     1296       11             INPUT:        KQ$STA.LOCKCNT counted up
     1297       12                           KQ$STA.GATE unlocked
     1298       13             DESCRIPTION:  Activates the
     1299       14                           station, and does what the FPT says.
     1300       15                           Must be called on behalf of user.
     1301       16                           Does not count down LOCKCNT.
     1302       17
     1303       18                           Calls KCD$ACTRM if TERMINAL.
     1304       19        */
     1305       20        KQC$ACTSTA: PROC (PARM$,PARM) ALTRET; /* !!Doesn't ALTRET!! */
     1306       21        /**/
     1307       22        /**/
     1308       23
     1309       24
     1310       25
     1311       26        /**/
     1312       27        /* INCLUDES */
     1313       28        /**/
     1314       29        %INCLUDE KQ_SUBS_C;
     1315      329        %INCLUDE KQ_MAC_C;
     1316     2879        %INCLUDE HF_LOCK_C;
     1317     2893        %INCLUDE KQ_DATA_R;
     1318     3725        %INCLUDE CP_6_SUBS;
     1319     4265        %INCLUDE NK$LDCT;
     1320     4367        %INCLUDE KC$CP6V_C;
     1321     4487        %INCLUDE KC_CP6;
     1322     5047        %INCLUDE N$REQ;
     1323     5121        %INCLUDE KC_DATA_R;
     1324     5134        %INCLUDE NK_SUBS;
     1325     5159        %INCLUDE SS_SCHED_C;
     1326     5392
     1327     5393
     1328     5394
PL6.E3A0      #002=KQC$ACTSTA File=KQC$CTL.:E05TSI                               WED 07/30/97 01:27 Page:207
     1329     5395        /**/
     1330     5396        /* PARAMETERS */
     1331     5397        /**/
     1332     5398    1   DCL PARM$ PTR;
     1333     5399    1   DCL PARM UBIN WORD ALIGNED;
     1334     5400    1   DCL PARMR BIT(36) ALIGNED;
     1335     5401
     1336     5402
     1337     5403
     1338     5404        /**/
     1339     5405        /* BASED STRUCTURES */
     1340     5406        /**/
     1341     5407        %NK$LDCT;
     1342     5453        %N$REQ;
     1343     5511        %KQ_CG   (FPTN=KQ$CG  ,STCLASS="BASED(CG$)");
     1344     6250        %KQ_STA  (FPTN=KQ$STA ,STCLASS="BASED(STA$)");
     1345     6589        %KQ_THDR (FPTN=KQ$THDR,STCLASS=BASED);
     1346     6627        %KQ_RBLK (FPTN=KQ$RBLK,STCLASS=BASED);
     1347     6813        %FPT$ACTIVATE_V (FPTN=FPT$ACTIVATE);
     1348     6819    1   DCL B$$BIT36 BIT(36) BASED ALIGNED;
     1349     6820
     1350     6821
     1351     6822
     1352     6823        /**/
     1353     6824        /* AUTO */
     1354     6825        /**/
     1355     6826    1   DCL CG$ PTR;
     1356     6827    1   DCL LDCT$ PTR;
     1357     6828    1   DCL SAVLDCT$ PTR;
     1358     6829    1   DCL STA$ PTR;
     1359     6830    1   DCL FPT$ PTR;
     1360     6831
     1361     6832
     1362     6833
     1363     6834        /**/
     1364     6835        /* REFS */
     1365     6836        /**/
PL6.E3A0      #002=KQC$ACTSTA File=KQC$CTL.:E05TSI                               WED 07/30/97 01:27 Page:208
     1366     6837    1   DCL KCD$ACTRM     ENTRY(1);
     1367     6838    1   DCL KCD$DACDSC    ENTRY(1);
     1368     6839    1   DCL KCD$DACTRM    ENTRY(1);
     1369     6840    1   DCL KCD$RELTRM    ENTRY(1);
     1370     6841    1   DCL KQG$DACT      ENTRY(1) ALTRET;
     1371     6842    1   DCL KQL$DELMLH    ENTRY(2) ALTRET;
     1372     6843    1   DCL KQR$VALIDATE  ENTRY(1) ALTRET;
     1373     6844    1   DCL KQT$LBT       ENTRY(1) ALTRET;
     1374     6845    1   DCL KQT$UBT       ENTRY(1) ALTRET;
     1375     6846    1   DCL KQT$VALREADS  ENTRY(1) ALTRET;
     1376     6847    1   DCL SSR$RUE       ENTRY(4);
     1377     6848    1   DCL KIS$OSI_DACT  ENTRY(1);
     1378     6849
     1379     6850
     1380     6851
     1381     6852        /**/
     1382     6853        /* SUBS */
     1383     6854        /**/
     1384     6855        %SUB KQ$QTREE="CG$->KQ$CG.QUEUE.QTREE$->KQ$THDR";
     1385     6856        %SUB KQ$TTREE="CG$->KQ$CG.TTREE";
     1386     6857        %SUB KQ$STREE="CG$->KQ$CG.STREE";
     1387     6858        %SUB KQ$DTREE="CG$->KQ$CG.DTREE";
     1388     6859        %EQU_CG;
     1389     6907        %EJECT;
PL6.E3A0      #002=KQC$ACTSTA File=KQC$CTL.:E05TSI                               WED 07/30/97 01:27 Page:209
     1390     6908    1         CALL SETUP;
     1391     6909    1         CALL ACT;
     1392     6910    1         RETURN;
     1393     6911        /**/
     1394     6912        /*F* NAME:         KQC$DACTSTA
     1395     6913             PURPOSE:      To deactivate a station
     1396     6914             CALL:         KQC$DACTSTA (KQ$STA,FPT_ACTIVATE.V)   ...FPT optional
     1397     6915             INPUT:        See KQC$ACTSTA
     1398     6916             DESCRIPTION:  Called as KQC$ACTSTA.  Deactivates
     1399     6917                           the station, aborting its current read if there
     1400     6918                           is one pending.  Validates every DCB read if
     1401     6919                           RAS is zero.
     1402     6920        */
     1403     6921    1   KQC$DACTSTA: ENTRY (PARM$,PARM) ALTRET; /* !!Doesn't ALTRET!! */
     1404     6922        /**/
     1405     6923    1         CALL SETUP;
     1406     6924    1         CALL DACT;
     1407     6925    1         RETURN;
     1408     6926        /**/
     1409     6927        /*F* NAME:         KQC$DISCSTA
     1410     6928             PURPOSE:      To deactivate-disconnect a station
     1411     6929             CALL:         KQC$DISCSTA (KQ$STA,FPT_ACTIVATE.V)   ...FPT optional
     1412     6930             INPUT:        See KQC$ACTSTA
     1413     6931             DESCTRIPTION: Called as KQC$DACTSTA.  First does what that
     1414     6932                           does (i.e. deactivate).  Then, for remote terminals
     1415     6933                           only, sends the message to the FEP to please pretend
     1416     6934                           the thing disconnected.  ALTRETs if local TERMINAL.
     1417     6935        */
     1418     6936    1   KQC$DISCSTA: ENTRY (PARM$,PARM) ALTRET;
     1419     6937        /**/
     1420     6938    1         CALL SETUP;
     1421     6939    1         CALL DISC ALTRET(ALTRT);
     1422     6940    1         RETURN;
     1423     6941    1   ALTRT:ALTRETURN;
     1424     6942        /**/
     1425     6943        /*F* NAME:         KQC$CLOSESTA
     1426     6944             PURPOSE:      To get rid of a station
PL6.E3A0      #002=KQC$ACTSTA File=KQC$CTL.:E05TSI                               WED 07/30/97 01:27 Page:210
     1427     6945             CALL:         KQC$CLOSESTA (KQ$STA)
     1428     6946             INPUT:        See KQC$ACTSTA
     1429     6947             DESCRIPTION:  If the station is a DCB then it is deactivated.
     1430     6948                           Otherwise, KCD$RELTRM is called to put the terminal
     1431     6949                           in limbo.  Used when the comgroup is being shut
     1432     6950                           down due to the last DCB going away, and we want
     1433     6951                           to put terminals in limbo as opposed to disconnecting
     1434     6952                           them.  KCD$RELTRM makes it look to the comgroup as
     1435     6953                           if the thing is disconnecting (i.e. call KQP$DISC).
     1436     6954        */
     1437     6955    1   KQC$CLOSESTA: ENTRY (PARM$) ALTRET; /* !!Doesn't ALTRET!! */
     1438     6956        /**/
     1439     6957    1         CALL SETUP;
     1440     6958    1         CALL CLOSESTA;
     1441     6959    1         RETURN;
     1442     6960        /**/
     1443     6961        /*F* NAME:         KQC$ABTRD
     1444     6962             PURPOSE:      To abort a station's outstanding read, if any
     1445     6963             CALL:         KQC$ATBRD (KQ$STA,FPT_ACTIVATE.V)
     1446     6964             DESCRIPTION:  The station's pending read, if any, is to be
     1447     6965                           aborted with the passed TYC.
     1448     6966        */
     1449     6967    1   KQC$ABTRD: ENTRY (PARM$,PARM) ALTRET; /* !!Doesn't ALTRET!! */
     1450     6968        /**/
     1451     6969    1         CALL SETUP;
     1452     6970    1         CALL ABTRDP (ADDR(PARM)->B$$BIT36);
     1453     6971    1         RETURN;
     1454     6972        /**/
     1455     6973    1   SETUP: PROC;
     1456     6974    2         STA$=ADDR(PARM$);
     1457     6975    2         CG$=STA$->KQ$STA.CG$;
     1458     6976    2         IF STA$->KQ$STA.SAVIDSC
     1459     6977    2         THEN SAVLDCT$=ADDR(NIL);
     1460     6978    2         ELSE SAVLDCT$=STA$->KQ$STA.SAVLDCT$;
     1461     6979    2         IF STA$->KQ$STA.IDSC THEN LDCT$=ADDR(NIL);
     1462     6980    3         ELSE DO;
     1463     6981    3           LDCT$=STA$->KQ$STA.LDCT$;
PL6.E3A0      #002=KQC$ACTSTA File=KQC$CTL.:E05TSI                               WED 07/30/97 01:27 Page:211
     1464     6982    3           IF STA$->KQ$STA.TERM='1'B AND LDCT$ ~= ADDR(NIL)
     1465     6983    3           AND LDCT$->NK$LDCT.RLCID.LDCTX = 0
     1466     6984    3           THEN LDCT$=ADDR(NIL);        /* A connecting terminal...           */
     1467     6985    3           END;
     1468     6986    2         FPT$=ADDR(PARM);
     1469     6987    2         RETURN;
     1470     6988    2   END SETUP;
     1471     6989        %EJECT;
PL6.E3A0      #002=KQC$ACTSTA File=KQC$CTL.:E05TSI                               WED 07/30/97 01:27 Page:212
     1472     6990        /****************************************************************
     1473     6991        *****************************************************************/
     1474     6992        /*D* NAME:         ACT
     1475     6993             PURPOSE:      To activate a station
     1476     6994             INPUT:        See KQC$ACTSTA
     1477     6995             DESCRIPTION:  STA$, LDCT$ point to the station.  FPT$ points
     1478     6996                           to an ACTIVATE FPT.
     1479     6997                           LDCT$ may be ADDR(NIL).
     1480     6998        */
     1481     6999    1   ACT:  PROC;
     1482     7000    2         IF FPT$ ~= ADDR(NIL) THEN
     1483     7001    2          IF FPT$->FPT$ACTIVATE.FLUSH THEN CALL FLUSHC;
     1484     7002    2         IF LDCT$ = ADDR(NIL) THEN RETURN;
     1485     7003    2         IF LDCT$->NK$LDCT.RESCOD ~= NK_CGDCB THEN
     1486     7004    3           DO;
     1487     7005    3           IF FPT$ ~= ADDR(NIL) THEN
     1488     7006    4             DO;
     1489     7007                  %LOCK (G=STA$->KQ$STA.GATE);
     1490     7010    4             STA$->KQ$STA.DVBYTE=FPT$->FPT$ACTIVATE.DVBYTE;
     1491     7011                  %UNLOCK (G=STA$->KQ$STA.GATE);
     1492     7014    4             END;
     1493     7015    3           CALL KCD$ACTRM (LDCT$->NK$LDCT);
     1494     7016    3           END;
     1495     7017    2         ELSE
     1496     7018    3           DO;
     1497     7019                %LOCK (G=STA$->KQ$STA.GATE);
     1498     7022    3           LDCT$->NK$LDCT.LKFLG.ACTIVE='1'B;
     1499     7023    3           IF FPT$ ~= ADDR(NIL) THEN
     1500     7024    3            IF FPT$->FPT$ACTIVATE.ABTREAD THEN
     1501     7025    4              DO;
     1502     7026    4              STA$->KQ$STA.ABTET=FPT$->FPT$ACTIVATE.ABTET;
     1503     7027                   %UNLOCK (G=STA$->KQ$STA.GATE);
     1504     7030    4              CALL ABTRD (FPT$->FPT$ACTIVATE.ABTREAD);
     1505     7031                   %LOCK (G=STA$->KQ$STA.GATE);
     1506     7034    4              GOTO OPNCHK;
     1507     7035    4              END;
     1508     7036    3           STA$->KQ$STA.ACTTYC='0'B;
PL6.E3A0      #002=KQC$ACTSTA File=KQC$CTL.:E05TSI                               WED 07/30/97 01:27 Page:213
     1509     7037    3           STA$->KQ$STA.ABTET='0'B;
     1510     7038    3   OPNCHK: ;
     1511     7039    3           IF STA$->KQ$STA.OPNBLKED THEN
     1512     7040    4             DO;
     1513     7041    4             STA$->KQ$STA.OPNBLKED='0'B;
     1514     7042                  %UNLOCK (G=STA$->KQ$STA.GATE);
     1515     7045    4             CALL SSR$RUE (%SS_UQA,STA$->KQ$STA.USR#);
     1516     7046    4             END;
     1517     7047    3           ELSE
     1518     7048    4             DO;
     1519     7049                  %UNLOCK (G=STA$->KQ$STA.GATE);
     1520     7052    4             END;
     1521     7053    3           END;
     1522     7054    2         RETURN;
     1523     7055    2   END ACT;
     1524     7056        /****************************************************************
     1525     7057        *****************************************************************/
     1526     7058        /*D* NAME:         ABTRD
     1527     7059             PURPOSE:      To abort a DCB station's read
     1528     7060             DESCRIPTION:  The station's next or pending read is aborted
     1529     7061                           with tyc ABTTYC.
     1530     7062        */
     1531     7063    1   ABTRD: PROC (ABTTYC);
     1532     7064        /**/
     1533     7065    2   DCL ABTTYC BIT(36) ALIGNED;
     1534     7066    2   DCL PEND UBIN;
     1535     7067        /**/
     1536     7068    2         PEND=0;
     1537     7069    2         GOTO ABT;
     1538     7070        /**/
     1539     7071        /*D* NAME:         ABTRDP
     1540     7072             PURPOSE:      To abort a station's pending read, if any
     1541     7073             DESCRIPTION:  If the station has a read pending, then it is
     1542     7074                           aborted with the passed TYC;
     1543     7075        */
     1544     7076    2   ABTRDP: ENTRY (ABTTYC);
     1545     7077        /**/
PL6.E3A0      #002=KQC$ACTSTA File=KQC$CTL.:E05TSI                               WED 07/30/97 01:27 Page:214
     1546     7078    2         PEND=1;
     1547     7079    2   ABT:  ;
     1548     7080    2         CALL KQT$LBT (CG$->KQ$CG);
     1549     7081              %LOCK (G=STA$->KQ$STA.GATE);
     1550     7084    2         IF NOT STA$->KQ$STA.IDSC THEN
     1551     7085    3           DO;
     1552     7086    3           IF PEND = 0 THEN STA$->KQ$STA.ACTTYC=ABTTYC;
     1553     7087    3           IF STA$->KQ$STA.RBLK$ ~= ADDR(NIL) THEN
     1554     7088    3            IF STA$->KQ$STA.RBLK$->KQ$RBLK.STATE = KQRS_PEND# THEN
     1555     7089    4              DO;
     1556     7090    4              STA$->KQ$STA.ACTTYC=ABTTYC;
     1557     7091    4              CALL KQR$VALIDATE (LDCT$->NK$LDCT.IOQ$->N$REQ);
     1558     7092    4              RETURN;
     1559     7093    4              END;
     1560     7094    3           END;
     1561     7095              %UNLOCK (G=STA$->KQ$STA.GATE);
     1562     7098    2         CALL KQT$UBT (CG$->KQ$CG);
     1563     7099    2         RETURN;
     1564     7100    2   END ABTRD;
     1565     7101        /****************************************************************
     1566     7102        *****************************************************************/
     1567     7103        /*D* NAME:    FLUSHC
     1568     7104             PURPOSE: To flush the queue of messages bound for STA$ if
     1569     7105                           the FPT says FLUSH.
     1570     7106        */
     1571     7107    1   FLUSHC: PROC;
     1572     7108        /**/
     1573     7109    2         IF FPT$ = ADDR(NIL) THEN RETURN;
     1574     7110    2         IF NOT FPT$->FPT$ACTIVATE.FLUSH THEN RETURN;
     1575     7111              %LOCK (G=STA$->KQ$STA.GATE);
     1576     7114    2         CALL KQL$DELMLH (CG$->KQ$CG,ADDR(STA$->KQ$STA.MLH));
     1577     7115              %UNLOCK (G=STA$->KQ$STA.GATE);
     1578     7118    2         RETURN;
     1579     7119    2   END FLUSHC;
     1580     7120        /****************************************************************
     1581     7121        *****************************************************************/
     1582     7122        /*D* NAME:         DACT
PL6.E3A0      #002=KQC$ACTSTA File=KQC$CTL.:E05TSI                               WED 07/30/97 01:27 Page:215
     1583     7123             PURPOSE:      To deactivate a station
     1584     7124             INPUT:        See KQC$ACTSTA
     1585     7125             DESCRIPTION:  STA$, LDCT$ point to the station, FPT$ as for ACT.
     1586     7126                           Note LDCT$ may be NIL (i.e. station may not be
     1587     7127                           connected).
     1588     7128
     1589     7129                           For DCBs, ACTIVE is reset, we call ABTRDP with
     1590     7130                           DACT TYC, and then do FLUSH if required.
     1591     7131                           For TERMs, we call KCD$DACTRM to deactivate it,
     1592     7132                           and KQG$DACT to clean up the pending GET, and
     1593     7133                           then FLUSH if required.
     1594     7134        */
     1595     7135    1   DACT: PROC;
     1596     7136    2         IF LDCT$ ~= ADDR(NIL) THEN
     1597     7137    3           DO;
     1598     7138    3           IF LDCT$->NK$LDCT.RESCOD = NK_CGDCB THEN
     1599     7139    4             DO;
     1600     7140                  %LOCK (G=STA$->KQ$STA.GATE);
     1601     7143    4             STA$->KQ$STA.ACTTYC='0'B;
     1602     7144    4             STA$->KQ$STA.ABTET='0'B;
     1603     7145    4             LDCT$->NK$LDCT.LKFLG.ACTIVE='0'B;
     1604     7146    4             IF STA$->KQ$STA.OPNBLKED THEN
     1605     7147    5               DO;
     1606     7148    5               STA$->KQ$STA.OPNBLKED='0'B;
     1607     7149    5               STA$->KQ$STA.OPNREJ='1'B;
     1608     7150                    %UNLOCK (G=STA$->KQ$STA.GATE);
     1609     7153    5               CALL SSR$RUE (%SS_UQA,STA$->KQ$STA.USR#);
     1610     7154    5               END;
     1611     7155    4             ELSE
     1612     7156    5               DO;
     1613     7157                    %UNLOCK (G=STA$->KQ$STA.GATE);
     1614     7160    5               END;
     1615     7161    4             CALL ABTRDP (%TYC_DACT);
     1616     7162    4             END;
     1617     7163    3           ELSE IF LDCT$->NK$LDCT.LKFLG.ACTIVE THEN
     1618     7164    4              DO;
     1619     7165    4              CALL KCD$DACTRM (LDCT$->NK$LDCT);
PL6.E3A0      #002=KQC$ACTSTA File=KQC$CTL.:E05TSI                               WED 07/30/97 01:27 Page:216
     1620     7166    4              CALL KQG$DACT (LDCT$->NK$LDCT);
     1621     7167    4              END;
     1622     7168    3           CALL KQT$VALREADS (CG$->KQ$CG);
     1623     7169    3           END;
     1624     7170    2         CALL FLUSHC;
     1625     7171    2         RETURN;
     1626     7172    2   END DACT;
     1627     7173        /****************************************************************
     1628     7174        *****************************************************************/
     1629     7175        /*D* NAME:         DISC
     1630     7176             PURPOSE:      To deactivate-disconnect a station
     1631     7177             INPUT:        See KQC$ACTSTA
     1632     7178             DESCRIPTION:  Calls DACT, then sends FEP msg if remote TERM;
     1633     7179                           ALTRETs if local TERM; does zip else for DCB.
     1634     7180        */
     1635     7181    1   DISC: PROC ALTRET;
     1636     7182    2         IF SAVLDCT$~=ADDR(NIL)
     1637     7183    2         THEN CALL KCD$DACDSC(SAVLDCT$->NK$LDCT);
     1638     7184    2         IF LDCT$ ~= ADDR(NIL) THEN
     1639     7185    3           DO;
     1640     7186    3           IF LDCT$->NK$LDCT.RESCOD = NK_CGDCB THEN
     1641     7187    4             DO;
     1642     7188    4             CALL DACT;
     1643     7189    4             RETURN;
     1644     7190    4             END;
     1645     7191    3           IF LDCT$->NK$LDCT.RLCID.NODE = 0 THEN
     1646     7192    4             DO;
     1647     7193    4             CALL DACT;
     1648     7194    4             ALTRETURN;
     1649     7195    4             END;
     1650     7196    3           CALL KCD$DACDSC (LDCT$->NK$LDCT);
     1651     7197    3           CALL KQT$VALREADS (CG$->KQ$CG);
     1652     7198    3           END;
     1653     7199    2         CALL FLUSHC;
     1654     7200    2         RETURN;
     1655     7201    2   END DISC;
     1656     7202        /****************************************************************
PL6.E3A0      #002=KQC$ACTSTA File=KQC$CTL.:E05TSI                               WED 07/30/97 01:27 Page:217
     1657     7203        *****************************************************************/
     1658     7204        /*D* NAME:         CLOSESTA
     1659     7205             PURPOSE:      To 'close' a station
     1660     7206             INPUT:        See KQC$ACTSTA
     1661     7207             DESCRIPTION:  STA$ points to the station.  See *F* for KQC$CLOSESTA.
     1662     7208        */
     1663     7209    1   CLOSESTA: PROC;
     1664     7210    2         IF SAVLDCT$~=ADDR(NIL)
     1665     7211    2         THEN CALL KCD$RELTRM(SAVLDCT$->NK$LDCT);
     1666     7212    2         IF LDCT$ ~= ADDR(NIL) THEN
     1667     7213    3           DO;
     1668     7214    3           IF LDCT$->NK$LDCT.RESCOD = NK_CGDCB THEN CALL DACT;
     1669     7215    3           ELSE
     1670     7216    4            IF LDCT$->NK$LDCT.RESCOD = NK_OSISTA THEN DO;
     1671     7217                   /* 'close' of NK_OSISTA means abort GET then disconnect */
     1672     7218    4              CALL KQG$DACT (LDCT$->NK$LDCT);
     1673     7219    4              CALL KQT$VALREADS (CG$->KQ$CG);
     1674     7220    4              CALL KIS$OSI_DACT (LDCT$->NK$LDCT);  /* releases LDCT */
     1675     7221    4              CG$->KQ$CG.STATS.NUMTERMS = CG$->KQ$CG.STATS.NUMTERMS - 1;
     1676     7222    4              END;
     1677     7223    3            ELSE
     1678     7224    4              DO;
     1679     7225    4              CALL KCD$RELTRM (LDCT$->NK$LDCT);
     1680     7226    4              CALL KQT$VALREADS (CG$->KQ$CG);
     1681     7227    4              END;
     1682     7228    3           END;
     1683     7229    2         RETURN;
     1684     7230    2   END CLOSESTA;
     1685     7231    1   END KQC$ACTSTA;
     1686     7232        %EOD;

PL6.E3A0      #002=KQC$ACTSTA File=KQC$CTL.:E05TSI                               WED 07/30/97 01:27 Page:218
--  Include file information  --

   SS_SCHED_C.:E05TOU  is referenced.
   NK_SUBS.:E05TOU  is referenced.
   KC_DATA_R.:E05TOU  cannot be made into a system file and is referenced.
   N$REQ.:E05TOU  is referenced.
   KC_CP6.:E05TOU  is referenced.
   KC$CP6V_C.:E05TOU  is referenced.
   NK$LDCT.:E05TOU  is referenced.
   CP_6_SUBS.:E05TOU  is referenced.
   KQ_DATA_R.:E05TOU  cannot be made into a system file and is referenced.
   HF_LOCK_C.:E05TOU  cannot be made into a system file and is referenced.
   KQ_MAC_C.:E05TOU  is referenced.
   KQ_SUBS_C.:E05TOU  is referenced.
      No diagnostics issued in procedure KQC$ACTSTA.

   Procedure KQC$ACTSTA requires 454 words for executable code.
   Procedure KQC$ACTSTA requires 24 words of local(AUTO) storage.

PL6.E3A0      #002=KQC$ACTSTA File=KQC$CTL.:E05TSI                               WED 07/30/97 01:27 Page:219

 Object Unit name= KQC$ACTSTA                                 File name= KQC$CTL.:E05TOU
 UTS= JUL 30 '97 01:27:04.32 WED                              Compiler= PL-6/E31         Sev=      00
 SharedLib= :SHARED_SYSTEM                                    Alt SharedLib=


    ****  Control sections  ****

 Sect   Type Bound  Init  Size OctSiz  Section name(segment info)
    0  RoData even  UTS      1      1  KQC$ACTSTA
    1   Proc  even  none   454    706  KQC$ACTSTA
    2  RoData even  none     7      7  KQC$ACTSTA

    ****  Entry defs  ****

                              Check   Calling
                             calling  sequence
  Sect OctLoc Primary Altret sequence   type   Parms  Name
     1      0   yes    yes     yes      Std        2  KQC$ACTSTA
     1      7          yes     yes      Std        2  KQC$DACTSTA
     1     16          yes     yes      Std        2  KQC$DISCSTA
     1     26          yes     yes      Std        1  KQC$CLOSESTA
     1     35          yes     yes      Std        2  KQC$ABTRD
PL6.E3A0      #002=KQC$ACTSTA File=KQC$CTL.:E05TSI                               WED 07/30/97 01:27 Page:220

  ****  Entry refs  ****

         Check        Calling
        calling       sequence
Altret sequence SRef   type   Args  Name
         yes           Std       1 HFC$LOCK
         yes           Std       1 HFC$UNLOCK
         yes           Std       1 KCD$ACTRM
         yes           Std       4 SSR$RUE
 yes     yes           Std       1 KQT$LBT
 yes     yes           Std       1 KQR$VALIDATE
 yes     yes           Std       1 KQT$UBT
 yes     yes           Std       2 KQL$DELMLH
         yes           Std       1 KCD$DACTRM
 yes     yes           Std       1 KQG$DACT
 yes     yes           Std       1 KQT$VALREADS
         yes           Std       1 KCD$DACDSC
         yes           Std       1 KCD$RELTRM
         yes           Std       1 KIS$OSI_DACT
                       nStd      0 X66_AUTO_2
                       nStd      0 X66_ARET
                       nStd      0 X66_AALT
                       Std       0 B_CONSPOOL_D

  ****  Data refs  ****

  Flags:  r = read only, s = secondary
Flgs Name                             Flgs Name                             Flgs Name
     B_VECTNIL

  ****  Segment refs  ****

  Flags:  r = read only, s = secondary
Flgs Name                             Flgs Name                             Flgs Name
     ISSID
PL6.E3A0      #002=KQC$ACTSTA File=KQC$CTL.:E05TSI                               WED 07/30/97 01:27 Page:221


     1286        1        /*T***********************************************************/
     1287        2        /*T*                                                         */
     1288        3        /*T* Copyright (c) Bull HN Information Systems Inc., 1997    */
     1289        4        /*T*                                                         */
     1290        5        /*T***********************************************************/
     1291        6        %EJECT;
PL6.E3A0      #002=KQC$ACTSTA File=KQC$CTL.:E05TSI                               WED 07/30/97 01:27 Page:222
     1292        7        /**/
     1293        8        /*F* NAME:         KQC$ACTSTA
     1294        9             PURPOSE:      To activate a station
     1295       10             CALL:         KQC$ACTSTA (KQ$STA,FPT_ACTIVATE.V)   ...FPT optional
     1296       11             INPUT:        KQ$STA.LOCKCNT counted up
     1297       12                           KQ$STA.GATE unlocked
     1298       13             DESCRIPTION:  Activates the
     1299       14                           station, and does what the FPT says.
     1300       15                           Must be called on behalf of user.
     1301       16                           Does not count down LOCKCNT.
     1302       17
     1303       18                           Calls KCD$ACTRM if TERMINAL.
     1304       19        */
     1305       20        KQC$ACTSTA: PROC (PARM$,PARM) ALTRET; /* !!Doesn't ALTRET!! */

     20  1 000000   000000 700200 xent  KQC$ACTSTA   TSX0  ! X66_AUTO_2
         1 000001   000030 000002                    ZERO    24,2

     1306       21        /**/
     1307       22        /**/
     1308       23
     1309       24
     1310       25
     1311       26        /**/
     1312       27        /* INCLUDES */
     1313       28        /**/
     1314       29        %INCLUDE KQ_SUBS_C;
     1315      329        %INCLUDE KQ_MAC_C;
     1316     2879        %INCLUDE HF_LOCK_C;
     1317     2893        %INCLUDE KQ_DATA_R;
     1318     3725        %INCLUDE CP_6_SUBS;
     1319     4265        %INCLUDE NK$LDCT;
     1320     4367        %INCLUDE KC$CP6V_C;
     1321     4487        %INCLUDE KC_CP6;
     1322     5047        %INCLUDE N$REQ;
     1323     5121        %INCLUDE KC_DATA_R;
     1324     5134        %INCLUDE NK_SUBS;
PL6.E3A0      #002=KQC$ACTSTA File=KQC$CTL.:E05TSI                               WED 07/30/97 01:27 Page:223
     1325     5159        %INCLUDE SS_SCHED_C;
     1326     5392
     1327     5393
     1328     5394
     1329     5395        /**/
     1330     5396        /* PARAMETERS */
     1331     5397        /**/
     1332     5398    1   DCL PARM$ PTR;
     1333     5399    1   DCL PARM UBIN WORD ALIGNED;
     1334     5400    1   DCL PARMR BIT(36) ALIGNED;
     1335     5401
     1336     5402
     1337     5403
     1338     5404        /**/
     1339     5405        /* BASED STRUCTURES */
     1340     5406        /**/
     1341     5407        %NK$LDCT;
     1342     5453        %N$REQ;
     1343     5511        %KQ_CG   (FPTN=KQ$CG  ,STCLASS="BASED(CG$)");
     1344     6250        %KQ_STA  (FPTN=KQ$STA ,STCLASS="BASED(STA$)");
     1345     6589        %KQ_THDR (FPTN=KQ$THDR,STCLASS=BASED);
     1346     6627        %KQ_RBLK (FPTN=KQ$RBLK,STCLASS=BASED);
     1347     6813        %FPT$ACTIVATE_V (FPTN=FPT$ACTIVATE);
     1348     6819    1   DCL B$$BIT36 BIT(36) BASED ALIGNED;
     1349     6820
     1350     6821
     1351     6822
     1352     6823        /**/
     1353     6824        /* AUTO */
     1354     6825        /**/
     1355     6826    1   DCL CG$ PTR;
     1356     6827    1   DCL LDCT$ PTR;
     1357     6828    1   DCL SAVLDCT$ PTR;
     1358     6829    1   DCL STA$ PTR;
     1359     6830    1   DCL FPT$ PTR;
     1360     6831
     1361     6832
PL6.E3A0      #002=KQC$ACTSTA File=KQC$CTL.:E05TSI                               WED 07/30/97 01:27 Page:224
     1362     6833
     1363     6834        /**/
     1364     6835        /* REFS */
     1365     6836        /**/
     1366     6837    1   DCL KCD$ACTRM     ENTRY(1);
     1367     6838    1   DCL KCD$DACDSC    ENTRY(1);
     1368     6839    1   DCL KCD$DACTRM    ENTRY(1);
     1369     6840    1   DCL KCD$RELTRM    ENTRY(1);
     1370     6841    1   DCL KQG$DACT      ENTRY(1) ALTRET;
     1371     6842    1   DCL KQL$DELMLH    ENTRY(2) ALTRET;
     1372     6843    1   DCL KQR$VALIDATE  ENTRY(1) ALTRET;
     1373     6844    1   DCL KQT$LBT       ENTRY(1) ALTRET;
     1374     6845    1   DCL KQT$UBT       ENTRY(1) ALTRET;
     1375     6846    1   DCL KQT$VALREADS  ENTRY(1) ALTRET;
     1376     6847    1   DCL SSR$RUE       ENTRY(4);
     1377     6848    1   DCL KIS$OSI_DACT  ENTRY(1);
     1378     6849
     1379     6850
     1380     6851
     1381     6852        /**/
     1382     6853        /* SUBS */
     1383     6854        /**/
     1384     6855        %SUB KQ$QTREE="CG$->KQ$CG.QUEUE.QTREE$->KQ$THDR";
     1385     6856        %SUB KQ$TTREE="CG$->KQ$CG.TTREE";
     1386     6857        %SUB KQ$STREE="CG$->KQ$CG.STREE";
     1387     6858        %SUB KQ$DTREE="CG$->KQ$CG.DTREE";
     1388     6859        %EQU_CG;
     1389     6907        %EJECT;
PL6.E3A0      #002=KQC$ACTSTA File=KQC$CTL.:E05TSI                               WED 07/30/97 01:27 Page:225
     1390     6908    1         CALL SETUP;

   6908  1 000002   000046 701000 1                  TSX1    SETUP
         1 000003   000000 011000                    NOP     0

     1391     6909    1         CALL ACT;

   6909  1 000004   000111 701000 1                  TSX1    ACT
         1 000005   000000 011000                    NOP     0

     1392     6910    1         RETURN;

   6910  1 000006   000000 702200 xent               TSX2  ! X66_ARET

     1393     6911        /**/
     1394     6912        /*F* NAME:         KQC$DACTSTA
     1395     6913             PURPOSE:      To deactivate a station
     1396     6914             CALL:         KQC$DACTSTA (KQ$STA,FPT_ACTIVATE.V)   ...FPT optional
     1397     6915             INPUT:        See KQC$ACTSTA
     1398     6916             DESCRIPTION:  Called as KQC$ACTSTA.  Deactivates
     1399     6917                           the station, aborting its current read if there
     1400     6918                           is one pending.  Validates every DCB read if
     1401     6919                           RAS is zero.
     1402     6920        */
     1403     6921    1   KQC$DACTSTA: ENTRY (PARM$,PARM) ALTRET; /* !!Doesn't ALTRET!! */

   6921  1 000007   000000 700200 xent  KQC$DACTSTA  TSX0  ! X66_AUTO_2
         1 000010   000030 000002                    ZERO    24,2

     1404     6922        /**/
     1405     6923    1         CALL SETUP;

   6923  1 000011   000046 701000 1                  TSX1    SETUP
         1 000012   000000 011000                    NOP     0

     1406     6924    1         CALL DACT;

PL6.E3A0      #002=KQC$ACTSTA File=KQC$CTL.:E05TSI                               WED 07/30/97 01:27 Page:226
   6924  1 000013   000443 701000 1                  TSX1    DACT
         1 000014   000000 011000                    NOP     0

     1407     6925    1         RETURN;

   6925  1 000015   000000 702200 xent               TSX2  ! X66_ARET

     1408     6926        /**/
     1409     6927        /*F* NAME:         KQC$DISCSTA
     1410     6928             PURPOSE:      To deactivate-disconnect a station
     1411     6929             CALL:         KQC$DISCSTA (KQ$STA,FPT_ACTIVATE.V)   ...FPT optional
     1412     6930             INPUT:        See KQC$ACTSTA
     1413     6931             DESCTRIPTION: Called as KQC$DACTSTA.  First does what that
     1414     6932                           does (i.e. deactivate).  Then, for remote terminals
     1415     6933                           only, sends the message to the FEP to please pretend
     1416     6934                           the thing disconnected.  ALTRETs if local TERMINAL.
     1417     6935        */
     1418     6936    1   KQC$DISCSTA: ENTRY (PARM$,PARM) ALTRET;

   6936  1 000016   000000 700200 xent  KQC$DISCSTA  TSX0  ! X66_AUTO_2
         1 000017   000030 000002                    ZERO    24,2

     1419     6937        /**/
     1420     6938    1         CALL SETUP;

   6938  1 000020   000046 701000 1                  TSX1    SETUP
         1 000021   000000 011000                    NOP     0

     1421     6939    1         CALL DISC ALTRET(ALTRT);

   6939  1 000022   000560 701000 1                  TSX1    DISC
         1 000023   000025 702000 1                  TSX2    ALTRT

     1422     6940    1         RETURN;

   6940  1 000024   000000 702200 xent               TSX2  ! X66_ARET

PL6.E3A0      #002=KQC$ACTSTA File=KQC$CTL.:E05TSI                               WED 07/30/97 01:27 Page:227
     1423     6941    1   ALTRT:ALTRETURN;

   6941  1 000025   000000 702200 xent  ALTRT        TSX2  ! X66_AALT

     1424     6942        /**/
     1425     6943        /*F* NAME:         KQC$CLOSESTA
     1426     6944             PURPOSE:      To get rid of a station
     1427     6945             CALL:         KQC$CLOSESTA (KQ$STA)
     1428     6946             INPUT:        See KQC$ACTSTA
     1429     6947             DESCRIPTION:  If the station is a DCB then it is deactivated.
     1430     6948                           Otherwise, KCD$RELTRM is called to put the terminal
     1431     6949                           in limbo.  Used when the comgroup is being shut
     1432     6950                           down due to the last DCB going away, and we want
     1433     6951                           to put terminals in limbo as opposed to disconnecting
     1434     6952                           them.  KCD$RELTRM makes it look to the comgroup as
     1435     6953                           if the thing is disconnecting (i.e. call KQP$DISC).
     1436     6954        */
     1437     6955    1   KQC$CLOSESTA: ENTRY (PARM$) ALTRET; /* !!Doesn't ALTRET!! */

   6955  1 000026   000000 700200 xent  KQC$CLOSESTA TSX0  ! X66_AUTO_2
         1 000027   000030 000002                    ZERO    24,2

     1438     6956        /**/
     1439     6957    1         CALL SETUP;

   6957  1 000030   000046 701000 1                  TSX1    SETUP
         1 000031   000000 011000                    NOP     0

     1440     6958    1         CALL CLOSESTA;

   6958  1 000032   000627 701000 1                  TSX1    CLOSESTA
         1 000033   000000 011000                    NOP     0

     1441     6959    1         RETURN;

   6959  1 000034   000000 702200 xent               TSX2  ! X66_ARET

PL6.E3A0      #002=KQC$ACTSTA File=KQC$CTL.:E05TSI                               WED 07/30/97 01:27 Page:228
     1442     6960        /**/
     1443     6961        /*F* NAME:         KQC$ABTRD
     1444     6962             PURPOSE:      To abort a station's outstanding read, if any
     1445     6963             CALL:         KQC$ATBRD (KQ$STA,FPT_ACTIVATE.V)
     1446     6964             DESCRIPTION:  The station's pending read, if any, is to be
     1447     6965                           aborted with the passed TYC.
     1448     6966        */
     1449     6967    1   KQC$ABTRD: ENTRY (PARM$,PARM) ALTRET; /* !!Doesn't ALTRET!! */

   6967  1 000035   000000 700200 xent  KQC$ABTRD    TSX0  ! X66_AUTO_2
         1 000036   000030 000002                    ZERO    24,2

     1450     6968        /**/
     1451     6969    1         CALL SETUP;

   6969  1 000037   000046 701000 1                  TSX1    SETUP
         1 000040   000000 011000                    NOP     0

     1452     6970    1         CALL ABTRDP (ADDR(PARM)->B$$BIT36);

   6970  1 000041   200004 236100                    LDQ     @PARM,,AUTO
         1 000042   200021 756100                    STQ     FPT$+7,,AUTO
         1 000043   000310 701000 1                  TSX1    ABTRDP
         1 000044   000000 011000                    NOP     0

     1453     6971    1         RETURN;

   6971  1 000045   000000 702200 xent               TSX2  ! X66_ARET

     1454     6972        /**/
     1455     6973    1   SETUP: PROC;

   6973  1 000046   200014 741300       SETUP        STX1  ! FPT$+2,,AUTO

     1456     6974    2         STA$=ADDR(PARM$);

   6974  1 000047   200003 236100                    LDQ     @PARM$,,AUTO
PL6.E3A0      #002=KQC$ACTSTA File=KQC$CTL.:E05TSI                               WED 07/30/97 01:27 Page:229
         1 000050   200011 756100                    STQ     STA$,,AUTO

     1457     6975    2         CG$=STA$->KQ$STA.CG$;

   6975  1 000051   200011 470500                    LDP0    STA$,,AUTO
         1 000052   000007 236100                    LDQ     7,,PR0
         1 000053   200006 756100                    STQ     CG$,,AUTO

     1458     6976    2         IF STA$->KQ$STA.SAVIDSC

   6976  1 000054   000023 236100                    LDQ     19,,PR0
         1 000055   000400 316007                    CANQ    256,DL
         1 000056   000062 600000 1                  TZE     s:6978

     1459     6977    2         THEN SAVLDCT$=ADDR(NIL);

   6977  1 000057   000001 236000 xsym               LDQ     B_VECTNIL+1
         1 000060   200010 756100                    STQ     SAVLDCT$,,AUTO
         1 000061   000064 710000 1                  TRA     s:6979

     1460     6978    2         ELSE SAVLDCT$=STA$->KQ$STA.SAVLDCT$;

   6978  1 000062   000031 236100                    LDQ     25,,PR0
         1 000063   200010 756100                    STQ     SAVLDCT$,,AUTO

     1461     6979    2         IF STA$->KQ$STA.IDSC THEN LDCT$=ADDR(NIL);

   6979  1 000064   000020 234100                    SZN     16,,PR0
         1 000065   000071 605000 1                  TPL     s:6981

   6979  1 000066   000001 236000 xsym               LDQ     B_VECTNIL+1
         1 000067   200007 756100                    STQ     LDCT$,,AUTO
         1 000070   000106 710000 1                  TRA     s:6986

     1462     6980    3         ELSE DO;

     1463     6981    3           LDCT$=STA$->KQ$STA.LDCT$;
PL6.E3A0      #002=KQC$ACTSTA File=KQC$CTL.:E05TSI                               WED 07/30/97 01:27 Page:230

   6981  1 000071   000010 236100                    LDQ     8,,PR0
         1 000072   200007 756100                    STQ     LDCT$,,AUTO

     1464     6982    3           IF STA$->KQ$STA.TERM='1'B AND LDCT$ ~= ADDR(NIL)

   6982  1 000073   000020 236100                    LDQ     16,,PR0
         1 000074   040000 316003                    CANQ    16384,DU
         1 000075   000106 600000 1                  TZE     s:6986
         1 000076   200007 236100                    LDQ     LDCT$,,AUTO
         1 000077   000001 116000 xsym               CMPQ    B_VECTNIL+1
         1 000100   000106 600000 1                  TZE     s:6986
         1 000101   200007 471500                    LDP1    LDCT$,,AUTO
         1 000102   100015 720100                    LXL0    13,,PR1
         1 000103   000106 601000 1                  TNZ     s:6986

     1465     6983    3           AND LDCT$->NK$LDCT.RLCID.LDCTX = 0
     1466     6984    3           THEN LDCT$=ADDR(NIL);        /* A connecting terminal...           */

   6984  1 000104   000001 236000 xsym               LDQ     B_VECTNIL+1
         1 000105   200007 756100                    STQ     LDCT$,,AUTO

     1467     6985    3           END;

     1468     6986    2         FPT$=ADDR(PARM);

   6986  1 000106   200004 236100                    LDQ     @PARM,,AUTO
         1 000107   200012 756100                    STQ     FPT$,,AUTO

     1469     6987    2         RETURN;

   6987  1 000110   000001 702211                    TSX2  ! 1,X1

     1470     6988    2   END SETUP;
     1471     6989        %EJECT;
PL6.E3A0      #002=KQC$ACTSTA File=KQC$CTL.:E05TSI                               WED 07/30/97 01:27 Page:231
     1472     6990        /****************************************************************
     1473     6991        *****************************************************************/
     1474     6992        /*D* NAME:         ACT
     1475     6993             PURPOSE:      To activate a station
     1476     6994             INPUT:        See KQC$ACTSTA
     1477     6995             DESCRIPTION:  STA$, LDCT$ point to the station.  FPT$ points
     1478     6996                           to an ACTIVATE FPT.
     1479     6997                           LDCT$ may be ADDR(NIL).
     1480     6998        */
     1481     6999    1   ACT:  PROC;

   6999  1 000111   200014 741300       ACT          STX1  ! FPT$+2,,AUTO

     1482     7000    2         IF FPT$ ~= ADDR(NIL) THEN

   7000  1 000112   200012 236100                    LDQ     FPT$,,AUTO
         1 000113   000001 116000 xsym               CMPQ    B_VECTNIL+1
         1 000114   000123 600000 1                  TZE     s:7002

     1483     7001    2          IF FPT$->FPT$ACTIVATE.FLUSH THEN CALL FLUSHC;

   7001  1 000115   200012 470500                    LDP0    FPT$,,AUTO
         1 000116   000002 236100                    LDQ     2,,PR0
         1 000117   200000 316003                    CANQ    65536,DU
         1 000120   000123 600000 1                  TZE     s:7002

   7001  1 000121   000376 701000 1                  TSX1    FLUSHC
         1 000122   000000 011000                    NOP     0

     1484     7002    2         IF LDCT$ = ADDR(NIL) THEN RETURN;

   7002  1 000123   200007 236100                    LDQ     LDCT$,,AUTO
         1 000124   000001 116000 xsym               CMPQ    B_VECTNIL+1
         1 000125   000130 601000 1                  TNZ     s:7003

   7002  1 000126   200014 221300                    LDX1  ! FPT$+2,,AUTO
         1 000127   000001 702211                    TSX2  ! 1,X1
PL6.E3A0      #002=KQC$ACTSTA File=KQC$CTL.:E05TSI                               WED 07/30/97 01:27 Page:232

     1485     7003    2         IF LDCT$->NK$LDCT.RESCOD ~= NK_CGDCB THEN

   7003  1 000130   200007 470500                    LDP0    LDCT$,,AUTO
         1 000131   000006 236100                    LDQ     6,,PR0
         1 000132   000017 376007                    ANQ     15,DL
         1 000133   000004 116007                    CMPQ    4,DL
         1 000134   000170 600000 1                  TZE     s:7020

     1486     7004    3           DO;

     1487     7005    3           IF FPT$ ~= ADDR(NIL) THEN

   7005  1 000135   200012 236100                    LDQ     FPT$,,AUTO
         1 000136   000001 116000 xsym               CMPQ    B_VECTNIL+1
         1 000137   000163 600000 1                  TZE     s:7015

     1488     7006    4             DO;

     1489     7007                  %LOCK (G=STA$->KQ$STA.GATE);

   7008  1 000140   200011 236100                    LDQ     STA$,,AUTO
         1 000141   000016 036003                    ADLQ    14,DU
         1 000142   200024 756100                    STQ     PEND+2,,AUTO
         1 000143   200024 630500                    EPPR0   PEND+2,,AUTO
         1 000144   000017 631400 xsym               EPPR1   B_VECTNIL+15
         1 000145   000000 701000 xent               TSX1    HFC$LOCK
         1 000146   000000 011000                    NOP     0

     1490     7010    4             STA$->KQ$STA.DVBYTE=FPT$->FPT$ACTIVATE.DVBYTE;

   7010  1 000147   200011 470500                    LDP0    STA$,,AUTO
         1 000150   200012 471500                    LDP1    FPT$,,AUTO
         1 000151   100000 236100                    LDQ     0,,PR1
         1 000152   000022 736000                    QLS     18
         1 000153   000023 552120                    STBQ    19,'20'O,PR0

PL6.E3A0      #002=KQC$ACTSTA File=KQC$CTL.:E05TSI                               WED 07/30/97 01:27 Page:233
     1491     7011                  %UNLOCK (G=STA$->KQ$STA.GATE);

   7012  1 000154   200011 236100                    LDQ     STA$,,AUTO
         1 000155   000016 036003                    ADLQ    14,DU
         1 000156   200024 756100                    STQ     PEND+2,,AUTO
         1 000157   200024 630500                    EPPR0   PEND+2,,AUTO
         1 000160   000017 631400 xsym               EPPR1   B_VECTNIL+15
         1 000161   000000 701000 xent               TSX1    HFC$UNLOCK
         1 000162   000000 011000                    NOP     0

     1492     7014    4             END;

     1493     7015    3           CALL KCD$ACTRM (LDCT$->NK$LDCT);

   7015  1 000163   200007 630500                    EPPR0   LDCT$,,AUTO
         1 000164   000017 631400 xsym               EPPR1   B_VECTNIL+15
         1 000165   000000 701000 xent               TSX1    KCD$ACTRM
         1 000166   000000 011000                    NOP     0

     1494     7016    3           END;

   7016  1 000167   000303 710000 1                  TRA     s:7054

     1495     7017    2         ELSE
     1496     7018    3           DO;

     1497     7019                %LOCK (G=STA$->KQ$STA.GATE);

   7020  1 000170   200011 236100                    LDQ     STA$,,AUTO
         1 000171   000016 036003                    ADLQ    14,DU
         1 000172   200024 756100                    STQ     PEND+2,,AUTO
         1 000173   200024 630500                    EPPR0   PEND+2,,AUTO
         1 000174   000017 631400 xsym               EPPR1   B_VECTNIL+15
         1 000175   000000 701000 xent               TSX1    HFC$LOCK
         1 000176   000000 011000                    NOP     0

     1498     7022    3           LDCT$->NK$LDCT.LKFLG.ACTIVE='1'B;
PL6.E3A0      #002=KQC$ACTSTA File=KQC$CTL.:E05TSI                               WED 07/30/97 01:27 Page:234

   7022  1 000177   200007 470500                    LDP0    LDCT$,,AUTO
         1 000200   000040 236003                    LDQ     32,DU
         1 000201   000011 256100                    ORSQ    9,,PR0

     1499     7023    3           IF FPT$ ~= ADDR(NIL) THEN

   7023  1 000202   200012 236100                    LDQ     FPT$,,AUTO
         1 000203   000001 116000 xsym               CMPQ    B_VECTNIL+1
         1 000204   000242 600000 1                  TZE     s:7036

     1500     7024    3            IF FPT$->FPT$ACTIVATE.ABTREAD THEN

   7024  1 000205   200012 471500                    LDP1    FPT$,,AUTO
         1 000206   100001 235100                    LDA     1,,PR1
         1 000207   000242 600000 1                  TZE     s:7036

     1501     7025    4              DO;

     1502     7026    4              STA$->KQ$STA.ABTET=FPT$->FPT$ACTIVATE.ABTET;

   7026  1 000210   200011 473500                    LDP3    STA$,,AUTO
         1 000211   100002 236100                    LDQ     2,,PR1
         1 000212   000005 772000                    QRL     5
         1 000213   300020 676100                    ERQ     16,,PR3
         1 000214   002000 376003                    ANQ     1024,DU
         1 000215   300020 656100                    ERSQ    16,,PR3

     1503     7027                   %UNLOCK (G=STA$->KQ$STA.GATE);

   7028  1 000216   200011 236100                    LDQ     STA$,,AUTO
         1 000217   000016 036003                    ADLQ    14,DU
         1 000220   200024 756100                    STQ     PEND+2,,AUTO
         1 000221   200024 630500                    EPPR0   PEND+2,,AUTO
         1 000222   000017 631400 xsym               EPPR1   B_VECTNIL+15
         1 000223   000000 701000 xent               TSX1    HFC$UNLOCK
         1 000224   000000 011000                    NOP     0
PL6.E3A0      #002=KQC$ACTSTA File=KQC$CTL.:E05TSI                               WED 07/30/97 01:27 Page:235

     1504     7030    4              CALL ABTRD (FPT$->FPT$ACTIVATE.ABTREAD);

   7030  1 000225   200012 236100                    LDQ     FPT$,,AUTO
         1 000226   000001 036003                    ADLQ    1,DU
         1 000227   200021 756100                    STQ     FPT$+7,,AUTO
         1 000230   000305 701000 1                  TSX1    ABTRD
         1 000231   000000 011000                    NOP     0

     1505     7031                   %LOCK (G=STA$->KQ$STA.GATE);

   7032  1 000232   200011 236100                    LDQ     STA$,,AUTO
         1 000233   000016 036003                    ADLQ    14,DU
         1 000234   200024 756100                    STQ     PEND+2,,AUTO
         1 000235   200024 630500                    EPPR0   PEND+2,,AUTO
         1 000236   000017 631400 xsym               EPPR1   B_VECTNIL+15
         1 000237   000000 701000 xent               TSX1    HFC$LOCK
         1 000240   000000 011000                    NOP     0

     1506     7034    4              GOTO OPNCHK;

   7034  1 000241   000246 710000 1                  TRA     OPNCHK

     1507     7035    4              END;
     1508     7036    3           STA$->KQ$STA.ACTTYC='0'B;

   7036  1 000242   200011 471500                    LDP1    STA$,,AUTO
         1 000243   100013 450100                    STZ     11,,PR1

     1509     7037    3           STA$->KQ$STA.ABTET='0'B;

   7037  1 000244   000000 236000 2                  LDQ     0
         1 000245   100020 356100                    ANSQ    16,,PR1

   7037  1 000246                       OPNCHK       null
     1510     7038    3   OPNCHK: ;
     1511     7039    3           IF STA$->KQ$STA.OPNBLKED THEN
PL6.E3A0      #002=KQC$ACTSTA File=KQC$CTL.:E05TSI                               WED 07/30/97 01:27 Page:236

   7039  1 000246   200011 470500                    LDP0    STA$,,AUTO
         1 000247   000023 236100                    LDQ     19,,PR0
         1 000250   020000 316007                    CANQ    8192,DL
         1 000251   000274 600000 1                  TZE     s:7050

     1512     7040    4             DO;

     1513     7041    4             STA$->KQ$STA.OPNBLKED='0'B;

   7041  1 000252   000001 236000 2                  LDQ     1
         1 000253   000023 356100                    ANSQ    19,,PR0

     1514     7042                  %UNLOCK (G=STA$->KQ$STA.GATE);

   7043  1 000254   200011 236100                    LDQ     STA$,,AUTO
         1 000255   000016 036003                    ADLQ    14,DU
         1 000256   200024 756100                    STQ     PEND+2,,AUTO
         1 000257   200024 630500                    EPPR0   PEND+2,,AUTO
         1 000260   000017 631400 xsym               EPPR1   B_VECTNIL+15
         1 000261   000000 701000 xent               TSX1    HFC$UNLOCK
         1 000262   000000 011000                    NOP     0

     1515     7045    4             CALL SSR$RUE (%SS_UQA,STA$->KQ$STA.USR#);

   7045  1 000263   200011 236100                    LDQ     STA$,,AUTO
         1 000264   000003 036000 2                  ADLQ    3
         1 000265   000004 235000 2                  LDA     4
         1 000266   200024 757100                    STAQ    PEND+2,,AUTO
         1 000267   200024 630500                    EPPR0   PEND+2,,AUTO
         1 000270   000020 631400 xsym               EPPR1   B_VECTNIL+16
         1 000271   000000 701000 xent               TSX1    SSR$RUE
         1 000272   000000 011000                    NOP     0

     1516     7046    4             END;

   7046  1 000273   000303 710000 1                  TRA     s:7054
PL6.E3A0      #002=KQC$ACTSTA File=KQC$CTL.:E05TSI                               WED 07/30/97 01:27 Page:237

     1517     7047    3           ELSE
     1518     7048    4             DO;

     1519     7049                  %UNLOCK (G=STA$->KQ$STA.GATE);

   7050  1 000274   200011 236100                    LDQ     STA$,,AUTO
         1 000275   000016 036003                    ADLQ    14,DU
         1 000276   200024 756100                    STQ     PEND+2,,AUTO
         1 000277   200024 630500                    EPPR0   PEND+2,,AUTO
         1 000300   000017 631400 xsym               EPPR1   B_VECTNIL+15
         1 000301   000000 701000 xent               TSX1    HFC$UNLOCK
         1 000302   000000 011000                    NOP     0

     1520     7052    4             END;

     1521     7053    3           END;

     1522     7054    2         RETURN;

   7054  1 000303   200014 221300                    LDX1  ! FPT$+2,,AUTO
         1 000304   000001 702211                    TSX2  ! 1,X1

     1523     7055    2   END ACT;
     1524     7056        /****************************************************************
     1525     7057        *****************************************************************/
     1526     7058        /*D* NAME:         ABTRD
     1527     7059             PURPOSE:      To abort a DCB station's read
     1528     7060             DESCRIPTION:  The station's next or pending read is aborted
     1529     7061                           with tyc ABTTYC.
     1530     7062        */
     1531     7063    1   ABTRD: PROC (ABTTYC);

   7063  1 000305   200020 741300       ABTRD        STX1  ! FPT$+6,,AUTO

     1532     7064        /**/
     1533     7065    2   DCL ABTTYC BIT(36) ALIGNED;
PL6.E3A0      #002=KQC$ACTSTA File=KQC$CTL.:E05TSI                               WED 07/30/97 01:27 Page:238
     1534     7066    2   DCL PEND UBIN;
     1535     7067        /**/
     1536     7068    2         PEND=0;

   7068  1 000306   200022 450100                    STZ     PEND,,AUTO

     1537     7069    2         GOTO ABT;

   7069  1 000307   000313 710000 1                  TRA     ABT

     1538     7070        /**/
     1539     7071        /*D* NAME:         ABTRDP
     1540     7072             PURPOSE:      To abort a station's pending read, if any
     1541     7073             DESCRIPTION:  If the station has a read pending, then it is
     1542     7074                           aborted with the passed TYC;
     1543     7075        */
     1544     7076    2   ABTRDP: ENTRY (ABTTYC);

   7076  1 000310   200020 741300       ABTRDP       STX1  ! FPT$+6,,AUTO

     1545     7077        /**/
     1546     7078    2         PEND=1;

   7078  1 000311   000001 235007                    LDA     1,DL
         1 000312   200022 755100                    STA     PEND,,AUTO

   7078  1 000313                       ABT          null
     1547     7079    2   ABT:  ;
     1548     7080    2         CALL KQT$LBT (CG$->KQ$CG);

   7080  1 000313   200006 630500                    EPPR0   CG$,,AUTO
         1 000314   000017 631400 xsym               EPPR1   B_VECTNIL+15
         1 000315   000000 701000 xent               TSX1    KQT$LBT
         1 000316   000000 011000                    NOP     0

     1549     7081              %LOCK (G=STA$->KQ$STA.GATE);

PL6.E3A0      #002=KQC$ACTSTA File=KQC$CTL.:E05TSI                               WED 07/30/97 01:27 Page:239
   7082  1 000317   200011 236100                    LDQ     STA$,,AUTO
         1 000320   000016 036003                    ADLQ    14,DU
         1 000321   200024 756100                    STQ     PEND+2,,AUTO
         1 000322   200024 630500                    EPPR0   PEND+2,,AUTO
         1 000323   000017 631400 xsym               EPPR1   B_VECTNIL+15
         1 000324   000000 701000 xent               TSX1    HFC$LOCK
         1 000325   000000 011000                    NOP     0

     1550     7084    2         IF NOT STA$->KQ$STA.IDSC THEN

   7084  1 000326   200011 470500                    LDP0    STA$,,AUTO
         1 000327   000020 234100                    SZN     16,,PR0
         1 000330   000361 604000 1                  TMI     s:7096

     1551     7085    3           DO;

     1552     7086    3           IF PEND = 0 THEN STA$->KQ$STA.ACTTYC=ABTTYC;

   7086  1 000331   200022 235100                    LDA     PEND,,AUTO
         1 000332   000336 601000 1                  TNZ     s:7087

   7086  1 000333   200021 471500                    LDP1    @ABTTYC,,AUTO
         1 000334   100000 236100                    LDQ     0,,PR1
         1 000335   000013 756100                    STQ     11,,PR0

     1553     7087    3           IF STA$->KQ$STA.RBLK$ ~= ADDR(NIL) THEN

   7087  1 000336   000011 236100                    LDQ     9,,PR0
         1 000337   000001 116000 xsym               CMPQ    B_VECTNIL+1
         1 000340   000361 600000 1                  TZE     s:7096

     1554     7088    3            IF STA$->KQ$STA.RBLK$->KQ$RBLK.STATE = KQRS_PEND# THEN

   7088  1 000341   000011 471500                    LDP1    9,,PR0
         1 000342   100001 220100                    LDX0    1,,PR1
         1 000343   000002 100003                    CMPX0   2,DU
         1 000344   000361 601000 1                  TNZ     s:7096
PL6.E3A0      #002=KQC$ACTSTA File=KQC$CTL.:E05TSI                               WED 07/30/97 01:27 Page:240

     1555     7089    4              DO;

     1556     7090    4              STA$->KQ$STA.ACTTYC=ABTTYC;

   7090  1 000345   200021 473500                    LDP3    @ABTTYC,,AUTO
         1 000346   300000 236100                    LDQ     0,,PR3
         1 000347   000013 756100                    STQ     11,,PR0

     1557     7091    4              CALL KQR$VALIDATE (LDCT$->NK$LDCT.IOQ$->N$REQ);

   7091  1 000350   200007 474500                    LDP4    LDCT$,,AUTO
         1 000351   400001 475500                    LDP5    1,,PR4
         1 000352   200024 455500                    STP5    PEND+2,,AUTO
         1 000353   200024 630500                    EPPR0   PEND+2,,AUTO
         1 000354   000017 631400 xsym               EPPR1   B_VECTNIL+15
         1 000355   000000 701000 xent               TSX1    KQR$VALIDATE
         1 000356   000000 011000                    NOP     0

     1558     7092    4              RETURN;

   7092  1 000357   200020 221300                    LDX1  ! FPT$+6,,AUTO
         1 000360   000001 702211                    TSX2  ! 1,X1

     1559     7093    4              END;
     1560     7094    3           END;
     1561     7095              %UNLOCK (G=STA$->KQ$STA.GATE);

   7096  1 000361   200011 236100                    LDQ     STA$,,AUTO
         1 000362   000016 036003                    ADLQ    14,DU
         1 000363   200024 756100                    STQ     PEND+2,,AUTO
         1 000364   200024 630500                    EPPR0   PEND+2,,AUTO
         1 000365   000017 631400 xsym               EPPR1   B_VECTNIL+15
         1 000366   000000 701000 xent               TSX1    HFC$UNLOCK
         1 000367   000000 011000                    NOP     0

     1562     7098    2         CALL KQT$UBT (CG$->KQ$CG);
PL6.E3A0      #002=KQC$ACTSTA File=KQC$CTL.:E05TSI                               WED 07/30/97 01:27 Page:241

   7098  1 000370   200006 630500                    EPPR0   CG$,,AUTO
         1 000371   000017 631400 xsym               EPPR1   B_VECTNIL+15
         1 000372   000000 701000 xent               TSX1    KQT$UBT
         1 000373   000000 011000                    NOP     0

     1563     7099    2         RETURN;

   7099  1 000374   200020 221300                    LDX1  ! FPT$+6,,AUTO
         1 000375   000001 702211                    TSX2  ! 1,X1

     1564     7100    2   END ABTRD;
     1565     7101        /****************************************************************
     1566     7102        *****************************************************************/
     1567     7103        /*D* NAME:    FLUSHC
     1568     7104             PURPOSE: To flush the queue of messages bound for STA$ if
     1569     7105                           the FPT says FLUSH.
     1570     7106        */
     1571     7107    1   FLUSHC: PROC;

   7107  1 000376   200020 741300       FLUSHC       STX1  ! FPT$+6,,AUTO

     1572     7108        /**/
     1573     7109    2         IF FPT$ = ADDR(NIL) THEN RETURN;

   7109  1 000377   200012 236100                    LDQ     FPT$,,AUTO
         1 000400   000001 116000 xsym               CMPQ    B_VECTNIL+1
         1 000401   000403 601000 1                  TNZ     s:7110

   7109  1 000402   000001 702211                    TSX2  ! 1,X1

     1574     7110    2         IF NOT FPT$->FPT$ACTIVATE.FLUSH THEN RETURN;

   7110  1 000403   200012 470500                    LDP0    FPT$,,AUTO
         1 000404   000002 236100                    LDQ     2,,PR0
         1 000405   200000 316003                    CANQ    65536,DU
         1 000406   000410 601000 1                  TNZ     s:7112
PL6.E3A0      #002=KQC$ACTSTA File=KQC$CTL.:E05TSI                               WED 07/30/97 01:27 Page:242

   7110  1 000407   000001 702211                    TSX2  ! 1,X1

     1575     7111              %LOCK (G=STA$->KQ$STA.GATE);

   7112  1 000410   200011 236100                    LDQ     STA$,,AUTO
         1 000411   000016 036003                    ADLQ    14,DU
         1 000412   200024 756100                    STQ     PEND+2,,AUTO
         1 000413   200024 630500                    EPPR0   PEND+2,,AUTO
         1 000414   000017 631400 xsym               EPPR1   B_VECTNIL+15
         1 000415   000000 701000 xent               TSX1    HFC$LOCK
         1 000416   000000 011000                    NOP     0

     1576     7114    2         CALL KQL$DELMLH (CG$->KQ$CG,ADDR(STA$->KQ$STA.MLH));

   7114  1 000417   200011 236100                    LDQ     STA$,,AUTO
         1 000420   000034 036003                    ADLQ    28,DU
         1 000421   200024 756100                    STQ     PEND+2,,AUTO
         1 000422   200024 630500                    EPPR0   PEND+2,,AUTO
         1 000423   200027 450500                    STP0    PEND+5,,AUTO
         1 000424   200006 236100                    LDQ     CG$,,AUTO
         1 000425   200026 756100                    STQ     PEND+4,,AUTO
         1 000426   200026 630500                    EPPR0   PEND+4,,AUTO
         1 000427   000020 631400 xsym               EPPR1   B_VECTNIL+16
         1 000430   000000 701000 xent               TSX1    KQL$DELMLH
         1 000431   000000 011000                    NOP     0

     1577     7115              %UNLOCK (G=STA$->KQ$STA.GATE);

   7116  1 000432   200011 236100                    LDQ     STA$,,AUTO
         1 000433   000016 036003                    ADLQ    14,DU
         1 000434   200024 756100                    STQ     PEND+2,,AUTO
         1 000435   200024 630500                    EPPR0   PEND+2,,AUTO
         1 000436   000017 631400 xsym               EPPR1   B_VECTNIL+15
         1 000437   000000 701000 xent               TSX1    HFC$UNLOCK
         1 000440   000000 011000                    NOP     0

PL6.E3A0      #002=KQC$ACTSTA File=KQC$CTL.:E05TSI                               WED 07/30/97 01:27 Page:243
     1578     7118    2         RETURN;

   7118  1 000441   200020 221300                    LDX1  ! FPT$+6,,AUTO
         1 000442   000001 702211                    TSX2  ! 1,X1

     1579     7119    2   END FLUSHC;
     1580     7120        /****************************************************************
     1581     7121        *****************************************************************/
     1582     7122        /*D* NAME:         DACT
     1583     7123             PURPOSE:      To deactivate a station
     1584     7124             INPUT:        See KQC$ACTSTA
     1585     7125             DESCRIPTION:  STA$, LDCT$ point to the station, FPT$ as for ACT.
     1586     7126                           Note LDCT$ may be NIL (i.e. station may not be
     1587     7127                           connected).
     1588     7128
     1589     7129                           For DCBs, ACTIVE is reset, we call ABTRDP with
     1590     7130                           DACT TYC, and then do FLUSH if required.
     1591     7131                           For TERMs, we call KCD$DACTRM to deactivate it,
     1592     7132                           and KQG$DACT to clean up the pending GET, and
     1593     7133                           then FLUSH if required.
     1594     7134        */
     1595     7135    1   DACT: PROC;

   7135  1 000443   200016 741300       DACT         STX1  ! FPT$+4,,AUTO

     1596     7136    2         IF LDCT$ ~= ADDR(NIL) THEN

   7136  1 000444   200007 236100                    LDQ     LDCT$,,AUTO
         1 000445   000001 116000 xsym               CMPQ    B_VECTNIL+1
         1 000446   000554 600000 1                  TZE     s:7170

     1597     7137    3           DO;

     1598     7138    3           IF LDCT$->NK$LDCT.RESCOD = NK_CGDCB THEN

   7138  1 000447   200007 470500                    LDP0    LDCT$,,AUTO
         1 000450   000006 236100                    LDQ     6,,PR0
PL6.E3A0      #002=KQC$ACTSTA File=KQC$CTL.:E05TSI                               WED 07/30/97 01:27 Page:244
         1 000451   000017 376007                    ANQ     15,DL
         1 000452   000004 116007                    CMPQ    4,DL
         1 000453   000535 601000 1                  TNZ     s:7163

     1599     7139    4             DO;

     1600     7140                  %LOCK (G=STA$->KQ$STA.GATE);

   7141  1 000454   200011 236100                    LDQ     STA$,,AUTO
         1 000455   000016 036003                    ADLQ    14,DU
         1 000456   200024 756100                    STQ     PEND+2,,AUTO
         1 000457   200024 630500                    EPPR0   PEND+2,,AUTO
         1 000460   000017 631400 xsym               EPPR1   B_VECTNIL+15
         1 000461   000000 701000 xent               TSX1    HFC$LOCK
         1 000462   000000 011000                    NOP     0

     1601     7143    4             STA$->KQ$STA.ACTTYC='0'B;

   7143  1 000463   200011 470500                    LDP0    STA$,,AUTO
         1 000464   000013 450100                    STZ     11,,PR0

     1602     7144    4             STA$->KQ$STA.ABTET='0'B;

   7144  1 000465   000000 236000 2                  LDQ     0
         1 000466   000020 356100                    ANSQ    16,,PR0

     1603     7145    4             LDCT$->NK$LDCT.LKFLG.ACTIVE='0'B;

   7145  1 000467   200007 471500                    LDP1    LDCT$,,AUTO
         1 000470   000005 236000 2                  LDQ     5
         1 000471   100011 356100                    ANSQ    9,,PR1

     1604     7146    4             IF STA$->KQ$STA.OPNBLKED THEN

   7146  1 000472   000023 236100                    LDQ     19,,PR0
         1 000473   020000 316007                    CANQ    8192,DL
         1 000474   000521 600000 1                  TZE     s:7158
PL6.E3A0      #002=KQC$ACTSTA File=KQC$CTL.:E05TSI                               WED 07/30/97 01:27 Page:245

     1605     7147    5               DO;

     1606     7148    5               STA$->KQ$STA.OPNBLKED='0'B;

   7148  1 000475   000001 236000 2                  LDQ     1
         1 000476   000023 356100                    ANSQ    19,,PR0

     1607     7149    5               STA$->KQ$STA.OPNREJ='1'B;

   7149  1 000477   010000 236007                    LDQ     4096,DL
         1 000500   000023 256100                    ORSQ    19,,PR0

     1608     7150                    %UNLOCK (G=STA$->KQ$STA.GATE);

   7151  1 000501   200011 236100                    LDQ     STA$,,AUTO
         1 000502   000016 036003                    ADLQ    14,DU
         1 000503   200024 756100                    STQ     PEND+2,,AUTO
         1 000504   200024 630500                    EPPR0   PEND+2,,AUTO
         1 000505   000017 631400 xsym               EPPR1   B_VECTNIL+15
         1 000506   000000 701000 xent               TSX1    HFC$UNLOCK
         1 000507   000000 011000                    NOP     0

     1609     7153    5               CALL SSR$RUE (%SS_UQA,STA$->KQ$STA.USR#);

   7153  1 000510   200011 236100                    LDQ     STA$,,AUTO
         1 000511   000003 036000 2                  ADLQ    3
         1 000512   000004 235000 2                  LDA     4
         1 000513   200024 757100                    STAQ    PEND+2,,AUTO
         1 000514   200024 630500                    EPPR0   PEND+2,,AUTO
         1 000515   000020 631400 xsym               EPPR1   B_VECTNIL+16
         1 000516   000000 701000 xent               TSX1    SSR$RUE
         1 000517   000000 011000                    NOP     0

     1610     7154    5               END;

   7154  1 000520   000530 710000 1                  TRA     s:7161
PL6.E3A0      #002=KQC$ACTSTA File=KQC$CTL.:E05TSI                               WED 07/30/97 01:27 Page:246

     1611     7155    4             ELSE
     1612     7156    5               DO;

     1613     7157                    %UNLOCK (G=STA$->KQ$STA.GATE);

   7158  1 000521   200011 236100                    LDQ     STA$,,AUTO
         1 000522   000016 036003                    ADLQ    14,DU
         1 000523   200024 756100                    STQ     PEND+2,,AUTO
         1 000524   200024 630500                    EPPR0   PEND+2,,AUTO
         1 000525   000017 631400 xsym               EPPR1   B_VECTNIL+15
         1 000526   000000 701000 xent               TSX1    HFC$UNLOCK
         1 000527   000000 011000                    NOP     0

     1614     7160    5               END;

     1615     7161    4             CALL ABTRDP (%TYC_DACT);

   7161  1 000530   000006 236000 2                  LDQ     6
         1 000531   200021 756100                    STQ     @ABTTYC,,AUTO
         1 000532   000310 701000 1                  TSX1    ABTRDP
         1 000533   000000 011000                    NOP     0

     1616     7162    4             END;

   7162  1 000534   000550 710000 1                  TRA     s:7168

     1617     7163    3           ELSE IF LDCT$->NK$LDCT.LKFLG.ACTIVE THEN

   7163  1 000535   000011 236100                    LDQ     9,,PR0
         1 000536   000040 316003                    CANQ    32,DU
         1 000537   000550 600000 1                  TZE     s:7168

     1618     7164    4              DO;

     1619     7165    4              CALL KCD$DACTRM (LDCT$->NK$LDCT);

PL6.E3A0      #002=KQC$ACTSTA File=KQC$CTL.:E05TSI                               WED 07/30/97 01:27 Page:247
   7165  1 000540   200007 630500                    EPPR0   LDCT$,,AUTO
         1 000541   000017 631400 xsym               EPPR1   B_VECTNIL+15
         1 000542   000000 701000 xent               TSX1    KCD$DACTRM
         1 000543   000000 011000                    NOP     0

     1620     7166    4              CALL KQG$DACT (LDCT$->NK$LDCT);

   7166  1 000544   200007 630500                    EPPR0   LDCT$,,AUTO
         1 000545   000017 631400 xsym               EPPR1   B_VECTNIL+15
         1 000546   000000 701000 xent               TSX1    KQG$DACT
         1 000547   000000 011000                    NOP     0

     1621     7167    4              END;

     1622     7168    3           CALL KQT$VALREADS (CG$->KQ$CG);

   7168  1 000550   200006 630500                    EPPR0   CG$,,AUTO
         1 000551   000017 631400 xsym               EPPR1   B_VECTNIL+15
         1 000552   000000 701000 xent               TSX1    KQT$VALREADS
         1 000553   000000 011000                    NOP     0

     1623     7169    3           END;

     1624     7170    2         CALL FLUSHC;

   7170  1 000554   000376 701000 1                  TSX1    FLUSHC
         1 000555   000000 011000                    NOP     0

     1625     7171    2         RETURN;

   7171  1 000556   200016 221300                    LDX1  ! FPT$+4,,AUTO
         1 000557   000001 702211                    TSX2  ! 1,X1

     1626     7172    2   END DACT;
     1627     7173        /****************************************************************
     1628     7174        *****************************************************************/
     1629     7175        /*D* NAME:         DISC
PL6.E3A0      #002=KQC$ACTSTA File=KQC$CTL.:E05TSI                               WED 07/30/97 01:27 Page:248
     1630     7176             PURPOSE:      To deactivate-disconnect a station
     1631     7177             INPUT:        See KQC$ACTSTA
     1632     7178             DESCRIPTION:  Calls DACT, then sends FEP msg if remote TERM;
     1633     7179                           ALTRETs if local TERM; does zip else for DCB.
     1634     7180        */
     1635     7181    1   DISC: PROC ALTRET;

   7181  1 000560   200014 741300       DISC         STX1  ! FPT$+2,,AUTO

     1636     7182    2         IF SAVLDCT$~=ADDR(NIL)

   7182  1 000561   200010 236100                    LDQ     SAVLDCT$,,AUTO
         1 000562   000001 116000 xsym               CMPQ    B_VECTNIL+1
         1 000563   000570 600000 1                  TZE     s:7184

     1637     7183    2         THEN CALL KCD$DACDSC(SAVLDCT$->NK$LDCT);

   7183  1 000564   200010 630500                    EPPR0   SAVLDCT$,,AUTO
         1 000565   000017 631400 xsym               EPPR1   B_VECTNIL+15
         1 000566   000000 701000 xent               TSX1    KCD$DACDSC
         1 000567   000000 011000                    NOP     0

     1638     7184    2         IF LDCT$ ~= ADDR(NIL) THEN

   7184  1 000570   200007 236100                    LDQ     LDCT$,,AUTO
         1 000571   000001 116000 xsym               CMPQ    B_VECTNIL+1
         1 000572   000623 600000 1                  TZE     s:7199

     1639     7185    3           DO;

     1640     7186    3           IF LDCT$->NK$LDCT.RESCOD = NK_CGDCB THEN

   7186  1 000573   200007 470500                    LDP0    LDCT$,,AUTO
         1 000574   000006 236100                    LDQ     6,,PR0
         1 000575   000017 376007                    ANQ     15,DL
         1 000576   000004 116007                    CMPQ    4,DL
         1 000577   000604 601000 1                  TNZ     s:7191
PL6.E3A0      #002=KQC$ACTSTA File=KQC$CTL.:E05TSI                               WED 07/30/97 01:27 Page:249

     1641     7187    4             DO;

     1642     7188    4             CALL DACT;

   7188  1 000600   000443 701000 1                  TSX1    DACT
         1 000601   000000 011000                    NOP     0

     1643     7189    4             RETURN;

   7189  1 000602   200014 221300                    LDX1  ! FPT$+2,,AUTO
         1 000603   000001 702211                    TSX2  ! 1,X1

     1644     7190    4             END;
     1645     7191    3           IF LDCT$->NK$LDCT.RLCID.NODE = 0 THEN

   7191  1 000604   000015 236100                    LDQ     13,,PR0
         1 000605   777000 316003                    CANQ    -512,DU
         1 000606   000613 601000 1                  TNZ     s:7196

     1646     7192    4             DO;

     1647     7193    4             CALL DACT;

   7193  1 000607   000443 701000 1                  TSX1    DACT
         1 000610   000000 011000                    NOP     0

     1648     7194    4             ALTRETURN;

   7194  1 000611   200014 221300                    LDX1  ! FPT$+2,,AUTO
         1 000612   000000 702211                    TSX2  ! 0,X1

     1649     7195    4             END;
     1650     7196    3           CALL KCD$DACDSC (LDCT$->NK$LDCT);

   7196  1 000613   200007 630500                    EPPR0   LDCT$,,AUTO
         1 000614   000017 631400 xsym               EPPR1   B_VECTNIL+15
PL6.E3A0      #002=KQC$ACTSTA File=KQC$CTL.:E05TSI                               WED 07/30/97 01:27 Page:250
         1 000615   000000 701000 xent               TSX1    KCD$DACDSC
         1 000616   000000 011000                    NOP     0

     1651     7197    3           CALL KQT$VALREADS (CG$->KQ$CG);

   7197  1 000617   200006 630500                    EPPR0   CG$,,AUTO
         1 000620   000017 631400 xsym               EPPR1   B_VECTNIL+15
         1 000621   000000 701000 xent               TSX1    KQT$VALREADS
         1 000622   000000 011000                    NOP     0

     1652     7198    3           END;

     1653     7199    2         CALL FLUSHC;

   7199  1 000623   000376 701000 1                  TSX1    FLUSHC
         1 000624   000000 011000                    NOP     0

     1654     7200    2         RETURN;

   7200  1 000625   200014 221300                    LDX1  ! FPT$+2,,AUTO
         1 000626   000001 702211                    TSX2  ! 1,X1

     1655     7201    2   END DISC;
     1656     7202        /****************************************************************
     1657     7203        *****************************************************************/
     1658     7204        /*D* NAME:         CLOSESTA
     1659     7205             PURPOSE:      To 'close' a station
     1660     7206             INPUT:        See KQC$ACTSTA
     1661     7207             DESCRIPTION:  STA$ points to the station.  See *F* for KQC$CLOSESTA.
     1662     7208        */
     1663     7209    1   CLOSESTA: PROC;

   7209  1 000627   200014 741300       CLOSESTA     STX1  ! FPT$+2,,AUTO

     1664     7210    2         IF SAVLDCT$~=ADDR(NIL)

   7210  1 000630   200010 236100                    LDQ     SAVLDCT$,,AUTO
PL6.E3A0      #002=KQC$ACTSTA File=KQC$CTL.:E05TSI                               WED 07/30/97 01:27 Page:251
         1 000631   000001 116000 xsym               CMPQ    B_VECTNIL+1
         1 000632   000637 600000 1                  TZE     s:7212

     1665     7211    2         THEN CALL KCD$RELTRM(SAVLDCT$->NK$LDCT);

   7211  1 000633   200010 630500                    EPPR0   SAVLDCT$,,AUTO
         1 000634   000017 631400 xsym               EPPR1   B_VECTNIL+15
         1 000635   000000 701000 xent               TSX1    KCD$RELTRM
         1 000636   000000 011000                    NOP     0

     1666     7212    2         IF LDCT$ ~= ADDR(NIL) THEN

   7212  1 000637   200007 236100                    LDQ     LDCT$,,AUTO
         1 000640   000001 116000 xsym               CMPQ    B_VECTNIL+1
         1 000641   000704 600000 1                  TZE     s:7229

     1667     7213    3           DO;

     1668     7214    3           IF LDCT$->NK$LDCT.RESCOD = NK_CGDCB THEN CALL DACT;

   7214  1 000642   200007 470500                    LDP0    LDCT$,,AUTO
         1 000643   000006 236100                    LDQ     6,,PR0
         1 000644   000017 376007                    ANQ     15,DL
         1 000645   000004 116007                    CMPQ    4,DL
         1 000646   000652 601000 1                  TNZ     s:7216

   7214  1 000647   000443 701000 1                  TSX1    DACT
         1 000650   000000 011000                    NOP     0
         1 000651   000704 710000 1                  TRA     s:7229

     1669     7215    3           ELSE
     1670     7216    4            IF LDCT$->NK$LDCT.RESCOD = NK_OSISTA THEN DO;

   7216  1 000652   000015 116007                    CMPQ    13,DL
         1 000653   000674 601000 1                  TNZ     s:7225

     1671     7217                   /* 'close' of NK_OSISTA means abort GET then disconnect */
PL6.E3A0      #002=KQC$ACTSTA File=KQC$CTL.:E05TSI                               WED 07/30/97 01:27 Page:252
     1672     7218    4              CALL KQG$DACT (LDCT$->NK$LDCT);

   7218  1 000654   200007 630500                    EPPR0   LDCT$,,AUTO
         1 000655   000017 631400 xsym               EPPR1   B_VECTNIL+15
         1 000656   000000 701000 xent               TSX1    KQG$DACT
         1 000657   000000 011000                    NOP     0

     1673     7219    4              CALL KQT$VALREADS (CG$->KQ$CG);

   7219  1 000660   200006 630500                    EPPR0   CG$,,AUTO
         1 000661   000017 631400 xsym               EPPR1   B_VECTNIL+15
         1 000662   000000 701000 xent               TSX1    KQT$VALREADS
         1 000663   000000 011000                    NOP     0

     1674     7220    4              CALL KIS$OSI_DACT (LDCT$->NK$LDCT);  /* releases LDCT */

   7220  1 000664   200007 630500                    EPPR0   LDCT$,,AUTO
         1 000665   000017 631400 xsym               EPPR1   B_VECTNIL+15
         1 000666   000000 701000 xent               TSX1    KIS$OSI_DACT
         1 000667   000000 011000                    NOP     0

     1675     7221    4              CG$->KQ$CG.STATS.NUMTERMS = CG$->KQ$CG.STATS.NUMTERMS - 1;

   7221  1 000670   200006 470500                    LDP0    CG$,,AUTO
         1 000671   000001 336007                    LCQ     1,DL
         1 000672   000174 056100                    ASQ     124,,PR0

     1676     7222    4              END;

   7222  1 000673   000704 710000 1                  TRA     s:7229

     1677     7223    3            ELSE
     1678     7224    4              DO;

     1679     7225    4              CALL KCD$RELTRM (LDCT$->NK$LDCT);

   7225  1 000674   200007 630500                    EPPR0   LDCT$,,AUTO
PL6.E3A0      #002=KQC$ACTSTA File=KQC$CTL.:E05TSI                               WED 07/30/97 01:27 Page:253
         1 000675   000017 631400 xsym               EPPR1   B_VECTNIL+15
         1 000676   000000 701000 xent               TSX1    KCD$RELTRM
         1 000677   000000 011000                    NOP     0

     1680     7226    4              CALL KQT$VALREADS (CG$->KQ$CG);

   7226  1 000700   200006 630500                    EPPR0   CG$,,AUTO
         1 000701   000017 631400 xsym               EPPR1   B_VECTNIL+15
         1 000702   000000 701000 xent               TSX1    KQT$VALREADS
         1 000703   000000 011000                    NOP     0

     1681     7227    4              END;

     1682     7228    3           END;

     1683     7229    2         RETURN;

   7229  1 000704   200014 221300                    LDX1  ! FPT$+2,,AUTO
         1 000705   000001 702211                    TSX2  ! 1,X1

(unnamed)
 Sect OctLoc
   0     000   000020 000000                                                    ....

(unnamed)
 Sect OctLoc
   2     000   775777 777777   777777 757777   000000 000034   000020 400000    ................
   2     004   000002 006000   777737 777777   000000 006000                    ............
     1684     7230    2   END CLOSESTA;
     1685     7231    1   END KQC$ACTSTA;
     1686     7232        %EOD;

PL6.E3A0      #002=KQC$ACTSTA File=KQC$CTL.:E05TSI                               WED 07/30/97 01:27 Page:254
--  Include file information  --

   SS_SCHED_C.:E05TOU  is referenced.
   NK_SUBS.:E05TOU  is referenced.
   KC_DATA_R.:E05TOU  cannot be made into a system file and is referenced.
   N$REQ.:E05TOU  is referenced.
   KC_CP6.:E05TOU  is referenced.
   KC$CP6V_C.:E05TOU  is referenced.
   NK$LDCT.:E05TOU  is referenced.
   CP_6_SUBS.:E05TOU  is referenced.
   KQ_DATA_R.:E05TOU  cannot be made into a system file and is referenced.
   HF_LOCK_C.:E05TOU  cannot be made into a system file and is referenced.
   KQ_MAC_C.:E05TOU  is referenced.
   KQ_SUBS_C.:E05TOU  is referenced.
      No diagnostics issued in procedure KQC$ACTSTA.
PL6.E3A0      #002=KQC$ACTSTA File=KQC$CTL.:E05TSI                               WED 07/30/97 01:27 Page:255

 **** Variables and constants ****

  ****  Auto variables  ****

  ****  Scalars and arrays  ****
OctLoc.c.b A Datatyp(siz) R M Lvl/name                 OctLoc.c.b A Datatyp(siz) R M Lvl/name

    21-0-0/w PTR         r     1 @ABTTYC                    4-0-0/w PTR         r     1 @PARM
     3-0-0/w PTR         r     1 @PARM$                    *0-0-0/w BIT         r     1 ABTTYC
     6-0-0/w PTR         r     1 CG$                       12-0-0/w PTR         r     1 FPT$
     7-0-0/w PTR         r     1 LDCT$                     *0-0-0/w UBIN        r     1 PARM
    *0-0-0/w PTR         r     1 PARM$                     22-0-0/w UBIN        r     1 PEND
    10-0-0/w PTR         r     1 SAVLDCT$                  11-0-0/w PTR         r     1 STA$

  ****  BASED and DCB variables  ****

  ****  Scalars and arrays  ****
OctLoc.c.b A Datatyp(siz) R M Lvl/name                 OctLoc.c.b A Datatyp(siz) R M Lvl/name

     0-0-0/w BIT         r     1 B$$BIT36                   0-0-0/d STRC(288)   r     1 FPT$ACTIVATE
     0-0-0/d STRC(6516)  r     1 KQ$CG                      0-0-0/d STRC(648)   r     1 KQ$RBLK
     0-0-0/d STRC(1296)  r     1 KQ$STA                     0-0-0/d STRC(1080)  r     1 N$REQ
     0-0-0/d STRC(864)   r     1 NK$LDCT


   Procedure KQC$ACTSTA requires 454 words for executable code.
   Procedure KQC$ACTSTA requires 24 words of local(AUTO) storage.
PL6.E3A0      #002=KQC$ACTSTA File=KQC$CTL.:E05TSI                               WED 07/30/97 01:27 Page:256
          *** CROSS REFERENCE LISTING ***
**     DENOTES     IDENTIFIER DEFINITION
<<                 IDENTIFIER'S VALUE SET
>>                 IDENTIFIER'S VALUE USED
<>                 IDENTIFIER SET AND/OR USED
--                 IDENTIFIER REFERENCED
PL6.E3A0      #002=KQC$ACTSTA File=KQC$CTL.:E05TSI                               WED 07/30/97 01:27 Page:257
          MINI XREF LISTING

ABT IN PROCEDURE ABTRD
      7078**LABEL    7069--GOTO
ABTRD
      7063**PROC     7030--CALL
ABTRDP IN PROCEDURE ABTRD
      7076**ENTRY    6970--CALL     7161--CALL
ABTTYC IN PROCEDURE ABTRD
      7065**DCL      7063--PROC     7076--ENTRY    7086>>ASSIGN   7090>>ASSIGN
ACT
      6999**PROC     6909--CALL
ALTRT
      6941**LABEL    6939--CALLALT
B$$BIT36
      6819**DCL      6970<>CALL
CG$
      6826**DCL      5526--IMP-PTR  6975<<ASSIGN   7080>>CALL     7098>>CALL     7114>>CALL     7168>>CALL
      7197>>CALL     7219>>CALL     7221>>ASSIGN   7221>>ASSIGN   7226>>CALL
CLOSESTA
      7209**PROC     6958--CALL
DACT
      7135**PROC     6924--CALL     7188--CALL     7193--CALL     7214--CALL
DISC
      7181**PROC     6939--CALL
FLUSHC
      7107**PROC     7001--CALL     7170--CALL     7199--CALL
FPT$
      6830**DCL      6986<<ASSIGN   7000>>IF       7001>>IF       7005>>IF       7010>>ASSIGN   7023>>IF
      7024>>IF       7026>>ASSIGN   7030>>CALL     7109>>IF       7110>>IF
FPT$ACTIVATE.ABTET
      6815**DCL      7026>>ASSIGN
FPT$ACTIVATE.ABTREAD
      6815**DCL      7024>>IF       7030<>CALL
PL6.E3A0      #002=KQC$ACTSTA File=KQC$CTL.:E05TSI                               WED 07/30/97 01:27 Page:258
FPT$ACTIVATE.DVBYTE
      6814**DCL      7010>>ASSIGN
FPT$ACTIVATE.DVBYTE.REREAD
      6814**DCL      6814--REDEF
FPT$ACTIVATE.FLUSH
      6815**DCL      7001>>IF       7110>>IF
HFC$LOCK
      2892**DCL-ENT  7008--CALL     7020--CALL     7032--CALL     7082--CALL     7112--CALL     7141--CALL
HFC$UNLOCK
      2892**DCL-ENT  7012--CALL     7028--CALL     7043--CALL     7050--CALL     7096--CALL     7116--CALL
      7151--CALL     7158--CALL
KCD$ACTRM
      6837**DCL-ENT  7015--CALL
KCD$DACDSC
      6838**DCL-ENT  7183--CALL     7196--CALL
KCD$DACTRM
      6839**DCL-ENT  7165--CALL
KCD$RELTRM
      6840**DCL-ENT  7211--CALL     7225--CALL
KIS$OSI_DACT
      6848**DCL-ENT  7220--CALL
KQ$CG
      5526**DCL      7080<>CALL     7098<>CALL     7114<>CALL     7168<>CALL     7197<>CALL     7219<>CALL
      7226<>CALL
KQ$CG.AUCTL.DVBYTE.REREAD
      5969**DCL      5970--REDEF
KQ$CG.STATS.NUMTERMS
      6019**DCL      7221<<ASSIGN   7221>>ASSIGN
KQ$RBLK.BUF$
      6762**DCL      6764--REDEF
KQ$RBLK.CNACTD
      6676**DCL      6685--REDEF
KQ$RBLK.DBLKX
      6782**DCL      6786--REDEF
KQ$RBLK.EOFNONE
      6654**DCL      6657--REDEF
PL6.E3A0      #002=KQC$ACTSTA File=KQC$CTL.:E05TSI                               WED 07/30/97 01:27 Page:259
KQ$RBLK.FROMQ
      6660**DCL      6663--REDEF
KQ$RBLK.KEY1R
      6701**DCL      6702--REDEF
KQ$RBLK.KEY2R
      6706**DCL      6707--REDEF
KQ$RBLK.LATCH
      6649**DCL      6651--REDEF
KQ$RBLK.LWRITES$
      6793**DCL      6797--REDEF
KQ$RBLK.STATE
      6646**DCL      7088>>IF
KQ$STA.ABTET
      6382**DCL      7026<<ASSIGN   7037<<ASSIGN   7144<<ASSIGN
KQ$STA.ACTTYC
      6316**DCL      6320--REDEF    7036<<ASSIGN   7086<<ASSIGN   7090<<ASSIGN   7143<<ASSIGN
KQ$STA.CG$
      6303**DCL      6975>>ASSIGN
KQ$STA.DCBLNK$
      6323**DCL      6326--REDEF    6330--REDEF
KQ$STA.DVBYTE
      6415**DCL      7010<<ASSIGN
KQ$STA.EVCNT
      6409**DCL      6412--REDEF
KQ$STA.EVNT
      6375**DCL      6379--REDEF    6382--REDEF
KQ$STA.GATE
      6342**DCL      7008<>CALL     7012<>CALL     7020<>CALL     7028<>CALL     7032<>CALL     7043<>CALL
      7050<>CALL     7082<>CALL     7096<>CALL     7112<>CALL     7116<>CALL     7141<>CALL     7151<>CALL
      7158<>CALL
KQ$STA.IDSC
      6344**DCL      6979>>IF       7084>>IF
KQ$STA.LDCT$
      6305**DCL      6981>>ASSIGN
KQ$STA.MLH
      6532**DCL      7114--CALL
PL6.E3A0      #002=KQC$ACTSTA File=KQC$CTL.:E05TSI                               WED 07/30/97 01:27 Page:260
KQ$STA.OPNBLKED
      6436**DCL      6439--REDEF    7039>>IF       7041<<ASSIGN   7146>>IF       7148<<ASSIGN
KQ$STA.OPNREJ
      6442**DCL      6444--REDEF    7149<<ASSIGN
KQ$STA.RBLK$
      6307**DCL      7087>>IF       7088>>IF
KQ$STA.SAVIDSC
      6463**DCL      6976>>IF
KQ$STA.SAVLDCT$
      6503**DCL      6978>>ASSIGN
KQ$STA.SUCCREAD
      6365**DCL      6369--REDEF
KQ$STA.TCOUNT
      6494**DCL      6500--REDEF
KQ$STA.TERM
      6360**DCL      6982>>IF
KQ$STA.USR#
      6395**DCL      7045<>CALL     7153<>CALL
KQ$STA.VGOT$
      6479**DCL      6483--REDEF    6487--REDEF
KQG$DACT
      6841**DCL-ENT  7166--CALL     7218--CALL
KQL$DELMLH
      6842**DCL-ENT  7114--CALL
KQR$VALIDATE
      6843**DCL-ENT  7091--CALL
KQT$LBT
      6844**DCL-ENT  7080--CALL
KQT$UBT
      6845**DCL-ENT  7098--CALL
KQT$VALREADS
      6846**DCL-ENT  7168--CALL     7197--CALL     7219--CALL     7226--CALL
KQ_IMBLK.DVE.EOMCHAR
      3567**DCL      3569--REDEF
KQ_IMBLK.KEY1
      3493**DCL      3495--REDEF
PL6.E3A0      #002=KQC$ACTSTA File=KQC$CTL.:E05TSI                               WED 07/30/97 01:27 Page:261
KQ_IMBLK.KEY2
      3502**DCL      3520--REDEF
KQ_IMBLK.LNK$
      3467**DCL      3469--REDEF    3475--REDEF    3479--REDEF
KQ_IMBLK.TYC
      3616**DCL      3618--REDEF
KQ_IMBLK.XSP.MREQ$
      3522**DCL      3526--REDEF
KQ_IRBLK.BUF$
      3071**DCL      3073--REDEF
KQ_IRBLK.CNACTD
      2985**DCL      2994--REDEF
KQ_IRBLK.DBLKX
      3091**DCL      3095--REDEF
KQ_IRBLK.EOFNONE
      2963**DCL      2966--REDEF
KQ_IRBLK.FROMQ
      2969**DCL      2972--REDEF
KQ_IRBLK.KEY1R
      3010**DCL      3011--REDEF
KQ_IRBLK.KEY2R
      3015**DCL      3016--REDEF
KQ_IRBLK.LATCH
      2958**DCL      2960--REDEF
KQ_IRBLK.LWRITES$
      3102**DCL      3106--REDEF
KQ_IRBLKT.CNACTD
      3171**DCL      3180--REDEF
KQ_IRBLKT.DBLK$
      3234**DCL      3238--REDEF    3241--REDEF
KQ_IRBLKT.EOFNONE
      3149**DCL      3152--REDEF
KQ_IRBLKT.FROMQ
      3155**DCL      3158--REDEF
KQ_IRBLKT.KEY1R
      3196**DCL      3197--REDEF
PL6.E3A0      #002=KQC$ACTSTA File=KQC$CTL.:E05TSI                               WED 07/30/97 01:27 Page:262
KQ_IRBLKT.KEY2R
      3201**DCL      3202--REDEF
KQ_IRBLKT.LATCH
      3144**DCL      3146--REDEF
LDCT$
      6827**DCL      6979<<ASSIGN   6981<<ASSIGN   6982>>IF       6982>>IF       6984<<ASSIGN   7002>>IF
      7003>>IF       7015>>CALL     7022>>ASSIGN   7091>>CALL     7136>>IF       7138>>IF       7145>>ASSIGN
      7163>>IF       7165>>CALL     7166>>CALL     7184>>IF       7186>>IF       7191>>IF       7196>>CALL
      7212>>IF       7214>>IF       7216>>IF       7218>>CALL     7220>>CALL     7225>>CALL
N$REQ
      5462**DCL      7091<>CALL
N$REQ.BUFADDR
      5471**DCL      5472--REDEF    5472--REDEF
N$REQ.DLA.DRELADDR
      5463**DCL      5463--REDEF
N$REQ.DVE.EOMCHAR
      5500**DCL      5501--REDEF
N$REQ.EAINFO
      5494**DCL      5494--REDEF
N$REQ.EAINFOX
      5494**DCL      5495--REDEF
N$REQ.EVNTINFO
      5495**DCL      5495--REDEF
N$REQ.STATUS
      5476**DCL      5482--REDEF
NK$LDCT
      5420**DCL      7015<>CALL     7165<>CALL     7166<>CALL     7183<>CALL     7196<>CALL     7211<>CALL
      7218<>CALL     7220<>CALL     7225<>CALL
NK$LDCT.DDT$
      5422**DCL      5422--REDEF
NK$LDCT.IOQ$
      5421**DCL      5422--REDEF    7091>>CALL
NK$LDCT.LDCTX
      5423**DCL      5423--REDEF
NK$LDCT.LKFLG.ABORTED
      5435**DCL      5436--REDEF
PL6.E3A0      #002=KQC$ACTSTA File=KQC$CTL.:E05TSI                               WED 07/30/97 01:27 Page:263
NK$LDCT.LKFLG.ACTIVE
      5439**DCL      7022<<ASSIGN   7145<<ASSIGN   7163>>IF
NK$LDCT.RESCOD
      5428**DCL      7003>>IF       7138>>IF       7186>>IF       7214>>IF       7216>>IF
NK$LDCT.RLCID.LDCTX
      5445**DCL      5445--REDEF    6982>>IF
NK$LDCT.RLCID.NODE
      5444**DCL      7191>>IF
NK$LDCT.STA$
      5441**DCL      5442--REDEF
NK$LDCT.SYMB$
      5420**DCL      5420--REDEF    5420--REDEF    5421--REDEF
OPNCHK IN PROCEDURE ACT
      7037**LABEL    7034--GOTO
PARM
      5399**DCL        20--PROC     6921--ENTRY    6936--ENTRY    6967--ENTRY    6970--CALL     6986--ASSIGN
PARM$
      5398**DCL        20--PROC     6921--ENTRY    6936--ENTRY    6955--ENTRY    6967--ENTRY    6974--ASSIGN
PEND IN PROCEDURE ABTRD
      7066**DCL      7068<<ASSIGN   7078<<ASSIGN   7086>>IF
SAVLDCT$
      6828**DCL      6977<<ASSIGN   6978<<ASSIGN   7182>>IF       7183>>CALL     7210>>IF       7211>>CALL
SETUP
      6973**PROC     6908--CALL     6923--CALL     6938--CALL     6957--CALL     6969--CALL
SSR$RUE
      6847**DCL-ENT  7045--CALL     7153--CALL
STA$
      6829**DCL      6264--IMP-PTR  6974<<ASSIGN   6975>>ASSIGN   6976>>IF       6978>>ASSIGN   6979>>IF
      6981>>ASSIGN   6982>>IF       7008>>CALL     7010>>ASSIGN   7012>>CALL     7020>>CALL     7026>>ASSIGN
      7028>>CALL     7032>>CALL     7036>>ASSIGN   7037>>ASSIGN   7039>>IF       7041>>ASSIGN   7043>>CALL
      7045>>CALL     7050>>CALL     7082>>CALL     7084>>IF       7086>>ASSIGN   7087>>IF       7088>>IF
      7090>>ASSIGN   7096>>CALL     7112>>CALL     7114>>CALL     7116>>CALL     7141>>CALL     7143>>ASSIGN
      7144>>ASSIGN   7146>>IF       7148>>ASSIGN   7149>>ASSIGN   7151>>CALL     7153>>CALL     7158>>CALL

PL6.E3A0      #003=KQC$TELLJ File=KQC$CTL.:E05TSI                                WED 07/30/97 01:27 Page:264
     1687        1        /*T***********************************************************/
     1688        2        /*T*                                                         */
     1689        3        /*T* Copyright (c) Bull HN Information Systems Inc., 1997    */
     1690        4        /*T*                                                         */
     1691        5        /*T***********************************************************/
     1692        6        /**/
     1693        7        /*F* NAME:         KQC$TELLJ
     1694        8             PURPOSE:      To tell the system JOURNAL GHOST about a
     1695        9                           change in a comgroup's journalling parameters.
     1696       10             CALL:         KQC$TELLJ (KQ$CG) ALTRET(DIDNTWORK)
     1697       11             ENVIRONMENT:  User
     1698       12             INPUT:        B$JIT.DCB$ points to a DCB open to the
     1699       13                           comgroup.
     1700       14             DESCRIPTION:  If the comgroup is being journaled by the
     1701       15                           journal ghost, then he is told via the CSCG
     1702       16                           that something has changed.  We await
     1703       17                           his response, and ALTRET with JIT.ERR set
     1704       18                           if anything has gone wrong.
     1705       19        */
     1706       20        /**/
     1707       21        KQC$TELLJ: PROC (CFU$) ALTRET;
     1708       22        /**/
     1709       23
     1710       24
     1711       25
     1712       26        /**/
     1713       27        /* INCLUDES */
     1714       28        /**/
     1715       29        %INCLUDE KQ_SUBS_C;
     1716      329        %INCLUDE KQ_MAC_C;
     1717     2879        %INCLUDE HF_LOCK_C;
     1718     2893        %INCLUDE KQ_DATA_R;
     1719     3725        %INCLUDE CP_6_SUBS;
     1720     4265        %INCLUDE KC$CP6V_C;
     1721     4385        %INCLUDE B$JIT_C;
     1722     4699        %INCLUDE KC_CP6;
     1723     5259        %INCLUDE KI$CP6V_C;
PL6.E3A0      #003=KQC$TELLJ File=KQC$CTL.:E05TSI                                WED 07/30/97 01:27 Page:265
     1724     5698        %INCLUDE KI_CP6;
     1725     6794        %INCLUDE KC$CGBLK;
     1726     6842        %INCLUDE F$DCB;
     1727     6891        %INCLUDE KC_DATA_R;
     1728     6904        %INCLUDE JG_EVID_C;
     1729     7129        %INCLUDE FJM_MACROS_C;
     1730     7268
     1731     7269
     1732     7270
     1733     7271        /**/
     1734     7272        /* PARAMETERS */
     1735     7273        /**/
     1736     7274    1   DCL CFU$ PTR;
     1737     7275
     1738     7276
     1739     7277
     1740     7278        /**/
     1741     7279        /* BASED STRUCTURES */
     1742     7280        /**/
     1743     7281        %B$JIT0;
     1744     7370        %U$JIT1X;
     1745     7373        %M$JIT2X;
     1746     7376        %F$JIT3;
     1747     7381        %A$JIT6X;
     1748     7384
     1749     7385
     1750     7386
     1751     7387        /**/
     1752     7388        /* AUTO */
     1753     7389        /**/
     1754     7390    1   DCL I UBIN;
     1755     7391    1   DCL JDCB$ PTR;
     1756     7392        %FJ$OPNANSWR (STCLASS=AUTO);
     1757     7402        %FJ$CITE (STCLASS=AUTO,TYP=JRNL);
     1758     7475
     1759     7476
     1760     7477
PL6.E3A0      #003=KQC$TELLJ File=KQC$CTL.:E05TSI                                WED 07/30/97 01:27 Page:266
     1761     7478        /**/
     1762     7479        /* CONSTANT */
     1763     7480        /**/
     1764     7481
     1765     7482        /**/
     1766     7483        /* SYMREFS */
     1767     7484        /**/
     1768     7485    1   DCL B$JIT$ PTR SYMREF;
     1769     7486    1   DCL J_JAYS CHAR(8) SYMREF READONLY;
     1770     7487
     1771     7488
     1772     7489
     1773     7490        /**/
     1774     7491        /* ENTREFS */
     1775     7492        /**/
     1776     7493    1   DCL KUR$RESUS     ENTRY(5);
     1777     7494
     1778     7495
     1779     7496
     1780     7497        /**/
     1781     7498        /* SUBS */
     1782     7499        /**/
     1783     7500        %EQU_CG;
     1784     7548        %EJECT;
PL6.E3A0      #003=KQC$TELLJ File=KQC$CTL.:E05TSI                                WED 07/30/97 01:27 Page:267
     1785     7549        /**/
     1786     7550    1         JDCB$=B$JIT$->B$JIT.DCB$;
     1787     7551    1         IF JDCB$->F$DCB.GHSTACS = %JRNLOPN# THEN
     1788     7552    2           DO;
     1789     7553    2           FJ$CITE.CODE=%FJ_CGOPN#;
     1790     7554    2           FJ$CITE.P$=CFU$;
     1791     7555    2           FJ$CITE.DCB$=JDCB$;
     1792     7556    2           FJ$CITE.USER#=B$JIT$->B$JIT.USER;
     1793     7557    2           FJ$CITE.ACCN=B$JIT$->B$JIT.ACCN;
     1794     7558    2           FJ$CITE.FACCN=B$JIT$->B$JIT.FACCN;
     1795     7559    2           FJ$CITE.UNAME=B$JIT$->B$JIT.UNAME;
     1796     7560    2           FJ$CITE.PRIV=B$JIT$->B$JIT.PRIV.ACTIVE;
     1797     7561    2           I=LENGTHC(FJ$OPNANSWR);
     1798     7562    2           CALL KUR$RESUS (FJ$CITE,LENGTHC(FJ$CITE),J_JAYS,FJ$OPNANSWR,I);
     1799     7563    2           IF FJ$OPNANSWR.ERR ~= '0'B THEN
     1800     7564    3             DO;
     1801     7565    3             B$JIT$->B$JIT.ERR=FJ$OPNANSWR.ERR;
     1802     7566    3             ALTRETURN;
     1803     7567    3             END;
     1804     7568    2           END;
     1805     7569    1         RETURN;
     1806     7570    1   END KQC$TELLJ;

PL6.E3A0      #003=KQC$TELLJ File=KQC$CTL.:E05TSI                                WED 07/30/97 01:27 Page:268
--  Include file information  --

   FJM_MACROS_C.:E05TOU  is referenced.
   JG_EVID_C.:E05TOU  is referenced.
   KC_DATA_R.:E05TOU  cannot be made into a system file and is referenced.
   F$DCB.:E05TOU  cannot be made into a system file and is referenced.
   KC$CGBLK.:E05TOU  is referenced.
   KI_CP6.:E05TOU  is referenced.
   KI$CP6V_C.:E05TOU  is referenced.
   KC_CP6.:E05TOU  is referenced.
   B$JIT_C.:E05TOU  is referenced.
   KC$CP6V_C.:E05TOU  is referenced.
   CP_6_SUBS.:E05TOU  is referenced.
   KQ_DATA_R.:E05TOU  cannot be made into a system file and is referenced.
   HF_LOCK_C.:E05TOU  cannot be made into a system file and is referenced.
   KQ_MAC_C.:E05TOU  is referenced.
   KQ_SUBS_C.:E05TOU  is referenced.
      No diagnostics issued in procedure KQC$TELLJ.

   Procedure KQC$TELLJ requires 54 words for executable code.
   Procedure KQC$TELLJ requires 30 words of local(AUTO) storage.

    No errors detected in file KQC$CTL.:E05TSI    .

PL6.E3A0      #003=KQC$TELLJ File=KQC$CTL.:E05TSI                                WED 07/30/97 01:27 Page:269

 Object Unit name= KQC$TELLJ                                  File name= KQC$CTL.:E05TOU
 UTS= JUL 30 '97 01:27:59.52 WED                              Compiler= PL-6/E31         Sev=      00
 SharedLib= :SHARED_SYSTEM                                    Alt SharedLib=


    ****  Control sections  ****

 Sect   Type Bound  Init  Size OctSiz  Section name(segment info)
    0   Proc  even  none    54     66  KQC$TELLJ
    1  RoData even  none     3      3  KQC$TELLJ

    ****  Entry defs  ****

                              Check   Calling
                             calling  sequence
  Sect OctLoc Primary Altret sequence   type   Parms  Name
     0      0   yes    yes     yes      Std        1  KQC$TELLJ

  ****  Entry refs  ****

         Check        Calling
        calling       sequence
Altret sequence SRef   type   Args  Name
         yes           Std       5 KUR$RESUS
                       nStd      0 X66_AUTO_1
                       Std       0 B_CONSPOOL_D
                       nStd      0 X66_AALT
                       nStd      0 X66_ARET

  ****  Data refs  ****

  Flags:  r = read only, s = secondary
Flgs Name                             Flgs Name                             Flgs Name
     B$JIT$                           r    J_JAYS                                B_VECTNIL
PL6.E3A0      #003=KQC$TELLJ File=KQC$CTL.:E05TSI                                WED 07/30/97 01:27 Page:270

  ****  Segment refs  ****

  Flags:  r = read only, s = secondary
Flgs Name                             Flgs Name                             Flgs Name
     ISSID
PL6.E3A0      #003=KQC$TELLJ File=KQC$CTL.:E05TSI                                WED 07/30/97 01:27 Page:271


     1687        1        /*T***********************************************************/
     1688        2        /*T*                                                         */
     1689        3        /*T* Copyright (c) Bull HN Information Systems Inc., 1997    */
     1690        4        /*T*                                                         */
     1691        5        /*T***********************************************************/
     1692        6        /**/
     1693        7        /*F* NAME:         KQC$TELLJ
     1694        8             PURPOSE:      To tell the system JOURNAL GHOST about a
     1695        9                           change in a comgroup's journalling parameters.
     1696       10             CALL:         KQC$TELLJ (KQ$CG) ALTRET(DIDNTWORK)
     1697       11             ENVIRONMENT:  User
     1698       12             INPUT:        B$JIT.DCB$ points to a DCB open to the
     1699       13                           comgroup.
     1700       14             DESCRIPTION:  If the comgroup is being journaled by the
     1701       15                           journal ghost, then he is told via the CSCG
     1702       16                           that something has changed.  We await
     1703       17                           his response, and ALTRET with JIT.ERR set
     1704       18                           if anything has gone wrong.
     1705       19        */
     1706       20        /**/
     1707       21        KQC$TELLJ: PROC (CFU$) ALTRET;

     21  0 000000   000000 700200 xent  KQC$TELLJ    TSX0  ! X66_AUTO_1
         0 000001   000036 000001                    ZERO    30,1

     1708       22        /**/
     1709       23
     1710       24
     1711       25
     1712       26        /**/
     1713       27        /* INCLUDES */
     1714       28        /**/
     1715       29        %INCLUDE KQ_SUBS_C;
     1716      329        %INCLUDE KQ_MAC_C;
     1717     2879        %INCLUDE HF_LOCK_C;
     1718     2893        %INCLUDE KQ_DATA_R;
PL6.E3A0      #003=KQC$TELLJ File=KQC$CTL.:E05TSI                                WED 07/30/97 01:27 Page:272
     1719     3725        %INCLUDE CP_6_SUBS;
     1720     4265        %INCLUDE KC$CP6V_C;
     1721     4385        %INCLUDE B$JIT_C;
     1722     4699        %INCLUDE KC_CP6;
     1723     5259        %INCLUDE KI$CP6V_C;
     1724     5698        %INCLUDE KI_CP6;
     1725     6794        %INCLUDE KC$CGBLK;
     1726     6842        %INCLUDE F$DCB;
     1727     6891        %INCLUDE KC_DATA_R;
     1728     6904        %INCLUDE JG_EVID_C;
     1729     7129        %INCLUDE FJM_MACROS_C;
     1730     7268
     1731     7269
     1732     7270
     1733     7271        /**/
     1734     7272        /* PARAMETERS */
     1735     7273        /**/
     1736     7274    1   DCL CFU$ PTR;
     1737     7275
     1738     7276
     1739     7277
     1740     7278        /**/
     1741     7279        /* BASED STRUCTURES */
     1742     7280        /**/
     1743     7281        %B$JIT0;
     1744     7370        %U$JIT1X;
     1745     7373        %M$JIT2X;
     1746     7376        %F$JIT3;
     1747     7381        %A$JIT6X;
     1748     7384
     1749     7385
     1750     7386
     1751     7387        /**/
     1752     7388        /* AUTO */
     1753     7389        /**/
     1754     7390    1   DCL I UBIN;
     1755     7391    1   DCL JDCB$ PTR;
PL6.E3A0      #003=KQC$TELLJ File=KQC$CTL.:E05TSI                                WED 07/30/97 01:27 Page:273
     1756     7392        %FJ$OPNANSWR (STCLASS=AUTO);
     1757     7402        %FJ$CITE (STCLASS=AUTO,TYP=JRNL);
     1758     7475
     1759     7476
     1760     7477
     1761     7478        /**/
     1762     7479        /* CONSTANT */
     1763     7480        /**/
     1764     7481
     1765     7482        /**/
     1766     7483        /* SYMREFS */
     1767     7484        /**/
     1768     7485    1   DCL B$JIT$ PTR SYMREF;
     1769     7486    1   DCL J_JAYS CHAR(8) SYMREF READONLY;
     1770     7487
     1771     7488
     1772     7489
     1773     7490        /**/
     1774     7491        /* ENTREFS */
     1775     7492        /**/
     1776     7493    1   DCL KUR$RESUS     ENTRY(5);
     1777     7494
     1778     7495
     1779     7496
     1780     7497        /**/
     1781     7498        /* SUBS */
     1782     7499        /**/
     1783     7500        %EQU_CG;
     1784     7548        %EJECT;
PL6.E3A0      #003=KQC$TELLJ File=KQC$CTL.:E05TSI                                WED 07/30/97 01:27 Page:274
     1785     7549        /**/
     1786     7550    1         JDCB$=B$JIT$->B$JIT.DCB$;

   7550  0 000002   000000 470400 xsym               LDP0    B$JIT$
         0 000003   000232 236100                    LDQ     154,,PR0
         0 000004   200005 756100                    STQ     JDCB$,,AUTO

     1787     7551    1         IF JDCB$->F$DCB.GHSTACS = %JRNLOPN# THEN

   7551  0 000005   200005 471500                    LDP1    JDCB$,,AUTO
         0 000006   100052 236100                    LDQ     42,,PR1
         0 000007   000017 376003                    ANQ     15,DU
         0 000010   000002 116003                    CMPQ    2,DU
         0 000011   000065 601000 0                  TNZ     s:7569

     1788     7552    2           DO;

     1789     7553    2           FJ$CITE.CODE=%FJ_CGOPN#;

   7553  0 000012   000000 220003                    LDX0    0,DU
         0 000013   200015 740100                    STX0    FJ$CITE,,AUTO

     1790     7554    2           FJ$CITE.P$=CFU$;

   7554  0 000014   200003 473500                    LDP3    @CFU$,,AUTO
         0 000015   300000 236100                    LDQ     0,,PR3
         0 000016   200016 756100                    STQ     FJ$CITE+1,,AUTO

     1791     7555    2           FJ$CITE.DCB$=JDCB$;

   7555  0 000017   200005 236100                    LDQ     JDCB$,,AUTO
         0 000020   200017 756100                    STQ     FJ$CITE+2,,AUTO

     1792     7556    2           FJ$CITE.USER#=B$JIT$->B$JIT.USER;

   7556  0 000021   000000 221100                    LDX1    0,,PR0
         0 000022   000777 361003                    ANX1    511,DU
PL6.E3A0      #003=KQC$TELLJ File=KQC$CTL.:E05TSI                                WED 07/30/97 01:27 Page:275
         0 000023   200015 441100                    SXL1    FJ$CITE,,AUTO

     1793     7557    2           FJ$CITE.ACCN=B$JIT$->B$JIT.ACCN;

   7557  0 000024   040100 100500                    MLR     fill='040'O
         0 000025   000001 000010                    ADSC9   1,,PR0                   cn=0,n=8
         0 000026   200020 000010                    ADSC9   FJ$CITE+3,,AUTO          cn=0,n=8

     1794     7558    2           FJ$CITE.FACCN=B$JIT$->B$JIT.FACCN;

   7558  0 000027   000006 237100                    LDAQ    6,,PR0
         0 000030   200025 755100                    STA     FJ$CITE+8,,AUTO
         0 000031   200026 756100                    STQ     FJ$CITE+9,,AUTO

     1795     7559    2           FJ$CITE.UNAME=B$JIT$->B$JIT.UNAME;

   7559  0 000032   040100 100500                    MLR     fill='040'O
         0 000033   000003 000014                    ADSC9   3,,PR0                   cn=0,n=12
         0 000034   200022 000014                    ADSC9   FJ$CITE+5,,AUTO          cn=0,n=12

     1796     7560    2           FJ$CITE.PRIV=B$JIT$->B$JIT.PRIV.ACTIVE;

   7560  0 000035   000013 236100                    LDQ     11,,PR0
         0 000036   200027 756100                    STQ     FJ$CITE+10,,AUTO

     1797     7561    2           I=LENGTHC(FJ$OPNANSWR);

   7561  0 000037   000034 235007                    LDA     28,DL
         0 000040   200004 755100                    STA     I,,AUTO

     1798     7562    2           CALL KUR$RESUS (FJ$CITE,LENGTHC(FJ$CITE),J_JAYS,FJ$OPNANSWR,I);

   7562  0 000041   200004 634500                    EPPR4   I,,AUTO
         0 000042   200034 454500                    STP4    FJ$CITE+15,,AUTO
         0 000043   200006 635500                    EPPR5   FJ$OPNANSWR,,AUTO
         0 000044   200033 455500                    STP5    FJ$CITE+14,,AUTO
         0 000045   000001 236000 1                  LDQ     1
PL6.E3A0      #003=KQC$TELLJ File=KQC$CTL.:E05TSI                                WED 07/30/97 01:27 Page:276
         0 000046   200032 756100                    STQ     FJ$CITE+13,,AUTO
         0 000047   000002 236000 1                  LDQ     2
         0 000050   200031 756100                    STQ     FJ$CITE+12,,AUTO
         0 000051   200015 636500                    EPPR6   FJ$CITE,,AUTO
         0 000052   200030 456500                    STP6    FJ$CITE+11,,AUTO
         0 000053   200030 630500                    EPPR0   FJ$CITE+11,,AUTO
         0 000054   000023 631400 xsym               EPPR1   B_VECTNIL+19
         0 000055   000000 701000 xent               TSX1    KUR$RESUS
         0 000056   000000 011000                    NOP     0

     1799     7563    2           IF FJ$OPNANSWR.ERR ~= '0'B THEN

   7563  0 000057   200006 235100                    LDA     FJ$OPNANSWR,,AUTO
         0 000060   000065 600000 0                  TZE     s:7569

     1800     7564    3             DO;

     1801     7565    3             B$JIT$->B$JIT.ERR=FJ$OPNANSWR.ERR;

   7565  0 000061   200006 236100                    LDQ     FJ$OPNANSWR,,AUTO
         0 000062   000000 470400 xsym               LDP0    B$JIT$
         0 000063   000012 756100                    STQ     10,,PR0

     1802     7566    3             ALTRETURN;

   7566  0 000064   000000 702200 xent               TSX2  ! X66_AALT

     1803     7567    3             END;
     1804     7568    2           END;
     1805     7569    1         RETURN;

   7569  0 000065   000000 702200 xent               TSX2  ! X66_ARET

(unnamed)
 Sect OctLoc
   1     000   000000 000054   000000 006000   000000 006000                    ...,........
     1806     7570    1   END KQC$TELLJ;
PL6.E3A0      #003=KQC$TELLJ File=KQC$CTL.:E05TSI                                WED 07/30/97 01:27 Page:277

PL6.E3A0      #003=KQC$TELLJ File=KQC$CTL.:E05TSI                                WED 07/30/97 01:27 Page:278
--  Include file information  --

   FJM_MACROS_C.:E05TOU  is referenced.
   JG_EVID_C.:E05TOU  is referenced.
   KC_DATA_R.:E05TOU  cannot be made into a system file and is referenced.
   F$DCB.:E05TOU  cannot be made into a system file and is referenced.
   KC$CGBLK.:E05TOU  is referenced.
   KI_CP6.:E05TOU  is referenced.
   KI$CP6V_C.:E05TOU  is referenced.
   KC_CP6.:E05TOU  is referenced.
   B$JIT_C.:E05TOU  is referenced.
   KC$CP6V_C.:E05TOU  is referenced.
   CP_6_SUBS.:E05TOU  is referenced.
   KQ_DATA_R.:E05TOU  cannot be made into a system file and is referenced.
   HF_LOCK_C.:E05TOU  cannot be made into a system file and is referenced.
   KQ_MAC_C.:E05TOU  is referenced.
   KQ_SUBS_C.:E05TOU  is referenced.
      No diagnostics issued in procedure KQC$TELLJ.
PL6.E3A0      #003=KQC$TELLJ File=KQC$CTL.:E05TSI                                WED 07/30/97 01:27 Page:279

 **** Variables and constants ****

  ****  Auto variables  ****

  ****  Scalars and arrays  ****
OctLoc.c.b A Datatyp(siz) R M Lvl/name                 OctLoc.c.b A Datatyp(siz) R M Lvl/name

     3-0-0/w PTR         r     1 @CFU$                     *0-0-0/w PTR         r     1 CFU$
    15-0-0/w STRC(396)   r     1 FJ$CITE                    6-0-0/w STRC(252)   r     1 FJ$OPNANSWR
     4-0-0/w UBIN        r     1 I                          5-0-0/w PTR         r     1 JDCB$

  ****  SYMREF variables  ****

  ****  Scalars and arrays  ****
OctLoc.c.b A Datatyp(siz) R M Lvl/name                 OctLoc.c.b A Datatyp(siz) R M Lvl/name

     0-0-0/w PTR         r     1 B$JIT$                     0-0-0/c CHAR(8)     r     1 J_JAYS

  ****  BASED and DCB variables  ****

  ****  Scalars and arrays  ****
OctLoc.c.b A Datatyp(siz) R M Lvl/name                 OctLoc.c.b A Datatyp(siz) R M Lvl/name

     0-0-0/d STRC(7560)  r     1 B$JIT                      0-0-0/d ASTR(3528)  r     1 F$DCB


   Procedure KQC$TELLJ requires 54 words for executable code.
   Procedure KQC$TELLJ requires 30 words of local(AUTO) storage.

    No errors detected in file KQC$CTL.:E05TSI    .
PL6.E3A0      #003=KQC$TELLJ File=KQC$CTL.:E05TSI                                WED 07/30/97 01:27 Page:280
          *** CROSS REFERENCE LISTING ***
**     DENOTES     IDENTIFIER DEFINITION
<<                 IDENTIFIER'S VALUE SET
>>                 IDENTIFIER'S VALUE USED
<>                 IDENTIFIER SET AND/OR USED
--                 IDENTIFIER REFERENCED
PL6.E3A0      #003=KQC$TELLJ File=KQC$CTL.:E05TSI                                WED 07/30/97 01:27 Page:281
          MINI XREF LISTING

B$JIT.ACCN
      7287**DCL      7557>>ASSIGN
B$JIT.DCB$
      7377**DCL      7550>>ASSIGN
B$JIT.ERR
      7287**DCL      7565<<ASSIGN
B$JIT.ERR.MID
      7288**DCL      7288--REDEF
B$JIT.FACCN
      7287**DCL      7558>>ASSIGN
B$JIT.PRIV.ACTIVE
      7288**DCL      7560>>ASSIGN
B$JIT.UNAME
      7287**DCL      7559>>ASSIGN
B$JIT.USER
      7287**DCL      7556>>ASSIGN
B$JIT$
      7485**DCL      7282--IMP-PTR  7550>>ASSIGN   7556>>ASSIGN   7557>>ASSIGN   7558>>ASSIGN   7559>>ASSIGN
      7560>>ASSIGN   7565>>ASSIGN
CFU$
      7274**DCL        21--PROC     7554>>ASSIGN
F$DCB.ACTPOS
      6868**DCL      6868--REDEF
F$DCB.ARS
      6843**DCL      6843--REDEF
F$DCB.ATTR
      6861**DCL      6862--REDEF
F$DCB.BORROW
      6876**DCL      6876--REDEF    6876--REDEF    6876--REDEF
F$DCB.DCBNAME.L
      6890**DCL      6890--IMP-SIZ
F$DCB.EOMCHAR
PL6.E3A0      #003=KQC$TELLJ File=KQC$CTL.:E05TSI                                WED 07/30/97 01:27 Page:282
      6847**DCL      6847--REDEF
F$DCB.FLDID
      6871**DCL      6871--REDEF
F$DCB.FORM$
      6865**DCL      6865--REDEF
F$DCB.FSECT
      6881**DCL      6881--REDEF
F$DCB.FSN
      6858**DCL      6858--REDEF    6858--REDEF    6859--REDEF
F$DCB.GHSTACS
      6866**DCL      7551>>IF
F$DCB.HEADER$
      6864**DCL      6864--REDEF
F$DCB.IXTNSIZE
      6862**DCL      6862--REDEF
F$DCB.LASTSTA$
      6852**DCL      6852--REDEF
F$DCB.LVL
      6877**DCL      6877--REDEF
F$DCB.NAME.C
      6852**DCL      6852--REDEF
F$DCB.NOEOF
      6873**DCL      6873--REDEF
F$DCB.NRECS
      6863**DCL      6863--REDEF
F$DCB.NRECX
      6882**DCL      6882--REDEF
F$DCB.OHDR
      6874**DCL      6874--REDEF
F$DCB.ORG
      6857**DCL      6857--REDEF
F$DCB.PRECNO
      6880**DCL      6880--REDEF
F$DCB.RCSZ
      6885**DCL      6885--REDEF
F$DCB.RES
PL6.E3A0      #003=KQC$TELLJ File=KQC$CTL.:E05TSI                                WED 07/30/97 01:27 Page:283
      6853**DCL      6853--REDEF
F$DCB.SETX
      6865**DCL      6865--REDEF
F$DCB.TAB$
      6864**DCL      6865--REDEF
F$DCB.TDA
      6879**DCL      6879--REDEF
F$DCB.WSN
      6854**DCL      6854--REDEF
FJ$CITE
      7415**DCL      7562<>CALL     7562--CALL
FJ$CITE.ACCN
      7424**DCL      7557<<ASSIGN
FJ$CITE.CODE
      7416**DCL      7553<<ASSIGN
FJ$CITE.DCB$
      7423**DCL      7555<<ASSIGN
FJ$CITE.FACCN
      7426**DCL      7558<<ASSIGN
FJ$CITE.P$
      7422**DCL      7554<<ASSIGN
FJ$CITE.PRIV
      7427**DCL      7560<<ASSIGN
FJ$CITE.UNAME
      7425**DCL      7559<<ASSIGN
FJ$CITE.USER#
      7421**DCL      7556<<ASSIGN
FJ$OPNANSWR
      7393**DCL      7561--ASSIGN   7562<>CALL
FJ$OPNANSWR.ERR
      7394**DCL      7563>>IF       7565>>ASSIGN
I
      7390**DCL      7561<<ASSIGN   7562<>CALL
JDCB$
      7391**DCL      7550<<ASSIGN   7551>>IF       7555>>ASSIGN
J_JAYS
PL6.E3A0      #003=KQC$TELLJ File=KQC$CTL.:E05TSI                                WED 07/30/97 01:27 Page:284
      7486**DCL      7562<>CALL
KQ_IMBLK.DVE.EOMCHAR
      3567**DCL      3569--REDEF
KQ_IMBLK.KEY1
      3493**DCL      3495--REDEF
KQ_IMBLK.KEY2
      3502**DCL      3520--REDEF
KQ_IMBLK.LNK$
      3467**DCL      3469--REDEF    3475--REDEF    3479--REDEF
KQ_IMBLK.TYC
      3616**DCL      3618--REDEF
KQ_IMBLK.XSP.MREQ$
      3522**DCL      3526--REDEF
KQ_IRBLK.BUF$
      3071**DCL      3073--REDEF
KQ_IRBLK.CNACTD
      2985**DCL      2994--REDEF
KQ_IRBLK.DBLKX
      3091**DCL      3095--REDEF
KQ_IRBLK.EOFNONE
      2963**DCL      2966--REDEF
KQ_IRBLK.FROMQ
      2969**DCL      2972--REDEF
KQ_IRBLK.KEY1R
      3010**DCL      3011--REDEF
KQ_IRBLK.KEY2R
      3015**DCL      3016--REDEF
KQ_IRBLK.LATCH
      2958**DCL      2960--REDEF
KQ_IRBLK.LWRITES$
      3102**DCL      3106--REDEF
KQ_IRBLKT.CNACTD
      3171**DCL      3180--REDEF
KQ_IRBLKT.DBLK$
      3234**DCL      3238--REDEF    3241--REDEF
KQ_IRBLKT.EOFNONE
PL6.E3A0      #003=KQC$TELLJ File=KQC$CTL.:E05TSI                                WED 07/30/97 01:27 Page:285
      3149**DCL      3152--REDEF
KQ_IRBLKT.FROMQ
      3155**DCL      3158--REDEF
KQ_IRBLKT.KEY1R
      3196**DCL      3197--REDEF
KQ_IRBLKT.KEY2R
      3201**DCL      3202--REDEF
KQ_IRBLKT.LATCH
      3144**DCL      3146--REDEF
KUR$RESUS
      7493**DCL-ENT  7562--CALL
