PL6.E3A0      #002=KQL$QDELAYR File=KQL$LIST.:E05TSI                             WED 07/30/97 01:33 Page:354
     2730        1        /*T***********************************************************/
     2731        2        /*T*                                                         */
     2732        3        /*T* Copyright (c) Bull HN Information Systems Inc., 1997    */
     2733        4        /*T*                                                         */
     2734        5        /*T***********************************************************/
     2735        6        /*X* DMC,PLM=6,IND=0,IDT=2,SDI=2,CTI=0,ENU=0,AND,DCI=4,CSU=2,ECU=4,THI=0,DTI=0,STI=1
                 6        ,IAD=0,PRB */
     2736        7        /**/
     2737        8        /**/
     2738        9        /*F* NAME:         KQL$DELAY
     2739       10             PURPOSE:      To provide routines for manipulating
     2740       11                           delay lists
     2741       12             DESCRIPTION:  A delay list is a circular linklist accessed
     2742       13                           via a pointer to its tail.
     2743       14
     2744       15                           Each link is actually two things, a pointer
     2745       16                           plus a code which tells what sort of item
     2746       17                           is being pointed to.  This pointer structure
     2747       18                           is framed by KQ$DPTR.  There is also a delete
     2748       19                           bit meaningful only to the caller and to
     2749       20                           KQL$DELAYDQ.
     2750       21        */
     2751       22        KQL$QDELAYR: PROC (PARM1,PARM2) ALTRET;
     2752       23        /**/
     2753       24
     2754       25
     2755       26
     2756       27        /**/
     2757       28        /* INCLUDES */
     2758       29        /**/
     2759       30        %INCLUDE KQ_SUBS_C;
     2760      330        %INCLUDE KQ_MAC_C;
     2761     2880        %INCLUDE KC$CP6V_C;
     2762     3000        %INCLUDE KC_CP6;
     2763     3560
     2764     3561
     2765     3562
PL6.E3A0      #002=KQL$QDELAYR File=KQL$LIST.:E05TSI                             WED 07/30/97 01:33 Page:355
     2766     3563        /**/
     2767     3564        /* PARAMETERS */
     2768     3565        /**/
     2769     3566    1   DCL PARM1 UBIN;
     2770     3567    1   DCL PARM2 UBIN;
     2771     3568
     2772     3569
     2773     3570
     2774     3571        /**/
     2775     3572        /* BASED STRUCTURES */
     2776     3573        /**/
     2777     3574    1   DCL B$$PTR PTR BASED ALIGNED;
     2778     3575        %KQ$DPTR;
     2779     3602        %KQ_STA (FPTN=KQ$STA,STCLASS=BASED);
     2780     3941        %KQ_MBLK (FPTN=KQ$MBLK,STCLASS=BASED);
     2781     4211        %KQ_CG (FPTN=KQ$CG,STCLASS=BASED);
     2782     4950        %KQ_MLH (FPTN=KQ$MLH,STCLASS=BASED);
     2783     5020
     2784     5021
     2785     5022
     2786     5023        /**/
     2787     5024        /* AUTO */
     2788     5025        /**/
     2789     5026
     2790     5027
     2791     5028
     2792     5029        /**/
     2793     5030        /* ENTREFS */
     2794     5031        /**/
     2795     5032    1   DCL SC_BCGRRC     ENTRY    CONV(2,0);
     2796     5033        %EJECT;
PL6.E3A0      #002=KQL$QDELAYR File=KQL$LIST.:E05TSI                             WED 07/30/97 01:33 Page:356
     2797     5034        /*F* NAME:         KQL$QDELAYR
     2798     5035             PURPOSE:      To enqueue a station for the anonymous
     2799     5036                           queue
     2800     5037             CALL:         KQL$QDELAYR (KQ$CG,KQ$STA)
     2801     5038             INPUT:        QUEUE gate locked.
     2802     5039             ENVIRONMENT:  On behalf of user.
     2803     5040             DESCRIPTION:  Puts the station on the anonymous queue
     2804     5041                           delay list.
     2805     5042        KQL$QDELAYR: ENTRY (PARM1,PARM2) ALTRET;  */
     2806     5043        /**/
     2807     5044    2           DO INHIBIT;
     2808     5045    2           CALL DELAYR (ADDR(PARM1)->KQ$CG.QUEUE.DELAY$,ADDR(PARM2));
     2809     5046    2           RETURN;
     2810     5047    2           END;
     2811     5048        /**/
     2812     5049        /*F* NAME:         KQL$QDELAYM
     2813     5050             PURPOSE:      To enqueue a message on the anonymous queue
     2814     5051                           delay list
     2815     5052             CALL:         KQL$QDELAYM (KQ$CG,MBLK$)
     2816     5053             INPUT:        QUEUE gate locked
     2817     5054             OUTPUT:       MBLK$ set to the MBLK's old LNK$
     2818     5055             DESCRIPTION:  Puts the msg pointed to by MBLK$ on the queue
     2819     5056                           delay list. */
     2820     5057    1   KQL$QDELAYM: ENTRY (PARM1,PARM2) ALTRET;
     2821     5058        /**/
     2822     5059    2           DO INHIBIT;
     2823     5060    2           CALL DELAYM (ADDR(PARM1)->KQ$CG.QUEUE.DELAY$,PARM2);
     2824     5061    2           RETURN;
     2825     5062    2           END;
     2826     5063        /**/
     2827     5064        /*F* NAME:         KQL$MDELAYR
     2828     5065             PURPOSE:      To enqueue a station for a station MLH
     2829     5066             CALL:         KQL$MDELAYR (KQ$MLH,KQ$STA)
     2830     5067             INPUT:        Target station (owner of MLH) gate locked
     2831     5068             DESCRIPTION:  Enqueues the passed station for access to
     2832     5069                           the given MLH. */
     2833     5070    1   KQL$MDELAYR: ENTRY (PARM1,PARM2) ALTRET;
PL6.E3A0      #002=KQL$QDELAYR File=KQL$LIST.:E05TSI                             WED 07/30/97 01:33 Page:357
     2834     5071        /**/
     2835     5072    2           DO INHIBIT;
     2836     5073    2           CALL DELAYR (ADDR(PARM1)->KQ$MLH.DELAY$,ADDR(PARM2));
     2837     5074    2           RETURN;
     2838     5075    2           END;
     2839     5076        /**/
     2840     5077        /*F* NAME:         KQL$MDELAYM
     2841     5078             PURPOSE:      To enqueue a message on an MLH's
     2842     5079                           delay list
     2843     5080             CALL:         KQL$MDELAYM (KQ$MLH,MBLK$)
     2844     5081             INPUT:        Target station (owner of MLH) gate locked
     2845     5082             OUTPUT:       MBLK$ set to the MBLK's old LNK$
     2846     5083             DESCRIPTION:  Puts the msg pointed to by MBLK$ on the MLH
     2847     5084                           delay list. */
     2848     5085    1   KQL$MDELAYM: ENTRY (PARM1,PARM2) ALTRET;
     2849     5086        /**/
     2850     5087    2           DO INHIBIT;
     2851     5088    2           CALL DELAYM (ADDR(PARM1)->KQ$MLH.DELAY$,PARM2);
     2852     5089    2           RETURN;
     2853     5090    2           END;
     2854     5091        %EJECT;
PL6.E3A0      #002=KQL$QDELAYR File=KQL$LIST.:E05TSI                             WED 07/30/97 01:33 Page:358
     2855     5092        /*D* NAME:         DELAYM
     2856     5093             PURPOSE:      To insert an MBLK on a delay list
     2857     5094             CALL:         DELAYM (DELAY$,MBLK$)
     2858     5095             OUTPUT:       Item inserted, MBLK$ set to MBLK's old LNK$
     2859     5096        */
     2860     5097    1   DELAYM: PROC (DELAY$,MBLK$);
     2861     5098        /**/
     2862     5099    2   DCL DELAY$ PTR;
     2863     5100    2   DCL MBLK$ PTR;
     2864     5101    2   DCL D$ PTR;
     2865     5102    2   DCL M$ PTR;
     2866     5103    2   DCL ITEM$ PTR;
     2867     5104        /**/
     2868     5105    3           DO INHIBIT;
     2869     5106    3           D$=DELAY$;
     2870     5107    3           ADDR(D$)->KQ$DPTR.X='0'B;
     2871     5108    3           M$=MBLK$;
     2872     5109    3           MBLK$=MBLK$->KQ$MBLK.LNK$;
     2873     5110    3           ITEM$=M$;
     2874     5111    3           ADDR(ITEM$)->KQ$DPTR.X.CODE=KQRA_MBLK#;
     2875     5112    3           IF D$ = ADDR(NIL) THEN
     2876     5113    4             DO;
     2877     5114    4             M$->KQ$MBLK.LNK$=ITEM$;
     2878     5115    4   M_OUT:    ADDR(ITEM$)->KQ$DPTR.X.FLGS=ADDR(DELAY$)->KQ$DPTR.X.FLGS;
     2879     5116    4             DELAY$=ITEM$;
     2880     5117    4             RETURN;
     2881     5118    4             END;
     2882     5119        /**/
     2883     5120    4             DO CASE (ADDR(DELAY$)->KQ$DPTR.X.CODE);
     2884     5121    4               CASE (KQRA_MBLK#);
     2885     5122    4                 M$->KQ$MBLK.LNK$=D$->KQ$MBLK.LNK$;
     2886     5123    4                 ADDR(ITEM$)->KQ$DPTR.X.FLGS=ADDR(D$->KQ$MBLK.LNK$)->KQ$DPTR.X.FLGS;
     2887     5124    4                 D$->KQ$MBLK.LNK$=ITEM$;
     2888     5125    4               CASE (KQRA_RSTA#);
     2889     5126    4                 M$->KQ$MBLK.LNK$=D$->KQ$STA.RQLNK$;
     2890     5127    4                 ADDR(ITEM$)->KQ$DPTR.X.FLGS=ADDR(D$->KQ$STA.RQLNK$)->KQ$DPTR.X.FLGS;
     2891     5128    4                 D$->KQ$STA.RQLNK$=ITEM$;
PL6.E3A0      #002=KQL$QDELAYR File=KQL$LIST.:E05TSI                             WED 07/30/97 01:33 Page:359
     2892     5129    4             END;
     2893     5130    3           ADDR(M$->KQ$MBLK.LNK$)->KQ$DPTR.X.FLGS='0'B;
     2894     5131    3           GOTO M_OUT;
     2895     5132    3           END; /* INHIBIT */
     2896     5133        /**/
     2897     5134        /**/
     2898     5135        /*D* NAME:         DELAYR
     2899     5136             PURPOSE:      To insert a reader's KQ$STA on a delay list
     2900     5137             CALL:         DELAYR (DELAY$,STA$);
     2901     5138             OUTPUT:       Item inserted.
     2902     5139        */
     2903     5140    2   DELAYR: ENTRY (DELAY$,MBLK$);
     2904     5141        /**/
     2905     5142    3           DO INHIBIT;
     2906     5143    3           D$=DELAY$;
     2907     5144    3           ADDR(D$)->KQ$DPTR.X='0'B;
     2908     5145    3           ITEM$=MBLK$;
     2909     5146    3           ADDR(ITEM$)->KQ$DPTR.X.CODE=KQRA_RSTA#;
     2910     5147    3           IF D$ = ADDR(NIL) THEN
     2911     5148    4             DO;
     2912     5149    4             MBLK$->KQ$STA.RQLNK$=ITEM$;
     2913     5150    4   R_OUT:    ADDR(ITEM$)->KQ$DPTR.X.FLGS=ADDR(DELAY$)->KQ$DPTR.X.FLGS;
     2914     5151    4             DELAY$=ITEM$;
     2915     5152    4             RETURN;
     2916     5153    4             END;
     2917     5154        /**/
     2918     5155    4             DO CASE (ADDR(DELAY$)->KQ$DPTR.X.CODE);
     2919     5156    4               CASE (KQRA_MBLK#);
     2920     5157    4                 MBLK$->KQ$STA.RQLNK$=D$->KQ$MBLK.LNK$;
     2921     5158    4                 ADDR(ITEM$)->KQ$DPTR.X.FLGS=ADDR(D$->KQ$MBLK.LNK$)->KQ$DPTR.X.FLGS;
     2922     5159    4                 D$->KQ$MBLK.LNK$=ITEM$;
     2923     5160    4               CASE (KQRA_RSTA#);
     2924     5161    4                 MBLK$->KQ$STA.RQLNK$=D$->KQ$STA.RQLNK$;
     2925     5162    4                 ADDR(ITEM$)->KQ$DPTR.X.FLGS=ADDR(D$->KQ$STA.RQLNK$)->KQ$DPTR.X.FLGS;
     2926     5163    4                 D$->KQ$STA.RQLNK$=ITEM$;
     2927     5164    4             END;
     2928     5165    3           ADDR(MBLK$->KQ$STA.RQLNK$)->KQ$DPTR.X.FLGS='0'B;
PL6.E3A0      #002=KQL$QDELAYR File=KQL$LIST.:E05TSI                             WED 07/30/97 01:33 Page:360
     2929     5166    3           GOTO R_OUT;
     2930     5167    3           END; /* INHIBIT */
     2931     5168    2   END DELAYM;
     2932     5169        %EJECT;
PL6.E3A0      #002=KQL$QDELAYR File=KQL$LIST.:E05TSI                             WED 07/30/97 01:33 Page:361
     2933     5170        /**/
     2934     5171        /*F* NAME:         KQL$COUNTDLY
     2935     5172             PURPOSE:      To count the items in a delay list
     2936     5173             CALL:         KQL$COUNTDLY (DELAY$,TYP)
     2937     5174             INPUT:        TYP = KQRA_XXXX#  ---> type of item to be counted
     2938     5175             OUTPUT:       TYP = count found
     2939     5176             DESCRIPTION:  The number of items of the specified type on the
     2940     5177                           specified DELAY$ list are counted and returned in
     2941     5178                           TYP. The owning MLH's gate is assumed to be locked
     2942     5179                           upon entry and is not touched throughout.
     2943     5180        */
     2944     5181    1   KQL$COUNTDLY: ENTRY (PARM1,PARM2) ALTRET;
     2945     5182        /**/
     2946     5183    1         CALL COUNTIT (PARM1,PARM2);
     2947     5184    1         RETURN;
     2948     5185        /**/
     2949     5186    1   COUNTIT: PROC (DELAY$,COUNT);
     2950     5187        /**/
     2951     5188    2   DCL DELAY$ PTR;
     2952     5189    2   DCL COUNT UBIN;
     2953     5190    2   DCL TYP UBIN;
     2954     5191    2   DCL CODE UBIN;
     2955     5192    2   DCL D$ PTR;
     2956     5193    2   DCL DLY$ PTR;
     2957     5194        /**/
     2958     5195    2         TYP=COUNT;
     2959     5196    2         COUNT=0;
     2960     5197    2         DLY$=DELAY$;
     2961     5198    2         ADDR(DLY$)->KQ$DPTR.X = '0'B;
     2962     5199    2         IF DLY$=ADDR(NIL) THEN RETURN;
     2963     5200    2         D$=DELAY$;
     2964     5201    2         CODE=ADDR(D$)->KQ$DPTR.X.CODE;
     2965     5202    2         ADDR(D$)->KQ$DPTR.X='0'B;
     2966     5203    3           DO WHILE('1'B);
     2967     5204    3           IF CODE=TYP THEN COUNT=COUNT+1;
     2968     5205    4             DO CASE (CODE);
     2969     5206    4               CASE (KQRA_MBLK#);
PL6.E3A0      #002=KQL$QDELAYR File=KQL$LIST.:E05TSI                             WED 07/30/97 01:33 Page:362
     2970     5207    4                 D$=D$->KQ$MBLK.LNK$;
     2971     5208    4               CASE (KQRA_RSTA#);
     2972     5209    4                 D$=D$->KQ$STA.RQLNK$;
     2973     5210    4               CASE (ELSE);
     2974     5211    4                 CALL SC_BCGRRC;
     2975     5212    4             END;
     2976     5213    3           CODE=ADDR(D$)->KQ$DPTR.X.CODE;
     2977     5214    3           ADDR(D$)->KQ$DPTR.X='0'B;
     2978     5215    3           IF D$=DLY$ THEN RETURN;
     2979     5216    3           END;
     2980     5217    2   END COUNTIT;
     2981     5218        %EJECT;
PL6.E3A0      #002=KQL$QDELAYR File=KQL$LIST.:E05TSI                             WED 07/30/97 01:33 Page:363
     2982     5219        /**/
     2983     5220        /*F* NAME:         KQL$DELAYDQ
     2984     5221             PURPOSE:      To dequeue a delayed item from a delay list
     2985     5222             CALL:         KQL$DELAYDQ (DELAY$,DQ$) ALTRET(DONE)
     2986     5223             DESCRIPTION:  ALTRETs if the list is empty.
     2987     5224                           Else RETURNs with DQ$, a KQ$DPTR
     2988     5225                           which points to the item.
     2989     5226
     2990     5227                           If the KQ$DPTR has any FLGS set then the caller
     2991     5228                           is expected to process them, zap the FLGS, and
     2992     5229                           return.
     2993     5230
     2994     5231                           The caller is expected to pass as DQ$, either
     2995     5232                           KQ$CG.QUEUE.DELAYDQ$ or STA$->KQ$STA.MLH.DELAYDQ$
     2996     5233                           so that KQL$RCVRDLY may be able to rebuild the
     2997     5234                           DELAY$ list if we crash before completing delivery
     2998     5235                           of the MBLK, deletion of the message list or
     2999     5236                           continuing the delayed read. It is very important
     3000     5237                           that these pointers be used so that we don't lose
     3001     5238                           a message in the event of a crash at this time.
     3002     5239        */
     3003     5240    1   KQL$DELAYDQ: ENTRY (PARM1,PARM2) ALTRET;
     3004     5241        /**/
     3005     5242    1         CALL DEQ (PARM1,PARM2) ALTRET(ALTRT);
     3006     5243    1         RETURN;
     3007     5244    1   ALTRT: ;
     3008     5245    1         ALTRETURN;
     3009     5246        /**/
     3010     5247    1   DEQ:  PROC (DELAY$,P$) ALTRET;
     3011     5248        /**/
     3012     5249    2   DCL DELAY$ PTR;
     3013     5250    2   DCL P$ PTR;
     3014     5251    2   DCL D$ PTR;
     3015     5252    2   DCL D1$ PTR;
     3016     5253    2   DCL D2$ PTR;
     3017     5254    2   DCL SVDELBIT BIT(1);
     3018     5255        /**/
PL6.E3A0      #002=KQL$QDELAYR File=KQL$LIST.:E05TSI                             WED 07/30/97 01:33 Page:364
     3019     5256    3           DO INHIBIT;
     3020     5257    3           IF DELAY$=ADDR(NIL) THEN ALTRETURN;
     3021     5258    4           IF ADDR(DELAY$)->KQ$DPTR.X.FLGS THEN DO;
     3022     5259    4             P$=ADDR(NIL);
     3023     5260    4             ADDR(P$)->KQ$DPTR.X.FLGS='1'B;
     3024     5261    4             ADDR(DELAY$)->KQ$DPTR.X.FLGS='0'B;
     3025     5262    4             RETURN;
     3026     5263    4             END;
     3027     5264    3           D$=DELAY$;
     3028     5265    3           ADDR(D$)->KQ$DPTR.X='0'B;
     3029     5266    4             DO CASE(ADDR(DELAY$)->KQ$DPTR.X.CODE);
     3030     5267    4               CASE(KQRA_MBLK#);
     3031     5268    4                 D1$=ADDR(D$->KQ$MBLK.LNK$);
     3032     5269    4               CASE(KQRA_RSTA#);
     3033     5270    4                 D1$=ADDR(D$->KQ$STA.RQLNK$);
     3034     5271    4               CASE (ELSE);
     3035     5272    4                 CALL SC_BCGRRC;
     3036     5273    4             END;
     3037     5274    3           P$=D1$->B$$PTR;
     3038     5275    3           D2$=P$;
     3039     5276    3           ADDR(D2$)->KQ$DPTR.X='0'B;
     3040     5277    3           IF D$=D2$
     3041     5278    3           THEN DELAY$=ADDR(NIL);
     3042     5279    4           ELSE DO;
     3043     5280    4             SVDELBIT=D1$->KQ$DPTR.X.FLGS;
     3044     5281    5               DO CASE(ADDR(P$)->KQ$DPTR.X.CODE);
     3045     5282    5                 CASE(KQRA_MBLK#);
     3046     5283    5                   D1$->B$$PTR=D2$->KQ$MBLK.LNK$;
     3047     5284    5                 CASE(KQRA_RSTA#);
     3048     5285    5                   D1$->B$$PTR=D2$->KQ$STA.RQLNK$;
     3049     5286    5                 CASE (ELSE);
     3050     5287    5                   CALL SC_BCGRRC;
     3051     5288    5               END;
     3052     5289    4             D1$->KQ$DPTR.X.FLGS=SVDELBIT;
     3053     5290    4             END;
     3054     5291    4             DO CASE(ADDR(P$)->KQ$DPTR.X.CODE);
     3055     5292    4               CASE(KQRA_MBLK#);
PL6.E3A0      #002=KQL$QDELAYR File=KQL$LIST.:E05TSI                             WED 07/30/97 01:33 Page:365
     3056     5293    4                 ADDR(DELAY$)->KQ$DPTR.X.FLGS=ADDR(D2$->KQ$MBLK.LNK$)->KQ$DPTR.X.FLGS;
     3057     5294    4                 D2$->KQ$MBLK.LNK$=ADDR(NIL);
     3058     5295    4               CASE(KQRA_RSTA#);
     3059     5296    4                 ADDR(DELAY$)->KQ$DPTR.X.FLGS=ADDR(D2$->KQ$STA.RQLNK$)->KQ$DPTR.X.FLGS;
     3060     5297    4                 D2$->KQ$STA.RQLNK$=ADDR(NIL);
     3061     5298    4               CASE (ELSE);
     3062     5299    4                 CALL SC_BCGRRC;
     3063     5300    4             END;
     3064     5301    3           END; /* INHIBIT */
     3065     5302    2   END DEQ;
     3066     5303        %EJECT;
PL6.E3A0      #002=KQL$QDELAYR File=KQL$LIST.:E05TSI                             WED 07/30/97 01:33 Page:366
     3067     5304        /**/
     3068     5305        /*F* NAME:         KQL$RCVRDLY
     3069     5306             PURPOSE:      To recover a crashed delay list
     3070     5307             CALL:         CALL KQL$RCVRDLY(DELAY$,DQ$)
     3071     5308                             where DELAY$ is KQ$CG.QUEUE.DELAY$ for the anon-Q
     3072     5309                                          or KQ$STA.MLH.DELAY$ for a directed list
     3073     5310                               and DQ$ is KQ$CG.QUEUE.DELAYDQ$ for the anon-Q
     3074     5311                                       or KQ$STA.MLH.DELAYDQ$ for a directed list
     3075     5312             DESCRIPTION:  When the anon-Q or an MLH is busy and some process
     3076     5313                           needs to access the MLH, we place this process on
     3077     5314                           the DELAY$ list for later processing. The DELAY$
     3078     5315                           list may then have on it MBLKs for messages waiting
     3079     5316                           to be written into the list or STATION blocks for
     3080     5317                           readers waiting to read the list. Also, the
     3081     5318                           delete-message-list process is ordered on the
     3082     5319                           DELAY$ chain by setting a bit in an item's pointer
     3083     5320                           to the next item. The deletion process is to occur
     3084     5321                           AFTER the block carrying the pointer is processed.
     3085     5322                           This delete bit (KQ$DPTR.X.FLGS) is carried around
     3086     5323                           in the chain until it makes its way onto the DELAY$
     3087     5324                           pointer. At this point, the list is to deleted.
     3088     5325
     3089     5326                           When a process which restricts access to an MLH
     3090     5327                           completes, it must call KQL$xDFDUN(L) to process
     3091     5328                           this DELAY$ list (among other things). When we
     3092     5329                           process this list, we MUST make sure we don't lose
     3093     5330                           any MBLKs or neglect to delete the message list if
     3094     5331                           a SCREECH occurs. In order to do this, we place
     3095     5332                           the process's block (STATION or MBLK) on the
     3096     5333                           DELAYDQ$ pointer. This is then examined when we
     3097     5334                           re-open a CG and this procedure is called to
     3098     5335                           re-build the DELAY$ list.
     3099     5336        */
     3100     5337    1   KQL$RCVRDLY: ENTRY (PARM1,PARM2) ALTRET;
     3101     5338        /**/
     3102     5339    1         CALL RCVR (PARM1,PARM2);
     3103     5340    1         RETURN;
PL6.E3A0      #002=KQL$QDELAYR File=KQL$LIST.:E05TSI                             WED 07/30/97 01:33 Page:367
     3104     5341        /**/
     3105     5342    1   RCVR: PROC (DELAY$,DQ$);
     3106     5343        /**/
     3107     5344    2   DCL DELAY$ PTR;
     3108     5345    2   DCL DQ$ PTR;
     3109     5346    2   DCL DQ$R REDEF DQ$ UBIN;
     3110     5347    2   DCL D$ PTR;
     3111     5348    2   DCL MBLK$ PTR;
     3112     5349    2   DCL P$ PTR;
     3113     5350    2   DCL DELBIT BIT(1);
     3114     5351        /**/
     3115     5352    3           DO INHIBIT;
     3116     5353    3           IF DQ$=ADDR(NIL) OR DQ$R=0 OR ADDR(DQ$)->KQ$DPTR.X.CODE=KQRA_RSTA#
     3117     5354    3           THEN GOTO NILOUT;
     3118     5355    4           IF ADDR(DQ$)->KQ$DPTR.X.FLGS THEN DO;
     3119     5356    4             ADDR(DELAY$)->KQ$DPTR.X.FLGS='1'B;
     3120     5357    4             GOTO NILOUT;
     3121     5358    4             END;
     3122     5359    3           ADDR(DQ$)->KQ$DPTR.X.CODE=KQRA_MBLK#;
     3123     5360                             /* We must put KQRA_MBLK# into the code field since     */
     3124     5361                             /* we obliterate the CODE field to turn the KQ$DPTR     */
     3125     5362                             /* to make it look like a pointer when we try to        */
     3126     5363                             /* deliver the MBLK out of KQW$XMITxxx.                 */
     3127     5364    3           DELBIT=ADDR(DELAY$)->KQ$DPTR.X.FLGS;
     3128     5365    3           ADDR(DELAY$)->KQ$DPTR.X.FLGS='0'B;
     3129     5366    3           MBLK$=DQ$;
     3130     5367    3           ADDR(MBLK$)->KQ$DPTR.X='0'B;
     3131     5368    3           IF DELAY$=ADDR(NIL)
     3132     5369    4           THEN DO;
     3133     5370    4             DELAY$=DQ$;
     3134     5371    4             MBLK$->KQ$MBLK.LNK$=DQ$;
     3135     5372    4             ADDR(MBLK$->KQ$MBLK.LNK$)->KQ$DPTR.X.FLGS=DELBIT;
     3136     5373    4             END;
     3137     5374    4           ELSE DO;
     3138     5375    4             D$=DELAY$;
     3139     5376    4             ADDR(D$)->KQ$DPTR.X='0'B;
     3140     5377    5               DO CASE(ADDR(DELAY$)->KQ$DPTR.X.CODE);
PL6.E3A0      #002=KQL$QDELAYR File=KQL$LIST.:E05TSI                             WED 07/30/97 01:33 Page:368
     3141     5378    5                 CASE(KQRA_MBLK#);
     3142     5379    5                   P$=ADDR(D$->KQ$MBLK.LNK$);
     3143     5380    5                 CASE(KQRA_RSTA#);
     3144     5381    5                   P$=ADDR(D$->KQ$STA.RQLNK$);
     3145     5382    5               END;
     3146     5383    4             MBLK$->KQ$MBLK.LNK$=P$->B$$PTR;
     3147     5384    4             P$->B$$PTR=DQ$;
     3148     5385    4             P$->KQ$DPTR.X.FLGS=ADDR(MBLK$->KQ$MBLK.LNK$)->KQ$DPTR.X.FLGS;
     3149     5386    4             ADDR(MBLK$->KQ$MBLK.LNK$)->KQ$DPTR.X.FLGS=DELBIT;
     3150     5387    4             END;
     3151     5388    3   NILOUT: ;
     3152     5389    3           DQ$=ADDR(NIL);
     3153     5390    3           RETURN;
     3154     5391    3           END; /* INHIBIT */
     3155     5392    2   END RCVR;
     3156     5393    1   END KQL$QDELAYR;

PL6.E3A0      #002=KQL$QDELAYR File=KQL$LIST.:E05TSI                             WED 07/30/97 01:33 Page:369
--  Include file information  --

   KC_CP6.:E05TOU  is referenced.
   KC$CP6V_C.:E05TOU  is referenced.
   KQ_MAC_C.:E05TOU  is referenced.
   KQ_SUBS_C.:E05TOU  is referenced.
      No diagnostics issued in procedure KQL$QDELAYR.

   Procedure KQL$QDELAYR requires 479 words for executable code.
   Procedure KQL$QDELAYR requires 16 words of local(AUTO) storage.

    No errors detected in file KQL$LIST.:E05TSI    .

PL6.E3A0      #002=KQL$QDELAYR File=KQL$LIST.:E05TSI                             WED 07/30/97 01:33 Page:370

 Object Unit name= KQL$QDELAYR                                File name= KQL$LIST.:E05TOU
 UTS= JUL 30 '97 01:33:51.60 WED                              Compiler= PL-6/E31         Sev=      00
 SharedLib= :SHARED_SYSTEM                                    Alt SharedLib=


    ****  Control sections  ****

 Sect   Type Bound  Init  Size OctSiz  Section name(segment info)
    0   Proc  even  none   479    737  KQL$QDELAYR
    1  RoData even  none     2      2  KQL$QDELAYR

    ****  Entry defs  ****

                              Check   Calling
                             calling  sequence
  Sect OctLoc Primary Altret sequence   type   Parms  Name
     0      0   yes    yes     yes      Std        2  KQL$QDELAYR
     0     15          yes     yes      Std        2  KQL$QDELAYM
     0     30          yes     yes      Std        2  KQL$MDELAYR
     0     45          yes     yes      Std        2  KQL$MDELAYM
     0    267          yes     yes      Std        2  KQL$COUNTDLY
     0    371          yes     yes      Std        2  KQL$DELAYDQ
     0    573          yes     yes      Std        2  KQL$RCVRDLY

  ****  Entry refs  ****

         Check        Calling
        calling       sequence
Altret sequence SRef   type   Args  Name
                       nStd      0 X66_AUTO_2
                       nStd      0 X66_ARET
                       Std       0 B_CONSPOOL_D
                       nStd      0 X66_AALT
PL6.E3A0      #002=KQL$QDELAYR File=KQL$LIST.:E05TSI                             WED 07/30/97 01:33 Page:371

  ****  Data refs  ****

  Flags:  r = read only, s = secondary
Flgs Name                             Flgs Name                             Flgs Name
     SC_BCGRRC                             B_VECTNIL

  ****  Segment refs  ****

  Flags:  r = read only, s = secondary
Flgs Name                             Flgs Name                             Flgs Name
     ASLENTSID
PL6.E3A0      #002=KQL$QDELAYR File=KQL$LIST.:E05TSI                             WED 07/30/97 01:33 Page:372


     2730        1        /*T***********************************************************/
     2731        2        /*T*                                                         */
     2732        3        /*T* Copyright (c) Bull HN Information Systems Inc., 1997    */
     2733        4        /*T*                                                         */
     2734        5        /*T***********************************************************/
     2735        6       /*X* DMC,PLM=6,IND=0,IDT=2,SDI=2,CTI=0,ENU=0,AND,DCI=4,CSU=2,ECU=4,THI=0,DTI=0,STI=1
                 6        ,IAD=0,PRB */
     2736        7        /**/
     2737        8        /**/
     2738        9        /*F* NAME:         KQL$DELAY
     2739       10             PURPOSE:      To provide routines for manipulating
     2740       11                           delay lists
     2741       12             DESCRIPTION:  A delay list is a circular linklist accessed
     2742       13                           via a pointer to its tail.
     2743       14
     2744       15                           Each link is actually two things, a pointer
     2745       16                           plus a code which tells what sort of item
     2746       17                           is being pointed to.  This pointer structure
     2747       18                           is framed by KQ$DPTR.  There is also a delete
     2748       19                           bit meaningful only to the caller and to
     2749       20                           KQL$DELAYDQ.
     2750       21        */
     2751       22        KQL$QDELAYR: PROC (PARM1,PARM2) ALTRET;

     22  0 000000   000000 700200 xent  KQL$QDELAYR  TSX0  ! X66_AUTO_2
         0 000001   000020 000002                    ZERO    16,2

     2752       23        /**/
     2753       24
     2754       25
     2755       26
     2756       27        /**/
     2757       28        /* INCLUDES */
     2758       29        /**/
     2759       30        %INCLUDE KQ_SUBS_C;
     2760      330        %INCLUDE KQ_MAC_C;
PL6.E3A0      #002=KQL$QDELAYR File=KQL$LIST.:E05TSI                             WED 07/30/97 01:33 Page:373
     2761     2880        %INCLUDE KC$CP6V_C;
     2762     3000        %INCLUDE KC_CP6;
     2763     3560
     2764     3561
     2765     3562
     2766     3563        /**/
     2767     3564        /* PARAMETERS */
     2768     3565        /**/
     2769     3566    1   DCL PARM1 UBIN;
     2770     3567    1   DCL PARM2 UBIN;
     2771     3568
     2772     3569
     2773     3570
     2774     3571        /**/
     2775     3572        /* BASED STRUCTURES */
     2776     3573        /**/
     2777     3574    1   DCL B$$PTR PTR BASED ALIGNED;
     2778     3575        %KQ$DPTR;
     2779     3602        %KQ_STA (FPTN=KQ$STA,STCLASS=BASED);
     2780     3941        %KQ_MBLK (FPTN=KQ$MBLK,STCLASS=BASED);
     2781     4211        %KQ_CG (FPTN=KQ$CG,STCLASS=BASED);
     2782     4950        %KQ_MLH (FPTN=KQ$MLH,STCLASS=BASED);
     2783     5020
     2784     5021
     2785     5022
     2786     5023        /**/
     2787     5024        /* AUTO */
     2788     5025        /**/
     2789     5026
     2790     5027
     2791     5028
     2792     5029        /**/
     2793     5030        /* ENTREFS */
     2794     5031        /**/
     2795     5032    1   DCL SC_BCGRRC     ENTRY    CONV(2,0);
     2796     5033        %EJECT;
PL6.E3A0      #002=KQL$QDELAYR File=KQL$LIST.:E05TSI                             WED 07/30/97 01:33 Page:374
     2797     5034        /*F* NAME:         KQL$QDELAYR
     2798     5035             PURPOSE:      To enqueue a station for the anonymous
     2799     5036                           queue
     2800     5037             CALL:         KQL$QDELAYR (KQ$CG,KQ$STA)
     2801     5038             INPUT:        QUEUE gate locked.
     2802     5039             ENVIRONMENT:  On behalf of user.
     2803     5040             DESCRIPTION:  Puts the station on the anonymous queue
     2804     5041                           delay list.
     2805     5042        KQL$QDELAYR: ENTRY (PARM1,PARM2) ALTRET;  */
     2806     5043        /**/
     2807     5044    2           DO INHIBIT;

     2808     5045    2           CALL DELAYR (ADDR(PARM1)->KQ$CG.QUEUE.DELAY$,ADDR(PARM2));

   5045  0 000002   200004 236300                    LDQ   ! @PARM2,,AUTO
         0 000003   200016 756300                    STQ   ! DELBIT+2,,AUTO
         0 000004   200016 630700                    EPPR0 ! DELBIT+2,,AUTO
         0 000005   200010 450700                    STP0  ! @DELAY$+1,,AUTO
         0 000006   200003 236300                    LDQ   ! @PARM1,,AUTO
         0 000007   000062 036203                    ADLQ  ! 50,DU
         0 000010   200007 756300                    STQ   ! @PARM2+3,,AUTO
         0 000011   000166 701200 0                  TSX1  ! DELAYR
         0 000012   000000 011200                    NOP   ! 0

     2809     5046    2           RETURN;

   5046  0 000013   000000 702200 xent               TSX2  ! X66_ARET

     2810     5047    2           END;

   5047  0 000014   000017 710000 0                  TRA     s:5060

     2811     5048        /**/
     2812     5049        /*F* NAME:         KQL$QDELAYM
     2813     5050             PURPOSE:      To enqueue a message on the anonymous queue
     2814     5051                           delay list
     2815     5052             CALL:         KQL$QDELAYM (KQ$CG,MBLK$)
PL6.E3A0      #002=KQL$QDELAYR File=KQL$LIST.:E05TSI                             WED 07/30/97 01:33 Page:375
     2816     5053             INPUT:        QUEUE gate locked
     2817     5054             OUTPUT:       MBLK$ set to the MBLK's old LNK$
     2818     5055             DESCRIPTION:  Puts the msg pointed to by MBLK$ on the queue
     2819     5056                           delay list. */
     2820     5057    1   KQL$QDELAYM: ENTRY (PARM1,PARM2) ALTRET;

   5057  0 000015   000000 700200 xent  KQL$QDELAYM  TSX0  ! X66_AUTO_2
         0 000016   000020 000002                    ZERO    16,2

     2821     5058        /**/
     2822     5059    2           DO INHIBIT;

     2823     5060    2           CALL DELAYM (ADDR(PARM1)->KQ$CG.QUEUE.DELAY$,PARM2);

   5060  0 000017   200004 236300                    LDQ   ! @PARM2,,AUTO
         0 000020   200010 756300                    STQ   ! @DELAY$+1,,AUTO
         0 000021   200003 236300                    LDQ   ! @PARM1,,AUTO
         0 000022   000062 036203                    ADLQ  ! 50,DU
         0 000023   200007 756300                    STQ   ! @PARM2+3,,AUTO
         0 000024   000060 701200 0                  TSX1  ! DELAYM
         0 000025   000000 011200                    NOP   ! 0

     2824     5061    2           RETURN;

   5061  0 000026   000000 702200 xent               TSX2  ! X66_ARET

     2825     5062    2           END;

   5062  0 000027   000032 710000 0                  TRA     s:5073

     2826     5063        /**/
     2827     5064        /*F* NAME:         KQL$MDELAYR
     2828     5065             PURPOSE:      To enqueue a station for a station MLH
     2829     5066             CALL:         KQL$MDELAYR (KQ$MLH,KQ$STA)
     2830     5067             INPUT:        Target station (owner of MLH) gate locked
     2831     5068             DESCRIPTION:  Enqueues the passed station for access to
     2832     5069                           the given MLH. */
PL6.E3A0      #002=KQL$QDELAYR File=KQL$LIST.:E05TSI                             WED 07/30/97 01:33 Page:376
     2833     5070    1   KQL$MDELAYR: ENTRY (PARM1,PARM2) ALTRET;

   5070  0 000030   000000 700200 xent  KQL$MDELAYR  TSX0  ! X66_AUTO_2
         0 000031   000020 000002                    ZERO    16,2

     2834     5071        /**/
     2835     5072    2           DO INHIBIT;

     2836     5073    2           CALL DELAYR (ADDR(PARM1)->KQ$MLH.DELAY$,ADDR(PARM2));

   5073  0 000032   200004 236300                    LDQ   ! @PARM2,,AUTO
         0 000033   200017 756300                    STQ   ! DELBIT+3,,AUTO
         0 000034   200017 630700                    EPPR0 ! DELBIT+3,,AUTO
         0 000035   200010 450700                    STP0  ! @DELAY$+1,,AUTO
         0 000036   200003 236300                    LDQ   ! @PARM1,,AUTO
         0 000037   000002 036203                    ADLQ  ! 2,DU
         0 000040   200007 756300                    STQ   ! @PARM2+3,,AUTO
         0 000041   000166 701200 0                  TSX1  ! DELAYR
         0 000042   000000 011200                    NOP   ! 0

     2837     5074    2           RETURN;

   5074  0 000043   000000 702200 xent               TSX2  ! X66_ARET

     2838     5075    2           END;

   5075  0 000044   000047 710000 0                  TRA     s:5088

     2839     5076        /**/
     2840     5077        /*F* NAME:         KQL$MDELAYM
     2841     5078             PURPOSE:      To enqueue a message on an MLH's
     2842     5079                           delay list
     2843     5080             CALL:         KQL$MDELAYM (KQ$MLH,MBLK$)
     2844     5081             INPUT:        Target station (owner of MLH) gate locked
     2845     5082             OUTPUT:       MBLK$ set to the MBLK's old LNK$
     2846     5083             DESCRIPTION:  Puts the msg pointed to by MBLK$ on the MLH
     2847     5084                           delay list. */
PL6.E3A0      #002=KQL$QDELAYR File=KQL$LIST.:E05TSI                             WED 07/30/97 01:33 Page:377
     2848     5085    1   KQL$MDELAYM: ENTRY (PARM1,PARM2) ALTRET;

   5085  0 000045   000000 700200 xent  KQL$MDELAYM  TSX0  ! X66_AUTO_2
         0 000046   000020 000002                    ZERO    16,2

     2849     5086        /**/
     2850     5087    2           DO INHIBIT;

     2851     5088    2           CALL DELAYM (ADDR(PARM1)->KQ$MLH.DELAY$,PARM2);

   5088  0 000047   200004 236300                    LDQ   ! @PARM2,,AUTO
         0 000050   200010 756300                    STQ   ! @DELAY$+1,,AUTO
         0 000051   200003 236300                    LDQ   ! @PARM1,,AUTO
         0 000052   000002 036203                    ADLQ  ! 2,DU
         0 000053   200007 756300                    STQ   ! @PARM2+3,,AUTO
         0 000054   000060 701200 0                  TSX1  ! DELAYM
         0 000055   000000 011200                    NOP   ! 0

     2852     5089    2           RETURN;

   5089  0 000056   000000 702200 xent               TSX2  ! X66_ARET

     2853     5090    2           END;

   5090  0 000057   000266 710000 0                  TRA     s:5168+2

     2854     5091        %EJECT;
PL6.E3A0      #002=KQL$QDELAYR File=KQL$LIST.:E05TSI                             WED 07/30/97 01:33 Page:378
     2855     5092        /*D* NAME:         DELAYM
     2856     5093             PURPOSE:      To insert an MBLK on a delay list
     2857     5094             CALL:         DELAYM (DELAY$,MBLK$)
     2858     5095             OUTPUT:       Item inserted, MBLK$ set to MBLK's old LNK$
     2859     5096        */
     2860     5097    1   DELAYM: PROC (DELAY$,MBLK$);

   5097  0 000060   200006 741300       DELAYM       STX1  ! @PARM2+2,,AUTO

     2861     5098        /**/
     2862     5099    2   DCL DELAY$ PTR;
     2863     5100    2   DCL MBLK$ PTR;
     2864     5101    2   DCL D$ PTR;
     2865     5102    2   DCL M$ PTR;
     2866     5103    2   DCL ITEM$ PTR;
     2867     5104        /**/
     2868     5105    3           DO INHIBIT;

     2869     5106    3           D$=DELAY$;

   5106  0 000061   200007 470700                    LDP0  ! @DELAY$,,AUTO
         0 000062   000000 236300                    LDQ   ! 0,,PR0
         0 000063   200011 756300                    STQ   ! D$,,AUTO

     2870     5107    3           ADDR(D$)->KQ$DPTR.X='0'B;

   5107  0 000064   000000 236203                    LDQ   ! 0,DU
         0 000065   200011 752304                    STCQ  ! D$,'04'O,AUTO

     2871     5108    3           M$=MBLK$;

   5108  0 000066   200010 471700                    LDP1  ! @MBLK$,,AUTO
         0 000067   100000 236300                    LDQ   ! 0,,PR1
         0 000070   200012 756300                    STQ   ! M$,,AUTO

     2872     5109    3           MBLK$=MBLK$->KQ$MBLK.LNK$;

PL6.E3A0      #002=KQL$QDELAYR File=KQL$LIST.:E05TSI                             WED 07/30/97 01:33 Page:379
   5109  0 000071   100000 473700                    LDP3  ! 0,,PR1
         0 000072   300000 236300                    LDQ   ! 0,,PR3
         0 000073   100000 756300                    STQ   ! 0,,PR1

     2873     5110    3           ITEM$=M$;

   5110  0 000074   200012 236300                    LDQ   ! M$,,AUTO
         0 000075   200013 756300                    STQ   ! ITEM$,,AUTO

     2874     5111    3           ADDR(ITEM$)->KQ$DPTR.X.CODE=KQRA_MBLK#;

   5111  0 000076   200013 236300                    LDQ   ! ITEM$,,AUTO
         0 000077   000000 376200 1                  ANQ   ! 0
         0 000100   010000 276207                    ORQ   ! 4096,DL
         0 000101   200013 756300                    STQ   ! ITEM$,,AUTO

     2875     5112    3           IF D$ = ADDR(NIL) THEN

   5112  0 000102   200011 236300                    LDQ   ! D$,,AUTO
         0 000103   000001 116200 xsym               CMPQ  ! B_VECTNIL+1
         0 000104   000121 601200 0                  TNZ   ! s:5120

     2876     5113    4             DO;

     2877     5114    4             M$->KQ$MBLK.LNK$=ITEM$;

   5114  0 000105   200013 236300                    LDQ   ! ITEM$,,AUTO
         0 000106   200012 473700                    LDP3  ! M$,,AUTO
         0 000107   300000 756300                    STQ   ! 0,,PR3

     2878     5115    4   M_OUT:    ADDR(ITEM$)->KQ$DPTR.X.FLGS=ADDR(DELAY$)->KQ$DPTR.X.FLGS;

   5115  0 000110   200007 470700       M_OUT        LDP0  ! @DELAY$,,AUTO
         0 000111   000000 236300                    LDQ   ! 0,,PR0
         0 000112   200013 676300                    ERQ   ! ITEM$,,AUTO
         0 000113   700000 376207                    ANQ   ! -32768,DL
         0 000114   200013 656300                    ERSQ  ! ITEM$,,AUTO
PL6.E3A0      #002=KQL$QDELAYR File=KQL$LIST.:E05TSI                             WED 07/30/97 01:33 Page:380

     2879     5116    4             DELAY$=ITEM$;

   5116  0 000115   200013 236300                    LDQ   ! ITEM$,,AUTO
         0 000116   000000 756300                    STQ   ! 0,,PR0

     2880     5117    4             RETURN;

   5117  0 000117   200006 221300                    LDX1  ! @PARM2+2,,AUTO
         0 000120   000001 702211                    TSX2  ! 1,X1

     2881     5118    4             END;
     2882     5119        /**/
     2883     5120    4             DO CASE (ADDR(DELAY$)->KQ$DPTR.X.CODE);

   5120  0 000121   000000 236300                    LDQ   ! 0,,PR0
         0 000122   000014 772200                    QRL   ! 12
         0 000123   000007 376207                    ANQ   ! 7,DL
         0 000124   000003 116207                    CMPQ  ! 3,DL
         0 000125   000127 602206 0                  TNC   ! s:5120+6,QL
         0 000126   000161 710200 0                  TRA   ! s:5130
         0 000127   000161 710200 0                  TRA   ! s:5130
         0 000130   000132 710200 0                  TRA   ! s:5122
         0 000131   000146 710200 0                  TRA   ! s:5126

     2884     5121    4               CASE (KQRA_MBLK#);

     2885     5122    4                 M$->KQ$MBLK.LNK$=D$->KQ$MBLK.LNK$;

   5122  0 000132   200011 473700                    LDP3  ! D$,,AUTO
         0 000133   300000 236300                    LDQ   ! 0,,PR3
         0 000134   200012 474700                    LDP4  ! M$,,AUTO
         0 000135   400000 756300                    STQ   ! 0,,PR4

     2886     5123    4                 ADDR(ITEM$)->KQ$DPTR.X.FLGS=ADDR(D$->KQ$MBLK.LNK$)->KQ$DPTR.X.FLGS;

   5123  0 000136   200011 473700                    LDP3  ! D$,,AUTO
PL6.E3A0      #002=KQL$QDELAYR File=KQL$LIST.:E05TSI                             WED 07/30/97 01:33 Page:381
         0 000137   300000 236300                    LDQ   ! 0,,PR3
         0 000140   200013 676300                    ERQ   ! ITEM$,,AUTO
         0 000141   700000 376207                    ANQ   ! -32768,DL
         0 000142   200013 656300                    ERSQ  ! ITEM$,,AUTO

     2887     5124    4                 D$->KQ$MBLK.LNK$=ITEM$;

   5124  0 000143   200013 236300                    LDQ   ! ITEM$,,AUTO
         0 000144   300000 756300                    STQ   ! 0,,PR3
         0 000145   000161 710200 0                  TRA   ! s:5130

     2888     5125    4               CASE (KQRA_RSTA#);

     2889     5126    4                 M$->KQ$MBLK.LNK$=D$->KQ$STA.RQLNK$;

   5126  0 000146   200011 473700                    LDP3  ! D$,,AUTO
         0 000147   300030 236300                    LDQ   ! 24,,PR3
         0 000150   200012 474700                    LDP4  ! M$,,AUTO
         0 000151   400000 756300                    STQ   ! 0,,PR4

     2890     5127    4                 ADDR(ITEM$)->KQ$DPTR.X.FLGS=ADDR(D$->KQ$STA.RQLNK$)->KQ$DPTR.X.FLGS;

   5127  0 000152   200011 473700                    LDP3  ! D$,,AUTO
         0 000153   300030 236300                    LDQ   ! 24,,PR3
         0 000154   200013 676300                    ERQ   ! ITEM$,,AUTO
         0 000155   700000 376207                    ANQ   ! -32768,DL
         0 000156   200013 656300                    ERSQ  ! ITEM$,,AUTO

     2891     5128    4                 D$->KQ$STA.RQLNK$=ITEM$;

   5128  0 000157   200013 236300                    LDQ   ! ITEM$,,AUTO
         0 000160   300030 756300                    STQ   ! 24,,PR3

     2892     5129    4             END;

     2893     5130    3           ADDR(M$->KQ$MBLK.LNK$)->KQ$DPTR.X.FLGS='0'B;

PL6.E3A0      #002=KQL$QDELAYR File=KQL$LIST.:E05TSI                             WED 07/30/97 01:33 Page:382
   5130  0 000161   200012 473700                    LDP3  ! M$,,AUTO
         0 000162   000001 236200 1                  LDQ   ! 1
         0 000163   300000 356300                    ANSQ  ! 0,,PR3

     2894     5131    3           GOTO M_OUT;

   5131  0 000164   000110 710200 0                  TRA   ! M_OUT

     2895     5132    3           END; /* INHIBIT */

   5132  0 000165   000167 710000 0                  TRA     s:5143

     2896     5133        /**/
     2897     5134        /**/
     2898     5135        /*D* NAME:         DELAYR
     2899     5136             PURPOSE:      To insert a reader's KQ$STA on a delay list
     2900     5137             CALL:         DELAYR (DELAY$,STA$);
     2901     5138             OUTPUT:       Item inserted.
     2902     5139        */
     2903     5140    2   DELAYR: ENTRY (DELAY$,MBLK$);

   5140  0 000166   200006 741300       DELAYR       STX1  ! @PARM2+2,,AUTO

     2904     5141        /**/
     2905     5142    3           DO INHIBIT;

     2906     5143    3           D$=DELAY$;

   5143  0 000167   200007 470700                    LDP0  ! @DELAY$,,AUTO
         0 000170   000000 236300                    LDQ   ! 0,,PR0
         0 000171   200011 756300                    STQ   ! D$,,AUTO

     2907     5144    3           ADDR(D$)->KQ$DPTR.X='0'B;

   5144  0 000172   000000 236203                    LDQ   ! 0,DU
         0 000173   200011 752304                    STCQ  ! D$,'04'O,AUTO

PL6.E3A0      #002=KQL$QDELAYR File=KQL$LIST.:E05TSI                             WED 07/30/97 01:33 Page:383
     2908     5145    3           ITEM$=MBLK$;

   5145  0 000174   200010 471700                    LDP1  ! @MBLK$,,AUTO
         0 000175   100000 236300                    LDQ   ! 0,,PR1
         0 000176   200013 756300                    STQ   ! ITEM$,,AUTO

     2909     5146    3           ADDR(ITEM$)->KQ$DPTR.X.CODE=KQRA_RSTA#;

   5146  0 000177   200013 236300                    LDQ   ! ITEM$,,AUTO
         0 000200   000000 376200 1                  ANQ   ! 0
         0 000201   020000 276207                    ORQ   ! 8192,DL
         0 000202   200013 756300                    STQ   ! ITEM$,,AUTO

     2910     5147    3           IF D$ = ADDR(NIL) THEN

   5147  0 000203   200011 236300                    LDQ   ! D$,,AUTO
         0 000204   000001 116200 xsym               CMPQ  ! B_VECTNIL+1
         0 000205   000222 601200 0                  TNZ   ! s:5155

     2911     5148    4             DO;

     2912     5149    4             MBLK$->KQ$STA.RQLNK$=ITEM$;

   5149  0 000206   100000 473700                    LDP3  ! 0,,PR1
         0 000207   200013 236300                    LDQ   ! ITEM$,,AUTO
         0 000210   300030 756300                    STQ   ! 24,,PR3

     2913     5150    4   R_OUT:    ADDR(ITEM$)->KQ$DPTR.X.FLGS=ADDR(DELAY$)->KQ$DPTR.X.FLGS;

   5150  0 000211   200007 470700       R_OUT        LDP0  ! @DELAY$,,AUTO
         0 000212   000000 236300                    LDQ   ! 0,,PR0
         0 000213   200013 676300                    ERQ   ! ITEM$,,AUTO
         0 000214   700000 376207                    ANQ   ! -32768,DL
         0 000215   200013 656300                    ERSQ  ! ITEM$,,AUTO

     2914     5151    4             DELAY$=ITEM$;

PL6.E3A0      #002=KQL$QDELAYR File=KQL$LIST.:E05TSI                             WED 07/30/97 01:33 Page:384
   5151  0 000216   200013 236300                    LDQ   ! ITEM$,,AUTO
         0 000217   000000 756300                    STQ   ! 0,,PR0

     2915     5152    4             RETURN;

   5152  0 000220   200006 221300                    LDX1  ! @PARM2+2,,AUTO
         0 000221   000001 702211                    TSX2  ! 1,X1

     2916     5153    4             END;
     2917     5154        /**/
     2918     5155    4             DO CASE (ADDR(DELAY$)->KQ$DPTR.X.CODE);

   5155  0 000222   000000 236300                    LDQ   ! 0,,PR0
         0 000223   000014 772200                    QRL   ! 12
         0 000224   000007 376207                    ANQ   ! 7,DL
         0 000225   000003 116207                    CMPQ  ! 3,DL
         0 000226   000230 602206 0                  TNC   ! s:5155+6,QL
         0 000227   000260 710200 0                  TRA   ! s:5165
         0 000230   000260 710200 0                  TRA   ! s:5165
         0 000231   000233 710200 0                  TRA   ! s:5157
         0 000232   000246 710200 0                  TRA   ! s:5161

     2919     5156    4               CASE (KQRA_MBLK#);

     2920     5157    4                 MBLK$->KQ$STA.RQLNK$=D$->KQ$MBLK.LNK$;

   5157  0 000233   100000 473700                    LDP3  ! 0,,PR1
         0 000234   200011 474700                    LDP4  ! D$,,AUTO
         0 000235   400000 236300                    LDQ   ! 0,,PR4
         0 000236   300030 756300                    STQ   ! 24,,PR3

     2921     5158    4                 ADDR(ITEM$)->KQ$DPTR.X.FLGS=ADDR(D$->KQ$MBLK.LNK$)->KQ$DPTR.X.FLGS;

   5158  0 000237   400000 236300                    LDQ   ! 0,,PR4
         0 000240   200013 676300                    ERQ   ! ITEM$,,AUTO
         0 000241   700000 376207                    ANQ   ! -32768,DL
         0 000242   200013 656300                    ERSQ  ! ITEM$,,AUTO
PL6.E3A0      #002=KQL$QDELAYR File=KQL$LIST.:E05TSI                             WED 07/30/97 01:33 Page:385

     2922     5159    4                 D$->KQ$MBLK.LNK$=ITEM$;

   5159  0 000243   200013 236300                    LDQ   ! ITEM$,,AUTO
         0 000244   400000 756300                    STQ   ! 0,,PR4
         0 000245   000260 710200 0                  TRA   ! s:5165

     2923     5160    4               CASE (KQRA_RSTA#);

     2924     5161    4                 MBLK$->KQ$STA.RQLNK$=D$->KQ$STA.RQLNK$;

   5161  0 000246   100000 473700                    LDP3  ! 0,,PR1
         0 000247   200011 474700                    LDP4  ! D$,,AUTO
         0 000250   400030 236300                    LDQ   ! 24,,PR4
         0 000251   300030 756300                    STQ   ! 24,,PR3

     2925     5162    4                 ADDR(ITEM$)->KQ$DPTR.X.FLGS=ADDR(D$->KQ$STA.RQLNK$)->KQ$DPTR.X.FLGS;

   5162  0 000252   400030 236300                    LDQ   ! 24,,PR4
         0 000253   200013 676300                    ERQ   ! ITEM$,,AUTO
         0 000254   700000 376207                    ANQ   ! -32768,DL
         0 000255   200013 656300                    ERSQ  ! ITEM$,,AUTO

     2926     5163    4                 D$->KQ$STA.RQLNK$=ITEM$;

   5163  0 000256   200013 236300                    LDQ   ! ITEM$,,AUTO
         0 000257   400030 756300                    STQ   ! 24,,PR4

     2927     5164    4             END;

     2928     5165    3           ADDR(MBLK$->KQ$STA.RQLNK$)->KQ$DPTR.X.FLGS='0'B;

   5165  0 000260   100000 473700                    LDP3  ! 0,,PR1
         0 000261   000001 236200 1                  LDQ   ! 1
         0 000262   300030 356300                    ANSQ  ! 24,,PR3

     2929     5166    3           GOTO R_OUT;
PL6.E3A0      #002=KQL$QDELAYR File=KQL$LIST.:E05TSI                             WED 07/30/97 01:33 Page:386

   5166  0 000263   000211 710200 0                  TRA   ! R_OUT

     2930     5167    3           END; /* INHIBIT */

     2931     5168    2   END DELAYM;

   5168  0 000264   200006 221300                    LDX1  ! @PARM2+2,,AUTO
         0 000265   000001 702211                    TSX2  ! 1,X1
         0 000266   000271 710000 0                  TRA     s:5183

     2932     5169        %EJECT;
PL6.E3A0      #002=KQL$QDELAYR File=KQL$LIST.:E05TSI                             WED 07/30/97 01:33 Page:387
     2933     5170        /**/
     2934     5171        /*F* NAME:         KQL$COUNTDLY
     2935     5172             PURPOSE:      To count the items in a delay list
     2936     5173             CALL:         KQL$COUNTDLY (DELAY$,TYP)
     2937     5174             INPUT:        TYP = KQRA_XXXX#  ---> type of item to be counted
     2938     5175             OUTPUT:       TYP = count found
     2939     5176             DESCRIPTION:  The number of items of the specified type on the
     2940     5177                           specified DELAY$ list are counted and returned in
     2941     5178                           TYP. The owning MLH's gate is assumed to be locked
     2942     5179                           upon entry and is not touched throughout.
     2943     5180        */
     2944     5181    1   KQL$COUNTDLY: ENTRY (PARM1,PARM2) ALTRET;

   5181  0 000267   000000 700200 xent  KQL$COUNTDLY TSX0  ! X66_AUTO_2
         0 000270   000020 000002                    ZERO    16,2

     2945     5182        /**/
     2946     5183    1         CALL COUNTIT (PARM1,PARM2);

   5183  0 000271   200004 236100                    LDQ     @PARM2,,AUTO
         0 000272   200010 756100                    STQ     @DELAY$+1,,AUTO
         0 000273   200003 236100                    LDQ     @PARM1,,AUTO
         0 000274   200007 756100                    STQ     @PARM2+3,,AUTO
         0 000275   000300 701000 0                  TSX1    COUNTIT
         0 000276   000000 011000                    NOP     0

     2947     5184    1         RETURN;

   5184  0 000277   000000 702200 xent               TSX2  ! X66_ARET

     2948     5185        /**/
     2949     5186    1   COUNTIT: PROC (DELAY$,COUNT);

   5186  0 000300   200006 741300       COUNTIT      STX1  ! @PARM2+2,,AUTO

     2950     5187        /**/
     2951     5188    2   DCL DELAY$ PTR;
PL6.E3A0      #002=KQL$QDELAYR File=KQL$LIST.:E05TSI                             WED 07/30/97 01:33 Page:388
     2952     5189    2   DCL COUNT UBIN;
     2953     5190    2   DCL TYP UBIN;
     2954     5191    2   DCL CODE UBIN;
     2955     5192    2   DCL D$ PTR;
     2956     5193    2   DCL DLY$ PTR;
     2957     5194        /**/
     2958     5195    2         TYP=COUNT;

   5195  0 000301   200010 470500                    LDP0    @COUNT,,AUTO
         0 000302   000000 235100                    LDA     0,,PR0
         0 000303   200011 755100                    STA     TYP,,AUTO

     2959     5196    2         COUNT=0;

   5196  0 000304   000000 450100                    STZ     0,,PR0

     2960     5197    2         DLY$=DELAY$;

   5197  0 000305   200007 471500                    LDP1    @DELAY$,,AUTO
         0 000306   100000 236100                    LDQ     0,,PR1
         0 000307   200014 756100                    STQ     DLY$,,AUTO

     2961     5198    2         ADDR(DLY$)->KQ$DPTR.X = '0'B;

   5198  0 000310   000000 236003                    LDQ     0,DU
         0 000311   200014 752104                    STCQ    DLY$,'04'O,AUTO

     2962     5199    2         IF DLY$=ADDR(NIL) THEN RETURN;

   5199  0 000312   200014 236100                    LDQ     DLY$,,AUTO
         0 000313   000001 116000 xsym               CMPQ    B_VECTNIL+1
         0 000314   000317 601000 0                  TNZ     s:5200

   5199  0 000315   200006 221300                    LDX1  ! @PARM2+2,,AUTO
         0 000316   000001 702211                    TSX2  ! 1,X1

     2963     5200    2         D$=DELAY$;
PL6.E3A0      #002=KQL$QDELAYR File=KQL$LIST.:E05TSI                             WED 07/30/97 01:33 Page:389

   5200  0 000317   100000 236100                    LDQ     0,,PR1
         0 000320   200013 756100                    STQ     D$,,AUTO

     2964     5201    2         CODE=ADDR(D$)->KQ$DPTR.X.CODE;

   5201  0 000321   200013 236100                    LDQ     D$,,AUTO
         0 000322   000014 772000                    QRL     12
         0 000323   000007 376007                    ANQ     7,DL
         0 000324   200012 756100                    STQ     CODE,,AUTO

     2965     5202    2         ADDR(D$)->KQ$DPTR.X='0'B;

   5202  0 000325   000000 236003                    LDQ     0,DU
         0 000326   200013 752104                    STCQ    D$,'04'O,AUTO

     2966     5203    3           DO WHILE('1'B);

     2967     5204    3           IF CODE=TYP THEN COUNT=COUNT+1;

   5204  0 000327   200012 236100                    LDQ     CODE,,AUTO
         0 000330   200011 116100                    CMPQ    TYP,,AUTO
         0 000331   000336 601000 0                  TNZ     s:5205

   5204  0 000332   200010 470500                    LDP0    @COUNT,,AUTO
         0 000333   000000 235100                    LDA     0,,PR0
         0 000334   000001 035007                    ADLA    1,DL
         0 000335   000000 755100                    STA     0,,PR0

     2968     5205    4             DO CASE (CODE);

   5205  0 000336   000003 116007                    CMPQ    3,DL
         0 000337   000341 602006 0                  TNC     s:5205+3,QL
         0 000340   000354 710000 0                  TRA     s:5211
         0 000341   000354 710000 0                  TRA     s:5211
         0 000342   000344 710000 0                  TRA     s:5207
         0 000343   000350 710000 0                  TRA     s:5209
PL6.E3A0      #002=KQL$QDELAYR File=KQL$LIST.:E05TSI                             WED 07/30/97 01:33 Page:390

     2969     5206    4               CASE (KQRA_MBLK#);

     2970     5207    4                 D$=D$->KQ$MBLK.LNK$;

   5207  0 000344   200013 470500                    LDP0    D$,,AUTO
         0 000345   000000 236100                    LDQ     0,,PR0
         0 000346   200013 756100                    STQ     D$,,AUTO
         0 000347   000356 710000 0                  TRA     s:5213

     2971     5208    4               CASE (KQRA_RSTA#);

     2972     5209    4                 D$=D$->KQ$STA.RQLNK$;

   5209  0 000350   200013 470500                    LDP0    D$,,AUTO
         0 000351   000030 236100                    LDQ     24,,PR0
         0 000352   200013 756100                    STQ     D$,,AUTO
         0 000353   000356 710000 0                  TRA     s:5213

     2973     5210    4               CASE (ELSE);

     2974     5211    4                 CALL SC_BCGRRC;

   5211  0 000354   000000 713400 xsym               CLIMB   SC_BCGRRC
         0 000355   000000 600000 xsid               climb   nvectors=         0

     2975     5212    4             END;

     2976     5213    3           CODE=ADDR(D$)->KQ$DPTR.X.CODE;

   5213  0 000356   200013 236100                    LDQ     D$,,AUTO
         0 000357   000014 772000                    QRL     12
         0 000360   000007 376007                    ANQ     7,DL
         0 000361   200012 756100                    STQ     CODE,,AUTO

     2977     5214    3           ADDR(D$)->KQ$DPTR.X='0'B;

PL6.E3A0      #002=KQL$QDELAYR File=KQL$LIST.:E05TSI                             WED 07/30/97 01:33 Page:391
   5214  0 000362   000000 236003                    LDQ     0,DU
         0 000363   200013 752104                    STCQ    D$,'04'O,AUTO

     2978     5215    3           IF D$=DLY$ THEN RETURN;

   5215  0 000364   200013 236100                    LDQ     D$,,AUTO
         0 000365   200014 116100                    CMPQ    DLY$,,AUTO
         0 000366   000327 601000 0                  TNZ     s:5204

   5215  0 000367   200006 221300                    LDX1  ! @PARM2+2,,AUTO
         0 000370   000001 702211                    TSX2  ! 1,X1

     2979     5216    3           END;

     2980     5217    2   END COUNTIT;
     2981     5218        %EJECT;
PL6.E3A0      #002=KQL$QDELAYR File=KQL$LIST.:E05TSI                             WED 07/30/97 01:33 Page:392
     2982     5219        /**/
     2983     5220        /*F* NAME:         KQL$DELAYDQ
     2984     5221             PURPOSE:      To dequeue a delayed item from a delay list
     2985     5222             CALL:         KQL$DELAYDQ (DELAY$,DQ$) ALTRET(DONE)
     2986     5223             DESCRIPTION:  ALTRETs if the list is empty.
     2987     5224                           Else RETURNs with DQ$, a KQ$DPTR
     2988     5225                           which points to the item.
     2989     5226
     2990     5227                           If the KQ$DPTR has any FLGS set then the caller
     2991     5228                           is expected to process them, zap the FLGS, and
     2992     5229                           return.
     2993     5230
     2994     5231                           The caller is expected to pass as DQ$, either
     2995     5232                           KQ$CG.QUEUE.DELAYDQ$ or STA$->KQ$STA.MLH.DELAYDQ$
     2996     5233                           so that KQL$RCVRDLY may be able to rebuild the
     2997     5234                           DELAY$ list if we crash before completing delivery
     2998     5235                           of the MBLK, deletion of the message list or
     2999     5236                           continuing the delayed read. It is very important
     3000     5237                           that these pointers be used so that we don't lose
     3001     5238                           a message in the event of a crash at this time.
     3002     5239        */
     3003     5240    1   KQL$DELAYDQ: ENTRY (PARM1,PARM2) ALTRET;

   5240  0 000371   000000 700200 xent  KQL$DELAYDQ  TSX0  ! X66_AUTO_2
         0 000372   000020 000002                    ZERO    16,2

     3004     5241        /**/
     3005     5242    1         CALL DEQ (PARM1,PARM2) ALTRET(ALTRT);

   5242  0 000373   200004 236100                    LDQ     @PARM2,,AUTO
         0 000374   200010 756100                    STQ     @DELAY$+1,,AUTO
         0 000375   200003 236100                    LDQ     @PARM1,,AUTO
         0 000376   200007 756100                    STQ     @PARM2+3,,AUTO
         0 000377   000403 701000 0                  TSX1    DEQ
         0 000400   000402 702000 0                  TSX2    ALTRT

     3006     5243    1         RETURN;
PL6.E3A0      #002=KQL$QDELAYR File=KQL$LIST.:E05TSI                             WED 07/30/97 01:33 Page:393

   5243  0 000401   000000 702200 xent               TSX2  ! X66_ARET

   5240  0 000402                       ALTRT        null
     3007     5244    1   ALTRT: ;
     3008     5245    1         ALTRETURN;

   5245  0 000402   000000 702200 xent               TSX2  ! X66_AALT

     3009     5246        /**/
     3010     5247    1   DEQ:  PROC (DELAY$,P$) ALTRET;

   5247  0 000403   200006 741300       DEQ          STX1  ! @PARM2+2,,AUTO

     3011     5248        /**/
     3012     5249    2   DCL DELAY$ PTR;
     3013     5250    2   DCL P$ PTR;
     3014     5251    2   DCL D$ PTR;
     3015     5252    2   DCL D1$ PTR;
     3016     5253    2   DCL D2$ PTR;
     3017     5254    2   DCL SVDELBIT BIT(1);
     3018     5255        /**/
     3019     5256    3           DO INHIBIT;

     3020     5257    3           IF DELAY$=ADDR(NIL) THEN ALTRETURN;

   5257  0 000404   200007 470700                    LDP0  ! @DELAY$,,AUTO
         0 000405   000000 236300                    LDQ   ! 0,,PR0
         0 000406   000001 116200 xsym               CMPQ  ! B_VECTNIL+1
         0 000407   000411 601200 0                  TNZ   ! s:5258

   5257  0 000410   000000 702211                    TSX2  ! 0,X1

     3021     5258    4           IF ADDR(DELAY$)->KQ$DPTR.X.FLGS THEN DO;

   5258  0 000411   000000 236300                    LDQ   ! 0,,PR0
         0 000412   700000 316207                    CANQ  ! -32768,DL
PL6.E3A0      #002=KQL$QDELAYR File=KQL$LIST.:E05TSI                             WED 07/30/97 01:33 Page:394
         0 000413   000427 600200 0                  TZE   ! s:5264

     3022     5259    4             P$=ADDR(NIL);

   5259  0 000414   000001 236200 xsym               LDQ   ! B_VECTNIL+1
         0 000415   200010 471700                    LDP1  ! @P$,,AUTO
         0 000416   100000 756300                    STQ   ! 0,,PR1

     3023     5260    4             ADDR(P$)->KQ$DPTR.X.FLGS='1'B;

   5260  0 000417   100000 236300                    LDQ   ! 0,,PR1
         0 000420   000001 376200 1                  ANQ   ! 1
         0 000421   400000 276207                    ORQ   ! -131072,DL
         0 000422   100000 756300                    STQ   ! 0,,PR1

     3024     5261    4             ADDR(DELAY$)->KQ$DPTR.X.FLGS='0'B;

   5261  0 000423   000001 236200 1                  LDQ   ! 1
         0 000424   000000 356300                    ANSQ  ! 0,,PR0

     3025     5262    4             RETURN;

   5262  0 000425   200006 221300                    LDX1  ! @PARM2+2,,AUTO
         0 000426   000001 702211                    TSX2  ! 1,X1

     3026     5263    4             END;
     3027     5264    3           D$=DELAY$;

   5264  0 000427   000000 236300                    LDQ   ! 0,,PR0
         0 000430   200011 756300                    STQ   ! D$,,AUTO

     3028     5265    3           ADDR(D$)->KQ$DPTR.X='0'B;

   5265  0 000431   000000 236203                    LDQ   ! 0,DU
         0 000432   200011 752304                    STCQ  ! D$,'04'O,AUTO

     3029     5266    4             DO CASE(ADDR(DELAY$)->KQ$DPTR.X.CODE);
PL6.E3A0      #002=KQL$QDELAYR File=KQL$LIST.:E05TSI                             WED 07/30/97 01:33 Page:395

   5266  0 000433   000000 236300                    LDQ   ! 0,,PR0
         0 000434   000014 772200                    QRL   ! 12
         0 000435   000007 376207                    ANQ   ! 7,DL
         0 000436   000003 116207                    CMPQ  ! 3,DL
         0 000437   000441 602206 0                  TNC   ! s:5266+6,QL
         0 000440   000453 710200 0                  TRA   ! s:5272
         0 000441   000453 710200 0                  TRA   ! s:5272
         0 000442   000444 710200 0                  TRA   ! s:5268
         0 000443   000447 710200 0                  TRA   ! s:5270

     3030     5267    4               CASE(KQRA_MBLK#);

     3031     5268    4                 D1$=ADDR(D$->KQ$MBLK.LNK$);

   5268  0 000444   200011 236300                    LDQ   ! D$,,AUTO
         0 000445   200012 756300                    STQ   ! D1$,,AUTO
         0 000446   000455 710200 0                  TRA   ! s:5274

     3032     5269    4               CASE(KQRA_RSTA#);

     3033     5270    4                 D1$=ADDR(D$->KQ$STA.RQLNK$);

   5270  0 000447   200011 236300                    LDQ   ! D$,,AUTO
         0 000450   000030 036203                    ADLQ  ! 24,DU
         0 000451   200012 756300                    STQ   ! D1$,,AUTO
         0 000452   000455 710200 0                  TRA   ! s:5274

     3034     5271    4               CASE (ELSE);

     3035     5272    4                 CALL SC_BCGRRC;

   5272  0 000453   000000 713600 xsym               CLIMB ! SC_BCGRRC
         0 000454   000000 600000 xsid               climb   nvectors=         0

     3036     5273    4             END;

PL6.E3A0      #002=KQL$QDELAYR File=KQL$LIST.:E05TSI                             WED 07/30/97 01:33 Page:396
     3037     5274    3           P$=D1$->B$$PTR;

   5274  0 000455   200012 470700                    LDP0  ! D1$,,AUTO
         0 000456   000000 236300                    LDQ   ! 0,,PR0
         0 000457   200010 471700                    LDP1  ! @P$,,AUTO
         0 000460   100000 756300                    STQ   ! 0,,PR1

     3038     5275    3           D2$=P$;

   5275  0 000461   200013 756300                    STQ   ! D2$,,AUTO

     3039     5276    3           ADDR(D2$)->KQ$DPTR.X='0'B;

   5276  0 000462   000000 236203                    LDQ   ! 0,DU
         0 000463   200013 752304                    STCQ  ! D2$,'04'O,AUTO

     3040     5277    3           IF D$=D2$

   5277  0 000464   200011 236300                    LDQ   ! D$,,AUTO
         0 000465   200013 116300                    CMPQ  ! D2$,,AUTO
         0 000466   000473 601200 0                  TNZ   ! s:5280

     3041     5278    3           THEN DELAY$=ADDR(NIL);

   5278  0 000467   000001 236200 xsym               LDQ   ! B_VECTNIL+1
         0 000470   200007 473700                    LDP3  ! @DELAY$,,AUTO
         0 000471   300000 756300                    STQ   ! 0,,PR3
         0 000472   000531 710200 0                  TRA   ! s:5291

     3042     5279    4           ELSE DO;

     3043     5280    4             SVDELBIT=D1$->KQ$DPTR.X.FLGS;

   5280  0 000473   000000 236300                    LDQ   ! 0,,PR0
         0 000474   000022 736200                    QLS   ! 18
         0 000475   400000 376203                    ANQ   ! -131072,DU
         0 000476   200014 756300                    STQ   ! SVDELBIT,,AUTO
PL6.E3A0      #002=KQL$QDELAYR File=KQL$LIST.:E05TSI                             WED 07/30/97 01:33 Page:397

     3044     5281    5               DO CASE(ADDR(P$)->KQ$DPTR.X.CODE);

   5281  0 000477   100000 236300                    LDQ   ! 0,,PR1
         0 000500   000014 772200                    QRL   ! 12
         0 000501   000007 376207                    ANQ   ! 7,DL
         0 000502   000003 116207                    CMPQ  ! 3,DL
         0 000503   000505 602206 0                  TNC   ! s:5281+6,QL
         0 000504   000520 710200 0                  TRA   ! s:5287
         0 000505   000520 710200 0                  TRA   ! s:5287
         0 000506   000510 710200 0                  TRA   ! s:5283
         0 000507   000514 710200 0                  TRA   ! s:5285

     3045     5282    5                 CASE(KQRA_MBLK#);

     3046     5283    5                   D1$->B$$PTR=D2$->KQ$MBLK.LNK$;

   5283  0 000510   200013 473700                    LDP3  ! D2$,,AUTO
         0 000511   300000 236300                    LDQ   ! 0,,PR3
         0 000512   000000 756300                    STQ   ! 0,,PR0
         0 000513   000522 710200 0                  TRA   ! s:5289

     3047     5284    5                 CASE(KQRA_RSTA#);

     3048     5285    5                   D1$->B$$PTR=D2$->KQ$STA.RQLNK$;

   5285  0 000514   200013 473700                    LDP3  ! D2$,,AUTO
         0 000515   300030 236300                    LDQ   ! 24,,PR3
         0 000516   000000 756300                    STQ   ! 0,,PR0
         0 000517   000522 710200 0                  TRA   ! s:5289

     3049     5286    5                 CASE (ELSE);

     3050     5287    5                   CALL SC_BCGRRC;

   5287  0 000520   000000 713600 xsym               CLIMB ! SC_BCGRRC
         0 000521   000000 600000 xsid               climb   nvectors=         0
PL6.E3A0      #002=KQL$QDELAYR File=KQL$LIST.:E05TSI                             WED 07/30/97 01:33 Page:398

     3051     5288    5               END;

     3052     5289    4             D1$->KQ$DPTR.X.FLGS=SVDELBIT;

   5289  0 000522   200012 470700                    LDP0  ! D1$,,AUTO
         0 000523   200014 236300                    LDQ   ! SVDELBIT,,AUTO
         0 000524   400000 376203                    ANQ   ! -131072,DU
         0 000525   000022 772200                    QRL   ! 18
         0 000526   000000 676300                    ERQ   ! 0,,PR0
         0 000527   700000 376207                    ANQ   ! -32768,DL
         0 000530   000000 656300                    ERSQ  ! 0,,PR0

     3053     5290    4             END;

     3054     5291    4             DO CASE(ADDR(P$)->KQ$DPTR.X.CODE);

   5291  0 000531   200010 471700                    LDP1  ! @P$,,AUTO
         0 000532   100000 236300                    LDQ   ! 0,,PR1
         0 000533   000014 772200                    QRL   ! 12
         0 000534   000007 376207                    ANQ   ! 7,DL
         0 000535   000003 116207                    CMPQ  ! 3,DL
         0 000536   000540 602206 0                  TNC   ! s:5291+7,QL
         0 000537   000567 710200 0                  TRA   ! s:5299
         0 000540   000567 710200 0                  TRA   ! s:5299
         0 000541   000543 710200 0                  TRA   ! s:5293
         0 000542   000555 710200 0                  TRA   ! s:5296

     3055     5292    4               CASE(KQRA_MBLK#);

     3056     5293    4                 ADDR(DELAY$)->KQ$DPTR.X.FLGS=ADDR(D2$->KQ$MBLK.LNK$)->KQ$DPTR.X.FLGS;

   5293  0 000543   200007 473700                    LDP3  ! @DELAY$,,AUTO
         0 000544   200013 474700                    LDP4  ! D2$,,AUTO
         0 000545   400000 236300                    LDQ   ! 0,,PR4
         0 000546   300000 676300                    ERQ   ! 0,,PR3
         0 000547   700000 376207                    ANQ   ! -32768,DL
PL6.E3A0      #002=KQL$QDELAYR File=KQL$LIST.:E05TSI                             WED 07/30/97 01:33 Page:399
         0 000550   300000 656300                    ERSQ  ! 0,,PR3

     3057     5294    4                 D2$->KQ$MBLK.LNK$=ADDR(NIL);

   5294  0 000551   000001 236200 xsym               LDQ   ! B_VECTNIL+1
         0 000552   200013 474700                    LDP4  ! D2$,,AUTO
         0 000553   400000 756300                    STQ   ! 0,,PR4
         0 000554   000571 710200 0                  TRA   ! s:5302

     3058     5295    4               CASE(KQRA_RSTA#);

     3059     5296    4                ADDR(DELAY$)->KQ$DPTR.X.FLGS=ADDR(D2$->KQ$STA.RQLNK$)->KQ$DPTR.X.FLGS;

   5296  0 000555   200007 473700                    LDP3  ! @DELAY$,,AUTO
         0 000556   200013 474700                    LDP4  ! D2$,,AUTO
         0 000557   400030 236300                    LDQ   ! 24,,PR4
         0 000560   300000 676300                    ERQ   ! 0,,PR3
         0 000561   700000 376207                    ANQ   ! -32768,DL
         0 000562   300000 656300                    ERSQ  ! 0,,PR3

     3060     5297    4                 D2$->KQ$STA.RQLNK$=ADDR(NIL);

   5297  0 000563   000001 236200 xsym               LDQ   ! B_VECTNIL+1
         0 000564   200013 474700                    LDP4  ! D2$,,AUTO
         0 000565   400030 756300                    STQ   ! 24,,PR4
         0 000566   000571 710200 0                  TRA   ! s:5302

     3061     5298    4               CASE (ELSE);

     3062     5299    4                 CALL SC_BCGRRC;

   5299  0 000567   000000 713600 xsym               CLIMB ! SC_BCGRRC
         0 000570   000000 600000 xsid               climb   nvectors=         0

     3063     5300    4             END;

     3064     5301    3           END; /* INHIBIT */
PL6.E3A0      #002=KQL$QDELAYR File=KQL$LIST.:E05TSI                             WED 07/30/97 01:33 Page:400

     3065     5302    2   END DEQ;

   5302  0 000571   200006 221300                    LDX1  ! @PARM2+2,,AUTO
         0 000572   000001 702211                    TSX2  ! 1,X1

     3066     5303        %EJECT;
PL6.E3A0      #002=KQL$QDELAYR File=KQL$LIST.:E05TSI                             WED 07/30/97 01:33 Page:401
     3067     5304        /**/
     3068     5305        /*F* NAME:         KQL$RCVRDLY
     3069     5306             PURPOSE:      To recover a crashed delay list
     3070     5307             CALL:         CALL KQL$RCVRDLY(DELAY$,DQ$)
     3071     5308                             where DELAY$ is KQ$CG.QUEUE.DELAY$ for the anon-Q
     3072     5309                                          or KQ$STA.MLH.DELAY$ for a directed list
     3073     5310                               and DQ$ is KQ$CG.QUEUE.DELAYDQ$ for the anon-Q
     3074     5311                                       or KQ$STA.MLH.DELAYDQ$ for a directed list
     3075     5312             DESCRIPTION:  When the anon-Q or an MLH is busy and some process
     3076     5313                           needs to access the MLH, we place this process on
     3077     5314                           the DELAY$ list for later processing. The DELAY$
     3078     5315                           list may then have on it MBLKs for messages waiting
     3079     5316                           to be written into the list or STATION blocks for
     3080     5317                           readers waiting to read the list. Also, the
     3081     5318                           delete-message-list process is ordered on the
     3082     5319                           DELAY$ chain by setting a bit in an item's pointer
     3083     5320                           to the next item. The deletion process is to occur
     3084     5321                           AFTER the block carrying the pointer is processed.
     3085     5322                           This delete bit (KQ$DPTR.X.FLGS) is carried around
     3086     5323                           in the chain until it makes its way onto the DELAY$
     3087     5324                           pointer. At this point, the list is to deleted.
     3088     5325
     3089     5326                           When a process which restricts access to an MLH
     3090     5327                           completes, it must call KQL$xDFDUN(L) to process
     3091     5328                           this DELAY$ list (among other things). When we
     3092     5329                           process this list, we MUST make sure we don't lose
     3093     5330                           any MBLKs or neglect to delete the message list if
     3094     5331                           a SCREECH occurs. In order to do this, we place
     3095     5332                           the process's block (STATION or MBLK) on the
     3096     5333                           DELAYDQ$ pointer. This is then examined when we
     3097     5334                           re-open a CG and this procedure is called to
     3098     5335                           re-build the DELAY$ list.
     3099     5336        */
     3100     5337    1   KQL$RCVRDLY: ENTRY (PARM1,PARM2) ALTRET;

   5337  0 000573   000000 700200 xent  KQL$RCVRDLY  TSX0  ! X66_AUTO_2
         0 000574   000020 000002                    ZERO    16,2
PL6.E3A0      #002=KQL$QDELAYR File=KQL$LIST.:E05TSI                             WED 07/30/97 01:33 Page:402

     3101     5338        /**/
     3102     5339    1         CALL RCVR (PARM1,PARM2);

   5339  0 000575   200004 236100                    LDQ     @PARM2,,AUTO
         0 000576   200010 756100                    STQ     @DELAY$+1,,AUTO
         0 000577   200003 236100                    LDQ     @PARM1,,AUTO
         0 000600   200007 756100                    STQ     @PARM2+3,,AUTO
         0 000601   000604 701000 0                  TSX1    RCVR
         0 000602   000000 011000                    NOP     0

     3103     5340    1         RETURN;

   5340  0 000603   000000 702200 xent               TSX2  ! X66_ARET

     3104     5341        /**/
     3105     5342    1   RCVR: PROC (DELAY$,DQ$);

   5342  0 000604   200006 741300       RCVR         STX1  ! @PARM2+2,,AUTO

     3106     5343        /**/
     3107     5344    2   DCL DELAY$ PTR;
     3108     5345    2   DCL DQ$ PTR;
     3109     5346    2   DCL DQ$R REDEF DQ$ UBIN;
     3110     5347    2   DCL D$ PTR;
     3111     5348    2   DCL MBLK$ PTR;
     3112     5349    2   DCL P$ PTR;
     3113     5350    2   DCL DELBIT BIT(1);
     3114     5351        /**/
     3115     5352    3           DO INHIBIT;

     3116     5353    3           IF DQ$=ADDR(NIL) OR DQ$R=0 OR ADDR(DQ$)->KQ$DPTR.X.CODE=KQRA_RSTA#

   5353  0 000605   200010 470700                    LDP0  ! @DQ$,,AUTO
         0 000606   000000 236300                    LDQ   ! 0,,PR0
         0 000607   000001 116200 xsym               CMPQ  ! B_VECTNIL+1
         0 000610   000732 600200 0                  TZE   ! NILOUT
PL6.E3A0      #002=KQL$QDELAYR File=KQL$LIST.:E05TSI                             WED 07/30/97 01:33 Page:403
         0 000611   000000 235300                    LDA   ! 0,,PR0
         0 000612   000732 600200 0                  TZE   ! NILOUT
         0 000613   000000 236300                    LDQ   ! 0,,PR0
         0 000614   070000 376207                    ANQ   ! 28672,DL
         0 000615   020000 116207                    CMPQ  ! 8192,DL
         0 000616   000732 600200 0                  TZE   ! NILOUT

     3117     5354    3           THEN GOTO NILOUT;
     3118     5355    4           IF ADDR(DQ$)->KQ$DPTR.X.FLGS THEN DO;

   5355  0 000617   000000 236300                    LDQ   ! 0,,PR0
         0 000620   700000 316207                    CANQ  ! -32768,DL
         0 000621   000630 600200 0                  TZE   ! s:5359

     3119     5356    4             ADDR(DELAY$)->KQ$DPTR.X.FLGS='1'B;

   5356  0 000622   200007 471700                    LDP1  ! @DELAY$,,AUTO
         0 000623   100000 236300                    LDQ   ! 0,,PR1
         0 000624   000001 376200 1                  ANQ   ! 1
         0 000625   400000 276207                    ORQ   ! -131072,DL
         0 000626   100000 756300                    STQ   ! 0,,PR1

     3120     5357    4             GOTO NILOUT;

   5357  0 000627   000732 710200 0                  TRA   ! NILOUT

     3121     5358    4             END;
     3122     5359    3           ADDR(DQ$)->KQ$DPTR.X.CODE=KQRA_MBLK#;

   5359  0 000630   000000 376200 1                  ANQ   ! 0
         0 000631   010000 276207                    ORQ   ! 4096,DL
         0 000632   000000 756300                    STQ   ! 0,,PR0

     3123     5360                             /* We must put KQRA_MBLK# into the code field since     */
     3124     5361                             /* we obliterate the CODE field to turn the KQ$DPTR     */
     3125     5362                             /* to make it look like a pointer when we try to        */
     3126     5363                             /* deliver the MBLK out of KQW$XMITxxx.                 */
PL6.E3A0      #002=KQL$QDELAYR File=KQL$LIST.:E05TSI                             WED 07/30/97 01:33 Page:404
     3127     5364    3           DELBIT=ADDR(DELAY$)->KQ$DPTR.X.FLGS;

   5364  0 000633   200007 471700                    LDP1  ! @DELAY$,,AUTO
         0 000634   100000 236300                    LDQ   ! 0,,PR1
         0 000635   000022 736200                    QLS   ! 18
         0 000636   400000 376203                    ANQ   ! -131072,DU
         0 000637   200014 756300                    STQ   ! DELBIT,,AUTO

     3128     5365    3           ADDR(DELAY$)->KQ$DPTR.X.FLGS='0'B;

   5365  0 000640   000001 236200 1                  LDQ   ! 1
         0 000641   100000 356300                    ANSQ  ! 0,,PR1

     3129     5366    3           MBLK$=DQ$;

   5366  0 000642   000000 236300                    LDQ   ! 0,,PR0
         0 000643   200012 756300                    STQ   ! MBLK$,,AUTO

     3130     5367    3           ADDR(MBLK$)->KQ$DPTR.X='0'B;

   5367  0 000644   000000 236203                    LDQ   ! 0,DU
         0 000645   200012 752304                    STCQ  ! MBLK$,'04'O,AUTO

     3131     5368    3           IF DELAY$=ADDR(NIL)

   5368  0 000646   100000 236300                    LDQ   ! 0,,PR1
         0 000647   000001 116200 xsym               CMPQ  ! B_VECTNIL+1
         0 000650   000666 601200 0                  TNZ   ! s:5375

     3132     5369    4           THEN DO;

     3133     5370    4             DELAY$=DQ$;

   5370  0 000651   000000 236300                    LDQ   ! 0,,PR0
         0 000652   100000 756300                    STQ   ! 0,,PR1

     3134     5371    4             MBLK$->KQ$MBLK.LNK$=DQ$;
PL6.E3A0      #002=KQL$QDELAYR File=KQL$LIST.:E05TSI                             WED 07/30/97 01:33 Page:405

   5371  0 000653   000000 236300                    LDQ   ! 0,,PR0
         0 000654   200012 473700                    LDP3  ! MBLK$,,AUTO
         0 000655   300000 756300                    STQ   ! 0,,PR3

     3135     5372    4             ADDR(MBLK$->KQ$MBLK.LNK$)->KQ$DPTR.X.FLGS=DELBIT;

   5372  0 000656   200012 473700                    LDP3  ! MBLK$,,AUTO
         0 000657   200014 236300                    LDQ   ! DELBIT,,AUTO
         0 000660   400000 376203                    ANQ   ! -131072,DU
         0 000661   000022 772200                    QRL   ! 18
         0 000662   300000 676300                    ERQ   ! 0,,PR3
         0 000663   700000 376207                    ANQ   ! -32768,DL
         0 000664   300000 656300                    ERSQ  ! 0,,PR3

     3136     5373    4             END;

   5373  0 000665   000732 710200 0                  TRA   ! NILOUT

     3137     5374    4           ELSE DO;

     3138     5375    4             D$=DELAY$;

   5375  0 000666   200011 756300                    STQ   ! D$,,AUTO

     3139     5376    4             ADDR(D$)->KQ$DPTR.X='0'B;

   5376  0 000667   000000 236203                    LDQ   ! 0,DU
         0 000670   200011 752304                    STCQ  ! D$,'04'O,AUTO

     3140     5377    5               DO CASE(ADDR(DELAY$)->KQ$DPTR.X.CODE);

   5377  0 000671   100000 236300                    LDQ   ! 0,,PR1
         0 000672   000014 772200                    QRL   ! 12
         0 000673   000007 376207                    ANQ   ! 7,DL
         0 000674   000003 116207                    CMPQ  ! 3,DL
         0 000675   000677 602206 0                  TNC   ! s:5377+6,QL
PL6.E3A0      #002=KQL$QDELAYR File=KQL$LIST.:E05TSI                             WED 07/30/97 01:33 Page:406
         0 000676   000710 710200 0                  TRA   ! s:5383
         0 000677   000710 710200 0                  TRA   ! s:5383
         0 000700   000702 710200 0                  TRA   ! s:5379
         0 000701   000705 710200 0                  TRA   ! s:5381

     3141     5378    5                 CASE(KQRA_MBLK#);

     3142     5379    5                   P$=ADDR(D$->KQ$MBLK.LNK$);

   5379  0 000702   200011 236300                    LDQ   ! D$,,AUTO
         0 000703   200013 756300                    STQ   ! P$,,AUTO
         0 000704   000710 710200 0                  TRA   ! s:5383

     3143     5380    5                 CASE(KQRA_RSTA#);

     3144     5381    5                   P$=ADDR(D$->KQ$STA.RQLNK$);

   5381  0 000705   200011 236300                    LDQ   ! D$,,AUTO
         0 000706   000030 036203                    ADLQ  ! 24,DU
         0 000707   200013 756300                    STQ   ! P$,,AUTO

     3145     5382    5               END;

     3146     5383    4             MBLK$->KQ$MBLK.LNK$=P$->B$$PTR;

   5383  0 000710   200013 473700                    LDP3  ! P$,,AUTO
         0 000711   300000 236300                    LDQ   ! 0,,PR3
         0 000712   200012 474700                    LDP4  ! MBLK$,,AUTO
         0 000713   400000 756300                    STQ   ! 0,,PR4

     3147     5384    4             P$->B$$PTR=DQ$;

   5384  0 000714   000000 236300                    LDQ   ! 0,,PR0
         0 000715   300000 756300                    STQ   ! 0,,PR3

     3148     5385    4             P$->KQ$DPTR.X.FLGS=ADDR(MBLK$->KQ$MBLK.LNK$)->KQ$DPTR.X.FLGS;

PL6.E3A0      #002=KQL$QDELAYR File=KQL$LIST.:E05TSI                             WED 07/30/97 01:33 Page:407
   5385  0 000716   200012 474700                    LDP4  ! MBLK$,,AUTO
         0 000717   400000 236300                    LDQ   ! 0,,PR4
         0 000720   300000 676300                    ERQ   ! 0,,PR3
         0 000721   700000 376207                    ANQ   ! -32768,DL
         0 000722   300000 656300                    ERSQ  ! 0,,PR3

     3149     5386    4             ADDR(MBLK$->KQ$MBLK.LNK$)->KQ$DPTR.X.FLGS=DELBIT;

   5386  0 000723   200012 474700                    LDP4  ! MBLK$,,AUTO
         0 000724   200014 236300                    LDQ   ! DELBIT,,AUTO
         0 000725   400000 376203                    ANQ   ! -131072,DU
         0 000726   000022 772200                    QRL   ! 18
         0 000727   400000 676300                    ERQ   ! 0,,PR4
         0 000730   700000 376207                    ANQ   ! -32768,DL
         0 000731   400000 656300                    ERSQ  ! 0,,PR4

     3150     5387    4             END;

   5386  0 000732                       NILOUT       null
     3151     5388    3   NILOUT: ;
     3152     5389    3           DQ$=ADDR(NIL);

   5389  0 000732   000001 236200 xsym               LDQ   ! B_VECTNIL+1
         0 000733   000000 756300                    STQ   ! 0,,PR0

     3153     5390    3           RETURN;

   5390  0 000734   200006 221300                    LDX1  ! @PARM2+2,,AUTO
         0 000735   000001 702211                    TSX2  ! 1,X1

     3154     5391    3           END; /* INHIBIT */

     3155     5392    2   END RCVR;

   5392  0 000736   000001 702211                    TSX2  ! 1,X1

(unnamed)
PL6.E3A0      #002=KQL$QDELAYR File=KQL$LIST.:E05TSI                             WED 07/30/97 01:33 Page:408
 Sect OctLoc
   1     000   777777 707777   777777 077777                                    ......?.
     3156     5393    1   END KQL$QDELAYR;

PL6.E3A0      #002=KQL$QDELAYR File=KQL$LIST.:E05TSI                             WED 07/30/97 01:33 Page:409
--  Include file information  --

   KC_CP6.:E05TOU  is referenced.
   KC$CP6V_C.:E05TOU  is referenced.
   KQ_MAC_C.:E05TOU  is referenced.
   KQ_SUBS_C.:E05TOU  is referenced.
      No diagnostics issued in procedure KQL$QDELAYR.
PL6.E3A0      #002=KQL$QDELAYR File=KQL$LIST.:E05TSI                             WED 07/30/97 01:33 Page:410

 **** Variables and constants ****

  ****  Auto variables  ****

  ****  Scalars and arrays  ****
OctLoc.c.b A Datatyp(siz) R M Lvl/name                 OctLoc.c.b A Datatyp(siz) R M Lvl/name

    10-0-0/w PTR         r     1 @COUNT                     7-0-0/w PTR         r     1 @DELAY$
     7-0-0/w PTR         r     1 @DELAY$                    7-0-0/w PTR         r     1 @DELAY$
     7-0-0/w PTR         r     1 @DELAY$                   10-0-0/w PTR         r     1 @DQ$
    10-0-0/w PTR         r     1 @MBLK$                    10-0-0/w PTR         r     1 @P$
     3-0-0/w PTR         r     1 @PARM1                     4-0-0/w PTR         r     1 @PARM2
    12-0-0/w UBIN        r     1 CODE                      *0-0-0/w UBIN        r     1 COUNT
    11-0-0/w PTR         r     1 D$                        13-0-0/w PTR         r     1 D$
    11-0-0/w PTR         r     1 D$                        11-0-0/w PTR         r     1 D$
    12-0-0/w PTR         r     1 D1$                       13-0-0/w PTR         r     1 D2$
    *0-0-0/w PTR         r     1 DELAY$                    *0-0-0/w PTR         r     1 DELAY$
    *0-0-0/w PTR         r     1 DELAY$                    *0-0-0/w PTR         r     1 DELAY$
    14-0-0/b BIT         r     1 DELBIT                    14-0-0/w PTR         r     1 DLY$
    *0-0-0/w PTR         r     1 DQ$                       *0-0-0/w UBIN        r     1 DQ$R
    13-0-0/w PTR         r     1 ITEM$                     12-0-0/w PTR         r     1 M$
    *0-0-0/w PTR         r     1 MBLK$                     12-0-0/w PTR         r     1 MBLK$
    *0-0-0/w PTR         r     1 P$                        13-0-0/w PTR         r     1 P$
    *0-0-0/w UBIN        r     1 PARM1                     *0-0-0/w UBIN        r     1 PARM2
    14-0-0/b BIT         r     1 SVDELBIT                  11-0-0/w UBIN        r     1 TYP

  ****  BASED and DCB variables  ****

  ****  Scalars and arrays  ****
OctLoc.c.b A Datatyp(siz) R M Lvl/name                 OctLoc.c.b A Datatyp(siz) R M Lvl/name

     0-0-0/w PTR         r     1 B$$PTR                     0-0-0/d STRC(6516)  r     1 KQ$CG
     0-0-0/w STRC        r     1 KQ$DPTR                    0-0-0/d STRC(576)   r     1 KQ$MBLK
     0-0-0/w STRC(288)   r     1 KQ$MLH                     0-0-0/d STRC(1296)  r     1 KQ$STA

PL6.E3A0      #002=KQL$QDELAYR File=KQL$LIST.:E05TSI                             WED 07/30/97 01:33 Page:411

   Procedure KQL$QDELAYR requires 479 words for executable code.
   Procedure KQL$QDELAYR requires 16 words of local(AUTO) storage.

    No errors detected in file KQL$LIST.:E05TSI    .
PL6.E3A0      #002=KQL$QDELAYR File=KQL$LIST.:E05TSI                             WED 07/30/97 01:33 Page:412
          *** CROSS REFERENCE LISTING ***
**     DENOTES     IDENTIFIER DEFINITION
<<                 IDENTIFIER'S VALUE SET
>>                 IDENTIFIER'S VALUE USED
<>                 IDENTIFIER SET AND/OR USED
--                 IDENTIFIER REFERENCED
PL6.E3A0      #002=KQL$QDELAYR File=KQL$LIST.:E05TSI                             WED 07/30/97 01:33 Page:413
          MINI XREF LISTING

ALTRT
      5240**LABEL    5242--CALLALT
B$$PTR
      3574**DCL      5274>>ASSIGN   5283<<ASSIGN   5285<<ASSIGN   5383>>ASSIGN   5384<<ASSIGN
CODE IN PROCEDURE COUNTIT
      5191**DCL      5201<<ASSIGN   5204>>IF       5205>>DOCASE   5213<<ASSIGN
COUNT IN PROCEDURE COUNTIT
      5189**DCL      5186--PROC     5195>>ASSIGN   5196<<ASSIGN   5204<<ASSIGN   5204>>ASSIGN
COUNTIT
      5186**PROC     5183--CALL
D$ IN PROCEDURE COUNTIT
      5192**DCL      5200<<ASSIGN   5201--ASSIGN   5202--ASSIGN   5207<<ASSIGN   5207>>ASSIGN   5209<<ASSIGN
      5209>>ASSIGN   5213--ASSIGN   5214--ASSIGN   5215>>IF
D$ IN PROCEDURE DELAYM
      5101**DCL      5106<<ASSIGN   5107--ASSIGN   5112>>IF       5122>>ASSIGN   5123>>ASSIGN   5124>>ASSIGN
      5126>>ASSIGN   5127>>ASSIGN   5128>>ASSIGN   5143<<ASSIGN   5144--ASSIGN   5147>>IF       5157>>ASSIGN
      5158>>ASSIGN   5159>>ASSIGN   5161>>ASSIGN   5162>>ASSIGN   5163>>ASSIGN
D$ IN PROCEDURE DEQ
      5251**DCL      5264<<ASSIGN   5265--ASSIGN   5268>>ASSIGN   5270>>ASSIGN   5277>>IF
D$ IN PROCEDURE RCVR
      5347**DCL      5375<<ASSIGN   5376--ASSIGN   5379>>ASSIGN   5381>>ASSIGN
D1$ IN PROCEDURE DEQ
      5252**DCL      5268<<ASSIGN   5270<<ASSIGN   5274>>ASSIGN   5280>>ASSIGN   5283>>ASSIGN   5285>>ASSIGN
      5289>>ASSIGN
D2$ IN PROCEDURE DEQ
      5253**DCL      5275<<ASSIGN   5276--ASSIGN   5277>>IF       5283>>ASSIGN   5285>>ASSIGN   5293>>ASSIGN
      5294>>ASSIGN   5296>>ASSIGN   5297>>ASSIGN
DELAY$ IN PROCEDURE COUNTIT
      5188**DCL      5186--PROC     5197>>ASSIGN   5200>>ASSIGN
DELAY$ IN PROCEDURE DELAYM
      5099**DCL      5097--PROC     5106>>ASSIGN   5115--ASSIGN   5116<<ASSIGN   5120--DOCASE   5140--ENTRY
      5143>>ASSIGN   5150--ASSIGN   5151<<ASSIGN   5155--DOCASE
PL6.E3A0      #002=KQL$QDELAYR File=KQL$LIST.:E05TSI                             WED 07/30/97 01:33 Page:414
DELAY$ IN PROCEDURE DEQ
      5249**DCL      5247--PROC     5257>>IF       5258--IF       5261--ASSIGN   5264>>ASSIGN   5266--DOCASE
      5278<<ASSIGN   5293--ASSIGN   5296--ASSIGN
DELAY$ IN PROCEDURE RCVR
      5344**DCL      5342--PROC     5356--ASSIGN   5364--ASSIGN   5365--ASSIGN   5368>>IF       5370<<ASSIGN
      5375>>ASSIGN   5377--DOCASE
DELAYM
      5097**PROC     5060--CALL     5088--CALL
DELAYR IN PROCEDURE DELAYM
      5140**ENTRY    5045--CALL     5073--CALL
DELBIT IN PROCEDURE RCVR
      5350**DCL      5364<<ASSIGN   5372>>ASSIGN   5386>>ASSIGN
DEQ
      5247**PROC     5242--CALL
DLY$ IN PROCEDURE COUNTIT
      5193**DCL      5197<<ASSIGN   5198--ASSIGN   5199>>IF       5215>>IF
DQ$ IN PROCEDURE RCVR
      5345**DCL      5342--PROC     5346--REDEF    5353>>IF       5353--IF       5355--IF       5359--ASSIGN
      5366>>ASSIGN   5370>>ASSIGN   5371>>ASSIGN   5384>>ASSIGN   5389<<ASSIGN
DQ$R IN PROCEDURE RCVR
      5346**DCL      5353>>IF
ITEM$ IN PROCEDURE DELAYM
      5103**DCL      5110<<ASSIGN   5111--ASSIGN   5114>>ASSIGN   5115--ASSIGN   5116>>ASSIGN   5123--ASSIGN
      5124>>ASSIGN   5127--ASSIGN   5128>>ASSIGN   5145<<ASSIGN   5146--ASSIGN   5149>>ASSIGN   5150--ASSIGN
      5151>>ASSIGN   5158--ASSIGN   5159>>ASSIGN   5162--ASSIGN   5163>>ASSIGN
KQ$CG.AUCTL.DVBYTE.REREAD
      4669**DCL      4670--REDEF
KQ$CG.QUEUE.DELAY$
      4463**DCL      5045<>CALL     5060<>CALL
KQ$DPTR.X
      3592**DCL      5107<<ASSIGN   5144<<ASSIGN   5198<<ASSIGN   5202<<ASSIGN   5214<<ASSIGN   5265<<ASSIGN
      5276<<ASSIGN   5367<<ASSIGN   5376<<ASSIGN
KQ$DPTR.X.CODE
      3597**DCL      5111<<ASSIGN   5120>>DOCASE   5146<<ASSIGN   5155>>DOCASE   5201>>ASSIGN   5213>>ASSIGN
      5266>>DOCASE   5281>>DOCASE   5291>>DOCASE   5353>>IF       5359<<ASSIGN   5377>>DOCASE
KQ$DPTR.X.FLGS
PL6.E3A0      #002=KQL$QDELAYR File=KQL$LIST.:E05TSI                             WED 07/30/97 01:33 Page:415
      3595**DCL      5115<<ASSIGN   5115>>ASSIGN   5123<<ASSIGN   5123>>ASSIGN   5127<<ASSIGN   5127>>ASSIGN
      5130<<ASSIGN   5150<<ASSIGN   5150>>ASSIGN   5158<<ASSIGN   5158>>ASSIGN   5162<<ASSIGN   5162>>ASSIGN
      5165<<ASSIGN   5258>>IF       5260<<ASSIGN   5261<<ASSIGN   5280>>ASSIGN   5289<<ASSIGN   5293<<ASSIGN
      5293>>ASSIGN   5296<<ASSIGN   5296>>ASSIGN   5355>>IF       5356<<ASSIGN   5364>>ASSIGN   5365<<ASSIGN
      5372<<ASSIGN   5385<<ASSIGN   5385>>ASSIGN   5386<<ASSIGN
KQ$MBLK.DVE.EOMCHAR
      4056**DCL      4058--REDEF
KQ$MBLK.KEY1
      3982**DCL      3984--REDEF
KQ$MBLK.KEY2
      3991**DCL      4009--REDEF
KQ$MBLK.LNK$
      3956**DCL      3958--REDEF    3964--REDEF    3968--REDEF    5109>>ASSIGN   5114<<ASSIGN   5122<<ASSIGN
      5122>>ASSIGN   5123--ASSIGN   5124<<ASSIGN   5126<<ASSIGN   5130--ASSIGN   5157>>ASSIGN   5158--ASSIGN
      5159<<ASSIGN   5207>>ASSIGN   5268--ASSIGN   5283>>ASSIGN   5293--ASSIGN   5294<<ASSIGN   5371<<ASSIGN
      5372--ASSIGN   5379--ASSIGN   5383<<ASSIGN   5385--ASSIGN   5386--ASSIGN
KQ$MBLK.TYC
      4105**DCL      4107--REDEF
KQ$MBLK.XSP.MREQ$
      4011**DCL      4015--REDEF
KQ$MLH.DELAY$
      4972**DCL      5073<>CALL     5088<>CALL
KQ$STA.ACTTYC
      3668**DCL      3672--REDEF
KQ$STA.DCBLNK$
      3675**DCL      3678--REDEF    3682--REDEF
KQ$STA.EVCNT
      3761**DCL      3764--REDEF
KQ$STA.EVNT
      3727**DCL      3731--REDEF    3734--REDEF
KQ$STA.OPNBLKED
      3788**DCL      3791--REDEF
KQ$STA.OPNREJ
      3794**DCL      3796--REDEF
KQ$STA.RQLNK$
      3852**DCL      5126>>ASSIGN   5127--ASSIGN   5128<<ASSIGN   5149<<ASSIGN   5157<<ASSIGN   5161<<ASSIGN
PL6.E3A0      #002=KQL$QDELAYR File=KQL$LIST.:E05TSI                             WED 07/30/97 01:33 Page:416
      5161>>ASSIGN   5162--ASSIGN   5163<<ASSIGN   5165--ASSIGN   5209>>ASSIGN   5270--ASSIGN   5285>>ASSIGN
      5296--ASSIGN   5297<<ASSIGN   5381--ASSIGN
KQ$STA.SUCCREAD
      3717**DCL      3721--REDEF
KQ$STA.TCOUNT
      3846**DCL      3852--REDEF
KQ$STA.VGOT$
      3831**DCL      3835--REDEF    3839--REDEF
M$ IN PROCEDURE DELAYM
      5102**DCL      5108<<ASSIGN   5110>>ASSIGN   5114>>ASSIGN   5122>>ASSIGN   5126>>ASSIGN   5130>>ASSIGN
MBLK$ IN PROCEDURE DELAYM
      5100**DCL      5097--PROC     5108>>ASSIGN   5109<<ASSIGN   5109>>ASSIGN   5140--ENTRY    5145>>ASSIGN
      5149>>ASSIGN   5157>>ASSIGN   5161>>ASSIGN   5165>>ASSIGN
MBLK$ IN PROCEDURE RCVR
      5348**DCL      5366<<ASSIGN   5367--ASSIGN   5371>>ASSIGN   5372>>ASSIGN   5383>>ASSIGN   5385>>ASSIGN
      5386>>ASSIGN
M_OUT IN PROCEDURE DELAYM
      5115**LABEL    5131--GOTO
NILOUT IN PROCEDURE RCVR
      5386**LABEL    5354--GOTO     5357--GOTO
P$ IN PROCEDURE DEQ
      5250**DCL      5247--PROC     5259<<ASSIGN   5260--ASSIGN   5274<<ASSIGN   5275>>ASSIGN   5281--DOCASE
      5291--DOCASE
P$ IN PROCEDURE RCVR
      5349**DCL      5379<<ASSIGN   5381<<ASSIGN   5383>>ASSIGN   5384>>ASSIGN   5385>>ASSIGN
PARM1
      3566**DCL        22--PROC     5045--CALL     5057--ENTRY    5060--CALL     5070--ENTRY    5073--CALL
      5085--ENTRY    5088--CALL     5181--ENTRY    5183<>CALL     5240--ENTRY    5242<>CALL     5337--ENTRY
      5339<>CALL
PARM2
      3567**DCL        22--PROC     5045--CALL     5057--ENTRY    5060<>CALL     5070--ENTRY    5073--CALL
      5085--ENTRY    5088<>CALL     5181--ENTRY    5183<>CALL     5240--ENTRY    5242<>CALL     5337--ENTRY
      5339<>CALL
RCVR
      5342**PROC     5339--CALL
R_OUT IN PROCEDURE DELAYM
PL6.E3A0      #002=KQL$QDELAYR File=KQL$LIST.:E05TSI                             WED 07/30/97 01:33 Page:417
      5150**LABEL    5166--GOTO
SC_BCGRRC
      5032**DCL-ENT  5211--CALL     5272--CALL     5287--CALL     5299--CALL
SVDELBIT IN PROCEDURE DEQ
      5254**DCL      5280<<ASSIGN   5289>>ASSIGN
TYP IN PROCEDURE COUNTIT
      5190**DCL      5195<<ASSIGN   5204>>IF
