VERSION E05

PL6.E3A0      #001=KQM$INIT File=KQM$MM.:E05TSI                                  WED 07/30/97 01:30 Page:1
        1        1        /*M* KQM$MM Memory management routines for COMGROUP QUEUE */
        2        2        /*T***********************************************************/
        3        3        /*T*                                                         */
        4        4        /*T* Copyright (c) Bull HN Information Systems Inc., 1997    */
        5        5        /*T*                                                         */
        6        6        /*T***********************************************************/
        7        7        /*X* DMC,PLM=6,IND=0,IDT=2,SDI=2,CTI=0,ENU=0,AND,DCI=4,CSU=2,ECU=4,THI=0,DTI=0,STI=1
                 7        ,IAD=0,PRB */
        8        8        /**/
        9        9        /*P* NAME:         KQM$MM
       10       10             PURPOSE:      To provide memory management for comgroups
       11       11              DESCRIPTION: This module contains two compile units.
       12       12
       13       13                           The first is concerned with memory management
       14       14                           that is in some sense global to all comgroups.
       15       15                           Specifically, allocation and deallocation of
       16       16                           comgroup context & descriptor segment blocks.
       17       17                           Comgroup context blocks for different comgroups
       18       18                           lie side by side in the same pages.  These
       19       19                           routines manage those pages, as well as the
       20       20                           chain of context blocks for active comgroups.
       21       21
       22       22                           The second is concerned with allocation and
       23       23                           release of memory on behalf of a particular
       24       24                           comgroup.  The data blocks for a given comgroup
       25       25                           lie in pages wholly owned by that comgroup,
       26       26                           and are chained together, with the chain heads
       27       27                           living in the comgroup context block.
       28       28        */
       29       29        /**/
       30       30        KQM$INIT: PROC (KQ$CG,MEM$) ALTRET;
       31       31        /**/
       32       32
       33       33
       34       34
       35       35        /**/
       36       36        /* INCLUDES */
PL6.E3A0      #001=KQM$INIT File=KQM$MM.:E05TSI                                  WED 07/30/97 01:30 Page:2
       37       37        /**/
       38       38        %INCLUDE KQ_SUBS_C;
       39      338        %INCLUDE KQ_MAC_C;
       40     2888        %INCLUDE HF_LOCK_C;
       41     2902        %INCLUDE KQM_MAC_C;
       42     3275        %INCLUDE KQ_ERRORS_C;
       43     3323        %INCLUDE KQ_DATA_R;
       44     4155        %INCLUDE B$JIT_C;
       45     4469        %INCLUDE UD_SEV_C;
       46     4483        %INCLUDE KC$CP6V_C;
       47     4603        %INCLUDE B_LSDATA_C;
       48     7809        %INCLUDE M_INFO_C;
       49     7949        %INCLUDE KC_CP6;
       50     8509        %INCLUDE B_STRINGS_C;
       51     8638        %INCLUDE F$DCB;
       52     8687        %INCLUDE FM$CFU;
       53     8732        %INCLUDE FM$FIT;
       54     8953        %INCLUDE FM$GRAN;
       55     9022        %INCLUDE SS_SCHED_C;
       56     9255
       57     9256
       58     9257
       59     9258        /**/
       60     9259        /* MACROS */
       61     9260        /**/
       62     9261        %MACRO $ERROR (NAME=GORGO,CODE=0,SEV=SEV_ERROR#);
       63     9262        DCL 1 NAME CONSTANT ALIGNED,
       64     9263              2 * BIT(18) UNAL INIT('132115'O),
       65     9264              2 * UBIN(15) UNAL INIT(CODE),
       66     9265              2 * UBIN(3) UNAL INIT(SEV);
       67     9266        %MEND;
       68     9267
       69     9268
       70     9269
       71     9270        /**/
       72     9271        /* PARAMETERS */
       73     9272        /**/
PL6.E3A0      #001=KQM$INIT File=KQM$MM.:E05TSI                                  WED 07/30/97 01:30 Page:3
       74     9273        %KQ_CG (FPTN=KQ$CG,STCLASS="");
       75    10012    1   DCL MEM$ PTR;
       76    10013    1   DCL NEWLIM REDEF MEM$ UBIN;
       77    10014
       78    10015
       79    10016
       80    10017        /**/
       81    10018        /* BASED STRUCTURES */
       82    10019        /**/
       83    10020    1   DCL 1 B$$ASR BASED DALIGNED,
       84    10021    1         2 BOUND UBIN(20) UNAL,
       85    10022    1         2 FLG BIT(9) UNAL,
       86    10023    1         2 W UBIN(3) UNAL,
       87    10024    1         2 T UBIN(4) UNAL,
       88    10025    1         2 BASE UBIN(36) UNAL;
       89    10026        %KQ_FB (FPTN=KQ$FB,STCLASS=BASED);
       90    10048        %KQ_DSB  (FPTN=KQ$DSB ,STCLASS=BASED);
       91    10091        %KQ_BAP  (FPTN=KQ$BAP ,STCLASS=BASED);
       92    10180        %KQ_ACB  (FPTN=KQ$ACB ,STCLASS=BASED);
       93    10210        %KQ_CG   (FPTN=K$CG   ,STCLASS=BASED);
       94    10949        %KQ_MMSD (FPTN=KQ$MMSD,STCLASS="BASED(KQ_MMSD$)");
       95    10986    1   DCL 1 B$$PAGE BASED ALIGNED,
       96    10987    1         2 * CHAR(4096) UNAL;
       97    10988    1   DCL B$$PTR PTR BASED ALIGNED;
       98    10989    1   DCL 1 B$$PTRR BASED ALIGNED,
       99    10990    1         2 COFF UBIN(20) UNAL,
      100    10991    1         2 * UBIN(16) UNAL;
      101    10992        %B$JIT0;
      102    11081        %U$JIT1X;
      103    11084        %M$JIT2X;
      104    11087        %F$JIT3;
      105    11092        %A$JIT6X;
      106    11095        %FM$CFU;
      107    11101        %FM$CFUA;
      108    11107        %FM$GRAN;
      109    11111        %CODE14;
      110    11121
PL6.E3A0      #001=KQM$INIT File=KQM$MM.:E05TSI                                  WED 07/30/97 01:30 Page:4
      111    11122
      112    11123
      113    11124        /**/
      114    11125        /* AUTO */
      115    11126        /**/
      116    11127    1   DCL PAGE$ PTR;
      117    11128    1   DCL I UBIN;
      118    11129    1   DCL J UBIN;
      119    11130    1   DCL HKP UBIN;
      120    11131    1   DCL CAP$ PTR;
      121    11132    1   DCL 1 CAP$R REDEF CAP$,
      122    11133    1         2 PG# UBIN(8) UNAL,
      123    11134    1         2 OTHER UBIN(16) UNAL,
      124    11135    1         2 SEGID UBIN(12) UNAL;
      125    11136    1   DCL P$ PTR;
      126    11137    1   DCL BLK$ PTR;
      127    11138    1   DCL ACB$ PTR;
      128    11139    1   DCL CG$ PTR;
      129    11140    1   DCL DSB$ PTR;
      130    11141    1   DCL ERRCODE UBIN;
      131    11142    1   DCL MMQERR REDEF ERRCODE UBIN;
      132    11143
      133    11144
      134    11145
      135    11146        /**/
      136    11147        /* CONSTANT */
      137    11148        /**/
      138    11149        %$ERROR (NAME=E_CGCXT,CODE=%E$CGCXT);
      139    11155        %KQ_ACB (FPTN=ACB_INIT,STCLASS=CONSTANT);
      140    11185
      141    11186
      142    11187
      143    11188        /**/
      144    11189        /* REFS */
      145    11190        /**/
      146    11191    1   DCL FMD$REDBUFBC  ENTRY(6) ALTRET;
      147    11192    1   DCL FMD$RELBUF    ENTRY(1);
PL6.E3A0      #001=KQM$INIT File=KQM$MM.:E05TSI                                  WED 07/30/97 01:30 Page:5
      148    11193    1   DCL FMO$LOCCODP   ENTRY(2) ALTRET;
      149    11194    1   DCL HFC$CACHECLR  ENTRY;
      150    11195    1   DCL KQM$GETB      ENTRY(3) ALTRET;
      151    11196    1   DCL KQM$GETDFR    ENTRY(3) ALTRET;
      152    11197    1   DCL KQM$GETMIN    ENTRY(3) ALTRET;
      153    11198    1   DCL KQM$RELB      ENTRY(3) ALTRET;
      154    11199    1   DCL KQX$LDASR     ENTRY(1) ALTRET;
      155    11200    1   DCL MMQ$GCCP      ENTRY(3) ALTRET;
      156    11201    1   DCL MMQ$GCAP      ENTRY(3) ALTRET;
      157    11202    1   DCL MMQ$TRUNCDSB  ENTRY(3) ALTRET;
      158    11203    1   DCL MMQ$TRUNCDSBL ENTRY(3) ALTRET;
      159    11204    1   DCL MMQ$ZAPCPUS   ENTRY    ALTRET;
      160    11205    1   DCL SSR$REG       ENTRY(3) ALTRET;
      161    11206    1   DCL SC_BCGMMQ     ENTRY    CONV(2,0);
      162    11207
      163    11208    1   DCL B$JIT$ PTR SYMREF;
      164    11209    1   DCL F$CFU$ PTR SYMREF READONLY;
      165    11210    1   DCL KQ_MMSD$ PTR SYMREF READONLY;
      166    11211        %KQ_DSB (FPTN=KQ_IDSB,STCLASS=SYMREF);
      167    11254        %KQ_BAP (FPTN=KQ_IBAP,STCLASS=SYMREF);
      168    11343        %KQ_CG (FPTN=KQ_ICG,STCLASS=SYMREF);
      169    12082        %EJECT;
PL6.E3A0      #001=KQM$INIT File=KQM$MM.:E05TSI                                  WED 07/30/97 01:30 Page:6
      170    12083        /*F* NAME:         KQM$INIT
      171    12084             PURPOSE:      To initialize a COMGROUP's context
      172    12085             DESCRIPTION:  This routine allocates space for a CG context
      173    12086                           block and then moves the passed context block
      174    12087                           into it, returning MEM$ pointing to the allocated
      175    12088                           block.  Next, it allocates/finds the appropriate
      176    12089                           account block, and increments its use count,
      177    12090                           setting KQ$CG.ACB$ to point to the account
      178    12091                           block.  Next, it allocates a descriptor segment
      179    12092                           for the CG and initializes it to empty, planting
      180    12093                           the DSB pointer in the CG context block, and then
      181    12094                           loads the descriptor register to frame the (empty)
      182    12095                           data space descriptor segment.  Then it
      183    12096                           placed the context block on the linear list of
      184    12097                           all comgroup context blocks.  Finally, it
      185    12098                           returns.  If either of the above cannot be obtained,
      186    12099                           it ALTRETs with the appropriate error code in
      187    12100                           B$JIT.ERR, and nothing allocated.
      188    12101
      189    12102        KQM$INIT: ENTRY (KQ$CG,MEM$) ALTRET;    */
      190    12103
      191    12104    1         CALL GETCXT ALTRET(NOCXT);
      192    12105    1         CG$->K$CG=KQ$CG;
      193    12106    1         CALL FINDACB ALTRET(NOCXT1);
      194    12107    1         CALL GETDSB ALTRET(NOCXT0);
      195    12108    1         CG$->K$CG.MMD.DSB$=DSB$;
      196    12109                                /* INITIALIZE THE DSB & LOAD ASR */
      197    12110    1         DSB$->KQ$DSB=KQ_IDSB;
      198    12111    1         ADDR(DSB$->KQ$DSB.ASR)->B$$ASR.BOUND=SIZEC(KQ$DSB.DESC)-1;
      199    12112    1         P$=ADDR(DSB$->KQ$DSB.DESC);
      200    12113    1         ADDR(DSB$->KQ$DSB.ASR)->B$$ASR.BASE=ADDR(P$)->B$$PTRR.COFF;
      201    12114    1         CALL KQX$LDASR (CG$->K$CG);
      202    12115    1         CALL ADDCG;
      203    12116    1         MEM$=CG$;
      204    12117    1         RETURN;
      205    12118    1   NOCXT0:;
      206    12119    1         CALL DECRACB;
PL6.E3A0      #001=KQM$INIT File=KQM$MM.:E05TSI                                  WED 07/30/97 01:30 Page:7
      207    12120    1   NOCXT1:;
      208    12121    1         CALL RELCXT;
      209    12122    1   NOCXT:;
      210    12123    1         B$JIT.ERR=E_CGCXT;
      211    12124    1         IF ERRCODE ~= %E$CGMPLC THEN
      212    12125    1          B$JIT.ERR.CODE=ERRCODE;
      213    12126        /*E* ERROR:        KQM-E$CGCXT-E
      214    12127             MESSAGE:      Unable to allocate context for your COMGROUP
      215    12128             MESSAGE1:     No memory was available for the initial context
      216    12129                           of your COMGROUP, therefore it cannot be opened. */
      217    12130    1   ALTRT:;
      218    12131    1         ALTRETURN;
      219    12132        /*F* NAME:         KQM$SHUTDOWN
      220    12133             PURPOSE:      To release a CG's context
      221    12134             DESCRIPTION:  The context and descriptor segment blocks are
      222    12135                           released.
      223    12136
      224    12137                           All the CG's pages must have been released before
      225    12138                           calling here.
      226    12139        */
      227    12140    1   KQM$SHUTDOWN: ENTRY (KQ$CG) ALTRET; /* !!Doesn't ALTRET!! */
      228    12141
      229    12142    1         IF KQ$CG.MMD.DSB$ ~= ADDR(NIL) THEN
      230    12143    2           DO;
      231    12144    2           DSB$=KQ$CG.MMD.DSB$;
      232    12145    2           KQ$CG.MMD.DSB$=ADDR(NIL);
      233    12146    2           CALL RELDSB;
      234    12147    2           END;
      235    12148        /**/
      236    12149    1         CG$=ADDR(KQ$CG);
      237    12150    1         CALL DECRACB;
      238    12151    1         CALL REMCG;
      239    12152    1         CALL RELCXT;
      240    12153    1         RETURN;
      241    12154        %EJECT;
PL6.E3A0      #001=KQM$INIT File=KQM$MM.:E05TSI                                  WED 07/30/97 01:30 Page:8
      242    12155        /**/
      243    12156        /*F* NAME:         KQM$USECACHE
      244    12157             PURPOSE:      To turn on use-cache bits in all comgroup
      245    12158                           descriptors
      246    12159             DESCRIPTION:  Called when going from multi- to mono-processing.
      247    12160        */
      248    12161    1   KQM$USECACHE: ENTRY ALTRET; /* !!Doesn't ALTRET!! */
      249    12162        /**/
      250    12163    1         J=1;
      251    12164    1         GOTO CACHE;
      252    12165        /**/
      253    12166        /*F* NAME:         KQM$BYPASSCACHE
      254    12167             PURPOSE:      To turn off use-cache bits in all comgroup
      255    12168                           descriptors
      256    12169             DESCRIPTION:  Called when going from mono- to multi-processing.
      257    12170        */
      258    12171    1   KQM$BYPASSCACHE: ENTRY ALTRET; /* !!Doesn't ALTRET!! */
      259    12172        /**/
      260    12173    1         J=0;
      261    12174    1   CACHE:;
      262    12175    1         CG$=KQ$MMSD.CGHEAD$;
      263    12176    2           DO WHILE (CG$ ~= ADDR(NIL));
      264    12177    2           DSB$=CG$->K$CG.MMD.DSB$;
      265    12178    2           IF DSB$ ~= ADDR(NIL) THEN
      266    12179    3             DO;
      267    12180    4               DO I = 0 TO KQM_MDPC#;
      268    12181    4               IF J = 0 THEN
      269    12182    4                DSB$->KQ$DSB.DESC.FLG(I)=DSB$->KQ$DSB.DESC.FLG(I)&(~%DSCACHE);
      270    12183    4               ELSE DSB$->KQ$DSB.DESC.FLG(I)=DSB$->KQ$DSB.DESC.FLG(I)|%DSCACHE;
      271    12184    4               END;
      272    12185    3             END;
      273    12186    2           CG$=CG$->K$CG.LNK$;
      274    12187    2           END;
      275    12188    1         RETURN;
      276    12189        /**/
      277    12190        /*F* NAME:         KQM$UPDA
      278    12191             PURPOSE:      To update an account's memory limits
PL6.E3A0      #001=KQM$INIT File=KQM$MM.:E05TSI                                  WED 07/30/97 01:30 Page:9
      279    12192             CALL:         KQM$UPDA (,CURPGLIM)
      280    12193             INPUT:        B$JIT.DCB$->F$DCB with ACCT & SETX
      281    12194                           User is REGable
      282    12195             DESCRIPTION:  Finds the ACB.  If none, exit.  Else if it's
      283    12196                           being inited, REG & try again.  Then stuff the
      284    12197                           new value in.
      285    12198        */
      286    12199    1   KQM$UPDA: ENTRY (KQ$CG,MEM$) ALTRET; /* !!Doesn't ALTRET!! */
      287    12200        /**/
      288    12201    1         CALL LOCACB ALTRET(NOUPDA);
      289    12202    1         ACB$->KQ$ACB.CURPGLIM=NEWLIM;
      290    12203    1   NOUPDA:;
      291    12204              %UNLOCK (G=KQ_CGLGATE);
      292    12207    1         RETURN;
      293    12208        /**/
      294    12209        /*F* NAME:         KQM$TRUNCDSBS
      295    12210             PURPOSE:      To help trunc all open comgroups of their
      296    12211                           page table chunks
      297    12212             INPUT:        MM gate locked
      298    12213             DESCRIPTION:  Calls MMQ$TRUNCDSB for each open comgroup
      299    12214        */
      300    12215    1   KQM$TRUNCDSBS: ENTRY ALTRET; /* !!Doesn't ALTRET!! */
      301    12216        /**/
      302    12217    1         CG$=KQ$MMSD.CGHEAD$;
      303    12218    2           DO WHILE (CG$ ~= ADDR(NIL));
      304    12219    2           IF CG$->K$CG.CLOCK THEN
      305    12220    2            CALL MMQ$TRUNCDSB (,CG$->K$CG.MMD.DSB$->KQ$DSB,MMQERR);
      306    12221    2           CG$=CG$->K$CG.LNK$;
      307    12222    2           END;
      308    12223    1         RETURN;
      309    12224        %EJECT;
PL6.E3A0      #001=KQM$INIT File=KQM$MM.:E05TSI                                  WED 07/30/97 01:30 Page:10
      310    12225        /**/
      311    12226        /*********************************************************************************
      312    12227        *                                                                                *
      313    12228        *   SSS   U   U  BBBB   RRRR    OOO   U   U  TTTTT   III   N   N  EEEEE   SSS    *
      314    12229        *  S   S  U   U  B   B  R   R  O O O  U   U    T      I    N   N  E      S   S   *
      315    12230        *  S      U   U  B   B  R   R  O O O  U   U    T      I    NN  N  E      S       *
      316    12231        *   SSS   U   U  BBBB   RRRR   O  OO  U   U    T      I    N N N  EEEE    SSS    *
      317    12232        *      S  U   U  B   B  R R    O   O  U   U    T      I    N  NN  E          S   *
      318    12233        *  S   S  U   U  B   B  R  R   O   O  U   U    T      I    N   N  E      S   S   *
      319    12234        *   SSS    UUU   BBBB   R   R   OOO    UUU     T     III   N   N  EEEEE   SSS    *
      320    12235        *                                                                                *
      321    12236        *********************************************************************************/
      322    12237
      323    12238        /****************************************************************
      324    12239        *****************************************************************/
      325    12240        /*D* NAME:         ADDCG
      326    12241             PURPOSE:      To add a comgroup to the system list
      327    12242             DESCRIPTION:  The CG context block pointed to by CG$ is
      328    12243                           added to the list of active CGs. */
      329    12244    1   ADDCG: PROC ALTRET;
      330    12245              %LOCK (G=KQ_CGLGATE);
      331    12248    2         CG$->K$CG.LNK$=KQ$MMSD.CGHEAD$;
      332    12249    2         KQ$MMSD.CGHEAD$=CG$;
      333    12250    2   DUN:  ;
      334    12251              %UNLOCK (G=KQ_CGLGATE);
      335    12254    2         RETURN;
      336    12255        /****************************************************************
      337    12256        *****************************************************************/
      338    12257        /*D* NAME:         REMCG
      339    12258             PURPOSE:      To remove a comgroup from the system list
      340    12259             DESCRIPTION:  The comgroup context block pointed to by CG$
      341    12260                           is removed from the list of active CGs.
      342    12261                           ALTRET if not found in the list. */
      343    12262    2   REMCG: ENTRY ALTRET;
      344    12263              %LOCK (G=KQ_CGLGATE);
      345    12266    2         P$=KQ$MMSD.CGHEAD$;
      346    12267    2         IF P$ = CG$ THEN
PL6.E3A0      #001=KQM$INIT File=KQM$MM.:E05TSI                                  WED 07/30/97 01:30 Page:11
      347    12268    3           DO;
      348    12269    3           KQ$MMSD.CGHEAD$=CG$->K$CG.LNK$;
      349    12270    3           GOTO DUN;
      350    12271    3           END;
      351    12272    2         ELSE
      352    12273    3           DO WHILE (P$ ~= ADDR(NIL));
      353    12274    3           IF P$->K$CG.LNK$ = CG$ THEN
      354    12275    4             DO;
      355    12276    4             P$->K$CG.LNK$=CG$->K$CG.LNK$;
      356    12277    4             GOTO DUN;
      357    12278    4             END;
      358    12279    3           P$=P$->K$CG.LNK$;
      359    12280    3           END;
      360    12281              %UNLOCK (G=KQ_CGLGATE);
      361    12284    2         ALTRETURN;
      362    12285    2   END ADDCG;
      363    12286        /****************************************************************
      364    12287        *****************************************************************/
      365    12288        /*D* NAME:         GETCXT
      366    12289             PURPOSE:      To allocate a CG context block
      367    12290             DESCRIPTION:  CG context blocks live on pages mapped thru the
      368    12291                           first section of the CG page table.  The first
      369    12292                           such page to be allocated gets a context block
      370    12293                           stuck into it.  This context block is pointed
      371    12294                           to by KQ$MMSD.CCXT$, and its block allocation
      372    12295                           page (its initial one), is the page in which
      373    12296                           it lives.  This context block is used for block
      374    12297                           allocation from the context block area, nescessary
      375    12298                           for allocation of comgroup-related stuff which
      376    12299                           needs to be always visible.  The comgroup block-
      377    12300                           allocation routines (KQM$GET?, KQM$REL?) check
      378    12301                           for context block address = KQ$MMSD.CCXT$, and get
      379    12302                           or release the appropriate type of page if so.
      380    12303
      381    12304                           A similar scheme is used for DSB allocation, even
      382    12305                           though it is not strictly nescessary, for unlike
      383    12306                           the context block pages, DSB pages (which are
PL6.E3A0      #001=KQM$INIT File=KQM$MM.:E05TSI                                  WED 07/30/97 01:30 Page:12
      384    12307                           houskeeping) only have blocks of one size (the
      385    12308                           size of a DSB) allocated from them.
      386    12309
      387    12310                           If can't get space, ALTRETs with ERRCODE set.
      388    12311        */
      389    12312    1   GETCXT: PROC ALTRET;
      390    12313    2         HKP=0;
      391    12314    2         CALL GET ALTRET(ALTRT);
      392    12315    2         CG$=BLK$;
      393    12316    2         RETURN;
      394    12317        /*D* NAME:         GETDSB
      395    12318             PURPOSE:      To allocate a CG descriptor segment block
      396    12319             DESCRIPTION:  CG descriptor segment blocks live on housekeeping
      397    12320                           pages allocated for that purpose alone.  Allocation
      398    12321                           is handled like GETCXT. */
      399    12322    2   GETDSB: ENTRY ALTRET;
      400    12323    2         HKP=1;
      401    12324    2         CALL GET ALTRET(ALTRT);
      402    12325    2         DSB$=BLK$;
      403    12326    2         RETURN;
      404    12327    2   ALTRT:;
      405    12328    2         ALTRETURN;
      406    12329    2   GET:  PROC ALTRET;
      407    12330              %LOCK (G=KQ$MMSD.GATE);
      408    12333    3         IF HKP = 0 THEN
      409    12334    4           DO;
      410    12335    4           IF KQ$MMSD.CCXT$ = ADDR(NIL) THEN
      411    12336    5             DO;
      412    12337    5             CALL MMQ$GCCP (CAP$,,J) ALTRET(ALTRT);
      413    12338    5             CALL INITPG;
      414    12339    5             KQ$MMSD.CCXT$=P$;
      415    12340    5             END;
      416    12341    4           END;
      417    12342    3         ELSE IF KQ$MMSD.DCXT$ = ADDR(NIL) THEN
      418    12343    4            DO;
      419    12344    4            CALL MMQ$GCAP (CAP$,,J) ALTRET(ALTRT);
      420    12345    4            CALL INITPG;
PL6.E3A0      #001=KQM$INIT File=KQM$MM.:E05TSI                                  WED 07/30/97 01:30 Page:13
      421    12346    4            KQ$MMSD.DCXT$=P$;
      422    12347    4            END;
      423    12348    3         IF HKP = 0 THEN
      424    12349    4           DO;
      425    12350    4           J=SIZEW(K$CG);
      426    12351    4           CALL KQM$GETB (KQ$MMSD.CCXT$->K$CG,BLK$,J) ALTRET(ALTRT);
      427    12352    4           END;
      428    12353    3         ELSE
      429    12354    4           DO;
      430    12355    4           J=SIZEW(KQ$DSB);
      431    12356    4           CALL KQM$GETB (KQ$MMSD.DCXT$->K$CG,BLK$,J) ALTRET(NOGOT);
      432    12357    4           GOTO GOTIT;
      433    12358    4   NOGOT:  ;
      434    12359    4           CALL DIGEMUP;
      435    12360    4           CALL KQM$GETB (KQ$MMSD.DCXT$->K$CG,BLK$,J) ALTRET(ALTRT);
      436    12361    4   GOTIT:  ;
      437    12362    4           END;
      438    12363              %UNLOCK (G=KQ$MMSD.GATE);
      439    12366    3         RETURN;
      440    12367    3   ALTRT:;
      441    12368    3         ERRCODE=J;
      442    12369              %UNLOCK (G=KQ$MMSD.GATE);
      443    12372    3         ALTRETURN;
      444    12373    3   INITPG: PROC;
      445    12374                      /*  Init the page obtained by sticking a context block
      446    12375                          in it, and making it look like a block-allocation
      447    12376                          page for that 'comgroup' */
      448    12377
      449    12378                      /*  Return P$ = ADDR(CONTEXT BLOCK) */
      450    12379
      451    12380    4         CAP$->B$$PAGE='0'B;
      452    12381    4         CAP$->KQ$BAP=KQ_IBAP;
      453    12382    4         CAP$->KQ$BAP.FREESIZE=1024-SIZEW(KQ$BAP)-SIZEW(K$CG);
      454    12383    4         P$=PINCRW(CAP$,SIZEW(KQ$BAP));
      455    12384    4         BLK$=PINCRW(P$,SIZEW(K$CG));
      456    12385    4         P$->K$CG=KQ_ICG;
      457    12386    4         P$->K$CG.MMD.CURPG=1;
PL6.E3A0      #001=KQM$INIT File=KQM$MM.:E05TSI                                  WED 07/30/97 01:30 Page:14
      458    12387    4         P$->K$CG.AUCTL.MINPG=1;
      459    12388    4         P$->K$CG.AUCTL.MAXPG=1000;
      460    12389    4         P$->K$CG.MMD.MINBPG=1;
      461    12390    4         P$->K$CG.MMD.MAXBPG=1000;
      462    12391    4         P$->K$CG.MMD.HEAD$=CAP$;
      463    12392    4         BLK$->KQ$FB.FLNK$=ADDR(NIL);
      464    12393    4         BLK$->KQ$FB.BLNK$=ADDR(NIL);
      465    12394    4         BLK$->KQ$FB.SIZE=CAP$->KQ$BAP.FREESIZE;
      466    12395    4         CAP$->KQ$BAP.CG$=P$;
      467    12396    4         CAP$->KQ$BAP.JUHEAD$=BLK$;
      468    12397    4         CAP$->KQ$BAP.JUTAIL$=BLK$;
      469    12398    4         CAP$->KQ$BAP.HDR.SELF$=CAP$;
      470    12399    4         RETURN;
      471    12400    4   END INITPG;
      472    12401    3   END GET;
      473    12402    2   END GETCXT;
      474    12403        /****************************************************************
      475    12404        *****************************************************************/
      476    12405        /*D* NAME:         RELCXT
      477    12406             PURPOSE:      To release a CG context block
      478    12407             DESCRIPTION:  The block is released into the fake 'comgroup'
      479    12408                           pointed to by KQ$MMSD.CCXT$
      480    12409        */
      481    12410    1   RELCXT: PROC;
      482    12411    2         CALL KQM$RELB (KQ$MMSD.CCXT$->K$CG,CG$,SIZEW(K$CG));
      483    12412    2         RETURN;
      484    12413    2   END RELCXT;
      485    12414        /****************************************************************
      486    12415        *****************************************************************/
      487    12416        /*D* NAME:         RELDSB
      488    12417             PURPOSE:      To release a CG descriptor segment block
      489    12418             DESCRIPTION:  Since we cache the comgroup's descriptor
      490    12419                           segment even when running slave CPUs,
      491    12420                           we cannot simply release the DSB.  If
      492    12421                           we did, then it might be immediately
      493    12422                           acquired by some other new comgroup and
      494    12423                           used.  This would be terrible if some
PL6.E3A0      #001=KQM$INIT File=KQM$MM.:E05TSI                                  WED 07/30/97 01:30 Page:15
      495    12424                           other CPU was looking at the comgroup
      496    12425                           we're now shutting down, and then went
      497    12426                           on to look at the new one, because he
      498    12427                           would have the wrong descriptors in
      499    12428                           his cache (KCC$CLOCK is an example of
      500    12429                           a guy who might get drilled this way).
      501    12430
      502    12431                           The solution is to 'hide' the DSB instead
      503    12432                           of releasing it.  When the number of
      504    12433                           hidden ones gets too big to put up with
      505    12434                           (i.e. we're wasting a lot of memory on
      506    12435                           them), or when someone tries to get a
      507    12436                           DSB and cannot, we bring them out of
      508    12437                           hiding.  In order to do this, we must
      509    12438                           clear the cache of every running CPU.
      510    12439
      511    12440                           The buried DSBs are headed by KQ$MMSD.CRYPT$,
      512    12441                           and the count is KQ$MMSD.CRYPTCNT.
      513    12442        */
      514    12443    1   RELDSB: PROC;
      515    12444        /**/
      516    12445                          /*    First strip the DSB of
      517    12446                           *    all its comgroup page table
      518    12447                           *    chunks.
      519    12448                           */
      520    12449    2         CALL MMQ$TRUNCDSBL (,DSB$->KQ$DSB,MMQERR) ALTRET(BADREL);
      521    12450    2   REL0: ;
      522    12451              %LOCK (G=KQ$MMSD.GATE);
      523    12454    2         DSB$->KQ$DSB.CRYPT.LNK$=KQ$MMSD.CRYPT$;
      524    12455    2         KQ$MMSD.CRYPT$=DSB$;
      525    12456    2         KQ$MMSD.CRYPTCNT=KQ$MMSD.CRYPTCNT+1;
      526    12457    2         IF KQ$MMSD.CRYPTCNT >= %KQ_BDMAX# THEN
      527    12458    2          CALL DIGEMUP;
      528    12459              %UNLOCK (G=KQ$MMSD.GATE);
      529    12462    2         RETURN;
      530    12463    2   BADREL:;
      531    12464    2         CALL SC_BCGMMQ; /* See KQM$MM2 for extract */
PL6.E3A0      #001=KQM$INIT File=KQM$MM.:E05TSI                                  WED 07/30/97 01:30 Page:16
      532    12465    2         GOTO REL0;
      533    12466    2   END RELDSB;
      534    12467        /****************************************************************
      535    12468        *****************************************************************/
      536    12469        /*D* NAME:         DIGEMUP
      537    12470             PURPOSE:      To dig up all the buried DSBs
      538    12471             INPUT:        KQ$MMSD.GATE locked
      539    12472             DESCRIPTION:  Releases all the buried DSBs, and clears
      540    12473                           everyone's cache.
      541    12474
      542    12475                           Leaves gate locked.
      543    12476        */
      544    12477    1   DIGEMUP: PROC;
      545    12478        /**/
      546    12479    2         IF KQ$MMSD.CRYPTCNT = 0 THEN RETURN;
      547    12480    2         KQ_STATS.CRYPTOPN=KQ_STATS.CRYPTOPN+1;
      548    12481    2         CALL HFC$CACHECLR;
      549    12482    3           DO WHILE (KQ$MMSD.CRYPT$ ~= ADDR(NIL));
      550    12483    3           DSB$=KQ$MMSD.CRYPT$;
      551    12484    3           KQ$MMSD.CRYPT$=DSB$->KQ$DSB.CRYPT.LNK$;
      552    12485    3           KQ$MMSD.CRYPTCNT=KQ$MMSD.CRYPTCNT-1;
      553    12486    3           CALL KQM$RELB (KQ$MMSD.DCXT$->K$CG,DSB$,SIZEW(KQ$DSB));
      554    12487    3           END;
      555    12488    2         CALL MMQ$ZAPCPUS;
      556    12489    2         RETURN;
      557    12490    2   END DIGEMUP;
      558    12491        /****************************************************************
      559    12492        *****************************************************************/
      560    12493        /*D* NAME:         FINDACB
      561    12494             PURPOSE:      To find/setup the account block for a CG
      562    12495             DESCRIPTION:  B$JIT.DCB$ points to a DCB with the comgroup's
      563    12496                           account & SETX.  This is used to find the correct
      564    12497                           account block, or allocate a newie & merge in the
      565    12498                           correct info.  The use count in the ACB is incred
      566    12499                           and its address stored in the CG context block
      567    12500                           pointed to by CG$.
      568    12501
PL6.E3A0      #001=KQM$INIT File=KQM$MM.:E05TSI                                  WED 07/30/97 01:30 Page:17
      569    12502                           If a account block cannot be allocated, we ALTRET,
      570    12503                           with ERRCODE set.
      571    12504        */
      572    12505    1   FINDACB: PROC ALTRET;
      573    12506        /**/
      574    12507    2   DCL FIT$ PTR;
      575    12508        /**/
      576    12509    2         CALL LOCACB ALTRET(NEWACB);
      577    12510    2         ACB$->KQ$ACB.USECNT=ACB$->KQ$ACB.USECNT+1;
      578    12511    2   DONE: ;
      579    12512    2         CG$->K$CG.ACB$=ACB$;
      580    12513              %UNLOCK (G=KQ_CGLGATE);
      581    12516    2         RETURN;
      582    12517    2   NEWACB:;
      583    12518                                /* Allocate a new one */
      584    12519    2         J=SIZEW(KQ$ACB);
      585    12520    2         CALL KQM$GETB(KQ$MMSD.CCXT$->K$CG,ACB$,J) ALTRET(ALTRT);
      586    12521    2         ACB$->KQ$ACB=ACB_INIT;
      587    12522    2         ACB$->KQ$ACB.FLNK$=KQ$MMSD.ACBHEAD$;
      588    12523    2         IF KQ$MMSD.ACBHEAD$ ~= ADDR(NIL) THEN
      589    12524    2          KQ$MMSD.ACBHEAD$->KQ$ACB.BLNK$=ACB$;
      590    12525    2         KQ$MMSD.ACBHEAD$=ACB$;
      591    12526    2         ACB$->KQ$ACB.ACCT=B$JIT.DCB$->F$DCB.ACCT;
      592    12527    2         ACB$->KQ$ACB.SETX=B$JIT.DCB$->F$DCB.SETX;
      593    12528                           /* Get limits from FD FIT */
      594    12529              %UNLOCK (G=KQ_CGLGATE);
      595    12532    2         B$JIT.DCB$->F$DCB.GTYP=FMGTFD;
      596    12533    2         J=PINCRW(F$CFU$,B$JIT.DCB$->F$DCB.CFU$->FM$CFU.ACCTX)->FM$CFUA.FDFITSDA;
      597    12534    2         CALL FMD$REDBUFBC (FIT$,1,J,,0) ALTRET(NOREAD);
      598    12535    2         FIT$=PINCRW(FIT$,SIZEW(FM$GRAN));
      599    12536    2         J=0;
      600    12537    2         CALL FMO$LOCCODP (FIT$,14) ALTRET(NOCODE);
      601    12538    2         J=FIT$->CODE14.CGMEM*%CGMEMSIZ;
      602    12539    2   NOCODE:;
      603    12540    2         IF J = 0 THEN
      604    12541    2          IF ACB$->KQ$ACB.ACCT = ':SYS' THEN J=100000;
      605    12542    2         CALL FMD$RELBUF(1);
PL6.E3A0      #001=KQM$INIT File=KQM$MM.:E05TSI                                  WED 07/30/97 01:30 Page:18
      606    12543              %LOCK (G=KQ_CGLGATE);
      607    12546    2         ACB$->KQ$ACB.CURPGLIM=J;
      608    12547    2         GOTO DONE;
      609    12548    2   NOREAD:;
      610    12549    2         CALL FMD$RELBUF (1);
      611    12550    2         CG$->K$CG.ACB$=ACB$;
      612    12551    2         CALL DECRACB; /* Get rid of the ACB */
      613    12552    2         CG$->K$CG.ACB$=ADDR(NIL);
      614    12553    2         ERRCODE=B$JIT.ERR.CODE; /* From FMD$REDBUF */
      615    12554    2         ALTRETURN;
      616    12555    2   ALTRT: ;
      617    12556    2         ERRCODE=J;
      618    12557              %UNLOCK (G=KQ_CGLGATE);
      619    12560    2         ALTRETURN;
      620    12561    2   END FINDACB;
      621    12562        /****************************************************************
      622    12563        *****************************************************************/
      623    12564        /*D* NAME:         LOCACB
      624    12565             PURPOSE:      To find an ACB
      625    12566             INPUT:        B$JIT.DCB$->F$DCB with desired ACCT & SETX
      626    12567             DESCRIPTION:  ALTRETs if not found, else RETURNs ACB$.  In both
      627    12568                           cases KQ_CGLGATE is locked.
      628    12569        */
      629    12570    1   LOCACB: PROC ALTRET;
      630    12571        /**/
      631    12572    2   AGANE:;
      632    12573              %LOCK (G=KQ_CGLGATE);
      633    12576    2         ACB$=KQ$MMSD.ACBHEAD$;
      634    12577    3           DO WHILE (ACB$ ~= ADDR(NIL));
      635    12578    3           IF  ACB$->KQ$ACB.ACCT = B$JIT.DCB$->F$DCB.ACCT
      636    12579    3           AND ACB$->KQ$ACB.SETX = B$JIT.DCB$->F$DCB.SETX THEN
      637    12580    4             DO;
      638    12581    4             IF ACB$->KQ$ACB.CURPGLIM >= 0 THEN RETURN;
      639    12582                        /* Being initialized */
      640    12583                  %UNLOCK (G=KQ_CGLGATE);
      641    12586    4             CALL SSR$REG (%SS_SL,,1);
      642    12587    4             GOTO AGANE;
PL6.E3A0      #001=KQM$INIT File=KQM$MM.:E05TSI                                  WED 07/30/97 01:30 Page:19
      643    12588    4             END;
      644    12589    3           ACB$=ACB$->KQ$ACB.FLNK$;
      645    12590    3           END;
      646    12591    2         ALTRETURN;
      647    12592    2   END LOCACB;
      648    12593        /****************************************************************
      649    12594        *****************************************************************/
      650    12595        /*D* NAME:         DECRACB
      651    12596             PURPOSE:      To release a CG's use of its ACB
      652    12597             DESCRIPTION:  The CG's CURPG count is subtracted from CURPG
      653    12598                           in the ACB.  The ACB's USECNT is decremented.
      654    12599                           If USECNT hits zero, the ACB is released.
      655    12600        */
      656    12601    1   DECRACB: PROC;
      657    12602        /**/
      658    12603    2         ACB$=CG$->K$CG.ACB$;
      659    12604    2         IF ACB$ ~= ADDR(NIL) THEN
      660    12605    3           DO;
      661    12606                %LOCK (G=KQ_CGLGATE);
      662    12609    3           ACB$->KQ$ACB.CURPG=ACB$->KQ$ACB.CURPG-CG$->K$CG.MMD.CURPG;
      663    12610    3           ACB$->KQ$ACB.USECNT=ACB$->KQ$ACB.USECNT-1;
      664    12611    3           IF ACB$->KQ$ACB.USECNT = 0 THEN
      665    12612    4             DO;
      666    12613    4             IF ACB$->KQ$ACB.BLNK$ = ADDR(NIL) THEN
      667    12614    4              KQ$MMSD.ACBHEAD$=ACB$->KQ$ACB.FLNK$;
      668    12615    4             ELSE ACB$->KQ$ACB.BLNK$->KQ$ACB.FLNK$=ACB$->KQ$ACB.FLNK$;
      669    12616    4             IF ACB$->KQ$ACB.FLNK$ ~= ADDR(NIL) THEN
      670    12617    4              ACB$->KQ$ACB.FLNK$->KQ$ACB.BLNK$=ACB$->KQ$ACB.BLNK$;
      671    12618    4             J=SIZEW(KQ$ACB);
      672    12619    4             CALL KQM$RELB (KQ$MMSD.CCXT$->K$CG,ACB$,J);
      673    12620    4             END;
      674    12621                %UNLOCK (G=KQ_CGLGATE);
      675    12624    3           END;
      676    12625    2         RETURN;
      677    12626    2   END DECRACB;
      678    12627    1   END KQM$INIT;
      679    12628        %EOD;
PL6.E3A0      #001=KQM$INIT File=KQM$MM.:E05TSI                                  WED 07/30/97 01:30 Page:20

PL6.E3A0      #001=KQM$INIT File=KQM$MM.:E05TSI                                  WED 07/30/97 01:30 Page:21
--  Include file information  --

   SS_SCHED_C.:E05TOU  is referenced.
   FM$GRAN.:E05TOU  is referenced.
   FM$FIT.:E05TOU  is referenced.
   FM$CFU.:E05TOU  is referenced.
   F$DCB.:E05TOU  cannot be made into a system file and is referenced.
   B_STRINGS_C.:E05TOU  is referenced.
   KC_CP6.:E05TOU  is referenced.
   M_INFO_C.:E05TOU  is referenced.
   B_MLSMAC_C.:E05TOU  is referenced.
   B_ULSMAC_C.:E05TOU  is referenced.
   B_LSDATA_C.:E05TOU  cannot be made into a system file and is referenced.
   KC$CP6V_C.:E05TOU  is referenced.
   UD_SEV_C.:E05TOU  is referenced.
   B$JIT_C.:E05TOU  is referenced.
   KQ_DATA_R.:E05TOU  cannot be made into a system file and is referenced.
   KQ_ERRORS_C.:E05TOU  is referenced.
   HF_DATA_R.:E05TOU  is referenced.
   KQM_MAC_C.:E05TOU  is referenced.
   HF_LOCK_C.:E05TOU  cannot be made into a system file and is referenced.
   KQ_MAC_C.:E05TOU  is referenced.
   KQ_SUBS_C.:E05TOU  is referenced.
      No diagnostics issued in procedure KQM$INIT.

   Procedure KQM$INIT requires 755 words for executable code.
   Procedure KQM$INIT requires 28 words of local(AUTO) storage.

PL6.E3A0      #001=KQM$INIT File=KQM$MM.:E05TSI                                  WED 07/30/97 01:30 Page:22

 Object Unit name= KQM$INIT                                   File name= KQM$MM.:E05TOU
 UTS= JUL 30 '97 01:30:58.88 WED                              Compiler= PL-6/E31         Sev=      00
 SharedLib= :SHARED_SYSTEM                                    Alt SharedLib=


    ****  Control sections  ****

 Sect   Type Bound  Init  Size OctSiz  Section name(segment info)
    0  RoData even  UTS     11     13  KQM$INIT
    1   Proc  even  none   755   1363  KQM$INIT
    2  RoData even  none    13     15  KQM$INIT

    ****  Entry defs  ****

                              Check   Calling
                             calling  sequence
  Sect OctLoc Primary Altret sequence   type   Parms  Name
     1      0   yes    yes     yes      Std        2  KQM$INIT
     1     72          yes     yes      Std        1  KQM$SHUTDOWN
     1    116          yes     yes      Std        0  KQM$USECACHE
     1    123          yes     yes      Std        0  KQM$BYPASSCACHE
     1    206          yes     yes      Std        2  KQM$UPDA
     1    223          yes     yes      Std        0  KQM$TRUNCDSBS
PL6.E3A0      #001=KQM$INIT File=KQM$MM.:E05TSI                                  WED 07/30/97 01:30 Page:23

  ****  Entry refs  ****

         Check        Calling
        calling       sequence
Altret sequence SRef   type   Args  Name
 yes     yes           Std       1 KQX$LDASR
         yes           Std       1 HFC$UNLOCK
 yes     yes           Std       3 MMQ$TRUNCDSB
         yes           Std       1 HFC$LOCK
 yes     yes           Std       3 KQM$GETB
 yes     yes           Std       3 MMQ$GCAP
 yes     yes           Std       3 MMQ$GCCP
 yes     yes           Std       3 KQM$RELB
 yes     yes           Std       3 MMQ$TRUNCDSBL
         yes           Std       0 HFC$CACHECLR
 yes     yes           Std       0 MMQ$ZAPCPUS
 yes     yes           Std       2 FMO$LOCCODP
         yes           Std       1 FMD$RELBUF
 yes     yes           Std       6 FMD$REDBUFBC
 yes     yes           Std       3 SSR$REG
                       nStd      0 X66_AUTO_2
                       Std       0 B_CONSPOOL_D
                       nStd      0 X66_ARET
                       nStd      0 X66_AALT

  ****  Data refs  ****

  Flags:  r = read only, s = secondary
Flgs Name                             Flgs Name                             Flgs Name
     SC_BCGMMQ                             KQ_CGLGATE                            KQ_STATS
     B$JIT$                           r    F$CFU$                           r    KQ_MMSD$
     KQ_IDSB                               KQ_IBAP                               KQ_ICG
     B_VECTNIL
PL6.E3A0      #001=KQM$INIT File=KQM$MM.:E05TSI                                  WED 07/30/97 01:30 Page:24

  ****  Segment refs  ****

  Flags:  r = read only, s = secondary
Flgs Name                             Flgs Name                             Flgs Name
     NULLSID                               ASLENTSID                             ISSID
PL6.E3A0      #001=KQM$INIT File=KQM$MM.:E05TSI                                  WED 07/30/97 01:30 Page:25


        1        1        /*M* KQM$MM Memory management routines for COMGROUP QUEUE */
        2        2        /*T***********************************************************/
        3        3        /*T*                                                         */
        4        4        /*T* Copyright (c) Bull HN Information Systems Inc., 1997    */
        5        5        /*T*                                                         */
        6        6        /*T***********************************************************/
        7        7       /*X* DMC,PLM=6,IND=0,IDT=2,SDI=2,CTI=0,ENU=0,AND,DCI=4,CSU=2,ECU=4,THI=0,DTI=0,STI=1
                 7        ,IAD=0,PRB */
        8        8        /**/
        9        9        /*P* NAME:         KQM$MM
       10       10             PURPOSE:      To provide memory management for comgroups
       11       11              DESCRIPTION: This module contains two compile units.
       12       12
       13       13                           The first is concerned with memory management
       14       14                           that is in some sense global to all comgroups.
       15       15                           Specifically, allocation and deallocation of
       16       16                           comgroup context & descriptor segment blocks.
       17       17                           Comgroup context blocks for different comgroups
       18       18                           lie side by side in the same pages.  These
       19       19                           routines manage those pages, as well as the
       20       20                           chain of context blocks for active comgroups.
       21       21
       22       22                           The second is concerned with allocation and
       23       23                           release of memory on behalf of a particular
       24       24                           comgroup.  The data blocks for a given comgroup
       25       25                           lie in pages wholly owned by that comgroup,
       26       26                           and are chained together, with the chain heads
       27       27                           living in the comgroup context block.
       28       28        */
       29       29        /**/
       30       30        KQM$INIT: PROC (KQ$CG,MEM$) ALTRET;

     30  1 000000   000000 700200 xent  KQM$INIT     TSX0  ! X66_AUTO_2
         1 000001   000034 000002                    ZERO    28,2

       31       31        /**/
PL6.E3A0      #001=KQM$INIT File=KQM$MM.:E05TSI                                  WED 07/30/97 01:30 Page:26
       32       32
       33       33
       34       34
       35       35        /**/
       36       36        /* INCLUDES */
       37       37        /**/
       38       38        %INCLUDE KQ_SUBS_C;
       39      338        %INCLUDE KQ_MAC_C;
       40     2888        %INCLUDE HF_LOCK_C;
       41     2902        %INCLUDE KQM_MAC_C;
       42     3275        %INCLUDE KQ_ERRORS_C;
       43     3323        %INCLUDE KQ_DATA_R;
       44     4155        %INCLUDE B$JIT_C;
       45     4469        %INCLUDE UD_SEV_C;
       46     4483        %INCLUDE KC$CP6V_C;
       47     4603        %INCLUDE B_LSDATA_C;
       48     7809        %INCLUDE M_INFO_C;
       49     7949        %INCLUDE KC_CP6;
       50     8509        %INCLUDE B_STRINGS_C;
       51     8638        %INCLUDE F$DCB;
       52     8687        %INCLUDE FM$CFU;
       53     8732        %INCLUDE FM$FIT;
       54     8953        %INCLUDE FM$GRAN;
       55     9022        %INCLUDE SS_SCHED_C;
       56     9255
       57     9256
       58     9257
       59     9258        /**/
       60     9259        /* MACROS */
       61     9260        /**/
       62     9261        %MACRO $ERROR (NAME=GORGO,CODE=0,SEV=SEV_ERROR#);
       63     9262        DCL 1 NAME CONSTANT ALIGNED,
       64     9263              2 * BIT(18) UNAL INIT('132115'O),
       65     9264              2 * UBIN(15) UNAL INIT(CODE),
       66     9265              2 * UBIN(3) UNAL INIT(SEV);
       67     9266        %MEND;
       68     9267
PL6.E3A0      #001=KQM$INIT File=KQM$MM.:E05TSI                                  WED 07/30/97 01:30 Page:27
       69     9268
       70     9269
       71     9270        /**/
       72     9271        /* PARAMETERS */
       73     9272        /**/
       74     9273        %KQ_CG (FPTN=KQ$CG,STCLASS="");
       75    10012    1   DCL MEM$ PTR;
       76    10013    1   DCL NEWLIM REDEF MEM$ UBIN;
       77    10014
       78    10015
       79    10016
       80    10017        /**/
       81    10018        /* BASED STRUCTURES */
       82    10019        /**/
       83    10020    1   DCL 1 B$$ASR BASED DALIGNED,
       84    10021    1         2 BOUND UBIN(20) UNAL,
       85    10022    1         2 FLG BIT(9) UNAL,
       86    10023    1         2 W UBIN(3) UNAL,
       87    10024    1         2 T UBIN(4) UNAL,
       88    10025    1         2 BASE UBIN(36) UNAL;
       89    10026        %KQ_FB (FPTN=KQ$FB,STCLASS=BASED);
       90    10048        %KQ_DSB  (FPTN=KQ$DSB ,STCLASS=BASED);
       91    10091        %KQ_BAP  (FPTN=KQ$BAP ,STCLASS=BASED);
       92    10180        %KQ_ACB  (FPTN=KQ$ACB ,STCLASS=BASED);
       93    10210        %KQ_CG   (FPTN=K$CG   ,STCLASS=BASED);
       94    10949        %KQ_MMSD (FPTN=KQ$MMSD,STCLASS="BASED(KQ_MMSD$)");
       95    10986    1   DCL 1 B$$PAGE BASED ALIGNED,
       96    10987    1         2 * CHAR(4096) UNAL;
       97    10988    1   DCL B$$PTR PTR BASED ALIGNED;
       98    10989    1   DCL 1 B$$PTRR BASED ALIGNED,
       99    10990    1         2 COFF UBIN(20) UNAL,
      100    10991    1         2 * UBIN(16) UNAL;
      101    10992        %B$JIT0;
      102    11081        %U$JIT1X;
      103    11084        %M$JIT2X;
      104    11087        %F$JIT3;
      105    11092        %A$JIT6X;
PL6.E3A0      #001=KQM$INIT File=KQM$MM.:E05TSI                                  WED 07/30/97 01:30 Page:28
      106    11095        %FM$CFU;
      107    11101        %FM$CFUA;
      108    11107        %FM$GRAN;
      109    11111        %CODE14;
      110    11121
      111    11122
      112    11123
      113    11124        /**/
      114    11125        /* AUTO */
      115    11126        /**/
      116    11127    1   DCL PAGE$ PTR;
      117    11128    1   DCL I UBIN;
      118    11129    1   DCL J UBIN;
      119    11130    1   DCL HKP UBIN;
      120    11131    1   DCL CAP$ PTR;
      121    11132    1   DCL 1 CAP$R REDEF CAP$,
      122    11133    1         2 PG# UBIN(8) UNAL,
      123    11134    1         2 OTHER UBIN(16) UNAL,
      124    11135    1         2 SEGID UBIN(12) UNAL;
      125    11136    1   DCL P$ PTR;
      126    11137    1   DCL BLK$ PTR;
      127    11138    1   DCL ACB$ PTR;
      128    11139    1   DCL CG$ PTR;
      129    11140    1   DCL DSB$ PTR;
      130    11141    1   DCL ERRCODE UBIN;
      131    11142    1   DCL MMQERR REDEF ERRCODE UBIN;
      132    11143
      133    11144
      134    11145
      135    11146        /**/
      136    11147        /* CONSTANT */
      137    11148        /**/
      138    11149        %$ERROR (NAME=E_CGCXT,CODE=%E$CGCXT);
      139    11155        %KQ_ACB (FPTN=ACB_INIT,STCLASS=CONSTANT);
      140    11185
      141    11186
      142    11187
PL6.E3A0      #001=KQM$INIT File=KQM$MM.:E05TSI                                  WED 07/30/97 01:30 Page:29
      143    11188        /**/
      144    11189        /* REFS */
      145    11190        /**/
      146    11191    1   DCL FMD$REDBUFBC  ENTRY(6) ALTRET;
      147    11192    1   DCL FMD$RELBUF    ENTRY(1);
      148    11193    1   DCL FMO$LOCCODP   ENTRY(2) ALTRET;
      149    11194    1   DCL HFC$CACHECLR  ENTRY;
      150    11195    1   DCL KQM$GETB      ENTRY(3) ALTRET;
      151    11196    1   DCL KQM$GETDFR    ENTRY(3) ALTRET;
      152    11197    1   DCL KQM$GETMIN    ENTRY(3) ALTRET;
      153    11198    1   DCL KQM$RELB      ENTRY(3) ALTRET;
      154    11199    1   DCL KQX$LDASR     ENTRY(1) ALTRET;
      155    11200    1   DCL MMQ$GCCP      ENTRY(3) ALTRET;
      156    11201    1   DCL MMQ$GCAP      ENTRY(3) ALTRET;
      157    11202    1   DCL MMQ$TRUNCDSB  ENTRY(3) ALTRET;
      158    11203    1   DCL MMQ$TRUNCDSBL ENTRY(3) ALTRET;
      159    11204    1   DCL MMQ$ZAPCPUS   ENTRY    ALTRET;
      160    11205    1   DCL SSR$REG       ENTRY(3) ALTRET;
      161    11206    1   DCL SC_BCGMMQ     ENTRY    CONV(2,0);
      162    11207
      163    11208    1   DCL B$JIT$ PTR SYMREF;
      164    11209    1   DCL F$CFU$ PTR SYMREF READONLY;
      165    11210    1   DCL KQ_MMSD$ PTR SYMREF READONLY;
      166    11211        %KQ_DSB (FPTN=KQ_IDSB,STCLASS=SYMREF);
      167    11254        %KQ_BAP (FPTN=KQ_IBAP,STCLASS=SYMREF);
      168    11343        %KQ_CG (FPTN=KQ_ICG,STCLASS=SYMREF);
      169    12082        %EJECT;
PL6.E3A0      #001=KQM$INIT File=KQM$MM.:E05TSI                                  WED 07/30/97 01:30 Page:30
      170    12083        /*F* NAME:         KQM$INIT
      171    12084             PURPOSE:      To initialize a COMGROUP's context
      172    12085             DESCRIPTION:  This routine allocates space for a CG context
      173    12086                           block and then moves the passed context block
      174    12087                           into it, returning MEM$ pointing to the allocated
      175    12088                           block.  Next, it allocates/finds the appropriate
      176    12089                           account block, and increments its use count,
      177    12090                           setting KQ$CG.ACB$ to point to the account
      178    12091                           block.  Next, it allocates a descriptor segment
      179    12092                           for the CG and initializes it to empty, planting
      180    12093                           the DSB pointer in the CG context block, and then
      181    12094                           loads the descriptor register to frame the (empty)
      182    12095                           data space descriptor segment.  Then it
      183    12096                           placed the context block on the linear list of
      184    12097                           all comgroup context blocks.  Finally, it
      185    12098                           returns.  If either of the above cannot be obtained,
      186    12099                           it ALTRETs with the appropriate error code in
      187    12100                           B$JIT.ERR, and nothing allocated.
      188    12101
      189    12102        KQM$INIT: ENTRY (KQ$CG,MEM$) ALTRET;    */
      190    12103
      191    12104    1         CALL GETCXT ALTRET(NOCXT);

  12104  1 000002   000336 701000 1                  TSX1    GETCXT
         1 000003   000056 702000 1                  TSX2    NOCXT

      192    12105    1         CG$->K$CG=KQ$CG;

  12105  1 000004   200003 470500                    LDP0    @KQ$CG,,AUTO
         1 000005   200015 471500                    LDP1    CG$,,AUTO
         1 000006   000100 100500                    MLR     fill='000'O
         1 000007   000000 001324                    ADSC9   0,,PR0                   cn=0,n=724
         1 000010   100000 001324                    ADSC9   0,,PR1                   cn=0,n=724

      193    12106    1         CALL FINDACB ALTRET(NOCXT1);

  12106  1 000011   000767 701000 1                  TSX1    FINDACB
PL6.E3A0      #001=KQM$INIT File=KQM$MM.:E05TSI                                  WED 07/30/97 01:30 Page:31
         1 000012   000054 702000 1                  TSX2    NOCXT1

      194    12107    1         CALL GETDSB ALTRET(NOCXT0);

  12107  1 000013   000346 701000 1                  TSX1    GETDSB
         1 000014   000052 702000 1                  TSX2    NOCXT0

      195    12108    1         CG$->K$CG.MMD.DSB$=DSB$;

  12108  1 000015   200016 236100                    LDQ     DSB$,,AUTO
         1 000016   200015 470500                    LDP0    CG$,,AUTO
         1 000017   000000 756100                    STQ     0,,PR0

      196    12109                                /* INITIALIZE THE DSB & LOAD ASR */
      197    12110    1         DSB$->KQ$DSB=KQ_IDSB;

  12110  1 000020   200016 470500                    LDP0    DSB$,,AUTO
         1 000021   000100 100400                    MLR     fill='000'O
         1 000022   000000 000330 xsym               ADSC9   KQ_IDSB                  cn=0,n=216
         1 000023   000000 000330                    ADSC9   0,,PR0                   cn=0,n=216

      198    12111    1         ADDR(DSB$->KQ$DSB.ASR)->B$$ASR.BOUND=SIZEC(KQ$DSB.DESC)-1;

  12111  1 000024   200016 470500                    LDP0    DSB$,,AUTO
         1 000025   000000 236100                    LDQ     0,,PR0
         1 000026   177777 376007                    ANQ     65535,DL
         1 000027   000000 276000 2                  ORQ     0
         1 000030   000000 756100                    STQ     0,,PR0

      199    12112    1         P$=ADDR(DSB$->KQ$DSB.DESC);

  12112  1 000031   200016 236100                    LDQ     DSB$,,AUTO
         1 000032   000002 036003                    ADLQ    2,DU
         1 000033   200012 756100                    STQ     P$,,AUTO

      200    12113    1         ADDR(DSB$->KQ$DSB.ASR)->B$$ASR.BASE=ADDR(P$)->B$$PTRR.COFF;

PL6.E3A0      #001=KQM$INIT File=KQM$MM.:E05TSI                                  WED 07/30/97 01:30 Page:32
  12113  1 000034   200016 470500                    LDP0    DSB$,,AUTO
         1 000035   200012 236100                    LDQ     P$,,AUTO
         1 000036   000020 772000                    QRL     16
         1 000037   000001 756100                    STQ     1,,PR0

      201    12114    1         CALL KQX$LDASR (CG$->K$CG);

  12114  1 000040   200015 630500                    EPPR0   CG$,,AUTO
         1 000041   000017 631400 xsym               EPPR1   B_VECTNIL+15
         1 000042   000000 701000 xent               TSX1    KQX$LDASR
         1 000043   000000 011000                    NOP     0

      202    12115    1         CALL ADDCG;

  12115  1 000044   000255 701000 1                  TSX1    ADDCG
         1 000045   000000 011000                    NOP     0

      203    12116    1         MEM$=CG$;

  12116  1 000046   200015 236100                    LDQ     CG$,,AUTO
         1 000047   200004 470500                    LDP0    @MEM$,,AUTO
         1 000050   000000 756100                    STQ     0,,PR0

      204    12117    1         RETURN;

  12117  1 000051   000000 702200 xent               TSX2  ! X66_ARET

  12116  1 000052                       NOCXT0       null
      205    12118    1   NOCXT0:;
      206    12119    1         CALL DECRACB;

  12119  1 000052   001271 701000 1                  TSX1    DECRACB
         1 000053   000000 011000                    NOP     0

  12116  1 000054                       NOCXT1       null
      207    12120    1   NOCXT1:;
      208    12121    1         CALL RELCXT;
PL6.E3A0      #001=KQM$INIT File=KQM$MM.:E05TSI                                  WED 07/30/97 01:30 Page:33

  12121  1 000054   000631 701000 1                  TSX1    RELCXT
         1 000055   000000 011000                    NOP     0

  12116  1 000056                       NOCXT        null
      209    12122    1   NOCXT:;
      210    12123    1         B$JIT.ERR=E_CGCXT;

  12123  1 000056   000000 236000 0                  LDQ     E_CGCXT
         1 000057   000000 470400 xsym               LDP0    B$JIT$
         1 000060   000012 756100                    STQ     10,,PR0

      211    12124    1         IF ERRCODE ~= %E$CGMPLC THEN

  12124  1 000061   200017 235100                    LDA     ERRCODE,,AUTO
         1 000062   002206 115007                    CMPA    1158,DL
         1 000063   000071 600000 1                  TZE     ALTRT

      212    12125    1          B$JIT.ERR.CODE=ERRCODE;

  12125  1 000064   200017 236100                    LDQ     ERRCODE,,AUTO
         1 000065   000003 736000                    QLS     3
         1 000066   000012 676100                    ERQ     10,,PR0
         1 000067   377770 376007                    ANQ     131064,DL
         1 000070   000012 656100                    ERSQ    10,,PR0

  12124  1 000071                       ALTRT        null
      213    12126        /*E* ERROR:        KQM-E$CGCXT-E
      214    12127             MESSAGE:      Unable to allocate context for your COMGROUP
      215    12128             MESSAGE1:     No memory was available for the initial context
      216    12129                           of your COMGROUP, therefore it cannot be opened. */
      217    12130    1   ALTRT:;
      218    12131    1         ALTRETURN;

  12131  1 000071   000000 702200 xent               TSX2  ! X66_AALT

      219    12132        /*F* NAME:         KQM$SHUTDOWN
PL6.E3A0      #001=KQM$INIT File=KQM$MM.:E05TSI                                  WED 07/30/97 01:30 Page:34
      220    12133             PURPOSE:      To release a CG's context
      221    12134             DESCRIPTION:  The context and descriptor segment blocks are
      222    12135                           released.
      223    12136
      224    12137                           All the CG's pages must have been released before
      225    12138                           calling here.
      226    12139        */
      227    12140    1   KQM$SHUTDOWN: ENTRY (KQ$CG) ALTRET; /* !!Doesn't ALTRET!! */

  12140  1 000072   000000 700200 xent  KQM$SHUTDOWN TSX0  ! X66_AUTO_2
         1 000073   000034 000002                    ZERO    28,2

      228    12141
      229    12142    1         IF KQ$CG.MMD.DSB$ ~= ADDR(NIL) THEN

  12142  1 000074   200003 470500                    LDP0    @KQ$CG,,AUTO
         1 000075   000000 236100                    LDQ     0,,PR0
         1 000076   000001 116000 xsym               CMPQ    B_VECTNIL+1
         1 000077   000105 600000 1                  TZE     s:12149

      230    12143    2           DO;

      231    12144    2           DSB$=KQ$CG.MMD.DSB$;

  12144  1 000100   200016 756100                    STQ     DSB$,,AUTO

      232    12145    2           KQ$CG.MMD.DSB$=ADDR(NIL);

  12145  1 000101   000001 236000 xsym               LDQ     B_VECTNIL+1
         1 000102   000000 756100                    STQ     0,,PR0

      233    12146    2           CALL RELDSB;

  12146  1 000103   000647 701000 1                  TSX1    RELDSB
         1 000104   000000 011000                    NOP     0

      234    12147    2           END;
PL6.E3A0      #001=KQM$INIT File=KQM$MM.:E05TSI                                  WED 07/30/97 01:30 Page:35

      235    12148        /**/
      236    12149    1         CG$=ADDR(KQ$CG);

  12149  1 000105   200003 236100                    LDQ     @KQ$CG,,AUTO
         1 000106   200015 756100                    STQ     CG$,,AUTO

      237    12150    1         CALL DECRACB;

  12150  1 000107   001271 701000 1                  TSX1    DECRACB
         1 000110   000000 011000                    NOP     0

      238    12151    1         CALL REMCG;

  12151  1 000111   000276 701000 1                  TSX1    REMCG
         1 000112   000000 011000                    NOP     0

      239    12152    1         CALL RELCXT;

  12152  1 000113   000631 701000 1                  TSX1    RELCXT
         1 000114   000000 011000                    NOP     0

      240    12153    1         RETURN;

  12153  1 000115   000000 702200 xent               TSX2  ! X66_ARET

      241    12154        %EJECT;
PL6.E3A0      #001=KQM$INIT File=KQM$MM.:E05TSI                                  WED 07/30/97 01:30 Page:36
      242    12155        /**/
      243    12156        /*F* NAME:         KQM$USECACHE
      244    12157             PURPOSE:      To turn on use-cache bits in all comgroup
      245    12158                           descriptors
      246    12159             DESCRIPTION:  Called when going from multi- to mono-processing.
      247    12160        */
      248    12161    1   KQM$USECACHE: ENTRY ALTRET; /* !!Doesn't ALTRET!! */

  12161  1 000116   000000 700200 xent  KQM$USECACHE TSX0  ! X66_AUTO_2
         1 000117   000034 000002                    ZERO    28,2

      249    12162        /**/
      250    12163    1         J=1;

  12163  1 000120   000001 235007                    LDA     1,DL
         1 000121   200007 755100                    STA     J,,AUTO

      251    12164    1         GOTO CACHE;

  12164  1 000122   000126 710000 1                  TRA     CACHE

      252    12165        /**/
      253    12166        /*F* NAME:         KQM$BYPASSCACHE
      254    12167             PURPOSE:      To turn off use-cache bits in all comgroup
      255    12168                           descriptors
      256    12169             DESCRIPTION:  Called when going from mono- to multi-processing.
      257    12170        */
      258    12171    1   KQM$BYPASSCACHE: ENTRY ALTRET; /* !!Doesn't ALTRET!! */

  12171  1 000123   000000 700200 xent  KQM$BYPASSC* TSX0  ! X66_AUTO_2
         1 000124   000034 000002                    ZERO    28,2

      259    12172        /**/
      260    12173    1         J=0;

  12173  1 000125   200007 450100                    STZ     J,,AUTO

PL6.E3A0      #001=KQM$INIT File=KQM$MM.:E05TSI                                  WED 07/30/97 01:30 Page:37
  12173  1 000126                       CACHE        null
      261    12174    1   CACHE:;
      262    12175    1         CG$=KQ$MMSD.CGHEAD$;

  12175  1 000126   000000 470400 xsym               LDP0    KQ_MMSD$
         1 000127   000001 236100                    LDQ     1,,PR0
         1 000130   200015 756100                    STQ     CG$,,AUTO

      263    12176    2           DO WHILE (CG$ ~= ADDR(NIL));

  12176  1 000131   000203 710000 1                  TRA     s:12187

      264    12177    2           DSB$=CG$->K$CG.MMD.DSB$;

  12177  1 000132   200015 470500                    LDP0    CG$,,AUTO
         1 000133   000000 236100                    LDQ     0,,PR0
         1 000134   200016 756100                    STQ     DSB$,,AUTO

      265    12178    2           IF DSB$ ~= ADDR(NIL) THEN

  12178  1 000135   000001 116000 xsym               CMPQ    B_VECTNIL+1
         1 000136   000200 600000 1                  TZE     s:12186

      266    12179    3             DO;

      267    12180    4               DO I = 0 TO KQM_MDPC#;

  12180  1 000137   200006 450100                    STZ     I,,AUTO

      268    12181    4               IF J = 0 THEN

  12181  1 000140   200007 235100                    LDA     J,,AUTO
         1 000141   000157 601000 1                  TNZ     s:12183

      269    12182    4                DSB$->KQ$DSB.DESC.FLG(I)=DSB$->KQ$DSB.DESC.FLG(I)&(~%DSCACHE);

  12182  1 000142   200006 236100                    LDQ     I,,AUTO
PL6.E3A0      #001=KQM$INIT File=KQM$MM.:E05TSI                                  WED 07/30/97 01:30 Page:38
         1 000143   000001 736000                    QLS     1
         1 000144   200016 470500                    LDP0    DSB$,,AUTO
         1 000145   000000 620006                    EAX0    0,QL
         1 000146   000002 236106                    LDQ     2,QL,PR0
         1 000147   000024 736000                    QLS     20
         1 000150   777000 376003                    ANQ     -512,DU
         1 000151   737000 376003                    ANQ     -16896,DU
         1 000152   000024 772000                    QRL     20
         1 000153   000002 676110                    ERQ     2,X0,PR0
         1 000154   177600 376007                    ANQ     65408,DL
         1 000155   000002 656110                    ERSQ    2,X0,PR0
         1 000156   000173 710000 1                  TRA     s:12184

      270    12183    4               ELSE DSB$->KQ$DSB.DESC.FLG(I)=DSB$->KQ$DSB.DESC.FLG(I)|%DSCACHE;

  12183  1 000157   200006 236100                    LDQ     I,,AUTO
         1 000160   000001 736000                    QLS     1
         1 000161   200016 470500                    LDP0    DSB$,,AUTO
         1 000162   000000 620006                    EAX0    0,QL
         1 000163   000002 236106                    LDQ     2,QL,PR0
         1 000164   000024 736000                    QLS     20
         1 000165   777000 376003                    ANQ     -512,DU
         1 000166   040000 276003                    ORQ     16384,DU
         1 000167   000024 772000                    QRL     20
         1 000170   000002 676110                    ERQ     2,X0,PR0
         1 000171   177600 376007                    ANQ     65408,DL
         1 000172   000002 656110                    ERSQ    2,X0,PR0

      271    12184    4               END;

  12184  1 000173   200006 235100                    LDA     I,,AUTO
         1 000174   000001 035007                    ADLA    1,DL
         1 000175   200006 755100                    STA     I,,AUTO
         1 000176   000032 115007                    CMPA    26,DL
         1 000177   000140 602000 1                  TNC     s:12181

      272    12185    3             END;
PL6.E3A0      #001=KQM$INIT File=KQM$MM.:E05TSI                                  WED 07/30/97 01:30 Page:39

      273    12186    2           CG$=CG$->K$CG.LNK$;

  12186  1 000200   200015 470500                    LDP0    CG$,,AUTO
         1 000201   000104 236100                    LDQ     68,,PR0
         1 000202   200015 756100                    STQ     CG$,,AUTO

      274    12187    2           END;

  12187  1 000203   000001 116000 xsym               CMPQ    B_VECTNIL+1
         1 000204   000132 601000 1                  TNZ     s:12177

      275    12188    1         RETURN;

  12188  1 000205   000000 702200 xent               TSX2  ! X66_ARET

      276    12189        /**/
      277    12190        /*F* NAME:         KQM$UPDA
      278    12191             PURPOSE:      To update an account's memory limits
      279    12192             CALL:         KQM$UPDA (,CURPGLIM)
      280    12193             INPUT:        B$JIT.DCB$->F$DCB with ACCT & SETX
      281    12194                           User is REGable
      282    12195             DESCRIPTION:  Finds the ACB.  If none, exit.  Else if it's
      283    12196                           being inited, REG & try again.  Then stuff the
      284    12197                           new value in.
      285    12198        */
      286    12199    1   KQM$UPDA: ENTRY (KQ$CG,MEM$) ALTRET; /* !!Doesn't ALTRET!! */

  12199  1 000206   000000 700200 xent  KQM$UPDA     TSX0  ! X66_AUTO_2
         1 000207   000034 000002                    ZERO    28,2

      287    12200        /**/
      288    12201    1         CALL LOCACB ALTRET(NOUPDA);

  12201  1 000210   001215 701000 1                  TSX1    LOCACB
         1 000211   000216 702000 1                  TSX2    NOUPDA

PL6.E3A0      #001=KQM$INIT File=KQM$MM.:E05TSI                                  WED 07/30/97 01:30 Page:40
      289    12202    1         ACB$->KQ$ACB.CURPGLIM=NEWLIM;

  12202  1 000212   200004 470500                    LDP0    @MEM$,,AUTO
         1 000213   000000 235100                    LDA     0,,PR0
         1 000214   200014 471500                    LDP1    ACB$,,AUTO
         1 000215   100003 755100                    STA     3,,PR1

  12202  1 000216                       NOUPDA       null
      290    12203    1   NOUPDA:;
      291    12204              %UNLOCK (G=KQ_CGLGATE);

  12205  1 000216   000001 630400 2                  EPPR0   1
         1 000217   000017 631400 xsym               EPPR1   B_VECTNIL+15
         1 000220   000000 701000 xent               TSX1    HFC$UNLOCK
         1 000221   000000 011000                    NOP     0

      292    12207    1         RETURN;

  12207  1 000222   000000 702200 xent               TSX2  ! X66_ARET

      293    12208        /**/
      294    12209        /*F* NAME:         KQM$TRUNCDSBS
      295    12210             PURPOSE:      To help trunc all open comgroups of their
      296    12211                           page table chunks
      297    12212             INPUT:        MM gate locked
      298    12213             DESCRIPTION:  Calls MMQ$TRUNCDSB for each open comgroup
      299    12214        */
      300    12215    1   KQM$TRUNCDSBS: ENTRY ALTRET; /* !!Doesn't ALTRET!! */

  12215  1 000223   000000 700200 xent  KQM$TRUNCDS* TSX0  ! X66_AUTO_2
         1 000224   000034 000002                    ZERO    28,2

      301    12216        /**/
      302    12217    1         CG$=KQ$MMSD.CGHEAD$;

  12217  1 000225   000000 470400 xsym               LDP0    KQ_MMSD$
         1 000226   000001 236100                    LDQ     1,,PR0
PL6.E3A0      #001=KQM$INIT File=KQM$MM.:E05TSI                                  WED 07/30/97 01:30 Page:41
         1 000227   200015 756100                    STQ     CG$,,AUTO

      303    12218    2           DO WHILE (CG$ ~= ADDR(NIL));

  12218  1 000230   000252 710000 1                  TRA     s:12222

      304    12219    2           IF CG$->K$CG.CLOCK THEN

  12219  1 000231   200015 470500                    LDP0    CG$,,AUTO
         1 000232   000105 236100                    LDQ     69,,PR0
         1 000233   000004 316007                    CANQ    4,DL
         1 000234   000247 600000 1                  TZE     s:12221

      305    12220    2            CALL MMQ$TRUNCDSB (,CG$->K$CG.MMD.DSB$->KQ$DSB,MMQERR);

  12220  1 000235   000000 471500                    LDP1    0,,PR0
         1 000236   200017 633500                    EPPR3   ERRCODE,,AUTO
         1 000237   200030 453500                    STP3    FIT$+7,,AUTO
         1 000240   200027 451500                    STP1    FIT$+6,,AUTO
         1 000241   000001 236000 xsym               LDQ     B_VECTNIL+1
         1 000242   200026 756100                    STQ     FIT$+5,,AUTO
         1 000243   200026 630500                    EPPR0   FIT$+5,,AUTO
         1 000244   000021 631400 xsym               EPPR1   B_VECTNIL+17
         1 000245   000000 701000 xent               TSX1    MMQ$TRUNCDSB
         1 000246   000000 011000                    NOP     0

      306    12221    2           CG$=CG$->K$CG.LNK$;

  12221  1 000247   200015 470500                    LDP0    CG$,,AUTO
         1 000250   000104 236100                    LDQ     68,,PR0
         1 000251   200015 756100                    STQ     CG$,,AUTO

      307    12222    2           END;

  12222  1 000252   000001 116000 xsym               CMPQ    B_VECTNIL+1
         1 000253   000231 601000 1                  TNZ     s:12219

PL6.E3A0      #001=KQM$INIT File=KQM$MM.:E05TSI                                  WED 07/30/97 01:30 Page:42
      308    12223    1         RETURN;

  12223  1 000254   000000 702200 xent               TSX2  ! X66_ARET

      309    12224        %EJECT;
PL6.E3A0      #001=KQM$INIT File=KQM$MM.:E05TSI                                  WED 07/30/97 01:30 Page:43
      310    12225        /**/
      311    12226        /*********************************************************************************
      312    12227        *                                                                                *
      313    12228        *   SSS   U   U  BBBB   RRRR    OOO   U   U  TTTTT   III   N   N  EEEEE   SSS    *
      314    12229        *  S   S  U   U  B   B  R   R  O O O  U   U    T      I    N   N  E      S   S   *
      315    12230        *  S      U   U  B   B  R   R  O O O  U   U    T      I    NN  N  E      S       *
      316    12231        *   SSS   U   U  BBBB   RRRR   O  OO  U   U    T      I    N N N  EEEE    SSS    *
      317    12232        *      S  U   U  B   B  R R    O   O  U   U    T      I    N  NN  E          S   *
      318    12233        *  S   S  U   U  B   B  R  R   O   O  U   U    T      I    N   N  E      S   S   *
      319    12234        *   SSS    UUU   BBBB   R   R   OOO    UUU     T     III   N   N  EEEEE   SSS    *
      320    12235        *                                                                                *
      321    12236        *********************************************************************************/
      322    12237
      323    12238        /****************************************************************
      324    12239        *****************************************************************/
      325    12240        /*D* NAME:         ADDCG
      326    12241             PURPOSE:      To add a comgroup to the system list
      327    12242             DESCRIPTION:  The CG context block pointed to by CG$ is
      328    12243                           added to the list of active CGs. */
      329    12244    1   ADDCG: PROC ALTRET;

  12244  1 000255   200020 741300       ADDCG        STX1  ! ERRCODE+1,,AUTO

      330    12245              %LOCK (G=KQ_CGLGATE);

  12246  1 000256   000001 630400 2                  EPPR0   1
         1 000257   000017 631400 xsym               EPPR1   B_VECTNIL+15
         1 000260   000000 701000 xent               TSX1    HFC$LOCK
         1 000261   000000 011000                    NOP     0

      331    12248    2         CG$->K$CG.LNK$=KQ$MMSD.CGHEAD$;

  12248  1 000262   000000 470400 xsym               LDP0    KQ_MMSD$
         1 000263   000001 236100                    LDQ     1,,PR0
         1 000264   200015 471500                    LDP1    CG$,,AUTO
         1 000265   100104 756100                    STQ     68,,PR1

PL6.E3A0      #001=KQM$INIT File=KQM$MM.:E05TSI                                  WED 07/30/97 01:30 Page:44
      332    12249    2         KQ$MMSD.CGHEAD$=CG$;

  12249  1 000266   200015 236100                    LDQ     CG$,,AUTO
         1 000267   000001 756100                    STQ     1,,PR0

  12249  1 000270                       DUN          null
      333    12250    2   DUN:  ;
      334    12251              %UNLOCK (G=KQ_CGLGATE);

  12252  1 000270   000001 630400 2                  EPPR0   1
         1 000271   000017 631400 xsym               EPPR1   B_VECTNIL+15
         1 000272   000000 701000 xent               TSX1    HFC$UNLOCK
         1 000273   000000 011000                    NOP     0

      335    12254    2         RETURN;

  12254  1 000274   200020 221300                    LDX1  ! ERRCODE+1,,AUTO
         1 000275   000001 702211                    TSX2  ! 1,X1

      336    12255        /****************************************************************
      337    12256        *****************************************************************/
      338    12257        /*D* NAME:         REMCG
      339    12258             PURPOSE:      To remove a comgroup from the system list
      340    12259             DESCRIPTION:  The comgroup context block pointed to by CG$
      341    12260                           is removed from the list of active CGs.
      342    12261                           ALTRET if not found in the list. */
      343    12262    2   REMCG: ENTRY ALTRET;

  12262  1 000276   200020 741300       REMCG        STX1  ! ERRCODE+1,,AUTO

      344    12263              %LOCK (G=KQ_CGLGATE);

  12264  1 000277   000001 630400 2                  EPPR0   1
         1 000300   000017 631400 xsym               EPPR1   B_VECTNIL+15
         1 000301   000000 701000 xent               TSX1    HFC$LOCK
         1 000302   000000 011000                    NOP     0

PL6.E3A0      #001=KQM$INIT File=KQM$MM.:E05TSI                                  WED 07/30/97 01:30 Page:45
      345    12266    2         P$=KQ$MMSD.CGHEAD$;

  12266  1 000303   000000 470400 xsym               LDP0    KQ_MMSD$
         1 000304   000001 236100                    LDQ     1,,PR0
         1 000305   200012 756100                    STQ     P$,,AUTO

      346    12267    2         IF P$ = CG$ THEN

  12267  1 000306   200015 116100                    CMPQ    CG$,,AUTO
         1 000307   000314 601000 1                  TNZ     s:12273

      347    12268    3           DO;

      348    12269    3           KQ$MMSD.CGHEAD$=CG$->K$CG.LNK$;

  12269  1 000310   200015 471500                    LDP1    CG$,,AUTO
         1 000311   100104 236100                    LDQ     68,,PR1
         1 000312   000001 756100                    STQ     1,,PR0

      349    12270    3           GOTO DUN;

  12270  1 000313   000270 710000 1                  TRA     DUN

      350    12271    3           END;
      351    12272    2         ELSE
      352    12273    3           DO WHILE (P$ ~= ADDR(NIL));

  12273  1 000314   000326 710000 1                  TRA     s:12280

      353    12274    3           IF P$->K$CG.LNK$ = CG$ THEN

  12274  1 000315   200012 470500                    LDP0    P$,,AUTO
         1 000316   000104 236100                    LDQ     68,,PR0
         1 000317   200015 116100                    CMPQ    CG$,,AUTO
         1 000320   000325 601000 1                  TNZ     s:12279

      354    12275    4             DO;
PL6.E3A0      #001=KQM$INIT File=KQM$MM.:E05TSI                                  WED 07/30/97 01:30 Page:46

      355    12276    4             P$->K$CG.LNK$=CG$->K$CG.LNK$;

  12276  1 000321   200015 471500                    LDP1    CG$,,AUTO
         1 000322   100104 236100                    LDQ     68,,PR1
         1 000323   000104 756100                    STQ     68,,PR0

      356    12277    4             GOTO DUN;

  12277  1 000324   000270 710000 1                  TRA     DUN

      357    12278    4             END;
      358    12279    3           P$=P$->K$CG.LNK$;

  12279  1 000325   200012 756100                    STQ     P$,,AUTO

      359    12280    3           END;

  12280  1 000326   000001 116000 xsym               CMPQ    B_VECTNIL+1
         1 000327   000315 601000 1                  TNZ     s:12274

      360    12281              %UNLOCK (G=KQ_CGLGATE);

  12282  1 000330   000001 630400 2                  EPPR0   1
         1 000331   000017 631400 xsym               EPPR1   B_VECTNIL+15
         1 000332   000000 701000 xent               TSX1    HFC$UNLOCK
         1 000333   000000 011000                    NOP     0

      361    12284    2         ALTRETURN;

  12284  1 000334   200020 221300                    LDX1  ! ERRCODE+1,,AUTO
         1 000335   000000 702211                    TSX2  ! 0,X1

      362    12285    2   END ADDCG;
      363    12286        /****************************************************************
      364    12287        *****************************************************************/
      365    12288        /*D* NAME:         GETCXT
PL6.E3A0      #001=KQM$INIT File=KQM$MM.:E05TSI                                  WED 07/30/97 01:30 Page:47
      366    12289             PURPOSE:      To allocate a CG context block
      367    12290             DESCRIPTION:  CG context blocks live on pages mapped thru the
      368    12291                           first section of the CG page table.  The first
      369    12292                           such page to be allocated gets a context block
      370    12293                           stuck into it.  This context block is pointed
      371    12294                           to by KQ$MMSD.CCXT$, and its block allocation
      372    12295                           page (its initial one), is the page in which
      373    12296                           it lives.  This context block is used for block
      374    12297                           allocation from the context block area, nescessary
      375    12298                           for allocation of comgroup-related stuff which
      376    12299                           needs to be always visible.  The comgroup block-
      377    12300                           allocation routines (KQM$GET?, KQM$REL?) check
      378    12301                           for context block address = KQ$MMSD.CCXT$, and get
      379    12302                           or release the appropriate type of page if so.
      380    12303
      381    12304                           A similar scheme is used for DSB allocation, even
      382    12305                           though it is not strictly nescessary, for unlike
      383    12306                           the context block pages, DSB pages (which are
      384    12307                           houskeeping) only have blocks of one size (the
      385    12308                           size of a DSB) allocated from them.
      386    12309
      387    12310                           If can't get space, ALTRETs with ERRCODE set.
      388    12311        */
      389    12312    1   GETCXT: PROC ALTRET;

  12312  1 000336   200020 741300       GETCXT       STX1  ! ERRCODE+1,,AUTO

      390    12313    2         HKP=0;

  12313  1 000337   200010 450100                    STZ     HKP,,AUTO

      391    12314    2         CALL GET ALTRET(ALTRT);

  12314  1 000340   000361 701000 1                  TSX1    GET
         1 000341   000357 702000 1                  TSX2    ALTRT

      392    12315    2         CG$=BLK$;
PL6.E3A0      #001=KQM$INIT File=KQM$MM.:E05TSI                                  WED 07/30/97 01:30 Page:48

  12315  1 000342   200013 236100                    LDQ     BLK$,,AUTO
         1 000343   200015 756100                    STQ     CG$,,AUTO

      393    12316    2         RETURN;

  12316  1 000344   200020 221300                    LDX1  ! ERRCODE+1,,AUTO
         1 000345   000001 702211                    TSX2  ! 1,X1

      394    12317        /*D* NAME:         GETDSB
      395    12318             PURPOSE:      To allocate a CG descriptor segment block
      396    12319             DESCRIPTION:  CG descriptor segment blocks live on housekeeping
      397    12320                           pages allocated for that purpose alone.  Allocation
      398    12321                           is handled like GETCXT. */
      399    12322    2   GETDSB: ENTRY ALTRET;

  12322  1 000346   200020 741300       GETDSB       STX1  ! ERRCODE+1,,AUTO

      400    12323    2         HKP=1;

  12323  1 000347   000001 235007                    LDA     1,DL
         1 000350   200010 755100                    STA     HKP,,AUTO

      401    12324    2         CALL GET ALTRET(ALTRT);

  12324  1 000351   000361 701000 1                  TSX1    GET
         1 000352   000357 702000 1                  TSX2    ALTRT

      402    12325    2         DSB$=BLK$;

  12325  1 000353   200013 236100                    LDQ     BLK$,,AUTO
         1 000354   200016 756100                    STQ     DSB$,,AUTO

      403    12326    2         RETURN;

  12326  1 000355   200020 221300                    LDX1  ! ERRCODE+1,,AUTO
         1 000356   000001 702211                    TSX2  ! 1,X1
PL6.E3A0      #001=KQM$INIT File=KQM$MM.:E05TSI                                  WED 07/30/97 01:30 Page:49

  12325  1 000357                       ALTRT        null
      404    12327    2   ALTRT:;
      405    12328    2         ALTRETURN;

  12328  1 000357   200020 221300                    LDX1  ! ERRCODE+1,,AUTO
         1 000360   000000 702211                    TSX2  ! 0,X1

      406    12329    2   GET:  PROC ALTRET;

  12329  1 000361   200022 741300       GET          STX1  ! FIT$+1,,AUTO

      407    12330              %LOCK (G=KQ$MMSD.GATE);

  12331  1 000362   000000 236000 xsym               LDQ     KQ_MMSD$
         1 000363   000006 036003                    ADLQ    6,DU
         1 000364   200026 756100                    STQ     FIT$+5,,AUTO
         1 000365   200026 630500                    EPPR0   FIT$+5,,AUTO
         1 000366   000017 631400 xsym               EPPR1   B_VECTNIL+15
         1 000367   000000 701000 xent               TSX1    HFC$LOCK
         1 000370   000000 011000                    NOP     0

      408    12333    3         IF HKP = 0 THEN

  12333  1 000371   200010 235100                    LDA     HKP,,AUTO
         1 000372   000417 601000 1                  TNZ     s:12342

      409    12334    4           DO;

      410    12335    4           IF KQ$MMSD.CCXT$ = ADDR(NIL) THEN

  12335  1 000373   000000 470400 xsym               LDP0    KQ_MMSD$
         1 000374   000002 236100                    LDQ     2,,PR0
         1 000375   000001 116000 xsym               CMPQ    B_VECTNIL+1
         1 000376   000442 601000 1                  TNZ     s:12348

      411    12336    5             DO;
PL6.E3A0      #001=KQM$INIT File=KQM$MM.:E05TSI                                  WED 07/30/97 01:30 Page:50

      412    12337    5             CALL MMQ$GCCP (CAP$,,J) ALTRET(ALTRT);

  12337  1 000377   200007 631500                    EPPR1   J,,AUTO
         1 000400   200030 451500                    STP1    FIT$+7,,AUTO
         1 000401   000001 236000 xsym               LDQ     B_VECTNIL+1
         1 000402   200027 756100                    STQ     FIT$+6,,AUTO
         1 000403   200011 633500                    EPPR3   CAP$,,AUTO
         1 000404   200026 453500                    STP3    FIT$+5,,AUTO
         1 000405   200026 630500                    EPPR0   FIT$+5,,AUTO
         1 000406   000021 631400 xsym               EPPR1   B_VECTNIL+17
         1 000407   000000 701000 xent               TSX1    MMQ$GCCP
         1 000410   000524 702000 1                  TSX2    ALTRT

      413    12338    5             CALL INITPG;

  12338  1 000411   000537 701000 1                  TSX1    INITPG
         1 000412   000000 011000                    NOP     0

      414    12339    5             KQ$MMSD.CCXT$=P$;

  12339  1 000413   200012 236100                    LDQ     P$,,AUTO
         1 000414   000000 470400 xsym               LDP0    KQ_MMSD$
         1 000415   000002 756100                    STQ     2,,PR0

      415    12340    5             END;

      416    12341    4           END;

  12341  1 000416   000442 710000 1                  TRA     s:12348

      417    12342    3         ELSE IF KQ$MMSD.DCXT$ = ADDR(NIL) THEN

  12342  1 000417   000000 470400 xsym               LDP0    KQ_MMSD$
         1 000420   000003 236100                    LDQ     3,,PR0
         1 000421   000001 116000 xsym               CMPQ    B_VECTNIL+1
         1 000422   000442 601000 1                  TNZ     s:12348
PL6.E3A0      #001=KQM$INIT File=KQM$MM.:E05TSI                                  WED 07/30/97 01:30 Page:51

      418    12343    4            DO;

      419    12344    4            CALL MMQ$GCAP (CAP$,,J) ALTRET(ALTRT);

  12344  1 000423   200007 631500                    EPPR1   J,,AUTO
         1 000424   200030 451500                    STP1    FIT$+7,,AUTO
         1 000425   000001 236000 xsym               LDQ     B_VECTNIL+1
         1 000426   200027 756100                    STQ     FIT$+6,,AUTO
         1 000427   200011 633500                    EPPR3   CAP$,,AUTO
         1 000430   200026 453500                    STP3    FIT$+5,,AUTO
         1 000431   200026 630500                    EPPR0   FIT$+5,,AUTO
         1 000432   000021 631400 xsym               EPPR1   B_VECTNIL+17
         1 000433   000000 701000 xent               TSX1    MMQ$GCAP
         1 000434   000524 702000 1                  TSX2    ALTRT

      420    12345    4            CALL INITPG;

  12345  1 000435   000537 701000 1                  TSX1    INITPG
         1 000436   000000 011000                    NOP     0

      421    12346    4            KQ$MMSD.DCXT$=P$;

  12346  1 000437   200012 236100                    LDQ     P$,,AUTO
         1 000440   000000 470400 xsym               LDP0    KQ_MMSD$
         1 000441   000003 756100                    STQ     3,,PR0

      422    12347    4            END;

      423    12348    3         IF HKP = 0 THEN

  12348  1 000442   200010 235100                    LDA     HKP,,AUTO
         1 000443   000461 601000 1                  TNZ     s:12355

      424    12349    4           DO;

      425    12350    4           J=SIZEW(K$CG);
PL6.E3A0      #001=KQM$INIT File=KQM$MM.:E05TSI                                  WED 07/30/97 01:30 Page:52

  12350  1 000444   000266 236007                    LDQ     182,DL
         1 000445   200007 756100                    STQ     J,,AUTO

      426    12351    4           CALL KQM$GETB (KQ$MMSD.CCXT$->K$CG,BLK$,J) ALTRET(ALTRT);

  12351  1 000446   000002 471500                    LDP1    2,,PR0
         1 000447   200007 633500                    EPPR3   J,,AUTO
         1 000450   200030 453500                    STP3    FIT$+7,,AUTO
         1 000451   200013 634500                    EPPR4   BLK$,,AUTO
         1 000452   200027 454500                    STP4    FIT$+6,,AUTO
         1 000453   200026 451500                    STP1    FIT$+5,,AUTO
         1 000454   200026 630500                    EPPR0   FIT$+5,,AUTO
         1 000455   000021 631400 xsym               EPPR1   B_VECTNIL+17
         1 000456   000000 701000 xent               TSX1    KQM$GETB
         1 000457   000524 702000 1                  TSX2    ALTRT

      427    12352    4           END;

  12352  1 000460   000513 710000 1                  TRA     GOTIT

      428    12353    3         ELSE
      429    12354    4           DO;

      430    12355    4           J=SIZEW(KQ$DSB);

  12355  1 000461   000066 236007                    LDQ     54,DL
         1 000462   200007 756100                    STQ     J,,AUTO

      431    12356    4           CALL KQM$GETB (KQ$MMSD.DCXT$->K$CG,BLK$,J) ALTRET(NOGOT);

  12356  1 000463   000003 471500                    LDP1    3,,PR0
         1 000464   200007 633500                    EPPR3   J,,AUTO
         1 000465   200030 453500                    STP3    FIT$+7,,AUTO
         1 000466   200013 634500                    EPPR4   BLK$,,AUTO
         1 000467   200027 454500                    STP4    FIT$+6,,AUTO
         1 000470   200026 451500                    STP1    FIT$+5,,AUTO
PL6.E3A0      #001=KQM$INIT File=KQM$MM.:E05TSI                                  WED 07/30/97 01:30 Page:53
         1 000471   200026 630500                    EPPR0   FIT$+5,,AUTO
         1 000472   000021 631400 xsym               EPPR1   B_VECTNIL+17
         1 000473   000000 701000 xent               TSX1    KQM$GETB
         1 000474   000476 702000 1                  TSX2    NOGOT

      432    12357    4           GOTO GOTIT;

  12357  1 000475   000513 710000 1                  TRA     GOTIT

  12355  1 000476                       NOGOT        null
      433    12358    4   NOGOT:  ;
      434    12359    4           CALL DIGEMUP;

  12359  1 000476   000721 701000 1                  TSX1    DIGEMUP
         1 000477   000000 011000                    NOP     0

      435    12360    4           CALL KQM$GETB (KQ$MMSD.DCXT$->K$CG,BLK$,J) ALTRET(ALTRT);

  12360  1 000500   000000 470400 xsym               LDP0    KQ_MMSD$
         1 000501   000003 471500                    LDP1    3,,PR0
         1 000502   200007 633500                    EPPR3   J,,AUTO
         1 000503   200030 453500                    STP3    FIT$+7,,AUTO
         1 000504   200013 634500                    EPPR4   BLK$,,AUTO
         1 000505   200027 454500                    STP4    FIT$+6,,AUTO
         1 000506   200026 451500                    STP1    FIT$+5,,AUTO
         1 000507   200026 630500                    EPPR0   FIT$+5,,AUTO
         1 000510   000021 631400 xsym               EPPR1   B_VECTNIL+17
         1 000511   000000 701000 xent               TSX1    KQM$GETB
         1 000512   000524 702000 1                  TSX2    ALTRT

  12355  1 000513                       GOTIT        null
      436    12361    4   GOTIT:  ;
      437    12362    4           END;

      438    12363              %UNLOCK (G=KQ$MMSD.GATE);

  12364  1 000513   000000 236000 xsym               LDQ     KQ_MMSD$
PL6.E3A0      #001=KQM$INIT File=KQM$MM.:E05TSI                                  WED 07/30/97 01:30 Page:54
         1 000514   000006 036003                    ADLQ    6,DU
         1 000515   200026 756100                    STQ     FIT$+5,,AUTO
         1 000516   200026 630500                    EPPR0   FIT$+5,,AUTO
         1 000517   000017 631400 xsym               EPPR1   B_VECTNIL+15
         1 000520   000000 701000 xent               TSX1    HFC$UNLOCK
         1 000521   000000 011000                    NOP     0

      439    12366    3         RETURN;

  12366  1 000522   200022 221300                    LDX1  ! FIT$+1,,AUTO
         1 000523   000001 702211                    TSX2  ! 1,X1

  12366  1 000524                       ALTRT        null
      440    12367    3   ALTRT:;
      441    12368    3         ERRCODE=J;

  12368  1 000524   200007 235100                    LDA     J,,AUTO
         1 000525   200017 755100                    STA     ERRCODE,,AUTO

      442    12369              %UNLOCK (G=KQ$MMSD.GATE);

  12370  1 000526   000000 236000 xsym               LDQ     KQ_MMSD$
         1 000527   000006 036003                    ADLQ    6,DU
         1 000530   200026 756100                    STQ     FIT$+5,,AUTO
         1 000531   200026 630500                    EPPR0   FIT$+5,,AUTO
         1 000532   000017 631400 xsym               EPPR1   B_VECTNIL+15
         1 000533   000000 701000 xent               TSX1    HFC$UNLOCK
         1 000534   000000 011000                    NOP     0

      443    12372    3         ALTRETURN;

  12372  1 000535   200022 221300                    LDX1  ! FIT$+1,,AUTO
         1 000536   000000 702211                    TSX2  ! 0,X1

      444    12373    3   INITPG: PROC;

  12373  1 000537   200024 741300       INITPG       STX1  ! FIT$+3,,AUTO
PL6.E3A0      #001=KQM$INIT File=KQM$MM.:E05TSI                                  WED 07/30/97 01:30 Page:55

      445    12374                      /*  Init the page obtained by sticking a context block
      446    12375                          in it, and making it look like a block-allocation
      447    12376                          page for that 'comgroup' */
      448    12377
      449    12378                      /*  Return P$ = ADDR(CONTEXT BLOCK) */
      450    12379
      451    12380    4         CAP$->B$$PAGE='0'B;

  12380  1 000540   200011 470500                    LDP0    CAP$,,AUTO
         1 000541   010000 220003                    LDX0    4096,DU
         1 000542   000140 100400                    MLR     fill='000'O
         1 000543   000002 000001 xsym               ADSC9   B_VECTNIL+2              cn=0,n=1
         1 000544   000000 000010                    ADSC9   0,,PR0                   cn=0,n=*X0

      452    12381    4         CAP$->KQ$BAP=KQ_IBAP;

  12381  1 000545   200011 470500                    LDP0    CAP$,,AUTO
         1 000546   000100 100400                    MLR     fill='000'O
         1 000547   000000 000060 xsym               ADSC9   KQ_IBAP                  cn=0,n=48
         1 000550   000000 000060                    ADSC9   0,,PR0                   cn=0,n=48

      453    12382    4         CAP$->KQ$BAP.FREESIZE=1024-SIZEW(KQ$BAP)-SIZEW(K$CG);

  12382  1 000551   001476 235007                    LDA     830,DL
         1 000552   200011 470500                    LDP0    CAP$,,AUTO
         1 000553   000006 755100                    STA     6,,PR0

      454    12383    4         P$=PINCRW(CAP$,SIZEW(KQ$BAP));

  12383  1 000554   200011 236100                    LDQ     CAP$,,AUTO
         1 000555   000014 036003                    ADLQ    12,DU
         1 000556   200012 756100                    STQ     P$,,AUTO

      455    12384    4         BLK$=PINCRW(P$,SIZEW(K$CG));

  12384  1 000557   000266 036003                    ADLQ    182,DU
PL6.E3A0      #001=KQM$INIT File=KQM$MM.:E05TSI                                  WED 07/30/97 01:30 Page:56
         1 000560   200013 756100                    STQ     BLK$,,AUTO

      456    12385    4         P$->K$CG=KQ_ICG;

  12385  1 000561   200012 470500                    LDP0    P$,,AUTO
         1 000562   000100 100400                    MLR     fill='000'O
         1 000563   000000 001324 xsym               ADSC9   KQ_ICG                   cn=0,n=724
         1 000564   000000 001324                    ADSC9   0,,PR0                   cn=0,n=724

      457    12386    4         P$->K$CG.MMD.CURPG=1;

  12386  1 000565   000001 236007                    LDQ     1,DL
         1 000566   200012 470500                    LDP0    P$,,AUTO
         1 000567   000006 756100                    STQ     6,,PR0

      458    12387    4         P$->K$CG.AUCTL.MINPG=1;

  12387  1 000570   000001 221003                    LDX1    1,DU
         1 000571   200012 470500                    LDP0    P$,,AUTO
         1 000572   000131 741100                    STX1    89,,PR0

      459    12388    4         P$->K$CG.AUCTL.MAXPG=1000;

  12388  1 000573   001750 222003                    LDX2    1000,DU
         1 000574   000133 742100                    STX2    91,,PR0

      460    12389    4         P$->K$CG.MMD.MINBPG=1;

  12389  1 000575   000011 441100                    SXL1    9,,PR0

      461    12390    4         P$->K$CG.MMD.MAXBPG=1000;

  12390  1 000576   200012 470500                    LDP0    P$,,AUTO
         1 000577   000010 442100                    SXL2    8,,PR0

      462    12391    4         P$->K$CG.MMD.HEAD$=CAP$;

PL6.E3A0      #001=KQM$INIT File=KQM$MM.:E05TSI                                  WED 07/30/97 01:30 Page:57
  12391  1 000600   200011 236100                    LDQ     CAP$,,AUTO
         1 000601   200012 470500                    LDP0    P$,,AUTO
         1 000602   000003 756100                    STQ     3,,PR0

      463    12392    4         BLK$->KQ$FB.FLNK$=ADDR(NIL);

  12392  1 000603   000001 236000 xsym               LDQ     B_VECTNIL+1
         1 000604   200013 470500                    LDP0    BLK$,,AUTO
         1 000605   000000 756100                    STQ     0,,PR0

      464    12393    4         BLK$->KQ$FB.BLNK$=ADDR(NIL);

  12393  1 000606   000001 236000 xsym               LDQ     B_VECTNIL+1
         1 000607   200013 470500                    LDP0    BLK$,,AUTO
         1 000610   000001 756100                    STQ     1,,PR0

      465    12394    4         BLK$->KQ$FB.SIZE=CAP$->KQ$BAP.FREESIZE;

  12394  1 000611   200011 470500                    LDP0    CAP$,,AUTO
         1 000612   200013 471500                    LDP1    BLK$,,AUTO
         1 000613   000006 235100                    LDA     6,,PR0
         1 000614   100002 755100                    STA     2,,PR1

      466    12395    4         CAP$->KQ$BAP.CG$=P$;

  12395  1 000615   200012 236100                    LDQ     P$,,AUTO
         1 000616   200011 470500                    LDP0    CAP$,,AUTO
         1 000617   000013 756100                    STQ     11,,PR0

      467    12396    4         CAP$->KQ$BAP.JUHEAD$=BLK$;

  12396  1 000620   200013 236100                    LDQ     BLK$,,AUTO
         1 000621   000011 756100                    STQ     9,,PR0

      468    12397    4         CAP$->KQ$BAP.JUTAIL$=BLK$;

  12397  1 000622   200013 236100                    LDQ     BLK$,,AUTO
PL6.E3A0      #001=KQM$INIT File=KQM$MM.:E05TSI                                  WED 07/30/97 01:30 Page:58
         1 000623   200011 470500                    LDP0    CAP$,,AUTO
         1 000624   000012 756100                    STQ     10,,PR0

      469    12398    4         CAP$->KQ$BAP.HDR.SELF$=CAP$;

  12398  1 000625   200011 236100                    LDQ     CAP$,,AUTO
         1 000626   000002 756100                    STQ     2,,PR0

      470    12399    4         RETURN;

  12399  1 000627   200024 221300                    LDX1  ! FIT$+3,,AUTO
         1 000630   000001 702211                    TSX2  ! 1,X1

      471    12400    4   END INITPG;
      472    12401    3   END GET;
      473    12402    2   END GETCXT;
      474    12403        /****************************************************************
      475    12404        *****************************************************************/
      476    12405        /*D* NAME:         RELCXT
      477    12406             PURPOSE:      To release a CG context block
      478    12407             DESCRIPTION:  The block is released into the fake 'comgroup'
      479    12408                           pointed to by KQ$MMSD.CCXT$
      480    12409        */
      481    12410    1   RELCXT: PROC;

  12410  1 000631   200020 741300       RELCXT       STX1  ! ERRCODE+1,,AUTO

      482    12411    2         CALL KQM$RELB (KQ$MMSD.CCXT$->K$CG,CG$,SIZEW(K$CG));

  12411  1 000632   000000 470400 xsym               LDP0    KQ_MMSD$
         1 000633   000002 471500                    LDP1    2,,PR0
         1 000634   000003 236000 2                  LDQ     3
         1 000635   200030 756100                    STQ     FIT$+7,,AUTO
         1 000636   200015 633500                    EPPR3   CG$,,AUTO
         1 000637   200027 453500                    STP3    FIT$+6,,AUTO
         1 000640   200026 451500                    STP1    FIT$+5,,AUTO
         1 000641   200026 630500                    EPPR0   FIT$+5,,AUTO
PL6.E3A0      #001=KQM$INIT File=KQM$MM.:E05TSI                                  WED 07/30/97 01:30 Page:59
         1 000642   000021 631400 xsym               EPPR1   B_VECTNIL+17
         1 000643   000000 701000 xent               TSX1    KQM$RELB
         1 000644   000000 011000                    NOP     0

      483    12412    2         RETURN;

  12412  1 000645   200020 221300                    LDX1  ! ERRCODE+1,,AUTO
         1 000646   000001 702211                    TSX2  ! 1,X1

      484    12413    2   END RELCXT;
      485    12414        /****************************************************************
      486    12415        *****************************************************************/
      487    12416        /*D* NAME:         RELDSB
      488    12417             PURPOSE:      To release a CG descriptor segment block
      489    12418             DESCRIPTION:  Since we cache the comgroup's descriptor
      490    12419                           segment even when running slave CPUs,
      491    12420                           we cannot simply release the DSB.  If
      492    12421                           we did, then it might be immediately
      493    12422                           acquired by some other new comgroup and
      494    12423                           used.  This would be terrible if some
      495    12424                           other CPU was looking at the comgroup
      496    12425                           we're now shutting down, and then went
      497    12426                           on to look at the new one, because he
      498    12427                           would have the wrong descriptors in
      499    12428                           his cache (KCC$CLOCK is an example of
      500    12429                           a guy who might get drilled this way).
      501    12430
      502    12431                           The solution is to 'hide' the DSB instead
      503    12432                           of releasing it.  When the number of
      504    12433                           hidden ones gets too big to put up with
      505    12434                           (i.e. we're wasting a lot of memory on
      506    12435                           them), or when someone tries to get a
      507    12436                           DSB and cannot, we bring them out of
      508    12437                           hiding.  In order to do this, we must
      509    12438                           clear the cache of every running CPU.
      510    12439
      511    12440                           The buried DSBs are headed by KQ$MMSD.CRYPT$,
PL6.E3A0      #001=KQM$INIT File=KQM$MM.:E05TSI                                  WED 07/30/97 01:30 Page:60
      512    12441                           and the count is KQ$MMSD.CRYPTCNT.
      513    12442        */
      514    12443    1   RELDSB: PROC;

  12443  1 000647   200020 741300       RELDSB       STX1  ! ERRCODE+1,,AUTO

      515    12444        /**/
      516    12445                          /*    First strip the DSB of
      517    12446                           *    all its comgroup page table
      518    12447                           *    chunks.
      519    12448                           */
      520    12449    2         CALL MMQ$TRUNCDSBL (,DSB$->KQ$DSB,MMQERR) ALTRET(BADREL);

  12449  1 000650   200017 630500                    EPPR0   ERRCODE,,AUTO
         1 000651   200030 450500                    STP0    FIT$+7,,AUTO
         1 000652   200016 236100                    LDQ     DSB$,,AUTO
         1 000653   000001 235000 xsym               LDA     B_VECTNIL+1
         1 000654   200026 757100                    STAQ    FIT$+5,,AUTO
         1 000655   200026 630500                    EPPR0   FIT$+5,,AUTO
         1 000656   000021 631400 xsym               EPPR1   B_VECTNIL+17
         1 000657   000000 701000 xent               TSX1    MMQ$TRUNCDSBL
         1 000660   000716 702000 1                  TSX2    BADREL

  12449  1 000661                       REL0         null
      521    12450    2   REL0: ;
      522    12451              %LOCK (G=KQ$MMSD.GATE);

  12452  1 000661   000000 236000 xsym               LDQ     KQ_MMSD$
         1 000662   000006 036003                    ADLQ    6,DU
         1 000663   200026 756100                    STQ     FIT$+5,,AUTO
         1 000664   200026 630500                    EPPR0   FIT$+5,,AUTO
         1 000665   000017 631400 xsym               EPPR1   B_VECTNIL+15
         1 000666   000000 701000 xent               TSX1    HFC$LOCK
         1 000667   000000 011000                    NOP     0

      523    12454    2         DSB$->KQ$DSB.CRYPT.LNK$=KQ$MMSD.CRYPT$;

PL6.E3A0      #001=KQM$INIT File=KQM$MM.:E05TSI                                  WED 07/30/97 01:30 Page:61
  12454  1 000670   000000 470400 xsym               LDP0    KQ_MMSD$
         1 000671   000004 236100                    LDQ     4,,PR0
         1 000672   200016 471500                    LDP1    DSB$,,AUTO
         1 000673   100000 756100                    STQ     0,,PR1

      524    12455    2         KQ$MMSD.CRYPT$=DSB$;

  12455  1 000674   200016 236100                    LDQ     DSB$,,AUTO
         1 000675   000004 756100                    STQ     4,,PR0

      525    12456    2         KQ$MMSD.CRYPTCNT=KQ$MMSD.CRYPTCNT+1;

  12456  1 000676   000005 235100                    LDA     5,,PR0
         1 000677   000001 035007                    ADLA    1,DL
         1 000700   000005 755100                    STA     5,,PR0

      526    12457    2         IF KQ$MMSD.CRYPTCNT >= %KQ_BDMAX# THEN

  12457  1 000701   000046 115007                    CMPA    38,DL
         1 000702   000705 602000 1                  TNC     s:12460

      527    12458    2          CALL DIGEMUP;

  12458  1 000703   000721 701000 1                  TSX1    DIGEMUP
         1 000704   000000 011000                    NOP     0

      528    12459              %UNLOCK (G=KQ$MMSD.GATE);

  12460  1 000705   000000 236000 xsym               LDQ     KQ_MMSD$
         1 000706   000006 036003                    ADLQ    6,DU
         1 000707   200026 756100                    STQ     FIT$+5,,AUTO
         1 000710   200026 630500                    EPPR0   FIT$+5,,AUTO
         1 000711   000017 631400 xsym               EPPR1   B_VECTNIL+15
         1 000712   000000 701000 xent               TSX1    HFC$UNLOCK
         1 000713   000000 011000                    NOP     0

      529    12462    2         RETURN;
PL6.E3A0      #001=KQM$INIT File=KQM$MM.:E05TSI                                  WED 07/30/97 01:30 Page:62

  12462  1 000714   200020 221300                    LDX1  ! ERRCODE+1,,AUTO
         1 000715   000001 702211                    TSX2  ! 1,X1

  12457  1 000716                       BADREL       null
      530    12463    2   BADREL:;
      531    12464    2         CALL SC_BCGMMQ; /* See KQM$MM2 for extract */

  12464  1 000716   000000 713400 xsym               CLIMB   SC_BCGMMQ
         1 000717   000000 600000 xsid               climb   nvectors=         0

      532    12465    2         GOTO REL0;

  12465  1 000720   000661 710000 1                  TRA     REL0

      533    12466    2   END RELDSB;
      534    12467        /****************************************************************
      535    12468        *****************************************************************/
      536    12469        /*D* NAME:         DIGEMUP
      537    12470             PURPOSE:      To dig up all the buried DSBs
      538    12471             INPUT:        KQ$MMSD.GATE locked
      539    12472             DESCRIPTION:  Releases all the buried DSBs, and clears
      540    12473                           everyone's cache.
      541    12474
      542    12475                           Leaves gate locked.
      543    12476        */
      544    12477    1   DIGEMUP: PROC;

  12477  1 000721   200024 741300       DIGEMUP      STX1  ! FIT$+3,,AUTO

      545    12478        /**/
      546    12479    2         IF KQ$MMSD.CRYPTCNT = 0 THEN RETURN;

  12479  1 000722   000000 470400 xsym               LDP0    KQ_MMSD$
         1 000723   000005 235100                    LDA     5,,PR0
         1 000724   000726 601000 1                  TNZ     s:12480

PL6.E3A0      #001=KQM$INIT File=KQM$MM.:E05TSI                                  WED 07/30/97 01:30 Page:63
  12479  1 000725   000001 702211                    TSX2  ! 1,X1

      547    12480    2         KQ_STATS.CRYPTOPN=KQ_STATS.CRYPTOPN+1;

  12480  1 000726   000007 054000 xsym               AOS     KQ_STATS+7

      548    12481    2         CALL HFC$CACHECLR;

  12481  1 000727   000002 631400 xsym               EPPR1   B_VECTNIL+2
         1 000730   000000 701000 xent               TSX1    HFC$CACHECLR
         1 000731   000000 011000                    NOP     0

      549    12482    3           DO WHILE (KQ$MMSD.CRYPT$ ~= ADDR(NIL));

  12482  1 000732   000756 710000 1                  TRA     s:12487

      550    12483    3           DSB$=KQ$MMSD.CRYPT$;

  12483  1 000733   000000 470400 xsym               LDP0    KQ_MMSD$
         1 000734   000004 236100                    LDQ     4,,PR0
         1 000735   200016 756100                    STQ     DSB$,,AUTO

      551    12484    3           KQ$MMSD.CRYPT$=DSB$->KQ$DSB.CRYPT.LNK$;

  12484  1 000736   200016 471500                    LDP1    DSB$,,AUTO
         1 000737   100000 236100                    LDQ     0,,PR1
         1 000740   000004 756100                    STQ     4,,PR0

      552    12485    3           KQ$MMSD.CRYPTCNT=KQ$MMSD.CRYPTCNT-1;

  12485  1 000741   000005 235100                    LDA     5,,PR0
         1 000742   000001 135007                    SBLA    1,DL
         1 000743   000005 755100                    STA     5,,PR0

      553    12486    3           CALL KQM$RELB (KQ$MMSD.DCXT$->K$CG,DSB$,SIZEW(KQ$DSB));

  12486  1 000744   000003 471500                    LDP1    3,,PR0
PL6.E3A0      #001=KQM$INIT File=KQM$MM.:E05TSI                                  WED 07/30/97 01:30 Page:64
         1 000745   000005 236000 2                  LDQ     5
         1 000746   200030 756100                    STQ     FIT$+7,,AUTO
         1 000747   200016 633500                    EPPR3   DSB$,,AUTO
         1 000750   200027 453500                    STP3    FIT$+6,,AUTO
         1 000751   200026 451500                    STP1    FIT$+5,,AUTO
         1 000752   200026 630500                    EPPR0   FIT$+5,,AUTO
         1 000753   000021 631400 xsym               EPPR1   B_VECTNIL+17
         1 000754   000000 701000 xent               TSX1    KQM$RELB
         1 000755   000000 011000                    NOP     0

      554    12487    3           END;

  12487  1 000756   000000 470400 xsym               LDP0    KQ_MMSD$
         1 000757   000004 236100                    LDQ     4,,PR0
         1 000760   000001 116000 xsym               CMPQ    B_VECTNIL+1
         1 000761   000733 601000 1                  TNZ     s:12483

      555    12488    2         CALL MMQ$ZAPCPUS;

  12488  1 000762   000002 631400 xsym               EPPR1   B_VECTNIL+2
         1 000763   000000 701000 xent               TSX1    MMQ$ZAPCPUS
         1 000764   000000 011000                    NOP     0

      556    12489    2         RETURN;

  12489  1 000765   200024 221300                    LDX1  ! FIT$+3,,AUTO
         1 000766   000001 702211                    TSX2  ! 1,X1

      557    12490    2   END DIGEMUP;
      558    12491        /****************************************************************
      559    12492        *****************************************************************/
      560    12493        /*D* NAME:         FINDACB
      561    12494             PURPOSE:      To find/setup the account block for a CG
      562    12495             DESCRIPTION:  B$JIT.DCB$ points to a DCB with the comgroup's
      563    12496                           account & SETX.  This is used to find the correct
      564    12497                           account block, or allocate a newie & merge in the
      565    12498                           correct info.  The use count in the ACB is incred
PL6.E3A0      #001=KQM$INIT File=KQM$MM.:E05TSI                                  WED 07/30/97 01:30 Page:65
      566    12499                           and its address stored in the CG context block
      567    12500                           pointed to by CG$.
      568    12501
      569    12502                           If a account block cannot be allocated, we ALTRET,
      570    12503                           with ERRCODE set.
      571    12504        */
      572    12505    1   FINDACB: PROC ALTRET;

  12505  1 000767   200020 741300       FINDACB      STX1  ! ERRCODE+1,,AUTO

      573    12506        /**/
      574    12507    2   DCL FIT$ PTR;
      575    12508        /**/
      576    12509    2         CALL LOCACB ALTRET(NEWACB);

  12509  1 000770   001215 701000 1                  TSX1    LOCACB
         1 000771   001007 702000 1                  TSX2    NEWACB

      577    12510    2         ACB$->KQ$ACB.USECNT=ACB$->KQ$ACB.USECNT+1;

  12510  1 000772   200014 470500                    LDP0    ACB$,,AUTO
         1 000773   000004 220100                    LDX0    4,,PR0
         1 000774   000001 621010                    EAX1    1,X0
         1 000775   000004 741100                    STX1    4,,PR0

  12510  1 000776                       DONE         null
      578    12511    2   DONE: ;
      579    12512    2         CG$->K$CG.ACB$=ACB$;

  12512  1 000776   200014 236100                    LDQ     ACB$,,AUTO
         1 000777   200015 470500                    LDP0    CG$,,AUTO
         1 001000   000221 756100                    STQ     145,,PR0

      580    12513              %UNLOCK (G=KQ_CGLGATE);

  12514  1 001001   000001 630400 2                  EPPR0   1
         1 001002   000017 631400 xsym               EPPR1   B_VECTNIL+15
PL6.E3A0      #001=KQM$INIT File=KQM$MM.:E05TSI                                  WED 07/30/97 01:30 Page:66
         1 001003   000000 701000 xent               TSX1    HFC$UNLOCK
         1 001004   000000 011000                    NOP     0

      581    12516    2         RETURN;

  12516  1 001005   200020 221300                    LDX1  ! ERRCODE+1,,AUTO
         1 001006   000001 702211                    TSX2  ! 1,X1

  12512  1 001007                       NEWACB       null
      582    12517    2   NEWACB:;
      583    12518                                /* Allocate a new one */
      584    12519    2         J=SIZEW(KQ$ACB);

  12519  1 001007   000010 235007                    LDA     8,DL
         1 001010   200007 755100                    STA     J,,AUTO

      585    12520    2         CALL KQM$GETB(KQ$MMSD.CCXT$->K$CG,ACB$,J) ALTRET(ALTRT);

  12520  1 001011   000000 470400 xsym               LDP0    KQ_MMSD$
         1 001012   000002 471500                    LDP1    2,,PR0
         1 001013   200007 633500                    EPPR3   J,,AUTO
         1 001014   200030 453500                    STP3    FIT$+7,,AUTO
         1 001015   200014 634500                    EPPR4   ACB$,,AUTO
         1 001016   200027 454500                    STP4    FIT$+6,,AUTO
         1 001017   200026 451500                    STP1    FIT$+5,,AUTO
         1 001020   200026 630500                    EPPR0   FIT$+5,,AUTO
         1 001021   000021 631400 xsym               EPPR1   B_VECTNIL+17
         1 001022   000000 701000 xent               TSX1    KQM$GETB
         1 001023   001205 702000 1                  TSX2    ALTRT

      586    12521    2         ACB$->KQ$ACB=ACB_INIT;

  12521  1 001024   200014 470500                    LDP0    ACB$,,AUTO
         1 001025   000100 100400                    MLR     fill='000'O
         1 001026   000002 000034 0                  ADSC9   ACB_INIT                 cn=0,n=28
         1 001027   000000 000034                    ADSC9   0,,PR0                   cn=0,n=28

PL6.E3A0      #001=KQM$INIT File=KQM$MM.:E05TSI                                  WED 07/30/97 01:30 Page:67
      587    12522    2         ACB$->KQ$ACB.FLNK$=KQ$MMSD.ACBHEAD$;

  12522  1 001030   000000 470400 xsym               LDP0    KQ_MMSD$
         1 001031   000000 236100                    LDQ     0,,PR0
         1 001032   200014 471500                    LDP1    ACB$,,AUTO
         1 001033   100000 756100                    STQ     0,,PR1

      588    12523    2         IF KQ$MMSD.ACBHEAD$ ~= ADDR(NIL) THEN

  12523  1 001034   000000 236100                    LDQ     0,,PR0
         1 001035   000001 116000 xsym               CMPQ    B_VECTNIL+1
         1 001036   001042 600000 1                  TZE     s:12525

      589    12524    2          KQ$MMSD.ACBHEAD$->KQ$ACB.BLNK$=ACB$;

  12524  1 001037   000000 471500                    LDP1    0,,PR0
         1 001040   200014 236100                    LDQ     ACB$,,AUTO
         1 001041   100001 756100                    STQ     1,,PR1

      590    12525    2         KQ$MMSD.ACBHEAD$=ACB$;

  12525  1 001042   200014 236100                    LDQ     ACB$,,AUTO
         1 001043   000000 756100                    STQ     0,,PR0

      591    12526    2         ACB$->KQ$ACB.ACCT=B$JIT.DCB$->F$DCB.ACCT;

  12526  1 001044   000000 471400 xsym               LDP1    B$JIT$
         1 001045   100232 473500                    LDP3    154,,PR1
         1 001046   200014 474500                    LDP4    ACB$,,AUTO
         1 001047   300020 237100                    LDAQ    16,,PR3
         1 001050   400005 755100                    STA     5,,PR4
         1 001051   400006 756100                    STQ     6,,PR4

      592    12527    2         ACB$->KQ$ACB.SETX=B$JIT.DCB$->F$DCB.SETX;

  12527  1 001052   100232 473500                    LDP3    154,,PR1
         1 001053   300051 720100                    LXL0    41,,PR3
PL6.E3A0      #001=KQM$INIT File=KQM$MM.:E05TSI                                  WED 07/30/97 01:30 Page:68
         1 001054   200014 474500                    LDP4    ACB$,,AUTO
         1 001055   400004 440100                    SXL0    4,,PR4

      593    12528                           /* Get limits from FD FIT */
      594    12529              %UNLOCK (G=KQ_CGLGATE);

  12530  1 001056   000001 630400 2                  EPPR0   1
         1 001057   000017 631400 xsym               EPPR1   B_VECTNIL+15
         1 001060   000000 701000 xent               TSX1    HFC$UNLOCK
         1 001061   000000 011000                    NOP     0

      595    12532    2         B$JIT.DCB$->F$DCB.GTYP=FMGTFD;

  12532  1 001062   000000 470400 xsym               LDP0    B$JIT$
         1 001063   000232 471500                    LDP1    154,,PR0
         1 001064   100064 236100                    LDQ     52,,PR1
         1 001065   000006 376000 2                  ANQ     6
         1 001066   020000 276003                    ORQ     8192,DU
         1 001067   100064 756100                    STQ     52,,PR1

      596    12533    2         J=PINCRW(F$CFU$,B$JIT.DCB$->F$DCB.CFU$->FM$CFU.ACCTX)->FM$CFUA.FDFITSDA;

  12533  1 001070   000232 471500                    LDP1    154,,PR0
         1 001071   100066 473500                    LDP3    54,,PR1
         1 001072   300002 220100                    LDX0    2,,PR3
         1 001073   000000 474400 xsym               LDP4    F$CFU$
         1 001074   400004 235110                    LDA     4,X0,PR4
         1 001075   200007 755100                    STA     J,,AUTO

      597    12534    2         CALL FMD$REDBUFBC (FIT$,1,J,,0) ALTRET(NOREAD);

  12534  1 001076   000007 236000 2                  LDQ     7
         1 001077   200032 756100                    STQ     FIT$+9,,AUTO
         1 001100   000001 236000 xsym               LDQ     B_VECTNIL+1
         1 001101   200031 756100                    STQ     FIT$+8,,AUTO
         1 001102   200007 635500                    EPPR5   J,,AUTO
         1 001103   200030 455500                    STP5    FIT$+7,,AUTO
PL6.E3A0      #001=KQM$INIT File=KQM$MM.:E05TSI                                  WED 07/30/97 01:30 Page:69
         1 001104   000010 236000 2                  LDQ     8
         1 001105   200027 756100                    STQ     FIT$+6,,AUTO
         1 001106   200021 636500                    EPPR6   FIT$,,AUTO
         1 001107   200026 456500                    STP6    FIT$+5,,AUTO
         1 001110   200026 630500                    EPPR0   FIT$+5,,AUTO
         1 001111   000023 631400 xsym               EPPR1   B_VECTNIL+19
         1 001112   000000 701000 xent               TSX1    FMD$REDBUFBC
         1 001113   001162 702000 1                  TSX2    NOREAD

      598    12535    2         FIT$=PINCRW(FIT$,SIZEW(FM$GRAN));

  12535  1 001114   200021 236100                    LDQ     FIT$,,AUTO
         1 001115   000005 036003                    ADLQ    5,DU
         1 001116   200021 756100                    STQ     FIT$,,AUTO

      599    12536    2         J=0;

  12536  1 001117   200007 450100                    STZ     J,,AUTO

      600    12537    2         CALL FMO$LOCCODP (FIT$,14) ALTRET(NOCODE);

  12537  1 001120   000012 236000 2                  LDQ     10
         1 001121   200027 756100                    STQ     FIT$+6,,AUTO
         1 001122   200021 630500                    EPPR0   FIT$,,AUTO
         1 001123   200026 450500                    STP0    FIT$+5,,AUTO
         1 001124   200026 630500                    EPPR0   FIT$+5,,AUTO
         1 001125   000020 631400 xsym               EPPR1   B_VECTNIL+16
         1 001126   000000 701000 xent               TSX1    FMO$LOCCODP
         1 001127   001135 702000 1                  TSX2    NOCODE

      601    12538    2         J=FIT$->CODE14.CGMEM*%CGMEMSIZ;

  12538  1 001130   200021 470500                    LDP0    FIT$,,AUTO
         1 001131   000001 236100                    LDQ     1,,PR0
         1 001132   000030 772000                    QRL     24
         1 001133   007770 376007                    ANQ     4088,DL
         1 001134   200007 756100                    STQ     J,,AUTO
PL6.E3A0      #001=KQM$INIT File=KQM$MM.:E05TSI                                  WED 07/30/97 01:30 Page:70

  12538  1 001135                       NOCODE       null
      602    12539    2   NOCODE:;
      603    12540    2         IF J = 0 THEN

  12540  1 001135   200007 235100                    LDA     J,,AUTO
         1 001136   001146 601000 1                  TNZ     s:12542

      604    12541    2          IF ACB$->KQ$ACB.ACCT = ':SYS' THEN J=100000;

  12541  1 001137   200014 470500                    LDP0    ACB$,,AUTO
         1 001140   040000 106500                    CMPC    fill='040'O
         1 001141   000005 000010                    ADSC9   5,,PR0                   cn=0,n=8
         1 001142   000012 000004 0                  ADSC9   ACB_INIT+8               cn=0,n=4
         1 001143   001146 601000 1                  TNZ     s:12542

  12541  1 001144   303240 236007                    LDQ     100000,DL
         1 001145   200007 756100                    STQ     J,,AUTO

      605    12542    2         CALL FMD$RELBUF(1);

  12542  1 001146   000010 630400 2                  EPPR0   8
         1 001147   000017 631400 xsym               EPPR1   B_VECTNIL+15
         1 001150   000000 701000 xent               TSX1    FMD$RELBUF
         1 001151   000000 011000                    NOP     0

      606    12543              %LOCK (G=KQ_CGLGATE);

  12544  1 001152   000001 630400 2                  EPPR0   1
         1 001153   000017 631400 xsym               EPPR1   B_VECTNIL+15
         1 001154   000000 701000 xent               TSX1    HFC$LOCK
         1 001155   000000 011000                    NOP     0

      607    12546    2         ACB$->KQ$ACB.CURPGLIM=J;

  12546  1 001156   200007 235100                    LDA     J,,AUTO
         1 001157   200014 470500                    LDP0    ACB$,,AUTO
PL6.E3A0      #001=KQM$INIT File=KQM$MM.:E05TSI                                  WED 07/30/97 01:30 Page:71
         1 001160   000003 755100                    STA     3,,PR0

      608    12547    2         GOTO DONE;

  12547  1 001161   000776 710000 1                  TRA     DONE

  12546  1 001162                       NOREAD       null
      609    12548    2   NOREAD:;
      610    12549    2         CALL FMD$RELBUF (1);

  12549  1 001162   000010 630400 2                  EPPR0   8
         1 001163   000017 631400 xsym               EPPR1   B_VECTNIL+15
         1 001164   000000 701000 xent               TSX1    FMD$RELBUF
         1 001165   000000 011000                    NOP     0

      611    12550    2         CG$->K$CG.ACB$=ACB$;

  12550  1 001166   200014 236100                    LDQ     ACB$,,AUTO
         1 001167   200015 470500                    LDP0    CG$,,AUTO
         1 001170   000221 756100                    STQ     145,,PR0

      612    12551    2         CALL DECRACB; /* Get rid of the ACB */

  12551  1 001171   001271 701000 1                  TSX1    DECRACB
         1 001172   000000 011000                    NOP     0

      613    12552    2         CG$->K$CG.ACB$=ADDR(NIL);

  12552  1 001173   000001 236000 xsym               LDQ     B_VECTNIL+1
         1 001174   200015 470500                    LDP0    CG$,,AUTO
         1 001175   000221 756100                    STQ     145,,PR0

      614    12553    2         ERRCODE=B$JIT.ERR.CODE; /* From FMD$REDBUF */

  12553  1 001176   000000 471400 xsym               LDP1    B$JIT$
         1 001177   100012 236100                    LDQ     10,,PR1
         1 001200   000003 772000                    QRL     3
PL6.E3A0      #001=KQM$INIT File=KQM$MM.:E05TSI                                  WED 07/30/97 01:30 Page:72
         1 001201   037777 376007                    ANQ     16383,DL
         1 001202   200017 756100                    STQ     ERRCODE,,AUTO

      615    12554    2         ALTRETURN;

  12554  1 001203   200020 221300                    LDX1  ! ERRCODE+1,,AUTO
         1 001204   000000 702211                    TSX2  ! 0,X1

  12553  1 001205                       ALTRT        null
      616    12555    2   ALTRT: ;
      617    12556    2         ERRCODE=J;

  12556  1 001205   200007 235100                    LDA     J,,AUTO
         1 001206   200017 755100                    STA     ERRCODE,,AUTO

      618    12557              %UNLOCK (G=KQ_CGLGATE);

  12558  1 001207   000001 630400 2                  EPPR0   1
         1 001210   000017 631400 xsym               EPPR1   B_VECTNIL+15
         1 001211   000000 701000 xent               TSX1    HFC$UNLOCK
         1 001212   000000 011000                    NOP     0

      619    12560    2         ALTRETURN;

  12560  1 001213   200020 221300                    LDX1  ! ERRCODE+1,,AUTO
         1 001214   000000 702211                    TSX2  ! 0,X1

      620    12561    2   END FINDACB;
      621    12562        /****************************************************************
      622    12563        *****************************************************************/
      623    12564        /*D* NAME:         LOCACB
      624    12565             PURPOSE:      To find an ACB
      625    12566             INPUT:        B$JIT.DCB$->F$DCB with desired ACCT & SETX
      626    12567             DESCRIPTION:  ALTRETs if not found, else RETURNs ACB$.  In both
      627    12568                           cases KQ_CGLGATE is locked.
      628    12569        */
      629    12570    1   LOCACB: PROC ALTRET;
PL6.E3A0      #001=KQM$INIT File=KQM$MM.:E05TSI                                  WED 07/30/97 01:30 Page:73

  12570  1 001215   200022 741300       LOCACB       STX1  ! FIT$+1,,AUTO

  12570  1 001216                       AGANE        null
      630    12571        /**/
      631    12572    2   AGANE:;
      632    12573              %LOCK (G=KQ_CGLGATE);

  12574  1 001216   000001 630400 2                  EPPR0   1
         1 001217   000017 631400 xsym               EPPR1   B_VECTNIL+15
         1 001220   000000 701000 xent               TSX1    HFC$LOCK
         1 001221   000000 011000                    NOP     0

      633    12576    2         ACB$=KQ$MMSD.ACBHEAD$;

  12576  1 001222   000000 470400 xsym               LDP0    KQ_MMSD$
         1 001223   000000 236100                    LDQ     0,,PR0
         1 001224   200014 756100                    STQ     ACB$,,AUTO

      634    12577    3           DO WHILE (ACB$ ~= ADDR(NIL));

  12577  1 001225   001265 710000 1                  TRA     s:12590

      635    12578    3           IF  ACB$->KQ$ACB.ACCT = B$JIT.DCB$->F$DCB.ACCT

  12578  1 001226   000000 470400 xsym               LDP0    B$JIT$
         1 001227   000232 471500                    LDP1    154,,PR0
         1 001230   200014 473500                    LDP3    ACB$,,AUTO
         1 001231   040100 106500                    CMPC    fill='040'O
         1 001232   300005 000010                    ADSC9   5,,PR3                   cn=0,n=8
         1 001233   100020 000010                    ADSC9   16,,PR1                  cn=0,n=8
         1 001234   001263 601000 1                  TNZ     s:12589
         1 001235   300004 236100                    LDQ     4,,PR3
         1 001236   100051 676100                    ERQ     41,,PR1
         1 001237   777777 376007                    ANQ     -1,DL
         1 001240   001263 601000 1                  TNZ     s:12589

PL6.E3A0      #001=KQM$INIT File=KQM$MM.:E05TSI                                  WED 07/30/97 01:30 Page:74
      636    12579    3           AND ACB$->KQ$ACB.SETX = B$JIT.DCB$->F$DCB.SETX THEN
      637    12580    4             DO;

      638    12581    4             IF ACB$->KQ$ACB.CURPGLIM >= 0 THEN RETURN;

  12581  1 001241   300003 235100                    LDA     3,,PR3
         1 001242   001245 604000 1                  TMI     s:12584

  12581  1 001243   200022 221300                    LDX1  ! FIT$+1,,AUTO
         1 001244   000001 702211                    TSX2  ! 1,X1

      639    12582                        /* Being initialized */
      640    12583                  %UNLOCK (G=KQ_CGLGATE);

  12584  1 001245   000001 630400 2                  EPPR0   1
         1 001246   000017 631400 xsym               EPPR1   B_VECTNIL+15
         1 001247   000000 701000 xent               TSX1    HFC$UNLOCK
         1 001250   000000 011000                    NOP     0

      641    12586    4             CALL SSR$REG (%SS_SL,,1);

  12586  1 001251   000010 236000 2                  LDQ     8
         1 001252   200030 756100                    STQ     FIT$+7,,AUTO
         1 001253   000001 236000 xsym               LDQ     B_VECTNIL+1
         1 001254   000014 235000 2                  LDA     12
         1 001255   200026 757100                    STAQ    FIT$+5,,AUTO
         1 001256   200026 630500                    EPPR0   FIT$+5,,AUTO
         1 001257   000021 631400 xsym               EPPR1   B_VECTNIL+17
         1 001260   000000 701000 xent               TSX1    SSR$REG
         1 001261   000000 011000                    NOP     0

      642    12587    4             GOTO AGANE;

  12587  1 001262   001216 710000 1                  TRA     AGANE

      643    12588    4             END;
      644    12589    3           ACB$=ACB$->KQ$ACB.FLNK$;
PL6.E3A0      #001=KQM$INIT File=KQM$MM.:E05TSI                                  WED 07/30/97 01:30 Page:75

  12589  1 001263   300000 236100                    LDQ     0,,PR3
         1 001264   200014 756100                    STQ     ACB$,,AUTO

      645    12590    3           END;

  12590  1 001265   000001 116000 xsym               CMPQ    B_VECTNIL+1
         1 001266   001226 601000 1                  TNZ     s:12578

      646    12591    2         ALTRETURN;

  12591  1 001267   200022 221300                    LDX1  ! FIT$+1,,AUTO
         1 001270   000000 702211                    TSX2  ! 0,X1

      647    12592    2   END LOCACB;
      648    12593        /****************************************************************
      649    12594        *****************************************************************/
      650    12595        /*D* NAME:         DECRACB
      651    12596             PURPOSE:      To release a CG's use of its ACB
      652    12597             DESCRIPTION:  The CG's CURPG count is subtracted from CURPG
      653    12598                           in the ACB.  The ACB's USECNT is decremented.
      654    12599                           If USECNT hits zero, the ACB is released.
      655    12600        */
      656    12601    1   DECRACB: PROC;

  12601  1 001271   200022 741300       DECRACB      STX1  ! FIT$+1,,AUTO

      657    12602        /**/
      658    12603    2         ACB$=CG$->K$CG.ACB$;

  12603  1 001272   200015 470500                    LDP0    CG$,,AUTO
         1 001273   000221 236100                    LDQ     145,,PR0
         1 001274   200014 756100                    STQ     ACB$,,AUTO

      659    12604    2         IF ACB$ ~= ADDR(NIL) THEN

  12604  1 001275   000001 116000 xsym               CMPQ    B_VECTNIL+1
PL6.E3A0      #001=KQM$INIT File=KQM$MM.:E05TSI                                  WED 07/30/97 01:30 Page:76
         1 001276   001361 600000 1                  TZE     s:12625

      660    12605    3           DO;

      661    12606                %LOCK (G=KQ_CGLGATE);

  12607  1 001277   000001 630400 2                  EPPR0   1
         1 001300   000017 631400 xsym               EPPR1   B_VECTNIL+15
         1 001301   000000 701000 xent               TSX1    HFC$LOCK
         1 001302   000000 011000                    NOP     0

      662    12609    3           ACB$->KQ$ACB.CURPG=ACB$->KQ$ACB.CURPG-CG$->K$CG.MMD.CURPG;

  12609  1 001303   200015 470500                    LDP0    CG$,,AUTO
         1 001304   200014 471500                    LDP1    ACB$,,AUTO
         1 001305   100002 236100                    LDQ     2,,PR1
         1 001306   000006 136100                    SBLQ    6,,PR0
         1 001307   100002 756100                    STQ     2,,PR1

      663    12610    3           ACB$->KQ$ACB.USECNT=ACB$->KQ$ACB.USECNT-1;

  12610  1 001310   200014 470500                    LDP0    ACB$,,AUTO
         1 001311   000004 220100                    LDX0    4,,PR0
         1 001312   777777 621010                    EAX1    -1,X0
         1 001313   000004 741100                    STX1    4,,PR0

      664    12611    3           IF ACB$->KQ$ACB.USECNT = 0 THEN

  12611  1 001314   200014 470500                    LDP0    ACB$,,AUTO
         1 001315   000004 220100                    LDX0    4,,PR0
         1 001316   001355 601000 1                  TNZ     s:12622

      665    12612    4             DO;

      666    12613    4             IF ACB$->KQ$ACB.BLNK$ = ADDR(NIL) THEN

  12613  1 001317   000001 236100                    LDQ     1,,PR0
PL6.E3A0      #001=KQM$INIT File=KQM$MM.:E05TSI                                  WED 07/30/97 01:30 Page:77
         1 001320   000001 116000 xsym               CMPQ    B_VECTNIL+1
         1 001321   001326 601000 1                  TNZ     s:12615

      667    12614    4              KQ$MMSD.ACBHEAD$=ACB$->KQ$ACB.FLNK$;

  12614  1 001322   000000 236100                    LDQ     0,,PR0
         1 001323   000000 471400 xsym               LDP1    KQ_MMSD$
         1 001324   100000 756100                    STQ     0,,PR1
         1 001325   001331 710000 1                  TRA     s:12616

      668    12615    4             ELSE ACB$->KQ$ACB.BLNK$->KQ$ACB.FLNK$=ACB$->KQ$ACB.FLNK$;

  12615  1 001326   000001 471500                    LDP1    1,,PR0
         1 001327   000000 236100                    LDQ     0,,PR0
         1 001330   100000 756100                    STQ     0,,PR1

      669    12616    4             IF ACB$->KQ$ACB.FLNK$ ~= ADDR(NIL) THEN

  12616  1 001331   200014 470500                    LDP0    ACB$,,AUTO
         1 001332   000000 236100                    LDQ     0,,PR0
         1 001333   000001 116000 xsym               CMPQ    B_VECTNIL+1
         1 001334   001340 600000 1                  TZE     s:12618

      670    12617    4              ACB$->KQ$ACB.FLNK$->KQ$ACB.BLNK$=ACB$->KQ$ACB.BLNK$;

  12617  1 001335   000000 471500                    LDP1    0,,PR0
         1 001336   000001 236100                    LDQ     1,,PR0
         1 001337   100001 756100                    STQ     1,,PR1

      671    12618    4             J=SIZEW(KQ$ACB);

  12618  1 001340   000010 235007                    LDA     8,DL
         1 001341   200007 755100                    STA     J,,AUTO

      672    12619    4             CALL KQM$RELB (KQ$MMSD.CCXT$->K$CG,ACB$,J);

  12619  1 001342   000000 470400 xsym               LDP0    KQ_MMSD$
PL6.E3A0      #001=KQM$INIT File=KQM$MM.:E05TSI                                  WED 07/30/97 01:30 Page:78
         1 001343   000002 471500                    LDP1    2,,PR0
         1 001344   200007 633500                    EPPR3   J,,AUTO
         1 001345   200030 453500                    STP3    FIT$+7,,AUTO
         1 001346   200014 634500                    EPPR4   ACB$,,AUTO
         1 001347   200027 454500                    STP4    FIT$+6,,AUTO
         1 001350   200026 451500                    STP1    FIT$+5,,AUTO
         1 001351   200026 630500                    EPPR0   FIT$+5,,AUTO
         1 001352   000021 631400 xsym               EPPR1   B_VECTNIL+17
         1 001353   000000 701000 xent               TSX1    KQM$RELB
         1 001354   000000 011000                    NOP     0

      673    12620    4             END;

      674    12621                %UNLOCK (G=KQ_CGLGATE);

  12622  1 001355   000001 630400 2                  EPPR0   1
         1 001356   000017 631400 xsym               EPPR1   B_VECTNIL+15
         1 001357   000000 701000 xent               TSX1    HFC$UNLOCK
         1 001360   000000 011000                    NOP     0

      675    12624    3           END;

      676    12625    2         RETURN;

  12625  1 001361   200022 221300                    LDX1  ! FIT$+1,,AUTO
         1 001362   000001 702211                    TSX2  ! 1,X1

E_CGCXT
 Sect OctLoc
   0     000   132115 021604                                                    ZM..

ACB_INIT
 Sect OctLoc
   0     002   000000 006014   000000 006014   000000 000000   777777 777777    ................
   0     006   000001 000000   040040 040040   040040 040040                    ....

(unnamed)
PL6.E3A0      #001=KQM$INIT File=KQM$MM.:E05TSI                                  WED 07/30/97 01:30 Page:79
 Sect OctLoc
   0     011   ****** ******   072123 131123                                    ....:SYS

(unnamed)
 Sect OctLoc
   2     000   000063 600000   000000 006000   000000 000266   000002 006000    .3..............
   2     004   000000 000066   000004 006000   743777 777777   000002 006000    ...6............
   2     010   000003 006000   000000 000016   000011 006000   000000 000031    ................
   2     014   000013 006000                                                    ....
      677    12626    2   END DECRACB;
      678    12627    1   END KQM$INIT;
      679    12628        %EOD;

PL6.E3A0      #001=KQM$INIT File=KQM$MM.:E05TSI                                  WED 07/30/97 01:30 Page:80
--  Include file information  --

   SS_SCHED_C.:E05TOU  is referenced.
   FM$GRAN.:E05TOU  is referenced.
   FM$FIT.:E05TOU  is referenced.
   FM$CFU.:E05TOU  is referenced.
   F$DCB.:E05TOU  cannot be made into a system file and is referenced.
   B_STRINGS_C.:E05TOU  is referenced.
   KC_CP6.:E05TOU  is referenced.
   M_INFO_C.:E05TOU  is referenced.
   B_MLSMAC_C.:E05TOU  is referenced.
   B_ULSMAC_C.:E05TOU  is referenced.
   B_LSDATA_C.:E05TOU  cannot be made into a system file and is referenced.
   KC$CP6V_C.:E05TOU  is referenced.
   UD_SEV_C.:E05TOU  is referenced.
   B$JIT_C.:E05TOU  is referenced.
   KQ_DATA_R.:E05TOU  cannot be made into a system file and is referenced.
   KQ_ERRORS_C.:E05TOU  is referenced.
   HF_DATA_R.:E05TOU  is referenced.
   KQM_MAC_C.:E05TOU  is referenced.
   HF_LOCK_C.:E05TOU  cannot be made into a system file and is referenced.
   KQ_MAC_C.:E05TOU  is referenced.
   KQ_SUBS_C.:E05TOU  is referenced.
      No diagnostics issued in procedure KQM$INIT.
PL6.E3A0      #001=KQM$INIT File=KQM$MM.:E05TSI                                  WED 07/30/97 01:30 Page:81

 **** Variables and constants ****

  ****  Section 000 RoData KQM$INIT

  ****  Scalars and arrays  ****
OctLoc.c.b A Datatyp(siz) R M Lvl/name                 OctLoc.c.b A Datatyp(siz) R M Lvl/name

     2-0-0/d STRC(252)   r     1 ACB_INIT                   0-0-0/w STRC        r     1 E_CGCXT

  ****  Auto variables  ****

  ****  Scalars and arrays  ****
OctLoc.c.b A Datatyp(siz) R M Lvl/name                 OctLoc.c.b A Datatyp(siz) R M Lvl/name

     3-0-0/w PTR         r     1 @KQ$CG                     4-0-0/w PTR         r     1 @MEM$
    14-0-0/w PTR         r     1 ACB$                      13-0-0/w PTR         r     1 BLK$
    11-0-0/w PTR         r     1 CAP$                      15-0-0/w PTR         r     1 CG$
    16-0-0/w PTR         r     1 DSB$                      17-0-0/w UBIN        r     1 ERRCODE
    21-0-0/w PTR         r     1 FIT$                      10-0-0/w UBIN        r     1 HKP
     6-0-0/w UBIN        r     1 I                          7-0-0/w UBIN        r     1 J
    *0-0-0/d STRC(6516)  r     1 KQ$CG                     *0-0-0/w PTR         r     1 MEM$
    17-0-0/w UBIN        r     1 MMQERR                    *0-0-0/w UBIN        r     1 NEWLIM
    12-0-0/w PTR         r     1 P$

  ****  SYMREF variables  ****

  ****  Scalars and arrays  ****
OctLoc.c.b A Datatyp(siz) R M Lvl/name                 OctLoc.c.b A Datatyp(siz) R M Lvl/name

     0-0-0/w PTR         r     1 B$JIT$                     0-0-0/w PTR         r     1 F$CFU$
     0-0-0/w BIT (72)    r     1 KQ_CGLGATE                 0-0-0/d STRC(432)   r     1 KQ_IBAP
     0-0-0/d STRC(6516)  r     1 KQ_ICG                     0-0-0/d STRC(1944)  r     1 KQ_IDSB
     0-0-0/w PTR         r     1 KQ_MMSD$                   0-0-0/w STRC(288)   r     1 KQ_STATS

  ****  BASED and DCB variables  ****

  ****  Scalars and arrays  ****
PL6.E3A0      #001=KQM$INIT File=KQM$MM.:E05TSI                                  WED 07/30/97 01:30 Page:82
OctLoc.c.b A Datatyp(siz) R M Lvl/name                 OctLoc.c.b A Datatyp(siz) R M Lvl/name

     0-0-0/d STRC(72)    r     1 B$$ASR                     0-0-0/w STRC(36864) r     1 B$$PAGE
     0-0-0/w STRC        r     1 B$$PTRR                    0-0-0/d STRC(7560)  r     1 B$JIT
     0-0-0/w STRC(288)   r     1 CODE14                     0-0-0/d ASTR(3528)  r     1 F$DCB
     0-0-0/w STRC(288)   r     1 FM$CFU                     0-0-0/w STRC(288)   r     1 FM$CFUA
     0-0-0/w STRC(180)   r     1 FM$GRAN                    0-0-0/d STRC(6516)  r     1 K$CG
     0-0-0/d STRC(252)   r     1 KQ$ACB                     0-0-0/d STRC(432)   r     1 KQ$BAP
     0-0-0/d STRC(1944)  r     1 KQ$DSB                     0-0-0/d STRC(108)   r     1 KQ$FB
     0-0-0/d STRC(288)   r     1 KQ$MMSD


   Procedure KQM$INIT requires 755 words for executable code.
   Procedure KQM$INIT requires 28 words of local(AUTO) storage.
PL6.E3A0      #001=KQM$INIT File=KQM$MM.:E05TSI                                  WED 07/30/97 01:30 Page:83
          *** CROSS REFERENCE LISTING ***
**     DENOTES     IDENTIFIER DEFINITION
<<                 IDENTIFIER'S VALUE SET
>>                 IDENTIFIER'S VALUE USED
<>                 IDENTIFIER SET AND/OR USED
--                 IDENTIFIER REFERENCED
PL6.E3A0      #001=KQM$INIT File=KQM$MM.:E05TSI                                  WED 07/30/97 01:30 Page:84
          MINI XREF LISTING

ACB$
     11138**DCL     12202>>ASSIGN  12510>>ASSIGN  12510>>ASSIGN  12512>>ASSIGN  12520<>CALL    12521>>ASSIGN
     12522>>ASSIGN  12524>>ASSIGN  12525>>ASSIGN  12526>>ASSIGN  12527>>ASSIGN  12541>>IF      12546>>ASSIGN
     12550>>ASSIGN  12576<<ASSIGN  12577>>DOWHILE 12578>>IF      12578>>IF      12581>>IF      12589<<ASSIGN
     12589>>ASSIGN  12603<<ASSIGN  12604>>IF      12609>>ASSIGN  12609>>ASSIGN  12610>>ASSIGN  12610>>ASSIGN
     12611>>IF      12613>>IF      12614>>ASSIGN  12615>>ASSIGN  12615>>ASSIGN  12616>>IF      12617>>ASSIGN
     12617>>ASSIGN  12619<>CALL
ACB_INIT
     11168**DCL     12521>>ASSIGN
ADDCG
     12244**PROC    12115--CALL
AGANE IN PROCEDURE LOCACB
     12570**LABEL   12587--GOTO
ALTRT IN PROCEDURE FINDACB
     12553**LABEL   12520--CALLALT
ALTRT IN PROCEDURE GET
     12366**LABEL   12337--CALLALT 12344--CALLALT 12351--CALLALT 12360--CALLALT
ALTRT IN PROCEDURE GETCXT
     12325**LABEL   12314--CALLALT 12324--CALLALT
B$$ASR.BASE
     10025**DCL     12113<<ASSIGN
B$$ASR.BOUND
     10021**DCL     12111<<ASSIGN
B$$PAGE
     10986**DCL     12380<<ASSIGN
B$$PTRR.COFF
     10990**DCL     12113>>ASSIGN
B$JIT.DCB$
     11088**DCL     12526>>ASSIGN  12527>>ASSIGN  12532>>ASSIGN  12533>>ASSIGN  12578>>IF      12578>>IF
B$JIT.ERR
     10998**DCL     12123<<ASSIGN
B$JIT.ERR.CODE
PL6.E3A0      #001=KQM$INIT File=KQM$MM.:E05TSI                                  WED 07/30/97 01:30 Page:85
     10999**DCL     12125<<ASSIGN  12553>>ASSIGN
B$JIT.ERR.MID
     10999**DCL     10999--REDEF
B$JIT$
     11208**DCL     10993--IMP-PTR 12123>>ASSIGN  12125>>ASSIGN  12526>>ASSIGN  12527>>ASSIGN  12532>>ASSIGN
     12533>>ASSIGN  12553>>ASSIGN  12578>>IF      12578>>IF
BADREL IN PROCEDURE RELDSB
     12457**LABEL   12449--CALLALT
BLK$
     11137**DCL     12315>>ASSIGN  12325>>ASSIGN  12351<>CALL    12356<>CALL    12360<>CALL    12384<<ASSIGN
     12392>>ASSIGN  12393>>ASSIGN  12394>>ASSIGN  12396>>ASSIGN  12397>>ASSIGN
CACHE
     12173**LABEL   12164--GOTO
CAP$
     11131**DCL     11132--REDEF   12337<>CALL    12344<>CALL    12380>>ASSIGN  12381>>ASSIGN  12382>>ASSIGN
     12383>>ASSIGN  12391>>ASSIGN  12394>>ASSIGN  12395>>ASSIGN  12396>>ASSIGN  12397>>ASSIGN  12398>>ASSIGN
     12398>>ASSIGN
CG$
     11139**DCL     12105>>ASSIGN  12108>>ASSIGN  12114>>CALL    12116>>ASSIGN  12149<<ASSIGN  12175<<ASSIGN
     12176>>DOWHILE 12177>>ASSIGN  12186<<ASSIGN  12186>>ASSIGN  12217<<ASSIGN  12218>>DOWHILE 12219>>IF
     12220>>CALL    12221<<ASSIGN  12221>>ASSIGN  12248>>ASSIGN  12249>>ASSIGN  12267>>IF      12269>>ASSIGN
     12274>>IF      12276>>ASSIGN  12315<<ASSIGN  12411<>CALL    12512>>ASSIGN  12550>>ASSIGN  12552>>ASSIGN
     12603>>ASSIGN  12609>>ASSIGN
CODE14.CGMEM
     11117**DCL     12538>>ASSIGN
DECRACB
     12601**PROC    12119--CALL    12150--CALL    12551--CALL
DIGEMUP
     12477**PROC    12359--CALL    12458--CALL
DONE IN PROCEDURE FINDACB
     12510**LABEL   12547--GOTO
DSB$
     11140**DCL     12108>>ASSIGN  12110>>ASSIGN  12111>>ASSIGN  12112>>ASSIGN  12113>>ASSIGN  12144<<ASSIGN
     12177<<ASSIGN  12178>>IF      12182>>ASSIGN  12182>>ASSIGN  12183>>ASSIGN  12183>>ASSIGN  12325<<ASSIGN
     12449>>CALL    12454>>ASSIGN  12455>>ASSIGN  12483<<ASSIGN  12484>>ASSIGN  12486<>CALL
DUN IN PROCEDURE ADDCG
PL6.E3A0      #001=KQM$INIT File=KQM$MM.:E05TSI                                  WED 07/30/97 01:30 Page:86
     12249**LABEL   12270--GOTO    12277--GOTO
ERRCODE
     11141**DCL     11142--REDEF   12124>>IF      12125>>ASSIGN  12368<<ASSIGN  12553<<ASSIGN  12556<<ASSIGN
E_CGCXT
     11150**DCL     12123>>ASSIGN
F$CFU$
     11209**DCL     12533>>ASSIGN
F$DCB.ACCT
      8649**DCL     12526>>ASSIGN  12578>>IF
F$DCB.ACTPOS
      8664**DCL      8664--REDEF
F$DCB.ARS
      8639**DCL      8639--REDEF
F$DCB.ATTR
      8657**DCL      8658--REDEF
F$DCB.BORROW
      8672**DCL      8672--REDEF    8672--REDEF    8672--REDEF
F$DCB.CFU$
      8673**DCL     12533>>ASSIGN
F$DCB.DCBNAME.L
      8686**DCL      8686--IMP-SIZ
F$DCB.EOMCHAR
      8643**DCL      8643--REDEF
F$DCB.FLDID
      8667**DCL      8667--REDEF
F$DCB.FORM$
      8661**DCL      8661--REDEF
F$DCB.FSECT
      8677**DCL      8677--REDEF
F$DCB.FSN
      8654**DCL      8654--REDEF    8654--REDEF    8655--REDEF
F$DCB.GTYP
      8668**DCL     12532<<ASSIGN
F$DCB.HEADER$
      8660**DCL      8660--REDEF
F$DCB.IXTNSIZE
PL6.E3A0      #001=KQM$INIT File=KQM$MM.:E05TSI                                  WED 07/30/97 01:30 Page:87
      8658**DCL      8658--REDEF
F$DCB.LASTSTA$
      8648**DCL      8648--REDEF
F$DCB.LVL
      8673**DCL      8673--REDEF
F$DCB.NAME.C
      8648**DCL      8648--REDEF
F$DCB.NOEOF
      8669**DCL      8669--REDEF
F$DCB.NRECS
      8659**DCL      8659--REDEF
F$DCB.NRECX
      8678**DCL      8678--REDEF
F$DCB.OHDR
      8670**DCL      8670--REDEF
F$DCB.ORG
      8653**DCL      8653--REDEF
F$DCB.PRECNO
      8676**DCL      8676--REDEF
F$DCB.RCSZ
      8681**DCL      8681--REDEF
F$DCB.RES
      8649**DCL      8649--REDEF
F$DCB.SETX
      8661**DCL      8661--REDEF   12527>>ASSIGN  12578>>IF
F$DCB.TAB$
      8660**DCL      8661--REDEF
F$DCB.TDA
      8675**DCL      8675--REDEF
F$DCB.WSN
      8650**DCL      8650--REDEF
FINDACB
     12505**PROC    12106--CALL
FIT$ IN PROCEDURE FINDACB
     12507**DCL     12534<>CALL    12535<<ASSIGN  12535>>ASSIGN  12537<>CALL    12538>>ASSIGN
FM$CFU.ACCTX
PL6.E3A0      #001=KQM$INIT File=KQM$MM.:E05TSI                                  WED 07/30/97 01:30 Page:88
     11097**DCL     11097--REDEF   12533>>ASSIGN
FM$CFUA.FDFITSDA
     11102**DCL     12533>>ASSIGN
FM$GRAN
     11108**DCL     12535--ASSIGN
FMD$REDBUFBC
     11191**DCL-ENT 12534--CALL
FMD$RELBUF
     11192**DCL-ENT 12542--CALL    12549--CALL
FMO$LOCCODP
     11193**DCL-ENT 12537--CALL
GET IN PROCEDURE GETCXT
     12329**PROC    12314--CALL    12324--CALL
GETCXT
     12312**PROC    12104--CALL
GETDSB IN PROCEDURE GETCXT
     12322**ENTRY   12107--CALL
GOTIT IN PROCEDURE GET
     12355**LABEL   12357--GOTO
HFC$CACHECLR
     11194**DCL-ENT 12481--CALL
HFC$LOCK
      2901**DCL-ENT 12246--CALL    12264--CALL    12331--CALL    12452--CALL    12544--CALL    12574--CALL
     12607--CALL
HFC$UNLOCK
      2901**DCL-ENT 12205--CALL    12252--CALL    12282--CALL    12364--CALL    12370--CALL    12460--CALL
     12514--CALL    12530--CALL    12558--CALL    12584--CALL    12622--CALL
HKP
     11130**DCL     12313<<ASSIGN  12323<<ASSIGN  12333>>IF      12348>>IF
I
     11128**DCL     12180<<DOINDEX 12182>>ASSIGN  12182>>ASSIGN  12183>>ASSIGN  12183>>ASSIGN
INITPG IN PROCEDURE GET
     12373**PROC    12338--CALL    12345--CALL
J
     11129**DCL     12163<<ASSIGN  12173<<ASSIGN  12181>>IF      12337<>CALL    12344<>CALL    12350<<ASSIGN
     12351<>CALL    12355<<ASSIGN  12356<>CALL    12360<>CALL    12368>>ASSIGN  12519<<ASSIGN  12520<>CALL
PL6.E3A0      #001=KQM$INIT File=KQM$MM.:E05TSI                                  WED 07/30/97 01:30 Page:89
     12533<<ASSIGN  12534<>CALL    12536<<ASSIGN  12538<<ASSIGN  12540>>IF      12541<<ASSIGN  12546>>ASSIGN
     12556>>ASSIGN  12618<<ASSIGN  12619<>CALL
K$CG
     10225**DCL     12105<<ASSIGN  12114<>CALL    12350--ASSIGN  12351<>CALL    12356<>CALL    12360<>CALL
     12382--ASSIGN  12384--ASSIGN  12385<<ASSIGN  12411<>CALL    12411--CALL    12486<>CALL    12520<>CALL
     12619<>CALL
K$CG.ACB$
     10754**DCL     12512<<ASSIGN  12550<<ASSIGN  12552<<ASSIGN  12603>>ASSIGN
K$CG.AUCTL.DVBYTE.REREAD
     10668**DCL     10669--REDEF
K$CG.AUCTL.MAXPG
     10665**DCL     12388<<ASSIGN
K$CG.AUCTL.MINPG
     10664**DCL     12387<<ASSIGN
K$CG.CLOCK
     10601**DCL     12219>>IF
K$CG.LNK$
     10589**DCL     12186>>ASSIGN  12221>>ASSIGN  12248<<ASSIGN  12269>>ASSIGN  12274>>IF      12276<<ASSIGN
     12276>>ASSIGN  12279>>ASSIGN
K$CG.MMD.CURPG
     10247**DCL     12386<<ASSIGN  12609>>ASSIGN
K$CG.MMD.DSB$
     10234**DCL     12108<<ASSIGN  12177>>ASSIGN  12220>>CALL
K$CG.MMD.HEAD$
     10238**DCL     12391<<ASSIGN
K$CG.MMD.MAXBPG
     10253**DCL     12390<<ASSIGN
K$CG.MMD.MINBPG
     10265**DCL     12389<<ASSIGN
KQ$ACB
     10193**DCL     12519--ASSIGN  12521<<ASSIGN  12618--ASSIGN
KQ$ACB.ACCT
     10207**DCL     12526<<ASSIGN  12541>>IF      12578>>IF
KQ$ACB.BLNK$
     10196**DCL     12524<<ASSIGN  12613>>IF      12615>>ASSIGN  12617<<ASSIGN  12617>>ASSIGN
KQ$ACB.CURPG
PL6.E3A0      #001=KQM$INIT File=KQM$MM.:E05TSI                                  WED 07/30/97 01:30 Page:90
     10198**DCL     12609<<ASSIGN  12609>>ASSIGN
KQ$ACB.CURPGLIM
     10201**DCL     12202<<ASSIGN  12546<<ASSIGN  12581>>IF
KQ$ACB.FLNK$
     10194**DCL     12522<<ASSIGN  12589>>ASSIGN  12614>>ASSIGN  12615<<ASSIGN  12615>>ASSIGN  12616>>IF
     12617>>ASSIGN
KQ$ACB.SETX
     10205**DCL     12527<<ASSIGN  12578>>IF
KQ$ACB.USECNT
     10203**DCL     12510<<ASSIGN  12510>>ASSIGN  12610<<ASSIGN  12610>>ASSIGN  12611>>IF
KQ$BAP
     10104**DCL     12381<<ASSIGN  12382--ASSIGN  12383--ASSIGN
KQ$BAP.CG$
     10176**DCL     12395<<ASSIGN
KQ$BAP.FREESIZE
     10165**DCL     12382<<ASSIGN  12394>>ASSIGN
KQ$BAP.HDR.SELF$
     10155**DCL     12398<<ASSIGN
KQ$BAP.JUHEAD$
     10172**DCL     12396<<ASSIGN
KQ$BAP.JUTAIL$
     10174**DCL     12397<<ASSIGN
KQ$CG
      9288**DCL        30--PROC    12105>>ASSIGN  12140--ENTRY   12149--ASSIGN  12199--ENTRY
KQ$CG.AUCTL.DVBYTE.REREAD
      9731**DCL      9732--REDEF
KQ$CG.MMD.DSB$
      9297**DCL     12142>>IF      12144>>ASSIGN  12145<<ASSIGN
KQ$DSB
     10061**DCL     12110<<ASSIGN  12220<>CALL    12355--ASSIGN  12449<>CALL    12486--CALL
KQ$DSB.ASR
     10063**DCL     10072--REDEF   12111--ASSIGN  12113--ASSIGN
KQ$DSB.CRYPT.LNK$
     10075**DCL     12454<<ASSIGN  12484>>ASSIGN
KQ$DSB.DESC
     10079**DCL     12111--ASSIGN  12112--ASSIGN
PL6.E3A0      #001=KQM$INIT File=KQM$MM.:E05TSI                                  WED 07/30/97 01:30 Page:91
KQ$DSB.DESC.FLG
     10083**DCL     10084--REDEF   12182<<ASSIGN  12182>>ASSIGN  12183<<ASSIGN  12183>>ASSIGN
KQ$FB.BLNK$
     10042**DCL     12393<<ASSIGN
KQ$FB.FLNK$
     10040**DCL     12392<<ASSIGN
KQ$FB.SIZE
     10044**DCL     12394<<ASSIGN
KQ$MMSD.ACBHEAD$
     10963**DCL     12522>>ASSIGN  12523>>IF      12524>>ASSIGN  12525<<ASSIGN  12576>>ASSIGN  12614<<ASSIGN
KQ$MMSD.CCXT$
     10970**DCL     12335>>IF      12339<<ASSIGN  12351>>CALL    12411>>CALL    12520>>CALL    12619>>CALL
KQ$MMSD.CGHEAD$
     10967**DCL     12175>>ASSIGN  12217>>ASSIGN  12248>>ASSIGN  12249<<ASSIGN  12266>>ASSIGN  12269<<ASSIGN
KQ$MMSD.CRYPT$
     10979**DCL     12454>>ASSIGN  12455<<ASSIGN  12482>>DOWHILE 12483>>ASSIGN  12484<<ASSIGN
KQ$MMSD.CRYPTCNT
     10981**DCL     12456<<ASSIGN  12456>>ASSIGN  12457>>IF      12479>>IF      12485<<ASSIGN  12485>>ASSIGN
KQ$MMSD.DCXT$
     10975**DCL     12342>>IF      12346<<ASSIGN  12356>>CALL    12360>>CALL    12486>>CALL
KQ$MMSD.GATE
     10983**DCL     12331<>CALL    12364<>CALL    12370<>CALL    12452<>CALL    12460<>CALL
KQM$GETB
     11195**DCL-ENT 12351--CALL    12356--CALL    12360--CALL    12520--CALL
KQM$RELB
     11198**DCL-ENT 12411--CALL    12486--CALL    12619--CALL
KQX$LDASR
     11199**DCL-ENT 12114--CALL
KQ_CGLGATE
      3334**DCL     12205<>CALL    12246<>CALL    12252<>CALL    12264<>CALL    12282<>CALL    12514<>CALL
     12530<>CALL    12544<>CALL    12558<>CALL    12574<>CALL    12584<>CALL    12607<>CALL    12622<>CALL
KQ_IBAP
     11267**DCL     12381>>ASSIGN
KQ_ICG
     11358**DCL     12385>>ASSIGN
KQ_ICG.AUCTL.DVBYTE.REREAD
PL6.E3A0      #001=KQM$INIT File=KQM$MM.:E05TSI                                  WED 07/30/97 01:30 Page:92
     11801**DCL     11802--REDEF
KQ_IDSB
     11224**DCL     12110>>ASSIGN
KQ_IDSB.ASR
     11226**DCL     11235--REDEF
KQ_IDSB.DESC.FLG
     11246**DCL     11247--REDEF
KQ_IMBLK.DVE.EOMCHAR
      3997**DCL      3999--REDEF
KQ_IMBLK.KEY1
      3923**DCL      3925--REDEF
KQ_IMBLK.KEY2
      3932**DCL      3950--REDEF
KQ_IMBLK.LNK$
      3897**DCL      3899--REDEF    3905--REDEF    3909--REDEF
KQ_IMBLK.TYC
      4046**DCL      4048--REDEF
KQ_IMBLK.XSP.MREQ$
      3952**DCL      3956--REDEF
KQ_IRBLK.BUF$
      3501**DCL      3503--REDEF
KQ_IRBLK.CNACTD
      3415**DCL      3424--REDEF
KQ_IRBLK.DBLKX
      3521**DCL      3525--REDEF
KQ_IRBLK.EOFNONE
      3393**DCL      3396--REDEF
KQ_IRBLK.FROMQ
      3399**DCL      3402--REDEF
KQ_IRBLK.KEY1R
      3440**DCL      3441--REDEF
KQ_IRBLK.KEY2R
      3445**DCL      3446--REDEF
KQ_IRBLK.LATCH
      3388**DCL      3390--REDEF
KQ_IRBLK.LWRITES$
PL6.E3A0      #001=KQM$INIT File=KQM$MM.:E05TSI                                  WED 07/30/97 01:30 Page:93
      3532**DCL      3536--REDEF
KQ_IRBLKT.CNACTD
      3601**DCL      3610--REDEF
KQ_IRBLKT.DBLK$
      3664**DCL      3668--REDEF    3671--REDEF
KQ_IRBLKT.EOFNONE
      3579**DCL      3582--REDEF
KQ_IRBLKT.FROMQ
      3585**DCL      3588--REDEF
KQ_IRBLKT.KEY1R
      3626**DCL      3627--REDEF
KQ_IRBLKT.KEY2R
      3631**DCL      3632--REDEF
KQ_IRBLKT.LATCH
      3574**DCL      3576--REDEF
KQ_MMSD$
     11210**DCL     10962--IMP-PTR 12175>>ASSIGN  12217>>ASSIGN  12248>>ASSIGN  12249>>ASSIGN  12266>>ASSIGN
     12269>>ASSIGN  12331>>CALL    12335>>IF      12339>>ASSIGN  12342>>IF      12346>>ASSIGN  12351>>CALL
     12356>>CALL    12360>>CALL    12364>>CALL    12370>>CALL    12411>>CALL    12452>>CALL    12454>>ASSIGN
     12455>>ASSIGN  12456>>ASSIGN  12456>>ASSIGN  12457>>IF      12460>>CALL    12479>>IF      12482>>DOWHILE
     12483>>ASSIGN  12484>>ASSIGN  12485>>ASSIGN  12485>>ASSIGN  12486>>CALL    12520>>CALL    12522>>ASSIGN
     12523>>IF      12524>>ASSIGN  12525>>ASSIGN  12576>>ASSIGN  12614>>ASSIGN  12619>>CALL
KQ_STATS.CRYPTOPN
      3346**DCL     12480<<ASSIGN  12480>>ASSIGN
LOCACB
     12570**PROC    12201--CALL    12509--CALL
MEM$
     10012**DCL        30--PROC    10013--REDEF   12116<<ASSIGN  12199--ENTRY
MMQ$GCAP
     11201**DCL-ENT 12344--CALL
MMQ$GCCP
     11200**DCL-ENT 12337--CALL
MMQ$TRUNCDSB
     11202**DCL-ENT 12220--CALL
MMQ$TRUNCDSBL
     11203**DCL-ENT 12449--CALL
PL6.E3A0      #001=KQM$INIT File=KQM$MM.:E05TSI                                  WED 07/30/97 01:30 Page:94
MMQ$ZAPCPUS
     11204**DCL-ENT 12488--CALL
MMQERR
     11142**DCL     12220<>CALL    12449<>CALL
NEWACB IN PROCEDURE FINDACB
     12512**LABEL   12509--CALLALT
NEWLIM
     10013**DCL     12202>>ASSIGN
NOCODE IN PROCEDURE FINDACB
     12538**LABEL   12537--CALLALT
NOCXT
     12116**LABEL   12104--CALLALT
NOCXT0
     12116**LABEL   12107--CALLALT
NOCXT1
     12116**LABEL   12106--CALLALT
NOGOT IN PROCEDURE GET
     12355**LABEL   12356--CALLALT
NOREAD IN PROCEDURE FINDACB
     12546**LABEL   12534--CALLALT
NOUPDA
     12202**LABEL   12201--CALLALT
P$
     11136**DCL     12112<<ASSIGN  12113--ASSIGN  12266<<ASSIGN  12267>>IF      12273>>DOWHILE 12274>>IF
     12276>>ASSIGN  12279<<ASSIGN  12279>>ASSIGN  12339>>ASSIGN  12346>>ASSIGN  12383<<ASSIGN  12384>>ASSIGN
     12385>>ASSIGN  12386>>ASSIGN  12387>>ASSIGN  12388>>ASSIGN  12389>>ASSIGN  12390>>ASSIGN  12391>>ASSIGN
     12395>>ASSIGN
REL0 IN PROCEDURE RELDSB
     12449**LABEL   12465--GOTO
RELCXT
     12410**PROC    12121--CALL    12152--CALL
RELDSB
     12443**PROC    12146--CALL
REMCG IN PROCEDURE ADDCG
     12262**ENTRY   12151--CALL
SC_BCGMMQ
PL6.E3A0      #001=KQM$INIT File=KQM$MM.:E05TSI                                  WED 07/30/97 01:30 Page:95
     11206**DCL-ENT 12464--CALL
SSR$REG
     11205**DCL-ENT 12586--CALL

