VERSION E05

 01:39 07/30/97  FILE=KQX$UTIL.:E05TSI                                                                   1    BMAP - B00
                                         1  *M* KQX$UTIL BMAP routines for COMGROUP
                                         2  *T***********************************************************
                                         3  *T*                                                         *
                                         4  *T* Copyright (c) Bull HN Information Systems Inc., 1997    *
                                         5  *T*                                                         *
                                         6  *T***********************************************************

 01:39 07/30/97  FILE=KQX$UTIL.:E05TSI            KQX$UTIL                                               2    BMAP - B00
                                         7           TTL       KQX$UTIL
                                         8  *
                                         9  * ALL DEFS
                                        10  **
                                        11           ENTDEF    KQX$UTIL
                                        12           ENTDEF    KQX$CHKPTR
                                        13           ENTDEF    KQX$CHKTIME
                                        14           ENTDEF    KQX$LDASR
                                        15           ENTDEF    KQX$RESASR
                                        16           ENTDEF    KQX$RETADDR
                                        17           ENTDEF    KQX$SAVASR
                                        18           ENTDEF    KQX$SLIDE
                                        19           ENTDEF    KQX$SETTIME
                                        20           ENTREF    HFC$BMAP_CLOCK
                                        21           SYMDEF    KQ_MMSD$
                                        22  *
                                        23  * ALL REFS
                                        24  **
                                        25           SEGREF    SCUSID
                                        26           SYMREF    B$CGPT$
                                        27           SYMREF    KQ_MMSD
                                        28           SYMREF    KQX_BINBUF
                                        29           SEGREF    ISBSID
                                        30  *
                                        31  *
                                        32  *        Pointer for KQ_MMSD, bypass cache
                                        33  *
                                        34  **
 0 000000                               35  KQX$UTIL      NULL
   000000  X 000000 X 000000            36  KQ_MMSD$      ZERO      KQ_MMSD,ISBSID
                                        37
                                        38
                                        39                INHIB     ON
                                        40  ************************************************************
                                        41  *                                                          *
                                        42  *                   KQX$LDASR                              *
                                        43  *                                                          *
 01:39 07/30/97  FILE=KQX$UTIL.:E05TSI            KQX$UTIL                                               3    BMAP - B00
                                        44  ************************************************************
                                        45  *
                                        46  *        CG context block is passed.  We assume DSB pointer is
                                        47  *        word zero of cxt, and that the ASR image is word 0 of
                                        48  *        the DSB.
                                        49  *
   000001                               50  KQX$LDASR     NULL
   000001    0 00000 4717 00            51                LDP1      0,,0
   000002    1 00000 4717 00            52                LDP1      0,,1          * Load DSB pointer from cxt.
   000003    1 00000 7707 00            53                LDAS      0,,1          * Load ASR
   000004    000001 7102 11             54                TRA       1,1           * Return to caller
                                        55
                                        56  ************************************************************
                                        57  *                                                          *
                                        58  *                   KQX$SETTIME                            *
                                        59  *                                                          *
                                        60  ************************************************************
                                        61  *
                                        62  *
                                        63  *   SCU timer register is loaded into 1st arg, which
                                        64  *   must be DALIGNED.
                                        65  *
   000005                               66  KQX$SETTIME   NULL
   000005    0 00000 4777 00            67                LDP7      0,,0          * point to arg.
   000006  X 000000 4706 07             68                LDP0      SCUSID,DL     * read
   000007  X 000000 7042 00             69  SETTIME1      TSX4      HFC$BMAP_CLOCK * SCU timer register.
   000010    7 00000 7573 00            70                STAQ      0,,7          * Stash.
   000011    000001 7102 11             71                TRA       1,1
                                        72
                                        73  ************************************************************
                                        74  *                                                          *
                                        75  *                   KQX$CHKTIME                            *
                                        76  *                                                          *
                                        77  ************************************************************
                                        78  *
                                        79  *
                                        80  *        1st arg is time as for KQX$SETTIME.
 01:39 07/30/97  FILE=KQX$UTIL.:E05TSI            KQX$UTIL                                               4    BMAP - B00
                                        81  *        ALTRETs with no change made if < 1/2 second
                                        82  *        has elapsed.  Else sets passed arg to current
                                        83  *        time and RETURNs.
                                        84  *
                                        85                EVEN
   000012    000000000000               86  HALFSEC       OCT       0
   000013    000001720440               87                OCT       000001720440
   000014                               88  KQX$CHKTIME   NULL
   000014    0 00000 4777 00            89                LDP7      0,,0          * Get arg.
   000015  X 000000 4706 07             90                LDP0      SCUSID,DL     * Read
   000016  X 000000 7042 00             91                TSX4      HFC$BMAP_CLOCK * SCU timer register.
   000017    7 00000 1373 00            92                SBLAQ     0,,7          * Get difference.
   000020 (0)000012 1172 00             93                CMPAQ     HALFSEC       * Exceeds 1/2 sec?
   000021    000000 6042 11             94                TMI       0,1           * ---> NO. ALTRET....
   000022 (0)000007 7102 00             95                TRA       SETTIME1      * ---> YES. Reset & RETURN...
                                        96
                                        97  ************************************************************
                                        98  *                                                          *
                                        99  *                   KQX$CHKPTR                             *
                                       100  *                                                          *
                                       101  ************************************************************
                                       102  *
                                       103  *
                                       104  *        Passed a 3-word block.
                                       105  *        Word 0,1 are daligned space to store descriptor
                                       106  *        Word 2 is pointer to check.
                                       107  *
                                       108  *        ALTRETs if pointer is for a station block in a page
                                       109  *             that has been released.
                                       110  *        Called by KQD$DBLK to validate a station pointer
                                       111  *
                                       112  **
   000023                              113  KQX$CHKPTR    NULL
   000023    0 00000 4717 00           114                LDP1      0,,0          * Get pointer to argument.
   000024    1 00002 2363 00           115                LDQ       2,,1          * Get pointer.
   000025    000020 7722 00            116                QRL       16            * Bytes.
   000026    1 00002 4707 00           117                LDP0      2,,1          * Load the pointer.
 01:39 07/30/97  FILE=KQX$UTIL.:E05TSI            KQX$UTIL                                               5    BMAP - B00
   000027    1 00000 0507 00           118                STD0      0,,1          * Save desc.
   000030    1 00001 0363 00           119                ADLQ      1,,1          * Add byte base.
   000031    000014 7722 00            120                QRL       12            * Get page #.
   000032  X 000000 4706 00            121                LDP0      B$CGPT$       * Point to CG page table.
   000033    0 00000 2363 06           122                LDQ       0,QL,0        * Page table word.
   000034    000040 3762 07            123                ANQ       =O40,DL       * Processor page present?
   000035    000000 6002 11            124                TZE       0,1           * ---> No, bad ptr; ALT...
   000036    000001 7102 11            125                TRA       1,1           * ---> Yes, ok; RET...
                                       126  ************************************************************
                                       127  *                                                          *
                                       128  *                   KQX$SLIDE                              *
                                       129  *                                                          *
                                       130  ************************************************************
                                       131  *
                                       132  *
                                       133  *        CALL:  KQX$SLIDE (X$->KQ$MBLK,NMBLKS)
                                       134  *
                                       135  *        The NMBLKS MBLKs located at X$ are
                                       136  *        slid down one to make room for insertion
                                       137  *        of a single MBLK at X$->0.
                                       138  *
                                       139  **
                                       140                INHIB     ON
   000037                              141  KQX$SLIDE     NULL
   000037    0 00001 4737 00           142                LDP3      1,,0          * Ptr to NMBLKS.
   000040    0 00000 4717 00           143                LDP1      0,,0          * Ptr to start.
   000041    3 00000 2363 00           144                LDQ       0,,3          * NMBLKS.
   000042    000006 7362 00            145                QLS       6             * Num bytes (MBLKs are 16 wds).
   000043    000 0 140 1017 40         146                MRL       (1,1,,),(1,1,,)
   000044    1 00000 0 0 0 0006        147                ADSC9     ,,QL,1
   000045    1 00020 0 0 0 0006        148                ADSC9     16,,QL,1
   000046    000001 7102 11            149                TRA       1,1
                                       150                INHIB     OFF
                                       151  ************************************************************
                                       152  *                                                          *
                                       153  *                   KQX$RETADDR                            *
                                       154  *                                                          *
 01:39 07/30/97  FILE=KQX$UTIL.:E05TSI            KQX$UTIL                                               6    BMAP - B00
                                       155  ************************************************************
                                       156  *
                                       157  *    CALL:         KQX$RETADDR (FRAME);
                                       158  *
                                       159  *
                                       160  *
                                       161  *    FRAME is:     IRTN       UBIN HALF
                                       162  *                  X2         UBIN HALF
                                       163  *
                                       164  *    DESCRIPTION:  Stores current X2 in FRAME.X2.  If call to the external
                                       165  *                  routine which called KQX$RETADDR is located in
                                       166  *                  an internal subroutine, and the call is immediately
                                       167  *                  followed by a RETURN statement, then FRAME.IRTN is
                                       168  *                  set to the return address of the internal subroutine.
                                       169  *
                                       170  *
   000047                              171  KQX$RETADDR   NULL
   000047    0 00000 4735 00           172                LDP3      0,,0          * Get argument pointer.
   000050    3 00000 4501 00           173                STZ       0,,3          * Clear parameter
   000051    3 00000 4421 00           174                SXL2      0,,3          * Store $X2
   000052    2 00000 2231 00           175                LDX3      0,,2          * Get return addr of current frame
   000053    000001 2360 13            176                LDQ       1,X3          * Get instruction after ALTRET
   000054    777400 3760 07            177                ANQ       =O777400,DL   * Mask off op-code
   000055    221000 1160 07            178                CMPQ      =O221000,DL   * Is it LDX1?
   000056    000001 6010 11            179                TNZ       1,1           * No, either no RETURN or not internal
   000057    000001 2230 13            180                LDX3      1,3           * Get effective address of LDX1
   000060    077777 3630 03            181                ANX3      =O077777,DU   * Get rid of pointer
   000061    2 00000 2361 00           182                LDQ       0,,2          * QL has neg offset to prev frame+1
   000062    2 00000 6345 00           183                EPPR4     0,,2          * Copy of PR2
   000063    4 00001 5274 06           184                SWDX      1,QL,4        * Ptr to prev frame
   000064    4 00000 2231 13           185                LDX3      0,3,4         * Internal routine's ret addr
   000065    000001 1630 03            186                SBX3      1,DU          * Point to CALL
   000066    3 00000 7431 00           187                STX3      0,,3
   000067    000001 7100 11            188                TRA       1,1
                                       189  ************************************************************
                                       190  *                                                          *
                                       191  *                   KQX$SAVASR                             *
 01:39 07/30/97  FILE=KQX$UTIL.:E05TSI            KQX$UTIL                                               7    BMAP - B00
                                       192  *                                                          *
                                       193  ************************************************************
                                       194  *
                                       195  *        A daligned doubleword is passed, in which the
                                       196  *        current ASR is saved.
                                       197  *
   000070                              198  KQX$SAVASR    NULL
   000070    0 00000 4715 00           199                LDP1      0,,0          * Get argument pointer.
   000071    1 00000 7505 00           200                STAS      0,,1
   000072    000001 7100 11            201                TRA       1,1
                                       202  ************************************************************
                                       203  *                                                          *
                                       204  *                   KQX$RESASR                             *
                                       205  *                                                          *
                                       206  ************************************************************
                                       207  *
                                       208  *        A daligned doubleword is passed, in which the
                                       209  *        current ASR was saved; reloads it.
                                       210  *
   000073                              211  KQX$RESASR    NULL
   000073    0 00000 4715 00           212                LDP1      0,,0          * Get argument pointer.
   000074    1 00000 7705 00           213                LDAS      0,,1
   000075    000001 7100 11            214                TRA       1,1
                                       215  *        KQX$BINWR - DO 9->8 CONVERSION FOR BINARY WRITE
                                       216           ENTDEF    KQX$BINWR
                                       217  *
                                       218  *
   000076                              219  KQX$BINWR NULL
   000076    0 00000 4735 00           220           LDP3      0,,0                Source
   000077    3 00000 4735 00           221           LDP3      0,,3
   000100    0 00001 4745 00           222           LDP4      1,,0                Destination
   000101    4 00000 4745 00           223           LDP4      0,,4
   000102    0 00002 4715 00           224           LDP1      2,,0
   000103    1 00000 7221 00           225           LXL2      0,,1                Count (8 bit bytes)
   000104  X 000000 0534 00            226           STD3      KQX_BINBUF
   000105  X 000000 2360 00            227           LDQ       KQX_BINBUF
   000106    000002 7360 00            228           QLS       2
 01:39 07/30/97  FILE=KQX$UTIL.:E05TSI            KQX$UTIL                                               8    BMAP - B00
   000107    000037 3760 03            229           ANQ       31,DU
   000110    000037 1160 03            230           CMPQ      31,DU
   000111    000000 6010 11            231           TNZ       0,1
   000112  X 000001 2360 00            232           LDQ       KQX_BINBUF+1
   000113    000003 3760 07            233           ANQ       3,DL
   000114    000000 6010 11            234           TNZ       0,1
   000115 (0)000245 7100 00            235           TRA       KLPEND
                                       236  *
   000116                              237  KLP1     NULL
   000116    3 00007 2351 00           238           LDA       7,,3                31-35
   000117    000010 7330 00            239           LRS       8         35
   000120    000001 7320 00            240           QRS       1
   000121    000010 7330 00            241           LRS       8         34
   000122    000001 7320 00            242           QRS       1
   000123    000010 7330 00            243           LRS       8         33
   000124    000001 7320 00            244           QRS       1
   000125    000011 7330 00            245           LRS       9         32
   000126  X 000010 7560 00            246           STQ       8+KQX_BINBUF         32-35
                                       247  *
   000127    000003 7330 00            248           LRS       3         31
   000130    3 00006 2351 00           249           LDA       6,,3                27-31
   000131    000004 7330 00            250           LRS       4         31
   000132    000001 7320 00            251           QRS       1
   000133    000010 7330 00            252           LRS       8         30
   000134    000001 7320 00            253           QRS       1
   000135    000010 7330 00            254           LRS       8         29
   000136    000001 7320 00            255           QRS       1
   000137    000011 7330 00            256           LRS       9         28
   000140  X 000007 7560 00            257           STQ       7+KQX_BINBUF         28-31
                                       258  *
   000141    000010 7330 00            259           LRS       8         27
   000142                              260  KLP2     NULL
   000142    3 00005 2351 00           261           LDA       5,,3                22-26
   000143    000010 7330 00            262           LRS       8         26
   000144    000001 7320 00            263           QRS       1
   000145    000010 7330 00            264           LRS       8         25
   000146    000001 7320 00            265           QRS       1
 01:39 07/30/97  FILE=KQX$UTIL.:E05TSI            KQX$UTIL                                               9    BMAP - B00
   000147    000011 7330 00            266           LRS       9         24
   000150  X 000006 7560 00            267           STQ       6+KQX_BINBUF         24-27
                                       268  *
   000151    000007 7330 00            269           LRS       7         23
   000152    000001 7320 00            270           QRS       1
   000153    000004 7330 00            271           LRS       4         22
   000154    3 00004 2351 00           272           LDA       4,,3                18-22
   000155    000004 7330 00            273           LRS       4         22
   000156    000001 7320 00            274           QRS       1
   000157    000010 7330 00            275           LRS       8         21
   000160    000001 7320 00            276           QRS       1
   000161    000011 7330 00            277           LRS       9         20
   000162  X 000005 7560 00            278           STQ       5+KQX_BINBUF         20-23
                                       279  *
   000163    000007 7330 00            280           LRS       7         19
   000164    000001 7320 00            281           QRS       1
   000165    000011 7330 00            282           LRS       9         18
   000166                              283  KLP3     NULL
   000166    3 00003 2351 00           284           LDA       3,,3                13-17
   000167    000010 7330 00            285           LRS       8         17
   000170    000001 7320 00            286           QRS       1
   000171    000011 7330 00            287           LRS       9         16
   000172  X 000004 7560 00            288           STQ       4+KQX_BINBUF         16-19
                                       289  *
   000173    000007 7330 00            290           LRS       7         15
   000174    000001 7320 00            291           QRS       1
   000175    000010 7330 00            292           LRS       8         14
   000176    000001 7320 00            293           QRS       1
   000177    000004 7330 00            294           LRS       4         13
   000200    3 00002 2351 00           295           LDA       2,,3                9-13
   000201    000004 7330 00            296           LRS       4         13
   000202    000001 7320 00            297           QRS       1
   000203    000011 7330 00            298           LRS       9         12
   000204  X 000003 7560 00            299           STQ       3+KQX_BINBUF         12-15
                                       300  *
   000205    000007 7330 00            301           LRS       7         11
   000206    000001 7320 00            302           QRS       1
 01:39 07/30/97  FILE=KQX$UTIL.:E05TSI            KQX$UTIL                                               10   BMAP - B00
   000207    000010 7330 00            303           LRS       8         10
   000210    000001 7320 00            304           QRS       1
   000211    000011 7330 00            305           LRS       9         9
   000212                              306  KLP4     NULL
   000212    3 00001 2351 00           307           LDA       1,,3                4-8
   000213    000011 7330 00            308           LRS       9         8
   000214  X 000002 7560 00            309           STQ       2+KQX_BINBUF         8-11
                                       310  *
   000215    000007 7330 00            311           LRS       7         7
   000216    000001 7320 00            312           QRS       1
   000217    000010 7330 00            313           LRS       8         6
   000220    000001 7320 00            314           QRS       1
   000221    000010 7330 00            315           LRS       8         5
   000222    000001 7320 00            316           QRS       1
   000223    000004 7330 00            317           LRS       4         4
   000224    3 00000 2351 00           318           LDA       0,,3                0-4
   000225    000005 7330 00            319           LRS       5         4
   000226  X 000001 7560 00            320           STQ       1+KQX_BINBUF         4-7
                                       321  *
   000227    000007 7330 00            322           LRS       7         3
   000230    000001 7320 00            323           QRS       1
   000231    000010 7330 00            324           LRS       8         2
   000232    000001 7320 00            325           QRS       1
   000233    000010 7330 00            326           LRS       8         1
   000234    000001 7320 00            327           QRS       1
   000235    000011 7330 00            328           LRS       9         0
   000236  X 000000 7560 00            329           STQ       0+KQX_BINBUF         0-3
                                       330  *
   000237    000 0 100 1004 00         331           MLR       (,,,),(1,,,)
   000240  X 000000 0 0 0 0044         332           ADSC9     KQX_BINBUF,,36
   000241    4 00000 0 0 0 0044        333           ADSC9     0,,36,4             Move from holding buffer
   000242    3 00010 5075 00           334           AWD       8,,3
   000243    4 00011 5005 00           335           A9BD      9,,4
   000244    000044 1620 03            336           SBX2      36,DU
   000245                              337  KLPEND   NULL
   000245    000043 1020 03            338           CMPX2     35,DU
   000246 (0)000116 6054 00            339           TPNZ      KLP1
 01:39 07/30/97  FILE=KQX$UTIL.:E05TSI            KQX$UTIL                                               11   BMAP - B00
   000247    000001 7100 11            340           TRA       1,1
                                       341                END

  CONTROL SECTION TABLE

   0 CODE   EVEN  000250
   1 RODATA EVEN  000000 LITERALS

 01:39 07/30/97  FILE=KQX$UTIL.:E05TSI        SYMBOL TABLE                                               12   BMAP - B00
 03301000 000000000000 B$CGPT$        *26       121
 01101000 000000000012 HALFSEC        *86        93
 03201000 000000000000 HFC$BMAP_CLOCK           *20        69        91
 03601001 000000000000 ISBSID         *29        36
 01101000 000000000116 KLP1          *237       339
 00101000 000000000142 KLP2          *260
 00101000 000000000166 KLP3          *283
 00101000 000000000212 KLP4          *306
 01101000 000000000245 KLPEND         235      *337
 12101000 000000000076 KQX$BINWR      216      *219
 12101000 000000000023 KQX$CHKPTR      12      *113
 12101000 000000000014 KQX$CHKTIME     13       *88
 12101000 000000000001 KQX$LDASR       14       *50
 12101000 000000000073 KQX$RESASR      15      *211
 12101000 000000000047 KQX$RETADDR     16      *171
 12101000 000000000070 KQX$SAVASR      17      *198
 12101000 000000000005 KQX$SETTIME     19       *66
 12101000 000000000037 KQX$SLIDE       18      *141
 12101000 000000000000 KQX$UTIL        11       *35
 03301002 000000000000 KQX_BINBUF     *28       226       227       232       246       257       267
                                      278       288       299       309       320       329       332
 03301001 000000000000 KQ_MMSD        *27        36
 06101000 000000000000 KQ_MMSD$        21       *36
 03601000 000000000000 SCUSID         *25        68        90
 01101000 000000000007 SETTIME1       *69        95

      24 SYMBOLS

       0 MACROS

    SYMBOL SPACE USED   304 WORDS
     MACRO SPACE USED     0 WORDS
   INPUT RECORDS READ   682
 STATEMENTS PROCESSED   225
         ELAPSED TIME  0:06.44
             CPU TIME     1.99 SEC.
        ASSEMBLY RATE  6784 STATEMENTS/CPU MIN.
 01:39 07/30/97  FILE=KQX$UTIL.:E05TSI        SYMBOL TABLE                                               13   BMAP - B00

      NO ERRORS

