VERSION E05

PL6.E3A0      #001=KQY$YC File=KQY$YC.:E05TSI                                    WED 07/30/97 01:39 Page:1
        1        1        /*M* KQY$YC Handle BRK and control-Y during COMGROUP user I/O */
        2        2        /*T***********************************************************/
        3        3        /*T*                                                         */
        4        4        /*T* Copyright (c) Bull HN Information Systems Inc., 1997    */
        5        5        /*T*                                                         */
        6        6        /*T***********************************************************/
        7        7        /*X* DMC,PLM=6,IND=0,IDT=2,SDI=2,CTI=0,ENU=0,AND,DCI=4,CSU=2,ECU=4,THI=0,DTI=0,STI=1
                 7        ,IAD=0,PRB */
        8        8        /**/
        9        9        /*P* NAME:         KQY$YC
       10       10             PURPOSE:      To handle asynchronous termination of a COMGROUP
       11       11                           READ.
       12       12        */
       13       13        /*F* NAME:         KQY$YC
       14       14             PURPOSE:      To undo a user COMGROUP I/O request when BRK or
       15       15                           control-Y or disconnect or suchlike
       16       16             DESCRIPTION:  Called from KQR$READ when a user
       17       17                           wait I/O request is broken out of due to BRK or
       18       18                           control-Y.  Undoes the REG and discards the IOQ
       19       19                           packet.
       20       20        */
       21       21        KQY$YC: PROC (NK$LDCT);
       22       22        /**/
       23       23
       24       24
       25       25
       26       26        /**/
       27       27        /* INCLUDES */
       28       28        /**/
       29       29        %INCLUDE B$JIT_C;
       30      343        %INCLUDE B$USER;
       31      559        %B$USERREFS;
       32      563        %INCLUDE F$DCB;
       33      612        %INCLUDE NK$LDCT;
       34      714        %INCLUDE N$REQ;
       35      788        %INCLUDE HF_LOCK_C;
       36      802        %INCLUDE KI_ERRORS_C;
PL6.E3A0      #001=KQY$YC File=KQY$YC.:E05TSI                                    WED 07/30/97 01:39 Page:2
       37      887        %INCLUDE UD_SEV_C;
       38      901
       39      902
       40      903
       41      904        /**/
       42      905        /* MACROS */
       43      906        /**/
       44      907        %MACRO $ERROR (NAME=GORGO,CODE=0,SEV=SEV_ERROR#);
       45      908        DCL 1 NAME CONSTANT ALIGNED,
       46      909              2 * BIT(18) UNAL INIT('132131'O),
       47      910              2 * UBIN(15) UNAL INIT(CODE),
       48      911              2 * UBIN(3) UNAL INIT(SEV);
       49      912        %MEND;
       50      913
       51      914
       52      915
       53      916        /**/
       54      917        /* PARAMETERS */
       55      918        /**/
       56      919        %NK$LDCT (STCLASS="");
       57      965
       58      966
       59      967
       60      968        /**/
       61      969        /* BASED STRUCTURES */
       62      970        /**/
       63      971        %B$JIT0;
       64     1060        %U$JIT1X;
       65     1063        %M$JIT2X;
       66     1066        %F$JIT3X;
       67     1069        %S$JIT4X;
       68     1072        %J$JIT5;
       69     1160        %A$JIT6X;
       70     1163        %N$REQ;
       71     1221
       72     1222
       73     1223
PL6.E3A0      #001=KQY$YC File=KQY$YC.:E05TSI                                    WED 07/30/97 01:39 Page:3
       74     1224        /**/
       75     1225        /* AUTO */
       76     1226        /**/
       77     1227    1   DCL DCB$ PTR;
       78     1228
       79     1229
       80     1230
       81     1231        /**/
       82     1232        /* CONSTANT */
       83     1233        /**/
       84     1234        %$ERROR (NAME=E_BYDR,CODE=%E$BYDR,SEV=SEV_CONT#);
       85     1240
       86     1241
       87     1242
       88     1243        /**/
       89     1244        /* REFS */
       90     1245        /**/
       91     1246    1   DCL NI_MFGATE BIT(72) ALIGNED SYMREF;
       92     1247    1   DCL B$JIT$ PTR SYMREF;
       93     1248    1   DCL NIQ$REL ENTRY(1) ALTRET;
       94     1249        %EJECT;
PL6.E3A0      #001=KQY$YC File=KQY$YC.:E05TSI                                    WED 07/30/97 01:39 Page:4
       95     1250        /**/
       96     1251        %LOCK (G=NI_MFGATE);
       97     1254    1         S$CU$->B$U.MF=S$CU$->B$U.MF-1;
       98     1255    1         S$CU$->B$U.CMF=S$CU$->B$U.CMF-1;
       99     1256              %UNLOCK (G=NI_MFGATE);
      100     1259    1         DCB$=NK$LDCT.IOQ$->N$REQ.DCB$;
      101     1260    1         DCB$->F$DCB.FCN.F(1/*WAIT*/)='0'B;
      102     1261    1         DCB$->F$DCB.FCN.CNT(1)=DCB$->F$DCB.FCN.CNT(1)-1;
      103     1262    1         B$JIT.ERR=E_BYDR;
      104     1263        /*E*  ERROR:         KQY-E$BYDR-C
      105     1264               MESSAGE: WAIT M$READ to COMGROUP interrupted by asynchronous event.
      106     1265              MESSAGE1: You had a WAIT M$READ pending to comgroup when you
      107     1266                        hit BREAK or CONTROL-Y or disconnected or were aborted.
      108     1267                        If you continue this process the read will be re-issued.
      109     1268              DESCRIPTION:   The user will seldom see this error since he is
      110     1269                             going away (Xed,ERRORed,disconnected), to IBEX (CTL-Y)
      111     1270                             or to BREAK control.  The error is provided so that
      112     1271                             BREAK control routines can detect that a read
      113     1272                             was pending when the BREAK was hit.  B$JIT.JUNK.JJ_BAKIC
      114     1273                             is set so that an M$TRTN or a GO to IBEX will re-issue
      115     1274                             the M$READ                                              */
      116     1275    1         B$JIT.JUNK=B$JIT.JUNK|%JJ_BAKIC#;
      117     1276    1         CALL NIQ$REL (NK$LDCT.IOQ$);
      118     1277    1         NK$LDCT.IOQ$=ADDR(NIL);
      119     1278    1         RETURN;
      120     1279        /**/
      121     1280    1   END KQY$YC;

PL6.E3A0      #001=KQY$YC File=KQY$YC.:E05TSI                                    WED 07/30/97 01:39 Page:5
--  Include file information  --

   UD_SEV_C.:E05TOU  is referenced.
   KI_ERRORS_C.:E05TOU  is referenced.
   HF_LOCK_C.:E05TOU  cannot be made into a system file and is referenced.
   N$REQ.:E05TOU  is referenced.
   NK$LDCT.:E05TOU  is referenced.
   F$DCB.:E05TOU  cannot be made into a system file and is referenced.
   B$USER.:E05TOU  cannot be made into a system file and is referenced.
   B$JIT_C.:E05TOU  is referenced.
      No diagnostics issued in procedure KQY$YC.

   Procedure KQY$YC requires 49 words for executable code.
   Procedure KQY$YC requires 8 words of local(AUTO) storage.

    No errors detected in file KQY$YC.:E05TSI    .

PL6.E3A0      #001=KQY$YC File=KQY$YC.:E05TSI                                    WED 07/30/97 01:39 Page:6

 Object Unit name= KQY$YC                                     File name= KQY$YC.:E05TOU
 UTS= JUL 30 '97 01:39:48.68 WED                              Compiler= PL-6/E31         Sev=      00
 SharedLib= :SHARED_SYSTEM                                    Alt SharedLib=


    ****  Control sections  ****

 Sect   Type Bound  Init  Size OctSiz  Section name(segment info)
    0  RoData even  UTS      1      1  KQY$YC
    1   Proc  even  none    49     61  KQY$YC
    2  RoData even  none     2      2  KQY$YC

    ****  Entry defs  ****

                              Check   Calling
                             calling  sequence
  Sect OctLoc Primary Altret sequence   type   Parms  Name
     1      0   yes            yes      Std        1  KQY$YC

  ****  Entry refs  ****

         Check        Calling
        calling       sequence
Altret sequence SRef   type   Args  Name
         yes           Std       1 HFC$LOCK
         yes           Std       1 HFC$UNLOCK
 yes     yes           Std       1 NIQ$REL
                       nStd      0 X66_AUTO_1
                       Std       0 B_CONSPOOL_D
                       nStd      0 X66_ARET
PL6.E3A0      #001=KQY$YC File=KQY$YC.:E05TSI                                    WED 07/30/97 01:39 Page:7

  ****  Data refs  ****

  Flags:  r = read only, s = secondary
Flgs Name                             Flgs Name                             Flgs Name
     S$CU$                                 NI_MFGATE                             B$JIT$
     B_VECTNIL

  ****  Segment refs  ****

  Flags:  r = read only, s = secondary
Flgs Name                             Flgs Name                             Flgs Name
     ISSID
PL6.E3A0      #001=KQY$YC File=KQY$YC.:E05TSI                                    WED 07/30/97 01:39 Page:8


        1        1        /*M* KQY$YC Handle BRK and control-Y during COMGROUP user I/O */
        2        2        /*T***********************************************************/
        3        3        /*T*                                                         */
        4        4        /*T* Copyright (c) Bull HN Information Systems Inc., 1997    */
        5        5        /*T*                                                         */
        6        6        /*T***********************************************************/
        7        7       /*X* DMC,PLM=6,IND=0,IDT=2,SDI=2,CTI=0,ENU=0,AND,DCI=4,CSU=2,ECU=4,THI=0,DTI=0,STI=1
                 7        ,IAD=0,PRB */
        8        8        /**/
        9        9        /*P* NAME:         KQY$YC
       10       10             PURPOSE:      To handle asynchronous termination of a COMGROUP
       11       11                           READ.
       12       12        */
       13       13        /*F* NAME:         KQY$YC
       14       14             PURPOSE:      To undo a user COMGROUP I/O request when BRK or
       15       15                           control-Y or disconnect or suchlike
       16       16             DESCRIPTION:  Called from KQR$READ when a user
       17       17                           wait I/O request is broken out of due to BRK or
       18       18                           control-Y.  Undoes the REG and discards the IOQ
       19       19                           packet.
       20       20        */
       21       21        KQY$YC: PROC (NK$LDCT);

     21  1 000000   000000 700200 xent  KQY$YC       TSX0  ! X66_AUTO_1
         1 000001   000010 000001                    ZERO    8,1

       22       22        /**/
       23       23
       24       24
       25       25
       26       26        /**/
       27       27        /* INCLUDES */
       28       28        /**/
       29       29        %INCLUDE B$JIT_C;
       30      343        %INCLUDE B$USER;
       31      559        %B$USERREFS;
PL6.E3A0      #001=KQY$YC File=KQY$YC.:E05TSI                                    WED 07/30/97 01:39 Page:9
       32      563        %INCLUDE F$DCB;
       33      612        %INCLUDE NK$LDCT;
       34      714        %INCLUDE N$REQ;
       35      788        %INCLUDE HF_LOCK_C;
       36      802        %INCLUDE KI_ERRORS_C;
       37      887        %INCLUDE UD_SEV_C;
       38      901
       39      902
       40      903
       41      904        /**/
       42      905        /* MACROS */
       43      906        /**/
       44      907        %MACRO $ERROR (NAME=GORGO,CODE=0,SEV=SEV_ERROR#);
       45      908        DCL 1 NAME CONSTANT ALIGNED,
       46      909              2 * BIT(18) UNAL INIT('132131'O),
       47      910              2 * UBIN(15) UNAL INIT(CODE),
       48      911              2 * UBIN(3) UNAL INIT(SEV);
       49      912        %MEND;
       50      913
       51      914
       52      915
       53      916        /**/
       54      917        /* PARAMETERS */
       55      918        /**/
       56      919        %NK$LDCT (STCLASS="");
       57      965
       58      966
       59      967
       60      968        /**/
       61      969        /* BASED STRUCTURES */
       62      970        /**/
       63      971        %B$JIT0;
       64     1060        %U$JIT1X;
       65     1063        %M$JIT2X;
       66     1066        %F$JIT3X;
       67     1069        %S$JIT4X;
       68     1072        %J$JIT5;
PL6.E3A0      #001=KQY$YC File=KQY$YC.:E05TSI                                    WED 07/30/97 01:39 Page:10
       69     1160        %A$JIT6X;
       70     1163        %N$REQ;
       71     1221
       72     1222
       73     1223
       74     1224        /**/
       75     1225        /* AUTO */
       76     1226        /**/
       77     1227    1   DCL DCB$ PTR;
       78     1228
       79     1229
       80     1230
       81     1231        /**/
       82     1232        /* CONSTANT */
       83     1233        /**/
       84     1234        %$ERROR (NAME=E_BYDR,CODE=%E$BYDR,SEV=SEV_CONT#);
       85     1240
       86     1241
       87     1242
       88     1243        /**/
       89     1244        /* REFS */
       90     1245        /**/
       91     1246    1   DCL NI_MFGATE BIT(72) ALIGNED SYMREF;
       92     1247    1   DCL B$JIT$ PTR SYMREF;
       93     1248    1   DCL NIQ$REL ENTRY(1) ALTRET;
       94     1249        %EJECT;
PL6.E3A0      #001=KQY$YC File=KQY$YC.:E05TSI                                    WED 07/30/97 01:39 Page:11
       95     1250        /**/
       96     1251        %LOCK (G=NI_MFGATE);

   1252  1 000002   000000 630400 2                  EPPR0   0
         1 000003   000017 631400 xsym               EPPR1   B_VECTNIL+15
         1 000004   000000 701000 xent               TSX1    HFC$LOCK
         1 000005   000000 011000                    NOP     0

       97     1254    1         S$CU$->B$U.MF=S$CU$->B$U.MF-1;

   1254  1 000006   000000 470400 xsym               LDP0    S$CU$
         1 000007   000006 236100                    LDQ     6,,PR0
         1 000010   777000 036003                    ADLQ    -512,DU
         1 000011   000006 552140                    STBQ    6,'40'O,PR0

       98     1255    1         S$CU$->B$U.CMF=S$CU$->B$U.CMF-1;

   1255  1 000012   000007 236100                    LDQ     7,,PR0
         1 000013   000077 036007                    ADLQ    63,DL
         1 000014   000007 752101                    STCQ    7,'01'O,PR0

       99     1256              %UNLOCK (G=NI_MFGATE);

   1257  1 000015   000000 630400 2                  EPPR0   0
         1 000016   000017 631400 xsym               EPPR1   B_VECTNIL+15
         1 000017   000000 701000 xent               TSX1    HFC$UNLOCK
         1 000020   000000 011000                    NOP     0

      100     1259    1         DCB$=NK$LDCT.IOQ$->N$REQ.DCB$;

   1259  1 000021   200003 470500                    LDP0    @NK$LDCT,,AUTO
         1 000022   000001 471500                    LDP1    1,,PR0
         1 000023   100022 236100                    LDQ     18,,PR1
         1 000024   200004 756100                    STQ     DCB$,,AUTO

      101     1260    1         DCB$->F$DCB.FCN.F(1/*WAIT*/)='0'B;

PL6.E3A0      #001=KQY$YC File=KQY$YC.:E05TSI                                    WED 07/30/97 01:39 Page:12
   1260  1 000025   200004 473500                    LDP3    DCB$,,AUTO
         1 000026   000001 236000 2                  LDQ     1
         1 000027   300074 356100                    ANSQ    60,,PR3

      102     1261    1         DCB$->F$DCB.FCN.CNT(1)=DCB$->F$DCB.FCN.CNT(1)-1;

   1261  1 000030   300074 236100                    LDQ     60,,PR3
         1 000031   000022 772000                    QRL     18
         1 000032   000377 376007                    ANQ     255,DL
         1 000033   000001 136007                    SBLQ    1,DL
         1 000034   000022 736000                    QLS     18
         1 000035   300074 676100                    ERQ     60,,PR3
         1 000036   000377 376003                    ANQ     255,DU
         1 000037   300074 656100                    ERSQ    60,,PR3

      103     1262    1         B$JIT.ERR=E_BYDR;

   1262  1 000040   000000 236000 0                  LDQ     E_BYDR
         1 000041   000000 471400 xsym               LDP1    B$JIT$
         1 000042   100012 756100                    STQ     10,,PR1

      104     1263        /*E*  ERROR:         KQY-E$BYDR-C
      105     1264               MESSAGE: WAIT M$READ to COMGROUP interrupted by asynchronous event.
      106     1265              MESSAGE1: You had a WAIT M$READ pending to comgroup when you
      107     1266                        hit BREAK or CONTROL-Y or disconnected or were aborted.
      108     1267                        If you continue this process the read will be re-issued.
      109     1268              DESCRIPTION:   The user will seldom see this error since he is
      110     1269                             going away (Xed,ERRORed,disconnected), to IBEX (CTL-Y)
      111     1270                             or to BREAK control.  The error is provided so that
      112     1271                             BREAK control routines can detect that a read
      113     1272                             was pending when the BREAK was hit.  B$JIT.JUNK.JJ_BAKIC
      114     1273                             is set so that an M$TRTN or a GO to IBEX will re-issue
      115     1274                             the M$READ                                              */
      116     1275    1         B$JIT.JUNK=B$JIT.JUNK|%JJ_BAKIC#;

   1275  1 000043   100315 220100                    LDX0    205,,PR1
         1 000044   001000 260003                    ORX0    512,DU
PL6.E3A0      #001=KQY$YC File=KQY$YC.:E05TSI                                    WED 07/30/97 01:39 Page:13
         1 000045   100315 740100                    STX0    205,,PR1

      117     1276    1         CALL NIQ$REL (NK$LDCT.IOQ$);

   1276  1 000046   200003 236100                    LDQ     @NK$LDCT,,AUTO
         1 000047   000001 036003                    ADLQ    1,DU
         1 000050   200006 756100                    STQ     DCB$+2,,AUTO
         1 000051   200006 630500                    EPPR0   DCB$+2,,AUTO
         1 000052   000017 631400 xsym               EPPR1   B_VECTNIL+15
         1 000053   000000 701000 xent               TSX1    NIQ$REL
         1 000054   000000 011000                    NOP     0

      118     1277    1         NK$LDCT.IOQ$=ADDR(NIL);

   1277  1 000055   000001 236000 xsym               LDQ     B_VECTNIL+1
         1 000056   200003 470500                    LDP0    @NK$LDCT,,AUTO
         1 000057   000001 756100                    STQ     1,,PR0

      119     1278    1         RETURN;

   1278  1 000060   000000 702200 xent               TSX2  ! X66_ARET

E_BYDR
 Sect OctLoc
   0     000   132131 020430                                                    ZY..

(unnamed)
 Sect OctLoc
   2     000   000000 006000   777377 777777                                    ........
      120     1279        /**/
      121     1280    1   END KQY$YC;

PL6.E3A0      #001=KQY$YC File=KQY$YC.:E05TSI                                    WED 07/30/97 01:39 Page:14
--  Include file information  --

   UD_SEV_C.:E05TOU  is referenced.
   KI_ERRORS_C.:E05TOU  is referenced.
   HF_LOCK_C.:E05TOU  cannot be made into a system file and is referenced.
   N$REQ.:E05TOU  is referenced.
   NK$LDCT.:E05TOU  is referenced.
   F$DCB.:E05TOU  cannot be made into a system file and is referenced.
   B$USER.:E05TOU  cannot be made into a system file and is referenced.
   B$JIT_C.:E05TOU  is referenced.
      No diagnostics issued in procedure KQY$YC.
PL6.E3A0      #001=KQY$YC File=KQY$YC.:E05TSI                                    WED 07/30/97 01:39 Page:15

 **** Variables and constants ****

  ****  Section 000 RoData KQY$YC

  ****  Scalars and arrays  ****
OctLoc.c.b A Datatyp(siz) R M Lvl/name                 OctLoc.c.b A Datatyp(siz) R M Lvl/name

     0-0-0/w STRC        r     1 E_BYDR

  ****  Auto variables  ****

  ****  Scalars and arrays  ****
OctLoc.c.b A Datatyp(siz) R M Lvl/name                 OctLoc.c.b A Datatyp(siz) R M Lvl/name

     3-0-0/w PTR         r     1 @NK$LDCT                   4-0-0/w PTR         r     1 DCB$
    *0-0-0/d STRC(864)   r     1 NK$LDCT

  ****  SYMREF variables  ****

  ****  Scalars and arrays  ****
OctLoc.c.b A Datatyp(siz) R M Lvl/name                 OctLoc.c.b A Datatyp(siz) R M Lvl/name

     0-0-0/w PTR         r     1 B$JIT$                     0-0-0/w BIT (72)    r     1 NI_MFGATE
     0-0-0/w PTR         r     1 S$CU$

  ****  BASED and DCB variables  ****

  ****  Scalars and arrays  ****
OctLoc.c.b A Datatyp(siz) R M Lvl/name                 OctLoc.c.b A Datatyp(siz) R M Lvl/name

     0-0-0/d STRC(8856)  r     1 B$JIT                      0-0-0/d STRC(576)   r     1 B$U
     0-0-0/d ASTR(3528)  r     1 F$DCB                      0-0-0/d STRC(1080)  r     1 N$REQ


   Procedure KQY$YC requires 49 words for executable code.
   Procedure KQY$YC requires 8 words of local(AUTO) storage.
PL6.E3A0      #001=KQY$YC File=KQY$YC.:E05TSI                                    WED 07/30/97 01:39 Page:16

    No errors detected in file KQY$YC.:E05TSI    .
PL6.E3A0      #001=KQY$YC File=KQY$YC.:E05TSI                                    WED 07/30/97 01:39 Page:17
          *** CROSS REFERENCE LISTING ***
**     DENOTES     IDENTIFIER DEFINITION
<<                 IDENTIFIER'S VALUE SET
>>                 IDENTIFIER'S VALUE USED
<>                 IDENTIFIER SET AND/OR USED
--                 IDENTIFIER REFERENCED
PL6.E3A0      #001=KQY$YC File=KQY$YC.:E05TSI                                    WED 07/30/97 01:39 Page:18
          MINI XREF LISTING

B$DO.ECCINFO
       494**DCL       495--REDEF
B$JIT.ERR
       977**DCL      1262<<ASSIGN
B$JIT.ERR.MID
       978**DCL       978--REDEF
B$JIT.JUNK
      1094**DCL      1275<<ASSIGN   1275>>ASSIGN
B$JIT$
      1247**DCL       972--IMP-PTR  1262>>ASSIGN   1275>>ASSIGN   1275>>ASSIGN
B$U.CMF
       456**DCL      1255<<ASSIGN   1255>>ASSIGN
B$U.MF
       449**DCL      1254<<ASSIGN   1254>>ASSIGN
B$U.MISC
       473**DCL       474--REDEF
B$USER.MISC
       549**DCL       550--REDEF
DCB$
      1227**DCL      1259<<ASSIGN   1260>>ASSIGN   1261>>ASSIGN   1261>>ASSIGN
E_BYDR
      1235**DCL      1262>>ASSIGN
F$DCB.ACTPOS
       589**DCL       589--REDEF
F$DCB.ARS
       564**DCL       564--REDEF
F$DCB.ATTR
       582**DCL       583--REDEF
F$DCB.BORROW
       597**DCL       597--REDEF     597--REDEF     597--REDEF
F$DCB.DCBNAME.L
       611**DCL       611--IMP-SIZ
PL6.E3A0      #001=KQY$YC File=KQY$YC.:E05TSI                                    WED 07/30/97 01:39 Page:19
F$DCB.EOMCHAR
       568**DCL       568--REDEF
F$DCB.FCN.CNT
       601**DCL      1261<<ASSIGN   1261>>ASSIGN
F$DCB.FCN.F
       601**DCL      1260<<ASSIGN
F$DCB.FLDID
       592**DCL       592--REDEF
F$DCB.FORM$
       586**DCL       586--REDEF
F$DCB.FSECT
       602**DCL       602--REDEF
F$DCB.FSN
       579**DCL       579--REDEF     579--REDEF     580--REDEF
F$DCB.HEADER$
       585**DCL       585--REDEF
F$DCB.IXTNSIZE
       583**DCL       583--REDEF
F$DCB.LASTSTA$
       573**DCL       573--REDEF
F$DCB.LVL
       598**DCL       598--REDEF
F$DCB.NAME.C
       573**DCL       573--REDEF
F$DCB.NOEOF
       594**DCL       594--REDEF
F$DCB.NRECS
       584**DCL       584--REDEF
F$DCB.NRECX
       603**DCL       603--REDEF
F$DCB.OHDR
       595**DCL       595--REDEF
F$DCB.ORG
       578**DCL       578--REDEF
F$DCB.PRECNO
       601**DCL       601--REDEF
PL6.E3A0      #001=KQY$YC File=KQY$YC.:E05TSI                                    WED 07/30/97 01:39 Page:20
F$DCB.RCSZ
       606**DCL       606--REDEF
F$DCB.RES
       574**DCL       574--REDEF
F$DCB.SETX
       586**DCL       586--REDEF
F$DCB.TAB$
       585**DCL       586--REDEF
F$DCB.TDA
       600**DCL       600--REDEF
F$DCB.WSN
       575**DCL       575--REDEF
HFC$LOCK
       801**DCL-ENT  1252--CALL
HFC$UNLOCK
       801**DCL-ENT  1257--CALL
N$REQ.BUFADDR
      1181**DCL      1182--REDEF    1182--REDEF
N$REQ.DCB$
      1203**DCL      1259>>ASSIGN
N$REQ.DLA.DRELADDR
      1173**DCL      1173--REDEF
N$REQ.DVE.EOMCHAR
      1210**DCL      1211--REDEF
N$REQ.EAINFO
      1204**DCL      1204--REDEF
N$REQ.EAINFOX
      1204**DCL      1205--REDEF
N$REQ.EVNTINFO
      1205**DCL      1205--REDEF
N$REQ.STATUS
      1186**DCL      1192--REDEF
NIQ$REL
      1248**DCL-ENT  1276--CALL
NI_MFGATE
      1246**DCL      1252<>CALL     1257<>CALL
PL6.E3A0      #001=KQY$YC File=KQY$YC.:E05TSI                                    WED 07/30/97 01:39 Page:21
NK$LDCT
       932**DCL        21--PROC
NK$LDCT.DDT$
       934**DCL       934--REDEF
NK$LDCT.IOQ$
       933**DCL       934--REDEF    1259>>ASSIGN   1276<>CALL     1277<<ASSIGN
NK$LDCT.LDCTX
       935**DCL       935--REDEF
NK$LDCT.LKFLG.ABORTED
       947**DCL       948--REDEF
NK$LDCT.RLCID.LDCTX
       957**DCL       957--REDEF
NK$LDCT.STA$
       953**DCL       954--REDEF
NK$LDCT.SYMB$
       932**DCL       932--REDEF     932--REDEF     933--REDEF
S$CU$
       560**DCL      1254>>ASSIGN   1254>>ASSIGN   1255>>ASSIGN   1255>>ASSIGN
