VERSION E05

PL6.E3A0      #001=KQ_DATA_D File=KQ_DATA_D.:E05TSI                              WED 07/30/97 01:40 Page:1
        1        1        /*M* KQ_DATA_D Data SYMDEFs for COMGROUP QUEUE */
        2        2        /*T***********************************************************/
        3        3        /*T*                                                         */
        4        4        /*T* Copyright (c) Bull HN Information Systems Inc., 1997    */
        5        5        /*T*                                                         */
        6        6        /*T***********************************************************/
        7        7        /*X* DMC,PLM=4,IND=0,SDI=2,CTI=0,ENU=0,AND,DCI=4,CSU=2,ECU=4,THI=0,DTI=2 */
        8        8        /**/
        9        9        /**/
       10       10        KQ_DATA_D: PROC NOAUTO;
       11       11        /**/
       12       12        %INCLUDE EL$TABLES;
       13      335        %INCLUDE KQ_SUBS_C;
       14      635        %INCLUDE KQ_MAC_C;
       15     3185        %INCLUDE KQM_MAC_C;
       16     3558        %INCLUDE KC_CP6;
       17     4118        %INCLUDE M_INFO_C;
       18     4258        /**/
       19     4259        /**/
       20     4260        /**/
       21     4261    1   DCL KQ_BASEDELAY SBIN WORD STATIC SYMDEF ALIGNED INIT(0);
       22     4262                                /* BASEDELAY: > 0 if KCC$BASE needs to be called. */
       23     4263    1   DCL KQ_CGLGATE BIT(72) STATIC SYMDEF DALIGNED INIT('1'B);
       24     4264                                /* CGLGATE  : gate for KQ_MMSD.CGHEAD$ list. */
       25     4265        %KQ_MMSD (FPTN=KQ_MMSD,STCLASS="STATIC SYMDEF");
       26     4302                                /* KQ_MMSD  : Many static items requiring cache
       27     4303                                              bypass.  Pointer is KQ_MMSD$,
       28     4304                                              defined in KQX$UTIL. */
       29     4305    1   DCL KQ_DEBUG UBIN WORD STATIC SYMDEF ALIGNED INIT(0);
       30     4306                                /* DEBUG    : turns on various checks in
       31     4307                                              COMGROUP QUEUE code. */
       32     4308    1   DCL KQ_MONTIMR UBIN CONSTANT SYMDEF INIT(100);  /* 100 = 1 sec */
       33     4309                   /* Time in 10 msec units between calls to KCC$CLOCK */
       34     4310    1   DCL KQ_SQUEEZE UBIN CONSTANT SYMDEF INIT(60);  /* 60 = 1 min */
       35     4311                   /* Call KQD$SQUEEZE every KQ_SQUEEZE*KQ_MONTIMR 10 msec */
       36     4312    1   DCL KQ_CLKCNT UBIN STATIC SYMDEF INIT(0);
       37     4313                   /* Counter to know when to call KQD$SQUEEZE */
PL6.E3A0      #001=KQ_DATA_D File=KQ_DATA_D.:E05TSI                              WED 07/30/97 01:40 Page:2
       38     4314    1   DCL KQ_XFGATE BIT(72) STATIC SYMDEF DALIGNED INIT('1'B);
       39     4315                                /* KQ_XFGATE: lock for transfers thru CG
       40     4316                                              page table entries 0,1 */
       41     4317    1   DCL 1 KQ_STATS STATIC SYMDEF ALIGNED,
       42     4318    1         2 DVGET SBIN WORD INIT(0),
       43     4319                                /* DVGET    : count of delayed VGETs */
       44     4320    1         2 DFETCH SBIN WORD INIT(0),
       45     4321                                /* DFETCH   : count of delayed FETCHes */
       46     4322    1         2 GARBCOLLS SBIN WORD INIT(0),
       47     4323                                /* GARBCOLLS: count of garbage collections. */
       48     4324    1         2 * (0:2) SBIN WORD INIT(0*0),
       49     4325    1         2 CACHERRS SBIN WORD INIT(0),
       50     4326                                /* CACHERRS : count of data cache errors. */
       51     4327    1         2 CRYPTOPN SBIN WORD INIT(0);
       52     4328                                /* CRYPTOPN : number of times we had to
       53     4329                                              open the crypt of buried
       54     4330                                              DSBs. */
       55     4331        %EL$CGERR (NAME=KQ_ERRLOG_BFR,STCLASS="STATIC SYMDEF",N=100);
       56     4335                                /* KQ_ERRLOG_BFR : Place to build errlog entries */
       57     4336    1   DCL KQ_ERRLOG_GATE BIT(72) STATIC SYMDEF DALIGNED INIT('1'B);
       58     4337                                /* KQ_ERRLOG_GATE : Gate to control KQ_ERRLOG_BFR */
       59     4338    1   DCL KQ_LOGGATE BIT(72) STATIC SYMDEF INIT('1'B);
       60     4339                                /* KQ_LOGGATE  : Gate to control logging */
       61     4340    1   DCL 1 KQ_LOG STATIC SYMDEF,
       62     4341    1         2 MM BIT(1) INIT('0'B),
       63     4342                                /* KQ_LOG.MM   : Set to enable logging of memory mngmnt */
       64     4343    1         2 GARB BIT(1) INIT('0'B),
       65     4344                              /* KQ_LOG.GARB : Set to enable logging of garbage collector */
       66     4345    1         2 KQL BIT(1) INIT('0'B),
       67     4346                                /* KQ_LOG.KQL  : Set to enable logging of KQL */
       68     4347    1         2 KQD BIT(1) INIT('0'B),
       69     4348                                /* KQ_LOG.KQD  : Set to log calls to KQD (data cache) */
       70     4349    1         2 GETP BIT(1) INIT('0'B),
       71     4350                                /* KQ_LOG.GETP : Set to log KQD get space process */
       72     4351    1         2 DCIO BIT(1) INIT('0'B),
       73     4352                                /* KQ_LOG.DCIO : Set to log data cache I/O */
       74     4353    1         2 TSIO BIT(1) INIT('0'B),
PL6.E3A0      #001=KQ_DATA_D File=KQ_DATA_D.:E05TSI                              WED 07/30/97 01:40 Page:3
       75     4354                                /* KQ_LOG.TSIO : Set to log terminal station
       76     4355                                                 I/O. */
       77     4356    1         2 DSIO BIT(1) INIT('0'B),
       78     4357                                /* KQ_LOG.DSIO : Set to log DCB station I/O. */
       79     4358    1         2 DFR BIT(1) INIT('0'B),
       80     4359                                /* KQ_LOG.DFR : Set to log defer block activity */
       81     4360    1         2 * BIT(27) INIT('0'B);
       82     4361    1   DCL KQ_LOGCG UBIN STATIC SYMDEF INIT(0);
       83     4362                                /* KQ_LOGCG    : Context addr of comgroup to log */
       84     4363    1   DCL KQ_LOGCNT SBIN STATIC SYMDEF INIT(0);
       85     4364                                /* KQ_LOGCNT   : Count of # things logged */
       86     4365    1   DCL KQ_LOGENT# UBIN STATIC SYMDEF INIT(400);
       87     4366                                /* KQ_LOGENT#  : Number of entries in circular buffer */
       88     4367    1   DCL KQ_HDLOG$ PTR STATIC SYMDEF INIT(ADDR(NIL));
       89     4368                           /* KQ_HDLOG$   : Head of chain of circular buffers for logging */
       90     4369    1   DCL KQ_CURLOG$ PTR STATIC SYMDEF INIT(ADDR(NIL));
       91     4370                                /* KQ_CURLOG$  : Current circular buffer for logging */
       92     4371    1   DCL KQ_LOGSTRT BIT(1) STATIC SYMDEF INIT('0'B);
       93     4372                                /* KQ_LOGSTRT  : Set when starting or stopping logging */
       94     4373        %KQ_RBLK (FPTN=KQ_IRBLK,STCLASS="CONSTANT SYMDEF");
       95     4559        %KQ_RBLK (FPTN=KQ_IRBLKT,STCLASS="CONSTANT SYMDEF",TERM=1);
       96     4745        %KQ_DSB (FPTN=KQ_IDSB,STCLASS="CONSTANT SYMDEF");
       97     4788        %KQ_MTYP (FPTN=KQ_IMTYP,STCLASS="CONSTANT SYMDEF");
       98     4862        %KQ_CG (FPTN=KQ_ICG,STCLASS="CONSTANT SYMDEF");
       99     5639        %KQ_BAP (FPTN=KQ_IBAP,STCLASS="CONSTANT SYMDEF");
      100     5728        %KQ_MLH (FPTN=KQ_IMLH,STCLASS="CONSTANT SYMDEF");
      101     5798        %KQ_MBLK (FPTN=KQ_IMBLK,STCLASS="CONSTANT SYMDEF");
      102     6068        /**/
      103     6069    1   END KQ_DATA_D;
      104     6070        /**/

PL6.E3A0      #001=KQ_DATA_D File=KQ_DATA_D.:E05TSI                              WED 07/30/97 01:40 Page:4
--  Include file information  --

   M_INFO_C.:E05TOU  is referenced.
   KC_CP6.:E05TOU  is referenced.
   HF_DATA_R.:E05TOU  is referenced.
   KQM_MAC_C.:E05TOU  is referenced.
   KQ_MAC_C.:E05TOU  is referenced.
   KQ_SUBS_C.:E05TOU  is referenced.
   EL$TABLES.:E05TOU  is referenced.
      No diagnostics issued in procedure KQ_DATA_D.

   No code generated for procedure KQ_DATA_D .
   Procedure KQ_DATA_D is declared NOAUTO and requires 150 words of local(STATIC) storage.

    No errors detected in file KQ_DATA_D.:E05TSI    .

PL6.E3A0      #001=KQ_DATA_D File=KQ_DATA_D.:E05TSI                              WED 07/30/97 01:40 Page:5

 Object Unit name= KQ_DATA_D                                  File name= KQ_DATA_D.:E05TOU
 UTS= JUL 30 '97 01:40:32.16 WED                              Compiler= PL-6/E31         Sev=      00
 SharedLib= :SHARED_SYSTEM                                    Alt SharedLib=


    ****  Control sections  ****

 Sect   Type Bound  Init  Size OctSiz  Section name(segment info)
    0   Data  even  none   150    226  KQ_DATA_D
    1  RoData even  UTS    316    474  KQ_DATA_D
    2   Proc  even  none     0      0  KQ_DATA_D

    ****  Entry defs  ****

                              Check   Calling
                             calling  sequence
  Sect OctLoc Primary Altret sequence   type   Parms  Name
     2      0   yes            yes     ~proc       0  KQ_DATA_D
PL6.E3A0      #001=KQ_DATA_D File=KQ_DATA_D.:E05TSI                              WED 07/30/97 01:40 Page:6

  ****  Data defs  ****

 Sect OctLoc  Name                           Sect OctLoc  Name
    0      1  KQ_BASEDELAY                       0      2  KQ_CGLGATE
    0      4  KQ_MMSD                            0     14  KQ_DEBUG
    1      0  KQ_MONTIMR                         1      1  KQ_SQUEEZE
    0     15  KQ_CLKCNT                          0     16  KQ_XFGATE
    0     20  KQ_STATS                           0     30  KQ_ERRLOG_BFR
    0    212  KQ_ERRLOG_GATE                     0    214  KQ_LOGGATE
    0    216  KQ_LOG                             0    217  KQ_LOGCG
    0    220  KQ_LOGCNT                          0    221  KQ_LOGENT#
    0    222  KQ_HDLOG$                          0    223  KQ_CURLOG$
    0    224  KQ_LOGSTRT                         1      2  KQ_IRBLK
    1     24  KQ_IRBLKT                          1     42  KQ_IDSB
    1    130  KQ_IMTYP                           1    142  KQ_ICG
    1    430  KQ_IBAP                            1    444  KQ_IMLH
    1    454  KQ_IMBLK

  ****  Segment refs  ****

  Flags:  r = read only, s = secondary
Flgs Name                             Flgs Name                             Flgs Name
     NULLSID
PL6.E3A0      #001=KQ_DATA_D File=KQ_DATA_D.:E05TSI                              WED 07/30/97 01:40 Page:7


(unnamed)
 Sect OctLoc
   0     000   ****** ******   000000 000000   400000 000000   000000 000000    ................
   0     004   000000 006014   000000 006014   000000 006014   000000 006014    ................
   0     010   000000 006014   000000 000000   400000 000000   000000 000000    ................
   0     014   000000 000000   000000 000000   400000 000000   000000 000000    ................
   0     020   000000 000000   000000 000000   000000 000000   000000 000000    ................
   0     210*  ****** ******   ****** ******   400000 000000   000000 000000    ................
   0     214   400000 000000   000000 000000   000000 000000   000000 000000    ................
   0     220   000000 000000   000000 000620   000000 006014   000000 006014    ................
   0     224   0***** ******   ****** ******                                    ........

(unnamed)
 Sect OctLoc
   1     000   000000 000144   000000 000074   000000 006014   000000 000000    ...d...<........
   1     004   000000 000000   000000 000000   000000 000000   000000 000000    ................
   1     010   000000 000000   000000 000000   000000 006014   000000 000000    ................
   1     014   000000 006014   000000 006014   ****** ******   ****** ******    ................
   1     020   000000 000000   000000 000000   000000 006014   000000 006014    ................
   1     024   000000 006014   000000 000000   000000 000000   000000 000000    ................
   1     030   000000 000000   000000 000000   000000 000000   000000 000000    ................
   1     034   000000 006014   000000 000000   000000 006014   000000 006014    ................
   1     040   000000 000000   000000 006014   000000 150661   000000 000000    ..........h.....
   1     044   023777 740460   000000 000000   023777 740460   000000 000000    ................
   1     130*  000000 000000   000000 006014   000000 006014   000000 006014    ................
   1     134   000000 006014   040040 040040   040040 040040   000000 777777    ....        ....
   1     140   000000 000000   000000 000000   000000 006014   400000 000000    ................
   1     144   000000 000000   000000 006014   000000 006014   000000 006014    ................
   1     150   000000 000000   000000 000000   000000 000000   000000 000000    ................
   1     154   000000 006014   000000 006014   000000 006014   000000 000000    ................
   1     160   000000 000000   000000 000000   000000 000000   000000 006014    ................
   1     164   000000 006014   000000 006014   000000 006014   000000 000000    ................
   1     170   000000 006014   000000 006014   000000 000000   000000 000000    ................
   1     174   000000 000000   000000 000000   000000 006014   000000 000000    ................
   1     200   000000 006014   000000 006014   000000 006014   000000 006014    ................
   1     204   000000 000000   000000 000000   000000 000000   000000 000000    ................
PL6.E3A0      #001=KQ_DATA_D File=KQ_DATA_D.:E05TSI                              WED 07/30/97 01:40 Page:8
   1     210   000000 ******   000000 000000   000000 000000   000000 006014    ................
   1     214   000000 006014   000000 000000   000000 000000   000000 000000    ................
   1     220   000000 000000   000000 006014   000000 006014   000000 006014    ................
   1     224   000000 006014   000000 000000   000000 006014   000000 006014    ................
   1     230   000000 000000   400000 000000   000000 000000   000000 006014    ................
   1     234   000000 000001   000000 006014   000000 000000   400000 000000    ................
   1     240   000000 000000   000000 006014   000000 000001   000000 006014    ................
   1     244   000000 000000   000000 006014   000000 006014   000000 000000    ................
   1     250   000000 000000   400000 000000   000000 000000   400000 000000    ................
   1     254   000000 000000   000000 000001   000000 006014   000000 000000    ................
   1     260   000000 000001   000000 000000   000000 000000   000000 006014    ................
   1     264   000000 000000   000000 006014   000000 006014   040040 040040    ............
   1     270   040040 040040   040040 040040   040040 040040   000002 001001                ....
   1     274   000046 113177   000012 760021   000000 002000   000024 062000    .&K...........2.
   1     300   600036 000214   000000 000000   000012 000024   000002 ******    ................
   1     304   000000 000000   000000 000000   000000 000000   000000 000000    ................
   1     310   000000 000000   000000 000000   000000 000000   040040 040040    ............
   1     314   040040 040040   040040 040040   040040 040040   040040 040040
   1     320   040040 040040   000000 000000   040040 040040   040040 040040        ....
   1     324   040040 040040   040040 040040   000000 000000   000000 000000            ........
   1     330   000000 000000   000000 000000   000000 000000   000000 000000    ................
   1     350*  000000 000000   000000 006014   000000 006014   000000 000000    ................
   1     354   000000 000000   000000 000000   000000 006014   000000 006014    ................
   1     360   000000 000000   000000 000000   000000 000000   000000 006014    ................
   1     364   000000 000000   000000 006014   000000 000002   000000 000000    ................
   1     370   000000 000000   000000 000000   000000 006014   400000 000000    ................
   1     374   000000 000000   000000 006014   000000 000001   000000 006014    ................
   1     400   000000 000000   000000 000000   000000 000000   000143 000000    .............c..
   1     404   000000 000000   000000 006014   000000 006014   000000 006014    ................
   1     410   000000 006014   000000 006014   000000 006014   000000 006014    ................
   1     414   000000 000000   000000 000000   000000 000000   000000 006014    ................
   1     420   000000 000000   000000 006014   000000 006014   000000 006014    ................
   1     424   000000 006014   000000 006014   000000 000000   ****** ******    ................
   1     430   000000 000000   000004 000000   000000 006014   000000 000000    ................
   1     434   000000 006014   000000 006014   000000 000000   000000 006014    ................
   1     440   000000 006014   000000 006014   000000 006014   000000 006014    ................
   1     444   000000 006014   000000 006014   000000 006014   000004 000000    ................
PL6.E3A0      #001=KQ_DATA_D File=KQ_DATA_D.:E05TSI                              WED 07/30/97 01:40 Page:9
   1     450   000000 000000   000000 000000   000000 006014   000000 000000    ................
   1     454   000000 006014   000000 000000   040040 040040   040040 040040    ........
   1     460   040040 040040   040040 040040   000000 000000   000000 000000            ........
   1     464   000000 040006   040040 040040   040040 040040   000000 000000    .. .        ....
   1     470   000000 000000   000000 000000   000000 000000   000000 000000    ................
        1        1        /*M* KQ_DATA_D Data SYMDEFs for COMGROUP QUEUE */
        2        2        /*T***********************************************************/
        3        3        /*T*                                                         */
        4        4        /*T* Copyright (c) Bull HN Information Systems Inc., 1997    */
        5        5        /*T*                                                         */
        6        6        /*T***********************************************************/
        7        7        /*X* DMC,PLM=4,IND=0,SDI=2,CTI=0,ENU=0,AND,DCI=4,CSU=2,ECU=4,THI=0,DTI=2 */
        8        8        /**/
        9        9        /**/
       10       10        KQ_DATA_D: PROC NOAUTO;
       11       11        /**/
       12       12        %INCLUDE EL$TABLES;
       13      335        %INCLUDE KQ_SUBS_C;
       14      635        %INCLUDE KQ_MAC_C;
       15     3185        %INCLUDE KQM_MAC_C;
       16     3558        %INCLUDE KC_CP6;
       17     4118        %INCLUDE M_INFO_C;
       18     4258        /**/
       19     4259        /**/
       20     4260        /**/
       21     4261    1   DCL KQ_BASEDELAY SBIN WORD STATIC SYMDEF ALIGNED INIT(0);
       22     4262                                /* BASEDELAY: > 0 if KCC$BASE needs to be called. */
       23     4263    1   DCL KQ_CGLGATE BIT(72) STATIC SYMDEF DALIGNED INIT('1'B);
       24     4264                                /* CGLGATE  : gate for KQ_MMSD.CGHEAD$ list. */
       25     4265        %KQ_MMSD (FPTN=KQ_MMSD,STCLASS="STATIC SYMDEF");
       26     4302                                /* KQ_MMSD  : Many static items requiring cache
       27     4303                                              bypass.  Pointer is KQ_MMSD$,
       28     4304                                              defined in KQX$UTIL. */
       29     4305    1   DCL KQ_DEBUG UBIN WORD STATIC SYMDEF ALIGNED INIT(0);
       30     4306                                /* DEBUG    : turns on various checks in
       31     4307                                              COMGROUP QUEUE code. */
       32     4308    1   DCL KQ_MONTIMR UBIN CONSTANT SYMDEF INIT(100);  /* 100 = 1 sec */
PL6.E3A0      #001=KQ_DATA_D File=KQ_DATA_D.:E05TSI                              WED 07/30/97 01:40 Page:10
       33     4309                   /* Time in 10 msec units between calls to KCC$CLOCK */
       34     4310    1   DCL KQ_SQUEEZE UBIN CONSTANT SYMDEF INIT(60);  /* 60 = 1 min */
       35     4311                   /* Call KQD$SQUEEZE every KQ_SQUEEZE*KQ_MONTIMR 10 msec */
       36     4312    1   DCL KQ_CLKCNT UBIN STATIC SYMDEF INIT(0);
       37     4313                   /* Counter to know when to call KQD$SQUEEZE */
       38     4314    1   DCL KQ_XFGATE BIT(72) STATIC SYMDEF DALIGNED INIT('1'B);
       39     4315                                /* KQ_XFGATE: lock for transfers thru CG
       40     4316                                              page table entries 0,1 */
       41     4317    1   DCL 1 KQ_STATS STATIC SYMDEF ALIGNED,
       42     4318    1         2 DVGET SBIN WORD INIT(0),
       43     4319                                /* DVGET    : count of delayed VGETs */
       44     4320    1         2 DFETCH SBIN WORD INIT(0),
       45     4321                                /* DFETCH   : count of delayed FETCHes */
       46     4322    1         2 GARBCOLLS SBIN WORD INIT(0),
       47     4323                                /* GARBCOLLS: count of garbage collections. */
       48     4324    1         2 * (0:2) SBIN WORD INIT(0*0),
       49     4325    1         2 CACHERRS SBIN WORD INIT(0),
       50     4326                                /* CACHERRS : count of data cache errors. */
       51     4327    1         2 CRYPTOPN SBIN WORD INIT(0);
       52     4328                                /* CRYPTOPN : number of times we had to
       53     4329                                              open the crypt of buried
       54     4330                                              DSBs. */
       55     4331        %EL$CGERR (NAME=KQ_ERRLOG_BFR,STCLASS="STATIC SYMDEF",N=100);
       56     4335                                /* KQ_ERRLOG_BFR : Place to build errlog entries */
       57     4336    1   DCL KQ_ERRLOG_GATE BIT(72) STATIC SYMDEF DALIGNED INIT('1'B);
       58     4337                                /* KQ_ERRLOG_GATE : Gate to control KQ_ERRLOG_BFR */
       59     4338    1   DCL KQ_LOGGATE BIT(72) STATIC SYMDEF INIT('1'B);
       60     4339                                /* KQ_LOGGATE  : Gate to control logging */
       61     4340    1   DCL 1 KQ_LOG STATIC SYMDEF,
       62     4341    1         2 MM BIT(1) INIT('0'B),
       63     4342                                /* KQ_LOG.MM   : Set to enable logging of memory mngmnt */
       64     4343    1         2 GARB BIT(1) INIT('0'B),
       65     4344                             /* KQ_LOG.GARB : Set to enable logging of garbage collector */
       66     4345    1         2 KQL BIT(1) INIT('0'B),
       67     4346                                /* KQ_LOG.KQL  : Set to enable logging of KQL */
       68     4347    1         2 KQD BIT(1) INIT('0'B),
       69     4348                                /* KQ_LOG.KQD  : Set to log calls to KQD (data cache) */
PL6.E3A0      #001=KQ_DATA_D File=KQ_DATA_D.:E05TSI                              WED 07/30/97 01:40 Page:11
       70     4349    1         2 GETP BIT(1) INIT('0'B),
       71     4350                                /* KQ_LOG.GETP : Set to log KQD get space process */
       72     4351    1         2 DCIO BIT(1) INIT('0'B),
       73     4352                                /* KQ_LOG.DCIO : Set to log data cache I/O */
       74     4353    1         2 TSIO BIT(1) INIT('0'B),
       75     4354                                /* KQ_LOG.TSIO : Set to log terminal station
       76     4355                                                 I/O. */
       77     4356    1         2 DSIO BIT(1) INIT('0'B),
       78     4357                                /* KQ_LOG.DSIO : Set to log DCB station I/O. */
       79     4358    1         2 DFR BIT(1) INIT('0'B),
       80     4359                                /* KQ_LOG.DFR : Set to log defer block activity */
       81     4360    1         2 * BIT(27) INIT('0'B);
       82     4361    1   DCL KQ_LOGCG UBIN STATIC SYMDEF INIT(0);
       83     4362                                /* KQ_LOGCG    : Context addr of comgroup to log */
       84     4363    1   DCL KQ_LOGCNT SBIN STATIC SYMDEF INIT(0);
       85     4364                                /* KQ_LOGCNT   : Count of # things logged */
       86     4365    1   DCL KQ_LOGENT# UBIN STATIC SYMDEF INIT(400);
       87     4366                                /* KQ_LOGENT#  : Number of entries in circular buffer */
       88     4367    1   DCL KQ_HDLOG$ PTR STATIC SYMDEF INIT(ADDR(NIL));
       89     4368                           /* KQ_HDLOG$  : Head of chain of circular buffers for logging */
       90     4369    1   DCL KQ_CURLOG$ PTR STATIC SYMDEF INIT(ADDR(NIL));
       91     4370                                /* KQ_CURLOG$  : Current circular buffer for logging */
       92     4371    1   DCL KQ_LOGSTRT BIT(1) STATIC SYMDEF INIT('0'B);
       93     4372                                /* KQ_LOGSTRT  : Set when starting or stopping logging */
       94     4373        %KQ_RBLK (FPTN=KQ_IRBLK,STCLASS="CONSTANT SYMDEF");
       95     4559        %KQ_RBLK (FPTN=KQ_IRBLKT,STCLASS="CONSTANT SYMDEF",TERM=1);
       96     4745        %KQ_DSB (FPTN=KQ_IDSB,STCLASS="CONSTANT SYMDEF");
       97     4788        %KQ_MTYP (FPTN=KQ_IMTYP,STCLASS="CONSTANT SYMDEF");
       98     4862        %KQ_CG (FPTN=KQ_ICG,STCLASS="CONSTANT SYMDEF");
       99     5639        %KQ_BAP (FPTN=KQ_IBAP,STCLASS="CONSTANT SYMDEF");
      100     5728        %KQ_MLH (FPTN=KQ_IMLH,STCLASS="CONSTANT SYMDEF");
      101     5798        %KQ_MBLK (FPTN=KQ_IMBLK,STCLASS="CONSTANT SYMDEF");
      102     6068        /**/
      103     6069    1   END KQ_DATA_D;
      104     6070        /**/

PL6.E3A0      #001=KQ_DATA_D File=KQ_DATA_D.:E05TSI                              WED 07/30/97 01:40 Page:12
--  Include file information  --

   M_INFO_C.:E05TOU  is referenced.
   KC_CP6.:E05TOU  is referenced.
   HF_DATA_R.:E05TOU  is referenced.
   KQM_MAC_C.:E05TOU  is referenced.
   KQ_MAC_C.:E05TOU  is referenced.
   KQ_SUBS_C.:E05TOU  is referenced.
   EL$TABLES.:E05TOU  is referenced.
      No diagnostics issued in procedure KQ_DATA_D.
PL6.E3A0      #001=KQ_DATA_D File=KQ_DATA_D.:E05TSI                              WED 07/30/97 01:40 Page:13

 **** Variables and constants ****


   No code generated for procedure KQ_DATA_D .
   Procedure KQ_DATA_D is declared NOAUTO and requires 150 words of local(STATIC) storage.

    No errors detected in file KQ_DATA_D.:E05TSI    .
PL6.E3A0      #001=KQ_DATA_D File=KQ_DATA_D.:E05TSI                              WED 07/30/97 01:40 Page:14
          *** CROSS REFERENCE LISTING ***
**     DENOTES     IDENTIFIER DEFINITION
<<                 IDENTIFIER'S VALUE SET
>>                 IDENTIFIER'S VALUE USED
<>                 IDENTIFIER SET AND/OR USED
--                 IDENTIFIER REFERENCED
PL6.E3A0      #001=KQ_DATA_D File=KQ_DATA_D.:E05TSI                              WED 07/30/97 01:40 Page:15
          MINI XREF LISTING

KQ_ICG.AUCTL.DVBYTE.REREAD#
      5338**DCL      5339--REDEF
KQ_IDSB.ASR
      4760**DCL      4769--REDEF
KQ_IDSB.DESC.FLG
      4780**DCL      4781--REDEF
KQ_IMBLK.DVE.EOMCHAR
      5913**DCL      5915--REDEF
KQ_IMBLK.KEY1
      5839**DCL      5841--REDEF
KQ_IMBLK.KEY2
      5848**DCL      5866--REDEF
KQ_IMBLK.LNK$
      5813**DCL      5815--REDEF    5821--REDEF    5825--REDEF
KQ_IMBLK.TYC
      5962**DCL      5964--REDEF
KQ_IMBLK.XSP.MREQ$
      5868**DCL      5872--REDEF
KQ_IRBLK.BUF$
      4508**DCL      4510--REDEF
KQ_IRBLK.CNACTD
      4422**DCL      4431--REDEF
KQ_IRBLK.DBLKX
      4528**DCL      4532--REDEF
KQ_IRBLK.EOFNONE
      4400**DCL      4403--REDEF
KQ_IRBLK.FROMQ
      4406**DCL      4409--REDEF
KQ_IRBLK.KEY1R
      4447**DCL      4448--REDEF
KQ_IRBLK.KEY2R
      4452**DCL      4453--REDEF
PL6.E3A0      #001=KQ_DATA_D File=KQ_DATA_D.:E05TSI                              WED 07/30/97 01:40 Page:16
KQ_IRBLK.LATCH
      4395**DCL      4397--REDEF
KQ_IRBLK.LWRITES$
      4539**DCL      4543--REDEF
KQ_IRBLKT.CNACTD
      4608**DCL      4617--REDEF
KQ_IRBLKT.DBLK$
      4671**DCL      4675--REDEF    4678--REDEF
KQ_IRBLKT.EOFNONE
      4586**DCL      4589--REDEF
KQ_IRBLKT.FROMQ
      4592**DCL      4595--REDEF
KQ_IRBLKT.KEY1R
      4633**DCL      4634--REDEF
KQ_IRBLKT.KEY2R
      4638**DCL      4639--REDEF
KQ_IRBLKT.LATCH
      4581**DCL      4583--REDEF
