VERSION E05

PL6.E3A0      #001=KQ_SCR_D File=KQ_SCR_D.:E05TSI                                WED 07/30/97 01:40 Page:1
        1        1        /*M* KQ_SCR_D SCREECHes for COMGROUP QUEUE */
        2        2        /*T***********************************************************/
        3        3        /*T*                                                         */
        4        4        /*T* Copyright (c) Bull HN Information Systems Inc., 1997    */
        5        5        /*T*                                                         */
        6        6        /*T***********************************************************/
        7        7        /*X* DMC,PLM=4,IND=0,SDI=2,CTI=0,ENU=0,AND,DCI=4,CSU=2,ECU=4,THI=0,DTI=2 */
        8        8        /**/
        9        9        /**/
       10       10        KQ_SCR_D: PROC NOAUTO;
       11       11        /**/
       12       12        /**/
       13       13        /**/
       14       14        /**/
       15       15        %INCLUDE JS_CP6;
       16      433        %INCLUDE K_SCODE_C;
       17      518        /**/
       18      519        /**/
       19      520        /**/
       20      521        %VLP_SUA (FPTN=SC_BCGPRL,CODE=%S$BCGPRL,STCLASS=CONSTANT SYMDEF,
       21      522                   MON='1'B,FCG=KQ,MID=M,SEV=SEV_SCREECH,
       22      523                   CFUS=YES,LDCTS=YES,CWSPT=YES);
       23      593        %VLP_SUA (FPTN=SC_BCGBAP,CODE=%S$BCGBAP,STCLASS=CONSTANT SYMDEF,
       24      594                   MON='1'B,FCG=KQ,MID=M,SEV=SEV_SCREECH,
       25      595                   CFUS=YES,LDCTS=YES,CWSPT=YES);
       26      665        %VLP_SUA (FPTN=SC_BCGQRL,CODE=%S$BCGQRL,STCLASS=CONSTANT SYMDEF,
       27      666                   MON='1'B,FCG=KQ,MID=M,SEV=SEV_SCREECH,
       28      667                   CFUS=YES,LDCTS=YES,CWSPT=YES);
       29      737        %VLP_SUA (FPTN=SC_CGBLTB,CODE=%S$CGBLTB,STCLASS=CONSTANT SYMDEF,
       30      738                   MON='1'B,FCG=KQ,MID=M,SEV=SEV_SCREECH,
       31      739                   CFUS=YES,LDCTS=YES,CWSPT=YES);
       32      809        %VLP_SUA (FPTN=SC_CGCANZ,CODE=%S$CGCANZ,STCLASS=CONSTANT SYMDEF,
       33      810                   MON='1'B,FCG=KQ,MID=Q,SEV=SEV_SNAP,
       34      811                   CFUS=YES,LDCTS=YES,CWSPT=YES);
       35      881        %VLP_SUA (FPTN=SC_CGCRCT,CODE=%S$CGCRCT,STCLASS=CONSTANT SYMDEF,
       36      882                   MON='1'B,FCG=KQ,MID=T,SEV=SEV_SNAP,
       37      883                   CFUS=YES,LDCTS=YES,CWSPT=YES);
PL6.E3A0      #001=KQ_SCR_D File=KQ_SCR_D.:E05TSI                                WED 07/30/97 01:40 Page:2
       38      953        %VLP_SUA (FPTN=SC_CGNOTIMP,CODE=%S$CGNOTIMP,STCLASS=CONSTANT SYMDEF,
       39      954                   MON='1'B,FCG=KQ,MID=M,SEV=SEV_SCREECH,
       40      955                   CFUS=YES,LDCTS=YES,CWSPT=YES);
       41     1025        %VLP_SUA (FPTN=SC_BCGIOF,CODE=%S$BCGIOF,STCLASS=CONSTANT SYMDEF,
       42     1026                   MON='1'B,FCG=KQ,MID=R,SEV=SEV_SCREECH,
       43     1027                   CFUS=YES,LDCTS=YES,CWSPT=YES);
       44     1097        %VLP_SUA (FPTN=SC_BCGRBS,CODE=%S$BCGRBS,STCLASS=CONSTANT SYMDEF,
       45     1098                   MON='1'B,FCG=KQ,MID=R,SEV=SEV_SCREECH,
       46     1099                   CFUS=YES,LDCTS=YES,CWSPT=YES);
       47     1169        %VLP_SUA (FPTN=SC_DCGBRL,CODE=%S$DCGBRL,STCLASS=CONSTANT SYMDEF,
       48     1170                   MON='1'B,FCG=KQ,MID=M,SEV=SEV_SCREECH,
       49     1171                   CFUS=YES,LDCTS=YES,CWSPT=YES);
       50     1241        %VLP_SUA (FPTN=SC_CGLRKL,CODE=%S$CGLRKL,STCLASS=CONSTANT SYMDEF,
       51     1242                   MON='1'B,FCG=KQ,MID=U,SEV=SEV_SCREECH,
       52     1243                   CFUS=YES,LDCTS=YES,CWSPT=YES);
       53     1313        %VLP_SUA (FPTN=SC_CGCALZ,CODE=%S$CGCALZ,STCLASS=CONSTANT SYMDEF,
       54     1314                   MON='1'B,FCG=KQ,MID=U,SEV=SEV_SCREECH,
       55     1315                   CFUS=YES,LDCTS=YES,CWSPT=YES);
       56     1385        %VLP_SUA (FPTN=SC_BCGPUT,CODE=%S$BCGPUT,STCLASS=CONSTANT SYMDEF,
       57     1386                   MON='1'B,FCG=KQ,MID=P,SEV=SEV_SCREECH,
       58     1387                   CFUS=YES,LDCTS=YES,CWSPT=YES);
       59     1457        %VLP_SUA (FPTN=SC_CGCACHE,CODE=%S$CGCACHE,STCLASS=CONSTANT SYMDEF,
       60     1458                   MON='1'B,FCG=KQ,MID=D,SEV=SEV_SNAP,
       61     1459                   CFUS=YES,LDCTS=YES,CWSPT=YES);
       62     1529        %VLP_SUA (FPTN=SC_CGCACHESCR,CODE=%S$CGCACHESCR,STCLASS=CONSTANT SYMDEF,
       63     1530                   MON='1'B,FCG=KQ,MID=D,SEV=SEV_SCREECH,
       64     1531                   CFUS=YES,LDCTS=YES,CWSPT=YES);
       65     1601        %VLP_SUA (FPTN=SC_CGKQE,CODE=%S$CGKQE,STCLASS=CONSTANT SYMDEF,
       66     1602                   MON='1'B,FCG=KQ,MID=E,SEV=SEV_SCREECH,
       67     1603                   CFUS=YES,LDCTS=YES,CWSPT=YES);
       68     1673        %VLP_SUA (FPTN=SC_BCGPSC,CODE=%S$BCGPSC,STCLASS=CONSTANT SYMDEF,
       69     1674                   MON='1'B,FCG=KQ,MID=P,SEV=SEV_SCREECH,
       70     1675                   LRM=YES,CFUS=YES,LDCTS=YES,CWSPT=YES);
       71     1745        %VLP_SUA (FPTN=SC_BCGGET,CODE=%S$BCGGET,STCLASS=CONSTANT SYMDEF,
       72     1746                   MON='1'B,FCG=KQ,MID=G,SEV=SEV_SNAP,
       73     1747                   CFUS=YES,LDCTS=YES,CWSPT=YES);
       74     1817        %VLP_SUA (FPTN=SC_BCGMMQ,CODE=%S$BCGMMQ,STCLASS=CONSTANT SYMDEF,
PL6.E3A0      #001=KQ_SCR_D File=KQ_SCR_D.:E05TSI                                WED 07/30/97 01:40 Page:3
       75     1818                   MON='1'B,FCG=KQ,MID=M,SEV=SEV_SCREECH,
       76     1819                   CFUS=YES,LDCTS=YES,CWSPT=YES);
       77     1889        %VLP_SUA (FPTN=SC_CGAUERR,CODE=%S$CGAUERR,STCLASS=CONSTANT SYMDEF,
       78     1890                   MON='1'B,FCG=KC,MID=A,SEV=SEV_SCREECH,
       79     1891                   CFUS=YES,LDCTS=YES,CWSPT=YES);
       80     1961        %VLP_SUA (FPTN=SC_CGSUPR,CODE=%S$CGSUPR,STCLASS=CONSTANT SYMDEF,
       81     1962                   MON='1'B,FCG=KQ,MID=L,SEV=SEV_SCREECH,
       82     1963                   CFUS=YES,LDCTS=YES,CWSPT=YES);
       83     2033        %VLP_SUA (FPTN=SC_CGSUSN,CODE=%S$CGSUSN,STCLASS=CONSTANT SYMDEF,
       84     2034                   MON='1'B,FCG=KQ,MID=L,SEV=SEV_SNAP,
       85     2035                   CFUS=YES,LDCTS=YES,CWSPT=YES);
       86     2105        %VLP_SUA (FPTN=SC_BCGMRQ,CODE=%S$BCGMRQ,STCLASS=CONSTANT SYMDEF,
       87     2106                   MON='1'B,FCG=KQ,MID=M,SEV=SEV_SCREECH,
       88     2107                   CFUS=YES,LDCTS=YES,CWSPT=YES);
       89     2177        %VLP_SUA (FPTN=SC_BCGXRL,CODE=%S$BCGXRL,STCLASS=CONSTANT SYMDEF,
       90     2178                   MON='1'B,FCG=KQ,MID=T,SEV=SEV_SNAP,
       91     2179                   CFUS=YES,LDCTS=YES,CWSPT=YES);
       92     2249        %VLP_SUA (FPTN=SC_MONCON,CODE=%S$MONCON,STCLASS=CONSTANT SYMDEF,
       93     2250                   MON='1'B,FCG=KC,MID=L,SEV=SEV_SCREECH,
       94     2251                   CFUS=YES,LDCTS=YES,CWSPT=YES);
       95     2321        %VLP_SUA (FPTN=SC_CGGARB,CODE=%S$CGGARB,STCLASS=CONSTANT SYMDEF,
       96     2322                   MON='1'B,FCG=KQ,MID=S,SEV=SEV_SCREECH,
       97     2323                   CFUS=YES,LDCTS=YES,CWSPT=YES);
       98     2393        %VLP_SUA (FPTN=SC_CGGBSN,CODE=%S$CGGBSN,STCLASS=CONSTANT SYMDEF,
       99     2394                   MON='1'B,FCG=KQ,MID=S,SEV=SEV_SNAP,
      100     2395                   CFUS=YES,LDCTS=YES,CWSPT=YES);
      101     2465        %VLP_SUA (FPTN=SC_BCGDSC,CODE=%S$BCGDSC,STCLASS=CONSTANT SYMDEF,
      102     2466                   MON='1'B,FCG=KC,MID=O,SEV=SEV_SCREECH,
      103     2467                   CFUS=YES,LDCTS=YES,CWSPT=YES);
      104     2537        %VLP_SUA (FPTN=SC_CGFWST,CODE=%S$CGFWST,STCLASS=CONSTANT SYMDEF,
      105     2538                   MON='1'B,FCG=KQ,MID=F,SEV=SEV_SCREECH,
      106     2539                   CFUS=YES,LDCTS=YES,CWSPT=YES);
      107     2609        %VLP_SUA (FPTN=SC_BABOON,CODE=%S$BABOON,STCLASS=CONSTANT SYMDEF,
      108     2610                   MON='1'B,FCG=KU,MID=B,SEV=SEV_SNAP,
      109     2611                   CFUS=YES,LDCTS=YES,CWSPT=YES);
      110     2681        %VLP_SUA (FPTN=SC_RESUS,CODE=%S$RESUS,STCLASS=CONSTANT SYMDEF,
      111     2682                   MON='1'B,FCG=KU,MID=R,SEV=SEV_SUA,
PL6.E3A0      #001=KQ_SCR_D File=KQ_SCR_D.:E05TSI                                WED 07/30/97 01:40 Page:4
      112     2683                   CFUS=YES,LDCTS=YES,CWSPT=YES);
      113     2753        %VLP_SUA (FPTN=SC_BCGMRQS,CODE=%S$BCGMRQS,STCLASS=CONSTANT SYMDEF,
      114     2754                   MON='1'B,FCG=KQ,MID=M,SEV=SEV_SNAP,
      115     2755                   CFUS=YES,LDCTS=YES,CWSPT=YES);
      116     2825        %VLP_SUA (FPTN=SC_BCGRRC,CODE=%S$BCGRRC,STCLASS=CONSTANT SYMDEF,
      117     2826                   MON='1'B,FCG=KQ,MID=L,SEV=SEV_SCREECH,
      118     2827                   CFUS=YES,LDCTS=YES,CWSPT=YES);
      119     2897        %VLP_SUA (FPTN=SC_CGREOPEN,CODE=%S$CGREOPEN,STCLASS=CONSTANT SYMDEF,
      120     2898                   MON='1'B,FCG=KC,MID=O,SEV=SEV_SNAP,
      121     2899                   CFUS=YES,LDCTS=YES,CWSPT=YES);
      122     2969        %VLP_SUA (FPTN=SC_CGNOMBLK,CODE=%S$CGNOMBLK,STCLASS=CONSTANT SYMDEF,
      123     2970                   MON='1'B,FCG=KC,MID=O,SEV=SEV_SNAP,
      124     2971                   CFUS=YES,LDCTS=YES,CWSPT=YES);
      125     3041        %VLP_SUA (FPTN=SC_CGBADRBLK,CODE=%S$CGBADRBLK,STCLASS=CONSTANT SYMDEF,
      126     3042                   MON='1'B,FCG=KQ,MID=U,SEV=SEV_SNAP,
      127     3043                   CFUS=YES,LDCTS=YES,CWSPT=YES);
      128     3113    1   END KQ_SCR_D;

PL6.E3A0      #001=KQ_SCR_D File=KQ_SCR_D.:E05TSI                                WED 07/30/97 01:40 Page:5
--  Include file information  --

   K_SCODE_C.:E05TOU  is referenced.
   JS_CP6.:E05TOU  is referenced.
      No diagnostics issued in procedure KQ_SCR_D.

   No code generated for procedure KQ_SCR_D .
   Procedure KQ_SCR_D is declared NOAUTO and requires 2 words of local(STATIC) storage.

    No errors detected in file KQ_SCR_D.:E05TSI    .

PL6.E3A0      #001=KQ_SCR_D File=KQ_SCR_D.:E05TSI                                WED 07/30/97 01:40 Page:6

 Object Unit name= KQ_SCR_D                                   File name= KQ_SCR_D.:E05TOU
 UTS= JUL 30 '97 01:40:51.96 WED                              Compiler= PL-6/E31         Sev=      00
 SharedLib= :SHARED_SYSTEM                                    Alt SharedLib=


    ****  Control sections  ****

 Sect   Type Bound  Init  Size OctSiz  Section name(segment info)
    0   Data  even  none     2      2  KQ_SCR_D
    1  RoData even  UTS     72    110  KQ_SCR_D
    2   Proc  even  none     0      0  KQ_SCR_D

    ****  Entry defs  ****

                              Check   Calling
                             calling  sequence
  Sect OctLoc Primary Altret sequence   type   Parms  Name
     2      0   yes            yes     ~proc       0  KQ_SCR_D
PL6.E3A0      #001=KQ_SCR_D File=KQ_SCR_D.:E05TSI                                WED 07/30/97 01:40 Page:7

  ****  Data defs  ****

 Sect OctLoc  Name                           Sect OctLoc  Name
    1      0  SC_BCGPRL                          1      2  SC_BCGBAP
    1      4  SC_BCGQRL                          1      6  SC_CGBLTB
    1     10  SC_CGCANZ                          1     12  SC_CGCRCT
    1     14  SC_CGNOTIMP                        1     16  SC_BCGIOF
    1     20  SC_BCGRBS                          1     22  SC_DCGBRL
    1     24  SC_CGLRKL                          1     26  SC_CGCALZ
    1     30  SC_BCGPUT                          1     32  SC_CGCACHE
    1     34  SC_CGCACHESCR                      1     36  SC_CGKQE
    1     40  SC_BCGPSC                          1     42  SC_BCGGET
    1     44  SC_BCGMMQ                          1     46  SC_CGAUERR
    1     50  SC_CGSUPR                          1     52  SC_CGSUSN
    1     54  SC_BCGMRQ                          1     56  SC_BCGXRL
    1     60  SC_MONCON                          1     62  SC_CGGARB
    1     64  SC_CGGBSN                          1     66  SC_BCGDSC
    1     70  SC_CGFWST                          1     72  SC_BABOON
    1     74  SC_RESUS                           1     76  SC_BCGMRQS
    1    100  SC_BCGRRC                          1    102  SC_CGREOPEN
    1    104  SC_CGNOMBLK                        1    106  SC_CGBADRBLK
PL6.E3A0      #001=KQ_SCR_D File=KQ_SCR_D.:E05TSI                                WED 07/30/97 01:40 Page:8


(unnamed)
 Sect OctLoc
   1     000   132115 414437   201160 107760   132115 414417   201160 107760    ZM...pG.ZM...pG.
   1     004   132115 400757   201160 107760   132115 414427   201160 107760    ZM...pG.ZM...pG.
   1     010   132121 414615   201160 107760   132124 414625   201160 107760    ZQ...pG.ZT...pG.
   1     014   132115 414447   201160 107760   132122 401017   201160 107760    ZM...pG.ZR...pG.
   1     020   132122 414457   201160 107760   132115 414467   201160 107760    ZR...pG.ZM...pG.
   1     024   132125 414477   201160 107760   132125 414507   201160 107760    ZU...pG.ZU...pG.
   1     030   132120 414527   201160 107760   132104 414535   201160 107760    ZP...pG.ZD...pG.
   1     034   132104 414667   201160 107760   132105 414677   201160 107760    ZD...pG.ZE...pG.
   1     040   132120 414547   601160 107760   132107 414555   201160 107760    ZP...pG.ZG...pG.
   1     044   132115 414577   201160 107760   130301 414607   201160 107760    ZM...pG.X....pG.
   1     050   132114 414517   201160 107760   132114 414705   201160 107760    ZL...pG.ZL...pG.
   1     054   132115 414647   201160 107760   132124 414635   201160 107760    ZM...pG.ZT...pG.
   1     060   130314 400747   201160 107760   132123 414657   201160 107760    X....pG.ZS...pG.
   1     064   132123 400765   201160 107760   130317 414717   201160 107760    ZS...pG.X....pG.
   1     070   132106 414727   201160 107760   132502 401055   201160 107760    ZF...pG.Z..-.pG.
   1     074   132522 400776   201160 107760   132115 401025   201160 107760    Z....pG.ZM...pG.
   1     100   132114 401047   201160 107760   130317 414735   201160 107760    ZL.'.pG.X....pG.
   1     104   130317 414745   201160 107760   132125 414755   201160 107760    X....pG.ZU...pG.
        1        1        /*M* KQ_SCR_D SCREECHes for COMGROUP QUEUE */
        2        2        /*T***********************************************************/
        3        3        /*T*                                                         */
        4        4        /*T* Copyright (c) Bull HN Information Systems Inc., 1997    */
        5        5        /*T*                                                         */
        6        6        /*T***********************************************************/
        7        7        /*X* DMC,PLM=4,IND=0,SDI=2,CTI=0,ENU=0,AND,DCI=4,CSU=2,ECU=4,THI=0,DTI=2 */
        8        8        /**/
        9        9        /**/
       10       10        KQ_SCR_D: PROC NOAUTO;
       11       11        /**/
       12       12        /**/
       13       13        /**/
       14       14        /**/
       15       15        %INCLUDE JS_CP6;
       16      433        %INCLUDE K_SCODE_C;
PL6.E3A0      #001=KQ_SCR_D File=KQ_SCR_D.:E05TSI                                WED 07/30/97 01:40 Page:9
       17      518        /**/
       18      519        /**/
       19      520        /**/
       20      521        %VLP_SUA (FPTN=SC_BCGPRL,CODE=%S$BCGPRL,STCLASS=CONSTANT SYMDEF,
       21      522                   MON='1'B,FCG=KQ,MID=M,SEV=SEV_SCREECH,
       22      523                   CFUS=YES,LDCTS=YES,CWSPT=YES);
       23      593        %VLP_SUA (FPTN=SC_BCGBAP,CODE=%S$BCGBAP,STCLASS=CONSTANT SYMDEF,
       24      594                   MON='1'B,FCG=KQ,MID=M,SEV=SEV_SCREECH,
       25      595                   CFUS=YES,LDCTS=YES,CWSPT=YES);
       26      665        %VLP_SUA (FPTN=SC_BCGQRL,CODE=%S$BCGQRL,STCLASS=CONSTANT SYMDEF,
       27      666                   MON='1'B,FCG=KQ,MID=M,SEV=SEV_SCREECH,
       28      667                   CFUS=YES,LDCTS=YES,CWSPT=YES);
       29      737        %VLP_SUA (FPTN=SC_CGBLTB,CODE=%S$CGBLTB,STCLASS=CONSTANT SYMDEF,
       30      738                   MON='1'B,FCG=KQ,MID=M,SEV=SEV_SCREECH,
       31      739                   CFUS=YES,LDCTS=YES,CWSPT=YES);
       32      809        %VLP_SUA (FPTN=SC_CGCANZ,CODE=%S$CGCANZ,STCLASS=CONSTANT SYMDEF,
       33      810                   MON='1'B,FCG=KQ,MID=Q,SEV=SEV_SNAP,
       34      811                   CFUS=YES,LDCTS=YES,CWSPT=YES);
       35      881        %VLP_SUA (FPTN=SC_CGCRCT,CODE=%S$CGCRCT,STCLASS=CONSTANT SYMDEF,
       36      882                   MON='1'B,FCG=KQ,MID=T,SEV=SEV_SNAP,
       37      883                   CFUS=YES,LDCTS=YES,CWSPT=YES);
       38      953        %VLP_SUA (FPTN=SC_CGNOTIMP,CODE=%S$CGNOTIMP,STCLASS=CONSTANT SYMDEF,
       39      954                   MON='1'B,FCG=KQ,MID=M,SEV=SEV_SCREECH,
       40      955                   CFUS=YES,LDCTS=YES,CWSPT=YES);
       41     1025        %VLP_SUA (FPTN=SC_BCGIOF,CODE=%S$BCGIOF,STCLASS=CONSTANT SYMDEF,
       42     1026                   MON='1'B,FCG=KQ,MID=R,SEV=SEV_SCREECH,
       43     1027                   CFUS=YES,LDCTS=YES,CWSPT=YES);
       44     1097        %VLP_SUA (FPTN=SC_BCGRBS,CODE=%S$BCGRBS,STCLASS=CONSTANT SYMDEF,
       45     1098                   MON='1'B,FCG=KQ,MID=R,SEV=SEV_SCREECH,
       46     1099                   CFUS=YES,LDCTS=YES,CWSPT=YES);
       47     1169        %VLP_SUA (FPTN=SC_DCGBRL,CODE=%S$DCGBRL,STCLASS=CONSTANT SYMDEF,
       48     1170                   MON='1'B,FCG=KQ,MID=M,SEV=SEV_SCREECH,
       49     1171                   CFUS=YES,LDCTS=YES,CWSPT=YES);
       50     1241        %VLP_SUA (FPTN=SC_CGLRKL,CODE=%S$CGLRKL,STCLASS=CONSTANT SYMDEF,
       51     1242                   MON='1'B,FCG=KQ,MID=U,SEV=SEV_SCREECH,
       52     1243                   CFUS=YES,LDCTS=YES,CWSPT=YES);
       53     1313        %VLP_SUA (FPTN=SC_CGCALZ,CODE=%S$CGCALZ,STCLASS=CONSTANT SYMDEF,
PL6.E3A0      #001=KQ_SCR_D File=KQ_SCR_D.:E05TSI                                WED 07/30/97 01:40 Page:10
       54     1314                   MON='1'B,FCG=KQ,MID=U,SEV=SEV_SCREECH,
       55     1315                   CFUS=YES,LDCTS=YES,CWSPT=YES);
       56     1385        %VLP_SUA (FPTN=SC_BCGPUT,CODE=%S$BCGPUT,STCLASS=CONSTANT SYMDEF,
       57     1386                   MON='1'B,FCG=KQ,MID=P,SEV=SEV_SCREECH,
       58     1387                   CFUS=YES,LDCTS=YES,CWSPT=YES);
       59     1457        %VLP_SUA (FPTN=SC_CGCACHE,CODE=%S$CGCACHE,STCLASS=CONSTANT SYMDEF,
       60     1458                   MON='1'B,FCG=KQ,MID=D,SEV=SEV_SNAP,
       61     1459                   CFUS=YES,LDCTS=YES,CWSPT=YES);
       62     1529        %VLP_SUA (FPTN=SC_CGCACHESCR,CODE=%S$CGCACHESCR,STCLASS=CONSTANT SYMDEF,
       63     1530                   MON='1'B,FCG=KQ,MID=D,SEV=SEV_SCREECH,
       64     1531                   CFUS=YES,LDCTS=YES,CWSPT=YES);
       65     1601        %VLP_SUA (FPTN=SC_CGKQE,CODE=%S$CGKQE,STCLASS=CONSTANT SYMDEF,
       66     1602                   MON='1'B,FCG=KQ,MID=E,SEV=SEV_SCREECH,
       67     1603                   CFUS=YES,LDCTS=YES,CWSPT=YES);
       68     1673        %VLP_SUA (FPTN=SC_BCGPSC,CODE=%S$BCGPSC,STCLASS=CONSTANT SYMDEF,
       69     1674                   MON='1'B,FCG=KQ,MID=P,SEV=SEV_SCREECH,
       70     1675                   LRM=YES,CFUS=YES,LDCTS=YES,CWSPT=YES);
       71     1745        %VLP_SUA (FPTN=SC_BCGGET,CODE=%S$BCGGET,STCLASS=CONSTANT SYMDEF,
       72     1746                   MON='1'B,FCG=KQ,MID=G,SEV=SEV_SNAP,
       73     1747                   CFUS=YES,LDCTS=YES,CWSPT=YES);
       74     1817        %VLP_SUA (FPTN=SC_BCGMMQ,CODE=%S$BCGMMQ,STCLASS=CONSTANT SYMDEF,
       75     1818                   MON='1'B,FCG=KQ,MID=M,SEV=SEV_SCREECH,
       76     1819                   CFUS=YES,LDCTS=YES,CWSPT=YES);
       77     1889        %VLP_SUA (FPTN=SC_CGAUERR,CODE=%S$CGAUERR,STCLASS=CONSTANT SYMDEF,
       78     1890                   MON='1'B,FCG=KC,MID=A,SEV=SEV_SCREECH,
       79     1891                   CFUS=YES,LDCTS=YES,CWSPT=YES);
       80     1961        %VLP_SUA (FPTN=SC_CGSUPR,CODE=%S$CGSUPR,STCLASS=CONSTANT SYMDEF,
       81     1962                   MON='1'B,FCG=KQ,MID=L,SEV=SEV_SCREECH,
       82     1963                   CFUS=YES,LDCTS=YES,CWSPT=YES);
       83     2033        %VLP_SUA (FPTN=SC_CGSUSN,CODE=%S$CGSUSN,STCLASS=CONSTANT SYMDEF,
       84     2034                   MON='1'B,FCG=KQ,MID=L,SEV=SEV_SNAP,
       85     2035                   CFUS=YES,LDCTS=YES,CWSPT=YES);
       86     2105        %VLP_SUA (FPTN=SC_BCGMRQ,CODE=%S$BCGMRQ,STCLASS=CONSTANT SYMDEF,
       87     2106                   MON='1'B,FCG=KQ,MID=M,SEV=SEV_SCREECH,
       88     2107                   CFUS=YES,LDCTS=YES,CWSPT=YES);
       89     2177        %VLP_SUA (FPTN=SC_BCGXRL,CODE=%S$BCGXRL,STCLASS=CONSTANT SYMDEF,
       90     2178                   MON='1'B,FCG=KQ,MID=T,SEV=SEV_SNAP,
PL6.E3A0      #001=KQ_SCR_D File=KQ_SCR_D.:E05TSI                                WED 07/30/97 01:40 Page:11
       91     2179                   CFUS=YES,LDCTS=YES,CWSPT=YES);
       92     2249        %VLP_SUA (FPTN=SC_MONCON,CODE=%S$MONCON,STCLASS=CONSTANT SYMDEF,
       93     2250                   MON='1'B,FCG=KC,MID=L,SEV=SEV_SCREECH,
       94     2251                   CFUS=YES,LDCTS=YES,CWSPT=YES);
       95     2321        %VLP_SUA (FPTN=SC_CGGARB,CODE=%S$CGGARB,STCLASS=CONSTANT SYMDEF,
       96     2322                   MON='1'B,FCG=KQ,MID=S,SEV=SEV_SCREECH,
       97     2323                   CFUS=YES,LDCTS=YES,CWSPT=YES);
       98     2393        %VLP_SUA (FPTN=SC_CGGBSN,CODE=%S$CGGBSN,STCLASS=CONSTANT SYMDEF,
       99     2394                   MON='1'B,FCG=KQ,MID=S,SEV=SEV_SNAP,
      100     2395                   CFUS=YES,LDCTS=YES,CWSPT=YES);
      101     2465        %VLP_SUA (FPTN=SC_BCGDSC,CODE=%S$BCGDSC,STCLASS=CONSTANT SYMDEF,
      102     2466                   MON='1'B,FCG=KC,MID=O,SEV=SEV_SCREECH,
      103     2467                   CFUS=YES,LDCTS=YES,CWSPT=YES);
      104     2537        %VLP_SUA (FPTN=SC_CGFWST,CODE=%S$CGFWST,STCLASS=CONSTANT SYMDEF,
      105     2538                   MON='1'B,FCG=KQ,MID=F,SEV=SEV_SCREECH,
      106     2539                   CFUS=YES,LDCTS=YES,CWSPT=YES);
      107     2609        %VLP_SUA (FPTN=SC_BABOON,CODE=%S$BABOON,STCLASS=CONSTANT SYMDEF,
      108     2610                   MON='1'B,FCG=KU,MID=B,SEV=SEV_SNAP,
      109     2611                   CFUS=YES,LDCTS=YES,CWSPT=YES);
      110     2681        %VLP_SUA (FPTN=SC_RESUS,CODE=%S$RESUS,STCLASS=CONSTANT SYMDEF,
      111     2682                   MON='1'B,FCG=KU,MID=R,SEV=SEV_SUA,
      112     2683                   CFUS=YES,LDCTS=YES,CWSPT=YES);
      113     2753        %VLP_SUA (FPTN=SC_BCGMRQS,CODE=%S$BCGMRQS,STCLASS=CONSTANT SYMDEF,
      114     2754                   MON='1'B,FCG=KQ,MID=M,SEV=SEV_SNAP,
      115     2755                   CFUS=YES,LDCTS=YES,CWSPT=YES);
      116     2825        %VLP_SUA (FPTN=SC_BCGRRC,CODE=%S$BCGRRC,STCLASS=CONSTANT SYMDEF,
      117     2826                   MON='1'B,FCG=KQ,MID=L,SEV=SEV_SCREECH,
      118     2827                   CFUS=YES,LDCTS=YES,CWSPT=YES);
      119     2897        %VLP_SUA (FPTN=SC_CGREOPEN,CODE=%S$CGREOPEN,STCLASS=CONSTANT SYMDEF,
      120     2898                   MON='1'B,FCG=KC,MID=O,SEV=SEV_SNAP,
      121     2899                   CFUS=YES,LDCTS=YES,CWSPT=YES);
      122     2969        %VLP_SUA (FPTN=SC_CGNOMBLK,CODE=%S$CGNOMBLK,STCLASS=CONSTANT SYMDEF,
      123     2970                   MON='1'B,FCG=KC,MID=O,SEV=SEV_SNAP,
      124     2971                   CFUS=YES,LDCTS=YES,CWSPT=YES);
      125     3041        %VLP_SUA (FPTN=SC_CGBADRBLK,CODE=%S$CGBADRBLK,STCLASS=CONSTANT SYMDEF,
      126     3042                   MON='1'B,FCG=KQ,MID=U,SEV=SEV_SNAP,
      127     3043                   CFUS=YES,LDCTS=YES,CWSPT=YES);
PL6.E3A0      #001=KQ_SCR_D File=KQ_SCR_D.:E05TSI                                WED 07/30/97 01:40 Page:12
      128     3113    1   END KQ_SCR_D;

PL6.E3A0      #001=KQ_SCR_D File=KQ_SCR_D.:E05TSI                                WED 07/30/97 01:40 Page:13
--  Include file information  --

   K_SCODE_C.:E05TOU  is referenced.
   JS_CP6.:E05TOU  is referenced.
      No diagnostics issued in procedure KQ_SCR_D.
PL6.E3A0      #001=KQ_SCR_D File=KQ_SCR_D.:E05TSI                                WED 07/30/97 01:40 Page:14

 **** Variables and constants ****


   No code generated for procedure KQ_SCR_D .
   Procedure KQ_SCR_D is declared NOAUTO and requires 2 words of local(STATIC) storage.

    No errors detected in file KQ_SCR_D.:E05TSI    .
PL6.E3A0      #001=KQ_SCR_D File=KQ_SCR_D.:E05TSI                                WED 07/30/97 01:40 Page:15
          *** CROSS REFERENCE LISTING ***
**     DENOTES     IDENTIFIER DEFINITION
<<                 IDENTIFIER'S VALUE SET
>>                 IDENTIFIER'S VALUE USED
<>                 IDENTIFIER SET AND/OR USED
--                 IDENTIFIER REFERENCED
PL6.E3A0      #001=KQ_SCR_D File=KQ_SCR_D.:E05TSI                                WED 07/30/97 01:40 Page:16
          MINI XREF LISTING

