VERSION E05

PL6.E3A0      #001=KSC$COMMANDS File=KSC$COMMANDS1.:E05TSI                       WED 07/30/97 01:41 Page:1
        1        1        /*M* KSC$COMMANDS - COMMAND DRIVER FOR NETCON */
        2        2        /*T***********************************************************/
        3        3        /*T*                                                         */
        4        4        /*T* Copyright (c) Bull HN Information Systems Inc., 1997    */
        5        5        /*T*                                                         */
        6        6        /*T***********************************************************/
        7        7        /*X*/
        8        8        KSC$COMMANDS: PROC(TOP$);
        9        9        /* INCLUDE FILES */
       10       10        %INCLUDE CP_6;
       11       91        %INCLUDE XU_MACRO_C;
       12     3197        %INCLUDE B_ERRORS_C;
       13     4324        %INCLUDE F$DCB;
       14     4373        %INCLUDE B$JIT;
       15     4663        %INCLUDE KL_CONFIG_M;
       16     5425        %INCLUDE KL_MACRO_C;
       17     8777        %INCLUDE KS_MACRO_M;
       18     8974        %INCLUDE KS_SUBS_C;
       19     9217        %INCLUDE KS_DATA_R;
       20     9232        %INCLUDE KS_PERR_C;
       21     9299        %KS$BOX(TITLE="parameters",SPACEVALUE=2,PAGE=NO);

              9317    1   /***************************************************************************
              9318    1    *                                                                         *
              9319    1    *                                 parameters                              *
              9320    1    *                                                                         *
              9321    1    ***************************************************************************/

       22     9326    1   DCL TOP$ PTR;
       23     9327        %KS$BOX(TITLE="entry defs");

              9345    1   /***************************************************************************
              9346    1    *                                                                         *
              9347    1    *                                 entry defs                              *
              9348    1    *                                                                         *
PL6.E3A0      #001=KSC$COMMANDS File=KSC$COMMANDS1.:E05TSI                       WED 07/30/97 01:41 Page:2
              9349    1    ***************************************************************************/

       24     9354    1   DCL KSC$SET ENTRY(1) ALTRET;
       25     9355    1   DCL KSC$DISPLAY ENTRY(1) ALTRET;
       26     9356    1   DCL KSC$DELETE ENTRY(1) ALTRET;
       27     9357    1   DCL KSC$DEFINE ENTRY(1) ALTRET;
       28     9358    1   DCL KSE$ERRMSG ENTRY(4);
       29     9359    1   DCL KSC$LINCNFG ENTRY(1);
       30     9360    1   DCL KSC$PART ENTRY(1);
       31     9361    1   DCL KFF$FEBOOT ENTRY(4) ALTRET;
       32     9362    1   DCL KSC$UPDATE ENTRY(1) ALTRET;
       33     9363    1   DCL KFF$STARTHANDLERS ENTRY(1) ALTRET;
       34     9364        %KS$BOX(TITLE="symref");

              9382    1   /***************************************************************************
              9383    1    *                                                                         *
              9384    1    *                                   symref                                *
              9385    1    *                                                                         *
              9386    1    ***************************************************************************/

       35     9391        %KL$NETWORK (NAME=KS_NETWORK,NUM=255,STCLASS=SYMREF);
       36     9418        %FPT_FECTL (FPTN=FPT_FEBOOT,STCLASS=SYMREF);
       37     9433        %KS$BOX(TITLE="static");

              9451    1   /***************************************************************************
              9452    1    *                                                                         *
              9453    1    *                                   static                                *
              9454    1    *                                                                         *
              9455    1    ***************************************************************************/

       38     9460    1   DCL 1 PROMPT  SYMREF,
       39     9461    1       2 NODENAME CHAR(8),
       40     9462    1       2 STAR CHAR(2);
       41     9463        %FPT_READ (FPTN=READ_NETWORK,KEYS=YES,DCB=M$NETCON,KEY=KS_NETWORK_KEY,BUF=KS_NETWORK
              9463            );
       42     9502        %KL$NETWORK_KEY (NAME=KS_NETWORK_KEY,STCLASS=STATIC);
       43     9519        %KS$BOX(TITLE="based");
PL6.E3A0      #001=KSC$COMMANDS File=KSC$COMMANDS1.:E05TSI                       WED 07/30/97 01:41 Page:3

              9537    1   /***************************************************************************
              9538    1    *                                                                         *
              9539    1    *                                   based                                 *
              9540    1    *                                                                         *
              9541    1    ***************************************************************************/

       44     9546        %PARSE$OUT (NAME=OUT$BLK,STCLASS="BASED(TOP$)");
       45     9591        %PARSE$SYM(NAME=OUT$SYM,STCLASS="BASED(TOP$)");
       46     9629        %KS$BOX(TITLE="auto variables");

              9647    1   /***************************************************************************
              9648    1    *                                                                         *
              9649    1    *                               auto variables                            *
              9650    1    *                                                                         *
              9651    1    ***************************************************************************/

       47     9656    1   DCL B$JIT$ PTR SYMREF;
       48     9657    1   DCL CODE UBIN;
       49     9658    1   DCL I UBIN;
       50     9659    1   DCL FEX UBIN;
       51     9660    1   DCL FEPNAME CHAR(8);
       52     9661    1   DCL FEPNODE SBIN;
       53     9662    1   DCL M$NETCON DCB;
       54     9663    1   DCL TEMP UBIN WORD;
       55     9664    1   DCL TEMPNAME CHAR(8);
       56     9665    2        DO CASE(OUT$BLK.CODE);
       57     9666    2           CASE(0);  /* MULTIPLE COMMANDS */
       58     9667    3              DO I = 0 TO OUT$BLK.NSUBLKS - 1;
       59     9668    3                 CALL KSC$COMMANDS(OUT$BLK.SUBLK$(I));
       60     9669    3                 END;  /* DO I */
       61     9670    2           CASE(%KS_SELECT);
       62     9671    3              DO I = 0 TO OUT$BLK.NSUBLKS - 1;
       63     9672    4              DO CASE(OUT$BLK.SUBLK$(I)->OUT$BLK.CODE);
       64     9673    4                 CASE(%KS_NODE);
       65     9674    4                 CALL GET_NODE(OUT$BLK.SUBLK$(I)->OUT$BLK.SUBLK$(0));
       66     9675    4                 KS_NODENAME = FEPNAME;
PL6.E3A0      #001=KSC$COMMANDS File=KSC$COMMANDS1.:E05TSI                       WED 07/30/97 01:41 Page:4
       67     9676    4                 KS_NODE = FEPNODE;
       68     9677    4                 PROMPT.NODENAME = KS_NODENAME;
       69     9678    4                 CASE(%KS_HANDLER);
       70     9679    4                    KS_HNDLRINDX = OUT$BLK.SUBLK$(I)->OUT$BLK.SUBLK$(0)->OUT$BLK.CODE;
       71     9680    4                    CODE = OUT$BLK.SUBLK$(I)->OUT$BLK.SUBLK$(0)->OUT$BLK.CODE;
       72     9681    5                    DO CASE (CODE);
       73     9682    5                       CASE ( %KS_HAND_NODEADMIN );
       74     9683    5                          KS_HNDLRNAME = 'NODEADMN';
       75     9684    5                       CASE ( %KS_HAND_COUPLER ) ;
       76     9685    5                          KS_HNDLRNAME = 'COUPLER';
       77     9686    5                       CASE ( %KS_HAND_ASYNC );
       78     9687    5                          KS_HNDLRNAME = 'ASYNC';
       79     9688    5                       CASE ( %KS_HAND_BISYNC );
       80     9689    5                          KS_HNDLRNAME = 'BISYNC';
       81     9690    5                       CASE ( %KS_HAND_UNITREC );
       82     9691    5                          KS_HNDLRNAME = 'UNITREC';
       83     9692    5                       CASE ( %KS_HAND_HDLCX25 );
       84     9693    5                          KS_HNDLRNAME = 'HDLCX25';
       85     9694    5                       CASE ( ELSE );
       86     9695    5                          KS_HNDLRNAME = OUT$BLK.SUBLK$(I)->OUT$BLK.SUBLK$(0)->OUT$SYM.
              9695                                   TEXT;
       87     9696    5                    END;   /* case on handler name  */
       88     9697    4                 CASE(%KS_PARAMOPTS);
       89     9698    4                    KS_SELPRMOPT = OUT$BLK.SUBLK$(I)->OUT$BLK.SUBLK$(0)->OUT$SYM.CODE;
       90     9699    4                 END;  /* DO CASE */
       91     9700    3              END;
       92     9701    2           CASE(%KS_SET);
       93     9702    2              CALL KSC$SET(TOP$);
       94     9703    2              UNWIND TO KS_ERR_RETURN;   /* multiple commands not allowed
       95     9704                                                 on set command */
       96     9705    2           CASE(%KS_DISPLAY);
       97     9706    2              CALL KSC$DISPLAY(TOP$);
       98     9707    2           CASE(%KS_DEFINE);
       99     9708    2              CALL KSC$DEFINE(OUT$BLK.SUBLK$(0));
      100     9709    2           CASE(%KS_BOOT);
      101     9710    2              CALL GET_NODE(OUT$BLK.SUBLK$(0)->OUT$BLK.SUBLK$(0)) ALTRET(ERR);
      102     9711    2              FPT_FEBOOT.V.NOTIME# = '0'B;
PL6.E3A0      #001=KSC$COMMANDS File=KSC$COMMANDS1.:E05TSI                       WED 07/30/97 01:41 Page:5
      103     9712    2              CALL KFF$FEBOOT(FEPNODE);
      104     9713
      105     9714    2           CASE(%KS_STARTHANDLERS);
      106     9715    2              FEPNODE = KS_NODE;
      107     9716    2              CALL KFF$STARTHANDLERS(FEPNODE);
      108     9717    2            CASE(%KS_BOOT_NOTIME);
      109     9718    2              CALL GET_NODE(OUT$BLK.SUBLK$(0)->OUT$BLK.SUBLK$(0)) ALTRET(ERR);
      110     9719    2              FPT_FEBOOT.V.NOTIME# = '1'B;
      111     9720    2              CALL KFF$FEBOOT(FEPNODE);
      112     9721    2           CASE(%KS_LINCNFG);
      113     9722    2              IF OUT$BLK.SUBLK$(0)->OUT$BLK.SUBLK$(0)->OUT$BLK.CODE = %KS_NODE THEN
      114     9723    3                 DO;
      115     9724    3                 CALL GET_NODE (OUT$BLK.SUBLK$(0)->OUT$BLK.SUBLK$(0)->OUT$BLK.SUBLK$(0)
              9724                          );
      116     9725    3                 KS_NODE_SV = KS_NODE;
      117     9726    3                 KS_NODENAME_SV = KS_NODENAME;
      118     9727    3                 KS_NODE = FEPNODE;
      119     9728    3                 KS_NODENAME = FEPNAME;
      120     9729    3                 END;
      121     9730    2              CALL KSC$LINCNFG(OUT$BLK.SUBLK$(0));
      122     9731    2           CASE(%KS_PART);
      123     9732    2              IF OUT$BLK.SUBLK$(0)->OUT$BLK.CODE = %KS_NODE THEN
      124     9733    3                 DO;
      125     9734    3                 CALL GET_NODE (OUT$BLK.SUBLK$(0)->OUT$BLK.SUBLK$(0));
      126     9735    3                 KS_NODE_SV = KS_NODE;
      127     9736    3                 KS_NODENAME_SV = KS_NODENAME;
      128     9737    3                 KS_NODE = FEPNODE;
      129     9738    3                 KS_NODENAME = FEPNAME;
      130     9739    3                 CALL KSC$PART(TOP$);
      131     9740    3                 END;
      132     9741    2              ELSE
      133     9742    2                 CALL KSC$PART(TOP$);
      134     9743    2           CASE(%KS_RET);
      135     9744    2              IF OUT$BLK.SUBLK$(0)->OUT$BLK.CODE = %KS_NODE THEN
      136     9745    3                 DO;
      137     9746    3                 CALL GET_NODE (OUT$BLK.SUBLK$(0)->OUT$BLK.SUBLK$(0));
      138     9747    3                 KS_NODE_SV = KS_NODE;
PL6.E3A0      #001=KSC$COMMANDS File=KSC$COMMANDS1.:E05TSI                       WED 07/30/97 01:41 Page:6
      139     9748    3                 KS_NODENAME_SV = KS_NODENAME;
      140     9749    3                 KS_NODE = FEPNODE;
      141     9750    3                 KS_NODENAME = FEPNAME;
      142     9751    3                 CALL KSC$PART(TOP$);
      143     9752    3                 END;
      144     9753    2              ELSE
      145     9754    2                 CALL KSC$PART(TOP$);
      146     9755    2           CASE(%KS_DELETE);
      147     9756    2              CALL KSC$DELETE(OUT$BLK.SUBLK$(0));
      148     9757    2           CASE(%KS_UPDATE);
      149     9758    2              CALL KSC$UPDATE(TOP$);
      150     9759    2           CASE(%KS_END);
      151     9760    2              KS_END_FLG = '1'B;
      152     9761    2           CASE(%KS_NULL);
      153     9762    2           END;  /* DO CASE */
      154     9763    1        IF KS_NODENAME_SV ~= ' '
      155     9764    2           THEN DO;
      156     9765    2              KS_NODENAME = KS_NODENAME_SV;
      157     9766    2              KS_NODE = KS_NODE_SV;
      158     9767    2              KS_NODENAME_SV = ' ';
      159     9768    2              END;
      160     9769    1   ERR:;
      161     9770    1        RETURN;
      162     9771        %EJECT;
PL6.E3A0      #001=KSC$COMMANDS File=KSC$COMMANDS1.:E05TSI                       WED 07/30/97 01:41 Page:7
      163     9772    1   GET_NODE: PROC(PTR$) ALTRET;
      164     9773    2           DCL PTR$ PTR;
      165     9774
      166     9775    2           CALL M$READ(READ_NETWORK);
      167     9776
      168     9777    3           DO CASE(PTR$->OUT$BLK.CODE);
      169     9778
      170     9779    3            CASE (%KS_TEXTVAL);
      171     9780    3              FEPNAME = PTR$->OUT$SYM.TEXT;
      172     9781    3              FEPNODE = -1;
      173     9782    4              DO I = 0 TO KS_NETWORK.NODE#;
      174     9783    4                 IF FEPNAME = KS_NETWORK.NODE.NODE(I)
      175     9784    4                 THEN
      176     9785    4                    FEPNODE = I;
      177     9786    4                 END;
      178     9787
      179     9788    3            CASE (%KS_DECVAL);
      180     9789    3              CALL CHARBIN(FEPNODE,PTR$->OUT$SYM.TEXT);
      181     9790    3              IF FEPNODE <= KS_NETWORK.NODE#
      182     9791    3              THEN
      183     9792    3                 FEPNAME = KS_NETWORK.NODE.NODE(FEPNODE);
      184     9793
      185     9794    3            END;
      186     9795    2           IF FEPNODE = -1 OR FEPNODE > KS_NETWORK.NODE# OR
      187     9796    2              FEPNAME = ' ' THEN
      188     9797    3              DO;
      189     9798    3              FEPNAME = KS_NODENAME;
      190     9799    3              FEPNODE = KS_NODE;
      191     9800    3              CALL KSE$ERRMSG(%E$KS_BAD_SELECT);
      192     9801                      /*E* ERROR: KSN-E$KS_BAD_SELECT-0
      193     9802                           MESSAGE: Illegal node selected.
      194     9803                           MESSAGE1: The node selected is not valid, use
      195     9804                                     the DI NETWORK commands to see currently
      196     9805                                     defined network, or use the DEFINE command
      197     9806                                     to define a new node
      198     9807                          DESCRIPTION: SEE MESSAGE*/
      199     9808    3              ALTRETURN;
PL6.E3A0      #001=KSC$COMMANDS File=KSC$COMMANDS1.:E05TSI                       WED 07/30/97 01:41 Page:8
      200     9809    3              END;
      201     9810
      202     9811    2           RETURN;
      203     9812
      204     9813    2   END GET_NODE;
      205     9814    1   END KSC$COMMANDS;
      206     9815        %EOD;

PL6.E3A0      #001=KSC$COMMANDS File=KSC$COMMANDS1.:E05TSI                       WED 07/30/97 01:41 Page:9
--  Include file information  --

   KS_PERR_C.:E05TOU  is referenced.
   KS_DATA_R.:E05TOU  cannot be made into a system file and is referenced.
   KS_SUBS_C.:E05TOU  is referenced.
   KS_MACRO_M.:E05TOU  is referenced.
   KL_MACRO_C.:E05TOU  is referenced.
   KL_CONFIG_M.:E05TOU  is referenced.
   B$JIT.:E05TOU  cannot be made into a system file and is referenced.
   F$DCB.:E05TOU  cannot be made into a system file and is referenced.
   B_ERRORS_C.:E05TOU  is referenced.
   XU_MACRO_C.:E05TOU  is referenced.
   CP_6.:E05TOU  cannot be made into a system file and is referenced.
   B$JIT_C.:E05TOU  was found in the system file and is referenced.
   CP_6_C.:E05TOU  was found in the system file and is referenced.
      No diagnostics issued in procedure KSC$COMMANDS.

   Procedure KSC$COMMANDS requires 387 words for executable code.
   Procedure KSC$COMMANDS requires 18 words of local(AUTO) storage.

PL6.E3A0      #001=KSC$COMMANDS File=KSC$COMMANDS1.:E05TSI                       WED 07/30/97 01:41 Page:10

 Object Unit name= KSC$COMMANDS                               File name= KSC$COMMANDS1.:E05TOU
 UTS= JUL 30 '97 01:41:43.00 WED                              Compiler= PL-6/E31         Sev=      00
 SharedLib= :SHARED_SYSTEM                                    Alt SharedLib=


    ****  Control sections  ****

 Sect   Type Bound  Init  Size OctSiz  Section name(segment info)
    0   DCB   even  none     0      0  M$UC
    1   Data  even  none    15     17  KSC$COMMANDS
    2   DCB   even  none     0      0  M$NETCON
    3  RoData even  UTS     12     14  KSC$COMMANDS
    4   Proc  even  none   387    603  KSC$COMMANDS
    5  RoData even  none     3      3  KSC$COMMANDS

    ****  Entry defs  ****

                              Check   Calling
                             calling  sequence
  Sect OctLoc Primary Altret sequence   type   Parms  Name
     4      0   yes            yes      Std        1  KSC$COMMANDS
PL6.E3A0      #001=KSC$COMMANDS File=KSC$COMMANDS1.:E05TSI                       WED 07/30/97 01:41 Page:11

  ****  Entry refs  ****

         Check        Calling
        calling       sequence
Altret sequence SRef   type   Args  Name
 yes     yes           Std       1 KSC$SET
 yes     yes           Std       1 KFF$STARTHANDLERS
 yes     yes           Std       1 KSC$DISPLAY
 yes     yes           Std       1 KSC$DEFINE
         yes           Std       1 KSC$PART
 yes     yes           Std       1 KSC$UPDATE
 yes     yes           Std       4 KFF$FEBOOT
         yes           Std       1 KSC$LINCNFG
 yes     yes           Std       1 KSC$DELETE
         yes           Std       4 KSE$ERRMSG
                       nStd      0 X66_AUTO_1
                       Std       0 B_CONSPOOL_D
                       nStd      0 X66_AUNWIND
                       nStd      0 X66_ARET

  ****  Data refs  ****

  Flags:  r = read only, s = secondary
Flgs Name                             Flgs Name                             Flgs Name
     M$UC                                  KS_MYSTATION                          KS_NODENAME
     KS_SELPRMOPT                          KS_NODE                               KS_NODENAME_SV
     KS_NODE_SV                            KS_HNDLRNAME                          KS_HNDLRINDX
     KS_END_FLG                            KS_ERR_RETURN                         KS_MSGBUF$
     KS_NETWORK                            FPT_FEBOOT                            PROMPT
     B$JIT$                                M$NETCON                              B_VECTNIL

  ****  Segment refs  ****

  Flags:  r = read only, s = secondary
Flgs Name                             Flgs Name                             Flgs Name
     ISSID                                 NULLSID
PL6.E3A0      #001=KSC$COMMANDS File=KSC$COMMANDS1.:E05TSI                       WED 07/30/97 01:41 Page:12


        1        1        /*M* KSC$COMMANDS - COMMAND DRIVER FOR NETCON */
        2        2        /*T***********************************************************/
        3        3        /*T*                                                         */
        4        4        /*T* Copyright (c) Bull HN Information Systems Inc., 1997    */
        5        5        /*T*                                                         */
        6        6        /*T***********************************************************/
        7        7        /*X*/
        8        8        KSC$COMMANDS: PROC(TOP$);

      8  4 000000   000000 700200 xent  KSC$COMMANDS TSX0  ! X66_AUTO_1
         4 000001   000022 000001                    ZERO    18,1

        9        9        /* INCLUDE FILES */
       10       10        %INCLUDE CP_6;
       11       91        %INCLUDE XU_MACRO_C;
       12     3197        %INCLUDE B_ERRORS_C;
       13     4324        %INCLUDE F$DCB;
       14     4373        %INCLUDE B$JIT;
       15     4663        %INCLUDE KL_CONFIG_M;
       16     5425        %INCLUDE KL_MACRO_C;
       17     8777        %INCLUDE KS_MACRO_M;
       18     8974        %INCLUDE KS_SUBS_C;
       19     9217        %INCLUDE KS_DATA_R;
       20     9232        %INCLUDE KS_PERR_C;
       21     9299        %KS$BOX(TITLE="parameters",SPACEVALUE=2,PAGE=NO);

              9317    1   /***************************************************************************
              9318    1    *                                                                         *
              9319    1    *                                 parameters                              *
              9320    1    *                                                                         *
              9321    1    ***************************************************************************/

       22     9326    1   DCL TOP$ PTR;
       23     9327        %KS$BOX(TITLE="entry defs");
PL6.E3A0      #001=KSC$COMMANDS File=KSC$COMMANDS1.:E05TSI                       WED 07/30/97 01:41 Page:13

              9345    1   /***************************************************************************
              9346    1    *                                                                         *
              9347    1    *                                 entry defs                              *
              9348    1    *                                                                         *
              9349    1    ***************************************************************************/

       24     9354    1   DCL KSC$SET ENTRY(1) ALTRET;
       25     9355    1   DCL KSC$DISPLAY ENTRY(1) ALTRET;
       26     9356    1   DCL KSC$DELETE ENTRY(1) ALTRET;
       27     9357    1   DCL KSC$DEFINE ENTRY(1) ALTRET;
       28     9358    1   DCL KSE$ERRMSG ENTRY(4);
       29     9359    1   DCL KSC$LINCNFG ENTRY(1);
       30     9360    1   DCL KSC$PART ENTRY(1);
       31     9361    1   DCL KFF$FEBOOT ENTRY(4) ALTRET;
       32     9362    1   DCL KSC$UPDATE ENTRY(1) ALTRET;
       33     9363    1   DCL KFF$STARTHANDLERS ENTRY(1) ALTRET;
       34     9364        %KS$BOX(TITLE="symref");

              9382    1   /***************************************************************************
              9383    1    *                                                                         *
              9384    1    *                                   symref                                *
              9385    1    *                                                                         *
              9386    1    ***************************************************************************/

       35     9391        %KL$NETWORK (NAME=KS_NETWORK,NUM=255,STCLASS=SYMREF);
       36     9418        %FPT_FECTL (FPTN=FPT_FEBOOT,STCLASS=SYMREF);
       37     9433        %KS$BOX(TITLE="static");

              9451    1   /***************************************************************************
              9452    1    *                                                                         *
              9453    1    *                                   static                                *
              9454    1    *                                                                         *
              9455    1    ***************************************************************************/

       38     9460    1   DCL 1 PROMPT  SYMREF,
       39     9461    1       2 NODENAME CHAR(8),
PL6.E3A0      #001=KSC$COMMANDS File=KSC$COMMANDS1.:E05TSI                       WED 07/30/97 01:41 Page:14
       40     9462    1       2 STAR CHAR(2);
       41     9463       %FPT_READ (FPTN=READ_NETWORK,KEYS=YES,DCB=M$NETCON,KEY=KS_NETWORK_KEY,BUF=KS_NETWORK
              9463            );
       42     9502        %KL$NETWORK_KEY (NAME=KS_NETWORK_KEY,STCLASS=STATIC);
       43     9519        %KS$BOX(TITLE="based");

              9537    1   /***************************************************************************
              9538    1    *                                                                         *
              9539    1    *                                   based                                 *
              9540    1    *                                                                         *
              9541    1    ***************************************************************************/

       44     9546        %PARSE$OUT (NAME=OUT$BLK,STCLASS="BASED(TOP$)");
       45     9591        %PARSE$SYM(NAME=OUT$SYM,STCLASS="BASED(TOP$)");
       46     9629        %KS$BOX(TITLE="auto variables");

              9647    1   /***************************************************************************
              9648    1    *                                                                         *
              9649    1    *                               auto variables                            *
              9650    1    *                                                                         *
              9651    1    ***************************************************************************/

       47     9656    1   DCL B$JIT$ PTR SYMREF;
       48     9657    1   DCL CODE UBIN;
       49     9658    1   DCL I UBIN;
       50     9659    1   DCL FEX UBIN;
       51     9660    1   DCL FEPNAME CHAR(8);
       52     9661    1   DCL FEPNODE SBIN;
       53     9662    1   DCL M$NETCON DCB;
       54     9663    1   DCL TEMP UBIN WORD;
       55     9664    1   DCL TEMPNAME CHAR(8);
       56     9665    2        DO CASE(OUT$BLK.CODE);

   9665  4 000002   200003 470500                    LDP0    @TOP$,,AUTO
         4 000003   000000 471500                    LDP1    0,,PR0
         4 000004   100000 720100                    LXL0    0,,PR1
         4 000005   000021 100003                    CMPX0   17,DU
PL6.E3A0      #001=KSC$COMMANDS File=KSC$COMMANDS1.:E05TSI                       WED 07/30/97 01:41 Page:15
         4 000006   000010 602010 4                  TNC     s:9665+6,X0
         4 000007   000451 710000 4                  TRA     s:9763
         4 000010   000031 710000 4                  TRA     s:9667
         4 000011   000057 710000 4                  TRA     s:9671
         4 000012   000216 710000 4                  TRA     s:9702
         4 000013   000225 710000 4                  TRA     s:9706
         4 000014   000232 710000 4                  TRA     s:9708
         4 000015   000241 710000 4                  TRA     s:9710
         4 000016   000451 710000 4                  TRA     s:9763
         4 000017   000306 710000 4                  TRA     s:9722
         4 000020   000342 710000 4                  TRA     s:9732
         4 000021   000376 710000 4                  TRA     s:9744
         4 000022   000432 710000 4                  TRA     s:9756
         4 000023   000451 710000 4                  TRA     s:9763
         4 000024   000446 710000 4                  TRA     s:9760
         4 000025   000451 710000 4                  TRA     s:9763
         4 000026   000270 710000 4                  TRA     s:9718
         4 000027   000441 710000 4                  TRA     s:9758
         4 000030   000257 710000 4                  TRA     s:9715

       57     9666    2           CASE(0);  /* MULTIPLE COMMANDS */

       58     9667    3              DO I = 0 TO OUT$BLK.NSUBLKS - 1;

   9667  4 000031   200005 450100                    STZ     I,,AUTO
         4 000032   000047 710000 4                  TRA     s:9669+3

       59     9668    3                 CALL KSC$COMMANDS(OUT$BLK.SUBLK$(I));

   9668  4 000033   200003 470500                    LDP0    @TOP$,,AUTO
         4 000034   000000 471500                    LDP1    0,,PR0
         4 000035   200005 720100                    LXL0    I,,AUTO
         4 000036   100003 633510                    EPPR3   3,X0,PR1
         4 000037   200020 453500                    STP3    @PTR$+1,,AUTO
         4 000040   200020 630500                    EPPR0   @PTR$+1,,AUTO
         4 000041   000017 631400 xsym               EPPR1   B_VECTNIL+15
         4 000042   000000 701000 4                  TSX1    s:8
PL6.E3A0      #001=KSC$COMMANDS File=KSC$COMMANDS1.:E05TSI                       WED 07/30/97 01:41 Page:16
         4 000043   000000 011000                    NOP     0

       60     9669    3                 END;  /* DO I */

   9669  4 000044   200005 235100                    LDA     I,,AUTO
         4 000045   000001 035007                    ADLA    1,DL
         4 000046   200005 755100                    STA     I,,AUTO
         4 000047   200003 470500                    LDP0    @TOP$,,AUTO
         4 000050   000000 471500                    LDP1    0,,PR0
         4 000051   100001 236100                    LDQ     1,,PR1
         4 000052   000022 772000                    QRL     18
         4 000053   200005 116100                    CMPQ    I,,AUTO
         4 000054   000056 600000 4                  TZE     s:9669+10
         4 000055   000033 603000 4                  TRC     s:9668
         4 000056   000451 710000 4                  TRA     s:9763

       61     9670    2           CASE(%KS_SELECT);

       62     9671    3              DO I = 0 TO OUT$BLK.NSUBLKS - 1;

   9671  4 000057   200005 450100                    STZ     I,,AUTO
         4 000060   000206 710000 4                  TRA     s:9700+3

       63     9672    4              DO CASE(OUT$BLK.SUBLK$(I)->OUT$BLK.CODE);

   9672  4 000061   200003 470500                    LDP0    @TOP$,,AUTO
         4 000062   000000 471500                    LDP1    0,,PR0
         4 000063   200005 720100                    LXL0    I,,AUTO
         4 000064   100003 473510                    LDP3    3,X0,PR1
         4 000065   300000 721100                    LXL1    0,,PR3
         4 000066   000004 101003                    CMPX1   4,DU
         4 000067   000071 602011 4                  TNC     s:9672+8,X1
         4 000070   000203 710000 4                  TRA     s:9700
         4 000071   000203 710000 4                  TRA     s:9700
         4 000072   000075 710000 4                  TRA     s:9674
         4 000073   000112 710000 4                  TRA     s:9679
         4 000074   000176 710000 4                  TRA     s:9698
PL6.E3A0      #001=KSC$COMMANDS File=KSC$COMMANDS1.:E05TSI                       WED 07/30/97 01:41 Page:17

       64     9673    4                 CASE(%KS_NODE);

       65     9674    4                 CALL GET_NODE(OUT$BLK.SUBLK$(I)->OUT$BLK.SUBLK$(0));

   9674  4 000075   300003 634500                    EPPR4   3,,PR3
         4 000076   200017 454500                    STP4    FEPNODE+6,,AUTO
         4 000077   000467 701000 4                  TSX1    GET_NODE
         4 000100   000000 011000                    NOP     0

       66     9675    4                 KS_NODENAME = FEPNAME;

   9675  4 000101   040000 100500                    MLR     fill='040'O
         4 000102   200007 000010                    ADSC9   FEPNAME,,AUTO            cn=0,n=8
         4 000103   000000 000010 xsym               ADSC9   KS_NODENAME              cn=0,n=8

       67     9676    4                 KS_NODE = FEPNODE;

   9676  4 000104   200011 235100                    LDA     FEPNODE,,AUTO
         4 000105   000000 755000 xsym               STA     KS_NODE

       68     9677    4                 PROMPT.NODENAME = KS_NODENAME;

   9677  4 000106   040000 100400                    MLR     fill='040'O
         4 000107   000000 000010 xsym               ADSC9   KS_NODENAME              cn=0,n=8
         4 000110   000000 000010 xsym               ADSC9   PROMPT                   cn=0,n=8
         4 000111   000203 710000 4                  TRA     s:9700

       69     9678    4                 CASE(%KS_HANDLER);

       70     9679    4                    KS_HNDLRINDX = OUT$BLK.SUBLK$(I)->OUT$BLK.SUBLK$(0)->OUT$BLK.CODE;

   9679  4 000112   300003 474500                    LDP4    3,,PR3
         4 000113   400000 236100                    LDQ     0,,PR4
         4 000114   777777 376007                    ANQ     -1,DL
         4 000115   000033 736000                    QLS     27
         4 000116   000000 756000 xsym               STQ     KS_HNDLRINDX
PL6.E3A0      #001=KSC$COMMANDS File=KSC$COMMANDS1.:E05TSI                       WED 07/30/97 01:41 Page:18

       71     9680    4                    CODE = OUT$BLK.SUBLK$(I)->OUT$BLK.SUBLK$(0)->OUT$BLK.CODE;

   9680  4 000117   000000 471500                    LDP1    0,,PR0
         4 000120   100003 473510                    LDP3    3,X0,PR1
         4 000121   300003 474500                    LDP4    3,,PR3
         4 000122   400000 236100                    LDQ     0,,PR4
         4 000123   777777 376007                    ANQ     -1,DL
         4 000124   200004 756100                    STQ     CODE,,AUTO

       72     9681    5                    DO CASE (CODE);

   9681  4 000125   000007 116007                    CMPQ    7,DL
         4 000126   000130 602006 4                  TNC     s:9681+3,QL
         4 000127   000167 710000 4                  TRA     s:9695
         4 000130   000167 710000 4                  TRA     s:9695
         4 000131   000147 710000 4                  TRA     s:9687
         4 000132   000153 710000 4                  TRA     s:9689
         4 000133   000143 710000 4                  TRA     s:9685
         4 000134   000163 710000 4                  TRA     s:9693
         4 000135   000137 710000 4                  TRA     s:9683
         4 000136   000157 710000 4                  TRA     s:9691

       73     9682    5                       CASE ( %KS_HAND_NODEADMIN );

       74     9683    5                          KS_HNDLRNAME = 'NODEADMN';

   9683  4 000137   000000 237000 3                  LDAQ    0
         4 000140   000000 755000 xsym               STA     KS_HNDLRNAME
         4 000141   000001 756000 xsym               STQ     KS_HNDLRNAME+1
         4 000142   000203 710000 4                  TRA     s:9700

       75     9684    5                       CASE ( %KS_HAND_COUPLER ) ;

       76     9685    5                          KS_HNDLRNAME = 'COUPLER';

   9685  4 000143   040000 100400                    MLR     fill='040'O
PL6.E3A0      #001=KSC$COMMANDS File=KSC$COMMANDS1.:E05TSI                       WED 07/30/97 01:41 Page:19
         4 000144   000002 000007 3                  ADSC9   2                        cn=0,n=7
         4 000145   000000 000010 xsym               ADSC9   KS_HNDLRNAME             cn=0,n=8
         4 000146   000203 710000 4                  TRA     s:9700

       77     9686    5                       CASE ( %KS_HAND_ASYNC );

       78     9687    5                          KS_HNDLRNAME = 'ASYNC';

   9687  4 000147   040000 100400                    MLR     fill='040'O
         4 000150   000004 000005 3                  ADSC9   4                        cn=0,n=5
         4 000151   000000 000010 xsym               ADSC9   KS_HNDLRNAME             cn=0,n=8
         4 000152   000203 710000 4                  TRA     s:9700

       79     9688    5                       CASE ( %KS_HAND_BISYNC );

       80     9689    5                          KS_HNDLRNAME = 'BISYNC';

   9689  4 000153   040000 100400                    MLR     fill='040'O
         4 000154   000006 000006 3                  ADSC9   6                        cn=0,n=6
         4 000155   000000 000010 xsym               ADSC9   KS_HNDLRNAME             cn=0,n=8
         4 000156   000203 710000 4                  TRA     s:9700

       81     9690    5                       CASE ( %KS_HAND_UNITREC );

       82     9691    5                          KS_HNDLRNAME = 'UNITREC';

   9691  4 000157   040000 100400                    MLR     fill='040'O
         4 000160   000010 000007 3                  ADSC9   8                        cn=0,n=7
         4 000161   000000 000010 xsym               ADSC9   KS_HNDLRNAME             cn=0,n=8
         4 000162   000203 710000 4                  TRA     s:9700

       83     9692    5                       CASE ( %KS_HAND_HDLCX25 );

       84     9693    5                          KS_HNDLRNAME = 'HDLCX25';

   9693  4 000163   040000 100400                    MLR     fill='040'O
         4 000164   000012 000007 3                  ADSC9   10                       cn=0,n=7
PL6.E3A0      #001=KSC$COMMANDS File=KSC$COMMANDS1.:E05TSI                       WED 07/30/97 01:41 Page:20
         4 000165   000000 000010 xsym               ADSC9   KS_HNDLRNAME             cn=0,n=8
         4 000166   000203 710000 4                  TRA     s:9700

       85     9694    5                       CASE ( ELSE );

       86     9695    5                         KS_HNDLRNAME = OUT$BLK.SUBLK$(I)->OUT$BLK.SUBLK$(0)->OUT$SYM.
              9695                                   TEXT;

   9695  4 000167   400004 236100                    LDQ     4,,PR4
         4 000170   000033 772000                    QRL     27
         4 000171   000000 621006                    EAX1    0,QL
         4 000172   040000 100540                    MLR     fill='040'O
         4 000173   400004 200011                    ADSC9   4,,PR4                   cn=1,n=*X1
         4 000174   000000 000010 xsym               ADSC9   KS_HNDLRNAME             cn=0,n=8

       87     9696    5                    END;   /* case on handler name  */

   9696  4 000175   000203 710000 4                  TRA     s:9700

       88     9697    4                 CASE(%KS_PARAMOPTS);

       89     9698    4                    KS_SELPRMOPT = OUT$BLK.SUBLK$(I)->OUT$BLK.SUBLK$(0)->OUT$SYM.CODE;

   9698  4 000176   300003 474500                    LDP4    3,,PR3
         4 000177   400000 236100                    LDQ     0,,PR4
         4 000200   777777 376007                    ANQ     -1,DL
         4 000201   000033 736000                    QLS     27
         4 000202   000000 756000 xsym               STQ     KS_SELPRMOPT

       90     9699    4                 END;  /* DO CASE */

       91     9700    3              END;

   9700  4 000203   200005 235100                    LDA     I,,AUTO
         4 000204   000001 035007                    ADLA    1,DL
         4 000205   200005 755100                    STA     I,,AUTO
         4 000206   200003 470500                    LDP0    @TOP$,,AUTO
PL6.E3A0      #001=KSC$COMMANDS File=KSC$COMMANDS1.:E05TSI                       WED 07/30/97 01:41 Page:21
         4 000207   000000 471500                    LDP1    0,,PR0
         4 000210   100001 236100                    LDQ     1,,PR1
         4 000211   000022 772000                    QRL     18
         4 000212   200005 116100                    CMPQ    I,,AUTO
         4 000213   000215 600000 4                  TZE     s:9700+10
         4 000214   000061 603000 4                  TRC     s:9672
         4 000215   000451 710000 4                  TRA     s:9763

       92     9701    2           CASE(%KS_SET);

       93     9702    2              CALL KSC$SET(TOP$);

   9702  4 000216   200003 630500                    EPPR0   @TOP$,,AUTO
         4 000217   000017 631400 xsym               EPPR1   B_VECTNIL+15
         4 000220   000000 701000 xent               TSX1    KSC$SET
         4 000221   000000 011000                    NOP     0

       94     9703    2              UNWIND TO KS_ERR_RETURN;   /* multiple commands not allowed

   9703  4 000222   000000 237200 xsym               LDAQ  ! KS_ERR_RETURN
         4 000223   000000 700200 xent               TSX0  ! X66_AUNWIND
         4 000224   000000 000200                    ZERO    0,128

       95     9704                                                 on set command */
       96     9705    2           CASE(%KS_DISPLAY);

       97     9706    2              CALL KSC$DISPLAY(TOP$);

   9706  4 000225   200003 630500                    EPPR0   @TOP$,,AUTO
         4 000226   000017 631400 xsym               EPPR1   B_VECTNIL+15
         4 000227   000000 701000 xent               TSX1    KSC$DISPLAY
         4 000230   000000 011000                    NOP     0
         4 000231   000451 710000 4                  TRA     s:9763

       98     9707    2           CASE(%KS_DEFINE);

       99     9708    2              CALL KSC$DEFINE(OUT$BLK.SUBLK$(0));
PL6.E3A0      #001=KSC$COMMANDS File=KSC$COMMANDS1.:E05TSI                       WED 07/30/97 01:41 Page:22

   9708  4 000232   100003 633500                    EPPR3   3,,PR1
         4 000233   200020 453500                    STP3    @PTR$+1,,AUTO
         4 000234   200020 630500                    EPPR0   @PTR$+1,,AUTO
         4 000235   000017 631400 xsym               EPPR1   B_VECTNIL+15
         4 000236   000000 701000 xent               TSX1    KSC$DEFINE
         4 000237   000000 011000                    NOP     0
         4 000240   000451 710000 4                  TRA     s:9763

      100     9709    2           CASE(%KS_BOOT);

      101     9710    2              CALL GET_NODE(OUT$BLK.SUBLK$(0)->OUT$BLK.SUBLK$(0)) ALTRET(ERR);

   9710  4 000241   100003 473500                    LDP3    3,,PR1
         4 000242   300003 634500                    EPPR4   3,,PR3
         4 000243   200017 454500                    STP4    FEPNODE+6,,AUTO
         4 000244   000467 701000 4                  TSX1    GET_NODE
         4 000245   000466 702000 4                  TSX2    ERR

      102     9711    2              FPT_FEBOOT.V.NOTIME# = '0'B;

   9711  4 000246   000000 236000 5                  LDQ     0
         4 000247   000010 356000 xsym               ANSQ    FPT_FEBOOT+8

      103     9712    2              CALL KFF$FEBOOT(FEPNODE);

   9712  4 000250   200011 630500                    EPPR0   FEPNODE,,AUTO
         4 000251   200020 450500                    STP0    @PTR$+1,,AUTO
         4 000252   200020 630500                    EPPR0   @PTR$+1,,AUTO
         4 000253   000017 631400 xsym               EPPR1   B_VECTNIL+15
         4 000254   000000 701000 xent               TSX1    KFF$FEBOOT
         4 000255   000000 011000                    NOP     0
         4 000256   000451 710000 4                  TRA     s:9763

      104     9713
      105     9714    2           CASE(%KS_STARTHANDLERS);

PL6.E3A0      #001=KSC$COMMANDS File=KSC$COMMANDS1.:E05TSI                       WED 07/30/97 01:41 Page:23
      106     9715    2              FEPNODE = KS_NODE;

   9715  4 000257   000000 235000 xsym               LDA     KS_NODE
         4 000260   200011 755100                    STA     FEPNODE,,AUTO

      107     9716    2              CALL KFF$STARTHANDLERS(FEPNODE);

   9716  4 000261   200011 631500                    EPPR1   FEPNODE,,AUTO
         4 000262   200020 451500                    STP1    @PTR$+1,,AUTO
         4 000263   200020 630500                    EPPR0   @PTR$+1,,AUTO
         4 000264   000017 631400 xsym               EPPR1   B_VECTNIL+15
         4 000265   000000 701000 xent               TSX1    KFF$STARTHANDLERS
         4 000266   000000 011000                    NOP     0
         4 000267   000451 710000 4                  TRA     s:9763

      108     9717    2            CASE(%KS_BOOT_NOTIME);

      109     9718    2              CALL GET_NODE(OUT$BLK.SUBLK$(0)->OUT$BLK.SUBLK$(0)) ALTRET(ERR);

   9718  4 000270   100003 473500                    LDP3    3,,PR1
         4 000271   300003 634500                    EPPR4   3,,PR3
         4 000272   200017 454500                    STP4    FEPNODE+6,,AUTO
         4 000273   000467 701000 4                  TSX1    GET_NODE
         4 000274   000466 702000 4                  TSX2    ERR

      110     9719    2              FPT_FEBOOT.V.NOTIME# = '1'B;

   9719  4 000275   020000 236003                    LDQ     8192,DU
         4 000276   000010 256000 xsym               ORSQ    FPT_FEBOOT+8

      111     9720    2              CALL KFF$FEBOOT(FEPNODE);

   9720  4 000277   200011 630500                    EPPR0   FEPNODE,,AUTO
         4 000300   200020 450500                    STP0    @PTR$+1,,AUTO
         4 000301   200020 630500                    EPPR0   @PTR$+1,,AUTO
         4 000302   000017 631400 xsym               EPPR1   B_VECTNIL+15
         4 000303   000000 701000 xent               TSX1    KFF$FEBOOT
PL6.E3A0      #001=KSC$COMMANDS File=KSC$COMMANDS1.:E05TSI                       WED 07/30/97 01:41 Page:24
         4 000304   000000 011000                    NOP     0
         4 000305   000451 710000 4                  TRA     s:9763

      112     9721    2           CASE(%KS_LINCNFG);

      113     9722    2              IF OUT$BLK.SUBLK$(0)->OUT$BLK.SUBLK$(0)->OUT$BLK.CODE = %KS_NODE THEN

   9722  4 000306   100003 473500                    LDP3    3,,PR1
         4 000307   300003 474500                    LDP4    3,,PR3
         4 000310   400000 721100                    LXL1    0,,PR4
         4 000311   000001 101003                    CMPX1   1,DU
         4 000312   000331 601000 4                  TNZ     s:9730

      114     9723    3                 DO;

      115     9724    3                CALL GET_NODE (OUT$BLK.SUBLK$(0)->OUT$BLK.SUBLK$(0)->OUT$BLK.SUBLK$(0)
              9724                          );

   9724  4 000313   400003 635500                    EPPR5   3,,PR4
         4 000314   200017 455500                    STP5    FEPNODE+6,,AUTO
         4 000315   000467 701000 4                  TSX1    GET_NODE
         4 000316   000000 011000                    NOP     0

      116     9725    3                 KS_NODE_SV = KS_NODE;

   9725  4 000317   000000 235000 xsym               LDA     KS_NODE
         4 000320   000000 755000 xsym               STA     KS_NODE_SV

      117     9726    3                 KS_NODENAME_SV = KS_NODENAME;

   9726  4 000321   040000 100400                    MLR     fill='040'O
         4 000322   000000 000010 xsym               ADSC9   KS_NODENAME              cn=0,n=8
         4 000323   000000 000010 xsym               ADSC9   KS_NODENAME_SV           cn=0,n=8

      118     9727    3                 KS_NODE = FEPNODE;

   9727  4 000324   200011 236100                    LDQ     FEPNODE,,AUTO
PL6.E3A0      #001=KSC$COMMANDS File=KSC$COMMANDS1.:E05TSI                       WED 07/30/97 01:41 Page:25
         4 000325   000000 756000 xsym               STQ     KS_NODE

      119     9728    3                 KS_NODENAME = FEPNAME;

   9728  4 000326   040000 100500                    MLR     fill='040'O
         4 000327   200007 000010                    ADSC9   FEPNAME,,AUTO            cn=0,n=8
         4 000330   000000 000010 xsym               ADSC9   KS_NODENAME              cn=0,n=8

      120     9729    3                 END;

      121     9730    2              CALL KSC$LINCNFG(OUT$BLK.SUBLK$(0));

   9730  4 000331   200003 470500                    LDP0    @TOP$,,AUTO
         4 000332   000000 471500                    LDP1    0,,PR0
         4 000333   100003 633500                    EPPR3   3,,PR1
         4 000334   200020 453500                    STP3    @PTR$+1,,AUTO
         4 000335   200020 630500                    EPPR0   @PTR$+1,,AUTO
         4 000336   000017 631400 xsym               EPPR1   B_VECTNIL+15
         4 000337   000000 701000 xent               TSX1    KSC$LINCNFG
         4 000340   000000 011000                    NOP     0
         4 000341   000451 710000 4                  TRA     s:9763

      122     9731    2           CASE(%KS_PART);

      123     9732    2              IF OUT$BLK.SUBLK$(0)->OUT$BLK.CODE = %KS_NODE THEN

   9732  4 000342   100003 473500                    LDP3    3,,PR1
         4 000343   300000 721100                    LXL1    0,,PR3
         4 000344   000001 101003                    CMPX1   1,DU
         4 000345   000371 601000 4                  TNZ     s:9742

      124     9733    3                 DO;

      125     9734    3                 CALL GET_NODE (OUT$BLK.SUBLK$(0)->OUT$BLK.SUBLK$(0));

   9734  4 000346   300003 634500                    EPPR4   3,,PR3
         4 000347   200017 454500                    STP4    FEPNODE+6,,AUTO
PL6.E3A0      #001=KSC$COMMANDS File=KSC$COMMANDS1.:E05TSI                       WED 07/30/97 01:41 Page:26
         4 000350   000467 701000 4                  TSX1    GET_NODE
         4 000351   000000 011000                    NOP     0

      126     9735    3                 KS_NODE_SV = KS_NODE;

   9735  4 000352   000000 235000 xsym               LDA     KS_NODE
         4 000353   000000 755000 xsym               STA     KS_NODE_SV

      127     9736    3                 KS_NODENAME_SV = KS_NODENAME;

   9736  4 000354   040000 100400                    MLR     fill='040'O
         4 000355   000000 000010 xsym               ADSC9   KS_NODENAME              cn=0,n=8
         4 000356   000000 000010 xsym               ADSC9   KS_NODENAME_SV           cn=0,n=8

      128     9737    3                 KS_NODE = FEPNODE;

   9737  4 000357   200011 236100                    LDQ     FEPNODE,,AUTO
         4 000360   000000 756000 xsym               STQ     KS_NODE

      129     9738    3                 KS_NODENAME = FEPNAME;

   9738  4 000361   040000 100500                    MLR     fill='040'O
         4 000362   200007 000010                    ADSC9   FEPNAME,,AUTO            cn=0,n=8
         4 000363   000000 000010 xsym               ADSC9   KS_NODENAME              cn=0,n=8

      130     9739    3                 CALL KSC$PART(TOP$);

   9739  4 000364   200003 630500                    EPPR0   @TOP$,,AUTO
         4 000365   000017 631400 xsym               EPPR1   B_VECTNIL+15
         4 000366   000000 701000 xent               TSX1    KSC$PART
         4 000367   000000 011000                    NOP     0

      131     9740    3                 END;

   9740  4 000370   000451 710000 4                  TRA     s:9763

      132     9741    2              ELSE
PL6.E3A0      #001=KSC$COMMANDS File=KSC$COMMANDS1.:E05TSI                       WED 07/30/97 01:41 Page:27
      133     9742    2                 CALL KSC$PART(TOP$);

   9742  4 000371   200003 630500                    EPPR0   @TOP$,,AUTO
         4 000372   000017 631400 xsym               EPPR1   B_VECTNIL+15
         4 000373   000000 701000 xent               TSX1    KSC$PART
         4 000374   000000 011000                    NOP     0
         4 000375   000451 710000 4                  TRA     s:9763

      134     9743    2           CASE(%KS_RET);

      135     9744    2              IF OUT$BLK.SUBLK$(0)->OUT$BLK.CODE = %KS_NODE THEN

   9744  4 000376   100003 473500                    LDP3    3,,PR1
         4 000377   300000 721100                    LXL1    0,,PR3
         4 000400   000001 101003                    CMPX1   1,DU
         4 000401   000425 601000 4                  TNZ     s:9754

      136     9745    3                 DO;

      137     9746    3                 CALL GET_NODE (OUT$BLK.SUBLK$(0)->OUT$BLK.SUBLK$(0));

   9746  4 000402   300003 634500                    EPPR4   3,,PR3
         4 000403   200017 454500                    STP4    FEPNODE+6,,AUTO
         4 000404   000467 701000 4                  TSX1    GET_NODE
         4 000405   000000 011000                    NOP     0

      138     9747    3                 KS_NODE_SV = KS_NODE;

   9747  4 000406   000000 235000 xsym               LDA     KS_NODE
         4 000407   000000 755000 xsym               STA     KS_NODE_SV

      139     9748    3                 KS_NODENAME_SV = KS_NODENAME;

   9748  4 000410   040000 100400                    MLR     fill='040'O
         4 000411   000000 000010 xsym               ADSC9   KS_NODENAME              cn=0,n=8
         4 000412   000000 000010 xsym               ADSC9   KS_NODENAME_SV           cn=0,n=8

PL6.E3A0      #001=KSC$COMMANDS File=KSC$COMMANDS1.:E05TSI                       WED 07/30/97 01:41 Page:28
      140     9749    3                 KS_NODE = FEPNODE;

   9749  4 000413   200011 236100                    LDQ     FEPNODE,,AUTO
         4 000414   000000 756000 xsym               STQ     KS_NODE

      141     9750    3                 KS_NODENAME = FEPNAME;

   9750  4 000415   040000 100500                    MLR     fill='040'O
         4 000416   200007 000010                    ADSC9   FEPNAME,,AUTO            cn=0,n=8
         4 000417   000000 000010 xsym               ADSC9   KS_NODENAME              cn=0,n=8

      142     9751    3                 CALL KSC$PART(TOP$);

   9751  4 000420   200003 630500                    EPPR0   @TOP$,,AUTO
         4 000421   000017 631400 xsym               EPPR1   B_VECTNIL+15
         4 000422   000000 701000 xent               TSX1    KSC$PART
         4 000423   000000 011000                    NOP     0

      143     9752    3                 END;

   9752  4 000424   000451 710000 4                  TRA     s:9763

      144     9753    2              ELSE
      145     9754    2                 CALL KSC$PART(TOP$);

   9754  4 000425   200003 630500                    EPPR0   @TOP$,,AUTO
         4 000426   000017 631400 xsym               EPPR1   B_VECTNIL+15
         4 000427   000000 701000 xent               TSX1    KSC$PART
         4 000430   000000 011000                    NOP     0
         4 000431   000451 710000 4                  TRA     s:9763

      146     9755    2           CASE(%KS_DELETE);

      147     9756    2              CALL KSC$DELETE(OUT$BLK.SUBLK$(0));

   9756  4 000432   100003 633500                    EPPR3   3,,PR1
         4 000433   200020 453500                    STP3    @PTR$+1,,AUTO
PL6.E3A0      #001=KSC$COMMANDS File=KSC$COMMANDS1.:E05TSI                       WED 07/30/97 01:41 Page:29
         4 000434   200020 630500                    EPPR0   @PTR$+1,,AUTO
         4 000435   000017 631400 xsym               EPPR1   B_VECTNIL+15
         4 000436   000000 701000 xent               TSX1    KSC$DELETE
         4 000437   000000 011000                    NOP     0
         4 000440   000451 710000 4                  TRA     s:9763

      148     9757    2           CASE(%KS_UPDATE);

      149     9758    2              CALL KSC$UPDATE(TOP$);

   9758  4 000441   200003 630500                    EPPR0   @TOP$,,AUTO
         4 000442   000017 631400 xsym               EPPR1   B_VECTNIL+15
         4 000443   000000 701000 xent               TSX1    KSC$UPDATE
         4 000444   000000 011000                    NOP     0
         4 000445   000451 710000 4                  TRA     s:9763

      150     9759    2           CASE(%KS_END);

      151     9760    2              KS_END_FLG = '1'B;

   9760  4 000446   400000 236003                    LDQ     -131072,DU
         4 000447   000000 756000 xsym               STQ     KS_END_FLG
         4 000450   000451 710000 4                  TRA     s:9763

      152     9761    2           CASE(%KS_NULL);

      153     9762    2           END;  /* DO CASE */

      154     9763    1        IF KS_NODENAME_SV ~= ' '

   9763  4 000451   040000 106400                    CMPC    fill='040'O
         4 000452   000000 000010 xsym               ADSC9   KS_NODENAME_SV           cn=0,n=8
         4 000453   000035 000001 xsym               ADSC9   B_VECTNIL+29             cn=0,n=1
         4 000454   000466 600000 4                  TZE     ERR

      155     9764    2           THEN DO;

PL6.E3A0      #001=KSC$COMMANDS File=KSC$COMMANDS1.:E05TSI                       WED 07/30/97 01:41 Page:30
      156     9765    2              KS_NODENAME = KS_NODENAME_SV;

   9765  4 000455   040000 100400                    MLR     fill='040'O
         4 000456   000000 000010 xsym               ADSC9   KS_NODENAME_SV           cn=0,n=8
         4 000457   000000 000010 xsym               ADSC9   KS_NODENAME              cn=0,n=8

      157     9766    2              KS_NODE = KS_NODE_SV;

   9766  4 000460   000000 235000 xsym               LDA     KS_NODE_SV
         4 000461   000000 755000 xsym               STA     KS_NODE

      158     9767    2              KS_NODENAME_SV = ' ';

   9767  4 000462   000035 235000 xsym               LDA     B_VECTNIL+29
         4 000463   000035 236000 xsym               LDQ     B_VECTNIL+29
         4 000464   000000 755000 xsym               STA     KS_NODENAME_SV
         4 000465   000001 756000 xsym               STQ     KS_NODENAME_SV+1

      159     9768    2              END;

   9763  4 000466                       ERR          null
      160     9769    1   ERR:;
      161     9770    1        RETURN;

   9770  4 000466   000000 702200 xent               TSX2  ! X66_ARET

      162     9771        %EJECT;
PL6.E3A0      #001=KSC$COMMANDS File=KSC$COMMANDS1.:E05TSI                       WED 07/30/97 01:41 Page:31
      163     9772    1   GET_NODE: PROC(PTR$) ALTRET;

   9772  4 000467   200016 741300       GET_NODE     STX1  ! FEPNODE+5,,AUTO

      164     9773    2           DCL PTR$ PTR;
      165     9774
      166     9775    2           CALL M$READ(READ_NETWORK);

   9775  4 000470   000000 630400 1                  EPPR0   READ_NETWORK
         4 000471   040000 713400                    CLIMB   read
         4 000472   401400 401760                    pmme    nvectors=4

      167     9776
      168     9777    3           DO CASE(PTR$->OUT$BLK.CODE);

   9777  4 000473   200017 470500                    LDP0    @PTR$,,AUTO
         4 000474   000000 471500                    LDP1    0,,PR0
         4 000475   100000 720100                    LXL0    0,,PR1
         4 000476   000002 100003                    CMPX0   2,DU
         4 000477   000501 602010 4                  TNC     s:9777+6,X0
         4 000500   000553 710000 4                  TRA     s:9795
         4 000501   000503 710000 4                  TRA     s:9780
         4 000502   000534 710000 4                  TRA     s:9789

      169     9778
      170     9779    3            CASE (%KS_TEXTVAL);

      171     9780    3              FEPNAME = PTR$->OUT$SYM.TEXT;

   9780  4 000503   100004 236100                    LDQ     4,,PR1
         4 000504   000033 772000                    QRL     27
         4 000505   000000 621006                    EAX1    0,QL
         4 000506   040100 100540                    MLR     fill='040'O
         4 000507   100004 200011                    ADSC9   4,,PR1                   cn=1,n=*X1
         4 000510   200007 000010                    ADSC9   FEPNAME,,AUTO            cn=0,n=8

      172     9781    3              FEPNODE = -1;
PL6.E3A0      #001=KSC$COMMANDS File=KSC$COMMANDS1.:E05TSI                       WED 07/30/97 01:41 Page:32

   9781  4 000511   000001 335007                    LCA     1,DL
         4 000512   200011 755100                    STA     FEPNODE,,AUTO

      173     9782    4              DO I = 0 TO KS_NETWORK.NODE#;

   9782  4 000513   200005 450100                    STZ     I,,AUTO
         4 000514   000530 710000 4                  TRA     s:9786+3

      174     9783    4                 IF FEPNAME = KS_NETWORK.NODE.NODE(I)

   9783  4 000515   200005 236100                    LDQ     I,,AUTO
         4 000516   000024 402007                    MPY     20,DL
         4 000517   040006 106500                    CMPC    fill='040'O
         4 000520   200007 000010                    ADSC9   FEPNAME,,AUTO            cn=0,n=8
         4 000521   000002 000010 xsym               ADSC9   KS_NETWORK+2,Q           cn=0,n=8
         4 000522   000525 601000 4                  TNZ     s:9786

      175     9784    4                 THEN
      176     9785    4                    FEPNODE = I;

   9785  4 000523   200005 235100                    LDA     I,,AUTO
         4 000524   200011 755100                    STA     FEPNODE,,AUTO

      177     9786    4                 END;

   9786  4 000525   200005 235100                    LDA     I,,AUTO
         4 000526   000001 035007                    ADLA    1,DL
         4 000527   200005 755100                    STA     I,,AUTO
         4 000530   000000 236000 xsym               LDQ     KS_NETWORK
         4 000531   200005 116100                    CMPQ    I,,AUTO
         4 000532   000515 603000 4                  TRC     s:9783
         4 000533   000553 710000 4                  TRA     s:9795

      178     9787
      179     9788    3            CASE (%KS_DECVAL);

PL6.E3A0      #001=KSC$COMMANDS File=KSC$COMMANDS1.:E05TSI                       WED 07/30/97 01:41 Page:33
      180     9789    3              CALL CHARBIN(FEPNODE,PTR$->OUT$SYM.TEXT);

   9789  4 000534   100004 236100                    LDQ     4,,PR1
         4 000535   000033 772000                    QRL     27
         4 000536   000000 621006                    EAX1    0,QL
         4 000537   000100 305540                    DTB
         4 000540   100004 230011                    NDSC9   4,,PR1                   cn=1,s=nosgn,sf=0,n=*X1
         4 000541   200011 000004                    NDSC9   FEPNODE,,AUTO            cn=0,s=lsgnf,sf=0,n=4

      181     9790    3              IF FEPNODE <= KS_NETWORK.NODE#

   9790  4 000542   000000 236000 xsym               LDQ     KS_NETWORK
         4 000543   000546 604000 4                  TMI     s:9792
         4 000544   200011 116100                    CMPQ    FEPNODE,,AUTO
         4 000545   000553 604000 4                  TMI     s:9795

      182     9791    3              THEN
      183     9792    3                 FEPNAME = KS_NETWORK.NODE.NODE(FEPNODE);

   9792  4 000546   200011 236100                    LDQ     FEPNODE,,AUTO
         4 000547   000024 402007                    MPY     20,DL
         4 000550   040100 100406                    MLR     fill='040'O
         4 000551   000002 000010 xsym               ADSC9   KS_NETWORK+2,Q           cn=0,n=8
         4 000552   200007 000010                    ADSC9   FEPNAME,,AUTO            cn=0,n=8

      184     9793
      185     9794    3            END;

      186     9795    2           IF FEPNODE = -1 OR FEPNODE > KS_NETWORK.NODE# OR

   9795  4 000553   200011 235100                    LDA     FEPNODE,,AUTO
         4 000554   000027 115000 xsym               CMPA    B_VECTNIL+23
         4 000555   000566 600000 4                  TZE     s:9798
         4 000556   000000 236000 xsym               LDQ     KS_NETWORK
         4 000557   000562 604000 4                  TMI     s:9795+7
         4 000560   200011 116100                    CMPQ    FEPNODE,,AUTO
         4 000561   000566 604000 4                  TMI     s:9798
PL6.E3A0      #001=KSC$COMMANDS File=KSC$COMMANDS1.:E05TSI                       WED 07/30/97 01:41 Page:34
         4 000562   040000 106500                    CMPC    fill='040'O
         4 000563   200007 000010                    ADSC9   FEPNAME,,AUTO            cn=0,n=8
         4 000564   000035 000001 xsym               ADSC9   B_VECTNIL+29             cn=0,n=1
         4 000565   000601 601000 4                  TNZ     s:9811

      187     9796    2              FEPNAME = ' ' THEN
      188     9797    3              DO;

      189     9798    3              FEPNAME = KS_NODENAME;

   9798  4 000566   040100 100400                    MLR     fill='040'O
         4 000567   000000 000010 xsym               ADSC9   KS_NODENAME              cn=0,n=8
         4 000570   200007 000010                    ADSC9   FEPNAME,,AUTO            cn=0,n=8

      190     9799    3              FEPNODE = KS_NODE;

   9799  4 000571   000000 236000 xsym               LDQ     KS_NODE
         4 000572   200011 756100                    STQ     FEPNODE,,AUTO

      191     9800    3              CALL KSE$ERRMSG(%E$KS_BAD_SELECT);

   9800  4 000573   000002 630400 5                  EPPR0   2
         4 000574   000017 631400 xsym               EPPR1   B_VECTNIL+15
         4 000575   000000 701000 xent               TSX1    KSE$ERRMSG
         4 000576   000000 011000                    NOP     0

      192     9801                      /*E* ERROR: KSN-E$KS_BAD_SELECT-0
      193     9802                           MESSAGE: Illegal node selected.
      194     9803                           MESSAGE1: The node selected is not valid, use
      195     9804                                     the DI NETWORK commands to see currently
      196     9805                                     defined network, or use the DEFINE command
      197     9806                                     to define a new node
      198     9807                          DESCRIPTION: SEE MESSAGE*/
      199     9808    3              ALTRETURN;

   9808  4 000577   200016 221300                    LDX1  ! FEPNODE+5,,AUTO
         4 000600   000000 702211                    TSX2  ! 0,X1
PL6.E3A0      #001=KSC$COMMANDS File=KSC$COMMANDS1.:E05TSI                       WED 07/30/97 01:41 Page:35

      200     9809    3              END;
      201     9810
      202     9811    2           RETURN;

   9811  4 000601   200016 221300                    LDX1  ! FEPNODE+5,,AUTO
         4 000602   000001 702211                    TSX2  ! 1,X1
      203     9812
      204     9813    2   END GET_NODE;
      205     9814    1   END KSC$COMMANDS;
      206     9815        %EOD;

PL6.E3A0      #001=KSC$COMMANDS File=KSC$COMMANDS1.:E05TSI                       WED 07/30/97 01:41 Page:36
--  Include file information  --

   KS_PERR_C.:E05TOU  is referenced.
   KS_DATA_R.:E05TOU  cannot be made into a system file and is referenced.
   KS_SUBS_C.:E05TOU  is referenced.
   KS_MACRO_M.:E05TOU  is referenced.
   KL_MACRO_C.:E05TOU  is referenced.
   KL_CONFIG_M.:E05TOU  is referenced.
   B$JIT.:E05TOU  cannot be made into a system file and is referenced.
   F$DCB.:E05TOU  cannot be made into a system file and is referenced.
   B_ERRORS_C.:E05TOU  is referenced.
   XU_MACRO_C.:E05TOU  is referenced.
   CP_6.:E05TOU  cannot be made into a system file and is referenced.
   B$JIT_C.:E05TOU  was found in the system file and is referenced.
   CP_6_C.:E05TOU  was found in the system file and is referenced.
      No diagnostics issued in procedure KSC$COMMANDS.
PL6.E3A0      #001=KSC$COMMANDS File=KSC$COMMANDS1.:E05TSI                       WED 07/30/97 01:41 Page:37

 **** Variables and constants ****

  ****  Section 001  Data  KSC$COMMANDS

  ****  Scalars and arrays  ****
OctLoc.c.b A Datatyp(siz) R M Lvl/name                 OctLoc.c.b A Datatyp(siz) R M Lvl/name

    16-0-0/w STRC(18)    r     1 KS_NETWORK_KEY             0-0-0/d STRC(504)   r     1 READ_NETWORK

  ****  Auto variables  ****

  ****  Scalars and arrays  ****
OctLoc.c.b A Datatyp(siz) R M Lvl/name                 OctLoc.c.b A Datatyp(siz) R M Lvl/name

    17-0-0/w PTR         r     1 @PTR$                      3-0-0/w PTR         r     1 @TOP$
     4-0-0/w UBIN        r     1 CODE                       7-0-0/c CHAR(8)     r     1 FEPNAME
    11-0-0/w SBIN        r     1 FEPNODE                    5-0-0/w UBIN        r     1 I
    *0-0-0/w PTR         r     1 PTR$                      *0-0-0/w PTR         r     1 TOP$

  ****  SYMREF variables  ****

  ****  Scalars and arrays  ****
OctLoc.c.b A Datatyp(siz) R M Lvl/name                 OctLoc.c.b A Datatyp(siz) R M Lvl/name

     0-0-0/w PTR         r     1 B$JIT$                     0-0-0/d STRC(360)   r     1 FPT_FEBOOT
     0-0-0/b BIT         r     1 KS_END_FLG                 0-0-0/d REMB        r     1 KS_ERR_RETURN
     0-0-0/w UBIN(9)     r     1 KS_HNDLRINDX               0-0-0/c CHAR(8)     r     1 KS_HNDLRNAME
     0-0-0/w PTR         r     1 KS_MSGBUF$                 0-0-0/w STRC(46116) r     1 KS_NETWORK
     0-0-0/w SBIN        r     1 KS_NODE                    0-0-0/c CHAR(8)     r     1 KS_NODENAME
     0-0-0/c CHAR(8)     r     1 KS_NODENAME_SV             0-0-0/w UBIN        r     1 KS_NODE_SV
     0-0-0/w UBIN(9)     r     1 KS_SELPRMOPT               0-0-0/c STRC(90)    r     1 PROMPT

  ****  BASED and DCB variables  ****

  ****  Scalars and arrays  ****
OctLoc.c.b A Datatyp(siz) R M Lvl/name                 OctLoc.c.b A Datatyp(siz) R M Lvl/name

PL6.E3A0      #001=KSC$COMMANDS File=KSC$COMMANDS1.:E05TSI                       WED 07/30/97 01:41 Page:38
     0-0-0/d ASTR(3528)  r     1 F$DCB                      0-0-0N  NULL        r     1 M$NETCON
     0-0-0/w STRC(144)   r     1 OUT$BLK                    0-0-0/w ASTR(153)   r     1 OUT$SYM


   Procedure KSC$COMMANDS requires 387 words for executable code.
   Procedure KSC$COMMANDS requires 18 words of local(AUTO) storage.
PL6.E3A0      #001=KSC$COMMANDS File=KSC$COMMANDS1.:E05TSI                       WED 07/30/97 01:41 Page:39
          *** CROSS REFERENCE LISTING ***
**     DENOTES     IDENTIFIER DEFINITION
<<                 IDENTIFIER'S VALUE SET
>>                 IDENTIFIER'S VALUE USED
<>                 IDENTIFIER SET AND/OR USED
--                 IDENTIFIER REFERENCED
PL6.E3A0      #001=KSC$COMMANDS File=KSC$COMMANDS1.:E05TSI                       WED 07/30/97 01:41 Page:40
          MINI XREF LISTING

B$JIT.CPFLAGS1.SLEAZE
      4481**DCL      4481--REDEF
B$JIT.ERR.MID
      4388**DCL      4388--REDEF
B$JIT.JRESPEAK
      4549**DCL      4550--REDEF
B$JIT.ORIGINATOR_PORT.FROM_CR
      4658**DCL      4658--REDEF    4659--REDEF
B$JIT.PNR
      4562**DCL      4562--REDEF
B$JIT.TSLINE
      4656**DCL      4657--REDEF
B$JIT$
      9656**DCL      4382--IMP-PTR
CODE
      9657**DCL      9680<<ASSIGN   9681>>DOCASE
ERR
      9763**LABEL    9710--CALLALT  9718--CALLALT
F$DCB.ACTPOS
      4350**DCL      4350--REDEF
F$DCB.ARS
      4325**DCL      4325--REDEF
F$DCB.ATTR
      4343**DCL      4344--REDEF
F$DCB.BORROW
      4358**DCL      4358--REDEF    4358--REDEF    4358--REDEF
F$DCB.DCBNAME.L
      4372**DCL      4372--IMP-SIZ
F$DCB.EOMCHAR
      4329**DCL      4329--REDEF
F$DCB.FLDID
      4353**DCL      4353--REDEF
PL6.E3A0      #001=KSC$COMMANDS File=KSC$COMMANDS1.:E05TSI                       WED 07/30/97 01:41 Page:41
F$DCB.FORM$
      4347**DCL      4347--REDEF
F$DCB.FSECT
      4363**DCL      4363--REDEF
F$DCB.FSN
      4340**DCL      4340--REDEF    4340--REDEF    4341--REDEF
F$DCB.HEADER$
      4346**DCL      4346--REDEF
F$DCB.IXTNSIZE
      4344**DCL      4344--REDEF
F$DCB.LASTSTA$
      4334**DCL      4334--REDEF
F$DCB.LVL
      4359**DCL      4359--REDEF
F$DCB.NAME.C
      4334**DCL      4334--REDEF
F$DCB.NOEOF
      4355**DCL      4355--REDEF
F$DCB.NRECS
      4345**DCL      4345--REDEF
F$DCB.NRECX
      4364**DCL      4364--REDEF
F$DCB.OHDR
      4356**DCL      4356--REDEF
F$DCB.ORG
      4339**DCL      4339--REDEF
F$DCB.PRECNO
      4362**DCL      4362--REDEF
F$DCB.RCSZ
      4367**DCL      4367--REDEF
F$DCB.RES
      4335**DCL      4335--REDEF
F$DCB.SETX
      4347**DCL      4347--REDEF
F$DCB.TAB$
      4346**DCL      4347--REDEF
PL6.E3A0      #001=KSC$COMMANDS File=KSC$COMMANDS1.:E05TSI                       WED 07/30/97 01:41 Page:42
F$DCB.TDA
      4361**DCL      4361--REDEF
F$DCB.WSN
      4336**DCL      4336--REDEF
FEPNAME
      9660**DCL      9675>>ASSIGN   9728>>ASSIGN   9738>>ASSIGN   9750>>ASSIGN   9780<<ASSIGN   9783>>IF
      9792<<ASSIGN   9795>>IF       9798<<ASSIGN
FEPNODE
      9661**DCL      9676>>ASSIGN   9712<>CALL     9715<<ASSIGN   9716<>CALL     9720<>CALL     9727>>ASSIGN
      9737>>ASSIGN   9749>>ASSIGN   9781<<ASSIGN   9785<<ASSIGN   9789<<CALLBLT  9790>>IF       9792>>ASSIGN
      9795>>IF       9795>>IF       9799<<ASSIGN
FPT_FEBOOT.V.DMPSTART#
      9428**DCL      9429--REDEF
FPT_FEBOOT.V.NOTIME#
      9431**DCL      9711<<ASSIGN   9719<<ASSIGN
GET_NODE
      9772**PROC     9674--CALL     9710--CALL     9718--CALL     9724--CALL     9734--CALL     9746--CALL
I
      9658**DCL      9667<<DOINDEX  9668>>CALL     9671<<DOINDEX  9672>>DOCASE   9674>>CALL     9679>>ASSIGN
      9680>>ASSIGN   9695>>ASSIGN   9695>>ASSIGN   9698>>ASSIGN   9782<<DOINDEX  9783>>IF       9785>>ASSIGN
KFF$FEBOOT
      9361**DCL-ENT  9712--CALL     9720--CALL
KFF$STARTHANDLERS
      9363**DCL-ENT  9716--CALL
KSC$COMMANDS
         8**PROC     9668--CALL
KSC$DEFINE
      9357**DCL-ENT  9708--CALL
KSC$DELETE
      9356**DCL-ENT  9756--CALL
KSC$DISPLAY
      9355**DCL-ENT  9706--CALL
KSC$LINCNFG
      9359**DCL-ENT  9730--CALL
KSC$PART
      9360**DCL-ENT  9739--CALL     9742--CALL     9751--CALL     9754--CALL
PL6.E3A0      #001=KSC$COMMANDS File=KSC$COMMANDS1.:E05TSI                       WED 07/30/97 01:41 Page:43
KSC$SET
      9354**DCL-ENT  9702--CALL
KSC$UPDATE
      9362**DCL-ENT  9758--CALL
KSE$ERRMSG
      9358**DCL-ENT  9800--CALL
KS_END_FLG
      9227**DCL      9760<<ASSIGN
KS_ERR_RETURN
      9228**DCL      9703>>UNWIND
KS_HNDLRINDX
      9227**DCL      9679<<ASSIGN
KS_HNDLRNAME
      9227**DCL      9683<<ASSIGN   9685<<ASSIGN   9687<<ASSIGN   9689<<ASSIGN   9691<<ASSIGN   9693<<ASSIGN
      9695<<ASSIGN
KS_MSGBUF$
      9229**DCL      9229--IMP-PTR
KS_MYSTATION
      9225**DCL      9225--REDEF
KS_NETWORK
      9404**DCL      9482--DCLINIT  9483--DCLINIT
KS_NETWORK.NODE.NODE
      9413**DCL      9783>>IF       9792>>ASSIGN
KS_NETWORK.NODE#
      9405**DCL      9782>>DOINDEX  9790>>IF       9795>>IF
KS_NETWORK_KEY
      9515**DCL      9480--DCLINIT  9481--DCLINIT
KS_NODE
      9226**DCL      9676<<ASSIGN   9715>>ASSIGN   9725>>ASSIGN   9727<<ASSIGN   9735>>ASSIGN   9737<<ASSIGN
      9747>>ASSIGN   9749<<ASSIGN   9766<<ASSIGN   9799>>ASSIGN
KS_NODENAME
      9225**DCL      9675<<ASSIGN   9677>>ASSIGN   9726>>ASSIGN   9728<<ASSIGN   9736>>ASSIGN   9738<<ASSIGN
      9748>>ASSIGN   9750<<ASSIGN   9765<<ASSIGN   9798>>ASSIGN
KS_NODENAME_SV
      9226**DCL      9726<<ASSIGN   9736<<ASSIGN   9748<<ASSIGN   9763>>IF       9765>>ASSIGN   9767<<ASSIGN
KS_NODE_SV
PL6.E3A0      #001=KSC$COMMANDS File=KSC$COMMANDS1.:E05TSI                       WED 07/30/97 01:41 Page:44
      9226**DCL      9725<<ASSIGN   9735<<ASSIGN   9747<<ASSIGN   9766>>ASSIGN
KS_SELPRMOPT
      9226**DCL      9698<<ASSIGN
M$READ
        20**DCL-ENT  9775--CALL
OUT$BLK.CODE
      9560**DCL      9665>>DOCASE   9672>>DOCASE   9679>>ASSIGN   9680>>ASSIGN   9722>>IF       9732>>IF
      9744>>IF       9777>>DOCASE
OUT$BLK.NSUBLKS
      9564**DCL      9667>>DOINDEX  9671>>DOINDEX
OUT$BLK.SUBLK$
      9585**DCL      9668<>CALL     9672>>DOCASE   9674>>CALL     9674<>CALL     9679>>ASSIGN   9679>>ASSIGN
      9680>>ASSIGN   9680>>ASSIGN   9695>>ASSIGN   9695>>ASSIGN   9695>>ASSIGN   9695>>ASSIGN   9698>>ASSIGN
      9698>>ASSIGN   9708<>CALL     9710>>CALL     9710<>CALL     9718>>CALL     9718<>CALL     9722>>IF
      9722>>IF       9724>>CALL     9724>>CALL     9724<>CALL     9730<>CALL     9732>>IF       9734>>CALL
      9734<>CALL     9744>>IF       9746>>CALL     9746<>CALL     9756<>CALL
OUT$SYM.CODE
      9604**DCL      9698>>ASSIGN
OUT$SYM.COUNT
      9621**DCL      9624--IMP-SIZ  9695>>ASSIGN   9780>>ASSIGN   9789>>CALLBLT
OUT$SYM.TEXT
      9624**DCL      9695>>ASSIGN   9780>>ASSIGN   9789>>CALLBLT
PROMPT.NODENAME
      9461**DCL      9677<<ASSIGN
PTR$ IN PROCEDURE GET_NODE
      9773**DCL      9772--PROC     9777>>DOCASE   9780>>ASSIGN   9780>>ASSIGN   9789>>CALLBLT  9789>>CALLBLT
READ_NETWORK
      9480**DCL      9775<>CALL
READ_NETWORK.STATION_
      9483**DCL      9484--REDEF
READ_NETWORK.V
      9484**DCL      9480--DCLINIT
READ_NETWORK.V.DVBYTE.REREAD#
      9495**DCL      9495--REDEF
READ_NETWORK.V.INDX#
      9493**DCL      9493--REDEF
PL6.E3A0      #001=KSC$COMMANDS File=KSC$COMMANDS1.:E05TSI                       WED 07/30/97 01:41 Page:45
TOP$
      9326**DCL         8--PROC     9552--IMP-PTR  9598--IMP-PTR  9665>>DOCASE   9667>>DOINDEX  9668>>CALL
      9671>>DOINDEX  9672>>DOCASE   9674>>CALL     9679>>ASSIGN   9680>>ASSIGN   9695>>ASSIGN   9695>>ASSIGN
      9698>>ASSIGN   9702<>CALL     9706<>CALL     9708>>CALL     9710>>CALL     9718>>CALL     9722>>IF
      9724>>CALL     9730>>CALL     9732>>IF       9734>>CALL     9739<>CALL     9742<>CALL     9744>>IF
      9746>>CALL     9751<>CALL     9754<>CALL     9756>>CALL     9758<>CALL

PL6.E3A0      #002=KSC$LINCNFG File=KSC$COMMANDS1.:E05TSI                        WED 07/30/97 01:42 Page:46
      207        1        /*T***********************************************************/
      208        2        /*T*                                                         */
      209        3        /*T* Copyright (c) Bull HN Information Systems Inc., 1997    */
      210        4        /*T*                                                         */
      211        5        /*T***********************************************************/
      212        6        KSC$LINCNFG: PROC(TOP$);
      213        7        /**/
      214        8    1   DCL TOP$ PTR;
      215        9        /**/
      216       10        %INCLUDE CP_6;
      217       91        %INCLUDE CP_6_SUBS;
      218      631        %INCLUDE XU_MACRO_C;
      219     3737        %INCLUDE B_ERRORS_C;
      220     4864        %INCLUDE F$DCB;
      221     4913        %INCLUDE KHA_FNC_E;
      222     5013        %INCLUDE KL_AFCN_C;
      223     5114        %INCLUDE KL_MACRO_C;
      224     8466        %INCLUDE KL_CONFIG_M;
      225     9228        %INCLUDE KS_SUBS_C;
      226     9471        %INCLUDE KS_MACRO_M;
      227     9668        %INCLUDE KS_DATA_R;
      228     9683        %INCLUDE KS_PERR_C;
      229     9750        %KS$BOX(TITLE="entry defs");

              9768    1   /***************************************************************************
              9769    1    *                                                                         *
              9770    1    *                                 entry defs                              *
              9771    1    *                                                                         *
              9772    1    ***************************************************************************/

      230     9777    1   DCL KSE$ERRMSG ENTRY(4);
      231     9778    1   DCL KSR$RD_HLPCG ENTRY(1) ALTRET;
      232     9779    1   DCL KSR$WR_HLPCG ENTRY(1) ALTRET;
      233     9780    1   DCL KSU$BLD_LINCNFG ENTRY(2) ALTRET;
      234     9781    1   DCL KSU$INIT_DEFCNFG ENTRY(1);
      235     9782    1   DCL KSU$BLD_LINCNFG_DEF ENTRY(2) ALTRET;
      236     9783    1   DCL KSU$BLD_TERMID ENTRY(3) ALTRET;
PL6.E3A0      #002=KSC$LINCNFG File=KSC$COMMANDS1.:E05TSI                        WED 07/30/97 01:42 Page:47
      237     9784    1   DCL KSU$CHK_TRM_RNG ENTRY(2) ALTRET;
      238     9785    1   DCL XUR$ERRMSG ENTRY(7) ALTRET;
      239     9786    1   DCL XUR$ERRCNVRT ENTRY(2);
      240     9787    1   DCL KSW$WRITE ENTRY(11);
      241     9788    1   DCL KSU$READ_NETCON ENTRY(2) ALTRET;
      242     9789    1   DCL KSU$WRITE_NETCON ENTRY(3) ALTRET;
      243     9790    1   DCL KSC$PART ENTRY(1);
      244     9791    1   DCL KSU$UNPACK ENTRY(2);
      245     9792    1   DCL KSU$PACK2 ENTRY(2);
      246     9793    1   DCL KSU$BINHEX ENTRY(2);
      247     9794    1   DCL KSU$BLD_TERMRANGE ENTRY(4) ALTRET;
      248     9795    1   DCL KSU$CHECK_FOR_FEP ENTRY(1) ALTRET;
      249     9796        /**/
      250     9797        %KS$BOX(TITLE="auto variables",PAGE=YES);

PL6.E3A0      #002=KSC$LINCNFG File=KSC$COMMANDS1.:E05TSI                        WED 07/30/97 01:42 Page:48
              9815    1   /***************************************************************************
              9816    1    *                                                                         *
              9817    1    *                               auto variables                            *
              9818    1    *                                                                         *
              9819    1    ***************************************************************************/

      251     9824    1   DCL ACTION_CMPLTED CHAR(21);
      252     9825    1   DCL CNFG_EXISTS BIT(1);
      253     9826    1   DCL CHAN UBIN;
      254     9827    1   DCL CHANHI UBIN;
      255     9828    1   DCL CODE UBIN;
      256     9829    1   DCL CHNL_NO_LO UBIN;
      257     9830    1   DCL ERR BIT(36);
      258     9831    1   DCL CHANLO UBIN;
      259     9832    1   DCL FOUND BIT(1);
      260     9833    1   DCL HNDLRNAME CHAR(8);
      261     9834    1   DCL I UBIN;
      262     9835    1   DCL J UBIN;
      263     9836    1   DCL SUB UBIN;
      264     9837    1   DCL SUBLO UBIN;
      265     9838    1   DCL SUBHI UBIN;
      266     9839    1   DCL SUBSUB UBIN;
      267     9840    1   DCL SUBSUBLO UBIN;
      268     9841    1   DCL SUBSUBHI UBIN;
      269     9842    1        DCL SUBDEV_LO  UBIN;
      270     9843    1        DCL SUBSUBDEV_LO UBIN;
      271     9844    1        DCL CHNL_NO_HI UBIN;
      272     9845    1        DCL SUBDEV_HI UBIN;
      273     9846        %B$TERMINAL_ID (FPTN=TERMLO,STCLASS=AUTO);
      274     9875        %B$TERMINAL_ID (FPTN=TERMHI,STCLASS=AUTO);
      275     9904    1        DCL SUBSUBDEV_HI UBIN;
      276     9905    1        DCL NO_CHAN BIT(1) ALIGNED;
      277     9906    1        DCL CHAN_STR CHAR(4);
      278     9907    1        DCL TERM_NAME CHAR(8);
      279     9908    1        DCL LOGON_STRING CHAR(31);
      280     9909        %B$TERMINAL_ID (FPTN = FEPLO, STCLASS = AUTO);
      281     9938        %B$TERMINAL_ID (FPTN = FEPHI, STCLASS = AUTO);
PL6.E3A0      #002=KSC$LINCNFG File=KSC$COMMANDS1.:E05TSI                        WED 07/30/97 01:42 Page:49
      282     9967    1   DCL KS_HLPCGERR BIT(1);
      283     9968        %KS$BOX(TITLE="constant variables");

              9986    1   /***************************************************************************
              9987    1    *                                                                         *
              9988    1    *                             constant variables                          *
              9989    1    *                                                                         *
              9990    1    ***************************************************************************/

      284     9995    1   DCL 1 CMPLTED_OK_FMT CONSTANT,
      285     9996    1        2 * CHAR(0)
      286     9997    1   INIT('%.1C%122#:1+.31=%1S%9N.20=%18N.30=%31#.0.2P%30#.0[%4P%8>A%31#.1.0P%?%.18LY%]%2
              9997        0#:1-(-%.16@LD%)%C'),
      287     9998    1        2 * CHAR(0) INIT('%1.0.1P%9N.0=%1.9=%1.7='),
      288     9999    1        2 * CHAR(0) INIT('%3(%1P%2:9#*S%18N.1='),
      289    10000    1        2 * CHAR(0) INIT(   '%2P%2:9#*S%18N.2='),
      290    10001    1        2 * CHAR(0) INIT(   '%1#:2#-.0[%?%0.7=%]'),
      291    10002    1        2 * CHAR(0) INIT(   '%1:9#+.9=%0#:1-.0=%7#:0#*)'),
      292    10003    1        2 * CHAR(0) INIT('Line%7#.1[ %1P%1C%?s %1P%1C to %2P%1C%]'),
      293    10004    1        2 * CHAR(0) INIT(' %3P%>LA.'),
      294    10005    1        2 * CHAR(0) INIT('%2Q');
      295    10006    1        DCL CMPLTED_OK_VEC BIT(72) DALIGNED CONSTANT INIT(VECTOR(CMPLTED_OK_FMT));
      296    10007    1   DCL ENBL_FMT CHAR(0) CONSTANT INIT('%5- terminal id %LA through %LA%10P enabled');
      297    10008    1   DCL ENBL_VEC BIT(72) DALIGNED CONSTANT INIT(VECTOR(ENBL_FMT));
      298    10009        %KS$BOX(TITLE="static variables",PAGE=YES);

PL6.E3A0      #002=KSC$LINCNFG File=KSC$COMMANDS1.:E05TSI                        WED 07/30/97 01:42 Page:50
             10027    1   /***************************************************************************
             10028    1    *                                                                         *
             10029    1    *                              static variables                           *
             10030    1    *                                                                         *
             10031    1    ***************************************************************************/

      299    10036    1   DCL CNFG_BUF(0:49) UBIN WORD STATIC INIT(0*0);
      300    10037    1   DCL CNFG$ PTR STATIC INIT(ADDR(CNFG_BUF));
      301    10038    1   DCL TMP_CNFG_BUF(0:49) UBIN WORD STATIC INIT(0*0);
      302    10039    1   DCL TMP_CNFG$ PTR STATIC INIT(ADDR(TMP_CNFG_BUF));
      303    10040        %KL$FEPHNDLR (NAME = KS_FEPHNDLR,NUM=20,STCLASS=STATIC);
      304    10070        %KL$FEPHNDLR_KEY (NAME = KS_FEPHNDLR_KEY,STCLASS=STATIC);
      305    10088    1   DCL HDR$ PTR STATIC INIT(ADDR(KS_MSGBUF));
      306    10089        %KL_ADMIN (FPTN=KS_ADMIN,STCLASS=STATIC);
      307    10249        %KL$DEFAULT_KEY (NAME=KS_DEFAULT_KEY,STCLASS=STATIC);
      308    10268        %KL$TERM (NAME=TERM_REC,STCLASS=STATIC);
      309    10317        %KL$TERM (NAME=TERM_REC_TMP,STCLASS=STATIC);
      310    10366        %KL$TERM_KEY (NAME=TERM_KEY,STCLASS=STATIC);
      311    10412        %KL_CNFG_MSG (FPTN=CNFG_MSG,STCLASS=STATIC);
      312    10695        %KL_CNFG_MSG (FPTN=RESET_MSG,CODE=%IGA_RESET);
      313    10978        %KL$CONFIG_KEY (NAME=KS_CONFIG_KEY,STCLASS=STATIC);
      314    11025        %KS$BOX(TITLE="based variables");

             11043    1   /***************************************************************************
             11044    1    *                                                                         *
             11045    1    *                              based variables                            *
             11046    1    *                                                                         *
             11047    1    ***************************************************************************/

      315    11052        %KL$LINCNFG (NAME=LINCNFG,STCLASS="BASED(CNFG$)");
      316    11210        %KL$LINCNFG (NAME=LINCNFG_TMP,STCLASS="BASED(TMP_CNFG$)");
      317    11368        %KL_ADMIN (FPTN=KL_ADMIN_RETURN,STCLASS="BASED(KS_MSGBUF$)");
      318    11528        %B$TCB;
      319    11531        %B$ALT;
      320    11539        %PARSE$OUT (NAME=OUT$BLK,STCLASS="BASED(TOP$)");
      321    11584        %PARSE$SYM (NAME=OUT$SYM,STCLASS=BASED);
      322    11622        %KL_HDR (FPTN=KS$HDR,STCLASS="BASED(HDR$)");
PL6.E3A0      #002=KSC$LINCNFG File=KSC$COMMANDS1.:E05TSI                        WED 07/30/97 01:42 Page:51
      323    11702        %KS$BOX(TITLE="symref variables");

             11720    1   /***************************************************************************
             11721    1    *                                                                         *
             11722    1    *                              symref variables                           *
             11723    1    *                                                                         *
             11724    1    ***************************************************************************/

      324    11729    1   DCL B$TCB$ PTR SYMREF;
      325    11730        %KS$BOX(TITLE="FPTs and VLPs");

             11748    1   /***************************************************************************
             11749    1    *                                                                         *
             11750    1    *                               FPTs and VLPs                             *
             11751    1    *                                                                         *
             11752    1    ***************************************************************************/

      326    11757        %FPT_READ (FPTN=READ_NETCON,
      327    11758                   DCB=M$NETCON,
      328    11759                   KEYS=YES);
      329    11798        %FPT_WRITE (FPTN=WRITE_NETCON,
      330    11799                    DCB=M$NETCON);
      331    11830        %FPT_DELREC (FPTN=DELETE_NETCON,
      332    11831                     DCB=M$NETCON);
      333    11850        %KS$BOX(TITLE="DCBs");

             11868    1   /***************************************************************************
             11869    1    *                                                                         *
             11870    1    *                                    DCBs                                 *
             11871    1    *                                                                         *
             11872    1    ***************************************************************************/

      334    11877    1   DCL M$NETCON DCB;
      335    11878        /**/
      336    11879        /*
      337    11880             variables necessary for the conversion of data from fep to
      338    11881             host byte size.
PL6.E3A0      #002=KSC$LINCNFG File=KSC$COMMANDS1.:E05TSI                        WED 07/30/97 01:42 Page:52
      339    11882        */
      340    11883    1     DCL S_R(0:17) BIT(1) BASED(S$) UNAL;
      341    11884    1     DCL S$ PTR;
      342    11885    1     DCL BINDX UBIN;
      343    11886    1     DCL D$ PTR;
      344    11887    1     DCL D_R(0:17) BIT(1) BASED(D$) UNAL;
      345    11888        %MACRO ARRAY_TO_WORD (S=JUNK,D=JUNK);
      346    11889             D$ = ADDR(D);
      347    11890             S$ = ADDR(S);
      348    11891             D = 0;
      349    11892             DO BINDX = 1 TO 8;
      350    11893                D_R(BINDX+1) = S_R(BINDX);
      351    11894             END;
      352    11895             DO BINDX = 10 TO 17;
      353    11896                D_R(BINDX) = S_R(BINDX);
      354    11897             END;
      355    11898             D = BITBIN(D_R);
      356    11899        %MEND;
      357    11900        %MACRO WORD_TO_ARRAY (S=JUNK,D=JUNK);
      358    11901             D.BYT(0) = S/256;
      359    11902             D.BYT(1) = MOD(S,256);
      360    11903        %MEND;
      361    11904        %EJECT;
PL6.E3A0      #002=KSC$LINCNFG File=KSC$COMMANDS1.:E05TSI                        WED 07/30/97 01:42 Page:53
      362    11905    2        DO CASE(OUT$BLK.CODE);
      363    11906    2           CASE(%KS_ENABLE,%KS_DISABLE,%KS_DISCONNECT,%KS_KILL);
      364    11907    2              IF OUT$BLK.SUBLK$(0)->OUT$BLK.CODE = %KS_NODE THEN
      365    11908    2                 CALL KSU$BLD_TERMRANGE (OUT$BLK.SUBLK$(1),TERMLO,TERMHI) ALTRET(ERR1);
      366    11909    2              ELSE
      367    11910    2                 CALL KSU$BLD_TERMRANGE (OUT$BLK.SUBLK$(0),TERMLO,TERMHI) ALTRET(ERR1);
      368    11911    2              IF TERMLO.TERM.TERM_NAME = ' ' THEN
      369    11912    2                 CALL KSU$CHECK_FOR_FEP (KS_NODE) ALTRET(ERR1);
      370    11913    2              TERMLO.TERM.TERM_NAME = ' ';
      371    11914    2              TERMHI.TERM.TERM_NAME = ' ';
      372    11915    3              DO CASE(OUT$BLK.CODE);
      373    11916    3                 CASE(%KS_ENABLE);
      374    11917    3                    ACTION_CMPLTED = 'Enabled';
      375    11918    3                    KS_ADMIN.FNC = %KHA_FNC_ENABLE;
      376    11919    3                 CASE(%KS_DISABLE);
      377    11920    3                    ACTION_CMPLTED = 'Disabled';
      378    11921    3                    KS_ADMIN.FNC = %KHA_FNC_DISABLE;
      379    11922    3                 CASE(%KS_DISCONNECT);
      380    11923    3                    ACTION_CMPLTED = 'Disconnected';
      381    11924    3                    KS_ADMIN.FNC = %KHA_FNC_DISCONNECT_RQS;
      382    11925    3                 CASE(%KS_KILL);
      383    11926    3                    ACTION_CMPLTED = 'Killed';
      384    11927    3                    KS_ADMIN.FNC = %KHA_FNC_KILL;
      385    11928    3                 CASE(%KS_PART);
      386    11929    3                    KS_ADMIN.FNC = %KHA_FNC_PARTITION;
      387    11930    3                 CASE(%KS_RET);
      388    11931    3                    KS_ADMIN.FNC = %KHA_FNC_RETURN;
      389    11932    3                 END;  /* DO CASE */
      390    11933    2              KS_ADMIN.HANDLER = KS_HNDLRNAME;
      391    11934    2              KS_ADMIN.TERMID_LO = TERMLO;
      392    11935    2              KS_ADMIN.TERMID_HI = TERMHI;
      393    11936    2              CALL KSR$WR_HLPCG(VECTOR(KS_ADMIN)) ALTRET(ERR);
      394    11937    2              CALL KSR$RD_HLPCG
      395    11938    3                 WHENRETURN DO;
      396    11939    3                    CALL KSW$WRITE(CMPLTED_OK_VEC,
      397    11940    3                          VECTOR(TERMLO),
      398    11941    3                          VECTOR(TERMHI),
PL6.E3A0      #002=KSC$LINCNFG File=KSC$COMMANDS1.:E05TSI                        WED 07/30/97 01:42 Page:54
      399    11942    3                          VECTOR(ACTION_CMPLTED));
      400    11943    3                 END;  /* WHENRETURN */
      401    11944    3                 WHENALTRETURN DO;
      402    11945    3                 END;  /* WHENALTRETURN */
      403    11946    2           CASE(%KS_DEFAULT);
      404    11947    2              HNDLRNAME = OUT$BLK.SUBLK$(0)->OUT$SYM.TEXT;
      405    11948    2              CNFG_BUF = '0'B;
      406    11949    2              FOUND = '0'B;
      407    11950    2              KS_FEPHNDLR_KEY.NODE = KS_NODE;
      408    11951    2              READ_NETCON.BUF_ = VECTOR (KS_FEPHNDLR);
      409    11952    2              READ_NETCON.KEY_ = VECTOR (KS_FEPHNDLR_KEY);
      410    11953    2              CALL M$READ (READ_NETCON) ALTRET(IFNDIT);
      411    11954    3      SRCH:   DO J = 0 TO KS_FEPHNDLR.NHANDLERS-1;
      412    11955    3                 IF KS_FEPHNDLR.HANDLER(J) = HNDLRNAME THEN
      413    11956    4                    DO;
      414    11957    4                    FOUND = '1'B;
      415    11958    4                    EXIT SRCH;
      416    11959    4                    END;
      417    11960    3              END;  /* do 0 to # of handlers */
      418    11961           /**/
      419    11962    2    IFNDIT:   IF NOT FOUND THEN
      420    11963    3                 DO;
      421    11964    3                 KS_SUB_BUF_1.TEXT = HNDLRNAME;
      422    11965    3                 KS_SUB_BUF_1.COUNT = SIZEC(HNDLRNAME);
      423    11966    3                 KS_SUB_BUF_2.TEXT = KS_NODENAME;
      424    11967    3                 KS_SUB_BUF_2.COUNT = SIZEC(KS_NODENAME);
      425    11968    3                 CALL KSE$ERRMSG(%E$KS_OKAYBUT,VECTOR(KS_SUB_BUF_1),VECTOR(KS_SUB_BUF_2
             11968                          ));
      426    11969                         /*E* ERROR: KSN-E$KS_OKAYBUT-0
      427    11970                          MESSAGE: WARNING...Handler %U1 has not been defined for %U2.
      428    11971                                             Processing will continue normally.
      429    11972                          MESSAGE1: Use the SET command to define a handler.
      430    11973                          DESCRIPTION: SEE MESSAGE   */
      431    11974    3                 END;  /* if not found */
      432    11975        /**/
      433    11976    2              KS_DEFAULT_KEY.NODE = KS_NODE;
      434    11977    2              KS_DEFAULT_KEY.HNDLR = HNDLRNAME;
PL6.E3A0      #002=KSC$LINCNFG File=KSC$COMMANDS1.:E05TSI                        WED 07/30/97 01:42 Page:55
      435    11978    2              READ_NETCON.BUF_ = VECTOR(CNFG_BUF);
      436    11979    2              READ_NETCON.KEY_ = VECTOR(KS_DEFAULT_KEY);
      437    11980    2              CALL M$READ(READ_NETCON) WHENRETURN
      438    11981    3                 DO;  /* save,set and restore cnfg_exists */
      439    11982    3                 CNFG_EXISTS = LINCNFG.NA.CNFG_EXISTS;
      440    11983    3                 LINCNFG.NA.CNFG_EXISTS = '1'B;
      441    11984    3                 CALL KSU$BLD_LINCNFG(TOP$,LINCNFG) ALTRET(ERR1);
      442    11985    3                 LINCNFG.NA.CNFG_EXISTS = CNFG_EXISTS;
      443    11986    3                 END;  /*  return  */
      444    11987    2              WHENALTRETURN
      445    11988    3                 DO;
      446    11989    3                 IF B$TCB$->B$TCB.ALT$->B$ALT.ERR.CODE = %E$NOKEY THEN
      447    11990    4                    DO;
      448    11991    4                    CALL KSU$BLD_LINCNFG_DEF(TOP$,LINCNFG) ALTRET(ERR1);
      449    11992    4                    END;   /* err = nokey  */
      450    11993    3                 ELSE
      451    11994    3                    GOTO ERR;
      452    11995    3                 END;  /* altreturn  */
      453    11996    2              WRITE_NETCON.KEY_ = VECTOR(KS_DEFAULT_KEY);
      454    11997    2              WRITE_NETCON.BUF_ = VECTOR(CNFG_BUF);
      455    11998    2              CALL M$WRITE(WRITE_NETCON) ALTRET(ERR);
      456    11999        %EJECT;
PL6.E3A0      #002=KSC$LINCNFG File=KSC$COMMANDS1.:E05TSI                        WED 07/30/97 01:42 Page:56
      457    12000    2   CASE(%KS_RESET);
      458    12001
      459    12002    2        NO_CHAN = '0'B;
      460    12003    2        CALL KSU$BLD_TERMRANGE (OUT$BLK.SUBLK$(0),TERMLO,TERMHI,'1')
      461    12004    3           WHENALTRETURN DO;
      462    12005    3              IF TERMLO.TERM.TERM_NAME ~= ' ' AND TERMLO.TERM.CHANNEL = '0'B THEN
      463    12006    3                 NO_CHAN = '1'B;
      464    12007    3              ELSE
      465    12008    3                 GOTO ERR1;
      466    12009    3           END;
      467    12010
      468    12011    2        IF NOT NO_CHAN THEN
      469    12012    2           CALL KSU$CHECK_FOR_FEP (KS_NODE) ALTRET(ERR1);
      470    12013
      471    12014
      472    12015    2        FEPLO = TERMLO;
      473    12016    2        FEPHI = TERMHI;
      474    12017    2        IF FEPLO.TERM.TERM_NAME ~= ' ' OR FEPHI.TERM.TERM_NAME ~= ' '
      475    12018    3           THEN DO;
      476    12019    3              FEPLO.TERM.CHANNEL = '0'B;
      477    12020    3              FEPHI.TERM.CHANNEL = '0'B;
      478    12021    3           END;
      479    12022
      480    12023    2        TERMLO.TERM.TERM_NAME = ' ';
      481    12024
      482    12025    2        IF TOP$->OUT$BLK.NSUBLKS = 1 THEN
      483    12026    2           CALL KSU$INIT_DEFCNFG(LINCNFG_TMP);
      484    12027    2        ELSE
      485    12028    3           DO;
      486    12029    3              KS_DEFAULT_KEY.NODE = KS_NODE;
      487    12030    3              KS_DEFAULT_KEY.HNDLR = TOP$->OUT$BLK.SUBLK$(1)->OUT$SYM.TEXT;
      488    12031    3              CALL KSU$READ_NETCON(VECTOR(KS_DEFAULT_KEY),VECTOR(TMP_CNFG_BUF))
      489    12032    4                 WHENALTRETURN DO;
      490    12033    4                    CALL KSE$ERRMSG(%E$KS_NO_DEFAULT_REC,VECTOR(KS_DEFAULT_KEY.HNDLR));
      491    12034                      /*E*  ERROR:  KSN-E$KS_NO_DEFAULT_REC-0
      492    12035                            MESSAGE:There is no DEFAULT record for the %U1 handler. */
      493    12036    4                    GOTO ERR1;
PL6.E3A0      #002=KSC$LINCNFG File=KSC$COMMANDS1.:E05TSI                        WED 07/30/97 01:42 Page:57
      494    12037    4                 END;
      495    12038
      496    12039    3           END;
      497    12040
      498    12041    2        RESET_MSG.KHA = LINCNFG_TMP.KHA;
      499    12042    2        RESET_MSG.NA = LINCNFG_TMP.NA;
      500    12043           /* Don't set profile or autologon, since SLUG doesn't know which handler
      501    12044              default record to read when NODEADMN asks for the profile */
      502    12045    2        RESET_MSG.NA.AUTLGN = '0'B;
      503    12046    2        RESET_MSG.NA.PROFILE = '0'B;
      504    12047
      505    12048    2        CALL KSU$PACK2 (TERMLO.TERM.CHANNEL,CHANLO);
      506    12049    2        CALL KSU$PACK2 (TERMHI.TERM.CHANNEL,CHANHI);
      507    12050    2        CALL KSU$PACK2 (TERMLO.TERM.SUBDEVICE,SUBLO);
      508    12051    2        CALL KSU$PACK2 (TERMHI.TERM.SUBDEVICE,SUBHI);
      509    12052    2        CALL KSU$PACK2 (TERMLO.TERM.SUBSUBDEVICE,SUBSUBLO);
      510    12053    2        CALL KSU$PACK2 (TERMHI.TERM.SUBSUBDEVICE,SUBSUBHI);
      511    12054
      512    12055    2   C_LOOP:
      513    12056    3        DO CHAN = CHANLO TO CHANHI BY 128;
      514    12057    3           CALL KSU$UNPACK (CHAN,TERMLO.TERM.CHANNEL);
      515    12058    4   S_LOOP: DO SUB = SUBLO TO SUBHI;
      516    12059    4              CALL KSU$UNPACK (SUB,TERMLO.TERM.SUBDEVICE);
      517    12060    5   SS_LOOP:   DO SUBSUB = SUBSUBLO TO SUBSUBHI;
      518    12061    5                 CALL KSU$UNPACK (SUBSUB,TERMLO.TERM.SUBSUBDEVICE);
      519    12062
      520    12063    5                 IF NOT NO_CHAN THEN
      521    12064    6                    DO;
      522    12065    6                       KS_ADMIN.TERMID_LO = TERMLO;
      523    12066    6                       KS_ADMIN.TERMID_HI = TERMLO;
      524    12067    6                       RESET_MSG.TERMID_LO = TERMLO;
      525    12068    6                       RESET_MSG.TERMID_HI = TERMLO;
      526    12069
      527    12070    6                       KS_ADMIN.FNC = %KHA_FNC_PARTITION;
      528    12071    6                       CALL KSR$WR_HLPCG (VECTOR(KS_ADMIN)) ALTRET(RESET_CHAN);
      529    12072    6                       CALL KSR$RD_HLPCG ('0'B);
      530    12073    6                       IF KS_DEFAULT_KEY.HNDLR ~= KL_ADMIN_RETURN.HANDLER AND
PL6.E3A0      #002=KSC$LINCNFG File=KSC$COMMANDS1.:E05TSI                        WED 07/30/97 01:42 Page:58
      531    12074    6                          KL_ADMIN_RETURN.RESULTS = '0'B AND
      532    12075    6                          TOP$->OUT$BLK.NSUBLKS ~= 1 THEN
      533    12076    7                          DO;
      534    12077    7                             CALL KSU$BINHEX (CHAN_STR,CHAN);
      535    12078    7                             CALL KSE$ERRMSG(%E$KS_WRONG_HANDLER,VECTOR(CHAN_STR),
             12078                                      VECTOR(KS_DEFAULT_KEY.HNDLR));
      536    12079                               /*E* ERROR: KSN-E$KS_WRONG_HANDLER-0
      537    12080                                   MESSAGE: Channel .%U1 is not owned by the %U2 handler. */
      538    12081    7                             EXIT S_LOOP;
      539    12082    7                          END;
      540    12083
      541    12084
      542    12085    6      RESET_CHAN:      CALL KSR$WR_HLPCG (VECTOR(RESET_MSG)) ALTRET (CHANGE_REC);
      543    12086    6                       CALL KSR$RD_HLPCG ALTRET (ERR);
      544    12087
      545    12088    6                       KS_ADMIN.FNC = %KHA_FNC_RETURN;
      546    12089    6                       CALL KSR$WR_HLPCG(VECTOR(KS_ADMIN)) ALTRET (CHANGE_REC);
      547    12090    6                       CALL KSR$RD_HLPCG ('0') ALTRET (CHANGE_REC);
      548    12091    6                    END;
      549    12092
      550    12093    5   CHANGE_REC:   KS_CONFIG_KEY.NODE = KS_NODE;
      551    12094    5                 KS_CONFIG_KEY.TERMID = TERMLO;
      552    12095    5                 IF TERMHI.TERM.TERM_NAME ~= ' ' THEN
      553    12096    6                    DO;
      554    12097    6                       KS_CONFIG_KEY.TERMID.TERM.CHANNEL = '0'B;
      555    12098    6                       KS_CONFIG_KEY.TERMID.TERM.TERM_NAME = TERMHI.TERM.TERM_NAME;
      556    12099    6                    END;
      557    12100    5                 DELETE_NETCON.KEY_ = VECTOR(KS_CONFIG_KEY);
      558    12101    5                 DELETE_NETCON.LKEY_ = VECTOR(KS_CONFIG_KEY);
      559    12102    5                 CALL M$DELREC (DELETE_NETCON);
      560    12103
      561    12104    5              END SS_LOOP;
      562    12105    4           END S_LOOP;
      563    12106    3        END C_LOOP;
      564    12107    2        IF KS_SELPRMOPT ~= %KS_FILE THEN
      565    12108    3           DO;
      566    12109    3              ACTION_CMPLTED = 'Reset';
PL6.E3A0      #002=KSC$LINCNFG File=KSC$COMMANDS1.:E05TSI                        WED 07/30/97 01:42 Page:59
      567    12110    3              CALL KSW$WRITE (CMPLTED_OK_VEC,
      568    12111    3                 VECTOR(FEPLO),
      569    12112    3                 VECTOR(FEPHI),
      570    12113    3                 VECTOR(ACTION_CMPLTED),
      571    12114    3                 VECTOR(KS_CONFIG_KEY.TERMID.TERM.TERM_NAME));
      572    12115    3           END;
      573    12116
      574    12117        %EJECT;
PL6.E3A0      #002=KSC$LINCNFG File=KSC$COMMANDS1.:E05TSI                        WED 07/30/97 01:42 Page:60
      575    12118    2           CASE(%KS_CONFIG);
      576    12119    2              NO_CHAN = '0'B;
      577    12120    2             KS_HLPCGERR = '0'B;
      578    12121    2              CALL KSU$BLD_TERMRANGE (OUT$BLK.SUBLK$(0),TERMLO,TERMHI,'1')
      579    12122    3                 WHENALTRETURN DO;
      580    12123    3                    IF TERMLO.TERM.TERM_NAME ~= ' ' AND
      581    12124    3                       TERMLO.TERM.CHANNEL = '0'B THEN
      582    12125    3                       NO_CHAN = '1'B;
      583    12126    3                    ELSE
      584    12127    3                       GOTO ERR1;
      585    12128    3                 END;
      586    12129
      587    12130    2              IF TERMLO.TERM.TERM_NAME ~= ' ' THEN
      588    12131    3                 DO;
      589    12132    3                    CALL KSU$BLD_TERMID(OUT$BLK.SUBLK$(0)->OUT$BLK.SUBLK$(0),FEPLO)
      590    12133    4                         WHENALTRETURN DO;
      591    12134    4                            IF KS_ERRCODE.CODE ~= %E$KS_NO_CHAN_FOR_TRM
      592    12135    4                            THEN GOTO ERR;
      593    12136    4                         END;  /* altret on feplo */
      594    12137
      595    12138    3                    IF OUT$BLK.SUBLK$(0)->OUT$BLK.NSUBLKS = 2 THEN
      596    12139    4                       DO;
      597    12140    4                         CALL KSU$BLD_TERMID(OUT$BLK.SUBLK$(0)->OUT$BLK.SUBLK$(1),FEPHI
             12140                                  )
      598    12141    5                              WHENALTRETURN DO;
      599    12142    5                                 IF KS_ERRCODE.CODE ~= %E$KS_NO_CHAN_FOR_TRM
      600    12143    5                                 THEN GOTO ERR1;
      601    12144    5                              END;  /* altret on fephi */
      602    12145
      603    12146    4                         CALL KSU$CHK_TRM_RNG(FEPLO,FEPHI)
      604    12147
      605    12148    5                              WHENALTRETURN DO;
      606    12149    5                                 CALL KSE$ERRMSG(%E$KS_BAD_TRM_RANGE);
      607    12150    5                                 GOTO ERR1;
      608    12151    5                              END;
      609    12152    4                       END;
      610    12153    3                 END;
PL6.E3A0      #002=KSC$LINCNFG File=KSC$COMMANDS1.:E05TSI                        WED 07/30/97 01:42 Page:61
      611    12154
      612    12155    2              IF NOT NO_CHAN THEN
      613    12156    2                 CALL KSU$CHECK_FOR_FEP (KS_NODE) ALTRET(ERR1);
      614    12157
      615    12158    2              TERM_NAME = TERMLO.TERM.TERM_NAME;
      616    12159    2                    IF TERM_NAME ~= ' ' THEN
      617    12160    3                       DO;
      618    12161    3                          TERMLO.TERM.TERM_NAME = TERM_NAME;
      619    12162    3                          TERMHI.TERM.TERM_NAME = TERM_NAME;
      620    12163    3                          TERMLO.TERM.CHANNEL = '0'B;
      621    12164    3                          TERMHI.TERM.CHANNEL = '0'B;
      622    12165    3                          KS_CONFIG_KEY.NODE = 0;
      623    12166    3                       END;
      624    12167    2                    ELSE
      625    12168    2                       KS_CONFIG_KEY.NODE = KS_NODE;
      626    12169
      627    12170    2                    KS_CONFIG_KEY.TERMID.LEV = TERMLO.LEV;
      628    12171    2                    KS_CONFIG_KEY.TERMID.TERM.TERM_NAME = TERM_NAME;
      629    12172    2                    CALL KSU$PACK2 (TERMLO.TERM.CHANNEL,CHANLO);
      630    12173    2                    CALL KSU$PACK2 (TERMHI.TERM.CHANNEL,CHANHI);
      631    12174    2                    CALL KSU$PACK2 (TERMLO.TERM.SUBDEVICE,SUBLO);
      632    12175    2                    CALL KSU$PACK2 (TERMHI.TERM.SUBDEVICE,SUBHI);
      633    12176    2                    CALL KSU$PACK2 (TERMLO.TERM.SUBSUBDEVICE,SUBSUBLO);
      634    12177    2                    CALL KSU$PACK2 (TERMHI.TERM.SUBSUBDEVICE,SUBSUBHI);
      635    12178
      636    12179    3   CON_C_LOOP:      DO CHAN = CHANLO TO CHANHI BY 128;
      637    12180    3                    CALL KSU$UNPACK (CHAN,KS_CONFIG_KEY.TERMID.TERM.CHANNEL);
      638    12181    4   CON_S_LOOP:         DO SUB = SUBLO TO SUBHI;
      639    12182    4                          CALL KSU$UNPACK (SUB,KS_CONFIG_KEY.TERMID.TERM.SUBDEVICE);
      640    12183    5   CON_SS_LOOP:           DO SUBSUB = SUBSUBLO TO SUBSUBHI;
      641    12184    5                             CALL KSU$UNPACK (SUBSUB,KS_CONFIG_KEY.TERMID.TERM.
             12184                                      SUBSUBDEVICE);
      642    12185
      643    12186    5                             CALL KSU$READ_NETCON (VECTOR(KS_CONFIG_KEY),VECTOR(
             12186                                      CNFG_BUF))
      644    12187    6                                WHENRETURN DO;
      645    12188    6                                   LINCNFG.NA.CNFG_EXISTS = '1'B;
PL6.E3A0      #002=KSC$LINCNFG File=KSC$COMMANDS1.:E05TSI                        WED 07/30/97 01:42 Page:62
      646    12189    6                                END;
      647    12190    6                                WHENALTRETURN DO;
      648    12191    6                                   IF B$TCB$->B$TCB.ALT$->B$ALT.ERR.CODE = %E$NOKEY
             12191                                            THEN
      649    12192    6                                      LINCNFG.NA.CNFG_EXISTS = '0'B;
      650    12193    6                                   ELSE
      651    12194    6                                      GOTO ERR;
      652    12195    6                                END;
      653    12196
      654    12197    5                             LOGON_STRING = LINCNFG.LGN.LGNSTRING;
      655    12198    5                             CALL KSU$BLD_LINCNFG (TOP$,LINCNFG) ALTRET(ERR1);
      656    12199
      657    12200    5              IF KS_SELPRMOPT ~= %KS_FILE THEN
      658    12201    6   CONFIG_FEP:   DO;
      659    12202    6                    IF NO_CHAN THEN
      660    12203    7                       DO;
      661    12204    7                          CALL KSE$ERRMSG (%E$KS_NO_CHAN_FOR_TRM,
      662    12205    7                             VECTOR(TERMLO.TERM.TERM_NAME));
      663    12206    7                          GOTO CONFIG_NETCON;
      664    12207    7                       END;
      665    12208    6                    ELSE
      666    12209    7                       DO;
      667    12210    7                          TERMLO.TERM.TERM_NAME = ' ';
      668    12211    7                          TERMHI.TERM.TERM_NAME = ' ';
      669    12212    7                          CNFG_MSG.TERMID_LO = KS_CONFIG_KEY.TERMID;
      670    12213    7                          CNFG_MSG.TERMID_HI = KS_CONFIG_KEY.TERMID;
      671    12214    7                          CNFG_MSG.KHA = LINCNFG.KHA;
      672    12215    7                          CNFG_MSG.NA = LINCNFG.NA;
      673    12216    7                          CNFG_MSG.NA.CNFG_EXISTS = '1'B;
      674    12217    8                          IF TERM_NAME ~= ' ' THEN DO;
      675    12218    8                             CNFG_MSG.TERMID_LO.TERM.CHANNEL = FEPLO.TERM.CHANNEL;
      676    12219    8                             CNFG_MSG.TERMID_HI.TERM.CHANNEL = FEPHI.TERM.CHANNEL;
      677    12220    8                          END;
      678    12221
      679    12222    7                          CALL KSR$WR_HLPCG (VECTOR(CNFG_MSG))
      680    12223    8                             WHENALTRETURN DO;
      681    12224    8                                CALL KSE$ERRMSG(0);
PL6.E3A0      #002=KSC$LINCNFG File=KSC$COMMANDS1.:E05TSI                        WED 07/30/97 01:42 Page:63
      682    12225    8                           KS_HLPCGERR = '1'B;
      683    12226    8                                GOTO CONFIG_NETCON;
      684    12227    8                             END;
      685    12228    7                          CALL KSR$RD_HLPCG
      686    12229    8                             WHENALTRETURN DO;
      687    12230    8                           KS_HLPCGERR = '1'B;
      688    12231    8                                IF KS$HDR.RESULTS.ERR# = %E$CHAN_NOT_THERE AND
      689    12232    8                                   TERMLO.LEV > %TERMINAL_ID_LEV_CHAN# AND
      690    12233    8                                   KS_SELPRMOPT ~= %KS_TEMP THEN
      691    12234    9                                   DO;
      692    12235    9                                      CALL KSE$ERRMSG (%E$KS_CHAN_NOT_THERE);
      693    12236                         /*E* ERROR:  KSN-E$KS_CHAN_NOT_THERE-0
      694    12237              MESSAGE: This configuration will not take effect until the FEP is rebooted. */
      695    12238    9                                   END;
      696    12239    8                                GOTO CONFIG_NETCON;
      697    12240    8                             END;
      698    12241    7                       END;
      699    12242    6                 END CONFIG_FEP;
      700    12243
      701    12244    5                 IF KS_SELPRMOPT ~= %KS_TEMP THEN
      702    12245    6   CONFIG_NETCON:   DO;
      703    12246    6                             CALL KSU$WRITE_NETCON (VECTOR(KS_CONFIG_KEY),VECTOR(
             12246                                      CNFG_BUF)) ALTRET(ERR);
      704    12247    6                             IF LINCNFG.NA.AUTLGN ~= %KS_IGNORE THEN
      705    12248    6                                IF LINCNFG.NA.AUTLGN = %KS_NO_BIT THEN
      706    12249    7                                   DO;
      707    12250    7                                   IF LOGON_STRING ~= ' ' THEN
      708    12251    8                                      DO;
      709    12252    8                                         TERM_KEY.TERMID = '0'B;
      710    12253    8                                         TERM_KEY.TERMID.TERM.TERM_NAME = LOGON_STRING;
      711    12254    8                                         TERM_REC = '0'B;
      712    12255    8                                         TERM_REC.TERMID.TERM.TERM_NAME = ' ';
      713    12256    8                                         CALL KSU$WRITE_NETCON (VECTOR(TERM_KEY),VECTOR
             12256                                                  (TERM_REC)) ALTRET(ERR);
      714    12257    8                                      END;
      715    12258    7                                   END;
      716    12259    6                                ELSE
PL6.E3A0      #002=KSC$LINCNFG File=KSC$COMMANDS1.:E05TSI                        WED 07/30/97 01:42 Page:64
      717    12260    7                                   DO;
      718    12261    7                                      TERM_KEY.TERMID = '0'B;
      719    12262    7                                      TERM_KEY.TERMID.TERM.TERM_NAME = LINCNFG.LGN.
             12262                                               LGNSTRING;
      720    12263    7                                      TERM_REC = KS_CONFIG_KEY;
      721    12264    7                                      TERM_REC.NODE = KS_NODE;
      722    12265    7                                      CALL KSU$WRITE_NETCON(VECTOR(TERM_KEY),VECTOR(
             12265                                               TERM_REC)) ALTRET(ERR);
      723    12266    7                                   END;
      724    12267    6                    END CONFIG_NETCON;
      725    12268    5                          END CON_SS_LOOP;
      726    12269    4                       END CON_S_LOOP;
      727    12270    3                    END CON_C_LOOP;
      728    12271
      729    12272    2                IF (KS_SELPRMOPT ~= %KS_FILE) AND (KS_HLPCGERR = '0'B) THEN
      730    12273    3                 DO;
      731    12274    3                    ACTION_CMPLTED = 'Configured in FEP';
      732    12275    3                    CALL KSW$WRITE (CMPLTED_OK_VEC,
      733    12276    3                       VECTOR(TERMLO),
      734    12277    3                       VECTOR(TERMHI),
      735    12278    3                       VECTOR(ACTION_CMPLTED),
      736    12279    3                       VECTOR(TERM_NAME));
      737    12280    3                 END;
      738    12281
      739    12282    2              IF KS_SELPRMOPT ~= %KS_TEMP THEN
      740    12283    3                 DO;
      741    12284    3                    ACTION_CMPLTED = 'Configured in :NETCON';
      742    12285    3                    CALL KSW$WRITE (CMPLTED_OK_VEC,
      743    12286    3                       VECTOR(TERMLO),
      744    12287    3                       VECTOR(TERMHI),
      745    12288    3                       VECTOR(ACTION_CMPLTED),
      746    12289    3                       VECTOR(TERM_NAME));
      747    12290    3                 END;
      748    12291    2           END;  /* DO CASE */
      749    12292    2        DO WHILE('0'B);
      750    12293    2   ERR:    CALL KSE$ERRMSG(0);
      751    12294    2   ERR1:   CALL KSE$ERRMSG(%E$KS_CANTDOIT);
PL6.E3A0      #002=KSC$LINCNFG File=KSC$COMMANDS1.:E05TSI                        WED 07/30/97 01:42 Page:65
      752    12295                /*E* ERROR: KSN-E$KS_CANTDOIT-0
      753    12296                     MESSAGE: Unable to perform the requested function.
      754    12297                     DESCRIPTION: SEE MESSAGE */
      755    12298    2           END;  /* DO NEVER */
      756    12299    1        RETURN;
      757    12300    1   END KSC$LINCNFG;
      758    12301        %EOD;

PL6.E3A0      #002=KSC$LINCNFG File=KSC$COMMANDS1.:E05TSI                        WED 07/30/97 01:42 Page:66
--  Include file information  --

   KS_PERR_C.:E05TOU  is referenced.
   KS_DATA_R.:E05TOU  cannot be made into a system file and is referenced.
   KS_MACRO_M.:E05TOU  is referenced.
   KS_SUBS_C.:E05TOU  is referenced.
   KL_CONFIG_M.:E05TOU  is referenced.
   KL_MACRO_C.:E05TOU  is referenced.
   KL_AFCN_C.:E05TOU  is referenced.
   KHA_FNC_E.:E05TOU  is referenced.
   F$DCB.:E05TOU  cannot be made into a system file and is referenced.
   B_ERRORS_C.:E05TOU  is referenced.
   XU_MACRO_C.:E05TOU  is referenced.
   CP_6_SUBS.:E05TOU  is referenced.
   CP_6.:E05TOU  cannot be made into a system file and is referenced.
   B$JIT_C.:E05TOU  was found in the system file and is never referenced.
   CP_6_C.:E05TOU  was found in the system file and is referenced.
      No diagnostics issued in procedure KSC$LINCNFG.

   Procedure KSC$LINCNFG requires 1104 words for executable code.
   Procedure KSC$LINCNFG requires 96 words of local(AUTO) storage.

PL6.E3A0      #002=KSC$LINCNFG File=KSC$COMMANDS1.:E05TSI                        WED 07/30/97 01:42 Page:67

 Object Unit name= KSC$LINCNFG                                File name= KSC$COMMANDS1.:E05TOU
 UTS= JUL 30 '97 01:42:47.44 WED                              Compiler= PL-6/E31         Sev=      00
 SharedLib= :SHARED_SYSTEM                                    Alt SharedLib=


    ****  Control sections  ****

 Sect   Type Bound  Init  Size OctSiz  Section name(segment info)
    0   DCB   even  none     0      0  M$UC
    1  RoData even  UTS    102    146  KSC$LINCNFG
    2   Data  even  none   272    420  KSC$LINCNFG
    3   DCB   even  none     0      0  M$NETCON
    4   Proc  even  none  1104   2120  KSC$LINCNFG
    5  RoData even  none    82    122  KSC$LINCNFG

    ****  Entry defs  ****

                              Check   Calling
                             calling  sequence
  Sect OctLoc Primary Altret sequence   type   Parms  Name
     4      0   yes            yes      Std        1  KSC$LINCNFG
PL6.E3A0      #002=KSC$LINCNFG File=KSC$COMMANDS1.:E05TSI                        WED 07/30/97 01:42 Page:68

  ****  Entry refs  ****

         Check        Calling
        calling       sequence
Altret sequence SRef   type   Args  Name
 yes     yes           Std       4 KSU$BLD_TERMRANGE
 yes     yes           Std       1 KSU$CHECK_FOR_FEP
 yes     yes           Std       1 KSR$WR_HLPCG
 yes     yes           Std       1 KSR$RD_HLPCG
         yes           Std      11 KSW$WRITE
 yes     yes           Std       2 KSU$BLD_LINCNFG
         yes           Std       1 KSU$INIT_DEFCNFG
 yes     yes           Std       2 KSU$BLD_LINCNFG_DEF
         yes           Std       2 KSU$PACK2
 yes     yes           Std       2 KSU$READ_NETCON
 yes     yes           Std       2 KSU$CHK_TRM_RNG
 yes     yes           Std       3 KSU$WRITE_NETCON
         yes           Std       2 KSU$BINHEX
         yes           Std       4 KSE$ERRMSG
         yes           Std       2 KSU$UNPACK
 yes     yes           Std       3 KSU$BLD_TERMID
                       nStd      0 X66_AUTO_1
                       Std       0 B_CONSPOOL_D
                       nStd      0 X66_ARET

  ****  Data refs  ****

  Flags:  r = read only, s = secondary
Flgs Name                             Flgs Name                             Flgs Name
     M$UC                                  KS_MYSTATION                          KS_NODENAME
     KS_SELPRMOPT                          KS_NODE                               KS_HNDLRNAME
     KS_ERRCODE                            KS_MSGBUF                             KS_MSGBUF$
     KS_SUB_BUF_1                          KS_SUB_BUF_2                          B$TCB$
     M$NETCON                              B_VECTNIL
PL6.E3A0      #002=KSC$LINCNFG File=KSC$COMMANDS1.:E05TSI                        WED 07/30/97 01:42 Page:69

  ****  Segment refs  ****

  Flags:  r = read only, s = secondary
Flgs Name                             Flgs Name                             Flgs Name
     ISSID                                 NULLSID
PL6.E3A0      #002=KSC$LINCNFG File=KSC$COMMANDS1.:E05TSI                        WED 07/30/97 01:42 Page:70


      207        1        /*T***********************************************************/
      208        2        /*T*                                                         */
      209        3        /*T* Copyright (c) Bull HN Information Systems Inc., 1997    */
      210        4        /*T*                                                         */
      211        5        /*T***********************************************************/
      212        6        KSC$LINCNFG: PROC(TOP$);

      6  4 000000   000000 700200 xent  KSC$LINCNFG  TSX0  ! X66_AUTO_1
         4 000001   000140 000001                    ZERO    96,1

      213        7        /**/
      214        8    1   DCL TOP$ PTR;
      215        9        /**/
      216       10        %INCLUDE CP_6;
      217       91        %INCLUDE CP_6_SUBS;
      218      631        %INCLUDE XU_MACRO_C;
      219     3737        %INCLUDE B_ERRORS_C;
      220     4864        %INCLUDE F$DCB;
      221     4913        %INCLUDE KHA_FNC_E;
      222     5013        %INCLUDE KL_AFCN_C;
      223     5114        %INCLUDE KL_MACRO_C;
      224     8466        %INCLUDE KL_CONFIG_M;
      225     9228        %INCLUDE KS_SUBS_C;
      226     9471        %INCLUDE KS_MACRO_M;
      227     9668        %INCLUDE KS_DATA_R;
      228     9683        %INCLUDE KS_PERR_C;
      229     9750        %KS$BOX(TITLE="entry defs");

              9768    1   /***************************************************************************
              9769    1    *                                                                         *
              9770    1    *                                 entry defs                              *
              9771    1    *                                                                         *
              9772    1    ***************************************************************************/

      230     9777    1   DCL KSE$ERRMSG ENTRY(4);
      231     9778    1   DCL KSR$RD_HLPCG ENTRY(1) ALTRET;
PL6.E3A0      #002=KSC$LINCNFG File=KSC$COMMANDS1.:E05TSI                        WED 07/30/97 01:42 Page:71
      232     9779    1   DCL KSR$WR_HLPCG ENTRY(1) ALTRET;
      233     9780    1   DCL KSU$BLD_LINCNFG ENTRY(2) ALTRET;
      234     9781    1   DCL KSU$INIT_DEFCNFG ENTRY(1);
      235     9782    1   DCL KSU$BLD_LINCNFG_DEF ENTRY(2) ALTRET;
      236     9783    1   DCL KSU$BLD_TERMID ENTRY(3) ALTRET;
      237     9784    1   DCL KSU$CHK_TRM_RNG ENTRY(2) ALTRET;
      238     9785    1   DCL XUR$ERRMSG ENTRY(7) ALTRET;
      239     9786    1   DCL XUR$ERRCNVRT ENTRY(2);
      240     9787    1   DCL KSW$WRITE ENTRY(11);
      241     9788    1   DCL KSU$READ_NETCON ENTRY(2) ALTRET;
      242     9789    1   DCL KSU$WRITE_NETCON ENTRY(3) ALTRET;
      243     9790    1   DCL KSC$PART ENTRY(1);
      244     9791    1   DCL KSU$UNPACK ENTRY(2);
      245     9792    1   DCL KSU$PACK2 ENTRY(2);
      246     9793    1   DCL KSU$BINHEX ENTRY(2);
      247     9794    1   DCL KSU$BLD_TERMRANGE ENTRY(4) ALTRET;
      248     9795    1   DCL KSU$CHECK_FOR_FEP ENTRY(1) ALTRET;
      249     9796        /**/
      250     9797        %KS$BOX(TITLE="auto variables",PAGE=YES);

PL6.E3A0      #002=KSC$LINCNFG File=KSC$COMMANDS1.:E05TSI                        WED 07/30/97 01:42 Page:72
              9815    1   /***************************************************************************
              9816    1    *                                                                         *
              9817    1    *                               auto variables                            *
              9818    1    *                                                                         *
              9819    1    ***************************************************************************/

      251     9824    1   DCL ACTION_CMPLTED CHAR(21);
      252     9825    1   DCL CNFG_EXISTS BIT(1);
      253     9826    1   DCL CHAN UBIN;
      254     9827    1   DCL CHANHI UBIN;
      255     9828    1   DCL CODE UBIN;
      256     9829    1   DCL CHNL_NO_LO UBIN;
      257     9830    1   DCL ERR BIT(36);
      258     9831    1   DCL CHANLO UBIN;
      259     9832    1   DCL FOUND BIT(1);
      260     9833    1   DCL HNDLRNAME CHAR(8);
      261     9834    1   DCL I UBIN;
      262     9835    1   DCL J UBIN;
      263     9836    1   DCL SUB UBIN;
      264     9837    1   DCL SUBLO UBIN;
      265     9838    1   DCL SUBHI UBIN;
      266     9839    1   DCL SUBSUB UBIN;
      267     9840    1   DCL SUBSUBLO UBIN;
      268     9841    1   DCL SUBSUBHI UBIN;
      269     9842    1        DCL SUBDEV_LO  UBIN;
      270     9843    1        DCL SUBSUBDEV_LO UBIN;
      271     9844    1        DCL CHNL_NO_HI UBIN;
      272     9845    1        DCL SUBDEV_HI UBIN;
      273     9846        %B$TERMINAL_ID (FPTN=TERMLO,STCLASS=AUTO);
      274     9875        %B$TERMINAL_ID (FPTN=TERMHI,STCLASS=AUTO);
      275     9904    1        DCL SUBSUBDEV_HI UBIN;
      276     9905    1        DCL NO_CHAN BIT(1) ALIGNED;
      277     9906    1        DCL CHAN_STR CHAR(4);
      278     9907    1        DCL TERM_NAME CHAR(8);
      279     9908    1        DCL LOGON_STRING CHAR(31);
      280     9909        %B$TERMINAL_ID (FPTN = FEPLO, STCLASS = AUTO);
      281     9938        %B$TERMINAL_ID (FPTN = FEPHI, STCLASS = AUTO);
PL6.E3A0      #002=KSC$LINCNFG File=KSC$COMMANDS1.:E05TSI                        WED 07/30/97 01:42 Page:73
      282     9967    1   DCL KS_HLPCGERR BIT(1);
      283     9968        %KS$BOX(TITLE="constant variables");

              9986    1   /***************************************************************************
              9987    1    *                                                                         *
              9988    1    *                             constant variables                          *
              9989    1    *                                                                         *
              9990    1    ***************************************************************************/

      284     9995    1   DCL 1 CMPLTED_OK_FMT CONSTANT,
      285     9996    1        2 * CHAR(0)
      286     9997    1  INIT('%.1C%122#:1+.31=%1S%9N.20=%18N.30=%31#.0.2P%30#.0[%4P%8>A%31#.1.0P%?%.18LY%]%2
              9997        0#:1-(-%.16@LD%)%C'),
      287     9998    1        2 * CHAR(0) INIT('%1.0.1P%9N.0=%1.9=%1.7='),
      288     9999    1        2 * CHAR(0) INIT('%3(%1P%2:9#*S%18N.1='),
      289    10000    1        2 * CHAR(0) INIT(   '%2P%2:9#*S%18N.2='),
      290    10001    1        2 * CHAR(0) INIT(   '%1#:2#-.0[%?%0.7=%]'),
      291    10002    1        2 * CHAR(0) INIT(   '%1:9#+.9=%0#:1-.0=%7#:0#*)'),
      292    10003    1        2 * CHAR(0) INIT('Line%7#.1[ %1P%1C%?s %1P%1C to %2P%1C%]'),
      293    10004    1        2 * CHAR(0) INIT(' %3P%>LA.'),
      294    10005    1        2 * CHAR(0) INIT('%2Q');
      295    10006    1        DCL CMPLTED_OK_VEC BIT(72) DALIGNED CONSTANT INIT(VECTOR(CMPLTED_OK_FMT));
      296    10007    1   DCL ENBL_FMT CHAR(0) CONSTANT INIT('%5- terminal id %LA through %LA%10P enabled');
      297    10008    1   DCL ENBL_VEC BIT(72) DALIGNED CONSTANT INIT(VECTOR(ENBL_FMT));
      298    10009        %KS$BOX(TITLE="static variables",PAGE=YES);

PL6.E3A0      #002=KSC$LINCNFG File=KSC$COMMANDS1.:E05TSI                        WED 07/30/97 01:42 Page:74
             10027    1   /***************************************************************************
             10028    1    *                                                                         *
             10029    1    *                              static variables                           *
             10030    1    *                                                                         *
             10031    1    ***************************************************************************/

      299    10036    1   DCL CNFG_BUF(0:49) UBIN WORD STATIC INIT(0*0);
      300    10037    1   DCL CNFG$ PTR STATIC INIT(ADDR(CNFG_BUF));
      301    10038    1   DCL TMP_CNFG_BUF(0:49) UBIN WORD STATIC INIT(0*0);
      302    10039    1   DCL TMP_CNFG$ PTR STATIC INIT(ADDR(TMP_CNFG_BUF));
      303    10040        %KL$FEPHNDLR (NAME = KS_FEPHNDLR,NUM=20,STCLASS=STATIC);
      304    10070        %KL$FEPHNDLR_KEY (NAME = KS_FEPHNDLR_KEY,STCLASS=STATIC);
      305    10088    1   DCL HDR$ PTR STATIC INIT(ADDR(KS_MSGBUF));
      306    10089        %KL_ADMIN (FPTN=KS_ADMIN,STCLASS=STATIC);
      307    10249        %KL$DEFAULT_KEY (NAME=KS_DEFAULT_KEY,STCLASS=STATIC);
      308    10268        %KL$TERM (NAME=TERM_REC,STCLASS=STATIC);
      309    10317        %KL$TERM (NAME=TERM_REC_TMP,STCLASS=STATIC);
      310    10366        %KL$TERM_KEY (NAME=TERM_KEY,STCLASS=STATIC);
      311    10412        %KL_CNFG_MSG (FPTN=CNFG_MSG,STCLASS=STATIC);
      312    10695        %KL_CNFG_MSG (FPTN=RESET_MSG,CODE=%IGA_RESET);
      313    10978        %KL$CONFIG_KEY (NAME=KS_CONFIG_KEY,STCLASS=STATIC);
      314    11025        %KS$BOX(TITLE="based variables");

             11043    1   /***************************************************************************
             11044    1    *                                                                         *
             11045    1    *                              based variables                            *
             11046    1    *                                                                         *
             11047    1    ***************************************************************************/

      315    11052        %KL$LINCNFG (NAME=LINCNFG,STCLASS="BASED(CNFG$)");
      316    11210        %KL$LINCNFG (NAME=LINCNFG_TMP,STCLASS="BASED(TMP_CNFG$)");
      317    11368        %KL_ADMIN (FPTN=KL_ADMIN_RETURN,STCLASS="BASED(KS_MSGBUF$)");
      318    11528        %B$TCB;
      319    11531        %B$ALT;
      320    11539        %PARSE$OUT (NAME=OUT$BLK,STCLASS="BASED(TOP$)");
      321    11584        %PARSE$SYM (NAME=OUT$SYM,STCLASS=BASED);
      322    11622        %KL_HDR (FPTN=KS$HDR,STCLASS="BASED(HDR$)");
PL6.E3A0      #002=KSC$LINCNFG File=KSC$COMMANDS1.:E05TSI                        WED 07/30/97 01:42 Page:75
      323    11702        %KS$BOX(TITLE="symref variables");

             11720    1   /***************************************************************************
             11721    1    *                                                                         *
             11722    1    *                              symref variables                           *
             11723    1    *                                                                         *
             11724    1    ***************************************************************************/

      324    11729    1   DCL B$TCB$ PTR SYMREF;
      325    11730        %KS$BOX(TITLE="FPTs and VLPs");

             11748    1   /***************************************************************************
             11749    1    *                                                                         *
             11750    1    *                               FPTs and VLPs                             *
             11751    1    *                                                                         *
             11752    1    ***************************************************************************/

      326    11757        %FPT_READ (FPTN=READ_NETCON,
      327    11758                   DCB=M$NETCON,
      328    11759                   KEYS=YES);
      329    11798        %FPT_WRITE (FPTN=WRITE_NETCON,
      330    11799                    DCB=M$NETCON);
      331    11830        %FPT_DELREC (FPTN=DELETE_NETCON,
      332    11831                     DCB=M$NETCON);
      333    11850        %KS$BOX(TITLE="DCBs");

             11868    1   /***************************************************************************
             11869    1    *                                                                         *
             11870    1    *                                    DCBs                                 *
             11871    1    *                                                                         *
             11872    1    ***************************************************************************/

      334    11877    1   DCL M$NETCON DCB;
      335    11878        /**/
      336    11879        /*
      337    11880             variables necessary for the conversion of data from fep to
      338    11881             host byte size.
PL6.E3A0      #002=KSC$LINCNFG File=KSC$COMMANDS1.:E05TSI                        WED 07/30/97 01:42 Page:76
      339    11882        */
      340    11883    1     DCL S_R(0:17) BIT(1) BASED(S$) UNAL;
      341    11884    1     DCL S$ PTR;
      342    11885    1     DCL BINDX UBIN;
      343    11886    1     DCL D$ PTR;
      344    11887    1     DCL D_R(0:17) BIT(1) BASED(D$) UNAL;
      345    11888        %MACRO ARRAY_TO_WORD (S=JUNK,D=JUNK);
      346    11889             D$ = ADDR(D);
      347    11890             S$ = ADDR(S);
      348    11891             D = 0;
      349    11892             DO BINDX = 1 TO 8;
      350    11893                D_R(BINDX+1) = S_R(BINDX);
      351    11894             END;
      352    11895             DO BINDX = 10 TO 17;
      353    11896                D_R(BINDX) = S_R(BINDX);
      354    11897             END;
      355    11898             D = BITBIN(D_R);
      356    11899        %MEND;
      357    11900        %MACRO WORD_TO_ARRAY (S=JUNK,D=JUNK);
      358    11901             D.BYT(0) = S/256;
      359    11902             D.BYT(1) = MOD(S,256);
      360    11903        %MEND;
      361    11904        %EJECT;
PL6.E3A0      #002=KSC$LINCNFG File=KSC$COMMANDS1.:E05TSI                        WED 07/30/97 01:42 Page:77
      362    11905    2        DO CASE(OUT$BLK.CODE);

  11905  4 000002   200003 470500                    LDP0    @TOP$,,AUTO
         4 000003   000000 471500                    LDP1    0,,PR0
         4 000004   100000 720100                    LXL0    0,,PR1
         4 000005   000010 100003                    CMPX0   8,DU
         4 000006   000010 602010 4                  TNC     s:11905+6,X0
         4 000007   002106 710000 4                  TRA     s:12292
         4 000010   002106 710000 4                  TRA     s:12292
         4 000011   000020 710000 4                  TRA     s:11907
         4 000012   000020 710000 4                  TRA     s:11907
         4 000013   000020 710000 4                  TRA     s:11907
         4 000014   000020 710000 4                  TRA     s:11907
         4 000015   001133 710000 4                  TRA     s:12119
         4 000016   000226 710000 4                  TRA     s:11947
         4 000017   000405 710000 4                  TRA     s:12002

      363    11906    2           CASE(%KS_ENABLE,%KS_DISABLE,%KS_DISCONNECT,%KS_KILL);

      364    11907    2              IF OUT$BLK.SUBLK$(0)->OUT$BLK.CODE = %KS_NODE THEN

  11907  4 000020   100003 473500                    LDP3    3,,PR1
         4 000021   300000 721100                    LXL1    0,,PR3
         4 000022   000001 101003                    CMPX1   1,DU
         4 000023   000037 601000 4                  TNZ     s:11910

      365    11908    2                CALL KSU$BLD_TERMRANGE (OUT$BLK.SUBLK$(1),TERMLO,TERMHI) ALTRET(ERR1);

  11908  4 000024   200044 634500                    EPPR4   TERMHI,,AUTO
         4 000025   200104 454500                    STP4    D$+4,,AUTO
         4 000026   200040 633500                    EPPR3   TERMLO,,AUTO
         4 000027   200103 453500                    STP3    D$+3,,AUTO
         4 000030   100004 635500                    EPPR5   4,,PR1
         4 000031   200102 455500                    STP5    D$+2,,AUTO
         4 000032   200102 630500                    EPPR0   D$+2,,AUTO
         4 000033   000021 631400 xsym               EPPR1   B_VECTNIL+17
         4 000034   000000 701000 xent               TSX1    KSU$BLD_TERMRANGE
PL6.E3A0      #002=KSC$LINCNFG File=KSC$COMMANDS1.:E05TSI                        WED 07/30/97 01:42 Page:78
         4 000035   002113 702000 4                  TSX2    ERR1
         4 000036   000051 710000 4                  TRA     s:11911

      366    11909    2              ELSE
      367    11910    2                CALL KSU$BLD_TERMRANGE (OUT$BLK.SUBLK$(0),TERMLO,TERMHI) ALTRET(ERR1);

  11910  4 000037   200044 634500                    EPPR4   TERMHI,,AUTO
         4 000040   200104 454500                    STP4    D$+4,,AUTO
         4 000041   200040 633500                    EPPR3   TERMLO,,AUTO
         4 000042   200103 453500                    STP3    D$+3,,AUTO
         4 000043   100003 635500                    EPPR5   3,,PR1
         4 000044   200102 455500                    STP5    D$+2,,AUTO
         4 000045   200102 630500                    EPPR0   D$+2,,AUTO
         4 000046   000021 631400 xsym               EPPR1   B_VECTNIL+17
         4 000047   000000 701000 xent               TSX1    KSU$BLD_TERMRANGE
         4 000050   002113 702000 4                  TSX2    ERR1

      368    11911    2              IF TERMLO.TERM.TERM_NAME = ' ' THEN

  11911  4 000051   200042 237100                    LDAQ    TERMLO+2,,AUTO
         4 000052   000000 117000 5                  CMPAQ   0
         4 000053   000060 601000 4                  TNZ     s:11913

      369    11912    2                 CALL KSU$CHECK_FOR_FEP (KS_NODE) ALTRET(ERR1);

  11912  4 000054   000002 630400 5                  EPPR0   2
         4 000055   000017 631400 xsym               EPPR1   B_VECTNIL+15
         4 000056   000000 701000 xent               TSX1    KSU$CHECK_FOR_FEP
         4 000057   002113 702000 4                  TSX2    ERR1

      370    11913    2              TERMLO.TERM.TERM_NAME = ' ';

  11913  4 000060   000035 235000 xsym               LDA     B_VECTNIL+29
         4 000061   000035 236000 xsym               LDQ     B_VECTNIL+29
         4 000062   200042 757100                    STAQ    TERMLO+2,,AUTO

      371    11914    2              TERMHI.TERM.TERM_NAME = ' ';
PL6.E3A0      #002=KSC$LINCNFG File=KSC$COMMANDS1.:E05TSI                        WED 07/30/97 01:42 Page:79

  11914  4 000063   000035 235000 xsym               LDA     B_VECTNIL+29
         4 000064   000035 236000 xsym               LDQ     B_VECTNIL+29
         4 000065   200046 757100                    STAQ    TERMHI+2,,AUTO

      372    11915    3              DO CASE(OUT$BLK.CODE);

  11915  4 000066   200003 470500                    LDP0    @TOP$,,AUTO
         4 000067   000000 471500                    LDP1    0,,PR0
         4 000070   100000 720100                    LXL0    0,,PR1
         4 000071   000012 100003                    CMPX0   10,DU
         4 000072   000074 602010 4                  TNC     s:11915+6,X0
         4 000073   000143 710000 4                  TRA     s:11933
         4 000074   000143 710000 4                  TRA     s:11933
         4 000075   000106 710000 4                  TRA     s:11917
         4 000076   000114 710000 4                  TRA     s:11920
         4 000077   000122 710000 4                  TRA     s:11923
         4 000100   000130 710000 4                  TRA     s:11926
         4 000101   000143 710000 4                  TRA     s:11933
         4 000102   000143 710000 4                  TRA     s:11933
         4 000103   000143 710000 4                  TRA     s:11933
         4 000104   000136 710000 4                  TRA     s:11929
         4 000105   000141 710000 4                  TRA     s:11931

      373    11916    3                 CASE(%KS_ENABLE);

      374    11917    3                    ACTION_CMPLTED = 'Enabled';

  11917  4 000106   040100 100400                    MLR     fill='040'O
         4 000107   000120 000007 1                  ADSC9   ENBL_FMT+14              cn=0,n=7
         4 000110   200004 000025                    ADSC9   ACTION_CMPLTED,,AUTO     cn=0,n=21

      375    11918    3                    KS_ADMIN.FNC = %KHA_FNC_ENABLE;

  11918  4 000111   000001 220003                    LDX0    1,DU
         4 000112   000236 440000 2                  SXL0    KS_ADMIN+8
         4 000113   000143 710000 4                  TRA     s:11933
PL6.E3A0      #002=KSC$LINCNFG File=KSC$COMMANDS1.:E05TSI                        WED 07/30/97 01:42 Page:80

      376    11919    3                 CASE(%KS_DISABLE);

      377    11920    3                    ACTION_CMPLTED = 'Disabled';

  11920  4 000114   040100 100400                    MLR     fill='040'O
         4 000115   000122 000010 1                  ADSC9   ENBL_FMT+16              cn=0,n=8
         4 000116   200004 000025                    ADSC9   ACTION_CMPLTED,,AUTO     cn=0,n=21

      378    11921    3                    KS_ADMIN.FNC = %KHA_FNC_DISABLE;

  11921  4 000117   000002 220003                    LDX0    2,DU
         4 000120   000236 440000 2                  SXL0    KS_ADMIN+8
         4 000121   000143 710000 4                  TRA     s:11933

      379    11922    3                 CASE(%KS_DISCONNECT);

      380    11923    3                    ACTION_CMPLTED = 'Disconnected';

  11923  4 000122   040100 100400                    MLR     fill='040'O
         4 000123   000124 000014 1                  ADSC9   ENBL_FMT+18              cn=0,n=12
         4 000124   200004 000025                    ADSC9   ACTION_CMPLTED,,AUTO     cn=0,n=21

      381    11924    3                    KS_ADMIN.FNC = %KHA_FNC_DISCONNECT_RQS;

  11924  4 000125   000015 220003                    LDX0    13,DU
         4 000126   000236 440000 2                  SXL0    KS_ADMIN+8
         4 000127   000143 710000 4                  TRA     s:11933

      382    11925    3                 CASE(%KS_KILL);

      383    11926    3                    ACTION_CMPLTED = 'Killed';

  11926  4 000130   040100 100400                    MLR     fill='040'O
         4 000131   000127 000006 1                  ADSC9   ENBL_FMT+21              cn=0,n=6
         4 000132   200004 000025                    ADSC9   ACTION_CMPLTED,,AUTO     cn=0,n=21

PL6.E3A0      #002=KSC$LINCNFG File=KSC$COMMANDS1.:E05TSI                        WED 07/30/97 01:42 Page:81
      384    11927    3                    KS_ADMIN.FNC = %KHA_FNC_KILL;

  11927  4 000133   000003 220003                    LDX0    3,DU
         4 000134   000236 440000 2                  SXL0    KS_ADMIN+8
         4 000135   000143 710000 4                  TRA     s:11933

      385    11928    3                 CASE(%KS_PART);

      386    11929    3                    KS_ADMIN.FNC = %KHA_FNC_PARTITION;

  11929  4 000136   000007 221003                    LDX1    7,DU
         4 000137   000236 441000 2                  SXL1    KS_ADMIN+8
         4 000140   000143 710000 4                  TRA     s:11933

      387    11930    3                 CASE(%KS_RET);

      388    11931    3                    KS_ADMIN.FNC = %KHA_FNC_RETURN;

  11931  4 000141   000011 221003                    LDX1    9,DU
         4 000142   000236 441000 2                  SXL1    KS_ADMIN+8

      389    11932    3                 END;  /* DO CASE */

      390    11933    2              KS_ADMIN.HANDLER = KS_HNDLRNAME;

  11933  4 000143   040000 100400                    MLR     fill='040'O
         4 000144   000000 000010 xsym               ADSC9   KS_HNDLRNAME             cn=0,n=8
         4 000145   000227 000010 2                  ADSC9   KS_ADMIN+1               cn=0,n=8

      391    11934    2              KS_ADMIN.TERMID_LO = TERMLO;

  11934  4 000146   000000 100500                    MLR     fill='000'O
         4 000147   200040 000020                    ADSC9   TERMLO,,AUTO             cn=0,n=16
         4 000150   000237 000020 2                  ADSC9   KS_ADMIN+9               cn=0,n=16

      392    11935    2              KS_ADMIN.TERMID_HI = TERMHI;

PL6.E3A0      #002=KSC$LINCNFG File=KSC$COMMANDS1.:E05TSI                        WED 07/30/97 01:42 Page:82
  11935  4 000151   000000 100500                    MLR     fill='000'O
         4 000152   200044 000020                    ADSC9   TERMHI,,AUTO             cn=0,n=16
         4 000153   000243 000020 2                  ADSC9   KS_ADMIN+13              cn=0,n=16

      393    11936    2              CALL KSR$WR_HLPCG(VECTOR(KS_ADMIN)) ALTRET(ERR);

  11936  4 000154   000006 630400 5                  EPPR0   6
         4 000155   000017 631400 xsym               EPPR1   B_VECTNIL+15
         4 000156   000000 701000 xent               TSX1    KSR$WR_HLPCG
         4 000157   002107 702000 4                  TSX2    ERR

      394    11937    2              CALL KSR$RD_HLPCG

  11937  4 000160   000002 631400 xsym               EPPR1   B_VECTNIL+2
         4 000161   000000 701000 xent               TSX1    KSR$RD_HLPCG
         4 000162   000225 702000 4                  TSX2    s:11945

      395    11938    3                 WHENRETURN DO;

      396    11939    3                    CALL KSW$WRITE(CMPLTED_OK_VEC,

  11939  4 000163   000007 235000 5                  LDA     7
         4 000164   200102 452500                    STP2    D$+2,,AUTO
         4 000165   200102 236100                    LDQ     D$+2,,AUTO
         4 000166   000040 036003                    ADLQ    32,DU
         4 000167   200104 757100                    STAQ    D$+4,,AUTO
         4 000170   000007 235000 5                  LDA     7
         4 000171   200106 452500                    STP2    D$+6,,AUTO
         4 000172   200106 236100                    LDQ     D$+6,,AUTO
         4 000173   000044 036003                    ADLQ    36,DU
         4 000174   200110 757100                    STAQ    D$+8,,AUTO
         4 000175   000010 235000 5                  LDA     8
         4 000176   200112 452500                    STP2    D$+10,,AUTO
         4 000177   200112 236100                    LDQ     D$+10,,AUTO
         4 000200   000004 036003                    ADLQ    4,DU
         4 000201   200116 757100                    STAQ    D$+14,,AUTO
         4 000202   200104 237100                    LDAQ    D$+4,,AUTO
PL6.E3A0      #002=KSC$LINCNFG File=KSC$COMMANDS1.:E05TSI                        WED 07/30/97 01:42 Page:83
         4 000203   200114 757100                    STAQ    D$+12,,AUTO
         4 000204   200110 237100                    LDAQ    D$+8,,AUTO
         4 000205   200120 757100                    STAQ    D$+16,,AUTO
         4 000206   200116 237100                    LDAQ    D$+14,,AUTO
         4 000207   200122 757100                    STAQ    D$+18,,AUTO
         4 000210   200122 630500                    EPPR0   D$+18,,AUTO
         4 000211   200127 450500                    STP0    D$+23,,AUTO
         4 000212   200120 631500                    EPPR1   D$+16,,AUTO
         4 000213   200126 451500                    STP1    D$+22,,AUTO
         4 000214   200114 633500                    EPPR3   D$+12,,AUTO
         4 000215   200125 453500                    STP3    D$+21,,AUTO
         4 000216   000011 236000 5                  LDQ     9
         4 000217   200124 756100                    STQ     D$+20,,AUTO
         4 000220   200124 630500                    EPPR0   D$+20,,AUTO
         4 000221   000022 631400 xsym               EPPR1   B_VECTNIL+18
         4 000222   000000 701000 xent               TSX1    KSW$WRITE
         4 000223   000000 011000                    NOP     0

      397    11940    3                          VECTOR(TERMLO),
      398    11941    3                          VECTOR(TERMHI),
      399    11942    3                          VECTOR(ACTION_CMPLTED));
      400    11943    3                 END;  /* WHENRETURN */

  11943  4 000224   000225 710000 4                  TRA     s:11945

      401    11944    3                 WHENALTRETURN DO;

      402    11945    3                 END;  /* WHENALTRETURN */

  11945  4 000225   002106 710000 4                  TRA     s:12292

      403    11946    2           CASE(%KS_DEFAULT);

      404    11947    2              HNDLRNAME = OUT$BLK.SUBLK$(0)->OUT$SYM.TEXT;

  11947  4 000226   100003 473500                    LDP3    3,,PR1
         4 000227   300004 236100                    LDQ     4,,PR3
PL6.E3A0      #002=KSC$LINCNFG File=KSC$COMMANDS1.:E05TSI                        WED 07/30/97 01:42 Page:84
         4 000230   000033 772000                    QRL     27
         4 000231   000000 621006                    EAX1    0,QL
         4 000232   040100 100540                    MLR     fill='040'O
         4 000233   300004 200011                    ADSC9   4,,PR3                   cn=1,n=*X1
         4 000234   200022 000010                    ADSC9   HNDLRNAME,,AUTO          cn=0,n=8

      405    11948    2              CNFG_BUF = '0'B;

  11948  4 000235   000000 100400                    MLR     fill='000'O
         4 000236   000002 000001 xsym               ADSC9   B_VECTNIL+2              cn=0,n=1
         4 000237   000000 000310 2                  ADSC9   CNFG_BUF                 cn=0,n=200

      406    11949    2              FOUND = '0'B;

  11949  4 000240   200021 450100                    STZ     FOUND,,AUTO

      407    11950    2              KS_FEPHNDLR_KEY.NODE = KS_NODE;

  11950  4 000241   000000 236000 xsym               LDQ     KS_NODE
         4 000242   000011 736000                    QLS     9
         4 000243   000224 552010 2                  STBQ    KS_FEPHNDLR_KEY,'10'O

      408    11951    2              READ_NETCON.BUF_ = VECTOR (KS_FEPHNDLR);

  11951  4 000244   000012 237000 5                  LDAQ    10
         4 000245   000360 757000 2                  STAQ    READ_NETCON+4

      409    11952    2              READ_NETCON.KEY_ = VECTOR (KS_FEPHNDLR_KEY);

  11952  4 000246   000014 237000 5                  LDAQ    12
         4 000247   000356 757000 2                  STAQ    READ_NETCON+2

      410    11953    2              CALL M$READ (READ_NETCON) ALTRET(IFNDIT);

  11953  4 000250   000354 630400 2                  EPPR0   READ_NETCON
         4 000251   440000 713400                    CLIMB   alt,read
         4 000252   401400 401760                    pmme    nvectors=4
PL6.E3A0      #002=KSC$LINCNFG File=KSC$COMMANDS1.:E05TSI                        WED 07/30/97 01:42 Page:85
         4 000253   000274 702000 4                  TSX2    IFNDIT

      411    11954    3      SRCH:   DO J = 0 TO KS_FEPHNDLR.NHANDLERS-1;

  11954  4 000254   200025 450100       SRCH         STZ     J,,AUTO
         4 000255   000271 710000 4                  TRA     s:11960+3

      412    11955    3                 IF KS_FEPHNDLR.HANDLER(J) = HNDLRNAME THEN

  11955  4 000256   200025 235100                    LDA     J,,AUTO
         4 000257   000001 735000                    ALS     1
         4 000260   000152 237005 2                  LDAQ    KS_FEPHNDLR+4,AL
         4 000261   200022 117100                    CMPAQ   HNDLRNAME,,AUTO
         4 000262   000266 601000 4                  TNZ     s:11960

      413    11956    4                    DO;

      414    11957    4                    FOUND = '1'B;

  11957  4 000263   400000 236003                    LDQ     -131072,DU
         4 000264   200021 756100                    STQ     FOUND,,AUTO

      415    11958    4                    EXIT SRCH;

  11958  4 000265   000274 710000 4                  TRA     IFNDIT

      416    11959    4                    END;
      417    11960    3              END;  /* do 0 to # of handlers */

  11960  4 000266   200025 235100                    LDA     J,,AUTO
         4 000267   000001 035007                    ADLA    1,DL
         4 000270   200025 755100                    STA     J,,AUTO
         4 000271   200025 236100                    LDQ     J,,AUTO
         4 000272   000146 116000 2                  CMPQ    KS_FEPHNDLR
         4 000273   000256 602000 4                  TNC     s:11955

      418    11961           /**/
PL6.E3A0      #002=KSC$LINCNFG File=KSC$COMMANDS1.:E05TSI                        WED 07/30/97 01:42 Page:86
      419    11962    2    IFNDIT:   IF NOT FOUND THEN

  11962  4 000274   200021 234100       IFNDIT       SZN     FOUND,,AUTO
         4 000275   000313 604000 4                  TMI     s:11976

      420    11963    3                 DO;

      421    11964    3                 KS_SUB_BUF_1.TEXT = HNDLRNAME;

  11964  4 000276   040000 100500                    MLR     fill='040'O
         4 000277   200022 000010                    ADSC9   HNDLRNAME,,AUTO          cn=0,n=8
         4 000300   000000 200037 xsym               ADSC9   KS_SUB_BUF_1             cn=1,n=31

      422    11965    3                 KS_SUB_BUF_1.COUNT = SIZEC(HNDLRNAME);

  11965  4 000301   010000 236003                    LDQ     4096,DU
         4 000302   000000 552040 xsym               STBQ    KS_SUB_BUF_1,'40'O

      423    11966    3                 KS_SUB_BUF_2.TEXT = KS_NODENAME;

  11966  4 000303   040000 100400                    MLR     fill='040'O
         4 000304   000000 000010 xsym               ADSC9   KS_NODENAME              cn=0,n=8
         4 000305   000000 200037 xsym               ADSC9   KS_SUB_BUF_2             cn=1,n=31

      424    11967    3                 KS_SUB_BUF_2.COUNT = SIZEC(KS_NODENAME);

  11967  4 000306   000000 552040 xsym               STBQ    KS_SUB_BUF_2,'40'O

      425    11968    3                CALL KSE$ERRMSG(%E$KS_OKAYBUT,VECTOR(KS_SUB_BUF_1),VECTOR(KS_SUB_BUF_2
             11968                          ));

  11968  4 000307   000023 630400 5                  EPPR0   19
         4 000310   000021 631400 xsym               EPPR1   B_VECTNIL+17
         4 000311   000000 701000 xent               TSX1    KSE$ERRMSG
         4 000312   000000 011000                    NOP     0

      426    11969                         /*E* ERROR: KSN-E$KS_OKAYBUT-0
PL6.E3A0      #002=KSC$LINCNFG File=KSC$COMMANDS1.:E05TSI                        WED 07/30/97 01:42 Page:87
      427    11970                          MESSAGE: WARNING...Handler %U1 has not been defined for %U2.
      428    11971                                             Processing will continue normally.
      429    11972                          MESSAGE1: Use the SET command to define a handler.
      430    11973                          DESCRIPTION: SEE MESSAGE   */
      431    11974    3                 END;  /* if not found */

      432    11975        /**/
      433    11976    2              KS_DEFAULT_KEY.NODE = KS_NODE;

  11976  4 000313   000000 236000 xsym               LDQ     KS_NODE
         4 000314   000011 736000                    QLS     9
         4 000315   000247 552010 2                  STBQ    KS_DEFAULT_KEY,'10'O

      434    11977    2              KS_DEFAULT_KEY.HNDLR = HNDLRNAME;

  11977  4 000316   040000 100500                    MLR     fill='040'O
         4 000317   200022 000010                    ADSC9   HNDLRNAME,,AUTO          cn=0,n=8
         4 000320   000247 600010 2                  ADSC9   KS_DEFAULT_KEY           cn=3,n=8

      435    11978    2              READ_NETCON.BUF_ = VECTOR(CNFG_BUF);

  11978  4 000321   000026 237000 5                  LDAQ    22
         4 000322   000360 757000 2                  STAQ    READ_NETCON+4

      436    11979    2              READ_NETCON.KEY_ = VECTOR(KS_DEFAULT_KEY);

  11979  4 000323   000030 237000 5                  LDAQ    24
         4 000324   000356 757000 2                  STAQ    READ_NETCON+2

      437    11980    2              CALL M$READ(READ_NETCON) WHENRETURN

  11980  4 000325   000354 630400 2                  EPPR0   READ_NETCON
         4 000326   440000 713400                    CLIMB   alt,read
         4 000327   401400 401760                    pmme    nvectors=4
         4 000330   000356 702000 4                  TSX2    s:11989

      438    11981    3                 DO;  /* save,set and restore cnfg_exists */
PL6.E3A0      #002=KSC$LINCNFG File=KSC$COMMANDS1.:E05TSI                        WED 07/30/97 01:42 Page:88

      439    11982    3                 CNFG_EXISTS = LINCNFG.NA.CNFG_EXISTS;

  11982  4 000331   000062 470400 2                  LDP0    CNFG$
         4 000332   000004 236100                    LDQ     4,,PR0
         4 000333   000042 736000                    QLS     34
         4 000334   400000 376003                    ANQ     -131072,DU
         4 000335   200012 756100                    STQ     CNFG_EXISTS,,AUTO

      440    11983    3                 LINCNFG.NA.CNFG_EXISTS = '1'B;

  11983  4 000336   000002 236007                    LDQ     2,DL
         4 000337   000004 256100                    ORSQ    4,,PR0

      441    11984    3                 CALL KSU$BLD_LINCNFG(TOP$,LINCNFG) ALTRET(ERR1);

  11984  4 000340   000062 236000 2                  LDQ     CNFG$
         4 000341   200003 235100                    LDA     @TOP$,,AUTO
         4 000342   200102 757100                    STAQ    D$+2,,AUTO
         4 000343   200102 630500                    EPPR0   D$+2,,AUTO
         4 000344   000020 631400 xsym               EPPR1   B_VECTNIL+16
         4 000345   000000 701000 xent               TSX1    KSU$BLD_LINCNFG
         4 000346   002113 702000 4                  TSX2    ERR1

      442    11985    3                 LINCNFG.NA.CNFG_EXISTS = CNFG_EXISTS;

  11985  4 000347   000062 470400 2                  LDP0    CNFG$
         4 000350   200012 236100                    LDQ     CNFG_EXISTS,,AUTO
         4 000351   000042 772000                    QRL     34
         4 000352   000004 676100                    ERQ     4,,PR0
         4 000353   000002 376007                    ANQ     2,DL
         4 000354   000004 656100                    ERSQ    4,,PR0

      443    11986    3                 END;  /*  return  */

  11986  4 000355   000374 710000 4                  TRA     s:11996

PL6.E3A0      #002=KSC$LINCNFG File=KSC$COMMANDS1.:E05TSI                        WED 07/30/97 01:42 Page:89
      444    11987    2              WHENALTRETURN
      445    11988    3                 DO;

      446    11989    3                 IF B$TCB$->B$TCB.ALT$->B$ALT.ERR.CODE = %E$NOKEY THEN

  11989  4 000356   000000 470400 xsym               LDP0    B$TCB$
         4 000357   000000 471500                    LDP1    0,,PR0
         4 000360   100102 236100                    LDQ     66,,PR1
         4 000361   377770 376007                    ANQ     131064,DL
         4 000362   001020 116007                    CMPQ    528,DL
         4 000363   002107 601000 4                  TNZ     ERR

      447    11990    4                    DO;

      448    11991    4                    CALL KSU$BLD_LINCNFG_DEF(TOP$,LINCNFG) ALTRET(ERR1);

  11991  4 000364   000062 236000 2                  LDQ     CNFG$
         4 000365   200003 235100                    LDA     @TOP$,,AUTO
         4 000366   200102 757100                    STAQ    D$+2,,AUTO
         4 000367   200102 630500                    EPPR0   D$+2,,AUTO
         4 000370   000020 631400 xsym               EPPR1   B_VECTNIL+16
         4 000371   000000 701000 xent               TSX1    KSU$BLD_LINCNFG_DEF
         4 000372   002113 702000 4                  TSX2    ERR1

      449    11992    4                    END;   /* err = nokey  */

  11992  4 000373   000374 710000 4                  TRA     s:11996

      450    11993    3                 ELSE
      451    11994    3                    GOTO ERR;
      452    11995    3                 END;  /* altreturn  */
      453    11996    2              WRITE_NETCON.KEY_ = VECTOR(KS_DEFAULT_KEY);

  11996  4 000374   000030 237000 5                  LDAQ    24
         4 000375   000374 757000 2                  STAQ    WRITE_NETCON+2

      454    11997    2              WRITE_NETCON.BUF_ = VECTOR(CNFG_BUF);
PL6.E3A0      #002=KSC$LINCNFG File=KSC$COMMANDS1.:E05TSI                        WED 07/30/97 01:42 Page:90

  11997  4 000376   000026 237000 5                  LDAQ    22
         4 000377   000376 757000 2                  STAQ    WRITE_NETCON+4

      455    11998    2              CALL M$WRITE(WRITE_NETCON) ALTRET(ERR);

  11998  4 000400   000372 630400 2                  EPPR0   WRITE_NETCON
         4 000401   440001 713400                    CLIMB   alt,write
         4 000402   401400 401760                    pmme    nvectors=4
         4 000403   002107 702000 4                  TSX2    ERR
         4 000404   002106 710000 4                  TRA     s:12292

      456    11999        %EJECT;
PL6.E3A0      #002=KSC$LINCNFG File=KSC$COMMANDS1.:E05TSI                        WED 07/30/97 01:42 Page:91
      457    12000    2   CASE(%KS_RESET);

      458    12001
      459    12002    2        NO_CHAN = '0'B;

  12002  4 000405   200051 450100                    STZ     NO_CHAN,,AUTO

      460    12003    2        CALL KSU$BLD_TERMRANGE (OUT$BLK.SUBLK$(0),TERMLO,TERMHI,'1')

  12003  4 000406   000033 236000 5                  LDQ     27
         4 000407   200105 756100                    STQ     D$+5,,AUTO
         4 000410   200044 633500                    EPPR3   TERMHI,,AUTO
         4 000411   200104 453500                    STP3    D$+4,,AUTO
         4 000412   200040 634500                    EPPR4   TERMLO,,AUTO
         4 000413   200103 454500                    STP4    D$+3,,AUTO
         4 000414   100003 635500                    EPPR5   3,,PR1
         4 000415   200102 455500                    STP5    D$+2,,AUTO
         4 000416   200102 630500                    EPPR0   D$+2,,AUTO
         4 000417   000022 631400 xsym               EPPR1   B_VECTNIL+18
         4 000420   000000 701000 xent               TSX1    KSU$BLD_TERMRANGE
         4 000421   000423 702000 4                  TSX2    s:12005
         4 000422   000433 710000 4                  TRA     s:12011

      461    12004    3           WHENALTRETURN DO;

      462    12005    3              IF TERMLO.TERM.TERM_NAME ~= ' ' AND TERMLO.TERM.CHANNEL = '0'B THEN

  12005  4 000423   200042 237100                    LDAQ    TERMLO+2,,AUTO
         4 000424   000000 117000 5                  CMPAQ   0
         4 000425   002113 600000 4                  TZE     ERR1
         4 000426   200040 720100                    LXL0    TERMLO,,AUTO
         4 000427   002113 601000 4                  TNZ     ERR1

      463    12006    3                 NO_CHAN = '1'B;

  12006  4 000430   400000 236003                    LDQ     -131072,DU
         4 000431   200051 756100                    STQ     NO_CHAN,,AUTO
PL6.E3A0      #002=KSC$LINCNFG File=KSC$COMMANDS1.:E05TSI                        WED 07/30/97 01:42 Page:92
         4 000432   000433 710000 4                  TRA     s:12011

      464    12007    3              ELSE
      465    12008    3                 GOTO ERR1;
      466    12009    3           END;
      467    12010
      468    12011    2        IF NOT NO_CHAN THEN

  12011  4 000433   200051 234100                    SZN     NO_CHAN,,AUTO
         4 000434   000441 604000 4                  TMI     s:12015

      469    12012    2           CALL KSU$CHECK_FOR_FEP (KS_NODE) ALTRET(ERR1);

  12012  4 000435   000002 630400 5                  EPPR0   2
         4 000436   000017 631400 xsym               EPPR1   B_VECTNIL+15
         4 000437   000000 701000 xent               TSX1    KSU$CHECK_FOR_FEP
         4 000440   002113 702000 4                  TSX2    ERR1

      470    12013
      471    12014
      472    12015    2        FEPLO = TERMLO;

  12015  4 000441   000100 100500                    MLR     fill='000'O
         4 000442   200040 000020                    ADSC9   TERMLO,,AUTO             cn=0,n=16
         4 000443   200065 000020                    ADSC9   FEPLO,,AUTO              cn=0,n=16

      473    12016    2        FEPHI = TERMHI;

  12016  4 000444   000100 100500                    MLR     fill='000'O
         4 000445   200044 000020                    ADSC9   TERMHI,,AUTO             cn=0,n=16
         4 000446   200071 000020                    ADSC9   FEPHI,,AUTO              cn=0,n=16

      474    12017    2        IF FEPLO.TERM.TERM_NAME ~= ' ' OR FEPHI.TERM.TERM_NAME ~= ' '

  12017  4 000447   040000 106500                    CMPC    fill='040'O
         4 000450   200067 000010                    ADSC9   FEPLO+2,,AUTO            cn=0,n=8
         4 000451   000035 000001 xsym               ADSC9   B_VECTNIL+29             cn=0,n=1
PL6.E3A0      #002=KSC$LINCNFG File=KSC$COMMANDS1.:E05TSI                        WED 07/30/97 01:42 Page:93
         4 000452   000457 601000 4                  TNZ     s:12019
         4 000453   040000 106500                    CMPC    fill='040'O
         4 000454   200073 000010                    ADSC9   FEPHI+2,,AUTO            cn=0,n=8
         4 000455   000035 000001 xsym               ADSC9   B_VECTNIL+29             cn=0,n=1
         4 000456   000462 600000 4                  TZE     s:12023

      475    12018    3           THEN DO;

      476    12019    3              FEPLO.TERM.CHANNEL = '0'B;

  12019  4 000457   000000 220003                    LDX0    0,DU
         4 000460   200065 440100                    SXL0    FEPLO,,AUTO

      477    12020    3              FEPHI.TERM.CHANNEL = '0'B;

  12020  4 000461   200071 440100                    SXL0    FEPHI,,AUTO

      478    12021    3           END;

      479    12022
      480    12023    2        TERMLO.TERM.TERM_NAME = ' ';

  12023  4 000462   000035 235000 xsym               LDA     B_VECTNIL+29
         4 000463   000035 236000 xsym               LDQ     B_VECTNIL+29
         4 000464   200042 757100                    STAQ    TERMLO+2,,AUTO

      481    12024
      482    12025    2        IF TOP$->OUT$BLK.NSUBLKS = 1 THEN

  12025  4 000465   200003 470500                    LDP0    @TOP$,,AUTO
         4 000466   000000 471500                    LDP1    0,,PR0
         4 000467   100001 220100                    LDX0    1,,PR1
         4 000470   000001 100003                    CMPX0   1,DU
         4 000471   000477 601000 4                  TNZ     s:12029

      483    12026    2           CALL KSU$INIT_DEFCNFG(LINCNFG_TMP);

PL6.E3A0      #002=KSC$LINCNFG File=KSC$COMMANDS1.:E05TSI                        WED 07/30/97 01:42 Page:94
  12026  4 000472   000145 630400 2                  EPPR0   TMP_CNFG$
         4 000473   000017 631400 xsym               EPPR1   B_VECTNIL+15
         4 000474   000000 701000 xent               TSX1    KSU$INIT_DEFCNFG
         4 000475   000000 011000                    NOP     0
         4 000476   000524 710000 4                  TRA     s:12041

      484    12027    2        ELSE
      485    12028    3           DO;

      486    12029    3              KS_DEFAULT_KEY.NODE = KS_NODE;

  12029  4 000477   000000 236000 xsym               LDQ     KS_NODE
         4 000500   000011 736000                    QLS     9
         4 000501   000247 552010 2                  STBQ    KS_DEFAULT_KEY,'10'O

      487    12030    3              KS_DEFAULT_KEY.HNDLR = TOP$->OUT$BLK.SUBLK$(1)->OUT$SYM.TEXT;

  12030  4 000502   000000 471500                    LDP1    0,,PR0
         4 000503   100004 473500                    LDP3    4,,PR1
         4 000504   300004 236100                    LDQ     4,,PR3
         4 000505   000033 772000                    QRL     27
         4 000506   000000 620006                    EAX0    0,QL
         4 000507   040000 100540                    MLR     fill='040'O
         4 000510   300004 200010                    ADSC9   4,,PR3                   cn=1,n=*X0
         4 000511   000247 600010 2                  ADSC9   KS_DEFAULT_KEY           cn=3,n=8

      488    12031    3              CALL KSU$READ_NETCON(VECTOR(KS_DEFAULT_KEY),VECTOR(TMP_CNFG_BUF))

  12031  4 000512   000036 630400 5                  EPPR0   30
         4 000513   000020 631400 xsym               EPPR1   B_VECTNIL+16
         4 000514   000000 701000 xent               TSX1    KSU$READ_NETCON
         4 000515   000517 702000 4                  TSX2    s:12033
         4 000516   000524 710000 4                  TRA     s:12041

      489    12032    4                 WHENALTRETURN DO;

      490    12033    4                   CALL KSE$ERRMSG(%E$KS_NO_DEFAULT_REC,VECTOR(KS_DEFAULT_KEY.HNDLR));
PL6.E3A0      #002=KSC$LINCNFG File=KSC$COMMANDS1.:E05TSI                        WED 07/30/97 01:42 Page:95

  12033  4 000517   000043 630400 5                  EPPR0   35
         4 000520   000020 631400 xsym               EPPR1   B_VECTNIL+16
         4 000521   000000 701000 xent               TSX1    KSE$ERRMSG
         4 000522   000000 011000                    NOP     0

      491    12034                      /*E*  ERROR:  KSN-E$KS_NO_DEFAULT_REC-0
      492    12035                            MESSAGE:There is no DEFAULT record for the %U1 handler. */
      493    12036    4                    GOTO ERR1;

  12036  4 000523   002113 710000 4                  TRA     ERR1

      494    12037    4                 END;
      495    12038
      496    12039    3           END;

      497    12040
      498    12041    2        RESET_MSG.KHA = LINCNFG_TMP.KHA;

  12041  4 000524   000145 470400 2                  LDP0    TMP_CNFG$
         4 000525   000000 100500                    MLR     fill='000'O
         4 000526   000000 000022                    ADSC9   0,,PR0                   cn=0,n=18
         4 000527   000340 400022 2                  ADSC9   RESET_MSG+16             cn=2,n=18

      499    12042    2        RESET_MSG.NA = LINCNFG_TMP.NA;

  12042  4 000530   000000 100500                    MLR     fill='000'O
         4 000531   000004 400010                    ADSC9   4,,PR0                   cn=2,n=8
         4 000532   000345 000010 2                  ADSC9   RESET_MSG+21             cn=0,n=8

      500    12043           /* Don't set profile or autologon, since SLUG doesn't know which handler
      501    12044              default record to read when NODEADMN asks for the profile */
      502    12045    2        RESET_MSG.NA.AUTLGN = '0'B;

  12045  4 000533   000045 236000 5                  LDQ     37
         4 000534   000345 356000 2                  ANSQ    RESET_MSG+21

PL6.E3A0      #002=KSC$LINCNFG File=KSC$COMMANDS1.:E05TSI                        WED 07/30/97 01:42 Page:96
      503    12046    2        RESET_MSG.NA.PROFILE = '0'B;

  12046  4 000535   000046 236000 5                  LDQ     38
         4 000536   000345 356000 2                  ANSQ    RESET_MSG+21

      504    12047
      505    12048    2        CALL KSU$PACK2 (TERMLO.TERM.CHANNEL,CHANLO);

  12048  4 000537   200020 631500                    EPPR1   CHANLO,,AUTO
         4 000540   200103 451500                    STP1    D$+3,,AUTO
         4 000541   200104 452500                    STP2    D$+4,,AUTO
         4 000542   200104 236100                    LDQ     D$+4,,AUTO
         4 000543   000047 036000 5                  ADLQ    39
         4 000544   200102 756100                    STQ     D$+2,,AUTO
         4 000545   200102 630500                    EPPR0   D$+2,,AUTO
         4 000546   000020 631400 xsym               EPPR1   B_VECTNIL+16
         4 000547   000000 701000 xent               TSX1    KSU$PACK2
         4 000550   000000 011000                    NOP     0

      506    12049    2        CALL KSU$PACK2 (TERMHI.TERM.CHANNEL,CHANHI);

  12049  4 000551   200014 630500                    EPPR0   CHANHI,,AUTO
         4 000552   200103 450500                    STP0    D$+3,,AUTO
         4 000553   200104 452500                    STP2    D$+4,,AUTO
         4 000554   200104 236100                    LDQ     D$+4,,AUTO
         4 000555   000050 036000 5                  ADLQ    40
         4 000556   200102 756100                    STQ     D$+2,,AUTO
         4 000557   200102 630500                    EPPR0   D$+2,,AUTO
         4 000560   000020 631400 xsym               EPPR1   B_VECTNIL+16
         4 000561   000000 701000 xent               TSX1    KSU$PACK2
         4 000562   000000 011000                    NOP     0

      507    12050    2        CALL KSU$PACK2 (TERMLO.TERM.SUBDEVICE,SUBLO);

  12050  4 000563   200027 630500                    EPPR0   SUBLO,,AUTO
         4 000564   200103 450500                    STP0    D$+3,,AUTO
         4 000565   200041 631500                    EPPR1   TERMLO+1,,AUTO
PL6.E3A0      #002=KSC$LINCNFG File=KSC$COMMANDS1.:E05TSI                        WED 07/30/97 01:42 Page:97
         4 000566   200102 451500                    STP1    D$+2,,AUTO
         4 000567   200102 630500                    EPPR0   D$+2,,AUTO
         4 000570   000020 631400 xsym               EPPR1   B_VECTNIL+16
         4 000571   000000 701000 xent               TSX1    KSU$PACK2
         4 000572   000000 011000                    NOP     0

      508    12051    2        CALL KSU$PACK2 (TERMHI.TERM.SUBDEVICE,SUBHI);

  12051  4 000573   200030 630500                    EPPR0   SUBHI,,AUTO
         4 000574   200103 450500                    STP0    D$+3,,AUTO
         4 000575   200045 631500                    EPPR1   TERMHI+1,,AUTO
         4 000576   200102 451500                    STP1    D$+2,,AUTO
         4 000577   200102 630500                    EPPR0   D$+2,,AUTO
         4 000600   000020 631400 xsym               EPPR1   B_VECTNIL+16
         4 000601   000000 701000 xent               TSX1    KSU$PACK2
         4 000602   000000 011000                    NOP     0

      509    12052    2        CALL KSU$PACK2 (TERMLO.TERM.SUBSUBDEVICE,SUBSUBLO);

  12052  4 000603   200032 630500                    EPPR0   SUBSUBLO,,AUTO
         4 000604   200103 450500                    STP0    D$+3,,AUTO
         4 000605   200104 452500                    STP2    D$+4,,AUTO
         4 000606   200104 236100                    LDQ     D$+4,,AUTO
         4 000607   000051 036000 5                  ADLQ    41
         4 000610   200102 756100                    STQ     D$+2,,AUTO
         4 000611   200102 630500                    EPPR0   D$+2,,AUTO
         4 000612   000020 631400 xsym               EPPR1   B_VECTNIL+16
         4 000613   000000 701000 xent               TSX1    KSU$PACK2
         4 000614   000000 011000                    NOP     0

      510    12053    2        CALL KSU$PACK2 (TERMHI.TERM.SUBSUBDEVICE,SUBSUBHI);

  12053  4 000615   200033 630500                    EPPR0   SUBSUBHI,,AUTO
         4 000616   200103 450500                    STP0    D$+3,,AUTO
         4 000617   200104 452500                    STP2    D$+4,,AUTO
         4 000620   200104 236100                    LDQ     D$+4,,AUTO
         4 000621   000052 036000 5                  ADLQ    42
PL6.E3A0      #002=KSC$LINCNFG File=KSC$COMMANDS1.:E05TSI                        WED 07/30/97 01:42 Page:98
         4 000622   200102 756100                    STQ     D$+2,,AUTO
         4 000623   200102 630500                    EPPR0   D$+2,,AUTO
         4 000624   000020 631400 xsym               EPPR1   B_VECTNIL+16
         4 000625   000000 701000 xent               TSX1    KSU$PACK2
         4 000626   000000 011000                    NOP     0

      511    12054
      512    12055    2   C_LOOP:
      513    12056    3        DO CHAN = CHANLO TO CHANHI BY 128;

  12056  4 000627   200020 235100       C_LOOP       LDA     CHANLO,,AUTO
         4 000630   200013 755100                    STA     CHAN,,AUTO
         4 000631   001055 710000 4                  TRA     s:12106+3

      514    12057    3           CALL KSU$UNPACK (CHAN,TERMLO.TERM.CHANNEL);

  12057  4 000632   200104 452500                    STP2    D$+4,,AUTO
         4 000633   200104 236100                    LDQ     D$+4,,AUTO
         4 000634   000047 036000 5                  ADLQ    39
         4 000635   200103 756100                    STQ     D$+3,,AUTO
         4 000636   200013 630500                    EPPR0   CHAN,,AUTO
         4 000637   200102 450500                    STP0    D$+2,,AUTO
         4 000640   200102 630500                    EPPR0   D$+2,,AUTO
         4 000641   000020 631400 xsym               EPPR1   B_VECTNIL+16
         4 000642   000000 701000 xent               TSX1    KSU$UNPACK
         4 000643   000000 011000                    NOP     0

      515    12058    4   S_LOOP: DO SUB = SUBLO TO SUBHI;

  12058  4 000644   200027 235100       S_LOOP       LDA     SUBLO,,AUTO
         4 000645   200026 755100                    STA     SUB,,AUTO
         4 000646   001047 710000 4                  TRA     s:12105+3

      516    12059    4              CALL KSU$UNPACK (SUB,TERMLO.TERM.SUBDEVICE);

  12059  4 000647   200041 630500                    EPPR0   TERMLO+1,,AUTO
         4 000650   200103 450500                    STP0    D$+3,,AUTO
PL6.E3A0      #002=KSC$LINCNFG File=KSC$COMMANDS1.:E05TSI                        WED 07/30/97 01:42 Page:99
         4 000651   200026 631500                    EPPR1   SUB,,AUTO
         4 000652   200102 451500                    STP1    D$+2,,AUTO
         4 000653   200102 630500                    EPPR0   D$+2,,AUTO
         4 000654   000020 631400 xsym               EPPR1   B_VECTNIL+16
         4 000655   000000 701000 xent               TSX1    KSU$UNPACK
         4 000656   000000 011000                    NOP     0

      517    12060    5   SS_LOOP:   DO SUBSUB = SUBSUBLO TO SUBSUBHI;

  12060  4 000657   200032 235100       SS_LOOP      LDA     SUBSUBLO,,AUTO
         4 000660   200031 755100                    STA     SUBSUB,,AUTO
         4 000661   001041 710000 4                  TRA     s:12104+3

      518    12061    5                 CALL KSU$UNPACK (SUBSUB,TERMLO.TERM.SUBSUBDEVICE);

  12061  4 000662   200104 452500                    STP2    D$+4,,AUTO
         4 000663   200104 236100                    LDQ     D$+4,,AUTO
         4 000664   000051 036000 5                  ADLQ    41
         4 000665   200103 756100                    STQ     D$+3,,AUTO
         4 000666   200031 630500                    EPPR0   SUBSUB,,AUTO
         4 000667   200102 450500                    STP0    D$+2,,AUTO
         4 000670   200102 630500                    EPPR0   D$+2,,AUTO
         4 000671   000020 631400 xsym               EPPR1   B_VECTNIL+16
         4 000672   000000 701000 xent               TSX1    KSU$UNPACK
         4 000673   000000 011000                    NOP     0

      519    12062
      520    12063    5                 IF NOT NO_CHAN THEN

  12063  4 000674   200051 234100                    SZN     NO_CHAN,,AUTO
         4 000675   001011 604000 4                  TMI     CHANGE_REC

      521    12064    6                    DO;

      522    12065    6                       KS_ADMIN.TERMID_LO = TERMLO;

  12065  4 000676   000000 100500                    MLR     fill='000'O
PL6.E3A0      #002=KSC$LINCNFG File=KSC$COMMANDS1.:E05TSI                        WED 07/30/97 01:42 Page:100
         4 000677   200040 000020                    ADSC9   TERMLO,,AUTO             cn=0,n=16
         4 000700   000237 000020 2                  ADSC9   KS_ADMIN+9               cn=0,n=16

      523    12066    6                       KS_ADMIN.TERMID_HI = TERMLO;

  12066  4 000701   000000 100500                    MLR     fill='000'O
         4 000702   200040 000020                    ADSC9   TERMLO,,AUTO             cn=0,n=16
         4 000703   000243 000020 2                  ADSC9   KS_ADMIN+13              cn=0,n=16

      524    12067    6                       RESET_MSG.TERMID_LO = TERMLO;

  12067  4 000704   000000 100500                    MLR     fill='000'O
         4 000705   200040 000020                    ADSC9   TERMLO,,AUTO             cn=0,n=16
         4 000706   000330 400020 2                  ADSC9   RESET_MSG+8              cn=2,n=16

      525    12068    6                       RESET_MSG.TERMID_HI = TERMLO;

  12068  4 000707   000000 100500                    MLR     fill='000'O
         4 000710   200040 000020                    ADSC9   TERMLO,,AUTO             cn=0,n=16
         4 000711   000334 400020 2                  ADSC9   RESET_MSG+12             cn=2,n=16

      526    12069
      527    12070    6                       KS_ADMIN.FNC = %KHA_FNC_PARTITION;

  12070  4 000712   000007 220003                    LDX0    7,DU
         4 000713   000236 440000 2                  SXL0    KS_ADMIN+8

      528    12071    6                       CALL KSR$WR_HLPCG (VECTOR(KS_ADMIN)) ALTRET(RESET_CHAN);

  12071  4 000714   000006 630400 5                  EPPR0   6
         4 000715   000017 631400 xsym               EPPR1   B_VECTNIL+15
         4 000716   000000 701000 xent               TSX1    KSR$WR_HLPCG
         4 000717   000770 702000 4                  TSX2    RESET_CHAN

      529    12072    6                       CALL KSR$RD_HLPCG ('0'B);

  12072  4 000720   000053 630400 5                  EPPR0   43
PL6.E3A0      #002=KSC$LINCNFG File=KSC$COMMANDS1.:E05TSI                        WED 07/30/97 01:42 Page:101
         4 000721   000017 631400 xsym               EPPR1   B_VECTNIL+15
         4 000722   000000 701000 xent               TSX1    KSR$RD_HLPCG
         4 000723   000000 011000                    NOP     0

      530    12073    6                       IF KS_DEFAULT_KEY.HNDLR ~= KL_ADMIN_RETURN.HANDLER AND

  12073  4 000724   000000 470400 xsym               LDP0    KS_MSGBUF$
         4 000725   040100 106400                    CMPC    fill='040'O
         4 000726   000247 600010 2                  ADSC9   KS_DEFAULT_KEY           cn=3,n=8
         4 000727   000001 000010                    ADSC9   1,,PR0                   cn=0,n=8
         4 000730   000770 600000 4                  TZE     RESET_CHAN
         4 000731   000007 235100                    LDA     7,,PR0
         4 000732   000770 601000 4                  TNZ     RESET_CHAN
         4 000733   200003 471500                    LDP1    @TOP$,,AUTO
         4 000734   100000 473500                    LDP3    0,,PR1
         4 000735   300001 220100                    LDX0    1,,PR3
         4 000736   000001 100003                    CMPX0   1,DU
         4 000737   000770 600000 4                  TZE     RESET_CHAN

      531    12074    6                          KL_ADMIN_RETURN.RESULTS = '0'B AND
      532    12075    6                          TOP$->OUT$BLK.NSUBLKS ~= 1 THEN
      533    12076    7                          DO;

      534    12077    7                             CALL KSU$BINHEX (CHAN_STR,CHAN);

  12077  4 000740   200013 634500                    EPPR4   CHAN,,AUTO
         4 000741   200103 454500                    STP4    D$+3,,AUTO
         4 000742   200052 633500                    EPPR3   CHAN_STR,,AUTO
         4 000743   200102 453500                    STP3    D$+2,,AUTO
         4 000744   200102 630500                    EPPR0   D$+2,,AUTO
         4 000745   000020 631400 xsym               EPPR1   B_VECTNIL+16
         4 000746   000000 701000 xent               TSX1    KSU$BINHEX
         4 000747   000000 011000                    NOP     0

      535    12078    7                             CALL KSE$ERRMSG(%E$KS_WRONG_HANDLER,VECTOR(CHAN_STR),
             12078                                      VECTOR(KS_DEFAULT_KEY.HNDLR));

PL6.E3A0      #002=KSC$LINCNFG File=KSC$COMMANDS1.:E05TSI                        WED 07/30/97 01:42 Page:102
  12078  4 000750   777640 235007                    LDA     -96,DL
         4 000751   200102 452500                    STP2    D$+2,,AUTO
         4 000752   200102 236100                    LDQ     D$+2,,AUTO
         4 000753   000052 036003                    ADLQ    42,DU
         4 000754   200104 757100                    STAQ    D$+4,,AUTO
         4 000755   000044 236000 5                  LDQ     36
         4 000756   200110 756100                    STQ     D$+8,,AUTO
         4 000757   200104 630500                    EPPR0   D$+4,,AUTO
         4 000760   200107 450500                    STP0    D$+7,,AUTO
         4 000761   000055 236000 5                  LDQ     45
         4 000762   200106 756100                    STQ     D$+6,,AUTO
         4 000763   200106 630500                    EPPR0   D$+6,,AUTO
         4 000764   000021 631400 xsym               EPPR1   B_VECTNIL+17
         4 000765   000000 701000 xent               TSX1    KSE$ERRMSG
         4 000766   000000 011000                    NOP     0

      536    12079                               /*E* ERROR: KSN-E$KS_WRONG_HANDLER-0
      537    12080                                  MESSAGE: Channel .%U1 is not owned by the %U2 handler. */
      538    12081    7                             EXIT S_LOOP;

  12081  4 000767   001052 710000 4                  TRA     s:12106

      539    12082    7                          END;
      540    12083
      541    12084
      542    12085    6      RESET_CHAN:      CALL KSR$WR_HLPCG (VECTOR(RESET_MSG)) ALTRET (CHANGE_REC);

  12085  4 000770   000060 630400 5     RESET_CHAN   EPPR0   48
         4 000771   000017 631400 xsym               EPPR1   B_VECTNIL+15
         4 000772   000000 701000 xent               TSX1    KSR$WR_HLPCG
         4 000773   001011 702000 4                  TSX2    CHANGE_REC

      543    12086    6                       CALL KSR$RD_HLPCG ALTRET (ERR);

  12086  4 000774   000002 631400 xsym               EPPR1   B_VECTNIL+2
         4 000775   000000 701000 xent               TSX1    KSR$RD_HLPCG
         4 000776   002107 702000 4                  TSX2    ERR
PL6.E3A0      #002=KSC$LINCNFG File=KSC$COMMANDS1.:E05TSI                        WED 07/30/97 01:42 Page:103

      544    12087
      545    12088    6                       KS_ADMIN.FNC = %KHA_FNC_RETURN;

  12088  4 000777   000011 220003                    LDX0    9,DU
         4 001000   000236 440000 2                  SXL0    KS_ADMIN+8

      546    12089    6                       CALL KSR$WR_HLPCG(VECTOR(KS_ADMIN)) ALTRET (CHANGE_REC);

  12089  4 001001   000006 630400 5                  EPPR0   6
         4 001002   000017 631400 xsym               EPPR1   B_VECTNIL+15
         4 001003   000000 701000 xent               TSX1    KSR$WR_HLPCG
         4 001004   001011 702000 4                  TSX2    CHANGE_REC

      547    12090    6                       CALL KSR$RD_HLPCG ('0') ALTRET (CHANGE_REC);

  12090  4 001005   000062 630400 5                  EPPR0   50
         4 001006   000017 631400 xsym               EPPR1   B_VECTNIL+15
         4 001007   000000 701000 xent               TSX1    KSR$RD_HLPCG
         4 001010   001011 702000 4                  TSX2    CHANGE_REC

      548    12091    6                    END;

      549    12092
      550    12093    5   CHANGE_REC:   KS_CONFIG_KEY.NODE = KS_NODE;

  12093  4 001011   000000 236000 xsym  CHANGE_REC   LDQ     KS_NODE
         4 001012   000011 736000                    QLS     9
         4 001013   000347 552010 2                  STBQ    KS_CONFIG_KEY,'10'O

      551    12094    5                 KS_CONFIG_KEY.TERMID = TERMLO;

  12094  4 001014   000000 100500                    MLR     fill='000'O
         4 001015   200040 000020                    ADSC9   TERMLO,,AUTO             cn=0,n=16
         4 001016   000347 600020 2                  ADSC9   KS_CONFIG_KEY            cn=3,n=16

      552    12095    5                 IF TERMHI.TERM.TERM_NAME ~= ' ' THEN
PL6.E3A0      #002=KSC$LINCNFG File=KSC$COMMANDS1.:E05TSI                        WED 07/30/97 01:42 Page:104

  12095  4 001017   200046 237100                    LDAQ    TERMHI+2,,AUTO
         4 001020   000000 117000 5                  CMPAQ   0
         4 001021   001027 600000 4                  TZE     s:12100

      553    12096    6                    DO;

      554    12097    6                       KS_CONFIG_KEY.TERMID.TERM.CHANNEL = '0'B;

  12097  4 001022   000000 236003                    LDQ     0,DU
         4 001023   000350 552030 2                  STBQ    KS_CONFIG_KEY+1,'30'O

      555    12098    6                       KS_CONFIG_KEY.TERMID.TERM.TERM_NAME = TERMHI.TERM.TERM_NAME;

  12098  4 001024   040000 100500                    MLR     fill='040'O
         4 001025   200046 000010                    ADSC9   TERMHI+2,,AUTO           cn=0,n=8
         4 001026   000351 600010 2                  ADSC9   KS_CONFIG_KEY+2          cn=3,n=8

      556    12099    6                    END;

      557    12100    5                 DELETE_NETCON.KEY_ = VECTOR(KS_CONFIG_KEY);

  12100  4 001027   000064 237000 5                  LDAQ    52
         4 001030   000410 757000 2                  STAQ    DELETE_NETCON+2

      558    12101    5                 DELETE_NETCON.LKEY_ = VECTOR(KS_CONFIG_KEY);

  12101  4 001031   000064 237000 5                  LDAQ    52
         4 001032   000412 757000 2                  STAQ    DELETE_NETCON+4

      559    12102    5                 CALL M$DELREC (DELETE_NETCON);

  12102  4 001033   000406 630400 2                  EPPR0   DELETE_NETCON
         4 001034   040002 713400                    CLIMB   16386
         4 001035   401400 401760                    pmme    nvectors=4

      560    12103
PL6.E3A0      #002=KSC$LINCNFG File=KSC$COMMANDS1.:E05TSI                        WED 07/30/97 01:42 Page:105
      561    12104    5              END SS_LOOP;

  12104  4 001036   200031 235100                    LDA     SUBSUB,,AUTO
         4 001037   000001 035007                    ADLA    1,DL
         4 001040   200031 755100                    STA     SUBSUB,,AUTO
         4 001041   200033 236100                    LDQ     SUBSUBHI,,AUTO
         4 001042   200031 116100                    CMPQ    SUBSUB,,AUTO
         4 001043   000662 603000 4                  TRC     s:12061

      562    12105    4           END S_LOOP;

  12105  4 001044   200026 235100                    LDA     SUB,,AUTO
         4 001045   000001 035007                    ADLA    1,DL
         4 001046   200026 755100                    STA     SUB,,AUTO
         4 001047   200030 236100                    LDQ     SUBHI,,AUTO
         4 001050   200026 116100                    CMPQ    SUB,,AUTO
         4 001051   000647 603000 4                  TRC     s:12059

      563    12106    3        END C_LOOP;

  12106  4 001052   200013 235100                    LDA     CHAN,,AUTO
         4 001053   000200 035007                    ADLA    128,DL
         4 001054   200013 755100                    STA     CHAN,,AUTO
         4 001055   200014 236100                    LDQ     CHANHI,,AUTO
         4 001056   200013 116100                    CMPQ    CHAN,,AUTO
         4 001057   000632 603000 4                  TRC     s:12057

      564    12107    2        IF KS_SELPRMOPT ~= %KS_FILE THEN

  12107  4 001060   000000 236000 xsym               LDQ     KS_SELPRMOPT
         4 001061   777000 376003                    ANQ     -512,DU
         4 001062   003000 116003                    CMPQ    1536,DU
         4 001063   002106 600000 4                  TZE     s:12292

      565    12108    3           DO;

      566    12109    3              ACTION_CMPLTED = 'Reset';
PL6.E3A0      #002=KSC$LINCNFG File=KSC$COMMANDS1.:E05TSI                        WED 07/30/97 01:42 Page:106

  12109  4 001064   040100 100400                    MLR     fill='040'O
         4 001065   000131 000005 1                  ADSC9   ENBL_FMT+23              cn=0,n=5
         4 001066   200004 000025                    ADSC9   ACTION_CMPLTED,,AUTO     cn=0,n=21

      567    12110    3              CALL KSW$WRITE (CMPLTED_OK_VEC,

  12110  4 001067   000007 235000 5                  LDA     7
         4 001070   200102 452500                    STP2    D$+2,,AUTO
         4 001071   200102 236100                    LDQ     D$+2,,AUTO
         4 001072   000065 036003                    ADLQ    53,DU
         4 001073   200104 757100                    STAQ    D$+4,,AUTO
         4 001074   000007 235000 5                  LDA     7
         4 001075   200106 452500                    STP2    D$+6,,AUTO
         4 001076   200106 236100                    LDQ     D$+6,,AUTO
         4 001077   000071 036003                    ADLQ    57,DU
         4 001100   200110 757100                    STAQ    D$+8,,AUTO
         4 001101   000010 235000 5                  LDA     8
         4 001102   200112 452500                    STP2    D$+10,,AUTO
         4 001103   200112 236100                    LDQ     D$+10,,AUTO
         4 001104   000004 036003                    ADLQ    4,DU
         4 001105   200116 757100                    STAQ    D$+14,,AUTO
         4 001106   200104 237100                    LDAQ    D$+4,,AUTO
         4 001107   200114 757100                    STAQ    D$+12,,AUTO
         4 001110   200110 237100                    LDAQ    D$+8,,AUTO
         4 001111   200120 757100                    STAQ    D$+16,,AUTO
         4 001112   200116 237100                    LDAQ    D$+14,,AUTO
         4 001113   200122 757100                    STAQ    D$+18,,AUTO
         4 001114   000070 236000 5                  LDQ     56
         4 001115   200130 756100                    STQ     D$+24,,AUTO
         4 001116   200122 630500                    EPPR0   D$+18,,AUTO
         4 001117   200127 450500                    STP0    D$+23,,AUTO
         4 001120   200120 631500                    EPPR1   D$+16,,AUTO
         4 001121   200126 451500                    STP1    D$+22,,AUTO
         4 001122   200114 633500                    EPPR3   D$+12,,AUTO
         4 001123   200125 453500                    STP3    D$+21,,AUTO
         4 001124   000011 236000 5                  LDQ     9
PL6.E3A0      #002=KSC$LINCNFG File=KSC$COMMANDS1.:E05TSI                        WED 07/30/97 01:42 Page:107
         4 001125   200124 756100                    STQ     D$+20,,AUTO
         4 001126   200124 630500                    EPPR0   D$+20,,AUTO
         4 001127   000023 631400 xsym               EPPR1   B_VECTNIL+19
         4 001130   000000 701000 xent               TSX1    KSW$WRITE
         4 001131   000000 011000                    NOP     0

      568    12111    3                 VECTOR(FEPLO),
      569    12112    3                 VECTOR(FEPHI),
      570    12113    3                 VECTOR(ACTION_CMPLTED),
      571    12114    3                 VECTOR(KS_CONFIG_KEY.TERMID.TERM.TERM_NAME));
      572    12115    3           END;

  12115  4 001132   002106 710000 4                  TRA     s:12292

      573    12116
      574    12117        %EJECT;
PL6.E3A0      #002=KSC$LINCNFG File=KSC$COMMANDS1.:E05TSI                        WED 07/30/97 01:42 Page:108
      575    12118    2           CASE(%KS_CONFIG);

      576    12119    2              NO_CHAN = '0'B;

  12119  4 001133   200051 450100                    STZ     NO_CHAN,,AUTO

      577    12120    2             KS_HLPCGERR = '0'B;

  12120  4 001134   200075 450100                    STZ     KS_HLPCGERR,,AUTO

      578    12121    2              CALL KSU$BLD_TERMRANGE (OUT$BLK.SUBLK$(0),TERMLO,TERMHI,'1')

  12121  4 001135   000033 236000 5                  LDQ     27
         4 001136   200105 756100                    STQ     D$+5,,AUTO
         4 001137   200044 633500                    EPPR3   TERMHI,,AUTO
         4 001140   200104 453500                    STP3    D$+4,,AUTO
         4 001141   200040 634500                    EPPR4   TERMLO,,AUTO
         4 001142   200103 454500                    STP4    D$+3,,AUTO
         4 001143   100003 635500                    EPPR5   3,,PR1
         4 001144   200102 455500                    STP5    D$+2,,AUTO
         4 001145   200102 630500                    EPPR0   D$+2,,AUTO
         4 001146   000022 631400 xsym               EPPR1   B_VECTNIL+18
         4 001147   000000 701000 xent               TSX1    KSU$BLD_TERMRANGE
         4 001150   001152 702000 4                  TSX2    s:12123
         4 001151   001162 710000 4                  TRA     s:12130

      579    12122    3                 WHENALTRETURN DO;

      580    12123    3                    IF TERMLO.TERM.TERM_NAME ~= ' ' AND

  12123  4 001152   200042 237100                    LDAQ    TERMLO+2,,AUTO
         4 001153   000000 117000 5                  CMPAQ   0
         4 001154   002113 600000 4                  TZE     ERR1
         4 001155   200040 720100                    LXL0    TERMLO,,AUTO
         4 001156   002113 601000 4                  TNZ     ERR1

      581    12124    3                       TERMLO.TERM.CHANNEL = '0'B THEN
PL6.E3A0      #002=KSC$LINCNFG File=KSC$COMMANDS1.:E05TSI                        WED 07/30/97 01:42 Page:109
      582    12125    3                       NO_CHAN = '1'B;

  12125  4 001157   400000 236003                    LDQ     -131072,DU
         4 001160   200051 756100                    STQ     NO_CHAN,,AUTO
         4 001161   001162 710000 4                  TRA     s:12130

      583    12126    3                    ELSE
      584    12127    3                       GOTO ERR1;
      585    12128    3                 END;
      586    12129
      587    12130    2              IF TERMLO.TERM.TERM_NAME ~= ' ' THEN

  12130  4 001162   200042 237100                    LDAQ    TERMLO+2,,AUTO
         4 001163   000000 117000 5                  CMPAQ   0
         4 001164   001246 600000 4                  TZE     s:12155

      588    12131    3                 DO;

      589    12132    3                    CALL KSU$BLD_TERMID(OUT$BLK.SUBLK$(0)->OUT$BLK.SUBLK$(0),FEPLO)

  12132  4 001165   200003 470500                    LDP0    @TOP$,,AUTO
         4 001166   000000 471500                    LDP1    0,,PR0
         4 001167   100003 473500                    LDP3    3,,PR1
         4 001170   200065 634500                    EPPR4   FEPLO,,AUTO
         4 001171   200103 454500                    STP4    D$+3,,AUTO
         4 001172   300003 631500                    EPPR1   3,,PR3
         4 001173   200102 451500                    STP1    D$+2,,AUTO
         4 001174   200102 630500                    EPPR0   D$+2,,AUTO
         4 001175   000020 631400 xsym               EPPR1   B_VECTNIL+16
         4 001176   000000 701000 xent               TSX1    KSU$BLD_TERMID
         4 001177   001201 702000 4                  TSX2    s:12134
         4 001200   001205 710000 4                  TRA     s:12138

      590    12133    4                         WHENALTRETURN DO;

      591    12134    4                            IF KS_ERRCODE.CODE ~= %E$KS_NO_CHAN_FOR_TRM

PL6.E3A0      #002=KSC$LINCNFG File=KSC$COMMANDS1.:E05TSI                        WED 07/30/97 01:42 Page:110
  12134  4 001201   000000 236000 xsym               LDQ     KS_ERRCODE
         4 001202   377770 376007                    ANQ     131064,DL
         4 001203   000270 116007                    CMPQ    184,DL
         4 001204   002107 601000 4                  TNZ     ERR

      592    12135    4                            THEN GOTO ERR;
      593    12136    4                         END;  /* altret on feplo */

      594    12137
      595    12138    3                    IF OUT$BLK.SUBLK$(0)->OUT$BLK.NSUBLKS = 2 THEN

  12138  4 001205   200003 470500                    LDP0    @TOP$,,AUTO
         4 001206   000000 471500                    LDP1    0,,PR0
         4 001207   100003 473500                    LDP3    3,,PR1
         4 001210   300001 220100                    LDX0    1,,PR3
         4 001211   000002 100003                    CMPX0   2,DU
         4 001212   001246 601000 4                  TNZ     s:12155

      596    12139    4                       DO;

      597    12140    4                        CALL KSU$BLD_TERMID(OUT$BLK.SUBLK$(0)->OUT$BLK.SUBLK$(1),FEPHI
             12140                                  )

  12140  4 001213   200071 634500                    EPPR4   FEPHI,,AUTO
         4 001214   200103 454500                    STP4    D$+3,,AUTO
         4 001215   300004 631500                    EPPR1   4,,PR3
         4 001216   200102 451500                    STP1    D$+2,,AUTO
         4 001217   200102 630500                    EPPR0   D$+2,,AUTO
         4 001220   000020 631400 xsym               EPPR1   B_VECTNIL+16
         4 001221   000000 701000 xent               TSX1    KSU$BLD_TERMID
         4 001222   001224 702000 4                  TSX2    s:12142
         4 001223   001230 710000 4                  TRA     s:12146

      598    12141    5                              WHENALTRETURN DO;

      599    12142    5                                 IF KS_ERRCODE.CODE ~= %E$KS_NO_CHAN_FOR_TRM

PL6.E3A0      #002=KSC$LINCNFG File=KSC$COMMANDS1.:E05TSI                        WED 07/30/97 01:42 Page:111
  12142  4 001224   000000 236000 xsym               LDQ     KS_ERRCODE
         4 001225   377770 376007                    ANQ     131064,DL
         4 001226   000270 116007                    CMPQ    184,DL
         4 001227   002113 601000 4                  TNZ     ERR1

      600    12143    5                                 THEN GOTO ERR1;
      601    12144    5                              END;  /* altret on fephi */

      602    12145
      603    12146    4                         CALL KSU$CHK_TRM_RNG(FEPLO,FEPHI)

  12146  4 001230   200071 630500                    EPPR0   FEPHI,,AUTO
         4 001231   200103 450500                    STP0    D$+3,,AUTO
         4 001232   200065 631500                    EPPR1   FEPLO,,AUTO
         4 001233   200102 451500                    STP1    D$+2,,AUTO
         4 001234   200102 630500                    EPPR0   D$+2,,AUTO
         4 001235   000020 631400 xsym               EPPR1   B_VECTNIL+16
         4 001236   000000 701000 xent               TSX1    KSU$CHK_TRM_RNG
         4 001237   001241 702000 4                  TSX2    s:12149
         4 001240   001246 710000 4                  TRA     s:12155

      604    12147
      605    12148    5                              WHENALTRETURN DO;

      606    12149    5                                 CALL KSE$ERRMSG(%E$KS_BAD_TRM_RANGE);

  12149  4 001241   000072 630400 5                  EPPR0   58
         4 001242   000017 631400 xsym               EPPR1   B_VECTNIL+15
         4 001243   000000 701000 xent               TSX1    KSE$ERRMSG
         4 001244   000000 011000                    NOP     0

      607    12150    5                                 GOTO ERR1;

  12150  4 001245   002113 710000 4                  TRA     ERR1

      608    12151    5                              END;
      609    12152    4                       END;
PL6.E3A0      #002=KSC$LINCNFG File=KSC$COMMANDS1.:E05TSI                        WED 07/30/97 01:42 Page:112

      610    12153    3                 END;

      611    12154
      612    12155    2              IF NOT NO_CHAN THEN

  12155  4 001246   200051 234100                    SZN     NO_CHAN,,AUTO
         4 001247   001254 604000 4                  TMI     s:12158

      613    12156    2                 CALL KSU$CHECK_FOR_FEP (KS_NODE) ALTRET(ERR1);

  12156  4 001250   000002 630400 5                  EPPR0   2
         4 001251   000017 631400 xsym               EPPR1   B_VECTNIL+15
         4 001252   000000 701000 xent               TSX1    KSU$CHECK_FOR_FEP
         4 001253   002113 702000 4                  TSX2    ERR1

      614    12157
      615    12158    2              TERM_NAME = TERMLO.TERM.TERM_NAME;

  12158  4 001254   200042 237100                    LDAQ    TERMLO+2,,AUTO
         4 001255   200053 755100                    STA     TERM_NAME,,AUTO
         4 001256   200054 756100                    STQ     TERM_NAME+1,,AUTO

      616    12159    2                    IF TERM_NAME ~= ' ' THEN

  12159  4 001257   040000 106500                    CMPC    fill='040'O
         4 001260   200053 000010                    ADSC9   TERM_NAME,,AUTO          cn=0,n=8
         4 001261   000035 000001 xsym               ADSC9   B_VECTNIL+29             cn=0,n=1
         4 001262   001277 600000 4                  TZE     s:12168

      617    12160    3                       DO;

      618    12161    3                          TERMLO.TERM.TERM_NAME = TERM_NAME;

  12161  4 001263   040100 100500                    MLR     fill='040'O
         4 001264   200053 000010                    ADSC9   TERM_NAME,,AUTO          cn=0,n=8
         4 001265   200042 000010                    ADSC9   TERMLO+2,,AUTO           cn=0,n=8
PL6.E3A0      #002=KSC$LINCNFG File=KSC$COMMANDS1.:E05TSI                        WED 07/30/97 01:42 Page:113

      619    12162    3                          TERMHI.TERM.TERM_NAME = TERM_NAME;

  12162  4 001266   040100 100500                    MLR     fill='040'O
         4 001267   200053 000010                    ADSC9   TERM_NAME,,AUTO          cn=0,n=8
         4 001270   200046 000010                    ADSC9   TERMHI+2,,AUTO           cn=0,n=8

      620    12163    3                          TERMLO.TERM.CHANNEL = '0'B;

  12163  4 001271   000000 220003                    LDX0    0,DU
         4 001272   200040 440100                    SXL0    TERMLO,,AUTO

      621    12164    3                          TERMHI.TERM.CHANNEL = '0'B;

  12164  4 001273   200044 440100                    SXL0    TERMHI,,AUTO

      622    12165    3                          KS_CONFIG_KEY.NODE = 0;

  12165  4 001274   000000 236003                    LDQ     0,DU
         4 001275   000347 552010 2                  STBQ    KS_CONFIG_KEY,'10'O

      623    12166    3                       END;

  12166  4 001276   001302 710000 4                  TRA     s:12170

      624    12167    2                    ELSE
      625    12168    2                       KS_CONFIG_KEY.NODE = KS_NODE;

  12168  4 001277   000000 236000 xsym               LDQ     KS_NODE
         4 001300   000011 736000                    QLS     9
         4 001301   000347 552010 2                  STBQ    KS_CONFIG_KEY,'10'O

      626    12169
      627    12170    2                    KS_CONFIG_KEY.TERMID.LEV = TERMLO.LEV;

  12170  4 001302   200040 236100                    LDQ     TERMLO,,AUTO
         4 001303   000011 736000                    QLS     9
PL6.E3A0      #002=KSC$LINCNFG File=KSC$COMMANDS1.:E05TSI                        WED 07/30/97 01:42 Page:114
         4 001304   000350 552040 2                  STBQ    KS_CONFIG_KEY+1,'40'O

      628    12171    2                    KS_CONFIG_KEY.TERMID.TERM.TERM_NAME = TERM_NAME;

  12171  4 001305   040000 100500                    MLR     fill='040'O
         4 001306   200053 000010                    ADSC9   TERM_NAME,,AUTO          cn=0,n=8
         4 001307   000351 600010 2                  ADSC9   KS_CONFIG_KEY+2          cn=3,n=8

      629    12172    2                    CALL KSU$PACK2 (TERMLO.TERM.CHANNEL,CHANLO);

  12172  4 001310   200020 630500                    EPPR0   CHANLO,,AUTO
         4 001311   200103 450500                    STP0    D$+3,,AUTO
         4 001312   200104 452500                    STP2    D$+4,,AUTO
         4 001313   200104 236100                    LDQ     D$+4,,AUTO
         4 001314   000047 036000 5                  ADLQ    39
         4 001315   200102 756100                    STQ     D$+2,,AUTO
         4 001316   200102 630500                    EPPR0   D$+2,,AUTO
         4 001317   000020 631400 xsym               EPPR1   B_VECTNIL+16
         4 001320   000000 701000 xent               TSX1    KSU$PACK2
         4 001321   000000 011000                    NOP     0

      630    12173    2                    CALL KSU$PACK2 (TERMHI.TERM.CHANNEL,CHANHI);

  12173  4 001322   200014 630500                    EPPR0   CHANHI,,AUTO
         4 001323   200103 450500                    STP0    D$+3,,AUTO
         4 001324   200104 452500                    STP2    D$+4,,AUTO
         4 001325   200104 236100                    LDQ     D$+4,,AUTO
         4 001326   000050 036000 5                  ADLQ    40
         4 001327   200102 756100                    STQ     D$+2,,AUTO
         4 001330   200102 630500                    EPPR0   D$+2,,AUTO
         4 001331   000020 631400 xsym               EPPR1   B_VECTNIL+16
         4 001332   000000 701000 xent               TSX1    KSU$PACK2
         4 001333   000000 011000                    NOP     0

      631    12174    2                    CALL KSU$PACK2 (TERMLO.TERM.SUBDEVICE,SUBLO);

  12174  4 001334   200027 630500                    EPPR0   SUBLO,,AUTO
PL6.E3A0      #002=KSC$LINCNFG File=KSC$COMMANDS1.:E05TSI                        WED 07/30/97 01:42 Page:115
         4 001335   200103 450500                    STP0    D$+3,,AUTO
         4 001336   200041 631500                    EPPR1   TERMLO+1,,AUTO
         4 001337   200102 451500                    STP1    D$+2,,AUTO
         4 001340   200102 630500                    EPPR0   D$+2,,AUTO
         4 001341   000020 631400 xsym               EPPR1   B_VECTNIL+16
         4 001342   000000 701000 xent               TSX1    KSU$PACK2
         4 001343   000000 011000                    NOP     0

      632    12175    2                    CALL KSU$PACK2 (TERMHI.TERM.SUBDEVICE,SUBHI);

  12175  4 001344   200030 630500                    EPPR0   SUBHI,,AUTO
         4 001345   200103 450500                    STP0    D$+3,,AUTO
         4 001346   200045 631500                    EPPR1   TERMHI+1,,AUTO
         4 001347   200102 451500                    STP1    D$+2,,AUTO
         4 001350   200102 630500                    EPPR0   D$+2,,AUTO
         4 001351   000020 631400 xsym               EPPR1   B_VECTNIL+16
         4 001352   000000 701000 xent               TSX1    KSU$PACK2
         4 001353   000000 011000                    NOP     0

      633    12176    2                    CALL KSU$PACK2 (TERMLO.TERM.SUBSUBDEVICE,SUBSUBLO);

  12176  4 001354   200032 630500                    EPPR0   SUBSUBLO,,AUTO
         4 001355   200103 450500                    STP0    D$+3,,AUTO
         4 001356   200104 452500                    STP2    D$+4,,AUTO
         4 001357   200104 236100                    LDQ     D$+4,,AUTO
         4 001360   000051 036000 5                  ADLQ    41
         4 001361   200102 756100                    STQ     D$+2,,AUTO
         4 001362   200102 630500                    EPPR0   D$+2,,AUTO
         4 001363   000020 631400 xsym               EPPR1   B_VECTNIL+16
         4 001364   000000 701000 xent               TSX1    KSU$PACK2
         4 001365   000000 011000                    NOP     0

      634    12177    2                    CALL KSU$PACK2 (TERMHI.TERM.SUBSUBDEVICE,SUBSUBHI);

  12177  4 001366   200033 630500                    EPPR0   SUBSUBHI,,AUTO
         4 001367   200103 450500                    STP0    D$+3,,AUTO
         4 001370   200104 452500                    STP2    D$+4,,AUTO
PL6.E3A0      #002=KSC$LINCNFG File=KSC$COMMANDS1.:E05TSI                        WED 07/30/97 01:42 Page:116
         4 001371   200104 236100                    LDQ     D$+4,,AUTO
         4 001372   000052 036000 5                  ADLQ    42
         4 001373   200102 756100                    STQ     D$+2,,AUTO
         4 001374   200102 630500                    EPPR0   D$+2,,AUTO
         4 001375   000020 631400 xsym               EPPR1   B_VECTNIL+16
         4 001376   000000 701000 xent               TSX1    KSU$PACK2
         4 001377   000000 011000                    NOP     0

      635    12178
      636    12179    3   CON_C_LOOP:      DO CHAN = CHANLO TO CHANHI BY 128;

  12179  4 001400   200020 235100       CON_C_LOOP   LDA     CHANLO,,AUTO
         4 001401   200013 755100                    STA     CHAN,,AUTO
         4 001402   001737 710000 4                  TRA     s:12270+3

      637    12180    3                    CALL KSU$UNPACK (CHAN,KS_CONFIG_KEY.TERMID.TERM.CHANNEL);

  12180  4 001403   000073 236000 5                  LDQ     59
         4 001404   200103 756100                    STQ     D$+3,,AUTO
         4 001405   200013 630500                    EPPR0   CHAN,,AUTO
         4 001406   200102 450500                    STP0    D$+2,,AUTO
         4 001407   200102 630500                    EPPR0   D$+2,,AUTO
         4 001410   000020 631400 xsym               EPPR1   B_VECTNIL+16
         4 001411   000000 701000 xent               TSX1    KSU$UNPACK
         4 001412   000000 011000                    NOP     0

      638    12181    4   CON_S_LOOP:         DO SUB = SUBLO TO SUBHI;

  12181  4 001413   200027 235100       CON_S_LOOP   LDA     SUBLO,,AUTO
         4 001414   200026 755100                    STA     SUB,,AUTO
         4 001415   001731 710000 4                  TRA     s:12269+3

      639    12182    4                          CALL KSU$UNPACK (SUB,KS_CONFIG_KEY.TERMID.TERM.SUBDEVICE);

  12182  4 001416   000074 236000 5                  LDQ     60
         4 001417   200103 756100                    STQ     D$+3,,AUTO
         4 001420   200026 630500                    EPPR0   SUB,,AUTO
PL6.E3A0      #002=KSC$LINCNFG File=KSC$COMMANDS1.:E05TSI                        WED 07/30/97 01:42 Page:117
         4 001421   200102 450500                    STP0    D$+2,,AUTO
         4 001422   200102 630500                    EPPR0   D$+2,,AUTO
         4 001423   000020 631400 xsym               EPPR1   B_VECTNIL+16
         4 001424   000000 701000 xent               TSX1    KSU$UNPACK
         4 001425   000000 011000                    NOP     0

      640    12183    5   CON_SS_LOOP:           DO SUBSUB = SUBSUBLO TO SUBSUBHI;

  12183  4 001426   200032 235100       CON_SS_LOOP  LDA     SUBSUBLO,,AUTO
         4 001427   200031 755100                    STA     SUBSUB,,AUTO
         4 001430   001723 710000 4                  TRA     s:12268+3

      641    12184    5                             CALL KSU$UNPACK (SUBSUB,KS_CONFIG_KEY.TERMID.TERM.
             12184                                      SUBSUBDEVICE);

  12184  4 001431   000075 236000 5                  LDQ     61
         4 001432   200103 756100                    STQ     D$+3,,AUTO
         4 001433   200031 630500                    EPPR0   SUBSUB,,AUTO
         4 001434   200102 450500                    STP0    D$+2,,AUTO
         4 001435   200102 630500                    EPPR0   D$+2,,AUTO
         4 001436   000020 631400 xsym               EPPR1   B_VECTNIL+16
         4 001437   000000 701000 xent               TSX1    KSU$UNPACK
         4 001440   000000 011000                    NOP     0

      642    12185
      643    12186    5                             CALL KSU$READ_NETCON (VECTOR(KS_CONFIG_KEY),VECTOR(
             12186                                      CNFG_BUF))

  12186  4 001441   000076 630400 5                  EPPR0   62
         4 001442   000020 631400 xsym               EPPR1   B_VECTNIL+16
         4 001443   000000 701000 xent               TSX1    KSU$READ_NETCON
         4 001444   001451 702000 4                  TSX2    s:12191

      644    12187    6                                WHENRETURN DO;

      645    12188    6                                   LINCNFG.NA.CNFG_EXISTS = '1'B;

PL6.E3A0      #002=KSC$LINCNFG File=KSC$COMMANDS1.:E05TSI                        WED 07/30/97 01:42 Page:118
  12188  4 001445   000062 470400 2                  LDP0    CNFG$
         4 001446   000002 236007                    LDQ     2,DL
         4 001447   000004 256100                    ORSQ    4,,PR0

      646    12189    6                                END;

  12189  4 001450   001463 710000 4                  TRA     s:12197

      647    12190    6                                WHENALTRETURN DO;

      648    12191    6                                   IF B$TCB$->B$TCB.ALT$->B$ALT.ERR.CODE = %E$NOKEY
             12191                                            THEN

  12191  4 001451   000000 470400 xsym               LDP0    B$TCB$
         4 001452   000000 471500                    LDP1    0,,PR0
         4 001453   100102 236100                    LDQ     66,,PR1
         4 001454   377770 376007                    ANQ     131064,DL
         4 001455   001020 116007                    CMPQ    528,DL
         4 001456   002107 601000 4                  TNZ     ERR

      649    12192    6                                      LINCNFG.NA.CNFG_EXISTS = '0'B;

  12192  4 001457   000062 473400 2                  LDP3    CNFG$
         4 001460   000100 236000 5                  LDQ     64
         4 001461   300004 356100                    ANSQ    4,,PR3
         4 001462   001463 710000 4                  TRA     s:12197

      650    12193    6                                   ELSE
      651    12194    6                                      GOTO ERR;
      652    12195    6                                END;
      653    12196
      654    12197    5                             LOGON_STRING = LINCNFG.LGN.LGNSTRING;

  12197  4 001463   000062 470400 2                  LDP0    CNFG$
         4 001464   000012 236100                    LDQ     10,,PR0
         4 001465   000011 772000                    QRL     9
         4 001466   000777 376007                    ANQ     511,DL
PL6.E3A0      #002=KSC$LINCNFG File=KSC$COMMANDS1.:E05TSI                        WED 07/30/97 01:42 Page:119
         4 001467   000000 620006                    EAX0    0,QL
         4 001470   040100 100540                    MLR     fill='040'O
         4 001471   000012 600010                    ADSC9   10,,PR0                  cn=3,n=*X0
         4 001472   200055 000037                    ADSC9   LOGON_STRING,,AUTO       cn=0,n=31

      655    12198    5                             CALL KSU$BLD_LINCNFG (TOP$,LINCNFG) ALTRET(ERR1);

  12198  4 001473   000062 236000 2                  LDQ     CNFG$
         4 001474   200003 235100                    LDA     @TOP$,,AUTO
         4 001475   200102 757100                    STAQ    D$+2,,AUTO
         4 001476   200102 630500                    EPPR0   D$+2,,AUTO
         4 001477   000020 631400 xsym               EPPR1   B_VECTNIL+16
         4 001500   000000 701000 xent               TSX1    KSU$BLD_LINCNFG
         4 001501   002113 702000 4                  TSX2    ERR1

      656    12199
      657    12200    5              IF KS_SELPRMOPT ~= %KS_FILE THEN

  12200  4 001502   000000 236000 xsym               LDQ     KS_SELPRMOPT
         4 001503   777000 376003                    ANQ     -512,DU
         4 001504   003000 116003                    CMPQ    1536,DU
         4 001505   001627 600000 4                  TZE     s:12244

      658    12201    6   CONFIG_FEP:   DO;

  12201  4 001506                       CONFIG_FEP   null
      659    12202    6                    IF NO_CHAN THEN

  12202  4 001506   200051 234100                    SZN     NO_CHAN,,AUTO
         4 001507   001526 605000 4                  TPL     s:12210

      660    12203    7                       DO;

      661    12204    7                          CALL KSE$ERRMSG (%E$KS_NO_CHAN_FOR_TRM,

  12204  4 001510   000040 235000 5                  LDA     32
         4 001511   200102 452500                    STP2    D$+2,,AUTO
PL6.E3A0      #002=KSC$LINCNFG File=KSC$COMMANDS1.:E05TSI                        WED 07/30/97 01:42 Page:120
         4 001512   200102 236100                    LDQ     D$+2,,AUTO
         4 001513   000042 036003                    ADLQ    34,DU
         4 001514   200104 757100                    STAQ    D$+4,,AUTO
         4 001515   200104 630500                    EPPR0   D$+4,,AUTO
         4 001516   200107 450500                    STP0    D$+7,,AUTO
         4 001517   000102 236000 5                  LDQ     66
         4 001520   200106 756100                    STQ     D$+6,,AUTO
         4 001521   200106 630500                    EPPR0   D$+6,,AUTO
         4 001522   000020 631400 xsym               EPPR1   B_VECTNIL+16
         4 001523   000000 701000 xent               TSX1    KSE$ERRMSG
         4 001524   000000 011000                    NOP     0

      662    12205    7                             VECTOR(TERMLO.TERM.TERM_NAME));
      663    12206    7                          GOTO CONFIG_NETCON;

  12206  4 001525   001633 710000 4                  TRA     CONFIG_NETCON

      664    12207    7                       END;
      665    12208    6                    ELSE
      666    12209    7                       DO;

      667    12210    7                          TERMLO.TERM.TERM_NAME = ' ';

  12210  4 001526   000035 235000 xsym               LDA     B_VECTNIL+29
         4 001527   000035 236000 xsym               LDQ     B_VECTNIL+29
         4 001530   200042 757100                    STAQ    TERMLO+2,,AUTO

      668    12211    7                          TERMHI.TERM.TERM_NAME = ' ';

  12211  4 001531   000035 235000 xsym               LDA     B_VECTNIL+29
         4 001532   000035 236000 xsym               LDQ     B_VECTNIL+29
         4 001533   200046 757100                    STAQ    TERMHI+2,,AUTO

      669    12212    7                          CNFG_MSG.TERMID_LO = KS_CONFIG_KEY.TERMID;

  12212  4 001534   000000 100400                    MLR     fill='000'O
         4 001535   000347 600020 2                  ADSC9   KS_CONFIG_KEY            cn=3,n=16
PL6.E3A0      #002=KSC$LINCNFG File=KSC$COMMANDS1.:E05TSI                        WED 07/30/97 01:42 Page:121
         4 001536   000301 400020 2                  ADSC9   CNFG_MSG+8               cn=2,n=16

      670    12213    7                          CNFG_MSG.TERMID_HI = KS_CONFIG_KEY.TERMID;

  12213  4 001537   000000 100400                    MLR     fill='000'O
         4 001540   000347 600020 2                  ADSC9   KS_CONFIG_KEY            cn=3,n=16
         4 001541   000305 400020 2                  ADSC9   CNFG_MSG+12              cn=2,n=16

      671    12214    7                          CNFG_MSG.KHA = LINCNFG.KHA;

  12214  4 001542   000062 470400 2                  LDP0    CNFG$
         4 001543   000000 100500                    MLR     fill='000'O
         4 001544   000000 000022                    ADSC9   0,,PR0                   cn=0,n=18
         4 001545   000311 400022 2                  ADSC9   CNFG_MSG+16              cn=2,n=18

      672    12215    7                          CNFG_MSG.NA = LINCNFG.NA;

  12215  4 001546   000000 100500                    MLR     fill='000'O
         4 001547   000004 400010                    ADSC9   4,,PR0                   cn=2,n=8
         4 001550   000316 000010 2                  ADSC9   CNFG_MSG+21              cn=0,n=8

      673    12216    7                          CNFG_MSG.NA.CNFG_EXISTS = '1'B;

  12216  4 001551   000002 236003                    LDQ     2,DU
         4 001552   000316 256000 2                  ORSQ    CNFG_MSG+21

      674    12217    8                          IF TERM_NAME ~= ' ' THEN DO;

  12217  4 001553   040000 106500                    CMPC    fill='040'O
         4 001554   200053 000010                    ADSC9   TERM_NAME,,AUTO          cn=0,n=8
         4 001555   000035 000001 xsym               ADSC9   B_VECTNIL+29             cn=0,n=1
         4 001556   001563 600000 4                  TZE     s:12222

      675    12218    8                             CNFG_MSG.TERMID_LO.TERM.CHANNEL = FEPLO.TERM.CHANNEL;

  12218  4 001557   200065 720100                    LXL0    FEPLO,,AUTO
         4 001560   000302 740000 2                  STX0    CNFG_MSG+9
PL6.E3A0      #002=KSC$LINCNFG File=KSC$COMMANDS1.:E05TSI                        WED 07/30/97 01:42 Page:122

      676    12219    8                             CNFG_MSG.TERMID_HI.TERM.CHANNEL = FEPHI.TERM.CHANNEL;

  12219  4 001561   200071 721100                    LXL1    FEPHI,,AUTO
         4 001562   000306 741000 2                  STX1    CNFG_MSG+13

      677    12220    8                          END;

      678    12221
      679    12222    7                          CALL KSR$WR_HLPCG (VECTOR(CNFG_MSG))

  12222  4 001563   000106 630400 5                  EPPR0   70
         4 001564   000017 631400 xsym               EPPR1   B_VECTNIL+15
         4 001565   000000 701000 xent               TSX1    KSR$WR_HLPCG
         4 001566   001570 702000 4                  TSX2    s:12224
         4 001567   001577 710000 4                  TRA     s:12228

      680    12223    8                             WHENALTRETURN DO;

      681    12224    8                                CALL KSE$ERRMSG(0);

  12224  4 001570   000053 630400 5                  EPPR0   43
         4 001571   000017 631400 xsym               EPPR1   B_VECTNIL+15
         4 001572   000000 701000 xent               TSX1    KSE$ERRMSG
         4 001573   000000 011000                    NOP     0

      682    12225    8                           KS_HLPCGERR = '1'B;

  12225  4 001574   400000 236003                    LDQ     -131072,DU
         4 001575   200075 756100                    STQ     KS_HLPCGERR,,AUTO

      683    12226    8                                GOTO CONFIG_NETCON;

  12226  4 001576   001633 710000 4                  TRA     CONFIG_NETCON

      684    12227    8                             END;
      685    12228    7                          CALL KSR$RD_HLPCG
PL6.E3A0      #002=KSC$LINCNFG File=KSC$COMMANDS1.:E05TSI                        WED 07/30/97 01:42 Page:123

  12228  4 001577   000002 631400 xsym               EPPR1   B_VECTNIL+2
         4 001600   000000 701000 xent               TSX1    KSR$RD_HLPCG
         4 001601   001603 702000 4                  TSX2    s:12230
         4 001602   001627 710000 4                  TRA     s:12244

      686    12229    8                             WHENALTRETURN DO;

      687    12230    8                           KS_HLPCGERR = '1'B;

  12230  4 001603   400000 236003                    LDQ     -131072,DU
         4 001604   200075 756100                    STQ     KS_HLPCGERR,,AUTO

      688    12231    8                                IF KS$HDR.RESULTS.ERR# = %E$CHAN_NOT_THERE AND

  12231  4 001605   000225 470400 2                  LDP0    HDR$
         4 001606   000007 236100                    LDQ     7,,PR0
         4 001607   377770 376007                    ANQ     131064,DL
         4 001610   020670 116007                    CMPQ    8632,DL
         4 001611   001626 601000 4                  TNZ     s:12239
         4 001612   200040 236100                    LDQ     TERMLO,,AUTO
         4 001613   000777 376003                    ANQ     511,DU
         4 001614   000002 116003                    CMPQ    2,DU
         4 001615   001626 602000 4                  TNC     s:12239
         4 001616   000000 236000 xsym               LDQ     KS_SELPRMOPT
         4 001617   777000 376003                    ANQ     -512,DU
         4 001620   001000 116003                    CMPQ    512,DU
         4 001621   001626 600000 4                  TZE     s:12239

      689    12232    8                                   TERMLO.LEV > %TERMINAL_ID_LEV_CHAN# AND
      690    12233    8                                   KS_SELPRMOPT ~= %KS_TEMP THEN
      691    12234    9                                   DO;

      692    12235    9                                      CALL KSE$ERRMSG (%E$KS_CHAN_NOT_THERE);

  12235  4 001622   000110 630400 5                  EPPR0   72
         4 001623   000017 631400 xsym               EPPR1   B_VECTNIL+15
PL6.E3A0      #002=KSC$LINCNFG File=KSC$COMMANDS1.:E05TSI                        WED 07/30/97 01:42 Page:124
         4 001624   000000 701000 xent               TSX1    KSE$ERRMSG
         4 001625   000000 011000                    NOP     0

      693    12236                         /*E* ERROR:  KSN-E$KS_CHAN_NOT_THERE-0
      694    12237             MESSAGE: This configuration will not take effect until the FEP is rebooted. */
      695    12238    9                                   END;

      696    12239    8                                GOTO CONFIG_NETCON;

  12239  4 001626   001633 710000 4                  TRA     CONFIG_NETCON

      697    12240    8                             END;
      698    12241    7                       END;

      699    12242    6                 END CONFIG_FEP;

      700    12243
      701    12244    5                 IF KS_SELPRMOPT ~= %KS_TEMP THEN

  12244  4 001627   000000 236000 xsym               LDQ     KS_SELPRMOPT
         4 001630   777000 376003                    ANQ     -512,DU
         4 001631   001000 116003                    CMPQ    512,DU
         4 001632   001720 600000 4                  TZE     s:12268

      702    12245    6   CONFIG_NETCON:   DO;

  12245  4 001633                       CONFIG_NETC* null
      703    12246    6                             CALL KSU$WRITE_NETCON (VECTOR(KS_CONFIG_KEY),VECTOR(
             12246                                      CNFG_BUF)) ALTRET(ERR);

  12246  4 001633   000076 630400 5                  EPPR0   62
         4 001634   000020 631400 xsym               EPPR1   B_VECTNIL+16
         4 001635   000000 701000 xent               TSX1    KSU$WRITE_NETCON
         4 001636   002107 702000 4                  TSX2    ERR

      704    12247    6                             IF LINCNFG.NA.AUTLGN ~= %KS_IGNORE THEN

PL6.E3A0      #002=KSC$LINCNFG File=KSC$COMMANDS1.:E05TSI                        WED 07/30/97 01:42 Page:125
  12247  4 001637   000062 470400 2                  LDP0    CNFG$
         4 001640   000004 236100                    LDQ     4,,PR0
         4 001641   014000 376007                    ANQ     6144,DL
         4 001642   004000 116007                    CMPQ    2048,DL
         4 001643   001720 600000 4                  TZE     s:12268

      705    12248    6                                IF LINCNFG.NA.AUTLGN = %KS_NO_BIT THEN

  12248  4 001644   000004 236100                    LDQ     4,,PR0
         4 001645   014000 316007                    CANQ    6144,DL
         4 001646   001674 601000 4                  TNZ     s:12261

      706    12249    7                                   DO;

      707    12250    7                                   IF LOGON_STRING ~= ' ' THEN

  12250  4 001647   040000 106500                    CMPC    fill='040'O
         4 001650   200055 000037                    ADSC9   LOGON_STRING,,AUTO       cn=0,n=31
         4 001651   000035 000001 xsym               ADSC9   B_VECTNIL+29             cn=0,n=1
         4 001652   001720 600000 4                  TZE     s:12268

      708    12251    8                                      DO;

      709    12252    8                                         TERM_KEY.TERMID = '0'B;

  12252  4 001653   000000 100400                    MLR     fill='000'O
         4 001654   000002 000001 xsym               ADSC9   B_VECTNIL+2              cn=0,n=1
         4 001655   000264 400020 2                  ADSC9   TERM_KEY                 cn=2,n=16

      710    12253    8                                        TERM_KEY.TERMID.TERM.TERM_NAME = LOGON_STRING;

  12253  4 001656   040000 100500                    MLR     fill='040'O
         4 001657   200055 000010                    ADSC9   LOGON_STRING,,AUTO       cn=0,n=8
         4 001660   000266 400010 2                  ADSC9   TERM_KEY+2               cn=2,n=8

      711    12254    8                                         TERM_REC = '0'B;

PL6.E3A0      #002=KSC$LINCNFG File=KSC$COMMANDS1.:E05TSI                        WED 07/30/97 01:42 Page:126
  12254  4 001661   000000 100400                    MLR     fill='000'O
         4 001662   000002 000001 xsym               ADSC9   B_VECTNIL+2              cn=0,n=1
         4 001663   000252 000023 2                  ADSC9   TERM_REC                 cn=0,n=19

      712    12255    8                                         TERM_REC.TERMID.TERM.TERM_NAME = ' ';

  12255  4 001664   040000 100400                    MLR     fill='040'O
         4 001665   000035 000001 xsym               ADSC9   B_VECTNIL+29             cn=0,n=1
         4 001666   000254 600010 2                  ADSC9   TERM_REC+2               cn=3,n=8

      713    12256    8                                        CALL KSU$WRITE_NETCON (VECTOR(TERM_KEY),VECTOR
             12256                                                  (TERM_REC)) ALTRET(ERR);

  12256  4 001667   000116 630400 5                  EPPR0   78
         4 001670   000020 631400 xsym               EPPR1   B_VECTNIL+16
         4 001671   000000 701000 xent               TSX1    KSU$WRITE_NETCON
         4 001672   002107 702000 4                  TSX2    ERR

      714    12257    8                                      END;

      715    12258    7                                   END;

  12258  4 001673   001720 710000 4                  TRA     s:12268

      716    12259    6                                ELSE
      717    12260    7                                   DO;

      718    12261    7                                      TERM_KEY.TERMID = '0'B;

  12261  4 001674   000000 100400                    MLR     fill='000'O
         4 001675   000002 000001 xsym               ADSC9   B_VECTNIL+2              cn=0,n=1
         4 001676   000264 400020 2                  ADSC9   TERM_KEY                 cn=2,n=16

      719    12262    7                                      TERM_KEY.TERMID.TERM.TERM_NAME = LINCNFG.LGN.
             12262                                               LGNSTRING;

  12262  4 001677   000012 236100                    LDQ     10,,PR0
PL6.E3A0      #002=KSC$LINCNFG File=KSC$COMMANDS1.:E05TSI                        WED 07/30/97 01:42 Page:127
         4 001700   000011 772000                    QRL     9
         4 001701   000777 376007                    ANQ     511,DL
         4 001702   000000 620006                    EAX0    0,QL
         4 001703   040000 100540                    MLR     fill='040'O
         4 001704   000012 600010                    ADSC9   10,,PR0                  cn=3,n=*X0
         4 001705   000266 400010 2                  ADSC9   TERM_KEY+2               cn=2,n=8

      720    12263    7                                      TERM_REC = KS_CONFIG_KEY;

  12263  4 001706   000000 100400                    MLR     fill='000'O
         4 001707   000347 000023 2                  ADSC9   KS_CONFIG_KEY            cn=0,n=19
         4 001710   000252 000023 2                  ADSC9   TERM_REC                 cn=0,n=19

      721    12264    7                                      TERM_REC.NODE = KS_NODE;

  12264  4 001711   000000 236000 xsym               LDQ     KS_NODE
         4 001712   000011 736000                    QLS     9
         4 001713   000252 552010 2                  STBQ    TERM_REC,'10'O

      722    12265    7                                      CALL KSU$WRITE_NETCON(VECTOR(TERM_KEY),VECTOR(
             12265                                               TERM_REC)) ALTRET(ERR);

  12265  4 001714   000116 630400 5                  EPPR0   78
         4 001715   000020 631400 xsym               EPPR1   B_VECTNIL+16
         4 001716   000000 701000 xent               TSX1    KSU$WRITE_NETCON
         4 001717   002107 702000 4                  TSX2    ERR

      723    12266    7                                   END;

      724    12267    6                    END CONFIG_NETCON;

      725    12268    5                          END CON_SS_LOOP;

  12268  4 001720   200031 235100                    LDA     SUBSUB,,AUTO
         4 001721   000001 035007                    ADLA    1,DL
         4 001722   200031 755100                    STA     SUBSUB,,AUTO
         4 001723   200033 236100                    LDQ     SUBSUBHI,,AUTO
PL6.E3A0      #002=KSC$LINCNFG File=KSC$COMMANDS1.:E05TSI                        WED 07/30/97 01:42 Page:128
         4 001724   200031 116100                    CMPQ    SUBSUB,,AUTO
         4 001725   001431 603000 4                  TRC     s:12184

      726    12269    4                       END CON_S_LOOP;

  12269  4 001726   200026 235100                    LDA     SUB,,AUTO
         4 001727   000001 035007                    ADLA    1,DL
         4 001730   200026 755100                    STA     SUB,,AUTO
         4 001731   200030 236100                    LDQ     SUBHI,,AUTO
         4 001732   200026 116100                    CMPQ    SUB,,AUTO
         4 001733   001416 603000 4                  TRC     s:12182

      727    12270    3                    END CON_C_LOOP;

  12270  4 001734   200013 235100                    LDA     CHAN,,AUTO
         4 001735   000200 035007                    ADLA    128,DL
         4 001736   200013 755100                    STA     CHAN,,AUTO
         4 001737   200014 236100                    LDQ     CHANHI,,AUTO
         4 001740   200013 116100                    CMPQ    CHAN,,AUTO
         4 001741   001403 603000 4                  TRC     s:12180

      728    12271
      729    12272    2                IF (KS_SELPRMOPT ~= %KS_FILE) AND (KS_HLPCGERR = '0'B) THEN

  12272  4 001742   000000 236000 xsym               LDQ     KS_SELPRMOPT
         4 001743   777000 376003                    ANQ     -512,DU
         4 001744   003000 116003                    CMPQ    1536,DU
         4 001745   002025 600000 4                  TZE     s:12282
         4 001746   200075 234100                    SZN     KS_HLPCGERR,,AUTO
         4 001747   002025 604000 4                  TMI     s:12282

      730    12273    3                 DO;

      731    12274    3                    ACTION_CMPLTED = 'Configured in FEP';

  12274  4 001750   040100 100400                    MLR     fill='040'O
         4 001751   000133 000021 1                  ADSC9   ENBL_FMT+25              cn=0,n=17
PL6.E3A0      #002=KSC$LINCNFG File=KSC$COMMANDS1.:E05TSI                        WED 07/30/97 01:42 Page:129
         4 001752   200004 000025                    ADSC9   ACTION_CMPLTED,,AUTO     cn=0,n=21

      732    12275    3                    CALL KSW$WRITE (CMPLTED_OK_VEC,

  12275  4 001753   000007 235000 5                  LDA     7
         4 001754   200102 452500                    STP2    D$+2,,AUTO
         4 001755   200102 236100                    LDQ     D$+2,,AUTO
         4 001756   000040 036003                    ADLQ    32,DU
         4 001757   200104 757100                    STAQ    D$+4,,AUTO
         4 001760   000007 235000 5                  LDA     7
         4 001761   200106 452500                    STP2    D$+6,,AUTO
         4 001762   200106 236100                    LDQ     D$+6,,AUTO
         4 001763   000044 036003                    ADLQ    36,DU
         4 001764   200110 757100                    STAQ    D$+8,,AUTO
         4 001765   000010 235000 5                  LDA     8
         4 001766   200112 452500                    STP2    D$+10,,AUTO
         4 001767   200112 236100                    LDQ     D$+10,,AUTO
         4 001770   000004 036003                    ADLQ    4,DU
         4 001771   200114 757100                    STAQ    D$+12,,AUTO
         4 001772   000040 235000 5                  LDA     32
         4 001773   200116 452500                    STP2    D$+14,,AUTO
         4 001774   200116 236100                    LDQ     D$+14,,AUTO
         4 001775   000053 036003                    ADLQ    43,DU
         4 001776   200122 757100                    STAQ    D$+18,,AUTO
         4 001777   200104 237100                    LDAQ    D$+4,,AUTO
         4 002000   200120 757100                    STAQ    D$+16,,AUTO
         4 002001   200110 237100                    LDAQ    D$+8,,AUTO
         4 002002   200124 757100                    STAQ    D$+20,,AUTO
         4 002003   200114 237100                    LDAQ    D$+12,,AUTO
         4 002004   200126 757100                    STAQ    D$+22,,AUTO
         4 002005   200122 237100                    LDAQ    D$+18,,AUTO
         4 002006   200130 757100                    STAQ    D$+24,,AUTO
         4 002007   200130 630500                    EPPR0   D$+24,,AUTO
         4 002010   200136 450500                    STP0    D$+30,,AUTO
         4 002011   200126 631500                    EPPR1   D$+22,,AUTO
         4 002012   200135 451500                    STP1    D$+29,,AUTO
         4 002013   200124 633500                    EPPR3   D$+20,,AUTO
PL6.E3A0      #002=KSC$LINCNFG File=KSC$COMMANDS1.:E05TSI                        WED 07/30/97 01:42 Page:130
         4 002014   200134 453500                    STP3    D$+28,,AUTO
         4 002015   200120 634500                    EPPR4   D$+16,,AUTO
         4 002016   200133 454500                    STP4    D$+27,,AUTO
         4 002017   000011 236000 5                  LDQ     9
         4 002020   200132 756100                    STQ     D$+26,,AUTO
         4 002021   200132 630500                    EPPR0   D$+26,,AUTO
         4 002022   000023 631400 xsym               EPPR1   B_VECTNIL+19
         4 002023   000000 701000 xent               TSX1    KSW$WRITE
         4 002024   000000 011000                    NOP     0

      733    12276    3                       VECTOR(TERMLO),
      734    12277    3                       VECTOR(TERMHI),
      735    12278    3                       VECTOR(ACTION_CMPLTED),
      736    12279    3                       VECTOR(TERM_NAME));
      737    12280    3                 END;

      738    12281
      739    12282    2              IF KS_SELPRMOPT ~= %KS_TEMP THEN

  12282  4 002025   000000 236000 xsym               LDQ     KS_SELPRMOPT
         4 002026   777000 376003                    ANQ     -512,DU
         4 002027   001000 116003                    CMPQ    512,DU
         4 002030   002106 600000 4                  TZE     s:12292

      740    12283    3                 DO;

      741    12284    3                    ACTION_CMPLTED = 'Configured in :NETCON';

  12284  4 002031   040100 100400                    MLR     fill='040'O
         4 002032   000140 000025 1                  ADSC9   ENBL_FMT+30              cn=0,n=21
         4 002033   200004 000025                    ADSC9   ACTION_CMPLTED,,AUTO     cn=0,n=21

      742    12285    3                    CALL KSW$WRITE (CMPLTED_OK_VEC,

  12285  4 002034   000007 235000 5                  LDA     7
         4 002035   200102 452500                    STP2    D$+2,,AUTO
         4 002036   200102 236100                    LDQ     D$+2,,AUTO
PL6.E3A0      #002=KSC$LINCNFG File=KSC$COMMANDS1.:E05TSI                        WED 07/30/97 01:42 Page:131
         4 002037   000040 036003                    ADLQ    32,DU
         4 002040   200104 757100                    STAQ    D$+4,,AUTO
         4 002041   000007 235000 5                  LDA     7
         4 002042   200106 452500                    STP2    D$+6,,AUTO
         4 002043   200106 236100                    LDQ     D$+6,,AUTO
         4 002044   000044 036003                    ADLQ    36,DU
         4 002045   200110 757100                    STAQ    D$+8,,AUTO
         4 002046   000010 235000 5                  LDA     8
         4 002047   200112 452500                    STP2    D$+10,,AUTO
         4 002050   200112 236100                    LDQ     D$+10,,AUTO
         4 002051   000004 036003                    ADLQ    4,DU
         4 002052   200114 757100                    STAQ    D$+12,,AUTO
         4 002053   000040 235000 5                  LDA     32
         4 002054   200116 452500                    STP2    D$+14,,AUTO
         4 002055   200116 236100                    LDQ     D$+14,,AUTO
         4 002056   000053 036003                    ADLQ    43,DU
         4 002057   200122 757100                    STAQ    D$+18,,AUTO
         4 002060   200104 237100                    LDAQ    D$+4,,AUTO
         4 002061   200120 757100                    STAQ    D$+16,,AUTO
         4 002062   200110 237100                    LDAQ    D$+8,,AUTO
         4 002063   200124 757100                    STAQ    D$+20,,AUTO
         4 002064   200114 237100                    LDAQ    D$+12,,AUTO
         4 002065   200126 757100                    STAQ    D$+22,,AUTO
         4 002066   200122 237100                    LDAQ    D$+18,,AUTO
         4 002067   200130 757100                    STAQ    D$+24,,AUTO
         4 002070   200130 630500                    EPPR0   D$+24,,AUTO
         4 002071   200136 450500                    STP0    D$+30,,AUTO
         4 002072   200126 631500                    EPPR1   D$+22,,AUTO
         4 002073   200135 451500                    STP1    D$+29,,AUTO
         4 002074   200124 633500                    EPPR3   D$+20,,AUTO
         4 002075   200134 453500                    STP3    D$+28,,AUTO
         4 002076   200120 634500                    EPPR4   D$+16,,AUTO
         4 002077   200133 454500                    STP4    D$+27,,AUTO
         4 002100   000011 236000 5                  LDQ     9
         4 002101   200132 756100                    STQ     D$+26,,AUTO
         4 002102   200132 630500                    EPPR0   D$+26,,AUTO
         4 002103   000023 631400 xsym               EPPR1   B_VECTNIL+19
PL6.E3A0      #002=KSC$LINCNFG File=KSC$COMMANDS1.:E05TSI                        WED 07/30/97 01:42 Page:132
         4 002104   000000 701000 xent               TSX1    KSW$WRITE
         4 002105   000000 011000                    NOP     0

      743    12286    3                       VECTOR(TERMLO),
      744    12287    3                       VECTOR(TERMHI),
      745    12288    3                       VECTOR(ACTION_CMPLTED),
      746    12289    3                       VECTOR(TERM_NAME));
      747    12290    3                 END;

      748    12291    2           END;  /* DO CASE */

      749    12292    2        DO WHILE('0'B);

  12292  4 002106   002117 710000 4                  TRA     s:12299

      750    12293    2   ERR:    CALL KSE$ERRMSG(0);

  12293  4 002107   000053 630400 5     ERR          EPPR0   43
         4 002110   000017 631400 xsym               EPPR1   B_VECTNIL+15
         4 002111   000000 701000 xent               TSX1    KSE$ERRMSG
         4 002112   000000 011000                    NOP     0

      751    12294    2   ERR1:   CALL KSE$ERRMSG(%E$KS_CANTDOIT);

  12294  4 002113   000121 630400 5     ERR1         EPPR0   81
         4 002114   000017 631400 xsym               EPPR1   B_VECTNIL+15
         4 002115   000000 701000 xent               TSX1    KSE$ERRMSG
         4 002116   000000 011000                    NOP     0

      752    12295                /*E* ERROR: KSN-E$KS_CANTDOIT-0
      753    12296                     MESSAGE: Unable to perform the requested function.
      754    12297                     DESCRIPTION: SEE MESSAGE */
      755    12298    2           END;  /* DO NEVER */

      756    12299    1        RETURN;

  12299  4 002117   000000 702200 xent               TSX2  ! X66_ARET
PL6.E3A0      #002=KSC$LINCNFG File=KSC$COMMANDS1.:E05TSI                        WED 07/30/97 01:42 Page:133
      757    12300    1   END KSC$LINCNFG;
      758    12301        %EOD;

PL6.E3A0      #002=KSC$LINCNFG File=KSC$COMMANDS1.:E05TSI                        WED 07/30/97 01:42 Page:134
--  Include file information  --

   KS_PERR_C.:E05TOU  is referenced.
   KS_DATA_R.:E05TOU  cannot be made into a system file and is referenced.
   KS_MACRO_M.:E05TOU  is referenced.
   KS_SUBS_C.:E05TOU  is referenced.
   KL_CONFIG_M.:E05TOU  is referenced.
   KL_MACRO_C.:E05TOU  is referenced.
   KL_AFCN_C.:E05TOU  is referenced.
   KHA_FNC_E.:E05TOU  is referenced.
   F$DCB.:E05TOU  cannot be made into a system file and is referenced.
   B_ERRORS_C.:E05TOU  is referenced.
   XU_MACRO_C.:E05TOU  is referenced.
   CP_6_SUBS.:E05TOU  is referenced.
   CP_6.:E05TOU  cannot be made into a system file and is referenced.
   B$JIT_C.:E05TOU  was found in the system file and is never referenced.
   CP_6_C.:E05TOU  was found in the system file and is referenced.
      No diagnostics issued in procedure KSC$LINCNFG.
PL6.E3A0      #002=KSC$LINCNFG File=KSC$COMMANDS1.:E05TSI                        WED 07/30/97 01:42 Page:135

 **** Variables and constants ****

  ****  Section 001 RoData KSC$LINCNFG

  ****  Scalars and arrays  ****
OctLoc.c.b A Datatyp(siz) R M Lvl/name                 OctLoc.c.b A Datatyp(siz) R M Lvl/name

     0-0-0/c STRC(2268)  r     1 CMPLTED_OK_FMT           100-0-0/d BIT (72)    r     1 CMPLTED_OK_VEC
   102-0-0/c CHAR(43)    r     1 ENBL_FMT

  ****  Section 002  Data  KSC$LINCNFG

  ****  Scalars and arrays  ****
OctLoc.c.b A Datatyp(siz) R M Lvl/name                 OctLoc.c.b A Datatyp(siz) R M Lvl/name

    62-0-0/w PTR         r     1 CNFG$
     0-0-0/w UBIN        r     1 CNFG_BUF(0:49)
   271-0-0/w STRC(828)   r     1 CNFG_MSG                 406-0-0/d STRC(360)   r     1 DELETE_NETCON
   225-0-0/w PTR         r     1 HDR$                     226-0-0/w STRC(612)   r     1 KS_ADMIN
   347-0-0/c STRC(171)   r     1 KS_CONFIG_KEY            247-0-0/w STRC(99)    r     1 KS_DEFAULT_KEY
   146-0-0/w STRC(1656)  r     1 KS_FEPHNDLR              224-0-0/w STRC(27)    r     1 KS_FEPHNDLR_KEY
   354-0-0/d STRC(504)   r     1 READ_NETCON              320-0-0/w STRC(828)   r     1 RESET_MSG
   264-0-0/w STRC(162)   r     1 TERM_KEY                 252-0-0/c STRC(171)   r     1 TERM_REC
   145-0-0/w PTR         r     1 TMP_CNFG$
    63-0-0/w UBIN        r     1 TMP_CNFG_BUF(0:49)
   372-0-0/d STRC(432)   r     1 WRITE_NETCON

  ****  Auto variables  ****

  ****  Scalars and arrays  ****
OctLoc.c.b A Datatyp(siz) R M Lvl/name                 OctLoc.c.b A Datatyp(siz) R M Lvl/name

     3-0-0/w PTR         r     1 @TOP$                      4-0-0/c CHAR(21)    r     1 ACTION_CMPLTED
    13-0-0/w UBIN        r     1 CHAN                      14-0-0/w UBIN        r     1 CHANHI
    20-0-0/w UBIN        r     1 CHANLO                    52-0-0/c CHAR(4)     r     1 CHAN_STR
    12-0-0/b BIT         r     1 CNFG_EXISTS              100-0-0/w PTR         r     1 D$
    71-0-0/c STRC(144)   r     1 FEPHI                     65-0-0/c STRC(144)   r     1 FEPLO
PL6.E3A0      #002=KSC$LINCNFG File=KSC$COMMANDS1.:E05TSI                        WED 07/30/97 01:42 Page:136
    21-0-0/b BIT         r     1 FOUND                     22-0-0/c CHAR(8)     r     1 HNDLRNAME
    25-0-0/w UBIN        r     1 J                         75-0-0/b BIT         r     1 KS_HLPCGERR
    55-0-0/c CHAR(31)    r     1 LOGON_STRING              51-0-0/w BIT         r     1 NO_CHAN
    76-0-0/w PTR         r     1 S$                        26-0-0/w UBIN        r     1 SUB
    30-0-0/w UBIN        r     1 SUBHI                     27-0-0/w UBIN        r     1 SUBLO
    31-0-0/w UBIN        r     1 SUBSUB                    33-0-0/w UBIN        r     1 SUBSUBHI
    32-0-0/w UBIN        r     1 SUBSUBLO                  44-0-0/c STRC(144)   r     1 TERMHI
    40-0-0/c STRC(144)   r     1 TERMLO                    53-0-0/c CHAR(8)     r     1 TERM_NAME
    *0-0-0/w PTR         r     1 TOP$

  ****  SYMREF variables  ****

  ****  Scalars and arrays  ****
OctLoc.c.b A Datatyp(siz) R M Lvl/name                 OctLoc.c.b A Datatyp(siz) R M Lvl/name

     0-0-0/w PTR         r     1 B$TCB$                     0-0-0/w STRC        r     1 KS_ERRCODE
     0-0-0/c CHAR(8)     r     1 KS_HNDLRNAME               0-0-0/c CHAR(400)   r     1 KS_MSGBUF
     0-0-0/w PTR         r     1 KS_MSGBUF$                 0-0-0/w SBIN        r     1 KS_NODE
     0-0-0/c CHAR(8)     r     1 KS_NODENAME                0-0-0/w UBIN(9)     r     1 KS_SELPRMOPT
     0-0-0/w STRC(288)   r     1 KS_SUB_BUF_1               0-0-0/w STRC(288)   r     1 KS_SUB_BUF_2

  ****  BASED and DCB variables  ****

  ****  Scalars and arrays  ****
OctLoc.c.b A Datatyp(siz) R M Lvl/name                 OctLoc.c.b A Datatyp(siz) R M Lvl/name

     0-0-0/w STRC(2448)  r     1 B$ALT                      0-0-0/w STRC(144)   r     1 B$TCB
     0-0-0/d ASTR(3528)  r     1 F$DCB                      0-0-0/w STRC(612)   r     1 KL_ADMIN_RETURN
     0-0-0/w STRC(306)   r     1 KS$HDR                     0-0-0/w ASTR(387)   r     1 LINCNFG
     0-0-0/w ASTR(387)   r     1 LINCNFG_TMP                0-0-0N  NULL        r     1 M$NETCON
     0-0-0/w STRC(144)   r     1 OUT$BLK                    0-0-0/w ASTR(153)   r     1 OUT$SYM


   Procedure KSC$LINCNFG requires 1104 words for executable code.
   Procedure KSC$LINCNFG requires 96 words of local(AUTO) storage.
PL6.E3A0      #002=KSC$LINCNFG File=KSC$COMMANDS1.:E05TSI                        WED 07/30/97 01:42 Page:137
          *** CROSS REFERENCE LISTING ***
**     DENOTES     IDENTIFIER DEFINITION
<<                 IDENTIFIER'S VALUE SET
>>                 IDENTIFIER'S VALUE USED
<>                 IDENTIFIER SET AND/OR USED
--                 IDENTIFIER REFERENCED
PL6.E3A0      #002=KSC$LINCNFG File=KSC$COMMANDS1.:E05TSI                        WED 07/30/97 01:42 Page:138
          MINI XREF LISTING

ACTION_CMPLTED
      9824**DCL     11917<<ASSIGN  11920<<ASSIGN  11923<<ASSIGN  11926<<ASSIGN  11939--CALL    12109<<ASSIGN
     12110--CALL    12274<<ASSIGN  12275--CALL    12284<<ASSIGN  12285--CALL
B$ALT.CODE
     11533**DCL     11533--REDEF   11534--REDEF   11534--REDEF
B$ALT.ERR.CODE
     11535**DCL     11989>>IF      12191>>IF
B$ALT.ERR.ERR#
     11535**DCL     11535--REDEF
B$ALT.EVID
     11534**DCL     11534--REDEF   11534--REDEF
B$TCB.ALT$
     11529**DCL     11989>>IF      12191>>IF
B$TCB$
     11729**DCL     11989>>IF      12191>>IF
CHAN
      9826**DCL     12056<<DOINDEX 12057<>CALL    12077<>CALL    12179<<DOINDEX 12180<>CALL
CHANGE_REC
     12093**LABEL   12085--CALLALT 12089--CALLALT 12090--CALLALT
CHANHI
      9827**DCL     12049<>CALL    12056>>DOINDEX 12173<>CALL    12179>>DOINDEX
CHANLO
      9831**DCL     12048<>CALL    12056>>DOINDEX 12172<>CALL    12179>>DOINDEX
CHAN_STR
      9906**DCL     12077<>CALL    12078--CALL
CMPLTED_OK_FMT
      9995**DCL     10006--DCLINIT
CMPLTED_OK_VEC
     10006**DCL     11939<>CALL    12110<>CALL    12275<>CALL    12285<>CALL
CNFG$
     10037**DCL     11070--IMP-PTR 11982>>ASSIGN  11983>>ASSIGN  11984>>CALL    11984>>CALL    11985>>ASSIGN
     11991>>CALL    11991>>CALL    12188>>ASSIGN  12192>>ASSIGN  12197>>ASSIGN  12197>>ASSIGN  12198>>CALL
PL6.E3A0      #002=KSC$LINCNFG File=KSC$COMMANDS1.:E05TSI                        WED 07/30/97 01:42 Page:139
     12198>>CALL    12214>>ASSIGN  12215>>ASSIGN  12247>>IF      12248>>IF      12262>>ASSIGN  12262>>ASSIGN
CNFG_BUF
     10036**DCL     10037--DCLINIT 11948<<ASSIGN  11978--ASSIGN  11997--ASSIGN  12186--CALL    12246--CALL
CNFG_EXISTS
      9825**DCL     11982<<ASSIGN  11985>>ASSIGN
CNFG_MSG
     10443**DCL     12222--CALL
CNFG_MSG.KHA
     10583**DCL     12214<<ASSIGN
CNFG_MSG.NA
     10663**DCL     12215<<ASSIGN
CNFG_MSG.NA.CNFG_EXISTS
     10679**DCL     12216<<ASSIGN
CNFG_MSG.TERMID_HI
     10552**DCL     12213<<ASSIGN
CNFG_MSG.TERMID_HI.TERM
     10554**DCL     10563--REDEF
CNFG_MSG.TERMID_HI.TERM.CHANNEL
     10556**DCL     12219<<ASSIGN
CNFG_MSG.TERMID_LO
     10523**DCL     12212<<ASSIGN
CNFG_MSG.TERMID_LO.TERM
     10525**DCL     10534--REDEF
CNFG_MSG.TERMID_LO.TERM.CHANNEL
     10527**DCL     12218<<ASSIGN
CONFIG_NETCON
     12245**LABEL   12206--GOTO    12226--GOTO    12239--GOTO
D$
     11886**DCL     11887--IMP-PTR
DELETE_NETCON
     11842**DCL     12102<>CALL
DELETE_NETCON.KEY_
     11842**DCL     12100<<ASSIGN
DELETE_NETCON.LKEY_
     11844**DCL     12101<<ASSIGN
DELETE_NETCON.V
PL6.E3A0      #002=KSC$LINCNFG File=KSC$COMMANDS1.:E05TSI                        WED 07/30/97 01:42 Page:140
     11845**DCL     11842--DCLINIT
ENBL_FMT
     10007**DCL     10008--DCLINIT
ERR
     12293**LABEL   11936--CALLALT 11994--GOTO    11998--CALLALT 12086--CALLALT 12135--GOTO    12194--GOTO
     12246--CALLALT 12256--CALLALT 12265--CALLALT
ERR1
     12294**LABEL   11908--CALLALT 11910--CALLALT 11912--CALLALT 11984--CALLALT 11991--CALLALT 12008--GOTO
     12012--CALLALT 12036--GOTO    12127--GOTO    12143--GOTO    12150--GOTO    12156--CALLALT 12198--CALLALT
F$DCB.ACTPOS
      4890**DCL      4890--REDEF
F$DCB.ARS
      4865**DCL      4865--REDEF
F$DCB.ATTR
      4883**DCL      4884--REDEF
F$DCB.BORROW
      4898**DCL      4898--REDEF    4898--REDEF    4898--REDEF
F$DCB.DCBNAME.L
      4912**DCL      4912--IMP-SIZ
F$DCB.EOMCHAR
      4869**DCL      4869--REDEF
F$DCB.FLDID
      4893**DCL      4893--REDEF
F$DCB.FORM$
      4887**DCL      4887--REDEF
F$DCB.FSECT
      4903**DCL      4903--REDEF
F$DCB.FSN
      4880**DCL      4880--REDEF    4880--REDEF    4881--REDEF
F$DCB.HEADER$
      4886**DCL      4886--REDEF
F$DCB.IXTNSIZE
      4884**DCL      4884--REDEF
F$DCB.LASTSTA$
      4874**DCL      4874--REDEF
F$DCB.LVL
PL6.E3A0      #002=KSC$LINCNFG File=KSC$COMMANDS1.:E05TSI                        WED 07/30/97 01:42 Page:141
      4899**DCL      4899--REDEF
F$DCB.NAME.C
      4874**DCL      4874--REDEF
F$DCB.NOEOF
      4895**DCL      4895--REDEF
F$DCB.NRECS
      4885**DCL      4885--REDEF
F$DCB.NRECX
      4904**DCL      4904--REDEF
F$DCB.OHDR
      4896**DCL      4896--REDEF
F$DCB.ORG
      4879**DCL      4879--REDEF
F$DCB.PRECNO
      4902**DCL      4902--REDEF
F$DCB.RCSZ
      4907**DCL      4907--REDEF
F$DCB.RES
      4875**DCL      4875--REDEF
F$DCB.SETX
      4887**DCL      4887--REDEF
F$DCB.TAB$
      4886**DCL      4887--REDEF
F$DCB.TDA
      4901**DCL      4901--REDEF
F$DCB.WSN
      4876**DCL      4876--REDEF
FEPHI
      9952**DCL     12016<<ASSIGN  12110--CALL    12140<>CALL    12146<>CALL
FEPHI.TERM
      9956**DCL      9965--REDEF
FEPHI.TERM.CHANNEL
      9958**DCL     12020<<ASSIGN  12219>>ASSIGN
FEPHI.TERM.TERM_NAME
      9965**DCL     12017>>IF
FEPLO
PL6.E3A0      #002=KSC$LINCNFG File=KSC$COMMANDS1.:E05TSI                        WED 07/30/97 01:42 Page:142
      9923**DCL     12015<<ASSIGN  12110--CALL    12132<>CALL    12146<>CALL
FEPLO.TERM
      9927**DCL      9936--REDEF
FEPLO.TERM.CHANNEL
      9929**DCL     12019<<ASSIGN  12218>>ASSIGN
FEPLO.TERM.TERM_NAME
      9936**DCL     12017>>IF
FOUND
      9832**DCL     11949<<ASSIGN  11957<<ASSIGN  11962>>IF
HDR$
     10088**DCL     11638--IMP-PTR 12231>>IF
HNDLRNAME
      9833**DCL     11947<<ASSIGN  11955>>IF      11964>>ASSIGN  11965--ASSIGN  11977>>ASSIGN
IFNDIT
     11962**LABEL   11953--CALLALT
J
      9835**DCL     11954<<DOINDEX 11955>>IF
KL_ADMIN_RETURN.HANDLER
     11409**DCL     12073>>IF
KL_ADMIN_RETURN.RESULTS
     11430**DCL     12073>>IF
KL_ADMIN_RETURN.TERMID_HI.TERM
     11516**DCL     11525--REDEF
KL_ADMIN_RETURN.TERMID_LO.TERM
     11487**DCL     11496--REDEF
KS$HDR.RESULTS.ERR#
     11696**DCL     12231>>IF
KSE$ERRMSG
      9777**DCL-ENT 11968--CALL    12033--CALL    12078--CALL    12149--CALL    12204--CALL    12224--CALL
     12235--CALL    12293--CALL    12294--CALL
KSR$RD_HLPCG
      9778**DCL-ENT 11937--CALL    12072--CALL    12086--CALL    12090--CALL    12228--CALL
KSR$WR_HLPCG
      9779**DCL-ENT 11936--CALL    12071--CALL    12085--CALL    12089--CALL    12222--CALL
KSU$BINHEX
      9793**DCL-ENT 12077--CALL
PL6.E3A0      #002=KSC$LINCNFG File=KSC$COMMANDS1.:E05TSI                        WED 07/30/97 01:42 Page:143
KSU$BLD_LINCNFG
      9780**DCL-ENT 11984--CALL    12198--CALL
KSU$BLD_LINCNFG_DEF
      9782**DCL-ENT 11991--CALL
KSU$BLD_TERMID
      9783**DCL-ENT 12132--CALL    12140--CALL
KSU$BLD_TERMRANGE
      9794**DCL-ENT 11908--CALL    11910--CALL    12003--CALL    12121--CALL
KSU$CHECK_FOR_FEP
      9795**DCL-ENT 11912--CALL    12012--CALL    12156--CALL
KSU$CHK_TRM_RNG
      9784**DCL-ENT 12146--CALL
KSU$INIT_DEFCNFG
      9781**DCL-ENT 12026--CALL
KSU$PACK2
      9792**DCL-ENT 12048--CALL    12049--CALL    12050--CALL    12051--CALL    12052--CALL    12053--CALL
     12172--CALL    12173--CALL    12174--CALL    12175--CALL    12176--CALL    12177--CALL
KSU$READ_NETCON
      9788**DCL-ENT 12031--CALL    12186--CALL
KSU$UNPACK
      9791**DCL-ENT 12057--CALL    12059--CALL    12061--CALL    12180--CALL    12182--CALL    12184--CALL
KSU$WRITE_NETCON
      9789**DCL-ENT 12246--CALL    12256--CALL    12265--CALL
KSW$WRITE
      9787**DCL-ENT 11939--CALL    12110--CALL    12275--CALL    12285--CALL
KS_ADMIN
     10121**DCL     11936--CALL    12071--CALL    12089--CALL
KS_ADMIN.FNC
     10188**DCL     11918<<ASSIGN  11921<<ASSIGN  11924<<ASSIGN  11927<<ASSIGN  11929<<ASSIGN  11931<<ASSIGN
     12070<<ASSIGN  12088<<ASSIGN
KS_ADMIN.HANDLER
     10130**DCL     11933<<ASSIGN
KS_ADMIN.TERMID_HI
     10235**DCL     11935<<ASSIGN  12066<<ASSIGN
KS_ADMIN.TERMID_HI.TERM
     10237**DCL     10246--REDEF
PL6.E3A0      #002=KSC$LINCNFG File=KSC$COMMANDS1.:E05TSI                        WED 07/30/97 01:42 Page:144
KS_ADMIN.TERMID_LO
     10206**DCL     11934<<ASSIGN  12065<<ASSIGN
KS_ADMIN.TERMID_LO.TERM
     10208**DCL     10217--REDEF
KS_CONFIG_KEY
     10991**DCL     12100--ASSIGN  12101--ASSIGN  12186--CALL    12246--CALL    12263>>ASSIGN
KS_CONFIG_KEY.NODE
     10994**DCL     12093<<ASSIGN  12165<<ASSIGN  12168<<ASSIGN
KS_CONFIG_KEY.TERMID
     11011**DCL     12094<<ASSIGN  12212>>ASSIGN  12213>>ASSIGN
KS_CONFIG_KEY.TERMID.LEV
     11013**DCL     12170<<ASSIGN
KS_CONFIG_KEY.TERMID.TERM
     11013**DCL     11022--REDEF
KS_CONFIG_KEY.TERMID.TERM.CHANNEL
     11015**DCL     12097<<ASSIGN  12180<>CALL
KS_CONFIG_KEY.TERMID.TERM.SUBDEVICE
     11015**DCL     12182<>CALL
KS_CONFIG_KEY.TERMID.TERM.SUBSUBDEVICE
     11016**DCL     12184<>CALL
KS_CONFIG_KEY.TERMID.TERM.TERM_NAME
     11022**DCL     12098<<ASSIGN  12110--CALL    12171<<ASSIGN
KS_DEFAULT_KEY
     10262**DCL     11979--ASSIGN  11996--ASSIGN  12031--CALL
KS_DEFAULT_KEY.HNDLR
     10266**DCL     11977<<ASSIGN  12030<<ASSIGN  12033--CALL    12073>>IF      12078--CALL
KS_DEFAULT_KEY.NODE
     10265**DCL     11976<<ASSIGN  12029<<ASSIGN
KS_ERRCODE.CODE
      9679**DCL     12134>>IF      12142>>IF
KS_FEPHNDLR
     10053**DCL     11951--ASSIGN
KS_FEPHNDLR.HANDLER
     10064**DCL     11955>>IF
KS_FEPHNDLR.NHANDLERS
     10054**DCL     11954>>DOINDEX
PL6.E3A0      #002=KSC$LINCNFG File=KSC$COMMANDS1.:E05TSI                        WED 07/30/97 01:42 Page:145
KS_FEPHNDLR_KEY
     10083**DCL     11952--ASSIGN
KS_FEPHNDLR_KEY.NODE
     10086**DCL     11950<<ASSIGN
KS_HLPCGERR
      9967**DCL     12120<<ASSIGN  12225<<ASSIGN  12230<<ASSIGN  12272>>IF
KS_HNDLRNAME
      9678**DCL     11933>>ASSIGN
KS_MSGBUF
      9680**DCL     10088--DCLINIT
KS_MSGBUF$
      9680**DCL      9680--IMP-PTR 11400--IMP-PTR 12073>>IF      12073>>IF
KS_MYSTATION
      9676**DCL      9676--REDEF
KS_NODE
      9677**DCL     11912<>CALL    11950>>ASSIGN  11976>>ASSIGN  12012<>CALL    12029>>ASSIGN  12093>>ASSIGN
     12156<>CALL    12168>>ASSIGN  12264>>ASSIGN
KS_NODENAME
      9676**DCL     11966>>ASSIGN  11967--ASSIGN
KS_SELPRMOPT
      9677**DCL     12107>>IF      12200>>IF      12231>>IF      12244>>IF      12272>>IF      12282>>IF
KS_SUB_BUF_1
      9681**DCL     11968--CALL
KS_SUB_BUF_1.COUNT
      9681**DCL     11965<<ASSIGN
KS_SUB_BUF_1.TEXT
      9681**DCL     11964<<ASSIGN
KS_SUB_BUF_2
      9681**DCL     11968--CALL
KS_SUB_BUF_2.COUNT
      9682**DCL     11967<<ASSIGN
KS_SUB_BUF_2.TEXT
      9682**DCL     11966<<ASSIGN
LINCNFG
     11070**DCL     11984<>CALL    11991<>CALL    12198<>CALL
LINCNFG.KHA
PL6.E3A0      #002=KSC$LINCNFG File=KSC$COMMANDS1.:E05TSI                        WED 07/30/97 01:42 Page:146
     11089**DCL     12214>>ASSIGN
LINCNFG.LGN.LGNSIZE
     11207**DCL     11208--IMP-SIZ 11984>>CALL    11991>>CALL    12197>>ASSIGN  12198>>CALL    12262>>ASSIGN
LINCNFG.LGN.LGNSTRING
     11208**DCL     12197>>ASSIGN  12262>>ASSIGN
LINCNFG.NA
     11169**DCL     12215>>ASSIGN
LINCNFG.NA.AUTLGN
     11176**DCL     12247>>IF      12248>>IF
LINCNFG.NA.CNFG_EXISTS
     11185**DCL     11982>>ASSIGN  11983<<ASSIGN  11985<<ASSIGN  12188<<ASSIGN  12192<<ASSIGN
LINCNFG_TMP
     11228**DCL     12026<>CALL
LINCNFG_TMP.KHA
     11247**DCL     12041>>ASSIGN
LINCNFG_TMP.LGN.LGNSIZE
     11365**DCL     11366--IMP-SIZ 12026>>CALL
LINCNFG_TMP.NA
     11327**DCL     12042>>ASSIGN
LOGON_STRING
      9908**DCL     12197<<ASSIGN  12250>>IF      12253>>ASSIGN
M$DELREC
        21**DCL-ENT 12102--CALL
M$READ
        20**DCL-ENT 11953--CALL    11980--CALL
M$WRITE
        20**DCL-ENT 11998--CALL
NO_CHAN
      9905**DCL     12002<<ASSIGN  12006<<ASSIGN  12011>>IF      12063>>IF      12119<<ASSIGN  12125<<ASSIGN
     12155>>IF      12202>>IF
OUT$BLK.CODE
     11553**DCL     11905>>DOCASE  11907>>IF      11915>>DOCASE
OUT$BLK.NSUBLKS
     11557**DCL     12025>>IF      12073>>IF      12138>>IF
OUT$BLK.SUBLK$
     11578**DCL     11907>>IF      11908<>CALL    11910<>CALL    11947>>ASSIGN  11947>>ASSIGN  12003<>CALL
PL6.E3A0      #002=KSC$LINCNFG File=KSC$COMMANDS1.:E05TSI                        WED 07/30/97 01:42 Page:147
     12030>>ASSIGN  12030>>ASSIGN  12121<>CALL    12132>>CALL    12132<>CALL    12138>>IF      12140>>CALL
     12140<>CALL
OUT$SYM.COUNT
     11614**DCL     11617--IMP-SIZ 11947>>ASSIGN  12030>>ASSIGN
OUT$SYM.TEXT
     11617**DCL     11947>>ASSIGN  12030>>ASSIGN
READ_NETCON
     11776**DCL     11953<>CALL    11980<>CALL
READ_NETCON.BUF_
     11778**DCL     11951<<ASSIGN  11978<<ASSIGN
READ_NETCON.KEY_
     11776**DCL     11952<<ASSIGN  11979<<ASSIGN
READ_NETCON.STATION_
     11779**DCL     11780--REDEF
READ_NETCON.V
     11780**DCL     11776--DCLINIT
READ_NETCON.V.DVBYTE.REREAD#
     11791**DCL     11791--REDEF
READ_NETCON.V.INDX#
     11789**DCL     11789--REDEF
RESET_CHAN
     12085**LABEL   12071--CALLALT
RESET_MSG
     10726**DCL     12085--CALL
RESET_MSG.KHA
     10866**DCL     12041<<ASSIGN
RESET_MSG.NA
     10946**DCL     12042<<ASSIGN
RESET_MSG.NA.AUTLGN
     10953**DCL     12045<<ASSIGN
RESET_MSG.NA.PROFILE
     10961**DCL     12046<<ASSIGN
RESET_MSG.TERMID_HI
     10835**DCL     12068<<ASSIGN
RESET_MSG.TERMID_HI.TERM
     10837**DCL     10846--REDEF
PL6.E3A0      #002=KSC$LINCNFG File=KSC$COMMANDS1.:E05TSI                        WED 07/30/97 01:42 Page:148
RESET_MSG.TERMID_LO
     10806**DCL     12067<<ASSIGN
RESET_MSG.TERMID_LO.TERM
     10808**DCL     10817--REDEF
S$
     11884**DCL     11883--IMP-PTR
SRCH
     11954**LABEL   11958--EXIT
SUB
      9836**DCL     12058<<DOINDEX 12059<>CALL    12181<<DOINDEX 12182<>CALL
SUBHI
      9838**DCL     12051<>CALL    12058>>DOINDEX 12175<>CALL    12181>>DOINDEX
SUBLO
      9837**DCL     12050<>CALL    12058>>DOINDEX 12174<>CALL    12181>>DOINDEX
SUBSUB
      9839**DCL     12060<<DOINDEX 12061<>CALL    12183<<DOINDEX 12184<>CALL
SUBSUBHI
      9841**DCL     12053<>CALL    12060>>DOINDEX 12177<>CALL    12183>>DOINDEX
SUBSUBLO
      9840**DCL     12052<>CALL    12060>>DOINDEX 12176<>CALL    12183>>DOINDEX
S_LOOP
     12058**LABEL   12081--EXIT
TERMHI
      9889**DCL     11908<>CALL    11910<>CALL    11935>>ASSIGN  11939--CALL    12003<>CALL    12016>>ASSIGN
     12121<>CALL    12275--CALL    12285--CALL
TERMHI.TERM
      9893**DCL      9902--REDEF
TERMHI.TERM.CHANNEL
      9895**DCL     12049<>CALL    12164<<ASSIGN  12173<>CALL
TERMHI.TERM.SUBDEVICE
      9895**DCL     12051<>CALL    12175<>CALL
TERMHI.TERM.SUBSUBDEVICE
      9896**DCL     12053<>CALL    12177<>CALL
TERMHI.TERM.TERM_NAME
      9902**DCL     11914<<ASSIGN  12095>>IF      12098>>ASSIGN  12162<<ASSIGN  12211<<ASSIGN
TERMLO
PL6.E3A0      #002=KSC$LINCNFG File=KSC$COMMANDS1.:E05TSI                        WED 07/30/97 01:42 Page:149
      9860**DCL     11908<>CALL    11910<>CALL    11934>>ASSIGN  11939--CALL    12003<>CALL    12015>>ASSIGN
     12065>>ASSIGN  12066>>ASSIGN  12067>>ASSIGN  12068>>ASSIGN  12094>>ASSIGN  12121<>CALL    12275--CALL
     12285--CALL
TERMLO.LEV
      9864**DCL     12170>>ASSIGN  12231>>IF
TERMLO.TERM
      9864**DCL      9873--REDEF
TERMLO.TERM.CHANNEL
      9866**DCL     12005>>IF      12048<>CALL    12057<>CALL    12123>>IF      12163<<ASSIGN  12172<>CALL
TERMLO.TERM.SUBDEVICE
      9866**DCL     12050<>CALL    12059<>CALL    12174<>CALL
TERMLO.TERM.SUBSUBDEVICE
      9867**DCL     12052<>CALL    12061<>CALL    12176<>CALL
TERMLO.TERM.TERM_NAME
      9873**DCL     11911>>IF      11913<<ASSIGN  12005>>IF      12023<<ASSIGN  12123>>IF      12130>>IF
     12158>>ASSIGN  12161<<ASSIGN  12204--CALL    12210<<ASSIGN
TERM_KEY
     10379**DCL     12256--CALL    12265--CALL
TERM_KEY.TERMID
     10398**DCL     12252<<ASSIGN  12261<<ASSIGN
TERM_KEY.TERMID.TERM
     10400**DCL     10409--REDEF
TERM_KEY.TERMID.TERM.TERM_NAME
     10409**DCL     12253<<ASSIGN  12262<<ASSIGN
TERM_NAME
      9907**DCL     12158<<ASSIGN  12159>>IF      12161>>ASSIGN  12162>>ASSIGN  12171>>ASSIGN  12217>>IF
     12275--CALL    12285--CALL
TERM_REC
     10282**DCL     12254<<ASSIGN  12256--CALL    12263<<ASSIGN  12265--CALL
TERM_REC.NODE
     10285**DCL     12264<<ASSIGN
TERM_REC.TERMID.TERM
     10304**DCL     10313--REDEF
TERM_REC.TERMID.TERM.TERM_NAME
     10313**DCL     12255<<ASSIGN
TERM_REC_TMP.TERMID.TERM
PL6.E3A0      #002=KSC$LINCNFG File=KSC$COMMANDS1.:E05TSI                        WED 07/30/97 01:42 Page:150
     10353**DCL     10362--REDEF
TMP_CNFG$
     10039**DCL     11228--IMP-PTR 12026>>CALL    12026>>CALL    12041>>ASSIGN  12042>>ASSIGN
TMP_CNFG_BUF
     10038**DCL     10039--DCLINIT 12031--CALL
TOP$
         8**DCL         6--PROC    11545--IMP-PTR 11905>>DOCASE  11907>>IF      11908>>CALL    11910>>CALL
     11915>>DOCASE  11947>>ASSIGN  11947>>ASSIGN  11984<>CALL    11991<>CALL    12003>>CALL    12025>>IF
     12030>>ASSIGN  12030>>ASSIGN  12073>>IF      12121>>CALL    12132>>CALL    12138>>IF      12140>>CALL
     12198<>CALL
WRITE_NETCON
     11816**DCL     11998<>CALL
WRITE_NETCON.BUF_
     11816**DCL     11997<<ASSIGN
WRITE_NETCON.KEY_
     11816**DCL     11996<<ASSIGN
WRITE_NETCON.STATION_
     11818**DCL     11818--REDEF
WRITE_NETCON.V
     11819**DCL     11816--DCLINIT
WRITE_NETCON.V.DVBYTE.VFC#
     11825**DCL     11825--REDEF

