PL6.E3A0      #004=KSC$SET File=KSC$COMMANDS1.:E05TSI                            WED 07/30/97 01:45 Page:184
      908        1        /*T***********************************************************/
      909        2        /*T*                                                         */
      910        3        /*T* Copyright (c) Bull HN Information Systems Inc., 1997    */
      911        4        /*T*                                                         */
      912        5        /*T***********************************************************/
      913        6        KSC$SET: PROC(TOP$) ALTRET;
      914        7        /**/
      915        8    1   DCL TOP$ PTR;
      916        9        /**/
      917       10        %INCLUDE CP_6;
      918       91        %INCLUDE KL_MACRO_C;
      919     3443        %INCLUDE KS_MACRO_M;
      920     3640        %INCLUDE KS_SUBS_C;
      921     3883        %INCLUDE KS_DATA_R;
      922     3898        %INCLUDE KS_PERR_C;
      923     3965        %INCLUDE KL_CONTROL_C;
      924     4345        %INCLUDE KL_AFCN_C;
      925     4446        %INCLUDE KL_CONFIG_M;
      926     5208        %INCLUDE GI_BOOT_C;
      927     5319        %INCLUDE XU_MACRO_C;
      928     8425        %INCLUDE B_ERRORS_C;
      929     9552        %INCLUDE F$DCB;
      930     9601        /**/
      931     9602        %KS$BOX(TITLE="entry defs");

              9620    1   /***************************************************************************
              9621    1    *                                                                         *
              9622    1    *                                 entry defs                              *
              9623    1    *                                                                         *
              9624    1    ***************************************************************************/

      932     9629    1   DCL KSE$ERRMSG ENTRY(4);
      933     9630    1   DCL KSR$RD_HLPCG ENTRY(1) ALTRET;
      934     9631    1   DCL KSR$WR_HLPCG ENTRY(1) ALTRET;
      935     9632    1   DCL KSU$CHARBIN ENTRY(4) ALTRET;
      936     9633    1   DCL KSW$WRITE ENTRY(11);
      937     9634    1   DCL XUR$GETCMD ENTRY(6) ALTRET;
PL6.E3A0      #004=KSC$SET File=KSC$COMMANDS1.:E05TSI                            WED 07/30/97 01:45 Page:185
      938     9635    1   DCL KSU$UNPACK ENTRY(2);
      939     9636    1   DCL KSU$READ_NETCON ENTRY(2) ALTRET;
      940     9637    1   DCL KSU$WRITE_NETCON ENTRY(3) ALTRET;
      941     9638    1   DCL KSU$INIT_DEFCNFG ENTRY(1);
      942     9639    1   DCL XUR$ERRMSG ENTRY(7) ALTRET;
      943     9640    1   DCL KSU$STRIP_ZEROS ENTRY(3);
      944     9641        %KS$BOX(TITLE="symref variables");

              9659    1   /***************************************************************************
              9660    1    *                                                                         *
              9661    1    *                              symref variables                           *
              9662    1    *                                                                         *
              9663    1    ***************************************************************************/

      945     9668    1   DCL B$TCB$ PTR SYMREF;
      946     9669    1   DCL KS_TBL(0:9) PTR SYMREF;
      947     9670    1   DCL KS_FID SBIN SYMREF;
      948     9671    1   DCL KS_LIB SBIN SYMREF;
      949     9672    1   DCL KS_HAND SBIN SYMREF;
      950     9673    1   DCL KS_NRHAND SBIN SYMREF;
      951     9674    1   DCL KS_CMD SBIN SYMREF;
      952     9675        %P_PCB(NAME = P_PCB,STCLASS=SYMREF);
      953     9874        %KS$HAND_INFO ( NAME = KS_HAND_INFO,LVL=1,STCLASS="(0:0) SYMREF", LAST=";");
      954     9913        %KS$BOX(TITLE="symdef variables");

              9931    1   /***************************************************************************
              9932    1    *                                                                         *
              9933    1    *                              symdef variables                           *
              9934    1    *                                                                         *
              9935    1    ***************************************************************************/

      955     9940        %KS$BOX(TITLE="constant variables");

              9958    1   /***************************************************************************
              9959    1    *                                                                         *
              9960    1    *                             constant variables                          *
              9961    1    *                                                                         *
PL6.E3A0      #004=KSC$SET File=KSC$COMMANDS1.:E05TSI                            WED 07/30/97 01:45 Page:186
              9962    1    ***************************************************************************/

      956     9967        /**/
      957     9968    1   DCL EQUALS CHAR(0) CONSTANT INIT('=');
      958     9969    1   DCL STAR CHAR(0) CONSTANT INIT('*');
      959     9970    1   DCL MONFID CHAR(0) CONSTANT INIT('Monitor Fid (%T) %10P');
      960     9971    1   DCL NHNDLRS CHAR(0) CONSTANT INIT('Number of Handlers (%D) %10P');
      961     9972    1   DCL HNDLRNAME CHAR(0) CONSTANT INIT('Handler #%D Name (%T) %10P');
      962     9973    1   DCL HEX_DIGITS CHAR(0) CONSTANT INIT('0123456789ABCDEF');
      963     9974    1   DCL HNDLRFID CHAR(0) CONSTANT INIT('Handler #%D Fid (%T) %10P');
      964     9975    1   DCL LIBACCT CHAR(0) CONSTANT INIT('Library account (%T) %10P');
      965     9976    1   DCL WRITE_SUCCESSFULL_FMT CHAR(0) CONSTANT INIT (
      966     9977    1        '%T successfully written to %2P%A%10P');
      967     9978    1   DCL WRITE_SUCCESSFULL_VEC BIT(72) DALIGNED CONSTANT INIT
      968     9979    1        (VECTOR(WRITE_SUCCESSFULL_FMT));
      969     9980    1   DCL NETCON CHAR(0) CONSTANT INIT (':NETCON');
      970     9981    1   DCL FEP CHAR(0) CONSTANT INIT ('FEP');
      971     9982        %KS$BOX(TITLE="static variables",PAGE=YES);

PL6.E3A0      #004=KSC$SET File=KSC$COMMANDS1.:E05TSI                            WED 07/30/97 01:45 Page:187
             10000    1   /***************************************************************************
             10001    1    *                                                                         *
             10002    1    *                              static variables                           *
             10003    1    *                                                                         *
             10004    1    ***************************************************************************/

      972    10009    1   DCL 1 TEXTC STATIC ALIGNED,
      973    10010    1         2 COUNT UBIN BYTE UNAL INIT(0),
      974    10011    1         2 TEXT CHAR(40) UNAL INIT(' ');
      975    10012    1   DCL HNDLR_BUF(0:400) CHAR(1) STATIC INIT(' '*0);
      976    10013    1   DCL HANDLER$ STATIC PTR INIT(ADDR(HNDLR_BUF));
      977    10014    1   DCL SI_BUF CHAR(100) STATIC ALIGNED;
      978    10015    1   DCL FIDNAME CHAR(28) STATIC ALIGNED;
      979    10016        %KL$DEFAULT_KEY (NAME=KS_DEFAULT_KEY,STCLASS=STATIC);
      980    10035    1   DCL DEFAULT_BUF (0:49) UBIN WORD STATIC INIT(0*0);
      981    10036    1   DCL DEFAULT$           PTR STATIC INIT(ADDR(DEFAULT_BUF));
      982    10037        %KL$HNDLR_KEY (NAME=KS_HANDLER_KEY,STCLASS=STATIC);
      983    10056        %KL$FEPBOOT (NAME=KS_FEPBOOT,NUM=GI_BOOT_HI,STCLASS=STATIC);
      984    10081        %KL$FEPBOOT_KEY (NAME=KS_FEPBOOT_KEY,STCLASS=STATIC);
      985    10099        %KL$FEPCTL (NAME=KS_FEPCTL,NUM=GI_CNTL_BOOTHI,STCLASS=STATIC);
      986    10119        %KL$FEPCTL_KEY (NAME=KS_FEPCTL_KEY,STCLASS=STATIC);
      987    10137        %KL$FEPHNDLR (NAME=KS_FEPHNDLR,NUM=20,STCLASS=STATIC);
      988    10167        %KL$FEPHNDLR_KEY (NAME=KS_FEPHNDLR_KEY,STCLASS=STATIC);
      989    10185        %KL$PSEUDO(NAME=KS_PSEUDO,NUM=50,STCLASS=STATIC);
      990    10229        %KL$PSEUDO_KEY(NAME=KS_PSEUDO_KEY,STCLASS=STATIC);
      991    10247    1   DCL HDR$ PTR STATIC INIT(ADDR(KS_MSGBUF));
      992    10248    1   DCL 1 PROMPT  SYMREF,
      993    10249    1           2 NODENAME CHAR(8),
      994    10250    1           2 STAR CHAR(2);
      995    10251        %KL_CONTROL (FPTN=KS_CONTROL,STCLASS=STATIC);
      996    10387        %KL$HNDLR (NAME=KS_HANDLER,NUM=KL_FIXED_HI,NUMI=2,STCLASS=STATIC);
      997    10450        %KS$BOX(TITLE="based variables");

             10468    1   /***************************************************************************
             10469    1    *                                                                         *
             10470    1    *                              based variables                            *
             10471    1    *                                                                         *
PL6.E3A0      #004=KSC$SET File=KSC$COMMANDS1.:E05TSI                            WED 07/30/97 01:45 Page:188
             10472    1    ***************************************************************************/

      998    10477        %PARSE$OUT (NAME=OUT$BLK,STCLASS="BASED(TOP$)");
      999    10522        %PARSE$SYM (NAME=OUT$SYM,STCLASS=BASED);
     1000    10560        %PARSE$OUT (NAME=OUT$BLK2,STCLASS="BASED(TOP2$)");
     1001    10605        %PARSE$SYM (NAME=OUT$SYM2,STCLASS=BASED);
     1002    10643        %KL$HNDLR (NAME = KS$HNDLR,NUM=KL_FIXED_HI,STCLASS="BASED(HANDLER$)");
     1003    10706        %KL_HDR(FPTN=KS$HDR,STCLASS="BASED(HDR$)");
     1004    10786        %KL$LINCNFG (NAME=KS_DEFAULT_REC,STCLASS="BASED(DEFAULT$)");
     1005    10944        %KL_HDR (FPTN=KS_HDR,STCLASS="BASED(KS_MSGBUF$)");
     1006    11024    1   DCL 1 HND BASED UNAL,
     1007    11025    1        2 DAT(0:18) BIT(1) UNAL;
     1008    11026        %KS$PARAM (NAME=KS$PARAM,LVL=1,STCLASS="(0:0) BASED",LAST=";");
     1009    11096        %KS$PARAM (NAME=KS$PRM,LVL=1,STCLASS="(0:0) BASED",LAST=";",SPECIAL=YES);
     1010    11166    1   DCL VALUE_B(0:0) UBIN HALF BASED HALIGNED;
     1011    11167        %VLP_NAME(FPTN = NAME,STCLASS = BASED);
     1012    11194        %KS$BOX(TITLE="auto variables",PAGE=YES);

PL6.E3A0      #004=KSC$SET File=KSC$COMMANDS1.:E05TSI                            WED 07/30/97 01:45 Page:189
             11212    1   /***************************************************************************
             11213    1    *                                                                         *
             11214    1    *                               auto variables                            *
             11215    1    *                                                                         *
             11216    1    ***************************************************************************/

     1013    11221    1   DCL BOOT_FLAG BIT(1);
     1014    11222    1   DCL FID_FLAG BIT(1);
     1015    11223    1   DCL BOOTIME  BIT(1) UNAL;
     1016    11224    1   DCL TEMP UBIN;
     1017    11225    1   DCL HNDLREXISTS BIT(1);
     1018    11226    1   DCL HEX_CHAR CHAR(1);
     1019    11227    1   DCL HEX_DIGIT UBIN;
     1020    11228    1   DCL HNDLRX UBIN;   /* index in fephndlr.handler array */
     1021    11229    1   DCL INDX1  UBIN;   /* general index */
     1022    11230    1   DCL INDX2  UBIN;
     1023    11231    1   DCL I UBIN;
     1024    11232    1   DCL INDX UBIN;
     1025    11233    1   DCL INDX_VEC(0:49) UBIN;
     1026    11234    1   DCL J UBIN;
     1027    11235    1   DCL K UBIN;
     1028    11236    1   DCL 1 KS_SUB_BUF_TEMP2  ALIGNED,
     1029    11237    1        2 COUNT UBIN BYTE UNAL,
     1030    11238    1        2 TEXT_C UNAL,
     1031    11239    1          3 TOPSIZ CHAR(6) UNAL,
     1032    11240    1          3 TEXT CHAR(25) UNAL,
     1033    11241    1        2 TEXT REDEF TEXT_C CHAR(31);
     1034    11242
     1035    11243    1   DCL 1 KS_SUB_BUF_4 ALIGNED,
     1036    11244    1        2 COUNT UBIN BYTE UNAL,
     1037    11245    1        2 TEXT CHAR(31) UNAL;
     1038    11246    1   DCL L UBIN;
     1039    11247    1   DCL LIB_FLAG BIT(1);    /* misc flags to indicate options on set boot cmd */
     1040    11248    1   DCL MON_FLAG BIT(1);
     1041    11249    1   DCL OPTBLK$ PTR;          /* pointer to options on set boot cmd */
     1042    11250    1   DCL PARMX UBIN;
     1043    11251    1   DCL PARMTYPE UBIN;
PL6.E3A0      #004=KSC$SET File=KSC$COMMANDS1.:E05TSI                            WED 07/30/97 01:45 Page:190
     1044    11252    1   DCL PERM_PARM UBIN BYTE;
     1045    11253    1   DCL NUM_INDX UBIN;
     1046    11254    1   DCL SCNOPTS UBIN;         /* pointer to options on handler in set boot */
     1047    11255    1   DCL SUBLK$ PTR;
     1048    11256    1   DCL SUBLOP UBIN;
     1049    11257    1   DCL TEMP1 UBIN;
     1050    11258    1   DCL TEMP2 UBIN;
     1051    11259    1   DCL T_PSEUDO# SBIN;
     1052    11260    1   DCL TMP$    PTR;          /* temporary pointer */
     1053    11261    1   DCL VALUE UBIN;
     1054    11262    1   DCL 1 VALUEC REDEF VALUE,
     1055    11263    1        2 * CHAR(2) UNAL,
     1056    11264    1        2 RES CHAR(2) UNAL;
     1057    11265        /* redef of ks_sub_buf_? for error message display */
     1058    11266        /**/
     1059    11267    1   DCL ERR# UBIN;
     1060    11268    1   DCL BLK$ PTR;
     1061    11269    1   DCL TOP2$ PTR;
     1062    11270    1   DCL PTR$ PTR;
     1063    11271    1   DCL DFLT_OPT$ PTR;
     1064    11272    1   DCL OUT$ PTR;
     1065    11273    1   DCL INDX_R UBIN BYTE;
     1066    11274    1   DCL SZ UBIN WORD;
     1067    11275    1   DCL BUF_SIZE UBIN WORD;
     1068    11276    1   DCL HANDLERNAME CHAR(8);
     1069    11277    1   DCL OLD_HANDLER (0:20) CHAR(8) ALIGNED;
     1070    11278    1   DCL OLD_BOOTIME (0:20) BIT(1) UNAL;
     1071    11279    1   DCL OLD_NRHAND   UBIN;
     1072    11280    1   DCL RECORD_SIZE  UBIN;
     1073    11281    1   DCL RECORD_CHANGED  BIT(1) ALIGNED;
     1074    11282    1   DCL HANDLER_FOUND   BIT(1) ALIGNED;
     1075    11283    1   DCL RCVCQ_SNDCQ     BIT(1) ALIGNED;
     1076    11284    1   DCL HANDNR       UBIN;
     1077    11285        %B$TCB;
     1078    11288        %B$ALT;
     1079    11296        /**/
     1080    11297        %KS$BOX(TITLE="FPTs and VLPs");
PL6.E3A0      #004=KSC$SET File=KSC$COMMANDS1.:E05TSI                            WED 07/30/97 01:45 Page:191

             11315    1   /***************************************************************************
             11316    1    *                                                                         *
             11317    1    *                               FPTs and VLPs                             *
             11318    1    *                                                                         *
             11319    1    ***************************************************************************/

     1081    11324        %FPT_READ (FPTN=READ_NETCON,
     1082    11325                   DCB=M$NETCON,
     1083    11326                   KEYS=YES);
     1084    11365        %FPT_WRITE (FPTN=WRITE_NETCON,
     1085    11366                    DCB=M$NETCON);
     1086    11397        %FPT_DELREC (FPTN=DELREC_NETCON,
     1087    11398                     DCB=M$NETCON);
     1088    11417        /**/
     1089    11418        %FPT_OPEN;
     1090    11527        /**/
     1091    11528        %FPT_FID (FPTN = NETCON_FID,
     1092    11529                  NAME = VLP_NAME,PASS=VLP_PASS,
     1093    11530                  RESULTS = VLR_FID, ACCT = VLP_ACCT,
     1094    11531                  SN = VLP_SN, WSN = VLP_WSN,
     1095    11532                  ASN = "FPT_OPEN.V.ASN#", RES = "FPT_OPEN.V.RES#",
     1096    11533                  TEXTFID = FIDNAME);
     1097    11556        /**/
     1098    11557        %VLP_ACCT;
     1099    11570        %VLP_NAME;
     1100    11597        %VLP_PASS;
     1101    11610        %VLP_SN;
     1102    11623        %VLP_WSN;
     1103    11636        %VLR_FID;
     1104    11655        %KS$BOX(TITLE="DCBs");

             11673    1   /***************************************************************************
             11674    1    *                                                                         *
             11675    1    *                                    DCBs                                 *
             11676    1    *                                                                         *
             11677    1    ***************************************************************************/
PL6.E3A0      #004=KSC$SET File=KSC$COMMANDS1.:E05TSI                            WED 07/30/97 01:45 Page:192

     1105    11682    1   DCL M$NETCON DCB;
     1106    11683    1   DCL M$SI DCB;
     1107    11684        %KS$BOX(TITLE="EQUs");

             11702    1   /***************************************************************************
             11703    1    *                                                                         *
             11704    1    *                                    EQUs                                 *
             11705    1    *                                                                         *
             11706    1    ***************************************************************************/

     1108    11711        %EQU KS_MAX_HALF = 6;
     1109    11712        %EQU KS_MAX_PSEUDO = 7;
     1110    11713        /**/
     1111    11714        %EJECT;
PL6.E3A0      #004=KSC$SET File=KSC$COMMANDS1.:E05TSI                            WED 07/30/97 01:45 Page:193
     1112    11715    2        IF KS_NODENAME = 'HOST' THEN DO;
     1113    11716    2           CALL KSE$ERRMSG(%E$KS_NONODE);
     1114    11717                /*E* ERROR: KSN-E$KS_NONODE-0
     1115    11718                     MESSAGE: Node has not been selected.
     1116    11719                     MESSAGE1: A node must be selected via the SELECT command.
     1117    11720                     DESCRIPTION: SEE MESSAGES */
     1118    11721    2           RETURN;
     1119    11722    2           END;  /* IF KS_NODENAME = 'HOST' */
     1120    11723    2   DOI: DO I = 0 TO OUT$BLK.NSUBLKS - 1;
     1121    11724    2           BLK$ = OUT$BLK.SUBLK$(I);
     1122    11725    3           DO CASE(BLK$->OUT$BLK.CODE);
     1123    11726    3              CASE(%KS_BOOTINFO);
     1124    11727    3                 IF BLK$->OUT$BLK.NSUBLKS > 0 THEN
     1125    11728    4                    DO;  /* 1 set boot commands with options  */
     1126    11729    4                    KS_FEPHNDLR = '0'B;   /* init buffer areas  */
     1127    11730
     1128    11731    4                    KS_FEPBOOT = '0'B;
     1129    11732        /**/
     1130    11733                         /* params will always be off of 1st sublk */
     1131    11734        /**/
     1132    11735        /*
     1133    11736                read the ks_fephndlr record.  use this same buffer
     1134    11737                throughout the entire processing period.
     1135    11738        */
     1136    11739    4                    KS_FEPHNDLR_KEY.NODE = KS_NODE;
     1137    11740    4                    READ_NETCON.BUF_ = VECTOR(KS_FEPHNDLR);
     1138    11741    4                    READ_NETCON.KEY_ = VECTOR(KS_FEPHNDLR_KEY);
     1139    11742    4                    CALL M$READ(READ_NETCON) ALTRET(SET_ERR);
     1140    11743        /**/
     1141    11744    5                    DO SCNOPTS = 0 TO BLK$->OUT$BLK.NSUBLKS-1;  /*  2  */
     1142    11745    5                       HNDLR_BUF = '0'B;
     1143    11746    5                       TMP$ = BLK$->OUT$BLK.SUBLK$(SCNOPTS);
     1144    11747    6      SETCODE:         DO CASE (TMP$->OUT$BLK.CODE);   /*  3  */
     1145    11748        %EJECT;
PL6.E3A0      #004=KSC$SET File=KSC$COMMANDS1.:E05TSI                            WED 07/30/97 01:45 Page:194
     1146    11749    6                          CASE (%KS_MONFID);
     1147    11750    6                             KS_FEPBOOT_KEY.NODE = KS_NODE;
     1148    11751    6                             READ_NETCON.BUF_ = VECTOR(KS_FEPBOOT);
     1149    11752    6                             READ_NETCON.KEY_ = VECTOR(KS_FEPBOOT_KEY);
     1150    11753    6                             CALL M$READ(READ_NETCON) ALTRET(SETCODE);
     1151    11754        /*
     1152    11755             a fepboot record must exist for the set boot command to work.
     1153    11756        */
     1154    11757    6                             IF TMP$->OUT$BLK.NSUBLKS = 0 THEN
     1155    11758    6                                KS_FEPBOOT.BOOTFID = 'M:FEP.:SYS';
     1156    11759    6                             ELSE
     1157    11760    6                                CALL ALTER_FID (TMP$,KS_FEPBOOT.BOOTFID);
     1158    11761
     1159    11762    6                             WRITE_NETCON.BUF_ = VECTOR(KS_FEPBOOT);
     1160    11763    6                             WRITE_NETCON.KEY_ = VECTOR(KS_FEPBOOT_KEY);
     1161    11764    6                             CALL M$WRITE(WRITE_NETCON) ALTRET(SET_ERR);
     1162    11765        %EJECT;
PL6.E3A0      #004=KSC$SET File=KSC$COMMANDS1.:E05TSI                            WED 07/30/97 01:45 Page:195
     1163    11766    6                          CASE(%KS_LIBACCT);
     1164    11767
     1165    11768    6                             KS_FEPHNDLR.DEFLIBACCT = TMP$->OUT$BLK.SUBLK$(0)->OUT$SYM.
             11768                                      TEXT;
     1166    11769
     1167    11770
     1168    11771        /**/
     1169    11772        %EJECT;
PL6.E3A0      #004=KSC$SET File=KSC$COMMANDS1.:E05TSI                            WED 07/30/97 01:45 Page:196
     1170    11773    6                          CASE(%KS_HANDNAME);
     1171    11774
     1172    11775                                  /* does handler exist  */
     1173    11776
     1174    11777    6                             HNDLREXISTS = '0'B;
     1175    11778    7           FEPHNDSRCH:       DO HNDLRX = 0 TO KS_FEPHNDLR.NHANDLERS-1;
     1176    11779    7                                IF KS_FEPHNDLR.HANDLER(HNDLRX) = BLK$->OUT$BLK.SUBLK$(
             11779                                         SCNOPTS)->OUT$BLK.SUBLK$(0)->OUT$SYM.TEXT THEN
     1177    11780    8                                   DO;  /* 10 handler does exist */
     1178    11781    8                                   HNDLREXISTS = '1'B;
     1179    11782    8                                   KS$HNDLR.HNDLRNAME = KS_FEPHNDLR.HANDLER(HNDLRX);
     1180    11783    8                                   HANDLERNAME = KS$HNDLR.HNDLRNAME;
     1181    11784    8                                   EXIT FEPHNDSRCH;
     1182    11785    8                                   END;  /* 10 handler found  */
     1183    11786    7                             END;  /* fephndsrch loop */
     1184    11787        /**/
     1185    11788    6                             SUBLK$ = BLK$->OUT$BLK.SUBLK$(SCNOPTS);
     1186    11789    6                             IF ~HNDLREXISTS THEN
     1187    11790    7                                DO;
     1188    11791    7                                KS$HNDLR.HNDLRNAME = SUBLK$->OUT$BLK.SUBLK$(0)->OUT$SYM
             11791                                         .TEXT;
     1189    11792    7                                HANDLERNAME = KS$HNDLR.HNDLRNAME;
     1190    11793    7                                KS_FEPHNDLR.NHANDLERS = KS_FEPHNDLR.NHANDLERS + 1;
     1191    11794    7                                HNDLRX = KS_FEPHNDLR.NHANDLERS - 1;
     1192    11795    7                                KS_FEPHNDLR.HANDLER(HNDLRX) = HANDLERNAME;
     1193    11796    7                                KS_FEPHNDLR.BOOTIME(HNDLRX) = '1'B;
     1194    11797    7                                CALL RESET_PARAMS_TO_DEFAULTS;
     1195    11798    7                                KS_DEFAULT_KEY.NODE = KS_NODE;
     1196    11799    7                                KS_DEFAULT_KEY.HNDLR = HANDLERNAME;
     1197    11800    7                                CALL KSU$READ_NETCON (VECTOR(KS_DEFAULT_KEY),VECTOR(
             11800                                         KS_DEFAULT_REC))
     1198    11801    8                                   WHENALTRETURN DO;
     1199    11802    8                                      CALL KSU$INIT_DEFCNFG(KS_DEFAULT_REC);
     1200    11803    8                                      CALL KSU$WRITE_NETCON(VECTOR(KS_DEFAULT_KEY),
             11803                                               VECTOR(KS_DEFAULT_REC));
     1201    11804    8                                   END;
     1202    11805    7                                END;
PL6.E3A0      #004=KSC$SET File=KSC$COMMANDS1.:E05TSI                            WED 07/30/97 01:45 Page:197
     1203    11806    6                             ELSE
     1204    11807    7                                DO;
     1205    11808    7                                KS_HANDLER_KEY.NODE = KS_NODE;
     1206    11809    7                                KS_HANDLER_KEY.HNDLR = HANDLERNAME;
     1207    11810    7                                READ_NETCON.KEY_ = VECTOR(KS_HANDLER_KEY);
     1208    11811    7                                READ_NETCON.BUF_ = VECTOR(HNDLR_BUF);
     1209    11812    7                                CALL M$READ(READ_NETCON) ALTRET(SET_ERR);
     1210    11813    7                                END;
     1211    11814        /**/
     1212    11815    6                             FID_FLAG = '0'B;
     1213    11816    6                             BOOT_FLAG = '0'B;
     1214    11817
     1215    11818    6                             IF TMP$->OUT$BLK.NSUBLKS > 1 THEN
     1216    11819    7                                DO;  /* fid,bootime or remove specified  12 */
     1217    11820    7                                IF ~HNDLREXISTS THEN
     1218    11821    8                                   DO;
     1219    11822    8                                   KS$HNDLR.HNDLRFID = KS$HNDLR.HNDLRNAME;
     1220    11823    8                                   CALL INDEX (INDX,' ',KS$HNDLR.HNDLRFID);
     1221    11824    8                                   SUBSTR(KS$HNDLR.HNDLRFID,INDX,5) = '.:SYS';
     1222    11825    8                                   KS_FEPHNDLR.BOOTIME(HNDLRX) = '1'B;
     1223    11826    8                                   END;
     1224    11827    8                                DO SUBLOP = 1 TO SUBLK$->OUT$BLK.NSUBLKS-1;  /* 13 */
     1225    11828    9                                   DO CASE(SUBLK$->OUT$BLK.SUBLK$(SUBLOP)->OUT$BLK.CODE
             11828                                            );
     1226    11829        %EJECT;
PL6.E3A0      #004=KSC$SET File=KSC$COMMANDS1.:E05TSI                            WED 07/30/97 01:45 Page:198
     1227    11830    9                                      CASE(%KS_HANDFID);
     1228    11831    9                                        CALL ALTER_FID (SUBLK$->OUT$BLK.SUBLK$(SUBLOP)
             11831                                                 ->OUT$BLK.SUBLK$(0),KS$HNDLR.HNDLRFID);
     1229    11832
     1230    11833        /**/
     1231    11834        %EJECT;
PL6.E3A0      #004=KSC$SET File=KSC$COMMANDS1.:E05TSI                            WED 07/30/97 01:45 Page:199
     1232    11835    9                                      CASE(%KS_HANDREM);
     1233    11836    9                                         IF HNDLRX ~= KS_FEPHNDLR.NHANDLERS-1 THEN
     1234    11837   10                                            DO; /* search to delete handler */
     1235    11838   11                                            DO K = HNDLRX TO KS_FEPHNDLR.NHANDLERS-1;
     1236    11839   11                                               KS_FEPHNDLR.HANDLER(K) = KS_FEPHNDLR.
             11839                                                        HANDLER(K+1);
     1237    11840   11                                               KS_FEPHNDLR.BOOTIME(K) = KS_FEPHNDLR.
             11840                                                        BOOTIME(K+1);
     1238    11841   11                                             END; /* if hndlrx ~= nhandlers */
     1239    11842   10                                             END;  /* not last handler */
     1240    11843
     1241    11844    9                                          KS_FEPHNDLR.HANDLER(KS_FEPHNDLR.NHANDLERS-1)
             11844                                                   = ' ';
     1242    11845    9                                          KS_FEPHNDLR.NHANDLERS = KS_FEPHNDLR.NHANDLERS
             11845                                                   -1;
     1243    11846
     1244    11847             /*
     1245    11848
     1246    11849             */
     1247    11850    9                                            KS_HANDLER_KEY.HNDLR = HANDLERNAME;
     1248    11851    9                                            KS_HANDLER_KEY.NODE = KS_NODE;
     1249    11852    9                                            DELREC_NETCON.KEY_ = VECTOR(KS_HANDLER_KEY)
             11852                                                     ;
     1250    11853    9                                            CALL M$DELREC(DELREC_NETCON) WHENALTRETURN
     1251    11854   10                                               DO;
     1252    11855                                                    /*N* yeah, so do what  */
     1253    11856   10                                               END;
     1254    11857    9                    KS_DEFAULT_KEY.NODE = KS_NODE;
     1255    11858    9                    KS_DEFAULT_KEY.HNDLR = HANDLERNAME;
     1256    11859    9                    DELREC_NETCON.KEY_ = VECTOR(KS_DEFAULT_KEY);
     1257    11860    9                    CALL M$DELREC (DELREC_NETCON);
     1258    11861
     1259    11862   10                    IF ~HNDLREXISTS THEN DO;
     1260    11863   10                       KS_SUB_BUF_1.TEXT = HANDLERNAME;
     1261    11864   10                       KS_SUB_BUF_1.COUNT = SIZEC(HANDLERNAME);
     1262    11865   10                       KS_SUB_BUF_2.TEXT = KS_NODENAME;
     1263    11866   10                       KS_SUB_BUF_2.COUNT = SIZEC(KS_NODENAME);
PL6.E3A0      #004=KSC$SET File=KSC$COMMANDS1.:E05TSI                            WED 07/30/97 01:45 Page:200
     1264    11867   10                       CALL KSE$ERRMSG (%E$KS_HAND_NOT_DEF,VECTOR(KS_SUB_BUF_1),VECTOR(
             11867                                KS_SUB_BUF_2));
     1265    11868   10                    END;
     1266    11869
     1267    11870    9                                         EXIT SETCODE;  /* prevents rewritting the
     1268    11871                                                               ks$hndlr record to :netcon */
     1269    11872        %EJECT;
PL6.E3A0      #004=KSC$SET File=KSC$COMMANDS1.:E05TSI                            WED 07/30/97 01:45 Page:201
     1270    11873    9                                      CASE(%KS_HANDBT);
     1271    11874    9                                         IF SUBLK$->OUT$BLK.SUBLK$(SUBLOP)->OUT$BLK.
             11874                                                  SUBLK$(0)->OUT$BLK.CODE = %KS_YES THEN
     1272    11875    9                                            KS_FEPHNDLR.BOOTIME(HNDLRX) = '1'B;
     1273    11876    9                                         ELSE
     1274    11877    9                                            KS_FEPHNDLR.BOOTIME(HNDLRX) = '0'B;
     1275    11878        %EJECT;
PL6.E3A0      #004=KSC$SET File=KSC$COMMANDS1.:E05TSI                            WED 07/30/97 01:45 Page:202
     1276    11879    9                                      CASE(%KS_HANDDEF);
     1277    11880    9                                         IF SUBLK$->OUT$BLK.SUBLK$(SUBLOP)->OUT$BLK.
             11880                                                  NSUBLKS = 0 THEN
     1278    11881    9                                            CALL RESET_PARAMS_TO_DEFAULTS;
     1279    11882    9                                         ELSE
     1280    11883    9                                            IF SUBLK$->OUT$BLK.SUBLK$(SUBLOP)->OUT$BLK.
             11883                                                     SUBLK$(0)->
     1281    11884    9                                               OUT$BLK.SUBLK$(0)->OUT$BLK.CODE = %
             11884                                                        KS_YES THEN
     1282    11885    9                                               CALL RESET_PARAMS_TO_DEFAULTS;
     1283    11886    9                                      END;  /* do case sublk$->out$blk...code */
     1284    11887        /**/
     1285    11888
     1286    11889
     1287    11890
     1288    11891        /*
     1289    11892
     1290    11893                   COMMENT
     1291    11894        */
     1292    11895
     1293    11896
     1294    11897    8                                   END; /* 13 sublop = 1 to nsublks */
     1295    11898    7                                   END;  /* 12 if nsublks >1 */
     1296    11899    6                                ELSE
     1297    11900    7                                   DO;  /* 15 # sublks = 1 */
     1298    11901    7                                   KS$HNDLR.HNDLRFID = HANDLERNAME;
     1299    11902    7                                   CALL INDEX (INDX,' ',KS$HNDLR.HNDLRFID);
     1300    11903    7                                   SUBSTR(KS$HNDLR.HNDLRFID,INDX,5) = '.:SYS';
     1301    11904    7                                   KS_FEPHNDLR.BOOTIME(HNDLRX) = '1'B;
     1302    11905    7                                   END;
     1303    11906        /**/
     1304    11907    7                                IF KS$HNDLR.NPARAMI > 0 THEN DO;
     1305    11908    7                                    PTR$ = PINCRW(ADDR(HNDLR_BUF),KS$HNDLR.IPARAM.
             11908                                             OFFSET(KS$HNDLR.NPARAMI-1));
     1306    11909    7                                   PTR$ = PINCRW(PTR$,(KS$HNDLR.IPARAM.ARRAY_SZ(
             11909                                            KS$HNDLR.NPARAMI - 1) + 2)/2);
     1307    11910    7                                   END;
PL6.E3A0      #004=KSC$SET File=KSC$COMMANDS1.:E05TSI                            WED 07/30/97 01:45 Page:203
     1308    11911    7                                ELSE DO;
     1309    11912    7                                   PTR$ = ADDR(HNDLR_BUF);
     1310    11913    7                                   PTR$ = PINCRW(PTR$,SIZEW(KS_HANDLER)+1);
     1311    11914    7                                   END;
     1312    11915    6                                WRITE_NETCON.BUF_ = VECTOR(HNDLR_BUF);
     1313    11916    6                                WRITE_NETCON.KEY_ = VECTOR(KS_HANDLER_KEY);
     1314    11917    6                                KS_HANDLER_KEY.NODE = KS_NODE;
     1315    11918    6                                KS_HANDLER_KEY.HNDLR = KS_FEPHNDLR.HANDLER(HNDLRX);
     1316    11919    6                                WRITE_NETCON.BUF_.BOUND = POFFC(PTR$,ADDR(HNDLR_BUF)) -
             11919                                         1;
     1317    11920    6                                CALL M$WRITE(WRITE_NETCON) ALTRET(SET_ERR);
     1318    11921        /**/
     1319    11922
     1320    11923    6                       END;  /* do case (tmp$->out$blk.code) */
     1321    11924    5                    END;    /* do SCNOPTS = 0 to nsublks at set boot level 2*/
     1322    11925    4                    I = 0;
     1323    11926    4                    L = KS_FEPHNDLR.NHANDLERS;
     1324    11927    5                    DO WHILE (I <= L-2);
     1325    11928    5                       IF KS_FEPHNDLR.HANDLER(I) = ' ' THEN
     1326    11929    6                          DO;
     1327    11930        /*
     1328    11931                if a blank exists in the handler list delete it, move the handlers
     1329    11932                up and decrement nhandlers.
     1330    11933        */
     1331    11934    7                          DO J = I TO KS_FEPHNDLR.NHANDLERS-2;
     1332    11935    7                             KS_FEPHNDLR.HANDLER(J) = KS_FEPHNDLR.HANDLER(J+1);
     1333    11936    7                             KS_FEPHNDLR.BOOTIME(J) = KS_FEPHNDLR.BOOTIME(J+1);
     1334    11937    7                          END;
     1335    11938    6                          KS_FEPHNDLR.HANDLER(KS_FEPHNDLR.NHANDLERS-1) = ' ';
     1336    11939    6                          KS_FEPHNDLR.NHANDLERS = KS_FEPHNDLR.NHANDLERS - 1;
     1337    11940    6                          END;
     1338    11941    5                    I = I + 1;
     1339    11942    5                    END;  /* do while  */
     1340    11943    4                    IF KS_FEPHNDLR.HANDLER(KS_FEPHNDLR.NHANDLERS-1) = ' ' THEN
     1341    11944    4                       KS_FEPHNDLR.NHANDLERS = KS_FEPHNDLR.NHANDLERS-1;
     1342    11945
     1343    11946    4                    IF KS_FEPHNDLR.HANDLER(0) ~= 'NODEADMN' THEN
PL6.E3A0      #004=KSC$SET File=KSC$COMMANDS1.:E05TSI                            WED 07/30/97 01:45 Page:204
     1344    11947    4                       CALL KSE$ERRMSG (%E$KS_NODEADMN_NOT_FIRST);
     1345    11948
     1346    11949
     1347    11950
     1348    11951
     1349    11952        /**/
     1350    11953    4                    KS_FEPHNDLR_KEY.NODE = KS_NODE;
     1351    11954    4                    WRITE_NETCON.BUF_ = VECTOR(KS_FEPHNDLR);
     1352    11955    4                    WRITE_NETCON.KEY_ = VECTOR(KS_FEPHNDLR_KEY);
     1353    11956    4                    WRITE_NETCON.BUF_.BOUND = SIZEC(KS_FEPHNDLR.NHANDLERS) +
     1354    11957    4                                              SIZEC(KS_FEPHNDLR.DEFLIBACCT) +
     1355    11958    4                                               4 + /* bootime bits */
     1356    11959    4                                              (SIZEC(KS_FEPHNDLR.HANDLER(0)) *
     1357    11960    4                                              KS_FEPHNDLR.NHANDLERS) - 1;
     1358    11961    4                    CALL M$WRITE(WRITE_NETCON) ALTRET(SET_ERR);
     1359    11962    4                    END;   /* sublks on set boot command 1 */
     1360    11963    3                  ELSE
     1361    11964        %EJECT;
PL6.E3A0      #004=KSC$SET File=KSC$COMMANDS1.:E05TSI                            WED 07/30/97 01:45 Page:205
     1362    11965
     1363    11966            /* no options on the SET BOOT command - the old style (prompted)*/
     1364    11967
     1365    11968    3   PROMPTED_SET_BOOT:
     1366    11969    4        DO;
     1367    11970    4           KS_FEPBOOT_KEY.NODE = KS_NODE;
     1368    11971    4           KS_FEPHNDLR_KEY.NODE = KS_NODE;
     1369    11972    4           KS_HANDLER_KEY.NODE = KS_NODE;
     1370    11973    4           KS_SUB_BUF_1.COUNT = SIZEC('BOOTINFO');
     1371    11974    4           KS_SUB_BUF_1.TEXT = 'BOOTINFO';
     1372    11975
     1373    11976             /* change monitor fid in KS_FEPBOOT record */
     1374    11977
     1375    11978    4   MONFID: CALL KSU$READ_NETCON (VECTOR(KS_FEPBOOT_KEY),
     1376    11979    4                                 VECTOR(KS_FEPBOOT)) ALTRET (SET_ERR);
     1377    11980
     1378    11981             /* strip blanks from end of monitor fid,print it, */
     1379    11982             /*if a new fid is entered, change it and write out new FEPBOOT*/
     1380    11983
     1381    11984    4           CALL INDEX (J,' ',KS_FEPBOOT.BOOTFID) WHENALTRETURN
     1382    11985    5              DO;
     1383    11986    5                 J = SIZEC(KS_FEPBOOT.BOOTFID);
     1384    11987    5              END;
     1385    11988    4           TEXTC.COUNT = J;
     1386    11989    4           TEXTC.TEXT = SUBSTR(KS_FEPBOOT.BOOTFID,0,J);
     1387    11990    4           CALL KSW$WRITE(VECTOR(MONFID),VECTOR(TEXTC));
     1388    11991    4           CALL XUR$GETCMD(KS_FID,TOP2$,VECTOR(EQUALS));
     1389    11992    4           IF TOP2$->OUT$BLK2.NSUBLKS ~= 0 THEN
     1390    11993    5              DO;
     1391    11994    5                 CALL ALTER_FID (TOP2$,KS_FEPBOOT.BOOTFID);
     1392    11995    5                 CALL KSU$WRITE_NETCON (VECTOR(KS_FEPBOOT_KEY),
     1393    11996    5                    VECTOR(KS_FEPBOOT)) ALTRET (SET_ERR);
     1394    11997    5              END;
     1395    11998                /* Change Handler information */
     1396    11999
     1397    12000         /* Get the number of handlers - read FEPHANDLER record and save the number and the
             12000        names */
PL6.E3A0      #004=KSC$SET File=KSC$COMMANDS1.:E05TSI                            WED 07/30/97 01:45 Page:206
     1398    12001
     1399    12002    4   NHNDLRS:
     1400    12003    4           CALL KSU$READ_NETCON (VECTOR(KS_FEPHNDLR_KEY),
     1401    12004    4                                 VECTOR(KS_FEPHNDLR)) ALTRET (SET_ERR);
     1402    12005    4           OLD_NRHAND = KS_FEPHNDLR.NHANDLERS;
     1403    12006    4           OLD_HANDLER = KS_FEPHNDLR.HANDLER;
     1404    12007    4           OLD_BOOTIME = KS_FEPHNDLR.BOOTIME;
     1405    12008
     1406    12009             /* Prompt for a new number of handlers - if changed put in record*/
     1407    12010
     1408    12011    4           CALL KSW$WRITE(VECTOR(NHNDLRS),VECTOR(KS_FEPHNDLR.NHANDLERS));
     1409    12012    4           CALL XUR$GETCMD(KS_NRHAND,TOP2$,VECTOR(EQUALS));
     1410    12013    4           IF TOP2$->OUT$BLK.NSUBLKS ~= 0 THEN
     1411    12014    4              CALL CHARBIN (KS_FEPHNDLR.NHANDLERS,TOP2$->OUT$SYM.TEXT);
     1412    12015
     1413    12016         /* Prompt for changes to the names and fids for the number of handlers just entered
             12016         */
     1414    12017
     1415    12018    4   CHANGE_HANDLERS:
     1416    12019    5           DO J = 0 TO KS_FEPHNDLR.NHANDLERS - 1;
     1417    12020    5              HANDNR = J + 1;
     1418    12021    5              RECORD_CHANGED = '0'B;
     1419    12022    5              CALL INDEX (K,' ',KS_FEPHNDLR.HANDLER(J));
     1420    12023    5              TEXTC.COUNT = K;
     1421    12024    5              TEXTC.TEXT = SUBSTR(KS_FEPHNDLR.HANDLER(J),0,K);
     1422    12025    5              CALL KSW$WRITE (VECTOR(HNDLRNAME),VECTOR(HANDNR),VECTOR(TEXTC));
     1423    12026    5              CALL XUR$GETCMD(KS_HAND,TOP2$,VECTOR(EQUALS));
     1424    12027    5              IF TOP2$->OUT$BLK.NSUBLKS ~= 0 THEN
     1425    12028    5                 KS_FEPHNDLR.HANDLER(J) = TOP2$->OUT$SYM.TEXT;
     1426    12029    5              KS_HANDLER_KEY.HNDLR = KS_FEPHNDLR.HANDLER(J);
     1427    12030             /* Search for handler on old handler list,If found - read record*/
     1428    12031             /* If not found - create a handler record */
     1429    12032
     1430    12033    5              HANDLER_FOUND = '0'B;
     1431    12034    5   FIND_HANDLER:
     1432    12035    6              DO K = 0 TO OLD_NRHAND - 1;
     1433    12036    6                 IF KS_FEPHNDLR.HANDLER(J) = OLD_HANDLER(K) THEN
PL6.E3A0      #004=KSC$SET File=KSC$COMMANDS1.:E05TSI                            WED 07/30/97 01:45 Page:207
     1434    12037    7                    DO;
     1435    12038    7                       HANDLER_FOUND = '1'B;
     1436    12039    7                       EXIT FIND_HANDLER;
     1437    12040    7                    END;
     1438    12041    6              END;
     1439    12042
     1440    12043    5              IF HANDLER_FOUND THEN
     1441    12044    6                 DO;
     1442    12045    6                    CALL KSU$READ_NETCON (VECTOR(KS_HANDLER_KEY),VECTOR(HNDLR_BUF));
     1443    12046    6                    KS_FEPHNDLR.BOOTIME(J) = OLD_BOOTIME(K);
     1444    12047    6                 END;
     1445    12048    5              ELSE
     1446    12049    6                 DO;
     1447    12050    6                    RECORD_CHANGED = '1'B;
     1448    12051    6                    KS_FEPHNDLR.BOOTIME(J) = '1'B;
     1449    12052    6                    KS$HNDLR.HNDLRFID = ' ';
     1450    12053    6                    KS$HNDLR.HNDLRNAME = KS_FEPHNDLR.HANDLER(J);
     1451    12054    6                    IF KS$HNDLR.HNDLRNAME ~= ' ' THEN
     1452    12055    7                       DO;
     1453    12056    7                          KS$HNDLR.HNDLRFID = KS$HNDLR.HNDLRNAME;
     1454    12057    7                          CALL INDEX (K,' ',KS$HNDLR.HNDLRFID);
     1455    12058    7                          SUBSTR(KS$HNDLR.HNDLRFID,K) = '.:SYS';
     1456    12059    7                       END;
     1457    12060    6                    CALL RESET_PARAMS_TO_DEFAULTS;
     1458    12061    6                 END;
     1459    12062
     1460    12063             /* Change fid of handler if requested */
     1461    12064
     1462    12065    5   CHANGE_FID:
     1463    12066    5              CALL INDEX (K,' ',KS$HNDLR.HNDLRFID);
     1464    12067    5              TEXTC.COUNT = K;
     1465    12068    5              TEXTC.TEXT = SUBSTR(KS$HNDLR.HNDLRFID,0,K);
     1466    12069    5              CALL KSW$WRITE (VECTOR(HNDLRFID),VECTOR(HANDNR),VECTOR(TEXTC));
     1467    12070    5              CALL XUR$GETCMD(KS_FID,TOP2$,VECTOR(EQUALS));
     1468    12071    5              IF TOP2$->OUT$BLK.NSUBLKS ~= 0 THEN
     1469    12072    6                 DO;
     1470    12073    6                    CALL ALTER_FID (TOP2$, KS$HNDLR.HNDLRFID);
PL6.E3A0      #004=KSC$SET File=KSC$COMMANDS1.:E05TSI                            WED 07/30/97 01:45 Page:208
     1471    12074    6                    RECORD_CHANGED = '1'B;
     1472    12075    6                 END;
     1473    12076
     1474    12077    5              IF RECORD_CHANGED THEN
     1475    12078    6                 DO;   /* Figure out size of record */
     1476    12079    7                          IF KS$HNDLR.NPARAMI > 0 THEN DO;
     1477    12080    7                             PTR$ = PINCRW(ADDR(HNDLR_BUF),KS$HNDLR.IPARAM.OFFSET(
             12080                                      KS$HNDLR.NPARAMI-1));
     1478    12081    7                             PTR$ = PINCRW(PTR$,(KS$HNDLR.IPARAM.ARRAY_SZ(KS$HNDLR.
             12081                                      NPARAMI - 1) + 2)/2);
     1479    12082    7                             END;
     1480    12083    7                        ELSE DO;
     1481    12084    7                          PTR$ = ADDR(HNDLR_BUF);
     1482    12085    7                          PTR$ = PINCRW(PTR$,SIZEW(KS_HANDLER)+1);
     1483    12086    7                        END;
     1484    12087    6                    CALL KSU$WRITE_NETCON (VECTOR(KS_HANDLER_KEY),
     1485    12088    6                                           VECTOR(HNDLR_BUF),
     1486    12089    6                                           POFFC(PTR$,ADDR(HNDLR_BUF))-1);
     1487    12090    6                 END;
     1488    12091    5           END;   /* Change handlers */
     1489    12092
     1490    12093
     1491    12094             /* Delete any handler records that were not reset */
     1492    12095    4   DELETE_UNUSED_HAND_REC:
     1493    12096    5           DO J = 0 TO OLD_NRHAND - 1;
     1494    12097    5              HANDLER_FOUND = '0'B;
     1495    12098    5   FIND_HANDLER2:
     1496    12099    6              DO K = 0 TO KS_FEPHNDLR.NHANDLERS - 1;
     1497    12100    6                 IF OLD_HANDLER(J) = KS_FEPHNDLR.HANDLER(K) THEN
     1498    12101    7                    DO;
     1499    12102    7                       HANDLER_FOUND = '1'B;
     1500    12103    7                       EXIT FIND_HANDLER2;
     1501    12104    7                    END;
     1502    12105    6              END;
     1503    12106
     1504    12107    5              IF NOT HANDLER_FOUND THEN
     1505    12108    6                 DO;
PL6.E3A0      #004=KSC$SET File=KSC$COMMANDS1.:E05TSI                            WED 07/30/97 01:45 Page:209
     1506    12109    6                    KS_HANDLER_KEY.HNDLR = OLD_HANDLER(J);
     1507    12110    6                    DELREC_NETCON.KEY_ = VECTOR(KS_HANDLER_KEY);
     1508    12111    6                    CALL M$DELREC (DELREC_NETCON);
     1509    12112    6                    KS_DEFAULT_KEY.NODE = KS_NODE;
     1510    12113    6                    KS_DEFAULT_KEY.HNDLR = OLD_HANDLER(J);
     1511    12114    6                    DELREC_NETCON.KEY_ = VECTOR(KS_DEFAULT_KEY);
     1512    12115    6                    CALL M$DELREC (DELREC_NETCON);
     1513    12116    6                 END;
     1514    12117    5              IF J > KS_FEPHNDLR.NHANDLERS - 1 THEN
     1515    12118    5                 KS_FEPHNDLR.HANDLER(J) = ' ';
     1516    12119    5           END;
     1517    12120
     1518    12121             /* Remove blank handler names from KS_FEPHNDLR */
     1519    12122
     1520    12123    4           K = 0;
     1521    12124    4           J = KS_FEPHNDLR.NHANDLERS;
     1522    12125    5           DO I = 0 TO J - 1;
     1523    12126    5              IF KS_FEPHNDLR.HANDLER(I) ~= ' ' THEN
     1524    12127    6                 DO;
     1525    12128    6                    IF K ~= I THEN
     1526    12129    7                       DO;
     1527    12130    7                          KS_FEPHNDLR.HANDLER(K) = KS_FEPHNDLR.HANDLER(I);
     1528    12131    7                          KS_FEPHNDLR.BOOTIME(K) = KS_FEPHNDLR.BOOTIME(I);
     1529    12132    7                       END;
     1530    12133    6                    K = K + 1;
     1531    12134    6                 END;
     1532    12135    5           END;
     1533    12136    4           KS_FEPHNDLR.NHANDLERS = K;
     1534    12137
     1535    12138    4           IF KS_FEPHNDLR.HANDLER(0) ~= 'NODEADMN' THEN
     1536    12139    4              CALL KSE$ERRMSG (%E$KS_NODEADMN_NOT_FIRST);
     1537    12140                   /*E* ERROR:   KSN-E$KS_NODEADMN_NOT_FIRST-0
     1538    12141                        MESSAGE: Warning -- NODEADMN is not user# 1 */
     1539    12142
     1540    12143
     1541    12144    4   BUILD_DEFAULTS:
     1542    12145    5           DO I = 0 TO KS_FEPHNDLR.NHANDLERS - 1;
PL6.E3A0      #004=KSC$SET File=KSC$COMMANDS1.:E05TSI                            WED 07/30/97 01:45 Page:210
     1543    12146    5              KS_DEFAULT_KEY.HNDLR = KS_FEPHNDLR.HANDLER(I);
     1544    12147    5              KS_DEFAULT_KEY.NODE = KS_NODE;
     1545    12148    5              CALL KSU$READ_NETCON (VECTOR(KS_DEFAULT_KEY),VECTOR(KS_DEFAULT_REC))
     1546    12149    6                 WHENALTRETURN DO;
     1547    12150    6                    CALL KSU$INIT_DEFCNFG (KS_DEFAULT_REC);
     1548    12151    6                    CALL KSU$WRITE_NETCON (VECTOR(KS_DEFAULT_KEY),VECTOR(KS_DEFAULT_REC
             12151                             ));
     1549    12152    6                 END;
     1550    12153    5           END BUILD_DEFAULTS;
     1551    12154
     1552    12155             /* Get new library fid */
     1553    12156    4              CALL INDEX (K,' ',KS_FEPHNDLR.DEFLIBACCT);
     1554    12157    4              TEXTC.COUNT = K;
     1555    12158    4              TEXTC.TEXT = SUBSTR(KS_FEPHNDLR.DEFLIBACCT,0,K);
     1556    12159    4              CALL KSW$WRITE(VECTOR(LIBACCT),VECTOR(TEXTC));
     1557    12160    4                 CALL XUR$GETCMD(KS_LIB,TOP2$,VECTOR(EQUALS));
     1558    12161    4                 IF TOP2$->OUT$BLK.NSUBLKS ~= 0 THEN
     1559    12162    4                    KS_FEPHNDLR.DEFLIBACCT = TOP2$->OUT$BLK.SUBLK$(0)->OUT$SYM.TEXT;
     1560    12163
     1561    12164    4                 RECORD_SIZE = SIZEC(KS_FEPHNDLR.NHANDLERS) + SIZEC(KS_FEPHNDLR.
             12164                          DEFLIBACCT)
     1562    12165    4                    + 4 + (SIZEC(KS_FEPHNDLR.HANDLER(0)) * KS_FEPHNDLR.NHANDLERS) - 1;
     1563    12166    4                 CALL KSU$WRITE_NETCON (VECTOR(KS_FEPHNDLR_KEY),
     1564    12167    4                                        VECTOR(KS_FEPHNDLR),
     1565    12168    4                                        RECORD_SIZE) ALTRET(SET_ERR);
     1566    12169    4                 PROMPT.NODENAME = KS_NODENAME;
     1567    12170    4                  P_PCB.OUT$ = ADDR(KS_CMD);
     1568    12171    4                  EXIT DOI;
     1569    12172    4              END;    /* no options on the set boot command */
     1570    12173        %EJECT;
PL6.E3A0      #004=KSC$SET File=KSC$COMMANDS1.:E05TSI                            WED 07/30/97 01:45 Page:211
     1571    12174    3              CASE(%KS_PARAM);
     1572    12175    3                 PARMTYPE = BLK$->OUT$BLK.SUBLK$(0)->OUT$BLK.CODE;
     1573    12176    3                 PARMX = BLK$->OUT$BLK.SUBLK$(0)->OUT$BLK.SUBLK$(0)->OUT$BLK.CODE;
     1574    12177    3                 KS_SUB_BUF_1.COUNT = KS_TBL(PARMTYPE)->KS$PARAM.TEXTNAME(PARMX) ->
             12177                          NAME.L#;
     1575    12178    3                 KS_SUB_BUF_1.TEXT = KS_TBL(PARMTYPE)->KS$PARAM.TEXTNAME(PARMX) -> NAME
             12178                          .NAME#;
     1576    12179
     1577    12180                      /*N* For D00 politely tell the user there is no NSHUF.
     1578    12181                           Delete this here and in KSC$DISPLAY for E00.  Also
     1579    12182                           take NSHUF out of the nodes and change NSHUF to
     1580    12183                           SPARE in the tables. */
     1581    12184    3                 IF PARMTYPE = %KS_BOOT_PARAM AND PARMX = %GI_BOOT_NSHUF THEN
     1582    12185    4                    DO;
     1583    12186    4                       CALL KSE$ERRMSG (%E$KS_NO_MORE_NSHUF);
     1584    12187                            /*E* ERROR: KSN-E$KS_NO_MORE_NSHUF-0
     1585    12188                                 MESSAGE: NSHUF is no longer a parameter. */
     1586    12189    4                       GOTO END_LOOP;
     1587    12190    4                    END;
     1588    12191    3                 IF KS_TBL(PARMTYPE)->KS$PARAM.FLAGS.DISPONLY(PARMX) THEN
     1589    12192    4                    DO;
     1590    12193    4                       CALL KSE$ERRMSG(%E$KS_DISPONLY,VECTOR(KS_SUB_BUF_1));
     1591    12194                            /*E* ERROR: KSN-E$KS_DISPONLY-0
     1592    12195                                 MESSAGE: %U1 is for display only.
     1593    12196                                 DESCRIPTION: SEE MESSAGE  */
     1594    12197    4                       GOTO END_LOOP;
     1595    12198    4                    END;
     1596    12199
     1597    12200    3                 NUM_INDX = 1;
     1598    12201    3                 INDX_VEC(0) = 0;
     1599    12202
     1600    12203
     1601    12204    3                 IF PARMTYPE = %KS_HNDLR_PARAM THEN
     1602    12205    4                    DO;
     1603    12206    4                       IF KS_HNDLRNAME = ' ' THEN
     1604    12207    5                          DO;
     1605    12208    5                             CALL KSE$ERRMSG (%E$KS_NOHANDLER_SET);
PL6.E3A0      #004=KSC$SET File=KSC$COMMANDS1.:E05TSI                            WED 07/30/97 01:45 Page:212
     1606    12209                                  /*E* ERROR: KSN-E$KS_NOHANDLER_SET-0
     1607    12210                  MESSAGE: A handler must be selected in order to set a handler parameter.*/
     1608    12211    5                             GOTO SET_ERR;
     1609    12212    5                          END;
     1610    12213    4                       ELSE
     1611    12214    4                          PARMTYPE = PARMTYPE + KS_HNDLRINDX;
     1612    12215    4                 KS_SUB_BUF_1.COUNT = KS_TBL(%KS_HNDLR_PARAM)->KS$PARAM.TEXTNAME(PARMX)
             12215                          -> NAME.L#;
     1613    12216    4                 KS_SUB_BUF_1.TEXT = KS_TBL(%KS_HNDLR_PARAM)->KS$PARAM.TEXTNAME(PARMX)
             12216                          -> NAME.NAME#;
     1614    12217    4                 KS_SUB_BUF_2.COUNT = SIZEC(KS_HNDLRNAME);
     1615    12218    4                 KS_SUB_BUF_2.TEXT = KS_HNDLRNAME;
     1616    12219    4                 KS_SUB_BUF_3.COUNT = SIZEC(KS_NODENAME);
     1617    12220    4                 KS_SUB_BUF_3.TEXT = KS_NODENAME;
     1618    12221    4                 IF NOT(ADDR(KS_TBL(%KS_HNDLR_PARAM)->KS$PARAM.HND(PARMX)) -> HND.DAT(
             12221                          KS_HNDLRINDX)) THEN
     1619    12222    5                    DO;
     1620    12223    5                    CALL KSE$ERRMSG(%E$KS_ILGSET,VECTOR(KS_SUB_BUF_1),VECTOR(
             12223                             KS_SUB_BUF_2));
     1621    12224                         /*E* ERROR: KSN-E$KS_ILGSET
     1622    12225                         MESSAGE: %U1 is not legal for handler %U2
     1623    12226                              DESCRIPTION: SEE MESSAGE */
     1624    12227    5                    NUM_INDX = 0; /* keeps code from looping thru speed index */
     1625    12228    5                    GOTO SET_ERR;
     1626    12229    5                    END;  /* parameter not legal for this parameter */
     1627    12230    5                 IF KS_TBL(PARMTYPE)->KS$PARAM.FLAGS.INDX(PARMX) THEN DO;
     1628    12231    5                    PTR$ = BLK$->OUT$BLK.SUBLK$(0)->OUT$BLK.SUBLK$(0)->OUT$BLK.SUBLK$(0
             12231                             );
     1629    12232    5                    IF PARMX = %KL_HNDLRPARM_USRPARM1 OR
     1630    12233    5                       PARMX = %KL_HNDLRPARM_USRPARM2 THEN
     1631    12234    6                          DO;
     1632    12235    6                          NUM_INDX = 1;
     1633    12236    6                          INDX_VEC(0) = PTR$->OUT$BLK.CODE;
     1634    12237    6                          END;
     1635    12238    5                    ELSE
     1636    12239    6                       DO;
     1637    12240    7                    DO CASE(PTR$->OUT$BLK.CODE);
PL6.E3A0      #004=KSC$SET File=KSC$COMMANDS1.:E05TSI                            WED 07/30/97 01:45 Page:213
     1638    12241    7                       CASE(%KS_SPEED_LIST);
     1639    12242    7                          NUM_INDX = PTR$->OUT$BLK.NSUBLKS;
     1640    12243    8                          DO J = 0 TO PTR$-> OUT$BLK.NSUBLKS - 1;
     1641    12244    8                             INDX_VEC(J) = PTR$->OUT$BLK.SUBLK$(J)->OUT$BLK.CODE;
     1642    12245    8                             END;  /* DO J */
     1643    12246    7                       CASE(%KS_SPEED_RANGE);
     1644    12247    7                          TEMP1 = PTR$->OUT$BLK.SUBLK$(0)->OUT$BLK.CODE;
     1645    12248    7                          TEMP2 = PTR$->OUT$BLK.SUBLK$(1)->OUT$BLK.CODE;
     1646    12249    7                          NUM_INDX = 0;
     1647    12250    8                          DO J = TEMP1 TO TEMP2;
     1648    12251    8                             INDX_VEC(NUM_INDX) = J;
     1649    12252    8                             NUM_INDX = NUM_INDX + 1;
     1650    12253    8                             END;  /* DO J */
     1651    12254    7                       CASE(%KS_SPEED_ALL);
     1652    12255    7                          NUM_INDX = %KS_SPEED_19200 + 1;
     1653    12256    8                          DO J = %KS_SPEED_50 TO %KS_SPEED_19200;
     1654    12257    8                             INDX_VEC(J) = J;
     1655    12258    8                             END;  /* DO J */
     1656    12259    7                       END;  /* DO CASE */
     1657    12260    6                    END;  /* else parmx = usrparm1 or usrparm2 */
     1658    12261    5                    END;  /* IF FLAGS.INDX */
     1659    12262    4                    END;
     1660    12263    4                 DO K = 0 TO NUM_INDX - 1;
     1661    12264    4                    INDX = INDX_VEC(K);
     1662    12265    4                    RCVCQ_SNDCQ = '0'B;
     1663    12266    4                    PTR$ = BLK$->OUT$BLK.SUBLK$(1);
     1664    12267    5                    DO CASE(PTR$->OUT$BLK.CODE);
     1665    12268    5                       CASE(%KS_DECVAL);
     1666    12269    5                          CALL CHARBIN(VALUE,PTR$->OUT$SYM.TEXT);
     1667    12270    5                          IF PARMTYPE >= %KS_HNDLR_PARAM AND
     1668    12271    5                             (PARMX = %KL_HNDLRPARM_RCVCQBYTSIZ OR
     1669    12272    5                              PARMX = %KL_HNDLRPARM_SNDCQBYTSIZ) THEN
     1670    12273    6                             DO;
     1671    12274    6                                VALUE = VALUE / 2;
     1672    12275    6                                RCVCQ_SNDCQ = '1'B;
     1673    12276    6                             END;
     1674    12277    5                       CASE(%KS_HEXVAL);
PL6.E3A0      #004=KSC$SET File=KSC$COMMANDS1.:E05TSI                            WED 07/30/97 01:45 Page:214
     1675    12278    5                          VALUE = 0;
     1676    12279    6                          DO J = 0 TO PTR$->OUT$BLK.SUBLK$(0)->OUT$SYM.COUNT - 1;
     1677    12280    6                             HEX_CHAR = SUBSTR(PTR$->OUT$BLK.SUBLK$(0)->OUT$SYM.TEXT,J,
             12280                                      1);
     1678    12281    6                             CALL INDEX(HEX_DIGIT,HEX_CHAR,HEX_DIGITS);
     1679    12282    6                             VALUE = VALUE * 16 + HEX_DIGIT;
     1680    12283    6                             END;  /* DO J */
     1681    12284    5                       CASE(%KS_RESVAL);
     1682    12285    5                          VALUE = 0;
     1683    12286    5                          VALUEC.RES = PTR$->OUT$SYM.TEXT;
     1684    12287    5                       END;  /* DO CASE */
     1685    12288    5                    DO CASE(PARMTYPE);
     1686    12289    5                       CASE(%KS_BOOT_PARAM);
     1687    12290    5                       KS_FEPBOOT_KEY.NODE = KS_NODE;
     1688    12291    5                          READ_NETCON.KEY_ = VECTOR(KS_FEPBOOT_KEY);
     1689    12292    5                          READ_NETCON.BUF_ = VECTOR(KS_FEPBOOT);
     1690    12293    5                          CALL M$READ(READ_NETCON) ALTRET(UPD_NETCON_ERR);
     1691    12294    5                          KS_FEPBOOT.BOOTPARAMS(PARMX+INDX) = VALUE;
     1692    12295    5                          WRITE_NETCON.KEY_ = VECTOR(KS_FEPBOOT_KEY);
     1693    12296    5                          WRITE_NETCON.BUF_ = VECTOR(KS_FEPBOOT);
     1694    12297    5                          CALL M$WRITE(WRITE_NETCON) ALTRET(UPD_NETCON_ERR);
     1695    12298    5                          CALL KSW$WRITE(WRITE_SUCCESSFULL_VEC,VECTOR(KS_SUB_BUF_1),
             12298                                   VECTOR(NETCON));
     1696    12299    5                          GOTO END_LOOP;
     1697    12300    5                       CASE(%KS_LCP6_PARAM);
     1698    12301    5                          KS_CONTROL.HANDLER = 'BABOON';
     1699    12302    5                       CASE(ELSE);
     1700    12303    5                          KS_CONTROL.HANDLER = KS_HNDLRNAME;
     1701    12304    5                       END;  /* DO CASE */
     1702    12305    4                       IF NOT (KS_TBL(PARMTYPE)->KS$PARAM.FLAGS.SPECIAL(PARMX)) THEN
     1703    12306    5                          DO;
     1704    12307    5                          IF VALUE > KS_TBL(PARMTYPE) -> KS$PARAM.MAX(PARMX) OR
     1705    12308    6                             VALUE < KS_TBL(PARMTYPE) -> KS$PARAM.MIN(PARMX) THEN DO;
     1706    12309    6                                IF RCVCQ_SNDCQ THEN
     1707    12310    7                                   DO;
     1708    12311    7                                      CALL KSU$STRIP_ZEROS (KS_TBL(PARMTYPE)->KS$PARAM.
             12311                                               MAX(PARMX)*2,KS_SUB_BUF_2.TEXT,KS_SUB_BUF_2.
PL6.E3A0      #004=KSC$SET File=KSC$COMMANDS1.:E05TSI                            WED 07/30/97 01:45 Page:215
             12311                                               COUNT);
     1709    12312    7                                      CALL KSU$STRIP_ZEROS (KS_TBL(PARMTYPE)->KS$PARAM.
             12312                                               MIN(PARMX)*2,KS_SUB_BUF_3.TEXT,KS_SUB_BUF_3.
             12312                                               COUNT);
     1710    12313    7                                   END;
     1711    12314    6                                ELSE
     1712    12315    7                                   DO;
     1713    12316    7                                      CALL KSU$STRIP_ZEROS (KS_TBL(PARMTYPE)->KS$PARAM.
             12316                                               MAX(PARMX),KS_SUB_BUF_2.TEXT,KS_SUB_BUF_2.
             12316                                               COUNT);
     1714    12317    7                                      CALL KSU$STRIP_ZEROS (KS_TBL(PARMTYPE)->KS$PARAM.
             12317                                               MIN(PARMX),KS_SUB_BUF_3.TEXT,KS_SUB_BUF_3.
             12317                                               COUNT);
     1715    12318    7                                   END;
     1716    12319    6                                KS_SUB_BUF_4.COUNT = SIZEC(KS_HNDLRNAME);
     1717    12320    6                                KS_SUB_BUF_4.TEXT  = KS_HNDLRNAME;
     1718    12321    6                                CALL KSE$ERRMSG(%E$KS_BADPRMVAL,VECTOR(KS_SUB_BUF_4),
             12321                                         VECTOR(KS_SUB_BUF_2),VECTOR(KS_SUB_BUF_3));
     1719    12322                                     /*E* ERROR: KSN-E$KS_BADPRMVAL-0
     1720    12323                                          MESSAGE: Specified value is outside of bounds
     1721    12324                                          %U3 to %U2, set for this parameter on handler %U1.
     1722    12325                               DESCRIPTION: VALUE LARGER/SMALLER THEN SPECIFIED MAX/MIN.  */
     1723    12326    6                                GOTO SET_ERR;
     1724    12327    6                             END;
     1725    12328    5                          END;
     1726    12329    4                    IF (BLK$->OUT$BLK.NSUBLKS = 3) THEN
     1727    12330    4                       PERM_PARM = BLK$->OUT$BLK.SUBLK$(2)->OUT$BLK.SUBLK$(0)->OUT$BLK.
             12330                                CODE;
     1728    12331    4                    ELSE
     1729    12332    4                       PERM_PARM = KS_SELPRMOPT;
     1730    12333
     1731    12334    4                    IF PERM_PARM = %KS_TEMP OR PERM_PARM = %KS_PERM THEN
     1732    12335    5                       DO;
     1733    12336    5                    KS_CONTROL.CMD = %KL_CONTROL_SET;
     1734    12337    5                    KS_CONTROL.PARMX = PARMX;
     1735    12338    5                    KS_CONTROL.INDX = INDX;
     1736    12339    5   IF PTR$->OUT$BLK.CODE = %KS_DECVAL OR PTR$->OUT$BLK.CODE = %KS_HEXVAL THEN
PL6.E3A0      #004=KSC$SET File=KSC$COMMANDS1.:E05TSI                            WED 07/30/97 01:45 Page:216
     1737    12340    5                       CALL KSU$UNPACK (VALUE,KS_CONTROL.VALUE);
     1738    12341    5                    ELSE
     1739    12342    5                       KS_CONTROL.VALUE = VALUE;
     1740    12343    5                    CALL KSR$WR_HLPCG(VECTOR(KS_CONTROL)) ALTRET(UPDATE_FILE);
     1741    12344    5                    CALL KSR$RD_HLPCG ('0'B)
     1742    12345    6                       WHENRETURN DO;
     1743    12346    6                          CALL KSW$WRITE(WRITE_SUCCESSFULL_VEC,VECTOR(KS_SUB_BUF_1),
             12346                                   VECTOR(FEP));
     1744    12347                                    /*E* ERROR: KSN-E$KS_PARMSET-0
     1745    12348                                         MESSAGE: %U1 set successfully.*/
     1746    12349    6                       END;
     1747    12350    6                       WHENALTRETURN DO;
     1748    12351    7                          DO SELECT (KS$HDR.RESULTS.ERR#);
     1749    12352    7                             SELECT (%E$NODENA);
     1750    12353    7                                CALL XUR$ERRMSG(KS_HDR.RESULTS);
     1751    12354    7                             SELECT (%E$NOHANDLER);
     1752    12355    7                                IF PARMTYPE = %KS_NODEADMN_PARAM THEN
     1753    12356    7                                   CALL KSE$ERRMSG(%E$KS_INIT_ONLY,
     1754    12357    7                                      VECTOR(KS_SUB_BUF_1));
     1755    12358                                        /*E* ERROR: KSN-E$KS_INIT_ONLY-0
     1756    12359                                            MESSAGE: %U1 is only settable at initialization.
     1757    12360           MESSAGE1: This parameter is not allowed to be set while the handler is running.*/
     1758    12361    7                                ELSE
     1759    12362    7                                   CALL XUR$ERRMSG(KS_HDR.RESULTS);
     1760    12363    7                             SELECT (%E$PARM_INITONLY);
     1761    12364    7                                CALL KSE$ERRMSG (%E$KS_INIT_ONLY,VECTOR(KS_SUB_BUF_1));
     1762    12365    7                             SELECT (%E$PARM_UNDEF);
     1763    12366    7                                CALL KSE$ERRMSG (%E$KS_ILGSET,VECTOR(KS_SUB_BUF_1),
             12366                                         VECTOR(KS_SUB_BUF_2));
     1764    12367    7                                GOTO SET_ERR;
     1765    12368    7                          END;
     1766    12369    6                       END;
     1767    12370    5                       END;  /* not disponly and ( perm or term ) */
     1768    12371    4   UPDATE_FILE:     IF PERM_PARM = %KS_FILE OR PERM_PARM = %KS_PERM THEN
     1769    12372    5                      DO; /* update :NETCON FILE */
     1770    12373    6                       DO CASE(PARMTYPE);
     1771    12374    6                          CASE(%KS_LCP6_PARAM);
PL6.E3A0      #004=KSC$SET File=KSC$COMMANDS1.:E05TSI                            WED 07/30/97 01:45 Page:217
     1772    12375    6                          KS_FEPCTL_KEY.NODE = KS_NODE;
     1773    12376    6                             READ_NETCON.KEY_ = VECTOR(KS_FEPCTL_KEY);
     1774    12377    6                             READ_NETCON.BUF_ = VECTOR(KS_FEPCTL);
     1775    12378    6                             CALL M$READ(READ_NETCON) ALTRET(UPD_NETCON_ERR);
     1776    12379    6                             KS_FEPCTL.PARAMS(PARMX) = VALUE;
     1777    12380    6                             WRITE_NETCON.KEY_ = VECTOR(KS_FEPCTL_KEY);
     1778    12381    6                             WRITE_NETCON.BUF_ = VECTOR(KS_FEPCTL);
     1779    12382    6                             CALL M$WRITE(WRITE_NETCON) ALTRET(UPD_NETCON_ERR);
     1780    12383    6                          CALL KSW$WRITE(WRITE_SUCCESSFULL_VEC,VECTOR(KS_SUB_BUF_1),
             12383                                   VECTOR(NETCON));
     1781    12384    6                          CASE(ELSE);
     1782    12385    6                          KS_HANDLER_KEY.NODE = KS_NODE;
     1783    12386    6                             KS_HANDLER_KEY.HNDLR = KS_HNDLRNAME;
     1784    12387    6                             CALL KSU$READ_NETCON(VECTOR(KS_HANDLER_KEY),VECTOR(
             12387                                      HNDLR_BUF))
     1785    12388    7                                WHENALTRETURN DO;
     1786    12389    7                                   CALL KSE$ERRMSG(%E$KS_HAND_NOT_DEF,VECTOR(
             12389                                            KS_SUB_BUF_2),VECTOR(KS_SUB_BUF_3));
     1787    12390    7                                   GOTO SET_ERR;
     1788    12391    7                                END;
     1789    12392    6                             IF KS_TBL(PARMTYPE)->KS$PARAM.FLAGS.INDX(PARMX) THEN
     1790    12393    7                                DO;
     1791    12394    7                                INDX_R = PARMX - %KL_HNDLRPARM_BLOCK;
     1792    12395    7                                IF KS$HNDLR.NPARAMI <= INDX_R THEN
     1793    12396    8                                   DO;
     1794    12397    8                                   IF KS$HNDLR.IPARAM.ARRAY_SZ(INDX_R) > INDX THEN
     1795    12398    9                                      DO;
     1796    12399    9                                      KS$HNDLR.IPARAM.ARRAY_SZ(INDX_R) = INDX;
     1797    12400    9                                      END;
     1798    12401    8                                   END;
     1799    12402
     1800    12403    7                                PTR$ = ADDR(HNDLR_BUF);
     1801    12404    7                                PTR$ = PINCRW(PTR$,KS$HNDLR.IPARAM.OFFSET(INDX_R));
     1802    12405    7                                PTR$->VALUE_B(INDX) = VALUE;
     1803    12406    7                                END;
     1804    12407    7                             ELSE DO;
     1805    12408    7                                PTR$ = ADDR(HNDLR_BUF);
PL6.E3A0      #004=KSC$SET File=KSC$COMMANDS1.:E05TSI                            WED 07/30/97 01:45 Page:218
     1806    12409    7                                KS$HNDLR.PARAMS(PARMX) = VALUE;
     1807    12410    7                                END;
     1808    12411
     1809    12412        /*
     1810    12413                Now figure out the size of the structure and (if possible)
     1811    12414                write it back out to the :NETCON file
     1812    12415        */
     1813    12416
     1814    12417        /*
     1815    12418                   sz = number of elements in array * size of each element
     1816    12419                        + 4 bytes for the offset.
     1817    12420        */
     1818    12421
     1819    12422    6                             WRITE_NETCON.KEY_ = VECTOR(KS_HANDLER_KEY);
     1820    12423    6                             WRITE_NETCON.BUF_ = VECTOR(HNDLR_BUF);
     1821    12424    6                             IF KS$HNDLR.NPARAMI > 0 THEN
     1822    12425    7                                DO;
     1823    12426    7                                PTR$ = PINCRW(ADDR(HNDLR_BUF),KS$HNDLR.IPARAM.OFFSET(
             12426                                         KS$HNDLR.NPARAMI - 1));
     1824    12427    7                                PTR$ = PINCRW(PTR$,(KS$HNDLR.IPARAM.ARRAY_SZ(KS$HNDLR.
             12427                                         NPARAMI - 1) + 2)/2);
     1825    12428    7                                END;
     1826    12429    7                             ELSE DO;
     1827    12430    7                                PTR$ = ADDR(HNDLR_BUF);
     1828    12431    7                                PTR$ = PINCRW(PTR$,SIZEW(KS_HANDLER)+1);
     1829    12432    7                             END;
     1830    12433    6                             WRITE_NETCON.BUF_.BOUND = POFFC(PTR$,ADDR(HNDLR_BUF)) - 1;
     1831    12434    6                             CALL M$WRITE(WRITE_NETCON) ALTRET(UPD_NETCON_ERR);
     1832    12435    6                          CALL KSW$WRITE(WRITE_SUCCESSFULL_VEC,VECTOR(KS_SUB_BUF_1),
             12435                                   VECTOR(NETCON));
     1833    12436                                  /*E* ERROR: KSN-E$KS_WRITEOK-0
     1834    12437                                       MESSAGE: %U1 successfully written to :NETCON
     1835    12438                                       DESCRIPTION: SEE MESSAGE */
     1836    12439    6                          END;  /* DO CASE(PARMTYPE) */
     1837    12440    6                       DO WHILE('0'B);
     1838    12441    6      UPD_NETCON_ERR:     CALL KSE$ERRMSG(0);
     1839    12442    6                          CALL KSE$ERRMSG(%E$KS_NETCON_ERR);
PL6.E3A0      #004=KSC$SET File=KSC$COMMANDS1.:E05TSI                            WED 07/30/97 01:45 Page:219
     1840    12443                               /*E* ERROR: KSN-E$KS_NETCON_ERR-0
     1841    12444                                    MESSAGE: Unable to access :NETCON.  The value set
     1842    12445                                             will not be restored when the node is rebooted.
     1843    12446                                    DESCRIPTION: COULDN'T GET TO :NETCON.  */
     1844    12447    6                          END;  /* DO NEVER */
     1845    12448    5                       END;  /* IF UPDATE :NETCON */
     1846    12449    5                    DO WHILE('0'B);
     1847    12450    5      SET_ERR:         CALL KSE$ERRMSG(%E$KS_CANTSETPARM,VECTOR(KS_SUB_BUF_1));
     1848    12451                            /*E* ERROR: KSN-E$KS_CANTSETPARM-0
     1849    12452                                 MESSAGE: Unable to set %U1.
     1850    12453                                 DESCRIPTION: SEE MESSAGE */
     1851    12454    5                       PROMPT.NODENAME = KS_NODENAME;
     1852    12455    5                       END;  /* DO NEVER */
     1853    12456    4                    END;  /* DO K */
     1854    12457        %EJECT;
PL6.E3A0      #004=KSC$SET File=KSC$COMMANDS1.:E05TSI                            WED 07/30/97 01:45 Page:220
     1855    12458    3              CASE(%KS_PSEUDO);
     1856    12459    3                 KS_PSEUDO_KEY.NODE = KS_NODE;
     1857    12460    3                 READ_NETCON.KEY_ = VECTOR(KS_PSEUDO_KEY);
     1858    12461    3                 READ_NETCON.BUF_ = VECTOR(KS_PSEUDO);
     1859    12462    3                 CALL M$READ(READ_NETCON) WHENALTRETURN
     1860    12463    4                    DO;
     1861    12464    4                    IF B$TCB$->B$TCB.ALT$->B$ALT.ERR.CODE ~= %E$NOKEY THEN
     1862    12465    4                       GOTO PSEUDO_SET_ERR;
     1863    12466    4                    KS_PSEUDO = '0'B;
     1864    12467    4                    END;  /* when altreturn on READ  */
     1865    12468
     1866    12469        /*
     1867    12470                   Quickly,  If no PSEUDOs exists with that name, then stuff
     1868    12471                   the record with the info off the parse tree.  If a PSEUDO
     1869    12472                   does exist with that name then just update and rewrite to
     1870    12473                   :NETCON.
     1871    12474        */
     1872    12475
     1873    12476    3              T_PSEUDO# = -1;
     1874    12477    4   PSEDO_SRCH: DO J = 0 TO KS_PSEUDO.PSEUDO#-1;
     1875    12478    4                 IF KS_PSEUDO.PSEUDO.NAME(J) = BLK$->OUT$BLK.SUBLK$(0)->OUT$SYM.TEXT
             12478                          THEN
     1876    12479    5                    DO;
     1877    12480    5                    T_PSEUDO# = J;
     1878    12481    5                    EXIT PSEDO_SRCH;
     1879    12482    5                    END;
     1880    12483    4              END;  /*  do j  */
     1881    12484
     1882    12485        /*
     1883    12486                   if j is greater then maxpseudos then too many pseudos
     1884    12487        */
     1885    12488
     1886    12489    3              IF J > %KS_MAX_PSEUDO THEN
     1887    12490    3                 GOTO TOO_MANY_PSEUDO;
     1888    12491
     1889    12492        /*
     1890    12493                   if j=-1 then the pseudo does not exist in the record
PL6.E3A0      #004=KSC$SET File=KSC$COMMANDS1.:E05TSI                            WED 07/30/97 01:45 Page:221
     1891    12494        */
     1892    12495
     1893    12496    3              IF T_PSEUDO# = -1 THEN
     1894    12497    4                 DO;
     1895    12498    4                 KS_PSEUDO.PSEUDO.NAME(KS_PSEUDO.PSEUDO#) = BLK$->OUT$BLK.SUBLK$(0)->
             12498                          OUT$SYM.TEXT;
     1896    12499    4                 T_PSEUDO# = KS_PSEUDO.PSEUDO#;
     1897    12500    4                 KS_PSEUDO.PSEUDO# = KS_PSEUDO.PSEUDO# + 1;
     1898    12501    4                 END;  /*  if no pseudo defined  */
     1899    12502
     1900    12503        /*
     1901    12504                at this point whether the pseudo existed or not does not
     1902    12505                matter.  The code continues in such a way as to treat both
     1903    12506                cases the same.  All of the sub-blocks are evaluated and
     1904    12507                and placed into the record as specified.
     1905    12508        */
     1906    12509
     1907    12510    4                 DO K= 1 TO BLK$->OUT$BLK.NSUBLKS - 1;
     1908    12511    4                    SUBLK$ = BLK$->OUT$BLK.SUBLK$(K);
     1909    12512    5                    DO CASE(SUBLK$->OUT$BLK.CODE);
     1910    12513
     1911    12514    5                       CASE(%KS_MAXC);
     1912    12515    5                          IF  SUBLK$->OUT$BLK.SUBLK$(0)->OUT$SYM.COUNT > %KS_MAX_HALF
             12515                                   THEN GOTO TOO_BIG;
     1913    12516    5                          CALL CHARBIN(TEMP1,SUBLK$->OUT$BLK.SUBLK$(0)->OUT$SYM.TEXT);
     1914    12517    5                          KS_PSEUDO.PSEUDO.MAX_CG(T_PSEUDO#) = TEMP1;
     1915    12518
     1916    12519    5                       CASE(%KS_MAXH);
     1917    12520    5                          IF  SUBLK$->OUT$BLK.SUBLK$(0)->OUT$SYM.COUNT > %KS_MAX_HALF
             12520                                   THEN GOTO TOO_BIG;
     1918    12521    5                          CALL CHARBIN(TEMP1,SUBLK$->OUT$BLK.SUBLK$(0)->OUT$SYM.TEXT);
     1919    12522    5                          KS_PSEUDO.PSEUDO.MAX_HAND(T_PSEUDO#) = TEMP1;
     1920    12523    5                       CASE(%KS_MAXG);
     1921    12524    5                          IF  SUBLK$->OUT$BLK.SUBLK$(0)->OUT$SYM.COUNT > %KS_MAX_HALF
             12524                                   THEN GOTO TOO_BIG;
     1922    12525    5                          CALL CHARBIN(TEMP1,SUBLK$->OUT$BLK.SUBLK$(0)->OUT$SYM.TEXT);
     1923    12526    5                          KS_PSEUDO.PSEUDO.MAX_GHST(T_PSEUDO#) = TEMP1;
PL6.E3A0      #004=KSC$SET File=KSC$COMMANDS1.:E05TSI                            WED 07/30/97 01:45 Page:222
     1924    12527
     1925    12528    5                       CASE(%KS_MAXS);
     1926    12529    5                          IF  SUBLK$->OUT$BLK.SUBLK$(0)->OUT$SYM.COUNT > %KS_MAX_HALF
             12529                                   THEN GOTO TOO_BIG;
     1927    12530    5                          CALL CHARBIN(TEMP1,SUBLK$->OUT$BLK.SUBLK$(0)->OUT$SYM.TEXT);
     1928    12531    5                          KS_PSEUDO.PSEUDO.MAX_SYS(T_PSEUDO#) = TEMP1;
     1929    12532
     1930    12533    5                       CASE(%KS_MAXU);
     1931    12534    5                          IF  SUBLK$->OUT$BLK.SUBLK$(0)->OUT$SYM.COUNT > %KS_MAX_HALF
             12534                                   THEN GOTO TOO_BIG;
     1932    12535    5                          CALL CHARBIN(TEMP1,SUBLK$->OUT$BLK.SUBLK$(0)->OUT$SYM.TEXT);
     1933    12536    5                          KS_PSEUDO.PSEUDO.MAX_USR(T_PSEUDO#) = TEMP1;
     1934    12537    5                       END;  /* case on subnodes  */
     1935    12538    4                 END;  /*  do k  */
     1936    12539
     1937    12540    3              WRITE_NETCON.KEY_ = VECTOR(KS_PSEUDO_KEY);
     1938    12541    3              WRITE_NETCON.BUF_ = VECTOR(KS_PSEUDO);
     1939    12542    3              WRITE_NETCON.BUF_.BOUND = KS_PSEUDO.PSEUDO# * 28 + 4 - 1;
     1940    12543        /*            18 is # of bytes in PSEUDO array and 4 is bytes in
     1941    12544                      PSEUDO#
     1942    12545        */
     1943    12546
     1944    12547    3              CALL M$WRITE(WRITE_NETCON) ALTRET(PSEUDO_SET_ERR);
     1945    12548
     1946    12549    4              DO WHILE ('0'B);
     1947    12550    4    PSEUDO_SET_ERR: CALL KSE$ERRMSG(0);
     1948    12551    4                    KS_SUB_BUF_1.COUNT = SIZEC('PSEUDO');
     1949    12552    4                    KS_SUB_BUF_1.TEXT = 'PSEUDO';
     1950    12553    4                    CALL KSE$ERRMSG(%E$KS_CANTSETPARM);
     1951    12554    4                    GOTO END_LOOP;
     1952    12555    4    TOO_MANY_PSEUDO:
     1953    12556    4                    KS_SUB_BUF_1.COUNT = SIZEC(KS_NODENAME);
     1954    12557    4                    KS_SUB_BUF_1.TEXT = KS_NODENAME;
     1955    12558    4                    CALL KSE$ERRMSG(%E$KS_TOO_MANY_PSEUDOS,VECTOR(KS_SUB_BUF_1));
     1956    12559                         /*E* ERROR: KSN-E$KS_TOO_MANY_PSEUDOS-0
     1957    12560                              MESSAGE: Too many PSEUDOs set on node %U1
     1958    12561                              MESSAGE1: Use the DELETE command to remove PSEUDOs
PL6.E3A0      #004=KSC$SET File=KSC$COMMANDS1.:E05TSI                            WED 07/30/97 01:45 Page:223
     1959    12562                              DESCRIPTION: SEE MESSAGE      */
     1960    12563    4                    GOTO END_LOOP;
     1961    12564    4    TOO_BIG:
     1962    12565    4                    CALL KSE$ERRMSG(%E$KS_BADNUM);
     1963    12566                               /*E* ERROR: KSN-E$KS_BADNUM-0
     1964    12567                                    MESSAGE: Bad number.
     1965    12568                                    DESCRIPTION: SEE MESSAGE */
     1966    12569    4                    GOTO END_LOOP;
     1967    12570    4              END;  /*   do never  */
     1968    12571
     1969    12572    3              END;  /* DO CASE(CODE) */
     1970    12573    2   END_LOOP:;
     1971    12574    2           END;  /* DO I */
     1972    12575    1   ALTER_FID:  PROC (PTR$,TARGET);
     1973    12576    2            DCL PTR$    PTR;
     1974    12577    2            DCL TARGET  CHAR(28) ALIGNED;
     1975    12578
     1976    12579    2            IF PTR$->OUT$BLK.NSUBLKS = 2 THEN
     1977    12580    2               CALL CONCAT (TARGET,
     1978    12581    2                           PTR$->OUT$BLK.SUBLK$(0)->OUT$SYM.TEXT,    /* FILE NAME */
     1979    12582    2                           '.',
     1980    12583    2                           PTR$->OUT$BLK.SUBLK$(1)->OUT$SYM.TEXT);   /* ACCT NAME */
     1981    12584    2            ELSE
     1982    12585    2            IF PTR$->OUT$BLK.SUBLK$(0)->OUT$BLK.CODE = 1 THEN
     1983    12586    2               CALL CONCAT (TARGET,
     1984    12587    2                           PTR$->OUT$BLK.SUBLK$(0)->OUT$SYM.TEXT,   /* NAME ONLY */
     1985    12588    2                           '.:SYS');
     1986    12589    2            ELSE
     1987    12590    2            IF PTR$->OUT$BLK.SUBLK$(0)->OUT$BLK.CODE = 2 THEN
     1988    12591    3               DO;  /* acct only */
     1989    12592    3                  CALL INDEX(INDX,'.',TARGET);
     1990    12593    4                  IF INDX >= LENGTHC(TARGET)-1 THEN DO;
     1991    12594    4                     CALL INDEX(INDX,' ',TARGET);
     1992    12595    4                     SUBSTR (TARGET,INDX,1) = '.';
     1993    12596    4                     SUBSTR (TARGET,INDX+1) = PTR$->OUT$BLK.SUBLK$(0)->OUT$SYM.TEXT;
     1994    12597    4                     END;
     1995    12598    3                  ELSE
PL6.E3A0      #004=KSC$SET File=KSC$COMMANDS1.:E05TSI                            WED 07/30/97 01:45 Page:224
     1996    12599    3                     SUBSTR (TARGET,INDX+1) = PTR$->OUT$BLK.SUBLK$(0)->OUT$SYM.TEXT;
     1997    12600    3               END;   /* acct only */
     1998    12601    2   END ALTER_FID;
     1999    12602    1   RESET_PARAMS_TO_DEFAULTS: PROC;
     2000    12603
     2001    12604                                        /*
     2002    12605                                           rewrite the handler
     2003    12606                                           record.  ks$hndlr with defaults from
     2004    12607                                           ks_tables_d.
     2005    12608                                        */
     2006    12609    2                                I = 1;
     2007    12610    3          SRCH_TBL1:             DO WHILE KS_HAND_INFO.TEXT(I) ~= ' ';
     2008    12611    3                                   IF KS_HAND_INFO.TEXT(I) = SUBSTR(KS$HNDLR.HNDLRNAME,
             12611                                            0,SIZEC(KS$HNDLR.HNDLRNAME)) THEN
     2009    12612    3                                      EXIT SRCH_TBL1;
     2010    12613    3                                   ELSE
     2011    12614    3                                      I = I + 1;
     2012    12615    3                                 END;
     2013    12616
     2014    12617    2                                PTR$ = KS_HAND_INFO.PARAMS$(I);
     2015    12618    2                                IF KS_HAND_INFO.SZ(I) <= %KL_FIXED_HI THEN
     2016    12619    2                                    KS$HNDLR.NPARAMS = KS_HAND_INFO.SZ(I);
     2017    12620    2                                ELSE
     2018    12621    2                                   KS$HNDLR.NPARAMS = %KL_FIXED_HI;
     2019    12622    3                                DO K = 0 TO KS$HNDLR.NPARAMS - 1;
     2020    12623    3                                   KS$HNDLR.PARAMS(K) = PTR$->KS$PRM.DEFAULT(K);
     2021    12624    3                                END;
     2022    12625    2                                IF KS_HAND_INFO.SZ(I) > %KL_FIXED_HI THEN
     2023    12626    3                                   DO;
     2024    12627    3                                   KS$HNDLR.NPARAMI = KS_HAND_INFO.SZ(I) - %KL_FIXED_HI
             12627                                            ;
     2025    12628    3                                   OUT$ = PINCRW(ADDR(HNDLR_BUF),SIZEW(KS_HANDLER));
     2026    12629    3                                   IF KS_HAND_INFO.SZ(I) - %KL_FIXED_HI >
     2027    12630    3                                      KS_HANDLER.NPARAMI THEN
     2028    12631    3   OUT$ = PINCRW(OUT$,((KS_HAND_INFO.SZ(I) - %KL_FIXED_HI - KS_HANDLER.NPARAMI) * SIZEW
             12631            (KS_HANDLER.IPARAM(0))));
     2029    12632    4                                   DO K = %KL_FIXED_HI  TO KS_HAND_INFO.SZ(I) - 1;
PL6.E3A0      #004=KSC$SET File=KSC$COMMANDS1.:E05TSI                            WED 07/30/97 01:45 Page:225
     2030    12633    4                                      DFLT_OPT$ = PTR$->KS$PRM.SPCL_TBL$(K);
     2031    12634    4                                      KS$HNDLR.IPARAM.OFFSET(K-%KL_HNDLRPARM_BLOCK) =
             12634                                               POFFW(OUT$,ADDR(HNDLR_BUF));
     2032    12635    4                                      KS$HNDLR.IPARAM.ARRAY_SZ(K-%KL_HNDLRPARM_BLOCK) =
             12635                                               KS_HAND_INFO.PARAMS$(I)->KS$PRM.ARRAY_SZ(K);
     2033    12636    5                                      DO L = 0 TO KS$HNDLR.IPARAM.ARRAY_SZ(K-%
             12636                                               KL_HNDLRPARM_BLOCK);
     2034    12637    5                                         OUT$->VALUE_B(L) = DFLT_OPT$->KS$PRM.DEFAULT(L
             12637                                                  );
     2035    12638    5                                      END;
     2036    12639    4                                      OUT$ = PINCRW(OUT$,(KS$HNDLR.IPARAM.ARRAY_SZ(K-%
             12639                                               KL_HNDLRPARM_BLOCK)+2)/2);
     2037    12640    4                                   END;  /* # of indx params */
     2038    12641    3                                   END;
     2039    12642    2                                ELSE
     2040    12643    2                                   KS$HNDLR.NPARAMI = 0;
             12643                                            /* reset if no indexed params */
     2041    12644    2   END RESET_PARAMS_TO_DEFAULTS;
     2042    12645    1   END KSC$SET;

PL6.E3A0      #004=KSC$SET File=KSC$COMMANDS1.:E05TSI                            WED 07/30/97 01:45 Page:226
--  Include file information  --

   F$DCB.:E05TOU  cannot be made into a system file and is referenced.
   B_ERRORS_C.:E05TOU  is referenced.
   XU_MACRO_C.:E05TOU  is referenced.
   GI_BOOT_C.:E05TOU  is referenced.
   KL_CONFIG_M.:E05TOU  is referenced.
   KL_AFCN_C.:E05TOU  is referenced.
   KL_CONTROL_C.:E05TOU  is referenced.
   KS_PERR_C.:E05TOU  is referenced.
   KS_DATA_R.:E05TOU  cannot be made into a system file and is referenced.
   KS_SUBS_C.:E05TOU  is referenced.
   KS_MACRO_M.:E05TOU  is referenced.
   KL_MACRO_C.:E05TOU  is referenced.
   CP_6.:E05TOU  cannot be made into a system file and is referenced.
   B$JIT_C.:E05TOU  was found in the system file and is never referenced.
   CP_6_C.:E05TOU  was found in the system file and is referenced.
      No diagnostics issued in procedure KSC$SET.

   Procedure KSC$SET requires 2275 words for executable code.
   Procedure KSC$SET requires 172 words of local(AUTO) storage.

    No errors detected in file KSC$COMMANDS1.:E05TSI    .

PL6.E3A0      #004=KSC$SET File=KSC$COMMANDS1.:E05TSI                            WED 07/30/97 01:45 Page:227

 Object Unit name= KSC$SET                                    File name= KSC$COMMANDS1.:E05TOU
 UTS= JUL 30 '97 01:45:10.72 WED                              Compiler= PL-6/E31         Sev=      00
 SharedLib= :SHARED_SYSTEM                                    Alt SharedLib=


    ****  Control sections  ****

 Sect   Type Bound  Init  Size OctSiz  Section name(segment info)
    0   DCB   even  none     0      0  M$UC
    1  RoData even  UTS     69    105  KSC$SET
    2   Data  even  none   846   1516  KSC$SET
    3   DCB   even  none     0      0  M$NETCON
    4   DCB   even  none     0      0  M$SI
    5   Proc  even  none  2275   4343  KSC$SET
    6  RoData even  none   131    203  KSC$SET

    ****  Entry defs  ****

                              Check   Calling
                             calling  sequence
  Sect OctLoc Primary Altret sequence   type   Parms  Name
     5      0   yes    yes     yes      Std        1  KSC$SET
PL6.E3A0      #004=KSC$SET File=KSC$COMMANDS1.:E05TSI                            WED 07/30/97 01:45 Page:228

  ****  Entry refs  ****

         Check        Calling
        calling       sequence
Altret sequence SRef   type   Args  Name
         yes           Std       4 KSE$ERRMSG
         yes           Std       1 KSU$INIT_DEFCNFG
 yes     yes           Std       6 XUR$GETCMD
 yes     yes           Std       1 KSR$RD_HLPCG
 yes     yes           Std       2 KSU$READ_NETCON
 yes     yes           Std       3 KSU$WRITE_NETCON
         yes           Std      11 KSW$WRITE
         yes           Std       3 KSU$STRIP_ZEROS
 yes     yes           Std       1 KSR$WR_HLPCG
         yes           Std       2 KSU$UNPACK
 yes     yes           Std       7 XUR$ERRMSG
                       nStd      0 X66_AUTO_1
                       Std       0 B_CONSPOOL_D
                       nStd      0 X66_ARET

  ****  Data refs  ****

  Flags:  r = read only, s = secondary
Flgs Name                             Flgs Name                             Flgs Name
     M$UC                                  KS_MYSTATION                          KS_NODENAME
     KS_SELPRMOPT                          KS_NODE                               KS_HNDLRNAME
     KS_HNDLRINDX                          KS_MSGBUF                             KS_MSGBUF$
     KS_SUB_BUF_1                          KS_SUB_BUF_2                          KS_SUB_BUF_3
     B$TCB$                                KS_TBL                                KS_FID
     KS_LIB                                KS_HAND                               KS_NRHAND
     KS_CMD                                P_PCB                                 KS_HAND_INFO
     PROMPT                                M$NETCON                              M$SI
     B_VECTNIL
PL6.E3A0      #004=KSC$SET File=KSC$COMMANDS1.:E05TSI                            WED 07/30/97 01:45 Page:229

  ****  Segment refs  ****

  Flags:  r = read only, s = secondary
Flgs Name                             Flgs Name                             Flgs Name
     ISSID                                 NULLSID
PL6.E3A0      #004=KSC$SET File=KSC$COMMANDS1.:E05TSI                            WED 07/30/97 01:45 Page:230


      908        1        /*T***********************************************************/
      909        2        /*T*                                                         */
      910        3        /*T* Copyright (c) Bull HN Information Systems Inc., 1997    */
      911        4        /*T*                                                         */
      912        5        /*T***********************************************************/
      913        6        KSC$SET: PROC(TOP$) ALTRET;

      6  5 000000   000000 700200 xent  KSC$SET      TSX0  ! X66_AUTO_1
         5 000001   000254 000001                    ZERO    172,1

      914        7        /**/
      915        8    1   DCL TOP$ PTR;
      916        9        /**/
      917       10        %INCLUDE CP_6;
      918       91        %INCLUDE KL_MACRO_C;
      919     3443        %INCLUDE KS_MACRO_M;
      920     3640        %INCLUDE KS_SUBS_C;
      921     3883        %INCLUDE KS_DATA_R;
      922     3898        %INCLUDE KS_PERR_C;
      923     3965        %INCLUDE KL_CONTROL_C;
      924     4345        %INCLUDE KL_AFCN_C;
      925     4446        %INCLUDE KL_CONFIG_M;
      926     5208        %INCLUDE GI_BOOT_C;
      927     5319        %INCLUDE XU_MACRO_C;
      928     8425        %INCLUDE B_ERRORS_C;
      929     9552        %INCLUDE F$DCB;
      930     9601        /**/
      931     9602        %KS$BOX(TITLE="entry defs");

              9620    1   /***************************************************************************
              9621    1    *                                                                         *
              9622    1    *                                 entry defs                              *
              9623    1    *                                                                         *
              9624    1    ***************************************************************************/

      932     9629    1   DCL KSE$ERRMSG ENTRY(4);
PL6.E3A0      #004=KSC$SET File=KSC$COMMANDS1.:E05TSI                            WED 07/30/97 01:45 Page:231
      933     9630    1   DCL KSR$RD_HLPCG ENTRY(1) ALTRET;
      934     9631    1   DCL KSR$WR_HLPCG ENTRY(1) ALTRET;
      935     9632    1   DCL KSU$CHARBIN ENTRY(4) ALTRET;
      936     9633    1   DCL KSW$WRITE ENTRY(11);
      937     9634    1   DCL XUR$GETCMD ENTRY(6) ALTRET;
      938     9635    1   DCL KSU$UNPACK ENTRY(2);
      939     9636    1   DCL KSU$READ_NETCON ENTRY(2) ALTRET;
      940     9637    1   DCL KSU$WRITE_NETCON ENTRY(3) ALTRET;
      941     9638    1   DCL KSU$INIT_DEFCNFG ENTRY(1);
      942     9639    1   DCL XUR$ERRMSG ENTRY(7) ALTRET;
      943     9640    1   DCL KSU$STRIP_ZEROS ENTRY(3);
      944     9641        %KS$BOX(TITLE="symref variables");

              9659    1   /***************************************************************************
              9660    1    *                                                                         *
              9661    1    *                              symref variables                           *
              9662    1    *                                                                         *
              9663    1    ***************************************************************************/

      945     9668    1   DCL B$TCB$ PTR SYMREF;
      946     9669    1   DCL KS_TBL(0:9) PTR SYMREF;
      947     9670    1   DCL KS_FID SBIN SYMREF;
      948     9671    1   DCL KS_LIB SBIN SYMREF;
      949     9672    1   DCL KS_HAND SBIN SYMREF;
      950     9673    1   DCL KS_NRHAND SBIN SYMREF;
      951     9674    1   DCL KS_CMD SBIN SYMREF;
      952     9675        %P_PCB(NAME = P_PCB,STCLASS=SYMREF);
      953     9874        %KS$HAND_INFO ( NAME = KS_HAND_INFO,LVL=1,STCLASS="(0:0) SYMREF", LAST=";");
      954     9913        %KS$BOX(TITLE="symdef variables");

              9931    1   /***************************************************************************
              9932    1    *                                                                         *
              9933    1    *                              symdef variables                           *
              9934    1    *                                                                         *
              9935    1    ***************************************************************************/

      955     9940        %KS$BOX(TITLE="constant variables");
PL6.E3A0      #004=KSC$SET File=KSC$COMMANDS1.:E05TSI                            WED 07/30/97 01:45 Page:232

              9958    1   /***************************************************************************
              9959    1    *                                                                         *
              9960    1    *                             constant variables                          *
              9961    1    *                                                                         *
              9962    1    ***************************************************************************/

      956     9967        /**/
      957     9968    1   DCL EQUALS CHAR(0) CONSTANT INIT('=');
      958     9969    1   DCL STAR CHAR(0) CONSTANT INIT('*');
      959     9970    1   DCL MONFID CHAR(0) CONSTANT INIT('Monitor Fid (%T) %10P');
      960     9971    1   DCL NHNDLRS CHAR(0) CONSTANT INIT('Number of Handlers (%D) %10P');
      961     9972    1   DCL HNDLRNAME CHAR(0) CONSTANT INIT('Handler #%D Name (%T) %10P');
      962     9973    1   DCL HEX_DIGITS CHAR(0) CONSTANT INIT('0123456789ABCDEF');
      963     9974    1   DCL HNDLRFID CHAR(0) CONSTANT INIT('Handler #%D Fid (%T) %10P');
      964     9975    1   DCL LIBACCT CHAR(0) CONSTANT INIT('Library account (%T) %10P');
      965     9976    1   DCL WRITE_SUCCESSFULL_FMT CHAR(0) CONSTANT INIT (
      966     9977    1        '%T successfully written to %2P%A%10P');
      967     9978    1   DCL WRITE_SUCCESSFULL_VEC BIT(72) DALIGNED CONSTANT INIT
      968     9979    1        (VECTOR(WRITE_SUCCESSFULL_FMT));
      969     9980    1   DCL NETCON CHAR(0) CONSTANT INIT (':NETCON');
      970     9981    1   DCL FEP CHAR(0) CONSTANT INIT ('FEP');
      971     9982        %KS$BOX(TITLE="static variables",PAGE=YES);

PL6.E3A0      #004=KSC$SET File=KSC$COMMANDS1.:E05TSI                            WED 07/30/97 01:45 Page:233
             10000    1   /***************************************************************************
             10001    1    *                                                                         *
             10002    1    *                              static variables                           *
             10003    1    *                                                                         *
             10004    1    ***************************************************************************/

      972    10009    1   DCL 1 TEXTC STATIC ALIGNED,
      973    10010    1         2 COUNT UBIN BYTE UNAL INIT(0),
      974    10011    1         2 TEXT CHAR(40) UNAL INIT(' ');
      975    10012    1   DCL HNDLR_BUF(0:400) CHAR(1) STATIC INIT(' '*0);
      976    10013    1   DCL HANDLER$ STATIC PTR INIT(ADDR(HNDLR_BUF));
      977    10014    1   DCL SI_BUF CHAR(100) STATIC ALIGNED;
      978    10015    1   DCL FIDNAME CHAR(28) STATIC ALIGNED;
      979    10016        %KL$DEFAULT_KEY (NAME=KS_DEFAULT_KEY,STCLASS=STATIC);
      980    10035    1   DCL DEFAULT_BUF (0:49) UBIN WORD STATIC INIT(0*0);
      981    10036    1   DCL DEFAULT$           PTR STATIC INIT(ADDR(DEFAULT_BUF));
      982    10037        %KL$HNDLR_KEY (NAME=KS_HANDLER_KEY,STCLASS=STATIC);
      983    10056        %KL$FEPBOOT (NAME=KS_FEPBOOT,NUM=GI_BOOT_HI,STCLASS=STATIC);
      984    10081        %KL$FEPBOOT_KEY (NAME=KS_FEPBOOT_KEY,STCLASS=STATIC);
      985    10099        %KL$FEPCTL (NAME=KS_FEPCTL,NUM=GI_CNTL_BOOTHI,STCLASS=STATIC);
      986    10119        %KL$FEPCTL_KEY (NAME=KS_FEPCTL_KEY,STCLASS=STATIC);
      987    10137        %KL$FEPHNDLR (NAME=KS_FEPHNDLR,NUM=20,STCLASS=STATIC);
      988    10167        %KL$FEPHNDLR_KEY (NAME=KS_FEPHNDLR_KEY,STCLASS=STATIC);
      989    10185        %KL$PSEUDO(NAME=KS_PSEUDO,NUM=50,STCLASS=STATIC);
      990    10229        %KL$PSEUDO_KEY(NAME=KS_PSEUDO_KEY,STCLASS=STATIC);
      991    10247    1   DCL HDR$ PTR STATIC INIT(ADDR(KS_MSGBUF));
      992    10248    1   DCL 1 PROMPT  SYMREF,
      993    10249    1           2 NODENAME CHAR(8),
      994    10250    1           2 STAR CHAR(2);
      995    10251        %KL_CONTROL (FPTN=KS_CONTROL,STCLASS=STATIC);
      996    10387        %KL$HNDLR (NAME=KS_HANDLER,NUM=KL_FIXED_HI,NUMI=2,STCLASS=STATIC);
      997    10450        %KS$BOX(TITLE="based variables");

             10468    1   /***************************************************************************
             10469    1    *                                                                         *
             10470    1    *                              based variables                            *
             10471    1    *                                                                         *
PL6.E3A0      #004=KSC$SET File=KSC$COMMANDS1.:E05TSI                            WED 07/30/97 01:45 Page:234
             10472    1    ***************************************************************************/

      998    10477        %PARSE$OUT (NAME=OUT$BLK,STCLASS="BASED(TOP$)");
      999    10522        %PARSE$SYM (NAME=OUT$SYM,STCLASS=BASED);
     1000    10560        %PARSE$OUT (NAME=OUT$BLK2,STCLASS="BASED(TOP2$)");
     1001    10605        %PARSE$SYM (NAME=OUT$SYM2,STCLASS=BASED);
     1002    10643        %KL$HNDLR (NAME = KS$HNDLR,NUM=KL_FIXED_HI,STCLASS="BASED(HANDLER$)");
     1003    10706        %KL_HDR(FPTN=KS$HDR,STCLASS="BASED(HDR$)");
     1004    10786        %KL$LINCNFG (NAME=KS_DEFAULT_REC,STCLASS="BASED(DEFAULT$)");
     1005    10944        %KL_HDR (FPTN=KS_HDR,STCLASS="BASED(KS_MSGBUF$)");
     1006    11024    1   DCL 1 HND BASED UNAL,
     1007    11025    1        2 DAT(0:18) BIT(1) UNAL;
     1008    11026        %KS$PARAM (NAME=KS$PARAM,LVL=1,STCLASS="(0:0) BASED",LAST=";");
     1009    11096        %KS$PARAM (NAME=KS$PRM,LVL=1,STCLASS="(0:0) BASED",LAST=";",SPECIAL=YES);
     1010    11166    1   DCL VALUE_B(0:0) UBIN HALF BASED HALIGNED;
     1011    11167        %VLP_NAME(FPTN = NAME,STCLASS = BASED);
     1012    11194        %KS$BOX(TITLE="auto variables",PAGE=YES);

PL6.E3A0      #004=KSC$SET File=KSC$COMMANDS1.:E05TSI                            WED 07/30/97 01:45 Page:235
             11212    1   /***************************************************************************
             11213    1    *                                                                         *
             11214    1    *                               auto variables                            *
             11215    1    *                                                                         *
             11216    1    ***************************************************************************/

     1013    11221    1   DCL BOOT_FLAG BIT(1);
     1014    11222    1   DCL FID_FLAG BIT(1);
     1015    11223    1   DCL BOOTIME  BIT(1) UNAL;
     1016    11224    1   DCL TEMP UBIN;
     1017    11225    1   DCL HNDLREXISTS BIT(1);
     1018    11226    1   DCL HEX_CHAR CHAR(1);
     1019    11227    1   DCL HEX_DIGIT UBIN;
     1020    11228    1   DCL HNDLRX UBIN;   /* index in fephndlr.handler array */
     1021    11229    1   DCL INDX1  UBIN;   /* general index */
     1022    11230    1   DCL INDX2  UBIN;
     1023    11231    1   DCL I UBIN;
     1024    11232    1   DCL INDX UBIN;
     1025    11233    1   DCL INDX_VEC(0:49) UBIN;
     1026    11234    1   DCL J UBIN;
     1027    11235    1   DCL K UBIN;
     1028    11236    1   DCL 1 KS_SUB_BUF_TEMP2  ALIGNED,
     1029    11237    1        2 COUNT UBIN BYTE UNAL,
     1030    11238    1        2 TEXT_C UNAL,
     1031    11239    1          3 TOPSIZ CHAR(6) UNAL,
     1032    11240    1          3 TEXT CHAR(25) UNAL,
     1033    11241    1        2 TEXT REDEF TEXT_C CHAR(31);
     1034    11242
     1035    11243    1   DCL 1 KS_SUB_BUF_4 ALIGNED,
     1036    11244    1        2 COUNT UBIN BYTE UNAL,
     1037    11245    1        2 TEXT CHAR(31) UNAL;
     1038    11246    1   DCL L UBIN;
     1039    11247    1   DCL LIB_FLAG BIT(1);    /* misc flags to indicate options on set boot cmd */
     1040    11248    1   DCL MON_FLAG BIT(1);
     1041    11249    1   DCL OPTBLK$ PTR;          /* pointer to options on set boot cmd */
     1042    11250    1   DCL PARMX UBIN;
     1043    11251    1   DCL PARMTYPE UBIN;
PL6.E3A0      #004=KSC$SET File=KSC$COMMANDS1.:E05TSI                            WED 07/30/97 01:45 Page:236
     1044    11252    1   DCL PERM_PARM UBIN BYTE;
     1045    11253    1   DCL NUM_INDX UBIN;
     1046    11254    1   DCL SCNOPTS UBIN;         /* pointer to options on handler in set boot */
     1047    11255    1   DCL SUBLK$ PTR;
     1048    11256    1   DCL SUBLOP UBIN;
     1049    11257    1   DCL TEMP1 UBIN;
     1050    11258    1   DCL TEMP2 UBIN;
     1051    11259    1   DCL T_PSEUDO# SBIN;
     1052    11260    1   DCL TMP$    PTR;          /* temporary pointer */
     1053    11261    1   DCL VALUE UBIN;
     1054    11262    1   DCL 1 VALUEC REDEF VALUE,
     1055    11263    1        2 * CHAR(2) UNAL,
     1056    11264    1        2 RES CHAR(2) UNAL;
     1057    11265        /* redef of ks_sub_buf_? for error message display */
     1058    11266        /**/
     1059    11267    1   DCL ERR# UBIN;
     1060    11268    1   DCL BLK$ PTR;
     1061    11269    1   DCL TOP2$ PTR;
     1062    11270    1   DCL PTR$ PTR;
     1063    11271    1   DCL DFLT_OPT$ PTR;
     1064    11272    1   DCL OUT$ PTR;
     1065    11273    1   DCL INDX_R UBIN BYTE;
     1066    11274    1   DCL SZ UBIN WORD;
     1067    11275    1   DCL BUF_SIZE UBIN WORD;
     1068    11276    1   DCL HANDLERNAME CHAR(8);
     1069    11277    1   DCL OLD_HANDLER (0:20) CHAR(8) ALIGNED;
     1070    11278    1   DCL OLD_BOOTIME (0:20) BIT(1) UNAL;
     1071    11279    1   DCL OLD_NRHAND   UBIN;
     1072    11280    1   DCL RECORD_SIZE  UBIN;
     1073    11281    1   DCL RECORD_CHANGED  BIT(1) ALIGNED;
     1074    11282    1   DCL HANDLER_FOUND   BIT(1) ALIGNED;
     1075    11283    1   DCL RCVCQ_SNDCQ     BIT(1) ALIGNED;
     1076    11284    1   DCL HANDNR       UBIN;
     1077    11285        %B$TCB;
     1078    11288        %B$ALT;
     1079    11296        /**/
     1080    11297        %KS$BOX(TITLE="FPTs and VLPs");
PL6.E3A0      #004=KSC$SET File=KSC$COMMANDS1.:E05TSI                            WED 07/30/97 01:45 Page:237

             11315    1   /***************************************************************************
             11316    1    *                                                                         *
             11317    1    *                               FPTs and VLPs                             *
             11318    1    *                                                                         *
             11319    1    ***************************************************************************/

     1081    11324        %FPT_READ (FPTN=READ_NETCON,
     1082    11325                   DCB=M$NETCON,
     1083    11326                   KEYS=YES);
     1084    11365        %FPT_WRITE (FPTN=WRITE_NETCON,
     1085    11366                    DCB=M$NETCON);
     1086    11397        %FPT_DELREC (FPTN=DELREC_NETCON,
     1087    11398                     DCB=M$NETCON);
     1088    11417        /**/
     1089    11418        %FPT_OPEN;
     1090    11527        /**/
     1091    11528        %FPT_FID (FPTN = NETCON_FID,
     1092    11529                  NAME = VLP_NAME,PASS=VLP_PASS,
     1093    11530                  RESULTS = VLR_FID, ACCT = VLP_ACCT,
     1094    11531                  SN = VLP_SN, WSN = VLP_WSN,
     1095    11532                  ASN = "FPT_OPEN.V.ASN#", RES = "FPT_OPEN.V.RES#",
     1096    11533                  TEXTFID = FIDNAME);
     1097    11556        /**/
     1098    11557        %VLP_ACCT;
     1099    11570        %VLP_NAME;
     1100    11597        %VLP_PASS;
     1101    11610        %VLP_SN;
     1102    11623        %VLP_WSN;
     1103    11636        %VLR_FID;
     1104    11655        %KS$BOX(TITLE="DCBs");

             11673    1   /***************************************************************************
             11674    1    *                                                                         *
             11675    1    *                                    DCBs                                 *
             11676    1    *                                                                         *
             11677    1    ***************************************************************************/
PL6.E3A0      #004=KSC$SET File=KSC$COMMANDS1.:E05TSI                            WED 07/30/97 01:45 Page:238

     1105    11682    1   DCL M$NETCON DCB;
     1106    11683    1   DCL M$SI DCB;
     1107    11684        %KS$BOX(TITLE="EQUs");

             11702    1   /***************************************************************************
             11703    1    *                                                                         *
             11704    1    *                                    EQUs                                 *
             11705    1    *                                                                         *
             11706    1    ***************************************************************************/

     1108    11711        %EQU KS_MAX_HALF = 6;
     1109    11712        %EQU KS_MAX_PSEUDO = 7;
     1110    11713        /**/
     1111    11714        %EJECT;
PL6.E3A0      #004=KSC$SET File=KSC$COMMANDS1.:E05TSI                            WED 07/30/97 01:45 Page:239
     1112    11715    2        IF KS_NODENAME = 'HOST' THEN DO;

  11715  5 000002   040000 106400                    CMPC    fill='040'O
         5 000003   000000 000010 xsym               ADSC9   KS_NODENAME              cn=0,n=8
         5 000004   000067 000004 1                  ADSC9   FEP+1                    cn=0,n=4
         5 000005   000013 601000 5                  TNZ     DOI

     1113    11716    2           CALL KSE$ERRMSG(%E$KS_NONODE);

  11716  5 000006   000000 630400 6                  EPPR0   0
         5 000007   000017 631400 xsym               EPPR1   B_VECTNIL+15
         5 000010   000000 701000 xent               TSX1    KSE$ERRMSG
         5 000011   000000 011000                    NOP     0

     1114    11717                /*E* ERROR: KSN-E$KS_NONODE-0
     1115    11718                     MESSAGE: Node has not been selected.
     1116    11719                     MESSAGE1: A node must be selected via the SELECT command.
     1117    11720                     DESCRIPTION: SEE MESSAGES */
     1118    11721    2           RETURN;

  11721  5 000012   000000 702200 xent               TSX2  ! X66_ARET

     1119    11722    2           END;  /* IF KS_NODENAME = 'HOST' */
     1120    11723    2   DOI: DO I = 0 TO OUT$BLK.NSUBLKS - 1;

  11723  5 000013   200016 450100       DOI          STZ     I,,AUTO
         5 000014   003731 710000 5                  TRA     END_LOOP+3

     1121    11724    2           BLK$ = OUT$BLK.SUBLK$(I);

  11724  5 000015   200003 470500                    LDP0    @TOP$,,AUTO
         5 000016   000000 471500                    LDP1    0,,PR0
         5 000017   200016 720100                    LXL0    I,,AUTO
         5 000020   100003 236110                    LDQ     3,X0,PR1
         5 000021   200145 756100                    STQ     BLK$,,AUTO

     1122    11725    3           DO CASE(BLK$->OUT$BLK.CODE);
PL6.E3A0      #004=KSC$SET File=KSC$COMMANDS1.:E05TSI                            WED 07/30/97 01:45 Page:240

  11725  5 000022   200145 473500                    LDP3    BLK$,,AUTO
         5 000023   300000 721100                    LXL1    0,,PR3
         5 000024   000004 101003                    CMPX1   4,DU
         5 000025   000027 602011 5                  TNC     s:11725+5,X1
         5 000026   003726 710000 5                  TRA     END_LOOP
         5 000027   003726 710000 5                  TRA     END_LOOP
         5 000030   000033 710000 5                  TRA     s:11727
         5 000031   003362 710000 5                  TRA     s:12459
         5 000032   002100 710000 5                  TRA     s:12175

     1123    11726    3              CASE(%KS_BOOTINFO);

     1124    11727    3                 IF BLK$->OUT$BLK.NSUBLKS > 0 THEN

  11727  5 000033   300001 222100                    LDX2    1,,PR3
         5 000034   001050 600000 5                  TZE     PROMPTED_SET_BOOT

     1125    11728    4                    DO;  /* 1 set boot commands with options  */

     1126    11729    4                    KS_FEPHNDLR = '0'B;   /* init buffer areas  */

  11729  5 000035   000000 100400                    MLR     fill='000'O
         5 000036   000002 000001 xsym               ADSC9   B_VECTNIL+2              cn=0,n=1
         5 000037   000374 000270 2                  ADSC9   KS_FEPHNDLR              cn=0,n=184

     1127    11730
     1128    11731    4                    KS_FEPBOOT = '0'B;

  11731  5 000040   000000 100400                    MLR     fill='000'O
         5 000041   000002 000001 xsym               ADSC9   B_VECTNIL+2              cn=0,n=1
         5 000042   000312 000150 2                  ADSC9   KS_FEPBOOT               cn=0,n=104

     1129    11732        /**/
     1130    11733                         /* params will always be off of 1st sublk */
     1131    11734        /**/
     1132    11735        /*
PL6.E3A0      #004=KSC$SET File=KSC$COMMANDS1.:E05TSI                            WED 07/30/97 01:45 Page:241
     1133    11736                read the ks_fephndlr record.  use this same buffer
     1134    11737                throughout the entire processing period.
     1135    11738        */
     1136    11739    4                    KS_FEPHNDLR_KEY.NODE = KS_NODE;

  11739  5 000043   000000 236000 xsym               LDQ     KS_NODE
         5 000044   000011 736000                    QLS     9
         5 000045   000452 552010 2                  STBQ    KS_FEPHNDLR_KEY,'10'O

     1137    11740    4                    READ_NETCON.BUF_ = VECTOR(KS_FEPHNDLR);

  11740  5 000046   000002 237000 6                  LDAQ    2
         5 000047   001300 757000 2                  STAQ    READ_NETCON+4

     1138    11741    4                    READ_NETCON.KEY_ = VECTOR(KS_FEPHNDLR_KEY);

  11741  5 000050   000004 237000 6                  LDAQ    4
         5 000051   001276 757000 2                  STAQ    READ_NETCON+2

     1139    11742    4                    CALL M$READ(READ_NETCON) ALTRET(SET_ERR);

  11742  5 000052   001274 630400 2                  EPPR0   READ_NETCON
         5 000053   440000 713400                    CLIMB   alt,read
         5 000054   401400 401760                    pmme    nvectors=4
         5 000055   003344 702000 5                  TSX2    SET_ERR

     1140    11743        /**/
     1141    11744    5                    DO SCNOPTS = 0 TO BLK$->OUT$BLK.NSUBLKS-1;  /*  2  */

  11744  5 000056   200134 450100                    STZ     SCNOPTS,,AUTO
         5 000057   000722 710000 5                  TRA     s:11924+3

     1142    11745    5                       HNDLR_BUF = '0'B;

  11745  5 000060   000000 100400                    MLR     fill='000'O
         5 000061   000002 000001 xsym               ADSC9   B_VECTNIL+2              cn=0,n=1
         5 000062   000013 000621 2                  ADSC9   HNDLR_BUF                cn=0,n=401
PL6.E3A0      #004=KSC$SET File=KSC$COMMANDS1.:E05TSI                            WED 07/30/97 01:45 Page:242

     1143    11746    5                       TMP$ = BLK$->OUT$BLK.SUBLK$(SCNOPTS);

  11746  5 000063   200145 470500                    LDP0    BLK$,,AUTO
         5 000064   200134 720100                    LXL0    SCNOPTS,,AUTO
         5 000065   000003 236110                    LDQ     3,X0,PR0
         5 000066   200142 756100                    STQ     TMP$,,AUTO

     1144    11747    6      SETCODE:         DO CASE (TMP$->OUT$BLK.CODE);   /*  3  */

  11747  5 000067   200142 470500       SETCODE      LDP0    TMP$,,AUTO
         5 000070   000000 720100                    LXL0    0,,PR0
         5 000071   000005 100003                    CMPX0   5,DU
         5 000072   000074 602010 5                  TNC     SETCODE+5,X0
         5 000073   000717 710000 5                  TRA     s:11924
         5 000074   000717 710000 5                  TRA     s:11924
         5 000075   000101 710000 5                  TRA     s:11750
         5 000076   000142 710000 5                  TRA     s:11768
         5 000077   000717 710000 5                  TRA     s:11924
         5 000100   000152 710000 5                  TRA     s:11777

     1145    11748        %EJECT;
PL6.E3A0      #004=KSC$SET File=KSC$COMMANDS1.:E05TSI                            WED 07/30/97 01:45 Page:243
     1146    11749    6                          CASE (%KS_MONFID);

     1147    11750    6                             KS_FEPBOOT_KEY.NODE = KS_NODE;

  11750  5 000101   000000 236000 xsym               LDQ     KS_NODE
         5 000102   000011 736000                    QLS     9
         5 000103   000344 552010 2                  STBQ    KS_FEPBOOT_KEY,'10'O

     1148    11751    6                             READ_NETCON.BUF_ = VECTOR(KS_FEPBOOT);

  11751  5 000104   000006 237000 6                  LDAQ    6
         5 000105   001300 757000 2                  STAQ    READ_NETCON+4

     1149    11752    6                             READ_NETCON.KEY_ = VECTOR(KS_FEPBOOT_KEY);

  11752  5 000106   000010 237000 6                  LDAQ    8
         5 000107   001276 757000 2                  STAQ    READ_NETCON+2

     1150    11753    6                             CALL M$READ(READ_NETCON) ALTRET(SETCODE);

  11753  5 000110   001274 630400 2                  EPPR0   READ_NETCON
         5 000111   440000 713400                    CLIMB   alt,read
         5 000112   401400 401760                    pmme    nvectors=4
         5 000113   000067 702000 5                  TSX2    SETCODE

     1151    11754        /*
     1152    11755             a fepboot record must exist for the set boot command to work.
     1153    11756        */
     1154    11757    6                             IF TMP$->OUT$BLK.NSUBLKS = 0 THEN

  11757  5 000114   200142 470500                    LDP0    TMP$,,AUTO
         5 000115   000001 220100                    LDX0    1,,PR0
         5 000116   000123 601000 5                  TNZ     s:11760

     1155    11758    6                                KS_FEPBOOT.BOOTFID = 'M:FEP.:SYS';

  11758  5 000117   040000 100400                    MLR     fill='040'O
PL6.E3A0      #004=KSC$SET File=KSC$COMMANDS1.:E05TSI                            WED 07/30/97 01:45 Page:244
         5 000120   000070 000012 1                  ADSC9   FEP+2                    cn=0,n=10
         5 000121   000312 000050 2                  ADSC9   KS_FEPBOOT               cn=0,n=40
         5 000122   000131 710000 5                  TRA     s:11762

     1156    11759    6                             ELSE
     1157    11760    6                                CALL ALTER_FID (TMP$,KS_FEPBOOT.BOOTFID);

  11760  5 000123   000007 236000 6                  LDQ     7
         5 000124   200242 756100                    STQ     @PTR$+1,,AUTO
         5 000125   200142 631500                    EPPR1   TMP$,,AUTO
         5 000126   200241 451500                    STP1    HANDNR+2,,AUTO
         5 000127   003741 701000 5                  TSX1    ALTER_FID
         5 000130   000000 011000                    NOP     0

     1158    11761
     1159    11762    6                             WRITE_NETCON.BUF_ = VECTOR(KS_FEPBOOT);

  11762  5 000131   000006 237000 6                  LDAQ    6
         5 000132   001316 757000 2                  STAQ    WRITE_NETCON+4

     1160    11763    6                             WRITE_NETCON.KEY_ = VECTOR(KS_FEPBOOT_KEY);

  11763  5 000133   000010 237000 6                  LDAQ    8
         5 000134   001314 757000 2                  STAQ    WRITE_NETCON+2

     1161    11764    6                             CALL M$WRITE(WRITE_NETCON) ALTRET(SET_ERR);

  11764  5 000135   001312 630400 2                  EPPR0   WRITE_NETCON
         5 000136   440001 713400                    CLIMB   alt,write
         5 000137   401400 401760                    pmme    nvectors=4
         5 000140   003344 702000 5                  TSX2    SET_ERR
         5 000141   000717 710000 5                  TRA     s:11924

     1162    11765        %EJECT;
PL6.E3A0      #004=KSC$SET File=KSC$COMMANDS1.:E05TSI                            WED 07/30/97 01:45 Page:245
     1163    11766    6                          CASE(%KS_LIBACCT);

     1164    11767
     1165    11768    6                            KS_FEPHNDLR.DEFLIBACCT = TMP$->OUT$BLK.SUBLK$(0)->OUT$SYM.
             11768                                      TEXT;

  11768  5 000142   000003 471500                    LDP1    3,,PR0
         5 000143   100004 236100                    LDQ     4,,PR1
         5 000144   000033 772000                    QRL     27
         5 000145   000000 621006                    EAX1    0,QL
         5 000146   040000 100540                    MLR     fill='040'O
         5 000147   100004 200011                    ADSC9   4,,PR1                   cn=1,n=*X1
         5 000150   000375 000010 2                  ADSC9   KS_FEPHNDLR+1            cn=0,n=8
         5 000151   000717 710000 5                  TRA     s:11924

     1166    11769
     1167    11770
     1168    11771        /**/
     1169    11772        %EJECT;
PL6.E3A0      #004=KSC$SET File=KSC$COMMANDS1.:E05TSI                            WED 07/30/97 01:45 Page:246
     1170    11773    6                          CASE(%KS_HANDNAME);

     1171    11774
     1172    11775                                  /* does handler exist  */
     1173    11776
     1174    11777    6                             HNDLREXISTS = '0'B;

  11777  5 000152   200010 450100                    STZ     HNDLREXISTS,,AUTO

     1175    11778    7           FEPHNDSRCH:       DO HNDLRX = 0 TO KS_FEPHNDLR.NHANDLERS-1;

  11778  5 000153   200013 450100       FEPHNDSRCH   STZ     HNDLRX,,AUTO
         5 000154   000211 710000 5                  TRA     s:11786+3

     1176    11779    7                                IF KS_FEPHNDLR.HANDLER(HNDLRX) = BLK$->OUT$BLK.SUBLK$(
             11779                                         SCNOPTS)->OUT$BLK.SUBLK$(0)->OUT$SYM.TEXT THEN

  11779  5 000155   200145 470500                    LDP0    BLK$,,AUTO
         5 000156   200134 720100                    LXL0    SCNOPTS,,AUTO
         5 000157   000003 471510                    LDP1    3,X0,PR0
         5 000160   100003 473500                    LDP3    3,,PR1
         5 000161   300004 236100                    LDQ     4,,PR3
         5 000162   000033 772000                    QRL     27
         5 000163   200013 235100                    LDA     HNDLRX,,AUTO
         5 000164   000003 735000                    ALS     3
         5 000165   000000 621006                    EAX1    0,QL
         5 000166   040140 106405                    CMPC    fill='040'O
         5 000167   000400 000010 2                  ADSC9   KS_FEPHNDLR+4,A          cn=0,n=8
         5 000170   300004 200011                    ADSC9   4,,PR3                   cn=1,n=*X1
         5 000171   000206 601000 5                  TNZ     s:11786

     1177    11780    8                                   DO;  /* 10 handler does exist */

     1178    11781    8                                   HNDLREXISTS = '1'B;

  11781  5 000172   400000 236003                    LDQ     -131072,DU
         5 000173   200010 756100                    STQ     HNDLREXISTS,,AUTO
PL6.E3A0      #004=KSC$SET File=KSC$COMMANDS1.:E05TSI                            WED 07/30/97 01:45 Page:247

     1179    11782    8                                   KS$HNDLR.HNDLRNAME = KS_FEPHNDLR.HANDLER(HNDLRX);

  11782  5 000174   000160 474400 2                  LDP4    HANDLER$
         5 000175   200013 235100                    LDA     HNDLRX,,AUTO
         5 000176   000001 735000                    ALS     1
         5 000177   000400 237005 2                  LDAQ    KS_FEPHNDLR+4,AL
         5 000200   400012 755100                    STA     10,,PR4
         5 000201   400013 756100                    STQ     11,,PR4

     1180    11783    8                                   HANDLERNAME = KS$HNDLR.HNDLRNAME;

  11783  5 000202   040100 100500                    MLR     fill='040'O
         5 000203   400012 000010                    ADSC9   10,,PR4                  cn=0,n=8
         5 000204   200155 000010                    ADSC9   HANDLERNAME,,AUTO        cn=0,n=8

     1181    11784    8                                   EXIT FEPHNDSRCH;

  11784  5 000205   000214 710000 5                  TRA     s:11788

     1182    11785    8                                   END;  /* 10 handler found  */
     1183    11786    7                             END;  /* fephndsrch loop */

  11786  5 000206   200013 235100                    LDA     HNDLRX,,AUTO
         5 000207   000001 035007                    ADLA    1,DL
         5 000210   200013 755100                    STA     HNDLRX,,AUTO
         5 000211   200013 236100                    LDQ     HNDLRX,,AUTO
         5 000212   000374 116000 2                  CMPQ    KS_FEPHNDLR
         5 000213   000155 602000 5                  TNC     s:11779

     1184    11787        /**/
     1185    11788    6                             SUBLK$ = BLK$->OUT$BLK.SUBLK$(SCNOPTS);

  11788  5 000214   200145 470500                    LDP0    BLK$,,AUTO
         5 000215   200134 720100                    LXL0    SCNOPTS,,AUTO
         5 000216   000003 236110                    LDQ     3,X0,PR0
         5 000217   200135 756100                    STQ     SUBLK$,,AUTO
PL6.E3A0      #004=KSC$SET File=KSC$COMMANDS1.:E05TSI                            WED 07/30/97 01:45 Page:248

     1186    11789    6                             IF ~HNDLREXISTS THEN

  11789  5 000220   200010 236100                    LDQ     HNDLREXISTS,,AUTO
         5 000221   400000 376003                    ANQ     -131072,DU
         5 000222   400000 676003                    ERQ     -131072,DU
         5 000223   000340 600000 5                  TZE     s:11808

     1187    11790    7                                DO;

     1188    11791    7                               KS$HNDLR.HNDLRNAME = SUBLK$->OUT$BLK.SUBLK$(0)->OUT$SYM
             11791                                         .TEXT;

  11791  5 000224   200135 471500                    LDP1    SUBLK$,,AUTO
         5 000225   100003 473500                    LDP3    3,,PR1
         5 000226   300004 236100                    LDQ     4,,PR3
         5 000227   000033 772000                    QRL     27
         5 000230   000000 621006                    EAX1    0,QL
         5 000231   000160 474400 2                  LDP4    HANDLER$
         5 000232   040100 100540                    MLR     fill='040'O
         5 000233   300004 200011                    ADSC9   4,,PR3                   cn=1,n=*X1
         5 000234   400012 000010                    ADSC9   10,,PR4                  cn=0,n=8

     1189    11792    7                                HANDLERNAME = KS$HNDLR.HNDLRNAME;

  11792  5 000235   040100 100500                    MLR     fill='040'O
         5 000236   400012 000010                    ADSC9   10,,PR4                  cn=0,n=8
         5 000237   200155 000010                    ADSC9   HANDLERNAME,,AUTO        cn=0,n=8

     1190    11793    7                                KS_FEPHNDLR.NHANDLERS = KS_FEPHNDLR.NHANDLERS + 1;

  11793  5 000240   000374 235000 2                  LDA     KS_FEPHNDLR
         5 000241   000001 035007                    ADLA    1,DL
         5 000242   000374 755000 2                  STA     KS_FEPHNDLR

     1191    11794    7                                HNDLRX = KS_FEPHNDLR.NHANDLERS - 1;

PL6.E3A0      #004=KSC$SET File=KSC$COMMANDS1.:E05TSI                            WED 07/30/97 01:45 Page:249
  11794  5 000243   000001 135007                    SBLA    1,DL
         5 000244   200013 755100                    STA     HNDLRX,,AUTO

     1192    11795    7                                KS_FEPHNDLR.HANDLER(HNDLRX) = HANDLERNAME;

  11795  5 000245   000001 735000                    ALS     1
         5 000246   000002 735000                    ALS     2
         5 000247   040005 100500                    MLR     fill='040'O
         5 000250   200155 000010                    ADSC9   HANDLERNAME,,AUTO        cn=0,n=8
         5 000251   000400 000010 2                  ADSC9   KS_FEPHNDLR+4,A          cn=0,n=8

     1193    11796    7                                KS_FEPHNDLR.BOOTIME(HNDLRX) = '1'B;

  11796  5 000252   200013 235100                    LDA     HNDLRX,,AUTO
         5 000253   003005 060400                    CSL     bolr='003'O
         5 000254   000030 000001 xsym               BDSC    B_VECTNIL+24             by=0,bit=0,n=1
         5 000255   000377 000001 2                  BDSC    KS_FEPHNDLR+3,A          by=0,bit=0,n=1

     1194    11797    7                                CALL RESET_PARAMS_TO_DEFAULTS;

  11797  5 000256   004103 701000 5                  TSX1    RESET_PARAMS_TO_DEFAULTS
         5 000257   000000 011000                    NOP     0

     1195    11798    7                                KS_DEFAULT_KEY.NODE = KS_NODE;

  11798  5 000260   000000 236000 xsym               LDQ     KS_NODE
         5 000261   000011 736000                    QLS     9
         5 000262   000221 552010 2                  STBQ    KS_DEFAULT_KEY,'10'O

     1196    11799    7                                KS_DEFAULT_KEY.HNDLR = HANDLERNAME;

  11799  5 000263   040000 100500                    MLR     fill='040'O
         5 000264   200155 000010                    ADSC9   HANDLERNAME,,AUTO        cn=0,n=8
         5 000265   000221 600010 2                  ADSC9   KS_DEFAULT_KEY           cn=3,n=8

     1197    11800    7                                CALL KSU$READ_NETCON (VECTOR(KS_DEFAULT_KEY),VECTOR(
             11800                                         KS_DEFAULT_REC))
PL6.E3A0      #004=KSC$SET File=KSC$COMMANDS1.:E05TSI                            WED 07/30/97 01:45 Page:250

  11800  5 000266   000306 470400 2                  LDP0    DEFAULT$
         5 000267   000012 236100                    LDQ     10,,PR0
         5 000270   000011 772000                    QRL     9
         5 000271   000777 376007                    ANQ     511,DL
         5 000272   000053 620006                    EAX0    43,QL
         5 000273   000000 635010                    EAA     0,X0
         5 000274   000002 771000                    ARL     2
         5 000275   000140 135007                    SBLA    96,DL
         5 000276   000306 236000 2                  LDQ     DEFAULT$
         5 000277   200244 757100                    STAQ    @TARGET+2,,AUTO
         5 000300   200244 631500                    EPPR1   @TARGET+2,,AUTO
         5 000301   200247 451500                    STP1    @TARGET+5,,AUTO
         5 000302   000014 236000 6                  LDQ     12
         5 000303   200246 756100                    STQ     @TARGET+4,,AUTO
         5 000304   200246 630500                    EPPR0   @TARGET+4,,AUTO
         5 000305   000020 631400 xsym               EPPR1   B_VECTNIL+16
         5 000306   000000 701000 xent               TSX1    KSU$READ_NETCON
         5 000307   000311 702000 5                  TSX2    s:11802
         5 000310   000337 710000 5                  TRA     s:11805

     1198    11801    8                                   WHENALTRETURN DO;

     1199    11802    8                                      CALL KSU$INIT_DEFCNFG(KS_DEFAULT_REC);

  11802  5 000311   000306 630400 2                  EPPR0   DEFAULT$
         5 000312   000017 631400 xsym               EPPR1   B_VECTNIL+15
         5 000313   000000 701000 xent               TSX1    KSU$INIT_DEFCNFG
         5 000314   000000 011000                    NOP     0

     1200    11803    8                                      CALL KSU$WRITE_NETCON(VECTOR(KS_DEFAULT_KEY),
             11803                                               VECTOR(KS_DEFAULT_REC));

  11803  5 000315   000306 470400 2                  LDP0    DEFAULT$
         5 000316   000012 236100                    LDQ     10,,PR0
         5 000317   000011 772000                    QRL     9
         5 000320   000777 376007                    ANQ     511,DL
PL6.E3A0      #004=KSC$SET File=KSC$COMMANDS1.:E05TSI                            WED 07/30/97 01:45 Page:251
         5 000321   000053 620006                    EAX0    43,QL
         5 000322   000000 635010                    EAA     0,X0
         5 000323   000002 771000                    ARL     2
         5 000324   000140 135007                    SBLA    96,DL
         5 000325   000306 236000 2                  LDQ     DEFAULT$
         5 000326   200244 757100                    STAQ    @TARGET+2,,AUTO
         5 000327   200244 631500                    EPPR1   @TARGET+2,,AUTO
         5 000330   200247 451500                    STP1    @TARGET+5,,AUTO
         5 000331   000014 236000 6                  LDQ     12
         5 000332   200246 756100                    STQ     @TARGET+4,,AUTO
         5 000333   200246 630500                    EPPR0   @TARGET+4,,AUTO
         5 000334   000020 631400 xsym               EPPR1   B_VECTNIL+16
         5 000335   000000 701000 xent               TSX1    KSU$WRITE_NETCON
         5 000336   000000 011000                    NOP     0

     1201    11804    8                                   END;

     1202    11805    7                                END;

  11805  5 000337   000356 710000 5                  TRA     s:11815

     1203    11806    6                             ELSE
     1204    11807    7                                DO;

     1205    11808    7                                KS_HANDLER_KEY.NODE = KS_NODE;

  11808  5 000340   000000 236000 xsym               LDQ     KS_NODE
         5 000341   000011 736000                    QLS     9
         5 000342   000307 552010 2                  STBQ    KS_HANDLER_KEY,'10'O

     1206    11809    7                                KS_HANDLER_KEY.HNDLR = HANDLERNAME;

  11809  5 000343   040000 100500                    MLR     fill='040'O
         5 000344   200155 000010                    ADSC9   HANDLERNAME,,AUTO        cn=0,n=8
         5 000345   000307 600010 2                  ADSC9   KS_HANDLER_KEY           cn=3,n=8

     1207    11810    7                                READ_NETCON.KEY_ = VECTOR(KS_HANDLER_KEY);
PL6.E3A0      #004=KSC$SET File=KSC$COMMANDS1.:E05TSI                            WED 07/30/97 01:45 Page:252

  11810  5 000346   000016 237000 6                  LDAQ    14
         5 000347   001276 757000 2                  STAQ    READ_NETCON+2

     1208    11811    7                                READ_NETCON.BUF_ = VECTOR(HNDLR_BUF);

  11811  5 000350   000020 237000 6                  LDAQ    16
         5 000351   001300 757000 2                  STAQ    READ_NETCON+4

     1209    11812    7                                CALL M$READ(READ_NETCON) ALTRET(SET_ERR);

  11812  5 000352   001274 630400 2                  EPPR0   READ_NETCON
         5 000353   440000 713400                    CLIMB   alt,read
         5 000354   401400 401760                    pmme    nvectors=4
         5 000355   003344 702000 5                  TSX2    SET_ERR

     1210    11813    7                                END;

     1211    11814        /**/
     1212    11815    6                             FID_FLAG = '0'B;

  11815  5 000356   200005 450100                    STZ     FID_FLAG,,AUTO

     1213    11816    6                             BOOT_FLAG = '0'B;

  11816  5 000357   200004 450100                    STZ     BOOT_FLAG,,AUTO

     1214    11817
     1215    11818    6                             IF TMP$->OUT$BLK.NSUBLKS > 1 THEN

  11818  5 000360   200142 470500                    LDP0    TMP$,,AUTO
         5 000361   000001 220100                    LDX0    1,,PR0
         5 000362   000002 100003                    CMPX0   2,DU
         5 000363   000616 602000 5                  TNC     s:11901

     1216    11819    7                                DO;  /* fid,bootime or remove specified  12 */

PL6.E3A0      #004=KSC$SET File=KSC$COMMANDS1.:E05TSI                            WED 07/30/97 01:45 Page:253
     1217    11820    7                                IF ~HNDLREXISTS THEN

  11820  5 000364   200010 236100                    LDQ     HNDLREXISTS,,AUTO
         5 000365   400000 376003                    ANQ     -131072,DU
         5 000366   400000 676003                    ERQ     -131072,DU
         5 000367   000410 600000 5                  TZE     s:11827

     1218    11821    8                                   DO;

     1219    11822    8                                   KS$HNDLR.HNDLRFID = KS$HNDLR.HNDLRNAME;

  11822  5 000370   000160 471400 2                  LDP1    HANDLER$
         5 000371   040100 100500                    MLR     fill='040'O
         5 000372   100012 000010                    ADSC9   10,,PR1                  cn=0,n=8
         5 000373   100000 000050                    ADSC9   0,,PR1                   cn=0,n=40

     1220    11823    8                                   CALL INDEX (INDX,' ',KS$HNDLR.HNDLRFID);

  11823  5 000374   000000 124500                    SCM     mask='000'O
         5 000375   100000 000050                    ADSC9   0,,PR1                   cn=0,n=40
         5 000376   000035 000001 xsym               ADSC9   B_VECTNIL+29             cn=0,n=1
         5 000377   200017 000100                    ARG     INDX,,AUTO

     1221    11824    8                                   SUBSTR(KS$HNDLR.HNDLRFID,INDX,5) = '.:SYS';

  11824  5 000400   200017 235100                    LDA     INDX,,AUTO
         5 000401   040105 100400                    MLR     fill='040'O
         5 000402   000073 000005 1                  ADSC9   FEP+5                    cn=0,n=5
         5 000403   100000 000005                    ADSC9   0,A,PR1                  cn=0,n=5

     1222    11825    8                                   KS_FEPHNDLR.BOOTIME(HNDLRX) = '1'B;

  11825  5 000404   200013 236100                    LDQ     HNDLRX,,AUTO
         5 000405   003006 060400                    CSL     bolr='003'O
         5 000406   000030 000001 xsym               BDSC    B_VECTNIL+24             by=0,bit=0,n=1
         5 000407   000377 000001 2                  BDSC    KS_FEPHNDLR+3,Q          by=0,bit=0,n=1

PL6.E3A0      #004=KSC$SET File=KSC$COMMANDS1.:E05TSI                            WED 07/30/97 01:45 Page:254
     1223    11826    8                                   END;

     1224    11827    8                                DO SUBLOP = 1 TO SUBLK$->OUT$BLK.NSUBLKS-1;  /* 13 */

  11827  5 000410   000001 235007                    LDA     1,DL
         5 000411   200136 755100                    STA     SUBLOP,,AUTO
         5 000412   000607 710000 5                  TRA     s:11897+3

     1225    11828    9                                  DO CASE(SUBLK$->OUT$BLK.SUBLK$(SUBLOP)->OUT$BLK.CODE
             11828                                            );

  11828  5 000413   200135 470500                    LDP0    SUBLK$,,AUTO
         5 000414   200136 720100                    LXL0    SUBLOP,,AUTO
         5 000415   000003 471510                    LDP1    3,X0,PR0
         5 000416   100000 721100                    LXL1    0,,PR1
         5 000417   000010 101003                    CMPX1   8,DU
         5 000420   000422 602011 5                  TNC     s:11828+7,X1
         5 000421   000604 710000 5                  TRA     s:11897
         5 000422   000604 710000 5                  TRA     s:11897
         5 000423   000604 710000 5                  TRA     s:11897
         5 000424   000604 710000 5                  TRA     s:11897
         5 000425   000432 710000 5                  TRA     s:11831
         5 000426   000604 710000 5                  TRA     s:11897
         5 000427   000441 710000 5                  TRA     s:11836
         5 000430   000552 710000 5                  TRA     s:11874
         5 000431   000570 710000 5                  TRA     s:11880

     1226    11829        %EJECT;
PL6.E3A0      #004=KSC$SET File=KSC$COMMANDS1.:E05TSI                            WED 07/30/97 01:45 Page:255
     1227    11830    9                                      CASE(%KS_HANDFID);

     1228    11831    9                                        CALL ALTER_FID (SUBLK$->OUT$BLK.SUBLK$(SUBLOP)
             11831                                                 ->OUT$BLK.SUBLK$(0),KS$HNDLR.HNDLRFID);

  11831  5 000432   000160 236000 2                  LDQ     HANDLER$
         5 000433   200242 756100                    STQ     @PTR$+1,,AUTO
         5 000434   100003 633500                    EPPR3   3,,PR1
         5 000435   200241 453500                    STP3    HANDNR+2,,AUTO
         5 000436   003741 701000 5                  TSX1    ALTER_FID
         5 000437   000000 011000                    NOP     0
         5 000440   000604 710000 5                  TRA     s:11897

     1229    11832
     1230    11833        /**/
     1231    11834        %EJECT;
PL6.E3A0      #004=KSC$SET File=KSC$COMMANDS1.:E05TSI                            WED 07/30/97 01:45 Page:256
     1232    11835    9                                      CASE(%KS_HANDREM);

     1233    11836    9                                         IF HNDLRX ~= KS_FEPHNDLR.NHANDLERS-1 THEN

  11836  5 000441   000374 236000 2                  LDQ     KS_FEPHNDLR
         5 000442   000001 136007                    SBLQ    1,DL
         5 000443   000446 604000 5                  TMI     s:11838
         5 000444   200013 116100                    CMPQ    HNDLRX,,AUTO
         5 000445   000467 600000 5                  TZE     s:11844

     1234    11837   10                                            DO; /* search to delete handler */

     1235    11838   11                                            DO K = HNDLRX TO KS_FEPHNDLR.NHANDLERS-1;

  11838  5 000446   200013 235100                    LDA     HNDLRX,,AUTO
         5 000447   200103 755100                    STA     K,,AUTO
         5 000450   000464 710000 5                  TRA     s:11841+2

     1236    11839   11                                               KS_FEPHNDLR.HANDLER(K) = KS_FEPHNDLR.
             11839                                                        HANDLER(K+1);

  11839  5 000451   200103 235100                    LDA     K,,AUTO
         5 000452   000001 735000                    ALS     1
         5 000453   000000 620005                    EAX0    0,AL
         5 000454   000402 237005 2                  LDAQ    KS_FEPHNDLR+6,AL
         5 000455   000400 757010 2                  STAQ    KS_FEPHNDLR+4,X0

     1237    11840   11                                               KS_FEPHNDLR.BOOTIME(K) = KS_FEPHNDLR.
             11840                                                        BOOTIME(K+1);

  11840  5 000456   200103 235100                    LDA     K,,AUTO
         5 000457   003005 060405                    CSL     bolr='003'O
         5 000460   000377 010001 2                  BDSC    KS_FEPHNDLR+3,A          by=0,bit=1,n=1
         5 000461   000377 000001 2                  BDSC    KS_FEPHNDLR+3,A          by=0,bit=0,n=1

     1238    11841   11                                             END; /* if hndlrx ~= nhandlers */

PL6.E3A0      #004=KSC$SET File=KSC$COMMANDS1.:E05TSI                            WED 07/30/97 01:45 Page:257
  11841  5 000462   000001 035007                    ADLA    1,DL
         5 000463   200103 755100                    STA     K,,AUTO
         5 000464   200103 236100                    LDQ     K,,AUTO
         5 000465   000374 116000 2                  CMPQ    KS_FEPHNDLR
         5 000466   000451 602000 5                  TNC     s:11839

     1239    11842   10                                             END;  /* not last handler */

     1240    11843
     1241    11844    9                                          KS_FEPHNDLR.HANDLER(KS_FEPHNDLR.NHANDLERS-1)
             11844                                                   = ' ';

  11844  5 000467   000374 235000 2                  LDA     KS_FEPHNDLR
         5 000470   000001 735000                    ALS     1
         5 000471   000000 620005                    EAX0    0,AL
         5 000472   000035 235000 xsym               LDA     B_VECTNIL+29
         5 000473   000035 236000 xsym               LDQ     B_VECTNIL+29
         5 000474   000376 757010 2                  STAQ    KS_FEPHNDLR+2,X0

     1242    11845    9                                         KS_FEPHNDLR.NHANDLERS = KS_FEPHNDLR.NHANDLERS
             11845                                                   -1;

  11845  5 000475   000374 235000 2                  LDA     KS_FEPHNDLR
         5 000476   000001 135007                    SBLA    1,DL
         5 000477   000374 755000 2                  STA     KS_FEPHNDLR

     1243    11846
     1244    11847             /*
     1245    11848
     1246    11849             */
     1247    11850    9                                            KS_HANDLER_KEY.HNDLR = HANDLERNAME;

  11850  5 000500   040000 100500                    MLR     fill='040'O
         5 000501   200155 000010                    ADSC9   HANDLERNAME,,AUTO        cn=0,n=8
         5 000502   000307 600010 2                  ADSC9   KS_HANDLER_KEY           cn=3,n=8

     1248    11851    9                                            KS_HANDLER_KEY.NODE = KS_NODE;
PL6.E3A0      #004=KSC$SET File=KSC$COMMANDS1.:E05TSI                            WED 07/30/97 01:45 Page:258

  11851  5 000503   000000 236000 xsym               LDQ     KS_NODE
         5 000504   000011 736000                    QLS     9
         5 000505   000307 552010 2                  STBQ    KS_HANDLER_KEY,'10'O

     1249    11852    9                                           DELREC_NETCON.KEY_ = VECTOR(KS_HANDLER_KEY)
             11852                                                     ;

  11852  5 000506   000016 237000 6                  LDAQ    14
         5 000507   001330 757000 2                  STAQ    DELREC_NETCON+2

     1250    11853    9                                            CALL M$DELREC(DELREC_NETCON) WHENALTRETURN

  11853  5 000510   001326 630400 2                  EPPR0   DELREC_NETCON
         5 000511   440002 713400                    CLIMB   alt,+16386
         5 000512   401400 401760                    pmme    nvectors=4
         5 000513   000515 702000 5                  TSX2    s:11857
         5 000514   000515 710000 5                  TRA     s:11857

     1251    11854   10                                               DO;

     1252    11855                                                    /*N* yeah, so do what  */
     1253    11856   10                                               END;

     1254    11857    9                    KS_DEFAULT_KEY.NODE = KS_NODE;

  11857  5 000515   000000 236000 xsym               LDQ     KS_NODE
         5 000516   000011 736000                    QLS     9
         5 000517   000221 552010 2                  STBQ    KS_DEFAULT_KEY,'10'O

     1255    11858    9                    KS_DEFAULT_KEY.HNDLR = HANDLERNAME;

  11858  5 000520   040000 100500                    MLR     fill='040'O
         5 000521   200155 000010                    ADSC9   HANDLERNAME,,AUTO        cn=0,n=8
         5 000522   000221 600010 2                  ADSC9   KS_DEFAULT_KEY           cn=3,n=8

     1256    11859    9                    DELREC_NETCON.KEY_ = VECTOR(KS_DEFAULT_KEY);
PL6.E3A0      #004=KSC$SET File=KSC$COMMANDS1.:E05TSI                            WED 07/30/97 01:45 Page:259

  11859  5 000523   000012 237000 6                  LDAQ    10
         5 000524   001330 757000 2                  STAQ    DELREC_NETCON+2

     1257    11860    9                    CALL M$DELREC (DELREC_NETCON);

  11860  5 000525   001326 630400 2                  EPPR0   DELREC_NETCON
         5 000526   040002 713400                    CLIMB   16386
         5 000527   401400 401760                    pmme    nvectors=4

     1258    11861
     1259    11862   10                    IF ~HNDLREXISTS THEN DO;

  11862  5 000530   200010 236100                    LDQ     HNDLREXISTS,,AUTO
         5 000531   400000 376003                    ANQ     -131072,DU
         5 000532   400000 676003                    ERQ     -131072,DU
         5 000533   000551 600000 5                  TZE     s:11870

     1260    11863   10                       KS_SUB_BUF_1.TEXT = HANDLERNAME;

  11863  5 000534   040000 100500                    MLR     fill='040'O
         5 000535   200155 000010                    ADSC9   HANDLERNAME,,AUTO        cn=0,n=8
         5 000536   000000 200037 xsym               ADSC9   KS_SUB_BUF_1             cn=1,n=31

     1261    11864   10                       KS_SUB_BUF_1.COUNT = SIZEC(HANDLERNAME);

  11864  5 000537   010000 236003                    LDQ     4096,DU
         5 000540   000000 552040 xsym               STBQ    KS_SUB_BUF_1,'40'O

     1262    11865   10                       KS_SUB_BUF_2.TEXT = KS_NODENAME;

  11865  5 000541   040000 100400                    MLR     fill='040'O
         5 000542   000000 000010 xsym               ADSC9   KS_NODENAME              cn=0,n=8
         5 000543   000000 200037 xsym               ADSC9   KS_SUB_BUF_2             cn=1,n=31

     1263    11866   10                       KS_SUB_BUF_2.COUNT = SIZEC(KS_NODENAME);

PL6.E3A0      #004=KSC$SET File=KSC$COMMANDS1.:E05TSI                            WED 07/30/97 01:45 Page:260
  11866  5 000544   000000 552040 xsym               STBQ    KS_SUB_BUF_2,'40'O

     1264    11867   10                      CALL KSE$ERRMSG (%E$KS_HAND_NOT_DEF,VECTOR(KS_SUB_BUF_1),VECTOR(
             11867                                KS_SUB_BUF_2));

  11867  5 000545   000027 630400 6                  EPPR0   23
         5 000546   000021 631400 xsym               EPPR1   B_VECTNIL+17
         5 000547   000000 701000 xent               TSX1    KSE$ERRMSG
         5 000550   000000 011000                    NOP     0

     1265    11868   10                    END;

     1266    11869
     1267    11870    9                                         EXIT SETCODE;  /* prevents rewritting the

  11870  5 000551   000717 710000 5                  TRA     s:11924

     1268    11871                                                              ks$hndlr record to :netcon */
     1269    11872        %EJECT;
PL6.E3A0      #004=KSC$SET File=KSC$COMMANDS1.:E05TSI                            WED 07/30/97 01:45 Page:261
     1270    11873    9                                      CASE(%KS_HANDBT);

     1271    11874    9                                         IF SUBLK$->OUT$BLK.SUBLK$(SUBLOP)->OUT$BLK.
             11874                                                  SUBLK$(0)->OUT$BLK.CODE = %KS_YES THEN

  11874  5 000552   100003 473500                    LDP3    3,,PR1
         5 000553   300000 722100                    LXL2    0,,PR3
         5 000554   000002 102003                    CMPX2   2,DU
         5 000555   000563 601000 5                  TNZ     s:11877

     1272    11875    9                                            KS_FEPHNDLR.BOOTIME(HNDLRX) = '1'B;

  11875  5 000556   200013 235100                    LDA     HNDLRX,,AUTO
         5 000557   003005 060400                    CSL     bolr='003'O
         5 000560   000030 000001 xsym               BDSC    B_VECTNIL+24             by=0,bit=0,n=1
         5 000561   000377 000001 2                  BDSC    KS_FEPHNDLR+3,A          by=0,bit=0,n=1
         5 000562   000604 710000 5                  TRA     s:11897

     1273    11876    9                                         ELSE
     1274    11877    9                                            KS_FEPHNDLR.BOOTIME(HNDLRX) = '0'B;

  11877  5 000563   200013 235100                    LDA     HNDLRX,,AUTO
         5 000564   003005 060400                    CSL     bolr='003'O
         5 000565   000002 000001 xsym               BDSC    B_VECTNIL+2              by=0,bit=0,n=1
         5 000566   000377 000001 2                  BDSC    KS_FEPHNDLR+3,A          by=0,bit=0,n=1
         5 000567   000604 710000 5                  TRA     s:11897

     1275    11878        %EJECT;
PL6.E3A0      #004=KSC$SET File=KSC$COMMANDS1.:E05TSI                            WED 07/30/97 01:45 Page:262
     1276    11879    9                                      CASE(%KS_HANDDEF);

     1277    11880    9                                         IF SUBLK$->OUT$BLK.SUBLK$(SUBLOP)->OUT$BLK.
             11880                                                  NSUBLKS = 0 THEN

  11880  5 000570   100001 222100                    LDX2    1,,PR1
         5 000571   000575 601000 5                  TNZ     s:11883

     1278    11881    9                                            CALL RESET_PARAMS_TO_DEFAULTS;

  11881  5 000572   004103 701000 5                  TSX1    RESET_PARAMS_TO_DEFAULTS
         5 000573   000000 011000                    NOP     0
         5 000574   000604 710000 5                  TRA     s:11897

     1279    11882    9                                         ELSE
     1280    11883    9                                           IF SUBLK$->OUT$BLK.SUBLK$(SUBLOP)->OUT$BLK.
             11883                                                     SUBLK$(0)->

  11883  5 000575   100003 473500                    LDP3    3,,PR1
         5 000576   300003 474500                    LDP4    3,,PR3
         5 000577   400000 723100                    LXL3    0,,PR4
         5 000600   000002 103003                    CMPX3   2,DU
         5 000601   000604 601000 5                  TNZ     s:11897

     1281    11884    9                                               OUT$BLK.SUBLK$(0)->OUT$BLK.CODE = %
             11884                                                        KS_YES THEN
     1282    11885    9                                               CALL RESET_PARAMS_TO_DEFAULTS;

  11885  5 000602   004103 701000 5                  TSX1    RESET_PARAMS_TO_DEFAULTS
         5 000603   000000 011000                    NOP     0

     1283    11886    9                                      END;  /* do case sublk$->out$blk...code */

     1284    11887        /**/
     1285    11888
     1286    11889
     1287    11890
PL6.E3A0      #004=KSC$SET File=KSC$COMMANDS1.:E05TSI                            WED 07/30/97 01:45 Page:263
     1288    11891        /*
     1289    11892
     1290    11893                   COMMENT
     1291    11894        */
     1292    11895
     1293    11896
     1294    11897    8                                   END; /* 13 sublop = 1 to nsublks */

  11897  5 000604   200136 235100                    LDA     SUBLOP,,AUTO
         5 000605   000001 035007                    ADLA    1,DL
         5 000606   200136 755100                    STA     SUBLOP,,AUTO
         5 000607   200135 470500                    LDP0    SUBLK$,,AUTO
         5 000610   000001 236100                    LDQ     1,,PR0
         5 000611   000022 772000                    QRL     18
         5 000612   200136 116100                    CMPQ    SUBLOP,,AUTO
         5 000613   000615 600000 5                  TZE     s:11898
         5 000614   000413 603000 5                  TRC     s:11828

     1295    11898    7                                   END;  /* 12 if nsublks >1 */

  11898  5 000615   000636 710000 5                  TRA     s:11907

     1296    11899    6                                ELSE
     1297    11900    7                                   DO;  /* 15 # sublks = 1 */

     1298    11901    7                                   KS$HNDLR.HNDLRFID = HANDLERNAME;

  11901  5 000616   000160 471400 2                  LDP1    HANDLER$
         5 000617   040100 100500                    MLR     fill='040'O
         5 000620   200155 000010                    ADSC9   HANDLERNAME,,AUTO        cn=0,n=8
         5 000621   100000 000050                    ADSC9   0,,PR1                   cn=0,n=40

     1299    11902    7                                   CALL INDEX (INDX,' ',KS$HNDLR.HNDLRFID);

  11902  5 000622   000000 124500                    SCM     mask='000'O
         5 000623   100000 000050                    ADSC9   0,,PR1                   cn=0,n=40
         5 000624   000035 000001 xsym               ADSC9   B_VECTNIL+29             cn=0,n=1
PL6.E3A0      #004=KSC$SET File=KSC$COMMANDS1.:E05TSI                            WED 07/30/97 01:45 Page:264
         5 000625   200017 000100                    ARG     INDX,,AUTO

     1300    11903    7                                   SUBSTR(KS$HNDLR.HNDLRFID,INDX,5) = '.:SYS';

  11903  5 000626   200017 235100                    LDA     INDX,,AUTO
         5 000627   040105 100400                    MLR     fill='040'O
         5 000630   000073 000005 1                  ADSC9   FEP+5                    cn=0,n=5
         5 000631   100000 000005                    ADSC9   0,A,PR1                  cn=0,n=5

     1301    11904    7                                   KS_FEPHNDLR.BOOTIME(HNDLRX) = '1'B;

  11904  5 000632   200013 236100                    LDQ     HNDLRX,,AUTO
         5 000633   003006 060400                    CSL     bolr='003'O
         5 000634   000030 000001 xsym               BDSC    B_VECTNIL+24             by=0,bit=0,n=1
         5 000635   000377 000001 2                  BDSC    KS_FEPHNDLR+3,Q          by=0,bit=0,n=1

     1302    11905    7                                   END;

     1303    11906        /**/
     1304    11907    7                                IF KS$HNDLR.NPARAMI > 0 THEN DO;

  11907  5 000636   000160 470400 2                  LDP0    HANDLER$
         5 000637   000014 236100                    LDQ     12,,PR0
         5 000640   000777 316007                    CANQ    511,DL
         5 000641   000660 600000 5                  TZE     s:11912

     1305    11908    7                                    PTR$ = PINCRW(ADDR(HNDLR_BUF),KS$HNDLR.IPARAM.
             11908                                             OFFSET(KS$HNDLR.NPARAMI-1));

  11908  5 000642   000014 720100                    LXL0    12,,PR0
         5 000643   000777 360003                    ANX0    511,DU
         5 000644   000033 221110                    LDX1    27,X0,PR0
         5 000645   000013 631411 2                  EPPR1   HNDLR_BUF,X1
         5 000646   200147 451500                    STP1    PTR$,,AUTO

     1306    11909    7                                   PTR$ = PINCRW(PTR$,(KS$HNDLR.IPARAM.ARRAY_SZ(
             11909                                            KS$HNDLR.NPARAMI - 1) + 2)/2);
PL6.E3A0      #004=KSC$SET File=KSC$COMMANDS1.:E05TSI                            WED 07/30/97 01:45 Page:265

  11909  5 000647   000032 236110                    LDQ     26,X0,PR0
         5 000650   000011 772000                    QRL     9
         5 000651   000777 376007                    ANQ     511,DL
         5 000652   000002 036007                    ADLQ    2,DL
         5 000653   000001 772000                    QRL     1
         5 000654   000022 736000                    QLS     18
         5 000655   200147 036100                    ADLQ    PTR$,,AUTO
         5 000656   200147 756100                    STQ     PTR$,,AUTO

     1307    11910    7                                   END;

  11910  5 000657   000664 710000 5                  TRA     s:11915

     1308    11911    7                                ELSE DO;

     1309    11912    7                                   PTR$ = ADDR(HNDLR_BUF);

  11912  5 000660   000021 236000 6                  LDQ     17
         5 000661   200147 756100                    STQ     PTR$,,AUTO

     1310    11913    7                                   PTR$ = PINCRW(PTR$,SIZEW(KS_HANDLER)+1);

  11913  5 000662   000037 036003                    ADLQ    31,DU
         5 000663   200147 756100                    STQ     PTR$,,AUTO

     1311    11914    7                                   END;

     1312    11915    6                                WRITE_NETCON.BUF_ = VECTOR(HNDLR_BUF);

  11915  5 000664   000020 237000 6                  LDAQ    16
         5 000665   001316 757000 2                  STAQ    WRITE_NETCON+4

     1313    11916    6                                WRITE_NETCON.KEY_ = VECTOR(KS_HANDLER_KEY);

  11916  5 000666   000016 237000 6                  LDAQ    14
         5 000667   001314 757000 2                  STAQ    WRITE_NETCON+2
PL6.E3A0      #004=KSC$SET File=KSC$COMMANDS1.:E05TSI                            WED 07/30/97 01:45 Page:266

     1314    11917    6                                KS_HANDLER_KEY.NODE = KS_NODE;

  11917  5 000670   000000 236000 xsym               LDQ     KS_NODE
         5 000671   000011 736000                    QLS     9
         5 000672   000307 552010 2                  STBQ    KS_HANDLER_KEY,'10'O

     1315    11918    6                                KS_HANDLER_KEY.HNDLR = KS_FEPHNDLR.HANDLER(HNDLRX);

  11918  5 000673   200013 236100                    LDQ     HNDLRX,,AUTO
         5 000674   000003 736000                    QLS     3
         5 000675   040000 100406                    MLR     fill='040'O
         5 000676   000400 000010 2                  ADSC9   KS_FEPHNDLR+4,Q          cn=0,n=8
         5 000677   000307 600010 2                  ADSC9   KS_HANDLER_KEY           cn=3,n=8

     1316    11919    6                               WRITE_NETCON.BUF_.BOUND = POFFC(PTR$,ADDR(HNDLR_BUF)) -
             11919                                         1;

  11919  5 000700   000021 236000 6                  LDQ     17
         5 000701   000020 772000                    QRL     16
         5 000702   200244 756100                    STQ     @TARGET+2,,AUTO
         5 000703   200147 236100                    LDQ     PTR$,,AUTO
         5 000704   000020 772000                    QRL     16
         5 000705   200244 136100                    SBLQ    @TARGET+2,,AUTO
         5 000706   000001 136007                    SBLQ    1,DL
         5 000707   000020 736000                    QLS     16
         5 000710   001316 676000 2                  ERQ     WRITE_NETCON+4
         5 000711   000034 376000 xsym               ANQ     B_VECTNIL+28
         5 000712   001316 656000 2                  ERSQ    WRITE_NETCON+4

     1317    11920    6                                CALL M$WRITE(WRITE_NETCON) ALTRET(SET_ERR);

  11920  5 000713   001312 630400 2                  EPPR0   WRITE_NETCON
         5 000714   440001 713400                    CLIMB   alt,write
         5 000715   401400 401760                    pmme    nvectors=4
         5 000716   003344 702000 5                  TSX2    SET_ERR

PL6.E3A0      #004=KSC$SET File=KSC$COMMANDS1.:E05TSI                            WED 07/30/97 01:45 Page:267
     1318    11921        /**/
     1319    11922
     1320    11923    6                       END;  /* do case (tmp$->out$blk.code) */

     1321    11924    5                    END;    /* do SCNOPTS = 0 to nsublks at set boot level 2*/

  11924  5 000717   200134 235100                    LDA     SCNOPTS,,AUTO
         5 000720   000001 035007                    ADLA    1,DL
         5 000721   200134 755100                    STA     SCNOPTS,,AUTO
         5 000722   200145 470500                    LDP0    BLK$,,AUTO
         5 000723   000001 236100                    LDQ     1,,PR0
         5 000724   000022 772000                    QRL     18
         5 000725   200134 116100                    CMPQ    SCNOPTS,,AUTO
         5 000726   000730 600000 5                  TZE     s:11925
         5 000727   000060 603000 5                  TRC     s:11745

     1322    11925    4                    I = 0;

  11925  5 000730   200016 450100                    STZ     I,,AUTO

     1323    11926    4                    L = KS_FEPHNDLR.NHANDLERS;

  11926  5 000731   000374 235000 2                  LDA     KS_FEPHNDLR
         5 000732   200124 755100                    STA     L,,AUTO

     1324    11927    5                    DO WHILE (I <= L-2);

  11927  5 000733   001000 710000 5                  TRA     s:11942

     1325    11928    5                       IF KS_FEPHNDLR.HANDLER(I) = ' ' THEN

  11928  5 000734   200016 235100                    LDA     I,,AUTO
         5 000735   000001 735000                    ALS     1
         5 000736   000400 237005 2                  LDAQ    KS_FEPHNDLR+4,AL
         5 000737   000032 117000 6                  CMPAQ   26
         5 000740   000775 601000 5                  TNZ     s:11941

PL6.E3A0      #004=KSC$SET File=KSC$COMMANDS1.:E05TSI                            WED 07/30/97 01:45 Page:268
     1326    11929    6                          DO;

     1327    11930        /*
     1328    11931                if a blank exists in the handler list delete it, move the handlers
     1329    11932                up and decrement nhandlers.
     1330    11933        */
     1331    11934    7                          DO J = I TO KS_FEPHNDLR.NHANDLERS-2;

  11934  5 000741   200016 235100                    LDA     I,,AUTO
         5 000742   200102 755100                    STA     J,,AUTO
         5 000743   000757 710000 5                  TRA     s:11937+2

     1332    11935    7                             KS_FEPHNDLR.HANDLER(J) = KS_FEPHNDLR.HANDLER(J+1);

  11935  5 000744   200102 235100                    LDA     J,,AUTO
         5 000745   000001 735000                    ALS     1
         5 000746   000000 620005                    EAX0    0,AL
         5 000747   000402 237005 2                  LDAQ    KS_FEPHNDLR+6,AL
         5 000750   000400 757010 2                  STAQ    KS_FEPHNDLR+4,X0

     1333    11936    7                             KS_FEPHNDLR.BOOTIME(J) = KS_FEPHNDLR.BOOTIME(J+1);

  11936  5 000751   200102 235100                    LDA     J,,AUTO
         5 000752   003005 060405                    CSL     bolr='003'O
         5 000753   000377 010001 2                  BDSC    KS_FEPHNDLR+3,A          by=0,bit=1,n=1
         5 000754   000377 000001 2                  BDSC    KS_FEPHNDLR+3,A          by=0,bit=0,n=1

     1334    11937    7                          END;

  11937  5 000755   000001 035007                    ADLA    1,DL
         5 000756   200102 755100                    STA     J,,AUTO
         5 000757   000374 236000 2                  LDQ     KS_FEPHNDLR
         5 000760   000002 136007                    SBLQ    2,DL
         5 000761   000764 604000 5                  TMI     s:11938
         5 000762   200102 116100                    CMPQ    J,,AUTO
         5 000763   000744 603000 5                  TRC     s:11935

PL6.E3A0      #004=KSC$SET File=KSC$COMMANDS1.:E05TSI                            WED 07/30/97 01:45 Page:269
     1335    11938    6                          KS_FEPHNDLR.HANDLER(KS_FEPHNDLR.NHANDLERS-1) = ' ';

  11938  5 000764   000374 235000 2                  LDA     KS_FEPHNDLR
         5 000765   000001 735000                    ALS     1
         5 000766   000000 620005                    EAX0    0,AL
         5 000767   000035 235000 xsym               LDA     B_VECTNIL+29
         5 000770   000035 236000 xsym               LDQ     B_VECTNIL+29
         5 000771   000376 757010 2                  STAQ    KS_FEPHNDLR+2,X0

     1336    11939    6                          KS_FEPHNDLR.NHANDLERS = KS_FEPHNDLR.NHANDLERS - 1;

  11939  5 000772   000374 235000 2                  LDA     KS_FEPHNDLR
         5 000773   000001 135007                    SBLA    1,DL
         5 000774   000374 755000 2                  STA     KS_FEPHNDLR

     1337    11940    6                          END;

     1338    11941    5                    I = I + 1;

  11941  5 000775   200016 235100                    LDA     I,,AUTO
         5 000776   000001 035007                    ADLA    1,DL
         5 000777   200016 755100                    STA     I,,AUTO

     1339    11942    5                    END;  /* do while  */

  11942  5 001000   200124 236100                    LDQ     L,,AUTO
         5 001001   000002 136007                    SBLQ    2,DL
         5 001002   001005 604000 5                  TMI     s:11943
         5 001003   200016 116100                    CMPQ    I,,AUTO
         5 001004   000734 603000 5                  TRC     s:11928

     1340    11943    4                    IF KS_FEPHNDLR.HANDLER(KS_FEPHNDLR.NHANDLERS-1) = ' ' THEN

  11943  5 001005   000374 235000 2                  LDA     KS_FEPHNDLR
         5 001006   000001 735000                    ALS     1
         5 001007   000376 237005 2                  LDAQ    KS_FEPHNDLR+2,AL
         5 001010   000032 117000 6                  CMPAQ   26
PL6.E3A0      #004=KSC$SET File=KSC$COMMANDS1.:E05TSI                            WED 07/30/97 01:45 Page:270
         5 001011   001015 601000 5                  TNZ     s:11946

     1341    11944    4                       KS_FEPHNDLR.NHANDLERS = KS_FEPHNDLR.NHANDLERS-1;

  11944  5 001012   000374 235000 2                  LDA     KS_FEPHNDLR
         5 001013   000001 135007                    SBLA    1,DL
         5 001014   000374 755000 2                  STA     KS_FEPHNDLR

     1342    11945
     1343    11946    4                    IF KS_FEPHNDLR.HANDLER(0) ~= 'NODEADMN' THEN

  11946  5 001015   040000 106400                    CMPC    fill='040'O
         5 001016   000400 000010 2                  ADSC9   KS_FEPHNDLR+4            cn=0,n=8
         5 001017   000075 000010 1                  ADSC9   FEP+7                    cn=0,n=8
         5 001020   001025 600000 5                  TZE     s:11953

     1344    11947    4                       CALL KSE$ERRMSG (%E$KS_NODEADMN_NOT_FIRST);

  11947  5 001021   000035 630400 6                  EPPR0   29
         5 001022   000017 631400 xsym               EPPR1   B_VECTNIL+15
         5 001023   000000 701000 xent               TSX1    KSE$ERRMSG
         5 001024   000000 011000                    NOP     0

     1345    11948
     1346    11949
     1347    11950
     1348    11951
     1349    11952        /**/
     1350    11953    4                    KS_FEPHNDLR_KEY.NODE = KS_NODE;

  11953  5 001025   000000 236000 xsym               LDQ     KS_NODE
         5 001026   000011 736000                    QLS     9
         5 001027   000452 552010 2                  STBQ    KS_FEPHNDLR_KEY,'10'O

     1351    11954    4                    WRITE_NETCON.BUF_ = VECTOR(KS_FEPHNDLR);

  11954  5 001030   000002 237000 6                  LDAQ    2
PL6.E3A0      #004=KSC$SET File=KSC$COMMANDS1.:E05TSI                            WED 07/30/97 01:45 Page:271
         5 001031   001316 757000 2                  STAQ    WRITE_NETCON+4

     1352    11955    4                    WRITE_NETCON.KEY_ = VECTOR(KS_FEPHNDLR_KEY);

  11955  5 001032   000004 237000 6                  LDAQ    4
         5 001033   001314 757000 2                  STAQ    WRITE_NETCON+2

     1353    11956    4                    WRITE_NETCON.BUF_.BOUND = SIZEC(KS_FEPHNDLR.NHANDLERS) +

  11956  5 001034   000374 236000 2                  LDQ     KS_FEPHNDLR
         5 001035   000003 736000                    QLS     3
         5 001036   000017 036007                    ADLQ    15,DL
         5 001037   000020 736000                    QLS     16
         5 001040   001316 676000 2                  ERQ     WRITE_NETCON+4
         5 001041   000034 376000 xsym               ANQ     B_VECTNIL+28
         5 001042   001316 656000 2                  ERSQ    WRITE_NETCON+4

     1354    11957    4                                              SIZEC(KS_FEPHNDLR.DEFLIBACCT) +
     1355    11958    4                                               4 + /* bootime bits */
     1356    11959    4                                              (SIZEC(KS_FEPHNDLR.HANDLER(0)) *
     1357    11960    4                                              KS_FEPHNDLR.NHANDLERS) - 1;
     1358    11961    4                    CALL M$WRITE(WRITE_NETCON) ALTRET(SET_ERR);

  11961  5 001043   001312 630400 2                  EPPR0   WRITE_NETCON
         5 001044   440001 713400                    CLIMB   alt,write
         5 001045   401400 401760                    pmme    nvectors=4
         5 001046   003344 702000 5                  TSX2    SET_ERR

     1359    11962    4                    END;   /* sublks on set boot command 1 */

  11962  5 001047   003726 710000 5                  TRA     END_LOOP

     1360    11963    3                  ELSE
     1361    11964        %EJECT;
PL6.E3A0      #004=KSC$SET File=KSC$COMMANDS1.:E05TSI                            WED 07/30/97 01:45 Page:272
     1362    11965
     1363    11966            /* no options on the SET BOOT command - the old style (prompted)*/
     1364    11967
     1365    11968    3   PROMPTED_SET_BOOT:
     1366    11969    4        DO;

  11969  5 001050                       PROMPTED_SE* null
     1367    11970    4           KS_FEPBOOT_KEY.NODE = KS_NODE;

  11970  5 001050   000000 236000 xsym               LDQ     KS_NODE
         5 001051   000011 736000                    QLS     9
         5 001052   000344 552010 2                  STBQ    KS_FEPBOOT_KEY,'10'O

     1368    11971    4           KS_FEPHNDLR_KEY.NODE = KS_NODE;

  11971  5 001053   000000 236000 xsym               LDQ     KS_NODE
         5 001054   000011 736000                    QLS     9
         5 001055   000452 552010 2                  STBQ    KS_FEPHNDLR_KEY,'10'O

     1369    11972    4           KS_HANDLER_KEY.NODE = KS_NODE;

  11972  5 001056   000000 236000 xsym               LDQ     KS_NODE
         5 001057   000011 736000                    QLS     9
         5 001060   000307 552010 2                  STBQ    KS_HANDLER_KEY,'10'O

     1370    11973    4           KS_SUB_BUF_1.COUNT = SIZEC('BOOTINFO');

  11973  5 001061   010000 236003                    LDQ     4096,DU
         5 001062   000000 552040 xsym               STBQ    KS_SUB_BUF_1,'40'O

     1371    11974    4           KS_SUB_BUF_1.TEXT = 'BOOTINFO';

  11974  5 001063   040000 100400                    MLR     fill='040'O
         5 001064   000077 000010 1                  ADSC9   FEP+9                    cn=0,n=8
         5 001065   000000 200037 xsym               ADSC9   KS_SUB_BUF_1             cn=1,n=31

     1372    11975
PL6.E3A0      #004=KSC$SET File=KSC$COMMANDS1.:E05TSI                            WED 07/30/97 01:45 Page:273
     1373    11976             /* change monitor fid in KS_FEPBOOT record */
     1374    11977
     1375    11978    4   MONFID: CALL KSU$READ_NETCON (VECTOR(KS_FEPBOOT_KEY),

  11978  5 001066   000036 630400 6     MONFID       EPPR0   30
         5 001067   000020 631400 xsym               EPPR1   B_VECTNIL+16
         5 001070   000000 701000 xent               TSX1    KSU$READ_NETCON
         5 001071   003344 702000 5                  TSX2    SET_ERR

     1376    11979    4                                 VECTOR(KS_FEPBOOT)) ALTRET (SET_ERR);
     1377    11980
     1378    11981             /* strip blanks from end of monitor fid,print it, */
     1379    11982             /*if a new fid is entered, change it and write out new FEPBOOT*/
     1380    11983
     1381    11984    4           CALL INDEX (J,' ',KS_FEPBOOT.BOOTFID) WHENALTRETURN

  11984  5 001072   000000 124400                    SCM     mask='000'O
         5 001073   000312 000050 2                  ADSC9   KS_FEPBOOT               cn=0,n=40
         5 001074   000035 000001 xsym               ADSC9   B_VECTNIL+29             cn=0,n=1
         5 001075   200102 000100                    ARG     J,,AUTO
         5 001076   001100 606400 5                  TTN     s:11986
         5 001077   001102 710000 5                  TRA     s:11988

     1382    11985    5              DO;

     1383    11986    5                 J = SIZEC(KS_FEPBOOT.BOOTFID);

  11986  5 001100   000050 235007                    LDA     40,DL
         5 001101   200102 755100                    STA     J,,AUTO

     1384    11987    5              END;

     1385    11988    4           TEXTC.COUNT = J;

  11988  5 001102   200102 236100                    LDQ     J,,AUTO
         5 001103   000033 736000                    QLS     27
         5 001104   000000 552040 2                  STBQ    TEXTC,'40'O
PL6.E3A0      #004=KSC$SET File=KSC$COMMANDS1.:E05TSI                            WED 07/30/97 01:45 Page:274

     1386    11989    4           TEXTC.TEXT = SUBSTR(KS_FEPBOOT.BOOTFID,0,J);

  11989  5 001105   200102 720100                    LXL0    J,,AUTO
         5 001106   040000 100440                    MLR     fill='040'O
         5 001107   000312 000010 2                  ADSC9   KS_FEPBOOT               cn=0,n=*X0
         5 001110   000000 200050 2                  ADSC9   TEXTC                    cn=1,n=40

     1387    11990    4           CALL KSW$WRITE(VECTOR(MONFID),VECTOR(TEXTC));

  11990  5 001111   000044 630400 6                  EPPR0   36
         5 001112   000020 631400 xsym               EPPR1   B_VECTNIL+16
         5 001113   000000 701000 xent               TSX1    KSW$WRITE
         5 001114   000000 011000                    NOP     0

     1388    11991    4           CALL XUR$GETCMD(KS_FID,TOP2$,VECTOR(EQUALS));

  11991  5 001115   000050 236000 6                  LDQ     40
         5 001116   200246 756100                    STQ     @TARGET+4,,AUTO
         5 001117   200146 630500                    EPPR0   TOP2$,,AUTO
         5 001120   200245 450500                    STP0    @TARGET+3,,AUTO
         5 001121   000051 236000 6                  LDQ     41
         5 001122   200244 756100                    STQ     @TARGET+2,,AUTO
         5 001123   200244 630500                    EPPR0   @TARGET+2,,AUTO
         5 001124   000021 631400 xsym               EPPR1   B_VECTNIL+17
         5 001125   000000 701000 xent               TSX1    XUR$GETCMD
         5 001126   000000 011000                    NOP     0

     1389    11992    4           IF TOP2$->OUT$BLK2.NSUBLKS ~= 0 THEN

  11992  5 001127   200146 470500                    LDP0    TOP2$,,AUTO
         5 001130   000001 220100                    LDX0    1,,PR0
         5 001131   001144 600000 5                  TZE     NHNDLRS

     1390    11993    5              DO;

     1391    11994    5                 CALL ALTER_FID (TOP2$,KS_FEPBOOT.BOOTFID);
PL6.E3A0      #004=KSC$SET File=KSC$COMMANDS1.:E05TSI                            WED 07/30/97 01:45 Page:275

  11994  5 001132   000007 236000 6                  LDQ     7
         5 001133   200242 756100                    STQ     @PTR$+1,,AUTO
         5 001134   200146 631500                    EPPR1   TOP2$,,AUTO
         5 001135   200241 451500                    STP1    HANDNR+2,,AUTO
         5 001136   003741 701000 5                  TSX1    ALTER_FID
         5 001137   000000 011000                    NOP     0

     1392    11995    5                 CALL KSU$WRITE_NETCON (VECTOR(KS_FEPBOOT_KEY),

  11995  5 001140   000036 630400 6                  EPPR0   30
         5 001141   000020 631400 xsym               EPPR1   B_VECTNIL+16
         5 001142   000000 701000 xent               TSX1    KSU$WRITE_NETCON
         5 001143   003344 702000 5                  TSX2    SET_ERR

     1393    11996    5                    VECTOR(KS_FEPBOOT)) ALTRET (SET_ERR);
     1394    11997    5              END;

     1395    11998                /* Change Handler information */
     1396    11999
     1397    12000         /* Get the number of handlers - read FEPHANDLER record and save the number and the
             12000        names */
     1398    12001
     1399    12002    4   NHNDLRS:
     1400    12003    4           CALL KSU$READ_NETCON (VECTOR(KS_FEPHNDLR_KEY),

  12003  5 001144   000052 630400 6     NHNDLRS      EPPR0   42
         5 001145   000020 631400 xsym               EPPR1   B_VECTNIL+16
         5 001146   000000 701000 xent               TSX1    KSU$READ_NETCON
         5 001147   003344 702000 5                  TSX2    SET_ERR

     1401    12004    4                                 VECTOR(KS_FEPHNDLR)) ALTRET (SET_ERR);
     1402    12005    4           OLD_NRHAND = KS_FEPHNDLR.NHANDLERS;

  12005  5 001150   000374 235000 2                  LDA     KS_FEPHNDLR
         5 001151   200232 755100                    STA     OLD_NRHAND,,AUTO

PL6.E3A0      #004=KSC$SET File=KSC$COMMANDS1.:E05TSI                            WED 07/30/97 01:45 Page:276
     1403    12006    4           OLD_HANDLER = KS_FEPHNDLR.HANDLER;

  12006  5 001152   000100 100400                    MLR     fill='000'O
         5 001153   000400 000250 2                  ADSC9   KS_FEPHNDLR+4            cn=0,n=168
         5 001154   200157 000250                    ADSC9   OLD_HANDLER,,AUTO        cn=0,n=168

     1404    12007    4           OLD_BOOTIME = KS_FEPHNDLR.BOOTIME;

  12007  5 001155   000377 236000 2                  LDQ     KS_FEPHNDLR+3
         5 001156   200231 676100                    ERQ     OLD_BOOTIME,,AUTO
         5 001157   000054 376000 6                  ANQ     44
         5 001160   200231 656100                    ERSQ    OLD_BOOTIME,,AUTO

     1405    12008
     1406    12009             /* Prompt for a new number of handlers - if changed put in record*/
     1407    12010
     1408    12011    4           CALL KSW$WRITE(VECTOR(NHNDLRS),VECTOR(KS_FEPHNDLR.NHANDLERS));

  12011  5 001161   000062 630400 6                  EPPR0   50
         5 001162   000020 631400 xsym               EPPR1   B_VECTNIL+16
         5 001163   000000 701000 xent               TSX1    KSW$WRITE
         5 001164   000000 011000                    NOP     0

     1409    12012    4           CALL XUR$GETCMD(KS_NRHAND,TOP2$,VECTOR(EQUALS));

  12012  5 001165   000050 236000 6                  LDQ     40
         5 001166   200246 756100                    STQ     @TARGET+4,,AUTO
         5 001167   200146 630500                    EPPR0   TOP2$,,AUTO
         5 001170   200245 450500                    STP0    @TARGET+3,,AUTO
         5 001171   000055 236000 6                  LDQ     45
         5 001172   200244 756100                    STQ     @TARGET+2,,AUTO
         5 001173   200244 630500                    EPPR0   @TARGET+2,,AUTO
         5 001174   000021 631400 xsym               EPPR1   B_VECTNIL+17
         5 001175   000000 701000 xent               TSX1    XUR$GETCMD
         5 001176   000000 011000                    NOP     0

     1410    12013    4           IF TOP2$->OUT$BLK.NSUBLKS ~= 0 THEN
PL6.E3A0      #004=KSC$SET File=KSC$COMMANDS1.:E05TSI                            WED 07/30/97 01:45 Page:277

  12013  5 001177   200146 470500                    LDP0    TOP2$,,AUTO
         5 001200   000001 220100                    LDX0    1,,PR0
         5 001201   001212 600000 5                  TZE     CHANGE_HANDLERS

     1411    12014    4              CALL CHARBIN (KS_FEPHNDLR.NHANDLERS,TOP2$->OUT$SYM.TEXT);

  12014  5 001202   000004 236100                    LDQ     4,,PR0
         5 001203   000033 772000                    QRL     27
         5 001204   000000 621006                    EAX1    0,QL
         5 001205   000100 305540                    DTB
         5 001206   000004 230011                    NDSC9   4,,PR0                   cn=1,s=nosgn,sf=0,n=*X1
         5 001207   200244 000010                    NDSC9   @TARGET+2,,AUTO          cn=0,s=lsgnf,sf=0,n=8
         5 001210   200245 235100                    LDA     @TARGET+3,,AUTO
         5 001211   000374 755000 2                  STA     KS_FEPHNDLR

     1412    12015
     1413    12016        /* Prompt for changes to the names and fids for the number of handlers just entered
             12016         */
     1414    12017
     1415    12018    4   CHANGE_HANDLERS:
     1416    12019    5           DO J = 0 TO KS_FEPHNDLR.NHANDLERS - 1;

  12019  5 001212   200102 450100       CHANGE_HAND* STZ     J,,AUTO
         5 001213   001546 710000 5                  TRA     s:12091+3

     1417    12020    5              HANDNR = J + 1;

  12020  5 001214   200102 235100                    LDA     J,,AUTO
         5 001215   000001 035007                    ADLA    1,DL
         5 001216   200237 755100                    STA     HANDNR,,AUTO

     1418    12021    5              RECORD_CHANGED = '0'B;

  12021  5 001217   200234 450100                    STZ     RECORD_CHANGED,,AUTO

     1419    12022    5              CALL INDEX (K,' ',KS_FEPHNDLR.HANDLER(J));
PL6.E3A0      #004=KSC$SET File=KSC$COMMANDS1.:E05TSI                            WED 07/30/97 01:45 Page:278

  12022  5 001220   200102 236100                    LDQ     J,,AUTO
         5 001221   000003 736000                    QLS     3
         5 001222   000000 124406                    SCM     mask='000'O
         5 001223   000400 000010 2                  ADSC9   KS_FEPHNDLR+4,Q          cn=0,n=8
         5 001224   000035 000001 xsym               ADSC9   B_VECTNIL+29             cn=0,n=1
         5 001225   200103 000100                    ARG     K,,AUTO

     1420    12023    5              TEXTC.COUNT = K;

  12023  5 001226   200103 236100                    LDQ     K,,AUTO
         5 001227   000033 736000                    QLS     27
         5 001230   000000 552040 2                  STBQ    TEXTC,'40'O

     1421    12024    5              TEXTC.TEXT = SUBSTR(KS_FEPHNDLR.HANDLER(J),0,K);

  12024  5 001231   200102 236100                    LDQ     J,,AUTO
         5 001232   000003 736000                    QLS     3
         5 001233   200103 720100                    LXL0    K,,AUTO
         5 001234   040000 100446                    MLR     fill='040'O
         5 001235   000400 000010 2                  ADSC9   KS_FEPHNDLR+4,Q          cn=0,n=*X0
         5 001236   000000 200050 2                  ADSC9   TEXTC                    cn=1,n=40

     1422    12025    5              CALL KSW$WRITE (VECTOR(HNDLRNAME),VECTOR(HANDNR),VECTOR(TEXTC));

  12025  5 001237   777640 235007                    LDA     -96,DL
         5 001240   200244 452500                    STP2    @TARGET+2,,AUTO
         5 001241   200244 236100                    LDQ     @TARGET+2,,AUTO
         5 001242   000237 036003                    ADLQ    159,DU
         5 001243   200246 757100                    STAQ    @TARGET+4,,AUTO
         5 001244   000045 236000 6                  LDQ     37
         5 001245   200252 756100                    STQ     @TARGET+8,,AUTO
         5 001246   200246 630500                    EPPR0   @TARGET+4,,AUTO
         5 001247   200251 450500                    STP0    @TARGET+7,,AUTO
         5 001250   000066 236000 6                  LDQ     54
         5 001251   200250 756100                    STQ     @TARGET+6,,AUTO
         5 001252   200250 630500                    EPPR0   @TARGET+6,,AUTO
PL6.E3A0      #004=KSC$SET File=KSC$COMMANDS1.:E05TSI                            WED 07/30/97 01:45 Page:279
         5 001253   000021 631400 xsym               EPPR1   B_VECTNIL+17
         5 001254   000000 701000 xent               TSX1    KSW$WRITE
         5 001255   000000 011000                    NOP     0

     1423    12026    5              CALL XUR$GETCMD(KS_HAND,TOP2$,VECTOR(EQUALS));

  12026  5 001256   000050 236000 6                  LDQ     40
         5 001257   200246 756100                    STQ     @TARGET+4,,AUTO
         5 001260   200146 630500                    EPPR0   TOP2$,,AUTO
         5 001261   200245 450500                    STP0    @TARGET+3,,AUTO
         5 001262   000067 236000 6                  LDQ     55
         5 001263   200244 756100                    STQ     @TARGET+2,,AUTO
         5 001264   200244 630500                    EPPR0   @TARGET+2,,AUTO
         5 001265   000021 631400 xsym               EPPR1   B_VECTNIL+17
         5 001266   000000 701000 xent               TSX1    XUR$GETCMD
         5 001267   000000 011000                    NOP     0

     1424    12027    5              IF TOP2$->OUT$BLK.NSUBLKS ~= 0 THEN

  12027  5 001270   200146 470500                    LDP0    TOP2$,,AUTO
         5 001271   000001 220100                    LDX0    1,,PR0
         5 001272   001304 600000 5                  TZE     s:12029

     1425    12028    5                 KS_FEPHNDLR.HANDLER(J) = TOP2$->OUT$SYM.TEXT;

  12028  5 001273   200102 235100                    LDA     J,,AUTO
         5 001274   000001 735000                    ALS     1
         5 001275   000004 236100                    LDQ     4,,PR0
         5 001276   000033 772000                    QRL     27
         5 001277   000002 735000                    ALS     2
         5 001300   000000 621006                    EAX1    0,QL
         5 001301   040005 100540                    MLR     fill='040'O
         5 001302   000004 200011                    ADSC9   4,,PR0                   cn=1,n=*X1
         5 001303   000400 000010 2                  ADSC9   KS_FEPHNDLR+4,A          cn=0,n=8

     1426    12029    5              KS_HANDLER_KEY.HNDLR = KS_FEPHNDLR.HANDLER(J);

PL6.E3A0      #004=KSC$SET File=KSC$COMMANDS1.:E05TSI                            WED 07/30/97 01:45 Page:280
  12029  5 001304   200102 235100                    LDA     J,,AUTO
         5 001305   000003 735000                    ALS     3
         5 001306   040000 100405                    MLR     fill='040'O
         5 001307   000400 000010 2                  ADSC9   KS_FEPHNDLR+4,A          cn=0,n=8
         5 001310   000307 600010 2                  ADSC9   KS_HANDLER_KEY           cn=3,n=8

     1427    12030             /* Search for handler on old handler list,If found - read record*/
     1428    12031             /* If not found - create a handler record */
     1429    12032
     1430    12033    5              HANDLER_FOUND = '0'B;

  12033  5 001311   200235 450100                    STZ     HANDLER_FOUND,,AUTO

     1431    12034    5   FIND_HANDLER:
     1432    12035    6              DO K = 0 TO OLD_NRHAND - 1;

  12035  5 001312   200103 450100       FIND_HANDLER STZ     K,,AUTO
         5 001313   001332 710000 5                  TRA     s:12041+3

     1433    12036    6                 IF KS_FEPHNDLR.HANDLER(J) = OLD_HANDLER(K) THEN

  12036  5 001314   200102 235100                    LDA     J,,AUTO
         5 001315   000003 735000                    ALS     3
         5 001316   200103 236100                    LDQ     K,,AUTO
         5 001317   000003 736000                    QLS     3
         5 001320   040106 106405                    CMPC    fill='040'O
         5 001321   000400 000010 2                  ADSC9   KS_FEPHNDLR+4,A          cn=0,n=8
         5 001322   200157 000010                    ADSC9   OLD_HANDLER,Q,AUTO       cn=0,n=8
         5 001323   001327 601000 5                  TNZ     s:12041

     1434    12037    7                    DO;

     1435    12038    7                       HANDLER_FOUND = '1'B;

  12038  5 001324   400000 236003                    LDQ     -131072,DU
         5 001325   200235 756100                    STQ     HANDLER_FOUND,,AUTO

PL6.E3A0      #004=KSC$SET File=KSC$COMMANDS1.:E05TSI                            WED 07/30/97 01:45 Page:281
     1436    12039    7                       EXIT FIND_HANDLER;

  12039  5 001326   001335 710000 5                  TRA     s:12043

     1437    12040    7                    END;
     1438    12041    6              END;

  12041  5 001327   200103 235100                    LDA     K,,AUTO
         5 001330   000001 035007                    ADLA    1,DL
         5 001331   200103 755100                    STA     K,,AUTO
         5 001332   200103 236100                    LDQ     K,,AUTO
         5 001333   200232 116100                    CMPQ    OLD_NRHAND,,AUTO
         5 001334   001314 602000 5                  TNC     s:12036

     1439    12042
     1440    12043    5              IF HANDLER_FOUND THEN

  12043  5 001335   200235 234100                    SZN     HANDLER_FOUND,,AUTO
         5 001336   001351 605000 5                  TPL     s:12050

     1441    12044    6                 DO;

     1442    12045    6                    CALL KSU$READ_NETCON (VECTOR(KS_HANDLER_KEY),VECTOR(HNDLR_BUF));

  12045  5 001337   000070 630400 6                  EPPR0   56
         5 001340   000020 631400 xsym               EPPR1   B_VECTNIL+16
         5 001341   000000 701000 xent               TSX1    KSU$READ_NETCON
         5 001342   000000 011000                    NOP     0

     1443    12046    6                    KS_FEPHNDLR.BOOTIME(J) = OLD_BOOTIME(K);

  12046  5 001343   200103 235100                    LDA     K,,AUTO
         5 001344   200102 236100                    LDQ     J,,AUTO
         5 001345   003006 060505                    CSL     bolr='003'O
         5 001346   200231 000001                    BDSC    OLD_BOOTIME,A,AUTO       by=0,bit=0,n=1
         5 001347   000377 000001 2                  BDSC    KS_FEPHNDLR+3,Q          by=0,bit=0,n=1

PL6.E3A0      #004=KSC$SET File=KSC$COMMANDS1.:E05TSI                            WED 07/30/97 01:45 Page:282
     1444    12047    6                 END;

  12047  5 001350   001413 710000 5                  TRA     CHANGE_FID

     1445    12048    5              ELSE
     1446    12049    6                 DO;

     1447    12050    6                    RECORD_CHANGED = '1'B;

  12050  5 001351   400000 236003                    LDQ     -131072,DU
         5 001352   200234 756100                    STQ     RECORD_CHANGED,,AUTO

     1448    12051    6                    KS_FEPHNDLR.BOOTIME(J) = '1'B;

  12051  5 001353   200102 235100                    LDA     J,,AUTO
         5 001354   003005 060400                    CSL     bolr='003'O
         5 001355   000030 000001 xsym               BDSC    B_VECTNIL+24             by=0,bit=0,n=1
         5 001356   000377 000001 2                  BDSC    KS_FEPHNDLR+3,A          by=0,bit=0,n=1

     1449    12052    6                    KS$HNDLR.HNDLRFID = ' ';

  12052  5 001357   000160 470400 2                  LDP0    HANDLER$
         5 001360   040100 100400                    MLR     fill='040'O
         5 001361   000035 000001 xsym               ADSC9   B_VECTNIL+29             cn=0,n=1
         5 001362   000000 000050                    ADSC9   0,,PR0                   cn=0,n=40

     1450    12053    6                    KS$HNDLR.HNDLRNAME = KS_FEPHNDLR.HANDLER(J);

  12053  5 001363   000001 735000                    ALS     1
         5 001364   000400 237005 2                  LDAQ    KS_FEPHNDLR+4,AL
         5 001365   000012 755100                    STA     10,,PR0
         5 001366   000013 756100                    STQ     11,,PR0

     1451    12054    6                    IF KS$HNDLR.HNDLRNAME ~= ' ' THEN

  12054  5 001367   040000 106500                    CMPC    fill='040'O
         5 001370   000012 000010                    ADSC9   10,,PR0                  cn=0,n=8
PL6.E3A0      #004=KSC$SET File=KSC$COMMANDS1.:E05TSI                            WED 07/30/97 01:45 Page:283
         5 001371   000035 000001 xsym               ADSC9   B_VECTNIL+29             cn=0,n=1
         5 001372   001411 600000 5                  TZE     s:12060

     1452    12055    7                       DO;

     1453    12056    7                          KS$HNDLR.HNDLRFID = KS$HNDLR.HNDLRNAME;

  12056  5 001373   040100 100500                    MLR     fill='040'O
         5 001374   000012 000010                    ADSC9   10,,PR0                  cn=0,n=8
         5 001375   000000 000050                    ADSC9   0,,PR0                   cn=0,n=40

     1454    12057    7                          CALL INDEX (K,' ',KS$HNDLR.HNDLRFID);

  12057  5 001376   000000 124500                    SCM     mask='000'O
         5 001377   000000 000050                    ADSC9   0,,PR0                   cn=0,n=40
         5 001400   000035 000001 xsym               ADSC9   B_VECTNIL+29             cn=0,n=1
         5 001401   200103 000100                    ARG     K,,AUTO

     1455    12058    7                          SUBSTR(KS$HNDLR.HNDLRFID,K) = '.:SYS';

  12058  5 001402   200103 720100                    LXL0    K,,AUTO
         5 001403   777727 620010                    EAX0    -41,X0
         5 001404   777777 660003                    ERX0    -1,DU
         5 001405   200103 235100                    LDA     K,,AUTO
         5 001406   040145 100400                    MLR     fill='040'O
         5 001407   000073 000005 1                  ADSC9   FEP+5                    cn=0,n=5
         5 001410   000000 000010                    ADSC9   0,A,PR0                  cn=0,n=*X0

     1456    12059    7                       END;

     1457    12060    6                    CALL RESET_PARAMS_TO_DEFAULTS;

  12060  5 001411   004103 701000 5                  TSX1    RESET_PARAMS_TO_DEFAULTS
         5 001412   000000 011000                    NOP     0

     1458    12061    6                 END;

PL6.E3A0      #004=KSC$SET File=KSC$COMMANDS1.:E05TSI                            WED 07/30/97 01:45 Page:284
     1459    12062
     1460    12063             /* Change fid of handler if requested */
     1461    12064
     1462    12065    5   CHANGE_FID:
     1463    12066    5              CALL INDEX (K,' ',KS$HNDLR.HNDLRFID);

  12066  5 001413   000160 470400 2     CHANGE_FID   LDP0    HANDLER$
         5 001414   000000 124500                    SCM     mask='000'O
         5 001415   000000 000050                    ADSC9   0,,PR0                   cn=0,n=40
         5 001416   000035 000001 xsym               ADSC9   B_VECTNIL+29             cn=0,n=1
         5 001417   200103 000100                    ARG     K,,AUTO

     1464    12067    5              TEXTC.COUNT = K;

  12067  5 001420   200103 236100                    LDQ     K,,AUTO
         5 001421   000033 736000                    QLS     27
         5 001422   000000 552040 2                  STBQ    TEXTC,'40'O

     1465    12068    5              TEXTC.TEXT = SUBSTR(KS$HNDLR.HNDLRFID,0,K);

  12068  5 001423   200103 720100                    LXL0    K,,AUTO
         5 001424   040000 100540                    MLR     fill='040'O
         5 001425   000000 000010                    ADSC9   0,,PR0                   cn=0,n=*X0
         5 001426   000000 200050 2                  ADSC9   TEXTC                    cn=1,n=40

     1466    12069    5              CALL KSW$WRITE (VECTOR(HNDLRFID),VECTOR(HANDNR),VECTOR(TEXTC));

  12069  5 001427   777640 235007                    LDA     -96,DL
         5 001430   200244 452500                    STP2    @TARGET+2,,AUTO
         5 001431   200244 236100                    LDQ     @TARGET+2,,AUTO
         5 001432   000237 036003                    ADLQ    159,DU
         5 001433   200246 757100                    STAQ    @TARGET+4,,AUTO
         5 001434   000045 236000 6                  LDQ     37
         5 001435   200252 756100                    STQ     @TARGET+8,,AUTO
         5 001436   200246 631500                    EPPR1   @TARGET+4,,AUTO
         5 001437   200251 451500                    STP1    @TARGET+7,,AUTO
         5 001440   000074 236000 6                  LDQ     60
PL6.E3A0      #004=KSC$SET File=KSC$COMMANDS1.:E05TSI                            WED 07/30/97 01:45 Page:285
         5 001441   200250 756100                    STQ     @TARGET+6,,AUTO
         5 001442   200250 630500                    EPPR0   @TARGET+6,,AUTO
         5 001443   000021 631400 xsym               EPPR1   B_VECTNIL+17
         5 001444   000000 701000 xent               TSX1    KSW$WRITE
         5 001445   000000 011000                    NOP     0

     1467    12070    5              CALL XUR$GETCMD(KS_FID,TOP2$,VECTOR(EQUALS));

  12070  5 001446   000050 236000 6                  LDQ     40
         5 001447   200246 756100                    STQ     @TARGET+4,,AUTO
         5 001450   200146 630500                    EPPR0   TOP2$,,AUTO
         5 001451   200245 450500                    STP0    @TARGET+3,,AUTO
         5 001452   000051 236000 6                  LDQ     41
         5 001453   200244 756100                    STQ     @TARGET+2,,AUTO
         5 001454   200244 630500                    EPPR0   @TARGET+2,,AUTO
         5 001455   000021 631400 xsym               EPPR1   B_VECTNIL+17
         5 001456   000000 701000 xent               TSX1    XUR$GETCMD
         5 001457   000000 011000                    NOP     0

     1468    12071    5              IF TOP2$->OUT$BLK.NSUBLKS ~= 0 THEN

  12071  5 001460   200146 470500                    LDP0    TOP2$,,AUTO
         5 001461   000001 220100                    LDX0    1,,PR0
         5 001462   001473 600000 5                  TZE     s:12077

     1469    12072    6                 DO;

     1470    12073    6                    CALL ALTER_FID (TOP2$, KS$HNDLR.HNDLRFID);

  12073  5 001463   000160 236000 2                  LDQ     HANDLER$
         5 001464   200242 756100                    STQ     @PTR$+1,,AUTO
         5 001465   200146 631500                    EPPR1   TOP2$,,AUTO
         5 001466   200241 451500                    STP1    HANDNR+2,,AUTO
         5 001467   003741 701000 5                  TSX1    ALTER_FID
         5 001470   000000 011000                    NOP     0

     1471    12074    6                    RECORD_CHANGED = '1'B;
PL6.E3A0      #004=KSC$SET File=KSC$COMMANDS1.:E05TSI                            WED 07/30/97 01:45 Page:286

  12074  5 001471   400000 236003                    LDQ     -131072,DU
         5 001472   200234 756100                    STQ     RECORD_CHANGED,,AUTO

     1472    12075    6                 END;

     1473    12076
     1474    12077    5              IF RECORD_CHANGED THEN

  12077  5 001473   200234 234100                    SZN     RECORD_CHANGED,,AUTO
         5 001474   001543 605000 5                  TPL     s:12091

     1475    12078    6                 DO;   /* Figure out size of record */

     1476    12079    7                          IF KS$HNDLR.NPARAMI > 0 THEN DO;

  12079  5 001475   000160 470400 2                  LDP0    HANDLER$
         5 001476   000014 236100                    LDQ     12,,PR0
         5 001477   000777 316007                    CANQ    511,DL
         5 001500   001517 600000 5                  TZE     s:12084

     1477    12080    7                             PTR$ = PINCRW(ADDR(HNDLR_BUF),KS$HNDLR.IPARAM.OFFSET(
             12080                                      KS$HNDLR.NPARAMI-1));

  12080  5 001501   000014 720100                    LXL0    12,,PR0
         5 001502   000777 360003                    ANX0    511,DU
         5 001503   000033 221110                    LDX1    27,X0,PR0
         5 001504   000013 631411 2                  EPPR1   HNDLR_BUF,X1
         5 001505   200147 451500                    STP1    PTR$,,AUTO

     1478    12081    7                             PTR$ = PINCRW(PTR$,(KS$HNDLR.IPARAM.ARRAY_SZ(KS$HNDLR.
             12081                                      NPARAMI - 1) + 2)/2);

  12081  5 001506   000032 236110                    LDQ     26,X0,PR0
         5 001507   000011 772000                    QRL     9
         5 001510   000777 376007                    ANQ     511,DL
         5 001511   000002 036007                    ADLQ    2,DL
PL6.E3A0      #004=KSC$SET File=KSC$COMMANDS1.:E05TSI                            WED 07/30/97 01:45 Page:287
         5 001512   000001 772000                    QRL     1
         5 001513   000022 736000                    QLS     18
         5 001514   200147 036100                    ADLQ    PTR$,,AUTO
         5 001515   200147 756100                    STQ     PTR$,,AUTO

     1479    12082    7                             END;

  12082  5 001516   001523 710000 5                  TRA     s:12087

     1480    12083    7                        ELSE DO;

     1481    12084    7                          PTR$ = ADDR(HNDLR_BUF);

  12084  5 001517   000021 236000 6                  LDQ     17
         5 001520   200147 756100                    STQ     PTR$,,AUTO

     1482    12085    7                          PTR$ = PINCRW(PTR$,SIZEW(KS_HANDLER)+1);

  12085  5 001521   000037 036003                    ADLQ    31,DU
         5 001522   200147 756100                    STQ     PTR$,,AUTO

     1483    12086    7                        END;

     1484    12087    6                    CALL KSU$WRITE_NETCON (VECTOR(KS_HANDLER_KEY),

  12087  5 001523   000021 236000 6                  LDQ     17
         5 001524   000020 772000                    QRL     16
         5 001525   200244 756100                    STQ     @TARGET+2,,AUTO
         5 001526   200147 236100                    LDQ     PTR$,,AUTO
         5 001527   000020 772000                    QRL     16
         5 001530   200244 136100                    SBLQ    @TARGET+2,,AUTO
         5 001531   000001 136007                    SBLQ    1,DL
         5 001532   200245 756100                    STQ     @TARGET+3,,AUTO
         5 001533   200245 631500                    EPPR1   @TARGET+3,,AUTO
         5 001534   200250 451500                    STP1    @TARGET+6,,AUTO
         5 001535   000070 237000 6                  LDAQ    56
         5 001536   200246 757100                    STAQ    @TARGET+4,,AUTO
PL6.E3A0      #004=KSC$SET File=KSC$COMMANDS1.:E05TSI                            WED 07/30/97 01:45 Page:288
         5 001537   200246 630500                    EPPR0   @TARGET+4,,AUTO
         5 001540   000021 631400 xsym               EPPR1   B_VECTNIL+17
         5 001541   000000 701000 xent               TSX1    KSU$WRITE_NETCON
         5 001542   000000 011000                    NOP     0

     1485    12088    6                                           VECTOR(HNDLR_BUF),
     1486    12089    6                                           POFFC(PTR$,ADDR(HNDLR_BUF))-1);
     1487    12090    6                 END;

     1488    12091    5           END;   /* Change handlers */

  12091  5 001543   200102 235100                    LDA     J,,AUTO
         5 001544   000001 035007                    ADLA    1,DL
         5 001545   200102 755100                    STA     J,,AUTO
         5 001546   200102 236100                    LDQ     J,,AUTO
         5 001547   000374 116000 2                  CMPQ    KS_FEPHNDLR
         5 001550   001214 602000 5                  TNC     s:12020

     1489    12092
     1490    12093
     1491    12094             /* Delete any handler records that were not reset */
     1492    12095    4   DELETE_UNUSED_HAND_REC:
     1493    12096    5           DO J = 0 TO OLD_NRHAND - 1;

  12096  5 001551   200102 450100       DELETE_UNUS* STZ     J,,AUTO
         5 001552   001644 710000 5                  TRA     s:12119+3

     1494    12097    5              HANDLER_FOUND = '0'B;

  12097  5 001553   200235 450100                    STZ     HANDLER_FOUND,,AUTO

     1495    12098    5   FIND_HANDLER2:
     1496    12099    6              DO K = 0 TO KS_FEPHNDLR.NHANDLERS - 1;

  12099  5 001554   200103 450100       FIND_HANDLE* STZ     K,,AUTO
         5 001555   001574 710000 5                  TRA     s:12105+3

PL6.E3A0      #004=KSC$SET File=KSC$COMMANDS1.:E05TSI                            WED 07/30/97 01:45 Page:289
     1497    12100    6                 IF OLD_HANDLER(J) = KS_FEPHNDLR.HANDLER(K) THEN

  12100  5 001556   200102 235100                    LDA     J,,AUTO
         5 001557   000003 735000                    ALS     3
         5 001560   200103 236100                    LDQ     K,,AUTO
         5 001561   000003 736000                    QLS     3
         5 001562   040006 106505                    CMPC    fill='040'O
         5 001563   200157 000010                    ADSC9   OLD_HANDLER,A,AUTO       cn=0,n=8
         5 001564   000400 000010 2                  ADSC9   KS_FEPHNDLR+4,Q          cn=0,n=8
         5 001565   001571 601000 5                  TNZ     s:12105

     1498    12101    7                    DO;

     1499    12102    7                       HANDLER_FOUND = '1'B;

  12102  5 001566   400000 236003                    LDQ     -131072,DU
         5 001567   200235 756100                    STQ     HANDLER_FOUND,,AUTO

     1500    12103    7                       EXIT FIND_HANDLER2;

  12103  5 001570   001577 710000 5                  TRA     s:12107

     1501    12104    7                    END;
     1502    12105    6              END;

  12105  5 001571   200103 235100                    LDA     K,,AUTO
         5 001572   000001 035007                    ADLA    1,DL
         5 001573   200103 755100                    STA     K,,AUTO
         5 001574   200103 236100                    LDQ     K,,AUTO
         5 001575   000374 116000 2                  CMPQ    KS_FEPHNDLR
         5 001576   001556 602000 5                  TNC     s:12100

     1503    12106
     1504    12107    5              IF NOT HANDLER_FOUND THEN

  12107  5 001577   200235 234100                    SZN     HANDLER_FOUND,,AUTO
         5 001600   001630 604000 5                  TMI     s:12117
PL6.E3A0      #004=KSC$SET File=KSC$COMMANDS1.:E05TSI                            WED 07/30/97 01:45 Page:290

     1505    12108    6                 DO;

     1506    12109    6                    KS_HANDLER_KEY.HNDLR = OLD_HANDLER(J);

  12109  5 001601   200102 235100                    LDA     J,,AUTO
         5 001602   000003 735000                    ALS     3
         5 001603   040000 100505                    MLR     fill='040'O
         5 001604   200157 000010                    ADSC9   OLD_HANDLER,A,AUTO       cn=0,n=8
         5 001605   000307 600010 2                  ADSC9   KS_HANDLER_KEY           cn=3,n=8

     1507    12110    6                    DELREC_NETCON.KEY_ = VECTOR(KS_HANDLER_KEY);

  12110  5 001606   000016 237000 6                  LDAQ    14
         5 001607   001330 757000 2                  STAQ    DELREC_NETCON+2

     1508    12111    6                    CALL M$DELREC (DELREC_NETCON);

  12111  5 001610   001326 630400 2                  EPPR0   DELREC_NETCON
         5 001611   040002 713400                    CLIMB   16386
         5 001612   401400 401760                    pmme    nvectors=4

     1509    12112    6                    KS_DEFAULT_KEY.NODE = KS_NODE;

  12112  5 001613   000000 236000 xsym               LDQ     KS_NODE
         5 001614   000011 736000                    QLS     9
         5 001615   000221 552010 2                  STBQ    KS_DEFAULT_KEY,'10'O

     1510    12113    6                    KS_DEFAULT_KEY.HNDLR = OLD_HANDLER(J);

  12113  5 001616   200102 235100                    LDA     J,,AUTO
         5 001617   000003 735000                    ALS     3
         5 001620   040000 100505                    MLR     fill='040'O
         5 001621   200157 000010                    ADSC9   OLD_HANDLER,A,AUTO       cn=0,n=8
         5 001622   000221 600010 2                  ADSC9   KS_DEFAULT_KEY           cn=3,n=8

     1511    12114    6                    DELREC_NETCON.KEY_ = VECTOR(KS_DEFAULT_KEY);
PL6.E3A0      #004=KSC$SET File=KSC$COMMANDS1.:E05TSI                            WED 07/30/97 01:45 Page:291

  12114  5 001623   000012 237000 6                  LDAQ    10
         5 001624   001330 757000 2                  STAQ    DELREC_NETCON+2

     1512    12115    6                    CALL M$DELREC (DELREC_NETCON);

  12115  5 001625   001326 630400 2                  EPPR0   DELREC_NETCON
         5 001626   040002 713400                    CLIMB   16386
         5 001627   401400 401760                    pmme    nvectors=4

     1513    12116    6                 END;

     1514    12117    5              IF J > KS_FEPHNDLR.NHANDLERS - 1 THEN

  12117  5 001630   200102 236100                    LDQ     J,,AUTO
         5 001631   000374 116000 2                  CMPQ    KS_FEPHNDLR
         5 001632   001641 602000 5                  TNC     s:12119

     1515    12118    5                 KS_FEPHNDLR.HANDLER(J) = ' ';

  12118  5 001633   200102 235100                    LDA     J,,AUTO
         5 001634   000001 735000                    ALS     1
         5 001635   000000 620005                    EAX0    0,AL
         5 001636   000035 235000 xsym               LDA     B_VECTNIL+29
         5 001637   000035 236000 xsym               LDQ     B_VECTNIL+29
         5 001640   000400 757010 2                  STAQ    KS_FEPHNDLR+4,X0

     1516    12119    5           END;

  12119  5 001641   200102 235100                    LDA     J,,AUTO
         5 001642   000001 035007                    ADLA    1,DL
         5 001643   200102 755100                    STA     J,,AUTO
         5 001644   200102 236100                    LDQ     J,,AUTO
         5 001645   200232 116100                    CMPQ    OLD_NRHAND,,AUTO
         5 001646   001553 602000 5                  TNC     s:12097

     1517    12120
PL6.E3A0      #004=KSC$SET File=KSC$COMMANDS1.:E05TSI                            WED 07/30/97 01:45 Page:292
     1518    12121             /* Remove blank handler names from KS_FEPHNDLR */
     1519    12122
     1520    12123    4           K = 0;

  12123  5 001647   200103 450100                    STZ     K,,AUTO

     1521    12124    4           J = KS_FEPHNDLR.NHANDLERS;

  12124  5 001650   000374 235000 2                  LDA     KS_FEPHNDLR
         5 001651   200102 755100                    STA     J,,AUTO

     1522    12125    5           DO I = 0 TO J - 1;

  12125  5 001652   200016 450100                    STZ     I,,AUTO
         5 001653   001705 710000 5                  TRA     s:12135+3

     1523    12126    5              IF KS_FEPHNDLR.HANDLER(I) ~= ' ' THEN

  12126  5 001654   200016 235100                    LDA     I,,AUTO
         5 001655   000001 735000                    ALS     1
         5 001656   000400 237005 2                  LDAQ    KS_FEPHNDLR+4,AL
         5 001657   000032 117000 6                  CMPAQ   26
         5 001660   001702 600000 5                  TZE     s:12135

     1524    12127    6                 DO;

     1525    12128    6                    IF K ~= I THEN

  12128  5 001661   200103 236100                    LDQ     K,,AUTO
         5 001662   200016 116100                    CMPQ    I,,AUTO
         5 001663   001700 600000 5                  TZE     s:12133

     1526    12129    7                       DO;

     1527    12130    7                          KS_FEPHNDLR.HANDLER(K) = KS_FEPHNDLR.HANDLER(I);

  12130  5 001664   200103 235100                    LDA     K,,AUTO
PL6.E3A0      #004=KSC$SET File=KSC$COMMANDS1.:E05TSI                            WED 07/30/97 01:45 Page:293
         5 001665   000001 735000                    ALS     1
         5 001666   200016 236100                    LDQ     I,,AUTO
         5 001667   000001 736000                    QLS     1
         5 001670   000000 620005                    EAX0    0,AL
         5 001671   000400 237006 2                  LDAQ    KS_FEPHNDLR+4,QL
         5 001672   000400 757010 2                  STAQ    KS_FEPHNDLR+4,X0

     1528    12131    7                          KS_FEPHNDLR.BOOTIME(K) = KS_FEPHNDLR.BOOTIME(I);

  12131  5 001673   200016 235100                    LDA     I,,AUTO
         5 001674   200103 236100                    LDQ     K,,AUTO
         5 001675   003006 060405                    CSL     bolr='003'O
         5 001676   000377 000001 2                  BDSC    KS_FEPHNDLR+3,A          by=0,bit=0,n=1
         5 001677   000377 000001 2                  BDSC    KS_FEPHNDLR+3,Q          by=0,bit=0,n=1

     1529    12132    7                       END;

     1530    12133    6                    K = K + 1;

  12133  5 001700   000001 036007                    ADLQ    1,DL
         5 001701   200103 756100                    STQ     K,,AUTO

     1531    12134    6                 END;

     1532    12135    5           END;

  12135  5 001702   200016 235100                    LDA     I,,AUTO
         5 001703   000001 035007                    ADLA    1,DL
         5 001704   200016 755100                    STA     I,,AUTO
         5 001705   200016 236100                    LDQ     I,,AUTO
         5 001706   200102 116100                    CMPQ    J,,AUTO
         5 001707   001654 602000 5                  TNC     s:12126

     1533    12136    4           KS_FEPHNDLR.NHANDLERS = K;

  12136  5 001710   200103 235100                    LDA     K,,AUTO
         5 001711   000374 755000 2                  STA     KS_FEPHNDLR
PL6.E3A0      #004=KSC$SET File=KSC$COMMANDS1.:E05TSI                            WED 07/30/97 01:45 Page:294

     1534    12137
     1535    12138    4           IF KS_FEPHNDLR.HANDLER(0) ~= 'NODEADMN' THEN

  12138  5 001712   040000 106400                    CMPC    fill='040'O
         5 001713   000400 000010 2                  ADSC9   KS_FEPHNDLR+4            cn=0,n=8
         5 001714   000075 000010 1                  ADSC9   FEP+7                    cn=0,n=8
         5 001715   001722 600000 5                  TZE     BUILD_DEFAULTS

     1536    12139    4              CALL KSE$ERRMSG (%E$KS_NODEADMN_NOT_FIRST);

  12139  5 001716   000035 630400 6                  EPPR0   29
         5 001717   000017 631400 xsym               EPPR1   B_VECTNIL+15
         5 001720   000000 701000 xent               TSX1    KSE$ERRMSG
         5 001721   000000 011000                    NOP     0

     1537    12140                   /*E* ERROR:   KSN-E$KS_NODEADMN_NOT_FIRST-0
     1538    12141                        MESSAGE: Warning -- NODEADMN is not user# 1 */
     1539    12142
     1540    12143
     1541    12144    4   BUILD_DEFAULTS:
     1542    12145    5           DO I = 0 TO KS_FEPHNDLR.NHANDLERS - 1;

  12145  5 001722   200016 450100       BUILD_DEFAU* STZ     I,,AUTO
         5 001723   002010 710000 5                  TRA     s:12153+3

     1543    12146    5              KS_DEFAULT_KEY.HNDLR = KS_FEPHNDLR.HANDLER(I);

  12146  5 001724   200016 235100                    LDA     I,,AUTO
         5 001725   000003 735000                    ALS     3
         5 001726   040000 100405                    MLR     fill='040'O
         5 001727   000400 000010 2                  ADSC9   KS_FEPHNDLR+4,A          cn=0,n=8
         5 001730   000221 600010 2                  ADSC9   KS_DEFAULT_KEY           cn=3,n=8

     1544    12147    5              KS_DEFAULT_KEY.NODE = KS_NODE;

  12147  5 001731   000000 236000 xsym               LDQ     KS_NODE
PL6.E3A0      #004=KSC$SET File=KSC$COMMANDS1.:E05TSI                            WED 07/30/97 01:45 Page:295
         5 001732   000011 736000                    QLS     9
         5 001733   000221 552010 2                  STBQ    KS_DEFAULT_KEY,'10'O

     1545    12148    5              CALL KSU$READ_NETCON (VECTOR(KS_DEFAULT_KEY),VECTOR(KS_DEFAULT_REC))

  12148  5 001734   000306 470400 2                  LDP0    DEFAULT$
         5 001735   000012 236100                    LDQ     10,,PR0
         5 001736   000011 772000                    QRL     9
         5 001737   000777 376007                    ANQ     511,DL
         5 001740   000053 620006                    EAX0    43,QL
         5 001741   000000 635010                    EAA     0,X0
         5 001742   000002 771000                    ARL     2
         5 001743   000140 135007                    SBLA    96,DL
         5 001744   000306 236000 2                  LDQ     DEFAULT$
         5 001745   200244 757100                    STAQ    @TARGET+2,,AUTO
         5 001746   200244 631500                    EPPR1   @TARGET+2,,AUTO
         5 001747   200247 451500                    STP1    @TARGET+5,,AUTO
         5 001750   000014 236000 6                  LDQ     12
         5 001751   200246 756100                    STQ     @TARGET+4,,AUTO
         5 001752   200246 630500                    EPPR0   @TARGET+4,,AUTO
         5 001753   000020 631400 xsym               EPPR1   B_VECTNIL+16
         5 001754   000000 701000 xent               TSX1    KSU$READ_NETCON
         5 001755   001757 702000 5                  TSX2    s:12150
         5 001756   002005 710000 5                  TRA     s:12153

     1546    12149    6                 WHENALTRETURN DO;

     1547    12150    6                    CALL KSU$INIT_DEFCNFG (KS_DEFAULT_REC);

  12150  5 001757   000306 630400 2                  EPPR0   DEFAULT$
         5 001760   000017 631400 xsym               EPPR1   B_VECTNIL+15
         5 001761   000000 701000 xent               TSX1    KSU$INIT_DEFCNFG
         5 001762   000000 011000                    NOP     0

     1548    12151    6                   CALL KSU$WRITE_NETCON (VECTOR(KS_DEFAULT_KEY),VECTOR(KS_DEFAULT_REC
             12151                             ));

PL6.E3A0      #004=KSC$SET File=KSC$COMMANDS1.:E05TSI                            WED 07/30/97 01:45 Page:296
  12151  5 001763   000306 470400 2                  LDP0    DEFAULT$
         5 001764   000012 236100                    LDQ     10,,PR0
         5 001765   000011 772000                    QRL     9
         5 001766   000777 376007                    ANQ     511,DL
         5 001767   000053 620006                    EAX0    43,QL
         5 001770   000000 635010                    EAA     0,X0
         5 001771   000002 771000                    ARL     2
         5 001772   000140 135007                    SBLA    96,DL
         5 001773   000306 236000 2                  LDQ     DEFAULT$
         5 001774   200244 757100                    STAQ    @TARGET+2,,AUTO
         5 001775   200244 631500                    EPPR1   @TARGET+2,,AUTO
         5 001776   200247 451500                    STP1    @TARGET+5,,AUTO
         5 001777   000014 236000 6                  LDQ     12
         5 002000   200246 756100                    STQ     @TARGET+4,,AUTO
         5 002001   200246 630500                    EPPR0   @TARGET+4,,AUTO
         5 002002   000020 631400 xsym               EPPR1   B_VECTNIL+16
         5 002003   000000 701000 xent               TSX1    KSU$WRITE_NETCON
         5 002004   000000 011000                    NOP     0

     1549    12152    6                 END;

     1550    12153    5           END BUILD_DEFAULTS;

  12153  5 002005   200016 235100                    LDA     I,,AUTO
         5 002006   000001 035007                    ADLA    1,DL
         5 002007   200016 755100                    STA     I,,AUTO
         5 002010   200016 236100                    LDQ     I,,AUTO
         5 002011   000374 116000 2                  CMPQ    KS_FEPHNDLR
         5 002012   001724 602000 5                  TNC     s:12146

     1551    12154
     1552    12155             /* Get new library fid */
     1553    12156    4              CALL INDEX (K,' ',KS_FEPHNDLR.DEFLIBACCT);

  12156  5 002013   000000 124400                    SCM     mask='000'O
         5 002014   000375 000010 2                  ADSC9   KS_FEPHNDLR+1            cn=0,n=8
         5 002015   000035 000001 xsym               ADSC9   B_VECTNIL+29             cn=0,n=1
PL6.E3A0      #004=KSC$SET File=KSC$COMMANDS1.:E05TSI                            WED 07/30/97 01:45 Page:297
         5 002016   200103 000100                    ARG     K,,AUTO

     1554    12157    4              TEXTC.COUNT = K;

  12157  5 002017   200103 236100                    LDQ     K,,AUTO
         5 002020   000033 736000                    QLS     27
         5 002021   000000 552040 2                  STBQ    TEXTC,'40'O

     1555    12158    4              TEXTC.TEXT = SUBSTR(KS_FEPHNDLR.DEFLIBACCT,0,K);

  12158  5 002022   200103 720100                    LXL0    K,,AUTO
         5 002023   040000 100440                    MLR     fill='040'O
         5 002024   000375 000010 2                  ADSC9   KS_FEPHNDLR+1            cn=0,n=*X0
         5 002025   000000 200050 2                  ADSC9   TEXTC                    cn=1,n=40

     1556    12159    4              CALL KSW$WRITE(VECTOR(LIBACCT),VECTOR(TEXTC));

  12159  5 002026   000100 630400 6                  EPPR0   64
         5 002027   000020 631400 xsym               EPPR1   B_VECTNIL+16
         5 002030   000000 701000 xent               TSX1    KSW$WRITE
         5 002031   000000 011000                    NOP     0

     1557    12160    4                 CALL XUR$GETCMD(KS_LIB,TOP2$,VECTOR(EQUALS));

  12160  5 002032   000050 236000 6                  LDQ     40
         5 002033   200246 756100                    STQ     @TARGET+4,,AUTO
         5 002034   200146 630500                    EPPR0   TOP2$,,AUTO
         5 002035   200245 450500                    STP0    @TARGET+3,,AUTO
         5 002036   000102 236000 6                  LDQ     66
         5 002037   200244 756100                    STQ     @TARGET+2,,AUTO
         5 002040   200244 630500                    EPPR0   @TARGET+2,,AUTO
         5 002041   000021 631400 xsym               EPPR1   B_VECTNIL+17
         5 002042   000000 701000 xent               TSX1    XUR$GETCMD
         5 002043   000000 011000                    NOP     0

     1558    12161    4                 IF TOP2$->OUT$BLK.NSUBLKS ~= 0 THEN

PL6.E3A0      #004=KSC$SET File=KSC$COMMANDS1.:E05TSI                            WED 07/30/97 01:45 Page:298
  12161  5 002044   200146 470500                    LDP0    TOP2$,,AUTO
         5 002045   000001 220100                    LDX0    1,,PR0
         5 002046   002056 600000 5                  TZE     s:12164

     1559    12162    4                    KS_FEPHNDLR.DEFLIBACCT = TOP2$->OUT$BLK.SUBLK$(0)->OUT$SYM.TEXT;

  12162  5 002047   000003 471500                    LDP1    3,,PR0
         5 002050   100004 236100                    LDQ     4,,PR1
         5 002051   000033 772000                    QRL     27
         5 002052   000000 621006                    EAX1    0,QL
         5 002053   040000 100540                    MLR     fill='040'O
         5 002054   100004 200011                    ADSC9   4,,PR1                   cn=1,n=*X1
         5 002055   000375 000010 2                  ADSC9   KS_FEPHNDLR+1            cn=0,n=8

     1560    12163
     1561    12164    4                 RECORD_SIZE = SIZEC(KS_FEPHNDLR.NHANDLERS) + SIZEC(KS_FEPHNDLR.
             12164                          DEFLIBACCT)

  12164  5 002056   000374 235000 2                  LDA     KS_FEPHNDLR
         5 002057   000003 735000                    ALS     3
         5 002060   000017 035007                    ADLA    15,DL
         5 002061   200233 755100                    STA     RECORD_SIZE,,AUTO

     1562    12165    4                    + 4 + (SIZEC(KS_FEPHNDLR.HANDLER(0)) * KS_FEPHNDLR.NHANDLERS) - 1;
     1563    12166    4                 CALL KSU$WRITE_NETCON (VECTOR(KS_FEPHNDLR_KEY),

  12166  5 002062   200233 631500                    EPPR1   RECORD_SIZE,,AUTO
         5 002063   200246 451500                    STP1    @TARGET+4,,AUTO
         5 002064   000052 237000 6                  LDAQ    42
         5 002065   200244 757100                    STAQ    @TARGET+2,,AUTO
         5 002066   200244 630500                    EPPR0   @TARGET+2,,AUTO
         5 002067   000021 631400 xsym               EPPR1   B_VECTNIL+17
         5 002070   000000 701000 xent               TSX1    KSU$WRITE_NETCON
         5 002071   003344 702000 5                  TSX2    SET_ERR

     1564    12167    4                                        VECTOR(KS_FEPHNDLR),
     1565    12168    4                                        RECORD_SIZE) ALTRET(SET_ERR);
PL6.E3A0      #004=KSC$SET File=KSC$COMMANDS1.:E05TSI                            WED 07/30/97 01:45 Page:299
     1566    12169    4                 PROMPT.NODENAME = KS_NODENAME;

  12169  5 002072   040000 100400                    MLR     fill='040'O
         5 002073   000000 000010 xsym               ADSC9   KS_NODENAME              cn=0,n=8
         5 002074   000000 000010 xsym               ADSC9   PROMPT                   cn=0,n=8

     1567    12170    4                  P_PCB.OUT$ = ADDR(KS_CMD);

  12170  5 002075   000103 236000 6                  LDQ     67
         5 002076   000003 756000 xsym               STQ     P_PCB+3

     1568    12171    4                  EXIT DOI;

  12171  5 002077   003740 710000 5                  TRA     END_LOOP+10

     1569    12172    4              END;    /* no options on the set boot command */
     1570    12173        %EJECT;
PL6.E3A0      #004=KSC$SET File=KSC$COMMANDS1.:E05TSI                            WED 07/30/97 01:45 Page:300
     1571    12174    3              CASE(%KS_PARAM);

     1572    12175    3                 PARMTYPE = BLK$->OUT$BLK.SUBLK$(0)->OUT$BLK.CODE;

  12175  5 002100   300003 474500                    LDP4    3,,PR3
         5 002101   400000 236100                    LDQ     0,,PR4
         5 002102   777777 376007                    ANQ     -1,DL
         5 002103   200131 756100                    STQ     PARMTYPE,,AUTO

     1573    12176    3                 PARMX = BLK$->OUT$BLK.SUBLK$(0)->OUT$BLK.SUBLK$(0)->OUT$BLK.CODE;

  12176  5 002104   400003 475500                    LDP5    3,,PR4
         5 002105   500000 236100                    LDQ     0,,PR5
         5 002106   777777 376007                    ANQ     -1,DL
         5 002107   200130 756100                    STQ     PARMX,,AUTO

     1574    12177    3                 KS_SUB_BUF_1.COUNT = KS_TBL(PARMTYPE)->KS$PARAM.TEXTNAME(PARMX) ->
             12177                          NAME.L#;

  12177  5 002110   200131 722100                    LXL2    PARMTYPE,,AUTO
         5 002111   000000 476412 xsym               LDP6    KS_TBL,X2
         5 002112   200130 235100                    LDA     PARMX,,AUTO
         5 002113   000002 735000                    ALS     2
         5 002114   600000 477505                    LDP7    0,AL,PR6
         5 002115   000000 100500                    MLR     fill='000'O
         5 002116   700000 000001                    ADSC9   0,,PR7                   cn=0,n=1
         5 002117   000000 000001 xsym               ADSC9   KS_SUB_BUF_1             cn=0,n=1

     1575    12178    3                KS_SUB_BUF_1.TEXT = KS_TBL(PARMTYPE)->KS$PARAM.TEXTNAME(PARMX) -> NAME
             12178                          .NAME#;

  12178  5 002120   600000 471505                    LDP1    0,AL,PR6
         5 002121   000100 101500                    MRL     fill='000'O
         5 002122   100000 000001                    ADSC9   0,,PR1                   cn=0,n=1
         5 002123   200244 000002                    ADSC9   @TARGET+2,,AUTO          cn=0,n=2
         5 002124   200244 221100                    LDX1    @TARGET+2,,AUTO
         5 002125   040000 100540                    MLR     fill='040'O
PL6.E3A0      #004=KSC$SET File=KSC$COMMANDS1.:E05TSI                            WED 07/30/97 01:45 Page:301
         5 002126   100000 200011                    ADSC9   0,,PR1                   cn=1,n=*X1
         5 002127   000000 200037 xsym               ADSC9   KS_SUB_BUF_1             cn=1,n=31

     1576    12179
     1577    12180                      /*N* For D00 politely tell the user there is no NSHUF.
     1578    12181                           Delete this here and in KSC$DISPLAY for E00.  Also
     1579    12182                           take NSHUF out of the nodes and change NSHUF to
     1580    12183                           SPARE in the tables. */
     1581    12184    3                 IF PARMTYPE = %KS_BOOT_PARAM AND PARMX = %GI_BOOT_NSHUF THEN

  12184  5 002130   200131 235100                    LDA     PARMTYPE,,AUTO
         5 002131   000001 115007                    CMPA    1,DL
         5 002132   002142 601000 5                  TNZ     s:12191
         5 002133   000010 116007                    CMPQ    8,DL
         5 002134   002142 601000 5                  TNZ     s:12191

     1582    12185    4                    DO;

     1583    12186    4                       CALL KSE$ERRMSG (%E$KS_NO_MORE_NSHUF);

  12186  5 002135   000105 630400 6                  EPPR0   69
         5 002136   000017 631400 xsym               EPPR1   B_VECTNIL+15
         5 002137   000000 701000 xent               TSX1    KSE$ERRMSG
         5 002140   000000 011000                    NOP     0

     1584    12187                            /*E* ERROR: KSN-E$KS_NO_MORE_NSHUF-0
     1585    12188                                 MESSAGE: NSHUF is no longer a parameter. */
     1586    12189    4                       GOTO END_LOOP;

  12189  5 002141   003726 710000 5                  TRA     END_LOOP

     1587    12190    4                    END;
     1588    12191    3                 IF KS_TBL(PARMTYPE)->KS$PARAM.FLAGS.DISPONLY(PARMX) THEN

  12191  5 002142   200130 235100                    LDA     PARMX,,AUTO
         5 002143   000002 735000                    ALS     2
         5 002144   600001 236105                    LDQ     1,AL,PR6
PL6.E3A0      #004=KSC$SET File=KSC$COMMANDS1.:E05TSI                            WED 07/30/97 01:45 Page:302
         5 002145   010000 316003                    CANQ    4096,DU
         5 002146   002154 600000 5                  TZE     s:12200

     1589    12192    4                    DO;

     1590    12193    4                       CALL KSE$ERRMSG(%E$KS_DISPONLY,VECTOR(KS_SUB_BUF_1));

  12193  5 002147   000106 630400 6                  EPPR0   70
         5 002150   000020 631400 xsym               EPPR1   B_VECTNIL+16
         5 002151   000000 701000 xent               TSX1    KSE$ERRMSG
         5 002152   000000 011000                    NOP     0

     1591    12194                            /*E* ERROR: KSN-E$KS_DISPONLY-0
     1592    12195                                 MESSAGE: %U1 is for display only.
     1593    12196                                 DESCRIPTION: SEE MESSAGE  */
     1594    12197    4                       GOTO END_LOOP;

  12197  5 002153   003726 710000 5                  TRA     END_LOOP

     1595    12198    4                    END;
     1596    12199
     1597    12200    3                 NUM_INDX = 1;

  12200  5 002154   000001 235007                    LDA     1,DL
         5 002155   200133 755100                    STA     NUM_INDX,,AUTO

     1598    12201    3                 INDX_VEC(0) = 0;

  12201  5 002156   200020 450100                    STZ     INDX_VEC,,AUTO

     1599    12202
     1600    12203
     1601    12204    3                 IF PARMTYPE = %KS_HNDLR_PARAM THEN

  12204  5 002157   200131 236100                    LDQ     PARMTYPE,,AUTO
         5 002160   000003 116007                    CMPQ    3,DL
         5 002161   002375 601000 5                  TNZ     s:12263
PL6.E3A0      #004=KSC$SET File=KSC$COMMANDS1.:E05TSI                            WED 07/30/97 01:45 Page:303

     1602    12205    4                    DO;

     1603    12206    4                       IF KS_HNDLRNAME = ' ' THEN

  12206  5 002162   040000 106400                    CMPC    fill='040'O
         5 002163   000000 000010 xsym               ADSC9   KS_HNDLRNAME             cn=0,n=8
         5 002164   000035 000001 xsym               ADSC9   B_VECTNIL+29             cn=0,n=1
         5 002165   002173 601000 5                  TNZ     s:12214

     1604    12207    5                          DO;

     1605    12208    5                             CALL KSE$ERRMSG (%E$KS_NOHANDLER_SET);

  12208  5 002166   000111 630400 6                  EPPR0   73
         5 002167   000017 631400 xsym               EPPR1   B_VECTNIL+15
         5 002170   000000 701000 xent               TSX1    KSE$ERRMSG
         5 002171   000000 011000                    NOP     0

     1606    12209                                  /*E* ERROR: KSN-E$KS_NOHANDLER_SET-0
     1607    12210                 MESSAGE: A handler must be selected in order to set a handler parameter.*/
     1608    12211    5                             GOTO SET_ERR;

  12211  5 002172   003344 710000 5                  TRA     SET_ERR

     1609    12212    5                          END;
     1610    12213    4                       ELSE
     1611    12214    4                          PARMTYPE = PARMTYPE + KS_HNDLRINDX;

  12214  5 002173   000000 236000 xsym               LDQ     KS_HNDLRINDX
         5 002174   000033 772000                    QRL     27
         5 002175   200131 036100                    ADLQ    PARMTYPE,,AUTO
         5 002176   200131 756100                    STQ     PARMTYPE,,AUTO

     1612    12215    4                KS_SUB_BUF_1.COUNT = KS_TBL(%KS_HNDLR_PARAM)->KS$PARAM.TEXTNAME(PARMX)
             12215                          -> NAME.L#;

PL6.E3A0      #004=KSC$SET File=KSC$COMMANDS1.:E05TSI                            WED 07/30/97 01:45 Page:304
  12215  5 002177   200130 235100                    LDA     PARMX,,AUTO
         5 002200   000002 735000                    ALS     2
         5 002201   000003 471400 xsym               LDP1    KS_TBL+3
         5 002202   100000 474505                    LDP4    0,AL,PR1
         5 002203   000000 100500                    MLR     fill='000'O
         5 002204   400000 000001                    ADSC9   0,,PR4                   cn=0,n=1
         5 002205   000000 000001 xsym               ADSC9   KS_SUB_BUF_1             cn=0,n=1

     1613    12216    4                 KS_SUB_BUF_1.TEXT = KS_TBL(%KS_HNDLR_PARAM)->KS$PARAM.TEXTNAME(PARMX)
             12216                          -> NAME.NAME#;

  12216  5 002206   100000 474505                    LDP4    0,AL,PR1
         5 002207   000100 101500                    MRL     fill='000'O
         5 002210   400000 000001                    ADSC9   0,,PR4                   cn=0,n=1
         5 002211   200244 000002                    ADSC9   @TARGET+2,,AUTO          cn=0,n=2
         5 002212   200244 221100                    LDX1    @TARGET+2,,AUTO
         5 002213   040000 100540                    MLR     fill='040'O
         5 002214   400000 200011                    ADSC9   0,,PR4                   cn=1,n=*X1
         5 002215   000000 200037 xsym               ADSC9   KS_SUB_BUF_1             cn=1,n=31

     1614    12217    4                 KS_SUB_BUF_2.COUNT = SIZEC(KS_HNDLRNAME);

  12217  5 002216   010000 236003                    LDQ     4096,DU
         5 002217   000000 552040 xsym               STBQ    KS_SUB_BUF_2,'40'O

     1615    12218    4                 KS_SUB_BUF_2.TEXT = KS_HNDLRNAME;

  12218  5 002220   040000 100400                    MLR     fill='040'O
         5 002221   000000 000010 xsym               ADSC9   KS_HNDLRNAME             cn=0,n=8
         5 002222   000000 200037 xsym               ADSC9   KS_SUB_BUF_2             cn=1,n=31

     1616    12219    4                 KS_SUB_BUF_3.COUNT = SIZEC(KS_NODENAME);

  12219  5 002223   000000 552040 xsym               STBQ    KS_SUB_BUF_3,'40'O

     1617    12220    4                 KS_SUB_BUF_3.TEXT = KS_NODENAME;

PL6.E3A0      #004=KSC$SET File=KSC$COMMANDS1.:E05TSI                            WED 07/30/97 01:45 Page:305
  12220  5 002224   040000 100400                    MLR     fill='040'O
         5 002225   000000 000010 xsym               ADSC9   KS_NODENAME              cn=0,n=8
         5 002226   000000 200037 xsym               ADSC9   KS_SUB_BUF_3             cn=1,n=31

     1618    12221    4                 IF NOT(ADDR(KS_TBL(%KS_HNDLR_PARAM)->KS$PARAM.HND(PARMX)) -> HND.DAT(
             12221                          KS_HNDLRINDX)) THEN

  12221  5 002227   000000 236000 xsym               LDQ     KS_HNDLRINDX
         5 002230   000033 772000                    QRL     27
         5 002231   200244 756100                    STQ     @TARGET+2,,AUTO
         5 002232   200130 236100                    LDQ     PARMX,,AUTO
         5 002233   000220 402007                    MPY     144,DL
         5 002234   200244 036100                    ADLQ    @TARGET+2,,AUTO
         5 002235   000000 066506                    CMPB    filb='0'B
         5 002236   100001 400001                    BDSC    1,Q,PR1                  by=2,bit=0,n=1
         5 002237   000002 000022 xsym               BDSC    B_VECTNIL+2              by=0,bit=0,n=18
         5 002240   002247 601000 5                  TNZ     s:12230

     1619    12222    5                    DO;

     1620    12223    5                    CALL KSE$ERRMSG(%E$KS_ILGSET,VECTOR(KS_SUB_BUF_1),VECTOR(
             12223                             KS_SUB_BUF_2));

  12223  5 002241   000113 630400 6                  EPPR0   75
         5 002242   000021 631400 xsym               EPPR1   B_VECTNIL+17
         5 002243   000000 701000 xent               TSX1    KSE$ERRMSG
         5 002244   000000 011000                    NOP     0

     1621    12224                         /*E* ERROR: KSN-E$KS_ILGSET
     1622    12225                         MESSAGE: %U1 is not legal for handler %U2
     1623    12226                              DESCRIPTION: SEE MESSAGE */
     1624    12227    5                    NUM_INDX = 0; /* keeps code from looping thru speed index */

  12227  5 002245   200133 450100                    STZ     NUM_INDX,,AUTO

     1625    12228    5                    GOTO SET_ERR;

PL6.E3A0      #004=KSC$SET File=KSC$COMMANDS1.:E05TSI                            WED 07/30/97 01:45 Page:306
  12228  5 002246   003344 710000 5                  TRA     SET_ERR

     1626    12229    5                    END;  /* parameter not legal for this parameter */
     1627    12230    5                 IF KS_TBL(PARMTYPE)->KS$PARAM.FLAGS.INDX(PARMX) THEN DO;

  12230  5 002247   200131 721100                    LXL1    PARMTYPE,,AUTO
         5 002250   000000 474411 xsym               LDP4    KS_TBL,X1
         5 002251   200130 235100                    LDA     PARMX,,AUTO
         5 002252   000002 735000                    ALS     2
         5 002253   400001 234105                    SZN     1,AL,PR4
         5 002254   002375 605000 5                  TPL     s:12263

     1628    12231    5                   PTR$ = BLK$->OUT$BLK.SUBLK$(0)->OUT$BLK.SUBLK$(0)->OUT$BLK.SUBLK$(0
             12231                             );

  12231  5 002255   300003 475500                    LDP5    3,,PR3
         5 002256   500003 476500                    LDP6    3,,PR5
         5 002257   600003 236100                    LDQ     3,,PR6
         5 002260   200147 756100                    STQ     PTR$,,AUTO

     1629    12232    5                    IF PARMX = %KL_HNDLRPARM_USRPARM1 OR

  12232  5 002261   200130 235100                    LDA     PARMX,,AUTO
         5 002262   000037 115007                    CMPA    31,DL
         5 002263   002266 600000 5                  TZE     s:12235
         5 002264   000040 115007                    CMPA    32,DL
         5 002265   002275 601000 5                  TNZ     s:12240

     1630    12233    5                       PARMX = %KL_HNDLRPARM_USRPARM2 THEN
     1631    12234    6                          DO;

     1632    12235    6                          NUM_INDX = 1;

  12235  5 002266   000001 235007                    LDA     1,DL
         5 002267   200133 755100                    STA     NUM_INDX,,AUTO

     1633    12236    6                          INDX_VEC(0) = PTR$->OUT$BLK.CODE;
PL6.E3A0      #004=KSC$SET File=KSC$COMMANDS1.:E05TSI                            WED 07/30/97 01:45 Page:307

  12236  5 002270   200147 477500                    LDP7    PTR$,,AUTO
         5 002271   700000 236100                    LDQ     0,,PR7
         5 002272   777777 376007                    ANQ     -1,DL
         5 002273   200020 756100                    STQ     INDX_VEC,,AUTO

     1634    12237    6                          END;

  12237  5 002274   002375 710000 5                  TRA     s:12263

     1635    12238    5                    ELSE
     1636    12239    6                       DO;

     1637    12240    7                    DO CASE(PTR$->OUT$BLK.CODE);

  12240  5 002275   200147 477500                    LDP7    PTR$,,AUTO
         5 002276   700000 722100                    LXL2    0,,PR7
         5 002277   000004 102003                    CMPX2   4,DU
         5 002300   002302 602012 5                  TNC     s:12240+5,X2
         5 002301   002375 710000 5                  TRA     s:12263
         5 002302   002375 710000 5                  TRA     s:12263
         5 002303   002306 710000 5                  TRA     s:12242
         5 002304   002333 710000 5                  TRA     s:12247
         5 002305   002363 710000 5                  TRA     s:12255

     1638    12241    7                       CASE(%KS_SPEED_LIST);

     1639    12242    7                          NUM_INDX = PTR$->OUT$BLK.NSUBLKS;

  12242  5 002306   700001 236100                    LDQ     1,,PR7
         5 002307   000022 772000                    QRL     18
         5 002310   200133 756100                    STQ     NUM_INDX,,AUTO

     1640    12243    8                          DO J = 0 TO PTR$-> OUT$BLK.NSUBLKS - 1;

  12243  5 002311   200102 450100                    STZ     J,,AUTO
         5 002312   002324 710000 5                  TRA     s:12245+3
PL6.E3A0      #004=KSC$SET File=KSC$COMMANDS1.:E05TSI                            WED 07/30/97 01:45 Page:308

     1641    12244    8                             INDX_VEC(J) = PTR$->OUT$BLK.SUBLK$(J)->OUT$BLK.CODE;

  12244  5 002313   200147 470500                    LDP0    PTR$,,AUTO
         5 002314   200102 720100                    LXL0    J,,AUTO
         5 002315   000003 471510                    LDP1    3,X0,PR0
         5 002316   100000 236100                    LDQ     0,,PR1
         5 002317   777777 376007                    ANQ     -1,DL
         5 002320   200020 756110                    STQ     INDX_VEC,X0,AUTO

     1642    12245    8                             END;  /* DO J */

  12245  5 002321   200102 235100                    LDA     J,,AUTO
         5 002322   000001 035007                    ADLA    1,DL
         5 002323   200102 755100                    STA     J,,AUTO
         5 002324   200147 470500                    LDP0    PTR$,,AUTO
         5 002325   000001 236100                    LDQ     1,,PR0
         5 002326   000022 772000                    QRL     18
         5 002327   200102 116100                    CMPQ    J,,AUTO
         5 002330   002332 600000 5                  TZE     s:12245+9
         5 002331   002313 603000 5                  TRC     s:12244
         5 002332   002375 710000 5                  TRA     s:12263

     1643    12246    7                       CASE(%KS_SPEED_RANGE);

     1644    12247    7                          TEMP1 = PTR$->OUT$BLK.SUBLK$(0)->OUT$BLK.CODE;

  12247  5 002333   700003 470500                    LDP0    3,,PR7
         5 002334   000000 236100                    LDQ     0,,PR0
         5 002335   777777 376007                    ANQ     -1,DL
         5 002336   200137 756100                    STQ     TEMP1,,AUTO

     1645    12248    7                          TEMP2 = PTR$->OUT$BLK.SUBLK$(1)->OUT$BLK.CODE;

  12248  5 002337   700004 470500                    LDP0    4,,PR7
         5 002340   000000 236100                    LDQ     0,,PR0
         5 002341   777777 376007                    ANQ     -1,DL
PL6.E3A0      #004=KSC$SET File=KSC$COMMANDS1.:E05TSI                            WED 07/30/97 01:45 Page:309
         5 002342   200140 756100                    STQ     TEMP2,,AUTO

     1646    12249    7                          NUM_INDX = 0;

  12249  5 002343   200133 450100                    STZ     NUM_INDX,,AUTO

     1647    12250    8                          DO J = TEMP1 TO TEMP2;

  12250  5 002344   200137 235100                    LDA     TEMP1,,AUTO
         5 002345   200102 755100                    STA     J,,AUTO
         5 002346   002357 710000 5                  TRA     s:12253+2

     1648    12251    8                             INDX_VEC(NUM_INDX) = J;

  12251  5 002347   200133 720100                    LXL0    NUM_INDX,,AUTO
         5 002350   200102 235100                    LDA     J,,AUTO
         5 002351   200020 755110                    STA     INDX_VEC,X0,AUTO

     1649    12252    8                             NUM_INDX = NUM_INDX + 1;

  12252  5 002352   200133 236100                    LDQ     NUM_INDX,,AUTO
         5 002353   000001 036007                    ADLQ    1,DL
         5 002354   200133 756100                    STQ     NUM_INDX,,AUTO

     1650    12253    8                             END;  /* DO J */

  12253  5 002355   000001 035007                    ADLA    1,DL
         5 002356   200102 755100                    STA     J,,AUTO
         5 002357   200140 236100                    LDQ     TEMP2,,AUTO
         5 002360   200102 116100                    CMPQ    J,,AUTO
         5 002361   002347 603000 5                  TRC     s:12251
         5 002362   002375 710000 5                  TRA     s:12263

     1651    12254    7                       CASE(%KS_SPEED_ALL);

     1652    12255    7                          NUM_INDX = %KS_SPEED_19200 + 1;

PL6.E3A0      #004=KSC$SET File=KSC$COMMANDS1.:E05TSI                            WED 07/30/97 01:45 Page:310
  12255  5 002363   000020 235007                    LDA     16,DL
         5 002364   200133 755100                    STA     NUM_INDX,,AUTO

     1653    12256    8                          DO J = %KS_SPEED_50 TO %KS_SPEED_19200;

  12256  5 002365   200102 450100                    STZ     J,,AUTO

     1654    12257    8                             INDX_VEC(J) = J;

  12257  5 002366   200102 720100                    LXL0    J,,AUTO
         5 002367   200102 235100                    LDA     J,,AUTO
         5 002370   200020 755110                    STA     INDX_VEC,X0,AUTO

     1655    12258    8                             END;  /* DO J */

  12258  5 002371   000001 035007                    ADLA    1,DL
         5 002372   200102 755100                    STA     J,,AUTO
         5 002373   000020 115007                    CMPA    16,DL
         5 002374   002366 602000 5                  TNC     s:12257

     1656    12259    7                       END;  /* DO CASE */

     1657    12260    6                    END;  /* else parmx = usrparm1 or usrparm2 */

     1658    12261    5                    END;  /* IF FLAGS.INDX */

     1659    12262    4                    END;

     1660    12263    4                 DO K = 0 TO NUM_INDX - 1;

  12263  5 002375   200103 450100                    STZ     K,,AUTO
         5 002376   003356 710000 5                  TRA     s:12456+3

     1661    12264    4                    INDX = INDX_VEC(K);

  12264  5 002377   200103 720100                    LXL0    K,,AUTO
         5 002400   200020 235110                    LDA     INDX_VEC,X0,AUTO
PL6.E3A0      #004=KSC$SET File=KSC$COMMANDS1.:E05TSI                            WED 07/30/97 01:45 Page:311
         5 002401   200017 755100                    STA     INDX,,AUTO

     1662    12265    4                    RCVCQ_SNDCQ = '0'B;

  12265  5 002402   200236 450100                    STZ     RCVCQ_SNDCQ,,AUTO

     1663    12266    4                    PTR$ = BLK$->OUT$BLK.SUBLK$(1);

  12266  5 002403   200145 470500                    LDP0    BLK$,,AUTO
         5 002404   000004 236100                    LDQ     4,,PR0
         5 002405   200147 756100                    STQ     PTR$,,AUTO

     1664    12267    5                    DO CASE(PTR$->OUT$BLK.CODE);

  12267  5 002406   200147 471500                    LDP1    PTR$,,AUTO
         5 002407   100000 721100                    LXL1    0,,PR1
         5 002410   000005 101003                    CMPX1   5,DU
         5 002411   002413 602011 5                  TNC     s:12267+5,X1
         5 002412   002511 710000 5                  TRA     s:12288
         5 002413   002511 710000 5                  TRA     s:12288
         5 002414   002420 710000 5                  TRA     s:12269
         5 002415   002511 710000 5                  TRA     s:12288
         5 002416   002502 710000 5                  TRA     s:12285
         5 002417   002445 710000 5                  TRA     s:12278

     1665    12268    5                       CASE(%KS_DECVAL);

     1666    12269    5                          CALL CHARBIN(VALUE,PTR$->OUT$SYM.TEXT);

  12269  5 002420   100004 236100                    LDQ     4,,PR1
         5 002421   000033 772000                    QRL     27
         5 002422   000000 622006                    EAX2    0,QL
         5 002423   000100 305540                    DTB
         5 002424   100004 230012                    NDSC9   4,,PR1                   cn=1,s=nosgn,sf=0,n=*X2
         5 002425   200244 000010                    NDSC9   @TARGET+2,,AUTO          cn=0,s=lsgnf,sf=0,n=8
         5 002426   200245 236100                    LDQ     @TARGET+3,,AUTO
         5 002427   200143 756100                    STQ     VALUE,,AUTO
PL6.E3A0      #004=KSC$SET File=KSC$COMMANDS1.:E05TSI                            WED 07/30/97 01:45 Page:312

     1667    12270    5                          IF PARMTYPE >= %KS_HNDLR_PARAM AND

  12270  5 002430   200131 235100                    LDA     PARMTYPE,,AUTO
         5 002431   000003 115007                    CMPA    3,DL
         5 002432   002511 602000 5                  TNC     s:12288
         5 002433   200130 235100                    LDA     PARMX,,AUTO
         5 002434   000014 115007                    CMPA    12,DL
         5 002435   002440 600000 5                  TZE     s:12274
         5 002436   000015 115007                    CMPA    13,DL
         5 002437   002511 601000 5                  TNZ     s:12288

     1668    12271    5                             (PARMX = %KL_HNDLRPARM_RCVCQBYTSIZ OR
     1669    12272    5                              PARMX = %KL_HNDLRPARM_SNDCQBYTSIZ) THEN
     1670    12273    6                             DO;

     1671    12274    6                                VALUE = VALUE / 2;

  12274  5 002440   000001 772000                    QRL     1
         5 002441   200143 756100                    STQ     VALUE,,AUTO

     1672    12275    6                                RCVCQ_SNDCQ = '1'B;

  12275  5 002442   400000 236003                    LDQ     -131072,DU
         5 002443   200236 756100                    STQ     RCVCQ_SNDCQ,,AUTO

     1673    12276    6                             END;

  12276  5 002444   002511 710000 5                  TRA     s:12288

     1674    12277    5                       CASE(%KS_HEXVAL);

     1675    12278    5                          VALUE = 0;

  12278  5 002445   200143 450100                    STZ     VALUE,,AUTO

     1676    12279    6                          DO J = 0 TO PTR$->OUT$BLK.SUBLK$(0)->OUT$SYM.COUNT - 1;
PL6.E3A0      #004=KSC$SET File=KSC$COMMANDS1.:E05TSI                            WED 07/30/97 01:45 Page:313

  12279  5 002446   200102 450100                    STZ     J,,AUTO
         5 002447   002472 710000 5                  TRA     s:12283+2

     1677    12280    6                            HEX_CHAR = SUBSTR(PTR$->OUT$BLK.SUBLK$(0)->OUT$SYM.TEXT,J,
             12280                                      1);

  12280  5 002450   200147 470500                    LDP0    PTR$,,AUTO
         5 002451   000003 471500                    LDP1    3,,PR0
         5 002452   100004 236100                    LDQ     4,,PR1
         5 002453   000033 772000                    QRL     27
         5 002454   200102 235100                    LDA     J,,AUTO
         5 002455   040100 100505                    MLR     fill='040'O
         5 002456   100004 200001                    ADSC9   4,A,PR1                  cn=1,n=1
         5 002457   200011 000001                    ADSC9   HEX_CHAR,,AUTO           cn=0,n=1

     1678    12281    6                             CALL INDEX(HEX_DIGIT,HEX_CHAR,HEX_DIGITS);

  12281  5 002460   000100 124400                    SCM     mask='000'O
         5 002461   000026 000020 1                  ADSC9   HEX_DIGITS               cn=0,n=16
         5 002462   200011 000001                    ADSC9   HEX_CHAR,,AUTO           cn=0,n=1
         5 002463   200012 000100                    ARG     HEX_DIGIT,,AUTO

     1679    12282    6                             VALUE = VALUE * 16 + HEX_DIGIT;

  12282  5 002464   200143 236100                    LDQ     VALUE,,AUTO
         5 002465   000004 736000                    QLS     4
         5 002466   200012 036100                    ADLQ    HEX_DIGIT,,AUTO
         5 002467   200143 756100                    STQ     VALUE,,AUTO

     1680    12283    6                             END;  /* DO J */

  12283  5 002470   000001 035007                    ADLA    1,DL
         5 002471   200102 755100                    STA     J,,AUTO
         5 002472   200147 470500                    LDP0    PTR$,,AUTO
         5 002473   000003 471500                    LDP1    3,,PR0
         5 002474   100004 236100                    LDQ     4,,PR1
PL6.E3A0      #004=KSC$SET File=KSC$COMMANDS1.:E05TSI                            WED 07/30/97 01:45 Page:314
         5 002475   000033 772000                    QRL     27
         5 002476   200102 116100                    CMPQ    J,,AUTO
         5 002477   002501 600000 5                  TZE     s:12283+9
         5 002500   002450 603000 5                  TRC     s:12280
         5 002501   002511 710000 5                  TRA     s:12288

     1681    12284    5                       CASE(%KS_RESVAL);

     1682    12285    5                          VALUE = 0;

  12285  5 002502   200143 450100                    STZ     VALUE,,AUTO

     1683    12286    5                          VALUEC.RES = PTR$->OUT$SYM.TEXT;

  12286  5 002503   100004 236100                    LDQ     4,,PR1
         5 002504   000033 772000                    QRL     27
         5 002505   000000 621006                    EAX1    0,QL
         5 002506   040100 100540                    MLR     fill='040'O
         5 002507   100004 200011                    ADSC9   4,,PR1                   cn=1,n=*X1
         5 002510   200143 400002                    ADSC9   VALUE,,AUTO              cn=2,n=2

     1684    12287    5                       END;  /* DO CASE */

     1685    12288    5                    DO CASE(PARMTYPE);

  12288  5 002511   200131 235100                    LDA     PARMTYPE,,AUTO
         5 002512   000003 115007                    CMPA    3,DL
         5 002513   002515 602005 5                  TNC     s:12288+4,AL
         5 002514   002560 710000 5                  TRA     s:12303
         5 002515   002560 710000 5                  TRA     s:12303
         5 002516   002520 710000 5                  TRA     s:12290
         5 002517   002554 710000 5                  TRA     s:12301

     1686    12289    5                       CASE(%KS_BOOT_PARAM);

     1687    12290    5                       KS_FEPBOOT_KEY.NODE = KS_NODE;

PL6.E3A0      #004=KSC$SET File=KSC$COMMANDS1.:E05TSI                            WED 07/30/97 01:45 Page:315
  12290  5 002520   000000 236000 xsym               LDQ     KS_NODE
         5 002521   000011 736000                    QLS     9
         5 002522   000344 552010 2                  STBQ    KS_FEPBOOT_KEY,'10'O

     1688    12291    5                          READ_NETCON.KEY_ = VECTOR(KS_FEPBOOT_KEY);

  12291  5 002523   000010 237000 6                  LDAQ    8
         5 002524   001276 757000 2                  STAQ    READ_NETCON+2

     1689    12292    5                          READ_NETCON.BUF_ = VECTOR(KS_FEPBOOT);

  12292  5 002525   000006 237000 6                  LDAQ    6
         5 002526   001300 757000 2                  STAQ    READ_NETCON+4

     1690    12293    5                          CALL M$READ(READ_NETCON) ALTRET(UPD_NETCON_ERR);

  12293  5 002527   001274 630400 2                  EPPR0   READ_NETCON
         5 002530   440000 713400                    CLIMB   alt,read
         5 002531   401400 401760                    pmme    nvectors=4
         5 002532   003333 702000 5                  TSX2    UPD_NETCON_ERR

     1691    12294    5                          KS_FEPBOOT.BOOTPARAMS(PARMX+INDX) = VALUE;

  12294  5 002533   200130 236100                    LDQ     PARMX,,AUTO
         5 002534   200017 036100                    ADLQ    INDX,,AUTO
         5 002535   200143 235100                    LDA     VALUE,,AUTO
         5 002536   000324 755006 2                  STA     KS_FEPBOOT+10,QL

     1692    12295    5                          WRITE_NETCON.KEY_ = VECTOR(KS_FEPBOOT_KEY);

  12295  5 002537   000010 237000 6                  LDAQ    8
         5 002540   001314 757000 2                  STAQ    WRITE_NETCON+2

     1693    12296    5                          WRITE_NETCON.BUF_ = VECTOR(KS_FEPBOOT);

  12296  5 002541   000006 237000 6                  LDAQ    6
         5 002542   001316 757000 2                  STAQ    WRITE_NETCON+4
PL6.E3A0      #004=KSC$SET File=KSC$COMMANDS1.:E05TSI                            WED 07/30/97 01:45 Page:316

     1694    12297    5                          CALL M$WRITE(WRITE_NETCON) ALTRET(UPD_NETCON_ERR);

  12297  5 002543   001312 630400 2                  EPPR0   WRITE_NETCON
         5 002544   440001 713400                    CLIMB   alt,write
         5 002545   401400 401760                    pmme    nvectors=4
         5 002546   003333 702000 5                  TSX2    UPD_NETCON_ERR

     1695    12298    5                          CALL KSW$WRITE(WRITE_SUCCESSFULL_VEC,VECTOR(KS_SUB_BUF_1),
             12298                                   VECTOR(NETCON));

  12298  5 002547   000120 630400 6                  EPPR0   80
         5 002550   000021 631400 xsym               EPPR1   B_VECTNIL+17
         5 002551   000000 701000 xent               TSX1    KSW$WRITE
         5 002552   000000 011000                    NOP     0

     1696    12299    5                          GOTO END_LOOP;

  12299  5 002553   003726 710000 5                  TRA     END_LOOP

     1697    12300    5                       CASE(%KS_LCP6_PARAM);

     1698    12301    5                          KS_CONTROL.HANDLER = 'BABOON';

  12301  5 002554   040000 100400                    MLR     fill='040'O
         5 002555   000101 000006 1                  ADSC9   FEP+11                   cn=0,n=6
         5 002556   001224 000010 2                  ADSC9   KS_CONTROL+1             cn=0,n=8
         5 002557   002563 710000 5                  TRA     s:12305

     1699    12302    5                       CASE(ELSE);

     1700    12303    5                          KS_CONTROL.HANDLER = KS_HNDLRNAME;

  12303  5 002560   040000 100400                    MLR     fill='040'O
         5 002561   000000 000010 xsym               ADSC9   KS_HNDLRNAME             cn=0,n=8
         5 002562   001224 000010 2                  ADSC9   KS_CONTROL+1             cn=0,n=8

PL6.E3A0      #004=KSC$SET File=KSC$COMMANDS1.:E05TSI                            WED 07/30/97 01:45 Page:317
     1701    12304    5                       END;  /* DO CASE */

     1702    12305    4                       IF NOT (KS_TBL(PARMTYPE)->KS$PARAM.FLAGS.SPECIAL(PARMX)) THEN

  12305  5 002563   000000 470405 xsym               LDP0    KS_TBL,AL
         5 002564   200130 235100                    LDA     PARMX,,AUTO
         5 002565   000002 735000                    ALS     2
         5 002566   000001 236105                    LDQ     1,AL,PR0
         5 002567   200000 316003                    CANQ    65536,DU
         5 002570   002721 601000 5                  TNZ     s:12329

     1703    12306    5                          DO;

     1704    12307    5                          IF VALUE > KS_TBL(PARMTYPE) -> KS$PARAM.MAX(PARMX) OR

  12307  5 002571   200131 720100                    LXL0    PARMTYPE,,AUTO
         5 002572   000000 470410 xsym               LDP0    KS_TBL,X0
         5 002573   000002 236105                    LDQ     2,AL,PR0
         5 002574   000022 772000                    QRL     18
         5 002575   200143 116100                    CMPQ    VALUE,,AUTO
         5 002576   002604 602000 5                  TNC     s:12309
         5 002577   000002 236105                    LDQ     2,AL,PR0
         5 002600   777777 376007                    ANQ     -1,DL
         5 002601   200143 116100                    CMPQ    VALUE,,AUTO
         5 002602   002721 602000 5                  TNC     s:12329
         5 002603   002721 600000 5                  TZE     s:12329

     1705    12308    6                             VALUE < KS_TBL(PARMTYPE) -> KS$PARAM.MIN(PARMX) THEN DO;

     1706    12309    6                                IF RCVCQ_SNDCQ THEN

  12309  5 002604   200236 234100                    SZN     RCVCQ_SNDCQ,,AUTO
         5 002605   002643 605000 5                  TPL     s:12316

     1707    12310    7                                   DO;

     1708    12311    7                                     CALL KSU$STRIP_ZEROS (KS_TBL(PARMTYPE)->KS$PARAM.
PL6.E3A0      #004=KSC$SET File=KSC$COMMANDS1.:E05TSI                            WED 07/30/97 01:45 Page:318
             12311                                               MAX(PARMX)*2,KS_SUB_BUF_2.TEXT,KS_SUB_BUF_2.
             12311                                               COUNT);

  12311  5 002606   000002 236105                    LDQ     2,AL,PR0
         5 002607   000021 772000                    QRL     17
         5 002610   000123 376000 6                  ANQ     83
         5 002611   200244 756100                    STQ     @TARGET+2,,AUTO
         5 002612   000124 237000 6                  LDAQ    84
         5 002613   200246 757100                    STAQ    @TARGET+4,,AUTO
         5 002614   200244 631500                    EPPR1   @TARGET+2,,AUTO
         5 002615   200245 451500                    STP1    @TARGET+3,,AUTO
         5 002616   200245 630500                    EPPR0   @TARGET+3,,AUTO
         5 002617   000021 631400 xsym               EPPR1   B_VECTNIL+17
         5 002620   000000 701000 xent               TSX1    KSU$STRIP_ZEROS
         5 002621   000000 011000                    NOP     0

     1709    12312    7                                     CALL KSU$STRIP_ZEROS (KS_TBL(PARMTYPE)->KS$PARAM.
             12312                                               MIN(PARMX)*2,KS_SUB_BUF_3.TEXT,KS_SUB_BUF_3.
             12312                                               COUNT);

  12312  5 002622   200131 720100                    LXL0    PARMTYPE,,AUTO
         5 002623   000000 470410 xsym               LDP0    KS_TBL,X0
         5 002624   200130 235100                    LDA     PARMX,,AUTO
         5 002625   000002 735000                    ALS     2
         5 002626   000002 236105                    LDQ     2,AL,PR0
         5 002627   000001 736000                    QLS     1
         5 002630   000123 376000 6                  ANQ     83
         5 002631   200244 756100                    STQ     @TARGET+2,,AUTO
         5 002632   000126 237000 6                  LDAQ    86
         5 002633   200246 757100                    STAQ    @TARGET+4,,AUTO
         5 002634   200244 631500                    EPPR1   @TARGET+2,,AUTO
         5 002635   200245 451500                    STP1    @TARGET+3,,AUTO
         5 002636   200245 630500                    EPPR0   @TARGET+3,,AUTO
         5 002637   000021 631400 xsym               EPPR1   B_VECTNIL+17
         5 002640   000000 701000 xent               TSX1    KSU$STRIP_ZEROS
         5 002641   000000 011000                    NOP     0

PL6.E3A0      #004=KSC$SET File=KSC$COMMANDS1.:E05TSI                            WED 07/30/97 01:45 Page:319
     1710    12313    7                                   END;

  12313  5 002642   002674 710000 5                  TRA     s:12319

     1711    12314    6                                ELSE
     1712    12315    7                                   DO;

     1713    12316    7                                     CALL KSU$STRIP_ZEROS (KS_TBL(PARMTYPE)->KS$PARAM.
             12316                                               MAX(PARMX),KS_SUB_BUF_2.TEXT,KS_SUB_BUF_2.
             12316                                               COUNT);

  12316  5 002643   000025 236000 6                  LDQ     21
         5 002644   200246 756100                    STQ     @TARGET+4,,AUTO
         5 002645   000124 236000 6                  LDQ     84
         5 002646   200245 756100                    STQ     @TARGET+3,,AUTO
         5 002647   000002 631505                    EPPR1   2,AL,PR0
         5 002650   200244 451500                    STP1    @TARGET+2,,AUTO
         5 002651   200244 630500                    EPPR0   @TARGET+2,,AUTO
         5 002652   000021 631400 xsym               EPPR1   B_VECTNIL+17
         5 002653   000000 701000 xent               TSX1    KSU$STRIP_ZEROS
         5 002654   000000 011000                    NOP     0

     1714    12317    7                                     CALL KSU$STRIP_ZEROS (KS_TBL(PARMTYPE)->KS$PARAM.
             12317                                               MIN(PARMX),KS_SUB_BUF_3.TEXT,KS_SUB_BUF_3.
             12317                                               COUNT);

  12317  5 002655   200131 720100                    LXL0    PARMTYPE,,AUTO
         5 002656   000000 470410 xsym               LDP0    KS_TBL,X0
         5 002657   000127 236000 6                  LDQ     87
         5 002660   200246 756100                    STQ     @TARGET+4,,AUTO
         5 002661   000126 236000 6                  LDQ     86
         5 002662   200245 756100                    STQ     @TARGET+3,,AUTO
         5 002663   200130 235100                    LDA     PARMX,,AUTO
         5 002664   000004 735000                    ALS     4
         5 002665   000012 035007                    ADLA    10,DL
         5 002666   000000 500505                    A9BD    0,AL,PR0
         5 002667   200244 450500                    STP0    @TARGET+2,,AUTO
PL6.E3A0      #004=KSC$SET File=KSC$COMMANDS1.:E05TSI                            WED 07/30/97 01:45 Page:320
         5 002670   200244 630500                    EPPR0   @TARGET+2,,AUTO
         5 002671   000021 631400 xsym               EPPR1   B_VECTNIL+17
         5 002672   000000 701000 xent               TSX1    KSU$STRIP_ZEROS
         5 002673   000000 011000                    NOP     0

     1715    12318    7                                   END;

     1716    12319    6                                KS_SUB_BUF_4.COUNT = SIZEC(KS_HNDLRNAME);

  12319  5 002674   010000 236003                    LDQ     4096,DU
         5 002675   200114 552140                    STBQ    KS_SUB_BUF_4,'40'O,AUTO

     1717    12320    6                                KS_SUB_BUF_4.TEXT  = KS_HNDLRNAME;

  12320  5 002676   040100 100400                    MLR     fill='040'O
         5 002677   000000 000010 xsym               ADSC9   KS_HNDLRNAME             cn=0,n=8
         5 002700   200114 200037                    ADSC9   KS_SUB_BUF_4,,AUTO       cn=1,n=31

     1718    12321    6                                CALL KSE$ERRMSG(%E$KS_BADPRMVAL,VECTOR(KS_SUB_BUF_4),
             12321                                         VECTOR(KS_SUB_BUF_2),VECTOR(KS_SUB_BUF_3));

  12321  5 002701   000022 235000 6                  LDA     18
         5 002702   200244 452500                    STP2    @TARGET+2,,AUTO
         5 002703   200244 236100                    LDQ     @TARGET+2,,AUTO
         5 002704   000114 036003                    ADLQ    76,DU
         5 002705   200246 757100                    STAQ    @TARGET+4,,AUTO
         5 002706   000134 237000 6                  LDAQ    92
         5 002707   200252 757100                    STAQ    @TARGET+8,,AUTO
         5 002710   200246 630500                    EPPR0   @TARGET+4,,AUTO
         5 002711   200251 450500                    STP0    @TARGET+7,,AUTO
         5 002712   000133 236000 6                  LDQ     91
         5 002713   200250 756100                    STQ     @TARGET+6,,AUTO
         5 002714   200250 630500                    EPPR0   @TARGET+6,,AUTO
         5 002715   000022 631400 xsym               EPPR1   B_VECTNIL+18
         5 002716   000000 701000 xent               TSX1    KSE$ERRMSG
         5 002717   000000 011000                    NOP     0

PL6.E3A0      #004=KSC$SET File=KSC$COMMANDS1.:E05TSI                            WED 07/30/97 01:45 Page:321
     1719    12322                                     /*E* ERROR: KSN-E$KS_BADPRMVAL-0
     1720    12323                                          MESSAGE: Specified value is outside of bounds
     1721    12324                                         %U3 to %U2, set for this parameter on handler %U1.
     1722    12325                               DESCRIPTION: VALUE LARGER/SMALLER THEN SPECIFIED MAX/MIN. */
     1723    12326    6                                GOTO SET_ERR;

  12326  5 002720   003344 710000 5                  TRA     SET_ERR

     1724    12327    6                             END;
     1725    12328    5                          END;
     1726    12329    4                    IF (BLK$->OUT$BLK.NSUBLKS = 3) THEN

  12329  5 002721   200145 470500                    LDP0    BLK$,,AUTO
         5 002722   000001 220100                    LDX0    1,,PR0
         5 002723   000003 100003                    CMPX0   3,DU
         5 002724   002734 601000 5                  TNZ     s:12332

     1727    12330    4                      PERM_PARM = BLK$->OUT$BLK.SUBLK$(2)->OUT$BLK.SUBLK$(0)->OUT$BLK.
             12330                                CODE;

  12330  5 002725   000005 471500                    LDP1    5,,PR0
         5 002726   100003 473500                    LDP3    3,,PR1
         5 002727   300000 236100                    LDQ     0,,PR3
         5 002730   777777 376007                    ANQ     -1,DL
         5 002731   000033 736000                    QLS     27
         5 002732   200132 756100                    STQ     PERM_PARM,,AUTO
         5 002733   002740 710000 5                  TRA     s:12334

     1728    12331    4                    ELSE
     1729    12332    4                       PERM_PARM = KS_SELPRMOPT;

  12332  5 002734   000000 236000 xsym               LDQ     KS_SELPRMOPT
         5 002735   000033 772000                    QRL     27
         5 002736   000033 736000                    QLS     27
         5 002737   200132 756100                    STQ     PERM_PARM,,AUTO

     1730    12333
PL6.E3A0      #004=KSC$SET File=KSC$COMMANDS1.:E05TSI                            WED 07/30/97 01:45 Page:322
     1731    12334    4                    IF PERM_PARM = %KS_TEMP OR PERM_PARM = %KS_PERM THEN

  12334  5 002740   200132 236100                    LDQ     PERM_PARM,,AUTO
         5 002741   777000 376003                    ANQ     -512,DU
         5 002742   001000 116003                    CMPQ    512,DU
         5 002743   002746 600000 5                  TZE     s:12336
         5 002744   002000 116003                    CMPQ    1024,DU
         5 002745   003077 601000 5                  TNZ     UPDATE_FILE

     1732    12335    5                       DO;

     1733    12336    5                    KS_CONTROL.CMD = %KL_CONTROL_SET;

  12336  5 002746   000001 221003                    LDX1    1,DU
         5 002747   001233 441000 2                  SXL1    KS_CONTROL+8

     1734    12337    5                    KS_CONTROL.PARMX = PARMX;

  12337  5 002750   200130 720100                    LXL0    PARMX,,AUTO
         5 002751   001234 740000 2                  STX0    KS_CONTROL+9

     1735    12338    5                    KS_CONTROL.INDX = INDX;

  12338  5 002752   200017 722100                    LXL2    INDX,,AUTO
         5 002753   001234 442000 2                  SXL2    KS_CONTROL+9

     1736    12339    5   IF PTR$->OUT$BLK.CODE = %KS_DECVAL OR PTR$->OUT$BLK.CODE = %KS_HEXVAL THEN

  12339  5 002754   200147 471500                    LDP1    PTR$,,AUTO
         5 002755   100000 723100                    LXL3    0,,PR1
         5 002756   000001 103003                    CMPX3   1,DU
         5 002757   002762 600000 5                  TZE     s:12340
         5 002760   000004 103003                    CMPX3   4,DU
         5 002761   002773 601000 5                  TNZ     s:12342

     1737    12340    5                       CALL KSU$UNPACK (VALUE,KS_CONTROL.VALUE);

PL6.E3A0      #004=KSC$SET File=KSC$COMMANDS1.:E05TSI                            WED 07/30/97 01:45 Page:323
  12340  5 002762   000136 236000 6                  LDQ     94
         5 002763   200245 756100                    STQ     @TARGET+3,,AUTO
         5 002764   200143 633500                    EPPR3   VALUE,,AUTO
         5 002765   200244 453500                    STP3    @TARGET+2,,AUTO
         5 002766   200244 630500                    EPPR0   @TARGET+2,,AUTO
         5 002767   000020 631400 xsym               EPPR1   B_VECTNIL+16
         5 002770   000000 701000 xent               TSX1    KSU$UNPACK
         5 002771   000000 011000                    NOP     0
         5 002772   002775 710000 5                  TRA     s:12343

     1738    12341    5                    ELSE
     1739    12342    5                       KS_CONTROL.VALUE = VALUE;

  12342  5 002773   200143 724100                    LXL4    VALUE,,AUTO
         5 002774   001235 744000 2                  STX4    KS_CONTROL+10

     1740    12343    5                    CALL KSR$WR_HLPCG(VECTOR(KS_CONTROL)) ALTRET(UPDATE_FILE);

  12343  5 002775   000142 630400 6                  EPPR0   98
         5 002776   000017 631400 xsym               EPPR1   B_VECTNIL+15
         5 002777   000000 701000 xent               TSX1    KSR$WR_HLPCG
         5 003000   003077 702000 5                  TSX2    UPDATE_FILE

     1741    12344    5                    CALL KSR$RD_HLPCG ('0'B)

  12344  5 003001   000143 630400 6                  EPPR0   99
         5 003002   000017 631400 xsym               EPPR1   B_VECTNIL+15
         5 003003   000000 701000 xent               TSX1    KSR$RD_HLPCG
         5 003004   003012 702000 5                  TSX2    s:12351

     1742    12345    6                       WHENRETURN DO;

     1743    12346    6                          CALL KSW$WRITE(WRITE_SUCCESSFULL_VEC,VECTOR(KS_SUB_BUF_1),
             12346                                   VECTOR(FEP));

  12346  5 003005   000146 630400 6                  EPPR0   102
         5 003006   000021 631400 xsym               EPPR1   B_VECTNIL+17
PL6.E3A0      #004=KSC$SET File=KSC$COMMANDS1.:E05TSI                            WED 07/30/97 01:45 Page:324
         5 003007   000000 701000 xent               TSX1    KSW$WRITE
         5 003010   000000 011000                    NOP     0

     1744    12347                                    /*E* ERROR: KSN-E$KS_PARMSET-0
     1745    12348                                         MESSAGE: %U1 set successfully.*/
     1746    12349    6                       END;

  12349  5 003011   003077 710000 5                  TRA     UPDATE_FILE

     1747    12350    6                       WHENALTRETURN DO;

     1748    12351    7                          DO SELECT (KS$HDR.RESULTS.ERR#);

  12351  5 003012   001222 470400 2                  LDP0    HDR$
         5 003013   000007 236100                    LDQ     7,,PR0
         5 003014   000003 772000                    QRL     3
         5 003015   037777 376007                    ANQ     16383,DL
         5 003016   002354 116007                    CMPQ    1260,DL
         5 003017   003030 602000 5                  TNC     s:12351+14
         5 003020   003045 600000 5                  TZE     s:12355
         5 003021   003030 116007                    CMPQ    1560,DL
         5 003022   003077 602000 5                  TNC     UPDATE_FILE
         5 003023   003065 600000 5                  TZE     s:12364
         5 003024   000003 736000                    QLS     3
         5 003025   030310 116007                    CMPQ    12488,DL
         5 003026   003077 601000 5                  TNZ     UPDATE_FILE
         5 003027   003072 710000 5                  TRA     s:12366
         5 003030   000007 236100                    LDQ     7,,PR0
         5 003031   377770 376007                    ANQ     131064,DL
         5 003032   023070 116007                    CMPQ    9784,DL
         5 003033   003077 601000 5                  TNZ     UPDATE_FILE
         5 003034   003035 710000 5                  TRA     s:12353

     1749    12352    7                             SELECT (%E$NODENA);

     1750    12353    7                                CALL XUR$ERRMSG(KS_HDR.RESULTS);

PL6.E3A0      #004=KSC$SET File=KSC$COMMANDS1.:E05TSI                            WED 07/30/97 01:45 Page:325
  12353  5 003035   000000 236000 xsym               LDQ     KS_MSGBUF$
         5 003036   000007 036003                    ADLQ    7,DU
         5 003037   200244 756100                    STQ     @TARGET+2,,AUTO
         5 003040   200244 630500                    EPPR0   @TARGET+2,,AUTO
         5 003041   000017 631400 xsym               EPPR1   B_VECTNIL+15
         5 003042   000000 701000 xent               TSX1    XUR$ERRMSG
         5 003043   000000 011000                    NOP     0
         5 003044   003077 710000 5                  TRA     UPDATE_FILE

     1751    12354    7                             SELECT (%E$NOHANDLER);

     1752    12355    7                                IF PARMTYPE = %KS_NODEADMN_PARAM THEN

  12355  5 003045   200131 235100                    LDA     PARMTYPE,,AUTO
         5 003046   000010 115007                    CMPA    8,DL
         5 003047   003055 601000 5                  TNZ     s:12362

     1753    12356    7                                   CALL KSE$ERRMSG(%E$KS_INIT_ONLY,

  12356  5 003050   000151 630400 6                  EPPR0   105
         5 003051   000020 631400 xsym               EPPR1   B_VECTNIL+16
         5 003052   000000 701000 xent               TSX1    KSE$ERRMSG
         5 003053   000000 011000                    NOP     0
         5 003054   003077 710000 5                  TRA     UPDATE_FILE

     1754    12357    7                                      VECTOR(KS_SUB_BUF_1));
     1755    12358                                        /*E* ERROR: KSN-E$KS_INIT_ONLY-0
     1756    12359                                           MESSAGE: %U1 is only settable at initialization.
     1757    12360          MESSAGE1: This parameter is not allowed to be set while the handler is running.*/
     1758    12361    7                                ELSE
     1759    12362    7                                   CALL XUR$ERRMSG(KS_HDR.RESULTS);

  12362  5 003055   000000 236000 xsym               LDQ     KS_MSGBUF$
         5 003056   000007 036003                    ADLQ    7,DU
         5 003057   200244 756100                    STQ     @TARGET+2,,AUTO
         5 003060   200244 630500                    EPPR0   @TARGET+2,,AUTO
         5 003061   000017 631400 xsym               EPPR1   B_VECTNIL+15
PL6.E3A0      #004=KSC$SET File=KSC$COMMANDS1.:E05TSI                            WED 07/30/97 01:45 Page:326
         5 003062   000000 701000 xent               TSX1    XUR$ERRMSG
         5 003063   000000 011000                    NOP     0
         5 003064   003077 710000 5                  TRA     UPDATE_FILE

     1760    12363    7                             SELECT (%E$PARM_INITONLY);

     1761    12364    7                               CALL KSE$ERRMSG (%E$KS_INIT_ONLY,VECTOR(KS_SUB_BUF_1));

  12364  5 003065   000151 630400 6                  EPPR0   105
         5 003066   000020 631400 xsym               EPPR1   B_VECTNIL+16
         5 003067   000000 701000 xent               TSX1    KSE$ERRMSG
         5 003070   000000 011000                    NOP     0
         5 003071   003077 710000 5                  TRA     UPDATE_FILE

     1762    12365    7                             SELECT (%E$PARM_UNDEF);

     1763    12366    7                                CALL KSE$ERRMSG (%E$KS_ILGSET,VECTOR(KS_SUB_BUF_1),
             12366                                         VECTOR(KS_SUB_BUF_2));

  12366  5 003072   000113 630400 6                  EPPR0   75
         5 003073   000021 631400 xsym               EPPR1   B_VECTNIL+17
         5 003074   000000 701000 xent               TSX1    KSE$ERRMSG
         5 003075   000000 011000                    NOP     0

     1764    12367    7                                GOTO SET_ERR;

  12367  5 003076   003344 710000 5                  TRA     SET_ERR

     1765    12368    7                          END;

     1766    12369    6                       END;
     1767    12370    5                       END;  /* not disponly and ( perm or term ) */

     1768    12371    4   UPDATE_FILE:     IF PERM_PARM = %KS_FILE OR PERM_PARM = %KS_PERM THEN

  12371  5 003077   200132 236100       UPDATE_FILE  LDQ     PERM_PARM,,AUTO
         5 003100   777000 376003                    ANQ     -512,DU
PL6.E3A0      #004=KSC$SET File=KSC$COMMANDS1.:E05TSI                            WED 07/30/97 01:45 Page:327
         5 003101   003000 116003                    CMPQ    1536,DU
         5 003102   003105 600000 5                  TZE     s:12373
         5 003103   002000 116003                    CMPQ    1024,DU
         5 003104   003343 601000 5                  TNZ     s:12449

     1769    12372    5                      DO; /* update :NETCON FILE */

     1770    12373    6                       DO CASE(PARMTYPE);

  12373  5 003105   200131 235100                    LDA     PARMTYPE,,AUTO
         5 003106   000003 115007                    CMPA    3,DL
         5 003107   003111 602005 5                  TNC     s:12373+4,AL
         5 003110   003147 710000 5                  TRA     s:12385
         5 003111   003147 710000 5                  TRA     s:12385
         5 003112   003147 710000 5                  TRA     s:12385
         5 003113   003114 710000 5                  TRA     s:12375

     1771    12374    6                          CASE(%KS_LCP6_PARAM);

     1772    12375    6                          KS_FEPCTL_KEY.NODE = KS_NODE;

  12375  5 003114   000000 236000 xsym               LDQ     KS_NODE
         5 003115   000011 736000                    QLS     9
         5 003116   000373 552010 2                  STBQ    KS_FEPCTL_KEY,'10'O

     1773    12376    6                             READ_NETCON.KEY_ = VECTOR(KS_FEPCTL_KEY);

  12376  5 003117   000154 237000 6                  LDAQ    108
         5 003120   001276 757000 2                  STAQ    READ_NETCON+2

     1774    12377    6                             READ_NETCON.BUF_ = VECTOR(KS_FEPCTL);

  12377  5 003121   000156 237000 6                  LDAQ    110
         5 003122   001300 757000 2                  STAQ    READ_NETCON+4

     1775    12378    6                             CALL M$READ(READ_NETCON) ALTRET(UPD_NETCON_ERR);

PL6.E3A0      #004=KSC$SET File=KSC$COMMANDS1.:E05TSI                            WED 07/30/97 01:45 Page:328
  12378  5 003123   001274 630400 2                  EPPR0   READ_NETCON
         5 003124   440000 713400                    CLIMB   alt,read
         5 003125   401400 401760                    pmme    nvectors=4
         5 003126   003333 702000 5                  TSX2    UPD_NETCON_ERR

     1776    12379    6                             KS_FEPCTL.PARAMS(PARMX) = VALUE;

  12379  5 003127   200130 720100                    LXL0    PARMX,,AUTO
         5 003130   200143 235100                    LDA     VALUE,,AUTO
         5 003131   000346 755010 2                  STA     KS_FEPCTL+1,X0

     1777    12380    6                             WRITE_NETCON.KEY_ = VECTOR(KS_FEPCTL_KEY);

  12380  5 003132   000154 237000 6                  LDAQ    108
         5 003133   001314 757000 2                  STAQ    WRITE_NETCON+2

     1778    12381    6                             WRITE_NETCON.BUF_ = VECTOR(KS_FEPCTL);

  12381  5 003134   000156 237000 6                  LDAQ    110
         5 003135   001316 757000 2                  STAQ    WRITE_NETCON+4

     1779    12382    6                             CALL M$WRITE(WRITE_NETCON) ALTRET(UPD_NETCON_ERR);

  12382  5 003136   001312 630400 2                  EPPR0   WRITE_NETCON
         5 003137   440001 713400                    CLIMB   alt,write
         5 003140   401400 401760                    pmme    nvectors=4
         5 003141   003333 702000 5                  TSX2    UPD_NETCON_ERR

     1780    12383    6                          CALL KSW$WRITE(WRITE_SUCCESSFULL_VEC,VECTOR(KS_SUB_BUF_1),
             12383                                   VECTOR(NETCON));

  12383  5 003142   000120 630400 6                  EPPR0   80
         5 003143   000021 631400 xsym               EPPR1   B_VECTNIL+17
         5 003144   000000 701000 xent               TSX1    KSW$WRITE
         5 003145   000000 011000                    NOP     0
         5 003146   003332 710000 5                  TRA     s:12440

PL6.E3A0      #004=KSC$SET File=KSC$COMMANDS1.:E05TSI                            WED 07/30/97 01:45 Page:329
     1781    12384    6                          CASE(ELSE);

     1782    12385    6                          KS_HANDLER_KEY.NODE = KS_NODE;

  12385  5 003147   000000 236000 xsym               LDQ     KS_NODE
         5 003150   000011 736000                    QLS     9
         5 003151   000307 552010 2                  STBQ    KS_HANDLER_KEY,'10'O

     1783    12386    6                             KS_HANDLER_KEY.HNDLR = KS_HNDLRNAME;

  12386  5 003152   040000 100400                    MLR     fill='040'O
         5 003153   000000 000010 xsym               ADSC9   KS_HNDLRNAME             cn=0,n=8
         5 003154   000307 600010 2                  ADSC9   KS_HANDLER_KEY           cn=3,n=8

     1784    12387    6                             CALL KSU$READ_NETCON(VECTOR(KS_HANDLER_KEY),VECTOR(
             12387                                      HNDLR_BUF))

  12387  5 003155   000070 630400 6                  EPPR0   56
         5 003156   000020 631400 xsym               EPPR1   B_VECTNIL+16
         5 003157   000000 701000 xent               TSX1    KSU$READ_NETCON
         5 003160   003162 702000 5                  TSX2    s:12389
         5 003161   003167 710000 5                  TRA     s:12392

     1785    12388    7                                WHENALTRETURN DO;

     1786    12389    7                                   CALL KSE$ERRMSG(%E$KS_HAND_NOT_DEF,VECTOR(
             12389                                            KS_SUB_BUF_2),VECTOR(KS_SUB_BUF_3));

  12389  5 003162   000160 630400 6                  EPPR0   112
         5 003163   000021 631400 xsym               EPPR1   B_VECTNIL+17
         5 003164   000000 701000 xent               TSX1    KSE$ERRMSG
         5 003165   000000 011000                    NOP     0

     1787    12390    7                                   GOTO SET_ERR;

  12390  5 003166   003344 710000 5                  TRA     SET_ERR

PL6.E3A0      #004=KSC$SET File=KSC$COMMANDS1.:E05TSI                            WED 07/30/97 01:45 Page:330
     1788    12391    7                                END;
     1789    12392    6                             IF KS_TBL(PARMTYPE)->KS$PARAM.FLAGS.INDX(PARMX) THEN

  12392  5 003167   200131 720100                    LXL0    PARMTYPE,,AUTO
         5 003170   000000 470410 xsym               LDP0    KS_TBL,X0
         5 003171   200130 235100                    LDA     PARMX,,AUTO
         5 003172   000002 735000                    ALS     2
         5 003173   000001 234105                    SZN     1,AL,PR0
         5 003174   003246 605000 5                  TPL     s:12408

     1790    12393    7                                DO;

     1791    12394    7                                INDX_R = PARMX - %KL_HNDLRPARM_BLOCK;

  12394  5 003175   200130 236100                    LDQ     PARMX,,AUTO
         5 003176   000035 136007                    SBLQ    29,DL
         5 003177   000033 736000                    QLS     27
         5 003200   200152 756100                    STQ     INDX_R,,AUTO

     1792    12395    7                                IF KS$HNDLR.NPARAMI <= INDX_R THEN

  12395  5 003201   000160 471400 2                  LDP1    HANDLER$
         5 003202   100014 236100                    LDQ     12,,PR1
         5 003203   000777 376007                    ANQ     511,DL
         5 003204   200244 756100                    STQ     @TARGET+2,,AUTO
         5 003205   200152 236100                    LDQ     INDX_R,,AUTO
         5 003206   000033 772000                    QRL     27
         5 003207   200244 116100                    CMPQ    @TARGET+2,,AUTO
         5 003210   003227 604000 5                  TMI     s:12403

     1793    12396    8                                   DO;

     1794    12397    8                                   IF KS$HNDLR.IPARAM.ARRAY_SZ(INDX_R) > INDX THEN

  12397  5 003211   100033 236106                    LDQ     27,QL,PR1
         5 003212   000011 772000                    QRL     9
         5 003213   000777 376007                    ANQ     511,DL
PL6.E3A0      #004=KSC$SET File=KSC$COMMANDS1.:E05TSI                            WED 07/30/97 01:45 Page:331
         5 003214   200017 116100                    CMPQ    INDX,,AUTO
         5 003215   003227 602000 5                  TNC     s:12403
         5 003216   003227 600000 5                  TZE     s:12403

     1795    12398    9                                      DO;

     1796    12399    9                                      KS$HNDLR.IPARAM.ARRAY_SZ(INDX_R) = INDX;

  12399  5 003217   200152 236100                    LDQ     INDX_R,,AUTO
         5 003220   000033 772000                    QRL     27
         5 003221   000000 621006                    EAX1    0,QL
         5 003222   200017 236100                    LDQ     INDX,,AUTO
         5 003223   000011 736000                    QLS     9
         5 003224   100033 676111                    ERQ     27,X1,PR1
         5 003225   777000 376007                    ANQ     -512,DL
         5 003226   100033 656111                    ERSQ    27,X1,PR1

     1797    12400    9                                      END;

     1798    12401    8                                   END;

     1799    12402
     1800    12403    7                                PTR$ = ADDR(HNDLR_BUF);

  12403  5 003227   000021 236000 6                  LDQ     17
         5 003230   200147 756100                    STQ     PTR$,,AUTO

     1801    12404    7                                PTR$ = PINCRW(PTR$,KS$HNDLR.IPARAM.OFFSET(INDX_R));

  12404  5 003231   200152 236100                    LDQ     INDX_R,,AUTO
         5 003232   000033 772000                    QRL     27
         5 003233   100034 221106                    LDX1    28,QL,PR1
         5 003234   000000 636011                    EAQ     0,X1
         5 003235   200147 036100                    ADLQ    PTR$,,AUTO
         5 003236   200147 756100                    STQ     PTR$,,AUTO

     1802    12405    7                                PTR$->VALUE_B(INDX) = VALUE;
PL6.E3A0      #004=KSC$SET File=KSC$COMMANDS1.:E05TSI                            WED 07/30/97 01:45 Page:332

  12405  5 003237   200017 235100                    LDA     INDX,,AUTO
         5 003240   000001 735000                    ALS     1
         5 003241   200147 470500                    LDP0    PTR$,,AUTO
         5 003242   000105 101500                    MRL     fill='000'O
         5 003243   200143 000004                    ADSC9   VALUE,,AUTO              cn=0,n=4
         5 003244   000000 000002                    ADSC9   0,A,PR0                  cn=0,n=2

     1803    12406    7                                END;

  12406  5 003245   003256 710000 5                  TRA     s:12422

     1804    12407    7                             ELSE DO;

     1805    12408    7                                PTR$ = ADDR(HNDLR_BUF);

  12408  5 003246   000021 236000 6                  LDQ     17
         5 003247   200147 756100                    STQ     PTR$,,AUTO

     1806    12409    7                                KS$HNDLR.PARAMS(PARMX) = VALUE;

  12409  5 003250   200130 235100                    LDA     PARMX,,AUTO
         5 003251   000001 735000                    ALS     1
         5 003252   000160 471400 2                  LDP1    HANDLER$
         5 003253   000105 101500                    MRL     fill='000'O
         5 003254   200143 000004                    ADSC9   VALUE,,AUTO              cn=0,n=4
         5 003255   100015 000002                    ADSC9   13,A,PR1                 cn=0,n=2

     1807    12410    7                                END;

     1808    12411
     1809    12412        /*
     1810    12413                Now figure out the size of the structure and (if possible)
     1811    12414                write it back out to the :NETCON file
     1812    12415        */
     1813    12416
     1814    12417        /*
PL6.E3A0      #004=KSC$SET File=KSC$COMMANDS1.:E05TSI                            WED 07/30/97 01:45 Page:333
     1815    12418                   sz = number of elements in array * size of each element
     1816    12419                        + 4 bytes for the offset.
     1817    12420        */
     1818    12421
     1819    12422    6                             WRITE_NETCON.KEY_ = VECTOR(KS_HANDLER_KEY);

  12422  5 003256   000016 237000 6                  LDAQ    14
         5 003257   001314 757000 2                  STAQ    WRITE_NETCON+2

     1820    12423    6                             WRITE_NETCON.BUF_ = VECTOR(HNDLR_BUF);

  12423  5 003260   000020 237000 6                  LDAQ    16
         5 003261   001316 757000 2                  STAQ    WRITE_NETCON+4

     1821    12424    6                             IF KS$HNDLR.NPARAMI > 0 THEN

  12424  5 003262   100014 236100                    LDQ     12,,PR1
         5 003263   000777 316007                    CANQ    511,DL
         5 003264   003303 600000 5                  TZE     s:12430

     1822    12425    7                                DO;

     1823    12426    7                                PTR$ = PINCRW(ADDR(HNDLR_BUF),KS$HNDLR.IPARAM.OFFSET(
             12426                                         KS$HNDLR.NPARAMI - 1));

  12426  5 003265   100014 721100                    LXL1    12,,PR1
         5 003266   000777 361003                    ANX1    511,DU
         5 003267   100033 222111                    LDX2    27,X1,PR1
         5 003270   000013 630412 2                  EPPR0   HNDLR_BUF,X2
         5 003271   200147 450500                    STP0    PTR$,,AUTO

     1824    12427    7                                PTR$ = PINCRW(PTR$,(KS$HNDLR.IPARAM.ARRAY_SZ(KS$HNDLR.
             12427                                         NPARAMI - 1) + 2)/2);

  12427  5 003272   100032 236111                    LDQ     26,X1,PR1
         5 003273   000011 772000                    QRL     9
         5 003274   000777 376007                    ANQ     511,DL
PL6.E3A0      #004=KSC$SET File=KSC$COMMANDS1.:E05TSI                            WED 07/30/97 01:45 Page:334
         5 003275   000002 036007                    ADLQ    2,DL
         5 003276   000001 772000                    QRL     1
         5 003277   000022 736000                    QLS     18
         5 003300   200147 036100                    ADLQ    PTR$,,AUTO
         5 003301   200147 756100                    STQ     PTR$,,AUTO

     1825    12428    7                                END;

  12428  5 003302   003307 710000 5                  TRA     s:12433

     1826    12429    7                             ELSE DO;

     1827    12430    7                                PTR$ = ADDR(HNDLR_BUF);

  12430  5 003303   000021 236000 6                  LDQ     17
         5 003304   200147 756100                    STQ     PTR$,,AUTO

     1828    12431    7                                PTR$ = PINCRW(PTR$,SIZEW(KS_HANDLER)+1);

  12431  5 003305   000037 036003                    ADLQ    31,DU
         5 003306   200147 756100                    STQ     PTR$,,AUTO

     1829    12432    7                             END;

     1830    12433    6                            WRITE_NETCON.BUF_.BOUND = POFFC(PTR$,ADDR(HNDLR_BUF)) - 1;

  12433  5 003307   000021 236000 6                  LDQ     17
         5 003310   000020 772000                    QRL     16
         5 003311   200244 756100                    STQ     @TARGET+2,,AUTO
         5 003312   200147 236100                    LDQ     PTR$,,AUTO
         5 003313   000020 772000                    QRL     16
         5 003314   200244 136100                    SBLQ    @TARGET+2,,AUTO
         5 003315   000001 136007                    SBLQ    1,DL
         5 003316   000020 736000                    QLS     16
         5 003317   001316 676000 2                  ERQ     WRITE_NETCON+4
         5 003320   000034 376000 xsym               ANQ     B_VECTNIL+28
         5 003321   001316 656000 2                  ERSQ    WRITE_NETCON+4
PL6.E3A0      #004=KSC$SET File=KSC$COMMANDS1.:E05TSI                            WED 07/30/97 01:45 Page:335

     1831    12434    6                             CALL M$WRITE(WRITE_NETCON) ALTRET(UPD_NETCON_ERR);

  12434  5 003322   001312 630400 2                  EPPR0   WRITE_NETCON
         5 003323   440001 713400                    CLIMB   alt,write
         5 003324   401400 401760                    pmme    nvectors=4
         5 003325   003333 702000 5                  TSX2    UPD_NETCON_ERR

     1832    12435    6                          CALL KSW$WRITE(WRITE_SUCCESSFULL_VEC,VECTOR(KS_SUB_BUF_1),
             12435                                   VECTOR(NETCON));

  12435  5 003326   000120 630400 6                  EPPR0   80
         5 003327   000021 631400 xsym               EPPR1   B_VECTNIL+17
         5 003330   000000 701000 xent               TSX1    KSW$WRITE
         5 003331   000000 011000                    NOP     0

     1833    12436                                  /*E* ERROR: KSN-E$KS_WRITEOK-0
     1834    12437                                       MESSAGE: %U1 successfully written to :NETCON
     1835    12438                                       DESCRIPTION: SEE MESSAGE */
     1836    12439    6                          END;  /* DO CASE(PARMTYPE) */

     1837    12440    6                       DO WHILE('0'B);

  12440  5 003332   003343 710000 5                  TRA     s:12449

     1838    12441    6      UPD_NETCON_ERR:     CALL KSE$ERRMSG(0);

  12441  5 003333   000143 630400 6     UPD_NETCON_* EPPR0   99
         5 003334   000017 631400 xsym               EPPR1   B_VECTNIL+15
         5 003335   000000 701000 xent               TSX1    KSE$ERRMSG
         5 003336   000000 011000                    NOP     0

     1839    12442    6                          CALL KSE$ERRMSG(%E$KS_NETCON_ERR);

  12442  5 003337   000163 630400 6                  EPPR0   115
         5 003340   000017 631400 xsym               EPPR1   B_VECTNIL+15
         5 003341   000000 701000 xent               TSX1    KSE$ERRMSG
PL6.E3A0      #004=KSC$SET File=KSC$COMMANDS1.:E05TSI                            WED 07/30/97 01:45 Page:336
         5 003342   000000 011000                    NOP     0

     1840    12443                               /*E* ERROR: KSN-E$KS_NETCON_ERR-0
     1841    12444                                    MESSAGE: Unable to access :NETCON.  The value set
     1842    12445                                            will not be restored when the node is rebooted.
     1843    12446                                    DESCRIPTION: COULDN'T GET TO :NETCON.  */
     1844    12447    6                          END;  /* DO NEVER */

     1845    12448    5                       END;  /* IF UPDATE :NETCON */

     1846    12449    5                    DO WHILE('0'B);

  12449  5 003343   003353 710000 5                  TRA     s:12456

     1847    12450    5      SET_ERR:         CALL KSE$ERRMSG(%E$KS_CANTSETPARM,VECTOR(KS_SUB_BUF_1));

  12450  5 003344   000165 630400 6     SET_ERR      EPPR0   117
         5 003345   000020 631400 xsym               EPPR1   B_VECTNIL+16
         5 003346   000000 701000 xent               TSX1    KSE$ERRMSG
         5 003347   000000 011000                    NOP     0

     1848    12451                            /*E* ERROR: KSN-E$KS_CANTSETPARM-0
     1849    12452                                 MESSAGE: Unable to set %U1.
     1850    12453                                 DESCRIPTION: SEE MESSAGE */
     1851    12454    5                       PROMPT.NODENAME = KS_NODENAME;

  12454  5 003350   040000 100400                    MLR     fill='040'O
         5 003351   000000 000010 xsym               ADSC9   KS_NODENAME              cn=0,n=8
         5 003352   000000 000010 xsym               ADSC9   PROMPT                   cn=0,n=8

     1852    12455    5                       END;  /* DO NEVER */

     1853    12456    4                    END;  /* DO K */

  12456  5 003353   200103 235100                    LDA     K,,AUTO
         5 003354   000001 035007                    ADLA    1,DL
         5 003355   200103 755100                    STA     K,,AUTO
PL6.E3A0      #004=KSC$SET File=KSC$COMMANDS1.:E05TSI                            WED 07/30/97 01:45 Page:337
         5 003356   200103 236100                    LDQ     K,,AUTO
         5 003357   200133 116100                    CMPQ    NUM_INDX,,AUTO
         5 003360   002377 602000 5                  TNC     s:12264
         5 003361   003726 710000 5                  TRA     END_LOOP

     1854    12457        %EJECT;
PL6.E3A0      #004=KSC$SET File=KSC$COMMANDS1.:E05TSI                            WED 07/30/97 01:45 Page:338
     1855    12458    3              CASE(%KS_PSEUDO);

     1856    12459    3                 KS_PSEUDO_KEY.NODE = KS_NODE;

  12459  5 003362   000000 236000 xsym               LDQ     KS_NODE
         5 003363   000011 736000                    QLS     9
         5 003364   001221 552010 2                  STBQ    KS_PSEUDO_KEY,'10'O

     1857    12460    3                 READ_NETCON.KEY_ = VECTOR(KS_PSEUDO_KEY);

  12460  5 003365   000170 237000 6                  LDAQ    120
         5 003366   001276 757000 2                  STAQ    READ_NETCON+2

     1858    12461    3                 READ_NETCON.BUF_ = VECTOR(KS_PSEUDO);

  12461  5 003367   000172 237000 6                  LDAQ    122
         5 003370   001300 757000 2                  STAQ    READ_NETCON+4

     1859    12462    3                 CALL M$READ(READ_NETCON) WHENALTRETURN

  12462  5 003371   001274 630400 2                  EPPR0   READ_NETCON
         5 003372   440000 713400                    CLIMB   alt,read
         5 003373   401400 401760                    pmme    nvectors=4
         5 003374   003376 702000 5                  TSX2    s:12464
         5 003375   003407 710000 5                  TRA     s:12476

     1860    12463    4                    DO;

     1861    12464    4                    IF B$TCB$->B$TCB.ALT$->B$ALT.ERR.CODE ~= %E$NOKEY THEN

  12464  5 003376   000000 470400 xsym               LDP0    B$TCB$
         5 003377   000000 471500                    LDP1    0,,PR0
         5 003400   100102 236100                    LDQ     66,,PR1
         5 003401   377770 376007                    ANQ     131064,DL
         5 003402   001020 116007                    CMPQ    528,DL
         5 003403   003671 601000 5                  TNZ     PSEUDO_SET_ERR

PL6.E3A0      #004=KSC$SET File=KSC$COMMANDS1.:E05TSI                            WED 07/30/97 01:45 Page:339
     1862    12465    4                       GOTO PSEUDO_SET_ERR;
     1863    12466    4                    KS_PSEUDO = '0'B;

  12466  5 003404   000000 100400                    MLR     fill='000'O
         5 003405   000002 000001 xsym               ADSC9   B_VECTNIL+2              cn=0,n=1
         5 003406   000453 002630 2                  ADSC9   KS_PSEUDO                cn=0,n=1432

     1864    12467    4                    END;  /* when altreturn on READ  */

     1865    12468
     1866    12469        /*
     1867    12470                   Quickly,  If no PSEUDOs exists with that name, then stuff
     1868    12471                   the record with the info off the parse tree.  If a PSEUDO
     1869    12472                   does exist with that name then just update and rewrite to
     1870    12473                   :NETCON.
     1871    12474        */
     1872    12475
     1873    12476    3              T_PSEUDO# = -1;

  12476  5 003407   000001 335007                    LCA     1,DL
         5 003410   200141 755100                    STA     T_PSEUDO#,,AUTO

     1874    12477    4   PSEDO_SRCH: DO J = 0 TO KS_PSEUDO.PSEUDO#-1;

  12477  5 003411   200102 450100       PSEDO_SRCH   STZ     J,,AUTO
         5 003412   003434 710000 5                  TRA     s:12483+3

     1875    12478    4                 IF KS_PSEUDO.PSEUDO.NAME(J) = BLK$->OUT$BLK.SUBLK$(0)->OUT$SYM.TEXT
             12478                          THEN

  12478  5 003413   200145 470500                    LDP0    BLK$,,AUTO
         5 003414   000003 471500                    LDP1    3,,PR0
         5 003415   100004 236100                    LDQ     4,,PR1
         5 003416   000033 772000                    QRL     27
         5 003417   000000 620006                    EAX0    0,QL
         5 003420   200102 236100                    LDQ     J,,AUTO
         5 003421   000034 402007                    MPY     28,DL
PL6.E3A0      #004=KSC$SET File=KSC$COMMANDS1.:E05TSI                            WED 07/30/97 01:45 Page:340
         5 003422   040140 106406                    CMPC    fill='040'O
         5 003423   000454 000010 2                  ADSC9   KS_PSEUDO+1,Q            cn=0,n=8
         5 003424   100004 200010                    ADSC9   4,,PR1                   cn=1,n=*X0
         5 003425   003431 601000 5                  TNZ     s:12483

     1876    12479    5                    DO;

     1877    12480    5                    T_PSEUDO# = J;

  12480  5 003426   200102 235100                    LDA     J,,AUTO
         5 003427   200141 755100                    STA     T_PSEUDO#,,AUTO

     1878    12481    5                    EXIT PSEDO_SRCH;

  12481  5 003430   003437 710000 5                  TRA     s:12489

     1879    12482    5                    END;
     1880    12483    4              END;  /*  do j  */

  12483  5 003431   200102 235100                    LDA     J,,AUTO
         5 003432   000001 035007                    ADLA    1,DL
         5 003433   200102 755100                    STA     J,,AUTO
         5 003434   200102 236100                    LDQ     J,,AUTO
         5 003435   000453 116000 2                  CMPQ    KS_PSEUDO
         5 003436   003413 602000 5                  TNC     s:12478

     1881    12484
     1882    12485        /*
     1883    12486                   if j is greater then maxpseudos then too many pseudos
     1884    12487        */
     1885    12488
     1886    12489    3              IF J > %KS_MAX_PSEUDO THEN

  12489  5 003437   200102 235100                    LDA     J,,AUTO
         5 003440   000010 115007                    CMPA    8,DL
         5 003441   003707 603000 5                  TRC     TOO_MANY_PSEUDO

PL6.E3A0      #004=KSC$SET File=KSC$COMMANDS1.:E05TSI                            WED 07/30/97 01:45 Page:341
     1887    12490    3                 GOTO TOO_MANY_PSEUDO;
     1888    12491
     1889    12492        /*
     1890    12493                   if j=-1 then the pseudo does not exist in the record
     1891    12494        */
     1892    12495
     1893    12496    3              IF T_PSEUDO# = -1 THEN

  12496  5 003442   200141 236100                    LDQ     T_PSEUDO#,,AUTO
         5 003443   000027 116000 xsym               CMPQ    B_VECTNIL+23
         5 003444   003466 601000 5                  TNZ     s:12510

     1894    12497    4                 DO;

     1895    12498    4                 KS_PSEUDO.PSEUDO.NAME(KS_PSEUDO.PSEUDO#) = BLK$->OUT$BLK.SUBLK$(0)->
             12498                          OUT$SYM.TEXT;

  12498  5 003445   000453 236000 2                  LDQ     KS_PSEUDO
         5 003446   000007 402007                    MPY     7,DL
         5 003447   200145 470500                    LDP0    BLK$,,AUTO
         5 003450   000003 471500                    LDP1    3,,PR0
         5 003451   000000 620006                    EAX0    0,QL
         5 003452   100004 236100                    LDQ     4,,PR1
         5 003453   000033 772000                    QRL     27
         5 003454   000000 635010                    EAA     0,X0
         5 003455   000020 771000                    ARL     16
         5 003456   000000 621006                    EAX1    0,QL
         5 003457   040005 100540                    MLR     fill='040'O
         5 003460   100004 200011                    ADSC9   4,,PR1                   cn=1,n=*X1
         5 003461   000454 000010 2                  ADSC9   KS_PSEUDO+1,A            cn=0,n=8

     1896    12499    4                 T_PSEUDO# = KS_PSEUDO.PSEUDO#;

  12499  5 003462   000453 235000 2                  LDA     KS_PSEUDO
         5 003463   200141 755100                    STA     T_PSEUDO#,,AUTO

     1897    12500    4                 KS_PSEUDO.PSEUDO# = KS_PSEUDO.PSEUDO# + 1;
PL6.E3A0      #004=KSC$SET File=KSC$COMMANDS1.:E05TSI                            WED 07/30/97 01:45 Page:342

  12500  5 003464   000001 035007                    ADLA    1,DL
         5 003465   000453 755000 2                  STA     KS_PSEUDO

     1898    12501    4                 END;  /*  if no pseudo defined  */

     1899    12502
     1900    12503        /*
     1901    12504                at this point whether the pseudo existed or not does not
     1902    12505                matter.  The code continues in such a way as to treat both
     1903    12506                cases the same.  All of the sub-blocks are evaluated and
     1904    12507                and placed into the record as specified.
     1905    12508        */
     1906    12509
     1907    12510    4                 DO K= 1 TO BLK$->OUT$BLK.NSUBLKS - 1;

  12510  5 003466   000001 235007                    LDA     1,DL
         5 003467   200103 755100                    STA     K,,AUTO
         5 003470   003643 710000 5                  TRA     s:12538+3

     1908    12511    4                    SUBLK$ = BLK$->OUT$BLK.SUBLK$(K);

  12511  5 003471   200145 470500                    LDP0    BLK$,,AUTO
         5 003472   200103 720100                    LXL0    K,,AUTO
         5 003473   000003 236110                    LDQ     3,X0,PR0
         5 003474   200135 756100                    STQ     SUBLK$,,AUTO

     1909    12512    5                    DO CASE(SUBLK$->OUT$BLK.CODE);

  12512  5 003475   200135 471500                    LDP1    SUBLK$,,AUTO
         5 003476   100000 721100                    LXL1    0,,PR1
         5 003477   000005 101003                    CMPX1   5,DU
         5 003500   003502 602011 5                  TNC     s:12512+5,X1
         5 003501   003640 710000 5                  TRA     s:12538
         5 003502   003507 710000 5                  TRA     s:12515
         5 003503   003553 710000 5                  TRA     s:12524
         5 003504   003531 710000 5                  TRA     s:12520
PL6.E3A0      #004=KSC$SET File=KSC$COMMANDS1.:E05TSI                            WED 07/30/97 01:45 Page:343
         5 003505   003575 710000 5                  TRA     s:12529
         5 003506   003617 710000 5                  TRA     s:12534

     1910    12513
     1911    12514    5                       CASE(%KS_MAXC);

     1912    12515    5                          IF  SUBLK$->OUT$BLK.SUBLK$(0)->OUT$SYM.COUNT > %KS_MAX_HALF
             12515                                   THEN GOTO TOO_BIG;

  12515  5 003507   100003 473500                    LDP3    3,,PR1
         5 003510   300004 236100                    LDQ     4,,PR3
         5 003511   777000 376003                    ANQ     -512,DU
         5 003512   007000 116003                    CMPQ    3584,DU
         5 003513   003721 603000 5                  TRC     TOO_BIG

     1913    12516    5                          CALL CHARBIN(TEMP1,SUBLK$->OUT$BLK.SUBLK$(0)->OUT$SYM.TEXT);

  12516  5 003514   300004 236100                    LDQ     4,,PR3
         5 003515   000033 772000                    QRL     27
         5 003516   000000 622006                    EAX2    0,QL
         5 003517   000100 305540                    DTB
         5 003520   300004 230012                    NDSC9   4,,PR3                   cn=1,s=nosgn,sf=0,n=*X2
         5 003521   200244 000010                    NDSC9   @TARGET+2,,AUTO          cn=0,s=lsgnf,sf=0,n=8
         5 003522   200245 235100                    LDA     @TARGET+3,,AUTO
         5 003523   200137 755100                    STA     TEMP1,,AUTO

     1914    12517    5                          KS_PSEUDO.PSEUDO.MAX_CG(T_PSEUDO#) = TEMP1;

  12517  5 003524   200141 236100                    LDQ     T_PSEUDO#,,AUTO
         5 003525   000007 402007                    MPY     7,DL
         5 003526   200137 235100                    LDA     TEMP1,,AUTO
         5 003527   000460 755006 2                  STA     KS_PSEUDO+5,QL
         5 003530   003640 710000 5                  TRA     s:12538

     1915    12518
     1916    12519    5                       CASE(%KS_MAXH);

PL6.E3A0      #004=KSC$SET File=KSC$COMMANDS1.:E05TSI                            WED 07/30/97 01:45 Page:344
     1917    12520    5                          IF  SUBLK$->OUT$BLK.SUBLK$(0)->OUT$SYM.COUNT > %KS_MAX_HALF
             12520                                   THEN GOTO TOO_BIG;

  12520  5 003531   100003 473500                    LDP3    3,,PR1
         5 003532   300004 236100                    LDQ     4,,PR3
         5 003533   777000 376003                    ANQ     -512,DU
         5 003534   007000 116003                    CMPQ    3584,DU
         5 003535   003721 603000 5                  TRC     TOO_BIG

     1918    12521    5                          CALL CHARBIN(TEMP1,SUBLK$->OUT$BLK.SUBLK$(0)->OUT$SYM.TEXT);

  12521  5 003536   300004 236100                    LDQ     4,,PR3
         5 003537   000033 772000                    QRL     27
         5 003540   000000 622006                    EAX2    0,QL
         5 003541   000100 305540                    DTB
         5 003542   300004 230012                    NDSC9   4,,PR3                   cn=1,s=nosgn,sf=0,n=*X2
         5 003543   200244 000010                    NDSC9   @TARGET+2,,AUTO          cn=0,s=lsgnf,sf=0,n=8
         5 003544   200245 235100                    LDA     @TARGET+3,,AUTO
         5 003545   200137 755100                    STA     TEMP1,,AUTO

     1919    12522    5                          KS_PSEUDO.PSEUDO.MAX_HAND(T_PSEUDO#) = TEMP1;

  12522  5 003546   200141 236100                    LDQ     T_PSEUDO#,,AUTO
         5 003547   000007 402007                    MPY     7,DL
         5 003550   200137 235100                    LDA     TEMP1,,AUTO
         5 003551   000461 755006 2                  STA     KS_PSEUDO+6,QL
         5 003552   003640 710000 5                  TRA     s:12538

     1920    12523    5                       CASE(%KS_MAXG);

     1921    12524    5                          IF  SUBLK$->OUT$BLK.SUBLK$(0)->OUT$SYM.COUNT > %KS_MAX_HALF
             12524                                   THEN GOTO TOO_BIG;

  12524  5 003553   100003 473500                    LDP3    3,,PR1
         5 003554   300004 236100                    LDQ     4,,PR3
         5 003555   777000 376003                    ANQ     -512,DU
         5 003556   007000 116003                    CMPQ    3584,DU
PL6.E3A0      #004=KSC$SET File=KSC$COMMANDS1.:E05TSI                            WED 07/30/97 01:45 Page:345
         5 003557   003721 603000 5                  TRC     TOO_BIG

     1922    12525    5                          CALL CHARBIN(TEMP1,SUBLK$->OUT$BLK.SUBLK$(0)->OUT$SYM.TEXT);

  12525  5 003560   300004 236100                    LDQ     4,,PR3
         5 003561   000033 772000                    QRL     27
         5 003562   000000 622006                    EAX2    0,QL
         5 003563   000100 305540                    DTB
         5 003564   300004 230012                    NDSC9   4,,PR3                   cn=1,s=nosgn,sf=0,n=*X2
         5 003565   200244 000010                    NDSC9   @TARGET+2,,AUTO          cn=0,s=lsgnf,sf=0,n=8
         5 003566   200245 235100                    LDA     @TARGET+3,,AUTO
         5 003567   200137 755100                    STA     TEMP1,,AUTO

     1923    12526    5                          KS_PSEUDO.PSEUDO.MAX_GHST(T_PSEUDO#) = TEMP1;

  12526  5 003570   200141 236100                    LDQ     T_PSEUDO#,,AUTO
         5 003571   000007 402007                    MPY     7,DL
         5 003572   200137 235100                    LDA     TEMP1,,AUTO
         5 003573   000462 755006 2                  STA     KS_PSEUDO+7,QL
         5 003574   003640 710000 5                  TRA     s:12538

     1924    12527
     1925    12528    5                       CASE(%KS_MAXS);

     1926    12529    5                          IF  SUBLK$->OUT$BLK.SUBLK$(0)->OUT$SYM.COUNT > %KS_MAX_HALF
             12529                                   THEN GOTO TOO_BIG;

  12529  5 003575   100003 473500                    LDP3    3,,PR1
         5 003576   300004 236100                    LDQ     4,,PR3
         5 003577   777000 376003                    ANQ     -512,DU
         5 003600   007000 116003                    CMPQ    3584,DU
         5 003601   003721 603000 5                  TRC     TOO_BIG

     1927    12530    5                          CALL CHARBIN(TEMP1,SUBLK$->OUT$BLK.SUBLK$(0)->OUT$SYM.TEXT);

  12530  5 003602   300004 236100                    LDQ     4,,PR3
         5 003603   000033 772000                    QRL     27
PL6.E3A0      #004=KSC$SET File=KSC$COMMANDS1.:E05TSI                            WED 07/30/97 01:45 Page:346
         5 003604   000000 622006                    EAX2    0,QL
         5 003605   000100 305540                    DTB
         5 003606   300004 230012                    NDSC9   4,,PR3                   cn=1,s=nosgn,sf=0,n=*X2
         5 003607   200244 000010                    NDSC9   @TARGET+2,,AUTO          cn=0,s=lsgnf,sf=0,n=8
         5 003610   200245 235100                    LDA     @TARGET+3,,AUTO
         5 003611   200137 755100                    STA     TEMP1,,AUTO

     1928    12531    5                          KS_PSEUDO.PSEUDO.MAX_SYS(T_PSEUDO#) = TEMP1;

  12531  5 003612   200141 236100                    LDQ     T_PSEUDO#,,AUTO
         5 003613   000007 402007                    MPY     7,DL
         5 003614   200137 235100                    LDA     TEMP1,,AUTO
         5 003615   000456 755006 2                  STA     KS_PSEUDO+3,QL
         5 003616   003640 710000 5                  TRA     s:12538

     1929    12532
     1930    12533    5                       CASE(%KS_MAXU);

     1931    12534    5                          IF  SUBLK$->OUT$BLK.SUBLK$(0)->OUT$SYM.COUNT > %KS_MAX_HALF
             12534                                   THEN GOTO TOO_BIG;

  12534  5 003617   100003 473500                    LDP3    3,,PR1
         5 003620   300004 236100                    LDQ     4,,PR3
         5 003621   777000 376003                    ANQ     -512,DU
         5 003622   007000 116003                    CMPQ    3584,DU
         5 003623   003721 603000 5                  TRC     TOO_BIG

     1932    12535    5                          CALL CHARBIN(TEMP1,SUBLK$->OUT$BLK.SUBLK$(0)->OUT$SYM.TEXT);

  12535  5 003624   300004 236100                    LDQ     4,,PR3
         5 003625   000033 772000                    QRL     27
         5 003626   000000 622006                    EAX2    0,QL
         5 003627   000100 305540                    DTB
         5 003630   300004 230012                    NDSC9   4,,PR3                   cn=1,s=nosgn,sf=0,n=*X2
         5 003631   200244 000010                    NDSC9   @TARGET+2,,AUTO          cn=0,s=lsgnf,sf=0,n=8
         5 003632   200245 235100                    LDA     @TARGET+3,,AUTO
         5 003633   200137 755100                    STA     TEMP1,,AUTO
PL6.E3A0      #004=KSC$SET File=KSC$COMMANDS1.:E05TSI                            WED 07/30/97 01:45 Page:347

     1933    12536    5                          KS_PSEUDO.PSEUDO.MAX_USR(T_PSEUDO#) = TEMP1;

  12536  5 003634   200141 236100                    LDQ     T_PSEUDO#,,AUTO
         5 003635   000007 402007                    MPY     7,DL
         5 003636   200137 235100                    LDA     TEMP1,,AUTO
         5 003637   000457 755006 2                  STA     KS_PSEUDO+4,QL

     1934    12537    5                       END;  /* case on subnodes  */

     1935    12538    4                 END;  /*  do k  */

  12538  5 003640   200103 235100                    LDA     K,,AUTO
         5 003641   000001 035007                    ADLA    1,DL
         5 003642   200103 755100                    STA     K,,AUTO
         5 003643   200145 470500                    LDP0    BLK$,,AUTO
         5 003644   000001 236100                    LDQ     1,,PR0
         5 003645   000022 772000                    QRL     18
         5 003646   200103 116100                    CMPQ    K,,AUTO
         5 003647   003651 600000 5                  TZE     s:12540
         5 003650   003471 603000 5                  TRC     s:12511

     1936    12539
     1937    12540    3              WRITE_NETCON.KEY_ = VECTOR(KS_PSEUDO_KEY);

  12540  5 003651   000170 237000 6                  LDAQ    120
         5 003652   001314 757000 2                  STAQ    WRITE_NETCON+2

     1938    12541    3              WRITE_NETCON.BUF_ = VECTOR(KS_PSEUDO);

  12541  5 003653   000172 237000 6                  LDAQ    122
         5 003654   001316 757000 2                  STAQ    WRITE_NETCON+4

     1939    12542    3              WRITE_NETCON.BUF_.BOUND = KS_PSEUDO.PSEUDO# * 28 + 4 - 1;

  12542  5 003655   000453 236000 2                  LDQ     KS_PSEUDO
         5 003656   000034 402007                    MPY     28,DL
PL6.E3A0      #004=KSC$SET File=KSC$COMMANDS1.:E05TSI                            WED 07/30/97 01:45 Page:348
         5 003657   000003 036007                    ADLQ    3,DL
         5 003660   000020 736000                    QLS     16
         5 003661   001316 676000 2                  ERQ     WRITE_NETCON+4
         5 003662   000034 376000 xsym               ANQ     B_VECTNIL+28
         5 003663   001316 656000 2                  ERSQ    WRITE_NETCON+4

     1940    12543        /*            18 is # of bytes in PSEUDO array and 4 is bytes in
     1941    12544                      PSEUDO#
     1942    12545        */
     1943    12546
     1944    12547    3              CALL M$WRITE(WRITE_NETCON) ALTRET(PSEUDO_SET_ERR);

  12547  5 003664   001312 630400 2                  EPPR0   WRITE_NETCON
         5 003665   440001 713400                    CLIMB   alt,write
         5 003666   401400 401760                    pmme    nvectors=4
         5 003667   003671 702000 5                  TSX2    PSEUDO_SET_ERR

     1945    12548
     1946    12549    4              DO WHILE ('0'B);

  12549  5 003670   003726 710000 5                  TRA     END_LOOP

     1947    12550    4    PSEUDO_SET_ERR: CALL KSE$ERRMSG(0);

  12550  5 003671   000143 630400 6     PSEUDO_SET_* EPPR0   99
         5 003672   000017 631400 xsym               EPPR1   B_VECTNIL+15
         5 003673   000000 701000 xent               TSX1    KSE$ERRMSG
         5 003674   000000 011000                    NOP     0

     1948    12551    4                    KS_SUB_BUF_1.COUNT = SIZEC('PSEUDO');

  12551  5 003675   006000 236003                    LDQ     3072,DU
         5 003676   000000 552040 xsym               STBQ    KS_SUB_BUF_1,'40'O

     1949    12552    4                    KS_SUB_BUF_1.TEXT = 'PSEUDO';

  12552  5 003677   040000 100400                    MLR     fill='040'O
PL6.E3A0      #004=KSC$SET File=KSC$COMMANDS1.:E05TSI                            WED 07/30/97 01:45 Page:349
         5 003700   000103 000006 1                  ADSC9   FEP+13                   cn=0,n=6
         5 003701   000000 200037 xsym               ADSC9   KS_SUB_BUF_1             cn=1,n=31

     1950    12553    4                    CALL KSE$ERRMSG(%E$KS_CANTSETPARM);

  12553  5 003702   000165 630400 6                  EPPR0   117
         5 003703   000017 631400 xsym               EPPR1   B_VECTNIL+15
         5 003704   000000 701000 xent               TSX1    KSE$ERRMSG
         5 003705   000000 011000                    NOP     0

     1951    12554    4                    GOTO END_LOOP;

  12554  5 003706   003726 710000 5                  TRA     END_LOOP

     1952    12555    4    TOO_MANY_PSEUDO:
     1953    12556    4                    KS_SUB_BUF_1.COUNT = SIZEC(KS_NODENAME);

  12556  5 003707   010000 236003       TOO_MANY_PS* LDQ     4096,DU
         5 003710   000000 552040 xsym               STBQ    KS_SUB_BUF_1,'40'O

     1954    12557    4                    KS_SUB_BUF_1.TEXT = KS_NODENAME;

  12557  5 003711   040000 100400                    MLR     fill='040'O
         5 003712   000000 000010 xsym               ADSC9   KS_NODENAME              cn=0,n=8
         5 003713   000000 200037 xsym               ADSC9   KS_SUB_BUF_1             cn=1,n=31

     1955    12558    4                    CALL KSE$ERRMSG(%E$KS_TOO_MANY_PSEUDOS,VECTOR(KS_SUB_BUF_1));

  12558  5 003714   000175 630400 6                  EPPR0   125
         5 003715   000020 631400 xsym               EPPR1   B_VECTNIL+16
         5 003716   000000 701000 xent               TSX1    KSE$ERRMSG
         5 003717   000000 011000                    NOP     0

     1956    12559                         /*E* ERROR: KSN-E$KS_TOO_MANY_PSEUDOS-0
     1957    12560                              MESSAGE: Too many PSEUDOs set on node %U1
     1958    12561                              MESSAGE1: Use the DELETE command to remove PSEUDOs
     1959    12562                              DESCRIPTION: SEE MESSAGE      */
PL6.E3A0      #004=KSC$SET File=KSC$COMMANDS1.:E05TSI                            WED 07/30/97 01:45 Page:350
     1960    12563    4                    GOTO END_LOOP;

  12563  5 003720   003726 710000 5                  TRA     END_LOOP

     1961    12564    4    TOO_BIG:
     1962    12565    4                    CALL KSE$ERRMSG(%E$KS_BADNUM);

  12565  5 003721   000200 630400 6     TOO_BIG      EPPR0   128
         5 003722   000017 631400 xsym               EPPR1   B_VECTNIL+15
         5 003723   000000 701000 xent               TSX1    KSE$ERRMSG
         5 003724   000000 011000                    NOP     0

     1963    12566                               /*E* ERROR: KSN-E$KS_BADNUM-0
     1964    12567                                    MESSAGE: Bad number.
     1965    12568                                    DESCRIPTION: SEE MESSAGE */
     1966    12569    4                    GOTO END_LOOP;

  12569  5 003725   003726 710000 5                  TRA     END_LOOP

     1967    12570    4              END;  /*   do never  */

     1968    12571
     1969    12572    3              END;  /* DO CASE(CODE) */

  12554  5 003726                       END_LOOP     null
     1970    12573    2   END_LOOP:;
     1971    12574    2           END;  /* DO I */

  12574  5 003726   200016 235100                    LDA     I,,AUTO
         5 003727   000001 035007                    ADLA    1,DL
         5 003730   200016 755100                    STA     I,,AUTO
         5 003731   200003 470500                    LDP0    @TOP$,,AUTO
         5 003732   000000 471500                    LDP1    0,,PR0
         5 003733   100001 236100                    LDQ     1,,PR1
         5 003734   000022 772000                    QRL     18
         5 003735   200016 116100                    CMPQ    I,,AUTO
         5 003736   003740 600000 5                  TZE     END_LOOP+10
PL6.E3A0      #004=KSC$SET File=KSC$COMMANDS1.:E05TSI                            WED 07/30/97 01:45 Page:351
         5 003737   000015 603000 5                  TRC     s:11724
         5 003740   004342 710000 5                  TRA     s:12645

     1972    12575    1   ALTER_FID:  PROC (PTR$,TARGET);

  12575  5 003741   200240 741300       ALTER_FID    STX1  ! HANDNR+1,,AUTO

     1973    12576    2            DCL PTR$    PTR;
     1974    12577    2            DCL TARGET  CHAR(28) ALIGNED;
     1975    12578
     1976    12579    2            IF PTR$->OUT$BLK.NSUBLKS = 2 THEN

  12579  5 003742   200241 470500                    LDP0    @PTR$,,AUTO
         5 003743   000000 471500                    LDP1    0,,PR0
         5 003744   100001 220100                    LDX0    1,,PR1
         5 003745   000002 100003                    CMPX0   2,DU
         5 003746   004011 601000 5                  TNZ     s:12585

     1977    12580    2               CALL CONCAT (TARGET,

  12580  5 003747   100003 473500                    LDP3    3,,PR1
         5 003750   300004 236100                    LDQ     4,,PR3
         5 003751   000033 772000                    QRL     27
         5 003752   100004 474500                    LDP4    4,,PR1
         5 003753   000000 622006                    EAX2    0,QL
         5 003754   400004 236100                    LDQ     4,,PR4
         5 003755   000033 772000                    QRL     27
         5 003756   200242 475500                    LDP5    @TARGET,,AUTO
         5 003757   040100 100540                    MLR     fill='040'O
         5 003760   300004 200012                    ADSC9   4,,PR3                   cn=1,n=*X2
         5 003761   500000 000034                    ADSC9   0,,PR5                   cn=0,n=28
         5 003762   000000 620006                    EAX0    0,QL
         5 003763   000000 636012                    EAQ     0,X2
         5 003764   000022 772000                    QRL     18
         5 003765   000034 116007                    CMPQ    28,DL
         5 003766   004010 603000 5                  TRC     s:12580+33
         5 003767   200244 742100                    STX2    @TARGET+2,,AUTO
PL6.E3A0      #004=KSC$SET File=KSC$COMMANDS1.:E05TSI                            WED 07/30/97 01:45 Page:352
         5 003770   777743 622012                    EAX2    -29,X2
         5 003771   777777 662003                    ERX2    -1,DU
         5 003772   200244 235100                    LDA     @TARGET+2,,AUTO
         5 003773   000022 771000                    ARL     18
         5 003774   040145 100400                    MLR     fill='040'O
         5 003775   000201 000001 6                  ADSC9   129                      cn=0,n=1
         5 003776   500000 000012                    ADSC9   0,A,PR5                  cn=0,n=*X2
         5 003777   200244 236100                    LDQ     @TARGET+2,,AUTO
         5 004000   000022 772000                    QRL     18
         5 004001   000033 116007                    CMPQ    27,DL
         5 004002   004010 603000 5                  TRC     s:12580+33
         5 004003   777744 621006                    EAX1    -28,QL
         5 004004   777777 661003                    ERX1    -1,DU
         5 004005   040146 100540                    MLR     fill='040'O
         5 004006   400004 200010                    ADSC9   4,,PR4                   cn=1,n=*X0
         5 004007   500000 200011                    ADSC9   0,Q,PR5                  cn=1,n=*X1
         5 004010   004101 710000 5                  TRA     s:12601

     1978    12581    2                           PTR$->OUT$BLK.SUBLK$(0)->OUT$SYM.TEXT,    /* FILE NAME */
     1979    12582    2                           '.',
     1980    12583    2                           PTR$->OUT$BLK.SUBLK$(1)->OUT$SYM.TEXT);   /* ACCT NAME */
     1981    12584    2            ELSE
     1982    12585    2            IF PTR$->OUT$BLK.SUBLK$(0)->OUT$BLK.CODE = 1 THEN

  12585  5 004011   100003 473500                    LDP3    3,,PR1
         5 004012   300000 722100                    LXL2    0,,PR3
         5 004013   000001 102003                    CMPX2   1,DU
         5 004014   004034 601000 5                  TNZ     s:12590

     1983    12586    2               CALL CONCAT (TARGET,

  12586  5 004015   300004 236100                    LDQ     4,,PR3
         5 004016   000033 772000                    QRL     27
         5 004017   000000 623006                    EAX3    0,QL
         5 004020   200242 474500                    LDP4    @TARGET,,AUTO
         5 004021   040100 100540                    MLR     fill='040'O
         5 004022   300004 200013                    ADSC9   4,,PR3                   cn=1,n=*X3
PL6.E3A0      #004=KSC$SET File=KSC$COMMANDS1.:E05TSI                            WED 07/30/97 01:45 Page:353
         5 004023   400000 000034                    ADSC9   0,,PR4                   cn=0,n=28
         5 004024   000034 116007                    CMPQ    28,DL
         5 004025   004033 603000 5                  TRC     s:12586+14
         5 004026   777743 620006                    EAX0    -29,QL
         5 004027   777777 660003                    ERX0    -1,DU
         5 004030   040146 100400                    MLR     fill='040'O
         5 004031   000073 000005 1                  ADSC9   FEP+5                    cn=0,n=5
         5 004032   400000 000010                    ADSC9   0,Q,PR4                  cn=0,n=*X0
         5 004033   004101 710000 5                  TRA     s:12601

     1984    12587    2                           PTR$->OUT$BLK.SUBLK$(0)->OUT$SYM.TEXT,   /* NAME ONLY */
     1985    12588    2                           '.:SYS');
     1986    12589    2            ELSE
     1987    12590    2            IF PTR$->OUT$BLK.SUBLK$(0)->OUT$BLK.CODE = 2 THEN

  12590  5 004034   000002 102003                    CMPX2   2,DU
         5 004035   004101 601000 5                  TNZ     s:12601

     1988    12591    3               DO;  /* acct only */

     1989    12592    3                  CALL INDEX(INDX,'.',TARGET);

  12592  5 004036   200242 474500                    LDP4    @TARGET,,AUTO
         5 004037   000000 124500                    SCM     mask='000'O
         5 004040   400000 000034                    ADSC9   0,,PR4                   cn=0,n=28
         5 004041   000201 000001 6                  ADSC9   129                      cn=0,n=1
         5 004042   200017 000100                    ARG     INDX,,AUTO

     1990    12593    4                  IF INDX >= LENGTHC(TARGET)-1 THEN DO;

  12593  5 004043   200017 235100                    LDA     INDX,,AUTO
         5 004044   000033 115007                    CMPA    27,DL
         5 004045   004071 602000 5                  TNC     s:12599

     1991    12594    4                     CALL INDEX(INDX,' ',TARGET);

  12594  5 004046   000000 124500                    SCM     mask='000'O
PL6.E3A0      #004=KSC$SET File=KSC$COMMANDS1.:E05TSI                            WED 07/30/97 01:45 Page:354
         5 004047   400000 000034                    ADSC9   0,,PR4                   cn=0,n=28
         5 004050   000035 000001 xsym               ADSC9   B_VECTNIL+29             cn=0,n=1
         5 004051   200017 000100                    ARG     INDX,,AUTO

     1992    12595    4                     SUBSTR (TARGET,INDX,1) = '.';

  12595  5 004052   200017 235100                    LDA     INDX,,AUTO
         5 004053   040105 100400                    MLR     fill='040'O
         5 004054   000201 000001 6                  ADSC9   129                      cn=0,n=1
         5 004055   400000 000001                    ADSC9   0,A,PR4                  cn=0,n=1

     1993    12596    4                     SUBSTR (TARGET,INDX+1) = PTR$->OUT$BLK.SUBLK$(0)->OUT$SYM.TEXT;

  12596  5 004056   000000 471500                    LDP1    0,,PR0
         5 004057   100003 473500                    LDP3    3,,PR1
         5 004060   300004 236100                    LDQ     4,,PR3
         5 004061   000033 772000                    QRL     27
         5 004062   777744 620005                    EAX0    -28,AL
         5 004063   777777 660003                    ERX0    -1,DU
         5 004064   000000 621006                    EAX1    0,QL
         5 004065   040145 100540                    MLR     fill='040'O
         5 004066   300004 200011                    ADSC9   4,,PR3                   cn=1,n=*X1
         5 004067   400000 200010                    ADSC9   0,A,PR4                  cn=1,n=*X0

     1994    12597    4                     END;

  12597  5 004070   004101 710000 5                  TRA     s:12601

     1995    12598    3                  ELSE
     1996    12599    3                     SUBSTR (TARGET,INDX+1) = PTR$->OUT$BLK.SUBLK$(0)->OUT$SYM.TEXT;

  12599  5 004071   300004 236100                    LDQ     4,,PR3
         5 004072   000033 772000                    QRL     27
         5 004073   777744 623005                    EAX3    -28,AL
         5 004074   777777 663003                    ERX3    -1,DU
         5 004075   000000 624006                    EAX4    0,QL
         5 004076   040145 100540                    MLR     fill='040'O
PL6.E3A0      #004=KSC$SET File=KSC$COMMANDS1.:E05TSI                            WED 07/30/97 01:45 Page:355
         5 004077   300004 200014                    ADSC9   4,,PR3                   cn=1,n=*X4
         5 004100   400000 200013                    ADSC9   0,A,PR4                  cn=1,n=*X3

     1997    12600    3               END;   /* acct only */

     1998    12601    2   END ALTER_FID;

  12601  5 004101   200240 221300                    LDX1  ! HANDNR+1,,AUTO
         5 004102   000001 702211                    TSX2  ! 1,X1

     1999    12602    1   RESET_PARAMS_TO_DEFAULTS: PROC;

  12602  5 004103   200240 741300       RESET_PARAM* STX1  ! HANDNR+1,,AUTO

     2000    12603
     2001    12604                                        /*
     2002    12605                                           rewrite the handler
     2003    12606                                           record.  ks$hndlr with defaults from
     2004    12607                                           ks_tables_d.
     2005    12608                                        */
     2006    12609    2                                I = 1;

  12609  5 004104   000001 235007                    LDA     1,DL
         5 004105   200016 755100                    STA     I,,AUTO

     2007    12610    3          SRCH_TBL1:             DO WHILE KS_HAND_INFO.TEXT(I) ~= ' ';

  12610  5 004106   200016 236100       SRCH_TBL1    LDQ     I,,AUTO
         5 004107   000024 402007                    MPY     20,DL
         5 004110   040000 106406                    CMPC    fill='040'O
         5 004111   000000 000010 xsym               ADSC9   KS_HAND_INFO,Q           cn=0,n=8
         5 004112   000035 000001 xsym               ADSC9   B_VECTNIL+29             cn=0,n=1
         5 004113   004134 600000 5                  TZE     s:12617

     2008    12611    3                                  IF KS_HAND_INFO.TEXT(I) = SUBSTR(KS$HNDLR.HNDLRNAME,
             12611                                            0,SIZEC(KS$HNDLR.HNDLRNAME)) THEN

PL6.E3A0      #004=KSC$SET File=KSC$COMMANDS1.:E05TSI                            WED 07/30/97 01:45 Page:356
  12611  5 004114   200016 236100                    LDQ     I,,AUTO
         5 004115   000024 402007                    MPY     20,DL
         5 004116   000160 470400 2                  LDP0    HANDLER$
         5 004117   040100 106406                    CMPC    fill='040'O
         5 004120   000000 000010 xsym               ADSC9   KS_HAND_INFO,Q           cn=0,n=8
         5 004121   000012 000010                    ADSC9   10,,PR0                  cn=0,n=8
         5 004122   004134 600000 5                  TZE     s:12617

     2009    12612    3                                      EXIT SRCH_TBL1;
     2010    12613    3                                   ELSE
     2011    12614    3                                      I = I + 1;

  12614  5 004123   200016 235100                    LDA     I,,AUTO
         5 004124   000001 035007                    ADLA    1,DL
         5 004125   200016 755100                    STA     I,,AUTO

     2012    12615    3                                 END;

  12615  5 004126   200016 236100                    LDQ     I,,AUTO
         5 004127   000024 402007                    MPY     20,DL
         5 004130   040000 106406                    CMPC    fill='040'O
         5 004131   000000 000010 xsym               ADSC9   KS_HAND_INFO,Q           cn=0,n=8
         5 004132   000035 000001 xsym               ADSC9   B_VECTNIL+29             cn=0,n=1
         5 004133   004114 601000 5                  TNZ     s:12611

     2013    12616
     2014    12617    2                                PTR$ = KS_HAND_INFO.PARAMS$(I);

  12617  5 004134   200016 236100                    LDQ     I,,AUTO
         5 004135   000005 402007                    MPY     5,DL
         5 004136   000004 236006 xsym               LDQ     KS_HAND_INFO+4,QL
         5 004137   200147 756100                    STQ     PTR$,,AUTO

     2015    12618    2                                IF KS_HAND_INFO.SZ(I) <= %KL_FIXED_HI THEN

  12618  5 004140   200016 236100                    LDQ     I,,AUTO
         5 004141   000005 402007                    MPY     5,DL
PL6.E3A0      #004=KSC$SET File=KSC$COMMANDS1.:E05TSI                            WED 07/30/97 01:45 Page:357
         5 004142   000003 235006 xsym               LDA     KS_HAND_INFO+3,QL
         5 004143   000036 115007                    CMPA    30,DL
         5 004144   004152 603000 5                  TRC     s:12621

     2016    12619    2                                    KS$HNDLR.NPARAMS = KS_HAND_INFO.SZ(I);

  12619  5 004145   000160 470400 2                  LDP0    HANDLER$
         5 004146   000003 236006 xsym               LDQ     KS_HAND_INFO+3,QL
         5 004147   000011 736000                    QLS     9
         5 004150   000014 552110                    STBQ    12,'10'O,PR0
         5 004151   004155 710000 5                  TRA     s:12622

     2017    12620    2                                ELSE
     2018    12621    2                                   KS$HNDLR.NPARAMS = %KL_FIXED_HI;

  12621  5 004152   000160 470400 2                  LDP0    HANDLER$
         5 004153   035000 236007                    LDQ     14848,DL
         5 004154   000014 552110                    STBQ    12,'10'O,PR0

     2019    12622    3                                DO K = 0 TO KS$HNDLR.NPARAMS - 1;

  12622  5 004155   200103 450100                    STZ     K,,AUTO
         5 004156   004173 710000 5                  TRA     s:12624+3

     2020    12623    3                                   KS$HNDLR.PARAMS(K) = PTR$->KS$PRM.DEFAULT(K);

  12623  5 004157   200103 235100                    LDA     K,,AUTO
         5 004160   000004 735000                    ALS     4
         5 004161   200103 236100                    LDQ     K,,AUTO
         5 004162   000001 736000                    QLS     1
         5 004163   200147 470500                    LDP0    PTR$,,AUTO
         5 004164   000160 471400 2                  LDP1    HANDLER$
         5 004165   000106 101505                    MRL     fill='000'O
         5 004166   000003 000004                    ADSC9   3,A,PR0                  cn=0,n=4
         5 004167   100015 000002                    ADSC9   13,Q,PR1                 cn=0,n=2

     2021    12624    3                                END;
PL6.E3A0      #004=KSC$SET File=KSC$COMMANDS1.:E05TSI                            WED 07/30/97 01:45 Page:358

  12624  5 004170   200103 235100                    LDA     K,,AUTO
         5 004171   000001 035007                    ADLA    1,DL
         5 004172   200103 755100                    STA     K,,AUTO
         5 004173   000160 470400 2                  LDP0    HANDLER$
         5 004174   000014 236100                    LDQ     12,,PR0
         5 004175   000011 772000                    QRL     9
         5 004176   000777 376007                    ANQ     511,DL
         5 004177   200103 116100                    CMPQ    K,,AUTO
         5 004200   004202 600000 5                  TZE     s:12625
         5 004201   004157 603000 5                  TRC     s:12623

     2022    12625    2                                IF KS_HAND_INFO.SZ(I) > %KL_FIXED_HI THEN

  12625  5 004202   200016 236100                    LDQ     I,,AUTO
         5 004203   000005 402007                    MPY     5,DL
         5 004204   000003 235006 xsym               LDA     KS_HAND_INFO+3,QL
         5 004205   000036 115007                    CMPA    30,DL
         5 004206   004336 602000 5                  TNC     s:12643

     2023    12626    3                                   DO;

     2024    12627    3                                  KS$HNDLR.NPARAMI = KS_HAND_INFO.SZ(I) - %KL_FIXED_HI
             12627                                            ;

  12627  5 004207   000003 236006 xsym               LDQ     KS_HAND_INFO+3,QL
         5 004210   000035 136007                    SBLQ    29,DL
         5 004211   000014 552104                    STBQ    12,'04'O,PR0

     2025    12628    3                                   OUT$ = PINCRW(ADDR(HNDLR_BUF),SIZEW(KS_HANDLER));

  12628  5 004212   000202 236000 6                  LDQ     130
         5 004213   200151 756100                    STQ     OUT$,,AUTO

     2026    12629    3                                   IF KS_HAND_INFO.SZ(I) - %KL_FIXED_HI >

  12629  5 004214   200016 236100                    LDQ     I,,AUTO
PL6.E3A0      #004=KSC$SET File=KSC$COMMANDS1.:E05TSI                            WED 07/30/97 01:45 Page:359
         5 004215   000005 402007                    MPY     5,DL
         5 004216   000003 235006 xsym               LDA     KS_HAND_INFO+3,QL
         5 004217   000035 135007                    SBLA    29,DL
         5 004220   200244 755100                    STA     @TARGET+2,,AUTO
         5 004221   001252 236000 2                  LDQ     KS_HANDLER+12
         5 004222   000777 376007                    ANQ     511,DL
         5 004223   200244 116100                    CMPQ    @TARGET+2,,AUTO
         5 004224   004236 605000 5                  TPL     s:12632

     2027    12630    3                                      KS_HANDLER.NPARAMI THEN
     2028    12631    3  OUT$ = PINCRW(OUT$,((KS_HAND_INFO.SZ(I) - %KL_FIXED_HI - KS_HANDLER.NPARAMI) * SIZEW
             12631            (KS_HANDLER.IPARAM(0))));

  12631  5 004225   200244 756100                    STQ     @TARGET+2,,AUTO
         5 004226   200016 236100                    LDQ     I,,AUTO
         5 004227   000005 402007                    MPY     5,DL
         5 004230   000003 236006 xsym               LDQ     KS_HAND_INFO+3,QL
         5 004231   200244 136100                    SBLQ    @TARGET+2,,AUTO
         5 004232   000022 736000                    QLS     18
         5 004233   000035 136003                    SBLQ    29,DU
         5 004234   200151 036100                    ADLQ    OUT$,,AUTO
         5 004235   200151 756100                    STQ     OUT$,,AUTO

     2029    12632    4                                   DO K = %KL_FIXED_HI  TO KS_HAND_INFO.SZ(I) - 1;

  12632  5 004236   000035 235007                    LDA     29,DL
         5 004237   200103 755100                    STA     K,,AUTO
         5 004240   004327 710000 5                  TRA     s:12640+3

     2030    12633    4                                      DFLT_OPT$ = PTR$->KS$PRM.SPCL_TBL$(K);

  12633  5 004241   200103 235100                    LDA     K,,AUTO
         5 004242   000002 735000                    ALS     2
         5 004243   200147 470500                    LDP0    PTR$,,AUTO
         5 004244   000002 236105                    LDQ     2,AL,PR0
         5 004245   200150 756100                    STQ     DFLT_OPT$,,AUTO

PL6.E3A0      #004=KSC$SET File=KSC$COMMANDS1.:E05TSI                            WED 07/30/97 01:45 Page:360
     2031    12634    4                                      KS$HNDLR.IPARAM.OFFSET(K-%KL_HNDLRPARM_BLOCK) =
             12634                                               POFFW(OUT$,ADDR(HNDLR_BUF));

  12634  5 004246   000021 236000 6                  LDQ     17
         5 004247   000022 772000                    QRL     18
         5 004250   200244 756100                    STQ     @TARGET+2,,AUTO
         5 004251   200151 236100                    LDQ     OUT$,,AUTO
         5 004252   000022 772000                    QRL     18
         5 004253   200244 136100                    SBLQ    @TARGET+2,,AUTO
         5 004254   000000 620006                    EAX0    0,QL
         5 004255   000160 471400 2                  LDP1    HANDLER$
         5 004256   200103 721100                    LXL1    K,,AUTO
         5 004257   177777 740111                    STX0    -1,X1,PR1

     2032    12635    4                                     KS$HNDLR.IPARAM.ARRAY_SZ(K-%KL_HNDLRPARM_BLOCK) =
             12635                                               KS_HAND_INFO.PARAMS$(I)->KS$PRM.ARRAY_SZ(K);

  12635  5 004260   200016 236100                    LDQ     I,,AUTO
         5 004261   000005 402007                    MPY     5,DL
         5 004262   000004 473406 xsym               LDP3    KS_HAND_INFO+4,QL
         5 004263   200103 235100                    LDA     K,,AUTO
         5 004264   000002 735000                    ALS     2
         5 004265   300001 236105                    LDQ     1,AL,PR3
         5 004266   000011 736000                    QLS     9
         5 004267   177776 676111                    ERQ     -2,X1,PR1
         5 004270   777000 376007                    ANQ     -512,DL
         5 004271   177776 656111                    ERSQ    -2,X1,PR1

     2033    12636    5                                      DO L = 0 TO KS$HNDLR.IPARAM.ARRAY_SZ(K-%
             12636                                               KL_HNDLRPARM_BLOCK);

  12636  5 004272   200124 450100                    STZ     L,,AUTO
         5 004273   004310 710000 5                  TRA     s:12638+3

     2034    12637    5                                        OUT$->VALUE_B(L) = DFLT_OPT$->KS$PRM.DEFAULT(L
             12637                                                  );

PL6.E3A0      #004=KSC$SET File=KSC$COMMANDS1.:E05TSI                            WED 07/30/97 01:45 Page:361
  12637  5 004274   200124 235100                    LDA     L,,AUTO
         5 004275   000004 735000                    ALS     4
         5 004276   200124 236100                    LDQ     L,,AUTO
         5 004277   000001 736000                    QLS     1
         5 004300   200150 470500                    LDP0    DFLT_OPT$,,AUTO
         5 004301   200151 471500                    LDP1    OUT$,,AUTO
         5 004302   000106 101505                    MRL     fill='000'O
         5 004303   000003 000004                    ADSC9   3,A,PR0                  cn=0,n=4
         5 004304   100000 000002                    ADSC9   0,Q,PR1                  cn=0,n=2

     2035    12638    5                                      END;

  12638  5 004305   200124 235100                    LDA     L,,AUTO
         5 004306   000001 035007                    ADLA    1,DL
         5 004307   200124 755100                    STA     L,,AUTO
         5 004310   000160 470400 2                  LDP0    HANDLER$
         5 004311   200103 720100                    LXL0    K,,AUTO
         5 004312   077776 236110                    LDQ     -2,X0,PR0
         5 004313   000011 772000                    QRL     9
         5 004314   000777 376007                    ANQ     511,DL
         5 004315   200124 116100                    CMPQ    L,,AUTO
         5 004316   004274 603000 5                  TRC     s:12637

     2036    12639    4                                      OUT$ = PINCRW(OUT$,(KS$HNDLR.IPARAM.ARRAY_SZ(K-%
             12639                                               KL_HNDLRPARM_BLOCK)+2)/2);

  12639  5 004317   000002 036007                    ADLQ    2,DL
         5 004320   000001 772000                    QRL     1
         5 004321   000022 736000                    QLS     18
         5 004322   200151 036100                    ADLQ    OUT$,,AUTO
         5 004323   200151 756100                    STQ     OUT$,,AUTO

     2037    12640    4                                   END;  /* # of indx params */

  12640  5 004324   200103 235100                    LDA     K,,AUTO
         5 004325   000001 035007                    ADLA    1,DL
         5 004326   200103 755100                    STA     K,,AUTO
PL6.E3A0      #004=KSC$SET File=KSC$COMMANDS1.:E05TSI                            WED 07/30/97 01:45 Page:362
         5 004327   200016 236100                    LDQ     I,,AUTO
         5 004330   000005 402007                    MPY     5,DL
         5 004331   000003 236006 xsym               LDQ     KS_HAND_INFO+3,QL
         5 004332   200103 116100                    CMPQ    K,,AUTO
         5 004333   004335 600000 5                  TZE     s:12641
         5 004334   004241 603000 5                  TRC     s:12633

     2038    12641    3                                   END;

  12641  5 004335   004340 710000 5                  TRA     s:12644

     2039    12642    2                                ELSE
     2040    12643    2                                   KS$HNDLR.NPARAMI = 0;
             12643                                            /* reset if no indexed params */

  12643  5 004336   000000 236003                    LDQ     0,DU
         5 004337   000014 552104                    STBQ    12,'04'O,PR0

     2041    12644    2   END RESET_PARAMS_TO_DEFAULTS;

  12644  5 004340   200240 221300                    LDX1  ! HANDNR+1,,AUTO
         5 004341   000001 702211                    TSX2  ! 1,X1

     2042    12645    1   END KSC$SET;

  12645  5 004342   000000 702200 xent               TSX2  ! X66_ARET

PL6.E3A0      #004=KSC$SET File=KSC$COMMANDS1.:E05TSI                            WED 07/30/97 01:45 Page:363
--  Include file information  --

   F$DCB.:E05TOU  cannot be made into a system file and is referenced.
   B_ERRORS_C.:E05TOU  is referenced.
   XU_MACRO_C.:E05TOU  is referenced.
   GI_BOOT_C.:E05TOU  is referenced.
   KL_CONFIG_M.:E05TOU  is referenced.
   KL_AFCN_C.:E05TOU  is referenced.
   KL_CONTROL_C.:E05TOU  is referenced.
   KS_PERR_C.:E05TOU  is referenced.
   KS_DATA_R.:E05TOU  cannot be made into a system file and is referenced.
   KS_SUBS_C.:E05TOU  is referenced.
   KS_MACRO_M.:E05TOU  is referenced.
   KL_MACRO_C.:E05TOU  is referenced.
   CP_6.:E05TOU  cannot be made into a system file and is referenced.
   B$JIT_C.:E05TOU  was found in the system file and is never referenced.
   CP_6_C.:E05TOU  was found in the system file and is referenced.
      No diagnostics issued in procedure KSC$SET.
PL6.E3A0      #004=KSC$SET File=KSC$COMMANDS1.:E05TSI                            WED 07/30/97 01:45 Page:364

 **** Variables and constants ****

  ****  Section 001 RoData KSC$SET

  ****  Scalars and arrays  ****
OctLoc.c.b A Datatyp(siz) R M Lvl/name                 OctLoc.c.b A Datatyp(siz) R M Lvl/name

     0-0-0/c CHAR        r     1 EQUALS                    66-0-0/c CHAR(3)     r     1 FEP
    26-0-0/c CHAR(16)    r     1 HEX_DIGITS                32-0-0/c CHAR(25)    r     1 HNDLRFID
    17-0-0/c CHAR(26)    r     1 HNDLRNAME                 41-0-0/c CHAR(25)    r     1 LIBACCT
     2-0-0/c CHAR(21)    r     1 MONFID                    64-0-0/c CHAR(7)     r     1 NETCON
    10-0-0/c CHAR(28)    r     1 NHNDLRS
    50-0-0/c CHAR        r     1 WRITE_SUCCESSFULL_FMT
    62-0-0/d BIT (72)    r     1 WRITE_SUCCESSFULL_VEC

  ****  Section 002  Data  KSC$SET

  ****  Scalars and arrays  ****
OctLoc.c.b A Datatyp(siz) R M Lvl/name                 OctLoc.c.b A Datatyp(siz) R M Lvl/name

   306-0-0/w PTR         r     1 DEFAULT$
   224-0-0/w UBIN        r     1 DEFAULT_BUF(0:49)
  1326-0-0/d STRC(360)   r     1 DELREC_NETCON            212-0-0/w CHAR(28)    r     1 FIDNAME
  1340-0-0/d STRC(2088)  r     1 FPT_OPEN                 160-0-0/w PTR         r     1 HANDLER$
  1222-0-0/w PTR         r     1 HDR$
    13-0-0/c CHAR        r     1 HNDLR_BUF(0:400)
  1223-0-0/w STRC(396)   r     1 KS_CONTROL               221-0-0/w STRC(99)    r     1 KS_DEFAULT_KEY
   312-0-0/w STRC(936)   r     1 KS_FEPBOOT               344-0-0/w STRC(27)    r     1 KS_FEPBOOT_KEY
   345-0-0/w STRC(792)   r     1 KS_FEPCTL                373-0-0/w STRC(27)    r     1 KS_FEPCTL_KEY
   374-0-0/w STRC(1656)  r     1 KS_FEPHNDLR              452-0-0/w STRC(27)    r     1 KS_FEPHNDLR_KEY
  1236-0-0/w STRC(1062)  r     1 KS_HANDLER               307-0-0/w STRC(99)    r     1 KS_HANDLER_KEY
   453-0-0/w STRC(12888) r     1 KS_PSEUDO               1221-0-0/w STRC(27)    r     1 KS_PSEUDO_KEY
  1432-0-0/d STRC(864)   r     1 NETCON_FID              1274-0-0/d STRC(504)   r     1 READ_NETCON
     0-0-0/w STRC(369)   r     1 TEXTC                   1462-0-0/c STRC(72)    r     1 VLP_ACCT
  1464-0-0/c STRC(288)   r     1 VLP_NAME                1474-0-0/c STRC(72)    r     1 VLP_PASS
  1476-0-0/d STRC(90)    r     1 VLP_SN                  1502-0-0/c STRC(72)    r     1 VLP_WSN
  1504-0-0/d STRC(324)   r     1 VLR_FID                 1312-0-0/d STRC(432)   r     1 WRITE_NETCON
PL6.E3A0      #004=KSC$SET File=KSC$COMMANDS1.:E05TSI                            WED 07/30/97 01:45 Page:365

  ****  Auto variables  ****

  ****  Scalars and arrays  ****
OctLoc.c.b A Datatyp(siz) R M Lvl/name                 OctLoc.c.b A Datatyp(siz) R M Lvl/name

   241-0-0/w PTR         r     1 @PTR$                    242-0-0/w PTR         r     1 @TARGET
     3-0-0/w PTR         r     1 @TOP$                    145-0-0/w PTR         r     1 BLK$
     4-0-0/b BIT         r     1 BOOT_FLAG                150-0-0/w PTR         r     1 DFLT_OPT$
     5-0-0/b BIT         r     1 FID_FLAG                 155-0-0/c CHAR(8)     r     1 HANDLERNAME
   235-0-0/w BIT         r     1 HANDLER_FOUND            237-0-0/w UBIN        r     1 HANDNR
    11-0-0/c CHAR        r     1 HEX_CHAR                  12-0-0/w UBIN        r     1 HEX_DIGIT
    10-0-0/b BIT         r     1 HNDLREXISTS               13-0-0/w UBIN        r     1 HNDLRX
    16-0-0/w UBIN        r     1 I                         17-0-0/w UBIN        r     1 INDX
   152-0-0/w UBIN(9)     r     1 INDX_R
    20-0-0/w UBIN        r     1 INDX_VEC(0:49)
   102-0-0/w UBIN        r     1 J                        103-0-0/w UBIN        r     1 K
   114-0-0/w STRC(288)   r     1 KS_SUB_BUF_4             124-0-0/w UBIN        r     1 L
   133-0-0/w UBIN        r     1 NUM_INDX
   231-0-0/b BIT         r     1 OLD_BOOTIME(0:20)
   157-0-0/w CHAR(8)     r     1 OLD_HANDLER(0:20)
   232-0-0/w UBIN        r     1 OLD_NRHAND               151-0-0/w PTR         r     1 OUT$
   131-0-0/w UBIN        r     1 PARMTYPE                 130-0-0/w UBIN        r     1 PARMX
   132-0-0/w UBIN(9)     r     1 PERM_PARM                147-0-0/w PTR         r     1 PTR$
    *0-0-0/w PTR         r     1 PTR$                     236-0-0/w BIT         r     1 RCVCQ_SNDCQ
   234-0-0/w BIT         r     1 RECORD_CHANGED           233-0-0/w UBIN        r     1 RECORD_SIZE
   134-0-0/w UBIN        r     1 SCNOPTS                  135-0-0/w PTR         r     1 SUBLK$
   136-0-0/w UBIN        r     1 SUBLOP                    *0-0-0/w CHAR(28)    r     1 TARGET
   137-0-0/w UBIN        r     1 TEMP1                    140-0-0/w UBIN        r     1 TEMP2
   142-0-0/w PTR         r     1 TMP$                      *0-0-0/w PTR         r     1 TOP$
   146-0-0/w PTR         r     1 TOP2$                    141-0-0/w SBIN        r     1 T_PSEUDO#
   143-0-0/w UBIN        r     1 VALUE                    143-0-0/w STRC        r     1 VALUEC

  ****  SYMREF variables  ****

  ****  Scalars and arrays  ****
OctLoc.c.b A Datatyp(siz) R M Lvl/name                 OctLoc.c.b A Datatyp(siz) R M Lvl/name
PL6.E3A0      #004=KSC$SET File=KSC$COMMANDS1.:E05TSI                            WED 07/30/97 01:45 Page:366

     0-0-0/w PTR         r     1 B$TCB$                     0-0-0/w SBIN        r     1 KS_CMD
     0-0-0/w SBIN        r     1 KS_FID                     0-0-0/w SBIN        r     1 KS_HAND
     0-0-0/w STRC(180)   r     1 KS_HAND_INFO(0:0)
     0-0-0/w UBIN(9)     r     1 KS_HNDLRINDX               0-0-0/c CHAR(8)     r     1 KS_HNDLRNAME
     0-0-0/w SBIN        r     1 KS_LIB                     0-0-0/c CHAR(400)   r     1 KS_MSGBUF
     0-0-0/w PTR         r     1 KS_MSGBUF$                 0-0-0/w SBIN        r     1 KS_NODE
     0-0-0/c CHAR(8)     r     1 KS_NODENAME                0-0-0/w SBIN        r     1 KS_NRHAND
     0-0-0/w UBIN(9)     r     1 KS_SELPRMOPT               0-0-0/w STRC(288)   r     1 KS_SUB_BUF_1
     0-0-0/w STRC(288)   r     1 KS_SUB_BUF_2               0-0-0/w STRC(288)   r     1 KS_SUB_BUF_3
     0-0-0/w PTR         r     1 KS_TBL(0:9)                0-0-0/c STRC(90)    r     1 PROMPT
     0-0-0/w STRC(504)   r     1 P_PCB

  ****  BASED and DCB variables  ****

  ****  Scalars and arrays  ****
OctLoc.c.b A Datatyp(siz) R M Lvl/name                 OctLoc.c.b A Datatyp(siz) R M Lvl/name

     0-0-0/w STRC(2448)  r     1 B$ALT                      0-0-0/w STRC(144)   r     1 B$TCB
     0-0-0/d ASTR(3528)  r     1 F$DCB                      0-0-0/b STRC(19)    r     1 HND
     0-0-0/w STRC(306)   r     1 KS$HDR                     0-0-0/w STRC(1062)  r     1 KS$HNDLR
     0-0-0/w STRC(144)   r     1 KS$PARAM(0:0)
     0-0-0/w STRC(144)   r     1 KS$PRM(0:0)                0-0-0/w ASTR(387)   r     1 KS_DEFAULT_REC
     0-0-0/w STRC(306)   r     1 KS_HDR                     0-0-0N  NULL        r     1 M$NETCON
     0-0-0/c ASTR(9)     r     1 NAME                       0-0-0/w STRC(144)   r     1 OUT$BLK
     0-0-0/w STRC(144)   r     1 OUT$BLK2                   0-0-0/w ASTR(153)   r     1 OUT$SYM
     0-0-0/w ASTR(153)   r     1 OUT$SYM2
     0-0-0/h UBIN(18)    r     1 VALUE_B(0:0)


   Procedure KSC$SET requires 2275 words for executable code.
   Procedure KSC$SET requires 172 words of local(AUTO) storage.

    No errors detected in file KSC$COMMANDS1.:E05TSI    .
PL6.E3A0      #004=KSC$SET File=KSC$COMMANDS1.:E05TSI                            WED 07/30/97 01:45 Page:367
          *** CROSS REFERENCE LISTING ***
**     DENOTES     IDENTIFIER DEFINITION
<<                 IDENTIFIER'S VALUE SET
>>                 IDENTIFIER'S VALUE USED
<>                 IDENTIFIER SET AND/OR USED
--                 IDENTIFIER REFERENCED
PL6.E3A0      #004=KSC$SET File=KSC$COMMANDS1.:E05TSI                            WED 07/30/97 01:45 Page:368
          MINI XREF LISTING

ALTER_FID
     12575**PROC    11760--CALL    11831--CALL    11994--CALL    12073--CALL
B$ALT.CODE
     11290**DCL     11290--REDEF   11291--REDEF   11291--REDEF
B$ALT.ERR.CODE
     11292**DCL     12464>>IF
B$ALT.ERR.ERR#
     11292**DCL     11292--REDEF
B$ALT.EVID
     11291**DCL     11291--REDEF   11291--REDEF
B$TCB.ALT$
     11286**DCL     12464>>IF
B$TCB$
      9668**DCL     12464>>IF
BLK$
     11268**DCL     11724<<ASSIGN  11725>>DOCASE  11727>>IF      11744>>DOINDEX 11746>>ASSIGN  11779>>IF
     11779>>IF      11788>>ASSIGN  12175>>ASSIGN  12176>>ASSIGN  12231>>ASSIGN  12266>>ASSIGN  12329>>IF
     12330>>ASSIGN  12478>>IF      12478>>IF      12498>>ASSIGN  12498>>ASSIGN  12510>>DOINDEX 12511>>ASSIGN
BOOT_FLAG
     11221**DCL     11816<<ASSIGN
DEFAULT$
     10036**DCL     10804--IMP-PTR 11800>>CALL    11800>>CALL    11802>>CALL    11802>>CALL    11803>>CALL
     11803>>CALL    12148>>CALL    12148>>CALL    12150>>CALL    12150>>CALL    12151>>CALL    12151>>CALL
DEFAULT_BUF
     10035**DCL     10036--DCLINIT
DELREC_NETCON
     11409**DCL     11853<>CALL    11860<>CALL    12111<>CALL    12115<>CALL
DELREC_NETCON.KEY_
     11409**DCL     11852<<ASSIGN  11859<<ASSIGN  12110<<ASSIGN  12114<<ASSIGN
DELREC_NETCON.V
     11412**DCL     11409--DCLINIT
DFLT_OPT$
PL6.E3A0      #004=KSC$SET File=KSC$COMMANDS1.:E05TSI                            WED 07/30/97 01:45 Page:369
     11271**DCL     12633<<ASSIGN  12637>>ASSIGN
DOI
     11723**LABEL   12171--EXIT
END_LOOP
     12554**LABEL   12189--GOTO    12197--GOTO    12299--GOTO    12554--GOTO    12563--GOTO    12569--GOTO
EQUALS
      9968**DCL     11991--CALL    12012--CALL    12026--CALL    12070--CALL    12160--CALL
F$DCB.ACTPOS
      9578**DCL      9578--REDEF
F$DCB.ARS
      9553**DCL      9553--REDEF
F$DCB.ATTR
      9571**DCL      9572--REDEF
F$DCB.BORROW
      9586**DCL      9586--REDEF    9586--REDEF    9586--REDEF
F$DCB.DCBNAME.L
      9600**DCL      9600--IMP-SIZ
F$DCB.EOMCHAR
      9557**DCL      9557--REDEF
F$DCB.FLDID
      9581**DCL      9581--REDEF
F$DCB.FORM$
      9575**DCL      9575--REDEF
F$DCB.FSECT
      9591**DCL      9591--REDEF
F$DCB.FSN
      9568**DCL      9568--REDEF    9568--REDEF    9569--REDEF
F$DCB.HEADER$
      9574**DCL      9574--REDEF
F$DCB.IXTNSIZE
      9572**DCL      9572--REDEF
F$DCB.LASTSTA$
      9562**DCL      9562--REDEF
F$DCB.LVL
      9587**DCL      9587--REDEF
F$DCB.NAME.C
PL6.E3A0      #004=KSC$SET File=KSC$COMMANDS1.:E05TSI                            WED 07/30/97 01:45 Page:370
      9562**DCL      9562--REDEF
F$DCB.NOEOF
      9583**DCL      9583--REDEF
F$DCB.NRECS
      9573**DCL      9573--REDEF
F$DCB.NRECX
      9592**DCL      9592--REDEF
F$DCB.OHDR
      9584**DCL      9584--REDEF
F$DCB.ORG
      9567**DCL      9567--REDEF
F$DCB.PRECNO
      9590**DCL      9590--REDEF
F$DCB.RCSZ
      9595**DCL      9595--REDEF
F$DCB.RES
      9563**DCL      9563--REDEF
F$DCB.SETX
      9575**DCL      9575--REDEF
F$DCB.TAB$
      9574**DCL      9575--REDEF
F$DCB.TDA
      9589**DCL      9589--REDEF
F$DCB.WSN
      9564**DCL      9564--REDEF
FEP
      9981**DCL     12346--CALL
FEPHNDSRCH
     11778**LABEL   11784--EXIT
FIDNAME
     10015**DCL     11544--DCLINIT
FID_FLAG
     11222**DCL     11815<<ASSIGN
FIND_HANDLER
     12035**LABEL   12039--EXIT
FIND_HANDLER2
PL6.E3A0      #004=KSC$SET File=KSC$COMMANDS1.:E05TSI                            WED 07/30/97 01:45 Page:371
     12099**LABEL   12103--EXIT
FPT_OPEN.ACSVEH_
     11485**DCL     11486--REDEF
FPT_OPEN.ALTKEYS_
     11491**DCL     11492--REDEF   11492--REDEF
FPT_OPEN.HDR_
     11490**DCL     11491--REDEF
FPT_OPEN.TAB_
     11489**DCL     11490--REDEF
FPT_OPEN.UHL_
     11483**DCL     11484--REDEF   11484--REDEF
FPT_OPEN.V
     11492**DCL     11483--DCLINIT
FPT_OPEN.V.ASN#
     11502**DCL     11547--DCLINIT
FPT_OPEN.V.FSN#
     11523**DCL     11523--REDEF   11523--REDEF
FPT_OPEN.V.RES#
     11507**DCL     11547--DCLINIT
FPT_OPEN.WSN_
     11489**DCL     11489--REDEF
HANDLER$
     10013**DCL     10658--IMP-PTR 11782>>ASSIGN  11783>>ASSIGN  11791>>ASSIGN  11792>>ASSIGN  11822>>ASSIGN
     11822>>ASSIGN  11823>>CALLBLT 11824>>ASSIGN  11831>>CALL    11901>>ASSIGN  11902>>CALLBLT 11903>>ASSIGN
     11907>>IF      11908>>ASSIGN  11908>>ASSIGN  11909>>ASSIGN  11909>>ASSIGN  12052>>ASSIGN  12053>>ASSIGN
     12054>>IF      12056>>ASSIGN  12056>>ASSIGN  12057>>CALLBLT 12058>>ASSIGN  12066>>CALLBLT 12068>>ASSIGN
     12073>>CALL    12079>>IF      12080>>ASSIGN  12080>>ASSIGN  12081>>ASSIGN  12081>>ASSIGN  12395>>IF
     12397>>IF      12399>>ASSIGN  12404>>ASSIGN  12409>>ASSIGN  12424>>IF      12426>>ASSIGN  12426>>ASSIGN
     12427>>ASSIGN  12427>>ASSIGN  12611>>IF      12619>>ASSIGN  12621>>ASSIGN  12622>>DOINDEX 12623>>ASSIGN
     12627>>ASSIGN  12634>>ASSIGN  12635>>ASSIGN  12636>>DOINDEX 12639>>ASSIGN  12643>>ASSIGN
HANDLERNAME
     11276**DCL     11783<<ASSIGN  11792<<ASSIGN  11795>>ASSIGN  11799>>ASSIGN  11809>>ASSIGN  11850>>ASSIGN
     11858>>ASSIGN  11863>>ASSIGN  11864--ASSIGN  11901>>ASSIGN
HANDLER_FOUND
     11282**DCL     12033<<ASSIGN  12038<<ASSIGN  12043>>IF      12097<<ASSIGN  12102<<ASSIGN  12107>>IF
HANDNR
PL6.E3A0      #004=KSC$SET File=KSC$COMMANDS1.:E05TSI                            WED 07/30/97 01:45 Page:372
     11284**DCL     12020<<ASSIGN  12025--CALL    12069--CALL
HDR$
     10247**DCL     10722--IMP-PTR 12351>>DOSELCT
HEX_CHAR
     11226**DCL     12280<<ASSIGN  12281>>CALLBLT
HEX_DIGIT
     11227**DCL     12281<<CALLBLT 12282>>ASSIGN
HEX_DIGITS
      9973**DCL     12281>>CALLBLT
HND.DAT
     11025**DCL     12221>>IF
HNDLREXISTS
     11225**DCL     11777<<ASSIGN  11781<<ASSIGN  11789>>IF      11820>>IF      11862>>IF
HNDLRFID
      9974**DCL     12069--CALL
HNDLRNAME
      9972**DCL     12025--CALL
HNDLRX
     11228**DCL     11778<<DOINDEX 11779>>IF      11782>>ASSIGN  11794<<ASSIGN  11795>>ASSIGN  11796>>ASSIGN
     11825>>ASSIGN  11836>>IF      11838>>DOINDEX 11875>>ASSIGN  11877>>ASSIGN  11904>>ASSIGN  11918>>ASSIGN
HNDLR_BUF
     10012**DCL     10013--DCLINIT 11745<<ASSIGN  11811--ASSIGN  11908--ASSIGN  11912--ASSIGN  11915--ASSIGN
     11919--ASSIGN  12045--CALL    12080--ASSIGN  12084--ASSIGN  12087--CALL    12087--CALL    12387--CALL
     12403--ASSIGN  12408--ASSIGN  12423--ASSIGN  12426--ASSIGN  12430--ASSIGN  12433--ASSIGN  12628--ASSIGN
     12634--ASSIGN
I
     11231**DCL     11723<<DOINDEX 11724>>ASSIGN  11925<<ASSIGN  11927>>DOWHILE 11928>>IF      11934>>DOINDEX
     11941<<ASSIGN  11941>>ASSIGN  12125<<DOINDEX 12126>>IF      12128>>IF      12130>>ASSIGN  12131>>ASSIGN
     12145<<DOINDEX 12146>>ASSIGN  12609<<ASSIGN  12610>>DOWHILE 12611>>IF      12614<<ASSIGN  12614>>ASSIGN
     12617>>ASSIGN  12618>>IF      12619>>ASSIGN  12625>>IF      12627>>ASSIGN  12629>>IF      12631>>ASSIGN
     12632>>DOINDEX 12635>>ASSIGN
INDX
     11232**DCL     11823<<CALLBLT 11824>>ASSIGN  11902<<CALLBLT 11903>>ASSIGN  12264<<ASSIGN  12294>>ASSIGN
     12338>>ASSIGN  12397>>IF      12399>>ASSIGN  12405>>ASSIGN  12592<<CALLBLT 12593>>IF      12594<<CALLBLT
     12595>>ASSIGN  12596>>ASSIGN  12599>>ASSIGN
INDX_R
PL6.E3A0      #004=KSC$SET File=KSC$COMMANDS1.:E05TSI                            WED 07/30/97 01:45 Page:373
     11273**DCL     12394<<ASSIGN  12395>>IF      12397>>IF      12399>>ASSIGN  12404>>ASSIGN
INDX_VEC
     11233**DCL     12201<<ASSIGN  12236<<ASSIGN  12244<<ASSIGN  12251<<ASSIGN  12257<<ASSIGN  12264>>ASSIGN
J
     11234**DCL     11934<<DOINDEX 11935>>ASSIGN  11935>>ASSIGN  11936>>ASSIGN  11936>>ASSIGN  11984<<CALLBLT
     11986<<ASSIGN  11988>>ASSIGN  11989>>ASSIGN  12019<<DOINDEX 12020>>ASSIGN  12022>>CALLBLT 12024>>ASSIGN
     12028>>ASSIGN  12029>>ASSIGN  12036>>IF      12046>>ASSIGN  12051>>ASSIGN  12053>>ASSIGN  12096<<DOINDEX
     12100>>IF      12109>>ASSIGN  12113>>ASSIGN  12117>>IF      12118>>ASSIGN  12124<<ASSIGN  12125>>DOINDEX
     12243<<DOINDEX 12244>>ASSIGN  12244>>ASSIGN  12250<<DOINDEX 12251>>ASSIGN  12256<<DOINDEX 12257>>ASSIGN
     12257>>ASSIGN  12279<<DOINDEX 12280>>ASSIGN  12477<<DOINDEX 12478>>IF      12480>>ASSIGN  12489>>IF
K
     11235**DCL     11838<<DOINDEX 11839>>ASSIGN  11839>>ASSIGN  11840>>ASSIGN  11840>>ASSIGN  12022<<CALLBLT
     12023>>ASSIGN  12024>>ASSIGN  12035<<DOINDEX 12036>>IF      12046>>ASSIGN  12057<<CALLBLT 12058>>ASSIGN
     12066<<CALLBLT 12067>>ASSIGN  12068>>ASSIGN  12099<<DOINDEX 12100>>IF      12123<<ASSIGN  12128>>IF
     12130>>ASSIGN  12131>>ASSIGN  12133<<ASSIGN  12133>>ASSIGN  12136>>ASSIGN  12156<<CALLBLT 12157>>ASSIGN
     12158>>ASSIGN  12263<<DOINDEX 12264>>ASSIGN  12510<<DOINDEX 12511>>ASSIGN  12622<<DOINDEX 12623>>ASSIGN
     12623>>ASSIGN  12632<<DOINDEX 12633>>ASSIGN  12634>>ASSIGN  12635>>ASSIGN  12635>>ASSIGN  12636>>DOINDEX
     12639>>ASSIGN
KS$HDR.RESULTS.ERR#
     10780**DCL     12351>>DOSELCT
KS$HNDLR.HNDLRFID
     10659**DCL     11822<<ASSIGN  11823>>CALLBLT 11824<<ASSIGN  11831<>CALL    11901<<ASSIGN  11902>>CALLBLT
     11903<<ASSIGN  12052<<ASSIGN  12056<<ASSIGN  12057>>CALLBLT 12058<<ASSIGN  12066>>CALLBLT 12068>>ASSIGN
     12073<>CALL
KS$HNDLR.HNDLRNAME
     10662**DCL     11782<<ASSIGN  11783>>ASSIGN  11791<<ASSIGN  11792>>ASSIGN  11822>>ASSIGN  12053<<ASSIGN
     12054>>IF      12056>>ASSIGN  12611>>IF      12611--IF
KS$HNDLR.IPARAM.ARRAY_SZ
     10691**DCL     11909>>ASSIGN  12081>>ASSIGN  12397>>IF      12399<<ASSIGN  12427>>ASSIGN  12635<<ASSIGN
     12636>>DOINDEX 12639>>ASSIGN
KS$HNDLR.IPARAM.OFFSET
     10700**DCL     11908>>ASSIGN  12080>>ASSIGN  12404>>ASSIGN  12426>>ASSIGN  12634<<ASSIGN
KS$HNDLR.NPARAMI
     10680**DCL     11907>>IF      11908>>ASSIGN  11909>>ASSIGN  12079>>IF      12080>>ASSIGN  12081>>ASSIGN
     12395>>IF      12424>>IF      12426>>ASSIGN  12427>>ASSIGN  12627<<ASSIGN  12643<<ASSIGN
KS$HNDLR.NPARAMS
PL6.E3A0      #004=KSC$SET File=KSC$COMMANDS1.:E05TSI                            WED 07/30/97 01:45 Page:374
     10675**DCL     12619<<ASSIGN  12621<<ASSIGN  12622>>DOINDEX
KS$HNDLR.PARAMS
     10685**DCL     12409<<ASSIGN  12623<<ASSIGN
KS$PARAM.FLAGS.DISPONLY
     11055**DCL     12191>>IF
KS$PARAM.FLAGS.INDX
     11050**DCL     12230>>IF      12392>>IF
KS$PARAM.FLAGS.SPECIAL
     11051**DCL     12305>>IF
KS$PARAM.HND
     11057**DCL     12221--IF
KS$PARAM.MAX
     11075**DCL     12307>>IF      12311>>CALL    12316<>CALL
KS$PARAM.MIN
     11079**DCL     12307>>IF      12312>>CALL    12317<>CALL
KS$PARAM.TEXTNAME
     11044**DCL     12177>>ASSIGN  12178>>ASSIGN  12178>>ASSIGN  12215>>ASSIGN  12216>>ASSIGN  12216>>ASSIGN
KS$PRM.ARRAY_SZ
     11137**DCL     12635>>ASSIGN
KS$PRM.DEFAULT
     11161**DCL     12623>>ASSIGN  12637>>ASSIGN
KS$PRM.SPCL_TBL$
     11154**DCL     12633>>ASSIGN
KSE$ERRMSG
      9629**DCL-ENT 11716--CALL    11867--CALL    11947--CALL    12139--CALL    12186--CALL    12193--CALL
     12208--CALL    12223--CALL    12321--CALL    12356--CALL    12364--CALL    12366--CALL    12389--CALL
     12441--CALL    12442--CALL    12450--CALL    12550--CALL    12553--CALL    12558--CALL    12565--CALL
KSR$RD_HLPCG
      9630**DCL-ENT 12344--CALL
KSR$WR_HLPCG
      9631**DCL-ENT 12343--CALL
KSU$INIT_DEFCNFG
      9638**DCL-ENT 11802--CALL    12150--CALL
KSU$READ_NETCON
      9636**DCL-ENT 11800--CALL    11978--CALL    12003--CALL    12045--CALL    12148--CALL    12387--CALL
KSU$STRIP_ZEROS
PL6.E3A0      #004=KSC$SET File=KSC$COMMANDS1.:E05TSI                            WED 07/30/97 01:45 Page:375
      9640**DCL-ENT 12311--CALL    12312--CALL    12316--CALL    12317--CALL
KSU$UNPACK
      9635**DCL-ENT 12340--CALL
KSU$WRITE_NETCON
      9637**DCL-ENT 11803--CALL    11995--CALL    12087--CALL    12151--CALL    12166--CALL
KSW$WRITE
      9633**DCL-ENT 11990--CALL    12011--CALL    12025--CALL    12069--CALL    12159--CALL    12298--CALL
     12346--CALL    12383--CALL    12435--CALL
KS_CMD
      9674**DCL     12170--ASSIGN
KS_CONTROL
     10282**DCL     12343--CALL
KS_CONTROL.CMD
     10353**DCL     12336<<ASSIGN
KS_CONTROL.HANDLER
     10291**DCL     12301<<ASSIGN  12303<<ASSIGN
KS_CONTROL.INDX
     10369**DCL     12338<<ASSIGN
KS_CONTROL.PARMX
     10363**DCL     12337<<ASSIGN
KS_CONTROL.VALUE
     10375**DCL     12340<>CALL    12342<<ASSIGN
KS_DEFAULT_KEY
     10029**DCL     11800--CALL    11803--CALL    11859--ASSIGN  12114--ASSIGN  12148--CALL    12151--CALL
KS_DEFAULT_KEY.HNDLR
     10033**DCL     11799<<ASSIGN  11858<<ASSIGN  12113<<ASSIGN  12146<<ASSIGN
KS_DEFAULT_KEY.NODE
     10032**DCL     11798<<ASSIGN  11857<<ASSIGN  12112<<ASSIGN  12147<<ASSIGN
KS_DEFAULT_REC
     10804**DCL     11800--CALL    11802<>CALL    11803--CALL    12148--CALL    12150<>CALL    12151--CALL
KS_DEFAULT_REC.LGN.LGNSIZE
     10941**DCL     10942--IMP-SIZ 11800>>CALL    11802>>CALL    11803>>CALL    12148>>CALL    12150>>CALL
     12151>>CALL
KS_FEPBOOT
     10069**DCL     11731<<ASSIGN  11751--ASSIGN  11762--ASSIGN  11978--CALL    11995--CALL    12292--ASSIGN
     12296--ASSIGN
PL6.E3A0      #004=KSC$SET File=KSC$COMMANDS1.:E05TSI                            WED 07/30/97 01:45 Page:376
KS_FEPBOOT.BOOTFID
     10070**DCL     11758<<ASSIGN  11760<>CALL    11984>>CALLBLT 11986--ASSIGN  11989>>ASSIGN  11994<>CALL
KS_FEPBOOT.BOOTPARAMS
     10076**DCL     12294<<ASSIGN
KS_FEPBOOT_KEY
     10094**DCL     11752--ASSIGN  11763--ASSIGN  11978--CALL    11995--CALL    12291--ASSIGN  12295--ASSIGN
KS_FEPBOOT_KEY.NODE
     10097**DCL     11750<<ASSIGN  11970<<ASSIGN  12290<<ASSIGN
KS_FEPCTL
     10112**DCL     12377--ASSIGN  12381--ASSIGN
KS_FEPCTL.PARAMS
     10115**DCL     12379<<ASSIGN
KS_FEPCTL_KEY
     10132**DCL     12376--ASSIGN  12380--ASSIGN
KS_FEPCTL_KEY.NODE
     10135**DCL     12375<<ASSIGN
KS_FEPHNDLR
     10150**DCL     11729<<ASSIGN  11740--ASSIGN  11954--ASSIGN  12003--CALL    12166--CALL
KS_FEPHNDLR.BOOTIME
     10157**DCL     11796<<ASSIGN  11825<<ASSIGN  11840<<ASSIGN  11840>>ASSIGN  11875<<ASSIGN  11877<<ASSIGN
     11904<<ASSIGN  11936<<ASSIGN  11936>>ASSIGN  12007>>ASSIGN  12046<<ASSIGN  12051<<ASSIGN  12131<<ASSIGN
     12131>>ASSIGN
KS_FEPHNDLR.DEFLIBACCT
     10154**DCL     11768<<ASSIGN  11956--ASSIGN  12156>>CALLBLT 12158>>ASSIGN  12162<<ASSIGN  12164--ASSIGN
KS_FEPHNDLR.HANDLER
     10161**DCL     11779>>IF      11782>>ASSIGN  11795<<ASSIGN  11839<<ASSIGN  11839>>ASSIGN  11844<<ASSIGN
     11918>>ASSIGN  11928>>IF      11935<<ASSIGN  11935>>ASSIGN  11938<<ASSIGN  11943>>IF      11946>>IF
     11956--ASSIGN  12006>>ASSIGN  12022>>CALLBLT 12024>>ASSIGN  12028<<ASSIGN  12029>>ASSIGN  12036>>IF
     12053>>ASSIGN  12100>>IF      12118<<ASSIGN  12126>>IF      12130<<ASSIGN  12130>>ASSIGN  12138>>IF
     12146>>ASSIGN  12164--ASSIGN
KS_FEPHNDLR.NHANDLERS
     10151**DCL     11778>>DOINDEX 11793<<ASSIGN  11793>>ASSIGN  11794>>ASSIGN  11836>>IF      11838>>DOINDEX
     11844>>ASSIGN  11845<<ASSIGN  11845>>ASSIGN  11926>>ASSIGN  11934>>DOINDEX 11938>>ASSIGN  11939<<ASSIGN
     11939>>ASSIGN  11943>>IF      11944<<ASSIGN  11944>>ASSIGN  11956--ASSIGN  11956>>ASSIGN  12005>>ASSIGN
     12011--CALL    12014<<CALLBLT 12019>>DOINDEX 12099>>DOINDEX 12117>>IF      12124>>ASSIGN  12136<<ASSIGN
     12145>>DOINDEX 12164--ASSIGN  12164>>ASSIGN
PL6.E3A0      #004=KSC$SET File=KSC$COMMANDS1.:E05TSI                            WED 07/30/97 01:45 Page:377
KS_FEPHNDLR_KEY
     10180**DCL     11741--ASSIGN  11955--ASSIGN  12003--CALL    12166--CALL
KS_FEPHNDLR_KEY.NODE
     10183**DCL     11739<<ASSIGN  11953<<ASSIGN  11971<<ASSIGN
KS_FID
      9670**DCL     11991<>CALL    12070<>CALL
KS_HAND
      9672**DCL     12026<>CALL
KS_HANDLER
     10402**DCL     11913--ASSIGN  12085--ASSIGN  12431--ASSIGN  12628--ASSIGN
KS_HANDLER.IPARAM
     10434**DCL     12631--ASSIGN
KS_HANDLER.NPARAMI
     10424**DCL     12629>>IF      12631>>ASSIGN
KS_HANDLER_KEY
     10050**DCL     11810--ASSIGN  11852--ASSIGN  11916--ASSIGN  12045--CALL    12087--CALL    12110--ASSIGN
     12387--CALL    12422--ASSIGN
KS_HANDLER_KEY.HNDLR
     10054**DCL     11809<<ASSIGN  11850<<ASSIGN  11918<<ASSIGN  12029<<ASSIGN  12109<<ASSIGN  12386<<ASSIGN
KS_HANDLER_KEY.NODE
     10053**DCL     11808<<ASSIGN  11851<<ASSIGN  11917<<ASSIGN  11972<<ASSIGN  12385<<ASSIGN
KS_HAND_INFO.PARAMS$
      9907**DCL     12617>>ASSIGN  12635>>ASSIGN
KS_HAND_INFO.SZ
      9902**DCL     12618>>IF      12619>>ASSIGN  12625>>IF      12627>>ASSIGN  12629>>IF      12631>>ASSIGN
     12632>>DOINDEX
KS_HAND_INFO.TEXT
      9892**DCL     12610>>DOWHILE 12611>>IF
KS_HDR.RESULTS
     10990**DCL     12353<>CALL    12362<>CALL
KS_HNDLRINDX
      3893**DCL     12214>>ASSIGN  12221>>IF
KS_HNDLRNAME
      3893**DCL     12206>>IF      12217--ASSIGN  12218>>ASSIGN  12303>>ASSIGN  12319--ASSIGN  12320>>ASSIGN
     12386>>ASSIGN
KS_LIB
PL6.E3A0      #004=KSC$SET File=KSC$COMMANDS1.:E05TSI                            WED 07/30/97 01:45 Page:378
      9671**DCL     12160<>CALL
KS_MSGBUF
      3895**DCL     10247--DCLINIT
KS_MSGBUF$
      3895**DCL      3895--IMP-PTR 10960--IMP-PTR 12353>>CALL    12362>>CALL
KS_MYSTATION
      3891**DCL      3891--REDEF
KS_NODE
      3892**DCL     11739>>ASSIGN  11750>>ASSIGN  11798>>ASSIGN  11808>>ASSIGN  11851>>ASSIGN  11857>>ASSIGN
     11917>>ASSIGN  11953>>ASSIGN  11970>>ASSIGN  11971>>ASSIGN  11972>>ASSIGN  12112>>ASSIGN  12147>>ASSIGN
     12290>>ASSIGN  12375>>ASSIGN  12385>>ASSIGN  12459>>ASSIGN
KS_NODENAME
      3891**DCL     11715>>IF      11865>>ASSIGN  11866--ASSIGN  12169>>ASSIGN  12219--ASSIGN  12220>>ASSIGN
     12454>>ASSIGN  12556--ASSIGN  12557>>ASSIGN
KS_NRHAND
      9673**DCL     12012<>CALL
KS_PSEUDO
     10198**DCL     12461--ASSIGN  12466<<ASSIGN  12541--ASSIGN
KS_PSEUDO.PSEUDO.MAX_CG
     10213**DCL     12517<<ASSIGN
KS_PSEUDO.PSEUDO.MAX_GHST
     10223**DCL     12526<<ASSIGN
KS_PSEUDO.PSEUDO.MAX_HAND
     10218**DCL     12522<<ASSIGN
KS_PSEUDO.PSEUDO.MAX_SYS
     10204**DCL     12531<<ASSIGN
KS_PSEUDO.PSEUDO.MAX_USR
     10208**DCL     12536<<ASSIGN
KS_PSEUDO.PSEUDO.NAME
     10202**DCL     12478>>IF      12498<<ASSIGN
KS_PSEUDO.PSEUDO#
     10199**DCL     12477>>DOINDEX 12498>>ASSIGN  12499>>ASSIGN  12500<<ASSIGN  12500>>ASSIGN  12542>>ASSIGN
KS_PSEUDO_KEY
     10242**DCL     12460--ASSIGN  12540--ASSIGN
KS_PSEUDO_KEY.NODE
     10245**DCL     12459<<ASSIGN
PL6.E3A0      #004=KSC$SET File=KSC$COMMANDS1.:E05TSI                            WED 07/30/97 01:45 Page:379
KS_SELPRMOPT
      3892**DCL     12332>>ASSIGN
KS_SUB_BUF_1
      3896**DCL     11867--CALL    12193--CALL    12223--CALL    12298--CALL    12346--CALL    12356--CALL
     12364--CALL    12366--CALL    12383--CALL    12435--CALL    12450--CALL    12558--CALL
KS_SUB_BUF_1.COUNT
      3896**DCL     11864<<ASSIGN  11973<<ASSIGN  12177<<ASSIGN  12215<<ASSIGN  12551<<ASSIGN  12556<<ASSIGN
KS_SUB_BUF_1.TEXT
      3896**DCL     11863<<ASSIGN  11974<<ASSIGN  12178<<ASSIGN  12216<<ASSIGN  12552<<ASSIGN  12557<<ASSIGN
KS_SUB_BUF_2
      3896**DCL     11867--CALL    12223--CALL    12321--CALL    12366--CALL    12389--CALL
KS_SUB_BUF_2.COUNT
      3897**DCL     11866<<ASSIGN  12217<<ASSIGN  12311<>CALL    12316<>CALL
KS_SUB_BUF_2.TEXT
      3897**DCL     11865<<ASSIGN  12218<<ASSIGN  12311<>CALL    12316<>CALL
KS_SUB_BUF_3
      3897**DCL     12321--CALL    12389--CALL
KS_SUB_BUF_3.COUNT
      3897**DCL     12219<<ASSIGN  12312<>CALL    12317<>CALL
KS_SUB_BUF_3.TEXT
      3897**DCL     12220<<ASSIGN  12312<>CALL    12317<>CALL
KS_SUB_BUF_4
     11243**DCL     12321--CALL
KS_SUB_BUF_4.COUNT
     11244**DCL     12319<<ASSIGN
KS_SUB_BUF_4.TEXT
     11245**DCL     12320<<ASSIGN
KS_SUB_BUF_TEMP2.TEXT_C
     11238**DCL     11241--REDEF
KS_TBL
      9669**DCL     12177>>ASSIGN  12178>>ASSIGN  12178>>ASSIGN  12191>>IF      12215>>ASSIGN  12216>>ASSIGN
     12216>>ASSIGN  12221>>IF      12230>>IF      12305>>IF      12307>>IF      12307>>IF      12311>>CALL
     12312>>CALL    12316>>CALL    12317>>CALL    12392>>IF
L
     11246**DCL     11926<<ASSIGN  11927>>DOWHILE 12636<<DOINDEX 12637>>ASSIGN  12637>>ASSIGN
LIBACCT
PL6.E3A0      #004=KSC$SET File=KSC$COMMANDS1.:E05TSI                            WED 07/30/97 01:45 Page:380
      9975**DCL     12159--CALL
M$DELREC
        21**DCL-ENT 11853--CALL    11860--CALL    12111--CALL    12115--CALL
M$READ
        20**DCL-ENT 11742--CALL    11753--CALL    11812--CALL    12293--CALL    12378--CALL    12462--CALL
M$WRITE
        20**DCL-ENT 11764--CALL    11920--CALL    11961--CALL    12297--CALL    12382--CALL    12434--CALL
     12547--CALL
MONFID
     11978**LABEL   11990--CALL
NAME.L#
     11192**DCL     11192--IMP-SIZ 12177>>ASSIGN  12178>>ASSIGN  12215>>ASSIGN  12216>>ASSIGN
NAME.NAME#
     11192**DCL     12178>>ASSIGN  12216>>ASSIGN
NETCON
      9980**DCL     12298--CALL    12383--CALL    12435--CALL
NETCON_FID.V
     11548**DCL     11544--DCLINIT
NHNDLRS
     12003**LABEL   12011--CALL
NUM_INDX
     11253**DCL     12200<<ASSIGN  12227<<ASSIGN  12235<<ASSIGN  12242<<ASSIGN  12249<<ASSIGN  12251>>ASSIGN
     12252<<ASSIGN  12252>>ASSIGN  12255<<ASSIGN  12263>>DOINDEX
OLD_BOOTIME
     11278**DCL     12007<<ASSIGN  12046>>ASSIGN
OLD_HANDLER
     11277**DCL     12006<<ASSIGN  12036>>IF      12100>>IF      12109>>ASSIGN  12113>>ASSIGN
OLD_NRHAND
     11279**DCL     12005<<ASSIGN  12035>>DOINDEX 12096>>DOINDEX
OUT$
     11272**DCL     12628<<ASSIGN  12631<<ASSIGN  12631>>ASSIGN  12634>>ASSIGN  12637>>ASSIGN  12639<<ASSIGN
     12639>>ASSIGN
OUT$BLK.CODE
     10491**DCL     11725>>DOCASE  11747>>DOCASE  11828>>DOCASE  11874>>IF      11883>>IF      12175>>ASSIGN
     12176>>ASSIGN  12236>>ASSIGN  12240>>DOCASE  12244>>ASSIGN  12247>>ASSIGN  12248>>ASSIGN  12267>>DOCASE
     12330>>ASSIGN  12339>>IF      12339>>IF      12512>>DOCASE  12585>>IF      12590>>IF
PL6.E3A0      #004=KSC$SET File=KSC$COMMANDS1.:E05TSI                            WED 07/30/97 01:45 Page:381
OUT$BLK.NSUBLKS
     10495**DCL     11723>>DOINDEX 11727>>IF      11744>>DOINDEX 11757>>IF      11818>>IF      11827>>DOINDEX
     11880>>IF      12013>>IF      12027>>IF      12071>>IF      12161>>IF      12242>>ASSIGN  12243>>DOINDEX
     12329>>IF      12510>>DOINDEX 12579>>IF
OUT$BLK.SUBLK$
     10516**DCL     11724>>ASSIGN  11746>>ASSIGN  11768>>ASSIGN  11768>>ASSIGN  11779>>IF      11779>>IF
     11779>>IF      11779>>IF      11788>>ASSIGN  11791>>ASSIGN  11791>>ASSIGN  11828>>DOCASE  11831>>CALL
     11831<>CALL    11874>>IF      11874>>IF      11880>>IF      11883>>IF      11883>>IF      11883>>IF
     12162>>ASSIGN  12162>>ASSIGN  12175>>ASSIGN  12176>>ASSIGN  12176>>ASSIGN  12231>>ASSIGN  12231>>ASSIGN
     12231>>ASSIGN  12244>>ASSIGN  12247>>ASSIGN  12248>>ASSIGN  12266>>ASSIGN  12279>>DOINDEX 12280>>ASSIGN
     12280>>ASSIGN  12330>>ASSIGN  12330>>ASSIGN  12478>>IF      12478>>IF      12498>>ASSIGN  12498>>ASSIGN
     12511>>ASSIGN  12515>>IF      12516>>CALLBLT 12516>>CALLBLT 12520>>IF      12521>>CALLBLT 12521>>CALLBLT
     12524>>IF      12525>>CALLBLT 12525>>CALLBLT 12529>>IF      12530>>CALLBLT 12530>>CALLBLT 12534>>IF
     12535>>CALLBLT 12535>>CALLBLT 12580>>CALLBLT 12580>>CALLBLT 12580>>CALLBLT 12580>>CALLBLT 12585>>IF
     12586>>CALLBLT 12586>>CALLBLT 12590>>IF      12596>>ASSIGN  12596>>ASSIGN  12599>>ASSIGN  12599>>ASSIGN
OUT$BLK2.NSUBLKS
     10578**DCL     11992>>IF
OUT$SYM.COUNT
     10552**DCL     10555--IMP-SIZ 11768>>ASSIGN  11779>>IF      11791>>ASSIGN  12014>>CALLBLT 12028>>ASSIGN
     12162>>ASSIGN  12269>>CALLBLT 12279>>DOINDEX 12280>>ASSIGN  12286>>ASSIGN  12478>>IF      12498>>ASSIGN
     12515>>IF      12516>>CALLBLT 12520>>IF      12521>>CALLBLT 12524>>IF      12525>>CALLBLT 12529>>IF
     12530>>CALLBLT 12534>>IF      12535>>CALLBLT 12580>>CALLBLT 12580>>CALLBLT 12586>>CALLBLT 12596>>ASSIGN
     12599>>ASSIGN
OUT$SYM.TEXT
     10555**DCL     11768>>ASSIGN  11779>>IF      11791>>ASSIGN  12014>>CALLBLT 12028>>ASSIGN  12162>>ASSIGN
     12269>>CALLBLT 12280>>ASSIGN  12286>>ASSIGN  12478>>IF      12498>>ASSIGN  12516>>CALLBLT 12521>>CALLBLT
     12525>>CALLBLT 12530>>CALLBLT 12535>>CALLBLT 12580>>CALLBLT 12580>>CALLBLT 12586>>CALLBLT 12596>>ASSIGN
     12599>>ASSIGN
OUT$SYM2.COUNT
     10635**DCL     10638--IMP-SIZ
PARMTYPE
     11251**DCL     12175<<ASSIGN  12177>>ASSIGN  12178>>ASSIGN  12178>>ASSIGN  12184>>IF      12191>>IF
     12204>>IF      12214<<ASSIGN  12214>>ASSIGN  12230>>IF      12270>>IF      12288>>DOCASE  12305>>IF
     12307>>IF      12307>>IF      12311>>CALL    12312>>CALL    12316>>CALL    12317>>CALL    12355>>IF
     12373>>DOCASE  12392>>IF
PARMX
PL6.E3A0      #004=KSC$SET File=KSC$COMMANDS1.:E05TSI                            WED 07/30/97 01:45 Page:382
     11250**DCL     12176<<ASSIGN  12177>>ASSIGN  12178>>ASSIGN  12178>>ASSIGN  12184>>IF      12191>>IF
     12215>>ASSIGN  12216>>ASSIGN  12216>>ASSIGN  12221>>IF      12230>>IF      12232>>IF      12232>>IF
     12270>>IF      12270>>IF      12294>>ASSIGN  12305>>IF      12307>>IF      12307>>IF      12311>>CALL
     12312>>CALL    12316>>CALL    12317>>CALL    12337>>ASSIGN  12379>>ASSIGN  12392>>IF      12394>>ASSIGN
     12409>>ASSIGN
PERM_PARM
     11252**DCL     12330<<ASSIGN  12332<<ASSIGN  12334>>IF      12334>>IF      12371>>IF      12371>>IF
PROMPT.NODENAME
     10249**DCL     12169<<ASSIGN  12454<<ASSIGN
PSEDO_SRCH
     12477**LABEL   12481--EXIT
PSEUDO_SET_ERR
     12550**LABEL   12465--GOTO    12547--CALLALT
PTR$
     11270**DCL     11908<<ASSIGN  11909<<ASSIGN  11909>>ASSIGN  11912<<ASSIGN  11913<<ASSIGN  11913>>ASSIGN
     11919>>ASSIGN  12080<<ASSIGN  12081<<ASSIGN  12081>>ASSIGN  12084<<ASSIGN  12085<<ASSIGN  12085>>ASSIGN
     12087>>CALL    12231<<ASSIGN  12236>>ASSIGN  12240>>DOCASE  12242>>ASSIGN  12243>>DOINDEX 12244>>ASSIGN
     12247>>ASSIGN  12248>>ASSIGN  12266<<ASSIGN  12267>>DOCASE  12269>>CALLBLT 12269>>CALLBLT 12279>>DOINDEX
     12280>>ASSIGN  12280>>ASSIGN  12286>>ASSIGN  12286>>ASSIGN  12339>>IF      12339>>IF      12403<<ASSIGN
     12404<<ASSIGN  12404>>ASSIGN  12405>>ASSIGN  12408<<ASSIGN  12426<<ASSIGN  12427<<ASSIGN  12427>>ASSIGN
     12430<<ASSIGN  12431<<ASSIGN  12431>>ASSIGN  12433>>ASSIGN  12617<<ASSIGN  12623>>ASSIGN  12633>>ASSIGN
PTR$ IN PROCEDURE ALTER_FID
     12576**DCL     12575--PROC    12579>>IF      12580>>CALLBLT 12580>>CALLBLT 12580>>CALLBLT 12580>>CALLBLT
     12585>>IF      12586>>CALLBLT 12586>>CALLBLT 12590>>IF      12596>>ASSIGN  12596>>ASSIGN  12599>>ASSIGN
     12599>>ASSIGN
P_PCB.OUT$
      9706**DCL     12170<<ASSIGN
RCVCQ_SNDCQ
     11283**DCL     12265<<ASSIGN  12275<<ASSIGN  12309>>IF
READ_NETCON
     11343**DCL     11742<>CALL    11753<>CALL    11812<>CALL    12293<>CALL    12378<>CALL    12462<>CALL
READ_NETCON.BUF_
     11345**DCL     11740<<ASSIGN  11751<<ASSIGN  11811<<ASSIGN  12292<<ASSIGN  12377<<ASSIGN  12461<<ASSIGN
READ_NETCON.KEY_
     11343**DCL     11741<<ASSIGN  11752<<ASSIGN  11810<<ASSIGN  12291<<ASSIGN  12376<<ASSIGN  12460<<ASSIGN
READ_NETCON.STATION_
PL6.E3A0      #004=KSC$SET File=KSC$COMMANDS1.:E05TSI                            WED 07/30/97 01:45 Page:383
     11346**DCL     11347--REDEF
READ_NETCON.V
     11347**DCL     11343--DCLINIT
READ_NETCON.V.DVBYTE.REREAD#
     11358**DCL     11358--REDEF
READ_NETCON.V.INDX#
     11356**DCL     11356--REDEF
RECORD_CHANGED
     11281**DCL     12021<<ASSIGN  12050<<ASSIGN  12074<<ASSIGN  12077>>IF
RECORD_SIZE
     11280**DCL     12164<<ASSIGN  12166<>CALL
RESET_PARAMS_TO_DEFAULTS
     12602**PROC    11797--CALL    11881--CALL    11885--CALL    12060--CALL
SCNOPTS
     11254**DCL     11744<<DOINDEX 11746>>ASSIGN  11779>>IF      11779>>IF      11788>>ASSIGN
SETCODE
     11747**LABEL   11753--CALLALT 11870--EXIT
SET_ERR
     12450**LABEL   11742--CALLALT 11764--CALLALT 11812--CALLALT 11920--CALLALT 11961--CALLALT 11978--CALLALT
     11995--CALLALT 12003--CALLALT 12166--CALLALT 12211--GOTO    12228--GOTO    12326--GOTO    12367--GOTO
     12390--GOTO
SRCH_TBL1 IN PROCEDURE RESET_PARAMS_TO_DEFAULTS
     12610**LABEL   12612--EXIT
SUBLK$
     11255**DCL     11788<<ASSIGN  11791>>ASSIGN  11791>>ASSIGN  11827>>DOINDEX 11828>>DOCASE  11831>>CALL
     11874>>IF      11880>>IF      11883>>IF      12511<<ASSIGN  12512>>DOCASE  12515>>IF      12516>>CALLBLT
     12516>>CALLBLT 12520>>IF      12521>>CALLBLT 12521>>CALLBLT 12524>>IF      12525>>CALLBLT 12525>>CALLBLT
     12529>>IF      12530>>CALLBLT 12530>>CALLBLT 12534>>IF      12535>>CALLBLT 12535>>CALLBLT
SUBLOP
     11256**DCL     11827<<DOINDEX 11828>>DOCASE  11831>>CALL    11874>>IF      11880>>IF      11883>>IF
TARGET IN PROCEDURE ALTER_FID
     12577**DCL     12575--PROC    12580<<CALLBLT 12586<<CALLBLT 12592>>CALLBLT 12593--IF      12594>>CALLBLT
     12595<<ASSIGN  12596<<ASSIGN  12599<<ASSIGN
TEMP1
     11257**DCL     12247<<ASSIGN  12250>>DOINDEX 12516<<CALLBLT 12517>>ASSIGN  12521<<CALLBLT 12522>>ASSIGN
     12525<<CALLBLT 12526>>ASSIGN  12530<<CALLBLT 12531>>ASSIGN  12535<<CALLBLT 12536>>ASSIGN
PL6.E3A0      #004=KSC$SET File=KSC$COMMANDS1.:E05TSI                            WED 07/30/97 01:45 Page:384
TEMP2
     11258**DCL     12248<<ASSIGN  12250>>DOINDEX
TEXTC
     10009**DCL     11990--CALL    12025--CALL    12069--CALL    12159--CALL
TEXTC.COUNT
     10010**DCL     11988<<ASSIGN  12023<<ASSIGN  12067<<ASSIGN  12157<<ASSIGN
TEXTC.TEXT
     10011**DCL     11989<<ASSIGN  12024<<ASSIGN  12068<<ASSIGN  12158<<ASSIGN
TMP$
     11260**DCL     11746<<ASSIGN  11747>>DOCASE  11757>>IF      11760<>CALL    11768>>ASSIGN  11768>>ASSIGN
     11818>>IF
TOO_BIG
     12565**LABEL   12515--GOTO    12520--GOTO    12524--GOTO    12529--GOTO    12534--GOTO
TOO_MANY_PSEUDO
     12556**LABEL   12490--GOTO
TOP$
         8**DCL         6--PROC    10483--IMP-PTR 11723>>DOINDEX 11724>>ASSIGN
TOP2$
     11269**DCL     10566--IMP-PTR 11991<>CALL    11992>>IF      11994<>CALL    12012<>CALL    12013>>IF
     12014>>CALLBLT 12014>>CALLBLT 12026<>CALL    12027>>IF      12028>>ASSIGN  12028>>ASSIGN  12070<>CALL
     12071>>IF      12073<>CALL    12160<>CALL    12161>>IF      12162>>ASSIGN  12162>>ASSIGN
T_PSEUDO#
     11259**DCL     12476<<ASSIGN  12480<<ASSIGN  12496>>IF      12499<<ASSIGN  12517>>ASSIGN  12522>>ASSIGN
     12526>>ASSIGN  12531>>ASSIGN  12536>>ASSIGN
UPDATE_FILE
     12371**LABEL   12343--CALLALT
UPD_NETCON_ERR
     12441**LABEL   12293--CALLALT 12297--CALLALT 12378--CALLALT 12382--CALLALT 12434--CALLALT
VALUE
     11261**DCL     11262--REDEF   12269<<CALLBLT 12274<<ASSIGN  12274>>ASSIGN  12278<<ASSIGN  12282<<ASSIGN
     12282>>ASSIGN  12285<<ASSIGN  12294>>ASSIGN  12307>>IF      12307>>IF      12340<>CALL    12342>>ASSIGN
     12379>>ASSIGN  12405>>ASSIGN  12409>>ASSIGN
VALUEC.RES
     11264**DCL     12286<<ASSIGN
VALUE_B
     11166**DCL     12405<<ASSIGN  12637<<ASSIGN
PL6.E3A0      #004=KSC$SET File=KSC$COMMANDS1.:E05TSI                            WED 07/30/97 01:45 Page:385
VLP_ACCT
     11568**DCL     11545--DCLINIT
VLP_NAME
     11595**DCL     11545--DCLINIT
VLP_PASS
     11608**DCL     11546--DCLINIT
VLP_SN
     11621**DCL     11546--DCLINIT
VLP_WSN
     11634**DCL     11546--DCLINIT
VLR_FID
     11647**DCL     11548--DCLINIT
WRITE_NETCON
     11383**DCL     11764<>CALL    11920<>CALL    11961<>CALL    12297<>CALL    12382<>CALL    12434<>CALL
     12547<>CALL
WRITE_NETCON.BUF_
     11383**DCL     11762<<ASSIGN  11915<<ASSIGN  11954<<ASSIGN  12296<<ASSIGN  12381<<ASSIGN  12423<<ASSIGN
     12541<<ASSIGN
WRITE_NETCON.BUF_.BOUND
     11383**DCL     11919<<ASSIGN  11956<<ASSIGN  12433<<ASSIGN  12542<<ASSIGN
WRITE_NETCON.KEY_
     11383**DCL     11763<<ASSIGN  11916<<ASSIGN  11955<<ASSIGN  12295<<ASSIGN  12380<<ASSIGN  12422<<ASSIGN
     12540<<ASSIGN
WRITE_NETCON.STATION_
     11385**DCL     11385--REDEF
WRITE_NETCON.V
     11386**DCL     11383--DCLINIT
WRITE_NETCON.V.DVBYTE.VFC#
     11392**DCL     11392--REDEF
WRITE_SUCCESSFULL_FMT
      9976**DCL      9979--DCLINIT
WRITE_SUCCESSFULL_VEC
      9978**DCL     12298<>CALL    12346<>CALL    12383<>CALL    12435<>CALL
XUR$ERRMSG
      9639**DCL-ENT 12353--CALL    12362--CALL
XUR$GETCMD
PL6.E3A0      #004=KSC$SET File=KSC$COMMANDS1.:E05TSI                            WED 07/30/97 01:45 Page:386
      9634**DCL-ENT 11991--CALL    12012--CALL    12026--CALL    12070--CALL    12160--CALL
