PL6.E3A0      #003=KSC$PART File=KSC$COMMANDS1.:E05TSI                           WED 07/30/97 01:44 Page:151
      759        1        /*T***********************************************************/
      760        2        /*T*                                                         */
      761        3        /*T* Copyright (c) Bull HN Information Systems Inc., 1997    */
      762        4        /*T*                                                         */
      763        5        /*T***********************************************************/
      764        6
      765        7
      766        8
      767        9
      768       10
      769       11        KSC$PART:  PROC(TOP$);
      770       12
      771       13    1   DCL TOP$ PTR;
      772       14
      773       15        %INCLUDE KHA_FNC_E;
      774      115        %INCLUDE CP_6;
      775      196        %INCLUDE CP_6_SUBS;
      776      736        %INCLUDE XU_MACRO_C;
      777     3842        %INCLUDE KS_MACRO_M;
      778     4039        %INCLUDE B_ERRORS_C;
      779     5166        %INCLUDE KL_CONFIG_M;
      780     5928        %INCLUDE KL_MACRO_C;
      781     9280        %INCLUDE KS_SUBS_C;
      782     9523        %INCLUDE KS_DATA_R;
      783     9538        %INCLUDE KS_PERR_C;
      784     9605        %INCLUDE KL_AFCN_C;
      785     9706        /**/
      786     9707        %KS$BOX(TITLE="entry defs");

              9725    1   /***************************************************************************
              9726    1    *                                                                         *
              9727    1    *                                 entry defs                              *
              9728    1    *                                                                         *
              9729    1    ***************************************************************************/

      787     9734    1   DCL KSE$ERRMSG ENTRY(4);
      788     9735    1   DCL KSR$RD_HLPCG ENTRY(1) ALTRET;
PL6.E3A0      #003=KSC$PART File=KSC$COMMANDS1.:E05TSI                           WED 07/30/97 01:44 Page:152
      789     9736    1   DCL KSR$WR_HLPCG ENTRY(1) ALTRET;
      790     9737    1   DCL KSU$BLD_TERMID ENTRY(3) ALTRET;
      791     9738    1   DCL KSU$CHK_TRM_RNG ENTRY(2) ALTRET;
      792     9739    1   DCL XUR$ERRMSG ENTRY(7) ALTRET;
      793     9740    1   DCL XUR$ERRCNVRT ENTRY(2);
      794     9741    1   DCL KSW$WRITE ENTRY(11);
      795     9742        %KS$BOX(TITLE="symref variables");

              9760    1   /***************************************************************************
              9761    1    *                                                                         *
              9762    1    *                              symref variables                           *
              9763    1    *                                                                         *
              9764    1    ***************************************************************************/

      796     9769    1   DCL B$TCB$ PTR SYMREF;
      797     9770        %KS$BOX(TITLE="constant variables");

              9788    1   /***************************************************************************
              9789    1    *                                                                         *
              9790    1    *                             constant variables                          *
              9791    1    *                                                                         *
              9792    1    ***************************************************************************/

      798     9797    1   DCL FORM_FMT CHAR(0) CONSTANT INIT('terminals %LA to %LA %LA on channel %LH%10P');
      799     9798    1   DCL FORM_VEC BIT(72) CONSTANT DALIGNED INIT(VECTOR(FORM_FMT));
      800     9799        %KS$BOX(TITLE="static variables");

              9817    1   /***************************************************************************
              9818    1    *                                                                         *
              9819    1    *                              static variables                           *
              9820    1    *                                                                         *
              9821    1    ***************************************************************************/

      801     9826    1   DCL HDR$ PTR STATIC INIT(ADDR(KS_MSGBUF));
      802     9827        %KS$BOX(TITLE="auto variables");

              9845    1   /***************************************************************************
PL6.E3A0      #003=KSC$PART File=KSC$COMMANDS1.:E05TSI                           WED 07/30/97 01:44 Page:153
              9846    1    *                                                                         *
              9847    1    *                               auto variables                            *
              9848    1    *                                                                         *
              9849    1    ***************************************************************************/

      803     9854    1   DCL ATTRIBUTE UBIN;
      804     9855    1   DCL CHNL_NO_HI UBIN;
      805     9856    1   DCL CHNL_NO_LO UBIN;
      806     9857    1   DCL CODE UBIN;
      807     9858    1   DCL ERR BIT(36);
      808     9859    1   DCL J UBIN;
      809     9860    1   DCL PART_RET CHAR(11);
      810     9861    1   DCL SUBDEV_LO  UBIN;
      811     9862    1   DCL SUBSUBDEV_LO UBIN;
      812     9863    1   DCL SUBDEV_HI UBIN;
      813     9864    1   DCL SUBSUBDEV_HI UBIN;
      814     9865    1   DCL TERMID_LO CHAR(8);
      815     9866    1   DCL TERMID_HI CHAR(8);
      816     9867        %B$TERMINAL_ID(FPTN=TERMLO,STCLASS=AUTO);
      817     9896        %B$TERMINAL_ID(FPTN=TERMHI,STCLASS=AUTO);
      818     9925        %KS$BOX(TITLE="constant variables");

              9943    1   /***************************************************************************
              9944    1    *                                                                         *
              9945    1    *                             constant variables                          *
              9946    1    *                                                                         *
              9947    1    ***************************************************************************/

      819     9952    1   DCL CMPLTED_OK_FMT CHAR(0) CONSTANT INIT(
              9952            '%5X Line(s) %LH - %LD - %LD to %LH - %LD - %LD %LA%10P');
      820     9953    1   DCL CMPLTED_OK_VEC BIT(72) CONSTANT DALIGNED INIT(VECTOR(CMPLTED_OK_FMT));
      821     9954        %KS$BOX(TITLE="static variables");

              9972    1   /***************************************************************************
              9973    1    *                                                                         *
              9974    1    *                              static variables                           *
              9975    1    *                                                                         *
PL6.E3A0      #003=KSC$PART File=KSC$COMMANDS1.:E05TSI                           WED 07/30/97 01:44 Page:154
              9976    1    ***************************************************************************/

      822     9981        %KL_ADMIN (FPTN=KS_ADMIN,STCLASS=STATIC);
      823    10141        %KS$BOX(TITLE="based variables");

             10159    1   /***************************************************************************
             10160    1    *                                                                         *
             10161    1    *                              based variables                            *
             10162    1    *                                                                         *
             10163    1    ***************************************************************************/

      824    10168        %KL_HDR(FPTN=KS$HDR,STCLASS="BASED(HDR$)");
      825    10248        %B$TCB;
      826    10251        %B$ALT;
      827    10259        %PARSE$OUT(NAME=OUT$BLK,STCLASS="BASED(TOP$)");
      828    10304        %PARSE$SYM(NAME=OUT$SYM,STCLASS=BASED);
      829    10342        %MACRO ARRAY_TO_WORD (S=JUNK,D=JUNK);
      830    10343             D = S.BYT(0) * 256;
      831    10344             D = D + S.BYT(1);
      832    10345        %MEND;
      833    10346        %EJECT;
PL6.E3A0      #003=KSC$PART File=KSC$COMMANDS1.:E05TSI                           WED 07/30/97 01:44 Page:155
      834    10347    1     IF KS_NODENAME = 'HOST' THEN
      835    10348    2        DO;
      836    10349    2        CALL KSE$ERRMSG(%E$KS_NONODE);
      837    10350    2        RETURN;
      838    10351    2        END;
      839    10352
      840    10353        /*
      841    10354           set code and determine if a range is specified or if a single
      842    10355           line is to be partition / returned
      843    10356        */
      844    10357    1     IF KS_NODENAME_SV ~= ' ' THEN
      845    10358    1        J=1;
      846    10359    1     ELSE
      847    10360    1        J=0;
      848    10361    1     CODE = OUT$BLK.CODE;
      849    10362    1     CALL KSU$BLD_TERMID(OUT$BLK.SUBLK$(J)->OUT$BLK.SUBLK$(0),TERMLO) ALTRET(ERR);
      850    10363    1     IF OUT$BLK.SUBLK$(0)->OUT$BLK.NSUBLKS = 2 THEN
      851    10364    2        DO;
      852    10365    2        CALL KSU$BLD_TERMID(OUT$BLK.SUBLK$(J)->OUT$BLK.SUBLK$(1),TERMHI) ALTRET(ERR);
      853    10366    2        CALL KSU$CHK_TRM_RNG(TERMLO,TERMHI) WHENALTRETURN
      854    10367    3           DO;
      855    10368    3           CALL KSE$ERRMSG(%E$KS_BAD_TRM_RANGE);
      856    10369    3           GOTO ERR1;
      857    10370    3           END; /* end altreturn */
      858    10371    2        END; /* number of sub-blocks = 2 */
      859    10372    1     ELSE
      860    10373    2        DO;
      861    10374    2        TERMHI = TERMLO;
      862    10375    2        END;
      863    10376
      864    10377    2     DO CASE (CODE);
      865    10378    2        CASE(%KS_PART);
      866    10379    2           KS_ADMIN.FNC = %KHA_FNC_PARTITION;
      867    10380    2           PART_RET = 'partitioned';
      868    10381    2        CASE(%KS_RET);
      869    10382    2           KS_ADMIN.FNC = %KHA_FNC_RETURN;
      870    10383    2           PART_RET = 'Returned';
PL6.E3A0      #003=KSC$PART File=KSC$COMMANDS1.:E05TSI                           WED 07/30/97 01:44 Page:156
      871    10384    2     END; /*end case code*/
      872    10385
      873    10386        /*
      874    10387          set handler name, terminal low and high name
      875    10388        */
      876    10389    1     KS_ADMIN.HANDLER = KS_HNDLRNAME;
      877    10390    1     KS_ADMIN.TERMID_LO = TERMLO;
      878    10391    1     KS_ADMIN.TERMID_HI = TERMHI;
      879    10392    1     CALL KSR$WR_HLPCG(VECTOR(KS_ADMIN)) ALTRET(ERR);
      880    10393    1     CALL KSR$RD_HLPCG WHENRETURN
      881    10394    2        DO;
      882    10395    2           IF KS$HDR.RESULTS = '0'B THEN
      883    10396    3              DO;
      884    10397                %ARRAY_TO_WORD(S=TERMLO.TERM.CHANNEL,D=CHNL_NO_LO);
      885    10401                %ARRAY_TO_WORD(S=TERMLO.TERM.SUBDEVICE,D=SUBDEV_LO);
      886    10405                %ARRAY_TO_WORD(S=TERMLO.TERM.SUBSUBDEVICE,D=SUBSUBDEV_LO);
      887    10409                %ARRAY_TO_WORD(S=TERMHI.TERM.CHANNEL,D=CHNL_NO_HI);
      888    10413                %ARRAY_TO_WORD(S=TERMHI.TERM.SUBDEVICE,D=SUBDEV_HI);
      889    10417                %ARRAY_TO_WORD(S=TERMHI.TERM.SUBSUBDEVICE,D=SUBSUBDEV_HI);
      890    10421    3           CALL KSW$WRITE(CMPLTED_OK_VEC,VECTOR(CHNL_NO_LO),VECTOR(SUBDEV_LO),
      891    10422    3                          VECTOR(SUBSUBDEV_LO),VECTOR(CHNL_NO_HI),
      892    10423    3                          VECTOR(SUBDEV_HI),VECTOR(SUBSUBDEV_HI),
      893    10424    3                          VECTOR(PART_RET));
      894    10425    3           END;  /* results = 0 */
      895    10426    2        END;   /* end when return */
      896    10427    1     WHENALTRETURN
      897    10428    2        DO;
      898    10429    2        END;   /*alt return*/
      899    10430
      900    10431    2        DO WHILE ('0'B);
      901    10432    2   ERR1:   CALL KSE$ERRMSG(0);
      902    10433    2   ERR:    CALL KSE$ERRMSG(%E$KS_CANTDOIT);
      903    10434    2        END;
      904    10435    1     RETURN;
      905    10436
      906    10437    1     END KSC$PART;
      907    10438        %EOD;
PL6.E3A0      #003=KSC$PART File=KSC$COMMANDS1.:E05TSI                           WED 07/30/97 01:44 Page:157

PL6.E3A0      #003=KSC$PART File=KSC$COMMANDS1.:E05TSI                           WED 07/30/97 01:44 Page:158
--  Include file information  --

   KL_AFCN_C.:E05TOU  is referenced.
   KS_PERR_C.:E05TOU  is referenced.
   KS_DATA_R.:E05TOU  cannot be made into a system file and is referenced.
   KS_SUBS_C.:E05TOU  is referenced.
   KL_MACRO_C.:E05TOU  is referenced.
   KL_CONFIG_M.:E05TOU  is referenced.
   B_ERRORS_C.:E05TOU  is referenced.
   KS_MACRO_M.:E05TOU  is referenced.
   XU_MACRO_C.:E05TOU  is referenced.
   CP_6_SUBS.:E05TOU  is referenced.
   CP_6.:E05TOU  cannot be made into a system file and is referenced.
   KHA_FNC_E.:E05TOU  is referenced.
   B$JIT_C.:E05TOU  was found in the system file and is never referenced.
   CP_6_C.:E05TOU  was found in the system file and is referenced.
      No diagnostics issued in procedure KSC$PART.

   Procedure KSC$PART requires 235 words for executable code.
   Procedure KSC$PART requires 80 words of local(AUTO) storage.

PL6.E3A0      #003=KSC$PART File=KSC$COMMANDS1.:E05TSI                           WED 07/30/97 01:44 Page:159

 Object Unit name= KSC$PART                                   File name= KSC$COMMANDS1.:E05TOU
 UTS= JUL 30 '97 01:44:25.00 WED                              Compiler= PL-6/E31         Sev=      00
 SharedLib= :SHARED_SYSTEM                                    Alt SharedLib=


    ****  Control sections  ****

 Sect   Type Bound  Init  Size OctSiz  Section name(segment info)
    0   DCB   even  none     0      0  M$UC
    1  RoData even  UTS     36     44  KSC$PART
    2   Data  even  none    18     22  KSC$PART
    3   Proc  even  none   235    353  KSC$PART
    4  RoData even  none    12     14  KSC$PART

    ****  Entry defs  ****

                              Check   Calling
                             calling  sequence
  Sect OctLoc Primary Altret sequence   type   Parms  Name
     3      0   yes            yes      Std        1  KSC$PART

  ****  Entry refs  ****

         Check        Calling
        calling       sequence
Altret sequence SRef   type   Args  Name
         yes           Std       4 KSE$ERRMSG
 yes     yes           Std       2 KSU$CHK_TRM_RNG
 yes     yes           Std       1 KSR$RD_HLPCG
 yes     yes           Std       1 KSR$WR_HLPCG
         yes           Std      11 KSW$WRITE
 yes     yes           Std       3 KSU$BLD_TERMID
                       nStd      0 X66_AUTO_1
                       Std       0 B_CONSPOOL_D
                       nStd      0 X66_ARET
PL6.E3A0      #003=KSC$PART File=KSC$COMMANDS1.:E05TSI                           WED 07/30/97 01:44 Page:160

  ****  Data refs  ****

  Flags:  r = read only, s = secondary
Flgs Name                             Flgs Name                             Flgs Name
     M$UC                                  KS_MYSTATION                          KS_NODENAME
     KS_NODENAME_SV                        KS_HNDLRNAME                          KS_MSGBUF
     KS_MSGBUF$                            B_VECTNIL

  ****  Segment refs  ****

  Flags:  r = read only, s = secondary
Flgs Name                             Flgs Name                             Flgs Name
     ISSID
PL6.E3A0      #003=KSC$PART File=KSC$COMMANDS1.:E05TSI                           WED 07/30/97 01:44 Page:161


      759        1        /*T***********************************************************/
      760        2        /*T*                                                         */
      761        3        /*T* Copyright (c) Bull HN Information Systems Inc., 1997    */
      762        4        /*T*                                                         */
      763        5        /*T***********************************************************/
      764        6
      765        7
      766        8
      767        9
      768       10
      769       11        KSC$PART:  PROC(TOP$);

     11  3 000000   000000 700200 xent  KSC$PART     TSX0  ! X66_AUTO_1
         3 000001   000120 000001                    ZERO    80,1

      770       12
      771       13    1   DCL TOP$ PTR;
      772       14
      773       15        %INCLUDE KHA_FNC_E;
      774      115        %INCLUDE CP_6;
      775      196        %INCLUDE CP_6_SUBS;
      776      736        %INCLUDE XU_MACRO_C;
      777     3842        %INCLUDE KS_MACRO_M;
      778     4039        %INCLUDE B_ERRORS_C;
      779     5166        %INCLUDE KL_CONFIG_M;
      780     5928        %INCLUDE KL_MACRO_C;
      781     9280        %INCLUDE KS_SUBS_C;
      782     9523        %INCLUDE KS_DATA_R;
      783     9538        %INCLUDE KS_PERR_C;
      784     9605        %INCLUDE KL_AFCN_C;
      785     9706        /**/
      786     9707        %KS$BOX(TITLE="entry defs");

              9725    1   /***************************************************************************
              9726    1    *                                                                         *
              9727    1    *                                 entry defs                              *
PL6.E3A0      #003=KSC$PART File=KSC$COMMANDS1.:E05TSI                           WED 07/30/97 01:44 Page:162
              9728    1    *                                                                         *
              9729    1    ***************************************************************************/

      787     9734    1   DCL KSE$ERRMSG ENTRY(4);
      788     9735    1   DCL KSR$RD_HLPCG ENTRY(1) ALTRET;
      789     9736    1   DCL KSR$WR_HLPCG ENTRY(1) ALTRET;
      790     9737    1   DCL KSU$BLD_TERMID ENTRY(3) ALTRET;
      791     9738    1   DCL KSU$CHK_TRM_RNG ENTRY(2) ALTRET;
      792     9739    1   DCL XUR$ERRMSG ENTRY(7) ALTRET;
      793     9740    1   DCL XUR$ERRCNVRT ENTRY(2);
      794     9741    1   DCL KSW$WRITE ENTRY(11);
      795     9742        %KS$BOX(TITLE="symref variables");

              9760    1   /***************************************************************************
              9761    1    *                                                                         *
              9762    1    *                              symref variables                           *
              9763    1    *                                                                         *
              9764    1    ***************************************************************************/

      796     9769    1   DCL B$TCB$ PTR SYMREF;
      797     9770        %KS$BOX(TITLE="constant variables");

              9788    1   /***************************************************************************
              9789    1    *                                                                         *
              9790    1    *                             constant variables                          *
              9791    1    *                                                                         *
              9792    1    ***************************************************************************/

      798     9797    1   DCL FORM_FMT CHAR(0) CONSTANT INIT('terminals %LA to %LA %LA on channel %LH%10P');
      799     9798    1   DCL FORM_VEC BIT(72) CONSTANT DALIGNED INIT(VECTOR(FORM_FMT));
      800     9799        %KS$BOX(TITLE="static variables");

              9817    1   /***************************************************************************
              9818    1    *                                                                         *
              9819    1    *                              static variables                           *
              9820    1    *                                                                         *
              9821    1    ***************************************************************************/
PL6.E3A0      #003=KSC$PART File=KSC$COMMANDS1.:E05TSI                           WED 07/30/97 01:44 Page:163

      801     9826    1   DCL HDR$ PTR STATIC INIT(ADDR(KS_MSGBUF));
      802     9827        %KS$BOX(TITLE="auto variables");

              9845    1   /***************************************************************************
              9846    1    *                                                                         *
              9847    1    *                               auto variables                            *
              9848    1    *                                                                         *
              9849    1    ***************************************************************************/

      803     9854    1   DCL ATTRIBUTE UBIN;
      804     9855    1   DCL CHNL_NO_HI UBIN;
      805     9856    1   DCL CHNL_NO_LO UBIN;
      806     9857    1   DCL CODE UBIN;
      807     9858    1   DCL ERR BIT(36);
      808     9859    1   DCL J UBIN;
      809     9860    1   DCL PART_RET CHAR(11);
      810     9861    1   DCL SUBDEV_LO  UBIN;
      811     9862    1   DCL SUBSUBDEV_LO UBIN;
      812     9863    1   DCL SUBDEV_HI UBIN;
      813     9864    1   DCL SUBSUBDEV_HI UBIN;
      814     9865    1   DCL TERMID_LO CHAR(8);
      815     9866    1   DCL TERMID_HI CHAR(8);
      816     9867        %B$TERMINAL_ID(FPTN=TERMLO,STCLASS=AUTO);
      817     9896        %B$TERMINAL_ID(FPTN=TERMHI,STCLASS=AUTO);
      818     9925        %KS$BOX(TITLE="constant variables");

              9943    1   /***************************************************************************
              9944    1    *                                                                         *
              9945    1    *                             constant variables                          *
              9946    1    *                                                                         *
              9947    1    ***************************************************************************/

      819     9952    1   DCL CMPLTED_OK_FMT CHAR(0) CONSTANT INIT(
              9952            '%5X Line(s) %LH - %LD - %LD to %LH - %LD - %LD %LA%10P');
      820     9953    1   DCL CMPLTED_OK_VEC BIT(72) CONSTANT DALIGNED INIT(VECTOR(CMPLTED_OK_FMT));
      821     9954        %KS$BOX(TITLE="static variables");
PL6.E3A0      #003=KSC$PART File=KSC$COMMANDS1.:E05TSI                           WED 07/30/97 01:44 Page:164

              9972    1   /***************************************************************************
              9973    1    *                                                                         *
              9974    1    *                              static variables                           *
              9975    1    *                                                                         *
              9976    1    ***************************************************************************/

      822     9981        %KL_ADMIN (FPTN=KS_ADMIN,STCLASS=STATIC);
      823    10141        %KS$BOX(TITLE="based variables");

             10159    1   /***************************************************************************
             10160    1    *                                                                         *
             10161    1    *                              based variables                            *
             10162    1    *                                                                         *
             10163    1    ***************************************************************************/

      824    10168        %KL_HDR(FPTN=KS$HDR,STCLASS="BASED(HDR$)");
      825    10248        %B$TCB;
      826    10251        %B$ALT;
      827    10259        %PARSE$OUT(NAME=OUT$BLK,STCLASS="BASED(TOP$)");
      828    10304        %PARSE$SYM(NAME=OUT$SYM,STCLASS=BASED);
      829    10342        %MACRO ARRAY_TO_WORD (S=JUNK,D=JUNK);
      830    10343             D = S.BYT(0) * 256;
      831    10344             D = D + S.BYT(1);
      832    10345        %MEND;
      833    10346        %EJECT;
PL6.E3A0      #003=KSC$PART File=KSC$COMMANDS1.:E05TSI                           WED 07/30/97 01:44 Page:165
      834    10347    1     IF KS_NODENAME = 'HOST' THEN

  10347  3 000002   040000 106400                    CMPC    fill='040'O
         3 000003   000000 000010 xsym               ADSC9   KS_NODENAME              cn=0,n=8
         3 000004   000036 000004 1                  ADSC9   CMPLTED_OK_VEC+2         cn=0,n=4
         3 000005   000013 601000 3                  TNZ     s:10357

      835    10348    2        DO;

      836    10349    2        CALL KSE$ERRMSG(%E$KS_NONODE);

  10349  3 000006   000000 630400 4                  EPPR0   0
         3 000007   000017 631400 xsym               EPPR1   B_VECTNIL+15
         3 000010   000000 701000 xent               TSX1    KSE$ERRMSG
         3 000011   000000 011000                    NOP     0

      837    10350    2        RETURN;

  10350  3 000012   000000 702200 xent               TSX2  ! X66_ARET

      838    10351    2        END;
      839    10352
      840    10353        /*
      841    10354           set code and determine if a range is specified or if a single
      842    10355           line is to be partition / returned
      843    10356        */
      844    10357    1     IF KS_NODENAME_SV ~= ' ' THEN

  10357  3 000013   040000 106400                    CMPC    fill='040'O
         3 000014   000000 000010 xsym               ADSC9   KS_NODENAME_SV           cn=0,n=8
         3 000015   000035 000001 xsym               ADSC9   B_VECTNIL+29             cn=0,n=1
         3 000016   000022 600000 3                  TZE     s:10360

      845    10358    1        J=1;

  10358  3 000017   000001 235007                    LDA     1,DL
         3 000020   200011 755100                    STA     J,,AUTO
PL6.E3A0      #003=KSC$PART File=KSC$COMMANDS1.:E05TSI                           WED 07/30/97 01:44 Page:166
         3 000021   000023 710000 3                  TRA     s:10361

      846    10359    1     ELSE
      847    10360    1        J=0;

  10360  3 000022   200011 450100                    STZ     J,,AUTO

      848    10361    1     CODE = OUT$BLK.CODE;

  10361  3 000023   200003 470500                    LDP0    @TOP$,,AUTO
         3 000024   000000 471500                    LDP1    0,,PR0
         3 000025   100000 236100                    LDQ     0,,PR1
         3 000026   777777 376007                    ANQ     -1,DL
         3 000027   200007 756100                    STQ     CODE,,AUTO

      849    10362    1     CALL KSU$BLD_TERMID(OUT$BLK.SUBLK$(J)->OUT$BLK.SUBLK$(0),TERMLO) ALTRET(ERR);

  10362  3 000030   200011 720100                    LXL0    J,,AUTO
         3 000031   100003 473510                    LDP3    3,X0,PR1
         3 000032   200025 634500                    EPPR4   TERMLO,,AUTO
         3 000033   200037 454500                    STP4    TERMHI+6,,AUTO
         3 000034   300003 631500                    EPPR1   3,,PR3
         3 000035   200036 451500                    STP1    TERMHI+5,,AUTO
         3 000036   200036 630500                    EPPR0   TERMHI+5,,AUTO
         3 000037   000020 631400 xsym               EPPR1   B_VECTNIL+16
         3 000040   000000 701000 xent               TSX1    KSU$BLD_TERMID
         3 000041   000346 702000 3                  TSX2    ERR

      850    10363    1     IF OUT$BLK.SUBLK$(0)->OUT$BLK.NSUBLKS = 2 THEN

  10363  3 000042   200003 470500                    LDP0    @TOP$,,AUTO
         3 000043   000000 471500                    LDP1    0,,PR0
         3 000044   100003 473500                    LDP3    3,,PR1
         3 000045   300001 220100                    LDX0    1,,PR3
         3 000046   000002 100003                    CMPX0   2,DU
         3 000047   000101 601000 3                  TNZ     s:10374

PL6.E3A0      #003=KSC$PART File=KSC$COMMANDS1.:E05TSI                           WED 07/30/97 01:44 Page:167
      851    10364    2        DO;

      852    10365    2        CALL KSU$BLD_TERMID(OUT$BLK.SUBLK$(J)->OUT$BLK.SUBLK$(1),TERMHI) ALTRET(ERR);

  10365  3 000050   200011 721100                    LXL1    J,,AUTO
         3 000051   100003 474511                    LDP4    3,X1,PR1
         3 000052   200031 635500                    EPPR5   TERMHI,,AUTO
         3 000053   200037 455500                    STP5    TERMHI+6,,AUTO
         3 000054   400004 631500                    EPPR1   4,,PR4
         3 000055   200036 451500                    STP1    TERMHI+5,,AUTO
         3 000056   200036 630500                    EPPR0   TERMHI+5,,AUTO
         3 000057   000020 631400 xsym               EPPR1   B_VECTNIL+16
         3 000060   000000 701000 xent               TSX1    KSU$BLD_TERMID
         3 000061   000346 702000 3                  TSX2    ERR

      853    10366    2        CALL KSU$CHK_TRM_RNG(TERMLO,TERMHI) WHENALTRETURN

  10366  3 000062   200031 630500                    EPPR0   TERMHI,,AUTO
         3 000063   200037 450500                    STP0    TERMHI+6,,AUTO
         3 000064   200025 631500                    EPPR1   TERMLO,,AUTO
         3 000065   200036 451500                    STP1    TERMHI+5,,AUTO
         3 000066   200036 630500                    EPPR0   TERMHI+5,,AUTO
         3 000067   000020 631400 xsym               EPPR1   B_VECTNIL+16
         3 000070   000000 701000 xent               TSX1    KSU$CHK_TRM_RNG
         3 000071   000073 702000 3                  TSX2    s:10368
         3 000072   000100 710000 3                  TRA     s:10371

      854    10367    3           DO;

      855    10368    3           CALL KSE$ERRMSG(%E$KS_BAD_TRM_RANGE);

  10368  3 000073   000002 630400 4                  EPPR0   2
         3 000074   000017 631400 xsym               EPPR1   B_VECTNIL+15
         3 000075   000000 701000 xent               TSX1    KSE$ERRMSG
         3 000076   000000 011000                    NOP     0

      856    10369    3           GOTO ERR1;
PL6.E3A0      #003=KSC$PART File=KSC$COMMANDS1.:E05TSI                           WED 07/30/97 01:44 Page:168

  10369  3 000077   000342 710000 3                  TRA     ERR1

      857    10370    3           END; /* end altreturn */
      858    10371    2        END; /* number of sub-blocks = 2 */

  10371  3 000100   000104 710000 3                  TRA     s:10377

      859    10372    1     ELSE
      860    10373    2        DO;

      861    10374    2        TERMHI = TERMLO;

  10374  3 000101   000100 100500                    MLR     fill='000'O
         3 000102   200025 000020                    ADSC9   TERMLO,,AUTO             cn=0,n=16
         3 000103   200031 000020                    ADSC9   TERMHI,,AUTO             cn=0,n=16

      862    10375    2        END;

      863    10376
      864    10377    2     DO CASE (CODE);

  10377  3 000104   200007 235100                    LDA     CODE,,AUTO
         3 000105   000010 135007                    SBLA    8,DL
         3 000106   000002 115007                    CMPA    2,DL
         3 000107   000111 602005 3                  TNC     s:10377+5,AL
         3 000110   000126 710000 3                  TRA     s:10389
         3 000111   000113 710000 3                  TRA     s:10379
         3 000112   000121 710000 3                  TRA     s:10382

      865    10378    2        CASE(%KS_PART);

      866    10379    2           KS_ADMIN.FNC = %KHA_FNC_PARTITION;

  10379  3 000113   000007 220003                    LDX0    7,DU
         3 000114   000011 440000 2                  SXL0    KS_ADMIN+8

PL6.E3A0      #003=KSC$PART File=KSC$COMMANDS1.:E05TSI                           WED 07/30/97 01:44 Page:169
      867    10380    2           PART_RET = 'partitioned';

  10380  3 000115   040100 100400                    MLR     fill='040'O
         3 000116   000037 000013 1                  ADSC9   CMPLTED_OK_VEC+3         cn=0,n=11
         3 000117   200012 000013                    ADSC9   PART_RET,,AUTO           cn=0,n=11
         3 000120   000126 710000 3                  TRA     s:10389

      868    10381    2        CASE(%KS_RET);

      869    10382    2           KS_ADMIN.FNC = %KHA_FNC_RETURN;

  10382  3 000121   000011 220003                    LDX0    9,DU
         3 000122   000011 440000 2                  SXL0    KS_ADMIN+8

      870    10383    2           PART_RET = 'Returned';

  10383  3 000123   040100 100400                    MLR     fill='040'O
         3 000124   000042 000010 1                  ADSC9   CMPLTED_OK_VEC+6         cn=0,n=8
         3 000125   200012 000013                    ADSC9   PART_RET,,AUTO           cn=0,n=11

      871    10384    2     END; /*end case code*/

      872    10385
      873    10386        /*
      874    10387          set handler name, terminal low and high name
      875    10388        */
      876    10389    1     KS_ADMIN.HANDLER = KS_HNDLRNAME;

  10389  3 000126   040000 100400                    MLR     fill='040'O
         3 000127   000000 000010 xsym               ADSC9   KS_HNDLRNAME             cn=0,n=8
         3 000130   000002 000010 2                  ADSC9   KS_ADMIN+1               cn=0,n=8

      877    10390    1     KS_ADMIN.TERMID_LO = TERMLO;

  10390  3 000131   000000 100500                    MLR     fill='000'O
         3 000132   200025 000020                    ADSC9   TERMLO,,AUTO             cn=0,n=16
         3 000133   000012 000020 2                  ADSC9   KS_ADMIN+9               cn=0,n=16
PL6.E3A0      #003=KSC$PART File=KSC$COMMANDS1.:E05TSI                           WED 07/30/97 01:44 Page:170

      878    10391    1     KS_ADMIN.TERMID_HI = TERMHI;

  10391  3 000134   000000 100500                    MLR     fill='000'O
         3 000135   200031 000020                    ADSC9   TERMHI,,AUTO             cn=0,n=16
         3 000136   000016 000020 2                  ADSC9   KS_ADMIN+13              cn=0,n=16

      879    10392    1     CALL KSR$WR_HLPCG(VECTOR(KS_ADMIN)) ALTRET(ERR);

  10392  3 000137   000006 630400 4                  EPPR0   6
         3 000140   000017 631400 xsym               EPPR1   B_VECTNIL+15
         3 000141   000000 701000 xent               TSX1    KSR$WR_HLPCG
         3 000142   000346 702000 3                  TSX2    ERR

      880    10393    1     CALL KSR$RD_HLPCG WHENRETURN

  10393  3 000143   000002 631400 xsym               EPPR1   B_VECTNIL+2
         3 000144   000000 701000 xent               TSX1    KSR$RD_HLPCG
         3 000145   000341 702000 3                  TSX2    s:10431

      881    10394    2        DO;

      882    10395    2           IF KS$HDR.RESULTS = '0'B THEN

  10395  3 000146   000000 470400 2                  LDP0    HDR$
         3 000147   000007 235100                    LDA     7,,PR0
         3 000150   000340 601000 3                  TNZ     s:10426

      883    10396    3              DO;

      884    10397                %ARRAY_TO_WORD(S=TERMLO.TERM.CHANNEL,D=CHNL_NO_LO);

  10398  3 000151   200025 236100                    LDQ     TERMLO,,AUTO
         3 000152   000001 772000                    QRL     1
         3 000153   177400 376007                    ANQ     65280,DL
         3 000154   200006 756100                    STQ     CHNL_NO_LO,,AUTO

PL6.E3A0      #003=KSC$PART File=KSC$COMMANDS1.:E05TSI                           WED 07/30/97 01:44 Page:171
  10399  3 000155   200025 236100                    LDQ     TERMLO,,AUTO
         3 000156   000377 376007                    ANQ     255,DL
         3 000157   200006 036100                    ADLQ    CHNL_NO_LO,,AUTO
         3 000160   200006 756100                    STQ     CHNL_NO_LO,,AUTO

      885    10401                %ARRAY_TO_WORD(S=TERMLO.TERM.SUBDEVICE,D=SUBDEV_LO);

  10402  3 000161   200026 236100                    LDQ     TERMLO+1,,AUTO
         3 000162   000023 772000                    QRL     19
         3 000163   177400 376007                    ANQ     65280,DL
         3 000164   200015 756100                    STQ     SUBDEV_LO,,AUTO

  10403  3 000165   200026 236100                    LDQ     TERMLO+1,,AUTO
         3 000166   000022 772000                    QRL     18
         3 000167   000377 376007                    ANQ     255,DL
         3 000170   200015 036100                    ADLQ    SUBDEV_LO,,AUTO
         3 000171   200015 756100                    STQ     SUBDEV_LO,,AUTO

      886    10405                %ARRAY_TO_WORD(S=TERMLO.TERM.SUBSUBDEVICE,D=SUBSUBDEV_LO);

  10406  3 000172   200026 236100                    LDQ     TERMLO+1,,AUTO
         3 000173   000001 772000                    QRL     1
         3 000174   177400 376007                    ANQ     65280,DL
         3 000175   200016 756100                    STQ     SUBSUBDEV_LO,,AUTO

  10407  3 000176   200026 236100                    LDQ     TERMLO+1,,AUTO
         3 000177   000377 376007                    ANQ     255,DL
         3 000200   200016 036100                    ADLQ    SUBSUBDEV_LO,,AUTO
         3 000201   200016 756100                    STQ     SUBSUBDEV_LO,,AUTO

      887    10409                %ARRAY_TO_WORD(S=TERMHI.TERM.CHANNEL,D=CHNL_NO_HI);

  10410  3 000202   200031 236100                    LDQ     TERMHI,,AUTO
         3 000203   000001 772000                    QRL     1
         3 000204   177400 376007                    ANQ     65280,DL
         3 000205   200005 756100                    STQ     CHNL_NO_HI,,AUTO

PL6.E3A0      #003=KSC$PART File=KSC$COMMANDS1.:E05TSI                           WED 07/30/97 01:44 Page:172
  10411  3 000206   200031 236100                    LDQ     TERMHI,,AUTO
         3 000207   000377 376007                    ANQ     255,DL
         3 000210   200005 036100                    ADLQ    CHNL_NO_HI,,AUTO
         3 000211   200005 756100                    STQ     CHNL_NO_HI,,AUTO

      888    10413                %ARRAY_TO_WORD(S=TERMHI.TERM.SUBDEVICE,D=SUBDEV_HI);

  10414  3 000212   200032 236100                    LDQ     TERMHI+1,,AUTO
         3 000213   000023 772000                    QRL     19
         3 000214   177400 376007                    ANQ     65280,DL
         3 000215   200017 756100                    STQ     SUBDEV_HI,,AUTO

  10415  3 000216   200032 236100                    LDQ     TERMHI+1,,AUTO
         3 000217   000022 772000                    QRL     18
         3 000220   000377 376007                    ANQ     255,DL
         3 000221   200017 036100                    ADLQ    SUBDEV_HI,,AUTO
         3 000222   200017 756100                    STQ     SUBDEV_HI,,AUTO

      889    10417                %ARRAY_TO_WORD(S=TERMHI.TERM.SUBSUBDEVICE,D=SUBSUBDEV_HI);

  10418  3 000223   200032 236100                    LDQ     TERMHI+1,,AUTO
         3 000224   000001 772000                    QRL     1
         3 000225   177400 376007                    ANQ     65280,DL
         3 000226   200020 756100                    STQ     SUBSUBDEV_HI,,AUTO

  10419  3 000227   200032 236100                    LDQ     TERMHI+1,,AUTO
         3 000230   000377 376007                    ANQ     255,DL
         3 000231   200020 036100                    ADLQ    SUBSUBDEV_HI,,AUTO
         3 000232   200020 756100                    STQ     SUBSUBDEV_HI,,AUTO

      890    10421    3           CALL KSW$WRITE(CMPLTED_OK_VEC,VECTOR(CHNL_NO_LO),VECTOR(SUBDEV_LO),

  10421  3 000233   777640 235007                    LDA     -96,DL
         3 000234   200036 452500                    STP2    TERMHI+5,,AUTO
         3 000235   200036 236100                    LDQ     TERMHI+5,,AUTO
         3 000236   000006 036003                    ADLQ    6,DU
         3 000237   200040 757100                    STAQ    TERMHI+7,,AUTO
PL6.E3A0      #003=KSC$PART File=KSC$COMMANDS1.:E05TSI                           WED 07/30/97 01:44 Page:173
         3 000240   777640 235007                    LDA     -96,DL
         3 000241   200042 452500                    STP2    TERMHI+9,,AUTO
         3 000242   200042 236100                    LDQ     TERMHI+9,,AUTO
         3 000243   000015 036003                    ADLQ    13,DU
         3 000244   200044 757100                    STAQ    TERMHI+11,,AUTO
         3 000245   777640 235007                    LDA     -96,DL
         3 000246   200046 452500                    STP2    TERMHI+13,,AUTO
         3 000247   200046 236100                    LDQ     TERMHI+13,,AUTO
         3 000250   000016 036003                    ADLQ    14,DU
         3 000251   200050 757100                    STAQ    TERMHI+15,,AUTO
         3 000252   777640 235007                    LDA     -96,DL
         3 000253   200052 452500                    STP2    TERMHI+17,,AUTO
         3 000254   200052 236100                    LDQ     TERMHI+17,,AUTO
         3 000255   000005 036003                    ADLQ    5,DU
         3 000256   200054 757100                    STAQ    TERMHI+19,,AUTO
         3 000257   777640 235007                    LDA     -96,DL
         3 000260   200056 452500                    STP2    TERMHI+21,,AUTO
         3 000261   200056 236100                    LDQ     TERMHI+21,,AUTO
         3 000262   000017 036003                    ADLQ    15,DU
         3 000263   200060 757100                    STAQ    TERMHI+23,,AUTO
         3 000264   777640 235007                    LDA     -96,DL
         3 000265   200062 452500                    STP2    TERMHI+25,,AUTO
         3 000266   200062 236100                    LDQ     TERMHI+25,,AUTO
         3 000267   000020 036003                    ADLQ    16,DU
         3 000270   200064 757100                    STAQ    TERMHI+27,,AUTO
         3 000271   000007 235000 4                  LDA     7
         3 000272   200066 452500                    STP2    TERMHI+29,,AUTO
         3 000273   200066 236100                    LDQ     TERMHI+29,,AUTO
         3 000274   000012 036003                    ADLQ    10,DU
         3 000275   200072 757100                    STAQ    TERMHI+33,,AUTO
         3 000276   200040 237100                    LDAQ    TERMHI+7,,AUTO
         3 000277   200070 757100                    STAQ    TERMHI+31,,AUTO
         3 000300   200044 237100                    LDAQ    TERMHI+11,,AUTO
         3 000301   200074 757100                    STAQ    TERMHI+35,,AUTO
         3 000302   200050 237100                    LDAQ    TERMHI+15,,AUTO
         3 000303   200076 757100                    STAQ    TERMHI+37,,AUTO
         3 000304   200054 237100                    LDAQ    TERMHI+19,,AUTO
PL6.E3A0      #003=KSC$PART File=KSC$COMMANDS1.:E05TSI                           WED 07/30/97 01:44 Page:174
         3 000305   200100 757100                    STAQ    TERMHI+39,,AUTO
         3 000306   200060 237100                    LDAQ    TERMHI+23,,AUTO
         3 000307   200102 757100                    STAQ    TERMHI+41,,AUTO
         3 000310   200064 237100                    LDAQ    TERMHI+27,,AUTO
         3 000311   200104 757100                    STAQ    TERMHI+43,,AUTO
         3 000312   200072 237100                    LDAQ    TERMHI+33,,AUTO
         3 000313   200106 757100                    STAQ    TERMHI+45,,AUTO
         3 000314   200106 631500                    EPPR1   TERMHI+45,,AUTO
         3 000315   200117 451500                    STP1    TERMHI+54,,AUTO
         3 000316   200104 633500                    EPPR3   TERMHI+43,,AUTO
         3 000317   200116 453500                    STP3    TERMHI+53,,AUTO
         3 000320   200102 634500                    EPPR4   TERMHI+41,,AUTO
         3 000321   200115 454500                    STP4    TERMHI+52,,AUTO
         3 000322   200100 635500                    EPPR5   TERMHI+39,,AUTO
         3 000323   200114 455500                    STP5    TERMHI+51,,AUTO
         3 000324   200076 636500                    EPPR6   TERMHI+37,,AUTO
         3 000325   200113 456500                    STP6    TERMHI+50,,AUTO
         3 000326   200074 637500                    EPPR7   TERMHI+35,,AUTO
         3 000327   200112 457500                    STP7    TERMHI+49,,AUTO
         3 000330   200070 630500                    EPPR0   TERMHI+31,,AUTO
         3 000331   200111 450500                    STP0    TERMHI+48,,AUTO
         3 000332   000010 236000 4                  LDQ     8
         3 000333   200110 756100                    STQ     TERMHI+47,,AUTO
         3 000334   200110 630500                    EPPR0   TERMHI+47,,AUTO
         3 000335   000026 631400 xsym               EPPR1   B_VECTNIL+22
         3 000336   000000 701000 xent               TSX1    KSW$WRITE
         3 000337   000000 011000                    NOP     0

      891    10422    3                          VECTOR(SUBSUBDEV_LO),VECTOR(CHNL_NO_HI),
      892    10423    3                          VECTOR(SUBDEV_HI),VECTOR(SUBSUBDEV_HI),
      893    10424    3                          VECTOR(PART_RET));
      894    10425    3           END;  /* results = 0 */

      895    10426    2        END;   /* end when return */

  10426  3 000340   000341 710000 3                  TRA     s:10431

PL6.E3A0      #003=KSC$PART File=KSC$COMMANDS1.:E05TSI                           WED 07/30/97 01:44 Page:175
      896    10427    1     WHENALTRETURN
      897    10428    2        DO;

      898    10429    2        END;   /*alt return*/

      899    10430
      900    10431    2        DO WHILE ('0'B);

  10431  3 000341   000352 710000 3                  TRA     s:10435

      901    10432    2   ERR1:   CALL KSE$ERRMSG(0);

  10432  3 000342   000011 630400 4     ERR1         EPPR0   9
         3 000343   000017 631400 xsym               EPPR1   B_VECTNIL+15
         3 000344   000000 701000 xent               TSX1    KSE$ERRMSG
         3 000345   000000 011000                    NOP     0

      902    10433    2   ERR:    CALL KSE$ERRMSG(%E$KS_CANTDOIT);

  10433  3 000346   000013 630400 4     ERR          EPPR0   11
         3 000347   000017 631400 xsym               EPPR1   B_VECTNIL+15
         3 000350   000000 701000 xent               TSX1    KSE$ERRMSG
         3 000351   000000 011000                    NOP     0

      903    10434    2        END;

      904    10435    1     RETURN;

  10435  3 000352   000000 702200 xent               TSX2  ! X66_ARET
      905    10436
      906    10437    1     END KSC$PART;
      907    10438        %EOD;

PL6.E3A0      #003=KSC$PART File=KSC$COMMANDS1.:E05TSI                           WED 07/30/97 01:44 Page:176
--  Include file information  --

   KL_AFCN_C.:E05TOU  is referenced.
   KS_PERR_C.:E05TOU  is referenced.
   KS_DATA_R.:E05TOU  cannot be made into a system file and is referenced.
   KS_SUBS_C.:E05TOU  is referenced.
   KL_MACRO_C.:E05TOU  is referenced.
   KL_CONFIG_M.:E05TOU  is referenced.
   B_ERRORS_C.:E05TOU  is referenced.
   KS_MACRO_M.:E05TOU  is referenced.
   XU_MACRO_C.:E05TOU  is referenced.
   CP_6_SUBS.:E05TOU  is referenced.
   CP_6.:E05TOU  cannot be made into a system file and is referenced.
   KHA_FNC_E.:E05TOU  is referenced.
   B$JIT_C.:E05TOU  was found in the system file and is never referenced.
   CP_6_C.:E05TOU  was found in the system file and is referenced.
      No diagnostics issued in procedure KSC$PART.
PL6.E3A0      #003=KSC$PART File=KSC$COMMANDS1.:E05TSI                           WED 07/30/97 01:44 Page:177

 **** Variables and constants ****

  ****  Section 001 RoData KSC$PART

  ****  Scalars and arrays  ****
OctLoc.c.b A Datatyp(siz) R M Lvl/name                 OctLoc.c.b A Datatyp(siz) R M Lvl/name

    16-0-0/c CHAR(54)    r     1 CMPLTED_OK_FMT            34-0-0/d BIT (72)    r     1 CMPLTED_OK_VEC
     0-0-0/c CHAR(43)    r     1 FORM_FMT

  ****  Section 002  Data  KSC$PART

  ****  Scalars and arrays  ****
OctLoc.c.b A Datatyp(siz) R M Lvl/name                 OctLoc.c.b A Datatyp(siz) R M Lvl/name

     0-0-0/w PTR         r     1 HDR$                       1-0-0/w STRC(612)   r     1 KS_ADMIN

  ****  Auto variables  ****

  ****  Scalars and arrays  ****
OctLoc.c.b A Datatyp(siz) R M Lvl/name                 OctLoc.c.b A Datatyp(siz) R M Lvl/name

     3-0-0/w PTR         r     1 @TOP$                      5-0-0/w UBIN        r     1 CHNL_NO_HI
     6-0-0/w UBIN        r     1 CHNL_NO_LO                 7-0-0/w UBIN        r     1 CODE
    11-0-0/w UBIN        r     1 J                         12-0-0/c CHAR(11)    r     1 PART_RET
    17-0-0/w UBIN        r     1 SUBDEV_HI                 15-0-0/w UBIN        r     1 SUBDEV_LO
    20-0-0/w UBIN        r     1 SUBSUBDEV_HI              16-0-0/w UBIN        r     1 SUBSUBDEV_LO
    31-0-0/c STRC(144)   r     1 TERMHI                    25-0-0/c STRC(144)   r     1 TERMLO
    *0-0-0/w PTR         r     1 TOP$

  ****  SYMREF variables  ****

  ****  Scalars and arrays  ****
OctLoc.c.b A Datatyp(siz) R M Lvl/name                 OctLoc.c.b A Datatyp(siz) R M Lvl/name

     0-0-0/c CHAR(8)     r     1 KS_HNDLRNAME               0-0-0/c CHAR(400)   r     1 KS_MSGBUF
     0-0-0/w PTR         r     1 KS_MSGBUF$                 0-0-0/c CHAR(8)     r     1 KS_NODENAME
PL6.E3A0      #003=KSC$PART File=KSC$COMMANDS1.:E05TSI                           WED 07/30/97 01:44 Page:178
     0-0-0/c CHAR(8)     r     1 KS_NODENAME_SV

  ****  BASED and DCB variables  ****

  ****  Scalars and arrays  ****
OctLoc.c.b A Datatyp(siz) R M Lvl/name                 OctLoc.c.b A Datatyp(siz) R M Lvl/name

     0-0-0/w STRC(306)   r     1 KS$HDR                     0-0-0/w STRC(144)   r     1 OUT$BLK
     0-0-0/w ASTR(153)   r     1 OUT$SYM


   Procedure KSC$PART requires 235 words for executable code.
   Procedure KSC$PART requires 80 words of local(AUTO) storage.
PL6.E3A0      #003=KSC$PART File=KSC$COMMANDS1.:E05TSI                           WED 07/30/97 01:44 Page:179
          *** CROSS REFERENCE LISTING ***
**     DENOTES     IDENTIFIER DEFINITION
<<                 IDENTIFIER'S VALUE SET
>>                 IDENTIFIER'S VALUE USED
<>                 IDENTIFIER SET AND/OR USED
--                 IDENTIFIER REFERENCED
PL6.E3A0      #003=KSC$PART File=KSC$COMMANDS1.:E05TSI                           WED 07/30/97 01:44 Page:180
          MINI XREF LISTING

B$ALT.CODE
     10253**DCL     10253--REDEF   10254--REDEF   10254--REDEF
B$ALT.ERR.ERR#
     10255**DCL     10255--REDEF
B$ALT.EVID
     10254**DCL     10254--REDEF   10254--REDEF
CHNL_NO_HI
      9855**DCL     10410<<ASSIGN  10411<<ASSIGN  10411>>ASSIGN  10421--CALL
CHNL_NO_LO
      9856**DCL     10398<<ASSIGN  10399<<ASSIGN  10399>>ASSIGN  10421--CALL
CMPLTED_OK_FMT
      9952**DCL      9953--DCLINIT
CMPLTED_OK_VEC
      9953**DCL     10421<>CALL
CODE
      9857**DCL     10361<<ASSIGN  10377>>DOCASE
ERR
     10433**LABEL   10362--CALLALT 10365--CALLALT 10392--CALLALT
ERR1
     10432**LABEL   10369--GOTO
FORM_FMT
      9797**DCL      9798--DCLINIT
HDR$
      9826**DCL     10184--IMP-PTR 10395>>IF
J
      9859**DCL     10358<<ASSIGN  10360<<ASSIGN  10362>>CALL    10365>>CALL
KS$HDR.RESULTS
     10214**DCL     10395>>IF
KSE$ERRMSG
      9734**DCL-ENT 10349--CALL    10368--CALL    10432--CALL    10433--CALL
KSR$RD_HLPCG
      9735**DCL-ENT 10393--CALL
PL6.E3A0      #003=KSC$PART File=KSC$COMMANDS1.:E05TSI                           WED 07/30/97 01:44 Page:181
KSR$WR_HLPCG
      9736**DCL-ENT 10392--CALL
KSU$BLD_TERMID
      9737**DCL-ENT 10362--CALL    10365--CALL
KSU$CHK_TRM_RNG
      9738**DCL-ENT 10366--CALL
KSW$WRITE
      9741**DCL-ENT 10421--CALL
KS_ADMIN
     10013**DCL     10392--CALL
KS_ADMIN.FNC
     10080**DCL     10379<<ASSIGN  10382<<ASSIGN
KS_ADMIN.HANDLER
     10022**DCL     10389<<ASSIGN
KS_ADMIN.TERMID_HI
     10127**DCL     10391<<ASSIGN
KS_ADMIN.TERMID_HI.TERM
     10129**DCL     10138--REDEF
KS_ADMIN.TERMID_LO
     10098**DCL     10390<<ASSIGN
KS_ADMIN.TERMID_LO.TERM
     10100**DCL     10109--REDEF
KS_HNDLRNAME
      9533**DCL     10389>>ASSIGN
KS_MSGBUF
      9535**DCL      9826--DCLINIT
KS_MSGBUF$
      9535**DCL      9535--IMP-PTR
KS_MYSTATION
      9531**DCL      9531--REDEF
KS_NODENAME
      9531**DCL     10347>>IF
KS_NODENAME_SV
      9532**DCL     10357>>IF
OUT$BLK.CODE
     10273**DCL     10361>>ASSIGN
PL6.E3A0      #003=KSC$PART File=KSC$COMMANDS1.:E05TSI                           WED 07/30/97 01:44 Page:182
OUT$BLK.NSUBLKS
     10277**DCL     10363>>IF
OUT$BLK.SUBLK$
     10298**DCL     10362>>CALL    10362<>CALL    10363>>IF      10365>>CALL    10365<>CALL
OUT$SYM.COUNT
     10334**DCL     10337--IMP-SIZ
PART_RET
      9860**DCL     10380<<ASSIGN  10383<<ASSIGN  10421--CALL
SUBDEV_HI
      9863**DCL     10414<<ASSIGN  10415<<ASSIGN  10415>>ASSIGN  10421--CALL
SUBDEV_LO
      9861**DCL     10402<<ASSIGN  10403<<ASSIGN  10403>>ASSIGN  10421--CALL
SUBSUBDEV_HI
      9864**DCL     10418<<ASSIGN  10419<<ASSIGN  10419>>ASSIGN  10421--CALL
SUBSUBDEV_LO
      9862**DCL     10406<<ASSIGN  10407<<ASSIGN  10407>>ASSIGN  10421--CALL
TERMHI
      9910**DCL     10365<>CALL    10366<>CALL    10374<<ASSIGN  10391>>ASSIGN
TERMHI.TERM
      9914**DCL      9923--REDEF
TERMHI.TERM.CHANNEL.BYT
      9916**DCL     10410>>ASSIGN  10411>>ASSIGN
TERMHI.TERM.SUBDEVICE.BYT
      9917**DCL     10414>>ASSIGN  10415>>ASSIGN
TERMHI.TERM.SUBSUBDEVICE.BYT
      9918**DCL     10418>>ASSIGN  10419>>ASSIGN
TERMLO
      9881**DCL     10362<>CALL    10366<>CALL    10374>>ASSIGN  10390>>ASSIGN
TERMLO.TERM
      9885**DCL      9894--REDEF
TERMLO.TERM.CHANNEL.BYT
      9887**DCL     10398>>ASSIGN  10399>>ASSIGN
TERMLO.TERM.SUBDEVICE.BYT
      9888**DCL     10402>>ASSIGN  10403>>ASSIGN
TERMLO.TERM.SUBSUBDEVICE.BYT
      9889**DCL     10406>>ASSIGN  10407>>ASSIGN
PL6.E3A0      #003=KSC$PART File=KSC$COMMANDS1.:E05TSI                           WED 07/30/97 01:44 Page:183
TOP$
        13**DCL        11--PROC    10265--IMP-PTR 10361>>ASSIGN  10362>>CALL    10363>>IF      10365>>CALL

